{
	"Dropsite.sol": {
		"Dropsite": {
			"abi": [
				{
					"inputs": [
						{
							"internalType": "string",
							"name": "name",
							"type": "string"
						}
					],
					"stateMutability": "nonpayable",
					"type": "constructor"
				},
				{
					"anonymous": false,
					"inputs": [
						{
							"indexed": true,
							"internalType": "address",
							"name": "operator",
							"type": "address"
						},
						{
							"indexed": true,
							"internalType": "address",
							"name": "from",
							"type": "address"
						},
						{
							"indexed": true,
							"internalType": "address",
							"name": "to",
							"type": "address"
						},
						{
							"indexed": false,
							"internalType": "uint256",
							"name": "id",
							"type": "uint256"
						},
						{
							"indexed": false,
							"internalType": "uint256",
							"name": "value",
							"type": "uint256"
						}
					],
					"name": "TransferSingle",
					"type": "event"
				},
				{
					"inputs": [],
					"name": "ContractBalance",
					"outputs": [
						{
							"internalType": "uint256",
							"name": "",
							"type": "uint256"
						}
					],
					"stateMutability": "view",
					"type": "function"
				},
				{
					"inputs": [
						{
							"internalType": "address",
							"name": "user_addr",
							"type": "address"
						}
					],
					"name": "CryptoRandomMint",
					"outputs": [
						{
							"internalType": "uint256",
							"name": "",
							"type": "uint256"
						},
						{
							"internalType": "string",
							"name": "",
							"type": "string"
						}
					],
					"stateMutability": "payable",
					"type": "function"
				},
				{
					"inputs": [
						{
							"internalType": "address",
							"name": "user_addr",
							"type": "address"
						}
					],
					"name": "FiatRandomMint",
					"outputs": [
						{
							"internalType": "uint256",
							"name": "",
							"type": "uint256"
						},
						{
							"internalType": "string",
							"name": "",
							"type": "string"
						}
					],
					"stateMutability": "nonpayable",
					"type": "function"
				},
				{
					"inputs": [],
					"name": "IsPaused",
					"outputs": [
						{
							"internalType": "bool",
							"name": "",
							"type": "bool"
						}
					],
					"stateMutability": "view",
					"type": "function"
				},
				{
					"inputs": [],
					"name": "Owner",
					"outputs": [
						{
							"internalType": "address payable",
							"name": "",
							"type": "address"
						}
					],
					"stateMutability": "view",
					"type": "function"
				},
				{
					"inputs": [],
					"name": "checkMintedCategoryWise",
					"outputs": [
						{
							"internalType": "uint256",
							"name": "",
							"type": "uint256"
						},
						{
							"internalType": "uint256",
							"name": "",
							"type": "uint256"
						},
						{
							"internalType": "uint256",
							"name": "",
							"type": "uint256"
						}
					],
					"stateMutability": "view",
					"type": "function"
				},
				{
					"inputs": [],
					"name": "checkTotalMinted",
					"outputs": [
						{
							"internalType": "uint256",
							"name": "",
							"type": "uint256"
						}
					],
					"stateMutability": "view",
					"type": "function"
				},
				{
					"inputs": [],
					"name": "openDropsite",
					"outputs": [],
					"stateMutability": "nonpayable",
					"type": "function"
				},
				{
					"inputs": [
						{
							"internalType": "address",
							"name": "addr",
							"type": "address"
						}
					],
					"name": "returnOwner",
					"outputs": [
						{
							"internalType": "uint256[]",
							"name": "",
							"type": "uint256[]"
						}
					],
					"stateMutability": "view",
					"type": "function"
				},
				{
					"inputs": [
						{
							"internalType": "uint256",
							"name": "_mintFee",
							"type": "uint256"
						}
					],
					"name": "setMintFee",
					"outputs": [],
					"stateMutability": "nonpayable",
					"type": "function"
				},
				{
					"inputs": [],
					"name": "stopDropsite",
					"outputs": [],
					"stateMutability": "nonpayable",
					"type": "function"
				},
				{
					"inputs": [
						{
							"internalType": "address payable",
							"name": "to",
							"type": "address"
						}
					],
					"name": "withDraw",
					"outputs": [],
					"stateMutability": "payable",
					"type": "function"
				}
			],
			"devdoc": {
				"kind": "dev",
				"methods": {},
				"version": 1
			},
			"evm": {
				"assembly": "    /* \"Dropsite.sol\":241:257  string  data =\"\" */\n  0xa0\n    /* \"Dropsite.sol\":146:6298  contract Dropsite is ERC1155_Dropsite  { ... */\n  0x40\n    /* \"Dropsite.sol\":241:257  string  data =\"\" */\n  dup2\n  swap1\n  mstore\n  0x00\n    /* \"Dropsite.sol\":146:6298  contract Dropsite is ERC1155_Dropsite  { ... */\n  0x80\n    /* \"Dropsite.sol\":241:257  string  data =\"\" */\n  dup2\n  swap1\n  mstore\n  tag_1\n  swap2\n  0x02\n  swap2\n  tag_2\n  jump\t// in\ntag_1:\n  pop\n    /* \"Dropsite.sol\":440:506  uint8[20] private nums = [0,1,1,2,2,2,2,2,2,2,2,2,2,2,2,2,2,2,2,2] */\n  0x40\n  dup1\n  mload\n  0x0280\n  dup2\n  add\n  dup3\n  mstore\n  0x00\n  dup2\n  mstore\n    /* \"Dropsite.sol\":468:469  1 */\n  0x01\n    /* \"Dropsite.sol\":440:506  uint8[20] private nums = [0,1,1,2,2,2,2,2,2,2,2,2,2,2,2,2,2,2,2,2] */\n  0x20\n  dup3\n  add\n  dup2\n  swap1\n  mstore\n  swap2\n  dup2\n  add\n  swap2\n  swap1\n  swap2\n  mstore\n    /* \"Dropsite.sol\":472:473  2 */\n  0x02\n    /* \"Dropsite.sol\":440:506  uint8[20] private nums = [0,1,1,2,2,2,2,2,2,2,2,2,2,2,2,2,2,2,2,2] */\n  0x60\n  dup3\n  add\n  dup2\n  swap1\n  mstore\n  0x80\n  dup3\n  add\n  dup2\n  swap1\n  mstore\n  0xa0\n  dup3\n  add\n  dup2\n  swap1\n  mstore\n  0xc0\n  dup3\n  add\n  dup2\n  swap1\n  mstore\n  0xe0\n  dup3\n  add\n  dup2\n  swap1\n  mstore\n  0x0100\n  dup3\n  add\n  dup2\n  swap1\n  mstore\n  0x0120\n  dup3\n  add\n  dup2\n  swap1\n  mstore\n  0x0140\n  dup3\n  add\n  dup2\n  swap1\n  mstore\n  0x0160\n  dup3\n  add\n  dup2\n  swap1\n  mstore\n  0x0180\n  dup3\n  add\n  dup2\n  swap1\n  mstore\n  0x01a0\n  dup3\n  add\n  dup2\n  swap1\n  mstore\n  0x01c0\n  dup3\n  add\n  dup2\n  swap1\n  mstore\n  0x01e0\n  dup3\n  add\n  dup2\n  swap1\n  mstore\n  0x0200\n  dup3\n  add\n  dup2\n  swap1\n  mstore\n  0x0220\n  dup3\n  add\n  dup2\n  swap1\n  mstore\n  0x0240\n  dup3\n  add\n  dup2\n  swap1\n  mstore\n  0x0260\n  dup3\n  add\n  mstore\n  tag_3\n  swap1\n  0x03\n  swap1\n  0x14\n  tag_4\n  jump\t// in\ntag_3:\n  pop\n    /* \"Dropsite.sol\":1432:1459  bool public IsPaused = true */\n  0x0c\n  dup1\n  sload\n  not(0xff)\n  and\n    /* \"Dropsite.sol\":1455:1459  true */\n  0x01\n    /* \"Dropsite.sol\":1432:1459  bool public IsPaused = true */\n  or\n  swap1\n  sstore\n    /* \"Dropsite.sol\":1526:1801  constructor (string memory name){... */\n  callvalue\n  dup1\n  iszero\n  tag_5\n  jumpi\n  0x00\n  dup1\n  revert\ntag_5:\n  pop\n  mload(0x40)\n  sub(codesize, bytecodeSize)\n  dup1\n  bytecodeSize\n  dup4\n  codecopy\n  dup2\n  add\n  0x40\n  dup2\n  swap1\n  mstore\n  tag_6\n  swap2\n  tag_7\n  jump\t// in\ntag_6:\n    /* \"Dropsite.sol\":1568:1580  _name = name */\n  dup1\n  mload\n  tag_10\n  swap1\n    /* \"Dropsite.sol\":1568:1573  _name */\n  0x0d\n  swap1\n    /* \"Dropsite.sol\":1568:1580  _name = name */\n  0x20\n  dup5\n  add\n  swap1\n  tag_2\n  jump\t// in\ntag_10:\n  pop\n  pop\n    /* \"Dropsite.sol\":1590:1595  Owner */\n  0x0c\n    /* \"Dropsite.sol\":1590:1617  Owner = payable(msg.sender) */\n  dup1\n  sload\n  not(sub(shl(0xa8, 0x01), 0x0100))\n  and\n    /* \"Dropsite.sol\":1606:1616  msg.sender */\n  caller\n    /* \"Dropsite.sol\":1590:1617  Owner = payable(msg.sender) */\n  0x0100\n  mul\n  or\n  swap1\n  sstore\n  0x00\n    /* \"Dropsite.sol\":1628:1643  TotalNFTsMinted */\n  0x04\n    /* \"Dropsite.sol\":1628:1645  TotalNFTsMinted=0 */\n  dup2\n  swap1\n  sstore\n  0x01\n    /* \"Dropsite.sol\":1679:1690  numOfCopies */\n  0x05\n    /* \"Dropsite.sol\":1679:1692  numOfCopies=1 */\n  sstore\n  0x07\n    /* \"Dropsite.sol\":1739:1748  Diamond=0 */\n  dup2\n  swap1\n  sstore\n  0x08\n    /* \"Dropsite.sol\":1770:1776  Gold=0 */\n  dup2\n  swap1\n  sstore\n    /* \"Dropsite.sol\":1786:1792  Silver */\n  0x09\n    /* \"Dropsite.sol\":1786:1794  Silver=0 */\n  sstore\n    /* \"Dropsite.sol\":146:6298  contract Dropsite is ERC1155_Dropsite  { ... */\n  jump(tag_28)\ntag_2:\n  dup3\n  dup1\n  sload\n  tag_12\n  swap1\n  tag_13\n  jump\t// in\ntag_12:\n  swap1\n  0x00\n  mstore\n  keccak256(0x00, 0x20)\n  swap1\n  0x1f\n  add\n  0x20\n  swap1\n  div\n  dup2\n  add\n  swap3\n  dup3\n  tag_15\n  jumpi\n  0x00\n  dup6\n  sstore\n  jump(tag_18)\ntag_15:\n  dup3\n  0x1f\n  lt\n  tag_16\n  jumpi\n  dup1\n  mload\n  not(0xff)\n  and\n  dup4\n  dup1\n  add\n  or\n  dup6\n  sstore\n  jump(tag_18)\ntag_16:\n  dup3\n  dup1\n  add\n  0x01\n  add\n  dup6\n  sstore\n  dup3\n  iszero\n  tag_18\n  jumpi\n  swap2\n  dup3\n  add\ntag_17:\n  dup3\n  dup2\n  gt\n  iszero\n  tag_18\n  jumpi\n  dup3\n  mload\n  dup3\n  sstore\n  swap2\n  0x20\n  add\n  swap2\n  swap1\n  0x01\n  add\n  swap1\n  jump(tag_17)\ntag_18:\n  pop\n  tag_19\n  swap3\n  swap2\n  pop\n  tag_20\n  jump\t// in\ntag_19:\n  pop\n  swap1\n  jump\t// out\ntag_4:\n  0x01\n  dup4\n  add\n  swap2\n  dup4\n  swap1\n  dup3\n  iszero\n  tag_18\n  jumpi\n  swap2\n  0x20\n  mul\n  dup3\n  add\n  0x00\ntag_22:\n  dup4\n  dup3\n  gt\n  iszero\n  tag_23\n  jumpi\n  dup4\n  mload\n  dup4\n  dup3\n  0x0100\n  exp\n  dup2\n  sload\n  dup2\n  0xff\n  mul\n  not\n  and\n  swap1\n  dup4\n  0xff\n  and\n  mul\n  or\n  swap1\n  sstore\n  pop\n  swap3\n  0x20\n  add\n  swap3\n  0x01\n  add\n  0x20\n  dup2\n  0x00\n  add\n  div\n  swap3\n  dup4\n  add\n  swap3\n  0x01\n  sub\n  mul\n  jump(tag_22)\ntag_23:\n  dup1\n  iszero\n  tag_24\n  jumpi\n  dup3\n  dup2\n  0x0100\n  exp\n  dup2\n  sload\n  swap1\n  0xff\n  mul\n  not\n  and\n  swap1\n  sstore\n  0x01\n  add\n  0x20\n  dup2\n  0x00\n  add\n  div\n  swap3\n  dup4\n  add\n  swap3\n  0x01\n  sub\n  mul\n  jump(tag_23)\ntag_24:\n  pop\n  pop\n  tag_19\n  swap3\n  swap2\n  pop\ntag_20:\ntag_26:\n  dup1\n  dup3\n  gt\n  iszero\n  tag_19\n  jumpi\n  0x00\n  dup2\n  sstore\n  0x01\n  add\n  jump(tag_26)\n    /* \"#utility.yul\":14:1101   */\ntag_7:\n    /* \"#utility.yul\":94:100   */\n  0x00\n    /* \"#utility.yul\":125:127   */\n  0x20\n    /* \"#utility.yul\":168:170   */\n  dup1\n    /* \"#utility.yul\":156:165   */\n  dup4\n    /* \"#utility.yul\":147:154   */\n  dup6\n    /* \"#utility.yul\":143:166   */\n  sub\n    /* \"#utility.yul\":139:171   */\n  slt\n    /* \"#utility.yul\":136:188   */\n  iszero\n  tag_30\n  jumpi\n    /* \"#utility.yul\":184:185   */\n  0x00\n    /* \"#utility.yul\":181:182   */\n  dup1\n    /* \"#utility.yul\":174:186   */\n  revert\n    /* \"#utility.yul\":136:188   */\ntag_30:\n    /* \"#utility.yul\":211:227   */\n  dup3\n  mload\n  sub(shl(0x40, 0x01), 0x01)\n    /* \"#utility.yul\":276:290   */\n  dup1\n  dup3\n  gt\n    /* \"#utility.yul\":273:307   */\n  iszero\n  tag_31\n  jumpi\n    /* \"#utility.yul\":303:304   */\n  0x00\n    /* \"#utility.yul\":300:301   */\n  dup1\n    /* \"#utility.yul\":293:305   */\n  revert\n    /* \"#utility.yul\":273:307   */\ntag_31:\n    /* \"#utility.yul\":341:347   */\n  dup2\n    /* \"#utility.yul\":330:339   */\n  dup6\n    /* \"#utility.yul\":326:348   */\n  add\n    /* \"#utility.yul\":316:348   */\n  swap2\n  pop\n    /* \"#utility.yul\":386:393   */\n  dup6\n    /* \"#utility.yul\":379:383   */\n  0x1f\n    /* \"#utility.yul\":375:377   */\n  dup4\n    /* \"#utility.yul\":371:384   */\n  add\n    /* \"#utility.yul\":367:394   */\n  slt\n    /* \"#utility.yul\":357:412   */\n  tag_32\n  jumpi\n    /* \"#utility.yul\":408:409   */\n  0x00\n    /* \"#utility.yul\":405:406   */\n  dup1\n    /* \"#utility.yul\":398:410   */\n  revert\n    /* \"#utility.yul\":357:412   */\ntag_32:\n    /* \"#utility.yul\":437:439   */\n  dup2\n    /* \"#utility.yul\":431:440   */\n  mload\n    /* \"#utility.yul\":459:461   */\n  dup2\n    /* \"#utility.yul\":455:457   */\n  dup2\n    /* \"#utility.yul\":452:462   */\n  gt\n    /* \"#utility.yul\":449:485   */\n  iszero\n  tag_34\n  jumpi\n    /* \"#utility.yul\":465:483   */\n  tag_34\n  tag_35\n  jump\t// in\ntag_34:\n    /* \"#utility.yul\":540:542   */\n  0x40\n    /* \"#utility.yul\":534:543   */\n  mload\n    /* \"#utility.yul\":508:510   */\n  0x1f\n    /* \"#utility.yul\":594:607   */\n  dup3\n  add\n  not(0x1f)\n    /* \"#utility.yul\":590:612   */\n  swap1\n  dup2\n  and\n    /* \"#utility.yul\":614:616   */\n  0x3f\n    /* \"#utility.yul\":586:617   */\n  add\n    /* \"#utility.yul\":582:622   */\n  and\n    /* \"#utility.yul\":570:623   */\n  dup2\n  add\n  swap1\n    /* \"#utility.yul\":638:656   */\n  dup4\n  dup3\n  gt\n    /* \"#utility.yul\":658:680   */\n  dup2\n  dup4\n  lt\n    /* \"#utility.yul\":635:681   */\n  or\n    /* \"#utility.yul\":632:704   */\n  iszero\n  tag_37\n  jumpi\n    /* \"#utility.yul\":684:702   */\n  tag_37\n  tag_35\n  jump\t// in\ntag_37:\n    /* \"#utility.yul\":724:734   */\n  dup2\n    /* \"#utility.yul\":720:722   */\n  0x40\n    /* \"#utility.yul\":713:735   */\n  mstore\n    /* \"#utility.yul\":759:761   */\n  dup3\n    /* \"#utility.yul\":751:757   */\n  dup2\n    /* \"#utility.yul\":744:762   */\n  mstore\n    /* \"#utility.yul\":799:806   */\n  dup9\n    /* \"#utility.yul\":794:796   */\n  dup7\n    /* \"#utility.yul\":789:791   */\n  dup5\n    /* \"#utility.yul\":785:787   */\n  dup8\n    /* \"#utility.yul\":781:792   */\n  add\n    /* \"#utility.yul\":777:797   */\n  add\n    /* \"#utility.yul\":774:807   */\n  gt\n    /* \"#utility.yul\":771:824   */\n  iszero\n  tag_38\n  jumpi\n    /* \"#utility.yul\":820:821   */\n  0x00\n    /* \"#utility.yul\":817:818   */\n  dup1\n    /* \"#utility.yul\":810:822   */\n  revert\n    /* \"#utility.yul\":771:824   */\ntag_38:\n    /* \"#utility.yul\":842:843   */\n  0x00\n    /* \"#utility.yul\":833:843   */\n  swap4\n  pop\n    /* \"#utility.yul\":852:981   */\ntag_39:\n    /* \"#utility.yul\":866:868   */\n  dup3\n    /* \"#utility.yul\":863:864   */\n  dup5\n    /* \"#utility.yul\":860:869   */\n  lt\n    /* \"#utility.yul\":852:981   */\n  iszero\n  tag_41\n  jumpi\n    /* \"#utility.yul\":954:964   */\n  dup5\n  dup5\n  add\n    /* \"#utility.yul\":950:969   */\n  dup7\n  add\n    /* \"#utility.yul\":944:970   */\n  mload\n    /* \"#utility.yul\":923:937   */\n  dup2\n  dup6\n  add\n    /* \"#utility.yul\":919:942   */\n  dup8\n  add\n    /* \"#utility.yul\":912:971   */\n  mstore\n    /* \"#utility.yul\":877:887   */\n  swap3\n  dup6\n  add\n  swap3\n    /* \"#utility.yul\":852:981   */\n  jump(tag_39)\ntag_41:\n    /* \"#utility.yul\":999:1001   */\n  dup3\n    /* \"#utility.yul\":996:997   */\n  dup5\n    /* \"#utility.yul\":993:1002   */\n  gt\n    /* \"#utility.yul\":990:1070   */\n  iszero\n  tag_42\n  jumpi\n    /* \"#utility.yul\":1058:1059   */\n  0x00\n    /* \"#utility.yul\":1053:1055   */\n  dup7\n    /* \"#utility.yul\":1048:1050   */\n  dup5\n    /* \"#utility.yul\":1040:1046   */\n  dup4\n    /* \"#utility.yul\":1036:1051   */\n  add\n    /* \"#utility.yul\":1032:1056   */\n  add\n    /* \"#utility.yul\":1025:1060   */\n  mstore\n    /* \"#utility.yul\":990:1070   */\ntag_42:\n    /* \"#utility.yul\":1089:1095   */\n  swap9\n    /* \"#utility.yul\":14:1101   */\n  swap8\n  pop\n  pop\n  pop\n  pop\n  pop\n  pop\n  pop\n  pop\n  jump\t// out\n    /* \"#utility.yul\":1106:1486   */\ntag_13:\n    /* \"#utility.yul\":1185:1186   */\n  0x01\n    /* \"#utility.yul\":1181:1193   */\n  dup2\n  dup2\n  shr\n  swap1\n    /* \"#utility.yul\":1228:1240   */\n  dup3\n  and\n  dup1\n    /* \"#utility.yul\":1249:1310   */\n  tag_44\n  jumpi\n    /* \"#utility.yul\":1303:1307   */\n  0x7f\n    /* \"#utility.yul\":1295:1301   */\n  dup3\n    /* \"#utility.yul\":1291:1308   */\n  and\n    /* \"#utility.yul\":1281:1308   */\n  swap2\n  pop\n    /* \"#utility.yul\":1249:1310   */\ntag_44:\n    /* \"#utility.yul\":1356:1358   */\n  0x20\n    /* \"#utility.yul\":1348:1354   */\n  dup3\n    /* \"#utility.yul\":1345:1359   */\n  lt\n    /* \"#utility.yul\":1325:1343   */\n  dup2\n    /* \"#utility.yul\":1322:1360   */\n  eq\n    /* \"#utility.yul\":1319:1480   */\n  iszero\n  tag_45\n  jumpi\n    /* \"#utility.yul\":1402:1412   */\n  0x4e487b71\n    /* \"#utility.yul\":1397:1400   */\n  0xe0\n    /* \"#utility.yul\":1393:1413   */\n  shl\n    /* \"#utility.yul\":1390:1391   */\n  0x00\n    /* \"#utility.yul\":1383:1414   */\n  mstore\n    /* \"#utility.yul\":1437:1441   */\n  0x22\n    /* \"#utility.yul\":1434:1435   */\n  0x04\n    /* \"#utility.yul\":1427:1442   */\n  mstore\n    /* \"#utility.yul\":1465:1469   */\n  0x24\n    /* \"#utility.yul\":1462:1463   */\n  0x00\n    /* \"#utility.yul\":1455:1470   */\n  revert\n    /* \"#utility.yul\":1319:1480   */\ntag_45:\n  pop\n    /* \"#utility.yul\":1106:1486   */\n  swap2\n  swap1\n  pop\n  jump\t// out\n    /* \"#utility.yul\":1491:1618   */\ntag_35:\n    /* \"#utility.yul\":1552:1562   */\n  0x4e487b71\n    /* \"#utility.yul\":1547:1550   */\n  0xe0\n    /* \"#utility.yul\":1543:1563   */\n  shl\n    /* \"#utility.yul\":1540:1541   */\n  0x00\n    /* \"#utility.yul\":1533:1564   */\n  mstore\n    /* \"#utility.yul\":1583:1587   */\n  0x41\n    /* \"#utility.yul\":1580:1581   */\n  0x04\n    /* \"#utility.yul\":1573:1588   */\n  mstore\n    /* \"#utility.yul\":1607:1611   */\n  0x24\n    /* \"#utility.yul\":1604:1605   */\n  0x00\n    /* \"#utility.yul\":1597:1612   */\n  revert\n    /* \"#utility.yul\":1491:1618   */\ntag_28:\n    /* \"Dropsite.sol\":146:6298  contract Dropsite is ERC1155_Dropsite  { ... */\n  dataSize(sub_0)\n  dup1\n  dataOffset(sub_0)\n  0x00\n  codecopy\n  0x00\n  return\nstop\n\nsub_0: assembly {\n        /* \"Dropsite.sol\":146:6298  contract Dropsite is ERC1155_Dropsite  { ... */\n      mstore(0x40, 0x80)\n      jumpi(tag_1, lt(calldatasize, 0x04))\n      shr(0xe0, calldataload(0x00))\n      dup1\n      0x3d65df70\n      gt\n      tag_14\n      jumpi\n      dup1\n      0x3d65df70\n      eq\n      tag_8\n      jumpi\n      dup1\n      0x60daa851\n      eq\n      tag_9\n      jumpi\n      dup1\n      0xaa90c726\n      eq\n      tag_10\n      jumpi\n      dup1\n      0xb4a99a4e\n      eq\n      tag_11\n      jumpi\n      dup1\n      0xeddd0d9c\n      eq\n      tag_12\n      jumpi\n      dup1\n      0xfd6c3b1b\n      eq\n      tag_13\n      jumpi\n      0x00\n      dup1\n      revert\n    tag_14:\n      dup1\n      0x0390c11c\n      eq\n      tag_2\n      jumpi\n      dup1\n      0x0a67d2c7\n      eq\n      tag_3\n      jumpi\n      dup1\n      0x1309a563\n      eq\n      tag_4\n      jumpi\n      dup1\n      0x15460259\n      eq\n      tag_5\n      jumpi\n      dup1\n      0x32b61b4c\n      eq\n      tag_6\n      jumpi\n      dup1\n      0x3b668059\n      eq\n      tag_7\n      jumpi\n    tag_1:\n      0x00\n      dup1\n      revert\n        /* \"Dropsite.sol\":2095:2199  function checkTotalMinted() public view OnlyOwner returns(uint){... */\n    tag_2:\n      callvalue\n      dup1\n      iszero\n      tag_15\n      jumpi\n      0x00\n      dup1\n      revert\n    tag_15:\n      pop\n      tag_16\n      tag_17\n      jump\t// in\n    tag_16:\n      mload(0x40)\n        /* \"#utility.yul\":8569:8594   */\n      swap1\n      dup2\n      mstore\n        /* \"#utility.yul\":8557:8559   */\n      0x20\n        /* \"#utility.yul\":8542:8560   */\n      add\n        /* \"Dropsite.sol\":2095:2199  function checkTotalMinted() public view OnlyOwner returns(uint){... */\n    tag_18:\n      mload(0x40)\n      dup1\n      swap2\n      sub\n      swap1\n      return\n        /* \"Dropsite.sol\":2578:2792  function withDraw(address payable to) public payable OnlyOwner {... */\n    tag_3:\n      tag_20\n      tag_21\n      calldatasize\n      0x04\n      tag_35\n      jump\t// in\n    tag_21:\n      tag_23\n      jump\t// in\n    tag_20:\n      stop\n        /* \"Dropsite.sol\":1432:1459  bool public IsPaused = true */\n    tag_4:\n      callvalue\n      dup1\n      iszero\n      tag_24\n      jumpi\n      0x00\n      dup1\n      revert\n    tag_24:\n      pop\n      sload(0x0c)\n      tag_25\n      swap1\n      0xff\n      and\n      dup2\n      jump\n    tag_25:\n      mload(0x40)\n        /* \"#utility.yul\":4448:4462   */\n      swap1\n      iszero\n        /* \"#utility.yul\":4441:4463   */\n      iszero\n        /* \"#utility.yul\":4423:4464   */\n      dup2\n      mstore\n        /* \"#utility.yul\":4411:4413   */\n      0x20\n        /* \"#utility.yul\":4396:4414   */\n      add\n        /* \"Dropsite.sol\":1432:1459  bool public IsPaused = true */\n      tag_18\n        /* \"#utility.yul\":4283:4470   */\n      jump\n        /* \"Dropsite.sol\":2347:2483  function openDropsite() public OnlyOwner {... */\n    tag_5:\n      callvalue\n      dup1\n      iszero\n      tag_29\n      jumpi\n      0x00\n      dup1\n      revert\n    tag_29:\n      pop\n      tag_20\n      tag_31\n      jump\t// in\n        /* \"Dropsite.sol\":5045:5491  function FiatRandomMint(address user_addr) OnlyOwner contractIsNotPaused public returns (uint,string memory) {... */\n    tag_6:\n      callvalue\n      dup1\n      iszero\n      tag_32\n      jumpi\n      0x00\n      dup1\n      revert\n    tag_32:\n      pop\n      tag_33\n      tag_34\n      calldatasize\n      0x04\n      tag_35\n      jump\t// in\n    tag_34:\n      tag_36\n      jump\t// in\n    tag_33:\n      mload(0x40)\n      tag_18\n      swap3\n      swap2\n      swap1\n      tag_38\n      jump\t// in\n        /* \"Dropsite.sol\":2845:2953  function ContractBalance() public view OnlyOwner returns (uint){... */\n    tag_7:\n      callvalue\n      dup1\n      iszero\n      tag_39\n      jumpi\n      0x00\n      dup1\n      revert\n    tag_39:\n      pop\n      tag_16\n      tag_41\n      jump\t// in\n        /* \"Dropsite.sol\":5708:6296  function CryptoRandomMint(address user_addr)  contractIsNotPaused public payable returns (uint,string memory) {... */\n    tag_8:\n      tag_33\n      tag_44\n      calldatasize\n      0x04\n      tag_35\n      jump\t// in\n    tag_44:\n      tag_45\n      jump\t// in\n        /* \"Dropsite.sol\":1855:1982  function checkMintedCategoryWise() public view OnlyOwner returns(uint,uint,uint){... */\n    tag_9:\n      callvalue\n      dup1\n      iszero\n      tag_47\n      jumpi\n      0x00\n      dup1\n      revert\n    tag_47:\n      pop\n      tag_48\n      tag_49\n      jump\t// in\n    tag_48:\n      0x40\n      dup1\n      mload\n        /* \"#utility.yul\":9356:9381   */\n      swap4\n      dup5\n      mstore\n        /* \"#utility.yul\":9412:9414   */\n      0x20\n        /* \"#utility.yul\":9397:9415   */\n      dup5\n      add\n        /* \"#utility.yul\":9390:9424   */\n      swap3\n      swap1\n      swap3\n      mstore\n        /* \"#utility.yul\":9440:9458   */\n      swap1\n      dup3\n      add\n        /* \"#utility.yul\":9433:9467   */\n      mstore\n        /* \"#utility.yul\":9344:9346   */\n      0x60\n        /* \"#utility.yul\":9329:9347   */\n      add\n        /* \"Dropsite.sol\":1855:1982  function checkMintedCategoryWise() public view OnlyOwner returns(uint,uint,uint){... */\n      tag_18\n        /* \"#utility.yul\":9154:9473   */\n      jump\n        /* \"Dropsite.sol\":2205:2340  function stopDropsite() public OnlyOwner{... */\n    tag_10:\n      callvalue\n      dup1\n      iszero\n      tag_52\n      jumpi\n      0x00\n      dup1\n      revert\n    tag_52:\n      pop\n      tag_20\n      tag_54\n      jump\t// in\n        /* \"Dropsite.sol\":1465:1494  address payable public  Owner */\n    tag_11:\n      callvalue\n      dup1\n      iszero\n      tag_55\n      jumpi\n      0x00\n      dup1\n      revert\n    tag_55:\n      pop\n      sload(0x0c)\n      tag_56\n      swap1\n      0x0100\n      swap1\n      div\n      sub(shl(0xa0, 0x01), 0x01)\n      and\n      dup2\n      jump\n    tag_56:\n      mload(0x40)\n      sub(shl(0xa0, 0x01), 0x01)\n        /* \"#utility.yul\":3034:3066   */\n      swap1\n      swap2\n      and\n        /* \"#utility.yul\":3016:3067   */\n      dup2\n      mstore\n        /* \"#utility.yul\":3004:3006   */\n      0x20\n        /* \"#utility.yul\":2989:3007   */\n      add\n        /* \"Dropsite.sol\":1465:1494  address payable public  Owner */\n      tag_18\n        /* \"#utility.yul\":2854:3073   */\n      jump\n        /* \"Dropsite.sol\":1988:2056  function setMintFee(uint _mintFee) public OnlyOwner {... */\n    tag_12:\n      callvalue\n      dup1\n      iszero\n      tag_60\n      jumpi\n      0x00\n      dup1\n      revert\n    tag_60:\n      pop\n      tag_20\n      tag_62\n      calldatasize\n      0x04\n      tag_63\n      jump\t// in\n    tag_62:\n      tag_64\n      jump\t// in\n        /* \"Dropsite.sol\":945:1083  function returnOwner(address addr) public view returns (uint[] memory){... */\n    tag_13:\n      callvalue\n      dup1\n      iszero\n      tag_65\n      jumpi\n      0x00\n      dup1\n      revert\n    tag_65:\n      pop\n      tag_66\n      tag_67\n      calldatasize\n      0x04\n      tag_35\n      jump\t// in\n    tag_67:\n      tag_68\n      jump\t// in\n    tag_66:\n      mload(0x40)\n      tag_18\n      swap2\n      swap1\n      tag_70\n      jump\t// in\n        /* \"Dropsite.sol\":2095:2199  function checkTotalMinted() public view OnlyOwner returns(uint){... */\n    tag_17:\n        /* \"Dropsite.sol\":1204:1209  Owner */\n      sload(0x0c)\n        /* \"Dropsite.sol\":2153:2157  uint */\n      0x00\n      swap1\n        /* \"Dropsite.sol\":1204:1209  Owner */\n      0x0100\n      swap1\n      div\n      sub(shl(0xa0, 0x01), 0x01)\n      and\n        /* \"Context.sol\":719:729  msg.sender */\n      caller\n      sub(shl(0xa0, 0x01), 0x01)\n        /* \"Dropsite.sol\":1188:1209  _msgSender() == Owner */\n      and\n      eq\n        /* \"Dropsite.sol\":1180:1242  require(_msgSender() == Owner, \"Only NFT-ES Owner can Access\") */\n      tag_74\n      jumpi\n      mload(0x40)\n      shl(0xe5, 0x461bcd)\n      dup2\n      mstore\n      0x04\n      add\n      tag_75\n      swap1\n      tag_76\n      jump\t// in\n    tag_75:\n      mload(0x40)\n      dup1\n      swap2\n      sub\n      swap1\n      revert\n    tag_74:\n      pop\n        /* \"Dropsite.sol\":2176:2191  TotalNFTsMinted */\n      sload(0x04)\n        /* \"Dropsite.sol\":1252:1253  _ */\n    tag_77:\n        /* \"Dropsite.sol\":2095:2199  function checkTotalMinted() public view OnlyOwner returns(uint){... */\n      swap1\n      jump\t// out\n        /* \"Dropsite.sol\":2578:2792  function withDraw(address payable to) public payable OnlyOwner {... */\n    tag_23:\n        /* \"Dropsite.sol\":1204:1209  Owner */\n      sload(0x0c)\n      0x0100\n      swap1\n      div\n      sub(shl(0xa0, 0x01), 0x01)\n      and\n        /* \"Context.sol\":719:729  msg.sender */\n      caller\n      sub(shl(0xa0, 0x01), 0x01)\n        /* \"Dropsite.sol\":1188:1209  _msgSender() == Owner */\n      and\n      eq\n        /* \"Dropsite.sol\":1180:1242  require(_msgSender() == Owner, \"Only NFT-ES Owner can Access\") */\n      tag_80\n      jumpi\n      mload(0x40)\n      shl(0xe5, 0x461bcd)\n      dup2\n      mstore\n      0x04\n      add\n      tag_75\n      swap1\n      tag_76\n      jump\t// in\n    tag_80:\n        /* \"Dropsite.sol\":2666:2687  address(this).balance */\n      selfbalance\n        /* \"Dropsite.sol\":2705:2720  Balance > 0 wei */\n      dup1\n        /* \"Dropsite.sol\":2697:2754  require(Balance > 0 wei, \"Error! No Balance to withdraw\") */\n      tag_83\n      jumpi\n      mload(0x40)\n      shl(0xe5, 0x461bcd)\n      dup2\n      mstore\n        /* \"#utility.yul\":7865:7867   */\n      0x20\n        /* \"Dropsite.sol\":2697:2754  require(Balance > 0 wei, \"Error! No Balance to withdraw\") */\n      0x04\n      dup3\n      add\n        /* \"#utility.yul\":7847:7868   */\n      mstore\n        /* \"#utility.yul\":7904:7906   */\n      0x1d\n        /* \"#utility.yul\":7884:7902   */\n      0x24\n      dup3\n      add\n        /* \"#utility.yul\":7877:7907   */\n      mstore\n        /* \"#utility.yul\":7943:7974   */\n      0x4572726f7221204e6f2042616c616e636520746f207769746864726177000000\n        /* \"#utility.yul\":7923:7941   */\n      0x44\n      dup3\n      add\n        /* \"#utility.yul\":7916:7975   */\n      mstore\n        /* \"#utility.yul\":7992:8010   */\n      0x64\n      add\n        /* \"Dropsite.sol\":2697:2754  require(Balance > 0 wei, \"Error! No Balance to withdraw\") */\n      tag_75\n        /* \"#utility.yul\":7663:8016   */\n      jump\n        /* \"Dropsite.sol\":2697:2754  require(Balance > 0 wei, \"Error! No Balance to withdraw\") */\n    tag_83:\n        /* \"Dropsite.sol\":2765:2785  to.transfer(Balance) */\n      mload(0x40)\n      sub(shl(0xa0, 0x01), 0x01)\n        /* \"Dropsite.sol\":2765:2776  to.transfer */\n      dup4\n      and\n      swap1\n        /* \"Dropsite.sol\":2765:2785  to.transfer(Balance) */\n      dup3\n      iszero\n      0x08fc\n      mul\n      swap1\n        /* \"Dropsite.sol\":2777:2784  Balance */\n      dup4\n      swap1\n        /* \"Dropsite.sol\":2765:2785  to.transfer(Balance) */\n      0x00\n      dup2\n      dup2\n      dup2\n        /* \"Dropsite.sol\":2777:2784  Balance */\n      dup6\n        /* \"Dropsite.sol\":2765:2776  to.transfer */\n      dup9\n        /* \"Dropsite.sol\":2765:2785  to.transfer(Balance) */\n      dup9\n      call\n      swap4\n      pop\n      pop\n      pop\n      pop\n      iszero\n      dup1\n      iszero\n      tag_87\n      jumpi\n      returndatasize\n      0x00\n      dup1\n      returndatacopy\n      revert(0x00, returndatasize)\n    tag_87:\n      pop\n        /* \"Dropsite.sol\":2641:2792  {... */\n      pop\n        /* \"Dropsite.sol\":2578:2792  function withDraw(address payable to) public payable OnlyOwner {... */\n      pop\n      jump\t// out\n        /* \"Dropsite.sol\":2347:2483  function openDropsite() public OnlyOwner {... */\n    tag_31:\n        /* \"Dropsite.sol\":1204:1209  Owner */\n      sload(0x0c)\n      0x0100\n      swap1\n      div\n      sub(shl(0xa0, 0x01), 0x01)\n      and\n        /* \"Context.sol\":719:729  msg.sender */\n      caller\n      sub(shl(0xa0, 0x01), 0x01)\n        /* \"Dropsite.sol\":1188:1209  _msgSender() == Owner */\n      and\n      eq\n        /* \"Dropsite.sol\":1180:1242  require(_msgSender() == Owner, \"Only NFT-ES Owner can Access\") */\n      tag_90\n      jumpi\n      mload(0x40)\n      shl(0xe5, 0x461bcd)\n      dup2\n      mstore\n      0x04\n      add\n      tag_75\n      swap1\n      tag_76\n      jump\t// in\n    tag_90:\n        /* \"Dropsite.sol\":2406:2414  IsPaused */\n      and(0xff, sload(0x0c))\n        /* \"Dropsite.sol\":2406:2420  IsPaused==true */\n      iszero\n      iszero\n        /* \"Dropsite.sol\":2406:2414  IsPaused */\n      0x01\n        /* \"Dropsite.sol\":2406:2420  IsPaused==true */\n      eq\n        /* \"Dropsite.sol\":2398:2452  require(IsPaused==true, \"Dropsite is already Running\") */\n      tag_93\n      jumpi\n      mload(0x40)\n      shl(0xe5, 0x461bcd)\n      dup2\n      mstore\n        /* \"#utility.yul\":6086:6088   */\n      0x20\n        /* \"Dropsite.sol\":2398:2452  require(IsPaused==true, \"Dropsite is already Running\") */\n      0x04\n      dup3\n      add\n        /* \"#utility.yul\":6068:6089   */\n      mstore\n        /* \"#utility.yul\":6125:6127   */\n      0x1b\n        /* \"#utility.yul\":6105:6123   */\n      0x24\n      dup3\n      add\n        /* \"#utility.yul\":6098:6128   */\n      mstore\n        /* \"#utility.yul\":6164:6193   */\n      0x44726f707369746520697320616c72656164792052756e6e696e670000000000\n        /* \"#utility.yul\":6144:6162   */\n      0x44\n      dup3\n      add\n        /* \"#utility.yul\":6137:6194   */\n      mstore\n        /* \"#utility.yul\":6211:6229   */\n      0x64\n      add\n        /* \"Dropsite.sol\":2398:2452  require(IsPaused==true, \"Dropsite is already Running\") */\n      tag_75\n        /* \"#utility.yul\":5884:6235   */\n      jump\n        /* \"Dropsite.sol\":2398:2452  require(IsPaused==true, \"Dropsite is already Running\") */\n    tag_93:\n        /* \"Dropsite.sol\":2462:2470  IsPaused */\n      0x0c\n        /* \"Dropsite.sol\":2462:2476  IsPaused=false */\n      dup1\n      sload\n      not(0xff)\n      and\n      swap1\n      sstore\n        /* \"Dropsite.sol\":2347:2483  function openDropsite() public OnlyOwner {... */\n      jump\t// out\n        /* \"Dropsite.sol\":5045:5491  function FiatRandomMint(address user_addr) OnlyOwner contractIsNotPaused public returns (uint,string memory) {... */\n    tag_36:\n        /* \"Dropsite.sol\":1204:1209  Owner */\n      sload(0x0c)\n        /* \"Dropsite.sol\":5134:5138  uint */\n      0x00\n      swap1\n        /* \"Dropsite.sol\":5139:5152  string memory */\n      0x60\n      swap1\n        /* \"Dropsite.sol\":1204:1209  Owner */\n      0x0100\n      swap1\n      div\n      sub(shl(0xa0, 0x01), 0x01)\n      and\n        /* \"Context.sol\":719:729  msg.sender */\n      caller\n      sub(shl(0xa0, 0x01), 0x01)\n        /* \"Dropsite.sol\":1188:1209  _msgSender() == Owner */\n      and\n      eq\n        /* \"Dropsite.sol\":1180:1242  require(_msgSender() == Owner, \"Only NFT-ES Owner can Access\") */\n      tag_98\n      jumpi\n      mload(0x40)\n      shl(0xe5, 0x461bcd)\n      dup2\n      mstore\n      0x04\n      add\n      tag_75\n      swap1\n      tag_76\n      jump\t// in\n    tag_98:\n        /* \"Dropsite.sol\":1357:1365  IsPaused */\n      and(0xff, sload(0x0c))\n        /* \"Dropsite.sol\":1357:1374  IsPaused == false */\n      iszero\n        /* \"Dropsite.sol\":1348:1407  require (IsPaused == false, \"Dropsite is not Opened Yet.\" ) */\n      tag_101\n      jumpi\n      mload(0x40)\n      shl(0xe5, 0x461bcd)\n      dup2\n      mstore\n      0x04\n      add\n      tag_75\n      swap1\n      tag_103\n      jump\t// in\n    tag_101:\n        /* \"Dropsite.sol\":5185:5189  1000 */\n      0x03e8\n        /* \"Dropsite.sol\":5169:5184  TotalNFTsMinted */\n      sload(0x04)\n        /* \"Dropsite.sol\":5169:5189  TotalNFTsMinted<1000 */\n      lt\n        /* \"Dropsite.sol\":5161:5219  require(TotalNFTsMinted<1000, \"Max Minting Limit reached\") */\n      tag_105\n      jumpi\n      mload(0x40)\n      shl(0xe5, 0x461bcd)\n      dup2\n      mstore\n        /* \"#utility.yul\":7511:7513   */\n      0x20\n        /* \"Dropsite.sol\":5161:5219  require(TotalNFTsMinted<1000, \"Max Minting Limit reached\") */\n      0x04\n      dup3\n      add\n        /* \"#utility.yul\":7493:7514   */\n      mstore\n        /* \"#utility.yul\":7550:7552   */\n      0x19\n        /* \"#utility.yul\":7530:7548   */\n      0x24\n      dup3\n      add\n        /* \"#utility.yul\":7523:7553   */\n      mstore\n      shl(0x3a, 0x13585e08135a5b9d1a5b99c8131a5b5a5d081c995858da1959)\n        /* \"#utility.yul\":7569:7587   */\n      0x44\n      dup3\n      add\n        /* \"#utility.yul\":7562:7617   */\n      mstore\n        /* \"#utility.yul\":7634:7652   */\n      0x64\n      add\n        /* \"Dropsite.sol\":5161:5219  require(TotalNFTsMinted<1000, \"Max Minting Limit reached\") */\n      tag_75\n        /* \"#utility.yul\":7309:7658   */\n      jump\n        /* \"Dropsite.sol\":5161:5219  require(TotalNFTsMinted<1000, \"Max Minting Limit reached\") */\n    tag_105:\n        /* \"Dropsite.sol\":5282:5292  uint nftId */\n      0x00\n        /* \"Dropsite.sol\":5295:5313  updateConditions() */\n      tag_108\n        /* \"Dropsite.sol\":5295:5311  updateConditions */\n      tag_109\n        /* \"Dropsite.sol\":5295:5313  updateConditions() */\n      jump\t// in\n    tag_108:\n        /* \"Dropsite.sol\":5282:5313  uint nftId = updateConditions() */\n      swap1\n      pop\n        /* \"Dropsite.sol\":5319:5361  _mint(user_addr, nftId, numOfCopies, data) */\n      tag_110\n        /* \"Dropsite.sol\":5325:5334  user_addr */\n      dup5\n        /* \"Dropsite.sol\":5336:5341  nftId */\n      dup3\n        /* \"Dropsite.sol\":5343:5354  numOfCopies */\n      sload(0x05)\n        /* \"Dropsite.sol\":5356:5360  data */\n      0x02\n        /* \"Dropsite.sol\":5319:5361  _mint(user_addr, nftId, numOfCopies, data) */\n      dup1\n      sload\n      tag_111\n      swap1\n      tag_112\n      jump\t// in\n    tag_111:\n      dup1\n      0x1f\n      add\n      0x20\n      dup1\n      swap2\n      div\n      mul\n      0x20\n      add\n      mload(0x40)\n      swap1\n      dup2\n      add\n      0x40\n      mstore\n      dup1\n      swap3\n      swap2\n      swap1\n      dup2\n      dup2\n      mstore\n      0x20\n      add\n      dup3\n      dup1\n      sload\n      tag_113\n      swap1\n      tag_112\n      jump\t// in\n    tag_113:\n      dup1\n      iszero\n      tag_114\n      jumpi\n      dup1\n      0x1f\n      lt\n      tag_115\n      jumpi\n      0x0100\n      dup1\n      dup4\n      sload\n      div\n      mul\n      dup4\n      mstore\n      swap2\n      0x20\n      add\n      swap2\n      jump(tag_114)\n    tag_115:\n      dup3\n      add\n      swap2\n      swap1\n      0x00\n      mstore\n      keccak256(0x00, 0x20)\n      swap1\n    tag_116:\n      dup2\n      sload\n      dup2\n      mstore\n      swap1\n      0x01\n      add\n      swap1\n      0x20\n      add\n      dup1\n      dup4\n      gt\n      tag_116\n      jumpi\n      dup3\n      swap1\n      sub\n      0x1f\n      and\n      dup3\n      add\n      swap2\n    tag_114:\n      pop\n      pop\n      pop\n      pop\n      pop\n        /* \"Dropsite.sol\":5319:5324  _mint */\n      tag_117\n        /* \"Dropsite.sol\":5319:5361  _mint(user_addr, nftId, numOfCopies, data) */\n      jump\t// in\n    tag_110:\n        /* \"Dropsite.sol\":5367:5382  TotalNFTsMinted */\n      0x04\n        /* \"Dropsite.sol\":5367:5384  TotalNFTsMinted++ */\n      dup1\n      sload\n      swap1\n        /* \"Dropsite.sol\":5367:5382  TotalNFTsMinted */\n      0x00\n        /* \"Dropsite.sol\":5367:5384  TotalNFTsMinted++ */\n      tag_118\n      dup4\n      tag_119\n      jump\t// in\n    tag_118:\n      swap1\n      swap2\n      sstore\n      pop\n      pop\n      sub(shl(0xa0, 0x01), 0x01)\n        /* \"Dropsite.sol\":5390:5419  dropsite_NFT_Owner[user_addr] */\n      dup5\n      and\n      0x00\n      swap1\n      dup2\n      mstore\n        /* \"Dropsite.sol\":5390:5408  dropsite_NFT_Owner */\n      0x0a\n        /* \"Dropsite.sol\":5390:5419  dropsite_NFT_Owner[user_addr] */\n      0x20\n      swap1\n      dup2\n      mstore\n      0x40\n      dup3\n      keccak256\n        /* \"Dropsite.sol\":5390:5451  dropsite_NFT_Owner[user_addr].owned_Dropsite_NFTs.push(nftId) */\n      dup1\n      sload\n      0x01\n      dup2\n      add\n      dup3\n      sstore\n      swap1\n      dup4\n      mstore\n      swap2\n      keccak256\n      add\n      dup2\n      swap1\n      sstore\n        /* \"Dropsite.sol\":5478:5482  data */\n      0x02\n        /* \"Dropsite.sol\":5457:5484  return (nftId,string(data)) */\n      dup1\n      sload\n        /* \"Dropsite.sol\":5445:5450  nftId */\n      dup3\n      swap2\n        /* \"Dropsite.sol\":5478:5482  data */\n      swap1\n      dup2\n      swap1\n        /* \"Dropsite.sol\":5457:5484  return (nftId,string(data)) */\n      tag_121\n      swap1\n      tag_112\n      jump\t// in\n    tag_121:\n      dup1\n      0x1f\n      add\n      0x20\n      dup1\n      swap2\n      div\n      mul\n      0x20\n      add\n      mload(0x40)\n      swap1\n      dup2\n      add\n      0x40\n      mstore\n      dup1\n      swap3\n      swap2\n      swap1\n      dup2\n      dup2\n      mstore\n      0x20\n      add\n      dup3\n      dup1\n      sload\n      tag_122\n      swap1\n      tag_112\n      jump\t// in\n    tag_122:\n      dup1\n      iszero\n      tag_123\n      jumpi\n      dup1\n      0x1f\n      lt\n      tag_124\n      jumpi\n      0x0100\n      dup1\n      dup4\n      sload\n      div\n      mul\n      dup4\n      mstore\n      swap2\n      0x20\n      add\n      swap2\n      jump(tag_123)\n    tag_124:\n      dup3\n      add\n      swap2\n      swap1\n      0x00\n      mstore\n      keccak256(0x00, 0x20)\n      swap1\n    tag_125:\n      dup2\n      sload\n      dup2\n      mstore\n      swap1\n      0x01\n      add\n      swap1\n      0x20\n      add\n      dup1\n      dup4\n      gt\n      tag_125\n      jumpi\n      dup3\n      swap1\n      sub\n      0x1f\n      and\n      dup3\n      add\n      swap2\n    tag_123:\n      pop\n      pop\n      pop\n      pop\n      pop\n      swap1\n      pop\n      swap3\n      pop\n      swap3\n      pop\n      pop\n        /* \"Dropsite.sol\":5045:5491  function FiatRandomMint(address user_addr) OnlyOwner contractIsNotPaused public returns (uint,string memory) {... */\n      swap2\n      pop\n      swap2\n      jump\t// out\n        /* \"Dropsite.sol\":2845:2953  function ContractBalance() public view OnlyOwner returns (uint){... */\n    tag_41:\n        /* \"Dropsite.sol\":1204:1209  Owner */\n      sload(0x0c)\n        /* \"Dropsite.sol\":2903:2907  uint */\n      0x00\n      swap1\n        /* \"Dropsite.sol\":1204:1209  Owner */\n      0x0100\n      swap1\n      div\n      sub(shl(0xa0, 0x01), 0x01)\n      and\n        /* \"Context.sol\":719:729  msg.sender */\n      caller\n      sub(shl(0xa0, 0x01), 0x01)\n        /* \"Dropsite.sol\":1188:1209  _msgSender() == Owner */\n      and\n      eq\n        /* \"Dropsite.sol\":1180:1242  require(_msgSender() == Owner, \"Only NFT-ES Owner can Access\") */\n      tag_128\n      jumpi\n      mload(0x40)\n      shl(0xe5, 0x461bcd)\n      dup2\n      mstore\n      0x04\n      add\n      tag_75\n      swap1\n      tag_76\n      jump\t// in\n    tag_128:\n      pop\n        /* \"Dropsite.sol\":2925:2946  address(this).balance */\n      selfbalance\n        /* \"Dropsite.sol\":2845:2953  function ContractBalance() public view OnlyOwner returns (uint){... */\n      swap1\n      jump\t// out\n        /* \"Dropsite.sol\":5708:6296  function CryptoRandomMint(address user_addr)  contractIsNotPaused public payable returns (uint,string memory) {... */\n    tag_45:\n        /* \"Dropsite.sol\":1357:1365  IsPaused */\n      sload(0x0c)\n        /* \"Dropsite.sol\":5798:5802  uint */\n      0x00\n      swap1\n        /* \"Dropsite.sol\":5803:5816  string memory */\n      0x60\n      swap1\n        /* \"Dropsite.sol\":1357:1365  IsPaused */\n      0xff\n      and\n        /* \"Dropsite.sol\":1357:1374  IsPaused == false */\n      iszero\n        /* \"Dropsite.sol\":1348:1407  require (IsPaused == false, \"Dropsite is not Opened Yet.\" ) */\n      tag_132\n      jumpi\n      mload(0x40)\n      shl(0xe5, 0x461bcd)\n      dup2\n      mstore\n      0x04\n      add\n      tag_75\n      swap1\n      tag_103\n      jump\t// in\n    tag_132:\n        /* \"Dropsite.sol\":5849:5853  1000 */\n      0x03e8\n        /* \"Dropsite.sol\":5833:5848  TotalNFTsMinted */\n      sload(0x04)\n        /* \"Dropsite.sol\":5833:5853  TotalNFTsMinted<1000 */\n      lt\n        /* \"Dropsite.sol\":5825:5883  require(TotalNFTsMinted<1000, \"Max Minting Limit reached\") */\n      tag_135\n      jumpi\n      mload(0x40)\n      shl(0xe5, 0x461bcd)\n      dup2\n      mstore\n        /* \"#utility.yul\":7511:7513   */\n      0x20\n        /* \"Dropsite.sol\":5825:5883  require(TotalNFTsMinted<1000, \"Max Minting Limit reached\") */\n      0x04\n      dup3\n      add\n        /* \"#utility.yul\":7493:7514   */\n      mstore\n        /* \"#utility.yul\":7550:7552   */\n      0x19\n        /* \"#utility.yul\":7530:7548   */\n      0x24\n      dup3\n      add\n        /* \"#utility.yul\":7523:7553   */\n      mstore\n      shl(0x3a, 0x13585e08135a5b9d1a5b99c8131a5b5a5d081c995858da1959)\n        /* \"#utility.yul\":7569:7587   */\n      0x44\n      dup3\n      add\n        /* \"#utility.yul\":7562:7617   */\n      mstore\n        /* \"#utility.yul\":7634:7652   */\n      0x64\n      add\n        /* \"Dropsite.sol\":5825:5883  require(TotalNFTsMinted<1000, \"Max Minting Limit reached\") */\n      tag_75\n        /* \"#utility.yul\":7309:7658   */\n      jump\n        /* \"Dropsite.sol\":5825:5883  require(TotalNFTsMinted<1000, \"Max Minting Limit reached\") */\n    tag_135:\n        /* \"Dropsite.sol\":5898:5907  msg.value */\n      callvalue\n        /* \"Dropsite.sol\":5912:5932  25000000000000000000 */\n      0x015af1d78b58c40000\n        /* \"Dropsite.sol\":5898:5933  msg.value == (25000000000000000000) */\n      eq\n        /* \"Dropsite.sol\":5890:5963  require(msg.value == (25000000000000000000), \"Balance must be 25 Matics\") */\n      tag_137\n      jumpi\n      mload(0x40)\n      shl(0xe5, 0x461bcd)\n      dup2\n      mstore\n        /* \"#utility.yul\":5732:5734   */\n      0x20\n        /* \"Dropsite.sol\":5890:5963  require(msg.value == (25000000000000000000), \"Balance must be 25 Matics\") */\n      0x04\n      dup3\n      add\n        /* \"#utility.yul\":5714:5735   */\n      mstore\n        /* \"#utility.yul\":5771:5773   */\n      0x19\n        /* \"#utility.yul\":5751:5769   */\n      0x24\n      dup3\n      add\n        /* \"#utility.yul\":5744:5774   */\n      mstore\n        /* \"#utility.yul\":5810:5837   */\n      0x42616c616e6365206d757374206265203235204d617469637300000000000000\n        /* \"#utility.yul\":5790:5808   */\n      0x44\n      dup3\n      add\n        /* \"#utility.yul\":5783:5838   */\n      mstore\n        /* \"#utility.yul\":5855:5873   */\n      0x64\n      add\n        /* \"Dropsite.sol\":5890:5963  require(msg.value == (25000000000000000000), \"Balance must be 25 Matics\") */\n      tag_75\n        /* \"#utility.yul\":5530:5879   */\n      jump\n        /* \"Dropsite.sol\":5890:5963  require(msg.value == (25000000000000000000), \"Balance must be 25 Matics\") */\n    tag_137:\n        /* \"Dropsite.sol\":6043:6053  uint nftId */\n      0x00\n        /* \"Dropsite.sol\":6056:6074  updateConditions() */\n      tag_140\n        /* \"Dropsite.sol\":6056:6072  updateConditions */\n      tag_109\n        /* \"Dropsite.sol\":6056:6074  updateConditions() */\n      jump\t// in\n    tag_140:\n        /* \"Dropsite.sol\":6043:6074  uint nftId = updateConditions() */\n      swap1\n      pop\n        /* \"Dropsite.sol\":6080:6122  _mint(user_addr, nftId, numOfCopies, data) */\n      tag_141\n        /* \"Dropsite.sol\":6086:6095  user_addr */\n      dup5\n        /* \"Dropsite.sol\":6097:6102  nftId */\n      dup3\n        /* \"Dropsite.sol\":6104:6115  numOfCopies */\n      sload(0x05)\n        /* \"Dropsite.sol\":6117:6121  data */\n      0x02\n        /* \"Dropsite.sol\":6080:6122  _mint(user_addr, nftId, numOfCopies, data) */\n      dup1\n      sload\n      tag_111\n      swap1\n      tag_112\n      jump\t// in\n    tag_141:\n        /* \"Dropsite.sol\":6128:6166  depositAmount(_msgSender(), msg.value) */\n      tag_110\n        /* \"Context.sol\":719:729  msg.sender */\n      caller\n        /* \"Dropsite.sol\":6156:6165  msg.value */\n      callvalue\n        /* \"Dropsite.sol\":6128:6141  depositAmount */\n      tag_149\n        /* \"Dropsite.sol\":6128:6166  depositAmount(_msgSender(), msg.value) */\n      jump\t// in\n        /* \"Dropsite.sol\":1855:1982  function checkMintedCategoryWise() public view OnlyOwner returns(uint,uint,uint){... */\n    tag_49:\n        /* \"Dropsite.sol\":1204:1209  Owner */\n      sload(0x0c)\n        /* \"Dropsite.sol\":1920:1924  uint */\n      0x00\n      swap1\n      dup2\n      swap1\n      dup2\n      swap1\n        /* \"Dropsite.sol\":1204:1209  Owner */\n      0x0100\n      swap1\n      div\n      sub(shl(0xa0, 0x01), 0x01)\n      and\n        /* \"Context.sol\":719:729  msg.sender */\n      caller\n      sub(shl(0xa0, 0x01), 0x01)\n        /* \"Dropsite.sol\":1188:1209  _msgSender() == Owner */\n      and\n      eq\n        /* \"Dropsite.sol\":1180:1242  require(_msgSender() == Owner, \"Only NFT-ES Owner can Access\") */\n      tag_159\n      jumpi\n      mload(0x40)\n      shl(0xe5, 0x461bcd)\n      dup2\n      mstore\n      0x04\n      add\n      tag_75\n      swap1\n      tag_76\n      jump\t// in\n    tag_159:\n      pop\n      pop\n        /* \"Dropsite.sol\":1954:1961  Diamond */\n      sload(0x07)\n        /* \"Dropsite.sol\":1962:1966  Gold */\n      sload(0x08)\n        /* \"Dropsite.sol\":1967:1973  Silver */\n      sload(0x09)\n        /* \"Dropsite.sol\":1954:1961  Diamond */\n      swap2\n      swap4\n        /* \"Dropsite.sol\":1962:1966  Gold */\n      swap1\n      swap3\n      pop\n        /* \"Dropsite.sol\":1855:1982  function checkMintedCategoryWise() public view OnlyOwner returns(uint,uint,uint){... */\n      jump\t// out\n        /* \"Dropsite.sol\":2205:2340  function stopDropsite() public OnlyOwner{... */\n    tag_54:\n        /* \"Dropsite.sol\":1204:1209  Owner */\n      sload(0x0c)\n      0x0100\n      swap1\n      div\n      sub(shl(0xa0, 0x01), 0x01)\n      and\n        /* \"Context.sol\":719:729  msg.sender */\n      caller\n      sub(shl(0xa0, 0x01), 0x01)\n        /* \"Dropsite.sol\":1188:1209  _msgSender() == Owner */\n      and\n      eq\n        /* \"Dropsite.sol\":1180:1242  require(_msgSender() == Owner, \"Only NFT-ES Owner can Access\") */\n      tag_164\n      jumpi\n      mload(0x40)\n      shl(0xe5, 0x461bcd)\n      dup2\n      mstore\n      0x04\n      add\n      tag_75\n      swap1\n      tag_76\n      jump\t// in\n    tag_164:\n        /* \"Dropsite.sol\":2263:2271  IsPaused */\n      and(0xff, sload(0x0c))\n        /* \"Dropsite.sol\":2263:2278  IsPaused==false */\n      iszero\n        /* \"Dropsite.sol\":2255:2310  require(IsPaused==false, \"Dropsite is already Stopped\") */\n      tag_167\n      jumpi\n      mload(0x40)\n      shl(0xe5, 0x461bcd)\n      dup2\n      mstore\n        /* \"#utility.yul\":6442:6444   */\n      0x20\n        /* \"Dropsite.sol\":2255:2310  require(IsPaused==false, \"Dropsite is already Stopped\") */\n      0x04\n      dup3\n      add\n        /* \"#utility.yul\":6424:6445   */\n      mstore\n        /* \"#utility.yul\":6481:6483   */\n      0x1b\n        /* \"#utility.yul\":6461:6479   */\n      0x24\n      dup3\n      add\n        /* \"#utility.yul\":6454:6484   */\n      mstore\n        /* \"#utility.yul\":6520:6549   */\n      0x44726f707369746520697320616c72656164792053746f707065640000000000\n        /* \"#utility.yul\":6500:6518   */\n      0x44\n      dup3\n      add\n        /* \"#utility.yul\":6493:6550   */\n      mstore\n        /* \"#utility.yul\":6567:6585   */\n      0x64\n      add\n        /* \"Dropsite.sol\":2255:2310  require(IsPaused==false, \"Dropsite is already Stopped\") */\n      tag_75\n        /* \"#utility.yul\":6240:6591   */\n      jump\n        /* \"Dropsite.sol\":2255:2310  require(IsPaused==false, \"Dropsite is already Stopped\") */\n    tag_167:\n        /* \"Dropsite.sol\":2320:2328  IsPaused */\n      0x0c\n        /* \"Dropsite.sol\":2320:2333  IsPaused=true */\n      dup1\n      sload\n      not(0xff)\n      and\n        /* \"Dropsite.sol\":2329:2333  true */\n      0x01\n        /* \"Dropsite.sol\":2320:2333  IsPaused=true */\n      or\n      swap1\n      sstore\n        /* \"Dropsite.sol\":2205:2340  function stopDropsite() public OnlyOwner{... */\n      jump\t// out\n        /* \"Dropsite.sol\":1988:2056  function setMintFee(uint _mintFee) public OnlyOwner {... */\n    tag_64:\n        /* \"Dropsite.sol\":1204:1209  Owner */\n      sload(0x0c)\n      0x0100\n      swap1\n      div\n      sub(shl(0xa0, 0x01), 0x01)\n      and\n        /* \"Context.sol\":719:729  msg.sender */\n      caller\n      sub(shl(0xa0, 0x01), 0x01)\n        /* \"Dropsite.sol\":1188:1209  _msgSender() == Owner */\n      and\n      eq\n        /* \"Dropsite.sol\":1180:1242  require(_msgSender() == Owner, \"Only NFT-ES Owner can Access\") */\n      tag_172\n      jumpi\n      mload(0x40)\n      shl(0xe5, 0x461bcd)\n      dup2\n      mstore\n      0x04\n      add\n      tag_75\n      swap1\n      tag_76\n      jump\t// in\n    tag_172:\n        /* \"Dropsite.sol\":1988:2056  function setMintFee(uint _mintFee) public OnlyOwner {... */\n      pop\n      jump\t// out\n        /* \"Dropsite.sol\":945:1083  function returnOwner(address addr) public view returns (uint[] memory){... */\n    tag_68:\n      sub(shl(0xa0, 0x01), 0x01)\n        /* \"Dropsite.sol\":1032:1056  dropsite_NFT_Owner[addr] */\n      dup2\n      and\n      0x00\n      swap1\n      dup2\n      mstore\n        /* \"Dropsite.sol\":1032:1050  dropsite_NFT_Owner */\n      0x0a\n        /* \"Dropsite.sol\":1032:1056  dropsite_NFT_Owner[addr] */\n      0x20\n      swap1\n      dup2\n      mstore\n      0x40\n      swap2\n      dup3\n      swap1\n      keccak256\n        /* \"Dropsite.sol\":1025:1076  return dropsite_NFT_Owner[addr].owned_Dropsite_NFTs */\n      dup1\n      sload\n      dup4\n      mload\n      dup2\n      dup5\n      mul\n      dup2\n      add\n      dup5\n      add\n      swap1\n      swap5\n      mstore\n      dup1\n      dup5\n      mstore\n        /* \"Dropsite.sol\":1001:1014  uint[] memory */\n      0x60\n      swap4\n        /* \"Dropsite.sol\":1025:1076  return dropsite_NFT_Owner[addr].owned_Dropsite_NFTs */\n      swap3\n      dup4\n      add\n        /* \"Dropsite.sol\":1032:1056  dropsite_NFT_Owner[addr] */\n      dup3\n        /* \"Dropsite.sol\":1025:1076  return dropsite_NFT_Owner[addr].owned_Dropsite_NFTs */\n      dup3\n      dup1\n      iszero\n      tag_176\n      jumpi\n      0x20\n      mul\n      dup3\n      add\n      swap2\n      swap1\n      0x00\n      mstore\n      keccak256(0x00, 0x20)\n      swap1\n    tag_177:\n      dup2\n      sload\n      dup2\n      mstore\n      0x20\n      add\n      swap1\n      0x01\n      add\n      swap1\n      dup1\n      dup4\n      gt\n      tag_177\n      jumpi\n    tag_176:\n      pop\n      pop\n      pop\n      pop\n      pop\n      swap1\n      pop\n        /* \"Dropsite.sol\":945:1083  function returnOwner(address addr) public view returns (uint[] memory){... */\n      swap2\n      swap1\n      pop\n      jump\t// out\n        /* \"Dropsite.sol\":3410:4998  function updateConditions() internal contractIsNotPaused returns(uint) {... */\n    tag_109:\n        /* \"Dropsite.sol\":1357:1365  IsPaused */\n      sload(0x0c)\n        /* \"Dropsite.sol\":3475:3479  uint */\n      0x00\n      swap1\n        /* \"Dropsite.sol\":1357:1365  IsPaused */\n      0xff\n      and\n        /* \"Dropsite.sol\":1357:1374  IsPaused == false */\n      iszero\n        /* \"Dropsite.sol\":1348:1407  require (IsPaused == false, \"Dropsite is not Opened Yet.\" ) */\n      tag_180\n      jumpi\n      mload(0x40)\n      shl(0xe5, 0x461bcd)\n      dup2\n      mstore\n      0x04\n      add\n      tag_75\n      swap1\n      tag_103\n      jump\t// in\n    tag_180:\n        /* \"Dropsite.sol\":3490:3500  uint index */\n      0x00\n        /* \"Dropsite.sol\":3503:3511  random() */\n      tag_183\n        /* \"Dropsite.sol\":3503:3509  random */\n      tag_184\n        /* \"Dropsite.sol\":3503:3511  random() */\n      jump\t// in\n    tag_183:\n        /* \"Dropsite.sol\":3490:3511  uint index = random() */\n      swap1\n      pop\n        /* \"Dropsite.sol\":3521:3531  uint nftId */\n      0x00\n        /* \"Dropsite.sol\":3534:3538  nums */\n      0x03\n        /* \"Dropsite.sol\":3539:3544  index */\n      dup3\n        /* \"Dropsite.sol\":3534:3545  nums[index] */\n      0x14\n      dup2\n      lt\n      tag_186\n      jumpi\n      tag_186\n      tag_187\n      jump\t// in\n    tag_186:\n      0x20\n      dup2\n      div\n      swap1\n      swap2\n      add\n      sload\n      0xff\n      0x1f\n      swap1\n      swap3\n      and\n      0x0100\n      exp\n      swap1\n      div\n      and\n      swap1\n      pop\n        /* \"Dropsite.sol\":3642:3652  nftId == 0 */\n      dup1\n      iszero\n        /* \"Dropsite.sol\":3642:3668  nftId == 0 && Diamond < 50 */\n      dup1\n      iszero\n      tag_189\n      jumpi\n      pop\n        /* \"Dropsite.sol\":3666:3668  50 */\n      0x32\n        /* \"Dropsite.sol\":3656:3663  Diamond */\n      sload(0x07)\n        /* \"Dropsite.sol\":3656:3668  Diamond < 50 */\n      lt\n        /* \"Dropsite.sol\":3642:3668  nftId == 0 && Diamond < 50 */\n    tag_189:\n        /* \"Dropsite.sol\":3639:4993  if(nftId == 0 && Diamond < 50) {... */\n      iszero\n      tag_190\n      jumpi\n        /* \"Dropsite.sol\":3685:3692  Diamond */\n      0x07\n        /* \"Dropsite.sol\":3685:3694  Diamond++ */\n      dup1\n      sload\n      swap1\n        /* \"Dropsite.sol\":3685:3692  Diamond */\n      0x00\n        /* \"Dropsite.sol\":3685:3694  Diamond++ */\n      tag_191\n      dup4\n      tag_119\n      jump\t// in\n    tag_191:\n      swap2\n      swap1\n      pop\n      sstore\n      pop\n        /* \"Dropsite.sol\":3750:3775  Strings.toString(Diamond) */\n      tag_192\n        /* \"Dropsite.sol\":3767:3774  Diamond */\n      sload(0x07)\n        /* \"Dropsite.sol\":3750:3766  Strings.toString */\n      tag_193\n        /* \"Dropsite.sol\":3750:3775  Strings.toString(Diamond) */\n      jump\t// in\n    tag_192:\n        /* \"Dropsite.sol\":3722:3776  abi.encodePacked(\"Diamond_\",Strings.toString(Diamond)) */\n      add(0x20, mload(0x40))\n      tag_194\n      swap2\n      swap1\n      tag_195\n      jump\t// in\n    tag_194:\n      mload(0x40)\n      0x20\n      dup2\n      dup4\n      sub\n      sub\n      dup2\n      mstore\n      swap1\n      0x40\n      mstore\n        /* \"Dropsite.sol\":3708:3712  data */\n      0x02\n        /* \"Dropsite.sol\":3708:3777  data = string(abi.encodePacked(\"Diamond_\",Strings.toString(Diamond))) */\n      swap1\n      dup1\n      mload\n      swap1\n      0x20\n      add\n      swap1\n      tag_196\n      swap3\n      swap2\n      swap1\n      tag_197\n      jump\t// in\n    tag_196:\n      pop\n        /* \"Dropsite.sol\":3811:3816  nftId */\n      swap2\n      pop\n        /* \"Dropsite.sol\":3804:3816  return nftId */\n      tag_77\n      swap1\n      pop\n      jump\n        /* \"Dropsite.sol\":3639:4993  if(nftId == 0 && Diamond < 50) {... */\n    tag_190:\n        /* \"Dropsite.sol\":3940:3941  1 */\n      0x01\n        /* \"Dropsite.sol\":3931:3936  nftId */\n      dup2\n        /* \"Dropsite.sol\":3931:3941  nftId <= 1 */\n      gt\n      iszero\n        /* \"Dropsite.sol\":3931:3955  nftId <= 1 && Gold < 100 */\n      dup1\n      iszero\n      tag_199\n      jumpi\n      pop\n        /* \"Dropsite.sol\":3952:3955  100 */\n      0x64\n        /* \"Dropsite.sol\":3945:3949  Gold */\n      sload(0x08)\n        /* \"Dropsite.sol\":3945:3955  Gold < 100 */\n      lt\n        /* \"Dropsite.sol\":3931:3955  nftId <= 1 && Gold < 100 */\n    tag_199:\n        /* \"Dropsite.sol\":3928:4993  if(nftId <= 1 && Gold < 100) {... */\n      iszero\n      tag_200\n      jumpi\n        /* \"Dropsite.sol\":3971:3975  Gold */\n      0x08\n        /* \"Dropsite.sol\":3971:3977  Gold++ */\n      dup1\n      sload\n      swap1\n        /* \"Dropsite.sol\":3971:3975  Gold */\n      0x00\n        /* \"Dropsite.sol\":3971:3977  Gold++ */\n      tag_201\n      dup4\n      tag_119\n      jump\t// in\n    tag_201:\n      swap2\n      swap1\n      pop\n      sstore\n      pop\n        /* \"Dropsite.sol\":4030:4052  Strings.toString(Gold) */\n      tag_202\n        /* \"Dropsite.sol\":4047:4051  Gold */\n      sload(0x08)\n        /* \"Dropsite.sol\":4030:4046  Strings.toString */\n      tag_193\n        /* \"Dropsite.sol\":4030:4052  Strings.toString(Gold) */\n      jump\t// in\n    tag_202:\n        /* \"Dropsite.sol\":4005:4053  abi.encodePacked(\"Gold_\",Strings.toString(Gold)) */\n      add(0x20, mload(0x40))\n      tag_194\n      swap2\n      swap1\n      tag_204\n      jump\t// in\n        /* \"Dropsite.sol\":3928:4993  if(nftId <= 1 && Gold < 100) {... */\n    tag_200:\n        /* \"Dropsite.sol\":4210:4211  2 */\n      0x02\n        /* \"Dropsite.sol\":4201:4206  nftId */\n      dup2\n        /* \"Dropsite.sol\":4201:4211  nftId <= 2 */\n      gt\n      iszero\n        /* \"Dropsite.sol\":4201:4228  nftId <= 2 && Silver <= 850 */\n      dup1\n      iszero\n      tag_207\n      jumpi\n      pop\n        /* \"Dropsite.sol\":4225:4228  850 */\n      0x0352\n        /* \"Dropsite.sol\":4215:4221  Silver */\n      sload(0x09)\n        /* \"Dropsite.sol\":4215:4228  Silver <= 850 */\n      gt\n      iszero\n        /* \"Dropsite.sol\":4201:4228  nftId <= 2 && Silver <= 850 */\n    tag_207:\n        /* \"Dropsite.sol\":4198:4993  if(nftId <= 2 && Silver <= 850) {... */\n      iszero\n      tag_208\n      jumpi\n        /* \"Dropsite.sol\":4244:4250  Silver */\n      0x09\n        /* \"Dropsite.sol\":4244:4252  Silver++ */\n      dup1\n      sload\n      swap1\n        /* \"Dropsite.sol\":4244:4250  Silver */\n      0x00\n        /* \"Dropsite.sol\":4244:4252  Silver++ */\n      tag_209\n      dup4\n      tag_119\n      jump\t// in\n    tag_209:\n      swap2\n      swap1\n      pop\n      sstore\n      pop\n        /* \"Dropsite.sol\":4312:4336  Strings.toString(Silver) */\n      tag_210\n        /* \"Dropsite.sol\":4329:4335  Silver */\n      sload(0x09)\n        /* \"Dropsite.sol\":4312:4328  Strings.toString */\n      tag_193\n        /* \"Dropsite.sol\":4312:4336  Strings.toString(Silver) */\n      jump\t// in\n    tag_210:\n        /* \"Dropsite.sol\":4285:4337  abi.encodePacked(\"Silver_\",Strings.toString(Silver)) */\n      add(0x20, mload(0x40))\n      tag_211\n      swap2\n      swap1\n      tag_212\n      jump\t// in\n    tag_211:\n      mload(0x40)\n      0x20\n      dup2\n      dup4\n      sub\n      sub\n      dup2\n      mstore\n      swap1\n      0x40\n      mstore\n        /* \"Dropsite.sol\":4271:4275  data */\n      0x02\n        /* \"Dropsite.sol\":4271:4338  data = string(abi.encodePacked(\"Silver_\",Strings.toString(Silver))) */\n      swap1\n      dup1\n      mload\n      swap1\n      0x20\n      add\n      swap1\n      tag_213\n      swap3\n      swap2\n      swap1\n      tag_197\n      jump\t// in\n    tag_213:\n        /* \"Dropsite.sol\":4266:4270  data */\n      0x02\n        /* \"Dropsite.sol\":4266:4338  data=data = string(abi.encodePacked(\"Silver_\",Strings.toString(Silver))) */\n      swap1\n      dup1\n      sload\n      tag_214\n      swap1\n      tag_112\n      jump\t// in\n    tag_214:\n      tag_196\n      swap3\n      swap2\n      swap1\n      tag_216\n      jump\t// in\n        /* \"Dropsite.sol\":4198:4993  if(nftId <= 2 && Silver <= 850) {... */\n    tag_208:\n        /* \"Dropsite.sol\":4575:4578  100 */\n      0x64\n        /* \"Dropsite.sol\":4568:4572  Gold */\n      sload(0x08)\n        /* \"Dropsite.sol\":4568:4578  Gold < 100 */\n      lt\n        /* \"Dropsite.sol\":4565:4984  if(Gold < 100) {... */\n      iszero\n      tag_218\n      jumpi\n      pop\n        /* \"Dropsite.sol\":4625:4629  Gold */\n      0x08\n        /* \"Dropsite.sol\":4625:4631  Gold++ */\n      dup1\n      sload\n        /* \"Dropsite.sol\":4606:4607  1 */\n      0x01\n      swap2\n        /* \"Dropsite.sol\":4625:4629  Gold */\n      0x00\n        /* \"Dropsite.sol\":4625:4631  Gold++ */\n      tag_201\n      dup4\n      tag_119\n      jump\t// in\n        /* \"Dropsite.sol\":4565:4984  if(Gold < 100) {... */\n    tag_218:\n      pop\n        /* \"Dropsite.sol\":4826:4833  Diamond */\n      0x07\n        /* \"Dropsite.sol\":4826:4835  Diamond++ */\n      dup1\n      sload\n        /* \"Dropsite.sol\":4807:4808  0 */\n      0x00\n      swap2\n      dup3\n        /* \"Dropsite.sol\":4826:4835  Diamond++ */\n      tag_191\n      dup4\n      tag_119\n      jump\t// in\n        /* \"ERC1155_Dropsite.sol\":835:1387  function _mint(... */\n    tag_117:\n      sub(shl(0xa0, 0x01), 0x01)\n        /* \"ERC1155_Dropsite.sol\":983:999  to != address(0) */\n      dup5\n      and\n        /* \"ERC1155_Dropsite.sol\":975:1037  require(to != address(0), \"ERC1155: mint to the zero address\") */\n      tag_229\n      jumpi\n      mload(0x40)\n      shl(0xe5, 0x461bcd)\n      dup2\n      mstore\n        /* \"#utility.yul\":8223:8225   */\n      0x20\n        /* \"ERC1155_Dropsite.sol\":975:1037  require(to != address(0), \"ERC1155: mint to the zero address\") */\n      0x04\n      dup3\n      add\n        /* \"#utility.yul\":8205:8226   */\n      mstore\n        /* \"#utility.yul\":8262:8264   */\n      0x21\n        /* \"#utility.yul\":8242:8260   */\n      0x24\n      dup3\n      add\n        /* \"#utility.yul\":8235:8265   */\n      mstore\n        /* \"#utility.yul\":8301:8335   */\n      0x455243313135353a206d696e7420746f20746865207a65726f20616464726573\n        /* \"#utility.yul\":8281:8299   */\n      0x44\n      dup3\n      add\n        /* \"#utility.yul\":8274:8336   */\n      mstore\n      shl(0xf8, 0x73)\n        /* \"#utility.yul\":8352:8370   */\n      0x64\n      dup3\n      add\n        /* \"#utility.yul\":8345:8376   */\n      mstore\n        /* \"#utility.yul\":8393:8412   */\n      0x84\n      add\n        /* \"ERC1155_Dropsite.sol\":975:1037  require(to != address(0), \"ERC1155: mint to the zero address\") */\n      tag_75\n        /* \"#utility.yul\":8021:8418   */\n      jump\n        /* \"ERC1155_Dropsite.sol\":975:1037  require(to != address(0), \"ERC1155: mint to the zero address\") */\n    tag_229:\n        /* \"Context.sol\":719:729  msg.sender */\n      caller\n        /* \"ERC1155_Dropsite.sol\":1090:1192  _beforeTokenTransfer(operator, address(0), to, _asSingletonArray(id), _asSingletonArray(amount), data) */\n      tag_233\n        /* \"Context.sol\":719:729  msg.sender */\n      dup2\n        /* \"ERC1155_Dropsite.sol\":1048:1064  address operator */\n      0x00\n        /* \"ERC1155_Dropsite.sol\":1133:1135  to */\n      dup8\n        /* \"ERC1155_Dropsite.sol\":1137:1158  _asSingletonArray(id) */\n      tag_234\n        /* \"ERC1155_Dropsite.sol\":1155:1157  id */\n      dup9\n        /* \"ERC1155_Dropsite.sol\":1137:1154  _asSingletonArray */\n      tag_235\n        /* \"ERC1155_Dropsite.sol\":1137:1158  _asSingletonArray(id) */\n      jump\t// in\n    tag_234:\n        /* \"ERC1155_Dropsite.sol\":1160:1185  _asSingletonArray(amount) */\n      tag_236\n        /* \"ERC1155_Dropsite.sol\":1178:1184  amount */\n      dup9\n        /* \"ERC1155_Dropsite.sol\":1160:1177  _asSingletonArray */\n      tag_235\n        /* \"ERC1155_Dropsite.sol\":1160:1185  _asSingletonArray(amount) */\n      jump\t// in\n    tag_236:\n        /* \"ERC1155_Dropsite.sol\":1394:1609  function _beforeTokenTransfer(... */\n      pop\n      pop\n      pop\n      pop\n      pop\n      jump\n        /* \"ERC1155_Dropsite.sol\":1090:1192  _beforeTokenTransfer(operator, address(0), to, _asSingletonArray(id), _asSingletonArray(amount), data) */\n    tag_233:\n        /* \"ERC1155_Dropsite.sol\":1202:1211  _balances */\n      0x00\n        /* \"ERC1155_Dropsite.sol\":1202:1215  _balances[id] */\n      dup5\n      dup2\n      mstore\n      0x20\n      dup2\n      dup2\n      mstore\n      0x40\n      dup1\n      dup4\n      keccak256\n      sub(shl(0xa0, 0x01), 0x01)\n        /* \"ERC1155_Dropsite.sol\":1202:1219  _balances[id][to] */\n      dup10\n      and\n      dup5\n      mstore\n      swap1\n      swap2\n      mstore\n      dup2\n      keccak256\n        /* \"ERC1155_Dropsite.sol\":1202:1229  _balances[id][to] += amount */\n      dup1\n      sload\n        /* \"ERC1155_Dropsite.sol\":1223:1229  amount */\n      dup6\n      swap3\n        /* \"ERC1155_Dropsite.sol\":1202:1211  _balances */\n      swap1\n        /* \"ERC1155_Dropsite.sol\":1202:1229  _balances[id][to] += amount */\n      tag_238\n      swap1\n        /* \"ERC1155_Dropsite.sol\":1223:1229  amount */\n      dup5\n      swap1\n        /* \"ERC1155_Dropsite.sol\":1202:1229  _balances[id][to] += amount */\n      tag_239\n      jump\t// in\n    tag_238:\n      swap1\n      swap2\n      sstore\n      pop\n      pop\n        /* \"ERC1155_Dropsite.sol\":1244:1296  TransferSingle(operator, address(0), to, id, amount) */\n      0x40\n      dup1\n      mload\n        /* \"#utility.yul\":9075:9100   */\n      dup6\n      dup2\n      mstore\n        /* \"#utility.yul\":9131:9133   */\n      0x20\n        /* \"#utility.yul\":9116:9134   */\n      dup2\n      add\n        /* \"#utility.yul\":9109:9143   */\n      dup6\n      swap1\n      mstore\n      sub(shl(0xa0, 0x01), 0x01)\n        /* \"ERC1155_Dropsite.sol\":1244:1296  TransferSingle(operator, address(0), to, id, amount) */\n      dup1\n      dup9\n      and\n      swap3\n        /* \"ERC1155_Dropsite.sol\":1277:1278  0 */\n      0x00\n      swap3\n        /* \"ERC1155_Dropsite.sol\":1244:1296  TransferSingle(operator, address(0), to, id, amount) */\n      swap2\n      dup6\n      and\n      swap2\n      0xc3d58168c5ae7397731d063d5bbf3d657854427343f4c083240f7aacaa2d0f62\n      swap2\n        /* \"#utility.yul\":9048:9066   */\n      add\n        /* \"ERC1155_Dropsite.sol\":1244:1296  TransferSingle(operator, address(0), to, id, amount) */\n      mload(0x40)\n      dup1\n      swap2\n      sub\n      swap1\n      log4\n        /* \"ERC1155_Dropsite.sol\":1306:1380  _doSafeTransferAcceptanceCheck(operator, address(0), to, id, amount, data) */\n      tag_236\n        /* \"ERC1155_Dropsite.sol\":1337:1345  operator */\n      dup2\n        /* \"ERC1155_Dropsite.sol\":1355:1356  0 */\n      0x00\n        /* \"ERC1155_Dropsite.sol\":1359:1361  to */\n      dup8\n        /* \"ERC1155_Dropsite.sol\":1363:1365  id */\n      dup8\n        /* \"ERC1155_Dropsite.sol\":1367:1373  amount */\n      dup8\n        /* \"ERC1155_Dropsite.sol\":1375:1379  data */\n      dup8\n        /* \"ERC1155_Dropsite.sol\":1306:1336  _doSafeTransferAcceptanceCheck */\n      tag_243\n        /* \"ERC1155_Dropsite.sol\":1306:1380  _doSafeTransferAcceptanceCheck(operator, address(0), to, id, amount, data) */\n      jump\t// in\n        /* \"Dropsite.sol\":5536:5655  function depositAmount(address payee,uint amountToDeposit) internal {... */\n    tag_149:\n      sub(shl(0xa0, 0x01), 0x01)\n        /* \"Dropsite.sol\":5614:5629  deposits[payee] */\n      dup3\n      and\n      0x00\n      swap1\n      dup2\n      mstore\n        /* \"Dropsite.sol\":5614:5622  deposits */\n      0x0b\n        /* \"Dropsite.sol\":5614:5629  deposits[payee] */\n      0x20\n      mstore\n      0x40\n      dup2\n      keccak256\n        /* \"Dropsite.sol\":5614:5648  deposits[payee] += amountToDeposit */\n      dup1\n      sload\n        /* \"Dropsite.sol\":5633:5648  amountToDeposit */\n      dup4\n      swap3\n        /* \"Dropsite.sol\":5614:5629  deposits[payee] */\n      swap1\n        /* \"Dropsite.sol\":5614:5648  deposits[payee] += amountToDeposit */\n      tag_245\n      swap1\n        /* \"Dropsite.sol\":5633:5648  amountToDeposit */\n      dup5\n      swap1\n        /* \"Dropsite.sol\":5614:5648  deposits[payee] += amountToDeposit */\n      tag_239\n      jump\t// in\n    tag_245:\n      swap1\n      swap2\n      sstore\n      pop\n      pop\n      pop\n      pop\n        /* \"Dropsite.sol\":5536:5655  function depositAmount(address payee,uint amountToDeposit) internal {... */\n      jump\t// out\n        /* \"Dropsite.sol\":3029:3225  function random() internal view returns (uint) {... */\n    tag_184:\n        /* \"Dropsite.sol\":3070:3074  uint */\n      0x00\n        /* \"Dropsite.sol\":3106:3123  uint randomnumber */\n      dup1\n        /* \"Dropsite.sol\":3191:3193  20 */\n      0x14\n        /* \"Dropsite.sol\":3158:3173  block.timestamp */\n      timestamp\n        /* \"Dropsite.sol\":3175:3185  msg.sender */\n      caller\n        /* \"Dropsite.sol\":3141:3186  abi.encodePacked(block.timestamp, msg.sender) */\n      add(0x20, mload(0x40))\n      tag_247\n      swap3\n      swap2\n      swap1\n        /* \"#utility.yul\":2712:2731   */\n      swap2\n      dup3\n      mstore\n        /* \"#utility.yul\":2769:2771   */\n      0x60\n        /* \"#utility.yul\":2765:2780   */\n      shl\n      not(0xffffffffffffffffffffffff)\n        /* \"#utility.yul\":2761:2814   */\n      and\n        /* \"#utility.yul\":2756:2758   */\n      0x20\n        /* \"#utility.yul\":2747:2759   */\n      dup3\n      add\n        /* \"#utility.yul\":2740:2815   */\n      mstore\n        /* \"#utility.yul\":2840:2842   */\n      0x34\n        /* \"#utility.yul\":2831:2843   */\n      add\n      swap1\n        /* \"#utility.yul\":2555:2849   */\n      jump\n        /* \"Dropsite.sol\":3141:3186  abi.encodePacked(block.timestamp, msg.sender) */\n    tag_247:\n      mload(0x40)\n      0x20\n      dup2\n      dup4\n      sub\n      sub\n      dup2\n      mstore\n      swap1\n      0x40\n      mstore\n        /* \"Dropsite.sol\":3131:3187  keccak256(abi.encodePacked(block.timestamp, msg.sender)) */\n      dup1\n      mload\n      swap1\n      0x20\n      add\n      keccak256\n        /* \"Dropsite.sol\":3126:3188  uint(keccak256(abi.encodePacked(block.timestamp, msg.sender))) */\n      0x00\n      shr\n        /* \"Dropsite.sol\":3126:3193  uint(keccak256(abi.encodePacked(block.timestamp, msg.sender))) % 20 */\n      tag_249\n      swap2\n      swap1\n      tag_250\n      jump\t// in\n    tag_249:\n        /* \"Dropsite.sol\":3106:3193  uint randomnumber = uint(keccak256(abi.encodePacked(block.timestamp, msg.sender))) % 20 */\n      swap3\n        /* \"Dropsite.sol\":3029:3225  function random() internal view returns (uint) {... */\n      swap2\n      pop\n      pop\n      jump\t// out\n        /* \"Strings.sol\":329:1032  function toString(uint256 value) internal pure returns (string memory) {... */\n    tag_193:\n        /* \"Strings.sol\":385:398  string memory */\n      0x60\n        /* \"Strings.sol\":602:612  value == 0 */\n      dup2\n        /* \"Strings.sol\":598:649  if (value == 0) {... */\n      tag_252\n      jumpi\n      pop\n      pop\n        /* \"Strings.sol\":628:638  return \"0\" */\n      0x40\n      dup1\n      mload\n      dup1\n      dup3\n      add\n      swap1\n      swap2\n      mstore\n      0x01\n      dup2\n      mstore\n      shl(0xfc, 0x03)\n      0x20\n      dup3\n      add\n      mstore\n      swap1\n        /* \"Strings.sol\":329:1032  function toString(uint256 value) internal pure returns (string memory) {... */\n      jump\t// out\n        /* \"Strings.sol\":598:649  if (value == 0) {... */\n    tag_252:\n        /* \"Strings.sol\":673:678  value */\n      dup2\n        /* \"Strings.sol\":658:670  uint256 temp */\n      0x00\n        /* \"Strings.sol\":712:787  while (temp != 0) {... */\n    tag_253:\n        /* \"Strings.sol\":719:728  temp != 0 */\n      dup2\n      iszero\n        /* \"Strings.sol\":712:787  while (temp != 0) {... */\n      tag_254\n      jumpi\n        /* \"Strings.sol\":744:752  digits++ */\n      dup1\n      tag_255\n      dup2\n      tag_119\n      jump\t// in\n    tag_255:\n      swap2\n      pop\n        /* \"Strings.sol\":766:776  temp /= 10 */\n      tag_256\n      swap1\n      pop\n        /* \"Strings.sol\":774:776  10 */\n      0x0a\n        /* \"Strings.sol\":766:776  temp /= 10 */\n      dup4\n      tag_257\n      jump\t// in\n    tag_256:\n      swap2\n      pop\n        /* \"Strings.sol\":712:787  while (temp != 0) {... */\n      jump(tag_253)\n    tag_254:\n        /* \"Strings.sol\":796:815  bytes memory buffer */\n      0x00\n        /* \"Strings.sol\":828:834  digits */\n      dup2\n        /* \"Strings.sol\":818:835  new bytes(digits) */\n      0xffffffffffffffff\n      dup2\n      gt\n      iszero\n      tag_259\n      jumpi\n      tag_259\n      tag_260\n      jump\t// in\n    tag_259:\n      mload(0x40)\n      swap1\n      dup1\n      dup3\n      mstore\n      dup1\n      0x1f\n      add\n      not(0x1f)\n      and\n      0x20\n      add\n      dup3\n      add\n      0x40\n      mstore\n      dup1\n      iszero\n      tag_261\n      jumpi\n      0x20\n      dup3\n      add\n      dup2\n      dup1\n      calldatasize\n      dup4\n      calldatacopy\n      add\n      swap1\n      pop\n    tag_261:\n      pop\n        /* \"Strings.sol\":796:835  bytes memory buffer = new bytes(digits) */\n      swap1\n      pop\n        /* \"Strings.sol\":845:995  while (value != 0) {... */\n    tag_262:\n        /* \"Strings.sol\":852:862  value != 0 */\n      dup5\n      iszero\n        /* \"Strings.sol\":845:995  while (value != 0) {... */\n      tag_263\n      jumpi\n        /* \"Strings.sol\":878:889  digits -= 1 */\n      tag_264\n        /* \"Strings.sol\":888:889  1 */\n      0x01\n        /* \"Strings.sol\":878:889  digits -= 1 */\n      dup4\n      tag_265\n      jump\t// in\n    tag_264:\n      swap2\n      pop\n        /* \"Strings.sol\":946:956  value % 10 */\n      tag_266\n        /* \"Strings.sol\":954:956  10 */\n      0x0a\n        /* \"Strings.sol\":946:951  value */\n      dup7\n        /* \"Strings.sol\":946:956  value % 10 */\n      tag_250\n      jump\t// in\n    tag_266:\n        /* \"Strings.sol\":933:957  48 + uint256(value % 10) */\n      tag_267\n      swap1\n        /* \"Strings.sol\":933:935  48 */\n      0x30\n        /* \"Strings.sol\":933:957  48 + uint256(value % 10) */\n      tag_239\n      jump\t// in\n    tag_267:\n        /* \"Strings.sol\":920:959  bytes1(uint8(48 + uint256(value % 10))) */\n      0xf8\n      shl\n        /* \"Strings.sol\":903:909  buffer */\n      dup2\n        /* \"Strings.sol\":910:916  digits */\n      dup4\n        /* \"Strings.sol\":903:917  buffer[digits] */\n      dup2\n      mload\n      dup2\n      lt\n      tag_269\n      jumpi\n      tag_269\n      tag_187\n      jump\t// in\n    tag_269:\n      0x20\n      add\n      add\n        /* \"Strings.sol\":903:959  buffer[digits] = bytes1(uint8(48 + uint256(value % 10))) */\n      swap1\n      not(sub(shl(0xf8, 0x01), 0x01))\n      and\n      swap1\n      dup2\n      0x00\n      byte\n      swap1\n      mstore8\n      pop\n        /* \"Strings.sol\":973:984  value /= 10 */\n      tag_270\n        /* \"Strings.sol\":982:984  10 */\n      0x0a\n        /* \"Strings.sol\":973:984  value /= 10 */\n      dup7\n      tag_257\n      jump\t// in\n    tag_270:\n      swap5\n      pop\n        /* \"Strings.sol\":845:995  while (value != 0) {... */\n      jump(tag_262)\n    tag_263:\n        /* \"Strings.sol\":1018:1024  buffer */\n      swap5\n        /* \"Strings.sol\":329:1032  function toString(uint256 value) internal pure returns (string memory) {... */\n      swap4\n      pop\n      pop\n      pop\n      pop\n      jump\t// out\n        /* \"ERC1155_Dropsite.sol\":2347:2540  function _asSingletonArray(uint256 element) private pure returns (uint256[] memory) {... */\n    tag_235:\n        /* \"ERC1155_Dropsite.sol\":2466:2482  new uint256[](1) */\n      0x40\n      dup1\n      mload\n        /* \"ERC1155_Dropsite.sol\":2480:2481  1 */\n      0x01\n        /* \"ERC1155_Dropsite.sol\":2466:2482  new uint256[](1) */\n      dup1\n      dup3\n      mstore\n      dup2\n      dup4\n      add\n      swap1\n      swap3\n      mstore\n        /* \"ERC1155_Dropsite.sol\":2413:2429  uint256[] memory */\n      0x60\n      swap2\n        /* \"ERC1155_Dropsite.sol\":2441:2463  uint256[] memory array */\n      0x00\n      swap2\n        /* \"ERC1155_Dropsite.sol\":2466:2482  new uint256[](1) */\n      swap1\n      0x20\n      dup1\n      dup4\n      add\n      swap1\n      dup1\n      calldatasize\n      dup4\n      calldatacopy\n      add\n      swap1\n      pop\n      pop\n        /* \"ERC1155_Dropsite.sol\":2441:2482  uint256[] memory array = new uint256[](1) */\n      swap1\n      pop\n        /* \"ERC1155_Dropsite.sol\":2503:2510  element */\n      dup3\n        /* \"ERC1155_Dropsite.sol\":2492:2497  array */\n      dup2\n        /* \"ERC1155_Dropsite.sol\":2498:2499  0 */\n      0x00\n        /* \"ERC1155_Dropsite.sol\":2492:2500  array[0] */\n      dup2\n      mload\n      dup2\n      lt\n      tag_276\n      jumpi\n      tag_276\n      tag_187\n      jump\t// in\n    tag_276:\n      0x20\n      swap1\n      dup2\n      mul\n      swap2\n      swap1\n      swap2\n      add\n      add\n        /* \"ERC1155_Dropsite.sol\":2492:2510  array[0] = element */\n      mstore\n        /* \"ERC1155_Dropsite.sol\":2528:2533  array */\n      swap3\n        /* \"ERC1155_Dropsite.sol\":2347:2540  function _asSingletonArray(uint256 element) private pure returns (uint256[] memory) {... */\n      swap2\n      pop\n      pop\n      jump\t// out\n        /* \"ERC1155_Dropsite.sol\":1394:1609  function _beforeTokenTransfer(... */\n    tag_237:\n      pop\n      pop\n      pop\n      pop\n      pop\n      pop\n      jump\t// out\n        /* \"ERC1155_Dropsite.sol\":1615:2341  function _doSafeTransferAcceptanceCheck(... */\n    tag_243:\n      sub(shl(0xa0, 0x01), 0x01)\n        /* \"ERC1155_Dropsite.sol\":1823:1836  to.isContract */\n      dup5\n      and\n        /* \"Address.sol\":1087:1107  extcodesize(account) */\n      extcodesize\n        /* \"Address.sol\":1133:1141  size > 0 */\n      iszero\n        /* \"ERC1155_Dropsite.sol\":1819:2335  if (to.isContract()) {... */\n      tag_237\n      jumpi\n        /* \"ERC1155_Dropsite.sol\":1858:1930  IERC1155Receiver(to).onERC1155Received(operator, from, id, amount, data) */\n      mload(0x40)\n      shl(0xe3, 0x15d13449)\n      dup2\n      mstore\n      sub(shl(0xa0, 0x01), 0x01)\n        /* \"ERC1155_Dropsite.sol\":1858:1896  IERC1155Receiver(to).onERC1155Received */\n      dup6\n      and\n      swap1\n      0xae89a248\n      swap1\n        /* \"ERC1155_Dropsite.sol\":1858:1930  IERC1155Receiver(to).onERC1155Received(operator, from, id, amount, data) */\n      tag_282\n      swap1\n        /* \"ERC1155_Dropsite.sol\":1897:1905  operator */\n      dup10\n      swap1\n        /* \"ERC1155_Dropsite.sol\":1907:1911  from */\n      dup10\n      swap1\n        /* \"ERC1155_Dropsite.sol\":1913:1915  id */\n      dup9\n      swap1\n        /* \"ERC1155_Dropsite.sol\":1917:1923  amount */\n      dup9\n      swap1\n        /* \"ERC1155_Dropsite.sol\":1925:1929  data */\n      dup9\n      swap1\n        /* \"ERC1155_Dropsite.sol\":1858:1930  IERC1155Receiver(to).onERC1155Received(operator, from, id, amount, data) */\n      0x04\n      add\n      tag_283\n      jump\t// in\n    tag_282:\n      0x20\n      mload(0x40)\n      dup1\n      dup4\n      sub\n      dup2\n      0x00\n      dup8\n      dup1\n      extcodesize\n      iszero\n      dup1\n      iszero\n      tag_284\n      jumpi\n      0x00\n      dup1\n      revert\n    tag_284:\n      pop\n      gas\n      call\n      swap3\n      pop\n      pop\n      pop\n      dup1\n      iszero\n      tag_285\n      jumpi\n      pop\n      0x40\n      dup1\n      mload\n      0x1f\n      returndatasize\n      swap1\n      dup2\n      add\n      not(0x1f)\n      and\n      dup3\n      add\n      swap1\n      swap3\n      mstore\n      tag_286\n      swap2\n      dup2\n      add\n      swap1\n      tag_287\n      jump\t// in\n    tag_286:\n      0x01\n    tag_285:\n        /* \"ERC1155_Dropsite.sol\":1854:2325  try IERC1155Receiver(to).onERC1155Received(operator, from, id, amount, data) returns (bytes4 response) {... */\n      tag_288\n      jumpi\n      tag_292\n      tag_293\n      jump\t// in\n    tag_292:\n      dup1\n      0x08c379a0\n      eq\n      iszero\n      tag_291\n      jumpi\n      pop\n      tag_294\n      tag_295\n      jump\t// in\n    tag_294:\n      dup1\n      tag_296\n      jumpi\n      pop\n      jump(tag_290)\n    tag_296:\n        /* \"ERC1155_Dropsite.sol\":2201:2207  reason */\n      dup1\n        /* \"ERC1155_Dropsite.sol\":2194:2208  revert(reason) */\n      mload(0x40)\n      shl(0xe5, 0x461bcd)\n      dup2\n      mstore\n      0x04\n      add\n      tag_75\n      swap2\n      swap1\n      tag_298\n      jump\t// in\n        /* \"ERC1155_Dropsite.sol\":1854:2325  try IERC1155Receiver(to).onERC1155Received(operator, from, id, amount, data) returns (bytes4 response) {... */\n    tag_291:\n      pop\n    tag_290:\n        /* \"ERC1155_Dropsite.sol\":2248:2310  revert(\"ERC1155: transfer to non ERC1155Receiver implementer\") */\n      mload(0x40)\n      shl(0xe5, 0x461bcd)\n      dup2\n      mstore\n        /* \"#utility.yul\":4902:4904   */\n      0x20\n        /* \"ERC1155_Dropsite.sol\":2248:2310  revert(\"ERC1155: transfer to non ERC1155Receiver implementer\") */\n      0x04\n      dup3\n      add\n        /* \"#utility.yul\":4884:4905   */\n      mstore\n        /* \"#utility.yul\":4941:4943   */\n      0x34\n        /* \"#utility.yul\":4921:4939   */\n      0x24\n      dup3\n      add\n        /* \"#utility.yul\":4914:4944   */\n      mstore\n        /* \"#utility.yul\":4980:5014   */\n      0x455243313135353a207472616e7366657220746f206e6f6e2045524331313535\n        /* \"#utility.yul\":4960:4978   */\n      0x44\n      dup3\n      add\n        /* \"#utility.yul\":4953:5015   */\n      mstore\n      shl(0x61, 0x2932b1b2b4bb32b91034b6b83632b6b2b73a32b9)\n        /* \"#utility.yul\":5031:5049   */\n      0x64\n      dup3\n      add\n        /* \"#utility.yul\":5024:5074   */\n      mstore\n        /* \"#utility.yul\":5091:5110   */\n      0x84\n      add\n        /* \"ERC1155_Dropsite.sol\":2248:2310  revert(\"ERC1155: transfer to non ERC1155Receiver implementer\") */\n      tag_75\n        /* \"#utility.yul\":4700:5116   */\n      jump\n        /* \"ERC1155_Dropsite.sol\":1854:2325  try IERC1155Receiver(to).onERC1155Received(operator, from, id, amount, data) returns (bytes4 response) {... */\n    tag_288:\n      not(sub(shl(0xe0, 0x01), 0x01))\n        /* \"ERC1155_Dropsite.sol\":1979:2034  response != IERC1155Receiver.onERC1155Received.selector */\n      dup2\n      and\n      shl(0xe3, 0x15d13449)\n      eq\n        /* \"ERC1155_Dropsite.sol\":1975:2127  if (response != IERC1155Receiver.onERC1155Received.selector) {... */\n      tag_302\n      jumpi\n        /* \"ERC1155_Dropsite.sol\":2058:2108  revert(\"ERC1155: ERC1155Receiver rejected tokens\") */\n      mload(0x40)\n      shl(0xe5, 0x461bcd)\n      dup2\n      mstore\n        /* \"#utility.yul\":5323:5325   */\n      0x20\n        /* \"ERC1155_Dropsite.sol\":2058:2108  revert(\"ERC1155: ERC1155Receiver rejected tokens\") */\n      0x04\n      dup3\n      add\n        /* \"#utility.yul\":5305:5326   */\n      mstore\n        /* \"#utility.yul\":5362:5364   */\n      0x28\n        /* \"#utility.yul\":5342:5360   */\n      0x24\n      dup3\n      add\n        /* \"#utility.yul\":5335:5365   */\n      mstore\n        /* \"#utility.yul\":5401:5435   */\n      0x455243313135353a204552433131353552656365697665722072656a65637465\n        /* \"#utility.yul\":5381:5399   */\n      0x44\n      dup3\n      add\n        /* \"#utility.yul\":5374:5436   */\n      mstore\n      shl(0xc0, 0x6420746f6b656e73)\n        /* \"#utility.yul\":5452:5470   */\n      0x64\n      dup3\n      add\n        /* \"#utility.yul\":5445:5483   */\n      mstore\n        /* \"#utility.yul\":5500:5519   */\n      0x84\n      add\n        /* \"ERC1155_Dropsite.sol\":2058:2108  revert(\"ERC1155: ERC1155Receiver rejected tokens\") */\n      tag_75\n        /* \"#utility.yul\":5121:5525   */\n      jump\n        /* \"ERC1155_Dropsite.sol\":1975:2127  if (response != IERC1155Receiver.onERC1155Received.selector) {... */\n    tag_302:\n        /* \"ERC1155_Dropsite.sol\":1931:2141  returns (bytes4 response) {... */\n      pop\n        /* \"ERC1155_Dropsite.sol\":1615:2341  function _doSafeTransferAcceptanceCheck(... */\n      pop\n      pop\n      pop\n      pop\n      pop\n      pop\n      jump\t// out\n    tag_197:\n      dup3\n      dup1\n      sload\n      tag_306\n      swap1\n      tag_112\n      jump\t// in\n    tag_306:\n      swap1\n      0x00\n      mstore\n      keccak256(0x00, 0x20)\n      swap1\n      0x1f\n      add\n      0x20\n      swap1\n      div\n      dup2\n      add\n      swap3\n      dup3\n      tag_308\n      jumpi\n      0x00\n      dup6\n      sstore\n      jump(tag_311)\n    tag_308:\n      dup3\n      0x1f\n      lt\n      tag_309\n      jumpi\n      dup1\n      mload\n      not(0xff)\n      and\n      dup4\n      dup1\n      add\n      or\n      dup6\n      sstore\n      jump(tag_311)\n    tag_309:\n      dup3\n      dup1\n      add\n      0x01\n      add\n      dup6\n      sstore\n      dup3\n      iszero\n      tag_311\n      jumpi\n      swap2\n      dup3\n      add\n    tag_310:\n      dup3\n      dup2\n      gt\n      iszero\n      tag_311\n      jumpi\n      dup3\n      mload\n      dup3\n      sstore\n      swap2\n      0x20\n      add\n      swap2\n      swap1\n      0x01\n      add\n      swap1\n      jump(tag_310)\n    tag_311:\n      pop\n      tag_312\n      swap3\n      swap2\n      pop\n      tag_313\n      jump\t// in\n    tag_312:\n      pop\n      swap1\n      jump\t// out\n    tag_216:\n      dup3\n      dup1\n      sload\n      tag_314\n      swap1\n      tag_112\n      jump\t// in\n    tag_314:\n      swap1\n      0x00\n      mstore\n      keccak256(0x00, 0x20)\n      swap1\n      0x1f\n      add\n      0x20\n      swap1\n      div\n      dup2\n      add\n      swap3\n      dup3\n      tag_316\n      jumpi\n      0x00\n      dup6\n      sstore\n      jump(tag_311)\n    tag_316:\n      dup3\n      0x1f\n      lt\n      tag_317\n      jumpi\n      dup1\n      sload\n      dup6\n      sstore\n      jump(tag_311)\n    tag_317:\n      dup3\n      dup1\n      add\n      0x01\n      add\n      dup6\n      sstore\n      dup3\n      iszero\n      tag_311\n      jumpi\n      0x00\n      mstore\n      keccak256(0x00, 0x20)\n      swap2\n      0x1f\n      add\n      0x20\n      swap1\n      div\n      dup3\n      add\n    tag_318:\n      dup3\n      dup2\n      gt\n      iszero\n      tag_311\n      jumpi\n      dup3\n      sload\n      dup3\n      sstore\n      swap2\n      0x01\n      add\n      swap2\n      swap1\n      0x01\n      add\n      swap1\n      jump(tag_318)\n    tag_313:\n    tag_321:\n      dup1\n      dup3\n      gt\n      iszero\n      tag_312\n      jumpi\n      0x00\n      dup2\n      sstore\n      0x01\n      add\n      jump(tag_321)\n        /* \"#utility.yul\":14:261   */\n    tag_35:\n        /* \"#utility.yul\":73:79   */\n      0x00\n        /* \"#utility.yul\":126:128   */\n      0x20\n        /* \"#utility.yul\":114:123   */\n      dup3\n        /* \"#utility.yul\":105:112   */\n      dup5\n        /* \"#utility.yul\":101:124   */\n      sub\n        /* \"#utility.yul\":97:129   */\n      slt\n        /* \"#utility.yul\":94:146   */\n      iszero\n      tag_325\n      jumpi\n        /* \"#utility.yul\":142:143   */\n      0x00\n        /* \"#utility.yul\":139:140   */\n      dup1\n        /* \"#utility.yul\":132:144   */\n      revert\n        /* \"#utility.yul\":94:146   */\n    tag_325:\n        /* \"#utility.yul\":181:190   */\n      dup2\n        /* \"#utility.yul\":168:191   */\n      calldataload\n        /* \"#utility.yul\":200:231   */\n      tag_326\n        /* \"#utility.yul\":225:230   */\n      dup2\n        /* \"#utility.yul\":200:231   */\n      tag_327\n      jump\t// in\n    tag_326:\n        /* \"#utility.yul\":250:255   */\n      swap4\n        /* \"#utility.yul\":14:261   */\n      swap3\n      pop\n      pop\n      pop\n      jump\t// out\n        /* \"#utility.yul\":526:816   */\n    tag_287:\n        /* \"#utility.yul\":595:601   */\n      0x00\n        /* \"#utility.yul\":648:650   */\n      0x20\n        /* \"#utility.yul\":636:645   */\n      dup3\n        /* \"#utility.yul\":627:634   */\n      dup5\n        /* \"#utility.yul\":623:646   */\n      sub\n        /* \"#utility.yul\":619:651   */\n      slt\n        /* \"#utility.yul\":616:668   */\n      iszero\n      tag_332\n      jumpi\n        /* \"#utility.yul\":664:665   */\n      0x00\n        /* \"#utility.yul\":661:662   */\n      dup1\n        /* \"#utility.yul\":654:666   */\n      revert\n        /* \"#utility.yul\":616:668   */\n    tag_332:\n        /* \"#utility.yul\":690:706   */\n      dup2\n      mload\n      not(sub(shl(0xe0, 0x01), 0x01))\n        /* \"#utility.yul\":735:767   */\n      dup2\n      and\n        /* \"#utility.yul\":725:768   */\n      dup2\n      eq\n        /* \"#utility.yul\":715:786   */\n      tag_326\n      jumpi\n        /* \"#utility.yul\":782:783   */\n      0x00\n        /* \"#utility.yul\":779:780   */\n      dup1\n        /* \"#utility.yul\":772:784   */\n      revert\n        /* \"#utility.yul\":821:1001   */\n    tag_63:\n        /* \"#utility.yul\":880:886   */\n      0x00\n        /* \"#utility.yul\":933:935   */\n      0x20\n        /* \"#utility.yul\":921:930   */\n      dup3\n        /* \"#utility.yul\":912:919   */\n      dup5\n        /* \"#utility.yul\":908:931   */\n      sub\n        /* \"#utility.yul\":904:936   */\n      slt\n        /* \"#utility.yul\":901:953   */\n      iszero\n      tag_335\n      jumpi\n        /* \"#utility.yul\":949:950   */\n      0x00\n        /* \"#utility.yul\":946:947   */\n      dup1\n        /* \"#utility.yul\":939:951   */\n      revert\n        /* \"#utility.yul\":901:953   */\n    tag_335:\n      pop\n        /* \"#utility.yul\":972:995   */\n      calldataload\n      swap2\n        /* \"#utility.yul\":821:1001   */\n      swap1\n      pop\n      jump\t// out\n        /* \"#utility.yul\":1006:1264   */\n    tag_336:\n        /* \"#utility.yul\":1048:1051   */\n      0x00\n        /* \"#utility.yul\":1086:1091   */\n      dup2\n        /* \"#utility.yul\":1080:1092   */\n      mload\n        /* \"#utility.yul\":1113:1119   */\n      dup1\n        /* \"#utility.yul\":1108:1111   */\n      dup5\n        /* \"#utility.yul\":1101:1120   */\n      mstore\n        /* \"#utility.yul\":1129:1192   */\n      tag_338\n        /* \"#utility.yul\":1185:1191   */\n      dup2\n        /* \"#utility.yul\":1178:1182   */\n      0x20\n        /* \"#utility.yul\":1173:1176   */\n      dup7\n        /* \"#utility.yul\":1169:1183   */\n      add\n        /* \"#utility.yul\":1162:1166   */\n      0x20\n        /* \"#utility.yul\":1155:1160   */\n      dup7\n        /* \"#utility.yul\":1151:1167   */\n      add\n        /* \"#utility.yul\":1129:1192   */\n      tag_339\n      jump\t// in\n    tag_338:\n        /* \"#utility.yul\":1246:1248   */\n      0x1f\n        /* \"#utility.yul\":1225:1240   */\n      add\n      not(0x1f)\n        /* \"#utility.yul\":1221:1250   */\n      and\n        /* \"#utility.yul\":1212:1251   */\n      swap3\n      swap1\n      swap3\n      add\n        /* \"#utility.yul\":1253:1257   */\n      0x20\n        /* \"#utility.yul\":1208:1258   */\n      add\n      swap3\n        /* \"#utility.yul\":1006:1264   */\n      swap2\n      pop\n      pop\n      jump\t// out\n        /* \"#utility.yul\":1269:1694   */\n    tag_195:\n      shl(0xc0, 0x4469616d6f6e645f)\n        /* \"#utility.yul\":1526:1529   */\n      dup2\n        /* \"#utility.yul\":1519:1542   */\n      mstore\n        /* \"#utility.yul\":1501:1504   */\n      0x00\n        /* \"#utility.yul\":1571:1577   */\n      dup3\n        /* \"#utility.yul\":1565:1578   */\n      mload\n        /* \"#utility.yul\":1587:1648   */\n      tag_341\n        /* \"#utility.yul\":1641:1647   */\n      dup2\n        /* \"#utility.yul\":1637:1638   */\n      0x08\n        /* \"#utility.yul\":1632:1635   */\n      dup6\n        /* \"#utility.yul\":1628:1639   */\n      add\n        /* \"#utility.yul\":1621:1625   */\n      0x20\n        /* \"#utility.yul\":1613:1619   */\n      dup8\n        /* \"#utility.yul\":1609:1626   */\n      add\n        /* \"#utility.yul\":1587:1648   */\n      tag_339\n      jump\t// in\n    tag_341:\n        /* \"#utility.yul\":1668:1684   */\n      swap2\n      swap1\n      swap2\n      add\n        /* \"#utility.yul\":1686:1687   */\n      0x08\n        /* \"#utility.yul\":1664:1688   */\n      add\n      swap3\n        /* \"#utility.yul\":1269:1694   */\n      swap2\n      pop\n      pop\n      jump\t// out\n        /* \"#utility.yul\":1699:2121   */\n    tag_204:\n      shl(0xd8, 0x476f6c645f)\n        /* \"#utility.yul\":1956:1959   */\n      dup2\n        /* \"#utility.yul\":1949:1969   */\n      mstore\n        /* \"#utility.yul\":1931:1934   */\n      0x00\n        /* \"#utility.yul\":1998:2004   */\n      dup3\n        /* \"#utility.yul\":1992:2005   */\n      mload\n        /* \"#utility.yul\":2014:2075   */\n      tag_343\n        /* \"#utility.yul\":2068:2074   */\n      dup2\n        /* \"#utility.yul\":2064:2065   */\n      0x05\n        /* \"#utility.yul\":2059:2062   */\n      dup6\n        /* \"#utility.yul\":2055:2066   */\n      add\n        /* \"#utility.yul\":2048:2052   */\n      0x20\n        /* \"#utility.yul\":2040:2046   */\n      dup8\n        /* \"#utility.yul\":2036:2053   */\n      add\n        /* \"#utility.yul\":2014:2075   */\n      tag_339\n      jump\t// in\n    tag_343:\n        /* \"#utility.yul\":2095:2111   */\n      swap2\n      swap1\n      swap2\n      add\n        /* \"#utility.yul\":2113:2114   */\n      0x05\n        /* \"#utility.yul\":2091:2115   */\n      add\n      swap3\n        /* \"#utility.yul\":1699:2121   */\n      swap2\n      pop\n      pop\n      jump\t// out\n        /* \"#utility.yul\":2126:2550   */\n    tag_212:\n      shl(0xc8, 0x53696c7665725f)\n        /* \"#utility.yul\":2383:2386   */\n      dup2\n        /* \"#utility.yul\":2376:2398   */\n      mstore\n        /* \"#utility.yul\":2358:2361   */\n      0x00\n        /* \"#utility.yul\":2427:2433   */\n      dup3\n        /* \"#utility.yul\":2421:2434   */\n      mload\n        /* \"#utility.yul\":2443:2504   */\n      tag_345\n        /* \"#utility.yul\":2497:2503   */\n      dup2\n        /* \"#utility.yul\":2493:2494   */\n      0x07\n        /* \"#utility.yul\":2488:2491   */\n      dup6\n        /* \"#utility.yul\":2484:2495   */\n      add\n        /* \"#utility.yul\":2477:2481   */\n      0x20\n        /* \"#utility.yul\":2469:2475   */\n      dup8\n        /* \"#utility.yul\":2465:2482   */\n      add\n        /* \"#utility.yul\":2443:2504   */\n      tag_339\n      jump\t// in\n    tag_345:\n        /* \"#utility.yul\":2524:2540   */\n      swap2\n      swap1\n      swap2\n      add\n        /* \"#utility.yul\":2542:2543   */\n      0x07\n        /* \"#utility.yul\":2520:2544   */\n      add\n      swap3\n        /* \"#utility.yul\":2126:2550   */\n      swap2\n      pop\n      pop\n      jump\t// out\n        /* \"#utility.yul\":3078:3641   */\n    tag_283:\n      sub(shl(0xa0, 0x01), 0x01)\n        /* \"#utility.yul\":3377:3392   */\n      dup7\n      dup2\n      and\n        /* \"#utility.yul\":3359:3393   */\n      dup3\n      mstore\n        /* \"#utility.yul\":3429:3444   */\n      dup6\n      and\n        /* \"#utility.yul\":3424:3426   */\n      0x20\n        /* \"#utility.yul\":3409:3427   */\n      dup3\n      add\n        /* \"#utility.yul\":3402:3445   */\n      mstore\n        /* \"#utility.yul\":3476:3478   */\n      0x40\n        /* \"#utility.yul\":3461:3479   */\n      dup2\n      add\n        /* \"#utility.yul\":3454:3488   */\n      dup5\n      swap1\n      mstore\n        /* \"#utility.yul\":3519:3521   */\n      0x60\n        /* \"#utility.yul\":3504:3522   */\n      dup2\n      add\n        /* \"#utility.yul\":3497:3531   */\n      dup4\n      swap1\n      mstore\n        /* \"#utility.yul\":3339:3342   */\n      0xa0\n        /* \"#utility.yul\":3562:3565   */\n      0x80\n        /* \"#utility.yul\":3547:3566   */\n      dup3\n      add\n        /* \"#utility.yul\":3540:3572   */\n      dup2\n      swap1\n      mstore\n        /* \"#utility.yul\":3302:3306   */\n      0x00\n      swap1\n        /* \"#utility.yul\":3589:3635   */\n      tag_349\n      swap1\n        /* \"#utility.yul\":3615:3634   */\n      dup4\n      add\n        /* \"#utility.yul\":3607:3613   */\n      dup5\n        /* \"#utility.yul\":3589:3635   */\n      tag_336\n      jump\t// in\n    tag_349:\n        /* \"#utility.yul\":3581:3635   */\n      swap8\n        /* \"#utility.yul\":3078:3641   */\n      swap7\n      pop\n      pop\n      pop\n      pop\n      pop\n      pop\n      pop\n      jump\t// out\n        /* \"#utility.yul\":3646:4278   */\n    tag_70:\n        /* \"#utility.yul\":3817:3819   */\n      0x20\n        /* \"#utility.yul\":3869:3890   */\n      dup1\n      dup3\n      mstore\n        /* \"#utility.yul\":3939:3952   */\n      dup3\n      mload\n        /* \"#utility.yul\":3842:3860   */\n      dup3\n      dup3\n      add\n        /* \"#utility.yul\":3961:3983   */\n      dup2\n      swap1\n      mstore\n        /* \"#utility.yul\":3788:3792   */\n      0x00\n      swap2\n        /* \"#utility.yul\":3817:3819   */\n      swap1\n        /* \"#utility.yul\":4040:4055   */\n      dup5\n      dup3\n      add\n      swap1\n        /* \"#utility.yul\":4014:4016   */\n      0x40\n        /* \"#utility.yul\":3999:4017   */\n      dup6\n      add\n      swap1\n        /* \"#utility.yul\":3788:3792   */\n      dup5\n        /* \"#utility.yul\":4083:4252   */\n    tag_351:\n        /* \"#utility.yul\":4097:4103   */\n      dup2\n        /* \"#utility.yul\":4094:4095   */\n      dup2\n        /* \"#utility.yul\":4091:4104   */\n      lt\n        /* \"#utility.yul\":4083:4252   */\n      iszero\n      tag_353\n      jumpi\n        /* \"#utility.yul\":4158:4171   */\n      dup4\n      mload\n        /* \"#utility.yul\":4146:4172   */\n      dup4\n      mstore\n        /* \"#utility.yul\":4227:4242   */\n      swap3\n      dup5\n      add\n      swap3\n        /* \"#utility.yul\":4192:4204   */\n      swap2\n      dup5\n      add\n      swap2\n        /* \"#utility.yul\":4119:4120   */\n      0x01\n        /* \"#utility.yul\":4112:4121   */\n      add\n        /* \"#utility.yul\":4083:4252   */\n      jump(tag_351)\n    tag_353:\n      pop\n        /* \"#utility.yul\":4269:4272   */\n      swap1\n      swap7\n        /* \"#utility.yul\":3646:4278   */\n      swap6\n      pop\n      pop\n      pop\n      pop\n      pop\n      pop\n      jump\t// out\n        /* \"#utility.yul\":4475:4695   */\n    tag_298:\n        /* \"#utility.yul\":4624:4626   */\n      0x20\n        /* \"#utility.yul\":4613:4622   */\n      dup2\n        /* \"#utility.yul\":4606:4627   */\n      mstore\n        /* \"#utility.yul\":4587:4591   */\n      0x00\n        /* \"#utility.yul\":4644:4689   */\n      tag_326\n        /* \"#utility.yul\":4685:4687   */\n      0x20\n        /* \"#utility.yul\":4674:4683   */\n      dup4\n        /* \"#utility.yul\":4670:4688   */\n      add\n        /* \"#utility.yul\":4662:4668   */\n      dup5\n        /* \"#utility.yul\":4644:4689   */\n      tag_336\n      jump\t// in\n        /* \"#utility.yul\":6596:6948   */\n    tag_76:\n        /* \"#utility.yul\":6798:6800   */\n      0x20\n        /* \"#utility.yul\":6780:6801   */\n      dup1\n      dup3\n      mstore\n        /* \"#utility.yul\":6837:6839   */\n      0x1c\n        /* \"#utility.yul\":6817:6835   */\n      swap1\n      dup3\n      add\n        /* \"#utility.yul\":6810:6840   */\n      mstore\n        /* \"#utility.yul\":6876:6906   */\n      0x4f6e6c79204e46542d4553204f776e65722063616e2041636365737300000000\n        /* \"#utility.yul\":6871:6873   */\n      0x40\n        /* \"#utility.yul\":6856:6874   */\n      dup3\n      add\n        /* \"#utility.yul\":6849:6907   */\n      mstore\n        /* \"#utility.yul\":6939:6941   */\n      0x60\n        /* \"#utility.yul\":6924:6942   */\n      add\n      swap1\n        /* \"#utility.yul\":6596:6948   */\n      jump\t// out\n        /* \"#utility.yul\":6953:7304   */\n    tag_103:\n        /* \"#utility.yul\":7155:7157   */\n      0x20\n        /* \"#utility.yul\":7137:7158   */\n      dup1\n      dup3\n      mstore\n        /* \"#utility.yul\":7194:7196   */\n      0x1b\n        /* \"#utility.yul\":7174:7192   */\n      swap1\n      dup3\n      add\n        /* \"#utility.yul\":7167:7197   */\n      mstore\n        /* \"#utility.yul\":7233:7262   */\n      0x44726f7073697465206973206e6f74204f70656e6564205965742e0000000000\n        /* \"#utility.yul\":7228:7230   */\n      0x40\n        /* \"#utility.yul\":7213:7231   */\n      dup3\n      add\n        /* \"#utility.yul\":7206:7263   */\n      mstore\n        /* \"#utility.yul\":7295:7297   */\n      0x60\n        /* \"#utility.yul\":7280:7298   */\n      add\n      swap1\n        /* \"#utility.yul\":6953:7304   */\n      jump\t// out\n        /* \"#utility.yul\":8605:8896   */\n    tag_38:\n        /* \"#utility.yul\":8782:8788   */\n      dup3\n        /* \"#utility.yul\":8771:8780   */\n      dup2\n        /* \"#utility.yul\":8764:8789   */\n      mstore\n        /* \"#utility.yul\":8825:8827   */\n      0x40\n        /* \"#utility.yul\":8820:8822   */\n      0x20\n        /* \"#utility.yul\":8809:8818   */\n      dup3\n        /* \"#utility.yul\":8805:8823   */\n      add\n        /* \"#utility.yul\":8798:8828   */\n      mstore\n        /* \"#utility.yul\":8745:8749   */\n      0x00\n        /* \"#utility.yul\":8845:8890   */\n      tag_263\n        /* \"#utility.yul\":8886:8888   */\n      0x40\n        /* \"#utility.yul\":8875:8884   */\n      dup4\n        /* \"#utility.yul\":8871:8889   */\n      add\n        /* \"#utility.yul\":8863:8869   */\n      dup5\n        /* \"#utility.yul\":8845:8890   */\n      tag_336\n      jump\t// in\n        /* \"#utility.yul\":9478:9606   */\n    tag_239:\n        /* \"#utility.yul\":9518:9521   */\n      0x00\n        /* \"#utility.yul\":9549:9550   */\n      dup3\n        /* \"#utility.yul\":9545:9551   */\n      not\n        /* \"#utility.yul\":9542:9543   */\n      dup3\n        /* \"#utility.yul\":9539:9552   */\n      gt\n        /* \"#utility.yul\":9536:9575   */\n      iszero\n      tag_374\n      jumpi\n        /* \"#utility.yul\":9555:9573   */\n      tag_374\n      tag_375\n      jump\t// in\n    tag_374:\n      pop\n        /* \"#utility.yul\":9591:9600   */\n      add\n      swap1\n        /* \"#utility.yul\":9478:9606   */\n      jump\t// out\n        /* \"#utility.yul\":9611:9731   */\n    tag_257:\n        /* \"#utility.yul\":9651:9652   */\n      0x00\n        /* \"#utility.yul\":9677:9678   */\n      dup3\n        /* \"#utility.yul\":9667:9702   */\n      tag_378\n      jumpi\n        /* \"#utility.yul\":9682:9700   */\n      tag_378\n      tag_379\n      jump\t// in\n    tag_378:\n      pop\n        /* \"#utility.yul\":9716:9725   */\n      div\n      swap1\n        /* \"#utility.yul\":9611:9731   */\n      jump\t// out\n        /* \"#utility.yul\":9736:9861   */\n    tag_265:\n        /* \"#utility.yul\":9776:9780   */\n      0x00\n        /* \"#utility.yul\":9804:9805   */\n      dup3\n        /* \"#utility.yul\":9801:9802   */\n      dup3\n        /* \"#utility.yul\":9798:9806   */\n      lt\n        /* \"#utility.yul\":9795:9829   */\n      iszero\n      tag_382\n      jumpi\n        /* \"#utility.yul\":9809:9827   */\n      tag_382\n      tag_375\n      jump\t// in\n    tag_382:\n      pop\n        /* \"#utility.yul\":9846:9855   */\n      sub\n      swap1\n        /* \"#utility.yul\":9736:9861   */\n      jump\t// out\n        /* \"#utility.yul\":9866:10124   */\n    tag_339:\n        /* \"#utility.yul\":9938:9939   */\n      0x00\n        /* \"#utility.yul\":9948:10061   */\n    tag_384:\n        /* \"#utility.yul\":9962:9968   */\n      dup4\n        /* \"#utility.yul\":9959:9960   */\n      dup2\n        /* \"#utility.yul\":9956:9969   */\n      lt\n        /* \"#utility.yul\":9948:10061   */\n      iszero\n      tag_386\n      jumpi\n        /* \"#utility.yul\":10038:10049   */\n      dup2\n      dup2\n      add\n        /* \"#utility.yul\":10032:10050   */\n      mload\n        /* \"#utility.yul\":10019:10030   */\n      dup4\n      dup3\n      add\n        /* \"#utility.yul\":10012:10051   */\n      mstore\n        /* \"#utility.yul\":9984:9986   */\n      0x20\n        /* \"#utility.yul\":9977:9987   */\n      add\n        /* \"#utility.yul\":9948:10061   */\n      jump(tag_384)\n    tag_386:\n        /* \"#utility.yul\":10079:10085   */\n      dup4\n        /* \"#utility.yul\":10076:10077   */\n      dup2\n        /* \"#utility.yul\":10073:10086   */\n      gt\n        /* \"#utility.yul\":10070:10118   */\n      iszero\n      tag_387\n      jumpi\n        /* \"#utility.yul\":10114:10115   */\n      0x00\n        /* \"#utility.yul\":10105:10111   */\n      dup5\n        /* \"#utility.yul\":10100:10103   */\n      dup5\n        /* \"#utility.yul\":10096:10112   */\n      add\n        /* \"#utility.yul\":10089:10116   */\n      mstore\n        /* \"#utility.yul\":10070:10118   */\n    tag_387:\n      pop\n        /* \"#utility.yul\":9866:10124   */\n      pop\n      pop\n      pop\n      jump\t// out\n        /* \"#utility.yul\":10129:10509   */\n    tag_112:\n        /* \"#utility.yul\":10208:10209   */\n      0x01\n        /* \"#utility.yul\":10204:10216   */\n      dup2\n      dup2\n      shr\n      swap1\n        /* \"#utility.yul\":10251:10263   */\n      dup3\n      and\n      dup1\n        /* \"#utility.yul\":10272:10333   */\n      tag_389\n      jumpi\n        /* \"#utility.yul\":10326:10330   */\n      0x7f\n        /* \"#utility.yul\":10318:10324   */\n      dup3\n        /* \"#utility.yul\":10314:10331   */\n      and\n        /* \"#utility.yul\":10304:10331   */\n      swap2\n      pop\n        /* \"#utility.yul\":10272:10333   */\n    tag_389:\n        /* \"#utility.yul\":10379:10381   */\n      0x20\n        /* \"#utility.yul\":10371:10377   */\n      dup3\n        /* \"#utility.yul\":10368:10382   */\n      lt\n        /* \"#utility.yul\":10348:10366   */\n      dup2\n        /* \"#utility.yul\":10345:10383   */\n      eq\n        /* \"#utility.yul\":10342:10503   */\n      iszero\n      tag_390\n      jumpi\n        /* \"#utility.yul\":10425:10435   */\n      0x4e487b71\n        /* \"#utility.yul\":10420:10423   */\n      0xe0\n        /* \"#utility.yul\":10416:10436   */\n      shl\n        /* \"#utility.yul\":10413:10414   */\n      0x00\n        /* \"#utility.yul\":10406:10437   */\n      mstore\n        /* \"#utility.yul\":10460:10464   */\n      0x22\n        /* \"#utility.yul\":10457:10458   */\n      0x04\n        /* \"#utility.yul\":10450:10465   */\n      mstore\n        /* \"#utility.yul\":10488:10492   */\n      0x24\n        /* \"#utility.yul\":10485:10486   */\n      0x00\n        /* \"#utility.yul\":10478:10493   */\n      revert\n        /* \"#utility.yul\":10342:10503   */\n    tag_390:\n      pop\n        /* \"#utility.yul\":10129:10509   */\n      swap2\n      swap1\n      pop\n      jump\t// out\n        /* \"#utility.yul\":10514:10860   */\n    tag_391:\n        /* \"#utility.yul\":10624:10626   */\n      0x1f\n        /* \"#utility.yul\":10605:10618   */\n      dup3\n      add\n      not(0x1f)\n        /* \"#utility.yul\":10601:10628   */\n      and\n        /* \"#utility.yul\":10589:10629   */\n      dup2\n      add\n        /* \"#utility.yul\":10659:10677   */\n      0xffffffffffffffff\n        /* \"#utility.yul\":10644:10678   */\n      dup2\n      gt\n        /* \"#utility.yul\":10680:10702   */\n      dup3\n      dup3\n      lt\n        /* \"#utility.yul\":10641:10703   */\n      or\n        /* \"#utility.yul\":10638:10823   */\n      iszero\n      tag_393\n      jumpi\n        /* \"#utility.yul\":10745:10755   */\n      0x4e487b71\n        /* \"#utility.yul\":10740:10743   */\n      0xe0\n        /* \"#utility.yul\":10736:10756   */\n      shl\n        /* \"#utility.yul\":10733:10734   */\n      0x00\n        /* \"#utility.yul\":10726:10757   */\n      mstore\n        /* \"#utility.yul\":10780:10784   */\n      0x41\n        /* \"#utility.yul\":10777:10778   */\n      0x04\n        /* \"#utility.yul\":10770:10785   */\n      mstore\n        /* \"#utility.yul\":10808:10812   */\n      0x24\n        /* \"#utility.yul\":10805:10806   */\n      0x00\n        /* \"#utility.yul\":10798:10813   */\n      revert\n        /* \"#utility.yul\":10638:10823   */\n    tag_393:\n        /* \"#utility.yul\":10839:10841   */\n      0x40\n        /* \"#utility.yul\":10832:10854   */\n      mstore\n      pop\n      pop\n        /* \"#utility.yul\":10514:10860   */\n      jump\t// out\n        /* \"#utility.yul\":10865:11000   */\n    tag_119:\n        /* \"#utility.yul\":10904:10907   */\n      0x00\n      not(0x00)\n        /* \"#utility.yul\":10925:10942   */\n      dup3\n      eq\n        /* \"#utility.yul\":10922:10965   */\n      iszero\n      tag_396\n      jumpi\n        /* \"#utility.yul\":10945:10963   */\n      tag_396\n      tag_375\n      jump\t// in\n    tag_396:\n      pop\n        /* \"#utility.yul\":10992:10993   */\n      0x01\n        /* \"#utility.yul\":10981:10994   */\n      add\n      swap1\n        /* \"#utility.yul\":10865:11000   */\n      jump\t// out\n        /* \"#utility.yul\":11005:11117   */\n    tag_250:\n        /* \"#utility.yul\":11037:11038   */\n      0x00\n        /* \"#utility.yul\":11063:11064   */\n      dup3\n        /* \"#utility.yul\":11053:11088   */\n      tag_399\n      jumpi\n        /* \"#utility.yul\":11068:11086   */\n      tag_399\n      tag_379\n      jump\t// in\n    tag_399:\n      pop\n        /* \"#utility.yul\":11102:11111   */\n      mod\n      swap1\n        /* \"#utility.yul\":11005:11117   */\n      jump\t// out\n        /* \"#utility.yul\":11122:11249   */\n    tag_375:\n        /* \"#utility.yul\":11183:11193   */\n      0x4e487b71\n        /* \"#utility.yul\":11178:11181   */\n      0xe0\n        /* \"#utility.yul\":11174:11194   */\n      shl\n        /* \"#utility.yul\":11171:11172   */\n      0x00\n        /* \"#utility.yul\":11164:11195   */\n      mstore\n        /* \"#utility.yul\":11214:11218   */\n      0x11\n        /* \"#utility.yul\":11211:11212   */\n      0x04\n        /* \"#utility.yul\":11204:11219   */\n      mstore\n        /* \"#utility.yul\":11238:11242   */\n      0x24\n        /* \"#utility.yul\":11235:11236   */\n      0x00\n        /* \"#utility.yul\":11228:11243   */\n      revert\n        /* \"#utility.yul\":11254:11381   */\n    tag_379:\n        /* \"#utility.yul\":11315:11325   */\n      0x4e487b71\n        /* \"#utility.yul\":11310:11313   */\n      0xe0\n        /* \"#utility.yul\":11306:11326   */\n      shl\n        /* \"#utility.yul\":11303:11304   */\n      0x00\n        /* \"#utility.yul\":11296:11327   */\n      mstore\n        /* \"#utility.yul\":11346:11350   */\n      0x12\n        /* \"#utility.yul\":11343:11344   */\n      0x04\n        /* \"#utility.yul\":11336:11351   */\n      mstore\n        /* \"#utility.yul\":11370:11374   */\n      0x24\n        /* \"#utility.yul\":11367:11368   */\n      0x00\n        /* \"#utility.yul\":11360:11375   */\n      revert\n        /* \"#utility.yul\":11386:11513   */\n    tag_187:\n        /* \"#utility.yul\":11447:11457   */\n      0x4e487b71\n        /* \"#utility.yul\":11442:11445   */\n      0xe0\n        /* \"#utility.yul\":11438:11458   */\n      shl\n        /* \"#utility.yul\":11435:11436   */\n      0x00\n        /* \"#utility.yul\":11428:11459   */\n      mstore\n        /* \"#utility.yul\":11478:11482   */\n      0x32\n        /* \"#utility.yul\":11475:11476   */\n      0x04\n        /* \"#utility.yul\":11468:11483   */\n      mstore\n        /* \"#utility.yul\":11502:11506   */\n      0x24\n        /* \"#utility.yul\":11499:11500   */\n      0x00\n        /* \"#utility.yul\":11492:11507   */\n      revert\n        /* \"#utility.yul\":11518:11645   */\n    tag_260:\n        /* \"#utility.yul\":11579:11589   */\n      0x4e487b71\n        /* \"#utility.yul\":11574:11577   */\n      0xe0\n        /* \"#utility.yul\":11570:11590   */\n      shl\n        /* \"#utility.yul\":11567:11568   */\n      0x00\n        /* \"#utility.yul\":11560:11591   */\n      mstore\n        /* \"#utility.yul\":11610:11614   */\n      0x41\n        /* \"#utility.yul\":11607:11608   */\n      0x04\n        /* \"#utility.yul\":11600:11615   */\n      mstore\n        /* \"#utility.yul\":11634:11638   */\n      0x24\n        /* \"#utility.yul\":11631:11632   */\n      0x00\n        /* \"#utility.yul\":11624:11639   */\n      revert\n        /* \"#utility.yul\":11650:11829   */\n    tag_293:\n        /* \"#utility.yul\":11685:11688   */\n      0x00\n        /* \"#utility.yul\":11727:11728   */\n      0x03\n        /* \"#utility.yul\":11709:11725   */\n      returndatasize\n        /* \"#utility.yul\":11706:11729   */\n      gt\n        /* \"#utility.yul\":11703:11823   */\n      iszero\n      tag_77\n      jumpi\n        /* \"#utility.yul\":11773:11774   */\n      0x04\n        /* \"#utility.yul\":11770:11771   */\n      0x00\n        /* \"#utility.yul\":11767:11768   */\n      dup1\n        /* \"#utility.yul\":11752:11775   */\n      returndatacopy\n      pop\n        /* \"#utility.yul\":11810:11811   */\n      0x00\n        /* \"#utility.yul\":11804:11812   */\n      mload\n        /* \"#utility.yul\":11799:11802   */\n      0xe0\n        /* \"#utility.yul\":11795:11813   */\n      shr\n        /* \"#utility.yul\":11650:11829   */\n      swap1\n      jump\t// out\n        /* \"#utility.yul\":11834:12505   */\n    tag_295:\n        /* \"#utility.yul\":11873:11876   */\n      0x00\n        /* \"#utility.yul\":11915:11919   */\n      0x44\n        /* \"#utility.yul\":11897:11913   */\n      returndatasize\n        /* \"#utility.yul\":11894:11920   */\n      lt\n        /* \"#utility.yul\":11891:11930   */\n      iszero\n      tag_407\n      jumpi\n        /* \"#utility.yul\":11834:12505   */\n      swap1\n      jump\t// out\n        /* \"#utility.yul\":11891:11930   */\n    tag_407:\n        /* \"#utility.yul\":11957:11959   */\n      0x40\n        /* \"#utility.yul\":11951:11960   */\n      mload\n      not(0x03)\n        /* \"#utility.yul\":12022:12038   */\n      returndatasize\n        /* \"#utility.yul\":12018:12043   */\n      dup2\n      add\n        /* \"#utility.yul\":12015:12016   */\n      0x04\n        /* \"#utility.yul\":11951:11960   */\n      dup4\n        /* \"#utility.yul\":11994:12044   */\n      returndatacopy\n        /* \"#utility.yul\":12073:12077   */\n      dup2\n        /* \"#utility.yul\":12067:12078   */\n      mload\n        /* \"#utility.yul\":12097:12113   */\n      returndatasize\n        /* \"#utility.yul\":12132:12150   */\n      0xffffffffffffffff\n        /* \"#utility.yul\":12203:12205   */\n      dup2\n        /* \"#utility.yul\":12196:12200   */\n      0x24\n        /* \"#utility.yul\":12188:12194   */\n      dup5\n        /* \"#utility.yul\":12184:12201   */\n      add\n        /* \"#utility.yul\":12181:12206   */\n      gt\n        /* \"#utility.yul\":12176:12178   */\n      dup2\n        /* \"#utility.yul\":12168:12174   */\n      dup5\n        /* \"#utility.yul\":12165:12179   */\n      gt\n        /* \"#utility.yul\":12162:12207   */\n      or\n        /* \"#utility.yul\":12159:12217   */\n      iszero\n      tag_408\n      jumpi\n        /* \"#utility.yul\":12210:12215   */\n      pop\n      pop\n      pop\n      pop\n      pop\n        /* \"#utility.yul\":11834:12505   */\n      swap1\n      jump\t// out\n        /* \"#utility.yul\":12159:12217   */\n    tag_408:\n        /* \"#utility.yul\":12247:12253   */\n      dup3\n        /* \"#utility.yul\":12241:12245   */\n      dup6\n        /* \"#utility.yul\":12237:12254   */\n      add\n        /* \"#utility.yul\":12226:12254   */\n      swap2\n      pop\n        /* \"#utility.yul\":12283:12286   */\n      dup2\n        /* \"#utility.yul\":12277:12287   */\n      mload\n        /* \"#utility.yul\":12310:12312   */\n      dup2\n        /* \"#utility.yul\":12302:12308   */\n      dup2\n        /* \"#utility.yul\":12299:12313   */\n      gt\n        /* \"#utility.yul\":12296:12323   */\n      iszero\n      tag_409\n      jumpi\n        /* \"#utility.yul\":12316:12321   */\n      pop\n      pop\n      pop\n      pop\n      pop\n      pop\n        /* \"#utility.yul\":11834:12505   */\n      swap1\n      jump\t// out\n        /* \"#utility.yul\":12296:12323   */\n    tag_409:\n        /* \"#utility.yul\":12400:12402   */\n      dup5\n        /* \"#utility.yul\":12381:12397   */\n      returndatasize\n        /* \"#utility.yul\":12375:12379   */\n      dup8\n        /* \"#utility.yul\":12371:12398   */\n      add\n        /* \"#utility.yul\":12367:12403   */\n      add\n        /* \"#utility.yul\":12360:12364   */\n      0x20\n        /* \"#utility.yul\":12351:12357   */\n      dup3\n        /* \"#utility.yul\":12346:12349   */\n      dup6\n        /* \"#utility.yul\":12342:12358   */\n      add\n        /* \"#utility.yul\":12338:12365   */\n      add\n        /* \"#utility.yul\":12335:12404   */\n      gt\n        /* \"#utility.yul\":12332:12414   */\n      iszero\n      tag_410\n      jumpi\n        /* \"#utility.yul\":12407:12412   */\n      pop\n      pop\n      pop\n      pop\n      pop\n      pop\n        /* \"#utility.yul\":11834:12505   */\n      swap1\n      jump\t// out\n        /* \"#utility.yul\":12332:12414   */\n    tag_410:\n        /* \"#utility.yul\":12423:12480   */\n      tag_411\n        /* \"#utility.yul\":12474:12478   */\n      0x20\n        /* \"#utility.yul\":12465:12471   */\n      dup3\n        /* \"#utility.yul\":12457:12463   */\n      dup7\n        /* \"#utility.yul\":12453:12472   */\n      add\n        /* \"#utility.yul\":12449:12479   */\n      add\n        /* \"#utility.yul\":12443:12447   */\n      dup8\n        /* \"#utility.yul\":12423:12480   */\n      tag_391\n      jump\t// in\n    tag_411:\n      pop\n        /* \"#utility.yul\":12496:12499   */\n      swap1\n      swap6\n        /* \"#utility.yul\":11834:12505   */\n      swap5\n      pop\n      pop\n      pop\n      pop\n      pop\n      jump\t// out\n        /* \"#utility.yul\":12510:12641   */\n    tag_327:\n      sub(shl(0xa0, 0x01), 0x01)\n        /* \"#utility.yul\":12585:12616   */\n      dup2\n      and\n        /* \"#utility.yul\":12575:12617   */\n      dup2\n      eq\n        /* \"#utility.yul\":12565:12635   */\n      tag_172\n      jumpi\n        /* \"#utility.yul\":12631:12632   */\n      0x00\n        /* \"#utility.yul\":12628:12629   */\n      dup1\n        /* \"#utility.yul\":12621:12633   */\n      revert\n\n    auxdata: 0xa2646970667358221220c39cd2221f70ade53148c8b2b7d89cb9a6c4b29bbbed44a41c13ec84afa2e3fb64736f6c63430008070033\n}\n",
				"bytecode": {
					"linkReferences": {},
					"object": "60a06040819052600060808190526200001b9160029162000159565b50604080516102808101825260008152600160208201819052918101919091526002606082018190526080820181905260a0820181905260c0820181905260e08201819052610100820181905261012082018190526101408201819052610160820181905261018082018190526101a082018190526101c082018190526101e08201819052610200820181905261022082018190526102408201819052610260820152620000ce906003906014620001e8565b50600c805460ff19166001179055348015620000e957600080fd5b50604051620018f3380380620018f38339810160408190526200010c916200028f565b80516200012190600d90602084019062000159565b5050600c8054610100600160a81b031916336101000217905560006004819055600160055560078190556008819055600955620003be565b82805462000167906200036b565b90600052602060002090601f0160209004810192826200018b5760008555620001d6565b82601f10620001a657805160ff1916838001178555620001d6565b82800160010185558215620001d6579182015b82811115620001d6578251825591602001919060010190620001b9565b50620001e492915062000278565b5090565b600183019183908215620001d65791602002820160005b838211156200023f57835183826101000a81548160ff021916908360ff1602179055509260200192600101602081600001049283019260010302620001ff565b80156200026e5782816101000a81549060ff02191690556001016020816000010492830192600103026200023f565b5050620001e49291505b5b80821115620001e4576000815560010162000279565b60006020808385031215620002a357600080fd5b82516001600160401b0380821115620002bb57600080fd5b818501915085601f830112620002d057600080fd5b815181811115620002e557620002e5620003a8565b604051601f8201601f19908116603f01168101908382118183101715620003105762000310620003a8565b8160405282815288868487010111156200032957600080fd5b600093505b828410156200034d57848401860151818501870152928501926200032e565b828411156200035f5760008684830101525b98975050505050505050565b600181811c908216806200038057607f821691505b60208210811415620003a257634e487b7160e01b600052602260045260246000fd5b50919050565b634e487b7160e01b600052604160045260246000fd5b61152580620003ce6000396000f3fe6080604052600436106100a75760003560e01c80633d65df70116100645780633d65df701461016b57806360daa8511461017e578063aa90c726146101ae578063b4a99a4e146101c3578063eddd0d9c14610200578063fd6c3b1b1461022057600080fd5b80630390c11c146100ac5780630a67d2c7146100d45780631309a563146100e9578063154602591461011357806332b61b4c146101285780633b66805914610156575b600080fd5b3480156100b857600080fd5b506100c161024d565b6040519081526020015b60405180910390f35b6100e76100e2366004611083565b610299565b005b3480156100f557600080fd5b50600c546101039060ff1681565b60405190151581526020016100cb565b34801561011f57600080fd5b506100e761035a565b34801561013457600080fd5b50610148610143366004611083565b6103f5565b6040516100cb9291906112ac565b34801561016257600080fd5b506100c1610625565b610148610179366004611083565b610665565b34801561018a57600080fd5b50610193610760565b604080519384526020840192909252908201526060016100cb565b3480156101ba57600080fd5b506100e76107b1565b3480156101cf57600080fd5b50600c546101e89061010090046001600160a01b031681565b6040516001600160a01b0390911681526020016100cb565b34801561020c57600080fd5b506100e761021b3660046110d1565b61084b565b34801561022c57600080fd5b5061024061023b366004611083565b610886565b6040516100cb91906111e7565b600c5460009061010090046001600160a01b0316336001600160a01b0316146102915760405162461bcd60e51b81526004016102889061123e565b60405180910390fd5b506004545b90565b600c5461010090046001600160a01b0316336001600160a01b0316146102d15760405162461bcd60e51b81526004016102889061123e565b478061031f5760405162461bcd60e51b815260206004820152601d60248201527f4572726f7221204e6f2042616c616e636520746f2077697468647261770000006044820152606401610288565b6040516001600160a01b0383169082156108fc029083906000818181858888f19350505050158015610355573d6000803e3d6000fd5b505050565b600c5461010090046001600160a01b0316336001600160a01b0316146103925760405162461bcd60e51b81526004016102889061123e565b600c5460ff1615156001146103e95760405162461bcd60e51b815260206004820152601b60248201527f44726f707369746520697320616c72656164792052756e6e696e6700000000006044820152606401610288565b600c805460ff19169055565b600c5460009060609061010090046001600160a01b0316336001600160a01b0316146104335760405162461bcd60e51b81526004016102889061123e565b600c5460ff16156104565760405162461bcd60e51b815260040161028890611275565b6103e8600454106104a55760405162461bcd60e51b815260206004820152601960248201527813585e08135a5b9d1a5b99c8131a5b5a5d081c995858da1959603a1b6044820152606401610288565b60006104af6108f2565b90506105498482600554600280546104c690611338565b80601f01602080910402602001604051908101604052809291908181526020018280546104f290611338565b801561053f5780601f106105145761010080835404028352916020019161053f565b820191906000526020600020905b81548152906001019060200180831161052257829003601f168201915b5050505050610ac3565b60048054906000610559836113ae565b90915550506001600160a01b0384166000908152600a602090815260408220805460018101825590835291200181905560028054829190819061059b90611338565b80601f01602080910402602001604051908101604052809291908181526020018280546105c790611338565b80156106145780601f106105e957610100808354040283529160200191610614565b820191906000526020600020905b8154815290600101906020018083116105f757829003601f168201915b505050505090509250925050915091565b600c5460009061010090046001600160a01b0316336001600160a01b0316146106605760405162461bcd60e51b81526004016102889061123e565b504790565b600c5460009060609060ff161561068e5760405162461bcd60e51b815260040161028890611275565b6103e8600454106106dd5760405162461bcd60e51b815260206004820152601960248201527813585e08135a5b9d1a5b99c8131a5b5a5d081c995858da1959603a1b6044820152606401610288565b3468015af1d78b58c40000146107355760405162461bcd60e51b815260206004820152601960248201527f42616c616e6365206d757374206265203235204d6174696373000000000000006044820152606401610288565b600061073f6108f2565b90506107568482600554600280546104c690611338565b6105493334610bd4565b600c546000908190819061010090046001600160a01b0316336001600160a01b03161461079f5760405162461bcd60e51b81526004016102889061123e565b50506007546008546009549193909250565b600c5461010090046001600160a01b0316336001600160a01b0316146107e95760405162461bcd60e51b81526004016102889061123e565b600c5460ff161561083c5760405162461bcd60e51b815260206004820152601b60248201527f44726f707369746520697320616c72656164792053746f7070656400000000006044820152606401610288565b600c805460ff19166001179055565b600c5461010090046001600160a01b0316336001600160a01b0316146108835760405162461bcd60e51b81526004016102889061123e565b50565b6001600160a01b0381166000908152600a60209081526040918290208054835181840281018401909452808452606093928301828280156108e657602002820191906000526020600020905b8154815260200190600101908083116108d2575b50505050509050919050565b600c5460009060ff16156109185760405162461bcd60e51b815260040161028890611275565b6000610922610c05565b905060006003826014811061093957610939611409565b602081049091015460ff601f9092166101000a90041690508015801561096157506032600754105b156109c45760078054906000610976836113ae565b9190505550610986600754610c61565b6040516020016109969190611116565b604051602081830303815290604052600290805190602001906109ba929190610f6f565b5091506102969050565b600181111580156109d757506064600854105b15610a0c57600880549060006109ec836113ae565b91905055506109fc600854610c61565b6040516020016109969190611146565b60028111158015610a21575061035260095411155b15610a935760098054906000610a36836113ae565b9190505550610a46600954610c61565b604051602001610a569190611173565b60405160208183030381529060405260029080519060200190610a7a929190610f6f565b6002908054610a8890611338565b6109ba929190610ff3565b60646008541015610ab157506008805460019160006109ec836113ae565b506007805460009182610976836113ae565b6001600160a01b038416610b235760405162461bcd60e51b815260206004820152602160248201527f455243313135353a206d696e7420746f20746865207a65726f206164647265736044820152607360f81b6064820152608401610288565b33610b4481600087610b3488610d67565b610b3d88610d67565b5050505050565b6000848152602081815260408083206001600160a01b038916845290915281208054859290610b749084906112c5565b909155505060408051858152602081018590526001600160a01b0380881692600092918516917fc3d58168c5ae7397731d063d5bbf3d657854427343f4c083240f7aacaa2d0f62910160405180910390a4610b3d81600087878787610dba565b6001600160a01b0382166000908152600b602052604081208054839290610bfc9084906112c5565b90915550505050565b60008060144233604051602001610c3892919091825260601b6bffffffffffffffffffffffff1916602082015260340190565b6040516020818303038152906040528051906020012060001c610c5b91906113c9565b92915050565b606081610c855750506040805180820190915260018152600360fc1b602082015290565b8160005b8115610caf5780610c99816113ae565b9150610ca89050600a836112dd565b9150610c89565b60008167ffffffffffffffff811115610cca57610cca61141f565b6040519080825280601f01601f191660200182016040528015610cf4576020820181803683370190505b5090505b8415610d5f57610d096001836112f1565b9150610d16600a866113c9565b610d219060306112c5565b60f81b818381518110610d3657610d36611409565b60200101906001600160f81b031916908160001a905350610d58600a866112dd565b9450610cf8565b949350505050565b60408051600180825281830190925260609160009190602080830190803683370190505090508281600081518110610da157610da1611409565b602090810291909101015292915050565b505050505050565b6001600160a01b0384163b15610db2576040516315d1344960e31b81526001600160a01b0385169063ae89a24890610dfe90899089908890889088906004016111a2565b602060405180830381600087803b158015610e1857600080fd5b505af1925050508015610e48575060408051601f3d908101601f19168201909252610e45918101906110a7565b60015b610ef557610e54611435565b806308c379a01415610e8e5750610e69611450565b80610e745750610e90565b8060405162461bcd60e51b8152600401610288919061122b565b505b60405162461bcd60e51b815260206004820152603460248201527f455243313135353a207472616e7366657220746f206e6f6e20455243313135356044820152732932b1b2b4bb32b91034b6b83632b6b2b73a32b960611b6064820152608401610288565b6001600160e01b031981166315d1344960e31b14610f665760405162461bcd60e51b815260206004820152602860248201527f455243313135353a204552433131353552656365697665722072656a656374656044820152676420746f6b656e7360c01b6064820152608401610288565b50505050505050565b828054610f7b90611338565b90600052602060002090601f016020900481019282610f9d5760008555610fe3565b82601f10610fb657805160ff1916838001178555610fe3565b82800160010185558215610fe3579182015b82811115610fe3578251825591602001919060010190610fc8565b50610fef92915061106e565b5090565b828054610fff90611338565b90600052602060002090601f0160209004810192826110215760008555610fe3565b82601f106110325780548555610fe3565b82800160010185558215610fe357600052602060002091601f016020900482015b82811115610fe3578254825591600101919060010190611053565b5b80821115610fef576000815560010161106f565b60006020828403121561109557600080fd5b81356110a0816114da565b9392505050565b6000602082840312156110b957600080fd5b81516001600160e01b0319811681146110a057600080fd5b6000602082840312156110e357600080fd5b5035919050565b60008151808452611102816020860160208601611308565b601f01601f19169290920160200192915050565b674469616d6f6e645f60c01b815260008251611139816008850160208701611308565b9190910160080192915050565b64476f6c645f60d81b815260008251611166816005850160208701611308565b9190910160050192915050565b6653696c7665725f60c81b815260008251611195816007850160208701611308565b9190910160070192915050565b6001600160a01b03868116825285166020820152604081018490526060810183905260a0608082018190526000906111dc908301846110ea565b979650505050505050565b6020808252825182820181905260009190848201906040850190845b8181101561121f57835183529284019291840191600101611203565b50909695505050505050565b6020815260006110a060208301846110ea565b6020808252601c908201527f4f6e6c79204e46542d4553204f776e65722063616e2041636365737300000000604082015260600190565b6020808252601b908201527f44726f7073697465206973206e6f74204f70656e6564205965742e0000000000604082015260600190565b828152604060208201526000610d5f60408301846110ea565b600082198211156112d8576112d86113dd565b500190565b6000826112ec576112ec6113f3565b500490565b600082821015611303576113036113dd565b500390565b60005b8381101561132357818101518382015260200161130b565b83811115611332576000848401525b50505050565b600181811c9082168061134c57607f821691505b6020821081141561136d57634e487b7160e01b600052602260045260246000fd5b50919050565b601f8201601f1916810167ffffffffffffffff811182821017156113a757634e487b7160e01b600052604160045260246000fd5b6040525050565b60006000198214156113c2576113c26113dd565b5060010190565b6000826113d8576113d86113f3565b500690565b634e487b7160e01b600052601160045260246000fd5b634e487b7160e01b600052601260045260246000fd5b634e487b7160e01b600052603260045260246000fd5b634e487b7160e01b600052604160045260246000fd5b600060033d11156102965760046000803e5060005160e01c90565b600060443d101561145e5790565b6040516003193d81016004833e81513d67ffffffffffffffff816024840111818411171561148e57505050505090565b82850191508151818111156114a65750505050505090565b843d87010160208285010111156114c05750505050505090565b6114cf60208286010187611373565b509095945050505050565b6001600160a01b038116811461088357600080fdfea2646970667358221220c39cd2221f70ade53148c8b2b7d89cb9a6c4b29bbbed44a41c13ec84afa2e3fb64736f6c63430008070033",
					"opcodes": "PUSH1 0xA0 PUSH1 0x40 DUP2 SWAP1 MSTORE PUSH1 0x0 PUSH1 0x80 DUP2 SWAP1 MSTORE PUSH3 0x1B SWAP2 PUSH1 0x2 SWAP2 PUSH3 0x159 JUMP JUMPDEST POP PUSH1 0x40 DUP1 MLOAD PUSH2 0x280 DUP2 ADD DUP3 MSTORE PUSH1 0x0 DUP2 MSTORE PUSH1 0x1 PUSH1 0x20 DUP3 ADD DUP2 SWAP1 MSTORE SWAP2 DUP2 ADD SWAP2 SWAP1 SWAP2 MSTORE PUSH1 0x2 PUSH1 0x60 DUP3 ADD DUP2 SWAP1 MSTORE PUSH1 0x80 DUP3 ADD DUP2 SWAP1 MSTORE PUSH1 0xA0 DUP3 ADD DUP2 SWAP1 MSTORE PUSH1 0xC0 DUP3 ADD DUP2 SWAP1 MSTORE PUSH1 0xE0 DUP3 ADD DUP2 SWAP1 MSTORE PUSH2 0x100 DUP3 ADD DUP2 SWAP1 MSTORE PUSH2 0x120 DUP3 ADD DUP2 SWAP1 MSTORE PUSH2 0x140 DUP3 ADD DUP2 SWAP1 MSTORE PUSH2 0x160 DUP3 ADD DUP2 SWAP1 MSTORE PUSH2 0x180 DUP3 ADD DUP2 SWAP1 MSTORE PUSH2 0x1A0 DUP3 ADD DUP2 SWAP1 MSTORE PUSH2 0x1C0 DUP3 ADD DUP2 SWAP1 MSTORE PUSH2 0x1E0 DUP3 ADD DUP2 SWAP1 MSTORE PUSH2 0x200 DUP3 ADD DUP2 SWAP1 MSTORE PUSH2 0x220 DUP3 ADD DUP2 SWAP1 MSTORE PUSH2 0x240 DUP3 ADD DUP2 SWAP1 MSTORE PUSH2 0x260 DUP3 ADD MSTORE PUSH3 0xCE SWAP1 PUSH1 0x3 SWAP1 PUSH1 0x14 PUSH3 0x1E8 JUMP JUMPDEST POP PUSH1 0xC DUP1 SLOAD PUSH1 0xFF NOT AND PUSH1 0x1 OR SWAP1 SSTORE CALLVALUE DUP1 ISZERO PUSH3 0xE9 JUMPI PUSH1 0x0 DUP1 REVERT JUMPDEST POP PUSH1 0x40 MLOAD PUSH3 0x18F3 CODESIZE SUB DUP1 PUSH3 0x18F3 DUP4 CODECOPY DUP2 ADD PUSH1 0x40 DUP2 SWAP1 MSTORE PUSH3 0x10C SWAP2 PUSH3 0x28F JUMP JUMPDEST DUP1 MLOAD PUSH3 0x121 SWAP1 PUSH1 0xD SWAP1 PUSH1 0x20 DUP5 ADD SWAP1 PUSH3 0x159 JUMP JUMPDEST POP POP PUSH1 0xC DUP1 SLOAD PUSH2 0x100 PUSH1 0x1 PUSH1 0xA8 SHL SUB NOT AND CALLER PUSH2 0x100 MUL OR SWAP1 SSTORE PUSH1 0x0 PUSH1 0x4 DUP2 SWAP1 SSTORE PUSH1 0x1 PUSH1 0x5 SSTORE PUSH1 0x7 DUP2 SWAP1 SSTORE PUSH1 0x8 DUP2 SWAP1 SSTORE PUSH1 0x9 SSTORE PUSH3 0x3BE JUMP JUMPDEST DUP3 DUP1 SLOAD PUSH3 0x167 SWAP1 PUSH3 0x36B JUMP JUMPDEST SWAP1 PUSH1 0x0 MSTORE PUSH1 0x20 PUSH1 0x0 KECCAK256 SWAP1 PUSH1 0x1F ADD PUSH1 0x20 SWAP1 DIV DUP2 ADD SWAP3 DUP3 PUSH3 0x18B JUMPI PUSH1 0x0 DUP6 SSTORE PUSH3 0x1D6 JUMP JUMPDEST DUP3 PUSH1 0x1F LT PUSH3 0x1A6 JUMPI DUP1 MLOAD PUSH1 0xFF NOT AND DUP4 DUP1 ADD OR DUP6 SSTORE PUSH3 0x1D6 JUMP JUMPDEST DUP3 DUP1 ADD PUSH1 0x1 ADD DUP6 SSTORE DUP3 ISZERO PUSH3 0x1D6 JUMPI SWAP2 DUP3 ADD JUMPDEST DUP3 DUP2 GT ISZERO PUSH3 0x1D6 JUMPI DUP3 MLOAD DUP3 SSTORE SWAP2 PUSH1 0x20 ADD SWAP2 SWAP1 PUSH1 0x1 ADD SWAP1 PUSH3 0x1B9 JUMP JUMPDEST POP PUSH3 0x1E4 SWAP3 SWAP2 POP PUSH3 0x278 JUMP JUMPDEST POP SWAP1 JUMP JUMPDEST PUSH1 0x1 DUP4 ADD SWAP2 DUP4 SWAP1 DUP3 ISZERO PUSH3 0x1D6 JUMPI SWAP2 PUSH1 0x20 MUL DUP3 ADD PUSH1 0x0 JUMPDEST DUP4 DUP3 GT ISZERO PUSH3 0x23F JUMPI DUP4 MLOAD DUP4 DUP3 PUSH2 0x100 EXP DUP2 SLOAD DUP2 PUSH1 0xFF MUL NOT AND SWAP1 DUP4 PUSH1 0xFF AND MUL OR SWAP1 SSTORE POP SWAP3 PUSH1 0x20 ADD SWAP3 PUSH1 0x1 ADD PUSH1 0x20 DUP2 PUSH1 0x0 ADD DIV SWAP3 DUP4 ADD SWAP3 PUSH1 0x1 SUB MUL PUSH3 0x1FF JUMP JUMPDEST DUP1 ISZERO PUSH3 0x26E JUMPI DUP3 DUP2 PUSH2 0x100 EXP DUP2 SLOAD SWAP1 PUSH1 0xFF MUL NOT AND SWAP1 SSTORE PUSH1 0x1 ADD PUSH1 0x20 DUP2 PUSH1 0x0 ADD DIV SWAP3 DUP4 ADD SWAP3 PUSH1 0x1 SUB MUL PUSH3 0x23F JUMP JUMPDEST POP POP PUSH3 0x1E4 SWAP3 SWAP2 POP JUMPDEST JUMPDEST DUP1 DUP3 GT ISZERO PUSH3 0x1E4 JUMPI PUSH1 0x0 DUP2 SSTORE PUSH1 0x1 ADD PUSH3 0x279 JUMP JUMPDEST PUSH1 0x0 PUSH1 0x20 DUP1 DUP4 DUP6 SUB SLT ISZERO PUSH3 0x2A3 JUMPI PUSH1 0x0 DUP1 REVERT JUMPDEST DUP3 MLOAD PUSH1 0x1 PUSH1 0x1 PUSH1 0x40 SHL SUB DUP1 DUP3 GT ISZERO PUSH3 0x2BB JUMPI PUSH1 0x0 DUP1 REVERT JUMPDEST DUP2 DUP6 ADD SWAP2 POP DUP6 PUSH1 0x1F DUP4 ADD SLT PUSH3 0x2D0 JUMPI PUSH1 0x0 DUP1 REVERT JUMPDEST DUP2 MLOAD DUP2 DUP2 GT ISZERO PUSH3 0x2E5 JUMPI PUSH3 0x2E5 PUSH3 0x3A8 JUMP JUMPDEST PUSH1 0x40 MLOAD PUSH1 0x1F DUP3 ADD PUSH1 0x1F NOT SWAP1 DUP2 AND PUSH1 0x3F ADD AND DUP2 ADD SWAP1 DUP4 DUP3 GT DUP2 DUP4 LT OR ISZERO PUSH3 0x310 JUMPI PUSH3 0x310 PUSH3 0x3A8 JUMP JUMPDEST DUP2 PUSH1 0x40 MSTORE DUP3 DUP2 MSTORE DUP9 DUP7 DUP5 DUP8 ADD ADD GT ISZERO PUSH3 0x329 JUMPI PUSH1 0x0 DUP1 REVERT JUMPDEST PUSH1 0x0 SWAP4 POP JUMPDEST DUP3 DUP5 LT ISZERO PUSH3 0x34D JUMPI DUP5 DUP5 ADD DUP7 ADD MLOAD DUP2 DUP6 ADD DUP8 ADD MSTORE SWAP3 DUP6 ADD SWAP3 PUSH3 0x32E JUMP JUMPDEST DUP3 DUP5 GT ISZERO PUSH3 0x35F JUMPI PUSH1 0x0 DUP7 DUP5 DUP4 ADD ADD MSTORE JUMPDEST SWAP9 SWAP8 POP POP POP POP POP POP POP POP JUMP JUMPDEST PUSH1 0x1 DUP2 DUP2 SHR SWAP1 DUP3 AND DUP1 PUSH3 0x380 JUMPI PUSH1 0x7F DUP3 AND SWAP2 POP JUMPDEST PUSH1 0x20 DUP3 LT DUP2 EQ ISZERO PUSH3 0x3A2 JUMPI PUSH4 0x4E487B71 PUSH1 0xE0 SHL PUSH1 0x0 MSTORE PUSH1 0x22 PUSH1 0x4 MSTORE PUSH1 0x24 PUSH1 0x0 REVERT JUMPDEST POP SWAP2 SWAP1 POP JUMP JUMPDEST PUSH4 0x4E487B71 PUSH1 0xE0 SHL PUSH1 0x0 MSTORE PUSH1 0x41 PUSH1 0x4 MSTORE PUSH1 0x24 PUSH1 0x0 REVERT JUMPDEST PUSH2 0x1525 DUP1 PUSH3 0x3CE PUSH1 0x0 CODECOPY PUSH1 0x0 RETURN INVALID PUSH1 0x80 PUSH1 0x40 MSTORE PUSH1 0x4 CALLDATASIZE LT PUSH2 0xA7 JUMPI PUSH1 0x0 CALLDATALOAD PUSH1 0xE0 SHR DUP1 PUSH4 0x3D65DF70 GT PUSH2 0x64 JUMPI DUP1 PUSH4 0x3D65DF70 EQ PUSH2 0x16B JUMPI DUP1 PUSH4 0x60DAA851 EQ PUSH2 0x17E JUMPI DUP1 PUSH4 0xAA90C726 EQ PUSH2 0x1AE JUMPI DUP1 PUSH4 0xB4A99A4E EQ PUSH2 0x1C3 JUMPI DUP1 PUSH4 0xEDDD0D9C EQ PUSH2 0x200 JUMPI DUP1 PUSH4 0xFD6C3B1B EQ PUSH2 0x220 JUMPI PUSH1 0x0 DUP1 REVERT JUMPDEST DUP1 PUSH4 0x390C11C EQ PUSH2 0xAC JUMPI DUP1 PUSH4 0xA67D2C7 EQ PUSH2 0xD4 JUMPI DUP1 PUSH4 0x1309A563 EQ PUSH2 0xE9 JUMPI DUP1 PUSH4 0x15460259 EQ PUSH2 0x113 JUMPI DUP1 PUSH4 0x32B61B4C EQ PUSH2 0x128 JUMPI DUP1 PUSH4 0x3B668059 EQ PUSH2 0x156 JUMPI JUMPDEST PUSH1 0x0 DUP1 REVERT JUMPDEST CALLVALUE DUP1 ISZERO PUSH2 0xB8 JUMPI PUSH1 0x0 DUP1 REVERT JUMPDEST POP PUSH2 0xC1 PUSH2 0x24D JUMP JUMPDEST PUSH1 0x40 MLOAD SWAP1 DUP2 MSTORE PUSH1 0x20 ADD JUMPDEST PUSH1 0x40 MLOAD DUP1 SWAP2 SUB SWAP1 RETURN JUMPDEST PUSH2 0xE7 PUSH2 0xE2 CALLDATASIZE PUSH1 0x4 PUSH2 0x1083 JUMP JUMPDEST PUSH2 0x299 JUMP JUMPDEST STOP JUMPDEST CALLVALUE DUP1 ISZERO PUSH2 0xF5 JUMPI PUSH1 0x0 DUP1 REVERT JUMPDEST POP PUSH1 0xC SLOAD PUSH2 0x103 SWAP1 PUSH1 0xFF AND DUP2 JUMP JUMPDEST PUSH1 0x40 MLOAD SWAP1 ISZERO ISZERO DUP2 MSTORE PUSH1 0x20 ADD PUSH2 0xCB JUMP JUMPDEST CALLVALUE DUP1 ISZERO PUSH2 0x11F JUMPI PUSH1 0x0 DUP1 REVERT JUMPDEST POP PUSH2 0xE7 PUSH2 0x35A JUMP JUMPDEST CALLVALUE DUP1 ISZERO PUSH2 0x134 JUMPI PUSH1 0x0 DUP1 REVERT JUMPDEST POP PUSH2 0x148 PUSH2 0x143 CALLDATASIZE PUSH1 0x4 PUSH2 0x1083 JUMP JUMPDEST PUSH2 0x3F5 JUMP JUMPDEST PUSH1 0x40 MLOAD PUSH2 0xCB SWAP3 SWAP2 SWAP1 PUSH2 0x12AC JUMP JUMPDEST CALLVALUE DUP1 ISZERO PUSH2 0x162 JUMPI PUSH1 0x0 DUP1 REVERT JUMPDEST POP PUSH2 0xC1 PUSH2 0x625 JUMP JUMPDEST PUSH2 0x148 PUSH2 0x179 CALLDATASIZE PUSH1 0x4 PUSH2 0x1083 JUMP JUMPDEST PUSH2 0x665 JUMP JUMPDEST CALLVALUE DUP1 ISZERO PUSH2 0x18A JUMPI PUSH1 0x0 DUP1 REVERT JUMPDEST POP PUSH2 0x193 PUSH2 0x760 JUMP JUMPDEST PUSH1 0x40 DUP1 MLOAD SWAP4 DUP5 MSTORE PUSH1 0x20 DUP5 ADD SWAP3 SWAP1 SWAP3 MSTORE SWAP1 DUP3 ADD MSTORE PUSH1 0x60 ADD PUSH2 0xCB JUMP JUMPDEST CALLVALUE DUP1 ISZERO PUSH2 0x1BA JUMPI PUSH1 0x0 DUP1 REVERT JUMPDEST POP PUSH2 0xE7 PUSH2 0x7B1 JUMP JUMPDEST CALLVALUE DUP1 ISZERO PUSH2 0x1CF JUMPI PUSH1 0x0 DUP1 REVERT JUMPDEST POP PUSH1 0xC SLOAD PUSH2 0x1E8 SWAP1 PUSH2 0x100 SWAP1 DIV PUSH1 0x1 PUSH1 0x1 PUSH1 0xA0 SHL SUB AND DUP2 JUMP JUMPDEST PUSH1 0x40 MLOAD PUSH1 0x1 PUSH1 0x1 PUSH1 0xA0 SHL SUB SWAP1 SWAP2 AND DUP2 MSTORE PUSH1 0x20 ADD PUSH2 0xCB JUMP JUMPDEST CALLVALUE DUP1 ISZERO PUSH2 0x20C JUMPI PUSH1 0x0 DUP1 REVERT JUMPDEST POP PUSH2 0xE7 PUSH2 0x21B CALLDATASIZE PUSH1 0x4 PUSH2 0x10D1 JUMP JUMPDEST PUSH2 0x84B JUMP JUMPDEST CALLVALUE DUP1 ISZERO PUSH2 0x22C JUMPI PUSH1 0x0 DUP1 REVERT JUMPDEST POP PUSH2 0x240 PUSH2 0x23B CALLDATASIZE PUSH1 0x4 PUSH2 0x1083 JUMP JUMPDEST PUSH2 0x886 JUMP JUMPDEST PUSH1 0x40 MLOAD PUSH2 0xCB SWAP2 SWAP1 PUSH2 0x11E7 JUMP JUMPDEST PUSH1 0xC SLOAD PUSH1 0x0 SWAP1 PUSH2 0x100 SWAP1 DIV PUSH1 0x1 PUSH1 0x1 PUSH1 0xA0 SHL SUB AND CALLER PUSH1 0x1 PUSH1 0x1 PUSH1 0xA0 SHL SUB AND EQ PUSH2 0x291 JUMPI PUSH1 0x40 MLOAD PUSH3 0x461BCD PUSH1 0xE5 SHL DUP2 MSTORE PUSH1 0x4 ADD PUSH2 0x288 SWAP1 PUSH2 0x123E JUMP JUMPDEST PUSH1 0x40 MLOAD DUP1 SWAP2 SUB SWAP1 REVERT JUMPDEST POP PUSH1 0x4 SLOAD JUMPDEST SWAP1 JUMP JUMPDEST PUSH1 0xC SLOAD PUSH2 0x100 SWAP1 DIV PUSH1 0x1 PUSH1 0x1 PUSH1 0xA0 SHL SUB AND CALLER PUSH1 0x1 PUSH1 0x1 PUSH1 0xA0 SHL SUB AND EQ PUSH2 0x2D1 JUMPI PUSH1 0x40 MLOAD PUSH3 0x461BCD PUSH1 0xE5 SHL DUP2 MSTORE PUSH1 0x4 ADD PUSH2 0x288 SWAP1 PUSH2 0x123E JUMP JUMPDEST SELFBALANCE DUP1 PUSH2 0x31F JUMPI PUSH1 0x40 MLOAD PUSH3 0x461BCD PUSH1 0xE5 SHL DUP2 MSTORE PUSH1 0x20 PUSH1 0x4 DUP3 ADD MSTORE PUSH1 0x1D PUSH1 0x24 DUP3 ADD MSTORE PUSH32 0x4572726F7221204E6F2042616C616E636520746F207769746864726177000000 PUSH1 0x44 DUP3 ADD MSTORE PUSH1 0x64 ADD PUSH2 0x288 JUMP JUMPDEST PUSH1 0x40 MLOAD PUSH1 0x1 PUSH1 0x1 PUSH1 0xA0 SHL SUB DUP4 AND SWAP1 DUP3 ISZERO PUSH2 0x8FC MUL SWAP1 DUP4 SWAP1 PUSH1 0x0 DUP2 DUP2 DUP2 DUP6 DUP9 DUP9 CALL SWAP4 POP POP POP POP ISZERO DUP1 ISZERO PUSH2 0x355 JUMPI RETURNDATASIZE PUSH1 0x0 DUP1 RETURNDATACOPY RETURNDATASIZE PUSH1 0x0 REVERT JUMPDEST POP POP POP JUMP JUMPDEST PUSH1 0xC SLOAD PUSH2 0x100 SWAP1 DIV PUSH1 0x1 PUSH1 0x1 PUSH1 0xA0 SHL SUB AND CALLER PUSH1 0x1 PUSH1 0x1 PUSH1 0xA0 SHL SUB AND EQ PUSH2 0x392 JUMPI PUSH1 0x40 MLOAD PUSH3 0x461BCD PUSH1 0xE5 SHL DUP2 MSTORE PUSH1 0x4 ADD PUSH2 0x288 SWAP1 PUSH2 0x123E JUMP JUMPDEST PUSH1 0xC SLOAD PUSH1 0xFF AND ISZERO ISZERO PUSH1 0x1 EQ PUSH2 0x3E9 JUMPI PUSH1 0x40 MLOAD PUSH3 0x461BCD PUSH1 0xE5 SHL DUP2 MSTORE PUSH1 0x20 PUSH1 0x4 DUP3 ADD MSTORE PUSH1 0x1B PUSH1 0x24 DUP3 ADD MSTORE PUSH32 0x44726F707369746520697320616C72656164792052756E6E696E670000000000 PUSH1 0x44 DUP3 ADD MSTORE PUSH1 0x64 ADD PUSH2 0x288 JUMP JUMPDEST PUSH1 0xC DUP1 SLOAD PUSH1 0xFF NOT AND SWAP1 SSTORE JUMP JUMPDEST PUSH1 0xC SLOAD PUSH1 0x0 SWAP1 PUSH1 0x60 SWAP1 PUSH2 0x100 SWAP1 DIV PUSH1 0x1 PUSH1 0x1 PUSH1 0xA0 SHL SUB AND CALLER PUSH1 0x1 PUSH1 0x1 PUSH1 0xA0 SHL SUB AND EQ PUSH2 0x433 JUMPI PUSH1 0x40 MLOAD PUSH3 0x461BCD PUSH1 0xE5 SHL DUP2 MSTORE PUSH1 0x4 ADD PUSH2 0x288 SWAP1 PUSH2 0x123E JUMP JUMPDEST PUSH1 0xC SLOAD PUSH1 0xFF AND ISZERO PUSH2 0x456 JUMPI PUSH1 0x40 MLOAD PUSH3 0x461BCD PUSH1 0xE5 SHL DUP2 MSTORE PUSH1 0x4 ADD PUSH2 0x288 SWAP1 PUSH2 0x1275 JUMP JUMPDEST PUSH2 0x3E8 PUSH1 0x4 SLOAD LT PUSH2 0x4A5 JUMPI PUSH1 0x40 MLOAD PUSH3 0x461BCD PUSH1 0xE5 SHL DUP2 MSTORE PUSH1 0x20 PUSH1 0x4 DUP3 ADD MSTORE PUSH1 0x19 PUSH1 0x24 DUP3 ADD MSTORE PUSH25 0x13585E08135A5B9D1A5B99C8131A5B5A5D081C995858DA1959 PUSH1 0x3A SHL PUSH1 0x44 DUP3 ADD MSTORE PUSH1 0x64 ADD PUSH2 0x288 JUMP JUMPDEST PUSH1 0x0 PUSH2 0x4AF PUSH2 0x8F2 JUMP JUMPDEST SWAP1 POP PUSH2 0x549 DUP5 DUP3 PUSH1 0x5 SLOAD PUSH1 0x2 DUP1 SLOAD PUSH2 0x4C6 SWAP1 PUSH2 0x1338 JUMP JUMPDEST DUP1 PUSH1 0x1F ADD PUSH1 0x20 DUP1 SWAP2 DIV MUL PUSH1 0x20 ADD PUSH1 0x40 MLOAD SWAP1 DUP2 ADD PUSH1 0x40 MSTORE DUP1 SWAP3 SWAP2 SWAP1 DUP2 DUP2 MSTORE PUSH1 0x20 ADD DUP3 DUP1 SLOAD PUSH2 0x4F2 SWAP1 PUSH2 0x1338 JUMP JUMPDEST DUP1 ISZERO PUSH2 0x53F JUMPI DUP1 PUSH1 0x1F LT PUSH2 0x514 JUMPI PUSH2 0x100 DUP1 DUP4 SLOAD DIV MUL DUP4 MSTORE SWAP2 PUSH1 0x20 ADD SWAP2 PUSH2 0x53F JUMP JUMPDEST DUP3 ADD SWAP2 SWAP1 PUSH1 0x0 MSTORE PUSH1 0x20 PUSH1 0x0 KECCAK256 SWAP1 JUMPDEST DUP2 SLOAD DUP2 MSTORE SWAP1 PUSH1 0x1 ADD SWAP1 PUSH1 0x20 ADD DUP1 DUP4 GT PUSH2 0x522 JUMPI DUP3 SWAP1 SUB PUSH1 0x1F AND DUP3 ADD SWAP2 JUMPDEST POP POP POP POP POP PUSH2 0xAC3 JUMP JUMPDEST PUSH1 0x4 DUP1 SLOAD SWAP1 PUSH1 0x0 PUSH2 0x559 DUP4 PUSH2 0x13AE JUMP JUMPDEST SWAP1 SWAP2 SSTORE POP POP PUSH1 0x1 PUSH1 0x1 PUSH1 0xA0 SHL SUB DUP5 AND PUSH1 0x0 SWAP1 DUP2 MSTORE PUSH1 0xA PUSH1 0x20 SWAP1 DUP2 MSTORE PUSH1 0x40 DUP3 KECCAK256 DUP1 SLOAD PUSH1 0x1 DUP2 ADD DUP3 SSTORE SWAP1 DUP4 MSTORE SWAP2 KECCAK256 ADD DUP2 SWAP1 SSTORE PUSH1 0x2 DUP1 SLOAD DUP3 SWAP2 SWAP1 DUP2 SWAP1 PUSH2 0x59B SWAP1 PUSH2 0x1338 JUMP JUMPDEST DUP1 PUSH1 0x1F ADD PUSH1 0x20 DUP1 SWAP2 DIV MUL PUSH1 0x20 ADD PUSH1 0x40 MLOAD SWAP1 DUP2 ADD PUSH1 0x40 MSTORE DUP1 SWAP3 SWAP2 SWAP1 DUP2 DUP2 MSTORE PUSH1 0x20 ADD DUP3 DUP1 SLOAD PUSH2 0x5C7 SWAP1 PUSH2 0x1338 JUMP JUMPDEST DUP1 ISZERO PUSH2 0x614 JUMPI DUP1 PUSH1 0x1F LT PUSH2 0x5E9 JUMPI PUSH2 0x100 DUP1 DUP4 SLOAD DIV MUL DUP4 MSTORE SWAP2 PUSH1 0x20 ADD SWAP2 PUSH2 0x614 JUMP JUMPDEST DUP3 ADD SWAP2 SWAP1 PUSH1 0x0 MSTORE PUSH1 0x20 PUSH1 0x0 KECCAK256 SWAP1 JUMPDEST DUP2 SLOAD DUP2 MSTORE SWAP1 PUSH1 0x1 ADD SWAP1 PUSH1 0x20 ADD DUP1 DUP4 GT PUSH2 0x5F7 JUMPI DUP3 SWAP1 SUB PUSH1 0x1F AND DUP3 ADD SWAP2 JUMPDEST POP POP POP POP POP SWAP1 POP SWAP3 POP SWAP3 POP POP SWAP2 POP SWAP2 JUMP JUMPDEST PUSH1 0xC SLOAD PUSH1 0x0 SWAP1 PUSH2 0x100 SWAP1 DIV PUSH1 0x1 PUSH1 0x1 PUSH1 0xA0 SHL SUB AND CALLER PUSH1 0x1 PUSH1 0x1 PUSH1 0xA0 SHL SUB AND EQ PUSH2 0x660 JUMPI PUSH1 0x40 MLOAD PUSH3 0x461BCD PUSH1 0xE5 SHL DUP2 MSTORE PUSH1 0x4 ADD PUSH2 0x288 SWAP1 PUSH2 0x123E JUMP JUMPDEST POP SELFBALANCE SWAP1 JUMP JUMPDEST PUSH1 0xC SLOAD PUSH1 0x0 SWAP1 PUSH1 0x60 SWAP1 PUSH1 0xFF AND ISZERO PUSH2 0x68E JUMPI PUSH1 0x40 MLOAD PUSH3 0x461BCD PUSH1 0xE5 SHL DUP2 MSTORE PUSH1 0x4 ADD PUSH2 0x288 SWAP1 PUSH2 0x1275 JUMP JUMPDEST PUSH2 0x3E8 PUSH1 0x4 SLOAD LT PUSH2 0x6DD JUMPI PUSH1 0x40 MLOAD PUSH3 0x461BCD PUSH1 0xE5 SHL DUP2 MSTORE PUSH1 0x20 PUSH1 0x4 DUP3 ADD MSTORE PUSH1 0x19 PUSH1 0x24 DUP3 ADD MSTORE PUSH25 0x13585E08135A5B9D1A5B99C8131A5B5A5D081C995858DA1959 PUSH1 0x3A SHL PUSH1 0x44 DUP3 ADD MSTORE PUSH1 0x64 ADD PUSH2 0x288 JUMP JUMPDEST CALLVALUE PUSH9 0x15AF1D78B58C40000 EQ PUSH2 0x735 JUMPI PUSH1 0x40 MLOAD PUSH3 0x461BCD PUSH1 0xE5 SHL DUP2 MSTORE PUSH1 0x20 PUSH1 0x4 DUP3 ADD MSTORE PUSH1 0x19 PUSH1 0x24 DUP3 ADD MSTORE PUSH32 0x42616C616E6365206D757374206265203235204D617469637300000000000000 PUSH1 0x44 DUP3 ADD MSTORE PUSH1 0x64 ADD PUSH2 0x288 JUMP JUMPDEST PUSH1 0x0 PUSH2 0x73F PUSH2 0x8F2 JUMP JUMPDEST SWAP1 POP PUSH2 0x756 DUP5 DUP3 PUSH1 0x5 SLOAD PUSH1 0x2 DUP1 SLOAD PUSH2 0x4C6 SWAP1 PUSH2 0x1338 JUMP JUMPDEST PUSH2 0x549 CALLER CALLVALUE PUSH2 0xBD4 JUMP JUMPDEST PUSH1 0xC SLOAD PUSH1 0x0 SWAP1 DUP2 SWAP1 DUP2 SWAP1 PUSH2 0x100 SWAP1 DIV PUSH1 0x1 PUSH1 0x1 PUSH1 0xA0 SHL SUB AND CALLER PUSH1 0x1 PUSH1 0x1 PUSH1 0xA0 SHL SUB AND EQ PUSH2 0x79F JUMPI PUSH1 0x40 MLOAD PUSH3 0x461BCD PUSH1 0xE5 SHL DUP2 MSTORE PUSH1 0x4 ADD PUSH2 0x288 SWAP1 PUSH2 0x123E JUMP JUMPDEST POP POP PUSH1 0x7 SLOAD PUSH1 0x8 SLOAD PUSH1 0x9 SLOAD SWAP2 SWAP4 SWAP1 SWAP3 POP JUMP JUMPDEST PUSH1 0xC SLOAD PUSH2 0x100 SWAP1 DIV PUSH1 0x1 PUSH1 0x1 PUSH1 0xA0 SHL SUB AND CALLER PUSH1 0x1 PUSH1 0x1 PUSH1 0xA0 SHL SUB AND EQ PUSH2 0x7E9 JUMPI PUSH1 0x40 MLOAD PUSH3 0x461BCD PUSH1 0xE5 SHL DUP2 MSTORE PUSH1 0x4 ADD PUSH2 0x288 SWAP1 PUSH2 0x123E JUMP JUMPDEST PUSH1 0xC SLOAD PUSH1 0xFF AND ISZERO PUSH2 0x83C JUMPI PUSH1 0x40 MLOAD PUSH3 0x461BCD PUSH1 0xE5 SHL DUP2 MSTORE PUSH1 0x20 PUSH1 0x4 DUP3 ADD MSTORE PUSH1 0x1B PUSH1 0x24 DUP3 ADD MSTORE PUSH32 0x44726F707369746520697320616C72656164792053746F707065640000000000 PUSH1 0x44 DUP3 ADD MSTORE PUSH1 0x64 ADD PUSH2 0x288 JUMP JUMPDEST PUSH1 0xC DUP1 SLOAD PUSH1 0xFF NOT AND PUSH1 0x1 OR SWAP1 SSTORE JUMP JUMPDEST PUSH1 0xC SLOAD PUSH2 0x100 SWAP1 DIV PUSH1 0x1 PUSH1 0x1 PUSH1 0xA0 SHL SUB AND CALLER PUSH1 0x1 PUSH1 0x1 PUSH1 0xA0 SHL SUB AND EQ PUSH2 0x883 JUMPI PUSH1 0x40 MLOAD PUSH3 0x461BCD PUSH1 0xE5 SHL DUP2 MSTORE PUSH1 0x4 ADD PUSH2 0x288 SWAP1 PUSH2 0x123E JUMP JUMPDEST POP JUMP JUMPDEST PUSH1 0x1 PUSH1 0x1 PUSH1 0xA0 SHL SUB DUP2 AND PUSH1 0x0 SWAP1 DUP2 MSTORE PUSH1 0xA PUSH1 0x20 SWAP1 DUP2 MSTORE PUSH1 0x40 SWAP2 DUP3 SWAP1 KECCAK256 DUP1 SLOAD DUP4 MLOAD DUP2 DUP5 MUL DUP2 ADD DUP5 ADD SWAP1 SWAP5 MSTORE DUP1 DUP5 MSTORE PUSH1 0x60 SWAP4 SWAP3 DUP4 ADD DUP3 DUP3 DUP1 ISZERO PUSH2 0x8E6 JUMPI PUSH1 0x20 MUL DUP3 ADD SWAP2 SWAP1 PUSH1 0x0 MSTORE PUSH1 0x20 PUSH1 0x0 KECCAK256 SWAP1 JUMPDEST DUP2 SLOAD DUP2 MSTORE PUSH1 0x20 ADD SWAP1 PUSH1 0x1 ADD SWAP1 DUP1 DUP4 GT PUSH2 0x8D2 JUMPI JUMPDEST POP POP POP POP POP SWAP1 POP SWAP2 SWAP1 POP JUMP JUMPDEST PUSH1 0xC SLOAD PUSH1 0x0 SWAP1 PUSH1 0xFF AND ISZERO PUSH2 0x918 JUMPI PUSH1 0x40 MLOAD PUSH3 0x461BCD PUSH1 0xE5 SHL DUP2 MSTORE PUSH1 0x4 ADD PUSH2 0x288 SWAP1 PUSH2 0x1275 JUMP JUMPDEST PUSH1 0x0 PUSH2 0x922 PUSH2 0xC05 JUMP JUMPDEST SWAP1 POP PUSH1 0x0 PUSH1 0x3 DUP3 PUSH1 0x14 DUP2 LT PUSH2 0x939 JUMPI PUSH2 0x939 PUSH2 0x1409 JUMP JUMPDEST PUSH1 0x20 DUP2 DIV SWAP1 SWAP2 ADD SLOAD PUSH1 0xFF PUSH1 0x1F SWAP1 SWAP3 AND PUSH2 0x100 EXP SWAP1 DIV AND SWAP1 POP DUP1 ISZERO DUP1 ISZERO PUSH2 0x961 JUMPI POP PUSH1 0x32 PUSH1 0x7 SLOAD LT JUMPDEST ISZERO PUSH2 0x9C4 JUMPI PUSH1 0x7 DUP1 SLOAD SWAP1 PUSH1 0x0 PUSH2 0x976 DUP4 PUSH2 0x13AE JUMP JUMPDEST SWAP2 SWAP1 POP SSTORE POP PUSH2 0x986 PUSH1 0x7 SLOAD PUSH2 0xC61 JUMP JUMPDEST PUSH1 0x40 MLOAD PUSH1 0x20 ADD PUSH2 0x996 SWAP2 SWAP1 PUSH2 0x1116 JUMP JUMPDEST PUSH1 0x40 MLOAD PUSH1 0x20 DUP2 DUP4 SUB SUB DUP2 MSTORE SWAP1 PUSH1 0x40 MSTORE PUSH1 0x2 SWAP1 DUP1 MLOAD SWAP1 PUSH1 0x20 ADD SWAP1 PUSH2 0x9BA SWAP3 SWAP2 SWAP1 PUSH2 0xF6F JUMP JUMPDEST POP SWAP2 POP PUSH2 0x296 SWAP1 POP JUMP JUMPDEST PUSH1 0x1 DUP2 GT ISZERO DUP1 ISZERO PUSH2 0x9D7 JUMPI POP PUSH1 0x64 PUSH1 0x8 SLOAD LT JUMPDEST ISZERO PUSH2 0xA0C JUMPI PUSH1 0x8 DUP1 SLOAD SWAP1 PUSH1 0x0 PUSH2 0x9EC DUP4 PUSH2 0x13AE JUMP JUMPDEST SWAP2 SWAP1 POP SSTORE POP PUSH2 0x9FC PUSH1 0x8 SLOAD PUSH2 0xC61 JUMP JUMPDEST PUSH1 0x40 MLOAD PUSH1 0x20 ADD PUSH2 0x996 SWAP2 SWAP1 PUSH2 0x1146 JUMP JUMPDEST PUSH1 0x2 DUP2 GT ISZERO DUP1 ISZERO PUSH2 0xA21 JUMPI POP PUSH2 0x352 PUSH1 0x9 SLOAD GT ISZERO JUMPDEST ISZERO PUSH2 0xA93 JUMPI PUSH1 0x9 DUP1 SLOAD SWAP1 PUSH1 0x0 PUSH2 0xA36 DUP4 PUSH2 0x13AE JUMP JUMPDEST SWAP2 SWAP1 POP SSTORE POP PUSH2 0xA46 PUSH1 0x9 SLOAD PUSH2 0xC61 JUMP JUMPDEST PUSH1 0x40 MLOAD PUSH1 0x20 ADD PUSH2 0xA56 SWAP2 SWAP1 PUSH2 0x1173 JUMP JUMPDEST PUSH1 0x40 MLOAD PUSH1 0x20 DUP2 DUP4 SUB SUB DUP2 MSTORE SWAP1 PUSH1 0x40 MSTORE PUSH1 0x2 SWAP1 DUP1 MLOAD SWAP1 PUSH1 0x20 ADD SWAP1 PUSH2 0xA7A SWAP3 SWAP2 SWAP1 PUSH2 0xF6F JUMP JUMPDEST PUSH1 0x2 SWAP1 DUP1 SLOAD PUSH2 0xA88 SWAP1 PUSH2 0x1338 JUMP JUMPDEST PUSH2 0x9BA SWAP3 SWAP2 SWAP1 PUSH2 0xFF3 JUMP JUMPDEST PUSH1 0x64 PUSH1 0x8 SLOAD LT ISZERO PUSH2 0xAB1 JUMPI POP PUSH1 0x8 DUP1 SLOAD PUSH1 0x1 SWAP2 PUSH1 0x0 PUSH2 0x9EC DUP4 PUSH2 0x13AE JUMP JUMPDEST POP PUSH1 0x7 DUP1 SLOAD PUSH1 0x0 SWAP2 DUP3 PUSH2 0x976 DUP4 PUSH2 0x13AE JUMP JUMPDEST PUSH1 0x1 PUSH1 0x1 PUSH1 0xA0 SHL SUB DUP5 AND PUSH2 0xB23 JUMPI PUSH1 0x40 MLOAD PUSH3 0x461BCD PUSH1 0xE5 SHL DUP2 MSTORE PUSH1 0x20 PUSH1 0x4 DUP3 ADD MSTORE PUSH1 0x21 PUSH1 0x24 DUP3 ADD MSTORE PUSH32 0x455243313135353A206D696E7420746F20746865207A65726F20616464726573 PUSH1 0x44 DUP3 ADD MSTORE PUSH1 0x73 PUSH1 0xF8 SHL PUSH1 0x64 DUP3 ADD MSTORE PUSH1 0x84 ADD PUSH2 0x288 JUMP JUMPDEST CALLER PUSH2 0xB44 DUP2 PUSH1 0x0 DUP8 PUSH2 0xB34 DUP9 PUSH2 0xD67 JUMP JUMPDEST PUSH2 0xB3D DUP9 PUSH2 0xD67 JUMP JUMPDEST POP POP POP POP POP JUMP JUMPDEST PUSH1 0x0 DUP5 DUP2 MSTORE PUSH1 0x20 DUP2 DUP2 MSTORE PUSH1 0x40 DUP1 DUP4 KECCAK256 PUSH1 0x1 PUSH1 0x1 PUSH1 0xA0 SHL SUB DUP10 AND DUP5 MSTORE SWAP1 SWAP2 MSTORE DUP2 KECCAK256 DUP1 SLOAD DUP6 SWAP3 SWAP1 PUSH2 0xB74 SWAP1 DUP5 SWAP1 PUSH2 0x12C5 JUMP JUMPDEST SWAP1 SWAP2 SSTORE POP POP PUSH1 0x40 DUP1 MLOAD DUP6 DUP2 MSTORE PUSH1 0x20 DUP2 ADD DUP6 SWAP1 MSTORE PUSH1 0x1 PUSH1 0x1 PUSH1 0xA0 SHL SUB DUP1 DUP9 AND SWAP3 PUSH1 0x0 SWAP3 SWAP2 DUP6 AND SWAP2 PUSH32 0xC3D58168C5AE7397731D063D5BBF3D657854427343F4C083240F7AACAA2D0F62 SWAP2 ADD PUSH1 0x40 MLOAD DUP1 SWAP2 SUB SWAP1 LOG4 PUSH2 0xB3D DUP2 PUSH1 0x0 DUP8 DUP8 DUP8 DUP8 PUSH2 0xDBA JUMP JUMPDEST PUSH1 0x1 PUSH1 0x1 PUSH1 0xA0 SHL SUB DUP3 AND PUSH1 0x0 SWAP1 DUP2 MSTORE PUSH1 0xB PUSH1 0x20 MSTORE PUSH1 0x40 DUP2 KECCAK256 DUP1 SLOAD DUP4 SWAP3 SWAP1 PUSH2 0xBFC SWAP1 DUP5 SWAP1 PUSH2 0x12C5 JUMP JUMPDEST SWAP1 SWAP2 SSTORE POP POP POP POP JUMP JUMPDEST PUSH1 0x0 DUP1 PUSH1 0x14 TIMESTAMP CALLER PUSH1 0x40 MLOAD PUSH1 0x20 ADD PUSH2 0xC38 SWAP3 SWAP2 SWAP1 SWAP2 DUP3 MSTORE PUSH1 0x60 SHL PUSH12 0xFFFFFFFFFFFFFFFFFFFFFFFF NOT AND PUSH1 0x20 DUP3 ADD MSTORE PUSH1 0x34 ADD SWAP1 JUMP JUMPDEST PUSH1 0x40 MLOAD PUSH1 0x20 DUP2 DUP4 SUB SUB DUP2 MSTORE SWAP1 PUSH1 0x40 MSTORE DUP1 MLOAD SWAP1 PUSH1 0x20 ADD KECCAK256 PUSH1 0x0 SHR PUSH2 0xC5B SWAP2 SWAP1 PUSH2 0x13C9 JUMP JUMPDEST SWAP3 SWAP2 POP POP JUMP JUMPDEST PUSH1 0x60 DUP2 PUSH2 0xC85 JUMPI POP POP PUSH1 0x40 DUP1 MLOAD DUP1 DUP3 ADD SWAP1 SWAP2 MSTORE PUSH1 0x1 DUP2 MSTORE PUSH1 0x3 PUSH1 0xFC SHL PUSH1 0x20 DUP3 ADD MSTORE SWAP1 JUMP JUMPDEST DUP2 PUSH1 0x0 JUMPDEST DUP2 ISZERO PUSH2 0xCAF JUMPI DUP1 PUSH2 0xC99 DUP2 PUSH2 0x13AE JUMP JUMPDEST SWAP2 POP PUSH2 0xCA8 SWAP1 POP PUSH1 0xA DUP4 PUSH2 0x12DD JUMP JUMPDEST SWAP2 POP PUSH2 0xC89 JUMP JUMPDEST PUSH1 0x0 DUP2 PUSH8 0xFFFFFFFFFFFFFFFF DUP2 GT ISZERO PUSH2 0xCCA JUMPI PUSH2 0xCCA PUSH2 0x141F JUMP JUMPDEST PUSH1 0x40 MLOAD SWAP1 DUP1 DUP3 MSTORE DUP1 PUSH1 0x1F ADD PUSH1 0x1F NOT AND PUSH1 0x20 ADD DUP3 ADD PUSH1 0x40 MSTORE DUP1 ISZERO PUSH2 0xCF4 JUMPI PUSH1 0x20 DUP3 ADD DUP2 DUP1 CALLDATASIZE DUP4 CALLDATACOPY ADD SWAP1 POP JUMPDEST POP SWAP1 POP JUMPDEST DUP5 ISZERO PUSH2 0xD5F JUMPI PUSH2 0xD09 PUSH1 0x1 DUP4 PUSH2 0x12F1 JUMP JUMPDEST SWAP2 POP PUSH2 0xD16 PUSH1 0xA DUP7 PUSH2 0x13C9 JUMP JUMPDEST PUSH2 0xD21 SWAP1 PUSH1 0x30 PUSH2 0x12C5 JUMP JUMPDEST PUSH1 0xF8 SHL DUP2 DUP4 DUP2 MLOAD DUP2 LT PUSH2 0xD36 JUMPI PUSH2 0xD36 PUSH2 0x1409 JUMP JUMPDEST PUSH1 0x20 ADD ADD SWAP1 PUSH1 0x1 PUSH1 0x1 PUSH1 0xF8 SHL SUB NOT AND SWAP1 DUP2 PUSH1 0x0 BYTE SWAP1 MSTORE8 POP PUSH2 0xD58 PUSH1 0xA DUP7 PUSH2 0x12DD JUMP JUMPDEST SWAP5 POP PUSH2 0xCF8 JUMP JUMPDEST SWAP5 SWAP4 POP POP POP POP JUMP JUMPDEST PUSH1 0x40 DUP1 MLOAD PUSH1 0x1 DUP1 DUP3 MSTORE DUP2 DUP4 ADD SWAP1 SWAP3 MSTORE PUSH1 0x60 SWAP2 PUSH1 0x0 SWAP2 SWAP1 PUSH1 0x20 DUP1 DUP4 ADD SWAP1 DUP1 CALLDATASIZE DUP4 CALLDATACOPY ADD SWAP1 POP POP SWAP1 POP DUP3 DUP2 PUSH1 0x0 DUP2 MLOAD DUP2 LT PUSH2 0xDA1 JUMPI PUSH2 0xDA1 PUSH2 0x1409 JUMP JUMPDEST PUSH1 0x20 SWAP1 DUP2 MUL SWAP2 SWAP1 SWAP2 ADD ADD MSTORE SWAP3 SWAP2 POP POP JUMP JUMPDEST POP POP POP POP POP POP JUMP JUMPDEST PUSH1 0x1 PUSH1 0x1 PUSH1 0xA0 SHL SUB DUP5 AND EXTCODESIZE ISZERO PUSH2 0xDB2 JUMPI PUSH1 0x40 MLOAD PUSH4 0x15D13449 PUSH1 0xE3 SHL DUP2 MSTORE PUSH1 0x1 PUSH1 0x1 PUSH1 0xA0 SHL SUB DUP6 AND SWAP1 PUSH4 0xAE89A248 SWAP1 PUSH2 0xDFE SWAP1 DUP10 SWAP1 DUP10 SWAP1 DUP9 SWAP1 DUP9 SWAP1 DUP9 SWAP1 PUSH1 0x4 ADD PUSH2 0x11A2 JUMP JUMPDEST PUSH1 0x20 PUSH1 0x40 MLOAD DUP1 DUP4 SUB DUP2 PUSH1 0x0 DUP8 DUP1 EXTCODESIZE ISZERO DUP1 ISZERO PUSH2 0xE18 JUMPI PUSH1 0x0 DUP1 REVERT JUMPDEST POP GAS CALL SWAP3 POP POP POP DUP1 ISZERO PUSH2 0xE48 JUMPI POP PUSH1 0x40 DUP1 MLOAD PUSH1 0x1F RETURNDATASIZE SWAP1 DUP2 ADD PUSH1 0x1F NOT AND DUP3 ADD SWAP1 SWAP3 MSTORE PUSH2 0xE45 SWAP2 DUP2 ADD SWAP1 PUSH2 0x10A7 JUMP JUMPDEST PUSH1 0x1 JUMPDEST PUSH2 0xEF5 JUMPI PUSH2 0xE54 PUSH2 0x1435 JUMP JUMPDEST DUP1 PUSH4 0x8C379A0 EQ ISZERO PUSH2 0xE8E JUMPI POP PUSH2 0xE69 PUSH2 0x1450 JUMP JUMPDEST DUP1 PUSH2 0xE74 JUMPI POP PUSH2 0xE90 JUMP JUMPDEST DUP1 PUSH1 0x40 MLOAD PUSH3 0x461BCD PUSH1 0xE5 SHL DUP2 MSTORE PUSH1 0x4 ADD PUSH2 0x288 SWAP2 SWAP1 PUSH2 0x122B JUMP JUMPDEST POP JUMPDEST PUSH1 0x40 MLOAD PUSH3 0x461BCD PUSH1 0xE5 SHL DUP2 MSTORE PUSH1 0x20 PUSH1 0x4 DUP3 ADD MSTORE PUSH1 0x34 PUSH1 0x24 DUP3 ADD MSTORE PUSH32 0x455243313135353A207472616E7366657220746F206E6F6E2045524331313535 PUSH1 0x44 DUP3 ADD MSTORE PUSH20 0x2932B1B2B4BB32B91034B6B83632B6B2B73A32B9 PUSH1 0x61 SHL PUSH1 0x64 DUP3 ADD MSTORE PUSH1 0x84 ADD PUSH2 0x288 JUMP JUMPDEST PUSH1 0x1 PUSH1 0x1 PUSH1 0xE0 SHL SUB NOT DUP2 AND PUSH4 0x15D13449 PUSH1 0xE3 SHL EQ PUSH2 0xF66 JUMPI PUSH1 0x40 MLOAD PUSH3 0x461BCD PUSH1 0xE5 SHL DUP2 MSTORE PUSH1 0x20 PUSH1 0x4 DUP3 ADD MSTORE PUSH1 0x28 PUSH1 0x24 DUP3 ADD MSTORE PUSH32 0x455243313135353A204552433131353552656365697665722072656A65637465 PUSH1 0x44 DUP3 ADD MSTORE PUSH8 0x6420746F6B656E73 PUSH1 0xC0 SHL PUSH1 0x64 DUP3 ADD MSTORE PUSH1 0x84 ADD PUSH2 0x288 JUMP JUMPDEST POP POP POP POP POP POP POP JUMP JUMPDEST DUP3 DUP1 SLOAD PUSH2 0xF7B SWAP1 PUSH2 0x1338 JUMP JUMPDEST SWAP1 PUSH1 0x0 MSTORE PUSH1 0x20 PUSH1 0x0 KECCAK256 SWAP1 PUSH1 0x1F ADD PUSH1 0x20 SWAP1 DIV DUP2 ADD SWAP3 DUP3 PUSH2 0xF9D JUMPI PUSH1 0x0 DUP6 SSTORE PUSH2 0xFE3 JUMP JUMPDEST DUP3 PUSH1 0x1F LT PUSH2 0xFB6 JUMPI DUP1 MLOAD PUSH1 0xFF NOT AND DUP4 DUP1 ADD OR DUP6 SSTORE PUSH2 0xFE3 JUMP JUMPDEST DUP3 DUP1 ADD PUSH1 0x1 ADD DUP6 SSTORE DUP3 ISZERO PUSH2 0xFE3 JUMPI SWAP2 DUP3 ADD JUMPDEST DUP3 DUP2 GT ISZERO PUSH2 0xFE3 JUMPI DUP3 MLOAD DUP3 SSTORE SWAP2 PUSH1 0x20 ADD SWAP2 SWAP1 PUSH1 0x1 ADD SWAP1 PUSH2 0xFC8 JUMP JUMPDEST POP PUSH2 0xFEF SWAP3 SWAP2 POP PUSH2 0x106E JUMP JUMPDEST POP SWAP1 JUMP JUMPDEST DUP3 DUP1 SLOAD PUSH2 0xFFF SWAP1 PUSH2 0x1338 JUMP JUMPDEST SWAP1 PUSH1 0x0 MSTORE PUSH1 0x20 PUSH1 0x0 KECCAK256 SWAP1 PUSH1 0x1F ADD PUSH1 0x20 SWAP1 DIV DUP2 ADD SWAP3 DUP3 PUSH2 0x1021 JUMPI PUSH1 0x0 DUP6 SSTORE PUSH2 0xFE3 JUMP JUMPDEST DUP3 PUSH1 0x1F LT PUSH2 0x1032 JUMPI DUP1 SLOAD DUP6 SSTORE PUSH2 0xFE3 JUMP JUMPDEST DUP3 DUP1 ADD PUSH1 0x1 ADD DUP6 SSTORE DUP3 ISZERO PUSH2 0xFE3 JUMPI PUSH1 0x0 MSTORE PUSH1 0x20 PUSH1 0x0 KECCAK256 SWAP2 PUSH1 0x1F ADD PUSH1 0x20 SWAP1 DIV DUP3 ADD JUMPDEST DUP3 DUP2 GT ISZERO PUSH2 0xFE3 JUMPI DUP3 SLOAD DUP3 SSTORE SWAP2 PUSH1 0x1 ADD SWAP2 SWAP1 PUSH1 0x1 ADD SWAP1 PUSH2 0x1053 JUMP JUMPDEST JUMPDEST DUP1 DUP3 GT ISZERO PUSH2 0xFEF JUMPI PUSH1 0x0 DUP2 SSTORE PUSH1 0x1 ADD PUSH2 0x106F JUMP JUMPDEST PUSH1 0x0 PUSH1 0x20 DUP3 DUP5 SUB SLT ISZERO PUSH2 0x1095 JUMPI PUSH1 0x0 DUP1 REVERT JUMPDEST DUP2 CALLDATALOAD PUSH2 0x10A0 DUP2 PUSH2 0x14DA JUMP JUMPDEST SWAP4 SWAP3 POP POP POP JUMP JUMPDEST PUSH1 0x0 PUSH1 0x20 DUP3 DUP5 SUB SLT ISZERO PUSH2 0x10B9 JUMPI PUSH1 0x0 DUP1 REVERT JUMPDEST DUP2 MLOAD PUSH1 0x1 PUSH1 0x1 PUSH1 0xE0 SHL SUB NOT DUP2 AND DUP2 EQ PUSH2 0x10A0 JUMPI PUSH1 0x0 DUP1 REVERT JUMPDEST PUSH1 0x0 PUSH1 0x20 DUP3 DUP5 SUB SLT ISZERO PUSH2 0x10E3 JUMPI PUSH1 0x0 DUP1 REVERT JUMPDEST POP CALLDATALOAD SWAP2 SWAP1 POP JUMP JUMPDEST PUSH1 0x0 DUP2 MLOAD DUP1 DUP5 MSTORE PUSH2 0x1102 DUP2 PUSH1 0x20 DUP7 ADD PUSH1 0x20 DUP7 ADD PUSH2 0x1308 JUMP JUMPDEST PUSH1 0x1F ADD PUSH1 0x1F NOT AND SWAP3 SWAP1 SWAP3 ADD PUSH1 0x20 ADD SWAP3 SWAP2 POP POP JUMP JUMPDEST PUSH8 0x4469616D6F6E645F PUSH1 0xC0 SHL DUP2 MSTORE PUSH1 0x0 DUP3 MLOAD PUSH2 0x1139 DUP2 PUSH1 0x8 DUP6 ADD PUSH1 0x20 DUP8 ADD PUSH2 0x1308 JUMP JUMPDEST SWAP2 SWAP1 SWAP2 ADD PUSH1 0x8 ADD SWAP3 SWAP2 POP POP JUMP JUMPDEST PUSH5 0x476F6C645F PUSH1 0xD8 SHL DUP2 MSTORE PUSH1 0x0 DUP3 MLOAD PUSH2 0x1166 DUP2 PUSH1 0x5 DUP6 ADD PUSH1 0x20 DUP8 ADD PUSH2 0x1308 JUMP JUMPDEST SWAP2 SWAP1 SWAP2 ADD PUSH1 0x5 ADD SWAP3 SWAP2 POP POP JUMP JUMPDEST PUSH7 0x53696C7665725F PUSH1 0xC8 SHL DUP2 MSTORE PUSH1 0x0 DUP3 MLOAD PUSH2 0x1195 DUP2 PUSH1 0x7 DUP6 ADD PUSH1 0x20 DUP8 ADD PUSH2 0x1308 JUMP JUMPDEST SWAP2 SWAP1 SWAP2 ADD PUSH1 0x7 ADD SWAP3 SWAP2 POP POP JUMP JUMPDEST PUSH1 0x1 PUSH1 0x1 PUSH1 0xA0 SHL SUB DUP7 DUP2 AND DUP3 MSTORE DUP6 AND PUSH1 0x20 DUP3 ADD MSTORE PUSH1 0x40 DUP2 ADD DUP5 SWAP1 MSTORE PUSH1 0x60 DUP2 ADD DUP4 SWAP1 MSTORE PUSH1 0xA0 PUSH1 0x80 DUP3 ADD DUP2 SWAP1 MSTORE PUSH1 0x0 SWAP1 PUSH2 0x11DC SWAP1 DUP4 ADD DUP5 PUSH2 0x10EA JUMP JUMPDEST SWAP8 SWAP7 POP POP POP POP POP POP POP JUMP JUMPDEST PUSH1 0x20 DUP1 DUP3 MSTORE DUP3 MLOAD DUP3 DUP3 ADD DUP2 SWAP1 MSTORE PUSH1 0x0 SWAP2 SWAP1 DUP5 DUP3 ADD SWAP1 PUSH1 0x40 DUP6 ADD SWAP1 DUP5 JUMPDEST DUP2 DUP2 LT ISZERO PUSH2 0x121F JUMPI DUP4 MLOAD DUP4 MSTORE SWAP3 DUP5 ADD SWAP3 SWAP2 DUP5 ADD SWAP2 PUSH1 0x1 ADD PUSH2 0x1203 JUMP JUMPDEST POP SWAP1 SWAP7 SWAP6 POP POP POP POP POP POP JUMP JUMPDEST PUSH1 0x20 DUP2 MSTORE PUSH1 0x0 PUSH2 0x10A0 PUSH1 0x20 DUP4 ADD DUP5 PUSH2 0x10EA JUMP JUMPDEST PUSH1 0x20 DUP1 DUP3 MSTORE PUSH1 0x1C SWAP1 DUP3 ADD MSTORE PUSH32 0x4F6E6C79204E46542D4553204F776E65722063616E2041636365737300000000 PUSH1 0x40 DUP3 ADD MSTORE PUSH1 0x60 ADD SWAP1 JUMP JUMPDEST PUSH1 0x20 DUP1 DUP3 MSTORE PUSH1 0x1B SWAP1 DUP3 ADD MSTORE PUSH32 0x44726F7073697465206973206E6F74204F70656E6564205965742E0000000000 PUSH1 0x40 DUP3 ADD MSTORE PUSH1 0x60 ADD SWAP1 JUMP JUMPDEST DUP3 DUP2 MSTORE PUSH1 0x40 PUSH1 0x20 DUP3 ADD MSTORE PUSH1 0x0 PUSH2 0xD5F PUSH1 0x40 DUP4 ADD DUP5 PUSH2 0x10EA JUMP JUMPDEST PUSH1 0x0 DUP3 NOT DUP3 GT ISZERO PUSH2 0x12D8 JUMPI PUSH2 0x12D8 PUSH2 0x13DD JUMP JUMPDEST POP ADD SWAP1 JUMP JUMPDEST PUSH1 0x0 DUP3 PUSH2 0x12EC JUMPI PUSH2 0x12EC PUSH2 0x13F3 JUMP JUMPDEST POP DIV SWAP1 JUMP JUMPDEST PUSH1 0x0 DUP3 DUP3 LT ISZERO PUSH2 0x1303 JUMPI PUSH2 0x1303 PUSH2 0x13DD JUMP JUMPDEST POP SUB SWAP1 JUMP JUMPDEST PUSH1 0x0 JUMPDEST DUP4 DUP2 LT ISZERO PUSH2 0x1323 JUMPI DUP2 DUP2 ADD MLOAD DUP4 DUP3 ADD MSTORE PUSH1 0x20 ADD PUSH2 0x130B JUMP JUMPDEST DUP4 DUP2 GT ISZERO PUSH2 0x1332 JUMPI PUSH1 0x0 DUP5 DUP5 ADD MSTORE JUMPDEST POP POP POP POP JUMP JUMPDEST PUSH1 0x1 DUP2 DUP2 SHR SWAP1 DUP3 AND DUP1 PUSH2 0x134C JUMPI PUSH1 0x7F DUP3 AND SWAP2 POP JUMPDEST PUSH1 0x20 DUP3 LT DUP2 EQ ISZERO PUSH2 0x136D JUMPI PUSH4 0x4E487B71 PUSH1 0xE0 SHL PUSH1 0x0 MSTORE PUSH1 0x22 PUSH1 0x4 MSTORE PUSH1 0x24 PUSH1 0x0 REVERT JUMPDEST POP SWAP2 SWAP1 POP JUMP JUMPDEST PUSH1 0x1F DUP3 ADD PUSH1 0x1F NOT AND DUP2 ADD PUSH8 0xFFFFFFFFFFFFFFFF DUP2 GT DUP3 DUP3 LT OR ISZERO PUSH2 0x13A7 JUMPI PUSH4 0x4E487B71 PUSH1 0xE0 SHL PUSH1 0x0 MSTORE PUSH1 0x41 PUSH1 0x4 MSTORE PUSH1 0x24 PUSH1 0x0 REVERT JUMPDEST PUSH1 0x40 MSTORE POP POP JUMP JUMPDEST PUSH1 0x0 PUSH1 0x0 NOT DUP3 EQ ISZERO PUSH2 0x13C2 JUMPI PUSH2 0x13C2 PUSH2 0x13DD JUMP JUMPDEST POP PUSH1 0x1 ADD SWAP1 JUMP JUMPDEST PUSH1 0x0 DUP3 PUSH2 0x13D8 JUMPI PUSH2 0x13D8 PUSH2 0x13F3 JUMP JUMPDEST POP MOD SWAP1 JUMP JUMPDEST PUSH4 0x4E487B71 PUSH1 0xE0 SHL PUSH1 0x0 MSTORE PUSH1 0x11 PUSH1 0x4 MSTORE PUSH1 0x24 PUSH1 0x0 REVERT JUMPDEST PUSH4 0x4E487B71 PUSH1 0xE0 SHL PUSH1 0x0 MSTORE PUSH1 0x12 PUSH1 0x4 MSTORE PUSH1 0x24 PUSH1 0x0 REVERT JUMPDEST PUSH4 0x4E487B71 PUSH1 0xE0 SHL PUSH1 0x0 MSTORE PUSH1 0x32 PUSH1 0x4 MSTORE PUSH1 0x24 PUSH1 0x0 REVERT JUMPDEST PUSH4 0x4E487B71 PUSH1 0xE0 SHL PUSH1 0x0 MSTORE PUSH1 0x41 PUSH1 0x4 MSTORE PUSH1 0x24 PUSH1 0x0 REVERT JUMPDEST PUSH1 0x0 PUSH1 0x3 RETURNDATASIZE GT ISZERO PUSH2 0x296 JUMPI PUSH1 0x4 PUSH1 0x0 DUP1 RETURNDATACOPY POP PUSH1 0x0 MLOAD PUSH1 0xE0 SHR SWAP1 JUMP JUMPDEST PUSH1 0x0 PUSH1 0x44 RETURNDATASIZE LT ISZERO PUSH2 0x145E JUMPI SWAP1 JUMP JUMPDEST PUSH1 0x40 MLOAD PUSH1 0x3 NOT RETURNDATASIZE DUP2 ADD PUSH1 0x4 DUP4 RETURNDATACOPY DUP2 MLOAD RETURNDATASIZE PUSH8 0xFFFFFFFFFFFFFFFF DUP2 PUSH1 0x24 DUP5 ADD GT DUP2 DUP5 GT OR ISZERO PUSH2 0x148E JUMPI POP POP POP POP POP SWAP1 JUMP JUMPDEST DUP3 DUP6 ADD SWAP2 POP DUP2 MLOAD DUP2 DUP2 GT ISZERO PUSH2 0x14A6 JUMPI POP POP POP POP POP POP SWAP1 JUMP JUMPDEST DUP5 RETURNDATASIZE DUP8 ADD ADD PUSH1 0x20 DUP3 DUP6 ADD ADD GT ISZERO PUSH2 0x14C0 JUMPI POP POP POP POP POP POP SWAP1 JUMP JUMPDEST PUSH2 0x14CF PUSH1 0x20 DUP3 DUP7 ADD ADD DUP8 PUSH2 0x1373 JUMP JUMPDEST POP SWAP1 SWAP6 SWAP5 POP POP POP POP POP JUMP JUMPDEST PUSH1 0x1 PUSH1 0x1 PUSH1 0xA0 SHL SUB DUP2 AND DUP2 EQ PUSH2 0x883 JUMPI PUSH1 0x0 DUP1 REVERT INVALID LOG2 PUSH5 0x6970667358 0x22 SLT KECCAK256 0xC3 SWAP13 0xD2 0x22 0x1F PUSH17 0xADE53148C8B2B7D89CB9A6C4B29BBBED44 LOG4 SHR SGT 0xEC DUP5 0xAF LOG2 0xE3 0xFB PUSH5 0x736F6C6343 STOP ADDMOD SMOD STOP CALLER "
				},
				"gasEstimates": {
					"creation": {
						"codeDepositCost": "1082600",
						"executionCost": "infinite",
						"totalCost": "infinite"
					},
					"external": {
						"ContractBalance()": "2558",
						"CryptoRandomMint(address)": "infinite",
						"FiatRandomMint(address)": "infinite",
						"IsPaused()": "2355",
						"Owner()": "2414",
						"checkMintedCategoryWise()": "8779",
						"checkTotalMinted()": "4475",
						"openDropsite()": "28733",
						"returnOwner(address)": "infinite",
						"setMintFee(uint256)": "2606",
						"stopDropsite()": "28707",
						"withDraw(address)": "infinite"
					},
					"internal": {
						"depositAmount(address,uint256)": "24404",
						"random()": "infinite",
						"updateConditions()": "infinite"
					}
				},
				"methodIdentifiers": {
					"ContractBalance()": "3b668059",
					"CryptoRandomMint(address)": "3d65df70",
					"FiatRandomMint(address)": "32b61b4c",
					"IsPaused()": "1309a563",
					"Owner()": "b4a99a4e",
					"checkMintedCategoryWise()": "60daa851",
					"checkTotalMinted()": "0390c11c",
					"openDropsite()": "15460259",
					"returnOwner(address)": "fd6c3b1b",
					"setMintFee(uint256)": "eddd0d9c",
					"stopDropsite()": "aa90c726",
					"withDraw(address)": "0a67d2c7"
				}
			},
			"userdoc": {
				"kind": "user",
				"methods": {},
				"version": 1
			}
		}
	}
}