{
	"NFTES_Drop_flat.sol": {
		"NFTES_Drop": {
			"abi": [
				{
					"inputs": [
						{
							"internalType": "string",
							"name": "name",
							"type": "string"
						}
					],
					"stateMutability": "nonpayable",
					"type": "constructor"
				},
				{
					"anonymous": false,
					"inputs": [
						{
							"indexed": true,
							"internalType": "address",
							"name": "operator",
							"type": "address"
						},
						{
							"indexed": true,
							"internalType": "address",
							"name": "from",
							"type": "address"
						},
						{
							"indexed": true,
							"internalType": "address",
							"name": "to",
							"type": "address"
						},
						{
							"indexed": false,
							"internalType": "uint256",
							"name": "id",
							"type": "uint256"
						},
						{
							"indexed": false,
							"internalType": "uint256",
							"name": "value",
							"type": "uint256"
						}
					],
					"name": "TransferSingle",
					"type": "event"
				},
				{
					"anonymous": false,
					"inputs": [
						{
							"indexed": true,
							"internalType": "address",
							"name": "addr",
							"type": "address"
						},
						{
							"indexed": false,
							"internalType": "string[]",
							"name": "ids",
							"type": "string[]"
						}
					],
					"name": "isMinted",
					"type": "event"
				},
				{
					"inputs": [],
					"name": "Owner",
					"outputs": [
						{
							"internalType": "address payable",
							"name": "",
							"type": "address"
						}
					],
					"stateMutability": "view",
					"type": "function"
				},
				{
					"inputs": [
						{
							"internalType": "address",
							"name": "newOwnerAddr",
							"type": "address"
						}
					],
					"name": "changeOwner",
					"outputs": [],
					"stateMutability": "nonpayable",
					"type": "function"
				},
				{
					"inputs": [],
					"name": "checkMintedCategoryWise",
					"outputs": [
						{
							"internalType": "uint256",
							"name": "",
							"type": "uint256"
						},
						{
							"internalType": "uint256",
							"name": "",
							"type": "uint256"
						},
						{
							"internalType": "uint256",
							"name": "",
							"type": "uint256"
						}
					],
					"stateMutability": "view",
					"type": "function"
				},
				{
					"inputs": [],
					"name": "checkTotalMinted",
					"outputs": [
						{
							"internalType": "uint256",
							"name": "",
							"type": "uint256"
						}
					],
					"stateMutability": "view",
					"type": "function"
				},
				{
					"inputs": [],
					"name": "contractBalance",
					"outputs": [
						{
							"internalType": "uint256",
							"name": "",
							"type": "uint256"
						}
					],
					"stateMutability": "view",
					"type": "function"
				},
				{
					"inputs": [
						{
							"internalType": "address",
							"name": "user_addr",
							"type": "address"
						},
						{
							"internalType": "uint256",
							"name": "noOfMints",
							"type": "uint256"
						},
						{
							"internalType": "string[]",
							"name": "tokenURIs",
							"type": "string[]"
						}
					],
					"name": "cryptoRandomMint",
					"outputs": [
						{
							"internalType": "string[]",
							"name": "",
							"type": "string[]"
						}
					],
					"stateMutability": "payable",
					"type": "function"
				},
				{
					"inputs": [
						{
							"internalType": "address",
							"name": "user_addr",
							"type": "address"
						},
						{
							"internalType": "uint256",
							"name": "noOfMints",
							"type": "uint256"
						}
					],
					"name": "fiatRandomMint",
					"outputs": [
						{
							"internalType": "string[]",
							"name": "",
							"type": "string[]"
						}
					],
					"stateMutability": "nonpayable",
					"type": "function"
				},
				{
					"inputs": [],
					"name": "getMintFee",
					"outputs": [
						{
							"internalType": "uint256",
							"name": "",
							"type": "uint256"
						}
					],
					"stateMutability": "view",
					"type": "function"
				},
				{
					"inputs": [],
					"name": "isAdmin",
					"outputs": [
						{
							"internalType": "bool",
							"name": "",
							"type": "bool"
						}
					],
					"stateMutability": "view",
					"type": "function"
				},
				{
					"inputs": [],
					"name": "isPaused",
					"outputs": [
						{
							"internalType": "bool",
							"name": "",
							"type": "bool"
						}
					],
					"stateMutability": "view",
					"type": "function"
				},
				{
					"inputs": [],
					"name": "openDropsite",
					"outputs": [],
					"stateMutability": "nonpayable",
					"type": "function"
				},
				{
					"inputs": [
						{
							"internalType": "address",
							"name": "addr",
							"type": "address"
						}
					],
					"name": "returnNftsOwner",
					"outputs": [
						{
							"internalType": "uint256[]",
							"name": "",
							"type": "uint256[]"
						}
					],
					"stateMutability": "view",
					"type": "function"
				},
				{
					"inputs": [
						{
							"internalType": "uint256",
							"name": "_mintFee",
							"type": "uint256"
						}
					],
					"name": "setMintFee",
					"outputs": [],
					"stateMutability": "nonpayable",
					"type": "function"
				},
				{
					"inputs": [],
					"name": "stopDropsite",
					"outputs": [],
					"stateMutability": "nonpayable",
					"type": "function"
				},
				{
					"inputs": [
						{
							"internalType": "address payable",
							"name": "to",
							"type": "address"
						},
						{
							"internalType": "uint256",
							"name": "amount",
							"type": "uint256"
						}
					],
					"name": "withDraw",
					"outputs": [],
					"stateMutability": "nonpayable",
					"type": "function"
				}
			],
			"devdoc": {
				"kind": "dev",
				"methods": {},
				"version": 1
			},
			"evm": {
				"assembly": "    /* \"NFTES_Drop_flat.sol\":15472:24048  contract NFTES_Drop is ERC1155_Drop {... */\n  mstore(0x40, 0x80)\n    /* \"NFTES_Drop_flat.sol\":15562:15578  string data = \"\" */\n  mload(0x40)\n  dup1\n  0x20\n  add\n  0x40\n  mstore\n  dup1\n  0x00\n  dup2\n  mstore\n  pop\n  0x02\n  swap1\n  dup1\n  mload\n  swap1\n  0x20\n  add\n  swap1\n  tag_1\n  swap3\n  swap2\n  swap1\n  tag_2\n  jump\t// in\ntag_1:\n  pop\n    /* \"NFTES_Drop_flat.sol\":15830:15832  50 */\n  0x32\n    /* \"NFTES_Drop_flat.sol\":15806:15832  uint256 maxDiamondCount=50 */\n  0x09\n  sstore\n    /* \"NFTES_Drop_flat.sol\":15859:15862  100 */\n  0x64\n    /* \"NFTES_Drop_flat.sol\":15838:15862  uint256 maxGoldCount=100 */\n  0x0a\n  sstore\n    /* \"NFTES_Drop_flat.sol\":15891:15894  850 */\n  0x0352\n    /* \"NFTES_Drop_flat.sol\":15868:15894  uint256 maxSilverCount=850 */\n  0x0b\n  sstore\n    /* \"NFTES_Drop_flat.sol\":16627:16631  true */\n  0x01\n    /* \"NFTES_Drop_flat.sol\":16604:16631  bool public isPaused = true */\n  0x0e\n  exp(0x0100, 0x00)\n  dup2\n  sload\n  dup2\n  0xff\n  mul\n  not\n  and\n  swap1\n  dup4\n  iszero\n  iszero\n  mul\n  or\n  swap1\n  sstore\n  pop\n    /* \"NFTES_Drop_flat.sol\":16698:17016  constructor(string memory name) {... */\n  callvalue\n  dup1\n  iszero\n  tag_3\n  jumpi\n  0x00\n  dup1\n  revert\ntag_3:\n  pop\n  mload(0x40)\n  sub(codesize, bytecodeSize)\n  dup1\n  bytecodeSize\n  dup4\n  codecopy\n  dup2\n  dup2\n  add\n  0x40\n  mstore\n  dup2\n  add\n  swap1\n  tag_4\n  swap2\n  swap1\n  tag_5\n  jump\t// in\ntag_4:\n    /* \"NFTES_Drop_flat.sol\":16748:16752  name */\n  dup1\n    /* \"NFTES_Drop_flat.sol\":16740:16745  _name */\n  0x0f\n    /* \"NFTES_Drop_flat.sol\":16740:16752  _name = name */\n  swap1\n  dup1\n  mload\n  swap1\n  0x20\n  add\n  swap1\n  tag_8\n  swap3\n  swap2\n  swap1\n  tag_2\n  jump\t// in\ntag_8:\n  pop\n    /* \"NFTES_Drop_flat.sol\":16778:16788  msg.sender */\n  caller\n    /* \"NFTES_Drop_flat.sol\":16762:16767  Owner */\n  0x0e\n  0x01\n    /* \"NFTES_Drop_flat.sol\":16762:16789  Owner = payable(msg.sender) */\n  0x0100\n  exp\n  dup2\n  sload\n  dup2\n  0xffffffffffffffffffffffffffffffffffffffff\n  mul\n  not\n  and\n  swap1\n  dup4\n  0xffffffffffffffffffffffffffffffffffffffff\n  and\n  mul\n  or\n  swap1\n  sstore\n  pop\n    /* \"NFTES_Drop_flat.sol\":16818:16819  0 */\n  0x00\n    /* \"NFTES_Drop_flat.sol\":16800:16815  totalNFTsMinted */\n  0x03\n    /* \"NFTES_Drop_flat.sol\":16800:16819  totalNFTsMinted = 0 */\n  dup2\n  swap1\n  sstore\n  pop\n    /* \"NFTES_Drop_flat.sol\":16863:16864  1 */\n  0x01\n    /* \"NFTES_Drop_flat.sol\":16849:16860  numOfCopies */\n  0x04\n    /* \"NFTES_Drop_flat.sol\":16849:16864  numOfCopies = 1 */\n  dup2\n  swap1\n  sstore\n  pop\n    /* \"NFTES_Drop_flat.sol\":16970:16971  0 */\n  0x00\n    /* \"NFTES_Drop_flat.sol\":16960:16967  Diamond */\n  0x06\n    /* \"NFTES_Drop_flat.sol\":16960:16971  Diamond = 0 */\n  dup2\n  swap1\n  sstore\n  pop\n    /* \"NFTES_Drop_flat.sol\":16988:16989  0 */\n  0x00\n    /* \"NFTES_Drop_flat.sol\":16981:16985  Gold */\n  0x07\n    /* \"NFTES_Drop_flat.sol\":16981:16989  Gold = 0 */\n  dup2\n  swap1\n  sstore\n  pop\n    /* \"NFTES_Drop_flat.sol\":17008:17009  0 */\n  0x00\n    /* \"NFTES_Drop_flat.sol\":16999:17005  Silver */\n  0x08\n    /* \"NFTES_Drop_flat.sol\":16999:17009  Silver = 0 */\n  dup2\n  swap1\n  sstore\n  pop\n    /* \"NFTES_Drop_flat.sol\":16698:17016  constructor(string memory name) {... */\n  pop\n    /* \"NFTES_Drop_flat.sol\":15472:24048  contract NFTES_Drop is ERC1155_Drop {... */\n  jump(tag_9)\ntag_2:\n  dup3\n  dup1\n  sload\n  tag_10\n  swap1\n  tag_11\n  jump\t// in\ntag_10:\n  swap1\n  0x00\n  mstore\n  keccak256(0x00, 0x20)\n  swap1\n  0x1f\n  add\n  0x20\n  swap1\n  div\n  dup2\n  add\n  swap3\n  dup3\n  tag_13\n  jumpi\n  0x00\n  dup6\n  sstore\n  jump(tag_12)\ntag_13:\n  dup3\n  0x1f\n  lt\n  tag_14\n  jumpi\n  dup1\n  mload\n  not(0xff)\n  and\n  dup4\n  dup1\n  add\n  or\n  dup6\n  sstore\n  jump(tag_12)\ntag_14:\n  dup3\n  dup1\n  add\n  0x01\n  add\n  dup6\n  sstore\n  dup3\n  iszero\n  tag_12\n  jumpi\n  swap2\n  dup3\n  add\ntag_15:\n  dup3\n  dup2\n  gt\n  iszero\n  tag_16\n  jumpi\n  dup3\n  mload\n  dup3\n  sstore\n  swap2\n  0x20\n  add\n  swap2\n  swap1\n  0x01\n  add\n  swap1\n  jump(tag_15)\ntag_16:\ntag_12:\n  pop\n  swap1\n  pop\n  tag_17\n  swap2\n  swap1\n  tag_18\n  jump\t// in\ntag_17:\n  pop\n  swap1\n  jump\t// out\ntag_18:\ntag_19:\n  dup1\n  dup3\n  gt\n  iszero\n  tag_20\n  jumpi\n  0x00\n  dup2\n  0x00\n  swap1\n  sstore\n  pop\n  0x01\n  add\n  jump(tag_19)\ntag_20:\n  pop\n  swap1\n  jump\t// out\n    /* \"#utility.yul\":7:428   */\ntag_22:\n    /* \"#utility.yul\":96:101   */\n  0x00\n    /* \"#utility.yul\":121:187   */\n  tag_24\n    /* \"#utility.yul\":137:186   */\n  tag_25\n    /* \"#utility.yul\":179:185   */\n  dup5\n    /* \"#utility.yul\":137:186   */\n  tag_26\n  jump\t// in\ntag_25:\n    /* \"#utility.yul\":121:187   */\n  tag_27\n  jump\t// in\ntag_24:\n    /* \"#utility.yul\":112:187   */\n  swap1\n  pop\n    /* \"#utility.yul\":210:216   */\n  dup3\n    /* \"#utility.yul\":203:208   */\n  dup2\n    /* \"#utility.yul\":196:217   */\n  mstore\n    /* \"#utility.yul\":248:252   */\n  0x20\n    /* \"#utility.yul\":241:246   */\n  dup2\n    /* \"#utility.yul\":237:253   */\n  add\n    /* \"#utility.yul\":286:289   */\n  dup5\n    /* \"#utility.yul\":277:283   */\n  dup5\n    /* \"#utility.yul\":272:275   */\n  dup5\n    /* \"#utility.yul\":268:284   */\n  add\n    /* \"#utility.yul\":265:290   */\n  gt\n    /* \"#utility.yul\":262:374   */\n  iszero\n  tag_28\n  jumpi\n    /* \"#utility.yul\":293:372   */\n  tag_29\n  tag_30\n  jump\t// in\ntag_29:\n    /* \"#utility.yul\":262:374   */\ntag_28:\n    /* \"#utility.yul\":383:422   */\n  tag_31\n    /* \"#utility.yul\":415:421   */\n  dup5\n    /* \"#utility.yul\":410:413   */\n  dup3\n    /* \"#utility.yul\":405:408   */\n  dup6\n    /* \"#utility.yul\":383:422   */\n  tag_32\n  jump\t// in\ntag_31:\n    /* \"#utility.yul\":102:428   */\n  pop\n    /* \"#utility.yul\":7:428   */\n  swap4\n  swap3\n  pop\n  pop\n  pop\n  jump\t// out\n    /* \"#utility.yul\":448:803   */\ntag_33:\n    /* \"#utility.yul\":515:520   */\n  0x00\n    /* \"#utility.yul\":564:567   */\n  dup3\n    /* \"#utility.yul\":557:561   */\n  0x1f\n    /* \"#utility.yul\":549:555   */\n  dup4\n    /* \"#utility.yul\":545:562   */\n  add\n    /* \"#utility.yul\":541:568   */\n  slt\n    /* \"#utility.yul\":531:653   */\n  tag_35\n  jumpi\n    /* \"#utility.yul\":572:651   */\n  tag_36\n  tag_37\n  jump\t// in\ntag_36:\n    /* \"#utility.yul\":531:653   */\ntag_35:\n    /* \"#utility.yul\":682:688   */\n  dup2\n    /* \"#utility.yul\":676:689   */\n  mload\n    /* \"#utility.yul\":707:797   */\n  tag_38\n    /* \"#utility.yul\":793:796   */\n  dup5\n    /* \"#utility.yul\":785:791   */\n  dup3\n    /* \"#utility.yul\":778:782   */\n  0x20\n    /* \"#utility.yul\":770:776   */\n  dup7\n    /* \"#utility.yul\":766:783   */\n  add\n    /* \"#utility.yul\":707:797   */\n  tag_22\n  jump\t// in\ntag_38:\n    /* \"#utility.yul\":698:797   */\n  swap2\n  pop\n    /* \"#utility.yul\":521:803   */\n  pop\n    /* \"#utility.yul\":448:803   */\n  swap3\n  swap2\n  pop\n  pop\n  jump\t// out\n    /* \"#utility.yul\":809:1333   */\ntag_5:\n    /* \"#utility.yul\":889:895   */\n  0x00\n    /* \"#utility.yul\":938:940   */\n  0x20\n    /* \"#utility.yul\":926:935   */\n  dup3\n    /* \"#utility.yul\":917:924   */\n  dup5\n    /* \"#utility.yul\":913:936   */\n  sub\n    /* \"#utility.yul\":909:941   */\n  slt\n    /* \"#utility.yul\":906:1025   */\n  iszero\n  tag_40\n  jumpi\n    /* \"#utility.yul\":944:1023   */\n  tag_41\n  tag_42\n  jump\t// in\ntag_41:\n    /* \"#utility.yul\":906:1025   */\ntag_40:\n    /* \"#utility.yul\":1085:1086   */\n  0x00\n    /* \"#utility.yul\":1074:1083   */\n  dup3\n    /* \"#utility.yul\":1070:1087   */\n  add\n    /* \"#utility.yul\":1064:1088   */\n  mload\n    /* \"#utility.yul\":1115:1133   */\n  0xffffffffffffffff\n    /* \"#utility.yul\":1107:1113   */\n  dup2\n    /* \"#utility.yul\":1104:1134   */\n  gt\n    /* \"#utility.yul\":1101:1218   */\n  iszero\n  tag_43\n  jumpi\n    /* \"#utility.yul\":1137:1216   */\n  tag_44\n  tag_45\n  jump\t// in\ntag_44:\n    /* \"#utility.yul\":1101:1218   */\ntag_43:\n    /* \"#utility.yul\":1242:1316   */\n  tag_46\n    /* \"#utility.yul\":1308:1315   */\n  dup5\n    /* \"#utility.yul\":1299:1305   */\n  dup3\n    /* \"#utility.yul\":1288:1297   */\n  dup6\n    /* \"#utility.yul\":1284:1306   */\n  add\n    /* \"#utility.yul\":1242:1316   */\n  tag_33\n  jump\t// in\ntag_46:\n    /* \"#utility.yul\":1232:1316   */\n  swap2\n  pop\n    /* \"#utility.yul\":1035:1326   */\n  pop\n    /* \"#utility.yul\":809:1333   */\n  swap3\n  swap2\n  pop\n  pop\n  jump\t// out\n    /* \"#utility.yul\":1339:1468   */\ntag_27:\n    /* \"#utility.yul\":1373:1379   */\n  0x00\n    /* \"#utility.yul\":1400:1420   */\n  tag_48\n  tag_49\n  jump\t// in\ntag_48:\n    /* \"#utility.yul\":1390:1420   */\n  swap1\n  pop\n    /* \"#utility.yul\":1429:1462   */\n  tag_50\n    /* \"#utility.yul\":1457:1461   */\n  dup3\n    /* \"#utility.yul\":1449:1455   */\n  dup3\n    /* \"#utility.yul\":1429:1462   */\n  tag_51\n  jump\t// in\ntag_50:\n    /* \"#utility.yul\":1339:1468   */\n  swap2\n  swap1\n  pop\n  jump\t// out\n    /* \"#utility.yul\":1474:1549   */\ntag_49:\n    /* \"#utility.yul\":1507:1513   */\n  0x00\n    /* \"#utility.yul\":1540:1542   */\n  0x40\n    /* \"#utility.yul\":1534:1543   */\n  mload\n    /* \"#utility.yul\":1524:1543   */\n  swap1\n  pop\n    /* \"#utility.yul\":1474:1549   */\n  swap1\n  jump\t// out\n    /* \"#utility.yul\":1555:1863   */\ntag_26:\n    /* \"#utility.yul\":1617:1621   */\n  0x00\n    /* \"#utility.yul\":1707:1725   */\n  0xffffffffffffffff\n    /* \"#utility.yul\":1699:1705   */\n  dup3\n    /* \"#utility.yul\":1696:1726   */\n  gt\n    /* \"#utility.yul\":1693:1749   */\n  iszero\n  tag_54\n  jumpi\n    /* \"#utility.yul\":1729:1747   */\n  tag_55\n  tag_56\n  jump\t// in\ntag_55:\n    /* \"#utility.yul\":1693:1749   */\ntag_54:\n    /* \"#utility.yul\":1767:1796   */\n  tag_57\n    /* \"#utility.yul\":1789:1795   */\n  dup3\n    /* \"#utility.yul\":1767:1796   */\n  tag_58\n  jump\t// in\ntag_57:\n    /* \"#utility.yul\":1759:1796   */\n  swap1\n  pop\n    /* \"#utility.yul\":1851:1855   */\n  0x20\n    /* \"#utility.yul\":1845:1849   */\n  dup2\n    /* \"#utility.yul\":1841:1856   */\n  add\n    /* \"#utility.yul\":1833:1856   */\n  swap1\n  pop\n    /* \"#utility.yul\":1555:1863   */\n  swap2\n  swap1\n  pop\n  jump\t// out\n    /* \"#utility.yul\":1869:2176   */\ntag_32:\n    /* \"#utility.yul\":1937:1938   */\n  0x00\n    /* \"#utility.yul\":1947:2060   */\ntag_60:\n    /* \"#utility.yul\":1961:1967   */\n  dup4\n    /* \"#utility.yul\":1958:1959   */\n  dup2\n    /* \"#utility.yul\":1955:1968   */\n  lt\n    /* \"#utility.yul\":1947:2060   */\n  iszero\n  tag_62\n  jumpi\n    /* \"#utility.yul\":2046:2047   */\n  dup1\n    /* \"#utility.yul\":2041:2044   */\n  dup3\n    /* \"#utility.yul\":2037:2048   */\n  add\n    /* \"#utility.yul\":2031:2049   */\n  mload\n    /* \"#utility.yul\":2027:2028   */\n  dup2\n    /* \"#utility.yul\":2022:2025   */\n  dup5\n    /* \"#utility.yul\":2018:2029   */\n  add\n    /* \"#utility.yul\":2011:2050   */\n  mstore\n    /* \"#utility.yul\":1983:1985   */\n  0x20\n    /* \"#utility.yul\":1980:1981   */\n  dup2\n    /* \"#utility.yul\":1976:1986   */\n  add\n    /* \"#utility.yul\":1971:1986   */\n  swap1\n  pop\n    /* \"#utility.yul\":1947:2060   */\n  jump(tag_60)\ntag_62:\n    /* \"#utility.yul\":2078:2084   */\n  dup4\n    /* \"#utility.yul\":2075:2076   */\n  dup2\n    /* \"#utility.yul\":2072:2085   */\n  gt\n    /* \"#utility.yul\":2069:2170   */\n  iszero\n  tag_63\n  jumpi\n    /* \"#utility.yul\":2158:2159   */\n  0x00\n    /* \"#utility.yul\":2149:2155   */\n  dup5\n    /* \"#utility.yul\":2144:2147   */\n  dup5\n    /* \"#utility.yul\":2140:2156   */\n  add\n    /* \"#utility.yul\":2133:2160   */\n  mstore\n    /* \"#utility.yul\":2069:2170   */\ntag_63:\n    /* \"#utility.yul\":1918:2176   */\n  pop\n    /* \"#utility.yul\":1869:2176   */\n  pop\n  pop\n  pop\n  jump\t// out\n    /* \"#utility.yul\":2182:2502   */\ntag_11:\n    /* \"#utility.yul\":2226:2232   */\n  0x00\n    /* \"#utility.yul\":2263:2264   */\n  0x02\n    /* \"#utility.yul\":2257:2261   */\n  dup3\n    /* \"#utility.yul\":2253:2265   */\n  div\n    /* \"#utility.yul\":2243:2265   */\n  swap1\n  pop\n    /* \"#utility.yul\":2310:2311   */\n  0x01\n    /* \"#utility.yul\":2304:2308   */\n  dup3\n    /* \"#utility.yul\":2300:2312   */\n  and\n    /* \"#utility.yul\":2331:2349   */\n  dup1\n    /* \"#utility.yul\":2321:2402   */\n  tag_65\n  jumpi\n    /* \"#utility.yul\":2387:2391   */\n  0x7f\n    /* \"#utility.yul\":2379:2385   */\n  dup3\n    /* \"#utility.yul\":2375:2392   */\n  and\n    /* \"#utility.yul\":2365:2392   */\n  swap2\n  pop\n    /* \"#utility.yul\":2321:2402   */\ntag_65:\n    /* \"#utility.yul\":2449:2451   */\n  0x20\n    /* \"#utility.yul\":2441:2447   */\n  dup3\n    /* \"#utility.yul\":2438:2452   */\n  lt\n    /* \"#utility.yul\":2418:2436   */\n  dup2\n    /* \"#utility.yul\":2415:2453   */\n  eq\n    /* \"#utility.yul\":2412:2496   */\n  iszero\n  tag_66\n  jumpi\n    /* \"#utility.yul\":2468:2486   */\n  tag_67\n  tag_68\n  jump\t// in\ntag_67:\n    /* \"#utility.yul\":2412:2496   */\ntag_66:\n    /* \"#utility.yul\":2233:2502   */\n  pop\n    /* \"#utility.yul\":2182:2502   */\n  swap2\n  swap1\n  pop\n  jump\t// out\n    /* \"#utility.yul\":2508:2789   */\ntag_51:\n    /* \"#utility.yul\":2591:2618   */\n  tag_70\n    /* \"#utility.yul\":2613:2617   */\n  dup3\n    /* \"#utility.yul\":2591:2618   */\n  tag_58\n  jump\t// in\ntag_70:\n    /* \"#utility.yul\":2583:2589   */\n  dup2\n    /* \"#utility.yul\":2579:2619   */\n  add\n    /* \"#utility.yul\":2721:2727   */\n  dup2\n    /* \"#utility.yul\":2709:2719   */\n  dup2\n    /* \"#utility.yul\":2706:2728   */\n  lt\n    /* \"#utility.yul\":2685:2703   */\n  0xffffffffffffffff\n    /* \"#utility.yul\":2673:2683   */\n  dup3\n    /* \"#utility.yul\":2670:2704   */\n  gt\n    /* \"#utility.yul\":2667:2729   */\n  or\n    /* \"#utility.yul\":2664:2752   */\n  iszero\n  tag_71\n  jumpi\n    /* \"#utility.yul\":2732:2750   */\n  tag_72\n  tag_56\n  jump\t// in\ntag_72:\n    /* \"#utility.yul\":2664:2752   */\ntag_71:\n    /* \"#utility.yul\":2772:2782   */\n  dup1\n    /* \"#utility.yul\":2768:2770   */\n  0x40\n    /* \"#utility.yul\":2761:2783   */\n  mstore\n    /* \"#utility.yul\":2551:2789   */\n  pop\n    /* \"#utility.yul\":2508:2789   */\n  pop\n  pop\n  jump\t// out\n    /* \"#utility.yul\":2795:2975   */\ntag_68:\n    /* \"#utility.yul\":2843:2920   */\n  0x4e487b7100000000000000000000000000000000000000000000000000000000\n    /* \"#utility.yul\":2840:2841   */\n  0x00\n    /* \"#utility.yul\":2833:2921   */\n  mstore\n    /* \"#utility.yul\":2940:2944   */\n  0x22\n    /* \"#utility.yul\":2937:2938   */\n  0x04\n    /* \"#utility.yul\":2930:2945   */\n  mstore\n    /* \"#utility.yul\":2964:2968   */\n  0x24\n    /* \"#utility.yul\":2961:2962   */\n  0x00\n    /* \"#utility.yul\":2954:2969   */\n  revert\n    /* \"#utility.yul\":2981:3161   */\ntag_56:\n    /* \"#utility.yul\":3029:3106   */\n  0x4e487b7100000000000000000000000000000000000000000000000000000000\n    /* \"#utility.yul\":3026:3027   */\n  0x00\n    /* \"#utility.yul\":3019:3107   */\n  mstore\n    /* \"#utility.yul\":3126:3130   */\n  0x41\n    /* \"#utility.yul\":3123:3124   */\n  0x04\n    /* \"#utility.yul\":3116:3131   */\n  mstore\n    /* \"#utility.yul\":3150:3154   */\n  0x24\n    /* \"#utility.yul\":3147:3148   */\n  0x00\n    /* \"#utility.yul\":3140:3155   */\n  revert\n    /* \"#utility.yul\":3167:3284   */\ntag_37:\n    /* \"#utility.yul\":3276:3277   */\n  0x00\n    /* \"#utility.yul\":3273:3274   */\n  dup1\n    /* \"#utility.yul\":3266:3278   */\n  revert\n    /* \"#utility.yul\":3290:3407   */\ntag_30:\n    /* \"#utility.yul\":3399:3400   */\n  0x00\n    /* \"#utility.yul\":3396:3397   */\n  dup1\n    /* \"#utility.yul\":3389:3401   */\n  revert\n    /* \"#utility.yul\":3413:3530   */\ntag_45:\n    /* \"#utility.yul\":3522:3523   */\n  0x00\n    /* \"#utility.yul\":3519:3520   */\n  dup1\n    /* \"#utility.yul\":3512:3524   */\n  revert\n    /* \"#utility.yul\":3536:3653   */\ntag_42:\n    /* \"#utility.yul\":3645:3646   */\n  0x00\n    /* \"#utility.yul\":3642:3643   */\n  dup1\n    /* \"#utility.yul\":3635:3647   */\n  revert\n    /* \"#utility.yul\":3659:3761   */\ntag_58:\n    /* \"#utility.yul\":3700:3706   */\n  0x00\n    /* \"#utility.yul\":3751:3753   */\n  0x1f\n    /* \"#utility.yul\":3747:3754   */\n  not\n    /* \"#utility.yul\":3742:3744   */\n  0x1f\n    /* \"#utility.yul\":3735:3740   */\n  dup4\n    /* \"#utility.yul\":3731:3745   */\n  add\n    /* \"#utility.yul\":3727:3755   */\n  and\n    /* \"#utility.yul\":3717:3755   */\n  swap1\n  pop\n    /* \"#utility.yul\":3659:3761   */\n  swap2\n  swap1\n  pop\n  jump\t// out\n    /* \"NFTES_Drop_flat.sol\":15472:24048  contract NFTES_Drop is ERC1155_Drop {... */\ntag_9:\n  dataSize(sub_0)\n  dup1\n  dataOffset(sub_0)\n  0x00\n  codecopy\n  0x00\n  return\nstop\n\nsub_0: assembly {\n        /* \"NFTES_Drop_flat.sol\":15472:24048  contract NFTES_Drop is ERC1155_Drop {... */\n      mstore(0x40, 0x80)\n      jumpi(tag_1, lt(calldatasize, 0x04))\n      shr(0xe0, calldataload(0x00))\n      dup1\n      0x8b7afe2e\n      gt\n      tag_17\n      jumpi\n      dup1\n      0xb187bd26\n      gt\n      tag_18\n      jumpi\n      dup1\n      0xb187bd26\n      eq\n      tag_13\n      jumpi\n      dup1\n      0xb4a99a4e\n      eq\n      tag_14\n      jumpi\n      dup1\n      0xb6db75a0\n      eq\n      tag_15\n      jumpi\n      dup1\n      0xeddd0d9c\n      eq\n      tag_16\n      jumpi\n      jump(tag_1)\n    tag_18:\n      dup1\n      0x8b7afe2e\n      eq\n      tag_9\n      jumpi\n      dup1\n      0x8c089ec9\n      eq\n      tag_10\n      jumpi\n      dup1\n      0xa6f9dae1\n      eq\n      tag_11\n      jumpi\n      dup1\n      0xaa90c726\n      eq\n      tag_12\n      jumpi\n      jump(tag_1)\n    tag_17:\n      dup1\n      0x225011da\n      gt\n      tag_19\n      jumpi\n      dup1\n      0x225011da\n      eq\n      tag_5\n      jumpi\n      dup1\n      0x5e1f0556\n      eq\n      tag_6\n      jumpi\n      dup1\n      0x60daa851\n      eq\n      tag_7\n      jumpi\n      dup1\n      0x7a5caab3\n      eq\n      tag_8\n      jumpi\n      jump(tag_1)\n    tag_19:\n      dup1\n      0x0390c11c\n      eq\n      tag_2\n      jumpi\n      dup1\n      0x15460259\n      eq\n      tag_3\n      jumpi\n      dup1\n      0x191e2e83\n      eq\n      tag_4\n      jumpi\n    tag_1:\n      0x00\n      dup1\n      revert\n        /* \"NFTES_Drop_flat.sol\":18159:18256  function checkTotalMinted() public view returns (uint256) {... */\n    tag_2:\n      callvalue\n      dup1\n      iszero\n      tag_20\n      jumpi\n      0x00\n      dup1\n      revert\n    tag_20:\n      pop\n      tag_21\n      tag_22\n      jump\t// in\n    tag_21:\n      mload(0x40)\n      tag_23\n      swap2\n      swap1\n      tag_24\n      jump\t// in\n    tag_23:\n      mload(0x40)\n      dup1\n      swap2\n      sub\n      swap1\n      return\n        /* \"NFTES_Drop_flat.sol\":18408:18548  function openDropsite() public OnlyOwner {... */\n    tag_3:\n      callvalue\n      dup1\n      iszero\n      tag_25\n      jumpi\n      0x00\n      dup1\n      revert\n    tag_25:\n      pop\n      tag_26\n      tag_27\n      jump\t// in\n    tag_26:\n      stop\n        /* \"NFTES_Drop_flat.sol\":18637:18855  function withDraw(address payable to, uint amount) public  OnlyOwner {... */\n    tag_4:\n      callvalue\n      dup1\n      iszero\n      tag_28\n      jumpi\n      0x00\n      dup1\n      revert\n    tag_28:\n      pop\n      tag_29\n      0x04\n      dup1\n      calldatasize\n      sub\n      dup2\n      add\n      swap1\n      tag_30\n      swap2\n      swap1\n      tag_31\n      jump\t// in\n    tag_30:\n      tag_32\n      jump\t// in\n    tag_29:\n      stop\n        /* \"NFTES_Drop_flat.sol\":17346:17548  function returnNftsOwner(address addr)... */\n    tag_5:\n      callvalue\n      dup1\n      iszero\n      tag_33\n      jumpi\n      0x00\n      dup1\n      revert\n    tag_33:\n      pop\n      tag_34\n      0x04\n      dup1\n      calldatasize\n      sub\n      dup2\n      add\n      swap1\n      tag_35\n      swap2\n      swap1\n      tag_36\n      jump\t// in\n    tag_35:\n      tag_37\n      jump\t// in\n    tag_34:\n      mload(0x40)\n      tag_38\n      swap2\n      swap1\n      tag_39\n      jump\t// in\n    tag_38:\n      mload(0x40)\n      dup1\n      swap2\n      sub\n      swap1\n      return\n        /* \"NFTES_Drop_flat.sol\":21894:22763  function fiatRandomMint(address user_addr, uint256 noOfMints)... */\n    tag_6:\n      callvalue\n      dup1\n      iszero\n      tag_40\n      jumpi\n      0x00\n      dup1\n      revert\n    tag_40:\n      pop\n      tag_41\n      0x04\n      dup1\n      calldatasize\n      sub\n      dup2\n      add\n      swap1\n      tag_42\n      swap2\n      swap1\n      tag_43\n      jump\t// in\n    tag_42:\n      tag_44\n      jump\t// in\n    tag_41:\n      mload(0x40)\n      tag_45\n      swap2\n      swap1\n      tag_46\n      jump\t// in\n    tag_45:\n      mload(0x40)\n      dup1\n      swap2\n      sub\n      swap1\n      return\n        /* \"NFTES_Drop_flat.sol\":17601:17842  function checkMintedCategoryWise()... */\n    tag_7:\n      callvalue\n      dup1\n      iszero\n      tag_47\n      jumpi\n      0x00\n      dup1\n      revert\n    tag_47:\n      pop\n      tag_48\n      tag_49\n      jump\t// in\n    tag_48:\n      mload(0x40)\n      tag_50\n      swap4\n      swap3\n      swap2\n      swap1\n      tag_51\n      jump\t// in\n    tag_50:\n      mload(0x40)\n      dup1\n      swap2\n      sub\n      swap1\n      return\n        /* \"NFTES_Drop_flat.sol\":18008:18120  function getMintFee()... */\n    tag_8:\n      callvalue\n      dup1\n      iszero\n      tag_52\n      jumpi\n      0x00\n      dup1\n      revert\n    tag_52:\n      pop\n      tag_53\n      tag_54\n      jump\t// in\n    tag_53:\n      mload(0x40)\n      tag_55\n      swap2\n      swap1\n      tag_24\n      jump\t// in\n    tag_55:\n      mload(0x40)\n      dup1\n      swap2\n      sub\n      swap1\n      return\n        /* \"NFTES_Drop_flat.sol\":18900:19012  function contractBalance() public view OnlyOwner returns (uint256) {... */\n    tag_9:\n      callvalue\n      dup1\n      iszero\n      tag_56\n      jumpi\n      0x00\n      dup1\n      revert\n    tag_56:\n      pop\n      tag_57\n      tag_58\n      jump\t// in\n    tag_57:\n      mload(0x40)\n      tag_59\n      swap2\n      swap1\n      tag_24\n      jump\t// in\n    tag_59:\n      mload(0x40)\n      dup1\n      swap2\n      sub\n      swap1\n      return\n        /* \"NFTES_Drop_flat.sol\":23030:24046  function cryptoRandomMint(address user_addr, uint256 noOfMints, string[] memory tokenURIs)... */\n    tag_10:\n      tag_60\n      0x04\n      dup1\n      calldatasize\n      sub\n      dup2\n      add\n      swap1\n      tag_61\n      swap2\n      swap1\n      tag_62\n      jump\t// in\n    tag_61:\n      tag_63\n      jump\t// in\n    tag_60:\n      mload(0x40)\n      tag_64\n      swap2\n      swap1\n      tag_46\n      jump\t// in\n    tag_64:\n      mload(0x40)\n      dup1\n      swap2\n      sub\n      swap1\n      return\n        /* \"NFTES_Drop_flat.sol\":17148:17302  function changeOwner(address newOwnerAddr)... */\n    tag_11:\n      callvalue\n      dup1\n      iszero\n      tag_65\n      jumpi\n      0x00\n      dup1\n      revert\n    tag_65:\n      pop\n      tag_66\n      0x04\n      dup1\n      calldatasize\n      sub\n      dup2\n      add\n      swap1\n      tag_67\n      swap2\n      swap1\n      tag_36\n      jump\t// in\n    tag_67:\n      tag_68\n      jump\t// in\n    tag_66:\n      stop\n        /* \"NFTES_Drop_flat.sol\":18262:18402  function stopDropsite() public OnlyOwner {... */\n    tag_12:\n      callvalue\n      dup1\n      iszero\n      tag_69\n      jumpi\n      0x00\n      dup1\n      revert\n    tag_69:\n      pop\n      tag_70\n      tag_71\n      jump\t// in\n    tag_70:\n      stop\n        /* \"NFTES_Drop_flat.sol\":16604:16631  bool public isPaused = true */\n    tag_13:\n      callvalue\n      dup1\n      iszero\n      tag_72\n      jumpi\n      0x00\n      dup1\n      revert\n    tag_72:\n      pop\n      tag_73\n      tag_74\n      jump\t// in\n    tag_73:\n      mload(0x40)\n      tag_75\n      swap2\n      swap1\n      tag_76\n      jump\t// in\n    tag_75:\n      mload(0x40)\n      dup1\n      swap2\n      sub\n      swap1\n      return\n        /* \"NFTES_Drop_flat.sol\":16637:16665  address payable public Owner */\n    tag_14:\n      callvalue\n      dup1\n      iszero\n      tag_77\n      jumpi\n      0x00\n      dup1\n      revert\n    tag_77:\n      pop\n      tag_78\n      tag_79\n      jump\t// in\n    tag_78:\n      mload(0x40)\n      tag_80\n      swap2\n      swap1\n      tag_81\n      jump\t// in\n    tag_80:\n      mload(0x40)\n      dup1\n      swap2\n      sub\n      swap1\n      return\n        /* \"NFTES_Drop_flat.sol\":17021:17143  function isAdmin() public view returns (bool){... */\n    tag_15:\n      callvalue\n      dup1\n      iszero\n      tag_82\n      jumpi\n      0x00\n      dup1\n      revert\n    tag_82:\n      pop\n      tag_83\n      tag_84\n      jump\t// in\n    tag_83:\n      mload(0x40)\n      tag_85\n      swap2\n      swap1\n      tag_76\n      jump\t// in\n    tag_85:\n      mload(0x40)\n      dup1\n      swap2\n      sub\n      swap1\n      return\n        /* \"NFTES_Drop_flat.sol\":17886:17975  function setMintFee(uint _mintFee) public OnlyOwner  {... */\n    tag_16:\n      callvalue\n      dup1\n      iszero\n      tag_86\n      jumpi\n      0x00\n      dup1\n      revert\n    tag_86:\n      pop\n      tag_87\n      0x04\n      dup1\n      calldatasize\n      sub\n      dup2\n      add\n      swap1\n      tag_88\n      swap2\n      swap1\n      tag_89\n      jump\t// in\n    tag_88:\n      tag_90\n      jump\t// in\n    tag_87:\n      stop\n        /* \"NFTES_Drop_flat.sol\":18159:18256  function checkTotalMinted() public view returns (uint256) {... */\n    tag_22:\n        /* \"NFTES_Drop_flat.sol\":18208:18215  uint256 */\n      0x00\n        /* \"NFTES_Drop_flat.sol\":18234:18249  totalNFTsMinted */\n      sload(0x03)\n        /* \"NFTES_Drop_flat.sol\":18227:18249  return totalNFTsMinted */\n      swap1\n      pop\n        /* \"NFTES_Drop_flat.sol\":18159:18256  function checkTotalMinted() public view returns (uint256) {... */\n      swap1\n      jump\t// out\n        /* \"NFTES_Drop_flat.sol\":18408:18548  function openDropsite() public OnlyOwner {... */\n    tag_27:\n        /* \"NFTES_Drop_flat.sol\":16262:16267  Owner */\n      0x0e\n      0x01\n      swap1\n      sload\n      swap1\n      0x0100\n      exp\n      swap1\n      div\n      0xffffffffffffffffffffffffffffffffffffffff\n      and\n        /* \"NFTES_Drop_flat.sol\":16246:16267  _msgSender() == Owner */\n      0xffffffffffffffffffffffffffffffffffffffff\n      and\n        /* \"NFTES_Drop_flat.sol\":16246:16258  _msgSender() */\n      tag_93\n        /* \"NFTES_Drop_flat.sol\":16246:16256  _msgSender */\n      tag_94\n        /* \"NFTES_Drop_flat.sol\":16246:16258  _msgSender() */\n      jump\t// in\n    tag_93:\n        /* \"NFTES_Drop_flat.sol\":16246:16267  _msgSender() == Owner */\n      0xffffffffffffffffffffffffffffffffffffffff\n      and\n      eq\n        /* \"NFTES_Drop_flat.sol\":16238:16300  require(_msgSender() == Owner, \"Only NFT-ES Owner can Access\") */\n      tag_95\n      jumpi\n      mload(0x40)\n      0x08c379a000000000000000000000000000000000000000000000000000000000\n      dup2\n      mstore\n      0x04\n      add\n      tag_96\n      swap1\n      tag_97\n      jump\t// in\n    tag_96:\n      mload(0x40)\n      dup1\n      swap2\n      sub\n      swap1\n      revert\n    tag_95:\n        /* \"NFTES_Drop_flat.sol\":18479:18483  true */\n      0x01\n        /* \"NFTES_Drop_flat.sol\":18467:18483  isPaused == true */\n      iszero\n      iszero\n        /* \"NFTES_Drop_flat.sol\":18467:18475  isPaused */\n      0x0e\n      0x00\n      swap1\n      sload\n      swap1\n      0x0100\n      exp\n      swap1\n      div\n      0xff\n      and\n        /* \"NFTES_Drop_flat.sol\":18467:18483  isPaused == true */\n      iszero\n      iszero\n      eq\n        /* \"NFTES_Drop_flat.sol\":18459:18515  require(isPaused == true, \"Dropsite is already Running\") */\n      tag_99\n      jumpi\n      mload(0x40)\n      0x08c379a000000000000000000000000000000000000000000000000000000000\n      dup2\n      mstore\n      0x04\n      add\n      tag_100\n      swap1\n      tag_101\n      jump\t// in\n    tag_100:\n      mload(0x40)\n      dup1\n      swap2\n      sub\n      swap1\n      revert\n    tag_99:\n        /* \"NFTES_Drop_flat.sol\":18536:18541  false */\n      0x00\n        /* \"NFTES_Drop_flat.sol\":18525:18533  isPaused */\n      0x0e\n      0x00\n        /* \"NFTES_Drop_flat.sol\":18525:18541  isPaused = false */\n      0x0100\n      exp\n      dup2\n      sload\n      dup2\n      0xff\n      mul\n      not\n      and\n      swap1\n      dup4\n      iszero\n      iszero\n      mul\n      or\n      swap1\n      sstore\n      pop\n        /* \"NFTES_Drop_flat.sol\":18408:18548  function openDropsite() public OnlyOwner {... */\n      jump\t// out\n        /* \"NFTES_Drop_flat.sol\":18637:18855  function withDraw(address payable to, uint amount) public  OnlyOwner {... */\n    tag_32:\n        /* \"NFTES_Drop_flat.sol\":16262:16267  Owner */\n      0x0e\n      0x01\n      swap1\n      sload\n      swap1\n      0x0100\n      exp\n      swap1\n      div\n      0xffffffffffffffffffffffffffffffffffffffff\n      and\n        /* \"NFTES_Drop_flat.sol\":16246:16267  _msgSender() == Owner */\n      0xffffffffffffffffffffffffffffffffffffffff\n      and\n        /* \"NFTES_Drop_flat.sol\":16246:16258  _msgSender() */\n      tag_103\n        /* \"NFTES_Drop_flat.sol\":16246:16256  _msgSender */\n      tag_94\n        /* \"NFTES_Drop_flat.sol\":16246:16258  _msgSender() */\n      jump\t// in\n    tag_103:\n        /* \"NFTES_Drop_flat.sol\":16246:16267  _msgSender() == Owner */\n      0xffffffffffffffffffffffffffffffffffffffff\n      and\n      eq\n        /* \"NFTES_Drop_flat.sol\":16238:16300  require(_msgSender() == Owner, \"Only NFT-ES Owner can Access\") */\n      tag_104\n      jumpi\n      mload(0x40)\n      0x08c379a000000000000000000000000000000000000000000000000000000000\n      dup2\n      mstore\n      0x04\n      add\n      tag_105\n      swap1\n      tag_97\n      jump\t// in\n    tag_105:\n      mload(0x40)\n      dup1\n      swap2\n      sub\n      swap1\n      revert\n    tag_104:\n        /* \"NFTES_Drop_flat.sol\":18716:18731  uint256 Balance */\n      0x00\n        /* \"NFTES_Drop_flat.sol\":18734:18755  address(this).balance */\n      selfbalance\n        /* \"NFTES_Drop_flat.sol\":18716:18755  uint256 Balance = address(this).balance */\n      swap1\n      pop\n        /* \"NFTES_Drop_flat.sol\":18782:18789  Balance */\n      dup1\n        /* \"NFTES_Drop_flat.sol\":18773:18779  amount */\n      dup3\n        /* \"NFTES_Drop_flat.sol\":18773:18789  amount < Balance */\n      lt\n        /* \"NFTES_Drop_flat.sol\":18765:18819  require(amount < Balance, \"Error! Not Enough Balance\") */\n      tag_107\n      jumpi\n      mload(0x40)\n      0x08c379a000000000000000000000000000000000000000000000000000000000\n      dup2\n      mstore\n      0x04\n      add\n      tag_108\n      swap1\n      tag_109\n      jump\t// in\n    tag_108:\n      mload(0x40)\n      dup1\n      swap2\n      sub\n      swap1\n      revert\n    tag_107:\n        /* \"NFTES_Drop_flat.sol\":18829:18831  to */\n      dup3\n        /* \"NFTES_Drop_flat.sol\":18829:18840  to.transfer */\n      0xffffffffffffffffffffffffffffffffffffffff\n      and\n        /* \"NFTES_Drop_flat.sol\":18829:18848  to.transfer(amount) */\n      0x08fc\n        /* \"NFTES_Drop_flat.sol\":18841:18847  amount */\n      dup4\n        /* \"NFTES_Drop_flat.sol\":18829:18848  to.transfer(amount) */\n      swap1\n      dup2\n      iszero\n      mul\n      swap1\n      mload(0x40)\n      0x00\n      mload(0x40)\n      dup1\n      dup4\n      sub\n      dup2\n      dup6\n      dup9\n      dup9\n      call\n      swap4\n      pop\n      pop\n      pop\n      pop\n      iszero\n      dup1\n      iszero\n      tag_111\n      jumpi\n      returndatasize\n      0x00\n      dup1\n      returndatacopy\n      revert(0x00, returndatasize)\n    tag_111:\n      pop\n        /* \"NFTES_Drop_flat.sol\":18706:18855  {... */\n      pop\n        /* \"NFTES_Drop_flat.sol\":18637:18855  function withDraw(address payable to, uint amount) public  OnlyOwner {... */\n      pop\n      pop\n      jump\t// out\n        /* \"NFTES_Drop_flat.sol\":17346:17548  function returnNftsOwner(address addr)... */\n    tag_37:\n        /* \"NFTES_Drop_flat.sol\":17458:17474  uint256[] memory */\n      0x60\n        /* \"NFTES_Drop_flat.sol\":16427:16432  false */\n      0x00\n        /* \"NFTES_Drop_flat.sol\":16415:16432  isPaused == false */\n      iszero\n      iszero\n        /* \"NFTES_Drop_flat.sol\":16415:16423  isPaused */\n      0x0e\n      0x00\n      swap1\n      sload\n      swap1\n      0x0100\n      exp\n      swap1\n      div\n      0xff\n      and\n        /* \"NFTES_Drop_flat.sol\":16415:16432  isPaused == false */\n      iszero\n      iszero\n      eq\n        /* \"NFTES_Drop_flat.sol\":16407:16464  require(isPaused == false, \"Dropsite is not Opened Yet.\") */\n      tag_113\n      jumpi\n      mload(0x40)\n      0x08c379a000000000000000000000000000000000000000000000000000000000\n      dup2\n      mstore\n      0x04\n      add\n      tag_114\n      swap1\n      tag_115\n      jump\t// in\n    tag_114:\n      mload(0x40)\n      dup1\n      swap2\n      sub\n      swap1\n      revert\n    tag_113:\n        /* \"NFTES_Drop_flat.sol\":17497:17515  dropsite_NFT_Owner */\n      0x0c\n        /* \"NFTES_Drop_flat.sol\":17497:17521  dropsite_NFT_Owner[addr] */\n      0x00\n        /* \"NFTES_Drop_flat.sol\":17516:17520  addr */\n      dup4\n        /* \"NFTES_Drop_flat.sol\":17497:17521  dropsite_NFT_Owner[addr] */\n      0xffffffffffffffffffffffffffffffffffffffff\n      and\n      0xffffffffffffffffffffffffffffffffffffffff\n      and\n      dup2\n      mstore\n      0x20\n      add\n      swap1\n      dup2\n      mstore\n      0x20\n      add\n      0x00\n      keccak256\n        /* \"NFTES_Drop_flat.sol\":17497:17541  dropsite_NFT_Owner[addr].owned_Dropsite_NFTs */\n      0x00\n      add\n        /* \"NFTES_Drop_flat.sol\":17490:17541  return dropsite_NFT_Owner[addr].owned_Dropsite_NFTs */\n      dup1\n      sload\n      dup1\n      0x20\n      mul\n      0x20\n      add\n      mload(0x40)\n      swap1\n      dup2\n      add\n      0x40\n      mstore\n      dup1\n      swap3\n      swap2\n      swap1\n      dup2\n      dup2\n      mstore\n      0x20\n      add\n      dup3\n      dup1\n      sload\n      dup1\n      iszero\n      tag_117\n      jumpi\n      0x20\n      mul\n      dup3\n      add\n      swap2\n      swap1\n      0x00\n      mstore\n      keccak256(0x00, 0x20)\n      swap1\n    tag_118:\n      dup2\n      sload\n      dup2\n      mstore\n      0x20\n      add\n      swap1\n      0x01\n      add\n      swap1\n      dup1\n      dup4\n      gt\n      tag_118\n      jumpi\n    tag_117:\n      pop\n      pop\n      pop\n      pop\n      pop\n      swap1\n      pop\n        /* \"NFTES_Drop_flat.sol\":17346:17548  function returnNftsOwner(address addr)... */\n      swap2\n      swap1\n      pop\n      jump\t// out\n        /* \"NFTES_Drop_flat.sol\":21894:22763  function fiatRandomMint(address user_addr, uint256 noOfMints)... */\n    tag_44:\n        /* \"NFTES_Drop_flat.sol\":22058:22073  string[] memory */\n      0x60\n        /* \"NFTES_Drop_flat.sol\":16262:16267  Owner */\n      0x0e\n      0x01\n      swap1\n      sload\n      swap1\n      0x0100\n      exp\n      swap1\n      div\n      0xffffffffffffffffffffffffffffffffffffffff\n      and\n        /* \"NFTES_Drop_flat.sol\":16246:16267  _msgSender() == Owner */\n      0xffffffffffffffffffffffffffffffffffffffff\n      and\n        /* \"NFTES_Drop_flat.sol\":16246:16258  _msgSender() */\n      tag_120\n        /* \"NFTES_Drop_flat.sol\":16246:16256  _msgSender */\n      tag_94\n        /* \"NFTES_Drop_flat.sol\":16246:16258  _msgSender() */\n      jump\t// in\n    tag_120:\n        /* \"NFTES_Drop_flat.sol\":16246:16267  _msgSender() == Owner */\n      0xffffffffffffffffffffffffffffffffffffffff\n      and\n      eq\n        /* \"NFTES_Drop_flat.sol\":16238:16300  require(_msgSender() == Owner, \"Only NFT-ES Owner can Access\") */\n      tag_121\n      jumpi\n      mload(0x40)\n      0x08c379a000000000000000000000000000000000000000000000000000000000\n      dup2\n      mstore\n      0x04\n      add\n      tag_122\n      swap1\n      tag_97\n      jump\t// in\n    tag_122:\n      mload(0x40)\n      dup1\n      swap2\n      sub\n      swap1\n      revert\n    tag_121:\n        /* \"NFTES_Drop_flat.sol\":16427:16432  false */\n      0x00\n        /* \"NFTES_Drop_flat.sol\":16415:16432  isPaused == false */\n      iszero\n      iszero\n        /* \"NFTES_Drop_flat.sol\":16415:16423  isPaused */\n      0x0e\n      0x00\n      swap1\n      sload\n      swap1\n      0x0100\n      exp\n      swap1\n      div\n      0xff\n      and\n        /* \"NFTES_Drop_flat.sol\":16415:16432  isPaused == false */\n      iszero\n      iszero\n      eq\n        /* \"NFTES_Drop_flat.sol\":16407:16464  require(isPaused == false, \"Dropsite is not Opened Yet.\") */\n      tag_124\n      jumpi\n      mload(0x40)\n      0x08c379a000000000000000000000000000000000000000000000000000000000\n      dup2\n      mstore\n      0x04\n      add\n      tag_125\n      swap1\n      tag_115\n      jump\t// in\n    tag_125:\n      mload(0x40)\n      dup1\n      swap2\n      sub\n      swap1\n      revert\n    tag_124:\n        /* \"NFTES_Drop_flat.sol\":16544:16545  0 */\n      0x00\n        /* \"NFTES_Drop_flat.sol\":16532:16540  mintFees */\n      sload(0x05)\n        /* \"NFTES_Drop_flat.sol\":16532:16545  mintFees != 0 */\n      eq\n      iszero\n        /* \"NFTES_Drop_flat.sol\":16524:16581  require(mintFees != 0, \"Owner Should set mint Fee First\") */\n      tag_127\n      jumpi\n      mload(0x40)\n      0x08c379a000000000000000000000000000000000000000000000000000000000\n      dup2\n      mstore\n      0x04\n      add\n      tag_128\n      swap1\n      tag_129\n      jump\t// in\n    tag_128:\n      mload(0x40)\n      dup1\n      swap2\n      sub\n      swap1\n      revert\n    tag_127:\n        /* \"NFTES_Drop_flat.sol\":22109:22110  4 */\n      0x04\n        /* \"NFTES_Drop_flat.sol\":22097:22106  noOfMints */\n      dup3\n        /* \"NFTES_Drop_flat.sol\":22097:22110  noOfMints < 4 */\n      lt\n        /* \"NFTES_Drop_flat.sol\":22097:22127  noOfMints < 4 && noOfMints > 0 */\n      dup1\n      iszero\n      tag_131\n      jumpi\n      pop\n        /* \"NFTES_Drop_flat.sol\":22126:22127  0 */\n      0x00\n        /* \"NFTES_Drop_flat.sol\":22114:22123  noOfMints */\n      dup3\n        /* \"NFTES_Drop_flat.sol\":22114:22127  noOfMints > 0 */\n      gt\n        /* \"NFTES_Drop_flat.sol\":22097:22127  noOfMints < 4 && noOfMints > 0 */\n    tag_131:\n        /* \"NFTES_Drop_flat.sol\":22089:22153  require(noOfMints < 4 && noOfMints > 0, \"You can mint 1-3 NFTs\") */\n      tag_132\n      jumpi\n      mload(0x40)\n      0x08c379a000000000000000000000000000000000000000000000000000000000\n      dup2\n      mstore\n      0x04\n      add\n      tag_133\n      swap1\n      tag_134\n      jump\t// in\n    tag_133:\n      mload(0x40)\n      dup1\n      swap2\n      sub\n      swap1\n      revert\n    tag_132:\n        /* \"NFTES_Drop_flat.sol\":22189:22193  1000 */\n      0x03e8\n        /* \"NFTES_Drop_flat.sol\":22171:22186  totalNFTsMinted */\n      sload(0x03)\n        /* \"NFTES_Drop_flat.sol\":22171:22193  totalNFTsMinted < 1000 */\n      lt\n        /* \"NFTES_Drop_flat.sol\":22163:22223  require(totalNFTsMinted < 1000, \"Max Minting Limit reached\") */\n      tag_135\n      jumpi\n      mload(0x40)\n      0x08c379a000000000000000000000000000000000000000000000000000000000\n      dup2\n      mstore\n      0x04\n      add\n      tag_136\n      swap1\n      tag_137\n      jump\t// in\n    tag_136:\n      mload(0x40)\n      dup1\n      swap2\n      sub\n      swap1\n      revert\n    tag_135:\n        /* \"NFTES_Drop_flat.sol\":22253:22254  0 */\n      0x00\n        /* \"NFTES_Drop_flat.sol\":22241:22249  mintFees */\n      sload(0x05)\n        /* \"NFTES_Drop_flat.sol\":22241:22254  mintFees != 0 */\n      eq\n      iszero\n        /* \"NFTES_Drop_flat.sol\":22233:22275  require(mintFees != 0, \"Mint Fee Not Set\") */\n      tag_138\n      jumpi\n      mload(0x40)\n      0x08c379a000000000000000000000000000000000000000000000000000000000\n      dup2\n      mstore\n      0x04\n      add\n      tag_139\n      swap1\n      tag_140\n      jump\t// in\n    tag_139:\n      mload(0x40)\n      dup1\n      swap2\n      sub\n      swap1\n      revert\n    tag_138:\n        /* \"NFTES_Drop_flat.sol\":22285:22303  uint returnedNftID */\n      0x00\n        /* \"NFTES_Drop_flat.sol\":22313:22342  string memory returnedNftData */\n      0x60\n        /* \"NFTES_Drop_flat.sol\":22352:22384  string[] memory randomMintedNfts */\n      0x00\n        /* \"NFTES_Drop_flat.sol\":22400:22401  3 */\n      0x03\n        /* \"NFTES_Drop_flat.sol\":22387:22402  new string[](3) */\n      0xffffffffffffffff\n      dup2\n      gt\n      iszero\n      tag_141\n      jumpi\n      tag_142\n      tag_143\n      jump\t// in\n    tag_142:\n    tag_141:\n      mload(0x40)\n      swap1\n      dup1\n      dup3\n      mstore\n      dup1\n      0x20\n      mul\n      0x20\n      add\n      dup3\n      add\n      0x40\n      mstore\n      dup1\n      iszero\n      tag_144\n      jumpi\n      dup2\n      0x20\n      add\n    tag_145:\n      0x60\n      dup2\n      mstore\n      0x20\n      add\n      swap1\n      0x01\n      swap1\n      sub\n      swap1\n      dup2\n      tag_145\n      jumpi\n      swap1\n      pop\n    tag_144:\n      pop\n        /* \"NFTES_Drop_flat.sol\":22352:22402  string[] memory randomMintedNfts = new string[](3) */\n      swap1\n      pop\n        /* \"NFTES_Drop_flat.sol\":22417:22426  uint256 i */\n      0x00\n        /* \"NFTES_Drop_flat.sol\":22412:22672  for (uint256 i = 0; i < noOfMints; i++) {... */\n    tag_146:\n        /* \"NFTES_Drop_flat.sol\":22436:22445  noOfMints */\n      dup6\n        /* \"NFTES_Drop_flat.sol\":22432:22433  i */\n      dup2\n        /* \"NFTES_Drop_flat.sol\":22432:22445  i < noOfMints */\n      lt\n        /* \"NFTES_Drop_flat.sol\":22412:22672  for (uint256 i = 0; i < noOfMints; i++) {... */\n      iszero\n      tag_147\n      jumpi\n        /* \"NFTES_Drop_flat.sol\":22501:22525  randomMinting(user_addr) */\n      tag_149\n        /* \"NFTES_Drop_flat.sol\":22515:22524  user_addr */\n      dup8\n        /* \"NFTES_Drop_flat.sol\":22501:22514  randomMinting */\n      tag_150\n        /* \"NFTES_Drop_flat.sol\":22501:22525  randomMinting(user_addr) */\n      jump\t// in\n    tag_149:\n        /* \"NFTES_Drop_flat.sol\":22466:22525  (returnedNftID, returnedNftData) = randomMinting(user_addr) */\n      dup1\n      swap5\n      pop\n      dup2\n      swap6\n      pop\n      pop\n      pop\n        /* \"NFTES_Drop_flat.sol\":22607:22638  Strings.toString(returnedNftID) */\n      tag_151\n        /* \"NFTES_Drop_flat.sol\":22624:22637  returnedNftID */\n      dup5\n        /* \"NFTES_Drop_flat.sol\":22607:22623  Strings.toString */\n      tag_152\n        /* \"NFTES_Drop_flat.sol\":22607:22638  Strings.toString(returnedNftID) */\n      jump\t// in\n    tag_151:\n        /* \"NFTES_Drop_flat.sol\":22644:22659  returnedNftData */\n      dup4\n        /* \"NFTES_Drop_flat.sol\":22590:22660  abi.encodePacked(Strings.toString(returnedNftID),\"_\", returnedNftData) */\n      add(0x20, mload(0x40))\n      tag_153\n      swap3\n      swap2\n      swap1\n      tag_154\n      jump\t// in\n    tag_153:\n      mload(0x40)\n      0x20\n      dup2\n      dup4\n      sub\n      sub\n      dup2\n      mstore\n      swap1\n      0x40\n      mstore\n        /* \"NFTES_Drop_flat.sol\":22541:22557  randomMintedNfts */\n      dup3\n        /* \"NFTES_Drop_flat.sol\":22558:22559  i */\n      dup3\n        /* \"NFTES_Drop_flat.sol\":22541:22560  randomMintedNfts[i] */\n      dup2\n      mload\n      dup2\n      lt\n      tag_155\n      jumpi\n      tag_156\n      tag_157\n      jump\t// in\n    tag_156:\n    tag_155:\n      0x20\n      mul\n      0x20\n      add\n      add\n        /* \"NFTES_Drop_flat.sol\":22541:22661  randomMintedNfts[i]= ... */\n      dup2\n      swap1\n      mstore\n      pop\n        /* \"NFTES_Drop_flat.sol\":22447:22450  i++ */\n      dup1\n      dup1\n      tag_158\n      swap1\n      tag_159\n      jump\t// in\n    tag_158:\n      swap2\n      pop\n      pop\n        /* \"NFTES_Drop_flat.sol\":22412:22672  for (uint256 i = 0; i < noOfMints; i++) {... */\n      jump(tag_146)\n    tag_147:\n      pop\n        /* \"NFTES_Drop_flat.sol\":22695:22704  user_addr */\n      dup6\n        /* \"NFTES_Drop_flat.sol\":22686:22723  isMinted(user_addr, randomMintedNfts) */\n      0xffffffffffffffffffffffffffffffffffffffff\n      and\n      0xb4a5369904dcc0d74d8fb8bbcdeb51f356f20c722499d42a6da95324e634c141\n        /* \"NFTES_Drop_flat.sol\":22706:22722  randomMintedNfts */\n      dup3\n        /* \"NFTES_Drop_flat.sol\":22686:22723  isMinted(user_addr, randomMintedNfts) */\n      mload(0x40)\n      tag_160\n      swap2\n      swap1\n      tag_46\n      jump\t// in\n    tag_160:\n      mload(0x40)\n      dup1\n      swap2\n      sub\n      swap1\n      log2\n        /* \"NFTES_Drop_flat.sol\":22740:22756  randomMintedNfts */\n      dup1\n        /* \"NFTES_Drop_flat.sol\":22733:22756  return randomMintedNfts */\n      swap4\n      pop\n      pop\n      pop\n      pop\n        /* \"NFTES_Drop_flat.sol\":21894:22763  function fiatRandomMint(address user_addr, uint256 noOfMints)... */\n      swap3\n      swap2\n      pop\n      pop\n      jump\t// out\n        /* \"NFTES_Drop_flat.sol\":17601:17842  function checkMintedCategoryWise()... */\n    tag_49:\n        /* \"NFTES_Drop_flat.sol\":17740:17744  uint */\n      0x00\n        /* \"NFTES_Drop_flat.sol\":17758:17762  uint */\n      dup1\n        /* \"NFTES_Drop_flat.sol\":17776:17780  uint */\n      0x00\n        /* \"NFTES_Drop_flat.sol\":16262:16267  Owner */\n      0x0e\n      0x01\n      swap1\n      sload\n      swap1\n      0x0100\n      exp\n      swap1\n      div\n      0xffffffffffffffffffffffffffffffffffffffff\n      and\n        /* \"NFTES_Drop_flat.sol\":16246:16267  _msgSender() == Owner */\n      0xffffffffffffffffffffffffffffffffffffffff\n      and\n        /* \"NFTES_Drop_flat.sol\":16246:16258  _msgSender() */\n      tag_162\n        /* \"NFTES_Drop_flat.sol\":16246:16256  _msgSender */\n      tag_94\n        /* \"NFTES_Drop_flat.sol\":16246:16258  _msgSender() */\n      jump\t// in\n    tag_162:\n        /* \"NFTES_Drop_flat.sol\":16246:16267  _msgSender() == Owner */\n      0xffffffffffffffffffffffffffffffffffffffff\n      and\n      eq\n        /* \"NFTES_Drop_flat.sol\":16238:16300  require(_msgSender() == Owner, \"Only NFT-ES Owner can Access\") */\n      tag_163\n      jumpi\n      mload(0x40)\n      0x08c379a000000000000000000000000000000000000000000000000000000000\n      dup2\n      mstore\n      0x04\n      add\n      tag_164\n      swap1\n      tag_97\n      jump\t// in\n    tag_164:\n      mload(0x40)\n      dup1\n      swap2\n      sub\n      swap1\n      revert\n    tag_163:\n        /* \"NFTES_Drop_flat.sol\":16427:16432  false */\n      0x00\n        /* \"NFTES_Drop_flat.sol\":16415:16432  isPaused == false */\n      iszero\n      iszero\n        /* \"NFTES_Drop_flat.sol\":16415:16423  isPaused */\n      0x0e\n      0x00\n      swap1\n      sload\n      swap1\n      0x0100\n      exp\n      swap1\n      div\n      0xff\n      and\n        /* \"NFTES_Drop_flat.sol\":16415:16432  isPaused == false */\n      iszero\n      iszero\n      eq\n        /* \"NFTES_Drop_flat.sol\":16407:16464  require(isPaused == false, \"Dropsite is not Opened Yet.\") */\n      tag_166\n      jumpi\n      mload(0x40)\n      0x08c379a000000000000000000000000000000000000000000000000000000000\n      dup2\n      mstore\n      0x04\n      add\n      tag_167\n      swap1\n      tag_115\n      jump\t// in\n    tag_167:\n      mload(0x40)\n      dup1\n      swap2\n      sub\n      swap1\n      revert\n    tag_166:\n        /* \"NFTES_Drop_flat.sol\":17813:17820  Diamond */\n      sload(0x06)\n        /* \"NFTES_Drop_flat.sol\":17822:17826  Gold */\n      sload(0x07)\n        /* \"NFTES_Drop_flat.sol\":17828:17834  Silver */\n      sload(0x08)\n        /* \"NFTES_Drop_flat.sol\":17805:17835  return (Diamond, Gold, Silver) */\n      swap3\n      pop\n      swap3\n      pop\n      swap3\n      pop\n        /* \"NFTES_Drop_flat.sol\":17601:17842  function checkMintedCategoryWise()... */\n      swap1\n      swap2\n      swap3\n      jump\t// out\n        /* \"NFTES_Drop_flat.sol\":18008:18120  function getMintFee()... */\n    tag_54:\n        /* \"NFTES_Drop_flat.sol\":18075:18082  uint256 */\n      0x00\n        /* \"NFTES_Drop_flat.sol\":18105:18113  mintFees */\n      sload(0x05)\n        /* \"NFTES_Drop_flat.sol\":18098:18113  return mintFees */\n      swap1\n      pop\n        /* \"NFTES_Drop_flat.sol\":18008:18120  function getMintFee()... */\n      swap1\n      jump\t// out\n        /* \"NFTES_Drop_flat.sol\":18900:19012  function contractBalance() public view OnlyOwner returns (uint256) {... */\n    tag_58:\n        /* \"NFTES_Drop_flat.sol\":18958:18965  uint256 */\n      0x00\n        /* \"NFTES_Drop_flat.sol\":16262:16267  Owner */\n      0x0e\n      0x01\n      swap1\n      sload\n      swap1\n      0x0100\n      exp\n      swap1\n      div\n      0xffffffffffffffffffffffffffffffffffffffff\n      and\n        /* \"NFTES_Drop_flat.sol\":16246:16267  _msgSender() == Owner */\n      0xffffffffffffffffffffffffffffffffffffffff\n      and\n        /* \"NFTES_Drop_flat.sol\":16246:16258  _msgSender() */\n      tag_171\n        /* \"NFTES_Drop_flat.sol\":16246:16256  _msgSender */\n      tag_94\n        /* \"NFTES_Drop_flat.sol\":16246:16258  _msgSender() */\n      jump\t// in\n    tag_171:\n        /* \"NFTES_Drop_flat.sol\":16246:16267  _msgSender() == Owner */\n      0xffffffffffffffffffffffffffffffffffffffff\n      and\n      eq\n        /* \"NFTES_Drop_flat.sol\":16238:16300  require(_msgSender() == Owner, \"Only NFT-ES Owner can Access\") */\n      tag_172\n      jumpi\n      mload(0x40)\n      0x08c379a000000000000000000000000000000000000000000000000000000000\n      dup2\n      mstore\n      0x04\n      add\n      tag_173\n      swap1\n      tag_97\n      jump\t// in\n    tag_173:\n      mload(0x40)\n      dup1\n      swap2\n      sub\n      swap1\n      revert\n    tag_172:\n        /* \"NFTES_Drop_flat.sol\":18984:19005  address(this).balance */\n      selfbalance\n        /* \"NFTES_Drop_flat.sol\":18977:19005  return address(this).balance */\n      swap1\n      pop\n        /* \"NFTES_Drop_flat.sol\":18900:19012  function contractBalance() public view OnlyOwner returns (uint256) {... */\n      swap1\n      jump\t// out\n        /* \"NFTES_Drop_flat.sol\":23030:24046  function cryptoRandomMint(address user_addr, uint256 noOfMints, string[] memory tokenURIs)... */\n    tag_63:\n        /* \"NFTES_Drop_flat.sol\":23221:23236  string[] memory */\n      0x60\n        /* \"NFTES_Drop_flat.sol\":16427:16432  false */\n      0x00\n        /* \"NFTES_Drop_flat.sol\":16415:16432  isPaused == false */\n      iszero\n      iszero\n        /* \"NFTES_Drop_flat.sol\":16415:16423  isPaused */\n      0x0e\n      0x00\n      swap1\n      sload\n      swap1\n      0x0100\n      exp\n      swap1\n      div\n      0xff\n      and\n        /* \"NFTES_Drop_flat.sol\":16415:16432  isPaused == false */\n      iszero\n      iszero\n      eq\n        /* \"NFTES_Drop_flat.sol\":16407:16464  require(isPaused == false, \"Dropsite is not Opened Yet.\") */\n      tag_176\n      jumpi\n      mload(0x40)\n      0x08c379a000000000000000000000000000000000000000000000000000000000\n      dup2\n      mstore\n      0x04\n      add\n      tag_177\n      swap1\n      tag_115\n      jump\t// in\n    tag_177:\n      mload(0x40)\n      dup1\n      swap2\n      sub\n      swap1\n      revert\n    tag_176:\n        /* \"NFTES_Drop_flat.sol\":16544:16545  0 */\n      0x00\n        /* \"NFTES_Drop_flat.sol\":16532:16540  mintFees */\n      sload(0x05)\n        /* \"NFTES_Drop_flat.sol\":16532:16545  mintFees != 0 */\n      eq\n      iszero\n        /* \"NFTES_Drop_flat.sol\":16524:16581  require(mintFees != 0, \"Owner Should set mint Fee First\") */\n      tag_179\n      jumpi\n      mload(0x40)\n      0x08c379a000000000000000000000000000000000000000000000000000000000\n      dup2\n      mstore\n      0x04\n      add\n      tag_180\n      swap1\n      tag_129\n      jump\t// in\n    tag_180:\n      mload(0x40)\n      dup1\n      swap2\n      sub\n      swap1\n      revert\n    tag_179:\n        /* \"NFTES_Drop_flat.sol\":23272:23273  4 */\n      0x04\n        /* \"NFTES_Drop_flat.sol\":23260:23269  noOfMints */\n      dup4\n        /* \"NFTES_Drop_flat.sol\":23260:23273  noOfMints < 4 */\n      lt\n        /* \"NFTES_Drop_flat.sol\":23260:23290  noOfMints < 4 && noOfMints > 0 */\n      dup1\n      iszero\n      tag_182\n      jumpi\n      pop\n        /* \"NFTES_Drop_flat.sol\":23289:23290  0 */\n      0x00\n        /* \"NFTES_Drop_flat.sol\":23277:23286  noOfMints */\n      dup4\n        /* \"NFTES_Drop_flat.sol\":23277:23290  noOfMints > 0 */\n      gt\n        /* \"NFTES_Drop_flat.sol\":23260:23290  noOfMints < 4 && noOfMints > 0 */\n    tag_182:\n        /* \"NFTES_Drop_flat.sol\":23252:23316  require(noOfMints < 4 && noOfMints > 0, \"You can mint 1-3 NFTs\") */\n      tag_183\n      jumpi\n      mload(0x40)\n      0x08c379a000000000000000000000000000000000000000000000000000000000\n      dup2\n      mstore\n      0x04\n      add\n      tag_184\n      swap1\n      tag_134\n      jump\t// in\n    tag_184:\n      mload(0x40)\n      dup1\n      swap2\n      sub\n      swap1\n      revert\n    tag_183:\n        /* \"NFTES_Drop_flat.sol\":23352:23356  1000 */\n      0x03e8\n        /* \"NFTES_Drop_flat.sol\":23334:23349  totalNFTsMinted */\n      sload(0x03)\n        /* \"NFTES_Drop_flat.sol\":23334:23356  totalNFTsMinted < 1000 */\n      lt\n        /* \"NFTES_Drop_flat.sol\":23326:23386  require(totalNFTsMinted < 1000, \"Max Minting Limit reached\") */\n      tag_185\n      jumpi\n      mload(0x40)\n      0x08c379a000000000000000000000000000000000000000000000000000000000\n      dup2\n      mstore\n      0x04\n      add\n      tag_186\n      swap1\n      tag_137\n      jump\t// in\n    tag_186:\n      mload(0x40)\n      dup1\n      swap2\n      sub\n      swap1\n      revert\n    tag_185:\n        /* \"NFTES_Drop_flat.sol\":23416:23417  0 */\n      0x00\n        /* \"NFTES_Drop_flat.sol\":23404:23412  mintFees */\n      sload(0x05)\n        /* \"NFTES_Drop_flat.sol\":23404:23417  mintFees != 0 */\n      eq\n      iszero\n        /* \"NFTES_Drop_flat.sol\":23396:23438  require(mintFees != 0, \"Mint Fee Not Set\") */\n      tag_187\n      jumpi\n      mload(0x40)\n      0x08c379a000000000000000000000000000000000000000000000000000000000\n      dup2\n      mstore\n      0x04\n      add\n      tag_188\n      swap1\n      tag_140\n      jump\t// in\n    tag_188:\n      mload(0x40)\n      dup1\n      swap2\n      sub\n      swap1\n      revert\n    tag_187:\n        /* \"NFTES_Drop_flat.sol\":23480:23489  noOfMints */\n      dup3\n        /* \"NFTES_Drop_flat.sol\":23469:23477  mintFees */\n      sload(0x05)\n        /* \"NFTES_Drop_flat.sol\":23469:23489  mintFees * noOfMints */\n      tag_189\n      swap2\n      swap1\n      tag_190\n      jump\t// in\n    tag_189:\n        /* \"NFTES_Drop_flat.sol\":23456:23465  msg.value */\n      callvalue\n        /* \"NFTES_Drop_flat.sol\":23456:23489  msg.value == mintFees * noOfMints */\n      eq\n        /* \"NFTES_Drop_flat.sol\":23448:23512  require(msg.value == mintFees * noOfMints, \"Not Enough Balance\") */\n      tag_191\n      jumpi\n      mload(0x40)\n      0x08c379a000000000000000000000000000000000000000000000000000000000\n      dup2\n      mstore\n      0x04\n      add\n      tag_192\n      swap1\n      tag_193\n      jump\t// in\n    tag_192:\n      mload(0x40)\n      dup1\n      swap2\n      sub\n      swap1\n      revert\n    tag_191:\n        /* \"NFTES_Drop_flat.sol\":23522:23540  uint returnedNftID */\n      0x00\n        /* \"NFTES_Drop_flat.sol\":23550:23579  string memory returnedNftData */\n      0x60\n        /* \"NFTES_Drop_flat.sol\":23589:23621  string[] memory randomMintedNfts */\n      0x00\n        /* \"NFTES_Drop_flat.sol\":23637:23638  3 */\n      0x03\n        /* \"NFTES_Drop_flat.sol\":23624:23639  new string[](3) */\n      0xffffffffffffffff\n      dup2\n      gt\n      iszero\n      tag_194\n      jumpi\n      tag_195\n      tag_143\n      jump\t// in\n    tag_195:\n    tag_194:\n      mload(0x40)\n      swap1\n      dup1\n      dup3\n      mstore\n      dup1\n      0x20\n      mul\n      0x20\n      add\n      dup3\n      add\n      0x40\n      mstore\n      dup1\n      iszero\n      tag_196\n      jumpi\n      dup2\n      0x20\n      add\n    tag_197:\n      0x60\n      dup2\n      mstore\n      0x20\n      add\n      swap1\n      0x01\n      swap1\n      sub\n      swap1\n      dup2\n      tag_197\n      jumpi\n      swap1\n      pop\n    tag_196:\n      pop\n        /* \"NFTES_Drop_flat.sol\":23589:23639  string[] memory randomMintedNfts = new string[](3) */\n      swap1\n      pop\n        /* \"NFTES_Drop_flat.sol\":23654:23663  uint256 i */\n      0x00\n        /* \"NFTES_Drop_flat.sol\":23649:23907  for (uint256 i = 0; i < noOfMints; ++i) {... */\n    tag_198:\n        /* \"NFTES_Drop_flat.sol\":23673:23682  noOfMints */\n      dup7\n        /* \"NFTES_Drop_flat.sol\":23669:23670  i */\n      dup2\n        /* \"NFTES_Drop_flat.sol\":23669:23682  i < noOfMints */\n      lt\n        /* \"NFTES_Drop_flat.sol\":23649:23907  for (uint256 i = 0; i < noOfMints; ++i) {... */\n      iszero\n      tag_199\n      jumpi\n        /* \"NFTES_Drop_flat.sol\":23736:23760  randomMinting(user_addr) */\n      tag_201\n        /* \"NFTES_Drop_flat.sol\":23750:23759  user_addr */\n      dup9\n        /* \"NFTES_Drop_flat.sol\":23736:23749  randomMinting */\n      tag_150\n        /* \"NFTES_Drop_flat.sol\":23736:23760  randomMinting(user_addr) */\n      jump\t// in\n    tag_201:\n        /* \"NFTES_Drop_flat.sol\":23701:23760  (returnedNftID, returnedNftData) = randomMinting(user_addr) */\n      dup1\n      swap5\n      pop\n      dup2\n      swap6\n      pop\n      pop\n      pop\n        /* \"NFTES_Drop_flat.sol\":23842:23873  Strings.toString(returnedNftID) */\n      tag_202\n        /* \"NFTES_Drop_flat.sol\":23859:23872  returnedNftID */\n      dup5\n        /* \"NFTES_Drop_flat.sol\":23842:23858  Strings.toString */\n      tag_152\n        /* \"NFTES_Drop_flat.sol\":23842:23873  Strings.toString(returnedNftID) */\n      jump\t// in\n    tag_202:\n        /* \"NFTES_Drop_flat.sol\":23879:23894  returnedNftData */\n      dup4\n        /* \"NFTES_Drop_flat.sol\":23825:23895  abi.encodePacked(Strings.toString(returnedNftID),\"_\", returnedNftData) */\n      add(0x20, mload(0x40))\n      tag_203\n      swap3\n      swap2\n      swap1\n      tag_154\n      jump\t// in\n    tag_203:\n      mload(0x40)\n      0x20\n      dup2\n      dup4\n      sub\n      sub\n      dup2\n      mstore\n      swap1\n      0x40\n      mstore\n        /* \"NFTES_Drop_flat.sol\":23776:23792  randomMintedNfts */\n      dup3\n        /* \"NFTES_Drop_flat.sol\":23793:23794  i */\n      dup3\n        /* \"NFTES_Drop_flat.sol\":23776:23795  randomMintedNfts[i] */\n      dup2\n      mload\n      dup2\n      lt\n      tag_204\n      jumpi\n      tag_205\n      tag_157\n      jump\t// in\n    tag_205:\n    tag_204:\n      0x20\n      mul\n      0x20\n      add\n      add\n        /* \"NFTES_Drop_flat.sol\":23776:23896  randomMintedNfts[i]= ... */\n      dup2\n      swap1\n      mstore\n      pop\n        /* \"NFTES_Drop_flat.sol\":23684:23687  ++i */\n      dup1\n      tag_206\n      swap1\n      tag_159\n      jump\t// in\n    tag_206:\n      swap1\n      pop\n        /* \"NFTES_Drop_flat.sol\":23649:23907  for (uint256 i = 0; i < noOfMints; ++i) {... */\n      jump(tag_198)\n    tag_199:\n      pop\n        /* \"NFTES_Drop_flat.sol\":23916:23954  depositAmount(_msgSender(), msg.value) */\n      tag_207\n        /* \"NFTES_Drop_flat.sol\":23930:23942  _msgSender() */\n      tag_208\n        /* \"NFTES_Drop_flat.sol\":23930:23940  _msgSender */\n      tag_94\n        /* \"NFTES_Drop_flat.sol\":23930:23942  _msgSender() */\n      jump\t// in\n    tag_208:\n        /* \"NFTES_Drop_flat.sol\":23944:23953  msg.value */\n      callvalue\n        /* \"NFTES_Drop_flat.sol\":23916:23929  depositAmount */\n      tag_209\n        /* \"NFTES_Drop_flat.sol\":23916:23954  depositAmount(_msgSender(), msg.value) */\n      jump\t// in\n    tag_207:\n        /* \"NFTES_Drop_flat.sol\":23978:23987  user_addr */\n      dup7\n        /* \"NFTES_Drop_flat.sol\":23969:24006  isMinted(user_addr, randomMintedNfts) */\n      0xffffffffffffffffffffffffffffffffffffffff\n      and\n      0xb4a5369904dcc0d74d8fb8bbcdeb51f356f20c722499d42a6da95324e634c141\n        /* \"NFTES_Drop_flat.sol\":23989:24005  randomMintedNfts */\n      dup3\n        /* \"NFTES_Drop_flat.sol\":23969:24006  isMinted(user_addr, randomMintedNfts) */\n      mload(0x40)\n      tag_210\n      swap2\n      swap1\n      tag_46\n      jump\t// in\n    tag_210:\n      mload(0x40)\n      dup1\n      swap2\n      sub\n      swap1\n      log2\n        /* \"NFTES_Drop_flat.sol\":24023:24039  randomMintedNfts */\n      dup1\n        /* \"NFTES_Drop_flat.sol\":24016:24039  return randomMintedNfts */\n      swap4\n      pop\n      pop\n      pop\n      pop\n        /* \"NFTES_Drop_flat.sol\":23030:24046  function cryptoRandomMint(address user_addr, uint256 noOfMints, string[] memory tokenURIs)... */\n      swap4\n      swap3\n      pop\n      pop\n      pop\n      jump\t// out\n        /* \"NFTES_Drop_flat.sol\":17148:17302  function changeOwner(address newOwnerAddr)... */\n    tag_68:\n        /* \"NFTES_Drop_flat.sol\":16262:16267  Owner */\n      0x0e\n      0x01\n      swap1\n      sload\n      swap1\n      0x0100\n      exp\n      swap1\n      div\n      0xffffffffffffffffffffffffffffffffffffffff\n      and\n        /* \"NFTES_Drop_flat.sol\":16246:16267  _msgSender() == Owner */\n      0xffffffffffffffffffffffffffffffffffffffff\n      and\n        /* \"NFTES_Drop_flat.sol\":16246:16258  _msgSender() */\n      tag_212\n        /* \"NFTES_Drop_flat.sol\":16246:16256  _msgSender */\n      tag_94\n        /* \"NFTES_Drop_flat.sol\":16246:16258  _msgSender() */\n      jump\t// in\n    tag_212:\n        /* \"NFTES_Drop_flat.sol\":16246:16267  _msgSender() == Owner */\n      0xffffffffffffffffffffffffffffffffffffffff\n      and\n      eq\n        /* \"NFTES_Drop_flat.sol\":16238:16300  require(_msgSender() == Owner, \"Only NFT-ES Owner can Access\") */\n      tag_213\n      jumpi\n      mload(0x40)\n      0x08c379a000000000000000000000000000000000000000000000000000000000\n      dup2\n      mstore\n      0x04\n      add\n      tag_214\n      swap1\n      tag_97\n      jump\t// in\n    tag_214:\n      mload(0x40)\n      dup1\n      swap2\n      sub\n      swap1\n      revert\n    tag_213:\n        /* \"NFTES_Drop_flat.sol\":16427:16432  false */\n      0x00\n        /* \"NFTES_Drop_flat.sol\":16415:16432  isPaused == false */\n      iszero\n      iszero\n        /* \"NFTES_Drop_flat.sol\":16415:16423  isPaused */\n      0x0e\n      0x00\n      swap1\n      sload\n      swap1\n      0x0100\n      exp\n      swap1\n      div\n      0xff\n      and\n        /* \"NFTES_Drop_flat.sol\":16415:16432  isPaused == false */\n      iszero\n      iszero\n      eq\n        /* \"NFTES_Drop_flat.sol\":16407:16464  require(isPaused == false, \"Dropsite is not Opened Yet.\") */\n      tag_216\n      jumpi\n      mload(0x40)\n      0x08c379a000000000000000000000000000000000000000000000000000000000\n      dup2\n      mstore\n      0x04\n      add\n      tag_217\n      swap1\n      tag_115\n      jump\t// in\n    tag_217:\n      mload(0x40)\n      dup1\n      swap2\n      sub\n      swap1\n      revert\n    tag_216:\n        /* \"NFTES_Drop_flat.sol\":17282:17294  newOwnerAddr */\n      dup1\n        /* \"NFTES_Drop_flat.sol\":17266:17271  Owner */\n      0x0e\n      0x01\n        /* \"NFTES_Drop_flat.sol\":17266:17295  Owner = payable(newOwnerAddr) */\n      0x0100\n      exp\n      dup2\n      sload\n      dup2\n      0xffffffffffffffffffffffffffffffffffffffff\n      mul\n      not\n      and\n      swap1\n      dup4\n      0xffffffffffffffffffffffffffffffffffffffff\n      and\n      mul\n      or\n      swap1\n      sstore\n      pop\n        /* \"NFTES_Drop_flat.sol\":17148:17302  function changeOwner(address newOwnerAddr)... */\n      pop\n      jump\t// out\n        /* \"NFTES_Drop_flat.sol\":18262:18402  function stopDropsite() public OnlyOwner {... */\n    tag_71:\n        /* \"NFTES_Drop_flat.sol\":16262:16267  Owner */\n      0x0e\n      0x01\n      swap1\n      sload\n      swap1\n      0x0100\n      exp\n      swap1\n      div\n      0xffffffffffffffffffffffffffffffffffffffff\n      and\n        /* \"NFTES_Drop_flat.sol\":16246:16267  _msgSender() == Owner */\n      0xffffffffffffffffffffffffffffffffffffffff\n      and\n        /* \"NFTES_Drop_flat.sol\":16246:16258  _msgSender() */\n      tag_220\n        /* \"NFTES_Drop_flat.sol\":16246:16256  _msgSender */\n      tag_94\n        /* \"NFTES_Drop_flat.sol\":16246:16258  _msgSender() */\n      jump\t// in\n    tag_220:\n        /* \"NFTES_Drop_flat.sol\":16246:16267  _msgSender() == Owner */\n      0xffffffffffffffffffffffffffffffffffffffff\n      and\n      eq\n        /* \"NFTES_Drop_flat.sol\":16238:16300  require(_msgSender() == Owner, \"Only NFT-ES Owner can Access\") */\n      tag_221\n      jumpi\n      mload(0x40)\n      0x08c379a000000000000000000000000000000000000000000000000000000000\n      dup2\n      mstore\n      0x04\n      add\n      tag_222\n      swap1\n      tag_97\n      jump\t// in\n    tag_222:\n      mload(0x40)\n      dup1\n      swap2\n      sub\n      swap1\n      revert\n    tag_221:\n        /* \"NFTES_Drop_flat.sol\":18333:18338  false */\n      0x00\n        /* \"NFTES_Drop_flat.sol\":18321:18338  isPaused == false */\n      iszero\n      iszero\n        /* \"NFTES_Drop_flat.sol\":18321:18329  isPaused */\n      0x0e\n      0x00\n      swap1\n      sload\n      swap1\n      0x0100\n      exp\n      swap1\n      div\n      0xff\n      and\n        /* \"NFTES_Drop_flat.sol\":18321:18338  isPaused == false */\n      iszero\n      iszero\n      eq\n        /* \"NFTES_Drop_flat.sol\":18313:18370  require(isPaused == false, \"Dropsite is already Stopped\") */\n      tag_224\n      jumpi\n      mload(0x40)\n      0x08c379a000000000000000000000000000000000000000000000000000000000\n      dup2\n      mstore\n      0x04\n      add\n      tag_225\n      swap1\n      tag_226\n      jump\t// in\n    tag_225:\n      mload(0x40)\n      dup1\n      swap2\n      sub\n      swap1\n      revert\n    tag_224:\n        /* \"NFTES_Drop_flat.sol\":18391:18395  true */\n      0x01\n        /* \"NFTES_Drop_flat.sol\":18380:18388  isPaused */\n      0x0e\n      0x00\n        /* \"NFTES_Drop_flat.sol\":18380:18395  isPaused = true */\n      0x0100\n      exp\n      dup2\n      sload\n      dup2\n      0xff\n      mul\n      not\n      and\n      swap1\n      dup4\n      iszero\n      iszero\n      mul\n      or\n      swap1\n      sstore\n      pop\n        /* \"NFTES_Drop_flat.sol\":18262:18402  function stopDropsite() public OnlyOwner {... */\n      jump\t// out\n        /* \"NFTES_Drop_flat.sol\":16604:16631  bool public isPaused = true */\n    tag_74:\n      0x0e\n      0x00\n      swap1\n      sload\n      swap1\n      0x0100\n      exp\n      swap1\n      div\n      0xff\n      and\n      dup2\n      jump\t// out\n        /* \"NFTES_Drop_flat.sol\":16637:16665  address payable public Owner */\n    tag_79:\n      0x0e\n      0x01\n      swap1\n      sload\n      swap1\n      0x0100\n      exp\n      swap1\n      div\n      0xffffffffffffffffffffffffffffffffffffffff\n      and\n      dup2\n      jump\t// out\n        /* \"NFTES_Drop_flat.sol\":17021:17143  function isAdmin() public view returns (bool){... */\n    tag_84:\n        /* \"NFTES_Drop_flat.sol\":17061:17065  bool */\n      0x00\n        /* \"NFTES_Drop_flat.sol\":17091:17096  Owner */\n      0x0e\n      0x01\n      swap1\n      sload\n      swap1\n      0x0100\n      exp\n      swap1\n      div\n      0xffffffffffffffffffffffffffffffffffffffff\n      and\n        /* \"NFTES_Drop_flat.sol\":17079:17096  msg.sender==Owner */\n      0xffffffffffffffffffffffffffffffffffffffff\n      and\n        /* \"NFTES_Drop_flat.sol\":17079:17089  msg.sender */\n      caller\n        /* \"NFTES_Drop_flat.sol\":17079:17096  msg.sender==Owner */\n      0xffffffffffffffffffffffffffffffffffffffff\n      and\n      eq\n        /* \"NFTES_Drop_flat.sol\":17076:17136  if(msg.sender==Owner) return true;... */\n      iszero\n      tag_228\n      jumpi\n        /* \"NFTES_Drop_flat.sol\":17105:17109  true */\n      0x01\n        /* \"NFTES_Drop_flat.sol\":17098:17109  return true */\n      swap1\n      pop\n      jump(tag_227)\n        /* \"NFTES_Drop_flat.sol\":17076:17136  if(msg.sender==Owner) return true;... */\n    tag_228:\n        /* \"NFTES_Drop_flat.sol\":17131:17136  false */\n      0x00\n        /* \"NFTES_Drop_flat.sol\":17124:17136  return false */\n      swap1\n      pop\n        /* \"NFTES_Drop_flat.sol\":17021:17143  function isAdmin() public view returns (bool){... */\n    tag_227:\n      swap1\n      jump\t// out\n        /* \"NFTES_Drop_flat.sol\":17886:17975  function setMintFee(uint _mintFee) public OnlyOwner  {... */\n    tag_90:\n        /* \"NFTES_Drop_flat.sol\":16262:16267  Owner */\n      0x0e\n      0x01\n      swap1\n      sload\n      swap1\n      0x0100\n      exp\n      swap1\n      div\n      0xffffffffffffffffffffffffffffffffffffffff\n      and\n        /* \"NFTES_Drop_flat.sol\":16246:16267  _msgSender() == Owner */\n      0xffffffffffffffffffffffffffffffffffffffff\n      and\n        /* \"NFTES_Drop_flat.sol\":16246:16258  _msgSender() */\n      tag_231\n        /* \"NFTES_Drop_flat.sol\":16246:16256  _msgSender */\n      tag_94\n        /* \"NFTES_Drop_flat.sol\":16246:16258  _msgSender() */\n      jump\t// in\n    tag_231:\n        /* \"NFTES_Drop_flat.sol\":16246:16267  _msgSender() == Owner */\n      0xffffffffffffffffffffffffffffffffffffffff\n      and\n      eq\n        /* \"NFTES_Drop_flat.sol\":16238:16300  require(_msgSender() == Owner, \"Only NFT-ES Owner can Access\") */\n      tag_232\n      jumpi\n      mload(0x40)\n      0x08c379a000000000000000000000000000000000000000000000000000000000\n      dup2\n      mstore\n      0x04\n      add\n      tag_233\n      swap1\n      tag_97\n      jump\t// in\n    tag_233:\n      mload(0x40)\n      dup1\n      swap2\n      sub\n      swap1\n      revert\n    tag_232:\n        /* \"NFTES_Drop_flat.sol\":17960:17968  _mintFee */\n      dup1\n        /* \"NFTES_Drop_flat.sol\":17949:17957  mintFees */\n      0x05\n        /* \"NFTES_Drop_flat.sol\":17949:17968  mintFees = _mintFee */\n      dup2\n      swap1\n      sstore\n      pop\n        /* \"NFTES_Drop_flat.sol\":17886:17975  function setMintFee(uint _mintFee) public OnlyOwner  {... */\n      pop\n      jump\t// out\n        /* \"NFTES_Drop_flat.sol\":2608:2704  function _msgSender() internal view virtual returns (address) {... */\n    tag_94:\n        /* \"NFTES_Drop_flat.sol\":2661:2668  address */\n      0x00\n        /* \"NFTES_Drop_flat.sol\":2687:2697  msg.sender */\n      caller\n        /* \"NFTES_Drop_flat.sol\":2680:2697  return msg.sender */\n      swap1\n      pop\n        /* \"NFTES_Drop_flat.sol\":2608:2704  function _msgSender() internal view virtual returns (address) {... */\n      swap1\n      jump\t// out\n        /* \"NFTES_Drop_flat.sol\":21365:21847  function randomMinting(address user_addr)... */\n    tag_150:\n        /* \"NFTES_Drop_flat.sol\":21469:21476  uint256 */\n      0x00\n        /* \"NFTES_Drop_flat.sol\":21478:21491  string memory */\n      0x60\n        /* \"NFTES_Drop_flat.sol\":16427:16432  false */\n      0x00\n        /* \"NFTES_Drop_flat.sol\":16415:16432  isPaused == false */\n      iszero\n      iszero\n        /* \"NFTES_Drop_flat.sol\":16415:16423  isPaused */\n      0x0e\n      0x00\n      swap1\n      sload\n      swap1\n      0x0100\n      exp\n      swap1\n      div\n      0xff\n      and\n        /* \"NFTES_Drop_flat.sol\":16415:16432  isPaused == false */\n      iszero\n      iszero\n      eq\n        /* \"NFTES_Drop_flat.sol\":16407:16464  require(isPaused == false, \"Dropsite is not Opened Yet.\") */\n      tag_237\n      jumpi\n      mload(0x40)\n      0x08c379a000000000000000000000000000000000000000000000000000000000\n      dup2\n      mstore\n      0x04\n      add\n      tag_238\n      swap1\n      tag_115\n      jump\t// in\n    tag_238:\n      mload(0x40)\n      dup1\n      swap2\n      sub\n      swap1\n      revert\n    tag_237:\n        /* \"NFTES_Drop_flat.sol\":21587:21600  uint256 index */\n      0x00\n        /* \"NFTES_Drop_flat.sol\":21603:21611  random() */\n      tag_240\n        /* \"NFTES_Drop_flat.sol\":21603:21609  random */\n      tag_241\n        /* \"NFTES_Drop_flat.sol\":21603:21611  random() */\n      jump\t// in\n    tag_240:\n        /* \"NFTES_Drop_flat.sol\":21587:21611  uint256 index = random() */\n      swap1\n      pop\n        /* \"NFTES_Drop_flat.sol\":21621:21634  uint256 nftId */\n      0x00\n        /* \"NFTES_Drop_flat.sol\":21637:21660  updateConditions(index) */\n      tag_242\n        /* \"NFTES_Drop_flat.sol\":21654:21659  index */\n      dup3\n        /* \"NFTES_Drop_flat.sol\":21637:21653  updateConditions */\n      tag_243\n        /* \"NFTES_Drop_flat.sol\":21637:21660  updateConditions(index) */\n      jump\t// in\n    tag_242:\n        /* \"NFTES_Drop_flat.sol\":21621:21660  uint256 nftId = updateConditions(index) */\n      swap1\n      pop\n        /* \"NFTES_Drop_flat.sol\":21670:21712  _mint(user_addr, nftId, numOfCopies, data) */\n      tag_244\n        /* \"NFTES_Drop_flat.sol\":21676:21685  user_addr */\n      dup6\n        /* \"NFTES_Drop_flat.sol\":21687:21692  nftId */\n      dup3\n        /* \"NFTES_Drop_flat.sol\":21694:21705  numOfCopies */\n      sload(0x04)\n        /* \"NFTES_Drop_flat.sol\":21707:21711  data */\n      0x02\n        /* \"NFTES_Drop_flat.sol\":21670:21712  _mint(user_addr, nftId, numOfCopies, data) */\n      dup1\n      sload\n      tag_245\n      swap1\n      tag_246\n      jump\t// in\n    tag_245:\n      dup1\n      0x1f\n      add\n      0x20\n      dup1\n      swap2\n      div\n      mul\n      0x20\n      add\n      mload(0x40)\n      swap1\n      dup2\n      add\n      0x40\n      mstore\n      dup1\n      swap3\n      swap2\n      swap1\n      dup2\n      dup2\n      mstore\n      0x20\n      add\n      dup3\n      dup1\n      sload\n      tag_247\n      swap1\n      tag_246\n      jump\t// in\n    tag_247:\n      dup1\n      iszero\n      tag_248\n      jumpi\n      dup1\n      0x1f\n      lt\n      tag_249\n      jumpi\n      0x0100\n      dup1\n      dup4\n      sload\n      div\n      mul\n      dup4\n      mstore\n      swap2\n      0x20\n      add\n      swap2\n      jump(tag_248)\n    tag_249:\n      dup3\n      add\n      swap2\n      swap1\n      0x00\n      mstore\n      keccak256(0x00, 0x20)\n      swap1\n    tag_250:\n      dup2\n      sload\n      dup2\n      mstore\n      swap1\n      0x01\n      add\n      swap1\n      0x20\n      add\n      dup1\n      dup4\n      gt\n      tag_250\n      jumpi\n      dup3\n      swap1\n      sub\n      0x1f\n      and\n      dup3\n      add\n      swap2\n    tag_248:\n      pop\n      pop\n      pop\n      pop\n      pop\n        /* \"NFTES_Drop_flat.sol\":21670:21675  _mint */\n      tag_251\n        /* \"NFTES_Drop_flat.sol\":21670:21712  _mint(user_addr, nftId, numOfCopies, data) */\n      jump\t// in\n    tag_244:\n        /* \"NFTES_Drop_flat.sol\":21722:21737  totalNFTsMinted */\n      0x03\n      0x00\n        /* \"NFTES_Drop_flat.sol\":21722:21739  totalNFTsMinted++ */\n      dup2\n      sload\n      dup1\n      swap3\n      swap2\n      swap1\n      tag_252\n      swap1\n      tag_159\n      jump\t// in\n    tag_252:\n      swap2\n      swap1\n      pop\n      sstore\n      pop\n        /* \"NFTES_Drop_flat.sol\":21749:21767  dropsite_NFT_Owner */\n      0x0c\n        /* \"NFTES_Drop_flat.sol\":21749:21778  dropsite_NFT_Owner[user_addr] */\n      0x00\n        /* \"NFTES_Drop_flat.sol\":21768:21777  user_addr */\n      dup7\n        /* \"NFTES_Drop_flat.sol\":21749:21778  dropsite_NFT_Owner[user_addr] */\n      0xffffffffffffffffffffffffffffffffffffffff\n      and\n      0xffffffffffffffffffffffffffffffffffffffff\n      and\n      dup2\n      mstore\n      0x20\n      add\n      swap1\n      dup2\n      mstore\n      0x20\n      add\n      0x00\n      keccak256\n        /* \"NFTES_Drop_flat.sol\":21749:21798  dropsite_NFT_Owner[user_addr].owned_Dropsite_NFTs */\n      0x00\n      add\n        /* \"NFTES_Drop_flat.sol\":21804:21809  nftId */\n      dup2\n        /* \"NFTES_Drop_flat.sol\":21749:21810  dropsite_NFT_Owner[user_addr].owned_Dropsite_NFTs.push(nftId) */\n      swap1\n      dup1\n      0x01\n      dup2\n      sload\n      add\n      dup1\n      dup3\n      sstore\n      dup1\n      swap2\n      pop\n      pop\n      0x01\n      swap1\n      sub\n      swap1\n      0x00\n      mstore\n      keccak256(0x00, 0x20)\n      add\n      0x00\n      swap1\n      swap2\n      swap1\n      swap2\n      swap1\n      swap2\n      pop\n      sstore\n        /* \"NFTES_Drop_flat.sol\":21828:21833  nftId */\n      dup1\n        /* \"NFTES_Drop_flat.sol\":21835:21839  data */\n      0x02\n        /* \"NFTES_Drop_flat.sol\":21820:21840  return (nftId, data) */\n      dup1\n      dup1\n      sload\n      tag_254\n      swap1\n      tag_246\n      jump\t// in\n    tag_254:\n      dup1\n      0x1f\n      add\n      0x20\n      dup1\n      swap2\n      div\n      mul\n      0x20\n      add\n      mload(0x40)\n      swap1\n      dup2\n      add\n      0x40\n      mstore\n      dup1\n      swap3\n      swap2\n      swap1\n      dup2\n      dup2\n      mstore\n      0x20\n      add\n      dup3\n      dup1\n      sload\n      tag_255\n      swap1\n      tag_246\n      jump\t// in\n    tag_255:\n      dup1\n      iszero\n      tag_256\n      jumpi\n      dup1\n      0x1f\n      lt\n      tag_257\n      jumpi\n      0x0100\n      dup1\n      dup4\n      sload\n      div\n      mul\n      dup4\n      mstore\n      swap2\n      0x20\n      add\n      swap2\n      jump(tag_256)\n    tag_257:\n      dup3\n      add\n      swap2\n      swap1\n      0x00\n      mstore\n      keccak256(0x00, 0x20)\n      swap1\n    tag_258:\n      dup2\n      sload\n      dup2\n      mstore\n      swap1\n      0x01\n      add\n      swap1\n      0x20\n      add\n      dup1\n      dup4\n      gt\n      tag_258\n      jumpi\n      dup3\n      swap1\n      sub\n      0x1f\n      and\n      dup3\n      add\n      swap2\n    tag_256:\n      pop\n      pop\n      pop\n      pop\n      pop\n      swap1\n      pop\n      swap4\n      pop\n      swap4\n      pop\n      pop\n      pop\n        /* \"NFTES_Drop_flat.sol\":21365:21847  function randomMinting(address user_addr)... */\n      swap2\n      pop\n      swap2\n      jump\t// out\n        /* \"NFTES_Drop_flat.sol\":273:976  function toString(uint256 value) internal pure returns (string memory) {... */\n    tag_152:\n        /* \"NFTES_Drop_flat.sol\":329:342  string memory */\n      0x60\n        /* \"NFTES_Drop_flat.sol\":555:556  0 */\n      0x00\n        /* \"NFTES_Drop_flat.sol\":546:551  value */\n      dup3\n        /* \"NFTES_Drop_flat.sol\":546:556  value == 0 */\n      eq\n        /* \"NFTES_Drop_flat.sol\":542:593  if (value == 0) {... */\n      iszero\n      tag_260\n      jumpi\n        /* \"NFTES_Drop_flat.sol\":572:582  return \"0\" */\n      mload(0x40)\n      dup1\n      0x40\n      add\n      0x40\n      mstore\n      dup1\n      0x01\n      dup2\n      mstore\n      0x20\n      add\n      0x3000000000000000000000000000000000000000000000000000000000000000\n      dup2\n      mstore\n      pop\n      swap1\n      pop\n      jump(tag_259)\n        /* \"NFTES_Drop_flat.sol\":542:593  if (value == 0) {... */\n    tag_260:\n        /* \"NFTES_Drop_flat.sol\":602:614  uint256 temp */\n      0x00\n        /* \"NFTES_Drop_flat.sol\":617:622  value */\n      dup3\n        /* \"NFTES_Drop_flat.sol\":602:622  uint256 temp = value */\n      swap1\n      pop\n        /* \"NFTES_Drop_flat.sol\":632:646  uint256 digits */\n      0x00\n        /* \"NFTES_Drop_flat.sol\":656:731  while (temp != 0) {... */\n    tag_261:\n        /* \"NFTES_Drop_flat.sol\":671:672  0 */\n      0x00\n        /* \"NFTES_Drop_flat.sol\":663:667  temp */\n      dup3\n        /* \"NFTES_Drop_flat.sol\":663:672  temp != 0 */\n      eq\n        /* \"NFTES_Drop_flat.sol\":656:731  while (temp != 0) {... */\n      tag_262\n      jumpi\n        /* \"NFTES_Drop_flat.sol\":688:696  digits++ */\n      dup1\n      dup1\n      tag_263\n      swap1\n      tag_159\n      jump\t// in\n    tag_263:\n      swap2\n      pop\n      pop\n        /* \"NFTES_Drop_flat.sol\":718:720  10 */\n      0x0a\n        /* \"NFTES_Drop_flat.sol\":710:720  temp /= 10 */\n      dup3\n      tag_264\n      swap2\n      swap1\n      tag_265\n      jump\t// in\n    tag_264:\n      swap2\n      pop\n        /* \"NFTES_Drop_flat.sol\":656:731  while (temp != 0) {... */\n      jump(tag_261)\n    tag_262:\n        /* \"NFTES_Drop_flat.sol\":740:759  bytes memory buffer */\n      0x00\n        /* \"NFTES_Drop_flat.sol\":772:778  digits */\n      dup2\n        /* \"NFTES_Drop_flat.sol\":762:779  new bytes(digits) */\n      0xffffffffffffffff\n      dup2\n      gt\n      iszero\n      tag_266\n      jumpi\n      tag_267\n      tag_143\n      jump\t// in\n    tag_267:\n    tag_266:\n      mload(0x40)\n      swap1\n      dup1\n      dup3\n      mstore\n      dup1\n      0x1f\n      add\n      not(0x1f)\n      and\n      0x20\n      add\n      dup3\n      add\n      0x40\n      mstore\n      dup1\n      iszero\n      tag_268\n      jumpi\n      dup2\n      0x20\n      add\n      0x01\n      dup3\n      mul\n      dup1\n      calldatasize\n      dup4\n      calldatacopy\n      dup1\n      dup3\n      add\n      swap2\n      pop\n      pop\n      swap1\n      pop\n    tag_268:\n      pop\n        /* \"NFTES_Drop_flat.sol\":740:779  bytes memory buffer = new bytes(digits) */\n      swap1\n      pop\n        /* \"NFTES_Drop_flat.sol\":789:939  while (value != 0) {... */\n    tag_269:\n        /* \"NFTES_Drop_flat.sol\":805:806  0 */\n      0x00\n        /* \"NFTES_Drop_flat.sol\":796:801  value */\n      dup6\n        /* \"NFTES_Drop_flat.sol\":796:806  value != 0 */\n      eq\n        /* \"NFTES_Drop_flat.sol\":789:939  while (value != 0) {... */\n      tag_270\n      jumpi\n        /* \"NFTES_Drop_flat.sol\":832:833  1 */\n      0x01\n        /* \"NFTES_Drop_flat.sol\":822:833  digits -= 1 */\n      dup3\n      tag_271\n      swap2\n      swap1\n      tag_272\n      jump\t// in\n    tag_271:\n      swap2\n      pop\n        /* \"NFTES_Drop_flat.sol\":898:900  10 */\n      0x0a\n        /* \"NFTES_Drop_flat.sol\":890:895  value */\n      dup6\n        /* \"NFTES_Drop_flat.sol\":890:900  value % 10 */\n      tag_273\n      swap2\n      swap1\n      tag_274\n      jump\t// in\n    tag_273:\n        /* \"NFTES_Drop_flat.sol\":877:879  48 */\n      0x30\n        /* \"NFTES_Drop_flat.sol\":877:901  48 + uint256(value % 10) */\n      tag_275\n      swap2\n      swap1\n      tag_276\n      jump\t// in\n    tag_275:\n        /* \"NFTES_Drop_flat.sol\":864:903  bytes1(uint8(48 + uint256(value % 10))) */\n      0xf8\n      shl\n        /* \"NFTES_Drop_flat.sol\":847:853  buffer */\n      dup2\n        /* \"NFTES_Drop_flat.sol\":854:860  digits */\n      dup4\n        /* \"NFTES_Drop_flat.sol\":847:861  buffer[digits] */\n      dup2\n      mload\n      dup2\n      lt\n      tag_277\n      jumpi\n      tag_278\n      tag_157\n      jump\t// in\n    tag_278:\n    tag_277:\n      0x20\n      add\n      add\n        /* \"NFTES_Drop_flat.sol\":847:903  buffer[digits] = bytes1(uint8(48 + uint256(value % 10))) */\n      swap1\n      not(0xffffffffffffffffffffffffffffffffffffffffffffffffffffffffffffff)\n      and\n      swap1\n      dup2\n      0x00\n      byte\n      swap1\n      mstore8\n      pop\n        /* \"NFTES_Drop_flat.sol\":926:928  10 */\n      0x0a\n        /* \"NFTES_Drop_flat.sol\":917:928  value /= 10 */\n      dup6\n      tag_279\n      swap2\n      swap1\n      tag_265\n      jump\t// in\n    tag_279:\n      swap5\n      pop\n        /* \"NFTES_Drop_flat.sol\":789:939  while (value != 0) {... */\n      jump(tag_269)\n    tag_270:\n        /* \"NFTES_Drop_flat.sol\":962:968  buffer */\n      dup1\n        /* \"NFTES_Drop_flat.sol\":948:969  return string(buffer) */\n      swap4\n      pop\n      pop\n      pop\n      pop\n        /* \"NFTES_Drop_flat.sol\":273:976  function toString(uint256 value) internal pure returns (string memory) {... */\n    tag_259:\n      swap2\n      swap1\n      pop\n      jump\t// out\n        /* \"NFTES_Drop_flat.sol\":22806:22929  function depositAmount(address payee, uint256 amountToDeposit) internal {... */\n    tag_209:\n        /* \"NFTES_Drop_flat.sol\":22907:22922  amountToDeposit */\n      dup1\n        /* \"NFTES_Drop_flat.sol\":22888:22896  deposits */\n      0x0d\n        /* \"NFTES_Drop_flat.sol\":22888:22903  deposits[payee] */\n      0x00\n        /* \"NFTES_Drop_flat.sol\":22897:22902  payee */\n      dup5\n        /* \"NFTES_Drop_flat.sol\":22888:22903  deposits[payee] */\n      0xffffffffffffffffffffffffffffffffffffffff\n      and\n      0xffffffffffffffffffffffffffffffffffffffff\n      and\n      dup2\n      mstore\n      0x20\n      add\n      swap1\n      dup2\n      mstore\n      0x20\n      add\n      0x00\n      keccak256\n      0x00\n        /* \"NFTES_Drop_flat.sol\":22888:22922  deposits[payee] += amountToDeposit */\n      dup3\n      dup3\n      sload\n      tag_281\n      swap2\n      swap1\n      tag_276\n      jump\t// in\n    tag_281:\n      swap3\n      pop\n      pop\n      dup2\n      swap1\n      sstore\n      pop\n        /* \"NFTES_Drop_flat.sol\":22806:22929  function depositAmount(address payee, uint256 amountToDeposit) internal {... */\n      pop\n      pop\n      jump\t// out\n        /* \"NFTES_Drop_flat.sol\":19123:19665  function random() internal view returns (uint256) {... */\n    tag_241:\n        /* \"NFTES_Drop_flat.sol\":19164:19171  uint256 */\n      0x00\n        /* \"NFTES_Drop_flat.sol\":19260:19280  uint256 randomnumber */\n      dup1\n        /* \"NFTES_Drop_flat.sol\":19520:19527  Diamond */\n      sload(0x06)\n        /* \"NFTES_Drop_flat.sol\":19489:19493  Gold */\n      sload(0x07)\n        /* \"NFTES_Drop_flat.sol\":19456:19462  Silver */\n      sload(0x08)\n        /* \"NFTES_Drop_flat.sol\":19414:19429  totalNFTsMinted */\n      sload(0x03)\n        /* \"NFTES_Drop_flat.sol\":19371:19386  block.timestamp */\n      timestamp\n        /* \"NFTES_Drop_flat.sol\":19370:19429  (block.timestamp) +... */\n      tag_283\n      swap2\n      swap1\n      tag_276\n      jump\t// in\n    tag_283:\n        /* \"NFTES_Drop_flat.sol\":19370:19462  (block.timestamp) +... */\n      tag_284\n      swap2\n      swap1\n      tag_276\n      jump\t// in\n    tag_284:\n        /* \"NFTES_Drop_flat.sol\":19370:19493  (block.timestamp) +... */\n      tag_285\n      swap2\n      swap1\n      tag_276\n      jump\t// in\n    tag_285:\n        /* \"NFTES_Drop_flat.sol\":19370:19527  (block.timestamp) +... */\n      tag_286\n      swap2\n      swap1\n      tag_276\n      jump\t// in\n    tag_286:\n        /* \"NFTES_Drop_flat.sol\":19550:19560  msg.sender */\n      caller\n        /* \"NFTES_Drop_flat.sol\":19582:19587  Owner */\n      0x0e\n      0x01\n      swap1\n      sload\n      swap1\n      0x0100\n      exp\n      swap1\n      div\n      0xffffffffffffffffffffffffffffffffffffffff\n      and\n        /* \"NFTES_Drop_flat.sol\":19331:19605  abi.encodePacked(... */\n      add(0x20, mload(0x40))\n      tag_287\n      swap4\n      swap3\n      swap2\n      swap1\n      tag_288\n      jump\t// in\n    tag_287:\n      mload(0x40)\n      0x20\n      dup2\n      dup4\n      sub\n      sub\n      dup2\n      mstore\n      swap1\n      0x40\n      mstore\n        /* \"NFTES_Drop_flat.sol\":19304:19619  keccak256(... */\n      dup1\n      mload\n      swap1\n      0x20\n      add\n      keccak256\n        /* \"NFTES_Drop_flat.sol\":19283:19629  uint256(... */\n      0x00\n      shr\n        /* \"NFTES_Drop_flat.sol\":19260:19629  uint256 randomnumber = uint256(... */\n      swap1\n      pop\n        /* \"NFTES_Drop_flat.sol\":19646:19658  randomnumber */\n      dup1\n        /* \"NFTES_Drop_flat.sol\":19639:19658  return randomnumber */\n      swap2\n      pop\n      pop\n        /* \"NFTES_Drop_flat.sol\":19123:19665  function random() internal view returns (uint256) {... */\n      swap1\n      jump\t// out\n        /* \"NFTES_Drop_flat.sol\":19717:21359  function updateConditions(uint256 index)... */\n    tag_243:\n        /* \"NFTES_Drop_flat.sol\":19820:19827  uint256 */\n      0x00\n        /* \"NFTES_Drop_flat.sol\":16427:16432  false */\n      dup1\n        /* \"NFTES_Drop_flat.sol\":16415:16432  isPaused == false */\n      iszero\n      iszero\n        /* \"NFTES_Drop_flat.sol\":16415:16423  isPaused */\n      0x0e\n      0x00\n      swap1\n      sload\n      swap1\n      0x0100\n      exp\n      swap1\n      div\n      0xff\n      and\n        /* \"NFTES_Drop_flat.sol\":16415:16432  isPaused == false */\n      iszero\n      iszero\n      eq\n        /* \"NFTES_Drop_flat.sol\":16407:16464  require(isPaused == false, \"Dropsite is not Opened Yet.\") */\n      tag_290\n      jumpi\n      mload(0x40)\n      0x08c379a000000000000000000000000000000000000000000000000000000000\n      dup2\n      mstore\n      0x04\n      add\n      tag_291\n      swap1\n      tag_115\n      jump\t// in\n    tag_291:\n      mload(0x40)\n      dup1\n      swap2\n      sub\n      swap1\n      revert\n    tag_290:\n        /* \"NFTES_Drop_flat.sol\":19843:19853  uint nftId */\n      0x00\n        /* \"NFTES_Drop_flat.sol\":19882:19883  1 */\n      0x01\n        /* \"NFTES_Drop_flat.sol\":19876:19878  20 */\n      0x14\n        /* \"NFTES_Drop_flat.sol\":19867:19872  index */\n      dup5\n        /* \"NFTES_Drop_flat.sol\":19866:19878  (index) % 20 */\n      tag_293\n      swap2\n      swap1\n      tag_274\n      jump\t// in\n    tag_293:\n        /* \"NFTES_Drop_flat.sol\":19866:19883  (index) % 20 == 1 */\n      eq\n        /* \"NFTES_Drop_flat.sol\":19866:19912  (index) % 20 == 1 && Diamond < maxDiamondCount */\n      dup1\n      iszero\n      tag_294\n      jumpi\n      pop\n        /* \"NFTES_Drop_flat.sol\":19897:19912  maxDiamondCount */\n      sload(0x09)\n        /* \"NFTES_Drop_flat.sol\":19887:19894  Diamond */\n      sload(0x06)\n        /* \"NFTES_Drop_flat.sol\":19887:19912  Diamond < maxDiamondCount */\n      lt\n        /* \"NFTES_Drop_flat.sol\":19866:19912  (index) % 20 == 1 && Diamond < maxDiamondCount */\n    tag_294:\n        /* \"NFTES_Drop_flat.sol\":19863:21353  if((index) % 20 == 1 && Diamond < maxDiamondCount){... */\n      iszero\n      tag_295\n      jumpi\n        /* \"NFTES_Drop_flat.sol\":19927:19934  Diamond */\n      0x06\n      0x00\n        /* \"NFTES_Drop_flat.sol\":19927:19936  Diamond++ */\n      dup2\n      sload\n      dup1\n      swap3\n      swap2\n      swap1\n      tag_296\n      swap1\n      tag_159\n      jump\t// in\n    tag_296:\n      swap2\n      swap1\n      pop\n      sstore\n      pop\n        /* \"NFTES_Drop_flat.sol\":20010:20035  Strings.toString(Diamond) */\n      tag_297\n        /* \"NFTES_Drop_flat.sol\":20027:20034  Diamond */\n      sload(0x06)\n        /* \"NFTES_Drop_flat.sol\":20010:20026  Strings.toString */\n      tag_152\n        /* \"NFTES_Drop_flat.sol\":20010:20035  Strings.toString(Diamond) */\n      jump\t// in\n    tag_297:\n        /* \"NFTES_Drop_flat.sol\":19981:20036  abi.encodePacked(\"Diamond_\", Strings.toString(Diamond)) */\n      add(0x20, mload(0x40))\n      tag_298\n      swap2\n      swap1\n      tag_299\n      jump\t// in\n    tag_298:\n      mload(0x40)\n      0x20\n      dup2\n      dup4\n      sub\n      sub\n      dup2\n      mstore\n      swap1\n      0x40\n      mstore\n        /* \"NFTES_Drop_flat.sol\":19950:19954  data */\n      0x02\n        /* \"NFTES_Drop_flat.sol\":19950:20050  data = string(... */\n      swap1\n      dup1\n      mload\n      swap1\n      0x20\n      add\n      swap1\n      tag_300\n      swap3\n      swap2\n      swap1\n      tag_301\n      jump\t// in\n    tag_300:\n      pop\n        /* \"NFTES_Drop_flat.sol\":20077:20078  0 */\n      0x00\n        /* \"NFTES_Drop_flat.sol\":20071:20078  nftId=0 */\n      swap1\n      pop\n      dup1\n        /* \"NFTES_Drop_flat.sol\":20064:20078  return nftId=0 */\n      swap2\n      pop\n      pop\n      jump(tag_292)\n        /* \"NFTES_Drop_flat.sol\":19863:21353  if((index) % 20 == 1 && Diamond < maxDiamondCount){... */\n    tag_295:\n        /* \"NFTES_Drop_flat.sol\":20207:20208  3 */\n      0x03\n        /* \"NFTES_Drop_flat.sol\":20201:20203  20 */\n      0x14\n        /* \"NFTES_Drop_flat.sol\":20192:20197  index */\n      dup5\n        /* \"NFTES_Drop_flat.sol\":20191:20203  (index) % 20 */\n      tag_303\n      swap2\n      swap1\n      tag_274\n      jump\t// in\n    tag_303:\n        /* \"NFTES_Drop_flat.sol\":20191:20208  (index) % 20 <= 3 */\n      gt\n      iszero\n        /* \"NFTES_Drop_flat.sol\":20191:20231  (index) % 20 <= 3 && Gold < maxGoldCount */\n      dup1\n      iszero\n      tag_304\n      jumpi\n      pop\n        /* \"NFTES_Drop_flat.sol\":20219:20231  maxGoldCount */\n      sload(0x0a)\n        /* \"NFTES_Drop_flat.sol\":20212:20216  Gold */\n      sload(0x07)\n        /* \"NFTES_Drop_flat.sol\":20212:20231  Gold < maxGoldCount */\n      lt\n        /* \"NFTES_Drop_flat.sol\":20191:20231  (index) % 20 <= 3 && Gold < maxGoldCount */\n    tag_304:\n        /* \"NFTES_Drop_flat.sol\":20187:21353  if ((index) % 20 <= 3 && Gold < maxGoldCount) {... */\n      iszero\n      tag_305\n      jumpi\n        /* \"NFTES_Drop_flat.sol\":20247:20251  Gold */\n      0x07\n      0x00\n        /* \"NFTES_Drop_flat.sol\":20247:20253  Gold++ */\n      dup2\n      sload\n      dup1\n      swap3\n      swap2\n      swap1\n      tag_306\n      swap1\n      tag_159\n      jump\t// in\n    tag_306:\n      swap2\n      swap1\n      pop\n      sstore\n      pop\n        /* \"NFTES_Drop_flat.sol\":20307:20329  Strings.toString(Gold) */\n      tag_307\n        /* \"NFTES_Drop_flat.sol\":20324:20328  Gold */\n      sload(0x07)\n        /* \"NFTES_Drop_flat.sol\":20307:20323  Strings.toString */\n      tag_152\n        /* \"NFTES_Drop_flat.sol\":20307:20329  Strings.toString(Gold) */\n      jump\t// in\n    tag_307:\n        /* \"NFTES_Drop_flat.sol\":20281:20330  abi.encodePacked(\"Gold_\", Strings.toString(Gold)) */\n      add(0x20, mload(0x40))\n      tag_308\n      swap2\n      swap1\n      tag_309\n      jump\t// in\n    tag_308:\n      mload(0x40)\n      0x20\n      dup2\n      dup4\n      sub\n      sub\n      dup2\n      mstore\n      swap1\n      0x40\n      mstore\n        /* \"NFTES_Drop_flat.sol\":20267:20271  data */\n      0x02\n        /* \"NFTES_Drop_flat.sol\":20267:20331  data = string(abi.encodePacked(\"Gold_\", Strings.toString(Gold))) */\n      swap1\n      dup1\n      mload\n      swap1\n      0x20\n      add\n      swap1\n      tag_310\n      swap3\n      swap2\n      swap1\n      tag_301\n      jump\t// in\n    tag_310:\n      pop\n        /* \"NFTES_Drop_flat.sol\":20358:20359  1 */\n      0x01\n        /* \"NFTES_Drop_flat.sol\":20352:20359  nftId=1 */\n      swap1\n      pop\n      dup1\n        /* \"NFTES_Drop_flat.sol\":20345:20359  return nftId=1 */\n      swap2\n      pop\n      pop\n      jump(tag_292)\n        /* \"NFTES_Drop_flat.sol\":20187:21353  if ((index) % 20 <= 3 && Gold < maxGoldCount) {... */\n    tag_305:\n        /* \"NFTES_Drop_flat.sol\":20499:20500  3 */\n      0x03\n        /* \"NFTES_Drop_flat.sol\":20494:20496  20 */\n      0x14\n        /* \"NFTES_Drop_flat.sol\":20485:20490  index */\n      dup5\n        /* \"NFTES_Drop_flat.sol\":20484:20496  (index) % 20 */\n      tag_312\n      swap2\n      swap1\n      tag_274\n      jump\t// in\n    tag_312:\n        /* \"NFTES_Drop_flat.sol\":20484:20500  (index) % 20 > 3 */\n      gt\n        /* \"NFTES_Drop_flat.sol\":20484:20527  (index) % 20 > 3 && Silver < maxSilverCount */\n      dup1\n      iszero\n      tag_313\n      jumpi\n      pop\n        /* \"NFTES_Drop_flat.sol\":20513:20527  maxSilverCount */\n      sload(0x0b)\n        /* \"NFTES_Drop_flat.sol\":20504:20510  Silver */\n      sload(0x08)\n        /* \"NFTES_Drop_flat.sol\":20504:20527  Silver < maxSilverCount */\n      lt\n        /* \"NFTES_Drop_flat.sol\":20484:20527  (index) % 20 > 3 && Silver < maxSilverCount */\n    tag_313:\n        /* \"NFTES_Drop_flat.sol\":20480:21353  if ((index) % 20 > 3 && Silver < maxSilverCount) {... */\n      iszero\n      tag_314\n      jumpi\n        /* \"NFTES_Drop_flat.sol\":20543:20549  Silver */\n      0x08\n      0x00\n        /* \"NFTES_Drop_flat.sol\":20543:20551  Silver++ */\n      dup2\n      sload\n      dup1\n      swap3\n      swap2\n      swap1\n      tag_315\n      swap1\n      tag_159\n      jump\t// in\n    tag_315:\n      swap2\n      swap1\n      pop\n      sstore\n      pop\n        /* \"NFTES_Drop_flat.sol\":20624:20648  Strings.toString(Silver) */\n      tag_316\n        /* \"NFTES_Drop_flat.sol\":20641:20647  Silver */\n      sload(0x08)\n        /* \"NFTES_Drop_flat.sol\":20624:20640  Strings.toString */\n      tag_152\n        /* \"NFTES_Drop_flat.sol\":20624:20648  Strings.toString(Silver) */\n      jump\t// in\n    tag_316:\n        /* \"NFTES_Drop_flat.sol\":20596:20649  abi.encodePacked(\"Silver_\", Strings.toString(Silver)) */\n      add(0x20, mload(0x40))\n      tag_317\n      swap2\n      swap1\n      tag_318\n      jump\t// in\n    tag_317:\n      mload(0x40)\n      0x20\n      dup2\n      dup4\n      sub\n      sub\n      dup2\n      mstore\n      swap1\n      0x40\n      mstore\n        /* \"NFTES_Drop_flat.sol\":20565:20569  data */\n      0x02\n        /* \"NFTES_Drop_flat.sol\":20565:20663  data = string(... */\n      swap1\n      dup1\n      mload\n      swap1\n      0x20\n      add\n      swap1\n      tag_319\n      swap3\n      swap2\n      swap1\n      tag_301\n      jump\t// in\n    tag_319:\n      pop\n        /* \"NFTES_Drop_flat.sol\":20690:20691  2 */\n      0x02\n        /* \"NFTES_Drop_flat.sol\":20684:20691  nftId=2 */\n      swap1\n      pop\n      dup1\n        /* \"NFTES_Drop_flat.sol\":20677:20691  return nftId=2 */\n      swap2\n      pop\n      pop\n      jump(tag_292)\n        /* \"NFTES_Drop_flat.sol\":20480:21353  if ((index) % 20 > 3 && Silver < maxSilverCount) {... */\n    tag_314:\n        /* \"NFTES_Drop_flat.sol\":20882:20894  maxGoldCount */\n      sload(0x0a)\n        /* \"NFTES_Drop_flat.sol\":20875:20879  Gold */\n      sload(0x07)\n        /* \"NFTES_Drop_flat.sol\":20875:20894  Gold < maxGoldCount */\n      lt\n        /* \"NFTES_Drop_flat.sol\":20871:21343  if (Gold < maxGoldCount) {... */\n      iszero\n      tag_321\n      jumpi\n        /* \"NFTES_Drop_flat.sol\":20922:20923  1 */\n      0x01\n        /* \"NFTES_Drop_flat.sol\":20914:20923  nftId = 1 */\n      swap1\n      pop\n        /* \"NFTES_Drop_flat.sol\":20941:20945  Gold */\n      0x07\n      0x00\n        /* \"NFTES_Drop_flat.sol\":20941:20947  Gold++ */\n      dup2\n      sload\n      dup1\n      swap3\n      swap2\n      swap1\n      tag_322\n      swap1\n      tag_159\n      jump\t// in\n    tag_322:\n      swap2\n      swap1\n      pop\n      sstore\n      pop\n        /* \"NFTES_Drop_flat.sol\":21026:21048  Strings.toString(Gold) */\n      tag_323\n        /* \"NFTES_Drop_flat.sol\":21043:21047  Gold */\n      sload(0x07)\n        /* \"NFTES_Drop_flat.sol\":21026:21042  Strings.toString */\n      tag_152\n        /* \"NFTES_Drop_flat.sol\":21026:21048  Strings.toString(Gold) */\n      jump\t// in\n    tag_323:\n        /* \"NFTES_Drop_flat.sol\":21000:21049  abi.encodePacked(\"Gold_\", Strings.toString(Gold)) */\n      add(0x20, mload(0x40))\n      tag_324\n      swap2\n      swap1\n      tag_309\n      jump\t// in\n    tag_324:\n      mload(0x40)\n      0x20\n      dup2\n      dup4\n      sub\n      sub\n      dup2\n      mstore\n      swap1\n      0x40\n      mstore\n        /* \"NFTES_Drop_flat.sol\":20965:20969  data */\n      0x02\n        /* \"NFTES_Drop_flat.sol\":20965:21067  data = string(... */\n      swap1\n      dup1\n      mload\n      swap1\n      0x20\n      add\n      swap1\n      tag_325\n      swap3\n      swap2\n      swap1\n      tag_301\n      jump\t// in\n    tag_325:\n      pop\n        /* \"NFTES_Drop_flat.sol\":21092:21097  nftId */\n      dup1\n        /* \"NFTES_Drop_flat.sol\":21085:21097  return nftId */\n      swap2\n      pop\n      pop\n      jump(tag_292)\n        /* \"NFTES_Drop_flat.sol\":20871:21343  if (Gold < maxGoldCount) {... */\n    tag_321:\n        /* \"NFTES_Drop_flat.sol\":21144:21145  0 */\n      0x00\n        /* \"NFTES_Drop_flat.sol\":21136:21145  nftId = 0 */\n      swap1\n      pop\n        /* \"NFTES_Drop_flat.sol\":21163:21170  Diamond */\n      0x06\n      0x00\n        /* \"NFTES_Drop_flat.sol\":21163:21172  Diamond++ */\n      dup2\n      sload\n      dup1\n      swap3\n      swap2\n      swap1\n      tag_327\n      swap1\n      tag_159\n      jump\t// in\n    tag_327:\n      swap2\n      swap1\n      pop\n      sstore\n      pop\n        /* \"NFTES_Drop_flat.sol\":21254:21279  Strings.toString(Diamond) */\n      tag_328\n        /* \"NFTES_Drop_flat.sol\":21271:21278  Diamond */\n      sload(0x06)\n        /* \"NFTES_Drop_flat.sol\":21254:21270  Strings.toString */\n      tag_152\n        /* \"NFTES_Drop_flat.sol\":21254:21279  Strings.toString(Diamond) */\n      jump\t// in\n    tag_328:\n        /* \"NFTES_Drop_flat.sol\":21225:21280  abi.encodePacked(\"Diamond_\", Strings.toString(Diamond)) */\n      add(0x20, mload(0x40))\n      tag_329\n      swap2\n      swap1\n      tag_299\n      jump\t// in\n    tag_329:\n      mload(0x40)\n      0x20\n      dup2\n      dup4\n      sub\n      sub\n      dup2\n      mstore\n      swap1\n      0x40\n      mstore\n        /* \"NFTES_Drop_flat.sol\":21190:21194  data */\n      0x02\n        /* \"NFTES_Drop_flat.sol\":21190:21298  data = string(... */\n      swap1\n      dup1\n      mload\n      swap1\n      0x20\n      add\n      swap1\n      tag_330\n      swap3\n      swap2\n      swap1\n      tag_301\n      jump\t// in\n    tag_330:\n      pop\n        /* \"NFTES_Drop_flat.sol\":21323:21328  nftId */\n      dup1\n        /* \"NFTES_Drop_flat.sol\":21316:21328  return nftId */\n      swap2\n      pop\n      pop\n        /* \"NFTES_Drop_flat.sol\":16474:16475  _ */\n    tag_292:\n        /* \"NFTES_Drop_flat.sol\":19717:21359  function updateConditions(uint256 index)... */\n      swap2\n      swap1\n      pop\n      jump\t// out\n        /* \"NFTES_Drop_flat.sol\":13711:14263  function _mint(... */\n    tag_251:\n        /* \"NFTES_Drop_flat.sol\":13873:13874  0 */\n      0x00\n        /* \"NFTES_Drop_flat.sol\":13859:13875  to != address(0) */\n      0xffffffffffffffffffffffffffffffffffffffff\n      and\n        /* \"NFTES_Drop_flat.sol\":13859:13861  to */\n      dup5\n        /* \"NFTES_Drop_flat.sol\":13859:13875  to != address(0) */\n      0xffffffffffffffffffffffffffffffffffffffff\n      and\n      eq\n      iszero\n        /* \"NFTES_Drop_flat.sol\":13851:13913  require(to != address(0), \"ERC1155: mint to the zero address\") */\n      tag_332\n      jumpi\n      mload(0x40)\n      0x08c379a000000000000000000000000000000000000000000000000000000000\n      dup2\n      mstore\n      0x04\n      add\n      tag_333\n      swap1\n      tag_334\n      jump\t// in\n    tag_333:\n      mload(0x40)\n      dup1\n      swap2\n      sub\n      swap1\n      revert\n    tag_332:\n        /* \"NFTES_Drop_flat.sol\":13924:13940  address operator */\n      0x00\n        /* \"NFTES_Drop_flat.sol\":13943:13955  _msgSender() */\n      tag_335\n        /* \"NFTES_Drop_flat.sol\":13943:13953  _msgSender */\n      tag_94\n        /* \"NFTES_Drop_flat.sol\":13943:13955  _msgSender() */\n      jump\t// in\n    tag_335:\n        /* \"NFTES_Drop_flat.sol\":13924:13955  address operator = _msgSender() */\n      swap1\n      pop\n        /* \"NFTES_Drop_flat.sol\":13966:14068  _beforeTokenTransfer(operator, address(0), to, _asSingletonArray(id), _asSingletonArray(amount), data) */\n      tag_336\n        /* \"NFTES_Drop_flat.sol\":13987:13995  operator */\n      dup2\n        /* \"NFTES_Drop_flat.sol\":14005:14006  0 */\n      0x00\n        /* \"NFTES_Drop_flat.sol\":14009:14011  to */\n      dup8\n        /* \"NFTES_Drop_flat.sol\":14013:14034  _asSingletonArray(id) */\n      tag_337\n        /* \"NFTES_Drop_flat.sol\":14031:14033  id */\n      dup9\n        /* \"NFTES_Drop_flat.sol\":14013:14030  _asSingletonArray */\n      tag_338\n        /* \"NFTES_Drop_flat.sol\":14013:14034  _asSingletonArray(id) */\n      jump\t// in\n    tag_337:\n        /* \"NFTES_Drop_flat.sol\":14036:14061  _asSingletonArray(amount) */\n      tag_339\n        /* \"NFTES_Drop_flat.sol\":14054:14060  amount */\n      dup9\n        /* \"NFTES_Drop_flat.sol\":14036:14053  _asSingletonArray */\n      tag_338\n        /* \"NFTES_Drop_flat.sol\":14036:14061  _asSingletonArray(amount) */\n      jump\t// in\n    tag_339:\n        /* \"NFTES_Drop_flat.sol\":14063:14067  data */\n      dup8\n        /* \"NFTES_Drop_flat.sol\":13966:13986  _beforeTokenTransfer */\n      tag_340\n        /* \"NFTES_Drop_flat.sol\":13966:14068  _beforeTokenTransfer(operator, address(0), to, _asSingletonArray(id), _asSingletonArray(amount), data) */\n      jump\t// in\n    tag_336:\n        /* \"NFTES_Drop_flat.sol\":14099:14105  amount */\n      dup3\n        /* \"NFTES_Drop_flat.sol\":14078:14087  _balances */\n      0x00\n        /* \"NFTES_Drop_flat.sol\":14078:14091  _balances[id] */\n      dup1\n        /* \"NFTES_Drop_flat.sol\":14088:14090  id */\n      dup7\n        /* \"NFTES_Drop_flat.sol\":14078:14091  _balances[id] */\n      dup2\n      mstore\n      0x20\n      add\n      swap1\n      dup2\n      mstore\n      0x20\n      add\n      0x00\n      keccak256\n        /* \"NFTES_Drop_flat.sol\":14078:14095  _balances[id][to] */\n      0x00\n        /* \"NFTES_Drop_flat.sol\":14092:14094  to */\n      dup8\n        /* \"NFTES_Drop_flat.sol\":14078:14095  _balances[id][to] */\n      0xffffffffffffffffffffffffffffffffffffffff\n      and\n      0xffffffffffffffffffffffffffffffffffffffff\n      and\n      dup2\n      mstore\n      0x20\n      add\n      swap1\n      dup2\n      mstore\n      0x20\n      add\n      0x00\n      keccak256\n      0x00\n        /* \"NFTES_Drop_flat.sol\":14078:14105  _balances[id][to] += amount */\n      dup3\n      dup3\n      sload\n      tag_341\n      swap2\n      swap1\n      tag_276\n      jump\t// in\n    tag_341:\n      swap3\n      pop\n      pop\n      dup2\n      swap1\n      sstore\n      pop\n        /* \"NFTES_Drop_flat.sol\":14157:14159  to */\n      dup5\n        /* \"NFTES_Drop_flat.sol\":14120:14172  TransferSingle(operator, address(0), to, id, amount) */\n      0xffffffffffffffffffffffffffffffffffffffff\n      and\n        /* \"NFTES_Drop_flat.sol\":14153:14154  0 */\n      0x00\n        /* \"NFTES_Drop_flat.sol\":14120:14172  TransferSingle(operator, address(0), to, id, amount) */\n      0xffffffffffffffffffffffffffffffffffffffff\n      and\n        /* \"NFTES_Drop_flat.sol\":14135:14143  operator */\n      dup3\n        /* \"NFTES_Drop_flat.sol\":14120:14172  TransferSingle(operator, address(0), to, id, amount) */\n      0xffffffffffffffffffffffffffffffffffffffff\n      and\n      0xc3d58168c5ae7397731d063d5bbf3d657854427343f4c083240f7aacaa2d0f62\n        /* \"NFTES_Drop_flat.sol\":14161:14163  id */\n      dup8\n        /* \"NFTES_Drop_flat.sol\":14165:14171  amount */\n      dup8\n        /* \"NFTES_Drop_flat.sol\":14120:14172  TransferSingle(operator, address(0), to, id, amount) */\n      mload(0x40)\n      tag_342\n      swap3\n      swap2\n      swap1\n      tag_343\n      jump\t// in\n    tag_342:\n      mload(0x40)\n      dup1\n      swap2\n      sub\n      swap1\n      log4\n        /* \"NFTES_Drop_flat.sol\":14182:14256  _doSafeTransferAcceptanceCheck(operator, address(0), to, id, amount, data) */\n      tag_344\n        /* \"NFTES_Drop_flat.sol\":14213:14221  operator */\n      dup2\n        /* \"NFTES_Drop_flat.sol\":14231:14232  0 */\n      0x00\n        /* \"NFTES_Drop_flat.sol\":14235:14237  to */\n      dup8\n        /* \"NFTES_Drop_flat.sol\":14239:14241  id */\n      dup8\n        /* \"NFTES_Drop_flat.sol\":14243:14249  amount */\n      dup8\n        /* \"NFTES_Drop_flat.sol\":14251:14255  data */\n      dup8\n        /* \"NFTES_Drop_flat.sol\":14182:14212  _doSafeTransferAcceptanceCheck */\n      tag_345\n        /* \"NFTES_Drop_flat.sol\":14182:14256  _doSafeTransferAcceptanceCheck(operator, address(0), to, id, amount, data) */\n      jump\t// in\n    tag_344:\n        /* \"NFTES_Drop_flat.sol\":13841:14263  {... */\n      pop\n        /* \"NFTES_Drop_flat.sol\":13711:14263  function _mint(... */\n      pop\n      pop\n      pop\n      pop\n      jump\t// out\n        /* \"NFTES_Drop_flat.sol\":15223:15416  function _asSingletonArray(uint256 element) private pure returns (uint256[] memory) {... */\n    tag_338:\n        /* \"NFTES_Drop_flat.sol\":15289:15305  uint256[] memory */\n      0x60\n        /* \"NFTES_Drop_flat.sol\":15317:15339  uint256[] memory array */\n      0x00\n        /* \"NFTES_Drop_flat.sol\":15356:15357  1 */\n      0x01\n        /* \"NFTES_Drop_flat.sol\":15342:15358  new uint256[](1) */\n      0xffffffffffffffff\n      dup2\n      gt\n      iszero\n      tag_347\n      jumpi\n      tag_348\n      tag_143\n      jump\t// in\n    tag_348:\n    tag_347:\n      mload(0x40)\n      swap1\n      dup1\n      dup3\n      mstore\n      dup1\n      0x20\n      mul\n      0x20\n      add\n      dup3\n      add\n      0x40\n      mstore\n      dup1\n      iszero\n      tag_349\n      jumpi\n      dup2\n      0x20\n      add\n      0x20\n      dup3\n      mul\n      dup1\n      calldatasize\n      dup4\n      calldatacopy\n      dup1\n      dup3\n      add\n      swap2\n      pop\n      pop\n      swap1\n      pop\n    tag_349:\n      pop\n        /* \"NFTES_Drop_flat.sol\":15317:15358  uint256[] memory array = new uint256[](1) */\n      swap1\n      pop\n        /* \"NFTES_Drop_flat.sol\":15379:15386  element */\n      dup3\n        /* \"NFTES_Drop_flat.sol\":15368:15373  array */\n      dup2\n        /* \"NFTES_Drop_flat.sol\":15374:15375  0 */\n      0x00\n        /* \"NFTES_Drop_flat.sol\":15368:15376  array[0] */\n      dup2\n      mload\n      dup2\n      lt\n      tag_350\n      jumpi\n      tag_351\n      tag_157\n      jump\t// in\n    tag_351:\n    tag_350:\n      0x20\n      mul\n      0x20\n      add\n      add\n        /* \"NFTES_Drop_flat.sol\":15368:15386  array[0] = element */\n      dup2\n      dup2\n      mstore\n      pop\n      pop\n        /* \"NFTES_Drop_flat.sol\":15404:15409  array */\n      dup1\n        /* \"NFTES_Drop_flat.sol\":15397:15409  return array */\n      swap2\n      pop\n      pop\n        /* \"NFTES_Drop_flat.sol\":15223:15416  function _asSingletonArray(uint256 element) private pure returns (uint256[] memory) {... */\n      swap2\n      swap1\n      pop\n      jump\t// out\n        /* \"NFTES_Drop_flat.sol\":14270:14485  function _beforeTokenTransfer(... */\n    tag_340:\n      pop\n      pop\n      pop\n      pop\n      pop\n      pop\n      jump\t// out\n        /* \"NFTES_Drop_flat.sol\":14491:15217  function _doSafeTransferAcceptanceCheck(... */\n    tag_345:\n        /* \"NFTES_Drop_flat.sol\":14699:14714  to.isContract() */\n      tag_354\n        /* \"NFTES_Drop_flat.sol\":14699:14701  to */\n      dup5\n        /* \"NFTES_Drop_flat.sol\":14699:14712  to.isContract */\n      0xffffffffffffffffffffffffffffffffffffffff\n      and\n      tag_355\n        /* \"NFTES_Drop_flat.sol\":14699:14714  to.isContract() */\n      jump\t// in\n    tag_354:\n        /* \"NFTES_Drop_flat.sol\":14695:15211  if (to.isContract()) {... */\n      iszero\n      tag_356\n      jumpi\n        /* \"NFTES_Drop_flat.sol\":14751:14753  to */\n      dup4\n        /* \"NFTES_Drop_flat.sol\":14734:14772  IERC1155Receiver(to).onERC1155Received */\n      0xffffffffffffffffffffffffffffffffffffffff\n      and\n      0xae89a248\n        /* \"NFTES_Drop_flat.sol\":14773:14781  operator */\n      dup8\n        /* \"NFTES_Drop_flat.sol\":14783:14787  from */\n      dup8\n        /* \"NFTES_Drop_flat.sol\":14789:14791  id */\n      dup7\n        /* \"NFTES_Drop_flat.sol\":14793:14799  amount */\n      dup7\n        /* \"NFTES_Drop_flat.sol\":14801:14805  data */\n      dup7\n        /* \"NFTES_Drop_flat.sol\":14734:14806  IERC1155Receiver(to).onERC1155Received(operator, from, id, amount, data) */\n      mload(0x40)\n      dup7\n      0xffffffff\n      and\n      0xe0\n      shl\n      dup2\n      mstore\n      0x04\n      add\n      tag_357\n      swap6\n      swap5\n      swap4\n      swap3\n      swap2\n      swap1\n      tag_358\n      jump\t// in\n    tag_357:\n      0x20\n      mload(0x40)\n      dup1\n      dup4\n      sub\n      dup2\n      0x00\n      dup8\n      dup1\n      extcodesize\n      iszero\n      dup1\n      iszero\n      tag_359\n      jumpi\n      0x00\n      dup1\n      revert\n    tag_359:\n      pop\n      gas\n      call\n      swap3\n      pop\n      pop\n      pop\n      dup1\n      iszero\n      tag_360\n      jumpi\n      pop\n      mload(0x40)\n      returndatasize\n      not(0x1f)\n      0x1f\n      dup3\n      add\n      and\n      dup3\n      add\n      dup1\n      0x40\n      mstore\n      pop\n      dup2\n      add\n      swap1\n      tag_361\n      swap2\n      swap1\n      tag_362\n      jump\t// in\n    tag_361:\n      0x01\n    tag_360:\n        /* \"NFTES_Drop_flat.sol\":14730:15201  try IERC1155Receiver(to).onERC1155Received(operator, from, id, amount, data) returns (bytes4 response) {... */\n      tag_363\n      jumpi\n      tag_367\n      tag_368\n      jump\t// in\n    tag_367:\n      dup1\n      0x08c379a0\n      eq\n      iszero\n      tag_366\n      jumpi\n      pop\n      tag_369\n      tag_370\n      jump\t// in\n    tag_369:\n      dup1\n      tag_371\n      jumpi\n      pop\n      jump(tag_365)\n    tag_371:\n        /* \"NFTES_Drop_flat.sol\":15077:15083  reason */\n      dup1\n        /* \"NFTES_Drop_flat.sol\":15070:15084  revert(reason) */\n      mload(0x40)\n      0x08c379a000000000000000000000000000000000000000000000000000000000\n      dup2\n      mstore\n      0x04\n      add\n      tag_372\n      swap2\n      swap1\n      tag_373\n      jump\t// in\n    tag_372:\n      mload(0x40)\n      dup1\n      swap2\n      sub\n      swap1\n      revert\n        /* \"NFTES_Drop_flat.sol\":14730:15201  try IERC1155Receiver(to).onERC1155Received(operator, from, id, amount, data) returns (bytes4 response) {... */\n    tag_366:\n      pop\n    tag_365:\n        /* \"NFTES_Drop_flat.sol\":15124:15186  revert(\"ERC1155: transfer to non ERC1155Receiver implementer\") */\n      mload(0x40)\n      0x08c379a000000000000000000000000000000000000000000000000000000000\n      dup2\n      mstore\n      0x04\n      add\n      tag_374\n      swap1\n      tag_375\n      jump\t// in\n    tag_374:\n      mload(0x40)\n      dup1\n      swap2\n      sub\n      swap1\n      revert\n        /* \"NFTES_Drop_flat.sol\":14730:15201  try IERC1155Receiver(to).onERC1155Received(operator, from, id, amount, data) returns (bytes4 response) {... */\n    tag_363:\n        /* \"NFTES_Drop_flat.sol\":14867:14910  IERC1155Receiver.onERC1155Received.selector */\n      shl(0xe0, 0xae89a248)\n        /* \"NFTES_Drop_flat.sol\":14855:14910  response != IERC1155Receiver.onERC1155Received.selector */\n      not(0xffffffffffffffffffffffffffffffffffffffffffffffffffffffff)\n      and\n        /* \"NFTES_Drop_flat.sol\":14855:14863  response */\n      dup2\n        /* \"NFTES_Drop_flat.sol\":14855:14910  response != IERC1155Receiver.onERC1155Received.selector */\n      not(0xffffffffffffffffffffffffffffffffffffffffffffffffffffffff)\n      and\n      eq\n        /* \"NFTES_Drop_flat.sol\":14851:15003  if (response != IERC1155Receiver.onERC1155Received.selector) {... */\n      tag_377\n      jumpi\n        /* \"NFTES_Drop_flat.sol\":14934:14984  revert(\"ERC1155: ERC1155Receiver rejected tokens\") */\n      mload(0x40)\n      0x08c379a000000000000000000000000000000000000000000000000000000000\n      dup2\n      mstore\n      0x04\n      add\n      tag_378\n      swap1\n      tag_379\n      jump\t// in\n    tag_378:\n      mload(0x40)\n      dup1\n      swap2\n      sub\n      swap1\n      revert\n        /* \"NFTES_Drop_flat.sol\":14851:15003  if (response != IERC1155Receiver.onERC1155Received.selector) {... */\n    tag_377:\n        /* \"NFTES_Drop_flat.sol\":14807:15017  returns (bytes4 response) {... */\n      pop\n        /* \"NFTES_Drop_flat.sol\":14695:15211  if (to.isContract()) {... */\n    tag_356:\n        /* \"NFTES_Drop_flat.sol\":14491:15217  function _doSafeTransferAcceptanceCheck(... */\n      pop\n      pop\n      pop\n      pop\n      pop\n      pop\n      jump\t// out\n        /* \"NFTES_Drop_flat.sol\":3574:3951  function isContract(address account) internal view returns (bool) {... */\n    tag_355:\n        /* \"NFTES_Drop_flat.sol\":3634:3638  bool */\n      0x00\n        /* \"NFTES_Drop_flat.sol\":3837:3849  uint256 size */\n      dup1\n        /* \"NFTES_Drop_flat.sol\":3902:3909  account */\n      dup3\n        /* \"NFTES_Drop_flat.sol\":3890:3910  extcodesize(account) */\n      extcodesize\n        /* \"NFTES_Drop_flat.sol\":3882:3910  size := extcodesize(account) */\n      swap1\n      pop\n        /* \"NFTES_Drop_flat.sol\":3943:3944  0 */\n      0x00\n        /* \"NFTES_Drop_flat.sol\":3936:3940  size */\n      dup2\n        /* \"NFTES_Drop_flat.sol\":3936:3944  size > 0 */\n      gt\n        /* \"NFTES_Drop_flat.sol\":3929:3944  return size > 0 */\n      swap2\n      pop\n      pop\n        /* \"NFTES_Drop_flat.sol\":3574:3951  function isContract(address account) internal view returns (bool) {... */\n      swap2\n      swap1\n      pop\n      jump\t// out\n    tag_301:\n      dup3\n      dup1\n      sload\n      tag_381\n      swap1\n      tag_246\n      jump\t// in\n    tag_381:\n      swap1\n      0x00\n      mstore\n      keccak256(0x00, 0x20)\n      swap1\n      0x1f\n      add\n      0x20\n      swap1\n      div\n      dup2\n      add\n      swap3\n      dup3\n      tag_383\n      jumpi\n      0x00\n      dup6\n      sstore\n      jump(tag_382)\n    tag_383:\n      dup3\n      0x1f\n      lt\n      tag_384\n      jumpi\n      dup1\n      mload\n      not(0xff)\n      and\n      dup4\n      dup1\n      add\n      or\n      dup6\n      sstore\n      jump(tag_382)\n    tag_384:\n      dup3\n      dup1\n      add\n      0x01\n      add\n      dup6\n      sstore\n      dup3\n      iszero\n      tag_382\n      jumpi\n      swap2\n      dup3\n      add\n    tag_385:\n      dup3\n      dup2\n      gt\n      iszero\n      tag_386\n      jumpi\n      dup3\n      mload\n      dup3\n      sstore\n      swap2\n      0x20\n      add\n      swap2\n      swap1\n      0x01\n      add\n      swap1\n      jump(tag_385)\n    tag_386:\n    tag_382:\n      pop\n      swap1\n      pop\n      tag_387\n      swap2\n      swap1\n      tag_388\n      jump\t// in\n    tag_387:\n      pop\n      swap1\n      jump\t// out\n    tag_388:\n    tag_389:\n      dup1\n      dup3\n      gt\n      iszero\n      tag_390\n      jumpi\n      0x00\n      dup2\n      0x00\n      swap1\n      sstore\n      pop\n      0x01\n      add\n      jump(tag_389)\n    tag_390:\n      pop\n      swap1\n      jump\t// out\n        /* \"#utility.yul\":23:980   */\n    tag_392:\n        /* \"#utility.yul\":129:134   */\n      0x00\n        /* \"#utility.yul\":154:245   */\n      tag_394\n        /* \"#utility.yul\":170:244   */\n      tag_395\n        /* \"#utility.yul\":237:243   */\n      dup5\n        /* \"#utility.yul\":170:244   */\n      tag_396\n      jump\t// in\n    tag_395:\n        /* \"#utility.yul\":154:245   */\n      tag_397\n      jump\t// in\n    tag_394:\n        /* \"#utility.yul\":145:245   */\n      swap1\n      pop\n        /* \"#utility.yul\":265:270   */\n      dup1\n        /* \"#utility.yul\":294:300   */\n      dup4\n        /* \"#utility.yul\":287:292   */\n      dup3\n        /* \"#utility.yul\":280:301   */\n      mstore\n        /* \"#utility.yul\":328:332   */\n      0x20\n        /* \"#utility.yul\":321:326   */\n      dup3\n        /* \"#utility.yul\":317:333   */\n      add\n        /* \"#utility.yul\":310:333   */\n      swap1\n      pop\n        /* \"#utility.yul\":354:360   */\n      dup3\n        /* \"#utility.yul\":404:407   */\n      dup6\n        /* \"#utility.yul\":396:400   */\n      0x20\n        /* \"#utility.yul\":388:394   */\n      dup7\n        /* \"#utility.yul\":384:401   */\n      mul\n        /* \"#utility.yul\":379:382   */\n      dup3\n        /* \"#utility.yul\":375:402   */\n      add\n        /* \"#utility.yul\":372:408   */\n      gt\n        /* \"#utility.yul\":369:512   */\n      iszero\n      tag_398\n      jumpi\n        /* \"#utility.yul\":423:502   */\n      tag_399\n      tag_400\n      jump\t// in\n    tag_399:\n        /* \"#utility.yul\":369:512   */\n    tag_398:\n        /* \"#utility.yul\":536:537   */\n      0x00\n        /* \"#utility.yul\":521:974   */\n    tag_401:\n        /* \"#utility.yul\":546:552   */\n      dup6\n        /* \"#utility.yul\":543:544   */\n      dup2\n        /* \"#utility.yul\":540:553   */\n      lt\n        /* \"#utility.yul\":521:974   */\n      iszero\n      tag_403\n      jumpi\n        /* \"#utility.yul\":628:631   */\n      dup2\n        /* \"#utility.yul\":615:632   */\n      calldataload\n        /* \"#utility.yul\":664:682   */\n      0xffffffffffffffff\n        /* \"#utility.yul\":651:662   */\n      dup2\n        /* \"#utility.yul\":648:683   */\n      gt\n        /* \"#utility.yul\":645:767   */\n      iszero\n      tag_404\n      jumpi\n        /* \"#utility.yul\":686:765   */\n      tag_405\n      tag_406\n      jump\t// in\n    tag_405:\n        /* \"#utility.yul\":645:767   */\n    tag_404:\n        /* \"#utility.yul\":810:821   */\n      dup1\n        /* \"#utility.yul\":802:808   */\n      dup7\n        /* \"#utility.yul\":798:822   */\n      add\n        /* \"#utility.yul\":848:895   */\n      tag_407\n        /* \"#utility.yul\":891:894   */\n      dup10\n        /* \"#utility.yul\":879:889   */\n      dup3\n        /* \"#utility.yul\":848:895   */\n      tag_408\n      jump\t// in\n    tag_407:\n        /* \"#utility.yul\":843:846   */\n      dup6\n        /* \"#utility.yul\":836:896   */\n      mstore\n        /* \"#utility.yul\":925:929   */\n      0x20\n        /* \"#utility.yul\":920:923   */\n      dup6\n        /* \"#utility.yul\":916:930   */\n      add\n        /* \"#utility.yul\":909:930   */\n      swap5\n      pop\n        /* \"#utility.yul\":959:963   */\n      0x20\n        /* \"#utility.yul\":954:957   */\n      dup5\n        /* \"#utility.yul\":950:964   */\n      add\n        /* \"#utility.yul\":943:964   */\n      swap4\n      pop\n        /* \"#utility.yul\":581:974   */\n      pop\n      pop\n        /* \"#utility.yul\":568:569   */\n      0x01\n        /* \"#utility.yul\":565:566   */\n      dup2\n        /* \"#utility.yul\":561:570   */\n      add\n        /* \"#utility.yul\":556:570   */\n      swap1\n      pop\n        /* \"#utility.yul\":521:974   */\n      jump(tag_401)\n    tag_403:\n        /* \"#utility.yul\":525:539   */\n      pop\n        /* \"#utility.yul\":135:980   */\n      pop\n      pop\n        /* \"#utility.yul\":23:980   */\n      swap4\n      swap3\n      pop\n      pop\n      pop\n      jump\t// out\n        /* \"#utility.yul\":986:1398   */\n    tag_409:\n        /* \"#utility.yul\":1064:1069   */\n      0x00\n        /* \"#utility.yul\":1089:1155   */\n      tag_411\n        /* \"#utility.yul\":1105:1154   */\n      tag_412\n        /* \"#utility.yul\":1147:1153   */\n      dup5\n        /* \"#utility.yul\":1105:1154   */\n      tag_413\n      jump\t// in\n    tag_412:\n        /* \"#utility.yul\":1089:1155   */\n      tag_397\n      jump\t// in\n    tag_411:\n        /* \"#utility.yul\":1080:1155   */\n      swap1\n      pop\n        /* \"#utility.yul\":1178:1184   */\n      dup3\n        /* \"#utility.yul\":1171:1176   */\n      dup2\n        /* \"#utility.yul\":1164:1185   */\n      mstore\n        /* \"#utility.yul\":1216:1220   */\n      0x20\n        /* \"#utility.yul\":1209:1214   */\n      dup2\n        /* \"#utility.yul\":1205:1221   */\n      add\n        /* \"#utility.yul\":1254:1257   */\n      dup5\n        /* \"#utility.yul\":1245:1251   */\n      dup5\n        /* \"#utility.yul\":1240:1243   */\n      dup5\n        /* \"#utility.yul\":1236:1252   */\n      add\n        /* \"#utility.yul\":1233:1258   */\n      gt\n        /* \"#utility.yul\":1230:1342   */\n      iszero\n      tag_414\n      jumpi\n        /* \"#utility.yul\":1261:1340   */\n      tag_415\n      tag_416\n      jump\t// in\n    tag_415:\n        /* \"#utility.yul\":1230:1342   */\n    tag_414:\n        /* \"#utility.yul\":1351:1392   */\n      tag_417\n        /* \"#utility.yul\":1385:1391   */\n      dup5\n        /* \"#utility.yul\":1380:1383   */\n      dup3\n        /* \"#utility.yul\":1375:1378   */\n      dup6\n        /* \"#utility.yul\":1351:1392   */\n      tag_418\n      jump\t// in\n    tag_417:\n        /* \"#utility.yul\":1070:1398   */\n      pop\n        /* \"#utility.yul\":986:1398   */\n      swap4\n      swap3\n      pop\n      pop\n      pop\n      jump\t// out\n        /* \"#utility.yul\":1404:1543   */\n    tag_419:\n        /* \"#utility.yul\":1450:1455   */\n      0x00\n        /* \"#utility.yul\":1488:1494   */\n      dup2\n        /* \"#utility.yul\":1475:1495   */\n      calldataload\n        /* \"#utility.yul\":1466:1495   */\n      swap1\n      pop\n        /* \"#utility.yul\":1504:1537   */\n      tag_421\n        /* \"#utility.yul\":1531:1536   */\n      dup2\n        /* \"#utility.yul\":1504:1537   */\n      tag_422\n      jump\t// in\n    tag_421:\n        /* \"#utility.yul\":1404:1543   */\n      swap3\n      swap2\n      pop\n      pop\n      jump\t// out\n        /* \"#utility.yul\":1549:1704   */\n    tag_423:\n        /* \"#utility.yul\":1603:1608   */\n      0x00\n        /* \"#utility.yul\":1641:1647   */\n      dup2\n        /* \"#utility.yul\":1628:1648   */\n      calldataload\n        /* \"#utility.yul\":1619:1648   */\n      swap1\n      pop\n        /* \"#utility.yul\":1657:1698   */\n      tag_425\n        /* \"#utility.yul\":1692:1697   */\n      dup2\n        /* \"#utility.yul\":1657:1698   */\n      tag_426\n      jump\t// in\n    tag_425:\n        /* \"#utility.yul\":1549:1704   */\n      swap3\n      swap2\n      pop\n      pop\n      jump\t// out\n        /* \"#utility.yul\":1726:2116   */\n    tag_427:\n        /* \"#utility.yul\":1807:1812   */\n      0x00\n        /* \"#utility.yul\":1856:1859   */\n      dup3\n        /* \"#utility.yul\":1849:1853   */\n      0x1f\n        /* \"#utility.yul\":1841:1847   */\n      dup4\n        /* \"#utility.yul\":1837:1854   */\n      add\n        /* \"#utility.yul\":1833:1860   */\n      slt\n        /* \"#utility.yul\":1823:1945   */\n      tag_429\n      jumpi\n        /* \"#utility.yul\":1864:1943   */\n      tag_430\n      tag_406\n      jump\t// in\n    tag_430:\n        /* \"#utility.yul\":1823:1945   */\n    tag_429:\n        /* \"#utility.yul\":1981:1987   */\n      dup2\n        /* \"#utility.yul\":1968:1988   */\n      calldataload\n        /* \"#utility.yul\":2006:2110   */\n      tag_431\n        /* \"#utility.yul\":2106:2109   */\n      dup5\n        /* \"#utility.yul\":2098:2104   */\n      dup3\n        /* \"#utility.yul\":2091:2095   */\n      0x20\n        /* \"#utility.yul\":2083:2089   */\n      dup7\n        /* \"#utility.yul\":2079:2096   */\n      add\n        /* \"#utility.yul\":2006:2110   */\n      tag_392\n      jump\t// in\n    tag_431:\n        /* \"#utility.yul\":1997:2110   */\n      swap2\n      pop\n        /* \"#utility.yul\":1813:2116   */\n      pop\n        /* \"#utility.yul\":1726:2116   */\n      swap3\n      swap2\n      pop\n      pop\n      jump\t// out\n        /* \"#utility.yul\":2122:2263   */\n    tag_432:\n        /* \"#utility.yul\":2178:2183   */\n      0x00\n        /* \"#utility.yul\":2209:2215   */\n      dup2\n        /* \"#utility.yul\":2203:2216   */\n      mload\n        /* \"#utility.yul\":2194:2216   */\n      swap1\n      pop\n        /* \"#utility.yul\":2225:2257   */\n      tag_434\n        /* \"#utility.yul\":2251:2256   */\n      dup2\n        /* \"#utility.yul\":2225:2257   */\n      tag_435\n      jump\t// in\n    tag_434:\n        /* \"#utility.yul\":2122:2263   */\n      swap3\n      swap2\n      pop\n      pop\n      jump\t// out\n        /* \"#utility.yul\":2283:2623   */\n    tag_408:\n        /* \"#utility.yul\":2339:2344   */\n      0x00\n        /* \"#utility.yul\":2388:2391   */\n      dup3\n        /* \"#utility.yul\":2381:2385   */\n      0x1f\n        /* \"#utility.yul\":2373:2379   */\n      dup4\n        /* \"#utility.yul\":2369:2386   */\n      add\n        /* \"#utility.yul\":2365:2392   */\n      slt\n        /* \"#utility.yul\":2355:2477   */\n      tag_437\n      jumpi\n        /* \"#utility.yul\":2396:2475   */\n      tag_438\n      tag_406\n      jump\t// in\n    tag_438:\n        /* \"#utility.yul\":2355:2477   */\n    tag_437:\n        /* \"#utility.yul\":2513:2519   */\n      dup2\n        /* \"#utility.yul\":2500:2520   */\n      calldataload\n        /* \"#utility.yul\":2538:2617   */\n      tag_439\n        /* \"#utility.yul\":2613:2616   */\n      dup5\n        /* \"#utility.yul\":2605:2611   */\n      dup3\n        /* \"#utility.yul\":2598:2602   */\n      0x20\n        /* \"#utility.yul\":2590:2596   */\n      dup7\n        /* \"#utility.yul\":2586:2603   */\n      add\n        /* \"#utility.yul\":2538:2617   */\n      tag_409\n      jump\t// in\n    tag_439:\n        /* \"#utility.yul\":2529:2617   */\n      swap2\n      pop\n        /* \"#utility.yul\":2345:2623   */\n      pop\n        /* \"#utility.yul\":2283:2623   */\n      swap3\n      swap2\n      pop\n      pop\n      jump\t// out\n        /* \"#utility.yul\":2629:2768   */\n    tag_440:\n        /* \"#utility.yul\":2675:2680   */\n      0x00\n        /* \"#utility.yul\":2713:2719   */\n      dup2\n        /* \"#utility.yul\":2700:2720   */\n      calldataload\n        /* \"#utility.yul\":2691:2720   */\n      swap1\n      pop\n        /* \"#utility.yul\":2729:2762   */\n      tag_442\n        /* \"#utility.yul\":2756:2761   */\n      dup2\n        /* \"#utility.yul\":2729:2762   */\n      tag_443\n      jump\t// in\n    tag_442:\n        /* \"#utility.yul\":2629:2768   */\n      swap3\n      swap2\n      pop\n      pop\n      jump\t// out\n        /* \"#utility.yul\":2774:3103   */\n    tag_36:\n        /* \"#utility.yul\":2833:2839   */\n      0x00\n        /* \"#utility.yul\":2882:2884   */\n      0x20\n        /* \"#utility.yul\":2870:2879   */\n      dup3\n        /* \"#utility.yul\":2861:2868   */\n      dup5\n        /* \"#utility.yul\":2857:2880   */\n      sub\n        /* \"#utility.yul\":2853:2885   */\n      slt\n        /* \"#utility.yul\":2850:2969   */\n      iszero\n      tag_445\n      jumpi\n        /* \"#utility.yul\":2888:2967   */\n      tag_446\n      tag_447\n      jump\t// in\n    tag_446:\n        /* \"#utility.yul\":2850:2969   */\n    tag_445:\n        /* \"#utility.yul\":3008:3009   */\n      0x00\n        /* \"#utility.yul\":3033:3086   */\n      tag_448\n        /* \"#utility.yul\":3078:3085   */\n      dup5\n        /* \"#utility.yul\":3069:3075   */\n      dup3\n        /* \"#utility.yul\":3058:3067   */\n      dup6\n        /* \"#utility.yul\":3054:3076   */\n      add\n        /* \"#utility.yul\":3033:3086   */\n      tag_419\n      jump\t// in\n    tag_448:\n        /* \"#utility.yul\":3023:3086   */\n      swap2\n      pop\n        /* \"#utility.yul\":2979:3096   */\n      pop\n        /* \"#utility.yul\":2774:3103   */\n      swap3\n      swap2\n      pop\n      pop\n      jump\t// out\n        /* \"#utility.yul\":3109:3599   */\n    tag_31:\n        /* \"#utility.yul\":3185:3191   */\n      0x00\n        /* \"#utility.yul\":3193:3199   */\n      dup1\n        /* \"#utility.yul\":3242:3244   */\n      0x40\n        /* \"#utility.yul\":3230:3239   */\n      dup4\n        /* \"#utility.yul\":3221:3228   */\n      dup6\n        /* \"#utility.yul\":3217:3240   */\n      sub\n        /* \"#utility.yul\":3213:3245   */\n      slt\n        /* \"#utility.yul\":3210:3329   */\n      iszero\n      tag_450\n      jumpi\n        /* \"#utility.yul\":3248:3327   */\n      tag_451\n      tag_447\n      jump\t// in\n    tag_451:\n        /* \"#utility.yul\":3210:3329   */\n    tag_450:\n        /* \"#utility.yul\":3368:3369   */\n      0x00\n        /* \"#utility.yul\":3393:3454   */\n      tag_452\n        /* \"#utility.yul\":3446:3453   */\n      dup6\n        /* \"#utility.yul\":3437:3443   */\n      dup3\n        /* \"#utility.yul\":3426:3435   */\n      dup7\n        /* \"#utility.yul\":3422:3444   */\n      add\n        /* \"#utility.yul\":3393:3454   */\n      tag_423\n      jump\t// in\n    tag_452:\n        /* \"#utility.yul\":3383:3454   */\n      swap3\n      pop\n        /* \"#utility.yul\":3339:3464   */\n      pop\n        /* \"#utility.yul\":3503:3505   */\n      0x20\n        /* \"#utility.yul\":3529:3582   */\n      tag_453\n        /* \"#utility.yul\":3574:3581   */\n      dup6\n        /* \"#utility.yul\":3565:3571   */\n      dup3\n        /* \"#utility.yul\":3554:3563   */\n      dup7\n        /* \"#utility.yul\":3550:3572   */\n      add\n        /* \"#utility.yul\":3529:3582   */\n      tag_440\n      jump\t// in\n    tag_453:\n        /* \"#utility.yul\":3519:3582   */\n      swap2\n      pop\n        /* \"#utility.yul\":3474:3592   */\n      pop\n        /* \"#utility.yul\":3109:3599   */\n      swap3\n      pop\n      swap3\n      swap1\n      pop\n      jump\t// out\n        /* \"#utility.yul\":3605:4079   */\n    tag_43:\n        /* \"#utility.yul\":3673:3679   */\n      0x00\n        /* \"#utility.yul\":3681:3687   */\n      dup1\n        /* \"#utility.yul\":3730:3732   */\n      0x40\n        /* \"#utility.yul\":3718:3727   */\n      dup4\n        /* \"#utility.yul\":3709:3716   */\n      dup6\n        /* \"#utility.yul\":3705:3728   */\n      sub\n        /* \"#utility.yul\":3701:3733   */\n      slt\n        /* \"#utility.yul\":3698:3817   */\n      iszero\n      tag_455\n      jumpi\n        /* \"#utility.yul\":3736:3815   */\n      tag_456\n      tag_447\n      jump\t// in\n    tag_456:\n        /* \"#utility.yul\":3698:3817   */\n    tag_455:\n        /* \"#utility.yul\":3856:3857   */\n      0x00\n        /* \"#utility.yul\":3881:3934   */\n      tag_457\n        /* \"#utility.yul\":3926:3933   */\n      dup6\n        /* \"#utility.yul\":3917:3923   */\n      dup3\n        /* \"#utility.yul\":3906:3915   */\n      dup7\n        /* \"#utility.yul\":3902:3924   */\n      add\n        /* \"#utility.yul\":3881:3934   */\n      tag_419\n      jump\t// in\n    tag_457:\n        /* \"#utility.yul\":3871:3934   */\n      swap3\n      pop\n        /* \"#utility.yul\":3827:3944   */\n      pop\n        /* \"#utility.yul\":3983:3985   */\n      0x20\n        /* \"#utility.yul\":4009:4062   */\n      tag_458\n        /* \"#utility.yul\":4054:4061   */\n      dup6\n        /* \"#utility.yul\":4045:4051   */\n      dup3\n        /* \"#utility.yul\":4034:4043   */\n      dup7\n        /* \"#utility.yul\":4030:4052   */\n      add\n        /* \"#utility.yul\":4009:4062   */\n      tag_440\n      jump\t// in\n    tag_458:\n        /* \"#utility.yul\":3999:4062   */\n      swap2\n      pop\n        /* \"#utility.yul\":3954:4072   */\n      pop\n        /* \"#utility.yul\":3605:4079   */\n      swap3\n      pop\n      swap3\n      swap1\n      pop\n      jump\t// out\n        /* \"#utility.yul\":4085:4934   */\n    tag_62:\n        /* \"#utility.yul\":4197:4203   */\n      0x00\n        /* \"#utility.yul\":4205:4211   */\n      dup1\n        /* \"#utility.yul\":4213:4219   */\n      0x00\n        /* \"#utility.yul\":4262:4264   */\n      0x60\n        /* \"#utility.yul\":4250:4259   */\n      dup5\n        /* \"#utility.yul\":4241:4248   */\n      dup7\n        /* \"#utility.yul\":4237:4260   */\n      sub\n        /* \"#utility.yul\":4233:4265   */\n      slt\n        /* \"#utility.yul\":4230:4349   */\n      iszero\n      tag_460\n      jumpi\n        /* \"#utility.yul\":4268:4347   */\n      tag_461\n      tag_447\n      jump\t// in\n    tag_461:\n        /* \"#utility.yul\":4230:4349   */\n    tag_460:\n        /* \"#utility.yul\":4388:4389   */\n      0x00\n        /* \"#utility.yul\":4413:4466   */\n      tag_462\n        /* \"#utility.yul\":4458:4465   */\n      dup7\n        /* \"#utility.yul\":4449:4455   */\n      dup3\n        /* \"#utility.yul\":4438:4447   */\n      dup8\n        /* \"#utility.yul\":4434:4456   */\n      add\n        /* \"#utility.yul\":4413:4466   */\n      tag_419\n      jump\t// in\n    tag_462:\n        /* \"#utility.yul\":4403:4466   */\n      swap4\n      pop\n        /* \"#utility.yul\":4359:4476   */\n      pop\n        /* \"#utility.yul\":4515:4517   */\n      0x20\n        /* \"#utility.yul\":4541:4594   */\n      tag_463\n        /* \"#utility.yul\":4586:4593   */\n      dup7\n        /* \"#utility.yul\":4577:4583   */\n      dup3\n        /* \"#utility.yul\":4566:4575   */\n      dup8\n        /* \"#utility.yul\":4562:4584   */\n      add\n        /* \"#utility.yul\":4541:4594   */\n      tag_440\n      jump\t// in\n    tag_463:\n        /* \"#utility.yul\":4531:4594   */\n      swap3\n      pop\n        /* \"#utility.yul\":4486:4604   */\n      pop\n        /* \"#utility.yul\":4671:4673   */\n      0x40\n        /* \"#utility.yul\":4660:4669   */\n      dup5\n        /* \"#utility.yul\":4656:4674   */\n      add\n        /* \"#utility.yul\":4643:4675   */\n      calldataload\n        /* \"#utility.yul\":4702:4720   */\n      0xffffffffffffffff\n        /* \"#utility.yul\":4694:4700   */\n      dup2\n        /* \"#utility.yul\":4691:4721   */\n      gt\n        /* \"#utility.yul\":4688:4805   */\n      iszero\n      tag_464\n      jumpi\n        /* \"#utility.yul\":4724:4803   */\n      tag_465\n      tag_466\n      jump\t// in\n    tag_465:\n        /* \"#utility.yul\":4688:4805   */\n    tag_464:\n        /* \"#utility.yul\":4829:4917   */\n      tag_467\n        /* \"#utility.yul\":4909:4916   */\n      dup7\n        /* \"#utility.yul\":4900:4906   */\n      dup3\n        /* \"#utility.yul\":4889:4898   */\n      dup8\n        /* \"#utility.yul\":4885:4907   */\n      add\n        /* \"#utility.yul\":4829:4917   */\n      tag_427\n      jump\t// in\n    tag_467:\n        /* \"#utility.yul\":4819:4917   */\n      swap2\n      pop\n        /* \"#utility.yul\":4614:4927   */\n      pop\n        /* \"#utility.yul\":4085:4934   */\n      swap3\n      pop\n      swap3\n      pop\n      swap3\n      jump\t// out\n        /* \"#utility.yul\":4940:5289   */\n    tag_362:\n        /* \"#utility.yul\":5009:5015   */\n      0x00\n        /* \"#utility.yul\":5058:5060   */\n      0x20\n        /* \"#utility.yul\":5046:5055   */\n      dup3\n        /* \"#utility.yul\":5037:5044   */\n      dup5\n        /* \"#utility.yul\":5033:5056   */\n      sub\n        /* \"#utility.yul\":5029:5061   */\n      slt\n        /* \"#utility.yul\":5026:5145   */\n      iszero\n      tag_469\n      jumpi\n        /* \"#utility.yul\":5064:5143   */\n      tag_470\n      tag_447\n      jump\t// in\n    tag_470:\n        /* \"#utility.yul\":5026:5145   */\n    tag_469:\n        /* \"#utility.yul\":5184:5185   */\n      0x00\n        /* \"#utility.yul\":5209:5272   */\n      tag_471\n        /* \"#utility.yul\":5264:5271   */\n      dup5\n        /* \"#utility.yul\":5255:5261   */\n      dup3\n        /* \"#utility.yul\":5244:5253   */\n      dup6\n        /* \"#utility.yul\":5240:5262   */\n      add\n        /* \"#utility.yul\":5209:5272   */\n      tag_432\n      jump\t// in\n    tag_471:\n        /* \"#utility.yul\":5199:5272   */\n      swap2\n      pop\n        /* \"#utility.yul\":5155:5282   */\n      pop\n        /* \"#utility.yul\":4940:5289   */\n      swap3\n      swap2\n      pop\n      pop\n      jump\t// out\n        /* \"#utility.yul\":5295:5624   */\n    tag_89:\n        /* \"#utility.yul\":5354:5360   */\n      0x00\n        /* \"#utility.yul\":5403:5405   */\n      0x20\n        /* \"#utility.yul\":5391:5400   */\n      dup3\n        /* \"#utility.yul\":5382:5389   */\n      dup5\n        /* \"#utility.yul\":5378:5401   */\n      sub\n        /* \"#utility.yul\":5374:5406   */\n      slt\n        /* \"#utility.yul\":5371:5490   */\n      iszero\n      tag_473\n      jumpi\n        /* \"#utility.yul\":5409:5488   */\n      tag_474\n      tag_447\n      jump\t// in\n    tag_474:\n        /* \"#utility.yul\":5371:5490   */\n    tag_473:\n        /* \"#utility.yul\":5529:5530   */\n      0x00\n        /* \"#utility.yul\":5554:5607   */\n      tag_475\n        /* \"#utility.yul\":5599:5606   */\n      dup5\n        /* \"#utility.yul\":5590:5596   */\n      dup3\n        /* \"#utility.yul\":5579:5588   */\n      dup6\n        /* \"#utility.yul\":5575:5597   */\n      add\n        /* \"#utility.yul\":5554:5607   */\n      tag_440\n      jump\t// in\n    tag_475:\n        /* \"#utility.yul\":5544:5607   */\n      swap2\n      pop\n        /* \"#utility.yul\":5500:5617   */\n      pop\n        /* \"#utility.yul\":5295:5624   */\n      swap3\n      swap2\n      pop\n      pop\n      jump\t// out\n        /* \"#utility.yul\":5630:5826   */\n    tag_476:\n        /* \"#utility.yul\":5719:5729   */\n      0x00\n        /* \"#utility.yul\":5754:5820   */\n      tag_478\n        /* \"#utility.yul\":5816:5819   */\n      dup4\n        /* \"#utility.yul\":5808:5814   */\n      dup4\n        /* \"#utility.yul\":5754:5820   */\n      tag_479\n      jump\t// in\n    tag_478:\n        /* \"#utility.yul\":5740:5820   */\n      swap1\n      pop\n        /* \"#utility.yul\":5630:5826   */\n      swap3\n      swap2\n      pop\n      pop\n      jump\t// out\n        /* \"#utility.yul\":5832:6011   */\n    tag_480:\n        /* \"#utility.yul\":5901:5911   */\n      0x00\n        /* \"#utility.yul\":5922:5968   */\n      tag_482\n        /* \"#utility.yul\":5964:5967   */\n      dup4\n        /* \"#utility.yul\":5956:5962   */\n      dup4\n        /* \"#utility.yul\":5922:5968   */\n      tag_483\n      jump\t// in\n    tag_482:\n        /* \"#utility.yul\":6000:6004   */\n      0x20\n        /* \"#utility.yul\":5995:5998   */\n      dup4\n        /* \"#utility.yul\":5991:6005   */\n      add\n        /* \"#utility.yul\":5977:6005   */\n      swap1\n      pop\n        /* \"#utility.yul\":5832:6011   */\n      swap3\n      swap2\n      pop\n      pop\n      jump\t// out\n        /* \"#utility.yul\":6017:6159   */\n    tag_484:\n        /* \"#utility.yul\":6120:6152   */\n      tag_486\n        /* \"#utility.yul\":6146:6151   */\n      dup2\n        /* \"#utility.yul\":6120:6152   */\n      tag_487\n      jump\t// in\n    tag_486:\n        /* \"#utility.yul\":6115:6118   */\n      dup3\n        /* \"#utility.yul\":6108:6153   */\n      mstore\n        /* \"#utility.yul\":6017:6159   */\n      pop\n      pop\n      jump\t// out\n        /* \"#utility.yul\":6165:6354   */\n    tag_488:\n        /* \"#utility.yul\":6286:6347   */\n      tag_490\n        /* \"#utility.yul\":6314:6346   */\n      tag_491\n        /* \"#utility.yul\":6340:6345   */\n      dup3\n        /* \"#utility.yul\":6314:6346   */\n      tag_487\n      jump\t// in\n    tag_491:\n        /* \"#utility.yul\":6286:6347   */\n      tag_492\n      jump\t// in\n    tag_490:\n        /* \"#utility.yul\":6281:6284   */\n      dup3\n        /* \"#utility.yul\":6274:6348   */\n      mstore\n        /* \"#utility.yul\":6165:6354   */\n      pop\n      pop\n      jump\t// out\n        /* \"#utility.yul\":6360:6478   */\n    tag_493:\n        /* \"#utility.yul\":6447:6471   */\n      tag_495\n        /* \"#utility.yul\":6465:6470   */\n      dup2\n        /* \"#utility.yul\":6447:6471   */\n      tag_496\n      jump\t// in\n    tag_495:\n        /* \"#utility.yul\":6442:6445   */\n      dup3\n        /* \"#utility.yul\":6435:6472   */\n      mstore\n        /* \"#utility.yul\":6360:6478   */\n      pop\n      pop\n      jump\t// out\n        /* \"#utility.yul\":6484:6641   */\n    tag_497:\n        /* \"#utility.yul\":6589:6634   */\n      tag_499\n        /* \"#utility.yul\":6609:6633   */\n      tag_500\n        /* \"#utility.yul\":6627:6632   */\n      dup3\n        /* \"#utility.yul\":6609:6633   */\n      tag_496\n      jump\t// in\n    tag_500:\n        /* \"#utility.yul\":6589:6634   */\n      tag_501\n      jump\t// in\n    tag_499:\n        /* \"#utility.yul\":6584:6587   */\n      dup3\n        /* \"#utility.yul\":6577:6635   */\n      mstore\n        /* \"#utility.yul\":6484:6641   */\n      pop\n      pop\n      jump\t// out\n        /* \"#utility.yul\":6675:7666   */\n    tag_502:\n        /* \"#utility.yul\":6814:6817   */\n      0x00\n        /* \"#utility.yul\":6843:6907   */\n      tag_504\n        /* \"#utility.yul\":6901:6906   */\n      dup3\n        /* \"#utility.yul\":6843:6907   */\n      tag_505\n      jump\t// in\n    tag_504:\n        /* \"#utility.yul\":6923:7019   */\n      tag_506\n        /* \"#utility.yul\":7012:7018   */\n      dup2\n        /* \"#utility.yul\":7007:7010   */\n      dup6\n        /* \"#utility.yul\":6923:7019   */\n      tag_507\n      jump\t// in\n    tag_506:\n        /* \"#utility.yul\":6916:7019   */\n      swap4\n      pop\n        /* \"#utility.yul\":7045:7048   */\n      dup4\n        /* \"#utility.yul\":7090:7094   */\n      0x20\n        /* \"#utility.yul\":7082:7088   */\n      dup3\n        /* \"#utility.yul\":7078:7095   */\n      mul\n        /* \"#utility.yul\":7073:7076   */\n      dup6\n        /* \"#utility.yul\":7069:7096   */\n      add\n        /* \"#utility.yul\":7120:7186   */\n      tag_508\n        /* \"#utility.yul\":7180:7185   */\n      dup6\n        /* \"#utility.yul\":7120:7186   */\n      tag_509\n      jump\t// in\n    tag_508:\n        /* \"#utility.yul\":7209:7216   */\n      dup1\n        /* \"#utility.yul\":7240:7241   */\n      0x00\n        /* \"#utility.yul\":7225:7621   */\n    tag_510:\n        /* \"#utility.yul\":7250:7256   */\n      dup6\n        /* \"#utility.yul\":7247:7248   */\n      dup2\n        /* \"#utility.yul\":7244:7257   */\n      lt\n        /* \"#utility.yul\":7225:7621   */\n      iszero\n      tag_512\n      jumpi\n        /* \"#utility.yul\":7321:7330   */\n      dup5\n        /* \"#utility.yul\":7315:7319   */\n      dup5\n        /* \"#utility.yul\":7311:7331   */\n      sub\n        /* \"#utility.yul\":7306:7309   */\n      dup10\n        /* \"#utility.yul\":7299:7332   */\n      mstore\n        /* \"#utility.yul\":7372:7378   */\n      dup2\n        /* \"#utility.yul\":7366:7379   */\n      mload\n        /* \"#utility.yul\":7400:7484   */\n      tag_513\n        /* \"#utility.yul\":7479:7483   */\n      dup6\n        /* \"#utility.yul\":7464:7477   */\n      dup3\n        /* \"#utility.yul\":7400:7484   */\n      tag_476\n      jump\t// in\n    tag_513:\n        /* \"#utility.yul\":7392:7484   */\n      swap5\n      pop\n        /* \"#utility.yul\":7507:7577   */\n      tag_514\n        /* \"#utility.yul\":7570:7576   */\n      dup4\n        /* \"#utility.yul\":7507:7577   */\n      tag_515\n      jump\t// in\n    tag_514:\n        /* \"#utility.yul\":7497:7577   */\n      swap3\n      pop\n        /* \"#utility.yul\":7606:7610   */\n      0x20\n        /* \"#utility.yul\":7601:7604   */\n      dup11\n        /* \"#utility.yul\":7597:7611   */\n      add\n        /* \"#utility.yul\":7590:7611   */\n      swap10\n      pop\n        /* \"#utility.yul\":7285:7621   */\n      pop\n        /* \"#utility.yul\":7272:7273   */\n      0x01\n        /* \"#utility.yul\":7269:7270   */\n      dup2\n        /* \"#utility.yul\":7265:7274   */\n      add\n        /* \"#utility.yul\":7260:7274   */\n      swap1\n      pop\n        /* \"#utility.yul\":7225:7621   */\n      jump(tag_510)\n    tag_512:\n        /* \"#utility.yul\":7229:7243   */\n      pop\n        /* \"#utility.yul\":7637:7641   */\n      dup3\n        /* \"#utility.yul\":7630:7641   */\n      swap8\n      pop\n        /* \"#utility.yul\":7657:7660   */\n      dup8\n        /* \"#utility.yul\":7650:7660   */\n      swap6\n      pop\n        /* \"#utility.yul\":6819:7666   */\n      pop\n      pop\n      pop\n      pop\n      pop\n        /* \"#utility.yul\":6675:7666   */\n      swap3\n      swap2\n      pop\n      pop\n      jump\t// out\n        /* \"#utility.yul\":7702:8434   */\n    tag_516:\n        /* \"#utility.yul\":7821:7824   */\n      0x00\n        /* \"#utility.yul\":7850:7904   */\n      tag_518\n        /* \"#utility.yul\":7898:7903   */\n      dup3\n        /* \"#utility.yul\":7850:7904   */\n      tag_519\n      jump\t// in\n    tag_518:\n        /* \"#utility.yul\":7920:8006   */\n      tag_520\n        /* \"#utility.yul\":7999:8005   */\n      dup2\n        /* \"#utility.yul\":7994:7997   */\n      dup6\n        /* \"#utility.yul\":7920:8006   */\n      tag_521\n      jump\t// in\n    tag_520:\n        /* \"#utility.yul\":7913:8006   */\n      swap4\n      pop\n        /* \"#utility.yul\":8030:8086   */\n      tag_522\n        /* \"#utility.yul\":8080:8085   */\n      dup4\n        /* \"#utility.yul\":8030:8086   */\n      tag_523\n      jump\t// in\n    tag_522:\n        /* \"#utility.yul\":8109:8116   */\n      dup1\n        /* \"#utility.yul\":8140:8141   */\n      0x00\n        /* \"#utility.yul\":8125:8409   */\n    tag_524:\n        /* \"#utility.yul\":8150:8156   */\n      dup4\n        /* \"#utility.yul\":8147:8148   */\n      dup2\n        /* \"#utility.yul\":8144:8157   */\n      lt\n        /* \"#utility.yul\":8125:8409   */\n      iszero\n      tag_526\n      jumpi\n        /* \"#utility.yul\":8226:8232   */\n      dup2\n        /* \"#utility.yul\":8220:8233   */\n      mload\n        /* \"#utility.yul\":8253:8316   */\n      tag_527\n        /* \"#utility.yul\":8312:8315   */\n      dup9\n        /* \"#utility.yul\":8297:8310   */\n      dup3\n        /* \"#utility.yul\":8253:8316   */\n      tag_480\n      jump\t// in\n    tag_527:\n        /* \"#utility.yul\":8246:8316   */\n      swap8\n      pop\n        /* \"#utility.yul\":8339:8399   */\n      tag_528\n        /* \"#utility.yul\":8392:8398   */\n      dup4\n        /* \"#utility.yul\":8339:8399   */\n      tag_529\n      jump\t// in\n    tag_528:\n        /* \"#utility.yul\":8329:8399   */\n      swap3\n      pop\n        /* \"#utility.yul\":8185:8409   */\n      pop\n        /* \"#utility.yul\":8172:8173   */\n      0x01\n        /* \"#utility.yul\":8169:8170   */\n      dup2\n        /* \"#utility.yul\":8165:8174   */\n      add\n        /* \"#utility.yul\":8160:8174   */\n      swap1\n      pop\n        /* \"#utility.yul\":8125:8409   */\n      jump(tag_524)\n    tag_526:\n        /* \"#utility.yul\":8129:8143   */\n      pop\n        /* \"#utility.yul\":8425:8428   */\n      dup6\n        /* \"#utility.yul\":8418:8428   */\n      swap4\n      pop\n        /* \"#utility.yul\":7826:8434   */\n      pop\n      pop\n      pop\n        /* \"#utility.yul\":7702:8434   */\n      swap3\n      swap2\n      pop\n      pop\n      jump\t// out\n        /* \"#utility.yul\":8440:8549   */\n    tag_530:\n        /* \"#utility.yul\":8521:8542   */\n      tag_532\n        /* \"#utility.yul\":8536:8541   */\n      dup2\n        /* \"#utility.yul\":8521:8542   */\n      tag_533\n      jump\t// in\n    tag_532:\n        /* \"#utility.yul\":8516:8519   */\n      dup3\n        /* \"#utility.yul\":8509:8543   */\n      mstore\n        /* \"#utility.yul\":8440:8549   */\n      pop\n      pop\n      jump\t// out\n        /* \"#utility.yul\":8555:8899   */\n    tag_479:\n        /* \"#utility.yul\":8633:8636   */\n      0x00\n        /* \"#utility.yul\":8661:8700   */\n      tag_535\n        /* \"#utility.yul\":8694:8699   */\n      dup3\n        /* \"#utility.yul\":8661:8700   */\n      tag_536\n      jump\t// in\n    tag_535:\n        /* \"#utility.yul\":8716:8777   */\n      tag_537\n        /* \"#utility.yul\":8770:8776   */\n      dup2\n        /* \"#utility.yul\":8765:8768   */\n      dup6\n        /* \"#utility.yul\":8716:8777   */\n      tag_538\n      jump\t// in\n    tag_537:\n        /* \"#utility.yul\":8709:8777   */\n      swap4\n      pop\n        /* \"#utility.yul\":8786:8838   */\n      tag_539\n        /* \"#utility.yul\":8831:8837   */\n      dup2\n        /* \"#utility.yul\":8826:8829   */\n      dup6\n        /* \"#utility.yul\":8819:8823   */\n      0x20\n        /* \"#utility.yul\":8812:8817   */\n      dup7\n        /* \"#utility.yul\":8808:8824   */\n      add\n        /* \"#utility.yul\":8786:8838   */\n      tag_540\n      jump\t// in\n    tag_539:\n        /* \"#utility.yul\":8863:8892   */\n      tag_541\n        /* \"#utility.yul\":8885:8891   */\n      dup2\n        /* \"#utility.yul\":8863:8892   */\n      tag_542\n      jump\t// in\n    tag_541:\n        /* \"#utility.yul\":8858:8861   */\n      dup5\n        /* \"#utility.yul\":8854:8893   */\n      add\n        /* \"#utility.yul\":8847:8893   */\n      swap2\n      pop\n        /* \"#utility.yul\":8637:8899   */\n      pop\n        /* \"#utility.yul\":8555:8899   */\n      swap3\n      swap2\n      pop\n      pop\n      jump\t// out\n        /* \"#utility.yul\":8905:9269   */\n    tag_543:\n        /* \"#utility.yul\":8993:8996   */\n      0x00\n        /* \"#utility.yul\":9021:9060   */\n      tag_545\n        /* \"#utility.yul\":9054:9059   */\n      dup3\n        /* \"#utility.yul\":9021:9060   */\n      tag_536\n      jump\t// in\n    tag_545:\n        /* \"#utility.yul\":9076:9147   */\n      tag_546\n        /* \"#utility.yul\":9140:9146   */\n      dup2\n        /* \"#utility.yul\":9135:9138   */\n      dup6\n        /* \"#utility.yul\":9076:9147   */\n      tag_547\n      jump\t// in\n    tag_546:\n        /* \"#utility.yul\":9069:9147   */\n      swap4\n      pop\n        /* \"#utility.yul\":9156:9208   */\n      tag_548\n        /* \"#utility.yul\":9201:9207   */\n      dup2\n        /* \"#utility.yul\":9196:9199   */\n      dup6\n        /* \"#utility.yul\":9189:9193   */\n      0x20\n        /* \"#utility.yul\":9182:9187   */\n      dup7\n        /* \"#utility.yul\":9178:9194   */\n      add\n        /* \"#utility.yul\":9156:9208   */\n      tag_540\n      jump\t// in\n    tag_548:\n        /* \"#utility.yul\":9233:9262   */\n      tag_549\n        /* \"#utility.yul\":9255:9261   */\n      dup2\n        /* \"#utility.yul\":9233:9262   */\n      tag_542\n      jump\t// in\n    tag_549:\n        /* \"#utility.yul\":9228:9231   */\n      dup5\n        /* \"#utility.yul\":9224:9263   */\n      add\n        /* \"#utility.yul\":9217:9263   */\n      swap2\n      pop\n        /* \"#utility.yul\":8997:9269   */\n      pop\n        /* \"#utility.yul\":8905:9269   */\n      swap3\n      swap2\n      pop\n      pop\n      jump\t// out\n        /* \"#utility.yul\":9275:9652   */\n    tag_550:\n        /* \"#utility.yul\":9381:9384   */\n      0x00\n        /* \"#utility.yul\":9409:9448   */\n      tag_552\n        /* \"#utility.yul\":9442:9447   */\n      dup3\n        /* \"#utility.yul\":9409:9448   */\n      tag_536\n      jump\t// in\n    tag_552:\n        /* \"#utility.yul\":9464:9553   */\n      tag_553\n        /* \"#utility.yul\":9546:9552   */\n      dup2\n        /* \"#utility.yul\":9541:9544   */\n      dup6\n        /* \"#utility.yul\":9464:9553   */\n      tag_554\n      jump\t// in\n    tag_553:\n        /* \"#utility.yul\":9457:9553   */\n      swap4\n      pop\n        /* \"#utility.yul\":9562:9614   */\n      tag_555\n        /* \"#utility.yul\":9607:9613   */\n      dup2\n        /* \"#utility.yul\":9602:9605   */\n      dup6\n        /* \"#utility.yul\":9595:9599   */\n      0x20\n        /* \"#utility.yul\":9588:9593   */\n      dup7\n        /* \"#utility.yul\":9584:9600   */\n      add\n        /* \"#utility.yul\":9562:9614   */\n      tag_540\n      jump\t// in\n    tag_555:\n        /* \"#utility.yul\":9639:9645   */\n      dup1\n        /* \"#utility.yul\":9634:9637   */\n      dup5\n        /* \"#utility.yul\":9630:9646   */\n      add\n        /* \"#utility.yul\":9623:9646   */\n      swap2\n      pop\n        /* \"#utility.yul\":9385:9652   */\n      pop\n        /* \"#utility.yul\":9275:9652   */\n      swap3\n      swap2\n      pop\n      pop\n      jump\t// out\n        /* \"#utility.yul\":9658:10024   */\n    tag_556:\n        /* \"#utility.yul\":9800:9803   */\n      0x00\n        /* \"#utility.yul\":9821:9888   */\n      tag_558\n        /* \"#utility.yul\":9885:9887   */\n      0x34\n        /* \"#utility.yul\":9880:9883   */\n      dup4\n        /* \"#utility.yul\":9821:9888   */\n      tag_547\n      jump\t// in\n    tag_558:\n        /* \"#utility.yul\":9814:9888   */\n      swap2\n      pop\n        /* \"#utility.yul\":9897:9990   */\n      tag_559\n        /* \"#utility.yul\":9986:9989   */\n      dup3\n        /* \"#utility.yul\":9897:9990   */\n      tag_560\n      jump\t// in\n    tag_559:\n        /* \"#utility.yul\":10015:10017   */\n      0x40\n        /* \"#utility.yul\":10010:10013   */\n      dup3\n        /* \"#utility.yul\":10006:10018   */\n      add\n        /* \"#utility.yul\":9999:10018   */\n      swap1\n      pop\n        /* \"#utility.yul\":9658:10024   */\n      swap2\n      swap1\n      pop\n      jump\t// out\n        /* \"#utility.yul\":10030:10396   */\n    tag_561:\n        /* \"#utility.yul\":10172:10175   */\n      0x00\n        /* \"#utility.yul\":10193:10260   */\n      tag_563\n        /* \"#utility.yul\":10257:10259   */\n      0x28\n        /* \"#utility.yul\":10252:10255   */\n      dup4\n        /* \"#utility.yul\":10193:10260   */\n      tag_547\n      jump\t// in\n    tag_563:\n        /* \"#utility.yul\":10186:10260   */\n      swap2\n      pop\n        /* \"#utility.yul\":10269:10362   */\n      tag_564\n        /* \"#utility.yul\":10358:10361   */\n      dup3\n        /* \"#utility.yul\":10269:10362   */\n      tag_565\n      jump\t// in\n    tag_564:\n        /* \"#utility.yul\":10387:10389   */\n      0x40\n        /* \"#utility.yul\":10382:10385   */\n      dup3\n        /* \"#utility.yul\":10378:10390   */\n      add\n        /* \"#utility.yul\":10371:10390   */\n      swap1\n      pop\n        /* \"#utility.yul\":10030:10396   */\n      swap2\n      swap1\n      pop\n      jump\t// out\n        /* \"#utility.yul\":10402:10768   */\n    tag_566:\n        /* \"#utility.yul\":10544:10547   */\n      0x00\n        /* \"#utility.yul\":10565:10632   */\n      tag_568\n        /* \"#utility.yul\":10629:10631   */\n      0x19\n        /* \"#utility.yul\":10624:10627   */\n      dup4\n        /* \"#utility.yul\":10565:10632   */\n      tag_547\n      jump\t// in\n    tag_568:\n        /* \"#utility.yul\":10558:10632   */\n      swap2\n      pop\n        /* \"#utility.yul\":10641:10734   */\n      tag_569\n        /* \"#utility.yul\":10730:10733   */\n      dup3\n        /* \"#utility.yul\":10641:10734   */\n      tag_570\n      jump\t// in\n    tag_569:\n        /* \"#utility.yul\":10759:10761   */\n      0x20\n        /* \"#utility.yul\":10754:10757   */\n      dup3\n        /* \"#utility.yul\":10750:10762   */\n      add\n        /* \"#utility.yul\":10743:10762   */\n      swap1\n      pop\n        /* \"#utility.yul\":10402:10768   */\n      swap2\n      swap1\n      pop\n      jump\t// out\n        /* \"#utility.yul\":10774:11174   */\n    tag_571:\n        /* \"#utility.yul\":10934:10937   */\n      0x00\n        /* \"#utility.yul\":10955:11039   */\n      tag_573\n        /* \"#utility.yul\":11037:11038   */\n      0x08\n        /* \"#utility.yul\":11032:11035   */\n      dup4\n        /* \"#utility.yul\":10955:11039   */\n      tag_554\n      jump\t// in\n    tag_573:\n        /* \"#utility.yul\":10948:11039   */\n      swap2\n      pop\n        /* \"#utility.yul\":11048:11141   */\n      tag_574\n        /* \"#utility.yul\":11137:11140   */\n      dup3\n        /* \"#utility.yul\":11048:11141   */\n      tag_575\n      jump\t// in\n    tag_574:\n        /* \"#utility.yul\":11166:11167   */\n      0x08\n        /* \"#utility.yul\":11161:11164   */\n      dup3\n        /* \"#utility.yul\":11157:11168   */\n      add\n        /* \"#utility.yul\":11150:11168   */\n      swap1\n      pop\n        /* \"#utility.yul\":10774:11174   */\n      swap2\n      swap1\n      pop\n      jump\t// out\n        /* \"#utility.yul\":11180:11546   */\n    tag_576:\n        /* \"#utility.yul\":11322:11325   */\n      0x00\n        /* \"#utility.yul\":11343:11410   */\n      tag_578\n        /* \"#utility.yul\":11407:11409   */\n      0x10\n        /* \"#utility.yul\":11402:11405   */\n      dup4\n        /* \"#utility.yul\":11343:11410   */\n      tag_547\n      jump\t// in\n    tag_578:\n        /* \"#utility.yul\":11336:11410   */\n      swap2\n      pop\n        /* \"#utility.yul\":11419:11512   */\n      tag_579\n        /* \"#utility.yul\":11508:11511   */\n      dup3\n        /* \"#utility.yul\":11419:11512   */\n      tag_580\n      jump\t// in\n    tag_579:\n        /* \"#utility.yul\":11537:11539   */\n      0x20\n        /* \"#utility.yul\":11532:11535   */\n      dup3\n        /* \"#utility.yul\":11528:11540   */\n      add\n        /* \"#utility.yul\":11521:11540   */\n      swap1\n      pop\n        /* \"#utility.yul\":11180:11546   */\n      swap2\n      swap1\n      pop\n      jump\t// out\n        /* \"#utility.yul\":11552:11952   */\n    tag_581:\n        /* \"#utility.yul\":11712:11715   */\n      0x00\n        /* \"#utility.yul\":11733:11817   */\n      tag_583\n        /* \"#utility.yul\":11815:11816   */\n      0x05\n        /* \"#utility.yul\":11810:11813   */\n      dup4\n        /* \"#utility.yul\":11733:11817   */\n      tag_554\n      jump\t// in\n    tag_583:\n        /* \"#utility.yul\":11726:11817   */\n      swap2\n      pop\n        /* \"#utility.yul\":11826:11919   */\n      tag_584\n        /* \"#utility.yul\":11915:11918   */\n      dup3\n        /* \"#utility.yul\":11826:11919   */\n      tag_585\n      jump\t// in\n    tag_584:\n        /* \"#utility.yul\":11944:11945   */\n      0x05\n        /* \"#utility.yul\":11939:11942   */\n      dup3\n        /* \"#utility.yul\":11935:11946   */\n      add\n        /* \"#utility.yul\":11928:11946   */\n      swap1\n      pop\n        /* \"#utility.yul\":11552:11952   */\n      swap2\n      swap1\n      pop\n      jump\t// out\n        /* \"#utility.yul\":11958:12324   */\n    tag_586:\n        /* \"#utility.yul\":12100:12103   */\n      0x00\n        /* \"#utility.yul\":12121:12188   */\n      tag_588\n        /* \"#utility.yul\":12185:12187   */\n      0x12\n        /* \"#utility.yul\":12180:12183   */\n      dup4\n        /* \"#utility.yul\":12121:12188   */\n      tag_547\n      jump\t// in\n    tag_588:\n        /* \"#utility.yul\":12114:12188   */\n      swap2\n      pop\n        /* \"#utility.yul\":12197:12290   */\n      tag_589\n        /* \"#utility.yul\":12286:12289   */\n      dup3\n        /* \"#utility.yul\":12197:12290   */\n      tag_590\n      jump\t// in\n    tag_589:\n        /* \"#utility.yul\":12315:12317   */\n      0x20\n        /* \"#utility.yul\":12310:12313   */\n      dup3\n        /* \"#utility.yul\":12306:12318   */\n      add\n        /* \"#utility.yul\":12299:12318   */\n      swap1\n      pop\n        /* \"#utility.yul\":11958:12324   */\n      swap2\n      swap1\n      pop\n      jump\t// out\n        /* \"#utility.yul\":12330:12696   */\n    tag_591:\n        /* \"#utility.yul\":12472:12475   */\n      0x00\n        /* \"#utility.yul\":12493:12560   */\n      tag_593\n        /* \"#utility.yul\":12557:12559   */\n      0x1b\n        /* \"#utility.yul\":12552:12555   */\n      dup4\n        /* \"#utility.yul\":12493:12560   */\n      tag_547\n      jump\t// in\n    tag_593:\n        /* \"#utility.yul\":12486:12560   */\n      swap2\n      pop\n        /* \"#utility.yul\":12569:12662   */\n      tag_594\n        /* \"#utility.yul\":12658:12661   */\n      dup3\n        /* \"#utility.yul\":12569:12662   */\n      tag_595\n      jump\t// in\n    tag_594:\n        /* \"#utility.yul\":12687:12689   */\n      0x20\n        /* \"#utility.yul\":12682:12685   */\n      dup3\n        /* \"#utility.yul\":12678:12690   */\n      add\n        /* \"#utility.yul\":12671:12690   */\n      swap1\n      pop\n        /* \"#utility.yul\":12330:12696   */\n      swap2\n      swap1\n      pop\n      jump\t// out\n        /* \"#utility.yul\":12702:13068   */\n    tag_596:\n        /* \"#utility.yul\":12844:12847   */\n      0x00\n        /* \"#utility.yul\":12865:12932   */\n      tag_598\n        /* \"#utility.yul\":12929:12931   */\n      0x1b\n        /* \"#utility.yul\":12924:12927   */\n      dup4\n        /* \"#utility.yul\":12865:12932   */\n      tag_547\n      jump\t// in\n    tag_598:\n        /* \"#utility.yul\":12858:12932   */\n      swap2\n      pop\n        /* \"#utility.yul\":12941:13034   */\n      tag_599\n        /* \"#utility.yul\":13030:13033   */\n      dup3\n        /* \"#utility.yul\":12941:13034   */\n      tag_600\n      jump\t// in\n    tag_599:\n        /* \"#utility.yul\":13059:13061   */\n      0x20\n        /* \"#utility.yul\":13054:13057   */\n      dup3\n        /* \"#utility.yul\":13050:13062   */\n      add\n        /* \"#utility.yul\":13043:13062   */\n      swap1\n      pop\n        /* \"#utility.yul\":12702:13068   */\n      swap2\n      swap1\n      pop\n      jump\t// out\n        /* \"#utility.yul\":13074:13440   */\n    tag_601:\n        /* \"#utility.yul\":13216:13219   */\n      0x00\n        /* \"#utility.yul\":13237:13304   */\n      tag_603\n        /* \"#utility.yul\":13301:13303   */\n      0x15\n        /* \"#utility.yul\":13296:13299   */\n      dup4\n        /* \"#utility.yul\":13237:13304   */\n      tag_547\n      jump\t// in\n    tag_603:\n        /* \"#utility.yul\":13230:13304   */\n      swap2\n      pop\n        /* \"#utility.yul\":13313:13406   */\n      tag_604\n        /* \"#utility.yul\":13402:13405   */\n      dup3\n        /* \"#utility.yul\":13313:13406   */\n      tag_605\n      jump\t// in\n    tag_604:\n        /* \"#utility.yul\":13431:13433   */\n      0x20\n        /* \"#utility.yul\":13426:13429   */\n      dup3\n        /* \"#utility.yul\":13422:13434   */\n      add\n        /* \"#utility.yul\":13415:13434   */\n      swap1\n      pop\n        /* \"#utility.yul\":13074:13440   */\n      swap2\n      swap1\n      pop\n      jump\t// out\n        /* \"#utility.yul\":13446:13812   */\n    tag_606:\n        /* \"#utility.yul\":13588:13591   */\n      0x00\n        /* \"#utility.yul\":13609:13676   */\n      tag_608\n        /* \"#utility.yul\":13673:13675   */\n      0x1c\n        /* \"#utility.yul\":13668:13671   */\n      dup4\n        /* \"#utility.yul\":13609:13676   */\n      tag_547\n      jump\t// in\n    tag_608:\n        /* \"#utility.yul\":13602:13676   */\n      swap2\n      pop\n        /* \"#utility.yul\":13685:13778   */\n      tag_609\n        /* \"#utility.yul\":13774:13777   */\n      dup3\n        /* \"#utility.yul\":13685:13778   */\n      tag_610\n      jump\t// in\n    tag_609:\n        /* \"#utility.yul\":13803:13805   */\n      0x20\n        /* \"#utility.yul\":13798:13801   */\n      dup3\n        /* \"#utility.yul\":13794:13806   */\n      add\n        /* \"#utility.yul\":13787:13806   */\n      swap1\n      pop\n        /* \"#utility.yul\":13446:13812   */\n      swap2\n      swap1\n      pop\n      jump\t// out\n        /* \"#utility.yul\":13818:14184   */\n    tag_611:\n        /* \"#utility.yul\":13960:13963   */\n      0x00\n        /* \"#utility.yul\":13981:14048   */\n      tag_613\n        /* \"#utility.yul\":14045:14047   */\n      0x1f\n        /* \"#utility.yul\":14040:14043   */\n      dup4\n        /* \"#utility.yul\":13981:14048   */\n      tag_547\n      jump\t// in\n    tag_613:\n        /* \"#utility.yul\":13974:14048   */\n      swap2\n      pop\n        /* \"#utility.yul\":14057:14150   */\n      tag_614\n        /* \"#utility.yul\":14146:14149   */\n      dup3\n        /* \"#utility.yul\":14057:14150   */\n      tag_615\n      jump\t// in\n    tag_614:\n        /* \"#utility.yul\":14175:14177   */\n      0x20\n        /* \"#utility.yul\":14170:14173   */\n      dup3\n        /* \"#utility.yul\":14166:14178   */\n      add\n        /* \"#utility.yul\":14159:14178   */\n      swap1\n      pop\n        /* \"#utility.yul\":13818:14184   */\n      swap2\n      swap1\n      pop\n      jump\t// out\n        /* \"#utility.yul\":14190:14556   */\n    tag_616:\n        /* \"#utility.yul\":14332:14335   */\n      0x00\n        /* \"#utility.yul\":14353:14420   */\n      tag_618\n        /* \"#utility.yul\":14417:14419   */\n      0x1b\n        /* \"#utility.yul\":14412:14415   */\n      dup4\n        /* \"#utility.yul\":14353:14420   */\n      tag_547\n      jump\t// in\n    tag_618:\n        /* \"#utility.yul\":14346:14420   */\n      swap2\n      pop\n        /* \"#utility.yul\":14429:14522   */\n      tag_619\n        /* \"#utility.yul\":14518:14521   */\n      dup3\n        /* \"#utility.yul\":14429:14522   */\n      tag_620\n      jump\t// in\n    tag_619:\n        /* \"#utility.yul\":14547:14549   */\n      0x20\n        /* \"#utility.yul\":14542:14545   */\n      dup3\n        /* \"#utility.yul\":14538:14550   */\n      add\n        /* \"#utility.yul\":14531:14550   */\n      swap1\n      pop\n        /* \"#utility.yul\":14190:14556   */\n      swap2\n      swap1\n      pop\n      jump\t// out\n        /* \"#utility.yul\":14562:14928   */\n    tag_621:\n        /* \"#utility.yul\":14704:14707   */\n      0x00\n        /* \"#utility.yul\":14725:14792   */\n      tag_623\n        /* \"#utility.yul\":14789:14791   */\n      0x19\n        /* \"#utility.yul\":14784:14787   */\n      dup4\n        /* \"#utility.yul\":14725:14792   */\n      tag_547\n      jump\t// in\n    tag_623:\n        /* \"#utility.yul\":14718:14792   */\n      swap2\n      pop\n        /* \"#utility.yul\":14801:14894   */\n      tag_624\n        /* \"#utility.yul\":14890:14893   */\n      dup3\n        /* \"#utility.yul\":14801:14894   */\n      tag_625\n      jump\t// in\n    tag_624:\n        /* \"#utility.yul\":14919:14921   */\n      0x20\n        /* \"#utility.yul\":14914:14917   */\n      dup3\n        /* \"#utility.yul\":14910:14922   */\n      add\n        /* \"#utility.yul\":14903:14922   */\n      swap1\n      pop\n        /* \"#utility.yul\":14562:14928   */\n      swap2\n      swap1\n      pop\n      jump\t// out\n        /* \"#utility.yul\":14934:15334   */\n    tag_626:\n        /* \"#utility.yul\":15094:15097   */\n      0x00\n        /* \"#utility.yul\":15115:15199   */\n      tag_628\n        /* \"#utility.yul\":15197:15198   */\n      0x01\n        /* \"#utility.yul\":15192:15195   */\n      dup4\n        /* \"#utility.yul\":15115:15199   */\n      tag_554\n      jump\t// in\n    tag_628:\n        /* \"#utility.yul\":15108:15199   */\n      swap2\n      pop\n        /* \"#utility.yul\":15208:15301   */\n      tag_629\n        /* \"#utility.yul\":15297:15300   */\n      dup3\n        /* \"#utility.yul\":15208:15301   */\n      tag_630\n      jump\t// in\n    tag_629:\n        /* \"#utility.yul\":15326:15327   */\n      0x01\n        /* \"#utility.yul\":15321:15324   */\n      dup3\n        /* \"#utility.yul\":15317:15328   */\n      add\n        /* \"#utility.yul\":15310:15328   */\n      swap1\n      pop\n        /* \"#utility.yul\":14934:15334   */\n      swap2\n      swap1\n      pop\n      jump\t// out\n        /* \"#utility.yul\":15340:15740   */\n    tag_631:\n        /* \"#utility.yul\":15500:15503   */\n      0x00\n        /* \"#utility.yul\":15521:15605   */\n      tag_633\n        /* \"#utility.yul\":15603:15604   */\n      0x07\n        /* \"#utility.yul\":15598:15601   */\n      dup4\n        /* \"#utility.yul\":15521:15605   */\n      tag_554\n      jump\t// in\n    tag_633:\n        /* \"#utility.yul\":15514:15605   */\n      swap2\n      pop\n        /* \"#utility.yul\":15614:15707   */\n      tag_634\n        /* \"#utility.yul\":15703:15706   */\n      dup3\n        /* \"#utility.yul\":15614:15707   */\n      tag_635\n      jump\t// in\n    tag_634:\n        /* \"#utility.yul\":15732:15733   */\n      0x07\n        /* \"#utility.yul\":15727:15730   */\n      dup3\n        /* \"#utility.yul\":15723:15734   */\n      add\n        /* \"#utility.yul\":15716:15734   */\n      swap1\n      pop\n        /* \"#utility.yul\":15340:15740   */\n      swap2\n      swap1\n      pop\n      jump\t// out\n        /* \"#utility.yul\":15746:16112   */\n    tag_636:\n        /* \"#utility.yul\":15888:15891   */\n      0x00\n        /* \"#utility.yul\":15909:15976   */\n      tag_638\n        /* \"#utility.yul\":15973:15975   */\n      0x21\n        /* \"#utility.yul\":15968:15971   */\n      dup4\n        /* \"#utility.yul\":15909:15976   */\n      tag_547\n      jump\t// in\n    tag_638:\n        /* \"#utility.yul\":15902:15976   */\n      swap2\n      pop\n        /* \"#utility.yul\":15985:16078   */\n      tag_639\n        /* \"#utility.yul\":16074:16077   */\n      dup3\n        /* \"#utility.yul\":15985:16078   */\n      tag_640\n      jump\t// in\n    tag_639:\n        /* \"#utility.yul\":16103:16105   */\n      0x40\n        /* \"#utility.yul\":16098:16101   */\n      dup3\n        /* \"#utility.yul\":16094:16106   */\n      add\n        /* \"#utility.yul\":16087:16106   */\n      swap1\n      pop\n        /* \"#utility.yul\":15746:16112   */\n      swap2\n      swap1\n      pop\n      jump\t// out\n        /* \"#utility.yul\":16118:16226   */\n    tag_483:\n        /* \"#utility.yul\":16195:16219   */\n      tag_642\n        /* \"#utility.yul\":16213:16218   */\n      dup2\n        /* \"#utility.yul\":16195:16219   */\n      tag_643\n      jump\t// in\n    tag_642:\n        /* \"#utility.yul\":16190:16193   */\n      dup3\n        /* \"#utility.yul\":16183:16220   */\n      mstore\n        /* \"#utility.yul\":16118:16226   */\n      pop\n      pop\n      jump\t// out\n        /* \"#utility.yul\":16232:16350   */\n    tag_644:\n        /* \"#utility.yul\":16319:16343   */\n      tag_646\n        /* \"#utility.yul\":16337:16342   */\n      dup2\n        /* \"#utility.yul\":16319:16343   */\n      tag_643\n      jump\t// in\n    tag_646:\n        /* \"#utility.yul\":16314:16317   */\n      dup3\n        /* \"#utility.yul\":16307:16344   */\n      mstore\n        /* \"#utility.yul\":16232:16350   */\n      pop\n      pop\n      jump\t// out\n        /* \"#utility.yul\":16356:16513   */\n    tag_647:\n        /* \"#utility.yul\":16461:16506   */\n      tag_649\n        /* \"#utility.yul\":16481:16505   */\n      tag_650\n        /* \"#utility.yul\":16499:16504   */\n      dup3\n        /* \"#utility.yul\":16481:16505   */\n      tag_643\n      jump\t// in\n    tag_650:\n        /* \"#utility.yul\":16461:16506   */\n      tag_651\n      jump\t// in\n    tag_649:\n        /* \"#utility.yul\":16456:16459   */\n      dup3\n        /* \"#utility.yul\":16449:16507   */\n      mstore\n        /* \"#utility.yul\":16356:16513   */\n      pop\n      pop\n      jump\t// out\n        /* \"#utility.yul\":16519:17220   */\n    tag_154:\n        /* \"#utility.yul\":16800:16803   */\n      0x00\n        /* \"#utility.yul\":16822:16917   */\n      tag_653\n        /* \"#utility.yul\":16913:16916   */\n      dup3\n        /* \"#utility.yul\":16904:16910   */\n      dup6\n        /* \"#utility.yul\":16822:16917   */\n      tag_550\n      jump\t// in\n    tag_653:\n        /* \"#utility.yul\":16815:16917   */\n      swap2\n      pop\n        /* \"#utility.yul\":16934:17082   */\n      tag_654\n        /* \"#utility.yul\":17078:17081   */\n      dup3\n        /* \"#utility.yul\":16934:17082   */\n      tag_626\n      jump\t// in\n    tag_654:\n        /* \"#utility.yul\":16927:17082   */\n      swap2\n      pop\n        /* \"#utility.yul\":17099:17194   */\n      tag_655\n        /* \"#utility.yul\":17190:17193   */\n      dup3\n        /* \"#utility.yul\":17181:17187   */\n      dup5\n        /* \"#utility.yul\":17099:17194   */\n      tag_550\n      jump\t// in\n    tag_655:\n        /* \"#utility.yul\":17092:17194   */\n      swap2\n      pop\n        /* \"#utility.yul\":17211:17214   */\n      dup2\n        /* \"#utility.yul\":17204:17214   */\n      swap1\n      pop\n        /* \"#utility.yul\":16519:17220   */\n      swap4\n      swap3\n      pop\n      pop\n      pop\n      jump\t// out\n        /* \"#utility.yul\":17226:17767   */\n    tag_299:\n        /* \"#utility.yul\":17459:17462   */\n      0x00\n        /* \"#utility.yul\":17481:17629   */\n      tag_657\n        /* \"#utility.yul\":17625:17628   */\n      dup3\n        /* \"#utility.yul\":17481:17629   */\n      tag_571\n      jump\t// in\n    tag_657:\n        /* \"#utility.yul\":17474:17629   */\n      swap2\n      pop\n        /* \"#utility.yul\":17646:17741   */\n      tag_658\n        /* \"#utility.yul\":17737:17740   */\n      dup3\n        /* \"#utility.yul\":17728:17734   */\n      dup5\n        /* \"#utility.yul\":17646:17741   */\n      tag_550\n      jump\t// in\n    tag_658:\n        /* \"#utility.yul\":17639:17741   */\n      swap2\n      pop\n        /* \"#utility.yul\":17758:17761   */\n      dup2\n        /* \"#utility.yul\":17751:17761   */\n      swap1\n      pop\n        /* \"#utility.yul\":17226:17767   */\n      swap3\n      swap2\n      pop\n      pop\n      jump\t// out\n        /* \"#utility.yul\":17773:18314   */\n    tag_309:\n        /* \"#utility.yul\":18006:18009   */\n      0x00\n        /* \"#utility.yul\":18028:18176   */\n      tag_660\n        /* \"#utility.yul\":18172:18175   */\n      dup3\n        /* \"#utility.yul\":18028:18176   */\n      tag_581\n      jump\t// in\n    tag_660:\n        /* \"#utility.yul\":18021:18176   */\n      swap2\n      pop\n        /* \"#utility.yul\":18193:18288   */\n      tag_661\n        /* \"#utility.yul\":18284:18287   */\n      dup3\n        /* \"#utility.yul\":18275:18281   */\n      dup5\n        /* \"#utility.yul\":18193:18288   */\n      tag_550\n      jump\t// in\n    tag_661:\n        /* \"#utility.yul\":18186:18288   */\n      swap2\n      pop\n        /* \"#utility.yul\":18305:18308   */\n      dup2\n        /* \"#utility.yul\":18298:18308   */\n      swap1\n      pop\n        /* \"#utility.yul\":17773:18314   */\n      swap3\n      swap2\n      pop\n      pop\n      jump\t// out\n        /* \"#utility.yul\":18320:18861   */\n    tag_318:\n        /* \"#utility.yul\":18553:18556   */\n      0x00\n        /* \"#utility.yul\":18575:18723   */\n      tag_663\n        /* \"#utility.yul\":18719:18722   */\n      dup3\n        /* \"#utility.yul\":18575:18723   */\n      tag_631\n      jump\t// in\n    tag_663:\n        /* \"#utility.yul\":18568:18723   */\n      swap2\n      pop\n        /* \"#utility.yul\":18740:18835   */\n      tag_664\n        /* \"#utility.yul\":18831:18834   */\n      dup3\n        /* \"#utility.yul\":18822:18828   */\n      dup5\n        /* \"#utility.yul\":18740:18835   */\n      tag_550\n      jump\t// in\n    tag_664:\n        /* \"#utility.yul\":18733:18835   */\n      swap2\n      pop\n        /* \"#utility.yul\":18852:18855   */\n      dup2\n        /* \"#utility.yul\":18845:18855   */\n      swap1\n      pop\n        /* \"#utility.yul\":18320:18861   */\n      swap3\n      swap2\n      pop\n      pop\n      jump\t// out\n        /* \"#utility.yul\":18867:19437   */\n    tag_288:\n        /* \"#utility.yul\":19051:19054   */\n      0x00\n        /* \"#utility.yul\":19066:19141   */\n      tag_666\n        /* \"#utility.yul\":19137:19140   */\n      dup3\n        /* \"#utility.yul\":19128:19134   */\n      dup7\n        /* \"#utility.yul\":19066:19141   */\n      tag_647\n      jump\t// in\n    tag_666:\n        /* \"#utility.yul\":19166:19168   */\n      0x20\n        /* \"#utility.yul\":19161:19164   */\n      dup3\n        /* \"#utility.yul\":19157:19169   */\n      add\n        /* \"#utility.yul\":19150:19169   */\n      swap2\n      pop\n        /* \"#utility.yul\":19179:19254   */\n      tag_667\n        /* \"#utility.yul\":19250:19253   */\n      dup3\n        /* \"#utility.yul\":19241:19247   */\n      dup6\n        /* \"#utility.yul\":19179:19254   */\n      tag_497\n      jump\t// in\n    tag_667:\n        /* \"#utility.yul\":19279:19281   */\n      0x14\n        /* \"#utility.yul\":19274:19277   */\n      dup3\n        /* \"#utility.yul\":19270:19282   */\n      add\n        /* \"#utility.yul\":19263:19282   */\n      swap2\n      pop\n        /* \"#utility.yul\":19292:19383   */\n      tag_668\n        /* \"#utility.yul\":19379:19382   */\n      dup3\n        /* \"#utility.yul\":19370:19376   */\n      dup5\n        /* \"#utility.yul\":19292:19383   */\n      tag_488\n      jump\t// in\n    tag_668:\n        /* \"#utility.yul\":19408:19410   */\n      0x14\n        /* \"#utility.yul\":19403:19406   */\n      dup3\n        /* \"#utility.yul\":19399:19411   */\n      add\n        /* \"#utility.yul\":19392:19411   */\n      swap2\n      pop\n        /* \"#utility.yul\":19428:19431   */\n      dup2\n        /* \"#utility.yul\":19421:19431   */\n      swap1\n      pop\n        /* \"#utility.yul\":18867:19437   */\n      swap5\n      swap4\n      pop\n      pop\n      pop\n      pop\n      jump\t// out\n        /* \"#utility.yul\":19443:19697   */\n    tag_81:\n        /* \"#utility.yul\":19552:19556   */\n      0x00\n        /* \"#utility.yul\":19590:19592   */\n      0x20\n        /* \"#utility.yul\":19579:19588   */\n      dup3\n        /* \"#utility.yul\":19575:19593   */\n      add\n        /* \"#utility.yul\":19567:19593   */\n      swap1\n      pop\n        /* \"#utility.yul\":19603:19690   */\n      tag_670\n        /* \"#utility.yul\":19687:19688   */\n      0x00\n        /* \"#utility.yul\":19676:19685   */\n      dup4\n        /* \"#utility.yul\":19672:19689   */\n      add\n        /* \"#utility.yul\":19663:19669   */\n      dup5\n        /* \"#utility.yul\":19603:19690   */\n      tag_484\n      jump\t// in\n    tag_670:\n        /* \"#utility.yul\":19443:19697   */\n      swap3\n      swap2\n      pop\n      pop\n      jump\t// out\n        /* \"#utility.yul\":19703:20458   */\n    tag_358:\n        /* \"#utility.yul\":19928:19932   */\n      0x00\n        /* \"#utility.yul\":19966:19969   */\n      0xa0\n        /* \"#utility.yul\":19955:19964   */\n      dup3\n        /* \"#utility.yul\":19951:19970   */\n      add\n        /* \"#utility.yul\":19943:19970   */\n      swap1\n      pop\n        /* \"#utility.yul\":19980:20051   */\n      tag_672\n        /* \"#utility.yul\":20048:20049   */\n      0x00\n        /* \"#utility.yul\":20037:20046   */\n      dup4\n        /* \"#utility.yul\":20033:20050   */\n      add\n        /* \"#utility.yul\":20024:20030   */\n      dup9\n        /* \"#utility.yul\":19980:20051   */\n      tag_493\n      jump\t// in\n    tag_672:\n        /* \"#utility.yul\":20061:20133   */\n      tag_673\n        /* \"#utility.yul\":20129:20131   */\n      0x20\n        /* \"#utility.yul\":20118:20127   */\n      dup4\n        /* \"#utility.yul\":20114:20132   */\n      add\n        /* \"#utility.yul\":20105:20111   */\n      dup8\n        /* \"#utility.yul\":20061:20133   */\n      tag_493\n      jump\t// in\n    tag_673:\n        /* \"#utility.yul\":20143:20215   */\n      tag_674\n        /* \"#utility.yul\":20211:20213   */\n      0x40\n        /* \"#utility.yul\":20200:20209   */\n      dup4\n        /* \"#utility.yul\":20196:20214   */\n      add\n        /* \"#utility.yul\":20187:20193   */\n      dup7\n        /* \"#utility.yul\":20143:20215   */\n      tag_644\n      jump\t// in\n    tag_674:\n        /* \"#utility.yul\":20225:20297   */\n      tag_675\n        /* \"#utility.yul\":20293:20295   */\n      0x60\n        /* \"#utility.yul\":20282:20291   */\n      dup4\n        /* \"#utility.yul\":20278:20296   */\n      add\n        /* \"#utility.yul\":20269:20275   */\n      dup6\n        /* \"#utility.yul\":20225:20297   */\n      tag_644\n      jump\t// in\n    tag_675:\n        /* \"#utility.yul\":20345:20354   */\n      dup2\n        /* \"#utility.yul\":20339:20343   */\n      dup2\n        /* \"#utility.yul\":20335:20355   */\n      sub\n        /* \"#utility.yul\":20329:20332   */\n      0x80\n        /* \"#utility.yul\":20318:20327   */\n      dup4\n        /* \"#utility.yul\":20314:20333   */\n      add\n        /* \"#utility.yul\":20307:20356   */\n      mstore\n        /* \"#utility.yul\":20373:20451   */\n      tag_676\n        /* \"#utility.yul\":20446:20450   */\n      dup2\n        /* \"#utility.yul\":20437:20443   */\n      dup5\n        /* \"#utility.yul\":20373:20451   */\n      tag_543\n      jump\t// in\n    tag_676:\n        /* \"#utility.yul\":20365:20451   */\n      swap1\n      pop\n        /* \"#utility.yul\":19703:20458   */\n      swap7\n      swap6\n      pop\n      pop\n      pop\n      pop\n      pop\n      pop\n      jump\t// out\n        /* \"#utility.yul\":20464:20877   */\n    tag_46:\n        /* \"#utility.yul\":20627:20631   */\n      0x00\n        /* \"#utility.yul\":20665:20667   */\n      0x20\n        /* \"#utility.yul\":20654:20663   */\n      dup3\n        /* \"#utility.yul\":20650:20668   */\n      add\n        /* \"#utility.yul\":20642:20668   */\n      swap1\n      pop\n        /* \"#utility.yul\":20714:20723   */\n      dup2\n        /* \"#utility.yul\":20708:20712   */\n      dup2\n        /* \"#utility.yul\":20704:20724   */\n      sub\n        /* \"#utility.yul\":20700:20701   */\n      0x00\n        /* \"#utility.yul\":20689:20698   */\n      dup4\n        /* \"#utility.yul\":20685:20702   */\n      add\n        /* \"#utility.yul\":20678:20725   */\n      mstore\n        /* \"#utility.yul\":20742:20870   */\n      tag_678\n        /* \"#utility.yul\":20865:20869   */\n      dup2\n        /* \"#utility.yul\":20856:20862   */\n      dup5\n        /* \"#utility.yul\":20742:20870   */\n      tag_502\n      jump\t// in\n    tag_678:\n        /* \"#utility.yul\":20734:20870   */\n      swap1\n      pop\n        /* \"#utility.yul\":20464:20877   */\n      swap3\n      swap2\n      pop\n      pop\n      jump\t// out\n        /* \"#utility.yul\":20883:21256   */\n    tag_39:\n        /* \"#utility.yul\":21026:21030   */\n      0x00\n        /* \"#utility.yul\":21064:21066   */\n      0x20\n        /* \"#utility.yul\":21053:21062   */\n      dup3\n        /* \"#utility.yul\":21049:21067   */\n      add\n        /* \"#utility.yul\":21041:21067   */\n      swap1\n      pop\n        /* \"#utility.yul\":21113:21122   */\n      dup2\n        /* \"#utility.yul\":21107:21111   */\n      dup2\n        /* \"#utility.yul\":21103:21123   */\n      sub\n        /* \"#utility.yul\":21099:21100   */\n      0x00\n        /* \"#utility.yul\":21088:21097   */\n      dup4\n        /* \"#utility.yul\":21084:21101   */\n      add\n        /* \"#utility.yul\":21077:21124   */\n      mstore\n        /* \"#utility.yul\":21141:21249   */\n      tag_680\n        /* \"#utility.yul\":21244:21248   */\n      dup2\n        /* \"#utility.yul\":21235:21241   */\n      dup5\n        /* \"#utility.yul\":21141:21249   */\n      tag_516\n      jump\t// in\n    tag_680:\n        /* \"#utility.yul\":21133:21249   */\n      swap1\n      pop\n        /* \"#utility.yul\":20883:21256   */\n      swap3\n      swap2\n      pop\n      pop\n      jump\t// out\n        /* \"#utility.yul\":21262:21472   */\n    tag_76:\n        /* \"#utility.yul\":21349:21353   */\n      0x00\n        /* \"#utility.yul\":21387:21389   */\n      0x20\n        /* \"#utility.yul\":21376:21385   */\n      dup3\n        /* \"#utility.yul\":21372:21390   */\n      add\n        /* \"#utility.yul\":21364:21390   */\n      swap1\n      pop\n        /* \"#utility.yul\":21400:21465   */\n      tag_682\n        /* \"#utility.yul\":21462:21463   */\n      0x00\n        /* \"#utility.yul\":21451:21460   */\n      dup4\n        /* \"#utility.yul\":21447:21464   */\n      add\n        /* \"#utility.yul\":21438:21444   */\n      dup5\n        /* \"#utility.yul\":21400:21465   */\n      tag_530\n      jump\t// in\n    tag_682:\n        /* \"#utility.yul\":21262:21472   */\n      swap3\n      swap2\n      pop\n      pop\n      jump\t// out\n        /* \"#utility.yul\":21478:21791   */\n    tag_373:\n        /* \"#utility.yul\":21591:21595   */\n      0x00\n        /* \"#utility.yul\":21629:21631   */\n      0x20\n        /* \"#utility.yul\":21618:21627   */\n      dup3\n        /* \"#utility.yul\":21614:21632   */\n      add\n        /* \"#utility.yul\":21606:21632   */\n      swap1\n      pop\n        /* \"#utility.yul\":21678:21687   */\n      dup2\n        /* \"#utility.yul\":21672:21676   */\n      dup2\n        /* \"#utility.yul\":21668:21688   */\n      sub\n        /* \"#utility.yul\":21664:21665   */\n      0x00\n        /* \"#utility.yul\":21653:21662   */\n      dup4\n        /* \"#utility.yul\":21649:21666   */\n      add\n        /* \"#utility.yul\":21642:21689   */\n      mstore\n        /* \"#utility.yul\":21706:21784   */\n      tag_684\n        /* \"#utility.yul\":21779:21783   */\n      dup2\n        /* \"#utility.yul\":21770:21776   */\n      dup5\n        /* \"#utility.yul\":21706:21784   */\n      tag_543\n      jump\t// in\n    tag_684:\n        /* \"#utility.yul\":21698:21784   */\n      swap1\n      pop\n        /* \"#utility.yul\":21478:21791   */\n      swap3\n      swap2\n      pop\n      pop\n      jump\t// out\n        /* \"#utility.yul\":21797:22216   */\n    tag_375:\n        /* \"#utility.yul\":21963:21967   */\n      0x00\n        /* \"#utility.yul\":22001:22003   */\n      0x20\n        /* \"#utility.yul\":21990:21999   */\n      dup3\n        /* \"#utility.yul\":21986:22004   */\n      add\n        /* \"#utility.yul\":21978:22004   */\n      swap1\n      pop\n        /* \"#utility.yul\":22050:22059   */\n      dup2\n        /* \"#utility.yul\":22044:22048   */\n      dup2\n        /* \"#utility.yul\":22040:22060   */\n      sub\n        /* \"#utility.yul\":22036:22037   */\n      0x00\n        /* \"#utility.yul\":22025:22034   */\n      dup4\n        /* \"#utility.yul\":22021:22038   */\n      add\n        /* \"#utility.yul\":22014:22061   */\n      mstore\n        /* \"#utility.yul\":22078:22209   */\n      tag_686\n        /* \"#utility.yul\":22204:22208   */\n      dup2\n        /* \"#utility.yul\":22078:22209   */\n      tag_556\n      jump\t// in\n    tag_686:\n        /* \"#utility.yul\":22070:22209   */\n      swap1\n      pop\n        /* \"#utility.yul\":21797:22216   */\n      swap2\n      swap1\n      pop\n      jump\t// out\n        /* \"#utility.yul\":22222:22641   */\n    tag_379:\n        /* \"#utility.yul\":22388:22392   */\n      0x00\n        /* \"#utility.yul\":22426:22428   */\n      0x20\n        /* \"#utility.yul\":22415:22424   */\n      dup3\n        /* \"#utility.yul\":22411:22429   */\n      add\n        /* \"#utility.yul\":22403:22429   */\n      swap1\n      pop\n        /* \"#utility.yul\":22475:22484   */\n      dup2\n        /* \"#utility.yul\":22469:22473   */\n      dup2\n        /* \"#utility.yul\":22465:22485   */\n      sub\n        /* \"#utility.yul\":22461:22462   */\n      0x00\n        /* \"#utility.yul\":22450:22459   */\n      dup4\n        /* \"#utility.yul\":22446:22463   */\n      add\n        /* \"#utility.yul\":22439:22486   */\n      mstore\n        /* \"#utility.yul\":22503:22634   */\n      tag_688\n        /* \"#utility.yul\":22629:22633   */\n      dup2\n        /* \"#utility.yul\":22503:22634   */\n      tag_561\n      jump\t// in\n    tag_688:\n        /* \"#utility.yul\":22495:22634   */\n      swap1\n      pop\n        /* \"#utility.yul\":22222:22641   */\n      swap2\n      swap1\n      pop\n      jump\t// out\n        /* \"#utility.yul\":22647:23066   */\n    tag_109:\n        /* \"#utility.yul\":22813:22817   */\n      0x00\n        /* \"#utility.yul\":22851:22853   */\n      0x20\n        /* \"#utility.yul\":22840:22849   */\n      dup3\n        /* \"#utility.yul\":22836:22854   */\n      add\n        /* \"#utility.yul\":22828:22854   */\n      swap1\n      pop\n        /* \"#utility.yul\":22900:22909   */\n      dup2\n        /* \"#utility.yul\":22894:22898   */\n      dup2\n        /* \"#utility.yul\":22890:22910   */\n      sub\n        /* \"#utility.yul\":22886:22887   */\n      0x00\n        /* \"#utility.yul\":22875:22884   */\n      dup4\n        /* \"#utility.yul\":22871:22888   */\n      add\n        /* \"#utility.yul\":22864:22911   */\n      mstore\n        /* \"#utility.yul\":22928:23059   */\n      tag_690\n        /* \"#utility.yul\":23054:23058   */\n      dup2\n        /* \"#utility.yul\":22928:23059   */\n      tag_566\n      jump\t// in\n    tag_690:\n        /* \"#utility.yul\":22920:23059   */\n      swap1\n      pop\n        /* \"#utility.yul\":22647:23066   */\n      swap2\n      swap1\n      pop\n      jump\t// out\n        /* \"#utility.yul\":23072:23491   */\n    tag_140:\n        /* \"#utility.yul\":23238:23242   */\n      0x00\n        /* \"#utility.yul\":23276:23278   */\n      0x20\n        /* \"#utility.yul\":23265:23274   */\n      dup3\n        /* \"#utility.yul\":23261:23279   */\n      add\n        /* \"#utility.yul\":23253:23279   */\n      swap1\n      pop\n        /* \"#utility.yul\":23325:23334   */\n      dup2\n        /* \"#utility.yul\":23319:23323   */\n      dup2\n        /* \"#utility.yul\":23315:23335   */\n      sub\n        /* \"#utility.yul\":23311:23312   */\n      0x00\n        /* \"#utility.yul\":23300:23309   */\n      dup4\n        /* \"#utility.yul\":23296:23313   */\n      add\n        /* \"#utility.yul\":23289:23336   */\n      mstore\n        /* \"#utility.yul\":23353:23484   */\n      tag_692\n        /* \"#utility.yul\":23479:23483   */\n      dup2\n        /* \"#utility.yul\":23353:23484   */\n      tag_576\n      jump\t// in\n    tag_692:\n        /* \"#utility.yul\":23345:23484   */\n      swap1\n      pop\n        /* \"#utility.yul\":23072:23491   */\n      swap2\n      swap1\n      pop\n      jump\t// out\n        /* \"#utility.yul\":23497:23916   */\n    tag_193:\n        /* \"#utility.yul\":23663:23667   */\n      0x00\n        /* \"#utility.yul\":23701:23703   */\n      0x20\n        /* \"#utility.yul\":23690:23699   */\n      dup3\n        /* \"#utility.yul\":23686:23704   */\n      add\n        /* \"#utility.yul\":23678:23704   */\n      swap1\n      pop\n        /* \"#utility.yul\":23750:23759   */\n      dup2\n        /* \"#utility.yul\":23744:23748   */\n      dup2\n        /* \"#utility.yul\":23740:23760   */\n      sub\n        /* \"#utility.yul\":23736:23737   */\n      0x00\n        /* \"#utility.yul\":23725:23734   */\n      dup4\n        /* \"#utility.yul\":23721:23738   */\n      add\n        /* \"#utility.yul\":23714:23761   */\n      mstore\n        /* \"#utility.yul\":23778:23909   */\n      tag_694\n        /* \"#utility.yul\":23904:23908   */\n      dup2\n        /* \"#utility.yul\":23778:23909   */\n      tag_586\n      jump\t// in\n    tag_694:\n        /* \"#utility.yul\":23770:23909   */\n      swap1\n      pop\n        /* \"#utility.yul\":23497:23916   */\n      swap2\n      swap1\n      pop\n      jump\t// out\n        /* \"#utility.yul\":23922:24341   */\n    tag_101:\n        /* \"#utility.yul\":24088:24092   */\n      0x00\n        /* \"#utility.yul\":24126:24128   */\n      0x20\n        /* \"#utility.yul\":24115:24124   */\n      dup3\n        /* \"#utility.yul\":24111:24129   */\n      add\n        /* \"#utility.yul\":24103:24129   */\n      swap1\n      pop\n        /* \"#utility.yul\":24175:24184   */\n      dup2\n        /* \"#utility.yul\":24169:24173   */\n      dup2\n        /* \"#utility.yul\":24165:24185   */\n      sub\n        /* \"#utility.yul\":24161:24162   */\n      0x00\n        /* \"#utility.yul\":24150:24159   */\n      dup4\n        /* \"#utility.yul\":24146:24163   */\n      add\n        /* \"#utility.yul\":24139:24186   */\n      mstore\n        /* \"#utility.yul\":24203:24334   */\n      tag_696\n        /* \"#utility.yul\":24329:24333   */\n      dup2\n        /* \"#utility.yul\":24203:24334   */\n      tag_591\n      jump\t// in\n    tag_696:\n        /* \"#utility.yul\":24195:24334   */\n      swap1\n      pop\n        /* \"#utility.yul\":23922:24341   */\n      swap2\n      swap1\n      pop\n      jump\t// out\n        /* \"#utility.yul\":24347:24766   */\n    tag_226:\n        /* \"#utility.yul\":24513:24517   */\n      0x00\n        /* \"#utility.yul\":24551:24553   */\n      0x20\n        /* \"#utility.yul\":24540:24549   */\n      dup3\n        /* \"#utility.yul\":24536:24554   */\n      add\n        /* \"#utility.yul\":24528:24554   */\n      swap1\n      pop\n        /* \"#utility.yul\":24600:24609   */\n      dup2\n        /* \"#utility.yul\":24594:24598   */\n      dup2\n        /* \"#utility.yul\":24590:24610   */\n      sub\n        /* \"#utility.yul\":24586:24587   */\n      0x00\n        /* \"#utility.yul\":24575:24584   */\n      dup4\n        /* \"#utility.yul\":24571:24588   */\n      add\n        /* \"#utility.yul\":24564:24611   */\n      mstore\n        /* \"#utility.yul\":24628:24759   */\n      tag_698\n        /* \"#utility.yul\":24754:24758   */\n      dup2\n        /* \"#utility.yul\":24628:24759   */\n      tag_596\n      jump\t// in\n    tag_698:\n        /* \"#utility.yul\":24620:24759   */\n      swap1\n      pop\n        /* \"#utility.yul\":24347:24766   */\n      swap2\n      swap1\n      pop\n      jump\t// out\n        /* \"#utility.yul\":24772:25191   */\n    tag_134:\n        /* \"#utility.yul\":24938:24942   */\n      0x00\n        /* \"#utility.yul\":24976:24978   */\n      0x20\n        /* \"#utility.yul\":24965:24974   */\n      dup3\n        /* \"#utility.yul\":24961:24979   */\n      add\n        /* \"#utility.yul\":24953:24979   */\n      swap1\n      pop\n        /* \"#utility.yul\":25025:25034   */\n      dup2\n        /* \"#utility.yul\":25019:25023   */\n      dup2\n        /* \"#utility.yul\":25015:25035   */\n      sub\n        /* \"#utility.yul\":25011:25012   */\n      0x00\n        /* \"#utility.yul\":25000:25009   */\n      dup4\n        /* \"#utility.yul\":24996:25013   */\n      add\n        /* \"#utility.yul\":24989:25036   */\n      mstore\n        /* \"#utility.yul\":25053:25184   */\n      tag_700\n        /* \"#utility.yul\":25179:25183   */\n      dup2\n        /* \"#utility.yul\":25053:25184   */\n      tag_601\n      jump\t// in\n    tag_700:\n        /* \"#utility.yul\":25045:25184   */\n      swap1\n      pop\n        /* \"#utility.yul\":24772:25191   */\n      swap2\n      swap1\n      pop\n      jump\t// out\n        /* \"#utility.yul\":25197:25616   */\n    tag_97:\n        /* \"#utility.yul\":25363:25367   */\n      0x00\n        /* \"#utility.yul\":25401:25403   */\n      0x20\n        /* \"#utility.yul\":25390:25399   */\n      dup3\n        /* \"#utility.yul\":25386:25404   */\n      add\n        /* \"#utility.yul\":25378:25404   */\n      swap1\n      pop\n        /* \"#utility.yul\":25450:25459   */\n      dup2\n        /* \"#utility.yul\":25444:25448   */\n      dup2\n        /* \"#utility.yul\":25440:25460   */\n      sub\n        /* \"#utility.yul\":25436:25437   */\n      0x00\n        /* \"#utility.yul\":25425:25434   */\n      dup4\n        /* \"#utility.yul\":25421:25438   */\n      add\n        /* \"#utility.yul\":25414:25461   */\n      mstore\n        /* \"#utility.yul\":25478:25609   */\n      tag_702\n        /* \"#utility.yul\":25604:25608   */\n      dup2\n        /* \"#utility.yul\":25478:25609   */\n      tag_606\n      jump\t// in\n    tag_702:\n        /* \"#utility.yul\":25470:25609   */\n      swap1\n      pop\n        /* \"#utility.yul\":25197:25616   */\n      swap2\n      swap1\n      pop\n      jump\t// out\n        /* \"#utility.yul\":25622:26041   */\n    tag_129:\n        /* \"#utility.yul\":25788:25792   */\n      0x00\n        /* \"#utility.yul\":25826:25828   */\n      0x20\n        /* \"#utility.yul\":25815:25824   */\n      dup3\n        /* \"#utility.yul\":25811:25829   */\n      add\n        /* \"#utility.yul\":25803:25829   */\n      swap1\n      pop\n        /* \"#utility.yul\":25875:25884   */\n      dup2\n        /* \"#utility.yul\":25869:25873   */\n      dup2\n        /* \"#utility.yul\":25865:25885   */\n      sub\n        /* \"#utility.yul\":25861:25862   */\n      0x00\n        /* \"#utility.yul\":25850:25859   */\n      dup4\n        /* \"#utility.yul\":25846:25863   */\n      add\n        /* \"#utility.yul\":25839:25886   */\n      mstore\n        /* \"#utility.yul\":25903:26034   */\n      tag_704\n        /* \"#utility.yul\":26029:26033   */\n      dup2\n        /* \"#utility.yul\":25903:26034   */\n      tag_611\n      jump\t// in\n    tag_704:\n        /* \"#utility.yul\":25895:26034   */\n      swap1\n      pop\n        /* \"#utility.yul\":25622:26041   */\n      swap2\n      swap1\n      pop\n      jump\t// out\n        /* \"#utility.yul\":26047:26466   */\n    tag_115:\n        /* \"#utility.yul\":26213:26217   */\n      0x00\n        /* \"#utility.yul\":26251:26253   */\n      0x20\n        /* \"#utility.yul\":26240:26249   */\n      dup3\n        /* \"#utility.yul\":26236:26254   */\n      add\n        /* \"#utility.yul\":26228:26254   */\n      swap1\n      pop\n        /* \"#utility.yul\":26300:26309   */\n      dup2\n        /* \"#utility.yul\":26294:26298   */\n      dup2\n        /* \"#utility.yul\":26290:26310   */\n      sub\n        /* \"#utility.yul\":26286:26287   */\n      0x00\n        /* \"#utility.yul\":26275:26284   */\n      dup4\n        /* \"#utility.yul\":26271:26288   */\n      add\n        /* \"#utility.yul\":26264:26311   */\n      mstore\n        /* \"#utility.yul\":26328:26459   */\n      tag_706\n        /* \"#utility.yul\":26454:26458   */\n      dup2\n        /* \"#utility.yul\":26328:26459   */\n      tag_616\n      jump\t// in\n    tag_706:\n        /* \"#utility.yul\":26320:26459   */\n      swap1\n      pop\n        /* \"#utility.yul\":26047:26466   */\n      swap2\n      swap1\n      pop\n      jump\t// out\n        /* \"#utility.yul\":26472:26891   */\n    tag_137:\n        /* \"#utility.yul\":26638:26642   */\n      0x00\n        /* \"#utility.yul\":26676:26678   */\n      0x20\n        /* \"#utility.yul\":26665:26674   */\n      dup3\n        /* \"#utility.yul\":26661:26679   */\n      add\n        /* \"#utility.yul\":26653:26679   */\n      swap1\n      pop\n        /* \"#utility.yul\":26725:26734   */\n      dup2\n        /* \"#utility.yul\":26719:26723   */\n      dup2\n        /* \"#utility.yul\":26715:26735   */\n      sub\n        /* \"#utility.yul\":26711:26712   */\n      0x00\n        /* \"#utility.yul\":26700:26709   */\n      dup4\n        /* \"#utility.yul\":26696:26713   */\n      add\n        /* \"#utility.yul\":26689:26736   */\n      mstore\n        /* \"#utility.yul\":26753:26884   */\n      tag_708\n        /* \"#utility.yul\":26879:26883   */\n      dup2\n        /* \"#utility.yul\":26753:26884   */\n      tag_621\n      jump\t// in\n    tag_708:\n        /* \"#utility.yul\":26745:26884   */\n      swap1\n      pop\n        /* \"#utility.yul\":26472:26891   */\n      swap2\n      swap1\n      pop\n      jump\t// out\n        /* \"#utility.yul\":26897:27316   */\n    tag_334:\n        /* \"#utility.yul\":27063:27067   */\n      0x00\n        /* \"#utility.yul\":27101:27103   */\n      0x20\n        /* \"#utility.yul\":27090:27099   */\n      dup3\n        /* \"#utility.yul\":27086:27104   */\n      add\n        /* \"#utility.yul\":27078:27104   */\n      swap1\n      pop\n        /* \"#utility.yul\":27150:27159   */\n      dup2\n        /* \"#utility.yul\":27144:27148   */\n      dup2\n        /* \"#utility.yul\":27140:27160   */\n      sub\n        /* \"#utility.yul\":27136:27137   */\n      0x00\n        /* \"#utility.yul\":27125:27134   */\n      dup4\n        /* \"#utility.yul\":27121:27138   */\n      add\n        /* \"#utility.yul\":27114:27161   */\n      mstore\n        /* \"#utility.yul\":27178:27309   */\n      tag_710\n        /* \"#utility.yul\":27304:27308   */\n      dup2\n        /* \"#utility.yul\":27178:27309   */\n      tag_636\n      jump\t// in\n    tag_710:\n        /* \"#utility.yul\":27170:27309   */\n      swap1\n      pop\n        /* \"#utility.yul\":26897:27316   */\n      swap2\n      swap1\n      pop\n      jump\t// out\n        /* \"#utility.yul\":27322:27544   */\n    tag_24:\n        /* \"#utility.yul\":27415:27419   */\n      0x00\n        /* \"#utility.yul\":27453:27455   */\n      0x20\n        /* \"#utility.yul\":27442:27451   */\n      dup3\n        /* \"#utility.yul\":27438:27456   */\n      add\n        /* \"#utility.yul\":27430:27456   */\n      swap1\n      pop\n        /* \"#utility.yul\":27466:27537   */\n      tag_712\n        /* \"#utility.yul\":27534:27535   */\n      0x00\n        /* \"#utility.yul\":27523:27532   */\n      dup4\n        /* \"#utility.yul\":27519:27536   */\n      add\n        /* \"#utility.yul\":27510:27516   */\n      dup5\n        /* \"#utility.yul\":27466:27537   */\n      tag_644\n      jump\t// in\n    tag_712:\n        /* \"#utility.yul\":27322:27544   */\n      swap3\n      swap2\n      pop\n      pop\n      jump\t// out\n        /* \"#utility.yul\":27550:27882   */\n    tag_343:\n        /* \"#utility.yul\":27671:27675   */\n      0x00\n        /* \"#utility.yul\":27709:27711   */\n      0x40\n        /* \"#utility.yul\":27698:27707   */\n      dup3\n        /* \"#utility.yul\":27694:27712   */\n      add\n        /* \"#utility.yul\":27686:27712   */\n      swap1\n      pop\n        /* \"#utility.yul\":27722:27793   */\n      tag_714\n        /* \"#utility.yul\":27790:27791   */\n      0x00\n        /* \"#utility.yul\":27779:27788   */\n      dup4\n        /* \"#utility.yul\":27775:27792   */\n      add\n        /* \"#utility.yul\":27766:27772   */\n      dup6\n        /* \"#utility.yul\":27722:27793   */\n      tag_644\n      jump\t// in\n    tag_714:\n        /* \"#utility.yul\":27803:27875   */\n      tag_715\n        /* \"#utility.yul\":27871:27873   */\n      0x20\n        /* \"#utility.yul\":27860:27869   */\n      dup4\n        /* \"#utility.yul\":27856:27874   */\n      add\n        /* \"#utility.yul\":27847:27853   */\n      dup5\n        /* \"#utility.yul\":27803:27875   */\n      tag_644\n      jump\t// in\n    tag_715:\n        /* \"#utility.yul\":27550:27882   */\n      swap4\n      swap3\n      pop\n      pop\n      pop\n      jump\t// out\n        /* \"#utility.yul\":27888:28330   */\n    tag_51:\n        /* \"#utility.yul\":28037:28041   */\n      0x00\n        /* \"#utility.yul\":28075:28077   */\n      0x60\n        /* \"#utility.yul\":28064:28073   */\n      dup3\n        /* \"#utility.yul\":28060:28078   */\n      add\n        /* \"#utility.yul\":28052:28078   */\n      swap1\n      pop\n        /* \"#utility.yul\":28088:28159   */\n      tag_717\n        /* \"#utility.yul\":28156:28157   */\n      0x00\n        /* \"#utility.yul\":28145:28154   */\n      dup4\n        /* \"#utility.yul\":28141:28158   */\n      add\n        /* \"#utility.yul\":28132:28138   */\n      dup7\n        /* \"#utility.yul\":28088:28159   */\n      tag_644\n      jump\t// in\n    tag_717:\n        /* \"#utility.yul\":28169:28241   */\n      tag_718\n        /* \"#utility.yul\":28237:28239   */\n      0x20\n        /* \"#utility.yul\":28226:28235   */\n      dup4\n        /* \"#utility.yul\":28222:28240   */\n      add\n        /* \"#utility.yul\":28213:28219   */\n      dup6\n        /* \"#utility.yul\":28169:28241   */\n      tag_644\n      jump\t// in\n    tag_718:\n        /* \"#utility.yul\":28251:28323   */\n      tag_719\n        /* \"#utility.yul\":28319:28321   */\n      0x40\n        /* \"#utility.yul\":28308:28317   */\n      dup4\n        /* \"#utility.yul\":28304:28322   */\n      add\n        /* \"#utility.yul\":28295:28301   */\n      dup5\n        /* \"#utility.yul\":28251:28323   */\n      tag_644\n      jump\t// in\n    tag_719:\n        /* \"#utility.yul\":27888:28330   */\n      swap5\n      swap4\n      pop\n      pop\n      pop\n      pop\n      jump\t// out\n        /* \"#utility.yul\":28336:28465   */\n    tag_397:\n        /* \"#utility.yul\":28370:28376   */\n      0x00\n        /* \"#utility.yul\":28397:28417   */\n      tag_721\n      tag_722\n      jump\t// in\n    tag_721:\n        /* \"#utility.yul\":28387:28417   */\n      swap1\n      pop\n        /* \"#utility.yul\":28426:28459   */\n      tag_723\n        /* \"#utility.yul\":28454:28458   */\n      dup3\n        /* \"#utility.yul\":28446:28452   */\n      dup3\n        /* \"#utility.yul\":28426:28459   */\n      tag_724\n      jump\t// in\n    tag_723:\n        /* \"#utility.yul\":28336:28465   */\n      swap2\n      swap1\n      pop\n      jump\t// out\n        /* \"#utility.yul\":28471:28546   */\n    tag_722:\n        /* \"#utility.yul\":28504:28510   */\n      0x00\n        /* \"#utility.yul\":28537:28539   */\n      0x40\n        /* \"#utility.yul\":28531:28540   */\n      mload\n        /* \"#utility.yul\":28521:28540   */\n      swap1\n      pop\n        /* \"#utility.yul\":28471:28546   */\n      swap1\n      jump\t// out\n        /* \"#utility.yul\":28552:28873   */\n    tag_396:\n        /* \"#utility.yul\":28639:28643   */\n      0x00\n        /* \"#utility.yul\":28729:28747   */\n      0xffffffffffffffff\n        /* \"#utility.yul\":28721:28727   */\n      dup3\n        /* \"#utility.yul\":28718:28748   */\n      gt\n        /* \"#utility.yul\":28715:28771   */\n      iszero\n      tag_727\n      jumpi\n        /* \"#utility.yul\":28751:28769   */\n      tag_728\n      tag_143\n      jump\t// in\n    tag_728:\n        /* \"#utility.yul\":28715:28771   */\n    tag_727:\n        /* \"#utility.yul\":28801:28805   */\n      0x20\n        /* \"#utility.yul\":28793:28799   */\n      dup3\n        /* \"#utility.yul\":28789:28806   */\n      mul\n        /* \"#utility.yul\":28781:28806   */\n      swap1\n      pop\n        /* \"#utility.yul\":28861:28865   */\n      0x20\n        /* \"#utility.yul\":28855:28859   */\n      dup2\n        /* \"#utility.yul\":28851:28866   */\n      add\n        /* \"#utility.yul\":28843:28866   */\n      swap1\n      pop\n        /* \"#utility.yul\":28552:28873   */\n      swap2\n      swap1\n      pop\n      jump\t// out\n        /* \"#utility.yul\":28879:29187   */\n    tag_413:\n        /* \"#utility.yul\":28941:28945   */\n      0x00\n        /* \"#utility.yul\":29031:29049   */\n      0xffffffffffffffff\n        /* \"#utility.yul\":29023:29029   */\n      dup3\n        /* \"#utility.yul\":29020:29050   */\n      gt\n        /* \"#utility.yul\":29017:29073   */\n      iszero\n      tag_730\n      jumpi\n        /* \"#utility.yul\":29053:29071   */\n      tag_731\n      tag_143\n      jump\t// in\n    tag_731:\n        /* \"#utility.yul\":29017:29073   */\n    tag_730:\n        /* \"#utility.yul\":29091:29120   */\n      tag_732\n        /* \"#utility.yul\":29113:29119   */\n      dup3\n        /* \"#utility.yul\":29091:29120   */\n      tag_542\n      jump\t// in\n    tag_732:\n        /* \"#utility.yul\":29083:29120   */\n      swap1\n      pop\n        /* \"#utility.yul\":29175:29179   */\n      0x20\n        /* \"#utility.yul\":29169:29173   */\n      dup2\n        /* \"#utility.yul\":29165:29180   */\n      add\n        /* \"#utility.yul\":29157:29180   */\n      swap1\n      pop\n        /* \"#utility.yul\":28879:29187   */\n      swap2\n      swap1\n      pop\n      jump\t// out\n        /* \"#utility.yul\":29193:29335   */\n    tag_509:\n        /* \"#utility.yul\":29270:29274   */\n      0x00\n        /* \"#utility.yul\":29293:29296   */\n      dup2\n        /* \"#utility.yul\":29285:29296   */\n      swap1\n      pop\n        /* \"#utility.yul\":29323:29327   */\n      0x20\n        /* \"#utility.yul\":29318:29321   */\n      dup3\n        /* \"#utility.yul\":29314:29328   */\n      add\n        /* \"#utility.yul\":29306:29328   */\n      swap1\n      pop\n        /* \"#utility.yul\":29193:29335   */\n      swap2\n      swap1\n      pop\n      jump\t// out\n        /* \"#utility.yul\":29341:29473   */\n    tag_523:\n        /* \"#utility.yul\":29408:29412   */\n      0x00\n        /* \"#utility.yul\":29431:29434   */\n      dup2\n        /* \"#utility.yul\":29423:29434   */\n      swap1\n      pop\n        /* \"#utility.yul\":29461:29465   */\n      0x20\n        /* \"#utility.yul\":29456:29459   */\n      dup3\n        /* \"#utility.yul\":29452:29466   */\n      add\n        /* \"#utility.yul\":29444:29466   */\n      swap1\n      pop\n        /* \"#utility.yul\":29341:29473   */\n      swap2\n      swap1\n      pop\n      jump\t// out\n        /* \"#utility.yul\":29479:29603   */\n    tag_505:\n        /* \"#utility.yul\":29556:29562   */\n      0x00\n        /* \"#utility.yul\":29590:29595   */\n      dup2\n        /* \"#utility.yul\":29584:29596   */\n      mload\n        /* \"#utility.yul\":29574:29596   */\n      swap1\n      pop\n        /* \"#utility.yul\":29479:29603   */\n      swap2\n      swap1\n      pop\n      jump\t// out\n        /* \"#utility.yul\":29609:29723   */\n    tag_519:\n        /* \"#utility.yul\":29676:29682   */\n      0x00\n        /* \"#utility.yul\":29710:29715   */\n      dup2\n        /* \"#utility.yul\":29704:29716   */\n      mload\n        /* \"#utility.yul\":29694:29716   */\n      swap1\n      pop\n        /* \"#utility.yul\":29609:29723   */\n      swap2\n      swap1\n      pop\n      jump\t// out\n        /* \"#utility.yul\":29729:29828   */\n    tag_536:\n        /* \"#utility.yul\":29781:29787   */\n      0x00\n        /* \"#utility.yul\":29815:29820   */\n      dup2\n        /* \"#utility.yul\":29809:29821   */\n      mload\n        /* \"#utility.yul\":29799:29821   */\n      swap1\n      pop\n        /* \"#utility.yul\":29729:29828   */\n      swap2\n      swap1\n      pop\n      jump\t// out\n        /* \"#utility.yul\":29834:29957   */\n    tag_515:\n        /* \"#utility.yul\":29914:29918   */\n      0x00\n        /* \"#utility.yul\":29946:29950   */\n      0x20\n        /* \"#utility.yul\":29941:29944   */\n      dup3\n        /* \"#utility.yul\":29937:29951   */\n      add\n        /* \"#utility.yul\":29929:29951   */\n      swap1\n      pop\n        /* \"#utility.yul\":29834:29957   */\n      swap2\n      swap1\n      pop\n      jump\t// out\n        /* \"#utility.yul\":29963:30076   */\n    tag_529:\n        /* \"#utility.yul\":30033:30037   */\n      0x00\n        /* \"#utility.yul\":30065:30069   */\n      0x20\n        /* \"#utility.yul\":30060:30063   */\n      dup3\n        /* \"#utility.yul\":30056:30070   */\n      add\n        /* \"#utility.yul\":30048:30070   */\n      swap1\n      pop\n        /* \"#utility.yul\":29963:30076   */\n      swap2\n      swap1\n      pop\n      jump\t// out\n        /* \"#utility.yul\":30082:30276   */\n    tag_507:\n        /* \"#utility.yul\":30191:30202   */\n      0x00\n        /* \"#utility.yul\":30225:30231   */\n      dup3\n        /* \"#utility.yul\":30220:30223   */\n      dup3\n        /* \"#utility.yul\":30213:30232   */\n      mstore\n        /* \"#utility.yul\":30265:30269   */\n      0x20\n        /* \"#utility.yul\":30260:30263   */\n      dup3\n        /* \"#utility.yul\":30256:30270   */\n      add\n        /* \"#utility.yul\":30241:30270   */\n      swap1\n      pop\n        /* \"#utility.yul\":30082:30276   */\n      swap3\n      swap2\n      pop\n      pop\n      jump\t// out\n        /* \"#utility.yul\":30282:30466   */\n    tag_521:\n        /* \"#utility.yul\":30381:30392   */\n      0x00\n        /* \"#utility.yul\":30415:30421   */\n      dup3\n        /* \"#utility.yul\":30410:30413   */\n      dup3\n        /* \"#utility.yul\":30403:30422   */\n      mstore\n        /* \"#utility.yul\":30455:30459   */\n      0x20\n        /* \"#utility.yul\":30450:30453   */\n      dup3\n        /* \"#utility.yul\":30446:30460   */\n      add\n        /* \"#utility.yul\":30431:30460   */\n      swap1\n      pop\n        /* \"#utility.yul\":30282:30466   */\n      swap3\n      swap2\n      pop\n      pop\n      jump\t// out\n        /* \"#utility.yul\":30472:30631   */\n    tag_538:\n        /* \"#utility.yul\":30546:30557   */\n      0x00\n        /* \"#utility.yul\":30580:30586   */\n      dup3\n        /* \"#utility.yul\":30575:30578   */\n      dup3\n        /* \"#utility.yul\":30568:30587   */\n      mstore\n        /* \"#utility.yul\":30620:30624   */\n      0x20\n        /* \"#utility.yul\":30615:30618   */\n      dup3\n        /* \"#utility.yul\":30611:30625   */\n      add\n        /* \"#utility.yul\":30596:30625   */\n      swap1\n      pop\n        /* \"#utility.yul\":30472:30631   */\n      swap3\n      swap2\n      pop\n      pop\n      jump\t// out\n        /* \"#utility.yul\":30637:30806   */\n    tag_547:\n        /* \"#utility.yul\":30721:30732   */\n      0x00\n        /* \"#utility.yul\":30755:30761   */\n      dup3\n        /* \"#utility.yul\":30750:30753   */\n      dup3\n        /* \"#utility.yul\":30743:30762   */\n      mstore\n        /* \"#utility.yul\":30795:30799   */\n      0x20\n        /* \"#utility.yul\":30790:30793   */\n      dup3\n        /* \"#utility.yul\":30786:30800   */\n      add\n        /* \"#utility.yul\":30771:30800   */\n      swap1\n      pop\n        /* \"#utility.yul\":30637:30806   */\n      swap3\n      swap2\n      pop\n      pop\n      jump\t// out\n        /* \"#utility.yul\":30812:30960   */\n    tag_554:\n        /* \"#utility.yul\":30914:30925   */\n      0x00\n        /* \"#utility.yul\":30951:30954   */\n      dup2\n        /* \"#utility.yul\":30936:30954   */\n      swap1\n      pop\n        /* \"#utility.yul\":30812:30960   */\n      swap3\n      swap2\n      pop\n      pop\n      jump\t// out\n        /* \"#utility.yul\":30966:31271   */\n    tag_276:\n        /* \"#utility.yul\":31006:31009   */\n      0x00\n        /* \"#utility.yul\":31025:31045   */\n      tag_746\n        /* \"#utility.yul\":31043:31044   */\n      dup3\n        /* \"#utility.yul\":31025:31045   */\n      tag_643\n      jump\t// in\n    tag_746:\n        /* \"#utility.yul\":31020:31045   */\n      swap2\n      pop\n        /* \"#utility.yul\":31059:31079   */\n      tag_747\n        /* \"#utility.yul\":31077:31078   */\n      dup4\n        /* \"#utility.yul\":31059:31079   */\n      tag_643\n      jump\t// in\n    tag_747:\n        /* \"#utility.yul\":31054:31079   */\n      swap3\n      pop\n        /* \"#utility.yul\":31213:31214   */\n      dup3\n        /* \"#utility.yul\":31145:31211   */\n      0xffffffffffffffffffffffffffffffffffffffffffffffffffffffffffffffff\n        /* \"#utility.yul\":31141:31215   */\n      sub\n        /* \"#utility.yul\":31138:31139   */\n      dup3\n        /* \"#utility.yul\":31135:31216   */\n      gt\n        /* \"#utility.yul\":31132:31239   */\n      iszero\n      tag_748\n      jumpi\n        /* \"#utility.yul\":31219:31237   */\n      tag_749\n      tag_750\n      jump\t// in\n    tag_749:\n        /* \"#utility.yul\":31132:31239   */\n    tag_748:\n        /* \"#utility.yul\":31263:31264   */\n      dup3\n        /* \"#utility.yul\":31260:31261   */\n      dup3\n        /* \"#utility.yul\":31256:31265   */\n      add\n        /* \"#utility.yul\":31249:31265   */\n      swap1\n      pop\n        /* \"#utility.yul\":30966:31271   */\n      swap3\n      swap2\n      pop\n      pop\n      jump\t// out\n        /* \"#utility.yul\":31277:31462   */\n    tag_265:\n        /* \"#utility.yul\":31317:31318   */\n      0x00\n        /* \"#utility.yul\":31334:31354   */\n      tag_752\n        /* \"#utility.yul\":31352:31353   */\n      dup3\n        /* \"#utility.yul\":31334:31354   */\n      tag_643\n      jump\t// in\n    tag_752:\n        /* \"#utility.yul\":31329:31354   */\n      swap2\n      pop\n        /* \"#utility.yul\":31368:31388   */\n      tag_753\n        /* \"#utility.yul\":31386:31387   */\n      dup4\n        /* \"#utility.yul\":31368:31388   */\n      tag_643\n      jump\t// in\n    tag_753:\n        /* \"#utility.yul\":31363:31388   */\n      swap3\n      pop\n        /* \"#utility.yul\":31407:31408   */\n      dup3\n        /* \"#utility.yul\":31397:31432   */\n      tag_754\n      jumpi\n        /* \"#utility.yul\":31412:31430   */\n      tag_755\n      tag_756\n      jump\t// in\n    tag_755:\n        /* \"#utility.yul\":31397:31432   */\n    tag_754:\n        /* \"#utility.yul\":31454:31455   */\n      dup3\n        /* \"#utility.yul\":31451:31452   */\n      dup3\n        /* \"#utility.yul\":31447:31456   */\n      div\n        /* \"#utility.yul\":31442:31456   */\n      swap1\n      pop\n        /* \"#utility.yul\":31277:31462   */\n      swap3\n      swap2\n      pop\n      pop\n      jump\t// out\n        /* \"#utility.yul\":31468:31816   */\n    tag_190:\n        /* \"#utility.yul\":31508:31515   */\n      0x00\n        /* \"#utility.yul\":31531:31551   */\n      tag_758\n        /* \"#utility.yul\":31549:31550   */\n      dup3\n        /* \"#utility.yul\":31531:31551   */\n      tag_643\n      jump\t// in\n    tag_758:\n        /* \"#utility.yul\":31526:31551   */\n      swap2\n      pop\n        /* \"#utility.yul\":31565:31585   */\n      tag_759\n        /* \"#utility.yul\":31583:31584   */\n      dup4\n        /* \"#utility.yul\":31565:31585   */\n      tag_643\n      jump\t// in\n    tag_759:\n        /* \"#utility.yul\":31560:31585   */\n      swap3\n      pop\n        /* \"#utility.yul\":31753:31754   */\n      dup2\n        /* \"#utility.yul\":31685:31751   */\n      0xffffffffffffffffffffffffffffffffffffffffffffffffffffffffffffffff\n        /* \"#utility.yul\":31681:31755   */\n      div\n        /* \"#utility.yul\":31678:31679   */\n      dup4\n        /* \"#utility.yul\":31675:31756   */\n      gt\n        /* \"#utility.yul\":31670:31671   */\n      dup3\n        /* \"#utility.yul\":31663:31672   */\n      iszero\n        /* \"#utility.yul\":31656:31673   */\n      iszero\n        /* \"#utility.yul\":31652:31757   */\n      and\n        /* \"#utility.yul\":31649:31780   */\n      iszero\n      tag_760\n      jumpi\n        /* \"#utility.yul\":31760:31778   */\n      tag_761\n      tag_750\n      jump\t// in\n    tag_761:\n        /* \"#utility.yul\":31649:31780   */\n    tag_760:\n        /* \"#utility.yul\":31808:31809   */\n      dup3\n        /* \"#utility.yul\":31805:31806   */\n      dup3\n        /* \"#utility.yul\":31801:31810   */\n      mul\n        /* \"#utility.yul\":31790:31810   */\n      swap1\n      pop\n        /* \"#utility.yul\":31468:31816   */\n      swap3\n      swap2\n      pop\n      pop\n      jump\t// out\n        /* \"#utility.yul\":31822:32013   */\n    tag_272:\n        /* \"#utility.yul\":31862:31866   */\n      0x00\n        /* \"#utility.yul\":31882:31902   */\n      tag_763\n        /* \"#utility.yul\":31900:31901   */\n      dup3\n        /* \"#utility.yul\":31882:31902   */\n      tag_643\n      jump\t// in\n    tag_763:\n        /* \"#utility.yul\":31877:31902   */\n      swap2\n      pop\n        /* \"#utility.yul\":31916:31936   */\n      tag_764\n        /* \"#utility.yul\":31934:31935   */\n      dup4\n        /* \"#utility.yul\":31916:31936   */\n      tag_643\n      jump\t// in\n    tag_764:\n        /* \"#utility.yul\":31911:31936   */\n      swap3\n      pop\n        /* \"#utility.yul\":31955:31956   */\n      dup3\n        /* \"#utility.yul\":31952:31953   */\n      dup3\n        /* \"#utility.yul\":31949:31957   */\n      lt\n        /* \"#utility.yul\":31946:31980   */\n      iszero\n      tag_765\n      jumpi\n        /* \"#utility.yul\":31960:31978   */\n      tag_766\n      tag_750\n      jump\t// in\n    tag_766:\n        /* \"#utility.yul\":31946:31980   */\n    tag_765:\n        /* \"#utility.yul\":32005:32006   */\n      dup3\n        /* \"#utility.yul\":32002:32003   */\n      dup3\n        /* \"#utility.yul\":31998:32007   */\n      sub\n        /* \"#utility.yul\":31990:32007   */\n      swap1\n      pop\n        /* \"#utility.yul\":31822:32013   */\n      swap3\n      swap2\n      pop\n      pop\n      jump\t// out\n        /* \"#utility.yul\":32019:32115   */\n    tag_496:\n        /* \"#utility.yul\":32056:32063   */\n      0x00\n        /* \"#utility.yul\":32085:32109   */\n      tag_768\n        /* \"#utility.yul\":32103:32108   */\n      dup3\n        /* \"#utility.yul\":32085:32109   */\n      tag_769\n      jump\t// in\n    tag_768:\n        /* \"#utility.yul\":32074:32109   */\n      swap1\n      pop\n        /* \"#utility.yul\":32019:32115   */\n      swap2\n      swap1\n      pop\n      jump\t// out\n        /* \"#utility.yul\":32121:32225   */\n    tag_487:\n        /* \"#utility.yul\":32166:32173   */\n      0x00\n        /* \"#utility.yul\":32195:32219   */\n      tag_771\n        /* \"#utility.yul\":32213:32218   */\n      dup3\n        /* \"#utility.yul\":32195:32219   */\n      tag_769\n      jump\t// in\n    tag_771:\n        /* \"#utility.yul\":32184:32219   */\n      swap1\n      pop\n        /* \"#utility.yul\":32121:32225   */\n      swap2\n      swap1\n      pop\n      jump\t// out\n        /* \"#utility.yul\":32231:32321   */\n    tag_533:\n        /* \"#utility.yul\":32265:32272   */\n      0x00\n        /* \"#utility.yul\":32308:32313   */\n      dup2\n        /* \"#utility.yul\":32301:32314   */\n      iszero\n        /* \"#utility.yul\":32294:32315   */\n      iszero\n        /* \"#utility.yul\":32283:32315   */\n      swap1\n      pop\n        /* \"#utility.yul\":32231:32321   */\n      swap2\n      swap1\n      pop\n      jump\t// out\n        /* \"#utility.yul\":32327:32476   */\n    tag_773:\n        /* \"#utility.yul\":32363:32370   */\n      0x00\n        /* \"#utility.yul\":32403:32469   */\n      0xffffffff00000000000000000000000000000000000000000000000000000000\n        /* \"#utility.yul\":32396:32401   */\n      dup3\n        /* \"#utility.yul\":32392:32470   */\n      and\n        /* \"#utility.yul\":32381:32470   */\n      swap1\n      pop\n        /* \"#utility.yul\":32327:32476   */\n      swap2\n      swap1\n      pop\n      jump\t// out\n        /* \"#utility.yul\":32482:32608   */\n    tag_769:\n        /* \"#utility.yul\":32519:32526   */\n      0x00\n        /* \"#utility.yul\":32559:32601   */\n      0xffffffffffffffffffffffffffffffffffffffff\n        /* \"#utility.yul\":32552:32557   */\n      dup3\n        /* \"#utility.yul\":32548:32602   */\n      and\n        /* \"#utility.yul\":32537:32602   */\n      swap1\n      pop\n        /* \"#utility.yul\":32482:32608   */\n      swap2\n      swap1\n      pop\n      jump\t// out\n        /* \"#utility.yul\":32614:32691   */\n    tag_643:\n        /* \"#utility.yul\":32651:32658   */\n      0x00\n        /* \"#utility.yul\":32680:32685   */\n      dup2\n        /* \"#utility.yul\":32669:32685   */\n      swap1\n      pop\n        /* \"#utility.yul\":32614:32691   */\n      swap2\n      swap1\n      pop\n      jump\t// out\n        /* \"#utility.yul\":32697:32851   */\n    tag_418:\n        /* \"#utility.yul\":32781:32787   */\n      dup3\n        /* \"#utility.yul\":32776:32779   */\n      dup2\n        /* \"#utility.yul\":32771:32774   */\n      dup4\n        /* \"#utility.yul\":32758:32788   */\n      calldatacopy\n        /* \"#utility.yul\":32843:32844   */\n      0x00\n        /* \"#utility.yul\":32834:32840   */\n      dup4\n        /* \"#utility.yul\":32829:32832   */\n      dup4\n        /* \"#utility.yul\":32825:32841   */\n      add\n        /* \"#utility.yul\":32818:32845   */\n      mstore\n        /* \"#utility.yul\":32697:32851   */\n      pop\n      pop\n      pop\n      jump\t// out\n        /* \"#utility.yul\":32857:33164   */\n    tag_540:\n        /* \"#utility.yul\":32925:32926   */\n      0x00\n        /* \"#utility.yul\":32935:33048   */\n    tag_779:\n        /* \"#utility.yul\":32949:32955   */\n      dup4\n        /* \"#utility.yul\":32946:32947   */\n      dup2\n        /* \"#utility.yul\":32943:32956   */\n      lt\n        /* \"#utility.yul\":32935:33048   */\n      iszero\n      tag_781\n      jumpi\n        /* \"#utility.yul\":33034:33035   */\n      dup1\n        /* \"#utility.yul\":33029:33032   */\n      dup3\n        /* \"#utility.yul\":33025:33036   */\n      add\n        /* \"#utility.yul\":33019:33037   */\n      mload\n        /* \"#utility.yul\":33015:33016   */\n      dup2\n        /* \"#utility.yul\":33010:33013   */\n      dup5\n        /* \"#utility.yul\":33006:33017   */\n      add\n        /* \"#utility.yul\":32999:33038   */\n      mstore\n        /* \"#utility.yul\":32971:32973   */\n      0x20\n        /* \"#utility.yul\":32968:32969   */\n      dup2\n        /* \"#utility.yul\":32964:32974   */\n      add\n        /* \"#utility.yul\":32959:32974   */\n      swap1\n      pop\n        /* \"#utility.yul\":32935:33048   */\n      jump(tag_779)\n    tag_781:\n        /* \"#utility.yul\":33066:33072   */\n      dup4\n        /* \"#utility.yul\":33063:33064   */\n      dup2\n        /* \"#utility.yul\":33060:33073   */\n      gt\n        /* \"#utility.yul\":33057:33158   */\n      iszero\n      tag_782\n      jumpi\n        /* \"#utility.yul\":33146:33147   */\n      0x00\n        /* \"#utility.yul\":33137:33143   */\n      dup5\n        /* \"#utility.yul\":33132:33135   */\n      dup5\n        /* \"#utility.yul\":33128:33144   */\n      add\n        /* \"#utility.yul\":33121:33148   */\n      mstore\n        /* \"#utility.yul\":33057:33158   */\n    tag_782:\n        /* \"#utility.yul\":32906:33164   */\n      pop\n        /* \"#utility.yul\":32857:33164   */\n      pop\n      pop\n      pop\n      jump\t// out\n        /* \"#utility.yul\":33170:33490   */\n    tag_246:\n        /* \"#utility.yul\":33214:33220   */\n      0x00\n        /* \"#utility.yul\":33251:33252   */\n      0x02\n        /* \"#utility.yul\":33245:33249   */\n      dup3\n        /* \"#utility.yul\":33241:33253   */\n      div\n        /* \"#utility.yul\":33231:33253   */\n      swap1\n      pop\n        /* \"#utility.yul\":33298:33299   */\n      0x01\n        /* \"#utility.yul\":33292:33296   */\n      dup3\n        /* \"#utility.yul\":33288:33300   */\n      and\n        /* \"#utility.yul\":33319:33337   */\n      dup1\n        /* \"#utility.yul\":33309:33390   */\n      tag_784\n      jumpi\n        /* \"#utility.yul\":33375:33379   */\n      0x7f\n        /* \"#utility.yul\":33367:33373   */\n      dup3\n        /* \"#utility.yul\":33363:33380   */\n      and\n        /* \"#utility.yul\":33353:33380   */\n      swap2\n      pop\n        /* \"#utility.yul\":33309:33390   */\n    tag_784:\n        /* \"#utility.yul\":33437:33439   */\n      0x20\n        /* \"#utility.yul\":33429:33435   */\n      dup3\n        /* \"#utility.yul\":33426:33440   */\n      lt\n        /* \"#utility.yul\":33406:33424   */\n      dup2\n        /* \"#utility.yul\":33403:33441   */\n      eq\n        /* \"#utility.yul\":33400:33484   */\n      iszero\n      tag_785\n      jumpi\n        /* \"#utility.yul\":33456:33474   */\n      tag_786\n      tag_787\n      jump\t// in\n    tag_786:\n        /* \"#utility.yul\":33400:33484   */\n    tag_785:\n        /* \"#utility.yul\":33221:33490   */\n      pop\n        /* \"#utility.yul\":33170:33490   */\n      swap2\n      swap1\n      pop\n      jump\t// out\n        /* \"#utility.yul\":33496:33777   */\n    tag_724:\n        /* \"#utility.yul\":33579:33606   */\n      tag_789\n        /* \"#utility.yul\":33601:33605   */\n      dup3\n        /* \"#utility.yul\":33579:33606   */\n      tag_542\n      jump\t// in\n    tag_789:\n        /* \"#utility.yul\":33571:33577   */\n      dup2\n        /* \"#utility.yul\":33567:33607   */\n      add\n        /* \"#utility.yul\":33709:33715   */\n      dup2\n        /* \"#utility.yul\":33697:33707   */\n      dup2\n        /* \"#utility.yul\":33694:33716   */\n      lt\n        /* \"#utility.yul\":33673:33691   */\n      0xffffffffffffffff\n        /* \"#utility.yul\":33661:33671   */\n      dup3\n        /* \"#utility.yul\":33658:33692   */\n      gt\n        /* \"#utility.yul\":33655:33717   */\n      or\n        /* \"#utility.yul\":33652:33740   */\n      iszero\n      tag_790\n      jumpi\n        /* \"#utility.yul\":33720:33738   */\n      tag_791\n      tag_143\n      jump\t// in\n    tag_791:\n        /* \"#utility.yul\":33652:33740   */\n    tag_790:\n        /* \"#utility.yul\":33760:33770   */\n      dup1\n        /* \"#utility.yul\":33756:33758   */\n      0x40\n        /* \"#utility.yul\":33749:33771   */\n      mstore\n        /* \"#utility.yul\":33539:33777   */\n      pop\n        /* \"#utility.yul\":33496:33777   */\n      pop\n      pop\n      jump\t// out\n        /* \"#utility.yul\":33783:34016   */\n    tag_159:\n        /* \"#utility.yul\":33822:33825   */\n      0x00\n        /* \"#utility.yul\":33845:33869   */\n      tag_793\n        /* \"#utility.yul\":33863:33868   */\n      dup3\n        /* \"#utility.yul\":33845:33869   */\n      tag_643\n      jump\t// in\n    tag_793:\n        /* \"#utility.yul\":33836:33869   */\n      swap2\n      pop\n        /* \"#utility.yul\":33891:33957   */\n      0xffffffffffffffffffffffffffffffffffffffffffffffffffffffffffffffff\n        /* \"#utility.yul\":33884:33889   */\n      dup3\n        /* \"#utility.yul\":33881:33958   */\n      eq\n        /* \"#utility.yul\":33878:33981   */\n      iszero\n      tag_794\n      jumpi\n        /* \"#utility.yul\":33961:33979   */\n      tag_795\n      tag_750\n      jump\t// in\n    tag_795:\n        /* \"#utility.yul\":33878:33981   */\n    tag_794:\n        /* \"#utility.yul\":34008:34009   */\n      0x01\n        /* \"#utility.yul\":34001:34006   */\n      dup3\n        /* \"#utility.yul\":33997:34010   */\n      add\n        /* \"#utility.yul\":33990:34010   */\n      swap1\n      pop\n        /* \"#utility.yul\":33783:34016   */\n      swap2\n      swap1\n      pop\n      jump\t// out\n        /* \"#utility.yul\":34022:34122   */\n    tag_501:\n        /* \"#utility.yul\":34061:34068   */\n      0x00\n        /* \"#utility.yul\":34090:34116   */\n      tag_797\n        /* \"#utility.yul\":34110:34115   */\n      dup3\n        /* \"#utility.yul\":34090:34116   */\n      tag_798\n      jump\t// in\n    tag_797:\n        /* \"#utility.yul\":34079:34116   */\n      swap1\n      pop\n        /* \"#utility.yul\":34022:34122   */\n      swap2\n      swap1\n      pop\n      jump\t// out\n        /* \"#utility.yul\":34128:34236   */\n    tag_492:\n        /* \"#utility.yul\":34175:34182   */\n      0x00\n        /* \"#utility.yul\":34204:34230   */\n      tag_800\n        /* \"#utility.yul\":34224:34229   */\n      dup3\n        /* \"#utility.yul\":34204:34230   */\n      tag_798\n      jump\t// in\n    tag_800:\n        /* \"#utility.yul\":34193:34230   */\n      swap1\n      pop\n        /* \"#utility.yul\":34128:34236   */\n      swap2\n      swap1\n      pop\n      jump\t// out\n        /* \"#utility.yul\":34242:34336   */\n    tag_798:\n        /* \"#utility.yul\":34281:34288   */\n      0x00\n        /* \"#utility.yul\":34310:34330   */\n      tag_802\n        /* \"#utility.yul\":34324:34329   */\n      dup3\n        /* \"#utility.yul\":34310:34330   */\n      tag_803\n      jump\t// in\n    tag_802:\n        /* \"#utility.yul\":34299:34330   */\n      swap1\n      pop\n        /* \"#utility.yul\":34242:34336   */\n      swap2\n      swap1\n      pop\n      jump\t// out\n        /* \"#utility.yul\":34342:34421   */\n    tag_651:\n        /* \"#utility.yul\":34381:34388   */\n      0x00\n        /* \"#utility.yul\":34410:34415   */\n      dup2\n        /* \"#utility.yul\":34399:34415   */\n      swap1\n      pop\n        /* \"#utility.yul\":34342:34421   */\n      swap2\n      swap1\n      pop\n      jump\t// out\n        /* \"#utility.yul\":34427:34603   */\n    tag_274:\n        /* \"#utility.yul\":34459:34460   */\n      0x00\n        /* \"#utility.yul\":34476:34496   */\n      tag_806\n        /* \"#utility.yul\":34494:34495   */\n      dup3\n        /* \"#utility.yul\":34476:34496   */\n      tag_643\n      jump\t// in\n    tag_806:\n        /* \"#utility.yul\":34471:34496   */\n      swap2\n      pop\n        /* \"#utility.yul\":34510:34530   */\n      tag_807\n        /* \"#utility.yul\":34528:34529   */\n      dup4\n        /* \"#utility.yul\":34510:34530   */\n      tag_643\n      jump\t// in\n    tag_807:\n        /* \"#utility.yul\":34505:34530   */\n      swap3\n      pop\n        /* \"#utility.yul\":34549:34550   */\n      dup3\n        /* \"#utility.yul\":34539:34574   */\n      tag_808\n      jumpi\n        /* \"#utility.yul\":34554:34572   */\n      tag_809\n      tag_756\n      jump\t// in\n    tag_809:\n        /* \"#utility.yul\":34539:34574   */\n    tag_808:\n        /* \"#utility.yul\":34595:34596   */\n      dup3\n        /* \"#utility.yul\":34592:34593   */\n      dup3\n        /* \"#utility.yul\":34588:34597   */\n      mod\n        /* \"#utility.yul\":34583:34597   */\n      swap1\n      pop\n        /* \"#utility.yul\":34427:34603   */\n      swap3\n      swap2\n      pop\n      pop\n      jump\t// out\n        /* \"#utility.yul\":34609:34789   */\n    tag_750:\n        /* \"#utility.yul\":34657:34734   */\n      0x4e487b7100000000000000000000000000000000000000000000000000000000\n        /* \"#utility.yul\":34654:34655   */\n      0x00\n        /* \"#utility.yul\":34647:34735   */\n      mstore\n        /* \"#utility.yul\":34754:34758   */\n      0x11\n        /* \"#utility.yul\":34751:34752   */\n      0x04\n        /* \"#utility.yul\":34744:34759   */\n      mstore\n        /* \"#utility.yul\":34778:34782   */\n      0x24\n        /* \"#utility.yul\":34775:34776   */\n      0x00\n        /* \"#utility.yul\":34768:34783   */\n      revert\n        /* \"#utility.yul\":34795:34975   */\n    tag_756:\n        /* \"#utility.yul\":34843:34920   */\n      0x4e487b7100000000000000000000000000000000000000000000000000000000\n        /* \"#utility.yul\":34840:34841   */\n      0x00\n        /* \"#utility.yul\":34833:34921   */\n      mstore\n        /* \"#utility.yul\":34940:34944   */\n      0x12\n        /* \"#utility.yul\":34937:34938   */\n      0x04\n        /* \"#utility.yul\":34930:34945   */\n      mstore\n        /* \"#utility.yul\":34964:34968   */\n      0x24\n        /* \"#utility.yul\":34961:34962   */\n      0x00\n        /* \"#utility.yul\":34954:34969   */\n      revert\n        /* \"#utility.yul\":34981:35161   */\n    tag_787:\n        /* \"#utility.yul\":35029:35106   */\n      0x4e487b7100000000000000000000000000000000000000000000000000000000\n        /* \"#utility.yul\":35026:35027   */\n      0x00\n        /* \"#utility.yul\":35019:35107   */\n      mstore\n        /* \"#utility.yul\":35126:35130   */\n      0x22\n        /* \"#utility.yul\":35123:35124   */\n      0x04\n        /* \"#utility.yul\":35116:35131   */\n      mstore\n        /* \"#utility.yul\":35150:35154   */\n      0x24\n        /* \"#utility.yul\":35147:35148   */\n      0x00\n        /* \"#utility.yul\":35140:35155   */\n      revert\n        /* \"#utility.yul\":35167:35347   */\n    tag_157:\n        /* \"#utility.yul\":35215:35292   */\n      0x4e487b7100000000000000000000000000000000000000000000000000000000\n        /* \"#utility.yul\":35212:35213   */\n      0x00\n        /* \"#utility.yul\":35205:35293   */\n      mstore\n        /* \"#utility.yul\":35312:35316   */\n      0x32\n        /* \"#utility.yul\":35309:35310   */\n      0x04\n        /* \"#utility.yul\":35302:35317   */\n      mstore\n        /* \"#utility.yul\":35336:35340   */\n      0x24\n        /* \"#utility.yul\":35333:35334   */\n      0x00\n        /* \"#utility.yul\":35326:35341   */\n      revert\n        /* \"#utility.yul\":35353:35533   */\n    tag_143:\n        /* \"#utility.yul\":35401:35478   */\n      0x4e487b7100000000000000000000000000000000000000000000000000000000\n        /* \"#utility.yul\":35398:35399   */\n      0x00\n        /* \"#utility.yul\":35391:35479   */\n      mstore\n        /* \"#utility.yul\":35498:35502   */\n      0x41\n        /* \"#utility.yul\":35495:35496   */\n      0x04\n        /* \"#utility.yul\":35488:35503   */\n      mstore\n        /* \"#utility.yul\":35522:35526   */\n      0x24\n        /* \"#utility.yul\":35519:35520   */\n      0x00\n        /* \"#utility.yul\":35512:35527   */\n      revert\n        /* \"#utility.yul\":35539:35722   */\n    tag_368:\n        /* \"#utility.yul\":35574:35577   */\n      0x00\n        /* \"#utility.yul\":35612:35613   */\n      0x03\n        /* \"#utility.yul\":35594:35610   */\n      returndatasize\n        /* \"#utility.yul\":35591:35614   */\n      gt\n        /* \"#utility.yul\":35588:35716   */\n      iszero\n      tag_816\n      jumpi\n        /* \"#utility.yul\":35650:35651   */\n      0x04\n        /* \"#utility.yul\":35647:35648   */\n      0x00\n        /* \"#utility.yul\":35644:35645   */\n      dup1\n        /* \"#utility.yul\":35629:35652   */\n      returndatacopy\n        /* \"#utility.yul\":35672:35706   */\n      tag_817\n        /* \"#utility.yul\":35703:35704   */\n      0x00\n        /* \"#utility.yul\":35697:35705   */\n      mload\n        /* \"#utility.yul\":35672:35706   */\n      tag_818\n      jump\t// in\n    tag_817:\n        /* \"#utility.yul\":35665:35706   */\n      swap1\n      pop\n        /* \"#utility.yul\":35588:35716   */\n    tag_816:\n        /* \"#utility.yul\":35539:35722   */\n      swap1\n      jump\t// out\n        /* \"#utility.yul\":35728:35845   */\n    tag_406:\n        /* \"#utility.yul\":35837:35838   */\n      0x00\n        /* \"#utility.yul\":35834:35835   */\n      dup1\n        /* \"#utility.yul\":35827:35839   */\n      revert\n        /* \"#utility.yul\":35851:35968   */\n    tag_400:\n        /* \"#utility.yul\":35960:35961   */\n      0x00\n        /* \"#utility.yul\":35957:35958   */\n      dup1\n        /* \"#utility.yul\":35950:35962   */\n      revert\n        /* \"#utility.yul\":35974:36091   */\n    tag_416:\n        /* \"#utility.yul\":36083:36084   */\n      0x00\n        /* \"#utility.yul\":36080:36081   */\n      dup1\n        /* \"#utility.yul\":36073:36085   */\n      revert\n        /* \"#utility.yul\":36097:36214   */\n    tag_466:\n        /* \"#utility.yul\":36206:36207   */\n      0x00\n        /* \"#utility.yul\":36203:36204   */\n      dup1\n        /* \"#utility.yul\":36196:36208   */\n      revert\n        /* \"#utility.yul\":36220:36337   */\n    tag_447:\n        /* \"#utility.yul\":36329:36330   */\n      0x00\n        /* \"#utility.yul\":36326:36327   */\n      dup1\n        /* \"#utility.yul\":36319:36331   */\n      revert\n        /* \"#utility.yul\":36343:36445   */\n    tag_542:\n        /* \"#utility.yul\":36384:36390   */\n      0x00\n        /* \"#utility.yul\":36435:36437   */\n      0x1f\n        /* \"#utility.yul\":36431:36438   */\n      not\n        /* \"#utility.yul\":36426:36428   */\n      0x1f\n        /* \"#utility.yul\":36419:36424   */\n      dup4\n        /* \"#utility.yul\":36415:36429   */\n      add\n        /* \"#utility.yul\":36411:36439   */\n      and\n        /* \"#utility.yul\":36401:36439   */\n      swap1\n      pop\n        /* \"#utility.yul\":36343:36445   */\n      swap2\n      swap1\n      pop\n      jump\t// out\n        /* \"#utility.yul\":36451:36545   */\n    tag_803:\n        /* \"#utility.yul\":36484:36492   */\n      0x00\n        /* \"#utility.yul\":36532:36537   */\n      dup2\n        /* \"#utility.yul\":36528:36530   */\n      0x60\n        /* \"#utility.yul\":36524:36538   */\n      shl\n        /* \"#utility.yul\":36503:36538   */\n      swap1\n      pop\n        /* \"#utility.yul\":36451:36545   */\n      swap2\n      swap1\n      pop\n      jump\t// out\n        /* \"#utility.yul\":36551:36657   */\n    tag_818:\n        /* \"#utility.yul\":36595:36603   */\n      0x00\n        /* \"#utility.yul\":36644:36649   */\n      dup2\n        /* \"#utility.yul\":36639:36642   */\n      0xe0\n        /* \"#utility.yul\":36635:36650   */\n      shr\n        /* \"#utility.yul\":36614:36650   */\n      swap1\n      pop\n        /* \"#utility.yul\":36551:36657   */\n      swap2\n      swap1\n      pop\n      jump\t// out\n        /* \"#utility.yul\":36663:36902   */\n    tag_560:\n        /* \"#utility.yul\":36803:36837   */\n      0x455243313135353a207472616e7366657220746f206e6f6e2045524331313535\n        /* \"#utility.yul\":36799:36800   */\n      0x00\n        /* \"#utility.yul\":36791:36797   */\n      dup3\n        /* \"#utility.yul\":36787:36801   */\n      add\n        /* \"#utility.yul\":36780:36838   */\n      mstore\n        /* \"#utility.yul\":36872:36894   */\n      0x526563656976657220696d706c656d656e746572000000000000000000000000\n        /* \"#utility.yul\":36867:36869   */\n      0x20\n        /* \"#utility.yul\":36859:36865   */\n      dup3\n        /* \"#utility.yul\":36855:36870   */\n      add\n        /* \"#utility.yul\":36848:36895   */\n      mstore\n        /* \"#utility.yul\":36663:36902   */\n      pop\n      jump\t// out\n        /* \"#utility.yul\":36908:37135   */\n    tag_565:\n        /* \"#utility.yul\":37048:37082   */\n      0x455243313135353a204552433131353552656365697665722072656a65637465\n        /* \"#utility.yul\":37044:37045   */\n      0x00\n        /* \"#utility.yul\":37036:37042   */\n      dup3\n        /* \"#utility.yul\":37032:37046   */\n      add\n        /* \"#utility.yul\":37025:37083   */\n      mstore\n        /* \"#utility.yul\":37117:37127   */\n      0x6420746f6b656e73000000000000000000000000000000000000000000000000\n        /* \"#utility.yul\":37112:37114   */\n      0x20\n        /* \"#utility.yul\":37104:37110   */\n      dup3\n        /* \"#utility.yul\":37100:37115   */\n      add\n        /* \"#utility.yul\":37093:37128   */\n      mstore\n        /* \"#utility.yul\":36908:37135   */\n      pop\n      jump\t// out\n        /* \"#utility.yul\":37141:37316   */\n    tag_570:\n        /* \"#utility.yul\":37281:37308   */\n      0x4572726f7221204e6f7420456e6f7567682042616c616e636500000000000000\n        /* \"#utility.yul\":37277:37278   */\n      0x00\n        /* \"#utility.yul\":37269:37275   */\n      dup3\n        /* \"#utility.yul\":37265:37279   */\n      add\n        /* \"#utility.yul\":37258:37309   */\n      mstore\n        /* \"#utility.yul\":37141:37316   */\n      pop\n      jump\t// out\n        /* \"#utility.yul\":37322:37480   */\n    tag_575:\n        /* \"#utility.yul\":37462:37472   */\n      0x4469616d6f6e645f000000000000000000000000000000000000000000000000\n        /* \"#utility.yul\":37458:37459   */\n      0x00\n        /* \"#utility.yul\":37450:37456   */\n      dup3\n        /* \"#utility.yul\":37446:37460   */\n      add\n        /* \"#utility.yul\":37439:37473   */\n      mstore\n        /* \"#utility.yul\":37322:37480   */\n      pop\n      jump\t// out\n        /* \"#utility.yul\":37486:37652   */\n    tag_580:\n        /* \"#utility.yul\":37626:37644   */\n      0x4d696e7420466565204e6f742053657400000000000000000000000000000000\n        /* \"#utility.yul\":37622:37623   */\n      0x00\n        /* \"#utility.yul\":37614:37620   */\n      dup3\n        /* \"#utility.yul\":37610:37624   */\n      add\n        /* \"#utility.yul\":37603:37645   */\n      mstore\n        /* \"#utility.yul\":37486:37652   */\n      pop\n      jump\t// out\n        /* \"#utility.yul\":37658:37813   */\n    tag_585:\n        /* \"#utility.yul\":37798:37805   */\n      0x476f6c645f000000000000000000000000000000000000000000000000000000\n        /* \"#utility.yul\":37794:37795   */\n      0x00\n        /* \"#utility.yul\":37786:37792   */\n      dup3\n        /* \"#utility.yul\":37782:37796   */\n      add\n        /* \"#utility.yul\":37775:37806   */\n      mstore\n        /* \"#utility.yul\":37658:37813   */\n      pop\n      jump\t// out\n        /* \"#utility.yul\":37819:37987   */\n    tag_590:\n        /* \"#utility.yul\":37959:37979   */\n      0x4e6f7420456e6f7567682042616c616e63650000000000000000000000000000\n        /* \"#utility.yul\":37955:37956   */\n      0x00\n        /* \"#utility.yul\":37947:37953   */\n      dup3\n        /* \"#utility.yul\":37943:37957   */\n      add\n        /* \"#utility.yul\":37936:37980   */\n      mstore\n        /* \"#utility.yul\":37819:37987   */\n      pop\n      jump\t// out\n        /* \"#utility.yul\":37993:38170   */\n    tag_595:\n        /* \"#utility.yul\":38133:38162   */\n      0x44726f707369746520697320616c72656164792052756e6e696e670000000000\n        /* \"#utility.yul\":38129:38130   */\n      0x00\n        /* \"#utility.yul\":38121:38127   */\n      dup3\n        /* \"#utility.yul\":38117:38131   */\n      add\n        /* \"#utility.yul\":38110:38163   */\n      mstore\n        /* \"#utility.yul\":37993:38170   */\n      pop\n      jump\t// out\n        /* \"#utility.yul\":38176:38353   */\n    tag_600:\n        /* \"#utility.yul\":38316:38345   */\n      0x44726f707369746520697320616c72656164792053746f707065640000000000\n        /* \"#utility.yul\":38312:38313   */\n      0x00\n        /* \"#utility.yul\":38304:38310   */\n      dup3\n        /* \"#utility.yul\":38300:38314   */\n      add\n        /* \"#utility.yul\":38293:38346   */\n      mstore\n        /* \"#utility.yul\":38176:38353   */\n      pop\n      jump\t// out\n        /* \"#utility.yul\":38359:38530   */\n    tag_605:\n        /* \"#utility.yul\":38499:38522   */\n      0x596f752063616e206d696e7420312d33204e4654730000000000000000000000\n        /* \"#utility.yul\":38495:38496   */\n      0x00\n        /* \"#utility.yul\":38487:38493   */\n      dup3\n        /* \"#utility.yul\":38483:38497   */\n      add\n        /* \"#utility.yul\":38476:38523   */\n      mstore\n        /* \"#utility.yul\":38359:38530   */\n      pop\n      jump\t// out\n        /* \"#utility.yul\":38536:38714   */\n    tag_610:\n        /* \"#utility.yul\":38676:38706   */\n      0x4f6e6c79204e46542d4553204f776e65722063616e2041636365737300000000\n        /* \"#utility.yul\":38672:38673   */\n      0x00\n        /* \"#utility.yul\":38664:38670   */\n      dup3\n        /* \"#utility.yul\":38660:38674   */\n      add\n        /* \"#utility.yul\":38653:38707   */\n      mstore\n        /* \"#utility.yul\":38536:38714   */\n      pop\n      jump\t// out\n        /* \"#utility.yul\":38720:38901   */\n    tag_615:\n        /* \"#utility.yul\":38860:38893   */\n      0x4f776e65722053686f756c6420736574206d696e742046656520466972737400\n        /* \"#utility.yul\":38856:38857   */\n      0x00\n        /* \"#utility.yul\":38848:38854   */\n      dup3\n        /* \"#utility.yul\":38844:38858   */\n      add\n        /* \"#utility.yul\":38837:38894   */\n      mstore\n        /* \"#utility.yul\":38720:38901   */\n      pop\n      jump\t// out\n        /* \"#utility.yul\":38907:39084   */\n    tag_620:\n        /* \"#utility.yul\":39047:39076   */\n      0x44726f7073697465206973206e6f74204f70656e6564205965742e0000000000\n        /* \"#utility.yul\":39043:39044   */\n      0x00\n        /* \"#utility.yul\":39035:39041   */\n      dup3\n        /* \"#utility.yul\":39031:39045   */\n      add\n        /* \"#utility.yul\":39024:39077   */\n      mstore\n        /* \"#utility.yul\":38907:39084   */\n      pop\n      jump\t// out\n        /* \"#utility.yul\":39090:39265   */\n    tag_625:\n        /* \"#utility.yul\":39230:39257   */\n      0x4d6178204d696e74696e67204c696d6974207265616368656400000000000000\n        /* \"#utility.yul\":39226:39227   */\n      0x00\n        /* \"#utility.yul\":39218:39224   */\n      dup3\n        /* \"#utility.yul\":39214:39228   */\n      add\n        /* \"#utility.yul\":39207:39258   */\n      mstore\n        /* \"#utility.yul\":39090:39265   */\n      pop\n      jump\t// out\n        /* \"#utility.yul\":39271:39422   */\n    tag_630:\n        /* \"#utility.yul\":39411:39414   */\n      0x5f00000000000000000000000000000000000000000000000000000000000000\n        /* \"#utility.yul\":39407:39408   */\n      0x00\n        /* \"#utility.yul\":39399:39405   */\n      dup3\n        /* \"#utility.yul\":39395:39409   */\n      add\n        /* \"#utility.yul\":39388:39415   */\n      mstore\n        /* \"#utility.yul\":39271:39422   */\n      pop\n      jump\t// out\n        /* \"#utility.yul\":39428:39585   */\n    tag_635:\n        /* \"#utility.yul\":39568:39577   */\n      0x53696c7665725f00000000000000000000000000000000000000000000000000\n        /* \"#utility.yul\":39564:39565   */\n      0x00\n        /* \"#utility.yul\":39556:39562   */\n      dup3\n        /* \"#utility.yul\":39552:39566   */\n      add\n        /* \"#utility.yul\":39545:39578   */\n      mstore\n        /* \"#utility.yul\":39428:39585   */\n      pop\n      jump\t// out\n        /* \"#utility.yul\":39591:39811   */\n    tag_640:\n        /* \"#utility.yul\":39731:39765   */\n      0x455243313135353a206d696e7420746f20746865207a65726f20616464726573\n        /* \"#utility.yul\":39727:39728   */\n      0x00\n        /* \"#utility.yul\":39719:39725   */\n      dup3\n        /* \"#utility.yul\":39715:39729   */\n      add\n        /* \"#utility.yul\":39708:39766   */\n      mstore\n        /* \"#utility.yul\":39800:39803   */\n      0x7300000000000000000000000000000000000000000000000000000000000000\n        /* \"#utility.yul\":39795:39797   */\n      0x20\n        /* \"#utility.yul\":39787:39793   */\n      dup3\n        /* \"#utility.yul\":39783:39798   */\n      add\n        /* \"#utility.yul\":39776:39804   */\n      mstore\n        /* \"#utility.yul\":39591:39811   */\n      pop\n      jump\t// out\n        /* \"#utility.yul\":39817:40528   */\n    tag_370:\n        /* \"#utility.yul\":39856:39859   */\n      0x00\n        /* \"#utility.yul\":39894:39898   */\n      0x44\n        /* \"#utility.yul\":39876:39892   */\n      returndatasize\n        /* \"#utility.yul\":39873:39899   */\n      lt\n        /* \"#utility.yul\":39870:39909   */\n      iszero\n      tag_845\n      jumpi\n        /* \"#utility.yul\":39902:39907   */\n      jump(tag_844)\n        /* \"#utility.yul\":39870:39909   */\n    tag_845:\n        /* \"#utility.yul\":39931:39951   */\n      tag_846\n      tag_722\n      jump\t// in\n    tag_846:\n        /* \"#utility.yul\":40006:40007   */\n      0x04\n        /* \"#utility.yul\":39988:40004   */\n      returndatasize\n        /* \"#utility.yul\":39984:40008   */\n      sub\n        /* \"#utility.yul\":39981:39982   */\n      0x04\n        /* \"#utility.yul\":39975:39979   */\n      dup3\n        /* \"#utility.yul\":39960:40009   */\n      returndatacopy\n        /* \"#utility.yul\":40039:40043   */\n      dup1\n        /* \"#utility.yul\":40033:40044   */\n      mload\n        /* \"#utility.yul\":40138:40154   */\n      returndatasize\n        /* \"#utility.yul\":40131:40135   */\n      0x24\n        /* \"#utility.yul\":40123:40129   */\n      dup3\n        /* \"#utility.yul\":40119:40136   */\n      add\n        /* \"#utility.yul\":40116:40155   */\n      gt\n        /* \"#utility.yul\":40083:40101   */\n      0xffffffffffffffff\n        /* \"#utility.yul\":40075:40081   */\n      dup3\n        /* \"#utility.yul\":40072:40102   */\n      gt\n        /* \"#utility.yul\":40056:40169   */\n      or\n        /* \"#utility.yul\":40053:40199   */\n      iszero\n      tag_847\n      jumpi\n        /* \"#utility.yul\":40184:40189   */\n      pop\n      pop\n      jump(tag_844)\n        /* \"#utility.yul\":40053:40199   */\n    tag_847:\n        /* \"#utility.yul\":40230:40236   */\n      dup1\n        /* \"#utility.yul\":40224:40228   */\n      dup3\n        /* \"#utility.yul\":40220:40237   */\n      add\n        /* \"#utility.yul\":40266:40269   */\n      dup1\n        /* \"#utility.yul\":40260:40270   */\n      mload\n        /* \"#utility.yul\":40293:40311   */\n      0xffffffffffffffff\n        /* \"#utility.yul\":40285:40291   */\n      dup2\n        /* \"#utility.yul\":40282:40312   */\n      gt\n        /* \"#utility.yul\":40279:40322   */\n      iszero\n      tag_848\n      jumpi\n        /* \"#utility.yul\":40315:40320   */\n      pop\n      pop\n      pop\n      pop\n      jump(tag_844)\n        /* \"#utility.yul\":40279:40322   */\n    tag_848:\n        /* \"#utility.yul\":40363:40369   */\n      dup1\n        /* \"#utility.yul\":40356:40360   */\n      0x20\n        /* \"#utility.yul\":40351:40354   */\n      dup4\n        /* \"#utility.yul\":40347:40361   */\n      add\n        /* \"#utility.yul\":40343:40370   */\n      add\n        /* \"#utility.yul\":40422:40423   */\n      0x04\n        /* \"#utility.yul\":40404:40420   */\n      returndatasize\n        /* \"#utility.yul\":40400:40424   */\n      sub\n        /* \"#utility.yul\":40394:40398   */\n      dup6\n        /* \"#utility.yul\":40390:40425   */\n      add\n        /* \"#utility.yul\":40385:40388   */\n      dup2\n        /* \"#utility.yul\":40382:40426   */\n      gt\n        /* \"#utility.yul\":40379:40436   */\n      iszero\n      tag_849\n      jumpi\n        /* \"#utility.yul\":40429:40434   */\n      pop\n      pop\n      pop\n      pop\n      pop\n      jump(tag_844)\n        /* \"#utility.yul\":40379:40436   */\n    tag_849:\n        /* \"#utility.yul\":40446:40503   */\n      tag_850\n        /* \"#utility.yul\":40494:40500   */\n      dup3\n        /* \"#utility.yul\":40488:40492   */\n      0x20\n        /* \"#utility.yul\":40484:40501   */\n      add\n        /* \"#utility.yul\":40476:40482   */\n      dup6\n        /* \"#utility.yul\":40472:40502   */\n      add\n        /* \"#utility.yul\":40466:40470   */\n      dup7\n        /* \"#utility.yul\":40446:40503   */\n      tag_724\n      jump\t// in\n    tag_850:\n        /* \"#utility.yul\":40519:40522   */\n      dup3\n        /* \"#utility.yul\":40512:40522   */\n      swap6\n      pop\n        /* \"#utility.yul\":39860:40528   */\n      pop\n      pop\n      pop\n      pop\n      pop\n        /* \"#utility.yul\":39817:40528   */\n    tag_844:\n      swap1\n      jump\t// out\n        /* \"#utility.yul\":40534:40656   */\n    tag_422:\n        /* \"#utility.yul\":40607:40631   */\n      tag_852\n        /* \"#utility.yul\":40625:40630   */\n      dup2\n        /* \"#utility.yul\":40607:40631   */\n      tag_496\n      jump\t// in\n    tag_852:\n        /* \"#utility.yul\":40600:40605   */\n      dup2\n        /* \"#utility.yul\":40597:40632   */\n      eq\n        /* \"#utility.yul\":40587:40650   */\n      tag_853\n      jumpi\n        /* \"#utility.yul\":40646:40647   */\n      0x00\n        /* \"#utility.yul\":40643:40644   */\n      dup1\n        /* \"#utility.yul\":40636:40648   */\n      revert\n        /* \"#utility.yul\":40587:40650   */\n    tag_853:\n        /* \"#utility.yul\":40534:40656   */\n      pop\n      jump\t// out\n        /* \"#utility.yul\":40662:40800   */\n    tag_426:\n        /* \"#utility.yul\":40743:40775   */\n      tag_855\n        /* \"#utility.yul\":40769:40774   */\n      dup2\n        /* \"#utility.yul\":40743:40775   */\n      tag_487\n      jump\t// in\n    tag_855:\n        /* \"#utility.yul\":40736:40741   */\n      dup2\n        /* \"#utility.yul\":40733:40776   */\n      eq\n        /* \"#utility.yul\":40723:40794   */\n      tag_856\n      jumpi\n        /* \"#utility.yul\":40790:40791   */\n      0x00\n        /* \"#utility.yul\":40787:40788   */\n      dup1\n        /* \"#utility.yul\":40780:40792   */\n      revert\n        /* \"#utility.yul\":40723:40794   */\n    tag_856:\n        /* \"#utility.yul\":40662:40800   */\n      pop\n      jump\t// out\n        /* \"#utility.yul\":40806:40926   */\n    tag_435:\n        /* \"#utility.yul\":40878:40901   */\n      tag_858\n        /* \"#utility.yul\":40895:40900   */\n      dup2\n        /* \"#utility.yul\":40878:40901   */\n      tag_773\n      jump\t// in\n    tag_858:\n        /* \"#utility.yul\":40871:40876   */\n      dup2\n        /* \"#utility.yul\":40868:40902   */\n      eq\n        /* \"#utility.yul\":40858:40920   */\n      tag_859\n      jumpi\n        /* \"#utility.yul\":40916:40917   */\n      0x00\n        /* \"#utility.yul\":40913:40914   */\n      dup1\n        /* \"#utility.yul\":40906:40918   */\n      revert\n        /* \"#utility.yul\":40858:40920   */\n    tag_859:\n        /* \"#utility.yul\":40806:40926   */\n      pop\n      jump\t// out\n        /* \"#utility.yul\":40932:41054   */\n    tag_443:\n        /* \"#utility.yul\":41005:41029   */\n      tag_861\n        /* \"#utility.yul\":41023:41028   */\n      dup2\n        /* \"#utility.yul\":41005:41029   */\n      tag_643\n      jump\t// in\n    tag_861:\n        /* \"#utility.yul\":40998:41003   */\n      dup2\n        /* \"#utility.yul\":40995:41030   */\n      eq\n        /* \"#utility.yul\":40985:41048   */\n      tag_862\n      jumpi\n        /* \"#utility.yul\":41044:41045   */\n      0x00\n        /* \"#utility.yul\":41041:41042   */\n      dup1\n        /* \"#utility.yul\":41034:41046   */\n      revert\n        /* \"#utility.yul\":40985:41048   */\n    tag_862:\n        /* \"#utility.yul\":40932:41054   */\n      pop\n      jump\t// out\n\n    auxdata: 0xa2646970667358221220dbcc852eb0947f223777dff1816c13f7133abc69d2a62c97d98d4480f2ee09a064736f6c63430008070033\n}\n",
				"bytecode": {
					"linkReferences": {},
					"object": "608060405260405180602001604052806000815250600290805190602001906200002b92919062000113565b5060326009556064600a55610352600b556001600e60006101000a81548160ff0219169083151502179055503480156200006457600080fd5b506040516200374c3803806200374c83398181016040528101906200008a919062000241565b80600f9080519060200190620000a292919062000113565b5033600e60016101000a81548173ffffffffffffffffffffffffffffffffffffffff021916908373ffffffffffffffffffffffffffffffffffffffff160217905550600060038190555060016004819055506000600681905550600060078190555060006008819055505062000416565b828054620001219062000327565b90600052602060002090601f01602090048101928262000145576000855562000191565b82601f106200016057805160ff191683800117855562000191565b8280016001018555821562000191579182015b828111156200019057825182559160200191906001019062000173565b5b509050620001a09190620001a4565b5090565b5b80821115620001bf576000816000905550600101620001a5565b5090565b6000620001da620001d484620002bb565b62000292565b905082815260208101848484011115620001f957620001f8620003f6565b5b62000206848285620002f1565b509392505050565b600082601f830112620002265762000225620003f1565b5b815162000238848260208601620001c3565b91505092915050565b6000602082840312156200025a576200025962000400565b5b600082015167ffffffffffffffff8111156200027b576200027a620003fb565b5b62000289848285016200020e565b91505092915050565b60006200029e620002b1565b9050620002ac82826200035d565b919050565b6000604051905090565b600067ffffffffffffffff821115620002d957620002d8620003c2565b5b620002e48262000405565b9050602081019050919050565b60005b8381101562000311578082015181840152602081019050620002f4565b8381111562000321576000848401525b50505050565b600060028204905060018216806200034057607f821691505b6020821081141562000357576200035662000393565b5b50919050565b620003688262000405565b810181811067ffffffffffffffff821117156200038a5762000389620003c2565b5b80604052505050565b7f4e487b7100000000000000000000000000000000000000000000000000000000600052602260045260246000fd5b7f4e487b7100000000000000000000000000000000000000000000000000000000600052604160045260246000fd5b600080fd5b600080fd5b600080fd5b600080fd5b6000601f19601f8301169050919050565b61332680620004266000396000f3fe6080604052600436106100e85760003560e01c80638b7afe2e1161008a578063b187bd2611610059578063b187bd26146102c5578063b4a99a4e146102f0578063b6db75a01461031b578063eddd0d9c14610346576100e8565b80638b7afe2e1461022a5780638c089ec914610255578063a6f9dae114610285578063aa90c726146102ae576100e8565b8063225011da116100c6578063225011da146101585780635e1f05561461019557806360daa851146101d25780637a5caab3146101ff576100e8565b80630390c11c146100ed5780631546025914610118578063191e2e831461012f575b600080fd5b3480156100f957600080fd5b5061010261036f565b60405161010f91906128e1565b60405180910390f35b34801561012457600080fd5b5061012d610379565b005b34801561013b57600080fd5b5061015660048036038101906101519190611fab565b610483565b005b34801561016457600080fd5b5061017f600480360381019061017a9190611f7e565b6105ad565b60405161018c91906126e2565b60405180910390f35b3480156101a157600080fd5b506101bc60048036038101906101b79190611feb565b61069d565b6040516101c991906126c0565b60405180910390f35b3480156101de57600080fd5b506101e76109d6565b6040516101f693929190612925565b60405180910390f35b34801561020b57600080fd5b50610214610adc565b60405161022191906128e1565b60405180910390f35b34801561023657600080fd5b5061023f610ae6565b60405161024c91906128e1565b60405180910390f35b61026f600480360381019061026a919061202b565b610b85565b60405161027c91906126c0565b60405180910390f35b34801561029157600080fd5b506102ac60048036038101906102a79190611f7e565b610e86565b005b3480156102ba57600080fd5b506102c3610fb7565b005b3480156102d157600080fd5b506102da6110c1565b6040516102e79190612704565b60405180910390f35b3480156102fc57600080fd5b506103056110d4565b604051610312919061264b565b60405180910390f35b34801561032757600080fd5b506103306110fa565b60405161033d9190612704565b60405180910390f35b34801561035257600080fd5b5061036d600480360381019061036891906120c7565b611163565b005b6000600354905090565b600e60019054906101000a900473ffffffffffffffffffffffffffffffffffffffff1673ffffffffffffffffffffffffffffffffffffffff166103ba611204565b73ffffffffffffffffffffffffffffffffffffffff1614610410576040517f08c379a000000000000000000000000000000000000000000000000000000000815260040161040790612841565b60405180910390fd5b60011515600e60009054906101000a900460ff16151514610466576040517f08c379a000000000000000000000000000000000000000000000000000000000815260040161045d906127e1565b60405180910390fd5b6000600e60006101000a81548160ff021916908315150217905550565b600e60019054906101000a900473ffffffffffffffffffffffffffffffffffffffff1673ffffffffffffffffffffffffffffffffffffffff166104c4611204565b73ffffffffffffffffffffffffffffffffffffffff161461051a576040517f08c379a000000000000000000000000000000000000000000000000000000000815260040161051190612841565b60405180910390fd5b6000479050808210610561576040517f08c379a000000000000000000000000000000000000000000000000000000000815260040161055890612781565b60405180910390fd5b8273ffffffffffffffffffffffffffffffffffffffff166108fc839081150290604051600060405180830381858888f193505050501580156105a7573d6000803e3d6000fd5b50505050565b606060001515600e60009054906101000a900460ff16151514610605576040517f08c379a00000000000000000000000000000000000000000000000000000000081526004016105fc90612881565b60405180910390fd5b600c60008373ffffffffffffffffffffffffffffffffffffffff1673ffffffffffffffffffffffffffffffffffffffff16815260200190815260200160002060000180548060200260200160405190810160405280929190818152602001828054801561069157602002820191906000526020600020905b81548152602001906001019080831161067d575b50505050509050919050565b6060600e60019054906101000a900473ffffffffffffffffffffffffffffffffffffffff1673ffffffffffffffffffffffffffffffffffffffff166106e0611204565b73ffffffffffffffffffffffffffffffffffffffff1614610736576040517f08c379a000000000000000000000000000000000000000000000000000000000815260040161072d90612841565b60405180910390fd5b60001515600e60009054906101000a900460ff1615151461078c576040517f08c379a000000000000000000000000000000000000000000000000000000000815260040161078390612881565b60405180910390fd5b600060055414156107d2576040517f08c379a00000000000000000000000000000000000000000000000000000000081526004016107c990612861565b60405180910390fd5b6004821080156107e25750600082115b610821576040517f08c379a000000000000000000000000000000000000000000000000000000000815260040161081890612821565b60405180910390fd5b6103e860035410610867576040517f08c379a000000000000000000000000000000000000000000000000000000000815260040161085e906128a1565b60405180910390fd5b600060055414156108ad576040517f08c379a00000000000000000000000000000000000000000000000000000000081526004016108a4906127a1565b60405180910390fd5b600060606000600367ffffffffffffffff8111156108ce576108cd612e3e565b5b60405190808252806020026020018201604052801561090157816020015b60608152602001906001900390816108ec5790505b50905060005b8581101561097b576109188761120c565b809450819550505061092984611432565b8360405160200161093b929190612579565b60405160208183030381529060405282828151811061095d5761095c612e0f565b5b6020026020010181905250808061097390612cc8565b915050610907565b508573ffffffffffffffffffffffffffffffffffffffff167fb4a5369904dcc0d74d8fb8bbcdeb51f356f20c722499d42a6da95324e634c141826040516109c291906126c0565b60405180910390a280935050505092915050565b6000806000600e60019054906101000a900473ffffffffffffffffffffffffffffffffffffffff1673ffffffffffffffffffffffffffffffffffffffff16610a1c611204565b73ffffffffffffffffffffffffffffffffffffffff1614610a72576040517f08c379a0000000000000000000000000000000000000000000000000000000008152600401610a6990612841565b60405180910390fd5b60001515600e60009054906101000a900460ff16151514610ac8576040517f08c379a0000000000000000000000000000000000000000000000000000000008152600401610abf90612881565b60405180910390fd5b600654600754600854925092509250909192565b6000600554905090565b6000600e60019054906101000a900473ffffffffffffffffffffffffffffffffffffffff1673ffffffffffffffffffffffffffffffffffffffff16610b29611204565b73ffffffffffffffffffffffffffffffffffffffff1614610b7f576040517f08c379a0000000000000000000000000000000000000000000000000000000008152600401610b7690612841565b60405180910390fd5b47905090565b606060001515600e60009054906101000a900460ff16151514610bdd576040517f08c379a0000000000000000000000000000000000000000000000000000000008152600401610bd490612881565b60405180910390fd5b60006005541415610c23576040517f08c379a0000000000000000000000000000000000000000000000000000000008152600401610c1a90612861565b60405180910390fd5b600483108015610c335750600083115b610c72576040517f08c379a0000000000000000000000000000000000000000000000000000000008152600401610c6990612821565b60405180910390fd5b6103e860035410610cb8576040517f08c379a0000000000000000000000000000000000000000000000000000000008152600401610caf906128a1565b60405180910390fd5b60006005541415610cfe576040517f08c379a0000000000000000000000000000000000000000000000000000000008152600401610cf5906127a1565b60405180910390fd5b82600554610d0c9190612b0f565b3414610d4d576040517f08c379a0000000000000000000000000000000000000000000000000000000008152600401610d44906127c1565b60405180910390fd5b600060606000600367ffffffffffffffff811115610d6e57610d6d612e3e565b5b604051908082528060200260200182016040528015610da157816020015b6060815260200190600190039081610d8c5790505b50905060005b86811015610e1957610db88861120c565b8094508195505050610dc984611432565b83604051602001610ddb929190612579565b604051602081830303815290604052828281518110610dfd57610dfc612e0f565b5b602002602001018190525080610e1290612cc8565b9050610da7565b50610e2b610e25611204565b34611593565b8673ffffffffffffffffffffffffffffffffffffffff167fb4a5369904dcc0d74d8fb8bbcdeb51f356f20c722499d42a6da95324e634c14182604051610e7191906126c0565b60405180910390a28093505050509392505050565b600e60019054906101000a900473ffffffffffffffffffffffffffffffffffffffff1673ffffffffffffffffffffffffffffffffffffffff16610ec7611204565b73ffffffffffffffffffffffffffffffffffffffff1614610f1d576040517f08c379a0000000000000000000000000000000000000000000000000000000008152600401610f1490612841565b60405180910390fd5b60001515600e60009054906101000a900460ff16151514610f73576040517f08c379a0000000000000000000000000000000000000000000000000000000008152600401610f6a90612881565b60405180910390fd5b80600e60016101000a81548173ffffffffffffffffffffffffffffffffffffffff021916908373ffffffffffffffffffffffffffffffffffffffff16021790555050565b600e60019054906101000a900473ffffffffffffffffffffffffffffffffffffffff1673ffffffffffffffffffffffffffffffffffffffff16610ff8611204565b73ffffffffffffffffffffffffffffffffffffffff161461104e576040517f08c379a000000000000000000000000000000000000000000000000000000000815260040161104590612841565b60405180910390fd5b60001515600e60009054906101000a900460ff161515146110a4576040517f08c379a000000000000000000000000000000000000000000000000000000000815260040161109b90612801565b60405180910390fd5b6001600e60006101000a81548160ff021916908315150217905550565b600e60009054906101000a900460ff1681565b600e60019054906101000a900473ffffffffffffffffffffffffffffffffffffffff1681565b6000600e60019054906101000a900473ffffffffffffffffffffffffffffffffffffffff1673ffffffffffffffffffffffffffffffffffffffff163373ffffffffffffffffffffffffffffffffffffffff16141561115b5760019050611160565b600090505b90565b600e60019054906101000a900473ffffffffffffffffffffffffffffffffffffffff1673ffffffffffffffffffffffffffffffffffffffff166111a4611204565b73ffffffffffffffffffffffffffffffffffffffff16146111fa576040517f08c379a00000000000000000000000000000000000000000000000000000000081526004016111f190612841565b60405180910390fd5b8060058190555050565b600033905090565b6000606060001515600e60009054906101000a900460ff16151514611266576040517f08c379a000000000000000000000000000000000000000000000000000000000815260040161125d90612881565b60405180910390fd5b60006112706115ed565b9050600061127d8261167d565b905061131785826004546002805461129490612c65565b80601f01602080910402602001604051908101604052809291908181526020018280546112c090612c65565b801561130d5780601f106112e25761010080835404028352916020019161130d565b820191906000526020600020905b8154815290600101906020018083116112f057829003601f168201915b5050505050611949565b6003600081548092919061132a90612cc8565b9190505550600c60008673ffffffffffffffffffffffffffffffffffffffff1673ffffffffffffffffffffffffffffffffffffffff1681526020019081526020016000206000018190806001815401808255809150506001900390600052602060002001600090919091909150558060028080546113a790612c65565b80601f01602080910402602001604051908101604052809291908181526020018280546113d390612c65565b80156114205780601f106113f557610100808354040283529160200191611420565b820191906000526020600020905b81548152906001019060200180831161140357829003601f168201915b50505050509050935093505050915091565b6060600082141561147a576040518060400160405280600181526020017f3000000000000000000000000000000000000000000000000000000000000000815250905061158e565b600082905060005b600082146114ac57808061149590612cc8565b915050600a826114a59190612ade565b9150611482565b60008167ffffffffffffffff8111156114c8576114c7612e3e565b5b6040519080825280601f01601f1916602001820160405280156114fa5781602001600182028036833780820191505090505b5090505b60008514611587576001826115139190612b69565b9150600a856115229190612d51565b603061152e9190612a88565b60f81b81838151811061154457611543612e0f565b5b60200101907effffffffffffffffffffffffffffffffffffffffffffffffffffffffffffff1916908160001a905350600a856115809190612ade565b94506114fe565b8093505050505b919050565b80600d60008473ffffffffffffffffffffffffffffffffffffffff1673ffffffffffffffffffffffffffffffffffffffff16815260200190815260200160002060008282546115e29190612a88565b925050819055505050565b600080600654600754600854600354426116079190612a88565b6116119190612a88565b61161b9190612a88565b6116259190612a88565b33600e60019054906101000a900473ffffffffffffffffffffffffffffffffffffffff1660405160200161165b9392919061260e565b6040516020818303038152906040528051906020012060001c90508091505090565b6000801515600e60009054906101000a900460ff161515146116d4576040517f08c379a00000000000000000000000000000000000000000000000000000000081526004016116cb90612881565b60405180910390fd5b600060016014846116e59190612d51565b1480156116f55750600954600654105b1561175f576006600081548092919061170d90612cc8565b919050555061171d600654611432565b60405160200161172d91906125a8565b60405160208183030381529060405260029080519060200190611751929190611d5b565b506000905080915050611944565b600360148461176e9190612d51565b1115801561177f5750600a54600754105b156117e9576007600081548092919061179790612cc8565b91905055506117a7600754611432565b6040516020016117b791906125ca565b604051602081830303815290604052600290805190602001906117db929190611d5b565b506001905080915050611944565b60036014846117f89190612d51565b1180156118085750600b54600854105b15611872576008600081548092919061182090612cc8565b9190505550611830600854611432565b60405160200161184091906125ec565b60405160208183030381529060405260029080519060200190611864929190611d5b565b506002905080915050611944565b600a5460075410156118e357600190506007600081548092919061189590612cc8565b91905055506118a5600754611432565b6040516020016118b591906125ca565b604051602081830303815290604052600290805190602001906118d9929190611d5b565b5080915050611944565b60009050600660008154809291906118fa90612cc8565b919050555061190a600654611432565b60405160200161191a91906125a8565b6040516020818303038152906040526002908051906020019061193e929190611d5b565b50809150505b919050565b600073ffffffffffffffffffffffffffffffffffffffff168473ffffffffffffffffffffffffffffffffffffffff1614156119b9576040517f08c379a00000000000000000000000000000000000000000000000000000000081526004016119b0906128c1565b60405180910390fd5b60006119c3611204565b90506119e4816000876119d588611adf565b6119de88611adf565b87611b59565b8260008086815260200190815260200160002060008773ffffffffffffffffffffffffffffffffffffffff1673ffffffffffffffffffffffffffffffffffffffff1681526020019081526020016000206000828254611a439190612a88565b925050819055508473ffffffffffffffffffffffffffffffffffffffff16600073ffffffffffffffffffffffffffffffffffffffff168273ffffffffffffffffffffffffffffffffffffffff167fc3d58168c5ae7397731d063d5bbf3d657854427343f4c083240f7aacaa2d0f628787604051611ac19291906128fc565b60405180910390a4611ad881600087878787611b61565b5050505050565b60606000600167ffffffffffffffff811115611afe57611afd612e3e565b5b604051908082528060200260200182016040528015611b2c5781602001602082028036833780820191505090505b5090508281600081518110611b4457611b43612e0f565b5b60200260200101818152505080915050919050565b505050505050565b611b808473ffffffffffffffffffffffffffffffffffffffff16611d48565b15611d40578373ffffffffffffffffffffffffffffffffffffffff1663ae89a24887878686866040518663ffffffff1660e01b8152600401611bc6959493929190612666565b602060405180830381600087803b158015611be057600080fd5b505af1925050508015611c1157506040513d601f19601f82011682018060405250810190611c0e919061209a565b60015b611cb757611c1d612e6d565b806308c379a01415611c7a5750611c326131fe565b80611c3d5750611c7c565b806040517f08c379a0000000000000000000000000000000000000000000000000000000008152600401611c71919061271f565b60405180910390fd5b505b6040517f08c379a0000000000000000000000000000000000000000000000000000000008152600401611cae90612741565b60405180910390fd5b63ae89a24860e01b7bffffffffffffffffffffffffffffffffffffffffffffffffffffffff1916817bffffffffffffffffffffffffffffffffffffffffffffffffffffffff191614611d3e576040517f08c379a0000000000000000000000000000000000000000000000000000000008152600401611d3590612761565b60405180910390fd5b505b505050505050565b600080823b905060008111915050919050565b828054611d6790612c65565b90600052602060002090601f016020900481019282611d895760008555611dd0565b82601f10611da257805160ff1916838001178555611dd0565b82800160010185558215611dd0579182015b82811115611dcf578251825591602001919060010190611db4565b5b509050611ddd9190611de1565b5090565b5b80821115611dfa576000816000905550600101611de2565b5090565b6000611e11611e0c84612981565b61295c565b90508083825260208201905082856020860282011115611e3457611e33612e94565b5b60005b85811015611e8257813567ffffffffffffffff811115611e5a57611e59612e8f565b5b808601611e678982611f3b565b85526020850194506020840193505050600181019050611e37565b5050509392505050565b6000611e9f611e9a846129ad565b61295c565b905082815260208101848484011115611ebb57611eba612e99565b5b611ec6848285612c23565b509392505050565b600081359050611edd81613294565b92915050565b600081359050611ef2816132ab565b92915050565b600082601f830112611f0d57611f0c612e8f565b5b8135611f1d848260208601611dfe565b91505092915050565b600081519050611f35816132c2565b92915050565b600082601f830112611f5057611f4f612e8f565b5b8135611f60848260208601611e8c565b91505092915050565b600081359050611f78816132d9565b92915050565b600060208284031215611f9457611f93612ea3565b5b6000611fa284828501611ece565b91505092915050565b60008060408385031215611fc257611fc1612ea3565b5b6000611fd085828601611ee3565b9250506020611fe185828601611f69565b9150509250929050565b6000806040838503121561200257612001612ea3565b5b600061201085828601611ece565b925050602061202185828601611f69565b9150509250929050565b60008060006060848603121561204457612043612ea3565b5b600061205286828701611ece565b935050602061206386828701611f69565b925050604084013567ffffffffffffffff81111561208457612083612e9e565b5b61209086828701611ef8565b9150509250925092565b6000602082840312156120b0576120af612ea3565b5b60006120be84828501611f26565b91505092915050565b6000602082840312156120dd576120dc612ea3565b5b60006120eb84828501611f69565b91505092915050565b6000612100838361224e565b905092915050565b60006121148383612544565b60208301905092915050565b61212981612baf565b82525050565b61214061213b82612baf565b612d23565b82525050565b61214f81612b9d565b82525050565b61216661216182612b9d565b612d11565b82525050565b6000612177826129fe565b6121818185612a39565b935083602082028501612193856129de565b8060005b858110156121cf57848403895281516121b085826120f4565b94506121bb83612a1f565b925060208a01995050600181019050612197565b50829750879550505050505092915050565b60006121ec82612a09565b6121f68185612a4a565b9350612201836129ee565b8060005b838110156122325781516122198882612108565b975061222483612a2c565b925050600181019050612205565b5085935050505092915050565b61224881612bc1565b82525050565b600061225982612a14565b6122638185612a5b565b9350612273818560208601612c32565b61227c81612ea8565b840191505092915050565b600061229282612a14565b61229c8185612a6c565b93506122ac818560208601612c32565b6122b581612ea8565b840191505092915050565b60006122cb82612a14565b6122d58185612a7d565b93506122e5818560208601612c32565b80840191505092915050565b60006122fe603483612a6c565b915061230982612ed3565b604082019050919050565b6000612321602883612a6c565b915061232c82612f22565b604082019050919050565b6000612344601983612a6c565b915061234f82612f71565b602082019050919050565b6000612367600883612a7d565b915061237282612f9a565b600882019050919050565b600061238a601083612a6c565b915061239582612fc3565b602082019050919050565b60006123ad600583612a7d565b91506123b882612fec565b600582019050919050565b60006123d0601283612a6c565b91506123db82613015565b602082019050919050565b60006123f3601b83612a6c565b91506123fe8261303e565b602082019050919050565b6000612416601b83612a6c565b915061242182613067565b602082019050919050565b6000612439601583612a6c565b915061244482613090565b602082019050919050565b600061245c601c83612a6c565b9150612467826130b9565b602082019050919050565b600061247f601f83612a6c565b915061248a826130e2565b602082019050919050565b60006124a2601b83612a6c565b91506124ad8261310b565b602082019050919050565b60006124c5601983612a6c565b91506124d082613134565b602082019050919050565b60006124e8600183612a7d565b91506124f38261315d565b600182019050919050565b600061250b600783612a7d565b915061251682613186565b600782019050919050565b600061252e602183612a6c565b9150612539826131af565b604082019050919050565b61254d81612c19565b82525050565b61255c81612c19565b82525050565b61257361256e82612c19565b612d47565b82525050565b600061258582856122c0565b9150612590826124db565b915061259c82846122c0565b91508190509392505050565b60006125b38261235a565b91506125bf82846122c0565b915081905092915050565b60006125d5826123a0565b91506125e182846122c0565b915081905092915050565b60006125f7826124fe565b915061260382846122c0565b915081905092915050565b600061261a8286612562565b60208201915061262a8285612155565b60148201915061263a828461212f565b601482019150819050949350505050565b60006020820190506126606000830184612120565b92915050565b600060a08201905061267b6000830188612146565b6126886020830187612146565b6126956040830186612553565b6126a26060830185612553565b81810360808301526126b48184612287565b90509695505050505050565b600060208201905081810360008301526126da818461216c565b905092915050565b600060208201905081810360008301526126fc81846121e1565b905092915050565b6000602082019050612719600083018461223f565b92915050565b600060208201905081810360008301526127398184612287565b905092915050565b6000602082019050818103600083015261275a816122f1565b9050919050565b6000602082019050818103600083015261277a81612314565b9050919050565b6000602082019050818103600083015261279a81612337565b9050919050565b600060208201905081810360008301526127ba8161237d565b9050919050565b600060208201905081810360008301526127da816123c3565b9050919050565b600060208201905081810360008301526127fa816123e6565b9050919050565b6000602082019050818103600083015261281a81612409565b9050919050565b6000602082019050818103600083015261283a8161242c565b9050919050565b6000602082019050818103600083015261285a8161244f565b9050919050565b6000602082019050818103600083015261287a81612472565b9050919050565b6000602082019050818103600083015261289a81612495565b9050919050565b600060208201905081810360008301526128ba816124b8565b9050919050565b600060208201905081810360008301526128da81612521565b9050919050565b60006020820190506128f66000830184612553565b92915050565b60006040820190506129116000830185612553565b61291e6020830184612553565b9392505050565b600060608201905061293a6000830186612553565b6129476020830185612553565b6129546040830184612553565b949350505050565b6000612966612977565b90506129728282612c97565b919050565b6000604051905090565b600067ffffffffffffffff82111561299c5761299b612e3e565b5b602082029050602081019050919050565b600067ffffffffffffffff8211156129c8576129c7612e3e565b5b6129d182612ea8565b9050602081019050919050565b6000819050602082019050919050565b6000819050602082019050919050565b600081519050919050565b600081519050919050565b600081519050919050565b6000602082019050919050565b6000602082019050919050565b600082825260208201905092915050565b600082825260208201905092915050565b600082825260208201905092915050565b600082825260208201905092915050565b600081905092915050565b6000612a9382612c19565b9150612a9e83612c19565b9250827fffffffffffffffffffffffffffffffffffffffffffffffffffffffffffffffff03821115612ad357612ad2612d82565b5b828201905092915050565b6000612ae982612c19565b9150612af483612c19565b925082612b0457612b03612db1565b5b828204905092915050565b6000612b1a82612c19565b9150612b2583612c19565b9250817fffffffffffffffffffffffffffffffffffffffffffffffffffffffffffffffff0483118215151615612b5e57612b5d612d82565b5b828202905092915050565b6000612b7482612c19565b9150612b7f83612c19565b925082821015612b9257612b91612d82565b5b828203905092915050565b6000612ba882612bf9565b9050919050565b6000612bba82612bf9565b9050919050565b60008115159050919050565b60007fffffffff0000000000000000000000000000000000000000000000000000000082169050919050565b600073ffffffffffffffffffffffffffffffffffffffff82169050919050565b6000819050919050565b82818337600083830152505050565b60005b83811015612c50578082015181840152602081019050612c35565b83811115612c5f576000848401525b50505050565b60006002820490506001821680612c7d57607f821691505b60208210811415612c9157612c90612de0565b5b50919050565b612ca082612ea8565b810181811067ffffffffffffffff82111715612cbf57612cbe612e3e565b5b80604052505050565b6000612cd382612c19565b91507fffffffffffffffffffffffffffffffffffffffffffffffffffffffffffffffff821415612d0657612d05612d82565b5b600182019050919050565b6000612d1c82612d35565b9050919050565b6000612d2e82612d35565b9050919050565b6000612d4082612eb9565b9050919050565b6000819050919050565b6000612d5c82612c19565b9150612d6783612c19565b925082612d7757612d76612db1565b5b828206905092915050565b7f4e487b7100000000000000000000000000000000000000000000000000000000600052601160045260246000fd5b7f4e487b7100000000000000000000000000000000000000000000000000000000600052601260045260246000fd5b7f4e487b7100000000000000000000000000000000000000000000000000000000600052602260045260246000fd5b7f4e487b7100000000000000000000000000000000000000000000000000000000600052603260045260246000fd5b7f4e487b7100000000000000000000000000000000000000000000000000000000600052604160045260246000fd5b600060033d1115612e8c5760046000803e612e89600051612ec6565b90505b90565b600080fd5b600080fd5b600080fd5b600080fd5b600080fd5b6000601f19601f8301169050919050565b60008160601b9050919050565b60008160e01c9050919050565b7f455243313135353a207472616e7366657220746f206e6f6e204552433131353560008201527f526563656976657220696d706c656d656e746572000000000000000000000000602082015250565b7f455243313135353a204552433131353552656365697665722072656a6563746560008201527f6420746f6b656e73000000000000000000000000000000000000000000000000602082015250565b7f4572726f7221204e6f7420456e6f7567682042616c616e636500000000000000600082015250565b7f4469616d6f6e645f000000000000000000000000000000000000000000000000600082015250565b7f4d696e7420466565204e6f742053657400000000000000000000000000000000600082015250565b7f476f6c645f000000000000000000000000000000000000000000000000000000600082015250565b7f4e6f7420456e6f7567682042616c616e63650000000000000000000000000000600082015250565b7f44726f707369746520697320616c72656164792052756e6e696e670000000000600082015250565b7f44726f707369746520697320616c72656164792053746f707065640000000000600082015250565b7f596f752063616e206d696e7420312d33204e4654730000000000000000000000600082015250565b7f4f6e6c79204e46542d4553204f776e65722063616e2041636365737300000000600082015250565b7f4f776e65722053686f756c6420736574206d696e742046656520466972737400600082015250565b7f44726f7073697465206973206e6f74204f70656e6564205965742e0000000000600082015250565b7f4d6178204d696e74696e67204c696d6974207265616368656400000000000000600082015250565b7f5f00000000000000000000000000000000000000000000000000000000000000600082015250565b7f53696c7665725f00000000000000000000000000000000000000000000000000600082015250565b7f455243313135353a206d696e7420746f20746865207a65726f2061646472657360008201527f7300000000000000000000000000000000000000000000000000000000000000602082015250565b600060443d101561320e57613291565b613216612977565b60043d036004823e80513d602482011167ffffffffffffffff8211171561323e575050613291565b808201805167ffffffffffffffff81111561325c5750505050613291565b80602083010160043d038501811115613279575050505050613291565b61328882602001850186612c97565b82955050505050505b90565b61329d81612b9d565b81146132a857600080fd5b50565b6132b481612baf565b81146132bf57600080fd5b50565b6132cb81612bcd565b81146132d657600080fd5b50565b6132e281612c19565b81146132ed57600080fd5b5056fea2646970667358221220dbcc852eb0947f223777dff1816c13f7133abc69d2a62c97d98d4480f2ee09a064736f6c63430008070033",
					"opcodes": "PUSH1 0x80 PUSH1 0x40 MSTORE PUSH1 0x40 MLOAD DUP1 PUSH1 0x20 ADD PUSH1 0x40 MSTORE DUP1 PUSH1 0x0 DUP2 MSTORE POP PUSH1 0x2 SWAP1 DUP1 MLOAD SWAP1 PUSH1 0x20 ADD SWAP1 PUSH3 0x2B SWAP3 SWAP2 SWAP1 PUSH3 0x113 JUMP JUMPDEST POP PUSH1 0x32 PUSH1 0x9 SSTORE PUSH1 0x64 PUSH1 0xA SSTORE PUSH2 0x352 PUSH1 0xB SSTORE PUSH1 0x1 PUSH1 0xE PUSH1 0x0 PUSH2 0x100 EXP DUP2 SLOAD DUP2 PUSH1 0xFF MUL NOT AND SWAP1 DUP4 ISZERO ISZERO MUL OR SWAP1 SSTORE POP CALLVALUE DUP1 ISZERO PUSH3 0x64 JUMPI PUSH1 0x0 DUP1 REVERT JUMPDEST POP PUSH1 0x40 MLOAD PUSH3 0x374C CODESIZE SUB DUP1 PUSH3 0x374C DUP4 CODECOPY DUP2 DUP2 ADD PUSH1 0x40 MSTORE DUP2 ADD SWAP1 PUSH3 0x8A SWAP2 SWAP1 PUSH3 0x241 JUMP JUMPDEST DUP1 PUSH1 0xF SWAP1 DUP1 MLOAD SWAP1 PUSH1 0x20 ADD SWAP1 PUSH3 0xA2 SWAP3 SWAP2 SWAP1 PUSH3 0x113 JUMP JUMPDEST POP CALLER PUSH1 0xE PUSH1 0x1 PUSH2 0x100 EXP DUP2 SLOAD DUP2 PUSH20 0xFFFFFFFFFFFFFFFFFFFFFFFFFFFFFFFFFFFFFFFF MUL NOT AND SWAP1 DUP4 PUSH20 0xFFFFFFFFFFFFFFFFFFFFFFFFFFFFFFFFFFFFFFFF AND MUL OR SWAP1 SSTORE POP PUSH1 0x0 PUSH1 0x3 DUP2 SWAP1 SSTORE POP PUSH1 0x1 PUSH1 0x4 DUP2 SWAP1 SSTORE POP PUSH1 0x0 PUSH1 0x6 DUP2 SWAP1 SSTORE POP PUSH1 0x0 PUSH1 0x7 DUP2 SWAP1 SSTORE POP PUSH1 0x0 PUSH1 0x8 DUP2 SWAP1 SSTORE POP POP PUSH3 0x416 JUMP JUMPDEST DUP3 DUP1 SLOAD PUSH3 0x121 SWAP1 PUSH3 0x327 JUMP JUMPDEST SWAP1 PUSH1 0x0 MSTORE PUSH1 0x20 PUSH1 0x0 KECCAK256 SWAP1 PUSH1 0x1F ADD PUSH1 0x20 SWAP1 DIV DUP2 ADD SWAP3 DUP3 PUSH3 0x145 JUMPI PUSH1 0x0 DUP6 SSTORE PUSH3 0x191 JUMP JUMPDEST DUP3 PUSH1 0x1F LT PUSH3 0x160 JUMPI DUP1 MLOAD PUSH1 0xFF NOT AND DUP4 DUP1 ADD OR DUP6 SSTORE PUSH3 0x191 JUMP JUMPDEST DUP3 DUP1 ADD PUSH1 0x1 ADD DUP6 SSTORE DUP3 ISZERO PUSH3 0x191 JUMPI SWAP2 DUP3 ADD JUMPDEST DUP3 DUP2 GT ISZERO PUSH3 0x190 JUMPI DUP3 MLOAD DUP3 SSTORE SWAP2 PUSH1 0x20 ADD SWAP2 SWAP1 PUSH1 0x1 ADD SWAP1 PUSH3 0x173 JUMP JUMPDEST JUMPDEST POP SWAP1 POP PUSH3 0x1A0 SWAP2 SWAP1 PUSH3 0x1A4 JUMP JUMPDEST POP SWAP1 JUMP JUMPDEST JUMPDEST DUP1 DUP3 GT ISZERO PUSH3 0x1BF JUMPI PUSH1 0x0 DUP2 PUSH1 0x0 SWAP1 SSTORE POP PUSH1 0x1 ADD PUSH3 0x1A5 JUMP JUMPDEST POP SWAP1 JUMP JUMPDEST PUSH1 0x0 PUSH3 0x1DA PUSH3 0x1D4 DUP5 PUSH3 0x2BB JUMP JUMPDEST PUSH3 0x292 JUMP JUMPDEST SWAP1 POP DUP3 DUP2 MSTORE PUSH1 0x20 DUP2 ADD DUP5 DUP5 DUP5 ADD GT ISZERO PUSH3 0x1F9 JUMPI PUSH3 0x1F8 PUSH3 0x3F6 JUMP JUMPDEST JUMPDEST PUSH3 0x206 DUP5 DUP3 DUP6 PUSH3 0x2F1 JUMP JUMPDEST POP SWAP4 SWAP3 POP POP POP JUMP JUMPDEST PUSH1 0x0 DUP3 PUSH1 0x1F DUP4 ADD SLT PUSH3 0x226 JUMPI PUSH3 0x225 PUSH3 0x3F1 JUMP JUMPDEST JUMPDEST DUP2 MLOAD PUSH3 0x238 DUP5 DUP3 PUSH1 0x20 DUP7 ADD PUSH3 0x1C3 JUMP JUMPDEST SWAP2 POP POP SWAP3 SWAP2 POP POP JUMP JUMPDEST PUSH1 0x0 PUSH1 0x20 DUP3 DUP5 SUB SLT ISZERO PUSH3 0x25A JUMPI PUSH3 0x259 PUSH3 0x400 JUMP JUMPDEST JUMPDEST PUSH1 0x0 DUP3 ADD MLOAD PUSH8 0xFFFFFFFFFFFFFFFF DUP2 GT ISZERO PUSH3 0x27B JUMPI PUSH3 0x27A PUSH3 0x3FB JUMP JUMPDEST JUMPDEST PUSH3 0x289 DUP5 DUP3 DUP6 ADD PUSH3 0x20E JUMP JUMPDEST SWAP2 POP POP SWAP3 SWAP2 POP POP JUMP JUMPDEST PUSH1 0x0 PUSH3 0x29E PUSH3 0x2B1 JUMP JUMPDEST SWAP1 POP PUSH3 0x2AC DUP3 DUP3 PUSH3 0x35D JUMP JUMPDEST SWAP2 SWAP1 POP JUMP JUMPDEST PUSH1 0x0 PUSH1 0x40 MLOAD SWAP1 POP SWAP1 JUMP JUMPDEST PUSH1 0x0 PUSH8 0xFFFFFFFFFFFFFFFF DUP3 GT ISZERO PUSH3 0x2D9 JUMPI PUSH3 0x2D8 PUSH3 0x3C2 JUMP JUMPDEST JUMPDEST PUSH3 0x2E4 DUP3 PUSH3 0x405 JUMP JUMPDEST SWAP1 POP PUSH1 0x20 DUP2 ADD SWAP1 POP SWAP2 SWAP1 POP JUMP JUMPDEST PUSH1 0x0 JUMPDEST DUP4 DUP2 LT ISZERO PUSH3 0x311 JUMPI DUP1 DUP3 ADD MLOAD DUP2 DUP5 ADD MSTORE PUSH1 0x20 DUP2 ADD SWAP1 POP PUSH3 0x2F4 JUMP JUMPDEST DUP4 DUP2 GT ISZERO PUSH3 0x321 JUMPI PUSH1 0x0 DUP5 DUP5 ADD MSTORE JUMPDEST POP POP POP POP JUMP JUMPDEST PUSH1 0x0 PUSH1 0x2 DUP3 DIV SWAP1 POP PUSH1 0x1 DUP3 AND DUP1 PUSH3 0x340 JUMPI PUSH1 0x7F DUP3 AND SWAP2 POP JUMPDEST PUSH1 0x20 DUP3 LT DUP2 EQ ISZERO PUSH3 0x357 JUMPI PUSH3 0x356 PUSH3 0x393 JUMP JUMPDEST JUMPDEST POP SWAP2 SWAP1 POP JUMP JUMPDEST PUSH3 0x368 DUP3 PUSH3 0x405 JUMP JUMPDEST DUP2 ADD DUP2 DUP2 LT PUSH8 0xFFFFFFFFFFFFFFFF DUP3 GT OR ISZERO PUSH3 0x38A JUMPI PUSH3 0x389 PUSH3 0x3C2 JUMP JUMPDEST JUMPDEST DUP1 PUSH1 0x40 MSTORE POP POP POP JUMP JUMPDEST PUSH32 0x4E487B7100000000000000000000000000000000000000000000000000000000 PUSH1 0x0 MSTORE PUSH1 0x22 PUSH1 0x4 MSTORE PUSH1 0x24 PUSH1 0x0 REVERT JUMPDEST PUSH32 0x4E487B7100000000000000000000000000000000000000000000000000000000 PUSH1 0x0 MSTORE PUSH1 0x41 PUSH1 0x4 MSTORE PUSH1 0x24 PUSH1 0x0 REVERT JUMPDEST PUSH1 0x0 DUP1 REVERT JUMPDEST PUSH1 0x0 DUP1 REVERT JUMPDEST PUSH1 0x0 DUP1 REVERT JUMPDEST PUSH1 0x0 DUP1 REVERT JUMPDEST PUSH1 0x0 PUSH1 0x1F NOT PUSH1 0x1F DUP4 ADD AND SWAP1 POP SWAP2 SWAP1 POP JUMP JUMPDEST PUSH2 0x3326 DUP1 PUSH3 0x426 PUSH1 0x0 CODECOPY PUSH1 0x0 RETURN INVALID PUSH1 0x80 PUSH1 0x40 MSTORE PUSH1 0x4 CALLDATASIZE LT PUSH2 0xE8 JUMPI PUSH1 0x0 CALLDATALOAD PUSH1 0xE0 SHR DUP1 PUSH4 0x8B7AFE2E GT PUSH2 0x8A JUMPI DUP1 PUSH4 0xB187BD26 GT PUSH2 0x59 JUMPI DUP1 PUSH4 0xB187BD26 EQ PUSH2 0x2C5 JUMPI DUP1 PUSH4 0xB4A99A4E EQ PUSH2 0x2F0 JUMPI DUP1 PUSH4 0xB6DB75A0 EQ PUSH2 0x31B JUMPI DUP1 PUSH4 0xEDDD0D9C EQ PUSH2 0x346 JUMPI PUSH2 0xE8 JUMP JUMPDEST DUP1 PUSH4 0x8B7AFE2E EQ PUSH2 0x22A JUMPI DUP1 PUSH4 0x8C089EC9 EQ PUSH2 0x255 JUMPI DUP1 PUSH4 0xA6F9DAE1 EQ PUSH2 0x285 JUMPI DUP1 PUSH4 0xAA90C726 EQ PUSH2 0x2AE JUMPI PUSH2 0xE8 JUMP JUMPDEST DUP1 PUSH4 0x225011DA GT PUSH2 0xC6 JUMPI DUP1 PUSH4 0x225011DA EQ PUSH2 0x158 JUMPI DUP1 PUSH4 0x5E1F0556 EQ PUSH2 0x195 JUMPI DUP1 PUSH4 0x60DAA851 EQ PUSH2 0x1D2 JUMPI DUP1 PUSH4 0x7A5CAAB3 EQ PUSH2 0x1FF JUMPI PUSH2 0xE8 JUMP JUMPDEST DUP1 PUSH4 0x390C11C EQ PUSH2 0xED JUMPI DUP1 PUSH4 0x15460259 EQ PUSH2 0x118 JUMPI DUP1 PUSH4 0x191E2E83 EQ PUSH2 0x12F JUMPI JUMPDEST PUSH1 0x0 DUP1 REVERT JUMPDEST CALLVALUE DUP1 ISZERO PUSH2 0xF9 JUMPI PUSH1 0x0 DUP1 REVERT JUMPDEST POP PUSH2 0x102 PUSH2 0x36F JUMP JUMPDEST PUSH1 0x40 MLOAD PUSH2 0x10F SWAP2 SWAP1 PUSH2 0x28E1 JUMP JUMPDEST PUSH1 0x40 MLOAD DUP1 SWAP2 SUB SWAP1 RETURN JUMPDEST CALLVALUE DUP1 ISZERO PUSH2 0x124 JUMPI PUSH1 0x0 DUP1 REVERT JUMPDEST POP PUSH2 0x12D PUSH2 0x379 JUMP JUMPDEST STOP JUMPDEST CALLVALUE DUP1 ISZERO PUSH2 0x13B JUMPI PUSH1 0x0 DUP1 REVERT JUMPDEST POP PUSH2 0x156 PUSH1 0x4 DUP1 CALLDATASIZE SUB DUP2 ADD SWAP1 PUSH2 0x151 SWAP2 SWAP1 PUSH2 0x1FAB JUMP JUMPDEST PUSH2 0x483 JUMP JUMPDEST STOP JUMPDEST CALLVALUE DUP1 ISZERO PUSH2 0x164 JUMPI PUSH1 0x0 DUP1 REVERT JUMPDEST POP PUSH2 0x17F PUSH1 0x4 DUP1 CALLDATASIZE SUB DUP2 ADD SWAP1 PUSH2 0x17A SWAP2 SWAP1 PUSH2 0x1F7E JUMP JUMPDEST PUSH2 0x5AD JUMP JUMPDEST PUSH1 0x40 MLOAD PUSH2 0x18C SWAP2 SWAP1 PUSH2 0x26E2 JUMP JUMPDEST PUSH1 0x40 MLOAD DUP1 SWAP2 SUB SWAP1 RETURN JUMPDEST CALLVALUE DUP1 ISZERO PUSH2 0x1A1 JUMPI PUSH1 0x0 DUP1 REVERT JUMPDEST POP PUSH2 0x1BC PUSH1 0x4 DUP1 CALLDATASIZE SUB DUP2 ADD SWAP1 PUSH2 0x1B7 SWAP2 SWAP1 PUSH2 0x1FEB JUMP JUMPDEST PUSH2 0x69D JUMP JUMPDEST PUSH1 0x40 MLOAD PUSH2 0x1C9 SWAP2 SWAP1 PUSH2 0x26C0 JUMP JUMPDEST PUSH1 0x40 MLOAD DUP1 SWAP2 SUB SWAP1 RETURN JUMPDEST CALLVALUE DUP1 ISZERO PUSH2 0x1DE JUMPI PUSH1 0x0 DUP1 REVERT JUMPDEST POP PUSH2 0x1E7 PUSH2 0x9D6 JUMP JUMPDEST PUSH1 0x40 MLOAD PUSH2 0x1F6 SWAP4 SWAP3 SWAP2 SWAP1 PUSH2 0x2925 JUMP JUMPDEST PUSH1 0x40 MLOAD DUP1 SWAP2 SUB SWAP1 RETURN JUMPDEST CALLVALUE DUP1 ISZERO PUSH2 0x20B JUMPI PUSH1 0x0 DUP1 REVERT JUMPDEST POP PUSH2 0x214 PUSH2 0xADC JUMP JUMPDEST PUSH1 0x40 MLOAD PUSH2 0x221 SWAP2 SWAP1 PUSH2 0x28E1 JUMP JUMPDEST PUSH1 0x40 MLOAD DUP1 SWAP2 SUB SWAP1 RETURN JUMPDEST CALLVALUE DUP1 ISZERO PUSH2 0x236 JUMPI PUSH1 0x0 DUP1 REVERT JUMPDEST POP PUSH2 0x23F PUSH2 0xAE6 JUMP JUMPDEST PUSH1 0x40 MLOAD PUSH2 0x24C SWAP2 SWAP1 PUSH2 0x28E1 JUMP JUMPDEST PUSH1 0x40 MLOAD DUP1 SWAP2 SUB SWAP1 RETURN JUMPDEST PUSH2 0x26F PUSH1 0x4 DUP1 CALLDATASIZE SUB DUP2 ADD SWAP1 PUSH2 0x26A SWAP2 SWAP1 PUSH2 0x202B JUMP JUMPDEST PUSH2 0xB85 JUMP JUMPDEST PUSH1 0x40 MLOAD PUSH2 0x27C SWAP2 SWAP1 PUSH2 0x26C0 JUMP JUMPDEST PUSH1 0x40 MLOAD DUP1 SWAP2 SUB SWAP1 RETURN JUMPDEST CALLVALUE DUP1 ISZERO PUSH2 0x291 JUMPI PUSH1 0x0 DUP1 REVERT JUMPDEST POP PUSH2 0x2AC PUSH1 0x4 DUP1 CALLDATASIZE SUB DUP2 ADD SWAP1 PUSH2 0x2A7 SWAP2 SWAP1 PUSH2 0x1F7E JUMP JUMPDEST PUSH2 0xE86 JUMP JUMPDEST STOP JUMPDEST CALLVALUE DUP1 ISZERO PUSH2 0x2BA JUMPI PUSH1 0x0 DUP1 REVERT JUMPDEST POP PUSH2 0x2C3 PUSH2 0xFB7 JUMP JUMPDEST STOP JUMPDEST CALLVALUE DUP1 ISZERO PUSH2 0x2D1 JUMPI PUSH1 0x0 DUP1 REVERT JUMPDEST POP PUSH2 0x2DA PUSH2 0x10C1 JUMP JUMPDEST PUSH1 0x40 MLOAD PUSH2 0x2E7 SWAP2 SWAP1 PUSH2 0x2704 JUMP JUMPDEST PUSH1 0x40 MLOAD DUP1 SWAP2 SUB SWAP1 RETURN JUMPDEST CALLVALUE DUP1 ISZERO PUSH2 0x2FC JUMPI PUSH1 0x0 DUP1 REVERT JUMPDEST POP PUSH2 0x305 PUSH2 0x10D4 JUMP JUMPDEST PUSH1 0x40 MLOAD PUSH2 0x312 SWAP2 SWAP1 PUSH2 0x264B JUMP JUMPDEST PUSH1 0x40 MLOAD DUP1 SWAP2 SUB SWAP1 RETURN JUMPDEST CALLVALUE DUP1 ISZERO PUSH2 0x327 JUMPI PUSH1 0x0 DUP1 REVERT JUMPDEST POP PUSH2 0x330 PUSH2 0x10FA JUMP JUMPDEST PUSH1 0x40 MLOAD PUSH2 0x33D SWAP2 SWAP1 PUSH2 0x2704 JUMP JUMPDEST PUSH1 0x40 MLOAD DUP1 SWAP2 SUB SWAP1 RETURN JUMPDEST CALLVALUE DUP1 ISZERO PUSH2 0x352 JUMPI PUSH1 0x0 DUP1 REVERT JUMPDEST POP PUSH2 0x36D PUSH1 0x4 DUP1 CALLDATASIZE SUB DUP2 ADD SWAP1 PUSH2 0x368 SWAP2 SWAP1 PUSH2 0x20C7 JUMP JUMPDEST PUSH2 0x1163 JUMP JUMPDEST STOP JUMPDEST PUSH1 0x0 PUSH1 0x3 SLOAD SWAP1 POP SWAP1 JUMP JUMPDEST PUSH1 0xE PUSH1 0x1 SWAP1 SLOAD SWAP1 PUSH2 0x100 EXP SWAP1 DIV PUSH20 0xFFFFFFFFFFFFFFFFFFFFFFFFFFFFFFFFFFFFFFFF AND PUSH20 0xFFFFFFFFFFFFFFFFFFFFFFFFFFFFFFFFFFFFFFFF AND PUSH2 0x3BA PUSH2 0x1204 JUMP JUMPDEST PUSH20 0xFFFFFFFFFFFFFFFFFFFFFFFFFFFFFFFFFFFFFFFF AND EQ PUSH2 0x410 JUMPI PUSH1 0x40 MLOAD PUSH32 0x8C379A000000000000000000000000000000000000000000000000000000000 DUP2 MSTORE PUSH1 0x4 ADD PUSH2 0x407 SWAP1 PUSH2 0x2841 JUMP JUMPDEST PUSH1 0x40 MLOAD DUP1 SWAP2 SUB SWAP1 REVERT JUMPDEST PUSH1 0x1 ISZERO ISZERO PUSH1 0xE PUSH1 0x0 SWAP1 SLOAD SWAP1 PUSH2 0x100 EXP SWAP1 DIV PUSH1 0xFF AND ISZERO ISZERO EQ PUSH2 0x466 JUMPI PUSH1 0x40 MLOAD PUSH32 0x8C379A000000000000000000000000000000000000000000000000000000000 DUP2 MSTORE PUSH1 0x4 ADD PUSH2 0x45D SWAP1 PUSH2 0x27E1 JUMP JUMPDEST PUSH1 0x40 MLOAD DUP1 SWAP2 SUB SWAP1 REVERT JUMPDEST PUSH1 0x0 PUSH1 0xE PUSH1 0x0 PUSH2 0x100 EXP DUP2 SLOAD DUP2 PUSH1 0xFF MUL NOT AND SWAP1 DUP4 ISZERO ISZERO MUL OR SWAP1 SSTORE POP JUMP JUMPDEST PUSH1 0xE PUSH1 0x1 SWAP1 SLOAD SWAP1 PUSH2 0x100 EXP SWAP1 DIV PUSH20 0xFFFFFFFFFFFFFFFFFFFFFFFFFFFFFFFFFFFFFFFF AND PUSH20 0xFFFFFFFFFFFFFFFFFFFFFFFFFFFFFFFFFFFFFFFF AND PUSH2 0x4C4 PUSH2 0x1204 JUMP JUMPDEST PUSH20 0xFFFFFFFFFFFFFFFFFFFFFFFFFFFFFFFFFFFFFFFF AND EQ PUSH2 0x51A JUMPI PUSH1 0x40 MLOAD PUSH32 0x8C379A000000000000000000000000000000000000000000000000000000000 DUP2 MSTORE PUSH1 0x4 ADD PUSH2 0x511 SWAP1 PUSH2 0x2841 JUMP JUMPDEST PUSH1 0x40 MLOAD DUP1 SWAP2 SUB SWAP1 REVERT JUMPDEST PUSH1 0x0 SELFBALANCE SWAP1 POP DUP1 DUP3 LT PUSH2 0x561 JUMPI PUSH1 0x40 MLOAD PUSH32 0x8C379A000000000000000000000000000000000000000000000000000000000 DUP2 MSTORE PUSH1 0x4 ADD PUSH2 0x558 SWAP1 PUSH2 0x2781 JUMP JUMPDEST PUSH1 0x40 MLOAD DUP1 SWAP2 SUB SWAP1 REVERT JUMPDEST DUP3 PUSH20 0xFFFFFFFFFFFFFFFFFFFFFFFFFFFFFFFFFFFFFFFF AND PUSH2 0x8FC DUP4 SWAP1 DUP2 ISZERO MUL SWAP1 PUSH1 0x40 MLOAD PUSH1 0x0 PUSH1 0x40 MLOAD DUP1 DUP4 SUB DUP2 DUP6 DUP9 DUP9 CALL SWAP4 POP POP POP POP ISZERO DUP1 ISZERO PUSH2 0x5A7 JUMPI RETURNDATASIZE PUSH1 0x0 DUP1 RETURNDATACOPY RETURNDATASIZE PUSH1 0x0 REVERT JUMPDEST POP POP POP POP JUMP JUMPDEST PUSH1 0x60 PUSH1 0x0 ISZERO ISZERO PUSH1 0xE PUSH1 0x0 SWAP1 SLOAD SWAP1 PUSH2 0x100 EXP SWAP1 DIV PUSH1 0xFF AND ISZERO ISZERO EQ PUSH2 0x605 JUMPI PUSH1 0x40 MLOAD PUSH32 0x8C379A000000000000000000000000000000000000000000000000000000000 DUP2 MSTORE PUSH1 0x4 ADD PUSH2 0x5FC SWAP1 PUSH2 0x2881 JUMP JUMPDEST PUSH1 0x40 MLOAD DUP1 SWAP2 SUB SWAP1 REVERT JUMPDEST PUSH1 0xC PUSH1 0x0 DUP4 PUSH20 0xFFFFFFFFFFFFFFFFFFFFFFFFFFFFFFFFFFFFFFFF AND PUSH20 0xFFFFFFFFFFFFFFFFFFFFFFFFFFFFFFFFFFFFFFFF AND DUP2 MSTORE PUSH1 0x20 ADD SWAP1 DUP2 MSTORE PUSH1 0x20 ADD PUSH1 0x0 KECCAK256 PUSH1 0x0 ADD DUP1 SLOAD DUP1 PUSH1 0x20 MUL PUSH1 0x20 ADD PUSH1 0x40 MLOAD SWAP1 DUP2 ADD PUSH1 0x40 MSTORE DUP1 SWAP3 SWAP2 SWAP1 DUP2 DUP2 MSTORE PUSH1 0x20 ADD DUP3 DUP1 SLOAD DUP1 ISZERO PUSH2 0x691 JUMPI PUSH1 0x20 MUL DUP3 ADD SWAP2 SWAP1 PUSH1 0x0 MSTORE PUSH1 0x20 PUSH1 0x0 KECCAK256 SWAP1 JUMPDEST DUP2 SLOAD DUP2 MSTORE PUSH1 0x20 ADD SWAP1 PUSH1 0x1 ADD SWAP1 DUP1 DUP4 GT PUSH2 0x67D JUMPI JUMPDEST POP POP POP POP POP SWAP1 POP SWAP2 SWAP1 POP JUMP JUMPDEST PUSH1 0x60 PUSH1 0xE PUSH1 0x1 SWAP1 SLOAD SWAP1 PUSH2 0x100 EXP SWAP1 DIV PUSH20 0xFFFFFFFFFFFFFFFFFFFFFFFFFFFFFFFFFFFFFFFF AND PUSH20 0xFFFFFFFFFFFFFFFFFFFFFFFFFFFFFFFFFFFFFFFF AND PUSH2 0x6E0 PUSH2 0x1204 JUMP JUMPDEST PUSH20 0xFFFFFFFFFFFFFFFFFFFFFFFFFFFFFFFFFFFFFFFF AND EQ PUSH2 0x736 JUMPI PUSH1 0x40 MLOAD PUSH32 0x8C379A000000000000000000000000000000000000000000000000000000000 DUP2 MSTORE PUSH1 0x4 ADD PUSH2 0x72D SWAP1 PUSH2 0x2841 JUMP JUMPDEST PUSH1 0x40 MLOAD DUP1 SWAP2 SUB SWAP1 REVERT JUMPDEST PUSH1 0x0 ISZERO ISZERO PUSH1 0xE PUSH1 0x0 SWAP1 SLOAD SWAP1 PUSH2 0x100 EXP SWAP1 DIV PUSH1 0xFF AND ISZERO ISZERO EQ PUSH2 0x78C JUMPI PUSH1 0x40 MLOAD PUSH32 0x8C379A000000000000000000000000000000000000000000000000000000000 DUP2 MSTORE PUSH1 0x4 ADD PUSH2 0x783 SWAP1 PUSH2 0x2881 JUMP JUMPDEST PUSH1 0x40 MLOAD DUP1 SWAP2 SUB SWAP1 REVERT JUMPDEST PUSH1 0x0 PUSH1 0x5 SLOAD EQ ISZERO PUSH2 0x7D2 JUMPI PUSH1 0x40 MLOAD PUSH32 0x8C379A000000000000000000000000000000000000000000000000000000000 DUP2 MSTORE PUSH1 0x4 ADD PUSH2 0x7C9 SWAP1 PUSH2 0x2861 JUMP JUMPDEST PUSH1 0x40 MLOAD DUP1 SWAP2 SUB SWAP1 REVERT JUMPDEST PUSH1 0x4 DUP3 LT DUP1 ISZERO PUSH2 0x7E2 JUMPI POP PUSH1 0x0 DUP3 GT JUMPDEST PUSH2 0x821 JUMPI PUSH1 0x40 MLOAD PUSH32 0x8C379A000000000000000000000000000000000000000000000000000000000 DUP2 MSTORE PUSH1 0x4 ADD PUSH2 0x818 SWAP1 PUSH2 0x2821 JUMP JUMPDEST PUSH1 0x40 MLOAD DUP1 SWAP2 SUB SWAP1 REVERT JUMPDEST PUSH2 0x3E8 PUSH1 0x3 SLOAD LT PUSH2 0x867 JUMPI PUSH1 0x40 MLOAD PUSH32 0x8C379A000000000000000000000000000000000000000000000000000000000 DUP2 MSTORE PUSH1 0x4 ADD PUSH2 0x85E SWAP1 PUSH2 0x28A1 JUMP JUMPDEST PUSH1 0x40 MLOAD DUP1 SWAP2 SUB SWAP1 REVERT JUMPDEST PUSH1 0x0 PUSH1 0x5 SLOAD EQ ISZERO PUSH2 0x8AD JUMPI PUSH1 0x40 MLOAD PUSH32 0x8C379A000000000000000000000000000000000000000000000000000000000 DUP2 MSTORE PUSH1 0x4 ADD PUSH2 0x8A4 SWAP1 PUSH2 0x27A1 JUMP JUMPDEST PUSH1 0x40 MLOAD DUP1 SWAP2 SUB SWAP1 REVERT JUMPDEST PUSH1 0x0 PUSH1 0x60 PUSH1 0x0 PUSH1 0x3 PUSH8 0xFFFFFFFFFFFFFFFF DUP2 GT ISZERO PUSH2 0x8CE JUMPI PUSH2 0x8CD PUSH2 0x2E3E JUMP JUMPDEST JUMPDEST PUSH1 0x40 MLOAD SWAP1 DUP1 DUP3 MSTORE DUP1 PUSH1 0x20 MUL PUSH1 0x20 ADD DUP3 ADD PUSH1 0x40 MSTORE DUP1 ISZERO PUSH2 0x901 JUMPI DUP2 PUSH1 0x20 ADD JUMPDEST PUSH1 0x60 DUP2 MSTORE PUSH1 0x20 ADD SWAP1 PUSH1 0x1 SWAP1 SUB SWAP1 DUP2 PUSH2 0x8EC JUMPI SWAP1 POP JUMPDEST POP SWAP1 POP PUSH1 0x0 JUMPDEST DUP6 DUP2 LT ISZERO PUSH2 0x97B JUMPI PUSH2 0x918 DUP8 PUSH2 0x120C JUMP JUMPDEST DUP1 SWAP5 POP DUP2 SWAP6 POP POP POP PUSH2 0x929 DUP5 PUSH2 0x1432 JUMP JUMPDEST DUP4 PUSH1 0x40 MLOAD PUSH1 0x20 ADD PUSH2 0x93B SWAP3 SWAP2 SWAP1 PUSH2 0x2579 JUMP JUMPDEST PUSH1 0x40 MLOAD PUSH1 0x20 DUP2 DUP4 SUB SUB DUP2 MSTORE SWAP1 PUSH1 0x40 MSTORE DUP3 DUP3 DUP2 MLOAD DUP2 LT PUSH2 0x95D JUMPI PUSH2 0x95C PUSH2 0x2E0F JUMP JUMPDEST JUMPDEST PUSH1 0x20 MUL PUSH1 0x20 ADD ADD DUP2 SWAP1 MSTORE POP DUP1 DUP1 PUSH2 0x973 SWAP1 PUSH2 0x2CC8 JUMP JUMPDEST SWAP2 POP POP PUSH2 0x907 JUMP JUMPDEST POP DUP6 PUSH20 0xFFFFFFFFFFFFFFFFFFFFFFFFFFFFFFFFFFFFFFFF AND PUSH32 0xB4A5369904DCC0D74D8FB8BBCDEB51F356F20C722499D42A6DA95324E634C141 DUP3 PUSH1 0x40 MLOAD PUSH2 0x9C2 SWAP2 SWAP1 PUSH2 0x26C0 JUMP JUMPDEST PUSH1 0x40 MLOAD DUP1 SWAP2 SUB SWAP1 LOG2 DUP1 SWAP4 POP POP POP POP SWAP3 SWAP2 POP POP JUMP JUMPDEST PUSH1 0x0 DUP1 PUSH1 0x0 PUSH1 0xE PUSH1 0x1 SWAP1 SLOAD SWAP1 PUSH2 0x100 EXP SWAP1 DIV PUSH20 0xFFFFFFFFFFFFFFFFFFFFFFFFFFFFFFFFFFFFFFFF AND PUSH20 0xFFFFFFFFFFFFFFFFFFFFFFFFFFFFFFFFFFFFFFFF AND PUSH2 0xA1C PUSH2 0x1204 JUMP JUMPDEST PUSH20 0xFFFFFFFFFFFFFFFFFFFFFFFFFFFFFFFFFFFFFFFF AND EQ PUSH2 0xA72 JUMPI PUSH1 0x40 MLOAD PUSH32 0x8C379A000000000000000000000000000000000000000000000000000000000 DUP2 MSTORE PUSH1 0x4 ADD PUSH2 0xA69 SWAP1 PUSH2 0x2841 JUMP JUMPDEST PUSH1 0x40 MLOAD DUP1 SWAP2 SUB SWAP1 REVERT JUMPDEST PUSH1 0x0 ISZERO ISZERO PUSH1 0xE PUSH1 0x0 SWAP1 SLOAD SWAP1 PUSH2 0x100 EXP SWAP1 DIV PUSH1 0xFF AND ISZERO ISZERO EQ PUSH2 0xAC8 JUMPI PUSH1 0x40 MLOAD PUSH32 0x8C379A000000000000000000000000000000000000000000000000000000000 DUP2 MSTORE PUSH1 0x4 ADD PUSH2 0xABF SWAP1 PUSH2 0x2881 JUMP JUMPDEST PUSH1 0x40 MLOAD DUP1 SWAP2 SUB SWAP1 REVERT JUMPDEST PUSH1 0x6 SLOAD PUSH1 0x7 SLOAD PUSH1 0x8 SLOAD SWAP3 POP SWAP3 POP SWAP3 POP SWAP1 SWAP2 SWAP3 JUMP JUMPDEST PUSH1 0x0 PUSH1 0x5 SLOAD SWAP1 POP SWAP1 JUMP JUMPDEST PUSH1 0x0 PUSH1 0xE PUSH1 0x1 SWAP1 SLOAD SWAP1 PUSH2 0x100 EXP SWAP1 DIV PUSH20 0xFFFFFFFFFFFFFFFFFFFFFFFFFFFFFFFFFFFFFFFF AND PUSH20 0xFFFFFFFFFFFFFFFFFFFFFFFFFFFFFFFFFFFFFFFF AND PUSH2 0xB29 PUSH2 0x1204 JUMP JUMPDEST PUSH20 0xFFFFFFFFFFFFFFFFFFFFFFFFFFFFFFFFFFFFFFFF AND EQ PUSH2 0xB7F JUMPI PUSH1 0x40 MLOAD PUSH32 0x8C379A000000000000000000000000000000000000000000000000000000000 DUP2 MSTORE PUSH1 0x4 ADD PUSH2 0xB76 SWAP1 PUSH2 0x2841 JUMP JUMPDEST PUSH1 0x40 MLOAD DUP1 SWAP2 SUB SWAP1 REVERT JUMPDEST SELFBALANCE SWAP1 POP SWAP1 JUMP JUMPDEST PUSH1 0x60 PUSH1 0x0 ISZERO ISZERO PUSH1 0xE PUSH1 0x0 SWAP1 SLOAD SWAP1 PUSH2 0x100 EXP SWAP1 DIV PUSH1 0xFF AND ISZERO ISZERO EQ PUSH2 0xBDD JUMPI PUSH1 0x40 MLOAD PUSH32 0x8C379A000000000000000000000000000000000000000000000000000000000 DUP2 MSTORE PUSH1 0x4 ADD PUSH2 0xBD4 SWAP1 PUSH2 0x2881 JUMP JUMPDEST PUSH1 0x40 MLOAD DUP1 SWAP2 SUB SWAP1 REVERT JUMPDEST PUSH1 0x0 PUSH1 0x5 SLOAD EQ ISZERO PUSH2 0xC23 JUMPI PUSH1 0x40 MLOAD PUSH32 0x8C379A000000000000000000000000000000000000000000000000000000000 DUP2 MSTORE PUSH1 0x4 ADD PUSH2 0xC1A SWAP1 PUSH2 0x2861 JUMP JUMPDEST PUSH1 0x40 MLOAD DUP1 SWAP2 SUB SWAP1 REVERT JUMPDEST PUSH1 0x4 DUP4 LT DUP1 ISZERO PUSH2 0xC33 JUMPI POP PUSH1 0x0 DUP4 GT JUMPDEST PUSH2 0xC72 JUMPI PUSH1 0x40 MLOAD PUSH32 0x8C379A000000000000000000000000000000000000000000000000000000000 DUP2 MSTORE PUSH1 0x4 ADD PUSH2 0xC69 SWAP1 PUSH2 0x2821 JUMP JUMPDEST PUSH1 0x40 MLOAD DUP1 SWAP2 SUB SWAP1 REVERT JUMPDEST PUSH2 0x3E8 PUSH1 0x3 SLOAD LT PUSH2 0xCB8 JUMPI PUSH1 0x40 MLOAD PUSH32 0x8C379A000000000000000000000000000000000000000000000000000000000 DUP2 MSTORE PUSH1 0x4 ADD PUSH2 0xCAF SWAP1 PUSH2 0x28A1 JUMP JUMPDEST PUSH1 0x40 MLOAD DUP1 SWAP2 SUB SWAP1 REVERT JUMPDEST PUSH1 0x0 PUSH1 0x5 SLOAD EQ ISZERO PUSH2 0xCFE JUMPI PUSH1 0x40 MLOAD PUSH32 0x8C379A000000000000000000000000000000000000000000000000000000000 DUP2 MSTORE PUSH1 0x4 ADD PUSH2 0xCF5 SWAP1 PUSH2 0x27A1 JUMP JUMPDEST PUSH1 0x40 MLOAD DUP1 SWAP2 SUB SWAP1 REVERT JUMPDEST DUP3 PUSH1 0x5 SLOAD PUSH2 0xD0C SWAP2 SWAP1 PUSH2 0x2B0F JUMP JUMPDEST CALLVALUE EQ PUSH2 0xD4D JUMPI PUSH1 0x40 MLOAD PUSH32 0x8C379A000000000000000000000000000000000000000000000000000000000 DUP2 MSTORE PUSH1 0x4 ADD PUSH2 0xD44 SWAP1 PUSH2 0x27C1 JUMP JUMPDEST PUSH1 0x40 MLOAD DUP1 SWAP2 SUB SWAP1 REVERT JUMPDEST PUSH1 0x0 PUSH1 0x60 PUSH1 0x0 PUSH1 0x3 PUSH8 0xFFFFFFFFFFFFFFFF DUP2 GT ISZERO PUSH2 0xD6E JUMPI PUSH2 0xD6D PUSH2 0x2E3E JUMP JUMPDEST JUMPDEST PUSH1 0x40 MLOAD SWAP1 DUP1 DUP3 MSTORE DUP1 PUSH1 0x20 MUL PUSH1 0x20 ADD DUP3 ADD PUSH1 0x40 MSTORE DUP1 ISZERO PUSH2 0xDA1 JUMPI DUP2 PUSH1 0x20 ADD JUMPDEST PUSH1 0x60 DUP2 MSTORE PUSH1 0x20 ADD SWAP1 PUSH1 0x1 SWAP1 SUB SWAP1 DUP2 PUSH2 0xD8C JUMPI SWAP1 POP JUMPDEST POP SWAP1 POP PUSH1 0x0 JUMPDEST DUP7 DUP2 LT ISZERO PUSH2 0xE19 JUMPI PUSH2 0xDB8 DUP9 PUSH2 0x120C JUMP JUMPDEST DUP1 SWAP5 POP DUP2 SWAP6 POP POP POP PUSH2 0xDC9 DUP5 PUSH2 0x1432 JUMP JUMPDEST DUP4 PUSH1 0x40 MLOAD PUSH1 0x20 ADD PUSH2 0xDDB SWAP3 SWAP2 SWAP1 PUSH2 0x2579 JUMP JUMPDEST PUSH1 0x40 MLOAD PUSH1 0x20 DUP2 DUP4 SUB SUB DUP2 MSTORE SWAP1 PUSH1 0x40 MSTORE DUP3 DUP3 DUP2 MLOAD DUP2 LT PUSH2 0xDFD JUMPI PUSH2 0xDFC PUSH2 0x2E0F JUMP JUMPDEST JUMPDEST PUSH1 0x20 MUL PUSH1 0x20 ADD ADD DUP2 SWAP1 MSTORE POP DUP1 PUSH2 0xE12 SWAP1 PUSH2 0x2CC8 JUMP JUMPDEST SWAP1 POP PUSH2 0xDA7 JUMP JUMPDEST POP PUSH2 0xE2B PUSH2 0xE25 PUSH2 0x1204 JUMP JUMPDEST CALLVALUE PUSH2 0x1593 JUMP JUMPDEST DUP7 PUSH20 0xFFFFFFFFFFFFFFFFFFFFFFFFFFFFFFFFFFFFFFFF AND PUSH32 0xB4A5369904DCC0D74D8FB8BBCDEB51F356F20C722499D42A6DA95324E634C141 DUP3 PUSH1 0x40 MLOAD PUSH2 0xE71 SWAP2 SWAP1 PUSH2 0x26C0 JUMP JUMPDEST PUSH1 0x40 MLOAD DUP1 SWAP2 SUB SWAP1 LOG2 DUP1 SWAP4 POP POP POP POP SWAP4 SWAP3 POP POP POP JUMP JUMPDEST PUSH1 0xE PUSH1 0x1 SWAP1 SLOAD SWAP1 PUSH2 0x100 EXP SWAP1 DIV PUSH20 0xFFFFFFFFFFFFFFFFFFFFFFFFFFFFFFFFFFFFFFFF AND PUSH20 0xFFFFFFFFFFFFFFFFFFFFFFFFFFFFFFFFFFFFFFFF AND PUSH2 0xEC7 PUSH2 0x1204 JUMP JUMPDEST PUSH20 0xFFFFFFFFFFFFFFFFFFFFFFFFFFFFFFFFFFFFFFFF AND EQ PUSH2 0xF1D JUMPI PUSH1 0x40 MLOAD PUSH32 0x8C379A000000000000000000000000000000000000000000000000000000000 DUP2 MSTORE PUSH1 0x4 ADD PUSH2 0xF14 SWAP1 PUSH2 0x2841 JUMP JUMPDEST PUSH1 0x40 MLOAD DUP1 SWAP2 SUB SWAP1 REVERT JUMPDEST PUSH1 0x0 ISZERO ISZERO PUSH1 0xE PUSH1 0x0 SWAP1 SLOAD SWAP1 PUSH2 0x100 EXP SWAP1 DIV PUSH1 0xFF AND ISZERO ISZERO EQ PUSH2 0xF73 JUMPI PUSH1 0x40 MLOAD PUSH32 0x8C379A000000000000000000000000000000000000000000000000000000000 DUP2 MSTORE PUSH1 0x4 ADD PUSH2 0xF6A SWAP1 PUSH2 0x2881 JUMP JUMPDEST PUSH1 0x40 MLOAD DUP1 SWAP2 SUB SWAP1 REVERT JUMPDEST DUP1 PUSH1 0xE PUSH1 0x1 PUSH2 0x100 EXP DUP2 SLOAD DUP2 PUSH20 0xFFFFFFFFFFFFFFFFFFFFFFFFFFFFFFFFFFFFFFFF MUL NOT AND SWAP1 DUP4 PUSH20 0xFFFFFFFFFFFFFFFFFFFFFFFFFFFFFFFFFFFFFFFF AND MUL OR SWAP1 SSTORE POP POP JUMP JUMPDEST PUSH1 0xE PUSH1 0x1 SWAP1 SLOAD SWAP1 PUSH2 0x100 EXP SWAP1 DIV PUSH20 0xFFFFFFFFFFFFFFFFFFFFFFFFFFFFFFFFFFFFFFFF AND PUSH20 0xFFFFFFFFFFFFFFFFFFFFFFFFFFFFFFFFFFFFFFFF AND PUSH2 0xFF8 PUSH2 0x1204 JUMP JUMPDEST PUSH20 0xFFFFFFFFFFFFFFFFFFFFFFFFFFFFFFFFFFFFFFFF AND EQ PUSH2 0x104E JUMPI PUSH1 0x40 MLOAD PUSH32 0x8C379A000000000000000000000000000000000000000000000000000000000 DUP2 MSTORE PUSH1 0x4 ADD PUSH2 0x1045 SWAP1 PUSH2 0x2841 JUMP JUMPDEST PUSH1 0x40 MLOAD DUP1 SWAP2 SUB SWAP1 REVERT JUMPDEST PUSH1 0x0 ISZERO ISZERO PUSH1 0xE PUSH1 0x0 SWAP1 SLOAD SWAP1 PUSH2 0x100 EXP SWAP1 DIV PUSH1 0xFF AND ISZERO ISZERO EQ PUSH2 0x10A4 JUMPI PUSH1 0x40 MLOAD PUSH32 0x8C379A000000000000000000000000000000000000000000000000000000000 DUP2 MSTORE PUSH1 0x4 ADD PUSH2 0x109B SWAP1 PUSH2 0x2801 JUMP JUMPDEST PUSH1 0x40 MLOAD DUP1 SWAP2 SUB SWAP1 REVERT JUMPDEST PUSH1 0x1 PUSH1 0xE PUSH1 0x0 PUSH2 0x100 EXP DUP2 SLOAD DUP2 PUSH1 0xFF MUL NOT AND SWAP1 DUP4 ISZERO ISZERO MUL OR SWAP1 SSTORE POP JUMP JUMPDEST PUSH1 0xE PUSH1 0x0 SWAP1 SLOAD SWAP1 PUSH2 0x100 EXP SWAP1 DIV PUSH1 0xFF AND DUP2 JUMP JUMPDEST PUSH1 0xE PUSH1 0x1 SWAP1 SLOAD SWAP1 PUSH2 0x100 EXP SWAP1 DIV PUSH20 0xFFFFFFFFFFFFFFFFFFFFFFFFFFFFFFFFFFFFFFFF AND DUP2 JUMP JUMPDEST PUSH1 0x0 PUSH1 0xE PUSH1 0x1 SWAP1 SLOAD SWAP1 PUSH2 0x100 EXP SWAP1 DIV PUSH20 0xFFFFFFFFFFFFFFFFFFFFFFFFFFFFFFFFFFFFFFFF AND PUSH20 0xFFFFFFFFFFFFFFFFFFFFFFFFFFFFFFFFFFFFFFFF AND CALLER PUSH20 0xFFFFFFFFFFFFFFFFFFFFFFFFFFFFFFFFFFFFFFFF AND EQ ISZERO PUSH2 0x115B JUMPI PUSH1 0x1 SWAP1 POP PUSH2 0x1160 JUMP JUMPDEST PUSH1 0x0 SWAP1 POP JUMPDEST SWAP1 JUMP JUMPDEST PUSH1 0xE PUSH1 0x1 SWAP1 SLOAD SWAP1 PUSH2 0x100 EXP SWAP1 DIV PUSH20 0xFFFFFFFFFFFFFFFFFFFFFFFFFFFFFFFFFFFFFFFF AND PUSH20 0xFFFFFFFFFFFFFFFFFFFFFFFFFFFFFFFFFFFFFFFF AND PUSH2 0x11A4 PUSH2 0x1204 JUMP JUMPDEST PUSH20 0xFFFFFFFFFFFFFFFFFFFFFFFFFFFFFFFFFFFFFFFF AND EQ PUSH2 0x11FA JUMPI PUSH1 0x40 MLOAD PUSH32 0x8C379A000000000000000000000000000000000000000000000000000000000 DUP2 MSTORE PUSH1 0x4 ADD PUSH2 0x11F1 SWAP1 PUSH2 0x2841 JUMP JUMPDEST PUSH1 0x40 MLOAD DUP1 SWAP2 SUB SWAP1 REVERT JUMPDEST DUP1 PUSH1 0x5 DUP2 SWAP1 SSTORE POP POP JUMP JUMPDEST PUSH1 0x0 CALLER SWAP1 POP SWAP1 JUMP JUMPDEST PUSH1 0x0 PUSH1 0x60 PUSH1 0x0 ISZERO ISZERO PUSH1 0xE PUSH1 0x0 SWAP1 SLOAD SWAP1 PUSH2 0x100 EXP SWAP1 DIV PUSH1 0xFF AND ISZERO ISZERO EQ PUSH2 0x1266 JUMPI PUSH1 0x40 MLOAD PUSH32 0x8C379A000000000000000000000000000000000000000000000000000000000 DUP2 MSTORE PUSH1 0x4 ADD PUSH2 0x125D SWAP1 PUSH2 0x2881 JUMP JUMPDEST PUSH1 0x40 MLOAD DUP1 SWAP2 SUB SWAP1 REVERT JUMPDEST PUSH1 0x0 PUSH2 0x1270 PUSH2 0x15ED JUMP JUMPDEST SWAP1 POP PUSH1 0x0 PUSH2 0x127D DUP3 PUSH2 0x167D JUMP JUMPDEST SWAP1 POP PUSH2 0x1317 DUP6 DUP3 PUSH1 0x4 SLOAD PUSH1 0x2 DUP1 SLOAD PUSH2 0x1294 SWAP1 PUSH2 0x2C65 JUMP JUMPDEST DUP1 PUSH1 0x1F ADD PUSH1 0x20 DUP1 SWAP2 DIV MUL PUSH1 0x20 ADD PUSH1 0x40 MLOAD SWAP1 DUP2 ADD PUSH1 0x40 MSTORE DUP1 SWAP3 SWAP2 SWAP1 DUP2 DUP2 MSTORE PUSH1 0x20 ADD DUP3 DUP1 SLOAD PUSH2 0x12C0 SWAP1 PUSH2 0x2C65 JUMP JUMPDEST DUP1 ISZERO PUSH2 0x130D JUMPI DUP1 PUSH1 0x1F LT PUSH2 0x12E2 JUMPI PUSH2 0x100 DUP1 DUP4 SLOAD DIV MUL DUP4 MSTORE SWAP2 PUSH1 0x20 ADD SWAP2 PUSH2 0x130D JUMP JUMPDEST DUP3 ADD SWAP2 SWAP1 PUSH1 0x0 MSTORE PUSH1 0x20 PUSH1 0x0 KECCAK256 SWAP1 JUMPDEST DUP2 SLOAD DUP2 MSTORE SWAP1 PUSH1 0x1 ADD SWAP1 PUSH1 0x20 ADD DUP1 DUP4 GT PUSH2 0x12F0 JUMPI DUP3 SWAP1 SUB PUSH1 0x1F AND DUP3 ADD SWAP2 JUMPDEST POP POP POP POP POP PUSH2 0x1949 JUMP JUMPDEST PUSH1 0x3 PUSH1 0x0 DUP2 SLOAD DUP1 SWAP3 SWAP2 SWAP1 PUSH2 0x132A SWAP1 PUSH2 0x2CC8 JUMP JUMPDEST SWAP2 SWAP1 POP SSTORE POP PUSH1 0xC PUSH1 0x0 DUP7 PUSH20 0xFFFFFFFFFFFFFFFFFFFFFFFFFFFFFFFFFFFFFFFF AND PUSH20 0xFFFFFFFFFFFFFFFFFFFFFFFFFFFFFFFFFFFFFFFF AND DUP2 MSTORE PUSH1 0x20 ADD SWAP1 DUP2 MSTORE PUSH1 0x20 ADD PUSH1 0x0 KECCAK256 PUSH1 0x0 ADD DUP2 SWAP1 DUP1 PUSH1 0x1 DUP2 SLOAD ADD DUP1 DUP3 SSTORE DUP1 SWAP2 POP POP PUSH1 0x1 SWAP1 SUB SWAP1 PUSH1 0x0 MSTORE PUSH1 0x20 PUSH1 0x0 KECCAK256 ADD PUSH1 0x0 SWAP1 SWAP2 SWAP1 SWAP2 SWAP1 SWAP2 POP SSTORE DUP1 PUSH1 0x2 DUP1 DUP1 SLOAD PUSH2 0x13A7 SWAP1 PUSH2 0x2C65 JUMP JUMPDEST DUP1 PUSH1 0x1F ADD PUSH1 0x20 DUP1 SWAP2 DIV MUL PUSH1 0x20 ADD PUSH1 0x40 MLOAD SWAP1 DUP2 ADD PUSH1 0x40 MSTORE DUP1 SWAP3 SWAP2 SWAP1 DUP2 DUP2 MSTORE PUSH1 0x20 ADD DUP3 DUP1 SLOAD PUSH2 0x13D3 SWAP1 PUSH2 0x2C65 JUMP JUMPDEST DUP1 ISZERO PUSH2 0x1420 JUMPI DUP1 PUSH1 0x1F LT PUSH2 0x13F5 JUMPI PUSH2 0x100 DUP1 DUP4 SLOAD DIV MUL DUP4 MSTORE SWAP2 PUSH1 0x20 ADD SWAP2 PUSH2 0x1420 JUMP JUMPDEST DUP3 ADD SWAP2 SWAP1 PUSH1 0x0 MSTORE PUSH1 0x20 PUSH1 0x0 KECCAK256 SWAP1 JUMPDEST DUP2 SLOAD DUP2 MSTORE SWAP1 PUSH1 0x1 ADD SWAP1 PUSH1 0x20 ADD DUP1 DUP4 GT PUSH2 0x1403 JUMPI DUP3 SWAP1 SUB PUSH1 0x1F AND DUP3 ADD SWAP2 JUMPDEST POP POP POP POP POP SWAP1 POP SWAP4 POP SWAP4 POP POP POP SWAP2 POP SWAP2 JUMP JUMPDEST PUSH1 0x60 PUSH1 0x0 DUP3 EQ ISZERO PUSH2 0x147A JUMPI PUSH1 0x40 MLOAD DUP1 PUSH1 0x40 ADD PUSH1 0x40 MSTORE DUP1 PUSH1 0x1 DUP2 MSTORE PUSH1 0x20 ADD PUSH32 0x3000000000000000000000000000000000000000000000000000000000000000 DUP2 MSTORE POP SWAP1 POP PUSH2 0x158E JUMP JUMPDEST PUSH1 0x0 DUP3 SWAP1 POP PUSH1 0x0 JUMPDEST PUSH1 0x0 DUP3 EQ PUSH2 0x14AC JUMPI DUP1 DUP1 PUSH2 0x1495 SWAP1 PUSH2 0x2CC8 JUMP JUMPDEST SWAP2 POP POP PUSH1 0xA DUP3 PUSH2 0x14A5 SWAP2 SWAP1 PUSH2 0x2ADE JUMP JUMPDEST SWAP2 POP PUSH2 0x1482 JUMP JUMPDEST PUSH1 0x0 DUP2 PUSH8 0xFFFFFFFFFFFFFFFF DUP2 GT ISZERO PUSH2 0x14C8 JUMPI PUSH2 0x14C7 PUSH2 0x2E3E JUMP JUMPDEST JUMPDEST PUSH1 0x40 MLOAD SWAP1 DUP1 DUP3 MSTORE DUP1 PUSH1 0x1F ADD PUSH1 0x1F NOT AND PUSH1 0x20 ADD DUP3 ADD PUSH1 0x40 MSTORE DUP1 ISZERO PUSH2 0x14FA JUMPI DUP2 PUSH1 0x20 ADD PUSH1 0x1 DUP3 MUL DUP1 CALLDATASIZE DUP4 CALLDATACOPY DUP1 DUP3 ADD SWAP2 POP POP SWAP1 POP JUMPDEST POP SWAP1 POP JUMPDEST PUSH1 0x0 DUP6 EQ PUSH2 0x1587 JUMPI PUSH1 0x1 DUP3 PUSH2 0x1513 SWAP2 SWAP1 PUSH2 0x2B69 JUMP JUMPDEST SWAP2 POP PUSH1 0xA DUP6 PUSH2 0x1522 SWAP2 SWAP1 PUSH2 0x2D51 JUMP JUMPDEST PUSH1 0x30 PUSH2 0x152E SWAP2 SWAP1 PUSH2 0x2A88 JUMP JUMPDEST PUSH1 0xF8 SHL DUP2 DUP4 DUP2 MLOAD DUP2 LT PUSH2 0x1544 JUMPI PUSH2 0x1543 PUSH2 0x2E0F JUMP JUMPDEST JUMPDEST PUSH1 0x20 ADD ADD SWAP1 PUSH31 0xFFFFFFFFFFFFFFFFFFFFFFFFFFFFFFFFFFFFFFFFFFFFFFFFFFFFFFFFFFFFFF NOT AND SWAP1 DUP2 PUSH1 0x0 BYTE SWAP1 MSTORE8 POP PUSH1 0xA DUP6 PUSH2 0x1580 SWAP2 SWAP1 PUSH2 0x2ADE JUMP JUMPDEST SWAP5 POP PUSH2 0x14FE JUMP JUMPDEST DUP1 SWAP4 POP POP POP POP JUMPDEST SWAP2 SWAP1 POP JUMP JUMPDEST DUP1 PUSH1 0xD PUSH1 0x0 DUP5 PUSH20 0xFFFFFFFFFFFFFFFFFFFFFFFFFFFFFFFFFFFFFFFF AND PUSH20 0xFFFFFFFFFFFFFFFFFFFFFFFFFFFFFFFFFFFFFFFF AND DUP2 MSTORE PUSH1 0x20 ADD SWAP1 DUP2 MSTORE PUSH1 0x20 ADD PUSH1 0x0 KECCAK256 PUSH1 0x0 DUP3 DUP3 SLOAD PUSH2 0x15E2 SWAP2 SWAP1 PUSH2 0x2A88 JUMP JUMPDEST SWAP3 POP POP DUP2 SWAP1 SSTORE POP POP POP JUMP JUMPDEST PUSH1 0x0 DUP1 PUSH1 0x6 SLOAD PUSH1 0x7 SLOAD PUSH1 0x8 SLOAD PUSH1 0x3 SLOAD TIMESTAMP PUSH2 0x1607 SWAP2 SWAP1 PUSH2 0x2A88 JUMP JUMPDEST PUSH2 0x1611 SWAP2 SWAP1 PUSH2 0x2A88 JUMP JUMPDEST PUSH2 0x161B SWAP2 SWAP1 PUSH2 0x2A88 JUMP JUMPDEST PUSH2 0x1625 SWAP2 SWAP1 PUSH2 0x2A88 JUMP JUMPDEST CALLER PUSH1 0xE PUSH1 0x1 SWAP1 SLOAD SWAP1 PUSH2 0x100 EXP SWAP1 DIV PUSH20 0xFFFFFFFFFFFFFFFFFFFFFFFFFFFFFFFFFFFFFFFF AND PUSH1 0x40 MLOAD PUSH1 0x20 ADD PUSH2 0x165B SWAP4 SWAP3 SWAP2 SWAP1 PUSH2 0x260E JUMP JUMPDEST PUSH1 0x40 MLOAD PUSH1 0x20 DUP2 DUP4 SUB SUB DUP2 MSTORE SWAP1 PUSH1 0x40 MSTORE DUP1 MLOAD SWAP1 PUSH1 0x20 ADD KECCAK256 PUSH1 0x0 SHR SWAP1 POP DUP1 SWAP2 POP POP SWAP1 JUMP JUMPDEST PUSH1 0x0 DUP1 ISZERO ISZERO PUSH1 0xE PUSH1 0x0 SWAP1 SLOAD SWAP1 PUSH2 0x100 EXP SWAP1 DIV PUSH1 0xFF AND ISZERO ISZERO EQ PUSH2 0x16D4 JUMPI PUSH1 0x40 MLOAD PUSH32 0x8C379A000000000000000000000000000000000000000000000000000000000 DUP2 MSTORE PUSH1 0x4 ADD PUSH2 0x16CB SWAP1 PUSH2 0x2881 JUMP JUMPDEST PUSH1 0x40 MLOAD DUP1 SWAP2 SUB SWAP1 REVERT JUMPDEST PUSH1 0x0 PUSH1 0x1 PUSH1 0x14 DUP5 PUSH2 0x16E5 SWAP2 SWAP1 PUSH2 0x2D51 JUMP JUMPDEST EQ DUP1 ISZERO PUSH2 0x16F5 JUMPI POP PUSH1 0x9 SLOAD PUSH1 0x6 SLOAD LT JUMPDEST ISZERO PUSH2 0x175F JUMPI PUSH1 0x6 PUSH1 0x0 DUP2 SLOAD DUP1 SWAP3 SWAP2 SWAP1 PUSH2 0x170D SWAP1 PUSH2 0x2CC8 JUMP JUMPDEST SWAP2 SWAP1 POP SSTORE POP PUSH2 0x171D PUSH1 0x6 SLOAD PUSH2 0x1432 JUMP JUMPDEST PUSH1 0x40 MLOAD PUSH1 0x20 ADD PUSH2 0x172D SWAP2 SWAP1 PUSH2 0x25A8 JUMP JUMPDEST PUSH1 0x40 MLOAD PUSH1 0x20 DUP2 DUP4 SUB SUB DUP2 MSTORE SWAP1 PUSH1 0x40 MSTORE PUSH1 0x2 SWAP1 DUP1 MLOAD SWAP1 PUSH1 0x20 ADD SWAP1 PUSH2 0x1751 SWAP3 SWAP2 SWAP1 PUSH2 0x1D5B JUMP JUMPDEST POP PUSH1 0x0 SWAP1 POP DUP1 SWAP2 POP POP PUSH2 0x1944 JUMP JUMPDEST PUSH1 0x3 PUSH1 0x14 DUP5 PUSH2 0x176E SWAP2 SWAP1 PUSH2 0x2D51 JUMP JUMPDEST GT ISZERO DUP1 ISZERO PUSH2 0x177F JUMPI POP PUSH1 0xA SLOAD PUSH1 0x7 SLOAD LT JUMPDEST ISZERO PUSH2 0x17E9 JUMPI PUSH1 0x7 PUSH1 0x0 DUP2 SLOAD DUP1 SWAP3 SWAP2 SWAP1 PUSH2 0x1797 SWAP1 PUSH2 0x2CC8 JUMP JUMPDEST SWAP2 SWAP1 POP SSTORE POP PUSH2 0x17A7 PUSH1 0x7 SLOAD PUSH2 0x1432 JUMP JUMPDEST PUSH1 0x40 MLOAD PUSH1 0x20 ADD PUSH2 0x17B7 SWAP2 SWAP1 PUSH2 0x25CA JUMP JUMPDEST PUSH1 0x40 MLOAD PUSH1 0x20 DUP2 DUP4 SUB SUB DUP2 MSTORE SWAP1 PUSH1 0x40 MSTORE PUSH1 0x2 SWAP1 DUP1 MLOAD SWAP1 PUSH1 0x20 ADD SWAP1 PUSH2 0x17DB SWAP3 SWAP2 SWAP1 PUSH2 0x1D5B JUMP JUMPDEST POP PUSH1 0x1 SWAP1 POP DUP1 SWAP2 POP POP PUSH2 0x1944 JUMP JUMPDEST PUSH1 0x3 PUSH1 0x14 DUP5 PUSH2 0x17F8 SWAP2 SWAP1 PUSH2 0x2D51 JUMP JUMPDEST GT DUP1 ISZERO PUSH2 0x1808 JUMPI POP PUSH1 0xB SLOAD PUSH1 0x8 SLOAD LT JUMPDEST ISZERO PUSH2 0x1872 JUMPI PUSH1 0x8 PUSH1 0x0 DUP2 SLOAD DUP1 SWAP3 SWAP2 SWAP1 PUSH2 0x1820 SWAP1 PUSH2 0x2CC8 JUMP JUMPDEST SWAP2 SWAP1 POP SSTORE POP PUSH2 0x1830 PUSH1 0x8 SLOAD PUSH2 0x1432 JUMP JUMPDEST PUSH1 0x40 MLOAD PUSH1 0x20 ADD PUSH2 0x1840 SWAP2 SWAP1 PUSH2 0x25EC JUMP JUMPDEST PUSH1 0x40 MLOAD PUSH1 0x20 DUP2 DUP4 SUB SUB DUP2 MSTORE SWAP1 PUSH1 0x40 MSTORE PUSH1 0x2 SWAP1 DUP1 MLOAD SWAP1 PUSH1 0x20 ADD SWAP1 PUSH2 0x1864 SWAP3 SWAP2 SWAP1 PUSH2 0x1D5B JUMP JUMPDEST POP PUSH1 0x2 SWAP1 POP DUP1 SWAP2 POP POP PUSH2 0x1944 JUMP JUMPDEST PUSH1 0xA SLOAD PUSH1 0x7 SLOAD LT ISZERO PUSH2 0x18E3 JUMPI PUSH1 0x1 SWAP1 POP PUSH1 0x7 PUSH1 0x0 DUP2 SLOAD DUP1 SWAP3 SWAP2 SWAP1 PUSH2 0x1895 SWAP1 PUSH2 0x2CC8 JUMP JUMPDEST SWAP2 SWAP1 POP SSTORE POP PUSH2 0x18A5 PUSH1 0x7 SLOAD PUSH2 0x1432 JUMP JUMPDEST PUSH1 0x40 MLOAD PUSH1 0x20 ADD PUSH2 0x18B5 SWAP2 SWAP1 PUSH2 0x25CA JUMP JUMPDEST PUSH1 0x40 MLOAD PUSH1 0x20 DUP2 DUP4 SUB SUB DUP2 MSTORE SWAP1 PUSH1 0x40 MSTORE PUSH1 0x2 SWAP1 DUP1 MLOAD SWAP1 PUSH1 0x20 ADD SWAP1 PUSH2 0x18D9 SWAP3 SWAP2 SWAP1 PUSH2 0x1D5B JUMP JUMPDEST POP DUP1 SWAP2 POP POP PUSH2 0x1944 JUMP JUMPDEST PUSH1 0x0 SWAP1 POP PUSH1 0x6 PUSH1 0x0 DUP2 SLOAD DUP1 SWAP3 SWAP2 SWAP1 PUSH2 0x18FA SWAP1 PUSH2 0x2CC8 JUMP JUMPDEST SWAP2 SWAP1 POP SSTORE POP PUSH2 0x190A PUSH1 0x6 SLOAD PUSH2 0x1432 JUMP JUMPDEST PUSH1 0x40 MLOAD PUSH1 0x20 ADD PUSH2 0x191A SWAP2 SWAP1 PUSH2 0x25A8 JUMP JUMPDEST PUSH1 0x40 MLOAD PUSH1 0x20 DUP2 DUP4 SUB SUB DUP2 MSTORE SWAP1 PUSH1 0x40 MSTORE PUSH1 0x2 SWAP1 DUP1 MLOAD SWAP1 PUSH1 0x20 ADD SWAP1 PUSH2 0x193E SWAP3 SWAP2 SWAP1 PUSH2 0x1D5B JUMP JUMPDEST POP DUP1 SWAP2 POP POP JUMPDEST SWAP2 SWAP1 POP JUMP JUMPDEST PUSH1 0x0 PUSH20 0xFFFFFFFFFFFFFFFFFFFFFFFFFFFFFFFFFFFFFFFF AND DUP5 PUSH20 0xFFFFFFFFFFFFFFFFFFFFFFFFFFFFFFFFFFFFFFFF AND EQ ISZERO PUSH2 0x19B9 JUMPI PUSH1 0x40 MLOAD PUSH32 0x8C379A000000000000000000000000000000000000000000000000000000000 DUP2 MSTORE PUSH1 0x4 ADD PUSH2 0x19B0 SWAP1 PUSH2 0x28C1 JUMP JUMPDEST PUSH1 0x40 MLOAD DUP1 SWAP2 SUB SWAP1 REVERT JUMPDEST PUSH1 0x0 PUSH2 0x19C3 PUSH2 0x1204 JUMP JUMPDEST SWAP1 POP PUSH2 0x19E4 DUP2 PUSH1 0x0 DUP8 PUSH2 0x19D5 DUP9 PUSH2 0x1ADF JUMP JUMPDEST PUSH2 0x19DE DUP9 PUSH2 0x1ADF JUMP JUMPDEST DUP8 PUSH2 0x1B59 JUMP JUMPDEST DUP3 PUSH1 0x0 DUP1 DUP7 DUP2 MSTORE PUSH1 0x20 ADD SWAP1 DUP2 MSTORE PUSH1 0x20 ADD PUSH1 0x0 KECCAK256 PUSH1 0x0 DUP8 PUSH20 0xFFFFFFFFFFFFFFFFFFFFFFFFFFFFFFFFFFFFFFFF AND PUSH20 0xFFFFFFFFFFFFFFFFFFFFFFFFFFFFFFFFFFFFFFFF AND DUP2 MSTORE PUSH1 0x20 ADD SWAP1 DUP2 MSTORE PUSH1 0x20 ADD PUSH1 0x0 KECCAK256 PUSH1 0x0 DUP3 DUP3 SLOAD PUSH2 0x1A43 SWAP2 SWAP1 PUSH2 0x2A88 JUMP JUMPDEST SWAP3 POP POP DUP2 SWAP1 SSTORE POP DUP5 PUSH20 0xFFFFFFFFFFFFFFFFFFFFFFFFFFFFFFFFFFFFFFFF AND PUSH1 0x0 PUSH20 0xFFFFFFFFFFFFFFFFFFFFFFFFFFFFFFFFFFFFFFFF AND DUP3 PUSH20 0xFFFFFFFFFFFFFFFFFFFFFFFFFFFFFFFFFFFFFFFF AND PUSH32 0xC3D58168C5AE7397731D063D5BBF3D657854427343F4C083240F7AACAA2D0F62 DUP8 DUP8 PUSH1 0x40 MLOAD PUSH2 0x1AC1 SWAP3 SWAP2 SWAP1 PUSH2 0x28FC JUMP JUMPDEST PUSH1 0x40 MLOAD DUP1 SWAP2 SUB SWAP1 LOG4 PUSH2 0x1AD8 DUP2 PUSH1 0x0 DUP8 DUP8 DUP8 DUP8 PUSH2 0x1B61 JUMP JUMPDEST POP POP POP POP POP JUMP JUMPDEST PUSH1 0x60 PUSH1 0x0 PUSH1 0x1 PUSH8 0xFFFFFFFFFFFFFFFF DUP2 GT ISZERO PUSH2 0x1AFE JUMPI PUSH2 0x1AFD PUSH2 0x2E3E JUMP JUMPDEST JUMPDEST PUSH1 0x40 MLOAD SWAP1 DUP1 DUP3 MSTORE DUP1 PUSH1 0x20 MUL PUSH1 0x20 ADD DUP3 ADD PUSH1 0x40 MSTORE DUP1 ISZERO PUSH2 0x1B2C JUMPI DUP2 PUSH1 0x20 ADD PUSH1 0x20 DUP3 MUL DUP1 CALLDATASIZE DUP4 CALLDATACOPY DUP1 DUP3 ADD SWAP2 POP POP SWAP1 POP JUMPDEST POP SWAP1 POP DUP3 DUP2 PUSH1 0x0 DUP2 MLOAD DUP2 LT PUSH2 0x1B44 JUMPI PUSH2 0x1B43 PUSH2 0x2E0F JUMP JUMPDEST JUMPDEST PUSH1 0x20 MUL PUSH1 0x20 ADD ADD DUP2 DUP2 MSTORE POP POP DUP1 SWAP2 POP POP SWAP2 SWAP1 POP JUMP JUMPDEST POP POP POP POP POP POP JUMP JUMPDEST PUSH2 0x1B80 DUP5 PUSH20 0xFFFFFFFFFFFFFFFFFFFFFFFFFFFFFFFFFFFFFFFF AND PUSH2 0x1D48 JUMP JUMPDEST ISZERO PUSH2 0x1D40 JUMPI DUP4 PUSH20 0xFFFFFFFFFFFFFFFFFFFFFFFFFFFFFFFFFFFFFFFF AND PUSH4 0xAE89A248 DUP8 DUP8 DUP7 DUP7 DUP7 PUSH1 0x40 MLOAD DUP7 PUSH4 0xFFFFFFFF AND PUSH1 0xE0 SHL DUP2 MSTORE PUSH1 0x4 ADD PUSH2 0x1BC6 SWAP6 SWAP5 SWAP4 SWAP3 SWAP2 SWAP1 PUSH2 0x2666 JUMP JUMPDEST PUSH1 0x20 PUSH1 0x40 MLOAD DUP1 DUP4 SUB DUP2 PUSH1 0x0 DUP8 DUP1 EXTCODESIZE ISZERO DUP1 ISZERO PUSH2 0x1BE0 JUMPI PUSH1 0x0 DUP1 REVERT JUMPDEST POP GAS CALL SWAP3 POP POP POP DUP1 ISZERO PUSH2 0x1C11 JUMPI POP PUSH1 0x40 MLOAD RETURNDATASIZE PUSH1 0x1F NOT PUSH1 0x1F DUP3 ADD AND DUP3 ADD DUP1 PUSH1 0x40 MSTORE POP DUP2 ADD SWAP1 PUSH2 0x1C0E SWAP2 SWAP1 PUSH2 0x209A JUMP JUMPDEST PUSH1 0x1 JUMPDEST PUSH2 0x1CB7 JUMPI PUSH2 0x1C1D PUSH2 0x2E6D JUMP JUMPDEST DUP1 PUSH4 0x8C379A0 EQ ISZERO PUSH2 0x1C7A JUMPI POP PUSH2 0x1C32 PUSH2 0x31FE JUMP JUMPDEST DUP1 PUSH2 0x1C3D JUMPI POP PUSH2 0x1C7C JUMP JUMPDEST DUP1 PUSH1 0x40 MLOAD PUSH32 0x8C379A000000000000000000000000000000000000000000000000000000000 DUP2 MSTORE PUSH1 0x4 ADD PUSH2 0x1C71 SWAP2 SWAP1 PUSH2 0x271F JUMP JUMPDEST PUSH1 0x40 MLOAD DUP1 SWAP2 SUB SWAP1 REVERT JUMPDEST POP JUMPDEST PUSH1 0x40 MLOAD PUSH32 0x8C379A000000000000000000000000000000000000000000000000000000000 DUP2 MSTORE PUSH1 0x4 ADD PUSH2 0x1CAE SWAP1 PUSH2 0x2741 JUMP JUMPDEST PUSH1 0x40 MLOAD DUP1 SWAP2 SUB SWAP1 REVERT JUMPDEST PUSH4 0xAE89A248 PUSH1 0xE0 SHL PUSH28 0xFFFFFFFFFFFFFFFFFFFFFFFFFFFFFFFFFFFFFFFFFFFFFFFFFFFFFFFF NOT AND DUP2 PUSH28 0xFFFFFFFFFFFFFFFFFFFFFFFFFFFFFFFFFFFFFFFFFFFFFFFFFFFFFFFF NOT AND EQ PUSH2 0x1D3E JUMPI PUSH1 0x40 MLOAD PUSH32 0x8C379A000000000000000000000000000000000000000000000000000000000 DUP2 MSTORE PUSH1 0x4 ADD PUSH2 0x1D35 SWAP1 PUSH2 0x2761 JUMP JUMPDEST PUSH1 0x40 MLOAD DUP1 SWAP2 SUB SWAP1 REVERT JUMPDEST POP JUMPDEST POP POP POP POP POP POP JUMP JUMPDEST PUSH1 0x0 DUP1 DUP3 EXTCODESIZE SWAP1 POP PUSH1 0x0 DUP2 GT SWAP2 POP POP SWAP2 SWAP1 POP JUMP JUMPDEST DUP3 DUP1 SLOAD PUSH2 0x1D67 SWAP1 PUSH2 0x2C65 JUMP JUMPDEST SWAP1 PUSH1 0x0 MSTORE PUSH1 0x20 PUSH1 0x0 KECCAK256 SWAP1 PUSH1 0x1F ADD PUSH1 0x20 SWAP1 DIV DUP2 ADD SWAP3 DUP3 PUSH2 0x1D89 JUMPI PUSH1 0x0 DUP6 SSTORE PUSH2 0x1DD0 JUMP JUMPDEST DUP3 PUSH1 0x1F LT PUSH2 0x1DA2 JUMPI DUP1 MLOAD PUSH1 0xFF NOT AND DUP4 DUP1 ADD OR DUP6 SSTORE PUSH2 0x1DD0 JUMP JUMPDEST DUP3 DUP1 ADD PUSH1 0x1 ADD DUP6 SSTORE DUP3 ISZERO PUSH2 0x1DD0 JUMPI SWAP2 DUP3 ADD JUMPDEST DUP3 DUP2 GT ISZERO PUSH2 0x1DCF JUMPI DUP3 MLOAD DUP3 SSTORE SWAP2 PUSH1 0x20 ADD SWAP2 SWAP1 PUSH1 0x1 ADD SWAP1 PUSH2 0x1DB4 JUMP JUMPDEST JUMPDEST POP SWAP1 POP PUSH2 0x1DDD SWAP2 SWAP1 PUSH2 0x1DE1 JUMP JUMPDEST POP SWAP1 JUMP JUMPDEST JUMPDEST DUP1 DUP3 GT ISZERO PUSH2 0x1DFA JUMPI PUSH1 0x0 DUP2 PUSH1 0x0 SWAP1 SSTORE POP PUSH1 0x1 ADD PUSH2 0x1DE2 JUMP JUMPDEST POP SWAP1 JUMP JUMPDEST PUSH1 0x0 PUSH2 0x1E11 PUSH2 0x1E0C DUP5 PUSH2 0x2981 JUMP JUMPDEST PUSH2 0x295C JUMP JUMPDEST SWAP1 POP DUP1 DUP4 DUP3 MSTORE PUSH1 0x20 DUP3 ADD SWAP1 POP DUP3 DUP6 PUSH1 0x20 DUP7 MUL DUP3 ADD GT ISZERO PUSH2 0x1E34 JUMPI PUSH2 0x1E33 PUSH2 0x2E94 JUMP JUMPDEST JUMPDEST PUSH1 0x0 JUMPDEST DUP6 DUP2 LT ISZERO PUSH2 0x1E82 JUMPI DUP2 CALLDATALOAD PUSH8 0xFFFFFFFFFFFFFFFF DUP2 GT ISZERO PUSH2 0x1E5A JUMPI PUSH2 0x1E59 PUSH2 0x2E8F JUMP JUMPDEST JUMPDEST DUP1 DUP7 ADD PUSH2 0x1E67 DUP10 DUP3 PUSH2 0x1F3B JUMP JUMPDEST DUP6 MSTORE PUSH1 0x20 DUP6 ADD SWAP5 POP PUSH1 0x20 DUP5 ADD SWAP4 POP POP POP PUSH1 0x1 DUP2 ADD SWAP1 POP PUSH2 0x1E37 JUMP JUMPDEST POP POP POP SWAP4 SWAP3 POP POP POP JUMP JUMPDEST PUSH1 0x0 PUSH2 0x1E9F PUSH2 0x1E9A DUP5 PUSH2 0x29AD JUMP JUMPDEST PUSH2 0x295C JUMP JUMPDEST SWAP1 POP DUP3 DUP2 MSTORE PUSH1 0x20 DUP2 ADD DUP5 DUP5 DUP5 ADD GT ISZERO PUSH2 0x1EBB JUMPI PUSH2 0x1EBA PUSH2 0x2E99 JUMP JUMPDEST JUMPDEST PUSH2 0x1EC6 DUP5 DUP3 DUP6 PUSH2 0x2C23 JUMP JUMPDEST POP SWAP4 SWAP3 POP POP POP JUMP JUMPDEST PUSH1 0x0 DUP2 CALLDATALOAD SWAP1 POP PUSH2 0x1EDD DUP2 PUSH2 0x3294 JUMP JUMPDEST SWAP3 SWAP2 POP POP JUMP JUMPDEST PUSH1 0x0 DUP2 CALLDATALOAD SWAP1 POP PUSH2 0x1EF2 DUP2 PUSH2 0x32AB JUMP JUMPDEST SWAP3 SWAP2 POP POP JUMP JUMPDEST PUSH1 0x0 DUP3 PUSH1 0x1F DUP4 ADD SLT PUSH2 0x1F0D JUMPI PUSH2 0x1F0C PUSH2 0x2E8F JUMP JUMPDEST JUMPDEST DUP2 CALLDATALOAD PUSH2 0x1F1D DUP5 DUP3 PUSH1 0x20 DUP7 ADD PUSH2 0x1DFE JUMP JUMPDEST SWAP2 POP POP SWAP3 SWAP2 POP POP JUMP JUMPDEST PUSH1 0x0 DUP2 MLOAD SWAP1 POP PUSH2 0x1F35 DUP2 PUSH2 0x32C2 JUMP JUMPDEST SWAP3 SWAP2 POP POP JUMP JUMPDEST PUSH1 0x0 DUP3 PUSH1 0x1F DUP4 ADD SLT PUSH2 0x1F50 JUMPI PUSH2 0x1F4F PUSH2 0x2E8F JUMP JUMPDEST JUMPDEST DUP2 CALLDATALOAD PUSH2 0x1F60 DUP5 DUP3 PUSH1 0x20 DUP7 ADD PUSH2 0x1E8C JUMP JUMPDEST SWAP2 POP POP SWAP3 SWAP2 POP POP JUMP JUMPDEST PUSH1 0x0 DUP2 CALLDATALOAD SWAP1 POP PUSH2 0x1F78 DUP2 PUSH2 0x32D9 JUMP JUMPDEST SWAP3 SWAP2 POP POP JUMP JUMPDEST PUSH1 0x0 PUSH1 0x20 DUP3 DUP5 SUB SLT ISZERO PUSH2 0x1F94 JUMPI PUSH2 0x1F93 PUSH2 0x2EA3 JUMP JUMPDEST JUMPDEST PUSH1 0x0 PUSH2 0x1FA2 DUP5 DUP3 DUP6 ADD PUSH2 0x1ECE JUMP JUMPDEST SWAP2 POP POP SWAP3 SWAP2 POP POP JUMP JUMPDEST PUSH1 0x0 DUP1 PUSH1 0x40 DUP4 DUP6 SUB SLT ISZERO PUSH2 0x1FC2 JUMPI PUSH2 0x1FC1 PUSH2 0x2EA3 JUMP JUMPDEST JUMPDEST PUSH1 0x0 PUSH2 0x1FD0 DUP6 DUP3 DUP7 ADD PUSH2 0x1EE3 JUMP JUMPDEST SWAP3 POP POP PUSH1 0x20 PUSH2 0x1FE1 DUP6 DUP3 DUP7 ADD PUSH2 0x1F69 JUMP JUMPDEST SWAP2 POP POP SWAP3 POP SWAP3 SWAP1 POP JUMP JUMPDEST PUSH1 0x0 DUP1 PUSH1 0x40 DUP4 DUP6 SUB SLT ISZERO PUSH2 0x2002 JUMPI PUSH2 0x2001 PUSH2 0x2EA3 JUMP JUMPDEST JUMPDEST PUSH1 0x0 PUSH2 0x2010 DUP6 DUP3 DUP7 ADD PUSH2 0x1ECE JUMP JUMPDEST SWAP3 POP POP PUSH1 0x20 PUSH2 0x2021 DUP6 DUP3 DUP7 ADD PUSH2 0x1F69 JUMP JUMPDEST SWAP2 POP POP SWAP3 POP SWAP3 SWAP1 POP JUMP JUMPDEST PUSH1 0x0 DUP1 PUSH1 0x0 PUSH1 0x60 DUP5 DUP7 SUB SLT ISZERO PUSH2 0x2044 JUMPI PUSH2 0x2043 PUSH2 0x2EA3 JUMP JUMPDEST JUMPDEST PUSH1 0x0 PUSH2 0x2052 DUP7 DUP3 DUP8 ADD PUSH2 0x1ECE JUMP JUMPDEST SWAP4 POP POP PUSH1 0x20 PUSH2 0x2063 DUP7 DUP3 DUP8 ADD PUSH2 0x1F69 JUMP JUMPDEST SWAP3 POP POP PUSH1 0x40 DUP5 ADD CALLDATALOAD PUSH8 0xFFFFFFFFFFFFFFFF DUP2 GT ISZERO PUSH2 0x2084 JUMPI PUSH2 0x2083 PUSH2 0x2E9E JUMP JUMPDEST JUMPDEST PUSH2 0x2090 DUP7 DUP3 DUP8 ADD PUSH2 0x1EF8 JUMP JUMPDEST SWAP2 POP POP SWAP3 POP SWAP3 POP SWAP3 JUMP JUMPDEST PUSH1 0x0 PUSH1 0x20 DUP3 DUP5 SUB SLT ISZERO PUSH2 0x20B0 JUMPI PUSH2 0x20AF PUSH2 0x2EA3 JUMP JUMPDEST JUMPDEST PUSH1 0x0 PUSH2 0x20BE DUP5 DUP3 DUP6 ADD PUSH2 0x1F26 JUMP JUMPDEST SWAP2 POP POP SWAP3 SWAP2 POP POP JUMP JUMPDEST PUSH1 0x0 PUSH1 0x20 DUP3 DUP5 SUB SLT ISZERO PUSH2 0x20DD JUMPI PUSH2 0x20DC PUSH2 0x2EA3 JUMP JUMPDEST JUMPDEST PUSH1 0x0 PUSH2 0x20EB DUP5 DUP3 DUP6 ADD PUSH2 0x1F69 JUMP JUMPDEST SWAP2 POP POP SWAP3 SWAP2 POP POP JUMP JUMPDEST PUSH1 0x0 PUSH2 0x2100 DUP4 DUP4 PUSH2 0x224E JUMP JUMPDEST SWAP1 POP SWAP3 SWAP2 POP POP JUMP JUMPDEST PUSH1 0x0 PUSH2 0x2114 DUP4 DUP4 PUSH2 0x2544 JUMP JUMPDEST PUSH1 0x20 DUP4 ADD SWAP1 POP SWAP3 SWAP2 POP POP JUMP JUMPDEST PUSH2 0x2129 DUP2 PUSH2 0x2BAF JUMP JUMPDEST DUP3 MSTORE POP POP JUMP JUMPDEST PUSH2 0x2140 PUSH2 0x213B DUP3 PUSH2 0x2BAF JUMP JUMPDEST PUSH2 0x2D23 JUMP JUMPDEST DUP3 MSTORE POP POP JUMP JUMPDEST PUSH2 0x214F DUP2 PUSH2 0x2B9D JUMP JUMPDEST DUP3 MSTORE POP POP JUMP JUMPDEST PUSH2 0x2166 PUSH2 0x2161 DUP3 PUSH2 0x2B9D JUMP JUMPDEST PUSH2 0x2D11 JUMP JUMPDEST DUP3 MSTORE POP POP JUMP JUMPDEST PUSH1 0x0 PUSH2 0x2177 DUP3 PUSH2 0x29FE JUMP JUMPDEST PUSH2 0x2181 DUP2 DUP6 PUSH2 0x2A39 JUMP JUMPDEST SWAP4 POP DUP4 PUSH1 0x20 DUP3 MUL DUP6 ADD PUSH2 0x2193 DUP6 PUSH2 0x29DE JUMP JUMPDEST DUP1 PUSH1 0x0 JUMPDEST DUP6 DUP2 LT ISZERO PUSH2 0x21CF JUMPI DUP5 DUP5 SUB DUP10 MSTORE DUP2 MLOAD PUSH2 0x21B0 DUP6 DUP3 PUSH2 0x20F4 JUMP JUMPDEST SWAP5 POP PUSH2 0x21BB DUP4 PUSH2 0x2A1F JUMP JUMPDEST SWAP3 POP PUSH1 0x20 DUP11 ADD SWAP10 POP POP PUSH1 0x1 DUP2 ADD SWAP1 POP PUSH2 0x2197 JUMP JUMPDEST POP DUP3 SWAP8 POP DUP8 SWAP6 POP POP POP POP POP POP SWAP3 SWAP2 POP POP JUMP JUMPDEST PUSH1 0x0 PUSH2 0x21EC DUP3 PUSH2 0x2A09 JUMP JUMPDEST PUSH2 0x21F6 DUP2 DUP6 PUSH2 0x2A4A JUMP JUMPDEST SWAP4 POP PUSH2 0x2201 DUP4 PUSH2 0x29EE JUMP JUMPDEST DUP1 PUSH1 0x0 JUMPDEST DUP4 DUP2 LT ISZERO PUSH2 0x2232 JUMPI DUP2 MLOAD PUSH2 0x2219 DUP9 DUP3 PUSH2 0x2108 JUMP JUMPDEST SWAP8 POP PUSH2 0x2224 DUP4 PUSH2 0x2A2C JUMP JUMPDEST SWAP3 POP POP PUSH1 0x1 DUP2 ADD SWAP1 POP PUSH2 0x2205 JUMP JUMPDEST POP DUP6 SWAP4 POP POP POP POP SWAP3 SWAP2 POP POP JUMP JUMPDEST PUSH2 0x2248 DUP2 PUSH2 0x2BC1 JUMP JUMPDEST DUP3 MSTORE POP POP JUMP JUMPDEST PUSH1 0x0 PUSH2 0x2259 DUP3 PUSH2 0x2A14 JUMP JUMPDEST PUSH2 0x2263 DUP2 DUP6 PUSH2 0x2A5B JUMP JUMPDEST SWAP4 POP PUSH2 0x2273 DUP2 DUP6 PUSH1 0x20 DUP7 ADD PUSH2 0x2C32 JUMP JUMPDEST PUSH2 0x227C DUP2 PUSH2 0x2EA8 JUMP JUMPDEST DUP5 ADD SWAP2 POP POP SWAP3 SWAP2 POP POP JUMP JUMPDEST PUSH1 0x0 PUSH2 0x2292 DUP3 PUSH2 0x2A14 JUMP JUMPDEST PUSH2 0x229C DUP2 DUP6 PUSH2 0x2A6C JUMP JUMPDEST SWAP4 POP PUSH2 0x22AC DUP2 DUP6 PUSH1 0x20 DUP7 ADD PUSH2 0x2C32 JUMP JUMPDEST PUSH2 0x22B5 DUP2 PUSH2 0x2EA8 JUMP JUMPDEST DUP5 ADD SWAP2 POP POP SWAP3 SWAP2 POP POP JUMP JUMPDEST PUSH1 0x0 PUSH2 0x22CB DUP3 PUSH2 0x2A14 JUMP JUMPDEST PUSH2 0x22D5 DUP2 DUP6 PUSH2 0x2A7D JUMP JUMPDEST SWAP4 POP PUSH2 0x22E5 DUP2 DUP6 PUSH1 0x20 DUP7 ADD PUSH2 0x2C32 JUMP JUMPDEST DUP1 DUP5 ADD SWAP2 POP POP SWAP3 SWAP2 POP POP JUMP JUMPDEST PUSH1 0x0 PUSH2 0x22FE PUSH1 0x34 DUP4 PUSH2 0x2A6C JUMP JUMPDEST SWAP2 POP PUSH2 0x2309 DUP3 PUSH2 0x2ED3 JUMP JUMPDEST PUSH1 0x40 DUP3 ADD SWAP1 POP SWAP2 SWAP1 POP JUMP JUMPDEST PUSH1 0x0 PUSH2 0x2321 PUSH1 0x28 DUP4 PUSH2 0x2A6C JUMP JUMPDEST SWAP2 POP PUSH2 0x232C DUP3 PUSH2 0x2F22 JUMP JUMPDEST PUSH1 0x40 DUP3 ADD SWAP1 POP SWAP2 SWAP1 POP JUMP JUMPDEST PUSH1 0x0 PUSH2 0x2344 PUSH1 0x19 DUP4 PUSH2 0x2A6C JUMP JUMPDEST SWAP2 POP PUSH2 0x234F DUP3 PUSH2 0x2F71 JUMP JUMPDEST PUSH1 0x20 DUP3 ADD SWAP1 POP SWAP2 SWAP1 POP JUMP JUMPDEST PUSH1 0x0 PUSH2 0x2367 PUSH1 0x8 DUP4 PUSH2 0x2A7D JUMP JUMPDEST SWAP2 POP PUSH2 0x2372 DUP3 PUSH2 0x2F9A JUMP JUMPDEST PUSH1 0x8 DUP3 ADD SWAP1 POP SWAP2 SWAP1 POP JUMP JUMPDEST PUSH1 0x0 PUSH2 0x238A PUSH1 0x10 DUP4 PUSH2 0x2A6C JUMP JUMPDEST SWAP2 POP PUSH2 0x2395 DUP3 PUSH2 0x2FC3 JUMP JUMPDEST PUSH1 0x20 DUP3 ADD SWAP1 POP SWAP2 SWAP1 POP JUMP JUMPDEST PUSH1 0x0 PUSH2 0x23AD PUSH1 0x5 DUP4 PUSH2 0x2A7D JUMP JUMPDEST SWAP2 POP PUSH2 0x23B8 DUP3 PUSH2 0x2FEC JUMP JUMPDEST PUSH1 0x5 DUP3 ADD SWAP1 POP SWAP2 SWAP1 POP JUMP JUMPDEST PUSH1 0x0 PUSH2 0x23D0 PUSH1 0x12 DUP4 PUSH2 0x2A6C JUMP JUMPDEST SWAP2 POP PUSH2 0x23DB DUP3 PUSH2 0x3015 JUMP JUMPDEST PUSH1 0x20 DUP3 ADD SWAP1 POP SWAP2 SWAP1 POP JUMP JUMPDEST PUSH1 0x0 PUSH2 0x23F3 PUSH1 0x1B DUP4 PUSH2 0x2A6C JUMP JUMPDEST SWAP2 POP PUSH2 0x23FE DUP3 PUSH2 0x303E JUMP JUMPDEST PUSH1 0x20 DUP3 ADD SWAP1 POP SWAP2 SWAP1 POP JUMP JUMPDEST PUSH1 0x0 PUSH2 0x2416 PUSH1 0x1B DUP4 PUSH2 0x2A6C JUMP JUMPDEST SWAP2 POP PUSH2 0x2421 DUP3 PUSH2 0x3067 JUMP JUMPDEST PUSH1 0x20 DUP3 ADD SWAP1 POP SWAP2 SWAP1 POP JUMP JUMPDEST PUSH1 0x0 PUSH2 0x2439 PUSH1 0x15 DUP4 PUSH2 0x2A6C JUMP JUMPDEST SWAP2 POP PUSH2 0x2444 DUP3 PUSH2 0x3090 JUMP JUMPDEST PUSH1 0x20 DUP3 ADD SWAP1 POP SWAP2 SWAP1 POP JUMP JUMPDEST PUSH1 0x0 PUSH2 0x245C PUSH1 0x1C DUP4 PUSH2 0x2A6C JUMP JUMPDEST SWAP2 POP PUSH2 0x2467 DUP3 PUSH2 0x30B9 JUMP JUMPDEST PUSH1 0x20 DUP3 ADD SWAP1 POP SWAP2 SWAP1 POP JUMP JUMPDEST PUSH1 0x0 PUSH2 0x247F PUSH1 0x1F DUP4 PUSH2 0x2A6C JUMP JUMPDEST SWAP2 POP PUSH2 0x248A DUP3 PUSH2 0x30E2 JUMP JUMPDEST PUSH1 0x20 DUP3 ADD SWAP1 POP SWAP2 SWAP1 POP JUMP JUMPDEST PUSH1 0x0 PUSH2 0x24A2 PUSH1 0x1B DUP4 PUSH2 0x2A6C JUMP JUMPDEST SWAP2 POP PUSH2 0x24AD DUP3 PUSH2 0x310B JUMP JUMPDEST PUSH1 0x20 DUP3 ADD SWAP1 POP SWAP2 SWAP1 POP JUMP JUMPDEST PUSH1 0x0 PUSH2 0x24C5 PUSH1 0x19 DUP4 PUSH2 0x2A6C JUMP JUMPDEST SWAP2 POP PUSH2 0x24D0 DUP3 PUSH2 0x3134 JUMP JUMPDEST PUSH1 0x20 DUP3 ADD SWAP1 POP SWAP2 SWAP1 POP JUMP JUMPDEST PUSH1 0x0 PUSH2 0x24E8 PUSH1 0x1 DUP4 PUSH2 0x2A7D JUMP JUMPDEST SWAP2 POP PUSH2 0x24F3 DUP3 PUSH2 0x315D JUMP JUMPDEST PUSH1 0x1 DUP3 ADD SWAP1 POP SWAP2 SWAP1 POP JUMP JUMPDEST PUSH1 0x0 PUSH2 0x250B PUSH1 0x7 DUP4 PUSH2 0x2A7D JUMP JUMPDEST SWAP2 POP PUSH2 0x2516 DUP3 PUSH2 0x3186 JUMP JUMPDEST PUSH1 0x7 DUP3 ADD SWAP1 POP SWAP2 SWAP1 POP JUMP JUMPDEST PUSH1 0x0 PUSH2 0x252E PUSH1 0x21 DUP4 PUSH2 0x2A6C JUMP JUMPDEST SWAP2 POP PUSH2 0x2539 DUP3 PUSH2 0x31AF JUMP JUMPDEST PUSH1 0x40 DUP3 ADD SWAP1 POP SWAP2 SWAP1 POP JUMP JUMPDEST PUSH2 0x254D DUP2 PUSH2 0x2C19 JUMP JUMPDEST DUP3 MSTORE POP POP JUMP JUMPDEST PUSH2 0x255C DUP2 PUSH2 0x2C19 JUMP JUMPDEST DUP3 MSTORE POP POP JUMP JUMPDEST PUSH2 0x2573 PUSH2 0x256E DUP3 PUSH2 0x2C19 JUMP JUMPDEST PUSH2 0x2D47 JUMP JUMPDEST DUP3 MSTORE POP POP JUMP JUMPDEST PUSH1 0x0 PUSH2 0x2585 DUP3 DUP6 PUSH2 0x22C0 JUMP JUMPDEST SWAP2 POP PUSH2 0x2590 DUP3 PUSH2 0x24DB JUMP JUMPDEST SWAP2 POP PUSH2 0x259C DUP3 DUP5 PUSH2 0x22C0 JUMP JUMPDEST SWAP2 POP DUP2 SWAP1 POP SWAP4 SWAP3 POP POP POP JUMP JUMPDEST PUSH1 0x0 PUSH2 0x25B3 DUP3 PUSH2 0x235A JUMP JUMPDEST SWAP2 POP PUSH2 0x25BF DUP3 DUP5 PUSH2 0x22C0 JUMP JUMPDEST SWAP2 POP DUP2 SWAP1 POP SWAP3 SWAP2 POP POP JUMP JUMPDEST PUSH1 0x0 PUSH2 0x25D5 DUP3 PUSH2 0x23A0 JUMP JUMPDEST SWAP2 POP PUSH2 0x25E1 DUP3 DUP5 PUSH2 0x22C0 JUMP JUMPDEST SWAP2 POP DUP2 SWAP1 POP SWAP3 SWAP2 POP POP JUMP JUMPDEST PUSH1 0x0 PUSH2 0x25F7 DUP3 PUSH2 0x24FE JUMP JUMPDEST SWAP2 POP PUSH2 0x2603 DUP3 DUP5 PUSH2 0x22C0 JUMP JUMPDEST SWAP2 POP DUP2 SWAP1 POP SWAP3 SWAP2 POP POP JUMP JUMPDEST PUSH1 0x0 PUSH2 0x261A DUP3 DUP7 PUSH2 0x2562 JUMP JUMPDEST PUSH1 0x20 DUP3 ADD SWAP2 POP PUSH2 0x262A DUP3 DUP6 PUSH2 0x2155 JUMP JUMPDEST PUSH1 0x14 DUP3 ADD SWAP2 POP PUSH2 0x263A DUP3 DUP5 PUSH2 0x212F JUMP JUMPDEST PUSH1 0x14 DUP3 ADD SWAP2 POP DUP2 SWAP1 POP SWAP5 SWAP4 POP POP POP POP JUMP JUMPDEST PUSH1 0x0 PUSH1 0x20 DUP3 ADD SWAP1 POP PUSH2 0x2660 PUSH1 0x0 DUP4 ADD DUP5 PUSH2 0x2120 JUMP JUMPDEST SWAP3 SWAP2 POP POP JUMP JUMPDEST PUSH1 0x0 PUSH1 0xA0 DUP3 ADD SWAP1 POP PUSH2 0x267B PUSH1 0x0 DUP4 ADD DUP9 PUSH2 0x2146 JUMP JUMPDEST PUSH2 0x2688 PUSH1 0x20 DUP4 ADD DUP8 PUSH2 0x2146 JUMP JUMPDEST PUSH2 0x2695 PUSH1 0x40 DUP4 ADD DUP7 PUSH2 0x2553 JUMP JUMPDEST PUSH2 0x26A2 PUSH1 0x60 DUP4 ADD DUP6 PUSH2 0x2553 JUMP JUMPDEST DUP2 DUP2 SUB PUSH1 0x80 DUP4 ADD MSTORE PUSH2 0x26B4 DUP2 DUP5 PUSH2 0x2287 JUMP JUMPDEST SWAP1 POP SWAP7 SWAP6 POP POP POP POP POP POP JUMP JUMPDEST PUSH1 0x0 PUSH1 0x20 DUP3 ADD SWAP1 POP DUP2 DUP2 SUB PUSH1 0x0 DUP4 ADD MSTORE PUSH2 0x26DA DUP2 DUP5 PUSH2 0x216C JUMP JUMPDEST SWAP1 POP SWAP3 SWAP2 POP POP JUMP JUMPDEST PUSH1 0x0 PUSH1 0x20 DUP3 ADD SWAP1 POP DUP2 DUP2 SUB PUSH1 0x0 DUP4 ADD MSTORE PUSH2 0x26FC DUP2 DUP5 PUSH2 0x21E1 JUMP JUMPDEST SWAP1 POP SWAP3 SWAP2 POP POP JUMP JUMPDEST PUSH1 0x0 PUSH1 0x20 DUP3 ADD SWAP1 POP PUSH2 0x2719 PUSH1 0x0 DUP4 ADD DUP5 PUSH2 0x223F JUMP JUMPDEST SWAP3 SWAP2 POP POP JUMP JUMPDEST PUSH1 0x0 PUSH1 0x20 DUP3 ADD SWAP1 POP DUP2 DUP2 SUB PUSH1 0x0 DUP4 ADD MSTORE PUSH2 0x2739 DUP2 DUP5 PUSH2 0x2287 JUMP JUMPDEST SWAP1 POP SWAP3 SWAP2 POP POP JUMP JUMPDEST PUSH1 0x0 PUSH1 0x20 DUP3 ADD SWAP1 POP DUP2 DUP2 SUB PUSH1 0x0 DUP4 ADD MSTORE PUSH2 0x275A DUP2 PUSH2 0x22F1 JUMP JUMPDEST SWAP1 POP SWAP2 SWAP1 POP JUMP JUMPDEST PUSH1 0x0 PUSH1 0x20 DUP3 ADD SWAP1 POP DUP2 DUP2 SUB PUSH1 0x0 DUP4 ADD MSTORE PUSH2 0x277A DUP2 PUSH2 0x2314 JUMP JUMPDEST SWAP1 POP SWAP2 SWAP1 POP JUMP JUMPDEST PUSH1 0x0 PUSH1 0x20 DUP3 ADD SWAP1 POP DUP2 DUP2 SUB PUSH1 0x0 DUP4 ADD MSTORE PUSH2 0x279A DUP2 PUSH2 0x2337 JUMP JUMPDEST SWAP1 POP SWAP2 SWAP1 POP JUMP JUMPDEST PUSH1 0x0 PUSH1 0x20 DUP3 ADD SWAP1 POP DUP2 DUP2 SUB PUSH1 0x0 DUP4 ADD MSTORE PUSH2 0x27BA DUP2 PUSH2 0x237D JUMP JUMPDEST SWAP1 POP SWAP2 SWAP1 POP JUMP JUMPDEST PUSH1 0x0 PUSH1 0x20 DUP3 ADD SWAP1 POP DUP2 DUP2 SUB PUSH1 0x0 DUP4 ADD MSTORE PUSH2 0x27DA DUP2 PUSH2 0x23C3 JUMP JUMPDEST SWAP1 POP SWAP2 SWAP1 POP JUMP JUMPDEST PUSH1 0x0 PUSH1 0x20 DUP3 ADD SWAP1 POP DUP2 DUP2 SUB PUSH1 0x0 DUP4 ADD MSTORE PUSH2 0x27FA DUP2 PUSH2 0x23E6 JUMP JUMPDEST SWAP1 POP SWAP2 SWAP1 POP JUMP JUMPDEST PUSH1 0x0 PUSH1 0x20 DUP3 ADD SWAP1 POP DUP2 DUP2 SUB PUSH1 0x0 DUP4 ADD MSTORE PUSH2 0x281A DUP2 PUSH2 0x2409 JUMP JUMPDEST SWAP1 POP SWAP2 SWAP1 POP JUMP JUMPDEST PUSH1 0x0 PUSH1 0x20 DUP3 ADD SWAP1 POP DUP2 DUP2 SUB PUSH1 0x0 DUP4 ADD MSTORE PUSH2 0x283A DUP2 PUSH2 0x242C JUMP JUMPDEST SWAP1 POP SWAP2 SWAP1 POP JUMP JUMPDEST PUSH1 0x0 PUSH1 0x20 DUP3 ADD SWAP1 POP DUP2 DUP2 SUB PUSH1 0x0 DUP4 ADD MSTORE PUSH2 0x285A DUP2 PUSH2 0x244F JUMP JUMPDEST SWAP1 POP SWAP2 SWAP1 POP JUMP JUMPDEST PUSH1 0x0 PUSH1 0x20 DUP3 ADD SWAP1 POP DUP2 DUP2 SUB PUSH1 0x0 DUP4 ADD MSTORE PUSH2 0x287A DUP2 PUSH2 0x2472 JUMP JUMPDEST SWAP1 POP SWAP2 SWAP1 POP JUMP JUMPDEST PUSH1 0x0 PUSH1 0x20 DUP3 ADD SWAP1 POP DUP2 DUP2 SUB PUSH1 0x0 DUP4 ADD MSTORE PUSH2 0x289A DUP2 PUSH2 0x2495 JUMP JUMPDEST SWAP1 POP SWAP2 SWAP1 POP JUMP JUMPDEST PUSH1 0x0 PUSH1 0x20 DUP3 ADD SWAP1 POP DUP2 DUP2 SUB PUSH1 0x0 DUP4 ADD MSTORE PUSH2 0x28BA DUP2 PUSH2 0x24B8 JUMP JUMPDEST SWAP1 POP SWAP2 SWAP1 POP JUMP JUMPDEST PUSH1 0x0 PUSH1 0x20 DUP3 ADD SWAP1 POP DUP2 DUP2 SUB PUSH1 0x0 DUP4 ADD MSTORE PUSH2 0x28DA DUP2 PUSH2 0x2521 JUMP JUMPDEST SWAP1 POP SWAP2 SWAP1 POP JUMP JUMPDEST PUSH1 0x0 PUSH1 0x20 DUP3 ADD SWAP1 POP PUSH2 0x28F6 PUSH1 0x0 DUP4 ADD DUP5 PUSH2 0x2553 JUMP JUMPDEST SWAP3 SWAP2 POP POP JUMP JUMPDEST PUSH1 0x0 PUSH1 0x40 DUP3 ADD SWAP1 POP PUSH2 0x2911 PUSH1 0x0 DUP4 ADD DUP6 PUSH2 0x2553 JUMP JUMPDEST PUSH2 0x291E PUSH1 0x20 DUP4 ADD DUP5 PUSH2 0x2553 JUMP JUMPDEST SWAP4 SWAP3 POP POP POP JUMP JUMPDEST PUSH1 0x0 PUSH1 0x60 DUP3 ADD SWAP1 POP PUSH2 0x293A PUSH1 0x0 DUP4 ADD DUP7 PUSH2 0x2553 JUMP JUMPDEST PUSH2 0x2947 PUSH1 0x20 DUP4 ADD DUP6 PUSH2 0x2553 JUMP JUMPDEST PUSH2 0x2954 PUSH1 0x40 DUP4 ADD DUP5 PUSH2 0x2553 JUMP JUMPDEST SWAP5 SWAP4 POP POP POP POP JUMP JUMPDEST PUSH1 0x0 PUSH2 0x2966 PUSH2 0x2977 JUMP JUMPDEST SWAP1 POP PUSH2 0x2972 DUP3 DUP3 PUSH2 0x2C97 JUMP JUMPDEST SWAP2 SWAP1 POP JUMP JUMPDEST PUSH1 0x0 PUSH1 0x40 MLOAD SWAP1 POP SWAP1 JUMP JUMPDEST PUSH1 0x0 PUSH8 0xFFFFFFFFFFFFFFFF DUP3 GT ISZERO PUSH2 0x299C JUMPI PUSH2 0x299B PUSH2 0x2E3E JUMP JUMPDEST JUMPDEST PUSH1 0x20 DUP3 MUL SWAP1 POP PUSH1 0x20 DUP2 ADD SWAP1 POP SWAP2 SWAP1 POP JUMP JUMPDEST PUSH1 0x0 PUSH8 0xFFFFFFFFFFFFFFFF DUP3 GT ISZERO PUSH2 0x29C8 JUMPI PUSH2 0x29C7 PUSH2 0x2E3E JUMP JUMPDEST JUMPDEST PUSH2 0x29D1 DUP3 PUSH2 0x2EA8 JUMP JUMPDEST SWAP1 POP PUSH1 0x20 DUP2 ADD SWAP1 POP SWAP2 SWAP1 POP JUMP JUMPDEST PUSH1 0x0 DUP2 SWAP1 POP PUSH1 0x20 DUP3 ADD SWAP1 POP SWAP2 SWAP1 POP JUMP JUMPDEST PUSH1 0x0 DUP2 SWAP1 POP PUSH1 0x20 DUP3 ADD SWAP1 POP SWAP2 SWAP1 POP JUMP JUMPDEST PUSH1 0x0 DUP2 MLOAD SWAP1 POP SWAP2 SWAP1 POP JUMP JUMPDEST PUSH1 0x0 DUP2 MLOAD SWAP1 POP SWAP2 SWAP1 POP JUMP JUMPDEST PUSH1 0x0 DUP2 MLOAD SWAP1 POP SWAP2 SWAP1 POP JUMP JUMPDEST PUSH1 0x0 PUSH1 0x20 DUP3 ADD SWAP1 POP SWAP2 SWAP1 POP JUMP JUMPDEST PUSH1 0x0 PUSH1 0x20 DUP3 ADD SWAP1 POP SWAP2 SWAP1 POP JUMP JUMPDEST PUSH1 0x0 DUP3 DUP3 MSTORE PUSH1 0x20 DUP3 ADD SWAP1 POP SWAP3 SWAP2 POP POP JUMP JUMPDEST PUSH1 0x0 DUP3 DUP3 MSTORE PUSH1 0x20 DUP3 ADD SWAP1 POP SWAP3 SWAP2 POP POP JUMP JUMPDEST PUSH1 0x0 DUP3 DUP3 MSTORE PUSH1 0x20 DUP3 ADD SWAP1 POP SWAP3 SWAP2 POP POP JUMP JUMPDEST PUSH1 0x0 DUP3 DUP3 MSTORE PUSH1 0x20 DUP3 ADD SWAP1 POP SWAP3 SWAP2 POP POP JUMP JUMPDEST PUSH1 0x0 DUP2 SWAP1 POP SWAP3 SWAP2 POP POP JUMP JUMPDEST PUSH1 0x0 PUSH2 0x2A93 DUP3 PUSH2 0x2C19 JUMP JUMPDEST SWAP2 POP PUSH2 0x2A9E DUP4 PUSH2 0x2C19 JUMP JUMPDEST SWAP3 POP DUP3 PUSH32 0xFFFFFFFFFFFFFFFFFFFFFFFFFFFFFFFFFFFFFFFFFFFFFFFFFFFFFFFFFFFFFFFF SUB DUP3 GT ISZERO PUSH2 0x2AD3 JUMPI PUSH2 0x2AD2 PUSH2 0x2D82 JUMP JUMPDEST JUMPDEST DUP3 DUP3 ADD SWAP1 POP SWAP3 SWAP2 POP POP JUMP JUMPDEST PUSH1 0x0 PUSH2 0x2AE9 DUP3 PUSH2 0x2C19 JUMP JUMPDEST SWAP2 POP PUSH2 0x2AF4 DUP4 PUSH2 0x2C19 JUMP JUMPDEST SWAP3 POP DUP3 PUSH2 0x2B04 JUMPI PUSH2 0x2B03 PUSH2 0x2DB1 JUMP JUMPDEST JUMPDEST DUP3 DUP3 DIV SWAP1 POP SWAP3 SWAP2 POP POP JUMP JUMPDEST PUSH1 0x0 PUSH2 0x2B1A DUP3 PUSH2 0x2C19 JUMP JUMPDEST SWAP2 POP PUSH2 0x2B25 DUP4 PUSH2 0x2C19 JUMP JUMPDEST SWAP3 POP DUP2 PUSH32 0xFFFFFFFFFFFFFFFFFFFFFFFFFFFFFFFFFFFFFFFFFFFFFFFFFFFFFFFFFFFFFFFF DIV DUP4 GT DUP3 ISZERO ISZERO AND ISZERO PUSH2 0x2B5E JUMPI PUSH2 0x2B5D PUSH2 0x2D82 JUMP JUMPDEST JUMPDEST DUP3 DUP3 MUL SWAP1 POP SWAP3 SWAP2 POP POP JUMP JUMPDEST PUSH1 0x0 PUSH2 0x2B74 DUP3 PUSH2 0x2C19 JUMP JUMPDEST SWAP2 POP PUSH2 0x2B7F DUP4 PUSH2 0x2C19 JUMP JUMPDEST SWAP3 POP DUP3 DUP3 LT ISZERO PUSH2 0x2B92 JUMPI PUSH2 0x2B91 PUSH2 0x2D82 JUMP JUMPDEST JUMPDEST DUP3 DUP3 SUB SWAP1 POP SWAP3 SWAP2 POP POP JUMP JUMPDEST PUSH1 0x0 PUSH2 0x2BA8 DUP3 PUSH2 0x2BF9 JUMP JUMPDEST SWAP1 POP SWAP2 SWAP1 POP JUMP JUMPDEST PUSH1 0x0 PUSH2 0x2BBA DUP3 PUSH2 0x2BF9 JUMP JUMPDEST SWAP1 POP SWAP2 SWAP1 POP JUMP JUMPDEST PUSH1 0x0 DUP2 ISZERO ISZERO SWAP1 POP SWAP2 SWAP1 POP JUMP JUMPDEST PUSH1 0x0 PUSH32 0xFFFFFFFF00000000000000000000000000000000000000000000000000000000 DUP3 AND SWAP1 POP SWAP2 SWAP1 POP JUMP JUMPDEST PUSH1 0x0 PUSH20 0xFFFFFFFFFFFFFFFFFFFFFFFFFFFFFFFFFFFFFFFF DUP3 AND SWAP1 POP SWAP2 SWAP1 POP JUMP JUMPDEST PUSH1 0x0 DUP2 SWAP1 POP SWAP2 SWAP1 POP JUMP JUMPDEST DUP3 DUP2 DUP4 CALLDATACOPY PUSH1 0x0 DUP4 DUP4 ADD MSTORE POP POP POP JUMP JUMPDEST PUSH1 0x0 JUMPDEST DUP4 DUP2 LT ISZERO PUSH2 0x2C50 JUMPI DUP1 DUP3 ADD MLOAD DUP2 DUP5 ADD MSTORE PUSH1 0x20 DUP2 ADD SWAP1 POP PUSH2 0x2C35 JUMP JUMPDEST DUP4 DUP2 GT ISZERO PUSH2 0x2C5F JUMPI PUSH1 0x0 DUP5 DUP5 ADD MSTORE JUMPDEST POP POP POP POP JUMP JUMPDEST PUSH1 0x0 PUSH1 0x2 DUP3 DIV SWAP1 POP PUSH1 0x1 DUP3 AND DUP1 PUSH2 0x2C7D JUMPI PUSH1 0x7F DUP3 AND SWAP2 POP JUMPDEST PUSH1 0x20 DUP3 LT DUP2 EQ ISZERO PUSH2 0x2C91 JUMPI PUSH2 0x2C90 PUSH2 0x2DE0 JUMP JUMPDEST JUMPDEST POP SWAP2 SWAP1 POP JUMP JUMPDEST PUSH2 0x2CA0 DUP3 PUSH2 0x2EA8 JUMP JUMPDEST DUP2 ADD DUP2 DUP2 LT PUSH8 0xFFFFFFFFFFFFFFFF DUP3 GT OR ISZERO PUSH2 0x2CBF JUMPI PUSH2 0x2CBE PUSH2 0x2E3E JUMP JUMPDEST JUMPDEST DUP1 PUSH1 0x40 MSTORE POP POP POP JUMP JUMPDEST PUSH1 0x0 PUSH2 0x2CD3 DUP3 PUSH2 0x2C19 JUMP JUMPDEST SWAP2 POP PUSH32 0xFFFFFFFFFFFFFFFFFFFFFFFFFFFFFFFFFFFFFFFFFFFFFFFFFFFFFFFFFFFFFFFF DUP3 EQ ISZERO PUSH2 0x2D06 JUMPI PUSH2 0x2D05 PUSH2 0x2D82 JUMP JUMPDEST JUMPDEST PUSH1 0x1 DUP3 ADD SWAP1 POP SWAP2 SWAP1 POP JUMP JUMPDEST PUSH1 0x0 PUSH2 0x2D1C DUP3 PUSH2 0x2D35 JUMP JUMPDEST SWAP1 POP SWAP2 SWAP1 POP JUMP JUMPDEST PUSH1 0x0 PUSH2 0x2D2E DUP3 PUSH2 0x2D35 JUMP JUMPDEST SWAP1 POP SWAP2 SWAP1 POP JUMP JUMPDEST PUSH1 0x0 PUSH2 0x2D40 DUP3 PUSH2 0x2EB9 JUMP JUMPDEST SWAP1 POP SWAP2 SWAP1 POP JUMP JUMPDEST PUSH1 0x0 DUP2 SWAP1 POP SWAP2 SWAP1 POP JUMP JUMPDEST PUSH1 0x0 PUSH2 0x2D5C DUP3 PUSH2 0x2C19 JUMP JUMPDEST SWAP2 POP PUSH2 0x2D67 DUP4 PUSH2 0x2C19 JUMP JUMPDEST SWAP3 POP DUP3 PUSH2 0x2D77 JUMPI PUSH2 0x2D76 PUSH2 0x2DB1 JUMP JUMPDEST JUMPDEST DUP3 DUP3 MOD SWAP1 POP SWAP3 SWAP2 POP POP JUMP JUMPDEST PUSH32 0x4E487B7100000000000000000000000000000000000000000000000000000000 PUSH1 0x0 MSTORE PUSH1 0x11 PUSH1 0x4 MSTORE PUSH1 0x24 PUSH1 0x0 REVERT JUMPDEST PUSH32 0x4E487B7100000000000000000000000000000000000000000000000000000000 PUSH1 0x0 MSTORE PUSH1 0x12 PUSH1 0x4 MSTORE PUSH1 0x24 PUSH1 0x0 REVERT JUMPDEST PUSH32 0x4E487B7100000000000000000000000000000000000000000000000000000000 PUSH1 0x0 MSTORE PUSH1 0x22 PUSH1 0x4 MSTORE PUSH1 0x24 PUSH1 0x0 REVERT JUMPDEST PUSH32 0x4E487B7100000000000000000000000000000000000000000000000000000000 PUSH1 0x0 MSTORE PUSH1 0x32 PUSH1 0x4 MSTORE PUSH1 0x24 PUSH1 0x0 REVERT JUMPDEST PUSH32 0x4E487B7100000000000000000000000000000000000000000000000000000000 PUSH1 0x0 MSTORE PUSH1 0x41 PUSH1 0x4 MSTORE PUSH1 0x24 PUSH1 0x0 REVERT JUMPDEST PUSH1 0x0 PUSH1 0x3 RETURNDATASIZE GT ISZERO PUSH2 0x2E8C JUMPI PUSH1 0x4 PUSH1 0x0 DUP1 RETURNDATACOPY PUSH2 0x2E89 PUSH1 0x0 MLOAD PUSH2 0x2EC6 JUMP JUMPDEST SWAP1 POP JUMPDEST SWAP1 JUMP JUMPDEST PUSH1 0x0 DUP1 REVERT JUMPDEST PUSH1 0x0 DUP1 REVERT JUMPDEST PUSH1 0x0 DUP1 REVERT JUMPDEST PUSH1 0x0 DUP1 REVERT JUMPDEST PUSH1 0x0 DUP1 REVERT JUMPDEST PUSH1 0x0 PUSH1 0x1F NOT PUSH1 0x1F DUP4 ADD AND SWAP1 POP SWAP2 SWAP1 POP JUMP JUMPDEST PUSH1 0x0 DUP2 PUSH1 0x60 SHL SWAP1 POP SWAP2 SWAP1 POP JUMP JUMPDEST PUSH1 0x0 DUP2 PUSH1 0xE0 SHR SWAP1 POP SWAP2 SWAP1 POP JUMP JUMPDEST PUSH32 0x455243313135353A207472616E7366657220746F206E6F6E2045524331313535 PUSH1 0x0 DUP3 ADD MSTORE PUSH32 0x526563656976657220696D706C656D656E746572000000000000000000000000 PUSH1 0x20 DUP3 ADD MSTORE POP JUMP JUMPDEST PUSH32 0x455243313135353A204552433131353552656365697665722072656A65637465 PUSH1 0x0 DUP3 ADD MSTORE PUSH32 0x6420746F6B656E73000000000000000000000000000000000000000000000000 PUSH1 0x20 DUP3 ADD MSTORE POP JUMP JUMPDEST PUSH32 0x4572726F7221204E6F7420456E6F7567682042616C616E636500000000000000 PUSH1 0x0 DUP3 ADD MSTORE POP JUMP JUMPDEST PUSH32 0x4469616D6F6E645F000000000000000000000000000000000000000000000000 PUSH1 0x0 DUP3 ADD MSTORE POP JUMP JUMPDEST PUSH32 0x4D696E7420466565204E6F742053657400000000000000000000000000000000 PUSH1 0x0 DUP3 ADD MSTORE POP JUMP JUMPDEST PUSH32 0x476F6C645F000000000000000000000000000000000000000000000000000000 PUSH1 0x0 DUP3 ADD MSTORE POP JUMP JUMPDEST PUSH32 0x4E6F7420456E6F7567682042616C616E63650000000000000000000000000000 PUSH1 0x0 DUP3 ADD MSTORE POP JUMP JUMPDEST PUSH32 0x44726F707369746520697320616C72656164792052756E6E696E670000000000 PUSH1 0x0 DUP3 ADD MSTORE POP JUMP JUMPDEST PUSH32 0x44726F707369746520697320616C72656164792053746F707065640000000000 PUSH1 0x0 DUP3 ADD MSTORE POP JUMP JUMPDEST PUSH32 0x596F752063616E206D696E7420312D33204E4654730000000000000000000000 PUSH1 0x0 DUP3 ADD MSTORE POP JUMP JUMPDEST PUSH32 0x4F6E6C79204E46542D4553204F776E65722063616E2041636365737300000000 PUSH1 0x0 DUP3 ADD MSTORE POP JUMP JUMPDEST PUSH32 0x4F776E65722053686F756C6420736574206D696E742046656520466972737400 PUSH1 0x0 DUP3 ADD MSTORE POP JUMP JUMPDEST PUSH32 0x44726F7073697465206973206E6F74204F70656E6564205965742E0000000000 PUSH1 0x0 DUP3 ADD MSTORE POP JUMP JUMPDEST PUSH32 0x4D6178204D696E74696E67204C696D6974207265616368656400000000000000 PUSH1 0x0 DUP3 ADD MSTORE POP JUMP JUMPDEST PUSH32 0x5F00000000000000000000000000000000000000000000000000000000000000 PUSH1 0x0 DUP3 ADD MSTORE POP JUMP JUMPDEST PUSH32 0x53696C7665725F00000000000000000000000000000000000000000000000000 PUSH1 0x0 DUP3 ADD MSTORE POP JUMP JUMPDEST PUSH32 0x455243313135353A206D696E7420746F20746865207A65726F20616464726573 PUSH1 0x0 DUP3 ADD MSTORE PUSH32 0x7300000000000000000000000000000000000000000000000000000000000000 PUSH1 0x20 DUP3 ADD MSTORE POP JUMP JUMPDEST PUSH1 0x0 PUSH1 0x44 RETURNDATASIZE LT ISZERO PUSH2 0x320E JUMPI PUSH2 0x3291 JUMP JUMPDEST PUSH2 0x3216 PUSH2 0x2977 JUMP JUMPDEST PUSH1 0x4 RETURNDATASIZE SUB PUSH1 0x4 DUP3 RETURNDATACOPY DUP1 MLOAD RETURNDATASIZE PUSH1 0x24 DUP3 ADD GT PUSH8 0xFFFFFFFFFFFFFFFF DUP3 GT OR ISZERO PUSH2 0x323E JUMPI POP POP PUSH2 0x3291 JUMP JUMPDEST DUP1 DUP3 ADD DUP1 MLOAD PUSH8 0xFFFFFFFFFFFFFFFF DUP2 GT ISZERO PUSH2 0x325C JUMPI POP POP POP POP PUSH2 0x3291 JUMP JUMPDEST DUP1 PUSH1 0x20 DUP4 ADD ADD PUSH1 0x4 RETURNDATASIZE SUB DUP6 ADD DUP2 GT ISZERO PUSH2 0x3279 JUMPI POP POP POP POP POP PUSH2 0x3291 JUMP JUMPDEST PUSH2 0x3288 DUP3 PUSH1 0x20 ADD DUP6 ADD DUP7 PUSH2 0x2C97 JUMP JUMPDEST DUP3 SWAP6 POP POP POP POP POP POP JUMPDEST SWAP1 JUMP JUMPDEST PUSH2 0x329D DUP2 PUSH2 0x2B9D JUMP JUMPDEST DUP2 EQ PUSH2 0x32A8 JUMPI PUSH1 0x0 DUP1 REVERT JUMPDEST POP JUMP JUMPDEST PUSH2 0x32B4 DUP2 PUSH2 0x2BAF JUMP JUMPDEST DUP2 EQ PUSH2 0x32BF JUMPI PUSH1 0x0 DUP1 REVERT JUMPDEST POP JUMP JUMPDEST PUSH2 0x32CB DUP2 PUSH2 0x2BCD JUMP JUMPDEST DUP2 EQ PUSH2 0x32D6 JUMPI PUSH1 0x0 DUP1 REVERT JUMPDEST POP JUMP JUMPDEST PUSH2 0x32E2 DUP2 PUSH2 0x2C19 JUMP JUMPDEST DUP2 EQ PUSH2 0x32ED JUMPI PUSH1 0x0 DUP1 REVERT JUMPDEST POP JUMP INVALID LOG2 PUSH5 0x6970667358 0x22 SLT KECCAK256 0xDB 0xCC DUP6 0x2E 0xB0 SWAP5 PUSH32 0x223777DFF1816C13F7133ABC69D2A62C97D98D4480F2EE09A064736F6C634300 ADDMOD SMOD STOP CALLER "
				},
				"gasEstimates": {
					"creation": {
						"codeDepositCost": "2618800",
						"executionCost": "infinite",
						"totalCost": "infinite"
					},
					"external": {
						"Owner()": "2608",
						"changeOwner(address)": "29265",
						"checkMintedCategoryWise()": "infinite",
						"checkTotalMinted()": "2461",
						"contractBalance()": "2714",
						"cryptoRandomMint(address,uint256,string[])": "infinite",
						"fiatRandomMint(address,uint256)": "infinite",
						"getMintFee()": "2526",
						"isAdmin()": "2643",
						"isPaused()": "2493",
						"openDropsite()": "28883",
						"returnNftsOwner(address)": "infinite",
						"setMintFee(uint256)": "24863",
						"stopDropsite()": "28926",
						"withDraw(address,uint256)": "infinite"
					},
					"internal": {
						"checkTokenURIs(uint256)": "infinite",
						"depositAmount(address,uint256)": "infinite",
						"random()": "infinite",
						"randomMinting(address)": "infinite",
						"updateConditions(uint256)": "infinite"
					}
				},
				"methodIdentifiers": {
					"Owner()": "b4a99a4e",
					"changeOwner(address)": "a6f9dae1",
					"checkMintedCategoryWise()": "60daa851",
					"checkTotalMinted()": "0390c11c",
					"contractBalance()": "8b7afe2e",
					"cryptoRandomMint(address,uint256,string[])": "8c089ec9",
					"fiatRandomMint(address,uint256)": "5e1f0556",
					"getMintFee()": "7a5caab3",
					"isAdmin()": "b6db75a0",
					"isPaused()": "b187bd26",
					"openDropsite()": "15460259",
					"returnNftsOwner(address)": "225011da",
					"setMintFee(uint256)": "eddd0d9c",
					"stopDropsite()": "aa90c726",
					"withDraw(address,uint256)": "191e2e83"
				}
			},
			"storageLayout": {
				"storage": [
					{
						"astId": 611,
						"contract": "NFTES_Drop_flat.sol:NFTES_Drop",
						"label": "_balances",
						"offset": 0,
						"slot": "0",
						"type": "t_mapping(t_uint256,t_mapping(t_address,t_uint256))"
					},
					{
						"astId": 617,
						"contract": "NFTES_Drop_flat.sol:NFTES_Drop",
						"label": "_operatorApprovals",
						"offset": 0,
						"slot": "1",
						"type": "t_mapping(t_address,t_mapping(t_address,t_bool))"
					},
					{
						"astId": 807,
						"contract": "NFTES_Drop_flat.sol:NFTES_Drop",
						"label": "data",
						"offset": 0,
						"slot": "2",
						"type": "t_string_storage"
					},
					{
						"astId": 809,
						"contract": "NFTES_Drop_flat.sol:NFTES_Drop",
						"label": "totalNFTsMinted",
						"offset": 0,
						"slot": "3",
						"type": "t_uint256"
					},
					{
						"astId": 811,
						"contract": "NFTES_Drop_flat.sol:NFTES_Drop",
						"label": "numOfCopies",
						"offset": 0,
						"slot": "4",
						"type": "t_uint256"
					},
					{
						"astId": 813,
						"contract": "NFTES_Drop_flat.sol:NFTES_Drop",
						"label": "mintFees",
						"offset": 0,
						"slot": "5",
						"type": "t_uint256"
					},
					{
						"astId": 815,
						"contract": "NFTES_Drop_flat.sol:NFTES_Drop",
						"label": "Diamond",
						"offset": 0,
						"slot": "6",
						"type": "t_uint256"
					},
					{
						"astId": 817,
						"contract": "NFTES_Drop_flat.sol:NFTES_Drop",
						"label": "Gold",
						"offset": 0,
						"slot": "7",
						"type": "t_uint256"
					},
					{
						"astId": 819,
						"contract": "NFTES_Drop_flat.sol:NFTES_Drop",
						"label": "Silver",
						"offset": 0,
						"slot": "8",
						"type": "t_uint256"
					},
					{
						"astId": 822,
						"contract": "NFTES_Drop_flat.sol:NFTES_Drop",
						"label": "maxDiamondCount",
						"offset": 0,
						"slot": "9",
						"type": "t_uint256"
					},
					{
						"astId": 825,
						"contract": "NFTES_Drop_flat.sol:NFTES_Drop",
						"label": "maxGoldCount",
						"offset": 0,
						"slot": "10",
						"type": "t_uint256"
					},
					{
						"astId": 828,
						"contract": "NFTES_Drop_flat.sol:NFTES_Drop",
						"label": "maxSilverCount",
						"offset": 0,
						"slot": "11",
						"type": "t_uint256"
					},
					{
						"astId": 844,
						"contract": "NFTES_Drop_flat.sol:NFTES_Drop",
						"label": "dropsite_NFT_Owner",
						"offset": 0,
						"slot": "12",
						"type": "t_mapping(t_address,t_struct(nft_Owner)839_storage)"
					},
					{
						"astId": 848,
						"contract": "NFTES_Drop_flat.sol:NFTES_Drop",
						"label": "deposits",
						"offset": 0,
						"slot": "13",
						"type": "t_mapping(t_address,t_uint256)"
					},
					{
						"astId": 885,
						"contract": "NFTES_Drop_flat.sol:NFTES_Drop",
						"label": "isPaused",
						"offset": 0,
						"slot": "14",
						"type": "t_bool"
					},
					{
						"astId": 887,
						"contract": "NFTES_Drop_flat.sol:NFTES_Drop",
						"label": "Owner",
						"offset": 1,
						"slot": "14",
						"type": "t_address_payable"
					},
					{
						"astId": 889,
						"contract": "NFTES_Drop_flat.sol:NFTES_Drop",
						"label": "_name",
						"offset": 0,
						"slot": "15",
						"type": "t_string_storage"
					}
				],
				"types": {
					"t_address": {
						"encoding": "inplace",
						"label": "address",
						"numberOfBytes": "20"
					},
					"t_address_payable": {
						"encoding": "inplace",
						"label": "address payable",
						"numberOfBytes": "20"
					},
					"t_array(t_uint256)dyn_storage": {
						"base": "t_uint256",
						"encoding": "dynamic_array",
						"label": "uint256[]",
						"numberOfBytes": "32"
					},
					"t_bool": {
						"encoding": "inplace",
						"label": "bool",
						"numberOfBytes": "1"
					},
					"t_mapping(t_address,t_bool)": {
						"encoding": "mapping",
						"key": "t_address",
						"label": "mapping(address => bool)",
						"numberOfBytes": "32",
						"value": "t_bool"
					},
					"t_mapping(t_address,t_mapping(t_address,t_bool))": {
						"encoding": "mapping",
						"key": "t_address",
						"label": "mapping(address => mapping(address => bool))",
						"numberOfBytes": "32",
						"value": "t_mapping(t_address,t_bool)"
					},
					"t_mapping(t_address,t_struct(nft_Owner)839_storage)": {
						"encoding": "mapping",
						"key": "t_address",
						"label": "mapping(address => struct NFTES_Drop.nft_Owner)",
						"numberOfBytes": "32",
						"value": "t_struct(nft_Owner)839_storage"
					},
					"t_mapping(t_address,t_uint256)": {
						"encoding": "mapping",
						"key": "t_address",
						"label": "mapping(address => uint256)",
						"numberOfBytes": "32",
						"value": "t_uint256"
					},
					"t_mapping(t_uint256,t_mapping(t_address,t_uint256))": {
						"encoding": "mapping",
						"key": "t_uint256",
						"label": "mapping(uint256 => mapping(address => uint256))",
						"numberOfBytes": "32",
						"value": "t_mapping(t_address,t_uint256)"
					},
					"t_string_storage": {
						"encoding": "bytes",
						"label": "string",
						"numberOfBytes": "32"
					},
					"t_struct(nft_Owner)839_storage": {
						"encoding": "inplace",
						"label": "struct NFTES_Drop.nft_Owner",
						"members": [
							{
								"astId": 838,
								"contract": "NFTES_Drop_flat.sol:NFTES_Drop",
								"label": "owned_Dropsite_NFTs",
								"offset": 0,
								"slot": "0",
								"type": "t_array(t_uint256)dyn_storage"
							}
						],
						"numberOfBytes": "32"
					},
					"t_uint256": {
						"encoding": "inplace",
						"label": "uint256",
						"numberOfBytes": "32"
					}
				}
			},
			"userdoc": {
				"kind": "user",
				"methods": {},
				"version": 1
			}
		}
	}
}