{
	"RandomTest.sol": {
		"RandomTest": {
			"abi": [
				{
					"inputs": [
						{
							"internalType": "uint256",
							"name": "x",
							"type": "uint256"
						},
						{
							"internalType": "uint256",
							"name": "y",
							"type": "uint256"
						},
						{
							"internalType": "uint256",
							"name": "z",
							"type": "uint256"
						},
						{
							"internalType": "uint256",
							"name": "px",
							"type": "uint256"
						},
						{
							"internalType": "uint256",
							"name": "py",
							"type": "uint256"
						},
						{
							"internalType": "uint256",
							"name": "pz",
							"type": "uint256"
						}
					],
					"name": "randomTest",
					"outputs": [
						{
							"internalType": "uint256",
							"name": "",
							"type": "uint256"
						}
					],
					"stateMutability": "view",
					"type": "function"
				}
			],
			"devdoc": {
				"kind": "dev",
				"methods": {},
				"version": 1
			},
			"evm": {
				"assembly": "    /* \"RandomTest.sol\":54:958  contract RandomTest{... */\n  mstore(0x40, 0x80)\n  callvalue\n  dup1\n  iszero\n  tag_1\n  jumpi\n  0x00\n  dup1\n  revert\ntag_1:\n  pop\n  dataSize(sub_0)\n  dup1\n  dataOffset(sub_0)\n  0x00\n  codecopy\n  0x00\n  return\nstop\n\nsub_0: assembly {\n        /* \"RandomTest.sol\":54:958  contract RandomTest{... */\n      mstore(0x40, 0x80)\n      callvalue\n      dup1\n      iszero\n      tag_1\n      jumpi\n      0x00\n      dup1\n      revert\n    tag_1:\n      pop\n      jumpi(tag_2, lt(calldatasize, 0x04))\n      shr(0xe0, calldataload(0x00))\n      dup1\n      0x262233ea\n      eq\n      tag_3\n      jumpi\n    tag_2:\n      0x00\n      dup1\n      revert\n        /* \"RandomTest.sol\":79:749  function randomTest(uint x, uint y, uint z, uint px, uint py, uint pz) public view returns (uint)... */\n    tag_3:\n      tag_4\n      0x04\n      dup1\n      calldatasize\n      sub\n      dup2\n      add\n      swap1\n      tag_5\n      swap2\n      swap1\n      tag_6\n      jump\t// in\n    tag_5:\n      tag_7\n      jump\t// in\n    tag_4:\n      mload(0x40)\n      tag_8\n      swap2\n      swap1\n      tag_9\n      jump\t// in\n    tag_8:\n      mload(0x40)\n      dup1\n      swap2\n      sub\n      swap1\n      return\n    tag_7:\n        /* \"RandomTest.sol\":171:175  uint */\n      0x00\n        /* \"RandomTest.sol\":248:254  uint r */\n      dup1\n        /* \"RandomTest.sol\":257:265  random() */\n      tag_11\n        /* \"RandomTest.sol\":257:263  random */\n      tag_12\n        /* \"RandomTest.sol\":257:265  random() */\n      jump\t// in\n    tag_11:\n        /* \"RandomTest.sol\":248:265  uint r = random() */\n      swap1\n      pop\n        /* \"RandomTest.sol\":357:359  px */\n      dup5\n        /* \"RandomTest.sol\":352:353  r */\n      dup2\n        /* \"RandomTest.sol\":352:359  r <= px */\n      gt\n        /* \"RandomTest.sol\":348:385  if (r <= px)... */\n      tag_13\n      jumpi\n        /* \"RandomTest.sol\":384:385  x */\n      dup8\n        /* \"RandomTest.sol\":377:385  return x */\n      swap2\n      pop\n      pop\n      jump(tag_10)\n        /* \"RandomTest.sol\":348:385  if (r <= px)... */\n    tag_13:\n        /* \"RandomTest.sol\":531:533  10 */\n      0x0a\n        /* \"RandomTest.sol\":527:529  py */\n      dup5\n        /* \"RandomTest.sol\":524:526  px */\n      dup7\n        /* \"RandomTest.sol\":524:529  px+py */\n      tag_14\n      swap2\n      swap1\n      tag_15\n      jump\t// in\n    tag_14:\n        /* \"RandomTest.sol\":523:533  (px+py)/10 */\n      tag_16\n      swap2\n      swap1\n      tag_17\n      jump\t// in\n    tag_16:\n        /* \"RandomTest.sol\":518:519  r */\n      dup2\n        /* \"RandomTest.sol\":518:533  r <= (px+py)/10 */\n      gt\n        /* \"RandomTest.sol\":514:742  if (r <= (px+py)/10)... */\n      tag_18\n      jumpi\n        /* \"RandomTest.sol\":558:559  y */\n      dup7\n        /* \"RandomTest.sol\":551:559  return y */\n      swap2\n      pop\n      pop\n      jump(tag_10)\n        /* \"RandomTest.sol\":514:742  if (r <= (px+py)/10)... */\n    tag_18:\n        /* \"RandomTest.sol\":713:716  100 */\n      0x64\n        /* \"RandomTest.sol\":709:711  pz */\n      dup4\n        /* \"RandomTest.sol\":706:708  py */\n      dup6\n        /* \"RandomTest.sol\":703:705  px */\n      dup8\n        /* \"RandomTest.sol\":703:708  px+py */\n      tag_20\n      swap2\n      swap1\n      tag_15\n      jump\t// in\n    tag_20:\n        /* \"RandomTest.sol\":703:711  px+py+pz */\n      tag_21\n      swap2\n      swap1\n      tag_15\n      jump\t// in\n    tag_21:\n        /* \"RandomTest.sol\":702:716  (px+py+pz)/100 */\n      tag_22\n      swap2\n      swap1\n      tag_17\n      jump\t// in\n    tag_22:\n        /* \"RandomTest.sol\":697:698  r */\n      dup2\n        /* \"RandomTest.sol\":697:716  r <= (px+py+pz)/100 */\n      gt\n        /* \"RandomTest.sol\":694:742  if(r <= (px+py+pz)/100)... */\n      tag_23\n      jumpi\n        /* \"RandomTest.sol\":741:742  z */\n      dup6\n        /* \"RandomTest.sol\":734:742  return z */\n      swap2\n      pop\n      pop\n      jump(tag_10)\n        /* \"RandomTest.sol\":694:742  if(r <= (px+py+pz)/100)... */\n    tag_23:\n        /* \"RandomTest.sol\":181:749  {      ... */\n      pop\n        /* \"RandomTest.sol\":79:749  function randomTest(uint x, uint y, uint z, uint px, uint py, uint pz) public view returns (uint)... */\n    tag_10:\n      swap7\n      swap6\n      pop\n      pop\n      pop\n      pop\n      pop\n      pop\n      jump\t// out\n        /* \"RandomTest.sol\":755:955  function random() internal view returns (uint) {... */\n    tag_12:\n        /* \"RandomTest.sol\":796:800  uint */\n      0x00\n        /* \"RandomTest.sol\":837:854  uint randomnumber */\n      dup1\n        /* \"RandomTest.sol\":922:923  3 */\n      0x03\n        /* \"RandomTest.sol\":889:904  block.timestamp */\n      timestamp\n        /* \"RandomTest.sol\":906:916  msg.sender */\n      caller\n        /* \"RandomTest.sol\":872:917  abi.encodePacked(block.timestamp, msg.sender) */\n      add(0x20, mload(0x40))\n      tag_25\n      swap3\n      swap2\n      swap1\n      tag_26\n      jump\t// in\n    tag_25:\n      mload(0x40)\n      0x20\n      dup2\n      dup4\n      sub\n      sub\n      dup2\n      mstore\n      swap1\n      0x40\n      mstore\n        /* \"RandomTest.sol\":862:918  keccak256(abi.encodePacked(block.timestamp, msg.sender)) */\n      dup1\n      mload\n      swap1\n      0x20\n      add\n      keccak256\n        /* \"RandomTest.sol\":857:919  uint(keccak256(abi.encodePacked(block.timestamp, msg.sender))) */\n      0x00\n      shr\n        /* \"RandomTest.sol\":857:923  uint(keccak256(abi.encodePacked(block.timestamp, msg.sender))) % 3 */\n      tag_27\n      swap2\n      swap1\n      tag_28\n      jump\t// in\n    tag_27:\n        /* \"RandomTest.sol\":837:923  uint randomnumber = uint(keccak256(abi.encodePacked(block.timestamp, msg.sender))) % 3 */\n      swap1\n      pop\n        /* \"RandomTest.sol\":936:948  randomnumber */\n      dup1\n        /* \"RandomTest.sol\":929:948  return randomnumber */\n      swap2\n      pop\n      pop\n        /* \"RandomTest.sol\":755:955  function random() internal view returns (uint) {... */\n      swap1\n      jump\t// out\n        /* \"#utility.yul\":7:146   */\n    tag_30:\n        /* \"#utility.yul\":53:58   */\n      0x00\n        /* \"#utility.yul\":91:97   */\n      dup2\n        /* \"#utility.yul\":78:98   */\n      calldataload\n        /* \"#utility.yul\":69:98   */\n      swap1\n      pop\n        /* \"#utility.yul\":107:140   */\n      tag_32\n        /* \"#utility.yul\":134:139   */\n      dup2\n        /* \"#utility.yul\":107:140   */\n      tag_33\n      jump\t// in\n    tag_32:\n        /* \"#utility.yul\":7:146   */\n      swap3\n      swap2\n      pop\n      pop\n      jump\t// out\n        /* \"#utility.yul\":152:1209   */\n    tag_6:\n        /* \"#utility.yul\":256:262   */\n      0x00\n        /* \"#utility.yul\":264:270   */\n      dup1\n        /* \"#utility.yul\":272:278   */\n      0x00\n        /* \"#utility.yul\":280:286   */\n      dup1\n        /* \"#utility.yul\":288:294   */\n      0x00\n        /* \"#utility.yul\":296:302   */\n      dup1\n        /* \"#utility.yul\":345:348   */\n      0xc0\n        /* \"#utility.yul\":333:342   */\n      dup8\n        /* \"#utility.yul\":324:331   */\n      dup10\n        /* \"#utility.yul\":320:343   */\n      sub\n        /* \"#utility.yul\":316:349   */\n      slt\n        /* \"#utility.yul\":313:433   */\n      iszero\n      tag_35\n      jumpi\n        /* \"#utility.yul\":352:431   */\n      tag_36\n      tag_37\n      jump\t// in\n    tag_36:\n        /* \"#utility.yul\":313:433   */\n    tag_35:\n        /* \"#utility.yul\":472:473   */\n      0x00\n        /* \"#utility.yul\":497:550   */\n      tag_38\n        /* \"#utility.yul\":542:549   */\n      dup10\n        /* \"#utility.yul\":533:539   */\n      dup3\n        /* \"#utility.yul\":522:531   */\n      dup11\n        /* \"#utility.yul\":518:540   */\n      add\n        /* \"#utility.yul\":497:550   */\n      tag_30\n      jump\t// in\n    tag_38:\n        /* \"#utility.yul\":487:550   */\n      swap7\n      pop\n        /* \"#utility.yul\":443:560   */\n      pop\n        /* \"#utility.yul\":599:601   */\n      0x20\n        /* \"#utility.yul\":625:678   */\n      tag_39\n        /* \"#utility.yul\":670:677   */\n      dup10\n        /* \"#utility.yul\":661:667   */\n      dup3\n        /* \"#utility.yul\":650:659   */\n      dup11\n        /* \"#utility.yul\":646:668   */\n      add\n        /* \"#utility.yul\":625:678   */\n      tag_30\n      jump\t// in\n    tag_39:\n        /* \"#utility.yul\":615:678   */\n      swap6\n      pop\n        /* \"#utility.yul\":570:688   */\n      pop\n        /* \"#utility.yul\":727:729   */\n      0x40\n        /* \"#utility.yul\":753:806   */\n      tag_40\n        /* \"#utility.yul\":798:805   */\n      dup10\n        /* \"#utility.yul\":789:795   */\n      dup3\n        /* \"#utility.yul\":778:787   */\n      dup11\n        /* \"#utility.yul\":774:796   */\n      add\n        /* \"#utility.yul\":753:806   */\n      tag_30\n      jump\t// in\n    tag_40:\n        /* \"#utility.yul\":743:806   */\n      swap5\n      pop\n        /* \"#utility.yul\":698:816   */\n      pop\n        /* \"#utility.yul\":855:857   */\n      0x60\n        /* \"#utility.yul\":881:934   */\n      tag_41\n        /* \"#utility.yul\":926:933   */\n      dup10\n        /* \"#utility.yul\":917:923   */\n      dup3\n        /* \"#utility.yul\":906:915   */\n      dup11\n        /* \"#utility.yul\":902:924   */\n      add\n        /* \"#utility.yul\":881:934   */\n      tag_30\n      jump\t// in\n    tag_41:\n        /* \"#utility.yul\":871:934   */\n      swap4\n      pop\n        /* \"#utility.yul\":826:944   */\n      pop\n        /* \"#utility.yul\":983:986   */\n      0x80\n        /* \"#utility.yul\":1010:1063   */\n      tag_42\n        /* \"#utility.yul\":1055:1062   */\n      dup10\n        /* \"#utility.yul\":1046:1052   */\n      dup3\n        /* \"#utility.yul\":1035:1044   */\n      dup11\n        /* \"#utility.yul\":1031:1053   */\n      add\n        /* \"#utility.yul\":1010:1063   */\n      tag_30\n      jump\t// in\n    tag_42:\n        /* \"#utility.yul\":1000:1063   */\n      swap3\n      pop\n        /* \"#utility.yul\":954:1073   */\n      pop\n        /* \"#utility.yul\":1112:1115   */\n      0xa0\n        /* \"#utility.yul\":1139:1192   */\n      tag_43\n        /* \"#utility.yul\":1184:1191   */\n      dup10\n        /* \"#utility.yul\":1175:1181   */\n      dup3\n        /* \"#utility.yul\":1164:1173   */\n      dup11\n        /* \"#utility.yul\":1160:1182   */\n      add\n        /* \"#utility.yul\":1139:1192   */\n      tag_30\n      jump\t// in\n    tag_43:\n        /* \"#utility.yul\":1129:1192   */\n      swap2\n      pop\n        /* \"#utility.yul\":1083:1202   */\n      pop\n        /* \"#utility.yul\":152:1209   */\n      swap3\n      swap6\n      pop\n      swap3\n      swap6\n      pop\n      swap3\n      swap6\n      jump\t// out\n        /* \"#utility.yul\":1215:1372   */\n    tag_44:\n        /* \"#utility.yul\":1320:1365   */\n      tag_46\n        /* \"#utility.yul\":1340:1364   */\n      tag_47\n        /* \"#utility.yul\":1358:1363   */\n      dup3\n        /* \"#utility.yul\":1340:1364   */\n      tag_48\n      jump\t// in\n    tag_47:\n        /* \"#utility.yul\":1320:1365   */\n      tag_49\n      jump\t// in\n    tag_46:\n        /* \"#utility.yul\":1315:1318   */\n      dup3\n        /* \"#utility.yul\":1308:1366   */\n      mstore\n        /* \"#utility.yul\":1215:1372   */\n      pop\n      pop\n      jump\t// out\n        /* \"#utility.yul\":1378:1496   */\n    tag_50:\n        /* \"#utility.yul\":1465:1489   */\n      tag_52\n        /* \"#utility.yul\":1483:1488   */\n      dup2\n        /* \"#utility.yul\":1465:1489   */\n      tag_53\n      jump\t// in\n    tag_52:\n        /* \"#utility.yul\":1460:1463   */\n      dup3\n        /* \"#utility.yul\":1453:1490   */\n      mstore\n        /* \"#utility.yul\":1378:1496   */\n      pop\n      pop\n      jump\t// out\n        /* \"#utility.yul\":1502:1659   */\n    tag_54:\n        /* \"#utility.yul\":1607:1652   */\n      tag_56\n        /* \"#utility.yul\":1627:1651   */\n      tag_57\n        /* \"#utility.yul\":1645:1650   */\n      dup3\n        /* \"#utility.yul\":1627:1651   */\n      tag_53\n      jump\t// in\n    tag_57:\n        /* \"#utility.yul\":1607:1652   */\n      tag_58\n      jump\t// in\n    tag_56:\n        /* \"#utility.yul\":1602:1605   */\n      dup3\n        /* \"#utility.yul\":1595:1653   */\n      mstore\n        /* \"#utility.yul\":1502:1659   */\n      pop\n      pop\n      jump\t// out\n        /* \"#utility.yul\":1665:2062   */\n    tag_26:\n        /* \"#utility.yul\":1805:1808   */\n      0x00\n        /* \"#utility.yul\":1820:1895   */\n      tag_60\n        /* \"#utility.yul\":1891:1894   */\n      dup3\n        /* \"#utility.yul\":1882:1888   */\n      dup6\n        /* \"#utility.yul\":1820:1895   */\n      tag_54\n      jump\t// in\n    tag_60:\n        /* \"#utility.yul\":1920:1922   */\n      0x20\n        /* \"#utility.yul\":1915:1918   */\n      dup3\n        /* \"#utility.yul\":1911:1923   */\n      add\n        /* \"#utility.yul\":1904:1923   */\n      swap2\n      pop\n        /* \"#utility.yul\":1933:2008   */\n      tag_61\n        /* \"#utility.yul\":2004:2007   */\n      dup3\n        /* \"#utility.yul\":1995:2001   */\n      dup5\n        /* \"#utility.yul\":1933:2008   */\n      tag_44\n      jump\t// in\n    tag_61:\n        /* \"#utility.yul\":2033:2035   */\n      0x14\n        /* \"#utility.yul\":2028:2031   */\n      dup3\n        /* \"#utility.yul\":2024:2036   */\n      add\n        /* \"#utility.yul\":2017:2036   */\n      swap2\n      pop\n        /* \"#utility.yul\":2053:2056   */\n      dup2\n        /* \"#utility.yul\":2046:2056   */\n      swap1\n      pop\n        /* \"#utility.yul\":1665:2062   */\n      swap4\n      swap3\n      pop\n      pop\n      pop\n      jump\t// out\n        /* \"#utility.yul\":2068:2290   */\n    tag_9:\n        /* \"#utility.yul\":2161:2165   */\n      0x00\n        /* \"#utility.yul\":2199:2201   */\n      0x20\n        /* \"#utility.yul\":2188:2197   */\n      dup3\n        /* \"#utility.yul\":2184:2202   */\n      add\n        /* \"#utility.yul\":2176:2202   */\n      swap1\n      pop\n        /* \"#utility.yul\":2212:2283   */\n      tag_63\n        /* \"#utility.yul\":2280:2281   */\n      0x00\n        /* \"#utility.yul\":2269:2278   */\n      dup4\n        /* \"#utility.yul\":2265:2282   */\n      add\n        /* \"#utility.yul\":2256:2262   */\n      dup5\n        /* \"#utility.yul\":2212:2283   */\n      tag_50\n      jump\t// in\n    tag_63:\n        /* \"#utility.yul\":2068:2290   */\n      swap3\n      swap2\n      pop\n      pop\n      jump\t// out\n        /* \"#utility.yul\":2377:2682   */\n    tag_15:\n        /* \"#utility.yul\":2417:2420   */\n      0x00\n        /* \"#utility.yul\":2436:2456   */\n      tag_67\n        /* \"#utility.yul\":2454:2455   */\n      dup3\n        /* \"#utility.yul\":2436:2456   */\n      tag_53\n      jump\t// in\n    tag_67:\n        /* \"#utility.yul\":2431:2456   */\n      swap2\n      pop\n        /* \"#utility.yul\":2470:2490   */\n      tag_68\n        /* \"#utility.yul\":2488:2489   */\n      dup4\n        /* \"#utility.yul\":2470:2490   */\n      tag_53\n      jump\t// in\n    tag_68:\n        /* \"#utility.yul\":2465:2490   */\n      swap3\n      pop\n        /* \"#utility.yul\":2624:2625   */\n      dup3\n        /* \"#utility.yul\":2556:2622   */\n      0xffffffffffffffffffffffffffffffffffffffffffffffffffffffffffffffff\n        /* \"#utility.yul\":2552:2626   */\n      sub\n        /* \"#utility.yul\":2549:2550   */\n      dup3\n        /* \"#utility.yul\":2546:2627   */\n      gt\n        /* \"#utility.yul\":2543:2650   */\n      iszero\n      tag_69\n      jumpi\n        /* \"#utility.yul\":2630:2648   */\n      tag_70\n      tag_71\n      jump\t// in\n    tag_70:\n        /* \"#utility.yul\":2543:2650   */\n    tag_69:\n        /* \"#utility.yul\":2674:2675   */\n      dup3\n        /* \"#utility.yul\":2671:2672   */\n      dup3\n        /* \"#utility.yul\":2667:2676   */\n      add\n        /* \"#utility.yul\":2660:2676   */\n      swap1\n      pop\n        /* \"#utility.yul\":2377:2682   */\n      swap3\n      swap2\n      pop\n      pop\n      jump\t// out\n        /* \"#utility.yul\":2688:2873   */\n    tag_17:\n        /* \"#utility.yul\":2728:2729   */\n      0x00\n        /* \"#utility.yul\":2745:2765   */\n      tag_73\n        /* \"#utility.yul\":2763:2764   */\n      dup3\n        /* \"#utility.yul\":2745:2765   */\n      tag_53\n      jump\t// in\n    tag_73:\n        /* \"#utility.yul\":2740:2765   */\n      swap2\n      pop\n        /* \"#utility.yul\":2779:2799   */\n      tag_74\n        /* \"#utility.yul\":2797:2798   */\n      dup4\n        /* \"#utility.yul\":2779:2799   */\n      tag_53\n      jump\t// in\n    tag_74:\n        /* \"#utility.yul\":2774:2799   */\n      swap3\n      pop\n        /* \"#utility.yul\":2818:2819   */\n      dup3\n        /* \"#utility.yul\":2808:2843   */\n      tag_75\n      jumpi\n        /* \"#utility.yul\":2823:2841   */\n      tag_76\n      tag_77\n      jump\t// in\n    tag_76:\n        /* \"#utility.yul\":2808:2843   */\n    tag_75:\n        /* \"#utility.yul\":2865:2866   */\n      dup3\n        /* \"#utility.yul\":2862:2863   */\n      dup3\n        /* \"#utility.yul\":2858:2867   */\n      div\n        /* \"#utility.yul\":2853:2867   */\n      swap1\n      pop\n        /* \"#utility.yul\":2688:2873   */\n      swap3\n      swap2\n      pop\n      pop\n      jump\t// out\n        /* \"#utility.yul\":2879:2975   */\n    tag_48:\n        /* \"#utility.yul\":2916:2923   */\n      0x00\n        /* \"#utility.yul\":2945:2969   */\n      tag_79\n        /* \"#utility.yul\":2963:2968   */\n      dup3\n        /* \"#utility.yul\":2945:2969   */\n      tag_80\n      jump\t// in\n    tag_79:\n        /* \"#utility.yul\":2934:2969   */\n      swap1\n      pop\n        /* \"#utility.yul\":2879:2975   */\n      swap2\n      swap1\n      pop\n      jump\t// out\n        /* \"#utility.yul\":2981:3107   */\n    tag_80:\n        /* \"#utility.yul\":3018:3025   */\n      0x00\n        /* \"#utility.yul\":3058:3100   */\n      0xffffffffffffffffffffffffffffffffffffffff\n        /* \"#utility.yul\":3051:3056   */\n      dup3\n        /* \"#utility.yul\":3047:3101   */\n      and\n        /* \"#utility.yul\":3036:3101   */\n      swap1\n      pop\n        /* \"#utility.yul\":2981:3107   */\n      swap2\n      swap1\n      pop\n      jump\t// out\n        /* \"#utility.yul\":3113:3190   */\n    tag_53:\n        /* \"#utility.yul\":3150:3157   */\n      0x00\n        /* \"#utility.yul\":3179:3184   */\n      dup2\n        /* \"#utility.yul\":3168:3184   */\n      swap1\n      pop\n        /* \"#utility.yul\":3113:3190   */\n      swap2\n      swap1\n      pop\n      jump\t// out\n        /* \"#utility.yul\":3196:3296   */\n    tag_49:\n        /* \"#utility.yul\":3235:3242   */\n      0x00\n        /* \"#utility.yul\":3264:3290   */\n      tag_84\n        /* \"#utility.yul\":3284:3289   */\n      dup3\n        /* \"#utility.yul\":3264:3290   */\n      tag_85\n      jump\t// in\n    tag_84:\n        /* \"#utility.yul\":3253:3290   */\n      swap1\n      pop\n        /* \"#utility.yul\":3196:3296   */\n      swap2\n      swap1\n      pop\n      jump\t// out\n        /* \"#utility.yul\":3302:3396   */\n    tag_85:\n        /* \"#utility.yul\":3341:3348   */\n      0x00\n        /* \"#utility.yul\":3370:3390   */\n      tag_87\n        /* \"#utility.yul\":3384:3389   */\n      dup3\n        /* \"#utility.yul\":3370:3390   */\n      tag_88\n      jump\t// in\n    tag_87:\n        /* \"#utility.yul\":3359:3390   */\n      swap1\n      pop\n        /* \"#utility.yul\":3302:3396   */\n      swap2\n      swap1\n      pop\n      jump\t// out\n        /* \"#utility.yul\":3402:3481   */\n    tag_58:\n        /* \"#utility.yul\":3441:3448   */\n      0x00\n        /* \"#utility.yul\":3470:3475   */\n      dup2\n        /* \"#utility.yul\":3459:3475   */\n      swap1\n      pop\n        /* \"#utility.yul\":3402:3481   */\n      swap2\n      swap1\n      pop\n      jump\t// out\n        /* \"#utility.yul\":3487:3663   */\n    tag_28:\n        /* \"#utility.yul\":3519:3520   */\n      0x00\n        /* \"#utility.yul\":3536:3556   */\n      tag_91\n        /* \"#utility.yul\":3554:3555   */\n      dup3\n        /* \"#utility.yul\":3536:3556   */\n      tag_53\n      jump\t// in\n    tag_91:\n        /* \"#utility.yul\":3531:3556   */\n      swap2\n      pop\n        /* \"#utility.yul\":3570:3590   */\n      tag_92\n        /* \"#utility.yul\":3588:3589   */\n      dup4\n        /* \"#utility.yul\":3570:3590   */\n      tag_53\n      jump\t// in\n    tag_92:\n        /* \"#utility.yul\":3565:3590   */\n      swap3\n      pop\n        /* \"#utility.yul\":3609:3610   */\n      dup3\n        /* \"#utility.yul\":3599:3634   */\n      tag_93\n      jumpi\n        /* \"#utility.yul\":3614:3632   */\n      tag_94\n      tag_77\n      jump\t// in\n    tag_94:\n        /* \"#utility.yul\":3599:3634   */\n    tag_93:\n        /* \"#utility.yul\":3655:3656   */\n      dup3\n        /* \"#utility.yul\":3652:3653   */\n      dup3\n        /* \"#utility.yul\":3648:3657   */\n      mod\n        /* \"#utility.yul\":3643:3657   */\n      swap1\n      pop\n        /* \"#utility.yul\":3487:3663   */\n      swap3\n      swap2\n      pop\n      pop\n      jump\t// out\n        /* \"#utility.yul\":3669:3849   */\n    tag_71:\n        /* \"#utility.yul\":3717:3794   */\n      0x4e487b7100000000000000000000000000000000000000000000000000000000\n        /* \"#utility.yul\":3714:3715   */\n      0x00\n        /* \"#utility.yul\":3707:3795   */\n      mstore\n        /* \"#utility.yul\":3814:3818   */\n      0x11\n        /* \"#utility.yul\":3811:3812   */\n      0x04\n        /* \"#utility.yul\":3804:3819   */\n      mstore\n        /* \"#utility.yul\":3838:3842   */\n      0x24\n        /* \"#utility.yul\":3835:3836   */\n      0x00\n        /* \"#utility.yul\":3828:3843   */\n      revert\n        /* \"#utility.yul\":3855:4035   */\n    tag_77:\n        /* \"#utility.yul\":3903:3980   */\n      0x4e487b7100000000000000000000000000000000000000000000000000000000\n        /* \"#utility.yul\":3900:3901   */\n      0x00\n        /* \"#utility.yul\":3893:3981   */\n      mstore\n        /* \"#utility.yul\":4000:4004   */\n      0x12\n        /* \"#utility.yul\":3997:3998   */\n      0x04\n        /* \"#utility.yul\":3990:4005   */\n      mstore\n        /* \"#utility.yul\":4024:4028   */\n      0x24\n        /* \"#utility.yul\":4021:4022   */\n      0x00\n        /* \"#utility.yul\":4014:4029   */\n      revert\n        /* \"#utility.yul\":4164:4281   */\n    tag_37:\n        /* \"#utility.yul\":4273:4274   */\n      0x00\n        /* \"#utility.yul\":4270:4271   */\n      dup1\n        /* \"#utility.yul\":4263:4275   */\n      revert\n        /* \"#utility.yul\":4287:4381   */\n    tag_88:\n        /* \"#utility.yul\":4320:4328   */\n      0x00\n        /* \"#utility.yul\":4368:4373   */\n      dup2\n        /* \"#utility.yul\":4364:4366   */\n      0x60\n        /* \"#utility.yul\":4360:4374   */\n      shl\n        /* \"#utility.yul\":4339:4374   */\n      swap1\n      pop\n        /* \"#utility.yul\":4287:4381   */\n      swap2\n      swap1\n      pop\n      jump\t// out\n        /* \"#utility.yul\":4387:4509   */\n    tag_33:\n        /* \"#utility.yul\":4460:4484   */\n      tag_102\n        /* \"#utility.yul\":4478:4483   */\n      dup2\n        /* \"#utility.yul\":4460:4484   */\n      tag_53\n      jump\t// in\n    tag_102:\n        /* \"#utility.yul\":4453:4458   */\n      dup2\n        /* \"#utility.yul\":4450:4485   */\n      eq\n        /* \"#utility.yul\":4440:4503   */\n      tag_103\n      jumpi\n        /* \"#utility.yul\":4499:4500   */\n      0x00\n        /* \"#utility.yul\":4496:4497   */\n      dup1\n        /* \"#utility.yul\":4489:4501   */\n      revert\n        /* \"#utility.yul\":4440:4503   */\n    tag_103:\n        /* \"#utility.yul\":4387:4509   */\n      pop\n      jump\t// out\n\n    auxdata: 0xa26469706673582212203174e5b6cad2861070f25710a8372f274815c6b8407d5571bf54002cd2d5640b64736f6c63430008070033\n}\n",
				"bytecode": {
					"linkReferences": {},
					"object": "608060405234801561001057600080fd5b5061042b806100206000396000f3fe608060405234801561001057600080fd5b506004361061002b5760003560e01c8063262233ea14610030575b600080fd5b61004a6004803603810190610045919061013b565b610060565b6040516100579190610231565b60405180910390f35b60008061006b6100e2565b905084811161007d57879150506100d8565b600a848661008b919061024c565b61009591906102a2565b81116100a457869150506100d8565b60648385876100b3919061024c565b6100bd919061024c565b6100c791906102a2565b81116100d657859150506100d8565b505b9695505050505050565b600080600342336040516020016100fa929190610205565b6040516020818303038152906040528051906020012060001c61011d919061033d565b90508091505090565b600081359050610135816103de565b92915050565b60008060008060008060c08789031215610158576101576103cc565b5b600061016689828a01610126565b965050602061017789828a01610126565b955050604061018889828a01610126565b945050606061019989828a01610126565b93505060806101aa89828a01610126565b92505060a06101bb89828a01610126565b9150509295509295509295565b6101d96101d4826102d3565b61030f565b82525050565b6101e881610305565b82525050565b6101ff6101fa82610305565b610333565b82525050565b600061021182856101ee565b60208201915061022182846101c8565b6014820191508190509392505050565b600060208201905061024660008301846101df565b92915050565b600061025782610305565b915061026283610305565b9250827fffffffffffffffffffffffffffffffffffffffffffffffffffffffffffffffff038211156102975761029661036e565b5b828201905092915050565b60006102ad82610305565b91506102b883610305565b9250826102c8576102c761039d565b5b828204905092915050565b60006102de826102e5565b9050919050565b600073ffffffffffffffffffffffffffffffffffffffff82169050919050565b6000819050919050565b600061031a82610321565b9050919050565b600061032c826103d1565b9050919050565b6000819050919050565b600061034882610305565b915061035383610305565b9250826103635761036261039d565b5b828206905092915050565b7f4e487b7100000000000000000000000000000000000000000000000000000000600052601160045260246000fd5b7f4e487b7100000000000000000000000000000000000000000000000000000000600052601260045260246000fd5b600080fd5b60008160601b9050919050565b6103e781610305565b81146103f257600080fd5b5056fea26469706673582212203174e5b6cad2861070f25710a8372f274815c6b8407d5571bf54002cd2d5640b64736f6c63430008070033",
					"opcodes": "PUSH1 0x80 PUSH1 0x40 MSTORE CALLVALUE DUP1 ISZERO PUSH2 0x10 JUMPI PUSH1 0x0 DUP1 REVERT JUMPDEST POP PUSH2 0x42B DUP1 PUSH2 0x20 PUSH1 0x0 CODECOPY PUSH1 0x0 RETURN INVALID PUSH1 0x80 PUSH1 0x40 MSTORE CALLVALUE DUP1 ISZERO PUSH2 0x10 JUMPI PUSH1 0x0 DUP1 REVERT JUMPDEST POP PUSH1 0x4 CALLDATASIZE LT PUSH2 0x2B JUMPI PUSH1 0x0 CALLDATALOAD PUSH1 0xE0 SHR DUP1 PUSH4 0x262233EA EQ PUSH2 0x30 JUMPI JUMPDEST PUSH1 0x0 DUP1 REVERT JUMPDEST PUSH2 0x4A PUSH1 0x4 DUP1 CALLDATASIZE SUB DUP2 ADD SWAP1 PUSH2 0x45 SWAP2 SWAP1 PUSH2 0x13B JUMP JUMPDEST PUSH2 0x60 JUMP JUMPDEST PUSH1 0x40 MLOAD PUSH2 0x57 SWAP2 SWAP1 PUSH2 0x231 JUMP JUMPDEST PUSH1 0x40 MLOAD DUP1 SWAP2 SUB SWAP1 RETURN JUMPDEST PUSH1 0x0 DUP1 PUSH2 0x6B PUSH2 0xE2 JUMP JUMPDEST SWAP1 POP DUP5 DUP2 GT PUSH2 0x7D JUMPI DUP8 SWAP2 POP POP PUSH2 0xD8 JUMP JUMPDEST PUSH1 0xA DUP5 DUP7 PUSH2 0x8B SWAP2 SWAP1 PUSH2 0x24C JUMP JUMPDEST PUSH2 0x95 SWAP2 SWAP1 PUSH2 0x2A2 JUMP JUMPDEST DUP2 GT PUSH2 0xA4 JUMPI DUP7 SWAP2 POP POP PUSH2 0xD8 JUMP JUMPDEST PUSH1 0x64 DUP4 DUP6 DUP8 PUSH2 0xB3 SWAP2 SWAP1 PUSH2 0x24C JUMP JUMPDEST PUSH2 0xBD SWAP2 SWAP1 PUSH2 0x24C JUMP JUMPDEST PUSH2 0xC7 SWAP2 SWAP1 PUSH2 0x2A2 JUMP JUMPDEST DUP2 GT PUSH2 0xD6 JUMPI DUP6 SWAP2 POP POP PUSH2 0xD8 JUMP JUMPDEST POP JUMPDEST SWAP7 SWAP6 POP POP POP POP POP POP JUMP JUMPDEST PUSH1 0x0 DUP1 PUSH1 0x3 TIMESTAMP CALLER PUSH1 0x40 MLOAD PUSH1 0x20 ADD PUSH2 0xFA SWAP3 SWAP2 SWAP1 PUSH2 0x205 JUMP JUMPDEST PUSH1 0x40 MLOAD PUSH1 0x20 DUP2 DUP4 SUB SUB DUP2 MSTORE SWAP1 PUSH1 0x40 MSTORE DUP1 MLOAD SWAP1 PUSH1 0x20 ADD KECCAK256 PUSH1 0x0 SHR PUSH2 0x11D SWAP2 SWAP1 PUSH2 0x33D JUMP JUMPDEST SWAP1 POP DUP1 SWAP2 POP POP SWAP1 JUMP JUMPDEST PUSH1 0x0 DUP2 CALLDATALOAD SWAP1 POP PUSH2 0x135 DUP2 PUSH2 0x3DE JUMP JUMPDEST SWAP3 SWAP2 POP POP JUMP JUMPDEST PUSH1 0x0 DUP1 PUSH1 0x0 DUP1 PUSH1 0x0 DUP1 PUSH1 0xC0 DUP8 DUP10 SUB SLT ISZERO PUSH2 0x158 JUMPI PUSH2 0x157 PUSH2 0x3CC JUMP JUMPDEST JUMPDEST PUSH1 0x0 PUSH2 0x166 DUP10 DUP3 DUP11 ADD PUSH2 0x126 JUMP JUMPDEST SWAP7 POP POP PUSH1 0x20 PUSH2 0x177 DUP10 DUP3 DUP11 ADD PUSH2 0x126 JUMP JUMPDEST SWAP6 POP POP PUSH1 0x40 PUSH2 0x188 DUP10 DUP3 DUP11 ADD PUSH2 0x126 JUMP JUMPDEST SWAP5 POP POP PUSH1 0x60 PUSH2 0x199 DUP10 DUP3 DUP11 ADD PUSH2 0x126 JUMP JUMPDEST SWAP4 POP POP PUSH1 0x80 PUSH2 0x1AA DUP10 DUP3 DUP11 ADD PUSH2 0x126 JUMP JUMPDEST SWAP3 POP POP PUSH1 0xA0 PUSH2 0x1BB DUP10 DUP3 DUP11 ADD PUSH2 0x126 JUMP JUMPDEST SWAP2 POP POP SWAP3 SWAP6 POP SWAP3 SWAP6 POP SWAP3 SWAP6 JUMP JUMPDEST PUSH2 0x1D9 PUSH2 0x1D4 DUP3 PUSH2 0x2D3 JUMP JUMPDEST PUSH2 0x30F JUMP JUMPDEST DUP3 MSTORE POP POP JUMP JUMPDEST PUSH2 0x1E8 DUP2 PUSH2 0x305 JUMP JUMPDEST DUP3 MSTORE POP POP JUMP JUMPDEST PUSH2 0x1FF PUSH2 0x1FA DUP3 PUSH2 0x305 JUMP JUMPDEST PUSH2 0x333 JUMP JUMPDEST DUP3 MSTORE POP POP JUMP JUMPDEST PUSH1 0x0 PUSH2 0x211 DUP3 DUP6 PUSH2 0x1EE JUMP JUMPDEST PUSH1 0x20 DUP3 ADD SWAP2 POP PUSH2 0x221 DUP3 DUP5 PUSH2 0x1C8 JUMP JUMPDEST PUSH1 0x14 DUP3 ADD SWAP2 POP DUP2 SWAP1 POP SWAP4 SWAP3 POP POP POP JUMP JUMPDEST PUSH1 0x0 PUSH1 0x20 DUP3 ADD SWAP1 POP PUSH2 0x246 PUSH1 0x0 DUP4 ADD DUP5 PUSH2 0x1DF JUMP JUMPDEST SWAP3 SWAP2 POP POP JUMP JUMPDEST PUSH1 0x0 PUSH2 0x257 DUP3 PUSH2 0x305 JUMP JUMPDEST SWAP2 POP PUSH2 0x262 DUP4 PUSH2 0x305 JUMP JUMPDEST SWAP3 POP DUP3 PUSH32 0xFFFFFFFFFFFFFFFFFFFFFFFFFFFFFFFFFFFFFFFFFFFFFFFFFFFFFFFFFFFFFFFF SUB DUP3 GT ISZERO PUSH2 0x297 JUMPI PUSH2 0x296 PUSH2 0x36E JUMP JUMPDEST JUMPDEST DUP3 DUP3 ADD SWAP1 POP SWAP3 SWAP2 POP POP JUMP JUMPDEST PUSH1 0x0 PUSH2 0x2AD DUP3 PUSH2 0x305 JUMP JUMPDEST SWAP2 POP PUSH2 0x2B8 DUP4 PUSH2 0x305 JUMP JUMPDEST SWAP3 POP DUP3 PUSH2 0x2C8 JUMPI PUSH2 0x2C7 PUSH2 0x39D JUMP JUMPDEST JUMPDEST DUP3 DUP3 DIV SWAP1 POP SWAP3 SWAP2 POP POP JUMP JUMPDEST PUSH1 0x0 PUSH2 0x2DE DUP3 PUSH2 0x2E5 JUMP JUMPDEST SWAP1 POP SWAP2 SWAP1 POP JUMP JUMPDEST PUSH1 0x0 PUSH20 0xFFFFFFFFFFFFFFFFFFFFFFFFFFFFFFFFFFFFFFFF DUP3 AND SWAP1 POP SWAP2 SWAP1 POP JUMP JUMPDEST PUSH1 0x0 DUP2 SWAP1 POP SWAP2 SWAP1 POP JUMP JUMPDEST PUSH1 0x0 PUSH2 0x31A DUP3 PUSH2 0x321 JUMP JUMPDEST SWAP1 POP SWAP2 SWAP1 POP JUMP JUMPDEST PUSH1 0x0 PUSH2 0x32C DUP3 PUSH2 0x3D1 JUMP JUMPDEST SWAP1 POP SWAP2 SWAP1 POP JUMP JUMPDEST PUSH1 0x0 DUP2 SWAP1 POP SWAP2 SWAP1 POP JUMP JUMPDEST PUSH1 0x0 PUSH2 0x348 DUP3 PUSH2 0x305 JUMP JUMPDEST SWAP2 POP PUSH2 0x353 DUP4 PUSH2 0x305 JUMP JUMPDEST SWAP3 POP DUP3 PUSH2 0x363 JUMPI PUSH2 0x362 PUSH2 0x39D JUMP JUMPDEST JUMPDEST DUP3 DUP3 MOD SWAP1 POP SWAP3 SWAP2 POP POP JUMP JUMPDEST PUSH32 0x4E487B7100000000000000000000000000000000000000000000000000000000 PUSH1 0x0 MSTORE PUSH1 0x11 PUSH1 0x4 MSTORE PUSH1 0x24 PUSH1 0x0 REVERT JUMPDEST PUSH32 0x4E487B7100000000000000000000000000000000000000000000000000000000 PUSH1 0x0 MSTORE PUSH1 0x12 PUSH1 0x4 MSTORE PUSH1 0x24 PUSH1 0x0 REVERT JUMPDEST PUSH1 0x0 DUP1 REVERT JUMPDEST PUSH1 0x0 DUP2 PUSH1 0x60 SHL SWAP1 POP SWAP2 SWAP1 POP JUMP JUMPDEST PUSH2 0x3E7 DUP2 PUSH2 0x305 JUMP JUMPDEST DUP2 EQ PUSH2 0x3F2 JUMPI PUSH1 0x0 DUP1 REVERT JUMPDEST POP JUMP INVALID LOG2 PUSH5 0x6970667358 0x22 SLT KECCAK256 BALANCE PUSH21 0xE5B6CAD2861070F25710A8372F274815C6B8407D55 PUSH18 0xBF54002CD2D5640B64736F6C634300080700 CALLER "
				},
				"gasEstimates": {
					"creation": {
						"codeDepositCost": "213400",
						"executionCost": "257",
						"totalCost": "213657"
					},
					"external": {
						"randomTest(uint256,uint256,uint256,uint256,uint256,uint256)": "infinite"
					},
					"internal": {
						"random()": "infinite"
					}
				},
				"methodIdentifiers": {
					"randomTest(uint256,uint256,uint256,uint256,uint256,uint256)": "262233ea"
				}
			},
			"userdoc": {
				"kind": "user",
				"methods": {},
				"version": 1
			}
		}
	}
}