{
	"NFTES_Drop_flat.sol": {
		"NFTES_Drop": {
			"abi": [
				{
					"inputs": [
						{
							"internalType": "string",
							"name": "name",
							"type": "string"
						}
					],
					"stateMutability": "nonpayable",
					"type": "constructor"
				},
				{
					"anonymous": false,
					"inputs": [
						{
							"indexed": true,
							"internalType": "address",
							"name": "operator",
							"type": "address"
						},
						{
							"indexed": true,
							"internalType": "address",
							"name": "from",
							"type": "address"
						},
						{
							"indexed": true,
							"internalType": "address",
							"name": "to",
							"type": "address"
						},
						{
							"indexed": false,
							"internalType": "uint256",
							"name": "id",
							"type": "uint256"
						},
						{
							"indexed": false,
							"internalType": "uint256",
							"name": "value",
							"type": "uint256"
						}
					],
					"name": "TransferSingle",
					"type": "event"
				},
				{
					"inputs": [],
					"name": "Owner",
					"outputs": [
						{
							"internalType": "address payable",
							"name": "",
							"type": "address"
						}
					],
					"stateMutability": "view",
					"type": "function"
				},
				{
					"inputs": [
						{
							"internalType": "address",
							"name": "newOwnerAddr",
							"type": "address"
						}
					],
					"name": "changeOwner",
					"outputs": [],
					"stateMutability": "nonpayable",
					"type": "function"
				},
				{
					"inputs": [],
					"name": "checkMintedCategoryWise",
					"outputs": [
						{
							"internalType": "uint256",
							"name": "",
							"type": "uint256"
						},
						{
							"internalType": "uint256",
							"name": "",
							"type": "uint256"
						},
						{
							"internalType": "uint256",
							"name": "",
							"type": "uint256"
						}
					],
					"stateMutability": "view",
					"type": "function"
				},
				{
					"inputs": [],
					"name": "checkTotalMinted",
					"outputs": [
						{
							"internalType": "uint256",
							"name": "",
							"type": "uint256"
						}
					],
					"stateMutability": "view",
					"type": "function"
				},
				{
					"inputs": [],
					"name": "contractBalance",
					"outputs": [
						{
							"internalType": "uint256",
							"name": "",
							"type": "uint256"
						}
					],
					"stateMutability": "view",
					"type": "function"
				},
				{
					"inputs": [
						{
							"internalType": "address",
							"name": "user_addr",
							"type": "address"
						},
						{
							"internalType": "uint256",
							"name": "noOfMints",
							"type": "uint256"
						}
					],
					"name": "cryptoRandomMint",
					"outputs": [
						{
							"internalType": "uint256[]",
							"name": "",
							"type": "uint256[]"
						}
					],
					"stateMutability": "payable",
					"type": "function"
				},
				{
					"inputs": [
						{
							"internalType": "address",
							"name": "user_addr",
							"type": "address"
						},
						{
							"internalType": "uint256",
							"name": "noOfMints",
							"type": "uint256"
						}
					],
					"name": "fiatRandomMint",
					"outputs": [
						{
							"internalType": "uint256[]",
							"name": "",
							"type": "uint256[]"
						}
					],
					"stateMutability": "nonpayable",
					"type": "function"
				},
				{
					"inputs": [],
					"name": "getMintFee",
					"outputs": [
						{
							"internalType": "uint256",
							"name": "",
							"type": "uint256"
						}
					],
					"stateMutability": "view",
					"type": "function"
				},
				{
					"inputs": [],
					"name": "isPaused",
					"outputs": [
						{
							"internalType": "bool",
							"name": "",
							"type": "bool"
						}
					],
					"stateMutability": "view",
					"type": "function"
				},
				{
					"inputs": [],
					"name": "openDropsite",
					"outputs": [],
					"stateMutability": "nonpayable",
					"type": "function"
				},
				{
					"inputs": [
						{
							"internalType": "address",
							"name": "user_addr",
							"type": "address"
						}
					],
					"name": "randomMinting",
					"outputs": [
						{
							"internalType": "uint256",
							"name": "",
							"type": "uint256"
						},
						{
							"internalType": "string",
							"name": "",
							"type": "string"
						}
					],
					"stateMutability": "payable",
					"type": "function"
				},
				{
					"inputs": [
						{
							"internalType": "address",
							"name": "addr",
							"type": "address"
						}
					],
					"name": "returnNftsOwner",
					"outputs": [
						{
							"internalType": "uint256[]",
							"name": "",
							"type": "uint256[]"
						}
					],
					"stateMutability": "view",
					"type": "function"
				},
				{
					"inputs": [
						{
							"internalType": "uint256",
							"name": "_mintFee",
							"type": "uint256"
						}
					],
					"name": "setMintFee",
					"outputs": [],
					"stateMutability": "nonpayable",
					"type": "function"
				},
				{
					"inputs": [],
					"name": "stopDropsite",
					"outputs": [],
					"stateMutability": "nonpayable",
					"type": "function"
				},
				{
					"inputs": [
						{
							"internalType": "address payable",
							"name": "to",
							"type": "address"
						},
						{
							"internalType": "uint256",
							"name": "amount",
							"type": "uint256"
						}
					],
					"name": "withDraw",
					"outputs": [],
					"stateMutability": "payable",
					"type": "function"
				}
			],
			"devdoc": {
				"kind": "dev",
				"methods": {},
				"version": 1
			},
			"evm": {
				"assembly": "    /* \"NFTES_Drop_flat.sol\":15472:23241  contract NFTES_Drop is ERC1155_Drop {... */\n  mstore(0x40, 0x80)\n    /* \"NFTES_Drop_flat.sol\":15562:15578  string data = \"\" */\n  mload(0x40)\n  dup1\n  0x20\n  add\n  0x40\n  mstore\n  dup1\n  0x00\n  dup2\n  mstore\n  pop\n  0x02\n  swap1\n  dup1\n  mload\n  swap1\n  0x20\n  add\n  swap1\n  tag_1\n  swap3\n  swap2\n  swap1\n  tag_2\n  jump\t// in\ntag_1:\n  pop\n    /* \"NFTES_Drop_flat.sol\":15830:15832  50 */\n  0x32\n    /* \"NFTES_Drop_flat.sol\":15806:15832  uint256 maxDiamondCount=50 */\n  0x09\n  sstore\n    /* \"NFTES_Drop_flat.sol\":15859:15862  100 */\n  0x64\n    /* \"NFTES_Drop_flat.sol\":15838:15862  uint256 maxGoldCount=100 */\n  0x0a\n  sstore\n    /* \"NFTES_Drop_flat.sol\":15891:15894  850 */\n  0x0352\n    /* \"NFTES_Drop_flat.sol\":15868:15894  uint256 maxSilverCount=850 */\n  0x0b\n  sstore\n    /* \"NFTES_Drop_flat.sol\":16570:16574  true */\n  0x01\n    /* \"NFTES_Drop_flat.sol\":16547:16574  bool public isPaused = true */\n  0x0e\n  exp(0x0100, 0x00)\n  dup2\n  sload\n  dup2\n  0xff\n  mul\n  not\n  and\n  swap1\n  dup4\n  iszero\n  iszero\n  mul\n  or\n  swap1\n  sstore\n  pop\n    /* \"NFTES_Drop_flat.sol\":16641:16959  constructor(string memory name) {... */\n  callvalue\n  dup1\n  iszero\n  tag_3\n  jumpi\n  0x00\n  dup1\n  revert\ntag_3:\n  pop\n  mload(0x40)\n  sub(codesize, bytecodeSize)\n  dup1\n  bytecodeSize\n  dup4\n  codecopy\n  dup2\n  dup2\n  add\n  0x40\n  mstore\n  dup2\n  add\n  swap1\n  tag_4\n  swap2\n  swap1\n  tag_5\n  jump\t// in\ntag_4:\n    /* \"NFTES_Drop_flat.sol\":16691:16695  name */\n  dup1\n    /* \"NFTES_Drop_flat.sol\":16683:16688  _name */\n  0x0f\n    /* \"NFTES_Drop_flat.sol\":16683:16695  _name = name */\n  swap1\n  dup1\n  mload\n  swap1\n  0x20\n  add\n  swap1\n  tag_8\n  swap3\n  swap2\n  swap1\n  tag_2\n  jump\t// in\ntag_8:\n  pop\n    /* \"NFTES_Drop_flat.sol\":16721:16731  msg.sender */\n  caller\n    /* \"NFTES_Drop_flat.sol\":16705:16710  Owner */\n  0x0e\n  0x01\n    /* \"NFTES_Drop_flat.sol\":16705:16732  Owner = payable(msg.sender) */\n  0x0100\n  exp\n  dup2\n  sload\n  dup2\n  0xffffffffffffffffffffffffffffffffffffffff\n  mul\n  not\n  and\n  swap1\n  dup4\n  0xffffffffffffffffffffffffffffffffffffffff\n  and\n  mul\n  or\n  swap1\n  sstore\n  pop\n    /* \"NFTES_Drop_flat.sol\":16761:16762  0 */\n  0x00\n    /* \"NFTES_Drop_flat.sol\":16743:16758  totalNFTsMinted */\n  0x03\n    /* \"NFTES_Drop_flat.sol\":16743:16762  totalNFTsMinted = 0 */\n  dup2\n  swap1\n  sstore\n  pop\n    /* \"NFTES_Drop_flat.sol\":16806:16807  1 */\n  0x01\n    /* \"NFTES_Drop_flat.sol\":16792:16803  numOfCopies */\n  0x04\n    /* \"NFTES_Drop_flat.sol\":16792:16807  numOfCopies = 1 */\n  dup2\n  swap1\n  sstore\n  pop\n    /* \"NFTES_Drop_flat.sol\":16913:16914  0 */\n  0x00\n    /* \"NFTES_Drop_flat.sol\":16903:16910  Diamond */\n  0x06\n    /* \"NFTES_Drop_flat.sol\":16903:16914  Diamond = 0 */\n  dup2\n  swap1\n  sstore\n  pop\n    /* \"NFTES_Drop_flat.sol\":16931:16932  0 */\n  0x00\n    /* \"NFTES_Drop_flat.sol\":16924:16928  Gold */\n  0x07\n    /* \"NFTES_Drop_flat.sol\":16924:16932  Gold = 0 */\n  dup2\n  swap1\n  sstore\n  pop\n    /* \"NFTES_Drop_flat.sol\":16951:16952  0 */\n  0x00\n    /* \"NFTES_Drop_flat.sol\":16942:16948  Silver */\n  0x08\n    /* \"NFTES_Drop_flat.sol\":16942:16952  Silver = 0 */\n  dup2\n  swap1\n  sstore\n  pop\n    /* \"NFTES_Drop_flat.sol\":16641:16959  constructor(string memory name) {... */\n  pop\n    /* \"NFTES_Drop_flat.sol\":15472:23241  contract NFTES_Drop is ERC1155_Drop {... */\n  jump(tag_9)\ntag_2:\n  dup3\n  dup1\n  sload\n  tag_10\n  swap1\n  tag_11\n  jump\t// in\ntag_10:\n  swap1\n  0x00\n  mstore\n  keccak256(0x00, 0x20)\n  swap1\n  0x1f\n  add\n  0x20\n  swap1\n  div\n  dup2\n  add\n  swap3\n  dup3\n  tag_13\n  jumpi\n  0x00\n  dup6\n  sstore\n  jump(tag_12)\ntag_13:\n  dup3\n  0x1f\n  lt\n  tag_14\n  jumpi\n  dup1\n  mload\n  not(0xff)\n  and\n  dup4\n  dup1\n  add\n  or\n  dup6\n  sstore\n  jump(tag_12)\ntag_14:\n  dup3\n  dup1\n  add\n  0x01\n  add\n  dup6\n  sstore\n  dup3\n  iszero\n  tag_12\n  jumpi\n  swap2\n  dup3\n  add\ntag_15:\n  dup3\n  dup2\n  gt\n  iszero\n  tag_16\n  jumpi\n  dup3\n  mload\n  dup3\n  sstore\n  swap2\n  0x20\n  add\n  swap2\n  swap1\n  0x01\n  add\n  swap1\n  jump(tag_15)\ntag_16:\ntag_12:\n  pop\n  swap1\n  pop\n  tag_17\n  swap2\n  swap1\n  tag_18\n  jump\t// in\ntag_17:\n  pop\n  swap1\n  jump\t// out\ntag_18:\ntag_19:\n  dup1\n  dup3\n  gt\n  iszero\n  tag_20\n  jumpi\n  0x00\n  dup2\n  0x00\n  swap1\n  sstore\n  pop\n  0x01\n  add\n  jump(tag_19)\ntag_20:\n  pop\n  swap1\n  jump\t// out\n    /* \"#utility.yul\":7:428   */\ntag_22:\n    /* \"#utility.yul\":96:101   */\n  0x00\n    /* \"#utility.yul\":121:187   */\n  tag_24\n    /* \"#utility.yul\":137:186   */\n  tag_25\n    /* \"#utility.yul\":179:185   */\n  dup5\n    /* \"#utility.yul\":137:186   */\n  tag_26\n  jump\t// in\ntag_25:\n    /* \"#utility.yul\":121:187   */\n  tag_27\n  jump\t// in\ntag_24:\n    /* \"#utility.yul\":112:187   */\n  swap1\n  pop\n    /* \"#utility.yul\":210:216   */\n  dup3\n    /* \"#utility.yul\":203:208   */\n  dup2\n    /* \"#utility.yul\":196:217   */\n  mstore\n    /* \"#utility.yul\":248:252   */\n  0x20\n    /* \"#utility.yul\":241:246   */\n  dup2\n    /* \"#utility.yul\":237:253   */\n  add\n    /* \"#utility.yul\":286:289   */\n  dup5\n    /* \"#utility.yul\":277:283   */\n  dup5\n    /* \"#utility.yul\":272:275   */\n  dup5\n    /* \"#utility.yul\":268:284   */\n  add\n    /* \"#utility.yul\":265:290   */\n  gt\n    /* \"#utility.yul\":262:374   */\n  iszero\n  tag_28\n  jumpi\n    /* \"#utility.yul\":293:372   */\n  tag_29\n  tag_30\n  jump\t// in\ntag_29:\n    /* \"#utility.yul\":262:374   */\ntag_28:\n    /* \"#utility.yul\":383:422   */\n  tag_31\n    /* \"#utility.yul\":415:421   */\n  dup5\n    /* \"#utility.yul\":410:413   */\n  dup3\n    /* \"#utility.yul\":405:408   */\n  dup6\n    /* \"#utility.yul\":383:422   */\n  tag_32\n  jump\t// in\ntag_31:\n    /* \"#utility.yul\":102:428   */\n  pop\n    /* \"#utility.yul\":7:428   */\n  swap4\n  swap3\n  pop\n  pop\n  pop\n  jump\t// out\n    /* \"#utility.yul\":448:803   */\ntag_33:\n    /* \"#utility.yul\":515:520   */\n  0x00\n    /* \"#utility.yul\":564:567   */\n  dup3\n    /* \"#utility.yul\":557:561   */\n  0x1f\n    /* \"#utility.yul\":549:555   */\n  dup4\n    /* \"#utility.yul\":545:562   */\n  add\n    /* \"#utility.yul\":541:568   */\n  slt\n    /* \"#utility.yul\":531:653   */\n  tag_35\n  jumpi\n    /* \"#utility.yul\":572:651   */\n  tag_36\n  tag_37\n  jump\t// in\ntag_36:\n    /* \"#utility.yul\":531:653   */\ntag_35:\n    /* \"#utility.yul\":682:688   */\n  dup2\n    /* \"#utility.yul\":676:689   */\n  mload\n    /* \"#utility.yul\":707:797   */\n  tag_38\n    /* \"#utility.yul\":793:796   */\n  dup5\n    /* \"#utility.yul\":785:791   */\n  dup3\n    /* \"#utility.yul\":778:782   */\n  0x20\n    /* \"#utility.yul\":770:776   */\n  dup7\n    /* \"#utility.yul\":766:783   */\n  add\n    /* \"#utility.yul\":707:797   */\n  tag_22\n  jump\t// in\ntag_38:\n    /* \"#utility.yul\":698:797   */\n  swap2\n  pop\n    /* \"#utility.yul\":521:803   */\n  pop\n    /* \"#utility.yul\":448:803   */\n  swap3\n  swap2\n  pop\n  pop\n  jump\t// out\n    /* \"#utility.yul\":809:1333   */\ntag_5:\n    /* \"#utility.yul\":889:895   */\n  0x00\n    /* \"#utility.yul\":938:940   */\n  0x20\n    /* \"#utility.yul\":926:935   */\n  dup3\n    /* \"#utility.yul\":917:924   */\n  dup5\n    /* \"#utility.yul\":913:936   */\n  sub\n    /* \"#utility.yul\":909:941   */\n  slt\n    /* \"#utility.yul\":906:1025   */\n  iszero\n  tag_40\n  jumpi\n    /* \"#utility.yul\":944:1023   */\n  tag_41\n  tag_42\n  jump\t// in\ntag_41:\n    /* \"#utility.yul\":906:1025   */\ntag_40:\n    /* \"#utility.yul\":1085:1086   */\n  0x00\n    /* \"#utility.yul\":1074:1083   */\n  dup3\n    /* \"#utility.yul\":1070:1087   */\n  add\n    /* \"#utility.yul\":1064:1088   */\n  mload\n    /* \"#utility.yul\":1115:1133   */\n  0xffffffffffffffff\n    /* \"#utility.yul\":1107:1113   */\n  dup2\n    /* \"#utility.yul\":1104:1134   */\n  gt\n    /* \"#utility.yul\":1101:1218   */\n  iszero\n  tag_43\n  jumpi\n    /* \"#utility.yul\":1137:1216   */\n  tag_44\n  tag_45\n  jump\t// in\ntag_44:\n    /* \"#utility.yul\":1101:1218   */\ntag_43:\n    /* \"#utility.yul\":1242:1316   */\n  tag_46\n    /* \"#utility.yul\":1308:1315   */\n  dup5\n    /* \"#utility.yul\":1299:1305   */\n  dup3\n    /* \"#utility.yul\":1288:1297   */\n  dup6\n    /* \"#utility.yul\":1284:1306   */\n  add\n    /* \"#utility.yul\":1242:1316   */\n  tag_33\n  jump\t// in\ntag_46:\n    /* \"#utility.yul\":1232:1316   */\n  swap2\n  pop\n    /* \"#utility.yul\":1035:1326   */\n  pop\n    /* \"#utility.yul\":809:1333   */\n  swap3\n  swap2\n  pop\n  pop\n  jump\t// out\n    /* \"#utility.yul\":1339:1468   */\ntag_27:\n    /* \"#utility.yul\":1373:1379   */\n  0x00\n    /* \"#utility.yul\":1400:1420   */\n  tag_48\n  tag_49\n  jump\t// in\ntag_48:\n    /* \"#utility.yul\":1390:1420   */\n  swap1\n  pop\n    /* \"#utility.yul\":1429:1462   */\n  tag_50\n    /* \"#utility.yul\":1457:1461   */\n  dup3\n    /* \"#utility.yul\":1449:1455   */\n  dup3\n    /* \"#utility.yul\":1429:1462   */\n  tag_51\n  jump\t// in\ntag_50:\n    /* \"#utility.yul\":1339:1468   */\n  swap2\n  swap1\n  pop\n  jump\t// out\n    /* \"#utility.yul\":1474:1549   */\ntag_49:\n    /* \"#utility.yul\":1507:1513   */\n  0x00\n    /* \"#utility.yul\":1540:1542   */\n  0x40\n    /* \"#utility.yul\":1534:1543   */\n  mload\n    /* \"#utility.yul\":1524:1543   */\n  swap1\n  pop\n    /* \"#utility.yul\":1474:1549   */\n  swap1\n  jump\t// out\n    /* \"#utility.yul\":1555:1863   */\ntag_26:\n    /* \"#utility.yul\":1617:1621   */\n  0x00\n    /* \"#utility.yul\":1707:1725   */\n  0xffffffffffffffff\n    /* \"#utility.yul\":1699:1705   */\n  dup3\n    /* \"#utility.yul\":1696:1726   */\n  gt\n    /* \"#utility.yul\":1693:1749   */\n  iszero\n  tag_54\n  jumpi\n    /* \"#utility.yul\":1729:1747   */\n  tag_55\n  tag_56\n  jump\t// in\ntag_55:\n    /* \"#utility.yul\":1693:1749   */\ntag_54:\n    /* \"#utility.yul\":1767:1796   */\n  tag_57\n    /* \"#utility.yul\":1789:1795   */\n  dup3\n    /* \"#utility.yul\":1767:1796   */\n  tag_58\n  jump\t// in\ntag_57:\n    /* \"#utility.yul\":1759:1796   */\n  swap1\n  pop\n    /* \"#utility.yul\":1851:1855   */\n  0x20\n    /* \"#utility.yul\":1845:1849   */\n  dup2\n    /* \"#utility.yul\":1841:1856   */\n  add\n    /* \"#utility.yul\":1833:1856   */\n  swap1\n  pop\n    /* \"#utility.yul\":1555:1863   */\n  swap2\n  swap1\n  pop\n  jump\t// out\n    /* \"#utility.yul\":1869:2176   */\ntag_32:\n    /* \"#utility.yul\":1937:1938   */\n  0x00\n    /* \"#utility.yul\":1947:2060   */\ntag_60:\n    /* \"#utility.yul\":1961:1967   */\n  dup4\n    /* \"#utility.yul\":1958:1959   */\n  dup2\n    /* \"#utility.yul\":1955:1968   */\n  lt\n    /* \"#utility.yul\":1947:2060   */\n  iszero\n  tag_62\n  jumpi\n    /* \"#utility.yul\":2046:2047   */\n  dup1\n    /* \"#utility.yul\":2041:2044   */\n  dup3\n    /* \"#utility.yul\":2037:2048   */\n  add\n    /* \"#utility.yul\":2031:2049   */\n  mload\n    /* \"#utility.yul\":2027:2028   */\n  dup2\n    /* \"#utility.yul\":2022:2025   */\n  dup5\n    /* \"#utility.yul\":2018:2029   */\n  add\n    /* \"#utility.yul\":2011:2050   */\n  mstore\n    /* \"#utility.yul\":1983:1985   */\n  0x20\n    /* \"#utility.yul\":1980:1981   */\n  dup2\n    /* \"#utility.yul\":1976:1986   */\n  add\n    /* \"#utility.yul\":1971:1986   */\n  swap1\n  pop\n    /* \"#utility.yul\":1947:2060   */\n  jump(tag_60)\ntag_62:\n    /* \"#utility.yul\":2078:2084   */\n  dup4\n    /* \"#utility.yul\":2075:2076   */\n  dup2\n    /* \"#utility.yul\":2072:2085   */\n  gt\n    /* \"#utility.yul\":2069:2170   */\n  iszero\n  tag_63\n  jumpi\n    /* \"#utility.yul\":2158:2159   */\n  0x00\n    /* \"#utility.yul\":2149:2155   */\n  dup5\n    /* \"#utility.yul\":2144:2147   */\n  dup5\n    /* \"#utility.yul\":2140:2156   */\n  add\n    /* \"#utility.yul\":2133:2160   */\n  mstore\n    /* \"#utility.yul\":2069:2170   */\ntag_63:\n    /* \"#utility.yul\":1918:2176   */\n  pop\n    /* \"#utility.yul\":1869:2176   */\n  pop\n  pop\n  pop\n  jump\t// out\n    /* \"#utility.yul\":2182:2502   */\ntag_11:\n    /* \"#utility.yul\":2226:2232   */\n  0x00\n    /* \"#utility.yul\":2263:2264   */\n  0x02\n    /* \"#utility.yul\":2257:2261   */\n  dup3\n    /* \"#utility.yul\":2253:2265   */\n  div\n    /* \"#utility.yul\":2243:2265   */\n  swap1\n  pop\n    /* \"#utility.yul\":2310:2311   */\n  0x01\n    /* \"#utility.yul\":2304:2308   */\n  dup3\n    /* \"#utility.yul\":2300:2312   */\n  and\n    /* \"#utility.yul\":2331:2349   */\n  dup1\n    /* \"#utility.yul\":2321:2402   */\n  tag_65\n  jumpi\n    /* \"#utility.yul\":2387:2391   */\n  0x7f\n    /* \"#utility.yul\":2379:2385   */\n  dup3\n    /* \"#utility.yul\":2375:2392   */\n  and\n    /* \"#utility.yul\":2365:2392   */\n  swap2\n  pop\n    /* \"#utility.yul\":2321:2402   */\ntag_65:\n    /* \"#utility.yul\":2449:2451   */\n  0x20\n    /* \"#utility.yul\":2441:2447   */\n  dup3\n    /* \"#utility.yul\":2438:2452   */\n  lt\n    /* \"#utility.yul\":2418:2436   */\n  dup2\n    /* \"#utility.yul\":2415:2453   */\n  eq\n    /* \"#utility.yul\":2412:2496   */\n  iszero\n  tag_66\n  jumpi\n    /* \"#utility.yul\":2468:2486   */\n  tag_67\n  tag_68\n  jump\t// in\ntag_67:\n    /* \"#utility.yul\":2412:2496   */\ntag_66:\n    /* \"#utility.yul\":2233:2502   */\n  pop\n    /* \"#utility.yul\":2182:2502   */\n  swap2\n  swap1\n  pop\n  jump\t// out\n    /* \"#utility.yul\":2508:2789   */\ntag_51:\n    /* \"#utility.yul\":2591:2618   */\n  tag_70\n    /* \"#utility.yul\":2613:2617   */\n  dup3\n    /* \"#utility.yul\":2591:2618   */\n  tag_58\n  jump\t// in\ntag_70:\n    /* \"#utility.yul\":2583:2589   */\n  dup2\n    /* \"#utility.yul\":2579:2619   */\n  add\n    /* \"#utility.yul\":2721:2727   */\n  dup2\n    /* \"#utility.yul\":2709:2719   */\n  dup2\n    /* \"#utility.yul\":2706:2728   */\n  lt\n    /* \"#utility.yul\":2685:2703   */\n  0xffffffffffffffff\n    /* \"#utility.yul\":2673:2683   */\n  dup3\n    /* \"#utility.yul\":2670:2704   */\n  gt\n    /* \"#utility.yul\":2667:2729   */\n  or\n    /* \"#utility.yul\":2664:2752   */\n  iszero\n  tag_71\n  jumpi\n    /* \"#utility.yul\":2732:2750   */\n  tag_72\n  tag_56\n  jump\t// in\ntag_72:\n    /* \"#utility.yul\":2664:2752   */\ntag_71:\n    /* \"#utility.yul\":2772:2782   */\n  dup1\n    /* \"#utility.yul\":2768:2770   */\n  0x40\n    /* \"#utility.yul\":2761:2783   */\n  mstore\n    /* \"#utility.yul\":2551:2789   */\n  pop\n    /* \"#utility.yul\":2508:2789   */\n  pop\n  pop\n  jump\t// out\n    /* \"#utility.yul\":2795:2975   */\ntag_68:\n    /* \"#utility.yul\":2843:2920   */\n  0x4e487b7100000000000000000000000000000000000000000000000000000000\n    /* \"#utility.yul\":2840:2841   */\n  0x00\n    /* \"#utility.yul\":2833:2921   */\n  mstore\n    /* \"#utility.yul\":2940:2944   */\n  0x22\n    /* \"#utility.yul\":2937:2938   */\n  0x04\n    /* \"#utility.yul\":2930:2945   */\n  mstore\n    /* \"#utility.yul\":2964:2968   */\n  0x24\n    /* \"#utility.yul\":2961:2962   */\n  0x00\n    /* \"#utility.yul\":2954:2969   */\n  revert\n    /* \"#utility.yul\":2981:3161   */\ntag_56:\n    /* \"#utility.yul\":3029:3106   */\n  0x4e487b7100000000000000000000000000000000000000000000000000000000\n    /* \"#utility.yul\":3026:3027   */\n  0x00\n    /* \"#utility.yul\":3019:3107   */\n  mstore\n    /* \"#utility.yul\":3126:3130   */\n  0x41\n    /* \"#utility.yul\":3123:3124   */\n  0x04\n    /* \"#utility.yul\":3116:3131   */\n  mstore\n    /* \"#utility.yul\":3150:3154   */\n  0x24\n    /* \"#utility.yul\":3147:3148   */\n  0x00\n    /* \"#utility.yul\":3140:3155   */\n  revert\n    /* \"#utility.yul\":3167:3284   */\ntag_37:\n    /* \"#utility.yul\":3276:3277   */\n  0x00\n    /* \"#utility.yul\":3273:3274   */\n  dup1\n    /* \"#utility.yul\":3266:3278   */\n  revert\n    /* \"#utility.yul\":3290:3407   */\ntag_30:\n    /* \"#utility.yul\":3399:3400   */\n  0x00\n    /* \"#utility.yul\":3396:3397   */\n  dup1\n    /* \"#utility.yul\":3389:3401   */\n  revert\n    /* \"#utility.yul\":3413:3530   */\ntag_45:\n    /* \"#utility.yul\":3522:3523   */\n  0x00\n    /* \"#utility.yul\":3519:3520   */\n  dup1\n    /* \"#utility.yul\":3512:3524   */\n  revert\n    /* \"#utility.yul\":3536:3653   */\ntag_42:\n    /* \"#utility.yul\":3645:3646   */\n  0x00\n    /* \"#utility.yul\":3642:3643   */\n  dup1\n    /* \"#utility.yul\":3635:3647   */\n  revert\n    /* \"#utility.yul\":3659:3761   */\ntag_58:\n    /* \"#utility.yul\":3700:3706   */\n  0x00\n    /* \"#utility.yul\":3751:3753   */\n  0x1f\n    /* \"#utility.yul\":3747:3754   */\n  not\n    /* \"#utility.yul\":3742:3744   */\n  0x1f\n    /* \"#utility.yul\":3735:3740   */\n  dup4\n    /* \"#utility.yul\":3731:3745   */\n  add\n    /* \"#utility.yul\":3727:3755   */\n  and\n    /* \"#utility.yul\":3717:3755   */\n  swap1\n  pop\n    /* \"#utility.yul\":3659:3761   */\n  swap2\n  swap1\n  pop\n  jump\t// out\n    /* \"NFTES_Drop_flat.sol\":15472:23241  contract NFTES_Drop is ERC1155_Drop {... */\ntag_9:\n  dataSize(sub_0)\n  dup1\n  dataOffset(sub_0)\n  0x00\n  codecopy\n  0x00\n  return\nstop\n\nsub_0: assembly {\n        /* \"NFTES_Drop_flat.sol\":15472:23241  contract NFTES_Drop is ERC1155_Drop {... */\n      mstore(0x40, 0x80)\n      jumpi(tag_1, lt(calldatasize, 0x04))\n      shr(0xe0, calldataload(0x00))\n      dup1\n      0x60daa851\n      gt\n      tag_17\n      jumpi\n      dup1\n      0xaa90c726\n      gt\n      tag_18\n      jumpi\n      dup1\n      0xaa90c726\n      eq\n      tag_13\n      jumpi\n      dup1\n      0xb187bd26\n      eq\n      tag_14\n      jumpi\n      dup1\n      0xb4a99a4e\n      eq\n      tag_15\n      jumpi\n      dup1\n      0xeddd0d9c\n      eq\n      tag_16\n      jumpi\n      jump(tag_1)\n    tag_18:\n      dup1\n      0x60daa851\n      eq\n      tag_9\n      jumpi\n      dup1\n      0x7a5caab3\n      eq\n      tag_10\n      jumpi\n      dup1\n      0x8b7afe2e\n      eq\n      tag_11\n      jumpi\n      dup1\n      0xa6f9dae1\n      eq\n      tag_12\n      jumpi\n      jump(tag_1)\n    tag_17:\n      dup1\n      0x225011da\n      gt\n      tag_19\n      jumpi\n      dup1\n      0x225011da\n      eq\n      tag_5\n      jumpi\n      dup1\n      0x546fd992\n      eq\n      tag_6\n      jumpi\n      dup1\n      0x5b27d84e\n      eq\n      tag_7\n      jumpi\n      dup1\n      0x5e1f0556\n      eq\n      tag_8\n      jumpi\n      jump(tag_1)\n    tag_19:\n      dup1\n      0x0390c11c\n      eq\n      tag_2\n      jumpi\n      dup1\n      0x15460259\n      eq\n      tag_3\n      jumpi\n      dup1\n      0x191e2e83\n      eq\n      tag_4\n      jumpi\n    tag_1:\n      0x00\n      dup1\n      revert\n        /* \"NFTES_Drop_flat.sol\":18023:18120  function checkTotalMinted() public view returns (uint256) {... */\n    tag_2:\n      callvalue\n      dup1\n      iszero\n      tag_20\n      jumpi\n      0x00\n      dup1\n      revert\n    tag_20:\n      pop\n      tag_21\n      tag_22\n      jump\t// in\n    tag_21:\n      mload(0x40)\n      tag_23\n      swap2\n      swap1\n      tag_24\n      jump\t// in\n    tag_23:\n      mload(0x40)\n      dup1\n      swap2\n      sub\n      swap1\n      return\n        /* \"NFTES_Drop_flat.sol\":18272:18412  function openDropsite() public OnlyOwner {... */\n    tag_3:\n      callvalue\n      dup1\n      iszero\n      tag_25\n      jumpi\n      0x00\n      dup1\n      revert\n    tag_25:\n      pop\n      tag_26\n      tag_27\n      jump\t// in\n    tag_26:\n      stop\n        /* \"NFTES_Drop_flat.sol\":18501:18726  function withDraw(address payable to, uint amount) public payable OnlyOwner {... */\n    tag_4:\n      tag_28\n      0x04\n      dup1\n      calldatasize\n      sub\n      dup2\n      add\n      swap1\n      tag_29\n      swap2\n      swap1\n      tag_30\n      jump\t// in\n    tag_29:\n      tag_31\n      jump\t// in\n    tag_28:\n      stop\n        /* \"NFTES_Drop_flat.sol\":17163:17365  function returnNftsOwner(address addr)... */\n    tag_5:\n      callvalue\n      dup1\n      iszero\n      tag_32\n      jumpi\n      0x00\n      dup1\n      revert\n    tag_32:\n      pop\n      tag_33\n      0x04\n      dup1\n      calldatasize\n      sub\n      dup2\n      add\n      swap1\n      tag_34\n      swap2\n      swap1\n      tag_35\n      jump\t// in\n    tag_34:\n      tag_36\n      jump\t// in\n    tag_33:\n      mload(0x40)\n      tag_37\n      swap2\n      swap1\n      tag_38\n      jump\t// in\n    tag_37:\n      mload(0x40)\n      dup1\n      swap2\n      sub\n      swap1\n      return\n        /* \"NFTES_Drop_flat.sol\":21236:21750  function randomMinting(address user_addr)... */\n    tag_6:\n      tag_39\n      0x04\n      dup1\n      calldatasize\n      sub\n      dup2\n      add\n      swap1\n      tag_40\n      swap2\n      swap1\n      tag_35\n      jump\t// in\n    tag_40:\n      tag_41\n      jump\t// in\n    tag_39:\n      mload(0x40)\n      tag_42\n      swap3\n      swap2\n      swap1\n      tag_43\n      jump\t// in\n    tag_42:\n      mload(0x40)\n      dup1\n      swap2\n      sub\n      swap1\n      return\n        /* \"NFTES_Drop_flat.sol\":22565:23239  function cryptoRandomMint(address user_addr, uint256 noOfMints)... */\n    tag_7:\n      tag_44\n      0x04\n      dup1\n      calldatasize\n      sub\n      dup2\n      add\n      swap1\n      tag_45\n      swap2\n      swap1\n      tag_46\n      jump\t// in\n    tag_45:\n      tag_47\n      jump\t// in\n    tag_44:\n      mload(0x40)\n      tag_48\n      swap2\n      swap1\n      tag_38\n      jump\t// in\n    tag_48:\n      mload(0x40)\n      dup1\n      swap2\n      sub\n      swap1\n      return\n        /* \"NFTES_Drop_flat.sol\":21797:22350  function fiatRandomMint(address user_addr, uint256 noOfMints)... */\n    tag_8:\n      callvalue\n      dup1\n      iszero\n      tag_49\n      jumpi\n      0x00\n      dup1\n      revert\n    tag_49:\n      pop\n      tag_50\n      0x04\n      dup1\n      calldatasize\n      sub\n      dup2\n      add\n      swap1\n      tag_51\n      swap2\n      swap1\n      tag_46\n      jump\t// in\n    tag_51:\n      tag_52\n      jump\t// in\n    tag_50:\n      mload(0x40)\n      tag_53\n      swap2\n      swap1\n      tag_38\n      jump\t// in\n    tag_53:\n      mload(0x40)\n      dup1\n      swap2\n      sub\n      swap1\n      return\n        /* \"NFTES_Drop_flat.sol\":17418:17659  function checkMintedCategoryWise()... */\n    tag_9:\n      callvalue\n      dup1\n      iszero\n      tag_54\n      jumpi\n      0x00\n      dup1\n      revert\n    tag_54:\n      pop\n      tag_55\n      tag_56\n      jump\t// in\n    tag_55:\n      mload(0x40)\n      tag_57\n      swap4\n      swap3\n      swap2\n      swap1\n      tag_58\n      jump\t// in\n    tag_57:\n      mload(0x40)\n      dup1\n      swap2\n      sub\n      swap1\n      return\n        /* \"NFTES_Drop_flat.sol\":17844:17984  function getMintFee()... */\n    tag_10:\n      callvalue\n      dup1\n      iszero\n      tag_59\n      jumpi\n      0x00\n      dup1\n      revert\n    tag_59:\n      pop\n      tag_60\n      tag_61\n      jump\t// in\n    tag_60:\n      mload(0x40)\n      tag_62\n      swap2\n      swap1\n      tag_24\n      jump\t// in\n    tag_62:\n      mload(0x40)\n      dup1\n      swap2\n      sub\n      swap1\n      return\n        /* \"NFTES_Drop_flat.sol\":18771:18883  function contractBalance() public view OnlyOwner returns (uint256) {... */\n    tag_11:\n      callvalue\n      dup1\n      iszero\n      tag_63\n      jumpi\n      0x00\n      dup1\n      revert\n    tag_63:\n      pop\n      tag_64\n      tag_65\n      jump\t// in\n    tag_64:\n      mload(0x40)\n      tag_66\n      swap2\n      swap1\n      tag_24\n      jump\t// in\n    tag_66:\n      mload(0x40)\n      dup1\n      swap2\n      sub\n      swap1\n      return\n        /* \"NFTES_Drop_flat.sol\":16965:17119  function changeOwner(address newOwnerAddr)... */\n    tag_12:\n      callvalue\n      dup1\n      iszero\n      tag_67\n      jumpi\n      0x00\n      dup1\n      revert\n    tag_67:\n      pop\n      tag_68\n      0x04\n      dup1\n      calldatasize\n      sub\n      dup2\n      add\n      swap1\n      tag_69\n      swap2\n      swap1\n      tag_35\n      jump\t// in\n    tag_69:\n      tag_70\n      jump\t// in\n    tag_68:\n      stop\n        /* \"NFTES_Drop_flat.sol\":18126:18266  function stopDropsite() public OnlyOwner {... */\n    tag_13:\n      callvalue\n      dup1\n      iszero\n      tag_71\n      jumpi\n      0x00\n      dup1\n      revert\n    tag_71:\n      pop\n      tag_72\n      tag_73\n      jump\t// in\n    tag_72:\n      stop\n        /* \"NFTES_Drop_flat.sol\":16547:16574  bool public isPaused = true */\n    tag_14:\n      callvalue\n      dup1\n      iszero\n      tag_74\n      jumpi\n      0x00\n      dup1\n      revert\n    tag_74:\n      pop\n      tag_75\n      tag_76\n      jump\t// in\n    tag_75:\n      mload(0x40)\n      tag_77\n      swap2\n      swap1\n      tag_78\n      jump\t// in\n    tag_77:\n      mload(0x40)\n      dup1\n      swap2\n      sub\n      swap1\n      return\n        /* \"NFTES_Drop_flat.sol\":16580:16608  address payable public Owner */\n    tag_15:\n      callvalue\n      dup1\n      iszero\n      tag_79\n      jumpi\n      0x00\n      dup1\n      revert\n    tag_79:\n      pop\n      tag_80\n      tag_81\n      jump\t// in\n    tag_80:\n      mload(0x40)\n      tag_82\n      swap2\n      swap1\n      tag_83\n      jump\t// in\n    tag_82:\n      mload(0x40)\n      dup1\n      swap2\n      sub\n      swap1\n      return\n        /* \"NFTES_Drop_flat.sol\":17703:17811  function setMintFee(uint _mintFee) public OnlyOwner contractIsNotPaused {... */\n    tag_16:\n      callvalue\n      dup1\n      iszero\n      tag_84\n      jumpi\n      0x00\n      dup1\n      revert\n    tag_84:\n      pop\n      tag_85\n      0x04\n      dup1\n      calldatasize\n      sub\n      dup2\n      add\n      swap1\n      tag_86\n      swap2\n      swap1\n      tag_87\n      jump\t// in\n    tag_86:\n      tag_88\n      jump\t// in\n    tag_85:\n      stop\n        /* \"NFTES_Drop_flat.sol\":18023:18120  function checkTotalMinted() public view returns (uint256) {... */\n    tag_22:\n        /* \"NFTES_Drop_flat.sol\":18072:18079  uint256 */\n      0x00\n        /* \"NFTES_Drop_flat.sol\":18098:18113  totalNFTsMinted */\n      sload(0x03)\n        /* \"NFTES_Drop_flat.sol\":18091:18113  return totalNFTsMinted */\n      swap1\n      pop\n        /* \"NFTES_Drop_flat.sol\":18023:18120  function checkTotalMinted() public view returns (uint256) {... */\n      swap1\n      jump\t// out\n        /* \"NFTES_Drop_flat.sol\":18272:18412  function openDropsite() public OnlyOwner {... */\n    tag_27:\n        /* \"NFTES_Drop_flat.sol\":16205:16210  Owner */\n      0x0e\n      0x01\n      swap1\n      sload\n      swap1\n      0x0100\n      exp\n      swap1\n      div\n      0xffffffffffffffffffffffffffffffffffffffff\n      and\n        /* \"NFTES_Drop_flat.sol\":16189:16210  _msgSender() == Owner */\n      0xffffffffffffffffffffffffffffffffffffffff\n      and\n        /* \"NFTES_Drop_flat.sol\":16189:16201  _msgSender() */\n      tag_91\n        /* \"NFTES_Drop_flat.sol\":16189:16199  _msgSender */\n      tag_92\n        /* \"NFTES_Drop_flat.sol\":16189:16201  _msgSender() */\n      jump\t// in\n    tag_91:\n        /* \"NFTES_Drop_flat.sol\":16189:16210  _msgSender() == Owner */\n      0xffffffffffffffffffffffffffffffffffffffff\n      and\n      eq\n        /* \"NFTES_Drop_flat.sol\":16181:16243  require(_msgSender() == Owner, \"Only NFT-ES Owner can Access\") */\n      tag_93\n      jumpi\n      mload(0x40)\n      0x08c379a000000000000000000000000000000000000000000000000000000000\n      dup2\n      mstore\n      0x04\n      add\n      tag_94\n      swap1\n      tag_95\n      jump\t// in\n    tag_94:\n      mload(0x40)\n      dup1\n      swap2\n      sub\n      swap1\n      revert\n    tag_93:\n        /* \"NFTES_Drop_flat.sol\":18343:18347  true */\n      0x01\n        /* \"NFTES_Drop_flat.sol\":18331:18347  isPaused == true */\n      iszero\n      iszero\n        /* \"NFTES_Drop_flat.sol\":18331:18339  isPaused */\n      0x0e\n      0x00\n      swap1\n      sload\n      swap1\n      0x0100\n      exp\n      swap1\n      div\n      0xff\n      and\n        /* \"NFTES_Drop_flat.sol\":18331:18347  isPaused == true */\n      iszero\n      iszero\n      eq\n        /* \"NFTES_Drop_flat.sol\":18323:18379  require(isPaused == true, \"Dropsite is already Running\") */\n      tag_97\n      jumpi\n      mload(0x40)\n      0x08c379a000000000000000000000000000000000000000000000000000000000\n      dup2\n      mstore\n      0x04\n      add\n      tag_98\n      swap1\n      tag_99\n      jump\t// in\n    tag_98:\n      mload(0x40)\n      dup1\n      swap2\n      sub\n      swap1\n      revert\n    tag_97:\n        /* \"NFTES_Drop_flat.sol\":18400:18405  false */\n      0x00\n        /* \"NFTES_Drop_flat.sol\":18389:18397  isPaused */\n      0x0e\n      0x00\n        /* \"NFTES_Drop_flat.sol\":18389:18405  isPaused = false */\n      0x0100\n      exp\n      dup2\n      sload\n      dup2\n      0xff\n      mul\n      not\n      and\n      swap1\n      dup4\n      iszero\n      iszero\n      mul\n      or\n      swap1\n      sstore\n      pop\n        /* \"NFTES_Drop_flat.sol\":18272:18412  function openDropsite() public OnlyOwner {... */\n      jump\t// out\n        /* \"NFTES_Drop_flat.sol\":18501:18726  function withDraw(address payable to, uint amount) public payable OnlyOwner {... */\n    tag_31:\n        /* \"NFTES_Drop_flat.sol\":16205:16210  Owner */\n      0x0e\n      0x01\n      swap1\n      sload\n      swap1\n      0x0100\n      exp\n      swap1\n      div\n      0xffffffffffffffffffffffffffffffffffffffff\n      and\n        /* \"NFTES_Drop_flat.sol\":16189:16210  _msgSender() == Owner */\n      0xffffffffffffffffffffffffffffffffffffffff\n      and\n        /* \"NFTES_Drop_flat.sol\":16189:16201  _msgSender() */\n      tag_101\n        /* \"NFTES_Drop_flat.sol\":16189:16199  _msgSender */\n      tag_92\n        /* \"NFTES_Drop_flat.sol\":16189:16201  _msgSender() */\n      jump\t// in\n    tag_101:\n        /* \"NFTES_Drop_flat.sol\":16189:16210  _msgSender() == Owner */\n      0xffffffffffffffffffffffffffffffffffffffff\n      and\n      eq\n        /* \"NFTES_Drop_flat.sol\":16181:16243  require(_msgSender() == Owner, \"Only NFT-ES Owner can Access\") */\n      tag_102\n      jumpi\n      mload(0x40)\n      0x08c379a000000000000000000000000000000000000000000000000000000000\n      dup2\n      mstore\n      0x04\n      add\n      tag_103\n      swap1\n      tag_95\n      jump\t// in\n    tag_103:\n      mload(0x40)\n      dup1\n      swap2\n      sub\n      swap1\n      revert\n    tag_102:\n        /* \"NFTES_Drop_flat.sol\":18587:18602  uint256 Balance */\n      0x00\n        /* \"NFTES_Drop_flat.sol\":18605:18626  address(this).balance */\n      selfbalance\n        /* \"NFTES_Drop_flat.sol\":18587:18626  uint256 Balance = address(this).balance */\n      swap1\n      pop\n        /* \"NFTES_Drop_flat.sol\":18653:18660  Balance */\n      dup1\n        /* \"NFTES_Drop_flat.sol\":18644:18650  amount */\n      dup3\n        /* \"NFTES_Drop_flat.sol\":18644:18660  amount > Balance */\n      gt\n        /* \"NFTES_Drop_flat.sol\":18636:18690  require(amount > Balance, \"Error! Not Enough Balance\") */\n      tag_105\n      jumpi\n      mload(0x40)\n      0x08c379a000000000000000000000000000000000000000000000000000000000\n      dup2\n      mstore\n      0x04\n      add\n      tag_106\n      swap1\n      tag_107\n      jump\t// in\n    tag_106:\n      mload(0x40)\n      dup1\n      swap2\n      sub\n      swap1\n      revert\n    tag_105:\n        /* \"NFTES_Drop_flat.sol\":18700:18702  to */\n      dup3\n        /* \"NFTES_Drop_flat.sol\":18700:18711  to.transfer */\n      0xffffffffffffffffffffffffffffffffffffffff\n      and\n        /* \"NFTES_Drop_flat.sol\":18700:18719  to.transfer(amount) */\n      0x08fc\n        /* \"NFTES_Drop_flat.sol\":18712:18718  amount */\n      dup4\n        /* \"NFTES_Drop_flat.sol\":18700:18719  to.transfer(amount) */\n      swap1\n      dup2\n      iszero\n      mul\n      swap1\n      mload(0x40)\n      0x00\n      mload(0x40)\n      dup1\n      dup4\n      sub\n      dup2\n      dup6\n      dup9\n      dup9\n      call\n      swap4\n      pop\n      pop\n      pop\n      pop\n      iszero\n      dup1\n      iszero\n      tag_109\n      jumpi\n      returndatasize\n      0x00\n      dup1\n      returndatacopy\n      revert(0x00, returndatasize)\n    tag_109:\n      pop\n        /* \"NFTES_Drop_flat.sol\":18577:18726  {... */\n      pop\n        /* \"NFTES_Drop_flat.sol\":18501:18726  function withDraw(address payable to, uint amount) public payable OnlyOwner {... */\n      pop\n      pop\n      jump\t// out\n        /* \"NFTES_Drop_flat.sol\":17163:17365  function returnNftsOwner(address addr)... */\n    tag_36:\n        /* \"NFTES_Drop_flat.sol\":17275:17291  uint256[] memory */\n      0x60\n        /* \"NFTES_Drop_flat.sol\":16370:16375  false */\n      0x00\n        /* \"NFTES_Drop_flat.sol\":16358:16375  isPaused == false */\n      iszero\n      iszero\n        /* \"NFTES_Drop_flat.sol\":16358:16366  isPaused */\n      0x0e\n      0x00\n      swap1\n      sload\n      swap1\n      0x0100\n      exp\n      swap1\n      div\n      0xff\n      and\n        /* \"NFTES_Drop_flat.sol\":16358:16375  isPaused == false */\n      iszero\n      iszero\n      eq\n        /* \"NFTES_Drop_flat.sol\":16350:16407  require(isPaused == false, \"Dropsite is not Opened Yet.\") */\n      tag_111\n      jumpi\n      mload(0x40)\n      0x08c379a000000000000000000000000000000000000000000000000000000000\n      dup2\n      mstore\n      0x04\n      add\n      tag_112\n      swap1\n      tag_113\n      jump\t// in\n    tag_112:\n      mload(0x40)\n      dup1\n      swap2\n      sub\n      swap1\n      revert\n    tag_111:\n        /* \"NFTES_Drop_flat.sol\":17314:17332  dropsite_NFT_Owner */\n      0x0c\n        /* \"NFTES_Drop_flat.sol\":17314:17338  dropsite_NFT_Owner[addr] */\n      0x00\n        /* \"NFTES_Drop_flat.sol\":17333:17337  addr */\n      dup4\n        /* \"NFTES_Drop_flat.sol\":17314:17338  dropsite_NFT_Owner[addr] */\n      0xffffffffffffffffffffffffffffffffffffffff\n      and\n      0xffffffffffffffffffffffffffffffffffffffff\n      and\n      dup2\n      mstore\n      0x20\n      add\n      swap1\n      dup2\n      mstore\n      0x20\n      add\n      0x00\n      keccak256\n        /* \"NFTES_Drop_flat.sol\":17314:17358  dropsite_NFT_Owner[addr].owned_Dropsite_NFTs */\n      0x00\n      add\n        /* \"NFTES_Drop_flat.sol\":17307:17358  return dropsite_NFT_Owner[addr].owned_Dropsite_NFTs */\n      dup1\n      sload\n      dup1\n      0x20\n      mul\n      0x20\n      add\n      mload(0x40)\n      swap1\n      dup2\n      add\n      0x40\n      mstore\n      dup1\n      swap3\n      swap2\n      swap1\n      dup2\n      dup2\n      mstore\n      0x20\n      add\n      dup3\n      dup1\n      sload\n      dup1\n      iszero\n      tag_115\n      jumpi\n      0x20\n      mul\n      dup3\n      add\n      swap2\n      swap1\n      0x00\n      mstore\n      keccak256(0x00, 0x20)\n      swap1\n    tag_116:\n      dup2\n      sload\n      dup2\n      mstore\n      0x20\n      add\n      swap1\n      0x01\n      add\n      swap1\n      dup1\n      dup4\n      gt\n      tag_116\n      jumpi\n    tag_115:\n      pop\n      pop\n      pop\n      pop\n      pop\n      swap1\n      pop\n        /* \"NFTES_Drop_flat.sol\":17163:17365  function returnNftsOwner(address addr)... */\n      swap2\n      swap1\n      pop\n      jump\t// out\n        /* \"NFTES_Drop_flat.sol\":21236:21750  function randomMinting(address user_addr)... */\n    tag_41:\n        /* \"NFTES_Drop_flat.sol\":21372:21379  uint256 */\n      0x00\n        /* \"NFTES_Drop_flat.sol\":21381:21394  string memory */\n      0x60\n        /* \"NFTES_Drop_flat.sol\":16205:16210  Owner */\n      0x0e\n      0x01\n      swap1\n      sload\n      swap1\n      0x0100\n      exp\n      swap1\n      div\n      0xffffffffffffffffffffffffffffffffffffffff\n      and\n        /* \"NFTES_Drop_flat.sol\":16189:16210  _msgSender() == Owner */\n      0xffffffffffffffffffffffffffffffffffffffff\n      and\n        /* \"NFTES_Drop_flat.sol\":16189:16201  _msgSender() */\n      tag_118\n        /* \"NFTES_Drop_flat.sol\":16189:16199  _msgSender */\n      tag_92\n        /* \"NFTES_Drop_flat.sol\":16189:16201  _msgSender() */\n      jump\t// in\n    tag_118:\n        /* \"NFTES_Drop_flat.sol\":16189:16210  _msgSender() == Owner */\n      0xffffffffffffffffffffffffffffffffffffffff\n      and\n      eq\n        /* \"NFTES_Drop_flat.sol\":16181:16243  require(_msgSender() == Owner, \"Only NFT-ES Owner can Access\") */\n      tag_119\n      jumpi\n      mload(0x40)\n      0x08c379a000000000000000000000000000000000000000000000000000000000\n      dup2\n      mstore\n      0x04\n      add\n      tag_120\n      swap1\n      tag_95\n      jump\t// in\n    tag_120:\n      mload(0x40)\n      dup1\n      swap2\n      sub\n      swap1\n      revert\n    tag_119:\n        /* \"NFTES_Drop_flat.sol\":16370:16375  false */\n      0x00\n        /* \"NFTES_Drop_flat.sol\":16358:16375  isPaused == false */\n      iszero\n      iszero\n        /* \"NFTES_Drop_flat.sol\":16358:16366  isPaused */\n      0x0e\n      0x00\n      swap1\n      sload\n      swap1\n      0x0100\n      exp\n      swap1\n      div\n      0xff\n      and\n        /* \"NFTES_Drop_flat.sol\":16358:16375  isPaused == false */\n      iszero\n      iszero\n      eq\n        /* \"NFTES_Drop_flat.sol\":16350:16407  require(isPaused == false, \"Dropsite is not Opened Yet.\") */\n      tag_122\n      jumpi\n      mload(0x40)\n      0x08c379a000000000000000000000000000000000000000000000000000000000\n      dup2\n      mstore\n      0x04\n      add\n      tag_123\n      swap1\n      tag_113\n      jump\t// in\n    tag_123:\n      mload(0x40)\n      dup1\n      swap2\n      sub\n      swap1\n      revert\n    tag_122:\n        /* \"NFTES_Drop_flat.sol\":21490:21503  uint256 index */\n      0x00\n        /* \"NFTES_Drop_flat.sol\":21506:21514  random() */\n      tag_125\n        /* \"NFTES_Drop_flat.sol\":21506:21512  random */\n      tag_126\n        /* \"NFTES_Drop_flat.sol\":21506:21514  random() */\n      jump\t// in\n    tag_125:\n        /* \"NFTES_Drop_flat.sol\":21490:21514  uint256 index = random() */\n      swap1\n      pop\n        /* \"NFTES_Drop_flat.sol\":21524:21537  uint256 nftId */\n      0x00\n        /* \"NFTES_Drop_flat.sol\":21540:21563  updateConditions(index) */\n      tag_127\n        /* \"NFTES_Drop_flat.sol\":21557:21562  index */\n      dup3\n        /* \"NFTES_Drop_flat.sol\":21540:21556  updateConditions */\n      tag_128\n        /* \"NFTES_Drop_flat.sol\":21540:21563  updateConditions(index) */\n      jump\t// in\n    tag_127:\n        /* \"NFTES_Drop_flat.sol\":21524:21563  uint256 nftId = updateConditions(index) */\n      swap1\n      pop\n        /* \"NFTES_Drop_flat.sol\":21573:21615  _mint(user_addr, nftId, numOfCopies, data) */\n      tag_129\n        /* \"NFTES_Drop_flat.sol\":21579:21588  user_addr */\n      dup6\n        /* \"NFTES_Drop_flat.sol\":21590:21595  nftId */\n      dup3\n        /* \"NFTES_Drop_flat.sol\":21597:21608  numOfCopies */\n      sload(0x04)\n        /* \"NFTES_Drop_flat.sol\":21610:21614  data */\n      0x02\n        /* \"NFTES_Drop_flat.sol\":21573:21615  _mint(user_addr, nftId, numOfCopies, data) */\n      dup1\n      sload\n      tag_130\n      swap1\n      tag_131\n      jump\t// in\n    tag_130:\n      dup1\n      0x1f\n      add\n      0x20\n      dup1\n      swap2\n      div\n      mul\n      0x20\n      add\n      mload(0x40)\n      swap1\n      dup2\n      add\n      0x40\n      mstore\n      dup1\n      swap3\n      swap2\n      swap1\n      dup2\n      dup2\n      mstore\n      0x20\n      add\n      dup3\n      dup1\n      sload\n      tag_132\n      swap1\n      tag_131\n      jump\t// in\n    tag_132:\n      dup1\n      iszero\n      tag_133\n      jumpi\n      dup1\n      0x1f\n      lt\n      tag_134\n      jumpi\n      0x0100\n      dup1\n      dup4\n      sload\n      div\n      mul\n      dup4\n      mstore\n      swap2\n      0x20\n      add\n      swap2\n      jump(tag_133)\n    tag_134:\n      dup3\n      add\n      swap2\n      swap1\n      0x00\n      mstore\n      keccak256(0x00, 0x20)\n      swap1\n    tag_135:\n      dup2\n      sload\n      dup2\n      mstore\n      swap1\n      0x01\n      add\n      swap1\n      0x20\n      add\n      dup1\n      dup4\n      gt\n      tag_135\n      jumpi\n      dup3\n      swap1\n      sub\n      0x1f\n      and\n      dup3\n      add\n      swap2\n    tag_133:\n      pop\n      pop\n      pop\n      pop\n      pop\n        /* \"NFTES_Drop_flat.sol\":21573:21578  _mint */\n      tag_136\n        /* \"NFTES_Drop_flat.sol\":21573:21615  _mint(user_addr, nftId, numOfCopies, data) */\n      jump\t// in\n    tag_129:\n        /* \"NFTES_Drop_flat.sol\":21625:21640  totalNFTsMinted */\n      0x03\n      0x00\n        /* \"NFTES_Drop_flat.sol\":21625:21642  totalNFTsMinted++ */\n      dup2\n      sload\n      dup1\n      swap3\n      swap2\n      swap1\n      tag_137\n      swap1\n      tag_138\n      jump\t// in\n    tag_137:\n      swap2\n      swap1\n      pop\n      sstore\n      pop\n        /* \"NFTES_Drop_flat.sol\":21652:21670  dropsite_NFT_Owner */\n      0x0c\n        /* \"NFTES_Drop_flat.sol\":21652:21681  dropsite_NFT_Owner[user_addr] */\n      0x00\n        /* \"NFTES_Drop_flat.sol\":21671:21680  user_addr */\n      dup7\n        /* \"NFTES_Drop_flat.sol\":21652:21681  dropsite_NFT_Owner[user_addr] */\n      0xffffffffffffffffffffffffffffffffffffffff\n      and\n      0xffffffffffffffffffffffffffffffffffffffff\n      and\n      dup2\n      mstore\n      0x20\n      add\n      swap1\n      dup2\n      mstore\n      0x20\n      add\n      0x00\n      keccak256\n        /* \"NFTES_Drop_flat.sol\":21652:21701  dropsite_NFT_Owner[user_addr].owned_Dropsite_NFTs */\n      0x00\n      add\n        /* \"NFTES_Drop_flat.sol\":21707:21712  nftId */\n      dup2\n        /* \"NFTES_Drop_flat.sol\":21652:21713  dropsite_NFT_Owner[user_addr].owned_Dropsite_NFTs.push(nftId) */\n      swap1\n      dup1\n      0x01\n      dup2\n      sload\n      add\n      dup1\n      dup3\n      sstore\n      dup1\n      swap2\n      pop\n      pop\n      0x01\n      swap1\n      sub\n      swap1\n      0x00\n      mstore\n      keccak256(0x00, 0x20)\n      add\n      0x00\n      swap1\n      swap2\n      swap1\n      swap2\n      swap1\n      swap2\n      pop\n      sstore\n        /* \"NFTES_Drop_flat.sol\":21731:21736  nftId */\n      dup1\n        /* \"NFTES_Drop_flat.sol\":21738:21742  data */\n      0x02\n        /* \"NFTES_Drop_flat.sol\":21723:21743  return (nftId, data) */\n      dup1\n      dup1\n      sload\n      tag_140\n      swap1\n      tag_131\n      jump\t// in\n    tag_140:\n      dup1\n      0x1f\n      add\n      0x20\n      dup1\n      swap2\n      div\n      mul\n      0x20\n      add\n      mload(0x40)\n      swap1\n      dup2\n      add\n      0x40\n      mstore\n      dup1\n      swap3\n      swap2\n      swap1\n      dup2\n      dup2\n      mstore\n      0x20\n      add\n      dup3\n      dup1\n      sload\n      tag_141\n      swap1\n      tag_131\n      jump\t// in\n    tag_141:\n      dup1\n      iszero\n      tag_142\n      jumpi\n      dup1\n      0x1f\n      lt\n      tag_143\n      jumpi\n      0x0100\n      dup1\n      dup4\n      sload\n      div\n      mul\n      dup4\n      mstore\n      swap2\n      0x20\n      add\n      swap2\n      jump(tag_142)\n    tag_143:\n      dup3\n      add\n      swap2\n      swap1\n      0x00\n      mstore\n      keccak256(0x00, 0x20)\n      swap1\n    tag_144:\n      dup2\n      sload\n      dup2\n      mstore\n      swap1\n      0x01\n      add\n      swap1\n      0x20\n      add\n      dup1\n      dup4\n      gt\n      tag_144\n      jumpi\n      dup3\n      swap1\n      sub\n      0x1f\n      and\n      dup3\n      add\n      swap2\n    tag_142:\n      pop\n      pop\n      pop\n      pop\n      pop\n      swap1\n      pop\n      swap4\n      pop\n      swap4\n      pop\n      pop\n      pop\n        /* \"NFTES_Drop_flat.sol\":21236:21750  function randomMinting(address user_addr)... */\n      swap2\n      pop\n      swap2\n      jump\t// out\n        /* \"NFTES_Drop_flat.sol\":22565:23239  function cryptoRandomMint(address user_addr, uint256 noOfMints)... */\n    tag_47:\n        /* \"NFTES_Drop_flat.sol\":22729:22745  uint256[] memory */\n      0x60\n        /* \"NFTES_Drop_flat.sol\":16370:16375  false */\n      0x00\n        /* \"NFTES_Drop_flat.sol\":16358:16375  isPaused == false */\n      iszero\n      iszero\n        /* \"NFTES_Drop_flat.sol\":16358:16366  isPaused */\n      0x0e\n      0x00\n      swap1\n      sload\n      swap1\n      0x0100\n      exp\n      swap1\n      div\n      0xff\n      and\n        /* \"NFTES_Drop_flat.sol\":16358:16375  isPaused == false */\n      iszero\n      iszero\n      eq\n        /* \"NFTES_Drop_flat.sol\":16350:16407  require(isPaused == false, \"Dropsite is not Opened Yet.\") */\n      tag_146\n      jumpi\n      mload(0x40)\n      0x08c379a000000000000000000000000000000000000000000000000000000000\n      dup2\n      mstore\n      0x04\n      add\n      tag_147\n      swap1\n      tag_113\n      jump\t// in\n    tag_147:\n      mload(0x40)\n      dup1\n      swap2\n      sub\n      swap1\n      revert\n    tag_146:\n        /* \"NFTES_Drop_flat.sol\":16487:16488  0 */\n      0x00\n        /* \"NFTES_Drop_flat.sol\":16475:16483  mintFees */\n      sload(0x05)\n        /* \"NFTES_Drop_flat.sol\":16475:16488  mintFees != 0 */\n      eq\n      iszero\n        /* \"NFTES_Drop_flat.sol\":16467:16524  require(mintFees != 0, \"Owner Should set mint Fee First\") */\n      tag_149\n      jumpi\n      mload(0x40)\n      0x08c379a000000000000000000000000000000000000000000000000000000000\n      dup2\n      mstore\n      0x04\n      add\n      tag_150\n      swap1\n      tag_151\n      jump\t// in\n    tag_150:\n      mload(0x40)\n      dup1\n      swap2\n      sub\n      swap1\n      revert\n    tag_149:\n        /* \"NFTES_Drop_flat.sol\":22781:22782  4 */\n      0x04\n        /* \"NFTES_Drop_flat.sol\":22769:22778  noOfMints */\n      dup3\n        /* \"NFTES_Drop_flat.sol\":22769:22782  noOfMints < 4 */\n      lt\n        /* \"NFTES_Drop_flat.sol\":22769:22799  noOfMints < 4 && noOfMints > 0 */\n      dup1\n      iszero\n      tag_153\n      jumpi\n      pop\n        /* \"NFTES_Drop_flat.sol\":22798:22799  0 */\n      0x00\n        /* \"NFTES_Drop_flat.sol\":22786:22795  noOfMints */\n      dup3\n        /* \"NFTES_Drop_flat.sol\":22786:22799  noOfMints > 0 */\n      gt\n        /* \"NFTES_Drop_flat.sol\":22769:22799  noOfMints < 4 && noOfMints > 0 */\n    tag_153:\n        /* \"NFTES_Drop_flat.sol\":22761:22825  require(noOfMints < 4 && noOfMints > 0, \"You can mint 1-3 NFTs\") */\n      tag_154\n      jumpi\n      mload(0x40)\n      0x08c379a000000000000000000000000000000000000000000000000000000000\n      dup2\n      mstore\n      0x04\n      add\n      tag_155\n      swap1\n      tag_156\n      jump\t// in\n    tag_155:\n      mload(0x40)\n      dup1\n      swap2\n      sub\n      swap1\n      revert\n    tag_154:\n        /* \"NFTES_Drop_flat.sol\":22861:22865  1000 */\n      0x03e8\n        /* \"NFTES_Drop_flat.sol\":22843:22858  totalNFTsMinted */\n      sload(0x03)\n        /* \"NFTES_Drop_flat.sol\":22843:22865  totalNFTsMinted < 1000 */\n      lt\n        /* \"NFTES_Drop_flat.sol\":22835:22895  require(totalNFTsMinted < 1000, \"Max Minting Limit reached\") */\n      tag_157\n      jumpi\n      mload(0x40)\n      0x08c379a000000000000000000000000000000000000000000000000000000000\n      dup2\n      mstore\n      0x04\n      add\n      tag_158\n      swap1\n      tag_159\n      jump\t// in\n    tag_158:\n      mload(0x40)\n      dup1\n      swap2\n      sub\n      swap1\n      revert\n    tag_157:\n        /* \"NFTES_Drop_flat.sol\":22925:22926  0 */\n      0x00\n        /* \"NFTES_Drop_flat.sol\":22913:22921  mintFees */\n      sload(0x05)\n        /* \"NFTES_Drop_flat.sol\":22913:22926  mintFees != 0 */\n      eq\n      iszero\n        /* \"NFTES_Drop_flat.sol\":22905:22947  require(mintFees != 0, \"Mint Fee Not Set\") */\n      tag_160\n      jumpi\n      mload(0x40)\n      0x08c379a000000000000000000000000000000000000000000000000000000000\n      dup2\n      mstore\n      0x04\n      add\n      tag_161\n      swap1\n      tag_162\n      jump\t// in\n    tag_161:\n      mload(0x40)\n      dup1\n      swap2\n      sub\n      swap1\n      revert\n    tag_160:\n        /* \"NFTES_Drop_flat.sol\":22989:22998  noOfMints */\n      dup2\n        /* \"NFTES_Drop_flat.sol\":22978:22986  mintFees */\n      sload(0x05)\n        /* \"NFTES_Drop_flat.sol\":22978:22998  mintFees * noOfMints */\n      tag_163\n      swap2\n      swap1\n      tag_164\n      jump\t// in\n    tag_163:\n        /* \"NFTES_Drop_flat.sol\":22965:22974  msg.value */\n      callvalue\n        /* \"NFTES_Drop_flat.sol\":22965:22998  msg.value == mintFees * noOfMints */\n      eq\n        /* \"NFTES_Drop_flat.sol\":22957:23021  require(msg.value == mintFees * noOfMints, \"Not Enough Balance\") */\n      tag_165\n      jumpi\n      mload(0x40)\n      0x08c379a000000000000000000000000000000000000000000000000000000000\n      dup2\n      mstore\n      0x04\n      add\n      tag_166\n      swap1\n      tag_167\n      jump\t// in\n    tag_166:\n      mload(0x40)\n      dup1\n      swap2\n      sub\n      swap1\n      revert\n    tag_165:\n        /* \"NFTES_Drop_flat.sol\":23037:23046  uint256 i */\n      0x00\n        /* \"NFTES_Drop_flat.sol\":23032:23119  for (uint256 i = 0; i < noOfMints; ++i) {... */\n    tag_168:\n        /* \"NFTES_Drop_flat.sol\":23056:23065  noOfMints */\n      dup3\n        /* \"NFTES_Drop_flat.sol\":23052:23053  i */\n      dup2\n        /* \"NFTES_Drop_flat.sol\":23052:23065  i < noOfMints */\n      lt\n        /* \"NFTES_Drop_flat.sol\":23032:23119  for (uint256 i = 0; i < noOfMints; ++i) {... */\n      iszero\n      tag_169\n      jumpi\n        /* \"NFTES_Drop_flat.sol\":23084:23108  randomMinting(user_addr) */\n      tag_171\n        /* \"NFTES_Drop_flat.sol\":23098:23107  user_addr */\n      dup5\n        /* \"NFTES_Drop_flat.sol\":23084:23097  randomMinting */\n      tag_41\n        /* \"NFTES_Drop_flat.sol\":23084:23108  randomMinting(user_addr) */\n      jump\t// in\n    tag_171:\n      pop\n      pop\n        /* \"NFTES_Drop_flat.sol\":23067:23070  ++i */\n      dup1\n      tag_172\n      swap1\n      tag_138\n      jump\t// in\n    tag_172:\n      swap1\n      pop\n        /* \"NFTES_Drop_flat.sol\":23032:23119  for (uint256 i = 0; i < noOfMints; ++i) {... */\n      jump(tag_168)\n    tag_169:\n      pop\n        /* \"NFTES_Drop_flat.sol\":23128:23166  depositAmount(_msgSender(), msg.value) */\n      tag_173\n        /* \"NFTES_Drop_flat.sol\":23142:23154  _msgSender() */\n      tag_174\n        /* \"NFTES_Drop_flat.sol\":23142:23152  _msgSender */\n      tag_92\n        /* \"NFTES_Drop_flat.sol\":23142:23154  _msgSender() */\n      jump\t// in\n    tag_174:\n        /* \"NFTES_Drop_flat.sol\":23156:23165  msg.value */\n      callvalue\n        /* \"NFTES_Drop_flat.sol\":23128:23141  depositAmount */\n      tag_175\n        /* \"NFTES_Drop_flat.sol\":23128:23166  depositAmount(_msgSender(), msg.value) */\n      jump\t// in\n    tag_173:\n        /* \"NFTES_Drop_flat.sol\":23183:23201  dropsite_NFT_Owner */\n      0x0c\n        /* \"NFTES_Drop_flat.sol\":23183:23212  dropsite_NFT_Owner[user_addr] */\n      0x00\n        /* \"NFTES_Drop_flat.sol\":23202:23211  user_addr */\n      dup5\n        /* \"NFTES_Drop_flat.sol\":23183:23212  dropsite_NFT_Owner[user_addr] */\n      0xffffffffffffffffffffffffffffffffffffffff\n      and\n      0xffffffffffffffffffffffffffffffffffffffff\n      and\n      dup2\n      mstore\n      0x20\n      add\n      swap1\n      dup2\n      mstore\n      0x20\n      add\n      0x00\n      keccak256\n        /* \"NFTES_Drop_flat.sol\":23183:23232  dropsite_NFT_Owner[user_addr].owned_Dropsite_NFTs */\n      0x00\n      add\n        /* \"NFTES_Drop_flat.sol\":23176:23232  return dropsite_NFT_Owner[user_addr].owned_Dropsite_NFTs */\n      dup1\n      sload\n      dup1\n      0x20\n      mul\n      0x20\n      add\n      mload(0x40)\n      swap1\n      dup2\n      add\n      0x40\n      mstore\n      dup1\n      swap3\n      swap2\n      swap1\n      dup2\n      dup2\n      mstore\n      0x20\n      add\n      dup3\n      dup1\n      sload\n      dup1\n      iszero\n      tag_176\n      jumpi\n      0x20\n      mul\n      dup3\n      add\n      swap2\n      swap1\n      0x00\n      mstore\n      keccak256(0x00, 0x20)\n      swap1\n    tag_177:\n      dup2\n      sload\n      dup2\n      mstore\n      0x20\n      add\n      swap1\n      0x01\n      add\n      swap1\n      dup1\n      dup4\n      gt\n      tag_177\n      jumpi\n    tag_176:\n      pop\n      pop\n      pop\n      pop\n      pop\n      swap1\n      pop\n        /* \"NFTES_Drop_flat.sol\":22565:23239  function cryptoRandomMint(address user_addr, uint256 noOfMints)... */\n      swap3\n      swap2\n      pop\n      pop\n      jump\t// out\n        /* \"NFTES_Drop_flat.sol\":21797:22350  function fiatRandomMint(address user_addr, uint256 noOfMints)... */\n    tag_52:\n        /* \"NFTES_Drop_flat.sol\":21961:21977  uint256[] memory */\n      0x60\n        /* \"NFTES_Drop_flat.sol\":16205:16210  Owner */\n      0x0e\n      0x01\n      swap1\n      sload\n      swap1\n      0x0100\n      exp\n      swap1\n      div\n      0xffffffffffffffffffffffffffffffffffffffff\n      and\n        /* \"NFTES_Drop_flat.sol\":16189:16210  _msgSender() == Owner */\n      0xffffffffffffffffffffffffffffffffffffffff\n      and\n        /* \"NFTES_Drop_flat.sol\":16189:16201  _msgSender() */\n      tag_179\n        /* \"NFTES_Drop_flat.sol\":16189:16199  _msgSender */\n      tag_92\n        /* \"NFTES_Drop_flat.sol\":16189:16201  _msgSender() */\n      jump\t// in\n    tag_179:\n        /* \"NFTES_Drop_flat.sol\":16189:16210  _msgSender() == Owner */\n      0xffffffffffffffffffffffffffffffffffffffff\n      and\n      eq\n        /* \"NFTES_Drop_flat.sol\":16181:16243  require(_msgSender() == Owner, \"Only NFT-ES Owner can Access\") */\n      tag_180\n      jumpi\n      mload(0x40)\n      0x08c379a000000000000000000000000000000000000000000000000000000000\n      dup2\n      mstore\n      0x04\n      add\n      tag_181\n      swap1\n      tag_95\n      jump\t// in\n    tag_181:\n      mload(0x40)\n      dup1\n      swap2\n      sub\n      swap1\n      revert\n    tag_180:\n        /* \"NFTES_Drop_flat.sol\":16370:16375  false */\n      0x00\n        /* \"NFTES_Drop_flat.sol\":16358:16375  isPaused == false */\n      iszero\n      iszero\n        /* \"NFTES_Drop_flat.sol\":16358:16366  isPaused */\n      0x0e\n      0x00\n      swap1\n      sload\n      swap1\n      0x0100\n      exp\n      swap1\n      div\n      0xff\n      and\n        /* \"NFTES_Drop_flat.sol\":16358:16375  isPaused == false */\n      iszero\n      iszero\n      eq\n        /* \"NFTES_Drop_flat.sol\":16350:16407  require(isPaused == false, \"Dropsite is not Opened Yet.\") */\n      tag_183\n      jumpi\n      mload(0x40)\n      0x08c379a000000000000000000000000000000000000000000000000000000000\n      dup2\n      mstore\n      0x04\n      add\n      tag_184\n      swap1\n      tag_113\n      jump\t// in\n    tag_184:\n      mload(0x40)\n      dup1\n      swap2\n      sub\n      swap1\n      revert\n    tag_183:\n        /* \"NFTES_Drop_flat.sol\":16487:16488  0 */\n      0x00\n        /* \"NFTES_Drop_flat.sol\":16475:16483  mintFees */\n      sload(0x05)\n        /* \"NFTES_Drop_flat.sol\":16475:16488  mintFees != 0 */\n      eq\n      iszero\n        /* \"NFTES_Drop_flat.sol\":16467:16524  require(mintFees != 0, \"Owner Should set mint Fee First\") */\n      tag_186\n      jumpi\n      mload(0x40)\n      0x08c379a000000000000000000000000000000000000000000000000000000000\n      dup2\n      mstore\n      0x04\n      add\n      tag_187\n      swap1\n      tag_151\n      jump\t// in\n    tag_187:\n      mload(0x40)\n      dup1\n      swap2\n      sub\n      swap1\n      revert\n    tag_186:\n        /* \"NFTES_Drop_flat.sol\":22013:22014  4 */\n      0x04\n        /* \"NFTES_Drop_flat.sol\":22001:22010  noOfMints */\n      dup3\n        /* \"NFTES_Drop_flat.sol\":22001:22014  noOfMints < 4 */\n      lt\n        /* \"NFTES_Drop_flat.sol\":22001:22031  noOfMints < 4 && noOfMints > 0 */\n      dup1\n      iszero\n      tag_189\n      jumpi\n      pop\n        /* \"NFTES_Drop_flat.sol\":22030:22031  0 */\n      0x00\n        /* \"NFTES_Drop_flat.sol\":22018:22027  noOfMints */\n      dup3\n        /* \"NFTES_Drop_flat.sol\":22018:22031  noOfMints > 0 */\n      gt\n        /* \"NFTES_Drop_flat.sol\":22001:22031  noOfMints < 4 && noOfMints > 0 */\n    tag_189:\n        /* \"NFTES_Drop_flat.sol\":21993:22057  require(noOfMints < 4 && noOfMints > 0, \"You can mint 1-3 NFTs\") */\n      tag_190\n      jumpi\n      mload(0x40)\n      0x08c379a000000000000000000000000000000000000000000000000000000000\n      dup2\n      mstore\n      0x04\n      add\n      tag_191\n      swap1\n      tag_156\n      jump\t// in\n    tag_191:\n      mload(0x40)\n      dup1\n      swap2\n      sub\n      swap1\n      revert\n    tag_190:\n        /* \"NFTES_Drop_flat.sol\":22093:22097  1000 */\n      0x03e8\n        /* \"NFTES_Drop_flat.sol\":22075:22090  totalNFTsMinted */\n      sload(0x03)\n        /* \"NFTES_Drop_flat.sol\":22075:22097  totalNFTsMinted < 1000 */\n      lt\n        /* \"NFTES_Drop_flat.sol\":22067:22127  require(totalNFTsMinted < 1000, \"Max Minting Limit reached\") */\n      tag_192\n      jumpi\n      mload(0x40)\n      0x08c379a000000000000000000000000000000000000000000000000000000000\n      dup2\n      mstore\n      0x04\n      add\n      tag_193\n      swap1\n      tag_159\n      jump\t// in\n    tag_193:\n      mload(0x40)\n      dup1\n      swap2\n      sub\n      swap1\n      revert\n    tag_192:\n        /* \"NFTES_Drop_flat.sol\":22157:22158  0 */\n      0x00\n        /* \"NFTES_Drop_flat.sol\":22145:22153  mintFees */\n      sload(0x05)\n        /* \"NFTES_Drop_flat.sol\":22145:22158  mintFees != 0 */\n      eq\n      iszero\n        /* \"NFTES_Drop_flat.sol\":22137:22179  require(mintFees != 0, \"Mint Fee Not Set\") */\n      tag_194\n      jumpi\n      mload(0x40)\n      0x08c379a000000000000000000000000000000000000000000000000000000000\n      dup2\n      mstore\n      0x04\n      add\n      tag_195\n      swap1\n      tag_162\n      jump\t// in\n    tag_195:\n      mload(0x40)\n      dup1\n      swap2\n      sub\n      swap1\n      revert\n    tag_194:\n        /* \"NFTES_Drop_flat.sol\":22194:22203  uint256 i */\n      0x00\n        /* \"NFTES_Drop_flat.sol\":22189:22278  for (uint256 i = 0; i < noOfMints; i++) {... */\n    tag_196:\n        /* \"NFTES_Drop_flat.sol\":22213:22222  noOfMints */\n      dup3\n        /* \"NFTES_Drop_flat.sol\":22209:22210  i */\n      dup2\n        /* \"NFTES_Drop_flat.sol\":22209:22222  i < noOfMints */\n      lt\n        /* \"NFTES_Drop_flat.sol\":22189:22278  for (uint256 i = 0; i < noOfMints; i++) {... */\n      iszero\n      tag_197\n      jumpi\n        /* \"NFTES_Drop_flat.sol\":22243:22267  randomMinting(user_addr) */\n      tag_199\n        /* \"NFTES_Drop_flat.sol\":22257:22266  user_addr */\n      dup5\n        /* \"NFTES_Drop_flat.sol\":22243:22256  randomMinting */\n      tag_41\n        /* \"NFTES_Drop_flat.sol\":22243:22267  randomMinting(user_addr) */\n      jump\t// in\n    tag_199:\n      pop\n      pop\n        /* \"NFTES_Drop_flat.sol\":22224:22227  i++ */\n      dup1\n      dup1\n      tag_200\n      swap1\n      tag_138\n      jump\t// in\n    tag_200:\n      swap2\n      pop\n      pop\n        /* \"NFTES_Drop_flat.sol\":22189:22278  for (uint256 i = 0; i < noOfMints; i++) {... */\n      jump(tag_196)\n    tag_197:\n      pop\n        /* \"NFTES_Drop_flat.sol\":22294:22312  dropsite_NFT_Owner */\n      0x0c\n        /* \"NFTES_Drop_flat.sol\":22294:22323  dropsite_NFT_Owner[user_addr] */\n      0x00\n        /* \"NFTES_Drop_flat.sol\":22313:22322  user_addr */\n      dup5\n        /* \"NFTES_Drop_flat.sol\":22294:22323  dropsite_NFT_Owner[user_addr] */\n      0xffffffffffffffffffffffffffffffffffffffff\n      and\n      0xffffffffffffffffffffffffffffffffffffffff\n      and\n      dup2\n      mstore\n      0x20\n      add\n      swap1\n      dup2\n      mstore\n      0x20\n      add\n      0x00\n      keccak256\n        /* \"NFTES_Drop_flat.sol\":22294:22343  dropsite_NFT_Owner[user_addr].owned_Dropsite_NFTs */\n      0x00\n      add\n        /* \"NFTES_Drop_flat.sol\":22287:22343  return dropsite_NFT_Owner[user_addr].owned_Dropsite_NFTs */\n      dup1\n      sload\n      dup1\n      0x20\n      mul\n      0x20\n      add\n      mload(0x40)\n      swap1\n      dup2\n      add\n      0x40\n      mstore\n      dup1\n      swap3\n      swap2\n      swap1\n      dup2\n      dup2\n      mstore\n      0x20\n      add\n      dup3\n      dup1\n      sload\n      dup1\n      iszero\n      tag_201\n      jumpi\n      0x20\n      mul\n      dup3\n      add\n      swap2\n      swap1\n      0x00\n      mstore\n      keccak256(0x00, 0x20)\n      swap1\n    tag_202:\n      dup2\n      sload\n      dup2\n      mstore\n      0x20\n      add\n      swap1\n      0x01\n      add\n      swap1\n      dup1\n      dup4\n      gt\n      tag_202\n      jumpi\n    tag_201:\n      pop\n      pop\n      pop\n      pop\n      pop\n      swap1\n      pop\n        /* \"NFTES_Drop_flat.sol\":21797:22350  function fiatRandomMint(address user_addr, uint256 noOfMints)... */\n      swap3\n      swap2\n      pop\n      pop\n      jump\t// out\n        /* \"NFTES_Drop_flat.sol\":17418:17659  function checkMintedCategoryWise()... */\n    tag_56:\n        /* \"NFTES_Drop_flat.sol\":17557:17561  uint */\n      0x00\n        /* \"NFTES_Drop_flat.sol\":17575:17579  uint */\n      dup1\n        /* \"NFTES_Drop_flat.sol\":17593:17597  uint */\n      0x00\n        /* \"NFTES_Drop_flat.sol\":16205:16210  Owner */\n      0x0e\n      0x01\n      swap1\n      sload\n      swap1\n      0x0100\n      exp\n      swap1\n      div\n      0xffffffffffffffffffffffffffffffffffffffff\n      and\n        /* \"NFTES_Drop_flat.sol\":16189:16210  _msgSender() == Owner */\n      0xffffffffffffffffffffffffffffffffffffffff\n      and\n        /* \"NFTES_Drop_flat.sol\":16189:16201  _msgSender() */\n      tag_204\n        /* \"NFTES_Drop_flat.sol\":16189:16199  _msgSender */\n      tag_92\n        /* \"NFTES_Drop_flat.sol\":16189:16201  _msgSender() */\n      jump\t// in\n    tag_204:\n        /* \"NFTES_Drop_flat.sol\":16189:16210  _msgSender() == Owner */\n      0xffffffffffffffffffffffffffffffffffffffff\n      and\n      eq\n        /* \"NFTES_Drop_flat.sol\":16181:16243  require(_msgSender() == Owner, \"Only NFT-ES Owner can Access\") */\n      tag_205\n      jumpi\n      mload(0x40)\n      0x08c379a000000000000000000000000000000000000000000000000000000000\n      dup2\n      mstore\n      0x04\n      add\n      tag_206\n      swap1\n      tag_95\n      jump\t// in\n    tag_206:\n      mload(0x40)\n      dup1\n      swap2\n      sub\n      swap1\n      revert\n    tag_205:\n        /* \"NFTES_Drop_flat.sol\":16370:16375  false */\n      0x00\n        /* \"NFTES_Drop_flat.sol\":16358:16375  isPaused == false */\n      iszero\n      iszero\n        /* \"NFTES_Drop_flat.sol\":16358:16366  isPaused */\n      0x0e\n      0x00\n      swap1\n      sload\n      swap1\n      0x0100\n      exp\n      swap1\n      div\n      0xff\n      and\n        /* \"NFTES_Drop_flat.sol\":16358:16375  isPaused == false */\n      iszero\n      iszero\n      eq\n        /* \"NFTES_Drop_flat.sol\":16350:16407  require(isPaused == false, \"Dropsite is not Opened Yet.\") */\n      tag_208\n      jumpi\n      mload(0x40)\n      0x08c379a000000000000000000000000000000000000000000000000000000000\n      dup2\n      mstore\n      0x04\n      add\n      tag_209\n      swap1\n      tag_113\n      jump\t// in\n    tag_209:\n      mload(0x40)\n      dup1\n      swap2\n      sub\n      swap1\n      revert\n    tag_208:\n        /* \"NFTES_Drop_flat.sol\":17630:17637  Diamond */\n      sload(0x06)\n        /* \"NFTES_Drop_flat.sol\":17639:17643  Gold */\n      sload(0x07)\n        /* \"NFTES_Drop_flat.sol\":17645:17651  Silver */\n      sload(0x08)\n        /* \"NFTES_Drop_flat.sol\":17622:17652  return (Diamond, Gold, Silver) */\n      swap3\n      pop\n      swap3\n      pop\n      swap3\n      pop\n        /* \"NFTES_Drop_flat.sol\":17418:17659  function checkMintedCategoryWise()... */\n      swap1\n      swap2\n      swap3\n      jump\t// out\n        /* \"NFTES_Drop_flat.sol\":17844:17984  function getMintFee()... */\n    tag_61:\n        /* \"NFTES_Drop_flat.sol\":17939:17946  uint256 */\n      0x00\n        /* \"NFTES_Drop_flat.sol\":16370:16375  false */\n      dup1\n        /* \"NFTES_Drop_flat.sol\":16358:16375  isPaused == false */\n      iszero\n      iszero\n        /* \"NFTES_Drop_flat.sol\":16358:16366  isPaused */\n      0x0e\n      0x00\n      swap1\n      sload\n      swap1\n      0x0100\n      exp\n      swap1\n      div\n      0xff\n      and\n        /* \"NFTES_Drop_flat.sol\":16358:16375  isPaused == false */\n      iszero\n      iszero\n      eq\n        /* \"NFTES_Drop_flat.sol\":16350:16407  require(isPaused == false, \"Dropsite is not Opened Yet.\") */\n      tag_212\n      jumpi\n      mload(0x40)\n      0x08c379a000000000000000000000000000000000000000000000000000000000\n      dup2\n      mstore\n      0x04\n      add\n      tag_213\n      swap1\n      tag_113\n      jump\t// in\n    tag_213:\n      mload(0x40)\n      dup1\n      swap2\n      sub\n      swap1\n      revert\n    tag_212:\n        /* \"NFTES_Drop_flat.sol\":17969:17977  mintFees */\n      sload(0x05)\n        /* \"NFTES_Drop_flat.sol\":17962:17977  return mintFees */\n      swap1\n      pop\n        /* \"NFTES_Drop_flat.sol\":17844:17984  function getMintFee()... */\n      swap1\n      jump\t// out\n        /* \"NFTES_Drop_flat.sol\":18771:18883  function contractBalance() public view OnlyOwner returns (uint256) {... */\n    tag_65:\n        /* \"NFTES_Drop_flat.sol\":18829:18836  uint256 */\n      0x00\n        /* \"NFTES_Drop_flat.sol\":16205:16210  Owner */\n      0x0e\n      0x01\n      swap1\n      sload\n      swap1\n      0x0100\n      exp\n      swap1\n      div\n      0xffffffffffffffffffffffffffffffffffffffff\n      and\n        /* \"NFTES_Drop_flat.sol\":16189:16210  _msgSender() == Owner */\n      0xffffffffffffffffffffffffffffffffffffffff\n      and\n        /* \"NFTES_Drop_flat.sol\":16189:16201  _msgSender() */\n      tag_216\n        /* \"NFTES_Drop_flat.sol\":16189:16199  _msgSender */\n      tag_92\n        /* \"NFTES_Drop_flat.sol\":16189:16201  _msgSender() */\n      jump\t// in\n    tag_216:\n        /* \"NFTES_Drop_flat.sol\":16189:16210  _msgSender() == Owner */\n      0xffffffffffffffffffffffffffffffffffffffff\n      and\n      eq\n        /* \"NFTES_Drop_flat.sol\":16181:16243  require(_msgSender() == Owner, \"Only NFT-ES Owner can Access\") */\n      tag_217\n      jumpi\n      mload(0x40)\n      0x08c379a000000000000000000000000000000000000000000000000000000000\n      dup2\n      mstore\n      0x04\n      add\n      tag_218\n      swap1\n      tag_95\n      jump\t// in\n    tag_218:\n      mload(0x40)\n      dup1\n      swap2\n      sub\n      swap1\n      revert\n    tag_217:\n        /* \"NFTES_Drop_flat.sol\":18855:18876  address(this).balance */\n      selfbalance\n        /* \"NFTES_Drop_flat.sol\":18848:18876  return address(this).balance */\n      swap1\n      pop\n        /* \"NFTES_Drop_flat.sol\":18771:18883  function contractBalance() public view OnlyOwner returns (uint256) {... */\n      swap1\n      jump\t// out\n        /* \"NFTES_Drop_flat.sol\":16965:17119  function changeOwner(address newOwnerAddr)... */\n    tag_70:\n        /* \"NFTES_Drop_flat.sol\":16205:16210  Owner */\n      0x0e\n      0x01\n      swap1\n      sload\n      swap1\n      0x0100\n      exp\n      swap1\n      div\n      0xffffffffffffffffffffffffffffffffffffffff\n      and\n        /* \"NFTES_Drop_flat.sol\":16189:16210  _msgSender() == Owner */\n      0xffffffffffffffffffffffffffffffffffffffff\n      and\n        /* \"NFTES_Drop_flat.sol\":16189:16201  _msgSender() */\n      tag_221\n        /* \"NFTES_Drop_flat.sol\":16189:16199  _msgSender */\n      tag_92\n        /* \"NFTES_Drop_flat.sol\":16189:16201  _msgSender() */\n      jump\t// in\n    tag_221:\n        /* \"NFTES_Drop_flat.sol\":16189:16210  _msgSender() == Owner */\n      0xffffffffffffffffffffffffffffffffffffffff\n      and\n      eq\n        /* \"NFTES_Drop_flat.sol\":16181:16243  require(_msgSender() == Owner, \"Only NFT-ES Owner can Access\") */\n      tag_222\n      jumpi\n      mload(0x40)\n      0x08c379a000000000000000000000000000000000000000000000000000000000\n      dup2\n      mstore\n      0x04\n      add\n      tag_223\n      swap1\n      tag_95\n      jump\t// in\n    tag_223:\n      mload(0x40)\n      dup1\n      swap2\n      sub\n      swap1\n      revert\n    tag_222:\n        /* \"NFTES_Drop_flat.sol\":16370:16375  false */\n      0x00\n        /* \"NFTES_Drop_flat.sol\":16358:16375  isPaused == false */\n      iszero\n      iszero\n        /* \"NFTES_Drop_flat.sol\":16358:16366  isPaused */\n      0x0e\n      0x00\n      swap1\n      sload\n      swap1\n      0x0100\n      exp\n      swap1\n      div\n      0xff\n      and\n        /* \"NFTES_Drop_flat.sol\":16358:16375  isPaused == false */\n      iszero\n      iszero\n      eq\n        /* \"NFTES_Drop_flat.sol\":16350:16407  require(isPaused == false, \"Dropsite is not Opened Yet.\") */\n      tag_225\n      jumpi\n      mload(0x40)\n      0x08c379a000000000000000000000000000000000000000000000000000000000\n      dup2\n      mstore\n      0x04\n      add\n      tag_226\n      swap1\n      tag_113\n      jump\t// in\n    tag_226:\n      mload(0x40)\n      dup1\n      swap2\n      sub\n      swap1\n      revert\n    tag_225:\n        /* \"NFTES_Drop_flat.sol\":17099:17111  newOwnerAddr */\n      dup1\n        /* \"NFTES_Drop_flat.sol\":17083:17088  Owner */\n      0x0e\n      0x01\n        /* \"NFTES_Drop_flat.sol\":17083:17112  Owner = payable(newOwnerAddr) */\n      0x0100\n      exp\n      dup2\n      sload\n      dup2\n      0xffffffffffffffffffffffffffffffffffffffff\n      mul\n      not\n      and\n      swap1\n      dup4\n      0xffffffffffffffffffffffffffffffffffffffff\n      and\n      mul\n      or\n      swap1\n      sstore\n      pop\n        /* \"NFTES_Drop_flat.sol\":16965:17119  function changeOwner(address newOwnerAddr)... */\n      pop\n      jump\t// out\n        /* \"NFTES_Drop_flat.sol\":18126:18266  function stopDropsite() public OnlyOwner {... */\n    tag_73:\n        /* \"NFTES_Drop_flat.sol\":16205:16210  Owner */\n      0x0e\n      0x01\n      swap1\n      sload\n      swap1\n      0x0100\n      exp\n      swap1\n      div\n      0xffffffffffffffffffffffffffffffffffffffff\n      and\n        /* \"NFTES_Drop_flat.sol\":16189:16210  _msgSender() == Owner */\n      0xffffffffffffffffffffffffffffffffffffffff\n      and\n        /* \"NFTES_Drop_flat.sol\":16189:16201  _msgSender() */\n      tag_229\n        /* \"NFTES_Drop_flat.sol\":16189:16199  _msgSender */\n      tag_92\n        /* \"NFTES_Drop_flat.sol\":16189:16201  _msgSender() */\n      jump\t// in\n    tag_229:\n        /* \"NFTES_Drop_flat.sol\":16189:16210  _msgSender() == Owner */\n      0xffffffffffffffffffffffffffffffffffffffff\n      and\n      eq\n        /* \"NFTES_Drop_flat.sol\":16181:16243  require(_msgSender() == Owner, \"Only NFT-ES Owner can Access\") */\n      tag_230\n      jumpi\n      mload(0x40)\n      0x08c379a000000000000000000000000000000000000000000000000000000000\n      dup2\n      mstore\n      0x04\n      add\n      tag_231\n      swap1\n      tag_95\n      jump\t// in\n    tag_231:\n      mload(0x40)\n      dup1\n      swap2\n      sub\n      swap1\n      revert\n    tag_230:\n        /* \"NFTES_Drop_flat.sol\":18197:18202  false */\n      0x00\n        /* \"NFTES_Drop_flat.sol\":18185:18202  isPaused == false */\n      iszero\n      iszero\n        /* \"NFTES_Drop_flat.sol\":18185:18193  isPaused */\n      0x0e\n      0x00\n      swap1\n      sload\n      swap1\n      0x0100\n      exp\n      swap1\n      div\n      0xff\n      and\n        /* \"NFTES_Drop_flat.sol\":18185:18202  isPaused == false */\n      iszero\n      iszero\n      eq\n        /* \"NFTES_Drop_flat.sol\":18177:18234  require(isPaused == false, \"Dropsite is already Stopped\") */\n      tag_233\n      jumpi\n      mload(0x40)\n      0x08c379a000000000000000000000000000000000000000000000000000000000\n      dup2\n      mstore\n      0x04\n      add\n      tag_234\n      swap1\n      tag_235\n      jump\t// in\n    tag_234:\n      mload(0x40)\n      dup1\n      swap2\n      sub\n      swap1\n      revert\n    tag_233:\n        /* \"NFTES_Drop_flat.sol\":18255:18259  true */\n      0x01\n        /* \"NFTES_Drop_flat.sol\":18244:18252  isPaused */\n      0x0e\n      0x00\n        /* \"NFTES_Drop_flat.sol\":18244:18259  isPaused = true */\n      0x0100\n      exp\n      dup2\n      sload\n      dup2\n      0xff\n      mul\n      not\n      and\n      swap1\n      dup4\n      iszero\n      iszero\n      mul\n      or\n      swap1\n      sstore\n      pop\n        /* \"NFTES_Drop_flat.sol\":18126:18266  function stopDropsite() public OnlyOwner {... */\n      jump\t// out\n        /* \"NFTES_Drop_flat.sol\":16547:16574  bool public isPaused = true */\n    tag_76:\n      0x0e\n      0x00\n      swap1\n      sload\n      swap1\n      0x0100\n      exp\n      swap1\n      div\n      0xff\n      and\n      dup2\n      jump\t// out\n        /* \"NFTES_Drop_flat.sol\":16580:16608  address payable public Owner */\n    tag_81:\n      0x0e\n      0x01\n      swap1\n      sload\n      swap1\n      0x0100\n      exp\n      swap1\n      div\n      0xffffffffffffffffffffffffffffffffffffffff\n      and\n      dup2\n      jump\t// out\n        /* \"NFTES_Drop_flat.sol\":17703:17811  function setMintFee(uint _mintFee) public OnlyOwner contractIsNotPaused {... */\n    tag_88:\n        /* \"NFTES_Drop_flat.sol\":16205:16210  Owner */\n      0x0e\n      0x01\n      swap1\n      sload\n      swap1\n      0x0100\n      exp\n      swap1\n      div\n      0xffffffffffffffffffffffffffffffffffffffff\n      and\n        /* \"NFTES_Drop_flat.sol\":16189:16210  _msgSender() == Owner */\n      0xffffffffffffffffffffffffffffffffffffffff\n      and\n        /* \"NFTES_Drop_flat.sol\":16189:16201  _msgSender() */\n      tag_237\n        /* \"NFTES_Drop_flat.sol\":16189:16199  _msgSender */\n      tag_92\n        /* \"NFTES_Drop_flat.sol\":16189:16201  _msgSender() */\n      jump\t// in\n    tag_237:\n        /* \"NFTES_Drop_flat.sol\":16189:16210  _msgSender() == Owner */\n      0xffffffffffffffffffffffffffffffffffffffff\n      and\n      eq\n        /* \"NFTES_Drop_flat.sol\":16181:16243  require(_msgSender() == Owner, \"Only NFT-ES Owner can Access\") */\n      tag_238\n      jumpi\n      mload(0x40)\n      0x08c379a000000000000000000000000000000000000000000000000000000000\n      dup2\n      mstore\n      0x04\n      add\n      tag_239\n      swap1\n      tag_95\n      jump\t// in\n    tag_239:\n      mload(0x40)\n      dup1\n      swap2\n      sub\n      swap1\n      revert\n    tag_238:\n        /* \"NFTES_Drop_flat.sol\":16370:16375  false */\n      0x00\n        /* \"NFTES_Drop_flat.sol\":16358:16375  isPaused == false */\n      iszero\n      iszero\n        /* \"NFTES_Drop_flat.sol\":16358:16366  isPaused */\n      0x0e\n      0x00\n      swap1\n      sload\n      swap1\n      0x0100\n      exp\n      swap1\n      div\n      0xff\n      and\n        /* \"NFTES_Drop_flat.sol\":16358:16375  isPaused == false */\n      iszero\n      iszero\n      eq\n        /* \"NFTES_Drop_flat.sol\":16350:16407  require(isPaused == false, \"Dropsite is not Opened Yet.\") */\n      tag_241\n      jumpi\n      mload(0x40)\n      0x08c379a000000000000000000000000000000000000000000000000000000000\n      dup2\n      mstore\n      0x04\n      add\n      tag_242\n      swap1\n      tag_113\n      jump\t// in\n    tag_242:\n      mload(0x40)\n      dup1\n      swap2\n      sub\n      swap1\n      revert\n    tag_241:\n        /* \"NFTES_Drop_flat.sol\":17796:17804  _mintFee */\n      dup1\n        /* \"NFTES_Drop_flat.sol\":17785:17793  mintFees */\n      0x05\n        /* \"NFTES_Drop_flat.sol\":17785:17804  mintFees = _mintFee */\n      dup2\n      swap1\n      sstore\n      pop\n        /* \"NFTES_Drop_flat.sol\":17703:17811  function setMintFee(uint _mintFee) public OnlyOwner contractIsNotPaused {... */\n      pop\n      jump\t// out\n        /* \"NFTES_Drop_flat.sol\":2608:2704  function _msgSender() internal view virtual returns (address) {... */\n    tag_92:\n        /* \"NFTES_Drop_flat.sol\":2661:2668  address */\n      0x00\n        /* \"NFTES_Drop_flat.sol\":2687:2697  msg.sender */\n      caller\n        /* \"NFTES_Drop_flat.sol\":2680:2697  return msg.sender */\n      swap1\n      pop\n        /* \"NFTES_Drop_flat.sol\":2608:2704  function _msgSender() internal view virtual returns (address) {... */\n      swap1\n      jump\t// out\n        /* \"NFTES_Drop_flat.sol\":18994:19536  function random() internal view returns (uint256) {... */\n    tag_126:\n        /* \"NFTES_Drop_flat.sol\":19035:19042  uint256 */\n      0x00\n        /* \"NFTES_Drop_flat.sol\":19131:19151  uint256 randomnumber */\n      dup1\n        /* \"NFTES_Drop_flat.sol\":19391:19398  Diamond */\n      sload(0x06)\n        /* \"NFTES_Drop_flat.sol\":19360:19364  Gold */\n      sload(0x07)\n        /* \"NFTES_Drop_flat.sol\":19327:19333  Silver */\n      sload(0x08)\n        /* \"NFTES_Drop_flat.sol\":19285:19300  totalNFTsMinted */\n      sload(0x03)\n        /* \"NFTES_Drop_flat.sol\":19242:19257  block.timestamp */\n      timestamp\n        /* \"NFTES_Drop_flat.sol\":19241:19300  (block.timestamp) +... */\n      tag_246\n      swap2\n      swap1\n      tag_247\n      jump\t// in\n    tag_246:\n        /* \"NFTES_Drop_flat.sol\":19241:19333  (block.timestamp) +... */\n      tag_248\n      swap2\n      swap1\n      tag_247\n      jump\t// in\n    tag_248:\n        /* \"NFTES_Drop_flat.sol\":19241:19364  (block.timestamp) +... */\n      tag_249\n      swap2\n      swap1\n      tag_247\n      jump\t// in\n    tag_249:\n        /* \"NFTES_Drop_flat.sol\":19241:19398  (block.timestamp) +... */\n      tag_250\n      swap2\n      swap1\n      tag_247\n      jump\t// in\n    tag_250:\n        /* \"NFTES_Drop_flat.sol\":19421:19431  msg.sender */\n      caller\n        /* \"NFTES_Drop_flat.sol\":19453:19458  Owner */\n      0x0e\n      0x01\n      swap1\n      sload\n      swap1\n      0x0100\n      exp\n      swap1\n      div\n      0xffffffffffffffffffffffffffffffffffffffff\n      and\n        /* \"NFTES_Drop_flat.sol\":19202:19476  abi.encodePacked(... */\n      add(0x20, mload(0x40))\n      tag_251\n      swap4\n      swap3\n      swap2\n      swap1\n      tag_252\n      jump\t// in\n    tag_251:\n      mload(0x40)\n      0x20\n      dup2\n      dup4\n      sub\n      sub\n      dup2\n      mstore\n      swap1\n      0x40\n      mstore\n        /* \"NFTES_Drop_flat.sol\":19175:19490  keccak256(... */\n      dup1\n      mload\n      swap1\n      0x20\n      add\n      keccak256\n        /* \"NFTES_Drop_flat.sol\":19154:19500  uint256(... */\n      0x00\n      shr\n        /* \"NFTES_Drop_flat.sol\":19131:19500  uint256 randomnumber = uint256(... */\n      swap1\n      pop\n        /* \"NFTES_Drop_flat.sol\":19517:19529  randomnumber */\n      dup1\n        /* \"NFTES_Drop_flat.sol\":19510:19529  return randomnumber */\n      swap2\n      pop\n      pop\n        /* \"NFTES_Drop_flat.sol\":18994:19536  function random() internal view returns (uint256) {... */\n      swap1\n      jump\t// out\n        /* \"NFTES_Drop_flat.sol\":19588:21230  function updateConditions(uint256 index)... */\n    tag_128:\n        /* \"NFTES_Drop_flat.sol\":19691:19698  uint256 */\n      0x00\n        /* \"NFTES_Drop_flat.sol\":16370:16375  false */\n      dup1\n        /* \"NFTES_Drop_flat.sol\":16358:16375  isPaused == false */\n      iszero\n      iszero\n        /* \"NFTES_Drop_flat.sol\":16358:16366  isPaused */\n      0x0e\n      0x00\n      swap1\n      sload\n      swap1\n      0x0100\n      exp\n      swap1\n      div\n      0xff\n      and\n        /* \"NFTES_Drop_flat.sol\":16358:16375  isPaused == false */\n      iszero\n      iszero\n      eq\n        /* \"NFTES_Drop_flat.sol\":16350:16407  require(isPaused == false, \"Dropsite is not Opened Yet.\") */\n      tag_254\n      jumpi\n      mload(0x40)\n      0x08c379a000000000000000000000000000000000000000000000000000000000\n      dup2\n      mstore\n      0x04\n      add\n      tag_255\n      swap1\n      tag_113\n      jump\t// in\n    tag_255:\n      mload(0x40)\n      dup1\n      swap2\n      sub\n      swap1\n      revert\n    tag_254:\n        /* \"NFTES_Drop_flat.sol\":19714:19724  uint nftId */\n      0x00\n        /* \"NFTES_Drop_flat.sol\":19753:19754  1 */\n      0x01\n        /* \"NFTES_Drop_flat.sol\":19747:19749  20 */\n      0x14\n        /* \"NFTES_Drop_flat.sol\":19738:19743  index */\n      dup5\n        /* \"NFTES_Drop_flat.sol\":19737:19749  (index) % 20 */\n      tag_257\n      swap2\n      swap1\n      tag_258\n      jump\t// in\n    tag_257:\n        /* \"NFTES_Drop_flat.sol\":19737:19754  (index) % 20 == 1 */\n      eq\n        /* \"NFTES_Drop_flat.sol\":19737:19783  (index) % 20 == 1 && Diamond < maxDiamondCount */\n      dup1\n      iszero\n      tag_259\n      jumpi\n      pop\n        /* \"NFTES_Drop_flat.sol\":19768:19783  maxDiamondCount */\n      sload(0x09)\n        /* \"NFTES_Drop_flat.sol\":19758:19765  Diamond */\n      sload(0x06)\n        /* \"NFTES_Drop_flat.sol\":19758:19783  Diamond < maxDiamondCount */\n      lt\n        /* \"NFTES_Drop_flat.sol\":19737:19783  (index) % 20 == 1 && Diamond < maxDiamondCount */\n    tag_259:\n        /* \"NFTES_Drop_flat.sol\":19734:21224  if((index) % 20 == 1 && Diamond < maxDiamondCount){... */\n      iszero\n      tag_260\n      jumpi\n        /* \"NFTES_Drop_flat.sol\":19798:19805  Diamond */\n      0x06\n      0x00\n        /* \"NFTES_Drop_flat.sol\":19798:19807  Diamond++ */\n      dup2\n      sload\n      dup1\n      swap3\n      swap2\n      swap1\n      tag_261\n      swap1\n      tag_138\n      jump\t// in\n    tag_261:\n      swap2\n      swap1\n      pop\n      sstore\n      pop\n        /* \"NFTES_Drop_flat.sol\":19881:19906  Strings.toString(Diamond) */\n      tag_262\n        /* \"NFTES_Drop_flat.sol\":19898:19905  Diamond */\n      sload(0x06)\n        /* \"NFTES_Drop_flat.sol\":19881:19897  Strings.toString */\n      tag_263\n        /* \"NFTES_Drop_flat.sol\":19881:19906  Strings.toString(Diamond) */\n      jump\t// in\n    tag_262:\n        /* \"NFTES_Drop_flat.sol\":19852:19907  abi.encodePacked(\"Diamond_\", Strings.toString(Diamond)) */\n      add(0x20, mload(0x40))\n      tag_264\n      swap2\n      swap1\n      tag_265\n      jump\t// in\n    tag_264:\n      mload(0x40)\n      0x20\n      dup2\n      dup4\n      sub\n      sub\n      dup2\n      mstore\n      swap1\n      0x40\n      mstore\n        /* \"NFTES_Drop_flat.sol\":19821:19825  data */\n      0x02\n        /* \"NFTES_Drop_flat.sol\":19821:19921  data = string(... */\n      swap1\n      dup1\n      mload\n      swap1\n      0x20\n      add\n      swap1\n      tag_266\n      swap3\n      swap2\n      swap1\n      tag_267\n      jump\t// in\n    tag_266:\n      pop\n        /* \"NFTES_Drop_flat.sol\":19948:19949  0 */\n      0x00\n        /* \"NFTES_Drop_flat.sol\":19942:19949  nftId=0 */\n      swap1\n      pop\n      dup1\n        /* \"NFTES_Drop_flat.sol\":19935:19949  return nftId=0 */\n      swap2\n      pop\n      pop\n      jump(tag_256)\n        /* \"NFTES_Drop_flat.sol\":19734:21224  if((index) % 20 == 1 && Diamond < maxDiamondCount){... */\n    tag_260:\n        /* \"NFTES_Drop_flat.sol\":20078:20079  3 */\n      0x03\n        /* \"NFTES_Drop_flat.sol\":20072:20074  20 */\n      0x14\n        /* \"NFTES_Drop_flat.sol\":20063:20068  index */\n      dup5\n        /* \"NFTES_Drop_flat.sol\":20062:20074  (index) % 20 */\n      tag_269\n      swap2\n      swap1\n      tag_258\n      jump\t// in\n    tag_269:\n        /* \"NFTES_Drop_flat.sol\":20062:20079  (index) % 20 <= 3 */\n      gt\n      iszero\n        /* \"NFTES_Drop_flat.sol\":20062:20102  (index) % 20 <= 3 && Gold < maxGoldCount */\n      dup1\n      iszero\n      tag_270\n      jumpi\n      pop\n        /* \"NFTES_Drop_flat.sol\":20090:20102  maxGoldCount */\n      sload(0x0a)\n        /* \"NFTES_Drop_flat.sol\":20083:20087  Gold */\n      sload(0x07)\n        /* \"NFTES_Drop_flat.sol\":20083:20102  Gold < maxGoldCount */\n      lt\n        /* \"NFTES_Drop_flat.sol\":20062:20102  (index) % 20 <= 3 && Gold < maxGoldCount */\n    tag_270:\n        /* \"NFTES_Drop_flat.sol\":20058:21224  if ((index) % 20 <= 3 && Gold < maxGoldCount) {... */\n      iszero\n      tag_271\n      jumpi\n        /* \"NFTES_Drop_flat.sol\":20118:20122  Gold */\n      0x07\n      0x00\n        /* \"NFTES_Drop_flat.sol\":20118:20124  Gold++ */\n      dup2\n      sload\n      dup1\n      swap3\n      swap2\n      swap1\n      tag_272\n      swap1\n      tag_138\n      jump\t// in\n    tag_272:\n      swap2\n      swap1\n      pop\n      sstore\n      pop\n        /* \"NFTES_Drop_flat.sol\":20178:20200  Strings.toString(Gold) */\n      tag_273\n        /* \"NFTES_Drop_flat.sol\":20195:20199  Gold */\n      sload(0x07)\n        /* \"NFTES_Drop_flat.sol\":20178:20194  Strings.toString */\n      tag_263\n        /* \"NFTES_Drop_flat.sol\":20178:20200  Strings.toString(Gold) */\n      jump\t// in\n    tag_273:\n        /* \"NFTES_Drop_flat.sol\":20152:20201  abi.encodePacked(\"Gold_\", Strings.toString(Gold)) */\n      add(0x20, mload(0x40))\n      tag_274\n      swap2\n      swap1\n      tag_275\n      jump\t// in\n    tag_274:\n      mload(0x40)\n      0x20\n      dup2\n      dup4\n      sub\n      sub\n      dup2\n      mstore\n      swap1\n      0x40\n      mstore\n        /* \"NFTES_Drop_flat.sol\":20138:20142  data */\n      0x02\n        /* \"NFTES_Drop_flat.sol\":20138:20202  data = string(abi.encodePacked(\"Gold_\", Strings.toString(Gold))) */\n      swap1\n      dup1\n      mload\n      swap1\n      0x20\n      add\n      swap1\n      tag_276\n      swap3\n      swap2\n      swap1\n      tag_267\n      jump\t// in\n    tag_276:\n      pop\n        /* \"NFTES_Drop_flat.sol\":20229:20230  1 */\n      0x01\n        /* \"NFTES_Drop_flat.sol\":20223:20230  nftId=1 */\n      swap1\n      pop\n      dup1\n        /* \"NFTES_Drop_flat.sol\":20216:20230  return nftId=1 */\n      swap2\n      pop\n      pop\n      jump(tag_256)\n        /* \"NFTES_Drop_flat.sol\":20058:21224  if ((index) % 20 <= 3 && Gold < maxGoldCount) {... */\n    tag_271:\n        /* \"NFTES_Drop_flat.sol\":20370:20371  3 */\n      0x03\n        /* \"NFTES_Drop_flat.sol\":20365:20367  20 */\n      0x14\n        /* \"NFTES_Drop_flat.sol\":20356:20361  index */\n      dup5\n        /* \"NFTES_Drop_flat.sol\":20355:20367  (index) % 20 */\n      tag_278\n      swap2\n      swap1\n      tag_258\n      jump\t// in\n    tag_278:\n        /* \"NFTES_Drop_flat.sol\":20355:20371  (index) % 20 > 3 */\n      gt\n        /* \"NFTES_Drop_flat.sol\":20355:20398  (index) % 20 > 3 && Silver < maxSilverCount */\n      dup1\n      iszero\n      tag_279\n      jumpi\n      pop\n        /* \"NFTES_Drop_flat.sol\":20384:20398  maxSilverCount */\n      sload(0x0b)\n        /* \"NFTES_Drop_flat.sol\":20375:20381  Silver */\n      sload(0x08)\n        /* \"NFTES_Drop_flat.sol\":20375:20398  Silver < maxSilverCount */\n      lt\n        /* \"NFTES_Drop_flat.sol\":20355:20398  (index) % 20 > 3 && Silver < maxSilverCount */\n    tag_279:\n        /* \"NFTES_Drop_flat.sol\":20351:21224  if ((index) % 20 > 3 && Silver < maxSilverCount) {... */\n      iszero\n      tag_280\n      jumpi\n        /* \"NFTES_Drop_flat.sol\":20414:20420  Silver */\n      0x08\n      0x00\n        /* \"NFTES_Drop_flat.sol\":20414:20422  Silver++ */\n      dup2\n      sload\n      dup1\n      swap3\n      swap2\n      swap1\n      tag_281\n      swap1\n      tag_138\n      jump\t// in\n    tag_281:\n      swap2\n      swap1\n      pop\n      sstore\n      pop\n        /* \"NFTES_Drop_flat.sol\":20495:20519  Strings.toString(Silver) */\n      tag_282\n        /* \"NFTES_Drop_flat.sol\":20512:20518  Silver */\n      sload(0x08)\n        /* \"NFTES_Drop_flat.sol\":20495:20511  Strings.toString */\n      tag_263\n        /* \"NFTES_Drop_flat.sol\":20495:20519  Strings.toString(Silver) */\n      jump\t// in\n    tag_282:\n        /* \"NFTES_Drop_flat.sol\":20467:20520  abi.encodePacked(\"Silver_\", Strings.toString(Silver)) */\n      add(0x20, mload(0x40))\n      tag_283\n      swap2\n      swap1\n      tag_284\n      jump\t// in\n    tag_283:\n      mload(0x40)\n      0x20\n      dup2\n      dup4\n      sub\n      sub\n      dup2\n      mstore\n      swap1\n      0x40\n      mstore\n        /* \"NFTES_Drop_flat.sol\":20436:20440  data */\n      0x02\n        /* \"NFTES_Drop_flat.sol\":20436:20534  data = string(... */\n      swap1\n      dup1\n      mload\n      swap1\n      0x20\n      add\n      swap1\n      tag_285\n      swap3\n      swap2\n      swap1\n      tag_267\n      jump\t// in\n    tag_285:\n      pop\n        /* \"NFTES_Drop_flat.sol\":20561:20562  2 */\n      0x02\n        /* \"NFTES_Drop_flat.sol\":20555:20562  nftId=2 */\n      swap1\n      pop\n      dup1\n        /* \"NFTES_Drop_flat.sol\":20548:20562  return nftId=2 */\n      swap2\n      pop\n      pop\n      jump(tag_256)\n        /* \"NFTES_Drop_flat.sol\":20351:21224  if ((index) % 20 > 3 && Silver < maxSilverCount) {... */\n    tag_280:\n        /* \"NFTES_Drop_flat.sol\":20753:20765  maxGoldCount */\n      sload(0x0a)\n        /* \"NFTES_Drop_flat.sol\":20746:20750  Gold */\n      sload(0x07)\n        /* \"NFTES_Drop_flat.sol\":20746:20765  Gold < maxGoldCount */\n      lt\n        /* \"NFTES_Drop_flat.sol\":20742:21214  if (Gold < maxGoldCount) {... */\n      iszero\n      tag_287\n      jumpi\n        /* \"NFTES_Drop_flat.sol\":20793:20794  1 */\n      0x01\n        /* \"NFTES_Drop_flat.sol\":20785:20794  nftId = 1 */\n      swap1\n      pop\n        /* \"NFTES_Drop_flat.sol\":20812:20816  Gold */\n      0x07\n      0x00\n        /* \"NFTES_Drop_flat.sol\":20812:20818  Gold++ */\n      dup2\n      sload\n      dup1\n      swap3\n      swap2\n      swap1\n      tag_288\n      swap1\n      tag_138\n      jump\t// in\n    tag_288:\n      swap2\n      swap1\n      pop\n      sstore\n      pop\n        /* \"NFTES_Drop_flat.sol\":20897:20919  Strings.toString(Gold) */\n      tag_289\n        /* \"NFTES_Drop_flat.sol\":20914:20918  Gold */\n      sload(0x07)\n        /* \"NFTES_Drop_flat.sol\":20897:20913  Strings.toString */\n      tag_263\n        /* \"NFTES_Drop_flat.sol\":20897:20919  Strings.toString(Gold) */\n      jump\t// in\n    tag_289:\n        /* \"NFTES_Drop_flat.sol\":20871:20920  abi.encodePacked(\"Gold_\", Strings.toString(Gold)) */\n      add(0x20, mload(0x40))\n      tag_290\n      swap2\n      swap1\n      tag_275\n      jump\t// in\n    tag_290:\n      mload(0x40)\n      0x20\n      dup2\n      dup4\n      sub\n      sub\n      dup2\n      mstore\n      swap1\n      0x40\n      mstore\n        /* \"NFTES_Drop_flat.sol\":20836:20840  data */\n      0x02\n        /* \"NFTES_Drop_flat.sol\":20836:20938  data = string(... */\n      swap1\n      dup1\n      mload\n      swap1\n      0x20\n      add\n      swap1\n      tag_291\n      swap3\n      swap2\n      swap1\n      tag_267\n      jump\t// in\n    tag_291:\n      pop\n        /* \"NFTES_Drop_flat.sol\":20963:20968  nftId */\n      dup1\n        /* \"NFTES_Drop_flat.sol\":20956:20968  return nftId */\n      swap2\n      pop\n      pop\n      jump(tag_256)\n        /* \"NFTES_Drop_flat.sol\":20742:21214  if (Gold < maxGoldCount) {... */\n    tag_287:\n        /* \"NFTES_Drop_flat.sol\":21015:21016  0 */\n      0x00\n        /* \"NFTES_Drop_flat.sol\":21007:21016  nftId = 0 */\n      swap1\n      pop\n        /* \"NFTES_Drop_flat.sol\":21034:21041  Diamond */\n      0x06\n      0x00\n        /* \"NFTES_Drop_flat.sol\":21034:21043  Diamond++ */\n      dup2\n      sload\n      dup1\n      swap3\n      swap2\n      swap1\n      tag_293\n      swap1\n      tag_138\n      jump\t// in\n    tag_293:\n      swap2\n      swap1\n      pop\n      sstore\n      pop\n        /* \"NFTES_Drop_flat.sol\":21125:21150  Strings.toString(Diamond) */\n      tag_294\n        /* \"NFTES_Drop_flat.sol\":21142:21149  Diamond */\n      sload(0x06)\n        /* \"NFTES_Drop_flat.sol\":21125:21141  Strings.toString */\n      tag_263\n        /* \"NFTES_Drop_flat.sol\":21125:21150  Strings.toString(Diamond) */\n      jump\t// in\n    tag_294:\n        /* \"NFTES_Drop_flat.sol\":21096:21151  abi.encodePacked(\"Diamond_\", Strings.toString(Diamond)) */\n      add(0x20, mload(0x40))\n      tag_295\n      swap2\n      swap1\n      tag_265\n      jump\t// in\n    tag_295:\n      mload(0x40)\n      0x20\n      dup2\n      dup4\n      sub\n      sub\n      dup2\n      mstore\n      swap1\n      0x40\n      mstore\n        /* \"NFTES_Drop_flat.sol\":21061:21065  data */\n      0x02\n        /* \"NFTES_Drop_flat.sol\":21061:21169  data = string(... */\n      swap1\n      dup1\n      mload\n      swap1\n      0x20\n      add\n      swap1\n      tag_296\n      swap3\n      swap2\n      swap1\n      tag_267\n      jump\t// in\n    tag_296:\n      pop\n        /* \"NFTES_Drop_flat.sol\":21194:21199  nftId */\n      dup1\n        /* \"NFTES_Drop_flat.sol\":21187:21199  return nftId */\n      swap2\n      pop\n      pop\n        /* \"NFTES_Drop_flat.sol\":16417:16418  _ */\n    tag_256:\n        /* \"NFTES_Drop_flat.sol\":19588:21230  function updateConditions(uint256 index)... */\n      swap2\n      swap1\n      pop\n      jump\t// out\n        /* \"NFTES_Drop_flat.sol\":13711:14263  function _mint(... */\n    tag_136:\n        /* \"NFTES_Drop_flat.sol\":13873:13874  0 */\n      0x00\n        /* \"NFTES_Drop_flat.sol\":13859:13875  to != address(0) */\n      0xffffffffffffffffffffffffffffffffffffffff\n      and\n        /* \"NFTES_Drop_flat.sol\":13859:13861  to */\n      dup5\n        /* \"NFTES_Drop_flat.sol\":13859:13875  to != address(0) */\n      0xffffffffffffffffffffffffffffffffffffffff\n      and\n      eq\n      iszero\n        /* \"NFTES_Drop_flat.sol\":13851:13913  require(to != address(0), \"ERC1155: mint to the zero address\") */\n      tag_298\n      jumpi\n      mload(0x40)\n      0x08c379a000000000000000000000000000000000000000000000000000000000\n      dup2\n      mstore\n      0x04\n      add\n      tag_299\n      swap1\n      tag_300\n      jump\t// in\n    tag_299:\n      mload(0x40)\n      dup1\n      swap2\n      sub\n      swap1\n      revert\n    tag_298:\n        /* \"NFTES_Drop_flat.sol\":13924:13940  address operator */\n      0x00\n        /* \"NFTES_Drop_flat.sol\":13943:13955  _msgSender() */\n      tag_301\n        /* \"NFTES_Drop_flat.sol\":13943:13953  _msgSender */\n      tag_92\n        /* \"NFTES_Drop_flat.sol\":13943:13955  _msgSender() */\n      jump\t// in\n    tag_301:\n        /* \"NFTES_Drop_flat.sol\":13924:13955  address operator = _msgSender() */\n      swap1\n      pop\n        /* \"NFTES_Drop_flat.sol\":13966:14068  _beforeTokenTransfer(operator, address(0), to, _asSingletonArray(id), _asSingletonArray(amount), data) */\n      tag_302\n        /* \"NFTES_Drop_flat.sol\":13987:13995  operator */\n      dup2\n        /* \"NFTES_Drop_flat.sol\":14005:14006  0 */\n      0x00\n        /* \"NFTES_Drop_flat.sol\":14009:14011  to */\n      dup8\n        /* \"NFTES_Drop_flat.sol\":14013:14034  _asSingletonArray(id) */\n      tag_303\n        /* \"NFTES_Drop_flat.sol\":14031:14033  id */\n      dup9\n        /* \"NFTES_Drop_flat.sol\":14013:14030  _asSingletonArray */\n      tag_304\n        /* \"NFTES_Drop_flat.sol\":14013:14034  _asSingletonArray(id) */\n      jump\t// in\n    tag_303:\n        /* \"NFTES_Drop_flat.sol\":14036:14061  _asSingletonArray(amount) */\n      tag_305\n        /* \"NFTES_Drop_flat.sol\":14054:14060  amount */\n      dup9\n        /* \"NFTES_Drop_flat.sol\":14036:14053  _asSingletonArray */\n      tag_304\n        /* \"NFTES_Drop_flat.sol\":14036:14061  _asSingletonArray(amount) */\n      jump\t// in\n    tag_305:\n        /* \"NFTES_Drop_flat.sol\":14063:14067  data */\n      dup8\n        /* \"NFTES_Drop_flat.sol\":13966:13986  _beforeTokenTransfer */\n      tag_306\n        /* \"NFTES_Drop_flat.sol\":13966:14068  _beforeTokenTransfer(operator, address(0), to, _asSingletonArray(id), _asSingletonArray(amount), data) */\n      jump\t// in\n    tag_302:\n        /* \"NFTES_Drop_flat.sol\":14099:14105  amount */\n      dup3\n        /* \"NFTES_Drop_flat.sol\":14078:14087  _balances */\n      0x00\n        /* \"NFTES_Drop_flat.sol\":14078:14091  _balances[id] */\n      dup1\n        /* \"NFTES_Drop_flat.sol\":14088:14090  id */\n      dup7\n        /* \"NFTES_Drop_flat.sol\":14078:14091  _balances[id] */\n      dup2\n      mstore\n      0x20\n      add\n      swap1\n      dup2\n      mstore\n      0x20\n      add\n      0x00\n      keccak256\n        /* \"NFTES_Drop_flat.sol\":14078:14095  _balances[id][to] */\n      0x00\n        /* \"NFTES_Drop_flat.sol\":14092:14094  to */\n      dup8\n        /* \"NFTES_Drop_flat.sol\":14078:14095  _balances[id][to] */\n      0xffffffffffffffffffffffffffffffffffffffff\n      and\n      0xffffffffffffffffffffffffffffffffffffffff\n      and\n      dup2\n      mstore\n      0x20\n      add\n      swap1\n      dup2\n      mstore\n      0x20\n      add\n      0x00\n      keccak256\n      0x00\n        /* \"NFTES_Drop_flat.sol\":14078:14105  _balances[id][to] += amount */\n      dup3\n      dup3\n      sload\n      tag_307\n      swap2\n      swap1\n      tag_247\n      jump\t// in\n    tag_307:\n      swap3\n      pop\n      pop\n      dup2\n      swap1\n      sstore\n      pop\n        /* \"NFTES_Drop_flat.sol\":14157:14159  to */\n      dup5\n        /* \"NFTES_Drop_flat.sol\":14120:14172  TransferSingle(operator, address(0), to, id, amount) */\n      0xffffffffffffffffffffffffffffffffffffffff\n      and\n        /* \"NFTES_Drop_flat.sol\":14153:14154  0 */\n      0x00\n        /* \"NFTES_Drop_flat.sol\":14120:14172  TransferSingle(operator, address(0), to, id, amount) */\n      0xffffffffffffffffffffffffffffffffffffffff\n      and\n        /* \"NFTES_Drop_flat.sol\":14135:14143  operator */\n      dup3\n        /* \"NFTES_Drop_flat.sol\":14120:14172  TransferSingle(operator, address(0), to, id, amount) */\n      0xffffffffffffffffffffffffffffffffffffffff\n      and\n      0xc3d58168c5ae7397731d063d5bbf3d657854427343f4c083240f7aacaa2d0f62\n        /* \"NFTES_Drop_flat.sol\":14161:14163  id */\n      dup8\n        /* \"NFTES_Drop_flat.sol\":14165:14171  amount */\n      dup8\n        /* \"NFTES_Drop_flat.sol\":14120:14172  TransferSingle(operator, address(0), to, id, amount) */\n      mload(0x40)\n      tag_308\n      swap3\n      swap2\n      swap1\n      tag_309\n      jump\t// in\n    tag_308:\n      mload(0x40)\n      dup1\n      swap2\n      sub\n      swap1\n      log4\n        /* \"NFTES_Drop_flat.sol\":14182:14256  _doSafeTransferAcceptanceCheck(operator, address(0), to, id, amount, data) */\n      tag_310\n        /* \"NFTES_Drop_flat.sol\":14213:14221  operator */\n      dup2\n        /* \"NFTES_Drop_flat.sol\":14231:14232  0 */\n      0x00\n        /* \"NFTES_Drop_flat.sol\":14235:14237  to */\n      dup8\n        /* \"NFTES_Drop_flat.sol\":14239:14241  id */\n      dup8\n        /* \"NFTES_Drop_flat.sol\":14243:14249  amount */\n      dup8\n        /* \"NFTES_Drop_flat.sol\":14251:14255  data */\n      dup8\n        /* \"NFTES_Drop_flat.sol\":14182:14212  _doSafeTransferAcceptanceCheck */\n      tag_311\n        /* \"NFTES_Drop_flat.sol\":14182:14256  _doSafeTransferAcceptanceCheck(operator, address(0), to, id, amount, data) */\n      jump\t// in\n    tag_310:\n        /* \"NFTES_Drop_flat.sol\":13841:14263  {... */\n      pop\n        /* \"NFTES_Drop_flat.sol\":13711:14263  function _mint(... */\n      pop\n      pop\n      pop\n      pop\n      jump\t// out\n        /* \"NFTES_Drop_flat.sol\":22393:22516  function depositAmount(address payee, uint256 amountToDeposit) internal {... */\n    tag_175:\n        /* \"NFTES_Drop_flat.sol\":22494:22509  amountToDeposit */\n      dup1\n        /* \"NFTES_Drop_flat.sol\":22475:22483  deposits */\n      0x0d\n        /* \"NFTES_Drop_flat.sol\":22475:22490  deposits[payee] */\n      0x00\n        /* \"NFTES_Drop_flat.sol\":22484:22489  payee */\n      dup5\n        /* \"NFTES_Drop_flat.sol\":22475:22490  deposits[payee] */\n      0xffffffffffffffffffffffffffffffffffffffff\n      and\n      0xffffffffffffffffffffffffffffffffffffffff\n      and\n      dup2\n      mstore\n      0x20\n      add\n      swap1\n      dup2\n      mstore\n      0x20\n      add\n      0x00\n      keccak256\n      0x00\n        /* \"NFTES_Drop_flat.sol\":22475:22509  deposits[payee] += amountToDeposit */\n      dup3\n      dup3\n      sload\n      tag_313\n      swap2\n      swap1\n      tag_247\n      jump\t// in\n    tag_313:\n      swap3\n      pop\n      pop\n      dup2\n      swap1\n      sstore\n      pop\n        /* \"NFTES_Drop_flat.sol\":22393:22516  function depositAmount(address payee, uint256 amountToDeposit) internal {... */\n      pop\n      pop\n      jump\t// out\n        /* \"NFTES_Drop_flat.sol\":273:976  function toString(uint256 value) internal pure returns (string memory) {... */\n    tag_263:\n        /* \"NFTES_Drop_flat.sol\":329:342  string memory */\n      0x60\n        /* \"NFTES_Drop_flat.sol\":555:556  0 */\n      0x00\n        /* \"NFTES_Drop_flat.sol\":546:551  value */\n      dup3\n        /* \"NFTES_Drop_flat.sol\":546:556  value == 0 */\n      eq\n        /* \"NFTES_Drop_flat.sol\":542:593  if (value == 0) {... */\n      iszero\n      tag_315\n      jumpi\n        /* \"NFTES_Drop_flat.sol\":572:582  return \"0\" */\n      mload(0x40)\n      dup1\n      0x40\n      add\n      0x40\n      mstore\n      dup1\n      0x01\n      dup2\n      mstore\n      0x20\n      add\n      0x3000000000000000000000000000000000000000000000000000000000000000\n      dup2\n      mstore\n      pop\n      swap1\n      pop\n      jump(tag_314)\n        /* \"NFTES_Drop_flat.sol\":542:593  if (value == 0) {... */\n    tag_315:\n        /* \"NFTES_Drop_flat.sol\":602:614  uint256 temp */\n      0x00\n        /* \"NFTES_Drop_flat.sol\":617:622  value */\n      dup3\n        /* \"NFTES_Drop_flat.sol\":602:622  uint256 temp = value */\n      swap1\n      pop\n        /* \"NFTES_Drop_flat.sol\":632:646  uint256 digits */\n      0x00\n        /* \"NFTES_Drop_flat.sol\":656:731  while (temp != 0) {... */\n    tag_316:\n        /* \"NFTES_Drop_flat.sol\":671:672  0 */\n      0x00\n        /* \"NFTES_Drop_flat.sol\":663:667  temp */\n      dup3\n        /* \"NFTES_Drop_flat.sol\":663:672  temp != 0 */\n      eq\n        /* \"NFTES_Drop_flat.sol\":656:731  while (temp != 0) {... */\n      tag_317\n      jumpi\n        /* \"NFTES_Drop_flat.sol\":688:696  digits++ */\n      dup1\n      dup1\n      tag_318\n      swap1\n      tag_138\n      jump\t// in\n    tag_318:\n      swap2\n      pop\n      pop\n        /* \"NFTES_Drop_flat.sol\":718:720  10 */\n      0x0a\n        /* \"NFTES_Drop_flat.sol\":710:720  temp /= 10 */\n      dup3\n      tag_319\n      swap2\n      swap1\n      tag_320\n      jump\t// in\n    tag_319:\n      swap2\n      pop\n        /* \"NFTES_Drop_flat.sol\":656:731  while (temp != 0) {... */\n      jump(tag_316)\n    tag_317:\n        /* \"NFTES_Drop_flat.sol\":740:759  bytes memory buffer */\n      0x00\n        /* \"NFTES_Drop_flat.sol\":772:778  digits */\n      dup2\n        /* \"NFTES_Drop_flat.sol\":762:779  new bytes(digits) */\n      0xffffffffffffffff\n      dup2\n      gt\n      iszero\n      tag_321\n      jumpi\n      tag_322\n      tag_323\n      jump\t// in\n    tag_322:\n    tag_321:\n      mload(0x40)\n      swap1\n      dup1\n      dup3\n      mstore\n      dup1\n      0x1f\n      add\n      not(0x1f)\n      and\n      0x20\n      add\n      dup3\n      add\n      0x40\n      mstore\n      dup1\n      iszero\n      tag_324\n      jumpi\n      dup2\n      0x20\n      add\n      0x01\n      dup3\n      mul\n      dup1\n      calldatasize\n      dup4\n      calldatacopy\n      dup1\n      dup3\n      add\n      swap2\n      pop\n      pop\n      swap1\n      pop\n    tag_324:\n      pop\n        /* \"NFTES_Drop_flat.sol\":740:779  bytes memory buffer = new bytes(digits) */\n      swap1\n      pop\n        /* \"NFTES_Drop_flat.sol\":789:939  while (value != 0) {... */\n    tag_325:\n        /* \"NFTES_Drop_flat.sol\":805:806  0 */\n      0x00\n        /* \"NFTES_Drop_flat.sol\":796:801  value */\n      dup6\n        /* \"NFTES_Drop_flat.sol\":796:806  value != 0 */\n      eq\n        /* \"NFTES_Drop_flat.sol\":789:939  while (value != 0) {... */\n      tag_326\n      jumpi\n        /* \"NFTES_Drop_flat.sol\":832:833  1 */\n      0x01\n        /* \"NFTES_Drop_flat.sol\":822:833  digits -= 1 */\n      dup3\n      tag_327\n      swap2\n      swap1\n      tag_328\n      jump\t// in\n    tag_327:\n      swap2\n      pop\n        /* \"NFTES_Drop_flat.sol\":898:900  10 */\n      0x0a\n        /* \"NFTES_Drop_flat.sol\":890:895  value */\n      dup6\n        /* \"NFTES_Drop_flat.sol\":890:900  value % 10 */\n      tag_329\n      swap2\n      swap1\n      tag_258\n      jump\t// in\n    tag_329:\n        /* \"NFTES_Drop_flat.sol\":877:879  48 */\n      0x30\n        /* \"NFTES_Drop_flat.sol\":877:901  48 + uint256(value % 10) */\n      tag_330\n      swap2\n      swap1\n      tag_247\n      jump\t// in\n    tag_330:\n        /* \"NFTES_Drop_flat.sol\":864:903  bytes1(uint8(48 + uint256(value % 10))) */\n      0xf8\n      shl\n        /* \"NFTES_Drop_flat.sol\":847:853  buffer */\n      dup2\n        /* \"NFTES_Drop_flat.sol\":854:860  digits */\n      dup4\n        /* \"NFTES_Drop_flat.sol\":847:861  buffer[digits] */\n      dup2\n      mload\n      dup2\n      lt\n      tag_331\n      jumpi\n      tag_332\n      tag_333\n      jump\t// in\n    tag_332:\n    tag_331:\n      0x20\n      add\n      add\n        /* \"NFTES_Drop_flat.sol\":847:903  buffer[digits] = bytes1(uint8(48 + uint256(value % 10))) */\n      swap1\n      not(0xffffffffffffffffffffffffffffffffffffffffffffffffffffffffffffff)\n      and\n      swap1\n      dup2\n      0x00\n      byte\n      swap1\n      mstore8\n      pop\n        /* \"NFTES_Drop_flat.sol\":926:928  10 */\n      0x0a\n        /* \"NFTES_Drop_flat.sol\":917:928  value /= 10 */\n      dup6\n      tag_334\n      swap2\n      swap1\n      tag_320\n      jump\t// in\n    tag_334:\n      swap5\n      pop\n        /* \"NFTES_Drop_flat.sol\":789:939  while (value != 0) {... */\n      jump(tag_325)\n    tag_326:\n        /* \"NFTES_Drop_flat.sol\":962:968  buffer */\n      dup1\n        /* \"NFTES_Drop_flat.sol\":948:969  return string(buffer) */\n      swap4\n      pop\n      pop\n      pop\n      pop\n        /* \"NFTES_Drop_flat.sol\":273:976  function toString(uint256 value) internal pure returns (string memory) {... */\n    tag_314:\n      swap2\n      swap1\n      pop\n      jump\t// out\n        /* \"NFTES_Drop_flat.sol\":15223:15416  function _asSingletonArray(uint256 element) private pure returns (uint256[] memory) {... */\n    tag_304:\n        /* \"NFTES_Drop_flat.sol\":15289:15305  uint256[] memory */\n      0x60\n        /* \"NFTES_Drop_flat.sol\":15317:15339  uint256[] memory array */\n      0x00\n        /* \"NFTES_Drop_flat.sol\":15356:15357  1 */\n      0x01\n        /* \"NFTES_Drop_flat.sol\":15342:15358  new uint256[](1) */\n      0xffffffffffffffff\n      dup2\n      gt\n      iszero\n      tag_336\n      jumpi\n      tag_337\n      tag_323\n      jump\t// in\n    tag_337:\n    tag_336:\n      mload(0x40)\n      swap1\n      dup1\n      dup3\n      mstore\n      dup1\n      0x20\n      mul\n      0x20\n      add\n      dup3\n      add\n      0x40\n      mstore\n      dup1\n      iszero\n      tag_338\n      jumpi\n      dup2\n      0x20\n      add\n      0x20\n      dup3\n      mul\n      dup1\n      calldatasize\n      dup4\n      calldatacopy\n      dup1\n      dup3\n      add\n      swap2\n      pop\n      pop\n      swap1\n      pop\n    tag_338:\n      pop\n        /* \"NFTES_Drop_flat.sol\":15317:15358  uint256[] memory array = new uint256[](1) */\n      swap1\n      pop\n        /* \"NFTES_Drop_flat.sol\":15379:15386  element */\n      dup3\n        /* \"NFTES_Drop_flat.sol\":15368:15373  array */\n      dup2\n        /* \"NFTES_Drop_flat.sol\":15374:15375  0 */\n      0x00\n        /* \"NFTES_Drop_flat.sol\":15368:15376  array[0] */\n      dup2\n      mload\n      dup2\n      lt\n      tag_339\n      jumpi\n      tag_340\n      tag_333\n      jump\t// in\n    tag_340:\n    tag_339:\n      0x20\n      mul\n      0x20\n      add\n      add\n        /* \"NFTES_Drop_flat.sol\":15368:15386  array[0] = element */\n      dup2\n      dup2\n      mstore\n      pop\n      pop\n        /* \"NFTES_Drop_flat.sol\":15404:15409  array */\n      dup1\n        /* \"NFTES_Drop_flat.sol\":15397:15409  return array */\n      swap2\n      pop\n      pop\n        /* \"NFTES_Drop_flat.sol\":15223:15416  function _asSingletonArray(uint256 element) private pure returns (uint256[] memory) {... */\n      swap2\n      swap1\n      pop\n      jump\t// out\n        /* \"NFTES_Drop_flat.sol\":14270:14485  function _beforeTokenTransfer(... */\n    tag_306:\n      pop\n      pop\n      pop\n      pop\n      pop\n      pop\n      jump\t// out\n        /* \"NFTES_Drop_flat.sol\":14491:15217  function _doSafeTransferAcceptanceCheck(... */\n    tag_311:\n        /* \"NFTES_Drop_flat.sol\":14699:14714  to.isContract() */\n      tag_343\n        /* \"NFTES_Drop_flat.sol\":14699:14701  to */\n      dup5\n        /* \"NFTES_Drop_flat.sol\":14699:14712  to.isContract */\n      0xffffffffffffffffffffffffffffffffffffffff\n      and\n      tag_344\n        /* \"NFTES_Drop_flat.sol\":14699:14714  to.isContract() */\n      jump\t// in\n    tag_343:\n        /* \"NFTES_Drop_flat.sol\":14695:15211  if (to.isContract()) {... */\n      iszero\n      tag_345\n      jumpi\n        /* \"NFTES_Drop_flat.sol\":14751:14753  to */\n      dup4\n        /* \"NFTES_Drop_flat.sol\":14734:14772  IERC1155Receiver(to).onERC1155Received */\n      0xffffffffffffffffffffffffffffffffffffffff\n      and\n      0xae89a248\n        /* \"NFTES_Drop_flat.sol\":14773:14781  operator */\n      dup8\n        /* \"NFTES_Drop_flat.sol\":14783:14787  from */\n      dup8\n        /* \"NFTES_Drop_flat.sol\":14789:14791  id */\n      dup7\n        /* \"NFTES_Drop_flat.sol\":14793:14799  amount */\n      dup7\n        /* \"NFTES_Drop_flat.sol\":14801:14805  data */\n      dup7\n        /* \"NFTES_Drop_flat.sol\":14734:14806  IERC1155Receiver(to).onERC1155Received(operator, from, id, amount, data) */\n      mload(0x40)\n      dup7\n      0xffffffff\n      and\n      0xe0\n      shl\n      dup2\n      mstore\n      0x04\n      add\n      tag_346\n      swap6\n      swap5\n      swap4\n      swap3\n      swap2\n      swap1\n      tag_347\n      jump\t// in\n    tag_346:\n      0x20\n      mload(0x40)\n      dup1\n      dup4\n      sub\n      dup2\n      0x00\n      dup8\n      dup1\n      extcodesize\n      iszero\n      dup1\n      iszero\n      tag_348\n      jumpi\n      0x00\n      dup1\n      revert\n    tag_348:\n      pop\n      gas\n      call\n      swap3\n      pop\n      pop\n      pop\n      dup1\n      iszero\n      tag_349\n      jumpi\n      pop\n      mload(0x40)\n      returndatasize\n      not(0x1f)\n      0x1f\n      dup3\n      add\n      and\n      dup3\n      add\n      dup1\n      0x40\n      mstore\n      pop\n      dup2\n      add\n      swap1\n      tag_350\n      swap2\n      swap1\n      tag_351\n      jump\t// in\n    tag_350:\n      0x01\n    tag_349:\n        /* \"NFTES_Drop_flat.sol\":14730:15201  try IERC1155Receiver(to).onERC1155Received(operator, from, id, amount, data) returns (bytes4 response) {... */\n      tag_352\n      jumpi\n      tag_356\n      tag_357\n      jump\t// in\n    tag_356:\n      dup1\n      0x08c379a0\n      eq\n      iszero\n      tag_355\n      jumpi\n      pop\n      tag_358\n      tag_359\n      jump\t// in\n    tag_358:\n      dup1\n      tag_360\n      jumpi\n      pop\n      jump(tag_354)\n    tag_360:\n        /* \"NFTES_Drop_flat.sol\":15077:15083  reason */\n      dup1\n        /* \"NFTES_Drop_flat.sol\":15070:15084  revert(reason) */\n      mload(0x40)\n      0x08c379a000000000000000000000000000000000000000000000000000000000\n      dup2\n      mstore\n      0x04\n      add\n      tag_361\n      swap2\n      swap1\n      tag_362\n      jump\t// in\n    tag_361:\n      mload(0x40)\n      dup1\n      swap2\n      sub\n      swap1\n      revert\n        /* \"NFTES_Drop_flat.sol\":14730:15201  try IERC1155Receiver(to).onERC1155Received(operator, from, id, amount, data) returns (bytes4 response) {... */\n    tag_355:\n      pop\n    tag_354:\n        /* \"NFTES_Drop_flat.sol\":15124:15186  revert(\"ERC1155: transfer to non ERC1155Receiver implementer\") */\n      mload(0x40)\n      0x08c379a000000000000000000000000000000000000000000000000000000000\n      dup2\n      mstore\n      0x04\n      add\n      tag_363\n      swap1\n      tag_364\n      jump\t// in\n    tag_363:\n      mload(0x40)\n      dup1\n      swap2\n      sub\n      swap1\n      revert\n        /* \"NFTES_Drop_flat.sol\":14730:15201  try IERC1155Receiver(to).onERC1155Received(operator, from, id, amount, data) returns (bytes4 response) {... */\n    tag_352:\n        /* \"NFTES_Drop_flat.sol\":14867:14910  IERC1155Receiver.onERC1155Received.selector */\n      shl(0xe0, 0xae89a248)\n        /* \"NFTES_Drop_flat.sol\":14855:14910  response != IERC1155Receiver.onERC1155Received.selector */\n      not(0xffffffffffffffffffffffffffffffffffffffffffffffffffffffff)\n      and\n        /* \"NFTES_Drop_flat.sol\":14855:14863  response */\n      dup2\n        /* \"NFTES_Drop_flat.sol\":14855:14910  response != IERC1155Receiver.onERC1155Received.selector */\n      not(0xffffffffffffffffffffffffffffffffffffffffffffffffffffffff)\n      and\n      eq\n        /* \"NFTES_Drop_flat.sol\":14851:15003  if (response != IERC1155Receiver.onERC1155Received.selector) {... */\n      tag_366\n      jumpi\n        /* \"NFTES_Drop_flat.sol\":14934:14984  revert(\"ERC1155: ERC1155Receiver rejected tokens\") */\n      mload(0x40)\n      0x08c379a000000000000000000000000000000000000000000000000000000000\n      dup2\n      mstore\n      0x04\n      add\n      tag_367\n      swap1\n      tag_368\n      jump\t// in\n    tag_367:\n      mload(0x40)\n      dup1\n      swap2\n      sub\n      swap1\n      revert\n        /* \"NFTES_Drop_flat.sol\":14851:15003  if (response != IERC1155Receiver.onERC1155Received.selector) {... */\n    tag_366:\n        /* \"NFTES_Drop_flat.sol\":14807:15017  returns (bytes4 response) {... */\n      pop\n        /* \"NFTES_Drop_flat.sol\":14695:15211  if (to.isContract()) {... */\n    tag_345:\n        /* \"NFTES_Drop_flat.sol\":14491:15217  function _doSafeTransferAcceptanceCheck(... */\n      pop\n      pop\n      pop\n      pop\n      pop\n      pop\n      jump\t// out\n        /* \"NFTES_Drop_flat.sol\":3574:3951  function isContract(address account) internal view returns (bool) {... */\n    tag_344:\n        /* \"NFTES_Drop_flat.sol\":3634:3638  bool */\n      0x00\n        /* \"NFTES_Drop_flat.sol\":3837:3849  uint256 size */\n      dup1\n        /* \"NFTES_Drop_flat.sol\":3902:3909  account */\n      dup3\n        /* \"NFTES_Drop_flat.sol\":3890:3910  extcodesize(account) */\n      extcodesize\n        /* \"NFTES_Drop_flat.sol\":3882:3910  size := extcodesize(account) */\n      swap1\n      pop\n        /* \"NFTES_Drop_flat.sol\":3943:3944  0 */\n      0x00\n        /* \"NFTES_Drop_flat.sol\":3936:3940  size */\n      dup2\n        /* \"NFTES_Drop_flat.sol\":3936:3944  size > 0 */\n      gt\n        /* \"NFTES_Drop_flat.sol\":3929:3944  return size > 0 */\n      swap2\n      pop\n      pop\n        /* \"NFTES_Drop_flat.sol\":3574:3951  function isContract(address account) internal view returns (bool) {... */\n      swap2\n      swap1\n      pop\n      jump\t// out\n    tag_267:\n      dup3\n      dup1\n      sload\n      tag_370\n      swap1\n      tag_131\n      jump\t// in\n    tag_370:\n      swap1\n      0x00\n      mstore\n      keccak256(0x00, 0x20)\n      swap1\n      0x1f\n      add\n      0x20\n      swap1\n      div\n      dup2\n      add\n      swap3\n      dup3\n      tag_372\n      jumpi\n      0x00\n      dup6\n      sstore\n      jump(tag_371)\n    tag_372:\n      dup3\n      0x1f\n      lt\n      tag_373\n      jumpi\n      dup1\n      mload\n      not(0xff)\n      and\n      dup4\n      dup1\n      add\n      or\n      dup6\n      sstore\n      jump(tag_371)\n    tag_373:\n      dup3\n      dup1\n      add\n      0x01\n      add\n      dup6\n      sstore\n      dup3\n      iszero\n      tag_371\n      jumpi\n      swap2\n      dup3\n      add\n    tag_374:\n      dup3\n      dup2\n      gt\n      iszero\n      tag_375\n      jumpi\n      dup3\n      mload\n      dup3\n      sstore\n      swap2\n      0x20\n      add\n      swap2\n      swap1\n      0x01\n      add\n      swap1\n      jump(tag_374)\n    tag_375:\n    tag_371:\n      pop\n      swap1\n      pop\n      tag_376\n      swap2\n      swap1\n      tag_377\n      jump\t// in\n    tag_376:\n      pop\n      swap1\n      jump\t// out\n    tag_377:\n    tag_378:\n      dup1\n      dup3\n      gt\n      iszero\n      tag_379\n      jumpi\n      0x00\n      dup2\n      0x00\n      swap1\n      sstore\n      pop\n      0x01\n      add\n      jump(tag_378)\n    tag_379:\n      pop\n      swap1\n      jump\t// out\n        /* \"#utility.yul\":7:146   */\n    tag_381:\n        /* \"#utility.yul\":53:58   */\n      0x00\n        /* \"#utility.yul\":91:97   */\n      dup2\n        /* \"#utility.yul\":78:98   */\n      calldataload\n        /* \"#utility.yul\":69:98   */\n      swap1\n      pop\n        /* \"#utility.yul\":107:140   */\n      tag_383\n        /* \"#utility.yul\":134:139   */\n      dup2\n        /* \"#utility.yul\":107:140   */\n      tag_384\n      jump\t// in\n    tag_383:\n        /* \"#utility.yul\":7:146   */\n      swap3\n      swap2\n      pop\n      pop\n      jump\t// out\n        /* \"#utility.yul\":152:307   */\n    tag_385:\n        /* \"#utility.yul\":206:211   */\n      0x00\n        /* \"#utility.yul\":244:250   */\n      dup2\n        /* \"#utility.yul\":231:251   */\n      calldataload\n        /* \"#utility.yul\":222:251   */\n      swap1\n      pop\n        /* \"#utility.yul\":260:301   */\n      tag_387\n        /* \"#utility.yul\":295:300   */\n      dup2\n        /* \"#utility.yul\":260:301   */\n      tag_388\n      jump\t// in\n    tag_387:\n        /* \"#utility.yul\":152:307   */\n      swap3\n      swap2\n      pop\n      pop\n      jump\t// out\n        /* \"#utility.yul\":313:454   */\n    tag_389:\n        /* \"#utility.yul\":369:374   */\n      0x00\n        /* \"#utility.yul\":400:406   */\n      dup2\n        /* \"#utility.yul\":394:407   */\n      mload\n        /* \"#utility.yul\":385:407   */\n      swap1\n      pop\n        /* \"#utility.yul\":416:448   */\n      tag_391\n        /* \"#utility.yul\":442:447   */\n      dup2\n        /* \"#utility.yul\":416:448   */\n      tag_392\n      jump\t// in\n    tag_391:\n        /* \"#utility.yul\":313:454   */\n      swap3\n      swap2\n      pop\n      pop\n      jump\t// out\n        /* \"#utility.yul\":460:599   */\n    tag_393:\n        /* \"#utility.yul\":506:511   */\n      0x00\n        /* \"#utility.yul\":544:550   */\n      dup2\n        /* \"#utility.yul\":531:551   */\n      calldataload\n        /* \"#utility.yul\":522:551   */\n      swap1\n      pop\n        /* \"#utility.yul\":560:593   */\n      tag_395\n        /* \"#utility.yul\":587:592   */\n      dup2\n        /* \"#utility.yul\":560:593   */\n      tag_396\n      jump\t// in\n    tag_395:\n        /* \"#utility.yul\":460:599   */\n      swap3\n      swap2\n      pop\n      pop\n      jump\t// out\n        /* \"#utility.yul\":605:934   */\n    tag_35:\n        /* \"#utility.yul\":664:670   */\n      0x00\n        /* \"#utility.yul\":713:715   */\n      0x20\n        /* \"#utility.yul\":701:710   */\n      dup3\n        /* \"#utility.yul\":692:699   */\n      dup5\n        /* \"#utility.yul\":688:711   */\n      sub\n        /* \"#utility.yul\":684:716   */\n      slt\n        /* \"#utility.yul\":681:800   */\n      iszero\n      tag_398\n      jumpi\n        /* \"#utility.yul\":719:798   */\n      tag_399\n      tag_400\n      jump\t// in\n    tag_399:\n        /* \"#utility.yul\":681:800   */\n    tag_398:\n        /* \"#utility.yul\":839:840   */\n      0x00\n        /* \"#utility.yul\":864:917   */\n      tag_401\n        /* \"#utility.yul\":909:916   */\n      dup5\n        /* \"#utility.yul\":900:906   */\n      dup3\n        /* \"#utility.yul\":889:898   */\n      dup6\n        /* \"#utility.yul\":885:907   */\n      add\n        /* \"#utility.yul\":864:917   */\n      tag_381\n      jump\t// in\n    tag_401:\n        /* \"#utility.yul\":854:917   */\n      swap2\n      pop\n        /* \"#utility.yul\":810:927   */\n      pop\n        /* \"#utility.yul\":605:934   */\n      swap3\n      swap2\n      pop\n      pop\n      jump\t// out\n        /* \"#utility.yul\":940:1430   */\n    tag_30:\n        /* \"#utility.yul\":1016:1022   */\n      0x00\n        /* \"#utility.yul\":1024:1030   */\n      dup1\n        /* \"#utility.yul\":1073:1075   */\n      0x40\n        /* \"#utility.yul\":1061:1070   */\n      dup4\n        /* \"#utility.yul\":1052:1059   */\n      dup6\n        /* \"#utility.yul\":1048:1071   */\n      sub\n        /* \"#utility.yul\":1044:1076   */\n      slt\n        /* \"#utility.yul\":1041:1160   */\n      iszero\n      tag_403\n      jumpi\n        /* \"#utility.yul\":1079:1158   */\n      tag_404\n      tag_400\n      jump\t// in\n    tag_404:\n        /* \"#utility.yul\":1041:1160   */\n    tag_403:\n        /* \"#utility.yul\":1199:1200   */\n      0x00\n        /* \"#utility.yul\":1224:1285   */\n      tag_405\n        /* \"#utility.yul\":1277:1284   */\n      dup6\n        /* \"#utility.yul\":1268:1274   */\n      dup3\n        /* \"#utility.yul\":1257:1266   */\n      dup7\n        /* \"#utility.yul\":1253:1275   */\n      add\n        /* \"#utility.yul\":1224:1285   */\n      tag_385\n      jump\t// in\n    tag_405:\n        /* \"#utility.yul\":1214:1285   */\n      swap3\n      pop\n        /* \"#utility.yul\":1170:1295   */\n      pop\n        /* \"#utility.yul\":1334:1336   */\n      0x20\n        /* \"#utility.yul\":1360:1413   */\n      tag_406\n        /* \"#utility.yul\":1405:1412   */\n      dup6\n        /* \"#utility.yul\":1396:1402   */\n      dup3\n        /* \"#utility.yul\":1385:1394   */\n      dup7\n        /* \"#utility.yul\":1381:1403   */\n      add\n        /* \"#utility.yul\":1360:1413   */\n      tag_393\n      jump\t// in\n    tag_406:\n        /* \"#utility.yul\":1350:1413   */\n      swap2\n      pop\n        /* \"#utility.yul\":1305:1423   */\n      pop\n        /* \"#utility.yul\":940:1430   */\n      swap3\n      pop\n      swap3\n      swap1\n      pop\n      jump\t// out\n        /* \"#utility.yul\":1436:1910   */\n    tag_46:\n        /* \"#utility.yul\":1504:1510   */\n      0x00\n        /* \"#utility.yul\":1512:1518   */\n      dup1\n        /* \"#utility.yul\":1561:1563   */\n      0x40\n        /* \"#utility.yul\":1549:1558   */\n      dup4\n        /* \"#utility.yul\":1540:1547   */\n      dup6\n        /* \"#utility.yul\":1536:1559   */\n      sub\n        /* \"#utility.yul\":1532:1564   */\n      slt\n        /* \"#utility.yul\":1529:1648   */\n      iszero\n      tag_408\n      jumpi\n        /* \"#utility.yul\":1567:1646   */\n      tag_409\n      tag_400\n      jump\t// in\n    tag_409:\n        /* \"#utility.yul\":1529:1648   */\n    tag_408:\n        /* \"#utility.yul\":1687:1688   */\n      0x00\n        /* \"#utility.yul\":1712:1765   */\n      tag_410\n        /* \"#utility.yul\":1757:1764   */\n      dup6\n        /* \"#utility.yul\":1748:1754   */\n      dup3\n        /* \"#utility.yul\":1737:1746   */\n      dup7\n        /* \"#utility.yul\":1733:1755   */\n      add\n        /* \"#utility.yul\":1712:1765   */\n      tag_381\n      jump\t// in\n    tag_410:\n        /* \"#utility.yul\":1702:1765   */\n      swap3\n      pop\n        /* \"#utility.yul\":1658:1775   */\n      pop\n        /* \"#utility.yul\":1814:1816   */\n      0x20\n        /* \"#utility.yul\":1840:1893   */\n      tag_411\n        /* \"#utility.yul\":1885:1892   */\n      dup6\n        /* \"#utility.yul\":1876:1882   */\n      dup3\n        /* \"#utility.yul\":1865:1874   */\n      dup7\n        /* \"#utility.yul\":1861:1883   */\n      add\n        /* \"#utility.yul\":1840:1893   */\n      tag_393\n      jump\t// in\n    tag_411:\n        /* \"#utility.yul\":1830:1893   */\n      swap2\n      pop\n        /* \"#utility.yul\":1785:1903   */\n      pop\n        /* \"#utility.yul\":1436:1910   */\n      swap3\n      pop\n      swap3\n      swap1\n      pop\n      jump\t// out\n        /* \"#utility.yul\":1916:2265   */\n    tag_351:\n        /* \"#utility.yul\":1985:1991   */\n      0x00\n        /* \"#utility.yul\":2034:2036   */\n      0x20\n        /* \"#utility.yul\":2022:2031   */\n      dup3\n        /* \"#utility.yul\":2013:2020   */\n      dup5\n        /* \"#utility.yul\":2009:2032   */\n      sub\n        /* \"#utility.yul\":2005:2037   */\n      slt\n        /* \"#utility.yul\":2002:2121   */\n      iszero\n      tag_413\n      jumpi\n        /* \"#utility.yul\":2040:2119   */\n      tag_414\n      tag_400\n      jump\t// in\n    tag_414:\n        /* \"#utility.yul\":2002:2121   */\n    tag_413:\n        /* \"#utility.yul\":2160:2161   */\n      0x00\n        /* \"#utility.yul\":2185:2248   */\n      tag_415\n        /* \"#utility.yul\":2240:2247   */\n      dup5\n        /* \"#utility.yul\":2231:2237   */\n      dup3\n        /* \"#utility.yul\":2220:2229   */\n      dup6\n        /* \"#utility.yul\":2216:2238   */\n      add\n        /* \"#utility.yul\":2185:2248   */\n      tag_389\n      jump\t// in\n    tag_415:\n        /* \"#utility.yul\":2175:2248   */\n      swap2\n      pop\n        /* \"#utility.yul\":2131:2258   */\n      pop\n        /* \"#utility.yul\":1916:2265   */\n      swap3\n      swap2\n      pop\n      pop\n      jump\t// out\n        /* \"#utility.yul\":2271:2600   */\n    tag_87:\n        /* \"#utility.yul\":2330:2336   */\n      0x00\n        /* \"#utility.yul\":2379:2381   */\n      0x20\n        /* \"#utility.yul\":2367:2376   */\n      dup3\n        /* \"#utility.yul\":2358:2365   */\n      dup5\n        /* \"#utility.yul\":2354:2377   */\n      sub\n        /* \"#utility.yul\":2350:2382   */\n      slt\n        /* \"#utility.yul\":2347:2466   */\n      iszero\n      tag_417\n      jumpi\n        /* \"#utility.yul\":2385:2464   */\n      tag_418\n      tag_400\n      jump\t// in\n    tag_418:\n        /* \"#utility.yul\":2347:2466   */\n    tag_417:\n        /* \"#utility.yul\":2505:2506   */\n      0x00\n        /* \"#utility.yul\":2530:2583   */\n      tag_419\n        /* \"#utility.yul\":2575:2582   */\n      dup5\n        /* \"#utility.yul\":2566:2572   */\n      dup3\n        /* \"#utility.yul\":2555:2564   */\n      dup6\n        /* \"#utility.yul\":2551:2573   */\n      add\n        /* \"#utility.yul\":2530:2583   */\n      tag_393\n      jump\t// in\n    tag_419:\n        /* \"#utility.yul\":2520:2583   */\n      swap2\n      pop\n        /* \"#utility.yul\":2476:2593   */\n      pop\n        /* \"#utility.yul\":2271:2600   */\n      swap3\n      swap2\n      pop\n      pop\n      jump\t// out\n        /* \"#utility.yul\":2606:2785   */\n    tag_420:\n        /* \"#utility.yul\":2675:2685   */\n      0x00\n        /* \"#utility.yul\":2696:2742   */\n      tag_422\n        /* \"#utility.yul\":2738:2741   */\n      dup4\n        /* \"#utility.yul\":2730:2736   */\n      dup4\n        /* \"#utility.yul\":2696:2742   */\n      tag_423\n      jump\t// in\n    tag_422:\n        /* \"#utility.yul\":2774:2778   */\n      0x20\n        /* \"#utility.yul\":2769:2772   */\n      dup4\n        /* \"#utility.yul\":2765:2779   */\n      add\n        /* \"#utility.yul\":2751:2779   */\n      swap1\n      pop\n        /* \"#utility.yul\":2606:2785   */\n      swap3\n      swap2\n      pop\n      pop\n      jump\t// out\n        /* \"#utility.yul\":2791:2933   */\n    tag_424:\n        /* \"#utility.yul\":2894:2926   */\n      tag_426\n        /* \"#utility.yul\":2920:2925   */\n      dup2\n        /* \"#utility.yul\":2894:2926   */\n      tag_427\n      jump\t// in\n    tag_426:\n        /* \"#utility.yul\":2889:2892   */\n      dup3\n        /* \"#utility.yul\":2882:2927   */\n      mstore\n        /* \"#utility.yul\":2791:2933   */\n      pop\n      pop\n      jump\t// out\n        /* \"#utility.yul\":2939:3128   */\n    tag_428:\n        /* \"#utility.yul\":3060:3121   */\n      tag_430\n        /* \"#utility.yul\":3088:3120   */\n      tag_431\n        /* \"#utility.yul\":3114:3119   */\n      dup3\n        /* \"#utility.yul\":3088:3120   */\n      tag_427\n      jump\t// in\n    tag_431:\n        /* \"#utility.yul\":3060:3121   */\n      tag_432\n      jump\t// in\n    tag_430:\n        /* \"#utility.yul\":3055:3058   */\n      dup3\n        /* \"#utility.yul\":3048:3122   */\n      mstore\n        /* \"#utility.yul\":2939:3128   */\n      pop\n      pop\n      jump\t// out\n        /* \"#utility.yul\":3134:3252   */\n    tag_433:\n        /* \"#utility.yul\":3221:3245   */\n      tag_435\n        /* \"#utility.yul\":3239:3244   */\n      dup2\n        /* \"#utility.yul\":3221:3245   */\n      tag_436\n      jump\t// in\n    tag_435:\n        /* \"#utility.yul\":3216:3219   */\n      dup3\n        /* \"#utility.yul\":3209:3246   */\n      mstore\n        /* \"#utility.yul\":3134:3252   */\n      pop\n      pop\n      jump\t// out\n        /* \"#utility.yul\":3258:3415   */\n    tag_437:\n        /* \"#utility.yul\":3363:3408   */\n      tag_439\n        /* \"#utility.yul\":3383:3407   */\n      tag_440\n        /* \"#utility.yul\":3401:3406   */\n      dup3\n        /* \"#utility.yul\":3383:3407   */\n      tag_436\n      jump\t// in\n    tag_440:\n        /* \"#utility.yul\":3363:3408   */\n      tag_441\n      jump\t// in\n    tag_439:\n        /* \"#utility.yul\":3358:3361   */\n      dup3\n        /* \"#utility.yul\":3351:3409   */\n      mstore\n        /* \"#utility.yul\":3258:3415   */\n      pop\n      pop\n      jump\t// out\n        /* \"#utility.yul\":3451:4183   */\n    tag_442:\n        /* \"#utility.yul\":3570:3573   */\n      0x00\n        /* \"#utility.yul\":3599:3653   */\n      tag_444\n        /* \"#utility.yul\":3647:3652   */\n      dup3\n        /* \"#utility.yul\":3599:3653   */\n      tag_445\n      jump\t// in\n    tag_444:\n        /* \"#utility.yul\":3669:3755   */\n      tag_446\n        /* \"#utility.yul\":3748:3754   */\n      dup2\n        /* \"#utility.yul\":3743:3746   */\n      dup6\n        /* \"#utility.yul\":3669:3755   */\n      tag_447\n      jump\t// in\n    tag_446:\n        /* \"#utility.yul\":3662:3755   */\n      swap4\n      pop\n        /* \"#utility.yul\":3779:3835   */\n      tag_448\n        /* \"#utility.yul\":3829:3834   */\n      dup4\n        /* \"#utility.yul\":3779:3835   */\n      tag_449\n      jump\t// in\n    tag_448:\n        /* \"#utility.yul\":3858:3865   */\n      dup1\n        /* \"#utility.yul\":3889:3890   */\n      0x00\n        /* \"#utility.yul\":3874:4158   */\n    tag_450:\n        /* \"#utility.yul\":3899:3905   */\n      dup4\n        /* \"#utility.yul\":3896:3897   */\n      dup2\n        /* \"#utility.yul\":3893:3906   */\n      lt\n        /* \"#utility.yul\":3874:4158   */\n      iszero\n      tag_452\n      jumpi\n        /* \"#utility.yul\":3975:3981   */\n      dup2\n        /* \"#utility.yul\":3969:3982   */\n      mload\n        /* \"#utility.yul\":4002:4065   */\n      tag_453\n        /* \"#utility.yul\":4061:4064   */\n      dup9\n        /* \"#utility.yul\":4046:4059   */\n      dup3\n        /* \"#utility.yul\":4002:4065   */\n      tag_420\n      jump\t// in\n    tag_453:\n        /* \"#utility.yul\":3995:4065   */\n      swap8\n      pop\n        /* \"#utility.yul\":4088:4148   */\n      tag_454\n        /* \"#utility.yul\":4141:4147   */\n      dup4\n        /* \"#utility.yul\":4088:4148   */\n      tag_455\n      jump\t// in\n    tag_454:\n        /* \"#utility.yul\":4078:4148   */\n      swap3\n      pop\n        /* \"#utility.yul\":3934:4158   */\n      pop\n        /* \"#utility.yul\":3921:3922   */\n      0x01\n        /* \"#utility.yul\":3918:3919   */\n      dup2\n        /* \"#utility.yul\":3914:3923   */\n      add\n        /* \"#utility.yul\":3909:3923   */\n      swap1\n      pop\n        /* \"#utility.yul\":3874:4158   */\n      jump(tag_450)\n    tag_452:\n        /* \"#utility.yul\":3878:3892   */\n      pop\n        /* \"#utility.yul\":4174:4177   */\n      dup6\n        /* \"#utility.yul\":4167:4177   */\n      swap4\n      pop\n        /* \"#utility.yul\":3575:4183   */\n      pop\n      pop\n      pop\n        /* \"#utility.yul\":3451:4183   */\n      swap3\n      swap2\n      pop\n      pop\n      jump\t// out\n        /* \"#utility.yul\":4189:4298   */\n    tag_456:\n        /* \"#utility.yul\":4270:4291   */\n      tag_458\n        /* \"#utility.yul\":4285:4290   */\n      dup2\n        /* \"#utility.yul\":4270:4291   */\n      tag_459\n      jump\t// in\n    tag_458:\n        /* \"#utility.yul\":4265:4268   */\n      dup3\n        /* \"#utility.yul\":4258:4292   */\n      mstore\n        /* \"#utility.yul\":4189:4298   */\n      pop\n      pop\n      jump\t// out\n        /* \"#utility.yul\":4304:4668   */\n    tag_460:\n        /* \"#utility.yul\":4392:4395   */\n      0x00\n        /* \"#utility.yul\":4420:4459   */\n      tag_462\n        /* \"#utility.yul\":4453:4458   */\n      dup3\n        /* \"#utility.yul\":4420:4459   */\n      tag_463\n      jump\t// in\n    tag_462:\n        /* \"#utility.yul\":4475:4546   */\n      tag_464\n        /* \"#utility.yul\":4539:4545   */\n      dup2\n        /* \"#utility.yul\":4534:4537   */\n      dup6\n        /* \"#utility.yul\":4475:4546   */\n      tag_465\n      jump\t// in\n    tag_464:\n        /* \"#utility.yul\":4468:4546   */\n      swap4\n      pop\n        /* \"#utility.yul\":4555:4607   */\n      tag_466\n        /* \"#utility.yul\":4600:4606   */\n      dup2\n        /* \"#utility.yul\":4595:4598   */\n      dup6\n        /* \"#utility.yul\":4588:4592   */\n      0x20\n        /* \"#utility.yul\":4581:4586   */\n      dup7\n        /* \"#utility.yul\":4577:4593   */\n      add\n        /* \"#utility.yul\":4555:4607   */\n      tag_467\n      jump\t// in\n    tag_466:\n        /* \"#utility.yul\":4632:4661   */\n      tag_468\n        /* \"#utility.yul\":4654:4660   */\n      dup2\n        /* \"#utility.yul\":4632:4661   */\n      tag_469\n      jump\t// in\n    tag_468:\n        /* \"#utility.yul\":4627:4630   */\n      dup5\n        /* \"#utility.yul\":4623:4662   */\n      add\n        /* \"#utility.yul\":4616:4662   */\n      swap2\n      pop\n        /* \"#utility.yul\":4396:4668   */\n      pop\n        /* \"#utility.yul\":4304:4668   */\n      swap3\n      swap2\n      pop\n      pop\n      jump\t// out\n        /* \"#utility.yul\":4674:5051   */\n    tag_470:\n        /* \"#utility.yul\":4780:4783   */\n      0x00\n        /* \"#utility.yul\":4808:4847   */\n      tag_472\n        /* \"#utility.yul\":4841:4846   */\n      dup3\n        /* \"#utility.yul\":4808:4847   */\n      tag_463\n      jump\t// in\n    tag_472:\n        /* \"#utility.yul\":4863:4952   */\n      tag_473\n        /* \"#utility.yul\":4945:4951   */\n      dup2\n        /* \"#utility.yul\":4940:4943   */\n      dup6\n        /* \"#utility.yul\":4863:4952   */\n      tag_474\n      jump\t// in\n    tag_473:\n        /* \"#utility.yul\":4856:4952   */\n      swap4\n      pop\n        /* \"#utility.yul\":4961:5013   */\n      tag_475\n        /* \"#utility.yul\":5006:5012   */\n      dup2\n        /* \"#utility.yul\":5001:5004   */\n      dup6\n        /* \"#utility.yul\":4994:4998   */\n      0x20\n        /* \"#utility.yul\":4987:4992   */\n      dup7\n        /* \"#utility.yul\":4983:4999   */\n      add\n        /* \"#utility.yul\":4961:5013   */\n      tag_467\n      jump\t// in\n    tag_475:\n        /* \"#utility.yul\":5038:5044   */\n      dup1\n        /* \"#utility.yul\":5033:5036   */\n      dup5\n        /* \"#utility.yul\":5029:5045   */\n      add\n        /* \"#utility.yul\":5022:5045   */\n      swap2\n      pop\n        /* \"#utility.yul\":4784:5051   */\n      pop\n        /* \"#utility.yul\":4674:5051   */\n      swap3\n      swap2\n      pop\n      pop\n      jump\t// out\n        /* \"#utility.yul\":5057:5423   */\n    tag_476:\n        /* \"#utility.yul\":5199:5202   */\n      0x00\n        /* \"#utility.yul\":5220:5287   */\n      tag_478\n        /* \"#utility.yul\":5284:5286   */\n      0x34\n        /* \"#utility.yul\":5279:5282   */\n      dup4\n        /* \"#utility.yul\":5220:5287   */\n      tag_465\n      jump\t// in\n    tag_478:\n        /* \"#utility.yul\":5213:5287   */\n      swap2\n      pop\n        /* \"#utility.yul\":5296:5389   */\n      tag_479\n        /* \"#utility.yul\":5385:5388   */\n      dup3\n        /* \"#utility.yul\":5296:5389   */\n      tag_480\n      jump\t// in\n    tag_479:\n        /* \"#utility.yul\":5414:5416   */\n      0x40\n        /* \"#utility.yul\":5409:5412   */\n      dup3\n        /* \"#utility.yul\":5405:5417   */\n      add\n        /* \"#utility.yul\":5398:5417   */\n      swap1\n      pop\n        /* \"#utility.yul\":5057:5423   */\n      swap2\n      swap1\n      pop\n      jump\t// out\n        /* \"#utility.yul\":5429:5795   */\n    tag_481:\n        /* \"#utility.yul\":5571:5574   */\n      0x00\n        /* \"#utility.yul\":5592:5659   */\n      tag_483\n        /* \"#utility.yul\":5656:5658   */\n      0x28\n        /* \"#utility.yul\":5651:5654   */\n      dup4\n        /* \"#utility.yul\":5592:5659   */\n      tag_465\n      jump\t// in\n    tag_483:\n        /* \"#utility.yul\":5585:5659   */\n      swap2\n      pop\n        /* \"#utility.yul\":5668:5761   */\n      tag_484\n        /* \"#utility.yul\":5757:5760   */\n      dup3\n        /* \"#utility.yul\":5668:5761   */\n      tag_485\n      jump\t// in\n    tag_484:\n        /* \"#utility.yul\":5786:5788   */\n      0x40\n        /* \"#utility.yul\":5781:5784   */\n      dup3\n        /* \"#utility.yul\":5777:5789   */\n      add\n        /* \"#utility.yul\":5770:5789   */\n      swap1\n      pop\n        /* \"#utility.yul\":5429:5795   */\n      swap2\n      swap1\n      pop\n      jump\t// out\n        /* \"#utility.yul\":5801:6167   */\n    tag_486:\n        /* \"#utility.yul\":5943:5946   */\n      0x00\n        /* \"#utility.yul\":5964:6031   */\n      tag_488\n        /* \"#utility.yul\":6028:6030   */\n      0x19\n        /* \"#utility.yul\":6023:6026   */\n      dup4\n        /* \"#utility.yul\":5964:6031   */\n      tag_465\n      jump\t// in\n    tag_488:\n        /* \"#utility.yul\":5957:6031   */\n      swap2\n      pop\n        /* \"#utility.yul\":6040:6133   */\n      tag_489\n        /* \"#utility.yul\":6129:6132   */\n      dup3\n        /* \"#utility.yul\":6040:6133   */\n      tag_490\n      jump\t// in\n    tag_489:\n        /* \"#utility.yul\":6158:6160   */\n      0x20\n        /* \"#utility.yul\":6153:6156   */\n      dup3\n        /* \"#utility.yul\":6149:6161   */\n      add\n        /* \"#utility.yul\":6142:6161   */\n      swap1\n      pop\n        /* \"#utility.yul\":5801:6167   */\n      swap2\n      swap1\n      pop\n      jump\t// out\n        /* \"#utility.yul\":6173:6573   */\n    tag_491:\n        /* \"#utility.yul\":6333:6336   */\n      0x00\n        /* \"#utility.yul\":6354:6438   */\n      tag_493\n        /* \"#utility.yul\":6436:6437   */\n      0x08\n        /* \"#utility.yul\":6431:6434   */\n      dup4\n        /* \"#utility.yul\":6354:6438   */\n      tag_474\n      jump\t// in\n    tag_493:\n        /* \"#utility.yul\":6347:6438   */\n      swap2\n      pop\n        /* \"#utility.yul\":6447:6540   */\n      tag_494\n        /* \"#utility.yul\":6536:6539   */\n      dup3\n        /* \"#utility.yul\":6447:6540   */\n      tag_495\n      jump\t// in\n    tag_494:\n        /* \"#utility.yul\":6565:6566   */\n      0x08\n        /* \"#utility.yul\":6560:6563   */\n      dup3\n        /* \"#utility.yul\":6556:6567   */\n      add\n        /* \"#utility.yul\":6549:6567   */\n      swap1\n      pop\n        /* \"#utility.yul\":6173:6573   */\n      swap2\n      swap1\n      pop\n      jump\t// out\n        /* \"#utility.yul\":6579:6945   */\n    tag_496:\n        /* \"#utility.yul\":6721:6724   */\n      0x00\n        /* \"#utility.yul\":6742:6809   */\n      tag_498\n        /* \"#utility.yul\":6806:6808   */\n      0x10\n        /* \"#utility.yul\":6801:6804   */\n      dup4\n        /* \"#utility.yul\":6742:6809   */\n      tag_465\n      jump\t// in\n    tag_498:\n        /* \"#utility.yul\":6735:6809   */\n      swap2\n      pop\n        /* \"#utility.yul\":6818:6911   */\n      tag_499\n        /* \"#utility.yul\":6907:6910   */\n      dup3\n        /* \"#utility.yul\":6818:6911   */\n      tag_500\n      jump\t// in\n    tag_499:\n        /* \"#utility.yul\":6936:6938   */\n      0x20\n        /* \"#utility.yul\":6931:6934   */\n      dup3\n        /* \"#utility.yul\":6927:6939   */\n      add\n        /* \"#utility.yul\":6920:6939   */\n      swap1\n      pop\n        /* \"#utility.yul\":6579:6945   */\n      swap2\n      swap1\n      pop\n      jump\t// out\n        /* \"#utility.yul\":6951:7351   */\n    tag_501:\n        /* \"#utility.yul\":7111:7114   */\n      0x00\n        /* \"#utility.yul\":7132:7216   */\n      tag_503\n        /* \"#utility.yul\":7214:7215   */\n      0x05\n        /* \"#utility.yul\":7209:7212   */\n      dup4\n        /* \"#utility.yul\":7132:7216   */\n      tag_474\n      jump\t// in\n    tag_503:\n        /* \"#utility.yul\":7125:7216   */\n      swap2\n      pop\n        /* \"#utility.yul\":7225:7318   */\n      tag_504\n        /* \"#utility.yul\":7314:7317   */\n      dup3\n        /* \"#utility.yul\":7225:7318   */\n      tag_505\n      jump\t// in\n    tag_504:\n        /* \"#utility.yul\":7343:7344   */\n      0x05\n        /* \"#utility.yul\":7338:7341   */\n      dup3\n        /* \"#utility.yul\":7334:7345   */\n      add\n        /* \"#utility.yul\":7327:7345   */\n      swap1\n      pop\n        /* \"#utility.yul\":6951:7351   */\n      swap2\n      swap1\n      pop\n      jump\t// out\n        /* \"#utility.yul\":7357:7723   */\n    tag_506:\n        /* \"#utility.yul\":7499:7502   */\n      0x00\n        /* \"#utility.yul\":7520:7587   */\n      tag_508\n        /* \"#utility.yul\":7584:7586   */\n      0x12\n        /* \"#utility.yul\":7579:7582   */\n      dup4\n        /* \"#utility.yul\":7520:7587   */\n      tag_465\n      jump\t// in\n    tag_508:\n        /* \"#utility.yul\":7513:7587   */\n      swap2\n      pop\n        /* \"#utility.yul\":7596:7689   */\n      tag_509\n        /* \"#utility.yul\":7685:7688   */\n      dup3\n        /* \"#utility.yul\":7596:7689   */\n      tag_510\n      jump\t// in\n    tag_509:\n        /* \"#utility.yul\":7714:7716   */\n      0x20\n        /* \"#utility.yul\":7709:7712   */\n      dup3\n        /* \"#utility.yul\":7705:7717   */\n      add\n        /* \"#utility.yul\":7698:7717   */\n      swap1\n      pop\n        /* \"#utility.yul\":7357:7723   */\n      swap2\n      swap1\n      pop\n      jump\t// out\n        /* \"#utility.yul\":7729:8095   */\n    tag_511:\n        /* \"#utility.yul\":7871:7874   */\n      0x00\n        /* \"#utility.yul\":7892:7959   */\n      tag_513\n        /* \"#utility.yul\":7956:7958   */\n      0x1b\n        /* \"#utility.yul\":7951:7954   */\n      dup4\n        /* \"#utility.yul\":7892:7959   */\n      tag_465\n      jump\t// in\n    tag_513:\n        /* \"#utility.yul\":7885:7959   */\n      swap2\n      pop\n        /* \"#utility.yul\":7968:8061   */\n      tag_514\n        /* \"#utility.yul\":8057:8060   */\n      dup3\n        /* \"#utility.yul\":7968:8061   */\n      tag_515\n      jump\t// in\n    tag_514:\n        /* \"#utility.yul\":8086:8088   */\n      0x20\n        /* \"#utility.yul\":8081:8084   */\n      dup3\n        /* \"#utility.yul\":8077:8089   */\n      add\n        /* \"#utility.yul\":8070:8089   */\n      swap1\n      pop\n        /* \"#utility.yul\":7729:8095   */\n      swap2\n      swap1\n      pop\n      jump\t// out\n        /* \"#utility.yul\":8101:8467   */\n    tag_516:\n        /* \"#utility.yul\":8243:8246   */\n      0x00\n        /* \"#utility.yul\":8264:8331   */\n      tag_518\n        /* \"#utility.yul\":8328:8330   */\n      0x1b\n        /* \"#utility.yul\":8323:8326   */\n      dup4\n        /* \"#utility.yul\":8264:8331   */\n      tag_465\n      jump\t// in\n    tag_518:\n        /* \"#utility.yul\":8257:8331   */\n      swap2\n      pop\n        /* \"#utility.yul\":8340:8433   */\n      tag_519\n        /* \"#utility.yul\":8429:8432   */\n      dup3\n        /* \"#utility.yul\":8340:8433   */\n      tag_520\n      jump\t// in\n    tag_519:\n        /* \"#utility.yul\":8458:8460   */\n      0x20\n        /* \"#utility.yul\":8453:8456   */\n      dup3\n        /* \"#utility.yul\":8449:8461   */\n      add\n        /* \"#utility.yul\":8442:8461   */\n      swap1\n      pop\n        /* \"#utility.yul\":8101:8467   */\n      swap2\n      swap1\n      pop\n      jump\t// out\n        /* \"#utility.yul\":8473:8839   */\n    tag_521:\n        /* \"#utility.yul\":8615:8618   */\n      0x00\n        /* \"#utility.yul\":8636:8703   */\n      tag_523\n        /* \"#utility.yul\":8700:8702   */\n      0x15\n        /* \"#utility.yul\":8695:8698   */\n      dup4\n        /* \"#utility.yul\":8636:8703   */\n      tag_465\n      jump\t// in\n    tag_523:\n        /* \"#utility.yul\":8629:8703   */\n      swap2\n      pop\n        /* \"#utility.yul\":8712:8805   */\n      tag_524\n        /* \"#utility.yul\":8801:8804   */\n      dup3\n        /* \"#utility.yul\":8712:8805   */\n      tag_525\n      jump\t// in\n    tag_524:\n        /* \"#utility.yul\":8830:8832   */\n      0x20\n        /* \"#utility.yul\":8825:8828   */\n      dup3\n        /* \"#utility.yul\":8821:8833   */\n      add\n        /* \"#utility.yul\":8814:8833   */\n      swap1\n      pop\n        /* \"#utility.yul\":8473:8839   */\n      swap2\n      swap1\n      pop\n      jump\t// out\n        /* \"#utility.yul\":8845:9211   */\n    tag_526:\n        /* \"#utility.yul\":8987:8990   */\n      0x00\n        /* \"#utility.yul\":9008:9075   */\n      tag_528\n        /* \"#utility.yul\":9072:9074   */\n      0x1c\n        /* \"#utility.yul\":9067:9070   */\n      dup4\n        /* \"#utility.yul\":9008:9075   */\n      tag_465\n      jump\t// in\n    tag_528:\n        /* \"#utility.yul\":9001:9075   */\n      swap2\n      pop\n        /* \"#utility.yul\":9084:9177   */\n      tag_529\n        /* \"#utility.yul\":9173:9176   */\n      dup3\n        /* \"#utility.yul\":9084:9177   */\n      tag_530\n      jump\t// in\n    tag_529:\n        /* \"#utility.yul\":9202:9204   */\n      0x20\n        /* \"#utility.yul\":9197:9200   */\n      dup3\n        /* \"#utility.yul\":9193:9205   */\n      add\n        /* \"#utility.yul\":9186:9205   */\n      swap1\n      pop\n        /* \"#utility.yul\":8845:9211   */\n      swap2\n      swap1\n      pop\n      jump\t// out\n        /* \"#utility.yul\":9217:9583   */\n    tag_531:\n        /* \"#utility.yul\":9359:9362   */\n      0x00\n        /* \"#utility.yul\":9380:9447   */\n      tag_533\n        /* \"#utility.yul\":9444:9446   */\n      0x1f\n        /* \"#utility.yul\":9439:9442   */\n      dup4\n        /* \"#utility.yul\":9380:9447   */\n      tag_465\n      jump\t// in\n    tag_533:\n        /* \"#utility.yul\":9373:9447   */\n      swap2\n      pop\n        /* \"#utility.yul\":9456:9549   */\n      tag_534\n        /* \"#utility.yul\":9545:9548   */\n      dup3\n        /* \"#utility.yul\":9456:9549   */\n      tag_535\n      jump\t// in\n    tag_534:\n        /* \"#utility.yul\":9574:9576   */\n      0x20\n        /* \"#utility.yul\":9569:9572   */\n      dup3\n        /* \"#utility.yul\":9565:9577   */\n      add\n        /* \"#utility.yul\":9558:9577   */\n      swap1\n      pop\n        /* \"#utility.yul\":9217:9583   */\n      swap2\n      swap1\n      pop\n      jump\t// out\n        /* \"#utility.yul\":9589:9955   */\n    tag_536:\n        /* \"#utility.yul\":9731:9734   */\n      0x00\n        /* \"#utility.yul\":9752:9819   */\n      tag_538\n        /* \"#utility.yul\":9816:9818   */\n      0x1b\n        /* \"#utility.yul\":9811:9814   */\n      dup4\n        /* \"#utility.yul\":9752:9819   */\n      tag_465\n      jump\t// in\n    tag_538:\n        /* \"#utility.yul\":9745:9819   */\n      swap2\n      pop\n        /* \"#utility.yul\":9828:9921   */\n      tag_539\n        /* \"#utility.yul\":9917:9920   */\n      dup3\n        /* \"#utility.yul\":9828:9921   */\n      tag_540\n      jump\t// in\n    tag_539:\n        /* \"#utility.yul\":9946:9948   */\n      0x20\n        /* \"#utility.yul\":9941:9944   */\n      dup3\n        /* \"#utility.yul\":9937:9949   */\n      add\n        /* \"#utility.yul\":9930:9949   */\n      swap1\n      pop\n        /* \"#utility.yul\":9589:9955   */\n      swap2\n      swap1\n      pop\n      jump\t// out\n        /* \"#utility.yul\":9961:10327   */\n    tag_541:\n        /* \"#utility.yul\":10103:10106   */\n      0x00\n        /* \"#utility.yul\":10124:10191   */\n      tag_543\n        /* \"#utility.yul\":10188:10190   */\n      0x19\n        /* \"#utility.yul\":10183:10186   */\n      dup4\n        /* \"#utility.yul\":10124:10191   */\n      tag_465\n      jump\t// in\n    tag_543:\n        /* \"#utility.yul\":10117:10191   */\n      swap2\n      pop\n        /* \"#utility.yul\":10200:10293   */\n      tag_544\n        /* \"#utility.yul\":10289:10292   */\n      dup3\n        /* \"#utility.yul\":10200:10293   */\n      tag_545\n      jump\t// in\n    tag_544:\n        /* \"#utility.yul\":10318:10320   */\n      0x20\n        /* \"#utility.yul\":10313:10316   */\n      dup3\n        /* \"#utility.yul\":10309:10321   */\n      add\n        /* \"#utility.yul\":10302:10321   */\n      swap1\n      pop\n        /* \"#utility.yul\":9961:10327   */\n      swap2\n      swap1\n      pop\n      jump\t// out\n        /* \"#utility.yul\":10333:10733   */\n    tag_546:\n        /* \"#utility.yul\":10493:10496   */\n      0x00\n        /* \"#utility.yul\":10514:10598   */\n      tag_548\n        /* \"#utility.yul\":10596:10597   */\n      0x07\n        /* \"#utility.yul\":10591:10594   */\n      dup4\n        /* \"#utility.yul\":10514:10598   */\n      tag_474\n      jump\t// in\n    tag_548:\n        /* \"#utility.yul\":10507:10598   */\n      swap2\n      pop\n        /* \"#utility.yul\":10607:10700   */\n      tag_549\n        /* \"#utility.yul\":10696:10699   */\n      dup3\n        /* \"#utility.yul\":10607:10700   */\n      tag_550\n      jump\t// in\n    tag_549:\n        /* \"#utility.yul\":10725:10726   */\n      0x07\n        /* \"#utility.yul\":10720:10723   */\n      dup3\n        /* \"#utility.yul\":10716:10727   */\n      add\n        /* \"#utility.yul\":10709:10727   */\n      swap1\n      pop\n        /* \"#utility.yul\":10333:10733   */\n      swap2\n      swap1\n      pop\n      jump\t// out\n        /* \"#utility.yul\":10739:11105   */\n    tag_551:\n        /* \"#utility.yul\":10881:10884   */\n      0x00\n        /* \"#utility.yul\":10902:10969   */\n      tag_553\n        /* \"#utility.yul\":10966:10968   */\n      0x21\n        /* \"#utility.yul\":10961:10964   */\n      dup4\n        /* \"#utility.yul\":10902:10969   */\n      tag_465\n      jump\t// in\n    tag_553:\n        /* \"#utility.yul\":10895:10969   */\n      swap2\n      pop\n        /* \"#utility.yul\":10978:11071   */\n      tag_554\n        /* \"#utility.yul\":11067:11070   */\n      dup3\n        /* \"#utility.yul\":10978:11071   */\n      tag_555\n      jump\t// in\n    tag_554:\n        /* \"#utility.yul\":11096:11098   */\n      0x40\n        /* \"#utility.yul\":11091:11094   */\n      dup3\n        /* \"#utility.yul\":11087:11099   */\n      add\n        /* \"#utility.yul\":11080:11099   */\n      swap1\n      pop\n        /* \"#utility.yul\":10739:11105   */\n      swap2\n      swap1\n      pop\n      jump\t// out\n        /* \"#utility.yul\":11111:11219   */\n    tag_423:\n        /* \"#utility.yul\":11188:11212   */\n      tag_557\n        /* \"#utility.yul\":11206:11211   */\n      dup2\n        /* \"#utility.yul\":11188:11212   */\n      tag_558\n      jump\t// in\n    tag_557:\n        /* \"#utility.yul\":11183:11186   */\n      dup3\n        /* \"#utility.yul\":11176:11213   */\n      mstore\n        /* \"#utility.yul\":11111:11219   */\n      pop\n      pop\n      jump\t// out\n        /* \"#utility.yul\":11225:11343   */\n    tag_559:\n        /* \"#utility.yul\":11312:11336   */\n      tag_561\n        /* \"#utility.yul\":11330:11335   */\n      dup2\n        /* \"#utility.yul\":11312:11336   */\n      tag_558\n      jump\t// in\n    tag_561:\n        /* \"#utility.yul\":11307:11310   */\n      dup3\n        /* \"#utility.yul\":11300:11337   */\n      mstore\n        /* \"#utility.yul\":11225:11343   */\n      pop\n      pop\n      jump\t// out\n        /* \"#utility.yul\":11349:11506   */\n    tag_562:\n        /* \"#utility.yul\":11454:11499   */\n      tag_564\n        /* \"#utility.yul\":11474:11498   */\n      tag_565\n        /* \"#utility.yul\":11492:11497   */\n      dup3\n        /* \"#utility.yul\":11474:11498   */\n      tag_558\n      jump\t// in\n    tag_565:\n        /* \"#utility.yul\":11454:11499   */\n      tag_566\n      jump\t// in\n    tag_564:\n        /* \"#utility.yul\":11449:11452   */\n      dup3\n        /* \"#utility.yul\":11442:11500   */\n      mstore\n        /* \"#utility.yul\":11349:11506   */\n      pop\n      pop\n      jump\t// out\n        /* \"#utility.yul\":11512:12053   */\n    tag_265:\n        /* \"#utility.yul\":11745:11748   */\n      0x00\n        /* \"#utility.yul\":11767:11915   */\n      tag_568\n        /* \"#utility.yul\":11911:11914   */\n      dup3\n        /* \"#utility.yul\":11767:11915   */\n      tag_491\n      jump\t// in\n    tag_568:\n        /* \"#utility.yul\":11760:11915   */\n      swap2\n      pop\n        /* \"#utility.yul\":11932:12027   */\n      tag_569\n        /* \"#utility.yul\":12023:12026   */\n      dup3\n        /* \"#utility.yul\":12014:12020   */\n      dup5\n        /* \"#utility.yul\":11932:12027   */\n      tag_470\n      jump\t// in\n    tag_569:\n        /* \"#utility.yul\":11925:12027   */\n      swap2\n      pop\n        /* \"#utility.yul\":12044:12047   */\n      dup2\n        /* \"#utility.yul\":12037:12047   */\n      swap1\n      pop\n        /* \"#utility.yul\":11512:12053   */\n      swap3\n      swap2\n      pop\n      pop\n      jump\t// out\n        /* \"#utility.yul\":12059:12600   */\n    tag_275:\n        /* \"#utility.yul\":12292:12295   */\n      0x00\n        /* \"#utility.yul\":12314:12462   */\n      tag_571\n        /* \"#utility.yul\":12458:12461   */\n      dup3\n        /* \"#utility.yul\":12314:12462   */\n      tag_501\n      jump\t// in\n    tag_571:\n        /* \"#utility.yul\":12307:12462   */\n      swap2\n      pop\n        /* \"#utility.yul\":12479:12574   */\n      tag_572\n        /* \"#utility.yul\":12570:12573   */\n      dup3\n        /* \"#utility.yul\":12561:12567   */\n      dup5\n        /* \"#utility.yul\":12479:12574   */\n      tag_470\n      jump\t// in\n    tag_572:\n        /* \"#utility.yul\":12472:12574   */\n      swap2\n      pop\n        /* \"#utility.yul\":12591:12594   */\n      dup2\n        /* \"#utility.yul\":12584:12594   */\n      swap1\n      pop\n        /* \"#utility.yul\":12059:12600   */\n      swap3\n      swap2\n      pop\n      pop\n      jump\t// out\n        /* \"#utility.yul\":12606:13147   */\n    tag_284:\n        /* \"#utility.yul\":12839:12842   */\n      0x00\n        /* \"#utility.yul\":12861:13009   */\n      tag_574\n        /* \"#utility.yul\":13005:13008   */\n      dup3\n        /* \"#utility.yul\":12861:13009   */\n      tag_546\n      jump\t// in\n    tag_574:\n        /* \"#utility.yul\":12854:13009   */\n      swap2\n      pop\n        /* \"#utility.yul\":13026:13121   */\n      tag_575\n        /* \"#utility.yul\":13117:13120   */\n      dup3\n        /* \"#utility.yul\":13108:13114   */\n      dup5\n        /* \"#utility.yul\":13026:13121   */\n      tag_470\n      jump\t// in\n    tag_575:\n        /* \"#utility.yul\":13019:13121   */\n      swap2\n      pop\n        /* \"#utility.yul\":13138:13141   */\n      dup2\n        /* \"#utility.yul\":13131:13141   */\n      swap1\n      pop\n        /* \"#utility.yul\":12606:13147   */\n      swap3\n      swap2\n      pop\n      pop\n      jump\t// out\n        /* \"#utility.yul\":13153:13723   */\n    tag_252:\n        /* \"#utility.yul\":13337:13340   */\n      0x00\n        /* \"#utility.yul\":13352:13427   */\n      tag_577\n        /* \"#utility.yul\":13423:13426   */\n      dup3\n        /* \"#utility.yul\":13414:13420   */\n      dup7\n        /* \"#utility.yul\":13352:13427   */\n      tag_562\n      jump\t// in\n    tag_577:\n        /* \"#utility.yul\":13452:13454   */\n      0x20\n        /* \"#utility.yul\":13447:13450   */\n      dup3\n        /* \"#utility.yul\":13443:13455   */\n      add\n        /* \"#utility.yul\":13436:13455   */\n      swap2\n      pop\n        /* \"#utility.yul\":13465:13540   */\n      tag_578\n        /* \"#utility.yul\":13536:13539   */\n      dup3\n        /* \"#utility.yul\":13527:13533   */\n      dup6\n        /* \"#utility.yul\":13465:13540   */\n      tag_437\n      jump\t// in\n    tag_578:\n        /* \"#utility.yul\":13565:13567   */\n      0x14\n        /* \"#utility.yul\":13560:13563   */\n      dup3\n        /* \"#utility.yul\":13556:13568   */\n      add\n        /* \"#utility.yul\":13549:13568   */\n      swap2\n      pop\n        /* \"#utility.yul\":13578:13669   */\n      tag_579\n        /* \"#utility.yul\":13665:13668   */\n      dup3\n        /* \"#utility.yul\":13656:13662   */\n      dup5\n        /* \"#utility.yul\":13578:13669   */\n      tag_428\n      jump\t// in\n    tag_579:\n        /* \"#utility.yul\":13694:13696   */\n      0x14\n        /* \"#utility.yul\":13689:13692   */\n      dup3\n        /* \"#utility.yul\":13685:13697   */\n      add\n        /* \"#utility.yul\":13678:13697   */\n      swap2\n      pop\n        /* \"#utility.yul\":13714:13717   */\n      dup2\n        /* \"#utility.yul\":13707:13717   */\n      swap1\n      pop\n        /* \"#utility.yul\":13153:13723   */\n      swap5\n      swap4\n      pop\n      pop\n      pop\n      pop\n      jump\t// out\n        /* \"#utility.yul\":13729:13983   */\n    tag_83:\n        /* \"#utility.yul\":13838:13842   */\n      0x00\n        /* \"#utility.yul\":13876:13878   */\n      0x20\n        /* \"#utility.yul\":13865:13874   */\n      dup3\n        /* \"#utility.yul\":13861:13879   */\n      add\n        /* \"#utility.yul\":13853:13879   */\n      swap1\n      pop\n        /* \"#utility.yul\":13889:13976   */\n      tag_581\n        /* \"#utility.yul\":13973:13974   */\n      0x00\n        /* \"#utility.yul\":13962:13971   */\n      dup4\n        /* \"#utility.yul\":13958:13975   */\n      add\n        /* \"#utility.yul\":13949:13955   */\n      dup5\n        /* \"#utility.yul\":13889:13976   */\n      tag_424\n      jump\t// in\n    tag_581:\n        /* \"#utility.yul\":13729:13983   */\n      swap3\n      swap2\n      pop\n      pop\n      jump\t// out\n        /* \"#utility.yul\":13989:14744   */\n    tag_347:\n        /* \"#utility.yul\":14214:14218   */\n      0x00\n        /* \"#utility.yul\":14252:14255   */\n      0xa0\n        /* \"#utility.yul\":14241:14250   */\n      dup3\n        /* \"#utility.yul\":14237:14256   */\n      add\n        /* \"#utility.yul\":14229:14256   */\n      swap1\n      pop\n        /* \"#utility.yul\":14266:14337   */\n      tag_583\n        /* \"#utility.yul\":14334:14335   */\n      0x00\n        /* \"#utility.yul\":14323:14332   */\n      dup4\n        /* \"#utility.yul\":14319:14336   */\n      add\n        /* \"#utility.yul\":14310:14316   */\n      dup9\n        /* \"#utility.yul\":14266:14337   */\n      tag_433\n      jump\t// in\n    tag_583:\n        /* \"#utility.yul\":14347:14419   */\n      tag_584\n        /* \"#utility.yul\":14415:14417   */\n      0x20\n        /* \"#utility.yul\":14404:14413   */\n      dup4\n        /* \"#utility.yul\":14400:14418   */\n      add\n        /* \"#utility.yul\":14391:14397   */\n      dup8\n        /* \"#utility.yul\":14347:14419   */\n      tag_433\n      jump\t// in\n    tag_584:\n        /* \"#utility.yul\":14429:14501   */\n      tag_585\n        /* \"#utility.yul\":14497:14499   */\n      0x40\n        /* \"#utility.yul\":14486:14495   */\n      dup4\n        /* \"#utility.yul\":14482:14500   */\n      add\n        /* \"#utility.yul\":14473:14479   */\n      dup7\n        /* \"#utility.yul\":14429:14501   */\n      tag_559\n      jump\t// in\n    tag_585:\n        /* \"#utility.yul\":14511:14583   */\n      tag_586\n        /* \"#utility.yul\":14579:14581   */\n      0x60\n        /* \"#utility.yul\":14568:14577   */\n      dup4\n        /* \"#utility.yul\":14564:14582   */\n      add\n        /* \"#utility.yul\":14555:14561   */\n      dup6\n        /* \"#utility.yul\":14511:14583   */\n      tag_559\n      jump\t// in\n    tag_586:\n        /* \"#utility.yul\":14631:14640   */\n      dup2\n        /* \"#utility.yul\":14625:14629   */\n      dup2\n        /* \"#utility.yul\":14621:14641   */\n      sub\n        /* \"#utility.yul\":14615:14618   */\n      0x80\n        /* \"#utility.yul\":14604:14613   */\n      dup4\n        /* \"#utility.yul\":14600:14619   */\n      add\n        /* \"#utility.yul\":14593:14642   */\n      mstore\n        /* \"#utility.yul\":14659:14737   */\n      tag_587\n        /* \"#utility.yul\":14732:14736   */\n      dup2\n        /* \"#utility.yul\":14723:14729   */\n      dup5\n        /* \"#utility.yul\":14659:14737   */\n      tag_460\n      jump\t// in\n    tag_587:\n        /* \"#utility.yul\":14651:14737   */\n      swap1\n      pop\n        /* \"#utility.yul\":13989:14744   */\n      swap7\n      swap6\n      pop\n      pop\n      pop\n      pop\n      pop\n      pop\n      jump\t// out\n        /* \"#utility.yul\":14750:15123   */\n    tag_38:\n        /* \"#utility.yul\":14893:14897   */\n      0x00\n        /* \"#utility.yul\":14931:14933   */\n      0x20\n        /* \"#utility.yul\":14920:14929   */\n      dup3\n        /* \"#utility.yul\":14916:14934   */\n      add\n        /* \"#utility.yul\":14908:14934   */\n      swap1\n      pop\n        /* \"#utility.yul\":14980:14989   */\n      dup2\n        /* \"#utility.yul\":14974:14978   */\n      dup2\n        /* \"#utility.yul\":14970:14990   */\n      sub\n        /* \"#utility.yul\":14966:14967   */\n      0x00\n        /* \"#utility.yul\":14955:14964   */\n      dup4\n        /* \"#utility.yul\":14951:14968   */\n      add\n        /* \"#utility.yul\":14944:14991   */\n      mstore\n        /* \"#utility.yul\":15008:15116   */\n      tag_589\n        /* \"#utility.yul\":15111:15115   */\n      dup2\n        /* \"#utility.yul\":15102:15108   */\n      dup5\n        /* \"#utility.yul\":15008:15116   */\n      tag_442\n      jump\t// in\n    tag_589:\n        /* \"#utility.yul\":15000:15116   */\n      swap1\n      pop\n        /* \"#utility.yul\":14750:15123   */\n      swap3\n      swap2\n      pop\n      pop\n      jump\t// out\n        /* \"#utility.yul\":15129:15339   */\n    tag_78:\n        /* \"#utility.yul\":15216:15220   */\n      0x00\n        /* \"#utility.yul\":15254:15256   */\n      0x20\n        /* \"#utility.yul\":15243:15252   */\n      dup3\n        /* \"#utility.yul\":15239:15257   */\n      add\n        /* \"#utility.yul\":15231:15257   */\n      swap1\n      pop\n        /* \"#utility.yul\":15267:15332   */\n      tag_591\n        /* \"#utility.yul\":15329:15330   */\n      0x00\n        /* \"#utility.yul\":15318:15327   */\n      dup4\n        /* \"#utility.yul\":15314:15331   */\n      add\n        /* \"#utility.yul\":15305:15311   */\n      dup5\n        /* \"#utility.yul\":15267:15332   */\n      tag_456\n      jump\t// in\n    tag_591:\n        /* \"#utility.yul\":15129:15339   */\n      swap3\n      swap2\n      pop\n      pop\n      jump\t// out\n        /* \"#utility.yul\":15345:15658   */\n    tag_362:\n        /* \"#utility.yul\":15458:15462   */\n      0x00\n        /* \"#utility.yul\":15496:15498   */\n      0x20\n        /* \"#utility.yul\":15485:15494   */\n      dup3\n        /* \"#utility.yul\":15481:15499   */\n      add\n        /* \"#utility.yul\":15473:15499   */\n      swap1\n      pop\n        /* \"#utility.yul\":15545:15554   */\n      dup2\n        /* \"#utility.yul\":15539:15543   */\n      dup2\n        /* \"#utility.yul\":15535:15555   */\n      sub\n        /* \"#utility.yul\":15531:15532   */\n      0x00\n        /* \"#utility.yul\":15520:15529   */\n      dup4\n        /* \"#utility.yul\":15516:15533   */\n      add\n        /* \"#utility.yul\":15509:15556   */\n      mstore\n        /* \"#utility.yul\":15573:15651   */\n      tag_593\n        /* \"#utility.yul\":15646:15650   */\n      dup2\n        /* \"#utility.yul\":15637:15643   */\n      dup5\n        /* \"#utility.yul\":15573:15651   */\n      tag_460\n      jump\t// in\n    tag_593:\n        /* \"#utility.yul\":15565:15651   */\n      swap1\n      pop\n        /* \"#utility.yul\":15345:15658   */\n      swap3\n      swap2\n      pop\n      pop\n      jump\t// out\n        /* \"#utility.yul\":15664:16083   */\n    tag_364:\n        /* \"#utility.yul\":15830:15834   */\n      0x00\n        /* \"#utility.yul\":15868:15870   */\n      0x20\n        /* \"#utility.yul\":15857:15866   */\n      dup3\n        /* \"#utility.yul\":15853:15871   */\n      add\n        /* \"#utility.yul\":15845:15871   */\n      swap1\n      pop\n        /* \"#utility.yul\":15917:15926   */\n      dup2\n        /* \"#utility.yul\":15911:15915   */\n      dup2\n        /* \"#utility.yul\":15907:15927   */\n      sub\n        /* \"#utility.yul\":15903:15904   */\n      0x00\n        /* \"#utility.yul\":15892:15901   */\n      dup4\n        /* \"#utility.yul\":15888:15905   */\n      add\n        /* \"#utility.yul\":15881:15928   */\n      mstore\n        /* \"#utility.yul\":15945:16076   */\n      tag_595\n        /* \"#utility.yul\":16071:16075   */\n      dup2\n        /* \"#utility.yul\":15945:16076   */\n      tag_476\n      jump\t// in\n    tag_595:\n        /* \"#utility.yul\":15937:16076   */\n      swap1\n      pop\n        /* \"#utility.yul\":15664:16083   */\n      swap2\n      swap1\n      pop\n      jump\t// out\n        /* \"#utility.yul\":16089:16508   */\n    tag_368:\n        /* \"#utility.yul\":16255:16259   */\n      0x00\n        /* \"#utility.yul\":16293:16295   */\n      0x20\n        /* \"#utility.yul\":16282:16291   */\n      dup3\n        /* \"#utility.yul\":16278:16296   */\n      add\n        /* \"#utility.yul\":16270:16296   */\n      swap1\n      pop\n        /* \"#utility.yul\":16342:16351   */\n      dup2\n        /* \"#utility.yul\":16336:16340   */\n      dup2\n        /* \"#utility.yul\":16332:16352   */\n      sub\n        /* \"#utility.yul\":16328:16329   */\n      0x00\n        /* \"#utility.yul\":16317:16326   */\n      dup4\n        /* \"#utility.yul\":16313:16330   */\n      add\n        /* \"#utility.yul\":16306:16353   */\n      mstore\n        /* \"#utility.yul\":16370:16501   */\n      tag_597\n        /* \"#utility.yul\":16496:16500   */\n      dup2\n        /* \"#utility.yul\":16370:16501   */\n      tag_481\n      jump\t// in\n    tag_597:\n        /* \"#utility.yul\":16362:16501   */\n      swap1\n      pop\n        /* \"#utility.yul\":16089:16508   */\n      swap2\n      swap1\n      pop\n      jump\t// out\n        /* \"#utility.yul\":16514:16933   */\n    tag_107:\n        /* \"#utility.yul\":16680:16684   */\n      0x00\n        /* \"#utility.yul\":16718:16720   */\n      0x20\n        /* \"#utility.yul\":16707:16716   */\n      dup3\n        /* \"#utility.yul\":16703:16721   */\n      add\n        /* \"#utility.yul\":16695:16721   */\n      swap1\n      pop\n        /* \"#utility.yul\":16767:16776   */\n      dup2\n        /* \"#utility.yul\":16761:16765   */\n      dup2\n        /* \"#utility.yul\":16757:16777   */\n      sub\n        /* \"#utility.yul\":16753:16754   */\n      0x00\n        /* \"#utility.yul\":16742:16751   */\n      dup4\n        /* \"#utility.yul\":16738:16755   */\n      add\n        /* \"#utility.yul\":16731:16778   */\n      mstore\n        /* \"#utility.yul\":16795:16926   */\n      tag_599\n        /* \"#utility.yul\":16921:16925   */\n      dup2\n        /* \"#utility.yul\":16795:16926   */\n      tag_486\n      jump\t// in\n    tag_599:\n        /* \"#utility.yul\":16787:16926   */\n      swap1\n      pop\n        /* \"#utility.yul\":16514:16933   */\n      swap2\n      swap1\n      pop\n      jump\t// out\n        /* \"#utility.yul\":16939:17358   */\n    tag_162:\n        /* \"#utility.yul\":17105:17109   */\n      0x00\n        /* \"#utility.yul\":17143:17145   */\n      0x20\n        /* \"#utility.yul\":17132:17141   */\n      dup3\n        /* \"#utility.yul\":17128:17146   */\n      add\n        /* \"#utility.yul\":17120:17146   */\n      swap1\n      pop\n        /* \"#utility.yul\":17192:17201   */\n      dup2\n        /* \"#utility.yul\":17186:17190   */\n      dup2\n        /* \"#utility.yul\":17182:17202   */\n      sub\n        /* \"#utility.yul\":17178:17179   */\n      0x00\n        /* \"#utility.yul\":17167:17176   */\n      dup4\n        /* \"#utility.yul\":17163:17180   */\n      add\n        /* \"#utility.yul\":17156:17203   */\n      mstore\n        /* \"#utility.yul\":17220:17351   */\n      tag_601\n        /* \"#utility.yul\":17346:17350   */\n      dup2\n        /* \"#utility.yul\":17220:17351   */\n      tag_496\n      jump\t// in\n    tag_601:\n        /* \"#utility.yul\":17212:17351   */\n      swap1\n      pop\n        /* \"#utility.yul\":16939:17358   */\n      swap2\n      swap1\n      pop\n      jump\t// out\n        /* \"#utility.yul\":17364:17783   */\n    tag_167:\n        /* \"#utility.yul\":17530:17534   */\n      0x00\n        /* \"#utility.yul\":17568:17570   */\n      0x20\n        /* \"#utility.yul\":17557:17566   */\n      dup3\n        /* \"#utility.yul\":17553:17571   */\n      add\n        /* \"#utility.yul\":17545:17571   */\n      swap1\n      pop\n        /* \"#utility.yul\":17617:17626   */\n      dup2\n        /* \"#utility.yul\":17611:17615   */\n      dup2\n        /* \"#utility.yul\":17607:17627   */\n      sub\n        /* \"#utility.yul\":17603:17604   */\n      0x00\n        /* \"#utility.yul\":17592:17601   */\n      dup4\n        /* \"#utility.yul\":17588:17605   */\n      add\n        /* \"#utility.yul\":17581:17628   */\n      mstore\n        /* \"#utility.yul\":17645:17776   */\n      tag_603\n        /* \"#utility.yul\":17771:17775   */\n      dup2\n        /* \"#utility.yul\":17645:17776   */\n      tag_506\n      jump\t// in\n    tag_603:\n        /* \"#utility.yul\":17637:17776   */\n      swap1\n      pop\n        /* \"#utility.yul\":17364:17783   */\n      swap2\n      swap1\n      pop\n      jump\t// out\n        /* \"#utility.yul\":17789:18208   */\n    tag_99:\n        /* \"#utility.yul\":17955:17959   */\n      0x00\n        /* \"#utility.yul\":17993:17995   */\n      0x20\n        /* \"#utility.yul\":17982:17991   */\n      dup3\n        /* \"#utility.yul\":17978:17996   */\n      add\n        /* \"#utility.yul\":17970:17996   */\n      swap1\n      pop\n        /* \"#utility.yul\":18042:18051   */\n      dup2\n        /* \"#utility.yul\":18036:18040   */\n      dup2\n        /* \"#utility.yul\":18032:18052   */\n      sub\n        /* \"#utility.yul\":18028:18029   */\n      0x00\n        /* \"#utility.yul\":18017:18026   */\n      dup4\n        /* \"#utility.yul\":18013:18030   */\n      add\n        /* \"#utility.yul\":18006:18053   */\n      mstore\n        /* \"#utility.yul\":18070:18201   */\n      tag_605\n        /* \"#utility.yul\":18196:18200   */\n      dup2\n        /* \"#utility.yul\":18070:18201   */\n      tag_511\n      jump\t// in\n    tag_605:\n        /* \"#utility.yul\":18062:18201   */\n      swap1\n      pop\n        /* \"#utility.yul\":17789:18208   */\n      swap2\n      swap1\n      pop\n      jump\t// out\n        /* \"#utility.yul\":18214:18633   */\n    tag_235:\n        /* \"#utility.yul\":18380:18384   */\n      0x00\n        /* \"#utility.yul\":18418:18420   */\n      0x20\n        /* \"#utility.yul\":18407:18416   */\n      dup3\n        /* \"#utility.yul\":18403:18421   */\n      add\n        /* \"#utility.yul\":18395:18421   */\n      swap1\n      pop\n        /* \"#utility.yul\":18467:18476   */\n      dup2\n        /* \"#utility.yul\":18461:18465   */\n      dup2\n        /* \"#utility.yul\":18457:18477   */\n      sub\n        /* \"#utility.yul\":18453:18454   */\n      0x00\n        /* \"#utility.yul\":18442:18451   */\n      dup4\n        /* \"#utility.yul\":18438:18455   */\n      add\n        /* \"#utility.yul\":18431:18478   */\n      mstore\n        /* \"#utility.yul\":18495:18626   */\n      tag_607\n        /* \"#utility.yul\":18621:18625   */\n      dup2\n        /* \"#utility.yul\":18495:18626   */\n      tag_516\n      jump\t// in\n    tag_607:\n        /* \"#utility.yul\":18487:18626   */\n      swap1\n      pop\n        /* \"#utility.yul\":18214:18633   */\n      swap2\n      swap1\n      pop\n      jump\t// out\n        /* \"#utility.yul\":18639:19058   */\n    tag_156:\n        /* \"#utility.yul\":18805:18809   */\n      0x00\n        /* \"#utility.yul\":18843:18845   */\n      0x20\n        /* \"#utility.yul\":18832:18841   */\n      dup3\n        /* \"#utility.yul\":18828:18846   */\n      add\n        /* \"#utility.yul\":18820:18846   */\n      swap1\n      pop\n        /* \"#utility.yul\":18892:18901   */\n      dup2\n        /* \"#utility.yul\":18886:18890   */\n      dup2\n        /* \"#utility.yul\":18882:18902   */\n      sub\n        /* \"#utility.yul\":18878:18879   */\n      0x00\n        /* \"#utility.yul\":18867:18876   */\n      dup4\n        /* \"#utility.yul\":18863:18880   */\n      add\n        /* \"#utility.yul\":18856:18903   */\n      mstore\n        /* \"#utility.yul\":18920:19051   */\n      tag_609\n        /* \"#utility.yul\":19046:19050   */\n      dup2\n        /* \"#utility.yul\":18920:19051   */\n      tag_521\n      jump\t// in\n    tag_609:\n        /* \"#utility.yul\":18912:19051   */\n      swap1\n      pop\n        /* \"#utility.yul\":18639:19058   */\n      swap2\n      swap1\n      pop\n      jump\t// out\n        /* \"#utility.yul\":19064:19483   */\n    tag_95:\n        /* \"#utility.yul\":19230:19234   */\n      0x00\n        /* \"#utility.yul\":19268:19270   */\n      0x20\n        /* \"#utility.yul\":19257:19266   */\n      dup3\n        /* \"#utility.yul\":19253:19271   */\n      add\n        /* \"#utility.yul\":19245:19271   */\n      swap1\n      pop\n        /* \"#utility.yul\":19317:19326   */\n      dup2\n        /* \"#utility.yul\":19311:19315   */\n      dup2\n        /* \"#utility.yul\":19307:19327   */\n      sub\n        /* \"#utility.yul\":19303:19304   */\n      0x00\n        /* \"#utility.yul\":19292:19301   */\n      dup4\n        /* \"#utility.yul\":19288:19305   */\n      add\n        /* \"#utility.yul\":19281:19328   */\n      mstore\n        /* \"#utility.yul\":19345:19476   */\n      tag_611\n        /* \"#utility.yul\":19471:19475   */\n      dup2\n        /* \"#utility.yul\":19345:19476   */\n      tag_526\n      jump\t// in\n    tag_611:\n        /* \"#utility.yul\":19337:19476   */\n      swap1\n      pop\n        /* \"#utility.yul\":19064:19483   */\n      swap2\n      swap1\n      pop\n      jump\t// out\n        /* \"#utility.yul\":19489:19908   */\n    tag_151:\n        /* \"#utility.yul\":19655:19659   */\n      0x00\n        /* \"#utility.yul\":19693:19695   */\n      0x20\n        /* \"#utility.yul\":19682:19691   */\n      dup3\n        /* \"#utility.yul\":19678:19696   */\n      add\n        /* \"#utility.yul\":19670:19696   */\n      swap1\n      pop\n        /* \"#utility.yul\":19742:19751   */\n      dup2\n        /* \"#utility.yul\":19736:19740   */\n      dup2\n        /* \"#utility.yul\":19732:19752   */\n      sub\n        /* \"#utility.yul\":19728:19729   */\n      0x00\n        /* \"#utility.yul\":19717:19726   */\n      dup4\n        /* \"#utility.yul\":19713:19730   */\n      add\n        /* \"#utility.yul\":19706:19753   */\n      mstore\n        /* \"#utility.yul\":19770:19901   */\n      tag_613\n        /* \"#utility.yul\":19896:19900   */\n      dup2\n        /* \"#utility.yul\":19770:19901   */\n      tag_531\n      jump\t// in\n    tag_613:\n        /* \"#utility.yul\":19762:19901   */\n      swap1\n      pop\n        /* \"#utility.yul\":19489:19908   */\n      swap2\n      swap1\n      pop\n      jump\t// out\n        /* \"#utility.yul\":19914:20333   */\n    tag_113:\n        /* \"#utility.yul\":20080:20084   */\n      0x00\n        /* \"#utility.yul\":20118:20120   */\n      0x20\n        /* \"#utility.yul\":20107:20116   */\n      dup3\n        /* \"#utility.yul\":20103:20121   */\n      add\n        /* \"#utility.yul\":20095:20121   */\n      swap1\n      pop\n        /* \"#utility.yul\":20167:20176   */\n      dup2\n        /* \"#utility.yul\":20161:20165   */\n      dup2\n        /* \"#utility.yul\":20157:20177   */\n      sub\n        /* \"#utility.yul\":20153:20154   */\n      0x00\n        /* \"#utility.yul\":20142:20151   */\n      dup4\n        /* \"#utility.yul\":20138:20155   */\n      add\n        /* \"#utility.yul\":20131:20178   */\n      mstore\n        /* \"#utility.yul\":20195:20326   */\n      tag_615\n        /* \"#utility.yul\":20321:20325   */\n      dup2\n        /* \"#utility.yul\":20195:20326   */\n      tag_536\n      jump\t// in\n    tag_615:\n        /* \"#utility.yul\":20187:20326   */\n      swap1\n      pop\n        /* \"#utility.yul\":19914:20333   */\n      swap2\n      swap1\n      pop\n      jump\t// out\n        /* \"#utility.yul\":20339:20758   */\n    tag_159:\n        /* \"#utility.yul\":20505:20509   */\n      0x00\n        /* \"#utility.yul\":20543:20545   */\n      0x20\n        /* \"#utility.yul\":20532:20541   */\n      dup3\n        /* \"#utility.yul\":20528:20546   */\n      add\n        /* \"#utility.yul\":20520:20546   */\n      swap1\n      pop\n        /* \"#utility.yul\":20592:20601   */\n      dup2\n        /* \"#utility.yul\":20586:20590   */\n      dup2\n        /* \"#utility.yul\":20582:20602   */\n      sub\n        /* \"#utility.yul\":20578:20579   */\n      0x00\n        /* \"#utility.yul\":20567:20576   */\n      dup4\n        /* \"#utility.yul\":20563:20580   */\n      add\n        /* \"#utility.yul\":20556:20603   */\n      mstore\n        /* \"#utility.yul\":20620:20751   */\n      tag_617\n        /* \"#utility.yul\":20746:20750   */\n      dup2\n        /* \"#utility.yul\":20620:20751   */\n      tag_541\n      jump\t// in\n    tag_617:\n        /* \"#utility.yul\":20612:20751   */\n      swap1\n      pop\n        /* \"#utility.yul\":20339:20758   */\n      swap2\n      swap1\n      pop\n      jump\t// out\n        /* \"#utility.yul\":20764:21183   */\n    tag_300:\n        /* \"#utility.yul\":20930:20934   */\n      0x00\n        /* \"#utility.yul\":20968:20970   */\n      0x20\n        /* \"#utility.yul\":20957:20966   */\n      dup3\n        /* \"#utility.yul\":20953:20971   */\n      add\n        /* \"#utility.yul\":20945:20971   */\n      swap1\n      pop\n        /* \"#utility.yul\":21017:21026   */\n      dup2\n        /* \"#utility.yul\":21011:21015   */\n      dup2\n        /* \"#utility.yul\":21007:21027   */\n      sub\n        /* \"#utility.yul\":21003:21004   */\n      0x00\n        /* \"#utility.yul\":20992:21001   */\n      dup4\n        /* \"#utility.yul\":20988:21005   */\n      add\n        /* \"#utility.yul\":20981:21028   */\n      mstore\n        /* \"#utility.yul\":21045:21176   */\n      tag_619\n        /* \"#utility.yul\":21171:21175   */\n      dup2\n        /* \"#utility.yul\":21045:21176   */\n      tag_551\n      jump\t// in\n    tag_619:\n        /* \"#utility.yul\":21037:21176   */\n      swap1\n      pop\n        /* \"#utility.yul\":20764:21183   */\n      swap2\n      swap1\n      pop\n      jump\t// out\n        /* \"#utility.yul\":21189:21411   */\n    tag_24:\n        /* \"#utility.yul\":21282:21286   */\n      0x00\n        /* \"#utility.yul\":21320:21322   */\n      0x20\n        /* \"#utility.yul\":21309:21318   */\n      dup3\n        /* \"#utility.yul\":21305:21323   */\n      add\n        /* \"#utility.yul\":21297:21323   */\n      swap1\n      pop\n        /* \"#utility.yul\":21333:21404   */\n      tag_621\n        /* \"#utility.yul\":21401:21402   */\n      0x00\n        /* \"#utility.yul\":21390:21399   */\n      dup4\n        /* \"#utility.yul\":21386:21403   */\n      add\n        /* \"#utility.yul\":21377:21383   */\n      dup5\n        /* \"#utility.yul\":21333:21404   */\n      tag_559\n      jump\t// in\n    tag_621:\n        /* \"#utility.yul\":21189:21411   */\n      swap3\n      swap2\n      pop\n      pop\n      jump\t// out\n        /* \"#utility.yul\":21417:21840   */\n    tag_43:\n        /* \"#utility.yul\":21558:21562   */\n      0x00\n        /* \"#utility.yul\":21596:21598   */\n      0x40\n        /* \"#utility.yul\":21585:21594   */\n      dup3\n        /* \"#utility.yul\":21581:21599   */\n      add\n        /* \"#utility.yul\":21573:21599   */\n      swap1\n      pop\n        /* \"#utility.yul\":21609:21680   */\n      tag_623\n        /* \"#utility.yul\":21677:21678   */\n      0x00\n        /* \"#utility.yul\":21666:21675   */\n      dup4\n        /* \"#utility.yul\":21662:21679   */\n      add\n        /* \"#utility.yul\":21653:21659   */\n      dup6\n        /* \"#utility.yul\":21609:21680   */\n      tag_559\n      jump\t// in\n    tag_623:\n        /* \"#utility.yul\":21727:21736   */\n      dup2\n        /* \"#utility.yul\":21721:21725   */\n      dup2\n        /* \"#utility.yul\":21717:21737   */\n      sub\n        /* \"#utility.yul\":21712:21714   */\n      0x20\n        /* \"#utility.yul\":21701:21710   */\n      dup4\n        /* \"#utility.yul\":21697:21715   */\n      add\n        /* \"#utility.yul\":21690:21738   */\n      mstore\n        /* \"#utility.yul\":21755:21833   */\n      tag_624\n        /* \"#utility.yul\":21828:21832   */\n      dup2\n        /* \"#utility.yul\":21819:21825   */\n      dup5\n        /* \"#utility.yul\":21755:21833   */\n      tag_460\n      jump\t// in\n    tag_624:\n        /* \"#utility.yul\":21747:21833   */\n      swap1\n      pop\n        /* \"#utility.yul\":21417:21840   */\n      swap4\n      swap3\n      pop\n      pop\n      pop\n      jump\t// out\n        /* \"#utility.yul\":21846:22178   */\n    tag_309:\n        /* \"#utility.yul\":21967:21971   */\n      0x00\n        /* \"#utility.yul\":22005:22007   */\n      0x40\n        /* \"#utility.yul\":21994:22003   */\n      dup3\n        /* \"#utility.yul\":21990:22008   */\n      add\n        /* \"#utility.yul\":21982:22008   */\n      swap1\n      pop\n        /* \"#utility.yul\":22018:22089   */\n      tag_626\n        /* \"#utility.yul\":22086:22087   */\n      0x00\n        /* \"#utility.yul\":22075:22084   */\n      dup4\n        /* \"#utility.yul\":22071:22088   */\n      add\n        /* \"#utility.yul\":22062:22068   */\n      dup6\n        /* \"#utility.yul\":22018:22089   */\n      tag_559\n      jump\t// in\n    tag_626:\n        /* \"#utility.yul\":22099:22171   */\n      tag_627\n        /* \"#utility.yul\":22167:22169   */\n      0x20\n        /* \"#utility.yul\":22156:22165   */\n      dup4\n        /* \"#utility.yul\":22152:22170   */\n      add\n        /* \"#utility.yul\":22143:22149   */\n      dup5\n        /* \"#utility.yul\":22099:22171   */\n      tag_559\n      jump\t// in\n    tag_627:\n        /* \"#utility.yul\":21846:22178   */\n      swap4\n      swap3\n      pop\n      pop\n      pop\n      jump\t// out\n        /* \"#utility.yul\":22184:22626   */\n    tag_58:\n        /* \"#utility.yul\":22333:22337   */\n      0x00\n        /* \"#utility.yul\":22371:22373   */\n      0x60\n        /* \"#utility.yul\":22360:22369   */\n      dup3\n        /* \"#utility.yul\":22356:22374   */\n      add\n        /* \"#utility.yul\":22348:22374   */\n      swap1\n      pop\n        /* \"#utility.yul\":22384:22455   */\n      tag_629\n        /* \"#utility.yul\":22452:22453   */\n      0x00\n        /* \"#utility.yul\":22441:22450   */\n      dup4\n        /* \"#utility.yul\":22437:22454   */\n      add\n        /* \"#utility.yul\":22428:22434   */\n      dup7\n        /* \"#utility.yul\":22384:22455   */\n      tag_559\n      jump\t// in\n    tag_629:\n        /* \"#utility.yul\":22465:22537   */\n      tag_630\n        /* \"#utility.yul\":22533:22535   */\n      0x20\n        /* \"#utility.yul\":22522:22531   */\n      dup4\n        /* \"#utility.yul\":22518:22536   */\n      add\n        /* \"#utility.yul\":22509:22515   */\n      dup6\n        /* \"#utility.yul\":22465:22537   */\n      tag_559\n      jump\t// in\n    tag_630:\n        /* \"#utility.yul\":22547:22619   */\n      tag_631\n        /* \"#utility.yul\":22615:22617   */\n      0x40\n        /* \"#utility.yul\":22604:22613   */\n      dup4\n        /* \"#utility.yul\":22600:22618   */\n      add\n        /* \"#utility.yul\":22591:22597   */\n      dup5\n        /* \"#utility.yul\":22547:22619   */\n      tag_559\n      jump\t// in\n    tag_631:\n        /* \"#utility.yul\":22184:22626   */\n      swap5\n      swap4\n      pop\n      pop\n      pop\n      pop\n      jump\t// out\n        /* \"#utility.yul\":22632:22707   */\n    tag_632:\n        /* \"#utility.yul\":22665:22671   */\n      0x00\n        /* \"#utility.yul\":22698:22700   */\n      0x40\n        /* \"#utility.yul\":22692:22701   */\n      mload\n        /* \"#utility.yul\":22682:22701   */\n      swap1\n      pop\n        /* \"#utility.yul\":22632:22707   */\n      swap1\n      jump\t// out\n        /* \"#utility.yul\":22713:22845   */\n    tag_449:\n        /* \"#utility.yul\":22780:22784   */\n      0x00\n        /* \"#utility.yul\":22803:22806   */\n      dup2\n        /* \"#utility.yul\":22795:22806   */\n      swap1\n      pop\n        /* \"#utility.yul\":22833:22837   */\n      0x20\n        /* \"#utility.yul\":22828:22831   */\n      dup3\n        /* \"#utility.yul\":22824:22838   */\n      add\n        /* \"#utility.yul\":22816:22838   */\n      swap1\n      pop\n        /* \"#utility.yul\":22713:22845   */\n      swap2\n      swap1\n      pop\n      jump\t// out\n        /* \"#utility.yul\":22851:22965   */\n    tag_445:\n        /* \"#utility.yul\":22918:22924   */\n      0x00\n        /* \"#utility.yul\":22952:22957   */\n      dup2\n        /* \"#utility.yul\":22946:22958   */\n      mload\n        /* \"#utility.yul\":22936:22958   */\n      swap1\n      pop\n        /* \"#utility.yul\":22851:22965   */\n      swap2\n      swap1\n      pop\n      jump\t// out\n        /* \"#utility.yul\":22971:23070   */\n    tag_463:\n        /* \"#utility.yul\":23023:23029   */\n      0x00\n        /* \"#utility.yul\":23057:23062   */\n      dup2\n        /* \"#utility.yul\":23051:23063   */\n      mload\n        /* \"#utility.yul\":23041:23063   */\n      swap1\n      pop\n        /* \"#utility.yul\":22971:23070   */\n      swap2\n      swap1\n      pop\n      jump\t// out\n        /* \"#utility.yul\":23076:23189   */\n    tag_455:\n        /* \"#utility.yul\":23146:23150   */\n      0x00\n        /* \"#utility.yul\":23178:23182   */\n      0x20\n        /* \"#utility.yul\":23173:23176   */\n      dup3\n        /* \"#utility.yul\":23169:23183   */\n      add\n        /* \"#utility.yul\":23161:23183   */\n      swap1\n      pop\n        /* \"#utility.yul\":23076:23189   */\n      swap2\n      swap1\n      pop\n      jump\t// out\n        /* \"#utility.yul\":23195:23379   */\n    tag_447:\n        /* \"#utility.yul\":23294:23305   */\n      0x00\n        /* \"#utility.yul\":23328:23334   */\n      dup3\n        /* \"#utility.yul\":23323:23326   */\n      dup3\n        /* \"#utility.yul\":23316:23335   */\n      mstore\n        /* \"#utility.yul\":23368:23372   */\n      0x20\n        /* \"#utility.yul\":23363:23366   */\n      dup3\n        /* \"#utility.yul\":23359:23373   */\n      add\n        /* \"#utility.yul\":23344:23373   */\n      swap1\n      pop\n        /* \"#utility.yul\":23195:23379   */\n      swap3\n      swap2\n      pop\n      pop\n      jump\t// out\n        /* \"#utility.yul\":23385:23554   */\n    tag_465:\n        /* \"#utility.yul\":23469:23480   */\n      0x00\n        /* \"#utility.yul\":23503:23509   */\n      dup3\n        /* \"#utility.yul\":23498:23501   */\n      dup3\n        /* \"#utility.yul\":23491:23510   */\n      mstore\n        /* \"#utility.yul\":23543:23547   */\n      0x20\n        /* \"#utility.yul\":23538:23541   */\n      dup3\n        /* \"#utility.yul\":23534:23548   */\n      add\n        /* \"#utility.yul\":23519:23548   */\n      swap1\n      pop\n        /* \"#utility.yul\":23385:23554   */\n      swap3\n      swap2\n      pop\n      pop\n      jump\t// out\n        /* \"#utility.yul\":23560:23708   */\n    tag_474:\n        /* \"#utility.yul\":23662:23673   */\n      0x00\n        /* \"#utility.yul\":23699:23702   */\n      dup2\n        /* \"#utility.yul\":23684:23702   */\n      swap1\n      pop\n        /* \"#utility.yul\":23560:23708   */\n      swap3\n      swap2\n      pop\n      pop\n      jump\t// out\n        /* \"#utility.yul\":23714:24019   */\n    tag_247:\n        /* \"#utility.yul\":23754:23757   */\n      0x00\n        /* \"#utility.yul\":23773:23793   */\n      tag_642\n        /* \"#utility.yul\":23791:23792   */\n      dup3\n        /* \"#utility.yul\":23773:23793   */\n      tag_558\n      jump\t// in\n    tag_642:\n        /* \"#utility.yul\":23768:23793   */\n      swap2\n      pop\n        /* \"#utility.yul\":23807:23827   */\n      tag_643\n        /* \"#utility.yul\":23825:23826   */\n      dup4\n        /* \"#utility.yul\":23807:23827   */\n      tag_558\n      jump\t// in\n    tag_643:\n        /* \"#utility.yul\":23802:23827   */\n      swap3\n      pop\n        /* \"#utility.yul\":23961:23962   */\n      dup3\n        /* \"#utility.yul\":23893:23959   */\n      0xffffffffffffffffffffffffffffffffffffffffffffffffffffffffffffffff\n        /* \"#utility.yul\":23889:23963   */\n      sub\n        /* \"#utility.yul\":23886:23887   */\n      dup3\n        /* \"#utility.yul\":23883:23964   */\n      gt\n        /* \"#utility.yul\":23880:23987   */\n      iszero\n      tag_644\n      jumpi\n        /* \"#utility.yul\":23967:23985   */\n      tag_645\n      tag_646\n      jump\t// in\n    tag_645:\n        /* \"#utility.yul\":23880:23987   */\n    tag_644:\n        /* \"#utility.yul\":24011:24012   */\n      dup3\n        /* \"#utility.yul\":24008:24009   */\n      dup3\n        /* \"#utility.yul\":24004:24013   */\n      add\n        /* \"#utility.yul\":23997:24013   */\n      swap1\n      pop\n        /* \"#utility.yul\":23714:24019   */\n      swap3\n      swap2\n      pop\n      pop\n      jump\t// out\n        /* \"#utility.yul\":24025:24210   */\n    tag_320:\n        /* \"#utility.yul\":24065:24066   */\n      0x00\n        /* \"#utility.yul\":24082:24102   */\n      tag_648\n        /* \"#utility.yul\":24100:24101   */\n      dup3\n        /* \"#utility.yul\":24082:24102   */\n      tag_558\n      jump\t// in\n    tag_648:\n        /* \"#utility.yul\":24077:24102   */\n      swap2\n      pop\n        /* \"#utility.yul\":24116:24136   */\n      tag_649\n        /* \"#utility.yul\":24134:24135   */\n      dup4\n        /* \"#utility.yul\":24116:24136   */\n      tag_558\n      jump\t// in\n    tag_649:\n        /* \"#utility.yul\":24111:24136   */\n      swap3\n      pop\n        /* \"#utility.yul\":24155:24156   */\n      dup3\n        /* \"#utility.yul\":24145:24180   */\n      tag_650\n      jumpi\n        /* \"#utility.yul\":24160:24178   */\n      tag_651\n      tag_652\n      jump\t// in\n    tag_651:\n        /* \"#utility.yul\":24145:24180   */\n    tag_650:\n        /* \"#utility.yul\":24202:24203   */\n      dup3\n        /* \"#utility.yul\":24199:24200   */\n      dup3\n        /* \"#utility.yul\":24195:24204   */\n      div\n        /* \"#utility.yul\":24190:24204   */\n      swap1\n      pop\n        /* \"#utility.yul\":24025:24210   */\n      swap3\n      swap2\n      pop\n      pop\n      jump\t// out\n        /* \"#utility.yul\":24216:24564   */\n    tag_164:\n        /* \"#utility.yul\":24256:24263   */\n      0x00\n        /* \"#utility.yul\":24279:24299   */\n      tag_654\n        /* \"#utility.yul\":24297:24298   */\n      dup3\n        /* \"#utility.yul\":24279:24299   */\n      tag_558\n      jump\t// in\n    tag_654:\n        /* \"#utility.yul\":24274:24299   */\n      swap2\n      pop\n        /* \"#utility.yul\":24313:24333   */\n      tag_655\n        /* \"#utility.yul\":24331:24332   */\n      dup4\n        /* \"#utility.yul\":24313:24333   */\n      tag_558\n      jump\t// in\n    tag_655:\n        /* \"#utility.yul\":24308:24333   */\n      swap3\n      pop\n        /* \"#utility.yul\":24501:24502   */\n      dup2\n        /* \"#utility.yul\":24433:24499   */\n      0xffffffffffffffffffffffffffffffffffffffffffffffffffffffffffffffff\n        /* \"#utility.yul\":24429:24503   */\n      div\n        /* \"#utility.yul\":24426:24427   */\n      dup4\n        /* \"#utility.yul\":24423:24504   */\n      gt\n        /* \"#utility.yul\":24418:24419   */\n      dup3\n        /* \"#utility.yul\":24411:24420   */\n      iszero\n        /* \"#utility.yul\":24404:24421   */\n      iszero\n        /* \"#utility.yul\":24400:24505   */\n      and\n        /* \"#utility.yul\":24397:24528   */\n      iszero\n      tag_656\n      jumpi\n        /* \"#utility.yul\":24508:24526   */\n      tag_657\n      tag_646\n      jump\t// in\n    tag_657:\n        /* \"#utility.yul\":24397:24528   */\n    tag_656:\n        /* \"#utility.yul\":24556:24557   */\n      dup3\n        /* \"#utility.yul\":24553:24554   */\n      dup3\n        /* \"#utility.yul\":24549:24558   */\n      mul\n        /* \"#utility.yul\":24538:24558   */\n      swap1\n      pop\n        /* \"#utility.yul\":24216:24564   */\n      swap3\n      swap2\n      pop\n      pop\n      jump\t// out\n        /* \"#utility.yul\":24570:24761   */\n    tag_328:\n        /* \"#utility.yul\":24610:24614   */\n      0x00\n        /* \"#utility.yul\":24630:24650   */\n      tag_659\n        /* \"#utility.yul\":24648:24649   */\n      dup3\n        /* \"#utility.yul\":24630:24650   */\n      tag_558\n      jump\t// in\n    tag_659:\n        /* \"#utility.yul\":24625:24650   */\n      swap2\n      pop\n        /* \"#utility.yul\":24664:24684   */\n      tag_660\n        /* \"#utility.yul\":24682:24683   */\n      dup4\n        /* \"#utility.yul\":24664:24684   */\n      tag_558\n      jump\t// in\n    tag_660:\n        /* \"#utility.yul\":24659:24684   */\n      swap3\n      pop\n        /* \"#utility.yul\":24703:24704   */\n      dup3\n        /* \"#utility.yul\":24700:24701   */\n      dup3\n        /* \"#utility.yul\":24697:24705   */\n      lt\n        /* \"#utility.yul\":24694:24728   */\n      iszero\n      tag_661\n      jumpi\n        /* \"#utility.yul\":24708:24726   */\n      tag_662\n      tag_646\n      jump\t// in\n    tag_662:\n        /* \"#utility.yul\":24694:24728   */\n    tag_661:\n        /* \"#utility.yul\":24753:24754   */\n      dup3\n        /* \"#utility.yul\":24750:24751   */\n      dup3\n        /* \"#utility.yul\":24746:24755   */\n      sub\n        /* \"#utility.yul\":24738:24755   */\n      swap1\n      pop\n        /* \"#utility.yul\":24570:24761   */\n      swap3\n      swap2\n      pop\n      pop\n      jump\t// out\n        /* \"#utility.yul\":24767:24863   */\n    tag_436:\n        /* \"#utility.yul\":24804:24811   */\n      0x00\n        /* \"#utility.yul\":24833:24857   */\n      tag_664\n        /* \"#utility.yul\":24851:24856   */\n      dup3\n        /* \"#utility.yul\":24833:24857   */\n      tag_665\n      jump\t// in\n    tag_664:\n        /* \"#utility.yul\":24822:24857   */\n      swap1\n      pop\n        /* \"#utility.yul\":24767:24863   */\n      swap2\n      swap1\n      pop\n      jump\t// out\n        /* \"#utility.yul\":24869:24973   */\n    tag_427:\n        /* \"#utility.yul\":24914:24921   */\n      0x00\n        /* \"#utility.yul\":24943:24967   */\n      tag_667\n        /* \"#utility.yul\":24961:24966   */\n      dup3\n        /* \"#utility.yul\":24943:24967   */\n      tag_665\n      jump\t// in\n    tag_667:\n        /* \"#utility.yul\":24932:24967   */\n      swap1\n      pop\n        /* \"#utility.yul\":24869:24973   */\n      swap2\n      swap1\n      pop\n      jump\t// out\n        /* \"#utility.yul\":24979:25069   */\n    tag_459:\n        /* \"#utility.yul\":25013:25020   */\n      0x00\n        /* \"#utility.yul\":25056:25061   */\n      dup2\n        /* \"#utility.yul\":25049:25062   */\n      iszero\n        /* \"#utility.yul\":25042:25063   */\n      iszero\n        /* \"#utility.yul\":25031:25063   */\n      swap1\n      pop\n        /* \"#utility.yul\":24979:25069   */\n      swap2\n      swap1\n      pop\n      jump\t// out\n        /* \"#utility.yul\":25075:25224   */\n    tag_669:\n        /* \"#utility.yul\":25111:25118   */\n      0x00\n        /* \"#utility.yul\":25151:25217   */\n      0xffffffff00000000000000000000000000000000000000000000000000000000\n        /* \"#utility.yul\":25144:25149   */\n      dup3\n        /* \"#utility.yul\":25140:25218   */\n      and\n        /* \"#utility.yul\":25129:25218   */\n      swap1\n      pop\n        /* \"#utility.yul\":25075:25224   */\n      swap2\n      swap1\n      pop\n      jump\t// out\n        /* \"#utility.yul\":25230:25356   */\n    tag_665:\n        /* \"#utility.yul\":25267:25274   */\n      0x00\n        /* \"#utility.yul\":25307:25349   */\n      0xffffffffffffffffffffffffffffffffffffffff\n        /* \"#utility.yul\":25300:25305   */\n      dup3\n        /* \"#utility.yul\":25296:25350   */\n      and\n        /* \"#utility.yul\":25285:25350   */\n      swap1\n      pop\n        /* \"#utility.yul\":25230:25356   */\n      swap2\n      swap1\n      pop\n      jump\t// out\n        /* \"#utility.yul\":25362:25439   */\n    tag_558:\n        /* \"#utility.yul\":25399:25406   */\n      0x00\n        /* \"#utility.yul\":25428:25433   */\n      dup2\n        /* \"#utility.yul\":25417:25433   */\n      swap1\n      pop\n        /* \"#utility.yul\":25362:25439   */\n      swap2\n      swap1\n      pop\n      jump\t// out\n        /* \"#utility.yul\":25445:25752   */\n    tag_467:\n        /* \"#utility.yul\":25513:25514   */\n      0x00\n        /* \"#utility.yul\":25523:25636   */\n    tag_674:\n        /* \"#utility.yul\":25537:25543   */\n      dup4\n        /* \"#utility.yul\":25534:25535   */\n      dup2\n        /* \"#utility.yul\":25531:25544   */\n      lt\n        /* \"#utility.yul\":25523:25636   */\n      iszero\n      tag_676\n      jumpi\n        /* \"#utility.yul\":25622:25623   */\n      dup1\n        /* \"#utility.yul\":25617:25620   */\n      dup3\n        /* \"#utility.yul\":25613:25624   */\n      add\n        /* \"#utility.yul\":25607:25625   */\n      mload\n        /* \"#utility.yul\":25603:25604   */\n      dup2\n        /* \"#utility.yul\":25598:25601   */\n      dup5\n        /* \"#utility.yul\":25594:25605   */\n      add\n        /* \"#utility.yul\":25587:25626   */\n      mstore\n        /* \"#utility.yul\":25559:25561   */\n      0x20\n        /* \"#utility.yul\":25556:25557   */\n      dup2\n        /* \"#utility.yul\":25552:25562   */\n      add\n        /* \"#utility.yul\":25547:25562   */\n      swap1\n      pop\n        /* \"#utility.yul\":25523:25636   */\n      jump(tag_674)\n    tag_676:\n        /* \"#utility.yul\":25654:25660   */\n      dup4\n        /* \"#utility.yul\":25651:25652   */\n      dup2\n        /* \"#utility.yul\":25648:25661   */\n      gt\n        /* \"#utility.yul\":25645:25746   */\n      iszero\n      tag_677\n      jumpi\n        /* \"#utility.yul\":25734:25735   */\n      0x00\n        /* \"#utility.yul\":25725:25731   */\n      dup5\n        /* \"#utility.yul\":25720:25723   */\n      dup5\n        /* \"#utility.yul\":25716:25732   */\n      add\n        /* \"#utility.yul\":25709:25736   */\n      mstore\n        /* \"#utility.yul\":25645:25746   */\n    tag_677:\n        /* \"#utility.yul\":25494:25752   */\n      pop\n        /* \"#utility.yul\":25445:25752   */\n      pop\n      pop\n      pop\n      jump\t// out\n        /* \"#utility.yul\":25758:26078   */\n    tag_131:\n        /* \"#utility.yul\":25802:25808   */\n      0x00\n        /* \"#utility.yul\":25839:25840   */\n      0x02\n        /* \"#utility.yul\":25833:25837   */\n      dup3\n        /* \"#utility.yul\":25829:25841   */\n      div\n        /* \"#utility.yul\":25819:25841   */\n      swap1\n      pop\n        /* \"#utility.yul\":25886:25887   */\n      0x01\n        /* \"#utility.yul\":25880:25884   */\n      dup3\n        /* \"#utility.yul\":25876:25888   */\n      and\n        /* \"#utility.yul\":25907:25925   */\n      dup1\n        /* \"#utility.yul\":25897:25978   */\n      tag_679\n      jumpi\n        /* \"#utility.yul\":25963:25967   */\n      0x7f\n        /* \"#utility.yul\":25955:25961   */\n      dup3\n        /* \"#utility.yul\":25951:25968   */\n      and\n        /* \"#utility.yul\":25941:25968   */\n      swap2\n      pop\n        /* \"#utility.yul\":25897:25978   */\n    tag_679:\n        /* \"#utility.yul\":26025:26027   */\n      0x20\n        /* \"#utility.yul\":26017:26023   */\n      dup3\n        /* \"#utility.yul\":26014:26028   */\n      lt\n        /* \"#utility.yul\":25994:26012   */\n      dup2\n        /* \"#utility.yul\":25991:26029   */\n      eq\n        /* \"#utility.yul\":25988:26072   */\n      iszero\n      tag_680\n      jumpi\n        /* \"#utility.yul\":26044:26062   */\n      tag_681\n      tag_682\n      jump\t// in\n    tag_681:\n        /* \"#utility.yul\":25988:26072   */\n    tag_680:\n        /* \"#utility.yul\":25809:26078   */\n      pop\n        /* \"#utility.yul\":25758:26078   */\n      swap2\n      swap1\n      pop\n      jump\t// out\n        /* \"#utility.yul\":26084:26365   */\n    tag_683:\n        /* \"#utility.yul\":26167:26194   */\n      tag_685\n        /* \"#utility.yul\":26189:26193   */\n      dup3\n        /* \"#utility.yul\":26167:26194   */\n      tag_469\n      jump\t// in\n    tag_685:\n        /* \"#utility.yul\":26159:26165   */\n      dup2\n        /* \"#utility.yul\":26155:26195   */\n      add\n        /* \"#utility.yul\":26297:26303   */\n      dup2\n        /* \"#utility.yul\":26285:26295   */\n      dup2\n        /* \"#utility.yul\":26282:26304   */\n      lt\n        /* \"#utility.yul\":26261:26279   */\n      0xffffffffffffffff\n        /* \"#utility.yul\":26249:26259   */\n      dup3\n        /* \"#utility.yul\":26246:26280   */\n      gt\n        /* \"#utility.yul\":26243:26305   */\n      or\n        /* \"#utility.yul\":26240:26328   */\n      iszero\n      tag_686\n      jumpi\n        /* \"#utility.yul\":26308:26326   */\n      tag_687\n      tag_323\n      jump\t// in\n    tag_687:\n        /* \"#utility.yul\":26240:26328   */\n    tag_686:\n        /* \"#utility.yul\":26348:26358   */\n      dup1\n        /* \"#utility.yul\":26344:26346   */\n      0x40\n        /* \"#utility.yul\":26337:26359   */\n      mstore\n        /* \"#utility.yul\":26127:26365   */\n      pop\n        /* \"#utility.yul\":26084:26365   */\n      pop\n      pop\n      jump\t// out\n        /* \"#utility.yul\":26371:26604   */\n    tag_138:\n        /* \"#utility.yul\":26410:26413   */\n      0x00\n        /* \"#utility.yul\":26433:26457   */\n      tag_689\n        /* \"#utility.yul\":26451:26456   */\n      dup3\n        /* \"#utility.yul\":26433:26457   */\n      tag_558\n      jump\t// in\n    tag_689:\n        /* \"#utility.yul\":26424:26457   */\n      swap2\n      pop\n        /* \"#utility.yul\":26479:26545   */\n      0xffffffffffffffffffffffffffffffffffffffffffffffffffffffffffffffff\n        /* \"#utility.yul\":26472:26477   */\n      dup3\n        /* \"#utility.yul\":26469:26546   */\n      eq\n        /* \"#utility.yul\":26466:26569   */\n      iszero\n      tag_690\n      jumpi\n        /* \"#utility.yul\":26549:26567   */\n      tag_691\n      tag_646\n      jump\t// in\n    tag_691:\n        /* \"#utility.yul\":26466:26569   */\n    tag_690:\n        /* \"#utility.yul\":26596:26597   */\n      0x01\n        /* \"#utility.yul\":26589:26594   */\n      dup3\n        /* \"#utility.yul\":26585:26598   */\n      add\n        /* \"#utility.yul\":26578:26598   */\n      swap1\n      pop\n        /* \"#utility.yul\":26371:26604   */\n      swap2\n      swap1\n      pop\n      jump\t// out\n        /* \"#utility.yul\":26610:26710   */\n    tag_441:\n        /* \"#utility.yul\":26649:26656   */\n      0x00\n        /* \"#utility.yul\":26678:26704   */\n      tag_693\n        /* \"#utility.yul\":26698:26703   */\n      dup3\n        /* \"#utility.yul\":26678:26704   */\n      tag_694\n      jump\t// in\n    tag_693:\n        /* \"#utility.yul\":26667:26704   */\n      swap1\n      pop\n        /* \"#utility.yul\":26610:26710   */\n      swap2\n      swap1\n      pop\n      jump\t// out\n        /* \"#utility.yul\":26716:26824   */\n    tag_432:\n        /* \"#utility.yul\":26763:26770   */\n      0x00\n        /* \"#utility.yul\":26792:26818   */\n      tag_696\n        /* \"#utility.yul\":26812:26817   */\n      dup3\n        /* \"#utility.yul\":26792:26818   */\n      tag_694\n      jump\t// in\n    tag_696:\n        /* \"#utility.yul\":26781:26818   */\n      swap1\n      pop\n        /* \"#utility.yul\":26716:26824   */\n      swap2\n      swap1\n      pop\n      jump\t// out\n        /* \"#utility.yul\":26830:26924   */\n    tag_694:\n        /* \"#utility.yul\":26869:26876   */\n      0x00\n        /* \"#utility.yul\":26898:26918   */\n      tag_698\n        /* \"#utility.yul\":26912:26917   */\n      dup3\n        /* \"#utility.yul\":26898:26918   */\n      tag_699\n      jump\t// in\n    tag_698:\n        /* \"#utility.yul\":26887:26918   */\n      swap1\n      pop\n        /* \"#utility.yul\":26830:26924   */\n      swap2\n      swap1\n      pop\n      jump\t// out\n        /* \"#utility.yul\":26930:27009   */\n    tag_566:\n        /* \"#utility.yul\":26969:26976   */\n      0x00\n        /* \"#utility.yul\":26998:27003   */\n      dup2\n        /* \"#utility.yul\":26987:27003   */\n      swap1\n      pop\n        /* \"#utility.yul\":26930:27009   */\n      swap2\n      swap1\n      pop\n      jump\t// out\n        /* \"#utility.yul\":27015:27191   */\n    tag_258:\n        /* \"#utility.yul\":27047:27048   */\n      0x00\n        /* \"#utility.yul\":27064:27084   */\n      tag_702\n        /* \"#utility.yul\":27082:27083   */\n      dup3\n        /* \"#utility.yul\":27064:27084   */\n      tag_558\n      jump\t// in\n    tag_702:\n        /* \"#utility.yul\":27059:27084   */\n      swap2\n      pop\n        /* \"#utility.yul\":27098:27118   */\n      tag_703\n        /* \"#utility.yul\":27116:27117   */\n      dup4\n        /* \"#utility.yul\":27098:27118   */\n      tag_558\n      jump\t// in\n    tag_703:\n        /* \"#utility.yul\":27093:27118   */\n      swap3\n      pop\n        /* \"#utility.yul\":27137:27138   */\n      dup3\n        /* \"#utility.yul\":27127:27162   */\n      tag_704\n      jumpi\n        /* \"#utility.yul\":27142:27160   */\n      tag_705\n      tag_652\n      jump\t// in\n    tag_705:\n        /* \"#utility.yul\":27127:27162   */\n    tag_704:\n        /* \"#utility.yul\":27183:27184   */\n      dup3\n        /* \"#utility.yul\":27180:27181   */\n      dup3\n        /* \"#utility.yul\":27176:27185   */\n      mod\n        /* \"#utility.yul\":27171:27185   */\n      swap1\n      pop\n        /* \"#utility.yul\":27015:27191   */\n      swap3\n      swap2\n      pop\n      pop\n      jump\t// out\n        /* \"#utility.yul\":27197:27377   */\n    tag_646:\n        /* \"#utility.yul\":27245:27322   */\n      0x4e487b7100000000000000000000000000000000000000000000000000000000\n        /* \"#utility.yul\":27242:27243   */\n      0x00\n        /* \"#utility.yul\":27235:27323   */\n      mstore\n        /* \"#utility.yul\":27342:27346   */\n      0x11\n        /* \"#utility.yul\":27339:27340   */\n      0x04\n        /* \"#utility.yul\":27332:27347   */\n      mstore\n        /* \"#utility.yul\":27366:27370   */\n      0x24\n        /* \"#utility.yul\":27363:27364   */\n      0x00\n        /* \"#utility.yul\":27356:27371   */\n      revert\n        /* \"#utility.yul\":27383:27563   */\n    tag_652:\n        /* \"#utility.yul\":27431:27508   */\n      0x4e487b7100000000000000000000000000000000000000000000000000000000\n        /* \"#utility.yul\":27428:27429   */\n      0x00\n        /* \"#utility.yul\":27421:27509   */\n      mstore\n        /* \"#utility.yul\":27528:27532   */\n      0x12\n        /* \"#utility.yul\":27525:27526   */\n      0x04\n        /* \"#utility.yul\":27518:27533   */\n      mstore\n        /* \"#utility.yul\":27552:27556   */\n      0x24\n        /* \"#utility.yul\":27549:27550   */\n      0x00\n        /* \"#utility.yul\":27542:27557   */\n      revert\n        /* \"#utility.yul\":27569:27749   */\n    tag_682:\n        /* \"#utility.yul\":27617:27694   */\n      0x4e487b7100000000000000000000000000000000000000000000000000000000\n        /* \"#utility.yul\":27614:27615   */\n      0x00\n        /* \"#utility.yul\":27607:27695   */\n      mstore\n        /* \"#utility.yul\":27714:27718   */\n      0x22\n        /* \"#utility.yul\":27711:27712   */\n      0x04\n        /* \"#utility.yul\":27704:27719   */\n      mstore\n        /* \"#utility.yul\":27738:27742   */\n      0x24\n        /* \"#utility.yul\":27735:27736   */\n      0x00\n        /* \"#utility.yul\":27728:27743   */\n      revert\n        /* \"#utility.yul\":27755:27935   */\n    tag_333:\n        /* \"#utility.yul\":27803:27880   */\n      0x4e487b7100000000000000000000000000000000000000000000000000000000\n        /* \"#utility.yul\":27800:27801   */\n      0x00\n        /* \"#utility.yul\":27793:27881   */\n      mstore\n        /* \"#utility.yul\":27900:27904   */\n      0x32\n        /* \"#utility.yul\":27897:27898   */\n      0x04\n        /* \"#utility.yul\":27890:27905   */\n      mstore\n        /* \"#utility.yul\":27924:27928   */\n      0x24\n        /* \"#utility.yul\":27921:27922   */\n      0x00\n        /* \"#utility.yul\":27914:27929   */\n      revert\n        /* \"#utility.yul\":27941:28121   */\n    tag_323:\n        /* \"#utility.yul\":27989:28066   */\n      0x4e487b7100000000000000000000000000000000000000000000000000000000\n        /* \"#utility.yul\":27986:27987   */\n      0x00\n        /* \"#utility.yul\":27979:28067   */\n      mstore\n        /* \"#utility.yul\":28086:28090   */\n      0x41\n        /* \"#utility.yul\":28083:28084   */\n      0x04\n        /* \"#utility.yul\":28076:28091   */\n      mstore\n        /* \"#utility.yul\":28110:28114   */\n      0x24\n        /* \"#utility.yul\":28107:28108   */\n      0x00\n        /* \"#utility.yul\":28100:28115   */\n      revert\n        /* \"#utility.yul\":28127:28310   */\n    tag_357:\n        /* \"#utility.yul\":28162:28165   */\n      0x00\n        /* \"#utility.yul\":28200:28201   */\n      0x03\n        /* \"#utility.yul\":28182:28198   */\n      returndatasize\n        /* \"#utility.yul\":28179:28202   */\n      gt\n        /* \"#utility.yul\":28176:28304   */\n      iszero\n      tag_712\n      jumpi\n        /* \"#utility.yul\":28238:28239   */\n      0x04\n        /* \"#utility.yul\":28235:28236   */\n      0x00\n        /* \"#utility.yul\":28232:28233   */\n      dup1\n        /* \"#utility.yul\":28217:28240   */\n      returndatacopy\n        /* \"#utility.yul\":28260:28294   */\n      tag_713\n        /* \"#utility.yul\":28291:28292   */\n      0x00\n        /* \"#utility.yul\":28285:28293   */\n      mload\n        /* \"#utility.yul\":28260:28294   */\n      tag_714\n      jump\t// in\n    tag_713:\n        /* \"#utility.yul\":28253:28294   */\n      swap1\n      pop\n        /* \"#utility.yul\":28176:28304   */\n    tag_712:\n        /* \"#utility.yul\":28127:28310   */\n      swap1\n      jump\t// out\n        /* \"#utility.yul\":28439:28556   */\n    tag_400:\n        /* \"#utility.yul\":28548:28549   */\n      0x00\n        /* \"#utility.yul\":28545:28546   */\n      dup1\n        /* \"#utility.yul\":28538:28550   */\n      revert\n        /* \"#utility.yul\":28562:28664   */\n    tag_469:\n        /* \"#utility.yul\":28603:28609   */\n      0x00\n        /* \"#utility.yul\":28654:28656   */\n      0x1f\n        /* \"#utility.yul\":28650:28657   */\n      not\n        /* \"#utility.yul\":28645:28647   */\n      0x1f\n        /* \"#utility.yul\":28638:28643   */\n      dup4\n        /* \"#utility.yul\":28634:28648   */\n      add\n        /* \"#utility.yul\":28630:28658   */\n      and\n        /* \"#utility.yul\":28620:28658   */\n      swap1\n      pop\n        /* \"#utility.yul\":28562:28664   */\n      swap2\n      swap1\n      pop\n      jump\t// out\n        /* \"#utility.yul\":28670:28764   */\n    tag_699:\n        /* \"#utility.yul\":28703:28711   */\n      0x00\n        /* \"#utility.yul\":28751:28756   */\n      dup2\n        /* \"#utility.yul\":28747:28749   */\n      0x60\n        /* \"#utility.yul\":28743:28757   */\n      shl\n        /* \"#utility.yul\":28722:28757   */\n      swap1\n      pop\n        /* \"#utility.yul\":28670:28764   */\n      swap2\n      swap1\n      pop\n      jump\t// out\n        /* \"#utility.yul\":28770:28876   */\n    tag_714:\n        /* \"#utility.yul\":28814:28822   */\n      0x00\n        /* \"#utility.yul\":28863:28868   */\n      dup2\n        /* \"#utility.yul\":28858:28861   */\n      0xe0\n        /* \"#utility.yul\":28854:28869   */\n      shr\n        /* \"#utility.yul\":28833:28869   */\n      swap1\n      pop\n        /* \"#utility.yul\":28770:28876   */\n      swap2\n      swap1\n      pop\n      jump\t// out\n        /* \"#utility.yul\":28882:29121   */\n    tag_480:\n        /* \"#utility.yul\":29022:29056   */\n      0x455243313135353a207472616e7366657220746f206e6f6e2045524331313535\n        /* \"#utility.yul\":29018:29019   */\n      0x00\n        /* \"#utility.yul\":29010:29016   */\n      dup3\n        /* \"#utility.yul\":29006:29020   */\n      add\n        /* \"#utility.yul\":28999:29057   */\n      mstore\n        /* \"#utility.yul\":29091:29113   */\n      0x526563656976657220696d706c656d656e746572000000000000000000000000\n        /* \"#utility.yul\":29086:29088   */\n      0x20\n        /* \"#utility.yul\":29078:29084   */\n      dup3\n        /* \"#utility.yul\":29074:29089   */\n      add\n        /* \"#utility.yul\":29067:29114   */\n      mstore\n        /* \"#utility.yul\":28882:29121   */\n      pop\n      jump\t// out\n        /* \"#utility.yul\":29127:29354   */\n    tag_485:\n        /* \"#utility.yul\":29267:29301   */\n      0x455243313135353a204552433131353552656365697665722072656a65637465\n        /* \"#utility.yul\":29263:29264   */\n      0x00\n        /* \"#utility.yul\":29255:29261   */\n      dup3\n        /* \"#utility.yul\":29251:29265   */\n      add\n        /* \"#utility.yul\":29244:29302   */\n      mstore\n        /* \"#utility.yul\":29336:29346   */\n      0x6420746f6b656e73000000000000000000000000000000000000000000000000\n        /* \"#utility.yul\":29331:29333   */\n      0x20\n        /* \"#utility.yul\":29323:29329   */\n      dup3\n        /* \"#utility.yul\":29319:29334   */\n      add\n        /* \"#utility.yul\":29312:29347   */\n      mstore\n        /* \"#utility.yul\":29127:29354   */\n      pop\n      jump\t// out\n        /* \"#utility.yul\":29360:29535   */\n    tag_490:\n        /* \"#utility.yul\":29500:29527   */\n      0x4572726f7221204e6f7420456e6f7567682042616c616e636500000000000000\n        /* \"#utility.yul\":29496:29497   */\n      0x00\n        /* \"#utility.yul\":29488:29494   */\n      dup3\n        /* \"#utility.yul\":29484:29498   */\n      add\n        /* \"#utility.yul\":29477:29528   */\n      mstore\n        /* \"#utility.yul\":29360:29535   */\n      pop\n      jump\t// out\n        /* \"#utility.yul\":29541:29699   */\n    tag_495:\n        /* \"#utility.yul\":29681:29691   */\n      0x4469616d6f6e645f000000000000000000000000000000000000000000000000\n        /* \"#utility.yul\":29677:29678   */\n      0x00\n        /* \"#utility.yul\":29669:29675   */\n      dup3\n        /* \"#utility.yul\":29665:29679   */\n      add\n        /* \"#utility.yul\":29658:29692   */\n      mstore\n        /* \"#utility.yul\":29541:29699   */\n      pop\n      jump\t// out\n        /* \"#utility.yul\":29705:29871   */\n    tag_500:\n        /* \"#utility.yul\":29845:29863   */\n      0x4d696e7420466565204e6f742053657400000000000000000000000000000000\n        /* \"#utility.yul\":29841:29842   */\n      0x00\n        /* \"#utility.yul\":29833:29839   */\n      dup3\n        /* \"#utility.yul\":29829:29843   */\n      add\n        /* \"#utility.yul\":29822:29864   */\n      mstore\n        /* \"#utility.yul\":29705:29871   */\n      pop\n      jump\t// out\n        /* \"#utility.yul\":29877:30032   */\n    tag_505:\n        /* \"#utility.yul\":30017:30024   */\n      0x476f6c645f000000000000000000000000000000000000000000000000000000\n        /* \"#utility.yul\":30013:30014   */\n      0x00\n        /* \"#utility.yul\":30005:30011   */\n      dup3\n        /* \"#utility.yul\":30001:30015   */\n      add\n        /* \"#utility.yul\":29994:30025   */\n      mstore\n        /* \"#utility.yul\":29877:30032   */\n      pop\n      jump\t// out\n        /* \"#utility.yul\":30038:30206   */\n    tag_510:\n        /* \"#utility.yul\":30178:30198   */\n      0x4e6f7420456e6f7567682042616c616e63650000000000000000000000000000\n        /* \"#utility.yul\":30174:30175   */\n      0x00\n        /* \"#utility.yul\":30166:30172   */\n      dup3\n        /* \"#utility.yul\":30162:30176   */\n      add\n        /* \"#utility.yul\":30155:30199   */\n      mstore\n        /* \"#utility.yul\":30038:30206   */\n      pop\n      jump\t// out\n        /* \"#utility.yul\":30212:30389   */\n    tag_515:\n        /* \"#utility.yul\":30352:30381   */\n      0x44726f707369746520697320616c72656164792052756e6e696e670000000000\n        /* \"#utility.yul\":30348:30349   */\n      0x00\n        /* \"#utility.yul\":30340:30346   */\n      dup3\n        /* \"#utility.yul\":30336:30350   */\n      add\n        /* \"#utility.yul\":30329:30382   */\n      mstore\n        /* \"#utility.yul\":30212:30389   */\n      pop\n      jump\t// out\n        /* \"#utility.yul\":30395:30572   */\n    tag_520:\n        /* \"#utility.yul\":30535:30564   */\n      0x44726f707369746520697320616c72656164792053746f707065640000000000\n        /* \"#utility.yul\":30531:30532   */\n      0x00\n        /* \"#utility.yul\":30523:30529   */\n      dup3\n        /* \"#utility.yul\":30519:30533   */\n      add\n        /* \"#utility.yul\":30512:30565   */\n      mstore\n        /* \"#utility.yul\":30395:30572   */\n      pop\n      jump\t// out\n        /* \"#utility.yul\":30578:30749   */\n    tag_525:\n        /* \"#utility.yul\":30718:30741   */\n      0x596f752063616e206d696e7420312d33204e4654730000000000000000000000\n        /* \"#utility.yul\":30714:30715   */\n      0x00\n        /* \"#utility.yul\":30706:30712   */\n      dup3\n        /* \"#utility.yul\":30702:30716   */\n      add\n        /* \"#utility.yul\":30695:30742   */\n      mstore\n        /* \"#utility.yul\":30578:30749   */\n      pop\n      jump\t// out\n        /* \"#utility.yul\":30755:30933   */\n    tag_530:\n        /* \"#utility.yul\":30895:30925   */\n      0x4f6e6c79204e46542d4553204f776e65722063616e2041636365737300000000\n        /* \"#utility.yul\":30891:30892   */\n      0x00\n        /* \"#utility.yul\":30883:30889   */\n      dup3\n        /* \"#utility.yul\":30879:30893   */\n      add\n        /* \"#utility.yul\":30872:30926   */\n      mstore\n        /* \"#utility.yul\":30755:30933   */\n      pop\n      jump\t// out\n        /* \"#utility.yul\":30939:31120   */\n    tag_535:\n        /* \"#utility.yul\":31079:31112   */\n      0x4f776e65722053686f756c6420736574206d696e742046656520466972737400\n        /* \"#utility.yul\":31075:31076   */\n      0x00\n        /* \"#utility.yul\":31067:31073   */\n      dup3\n        /* \"#utility.yul\":31063:31077   */\n      add\n        /* \"#utility.yul\":31056:31113   */\n      mstore\n        /* \"#utility.yul\":30939:31120   */\n      pop\n      jump\t// out\n        /* \"#utility.yul\":31126:31303   */\n    tag_540:\n        /* \"#utility.yul\":31266:31295   */\n      0x44726f7073697465206973206e6f74204f70656e6564205965742e0000000000\n        /* \"#utility.yul\":31262:31263   */\n      0x00\n        /* \"#utility.yul\":31254:31260   */\n      dup3\n        /* \"#utility.yul\":31250:31264   */\n      add\n        /* \"#utility.yul\":31243:31296   */\n      mstore\n        /* \"#utility.yul\":31126:31303   */\n      pop\n      jump\t// out\n        /* \"#utility.yul\":31309:31484   */\n    tag_545:\n        /* \"#utility.yul\":31449:31476   */\n      0x4d6178204d696e74696e67204c696d6974207265616368656400000000000000\n        /* \"#utility.yul\":31445:31446   */\n      0x00\n        /* \"#utility.yul\":31437:31443   */\n      dup3\n        /* \"#utility.yul\":31433:31447   */\n      add\n        /* \"#utility.yul\":31426:31477   */\n      mstore\n        /* \"#utility.yul\":31309:31484   */\n      pop\n      jump\t// out\n        /* \"#utility.yul\":31490:31647   */\n    tag_550:\n        /* \"#utility.yul\":31630:31639   */\n      0x53696c7665725f00000000000000000000000000000000000000000000000000\n        /* \"#utility.yul\":31626:31627   */\n      0x00\n        /* \"#utility.yul\":31618:31624   */\n      dup3\n        /* \"#utility.yul\":31614:31628   */\n      add\n        /* \"#utility.yul\":31607:31640   */\n      mstore\n        /* \"#utility.yul\":31490:31647   */\n      pop\n      jump\t// out\n        /* \"#utility.yul\":31653:31873   */\n    tag_555:\n        /* \"#utility.yul\":31793:31827   */\n      0x455243313135353a206d696e7420746f20746865207a65726f20616464726573\n        /* \"#utility.yul\":31789:31790   */\n      0x00\n        /* \"#utility.yul\":31781:31787   */\n      dup3\n        /* \"#utility.yul\":31777:31791   */\n      add\n        /* \"#utility.yul\":31770:31828   */\n      mstore\n        /* \"#utility.yul\":31862:31865   */\n      0x7300000000000000000000000000000000000000000000000000000000000000\n        /* \"#utility.yul\":31857:31859   */\n      0x20\n        /* \"#utility.yul\":31849:31855   */\n      dup3\n        /* \"#utility.yul\":31845:31860   */\n      add\n        /* \"#utility.yul\":31838:31866   */\n      mstore\n        /* \"#utility.yul\":31653:31873   */\n      pop\n      jump\t// out\n        /* \"#utility.yul\":31879:32590   */\n    tag_359:\n        /* \"#utility.yul\":31918:31921   */\n      0x00\n        /* \"#utility.yul\":31956:31960   */\n      0x44\n        /* \"#utility.yul\":31938:31954   */\n      returndatasize\n        /* \"#utility.yul\":31935:31961   */\n      lt\n        /* \"#utility.yul\":31932:31971   */\n      iszero\n      tag_738\n      jumpi\n        /* \"#utility.yul\":31964:31969   */\n      jump(tag_737)\n        /* \"#utility.yul\":31932:31971   */\n    tag_738:\n        /* \"#utility.yul\":31993:32013   */\n      tag_739\n      tag_632\n      jump\t// in\n    tag_739:\n        /* \"#utility.yul\":32068:32069   */\n      0x04\n        /* \"#utility.yul\":32050:32066   */\n      returndatasize\n        /* \"#utility.yul\":32046:32070   */\n      sub\n        /* \"#utility.yul\":32043:32044   */\n      0x04\n        /* \"#utility.yul\":32037:32041   */\n      dup3\n        /* \"#utility.yul\":32022:32071   */\n      returndatacopy\n        /* \"#utility.yul\":32101:32105   */\n      dup1\n        /* \"#utility.yul\":32095:32106   */\n      mload\n        /* \"#utility.yul\":32200:32216   */\n      returndatasize\n        /* \"#utility.yul\":32193:32197   */\n      0x24\n        /* \"#utility.yul\":32185:32191   */\n      dup3\n        /* \"#utility.yul\":32181:32198   */\n      add\n        /* \"#utility.yul\":32178:32217   */\n      gt\n        /* \"#utility.yul\":32145:32163   */\n      0xffffffffffffffff\n        /* \"#utility.yul\":32137:32143   */\n      dup3\n        /* \"#utility.yul\":32134:32164   */\n      gt\n        /* \"#utility.yul\":32118:32231   */\n      or\n        /* \"#utility.yul\":32115:32261   */\n      iszero\n      tag_740\n      jumpi\n        /* \"#utility.yul\":32246:32251   */\n      pop\n      pop\n      jump(tag_737)\n        /* \"#utility.yul\":32115:32261   */\n    tag_740:\n        /* \"#utility.yul\":32292:32298   */\n      dup1\n        /* \"#utility.yul\":32286:32290   */\n      dup3\n        /* \"#utility.yul\":32282:32299   */\n      add\n        /* \"#utility.yul\":32328:32331   */\n      dup1\n        /* \"#utility.yul\":32322:32332   */\n      mload\n        /* \"#utility.yul\":32355:32373   */\n      0xffffffffffffffff\n        /* \"#utility.yul\":32347:32353   */\n      dup2\n        /* \"#utility.yul\":32344:32374   */\n      gt\n        /* \"#utility.yul\":32341:32384   */\n      iszero\n      tag_741\n      jumpi\n        /* \"#utility.yul\":32377:32382   */\n      pop\n      pop\n      pop\n      pop\n      jump(tag_737)\n        /* \"#utility.yul\":32341:32384   */\n    tag_741:\n        /* \"#utility.yul\":32425:32431   */\n      dup1\n        /* \"#utility.yul\":32418:32422   */\n      0x20\n        /* \"#utility.yul\":32413:32416   */\n      dup4\n        /* \"#utility.yul\":32409:32423   */\n      add\n        /* \"#utility.yul\":32405:32432   */\n      add\n        /* \"#utility.yul\":32484:32485   */\n      0x04\n        /* \"#utility.yul\":32466:32482   */\n      returndatasize\n        /* \"#utility.yul\":32462:32486   */\n      sub\n        /* \"#utility.yul\":32456:32460   */\n      dup6\n        /* \"#utility.yul\":32452:32487   */\n      add\n        /* \"#utility.yul\":32447:32450   */\n      dup2\n        /* \"#utility.yul\":32444:32488   */\n      gt\n        /* \"#utility.yul\":32441:32498   */\n      iszero\n      tag_742\n      jumpi\n        /* \"#utility.yul\":32491:32496   */\n      pop\n      pop\n      pop\n      pop\n      pop\n      jump(tag_737)\n        /* \"#utility.yul\":32441:32498   */\n    tag_742:\n        /* \"#utility.yul\":32508:32565   */\n      tag_743\n        /* \"#utility.yul\":32556:32562   */\n      dup3\n        /* \"#utility.yul\":32550:32554   */\n      0x20\n        /* \"#utility.yul\":32546:32563   */\n      add\n        /* \"#utility.yul\":32538:32544   */\n      dup6\n        /* \"#utility.yul\":32534:32564   */\n      add\n        /* \"#utility.yul\":32528:32532   */\n      dup7\n        /* \"#utility.yul\":32508:32565   */\n      tag_683\n      jump\t// in\n    tag_743:\n        /* \"#utility.yul\":32581:32584   */\n      dup3\n        /* \"#utility.yul\":32574:32584   */\n      swap6\n      pop\n        /* \"#utility.yul\":31922:32590   */\n      pop\n      pop\n      pop\n      pop\n      pop\n        /* \"#utility.yul\":31879:32590   */\n    tag_737:\n      swap1\n      jump\t// out\n        /* \"#utility.yul\":32596:32718   */\n    tag_384:\n        /* \"#utility.yul\":32669:32693   */\n      tag_745\n        /* \"#utility.yul\":32687:32692   */\n      dup2\n        /* \"#utility.yul\":32669:32693   */\n      tag_436\n      jump\t// in\n    tag_745:\n        /* \"#utility.yul\":32662:32667   */\n      dup2\n        /* \"#utility.yul\":32659:32694   */\n      eq\n        /* \"#utility.yul\":32649:32712   */\n      tag_746\n      jumpi\n        /* \"#utility.yul\":32708:32709   */\n      0x00\n        /* \"#utility.yul\":32705:32706   */\n      dup1\n        /* \"#utility.yul\":32698:32710   */\n      revert\n        /* \"#utility.yul\":32649:32712   */\n    tag_746:\n        /* \"#utility.yul\":32596:32718   */\n      pop\n      jump\t// out\n        /* \"#utility.yul\":32724:32862   */\n    tag_388:\n        /* \"#utility.yul\":32805:32837   */\n      tag_748\n        /* \"#utility.yul\":32831:32836   */\n      dup2\n        /* \"#utility.yul\":32805:32837   */\n      tag_427\n      jump\t// in\n    tag_748:\n        /* \"#utility.yul\":32798:32803   */\n      dup2\n        /* \"#utility.yul\":32795:32838   */\n      eq\n        /* \"#utility.yul\":32785:32856   */\n      tag_749\n      jumpi\n        /* \"#utility.yul\":32852:32853   */\n      0x00\n        /* \"#utility.yul\":32849:32850   */\n      dup1\n        /* \"#utility.yul\":32842:32854   */\n      revert\n        /* \"#utility.yul\":32785:32856   */\n    tag_749:\n        /* \"#utility.yul\":32724:32862   */\n      pop\n      jump\t// out\n        /* \"#utility.yul\":32868:32988   */\n    tag_392:\n        /* \"#utility.yul\":32940:32963   */\n      tag_751\n        /* \"#utility.yul\":32957:32962   */\n      dup2\n        /* \"#utility.yul\":32940:32963   */\n      tag_669\n      jump\t// in\n    tag_751:\n        /* \"#utility.yul\":32933:32938   */\n      dup2\n        /* \"#utility.yul\":32930:32964   */\n      eq\n        /* \"#utility.yul\":32920:32982   */\n      tag_752\n      jumpi\n        /* \"#utility.yul\":32978:32979   */\n      0x00\n        /* \"#utility.yul\":32975:32976   */\n      dup1\n        /* \"#utility.yul\":32968:32980   */\n      revert\n        /* \"#utility.yul\":32920:32982   */\n    tag_752:\n        /* \"#utility.yul\":32868:32988   */\n      pop\n      jump\t// out\n        /* \"#utility.yul\":32994:33116   */\n    tag_396:\n        /* \"#utility.yul\":33067:33091   */\n      tag_754\n        /* \"#utility.yul\":33085:33090   */\n      dup2\n        /* \"#utility.yul\":33067:33091   */\n      tag_558\n      jump\t// in\n    tag_754:\n        /* \"#utility.yul\":33060:33065   */\n      dup2\n        /* \"#utility.yul\":33057:33092   */\n      eq\n        /* \"#utility.yul\":33047:33110   */\n      tag_755\n      jumpi\n        /* \"#utility.yul\":33106:33107   */\n      0x00\n        /* \"#utility.yul\":33103:33104   */\n      dup1\n        /* \"#utility.yul\":33096:33108   */\n      revert\n        /* \"#utility.yul\":33047:33110   */\n    tag_755:\n        /* \"#utility.yul\":32994:33116   */\n      pop\n      jump\t// out\n\n    auxdata: 0xa26469706673582212202dc22f982db0f67638b9d0975b16871eb08d328ec4cadff5ad6a8eab5acb1a2464736f6c63430008070033\n}\n",
				"bytecode": {
					"linkReferences": {},
					"object": "608060405260405180602001604052806000815250600290805190602001906200002b92919062000113565b5060326009556064600a55610352600b556001600e60006101000a81548160ff0219169083151502179055503480156200006457600080fd5b50604051620033a2380380620033a283398181016040528101906200008a919062000241565b80600f9080519060200190620000a292919062000113565b5033600e60016101000a81548173ffffffffffffffffffffffffffffffffffffffff021916908373ffffffffffffffffffffffffffffffffffffffff160217905550600060038190555060016004819055506000600681905550600060078190555060006008819055505062000416565b828054620001219062000327565b90600052602060002090601f01602090048101928262000145576000855562000191565b82601f106200016057805160ff191683800117855562000191565b8280016001018555821562000191579182015b828111156200019057825182559160200191906001019062000173565b5b509050620001a09190620001a4565b5090565b5b80821115620001bf576000816000905550600101620001a5565b5090565b6000620001da620001d484620002bb565b62000292565b905082815260208101848484011115620001f957620001f8620003f6565b5b62000206848285620002f1565b509392505050565b600082601f830112620002265762000225620003f1565b5b815162000238848260208601620001c3565b91505092915050565b6000602082840312156200025a576200025962000400565b5b600082015167ffffffffffffffff8111156200027b576200027a620003fb565b5b62000289848285016200020e565b91505092915050565b60006200029e620002b1565b9050620002ac82826200035d565b919050565b6000604051905090565b600067ffffffffffffffff821115620002d957620002d8620003c2565b5b620002e48262000405565b9050602081019050919050565b60005b8381101562000311578082015181840152602081019050620002f4565b8381111562000321576000848401525b50505050565b600060028204905060018216806200034057607f821691505b6020821081141562000357576200035662000393565b5b50919050565b620003688262000405565b810181811067ffffffffffffffff821117156200038a5762000389620003c2565b5b80604052505050565b7f4e487b7100000000000000000000000000000000000000000000000000000000600052602260045260246000fd5b7f4e487b7100000000000000000000000000000000000000000000000000000000600052604160045260246000fd5b600080fd5b600080fd5b600080fd5b600080fd5b6000601f19601f8301169050919050565b612f7c80620004266000396000f3fe6080604052600436106100e85760003560e01c806360daa8511161008a578063aa90c72611610059578063aa90c726146102d2578063b187bd26146102e9578063b4a99a4e14610314578063eddd0d9c1461033f576100e8565b806360daa851146102265780637a5caab3146102535780638b7afe2e1461027e578063a6f9dae1146102a9576100e8565b8063225011da116100c6578063225011da1461014b578063546fd992146101885780635b27d84e146101b95780635e1f0556146101e9576100e8565b80630390c11c146100ed5780631546025914610118578063191e2e831461012f575b600080fd5b3480156100f957600080fd5b50610102610368565b60405161010f9190612615565b60405180910390f35b34801561012457600080fd5b5061012d610372565b005b61014960048036038101906101449190611e84565b61047c565b005b34801561015757600080fd5b50610172600480360381019061016d9190611e57565b6105a6565b60405161017f9190612416565b60405180910390f35b6101a2600480360381019061019d9190611e57565b610696565b6040516101b0929190612630565b60405180910390f35b6101d360048036038101906101ce9190611ec4565b610953565b6040516101e09190612416565b60405180910390f35b3480156101f557600080fd5b50610210600480360381019061020b9190611ec4565b610bed565b60405161021d9190612416565b60405180910390f35b34801561023257600080fd5b5061023b610ec0565b60405161024a93929190612689565b60405180910390f35b34801561025f57600080fd5b50610268610fc6565b6040516102759190612615565b60405180910390f35b34801561028a57600080fd5b50610293611025565b6040516102a09190612615565b60405180910390f35b3480156102b557600080fd5b506102d060048036038101906102cb9190611e57565b6110c4565b005b3480156102de57600080fd5b506102e76111f5565b005b3480156102f557600080fd5b506102fe6112ff565b60405161030b9190612438565b60405180910390f35b34801561032057600080fd5b50610329611312565b60405161033691906123a1565b60405180910390f35b34801561034b57600080fd5b5061036660048036038101906103619190611f31565b611338565b005b6000600354905090565b600e60019054906101000a900473ffffffffffffffffffffffffffffffffffffffff1673ffffffffffffffffffffffffffffffffffffffff166103b361142f565b73ffffffffffffffffffffffffffffffffffffffff1614610409576040517f08c379a000000000000000000000000000000000000000000000000000000000815260040161040090612575565b60405180910390fd5b60011515600e60009054906101000a900460ff1615151461045f576040517f08c379a000000000000000000000000000000000000000000000000000000000815260040161045690612515565b60405180910390fd5b6000600e60006101000a81548160ff021916908315150217905550565b600e60019054906101000a900473ffffffffffffffffffffffffffffffffffffffff1673ffffffffffffffffffffffffffffffffffffffff166104bd61142f565b73ffffffffffffffffffffffffffffffffffffffff1614610513576040517f08c379a000000000000000000000000000000000000000000000000000000000815260040161050a90612575565b60405180910390fd5b600047905080821161055a576040517f08c379a0000000000000000000000000000000000000000000000000000000008152600401610551906124b5565b60405180910390fd5b8273ffffffffffffffffffffffffffffffffffffffff166108fc839081150290604051600060405180830381858888f193505050501580156105a0573d6000803e3d6000fd5b50505050565b606060001515600e60009054906101000a900460ff161515146105fe576040517f08c379a00000000000000000000000000000000000000000000000000000000081526004016105f5906125b5565b60405180910390fd5b600c60008373ffffffffffffffffffffffffffffffffffffffff1673ffffffffffffffffffffffffffffffffffffffff16815260200190815260200160002060000180548060200260200160405190810160405280929190818152602001828054801561068a57602002820191906000526020600020905b815481526020019060010190808311610676575b50505050509050919050565b60006060600e60019054906101000a900473ffffffffffffffffffffffffffffffffffffffff1673ffffffffffffffffffffffffffffffffffffffff166106db61142f565b73ffffffffffffffffffffffffffffffffffffffff1614610731576040517f08c379a000000000000000000000000000000000000000000000000000000000815260040161072890612575565b60405180910390fd5b60001515600e60009054906101000a900460ff16151514610787576040517f08c379a000000000000000000000000000000000000000000000000000000000815260040161077e906125b5565b60405180910390fd5b6000610791611437565b9050600061079e826114c7565b90506108388582600454600280546107b5906128f8565b80601f01602080910402602001604051908101604052809291908181526020018280546107e1906128f8565b801561082e5780601f106108035761010080835404028352916020019161082e565b820191906000526020600020905b81548152906001019060200180831161081157829003601f168201915b5050505050611793565b6003600081548092919061084b9061295b565b9190505550600c60008673ffffffffffffffffffffffffffffffffffffffff1673ffffffffffffffffffffffffffffffffffffffff1681526020019081526020016000206000018190806001815401808255809150506001900390600052602060002001600090919091909150558060028080546108c8906128f8565b80601f01602080910402602001604051908101604052809291908181526020018280546108f4906128f8565b80156109415780601f1061091657610100808354040283529160200191610941565b820191906000526020600020905b81548152906001019060200180831161092457829003601f168201915b50505050509050935093505050915091565b606060001515600e60009054906101000a900460ff161515146109ab576040517f08c379a00000000000000000000000000000000000000000000000000000000081526004016109a2906125b5565b60405180910390fd5b600060055414156109f1576040517f08c379a00000000000000000000000000000000000000000000000000000000081526004016109e890612595565b60405180910390fd5b600482108015610a015750600082115b610a40576040517f08c379a0000000000000000000000000000000000000000000000000000000008152600401610a3790612555565b60405180910390fd5b6103e860035410610a86576040517f08c379a0000000000000000000000000000000000000000000000000000000008152600401610a7d906125d5565b60405180910390fd5b60006005541415610acc576040517f08c379a0000000000000000000000000000000000000000000000000000000008152600401610ac3906124d5565b60405180910390fd5b81600554610ada91906127b1565b3414610b1b576040517f08c379a0000000000000000000000000000000000000000000000000000000008152600401610b12906124f5565b60405180910390fd5b60005b82811015610b4257610b2f84610696565b505080610b3b9061295b565b9050610b1e565b50610b54610b4e61142f565b34611929565b600c60008473ffffffffffffffffffffffffffffffffffffffff1673ffffffffffffffffffffffffffffffffffffffff168152602001908152602001600020600001805480602002602001604051908101604052809291908181526020018280548015610be057602002820191906000526020600020905b815481526020019060010190808311610bcc575b5050505050905092915050565b6060600e60019054906101000a900473ffffffffffffffffffffffffffffffffffffffff1673ffffffffffffffffffffffffffffffffffffffff16610c3061142f565b73ffffffffffffffffffffffffffffffffffffffff1614610c86576040517f08c379a0000000000000000000000000000000000000000000000000000000008152600401610c7d90612575565b60405180910390fd5b60001515600e60009054906101000a900460ff16151514610cdc576040517f08c379a0000000000000000000000000000000000000000000000000000000008152600401610cd3906125b5565b60405180910390fd5b60006005541415610d22576040517f08c379a0000000000000000000000000000000000000000000000000000000008152600401610d1990612595565b60405180910390fd5b600482108015610d325750600082115b610d71576040517f08c379a0000000000000000000000000000000000000000000000000000000008152600401610d6890612555565b60405180910390fd5b6103e860035410610db7576040517f08c379a0000000000000000000000000000000000000000000000000000000008152600401610dae906125d5565b60405180910390fd5b60006005541415610dfd576040517f08c379a0000000000000000000000000000000000000000000000000000000008152600401610df4906124d5565b60405180910390fd5b60005b82811015610e2657610e1184610696565b50508080610e1e9061295b565b915050610e00565b50600c60008473ffffffffffffffffffffffffffffffffffffffff1673ffffffffffffffffffffffffffffffffffffffff168152602001908152602001600020600001805480602002602001604051908101604052809291908181526020018280548015610eb357602002820191906000526020600020905b815481526020019060010190808311610e9f575b5050505050905092915050565b6000806000600e60019054906101000a900473ffffffffffffffffffffffffffffffffffffffff1673ffffffffffffffffffffffffffffffffffffffff16610f0661142f565b73ffffffffffffffffffffffffffffffffffffffff1614610f5c576040517f08c379a0000000000000000000000000000000000000000000000000000000008152600401610f5390612575565b60405180910390fd5b60001515600e60009054906101000a900460ff16151514610fb2576040517f08c379a0000000000000000000000000000000000000000000000000000000008152600401610fa9906125b5565b60405180910390fd5b600654600754600854925092509250909192565b6000801515600e60009054906101000a900460ff1615151461101d576040517f08c379a0000000000000000000000000000000000000000000000000000000008152600401611014906125b5565b60405180910390fd5b600554905090565b6000600e60019054906101000a900473ffffffffffffffffffffffffffffffffffffffff1673ffffffffffffffffffffffffffffffffffffffff1661106861142f565b73ffffffffffffffffffffffffffffffffffffffff16146110be576040517f08c379a00000000000000000000000000000000000000000000000000000000081526004016110b590612575565b60405180910390fd5b47905090565b600e60019054906101000a900473ffffffffffffffffffffffffffffffffffffffff1673ffffffffffffffffffffffffffffffffffffffff1661110561142f565b73ffffffffffffffffffffffffffffffffffffffff161461115b576040517f08c379a000000000000000000000000000000000000000000000000000000000815260040161115290612575565b60405180910390fd5b60001515600e60009054906101000a900460ff161515146111b1576040517f08c379a00000000000000000000000000000000000000000000000000000000081526004016111a8906125b5565b60405180910390fd5b80600e60016101000a81548173ffffffffffffffffffffffffffffffffffffffff021916908373ffffffffffffffffffffffffffffffffffffffff16021790555050565b600e60019054906101000a900473ffffffffffffffffffffffffffffffffffffffff1673ffffffffffffffffffffffffffffffffffffffff1661123661142f565b73ffffffffffffffffffffffffffffffffffffffff161461128c576040517f08c379a000000000000000000000000000000000000000000000000000000000815260040161128390612575565b60405180910390fd5b60001515600e60009054906101000a900460ff161515146112e2576040517f08c379a00000000000000000000000000000000000000000000000000000000081526004016112d990612535565b60405180910390fd5b6001600e60006101000a81548160ff021916908315150217905550565b600e60009054906101000a900460ff1681565b600e60019054906101000a900473ffffffffffffffffffffffffffffffffffffffff1681565b600e60019054906101000a900473ffffffffffffffffffffffffffffffffffffffff1673ffffffffffffffffffffffffffffffffffffffff1661137961142f565b73ffffffffffffffffffffffffffffffffffffffff16146113cf576040517f08c379a00000000000000000000000000000000000000000000000000000000081526004016113c690612575565b60405180910390fd5b60001515600e60009054906101000a900460ff16151514611425576040517f08c379a000000000000000000000000000000000000000000000000000000000815260040161141c906125b5565b60405180910390fd5b8060058190555050565b600033905090565b60008060065460075460085460035442611451919061272a565b61145b919061272a565b611465919061272a565b61146f919061272a565b33600e60019054906101000a900473ffffffffffffffffffffffffffffffffffffffff166040516020016114a593929190612364565b6040516020818303038152906040528051906020012060001c90508091505090565b6000801515600e60009054906101000a900460ff1615151461151e576040517f08c379a0000000000000000000000000000000000000000000000000000000008152600401611515906125b5565b60405180910390fd5b6000600160148461152f91906129e4565b14801561153f5750600954600654105b156115a957600660008154809291906115579061295b565b9190505550611567600654611983565b60405160200161157791906122fe565b6040516020818303038152906040526002908051906020019061159b929190611d60565b50600090508091505061178e565b60036014846115b891906129e4565b111580156115c95750600a54600754105b1561163357600760008154809291906115e19061295b565b91905055506115f1600754611983565b6040516020016116019190612320565b60405160208183030381529060405260029080519060200190611625929190611d60565b50600190508091505061178e565b600360148461164291906129e4565b1180156116525750600b54600854105b156116bc576008600081548092919061166a9061295b565b919050555061167a600854611983565b60405160200161168a9190612342565b604051602081830303815290604052600290805190602001906116ae929190611d60565b50600290508091505061178e565b600a54600754101561172d5760019050600760008154809291906116df9061295b565b91905055506116ef600754611983565b6040516020016116ff9190612320565b60405160208183030381529060405260029080519060200190611723929190611d60565b508091505061178e565b60009050600660008154809291906117449061295b565b9190505550611754600654611983565b60405160200161176491906122fe565b60405160208183030381529060405260029080519060200190611788929190611d60565b50809150505b919050565b600073ffffffffffffffffffffffffffffffffffffffff168473ffffffffffffffffffffffffffffffffffffffff161415611803576040517f08c379a00000000000000000000000000000000000000000000000000000000081526004016117fa906125f5565b60405180910390fd5b600061180d61142f565b905061182e8160008761181f88611ae4565b61182888611ae4565b87611b5e565b8260008086815260200190815260200160002060008773ffffffffffffffffffffffffffffffffffffffff1673ffffffffffffffffffffffffffffffffffffffff168152602001908152602001600020600082825461188d919061272a565b925050819055508473ffffffffffffffffffffffffffffffffffffffff16600073ffffffffffffffffffffffffffffffffffffffff168273ffffffffffffffffffffffffffffffffffffffff167fc3d58168c5ae7397731d063d5bbf3d657854427343f4c083240f7aacaa2d0f62878760405161190b929190612660565b60405180910390a461192281600087878787611b66565b5050505050565b80600d60008473ffffffffffffffffffffffffffffffffffffffff1673ffffffffffffffffffffffffffffffffffffffff1681526020019081526020016000206000828254611978919061272a565b925050819055505050565b606060008214156119cb576040518060400160405280600181526020017f30000000000000000000000000000000000000000000000000000000000000008152509050611adf565b600082905060005b600082146119fd5780806119e69061295b565b915050600a826119f69190612780565b91506119d3565b60008167ffffffffffffffff811115611a1957611a18612ad1565b5b6040519080825280601f01601f191660200182016040528015611a4b5781602001600182028036833780820191505090505b5090505b60008514611ad857600182611a64919061280b565b9150600a85611a7391906129e4565b6030611a7f919061272a565b60f81b818381518110611a9557611a94612aa2565b5b60200101907effffffffffffffffffffffffffffffffffffffffffffffffffffffffffffff1916908160001a905350600a85611ad19190612780565b9450611a4f565b8093505050505b919050565b60606000600167ffffffffffffffff811115611b0357611b02612ad1565b5b604051908082528060200260200182016040528015611b315781602001602082028036833780820191505090505b5090508281600081518110611b4957611b48612aa2565b5b60200260200101818152505080915050919050565b505050505050565b611b858473ffffffffffffffffffffffffffffffffffffffff16611d4d565b15611d45578373ffffffffffffffffffffffffffffffffffffffff1663ae89a24887878686866040518663ffffffff1660e01b8152600401611bcb9594939291906123bc565b602060405180830381600087803b158015611be557600080fd5b505af1925050508015611c1657506040513d601f19601f82011682018060405250810190611c139190611f04565b60015b611cbc57611c22612b00565b806308c379a01415611c7f5750611c37612e54565b80611c425750611c81565b806040517f08c379a0000000000000000000000000000000000000000000000000000000008152600401611c769190612453565b60405180910390fd5b505b6040517f08c379a0000000000000000000000000000000000000000000000000000000008152600401611cb390612475565b60405180910390fd5b63ae89a24860e01b7bffffffffffffffffffffffffffffffffffffffffffffffffffffffff1916817bffffffffffffffffffffffffffffffffffffffffffffffffffffffff191614611d43576040517f08c379a0000000000000000000000000000000000000000000000000000000008152600401611d3a90612495565b60405180910390fd5b505b505050505050565b600080823b905060008111915050919050565b828054611d6c906128f8565b90600052602060002090601f016020900481019282611d8e5760008555611dd5565b82601f10611da757805160ff1916838001178555611dd5565b82800160010185558215611dd5579182015b82811115611dd4578251825591602001919060010190611db9565b5b509050611de29190611de6565b5090565b5b80821115611dff576000816000905550600101611de7565b5090565b600081359050611e1281612eea565b92915050565b600081359050611e2781612f01565b92915050565b600081519050611e3c81612f18565b92915050565b600081359050611e5181612f2f565b92915050565b600060208284031215611e6d57611e6c612b22565b5b6000611e7b84828501611e03565b91505092915050565b60008060408385031215611e9b57611e9a612b22565b5b6000611ea985828601611e18565b9250506020611eba85828601611e42565b9150509250929050565b60008060408385031215611edb57611eda612b22565b5b6000611ee985828601611e03565b9250506020611efa85828601611e42565b9150509250929050565b600060208284031215611f1a57611f19612b22565b5b6000611f2884828501611e2d565b91505092915050565b600060208284031215611f4757611f46612b22565b5b6000611f5584828501611e42565b91505092915050565b6000611f6a83836122c9565b60208301905092915050565b611f7f81612851565b82525050565b611f96611f9182612851565b6129b6565b82525050565b611fa58161283f565b82525050565b611fbc611fb78261283f565b6129a4565b82525050565b6000611fcd826126da565b611fd781856126fd565b9350611fe2836126ca565b8060005b83811015612013578151611ffa8882611f5e565b9750612005836126f0565b925050600181019050611fe6565b5085935050505092915050565b61202981612863565b82525050565b600061203a826126e5565b612044818561270e565b93506120548185602086016128c5565b61205d81612b27565b840191505092915050565b6000612073826126e5565b61207d818561271f565b935061208d8185602086016128c5565b80840191505092915050565b60006120a660348361270e565b91506120b182612b52565b604082019050919050565b60006120c960288361270e565b91506120d482612ba1565b604082019050919050565b60006120ec60198361270e565b91506120f782612bf0565b602082019050919050565b600061210f60088361271f565b915061211a82612c19565b600882019050919050565b600061213260108361270e565b915061213d82612c42565b602082019050919050565b600061215560058361271f565b915061216082612c6b565b600582019050919050565b600061217860128361270e565b915061218382612c94565b602082019050919050565b600061219b601b8361270e565b91506121a682612cbd565b602082019050919050565b60006121be601b8361270e565b91506121c982612ce6565b602082019050919050565b60006121e160158361270e565b91506121ec82612d0f565b602082019050919050565b6000612204601c8361270e565b915061220f82612d38565b602082019050919050565b6000612227601f8361270e565b915061223282612d61565b602082019050919050565b600061224a601b8361270e565b915061225582612d8a565b602082019050919050565b600061226d60198361270e565b915061227882612db3565b602082019050919050565b600061229060078361271f565b915061229b82612ddc565b600782019050919050565b60006122b360218361270e565b91506122be82612e05565b604082019050919050565b6122d2816128bb565b82525050565b6122e1816128bb565b82525050565b6122f86122f3826128bb565b6129da565b82525050565b600061230982612102565b91506123158284612068565b915081905092915050565b600061232b82612148565b91506123378284612068565b915081905092915050565b600061234d82612283565b91506123598284612068565b915081905092915050565b600061237082866122e7565b6020820191506123808285611fab565b6014820191506123908284611f85565b601482019150819050949350505050565b60006020820190506123b66000830184611f76565b92915050565b600060a0820190506123d16000830188611f9c565b6123de6020830187611f9c565b6123eb60408301866122d8565b6123f860608301856122d8565b818103608083015261240a818461202f565b90509695505050505050565b600060208201905081810360008301526124308184611fc2565b905092915050565b600060208201905061244d6000830184612020565b92915050565b6000602082019050818103600083015261246d818461202f565b905092915050565b6000602082019050818103600083015261248e81612099565b9050919050565b600060208201905081810360008301526124ae816120bc565b9050919050565b600060208201905081810360008301526124ce816120df565b9050919050565b600060208201905081810360008301526124ee81612125565b9050919050565b6000602082019050818103600083015261250e8161216b565b9050919050565b6000602082019050818103600083015261252e8161218e565b9050919050565b6000602082019050818103600083015261254e816121b1565b9050919050565b6000602082019050818103600083015261256e816121d4565b9050919050565b6000602082019050818103600083015261258e816121f7565b9050919050565b600060208201905081810360008301526125ae8161221a565b9050919050565b600060208201905081810360008301526125ce8161223d565b9050919050565b600060208201905081810360008301526125ee81612260565b9050919050565b6000602082019050818103600083015261260e816122a6565b9050919050565b600060208201905061262a60008301846122d8565b92915050565b600060408201905061264560008301856122d8565b8181036020830152612657818461202f565b90509392505050565b600060408201905061267560008301856122d8565b61268260208301846122d8565b9392505050565b600060608201905061269e60008301866122d8565b6126ab60208301856122d8565b6126b860408301846122d8565b949350505050565b6000604051905090565b6000819050602082019050919050565b600081519050919050565b600081519050919050565b6000602082019050919050565b600082825260208201905092915050565b600082825260208201905092915050565b600081905092915050565b6000612735826128bb565b9150612740836128bb565b9250827fffffffffffffffffffffffffffffffffffffffffffffffffffffffffffffffff0382111561277557612774612a15565b5b828201905092915050565b600061278b826128bb565b9150612796836128bb565b9250826127a6576127a5612a44565b5b828204905092915050565b60006127bc826128bb565b91506127c7836128bb565b9250817fffffffffffffffffffffffffffffffffffffffffffffffffffffffffffffffff0483118215151615612800576127ff612a15565b5b828202905092915050565b6000612816826128bb565b9150612821836128bb565b92508282101561283457612833612a15565b5b828203905092915050565b600061284a8261289b565b9050919050565b600061285c8261289b565b9050919050565b60008115159050919050565b60007fffffffff0000000000000000000000000000000000000000000000000000000082169050919050565b600073ffffffffffffffffffffffffffffffffffffffff82169050919050565b6000819050919050565b60005b838110156128e35780820151818401526020810190506128c8565b838111156128f2576000848401525b50505050565b6000600282049050600182168061291057607f821691505b6020821081141561292457612923612a73565b5b50919050565b61293382612b27565b810181811067ffffffffffffffff8211171561295257612951612ad1565b5b80604052505050565b6000612966826128bb565b91507fffffffffffffffffffffffffffffffffffffffffffffffffffffffffffffffff82141561299957612998612a15565b5b600182019050919050565b60006129af826129c8565b9050919050565b60006129c1826129c8565b9050919050565b60006129d382612b38565b9050919050565b6000819050919050565b60006129ef826128bb565b91506129fa836128bb565b925082612a0a57612a09612a44565b5b828206905092915050565b7f4e487b7100000000000000000000000000000000000000000000000000000000600052601160045260246000fd5b7f4e487b7100000000000000000000000000000000000000000000000000000000600052601260045260246000fd5b7f4e487b7100000000000000000000000000000000000000000000000000000000600052602260045260246000fd5b7f4e487b7100000000000000000000000000000000000000000000000000000000600052603260045260246000fd5b7f4e487b7100000000000000000000000000000000000000000000000000000000600052604160045260246000fd5b600060033d1115612b1f5760046000803e612b1c600051612b45565b90505b90565b600080fd5b6000601f19601f8301169050919050565b60008160601b9050919050565b60008160e01c9050919050565b7f455243313135353a207472616e7366657220746f206e6f6e204552433131353560008201527f526563656976657220696d706c656d656e746572000000000000000000000000602082015250565b7f455243313135353a204552433131353552656365697665722072656a6563746560008201527f6420746f6b656e73000000000000000000000000000000000000000000000000602082015250565b7f4572726f7221204e6f7420456e6f7567682042616c616e636500000000000000600082015250565b7f4469616d6f6e645f000000000000000000000000000000000000000000000000600082015250565b7f4d696e7420466565204e6f742053657400000000000000000000000000000000600082015250565b7f476f6c645f000000000000000000000000000000000000000000000000000000600082015250565b7f4e6f7420456e6f7567682042616c616e63650000000000000000000000000000600082015250565b7f44726f707369746520697320616c72656164792052756e6e696e670000000000600082015250565b7f44726f707369746520697320616c72656164792053746f707065640000000000600082015250565b7f596f752063616e206d696e7420312d33204e4654730000000000000000000000600082015250565b7f4f6e6c79204e46542d4553204f776e65722063616e2041636365737300000000600082015250565b7f4f776e65722053686f756c6420736574206d696e742046656520466972737400600082015250565b7f44726f7073697465206973206e6f74204f70656e6564205965742e0000000000600082015250565b7f4d6178204d696e74696e67204c696d6974207265616368656400000000000000600082015250565b7f53696c7665725f00000000000000000000000000000000000000000000000000600082015250565b7f455243313135353a206d696e7420746f20746865207a65726f2061646472657360008201527f7300000000000000000000000000000000000000000000000000000000000000602082015250565b600060443d1015612e6457612ee7565b612e6c6126c0565b60043d036004823e80513d602482011167ffffffffffffffff82111715612e94575050612ee7565b808201805167ffffffffffffffff811115612eb25750505050612ee7565b80602083010160043d038501811115612ecf575050505050612ee7565b612ede8260200185018661292a565b82955050505050505b90565b612ef38161283f565b8114612efe57600080fd5b50565b612f0a81612851565b8114612f1557600080fd5b50565b612f218161286f565b8114612f2c57600080fd5b50565b612f38816128bb565b8114612f4357600080fd5b5056fea26469706673582212202dc22f982db0f67638b9d0975b16871eb08d328ec4cadff5ad6a8eab5acb1a2464736f6c63430008070033",
					"opcodes": "PUSH1 0x80 PUSH1 0x40 MSTORE PUSH1 0x40 MLOAD DUP1 PUSH1 0x20 ADD PUSH1 0x40 MSTORE DUP1 PUSH1 0x0 DUP2 MSTORE POP PUSH1 0x2 SWAP1 DUP1 MLOAD SWAP1 PUSH1 0x20 ADD SWAP1 PUSH3 0x2B SWAP3 SWAP2 SWAP1 PUSH3 0x113 JUMP JUMPDEST POP PUSH1 0x32 PUSH1 0x9 SSTORE PUSH1 0x64 PUSH1 0xA SSTORE PUSH2 0x352 PUSH1 0xB SSTORE PUSH1 0x1 PUSH1 0xE PUSH1 0x0 PUSH2 0x100 EXP DUP2 SLOAD DUP2 PUSH1 0xFF MUL NOT AND SWAP1 DUP4 ISZERO ISZERO MUL OR SWAP1 SSTORE POP CALLVALUE DUP1 ISZERO PUSH3 0x64 JUMPI PUSH1 0x0 DUP1 REVERT JUMPDEST POP PUSH1 0x40 MLOAD PUSH3 0x33A2 CODESIZE SUB DUP1 PUSH3 0x33A2 DUP4 CODECOPY DUP2 DUP2 ADD PUSH1 0x40 MSTORE DUP2 ADD SWAP1 PUSH3 0x8A SWAP2 SWAP1 PUSH3 0x241 JUMP JUMPDEST DUP1 PUSH1 0xF SWAP1 DUP1 MLOAD SWAP1 PUSH1 0x20 ADD SWAP1 PUSH3 0xA2 SWAP3 SWAP2 SWAP1 PUSH3 0x113 JUMP JUMPDEST POP CALLER PUSH1 0xE PUSH1 0x1 PUSH2 0x100 EXP DUP2 SLOAD DUP2 PUSH20 0xFFFFFFFFFFFFFFFFFFFFFFFFFFFFFFFFFFFFFFFF MUL NOT AND SWAP1 DUP4 PUSH20 0xFFFFFFFFFFFFFFFFFFFFFFFFFFFFFFFFFFFFFFFF AND MUL OR SWAP1 SSTORE POP PUSH1 0x0 PUSH1 0x3 DUP2 SWAP1 SSTORE POP PUSH1 0x1 PUSH1 0x4 DUP2 SWAP1 SSTORE POP PUSH1 0x0 PUSH1 0x6 DUP2 SWAP1 SSTORE POP PUSH1 0x0 PUSH1 0x7 DUP2 SWAP1 SSTORE POP PUSH1 0x0 PUSH1 0x8 DUP2 SWAP1 SSTORE POP POP PUSH3 0x416 JUMP JUMPDEST DUP3 DUP1 SLOAD PUSH3 0x121 SWAP1 PUSH3 0x327 JUMP JUMPDEST SWAP1 PUSH1 0x0 MSTORE PUSH1 0x20 PUSH1 0x0 KECCAK256 SWAP1 PUSH1 0x1F ADD PUSH1 0x20 SWAP1 DIV DUP2 ADD SWAP3 DUP3 PUSH3 0x145 JUMPI PUSH1 0x0 DUP6 SSTORE PUSH3 0x191 JUMP JUMPDEST DUP3 PUSH1 0x1F LT PUSH3 0x160 JUMPI DUP1 MLOAD PUSH1 0xFF NOT AND DUP4 DUP1 ADD OR DUP6 SSTORE PUSH3 0x191 JUMP JUMPDEST DUP3 DUP1 ADD PUSH1 0x1 ADD DUP6 SSTORE DUP3 ISZERO PUSH3 0x191 JUMPI SWAP2 DUP3 ADD JUMPDEST DUP3 DUP2 GT ISZERO PUSH3 0x190 JUMPI DUP3 MLOAD DUP3 SSTORE SWAP2 PUSH1 0x20 ADD SWAP2 SWAP1 PUSH1 0x1 ADD SWAP1 PUSH3 0x173 JUMP JUMPDEST JUMPDEST POP SWAP1 POP PUSH3 0x1A0 SWAP2 SWAP1 PUSH3 0x1A4 JUMP JUMPDEST POP SWAP1 JUMP JUMPDEST JUMPDEST DUP1 DUP3 GT ISZERO PUSH3 0x1BF JUMPI PUSH1 0x0 DUP2 PUSH1 0x0 SWAP1 SSTORE POP PUSH1 0x1 ADD PUSH3 0x1A5 JUMP JUMPDEST POP SWAP1 JUMP JUMPDEST PUSH1 0x0 PUSH3 0x1DA PUSH3 0x1D4 DUP5 PUSH3 0x2BB JUMP JUMPDEST PUSH3 0x292 JUMP JUMPDEST SWAP1 POP DUP3 DUP2 MSTORE PUSH1 0x20 DUP2 ADD DUP5 DUP5 DUP5 ADD GT ISZERO PUSH3 0x1F9 JUMPI PUSH3 0x1F8 PUSH3 0x3F6 JUMP JUMPDEST JUMPDEST PUSH3 0x206 DUP5 DUP3 DUP6 PUSH3 0x2F1 JUMP JUMPDEST POP SWAP4 SWAP3 POP POP POP JUMP JUMPDEST PUSH1 0x0 DUP3 PUSH1 0x1F DUP4 ADD SLT PUSH3 0x226 JUMPI PUSH3 0x225 PUSH3 0x3F1 JUMP JUMPDEST JUMPDEST DUP2 MLOAD PUSH3 0x238 DUP5 DUP3 PUSH1 0x20 DUP7 ADD PUSH3 0x1C3 JUMP JUMPDEST SWAP2 POP POP SWAP3 SWAP2 POP POP JUMP JUMPDEST PUSH1 0x0 PUSH1 0x20 DUP3 DUP5 SUB SLT ISZERO PUSH3 0x25A JUMPI PUSH3 0x259 PUSH3 0x400 JUMP JUMPDEST JUMPDEST PUSH1 0x0 DUP3 ADD MLOAD PUSH8 0xFFFFFFFFFFFFFFFF DUP2 GT ISZERO PUSH3 0x27B JUMPI PUSH3 0x27A PUSH3 0x3FB JUMP JUMPDEST JUMPDEST PUSH3 0x289 DUP5 DUP3 DUP6 ADD PUSH3 0x20E JUMP JUMPDEST SWAP2 POP POP SWAP3 SWAP2 POP POP JUMP JUMPDEST PUSH1 0x0 PUSH3 0x29E PUSH3 0x2B1 JUMP JUMPDEST SWAP1 POP PUSH3 0x2AC DUP3 DUP3 PUSH3 0x35D JUMP JUMPDEST SWAP2 SWAP1 POP JUMP JUMPDEST PUSH1 0x0 PUSH1 0x40 MLOAD SWAP1 POP SWAP1 JUMP JUMPDEST PUSH1 0x0 PUSH8 0xFFFFFFFFFFFFFFFF DUP3 GT ISZERO PUSH3 0x2D9 JUMPI PUSH3 0x2D8 PUSH3 0x3C2 JUMP JUMPDEST JUMPDEST PUSH3 0x2E4 DUP3 PUSH3 0x405 JUMP JUMPDEST SWAP1 POP PUSH1 0x20 DUP2 ADD SWAP1 POP SWAP2 SWAP1 POP JUMP JUMPDEST PUSH1 0x0 JUMPDEST DUP4 DUP2 LT ISZERO PUSH3 0x311 JUMPI DUP1 DUP3 ADD MLOAD DUP2 DUP5 ADD MSTORE PUSH1 0x20 DUP2 ADD SWAP1 POP PUSH3 0x2F4 JUMP JUMPDEST DUP4 DUP2 GT ISZERO PUSH3 0x321 JUMPI PUSH1 0x0 DUP5 DUP5 ADD MSTORE JUMPDEST POP POP POP POP JUMP JUMPDEST PUSH1 0x0 PUSH1 0x2 DUP3 DIV SWAP1 POP PUSH1 0x1 DUP3 AND DUP1 PUSH3 0x340 JUMPI PUSH1 0x7F DUP3 AND SWAP2 POP JUMPDEST PUSH1 0x20 DUP3 LT DUP2 EQ ISZERO PUSH3 0x357 JUMPI PUSH3 0x356 PUSH3 0x393 JUMP JUMPDEST JUMPDEST POP SWAP2 SWAP1 POP JUMP JUMPDEST PUSH3 0x368 DUP3 PUSH3 0x405 JUMP JUMPDEST DUP2 ADD DUP2 DUP2 LT PUSH8 0xFFFFFFFFFFFFFFFF DUP3 GT OR ISZERO PUSH3 0x38A JUMPI PUSH3 0x389 PUSH3 0x3C2 JUMP JUMPDEST JUMPDEST DUP1 PUSH1 0x40 MSTORE POP POP POP JUMP JUMPDEST PUSH32 0x4E487B7100000000000000000000000000000000000000000000000000000000 PUSH1 0x0 MSTORE PUSH1 0x22 PUSH1 0x4 MSTORE PUSH1 0x24 PUSH1 0x0 REVERT JUMPDEST PUSH32 0x4E487B7100000000000000000000000000000000000000000000000000000000 PUSH1 0x0 MSTORE PUSH1 0x41 PUSH1 0x4 MSTORE PUSH1 0x24 PUSH1 0x0 REVERT JUMPDEST PUSH1 0x0 DUP1 REVERT JUMPDEST PUSH1 0x0 DUP1 REVERT JUMPDEST PUSH1 0x0 DUP1 REVERT JUMPDEST PUSH1 0x0 DUP1 REVERT JUMPDEST PUSH1 0x0 PUSH1 0x1F NOT PUSH1 0x1F DUP4 ADD AND SWAP1 POP SWAP2 SWAP1 POP JUMP JUMPDEST PUSH2 0x2F7C DUP1 PUSH3 0x426 PUSH1 0x0 CODECOPY PUSH1 0x0 RETURN INVALID PUSH1 0x80 PUSH1 0x40 MSTORE PUSH1 0x4 CALLDATASIZE LT PUSH2 0xE8 JUMPI PUSH1 0x0 CALLDATALOAD PUSH1 0xE0 SHR DUP1 PUSH4 0x60DAA851 GT PUSH2 0x8A JUMPI DUP1 PUSH4 0xAA90C726 GT PUSH2 0x59 JUMPI DUP1 PUSH4 0xAA90C726 EQ PUSH2 0x2D2 JUMPI DUP1 PUSH4 0xB187BD26 EQ PUSH2 0x2E9 JUMPI DUP1 PUSH4 0xB4A99A4E EQ PUSH2 0x314 JUMPI DUP1 PUSH4 0xEDDD0D9C EQ PUSH2 0x33F JUMPI PUSH2 0xE8 JUMP JUMPDEST DUP1 PUSH4 0x60DAA851 EQ PUSH2 0x226 JUMPI DUP1 PUSH4 0x7A5CAAB3 EQ PUSH2 0x253 JUMPI DUP1 PUSH4 0x8B7AFE2E EQ PUSH2 0x27E JUMPI DUP1 PUSH4 0xA6F9DAE1 EQ PUSH2 0x2A9 JUMPI PUSH2 0xE8 JUMP JUMPDEST DUP1 PUSH4 0x225011DA GT PUSH2 0xC6 JUMPI DUP1 PUSH4 0x225011DA EQ PUSH2 0x14B JUMPI DUP1 PUSH4 0x546FD992 EQ PUSH2 0x188 JUMPI DUP1 PUSH4 0x5B27D84E EQ PUSH2 0x1B9 JUMPI DUP1 PUSH4 0x5E1F0556 EQ PUSH2 0x1E9 JUMPI PUSH2 0xE8 JUMP JUMPDEST DUP1 PUSH4 0x390C11C EQ PUSH2 0xED JUMPI DUP1 PUSH4 0x15460259 EQ PUSH2 0x118 JUMPI DUP1 PUSH4 0x191E2E83 EQ PUSH2 0x12F JUMPI JUMPDEST PUSH1 0x0 DUP1 REVERT JUMPDEST CALLVALUE DUP1 ISZERO PUSH2 0xF9 JUMPI PUSH1 0x0 DUP1 REVERT JUMPDEST POP PUSH2 0x102 PUSH2 0x368 JUMP JUMPDEST PUSH1 0x40 MLOAD PUSH2 0x10F SWAP2 SWAP1 PUSH2 0x2615 JUMP JUMPDEST PUSH1 0x40 MLOAD DUP1 SWAP2 SUB SWAP1 RETURN JUMPDEST CALLVALUE DUP1 ISZERO PUSH2 0x124 JUMPI PUSH1 0x0 DUP1 REVERT JUMPDEST POP PUSH2 0x12D PUSH2 0x372 JUMP JUMPDEST STOP JUMPDEST PUSH2 0x149 PUSH1 0x4 DUP1 CALLDATASIZE SUB DUP2 ADD SWAP1 PUSH2 0x144 SWAP2 SWAP1 PUSH2 0x1E84 JUMP JUMPDEST PUSH2 0x47C JUMP JUMPDEST STOP JUMPDEST CALLVALUE DUP1 ISZERO PUSH2 0x157 JUMPI PUSH1 0x0 DUP1 REVERT JUMPDEST POP PUSH2 0x172 PUSH1 0x4 DUP1 CALLDATASIZE SUB DUP2 ADD SWAP1 PUSH2 0x16D SWAP2 SWAP1 PUSH2 0x1E57 JUMP JUMPDEST PUSH2 0x5A6 JUMP JUMPDEST PUSH1 0x40 MLOAD PUSH2 0x17F SWAP2 SWAP1 PUSH2 0x2416 JUMP JUMPDEST PUSH1 0x40 MLOAD DUP1 SWAP2 SUB SWAP1 RETURN JUMPDEST PUSH2 0x1A2 PUSH1 0x4 DUP1 CALLDATASIZE SUB DUP2 ADD SWAP1 PUSH2 0x19D SWAP2 SWAP1 PUSH2 0x1E57 JUMP JUMPDEST PUSH2 0x696 JUMP JUMPDEST PUSH1 0x40 MLOAD PUSH2 0x1B0 SWAP3 SWAP2 SWAP1 PUSH2 0x2630 JUMP JUMPDEST PUSH1 0x40 MLOAD DUP1 SWAP2 SUB SWAP1 RETURN JUMPDEST PUSH2 0x1D3 PUSH1 0x4 DUP1 CALLDATASIZE SUB DUP2 ADD SWAP1 PUSH2 0x1CE SWAP2 SWAP1 PUSH2 0x1EC4 JUMP JUMPDEST PUSH2 0x953 JUMP JUMPDEST PUSH1 0x40 MLOAD PUSH2 0x1E0 SWAP2 SWAP1 PUSH2 0x2416 JUMP JUMPDEST PUSH1 0x40 MLOAD DUP1 SWAP2 SUB SWAP1 RETURN JUMPDEST CALLVALUE DUP1 ISZERO PUSH2 0x1F5 JUMPI PUSH1 0x0 DUP1 REVERT JUMPDEST POP PUSH2 0x210 PUSH1 0x4 DUP1 CALLDATASIZE SUB DUP2 ADD SWAP1 PUSH2 0x20B SWAP2 SWAP1 PUSH2 0x1EC4 JUMP JUMPDEST PUSH2 0xBED JUMP JUMPDEST PUSH1 0x40 MLOAD PUSH2 0x21D SWAP2 SWAP1 PUSH2 0x2416 JUMP JUMPDEST PUSH1 0x40 MLOAD DUP1 SWAP2 SUB SWAP1 RETURN JUMPDEST CALLVALUE DUP1 ISZERO PUSH2 0x232 JUMPI PUSH1 0x0 DUP1 REVERT JUMPDEST POP PUSH2 0x23B PUSH2 0xEC0 JUMP JUMPDEST PUSH1 0x40 MLOAD PUSH2 0x24A SWAP4 SWAP3 SWAP2 SWAP1 PUSH2 0x2689 JUMP JUMPDEST PUSH1 0x40 MLOAD DUP1 SWAP2 SUB SWAP1 RETURN JUMPDEST CALLVALUE DUP1 ISZERO PUSH2 0x25F JUMPI PUSH1 0x0 DUP1 REVERT JUMPDEST POP PUSH2 0x268 PUSH2 0xFC6 JUMP JUMPDEST PUSH1 0x40 MLOAD PUSH2 0x275 SWAP2 SWAP1 PUSH2 0x2615 JUMP JUMPDEST PUSH1 0x40 MLOAD DUP1 SWAP2 SUB SWAP1 RETURN JUMPDEST CALLVALUE DUP1 ISZERO PUSH2 0x28A JUMPI PUSH1 0x0 DUP1 REVERT JUMPDEST POP PUSH2 0x293 PUSH2 0x1025 JUMP JUMPDEST PUSH1 0x40 MLOAD PUSH2 0x2A0 SWAP2 SWAP1 PUSH2 0x2615 JUMP JUMPDEST PUSH1 0x40 MLOAD DUP1 SWAP2 SUB SWAP1 RETURN JUMPDEST CALLVALUE DUP1 ISZERO PUSH2 0x2B5 JUMPI PUSH1 0x0 DUP1 REVERT JUMPDEST POP PUSH2 0x2D0 PUSH1 0x4 DUP1 CALLDATASIZE SUB DUP2 ADD SWAP1 PUSH2 0x2CB SWAP2 SWAP1 PUSH2 0x1E57 JUMP JUMPDEST PUSH2 0x10C4 JUMP JUMPDEST STOP JUMPDEST CALLVALUE DUP1 ISZERO PUSH2 0x2DE JUMPI PUSH1 0x0 DUP1 REVERT JUMPDEST POP PUSH2 0x2E7 PUSH2 0x11F5 JUMP JUMPDEST STOP JUMPDEST CALLVALUE DUP1 ISZERO PUSH2 0x2F5 JUMPI PUSH1 0x0 DUP1 REVERT JUMPDEST POP PUSH2 0x2FE PUSH2 0x12FF JUMP JUMPDEST PUSH1 0x40 MLOAD PUSH2 0x30B SWAP2 SWAP1 PUSH2 0x2438 JUMP JUMPDEST PUSH1 0x40 MLOAD DUP1 SWAP2 SUB SWAP1 RETURN JUMPDEST CALLVALUE DUP1 ISZERO PUSH2 0x320 JUMPI PUSH1 0x0 DUP1 REVERT JUMPDEST POP PUSH2 0x329 PUSH2 0x1312 JUMP JUMPDEST PUSH1 0x40 MLOAD PUSH2 0x336 SWAP2 SWAP1 PUSH2 0x23A1 JUMP JUMPDEST PUSH1 0x40 MLOAD DUP1 SWAP2 SUB SWAP1 RETURN JUMPDEST CALLVALUE DUP1 ISZERO PUSH2 0x34B JUMPI PUSH1 0x0 DUP1 REVERT JUMPDEST POP PUSH2 0x366 PUSH1 0x4 DUP1 CALLDATASIZE SUB DUP2 ADD SWAP1 PUSH2 0x361 SWAP2 SWAP1 PUSH2 0x1F31 JUMP JUMPDEST PUSH2 0x1338 JUMP JUMPDEST STOP JUMPDEST PUSH1 0x0 PUSH1 0x3 SLOAD SWAP1 POP SWAP1 JUMP JUMPDEST PUSH1 0xE PUSH1 0x1 SWAP1 SLOAD SWAP1 PUSH2 0x100 EXP SWAP1 DIV PUSH20 0xFFFFFFFFFFFFFFFFFFFFFFFFFFFFFFFFFFFFFFFF AND PUSH20 0xFFFFFFFFFFFFFFFFFFFFFFFFFFFFFFFFFFFFFFFF AND PUSH2 0x3B3 PUSH2 0x142F JUMP JUMPDEST PUSH20 0xFFFFFFFFFFFFFFFFFFFFFFFFFFFFFFFFFFFFFFFF AND EQ PUSH2 0x409 JUMPI PUSH1 0x40 MLOAD PUSH32 0x8C379A000000000000000000000000000000000000000000000000000000000 DUP2 MSTORE PUSH1 0x4 ADD PUSH2 0x400 SWAP1 PUSH2 0x2575 JUMP JUMPDEST PUSH1 0x40 MLOAD DUP1 SWAP2 SUB SWAP1 REVERT JUMPDEST PUSH1 0x1 ISZERO ISZERO PUSH1 0xE PUSH1 0x0 SWAP1 SLOAD SWAP1 PUSH2 0x100 EXP SWAP1 DIV PUSH1 0xFF AND ISZERO ISZERO EQ PUSH2 0x45F JUMPI PUSH1 0x40 MLOAD PUSH32 0x8C379A000000000000000000000000000000000000000000000000000000000 DUP2 MSTORE PUSH1 0x4 ADD PUSH2 0x456 SWAP1 PUSH2 0x2515 JUMP JUMPDEST PUSH1 0x40 MLOAD DUP1 SWAP2 SUB SWAP1 REVERT JUMPDEST PUSH1 0x0 PUSH1 0xE PUSH1 0x0 PUSH2 0x100 EXP DUP2 SLOAD DUP2 PUSH1 0xFF MUL NOT AND SWAP1 DUP4 ISZERO ISZERO MUL OR SWAP1 SSTORE POP JUMP JUMPDEST PUSH1 0xE PUSH1 0x1 SWAP1 SLOAD SWAP1 PUSH2 0x100 EXP SWAP1 DIV PUSH20 0xFFFFFFFFFFFFFFFFFFFFFFFFFFFFFFFFFFFFFFFF AND PUSH20 0xFFFFFFFFFFFFFFFFFFFFFFFFFFFFFFFFFFFFFFFF AND PUSH2 0x4BD PUSH2 0x142F JUMP JUMPDEST PUSH20 0xFFFFFFFFFFFFFFFFFFFFFFFFFFFFFFFFFFFFFFFF AND EQ PUSH2 0x513 JUMPI PUSH1 0x40 MLOAD PUSH32 0x8C379A000000000000000000000000000000000000000000000000000000000 DUP2 MSTORE PUSH1 0x4 ADD PUSH2 0x50A SWAP1 PUSH2 0x2575 JUMP JUMPDEST PUSH1 0x40 MLOAD DUP1 SWAP2 SUB SWAP1 REVERT JUMPDEST PUSH1 0x0 SELFBALANCE SWAP1 POP DUP1 DUP3 GT PUSH2 0x55A JUMPI PUSH1 0x40 MLOAD PUSH32 0x8C379A000000000000000000000000000000000000000000000000000000000 DUP2 MSTORE PUSH1 0x4 ADD PUSH2 0x551 SWAP1 PUSH2 0x24B5 JUMP JUMPDEST PUSH1 0x40 MLOAD DUP1 SWAP2 SUB SWAP1 REVERT JUMPDEST DUP3 PUSH20 0xFFFFFFFFFFFFFFFFFFFFFFFFFFFFFFFFFFFFFFFF AND PUSH2 0x8FC DUP4 SWAP1 DUP2 ISZERO MUL SWAP1 PUSH1 0x40 MLOAD PUSH1 0x0 PUSH1 0x40 MLOAD DUP1 DUP4 SUB DUP2 DUP6 DUP9 DUP9 CALL SWAP4 POP POP POP POP ISZERO DUP1 ISZERO PUSH2 0x5A0 JUMPI RETURNDATASIZE PUSH1 0x0 DUP1 RETURNDATACOPY RETURNDATASIZE PUSH1 0x0 REVERT JUMPDEST POP POP POP POP JUMP JUMPDEST PUSH1 0x60 PUSH1 0x0 ISZERO ISZERO PUSH1 0xE PUSH1 0x0 SWAP1 SLOAD SWAP1 PUSH2 0x100 EXP SWAP1 DIV PUSH1 0xFF AND ISZERO ISZERO EQ PUSH2 0x5FE JUMPI PUSH1 0x40 MLOAD PUSH32 0x8C379A000000000000000000000000000000000000000000000000000000000 DUP2 MSTORE PUSH1 0x4 ADD PUSH2 0x5F5 SWAP1 PUSH2 0x25B5 JUMP JUMPDEST PUSH1 0x40 MLOAD DUP1 SWAP2 SUB SWAP1 REVERT JUMPDEST PUSH1 0xC PUSH1 0x0 DUP4 PUSH20 0xFFFFFFFFFFFFFFFFFFFFFFFFFFFFFFFFFFFFFFFF AND PUSH20 0xFFFFFFFFFFFFFFFFFFFFFFFFFFFFFFFFFFFFFFFF AND DUP2 MSTORE PUSH1 0x20 ADD SWAP1 DUP2 MSTORE PUSH1 0x20 ADD PUSH1 0x0 KECCAK256 PUSH1 0x0 ADD DUP1 SLOAD DUP1 PUSH1 0x20 MUL PUSH1 0x20 ADD PUSH1 0x40 MLOAD SWAP1 DUP2 ADD PUSH1 0x40 MSTORE DUP1 SWAP3 SWAP2 SWAP1 DUP2 DUP2 MSTORE PUSH1 0x20 ADD DUP3 DUP1 SLOAD DUP1 ISZERO PUSH2 0x68A JUMPI PUSH1 0x20 MUL DUP3 ADD SWAP2 SWAP1 PUSH1 0x0 MSTORE PUSH1 0x20 PUSH1 0x0 KECCAK256 SWAP1 JUMPDEST DUP2 SLOAD DUP2 MSTORE PUSH1 0x20 ADD SWAP1 PUSH1 0x1 ADD SWAP1 DUP1 DUP4 GT PUSH2 0x676 JUMPI JUMPDEST POP POP POP POP POP SWAP1 POP SWAP2 SWAP1 POP JUMP JUMPDEST PUSH1 0x0 PUSH1 0x60 PUSH1 0xE PUSH1 0x1 SWAP1 SLOAD SWAP1 PUSH2 0x100 EXP SWAP1 DIV PUSH20 0xFFFFFFFFFFFFFFFFFFFFFFFFFFFFFFFFFFFFFFFF AND PUSH20 0xFFFFFFFFFFFFFFFFFFFFFFFFFFFFFFFFFFFFFFFF AND PUSH2 0x6DB PUSH2 0x142F JUMP JUMPDEST PUSH20 0xFFFFFFFFFFFFFFFFFFFFFFFFFFFFFFFFFFFFFFFF AND EQ PUSH2 0x731 JUMPI PUSH1 0x40 MLOAD PUSH32 0x8C379A000000000000000000000000000000000000000000000000000000000 DUP2 MSTORE PUSH1 0x4 ADD PUSH2 0x728 SWAP1 PUSH2 0x2575 JUMP JUMPDEST PUSH1 0x40 MLOAD DUP1 SWAP2 SUB SWAP1 REVERT JUMPDEST PUSH1 0x0 ISZERO ISZERO PUSH1 0xE PUSH1 0x0 SWAP1 SLOAD SWAP1 PUSH2 0x100 EXP SWAP1 DIV PUSH1 0xFF AND ISZERO ISZERO EQ PUSH2 0x787 JUMPI PUSH1 0x40 MLOAD PUSH32 0x8C379A000000000000000000000000000000000000000000000000000000000 DUP2 MSTORE PUSH1 0x4 ADD PUSH2 0x77E SWAP1 PUSH2 0x25B5 JUMP JUMPDEST PUSH1 0x40 MLOAD DUP1 SWAP2 SUB SWAP1 REVERT JUMPDEST PUSH1 0x0 PUSH2 0x791 PUSH2 0x1437 JUMP JUMPDEST SWAP1 POP PUSH1 0x0 PUSH2 0x79E DUP3 PUSH2 0x14C7 JUMP JUMPDEST SWAP1 POP PUSH2 0x838 DUP6 DUP3 PUSH1 0x4 SLOAD PUSH1 0x2 DUP1 SLOAD PUSH2 0x7B5 SWAP1 PUSH2 0x28F8 JUMP JUMPDEST DUP1 PUSH1 0x1F ADD PUSH1 0x20 DUP1 SWAP2 DIV MUL PUSH1 0x20 ADD PUSH1 0x40 MLOAD SWAP1 DUP2 ADD PUSH1 0x40 MSTORE DUP1 SWAP3 SWAP2 SWAP1 DUP2 DUP2 MSTORE PUSH1 0x20 ADD DUP3 DUP1 SLOAD PUSH2 0x7E1 SWAP1 PUSH2 0x28F8 JUMP JUMPDEST DUP1 ISZERO PUSH2 0x82E JUMPI DUP1 PUSH1 0x1F LT PUSH2 0x803 JUMPI PUSH2 0x100 DUP1 DUP4 SLOAD DIV MUL DUP4 MSTORE SWAP2 PUSH1 0x20 ADD SWAP2 PUSH2 0x82E JUMP JUMPDEST DUP3 ADD SWAP2 SWAP1 PUSH1 0x0 MSTORE PUSH1 0x20 PUSH1 0x0 KECCAK256 SWAP1 JUMPDEST DUP2 SLOAD DUP2 MSTORE SWAP1 PUSH1 0x1 ADD SWAP1 PUSH1 0x20 ADD DUP1 DUP4 GT PUSH2 0x811 JUMPI DUP3 SWAP1 SUB PUSH1 0x1F AND DUP3 ADD SWAP2 JUMPDEST POP POP POP POP POP PUSH2 0x1793 JUMP JUMPDEST PUSH1 0x3 PUSH1 0x0 DUP2 SLOAD DUP1 SWAP3 SWAP2 SWAP1 PUSH2 0x84B SWAP1 PUSH2 0x295B JUMP JUMPDEST SWAP2 SWAP1 POP SSTORE POP PUSH1 0xC PUSH1 0x0 DUP7 PUSH20 0xFFFFFFFFFFFFFFFFFFFFFFFFFFFFFFFFFFFFFFFF AND PUSH20 0xFFFFFFFFFFFFFFFFFFFFFFFFFFFFFFFFFFFFFFFF AND DUP2 MSTORE PUSH1 0x20 ADD SWAP1 DUP2 MSTORE PUSH1 0x20 ADD PUSH1 0x0 KECCAK256 PUSH1 0x0 ADD DUP2 SWAP1 DUP1 PUSH1 0x1 DUP2 SLOAD ADD DUP1 DUP3 SSTORE DUP1 SWAP2 POP POP PUSH1 0x1 SWAP1 SUB SWAP1 PUSH1 0x0 MSTORE PUSH1 0x20 PUSH1 0x0 KECCAK256 ADD PUSH1 0x0 SWAP1 SWAP2 SWAP1 SWAP2 SWAP1 SWAP2 POP SSTORE DUP1 PUSH1 0x2 DUP1 DUP1 SLOAD PUSH2 0x8C8 SWAP1 PUSH2 0x28F8 JUMP JUMPDEST DUP1 PUSH1 0x1F ADD PUSH1 0x20 DUP1 SWAP2 DIV MUL PUSH1 0x20 ADD PUSH1 0x40 MLOAD SWAP1 DUP2 ADD PUSH1 0x40 MSTORE DUP1 SWAP3 SWAP2 SWAP1 DUP2 DUP2 MSTORE PUSH1 0x20 ADD DUP3 DUP1 SLOAD PUSH2 0x8F4 SWAP1 PUSH2 0x28F8 JUMP JUMPDEST DUP1 ISZERO PUSH2 0x941 JUMPI DUP1 PUSH1 0x1F LT PUSH2 0x916 JUMPI PUSH2 0x100 DUP1 DUP4 SLOAD DIV MUL DUP4 MSTORE SWAP2 PUSH1 0x20 ADD SWAP2 PUSH2 0x941 JUMP JUMPDEST DUP3 ADD SWAP2 SWAP1 PUSH1 0x0 MSTORE PUSH1 0x20 PUSH1 0x0 KECCAK256 SWAP1 JUMPDEST DUP2 SLOAD DUP2 MSTORE SWAP1 PUSH1 0x1 ADD SWAP1 PUSH1 0x20 ADD DUP1 DUP4 GT PUSH2 0x924 JUMPI DUP3 SWAP1 SUB PUSH1 0x1F AND DUP3 ADD SWAP2 JUMPDEST POP POP POP POP POP SWAP1 POP SWAP4 POP SWAP4 POP POP POP SWAP2 POP SWAP2 JUMP JUMPDEST PUSH1 0x60 PUSH1 0x0 ISZERO ISZERO PUSH1 0xE PUSH1 0x0 SWAP1 SLOAD SWAP1 PUSH2 0x100 EXP SWAP1 DIV PUSH1 0xFF AND ISZERO ISZERO EQ PUSH2 0x9AB JUMPI PUSH1 0x40 MLOAD PUSH32 0x8C379A000000000000000000000000000000000000000000000000000000000 DUP2 MSTORE PUSH1 0x4 ADD PUSH2 0x9A2 SWAP1 PUSH2 0x25B5 JUMP JUMPDEST PUSH1 0x40 MLOAD DUP1 SWAP2 SUB SWAP1 REVERT JUMPDEST PUSH1 0x0 PUSH1 0x5 SLOAD EQ ISZERO PUSH2 0x9F1 JUMPI PUSH1 0x40 MLOAD PUSH32 0x8C379A000000000000000000000000000000000000000000000000000000000 DUP2 MSTORE PUSH1 0x4 ADD PUSH2 0x9E8 SWAP1 PUSH2 0x2595 JUMP JUMPDEST PUSH1 0x40 MLOAD DUP1 SWAP2 SUB SWAP1 REVERT JUMPDEST PUSH1 0x4 DUP3 LT DUP1 ISZERO PUSH2 0xA01 JUMPI POP PUSH1 0x0 DUP3 GT JUMPDEST PUSH2 0xA40 JUMPI PUSH1 0x40 MLOAD PUSH32 0x8C379A000000000000000000000000000000000000000000000000000000000 DUP2 MSTORE PUSH1 0x4 ADD PUSH2 0xA37 SWAP1 PUSH2 0x2555 JUMP JUMPDEST PUSH1 0x40 MLOAD DUP1 SWAP2 SUB SWAP1 REVERT JUMPDEST PUSH2 0x3E8 PUSH1 0x3 SLOAD LT PUSH2 0xA86 JUMPI PUSH1 0x40 MLOAD PUSH32 0x8C379A000000000000000000000000000000000000000000000000000000000 DUP2 MSTORE PUSH1 0x4 ADD PUSH2 0xA7D SWAP1 PUSH2 0x25D5 JUMP JUMPDEST PUSH1 0x40 MLOAD DUP1 SWAP2 SUB SWAP1 REVERT JUMPDEST PUSH1 0x0 PUSH1 0x5 SLOAD EQ ISZERO PUSH2 0xACC JUMPI PUSH1 0x40 MLOAD PUSH32 0x8C379A000000000000000000000000000000000000000000000000000000000 DUP2 MSTORE PUSH1 0x4 ADD PUSH2 0xAC3 SWAP1 PUSH2 0x24D5 JUMP JUMPDEST PUSH1 0x40 MLOAD DUP1 SWAP2 SUB SWAP1 REVERT JUMPDEST DUP2 PUSH1 0x5 SLOAD PUSH2 0xADA SWAP2 SWAP1 PUSH2 0x27B1 JUMP JUMPDEST CALLVALUE EQ PUSH2 0xB1B JUMPI PUSH1 0x40 MLOAD PUSH32 0x8C379A000000000000000000000000000000000000000000000000000000000 DUP2 MSTORE PUSH1 0x4 ADD PUSH2 0xB12 SWAP1 PUSH2 0x24F5 JUMP JUMPDEST PUSH1 0x40 MLOAD DUP1 SWAP2 SUB SWAP1 REVERT JUMPDEST PUSH1 0x0 JUMPDEST DUP3 DUP2 LT ISZERO PUSH2 0xB42 JUMPI PUSH2 0xB2F DUP5 PUSH2 0x696 JUMP JUMPDEST POP POP DUP1 PUSH2 0xB3B SWAP1 PUSH2 0x295B JUMP JUMPDEST SWAP1 POP PUSH2 0xB1E JUMP JUMPDEST POP PUSH2 0xB54 PUSH2 0xB4E PUSH2 0x142F JUMP JUMPDEST CALLVALUE PUSH2 0x1929 JUMP JUMPDEST PUSH1 0xC PUSH1 0x0 DUP5 PUSH20 0xFFFFFFFFFFFFFFFFFFFFFFFFFFFFFFFFFFFFFFFF AND PUSH20 0xFFFFFFFFFFFFFFFFFFFFFFFFFFFFFFFFFFFFFFFF AND DUP2 MSTORE PUSH1 0x20 ADD SWAP1 DUP2 MSTORE PUSH1 0x20 ADD PUSH1 0x0 KECCAK256 PUSH1 0x0 ADD DUP1 SLOAD DUP1 PUSH1 0x20 MUL PUSH1 0x20 ADD PUSH1 0x40 MLOAD SWAP1 DUP2 ADD PUSH1 0x40 MSTORE DUP1 SWAP3 SWAP2 SWAP1 DUP2 DUP2 MSTORE PUSH1 0x20 ADD DUP3 DUP1 SLOAD DUP1 ISZERO PUSH2 0xBE0 JUMPI PUSH1 0x20 MUL DUP3 ADD SWAP2 SWAP1 PUSH1 0x0 MSTORE PUSH1 0x20 PUSH1 0x0 KECCAK256 SWAP1 JUMPDEST DUP2 SLOAD DUP2 MSTORE PUSH1 0x20 ADD SWAP1 PUSH1 0x1 ADD SWAP1 DUP1 DUP4 GT PUSH2 0xBCC JUMPI JUMPDEST POP POP POP POP POP SWAP1 POP SWAP3 SWAP2 POP POP JUMP JUMPDEST PUSH1 0x60 PUSH1 0xE PUSH1 0x1 SWAP1 SLOAD SWAP1 PUSH2 0x100 EXP SWAP1 DIV PUSH20 0xFFFFFFFFFFFFFFFFFFFFFFFFFFFFFFFFFFFFFFFF AND PUSH20 0xFFFFFFFFFFFFFFFFFFFFFFFFFFFFFFFFFFFFFFFF AND PUSH2 0xC30 PUSH2 0x142F JUMP JUMPDEST PUSH20 0xFFFFFFFFFFFFFFFFFFFFFFFFFFFFFFFFFFFFFFFF AND EQ PUSH2 0xC86 JUMPI PUSH1 0x40 MLOAD PUSH32 0x8C379A000000000000000000000000000000000000000000000000000000000 DUP2 MSTORE PUSH1 0x4 ADD PUSH2 0xC7D SWAP1 PUSH2 0x2575 JUMP JUMPDEST PUSH1 0x40 MLOAD DUP1 SWAP2 SUB SWAP1 REVERT JUMPDEST PUSH1 0x0 ISZERO ISZERO PUSH1 0xE PUSH1 0x0 SWAP1 SLOAD SWAP1 PUSH2 0x100 EXP SWAP1 DIV PUSH1 0xFF AND ISZERO ISZERO EQ PUSH2 0xCDC JUMPI PUSH1 0x40 MLOAD PUSH32 0x8C379A000000000000000000000000000000000000000000000000000000000 DUP2 MSTORE PUSH1 0x4 ADD PUSH2 0xCD3 SWAP1 PUSH2 0x25B5 JUMP JUMPDEST PUSH1 0x40 MLOAD DUP1 SWAP2 SUB SWAP1 REVERT JUMPDEST PUSH1 0x0 PUSH1 0x5 SLOAD EQ ISZERO PUSH2 0xD22 JUMPI PUSH1 0x40 MLOAD PUSH32 0x8C379A000000000000000000000000000000000000000000000000000000000 DUP2 MSTORE PUSH1 0x4 ADD PUSH2 0xD19 SWAP1 PUSH2 0x2595 JUMP JUMPDEST PUSH1 0x40 MLOAD DUP1 SWAP2 SUB SWAP1 REVERT JUMPDEST PUSH1 0x4 DUP3 LT DUP1 ISZERO PUSH2 0xD32 JUMPI POP PUSH1 0x0 DUP3 GT JUMPDEST PUSH2 0xD71 JUMPI PUSH1 0x40 MLOAD PUSH32 0x8C379A000000000000000000000000000000000000000000000000000000000 DUP2 MSTORE PUSH1 0x4 ADD PUSH2 0xD68 SWAP1 PUSH2 0x2555 JUMP JUMPDEST PUSH1 0x40 MLOAD DUP1 SWAP2 SUB SWAP1 REVERT JUMPDEST PUSH2 0x3E8 PUSH1 0x3 SLOAD LT PUSH2 0xDB7 JUMPI PUSH1 0x40 MLOAD PUSH32 0x8C379A000000000000000000000000000000000000000000000000000000000 DUP2 MSTORE PUSH1 0x4 ADD PUSH2 0xDAE SWAP1 PUSH2 0x25D5 JUMP JUMPDEST PUSH1 0x40 MLOAD DUP1 SWAP2 SUB SWAP1 REVERT JUMPDEST PUSH1 0x0 PUSH1 0x5 SLOAD EQ ISZERO PUSH2 0xDFD JUMPI PUSH1 0x40 MLOAD PUSH32 0x8C379A000000000000000000000000000000000000000000000000000000000 DUP2 MSTORE PUSH1 0x4 ADD PUSH2 0xDF4 SWAP1 PUSH2 0x24D5 JUMP JUMPDEST PUSH1 0x40 MLOAD DUP1 SWAP2 SUB SWAP1 REVERT JUMPDEST PUSH1 0x0 JUMPDEST DUP3 DUP2 LT ISZERO PUSH2 0xE26 JUMPI PUSH2 0xE11 DUP5 PUSH2 0x696 JUMP JUMPDEST POP POP DUP1 DUP1 PUSH2 0xE1E SWAP1 PUSH2 0x295B JUMP JUMPDEST SWAP2 POP POP PUSH2 0xE00 JUMP JUMPDEST POP PUSH1 0xC PUSH1 0x0 DUP5 PUSH20 0xFFFFFFFFFFFFFFFFFFFFFFFFFFFFFFFFFFFFFFFF AND PUSH20 0xFFFFFFFFFFFFFFFFFFFFFFFFFFFFFFFFFFFFFFFF AND DUP2 MSTORE PUSH1 0x20 ADD SWAP1 DUP2 MSTORE PUSH1 0x20 ADD PUSH1 0x0 KECCAK256 PUSH1 0x0 ADD DUP1 SLOAD DUP1 PUSH1 0x20 MUL PUSH1 0x20 ADD PUSH1 0x40 MLOAD SWAP1 DUP2 ADD PUSH1 0x40 MSTORE DUP1 SWAP3 SWAP2 SWAP1 DUP2 DUP2 MSTORE PUSH1 0x20 ADD DUP3 DUP1 SLOAD DUP1 ISZERO PUSH2 0xEB3 JUMPI PUSH1 0x20 MUL DUP3 ADD SWAP2 SWAP1 PUSH1 0x0 MSTORE PUSH1 0x20 PUSH1 0x0 KECCAK256 SWAP1 JUMPDEST DUP2 SLOAD DUP2 MSTORE PUSH1 0x20 ADD SWAP1 PUSH1 0x1 ADD SWAP1 DUP1 DUP4 GT PUSH2 0xE9F JUMPI JUMPDEST POP POP POP POP POP SWAP1 POP SWAP3 SWAP2 POP POP JUMP JUMPDEST PUSH1 0x0 DUP1 PUSH1 0x0 PUSH1 0xE PUSH1 0x1 SWAP1 SLOAD SWAP1 PUSH2 0x100 EXP SWAP1 DIV PUSH20 0xFFFFFFFFFFFFFFFFFFFFFFFFFFFFFFFFFFFFFFFF AND PUSH20 0xFFFFFFFFFFFFFFFFFFFFFFFFFFFFFFFFFFFFFFFF AND PUSH2 0xF06 PUSH2 0x142F JUMP JUMPDEST PUSH20 0xFFFFFFFFFFFFFFFFFFFFFFFFFFFFFFFFFFFFFFFF AND EQ PUSH2 0xF5C JUMPI PUSH1 0x40 MLOAD PUSH32 0x8C379A000000000000000000000000000000000000000000000000000000000 DUP2 MSTORE PUSH1 0x4 ADD PUSH2 0xF53 SWAP1 PUSH2 0x2575 JUMP JUMPDEST PUSH1 0x40 MLOAD DUP1 SWAP2 SUB SWAP1 REVERT JUMPDEST PUSH1 0x0 ISZERO ISZERO PUSH1 0xE PUSH1 0x0 SWAP1 SLOAD SWAP1 PUSH2 0x100 EXP SWAP1 DIV PUSH1 0xFF AND ISZERO ISZERO EQ PUSH2 0xFB2 JUMPI PUSH1 0x40 MLOAD PUSH32 0x8C379A000000000000000000000000000000000000000000000000000000000 DUP2 MSTORE PUSH1 0x4 ADD PUSH2 0xFA9 SWAP1 PUSH2 0x25B5 JUMP JUMPDEST PUSH1 0x40 MLOAD DUP1 SWAP2 SUB SWAP1 REVERT JUMPDEST PUSH1 0x6 SLOAD PUSH1 0x7 SLOAD PUSH1 0x8 SLOAD SWAP3 POP SWAP3 POP SWAP3 POP SWAP1 SWAP2 SWAP3 JUMP JUMPDEST PUSH1 0x0 DUP1 ISZERO ISZERO PUSH1 0xE PUSH1 0x0 SWAP1 SLOAD SWAP1 PUSH2 0x100 EXP SWAP1 DIV PUSH1 0xFF AND ISZERO ISZERO EQ PUSH2 0x101D JUMPI PUSH1 0x40 MLOAD PUSH32 0x8C379A000000000000000000000000000000000000000000000000000000000 DUP2 MSTORE PUSH1 0x4 ADD PUSH2 0x1014 SWAP1 PUSH2 0x25B5 JUMP JUMPDEST PUSH1 0x40 MLOAD DUP1 SWAP2 SUB SWAP1 REVERT JUMPDEST PUSH1 0x5 SLOAD SWAP1 POP SWAP1 JUMP JUMPDEST PUSH1 0x0 PUSH1 0xE PUSH1 0x1 SWAP1 SLOAD SWAP1 PUSH2 0x100 EXP SWAP1 DIV PUSH20 0xFFFFFFFFFFFFFFFFFFFFFFFFFFFFFFFFFFFFFFFF AND PUSH20 0xFFFFFFFFFFFFFFFFFFFFFFFFFFFFFFFFFFFFFFFF AND PUSH2 0x1068 PUSH2 0x142F JUMP JUMPDEST PUSH20 0xFFFFFFFFFFFFFFFFFFFFFFFFFFFFFFFFFFFFFFFF AND EQ PUSH2 0x10BE JUMPI PUSH1 0x40 MLOAD PUSH32 0x8C379A000000000000000000000000000000000000000000000000000000000 DUP2 MSTORE PUSH1 0x4 ADD PUSH2 0x10B5 SWAP1 PUSH2 0x2575 JUMP JUMPDEST PUSH1 0x40 MLOAD DUP1 SWAP2 SUB SWAP1 REVERT JUMPDEST SELFBALANCE SWAP1 POP SWAP1 JUMP JUMPDEST PUSH1 0xE PUSH1 0x1 SWAP1 SLOAD SWAP1 PUSH2 0x100 EXP SWAP1 DIV PUSH20 0xFFFFFFFFFFFFFFFFFFFFFFFFFFFFFFFFFFFFFFFF AND PUSH20 0xFFFFFFFFFFFFFFFFFFFFFFFFFFFFFFFFFFFFFFFF AND PUSH2 0x1105 PUSH2 0x142F JUMP JUMPDEST PUSH20 0xFFFFFFFFFFFFFFFFFFFFFFFFFFFFFFFFFFFFFFFF AND EQ PUSH2 0x115B JUMPI PUSH1 0x40 MLOAD PUSH32 0x8C379A000000000000000000000000000000000000000000000000000000000 DUP2 MSTORE PUSH1 0x4 ADD PUSH2 0x1152 SWAP1 PUSH2 0x2575 JUMP JUMPDEST PUSH1 0x40 MLOAD DUP1 SWAP2 SUB SWAP1 REVERT JUMPDEST PUSH1 0x0 ISZERO ISZERO PUSH1 0xE PUSH1 0x0 SWAP1 SLOAD SWAP1 PUSH2 0x100 EXP SWAP1 DIV PUSH1 0xFF AND ISZERO ISZERO EQ PUSH2 0x11B1 JUMPI PUSH1 0x40 MLOAD PUSH32 0x8C379A000000000000000000000000000000000000000000000000000000000 DUP2 MSTORE PUSH1 0x4 ADD PUSH2 0x11A8 SWAP1 PUSH2 0x25B5 JUMP JUMPDEST PUSH1 0x40 MLOAD DUP1 SWAP2 SUB SWAP1 REVERT JUMPDEST DUP1 PUSH1 0xE PUSH1 0x1 PUSH2 0x100 EXP DUP2 SLOAD DUP2 PUSH20 0xFFFFFFFFFFFFFFFFFFFFFFFFFFFFFFFFFFFFFFFF MUL NOT AND SWAP1 DUP4 PUSH20 0xFFFFFFFFFFFFFFFFFFFFFFFFFFFFFFFFFFFFFFFF AND MUL OR SWAP1 SSTORE POP POP JUMP JUMPDEST PUSH1 0xE PUSH1 0x1 SWAP1 SLOAD SWAP1 PUSH2 0x100 EXP SWAP1 DIV PUSH20 0xFFFFFFFFFFFFFFFFFFFFFFFFFFFFFFFFFFFFFFFF AND PUSH20 0xFFFFFFFFFFFFFFFFFFFFFFFFFFFFFFFFFFFFFFFF AND PUSH2 0x1236 PUSH2 0x142F JUMP JUMPDEST PUSH20 0xFFFFFFFFFFFFFFFFFFFFFFFFFFFFFFFFFFFFFFFF AND EQ PUSH2 0x128C JUMPI PUSH1 0x40 MLOAD PUSH32 0x8C379A000000000000000000000000000000000000000000000000000000000 DUP2 MSTORE PUSH1 0x4 ADD PUSH2 0x1283 SWAP1 PUSH2 0x2575 JUMP JUMPDEST PUSH1 0x40 MLOAD DUP1 SWAP2 SUB SWAP1 REVERT JUMPDEST PUSH1 0x0 ISZERO ISZERO PUSH1 0xE PUSH1 0x0 SWAP1 SLOAD SWAP1 PUSH2 0x100 EXP SWAP1 DIV PUSH1 0xFF AND ISZERO ISZERO EQ PUSH2 0x12E2 JUMPI PUSH1 0x40 MLOAD PUSH32 0x8C379A000000000000000000000000000000000000000000000000000000000 DUP2 MSTORE PUSH1 0x4 ADD PUSH2 0x12D9 SWAP1 PUSH2 0x2535 JUMP JUMPDEST PUSH1 0x40 MLOAD DUP1 SWAP2 SUB SWAP1 REVERT JUMPDEST PUSH1 0x1 PUSH1 0xE PUSH1 0x0 PUSH2 0x100 EXP DUP2 SLOAD DUP2 PUSH1 0xFF MUL NOT AND SWAP1 DUP4 ISZERO ISZERO MUL OR SWAP1 SSTORE POP JUMP JUMPDEST PUSH1 0xE PUSH1 0x0 SWAP1 SLOAD SWAP1 PUSH2 0x100 EXP SWAP1 DIV PUSH1 0xFF AND DUP2 JUMP JUMPDEST PUSH1 0xE PUSH1 0x1 SWAP1 SLOAD SWAP1 PUSH2 0x100 EXP SWAP1 DIV PUSH20 0xFFFFFFFFFFFFFFFFFFFFFFFFFFFFFFFFFFFFFFFF AND DUP2 JUMP JUMPDEST PUSH1 0xE PUSH1 0x1 SWAP1 SLOAD SWAP1 PUSH2 0x100 EXP SWAP1 DIV PUSH20 0xFFFFFFFFFFFFFFFFFFFFFFFFFFFFFFFFFFFFFFFF AND PUSH20 0xFFFFFFFFFFFFFFFFFFFFFFFFFFFFFFFFFFFFFFFF AND PUSH2 0x1379 PUSH2 0x142F JUMP JUMPDEST PUSH20 0xFFFFFFFFFFFFFFFFFFFFFFFFFFFFFFFFFFFFFFFF AND EQ PUSH2 0x13CF JUMPI PUSH1 0x40 MLOAD PUSH32 0x8C379A000000000000000000000000000000000000000000000000000000000 DUP2 MSTORE PUSH1 0x4 ADD PUSH2 0x13C6 SWAP1 PUSH2 0x2575 JUMP JUMPDEST PUSH1 0x40 MLOAD DUP1 SWAP2 SUB SWAP1 REVERT JUMPDEST PUSH1 0x0 ISZERO ISZERO PUSH1 0xE PUSH1 0x0 SWAP1 SLOAD SWAP1 PUSH2 0x100 EXP SWAP1 DIV PUSH1 0xFF AND ISZERO ISZERO EQ PUSH2 0x1425 JUMPI PUSH1 0x40 MLOAD PUSH32 0x8C379A000000000000000000000000000000000000000000000000000000000 DUP2 MSTORE PUSH1 0x4 ADD PUSH2 0x141C SWAP1 PUSH2 0x25B5 JUMP JUMPDEST PUSH1 0x40 MLOAD DUP1 SWAP2 SUB SWAP1 REVERT JUMPDEST DUP1 PUSH1 0x5 DUP2 SWAP1 SSTORE POP POP JUMP JUMPDEST PUSH1 0x0 CALLER SWAP1 POP SWAP1 JUMP JUMPDEST PUSH1 0x0 DUP1 PUSH1 0x6 SLOAD PUSH1 0x7 SLOAD PUSH1 0x8 SLOAD PUSH1 0x3 SLOAD TIMESTAMP PUSH2 0x1451 SWAP2 SWAP1 PUSH2 0x272A JUMP JUMPDEST PUSH2 0x145B SWAP2 SWAP1 PUSH2 0x272A JUMP JUMPDEST PUSH2 0x1465 SWAP2 SWAP1 PUSH2 0x272A JUMP JUMPDEST PUSH2 0x146F SWAP2 SWAP1 PUSH2 0x272A JUMP JUMPDEST CALLER PUSH1 0xE PUSH1 0x1 SWAP1 SLOAD SWAP1 PUSH2 0x100 EXP SWAP1 DIV PUSH20 0xFFFFFFFFFFFFFFFFFFFFFFFFFFFFFFFFFFFFFFFF AND PUSH1 0x40 MLOAD PUSH1 0x20 ADD PUSH2 0x14A5 SWAP4 SWAP3 SWAP2 SWAP1 PUSH2 0x2364 JUMP JUMPDEST PUSH1 0x40 MLOAD PUSH1 0x20 DUP2 DUP4 SUB SUB DUP2 MSTORE SWAP1 PUSH1 0x40 MSTORE DUP1 MLOAD SWAP1 PUSH1 0x20 ADD KECCAK256 PUSH1 0x0 SHR SWAP1 POP DUP1 SWAP2 POP POP SWAP1 JUMP JUMPDEST PUSH1 0x0 DUP1 ISZERO ISZERO PUSH1 0xE PUSH1 0x0 SWAP1 SLOAD SWAP1 PUSH2 0x100 EXP SWAP1 DIV PUSH1 0xFF AND ISZERO ISZERO EQ PUSH2 0x151E JUMPI PUSH1 0x40 MLOAD PUSH32 0x8C379A000000000000000000000000000000000000000000000000000000000 DUP2 MSTORE PUSH1 0x4 ADD PUSH2 0x1515 SWAP1 PUSH2 0x25B5 JUMP JUMPDEST PUSH1 0x40 MLOAD DUP1 SWAP2 SUB SWAP1 REVERT JUMPDEST PUSH1 0x0 PUSH1 0x1 PUSH1 0x14 DUP5 PUSH2 0x152F SWAP2 SWAP1 PUSH2 0x29E4 JUMP JUMPDEST EQ DUP1 ISZERO PUSH2 0x153F JUMPI POP PUSH1 0x9 SLOAD PUSH1 0x6 SLOAD LT JUMPDEST ISZERO PUSH2 0x15A9 JUMPI PUSH1 0x6 PUSH1 0x0 DUP2 SLOAD DUP1 SWAP3 SWAP2 SWAP1 PUSH2 0x1557 SWAP1 PUSH2 0x295B JUMP JUMPDEST SWAP2 SWAP1 POP SSTORE POP PUSH2 0x1567 PUSH1 0x6 SLOAD PUSH2 0x1983 JUMP JUMPDEST PUSH1 0x40 MLOAD PUSH1 0x20 ADD PUSH2 0x1577 SWAP2 SWAP1 PUSH2 0x22FE JUMP JUMPDEST PUSH1 0x40 MLOAD PUSH1 0x20 DUP2 DUP4 SUB SUB DUP2 MSTORE SWAP1 PUSH1 0x40 MSTORE PUSH1 0x2 SWAP1 DUP1 MLOAD SWAP1 PUSH1 0x20 ADD SWAP1 PUSH2 0x159B SWAP3 SWAP2 SWAP1 PUSH2 0x1D60 JUMP JUMPDEST POP PUSH1 0x0 SWAP1 POP DUP1 SWAP2 POP POP PUSH2 0x178E JUMP JUMPDEST PUSH1 0x3 PUSH1 0x14 DUP5 PUSH2 0x15B8 SWAP2 SWAP1 PUSH2 0x29E4 JUMP JUMPDEST GT ISZERO DUP1 ISZERO PUSH2 0x15C9 JUMPI POP PUSH1 0xA SLOAD PUSH1 0x7 SLOAD LT JUMPDEST ISZERO PUSH2 0x1633 JUMPI PUSH1 0x7 PUSH1 0x0 DUP2 SLOAD DUP1 SWAP3 SWAP2 SWAP1 PUSH2 0x15E1 SWAP1 PUSH2 0x295B JUMP JUMPDEST SWAP2 SWAP1 POP SSTORE POP PUSH2 0x15F1 PUSH1 0x7 SLOAD PUSH2 0x1983 JUMP JUMPDEST PUSH1 0x40 MLOAD PUSH1 0x20 ADD PUSH2 0x1601 SWAP2 SWAP1 PUSH2 0x2320 JUMP JUMPDEST PUSH1 0x40 MLOAD PUSH1 0x20 DUP2 DUP4 SUB SUB DUP2 MSTORE SWAP1 PUSH1 0x40 MSTORE PUSH1 0x2 SWAP1 DUP1 MLOAD SWAP1 PUSH1 0x20 ADD SWAP1 PUSH2 0x1625 SWAP3 SWAP2 SWAP1 PUSH2 0x1D60 JUMP JUMPDEST POP PUSH1 0x1 SWAP1 POP DUP1 SWAP2 POP POP PUSH2 0x178E JUMP JUMPDEST PUSH1 0x3 PUSH1 0x14 DUP5 PUSH2 0x1642 SWAP2 SWAP1 PUSH2 0x29E4 JUMP JUMPDEST GT DUP1 ISZERO PUSH2 0x1652 JUMPI POP PUSH1 0xB SLOAD PUSH1 0x8 SLOAD LT JUMPDEST ISZERO PUSH2 0x16BC JUMPI PUSH1 0x8 PUSH1 0x0 DUP2 SLOAD DUP1 SWAP3 SWAP2 SWAP1 PUSH2 0x166A SWAP1 PUSH2 0x295B JUMP JUMPDEST SWAP2 SWAP1 POP SSTORE POP PUSH2 0x167A PUSH1 0x8 SLOAD PUSH2 0x1983 JUMP JUMPDEST PUSH1 0x40 MLOAD PUSH1 0x20 ADD PUSH2 0x168A SWAP2 SWAP1 PUSH2 0x2342 JUMP JUMPDEST PUSH1 0x40 MLOAD PUSH1 0x20 DUP2 DUP4 SUB SUB DUP2 MSTORE SWAP1 PUSH1 0x40 MSTORE PUSH1 0x2 SWAP1 DUP1 MLOAD SWAP1 PUSH1 0x20 ADD SWAP1 PUSH2 0x16AE SWAP3 SWAP2 SWAP1 PUSH2 0x1D60 JUMP JUMPDEST POP PUSH1 0x2 SWAP1 POP DUP1 SWAP2 POP POP PUSH2 0x178E JUMP JUMPDEST PUSH1 0xA SLOAD PUSH1 0x7 SLOAD LT ISZERO PUSH2 0x172D JUMPI PUSH1 0x1 SWAP1 POP PUSH1 0x7 PUSH1 0x0 DUP2 SLOAD DUP1 SWAP3 SWAP2 SWAP1 PUSH2 0x16DF SWAP1 PUSH2 0x295B JUMP JUMPDEST SWAP2 SWAP1 POP SSTORE POP PUSH2 0x16EF PUSH1 0x7 SLOAD PUSH2 0x1983 JUMP JUMPDEST PUSH1 0x40 MLOAD PUSH1 0x20 ADD PUSH2 0x16FF SWAP2 SWAP1 PUSH2 0x2320 JUMP JUMPDEST PUSH1 0x40 MLOAD PUSH1 0x20 DUP2 DUP4 SUB SUB DUP2 MSTORE SWAP1 PUSH1 0x40 MSTORE PUSH1 0x2 SWAP1 DUP1 MLOAD SWAP1 PUSH1 0x20 ADD SWAP1 PUSH2 0x1723 SWAP3 SWAP2 SWAP1 PUSH2 0x1D60 JUMP JUMPDEST POP DUP1 SWAP2 POP POP PUSH2 0x178E JUMP JUMPDEST PUSH1 0x0 SWAP1 POP PUSH1 0x6 PUSH1 0x0 DUP2 SLOAD DUP1 SWAP3 SWAP2 SWAP1 PUSH2 0x1744 SWAP1 PUSH2 0x295B JUMP JUMPDEST SWAP2 SWAP1 POP SSTORE POP PUSH2 0x1754 PUSH1 0x6 SLOAD PUSH2 0x1983 JUMP JUMPDEST PUSH1 0x40 MLOAD PUSH1 0x20 ADD PUSH2 0x1764 SWAP2 SWAP1 PUSH2 0x22FE JUMP JUMPDEST PUSH1 0x40 MLOAD PUSH1 0x20 DUP2 DUP4 SUB SUB DUP2 MSTORE SWAP1 PUSH1 0x40 MSTORE PUSH1 0x2 SWAP1 DUP1 MLOAD SWAP1 PUSH1 0x20 ADD SWAP1 PUSH2 0x1788 SWAP3 SWAP2 SWAP1 PUSH2 0x1D60 JUMP JUMPDEST POP DUP1 SWAP2 POP POP JUMPDEST SWAP2 SWAP1 POP JUMP JUMPDEST PUSH1 0x0 PUSH20 0xFFFFFFFFFFFFFFFFFFFFFFFFFFFFFFFFFFFFFFFF AND DUP5 PUSH20 0xFFFFFFFFFFFFFFFFFFFFFFFFFFFFFFFFFFFFFFFF AND EQ ISZERO PUSH2 0x1803 JUMPI PUSH1 0x40 MLOAD PUSH32 0x8C379A000000000000000000000000000000000000000000000000000000000 DUP2 MSTORE PUSH1 0x4 ADD PUSH2 0x17FA SWAP1 PUSH2 0x25F5 JUMP JUMPDEST PUSH1 0x40 MLOAD DUP1 SWAP2 SUB SWAP1 REVERT JUMPDEST PUSH1 0x0 PUSH2 0x180D PUSH2 0x142F JUMP JUMPDEST SWAP1 POP PUSH2 0x182E DUP2 PUSH1 0x0 DUP8 PUSH2 0x181F DUP9 PUSH2 0x1AE4 JUMP JUMPDEST PUSH2 0x1828 DUP9 PUSH2 0x1AE4 JUMP JUMPDEST DUP8 PUSH2 0x1B5E JUMP JUMPDEST DUP3 PUSH1 0x0 DUP1 DUP7 DUP2 MSTORE PUSH1 0x20 ADD SWAP1 DUP2 MSTORE PUSH1 0x20 ADD PUSH1 0x0 KECCAK256 PUSH1 0x0 DUP8 PUSH20 0xFFFFFFFFFFFFFFFFFFFFFFFFFFFFFFFFFFFFFFFF AND PUSH20 0xFFFFFFFFFFFFFFFFFFFFFFFFFFFFFFFFFFFFFFFF AND DUP2 MSTORE PUSH1 0x20 ADD SWAP1 DUP2 MSTORE PUSH1 0x20 ADD PUSH1 0x0 KECCAK256 PUSH1 0x0 DUP3 DUP3 SLOAD PUSH2 0x188D SWAP2 SWAP1 PUSH2 0x272A JUMP JUMPDEST SWAP3 POP POP DUP2 SWAP1 SSTORE POP DUP5 PUSH20 0xFFFFFFFFFFFFFFFFFFFFFFFFFFFFFFFFFFFFFFFF AND PUSH1 0x0 PUSH20 0xFFFFFFFFFFFFFFFFFFFFFFFFFFFFFFFFFFFFFFFF AND DUP3 PUSH20 0xFFFFFFFFFFFFFFFFFFFFFFFFFFFFFFFFFFFFFFFF AND PUSH32 0xC3D58168C5AE7397731D063D5BBF3D657854427343F4C083240F7AACAA2D0F62 DUP8 DUP8 PUSH1 0x40 MLOAD PUSH2 0x190B SWAP3 SWAP2 SWAP1 PUSH2 0x2660 JUMP JUMPDEST PUSH1 0x40 MLOAD DUP1 SWAP2 SUB SWAP1 LOG4 PUSH2 0x1922 DUP2 PUSH1 0x0 DUP8 DUP8 DUP8 DUP8 PUSH2 0x1B66 JUMP JUMPDEST POP POP POP POP POP JUMP JUMPDEST DUP1 PUSH1 0xD PUSH1 0x0 DUP5 PUSH20 0xFFFFFFFFFFFFFFFFFFFFFFFFFFFFFFFFFFFFFFFF AND PUSH20 0xFFFFFFFFFFFFFFFFFFFFFFFFFFFFFFFFFFFFFFFF AND DUP2 MSTORE PUSH1 0x20 ADD SWAP1 DUP2 MSTORE PUSH1 0x20 ADD PUSH1 0x0 KECCAK256 PUSH1 0x0 DUP3 DUP3 SLOAD PUSH2 0x1978 SWAP2 SWAP1 PUSH2 0x272A JUMP JUMPDEST SWAP3 POP POP DUP2 SWAP1 SSTORE POP POP POP JUMP JUMPDEST PUSH1 0x60 PUSH1 0x0 DUP3 EQ ISZERO PUSH2 0x19CB JUMPI PUSH1 0x40 MLOAD DUP1 PUSH1 0x40 ADD PUSH1 0x40 MSTORE DUP1 PUSH1 0x1 DUP2 MSTORE PUSH1 0x20 ADD PUSH32 0x3000000000000000000000000000000000000000000000000000000000000000 DUP2 MSTORE POP SWAP1 POP PUSH2 0x1ADF JUMP JUMPDEST PUSH1 0x0 DUP3 SWAP1 POP PUSH1 0x0 JUMPDEST PUSH1 0x0 DUP3 EQ PUSH2 0x19FD JUMPI DUP1 DUP1 PUSH2 0x19E6 SWAP1 PUSH2 0x295B JUMP JUMPDEST SWAP2 POP POP PUSH1 0xA DUP3 PUSH2 0x19F6 SWAP2 SWAP1 PUSH2 0x2780 JUMP JUMPDEST SWAP2 POP PUSH2 0x19D3 JUMP JUMPDEST PUSH1 0x0 DUP2 PUSH8 0xFFFFFFFFFFFFFFFF DUP2 GT ISZERO PUSH2 0x1A19 JUMPI PUSH2 0x1A18 PUSH2 0x2AD1 JUMP JUMPDEST JUMPDEST PUSH1 0x40 MLOAD SWAP1 DUP1 DUP3 MSTORE DUP1 PUSH1 0x1F ADD PUSH1 0x1F NOT AND PUSH1 0x20 ADD DUP3 ADD PUSH1 0x40 MSTORE DUP1 ISZERO PUSH2 0x1A4B JUMPI DUP2 PUSH1 0x20 ADD PUSH1 0x1 DUP3 MUL DUP1 CALLDATASIZE DUP4 CALLDATACOPY DUP1 DUP3 ADD SWAP2 POP POP SWAP1 POP JUMPDEST POP SWAP1 POP JUMPDEST PUSH1 0x0 DUP6 EQ PUSH2 0x1AD8 JUMPI PUSH1 0x1 DUP3 PUSH2 0x1A64 SWAP2 SWAP1 PUSH2 0x280B JUMP JUMPDEST SWAP2 POP PUSH1 0xA DUP6 PUSH2 0x1A73 SWAP2 SWAP1 PUSH2 0x29E4 JUMP JUMPDEST PUSH1 0x30 PUSH2 0x1A7F SWAP2 SWAP1 PUSH2 0x272A JUMP JUMPDEST PUSH1 0xF8 SHL DUP2 DUP4 DUP2 MLOAD DUP2 LT PUSH2 0x1A95 JUMPI PUSH2 0x1A94 PUSH2 0x2AA2 JUMP JUMPDEST JUMPDEST PUSH1 0x20 ADD ADD SWAP1 PUSH31 0xFFFFFFFFFFFFFFFFFFFFFFFFFFFFFFFFFFFFFFFFFFFFFFFFFFFFFFFFFFFFFF NOT AND SWAP1 DUP2 PUSH1 0x0 BYTE SWAP1 MSTORE8 POP PUSH1 0xA DUP6 PUSH2 0x1AD1 SWAP2 SWAP1 PUSH2 0x2780 JUMP JUMPDEST SWAP5 POP PUSH2 0x1A4F JUMP JUMPDEST DUP1 SWAP4 POP POP POP POP JUMPDEST SWAP2 SWAP1 POP JUMP JUMPDEST PUSH1 0x60 PUSH1 0x0 PUSH1 0x1 PUSH8 0xFFFFFFFFFFFFFFFF DUP2 GT ISZERO PUSH2 0x1B03 JUMPI PUSH2 0x1B02 PUSH2 0x2AD1 JUMP JUMPDEST JUMPDEST PUSH1 0x40 MLOAD SWAP1 DUP1 DUP3 MSTORE DUP1 PUSH1 0x20 MUL PUSH1 0x20 ADD DUP3 ADD PUSH1 0x40 MSTORE DUP1 ISZERO PUSH2 0x1B31 JUMPI DUP2 PUSH1 0x20 ADD PUSH1 0x20 DUP3 MUL DUP1 CALLDATASIZE DUP4 CALLDATACOPY DUP1 DUP3 ADD SWAP2 POP POP SWAP1 POP JUMPDEST POP SWAP1 POP DUP3 DUP2 PUSH1 0x0 DUP2 MLOAD DUP2 LT PUSH2 0x1B49 JUMPI PUSH2 0x1B48 PUSH2 0x2AA2 JUMP JUMPDEST JUMPDEST PUSH1 0x20 MUL PUSH1 0x20 ADD ADD DUP2 DUP2 MSTORE POP POP DUP1 SWAP2 POP POP SWAP2 SWAP1 POP JUMP JUMPDEST POP POP POP POP POP POP JUMP JUMPDEST PUSH2 0x1B85 DUP5 PUSH20 0xFFFFFFFFFFFFFFFFFFFFFFFFFFFFFFFFFFFFFFFF AND PUSH2 0x1D4D JUMP JUMPDEST ISZERO PUSH2 0x1D45 JUMPI DUP4 PUSH20 0xFFFFFFFFFFFFFFFFFFFFFFFFFFFFFFFFFFFFFFFF AND PUSH4 0xAE89A248 DUP8 DUP8 DUP7 DUP7 DUP7 PUSH1 0x40 MLOAD DUP7 PUSH4 0xFFFFFFFF AND PUSH1 0xE0 SHL DUP2 MSTORE PUSH1 0x4 ADD PUSH2 0x1BCB SWAP6 SWAP5 SWAP4 SWAP3 SWAP2 SWAP1 PUSH2 0x23BC JUMP JUMPDEST PUSH1 0x20 PUSH1 0x40 MLOAD DUP1 DUP4 SUB DUP2 PUSH1 0x0 DUP8 DUP1 EXTCODESIZE ISZERO DUP1 ISZERO PUSH2 0x1BE5 JUMPI PUSH1 0x0 DUP1 REVERT JUMPDEST POP GAS CALL SWAP3 POP POP POP DUP1 ISZERO PUSH2 0x1C16 JUMPI POP PUSH1 0x40 MLOAD RETURNDATASIZE PUSH1 0x1F NOT PUSH1 0x1F DUP3 ADD AND DUP3 ADD DUP1 PUSH1 0x40 MSTORE POP DUP2 ADD SWAP1 PUSH2 0x1C13 SWAP2 SWAP1 PUSH2 0x1F04 JUMP JUMPDEST PUSH1 0x1 JUMPDEST PUSH2 0x1CBC JUMPI PUSH2 0x1C22 PUSH2 0x2B00 JUMP JUMPDEST DUP1 PUSH4 0x8C379A0 EQ ISZERO PUSH2 0x1C7F JUMPI POP PUSH2 0x1C37 PUSH2 0x2E54 JUMP JUMPDEST DUP1 PUSH2 0x1C42 JUMPI POP PUSH2 0x1C81 JUMP JUMPDEST DUP1 PUSH1 0x40 MLOAD PUSH32 0x8C379A000000000000000000000000000000000000000000000000000000000 DUP2 MSTORE PUSH1 0x4 ADD PUSH2 0x1C76 SWAP2 SWAP1 PUSH2 0x2453 JUMP JUMPDEST PUSH1 0x40 MLOAD DUP1 SWAP2 SUB SWAP1 REVERT JUMPDEST POP JUMPDEST PUSH1 0x40 MLOAD PUSH32 0x8C379A000000000000000000000000000000000000000000000000000000000 DUP2 MSTORE PUSH1 0x4 ADD PUSH2 0x1CB3 SWAP1 PUSH2 0x2475 JUMP JUMPDEST PUSH1 0x40 MLOAD DUP1 SWAP2 SUB SWAP1 REVERT JUMPDEST PUSH4 0xAE89A248 PUSH1 0xE0 SHL PUSH28 0xFFFFFFFFFFFFFFFFFFFFFFFFFFFFFFFFFFFFFFFFFFFFFFFFFFFFFFFF NOT AND DUP2 PUSH28 0xFFFFFFFFFFFFFFFFFFFFFFFFFFFFFFFFFFFFFFFFFFFFFFFFFFFFFFFF NOT AND EQ PUSH2 0x1D43 JUMPI PUSH1 0x40 MLOAD PUSH32 0x8C379A000000000000000000000000000000000000000000000000000000000 DUP2 MSTORE PUSH1 0x4 ADD PUSH2 0x1D3A SWAP1 PUSH2 0x2495 JUMP JUMPDEST PUSH1 0x40 MLOAD DUP1 SWAP2 SUB SWAP1 REVERT JUMPDEST POP JUMPDEST POP POP POP POP POP POP JUMP JUMPDEST PUSH1 0x0 DUP1 DUP3 EXTCODESIZE SWAP1 POP PUSH1 0x0 DUP2 GT SWAP2 POP POP SWAP2 SWAP1 POP JUMP JUMPDEST DUP3 DUP1 SLOAD PUSH2 0x1D6C SWAP1 PUSH2 0x28F8 JUMP JUMPDEST SWAP1 PUSH1 0x0 MSTORE PUSH1 0x20 PUSH1 0x0 KECCAK256 SWAP1 PUSH1 0x1F ADD PUSH1 0x20 SWAP1 DIV DUP2 ADD SWAP3 DUP3 PUSH2 0x1D8E JUMPI PUSH1 0x0 DUP6 SSTORE PUSH2 0x1DD5 JUMP JUMPDEST DUP3 PUSH1 0x1F LT PUSH2 0x1DA7 JUMPI DUP1 MLOAD PUSH1 0xFF NOT AND DUP4 DUP1 ADD OR DUP6 SSTORE PUSH2 0x1DD5 JUMP JUMPDEST DUP3 DUP1 ADD PUSH1 0x1 ADD DUP6 SSTORE DUP3 ISZERO PUSH2 0x1DD5 JUMPI SWAP2 DUP3 ADD JUMPDEST DUP3 DUP2 GT ISZERO PUSH2 0x1DD4 JUMPI DUP3 MLOAD DUP3 SSTORE SWAP2 PUSH1 0x20 ADD SWAP2 SWAP1 PUSH1 0x1 ADD SWAP1 PUSH2 0x1DB9 JUMP JUMPDEST JUMPDEST POP SWAP1 POP PUSH2 0x1DE2 SWAP2 SWAP1 PUSH2 0x1DE6 JUMP JUMPDEST POP SWAP1 JUMP JUMPDEST JUMPDEST DUP1 DUP3 GT ISZERO PUSH2 0x1DFF JUMPI PUSH1 0x0 DUP2 PUSH1 0x0 SWAP1 SSTORE POP PUSH1 0x1 ADD PUSH2 0x1DE7 JUMP JUMPDEST POP SWAP1 JUMP JUMPDEST PUSH1 0x0 DUP2 CALLDATALOAD SWAP1 POP PUSH2 0x1E12 DUP2 PUSH2 0x2EEA JUMP JUMPDEST SWAP3 SWAP2 POP POP JUMP JUMPDEST PUSH1 0x0 DUP2 CALLDATALOAD SWAP1 POP PUSH2 0x1E27 DUP2 PUSH2 0x2F01 JUMP JUMPDEST SWAP3 SWAP2 POP POP JUMP JUMPDEST PUSH1 0x0 DUP2 MLOAD SWAP1 POP PUSH2 0x1E3C DUP2 PUSH2 0x2F18 JUMP JUMPDEST SWAP3 SWAP2 POP POP JUMP JUMPDEST PUSH1 0x0 DUP2 CALLDATALOAD SWAP1 POP PUSH2 0x1E51 DUP2 PUSH2 0x2F2F JUMP JUMPDEST SWAP3 SWAP2 POP POP JUMP JUMPDEST PUSH1 0x0 PUSH1 0x20 DUP3 DUP5 SUB SLT ISZERO PUSH2 0x1E6D JUMPI PUSH2 0x1E6C PUSH2 0x2B22 JUMP JUMPDEST JUMPDEST PUSH1 0x0 PUSH2 0x1E7B DUP5 DUP3 DUP6 ADD PUSH2 0x1E03 JUMP JUMPDEST SWAP2 POP POP SWAP3 SWAP2 POP POP JUMP JUMPDEST PUSH1 0x0 DUP1 PUSH1 0x40 DUP4 DUP6 SUB SLT ISZERO PUSH2 0x1E9B JUMPI PUSH2 0x1E9A PUSH2 0x2B22 JUMP JUMPDEST JUMPDEST PUSH1 0x0 PUSH2 0x1EA9 DUP6 DUP3 DUP7 ADD PUSH2 0x1E18 JUMP JUMPDEST SWAP3 POP POP PUSH1 0x20 PUSH2 0x1EBA DUP6 DUP3 DUP7 ADD PUSH2 0x1E42 JUMP JUMPDEST SWAP2 POP POP SWAP3 POP SWAP3 SWAP1 POP JUMP JUMPDEST PUSH1 0x0 DUP1 PUSH1 0x40 DUP4 DUP6 SUB SLT ISZERO PUSH2 0x1EDB JUMPI PUSH2 0x1EDA PUSH2 0x2B22 JUMP JUMPDEST JUMPDEST PUSH1 0x0 PUSH2 0x1EE9 DUP6 DUP3 DUP7 ADD PUSH2 0x1E03 JUMP JUMPDEST SWAP3 POP POP PUSH1 0x20 PUSH2 0x1EFA DUP6 DUP3 DUP7 ADD PUSH2 0x1E42 JUMP JUMPDEST SWAP2 POP POP SWAP3 POP SWAP3 SWAP1 POP JUMP JUMPDEST PUSH1 0x0 PUSH1 0x20 DUP3 DUP5 SUB SLT ISZERO PUSH2 0x1F1A JUMPI PUSH2 0x1F19 PUSH2 0x2B22 JUMP JUMPDEST JUMPDEST PUSH1 0x0 PUSH2 0x1F28 DUP5 DUP3 DUP6 ADD PUSH2 0x1E2D JUMP JUMPDEST SWAP2 POP POP SWAP3 SWAP2 POP POP JUMP JUMPDEST PUSH1 0x0 PUSH1 0x20 DUP3 DUP5 SUB SLT ISZERO PUSH2 0x1F47 JUMPI PUSH2 0x1F46 PUSH2 0x2B22 JUMP JUMPDEST JUMPDEST PUSH1 0x0 PUSH2 0x1F55 DUP5 DUP3 DUP6 ADD PUSH2 0x1E42 JUMP JUMPDEST SWAP2 POP POP SWAP3 SWAP2 POP POP JUMP JUMPDEST PUSH1 0x0 PUSH2 0x1F6A DUP4 DUP4 PUSH2 0x22C9 JUMP JUMPDEST PUSH1 0x20 DUP4 ADD SWAP1 POP SWAP3 SWAP2 POP POP JUMP JUMPDEST PUSH2 0x1F7F DUP2 PUSH2 0x2851 JUMP JUMPDEST DUP3 MSTORE POP POP JUMP JUMPDEST PUSH2 0x1F96 PUSH2 0x1F91 DUP3 PUSH2 0x2851 JUMP JUMPDEST PUSH2 0x29B6 JUMP JUMPDEST DUP3 MSTORE POP POP JUMP JUMPDEST PUSH2 0x1FA5 DUP2 PUSH2 0x283F JUMP JUMPDEST DUP3 MSTORE POP POP JUMP JUMPDEST PUSH2 0x1FBC PUSH2 0x1FB7 DUP3 PUSH2 0x283F JUMP JUMPDEST PUSH2 0x29A4 JUMP JUMPDEST DUP3 MSTORE POP POP JUMP JUMPDEST PUSH1 0x0 PUSH2 0x1FCD DUP3 PUSH2 0x26DA JUMP JUMPDEST PUSH2 0x1FD7 DUP2 DUP6 PUSH2 0x26FD JUMP JUMPDEST SWAP4 POP PUSH2 0x1FE2 DUP4 PUSH2 0x26CA JUMP JUMPDEST DUP1 PUSH1 0x0 JUMPDEST DUP4 DUP2 LT ISZERO PUSH2 0x2013 JUMPI DUP2 MLOAD PUSH2 0x1FFA DUP9 DUP3 PUSH2 0x1F5E JUMP JUMPDEST SWAP8 POP PUSH2 0x2005 DUP4 PUSH2 0x26F0 JUMP JUMPDEST SWAP3 POP POP PUSH1 0x1 DUP2 ADD SWAP1 POP PUSH2 0x1FE6 JUMP JUMPDEST POP DUP6 SWAP4 POP POP POP POP SWAP3 SWAP2 POP POP JUMP JUMPDEST PUSH2 0x2029 DUP2 PUSH2 0x2863 JUMP JUMPDEST DUP3 MSTORE POP POP JUMP JUMPDEST PUSH1 0x0 PUSH2 0x203A DUP3 PUSH2 0x26E5 JUMP JUMPDEST PUSH2 0x2044 DUP2 DUP6 PUSH2 0x270E JUMP JUMPDEST SWAP4 POP PUSH2 0x2054 DUP2 DUP6 PUSH1 0x20 DUP7 ADD PUSH2 0x28C5 JUMP JUMPDEST PUSH2 0x205D DUP2 PUSH2 0x2B27 JUMP JUMPDEST DUP5 ADD SWAP2 POP POP SWAP3 SWAP2 POP POP JUMP JUMPDEST PUSH1 0x0 PUSH2 0x2073 DUP3 PUSH2 0x26E5 JUMP JUMPDEST PUSH2 0x207D DUP2 DUP6 PUSH2 0x271F JUMP JUMPDEST SWAP4 POP PUSH2 0x208D DUP2 DUP6 PUSH1 0x20 DUP7 ADD PUSH2 0x28C5 JUMP JUMPDEST DUP1 DUP5 ADD SWAP2 POP POP SWAP3 SWAP2 POP POP JUMP JUMPDEST PUSH1 0x0 PUSH2 0x20A6 PUSH1 0x34 DUP4 PUSH2 0x270E JUMP JUMPDEST SWAP2 POP PUSH2 0x20B1 DUP3 PUSH2 0x2B52 JUMP JUMPDEST PUSH1 0x40 DUP3 ADD SWAP1 POP SWAP2 SWAP1 POP JUMP JUMPDEST PUSH1 0x0 PUSH2 0x20C9 PUSH1 0x28 DUP4 PUSH2 0x270E JUMP JUMPDEST SWAP2 POP PUSH2 0x20D4 DUP3 PUSH2 0x2BA1 JUMP JUMPDEST PUSH1 0x40 DUP3 ADD SWAP1 POP SWAP2 SWAP1 POP JUMP JUMPDEST PUSH1 0x0 PUSH2 0x20EC PUSH1 0x19 DUP4 PUSH2 0x270E JUMP JUMPDEST SWAP2 POP PUSH2 0x20F7 DUP3 PUSH2 0x2BF0 JUMP JUMPDEST PUSH1 0x20 DUP3 ADD SWAP1 POP SWAP2 SWAP1 POP JUMP JUMPDEST PUSH1 0x0 PUSH2 0x210F PUSH1 0x8 DUP4 PUSH2 0x271F JUMP JUMPDEST SWAP2 POP PUSH2 0x211A DUP3 PUSH2 0x2C19 JUMP JUMPDEST PUSH1 0x8 DUP3 ADD SWAP1 POP SWAP2 SWAP1 POP JUMP JUMPDEST PUSH1 0x0 PUSH2 0x2132 PUSH1 0x10 DUP4 PUSH2 0x270E JUMP JUMPDEST SWAP2 POP PUSH2 0x213D DUP3 PUSH2 0x2C42 JUMP JUMPDEST PUSH1 0x20 DUP3 ADD SWAP1 POP SWAP2 SWAP1 POP JUMP JUMPDEST PUSH1 0x0 PUSH2 0x2155 PUSH1 0x5 DUP4 PUSH2 0x271F JUMP JUMPDEST SWAP2 POP PUSH2 0x2160 DUP3 PUSH2 0x2C6B JUMP JUMPDEST PUSH1 0x5 DUP3 ADD SWAP1 POP SWAP2 SWAP1 POP JUMP JUMPDEST PUSH1 0x0 PUSH2 0x2178 PUSH1 0x12 DUP4 PUSH2 0x270E JUMP JUMPDEST SWAP2 POP PUSH2 0x2183 DUP3 PUSH2 0x2C94 JUMP JUMPDEST PUSH1 0x20 DUP3 ADD SWAP1 POP SWAP2 SWAP1 POP JUMP JUMPDEST PUSH1 0x0 PUSH2 0x219B PUSH1 0x1B DUP4 PUSH2 0x270E JUMP JUMPDEST SWAP2 POP PUSH2 0x21A6 DUP3 PUSH2 0x2CBD JUMP JUMPDEST PUSH1 0x20 DUP3 ADD SWAP1 POP SWAP2 SWAP1 POP JUMP JUMPDEST PUSH1 0x0 PUSH2 0x21BE PUSH1 0x1B DUP4 PUSH2 0x270E JUMP JUMPDEST SWAP2 POP PUSH2 0x21C9 DUP3 PUSH2 0x2CE6 JUMP JUMPDEST PUSH1 0x20 DUP3 ADD SWAP1 POP SWAP2 SWAP1 POP JUMP JUMPDEST PUSH1 0x0 PUSH2 0x21E1 PUSH1 0x15 DUP4 PUSH2 0x270E JUMP JUMPDEST SWAP2 POP PUSH2 0x21EC DUP3 PUSH2 0x2D0F JUMP JUMPDEST PUSH1 0x20 DUP3 ADD SWAP1 POP SWAP2 SWAP1 POP JUMP JUMPDEST PUSH1 0x0 PUSH2 0x2204 PUSH1 0x1C DUP4 PUSH2 0x270E JUMP JUMPDEST SWAP2 POP PUSH2 0x220F DUP3 PUSH2 0x2D38 JUMP JUMPDEST PUSH1 0x20 DUP3 ADD SWAP1 POP SWAP2 SWAP1 POP JUMP JUMPDEST PUSH1 0x0 PUSH2 0x2227 PUSH1 0x1F DUP4 PUSH2 0x270E JUMP JUMPDEST SWAP2 POP PUSH2 0x2232 DUP3 PUSH2 0x2D61 JUMP JUMPDEST PUSH1 0x20 DUP3 ADD SWAP1 POP SWAP2 SWAP1 POP JUMP JUMPDEST PUSH1 0x0 PUSH2 0x224A PUSH1 0x1B DUP4 PUSH2 0x270E JUMP JUMPDEST SWAP2 POP PUSH2 0x2255 DUP3 PUSH2 0x2D8A JUMP JUMPDEST PUSH1 0x20 DUP3 ADD SWAP1 POP SWAP2 SWAP1 POP JUMP JUMPDEST PUSH1 0x0 PUSH2 0x226D PUSH1 0x19 DUP4 PUSH2 0x270E JUMP JUMPDEST SWAP2 POP PUSH2 0x2278 DUP3 PUSH2 0x2DB3 JUMP JUMPDEST PUSH1 0x20 DUP3 ADD SWAP1 POP SWAP2 SWAP1 POP JUMP JUMPDEST PUSH1 0x0 PUSH2 0x2290 PUSH1 0x7 DUP4 PUSH2 0x271F JUMP JUMPDEST SWAP2 POP PUSH2 0x229B DUP3 PUSH2 0x2DDC JUMP JUMPDEST PUSH1 0x7 DUP3 ADD SWAP1 POP SWAP2 SWAP1 POP JUMP JUMPDEST PUSH1 0x0 PUSH2 0x22B3 PUSH1 0x21 DUP4 PUSH2 0x270E JUMP JUMPDEST SWAP2 POP PUSH2 0x22BE DUP3 PUSH2 0x2E05 JUMP JUMPDEST PUSH1 0x40 DUP3 ADD SWAP1 POP SWAP2 SWAP1 POP JUMP JUMPDEST PUSH2 0x22D2 DUP2 PUSH2 0x28BB JUMP JUMPDEST DUP3 MSTORE POP POP JUMP JUMPDEST PUSH2 0x22E1 DUP2 PUSH2 0x28BB JUMP JUMPDEST DUP3 MSTORE POP POP JUMP JUMPDEST PUSH2 0x22F8 PUSH2 0x22F3 DUP3 PUSH2 0x28BB JUMP JUMPDEST PUSH2 0x29DA JUMP JUMPDEST DUP3 MSTORE POP POP JUMP JUMPDEST PUSH1 0x0 PUSH2 0x2309 DUP3 PUSH2 0x2102 JUMP JUMPDEST SWAP2 POP PUSH2 0x2315 DUP3 DUP5 PUSH2 0x2068 JUMP JUMPDEST SWAP2 POP DUP2 SWAP1 POP SWAP3 SWAP2 POP POP JUMP JUMPDEST PUSH1 0x0 PUSH2 0x232B DUP3 PUSH2 0x2148 JUMP JUMPDEST SWAP2 POP PUSH2 0x2337 DUP3 DUP5 PUSH2 0x2068 JUMP JUMPDEST SWAP2 POP DUP2 SWAP1 POP SWAP3 SWAP2 POP POP JUMP JUMPDEST PUSH1 0x0 PUSH2 0x234D DUP3 PUSH2 0x2283 JUMP JUMPDEST SWAP2 POP PUSH2 0x2359 DUP3 DUP5 PUSH2 0x2068 JUMP JUMPDEST SWAP2 POP DUP2 SWAP1 POP SWAP3 SWAP2 POP POP JUMP JUMPDEST PUSH1 0x0 PUSH2 0x2370 DUP3 DUP7 PUSH2 0x22E7 JUMP JUMPDEST PUSH1 0x20 DUP3 ADD SWAP2 POP PUSH2 0x2380 DUP3 DUP6 PUSH2 0x1FAB JUMP JUMPDEST PUSH1 0x14 DUP3 ADD SWAP2 POP PUSH2 0x2390 DUP3 DUP5 PUSH2 0x1F85 JUMP JUMPDEST PUSH1 0x14 DUP3 ADD SWAP2 POP DUP2 SWAP1 POP SWAP5 SWAP4 POP POP POP POP JUMP JUMPDEST PUSH1 0x0 PUSH1 0x20 DUP3 ADD SWAP1 POP PUSH2 0x23B6 PUSH1 0x0 DUP4 ADD DUP5 PUSH2 0x1F76 JUMP JUMPDEST SWAP3 SWAP2 POP POP JUMP JUMPDEST PUSH1 0x0 PUSH1 0xA0 DUP3 ADD SWAP1 POP PUSH2 0x23D1 PUSH1 0x0 DUP4 ADD DUP9 PUSH2 0x1F9C JUMP JUMPDEST PUSH2 0x23DE PUSH1 0x20 DUP4 ADD DUP8 PUSH2 0x1F9C JUMP JUMPDEST PUSH2 0x23EB PUSH1 0x40 DUP4 ADD DUP7 PUSH2 0x22D8 JUMP JUMPDEST PUSH2 0x23F8 PUSH1 0x60 DUP4 ADD DUP6 PUSH2 0x22D8 JUMP JUMPDEST DUP2 DUP2 SUB PUSH1 0x80 DUP4 ADD MSTORE PUSH2 0x240A DUP2 DUP5 PUSH2 0x202F JUMP JUMPDEST SWAP1 POP SWAP7 SWAP6 POP POP POP POP POP POP JUMP JUMPDEST PUSH1 0x0 PUSH1 0x20 DUP3 ADD SWAP1 POP DUP2 DUP2 SUB PUSH1 0x0 DUP4 ADD MSTORE PUSH2 0x2430 DUP2 DUP5 PUSH2 0x1FC2 JUMP JUMPDEST SWAP1 POP SWAP3 SWAP2 POP POP JUMP JUMPDEST PUSH1 0x0 PUSH1 0x20 DUP3 ADD SWAP1 POP PUSH2 0x244D PUSH1 0x0 DUP4 ADD DUP5 PUSH2 0x2020 JUMP JUMPDEST SWAP3 SWAP2 POP POP JUMP JUMPDEST PUSH1 0x0 PUSH1 0x20 DUP3 ADD SWAP1 POP DUP2 DUP2 SUB PUSH1 0x0 DUP4 ADD MSTORE PUSH2 0x246D DUP2 DUP5 PUSH2 0x202F JUMP JUMPDEST SWAP1 POP SWAP3 SWAP2 POP POP JUMP JUMPDEST PUSH1 0x0 PUSH1 0x20 DUP3 ADD SWAP1 POP DUP2 DUP2 SUB PUSH1 0x0 DUP4 ADD MSTORE PUSH2 0x248E DUP2 PUSH2 0x2099 JUMP JUMPDEST SWAP1 POP SWAP2 SWAP1 POP JUMP JUMPDEST PUSH1 0x0 PUSH1 0x20 DUP3 ADD SWAP1 POP DUP2 DUP2 SUB PUSH1 0x0 DUP4 ADD MSTORE PUSH2 0x24AE DUP2 PUSH2 0x20BC JUMP JUMPDEST SWAP1 POP SWAP2 SWAP1 POP JUMP JUMPDEST PUSH1 0x0 PUSH1 0x20 DUP3 ADD SWAP1 POP DUP2 DUP2 SUB PUSH1 0x0 DUP4 ADD MSTORE PUSH2 0x24CE DUP2 PUSH2 0x20DF JUMP JUMPDEST SWAP1 POP SWAP2 SWAP1 POP JUMP JUMPDEST PUSH1 0x0 PUSH1 0x20 DUP3 ADD SWAP1 POP DUP2 DUP2 SUB PUSH1 0x0 DUP4 ADD MSTORE PUSH2 0x24EE DUP2 PUSH2 0x2125 JUMP JUMPDEST SWAP1 POP SWAP2 SWAP1 POP JUMP JUMPDEST PUSH1 0x0 PUSH1 0x20 DUP3 ADD SWAP1 POP DUP2 DUP2 SUB PUSH1 0x0 DUP4 ADD MSTORE PUSH2 0x250E DUP2 PUSH2 0x216B JUMP JUMPDEST SWAP1 POP SWAP2 SWAP1 POP JUMP JUMPDEST PUSH1 0x0 PUSH1 0x20 DUP3 ADD SWAP1 POP DUP2 DUP2 SUB PUSH1 0x0 DUP4 ADD MSTORE PUSH2 0x252E DUP2 PUSH2 0x218E JUMP JUMPDEST SWAP1 POP SWAP2 SWAP1 POP JUMP JUMPDEST PUSH1 0x0 PUSH1 0x20 DUP3 ADD SWAP1 POP DUP2 DUP2 SUB PUSH1 0x0 DUP4 ADD MSTORE PUSH2 0x254E DUP2 PUSH2 0x21B1 JUMP JUMPDEST SWAP1 POP SWAP2 SWAP1 POP JUMP JUMPDEST PUSH1 0x0 PUSH1 0x20 DUP3 ADD SWAP1 POP DUP2 DUP2 SUB PUSH1 0x0 DUP4 ADD MSTORE PUSH2 0x256E DUP2 PUSH2 0x21D4 JUMP JUMPDEST SWAP1 POP SWAP2 SWAP1 POP JUMP JUMPDEST PUSH1 0x0 PUSH1 0x20 DUP3 ADD SWAP1 POP DUP2 DUP2 SUB PUSH1 0x0 DUP4 ADD MSTORE PUSH2 0x258E DUP2 PUSH2 0x21F7 JUMP JUMPDEST SWAP1 POP SWAP2 SWAP1 POP JUMP JUMPDEST PUSH1 0x0 PUSH1 0x20 DUP3 ADD SWAP1 POP DUP2 DUP2 SUB PUSH1 0x0 DUP4 ADD MSTORE PUSH2 0x25AE DUP2 PUSH2 0x221A JUMP JUMPDEST SWAP1 POP SWAP2 SWAP1 POP JUMP JUMPDEST PUSH1 0x0 PUSH1 0x20 DUP3 ADD SWAP1 POP DUP2 DUP2 SUB PUSH1 0x0 DUP4 ADD MSTORE PUSH2 0x25CE DUP2 PUSH2 0x223D JUMP JUMPDEST SWAP1 POP SWAP2 SWAP1 POP JUMP JUMPDEST PUSH1 0x0 PUSH1 0x20 DUP3 ADD SWAP1 POP DUP2 DUP2 SUB PUSH1 0x0 DUP4 ADD MSTORE PUSH2 0x25EE DUP2 PUSH2 0x2260 JUMP JUMPDEST SWAP1 POP SWAP2 SWAP1 POP JUMP JUMPDEST PUSH1 0x0 PUSH1 0x20 DUP3 ADD SWAP1 POP DUP2 DUP2 SUB PUSH1 0x0 DUP4 ADD MSTORE PUSH2 0x260E DUP2 PUSH2 0x22A6 JUMP JUMPDEST SWAP1 POP SWAP2 SWAP1 POP JUMP JUMPDEST PUSH1 0x0 PUSH1 0x20 DUP3 ADD SWAP1 POP PUSH2 0x262A PUSH1 0x0 DUP4 ADD DUP5 PUSH2 0x22D8 JUMP JUMPDEST SWAP3 SWAP2 POP POP JUMP JUMPDEST PUSH1 0x0 PUSH1 0x40 DUP3 ADD SWAP1 POP PUSH2 0x2645 PUSH1 0x0 DUP4 ADD DUP6 PUSH2 0x22D8 JUMP JUMPDEST DUP2 DUP2 SUB PUSH1 0x20 DUP4 ADD MSTORE PUSH2 0x2657 DUP2 DUP5 PUSH2 0x202F JUMP JUMPDEST SWAP1 POP SWAP4 SWAP3 POP POP POP JUMP JUMPDEST PUSH1 0x0 PUSH1 0x40 DUP3 ADD SWAP1 POP PUSH2 0x2675 PUSH1 0x0 DUP4 ADD DUP6 PUSH2 0x22D8 JUMP JUMPDEST PUSH2 0x2682 PUSH1 0x20 DUP4 ADD DUP5 PUSH2 0x22D8 JUMP JUMPDEST SWAP4 SWAP3 POP POP POP JUMP JUMPDEST PUSH1 0x0 PUSH1 0x60 DUP3 ADD SWAP1 POP PUSH2 0x269E PUSH1 0x0 DUP4 ADD DUP7 PUSH2 0x22D8 JUMP JUMPDEST PUSH2 0x26AB PUSH1 0x20 DUP4 ADD DUP6 PUSH2 0x22D8 JUMP JUMPDEST PUSH2 0x26B8 PUSH1 0x40 DUP4 ADD DUP5 PUSH2 0x22D8 JUMP JUMPDEST SWAP5 SWAP4 POP POP POP POP JUMP JUMPDEST PUSH1 0x0 PUSH1 0x40 MLOAD SWAP1 POP SWAP1 JUMP JUMPDEST PUSH1 0x0 DUP2 SWAP1 POP PUSH1 0x20 DUP3 ADD SWAP1 POP SWAP2 SWAP1 POP JUMP JUMPDEST PUSH1 0x0 DUP2 MLOAD SWAP1 POP SWAP2 SWAP1 POP JUMP JUMPDEST PUSH1 0x0 DUP2 MLOAD SWAP1 POP SWAP2 SWAP1 POP JUMP JUMPDEST PUSH1 0x0 PUSH1 0x20 DUP3 ADD SWAP1 POP SWAP2 SWAP1 POP JUMP JUMPDEST PUSH1 0x0 DUP3 DUP3 MSTORE PUSH1 0x20 DUP3 ADD SWAP1 POP SWAP3 SWAP2 POP POP JUMP JUMPDEST PUSH1 0x0 DUP3 DUP3 MSTORE PUSH1 0x20 DUP3 ADD SWAP1 POP SWAP3 SWAP2 POP POP JUMP JUMPDEST PUSH1 0x0 DUP2 SWAP1 POP SWAP3 SWAP2 POP POP JUMP JUMPDEST PUSH1 0x0 PUSH2 0x2735 DUP3 PUSH2 0x28BB JUMP JUMPDEST SWAP2 POP PUSH2 0x2740 DUP4 PUSH2 0x28BB JUMP JUMPDEST SWAP3 POP DUP3 PUSH32 0xFFFFFFFFFFFFFFFFFFFFFFFFFFFFFFFFFFFFFFFFFFFFFFFFFFFFFFFFFFFFFFFF SUB DUP3 GT ISZERO PUSH2 0x2775 JUMPI PUSH2 0x2774 PUSH2 0x2A15 JUMP JUMPDEST JUMPDEST DUP3 DUP3 ADD SWAP1 POP SWAP3 SWAP2 POP POP JUMP JUMPDEST PUSH1 0x0 PUSH2 0x278B DUP3 PUSH2 0x28BB JUMP JUMPDEST SWAP2 POP PUSH2 0x2796 DUP4 PUSH2 0x28BB JUMP JUMPDEST SWAP3 POP DUP3 PUSH2 0x27A6 JUMPI PUSH2 0x27A5 PUSH2 0x2A44 JUMP JUMPDEST JUMPDEST DUP3 DUP3 DIV SWAP1 POP SWAP3 SWAP2 POP POP JUMP JUMPDEST PUSH1 0x0 PUSH2 0x27BC DUP3 PUSH2 0x28BB JUMP JUMPDEST SWAP2 POP PUSH2 0x27C7 DUP4 PUSH2 0x28BB JUMP JUMPDEST SWAP3 POP DUP2 PUSH32 0xFFFFFFFFFFFFFFFFFFFFFFFFFFFFFFFFFFFFFFFFFFFFFFFFFFFFFFFFFFFFFFFF DIV DUP4 GT DUP3 ISZERO ISZERO AND ISZERO PUSH2 0x2800 JUMPI PUSH2 0x27FF PUSH2 0x2A15 JUMP JUMPDEST JUMPDEST DUP3 DUP3 MUL SWAP1 POP SWAP3 SWAP2 POP POP JUMP JUMPDEST PUSH1 0x0 PUSH2 0x2816 DUP3 PUSH2 0x28BB JUMP JUMPDEST SWAP2 POP PUSH2 0x2821 DUP4 PUSH2 0x28BB JUMP JUMPDEST SWAP3 POP DUP3 DUP3 LT ISZERO PUSH2 0x2834 JUMPI PUSH2 0x2833 PUSH2 0x2A15 JUMP JUMPDEST JUMPDEST DUP3 DUP3 SUB SWAP1 POP SWAP3 SWAP2 POP POP JUMP JUMPDEST PUSH1 0x0 PUSH2 0x284A DUP3 PUSH2 0x289B JUMP JUMPDEST SWAP1 POP SWAP2 SWAP1 POP JUMP JUMPDEST PUSH1 0x0 PUSH2 0x285C DUP3 PUSH2 0x289B JUMP JUMPDEST SWAP1 POP SWAP2 SWAP1 POP JUMP JUMPDEST PUSH1 0x0 DUP2 ISZERO ISZERO SWAP1 POP SWAP2 SWAP1 POP JUMP JUMPDEST PUSH1 0x0 PUSH32 0xFFFFFFFF00000000000000000000000000000000000000000000000000000000 DUP3 AND SWAP1 POP SWAP2 SWAP1 POP JUMP JUMPDEST PUSH1 0x0 PUSH20 0xFFFFFFFFFFFFFFFFFFFFFFFFFFFFFFFFFFFFFFFF DUP3 AND SWAP1 POP SWAP2 SWAP1 POP JUMP JUMPDEST PUSH1 0x0 DUP2 SWAP1 POP SWAP2 SWAP1 POP JUMP JUMPDEST PUSH1 0x0 JUMPDEST DUP4 DUP2 LT ISZERO PUSH2 0x28E3 JUMPI DUP1 DUP3 ADD MLOAD DUP2 DUP5 ADD MSTORE PUSH1 0x20 DUP2 ADD SWAP1 POP PUSH2 0x28C8 JUMP JUMPDEST DUP4 DUP2 GT ISZERO PUSH2 0x28F2 JUMPI PUSH1 0x0 DUP5 DUP5 ADD MSTORE JUMPDEST POP POP POP POP JUMP JUMPDEST PUSH1 0x0 PUSH1 0x2 DUP3 DIV SWAP1 POP PUSH1 0x1 DUP3 AND DUP1 PUSH2 0x2910 JUMPI PUSH1 0x7F DUP3 AND SWAP2 POP JUMPDEST PUSH1 0x20 DUP3 LT DUP2 EQ ISZERO PUSH2 0x2924 JUMPI PUSH2 0x2923 PUSH2 0x2A73 JUMP JUMPDEST JUMPDEST POP SWAP2 SWAP1 POP JUMP JUMPDEST PUSH2 0x2933 DUP3 PUSH2 0x2B27 JUMP JUMPDEST DUP2 ADD DUP2 DUP2 LT PUSH8 0xFFFFFFFFFFFFFFFF DUP3 GT OR ISZERO PUSH2 0x2952 JUMPI PUSH2 0x2951 PUSH2 0x2AD1 JUMP JUMPDEST JUMPDEST DUP1 PUSH1 0x40 MSTORE POP POP POP JUMP JUMPDEST PUSH1 0x0 PUSH2 0x2966 DUP3 PUSH2 0x28BB JUMP JUMPDEST SWAP2 POP PUSH32 0xFFFFFFFFFFFFFFFFFFFFFFFFFFFFFFFFFFFFFFFFFFFFFFFFFFFFFFFFFFFFFFFF DUP3 EQ ISZERO PUSH2 0x2999 JUMPI PUSH2 0x2998 PUSH2 0x2A15 JUMP JUMPDEST JUMPDEST PUSH1 0x1 DUP3 ADD SWAP1 POP SWAP2 SWAP1 POP JUMP JUMPDEST PUSH1 0x0 PUSH2 0x29AF DUP3 PUSH2 0x29C8 JUMP JUMPDEST SWAP1 POP SWAP2 SWAP1 POP JUMP JUMPDEST PUSH1 0x0 PUSH2 0x29C1 DUP3 PUSH2 0x29C8 JUMP JUMPDEST SWAP1 POP SWAP2 SWAP1 POP JUMP JUMPDEST PUSH1 0x0 PUSH2 0x29D3 DUP3 PUSH2 0x2B38 JUMP JUMPDEST SWAP1 POP SWAP2 SWAP1 POP JUMP JUMPDEST PUSH1 0x0 DUP2 SWAP1 POP SWAP2 SWAP1 POP JUMP JUMPDEST PUSH1 0x0 PUSH2 0x29EF DUP3 PUSH2 0x28BB JUMP JUMPDEST SWAP2 POP PUSH2 0x29FA DUP4 PUSH2 0x28BB JUMP JUMPDEST SWAP3 POP DUP3 PUSH2 0x2A0A JUMPI PUSH2 0x2A09 PUSH2 0x2A44 JUMP JUMPDEST JUMPDEST DUP3 DUP3 MOD SWAP1 POP SWAP3 SWAP2 POP POP JUMP JUMPDEST PUSH32 0x4E487B7100000000000000000000000000000000000000000000000000000000 PUSH1 0x0 MSTORE PUSH1 0x11 PUSH1 0x4 MSTORE PUSH1 0x24 PUSH1 0x0 REVERT JUMPDEST PUSH32 0x4E487B7100000000000000000000000000000000000000000000000000000000 PUSH1 0x0 MSTORE PUSH1 0x12 PUSH1 0x4 MSTORE PUSH1 0x24 PUSH1 0x0 REVERT JUMPDEST PUSH32 0x4E487B7100000000000000000000000000000000000000000000000000000000 PUSH1 0x0 MSTORE PUSH1 0x22 PUSH1 0x4 MSTORE PUSH1 0x24 PUSH1 0x0 REVERT JUMPDEST PUSH32 0x4E487B7100000000000000000000000000000000000000000000000000000000 PUSH1 0x0 MSTORE PUSH1 0x32 PUSH1 0x4 MSTORE PUSH1 0x24 PUSH1 0x0 REVERT JUMPDEST PUSH32 0x4E487B7100000000000000000000000000000000000000000000000000000000 PUSH1 0x0 MSTORE PUSH1 0x41 PUSH1 0x4 MSTORE PUSH1 0x24 PUSH1 0x0 REVERT JUMPDEST PUSH1 0x0 PUSH1 0x3 RETURNDATASIZE GT ISZERO PUSH2 0x2B1F JUMPI PUSH1 0x4 PUSH1 0x0 DUP1 RETURNDATACOPY PUSH2 0x2B1C PUSH1 0x0 MLOAD PUSH2 0x2B45 JUMP JUMPDEST SWAP1 POP JUMPDEST SWAP1 JUMP JUMPDEST PUSH1 0x0 DUP1 REVERT JUMPDEST PUSH1 0x0 PUSH1 0x1F NOT PUSH1 0x1F DUP4 ADD AND SWAP1 POP SWAP2 SWAP1 POP JUMP JUMPDEST PUSH1 0x0 DUP2 PUSH1 0x60 SHL SWAP1 POP SWAP2 SWAP1 POP JUMP JUMPDEST PUSH1 0x0 DUP2 PUSH1 0xE0 SHR SWAP1 POP SWAP2 SWAP1 POP JUMP JUMPDEST PUSH32 0x455243313135353A207472616E7366657220746F206E6F6E2045524331313535 PUSH1 0x0 DUP3 ADD MSTORE PUSH32 0x526563656976657220696D706C656D656E746572000000000000000000000000 PUSH1 0x20 DUP3 ADD MSTORE POP JUMP JUMPDEST PUSH32 0x455243313135353A204552433131353552656365697665722072656A65637465 PUSH1 0x0 DUP3 ADD MSTORE PUSH32 0x6420746F6B656E73000000000000000000000000000000000000000000000000 PUSH1 0x20 DUP3 ADD MSTORE POP JUMP JUMPDEST PUSH32 0x4572726F7221204E6F7420456E6F7567682042616C616E636500000000000000 PUSH1 0x0 DUP3 ADD MSTORE POP JUMP JUMPDEST PUSH32 0x4469616D6F6E645F000000000000000000000000000000000000000000000000 PUSH1 0x0 DUP3 ADD MSTORE POP JUMP JUMPDEST PUSH32 0x4D696E7420466565204E6F742053657400000000000000000000000000000000 PUSH1 0x0 DUP3 ADD MSTORE POP JUMP JUMPDEST PUSH32 0x476F6C645F000000000000000000000000000000000000000000000000000000 PUSH1 0x0 DUP3 ADD MSTORE POP JUMP JUMPDEST PUSH32 0x4E6F7420456E6F7567682042616C616E63650000000000000000000000000000 PUSH1 0x0 DUP3 ADD MSTORE POP JUMP JUMPDEST PUSH32 0x44726F707369746520697320616C72656164792052756E6E696E670000000000 PUSH1 0x0 DUP3 ADD MSTORE POP JUMP JUMPDEST PUSH32 0x44726F707369746520697320616C72656164792053746F707065640000000000 PUSH1 0x0 DUP3 ADD MSTORE POP JUMP JUMPDEST PUSH32 0x596F752063616E206D696E7420312D33204E4654730000000000000000000000 PUSH1 0x0 DUP3 ADD MSTORE POP JUMP JUMPDEST PUSH32 0x4F6E6C79204E46542D4553204F776E65722063616E2041636365737300000000 PUSH1 0x0 DUP3 ADD MSTORE POP JUMP JUMPDEST PUSH32 0x4F776E65722053686F756C6420736574206D696E742046656520466972737400 PUSH1 0x0 DUP3 ADD MSTORE POP JUMP JUMPDEST PUSH32 0x44726F7073697465206973206E6F74204F70656E6564205965742E0000000000 PUSH1 0x0 DUP3 ADD MSTORE POP JUMP JUMPDEST PUSH32 0x4D6178204D696E74696E67204C696D6974207265616368656400000000000000 PUSH1 0x0 DUP3 ADD MSTORE POP JUMP JUMPDEST PUSH32 0x53696C7665725F00000000000000000000000000000000000000000000000000 PUSH1 0x0 DUP3 ADD MSTORE POP JUMP JUMPDEST PUSH32 0x455243313135353A206D696E7420746F20746865207A65726F20616464726573 PUSH1 0x0 DUP3 ADD MSTORE PUSH32 0x7300000000000000000000000000000000000000000000000000000000000000 PUSH1 0x20 DUP3 ADD MSTORE POP JUMP JUMPDEST PUSH1 0x0 PUSH1 0x44 RETURNDATASIZE LT ISZERO PUSH2 0x2E64 JUMPI PUSH2 0x2EE7 JUMP JUMPDEST PUSH2 0x2E6C PUSH2 0x26C0 JUMP JUMPDEST PUSH1 0x4 RETURNDATASIZE SUB PUSH1 0x4 DUP3 RETURNDATACOPY DUP1 MLOAD RETURNDATASIZE PUSH1 0x24 DUP3 ADD GT PUSH8 0xFFFFFFFFFFFFFFFF DUP3 GT OR ISZERO PUSH2 0x2E94 JUMPI POP POP PUSH2 0x2EE7 JUMP JUMPDEST DUP1 DUP3 ADD DUP1 MLOAD PUSH8 0xFFFFFFFFFFFFFFFF DUP2 GT ISZERO PUSH2 0x2EB2 JUMPI POP POP POP POP PUSH2 0x2EE7 JUMP JUMPDEST DUP1 PUSH1 0x20 DUP4 ADD ADD PUSH1 0x4 RETURNDATASIZE SUB DUP6 ADD DUP2 GT ISZERO PUSH2 0x2ECF JUMPI POP POP POP POP POP PUSH2 0x2EE7 JUMP JUMPDEST PUSH2 0x2EDE DUP3 PUSH1 0x20 ADD DUP6 ADD DUP7 PUSH2 0x292A JUMP JUMPDEST DUP3 SWAP6 POP POP POP POP POP POP JUMPDEST SWAP1 JUMP JUMPDEST PUSH2 0x2EF3 DUP2 PUSH2 0x283F JUMP JUMPDEST DUP2 EQ PUSH2 0x2EFE JUMPI PUSH1 0x0 DUP1 REVERT JUMPDEST POP JUMP JUMPDEST PUSH2 0x2F0A DUP2 PUSH2 0x2851 JUMP JUMPDEST DUP2 EQ PUSH2 0x2F15 JUMPI PUSH1 0x0 DUP1 REVERT JUMPDEST POP JUMP JUMPDEST PUSH2 0x2F21 DUP2 PUSH2 0x286F JUMP JUMPDEST DUP2 EQ PUSH2 0x2F2C JUMPI PUSH1 0x0 DUP1 REVERT JUMPDEST POP JUMP JUMPDEST PUSH2 0x2F38 DUP2 PUSH2 0x28BB JUMP JUMPDEST DUP2 EQ PUSH2 0x2F43 JUMPI PUSH1 0x0 DUP1 REVERT JUMPDEST POP JUMP INVALID LOG2 PUSH5 0x6970667358 0x22 SLT KECCAK256 0x2D 0xC2 0x2F SWAP9 0x2D 0xB0 0xF6 PUSH23 0x38B9D0975B16871EB08D328EC4CADFF5AD6A8EAB5ACB1A 0x24 PUSH5 0x736F6C6343 STOP ADDMOD SMOD STOP CALLER "
				},
				"gasEstimates": {
					"creation": {
						"codeDepositCost": "2431200",
						"executionCost": "infinite",
						"totalCost": "infinite"
					},
					"external": {
						"Owner()": "2630",
						"changeOwner(address)": "29287",
						"checkMintedCategoryWise()": "infinite",
						"checkTotalMinted()": "2461",
						"contractBalance()": "2758",
						"cryptoRandomMint(address,uint256)": "infinite",
						"fiatRandomMint(address,uint256)": "infinite",
						"getMintFee()": "4653",
						"isPaused()": "2515",
						"openDropsite()": "28883",
						"randomMinting(address)": "infinite",
						"returnNftsOwner(address)": "infinite",
						"setMintFee(uint256)": "27034",
						"stopDropsite()": "28859",
						"withDraw(address,uint256)": "infinite"
					},
					"internal": {
						"depositAmount(address,uint256)": "infinite",
						"random()": "infinite",
						"updateConditions(uint256)": "infinite"
					}
				},
				"methodIdentifiers": {
					"Owner()": "b4a99a4e",
					"changeOwner(address)": "a6f9dae1",
					"checkMintedCategoryWise()": "60daa851",
					"checkTotalMinted()": "0390c11c",
					"contractBalance()": "8b7afe2e",
					"cryptoRandomMint(address,uint256)": "5b27d84e",
					"fiatRandomMint(address,uint256)": "5e1f0556",
					"getMintFee()": "7a5caab3",
					"isPaused()": "b187bd26",
					"openDropsite()": "15460259",
					"randomMinting(address)": "546fd992",
					"returnNftsOwner(address)": "225011da",
					"setMintFee(uint256)": "eddd0d9c",
					"stopDropsite()": "aa90c726",
					"withDraw(address,uint256)": "191e2e83"
				}
			},
			"storageLayout": {
				"storage": [
					{
						"astId": 611,
						"contract": "NFTES_Drop_flat.sol:NFTES_Drop",
						"label": "_balances",
						"offset": 0,
						"slot": "0",
						"type": "t_mapping(t_uint256,t_mapping(t_address,t_uint256))"
					},
					{
						"astId": 617,
						"contract": "NFTES_Drop_flat.sol:NFTES_Drop",
						"label": "_operatorApprovals",
						"offset": 0,
						"slot": "1",
						"type": "t_mapping(t_address,t_mapping(t_address,t_bool))"
					},
					{
						"astId": 807,
						"contract": "NFTES_Drop_flat.sol:NFTES_Drop",
						"label": "data",
						"offset": 0,
						"slot": "2",
						"type": "t_string_storage"
					},
					{
						"astId": 809,
						"contract": "NFTES_Drop_flat.sol:NFTES_Drop",
						"label": "totalNFTsMinted",
						"offset": 0,
						"slot": "3",
						"type": "t_uint256"
					},
					{
						"astId": 811,
						"contract": "NFTES_Drop_flat.sol:NFTES_Drop",
						"label": "numOfCopies",
						"offset": 0,
						"slot": "4",
						"type": "t_uint256"
					},
					{
						"astId": 813,
						"contract": "NFTES_Drop_flat.sol:NFTES_Drop",
						"label": "mintFees",
						"offset": 0,
						"slot": "5",
						"type": "t_uint256"
					},
					{
						"astId": 815,
						"contract": "NFTES_Drop_flat.sol:NFTES_Drop",
						"label": "Diamond",
						"offset": 0,
						"slot": "6",
						"type": "t_uint256"
					},
					{
						"astId": 817,
						"contract": "NFTES_Drop_flat.sol:NFTES_Drop",
						"label": "Gold",
						"offset": 0,
						"slot": "7",
						"type": "t_uint256"
					},
					{
						"astId": 819,
						"contract": "NFTES_Drop_flat.sol:NFTES_Drop",
						"label": "Silver",
						"offset": 0,
						"slot": "8",
						"type": "t_uint256"
					},
					{
						"astId": 822,
						"contract": "NFTES_Drop_flat.sol:NFTES_Drop",
						"label": "maxDiamondCount",
						"offset": 0,
						"slot": "9",
						"type": "t_uint256"
					},
					{
						"astId": 825,
						"contract": "NFTES_Drop_flat.sol:NFTES_Drop",
						"label": "maxGoldCount",
						"offset": 0,
						"slot": "10",
						"type": "t_uint256"
					},
					{
						"astId": 828,
						"contract": "NFTES_Drop_flat.sol:NFTES_Drop",
						"label": "maxSilverCount",
						"offset": 0,
						"slot": "11",
						"type": "t_uint256"
					},
					{
						"astId": 837,
						"contract": "NFTES_Drop_flat.sol:NFTES_Drop",
						"label": "dropsite_NFT_Owner",
						"offset": 0,
						"slot": "12",
						"type": "t_mapping(t_address,t_struct(nft_Owner)832_storage)"
					},
					{
						"astId": 841,
						"contract": "NFTES_Drop_flat.sol:NFTES_Drop",
						"label": "deposits",
						"offset": 0,
						"slot": "13",
						"type": "t_mapping(t_address,t_uint256)"
					},
					{
						"astId": 878,
						"contract": "NFTES_Drop_flat.sol:NFTES_Drop",
						"label": "isPaused",
						"offset": 0,
						"slot": "14",
						"type": "t_bool"
					},
					{
						"astId": 880,
						"contract": "NFTES_Drop_flat.sol:NFTES_Drop",
						"label": "Owner",
						"offset": 1,
						"slot": "14",
						"type": "t_address_payable"
					},
					{
						"astId": 882,
						"contract": "NFTES_Drop_flat.sol:NFTES_Drop",
						"label": "_name",
						"offset": 0,
						"slot": "15",
						"type": "t_string_storage"
					}
				],
				"types": {
					"t_address": {
						"encoding": "inplace",
						"label": "address",
						"numberOfBytes": "20"
					},
					"t_address_payable": {
						"encoding": "inplace",
						"label": "address payable",
						"numberOfBytes": "20"
					},
					"t_array(t_uint256)dyn_storage": {
						"base": "t_uint256",
						"encoding": "dynamic_array",
						"label": "uint256[]",
						"numberOfBytes": "32"
					},
					"t_bool": {
						"encoding": "inplace",
						"label": "bool",
						"numberOfBytes": "1"
					},
					"t_mapping(t_address,t_bool)": {
						"encoding": "mapping",
						"key": "t_address",
						"label": "mapping(address => bool)",
						"numberOfBytes": "32",
						"value": "t_bool"
					},
					"t_mapping(t_address,t_mapping(t_address,t_bool))": {
						"encoding": "mapping",
						"key": "t_address",
						"label": "mapping(address => mapping(address => bool))",
						"numberOfBytes": "32",
						"value": "t_mapping(t_address,t_bool)"
					},
					"t_mapping(t_address,t_struct(nft_Owner)832_storage)": {
						"encoding": "mapping",
						"key": "t_address",
						"label": "mapping(address => struct NFTES_Drop.nft_Owner)",
						"numberOfBytes": "32",
						"value": "t_struct(nft_Owner)832_storage"
					},
					"t_mapping(t_address,t_uint256)": {
						"encoding": "mapping",
						"key": "t_address",
						"label": "mapping(address => uint256)",
						"numberOfBytes": "32",
						"value": "t_uint256"
					},
					"t_mapping(t_uint256,t_mapping(t_address,t_uint256))": {
						"encoding": "mapping",
						"key": "t_uint256",
						"label": "mapping(uint256 => mapping(address => uint256))",
						"numberOfBytes": "32",
						"value": "t_mapping(t_address,t_uint256)"
					},
					"t_string_storage": {
						"encoding": "bytes",
						"label": "string",
						"numberOfBytes": "32"
					},
					"t_struct(nft_Owner)832_storage": {
						"encoding": "inplace",
						"label": "struct NFTES_Drop.nft_Owner",
						"members": [
							{
								"astId": 831,
								"contract": "NFTES_Drop_flat.sol:NFTES_Drop",
								"label": "owned_Dropsite_NFTs",
								"offset": 0,
								"slot": "0",
								"type": "t_array(t_uint256)dyn_storage"
							}
						],
						"numberOfBytes": "32"
					},
					"t_uint256": {
						"encoding": "inplace",
						"label": "uint256",
						"numberOfBytes": "32"
					}
				}
			},
			"userdoc": {
				"kind": "user",
				"methods": {},
				"version": 1
			}
		}
	}
}