{
	"OnyxNft1155Auctions.sol": {
		"OnyxNft1155Auction": {
			"abi": [
				{
					"anonymous": false,
					"inputs": [
						{
							"indexed": false,
							"internalType": "uint256",
							"name": "",
							"type": "uint256"
						},
						{
							"indexed": false,
							"internalType": "string",
							"name": "",
							"type": "string"
						}
					],
					"name": "availableForBids",
					"type": "event"
				},
				{
					"anonymous": false,
					"inputs": [
						{
							"indexed": false,
							"internalType": "uint256",
							"name": "",
							"type": "uint256"
						},
						{
							"indexed": false,
							"internalType": "string",
							"name": "",
							"type": "string"
						}
					],
					"name": "removeFormSale",
					"type": "event"
				},
				{
					"inputs": [
						{
							"internalType": "address",
							"name": "nftOwner",
							"type": "address"
						},
						{
							"internalType": "uint256",
							"name": "nftId",
							"type": "uint256"
						}
					],
					"name": "CheckNftStatus",
					"outputs": [
						{
							"internalType": "enum OnyxNft1155Auction.status",
							"name": "",
							"type": "uint8"
						}
					],
					"stateMutability": "view",
					"type": "function"
				},
				{
					"inputs": [],
					"name": "CurrentStatus",
					"outputs": [
						{
							"internalType": "enum OnyxNft1155Auction.status",
							"name": "",
							"type": "uint8"
						}
					],
					"stateMutability": "view",
					"type": "function"
				}
			],
			"devdoc": {
				"kind": "dev",
				"methods": {},
				"version": 1
			},
			"evm": {
				"assembly": "    /* \"OnyxNft1155Auctions.sol\":56:3382  contract OnyxNft1155Auction {  //is SpaceERC20 ... */\n  mstore(0x40, 0x80)\n  callvalue\n  dup1\n  iszero\n  tag_1\n  jumpi\n  0x00\n  dup1\n  revert\ntag_1:\n  pop\n  dataSize(sub_0)\n  dup1\n  dataOffset(sub_0)\n  0x00\n  codecopy\n  0x00\n  return\nstop\n\nsub_0: assembly {\n        /* \"OnyxNft1155Auctions.sol\":56:3382  contract OnyxNft1155Auction {  //is SpaceERC20 ... */\n      mstore(0x40, 0x80)\n      callvalue\n      dup1\n      iszero\n      tag_1\n      jumpi\n      0x00\n      dup1\n      revert\n    tag_1:\n      pop\n      jumpi(tag_2, lt(calldatasize, 0x04))\n      shr(0xe0, calldataload(0x00))\n      dup1\n      0x67c510c9\n      eq\n      tag_3\n      jumpi\n      dup1\n      0xe3306a6f\n      eq\n      tag_4\n      jumpi\n    tag_2:\n      0x00\n      dup1\n      revert\n        /* \"OnyxNft1155Auctions.sol\":3241:3379  function CheckNftStatus(address nftOwner, uint nftId) view external returns(status){... */\n    tag_3:\n      tag_5\n      0x04\n      dup1\n      calldatasize\n      sub\n      dup2\n      add\n      swap1\n      tag_6\n      swap2\n      swap1\n      tag_7\n      jump\t// in\n    tag_6:\n      tag_8\n      jump\t// in\n    tag_5:\n      mload(0x40)\n      tag_9\n      swap2\n      swap1\n      tag_10\n      jump\t// in\n    tag_9:\n      mload(0x40)\n      dup1\n      swap2\n      sub\n      swap1\n      return\n        /* \"OnyxNft1155Auctions.sol\":258:285  status public CurrentStatus */\n    tag_4:\n      tag_11\n      tag_12\n      jump\t// in\n    tag_11:\n      mload(0x40)\n      tag_13\n      swap2\n      swap1\n      tag_10\n      jump\t// in\n    tag_13:\n      mload(0x40)\n      dup1\n      swap2\n      sub\n      swap1\n      return\n        /* \"OnyxNft1155Auctions.sol\":3241:3379  function CheckNftStatus(address nftOwner, uint nftId) view external returns(status){... */\n    tag_8:\n        /* \"OnyxNft1155Auctions.sol\":3317:3323  status */\n      0x00\n        /* \"OnyxNft1155Auctions.sol\":3341:3344  Nft */\n      0x01\n        /* \"OnyxNft1155Auctions.sol\":3341:3354  Nft[nftOwner] */\n      0x00\n        /* \"OnyxNft1155Auctions.sol\":3345:3353  nftOwner */\n      dup5\n        /* \"OnyxNft1155Auctions.sol\":3341:3354  Nft[nftOwner] */\n      0xffffffffffffffffffffffffffffffffffffffff\n      and\n      0xffffffffffffffffffffffffffffffffffffffff\n      and\n      dup2\n      mstore\n      0x20\n      add\n      swap1\n      dup2\n      mstore\n      0x20\n      add\n      0x00\n      keccak256\n        /* \"OnyxNft1155Auctions.sol\":3341:3361  Nft[nftOwner][nftId] */\n      0x00\n        /* \"OnyxNft1155Auctions.sol\":3355:3360  nftId */\n      dup4\n        /* \"OnyxNft1155Auctions.sol\":3341:3361  Nft[nftOwner][nftId] */\n      dup2\n      mstore\n      0x20\n      add\n      swap1\n      dup2\n      mstore\n      0x20\n      add\n      0x00\n      keccak256\n        /* \"OnyxNft1155Auctions.sol\":3341:3372  Nft[nftOwner][nftId].salestatus */\n      0x09\n      add\n      0x00\n      swap1\n      sload\n      swap1\n      0x0100\n      exp\n      swap1\n      div\n      0xff\n      and\n        /* \"OnyxNft1155Auctions.sol\":3334:3372  return Nft[nftOwner][nftId].salestatus */\n      swap1\n      pop\n        /* \"OnyxNft1155Auctions.sol\":3241:3379  function CheckNftStatus(address nftOwner, uint nftId) view external returns(status){... */\n      swap3\n      swap2\n      pop\n      pop\n      jump\t// out\n        /* \"OnyxNft1155Auctions.sol\":258:285  status public CurrentStatus */\n    tag_12:\n      0x00\n      dup1\n      sload\n      swap1\n      0x0100\n      exp\n      swap1\n      div\n      0xff\n      and\n      dup2\n      jump\t// out\n        /* \"#utility.yul\":7:146   */\n    tag_16:\n        /* \"#utility.yul\":53:58   */\n      0x00\n        /* \"#utility.yul\":91:97   */\n      dup2\n        /* \"#utility.yul\":78:98   */\n      calldataload\n        /* \"#utility.yul\":69:98   */\n      swap1\n      pop\n        /* \"#utility.yul\":107:140   */\n      tag_18\n        /* \"#utility.yul\":134:139   */\n      dup2\n        /* \"#utility.yul\":107:140   */\n      tag_19\n      jump\t// in\n    tag_18:\n        /* \"#utility.yul\":7:146   */\n      swap3\n      swap2\n      pop\n      pop\n      jump\t// out\n        /* \"#utility.yul\":152:291   */\n    tag_20:\n        /* \"#utility.yul\":198:203   */\n      0x00\n        /* \"#utility.yul\":236:242   */\n      dup2\n        /* \"#utility.yul\":223:243   */\n      calldataload\n        /* \"#utility.yul\":214:243   */\n      swap1\n      pop\n        /* \"#utility.yul\":252:285   */\n      tag_22\n        /* \"#utility.yul\":279:284   */\n      dup2\n        /* \"#utility.yul\":252:285   */\n      tag_23\n      jump\t// in\n    tag_22:\n        /* \"#utility.yul\":152:291   */\n      swap3\n      swap2\n      pop\n      pop\n      jump\t// out\n        /* \"#utility.yul\":297:771   */\n    tag_7:\n        /* \"#utility.yul\":365:371   */\n      0x00\n        /* \"#utility.yul\":373:379   */\n      dup1\n        /* \"#utility.yul\":422:424   */\n      0x40\n        /* \"#utility.yul\":410:419   */\n      dup4\n        /* \"#utility.yul\":401:408   */\n      dup6\n        /* \"#utility.yul\":397:420   */\n      sub\n        /* \"#utility.yul\":393:425   */\n      slt\n        /* \"#utility.yul\":390:509   */\n      iszero\n      tag_25\n      jumpi\n        /* \"#utility.yul\":428:507   */\n      tag_26\n      tag_27\n      jump\t// in\n    tag_26:\n        /* \"#utility.yul\":390:509   */\n    tag_25:\n        /* \"#utility.yul\":548:549   */\n      0x00\n        /* \"#utility.yul\":573:626   */\n      tag_28\n        /* \"#utility.yul\":618:625   */\n      dup6\n        /* \"#utility.yul\":609:615   */\n      dup3\n        /* \"#utility.yul\":598:607   */\n      dup7\n        /* \"#utility.yul\":594:616   */\n      add\n        /* \"#utility.yul\":573:626   */\n      tag_16\n      jump\t// in\n    tag_28:\n        /* \"#utility.yul\":563:626   */\n      swap3\n      pop\n        /* \"#utility.yul\":519:636   */\n      pop\n        /* \"#utility.yul\":675:677   */\n      0x20\n        /* \"#utility.yul\":701:754   */\n      tag_29\n        /* \"#utility.yul\":746:753   */\n      dup6\n        /* \"#utility.yul\":737:743   */\n      dup3\n        /* \"#utility.yul\":726:735   */\n      dup7\n        /* \"#utility.yul\":722:744   */\n      add\n        /* \"#utility.yul\":701:754   */\n      tag_20\n      jump\t// in\n    tag_29:\n        /* \"#utility.yul\":691:754   */\n      swap2\n      pop\n        /* \"#utility.yul\":646:764   */\n      pop\n        /* \"#utility.yul\":297:771   */\n      swap3\n      pop\n      swap3\n      swap1\n      pop\n      jump\t// out\n        /* \"#utility.yul\":777:926   */\n    tag_30:\n        /* \"#utility.yul\":873:919   */\n      tag_32\n        /* \"#utility.yul\":913:918   */\n      dup2\n        /* \"#utility.yul\":873:919   */\n      tag_33\n      jump\t// in\n    tag_32:\n        /* \"#utility.yul\":868:871   */\n      dup3\n        /* \"#utility.yul\":861:920   */\n      mstore\n        /* \"#utility.yul\":777:926   */\n      pop\n      pop\n      jump\t// out\n        /* \"#utility.yul\":932:1172   */\n    tag_10:\n        /* \"#utility.yul\":1034:1038   */\n      0x00\n        /* \"#utility.yul\":1072:1074   */\n      0x20\n        /* \"#utility.yul\":1061:1070   */\n      dup3\n        /* \"#utility.yul\":1057:1075   */\n      add\n        /* \"#utility.yul\":1049:1075   */\n      swap1\n      pop\n        /* \"#utility.yul\":1085:1165   */\n      tag_35\n        /* \"#utility.yul\":1162:1163   */\n      0x00\n        /* \"#utility.yul\":1151:1160   */\n      dup4\n        /* \"#utility.yul\":1147:1164   */\n      add\n        /* \"#utility.yul\":1138:1144   */\n      dup5\n        /* \"#utility.yul\":1085:1165   */\n      tag_30\n      jump\t// in\n    tag_35:\n        /* \"#utility.yul\":932:1172   */\n      swap3\n      swap2\n      pop\n      pop\n      jump\t// out\n        /* \"#utility.yul\":1259:1355   */\n    tag_38:\n        /* \"#utility.yul\":1296:1303   */\n      0x00\n        /* \"#utility.yul\":1325:1349   */\n      tag_40\n        /* \"#utility.yul\":1343:1348   */\n      dup3\n        /* \"#utility.yul\":1325:1349   */\n      tag_41\n      jump\t// in\n    tag_40:\n        /* \"#utility.yul\":1314:1349   */\n      swap1\n      pop\n        /* \"#utility.yul\":1259:1355   */\n      swap2\n      swap1\n      pop\n      jump\t// out\n        /* \"#utility.yul\":1361:1494   */\n    tag_42:\n        /* \"#utility.yul\":1409:1416   */\n      0x00\n        /* \"#utility.yul\":1438:1443   */\n      dup2\n        /* \"#utility.yul\":1427:1443   */\n      swap1\n      pop\n        /* \"#utility.yul\":1444:1488   */\n      tag_44\n        /* \"#utility.yul\":1482:1487   */\n      dup3\n        /* \"#utility.yul\":1444:1488   */\n      tag_45\n      jump\t// in\n    tag_44:\n        /* \"#utility.yul\":1361:1494   */\n      swap2\n      swap1\n      pop\n      jump\t// out\n        /* \"#utility.yul\":1500:1626   */\n    tag_41:\n        /* \"#utility.yul\":1537:1544   */\n      0x00\n        /* \"#utility.yul\":1577:1619   */\n      0xffffffffffffffffffffffffffffffffffffffff\n        /* \"#utility.yul\":1570:1575   */\n      dup3\n        /* \"#utility.yul\":1566:1620   */\n      and\n        /* \"#utility.yul\":1555:1620   */\n      swap1\n      pop\n        /* \"#utility.yul\":1500:1626   */\n      swap2\n      swap1\n      pop\n      jump\t// out\n        /* \"#utility.yul\":1632:1709   */\n    tag_47:\n        /* \"#utility.yul\":1669:1676   */\n      0x00\n        /* \"#utility.yul\":1698:1703   */\n      dup2\n        /* \"#utility.yul\":1687:1703   */\n      swap1\n      pop\n        /* \"#utility.yul\":1632:1709   */\n      swap2\n      swap1\n      pop\n      jump\t// out\n        /* \"#utility.yul\":1715:1848   */\n    tag_33:\n        /* \"#utility.yul\":1774:1783   */\n      0x00\n        /* \"#utility.yul\":1807:1842   */\n      tag_50\n        /* \"#utility.yul\":1836:1841   */\n      dup3\n        /* \"#utility.yul\":1807:1842   */\n      tag_42\n      jump\t// in\n    tag_50:\n        /* \"#utility.yul\":1794:1842   */\n      swap1\n      pop\n        /* \"#utility.yul\":1715:1848   */\n      swap2\n      swap1\n      pop\n      jump\t// out\n        /* \"#utility.yul\":1854:2034   */\n    tag_51:\n        /* \"#utility.yul\":1902:1979   */\n      0x4e487b7100000000000000000000000000000000000000000000000000000000\n        /* \"#utility.yul\":1899:1900   */\n      0x00\n        /* \"#utility.yul\":1892:1980   */\n      mstore\n        /* \"#utility.yul\":1999:2003   */\n      0x21\n        /* \"#utility.yul\":1996:1997   */\n      0x04\n        /* \"#utility.yul\":1989:2004   */\n      mstore\n        /* \"#utility.yul\":2023:2027   */\n      0x24\n        /* \"#utility.yul\":2020:2021   */\n      0x00\n        /* \"#utility.yul\":2013:2028   */\n      revert\n        /* \"#utility.yul\":2163:2280   */\n    tag_27:\n        /* \"#utility.yul\":2272:2273   */\n      0x00\n        /* \"#utility.yul\":2269:2270   */\n      dup1\n        /* \"#utility.yul\":2262:2274   */\n      revert\n        /* \"#utility.yul\":2286:2402   */\n    tag_45:\n        /* \"#utility.yul\":2370:2371   */\n      0x04\n        /* \"#utility.yul\":2363:2368   */\n      dup2\n        /* \"#utility.yul\":2360:2372   */\n      lt\n        /* \"#utility.yul\":2350:2396   */\n      tag_57\n      jumpi\n        /* \"#utility.yul\":2376:2394   */\n      tag_58\n      tag_51\n      jump\t// in\n    tag_58:\n        /* \"#utility.yul\":2350:2396   */\n    tag_57:\n        /* \"#utility.yul\":2286:2402   */\n      pop\n      jump\t// out\n        /* \"#utility.yul\":2408:2530   */\n    tag_19:\n        /* \"#utility.yul\":2481:2505   */\n      tag_60\n        /* \"#utility.yul\":2499:2504   */\n      dup2\n        /* \"#utility.yul\":2481:2505   */\n      tag_38\n      jump\t// in\n    tag_60:\n        /* \"#utility.yul\":2474:2479   */\n      dup2\n        /* \"#utility.yul\":2471:2506   */\n      eq\n        /* \"#utility.yul\":2461:2524   */\n      tag_61\n      jumpi\n        /* \"#utility.yul\":2520:2521   */\n      0x00\n        /* \"#utility.yul\":2517:2518   */\n      dup1\n        /* \"#utility.yul\":2510:2522   */\n      revert\n        /* \"#utility.yul\":2461:2524   */\n    tag_61:\n        /* \"#utility.yul\":2408:2530   */\n      pop\n      jump\t// out\n        /* \"#utility.yul\":2536:2658   */\n    tag_23:\n        /* \"#utility.yul\":2609:2633   */\n      tag_63\n        /* \"#utility.yul\":2627:2632   */\n      dup2\n        /* \"#utility.yul\":2609:2633   */\n      tag_47\n      jump\t// in\n    tag_63:\n        /* \"#utility.yul\":2602:2607   */\n      dup2\n        /* \"#utility.yul\":2599:2634   */\n      eq\n        /* \"#utility.yul\":2589:2652   */\n      tag_64\n      jumpi\n        /* \"#utility.yul\":2648:2649   */\n      0x00\n        /* \"#utility.yul\":2645:2646   */\n      dup1\n        /* \"#utility.yul\":2638:2650   */\n      revert\n        /* \"#utility.yul\":2589:2652   */\n    tag_64:\n        /* \"#utility.yul\":2536:2658   */\n      pop\n      jump\t// out\n\n    auxdata: 0xa2646970667358221220eac01b46b85fb9245cb136a4e15860c91cf6b076a84db718b0451727ab115f7764736f6c63430008070033\n}\n",
				"bytecode": {
					"linkReferences": {},
					"object": "608060405234801561001057600080fd5b506102a6806100206000396000f3fe608060405234801561001057600080fd5b50600436106100365760003560e01c806367c510c91461003b578063e3306a6f1461006b575b600080fd5b6100556004803603810190610050919061012f565b610089565b604051610062919061017e565b60405180910390f35b6100736100f4565b604051610080919061017e565b60405180910390f35b6000600160008473ffffffffffffffffffffffffffffffffffffffff1673ffffffffffffffffffffffffffffffffffffffff168152602001908152602001600020600083815260200190815260200160002060090160009054906101000a900460ff16905092915050565b60008054906101000a900460ff1681565b60008135905061011481610242565b92915050565b60008135905061012981610259565b92915050565b6000806040838503121561014657610145610229565b5b600061015485828601610105565b92505060206101658582860161011a565b9150509250929050565b610178816101e8565b82525050565b6000602082019050610193600083018461016f565b92915050565b60006101a4826101be565b9050919050565b60008190506101b98261022e565b919050565b600073ffffffffffffffffffffffffffffffffffffffff82169050919050565b6000819050919050565b60006101f3826101ab565b9050919050565b7f4e487b7100000000000000000000000000000000000000000000000000000000600052602160045260246000fd5b600080fd5b6004811061023f5761023e6101fa565b5b50565b61024b81610199565b811461025657600080fd5b50565b610262816101de565b811461026d57600080fd5b5056fea2646970667358221220eac01b46b85fb9245cb136a4e15860c91cf6b076a84db718b0451727ab115f7764736f6c63430008070033",
					"opcodes": "PUSH1 0x80 PUSH1 0x40 MSTORE CALLVALUE DUP1 ISZERO PUSH2 0x10 JUMPI PUSH1 0x0 DUP1 REVERT JUMPDEST POP PUSH2 0x2A6 DUP1 PUSH2 0x20 PUSH1 0x0 CODECOPY PUSH1 0x0 RETURN INVALID PUSH1 0x80 PUSH1 0x40 MSTORE CALLVALUE DUP1 ISZERO PUSH2 0x10 JUMPI PUSH1 0x0 DUP1 REVERT JUMPDEST POP PUSH1 0x4 CALLDATASIZE LT PUSH2 0x36 JUMPI PUSH1 0x0 CALLDATALOAD PUSH1 0xE0 SHR DUP1 PUSH4 0x67C510C9 EQ PUSH2 0x3B JUMPI DUP1 PUSH4 0xE3306A6F EQ PUSH2 0x6B JUMPI JUMPDEST PUSH1 0x0 DUP1 REVERT JUMPDEST PUSH2 0x55 PUSH1 0x4 DUP1 CALLDATASIZE SUB DUP2 ADD SWAP1 PUSH2 0x50 SWAP2 SWAP1 PUSH2 0x12F JUMP JUMPDEST PUSH2 0x89 JUMP JUMPDEST PUSH1 0x40 MLOAD PUSH2 0x62 SWAP2 SWAP1 PUSH2 0x17E JUMP JUMPDEST PUSH1 0x40 MLOAD DUP1 SWAP2 SUB SWAP1 RETURN JUMPDEST PUSH2 0x73 PUSH2 0xF4 JUMP JUMPDEST PUSH1 0x40 MLOAD PUSH2 0x80 SWAP2 SWAP1 PUSH2 0x17E JUMP JUMPDEST PUSH1 0x40 MLOAD DUP1 SWAP2 SUB SWAP1 RETURN JUMPDEST PUSH1 0x0 PUSH1 0x1 PUSH1 0x0 DUP5 PUSH20 0xFFFFFFFFFFFFFFFFFFFFFFFFFFFFFFFFFFFFFFFF AND PUSH20 0xFFFFFFFFFFFFFFFFFFFFFFFFFFFFFFFFFFFFFFFF AND DUP2 MSTORE PUSH1 0x20 ADD SWAP1 DUP2 MSTORE PUSH1 0x20 ADD PUSH1 0x0 KECCAK256 PUSH1 0x0 DUP4 DUP2 MSTORE PUSH1 0x20 ADD SWAP1 DUP2 MSTORE PUSH1 0x20 ADD PUSH1 0x0 KECCAK256 PUSH1 0x9 ADD PUSH1 0x0 SWAP1 SLOAD SWAP1 PUSH2 0x100 EXP SWAP1 DIV PUSH1 0xFF AND SWAP1 POP SWAP3 SWAP2 POP POP JUMP JUMPDEST PUSH1 0x0 DUP1 SLOAD SWAP1 PUSH2 0x100 EXP SWAP1 DIV PUSH1 0xFF AND DUP2 JUMP JUMPDEST PUSH1 0x0 DUP2 CALLDATALOAD SWAP1 POP PUSH2 0x114 DUP2 PUSH2 0x242 JUMP JUMPDEST SWAP3 SWAP2 POP POP JUMP JUMPDEST PUSH1 0x0 DUP2 CALLDATALOAD SWAP1 POP PUSH2 0x129 DUP2 PUSH2 0x259 JUMP JUMPDEST SWAP3 SWAP2 POP POP JUMP JUMPDEST PUSH1 0x0 DUP1 PUSH1 0x40 DUP4 DUP6 SUB SLT ISZERO PUSH2 0x146 JUMPI PUSH2 0x145 PUSH2 0x229 JUMP JUMPDEST JUMPDEST PUSH1 0x0 PUSH2 0x154 DUP6 DUP3 DUP7 ADD PUSH2 0x105 JUMP JUMPDEST SWAP3 POP POP PUSH1 0x20 PUSH2 0x165 DUP6 DUP3 DUP7 ADD PUSH2 0x11A JUMP JUMPDEST SWAP2 POP POP SWAP3 POP SWAP3 SWAP1 POP JUMP JUMPDEST PUSH2 0x178 DUP2 PUSH2 0x1E8 JUMP JUMPDEST DUP3 MSTORE POP POP JUMP JUMPDEST PUSH1 0x0 PUSH1 0x20 DUP3 ADD SWAP1 POP PUSH2 0x193 PUSH1 0x0 DUP4 ADD DUP5 PUSH2 0x16F JUMP JUMPDEST SWAP3 SWAP2 POP POP JUMP JUMPDEST PUSH1 0x0 PUSH2 0x1A4 DUP3 PUSH2 0x1BE JUMP JUMPDEST SWAP1 POP SWAP2 SWAP1 POP JUMP JUMPDEST PUSH1 0x0 DUP2 SWAP1 POP PUSH2 0x1B9 DUP3 PUSH2 0x22E JUMP JUMPDEST SWAP2 SWAP1 POP JUMP JUMPDEST PUSH1 0x0 PUSH20 0xFFFFFFFFFFFFFFFFFFFFFFFFFFFFFFFFFFFFFFFF DUP3 AND SWAP1 POP SWAP2 SWAP1 POP JUMP JUMPDEST PUSH1 0x0 DUP2 SWAP1 POP SWAP2 SWAP1 POP JUMP JUMPDEST PUSH1 0x0 PUSH2 0x1F3 DUP3 PUSH2 0x1AB JUMP JUMPDEST SWAP1 POP SWAP2 SWAP1 POP JUMP JUMPDEST PUSH32 0x4E487B7100000000000000000000000000000000000000000000000000000000 PUSH1 0x0 MSTORE PUSH1 0x21 PUSH1 0x4 MSTORE PUSH1 0x24 PUSH1 0x0 REVERT JUMPDEST PUSH1 0x0 DUP1 REVERT JUMPDEST PUSH1 0x4 DUP2 LT PUSH2 0x23F JUMPI PUSH2 0x23E PUSH2 0x1FA JUMP JUMPDEST JUMPDEST POP JUMP JUMPDEST PUSH2 0x24B DUP2 PUSH2 0x199 JUMP JUMPDEST DUP2 EQ PUSH2 0x256 JUMPI PUSH1 0x0 DUP1 REVERT JUMPDEST POP JUMP JUMPDEST PUSH2 0x262 DUP2 PUSH2 0x1DE JUMP JUMPDEST DUP2 EQ PUSH2 0x26D JUMPI PUSH1 0x0 DUP1 REVERT JUMPDEST POP JUMP INVALID LOG2 PUSH5 0x6970667358 0x22 SLT KECCAK256 0xEA 0xC0 SHL CHAINID 0xB8 0x5F 0xB9 0x24 0x5C 0xB1 CALLDATASIZE LOG4 0xE1 PC PUSH1 0xC9 SHR 0xF6 0xB0 PUSH23 0xA84DB718B0451727AB115F7764736F6C63430008070033 "
				},
				"gasEstimates": {
					"creation": {
						"codeDepositCost": "135600",
						"executionCost": "183",
						"totalCost": "135783"
					},
					"external": {
						"CheckNftStatus(address,uint256)": "3207",
						"CurrentStatus()": "2557"
					},
					"internal": {
						"_placeNftForBids(address,uint256)": "infinite",
						"_placeNftForFixedPrice(address,uint256,uint256)": "infinite",
						"_pushBidingValues(address,address,uint256,uint256,uint256)": "infinite",
						"_removeFromSale(address,uint256)": "infinite"
					}
				},
				"methodIdentifiers": {
					"CheckNftStatus(address,uint256)": "67c510c9",
					"CurrentStatus()": "e3306a6f"
				}
			},
			"userdoc": {
				"kind": "user",
				"methods": {},
				"version": 1
			}
		}
	}
}