{
	"ERC1155.sol": {
		"ERC1155": {
			"abi": [
				{
					"anonymous": false,
					"inputs": [
						{
							"indexed": true,
							"internalType": "address",
							"name": "account",
							"type": "address"
						},
						{
							"indexed": true,
							"internalType": "address",
							"name": "operator",
							"type": "address"
						},
						{
							"indexed": false,
							"internalType": "bool",
							"name": "approved",
							"type": "bool"
						}
					],
					"name": "ApprovalForAll",
					"type": "event"
				},
				{
					"anonymous": false,
					"inputs": [
						{
							"indexed": true,
							"internalType": "address",
							"name": "operator",
							"type": "address"
						},
						{
							"indexed": true,
							"internalType": "address",
							"name": "from",
							"type": "address"
						},
						{
							"indexed": true,
							"internalType": "address",
							"name": "to",
							"type": "address"
						},
						{
							"indexed": false,
							"internalType": "uint256[]",
							"name": "ids",
							"type": "uint256[]"
						},
						{
							"indexed": false,
							"internalType": "uint256[]",
							"name": "values",
							"type": "uint256[]"
						}
					],
					"name": "TransferBatch",
					"type": "event"
				},
				{
					"anonymous": false,
					"inputs": [
						{
							"indexed": true,
							"internalType": "address",
							"name": "operator",
							"type": "address"
						},
						{
							"indexed": true,
							"internalType": "address",
							"name": "from",
							"type": "address"
						},
						{
							"indexed": true,
							"internalType": "address",
							"name": "to",
							"type": "address"
						},
						{
							"indexed": false,
							"internalType": "uint256",
							"name": "id",
							"type": "uint256"
						},
						{
							"indexed": false,
							"internalType": "uint256",
							"name": "value",
							"type": "uint256"
						}
					],
					"name": "TransferSingle",
					"type": "event"
				},
				{
					"anonymous": false,
					"inputs": [
						{
							"indexed": false,
							"internalType": "string",
							"name": "value",
							"type": "string"
						},
						{
							"indexed": true,
							"internalType": "uint256",
							"name": "id",
							"type": "uint256"
						}
					],
					"name": "URI",
					"type": "event"
				},
				{
					"inputs": [
						{
							"internalType": "address",
							"name": "account",
							"type": "address"
						},
						{
							"internalType": "uint256",
							"name": "id",
							"type": "uint256"
						}
					],
					"name": "balanceOf",
					"outputs": [
						{
							"internalType": "uint256",
							"name": "",
							"type": "uint256"
						}
					],
					"stateMutability": "view",
					"type": "function"
				},
				{
					"inputs": [
						{
							"internalType": "address[]",
							"name": "accounts",
							"type": "address[]"
						},
						{
							"internalType": "uint256[]",
							"name": "ids",
							"type": "uint256[]"
						}
					],
					"name": "balanceOfBatch",
					"outputs": [
						{
							"internalType": "uint256[]",
							"name": "",
							"type": "uint256[]"
						}
					],
					"stateMutability": "view",
					"type": "function"
				},
				{
					"inputs": [
						{
							"internalType": "address",
							"name": "account",
							"type": "address"
						},
						{
							"internalType": "address",
							"name": "operator",
							"type": "address"
						}
					],
					"name": "isApprovedForAll",
					"outputs": [
						{
							"internalType": "bool",
							"name": "",
							"type": "bool"
						}
					],
					"stateMutability": "view",
					"type": "function"
				},
				{
					"inputs": [
						{
							"internalType": "address",
							"name": "operator",
							"type": "address"
						},
						{
							"internalType": "bool",
							"name": "approved",
							"type": "bool"
						}
					],
					"name": "setApprovalForAll",
					"outputs": [],
					"stateMutability": "nonpayable",
					"type": "function"
				},
				{
					"inputs": [
						{
							"internalType": "bytes4",
							"name": "interfaceId",
							"type": "bytes4"
						}
					],
					"name": "supportsInterface",
					"outputs": [
						{
							"internalType": "bool",
							"name": "",
							"type": "bool"
						}
					],
					"stateMutability": "view",
					"type": "function"
				}
			],
			"devdoc": {
				"details": "Implementation of the basic standard multi-token. See https://eips.ethereum.org/EIPS/eip-1155 Originally based on code by Enjin: https://github.com/enjin/erc-1155 _Available since v3.1._",
				"kind": "dev",
				"methods": {
					"balanceOf(address,uint256)": {
						"details": "See {IERC1155-balanceOf}. Requirements: - `account` cannot be the zero address."
					},
					"balanceOfBatch(address[],uint256[])": {
						"details": "See {IERC1155-balanceOfBatch}. Requirements: - `accounts` and `ids` must have the same length."
					},
					"isApprovedForAll(address,address)": {
						"details": "See {IERC1155-isApprovedForAll}."
					},
					"setApprovalForAll(address,bool)": {
						"details": "See {IERC1155-setApprovalForAll}."
					},
					"supportsInterface(bytes4)": {
						"details": "See {IERC165-supportsInterface}."
					}
				},
				"version": 1
			},
			"evm": {
				"assembly": "    /* \"ERC1155.sol\":463:11112  contract ERC1155 is Context, ERC165, IERC1155 {... */\n  mstore(0x40, 0x80)\n  callvalue\n  dup1\n  iszero\n  tag_1\n  jumpi\n  0x00\n  dup1\n  revert\ntag_1:\n  pop\n  dataSize(sub_0)\n  dup1\n  dataOffset(sub_0)\n  0x00\n  codecopy\n  0x00\n  return\nstop\n\nsub_0: assembly {\n        /* \"ERC1155.sol\":463:11112  contract ERC1155 is Context, ERC165, IERC1155 {... */\n      mstore(0x40, 0x80)\n      callvalue\n      dup1\n      iszero\n      tag_1\n      jumpi\n      0x00\n      dup1\n      revert\n    tag_1:\n      pop\n      jumpi(tag_2, lt(calldatasize, 0x04))\n      shr(0xe0, calldataload(0x00))\n      dup1\n      0xfdd58e\n      eq\n      tag_3\n      jumpi\n      dup1\n      0x01ffc9a7\n      eq\n      tag_4\n      jumpi\n      dup1\n      0x4e1273f4\n      eq\n      tag_5\n      jumpi\n      dup1\n      0xa22cb465\n      eq\n      tag_6\n      jumpi\n      dup1\n      0xe985e9c5\n      eq\n      tag_7\n      jumpi\n    tag_2:\n      0x00\n      dup1\n      revert\n        /* \"ERC1155.sol\":933:1161  function balanceOf(address account, uint256 id) public view virtual override returns (uint256) {... */\n    tag_3:\n      tag_8\n      0x04\n      dup1\n      calldatasize\n      sub\n      dup2\n      add\n      swap1\n      tag_9\n      swap2\n      swap1\n      tag_10\n      jump\t// in\n    tag_9:\n      tag_11\n      jump\t// in\n    tag_8:\n      mload(0x40)\n      tag_12\n      swap2\n      swap1\n      tag_13\n      jump\t// in\n    tag_12:\n      mload(0x40)\n      dup1\n      swap2\n      sub\n      swap1\n      return\n        /* \"ERC165.sol\":829:984  function supportsInterface(bytes4 interfaceId) public view virtual override returns (bool) {... */\n    tag_4:\n      tag_14\n      0x04\n      dup1\n      calldatasize\n      sub\n      dup2\n      add\n      swap1\n      tag_15\n      swap2\n      swap1\n      tag_16\n      jump\t// in\n    tag_15:\n      tag_17\n      jump\t// in\n    tag_14:\n      mload(0x40)\n      tag_18\n      swap2\n      swap1\n      tag_19\n      jump\t// in\n    tag_18:\n      mload(0x40)\n      dup1\n      swap2\n      sub\n      swap1\n      return\n        /* \"ERC1155.sol\":1318:1826  function balanceOfBatch(address[] memory accounts, uint256[] memory ids)... */\n    tag_5:\n      tag_20\n      0x04\n      dup1\n      calldatasize\n      sub\n      dup2\n      add\n      swap1\n      tag_21\n      swap2\n      swap1\n      tag_22\n      jump\t// in\n    tag_21:\n      tag_23\n      jump\t// in\n    tag_20:\n      mload(0x40)\n      tag_24\n      swap2\n      swap1\n      tag_25\n      jump\t// in\n    tag_24:\n      mload(0x40)\n      dup1\n      swap2\n      sub\n      swap1\n      return\n        /* \"ERC1155.sol\":1894:2047  function setApprovalForAll(address operator, bool approved) public virtual override {... */\n    tag_6:\n      tag_26\n      0x04\n      dup1\n      calldatasize\n      sub\n      dup2\n      add\n      swap1\n      tag_27\n      swap2\n      swap1\n      tag_28\n      jump\t// in\n    tag_27:\n      tag_29\n      jump\t// in\n    tag_26:\n      stop\n        /* \"ERC1155.sol\":2114:2280  function isApprovedForAll(address account, address operator) public view virtual override returns (bool) {... */\n    tag_7:\n      tag_30\n      0x04\n      dup1\n      calldatasize\n      sub\n      dup2\n      add\n      swap1\n      tag_31\n      swap2\n      swap1\n      tag_32\n      jump\t// in\n    tag_31:\n      tag_33\n      jump\t// in\n    tag_30:\n      mload(0x40)\n      tag_34\n      swap2\n      swap1\n      tag_19\n      jump\t// in\n    tag_34:\n      mload(0x40)\n      dup1\n      swap2\n      sub\n      swap1\n      return\n        /* \"ERC1155.sol\":933:1161  function balanceOf(address account, uint256 id) public view virtual override returns (uint256) {... */\n    tag_11:\n        /* \"ERC1155.sol\":1019:1026  uint256 */\n      0x00\n        /* \"ERC1155.sol\":1065:1066  0 */\n      dup1\n        /* \"ERC1155.sol\":1046:1067  account != address(0) */\n      0xffffffffffffffffffffffffffffffffffffffff\n      and\n        /* \"ERC1155.sol\":1046:1053  account */\n      dup4\n        /* \"ERC1155.sol\":1046:1067  account != address(0) */\n      0xffffffffffffffffffffffffffffffffffffffff\n      and\n      eq\n      iszero\n        /* \"ERC1155.sol\":1038:1115  require(account != address(0), \"ERC1155: balance query for the zero address\") */\n      tag_36\n      jumpi\n      mload(0x40)\n      0x08c379a000000000000000000000000000000000000000000000000000000000\n      dup2\n      mstore\n      0x04\n      add\n      tag_37\n      swap1\n      tag_38\n      jump\t// in\n    tag_37:\n      mload(0x40)\n      dup1\n      swap2\n      sub\n      swap1\n      revert\n    tag_36:\n        /* \"ERC1155.sol\":1132:1141  _balances */\n      0x00\n        /* \"ERC1155.sol\":1132:1145  _balances[id] */\n      dup1\n        /* \"ERC1155.sol\":1142:1144  id */\n      dup4\n        /* \"ERC1155.sol\":1132:1145  _balances[id] */\n      dup2\n      mstore\n      0x20\n      add\n      swap1\n      dup2\n      mstore\n      0x20\n      add\n      0x00\n      keccak256\n        /* \"ERC1155.sol\":1132:1154  _balances[id][account] */\n      0x00\n        /* \"ERC1155.sol\":1146:1153  account */\n      dup5\n        /* \"ERC1155.sol\":1132:1154  _balances[id][account] */\n      0xffffffffffffffffffffffffffffffffffffffff\n      and\n      0xffffffffffffffffffffffffffffffffffffffff\n      and\n      dup2\n      mstore\n      0x20\n      add\n      swap1\n      dup2\n      mstore\n      0x20\n      add\n      0x00\n      keccak256\n      sload\n        /* \"ERC1155.sol\":1125:1154  return _balances[id][account] */\n      swap1\n      pop\n        /* \"ERC1155.sol\":933:1161  function balanceOf(address account, uint256 id) public view virtual override returns (uint256) {... */\n      swap3\n      swap2\n      pop\n      pop\n      jump\t// out\n        /* \"ERC165.sol\":829:984  function supportsInterface(bytes4 interfaceId) public view virtual override returns (bool) {... */\n    tag_17:\n        /* \"ERC165.sol\":914:918  bool */\n      0x00\n        /* \"ERC165.sol\":952:977  type(IERC165).interfaceId */\n      0x01ffc9a700000000000000000000000000000000000000000000000000000000\n        /* \"ERC165.sol\":937:977  interfaceId == type(IERC165).interfaceId */\n      not(0xffffffffffffffffffffffffffffffffffffffffffffffffffffffff)\n      and\n        /* \"ERC165.sol\":937:948  interfaceId */\n      dup3\n        /* \"ERC165.sol\":937:977  interfaceId == type(IERC165).interfaceId */\n      not(0xffffffffffffffffffffffffffffffffffffffffffffffffffffffff)\n      and\n      eq\n        /* \"ERC165.sol\":930:977  return interfaceId == type(IERC165).interfaceId */\n      swap1\n      pop\n        /* \"ERC165.sol\":829:984  function supportsInterface(bytes4 interfaceId) public view virtual override returns (bool) {... */\n      swap2\n      swap1\n      pop\n      jump\t// out\n        /* \"ERC1155.sol\":1318:1826  function balanceOfBatch(address[] memory accounts, uint256[] memory ids)... */\n    tag_23:\n        /* \"ERC1155.sol\":1469:1485  uint256[] memory */\n      0x60\n        /* \"ERC1155.sol\":1528:1531  ids */\n      dup2\n        /* \"ERC1155.sol\":1528:1538  ids.length */\n      mload\n        /* \"ERC1155.sol\":1509:1517  accounts */\n      dup4\n        /* \"ERC1155.sol\":1509:1524  accounts.length */\n      mload\n        /* \"ERC1155.sol\":1509:1538  accounts.length == ids.length */\n      eq\n        /* \"ERC1155.sol\":1501:1584  require(accounts.length == ids.length, \"ERC1155: accounts and ids length mismatch\") */\n      tag_41\n      jumpi\n      mload(0x40)\n      0x08c379a000000000000000000000000000000000000000000000000000000000\n      dup2\n      mstore\n      0x04\n      add\n      tag_42\n      swap1\n      tag_43\n      jump\t// in\n    tag_42:\n      mload(0x40)\n      dup1\n      swap2\n      sub\n      swap1\n      revert\n    tag_41:\n        /* \"ERC1155.sol\":1595:1625  uint256[] memory batchBalances */\n      0x00\n        /* \"ERC1155.sol\":1642:1650  accounts */\n      dup4\n        /* \"ERC1155.sol\":1642:1657  accounts.length */\n      mload\n        /* \"ERC1155.sol\":1628:1658  new uint256[](accounts.length) */\n      0xffffffffffffffff\n      dup2\n      gt\n      iszero\n      tag_44\n      jumpi\n      tag_45\n      tag_46\n      jump\t// in\n    tag_45:\n    tag_44:\n      mload(0x40)\n      swap1\n      dup1\n      dup3\n      mstore\n      dup1\n      0x20\n      mul\n      0x20\n      add\n      dup3\n      add\n      0x40\n      mstore\n      dup1\n      iszero\n      tag_47\n      jumpi\n      dup2\n      0x20\n      add\n      0x20\n      dup3\n      mul\n      dup1\n      calldatasize\n      dup4\n      calldatacopy\n      dup1\n      dup3\n      add\n      swap2\n      pop\n      pop\n      swap1\n      pop\n    tag_47:\n      pop\n        /* \"ERC1155.sol\":1595:1658  uint256[] memory batchBalances = new uint256[](accounts.length) */\n      swap1\n      pop\n        /* \"ERC1155.sol\":1674:1683  uint256 i */\n      0x00\n        /* \"ERC1155.sol\":1669:1789  for (uint256 i = 0; i < accounts.length; ++i) {... */\n    tag_48:\n        /* \"ERC1155.sol\":1693:1701  accounts */\n      dup5\n        /* \"ERC1155.sol\":1693:1708  accounts.length */\n      mload\n        /* \"ERC1155.sol\":1689:1690  i */\n      dup2\n        /* \"ERC1155.sol\":1689:1708  i < accounts.length */\n      lt\n        /* \"ERC1155.sol\":1669:1789  for (uint256 i = 0; i < accounts.length; ++i) {... */\n      iszero\n      tag_49\n      jumpi\n        /* \"ERC1155.sol\":1748:1778  balanceOf(accounts[i], ids[i]) */\n      tag_51\n        /* \"ERC1155.sol\":1758:1766  accounts */\n      dup6\n        /* \"ERC1155.sol\":1767:1768  i */\n      dup3\n        /* \"ERC1155.sol\":1758:1769  accounts[i] */\n      dup2\n      mload\n      dup2\n      lt\n      tag_52\n      jumpi\n      tag_53\n      tag_54\n      jump\t// in\n    tag_53:\n    tag_52:\n      0x20\n      mul\n      0x20\n      add\n      add\n      mload\n        /* \"ERC1155.sol\":1771:1774  ids */\n      dup6\n        /* \"ERC1155.sol\":1775:1776  i */\n      dup4\n        /* \"ERC1155.sol\":1771:1777  ids[i] */\n      dup2\n      mload\n      dup2\n      lt\n      tag_55\n      jumpi\n      tag_56\n      tag_54\n      jump\t// in\n    tag_56:\n    tag_55:\n      0x20\n      mul\n      0x20\n      add\n      add\n      mload\n        /* \"ERC1155.sol\":1748:1757  balanceOf */\n      tag_11\n        /* \"ERC1155.sol\":1748:1778  balanceOf(accounts[i], ids[i]) */\n      jump\t// in\n    tag_51:\n        /* \"ERC1155.sol\":1729:1742  batchBalances */\n      dup3\n        /* \"ERC1155.sol\":1743:1744  i */\n      dup3\n        /* \"ERC1155.sol\":1729:1745  batchBalances[i] */\n      dup2\n      mload\n      dup2\n      lt\n      tag_57\n      jumpi\n      tag_58\n      tag_54\n      jump\t// in\n    tag_58:\n    tag_57:\n      0x20\n      mul\n      0x20\n      add\n      add\n        /* \"ERC1155.sol\":1729:1778  batchBalances[i] = balanceOf(accounts[i], ids[i]) */\n      dup2\n      dup2\n      mstore\n      pop\n      pop\n        /* \"ERC1155.sol\":1710:1713  ++i */\n      dup1\n      tag_59\n      swap1\n      tag_60\n      jump\t// in\n    tag_59:\n      swap1\n      pop\n        /* \"ERC1155.sol\":1669:1789  for (uint256 i = 0; i < accounts.length; ++i) {... */\n      jump(tag_48)\n    tag_49:\n      pop\n        /* \"ERC1155.sol\":1806:1819  batchBalances */\n      dup1\n        /* \"ERC1155.sol\":1799:1819  return batchBalances */\n      swap2\n      pop\n      pop\n        /* \"ERC1155.sol\":1318:1826  function balanceOfBatch(address[] memory accounts, uint256[] memory ids)... */\n      swap3\n      swap2\n      pop\n      pop\n      jump\t// out\n        /* \"ERC1155.sol\":1894:2047  function setApprovalForAll(address operator, bool approved) public virtual override {... */\n    tag_29:\n        /* \"ERC1155.sol\":1988:2040  _setApprovalForAll(_msgSender(), operator, approved) */\n      tag_62\n        /* \"ERC1155.sol\":2007:2019  _msgSender() */\n      tag_63\n        /* \"ERC1155.sol\":2007:2017  _msgSender */\n      tag_64\n        /* \"ERC1155.sol\":2007:2019  _msgSender() */\n      jump\t// in\n    tag_63:\n        /* \"ERC1155.sol\":2021:2029  operator */\n      dup4\n        /* \"ERC1155.sol\":2031:2039  approved */\n      dup4\n        /* \"ERC1155.sol\":1988:2006  _setApprovalForAll */\n      tag_65\n        /* \"ERC1155.sol\":1988:2040  _setApprovalForAll(_msgSender(), operator, approved) */\n      jump\t// in\n    tag_62:\n        /* \"ERC1155.sol\":1894:2047  function setApprovalForAll(address operator, bool approved) public virtual override {... */\n      pop\n      pop\n      jump\t// out\n        /* \"ERC1155.sol\":2114:2280  function isApprovedForAll(address account, address operator) public view virtual override returns (bool) {... */\n    tag_33:\n        /* \"ERC1155.sol\":2213:2217  bool */\n      0x00\n        /* \"ERC1155.sol\":2236:2254  _operatorApprovals */\n      0x01\n        /* \"ERC1155.sol\":2236:2263  _operatorApprovals[account] */\n      0x00\n        /* \"ERC1155.sol\":2255:2262  account */\n      dup5\n        /* \"ERC1155.sol\":2236:2263  _operatorApprovals[account] */\n      0xffffffffffffffffffffffffffffffffffffffff\n      and\n      0xffffffffffffffffffffffffffffffffffffffff\n      and\n      dup2\n      mstore\n      0x20\n      add\n      swap1\n      dup2\n      mstore\n      0x20\n      add\n      0x00\n      keccak256\n        /* \"ERC1155.sol\":2236:2273  _operatorApprovals[account][operator] */\n      0x00\n        /* \"ERC1155.sol\":2264:2272  operator */\n      dup4\n        /* \"ERC1155.sol\":2236:2273  _operatorApprovals[account][operator] */\n      0xffffffffffffffffffffffffffffffffffffffff\n      and\n      0xffffffffffffffffffffffffffffffffffffffff\n      and\n      dup2\n      mstore\n      0x20\n      add\n      swap1\n      dup2\n      mstore\n      0x20\n      add\n      0x00\n      keccak256\n      0x00\n      swap1\n      sload\n      swap1\n      0x0100\n      exp\n      swap1\n      div\n      0xff\n      and\n        /* \"ERC1155.sol\":2229:2273  return _operatorApprovals[account][operator] */\n      swap1\n      pop\n        /* \"ERC1155.sol\":2114:2280  function isApprovedForAll(address account, address operator) public view virtual override returns (bool) {... */\n      swap3\n      swap2\n      pop\n      pop\n      jump\t// out\n        /* \"Context.sol\":640:736  function _msgSender() internal view virtual returns (address) {... */\n    tag_64:\n        /* \"Context.sol\":693:700  address */\n      0x00\n        /* \"Context.sol\":719:729  msg.sender */\n      caller\n        /* \"Context.sol\":712:729  return msg.sender */\n      swap1\n      pop\n        /* \"Context.sol\":640:736  function _msgSender() internal view virtual returns (address) {... */\n      swap1\n      jump\t// out\n        /* \"ERC1155.sol\":7910:8233  function _setApprovalForAll(... */\n    tag_65:\n        /* \"ERC1155.sol\":8060:8068  operator */\n      dup2\n        /* \"ERC1155.sol\":8051:8068  owner != operator */\n      0xffffffffffffffffffffffffffffffffffffffff\n      and\n        /* \"ERC1155.sol\":8051:8056  owner */\n      dup4\n        /* \"ERC1155.sol\":8051:8068  owner != operator */\n      0xffffffffffffffffffffffffffffffffffffffff\n      and\n      eq\n      iszero\n        /* \"ERC1155.sol\":8043:8114  require(owner != operator, \"ERC1155: setting approval status for self\") */\n      tag_69\n      jumpi\n      mload(0x40)\n      0x08c379a000000000000000000000000000000000000000000000000000000000\n      dup2\n      mstore\n      0x04\n      add\n      tag_70\n      swap1\n      tag_71\n      jump\t// in\n    tag_70:\n      mload(0x40)\n      dup1\n      swap2\n      sub\n      swap1\n      revert\n    tag_69:\n        /* \"ERC1155.sol\":8162:8170  approved */\n      dup1\n        /* \"ERC1155.sol\":8124:8142  _operatorApprovals */\n      0x01\n        /* \"ERC1155.sol\":8124:8149  _operatorApprovals[owner] */\n      0x00\n        /* \"ERC1155.sol\":8143:8148  owner */\n      dup6\n        /* \"ERC1155.sol\":8124:8149  _operatorApprovals[owner] */\n      0xffffffffffffffffffffffffffffffffffffffff\n      and\n      0xffffffffffffffffffffffffffffffffffffffff\n      and\n      dup2\n      mstore\n      0x20\n      add\n      swap1\n      dup2\n      mstore\n      0x20\n      add\n      0x00\n      keccak256\n        /* \"ERC1155.sol\":8124:8159  _operatorApprovals[owner][operator] */\n      0x00\n        /* \"ERC1155.sol\":8150:8158  operator */\n      dup5\n        /* \"ERC1155.sol\":8124:8159  _operatorApprovals[owner][operator] */\n      0xffffffffffffffffffffffffffffffffffffffff\n      and\n      0xffffffffffffffffffffffffffffffffffffffff\n      and\n      dup2\n      mstore\n      0x20\n      add\n      swap1\n      dup2\n      mstore\n      0x20\n      add\n      0x00\n      keccak256\n      0x00\n        /* \"ERC1155.sol\":8124:8170  _operatorApprovals[owner][operator] = approved */\n      0x0100\n      exp\n      dup2\n      sload\n      dup2\n      0xff\n      mul\n      not\n      and\n      swap1\n      dup4\n      iszero\n      iszero\n      mul\n      or\n      swap1\n      sstore\n      pop\n        /* \"ERC1155.sol\":8207:8215  operator */\n      dup2\n        /* \"ERC1155.sol\":8185:8226  ApprovalForAll(owner, operator, approved) */\n      0xffffffffffffffffffffffffffffffffffffffff\n      and\n        /* \"ERC1155.sol\":8200:8205  owner */\n      dup4\n        /* \"ERC1155.sol\":8185:8226  ApprovalForAll(owner, operator, approved) */\n      0xffffffffffffffffffffffffffffffffffffffff\n      and\n      0x17307eab39ab6107e8899845ad3d59bd9653f200f220920489ca2b5937696c31\n        /* \"ERC1155.sol\":8217:8225  approved */\n      dup4\n        /* \"ERC1155.sol\":8185:8226  ApprovalForAll(owner, operator, approved) */\n      mload(0x40)\n      tag_72\n      swap2\n      swap1\n      tag_19\n      jump\t// in\n    tag_72:\n      mload(0x40)\n      dup1\n      swap2\n      sub\n      swap1\n      log3\n        /* \"ERC1155.sol\":7910:8233  function _setApprovalForAll(... */\n      pop\n      pop\n      pop\n      jump\t// out\n        /* \"#utility.yul\":24:746   */\n    tag_74:\n        /* \"#utility.yul\":120:125   */\n      0x00\n        /* \"#utility.yul\":145:226   */\n      tag_76\n        /* \"#utility.yul\":161:225   */\n      tag_77\n        /* \"#utility.yul\":218:224   */\n      dup5\n        /* \"#utility.yul\":161:225   */\n      tag_78\n      jump\t// in\n    tag_77:\n        /* \"#utility.yul\":145:226   */\n      tag_79\n      jump\t// in\n    tag_76:\n        /* \"#utility.yul\":136:226   */\n      swap1\n      pop\n        /* \"#utility.yul\":246:251   */\n      dup1\n        /* \"#utility.yul\":275:281   */\n      dup4\n        /* \"#utility.yul\":268:273   */\n      dup3\n        /* \"#utility.yul\":261:282   */\n      mstore\n        /* \"#utility.yul\":309:313   */\n      0x20\n        /* \"#utility.yul\":302:307   */\n      dup3\n        /* \"#utility.yul\":298:314   */\n      add\n        /* \"#utility.yul\":291:314   */\n      swap1\n      pop\n        /* \"#utility.yul\":335:341   */\n      dup3\n        /* \"#utility.yul\":385:388   */\n      dup6\n        /* \"#utility.yul\":377:381   */\n      0x20\n        /* \"#utility.yul\":369:375   */\n      dup7\n        /* \"#utility.yul\":365:382   */\n      mul\n        /* \"#utility.yul\":360:363   */\n      dup3\n        /* \"#utility.yul\":356:383   */\n      add\n        /* \"#utility.yul\":353:389   */\n      gt\n        /* \"#utility.yul\":350:493   */\n      iszero\n      tag_80\n      jumpi\n        /* \"#utility.yul\":404:483   */\n      tag_81\n      tag_82\n      jump\t// in\n    tag_81:\n        /* \"#utility.yul\":350:493   */\n    tag_80:\n        /* \"#utility.yul\":517:518   */\n      0x00\n        /* \"#utility.yul\":502:740   */\n    tag_83:\n        /* \"#utility.yul\":527:533   */\n      dup6\n        /* \"#utility.yul\":524:525   */\n      dup2\n        /* \"#utility.yul\":521:534   */\n      lt\n        /* \"#utility.yul\":502:740   */\n      iszero\n      tag_85\n      jumpi\n        /* \"#utility.yul\":595:598   */\n      dup2\n        /* \"#utility.yul\":624:661   */\n      tag_86\n        /* \"#utility.yul\":657:660   */\n      dup9\n        /* \"#utility.yul\":645:655   */\n      dup3\n        /* \"#utility.yul\":624:661   */\n      tag_87\n      jump\t// in\n    tag_86:\n        /* \"#utility.yul\":619:622   */\n      dup5\n        /* \"#utility.yul\":612:662   */\n      mstore\n        /* \"#utility.yul\":691:695   */\n      0x20\n        /* \"#utility.yul\":686:689   */\n      dup5\n        /* \"#utility.yul\":682:696   */\n      add\n        /* \"#utility.yul\":675:696   */\n      swap4\n      pop\n        /* \"#utility.yul\":725:729   */\n      0x20\n        /* \"#utility.yul\":720:723   */\n      dup4\n        /* \"#utility.yul\":716:730   */\n      add\n        /* \"#utility.yul\":709:730   */\n      swap3\n      pop\n        /* \"#utility.yul\":562:740   */\n      pop\n        /* \"#utility.yul\":549:550   */\n      0x01\n        /* \"#utility.yul\":546:547   */\n      dup2\n        /* \"#utility.yul\":542:551   */\n      add\n        /* \"#utility.yul\":537:551   */\n      swap1\n      pop\n        /* \"#utility.yul\":502:740   */\n      jump(tag_83)\n    tag_85:\n        /* \"#utility.yul\":506:520   */\n      pop\n        /* \"#utility.yul\":126:746   */\n      pop\n      pop\n        /* \"#utility.yul\":24:746   */\n      swap4\n      swap3\n      pop\n      pop\n      pop\n      jump\t// out\n        /* \"#utility.yul\":769:1491   */\n    tag_88:\n        /* \"#utility.yul\":865:870   */\n      0x00\n        /* \"#utility.yul\":890:971   */\n      tag_90\n        /* \"#utility.yul\":906:970   */\n      tag_91\n        /* \"#utility.yul\":963:969   */\n      dup5\n        /* \"#utility.yul\":906:970   */\n      tag_92\n      jump\t// in\n    tag_91:\n        /* \"#utility.yul\":890:971   */\n      tag_79\n      jump\t// in\n    tag_90:\n        /* \"#utility.yul\":881:971   */\n      swap1\n      pop\n        /* \"#utility.yul\":991:996   */\n      dup1\n        /* \"#utility.yul\":1020:1026   */\n      dup4\n        /* \"#utility.yul\":1013:1018   */\n      dup3\n        /* \"#utility.yul\":1006:1027   */\n      mstore\n        /* \"#utility.yul\":1054:1058   */\n      0x20\n        /* \"#utility.yul\":1047:1052   */\n      dup3\n        /* \"#utility.yul\":1043:1059   */\n      add\n        /* \"#utility.yul\":1036:1059   */\n      swap1\n      pop\n        /* \"#utility.yul\":1080:1086   */\n      dup3\n        /* \"#utility.yul\":1130:1133   */\n      dup6\n        /* \"#utility.yul\":1122:1126   */\n      0x20\n        /* \"#utility.yul\":1114:1120   */\n      dup7\n        /* \"#utility.yul\":1110:1127   */\n      mul\n        /* \"#utility.yul\":1105:1108   */\n      dup3\n        /* \"#utility.yul\":1101:1128   */\n      add\n        /* \"#utility.yul\":1098:1134   */\n      gt\n        /* \"#utility.yul\":1095:1238   */\n      iszero\n      tag_93\n      jumpi\n        /* \"#utility.yul\":1149:1228   */\n      tag_94\n      tag_82\n      jump\t// in\n    tag_94:\n        /* \"#utility.yul\":1095:1238   */\n    tag_93:\n        /* \"#utility.yul\":1262:1263   */\n      0x00\n        /* \"#utility.yul\":1247:1485   */\n    tag_95:\n        /* \"#utility.yul\":1272:1278   */\n      dup6\n        /* \"#utility.yul\":1269:1270   */\n      dup2\n        /* \"#utility.yul\":1266:1279   */\n      lt\n        /* \"#utility.yul\":1247:1485   */\n      iszero\n      tag_97\n      jumpi\n        /* \"#utility.yul\":1340:1343   */\n      dup2\n        /* \"#utility.yul\":1369:1406   */\n      tag_98\n        /* \"#utility.yul\":1402:1405   */\n      dup9\n        /* \"#utility.yul\":1390:1400   */\n      dup3\n        /* \"#utility.yul\":1369:1406   */\n      tag_99\n      jump\t// in\n    tag_98:\n        /* \"#utility.yul\":1364:1367   */\n      dup5\n        /* \"#utility.yul\":1357:1407   */\n      mstore\n        /* \"#utility.yul\":1436:1440   */\n      0x20\n        /* \"#utility.yul\":1431:1434   */\n      dup5\n        /* \"#utility.yul\":1427:1441   */\n      add\n        /* \"#utility.yul\":1420:1441   */\n      swap4\n      pop\n        /* \"#utility.yul\":1470:1474   */\n      0x20\n        /* \"#utility.yul\":1465:1468   */\n      dup4\n        /* \"#utility.yul\":1461:1475   */\n      add\n        /* \"#utility.yul\":1454:1475   */\n      swap3\n      pop\n        /* \"#utility.yul\":1307:1485   */\n      pop\n        /* \"#utility.yul\":1294:1295   */\n      0x01\n        /* \"#utility.yul\":1291:1292   */\n      dup2\n        /* \"#utility.yul\":1287:1296   */\n      add\n        /* \"#utility.yul\":1282:1296   */\n      swap1\n      pop\n        /* \"#utility.yul\":1247:1485   */\n      jump(tag_95)\n    tag_97:\n        /* \"#utility.yul\":1251:1265   */\n      pop\n        /* \"#utility.yul\":871:1491   */\n      pop\n      pop\n        /* \"#utility.yul\":769:1491   */\n      swap4\n      swap3\n      pop\n      pop\n      pop\n      jump\t// out\n        /* \"#utility.yul\":1497:1636   */\n    tag_87:\n        /* \"#utility.yul\":1543:1548   */\n      0x00\n        /* \"#utility.yul\":1581:1587   */\n      dup2\n        /* \"#utility.yul\":1568:1588   */\n      calldataload\n        /* \"#utility.yul\":1559:1588   */\n      swap1\n      pop\n        /* \"#utility.yul\":1597:1630   */\n      tag_101\n        /* \"#utility.yul\":1624:1629   */\n      dup2\n        /* \"#utility.yul\":1597:1630   */\n      tag_102\n      jump\t// in\n    tag_101:\n        /* \"#utility.yul\":1497:1636   */\n      swap3\n      swap2\n      pop\n      pop\n      jump\t// out\n        /* \"#utility.yul\":1659:2029   */\n    tag_103:\n        /* \"#utility.yul\":1730:1735   */\n      0x00\n        /* \"#utility.yul\":1779:1782   */\n      dup3\n        /* \"#utility.yul\":1772:1776   */\n      0x1f\n        /* \"#utility.yul\":1764:1770   */\n      dup4\n        /* \"#utility.yul\":1760:1777   */\n      add\n        /* \"#utility.yul\":1756:1783   */\n      slt\n        /* \"#utility.yul\":1746:1868   */\n      tag_105\n      jumpi\n        /* \"#utility.yul\":1787:1866   */\n      tag_106\n      tag_107\n      jump\t// in\n    tag_106:\n        /* \"#utility.yul\":1746:1868   */\n    tag_105:\n        /* \"#utility.yul\":1904:1910   */\n      dup2\n        /* \"#utility.yul\":1891:1911   */\n      calldataload\n        /* \"#utility.yul\":1929:2023   */\n      tag_108\n        /* \"#utility.yul\":2019:2022   */\n      dup5\n        /* \"#utility.yul\":2011:2017   */\n      dup3\n        /* \"#utility.yul\":2004:2008   */\n      0x20\n        /* \"#utility.yul\":1996:2002   */\n      dup7\n        /* \"#utility.yul\":1992:2009   */\n      add\n        /* \"#utility.yul\":1929:2023   */\n      tag_74\n      jump\t// in\n    tag_108:\n        /* \"#utility.yul\":1920:2023   */\n      swap2\n      pop\n        /* \"#utility.yul\":1736:2029   */\n      pop\n        /* \"#utility.yul\":1659:2029   */\n      swap3\n      swap2\n      pop\n      pop\n      jump\t// out\n        /* \"#utility.yul\":2052:2422   */\n    tag_109:\n        /* \"#utility.yul\":2123:2128   */\n      0x00\n        /* \"#utility.yul\":2172:2175   */\n      dup3\n        /* \"#utility.yul\":2165:2169   */\n      0x1f\n        /* \"#utility.yul\":2157:2163   */\n      dup4\n        /* \"#utility.yul\":2153:2170   */\n      add\n        /* \"#utility.yul\":2149:2176   */\n      slt\n        /* \"#utility.yul\":2139:2261   */\n      tag_111\n      jumpi\n        /* \"#utility.yul\":2180:2259   */\n      tag_112\n      tag_107\n      jump\t// in\n    tag_112:\n        /* \"#utility.yul\":2139:2261   */\n    tag_111:\n        /* \"#utility.yul\":2297:2303   */\n      dup2\n        /* \"#utility.yul\":2284:2304   */\n      calldataload\n        /* \"#utility.yul\":2322:2416   */\n      tag_113\n        /* \"#utility.yul\":2412:2415   */\n      dup5\n        /* \"#utility.yul\":2404:2410   */\n      dup3\n        /* \"#utility.yul\":2397:2401   */\n      0x20\n        /* \"#utility.yul\":2389:2395   */\n      dup7\n        /* \"#utility.yul\":2385:2402   */\n      add\n        /* \"#utility.yul\":2322:2416   */\n      tag_88\n      jump\t// in\n    tag_113:\n        /* \"#utility.yul\":2313:2416   */\n      swap2\n      pop\n        /* \"#utility.yul\":2129:2422   */\n      pop\n        /* \"#utility.yul\":2052:2422   */\n      swap3\n      swap2\n      pop\n      pop\n      jump\t// out\n        /* \"#utility.yul\":2428:2561   */\n    tag_114:\n        /* \"#utility.yul\":2471:2476   */\n      0x00\n        /* \"#utility.yul\":2509:2515   */\n      dup2\n        /* \"#utility.yul\":2496:2516   */\n      calldataload\n        /* \"#utility.yul\":2487:2516   */\n      swap1\n      pop\n        /* \"#utility.yul\":2525:2555   */\n      tag_116\n        /* \"#utility.yul\":2549:2554   */\n      dup2\n        /* \"#utility.yul\":2525:2555   */\n      tag_117\n      jump\t// in\n    tag_116:\n        /* \"#utility.yul\":2428:2561   */\n      swap3\n      swap2\n      pop\n      pop\n      jump\t// out\n        /* \"#utility.yul\":2567:2704   */\n    tag_118:\n        /* \"#utility.yul\":2612:2617   */\n      0x00\n        /* \"#utility.yul\":2650:2656   */\n      dup2\n        /* \"#utility.yul\":2637:2657   */\n      calldataload\n        /* \"#utility.yul\":2628:2657   */\n      swap1\n      pop\n        /* \"#utility.yul\":2666:2698   */\n      tag_120\n        /* \"#utility.yul\":2692:2697   */\n      dup2\n        /* \"#utility.yul\":2666:2698   */\n      tag_121\n      jump\t// in\n    tag_120:\n        /* \"#utility.yul\":2567:2704   */\n      swap3\n      swap2\n      pop\n      pop\n      jump\t// out\n        /* \"#utility.yul\":2710:2849   */\n    tag_99:\n        /* \"#utility.yul\":2756:2761   */\n      0x00\n        /* \"#utility.yul\":2794:2800   */\n      dup2\n        /* \"#utility.yul\":2781:2801   */\n      calldataload\n        /* \"#utility.yul\":2772:2801   */\n      swap1\n      pop\n        /* \"#utility.yul\":2810:2843   */\n      tag_123\n        /* \"#utility.yul\":2837:2842   */\n      dup2\n        /* \"#utility.yul\":2810:2843   */\n      tag_124\n      jump\t// in\n    tag_123:\n        /* \"#utility.yul\":2710:2849   */\n      swap3\n      swap2\n      pop\n      pop\n      jump\t// out\n        /* \"#utility.yul\":2855:3329   */\n    tag_32:\n        /* \"#utility.yul\":2923:2929   */\n      0x00\n        /* \"#utility.yul\":2931:2937   */\n      dup1\n        /* \"#utility.yul\":2980:2982   */\n      0x40\n        /* \"#utility.yul\":2968:2977   */\n      dup4\n        /* \"#utility.yul\":2959:2966   */\n      dup6\n        /* \"#utility.yul\":2955:2978   */\n      sub\n        /* \"#utility.yul\":2951:2983   */\n      slt\n        /* \"#utility.yul\":2948:3067   */\n      iszero\n      tag_126\n      jumpi\n        /* \"#utility.yul\":2986:3065   */\n      tag_127\n      tag_128\n      jump\t// in\n    tag_127:\n        /* \"#utility.yul\":2948:3067   */\n    tag_126:\n        /* \"#utility.yul\":3106:3107   */\n      0x00\n        /* \"#utility.yul\":3131:3184   */\n      tag_129\n        /* \"#utility.yul\":3176:3183   */\n      dup6\n        /* \"#utility.yul\":3167:3173   */\n      dup3\n        /* \"#utility.yul\":3156:3165   */\n      dup7\n        /* \"#utility.yul\":3152:3174   */\n      add\n        /* \"#utility.yul\":3131:3184   */\n      tag_87\n      jump\t// in\n    tag_129:\n        /* \"#utility.yul\":3121:3184   */\n      swap3\n      pop\n        /* \"#utility.yul\":3077:3194   */\n      pop\n        /* \"#utility.yul\":3233:3235   */\n      0x20\n        /* \"#utility.yul\":3259:3312   */\n      tag_130\n        /* \"#utility.yul\":3304:3311   */\n      dup6\n        /* \"#utility.yul\":3295:3301   */\n      dup3\n        /* \"#utility.yul\":3284:3293   */\n      dup7\n        /* \"#utility.yul\":3280:3302   */\n      add\n        /* \"#utility.yul\":3259:3312   */\n      tag_87\n      jump\t// in\n    tag_130:\n        /* \"#utility.yul\":3249:3312   */\n      swap2\n      pop\n        /* \"#utility.yul\":3204:3322   */\n      pop\n        /* \"#utility.yul\":2855:3329   */\n      swap3\n      pop\n      swap3\n      swap1\n      pop\n      jump\t// out\n        /* \"#utility.yul\":3335:3803   */\n    tag_28:\n        /* \"#utility.yul\":3400:3406   */\n      0x00\n        /* \"#utility.yul\":3408:3414   */\n      dup1\n        /* \"#utility.yul\":3457:3459   */\n      0x40\n        /* \"#utility.yul\":3445:3454   */\n      dup4\n        /* \"#utility.yul\":3436:3443   */\n      dup6\n        /* \"#utility.yul\":3432:3455   */\n      sub\n        /* \"#utility.yul\":3428:3460   */\n      slt\n        /* \"#utility.yul\":3425:3544   */\n      iszero\n      tag_132\n      jumpi\n        /* \"#utility.yul\":3463:3542   */\n      tag_133\n      tag_128\n      jump\t// in\n    tag_133:\n        /* \"#utility.yul\":3425:3544   */\n    tag_132:\n        /* \"#utility.yul\":3583:3584   */\n      0x00\n        /* \"#utility.yul\":3608:3661   */\n      tag_134\n        /* \"#utility.yul\":3653:3660   */\n      dup6\n        /* \"#utility.yul\":3644:3650   */\n      dup3\n        /* \"#utility.yul\":3633:3642   */\n      dup7\n        /* \"#utility.yul\":3629:3651   */\n      add\n        /* \"#utility.yul\":3608:3661   */\n      tag_87\n      jump\t// in\n    tag_134:\n        /* \"#utility.yul\":3598:3661   */\n      swap3\n      pop\n        /* \"#utility.yul\":3554:3671   */\n      pop\n        /* \"#utility.yul\":3710:3712   */\n      0x20\n        /* \"#utility.yul\":3736:3786   */\n      tag_135\n        /* \"#utility.yul\":3778:3785   */\n      dup6\n        /* \"#utility.yul\":3769:3775   */\n      dup3\n        /* \"#utility.yul\":3758:3767   */\n      dup7\n        /* \"#utility.yul\":3754:3776   */\n      add\n        /* \"#utility.yul\":3736:3786   */\n      tag_114\n      jump\t// in\n    tag_135:\n        /* \"#utility.yul\":3726:3786   */\n      swap2\n      pop\n        /* \"#utility.yul\":3681:3796   */\n      pop\n        /* \"#utility.yul\":3335:3803   */\n      swap3\n      pop\n      swap3\n      swap1\n      pop\n      jump\t// out\n        /* \"#utility.yul\":3809:4283   */\n    tag_10:\n        /* \"#utility.yul\":3877:3883   */\n      0x00\n        /* \"#utility.yul\":3885:3891   */\n      dup1\n        /* \"#utility.yul\":3934:3936   */\n      0x40\n        /* \"#utility.yul\":3922:3931   */\n      dup4\n        /* \"#utility.yul\":3913:3920   */\n      dup6\n        /* \"#utility.yul\":3909:3932   */\n      sub\n        /* \"#utility.yul\":3905:3937   */\n      slt\n        /* \"#utility.yul\":3902:4021   */\n      iszero\n      tag_137\n      jumpi\n        /* \"#utility.yul\":3940:4019   */\n      tag_138\n      tag_128\n      jump\t// in\n    tag_138:\n        /* \"#utility.yul\":3902:4021   */\n    tag_137:\n        /* \"#utility.yul\":4060:4061   */\n      0x00\n        /* \"#utility.yul\":4085:4138   */\n      tag_139\n        /* \"#utility.yul\":4130:4137   */\n      dup6\n        /* \"#utility.yul\":4121:4127   */\n      dup3\n        /* \"#utility.yul\":4110:4119   */\n      dup7\n        /* \"#utility.yul\":4106:4128   */\n      add\n        /* \"#utility.yul\":4085:4138   */\n      tag_87\n      jump\t// in\n    tag_139:\n        /* \"#utility.yul\":4075:4138   */\n      swap3\n      pop\n        /* \"#utility.yul\":4031:4148   */\n      pop\n        /* \"#utility.yul\":4187:4189   */\n      0x20\n        /* \"#utility.yul\":4213:4266   */\n      tag_140\n        /* \"#utility.yul\":4258:4265   */\n      dup6\n        /* \"#utility.yul\":4249:4255   */\n      dup3\n        /* \"#utility.yul\":4238:4247   */\n      dup7\n        /* \"#utility.yul\":4234:4256   */\n      add\n        /* \"#utility.yul\":4213:4266   */\n      tag_99\n      jump\t// in\n    tag_140:\n        /* \"#utility.yul\":4203:4266   */\n      swap2\n      pop\n        /* \"#utility.yul\":4158:4276   */\n      pop\n        /* \"#utility.yul\":3809:4283   */\n      swap3\n      pop\n      swap3\n      swap1\n      pop\n      jump\t// out\n        /* \"#utility.yul\":4289:5183   */\n    tag_22:\n        /* \"#utility.yul\":4407:4413   */\n      0x00\n        /* \"#utility.yul\":4415:4421   */\n      dup1\n        /* \"#utility.yul\":4464:4466   */\n      0x40\n        /* \"#utility.yul\":4452:4461   */\n      dup4\n        /* \"#utility.yul\":4443:4450   */\n      dup6\n        /* \"#utility.yul\":4439:4462   */\n      sub\n        /* \"#utility.yul\":4435:4467   */\n      slt\n        /* \"#utility.yul\":4432:4551   */\n      iszero\n      tag_142\n      jumpi\n        /* \"#utility.yul\":4470:4549   */\n      tag_143\n      tag_128\n      jump\t// in\n    tag_143:\n        /* \"#utility.yul\":4432:4551   */\n    tag_142:\n        /* \"#utility.yul\":4618:4619   */\n      0x00\n        /* \"#utility.yul\":4607:4616   */\n      dup4\n        /* \"#utility.yul\":4603:4620   */\n      add\n        /* \"#utility.yul\":4590:4621   */\n      calldataload\n        /* \"#utility.yul\":4648:4666   */\n      0xffffffffffffffff\n        /* \"#utility.yul\":4640:4646   */\n      dup2\n        /* \"#utility.yul\":4637:4667   */\n      gt\n        /* \"#utility.yul\":4634:4751   */\n      iszero\n      tag_144\n      jumpi\n        /* \"#utility.yul\":4670:4749   */\n      tag_145\n      tag_146\n      jump\t// in\n    tag_145:\n        /* \"#utility.yul\":4634:4751   */\n    tag_144:\n        /* \"#utility.yul\":4775:4853   */\n      tag_147\n        /* \"#utility.yul\":4845:4852   */\n      dup6\n        /* \"#utility.yul\":4836:4842   */\n      dup3\n        /* \"#utility.yul\":4825:4834   */\n      dup7\n        /* \"#utility.yul\":4821:4843   */\n      add\n        /* \"#utility.yul\":4775:4853   */\n      tag_103\n      jump\t// in\n    tag_147:\n        /* \"#utility.yul\":4765:4853   */\n      swap3\n      pop\n        /* \"#utility.yul\":4561:4863   */\n      pop\n        /* \"#utility.yul\":4930:4932   */\n      0x20\n        /* \"#utility.yul\":4919:4928   */\n      dup4\n        /* \"#utility.yul\":4915:4933   */\n      add\n        /* \"#utility.yul\":4902:4934   */\n      calldataload\n        /* \"#utility.yul\":4961:4979   */\n      0xffffffffffffffff\n        /* \"#utility.yul\":4953:4959   */\n      dup2\n        /* \"#utility.yul\":4950:4980   */\n      gt\n        /* \"#utility.yul\":4947:5064   */\n      iszero\n      tag_148\n      jumpi\n        /* \"#utility.yul\":4983:5062   */\n      tag_149\n      tag_146\n      jump\t// in\n    tag_149:\n        /* \"#utility.yul\":4947:5064   */\n    tag_148:\n        /* \"#utility.yul\":5088:5166   */\n      tag_150\n        /* \"#utility.yul\":5158:5165   */\n      dup6\n        /* \"#utility.yul\":5149:5155   */\n      dup3\n        /* \"#utility.yul\":5138:5147   */\n      dup7\n        /* \"#utility.yul\":5134:5156   */\n      add\n        /* \"#utility.yul\":5088:5166   */\n      tag_109\n      jump\t// in\n    tag_150:\n        /* \"#utility.yul\":5078:5166   */\n      swap2\n      pop\n        /* \"#utility.yul\":4873:5176   */\n      pop\n        /* \"#utility.yul\":4289:5183   */\n      swap3\n      pop\n      swap3\n      swap1\n      pop\n      jump\t// out\n        /* \"#utility.yul\":5189:5516   */\n    tag_16:\n        /* \"#utility.yul\":5247:5253   */\n      0x00\n        /* \"#utility.yul\":5296:5298   */\n      0x20\n        /* \"#utility.yul\":5284:5293   */\n      dup3\n        /* \"#utility.yul\":5275:5282   */\n      dup5\n        /* \"#utility.yul\":5271:5294   */\n      sub\n        /* \"#utility.yul\":5267:5299   */\n      slt\n        /* \"#utility.yul\":5264:5383   */\n      iszero\n      tag_152\n      jumpi\n        /* \"#utility.yul\":5302:5381   */\n      tag_153\n      tag_128\n      jump\t// in\n    tag_153:\n        /* \"#utility.yul\":5264:5383   */\n    tag_152:\n        /* \"#utility.yul\":5422:5423   */\n      0x00\n        /* \"#utility.yul\":5447:5499   */\n      tag_154\n        /* \"#utility.yul\":5491:5498   */\n      dup5\n        /* \"#utility.yul\":5482:5488   */\n      dup3\n        /* \"#utility.yul\":5471:5480   */\n      dup6\n        /* \"#utility.yul\":5467:5489   */\n      add\n        /* \"#utility.yul\":5447:5499   */\n      tag_118\n      jump\t// in\n    tag_154:\n        /* \"#utility.yul\":5437:5499   */\n      swap2\n      pop\n        /* \"#utility.yul\":5393:5509   */\n      pop\n        /* \"#utility.yul\":5189:5516   */\n      swap3\n      swap2\n      pop\n      pop\n      jump\t// out\n        /* \"#utility.yul\":5522:5701   */\n    tag_155:\n        /* \"#utility.yul\":5591:5601   */\n      0x00\n        /* \"#utility.yul\":5612:5658   */\n      tag_157\n        /* \"#utility.yul\":5654:5657   */\n      dup4\n        /* \"#utility.yul\":5646:5652   */\n      dup4\n        /* \"#utility.yul\":5612:5658   */\n      tag_158\n      jump\t// in\n    tag_157:\n        /* \"#utility.yul\":5690:5694   */\n      0x20\n        /* \"#utility.yul\":5685:5688   */\n      dup4\n        /* \"#utility.yul\":5681:5695   */\n      add\n        /* \"#utility.yul\":5667:5695   */\n      swap1\n      pop\n        /* \"#utility.yul\":5522:5701   */\n      swap3\n      swap2\n      pop\n      pop\n      jump\t// out\n        /* \"#utility.yul\":5737:6469   */\n    tag_159:\n        /* \"#utility.yul\":5856:5859   */\n      0x00\n        /* \"#utility.yul\":5885:5939   */\n      tag_161\n        /* \"#utility.yul\":5933:5938   */\n      dup3\n        /* \"#utility.yul\":5885:5939   */\n      tag_162\n      jump\t// in\n    tag_161:\n        /* \"#utility.yul\":5955:6041   */\n      tag_163\n        /* \"#utility.yul\":6034:6040   */\n      dup2\n        /* \"#utility.yul\":6029:6032   */\n      dup6\n        /* \"#utility.yul\":5955:6041   */\n      tag_164\n      jump\t// in\n    tag_163:\n        /* \"#utility.yul\":5948:6041   */\n      swap4\n      pop\n        /* \"#utility.yul\":6065:6121   */\n      tag_165\n        /* \"#utility.yul\":6115:6120   */\n      dup4\n        /* \"#utility.yul\":6065:6121   */\n      tag_166\n      jump\t// in\n    tag_165:\n        /* \"#utility.yul\":6144:6151   */\n      dup1\n        /* \"#utility.yul\":6175:6176   */\n      0x00\n        /* \"#utility.yul\":6160:6444   */\n    tag_167:\n        /* \"#utility.yul\":6185:6191   */\n      dup4\n        /* \"#utility.yul\":6182:6183   */\n      dup2\n        /* \"#utility.yul\":6179:6192   */\n      lt\n        /* \"#utility.yul\":6160:6444   */\n      iszero\n      tag_169\n      jumpi\n        /* \"#utility.yul\":6261:6267   */\n      dup2\n        /* \"#utility.yul\":6255:6268   */\n      mload\n        /* \"#utility.yul\":6288:6351   */\n      tag_170\n        /* \"#utility.yul\":6347:6350   */\n      dup9\n        /* \"#utility.yul\":6332:6345   */\n      dup3\n        /* \"#utility.yul\":6288:6351   */\n      tag_155\n      jump\t// in\n    tag_170:\n        /* \"#utility.yul\":6281:6351   */\n      swap8\n      pop\n        /* \"#utility.yul\":6374:6434   */\n      tag_171\n        /* \"#utility.yul\":6427:6433   */\n      dup4\n        /* \"#utility.yul\":6374:6434   */\n      tag_172\n      jump\t// in\n    tag_171:\n        /* \"#utility.yul\":6364:6434   */\n      swap3\n      pop\n        /* \"#utility.yul\":6220:6444   */\n      pop\n        /* \"#utility.yul\":6207:6208   */\n      0x01\n        /* \"#utility.yul\":6204:6205   */\n      dup2\n        /* \"#utility.yul\":6200:6209   */\n      add\n        /* \"#utility.yul\":6195:6209   */\n      swap1\n      pop\n        /* \"#utility.yul\":6160:6444   */\n      jump(tag_167)\n    tag_169:\n        /* \"#utility.yul\":6164:6178   */\n      pop\n        /* \"#utility.yul\":6460:6463   */\n      dup6\n        /* \"#utility.yul\":6453:6463   */\n      swap4\n      pop\n        /* \"#utility.yul\":5861:6469   */\n      pop\n      pop\n      pop\n        /* \"#utility.yul\":5737:6469   */\n      swap3\n      swap2\n      pop\n      pop\n      jump\t// out\n        /* \"#utility.yul\":6475:6584   */\n    tag_173:\n        /* \"#utility.yul\":6556:6577   */\n      tag_175\n        /* \"#utility.yul\":6571:6576   */\n      dup2\n        /* \"#utility.yul\":6556:6577   */\n      tag_176\n      jump\t// in\n    tag_175:\n        /* \"#utility.yul\":6551:6554   */\n      dup3\n        /* \"#utility.yul\":6544:6578   */\n      mstore\n        /* \"#utility.yul\":6475:6584   */\n      pop\n      pop\n      jump\t// out\n        /* \"#utility.yul\":6590:6956   */\n    tag_177:\n        /* \"#utility.yul\":6732:6735   */\n      0x00\n        /* \"#utility.yul\":6753:6820   */\n      tag_179\n        /* \"#utility.yul\":6817:6819   */\n      0x2b\n        /* \"#utility.yul\":6812:6815   */\n      dup4\n        /* \"#utility.yul\":6753:6820   */\n      tag_180\n      jump\t// in\n    tag_179:\n        /* \"#utility.yul\":6746:6820   */\n      swap2\n      pop\n        /* \"#utility.yul\":6829:6922   */\n      tag_181\n        /* \"#utility.yul\":6918:6921   */\n      dup3\n        /* \"#utility.yul\":6829:6922   */\n      tag_182\n      jump\t// in\n    tag_181:\n        /* \"#utility.yul\":6947:6949   */\n      0x40\n        /* \"#utility.yul\":6942:6945   */\n      dup3\n        /* \"#utility.yul\":6938:6950   */\n      add\n        /* \"#utility.yul\":6931:6950   */\n      swap1\n      pop\n        /* \"#utility.yul\":6590:6956   */\n      swap2\n      swap1\n      pop\n      jump\t// out\n        /* \"#utility.yul\":6962:7328   */\n    tag_183:\n        /* \"#utility.yul\":7104:7107   */\n      0x00\n        /* \"#utility.yul\":7125:7192   */\n      tag_185\n        /* \"#utility.yul\":7189:7191   */\n      0x29\n        /* \"#utility.yul\":7184:7187   */\n      dup4\n        /* \"#utility.yul\":7125:7192   */\n      tag_180\n      jump\t// in\n    tag_185:\n        /* \"#utility.yul\":7118:7192   */\n      swap2\n      pop\n        /* \"#utility.yul\":7201:7294   */\n      tag_186\n        /* \"#utility.yul\":7290:7293   */\n      dup3\n        /* \"#utility.yul\":7201:7294   */\n      tag_187\n      jump\t// in\n    tag_186:\n        /* \"#utility.yul\":7319:7321   */\n      0x40\n        /* \"#utility.yul\":7314:7317   */\n      dup3\n        /* \"#utility.yul\":7310:7322   */\n      add\n        /* \"#utility.yul\":7303:7322   */\n      swap1\n      pop\n        /* \"#utility.yul\":6962:7328   */\n      swap2\n      swap1\n      pop\n      jump\t// out\n        /* \"#utility.yul\":7334:7700   */\n    tag_188:\n        /* \"#utility.yul\":7476:7479   */\n      0x00\n        /* \"#utility.yul\":7497:7564   */\n      tag_190\n        /* \"#utility.yul\":7561:7563   */\n      0x29\n        /* \"#utility.yul\":7556:7559   */\n      dup4\n        /* \"#utility.yul\":7497:7564   */\n      tag_180\n      jump\t// in\n    tag_190:\n        /* \"#utility.yul\":7490:7564   */\n      swap2\n      pop\n        /* \"#utility.yul\":7573:7666   */\n      tag_191\n        /* \"#utility.yul\":7662:7665   */\n      dup3\n        /* \"#utility.yul\":7573:7666   */\n      tag_192\n      jump\t// in\n    tag_191:\n        /* \"#utility.yul\":7691:7693   */\n      0x40\n        /* \"#utility.yul\":7686:7689   */\n      dup3\n        /* \"#utility.yul\":7682:7694   */\n      add\n        /* \"#utility.yul\":7675:7694   */\n      swap1\n      pop\n        /* \"#utility.yul\":7334:7700   */\n      swap2\n      swap1\n      pop\n      jump\t// out\n        /* \"#utility.yul\":7706:7814   */\n    tag_158:\n        /* \"#utility.yul\":7783:7807   */\n      tag_194\n        /* \"#utility.yul\":7801:7806   */\n      dup2\n        /* \"#utility.yul\":7783:7807   */\n      tag_195\n      jump\t// in\n    tag_194:\n        /* \"#utility.yul\":7778:7781   */\n      dup3\n        /* \"#utility.yul\":7771:7808   */\n      mstore\n        /* \"#utility.yul\":7706:7814   */\n      pop\n      pop\n      jump\t// out\n        /* \"#utility.yul\":7820:7938   */\n    tag_196:\n        /* \"#utility.yul\":7907:7931   */\n      tag_198\n        /* \"#utility.yul\":7925:7930   */\n      dup2\n        /* \"#utility.yul\":7907:7931   */\n      tag_195\n      jump\t// in\n    tag_198:\n        /* \"#utility.yul\":7902:7905   */\n      dup3\n        /* \"#utility.yul\":7895:7932   */\n      mstore\n        /* \"#utility.yul\":7820:7938   */\n      pop\n      pop\n      jump\t// out\n        /* \"#utility.yul\":7944:8317   */\n    tag_25:\n        /* \"#utility.yul\":8087:8091   */\n      0x00\n        /* \"#utility.yul\":8125:8127   */\n      0x20\n        /* \"#utility.yul\":8114:8123   */\n      dup3\n        /* \"#utility.yul\":8110:8128   */\n      add\n        /* \"#utility.yul\":8102:8128   */\n      swap1\n      pop\n        /* \"#utility.yul\":8174:8183   */\n      dup2\n        /* \"#utility.yul\":8168:8172   */\n      dup2\n        /* \"#utility.yul\":8164:8184   */\n      sub\n        /* \"#utility.yul\":8160:8161   */\n      0x00\n        /* \"#utility.yul\":8149:8158   */\n      dup4\n        /* \"#utility.yul\":8145:8162   */\n      add\n        /* \"#utility.yul\":8138:8185   */\n      mstore\n        /* \"#utility.yul\":8202:8310   */\n      tag_200\n        /* \"#utility.yul\":8305:8309   */\n      dup2\n        /* \"#utility.yul\":8296:8302   */\n      dup5\n        /* \"#utility.yul\":8202:8310   */\n      tag_159\n      jump\t// in\n    tag_200:\n        /* \"#utility.yul\":8194:8310   */\n      swap1\n      pop\n        /* \"#utility.yul\":7944:8317   */\n      swap3\n      swap2\n      pop\n      pop\n      jump\t// out\n        /* \"#utility.yul\":8323:8533   */\n    tag_19:\n        /* \"#utility.yul\":8410:8414   */\n      0x00\n        /* \"#utility.yul\":8448:8450   */\n      0x20\n        /* \"#utility.yul\":8437:8446   */\n      dup3\n        /* \"#utility.yul\":8433:8451   */\n      add\n        /* \"#utility.yul\":8425:8451   */\n      swap1\n      pop\n        /* \"#utility.yul\":8461:8526   */\n      tag_202\n        /* \"#utility.yul\":8523:8524   */\n      0x00\n        /* \"#utility.yul\":8512:8521   */\n      dup4\n        /* \"#utility.yul\":8508:8525   */\n      add\n        /* \"#utility.yul\":8499:8505   */\n      dup5\n        /* \"#utility.yul\":8461:8526   */\n      tag_173\n      jump\t// in\n    tag_202:\n        /* \"#utility.yul\":8323:8533   */\n      swap3\n      swap2\n      pop\n      pop\n      jump\t// out\n        /* \"#utility.yul\":8539:8958   */\n    tag_38:\n        /* \"#utility.yul\":8705:8709   */\n      0x00\n        /* \"#utility.yul\":8743:8745   */\n      0x20\n        /* \"#utility.yul\":8732:8741   */\n      dup3\n        /* \"#utility.yul\":8728:8746   */\n      add\n        /* \"#utility.yul\":8720:8746   */\n      swap1\n      pop\n        /* \"#utility.yul\":8792:8801   */\n      dup2\n        /* \"#utility.yul\":8786:8790   */\n      dup2\n        /* \"#utility.yul\":8782:8802   */\n      sub\n        /* \"#utility.yul\":8778:8779   */\n      0x00\n        /* \"#utility.yul\":8767:8776   */\n      dup4\n        /* \"#utility.yul\":8763:8780   */\n      add\n        /* \"#utility.yul\":8756:8803   */\n      mstore\n        /* \"#utility.yul\":8820:8951   */\n      tag_204\n        /* \"#utility.yul\":8946:8950   */\n      dup2\n        /* \"#utility.yul\":8820:8951   */\n      tag_177\n      jump\t// in\n    tag_204:\n        /* \"#utility.yul\":8812:8951   */\n      swap1\n      pop\n        /* \"#utility.yul\":8539:8958   */\n      swap2\n      swap1\n      pop\n      jump\t// out\n        /* \"#utility.yul\":8964:9383   */\n    tag_71:\n        /* \"#utility.yul\":9130:9134   */\n      0x00\n        /* \"#utility.yul\":9168:9170   */\n      0x20\n        /* \"#utility.yul\":9157:9166   */\n      dup3\n        /* \"#utility.yul\":9153:9171   */\n      add\n        /* \"#utility.yul\":9145:9171   */\n      swap1\n      pop\n        /* \"#utility.yul\":9217:9226   */\n      dup2\n        /* \"#utility.yul\":9211:9215   */\n      dup2\n        /* \"#utility.yul\":9207:9227   */\n      sub\n        /* \"#utility.yul\":9203:9204   */\n      0x00\n        /* \"#utility.yul\":9192:9201   */\n      dup4\n        /* \"#utility.yul\":9188:9205   */\n      add\n        /* \"#utility.yul\":9181:9228   */\n      mstore\n        /* \"#utility.yul\":9245:9376   */\n      tag_206\n        /* \"#utility.yul\":9371:9375   */\n      dup2\n        /* \"#utility.yul\":9245:9376   */\n      tag_183\n      jump\t// in\n    tag_206:\n        /* \"#utility.yul\":9237:9376   */\n      swap1\n      pop\n        /* \"#utility.yul\":8964:9383   */\n      swap2\n      swap1\n      pop\n      jump\t// out\n        /* \"#utility.yul\":9389:9808   */\n    tag_43:\n        /* \"#utility.yul\":9555:9559   */\n      0x00\n        /* \"#utility.yul\":9593:9595   */\n      0x20\n        /* \"#utility.yul\":9582:9591   */\n      dup3\n        /* \"#utility.yul\":9578:9596   */\n      add\n        /* \"#utility.yul\":9570:9596   */\n      swap1\n      pop\n        /* \"#utility.yul\":9642:9651   */\n      dup2\n        /* \"#utility.yul\":9636:9640   */\n      dup2\n        /* \"#utility.yul\":9632:9652   */\n      sub\n        /* \"#utility.yul\":9628:9629   */\n      0x00\n        /* \"#utility.yul\":9617:9626   */\n      dup4\n        /* \"#utility.yul\":9613:9630   */\n      add\n        /* \"#utility.yul\":9606:9653   */\n      mstore\n        /* \"#utility.yul\":9670:9801   */\n      tag_208\n        /* \"#utility.yul\":9796:9800   */\n      dup2\n        /* \"#utility.yul\":9670:9801   */\n      tag_188\n      jump\t// in\n    tag_208:\n        /* \"#utility.yul\":9662:9801   */\n      swap1\n      pop\n        /* \"#utility.yul\":9389:9808   */\n      swap2\n      swap1\n      pop\n      jump\t// out\n        /* \"#utility.yul\":9814:10036   */\n    tag_13:\n        /* \"#utility.yul\":9907:9911   */\n      0x00\n        /* \"#utility.yul\":9945:9947   */\n      0x20\n        /* \"#utility.yul\":9934:9943   */\n      dup3\n        /* \"#utility.yul\":9930:9948   */\n      add\n        /* \"#utility.yul\":9922:9948   */\n      swap1\n      pop\n        /* \"#utility.yul\":9958:10029   */\n      tag_210\n        /* \"#utility.yul\":10026:10027   */\n      0x00\n        /* \"#utility.yul\":10015:10024   */\n      dup4\n        /* \"#utility.yul\":10011:10028   */\n      add\n        /* \"#utility.yul\":10002:10008   */\n      dup5\n        /* \"#utility.yul\":9958:10029   */\n      tag_196\n      jump\t// in\n    tag_210:\n        /* \"#utility.yul\":9814:10036   */\n      swap3\n      swap2\n      pop\n      pop\n      jump\t// out\n        /* \"#utility.yul\":10042:10171   */\n    tag_79:\n        /* \"#utility.yul\":10076:10082   */\n      0x00\n        /* \"#utility.yul\":10103:10123   */\n      tag_212\n      tag_213\n      jump\t// in\n    tag_212:\n        /* \"#utility.yul\":10093:10123   */\n      swap1\n      pop\n        /* \"#utility.yul\":10132:10165   */\n      tag_214\n        /* \"#utility.yul\":10160:10164   */\n      dup3\n        /* \"#utility.yul\":10152:10158   */\n      dup3\n        /* \"#utility.yul\":10132:10165   */\n      tag_215\n      jump\t// in\n    tag_214:\n        /* \"#utility.yul\":10042:10171   */\n      swap2\n      swap1\n      pop\n      jump\t// out\n        /* \"#utility.yul\":10177:10252   */\n    tag_213:\n        /* \"#utility.yul\":10210:10216   */\n      0x00\n        /* \"#utility.yul\":10243:10245   */\n      0x40\n        /* \"#utility.yul\":10237:10246   */\n      mload\n        /* \"#utility.yul\":10227:10246   */\n      swap1\n      pop\n        /* \"#utility.yul\":10177:10252   */\n      swap1\n      jump\t// out\n        /* \"#utility.yul\":10258:10569   */\n    tag_78:\n        /* \"#utility.yul\":10335:10339   */\n      0x00\n        /* \"#utility.yul\":10425:10443   */\n      0xffffffffffffffff\n        /* \"#utility.yul\":10417:10423   */\n      dup3\n        /* \"#utility.yul\":10414:10444   */\n      gt\n        /* \"#utility.yul\":10411:10467   */\n      iszero\n      tag_218\n      jumpi\n        /* \"#utility.yul\":10447:10465   */\n      tag_219\n      tag_46\n      jump\t// in\n    tag_219:\n        /* \"#utility.yul\":10411:10467   */\n    tag_218:\n        /* \"#utility.yul\":10497:10501   */\n      0x20\n        /* \"#utility.yul\":10489:10495   */\n      dup3\n        /* \"#utility.yul\":10485:10502   */\n      mul\n        /* \"#utility.yul\":10477:10502   */\n      swap1\n      pop\n        /* \"#utility.yul\":10557:10561   */\n      0x20\n        /* \"#utility.yul\":10551:10555   */\n      dup2\n        /* \"#utility.yul\":10547:10562   */\n      add\n        /* \"#utility.yul\":10539:10562   */\n      swap1\n      pop\n        /* \"#utility.yul\":10258:10569   */\n      swap2\n      swap1\n      pop\n      jump\t// out\n        /* \"#utility.yul\":10575:10886   */\n    tag_92:\n        /* \"#utility.yul\":10652:10656   */\n      0x00\n        /* \"#utility.yul\":10742:10760   */\n      0xffffffffffffffff\n        /* \"#utility.yul\":10734:10740   */\n      dup3\n        /* \"#utility.yul\":10731:10761   */\n      gt\n        /* \"#utility.yul\":10728:10784   */\n      iszero\n      tag_221\n      jumpi\n        /* \"#utility.yul\":10764:10782   */\n      tag_222\n      tag_46\n      jump\t// in\n    tag_222:\n        /* \"#utility.yul\":10728:10784   */\n    tag_221:\n        /* \"#utility.yul\":10814:10818   */\n      0x20\n        /* \"#utility.yul\":10806:10812   */\n      dup3\n        /* \"#utility.yul\":10802:10819   */\n      mul\n        /* \"#utility.yul\":10794:10819   */\n      swap1\n      pop\n        /* \"#utility.yul\":10874:10878   */\n      0x20\n        /* \"#utility.yul\":10868:10872   */\n      dup2\n        /* \"#utility.yul\":10864:10879   */\n      add\n        /* \"#utility.yul\":10856:10879   */\n      swap1\n      pop\n        /* \"#utility.yul\":10575:10886   */\n      swap2\n      swap1\n      pop\n      jump\t// out\n        /* \"#utility.yul\":10892:11024   */\n    tag_166:\n        /* \"#utility.yul\":10959:10963   */\n      0x00\n        /* \"#utility.yul\":10982:10985   */\n      dup2\n        /* \"#utility.yul\":10974:10985   */\n      swap1\n      pop\n        /* \"#utility.yul\":11012:11016   */\n      0x20\n        /* \"#utility.yul\":11007:11010   */\n      dup3\n        /* \"#utility.yul\":11003:11017   */\n      add\n        /* \"#utility.yul\":10995:11017   */\n      swap1\n      pop\n        /* \"#utility.yul\":10892:11024   */\n      swap2\n      swap1\n      pop\n      jump\t// out\n        /* \"#utility.yul\":11030:11144   */\n    tag_162:\n        /* \"#utility.yul\":11097:11103   */\n      0x00\n        /* \"#utility.yul\":11131:11136   */\n      dup2\n        /* \"#utility.yul\":11125:11137   */\n      mload\n        /* \"#utility.yul\":11115:11137   */\n      swap1\n      pop\n        /* \"#utility.yul\":11030:11144   */\n      swap2\n      swap1\n      pop\n      jump\t// out\n        /* \"#utility.yul\":11150:11263   */\n    tag_172:\n        /* \"#utility.yul\":11220:11224   */\n      0x00\n        /* \"#utility.yul\":11252:11256   */\n      0x20\n        /* \"#utility.yul\":11247:11250   */\n      dup3\n        /* \"#utility.yul\":11243:11257   */\n      add\n        /* \"#utility.yul\":11235:11257   */\n      swap1\n      pop\n        /* \"#utility.yul\":11150:11263   */\n      swap2\n      swap1\n      pop\n      jump\t// out\n        /* \"#utility.yul\":11269:11453   */\n    tag_164:\n        /* \"#utility.yul\":11368:11379   */\n      0x00\n        /* \"#utility.yul\":11402:11408   */\n      dup3\n        /* \"#utility.yul\":11397:11400   */\n      dup3\n        /* \"#utility.yul\":11390:11409   */\n      mstore\n        /* \"#utility.yul\":11442:11446   */\n      0x20\n        /* \"#utility.yul\":11437:11440   */\n      dup3\n        /* \"#utility.yul\":11433:11447   */\n      add\n        /* \"#utility.yul\":11418:11447   */\n      swap1\n      pop\n        /* \"#utility.yul\":11269:11453   */\n      swap3\n      swap2\n      pop\n      pop\n      jump\t// out\n        /* \"#utility.yul\":11459:11628   */\n    tag_180:\n        /* \"#utility.yul\":11543:11554   */\n      0x00\n        /* \"#utility.yul\":11577:11583   */\n      dup3\n        /* \"#utility.yul\":11572:11575   */\n      dup3\n        /* \"#utility.yul\":11565:11584   */\n      mstore\n        /* \"#utility.yul\":11617:11621   */\n      0x20\n        /* \"#utility.yul\":11612:11615   */\n      dup3\n        /* \"#utility.yul\":11608:11622   */\n      add\n        /* \"#utility.yul\":11593:11622   */\n      swap1\n      pop\n        /* \"#utility.yul\":11459:11628   */\n      swap3\n      swap2\n      pop\n      pop\n      jump\t// out\n        /* \"#utility.yul\":11634:11730   */\n    tag_228:\n        /* \"#utility.yul\":11671:11678   */\n      0x00\n        /* \"#utility.yul\":11700:11724   */\n      tag_230\n        /* \"#utility.yul\":11718:11723   */\n      dup3\n        /* \"#utility.yul\":11700:11724   */\n      tag_231\n      jump\t// in\n    tag_230:\n        /* \"#utility.yul\":11689:11724   */\n      swap1\n      pop\n        /* \"#utility.yul\":11634:11730   */\n      swap2\n      swap1\n      pop\n      jump\t// out\n        /* \"#utility.yul\":11736:11826   */\n    tag_176:\n        /* \"#utility.yul\":11770:11777   */\n      0x00\n        /* \"#utility.yul\":11813:11818   */\n      dup2\n        /* \"#utility.yul\":11806:11819   */\n      iszero\n        /* \"#utility.yul\":11799:11820   */\n      iszero\n        /* \"#utility.yul\":11788:11820   */\n      swap1\n      pop\n        /* \"#utility.yul\":11736:11826   */\n      swap2\n      swap1\n      pop\n      jump\t// out\n        /* \"#utility.yul\":11832:11981   */\n    tag_233:\n        /* \"#utility.yul\":11868:11875   */\n      0x00\n        /* \"#utility.yul\":11908:11974   */\n      0xffffffff00000000000000000000000000000000000000000000000000000000\n        /* \"#utility.yul\":11901:11906   */\n      dup3\n        /* \"#utility.yul\":11897:11975   */\n      and\n        /* \"#utility.yul\":11886:11975   */\n      swap1\n      pop\n        /* \"#utility.yul\":11832:11981   */\n      swap2\n      swap1\n      pop\n      jump\t// out\n        /* \"#utility.yul\":11987:12113   */\n    tag_231:\n        /* \"#utility.yul\":12024:12031   */\n      0x00\n        /* \"#utility.yul\":12064:12106   */\n      0xffffffffffffffffffffffffffffffffffffffff\n        /* \"#utility.yul\":12057:12062   */\n      dup3\n        /* \"#utility.yul\":12053:12107   */\n      and\n        /* \"#utility.yul\":12042:12107   */\n      swap1\n      pop\n        /* \"#utility.yul\":11987:12113   */\n      swap2\n      swap1\n      pop\n      jump\t// out\n        /* \"#utility.yul\":12119:12196   */\n    tag_195:\n        /* \"#utility.yul\":12156:12163   */\n      0x00\n        /* \"#utility.yul\":12185:12190   */\n      dup2\n        /* \"#utility.yul\":12174:12190   */\n      swap1\n      pop\n        /* \"#utility.yul\":12119:12196   */\n      swap2\n      swap1\n      pop\n      jump\t// out\n        /* \"#utility.yul\":12202:12483   */\n    tag_215:\n        /* \"#utility.yul\":12285:12312   */\n      tag_238\n        /* \"#utility.yul\":12307:12311   */\n      dup3\n        /* \"#utility.yul\":12285:12312   */\n      tag_239\n      jump\t// in\n    tag_238:\n        /* \"#utility.yul\":12277:12283   */\n      dup2\n        /* \"#utility.yul\":12273:12313   */\n      add\n        /* \"#utility.yul\":12415:12421   */\n      dup2\n        /* \"#utility.yul\":12403:12413   */\n      dup2\n        /* \"#utility.yul\":12400:12422   */\n      lt\n        /* \"#utility.yul\":12379:12397   */\n      0xffffffffffffffff\n        /* \"#utility.yul\":12367:12377   */\n      dup3\n        /* \"#utility.yul\":12364:12398   */\n      gt\n        /* \"#utility.yul\":12361:12423   */\n      or\n        /* \"#utility.yul\":12358:12446   */\n      iszero\n      tag_240\n      jumpi\n        /* \"#utility.yul\":12426:12444   */\n      tag_241\n      tag_46\n      jump\t// in\n    tag_241:\n        /* \"#utility.yul\":12358:12446   */\n    tag_240:\n        /* \"#utility.yul\":12466:12476   */\n      dup1\n        /* \"#utility.yul\":12462:12464   */\n      0x40\n        /* \"#utility.yul\":12455:12477   */\n      mstore\n        /* \"#utility.yul\":12245:12483   */\n      pop\n        /* \"#utility.yul\":12202:12483   */\n      pop\n      pop\n      jump\t// out\n        /* \"#utility.yul\":12489:12722   */\n    tag_60:\n        /* \"#utility.yul\":12528:12531   */\n      0x00\n        /* \"#utility.yul\":12551:12575   */\n      tag_243\n        /* \"#utility.yul\":12569:12574   */\n      dup3\n        /* \"#utility.yul\":12551:12575   */\n      tag_195\n      jump\t// in\n    tag_243:\n        /* \"#utility.yul\":12542:12575   */\n      swap2\n      pop\n        /* \"#utility.yul\":12597:12663   */\n      0xffffffffffffffffffffffffffffffffffffffffffffffffffffffffffffffff\n        /* \"#utility.yul\":12590:12595   */\n      dup3\n        /* \"#utility.yul\":12587:12664   */\n      eq\n        /* \"#utility.yul\":12584:12687   */\n      iszero\n      tag_244\n      jumpi\n        /* \"#utility.yul\":12667:12685   */\n      tag_245\n      tag_246\n      jump\t// in\n    tag_245:\n        /* \"#utility.yul\":12584:12687   */\n    tag_244:\n        /* \"#utility.yul\":12714:12715   */\n      0x01\n        /* \"#utility.yul\":12707:12712   */\n      dup3\n        /* \"#utility.yul\":12703:12716   */\n      add\n        /* \"#utility.yul\":12696:12716   */\n      swap1\n      pop\n        /* \"#utility.yul\":12489:12722   */\n      swap2\n      swap1\n      pop\n      jump\t// out\n        /* \"#utility.yul\":12728:12908   */\n    tag_246:\n        /* \"#utility.yul\":12776:12853   */\n      0x4e487b7100000000000000000000000000000000000000000000000000000000\n        /* \"#utility.yul\":12773:12774   */\n      0x00\n        /* \"#utility.yul\":12766:12854   */\n      mstore\n        /* \"#utility.yul\":12873:12877   */\n      0x11\n        /* \"#utility.yul\":12870:12871   */\n      0x04\n        /* \"#utility.yul\":12863:12878   */\n      mstore\n        /* \"#utility.yul\":12897:12901   */\n      0x24\n        /* \"#utility.yul\":12894:12895   */\n      0x00\n        /* \"#utility.yul\":12887:12902   */\n      revert\n        /* \"#utility.yul\":12914:13094   */\n    tag_54:\n        /* \"#utility.yul\":12962:13039   */\n      0x4e487b7100000000000000000000000000000000000000000000000000000000\n        /* \"#utility.yul\":12959:12960   */\n      0x00\n        /* \"#utility.yul\":12952:13040   */\n      mstore\n        /* \"#utility.yul\":13059:13063   */\n      0x32\n        /* \"#utility.yul\":13056:13057   */\n      0x04\n        /* \"#utility.yul\":13049:13064   */\n      mstore\n        /* \"#utility.yul\":13083:13087   */\n      0x24\n        /* \"#utility.yul\":13080:13081   */\n      0x00\n        /* \"#utility.yul\":13073:13088   */\n      revert\n        /* \"#utility.yul\":13100:13280   */\n    tag_46:\n        /* \"#utility.yul\":13148:13225   */\n      0x4e487b7100000000000000000000000000000000000000000000000000000000\n        /* \"#utility.yul\":13145:13146   */\n      0x00\n        /* \"#utility.yul\":13138:13226   */\n      mstore\n        /* \"#utility.yul\":13245:13249   */\n      0x41\n        /* \"#utility.yul\":13242:13243   */\n      0x04\n        /* \"#utility.yul\":13235:13250   */\n      mstore\n        /* \"#utility.yul\":13269:13273   */\n      0x24\n        /* \"#utility.yul\":13266:13267   */\n      0x00\n        /* \"#utility.yul\":13259:13274   */\n      revert\n        /* \"#utility.yul\":13286:13403   */\n    tag_107:\n        /* \"#utility.yul\":13395:13396   */\n      0x00\n        /* \"#utility.yul\":13392:13393   */\n      dup1\n        /* \"#utility.yul\":13385:13397   */\n      revert\n        /* \"#utility.yul\":13409:13526   */\n    tag_82:\n        /* \"#utility.yul\":13518:13519   */\n      0x00\n        /* \"#utility.yul\":13515:13516   */\n      dup1\n        /* \"#utility.yul\":13508:13520   */\n      revert\n        /* \"#utility.yul\":13532:13649   */\n    tag_146:\n        /* \"#utility.yul\":13641:13642   */\n      0x00\n        /* \"#utility.yul\":13638:13639   */\n      dup1\n        /* \"#utility.yul\":13631:13643   */\n      revert\n        /* \"#utility.yul\":13655:13772   */\n    tag_128:\n        /* \"#utility.yul\":13764:13765   */\n      0x00\n        /* \"#utility.yul\":13761:13762   */\n      dup1\n        /* \"#utility.yul\":13754:13766   */\n      revert\n        /* \"#utility.yul\":13778:13880   */\n    tag_239:\n        /* \"#utility.yul\":13819:13825   */\n      0x00\n        /* \"#utility.yul\":13870:13872   */\n      0x1f\n        /* \"#utility.yul\":13866:13873   */\n      not\n        /* \"#utility.yul\":13861:13863   */\n      0x1f\n        /* \"#utility.yul\":13854:13859   */\n      dup4\n        /* \"#utility.yul\":13850:13864   */\n      add\n        /* \"#utility.yul\":13846:13874   */\n      and\n        /* \"#utility.yul\":13836:13874   */\n      swap1\n      pop\n        /* \"#utility.yul\":13778:13880   */\n      swap2\n      swap1\n      pop\n      jump\t// out\n        /* \"#utility.yul\":13886:14116   */\n    tag_182:\n        /* \"#utility.yul\":14026:14060   */\n      0x455243313135353a2062616c616e636520717565727920666f7220746865207a\n        /* \"#utility.yul\":14022:14023   */\n      0x00\n        /* \"#utility.yul\":14014:14020   */\n      dup3\n        /* \"#utility.yul\":14010:14024   */\n      add\n        /* \"#utility.yul\":14003:14061   */\n      mstore\n        /* \"#utility.yul\":14095:14108   */\n      0x65726f2061646472657373000000000000000000000000000000000000000000\n        /* \"#utility.yul\":14090:14092   */\n      0x20\n        /* \"#utility.yul\":14082:14088   */\n      dup3\n        /* \"#utility.yul\":14078:14093   */\n      add\n        /* \"#utility.yul\":14071:14109   */\n      mstore\n        /* \"#utility.yul\":13886:14116   */\n      pop\n      jump\t// out\n        /* \"#utility.yul\":14122:14350   */\n    tag_187:\n        /* \"#utility.yul\":14262:14296   */\n      0x455243313135353a2073657474696e6720617070726f76616c20737461747573\n        /* \"#utility.yul\":14258:14259   */\n      0x00\n        /* \"#utility.yul\":14250:14256   */\n      dup3\n        /* \"#utility.yul\":14246:14260   */\n      add\n        /* \"#utility.yul\":14239:14297   */\n      mstore\n        /* \"#utility.yul\":14331:14342   */\n      0x20666f722073656c660000000000000000000000000000000000000000000000\n        /* \"#utility.yul\":14326:14328   */\n      0x20\n        /* \"#utility.yul\":14318:14324   */\n      dup3\n        /* \"#utility.yul\":14314:14329   */\n      add\n        /* \"#utility.yul\":14307:14343   */\n      mstore\n        /* \"#utility.yul\":14122:14350   */\n      pop\n      jump\t// out\n        /* \"#utility.yul\":14356:14584   */\n    tag_192:\n        /* \"#utility.yul\":14496:14530   */\n      0x455243313135353a206163636f756e747320616e6420696473206c656e677468\n        /* \"#utility.yul\":14492:14493   */\n      0x00\n        /* \"#utility.yul\":14484:14490   */\n      dup3\n        /* \"#utility.yul\":14480:14494   */\n      add\n        /* \"#utility.yul\":14473:14531   */\n      mstore\n        /* \"#utility.yul\":14565:14576   */\n      0x206d69736d617463680000000000000000000000000000000000000000000000\n        /* \"#utility.yul\":14560:14562   */\n      0x20\n        /* \"#utility.yul\":14552:14558   */\n      dup3\n        /* \"#utility.yul\":14548:14563   */\n      add\n        /* \"#utility.yul\":14541:14577   */\n      mstore\n        /* \"#utility.yul\":14356:14584   */\n      pop\n      jump\t// out\n        /* \"#utility.yul\":14590:14712   */\n    tag_102:\n        /* \"#utility.yul\":14663:14687   */\n      tag_259\n        /* \"#utility.yul\":14681:14686   */\n      dup2\n        /* \"#utility.yul\":14663:14687   */\n      tag_228\n      jump\t// in\n    tag_259:\n        /* \"#utility.yul\":14656:14661   */\n      dup2\n        /* \"#utility.yul\":14653:14688   */\n      eq\n        /* \"#utility.yul\":14643:14706   */\n      tag_260\n      jumpi\n        /* \"#utility.yul\":14702:14703   */\n      0x00\n        /* \"#utility.yul\":14699:14700   */\n      dup1\n        /* \"#utility.yul\":14692:14704   */\n      revert\n        /* \"#utility.yul\":14643:14706   */\n    tag_260:\n        /* \"#utility.yul\":14590:14712   */\n      pop\n      jump\t// out\n        /* \"#utility.yul\":14718:14834   */\n    tag_117:\n        /* \"#utility.yul\":14788:14809   */\n      tag_262\n        /* \"#utility.yul\":14803:14808   */\n      dup2\n        /* \"#utility.yul\":14788:14809   */\n      tag_176\n      jump\t// in\n    tag_262:\n        /* \"#utility.yul\":14781:14786   */\n      dup2\n        /* \"#utility.yul\":14778:14810   */\n      eq\n        /* \"#utility.yul\":14768:14828   */\n      tag_263\n      jumpi\n        /* \"#utility.yul\":14824:14825   */\n      0x00\n        /* \"#utility.yul\":14821:14822   */\n      dup1\n        /* \"#utility.yul\":14814:14826   */\n      revert\n        /* \"#utility.yul\":14768:14828   */\n    tag_263:\n        /* \"#utility.yul\":14718:14834   */\n      pop\n      jump\t// out\n        /* \"#utility.yul\":14840:14960   */\n    tag_121:\n        /* \"#utility.yul\":14912:14935   */\n      tag_265\n        /* \"#utility.yul\":14929:14934   */\n      dup2\n        /* \"#utility.yul\":14912:14935   */\n      tag_233\n      jump\t// in\n    tag_265:\n        /* \"#utility.yul\":14905:14910   */\n      dup2\n        /* \"#utility.yul\":14902:14936   */\n      eq\n        /* \"#utility.yul\":14892:14954   */\n      tag_266\n      jumpi\n        /* \"#utility.yul\":14950:14951   */\n      0x00\n        /* \"#utility.yul\":14947:14948   */\n      dup1\n        /* \"#utility.yul\":14940:14952   */\n      revert\n        /* \"#utility.yul\":14892:14954   */\n    tag_266:\n        /* \"#utility.yul\":14840:14960   */\n      pop\n      jump\t// out\n        /* \"#utility.yul\":14966:15088   */\n    tag_124:\n        /* \"#utility.yul\":15039:15063   */\n      tag_268\n        /* \"#utility.yul\":15057:15062   */\n      dup2\n        /* \"#utility.yul\":15039:15063   */\n      tag_195\n      jump\t// in\n    tag_268:\n        /* \"#utility.yul\":15032:15037   */\n      dup2\n        /* \"#utility.yul\":15029:15064   */\n      eq\n        /* \"#utility.yul\":15019:15082   */\n      tag_269\n      jumpi\n        /* \"#utility.yul\":15078:15079   */\n      0x00\n        /* \"#utility.yul\":15075:15076   */\n      dup1\n        /* \"#utility.yul\":15068:15080   */\n      revert\n        /* \"#utility.yul\":15019:15082   */\n    tag_269:\n        /* \"#utility.yul\":14966:15088   */\n      pop\n      jump\t// out\n\n    auxdata: 0xa2646970667358221220d04a54eea6dcc4914e4d3d2b668cdb5948040853e5fdce9ec02b6c4e5451933564736f6c63430008070033\n}\n",
				"bytecode": {
					"linkReferences": {},
					"object": "608060405234801561001057600080fd5b50610e41806100206000396000f3fe608060405234801561001057600080fd5b50600436106100565760003560e01c8062fdd58e1461005b57806301ffc9a71461008b5780634e1273f4146100bb578063a22cb465146100eb578063e985e9c514610107575b600080fd5b610075600480360381019061007091906107b2565b610137565b6040516100829190610a40565b60405180910390f35b6100a560048036038101906100a0919061086a565b610200565b6040516100b291906109c5565b60405180910390f35b6100d560048036038101906100d091906107f2565b61026a565b6040516100e291906109a3565b60405180910390f35b61010560048036038101906101009190610772565b610383565b005b610121600480360381019061011c9190610732565b610399565b60405161012e91906109c5565b60405180910390f35b60008073ffffffffffffffffffffffffffffffffffffffff168373ffffffffffffffffffffffffffffffffffffffff1614156101a8576040517f08c379a000000000000000000000000000000000000000000000000000000000815260040161019f906109e0565b60405180910390fd5b60008083815260200190815260200160002060008473ffffffffffffffffffffffffffffffffffffffff1673ffffffffffffffffffffffffffffffffffffffff16815260200190815260200160002054905092915050565b60007f01ffc9a7000000000000000000000000000000000000000000000000000000007bffffffffffffffffffffffffffffffffffffffffffffffffffffffff1916827bffffffffffffffffffffffffffffffffffffffffffffffffffffffff1916149050919050565b606081518351146102b0576040517f08c379a00000000000000000000000000000000000000000000000000000000081526004016102a790610a20565b60405180910390fd5b6000835167ffffffffffffffff8111156102cd576102cc610c6e565b5b6040519080825280602002602001820160405280156102fb5781602001602082028036833780820191505090505b50905060005b8451811015610378576103488582815181106103205761031f610c3f565b5b602002602001015185838151811061033b5761033a610c3f565b5b6020026020010151610137565b82828151811061035b5761035a610c3f565b5b6020026020010181815250508061037190610bc7565b9050610301565b508091505092915050565b61039561038e61042d565b8383610435565b5050565b6000600160008473ffffffffffffffffffffffffffffffffffffffff1673ffffffffffffffffffffffffffffffffffffffff16815260200190815260200160002060008373ffffffffffffffffffffffffffffffffffffffff1673ffffffffffffffffffffffffffffffffffffffff16815260200190815260200160002060009054906101000a900460ff16905092915050565b600033905090565b8173ffffffffffffffffffffffffffffffffffffffff168373ffffffffffffffffffffffffffffffffffffffff1614156104a4576040517f08c379a000000000000000000000000000000000000000000000000000000000815260040161049b90610a00565b60405180910390fd5b80600160008573ffffffffffffffffffffffffffffffffffffffff1673ffffffffffffffffffffffffffffffffffffffff16815260200190815260200160002060008473ffffffffffffffffffffffffffffffffffffffff1673ffffffffffffffffffffffffffffffffffffffff16815260200190815260200160002060006101000a81548160ff0219169083151502179055508173ffffffffffffffffffffffffffffffffffffffff168373ffffffffffffffffffffffffffffffffffffffff167f17307eab39ab6107e8899845ad3d59bd9653f200f220920489ca2b5937696c318360405161059591906109c5565b60405180910390a3505050565b60006105b56105b084610a80565b610a5b565b905080838252602082019050828560208602820111156105d8576105d7610ca2565b5b60005b8581101561060857816105ee8882610682565b8452602084019350602083019250506001810190506105db565b5050509392505050565b600061062561062084610aac565b610a5b565b9050808382526020820190508285602086028201111561064857610647610ca2565b5b60005b85811015610678578161065e888261071d565b84526020840193506020830192505060018101905061064b565b5050509392505050565b60008135905061069181610daf565b92915050565b600082601f8301126106ac576106ab610c9d565b5b81356106bc8482602086016105a2565b91505092915050565b600082601f8301126106da576106d9610c9d565b5b81356106ea848260208601610612565b91505092915050565b60008135905061070281610dc6565b92915050565b60008135905061071781610ddd565b92915050565b60008135905061072c81610df4565b92915050565b6000806040838503121561074957610748610cac565b5b600061075785828601610682565b925050602061076885828601610682565b9150509250929050565b6000806040838503121561078957610788610cac565b5b600061079785828601610682565b92505060206107a8858286016106f3565b9150509250929050565b600080604083850312156107c9576107c8610cac565b5b60006107d785828601610682565b92505060206107e88582860161071d565b9150509250929050565b6000806040838503121561080957610808610cac565b5b600083013567ffffffffffffffff81111561082757610826610ca7565b5b61083385828601610697565b925050602083013567ffffffffffffffff81111561085457610853610ca7565b5b610860858286016106c5565b9150509250929050565b6000602082840312156108805761087f610cac565b5b600061088e84828501610708565b91505092915050565b60006108a38383610985565b60208301905092915050565b60006108ba82610ae8565b6108c48185610b00565b93506108cf83610ad8565b8060005b838110156109005781516108e78882610897565b97506108f283610af3565b9250506001810190506108d3565b5085935050505092915050565b61091681610b34565b82525050565b6000610929602b83610b11565b915061093482610cc2565b604082019050919050565b600061094c602983610b11565b915061095782610d11565b604082019050919050565b600061096f602983610b11565b915061097a82610d60565b604082019050919050565b61098e81610b8c565b82525050565b61099d81610b8c565b82525050565b600060208201905081810360008301526109bd81846108af565b905092915050565b60006020820190506109da600083018461090d565b92915050565b600060208201905081810360008301526109f98161091c565b9050919050565b60006020820190508181036000830152610a198161093f565b9050919050565b60006020820190508181036000830152610a3981610962565b9050919050565b6000602082019050610a556000830184610994565b92915050565b6000610a65610a76565b9050610a718282610b96565b919050565b6000604051905090565b600067ffffffffffffffff821115610a9b57610a9a610c6e565b5b602082029050602081019050919050565b600067ffffffffffffffff821115610ac757610ac6610c6e565b5b602082029050602081019050919050565b6000819050602082019050919050565b600081519050919050565b6000602082019050919050565b600082825260208201905092915050565b600082825260208201905092915050565b6000610b2d82610b6c565b9050919050565b60008115159050919050565b60007fffffffff0000000000000000000000000000000000000000000000000000000082169050919050565b600073ffffffffffffffffffffffffffffffffffffffff82169050919050565b6000819050919050565b610b9f82610cb1565b810181811067ffffffffffffffff82111715610bbe57610bbd610c6e565b5b80604052505050565b6000610bd282610b8c565b91507fffffffffffffffffffffffffffffffffffffffffffffffffffffffffffffffff821415610c0557610c04610c10565b5b600182019050919050565b7f4e487b7100000000000000000000000000000000000000000000000000000000600052601160045260246000fd5b7f4e487b7100000000000000000000000000000000000000000000000000000000600052603260045260246000fd5b7f4e487b7100000000000000000000000000000000000000000000000000000000600052604160045260246000fd5b600080fd5b600080fd5b600080fd5b600080fd5b6000601f19601f8301169050919050565b7f455243313135353a2062616c616e636520717565727920666f7220746865207a60008201527f65726f2061646472657373000000000000000000000000000000000000000000602082015250565b7f455243313135353a2073657474696e6720617070726f76616c2073746174757360008201527f20666f722073656c660000000000000000000000000000000000000000000000602082015250565b7f455243313135353a206163636f756e747320616e6420696473206c656e67746860008201527f206d69736d617463680000000000000000000000000000000000000000000000602082015250565b610db881610b22565b8114610dc357600080fd5b50565b610dcf81610b34565b8114610dda57600080fd5b50565b610de681610b40565b8114610df157600080fd5b50565b610dfd81610b8c565b8114610e0857600080fd5b5056fea2646970667358221220d04a54eea6dcc4914e4d3d2b668cdb5948040853e5fdce9ec02b6c4e5451933564736f6c63430008070033",
					"opcodes": "PUSH1 0x80 PUSH1 0x40 MSTORE CALLVALUE DUP1 ISZERO PUSH2 0x10 JUMPI PUSH1 0x0 DUP1 REVERT JUMPDEST POP PUSH2 0xE41 DUP1 PUSH2 0x20 PUSH1 0x0 CODECOPY PUSH1 0x0 RETURN INVALID PUSH1 0x80 PUSH1 0x40 MSTORE CALLVALUE DUP1 ISZERO PUSH2 0x10 JUMPI PUSH1 0x0 DUP1 REVERT JUMPDEST POP PUSH1 0x4 CALLDATASIZE LT PUSH2 0x56 JUMPI PUSH1 0x0 CALLDATALOAD PUSH1 0xE0 SHR DUP1 PUSH3 0xFDD58E EQ PUSH2 0x5B JUMPI DUP1 PUSH4 0x1FFC9A7 EQ PUSH2 0x8B JUMPI DUP1 PUSH4 0x4E1273F4 EQ PUSH2 0xBB JUMPI DUP1 PUSH4 0xA22CB465 EQ PUSH2 0xEB JUMPI DUP1 PUSH4 0xE985E9C5 EQ PUSH2 0x107 JUMPI JUMPDEST PUSH1 0x0 DUP1 REVERT JUMPDEST PUSH2 0x75 PUSH1 0x4 DUP1 CALLDATASIZE SUB DUP2 ADD SWAP1 PUSH2 0x70 SWAP2 SWAP1 PUSH2 0x7B2 JUMP JUMPDEST PUSH2 0x137 JUMP JUMPDEST PUSH1 0x40 MLOAD PUSH2 0x82 SWAP2 SWAP1 PUSH2 0xA40 JUMP JUMPDEST PUSH1 0x40 MLOAD DUP1 SWAP2 SUB SWAP1 RETURN JUMPDEST PUSH2 0xA5 PUSH1 0x4 DUP1 CALLDATASIZE SUB DUP2 ADD SWAP1 PUSH2 0xA0 SWAP2 SWAP1 PUSH2 0x86A JUMP JUMPDEST PUSH2 0x200 JUMP JUMPDEST PUSH1 0x40 MLOAD PUSH2 0xB2 SWAP2 SWAP1 PUSH2 0x9C5 JUMP JUMPDEST PUSH1 0x40 MLOAD DUP1 SWAP2 SUB SWAP1 RETURN JUMPDEST PUSH2 0xD5 PUSH1 0x4 DUP1 CALLDATASIZE SUB DUP2 ADD SWAP1 PUSH2 0xD0 SWAP2 SWAP1 PUSH2 0x7F2 JUMP JUMPDEST PUSH2 0x26A JUMP JUMPDEST PUSH1 0x40 MLOAD PUSH2 0xE2 SWAP2 SWAP1 PUSH2 0x9A3 JUMP JUMPDEST PUSH1 0x40 MLOAD DUP1 SWAP2 SUB SWAP1 RETURN JUMPDEST PUSH2 0x105 PUSH1 0x4 DUP1 CALLDATASIZE SUB DUP2 ADD SWAP1 PUSH2 0x100 SWAP2 SWAP1 PUSH2 0x772 JUMP JUMPDEST PUSH2 0x383 JUMP JUMPDEST STOP JUMPDEST PUSH2 0x121 PUSH1 0x4 DUP1 CALLDATASIZE SUB DUP2 ADD SWAP1 PUSH2 0x11C SWAP2 SWAP1 PUSH2 0x732 JUMP JUMPDEST PUSH2 0x399 JUMP JUMPDEST PUSH1 0x40 MLOAD PUSH2 0x12E SWAP2 SWAP1 PUSH2 0x9C5 JUMP JUMPDEST PUSH1 0x40 MLOAD DUP1 SWAP2 SUB SWAP1 RETURN JUMPDEST PUSH1 0x0 DUP1 PUSH20 0xFFFFFFFFFFFFFFFFFFFFFFFFFFFFFFFFFFFFFFFF AND DUP4 PUSH20 0xFFFFFFFFFFFFFFFFFFFFFFFFFFFFFFFFFFFFFFFF AND EQ ISZERO PUSH2 0x1A8 JUMPI PUSH1 0x40 MLOAD PUSH32 0x8C379A000000000000000000000000000000000000000000000000000000000 DUP2 MSTORE PUSH1 0x4 ADD PUSH2 0x19F SWAP1 PUSH2 0x9E0 JUMP JUMPDEST PUSH1 0x40 MLOAD DUP1 SWAP2 SUB SWAP1 REVERT JUMPDEST PUSH1 0x0 DUP1 DUP4 DUP2 MSTORE PUSH1 0x20 ADD SWAP1 DUP2 MSTORE PUSH1 0x20 ADD PUSH1 0x0 KECCAK256 PUSH1 0x0 DUP5 PUSH20 0xFFFFFFFFFFFFFFFFFFFFFFFFFFFFFFFFFFFFFFFF AND PUSH20 0xFFFFFFFFFFFFFFFFFFFFFFFFFFFFFFFFFFFFFFFF AND DUP2 MSTORE PUSH1 0x20 ADD SWAP1 DUP2 MSTORE PUSH1 0x20 ADD PUSH1 0x0 KECCAK256 SLOAD SWAP1 POP SWAP3 SWAP2 POP POP JUMP JUMPDEST PUSH1 0x0 PUSH32 0x1FFC9A700000000000000000000000000000000000000000000000000000000 PUSH28 0xFFFFFFFFFFFFFFFFFFFFFFFFFFFFFFFFFFFFFFFFFFFFFFFFFFFFFFFF NOT AND DUP3 PUSH28 0xFFFFFFFFFFFFFFFFFFFFFFFFFFFFFFFFFFFFFFFFFFFFFFFFFFFFFFFF NOT AND EQ SWAP1 POP SWAP2 SWAP1 POP JUMP JUMPDEST PUSH1 0x60 DUP2 MLOAD DUP4 MLOAD EQ PUSH2 0x2B0 JUMPI PUSH1 0x40 MLOAD PUSH32 0x8C379A000000000000000000000000000000000000000000000000000000000 DUP2 MSTORE PUSH1 0x4 ADD PUSH2 0x2A7 SWAP1 PUSH2 0xA20 JUMP JUMPDEST PUSH1 0x40 MLOAD DUP1 SWAP2 SUB SWAP1 REVERT JUMPDEST PUSH1 0x0 DUP4 MLOAD PUSH8 0xFFFFFFFFFFFFFFFF DUP2 GT ISZERO PUSH2 0x2CD JUMPI PUSH2 0x2CC PUSH2 0xC6E JUMP JUMPDEST JUMPDEST PUSH1 0x40 MLOAD SWAP1 DUP1 DUP3 MSTORE DUP1 PUSH1 0x20 MUL PUSH1 0x20 ADD DUP3 ADD PUSH1 0x40 MSTORE DUP1 ISZERO PUSH2 0x2FB JUMPI DUP2 PUSH1 0x20 ADD PUSH1 0x20 DUP3 MUL DUP1 CALLDATASIZE DUP4 CALLDATACOPY DUP1 DUP3 ADD SWAP2 POP POP SWAP1 POP JUMPDEST POP SWAP1 POP PUSH1 0x0 JUMPDEST DUP5 MLOAD DUP2 LT ISZERO PUSH2 0x378 JUMPI PUSH2 0x348 DUP6 DUP3 DUP2 MLOAD DUP2 LT PUSH2 0x320 JUMPI PUSH2 0x31F PUSH2 0xC3F JUMP JUMPDEST JUMPDEST PUSH1 0x20 MUL PUSH1 0x20 ADD ADD MLOAD DUP6 DUP4 DUP2 MLOAD DUP2 LT PUSH2 0x33B JUMPI PUSH2 0x33A PUSH2 0xC3F JUMP JUMPDEST JUMPDEST PUSH1 0x20 MUL PUSH1 0x20 ADD ADD MLOAD PUSH2 0x137 JUMP JUMPDEST DUP3 DUP3 DUP2 MLOAD DUP2 LT PUSH2 0x35B JUMPI PUSH2 0x35A PUSH2 0xC3F JUMP JUMPDEST JUMPDEST PUSH1 0x20 MUL PUSH1 0x20 ADD ADD DUP2 DUP2 MSTORE POP POP DUP1 PUSH2 0x371 SWAP1 PUSH2 0xBC7 JUMP JUMPDEST SWAP1 POP PUSH2 0x301 JUMP JUMPDEST POP DUP1 SWAP2 POP POP SWAP3 SWAP2 POP POP JUMP JUMPDEST PUSH2 0x395 PUSH2 0x38E PUSH2 0x42D JUMP JUMPDEST DUP4 DUP4 PUSH2 0x435 JUMP JUMPDEST POP POP JUMP JUMPDEST PUSH1 0x0 PUSH1 0x1 PUSH1 0x0 DUP5 PUSH20 0xFFFFFFFFFFFFFFFFFFFFFFFFFFFFFFFFFFFFFFFF AND PUSH20 0xFFFFFFFFFFFFFFFFFFFFFFFFFFFFFFFFFFFFFFFF AND DUP2 MSTORE PUSH1 0x20 ADD SWAP1 DUP2 MSTORE PUSH1 0x20 ADD PUSH1 0x0 KECCAK256 PUSH1 0x0 DUP4 PUSH20 0xFFFFFFFFFFFFFFFFFFFFFFFFFFFFFFFFFFFFFFFF AND PUSH20 0xFFFFFFFFFFFFFFFFFFFFFFFFFFFFFFFFFFFFFFFF AND DUP2 MSTORE PUSH1 0x20 ADD SWAP1 DUP2 MSTORE PUSH1 0x20 ADD PUSH1 0x0 KECCAK256 PUSH1 0x0 SWAP1 SLOAD SWAP1 PUSH2 0x100 EXP SWAP1 DIV PUSH1 0xFF AND SWAP1 POP SWAP3 SWAP2 POP POP JUMP JUMPDEST PUSH1 0x0 CALLER SWAP1 POP SWAP1 JUMP JUMPDEST DUP2 PUSH20 0xFFFFFFFFFFFFFFFFFFFFFFFFFFFFFFFFFFFFFFFF AND DUP4 PUSH20 0xFFFFFFFFFFFFFFFFFFFFFFFFFFFFFFFFFFFFFFFF AND EQ ISZERO PUSH2 0x4A4 JUMPI PUSH1 0x40 MLOAD PUSH32 0x8C379A000000000000000000000000000000000000000000000000000000000 DUP2 MSTORE PUSH1 0x4 ADD PUSH2 0x49B SWAP1 PUSH2 0xA00 JUMP JUMPDEST PUSH1 0x40 MLOAD DUP1 SWAP2 SUB SWAP1 REVERT JUMPDEST DUP1 PUSH1 0x1 PUSH1 0x0 DUP6 PUSH20 0xFFFFFFFFFFFFFFFFFFFFFFFFFFFFFFFFFFFFFFFF AND PUSH20 0xFFFFFFFFFFFFFFFFFFFFFFFFFFFFFFFFFFFFFFFF AND DUP2 MSTORE PUSH1 0x20 ADD SWAP1 DUP2 MSTORE PUSH1 0x20 ADD PUSH1 0x0 KECCAK256 PUSH1 0x0 DUP5 PUSH20 0xFFFFFFFFFFFFFFFFFFFFFFFFFFFFFFFFFFFFFFFF AND PUSH20 0xFFFFFFFFFFFFFFFFFFFFFFFFFFFFFFFFFFFFFFFF AND DUP2 MSTORE PUSH1 0x20 ADD SWAP1 DUP2 MSTORE PUSH1 0x20 ADD PUSH1 0x0 KECCAK256 PUSH1 0x0 PUSH2 0x100 EXP DUP2 SLOAD DUP2 PUSH1 0xFF MUL NOT AND SWAP1 DUP4 ISZERO ISZERO MUL OR SWAP1 SSTORE POP DUP2 PUSH20 0xFFFFFFFFFFFFFFFFFFFFFFFFFFFFFFFFFFFFFFFF AND DUP4 PUSH20 0xFFFFFFFFFFFFFFFFFFFFFFFFFFFFFFFFFFFFFFFF AND PUSH32 0x17307EAB39AB6107E8899845AD3D59BD9653F200F220920489CA2B5937696C31 DUP4 PUSH1 0x40 MLOAD PUSH2 0x595 SWAP2 SWAP1 PUSH2 0x9C5 JUMP JUMPDEST PUSH1 0x40 MLOAD DUP1 SWAP2 SUB SWAP1 LOG3 POP POP POP JUMP JUMPDEST PUSH1 0x0 PUSH2 0x5B5 PUSH2 0x5B0 DUP5 PUSH2 0xA80 JUMP JUMPDEST PUSH2 0xA5B JUMP JUMPDEST SWAP1 POP DUP1 DUP4 DUP3 MSTORE PUSH1 0x20 DUP3 ADD SWAP1 POP DUP3 DUP6 PUSH1 0x20 DUP7 MUL DUP3 ADD GT ISZERO PUSH2 0x5D8 JUMPI PUSH2 0x5D7 PUSH2 0xCA2 JUMP JUMPDEST JUMPDEST PUSH1 0x0 JUMPDEST DUP6 DUP2 LT ISZERO PUSH2 0x608 JUMPI DUP2 PUSH2 0x5EE DUP9 DUP3 PUSH2 0x682 JUMP JUMPDEST DUP5 MSTORE PUSH1 0x20 DUP5 ADD SWAP4 POP PUSH1 0x20 DUP4 ADD SWAP3 POP POP PUSH1 0x1 DUP2 ADD SWAP1 POP PUSH2 0x5DB JUMP JUMPDEST POP POP POP SWAP4 SWAP3 POP POP POP JUMP JUMPDEST PUSH1 0x0 PUSH2 0x625 PUSH2 0x620 DUP5 PUSH2 0xAAC JUMP JUMPDEST PUSH2 0xA5B JUMP JUMPDEST SWAP1 POP DUP1 DUP4 DUP3 MSTORE PUSH1 0x20 DUP3 ADD SWAP1 POP DUP3 DUP6 PUSH1 0x20 DUP7 MUL DUP3 ADD GT ISZERO PUSH2 0x648 JUMPI PUSH2 0x647 PUSH2 0xCA2 JUMP JUMPDEST JUMPDEST PUSH1 0x0 JUMPDEST DUP6 DUP2 LT ISZERO PUSH2 0x678 JUMPI DUP2 PUSH2 0x65E DUP9 DUP3 PUSH2 0x71D JUMP JUMPDEST DUP5 MSTORE PUSH1 0x20 DUP5 ADD SWAP4 POP PUSH1 0x20 DUP4 ADD SWAP3 POP POP PUSH1 0x1 DUP2 ADD SWAP1 POP PUSH2 0x64B JUMP JUMPDEST POP POP POP SWAP4 SWAP3 POP POP POP JUMP JUMPDEST PUSH1 0x0 DUP2 CALLDATALOAD SWAP1 POP PUSH2 0x691 DUP2 PUSH2 0xDAF JUMP JUMPDEST SWAP3 SWAP2 POP POP JUMP JUMPDEST PUSH1 0x0 DUP3 PUSH1 0x1F DUP4 ADD SLT PUSH2 0x6AC JUMPI PUSH2 0x6AB PUSH2 0xC9D JUMP JUMPDEST JUMPDEST DUP2 CALLDATALOAD PUSH2 0x6BC DUP5 DUP3 PUSH1 0x20 DUP7 ADD PUSH2 0x5A2 JUMP JUMPDEST SWAP2 POP POP SWAP3 SWAP2 POP POP JUMP JUMPDEST PUSH1 0x0 DUP3 PUSH1 0x1F DUP4 ADD SLT PUSH2 0x6DA JUMPI PUSH2 0x6D9 PUSH2 0xC9D JUMP JUMPDEST JUMPDEST DUP2 CALLDATALOAD PUSH2 0x6EA DUP5 DUP3 PUSH1 0x20 DUP7 ADD PUSH2 0x612 JUMP JUMPDEST SWAP2 POP POP SWAP3 SWAP2 POP POP JUMP JUMPDEST PUSH1 0x0 DUP2 CALLDATALOAD SWAP1 POP PUSH2 0x702 DUP2 PUSH2 0xDC6 JUMP JUMPDEST SWAP3 SWAP2 POP POP JUMP JUMPDEST PUSH1 0x0 DUP2 CALLDATALOAD SWAP1 POP PUSH2 0x717 DUP2 PUSH2 0xDDD JUMP JUMPDEST SWAP3 SWAP2 POP POP JUMP JUMPDEST PUSH1 0x0 DUP2 CALLDATALOAD SWAP1 POP PUSH2 0x72C DUP2 PUSH2 0xDF4 JUMP JUMPDEST SWAP3 SWAP2 POP POP JUMP JUMPDEST PUSH1 0x0 DUP1 PUSH1 0x40 DUP4 DUP6 SUB SLT ISZERO PUSH2 0x749 JUMPI PUSH2 0x748 PUSH2 0xCAC JUMP JUMPDEST JUMPDEST PUSH1 0x0 PUSH2 0x757 DUP6 DUP3 DUP7 ADD PUSH2 0x682 JUMP JUMPDEST SWAP3 POP POP PUSH1 0x20 PUSH2 0x768 DUP6 DUP3 DUP7 ADD PUSH2 0x682 JUMP JUMPDEST SWAP2 POP POP SWAP3 POP SWAP3 SWAP1 POP JUMP JUMPDEST PUSH1 0x0 DUP1 PUSH1 0x40 DUP4 DUP6 SUB SLT ISZERO PUSH2 0x789 JUMPI PUSH2 0x788 PUSH2 0xCAC JUMP JUMPDEST JUMPDEST PUSH1 0x0 PUSH2 0x797 DUP6 DUP3 DUP7 ADD PUSH2 0x682 JUMP JUMPDEST SWAP3 POP POP PUSH1 0x20 PUSH2 0x7A8 DUP6 DUP3 DUP7 ADD PUSH2 0x6F3 JUMP JUMPDEST SWAP2 POP POP SWAP3 POP SWAP3 SWAP1 POP JUMP JUMPDEST PUSH1 0x0 DUP1 PUSH1 0x40 DUP4 DUP6 SUB SLT ISZERO PUSH2 0x7C9 JUMPI PUSH2 0x7C8 PUSH2 0xCAC JUMP JUMPDEST JUMPDEST PUSH1 0x0 PUSH2 0x7D7 DUP6 DUP3 DUP7 ADD PUSH2 0x682 JUMP JUMPDEST SWAP3 POP POP PUSH1 0x20 PUSH2 0x7E8 DUP6 DUP3 DUP7 ADD PUSH2 0x71D JUMP JUMPDEST SWAP2 POP POP SWAP3 POP SWAP3 SWAP1 POP JUMP JUMPDEST PUSH1 0x0 DUP1 PUSH1 0x40 DUP4 DUP6 SUB SLT ISZERO PUSH2 0x809 JUMPI PUSH2 0x808 PUSH2 0xCAC JUMP JUMPDEST JUMPDEST PUSH1 0x0 DUP4 ADD CALLDATALOAD PUSH8 0xFFFFFFFFFFFFFFFF DUP2 GT ISZERO PUSH2 0x827 JUMPI PUSH2 0x826 PUSH2 0xCA7 JUMP JUMPDEST JUMPDEST PUSH2 0x833 DUP6 DUP3 DUP7 ADD PUSH2 0x697 JUMP JUMPDEST SWAP3 POP POP PUSH1 0x20 DUP4 ADD CALLDATALOAD PUSH8 0xFFFFFFFFFFFFFFFF DUP2 GT ISZERO PUSH2 0x854 JUMPI PUSH2 0x853 PUSH2 0xCA7 JUMP JUMPDEST JUMPDEST PUSH2 0x860 DUP6 DUP3 DUP7 ADD PUSH2 0x6C5 JUMP JUMPDEST SWAP2 POP POP SWAP3 POP SWAP3 SWAP1 POP JUMP JUMPDEST PUSH1 0x0 PUSH1 0x20 DUP3 DUP5 SUB SLT ISZERO PUSH2 0x880 JUMPI PUSH2 0x87F PUSH2 0xCAC JUMP JUMPDEST JUMPDEST PUSH1 0x0 PUSH2 0x88E DUP5 DUP3 DUP6 ADD PUSH2 0x708 JUMP JUMPDEST SWAP2 POP POP SWAP3 SWAP2 POP POP JUMP JUMPDEST PUSH1 0x0 PUSH2 0x8A3 DUP4 DUP4 PUSH2 0x985 JUMP JUMPDEST PUSH1 0x20 DUP4 ADD SWAP1 POP SWAP3 SWAP2 POP POP JUMP JUMPDEST PUSH1 0x0 PUSH2 0x8BA DUP3 PUSH2 0xAE8 JUMP JUMPDEST PUSH2 0x8C4 DUP2 DUP6 PUSH2 0xB00 JUMP JUMPDEST SWAP4 POP PUSH2 0x8CF DUP4 PUSH2 0xAD8 JUMP JUMPDEST DUP1 PUSH1 0x0 JUMPDEST DUP4 DUP2 LT ISZERO PUSH2 0x900 JUMPI DUP2 MLOAD PUSH2 0x8E7 DUP9 DUP3 PUSH2 0x897 JUMP JUMPDEST SWAP8 POP PUSH2 0x8F2 DUP4 PUSH2 0xAF3 JUMP JUMPDEST SWAP3 POP POP PUSH1 0x1 DUP2 ADD SWAP1 POP PUSH2 0x8D3 JUMP JUMPDEST POP DUP6 SWAP4 POP POP POP POP SWAP3 SWAP2 POP POP JUMP JUMPDEST PUSH2 0x916 DUP2 PUSH2 0xB34 JUMP JUMPDEST DUP3 MSTORE POP POP JUMP JUMPDEST PUSH1 0x0 PUSH2 0x929 PUSH1 0x2B DUP4 PUSH2 0xB11 JUMP JUMPDEST SWAP2 POP PUSH2 0x934 DUP3 PUSH2 0xCC2 JUMP JUMPDEST PUSH1 0x40 DUP3 ADD SWAP1 POP SWAP2 SWAP1 POP JUMP JUMPDEST PUSH1 0x0 PUSH2 0x94C PUSH1 0x29 DUP4 PUSH2 0xB11 JUMP JUMPDEST SWAP2 POP PUSH2 0x957 DUP3 PUSH2 0xD11 JUMP JUMPDEST PUSH1 0x40 DUP3 ADD SWAP1 POP SWAP2 SWAP1 POP JUMP JUMPDEST PUSH1 0x0 PUSH2 0x96F PUSH1 0x29 DUP4 PUSH2 0xB11 JUMP JUMPDEST SWAP2 POP PUSH2 0x97A DUP3 PUSH2 0xD60 JUMP JUMPDEST PUSH1 0x40 DUP3 ADD SWAP1 POP SWAP2 SWAP1 POP JUMP JUMPDEST PUSH2 0x98E DUP2 PUSH2 0xB8C JUMP JUMPDEST DUP3 MSTORE POP POP JUMP JUMPDEST PUSH2 0x99D DUP2 PUSH2 0xB8C JUMP JUMPDEST DUP3 MSTORE POP POP JUMP JUMPDEST PUSH1 0x0 PUSH1 0x20 DUP3 ADD SWAP1 POP DUP2 DUP2 SUB PUSH1 0x0 DUP4 ADD MSTORE PUSH2 0x9BD DUP2 DUP5 PUSH2 0x8AF JUMP JUMPDEST SWAP1 POP SWAP3 SWAP2 POP POP JUMP JUMPDEST PUSH1 0x0 PUSH1 0x20 DUP3 ADD SWAP1 POP PUSH2 0x9DA PUSH1 0x0 DUP4 ADD DUP5 PUSH2 0x90D JUMP JUMPDEST SWAP3 SWAP2 POP POP JUMP JUMPDEST PUSH1 0x0 PUSH1 0x20 DUP3 ADD SWAP1 POP DUP2 DUP2 SUB PUSH1 0x0 DUP4 ADD MSTORE PUSH2 0x9F9 DUP2 PUSH2 0x91C JUMP JUMPDEST SWAP1 POP SWAP2 SWAP1 POP JUMP JUMPDEST PUSH1 0x0 PUSH1 0x20 DUP3 ADD SWAP1 POP DUP2 DUP2 SUB PUSH1 0x0 DUP4 ADD MSTORE PUSH2 0xA19 DUP2 PUSH2 0x93F JUMP JUMPDEST SWAP1 POP SWAP2 SWAP1 POP JUMP JUMPDEST PUSH1 0x0 PUSH1 0x20 DUP3 ADD SWAP1 POP DUP2 DUP2 SUB PUSH1 0x0 DUP4 ADD MSTORE PUSH2 0xA39 DUP2 PUSH2 0x962 JUMP JUMPDEST SWAP1 POP SWAP2 SWAP1 POP JUMP JUMPDEST PUSH1 0x0 PUSH1 0x20 DUP3 ADD SWAP1 POP PUSH2 0xA55 PUSH1 0x0 DUP4 ADD DUP5 PUSH2 0x994 JUMP JUMPDEST SWAP3 SWAP2 POP POP JUMP JUMPDEST PUSH1 0x0 PUSH2 0xA65 PUSH2 0xA76 JUMP JUMPDEST SWAP1 POP PUSH2 0xA71 DUP3 DUP3 PUSH2 0xB96 JUMP JUMPDEST SWAP2 SWAP1 POP JUMP JUMPDEST PUSH1 0x0 PUSH1 0x40 MLOAD SWAP1 POP SWAP1 JUMP JUMPDEST PUSH1 0x0 PUSH8 0xFFFFFFFFFFFFFFFF DUP3 GT ISZERO PUSH2 0xA9B JUMPI PUSH2 0xA9A PUSH2 0xC6E JUMP JUMPDEST JUMPDEST PUSH1 0x20 DUP3 MUL SWAP1 POP PUSH1 0x20 DUP2 ADD SWAP1 POP SWAP2 SWAP1 POP JUMP JUMPDEST PUSH1 0x0 PUSH8 0xFFFFFFFFFFFFFFFF DUP3 GT ISZERO PUSH2 0xAC7 JUMPI PUSH2 0xAC6 PUSH2 0xC6E JUMP JUMPDEST JUMPDEST PUSH1 0x20 DUP3 MUL SWAP1 POP PUSH1 0x20 DUP2 ADD SWAP1 POP SWAP2 SWAP1 POP JUMP JUMPDEST PUSH1 0x0 DUP2 SWAP1 POP PUSH1 0x20 DUP3 ADD SWAP1 POP SWAP2 SWAP1 POP JUMP JUMPDEST PUSH1 0x0 DUP2 MLOAD SWAP1 POP SWAP2 SWAP1 POP JUMP JUMPDEST PUSH1 0x0 PUSH1 0x20 DUP3 ADD SWAP1 POP SWAP2 SWAP1 POP JUMP JUMPDEST PUSH1 0x0 DUP3 DUP3 MSTORE PUSH1 0x20 DUP3 ADD SWAP1 POP SWAP3 SWAP2 POP POP JUMP JUMPDEST PUSH1 0x0 DUP3 DUP3 MSTORE PUSH1 0x20 DUP3 ADD SWAP1 POP SWAP3 SWAP2 POP POP JUMP JUMPDEST PUSH1 0x0 PUSH2 0xB2D DUP3 PUSH2 0xB6C JUMP JUMPDEST SWAP1 POP SWAP2 SWAP1 POP JUMP JUMPDEST PUSH1 0x0 DUP2 ISZERO ISZERO SWAP1 POP SWAP2 SWAP1 POP JUMP JUMPDEST PUSH1 0x0 PUSH32 0xFFFFFFFF00000000000000000000000000000000000000000000000000000000 DUP3 AND SWAP1 POP SWAP2 SWAP1 POP JUMP JUMPDEST PUSH1 0x0 PUSH20 0xFFFFFFFFFFFFFFFFFFFFFFFFFFFFFFFFFFFFFFFF DUP3 AND SWAP1 POP SWAP2 SWAP1 POP JUMP JUMPDEST PUSH1 0x0 DUP2 SWAP1 POP SWAP2 SWAP1 POP JUMP JUMPDEST PUSH2 0xB9F DUP3 PUSH2 0xCB1 JUMP JUMPDEST DUP2 ADD DUP2 DUP2 LT PUSH8 0xFFFFFFFFFFFFFFFF DUP3 GT OR ISZERO PUSH2 0xBBE JUMPI PUSH2 0xBBD PUSH2 0xC6E JUMP JUMPDEST JUMPDEST DUP1 PUSH1 0x40 MSTORE POP POP POP JUMP JUMPDEST PUSH1 0x0 PUSH2 0xBD2 DUP3 PUSH2 0xB8C JUMP JUMPDEST SWAP2 POP PUSH32 0xFFFFFFFFFFFFFFFFFFFFFFFFFFFFFFFFFFFFFFFFFFFFFFFFFFFFFFFFFFFFFFFF DUP3 EQ ISZERO PUSH2 0xC05 JUMPI PUSH2 0xC04 PUSH2 0xC10 JUMP JUMPDEST JUMPDEST PUSH1 0x1 DUP3 ADD SWAP1 POP SWAP2 SWAP1 POP JUMP JUMPDEST PUSH32 0x4E487B7100000000000000000000000000000000000000000000000000000000 PUSH1 0x0 MSTORE PUSH1 0x11 PUSH1 0x4 MSTORE PUSH1 0x24 PUSH1 0x0 REVERT JUMPDEST PUSH32 0x4E487B7100000000000000000000000000000000000000000000000000000000 PUSH1 0x0 MSTORE PUSH1 0x32 PUSH1 0x4 MSTORE PUSH1 0x24 PUSH1 0x0 REVERT JUMPDEST PUSH32 0x4E487B7100000000000000000000000000000000000000000000000000000000 PUSH1 0x0 MSTORE PUSH1 0x41 PUSH1 0x4 MSTORE PUSH1 0x24 PUSH1 0x0 REVERT JUMPDEST PUSH1 0x0 DUP1 REVERT JUMPDEST PUSH1 0x0 DUP1 REVERT JUMPDEST PUSH1 0x0 DUP1 REVERT JUMPDEST PUSH1 0x0 DUP1 REVERT JUMPDEST PUSH1 0x0 PUSH1 0x1F NOT PUSH1 0x1F DUP4 ADD AND SWAP1 POP SWAP2 SWAP1 POP JUMP JUMPDEST PUSH32 0x455243313135353A2062616C616E636520717565727920666F7220746865207A PUSH1 0x0 DUP3 ADD MSTORE PUSH32 0x65726F2061646472657373000000000000000000000000000000000000000000 PUSH1 0x20 DUP3 ADD MSTORE POP JUMP JUMPDEST PUSH32 0x455243313135353A2073657474696E6720617070726F76616C20737461747573 PUSH1 0x0 DUP3 ADD MSTORE PUSH32 0x20666F722073656C660000000000000000000000000000000000000000000000 PUSH1 0x20 DUP3 ADD MSTORE POP JUMP JUMPDEST PUSH32 0x455243313135353A206163636F756E747320616E6420696473206C656E677468 PUSH1 0x0 DUP3 ADD MSTORE PUSH32 0x206D69736D617463680000000000000000000000000000000000000000000000 PUSH1 0x20 DUP3 ADD MSTORE POP JUMP JUMPDEST PUSH2 0xDB8 DUP2 PUSH2 0xB22 JUMP JUMPDEST DUP2 EQ PUSH2 0xDC3 JUMPI PUSH1 0x0 DUP1 REVERT JUMPDEST POP JUMP JUMPDEST PUSH2 0xDCF DUP2 PUSH2 0xB34 JUMP JUMPDEST DUP2 EQ PUSH2 0xDDA JUMPI PUSH1 0x0 DUP1 REVERT JUMPDEST POP JUMP JUMPDEST PUSH2 0xDE6 DUP2 PUSH2 0xB40 JUMP JUMPDEST DUP2 EQ PUSH2 0xDF1 JUMPI PUSH1 0x0 DUP1 REVERT JUMPDEST POP JUMP JUMPDEST PUSH2 0xDFD DUP2 PUSH2 0xB8C JUMP JUMPDEST DUP2 EQ PUSH2 0xE08 JUMPI PUSH1 0x0 DUP1 REVERT JUMPDEST POP JUMP INVALID LOG2 PUSH5 0x6970667358 0x22 SLT KECCAK256 0xD0 0x4A SLOAD 0xEE 0xA6 0xDC 0xC4 SWAP2 0x4E 0x4D RETURNDATASIZE 0x2B PUSH7 0x8CDB5948040853 0xE5 REVERT 0xCE SWAP15 0xC0 0x2B PUSH13 0x4E5451933564736F6C63430008 SMOD STOP CALLER "
				},
				"gasEstimates": {
					"creation": {
						"codeDepositCost": "729800",
						"executionCost": "766",
						"totalCost": "730566"
					},
					"external": {
						"balanceOf(address,uint256)": "infinite",
						"balanceOfBatch(address[],uint256[])": "infinite",
						"isApprovedForAll(address,address)": "infinite",
						"setApprovalForAll(address,bool)": "infinite",
						"supportsInterface(bytes4)": "638"
					},
					"internal": {
						"_asSingletonArray(uint256)": "infinite",
						"_beforeTokenTransfer(address,address,address,uint256[] memory,uint256[] memory,bytes memory)": "infinite",
						"_burn(address,uint256,uint256)": "infinite",
						"_burnBatch(address,uint256[] memory,uint256[] memory)": "infinite",
						"_doSafeBatchTransferAcceptanceCheck(address,address,address,uint256[] memory,uint256[] memory,bytes memory)": "infinite",
						"_doSafeTransferAcceptanceCheck(address,address,address,uint256,uint256,bytes memory)": "infinite",
						"_mint(address,uint256,uint256,bytes memory)": "infinite",
						"_safeBatchTransferFrom(address,address,uint256[] memory,uint256[] memory,bytes memory)": "infinite",
						"_safeTransferFrom(address,address,uint256,uint256,bytes memory)": "infinite",
						"_setApprovalForAll(address,address,bool)": "infinite"
					}
				},
				"methodIdentifiers": {
					"balanceOf(address,uint256)": "00fdd58e",
					"balanceOfBatch(address[],uint256[])": "4e1273f4",
					"isApprovedForAll(address,address)": "e985e9c5",
					"setApprovalForAll(address,bool)": "a22cb465",
					"supportsInterface(bytes4)": "01ffc9a7"
				}
			},
			"userdoc": {
				"kind": "user",
				"methods": {},
				"version": 1
			}
		}
	}
}