{
	"Dropsite.sol": {
		"Dropsite": {
			"abi": [
				{
					"inputs": [
						{
							"internalType": "string",
							"name": "name",
							"type": "string"
						}
					],
					"stateMutability": "nonpayable",
					"type": "constructor"
				},
				{
					"anonymous": false,
					"inputs": [
						{
							"indexed": true,
							"internalType": "address",
							"name": "operator",
							"type": "address"
						},
						{
							"indexed": true,
							"internalType": "address",
							"name": "from",
							"type": "address"
						},
						{
							"indexed": true,
							"internalType": "address",
							"name": "to",
							"type": "address"
						},
						{
							"indexed": false,
							"internalType": "uint256",
							"name": "id",
							"type": "uint256"
						},
						{
							"indexed": false,
							"internalType": "uint256",
							"name": "value",
							"type": "uint256"
						}
					],
					"name": "TransferSingle",
					"type": "event"
				},
				{
					"inputs": [],
					"name": "IsPaused",
					"outputs": [
						{
							"internalType": "bool",
							"name": "",
							"type": "bool"
						}
					],
					"stateMutability": "view",
					"type": "function"
				},
				{
					"inputs": [],
					"name": "Owner",
					"outputs": [
						{
							"internalType": "address payable",
							"name": "",
							"type": "address"
						}
					],
					"stateMutability": "view",
					"type": "function"
				},
				{
					"inputs": [],
					"name": "TotalNFTsMinted",
					"outputs": [
						{
							"internalType": "uint256",
							"name": "",
							"type": "uint256"
						}
					],
					"stateMutability": "view",
					"type": "function"
				},
				{
					"inputs": [],
					"name": "checkMintedCategoryWise",
					"outputs": [
						{
							"internalType": "uint256",
							"name": "",
							"type": "uint256"
						},
						{
							"internalType": "uint256",
							"name": "",
							"type": "uint256"
						},
						{
							"internalType": "uint256",
							"name": "",
							"type": "uint256"
						}
					],
					"stateMutability": "view",
					"type": "function"
				},
				{
					"inputs": [
						{
							"internalType": "address",
							"name": "",
							"type": "address"
						}
					],
					"name": "dropsite_NFT_Owner",
					"outputs": [
						{
							"internalType": "uint256",
							"name": "",
							"type": "uint256"
						}
					],
					"stateMutability": "view",
					"type": "function"
				},
				{
					"inputs": [],
					"name": "openDropsite",
					"outputs": [],
					"stateMutability": "nonpayable",
					"type": "function"
				},
				{
					"inputs": [
						{
							"internalType": "address",
							"name": "user_addr",
							"type": "address"
						}
					],
					"name": "randomMint",
					"outputs": [
						{
							"internalType": "uint256",
							"name": "",
							"type": "uint256"
						},
						{
							"internalType": "string",
							"name": "",
							"type": "string"
						}
					],
					"stateMutability": "nonpayable",
					"type": "function"
				},
				{
					"inputs": [],
					"name": "stopDropsite",
					"outputs": [],
					"stateMutability": "nonpayable",
					"type": "function"
				}
			],
			"devdoc": {
				"kind": "dev",
				"methods": {},
				"version": 1
			},
			"evm": {
				"assembly": "    /* \"Dropsite.sol\":122:2856  contract Dropsite is ERC1155_Dropsite  { ... */\n  mstore(0x40, 0x80)\n    /* \"Dropsite.sol\":190:205  bytes  data =\"\" */\n  mload(0x40)\n  dup1\n  0x20\n  add\n  0x40\n  mstore\n  dup1\n  0x00\n  dup2\n  mstore\n  pop\n  0x02\n  swap1\n  dup1\n  mload\n  swap1\n  0x20\n  add\n  swap1\n  tag_1\n  swap3\n  swap2\n  swap1\n  tag_2\n  jump\t// in\ntag_1:\n  pop\n    /* \"Dropsite.sol\":803:807  true */\n  0x01\n    /* \"Dropsite.sol\":780:807  bool public IsPaused = true */\n  0x0a\n  exp(0x0100, 0x00)\n  dup2\n  sload\n  dup2\n  0xff\n  mul\n  not\n  and\n  swap1\n  dup4\n  iszero\n  iszero\n  mul\n  or\n  swap1\n  sstore\n  pop\n    /* \"Dropsite.sol\":879:1155  constructor (string memory name){... */\n  callvalue\n  dup1\n  iszero\n  tag_3\n  jumpi\n  0x00\n  dup1\n  revert\ntag_3:\n  pop\n  mload(0x40)\n  sub(codesize, bytecodeSize)\n  dup1\n  bytecodeSize\n  dup4\n  codecopy\n  dup2\n  dup2\n  add\n  0x40\n  mstore\n  dup2\n  add\n  swap1\n  tag_4\n  swap2\n  swap1\n  tag_5\n  jump\t// in\ntag_4:\n    /* \"Dropsite.sol\":929:933  name */\n  dup1\n    /* \"Dropsite.sol\":921:926  _name */\n  0x0b\n    /* \"Dropsite.sol\":921:933  _name = name */\n  swap1\n  dup1\n  mload\n  swap1\n  0x20\n  add\n  swap1\n  tag_8\n  swap3\n  swap2\n  swap1\n  tag_9\n  jump\t// in\ntag_8:\n  pop\n    /* \"Dropsite.sol\":959:969  msg.sender */\n  caller\n    /* \"Dropsite.sol\":943:948  Owner */\n  0x0a\n  0x01\n    /* \"Dropsite.sol\":943:970  Owner = payable(msg.sender) */\n  0x0100\n  exp\n  dup2\n  sload\n  dup2\n  0xffffffffffffffffffffffffffffffffffffffff\n  mul\n  not\n  and\n  swap1\n  dup4\n  0xffffffffffffffffffffffffffffffffffffffff\n  and\n  mul\n  or\n  swap1\n  sstore\n  pop\n    /* \"Dropsite.sol\":997:998  0 */\n  0x00\n    /* \"Dropsite.sol\":981:996  TotalNFTsMinted */\n  0x03\n    /* \"Dropsite.sol\":981:998  TotalNFTsMinted=0 */\n  dup2\n  swap1\n  sstore\n  pop\n    /* \"Dropsite.sol\":1044:1045  1 */\n  0x01\n    /* \"Dropsite.sol\":1032:1043  numOfCopies */\n  0x04\n    /* \"Dropsite.sol\":1032:1045  numOfCopies=1 */\n  dup2\n  swap1\n  sstore\n  pop\n    /* \"Dropsite.sol\":1101:1102  0 */\n  0x00\n    /* \"Dropsite.sol\":1092:1100  Platinum */\n  0x05\n    /* \"Dropsite.sol\":1092:1102  Platinum=0 */\n  dup2\n  swap1\n  sstore\n  pop\n    /* \"Dropsite.sol\":1129:1130  0 */\n  0x00\n    /* \"Dropsite.sol\":1124:1128  Gold */\n  0x06\n    /* \"Dropsite.sol\":1124:1130  Gold=0 */\n  dup2\n  swap1\n  sstore\n  pop\n    /* \"Dropsite.sol\":1147:1148  0 */\n  0x00\n    /* \"Dropsite.sol\":1140:1146  Silver */\n  0x07\n    /* \"Dropsite.sol\":1140:1148  Silver=0 */\n  dup2\n  swap1\n  sstore\n  pop\n    /* \"Dropsite.sol\":879:1155  constructor (string memory name){... */\n  pop\n    /* \"Dropsite.sol\":122:2856  contract Dropsite is ERC1155_Dropsite  { ... */\n  jump(tag_10)\ntag_2:\n  dup3\n  dup1\n  sload\n  tag_11\n  swap1\n  tag_12\n  jump\t// in\ntag_11:\n  swap1\n  0x00\n  mstore\n  keccak256(0x00, 0x20)\n  swap1\n  0x1f\n  add\n  0x20\n  swap1\n  div\n  dup2\n  add\n  swap3\n  dup3\n  tag_14\n  jumpi\n  0x00\n  dup6\n  sstore\n  jump(tag_13)\ntag_14:\n  dup3\n  0x1f\n  lt\n  tag_15\n  jumpi\n  dup1\n  mload\n  not(0xff)\n  and\n  dup4\n  dup1\n  add\n  or\n  dup6\n  sstore\n  jump(tag_13)\ntag_15:\n  dup3\n  dup1\n  add\n  0x01\n  add\n  dup6\n  sstore\n  dup3\n  iszero\n  tag_13\n  jumpi\n  swap2\n  dup3\n  add\ntag_16:\n  dup3\n  dup2\n  gt\n  iszero\n  tag_17\n  jumpi\n  dup3\n  mload\n  dup3\n  sstore\n  swap2\n  0x20\n  add\n  swap2\n  swap1\n  0x01\n  add\n  swap1\n  jump(tag_16)\ntag_17:\ntag_13:\n  pop\n  swap1\n  pop\n  tag_18\n  swap2\n  swap1\n  tag_19\n  jump\t// in\ntag_18:\n  pop\n  swap1\n  jump\t// out\ntag_9:\n  dup3\n  dup1\n  sload\n  tag_20\n  swap1\n  tag_12\n  jump\t// in\ntag_20:\n  swap1\n  0x00\n  mstore\n  keccak256(0x00, 0x20)\n  swap1\n  0x1f\n  add\n  0x20\n  swap1\n  div\n  dup2\n  add\n  swap3\n  dup3\n  tag_22\n  jumpi\n  0x00\n  dup6\n  sstore\n  jump(tag_21)\ntag_22:\n  dup3\n  0x1f\n  lt\n  tag_23\n  jumpi\n  dup1\n  mload\n  not(0xff)\n  and\n  dup4\n  dup1\n  add\n  or\n  dup6\n  sstore\n  jump(tag_21)\ntag_23:\n  dup3\n  dup1\n  add\n  0x01\n  add\n  dup6\n  sstore\n  dup3\n  iszero\n  tag_21\n  jumpi\n  swap2\n  dup3\n  add\ntag_24:\n  dup3\n  dup2\n  gt\n  iszero\n  tag_25\n  jumpi\n  dup3\n  mload\n  dup3\n  sstore\n  swap2\n  0x20\n  add\n  swap2\n  swap1\n  0x01\n  add\n  swap1\n  jump(tag_24)\ntag_25:\ntag_21:\n  pop\n  swap1\n  pop\n  tag_26\n  swap2\n  swap1\n  tag_19\n  jump\t// in\ntag_26:\n  pop\n  swap1\n  jump\t// out\ntag_19:\ntag_27:\n  dup1\n  dup3\n  gt\n  iszero\n  tag_28\n  jumpi\n  0x00\n  dup2\n  0x00\n  swap1\n  sstore\n  pop\n  0x01\n  add\n  jump(tag_27)\ntag_28:\n  pop\n  swap1\n  jump\t// out\n    /* \"#utility.yul\":7:428   */\ntag_30:\n    /* \"#utility.yul\":96:101   */\n  0x00\n    /* \"#utility.yul\":121:187   */\n  tag_32\n    /* \"#utility.yul\":137:186   */\n  tag_33\n    /* \"#utility.yul\":179:185   */\n  dup5\n    /* \"#utility.yul\":137:186   */\n  tag_34\n  jump\t// in\ntag_33:\n    /* \"#utility.yul\":121:187   */\n  tag_35\n  jump\t// in\ntag_32:\n    /* \"#utility.yul\":112:187   */\n  swap1\n  pop\n    /* \"#utility.yul\":210:216   */\n  dup3\n    /* \"#utility.yul\":203:208   */\n  dup2\n    /* \"#utility.yul\":196:217   */\n  mstore\n    /* \"#utility.yul\":248:252   */\n  0x20\n    /* \"#utility.yul\":241:246   */\n  dup2\n    /* \"#utility.yul\":237:253   */\n  add\n    /* \"#utility.yul\":286:289   */\n  dup5\n    /* \"#utility.yul\":277:283   */\n  dup5\n    /* \"#utility.yul\":272:275   */\n  dup5\n    /* \"#utility.yul\":268:284   */\n  add\n    /* \"#utility.yul\":265:290   */\n  gt\n    /* \"#utility.yul\":262:374   */\n  iszero\n  tag_36\n  jumpi\n    /* \"#utility.yul\":293:372   */\n  tag_37\n  tag_38\n  jump\t// in\ntag_37:\n    /* \"#utility.yul\":262:374   */\ntag_36:\n    /* \"#utility.yul\":383:422   */\n  tag_39\n    /* \"#utility.yul\":415:421   */\n  dup5\n    /* \"#utility.yul\":410:413   */\n  dup3\n    /* \"#utility.yul\":405:408   */\n  dup6\n    /* \"#utility.yul\":383:422   */\n  tag_40\n  jump\t// in\ntag_39:\n    /* \"#utility.yul\":102:428   */\n  pop\n    /* \"#utility.yul\":7:428   */\n  swap4\n  swap3\n  pop\n  pop\n  pop\n  jump\t// out\n    /* \"#utility.yul\":448:803   */\ntag_41:\n    /* \"#utility.yul\":515:520   */\n  0x00\n    /* \"#utility.yul\":564:567   */\n  dup3\n    /* \"#utility.yul\":557:561   */\n  0x1f\n    /* \"#utility.yul\":549:555   */\n  dup4\n    /* \"#utility.yul\":545:562   */\n  add\n    /* \"#utility.yul\":541:568   */\n  slt\n    /* \"#utility.yul\":531:653   */\n  tag_43\n  jumpi\n    /* \"#utility.yul\":572:651   */\n  tag_44\n  tag_45\n  jump\t// in\ntag_44:\n    /* \"#utility.yul\":531:653   */\ntag_43:\n    /* \"#utility.yul\":682:688   */\n  dup2\n    /* \"#utility.yul\":676:689   */\n  mload\n    /* \"#utility.yul\":707:797   */\n  tag_46\n    /* \"#utility.yul\":793:796   */\n  dup5\n    /* \"#utility.yul\":785:791   */\n  dup3\n    /* \"#utility.yul\":778:782   */\n  0x20\n    /* \"#utility.yul\":770:776   */\n  dup7\n    /* \"#utility.yul\":766:783   */\n  add\n    /* \"#utility.yul\":707:797   */\n  tag_30\n  jump\t// in\ntag_46:\n    /* \"#utility.yul\":698:797   */\n  swap2\n  pop\n    /* \"#utility.yul\":521:803   */\n  pop\n    /* \"#utility.yul\":448:803   */\n  swap3\n  swap2\n  pop\n  pop\n  jump\t// out\n    /* \"#utility.yul\":809:1333   */\ntag_5:\n    /* \"#utility.yul\":889:895   */\n  0x00\n    /* \"#utility.yul\":938:940   */\n  0x20\n    /* \"#utility.yul\":926:935   */\n  dup3\n    /* \"#utility.yul\":917:924   */\n  dup5\n    /* \"#utility.yul\":913:936   */\n  sub\n    /* \"#utility.yul\":909:941   */\n  slt\n    /* \"#utility.yul\":906:1025   */\n  iszero\n  tag_48\n  jumpi\n    /* \"#utility.yul\":944:1023   */\n  tag_49\n  tag_50\n  jump\t// in\ntag_49:\n    /* \"#utility.yul\":906:1025   */\ntag_48:\n    /* \"#utility.yul\":1085:1086   */\n  0x00\n    /* \"#utility.yul\":1074:1083   */\n  dup3\n    /* \"#utility.yul\":1070:1087   */\n  add\n    /* \"#utility.yul\":1064:1088   */\n  mload\n    /* \"#utility.yul\":1115:1133   */\n  0xffffffffffffffff\n    /* \"#utility.yul\":1107:1113   */\n  dup2\n    /* \"#utility.yul\":1104:1134   */\n  gt\n    /* \"#utility.yul\":1101:1218   */\n  iszero\n  tag_51\n  jumpi\n    /* \"#utility.yul\":1137:1216   */\n  tag_52\n  tag_53\n  jump\t// in\ntag_52:\n    /* \"#utility.yul\":1101:1218   */\ntag_51:\n    /* \"#utility.yul\":1242:1316   */\n  tag_54\n    /* \"#utility.yul\":1308:1315   */\n  dup5\n    /* \"#utility.yul\":1299:1305   */\n  dup3\n    /* \"#utility.yul\":1288:1297   */\n  dup6\n    /* \"#utility.yul\":1284:1306   */\n  add\n    /* \"#utility.yul\":1242:1316   */\n  tag_41\n  jump\t// in\ntag_54:\n    /* \"#utility.yul\":1232:1316   */\n  swap2\n  pop\n    /* \"#utility.yul\":1035:1326   */\n  pop\n    /* \"#utility.yul\":809:1333   */\n  swap3\n  swap2\n  pop\n  pop\n  jump\t// out\n    /* \"#utility.yul\":1339:1468   */\ntag_35:\n    /* \"#utility.yul\":1373:1379   */\n  0x00\n    /* \"#utility.yul\":1400:1420   */\n  tag_56\n  tag_57\n  jump\t// in\ntag_56:\n    /* \"#utility.yul\":1390:1420   */\n  swap1\n  pop\n    /* \"#utility.yul\":1429:1462   */\n  tag_58\n    /* \"#utility.yul\":1457:1461   */\n  dup3\n    /* \"#utility.yul\":1449:1455   */\n  dup3\n    /* \"#utility.yul\":1429:1462   */\n  tag_59\n  jump\t// in\ntag_58:\n    /* \"#utility.yul\":1339:1468   */\n  swap2\n  swap1\n  pop\n  jump\t// out\n    /* \"#utility.yul\":1474:1549   */\ntag_57:\n    /* \"#utility.yul\":1507:1513   */\n  0x00\n    /* \"#utility.yul\":1540:1542   */\n  0x40\n    /* \"#utility.yul\":1534:1543   */\n  mload\n    /* \"#utility.yul\":1524:1543   */\n  swap1\n  pop\n    /* \"#utility.yul\":1474:1549   */\n  swap1\n  jump\t// out\n    /* \"#utility.yul\":1555:1863   */\ntag_34:\n    /* \"#utility.yul\":1617:1621   */\n  0x00\n    /* \"#utility.yul\":1707:1725   */\n  0xffffffffffffffff\n    /* \"#utility.yul\":1699:1705   */\n  dup3\n    /* \"#utility.yul\":1696:1726   */\n  gt\n    /* \"#utility.yul\":1693:1749   */\n  iszero\n  tag_62\n  jumpi\n    /* \"#utility.yul\":1729:1747   */\n  tag_63\n  tag_64\n  jump\t// in\ntag_63:\n    /* \"#utility.yul\":1693:1749   */\ntag_62:\n    /* \"#utility.yul\":1767:1796   */\n  tag_65\n    /* \"#utility.yul\":1789:1795   */\n  dup3\n    /* \"#utility.yul\":1767:1796   */\n  tag_66\n  jump\t// in\ntag_65:\n    /* \"#utility.yul\":1759:1796   */\n  swap1\n  pop\n    /* \"#utility.yul\":1851:1855   */\n  0x20\n    /* \"#utility.yul\":1845:1849   */\n  dup2\n    /* \"#utility.yul\":1841:1856   */\n  add\n    /* \"#utility.yul\":1833:1856   */\n  swap1\n  pop\n    /* \"#utility.yul\":1555:1863   */\n  swap2\n  swap1\n  pop\n  jump\t// out\n    /* \"#utility.yul\":1869:2176   */\ntag_40:\n    /* \"#utility.yul\":1937:1938   */\n  0x00\n    /* \"#utility.yul\":1947:2060   */\ntag_68:\n    /* \"#utility.yul\":1961:1967   */\n  dup4\n    /* \"#utility.yul\":1958:1959   */\n  dup2\n    /* \"#utility.yul\":1955:1968   */\n  lt\n    /* \"#utility.yul\":1947:2060   */\n  iszero\n  tag_70\n  jumpi\n    /* \"#utility.yul\":2046:2047   */\n  dup1\n    /* \"#utility.yul\":2041:2044   */\n  dup3\n    /* \"#utility.yul\":2037:2048   */\n  add\n    /* \"#utility.yul\":2031:2049   */\n  mload\n    /* \"#utility.yul\":2027:2028   */\n  dup2\n    /* \"#utility.yul\":2022:2025   */\n  dup5\n    /* \"#utility.yul\":2018:2029   */\n  add\n    /* \"#utility.yul\":2011:2050   */\n  mstore\n    /* \"#utility.yul\":1983:1985   */\n  0x20\n    /* \"#utility.yul\":1980:1981   */\n  dup2\n    /* \"#utility.yul\":1976:1986   */\n  add\n    /* \"#utility.yul\":1971:1986   */\n  swap1\n  pop\n    /* \"#utility.yul\":1947:2060   */\n  jump(tag_68)\ntag_70:\n    /* \"#utility.yul\":2078:2084   */\n  dup4\n    /* \"#utility.yul\":2075:2076   */\n  dup2\n    /* \"#utility.yul\":2072:2085   */\n  gt\n    /* \"#utility.yul\":2069:2170   */\n  iszero\n  tag_71\n  jumpi\n    /* \"#utility.yul\":2158:2159   */\n  0x00\n    /* \"#utility.yul\":2149:2155   */\n  dup5\n    /* \"#utility.yul\":2144:2147   */\n  dup5\n    /* \"#utility.yul\":2140:2156   */\n  add\n    /* \"#utility.yul\":2133:2160   */\n  mstore\n    /* \"#utility.yul\":2069:2170   */\ntag_71:\n    /* \"#utility.yul\":1918:2176   */\n  pop\n    /* \"#utility.yul\":1869:2176   */\n  pop\n  pop\n  pop\n  jump\t// out\n    /* \"#utility.yul\":2182:2502   */\ntag_12:\n    /* \"#utility.yul\":2226:2232   */\n  0x00\n    /* \"#utility.yul\":2263:2264   */\n  0x02\n    /* \"#utility.yul\":2257:2261   */\n  dup3\n    /* \"#utility.yul\":2253:2265   */\n  div\n    /* \"#utility.yul\":2243:2265   */\n  swap1\n  pop\n    /* \"#utility.yul\":2310:2311   */\n  0x01\n    /* \"#utility.yul\":2304:2308   */\n  dup3\n    /* \"#utility.yul\":2300:2312   */\n  and\n    /* \"#utility.yul\":2331:2349   */\n  dup1\n    /* \"#utility.yul\":2321:2402   */\n  tag_73\n  jumpi\n    /* \"#utility.yul\":2387:2391   */\n  0x7f\n    /* \"#utility.yul\":2379:2385   */\n  dup3\n    /* \"#utility.yul\":2375:2392   */\n  and\n    /* \"#utility.yul\":2365:2392   */\n  swap2\n  pop\n    /* \"#utility.yul\":2321:2402   */\ntag_73:\n    /* \"#utility.yul\":2449:2451   */\n  0x20\n    /* \"#utility.yul\":2441:2447   */\n  dup3\n    /* \"#utility.yul\":2438:2452   */\n  lt\n    /* \"#utility.yul\":2418:2436   */\n  dup2\n    /* \"#utility.yul\":2415:2453   */\n  eq\n    /* \"#utility.yul\":2412:2496   */\n  iszero\n  tag_74\n  jumpi\n    /* \"#utility.yul\":2468:2486   */\n  tag_75\n  tag_76\n  jump\t// in\ntag_75:\n    /* \"#utility.yul\":2412:2496   */\ntag_74:\n    /* \"#utility.yul\":2233:2502   */\n  pop\n    /* \"#utility.yul\":2182:2502   */\n  swap2\n  swap1\n  pop\n  jump\t// out\n    /* \"#utility.yul\":2508:2789   */\ntag_59:\n    /* \"#utility.yul\":2591:2618   */\n  tag_78\n    /* \"#utility.yul\":2613:2617   */\n  dup3\n    /* \"#utility.yul\":2591:2618   */\n  tag_66\n  jump\t// in\ntag_78:\n    /* \"#utility.yul\":2583:2589   */\n  dup2\n    /* \"#utility.yul\":2579:2619   */\n  add\n    /* \"#utility.yul\":2721:2727   */\n  dup2\n    /* \"#utility.yul\":2709:2719   */\n  dup2\n    /* \"#utility.yul\":2706:2728   */\n  lt\n    /* \"#utility.yul\":2685:2703   */\n  0xffffffffffffffff\n    /* \"#utility.yul\":2673:2683   */\n  dup3\n    /* \"#utility.yul\":2670:2704   */\n  gt\n    /* \"#utility.yul\":2667:2729   */\n  or\n    /* \"#utility.yul\":2664:2752   */\n  iszero\n  tag_79\n  jumpi\n    /* \"#utility.yul\":2732:2750   */\n  tag_80\n  tag_64\n  jump\t// in\ntag_80:\n    /* \"#utility.yul\":2664:2752   */\ntag_79:\n    /* \"#utility.yul\":2772:2782   */\n  dup1\n    /* \"#utility.yul\":2768:2770   */\n  0x40\n    /* \"#utility.yul\":2761:2783   */\n  mstore\n    /* \"#utility.yul\":2551:2789   */\n  pop\n    /* \"#utility.yul\":2508:2789   */\n  pop\n  pop\n  jump\t// out\n    /* \"#utility.yul\":2795:2975   */\ntag_76:\n    /* \"#utility.yul\":2843:2920   */\n  0x4e487b7100000000000000000000000000000000000000000000000000000000\n    /* \"#utility.yul\":2840:2841   */\n  0x00\n    /* \"#utility.yul\":2833:2921   */\n  mstore\n    /* \"#utility.yul\":2940:2944   */\n  0x22\n    /* \"#utility.yul\":2937:2938   */\n  0x04\n    /* \"#utility.yul\":2930:2945   */\n  mstore\n    /* \"#utility.yul\":2964:2968   */\n  0x24\n    /* \"#utility.yul\":2961:2962   */\n  0x00\n    /* \"#utility.yul\":2954:2969   */\n  revert\n    /* \"#utility.yul\":2981:3161   */\ntag_64:\n    /* \"#utility.yul\":3029:3106   */\n  0x4e487b7100000000000000000000000000000000000000000000000000000000\n    /* \"#utility.yul\":3026:3027   */\n  0x00\n    /* \"#utility.yul\":3019:3107   */\n  mstore\n    /* \"#utility.yul\":3126:3130   */\n  0x41\n    /* \"#utility.yul\":3123:3124   */\n  0x04\n    /* \"#utility.yul\":3116:3131   */\n  mstore\n    /* \"#utility.yul\":3150:3154   */\n  0x24\n    /* \"#utility.yul\":3147:3148   */\n  0x00\n    /* \"#utility.yul\":3140:3155   */\n  revert\n    /* \"#utility.yul\":3167:3284   */\ntag_45:\n    /* \"#utility.yul\":3276:3277   */\n  0x00\n    /* \"#utility.yul\":3273:3274   */\n  dup1\n    /* \"#utility.yul\":3266:3278   */\n  revert\n    /* \"#utility.yul\":3290:3407   */\ntag_38:\n    /* \"#utility.yul\":3399:3400   */\n  0x00\n    /* \"#utility.yul\":3396:3397   */\n  dup1\n    /* \"#utility.yul\":3389:3401   */\n  revert\n    /* \"#utility.yul\":3413:3530   */\ntag_53:\n    /* \"#utility.yul\":3522:3523   */\n  0x00\n    /* \"#utility.yul\":3519:3520   */\n  dup1\n    /* \"#utility.yul\":3512:3524   */\n  revert\n    /* \"#utility.yul\":3536:3653   */\ntag_50:\n    /* \"#utility.yul\":3645:3646   */\n  0x00\n    /* \"#utility.yul\":3642:3643   */\n  dup1\n    /* \"#utility.yul\":3635:3647   */\n  revert\n    /* \"#utility.yul\":3659:3761   */\ntag_66:\n    /* \"#utility.yul\":3700:3706   */\n  0x00\n    /* \"#utility.yul\":3751:3753   */\n  0x1f\n    /* \"#utility.yul\":3747:3754   */\n  not\n    /* \"#utility.yul\":3742:3744   */\n  0x1f\n    /* \"#utility.yul\":3735:3740   */\n  dup4\n    /* \"#utility.yul\":3731:3745   */\n  add\n    /* \"#utility.yul\":3727:3755   */\n  and\n    /* \"#utility.yul\":3717:3755   */\n  swap1\n  pop\n    /* \"#utility.yul\":3659:3761   */\n  swap2\n  swap1\n  pop\n  jump\t// out\n    /* \"Dropsite.sol\":122:2856  contract Dropsite is ERC1155_Dropsite  { ... */\ntag_10:\n  dataSize(sub_0)\n  dup1\n  dataOffset(sub_0)\n  0x00\n  codecopy\n  0x00\n  return\nstop\n\nsub_0: assembly {\n        /* \"Dropsite.sol\":122:2856  contract Dropsite is ERC1155_Dropsite  { ... */\n      mstore(0x40, 0x80)\n      callvalue\n      dup1\n      iszero\n      tag_1\n      jumpi\n      0x00\n      dup1\n      revert\n    tag_1:\n      pop\n      jumpi(tag_2, lt(calldatasize, 0x04))\n      shr(0xe0, calldataload(0x00))\n      dup1\n      0x97e96e86\n      gt\n      tag_11\n      jumpi\n      dup1\n      0x97e96e86\n      eq\n      tag_7\n      jumpi\n      dup1\n      0xaa90c726\n      eq\n      tag_8\n      jumpi\n      dup1\n      0xb4a99a4e\n      eq\n      tag_9\n      jumpi\n      dup1\n      0xd4c892c4\n      eq\n      tag_10\n      jumpi\n      jump(tag_2)\n    tag_11:\n      dup1\n      0x1309a563\n      eq\n      tag_3\n      jumpi\n      dup1\n      0x15460259\n      eq\n      tag_4\n      jumpi\n      dup1\n      0x322f0ece\n      eq\n      tag_5\n      jumpi\n      dup1\n      0x60daa851\n      eq\n      tag_6\n      jumpi\n    tag_2:\n      0x00\n      dup1\n      revert\n        /* \"Dropsite.sol\":780:807  bool public IsPaused = true */\n    tag_3:\n      tag_12\n      tag_13\n      jump\t// in\n    tag_12:\n      mload(0x40)\n      tag_14\n      swap2\n      swap1\n      tag_15\n      jump\t// in\n    tag_14:\n      mload(0x40)\n      dup1\n      swap2\n      sub\n      swap1\n      return\n        /* \"Dropsite.sol\":1444:1580  function openDropsite() public OnlyOwner {... */\n    tag_4:\n      tag_16\n      tag_17\n      jump\t// in\n    tag_16:\n      stop\n        /* \"Dropsite.sol\":212:239  uint public TotalNFTsMinted */\n    tag_5:\n      tag_18\n      tag_19\n      jump\t// in\n    tag_18:\n      mload(0x40)\n      tag_20\n      swap2\n      swap1\n      tag_21\n      jump\t// in\n    tag_20:\n      mload(0x40)\n      dup1\n      swap2\n      sub\n      swap1\n      return\n        /* \"Dropsite.sol\":1167:1295  function checkMintedCategoryWise() public view OnlyOwner returns(uint,uint,uint){... */\n    tag_6:\n      tag_22\n      tag_23\n      jump\t// in\n    tag_22:\n      mload(0x40)\n      tag_24\n      swap4\n      swap3\n      swap2\n      swap1\n      tag_25\n      jump\t// in\n    tag_24:\n      mload(0x40)\n      dup1\n      swap2\n      sub\n      swap1\n      return\n        /* \"Dropsite.sol\":1772:2848  function randomMint(address user_addr) contractIsNotPaused public returns (uint,string memory) {... */\n    tag_7:\n      tag_26\n      0x04\n      dup1\n      calldatasize\n      sub\n      dup2\n      add\n      swap1\n      tag_27\n      swap2\n      swap1\n      tag_28\n      jump\t// in\n    tag_27:\n      tag_29\n      jump\t// in\n    tag_26:\n      mload(0x40)\n      tag_30\n      swap3\n      swap2\n      swap1\n      tag_31\n      jump\t// in\n    tag_30:\n      mload(0x40)\n      dup1\n      swap2\n      sub\n      swap1\n      return\n        /* \"Dropsite.sol\":1302:1437  function stopDropsite() public OnlyOwner{... */\n    tag_8:\n      tag_32\n      tag_33\n      jump\t// in\n    tag_32:\n      stop\n        /* \"Dropsite.sol\":813:842  address payable public  Owner */\n    tag_9:\n      tag_34\n      tag_35\n      jump\t// in\n    tag_34:\n      mload(0x40)\n      tag_36\n      swap2\n      swap1\n      tag_37\n      jump\t// in\n    tag_36:\n      mload(0x40)\n      dup1\n      swap2\n      sub\n      swap1\n      return\n        /* \"Dropsite.sol\":434:483  mapping (address=>uint) public dropsite_NFT_Owner */\n    tag_10:\n      tag_38\n      0x04\n      dup1\n      calldatasize\n      sub\n      dup2\n      add\n      swap1\n      tag_39\n      swap2\n      swap1\n      tag_28\n      jump\t// in\n    tag_39:\n      tag_40\n      jump\t// in\n    tag_38:\n      mload(0x40)\n      tag_41\n      swap2\n      swap1\n      tag_21\n      jump\t// in\n    tag_41:\n      mload(0x40)\n      dup1\n      swap2\n      sub\n      swap1\n      return\n        /* \"Dropsite.sol\":780:807  bool public IsPaused = true */\n    tag_13:\n      0x0a\n      0x00\n      swap1\n      sload\n      swap1\n      0x0100\n      exp\n      swap1\n      div\n      0xff\n      and\n      dup2\n      jump\t// out\n        /* \"Dropsite.sol\":1444:1580  function openDropsite() public OnlyOwner {... */\n    tag_17:\n        /* \"Dropsite.sol\":565:570  Owner */\n      0x0a\n      0x01\n      swap1\n      sload\n      swap1\n      0x0100\n      exp\n      swap1\n      div\n      0xffffffffffffffffffffffffffffffffffffffff\n      and\n        /* \"Dropsite.sol\":549:570  _msgSender() == Owner */\n      0xffffffffffffffffffffffffffffffffffffffff\n      and\n        /* \"Dropsite.sol\":549:561  _msgSender() */\n      tag_43\n        /* \"Dropsite.sol\":549:559  _msgSender */\n      tag_44\n        /* \"Dropsite.sol\":549:561  _msgSender() */\n      jump\t// in\n    tag_43:\n        /* \"Dropsite.sol\":549:570  _msgSender() == Owner */\n      0xffffffffffffffffffffffffffffffffffffffff\n      and\n      eq\n        /* \"Dropsite.sol\":541:599  require(_msgSender() == Owner, \"OnyxNft Owner can Access\") */\n      tag_45\n      jumpi\n      mload(0x40)\n      0x08c379a000000000000000000000000000000000000000000000000000000000\n      dup2\n      mstore\n      0x04\n      add\n      tag_46\n      swap1\n      tag_47\n      jump\t// in\n    tag_46:\n      mload(0x40)\n      dup1\n      swap2\n      sub\n      swap1\n      revert\n    tag_45:\n        /* \"Dropsite.sol\":1513:1517  true */\n      0x01\n        /* \"Dropsite.sol\":1503:1517  IsPaused==true */\n      iszero\n      iszero\n        /* \"Dropsite.sol\":1503:1511  IsPaused */\n      0x0a\n      0x00\n      swap1\n      sload\n      swap1\n      0x0100\n      exp\n      swap1\n      div\n      0xff\n      and\n        /* \"Dropsite.sol\":1503:1517  IsPaused==true */\n      iszero\n      iszero\n      eq\n        /* \"Dropsite.sol\":1495:1549  require(IsPaused==true, \"Dropsite is already Running\") */\n      tag_49\n      jumpi\n      mload(0x40)\n      0x08c379a000000000000000000000000000000000000000000000000000000000\n      dup2\n      mstore\n      0x04\n      add\n      tag_50\n      swap1\n      tag_51\n      jump\t// in\n    tag_50:\n      mload(0x40)\n      dup1\n      swap2\n      sub\n      swap1\n      revert\n    tag_49:\n        /* \"Dropsite.sol\":1568:1573  false */\n      0x00\n        /* \"Dropsite.sol\":1559:1567  IsPaused */\n      0x0a\n      0x00\n        /* \"Dropsite.sol\":1559:1573  IsPaused=false */\n      0x0100\n      exp\n      dup2\n      sload\n      dup2\n      0xff\n      mul\n      not\n      and\n      swap1\n      dup4\n      iszero\n      iszero\n      mul\n      or\n      swap1\n      sstore\n      pop\n        /* \"Dropsite.sol\":1444:1580  function openDropsite() public OnlyOwner {... */\n      jump\t// out\n        /* \"Dropsite.sol\":212:239  uint public TotalNFTsMinted */\n    tag_19:\n      sload(0x03)\n      dup2\n      jump\t// out\n        /* \"Dropsite.sol\":1167:1295  function checkMintedCategoryWise() public view OnlyOwner returns(uint,uint,uint){... */\n    tag_23:\n        /* \"Dropsite.sol\":1232:1236  uint */\n      0x00\n        /* \"Dropsite.sol\":1237:1241  uint */\n      dup1\n        /* \"Dropsite.sol\":1242:1246  uint */\n      0x00\n        /* \"Dropsite.sol\":565:570  Owner */\n      0x0a\n      0x01\n      swap1\n      sload\n      swap1\n      0x0100\n      exp\n      swap1\n      div\n      0xffffffffffffffffffffffffffffffffffffffff\n      and\n        /* \"Dropsite.sol\":549:570  _msgSender() == Owner */\n      0xffffffffffffffffffffffffffffffffffffffff\n      and\n        /* \"Dropsite.sol\":549:561  _msgSender() */\n      tag_53\n        /* \"Dropsite.sol\":549:559  _msgSender */\n      tag_44\n        /* \"Dropsite.sol\":549:561  _msgSender() */\n      jump\t// in\n    tag_53:\n        /* \"Dropsite.sol\":549:570  _msgSender() == Owner */\n      0xffffffffffffffffffffffffffffffffffffffff\n      and\n      eq\n        /* \"Dropsite.sol\":541:599  require(_msgSender() == Owner, \"OnyxNft Owner can Access\") */\n      tag_54\n      jumpi\n      mload(0x40)\n      0x08c379a000000000000000000000000000000000000000000000000000000000\n      dup2\n      mstore\n      0x04\n      add\n      tag_55\n      swap1\n      tag_47\n      jump\t// in\n    tag_55:\n      mload(0x40)\n      dup1\n      swap2\n      sub\n      swap1\n      revert\n    tag_54:\n        /* \"Dropsite.sol\":1266:1274  Platinum */\n      sload(0x05)\n        /* \"Dropsite.sol\":1275:1279  Gold */\n      sload(0x06)\n        /* \"Dropsite.sol\":1280:1286  Silver */\n      sload(0x07)\n        /* \"Dropsite.sol\":1258:1287  return (Platinum,Gold,Silver) */\n      swap3\n      pop\n      swap3\n      pop\n      swap3\n      pop\n        /* \"Dropsite.sol\":1167:1295  function checkMintedCategoryWise() public view OnlyOwner returns(uint,uint,uint){... */\n      swap1\n      swap2\n      swap3\n      jump\t// out\n        /* \"Dropsite.sol\":1772:2848  function randomMint(address user_addr) contractIsNotPaused public returns (uint,string memory) {... */\n    tag_29:\n        /* \"Dropsite.sol\":1847:1851  uint */\n      0x00\n        /* \"Dropsite.sol\":1852:1865  string memory */\n      0x60\n        /* \"Dropsite.sol\":726:731  false */\n      0x00\n        /* \"Dropsite.sol\":714:731  IsPaused == false */\n      iszero\n      iszero\n        /* \"Dropsite.sol\":714:722  IsPaused */\n      0x0a\n      0x00\n      swap1\n      sload\n      swap1\n      0x0100\n      exp\n      swap1\n      div\n      0xff\n      and\n        /* \"Dropsite.sol\":714:731  IsPaused == false */\n      iszero\n      iszero\n      eq\n        /* \"Dropsite.sol\":705:755  require (IsPaused == false, \"Contract is Paused\" ) */\n      tag_58\n      jumpi\n      mload(0x40)\n      0x08c379a000000000000000000000000000000000000000000000000000000000\n      dup2\n      mstore\n      0x04\n      add\n      tag_59\n      swap1\n      tag_60\n      jump\t// in\n    tag_59:\n      mload(0x40)\n      dup1\n      swap2\n      sub\n      swap1\n      revert\n    tag_58:\n        /* \"Dropsite.sol\":1898:1902  1000 */\n      0x03e8\n        /* \"Dropsite.sol\":1882:1897  TotalNFTsMinted */\n      sload(0x03)\n        /* \"Dropsite.sol\":1882:1902  TotalNFTsMinted<1000 */\n      lt\n        /* \"Dropsite.sol\":1874:1932  require(TotalNFTsMinted<1000, \"Max Minting Limit reached\") */\n      tag_62\n      jumpi\n      mload(0x40)\n      0x08c379a000000000000000000000000000000000000000000000000000000000\n      dup2\n      mstore\n      0x04\n      add\n      tag_63\n      swap1\n      tag_64\n      jump\t// in\n    tag_63:\n      mload(0x40)\n      dup1\n      swap2\n      sub\n      swap1\n      revert\n    tag_62:\n        /* \"Dropsite.sol\":1937:1947  uint nftId */\n      0x00\n        /* \"Dropsite.sol\":1950:1958  random() */\n      tag_65\n        /* \"Dropsite.sol\":1950:1956  random */\n      tag_66\n        /* \"Dropsite.sol\":1950:1958  random() */\n      jump\t// in\n    tag_65:\n        /* \"Dropsite.sol\":1937:1958  uint nftId = random() */\n      swap1\n      pop\n        /* \"Dropsite.sol\":2078:2079  0 */\n      0x00\n        /* \"Dropsite.sol\":2069:2074  nftId */\n      dup2\n        /* \"Dropsite.sol\":2069:2079  nftId == 0 */\n      eq\n        /* \"Dropsite.sol\":2069:2097  nftId == 0 && Platinum < 150 */\n      dup1\n      iszero\n      tag_67\n      jumpi\n      pop\n        /* \"Dropsite.sol\":2094:2097  150 */\n      0x96\n        /* \"Dropsite.sol\":2083:2091  Platinum */\n      sload(0x05)\n        /* \"Dropsite.sol\":2083:2097  Platinum < 150 */\n      lt\n        /* \"Dropsite.sol\":2069:2097  nftId == 0 && Platinum < 150 */\n    tag_67:\n        /* \"Dropsite.sol\":2066:2493  if(nftId == 0 && Platinum < 150) {... */\n      iszero\n      tag_68\n      jumpi\n        /* \"Dropsite.sol\":2109:2126  data = \"Platinum\" */\n      mload(0x40)\n      dup1\n      0x40\n      add\n      0x40\n      mstore\n      dup1\n      0x08\n      dup2\n      mstore\n      0x20\n      add\n      0x506c6174696e756d000000000000000000000000000000000000000000000000\n      dup2\n      mstore\n      pop\n        /* \"Dropsite.sol\":2109:2113  data */\n      0x02\n        /* \"Dropsite.sol\":2109:2126  data = \"Platinum\" */\n      swap1\n      dup1\n      mload\n      swap1\n      0x20\n      add\n      swap1\n      tag_69\n      swap3\n      swap2\n      swap1\n      tag_70\n      jump\t// in\n    tag_69:\n      pop\n        /* \"Dropsite.sol\":2136:2144  Platinum */\n      0x05\n      0x00\n        /* \"Dropsite.sol\":2136:2146  Platinum++ */\n      dup2\n      sload\n      dup1\n      swap3\n      swap2\n      swap1\n      tag_71\n      swap1\n      tag_72\n      jump\t// in\n    tag_71:\n      swap2\n      swap1\n      pop\n      sstore\n      pop\n        /* \"Dropsite.sol\":2066:2493  if(nftId == 0 && Platinum < 150) {... */\n      jump(tag_73)\n    tag_68:\n        /* \"Dropsite.sol\":2247:2248  1 */\n      0x01\n        /* \"Dropsite.sol\":2238:2243  nftId */\n      dup2\n        /* \"Dropsite.sol\":2238:2248  nftId <= 1 */\n      gt\n      iszero\n        /* \"Dropsite.sol\":2238:2262  nftId <= 1 && Gold < 350 */\n      dup1\n      iszero\n      tag_74\n      jumpi\n      pop\n        /* \"Dropsite.sol\":2259:2262  350 */\n      0x015e\n        /* \"Dropsite.sol\":2252:2256  Gold */\n      sload(0x06)\n        /* \"Dropsite.sol\":2252:2262  Gold < 350 */\n      lt\n        /* \"Dropsite.sol\":2238:2262  nftId <= 1 && Gold < 350 */\n    tag_74:\n        /* \"Dropsite.sol\":2235:2493  if(nftId <= 1 && Gold < 350) {... */\n      iszero\n      tag_75\n      jumpi\n        /* \"Dropsite.sol\":2274:2287  data = \"Gold\" */\n      mload(0x40)\n      dup1\n      0x40\n      add\n      0x40\n      mstore\n      dup1\n      0x04\n      dup2\n      mstore\n      0x20\n      add\n      0x476f6c6400000000000000000000000000000000000000000000000000000000\n      dup2\n      mstore\n      pop\n        /* \"Dropsite.sol\":2274:2278  data */\n      0x02\n        /* \"Dropsite.sol\":2274:2287  data = \"Gold\" */\n      swap1\n      dup1\n      mload\n      swap1\n      0x20\n      add\n      swap1\n      tag_76\n      swap3\n      swap2\n      swap1\n      tag_70\n      jump\t// in\n    tag_76:\n      pop\n        /* \"Dropsite.sol\":2297:2301  Gold */\n      0x06\n      0x00\n        /* \"Dropsite.sol\":2297:2303  Gold++ */\n      dup2\n      sload\n      dup1\n      swap3\n      swap2\n      swap1\n      tag_77\n      swap1\n      tag_72\n      jump\t// in\n    tag_77:\n      swap2\n      swap1\n      pop\n      sstore\n      pop\n        /* \"Dropsite.sol\":2235:2493  if(nftId <= 1 && Gold < 350) {... */\n      jump(tag_78)\n    tag_75:\n        /* \"Dropsite.sol\":2425:2426  2 */\n      0x02\n        /* \"Dropsite.sol\":2416:2421  nftId */\n      dup2\n        /* \"Dropsite.sol\":2416:2426  nftId <= 2 */\n      gt\n      iszero\n        /* \"Dropsite.sol\":2416:2443  nftId <= 2 && Silver <= 500 */\n      dup1\n      iszero\n      tag_79\n      jumpi\n      pop\n        /* \"Dropsite.sol\":2440:2443  500 */\n      0x01f4\n        /* \"Dropsite.sol\":2430:2436  Silver */\n      sload(0x07)\n        /* \"Dropsite.sol\":2430:2443  Silver <= 500 */\n      gt\n      iszero\n        /* \"Dropsite.sol\":2416:2443  nftId <= 2 && Silver <= 500 */\n    tag_79:\n        /* \"Dropsite.sol\":2413:2493  if(nftId <= 2 && Silver <= 500) {... */\n      iszero\n      tag_80\n      jumpi\n        /* \"Dropsite.sol\":2455:2468  data=\"Silver\" */\n      mload(0x40)\n      dup1\n      0x40\n      add\n      0x40\n      mstore\n      dup1\n      0x06\n      dup2\n      mstore\n      0x20\n      add\n      0x53696c7665720000000000000000000000000000000000000000000000000000\n      dup2\n      mstore\n      pop\n        /* \"Dropsite.sol\":2455:2459  data */\n      0x02\n        /* \"Dropsite.sol\":2455:2468  data=\"Silver\" */\n      swap1\n      dup1\n      mload\n      swap1\n      0x20\n      add\n      swap1\n      tag_81\n      swap3\n      swap2\n      swap1\n      tag_70\n      jump\t// in\n    tag_81:\n      pop\n        /* \"Dropsite.sol\":2478:2484  Silver */\n      0x07\n      0x00\n        /* \"Dropsite.sol\":2478:2486  Silver++ */\n      dup2\n      sload\n      dup1\n      swap3\n      swap2\n      swap1\n      tag_82\n      swap1\n      tag_72\n      jump\t// in\n    tag_82:\n      swap2\n      swap1\n      pop\n      sstore\n      pop\n        /* \"Dropsite.sol\":2413:2493  if(nftId <= 2 && Silver <= 500) {... */\n    tag_80:\n        /* \"Dropsite.sol\":2235:2493  if(nftId <= 1 && Gold < 350) {... */\n    tag_78:\n        /* \"Dropsite.sol\":2066:2493  if(nftId == 0 && Platinum < 150) {... */\n    tag_73:\n        /* \"Dropsite.sol\":2702:2744  _mint(user_addr, nftId, numOfCopies, data) */\n      tag_83\n        /* \"Dropsite.sol\":2708:2717  user_addr */\n      dup5\n        /* \"Dropsite.sol\":2719:2724  nftId */\n      dup3\n        /* \"Dropsite.sol\":2726:2737  numOfCopies */\n      sload(0x04)\n        /* \"Dropsite.sol\":2739:2743  data */\n      0x02\n        /* \"Dropsite.sol\":2702:2744  _mint(user_addr, nftId, numOfCopies, data) */\n      dup1\n      sload\n      tag_84\n      swap1\n      tag_85\n      jump\t// in\n    tag_84:\n      dup1\n      0x1f\n      add\n      0x20\n      dup1\n      swap2\n      div\n      mul\n      0x20\n      add\n      mload(0x40)\n      swap1\n      dup2\n      add\n      0x40\n      mstore\n      dup1\n      swap3\n      swap2\n      swap1\n      dup2\n      dup2\n      mstore\n      0x20\n      add\n      dup3\n      dup1\n      sload\n      tag_86\n      swap1\n      tag_85\n      jump\t// in\n    tag_86:\n      dup1\n      iszero\n      tag_87\n      jumpi\n      dup1\n      0x1f\n      lt\n      tag_88\n      jumpi\n      0x0100\n      dup1\n      dup4\n      sload\n      div\n      mul\n      dup4\n      mstore\n      swap2\n      0x20\n      add\n      swap2\n      jump(tag_87)\n    tag_88:\n      dup3\n      add\n      swap2\n      swap1\n      0x00\n      mstore\n      keccak256(0x00, 0x20)\n      swap1\n    tag_89:\n      dup2\n      sload\n      dup2\n      mstore\n      swap1\n      0x01\n      add\n      swap1\n      0x20\n      add\n      dup1\n      dup4\n      gt\n      tag_89\n      jumpi\n      dup3\n      swap1\n      sub\n      0x1f\n      and\n      dup3\n      add\n      swap2\n    tag_87:\n      pop\n      pop\n      pop\n      pop\n      pop\n        /* \"Dropsite.sol\":2702:2707  _mint */\n      tag_90\n        /* \"Dropsite.sol\":2702:2744  _mint(user_addr, nftId, numOfCopies, data) */\n      jump\t// in\n    tag_83:\n        /* \"Dropsite.sol\":2750:2765  TotalNFTsMinted */\n      0x03\n      0x00\n        /* \"Dropsite.sol\":2750:2767  TotalNFTsMinted++ */\n      dup2\n      sload\n      dup1\n      swap3\n      swap2\n      swap1\n      tag_91\n      swap1\n      tag_72\n      jump\t// in\n    tag_91:\n      swap2\n      swap1\n      pop\n      sstore\n      pop\n        /* \"Dropsite.sol\":2803:2808  nftId */\n      dup1\n        /* \"Dropsite.sol\":2773:2791  dropsite_NFT_Owner */\n      0x08\n        /* \"Dropsite.sol\":2773:2802  dropsite_NFT_Owner[user_addr] */\n      0x00\n        /* \"Dropsite.sol\":2792:2801  user_addr */\n      dup7\n        /* \"Dropsite.sol\":2773:2802  dropsite_NFT_Owner[user_addr] */\n      0xffffffffffffffffffffffffffffffffffffffff\n      and\n      0xffffffffffffffffffffffffffffffffffffffff\n      and\n      dup2\n      mstore\n      0x20\n      add\n      swap1\n      dup2\n      mstore\n      0x20\n      add\n      0x00\n      keccak256\n        /* \"Dropsite.sol\":2773:2808  dropsite_NFT_Owner[user_addr]=nftId */\n      dup2\n      swap1\n      sstore\n      pop\n        /* \"Dropsite.sol\":2822:2827  nftId */\n      dup1\n        /* \"Dropsite.sol\":2835:2839  data */\n      0x02\n        /* \"Dropsite.sol\":2814:2841  return (nftId,string(data)) */\n      dup1\n      dup1\n      sload\n      tag_92\n      swap1\n      tag_85\n      jump\t// in\n    tag_92:\n      dup1\n      0x1f\n      add\n      0x20\n      dup1\n      swap2\n      div\n      mul\n      0x20\n      add\n      mload(0x40)\n      swap1\n      dup2\n      add\n      0x40\n      mstore\n      dup1\n      swap3\n      swap2\n      swap1\n      dup2\n      dup2\n      mstore\n      0x20\n      add\n      dup3\n      dup1\n      sload\n      tag_93\n      swap1\n      tag_85\n      jump\t// in\n    tag_93:\n      dup1\n      iszero\n      tag_94\n      jumpi\n      dup1\n      0x1f\n      lt\n      tag_95\n      jumpi\n      0x0100\n      dup1\n      dup4\n      sload\n      div\n      mul\n      dup4\n      mstore\n      swap2\n      0x20\n      add\n      swap2\n      jump(tag_94)\n    tag_95:\n      dup3\n      add\n      swap2\n      swap1\n      0x00\n      mstore\n      keccak256(0x00, 0x20)\n      swap1\n    tag_96:\n      dup2\n      sload\n      dup2\n      mstore\n      swap1\n      0x01\n      add\n      swap1\n      0x20\n      add\n      dup1\n      dup4\n      gt\n      tag_96\n      jumpi\n      dup3\n      swap1\n      sub\n      0x1f\n      and\n      dup3\n      add\n      swap2\n    tag_94:\n      pop\n      pop\n      pop\n      pop\n      pop\n      swap1\n      pop\n      swap3\n      pop\n      swap3\n      pop\n      pop\n        /* \"Dropsite.sol\":1772:2848  function randomMint(address user_addr) contractIsNotPaused public returns (uint,string memory) {... */\n      swap2\n      pop\n      swap2\n      jump\t// out\n        /* \"Dropsite.sol\":1302:1437  function stopDropsite() public OnlyOwner{... */\n    tag_33:\n        /* \"Dropsite.sol\":565:570  Owner */\n      0x0a\n      0x01\n      swap1\n      sload\n      swap1\n      0x0100\n      exp\n      swap1\n      div\n      0xffffffffffffffffffffffffffffffffffffffff\n      and\n        /* \"Dropsite.sol\":549:570  _msgSender() == Owner */\n      0xffffffffffffffffffffffffffffffffffffffff\n      and\n        /* \"Dropsite.sol\":549:561  _msgSender() */\n      tag_98\n        /* \"Dropsite.sol\":549:559  _msgSender */\n      tag_44\n        /* \"Dropsite.sol\":549:561  _msgSender() */\n      jump\t// in\n    tag_98:\n        /* \"Dropsite.sol\":549:570  _msgSender() == Owner */\n      0xffffffffffffffffffffffffffffffffffffffff\n      and\n      eq\n        /* \"Dropsite.sol\":541:599  require(_msgSender() == Owner, \"OnyxNft Owner can Access\") */\n      tag_99\n      jumpi\n      mload(0x40)\n      0x08c379a000000000000000000000000000000000000000000000000000000000\n      dup2\n      mstore\n      0x04\n      add\n      tag_100\n      swap1\n      tag_47\n      jump\t// in\n    tag_100:\n      mload(0x40)\n      dup1\n      swap2\n      sub\n      swap1\n      revert\n    tag_99:\n        /* \"Dropsite.sol\":1370:1375  false */\n      0x00\n        /* \"Dropsite.sol\":1360:1375  IsPaused==false */\n      iszero\n      iszero\n        /* \"Dropsite.sol\":1360:1368  IsPaused */\n      0x0a\n      0x00\n      swap1\n      sload\n      swap1\n      0x0100\n      exp\n      swap1\n      div\n      0xff\n      and\n        /* \"Dropsite.sol\":1360:1375  IsPaused==false */\n      iszero\n      iszero\n      eq\n        /* \"Dropsite.sol\":1352:1407  require(IsPaused==false, \"Dropsite is already Stopped\") */\n      tag_102\n      jumpi\n      mload(0x40)\n      0x08c379a000000000000000000000000000000000000000000000000000000000\n      dup2\n      mstore\n      0x04\n      add\n      tag_103\n      swap1\n      tag_104\n      jump\t// in\n    tag_103:\n      mload(0x40)\n      dup1\n      swap2\n      sub\n      swap1\n      revert\n    tag_102:\n        /* \"Dropsite.sol\":1426:1430  true */\n      0x01\n        /* \"Dropsite.sol\":1417:1425  IsPaused */\n      0x0a\n      0x00\n        /* \"Dropsite.sol\":1417:1430  IsPaused=true */\n      0x0100\n      exp\n      dup2\n      sload\n      dup2\n      0xff\n      mul\n      not\n      and\n      swap1\n      dup4\n      iszero\n      iszero\n      mul\n      or\n      swap1\n      sstore\n      pop\n        /* \"Dropsite.sol\":1302:1437  function stopDropsite() public OnlyOwner{... */\n      jump\t// out\n        /* \"Dropsite.sol\":813:842  address payable public  Owner */\n    tag_35:\n      0x0a\n      0x01\n      swap1\n      sload\n      swap1\n      0x0100\n      exp\n      swap1\n      div\n      0xffffffffffffffffffffffffffffffffffffffff\n      and\n      dup2\n      jump\t// out\n        /* \"Dropsite.sol\":434:483  mapping (address=>uint) public dropsite_NFT_Owner */\n    tag_40:\n      mstore(0x20, 0x08)\n      dup1\n      0x00\n      mstore\n      keccak256(0x00, 0x40)\n      0x00\n      swap2\n      pop\n      swap1\n      pop\n      sload\n      dup2\n      jump\t// out\n        /* \"Context.sol\":640:736  function _msgSender() internal view virtual returns (address) {... */\n    tag_44:\n        /* \"Context.sol\":693:700  address */\n      0x00\n        /* \"Context.sol\":719:729  msg.sender */\n      caller\n        /* \"Context.sol\":712:729  return msg.sender */\n      swap1\n      pop\n        /* \"Context.sol\":640:736  function _msgSender() internal view virtual returns (address) {... */\n      swap1\n      jump\t// out\n        /* \"Dropsite.sol\":1590:1761  function random() internal view returns (uint) {... */\n    tag_66:\n        /* \"Dropsite.sol\":1631:1635  uint */\n      0x00\n        /* \"Dropsite.sol\":1643:1660  uint randomnumber */\n      dup1\n        /* \"Dropsite.sol\":1728:1729  3 */\n      0x03\n        /* \"Dropsite.sol\":1695:1710  block.timestamp */\n      timestamp\n        /* \"Dropsite.sol\":1712:1722  msg.sender */\n      caller\n        /* \"Dropsite.sol\":1678:1723  abi.encodePacked(block.timestamp, msg.sender) */\n      add(0x20, mload(0x40))\n      tag_107\n      swap3\n      swap2\n      swap1\n      tag_108\n      jump\t// in\n    tag_107:\n      mload(0x40)\n      0x20\n      dup2\n      dup4\n      sub\n      sub\n      dup2\n      mstore\n      swap1\n      0x40\n      mstore\n        /* \"Dropsite.sol\":1668:1724  keccak256(abi.encodePacked(block.timestamp, msg.sender)) */\n      dup1\n      mload\n      swap1\n      0x20\n      add\n      keccak256\n        /* \"Dropsite.sol\":1663:1725  uint(keccak256(abi.encodePacked(block.timestamp, msg.sender))) */\n      0x00\n      shr\n        /* \"Dropsite.sol\":1663:1729  uint(keccak256(abi.encodePacked(block.timestamp, msg.sender))) % 3 */\n      tag_109\n      swap2\n      swap1\n      tag_110\n      jump\t// in\n    tag_109:\n        /* \"Dropsite.sol\":1643:1729  uint randomnumber = uint(keccak256(abi.encodePacked(block.timestamp, msg.sender))) % 3 */\n      swap1\n      pop\n        /* \"Dropsite.sol\":1742:1754  randomnumber */\n      dup1\n        /* \"Dropsite.sol\":1735:1754  return randomnumber */\n      swap2\n      pop\n      pop\n        /* \"Dropsite.sol\":1590:1761  function random() internal view returns (uint) {... */\n      swap1\n      jump\t// out\n        /* \"ERC1155_Dropsite.sol\":835:1386  function _mint(... */\n    tag_90:\n        /* \"ERC1155_Dropsite.sol\":996:997  0 */\n      0x00\n        /* \"ERC1155_Dropsite.sol\":982:998  to != address(0) */\n      0xffffffffffffffffffffffffffffffffffffffff\n      and\n        /* \"ERC1155_Dropsite.sol\":982:984  to */\n      dup5\n        /* \"ERC1155_Dropsite.sol\":982:998  to != address(0) */\n      0xffffffffffffffffffffffffffffffffffffffff\n      and\n      eq\n      iszero\n        /* \"ERC1155_Dropsite.sol\":974:1036  require(to != address(0), \"ERC1155: mint to the zero address\") */\n      tag_112\n      jumpi\n      mload(0x40)\n      0x08c379a000000000000000000000000000000000000000000000000000000000\n      dup2\n      mstore\n      0x04\n      add\n      tag_113\n      swap1\n      tag_114\n      jump\t// in\n    tag_113:\n      mload(0x40)\n      dup1\n      swap2\n      sub\n      swap1\n      revert\n    tag_112:\n        /* \"ERC1155_Dropsite.sol\":1047:1063  address operator */\n      0x00\n        /* \"ERC1155_Dropsite.sol\":1066:1078  _msgSender() */\n      tag_115\n        /* \"ERC1155_Dropsite.sol\":1066:1076  _msgSender */\n      tag_44\n        /* \"ERC1155_Dropsite.sol\":1066:1078  _msgSender() */\n      jump\t// in\n    tag_115:\n        /* \"ERC1155_Dropsite.sol\":1047:1078  address operator = _msgSender() */\n      swap1\n      pop\n        /* \"ERC1155_Dropsite.sol\":1089:1191  _beforeTokenTransfer(operator, address(0), to, _asSingletonArray(id), _asSingletonArray(amount), data) */\n      tag_116\n        /* \"ERC1155_Dropsite.sol\":1110:1118  operator */\n      dup2\n        /* \"ERC1155_Dropsite.sol\":1128:1129  0 */\n      0x00\n        /* \"ERC1155_Dropsite.sol\":1132:1134  to */\n      dup8\n        /* \"ERC1155_Dropsite.sol\":1136:1157  _asSingletonArray(id) */\n      tag_117\n        /* \"ERC1155_Dropsite.sol\":1154:1156  id */\n      dup9\n        /* \"ERC1155_Dropsite.sol\":1136:1153  _asSingletonArray */\n      tag_118\n        /* \"ERC1155_Dropsite.sol\":1136:1157  _asSingletonArray(id) */\n      jump\t// in\n    tag_117:\n        /* \"ERC1155_Dropsite.sol\":1159:1184  _asSingletonArray(amount) */\n      tag_119\n        /* \"ERC1155_Dropsite.sol\":1177:1183  amount */\n      dup9\n        /* \"ERC1155_Dropsite.sol\":1159:1176  _asSingletonArray */\n      tag_118\n        /* \"ERC1155_Dropsite.sol\":1159:1184  _asSingletonArray(amount) */\n      jump\t// in\n    tag_119:\n        /* \"ERC1155_Dropsite.sol\":1186:1190  data */\n      dup8\n        /* \"ERC1155_Dropsite.sol\":1089:1109  _beforeTokenTransfer */\n      tag_120\n        /* \"ERC1155_Dropsite.sol\":1089:1191  _beforeTokenTransfer(operator, address(0), to, _asSingletonArray(id), _asSingletonArray(amount), data) */\n      jump\t// in\n    tag_116:\n        /* \"ERC1155_Dropsite.sol\":1222:1228  amount */\n      dup3\n        /* \"ERC1155_Dropsite.sol\":1201:1210  _balances */\n      0x00\n        /* \"ERC1155_Dropsite.sol\":1201:1214  _balances[id] */\n      dup1\n        /* \"ERC1155_Dropsite.sol\":1211:1213  id */\n      dup7\n        /* \"ERC1155_Dropsite.sol\":1201:1214  _balances[id] */\n      dup2\n      mstore\n      0x20\n      add\n      swap1\n      dup2\n      mstore\n      0x20\n      add\n      0x00\n      keccak256\n        /* \"ERC1155_Dropsite.sol\":1201:1218  _balances[id][to] */\n      0x00\n        /* \"ERC1155_Dropsite.sol\":1215:1217  to */\n      dup8\n        /* \"ERC1155_Dropsite.sol\":1201:1218  _balances[id][to] */\n      0xffffffffffffffffffffffffffffffffffffffff\n      and\n      0xffffffffffffffffffffffffffffffffffffffff\n      and\n      dup2\n      mstore\n      0x20\n      add\n      swap1\n      dup2\n      mstore\n      0x20\n      add\n      0x00\n      keccak256\n      0x00\n        /* \"ERC1155_Dropsite.sol\":1201:1228  _balances[id][to] += amount */\n      dup3\n      dup3\n      sload\n      tag_121\n      swap2\n      swap1\n      tag_122\n      jump\t// in\n    tag_121:\n      swap3\n      pop\n      pop\n      dup2\n      swap1\n      sstore\n      pop\n        /* \"ERC1155_Dropsite.sol\":1280:1282  to */\n      dup5\n        /* \"ERC1155_Dropsite.sol\":1243:1295  TransferSingle(operator, address(0), to, id, amount) */\n      0xffffffffffffffffffffffffffffffffffffffff\n      and\n        /* \"ERC1155_Dropsite.sol\":1276:1277  0 */\n      0x00\n        /* \"ERC1155_Dropsite.sol\":1243:1295  TransferSingle(operator, address(0), to, id, amount) */\n      0xffffffffffffffffffffffffffffffffffffffff\n      and\n        /* \"ERC1155_Dropsite.sol\":1258:1266  operator */\n      dup3\n        /* \"ERC1155_Dropsite.sol\":1243:1295  TransferSingle(operator, address(0), to, id, amount) */\n      0xffffffffffffffffffffffffffffffffffffffff\n      and\n      0xc3d58168c5ae7397731d063d5bbf3d657854427343f4c083240f7aacaa2d0f62\n        /* \"ERC1155_Dropsite.sol\":1284:1286  id */\n      dup8\n        /* \"ERC1155_Dropsite.sol\":1288:1294  amount */\n      dup8\n        /* \"ERC1155_Dropsite.sol\":1243:1295  TransferSingle(operator, address(0), to, id, amount) */\n      mload(0x40)\n      tag_123\n      swap3\n      swap2\n      swap1\n      tag_124\n      jump\t// in\n    tag_123:\n      mload(0x40)\n      dup1\n      swap2\n      sub\n      swap1\n      log4\n        /* \"ERC1155_Dropsite.sol\":1305:1379  _doSafeTransferAcceptanceCheck(operator, address(0), to, id, amount, data) */\n      tag_125\n        /* \"ERC1155_Dropsite.sol\":1336:1344  operator */\n      dup2\n        /* \"ERC1155_Dropsite.sol\":1354:1355  0 */\n      0x00\n        /* \"ERC1155_Dropsite.sol\":1358:1360  to */\n      dup8\n        /* \"ERC1155_Dropsite.sol\":1362:1364  id */\n      dup8\n        /* \"ERC1155_Dropsite.sol\":1366:1372  amount */\n      dup8\n        /* \"ERC1155_Dropsite.sol\":1374:1378  data */\n      dup8\n        /* \"ERC1155_Dropsite.sol\":1305:1335  _doSafeTransferAcceptanceCheck */\n      tag_126\n        /* \"ERC1155_Dropsite.sol\":1305:1379  _doSafeTransferAcceptanceCheck(operator, address(0), to, id, amount, data) */\n      jump\t// in\n    tag_125:\n        /* \"ERC1155_Dropsite.sol\":964:1386  {... */\n      pop\n        /* \"ERC1155_Dropsite.sol\":835:1386  function _mint(... */\n      pop\n      pop\n      pop\n      pop\n      jump\t// out\n        /* \"ERC1155_Dropsite.sol\":2344:2537  function _asSingletonArray(uint256 element) private pure returns (uint256[] memory) {... */\n    tag_118:\n        /* \"ERC1155_Dropsite.sol\":2410:2426  uint256[] memory */\n      0x60\n        /* \"ERC1155_Dropsite.sol\":2438:2460  uint256[] memory array */\n      0x00\n        /* \"ERC1155_Dropsite.sol\":2477:2478  1 */\n      0x01\n        /* \"ERC1155_Dropsite.sol\":2463:2479  new uint256[](1) */\n      0xffffffffffffffff\n      dup2\n      gt\n      iszero\n      tag_128\n      jumpi\n      tag_129\n      tag_130\n      jump\t// in\n    tag_129:\n    tag_128:\n      mload(0x40)\n      swap1\n      dup1\n      dup3\n      mstore\n      dup1\n      0x20\n      mul\n      0x20\n      add\n      dup3\n      add\n      0x40\n      mstore\n      dup1\n      iszero\n      tag_131\n      jumpi\n      dup2\n      0x20\n      add\n      0x20\n      dup3\n      mul\n      dup1\n      calldatasize\n      dup4\n      calldatacopy\n      dup1\n      dup3\n      add\n      swap2\n      pop\n      pop\n      swap1\n      pop\n    tag_131:\n      pop\n        /* \"ERC1155_Dropsite.sol\":2438:2479  uint256[] memory array = new uint256[](1) */\n      swap1\n      pop\n        /* \"ERC1155_Dropsite.sol\":2500:2507  element */\n      dup3\n        /* \"ERC1155_Dropsite.sol\":2489:2494  array */\n      dup2\n        /* \"ERC1155_Dropsite.sol\":2495:2496  0 */\n      0x00\n        /* \"ERC1155_Dropsite.sol\":2489:2497  array[0] */\n      dup2\n      mload\n      dup2\n      lt\n      tag_132\n      jumpi\n      tag_133\n      tag_134\n      jump\t// in\n    tag_133:\n    tag_132:\n      0x20\n      mul\n      0x20\n      add\n      add\n        /* \"ERC1155_Dropsite.sol\":2489:2507  array[0] = element */\n      dup2\n      dup2\n      mstore\n      pop\n      pop\n        /* \"ERC1155_Dropsite.sol\":2525:2530  array */\n      dup1\n        /* \"ERC1155_Dropsite.sol\":2518:2530  return array */\n      swap2\n      pop\n      pop\n        /* \"ERC1155_Dropsite.sol\":2344:2537  function _asSingletonArray(uint256 element) private pure returns (uint256[] memory) {... */\n      swap2\n      swap1\n      pop\n      jump\t// out\n        /* \"ERC1155_Dropsite.sol\":1393:1607  function _beforeTokenTransfer(... */\n    tag_120:\n      pop\n      pop\n      pop\n      pop\n      pop\n      pop\n      jump\t// out\n        /* \"ERC1155_Dropsite.sol\":1613:2338  function _doSafeTransferAcceptanceCheck(... */\n    tag_126:\n        /* \"ERC1155_Dropsite.sol\":1820:1835  to.isContract() */\n      tag_137\n        /* \"ERC1155_Dropsite.sol\":1820:1822  to */\n      dup5\n        /* \"ERC1155_Dropsite.sol\":1820:1833  to.isContract */\n      0xffffffffffffffffffffffffffffffffffffffff\n      and\n      tag_138\n        /* \"ERC1155_Dropsite.sol\":1820:1835  to.isContract() */\n      jump\t// in\n    tag_137:\n        /* \"ERC1155_Dropsite.sol\":1816:2332  if (to.isContract()) {... */\n      iszero\n      tag_139\n      jumpi\n        /* \"ERC1155_Dropsite.sol\":1872:1874  to */\n      dup4\n        /* \"ERC1155_Dropsite.sol\":1855:1893  IERC1155Receiver(to).onERC1155Received */\n      0xffffffffffffffffffffffffffffffffffffffff\n      and\n      0xf23a6e61\n        /* \"ERC1155_Dropsite.sol\":1894:1902  operator */\n      dup8\n        /* \"ERC1155_Dropsite.sol\":1904:1908  from */\n      dup8\n        /* \"ERC1155_Dropsite.sol\":1910:1912  id */\n      dup7\n        /* \"ERC1155_Dropsite.sol\":1914:1920  amount */\n      dup7\n        /* \"ERC1155_Dropsite.sol\":1922:1926  data */\n      dup7\n        /* \"ERC1155_Dropsite.sol\":1855:1927  IERC1155Receiver(to).onERC1155Received(operator, from, id, amount, data) */\n      mload(0x40)\n      dup7\n      0xffffffff\n      and\n      0xe0\n      shl\n      dup2\n      mstore\n      0x04\n      add\n      tag_140\n      swap6\n      swap5\n      swap4\n      swap3\n      swap2\n      swap1\n      tag_141\n      jump\t// in\n    tag_140:\n      0x20\n      mload(0x40)\n      dup1\n      dup4\n      sub\n      dup2\n      0x00\n      dup8\n      dup1\n      extcodesize\n      iszero\n      dup1\n      iszero\n      tag_142\n      jumpi\n      0x00\n      dup1\n      revert\n    tag_142:\n      pop\n      gas\n      call\n      swap3\n      pop\n      pop\n      pop\n      dup1\n      iszero\n      tag_143\n      jumpi\n      pop\n      mload(0x40)\n      returndatasize\n      not(0x1f)\n      0x1f\n      dup3\n      add\n      and\n      dup3\n      add\n      dup1\n      0x40\n      mstore\n      pop\n      dup2\n      add\n      swap1\n      tag_144\n      swap2\n      swap1\n      tag_145\n      jump\t// in\n    tag_144:\n      0x01\n    tag_143:\n        /* \"ERC1155_Dropsite.sol\":1851:2322  try IERC1155Receiver(to).onERC1155Received(operator, from, id, amount, data) returns (bytes4 response) {... */\n      tag_146\n      jumpi\n      tag_150\n      tag_151\n      jump\t// in\n    tag_150:\n      dup1\n      0x08c379a0\n      eq\n      iszero\n      tag_149\n      jumpi\n      pop\n      tag_152\n      tag_153\n      jump\t// in\n    tag_152:\n      dup1\n      tag_154\n      jumpi\n      pop\n      jump(tag_148)\n    tag_154:\n        /* \"ERC1155_Dropsite.sol\":2198:2204  reason */\n      dup1\n        /* \"ERC1155_Dropsite.sol\":2191:2205  revert(reason) */\n      mload(0x40)\n      0x08c379a000000000000000000000000000000000000000000000000000000000\n      dup2\n      mstore\n      0x04\n      add\n      tag_155\n      swap2\n      swap1\n      tag_156\n      jump\t// in\n    tag_155:\n      mload(0x40)\n      dup1\n      swap2\n      sub\n      swap1\n      revert\n        /* \"ERC1155_Dropsite.sol\":1851:2322  try IERC1155Receiver(to).onERC1155Received(operator, from, id, amount, data) returns (bytes4 response) {... */\n    tag_149:\n      pop\n    tag_148:\n        /* \"ERC1155_Dropsite.sol\":2245:2307  revert(\"ERC1155: transfer to non ERC1155Receiver implementer\") */\n      mload(0x40)\n      0x08c379a000000000000000000000000000000000000000000000000000000000\n      dup2\n      mstore\n      0x04\n      add\n      tag_157\n      swap1\n      tag_158\n      jump\t// in\n    tag_157:\n      mload(0x40)\n      dup1\n      swap2\n      sub\n      swap1\n      revert\n        /* \"ERC1155_Dropsite.sol\":1851:2322  try IERC1155Receiver(to).onERC1155Received(operator, from, id, amount, data) returns (bytes4 response) {... */\n    tag_146:\n        /* \"ERC1155_Dropsite.sol\":1988:2031  IERC1155Receiver.onERC1155Received.selector */\n      shl(0xe0, 0xf23a6e61)\n        /* \"ERC1155_Dropsite.sol\":1976:2031  response != IERC1155Receiver.onERC1155Received.selector */\n      not(0xffffffffffffffffffffffffffffffffffffffffffffffffffffffff)\n      and\n        /* \"ERC1155_Dropsite.sol\":1976:1984  response */\n      dup2\n        /* \"ERC1155_Dropsite.sol\":1976:2031  response != IERC1155Receiver.onERC1155Received.selector */\n      not(0xffffffffffffffffffffffffffffffffffffffffffffffffffffffff)\n      and\n      eq\n        /* \"ERC1155_Dropsite.sol\":1972:2124  if (response != IERC1155Receiver.onERC1155Received.selector) {... */\n      tag_160\n      jumpi\n        /* \"ERC1155_Dropsite.sol\":2055:2105  revert(\"ERC1155: ERC1155Receiver rejected tokens\") */\n      mload(0x40)\n      0x08c379a000000000000000000000000000000000000000000000000000000000\n      dup2\n      mstore\n      0x04\n      add\n      tag_161\n      swap1\n      tag_162\n      jump\t// in\n    tag_161:\n      mload(0x40)\n      dup1\n      swap2\n      sub\n      swap1\n      revert\n        /* \"ERC1155_Dropsite.sol\":1972:2124  if (response != IERC1155Receiver.onERC1155Received.selector) {... */\n    tag_160:\n        /* \"ERC1155_Dropsite.sol\":1928:2138  returns (bytes4 response) {... */\n      pop\n        /* \"ERC1155_Dropsite.sol\":1816:2332  if (to.isContract()) {... */\n    tag_139:\n        /* \"ERC1155_Dropsite.sol\":1613:2338  function _doSafeTransferAcceptanceCheck(... */\n      pop\n      pop\n      pop\n      pop\n      pop\n      pop\n      jump\t// out\n        /* \"Address.sol\":771:1148  function isContract(address account) internal view returns (bool) {... */\n    tag_138:\n        /* \"Address.sol\":831:835  bool */\n      0x00\n        /* \"Address.sol\":1034:1046  uint256 size */\n      dup1\n        /* \"Address.sol\":1099:1106  account */\n      dup3\n        /* \"Address.sol\":1087:1107  extcodesize(account) */\n      extcodesize\n        /* \"Address.sol\":1079:1107  size := extcodesize(account) */\n      swap1\n      pop\n        /* \"Address.sol\":1140:1141  0 */\n      0x00\n        /* \"Address.sol\":1133:1137  size */\n      dup2\n        /* \"Address.sol\":1133:1141  size > 0 */\n      gt\n        /* \"Address.sol\":1126:1141  return size > 0 */\n      swap2\n      pop\n      pop\n        /* \"Address.sol\":771:1148  function isContract(address account) internal view returns (bool) {... */\n      swap2\n      swap1\n      pop\n      jump\t// out\n    tag_70:\n      dup3\n      dup1\n      sload\n      tag_164\n      swap1\n      tag_85\n      jump\t// in\n    tag_164:\n      swap1\n      0x00\n      mstore\n      keccak256(0x00, 0x20)\n      swap1\n      0x1f\n      add\n      0x20\n      swap1\n      div\n      dup2\n      add\n      swap3\n      dup3\n      tag_166\n      jumpi\n      0x00\n      dup6\n      sstore\n      jump(tag_165)\n    tag_166:\n      dup3\n      0x1f\n      lt\n      tag_167\n      jumpi\n      dup1\n      mload\n      not(0xff)\n      and\n      dup4\n      dup1\n      add\n      or\n      dup6\n      sstore\n      jump(tag_165)\n    tag_167:\n      dup3\n      dup1\n      add\n      0x01\n      add\n      dup6\n      sstore\n      dup3\n      iszero\n      tag_165\n      jumpi\n      swap2\n      dup3\n      add\n    tag_168:\n      dup3\n      dup2\n      gt\n      iszero\n      tag_169\n      jumpi\n      dup3\n      mload\n      dup3\n      sstore\n      swap2\n      0x20\n      add\n      swap2\n      swap1\n      0x01\n      add\n      swap1\n      jump(tag_168)\n    tag_169:\n    tag_165:\n      pop\n      swap1\n      pop\n      tag_170\n      swap2\n      swap1\n      tag_171\n      jump\t// in\n    tag_170:\n      pop\n      swap1\n      jump\t// out\n    tag_171:\n    tag_172:\n      dup1\n      dup3\n      gt\n      iszero\n      tag_173\n      jumpi\n      0x00\n      dup2\n      0x00\n      swap1\n      sstore\n      pop\n      0x01\n      add\n      jump(tag_172)\n    tag_173:\n      pop\n      swap1\n      jump\t// out\n        /* \"#utility.yul\":7:146   */\n    tag_175:\n        /* \"#utility.yul\":53:58   */\n      0x00\n        /* \"#utility.yul\":91:97   */\n      dup2\n        /* \"#utility.yul\":78:98   */\n      calldataload\n        /* \"#utility.yul\":69:98   */\n      swap1\n      pop\n        /* \"#utility.yul\":107:140   */\n      tag_177\n        /* \"#utility.yul\":134:139   */\n      dup2\n        /* \"#utility.yul\":107:140   */\n      tag_178\n      jump\t// in\n    tag_177:\n        /* \"#utility.yul\":7:146   */\n      swap3\n      swap2\n      pop\n      pop\n      jump\t// out\n        /* \"#utility.yul\":152:293   */\n    tag_179:\n        /* \"#utility.yul\":208:213   */\n      0x00\n        /* \"#utility.yul\":239:245   */\n      dup2\n        /* \"#utility.yul\":233:246   */\n      mload\n        /* \"#utility.yul\":224:246   */\n      swap1\n      pop\n        /* \"#utility.yul\":255:287   */\n      tag_181\n        /* \"#utility.yul\":281:286   */\n      dup2\n        /* \"#utility.yul\":255:287   */\n      tag_182\n      jump\t// in\n    tag_181:\n        /* \"#utility.yul\":152:293   */\n      swap3\n      swap2\n      pop\n      pop\n      jump\t// out\n        /* \"#utility.yul\":299:628   */\n    tag_28:\n        /* \"#utility.yul\":358:364   */\n      0x00\n        /* \"#utility.yul\":407:409   */\n      0x20\n        /* \"#utility.yul\":395:404   */\n      dup3\n        /* \"#utility.yul\":386:393   */\n      dup5\n        /* \"#utility.yul\":382:405   */\n      sub\n        /* \"#utility.yul\":378:410   */\n      slt\n        /* \"#utility.yul\":375:494   */\n      iszero\n      tag_184\n      jumpi\n        /* \"#utility.yul\":413:492   */\n      tag_185\n      tag_186\n      jump\t// in\n    tag_185:\n        /* \"#utility.yul\":375:494   */\n    tag_184:\n        /* \"#utility.yul\":533:534   */\n      0x00\n        /* \"#utility.yul\":558:611   */\n      tag_187\n        /* \"#utility.yul\":603:610   */\n      dup5\n        /* \"#utility.yul\":594:600   */\n      dup3\n        /* \"#utility.yul\":583:592   */\n      dup6\n        /* \"#utility.yul\":579:601   */\n      add\n        /* \"#utility.yul\":558:611   */\n      tag_175\n      jump\t// in\n    tag_187:\n        /* \"#utility.yul\":548:611   */\n      swap2\n      pop\n        /* \"#utility.yul\":504:621   */\n      pop\n        /* \"#utility.yul\":299:628   */\n      swap3\n      swap2\n      pop\n      pop\n      jump\t// out\n        /* \"#utility.yul\":634:983   */\n    tag_145:\n        /* \"#utility.yul\":703:709   */\n      0x00\n        /* \"#utility.yul\":752:754   */\n      0x20\n        /* \"#utility.yul\":740:749   */\n      dup3\n        /* \"#utility.yul\":731:738   */\n      dup5\n        /* \"#utility.yul\":727:750   */\n      sub\n        /* \"#utility.yul\":723:755   */\n      slt\n        /* \"#utility.yul\":720:839   */\n      iszero\n      tag_189\n      jumpi\n        /* \"#utility.yul\":758:837   */\n      tag_190\n      tag_186\n      jump\t// in\n    tag_190:\n        /* \"#utility.yul\":720:839   */\n    tag_189:\n        /* \"#utility.yul\":878:879   */\n      0x00\n        /* \"#utility.yul\":903:966   */\n      tag_191\n        /* \"#utility.yul\":958:965   */\n      dup5\n        /* \"#utility.yul\":949:955   */\n      dup3\n        /* \"#utility.yul\":938:947   */\n      dup6\n        /* \"#utility.yul\":934:956   */\n      add\n        /* \"#utility.yul\":903:966   */\n      tag_179\n      jump\t// in\n    tag_191:\n        /* \"#utility.yul\":893:966   */\n      swap2\n      pop\n        /* \"#utility.yul\":849:976   */\n      pop\n        /* \"#utility.yul\":634:983   */\n      swap3\n      swap2\n      pop\n      pop\n      jump\t// out\n        /* \"#utility.yul\":989:1131   */\n    tag_192:\n        /* \"#utility.yul\":1092:1124   */\n      tag_194\n        /* \"#utility.yul\":1118:1123   */\n      dup2\n        /* \"#utility.yul\":1092:1124   */\n      tag_195\n      jump\t// in\n    tag_194:\n        /* \"#utility.yul\":1087:1090   */\n      dup3\n        /* \"#utility.yul\":1080:1125   */\n      mstore\n        /* \"#utility.yul\":989:1131   */\n      pop\n      pop\n      jump\t// out\n        /* \"#utility.yul\":1137:1255   */\n    tag_196:\n        /* \"#utility.yul\":1224:1248   */\n      tag_198\n        /* \"#utility.yul\":1242:1247   */\n      dup2\n        /* \"#utility.yul\":1224:1248   */\n      tag_199\n      jump\t// in\n    tag_198:\n        /* \"#utility.yul\":1219:1222   */\n      dup3\n        /* \"#utility.yul\":1212:1249   */\n      mstore\n        /* \"#utility.yul\":1137:1255   */\n      pop\n      pop\n      jump\t// out\n        /* \"#utility.yul\":1261:1418   */\n    tag_200:\n        /* \"#utility.yul\":1366:1411   */\n      tag_202\n        /* \"#utility.yul\":1386:1410   */\n      tag_203\n        /* \"#utility.yul\":1404:1409   */\n      dup3\n        /* \"#utility.yul\":1386:1410   */\n      tag_199\n      jump\t// in\n    tag_203:\n        /* \"#utility.yul\":1366:1411   */\n      tag_204\n      jump\t// in\n    tag_202:\n        /* \"#utility.yul\":1361:1364   */\n      dup3\n        /* \"#utility.yul\":1354:1412   */\n      mstore\n        /* \"#utility.yul\":1261:1418   */\n      pop\n      pop\n      jump\t// out\n        /* \"#utility.yul\":1424:1533   */\n    tag_205:\n        /* \"#utility.yul\":1505:1526   */\n      tag_207\n        /* \"#utility.yul\":1520:1525   */\n      dup2\n        /* \"#utility.yul\":1505:1526   */\n      tag_208\n      jump\t// in\n    tag_207:\n        /* \"#utility.yul\":1500:1503   */\n      dup3\n        /* \"#utility.yul\":1493:1527   */\n      mstore\n        /* \"#utility.yul\":1424:1533   */\n      pop\n      pop\n      jump\t// out\n        /* \"#utility.yul\":1539:1899   */\n    tag_209:\n        /* \"#utility.yul\":1625:1628   */\n      0x00\n        /* \"#utility.yul\":1653:1691   */\n      tag_211\n        /* \"#utility.yul\":1685:1690   */\n      dup3\n        /* \"#utility.yul\":1653:1691   */\n      tag_212\n      jump\t// in\n    tag_211:\n        /* \"#utility.yul\":1707:1777   */\n      tag_213\n        /* \"#utility.yul\":1770:1776   */\n      dup2\n        /* \"#utility.yul\":1765:1768   */\n      dup6\n        /* \"#utility.yul\":1707:1777   */\n      tag_214\n      jump\t// in\n    tag_213:\n        /* \"#utility.yul\":1700:1777   */\n      swap4\n      pop\n        /* \"#utility.yul\":1786:1838   */\n      tag_215\n        /* \"#utility.yul\":1831:1837   */\n      dup2\n        /* \"#utility.yul\":1826:1829   */\n      dup6\n        /* \"#utility.yul\":1819:1823   */\n      0x20\n        /* \"#utility.yul\":1812:1817   */\n      dup7\n        /* \"#utility.yul\":1808:1824   */\n      add\n        /* \"#utility.yul\":1786:1838   */\n      tag_216\n      jump\t// in\n    tag_215:\n        /* \"#utility.yul\":1863:1892   */\n      tag_217\n        /* \"#utility.yul\":1885:1891   */\n      dup2\n        /* \"#utility.yul\":1863:1892   */\n      tag_218\n      jump\t// in\n    tag_217:\n        /* \"#utility.yul\":1858:1861   */\n      dup5\n        /* \"#utility.yul\":1854:1893   */\n      add\n        /* \"#utility.yul\":1847:1893   */\n      swap2\n      pop\n        /* \"#utility.yul\":1629:1899   */\n      pop\n        /* \"#utility.yul\":1539:1899   */\n      swap3\n      swap2\n      pop\n      pop\n      jump\t// out\n        /* \"#utility.yul\":1905:2269   */\n    tag_219:\n        /* \"#utility.yul\":1993:1996   */\n      0x00\n        /* \"#utility.yul\":2021:2060   */\n      tag_221\n        /* \"#utility.yul\":2054:2059   */\n      dup3\n        /* \"#utility.yul\":2021:2060   */\n      tag_222\n      jump\t// in\n    tag_221:\n        /* \"#utility.yul\":2076:2147   */\n      tag_223\n        /* \"#utility.yul\":2140:2146   */\n      dup2\n        /* \"#utility.yul\":2135:2138   */\n      dup6\n        /* \"#utility.yul\":2076:2147   */\n      tag_224\n      jump\t// in\n    tag_223:\n        /* \"#utility.yul\":2069:2147   */\n      swap4\n      pop\n        /* \"#utility.yul\":2156:2208   */\n      tag_225\n        /* \"#utility.yul\":2201:2207   */\n      dup2\n        /* \"#utility.yul\":2196:2199   */\n      dup6\n        /* \"#utility.yul\":2189:2193   */\n      0x20\n        /* \"#utility.yul\":2182:2187   */\n      dup7\n        /* \"#utility.yul\":2178:2194   */\n      add\n        /* \"#utility.yul\":2156:2208   */\n      tag_216\n      jump\t// in\n    tag_225:\n        /* \"#utility.yul\":2233:2262   */\n      tag_226\n        /* \"#utility.yul\":2255:2261   */\n      dup2\n        /* \"#utility.yul\":2233:2262   */\n      tag_218\n      jump\t// in\n    tag_226:\n        /* \"#utility.yul\":2228:2231   */\n      dup5\n        /* \"#utility.yul\":2224:2263   */\n      add\n        /* \"#utility.yul\":2217:2263   */\n      swap2\n      pop\n        /* \"#utility.yul\":1997:2269   */\n      pop\n        /* \"#utility.yul\":1905:2269   */\n      swap3\n      swap2\n      pop\n      pop\n      jump\t// out\n        /* \"#utility.yul\":2275:2641   */\n    tag_227:\n        /* \"#utility.yul\":2417:2420   */\n      0x00\n        /* \"#utility.yul\":2438:2505   */\n      tag_229\n        /* \"#utility.yul\":2502:2504   */\n      0x34\n        /* \"#utility.yul\":2497:2500   */\n      dup4\n        /* \"#utility.yul\":2438:2505   */\n      tag_224\n      jump\t// in\n    tag_229:\n        /* \"#utility.yul\":2431:2505   */\n      swap2\n      pop\n        /* \"#utility.yul\":2514:2607   */\n      tag_230\n        /* \"#utility.yul\":2603:2606   */\n      dup3\n        /* \"#utility.yul\":2514:2607   */\n      tag_231\n      jump\t// in\n    tag_230:\n        /* \"#utility.yul\":2632:2634   */\n      0x40\n        /* \"#utility.yul\":2627:2630   */\n      dup3\n        /* \"#utility.yul\":2623:2635   */\n      add\n        /* \"#utility.yul\":2616:2635   */\n      swap1\n      pop\n        /* \"#utility.yul\":2275:2641   */\n      swap2\n      swap1\n      pop\n      jump\t// out\n        /* \"#utility.yul\":2647:3013   */\n    tag_232:\n        /* \"#utility.yul\":2789:2792   */\n      0x00\n        /* \"#utility.yul\":2810:2877   */\n      tag_234\n        /* \"#utility.yul\":2874:2876   */\n      0x28\n        /* \"#utility.yul\":2869:2872   */\n      dup4\n        /* \"#utility.yul\":2810:2877   */\n      tag_224\n      jump\t// in\n    tag_234:\n        /* \"#utility.yul\":2803:2877   */\n      swap2\n      pop\n        /* \"#utility.yul\":2886:2979   */\n      tag_235\n        /* \"#utility.yul\":2975:2978   */\n      dup3\n        /* \"#utility.yul\":2886:2979   */\n      tag_236\n      jump\t// in\n    tag_235:\n        /* \"#utility.yul\":3004:3006   */\n      0x40\n        /* \"#utility.yul\":2999:3002   */\n      dup3\n        /* \"#utility.yul\":2995:3007   */\n      add\n        /* \"#utility.yul\":2988:3007   */\n      swap1\n      pop\n        /* \"#utility.yul\":2647:3013   */\n      swap2\n      swap1\n      pop\n      jump\t// out\n        /* \"#utility.yul\":3019:3385   */\n    tag_237:\n        /* \"#utility.yul\":3161:3164   */\n      0x00\n        /* \"#utility.yul\":3182:3249   */\n      tag_239\n        /* \"#utility.yul\":3246:3248   */\n      0x1b\n        /* \"#utility.yul\":3241:3244   */\n      dup4\n        /* \"#utility.yul\":3182:3249   */\n      tag_224\n      jump\t// in\n    tag_239:\n        /* \"#utility.yul\":3175:3249   */\n      swap2\n      pop\n        /* \"#utility.yul\":3258:3351   */\n      tag_240\n        /* \"#utility.yul\":3347:3350   */\n      dup3\n        /* \"#utility.yul\":3258:3351   */\n      tag_241\n      jump\t// in\n    tag_240:\n        /* \"#utility.yul\":3376:3378   */\n      0x20\n        /* \"#utility.yul\":3371:3374   */\n      dup3\n        /* \"#utility.yul\":3367:3379   */\n      add\n        /* \"#utility.yul\":3360:3379   */\n      swap1\n      pop\n        /* \"#utility.yul\":3019:3385   */\n      swap2\n      swap1\n      pop\n      jump\t// out\n        /* \"#utility.yul\":3391:3757   */\n    tag_242:\n        /* \"#utility.yul\":3533:3536   */\n      0x00\n        /* \"#utility.yul\":3554:3621   */\n      tag_244\n        /* \"#utility.yul\":3618:3620   */\n      0x1b\n        /* \"#utility.yul\":3613:3616   */\n      dup4\n        /* \"#utility.yul\":3554:3621   */\n      tag_224\n      jump\t// in\n    tag_244:\n        /* \"#utility.yul\":3547:3621   */\n      swap2\n      pop\n        /* \"#utility.yul\":3630:3723   */\n      tag_245\n        /* \"#utility.yul\":3719:3722   */\n      dup3\n        /* \"#utility.yul\":3630:3723   */\n      tag_246\n      jump\t// in\n    tag_245:\n        /* \"#utility.yul\":3748:3750   */\n      0x20\n        /* \"#utility.yul\":3743:3746   */\n      dup3\n        /* \"#utility.yul\":3739:3751   */\n      add\n        /* \"#utility.yul\":3732:3751   */\n      swap1\n      pop\n        /* \"#utility.yul\":3391:3757   */\n      swap2\n      swap1\n      pop\n      jump\t// out\n        /* \"#utility.yul\":3763:4129   */\n    tag_247:\n        /* \"#utility.yul\":3905:3908   */\n      0x00\n        /* \"#utility.yul\":3926:3993   */\n      tag_249\n        /* \"#utility.yul\":3990:3992   */\n      0x18\n        /* \"#utility.yul\":3985:3988   */\n      dup4\n        /* \"#utility.yul\":3926:3993   */\n      tag_224\n      jump\t// in\n    tag_249:\n        /* \"#utility.yul\":3919:3993   */\n      swap2\n      pop\n        /* \"#utility.yul\":4002:4095   */\n      tag_250\n        /* \"#utility.yul\":4091:4094   */\n      dup3\n        /* \"#utility.yul\":4002:4095   */\n      tag_251\n      jump\t// in\n    tag_250:\n        /* \"#utility.yul\":4120:4122   */\n      0x20\n        /* \"#utility.yul\":4115:4118   */\n      dup3\n        /* \"#utility.yul\":4111:4123   */\n      add\n        /* \"#utility.yul\":4104:4123   */\n      swap1\n      pop\n        /* \"#utility.yul\":3763:4129   */\n      swap2\n      swap1\n      pop\n      jump\t// out\n        /* \"#utility.yul\":4135:4501   */\n    tag_252:\n        /* \"#utility.yul\":4277:4280   */\n      0x00\n        /* \"#utility.yul\":4298:4365   */\n      tag_254\n        /* \"#utility.yul\":4362:4364   */\n      0x12\n        /* \"#utility.yul\":4357:4360   */\n      dup4\n        /* \"#utility.yul\":4298:4365   */\n      tag_224\n      jump\t// in\n    tag_254:\n        /* \"#utility.yul\":4291:4365   */\n      swap2\n      pop\n        /* \"#utility.yul\":4374:4467   */\n      tag_255\n        /* \"#utility.yul\":4463:4466   */\n      dup3\n        /* \"#utility.yul\":4374:4467   */\n      tag_256\n      jump\t// in\n    tag_255:\n        /* \"#utility.yul\":4492:4494   */\n      0x20\n        /* \"#utility.yul\":4487:4490   */\n      dup3\n        /* \"#utility.yul\":4483:4495   */\n      add\n        /* \"#utility.yul\":4476:4495   */\n      swap1\n      pop\n        /* \"#utility.yul\":4135:4501   */\n      swap2\n      swap1\n      pop\n      jump\t// out\n        /* \"#utility.yul\":4507:4873   */\n    tag_257:\n        /* \"#utility.yul\":4649:4652   */\n      0x00\n        /* \"#utility.yul\":4670:4737   */\n      tag_259\n        /* \"#utility.yul\":4734:4736   */\n      0x19\n        /* \"#utility.yul\":4729:4732   */\n      dup4\n        /* \"#utility.yul\":4670:4737   */\n      tag_224\n      jump\t// in\n    tag_259:\n        /* \"#utility.yul\":4663:4737   */\n      swap2\n      pop\n        /* \"#utility.yul\":4746:4839   */\n      tag_260\n        /* \"#utility.yul\":4835:4838   */\n      dup3\n        /* \"#utility.yul\":4746:4839   */\n      tag_261\n      jump\t// in\n    tag_260:\n        /* \"#utility.yul\":4864:4866   */\n      0x20\n        /* \"#utility.yul\":4859:4862   */\n      dup3\n        /* \"#utility.yul\":4855:4867   */\n      add\n        /* \"#utility.yul\":4848:4867   */\n      swap1\n      pop\n        /* \"#utility.yul\":4507:4873   */\n      swap2\n      swap1\n      pop\n      jump\t// out\n        /* \"#utility.yul\":4879:5245   */\n    tag_262:\n        /* \"#utility.yul\":5021:5024   */\n      0x00\n        /* \"#utility.yul\":5042:5109   */\n      tag_264\n        /* \"#utility.yul\":5106:5108   */\n      0x21\n        /* \"#utility.yul\":5101:5104   */\n      dup4\n        /* \"#utility.yul\":5042:5109   */\n      tag_224\n      jump\t// in\n    tag_264:\n        /* \"#utility.yul\":5035:5109   */\n      swap2\n      pop\n        /* \"#utility.yul\":5118:5211   */\n      tag_265\n        /* \"#utility.yul\":5207:5210   */\n      dup3\n        /* \"#utility.yul\":5118:5211   */\n      tag_266\n      jump\t// in\n    tag_265:\n        /* \"#utility.yul\":5236:5238   */\n      0x40\n        /* \"#utility.yul\":5231:5234   */\n      dup3\n        /* \"#utility.yul\":5227:5239   */\n      add\n        /* \"#utility.yul\":5220:5239   */\n      swap1\n      pop\n        /* \"#utility.yul\":4879:5245   */\n      swap2\n      swap1\n      pop\n      jump\t// out\n        /* \"#utility.yul\":5251:5369   */\n    tag_267:\n        /* \"#utility.yul\":5338:5362   */\n      tag_269\n        /* \"#utility.yul\":5356:5361   */\n      dup2\n        /* \"#utility.yul\":5338:5362   */\n      tag_270\n      jump\t// in\n    tag_269:\n        /* \"#utility.yul\":5333:5336   */\n      dup3\n        /* \"#utility.yul\":5326:5363   */\n      mstore\n        /* \"#utility.yul\":5251:5369   */\n      pop\n      pop\n      jump\t// out\n        /* \"#utility.yul\":5375:5532   */\n    tag_271:\n        /* \"#utility.yul\":5480:5525   */\n      tag_273\n        /* \"#utility.yul\":5500:5524   */\n      tag_274\n        /* \"#utility.yul\":5518:5523   */\n      dup3\n        /* \"#utility.yul\":5500:5524   */\n      tag_270\n      jump\t// in\n    tag_274:\n        /* \"#utility.yul\":5480:5525   */\n      tag_275\n      jump\t// in\n    tag_273:\n        /* \"#utility.yul\":5475:5478   */\n      dup3\n        /* \"#utility.yul\":5468:5526   */\n      mstore\n        /* \"#utility.yul\":5375:5532   */\n      pop\n      pop\n      jump\t// out\n        /* \"#utility.yul\":5538:5935   */\n    tag_108:\n        /* \"#utility.yul\":5678:5681   */\n      0x00\n        /* \"#utility.yul\":5693:5768   */\n      tag_277\n        /* \"#utility.yul\":5764:5767   */\n      dup3\n        /* \"#utility.yul\":5755:5761   */\n      dup6\n        /* \"#utility.yul\":5693:5768   */\n      tag_271\n      jump\t// in\n    tag_277:\n        /* \"#utility.yul\":5793:5795   */\n      0x20\n        /* \"#utility.yul\":5788:5791   */\n      dup3\n        /* \"#utility.yul\":5784:5796   */\n      add\n        /* \"#utility.yul\":5777:5796   */\n      swap2\n      pop\n        /* \"#utility.yul\":5806:5881   */\n      tag_278\n        /* \"#utility.yul\":5877:5880   */\n      dup3\n        /* \"#utility.yul\":5868:5874   */\n      dup5\n        /* \"#utility.yul\":5806:5881   */\n      tag_200\n      jump\t// in\n    tag_278:\n        /* \"#utility.yul\":5906:5908   */\n      0x14\n        /* \"#utility.yul\":5901:5904   */\n      dup3\n        /* \"#utility.yul\":5897:5909   */\n      add\n        /* \"#utility.yul\":5890:5909   */\n      swap2\n      pop\n        /* \"#utility.yul\":5926:5929   */\n      dup2\n        /* \"#utility.yul\":5919:5929   */\n      swap1\n      pop\n        /* \"#utility.yul\":5538:5935   */\n      swap4\n      swap3\n      pop\n      pop\n      pop\n      jump\t// out\n        /* \"#utility.yul\":5941:6195   */\n    tag_37:\n        /* \"#utility.yul\":6050:6054   */\n      0x00\n        /* \"#utility.yul\":6088:6090   */\n      0x20\n        /* \"#utility.yul\":6077:6086   */\n      dup3\n        /* \"#utility.yul\":6073:6091   */\n      add\n        /* \"#utility.yul\":6065:6091   */\n      swap1\n      pop\n        /* \"#utility.yul\":6101:6188   */\n      tag_280\n        /* \"#utility.yul\":6185:6186   */\n      0x00\n        /* \"#utility.yul\":6174:6183   */\n      dup4\n        /* \"#utility.yul\":6170:6187   */\n      add\n        /* \"#utility.yul\":6161:6167   */\n      dup5\n        /* \"#utility.yul\":6101:6188   */\n      tag_192\n      jump\t// in\n    tag_280:\n        /* \"#utility.yul\":5941:6195   */\n      swap3\n      swap2\n      pop\n      pop\n      jump\t// out\n        /* \"#utility.yul\":6201:6952   */\n    tag_141:\n        /* \"#utility.yul\":6424:6428   */\n      0x00\n        /* \"#utility.yul\":6462:6465   */\n      0xa0\n        /* \"#utility.yul\":6451:6460   */\n      dup3\n        /* \"#utility.yul\":6447:6466   */\n      add\n        /* \"#utility.yul\":6439:6466   */\n      swap1\n      pop\n        /* \"#utility.yul\":6476:6547   */\n      tag_282\n        /* \"#utility.yul\":6544:6545   */\n      0x00\n        /* \"#utility.yul\":6533:6542   */\n      dup4\n        /* \"#utility.yul\":6529:6546   */\n      add\n        /* \"#utility.yul\":6520:6526   */\n      dup9\n        /* \"#utility.yul\":6476:6547   */\n      tag_196\n      jump\t// in\n    tag_282:\n        /* \"#utility.yul\":6557:6629   */\n      tag_283\n        /* \"#utility.yul\":6625:6627   */\n      0x20\n        /* \"#utility.yul\":6614:6623   */\n      dup4\n        /* \"#utility.yul\":6610:6628   */\n      add\n        /* \"#utility.yul\":6601:6607   */\n      dup8\n        /* \"#utility.yul\":6557:6629   */\n      tag_196\n      jump\t// in\n    tag_283:\n        /* \"#utility.yul\":6639:6711   */\n      tag_284\n        /* \"#utility.yul\":6707:6709   */\n      0x40\n        /* \"#utility.yul\":6696:6705   */\n      dup4\n        /* \"#utility.yul\":6692:6710   */\n      add\n        /* \"#utility.yul\":6683:6689   */\n      dup7\n        /* \"#utility.yul\":6639:6711   */\n      tag_267\n      jump\t// in\n    tag_284:\n        /* \"#utility.yul\":6721:6793   */\n      tag_285\n        /* \"#utility.yul\":6789:6791   */\n      0x60\n        /* \"#utility.yul\":6778:6787   */\n      dup4\n        /* \"#utility.yul\":6774:6792   */\n      add\n        /* \"#utility.yul\":6765:6771   */\n      dup6\n        /* \"#utility.yul\":6721:6793   */\n      tag_267\n      jump\t// in\n    tag_285:\n        /* \"#utility.yul\":6841:6850   */\n      dup2\n        /* \"#utility.yul\":6835:6839   */\n      dup2\n        /* \"#utility.yul\":6831:6851   */\n      sub\n        /* \"#utility.yul\":6825:6828   */\n      0x80\n        /* \"#utility.yul\":6814:6823   */\n      dup4\n        /* \"#utility.yul\":6810:6829   */\n      add\n        /* \"#utility.yul\":6803:6852   */\n      mstore\n        /* \"#utility.yul\":6869:6945   */\n      tag_286\n        /* \"#utility.yul\":6940:6944   */\n      dup2\n        /* \"#utility.yul\":6931:6937   */\n      dup5\n        /* \"#utility.yul\":6869:6945   */\n      tag_209\n      jump\t// in\n    tag_286:\n        /* \"#utility.yul\":6861:6945   */\n      swap1\n      pop\n        /* \"#utility.yul\":6201:6952   */\n      swap7\n      swap6\n      pop\n      pop\n      pop\n      pop\n      pop\n      pop\n      jump\t// out\n        /* \"#utility.yul\":6958:7168   */\n    tag_15:\n        /* \"#utility.yul\":7045:7049   */\n      0x00\n        /* \"#utility.yul\":7083:7085   */\n      0x20\n        /* \"#utility.yul\":7072:7081   */\n      dup3\n        /* \"#utility.yul\":7068:7086   */\n      add\n        /* \"#utility.yul\":7060:7086   */\n      swap1\n      pop\n        /* \"#utility.yul\":7096:7161   */\n      tag_288\n        /* \"#utility.yul\":7158:7159   */\n      0x00\n        /* \"#utility.yul\":7147:7156   */\n      dup4\n        /* \"#utility.yul\":7143:7160   */\n      add\n        /* \"#utility.yul\":7134:7140   */\n      dup5\n        /* \"#utility.yul\":7096:7161   */\n      tag_205\n      jump\t// in\n    tag_288:\n        /* \"#utility.yul\":6958:7168   */\n      swap3\n      swap2\n      pop\n      pop\n      jump\t// out\n        /* \"#utility.yul\":7174:7487   */\n    tag_156:\n        /* \"#utility.yul\":7287:7291   */\n      0x00\n        /* \"#utility.yul\":7325:7327   */\n      0x20\n        /* \"#utility.yul\":7314:7323   */\n      dup3\n        /* \"#utility.yul\":7310:7328   */\n      add\n        /* \"#utility.yul\":7302:7328   */\n      swap1\n      pop\n        /* \"#utility.yul\":7374:7383   */\n      dup2\n        /* \"#utility.yul\":7368:7372   */\n      dup2\n        /* \"#utility.yul\":7364:7384   */\n      sub\n        /* \"#utility.yul\":7360:7361   */\n      0x00\n        /* \"#utility.yul\":7349:7358   */\n      dup4\n        /* \"#utility.yul\":7345:7362   */\n      add\n        /* \"#utility.yul\":7338:7385   */\n      mstore\n        /* \"#utility.yul\":7402:7480   */\n      tag_290\n        /* \"#utility.yul\":7475:7479   */\n      dup2\n        /* \"#utility.yul\":7466:7472   */\n      dup5\n        /* \"#utility.yul\":7402:7480   */\n      tag_219\n      jump\t// in\n    tag_290:\n        /* \"#utility.yul\":7394:7480   */\n      swap1\n      pop\n        /* \"#utility.yul\":7174:7487   */\n      swap3\n      swap2\n      pop\n      pop\n      jump\t// out\n        /* \"#utility.yul\":7493:7912   */\n    tag_158:\n        /* \"#utility.yul\":7659:7663   */\n      0x00\n        /* \"#utility.yul\":7697:7699   */\n      0x20\n        /* \"#utility.yul\":7686:7695   */\n      dup3\n        /* \"#utility.yul\":7682:7700   */\n      add\n        /* \"#utility.yul\":7674:7700   */\n      swap1\n      pop\n        /* \"#utility.yul\":7746:7755   */\n      dup2\n        /* \"#utility.yul\":7740:7744   */\n      dup2\n        /* \"#utility.yul\":7736:7756   */\n      sub\n        /* \"#utility.yul\":7732:7733   */\n      0x00\n        /* \"#utility.yul\":7721:7730   */\n      dup4\n        /* \"#utility.yul\":7717:7734   */\n      add\n        /* \"#utility.yul\":7710:7757   */\n      mstore\n        /* \"#utility.yul\":7774:7905   */\n      tag_292\n        /* \"#utility.yul\":7900:7904   */\n      dup2\n        /* \"#utility.yul\":7774:7905   */\n      tag_227\n      jump\t// in\n    tag_292:\n        /* \"#utility.yul\":7766:7905   */\n      swap1\n      pop\n        /* \"#utility.yul\":7493:7912   */\n      swap2\n      swap1\n      pop\n      jump\t// out\n        /* \"#utility.yul\":7918:8337   */\n    tag_162:\n        /* \"#utility.yul\":8084:8088   */\n      0x00\n        /* \"#utility.yul\":8122:8124   */\n      0x20\n        /* \"#utility.yul\":8111:8120   */\n      dup3\n        /* \"#utility.yul\":8107:8125   */\n      add\n        /* \"#utility.yul\":8099:8125   */\n      swap1\n      pop\n        /* \"#utility.yul\":8171:8180   */\n      dup2\n        /* \"#utility.yul\":8165:8169   */\n      dup2\n        /* \"#utility.yul\":8161:8181   */\n      sub\n        /* \"#utility.yul\":8157:8158   */\n      0x00\n        /* \"#utility.yul\":8146:8155   */\n      dup4\n        /* \"#utility.yul\":8142:8159   */\n      add\n        /* \"#utility.yul\":8135:8182   */\n      mstore\n        /* \"#utility.yul\":8199:8330   */\n      tag_294\n        /* \"#utility.yul\":8325:8329   */\n      dup2\n        /* \"#utility.yul\":8199:8330   */\n      tag_232\n      jump\t// in\n    tag_294:\n        /* \"#utility.yul\":8191:8330   */\n      swap1\n      pop\n        /* \"#utility.yul\":7918:8337   */\n      swap2\n      swap1\n      pop\n      jump\t// out\n        /* \"#utility.yul\":8343:8762   */\n    tag_51:\n        /* \"#utility.yul\":8509:8513   */\n      0x00\n        /* \"#utility.yul\":8547:8549   */\n      0x20\n        /* \"#utility.yul\":8536:8545   */\n      dup3\n        /* \"#utility.yul\":8532:8550   */\n      add\n        /* \"#utility.yul\":8524:8550   */\n      swap1\n      pop\n        /* \"#utility.yul\":8596:8605   */\n      dup2\n        /* \"#utility.yul\":8590:8594   */\n      dup2\n        /* \"#utility.yul\":8586:8606   */\n      sub\n        /* \"#utility.yul\":8582:8583   */\n      0x00\n        /* \"#utility.yul\":8571:8580   */\n      dup4\n        /* \"#utility.yul\":8567:8584   */\n      add\n        /* \"#utility.yul\":8560:8607   */\n      mstore\n        /* \"#utility.yul\":8624:8755   */\n      tag_296\n        /* \"#utility.yul\":8750:8754   */\n      dup2\n        /* \"#utility.yul\":8624:8755   */\n      tag_237\n      jump\t// in\n    tag_296:\n        /* \"#utility.yul\":8616:8755   */\n      swap1\n      pop\n        /* \"#utility.yul\":8343:8762   */\n      swap2\n      swap1\n      pop\n      jump\t// out\n        /* \"#utility.yul\":8768:9187   */\n    tag_104:\n        /* \"#utility.yul\":8934:8938   */\n      0x00\n        /* \"#utility.yul\":8972:8974   */\n      0x20\n        /* \"#utility.yul\":8961:8970   */\n      dup3\n        /* \"#utility.yul\":8957:8975   */\n      add\n        /* \"#utility.yul\":8949:8975   */\n      swap1\n      pop\n        /* \"#utility.yul\":9021:9030   */\n      dup2\n        /* \"#utility.yul\":9015:9019   */\n      dup2\n        /* \"#utility.yul\":9011:9031   */\n      sub\n        /* \"#utility.yul\":9007:9008   */\n      0x00\n        /* \"#utility.yul\":8996:9005   */\n      dup4\n        /* \"#utility.yul\":8992:9009   */\n      add\n        /* \"#utility.yul\":8985:9032   */\n      mstore\n        /* \"#utility.yul\":9049:9180   */\n      tag_298\n        /* \"#utility.yul\":9175:9179   */\n      dup2\n        /* \"#utility.yul\":9049:9180   */\n      tag_242\n      jump\t// in\n    tag_298:\n        /* \"#utility.yul\":9041:9180   */\n      swap1\n      pop\n        /* \"#utility.yul\":8768:9187   */\n      swap2\n      swap1\n      pop\n      jump\t// out\n        /* \"#utility.yul\":9193:9612   */\n    tag_47:\n        /* \"#utility.yul\":9359:9363   */\n      0x00\n        /* \"#utility.yul\":9397:9399   */\n      0x20\n        /* \"#utility.yul\":9386:9395   */\n      dup3\n        /* \"#utility.yul\":9382:9400   */\n      add\n        /* \"#utility.yul\":9374:9400   */\n      swap1\n      pop\n        /* \"#utility.yul\":9446:9455   */\n      dup2\n        /* \"#utility.yul\":9440:9444   */\n      dup2\n        /* \"#utility.yul\":9436:9456   */\n      sub\n        /* \"#utility.yul\":9432:9433   */\n      0x00\n        /* \"#utility.yul\":9421:9430   */\n      dup4\n        /* \"#utility.yul\":9417:9434   */\n      add\n        /* \"#utility.yul\":9410:9457   */\n      mstore\n        /* \"#utility.yul\":9474:9605   */\n      tag_300\n        /* \"#utility.yul\":9600:9604   */\n      dup2\n        /* \"#utility.yul\":9474:9605   */\n      tag_247\n      jump\t// in\n    tag_300:\n        /* \"#utility.yul\":9466:9605   */\n      swap1\n      pop\n        /* \"#utility.yul\":9193:9612   */\n      swap2\n      swap1\n      pop\n      jump\t// out\n        /* \"#utility.yul\":9618:10037   */\n    tag_60:\n        /* \"#utility.yul\":9784:9788   */\n      0x00\n        /* \"#utility.yul\":9822:9824   */\n      0x20\n        /* \"#utility.yul\":9811:9820   */\n      dup3\n        /* \"#utility.yul\":9807:9825   */\n      add\n        /* \"#utility.yul\":9799:9825   */\n      swap1\n      pop\n        /* \"#utility.yul\":9871:9880   */\n      dup2\n        /* \"#utility.yul\":9865:9869   */\n      dup2\n        /* \"#utility.yul\":9861:9881   */\n      sub\n        /* \"#utility.yul\":9857:9858   */\n      0x00\n        /* \"#utility.yul\":9846:9855   */\n      dup4\n        /* \"#utility.yul\":9842:9859   */\n      add\n        /* \"#utility.yul\":9835:9882   */\n      mstore\n        /* \"#utility.yul\":9899:10030   */\n      tag_302\n        /* \"#utility.yul\":10025:10029   */\n      dup2\n        /* \"#utility.yul\":9899:10030   */\n      tag_252\n      jump\t// in\n    tag_302:\n        /* \"#utility.yul\":9891:10030   */\n      swap1\n      pop\n        /* \"#utility.yul\":9618:10037   */\n      swap2\n      swap1\n      pop\n      jump\t// out\n        /* \"#utility.yul\":10043:10462   */\n    tag_64:\n        /* \"#utility.yul\":10209:10213   */\n      0x00\n        /* \"#utility.yul\":10247:10249   */\n      0x20\n        /* \"#utility.yul\":10236:10245   */\n      dup3\n        /* \"#utility.yul\":10232:10250   */\n      add\n        /* \"#utility.yul\":10224:10250   */\n      swap1\n      pop\n        /* \"#utility.yul\":10296:10305   */\n      dup2\n        /* \"#utility.yul\":10290:10294   */\n      dup2\n        /* \"#utility.yul\":10286:10306   */\n      sub\n        /* \"#utility.yul\":10282:10283   */\n      0x00\n        /* \"#utility.yul\":10271:10280   */\n      dup4\n        /* \"#utility.yul\":10267:10284   */\n      add\n        /* \"#utility.yul\":10260:10307   */\n      mstore\n        /* \"#utility.yul\":10324:10455   */\n      tag_304\n        /* \"#utility.yul\":10450:10454   */\n      dup2\n        /* \"#utility.yul\":10324:10455   */\n      tag_257\n      jump\t// in\n    tag_304:\n        /* \"#utility.yul\":10316:10455   */\n      swap1\n      pop\n        /* \"#utility.yul\":10043:10462   */\n      swap2\n      swap1\n      pop\n      jump\t// out\n        /* \"#utility.yul\":10468:10887   */\n    tag_114:\n        /* \"#utility.yul\":10634:10638   */\n      0x00\n        /* \"#utility.yul\":10672:10674   */\n      0x20\n        /* \"#utility.yul\":10661:10670   */\n      dup3\n        /* \"#utility.yul\":10657:10675   */\n      add\n        /* \"#utility.yul\":10649:10675   */\n      swap1\n      pop\n        /* \"#utility.yul\":10721:10730   */\n      dup2\n        /* \"#utility.yul\":10715:10719   */\n      dup2\n        /* \"#utility.yul\":10711:10731   */\n      sub\n        /* \"#utility.yul\":10707:10708   */\n      0x00\n        /* \"#utility.yul\":10696:10705   */\n      dup4\n        /* \"#utility.yul\":10692:10709   */\n      add\n        /* \"#utility.yul\":10685:10732   */\n      mstore\n        /* \"#utility.yul\":10749:10880   */\n      tag_306\n        /* \"#utility.yul\":10875:10879   */\n      dup2\n        /* \"#utility.yul\":10749:10880   */\n      tag_262\n      jump\t// in\n    tag_306:\n        /* \"#utility.yul\":10741:10880   */\n      swap1\n      pop\n        /* \"#utility.yul\":10468:10887   */\n      swap2\n      swap1\n      pop\n      jump\t// out\n        /* \"#utility.yul\":10893:11115   */\n    tag_21:\n        /* \"#utility.yul\":10986:10990   */\n      0x00\n        /* \"#utility.yul\":11024:11026   */\n      0x20\n        /* \"#utility.yul\":11013:11022   */\n      dup3\n        /* \"#utility.yul\":11009:11027   */\n      add\n        /* \"#utility.yul\":11001:11027   */\n      swap1\n      pop\n        /* \"#utility.yul\":11037:11108   */\n      tag_308\n        /* \"#utility.yul\":11105:11106   */\n      0x00\n        /* \"#utility.yul\":11094:11103   */\n      dup4\n        /* \"#utility.yul\":11090:11107   */\n      add\n        /* \"#utility.yul\":11081:11087   */\n      dup5\n        /* \"#utility.yul\":11037:11108   */\n      tag_267\n      jump\t// in\n    tag_308:\n        /* \"#utility.yul\":10893:11115   */\n      swap3\n      swap2\n      pop\n      pop\n      jump\t// out\n        /* \"#utility.yul\":11121:11544   */\n    tag_31:\n        /* \"#utility.yul\":11262:11266   */\n      0x00\n        /* \"#utility.yul\":11300:11302   */\n      0x40\n        /* \"#utility.yul\":11289:11298   */\n      dup3\n        /* \"#utility.yul\":11285:11303   */\n      add\n        /* \"#utility.yul\":11277:11303   */\n      swap1\n      pop\n        /* \"#utility.yul\":11313:11384   */\n      tag_310\n        /* \"#utility.yul\":11381:11382   */\n      0x00\n        /* \"#utility.yul\":11370:11379   */\n      dup4\n        /* \"#utility.yul\":11366:11383   */\n      add\n        /* \"#utility.yul\":11357:11363   */\n      dup6\n        /* \"#utility.yul\":11313:11384   */\n      tag_267\n      jump\t// in\n    tag_310:\n        /* \"#utility.yul\":11431:11440   */\n      dup2\n        /* \"#utility.yul\":11425:11429   */\n      dup2\n        /* \"#utility.yul\":11421:11441   */\n      sub\n        /* \"#utility.yul\":11416:11418   */\n      0x20\n        /* \"#utility.yul\":11405:11414   */\n      dup4\n        /* \"#utility.yul\":11401:11419   */\n      add\n        /* \"#utility.yul\":11394:11442   */\n      mstore\n        /* \"#utility.yul\":11459:11537   */\n      tag_311\n        /* \"#utility.yul\":11532:11536   */\n      dup2\n        /* \"#utility.yul\":11523:11529   */\n      dup5\n        /* \"#utility.yul\":11459:11537   */\n      tag_219\n      jump\t// in\n    tag_311:\n        /* \"#utility.yul\":11451:11537   */\n      swap1\n      pop\n        /* \"#utility.yul\":11121:11544   */\n      swap4\n      swap3\n      pop\n      pop\n      pop\n      jump\t// out\n        /* \"#utility.yul\":11550:11882   */\n    tag_124:\n        /* \"#utility.yul\":11671:11675   */\n      0x00\n        /* \"#utility.yul\":11709:11711   */\n      0x40\n        /* \"#utility.yul\":11698:11707   */\n      dup3\n        /* \"#utility.yul\":11694:11712   */\n      add\n        /* \"#utility.yul\":11686:11712   */\n      swap1\n      pop\n        /* \"#utility.yul\":11722:11793   */\n      tag_313\n        /* \"#utility.yul\":11790:11791   */\n      0x00\n        /* \"#utility.yul\":11779:11788   */\n      dup4\n        /* \"#utility.yul\":11775:11792   */\n      add\n        /* \"#utility.yul\":11766:11772   */\n      dup6\n        /* \"#utility.yul\":11722:11793   */\n      tag_267\n      jump\t// in\n    tag_313:\n        /* \"#utility.yul\":11803:11875   */\n      tag_314\n        /* \"#utility.yul\":11871:11873   */\n      0x20\n        /* \"#utility.yul\":11860:11869   */\n      dup4\n        /* \"#utility.yul\":11856:11874   */\n      add\n        /* \"#utility.yul\":11847:11853   */\n      dup5\n        /* \"#utility.yul\":11803:11875   */\n      tag_267\n      jump\t// in\n    tag_314:\n        /* \"#utility.yul\":11550:11882   */\n      swap4\n      swap3\n      pop\n      pop\n      pop\n      jump\t// out\n        /* \"#utility.yul\":11888:12330   */\n    tag_25:\n        /* \"#utility.yul\":12037:12041   */\n      0x00\n        /* \"#utility.yul\":12075:12077   */\n      0x60\n        /* \"#utility.yul\":12064:12073   */\n      dup3\n        /* \"#utility.yul\":12060:12078   */\n      add\n        /* \"#utility.yul\":12052:12078   */\n      swap1\n      pop\n        /* \"#utility.yul\":12088:12159   */\n      tag_316\n        /* \"#utility.yul\":12156:12157   */\n      0x00\n        /* \"#utility.yul\":12145:12154   */\n      dup4\n        /* \"#utility.yul\":12141:12158   */\n      add\n        /* \"#utility.yul\":12132:12138   */\n      dup7\n        /* \"#utility.yul\":12088:12159   */\n      tag_267\n      jump\t// in\n    tag_316:\n        /* \"#utility.yul\":12169:12241   */\n      tag_317\n        /* \"#utility.yul\":12237:12239   */\n      0x20\n        /* \"#utility.yul\":12226:12235   */\n      dup4\n        /* \"#utility.yul\":12222:12240   */\n      add\n        /* \"#utility.yul\":12213:12219   */\n      dup6\n        /* \"#utility.yul\":12169:12241   */\n      tag_267\n      jump\t// in\n    tag_317:\n        /* \"#utility.yul\":12251:12323   */\n      tag_318\n        /* \"#utility.yul\":12319:12321   */\n      0x40\n        /* \"#utility.yul\":12308:12317   */\n      dup4\n        /* \"#utility.yul\":12304:12322   */\n      add\n        /* \"#utility.yul\":12295:12301   */\n      dup5\n        /* \"#utility.yul\":12251:12323   */\n      tag_267\n      jump\t// in\n    tag_318:\n        /* \"#utility.yul\":11888:12330   */\n      swap5\n      swap4\n      pop\n      pop\n      pop\n      pop\n      jump\t// out\n        /* \"#utility.yul\":12336:12411   */\n    tag_319:\n        /* \"#utility.yul\":12369:12375   */\n      0x00\n        /* \"#utility.yul\":12402:12404   */\n      0x40\n        /* \"#utility.yul\":12396:12405   */\n      mload\n        /* \"#utility.yul\":12386:12405   */\n      swap1\n      pop\n        /* \"#utility.yul\":12336:12411   */\n      swap1\n      jump\t// out\n        /* \"#utility.yul\":12417:12515   */\n    tag_212:\n        /* \"#utility.yul\":12468:12474   */\n      0x00\n        /* \"#utility.yul\":12502:12507   */\n      dup2\n        /* \"#utility.yul\":12496:12508   */\n      mload\n        /* \"#utility.yul\":12486:12508   */\n      swap1\n      pop\n        /* \"#utility.yul\":12417:12515   */\n      swap2\n      swap1\n      pop\n      jump\t// out\n        /* \"#utility.yul\":12521:12620   */\n    tag_222:\n        /* \"#utility.yul\":12573:12579   */\n      0x00\n        /* \"#utility.yul\":12607:12612   */\n      dup2\n        /* \"#utility.yul\":12601:12613   */\n      mload\n        /* \"#utility.yul\":12591:12613   */\n      swap1\n      pop\n        /* \"#utility.yul\":12521:12620   */\n      swap2\n      swap1\n      pop\n      jump\t// out\n        /* \"#utility.yul\":12626:12794   */\n    tag_214:\n        /* \"#utility.yul\":12709:12720   */\n      0x00\n        /* \"#utility.yul\":12743:12749   */\n      dup3\n        /* \"#utility.yul\":12738:12741   */\n      dup3\n        /* \"#utility.yul\":12731:12750   */\n      mstore\n        /* \"#utility.yul\":12783:12787   */\n      0x20\n        /* \"#utility.yul\":12778:12781   */\n      dup3\n        /* \"#utility.yul\":12774:12788   */\n      add\n        /* \"#utility.yul\":12759:12788   */\n      swap1\n      pop\n        /* \"#utility.yul\":12626:12794   */\n      swap3\n      swap2\n      pop\n      pop\n      jump\t// out\n        /* \"#utility.yul\":12800:12969   */\n    tag_224:\n        /* \"#utility.yul\":12884:12895   */\n      0x00\n        /* \"#utility.yul\":12918:12924   */\n      dup3\n        /* \"#utility.yul\":12913:12916   */\n      dup3\n        /* \"#utility.yul\":12906:12925   */\n      mstore\n        /* \"#utility.yul\":12958:12962   */\n      0x20\n        /* \"#utility.yul\":12953:12956   */\n      dup3\n        /* \"#utility.yul\":12949:12963   */\n      add\n        /* \"#utility.yul\":12934:12963   */\n      swap1\n      pop\n        /* \"#utility.yul\":12800:12969   */\n      swap3\n      swap2\n      pop\n      pop\n      jump\t// out\n        /* \"#utility.yul\":12975:13280   */\n    tag_122:\n        /* \"#utility.yul\":13015:13018   */\n      0x00\n        /* \"#utility.yul\":13034:13054   */\n      tag_326\n        /* \"#utility.yul\":13052:13053   */\n      dup3\n        /* \"#utility.yul\":13034:13054   */\n      tag_270\n      jump\t// in\n    tag_326:\n        /* \"#utility.yul\":13029:13054   */\n      swap2\n      pop\n        /* \"#utility.yul\":13068:13088   */\n      tag_327\n        /* \"#utility.yul\":13086:13087   */\n      dup4\n        /* \"#utility.yul\":13068:13088   */\n      tag_270\n      jump\t// in\n    tag_327:\n        /* \"#utility.yul\":13063:13088   */\n      swap3\n      pop\n        /* \"#utility.yul\":13222:13223   */\n      dup3\n        /* \"#utility.yul\":13154:13220   */\n      0xffffffffffffffffffffffffffffffffffffffffffffffffffffffffffffffff\n        /* \"#utility.yul\":13150:13224   */\n      sub\n        /* \"#utility.yul\":13147:13148   */\n      dup3\n        /* \"#utility.yul\":13144:13225   */\n      gt\n        /* \"#utility.yul\":13141:13248   */\n      iszero\n      tag_328\n      jumpi\n        /* \"#utility.yul\":13228:13246   */\n      tag_329\n      tag_330\n      jump\t// in\n    tag_329:\n        /* \"#utility.yul\":13141:13248   */\n    tag_328:\n        /* \"#utility.yul\":13272:13273   */\n      dup3\n        /* \"#utility.yul\":13269:13270   */\n      dup3\n        /* \"#utility.yul\":13265:13274   */\n      add\n        /* \"#utility.yul\":13258:13274   */\n      swap1\n      pop\n        /* \"#utility.yul\":12975:13280   */\n      swap3\n      swap2\n      pop\n      pop\n      jump\t// out\n        /* \"#utility.yul\":13286:13382   */\n    tag_199:\n        /* \"#utility.yul\":13323:13330   */\n      0x00\n        /* \"#utility.yul\":13352:13376   */\n      tag_332\n        /* \"#utility.yul\":13370:13375   */\n      dup3\n        /* \"#utility.yul\":13352:13376   */\n      tag_333\n      jump\t// in\n    tag_332:\n        /* \"#utility.yul\":13341:13376   */\n      swap1\n      pop\n        /* \"#utility.yul\":13286:13382   */\n      swap2\n      swap1\n      pop\n      jump\t// out\n        /* \"#utility.yul\":13388:13492   */\n    tag_195:\n        /* \"#utility.yul\":13433:13440   */\n      0x00\n        /* \"#utility.yul\":13462:13486   */\n      tag_335\n        /* \"#utility.yul\":13480:13485   */\n      dup3\n        /* \"#utility.yul\":13462:13486   */\n      tag_333\n      jump\t// in\n    tag_335:\n        /* \"#utility.yul\":13451:13486   */\n      swap1\n      pop\n        /* \"#utility.yul\":13388:13492   */\n      swap2\n      swap1\n      pop\n      jump\t// out\n        /* \"#utility.yul\":13498:13588   */\n    tag_208:\n        /* \"#utility.yul\":13532:13539   */\n      0x00\n        /* \"#utility.yul\":13575:13580   */\n      dup2\n        /* \"#utility.yul\":13568:13581   */\n      iszero\n        /* \"#utility.yul\":13561:13582   */\n      iszero\n        /* \"#utility.yul\":13550:13582   */\n      swap1\n      pop\n        /* \"#utility.yul\":13498:13588   */\n      swap2\n      swap1\n      pop\n      jump\t// out\n        /* \"#utility.yul\":13594:13743   */\n    tag_337:\n        /* \"#utility.yul\":13630:13637   */\n      0x00\n        /* \"#utility.yul\":13670:13736   */\n      0xffffffff00000000000000000000000000000000000000000000000000000000\n        /* \"#utility.yul\":13663:13668   */\n      dup3\n        /* \"#utility.yul\":13659:13737   */\n      and\n        /* \"#utility.yul\":13648:13737   */\n      swap1\n      pop\n        /* \"#utility.yul\":13594:13743   */\n      swap2\n      swap1\n      pop\n      jump\t// out\n        /* \"#utility.yul\":13749:13875   */\n    tag_333:\n        /* \"#utility.yul\":13786:13793   */\n      0x00\n        /* \"#utility.yul\":13826:13868   */\n      0xffffffffffffffffffffffffffffffffffffffff\n        /* \"#utility.yul\":13819:13824   */\n      dup3\n        /* \"#utility.yul\":13815:13869   */\n      and\n        /* \"#utility.yul\":13804:13869   */\n      swap1\n      pop\n        /* \"#utility.yul\":13749:13875   */\n      swap2\n      swap1\n      pop\n      jump\t// out\n        /* \"#utility.yul\":13881:13958   */\n    tag_270:\n        /* \"#utility.yul\":13918:13925   */\n      0x00\n        /* \"#utility.yul\":13947:13952   */\n      dup2\n        /* \"#utility.yul\":13936:13952   */\n      swap1\n      pop\n        /* \"#utility.yul\":13881:13958   */\n      swap2\n      swap1\n      pop\n      jump\t// out\n        /* \"#utility.yul\":13964:14271   */\n    tag_216:\n        /* \"#utility.yul\":14032:14033   */\n      0x00\n        /* \"#utility.yul\":14042:14155   */\n    tag_342:\n        /* \"#utility.yul\":14056:14062   */\n      dup4\n        /* \"#utility.yul\":14053:14054   */\n      dup2\n        /* \"#utility.yul\":14050:14063   */\n      lt\n        /* \"#utility.yul\":14042:14155   */\n      iszero\n      tag_344\n      jumpi\n        /* \"#utility.yul\":14141:14142   */\n      dup1\n        /* \"#utility.yul\":14136:14139   */\n      dup3\n        /* \"#utility.yul\":14132:14143   */\n      add\n        /* \"#utility.yul\":14126:14144   */\n      mload\n        /* \"#utility.yul\":14122:14123   */\n      dup2\n        /* \"#utility.yul\":14117:14120   */\n      dup5\n        /* \"#utility.yul\":14113:14124   */\n      add\n        /* \"#utility.yul\":14106:14145   */\n      mstore\n        /* \"#utility.yul\":14078:14080   */\n      0x20\n        /* \"#utility.yul\":14075:14076   */\n      dup2\n        /* \"#utility.yul\":14071:14081   */\n      add\n        /* \"#utility.yul\":14066:14081   */\n      swap1\n      pop\n        /* \"#utility.yul\":14042:14155   */\n      jump(tag_342)\n    tag_344:\n        /* \"#utility.yul\":14173:14179   */\n      dup4\n        /* \"#utility.yul\":14170:14171   */\n      dup2\n        /* \"#utility.yul\":14167:14180   */\n      gt\n        /* \"#utility.yul\":14164:14265   */\n      iszero\n      tag_345\n      jumpi\n        /* \"#utility.yul\":14253:14254   */\n      0x00\n        /* \"#utility.yul\":14244:14250   */\n      dup5\n        /* \"#utility.yul\":14239:14242   */\n      dup5\n        /* \"#utility.yul\":14235:14251   */\n      add\n        /* \"#utility.yul\":14228:14255   */\n      mstore\n        /* \"#utility.yul\":14164:14265   */\n    tag_345:\n        /* \"#utility.yul\":14013:14271   */\n      pop\n        /* \"#utility.yul\":13964:14271   */\n      pop\n      pop\n      pop\n      jump\t// out\n        /* \"#utility.yul\":14277:14597   */\n    tag_85:\n        /* \"#utility.yul\":14321:14327   */\n      0x00\n        /* \"#utility.yul\":14358:14359   */\n      0x02\n        /* \"#utility.yul\":14352:14356   */\n      dup3\n        /* \"#utility.yul\":14348:14360   */\n      div\n        /* \"#utility.yul\":14338:14360   */\n      swap1\n      pop\n        /* \"#utility.yul\":14405:14406   */\n      0x01\n        /* \"#utility.yul\":14399:14403   */\n      dup3\n        /* \"#utility.yul\":14395:14407   */\n      and\n        /* \"#utility.yul\":14426:14444   */\n      dup1\n        /* \"#utility.yul\":14416:14497   */\n      tag_347\n      jumpi\n        /* \"#utility.yul\":14482:14486   */\n      0x7f\n        /* \"#utility.yul\":14474:14480   */\n      dup3\n        /* \"#utility.yul\":14470:14487   */\n      and\n        /* \"#utility.yul\":14460:14487   */\n      swap2\n      pop\n        /* \"#utility.yul\":14416:14497   */\n    tag_347:\n        /* \"#utility.yul\":14544:14546   */\n      0x20\n        /* \"#utility.yul\":14536:14542   */\n      dup3\n        /* \"#utility.yul\":14533:14547   */\n      lt\n        /* \"#utility.yul\":14513:14531   */\n      dup2\n        /* \"#utility.yul\":14510:14548   */\n      eq\n        /* \"#utility.yul\":14507:14591   */\n      iszero\n      tag_348\n      jumpi\n        /* \"#utility.yul\":14563:14581   */\n      tag_349\n      tag_350\n      jump\t// in\n    tag_349:\n        /* \"#utility.yul\":14507:14591   */\n    tag_348:\n        /* \"#utility.yul\":14328:14597   */\n      pop\n        /* \"#utility.yul\":14277:14597   */\n      swap2\n      swap1\n      pop\n      jump\t// out\n        /* \"#utility.yul\":14603:14884   */\n    tag_351:\n        /* \"#utility.yul\":14686:14713   */\n      tag_353\n        /* \"#utility.yul\":14708:14712   */\n      dup3\n        /* \"#utility.yul\":14686:14713   */\n      tag_218\n      jump\t// in\n    tag_353:\n        /* \"#utility.yul\":14678:14684   */\n      dup2\n        /* \"#utility.yul\":14674:14714   */\n      add\n        /* \"#utility.yul\":14816:14822   */\n      dup2\n        /* \"#utility.yul\":14804:14814   */\n      dup2\n        /* \"#utility.yul\":14801:14823   */\n      lt\n        /* \"#utility.yul\":14780:14798   */\n      0xffffffffffffffff\n        /* \"#utility.yul\":14768:14778   */\n      dup3\n        /* \"#utility.yul\":14765:14799   */\n      gt\n        /* \"#utility.yul\":14762:14824   */\n      or\n        /* \"#utility.yul\":14759:14847   */\n      iszero\n      tag_354\n      jumpi\n        /* \"#utility.yul\":14827:14845   */\n      tag_355\n      tag_130\n      jump\t// in\n    tag_355:\n        /* \"#utility.yul\":14759:14847   */\n    tag_354:\n        /* \"#utility.yul\":14867:14877   */\n      dup1\n        /* \"#utility.yul\":14863:14865   */\n      0x40\n        /* \"#utility.yul\":14856:14878   */\n      mstore\n        /* \"#utility.yul\":14646:14884   */\n      pop\n        /* \"#utility.yul\":14603:14884   */\n      pop\n      pop\n      jump\t// out\n        /* \"#utility.yul\":14890:15123   */\n    tag_72:\n        /* \"#utility.yul\":14929:14932   */\n      0x00\n        /* \"#utility.yul\":14952:14976   */\n      tag_357\n        /* \"#utility.yul\":14970:14975   */\n      dup3\n        /* \"#utility.yul\":14952:14976   */\n      tag_270\n      jump\t// in\n    tag_357:\n        /* \"#utility.yul\":14943:14976   */\n      swap2\n      pop\n        /* \"#utility.yul\":14998:15064   */\n      0xffffffffffffffffffffffffffffffffffffffffffffffffffffffffffffffff\n        /* \"#utility.yul\":14991:14996   */\n      dup3\n        /* \"#utility.yul\":14988:15065   */\n      eq\n        /* \"#utility.yul\":14985:15088   */\n      iszero\n      tag_358\n      jumpi\n        /* \"#utility.yul\":15068:15086   */\n      tag_359\n      tag_330\n      jump\t// in\n    tag_359:\n        /* \"#utility.yul\":14985:15088   */\n    tag_358:\n        /* \"#utility.yul\":15115:15116   */\n      0x01\n        /* \"#utility.yul\":15108:15113   */\n      dup3\n        /* \"#utility.yul\":15104:15117   */\n      add\n        /* \"#utility.yul\":15097:15117   */\n      swap1\n      pop\n        /* \"#utility.yul\":14890:15123   */\n      swap2\n      swap1\n      pop\n      jump\t// out\n        /* \"#utility.yul\":15129:15229   */\n    tag_204:\n        /* \"#utility.yul\":15168:15175   */\n      0x00\n        /* \"#utility.yul\":15197:15223   */\n      tag_361\n        /* \"#utility.yul\":15217:15222   */\n      dup3\n        /* \"#utility.yul\":15197:15223   */\n      tag_362\n      jump\t// in\n    tag_361:\n        /* \"#utility.yul\":15186:15223   */\n      swap1\n      pop\n        /* \"#utility.yul\":15129:15229   */\n      swap2\n      swap1\n      pop\n      jump\t// out\n        /* \"#utility.yul\":15235:15329   */\n    tag_362:\n        /* \"#utility.yul\":15274:15281   */\n      0x00\n        /* \"#utility.yul\":15303:15323   */\n      tag_364\n        /* \"#utility.yul\":15317:15322   */\n      dup3\n        /* \"#utility.yul\":15303:15323   */\n      tag_365\n      jump\t// in\n    tag_364:\n        /* \"#utility.yul\":15292:15323   */\n      swap1\n      pop\n        /* \"#utility.yul\":15235:15329   */\n      swap2\n      swap1\n      pop\n      jump\t// out\n        /* \"#utility.yul\":15335:15414   */\n    tag_275:\n        /* \"#utility.yul\":15374:15381   */\n      0x00\n        /* \"#utility.yul\":15403:15408   */\n      dup2\n        /* \"#utility.yul\":15392:15408   */\n      swap1\n      pop\n        /* \"#utility.yul\":15335:15414   */\n      swap2\n      swap1\n      pop\n      jump\t// out\n        /* \"#utility.yul\":15420:15596   */\n    tag_110:\n        /* \"#utility.yul\":15452:15453   */\n      0x00\n        /* \"#utility.yul\":15469:15489   */\n      tag_368\n        /* \"#utility.yul\":15487:15488   */\n      dup3\n        /* \"#utility.yul\":15469:15489   */\n      tag_270\n      jump\t// in\n    tag_368:\n        /* \"#utility.yul\":15464:15489   */\n      swap2\n      pop\n        /* \"#utility.yul\":15503:15523   */\n      tag_369\n        /* \"#utility.yul\":15521:15522   */\n      dup4\n        /* \"#utility.yul\":15503:15523   */\n      tag_270\n      jump\t// in\n    tag_369:\n        /* \"#utility.yul\":15498:15523   */\n      swap3\n      pop\n        /* \"#utility.yul\":15542:15543   */\n      dup3\n        /* \"#utility.yul\":15532:15567   */\n      tag_370\n      jumpi\n        /* \"#utility.yul\":15547:15565   */\n      tag_371\n      tag_372\n      jump\t// in\n    tag_371:\n        /* \"#utility.yul\":15532:15567   */\n    tag_370:\n        /* \"#utility.yul\":15588:15589   */\n      dup3\n        /* \"#utility.yul\":15585:15586   */\n      dup3\n        /* \"#utility.yul\":15581:15590   */\n      mod\n        /* \"#utility.yul\":15576:15590   */\n      swap1\n      pop\n        /* \"#utility.yul\":15420:15596   */\n      swap3\n      swap2\n      pop\n      pop\n      jump\t// out\n        /* \"#utility.yul\":15602:15782   */\n    tag_330:\n        /* \"#utility.yul\":15650:15727   */\n      0x4e487b7100000000000000000000000000000000000000000000000000000000\n        /* \"#utility.yul\":15647:15648   */\n      0x00\n        /* \"#utility.yul\":15640:15728   */\n      mstore\n        /* \"#utility.yul\":15747:15751   */\n      0x11\n        /* \"#utility.yul\":15744:15745   */\n      0x04\n        /* \"#utility.yul\":15737:15752   */\n      mstore\n        /* \"#utility.yul\":15771:15775   */\n      0x24\n        /* \"#utility.yul\":15768:15769   */\n      0x00\n        /* \"#utility.yul\":15761:15776   */\n      revert\n        /* \"#utility.yul\":15788:15968   */\n    tag_372:\n        /* \"#utility.yul\":15836:15913   */\n      0x4e487b7100000000000000000000000000000000000000000000000000000000\n        /* \"#utility.yul\":15833:15834   */\n      0x00\n        /* \"#utility.yul\":15826:15914   */\n      mstore\n        /* \"#utility.yul\":15933:15937   */\n      0x12\n        /* \"#utility.yul\":15930:15931   */\n      0x04\n        /* \"#utility.yul\":15923:15938   */\n      mstore\n        /* \"#utility.yul\":15957:15961   */\n      0x24\n        /* \"#utility.yul\":15954:15955   */\n      0x00\n        /* \"#utility.yul\":15947:15962   */\n      revert\n        /* \"#utility.yul\":15974:16154   */\n    tag_350:\n        /* \"#utility.yul\":16022:16099   */\n      0x4e487b7100000000000000000000000000000000000000000000000000000000\n        /* \"#utility.yul\":16019:16020   */\n      0x00\n        /* \"#utility.yul\":16012:16100   */\n      mstore\n        /* \"#utility.yul\":16119:16123   */\n      0x22\n        /* \"#utility.yul\":16116:16117   */\n      0x04\n        /* \"#utility.yul\":16109:16124   */\n      mstore\n        /* \"#utility.yul\":16143:16147   */\n      0x24\n        /* \"#utility.yul\":16140:16141   */\n      0x00\n        /* \"#utility.yul\":16133:16148   */\n      revert\n        /* \"#utility.yul\":16160:16340   */\n    tag_134:\n        /* \"#utility.yul\":16208:16285   */\n      0x4e487b7100000000000000000000000000000000000000000000000000000000\n        /* \"#utility.yul\":16205:16206   */\n      0x00\n        /* \"#utility.yul\":16198:16286   */\n      mstore\n        /* \"#utility.yul\":16305:16309   */\n      0x32\n        /* \"#utility.yul\":16302:16303   */\n      0x04\n        /* \"#utility.yul\":16295:16310   */\n      mstore\n        /* \"#utility.yul\":16329:16333   */\n      0x24\n        /* \"#utility.yul\":16326:16327   */\n      0x00\n        /* \"#utility.yul\":16319:16334   */\n      revert\n        /* \"#utility.yul\":16346:16526   */\n    tag_130:\n        /* \"#utility.yul\":16394:16471   */\n      0x4e487b7100000000000000000000000000000000000000000000000000000000\n        /* \"#utility.yul\":16391:16392   */\n      0x00\n        /* \"#utility.yul\":16384:16472   */\n      mstore\n        /* \"#utility.yul\":16491:16495   */\n      0x41\n        /* \"#utility.yul\":16488:16489   */\n      0x04\n        /* \"#utility.yul\":16481:16496   */\n      mstore\n        /* \"#utility.yul\":16515:16519   */\n      0x24\n        /* \"#utility.yul\":16512:16513   */\n      0x00\n        /* \"#utility.yul\":16505:16520   */\n      revert\n        /* \"#utility.yul\":16532:16715   */\n    tag_151:\n        /* \"#utility.yul\":16567:16570   */\n      0x00\n        /* \"#utility.yul\":16605:16606   */\n      0x03\n        /* \"#utility.yul\":16587:16603   */\n      returndatasize\n        /* \"#utility.yul\":16584:16607   */\n      gt\n        /* \"#utility.yul\":16581:16709   */\n      iszero\n      tag_379\n      jumpi\n        /* \"#utility.yul\":16643:16644   */\n      0x04\n        /* \"#utility.yul\":16640:16641   */\n      0x00\n        /* \"#utility.yul\":16637:16638   */\n      dup1\n        /* \"#utility.yul\":16622:16645   */\n      returndatacopy\n        /* \"#utility.yul\":16665:16699   */\n      tag_380\n        /* \"#utility.yul\":16696:16697   */\n      0x00\n        /* \"#utility.yul\":16690:16698   */\n      mload\n        /* \"#utility.yul\":16665:16699   */\n      tag_381\n      jump\t// in\n    tag_380:\n        /* \"#utility.yul\":16658:16699   */\n      swap1\n      pop\n        /* \"#utility.yul\":16581:16709   */\n    tag_379:\n        /* \"#utility.yul\":16532:16715   */\n      swap1\n      jump\t// out\n        /* \"#utility.yul\":16844:16961   */\n    tag_186:\n        /* \"#utility.yul\":16953:16954   */\n      0x00\n        /* \"#utility.yul\":16950:16951   */\n      dup1\n        /* \"#utility.yul\":16943:16955   */\n      revert\n        /* \"#utility.yul\":16967:17069   */\n    tag_218:\n        /* \"#utility.yul\":17008:17014   */\n      0x00\n        /* \"#utility.yul\":17059:17061   */\n      0x1f\n        /* \"#utility.yul\":17055:17062   */\n      not\n        /* \"#utility.yul\":17050:17052   */\n      0x1f\n        /* \"#utility.yul\":17043:17048   */\n      dup4\n        /* \"#utility.yul\":17039:17053   */\n      add\n        /* \"#utility.yul\":17035:17063   */\n      and\n        /* \"#utility.yul\":17025:17063   */\n      swap1\n      pop\n        /* \"#utility.yul\":16967:17069   */\n      swap2\n      swap1\n      pop\n      jump\t// out\n        /* \"#utility.yul\":17075:17169   */\n    tag_365:\n        /* \"#utility.yul\":17108:17116   */\n      0x00\n        /* \"#utility.yul\":17156:17161   */\n      dup2\n        /* \"#utility.yul\":17152:17154   */\n      0x60\n        /* \"#utility.yul\":17148:17162   */\n      shl\n        /* \"#utility.yul\":17127:17162   */\n      swap1\n      pop\n        /* \"#utility.yul\":17075:17169   */\n      swap2\n      swap1\n      pop\n      jump\t// out\n        /* \"#utility.yul\":17175:17281   */\n    tag_381:\n        /* \"#utility.yul\":17219:17227   */\n      0x00\n        /* \"#utility.yul\":17268:17273   */\n      dup2\n        /* \"#utility.yul\":17263:17266   */\n      0xe0\n        /* \"#utility.yul\":17259:17274   */\n      shr\n        /* \"#utility.yul\":17238:17274   */\n      swap1\n      pop\n        /* \"#utility.yul\":17175:17281   */\n      swap2\n      swap1\n      pop\n      jump\t// out\n        /* \"#utility.yul\":17287:17526   */\n    tag_231:\n        /* \"#utility.yul\":17427:17461   */\n      0x455243313135353a207472616e7366657220746f206e6f6e2045524331313535\n        /* \"#utility.yul\":17423:17424   */\n      0x00\n        /* \"#utility.yul\":17415:17421   */\n      dup3\n        /* \"#utility.yul\":17411:17425   */\n      add\n        /* \"#utility.yul\":17404:17462   */\n      mstore\n        /* \"#utility.yul\":17496:17518   */\n      0x526563656976657220696d706c656d656e746572000000000000000000000000\n        /* \"#utility.yul\":17491:17493   */\n      0x20\n        /* \"#utility.yul\":17483:17489   */\n      dup3\n        /* \"#utility.yul\":17479:17494   */\n      add\n        /* \"#utility.yul\":17472:17519   */\n      mstore\n        /* \"#utility.yul\":17287:17526   */\n      pop\n      jump\t// out\n        /* \"#utility.yul\":17532:17759   */\n    tag_236:\n        /* \"#utility.yul\":17672:17706   */\n      0x455243313135353a204552433131353552656365697665722072656a65637465\n        /* \"#utility.yul\":17668:17669   */\n      0x00\n        /* \"#utility.yul\":17660:17666   */\n      dup3\n        /* \"#utility.yul\":17656:17670   */\n      add\n        /* \"#utility.yul\":17649:17707   */\n      mstore\n        /* \"#utility.yul\":17741:17751   */\n      0x6420746f6b656e73000000000000000000000000000000000000000000000000\n        /* \"#utility.yul\":17736:17738   */\n      0x20\n        /* \"#utility.yul\":17728:17734   */\n      dup3\n        /* \"#utility.yul\":17724:17739   */\n      add\n        /* \"#utility.yul\":17717:17752   */\n      mstore\n        /* \"#utility.yul\":17532:17759   */\n      pop\n      jump\t// out\n        /* \"#utility.yul\":17765:17942   */\n    tag_241:\n        /* \"#utility.yul\":17905:17934   */\n      0x44726f707369746520697320616c72656164792052756e6e696e670000000000\n        /* \"#utility.yul\":17901:17902   */\n      0x00\n        /* \"#utility.yul\":17893:17899   */\n      dup3\n        /* \"#utility.yul\":17889:17903   */\n      add\n        /* \"#utility.yul\":17882:17935   */\n      mstore\n        /* \"#utility.yul\":17765:17942   */\n      pop\n      jump\t// out\n        /* \"#utility.yul\":17948:18125   */\n    tag_246:\n        /* \"#utility.yul\":18088:18117   */\n      0x44726f707369746520697320616c72656164792053746f707065640000000000\n        /* \"#utility.yul\":18084:18085   */\n      0x00\n        /* \"#utility.yul\":18076:18082   */\n      dup3\n        /* \"#utility.yul\":18072:18086   */\n      add\n        /* \"#utility.yul\":18065:18118   */\n      mstore\n        /* \"#utility.yul\":17948:18125   */\n      pop\n      jump\t// out\n        /* \"#utility.yul\":18131:18305   */\n    tag_251:\n        /* \"#utility.yul\":18271:18297   */\n      0x4f6e79784e6674204f776e65722063616e204163636573730000000000000000\n        /* \"#utility.yul\":18267:18268   */\n      0x00\n        /* \"#utility.yul\":18259:18265   */\n      dup3\n        /* \"#utility.yul\":18255:18269   */\n      add\n        /* \"#utility.yul\":18248:18298   */\n      mstore\n        /* \"#utility.yul\":18131:18305   */\n      pop\n      jump\t// out\n        /* \"#utility.yul\":18311:18479   */\n    tag_256:\n        /* \"#utility.yul\":18451:18471   */\n      0x436f6e7472616374206973205061757365640000000000000000000000000000\n        /* \"#utility.yul\":18447:18448   */\n      0x00\n        /* \"#utility.yul\":18439:18445   */\n      dup3\n        /* \"#utility.yul\":18435:18449   */\n      add\n        /* \"#utility.yul\":18428:18472   */\n      mstore\n        /* \"#utility.yul\":18311:18479   */\n      pop\n      jump\t// out\n        /* \"#utility.yul\":18485:18660   */\n    tag_261:\n        /* \"#utility.yul\":18625:18652   */\n      0x4d6178204d696e74696e67204c696d6974207265616368656400000000000000\n        /* \"#utility.yul\":18621:18622   */\n      0x00\n        /* \"#utility.yul\":18613:18619   */\n      dup3\n        /* \"#utility.yul\":18609:18623   */\n      add\n        /* \"#utility.yul\":18602:18653   */\n      mstore\n        /* \"#utility.yul\":18485:18660   */\n      pop\n      jump\t// out\n        /* \"#utility.yul\":18666:18886   */\n    tag_266:\n        /* \"#utility.yul\":18806:18840   */\n      0x455243313135353a206d696e7420746f20746865207a65726f20616464726573\n        /* \"#utility.yul\":18802:18803   */\n      0x00\n        /* \"#utility.yul\":18794:18800   */\n      dup3\n        /* \"#utility.yul\":18790:18804   */\n      add\n        /* \"#utility.yul\":18783:18841   */\n      mstore\n        /* \"#utility.yul\":18875:18878   */\n      0x7300000000000000000000000000000000000000000000000000000000000000\n        /* \"#utility.yul\":18870:18872   */\n      0x20\n        /* \"#utility.yul\":18862:18868   */\n      dup3\n        /* \"#utility.yul\":18858:18873   */\n      add\n        /* \"#utility.yul\":18851:18879   */\n      mstore\n        /* \"#utility.yul\":18666:18886   */\n      pop\n      jump\t// out\n        /* \"#utility.yul\":18892:19603   */\n    tag_153:\n        /* \"#utility.yul\":18931:18934   */\n      0x00\n        /* \"#utility.yul\":18969:18973   */\n      0x44\n        /* \"#utility.yul\":18951:18967   */\n      returndatasize\n        /* \"#utility.yul\":18948:18974   */\n      lt\n        /* \"#utility.yul\":18945:18984   */\n      iszero\n      tag_397\n      jumpi\n        /* \"#utility.yul\":18977:18982   */\n      jump(tag_396)\n        /* \"#utility.yul\":18945:18984   */\n    tag_397:\n        /* \"#utility.yul\":19006:19026   */\n      tag_398\n      tag_319\n      jump\t// in\n    tag_398:\n        /* \"#utility.yul\":19081:19082   */\n      0x04\n        /* \"#utility.yul\":19063:19079   */\n      returndatasize\n        /* \"#utility.yul\":19059:19083   */\n      sub\n        /* \"#utility.yul\":19056:19057   */\n      0x04\n        /* \"#utility.yul\":19050:19054   */\n      dup3\n        /* \"#utility.yul\":19035:19084   */\n      returndatacopy\n        /* \"#utility.yul\":19114:19118   */\n      dup1\n        /* \"#utility.yul\":19108:19119   */\n      mload\n        /* \"#utility.yul\":19213:19229   */\n      returndatasize\n        /* \"#utility.yul\":19206:19210   */\n      0x24\n        /* \"#utility.yul\":19198:19204   */\n      dup3\n        /* \"#utility.yul\":19194:19211   */\n      add\n        /* \"#utility.yul\":19191:19230   */\n      gt\n        /* \"#utility.yul\":19158:19176   */\n      0xffffffffffffffff\n        /* \"#utility.yul\":19150:19156   */\n      dup3\n        /* \"#utility.yul\":19147:19177   */\n      gt\n        /* \"#utility.yul\":19131:19244   */\n      or\n        /* \"#utility.yul\":19128:19274   */\n      iszero\n      tag_399\n      jumpi\n        /* \"#utility.yul\":19259:19264   */\n      pop\n      pop\n      jump(tag_396)\n        /* \"#utility.yul\":19128:19274   */\n    tag_399:\n        /* \"#utility.yul\":19305:19311   */\n      dup1\n        /* \"#utility.yul\":19299:19303   */\n      dup3\n        /* \"#utility.yul\":19295:19312   */\n      add\n        /* \"#utility.yul\":19341:19344   */\n      dup1\n        /* \"#utility.yul\":19335:19345   */\n      mload\n        /* \"#utility.yul\":19368:19386   */\n      0xffffffffffffffff\n        /* \"#utility.yul\":19360:19366   */\n      dup2\n        /* \"#utility.yul\":19357:19387   */\n      gt\n        /* \"#utility.yul\":19354:19397   */\n      iszero\n      tag_400\n      jumpi\n        /* \"#utility.yul\":19390:19395   */\n      pop\n      pop\n      pop\n      pop\n      jump(tag_396)\n        /* \"#utility.yul\":19354:19397   */\n    tag_400:\n        /* \"#utility.yul\":19438:19444   */\n      dup1\n        /* \"#utility.yul\":19431:19435   */\n      0x20\n        /* \"#utility.yul\":19426:19429   */\n      dup4\n        /* \"#utility.yul\":19422:19436   */\n      add\n        /* \"#utility.yul\":19418:19445   */\n      add\n        /* \"#utility.yul\":19497:19498   */\n      0x04\n        /* \"#utility.yul\":19479:19495   */\n      returndatasize\n        /* \"#utility.yul\":19475:19499   */\n      sub\n        /* \"#utility.yul\":19469:19473   */\n      dup6\n        /* \"#utility.yul\":19465:19500   */\n      add\n        /* \"#utility.yul\":19460:19463   */\n      dup2\n        /* \"#utility.yul\":19457:19501   */\n      gt\n        /* \"#utility.yul\":19454:19511   */\n      iszero\n      tag_401\n      jumpi\n        /* \"#utility.yul\":19504:19509   */\n      pop\n      pop\n      pop\n      pop\n      pop\n      jump(tag_396)\n        /* \"#utility.yul\":19454:19511   */\n    tag_401:\n        /* \"#utility.yul\":19521:19578   */\n      tag_402\n        /* \"#utility.yul\":19569:19575   */\n      dup3\n        /* \"#utility.yul\":19563:19567   */\n      0x20\n        /* \"#utility.yul\":19559:19576   */\n      add\n        /* \"#utility.yul\":19551:19557   */\n      dup6\n        /* \"#utility.yul\":19547:19577   */\n      add\n        /* \"#utility.yul\":19541:19545   */\n      dup7\n        /* \"#utility.yul\":19521:19578   */\n      tag_351\n      jump\t// in\n    tag_402:\n        /* \"#utility.yul\":19594:19597   */\n      dup3\n        /* \"#utility.yul\":19587:19597   */\n      swap6\n      pop\n        /* \"#utility.yul\":18935:19603   */\n      pop\n      pop\n      pop\n      pop\n      pop\n        /* \"#utility.yul\":18892:19603   */\n    tag_396:\n      swap1\n      jump\t// out\n        /* \"#utility.yul\":19609:19731   */\n    tag_178:\n        /* \"#utility.yul\":19682:19706   */\n      tag_404\n        /* \"#utility.yul\":19700:19705   */\n      dup2\n        /* \"#utility.yul\":19682:19706   */\n      tag_199\n      jump\t// in\n    tag_404:\n        /* \"#utility.yul\":19675:19680   */\n      dup2\n        /* \"#utility.yul\":19672:19707   */\n      eq\n        /* \"#utility.yul\":19662:19725   */\n      tag_405\n      jumpi\n        /* \"#utility.yul\":19721:19722   */\n      0x00\n        /* \"#utility.yul\":19718:19719   */\n      dup1\n        /* \"#utility.yul\":19711:19723   */\n      revert\n        /* \"#utility.yul\":19662:19725   */\n    tag_405:\n        /* \"#utility.yul\":19609:19731   */\n      pop\n      jump\t// out\n        /* \"#utility.yul\":19737:19857   */\n    tag_182:\n        /* \"#utility.yul\":19809:19832   */\n      tag_407\n        /* \"#utility.yul\":19826:19831   */\n      dup2\n        /* \"#utility.yul\":19809:19832   */\n      tag_337\n      jump\t// in\n    tag_407:\n        /* \"#utility.yul\":19802:19807   */\n      dup2\n        /* \"#utility.yul\":19799:19833   */\n      eq\n        /* \"#utility.yul\":19789:19851   */\n      tag_408\n      jumpi\n        /* \"#utility.yul\":19847:19848   */\n      0x00\n        /* \"#utility.yul\":19844:19845   */\n      dup1\n        /* \"#utility.yul\":19837:19849   */\n      revert\n        /* \"#utility.yul\":19789:19851   */\n    tag_408:\n        /* \"#utility.yul\":19737:19857   */\n      pop\n      jump\t// out\n\n    auxdata: 0xa2646970667358221220afc8d6b51410fffd44e5070c618c21c27ae66cfff0d1108c82e5282ee2afc08864736f6c63430008070033\n}\n",
				"bytecode": {
					"linkReferences": {},
					"object": "608060405260405180602001604052806000815250600290805190602001906200002b92919062000103565b506001600a60006101000a81548160ff0219169083151502179055503480156200005457600080fd5b5060405162001d4938038062001d4983398181016040528101906200007a9190620002c2565b80600b90805190602001906200009292919062000194565b5033600a60016101000a81548173ffffffffffffffffffffffffffffffffffffffff021916908373ffffffffffffffffffffffffffffffffffffffff160217905550600060038190555060016004819055506000600581905550600060068190555060006007819055505062000497565b8280546200011190620003a8565b90600052602060002090601f01602090048101928262000135576000855562000181565b82601f106200015057805160ff191683800117855562000181565b8280016001018555821562000181579182015b828111156200018057825182559160200191906001019062000163565b5b50905062000190919062000225565b5090565b828054620001a290620003a8565b90600052602060002090601f016020900481019282620001c6576000855562000212565b82601f10620001e157805160ff191683800117855562000212565b8280016001018555821562000212579182015b8281111562000211578251825591602001919060010190620001f4565b5b50905062000221919062000225565b5090565b5b808211156200024057600081600090555060010162000226565b5090565b60006200025b62000255846200033c565b62000313565b9050828152602081018484840111156200027a576200027962000477565b5b6200028784828562000372565b509392505050565b600082601f830112620002a757620002a662000472565b5b8151620002b984826020860162000244565b91505092915050565b600060208284031215620002db57620002da62000481565b5b600082015167ffffffffffffffff811115620002fc57620002fb6200047c565b5b6200030a848285016200028f565b91505092915050565b60006200031f62000332565b90506200032d8282620003de565b919050565b6000604051905090565b600067ffffffffffffffff8211156200035a576200035962000443565b5b620003658262000486565b9050602081019050919050565b60005b838110156200039257808201518184015260208101905062000375565b83811115620003a2576000848401525b50505050565b60006002820490506001821680620003c157607f821691505b60208210811415620003d857620003d762000414565b5b50919050565b620003e98262000486565b810181811067ffffffffffffffff821117156200040b576200040a62000443565b5b80604052505050565b7f4e487b7100000000000000000000000000000000000000000000000000000000600052602260045260246000fd5b7f4e487b7100000000000000000000000000000000000000000000000000000000600052604160045260246000fd5b600080fd5b600080fd5b600080fd5b600080fd5b6000601f19601f8301169050919050565b6118a280620004a76000396000f3fe608060405234801561001057600080fd5b50600436106100885760003560e01c806397e96e861161005b57806397e96e86146100f3578063aa90c72614610124578063b4a99a4e1461012e578063d4c892c41461014c57610088565b80631309a5631461008d57806315460259146100ab578063322f0ece146100b557806360daa851146100d3575b600080fd5b61009561017c565b6040516100a2919061106d565b60405180910390f35b6100b361018f565b005b6100bd610299565b6040516100ca91906111aa565b60405180910390f35b6100db61029f565b6040516100ea9392919061121e565b60405180910390f35b61010d60048036038101906101089190610d7e565b61034f565b60405161011b9291906111c5565b60405180910390f35b61012c61070b565b005b610136610815565b6040516101439190610ff8565b60405180910390f35b61016660048036038101906101619190610d7e565b61083b565b60405161017391906111aa565b60405180910390f35b600a60009054906101000a900460ff1681565b600a60019054906101000a900473ffffffffffffffffffffffffffffffffffffffff1673ffffffffffffffffffffffffffffffffffffffff166101d0610853565b73ffffffffffffffffffffffffffffffffffffffff1614610226576040517f08c379a000000000000000000000000000000000000000000000000000000000815260040161021d9061112a565b60405180910390fd5b60011515600a60009054906101000a900460ff1615151461027c576040517f08c379a0000000000000000000000000000000000000000000000000000000008152600401610273906110ea565b60405180910390fd5b6000600a60006101000a81548160ff021916908315150217905550565b60035481565b6000806000600a60019054906101000a900473ffffffffffffffffffffffffffffffffffffffff1673ffffffffffffffffffffffffffffffffffffffff166102e5610853565b73ffffffffffffffffffffffffffffffffffffffff161461033b576040517f08c379a00000000000000000000000000000000000000000000000000000000081526004016103329061112a565b60405180910390fd5b600554600654600754925092509250909192565b6000606060001515600a60009054906101000a900460ff161515146103a9576040517f08c379a00000000000000000000000000000000000000000000000000000000081526004016103a09061114a565b60405180910390fd5b6103e8600354106103ef576040517f08c379a00000000000000000000000000000000000000000000000000000000081526004016103e69061116a565b60405180910390fd5b60006103f961085b565b905060008114801561040d57506096600554105b1561047b576040518060400160405280600881526020017f506c6174696e756d0000000000000000000000000000000000000000000000008152506002908051906020019061045d929190610cb1565b506005600081548092919061047190611409565b919050555061057e565b6001811115801561048f575061015e600654105b156104fd576040518060400160405280600481526020017f476f6c6400000000000000000000000000000000000000000000000000000000815250600290805190602001906104df929190610cb1565b50600660008154809291906104f390611409565b919050555061057d565b6002811115801561051257506101f460075411155b1561057c576040518060400160405280600681526020017f53696c766572000000000000000000000000000000000000000000000000000081525060029080519060200190610562929190610cb1565b506007600081548092919061057690611409565b91905055505b5b5b610616848260045460028054610593906113a6565b80601f01602080910402602001604051908101604052809291908181526020018280546105bf906113a6565b801561060c5780601f106105e15761010080835404028352916020019161060c565b820191906000526020600020905b8154815290600101906020018083116105ef57829003601f168201915b505050505061089f565b6003600081548092919061062990611409565b919050555080600860008673ffffffffffffffffffffffffffffffffffffffff1673ffffffffffffffffffffffffffffffffffffffff16815260200190815260200160002081905550806002808054610681906113a6565b80601f01602080910402602001604051908101604052809291908181526020018280546106ad906113a6565b80156106fa5780601f106106cf576101008083540402835291602001916106fa565b820191906000526020600020905b8154815290600101906020018083116106dd57829003601f168201915b505050505090509250925050915091565b600a60019054906101000a900473ffffffffffffffffffffffffffffffffffffffff1673ffffffffffffffffffffffffffffffffffffffff1661074c610853565b73ffffffffffffffffffffffffffffffffffffffff16146107a2576040517f08c379a00000000000000000000000000000000000000000000000000000000081526004016107999061112a565b60405180910390fd5b60001515600a60009054906101000a900460ff161515146107f8576040517f08c379a00000000000000000000000000000000000000000000000000000000081526004016107ef9061110a565b60405180910390fd5b6001600a60006101000a81548160ff021916908315150217905550565b600a60019054906101000a900473ffffffffffffffffffffffffffffffffffffffff1681565b60086020528060005260406000206000915090505481565b600033905090565b60008060034233604051602001610873929190610fcc565b6040516020818303038152906040528051906020012060001c6108969190611480565b90508091505090565b600073ffffffffffffffffffffffffffffffffffffffff168473ffffffffffffffffffffffffffffffffffffffff16141561090f576040517f08c379a00000000000000000000000000000000000000000000000000000000081526004016109069061118a565b60405180910390fd5b6000610919610853565b905061093a8160008761092b88610a35565b61093488610a35565b87610aaf565b8260008086815260200190815260200160002060008773ffffffffffffffffffffffffffffffffffffffff1673ffffffffffffffffffffffffffffffffffffffff16815260200190815260200160002060008282546109999190611297565b925050819055508473ffffffffffffffffffffffffffffffffffffffff16600073ffffffffffffffffffffffffffffffffffffffff168273ffffffffffffffffffffffffffffffffffffffff167fc3d58168c5ae7397731d063d5bbf3d657854427343f4c083240f7aacaa2d0f628787604051610a179291906111f5565b60405180910390a4610a2e81600087878787610ab7565b5050505050565b60606000600167ffffffffffffffff811115610a5457610a5361156d565b5b604051908082528060200260200182016040528015610a825781602001602082028036833780820191505090505b5090508281600081518110610a9a57610a9961153e565b5b60200260200101818152505080915050919050565b505050505050565b610ad68473ffffffffffffffffffffffffffffffffffffffff16610c9e565b15610c96578373ffffffffffffffffffffffffffffffffffffffff1663f23a6e6187878686866040518663ffffffff1660e01b8152600401610b1c959493929190611013565b602060405180830381600087803b158015610b3657600080fd5b505af1925050508015610b6757506040513d601f19601f82011682018060405250810190610b649190610dab565b60015b610c0d57610b7361159c565b806308c379a01415610bd05750610b886117a8565b80610b935750610bd2565b806040517f08c379a0000000000000000000000000000000000000000000000000000000008152600401610bc79190611088565b60405180910390fd5b505b6040517f08c379a0000000000000000000000000000000000000000000000000000000008152600401610c04906110aa565b60405180910390fd5b63f23a6e6160e01b7bffffffffffffffffffffffffffffffffffffffffffffffffffffffff1916817bffffffffffffffffffffffffffffffffffffffffffffffffffffffff191614610c94576040517f08c379a0000000000000000000000000000000000000000000000000000000008152600401610c8b906110ca565b60405180910390fd5b505b505050505050565b600080823b905060008111915050919050565b828054610cbd906113a6565b90600052602060002090601f016020900481019282610cdf5760008555610d26565b82601f10610cf857805160ff1916838001178555610d26565b82800160010185558215610d26579182015b82811115610d25578251825591602001919060010190610d0a565b5b509050610d339190610d37565b5090565b5b80821115610d50576000816000905550600101610d38565b5090565b600081359050610d638161183e565b92915050565b600081519050610d7881611855565b92915050565b600060208284031215610d9457610d936115be565b5b6000610da284828501610d54565b91505092915050565b600060208284031215610dc157610dc06115be565b5b6000610dcf84828501610d69565b91505092915050565b610de1816112ff565b82525050565b610df0816112ed565b82525050565b610e07610e02826112ed565b611452565b82525050565b610e1681611311565b82525050565b6000610e278261125f565b610e318185611275565b9350610e41818560208601611373565b610e4a816115c3565b840191505092915050565b6000610e608261126a565b610e6a8185611286565b9350610e7a818560208601611373565b610e83816115c3565b840191505092915050565b6000610e9b603483611286565b9150610ea6826115ee565b604082019050919050565b6000610ebe602883611286565b9150610ec98261163d565b604082019050919050565b6000610ee1601b83611286565b9150610eec8261168c565b602082019050919050565b6000610f04601b83611286565b9150610f0f826116b5565b602082019050919050565b6000610f27601883611286565b9150610f32826116de565b602082019050919050565b6000610f4a601283611286565b9150610f5582611707565b602082019050919050565b6000610f6d601983611286565b9150610f7882611730565b602082019050919050565b6000610f90602183611286565b9150610f9b82611759565b604082019050919050565b610faf81611369565b82525050565b610fc6610fc182611369565b611476565b82525050565b6000610fd88285610fb5565b602082019150610fe88284610df6565b6014820191508190509392505050565b600060208201905061100d6000830184610dd8565b92915050565b600060a0820190506110286000830188610de7565b6110356020830187610de7565b6110426040830186610fa6565b61104f6060830185610fa6565b81810360808301526110618184610e1c565b90509695505050505050565b60006020820190506110826000830184610e0d565b92915050565b600060208201905081810360008301526110a28184610e55565b905092915050565b600060208201905081810360008301526110c381610e8e565b9050919050565b600060208201905081810360008301526110e381610eb1565b9050919050565b6000602082019050818103600083015261110381610ed4565b9050919050565b6000602082019050818103600083015261112381610ef7565b9050919050565b6000602082019050818103600083015261114381610f1a565b9050919050565b6000602082019050818103600083015261116381610f3d565b9050919050565b6000602082019050818103600083015261118381610f60565b9050919050565b600060208201905081810360008301526111a381610f83565b9050919050565b60006020820190506111bf6000830184610fa6565b92915050565b60006040820190506111da6000830185610fa6565b81810360208301526111ec8184610e55565b90509392505050565b600060408201905061120a6000830185610fa6565b6112176020830184610fa6565b9392505050565b60006060820190506112336000830186610fa6565b6112406020830185610fa6565b61124d6040830184610fa6565b949350505050565b6000604051905090565b600081519050919050565b600081519050919050565b600082825260208201905092915050565b600082825260208201905092915050565b60006112a282611369565b91506112ad83611369565b9250827fffffffffffffffffffffffffffffffffffffffffffffffffffffffffffffffff038211156112e2576112e16114b1565b5b828201905092915050565b60006112f882611349565b9050919050565b600061130a82611349565b9050919050565b60008115159050919050565b60007fffffffff0000000000000000000000000000000000000000000000000000000082169050919050565b600073ffffffffffffffffffffffffffffffffffffffff82169050919050565b6000819050919050565b60005b83811015611391578082015181840152602081019050611376565b838111156113a0576000848401525b50505050565b600060028204905060018216806113be57607f821691505b602082108114156113d2576113d161150f565b5b50919050565b6113e1826115c3565b810181811067ffffffffffffffff82111715611400576113ff61156d565b5b80604052505050565b600061141482611369565b91507fffffffffffffffffffffffffffffffffffffffffffffffffffffffffffffffff821415611447576114466114b1565b5b600182019050919050565b600061145d82611464565b9050919050565b600061146f826115d4565b9050919050565b6000819050919050565b600061148b82611369565b915061149683611369565b9250826114a6576114a56114e0565b5b828206905092915050565b7f4e487b7100000000000000000000000000000000000000000000000000000000600052601160045260246000fd5b7f4e487b7100000000000000000000000000000000000000000000000000000000600052601260045260246000fd5b7f4e487b7100000000000000000000000000000000000000000000000000000000600052602260045260246000fd5b7f4e487b7100000000000000000000000000000000000000000000000000000000600052603260045260246000fd5b7f4e487b7100000000000000000000000000000000000000000000000000000000600052604160045260246000fd5b600060033d11156115bb5760046000803e6115b86000516115e1565b90505b90565b600080fd5b6000601f19601f8301169050919050565b60008160601b9050919050565b60008160e01c9050919050565b7f455243313135353a207472616e7366657220746f206e6f6e204552433131353560008201527f526563656976657220696d706c656d656e746572000000000000000000000000602082015250565b7f455243313135353a204552433131353552656365697665722072656a6563746560008201527f6420746f6b656e73000000000000000000000000000000000000000000000000602082015250565b7f44726f707369746520697320616c72656164792052756e6e696e670000000000600082015250565b7f44726f707369746520697320616c72656164792053746f707065640000000000600082015250565b7f4f6e79784e6674204f776e65722063616e204163636573730000000000000000600082015250565b7f436f6e7472616374206973205061757365640000000000000000000000000000600082015250565b7f4d6178204d696e74696e67204c696d6974207265616368656400000000000000600082015250565b7f455243313135353a206d696e7420746f20746865207a65726f2061646472657360008201527f7300000000000000000000000000000000000000000000000000000000000000602082015250565b600060443d10156117b85761183b565b6117c0611255565b60043d036004823e80513d602482011167ffffffffffffffff821117156117e857505061183b565b808201805167ffffffffffffffff811115611806575050505061183b565b80602083010160043d03850181111561182357505050505061183b565b611832826020018501866113d8565b82955050505050505b90565b611847816112ed565b811461185257600080fd5b50565b61185e8161131d565b811461186957600080fd5b5056fea2646970667358221220afc8d6b51410fffd44e5070c618c21c27ae66cfff0d1108c82e5282ee2afc08864736f6c63430008070033",
					"opcodes": "PUSH1 0x80 PUSH1 0x40 MSTORE PUSH1 0x40 MLOAD DUP1 PUSH1 0x20 ADD PUSH1 0x40 MSTORE DUP1 PUSH1 0x0 DUP2 MSTORE POP PUSH1 0x2 SWAP1 DUP1 MLOAD SWAP1 PUSH1 0x20 ADD SWAP1 PUSH3 0x2B SWAP3 SWAP2 SWAP1 PUSH3 0x103 JUMP JUMPDEST POP PUSH1 0x1 PUSH1 0xA PUSH1 0x0 PUSH2 0x100 EXP DUP2 SLOAD DUP2 PUSH1 0xFF MUL NOT AND SWAP1 DUP4 ISZERO ISZERO MUL OR SWAP1 SSTORE POP CALLVALUE DUP1 ISZERO PUSH3 0x54 JUMPI PUSH1 0x0 DUP1 REVERT JUMPDEST POP PUSH1 0x40 MLOAD PUSH3 0x1D49 CODESIZE SUB DUP1 PUSH3 0x1D49 DUP4 CODECOPY DUP2 DUP2 ADD PUSH1 0x40 MSTORE DUP2 ADD SWAP1 PUSH3 0x7A SWAP2 SWAP1 PUSH3 0x2C2 JUMP JUMPDEST DUP1 PUSH1 0xB SWAP1 DUP1 MLOAD SWAP1 PUSH1 0x20 ADD SWAP1 PUSH3 0x92 SWAP3 SWAP2 SWAP1 PUSH3 0x194 JUMP JUMPDEST POP CALLER PUSH1 0xA PUSH1 0x1 PUSH2 0x100 EXP DUP2 SLOAD DUP2 PUSH20 0xFFFFFFFFFFFFFFFFFFFFFFFFFFFFFFFFFFFFFFFF MUL NOT AND SWAP1 DUP4 PUSH20 0xFFFFFFFFFFFFFFFFFFFFFFFFFFFFFFFFFFFFFFFF AND MUL OR SWAP1 SSTORE POP PUSH1 0x0 PUSH1 0x3 DUP2 SWAP1 SSTORE POP PUSH1 0x1 PUSH1 0x4 DUP2 SWAP1 SSTORE POP PUSH1 0x0 PUSH1 0x5 DUP2 SWAP1 SSTORE POP PUSH1 0x0 PUSH1 0x6 DUP2 SWAP1 SSTORE POP PUSH1 0x0 PUSH1 0x7 DUP2 SWAP1 SSTORE POP POP PUSH3 0x497 JUMP JUMPDEST DUP3 DUP1 SLOAD PUSH3 0x111 SWAP1 PUSH3 0x3A8 JUMP JUMPDEST SWAP1 PUSH1 0x0 MSTORE PUSH1 0x20 PUSH1 0x0 KECCAK256 SWAP1 PUSH1 0x1F ADD PUSH1 0x20 SWAP1 DIV DUP2 ADD SWAP3 DUP3 PUSH3 0x135 JUMPI PUSH1 0x0 DUP6 SSTORE PUSH3 0x181 JUMP JUMPDEST DUP3 PUSH1 0x1F LT PUSH3 0x150 JUMPI DUP1 MLOAD PUSH1 0xFF NOT AND DUP4 DUP1 ADD OR DUP6 SSTORE PUSH3 0x181 JUMP JUMPDEST DUP3 DUP1 ADD PUSH1 0x1 ADD DUP6 SSTORE DUP3 ISZERO PUSH3 0x181 JUMPI SWAP2 DUP3 ADD JUMPDEST DUP3 DUP2 GT ISZERO PUSH3 0x180 JUMPI DUP3 MLOAD DUP3 SSTORE SWAP2 PUSH1 0x20 ADD SWAP2 SWAP1 PUSH1 0x1 ADD SWAP1 PUSH3 0x163 JUMP JUMPDEST JUMPDEST POP SWAP1 POP PUSH3 0x190 SWAP2 SWAP1 PUSH3 0x225 JUMP JUMPDEST POP SWAP1 JUMP JUMPDEST DUP3 DUP1 SLOAD PUSH3 0x1A2 SWAP1 PUSH3 0x3A8 JUMP JUMPDEST SWAP1 PUSH1 0x0 MSTORE PUSH1 0x20 PUSH1 0x0 KECCAK256 SWAP1 PUSH1 0x1F ADD PUSH1 0x20 SWAP1 DIV DUP2 ADD SWAP3 DUP3 PUSH3 0x1C6 JUMPI PUSH1 0x0 DUP6 SSTORE PUSH3 0x212 JUMP JUMPDEST DUP3 PUSH1 0x1F LT PUSH3 0x1E1 JUMPI DUP1 MLOAD PUSH1 0xFF NOT AND DUP4 DUP1 ADD OR DUP6 SSTORE PUSH3 0x212 JUMP JUMPDEST DUP3 DUP1 ADD PUSH1 0x1 ADD DUP6 SSTORE DUP3 ISZERO PUSH3 0x212 JUMPI SWAP2 DUP3 ADD JUMPDEST DUP3 DUP2 GT ISZERO PUSH3 0x211 JUMPI DUP3 MLOAD DUP3 SSTORE SWAP2 PUSH1 0x20 ADD SWAP2 SWAP1 PUSH1 0x1 ADD SWAP1 PUSH3 0x1F4 JUMP JUMPDEST JUMPDEST POP SWAP1 POP PUSH3 0x221 SWAP2 SWAP1 PUSH3 0x225 JUMP JUMPDEST POP SWAP1 JUMP JUMPDEST JUMPDEST DUP1 DUP3 GT ISZERO PUSH3 0x240 JUMPI PUSH1 0x0 DUP2 PUSH1 0x0 SWAP1 SSTORE POP PUSH1 0x1 ADD PUSH3 0x226 JUMP JUMPDEST POP SWAP1 JUMP JUMPDEST PUSH1 0x0 PUSH3 0x25B PUSH3 0x255 DUP5 PUSH3 0x33C JUMP JUMPDEST PUSH3 0x313 JUMP JUMPDEST SWAP1 POP DUP3 DUP2 MSTORE PUSH1 0x20 DUP2 ADD DUP5 DUP5 DUP5 ADD GT ISZERO PUSH3 0x27A JUMPI PUSH3 0x279 PUSH3 0x477 JUMP JUMPDEST JUMPDEST PUSH3 0x287 DUP5 DUP3 DUP6 PUSH3 0x372 JUMP JUMPDEST POP SWAP4 SWAP3 POP POP POP JUMP JUMPDEST PUSH1 0x0 DUP3 PUSH1 0x1F DUP4 ADD SLT PUSH3 0x2A7 JUMPI PUSH3 0x2A6 PUSH3 0x472 JUMP JUMPDEST JUMPDEST DUP2 MLOAD PUSH3 0x2B9 DUP5 DUP3 PUSH1 0x20 DUP7 ADD PUSH3 0x244 JUMP JUMPDEST SWAP2 POP POP SWAP3 SWAP2 POP POP JUMP JUMPDEST PUSH1 0x0 PUSH1 0x20 DUP3 DUP5 SUB SLT ISZERO PUSH3 0x2DB JUMPI PUSH3 0x2DA PUSH3 0x481 JUMP JUMPDEST JUMPDEST PUSH1 0x0 DUP3 ADD MLOAD PUSH8 0xFFFFFFFFFFFFFFFF DUP2 GT ISZERO PUSH3 0x2FC JUMPI PUSH3 0x2FB PUSH3 0x47C JUMP JUMPDEST JUMPDEST PUSH3 0x30A DUP5 DUP3 DUP6 ADD PUSH3 0x28F JUMP JUMPDEST SWAP2 POP POP SWAP3 SWAP2 POP POP JUMP JUMPDEST PUSH1 0x0 PUSH3 0x31F PUSH3 0x332 JUMP JUMPDEST SWAP1 POP PUSH3 0x32D DUP3 DUP3 PUSH3 0x3DE JUMP JUMPDEST SWAP2 SWAP1 POP JUMP JUMPDEST PUSH1 0x0 PUSH1 0x40 MLOAD SWAP1 POP SWAP1 JUMP JUMPDEST PUSH1 0x0 PUSH8 0xFFFFFFFFFFFFFFFF DUP3 GT ISZERO PUSH3 0x35A JUMPI PUSH3 0x359 PUSH3 0x443 JUMP JUMPDEST JUMPDEST PUSH3 0x365 DUP3 PUSH3 0x486 JUMP JUMPDEST SWAP1 POP PUSH1 0x20 DUP2 ADD SWAP1 POP SWAP2 SWAP1 POP JUMP JUMPDEST PUSH1 0x0 JUMPDEST DUP4 DUP2 LT ISZERO PUSH3 0x392 JUMPI DUP1 DUP3 ADD MLOAD DUP2 DUP5 ADD MSTORE PUSH1 0x20 DUP2 ADD SWAP1 POP PUSH3 0x375 JUMP JUMPDEST DUP4 DUP2 GT ISZERO PUSH3 0x3A2 JUMPI PUSH1 0x0 DUP5 DUP5 ADD MSTORE JUMPDEST POP POP POP POP JUMP JUMPDEST PUSH1 0x0 PUSH1 0x2 DUP3 DIV SWAP1 POP PUSH1 0x1 DUP3 AND DUP1 PUSH3 0x3C1 JUMPI PUSH1 0x7F DUP3 AND SWAP2 POP JUMPDEST PUSH1 0x20 DUP3 LT DUP2 EQ ISZERO PUSH3 0x3D8 JUMPI PUSH3 0x3D7 PUSH3 0x414 JUMP JUMPDEST JUMPDEST POP SWAP2 SWAP1 POP JUMP JUMPDEST PUSH3 0x3E9 DUP3 PUSH3 0x486 JUMP JUMPDEST DUP2 ADD DUP2 DUP2 LT PUSH8 0xFFFFFFFFFFFFFFFF DUP3 GT OR ISZERO PUSH3 0x40B JUMPI PUSH3 0x40A PUSH3 0x443 JUMP JUMPDEST JUMPDEST DUP1 PUSH1 0x40 MSTORE POP POP POP JUMP JUMPDEST PUSH32 0x4E487B7100000000000000000000000000000000000000000000000000000000 PUSH1 0x0 MSTORE PUSH1 0x22 PUSH1 0x4 MSTORE PUSH1 0x24 PUSH1 0x0 REVERT JUMPDEST PUSH32 0x4E487B7100000000000000000000000000000000000000000000000000000000 PUSH1 0x0 MSTORE PUSH1 0x41 PUSH1 0x4 MSTORE PUSH1 0x24 PUSH1 0x0 REVERT JUMPDEST PUSH1 0x0 DUP1 REVERT JUMPDEST PUSH1 0x0 DUP1 REVERT JUMPDEST PUSH1 0x0 DUP1 REVERT JUMPDEST PUSH1 0x0 DUP1 REVERT JUMPDEST PUSH1 0x0 PUSH1 0x1F NOT PUSH1 0x1F DUP4 ADD AND SWAP1 POP SWAP2 SWAP1 POP JUMP JUMPDEST PUSH2 0x18A2 DUP1 PUSH3 0x4A7 PUSH1 0x0 CODECOPY PUSH1 0x0 RETURN INVALID PUSH1 0x80 PUSH1 0x40 MSTORE CALLVALUE DUP1 ISZERO PUSH2 0x10 JUMPI PUSH1 0x0 DUP1 REVERT JUMPDEST POP PUSH1 0x4 CALLDATASIZE LT PUSH2 0x88 JUMPI PUSH1 0x0 CALLDATALOAD PUSH1 0xE0 SHR DUP1 PUSH4 0x97E96E86 GT PUSH2 0x5B JUMPI DUP1 PUSH4 0x97E96E86 EQ PUSH2 0xF3 JUMPI DUP1 PUSH4 0xAA90C726 EQ PUSH2 0x124 JUMPI DUP1 PUSH4 0xB4A99A4E EQ PUSH2 0x12E JUMPI DUP1 PUSH4 0xD4C892C4 EQ PUSH2 0x14C JUMPI PUSH2 0x88 JUMP JUMPDEST DUP1 PUSH4 0x1309A563 EQ PUSH2 0x8D JUMPI DUP1 PUSH4 0x15460259 EQ PUSH2 0xAB JUMPI DUP1 PUSH4 0x322F0ECE EQ PUSH2 0xB5 JUMPI DUP1 PUSH4 0x60DAA851 EQ PUSH2 0xD3 JUMPI JUMPDEST PUSH1 0x0 DUP1 REVERT JUMPDEST PUSH2 0x95 PUSH2 0x17C JUMP JUMPDEST PUSH1 0x40 MLOAD PUSH2 0xA2 SWAP2 SWAP1 PUSH2 0x106D JUMP JUMPDEST PUSH1 0x40 MLOAD DUP1 SWAP2 SUB SWAP1 RETURN JUMPDEST PUSH2 0xB3 PUSH2 0x18F JUMP JUMPDEST STOP JUMPDEST PUSH2 0xBD PUSH2 0x299 JUMP JUMPDEST PUSH1 0x40 MLOAD PUSH2 0xCA SWAP2 SWAP1 PUSH2 0x11AA JUMP JUMPDEST PUSH1 0x40 MLOAD DUP1 SWAP2 SUB SWAP1 RETURN JUMPDEST PUSH2 0xDB PUSH2 0x29F JUMP JUMPDEST PUSH1 0x40 MLOAD PUSH2 0xEA SWAP4 SWAP3 SWAP2 SWAP1 PUSH2 0x121E JUMP JUMPDEST PUSH1 0x40 MLOAD DUP1 SWAP2 SUB SWAP1 RETURN JUMPDEST PUSH2 0x10D PUSH1 0x4 DUP1 CALLDATASIZE SUB DUP2 ADD SWAP1 PUSH2 0x108 SWAP2 SWAP1 PUSH2 0xD7E JUMP JUMPDEST PUSH2 0x34F JUMP JUMPDEST PUSH1 0x40 MLOAD PUSH2 0x11B SWAP3 SWAP2 SWAP1 PUSH2 0x11C5 JUMP JUMPDEST PUSH1 0x40 MLOAD DUP1 SWAP2 SUB SWAP1 RETURN JUMPDEST PUSH2 0x12C PUSH2 0x70B JUMP JUMPDEST STOP JUMPDEST PUSH2 0x136 PUSH2 0x815 JUMP JUMPDEST PUSH1 0x40 MLOAD PUSH2 0x143 SWAP2 SWAP1 PUSH2 0xFF8 JUMP JUMPDEST PUSH1 0x40 MLOAD DUP1 SWAP2 SUB SWAP1 RETURN JUMPDEST PUSH2 0x166 PUSH1 0x4 DUP1 CALLDATASIZE SUB DUP2 ADD SWAP1 PUSH2 0x161 SWAP2 SWAP1 PUSH2 0xD7E JUMP JUMPDEST PUSH2 0x83B JUMP JUMPDEST PUSH1 0x40 MLOAD PUSH2 0x173 SWAP2 SWAP1 PUSH2 0x11AA JUMP JUMPDEST PUSH1 0x40 MLOAD DUP1 SWAP2 SUB SWAP1 RETURN JUMPDEST PUSH1 0xA PUSH1 0x0 SWAP1 SLOAD SWAP1 PUSH2 0x100 EXP SWAP1 DIV PUSH1 0xFF AND DUP2 JUMP JUMPDEST PUSH1 0xA PUSH1 0x1 SWAP1 SLOAD SWAP1 PUSH2 0x100 EXP SWAP1 DIV PUSH20 0xFFFFFFFFFFFFFFFFFFFFFFFFFFFFFFFFFFFFFFFF AND PUSH20 0xFFFFFFFFFFFFFFFFFFFFFFFFFFFFFFFFFFFFFFFF AND PUSH2 0x1D0 PUSH2 0x853 JUMP JUMPDEST PUSH20 0xFFFFFFFFFFFFFFFFFFFFFFFFFFFFFFFFFFFFFFFF AND EQ PUSH2 0x226 JUMPI PUSH1 0x40 MLOAD PUSH32 0x8C379A000000000000000000000000000000000000000000000000000000000 DUP2 MSTORE PUSH1 0x4 ADD PUSH2 0x21D SWAP1 PUSH2 0x112A JUMP JUMPDEST PUSH1 0x40 MLOAD DUP1 SWAP2 SUB SWAP1 REVERT JUMPDEST PUSH1 0x1 ISZERO ISZERO PUSH1 0xA PUSH1 0x0 SWAP1 SLOAD SWAP1 PUSH2 0x100 EXP SWAP1 DIV PUSH1 0xFF AND ISZERO ISZERO EQ PUSH2 0x27C JUMPI PUSH1 0x40 MLOAD PUSH32 0x8C379A000000000000000000000000000000000000000000000000000000000 DUP2 MSTORE PUSH1 0x4 ADD PUSH2 0x273 SWAP1 PUSH2 0x10EA JUMP JUMPDEST PUSH1 0x40 MLOAD DUP1 SWAP2 SUB SWAP1 REVERT JUMPDEST PUSH1 0x0 PUSH1 0xA PUSH1 0x0 PUSH2 0x100 EXP DUP2 SLOAD DUP2 PUSH1 0xFF MUL NOT AND SWAP1 DUP4 ISZERO ISZERO MUL OR SWAP1 SSTORE POP JUMP JUMPDEST PUSH1 0x3 SLOAD DUP2 JUMP JUMPDEST PUSH1 0x0 DUP1 PUSH1 0x0 PUSH1 0xA PUSH1 0x1 SWAP1 SLOAD SWAP1 PUSH2 0x100 EXP SWAP1 DIV PUSH20 0xFFFFFFFFFFFFFFFFFFFFFFFFFFFFFFFFFFFFFFFF AND PUSH20 0xFFFFFFFFFFFFFFFFFFFFFFFFFFFFFFFFFFFFFFFF AND PUSH2 0x2E5 PUSH2 0x853 JUMP JUMPDEST PUSH20 0xFFFFFFFFFFFFFFFFFFFFFFFFFFFFFFFFFFFFFFFF AND EQ PUSH2 0x33B JUMPI PUSH1 0x40 MLOAD PUSH32 0x8C379A000000000000000000000000000000000000000000000000000000000 DUP2 MSTORE PUSH1 0x4 ADD PUSH2 0x332 SWAP1 PUSH2 0x112A JUMP JUMPDEST PUSH1 0x40 MLOAD DUP1 SWAP2 SUB SWAP1 REVERT JUMPDEST PUSH1 0x5 SLOAD PUSH1 0x6 SLOAD PUSH1 0x7 SLOAD SWAP3 POP SWAP3 POP SWAP3 POP SWAP1 SWAP2 SWAP3 JUMP JUMPDEST PUSH1 0x0 PUSH1 0x60 PUSH1 0x0 ISZERO ISZERO PUSH1 0xA PUSH1 0x0 SWAP1 SLOAD SWAP1 PUSH2 0x100 EXP SWAP1 DIV PUSH1 0xFF AND ISZERO ISZERO EQ PUSH2 0x3A9 JUMPI PUSH1 0x40 MLOAD PUSH32 0x8C379A000000000000000000000000000000000000000000000000000000000 DUP2 MSTORE PUSH1 0x4 ADD PUSH2 0x3A0 SWAP1 PUSH2 0x114A JUMP JUMPDEST PUSH1 0x40 MLOAD DUP1 SWAP2 SUB SWAP1 REVERT JUMPDEST PUSH2 0x3E8 PUSH1 0x3 SLOAD LT PUSH2 0x3EF JUMPI PUSH1 0x40 MLOAD PUSH32 0x8C379A000000000000000000000000000000000000000000000000000000000 DUP2 MSTORE PUSH1 0x4 ADD PUSH2 0x3E6 SWAP1 PUSH2 0x116A JUMP JUMPDEST PUSH1 0x40 MLOAD DUP1 SWAP2 SUB SWAP1 REVERT JUMPDEST PUSH1 0x0 PUSH2 0x3F9 PUSH2 0x85B JUMP JUMPDEST SWAP1 POP PUSH1 0x0 DUP2 EQ DUP1 ISZERO PUSH2 0x40D JUMPI POP PUSH1 0x96 PUSH1 0x5 SLOAD LT JUMPDEST ISZERO PUSH2 0x47B JUMPI PUSH1 0x40 MLOAD DUP1 PUSH1 0x40 ADD PUSH1 0x40 MSTORE DUP1 PUSH1 0x8 DUP2 MSTORE PUSH1 0x20 ADD PUSH32 0x506C6174696E756D000000000000000000000000000000000000000000000000 DUP2 MSTORE POP PUSH1 0x2 SWAP1 DUP1 MLOAD SWAP1 PUSH1 0x20 ADD SWAP1 PUSH2 0x45D SWAP3 SWAP2 SWAP1 PUSH2 0xCB1 JUMP JUMPDEST POP PUSH1 0x5 PUSH1 0x0 DUP2 SLOAD DUP1 SWAP3 SWAP2 SWAP1 PUSH2 0x471 SWAP1 PUSH2 0x1409 JUMP JUMPDEST SWAP2 SWAP1 POP SSTORE POP PUSH2 0x57E JUMP JUMPDEST PUSH1 0x1 DUP2 GT ISZERO DUP1 ISZERO PUSH2 0x48F JUMPI POP PUSH2 0x15E PUSH1 0x6 SLOAD LT JUMPDEST ISZERO PUSH2 0x4FD JUMPI PUSH1 0x40 MLOAD DUP1 PUSH1 0x40 ADD PUSH1 0x40 MSTORE DUP1 PUSH1 0x4 DUP2 MSTORE PUSH1 0x20 ADD PUSH32 0x476F6C6400000000000000000000000000000000000000000000000000000000 DUP2 MSTORE POP PUSH1 0x2 SWAP1 DUP1 MLOAD SWAP1 PUSH1 0x20 ADD SWAP1 PUSH2 0x4DF SWAP3 SWAP2 SWAP1 PUSH2 0xCB1 JUMP JUMPDEST POP PUSH1 0x6 PUSH1 0x0 DUP2 SLOAD DUP1 SWAP3 SWAP2 SWAP1 PUSH2 0x4F3 SWAP1 PUSH2 0x1409 JUMP JUMPDEST SWAP2 SWAP1 POP SSTORE POP PUSH2 0x57D JUMP JUMPDEST PUSH1 0x2 DUP2 GT ISZERO DUP1 ISZERO PUSH2 0x512 JUMPI POP PUSH2 0x1F4 PUSH1 0x7 SLOAD GT ISZERO JUMPDEST ISZERO PUSH2 0x57C JUMPI PUSH1 0x40 MLOAD DUP1 PUSH1 0x40 ADD PUSH1 0x40 MSTORE DUP1 PUSH1 0x6 DUP2 MSTORE PUSH1 0x20 ADD PUSH32 0x53696C7665720000000000000000000000000000000000000000000000000000 DUP2 MSTORE POP PUSH1 0x2 SWAP1 DUP1 MLOAD SWAP1 PUSH1 0x20 ADD SWAP1 PUSH2 0x562 SWAP3 SWAP2 SWAP1 PUSH2 0xCB1 JUMP JUMPDEST POP PUSH1 0x7 PUSH1 0x0 DUP2 SLOAD DUP1 SWAP3 SWAP2 SWAP1 PUSH2 0x576 SWAP1 PUSH2 0x1409 JUMP JUMPDEST SWAP2 SWAP1 POP SSTORE POP JUMPDEST JUMPDEST JUMPDEST PUSH2 0x616 DUP5 DUP3 PUSH1 0x4 SLOAD PUSH1 0x2 DUP1 SLOAD PUSH2 0x593 SWAP1 PUSH2 0x13A6 JUMP JUMPDEST DUP1 PUSH1 0x1F ADD PUSH1 0x20 DUP1 SWAP2 DIV MUL PUSH1 0x20 ADD PUSH1 0x40 MLOAD SWAP1 DUP2 ADD PUSH1 0x40 MSTORE DUP1 SWAP3 SWAP2 SWAP1 DUP2 DUP2 MSTORE PUSH1 0x20 ADD DUP3 DUP1 SLOAD PUSH2 0x5BF SWAP1 PUSH2 0x13A6 JUMP JUMPDEST DUP1 ISZERO PUSH2 0x60C JUMPI DUP1 PUSH1 0x1F LT PUSH2 0x5E1 JUMPI PUSH2 0x100 DUP1 DUP4 SLOAD DIV MUL DUP4 MSTORE SWAP2 PUSH1 0x20 ADD SWAP2 PUSH2 0x60C JUMP JUMPDEST DUP3 ADD SWAP2 SWAP1 PUSH1 0x0 MSTORE PUSH1 0x20 PUSH1 0x0 KECCAK256 SWAP1 JUMPDEST DUP2 SLOAD DUP2 MSTORE SWAP1 PUSH1 0x1 ADD SWAP1 PUSH1 0x20 ADD DUP1 DUP4 GT PUSH2 0x5EF JUMPI DUP3 SWAP1 SUB PUSH1 0x1F AND DUP3 ADD SWAP2 JUMPDEST POP POP POP POP POP PUSH2 0x89F JUMP JUMPDEST PUSH1 0x3 PUSH1 0x0 DUP2 SLOAD DUP1 SWAP3 SWAP2 SWAP1 PUSH2 0x629 SWAP1 PUSH2 0x1409 JUMP JUMPDEST SWAP2 SWAP1 POP SSTORE POP DUP1 PUSH1 0x8 PUSH1 0x0 DUP7 PUSH20 0xFFFFFFFFFFFFFFFFFFFFFFFFFFFFFFFFFFFFFFFF AND PUSH20 0xFFFFFFFFFFFFFFFFFFFFFFFFFFFFFFFFFFFFFFFF AND DUP2 MSTORE PUSH1 0x20 ADD SWAP1 DUP2 MSTORE PUSH1 0x20 ADD PUSH1 0x0 KECCAK256 DUP2 SWAP1 SSTORE POP DUP1 PUSH1 0x2 DUP1 DUP1 SLOAD PUSH2 0x681 SWAP1 PUSH2 0x13A6 JUMP JUMPDEST DUP1 PUSH1 0x1F ADD PUSH1 0x20 DUP1 SWAP2 DIV MUL PUSH1 0x20 ADD PUSH1 0x40 MLOAD SWAP1 DUP2 ADD PUSH1 0x40 MSTORE DUP1 SWAP3 SWAP2 SWAP1 DUP2 DUP2 MSTORE PUSH1 0x20 ADD DUP3 DUP1 SLOAD PUSH2 0x6AD SWAP1 PUSH2 0x13A6 JUMP JUMPDEST DUP1 ISZERO PUSH2 0x6FA JUMPI DUP1 PUSH1 0x1F LT PUSH2 0x6CF JUMPI PUSH2 0x100 DUP1 DUP4 SLOAD DIV MUL DUP4 MSTORE SWAP2 PUSH1 0x20 ADD SWAP2 PUSH2 0x6FA JUMP JUMPDEST DUP3 ADD SWAP2 SWAP1 PUSH1 0x0 MSTORE PUSH1 0x20 PUSH1 0x0 KECCAK256 SWAP1 JUMPDEST DUP2 SLOAD DUP2 MSTORE SWAP1 PUSH1 0x1 ADD SWAP1 PUSH1 0x20 ADD DUP1 DUP4 GT PUSH2 0x6DD JUMPI DUP3 SWAP1 SUB PUSH1 0x1F AND DUP3 ADD SWAP2 JUMPDEST POP POP POP POP POP SWAP1 POP SWAP3 POP SWAP3 POP POP SWAP2 POP SWAP2 JUMP JUMPDEST PUSH1 0xA PUSH1 0x1 SWAP1 SLOAD SWAP1 PUSH2 0x100 EXP SWAP1 DIV PUSH20 0xFFFFFFFFFFFFFFFFFFFFFFFFFFFFFFFFFFFFFFFF AND PUSH20 0xFFFFFFFFFFFFFFFFFFFFFFFFFFFFFFFFFFFFFFFF AND PUSH2 0x74C PUSH2 0x853 JUMP JUMPDEST PUSH20 0xFFFFFFFFFFFFFFFFFFFFFFFFFFFFFFFFFFFFFFFF AND EQ PUSH2 0x7A2 JUMPI PUSH1 0x40 MLOAD PUSH32 0x8C379A000000000000000000000000000000000000000000000000000000000 DUP2 MSTORE PUSH1 0x4 ADD PUSH2 0x799 SWAP1 PUSH2 0x112A JUMP JUMPDEST PUSH1 0x40 MLOAD DUP1 SWAP2 SUB SWAP1 REVERT JUMPDEST PUSH1 0x0 ISZERO ISZERO PUSH1 0xA PUSH1 0x0 SWAP1 SLOAD SWAP1 PUSH2 0x100 EXP SWAP1 DIV PUSH1 0xFF AND ISZERO ISZERO EQ PUSH2 0x7F8 JUMPI PUSH1 0x40 MLOAD PUSH32 0x8C379A000000000000000000000000000000000000000000000000000000000 DUP2 MSTORE PUSH1 0x4 ADD PUSH2 0x7EF SWAP1 PUSH2 0x110A JUMP JUMPDEST PUSH1 0x40 MLOAD DUP1 SWAP2 SUB SWAP1 REVERT JUMPDEST PUSH1 0x1 PUSH1 0xA PUSH1 0x0 PUSH2 0x100 EXP DUP2 SLOAD DUP2 PUSH1 0xFF MUL NOT AND SWAP1 DUP4 ISZERO ISZERO MUL OR SWAP1 SSTORE POP JUMP JUMPDEST PUSH1 0xA PUSH1 0x1 SWAP1 SLOAD SWAP1 PUSH2 0x100 EXP SWAP1 DIV PUSH20 0xFFFFFFFFFFFFFFFFFFFFFFFFFFFFFFFFFFFFFFFF AND DUP2 JUMP JUMPDEST PUSH1 0x8 PUSH1 0x20 MSTORE DUP1 PUSH1 0x0 MSTORE PUSH1 0x40 PUSH1 0x0 KECCAK256 PUSH1 0x0 SWAP2 POP SWAP1 POP SLOAD DUP2 JUMP JUMPDEST PUSH1 0x0 CALLER SWAP1 POP SWAP1 JUMP JUMPDEST PUSH1 0x0 DUP1 PUSH1 0x3 TIMESTAMP CALLER PUSH1 0x40 MLOAD PUSH1 0x20 ADD PUSH2 0x873 SWAP3 SWAP2 SWAP1 PUSH2 0xFCC JUMP JUMPDEST PUSH1 0x40 MLOAD PUSH1 0x20 DUP2 DUP4 SUB SUB DUP2 MSTORE SWAP1 PUSH1 0x40 MSTORE DUP1 MLOAD SWAP1 PUSH1 0x20 ADD KECCAK256 PUSH1 0x0 SHR PUSH2 0x896 SWAP2 SWAP1 PUSH2 0x1480 JUMP JUMPDEST SWAP1 POP DUP1 SWAP2 POP POP SWAP1 JUMP JUMPDEST PUSH1 0x0 PUSH20 0xFFFFFFFFFFFFFFFFFFFFFFFFFFFFFFFFFFFFFFFF AND DUP5 PUSH20 0xFFFFFFFFFFFFFFFFFFFFFFFFFFFFFFFFFFFFFFFF AND EQ ISZERO PUSH2 0x90F JUMPI PUSH1 0x40 MLOAD PUSH32 0x8C379A000000000000000000000000000000000000000000000000000000000 DUP2 MSTORE PUSH1 0x4 ADD PUSH2 0x906 SWAP1 PUSH2 0x118A JUMP JUMPDEST PUSH1 0x40 MLOAD DUP1 SWAP2 SUB SWAP1 REVERT JUMPDEST PUSH1 0x0 PUSH2 0x919 PUSH2 0x853 JUMP JUMPDEST SWAP1 POP PUSH2 0x93A DUP2 PUSH1 0x0 DUP8 PUSH2 0x92B DUP9 PUSH2 0xA35 JUMP JUMPDEST PUSH2 0x934 DUP9 PUSH2 0xA35 JUMP JUMPDEST DUP8 PUSH2 0xAAF JUMP JUMPDEST DUP3 PUSH1 0x0 DUP1 DUP7 DUP2 MSTORE PUSH1 0x20 ADD SWAP1 DUP2 MSTORE PUSH1 0x20 ADD PUSH1 0x0 KECCAK256 PUSH1 0x0 DUP8 PUSH20 0xFFFFFFFFFFFFFFFFFFFFFFFFFFFFFFFFFFFFFFFF AND PUSH20 0xFFFFFFFFFFFFFFFFFFFFFFFFFFFFFFFFFFFFFFFF AND DUP2 MSTORE PUSH1 0x20 ADD SWAP1 DUP2 MSTORE PUSH1 0x20 ADD PUSH1 0x0 KECCAK256 PUSH1 0x0 DUP3 DUP3 SLOAD PUSH2 0x999 SWAP2 SWAP1 PUSH2 0x1297 JUMP JUMPDEST SWAP3 POP POP DUP2 SWAP1 SSTORE POP DUP5 PUSH20 0xFFFFFFFFFFFFFFFFFFFFFFFFFFFFFFFFFFFFFFFF AND PUSH1 0x0 PUSH20 0xFFFFFFFFFFFFFFFFFFFFFFFFFFFFFFFFFFFFFFFF AND DUP3 PUSH20 0xFFFFFFFFFFFFFFFFFFFFFFFFFFFFFFFFFFFFFFFF AND PUSH32 0xC3D58168C5AE7397731D063D5BBF3D657854427343F4C083240F7AACAA2D0F62 DUP8 DUP8 PUSH1 0x40 MLOAD PUSH2 0xA17 SWAP3 SWAP2 SWAP1 PUSH2 0x11F5 JUMP JUMPDEST PUSH1 0x40 MLOAD DUP1 SWAP2 SUB SWAP1 LOG4 PUSH2 0xA2E DUP2 PUSH1 0x0 DUP8 DUP8 DUP8 DUP8 PUSH2 0xAB7 JUMP JUMPDEST POP POP POP POP POP JUMP JUMPDEST PUSH1 0x60 PUSH1 0x0 PUSH1 0x1 PUSH8 0xFFFFFFFFFFFFFFFF DUP2 GT ISZERO PUSH2 0xA54 JUMPI PUSH2 0xA53 PUSH2 0x156D JUMP JUMPDEST JUMPDEST PUSH1 0x40 MLOAD SWAP1 DUP1 DUP3 MSTORE DUP1 PUSH1 0x20 MUL PUSH1 0x20 ADD DUP3 ADD PUSH1 0x40 MSTORE DUP1 ISZERO PUSH2 0xA82 JUMPI DUP2 PUSH1 0x20 ADD PUSH1 0x20 DUP3 MUL DUP1 CALLDATASIZE DUP4 CALLDATACOPY DUP1 DUP3 ADD SWAP2 POP POP SWAP1 POP JUMPDEST POP SWAP1 POP DUP3 DUP2 PUSH1 0x0 DUP2 MLOAD DUP2 LT PUSH2 0xA9A JUMPI PUSH2 0xA99 PUSH2 0x153E JUMP JUMPDEST JUMPDEST PUSH1 0x20 MUL PUSH1 0x20 ADD ADD DUP2 DUP2 MSTORE POP POP DUP1 SWAP2 POP POP SWAP2 SWAP1 POP JUMP JUMPDEST POP POP POP POP POP POP JUMP JUMPDEST PUSH2 0xAD6 DUP5 PUSH20 0xFFFFFFFFFFFFFFFFFFFFFFFFFFFFFFFFFFFFFFFF AND PUSH2 0xC9E JUMP JUMPDEST ISZERO PUSH2 0xC96 JUMPI DUP4 PUSH20 0xFFFFFFFFFFFFFFFFFFFFFFFFFFFFFFFFFFFFFFFF AND PUSH4 0xF23A6E61 DUP8 DUP8 DUP7 DUP7 DUP7 PUSH1 0x40 MLOAD DUP7 PUSH4 0xFFFFFFFF AND PUSH1 0xE0 SHL DUP2 MSTORE PUSH1 0x4 ADD PUSH2 0xB1C SWAP6 SWAP5 SWAP4 SWAP3 SWAP2 SWAP1 PUSH2 0x1013 JUMP JUMPDEST PUSH1 0x20 PUSH1 0x40 MLOAD DUP1 DUP4 SUB DUP2 PUSH1 0x0 DUP8 DUP1 EXTCODESIZE ISZERO DUP1 ISZERO PUSH2 0xB36 JUMPI PUSH1 0x0 DUP1 REVERT JUMPDEST POP GAS CALL SWAP3 POP POP POP DUP1 ISZERO PUSH2 0xB67 JUMPI POP PUSH1 0x40 MLOAD RETURNDATASIZE PUSH1 0x1F NOT PUSH1 0x1F DUP3 ADD AND DUP3 ADD DUP1 PUSH1 0x40 MSTORE POP DUP2 ADD SWAP1 PUSH2 0xB64 SWAP2 SWAP1 PUSH2 0xDAB JUMP JUMPDEST PUSH1 0x1 JUMPDEST PUSH2 0xC0D JUMPI PUSH2 0xB73 PUSH2 0x159C JUMP JUMPDEST DUP1 PUSH4 0x8C379A0 EQ ISZERO PUSH2 0xBD0 JUMPI POP PUSH2 0xB88 PUSH2 0x17A8 JUMP JUMPDEST DUP1 PUSH2 0xB93 JUMPI POP PUSH2 0xBD2 JUMP JUMPDEST DUP1 PUSH1 0x40 MLOAD PUSH32 0x8C379A000000000000000000000000000000000000000000000000000000000 DUP2 MSTORE PUSH1 0x4 ADD PUSH2 0xBC7 SWAP2 SWAP1 PUSH2 0x1088 JUMP JUMPDEST PUSH1 0x40 MLOAD DUP1 SWAP2 SUB SWAP1 REVERT JUMPDEST POP JUMPDEST PUSH1 0x40 MLOAD PUSH32 0x8C379A000000000000000000000000000000000000000000000000000000000 DUP2 MSTORE PUSH1 0x4 ADD PUSH2 0xC04 SWAP1 PUSH2 0x10AA JUMP JUMPDEST PUSH1 0x40 MLOAD DUP1 SWAP2 SUB SWAP1 REVERT JUMPDEST PUSH4 0xF23A6E61 PUSH1 0xE0 SHL PUSH28 0xFFFFFFFFFFFFFFFFFFFFFFFFFFFFFFFFFFFFFFFFFFFFFFFFFFFFFFFF NOT AND DUP2 PUSH28 0xFFFFFFFFFFFFFFFFFFFFFFFFFFFFFFFFFFFFFFFFFFFFFFFFFFFFFFFF NOT AND EQ PUSH2 0xC94 JUMPI PUSH1 0x40 MLOAD PUSH32 0x8C379A000000000000000000000000000000000000000000000000000000000 DUP2 MSTORE PUSH1 0x4 ADD PUSH2 0xC8B SWAP1 PUSH2 0x10CA JUMP JUMPDEST PUSH1 0x40 MLOAD DUP1 SWAP2 SUB SWAP1 REVERT JUMPDEST POP JUMPDEST POP POP POP POP POP POP JUMP JUMPDEST PUSH1 0x0 DUP1 DUP3 EXTCODESIZE SWAP1 POP PUSH1 0x0 DUP2 GT SWAP2 POP POP SWAP2 SWAP1 POP JUMP JUMPDEST DUP3 DUP1 SLOAD PUSH2 0xCBD SWAP1 PUSH2 0x13A6 JUMP JUMPDEST SWAP1 PUSH1 0x0 MSTORE PUSH1 0x20 PUSH1 0x0 KECCAK256 SWAP1 PUSH1 0x1F ADD PUSH1 0x20 SWAP1 DIV DUP2 ADD SWAP3 DUP3 PUSH2 0xCDF JUMPI PUSH1 0x0 DUP6 SSTORE PUSH2 0xD26 JUMP JUMPDEST DUP3 PUSH1 0x1F LT PUSH2 0xCF8 JUMPI DUP1 MLOAD PUSH1 0xFF NOT AND DUP4 DUP1 ADD OR DUP6 SSTORE PUSH2 0xD26 JUMP JUMPDEST DUP3 DUP1 ADD PUSH1 0x1 ADD DUP6 SSTORE DUP3 ISZERO PUSH2 0xD26 JUMPI SWAP2 DUP3 ADD JUMPDEST DUP3 DUP2 GT ISZERO PUSH2 0xD25 JUMPI DUP3 MLOAD DUP3 SSTORE SWAP2 PUSH1 0x20 ADD SWAP2 SWAP1 PUSH1 0x1 ADD SWAP1 PUSH2 0xD0A JUMP JUMPDEST JUMPDEST POP SWAP1 POP PUSH2 0xD33 SWAP2 SWAP1 PUSH2 0xD37 JUMP JUMPDEST POP SWAP1 JUMP JUMPDEST JUMPDEST DUP1 DUP3 GT ISZERO PUSH2 0xD50 JUMPI PUSH1 0x0 DUP2 PUSH1 0x0 SWAP1 SSTORE POP PUSH1 0x1 ADD PUSH2 0xD38 JUMP JUMPDEST POP SWAP1 JUMP JUMPDEST PUSH1 0x0 DUP2 CALLDATALOAD SWAP1 POP PUSH2 0xD63 DUP2 PUSH2 0x183E JUMP JUMPDEST SWAP3 SWAP2 POP POP JUMP JUMPDEST PUSH1 0x0 DUP2 MLOAD SWAP1 POP PUSH2 0xD78 DUP2 PUSH2 0x1855 JUMP JUMPDEST SWAP3 SWAP2 POP POP JUMP JUMPDEST PUSH1 0x0 PUSH1 0x20 DUP3 DUP5 SUB SLT ISZERO PUSH2 0xD94 JUMPI PUSH2 0xD93 PUSH2 0x15BE JUMP JUMPDEST JUMPDEST PUSH1 0x0 PUSH2 0xDA2 DUP5 DUP3 DUP6 ADD PUSH2 0xD54 JUMP JUMPDEST SWAP2 POP POP SWAP3 SWAP2 POP POP JUMP JUMPDEST PUSH1 0x0 PUSH1 0x20 DUP3 DUP5 SUB SLT ISZERO PUSH2 0xDC1 JUMPI PUSH2 0xDC0 PUSH2 0x15BE JUMP JUMPDEST JUMPDEST PUSH1 0x0 PUSH2 0xDCF DUP5 DUP3 DUP6 ADD PUSH2 0xD69 JUMP JUMPDEST SWAP2 POP POP SWAP3 SWAP2 POP POP JUMP JUMPDEST PUSH2 0xDE1 DUP2 PUSH2 0x12FF JUMP JUMPDEST DUP3 MSTORE POP POP JUMP JUMPDEST PUSH2 0xDF0 DUP2 PUSH2 0x12ED JUMP JUMPDEST DUP3 MSTORE POP POP JUMP JUMPDEST PUSH2 0xE07 PUSH2 0xE02 DUP3 PUSH2 0x12ED JUMP JUMPDEST PUSH2 0x1452 JUMP JUMPDEST DUP3 MSTORE POP POP JUMP JUMPDEST PUSH2 0xE16 DUP2 PUSH2 0x1311 JUMP JUMPDEST DUP3 MSTORE POP POP JUMP JUMPDEST PUSH1 0x0 PUSH2 0xE27 DUP3 PUSH2 0x125F JUMP JUMPDEST PUSH2 0xE31 DUP2 DUP6 PUSH2 0x1275 JUMP JUMPDEST SWAP4 POP PUSH2 0xE41 DUP2 DUP6 PUSH1 0x20 DUP7 ADD PUSH2 0x1373 JUMP JUMPDEST PUSH2 0xE4A DUP2 PUSH2 0x15C3 JUMP JUMPDEST DUP5 ADD SWAP2 POP POP SWAP3 SWAP2 POP POP JUMP JUMPDEST PUSH1 0x0 PUSH2 0xE60 DUP3 PUSH2 0x126A JUMP JUMPDEST PUSH2 0xE6A DUP2 DUP6 PUSH2 0x1286 JUMP JUMPDEST SWAP4 POP PUSH2 0xE7A DUP2 DUP6 PUSH1 0x20 DUP7 ADD PUSH2 0x1373 JUMP JUMPDEST PUSH2 0xE83 DUP2 PUSH2 0x15C3 JUMP JUMPDEST DUP5 ADD SWAP2 POP POP SWAP3 SWAP2 POP POP JUMP JUMPDEST PUSH1 0x0 PUSH2 0xE9B PUSH1 0x34 DUP4 PUSH2 0x1286 JUMP JUMPDEST SWAP2 POP PUSH2 0xEA6 DUP3 PUSH2 0x15EE JUMP JUMPDEST PUSH1 0x40 DUP3 ADD SWAP1 POP SWAP2 SWAP1 POP JUMP JUMPDEST PUSH1 0x0 PUSH2 0xEBE PUSH1 0x28 DUP4 PUSH2 0x1286 JUMP JUMPDEST SWAP2 POP PUSH2 0xEC9 DUP3 PUSH2 0x163D JUMP JUMPDEST PUSH1 0x40 DUP3 ADD SWAP1 POP SWAP2 SWAP1 POP JUMP JUMPDEST PUSH1 0x0 PUSH2 0xEE1 PUSH1 0x1B DUP4 PUSH2 0x1286 JUMP JUMPDEST SWAP2 POP PUSH2 0xEEC DUP3 PUSH2 0x168C JUMP JUMPDEST PUSH1 0x20 DUP3 ADD SWAP1 POP SWAP2 SWAP1 POP JUMP JUMPDEST PUSH1 0x0 PUSH2 0xF04 PUSH1 0x1B DUP4 PUSH2 0x1286 JUMP JUMPDEST SWAP2 POP PUSH2 0xF0F DUP3 PUSH2 0x16B5 JUMP JUMPDEST PUSH1 0x20 DUP3 ADD SWAP1 POP SWAP2 SWAP1 POP JUMP JUMPDEST PUSH1 0x0 PUSH2 0xF27 PUSH1 0x18 DUP4 PUSH2 0x1286 JUMP JUMPDEST SWAP2 POP PUSH2 0xF32 DUP3 PUSH2 0x16DE JUMP JUMPDEST PUSH1 0x20 DUP3 ADD SWAP1 POP SWAP2 SWAP1 POP JUMP JUMPDEST PUSH1 0x0 PUSH2 0xF4A PUSH1 0x12 DUP4 PUSH2 0x1286 JUMP JUMPDEST SWAP2 POP PUSH2 0xF55 DUP3 PUSH2 0x1707 JUMP JUMPDEST PUSH1 0x20 DUP3 ADD SWAP1 POP SWAP2 SWAP1 POP JUMP JUMPDEST PUSH1 0x0 PUSH2 0xF6D PUSH1 0x19 DUP4 PUSH2 0x1286 JUMP JUMPDEST SWAP2 POP PUSH2 0xF78 DUP3 PUSH2 0x1730 JUMP JUMPDEST PUSH1 0x20 DUP3 ADD SWAP1 POP SWAP2 SWAP1 POP JUMP JUMPDEST PUSH1 0x0 PUSH2 0xF90 PUSH1 0x21 DUP4 PUSH2 0x1286 JUMP JUMPDEST SWAP2 POP PUSH2 0xF9B DUP3 PUSH2 0x1759 JUMP JUMPDEST PUSH1 0x40 DUP3 ADD SWAP1 POP SWAP2 SWAP1 POP JUMP JUMPDEST PUSH2 0xFAF DUP2 PUSH2 0x1369 JUMP JUMPDEST DUP3 MSTORE POP POP JUMP JUMPDEST PUSH2 0xFC6 PUSH2 0xFC1 DUP3 PUSH2 0x1369 JUMP JUMPDEST PUSH2 0x1476 JUMP JUMPDEST DUP3 MSTORE POP POP JUMP JUMPDEST PUSH1 0x0 PUSH2 0xFD8 DUP3 DUP6 PUSH2 0xFB5 JUMP JUMPDEST PUSH1 0x20 DUP3 ADD SWAP2 POP PUSH2 0xFE8 DUP3 DUP5 PUSH2 0xDF6 JUMP JUMPDEST PUSH1 0x14 DUP3 ADD SWAP2 POP DUP2 SWAP1 POP SWAP4 SWAP3 POP POP POP JUMP JUMPDEST PUSH1 0x0 PUSH1 0x20 DUP3 ADD SWAP1 POP PUSH2 0x100D PUSH1 0x0 DUP4 ADD DUP5 PUSH2 0xDD8 JUMP JUMPDEST SWAP3 SWAP2 POP POP JUMP JUMPDEST PUSH1 0x0 PUSH1 0xA0 DUP3 ADD SWAP1 POP PUSH2 0x1028 PUSH1 0x0 DUP4 ADD DUP9 PUSH2 0xDE7 JUMP JUMPDEST PUSH2 0x1035 PUSH1 0x20 DUP4 ADD DUP8 PUSH2 0xDE7 JUMP JUMPDEST PUSH2 0x1042 PUSH1 0x40 DUP4 ADD DUP7 PUSH2 0xFA6 JUMP JUMPDEST PUSH2 0x104F PUSH1 0x60 DUP4 ADD DUP6 PUSH2 0xFA6 JUMP JUMPDEST DUP2 DUP2 SUB PUSH1 0x80 DUP4 ADD MSTORE PUSH2 0x1061 DUP2 DUP5 PUSH2 0xE1C JUMP JUMPDEST SWAP1 POP SWAP7 SWAP6 POP POP POP POP POP POP JUMP JUMPDEST PUSH1 0x0 PUSH1 0x20 DUP3 ADD SWAP1 POP PUSH2 0x1082 PUSH1 0x0 DUP4 ADD DUP5 PUSH2 0xE0D JUMP JUMPDEST SWAP3 SWAP2 POP POP JUMP JUMPDEST PUSH1 0x0 PUSH1 0x20 DUP3 ADD SWAP1 POP DUP2 DUP2 SUB PUSH1 0x0 DUP4 ADD MSTORE PUSH2 0x10A2 DUP2 DUP5 PUSH2 0xE55 JUMP JUMPDEST SWAP1 POP SWAP3 SWAP2 POP POP JUMP JUMPDEST PUSH1 0x0 PUSH1 0x20 DUP3 ADD SWAP1 POP DUP2 DUP2 SUB PUSH1 0x0 DUP4 ADD MSTORE PUSH2 0x10C3 DUP2 PUSH2 0xE8E JUMP JUMPDEST SWAP1 POP SWAP2 SWAP1 POP JUMP JUMPDEST PUSH1 0x0 PUSH1 0x20 DUP3 ADD SWAP1 POP DUP2 DUP2 SUB PUSH1 0x0 DUP4 ADD MSTORE PUSH2 0x10E3 DUP2 PUSH2 0xEB1 JUMP JUMPDEST SWAP1 POP SWAP2 SWAP1 POP JUMP JUMPDEST PUSH1 0x0 PUSH1 0x20 DUP3 ADD SWAP1 POP DUP2 DUP2 SUB PUSH1 0x0 DUP4 ADD MSTORE PUSH2 0x1103 DUP2 PUSH2 0xED4 JUMP JUMPDEST SWAP1 POP SWAP2 SWAP1 POP JUMP JUMPDEST PUSH1 0x0 PUSH1 0x20 DUP3 ADD SWAP1 POP DUP2 DUP2 SUB PUSH1 0x0 DUP4 ADD MSTORE PUSH2 0x1123 DUP2 PUSH2 0xEF7 JUMP JUMPDEST SWAP1 POP SWAP2 SWAP1 POP JUMP JUMPDEST PUSH1 0x0 PUSH1 0x20 DUP3 ADD SWAP1 POP DUP2 DUP2 SUB PUSH1 0x0 DUP4 ADD MSTORE PUSH2 0x1143 DUP2 PUSH2 0xF1A JUMP JUMPDEST SWAP1 POP SWAP2 SWAP1 POP JUMP JUMPDEST PUSH1 0x0 PUSH1 0x20 DUP3 ADD SWAP1 POP DUP2 DUP2 SUB PUSH1 0x0 DUP4 ADD MSTORE PUSH2 0x1163 DUP2 PUSH2 0xF3D JUMP JUMPDEST SWAP1 POP SWAP2 SWAP1 POP JUMP JUMPDEST PUSH1 0x0 PUSH1 0x20 DUP3 ADD SWAP1 POP DUP2 DUP2 SUB PUSH1 0x0 DUP4 ADD MSTORE PUSH2 0x1183 DUP2 PUSH2 0xF60 JUMP JUMPDEST SWAP1 POP SWAP2 SWAP1 POP JUMP JUMPDEST PUSH1 0x0 PUSH1 0x20 DUP3 ADD SWAP1 POP DUP2 DUP2 SUB PUSH1 0x0 DUP4 ADD MSTORE PUSH2 0x11A3 DUP2 PUSH2 0xF83 JUMP JUMPDEST SWAP1 POP SWAP2 SWAP1 POP JUMP JUMPDEST PUSH1 0x0 PUSH1 0x20 DUP3 ADD SWAP1 POP PUSH2 0x11BF PUSH1 0x0 DUP4 ADD DUP5 PUSH2 0xFA6 JUMP JUMPDEST SWAP3 SWAP2 POP POP JUMP JUMPDEST PUSH1 0x0 PUSH1 0x40 DUP3 ADD SWAP1 POP PUSH2 0x11DA PUSH1 0x0 DUP4 ADD DUP6 PUSH2 0xFA6 JUMP JUMPDEST DUP2 DUP2 SUB PUSH1 0x20 DUP4 ADD MSTORE PUSH2 0x11EC DUP2 DUP5 PUSH2 0xE55 JUMP JUMPDEST SWAP1 POP SWAP4 SWAP3 POP POP POP JUMP JUMPDEST PUSH1 0x0 PUSH1 0x40 DUP3 ADD SWAP1 POP PUSH2 0x120A PUSH1 0x0 DUP4 ADD DUP6 PUSH2 0xFA6 JUMP JUMPDEST PUSH2 0x1217 PUSH1 0x20 DUP4 ADD DUP5 PUSH2 0xFA6 JUMP JUMPDEST SWAP4 SWAP3 POP POP POP JUMP JUMPDEST PUSH1 0x0 PUSH1 0x60 DUP3 ADD SWAP1 POP PUSH2 0x1233 PUSH1 0x0 DUP4 ADD DUP7 PUSH2 0xFA6 JUMP JUMPDEST PUSH2 0x1240 PUSH1 0x20 DUP4 ADD DUP6 PUSH2 0xFA6 JUMP JUMPDEST PUSH2 0x124D PUSH1 0x40 DUP4 ADD DUP5 PUSH2 0xFA6 JUMP JUMPDEST SWAP5 SWAP4 POP POP POP POP JUMP JUMPDEST PUSH1 0x0 PUSH1 0x40 MLOAD SWAP1 POP SWAP1 JUMP JUMPDEST PUSH1 0x0 DUP2 MLOAD SWAP1 POP SWAP2 SWAP1 POP JUMP JUMPDEST PUSH1 0x0 DUP2 MLOAD SWAP1 POP SWAP2 SWAP1 POP JUMP JUMPDEST PUSH1 0x0 DUP3 DUP3 MSTORE PUSH1 0x20 DUP3 ADD SWAP1 POP SWAP3 SWAP2 POP POP JUMP JUMPDEST PUSH1 0x0 DUP3 DUP3 MSTORE PUSH1 0x20 DUP3 ADD SWAP1 POP SWAP3 SWAP2 POP POP JUMP JUMPDEST PUSH1 0x0 PUSH2 0x12A2 DUP3 PUSH2 0x1369 JUMP JUMPDEST SWAP2 POP PUSH2 0x12AD DUP4 PUSH2 0x1369 JUMP JUMPDEST SWAP3 POP DUP3 PUSH32 0xFFFFFFFFFFFFFFFFFFFFFFFFFFFFFFFFFFFFFFFFFFFFFFFFFFFFFFFFFFFFFFFF SUB DUP3 GT ISZERO PUSH2 0x12E2 JUMPI PUSH2 0x12E1 PUSH2 0x14B1 JUMP JUMPDEST JUMPDEST DUP3 DUP3 ADD SWAP1 POP SWAP3 SWAP2 POP POP JUMP JUMPDEST PUSH1 0x0 PUSH2 0x12F8 DUP3 PUSH2 0x1349 JUMP JUMPDEST SWAP1 POP SWAP2 SWAP1 POP JUMP JUMPDEST PUSH1 0x0 PUSH2 0x130A DUP3 PUSH2 0x1349 JUMP JUMPDEST SWAP1 POP SWAP2 SWAP1 POP JUMP JUMPDEST PUSH1 0x0 DUP2 ISZERO ISZERO SWAP1 POP SWAP2 SWAP1 POP JUMP JUMPDEST PUSH1 0x0 PUSH32 0xFFFFFFFF00000000000000000000000000000000000000000000000000000000 DUP3 AND SWAP1 POP SWAP2 SWAP1 POP JUMP JUMPDEST PUSH1 0x0 PUSH20 0xFFFFFFFFFFFFFFFFFFFFFFFFFFFFFFFFFFFFFFFF DUP3 AND SWAP1 POP SWAP2 SWAP1 POP JUMP JUMPDEST PUSH1 0x0 DUP2 SWAP1 POP SWAP2 SWAP1 POP JUMP JUMPDEST PUSH1 0x0 JUMPDEST DUP4 DUP2 LT ISZERO PUSH2 0x1391 JUMPI DUP1 DUP3 ADD MLOAD DUP2 DUP5 ADD MSTORE PUSH1 0x20 DUP2 ADD SWAP1 POP PUSH2 0x1376 JUMP JUMPDEST DUP4 DUP2 GT ISZERO PUSH2 0x13A0 JUMPI PUSH1 0x0 DUP5 DUP5 ADD MSTORE JUMPDEST POP POP POP POP JUMP JUMPDEST PUSH1 0x0 PUSH1 0x2 DUP3 DIV SWAP1 POP PUSH1 0x1 DUP3 AND DUP1 PUSH2 0x13BE JUMPI PUSH1 0x7F DUP3 AND SWAP2 POP JUMPDEST PUSH1 0x20 DUP3 LT DUP2 EQ ISZERO PUSH2 0x13D2 JUMPI PUSH2 0x13D1 PUSH2 0x150F JUMP JUMPDEST JUMPDEST POP SWAP2 SWAP1 POP JUMP JUMPDEST PUSH2 0x13E1 DUP3 PUSH2 0x15C3 JUMP JUMPDEST DUP2 ADD DUP2 DUP2 LT PUSH8 0xFFFFFFFFFFFFFFFF DUP3 GT OR ISZERO PUSH2 0x1400 JUMPI PUSH2 0x13FF PUSH2 0x156D JUMP JUMPDEST JUMPDEST DUP1 PUSH1 0x40 MSTORE POP POP POP JUMP JUMPDEST PUSH1 0x0 PUSH2 0x1414 DUP3 PUSH2 0x1369 JUMP JUMPDEST SWAP2 POP PUSH32 0xFFFFFFFFFFFFFFFFFFFFFFFFFFFFFFFFFFFFFFFFFFFFFFFFFFFFFFFFFFFFFFFF DUP3 EQ ISZERO PUSH2 0x1447 JUMPI PUSH2 0x1446 PUSH2 0x14B1 JUMP JUMPDEST JUMPDEST PUSH1 0x1 DUP3 ADD SWAP1 POP SWAP2 SWAP1 POP JUMP JUMPDEST PUSH1 0x0 PUSH2 0x145D DUP3 PUSH2 0x1464 JUMP JUMPDEST SWAP1 POP SWAP2 SWAP1 POP JUMP JUMPDEST PUSH1 0x0 PUSH2 0x146F DUP3 PUSH2 0x15D4 JUMP JUMPDEST SWAP1 POP SWAP2 SWAP1 POP JUMP JUMPDEST PUSH1 0x0 DUP2 SWAP1 POP SWAP2 SWAP1 POP JUMP JUMPDEST PUSH1 0x0 PUSH2 0x148B DUP3 PUSH2 0x1369 JUMP JUMPDEST SWAP2 POP PUSH2 0x1496 DUP4 PUSH2 0x1369 JUMP JUMPDEST SWAP3 POP DUP3 PUSH2 0x14A6 JUMPI PUSH2 0x14A5 PUSH2 0x14E0 JUMP JUMPDEST JUMPDEST DUP3 DUP3 MOD SWAP1 POP SWAP3 SWAP2 POP POP JUMP JUMPDEST PUSH32 0x4E487B7100000000000000000000000000000000000000000000000000000000 PUSH1 0x0 MSTORE PUSH1 0x11 PUSH1 0x4 MSTORE PUSH1 0x24 PUSH1 0x0 REVERT JUMPDEST PUSH32 0x4E487B7100000000000000000000000000000000000000000000000000000000 PUSH1 0x0 MSTORE PUSH1 0x12 PUSH1 0x4 MSTORE PUSH1 0x24 PUSH1 0x0 REVERT JUMPDEST PUSH32 0x4E487B7100000000000000000000000000000000000000000000000000000000 PUSH1 0x0 MSTORE PUSH1 0x22 PUSH1 0x4 MSTORE PUSH1 0x24 PUSH1 0x0 REVERT JUMPDEST PUSH32 0x4E487B7100000000000000000000000000000000000000000000000000000000 PUSH1 0x0 MSTORE PUSH1 0x32 PUSH1 0x4 MSTORE PUSH1 0x24 PUSH1 0x0 REVERT JUMPDEST PUSH32 0x4E487B7100000000000000000000000000000000000000000000000000000000 PUSH1 0x0 MSTORE PUSH1 0x41 PUSH1 0x4 MSTORE PUSH1 0x24 PUSH1 0x0 REVERT JUMPDEST PUSH1 0x0 PUSH1 0x3 RETURNDATASIZE GT ISZERO PUSH2 0x15BB JUMPI PUSH1 0x4 PUSH1 0x0 DUP1 RETURNDATACOPY PUSH2 0x15B8 PUSH1 0x0 MLOAD PUSH2 0x15E1 JUMP JUMPDEST SWAP1 POP JUMPDEST SWAP1 JUMP JUMPDEST PUSH1 0x0 DUP1 REVERT JUMPDEST PUSH1 0x0 PUSH1 0x1F NOT PUSH1 0x1F DUP4 ADD AND SWAP1 POP SWAP2 SWAP1 POP JUMP JUMPDEST PUSH1 0x0 DUP2 PUSH1 0x60 SHL SWAP1 POP SWAP2 SWAP1 POP JUMP JUMPDEST PUSH1 0x0 DUP2 PUSH1 0xE0 SHR SWAP1 POP SWAP2 SWAP1 POP JUMP JUMPDEST PUSH32 0x455243313135353A207472616E7366657220746F206E6F6E2045524331313535 PUSH1 0x0 DUP3 ADD MSTORE PUSH32 0x526563656976657220696D706C656D656E746572000000000000000000000000 PUSH1 0x20 DUP3 ADD MSTORE POP JUMP JUMPDEST PUSH32 0x455243313135353A204552433131353552656365697665722072656A65637465 PUSH1 0x0 DUP3 ADD MSTORE PUSH32 0x6420746F6B656E73000000000000000000000000000000000000000000000000 PUSH1 0x20 DUP3 ADD MSTORE POP JUMP JUMPDEST PUSH32 0x44726F707369746520697320616C72656164792052756E6E696E670000000000 PUSH1 0x0 DUP3 ADD MSTORE POP JUMP JUMPDEST PUSH32 0x44726F707369746520697320616C72656164792053746F707065640000000000 PUSH1 0x0 DUP3 ADD MSTORE POP JUMP JUMPDEST PUSH32 0x4F6E79784E6674204F776E65722063616E204163636573730000000000000000 PUSH1 0x0 DUP3 ADD MSTORE POP JUMP JUMPDEST PUSH32 0x436F6E7472616374206973205061757365640000000000000000000000000000 PUSH1 0x0 DUP3 ADD MSTORE POP JUMP JUMPDEST PUSH32 0x4D6178204D696E74696E67204C696D6974207265616368656400000000000000 PUSH1 0x0 DUP3 ADD MSTORE POP JUMP JUMPDEST PUSH32 0x455243313135353A206D696E7420746F20746865207A65726F20616464726573 PUSH1 0x0 DUP3 ADD MSTORE PUSH32 0x7300000000000000000000000000000000000000000000000000000000000000 PUSH1 0x20 DUP3 ADD MSTORE POP JUMP JUMPDEST PUSH1 0x0 PUSH1 0x44 RETURNDATASIZE LT ISZERO PUSH2 0x17B8 JUMPI PUSH2 0x183B JUMP JUMPDEST PUSH2 0x17C0 PUSH2 0x1255 JUMP JUMPDEST PUSH1 0x4 RETURNDATASIZE SUB PUSH1 0x4 DUP3 RETURNDATACOPY DUP1 MLOAD RETURNDATASIZE PUSH1 0x24 DUP3 ADD GT PUSH8 0xFFFFFFFFFFFFFFFF DUP3 GT OR ISZERO PUSH2 0x17E8 JUMPI POP POP PUSH2 0x183B JUMP JUMPDEST DUP1 DUP3 ADD DUP1 MLOAD PUSH8 0xFFFFFFFFFFFFFFFF DUP2 GT ISZERO PUSH2 0x1806 JUMPI POP POP POP POP PUSH2 0x183B JUMP JUMPDEST DUP1 PUSH1 0x20 DUP4 ADD ADD PUSH1 0x4 RETURNDATASIZE SUB DUP6 ADD DUP2 GT ISZERO PUSH2 0x1823 JUMPI POP POP POP POP POP PUSH2 0x183B JUMP JUMPDEST PUSH2 0x1832 DUP3 PUSH1 0x20 ADD DUP6 ADD DUP7 PUSH2 0x13D8 JUMP JUMPDEST DUP3 SWAP6 POP POP POP POP POP POP JUMPDEST SWAP1 JUMP JUMPDEST PUSH2 0x1847 DUP2 PUSH2 0x12ED JUMP JUMPDEST DUP2 EQ PUSH2 0x1852 JUMPI PUSH1 0x0 DUP1 REVERT JUMPDEST POP JUMP JUMPDEST PUSH2 0x185E DUP2 PUSH2 0x131D JUMP JUMPDEST DUP2 EQ PUSH2 0x1869 JUMPI PUSH1 0x0 DUP1 REVERT JUMPDEST POP JUMP INVALID LOG2 PUSH5 0x6970667358 0x22 SLT KECCAK256 0xAF 0xC8 0xD6 0xB5 EQ LT SELFDESTRUCT REVERT DIFFICULTY 0xE5 SMOD 0xC PUSH2 0x8C21 0xC2 PUSH27 0xE66CFFF0D1108C82E5282EE2AFC08864736F6C6343000807003300 "
				},
				"gasEstimates": {
					"creation": {
						"codeDepositCost": "1261200",
						"executionCost": "infinite",
						"totalCost": "infinite"
					},
					"external": {
						"IsPaused()": "2472",
						"Owner()": "2608",
						"TotalNFTsMinted()": "2474",
						"checkMintedCategoryWise()": "infinite",
						"dropsite_NFT_Owner(address)": "2880",
						"openDropsite()": "28860",
						"randomMint(address)": "infinite",
						"stopDropsite()": "28859"
					},
					"internal": {
						"random()": "infinite"
					}
				},
				"methodIdentifiers": {
					"IsPaused()": "1309a563",
					"Owner()": "b4a99a4e",
					"TotalNFTsMinted()": "322f0ece",
					"checkMintedCategoryWise()": "60daa851",
					"dropsite_NFT_Owner(address)": "d4c892c4",
					"openDropsite()": "15460259",
					"randomMint(address)": "97e96e86",
					"stopDropsite()": "aa90c726"
				}
			},
			"userdoc": {
				"kind": "user",
				"methods": {},
				"version": 1
			}
		}
	}
}