{
	"Dropsite.sol": {
		"Dropsite": {
			"abi": [
				{
					"inputs": [
						{
							"internalType": "string",
							"name": "name",
							"type": "string"
						}
					],
					"stateMutability": "nonpayable",
					"type": "constructor"
				},
				{
					"anonymous": false,
					"inputs": [
						{
							"indexed": true,
							"internalType": "address",
							"name": "operator",
							"type": "address"
						},
						{
							"indexed": true,
							"internalType": "address",
							"name": "from",
							"type": "address"
						},
						{
							"indexed": true,
							"internalType": "address",
							"name": "to",
							"type": "address"
						},
						{
							"indexed": false,
							"internalType": "uint256",
							"name": "id",
							"type": "uint256"
						},
						{
							"indexed": false,
							"internalType": "uint256",
							"name": "value",
							"type": "uint256"
						}
					],
					"name": "TransferSingle",
					"type": "event"
				},
				{
					"inputs": [],
					"name": "ContractBalance",
					"outputs": [
						{
							"internalType": "uint256",
							"name": "",
							"type": "uint256"
						}
					],
					"stateMutability": "view",
					"type": "function"
				},
				{
					"inputs": [
						{
							"internalType": "address",
							"name": "user_addr",
							"type": "address"
						}
					],
					"name": "CryptoRandomMint",
					"outputs": [
						{
							"internalType": "uint256",
							"name": "",
							"type": "uint256"
						},
						{
							"internalType": "string",
							"name": "",
							"type": "string"
						}
					],
					"stateMutability": "payable",
					"type": "function"
				},
				{
					"inputs": [
						{
							"internalType": "address",
							"name": "user_addr",
							"type": "address"
						}
					],
					"name": "FiatRandomMint",
					"outputs": [
						{
							"internalType": "uint256",
							"name": "",
							"type": "uint256"
						},
						{
							"internalType": "string",
							"name": "",
							"type": "string"
						}
					],
					"stateMutability": "nonpayable",
					"type": "function"
				},
				{
					"inputs": [],
					"name": "IsPaused",
					"outputs": [
						{
							"internalType": "bool",
							"name": "",
							"type": "bool"
						}
					],
					"stateMutability": "view",
					"type": "function"
				},
				{
					"inputs": [],
					"name": "Owner",
					"outputs": [
						{
							"internalType": "address payable",
							"name": "",
							"type": "address"
						}
					],
					"stateMutability": "view",
					"type": "function"
				},
				{
					"inputs": [],
					"name": "checkMintedCategoryWise",
					"outputs": [
						{
							"internalType": "uint256",
							"name": "",
							"type": "uint256"
						},
						{
							"internalType": "uint256",
							"name": "",
							"type": "uint256"
						},
						{
							"internalType": "uint256",
							"name": "",
							"type": "uint256"
						}
					],
					"stateMutability": "view",
					"type": "function"
				},
				{
					"inputs": [],
					"name": "checkTotalMinted",
					"outputs": [
						{
							"internalType": "uint256",
							"name": "",
							"type": "uint256"
						}
					],
					"stateMutability": "view",
					"type": "function"
				},
				{
					"inputs": [],
					"name": "openDropsite",
					"outputs": [],
					"stateMutability": "nonpayable",
					"type": "function"
				},
				{
					"inputs": [
						{
							"internalType": "uint256",
							"name": "_mintFee",
							"type": "uint256"
						}
					],
					"name": "setMintFee",
					"outputs": [],
					"stateMutability": "nonpayable",
					"type": "function"
				},
				{
					"inputs": [],
					"name": "stopDropsite",
					"outputs": [],
					"stateMutability": "nonpayable",
					"type": "function"
				},
				{
					"inputs": [
						{
							"internalType": "address payable",
							"name": "to",
							"type": "address"
						}
					],
					"name": "withDraw",
					"outputs": [],
					"stateMutability": "payable",
					"type": "function"
				}
			],
			"devdoc": {
				"kind": "dev",
				"methods": {},
				"version": 1
			},
			"evm": {
				"assembly": "    /* \"Dropsite.sol\":241:257  string  data =\"\" */\n  0xa0\n    /* \"Dropsite.sol\":146:6129  contract Dropsite is ERC1155_Dropsite  { ... */\n  0x40\n    /* \"Dropsite.sol\":241:257  string  data =\"\" */\n  dup2\n  swap1\n  mstore\n  0x00\n    /* \"Dropsite.sol\":146:6129  contract Dropsite is ERC1155_Dropsite  { ... */\n  0x80\n    /* \"Dropsite.sol\":241:257  string  data =\"\" */\n  dup2\n  swap1\n  mstore\n  tag_1\n  swap2\n  0x02\n  swap2\n  tag_2\n  jump\t// in\ntag_1:\n  pop\n    /* \"Dropsite.sol\":440:506  uint8[20] private nums = [0,1,1,2,2,2,2,2,2,2,2,2,2,2,2,2,2,2,2,2] */\n  0x40\n  dup1\n  mload\n  0x0280\n  dup2\n  add\n  dup3\n  mstore\n  0x00\n  dup2\n  mstore\n    /* \"Dropsite.sol\":468:469  1 */\n  0x01\n    /* \"Dropsite.sol\":440:506  uint8[20] private nums = [0,1,1,2,2,2,2,2,2,2,2,2,2,2,2,2,2,2,2,2] */\n  0x20\n  dup3\n  add\n  dup2\n  swap1\n  mstore\n  swap2\n  dup2\n  add\n  swap2\n  swap1\n  swap2\n  mstore\n    /* \"Dropsite.sol\":472:473  2 */\n  0x02\n    /* \"Dropsite.sol\":440:506  uint8[20] private nums = [0,1,1,2,2,2,2,2,2,2,2,2,2,2,2,2,2,2,2,2] */\n  0x60\n  dup3\n  add\n  dup2\n  swap1\n  mstore\n  0x80\n  dup3\n  add\n  dup2\n  swap1\n  mstore\n  0xa0\n  dup3\n  add\n  dup2\n  swap1\n  mstore\n  0xc0\n  dup3\n  add\n  dup2\n  swap1\n  mstore\n  0xe0\n  dup3\n  add\n  dup2\n  swap1\n  mstore\n  0x0100\n  dup3\n  add\n  dup2\n  swap1\n  mstore\n  0x0120\n  dup3\n  add\n  dup2\n  swap1\n  mstore\n  0x0140\n  dup3\n  add\n  dup2\n  swap1\n  mstore\n  0x0160\n  dup3\n  add\n  dup2\n  swap1\n  mstore\n  0x0180\n  dup3\n  add\n  dup2\n  swap1\n  mstore\n  0x01a0\n  dup3\n  add\n  dup2\n  swap1\n  mstore\n  0x01c0\n  dup3\n  add\n  dup2\n  swap1\n  mstore\n  0x01e0\n  dup3\n  add\n  dup2\n  swap1\n  mstore\n  0x0200\n  dup3\n  add\n  dup2\n  swap1\n  mstore\n  0x0220\n  dup3\n  add\n  dup2\n  swap1\n  mstore\n  0x0240\n  dup3\n  add\n  dup2\n  swap1\n  mstore\n  0x0260\n  dup3\n  add\n  mstore\n  tag_3\n  swap1\n  0x03\n  swap1\n  0x14\n  tag_4\n  jump\t// in\ntag_3:\n  pop\n    /* \"Dropsite.sol\":1251:1278  bool public IsPaused = true */\n  0x0c\n  dup1\n  sload\n  not(0xff)\n  and\n    /* \"Dropsite.sol\":1274:1278  true */\n  0x01\n    /* \"Dropsite.sol\":1251:1278  bool public IsPaused = true */\n  or\n  swap1\n  sstore\n    /* \"Dropsite.sol\":1345:1620  constructor (string memory name){... */\n  callvalue\n  dup1\n  iszero\n  tag_5\n  jumpi\n  0x00\n  dup1\n  revert\ntag_5:\n  pop\n  mload(0x40)\n  sub(codesize, bytecodeSize)\n  dup1\n  bytecodeSize\n  dup4\n  codecopy\n  dup2\n  add\n  0x40\n  dup2\n  swap1\n  mstore\n  tag_6\n  swap2\n  tag_7\n  jump\t// in\ntag_6:\n    /* \"Dropsite.sol\":1387:1399  _name = name */\n  dup1\n  mload\n  tag_10\n  swap1\n    /* \"Dropsite.sol\":1387:1392  _name */\n  0x0d\n  swap1\n    /* \"Dropsite.sol\":1387:1399  _name = name */\n  0x20\n  dup5\n  add\n  swap1\n  tag_2\n  jump\t// in\ntag_10:\n  pop\n  pop\n    /* \"Dropsite.sol\":1409:1414  Owner */\n  0x0c\n    /* \"Dropsite.sol\":1409:1436  Owner = payable(msg.sender) */\n  dup1\n  sload\n  not(sub(shl(0xa8, 0x01), 0x0100))\n  and\n    /* \"Dropsite.sol\":1425:1435  msg.sender */\n  caller\n    /* \"Dropsite.sol\":1409:1436  Owner = payable(msg.sender) */\n  0x0100\n  mul\n  or\n  swap1\n  sstore\n  0x00\n    /* \"Dropsite.sol\":1447:1462  TotalNFTsMinted */\n  0x04\n    /* \"Dropsite.sol\":1447:1464  TotalNFTsMinted=0 */\n  dup2\n  swap1\n  sstore\n  0x01\n    /* \"Dropsite.sol\":1498:1509  numOfCopies */\n  0x05\n    /* \"Dropsite.sol\":1498:1511  numOfCopies=1 */\n  sstore\n  0x07\n    /* \"Dropsite.sol\":1558:1567  Diamond=0 */\n  dup2\n  swap1\n  sstore\n  0x08\n    /* \"Dropsite.sol\":1589:1595  Gold=0 */\n  dup2\n  swap1\n  sstore\n    /* \"Dropsite.sol\":1605:1611  Silver */\n  0x09\n    /* \"Dropsite.sol\":1605:1613  Silver=0 */\n  sstore\n    /* \"Dropsite.sol\":146:6129  contract Dropsite is ERC1155_Dropsite  { ... */\n  jump(tag_28)\ntag_2:\n  dup3\n  dup1\n  sload\n  tag_12\n  swap1\n  tag_13\n  jump\t// in\ntag_12:\n  swap1\n  0x00\n  mstore\n  keccak256(0x00, 0x20)\n  swap1\n  0x1f\n  add\n  0x20\n  swap1\n  div\n  dup2\n  add\n  swap3\n  dup3\n  tag_15\n  jumpi\n  0x00\n  dup6\n  sstore\n  jump(tag_18)\ntag_15:\n  dup3\n  0x1f\n  lt\n  tag_16\n  jumpi\n  dup1\n  mload\n  not(0xff)\n  and\n  dup4\n  dup1\n  add\n  or\n  dup6\n  sstore\n  jump(tag_18)\ntag_16:\n  dup3\n  dup1\n  add\n  0x01\n  add\n  dup6\n  sstore\n  dup3\n  iszero\n  tag_18\n  jumpi\n  swap2\n  dup3\n  add\ntag_17:\n  dup3\n  dup2\n  gt\n  iszero\n  tag_18\n  jumpi\n  dup3\n  mload\n  dup3\n  sstore\n  swap2\n  0x20\n  add\n  swap2\n  swap1\n  0x01\n  add\n  swap1\n  jump(tag_17)\ntag_18:\n  pop\n  tag_19\n  swap3\n  swap2\n  pop\n  tag_20\n  jump\t// in\ntag_19:\n  pop\n  swap1\n  jump\t// out\ntag_4:\n  0x01\n  dup4\n  add\n  swap2\n  dup4\n  swap1\n  dup3\n  iszero\n  tag_18\n  jumpi\n  swap2\n  0x20\n  mul\n  dup3\n  add\n  0x00\ntag_22:\n  dup4\n  dup3\n  gt\n  iszero\n  tag_23\n  jumpi\n  dup4\n  mload\n  dup4\n  dup3\n  0x0100\n  exp\n  dup2\n  sload\n  dup2\n  0xff\n  mul\n  not\n  and\n  swap1\n  dup4\n  0xff\n  and\n  mul\n  or\n  swap1\n  sstore\n  pop\n  swap3\n  0x20\n  add\n  swap3\n  0x01\n  add\n  0x20\n  dup2\n  0x00\n  add\n  div\n  swap3\n  dup4\n  add\n  swap3\n  0x01\n  sub\n  mul\n  jump(tag_22)\ntag_23:\n  dup1\n  iszero\n  tag_24\n  jumpi\n  dup3\n  dup2\n  0x0100\n  exp\n  dup2\n  sload\n  swap1\n  0xff\n  mul\n  not\n  and\n  swap1\n  sstore\n  0x01\n  add\n  0x20\n  dup2\n  0x00\n  add\n  div\n  swap3\n  dup4\n  add\n  swap3\n  0x01\n  sub\n  mul\n  jump(tag_23)\ntag_24:\n  pop\n  pop\n  tag_19\n  swap3\n  swap2\n  pop\ntag_20:\ntag_26:\n  dup1\n  dup3\n  gt\n  iszero\n  tag_19\n  jumpi\n  0x00\n  dup2\n  sstore\n  0x01\n  add\n  jump(tag_26)\n    /* \"#utility.yul\":14:1101   */\ntag_7:\n    /* \"#utility.yul\":94:100   */\n  0x00\n    /* \"#utility.yul\":125:127   */\n  0x20\n    /* \"#utility.yul\":168:170   */\n  dup1\n    /* \"#utility.yul\":156:165   */\n  dup4\n    /* \"#utility.yul\":147:154   */\n  dup6\n    /* \"#utility.yul\":143:166   */\n  sub\n    /* \"#utility.yul\":139:171   */\n  slt\n    /* \"#utility.yul\":136:188   */\n  iszero\n  tag_30\n  jumpi\n    /* \"#utility.yul\":184:185   */\n  0x00\n    /* \"#utility.yul\":181:182   */\n  dup1\n    /* \"#utility.yul\":174:186   */\n  revert\n    /* \"#utility.yul\":136:188   */\ntag_30:\n    /* \"#utility.yul\":211:227   */\n  dup3\n  mload\n  sub(shl(0x40, 0x01), 0x01)\n    /* \"#utility.yul\":276:290   */\n  dup1\n  dup3\n  gt\n    /* \"#utility.yul\":273:307   */\n  iszero\n  tag_31\n  jumpi\n    /* \"#utility.yul\":303:304   */\n  0x00\n    /* \"#utility.yul\":300:301   */\n  dup1\n    /* \"#utility.yul\":293:305   */\n  revert\n    /* \"#utility.yul\":273:307   */\ntag_31:\n    /* \"#utility.yul\":341:347   */\n  dup2\n    /* \"#utility.yul\":330:339   */\n  dup6\n    /* \"#utility.yul\":326:348   */\n  add\n    /* \"#utility.yul\":316:348   */\n  swap2\n  pop\n    /* \"#utility.yul\":386:393   */\n  dup6\n    /* \"#utility.yul\":379:383   */\n  0x1f\n    /* \"#utility.yul\":375:377   */\n  dup4\n    /* \"#utility.yul\":371:384   */\n  add\n    /* \"#utility.yul\":367:394   */\n  slt\n    /* \"#utility.yul\":357:412   */\n  tag_32\n  jumpi\n    /* \"#utility.yul\":408:409   */\n  0x00\n    /* \"#utility.yul\":405:406   */\n  dup1\n    /* \"#utility.yul\":398:410   */\n  revert\n    /* \"#utility.yul\":357:412   */\ntag_32:\n    /* \"#utility.yul\":437:439   */\n  dup2\n    /* \"#utility.yul\":431:440   */\n  mload\n    /* \"#utility.yul\":459:461   */\n  dup2\n    /* \"#utility.yul\":455:457   */\n  dup2\n    /* \"#utility.yul\":452:462   */\n  gt\n    /* \"#utility.yul\":449:485   */\n  iszero\n  tag_34\n  jumpi\n    /* \"#utility.yul\":465:483   */\n  tag_34\n  tag_35\n  jump\t// in\ntag_34:\n    /* \"#utility.yul\":540:542   */\n  0x40\n    /* \"#utility.yul\":534:543   */\n  mload\n    /* \"#utility.yul\":508:510   */\n  0x1f\n    /* \"#utility.yul\":594:607   */\n  dup3\n  add\n  not(0x1f)\n    /* \"#utility.yul\":590:612   */\n  swap1\n  dup2\n  and\n    /* \"#utility.yul\":614:616   */\n  0x3f\n    /* \"#utility.yul\":586:617   */\n  add\n    /* \"#utility.yul\":582:622   */\n  and\n    /* \"#utility.yul\":570:623   */\n  dup2\n  add\n  swap1\n    /* \"#utility.yul\":638:656   */\n  dup4\n  dup3\n  gt\n    /* \"#utility.yul\":658:680   */\n  dup2\n  dup4\n  lt\n    /* \"#utility.yul\":635:681   */\n  or\n    /* \"#utility.yul\":632:704   */\n  iszero\n  tag_37\n  jumpi\n    /* \"#utility.yul\":684:702   */\n  tag_37\n  tag_35\n  jump\t// in\ntag_37:\n    /* \"#utility.yul\":724:734   */\n  dup2\n    /* \"#utility.yul\":720:722   */\n  0x40\n    /* \"#utility.yul\":713:735   */\n  mstore\n    /* \"#utility.yul\":759:761   */\n  dup3\n    /* \"#utility.yul\":751:757   */\n  dup2\n    /* \"#utility.yul\":744:762   */\n  mstore\n    /* \"#utility.yul\":799:806   */\n  dup9\n    /* \"#utility.yul\":794:796   */\n  dup7\n    /* \"#utility.yul\":789:791   */\n  dup5\n    /* \"#utility.yul\":785:787   */\n  dup8\n    /* \"#utility.yul\":781:792   */\n  add\n    /* \"#utility.yul\":777:797   */\n  add\n    /* \"#utility.yul\":774:807   */\n  gt\n    /* \"#utility.yul\":771:824   */\n  iszero\n  tag_38\n  jumpi\n    /* \"#utility.yul\":820:821   */\n  0x00\n    /* \"#utility.yul\":817:818   */\n  dup1\n    /* \"#utility.yul\":810:822   */\n  revert\n    /* \"#utility.yul\":771:824   */\ntag_38:\n    /* \"#utility.yul\":842:843   */\n  0x00\n    /* \"#utility.yul\":833:843   */\n  swap4\n  pop\n    /* \"#utility.yul\":852:981   */\ntag_39:\n    /* \"#utility.yul\":866:868   */\n  dup3\n    /* \"#utility.yul\":863:864   */\n  dup5\n    /* \"#utility.yul\":860:869   */\n  lt\n    /* \"#utility.yul\":852:981   */\n  iszero\n  tag_41\n  jumpi\n    /* \"#utility.yul\":954:964   */\n  dup5\n  dup5\n  add\n    /* \"#utility.yul\":950:969   */\n  dup7\n  add\n    /* \"#utility.yul\":944:970   */\n  mload\n    /* \"#utility.yul\":923:937   */\n  dup2\n  dup6\n  add\n    /* \"#utility.yul\":919:942   */\n  dup8\n  add\n    /* \"#utility.yul\":912:971   */\n  mstore\n    /* \"#utility.yul\":877:887   */\n  swap3\n  dup6\n  add\n  swap3\n    /* \"#utility.yul\":852:981   */\n  jump(tag_39)\ntag_41:\n    /* \"#utility.yul\":999:1001   */\n  dup3\n    /* \"#utility.yul\":996:997   */\n  dup5\n    /* \"#utility.yul\":993:1002   */\n  gt\n    /* \"#utility.yul\":990:1070   */\n  iszero\n  tag_42\n  jumpi\n    /* \"#utility.yul\":1058:1059   */\n  0x00\n    /* \"#utility.yul\":1053:1055   */\n  dup7\n    /* \"#utility.yul\":1048:1050   */\n  dup5\n    /* \"#utility.yul\":1040:1046   */\n  dup4\n    /* \"#utility.yul\":1036:1051   */\n  add\n    /* \"#utility.yul\":1032:1056   */\n  add\n    /* \"#utility.yul\":1025:1060   */\n  mstore\n    /* \"#utility.yul\":990:1070   */\ntag_42:\n    /* \"#utility.yul\":1089:1095   */\n  swap9\n    /* \"#utility.yul\":14:1101   */\n  swap8\n  pop\n  pop\n  pop\n  pop\n  pop\n  pop\n  pop\n  pop\n  jump\t// out\n    /* \"#utility.yul\":1106:1486   */\ntag_13:\n    /* \"#utility.yul\":1185:1186   */\n  0x01\n    /* \"#utility.yul\":1181:1193   */\n  dup2\n  dup2\n  shr\n  swap1\n    /* \"#utility.yul\":1228:1240   */\n  dup3\n  and\n  dup1\n    /* \"#utility.yul\":1249:1310   */\n  tag_44\n  jumpi\n    /* \"#utility.yul\":1303:1307   */\n  0x7f\n    /* \"#utility.yul\":1295:1301   */\n  dup3\n    /* \"#utility.yul\":1291:1308   */\n  and\n    /* \"#utility.yul\":1281:1308   */\n  swap2\n  pop\n    /* \"#utility.yul\":1249:1310   */\ntag_44:\n    /* \"#utility.yul\":1356:1358   */\n  0x20\n    /* \"#utility.yul\":1348:1354   */\n  dup3\n    /* \"#utility.yul\":1345:1359   */\n  lt\n    /* \"#utility.yul\":1325:1343   */\n  dup2\n    /* \"#utility.yul\":1322:1360   */\n  eq\n    /* \"#utility.yul\":1319:1480   */\n  iszero\n  tag_45\n  jumpi\n    /* \"#utility.yul\":1402:1412   */\n  0x4e487b71\n    /* \"#utility.yul\":1397:1400   */\n  0xe0\n    /* \"#utility.yul\":1393:1413   */\n  shl\n    /* \"#utility.yul\":1390:1391   */\n  0x00\n    /* \"#utility.yul\":1383:1414   */\n  mstore\n    /* \"#utility.yul\":1437:1441   */\n  0x22\n    /* \"#utility.yul\":1434:1435   */\n  0x04\n    /* \"#utility.yul\":1427:1442   */\n  mstore\n    /* \"#utility.yul\":1465:1469   */\n  0x24\n    /* \"#utility.yul\":1462:1463   */\n  0x00\n    /* \"#utility.yul\":1455:1470   */\n  revert\n    /* \"#utility.yul\":1319:1480   */\ntag_45:\n  pop\n    /* \"#utility.yul\":1106:1486   */\n  swap2\n  swap1\n  pop\n  jump\t// out\n    /* \"#utility.yul\":1491:1618   */\ntag_35:\n    /* \"#utility.yul\":1552:1562   */\n  0x4e487b71\n    /* \"#utility.yul\":1547:1550   */\n  0xe0\n    /* \"#utility.yul\":1543:1563   */\n  shl\n    /* \"#utility.yul\":1540:1541   */\n  0x00\n    /* \"#utility.yul\":1533:1564   */\n  mstore\n    /* \"#utility.yul\":1583:1587   */\n  0x41\n    /* \"#utility.yul\":1580:1581   */\n  0x04\n    /* \"#utility.yul\":1573:1588   */\n  mstore\n    /* \"#utility.yul\":1607:1611   */\n  0x24\n    /* \"#utility.yul\":1604:1605   */\n  0x00\n    /* \"#utility.yul\":1597:1612   */\n  revert\n    /* \"#utility.yul\":1491:1618   */\ntag_28:\n    /* \"Dropsite.sol\":146:6129  contract Dropsite is ERC1155_Dropsite  { ... */\n  dataSize(sub_0)\n  dup1\n  dataOffset(sub_0)\n  0x00\n  codecopy\n  0x00\n  return\nstop\n\nsub_0: assembly {\n        /* \"Dropsite.sol\":146:6129  contract Dropsite is ERC1155_Dropsite  { ... */\n      mstore(0x40, 0x80)\n      jumpi(tag_1, lt(calldatasize, 0x04))\n      shr(0xe0, calldataload(0x00))\n      dup1\n      0x3b668059\n      gt\n      tag_13\n      jumpi\n      dup1\n      0x3b668059\n      eq\n      tag_7\n      jumpi\n      dup1\n      0x3d65df70\n      eq\n      tag_8\n      jumpi\n      dup1\n      0x60daa851\n      eq\n      tag_9\n      jumpi\n      dup1\n      0xaa90c726\n      eq\n      tag_10\n      jumpi\n      dup1\n      0xb4a99a4e\n      eq\n      tag_11\n      jumpi\n      dup1\n      0xeddd0d9c\n      eq\n      tag_12\n      jumpi\n      0x00\n      dup1\n      revert\n    tag_13:\n      dup1\n      0x0390c11c\n      eq\n      tag_2\n      jumpi\n      dup1\n      0x0a67d2c7\n      eq\n      tag_3\n      jumpi\n      dup1\n      0x1309a563\n      eq\n      tag_4\n      jumpi\n      dup1\n      0x15460259\n      eq\n      tag_5\n      jumpi\n      dup1\n      0x32b61b4c\n      eq\n      tag_6\n      jumpi\n    tag_1:\n      0x00\n      dup1\n      revert\n        /* \"Dropsite.sol\":1932:2036  function checkTotalMinted() public view OnlyOwner returns(uint){... */\n    tag_2:\n      callvalue\n      dup1\n      iszero\n      tag_14\n      jumpi\n      0x00\n      dup1\n      revert\n    tag_14:\n      pop\n      tag_15\n      tag_16\n      jump\t// in\n    tag_15:\n      mload(0x40)\n        /* \"#utility.yul\":7925:7950   */\n      swap1\n      dup2\n      mstore\n        /* \"#utility.yul\":7913:7915   */\n      0x20\n        /* \"#utility.yul\":7898:7916   */\n      add\n        /* \"Dropsite.sol\":1932:2036  function checkTotalMinted() public view OnlyOwner returns(uint){... */\n    tag_17:\n      mload(0x40)\n      dup1\n      swap2\n      sub\n      swap1\n      return\n        /* \"Dropsite.sol\":2415:2629  function withDraw(address payable to) public payable OnlyOwner {... */\n    tag_3:\n      tag_19\n      tag_20\n      calldatasize\n      0x04\n      tag_34\n      jump\t// in\n    tag_20:\n      tag_22\n      jump\t// in\n    tag_19:\n      stop\n        /* \"Dropsite.sol\":1251:1278  bool public IsPaused = true */\n    tag_4:\n      callvalue\n      dup1\n      iszero\n      tag_23\n      jumpi\n      0x00\n      dup1\n      revert\n    tag_23:\n      pop\n      sload(0x0c)\n      tag_24\n      swap1\n      0xff\n      and\n      dup2\n      jump\n    tag_24:\n      mload(0x40)\n        /* \"#utility.yul\":3811:3825   */\n      swap1\n      iszero\n        /* \"#utility.yul\":3804:3826   */\n      iszero\n        /* \"#utility.yul\":3786:3827   */\n      dup2\n      mstore\n        /* \"#utility.yul\":3774:3776   */\n      0x20\n        /* \"#utility.yul\":3759:3777   */\n      add\n        /* \"Dropsite.sol\":1251:1278  bool public IsPaused = true */\n      tag_17\n        /* \"#utility.yul\":3646:3833   */\n      jump\n        /* \"Dropsite.sol\":2184:2320  function openDropsite() public OnlyOwner {... */\n    tag_5:\n      callvalue\n      dup1\n      iszero\n      tag_28\n      jumpi\n      0x00\n      dup1\n      revert\n    tag_28:\n      pop\n      tag_19\n      tag_30\n      jump\t// in\n        /* \"Dropsite.sol\":4896:5342  function FiatRandomMint(address user_addr) OnlyOwner contractIsNotPaused public returns (uint,string memory) {... */\n    tag_6:\n      callvalue\n      dup1\n      iszero\n      tag_31\n      jumpi\n      0x00\n      dup1\n      revert\n    tag_31:\n      pop\n      tag_32\n      tag_33\n      calldatasize\n      0x04\n      tag_34\n      jump\t// in\n    tag_33:\n      tag_35\n      jump\t// in\n    tag_32:\n      mload(0x40)\n      tag_17\n      swap3\n      swap2\n      swap1\n      tag_37\n      jump\t// in\n        /* \"Dropsite.sol\":2682:2790  function ContractBalance() public view OnlyOwner returns (uint){... */\n    tag_7:\n      callvalue\n      dup1\n      iszero\n      tag_38\n      jumpi\n      0x00\n      dup1\n      revert\n    tag_38:\n      pop\n      tag_15\n      tag_40\n      jump\t// in\n        /* \"Dropsite.sol\":5559:6127  function CryptoRandomMint(address user_addr)  contractIsNotPaused public payable returns (uint,string memory) {... */\n    tag_8:\n      tag_32\n      tag_43\n      calldatasize\n      0x04\n      tag_34\n      jump\t// in\n    tag_43:\n      tag_44\n      jump\t// in\n        /* \"Dropsite.sol\":1674:1801  function checkMintedCategoryWise() public view OnlyOwner returns(uint,uint,uint){... */\n    tag_9:\n      callvalue\n      dup1\n      iszero\n      tag_46\n      jumpi\n      0x00\n      dup1\n      revert\n    tag_46:\n      pop\n      tag_47\n      tag_48\n      jump\t// in\n    tag_47:\n      0x40\n      dup1\n      mload\n        /* \"#utility.yul\":8712:8737   */\n      swap4\n      dup5\n      mstore\n        /* \"#utility.yul\":8768:8770   */\n      0x20\n        /* \"#utility.yul\":8753:8771   */\n      dup5\n      add\n        /* \"#utility.yul\":8746:8780   */\n      swap3\n      swap1\n      swap3\n      mstore\n        /* \"#utility.yul\":8796:8814   */\n      swap1\n      dup3\n      add\n        /* \"#utility.yul\":8789:8823   */\n      mstore\n        /* \"#utility.yul\":8700:8702   */\n      0x60\n        /* \"#utility.yul\":8685:8703   */\n      add\n        /* \"Dropsite.sol\":1674:1801  function checkMintedCategoryWise() public view OnlyOwner returns(uint,uint,uint){... */\n      tag_17\n        /* \"#utility.yul\":8510:8829   */\n      jump\n        /* \"Dropsite.sol\":2042:2177  function stopDropsite() public OnlyOwner{... */\n    tag_10:\n      callvalue\n      dup1\n      iszero\n      tag_51\n      jumpi\n      0x00\n      dup1\n      revert\n    tag_51:\n      pop\n      tag_19\n      tag_53\n      jump\t// in\n        /* \"Dropsite.sol\":1284:1313  address payable public  Owner */\n    tag_11:\n      callvalue\n      dup1\n      iszero\n      tag_54\n      jumpi\n      0x00\n      dup1\n      revert\n    tag_54:\n      pop\n      sload(0x0c)\n      tag_55\n      swap1\n      0x0100\n      swap1\n      div\n      sub(shl(0xa0, 0x01), 0x01)\n      and\n      dup2\n      jump\n    tag_55:\n      mload(0x40)\n      sub(shl(0xa0, 0x01), 0x01)\n        /* \"#utility.yul\":3034:3066   */\n      swap1\n      swap2\n      and\n        /* \"#utility.yul\":3016:3067   */\n      dup2\n      mstore\n        /* \"#utility.yul\":3004:3006   */\n      0x20\n        /* \"#utility.yul\":2989:3007   */\n      add\n        /* \"Dropsite.sol\":1284:1313  address payable public  Owner */\n      tag_17\n        /* \"#utility.yul\":2854:3073   */\n      jump\n        /* \"Dropsite.sol\":1807:1893  function setMintFee(uint _mintFee) public OnlyOwner {... */\n    tag_12:\n      callvalue\n      dup1\n      iszero\n      tag_59\n      jumpi\n      0x00\n      dup1\n      revert\n    tag_59:\n      pop\n      tag_19\n      tag_61\n      calldatasize\n      0x04\n      tag_62\n      jump\t// in\n    tag_61:\n      tag_63\n      jump\t// in\n        /* \"Dropsite.sol\":1932:2036  function checkTotalMinted() public view OnlyOwner returns(uint){... */\n    tag_16:\n        /* \"Dropsite.sol\":1023:1028  Owner */\n      sload(0x0c)\n        /* \"Dropsite.sol\":1990:1994  uint */\n      0x00\n      swap1\n        /* \"Dropsite.sol\":1023:1028  Owner */\n      0x0100\n      swap1\n      div\n      sub(shl(0xa0, 0x01), 0x01)\n      and\n        /* \"Context.sol\":719:729  msg.sender */\n      caller\n      sub(shl(0xa0, 0x01), 0x01)\n        /* \"Dropsite.sol\":1007:1028  _msgSender() == Owner */\n      and\n      eq\n        /* \"Dropsite.sol\":999:1061  require(_msgSender() == Owner, \"Only NFT-ES Owner can Access\") */\n      tag_67\n      jumpi\n      mload(0x40)\n      shl(0xe5, 0x461bcd)\n      dup2\n      mstore\n      0x04\n      add\n      tag_68\n      swap1\n      tag_69\n      jump\t// in\n    tag_68:\n      mload(0x40)\n      dup1\n      swap2\n      sub\n      swap1\n      revert\n    tag_67:\n      pop\n        /* \"Dropsite.sol\":2013:2028  TotalNFTsMinted */\n      sload(0x04)\n        /* \"Dropsite.sol\":1071:1072  _ */\n    tag_70:\n        /* \"Dropsite.sol\":1932:2036  function checkTotalMinted() public view OnlyOwner returns(uint){... */\n      swap1\n      jump\t// out\n        /* \"Dropsite.sol\":2415:2629  function withDraw(address payable to) public payable OnlyOwner {... */\n    tag_22:\n        /* \"Dropsite.sol\":1023:1028  Owner */\n      sload(0x0c)\n      0x0100\n      swap1\n      div\n      sub(shl(0xa0, 0x01), 0x01)\n      and\n        /* \"Context.sol\":719:729  msg.sender */\n      caller\n      sub(shl(0xa0, 0x01), 0x01)\n        /* \"Dropsite.sol\":1007:1028  _msgSender() == Owner */\n      and\n      eq\n        /* \"Dropsite.sol\":999:1061  require(_msgSender() == Owner, \"Only NFT-ES Owner can Access\") */\n      tag_73\n      jumpi\n      mload(0x40)\n      shl(0xe5, 0x461bcd)\n      dup2\n      mstore\n      0x04\n      add\n      tag_68\n      swap1\n      tag_69\n      jump\t// in\n    tag_73:\n        /* \"Dropsite.sol\":2503:2524  address(this).balance */\n      selfbalance\n        /* \"Dropsite.sol\":2542:2557  Balance > 0 wei */\n      dup1\n        /* \"Dropsite.sol\":2534:2591  require(Balance > 0 wei, \"Error! No Balance to withdraw\") */\n      tag_76\n      jumpi\n      mload(0x40)\n      shl(0xe5, 0x461bcd)\n      dup2\n      mstore\n        /* \"#utility.yul\":7221:7223   */\n      0x20\n        /* \"Dropsite.sol\":2534:2591  require(Balance > 0 wei, \"Error! No Balance to withdraw\") */\n      0x04\n      dup3\n      add\n        /* \"#utility.yul\":7203:7224   */\n      mstore\n        /* \"#utility.yul\":7260:7262   */\n      0x1d\n        /* \"#utility.yul\":7240:7258   */\n      0x24\n      dup3\n      add\n        /* \"#utility.yul\":7233:7263   */\n      mstore\n        /* \"#utility.yul\":7299:7330   */\n      0x4572726f7221204e6f2042616c616e636520746f207769746864726177000000\n        /* \"#utility.yul\":7279:7297   */\n      0x44\n      dup3\n      add\n        /* \"#utility.yul\":7272:7331   */\n      mstore\n        /* \"#utility.yul\":7348:7366   */\n      0x64\n      add\n        /* \"Dropsite.sol\":2534:2591  require(Balance > 0 wei, \"Error! No Balance to withdraw\") */\n      tag_68\n        /* \"#utility.yul\":7019:7372   */\n      jump\n        /* \"Dropsite.sol\":2534:2591  require(Balance > 0 wei, \"Error! No Balance to withdraw\") */\n    tag_76:\n        /* \"Dropsite.sol\":2602:2622  to.transfer(Balance) */\n      mload(0x40)\n      sub(shl(0xa0, 0x01), 0x01)\n        /* \"Dropsite.sol\":2602:2613  to.transfer */\n      dup4\n      and\n      swap1\n        /* \"Dropsite.sol\":2602:2622  to.transfer(Balance) */\n      dup3\n      iszero\n      0x08fc\n      mul\n      swap1\n        /* \"Dropsite.sol\":2614:2621  Balance */\n      dup4\n      swap1\n        /* \"Dropsite.sol\":2602:2622  to.transfer(Balance) */\n      0x00\n      dup2\n      dup2\n      dup2\n        /* \"Dropsite.sol\":2614:2621  Balance */\n      dup6\n        /* \"Dropsite.sol\":2602:2613  to.transfer */\n      dup9\n        /* \"Dropsite.sol\":2602:2622  to.transfer(Balance) */\n      dup9\n      call\n      swap4\n      pop\n      pop\n      pop\n      pop\n      iszero\n      dup1\n      iszero\n      tag_80\n      jumpi\n      returndatasize\n      0x00\n      dup1\n      returndatacopy\n      revert(0x00, returndatasize)\n    tag_80:\n      pop\n        /* \"Dropsite.sol\":2478:2629  {... */\n      pop\n        /* \"Dropsite.sol\":2415:2629  function withDraw(address payable to) public payable OnlyOwner {... */\n      pop\n      jump\t// out\n        /* \"Dropsite.sol\":2184:2320  function openDropsite() public OnlyOwner {... */\n    tag_30:\n        /* \"Dropsite.sol\":1023:1028  Owner */\n      sload(0x0c)\n      0x0100\n      swap1\n      div\n      sub(shl(0xa0, 0x01), 0x01)\n      and\n        /* \"Context.sol\":719:729  msg.sender */\n      caller\n      sub(shl(0xa0, 0x01), 0x01)\n        /* \"Dropsite.sol\":1007:1028  _msgSender() == Owner */\n      and\n      eq\n        /* \"Dropsite.sol\":999:1061  require(_msgSender() == Owner, \"Only NFT-ES Owner can Access\") */\n      tag_83\n      jumpi\n      mload(0x40)\n      shl(0xe5, 0x461bcd)\n      dup2\n      mstore\n      0x04\n      add\n      tag_68\n      swap1\n      tag_69\n      jump\t// in\n    tag_83:\n        /* \"Dropsite.sol\":2243:2251  IsPaused */\n      and(0xff, sload(0x0c))\n        /* \"Dropsite.sol\":2243:2257  IsPaused==true */\n      iszero\n      iszero\n        /* \"Dropsite.sol\":2243:2251  IsPaused */\n      0x01\n        /* \"Dropsite.sol\":2243:2257  IsPaused==true */\n      eq\n        /* \"Dropsite.sol\":2235:2289  require(IsPaused==true, \"Dropsite is already Running\") */\n      tag_86\n      jumpi\n      mload(0x40)\n      shl(0xe5, 0x461bcd)\n      dup2\n      mstore\n        /* \"#utility.yul\":5442:5444   */\n      0x20\n        /* \"Dropsite.sol\":2235:2289  require(IsPaused==true, \"Dropsite is already Running\") */\n      0x04\n      dup3\n      add\n        /* \"#utility.yul\":5424:5445   */\n      mstore\n        /* \"#utility.yul\":5481:5483   */\n      0x1b\n        /* \"#utility.yul\":5461:5479   */\n      0x24\n      dup3\n      add\n        /* \"#utility.yul\":5454:5484   */\n      mstore\n        /* \"#utility.yul\":5520:5549   */\n      0x44726f707369746520697320616c72656164792052756e6e696e670000000000\n        /* \"#utility.yul\":5500:5518   */\n      0x44\n      dup3\n      add\n        /* \"#utility.yul\":5493:5550   */\n      mstore\n        /* \"#utility.yul\":5567:5585   */\n      0x64\n      add\n        /* \"Dropsite.sol\":2235:2289  require(IsPaused==true, \"Dropsite is already Running\") */\n      tag_68\n        /* \"#utility.yul\":5240:5591   */\n      jump\n        /* \"Dropsite.sol\":2235:2289  require(IsPaused==true, \"Dropsite is already Running\") */\n    tag_86:\n        /* \"Dropsite.sol\":2299:2307  IsPaused */\n      0x0c\n        /* \"Dropsite.sol\":2299:2313  IsPaused=false */\n      dup1\n      sload\n      not(0xff)\n      and\n      swap1\n      sstore\n        /* \"Dropsite.sol\":2184:2320  function openDropsite() public OnlyOwner {... */\n      jump\t// out\n        /* \"Dropsite.sol\":4896:5342  function FiatRandomMint(address user_addr) OnlyOwner contractIsNotPaused public returns (uint,string memory) {... */\n    tag_35:\n        /* \"Dropsite.sol\":1023:1028  Owner */\n      sload(0x0c)\n        /* \"Dropsite.sol\":4985:4989  uint */\n      0x00\n      swap1\n        /* \"Dropsite.sol\":4990:5003  string memory */\n      0x60\n      swap1\n        /* \"Dropsite.sol\":1023:1028  Owner */\n      0x0100\n      swap1\n      div\n      sub(shl(0xa0, 0x01), 0x01)\n      and\n        /* \"Context.sol\":719:729  msg.sender */\n      caller\n      sub(shl(0xa0, 0x01), 0x01)\n        /* \"Dropsite.sol\":1007:1028  _msgSender() == Owner */\n      and\n      eq\n        /* \"Dropsite.sol\":999:1061  require(_msgSender() == Owner, \"Only NFT-ES Owner can Access\") */\n      tag_91\n      jumpi\n      mload(0x40)\n      shl(0xe5, 0x461bcd)\n      dup2\n      mstore\n      0x04\n      add\n      tag_68\n      swap1\n      tag_69\n      jump\t// in\n    tag_91:\n        /* \"Dropsite.sol\":1176:1184  IsPaused */\n      and(0xff, sload(0x0c))\n        /* \"Dropsite.sol\":1176:1193  IsPaused == false */\n      iszero\n        /* \"Dropsite.sol\":1167:1226  require (IsPaused == false, \"Dropsite is not Opened Yet.\" ) */\n      tag_94\n      jumpi\n      mload(0x40)\n      shl(0xe5, 0x461bcd)\n      dup2\n      mstore\n      0x04\n      add\n      tag_68\n      swap1\n      tag_96\n      jump\t// in\n    tag_94:\n        /* \"Dropsite.sol\":5036:5040  1000 */\n      0x03e8\n        /* \"Dropsite.sol\":5020:5035  TotalNFTsMinted */\n      sload(0x04)\n        /* \"Dropsite.sol\":5020:5040  TotalNFTsMinted<1000 */\n      lt\n        /* \"Dropsite.sol\":5012:5070  require(TotalNFTsMinted<1000, \"Max Minting Limit reached\") */\n      tag_98\n      jumpi\n      mload(0x40)\n      shl(0xe5, 0x461bcd)\n      dup2\n      mstore\n        /* \"#utility.yul\":6867:6869   */\n      0x20\n        /* \"Dropsite.sol\":5012:5070  require(TotalNFTsMinted<1000, \"Max Minting Limit reached\") */\n      0x04\n      dup3\n      add\n        /* \"#utility.yul\":6849:6870   */\n      mstore\n        /* \"#utility.yul\":6906:6908   */\n      0x19\n        /* \"#utility.yul\":6886:6904   */\n      0x24\n      dup3\n      add\n        /* \"#utility.yul\":6879:6909   */\n      mstore\n      shl(0x3a, 0x13585e08135a5b9d1a5b99c8131a5b5a5d081c995858da1959)\n        /* \"#utility.yul\":6925:6943   */\n      0x44\n      dup3\n      add\n        /* \"#utility.yul\":6918:6973   */\n      mstore\n        /* \"#utility.yul\":6990:7008   */\n      0x64\n      add\n        /* \"Dropsite.sol\":5012:5070  require(TotalNFTsMinted<1000, \"Max Minting Limit reached\") */\n      tag_68\n        /* \"#utility.yul\":6665:7014   */\n      jump\n        /* \"Dropsite.sol\":5012:5070  require(TotalNFTsMinted<1000, \"Max Minting Limit reached\") */\n    tag_98:\n        /* \"Dropsite.sol\":5133:5143  uint nftId */\n      0x00\n        /* \"Dropsite.sol\":5146:5164  updateConditions() */\n      tag_101\n        /* \"Dropsite.sol\":5146:5162  updateConditions */\n      tag_102\n        /* \"Dropsite.sol\":5146:5164  updateConditions() */\n      jump\t// in\n    tag_101:\n        /* \"Dropsite.sol\":5133:5164  uint nftId = updateConditions() */\n      swap1\n      pop\n        /* \"Dropsite.sol\":5170:5212  _mint(user_addr, nftId, numOfCopies, data) */\n      tag_103\n        /* \"Dropsite.sol\":5176:5185  user_addr */\n      dup5\n        /* \"Dropsite.sol\":5187:5192  nftId */\n      dup3\n        /* \"Dropsite.sol\":5194:5205  numOfCopies */\n      sload(0x05)\n        /* \"Dropsite.sol\":5207:5211  data */\n      0x02\n        /* \"Dropsite.sol\":5170:5212  _mint(user_addr, nftId, numOfCopies, data) */\n      dup1\n      sload\n      tag_104\n      swap1\n      tag_105\n      jump\t// in\n    tag_104:\n      dup1\n      0x1f\n      add\n      0x20\n      dup1\n      swap2\n      div\n      mul\n      0x20\n      add\n      mload(0x40)\n      swap1\n      dup2\n      add\n      0x40\n      mstore\n      dup1\n      swap3\n      swap2\n      swap1\n      dup2\n      dup2\n      mstore\n      0x20\n      add\n      dup3\n      dup1\n      sload\n      tag_106\n      swap1\n      tag_105\n      jump\t// in\n    tag_106:\n      dup1\n      iszero\n      tag_107\n      jumpi\n      dup1\n      0x1f\n      lt\n      tag_108\n      jumpi\n      0x0100\n      dup1\n      dup4\n      sload\n      div\n      mul\n      dup4\n      mstore\n      swap2\n      0x20\n      add\n      swap2\n      jump(tag_107)\n    tag_108:\n      dup3\n      add\n      swap2\n      swap1\n      0x00\n      mstore\n      keccak256(0x00, 0x20)\n      swap1\n    tag_109:\n      dup2\n      sload\n      dup2\n      mstore\n      swap1\n      0x01\n      add\n      swap1\n      0x20\n      add\n      dup1\n      dup4\n      gt\n      tag_109\n      jumpi\n      dup3\n      swap1\n      sub\n      0x1f\n      and\n      dup3\n      add\n      swap2\n    tag_107:\n      pop\n      pop\n      pop\n      pop\n      pop\n        /* \"Dropsite.sol\":5170:5175  _mint */\n      tag_110\n        /* \"Dropsite.sol\":5170:5212  _mint(user_addr, nftId, numOfCopies, data) */\n      jump\t// in\n    tag_103:\n        /* \"Dropsite.sol\":5218:5233  TotalNFTsMinted */\n      0x04\n        /* \"Dropsite.sol\":5218:5235  TotalNFTsMinted++ */\n      dup1\n      sload\n      swap1\n        /* \"Dropsite.sol\":5218:5233  TotalNFTsMinted */\n      0x00\n        /* \"Dropsite.sol\":5218:5235  TotalNFTsMinted++ */\n      tag_111\n      dup4\n      tag_112\n      jump\t// in\n    tag_111:\n      swap1\n      swap2\n      sstore\n      pop\n      pop\n      sub(shl(0xa0, 0x01), 0x01)\n        /* \"Dropsite.sol\":5241:5270  dropsite_NFT_Owner[user_addr] */\n      dup5\n      and\n      0x00\n      swap1\n      dup2\n      mstore\n        /* \"Dropsite.sol\":5241:5259  dropsite_NFT_Owner */\n      0x0a\n        /* \"Dropsite.sol\":5241:5270  dropsite_NFT_Owner[user_addr] */\n      0x20\n      swap1\n      dup2\n      mstore\n      0x40\n      dup3\n      keccak256\n        /* \"Dropsite.sol\":5241:5302  dropsite_NFT_Owner[user_addr].owned_Dropsite_NFTs.push(nftId) */\n      dup1\n      sload\n      0x01\n      dup2\n      add\n      dup3\n      sstore\n      swap1\n      dup4\n      mstore\n      swap2\n      keccak256\n      add\n      dup2\n      swap1\n      sstore\n        /* \"Dropsite.sol\":5329:5333  data */\n      0x02\n        /* \"Dropsite.sol\":5308:5335  return (nftId,string(data)) */\n      dup1\n      sload\n        /* \"Dropsite.sol\":5296:5301  nftId */\n      dup3\n      swap2\n        /* \"Dropsite.sol\":5329:5333  data */\n      swap1\n      dup2\n      swap1\n        /* \"Dropsite.sol\":5308:5335  return (nftId,string(data)) */\n      tag_114\n      swap1\n      tag_105\n      jump\t// in\n    tag_114:\n      dup1\n      0x1f\n      add\n      0x20\n      dup1\n      swap2\n      div\n      mul\n      0x20\n      add\n      mload(0x40)\n      swap1\n      dup2\n      add\n      0x40\n      mstore\n      dup1\n      swap3\n      swap2\n      swap1\n      dup2\n      dup2\n      mstore\n      0x20\n      add\n      dup3\n      dup1\n      sload\n      tag_115\n      swap1\n      tag_105\n      jump\t// in\n    tag_115:\n      dup1\n      iszero\n      tag_116\n      jumpi\n      dup1\n      0x1f\n      lt\n      tag_117\n      jumpi\n      0x0100\n      dup1\n      dup4\n      sload\n      div\n      mul\n      dup4\n      mstore\n      swap2\n      0x20\n      add\n      swap2\n      jump(tag_116)\n    tag_117:\n      dup3\n      add\n      swap2\n      swap1\n      0x00\n      mstore\n      keccak256(0x00, 0x20)\n      swap1\n    tag_118:\n      dup2\n      sload\n      dup2\n      mstore\n      swap1\n      0x01\n      add\n      swap1\n      0x20\n      add\n      dup1\n      dup4\n      gt\n      tag_118\n      jumpi\n      dup3\n      swap1\n      sub\n      0x1f\n      and\n      dup3\n      add\n      swap2\n    tag_116:\n      pop\n      pop\n      pop\n      pop\n      pop\n      swap1\n      pop\n      swap3\n      pop\n      swap3\n      pop\n      pop\n        /* \"Dropsite.sol\":4896:5342  function FiatRandomMint(address user_addr) OnlyOwner contractIsNotPaused public returns (uint,string memory) {... */\n      swap2\n      pop\n      swap2\n      jump\t// out\n        /* \"Dropsite.sol\":2682:2790  function ContractBalance() public view OnlyOwner returns (uint){... */\n    tag_40:\n        /* \"Dropsite.sol\":1023:1028  Owner */\n      sload(0x0c)\n        /* \"Dropsite.sol\":2740:2744  uint */\n      0x00\n      swap1\n        /* \"Dropsite.sol\":1023:1028  Owner */\n      0x0100\n      swap1\n      div\n      sub(shl(0xa0, 0x01), 0x01)\n      and\n        /* \"Context.sol\":719:729  msg.sender */\n      caller\n      sub(shl(0xa0, 0x01), 0x01)\n        /* \"Dropsite.sol\":1007:1028  _msgSender() == Owner */\n      and\n      eq\n        /* \"Dropsite.sol\":999:1061  require(_msgSender() == Owner, \"Only NFT-ES Owner can Access\") */\n      tag_121\n      jumpi\n      mload(0x40)\n      shl(0xe5, 0x461bcd)\n      dup2\n      mstore\n      0x04\n      add\n      tag_68\n      swap1\n      tag_69\n      jump\t// in\n    tag_121:\n      pop\n        /* \"Dropsite.sol\":2762:2783  address(this).balance */\n      selfbalance\n        /* \"Dropsite.sol\":2682:2790  function ContractBalance() public view OnlyOwner returns (uint){... */\n      swap1\n      jump\t// out\n        /* \"Dropsite.sol\":5559:6127  function CryptoRandomMint(address user_addr)  contractIsNotPaused public payable returns (uint,string memory) {... */\n    tag_44:\n        /* \"Dropsite.sol\":1176:1184  IsPaused */\n      sload(0x0c)\n        /* \"Dropsite.sol\":5649:5653  uint */\n      0x00\n      swap1\n        /* \"Dropsite.sol\":5654:5667  string memory */\n      0x60\n      swap1\n        /* \"Dropsite.sol\":1176:1184  IsPaused */\n      0xff\n      and\n        /* \"Dropsite.sol\":1176:1193  IsPaused == false */\n      iszero\n        /* \"Dropsite.sol\":1167:1226  require (IsPaused == false, \"Dropsite is not Opened Yet.\" ) */\n      tag_125\n      jumpi\n      mload(0x40)\n      shl(0xe5, 0x461bcd)\n      dup2\n      mstore\n      0x04\n      add\n      tag_68\n      swap1\n      tag_96\n      jump\t// in\n    tag_125:\n        /* \"Dropsite.sol\":5700:5704  1000 */\n      0x03e8\n        /* \"Dropsite.sol\":5684:5699  TotalNFTsMinted */\n      sload(0x04)\n        /* \"Dropsite.sol\":5684:5704  TotalNFTsMinted<1000 */\n      lt\n        /* \"Dropsite.sol\":5676:5734  require(TotalNFTsMinted<1000, \"Max Minting Limit reached\") */\n      tag_128\n      jumpi\n      mload(0x40)\n      shl(0xe5, 0x461bcd)\n      dup2\n      mstore\n        /* \"#utility.yul\":6867:6869   */\n      0x20\n        /* \"Dropsite.sol\":5676:5734  require(TotalNFTsMinted<1000, \"Max Minting Limit reached\") */\n      0x04\n      dup3\n      add\n        /* \"#utility.yul\":6849:6870   */\n      mstore\n        /* \"#utility.yul\":6906:6908   */\n      0x19\n        /* \"#utility.yul\":6886:6904   */\n      0x24\n      dup3\n      add\n        /* \"#utility.yul\":6879:6909   */\n      mstore\n      shl(0x3a, 0x13585e08135a5b9d1a5b99c8131a5b5a5d081c995858da1959)\n        /* \"#utility.yul\":6925:6943   */\n      0x44\n      dup3\n      add\n        /* \"#utility.yul\":6918:6973   */\n      mstore\n        /* \"#utility.yul\":6990:7008   */\n      0x64\n      add\n        /* \"Dropsite.sol\":5676:5734  require(TotalNFTsMinted<1000, \"Max Minting Limit reached\") */\n      tag_68\n        /* \"#utility.yul\":6665:7014   */\n      jump\n        /* \"Dropsite.sol\":5676:5734  require(TotalNFTsMinted<1000, \"Max Minting Limit reached\") */\n    tag_128:\n        /* \"Dropsite.sol\":5762:5770  mintFees */\n      sload(0x06)\n        /* \"Dropsite.sol\":5749:5758  msg.value */\n      callvalue\n        /* \"Dropsite.sol\":5749:5770  msg.value == mintFees */\n      eq\n        /* \"Dropsite.sol\":5741:5793  require(msg.value == mintFees, \"Not Enough Balance\") */\n      tag_130\n      jumpi\n      mload(0x40)\n      shl(0xe5, 0x461bcd)\n      dup2\n      mstore\n        /* \"#utility.yul\":5095:5097   */\n      0x20\n        /* \"Dropsite.sol\":5741:5793  require(msg.value == mintFees, \"Not Enough Balance\") */\n      0x04\n      dup3\n      add\n        /* \"#utility.yul\":5077:5098   */\n      mstore\n        /* \"#utility.yul\":5134:5136   */\n      0x12\n        /* \"#utility.yul\":5114:5132   */\n      0x24\n      dup3\n      add\n        /* \"#utility.yul\":5107:5137   */\n      mstore\n      shl(0x70, 0x4e6f7420456e6f7567682042616c616e6365)\n        /* \"#utility.yul\":5153:5171   */\n      0x44\n      dup3\n      add\n        /* \"#utility.yul\":5146:5194   */\n      mstore\n        /* \"#utility.yul\":5211:5229   */\n      0x64\n      add\n        /* \"Dropsite.sol\":5741:5793  require(msg.value == mintFees, \"Not Enough Balance\") */\n      tag_68\n        /* \"#utility.yul\":4893:5235   */\n      jump\n        /* \"Dropsite.sol\":5741:5793  require(msg.value == mintFees, \"Not Enough Balance\") */\n    tag_130:\n        /* \"Dropsite.sol\":5874:5884  uint nftId */\n      0x00\n        /* \"Dropsite.sol\":5887:5905  updateConditions() */\n      tag_133\n        /* \"Dropsite.sol\":5887:5903  updateConditions */\n      tag_102\n        /* \"Dropsite.sol\":5887:5905  updateConditions() */\n      jump\t// in\n    tag_133:\n        /* \"Dropsite.sol\":5874:5905  uint nftId = updateConditions() */\n      swap1\n      pop\n        /* \"Dropsite.sol\":5911:5953  _mint(user_addr, nftId, numOfCopies, data) */\n      tag_134\n        /* \"Dropsite.sol\":5917:5926  user_addr */\n      dup5\n        /* \"Dropsite.sol\":5928:5933  nftId */\n      dup3\n        /* \"Dropsite.sol\":5935:5946  numOfCopies */\n      sload(0x05)\n        /* \"Dropsite.sol\":5948:5952  data */\n      0x02\n        /* \"Dropsite.sol\":5911:5953  _mint(user_addr, nftId, numOfCopies, data) */\n      dup1\n      sload\n      tag_104\n      swap1\n      tag_105\n      jump\t// in\n    tag_134:\n        /* \"Dropsite.sol\":5959:5997  depositAmount(_msgSender(), msg.value) */\n      tag_103\n        /* \"Context.sol\":719:729  msg.sender */\n      caller\n        /* \"Dropsite.sol\":5987:5996  msg.value */\n      callvalue\n        /* \"Dropsite.sol\":5959:5972  depositAmount */\n      tag_142\n        /* \"Dropsite.sol\":5959:5997  depositAmount(_msgSender(), msg.value) */\n      jump\t// in\n        /* \"Dropsite.sol\":1674:1801  function checkMintedCategoryWise() public view OnlyOwner returns(uint,uint,uint){... */\n    tag_48:\n        /* \"Dropsite.sol\":1023:1028  Owner */\n      sload(0x0c)\n        /* \"Dropsite.sol\":1739:1743  uint */\n      0x00\n      swap1\n      dup2\n      swap1\n      dup2\n      swap1\n        /* \"Dropsite.sol\":1023:1028  Owner */\n      0x0100\n      swap1\n      div\n      sub(shl(0xa0, 0x01), 0x01)\n      and\n        /* \"Context.sol\":719:729  msg.sender */\n      caller\n      sub(shl(0xa0, 0x01), 0x01)\n        /* \"Dropsite.sol\":1007:1028  _msgSender() == Owner */\n      and\n      eq\n        /* \"Dropsite.sol\":999:1061  require(_msgSender() == Owner, \"Only NFT-ES Owner can Access\") */\n      tag_152\n      jumpi\n      mload(0x40)\n      shl(0xe5, 0x461bcd)\n      dup2\n      mstore\n      0x04\n      add\n      tag_68\n      swap1\n      tag_69\n      jump\t// in\n    tag_152:\n      pop\n      pop\n        /* \"Dropsite.sol\":1773:1780  Diamond */\n      sload(0x07)\n        /* \"Dropsite.sol\":1781:1785  Gold */\n      sload(0x08)\n        /* \"Dropsite.sol\":1786:1792  Silver */\n      sload(0x09)\n        /* \"Dropsite.sol\":1773:1780  Diamond */\n      swap2\n      swap4\n        /* \"Dropsite.sol\":1781:1785  Gold */\n      swap1\n      swap3\n      pop\n        /* \"Dropsite.sol\":1674:1801  function checkMintedCategoryWise() public view OnlyOwner returns(uint,uint,uint){... */\n      jump\t// out\n        /* \"Dropsite.sol\":2042:2177  function stopDropsite() public OnlyOwner{... */\n    tag_53:\n        /* \"Dropsite.sol\":1023:1028  Owner */\n      sload(0x0c)\n      0x0100\n      swap1\n      div\n      sub(shl(0xa0, 0x01), 0x01)\n      and\n        /* \"Context.sol\":719:729  msg.sender */\n      caller\n      sub(shl(0xa0, 0x01), 0x01)\n        /* \"Dropsite.sol\":1007:1028  _msgSender() == Owner */\n      and\n      eq\n        /* \"Dropsite.sol\":999:1061  require(_msgSender() == Owner, \"Only NFT-ES Owner can Access\") */\n      tag_157\n      jumpi\n      mload(0x40)\n      shl(0xe5, 0x461bcd)\n      dup2\n      mstore\n      0x04\n      add\n      tag_68\n      swap1\n      tag_69\n      jump\t// in\n    tag_157:\n        /* \"Dropsite.sol\":2100:2108  IsPaused */\n      and(0xff, sload(0x0c))\n        /* \"Dropsite.sol\":2100:2115  IsPaused==false */\n      iszero\n        /* \"Dropsite.sol\":2092:2147  require(IsPaused==false, \"Dropsite is already Stopped\") */\n      tag_160\n      jumpi\n      mload(0x40)\n      shl(0xe5, 0x461bcd)\n      dup2\n      mstore\n        /* \"#utility.yul\":5798:5800   */\n      0x20\n        /* \"Dropsite.sol\":2092:2147  require(IsPaused==false, \"Dropsite is already Stopped\") */\n      0x04\n      dup3\n      add\n        /* \"#utility.yul\":5780:5801   */\n      mstore\n        /* \"#utility.yul\":5837:5839   */\n      0x1b\n        /* \"#utility.yul\":5817:5835   */\n      0x24\n      dup3\n      add\n        /* \"#utility.yul\":5810:5840   */\n      mstore\n        /* \"#utility.yul\":5876:5905   */\n      0x44726f707369746520697320616c72656164792053746f707065640000000000\n        /* \"#utility.yul\":5856:5874   */\n      0x44\n      dup3\n      add\n        /* \"#utility.yul\":5849:5906   */\n      mstore\n        /* \"#utility.yul\":5923:5941   */\n      0x64\n      add\n        /* \"Dropsite.sol\":2092:2147  require(IsPaused==false, \"Dropsite is already Stopped\") */\n      tag_68\n        /* \"#utility.yul\":5596:5947   */\n      jump\n        /* \"Dropsite.sol\":2092:2147  require(IsPaused==false, \"Dropsite is already Stopped\") */\n    tag_160:\n        /* \"Dropsite.sol\":2157:2165  IsPaused */\n      0x0c\n        /* \"Dropsite.sol\":2157:2170  IsPaused=true */\n      dup1\n      sload\n      not(0xff)\n      and\n        /* \"Dropsite.sol\":2166:2170  true */\n      0x01\n        /* \"Dropsite.sol\":2157:2170  IsPaused=true */\n      or\n      swap1\n      sstore\n        /* \"Dropsite.sol\":2042:2177  function stopDropsite() public OnlyOwner{... */\n      jump\t// out\n        /* \"Dropsite.sol\":1807:1893  function setMintFee(uint _mintFee) public OnlyOwner {... */\n    tag_63:\n        /* \"Dropsite.sol\":1023:1028  Owner */\n      sload(0x0c)\n      0x0100\n      swap1\n      div\n      sub(shl(0xa0, 0x01), 0x01)\n      and\n        /* \"Context.sol\":719:729  msg.sender */\n      caller\n      sub(shl(0xa0, 0x01), 0x01)\n        /* \"Dropsite.sol\":1007:1028  _msgSender() == Owner */\n      and\n      eq\n        /* \"Dropsite.sol\":999:1061  require(_msgSender() == Owner, \"Only NFT-ES Owner can Access\") */\n      tag_165\n      jumpi\n      mload(0x40)\n      shl(0xe5, 0x461bcd)\n      dup2\n      mstore\n      0x04\n      add\n      tag_68\n      swap1\n      tag_69\n      jump\t// in\n    tag_165:\n        /* \"Dropsite.sol\":1869:1877  mintFees */\n      0x06\n        /* \"Dropsite.sol\":1869:1886  mintFees=_mintFee */\n      sstore\n        /* \"Dropsite.sol\":1807:1893  function setMintFee(uint _mintFee) public OnlyOwner {... */\n      jump\t// out\n        /* \"Dropsite.sol\":3247:4849  function updateConditions() internal contractIsNotPaused returns(uint) {... */\n    tag_102:\n        /* \"Dropsite.sol\":1176:1184  IsPaused */\n      sload(0x0c)\n        /* \"Dropsite.sol\":3312:3316  uint */\n      0x00\n      swap1\n        /* \"Dropsite.sol\":1176:1184  IsPaused */\n      0xff\n      and\n        /* \"Dropsite.sol\":1176:1193  IsPaused == false */\n      iszero\n        /* \"Dropsite.sol\":1167:1226  require (IsPaused == false, \"Dropsite is not Opened Yet.\" ) */\n      tag_170\n      jumpi\n      mload(0x40)\n      shl(0xe5, 0x461bcd)\n      dup2\n      mstore\n      0x04\n      add\n      tag_68\n      swap1\n      tag_96\n      jump\t// in\n    tag_170:\n        /* \"Dropsite.sol\":3327:3337  uint index */\n      0x00\n        /* \"Dropsite.sol\":3340:3348  random() */\n      tag_173\n        /* \"Dropsite.sol\":3340:3346  random */\n      tag_174\n        /* \"Dropsite.sol\":3340:3348  random() */\n      jump\t// in\n    tag_173:\n        /* \"Dropsite.sol\":3327:3348  uint index = random() */\n      swap1\n      pop\n        /* \"Dropsite.sol\":3358:3368  uint nftId */\n      0x00\n        /* \"Dropsite.sol\":3371:3375  nums */\n      0x03\n        /* \"Dropsite.sol\":3376:3381  index */\n      dup3\n        /* \"Dropsite.sol\":3371:3382  nums[index] */\n      0x14\n      dup2\n      lt\n      tag_176\n      jumpi\n      tag_176\n      tag_177\n      jump\t// in\n    tag_176:\n      0x20\n      dup2\n      div\n      swap1\n      swap2\n      add\n      sload\n      0xff\n      0x1f\n      swap1\n      swap3\n      and\n      0x0100\n      exp\n      swap1\n      div\n      and\n      swap1\n      pop\n        /* \"Dropsite.sol\":3479:3489  nftId == 0 */\n      dup1\n      iszero\n        /* \"Dropsite.sol\":3479:3505  nftId == 0 && Diamond < 50 */\n      dup1\n      iszero\n      tag_179\n      jumpi\n      pop\n        /* \"Dropsite.sol\":3503:3505  50 */\n      0x32\n        /* \"Dropsite.sol\":3493:3500  Diamond */\n      sload(0x07)\n        /* \"Dropsite.sol\":3493:3505  Diamond < 50 */\n      lt\n        /* \"Dropsite.sol\":3479:3505  nftId == 0 && Diamond < 50 */\n    tag_179:\n        /* \"Dropsite.sol\":3476:4844  if(nftId == 0 && Diamond < 50) {... */\n      iszero\n      tag_180\n      jumpi\n        /* \"Dropsite.sol\":3522:3529  Diamond */\n      0x07\n        /* \"Dropsite.sol\":3522:3531  Diamond++ */\n      dup1\n      sload\n      swap1\n        /* \"Dropsite.sol\":3522:3529  Diamond */\n      0x00\n        /* \"Dropsite.sol\":3522:3531  Diamond++ */\n      tag_181\n      dup4\n      tag_112\n      jump\t// in\n    tag_181:\n      swap2\n      swap1\n      pop\n      sstore\n      pop\n        /* \"Dropsite.sol\":3587:3612  Strings.toString(Diamond) */\n      tag_182\n        /* \"Dropsite.sol\":3604:3611  Diamond */\n      sload(0x07)\n        /* \"Dropsite.sol\":3587:3603  Strings.toString */\n      tag_183\n        /* \"Dropsite.sol\":3587:3612  Strings.toString(Diamond) */\n      jump\t// in\n    tag_182:\n        /* \"Dropsite.sol\":3559:3613  abi.encodePacked(\"Diamond_\",Strings.toString(Diamond)) */\n      add(0x20, mload(0x40))\n      tag_184\n      swap2\n      swap1\n      tag_185\n      jump\t// in\n    tag_184:\n      mload(0x40)\n      0x20\n      dup2\n      dup4\n      sub\n      sub\n      dup2\n      mstore\n      swap1\n      0x40\n      mstore\n        /* \"Dropsite.sol\":3545:3549  data */\n      0x02\n        /* \"Dropsite.sol\":3545:3614  data = string(abi.encodePacked(\"Diamond_\",Strings.toString(Diamond))) */\n      swap1\n      dup1\n      mload\n      swap1\n      0x20\n      add\n      swap1\n      tag_186\n      swap3\n      swap2\n      swap1\n      tag_187\n      jump\t// in\n    tag_186:\n      pop\n        /* \"Dropsite.sol\":3648:3653  nftId */\n      swap2\n      pop\n        /* \"Dropsite.sol\":3641:3653  return nftId */\n      tag_70\n      swap1\n      pop\n      jump\n        /* \"Dropsite.sol\":3476:4844  if(nftId == 0 && Diamond < 50) {... */\n    tag_180:\n        /* \"Dropsite.sol\":3777:3778  1 */\n      0x01\n        /* \"Dropsite.sol\":3768:3773  nftId */\n      dup2\n        /* \"Dropsite.sol\":3768:3778  nftId <= 1 */\n      gt\n      iszero\n        /* \"Dropsite.sol\":3768:3792  nftId <= 1 && Gold < 100 */\n      dup1\n      iszero\n      tag_189\n      jumpi\n      pop\n        /* \"Dropsite.sol\":3789:3792  100 */\n      0x64\n        /* \"Dropsite.sol\":3782:3786  Gold */\n      sload(0x08)\n        /* \"Dropsite.sol\":3782:3792  Gold < 100 */\n      lt\n        /* \"Dropsite.sol\":3768:3792  nftId <= 1 && Gold < 100 */\n    tag_189:\n        /* \"Dropsite.sol\":3765:4844  if(nftId <= 1 && Gold < 100) {... */\n      iszero\n      tag_190\n      jumpi\n        /* \"Dropsite.sol\":3808:3812  Gold */\n      0x08\n        /* \"Dropsite.sol\":3808:3814  Gold++ */\n      dup1\n      sload\n      swap1\n        /* \"Dropsite.sol\":3808:3812  Gold */\n      0x00\n        /* \"Dropsite.sol\":3808:3814  Gold++ */\n      tag_191\n      dup4\n      tag_112\n      jump\t// in\n    tag_191:\n      swap2\n      swap1\n      pop\n      sstore\n      pop\n        /* \"Dropsite.sol\":3867:3889  Strings.toString(Gold) */\n      tag_192\n        /* \"Dropsite.sol\":3884:3888  Gold */\n      sload(0x08)\n        /* \"Dropsite.sol\":3867:3883  Strings.toString */\n      tag_183\n        /* \"Dropsite.sol\":3867:3889  Strings.toString(Gold) */\n      jump\t// in\n    tag_192:\n        /* \"Dropsite.sol\":3842:3890  abi.encodePacked(\"Gold_\",Strings.toString(Gold)) */\n      add(0x20, mload(0x40))\n      tag_184\n      swap2\n      swap1\n      tag_194\n      jump\t// in\n        /* \"Dropsite.sol\":3765:4844  if(nftId <= 1 && Gold < 100) {... */\n    tag_190:\n        /* \"Dropsite.sol\":4047:4048  2 */\n      0x02\n        /* \"Dropsite.sol\":4038:4043  nftId */\n      dup2\n        /* \"Dropsite.sol\":4038:4048  nftId <= 2 */\n      gt\n      iszero\n        /* \"Dropsite.sol\":4038:4065  nftId <= 2 && Silver <= 850 */\n      dup1\n      iszero\n      tag_197\n      jumpi\n      pop\n        /* \"Dropsite.sol\":4062:4065  850 */\n      0x0352\n        /* \"Dropsite.sol\":4052:4058  Silver */\n      sload(0x09)\n        /* \"Dropsite.sol\":4052:4065  Silver <= 850 */\n      gt\n      iszero\n        /* \"Dropsite.sol\":4038:4065  nftId <= 2 && Silver <= 850 */\n    tag_197:\n        /* \"Dropsite.sol\":4035:4844  if(nftId <= 2 && Silver <= 850) {... */\n      iszero\n      tag_198\n      jumpi\n        /* \"Dropsite.sol\":4081:4087  Silver */\n      0x09\n        /* \"Dropsite.sol\":4081:4089  Silver++ */\n      dup1\n      sload\n      swap1\n        /* \"Dropsite.sol\":4081:4087  Silver */\n      0x00\n        /* \"Dropsite.sol\":4081:4089  Silver++ */\n      tag_199\n      dup4\n      tag_112\n      jump\t// in\n    tag_199:\n      swap2\n      swap1\n      pop\n      sstore\n      pop\n        /* \"Dropsite.sol\":4149:4173  Strings.toString(Silver) */\n      tag_200\n        /* \"Dropsite.sol\":4166:4172  Silver */\n      sload(0x09)\n        /* \"Dropsite.sol\":4149:4165  Strings.toString */\n      tag_183\n        /* \"Dropsite.sol\":4149:4173  Strings.toString(Silver) */\n      jump\t// in\n    tag_200:\n        /* \"Dropsite.sol\":4122:4174  abi.encodePacked(\"Silver_\",Strings.toString(Silver)) */\n      add(0x20, mload(0x40))\n      tag_201\n      swap2\n      swap1\n      tag_202\n      jump\t// in\n    tag_201:\n      mload(0x40)\n      0x20\n      dup2\n      dup4\n      sub\n      sub\n      dup2\n      mstore\n      swap1\n      0x40\n      mstore\n        /* \"Dropsite.sol\":4108:4112  data */\n      0x02\n        /* \"Dropsite.sol\":4108:4175  data = string(abi.encodePacked(\"Silver_\",Strings.toString(Silver))) */\n      swap1\n      dup1\n      mload\n      swap1\n      0x20\n      add\n      swap1\n      tag_203\n      swap3\n      swap2\n      swap1\n      tag_187\n      jump\t// in\n    tag_203:\n        /* \"Dropsite.sol\":4103:4107  data */\n      0x02\n        /* \"Dropsite.sol\":4103:4175  data=data = string(abi.encodePacked(\"Silver_\",Strings.toString(Silver))) */\n      swap1\n      dup1\n      sload\n      tag_204\n      swap1\n      tag_105\n      jump\t// in\n    tag_204:\n      tag_186\n      swap3\n      swap2\n      swap1\n      tag_206\n      jump\t// in\n        /* \"Dropsite.sol\":4035:4844  if(nftId <= 2 && Silver <= 850) {... */\n    tag_198:\n        /* \"Dropsite.sol\":4426:4429  100 */\n      0x64\n        /* \"Dropsite.sol\":4419:4423  Gold */\n      sload(0x08)\n        /* \"Dropsite.sol\":4419:4429  Gold < 100 */\n      lt\n        /* \"Dropsite.sol\":4416:4835  if(Gold < 100) {... */\n      iszero\n      tag_208\n      jumpi\n      pop\n        /* \"Dropsite.sol\":4476:4480  Gold */\n      0x08\n        /* \"Dropsite.sol\":4476:4482  Gold++ */\n      dup1\n      sload\n        /* \"Dropsite.sol\":4457:4458  1 */\n      0x01\n      swap2\n        /* \"Dropsite.sol\":4476:4480  Gold */\n      0x00\n        /* \"Dropsite.sol\":4476:4482  Gold++ */\n      tag_191\n      dup4\n      tag_112\n      jump\t// in\n        /* \"Dropsite.sol\":4416:4835  if(Gold < 100) {... */\n    tag_208:\n      pop\n        /* \"Dropsite.sol\":4677:4684  Diamond */\n      0x07\n        /* \"Dropsite.sol\":4677:4686  Diamond++ */\n      dup1\n      sload\n        /* \"Dropsite.sol\":4658:4659  0 */\n      0x00\n      swap2\n      dup3\n        /* \"Dropsite.sol\":4677:4686  Diamond++ */\n      tag_181\n      dup4\n      tag_112\n      jump\t// in\n        /* \"ERC1155_Dropsite.sol\":835:1387  function _mint(... */\n    tag_110:\n      sub(shl(0xa0, 0x01), 0x01)\n        /* \"ERC1155_Dropsite.sol\":983:999  to != address(0) */\n      dup5\n      and\n        /* \"ERC1155_Dropsite.sol\":975:1037  require(to != address(0), \"ERC1155: mint to the zero address\") */\n      tag_219\n      jumpi\n      mload(0x40)\n      shl(0xe5, 0x461bcd)\n      dup2\n      mstore\n        /* \"#utility.yul\":7579:7581   */\n      0x20\n        /* \"ERC1155_Dropsite.sol\":975:1037  require(to != address(0), \"ERC1155: mint to the zero address\") */\n      0x04\n      dup3\n      add\n        /* \"#utility.yul\":7561:7582   */\n      mstore\n        /* \"#utility.yul\":7618:7620   */\n      0x21\n        /* \"#utility.yul\":7598:7616   */\n      0x24\n      dup3\n      add\n        /* \"#utility.yul\":7591:7621   */\n      mstore\n        /* \"#utility.yul\":7657:7691   */\n      0x455243313135353a206d696e7420746f20746865207a65726f20616464726573\n        /* \"#utility.yul\":7637:7655   */\n      0x44\n      dup3\n      add\n        /* \"#utility.yul\":7630:7692   */\n      mstore\n      shl(0xf8, 0x73)\n        /* \"#utility.yul\":7708:7726   */\n      0x64\n      dup3\n      add\n        /* \"#utility.yul\":7701:7732   */\n      mstore\n        /* \"#utility.yul\":7749:7768   */\n      0x84\n      add\n        /* \"ERC1155_Dropsite.sol\":975:1037  require(to != address(0), \"ERC1155: mint to the zero address\") */\n      tag_68\n        /* \"#utility.yul\":7377:7774   */\n      jump\n        /* \"ERC1155_Dropsite.sol\":975:1037  require(to != address(0), \"ERC1155: mint to the zero address\") */\n    tag_219:\n        /* \"Context.sol\":719:729  msg.sender */\n      caller\n        /* \"ERC1155_Dropsite.sol\":1090:1192  _beforeTokenTransfer(operator, address(0), to, _asSingletonArray(id), _asSingletonArray(amount), data) */\n      tag_223\n        /* \"Context.sol\":719:729  msg.sender */\n      dup2\n        /* \"ERC1155_Dropsite.sol\":1048:1064  address operator */\n      0x00\n        /* \"ERC1155_Dropsite.sol\":1133:1135  to */\n      dup8\n        /* \"ERC1155_Dropsite.sol\":1137:1158  _asSingletonArray(id) */\n      tag_224\n        /* \"ERC1155_Dropsite.sol\":1155:1157  id */\n      dup9\n        /* \"ERC1155_Dropsite.sol\":1137:1154  _asSingletonArray */\n      tag_225\n        /* \"ERC1155_Dropsite.sol\":1137:1158  _asSingletonArray(id) */\n      jump\t// in\n    tag_224:\n        /* \"ERC1155_Dropsite.sol\":1160:1185  _asSingletonArray(amount) */\n      tag_226\n        /* \"ERC1155_Dropsite.sol\":1178:1184  amount */\n      dup9\n        /* \"ERC1155_Dropsite.sol\":1160:1177  _asSingletonArray */\n      tag_225\n        /* \"ERC1155_Dropsite.sol\":1160:1185  _asSingletonArray(amount) */\n      jump\t// in\n    tag_226:\n        /* \"ERC1155_Dropsite.sol\":1394:1609  function _beforeTokenTransfer(... */\n      pop\n      pop\n      pop\n      pop\n      pop\n      jump\n        /* \"ERC1155_Dropsite.sol\":1090:1192  _beforeTokenTransfer(operator, address(0), to, _asSingletonArray(id), _asSingletonArray(amount), data) */\n    tag_223:\n        /* \"ERC1155_Dropsite.sol\":1202:1211  _balances */\n      0x00\n        /* \"ERC1155_Dropsite.sol\":1202:1215  _balances[id] */\n      dup5\n      dup2\n      mstore\n      0x20\n      dup2\n      dup2\n      mstore\n      0x40\n      dup1\n      dup4\n      keccak256\n      sub(shl(0xa0, 0x01), 0x01)\n        /* \"ERC1155_Dropsite.sol\":1202:1219  _balances[id][to] */\n      dup10\n      and\n      dup5\n      mstore\n      swap1\n      swap2\n      mstore\n      dup2\n      keccak256\n        /* \"ERC1155_Dropsite.sol\":1202:1229  _balances[id][to] += amount */\n      dup1\n      sload\n        /* \"ERC1155_Dropsite.sol\":1223:1229  amount */\n      dup6\n      swap3\n        /* \"ERC1155_Dropsite.sol\":1202:1211  _balances */\n      swap1\n        /* \"ERC1155_Dropsite.sol\":1202:1229  _balances[id][to] += amount */\n      tag_228\n      swap1\n        /* \"ERC1155_Dropsite.sol\":1223:1229  amount */\n      dup5\n      swap1\n        /* \"ERC1155_Dropsite.sol\":1202:1229  _balances[id][to] += amount */\n      tag_229\n      jump\t// in\n    tag_228:\n      swap1\n      swap2\n      sstore\n      pop\n      pop\n        /* \"ERC1155_Dropsite.sol\":1244:1296  TransferSingle(operator, address(0), to, id, amount) */\n      0x40\n      dup1\n      mload\n        /* \"#utility.yul\":8431:8456   */\n      dup6\n      dup2\n      mstore\n        /* \"#utility.yul\":8487:8489   */\n      0x20\n        /* \"#utility.yul\":8472:8490   */\n      dup2\n      add\n        /* \"#utility.yul\":8465:8499   */\n      dup6\n      swap1\n      mstore\n      sub(shl(0xa0, 0x01), 0x01)\n        /* \"ERC1155_Dropsite.sol\":1244:1296  TransferSingle(operator, address(0), to, id, amount) */\n      dup1\n      dup9\n      and\n      swap3\n        /* \"ERC1155_Dropsite.sol\":1277:1278  0 */\n      0x00\n      swap3\n        /* \"ERC1155_Dropsite.sol\":1244:1296  TransferSingle(operator, address(0), to, id, amount) */\n      swap2\n      dup6\n      and\n      swap2\n      0xc3d58168c5ae7397731d063d5bbf3d657854427343f4c083240f7aacaa2d0f62\n      swap2\n        /* \"#utility.yul\":8404:8422   */\n      add\n        /* \"ERC1155_Dropsite.sol\":1244:1296  TransferSingle(operator, address(0), to, id, amount) */\n      mload(0x40)\n      dup1\n      swap2\n      sub\n      swap1\n      log4\n        /* \"ERC1155_Dropsite.sol\":1306:1380  _doSafeTransferAcceptanceCheck(operator, address(0), to, id, amount, data) */\n      tag_226\n        /* \"ERC1155_Dropsite.sol\":1337:1345  operator */\n      dup2\n        /* \"ERC1155_Dropsite.sol\":1355:1356  0 */\n      0x00\n        /* \"ERC1155_Dropsite.sol\":1359:1361  to */\n      dup8\n        /* \"ERC1155_Dropsite.sol\":1363:1365  id */\n      dup8\n        /* \"ERC1155_Dropsite.sol\":1367:1373  amount */\n      dup8\n        /* \"ERC1155_Dropsite.sol\":1375:1379  data */\n      dup8\n        /* \"ERC1155_Dropsite.sol\":1306:1336  _doSafeTransferAcceptanceCheck */\n      tag_233\n        /* \"ERC1155_Dropsite.sol\":1306:1380  _doSafeTransferAcceptanceCheck(operator, address(0), to, id, amount, data) */\n      jump\t// in\n        /* \"Dropsite.sol\":5387:5506  function depositAmount(address payee,uint amountToDeposit) internal {... */\n    tag_142:\n      sub(shl(0xa0, 0x01), 0x01)\n        /* \"Dropsite.sol\":5465:5480  deposits[payee] */\n      dup3\n      and\n      0x00\n      swap1\n      dup2\n      mstore\n        /* \"Dropsite.sol\":5465:5473  deposits */\n      0x0b\n        /* \"Dropsite.sol\":5465:5480  deposits[payee] */\n      0x20\n      mstore\n      0x40\n      dup2\n      keccak256\n        /* \"Dropsite.sol\":5465:5499  deposits[payee] += amountToDeposit */\n      dup1\n      sload\n        /* \"Dropsite.sol\":5484:5499  amountToDeposit */\n      dup4\n      swap3\n        /* \"Dropsite.sol\":5465:5480  deposits[payee] */\n      swap1\n        /* \"Dropsite.sol\":5465:5499  deposits[payee] += amountToDeposit */\n      tag_235\n      swap1\n        /* \"Dropsite.sol\":5484:5499  amountToDeposit */\n      dup5\n      swap1\n        /* \"Dropsite.sol\":5465:5499  deposits[payee] += amountToDeposit */\n      tag_229\n      jump\t// in\n    tag_235:\n      swap1\n      swap2\n      sstore\n      pop\n      pop\n      pop\n      pop\n        /* \"Dropsite.sol\":5387:5506  function depositAmount(address payee,uint amountToDeposit) internal {... */\n      jump\t// out\n        /* \"Dropsite.sol\":2866:3062  function random() internal view returns (uint) {... */\n    tag_174:\n        /* \"Dropsite.sol\":2907:2911  uint */\n      0x00\n        /* \"Dropsite.sol\":2943:2960  uint randomnumber */\n      dup1\n        /* \"Dropsite.sol\":3028:3030  20 */\n      0x14\n        /* \"Dropsite.sol\":2995:3010  block.timestamp */\n      timestamp\n        /* \"Dropsite.sol\":3012:3022  msg.sender */\n      caller\n        /* \"Dropsite.sol\":2978:3023  abi.encodePacked(block.timestamp, msg.sender) */\n      add(0x20, mload(0x40))\n      tag_237\n      swap3\n      swap2\n      swap1\n        /* \"#utility.yul\":2712:2731   */\n      swap2\n      dup3\n      mstore\n        /* \"#utility.yul\":2769:2771   */\n      0x60\n        /* \"#utility.yul\":2765:2780   */\n      shl\n      not(0xffffffffffffffffffffffff)\n        /* \"#utility.yul\":2761:2814   */\n      and\n        /* \"#utility.yul\":2756:2758   */\n      0x20\n        /* \"#utility.yul\":2747:2759   */\n      dup3\n      add\n        /* \"#utility.yul\":2740:2815   */\n      mstore\n        /* \"#utility.yul\":2840:2842   */\n      0x34\n        /* \"#utility.yul\":2831:2843   */\n      add\n      swap1\n        /* \"#utility.yul\":2555:2849   */\n      jump\n        /* \"Dropsite.sol\":2978:3023  abi.encodePacked(block.timestamp, msg.sender) */\n    tag_237:\n      mload(0x40)\n      0x20\n      dup2\n      dup4\n      sub\n      sub\n      dup2\n      mstore\n      swap1\n      0x40\n      mstore\n        /* \"Dropsite.sol\":2968:3024  keccak256(abi.encodePacked(block.timestamp, msg.sender)) */\n      dup1\n      mload\n      swap1\n      0x20\n      add\n      keccak256\n        /* \"Dropsite.sol\":2963:3025  uint(keccak256(abi.encodePacked(block.timestamp, msg.sender))) */\n      0x00\n      shr\n        /* \"Dropsite.sol\":2963:3030  uint(keccak256(abi.encodePacked(block.timestamp, msg.sender))) % 20 */\n      tag_239\n      swap2\n      swap1\n      tag_240\n      jump\t// in\n    tag_239:\n        /* \"Dropsite.sol\":2943:3030  uint randomnumber = uint(keccak256(abi.encodePacked(block.timestamp, msg.sender))) % 20 */\n      swap3\n        /* \"Dropsite.sol\":2866:3062  function random() internal view returns (uint) {... */\n      swap2\n      pop\n      pop\n      jump\t// out\n        /* \"Strings.sol\":329:1032  function toString(uint256 value) internal pure returns (string memory) {... */\n    tag_183:\n        /* \"Strings.sol\":385:398  string memory */\n      0x60\n        /* \"Strings.sol\":602:612  value == 0 */\n      dup2\n        /* \"Strings.sol\":598:649  if (value == 0) {... */\n      tag_242\n      jumpi\n      pop\n      pop\n        /* \"Strings.sol\":628:638  return \"0\" */\n      0x40\n      dup1\n      mload\n      dup1\n      dup3\n      add\n      swap1\n      swap2\n      mstore\n      0x01\n      dup2\n      mstore\n      shl(0xfc, 0x03)\n      0x20\n      dup3\n      add\n      mstore\n      swap1\n        /* \"Strings.sol\":329:1032  function toString(uint256 value) internal pure returns (string memory) {... */\n      jump\t// out\n        /* \"Strings.sol\":598:649  if (value == 0) {... */\n    tag_242:\n        /* \"Strings.sol\":673:678  value */\n      dup2\n        /* \"Strings.sol\":658:670  uint256 temp */\n      0x00\n        /* \"Strings.sol\":712:787  while (temp != 0) {... */\n    tag_243:\n        /* \"Strings.sol\":719:728  temp != 0 */\n      dup2\n      iszero\n        /* \"Strings.sol\":712:787  while (temp != 0) {... */\n      tag_244\n      jumpi\n        /* \"Strings.sol\":744:752  digits++ */\n      dup1\n      tag_245\n      dup2\n      tag_112\n      jump\t// in\n    tag_245:\n      swap2\n      pop\n        /* \"Strings.sol\":766:776  temp /= 10 */\n      tag_246\n      swap1\n      pop\n        /* \"Strings.sol\":774:776  10 */\n      0x0a\n        /* \"Strings.sol\":766:776  temp /= 10 */\n      dup4\n      tag_247\n      jump\t// in\n    tag_246:\n      swap2\n      pop\n        /* \"Strings.sol\":712:787  while (temp != 0) {... */\n      jump(tag_243)\n    tag_244:\n        /* \"Strings.sol\":796:815  bytes memory buffer */\n      0x00\n        /* \"Strings.sol\":828:834  digits */\n      dup2\n        /* \"Strings.sol\":818:835  new bytes(digits) */\n      0xffffffffffffffff\n      dup2\n      gt\n      iszero\n      tag_249\n      jumpi\n      tag_249\n      tag_250\n      jump\t// in\n    tag_249:\n      mload(0x40)\n      swap1\n      dup1\n      dup3\n      mstore\n      dup1\n      0x1f\n      add\n      not(0x1f)\n      and\n      0x20\n      add\n      dup3\n      add\n      0x40\n      mstore\n      dup1\n      iszero\n      tag_251\n      jumpi\n      0x20\n      dup3\n      add\n      dup2\n      dup1\n      calldatasize\n      dup4\n      calldatacopy\n      add\n      swap1\n      pop\n    tag_251:\n      pop\n        /* \"Strings.sol\":796:835  bytes memory buffer = new bytes(digits) */\n      swap1\n      pop\n        /* \"Strings.sol\":845:995  while (value != 0) {... */\n    tag_252:\n        /* \"Strings.sol\":852:862  value != 0 */\n      dup5\n      iszero\n        /* \"Strings.sol\":845:995  while (value != 0) {... */\n      tag_253\n      jumpi\n        /* \"Strings.sol\":878:889  digits -= 1 */\n      tag_254\n        /* \"Strings.sol\":888:889  1 */\n      0x01\n        /* \"Strings.sol\":878:889  digits -= 1 */\n      dup4\n      tag_255\n      jump\t// in\n    tag_254:\n      swap2\n      pop\n        /* \"Strings.sol\":946:956  value % 10 */\n      tag_256\n        /* \"Strings.sol\":954:956  10 */\n      0x0a\n        /* \"Strings.sol\":946:951  value */\n      dup7\n        /* \"Strings.sol\":946:956  value % 10 */\n      tag_240\n      jump\t// in\n    tag_256:\n        /* \"Strings.sol\":933:957  48 + uint256(value % 10) */\n      tag_257\n      swap1\n        /* \"Strings.sol\":933:935  48 */\n      0x30\n        /* \"Strings.sol\":933:957  48 + uint256(value % 10) */\n      tag_229\n      jump\t// in\n    tag_257:\n        /* \"Strings.sol\":920:959  bytes1(uint8(48 + uint256(value % 10))) */\n      0xf8\n      shl\n        /* \"Strings.sol\":903:909  buffer */\n      dup2\n        /* \"Strings.sol\":910:916  digits */\n      dup4\n        /* \"Strings.sol\":903:917  buffer[digits] */\n      dup2\n      mload\n      dup2\n      lt\n      tag_259\n      jumpi\n      tag_259\n      tag_177\n      jump\t// in\n    tag_259:\n      0x20\n      add\n      add\n        /* \"Strings.sol\":903:959  buffer[digits] = bytes1(uint8(48 + uint256(value % 10))) */\n      swap1\n      not(sub(shl(0xf8, 0x01), 0x01))\n      and\n      swap1\n      dup2\n      0x00\n      byte\n      swap1\n      mstore8\n      pop\n        /* \"Strings.sol\":973:984  value /= 10 */\n      tag_260\n        /* \"Strings.sol\":982:984  10 */\n      0x0a\n        /* \"Strings.sol\":973:984  value /= 10 */\n      dup7\n      tag_247\n      jump\t// in\n    tag_260:\n      swap5\n      pop\n        /* \"Strings.sol\":845:995  while (value != 0) {... */\n      jump(tag_252)\n    tag_253:\n        /* \"Strings.sol\":1018:1024  buffer */\n      swap5\n        /* \"Strings.sol\":329:1032  function toString(uint256 value) internal pure returns (string memory) {... */\n      swap4\n      pop\n      pop\n      pop\n      pop\n      jump\t// out\n        /* \"ERC1155_Dropsite.sol\":2347:2540  function _asSingletonArray(uint256 element) private pure returns (uint256[] memory) {... */\n    tag_225:\n        /* \"ERC1155_Dropsite.sol\":2466:2482  new uint256[](1) */\n      0x40\n      dup1\n      mload\n        /* \"ERC1155_Dropsite.sol\":2480:2481  1 */\n      0x01\n        /* \"ERC1155_Dropsite.sol\":2466:2482  new uint256[](1) */\n      dup1\n      dup3\n      mstore\n      dup2\n      dup4\n      add\n      swap1\n      swap3\n      mstore\n        /* \"ERC1155_Dropsite.sol\":2413:2429  uint256[] memory */\n      0x60\n      swap2\n        /* \"ERC1155_Dropsite.sol\":2441:2463  uint256[] memory array */\n      0x00\n      swap2\n        /* \"ERC1155_Dropsite.sol\":2466:2482  new uint256[](1) */\n      swap1\n      0x20\n      dup1\n      dup4\n      add\n      swap1\n      dup1\n      calldatasize\n      dup4\n      calldatacopy\n      add\n      swap1\n      pop\n      pop\n        /* \"ERC1155_Dropsite.sol\":2441:2482  uint256[] memory array = new uint256[](1) */\n      swap1\n      pop\n        /* \"ERC1155_Dropsite.sol\":2503:2510  element */\n      dup3\n        /* \"ERC1155_Dropsite.sol\":2492:2497  array */\n      dup2\n        /* \"ERC1155_Dropsite.sol\":2498:2499  0 */\n      0x00\n        /* \"ERC1155_Dropsite.sol\":2492:2500  array[0] */\n      dup2\n      mload\n      dup2\n      lt\n      tag_266\n      jumpi\n      tag_266\n      tag_177\n      jump\t// in\n    tag_266:\n      0x20\n      swap1\n      dup2\n      mul\n      swap2\n      swap1\n      swap2\n      add\n      add\n        /* \"ERC1155_Dropsite.sol\":2492:2510  array[0] = element */\n      mstore\n        /* \"ERC1155_Dropsite.sol\":2528:2533  array */\n      swap3\n        /* \"ERC1155_Dropsite.sol\":2347:2540  function _asSingletonArray(uint256 element) private pure returns (uint256[] memory) {... */\n      swap2\n      pop\n      pop\n      jump\t// out\n        /* \"ERC1155_Dropsite.sol\":1394:1609  function _beforeTokenTransfer(... */\n    tag_227:\n      pop\n      pop\n      pop\n      pop\n      pop\n      pop\n      jump\t// out\n        /* \"ERC1155_Dropsite.sol\":1615:2341  function _doSafeTransferAcceptanceCheck(... */\n    tag_233:\n      sub(shl(0xa0, 0x01), 0x01)\n        /* \"ERC1155_Dropsite.sol\":1823:1836  to.isContract */\n      dup5\n      and\n        /* \"Address.sol\":1087:1107  extcodesize(account) */\n      extcodesize\n        /* \"Address.sol\":1133:1141  size > 0 */\n      iszero\n        /* \"ERC1155_Dropsite.sol\":1819:2335  if (to.isContract()) {... */\n      tag_227\n      jumpi\n        /* \"ERC1155_Dropsite.sol\":1858:1930  IERC1155Receiver(to).onERC1155Received(operator, from, id, amount, data) */\n      mload(0x40)\n      shl(0xe3, 0x15d13449)\n      dup2\n      mstore\n      sub(shl(0xa0, 0x01), 0x01)\n        /* \"ERC1155_Dropsite.sol\":1858:1896  IERC1155Receiver(to).onERC1155Received */\n      dup6\n      and\n      swap1\n      0xae89a248\n      swap1\n        /* \"ERC1155_Dropsite.sol\":1858:1930  IERC1155Receiver(to).onERC1155Received(operator, from, id, amount, data) */\n      tag_272\n      swap1\n        /* \"ERC1155_Dropsite.sol\":1897:1905  operator */\n      dup10\n      swap1\n        /* \"ERC1155_Dropsite.sol\":1907:1911  from */\n      dup10\n      swap1\n        /* \"ERC1155_Dropsite.sol\":1913:1915  id */\n      dup9\n      swap1\n        /* \"ERC1155_Dropsite.sol\":1917:1923  amount */\n      dup9\n      swap1\n        /* \"ERC1155_Dropsite.sol\":1925:1929  data */\n      dup9\n      swap1\n        /* \"ERC1155_Dropsite.sol\":1858:1930  IERC1155Receiver(to).onERC1155Received(operator, from, id, amount, data) */\n      0x04\n      add\n      tag_273\n      jump\t// in\n    tag_272:\n      0x20\n      mload(0x40)\n      dup1\n      dup4\n      sub\n      dup2\n      0x00\n      dup8\n      dup1\n      extcodesize\n      iszero\n      dup1\n      iszero\n      tag_274\n      jumpi\n      0x00\n      dup1\n      revert\n    tag_274:\n      pop\n      gas\n      call\n      swap3\n      pop\n      pop\n      pop\n      dup1\n      iszero\n      tag_275\n      jumpi\n      pop\n      0x40\n      dup1\n      mload\n      0x1f\n      returndatasize\n      swap1\n      dup2\n      add\n      not(0x1f)\n      and\n      dup3\n      add\n      swap1\n      swap3\n      mstore\n      tag_276\n      swap2\n      dup2\n      add\n      swap1\n      tag_277\n      jump\t// in\n    tag_276:\n      0x01\n    tag_275:\n        /* \"ERC1155_Dropsite.sol\":1854:2325  try IERC1155Receiver(to).onERC1155Received(operator, from, id, amount, data) returns (bytes4 response) {... */\n      tag_278\n      jumpi\n      tag_282\n      tag_283\n      jump\t// in\n    tag_282:\n      dup1\n      0x08c379a0\n      eq\n      iszero\n      tag_281\n      jumpi\n      pop\n      tag_284\n      tag_285\n      jump\t// in\n    tag_284:\n      dup1\n      tag_286\n      jumpi\n      pop\n      jump(tag_280)\n    tag_286:\n        /* \"ERC1155_Dropsite.sol\":2201:2207  reason */\n      dup1\n        /* \"ERC1155_Dropsite.sol\":2194:2208  revert(reason) */\n      mload(0x40)\n      shl(0xe5, 0x461bcd)\n      dup2\n      mstore\n      0x04\n      add\n      tag_68\n      swap2\n      swap1\n      tag_288\n      jump\t// in\n        /* \"ERC1155_Dropsite.sol\":1854:2325  try IERC1155Receiver(to).onERC1155Received(operator, from, id, amount, data) returns (bytes4 response) {... */\n    tag_281:\n      pop\n    tag_280:\n        /* \"ERC1155_Dropsite.sol\":2248:2310  revert(\"ERC1155: transfer to non ERC1155Receiver implementer\") */\n      mload(0x40)\n      shl(0xe5, 0x461bcd)\n      dup2\n      mstore\n        /* \"#utility.yul\":4265:4267   */\n      0x20\n        /* \"ERC1155_Dropsite.sol\":2248:2310  revert(\"ERC1155: transfer to non ERC1155Receiver implementer\") */\n      0x04\n      dup3\n      add\n        /* \"#utility.yul\":4247:4268   */\n      mstore\n        /* \"#utility.yul\":4304:4306   */\n      0x34\n        /* \"#utility.yul\":4284:4302   */\n      0x24\n      dup3\n      add\n        /* \"#utility.yul\":4277:4307   */\n      mstore\n        /* \"#utility.yul\":4343:4377   */\n      0x455243313135353a207472616e7366657220746f206e6f6e2045524331313535\n        /* \"#utility.yul\":4323:4341   */\n      0x44\n      dup3\n      add\n        /* \"#utility.yul\":4316:4378   */\n      mstore\n      shl(0x61, 0x2932b1b2b4bb32b91034b6b83632b6b2b73a32b9)\n        /* \"#utility.yul\":4394:4412   */\n      0x64\n      dup3\n      add\n        /* \"#utility.yul\":4387:4437   */\n      mstore\n        /* \"#utility.yul\":4454:4473   */\n      0x84\n      add\n        /* \"ERC1155_Dropsite.sol\":2248:2310  revert(\"ERC1155: transfer to non ERC1155Receiver implementer\") */\n      tag_68\n        /* \"#utility.yul\":4063:4479   */\n      jump\n        /* \"ERC1155_Dropsite.sol\":1854:2325  try IERC1155Receiver(to).onERC1155Received(operator, from, id, amount, data) returns (bytes4 response) {... */\n    tag_278:\n      not(sub(shl(0xe0, 0x01), 0x01))\n        /* \"ERC1155_Dropsite.sol\":1979:2034  response != IERC1155Receiver.onERC1155Received.selector */\n      dup2\n      and\n      shl(0xe3, 0x15d13449)\n      eq\n        /* \"ERC1155_Dropsite.sol\":1975:2127  if (response != IERC1155Receiver.onERC1155Received.selector) {... */\n      tag_292\n      jumpi\n        /* \"ERC1155_Dropsite.sol\":2058:2108  revert(\"ERC1155: ERC1155Receiver rejected tokens\") */\n      mload(0x40)\n      shl(0xe5, 0x461bcd)\n      dup2\n      mstore\n        /* \"#utility.yul\":4686:4688   */\n      0x20\n        /* \"ERC1155_Dropsite.sol\":2058:2108  revert(\"ERC1155: ERC1155Receiver rejected tokens\") */\n      0x04\n      dup3\n      add\n        /* \"#utility.yul\":4668:4689   */\n      mstore\n        /* \"#utility.yul\":4725:4727   */\n      0x28\n        /* \"#utility.yul\":4705:4723   */\n      0x24\n      dup3\n      add\n        /* \"#utility.yul\":4698:4728   */\n      mstore\n        /* \"#utility.yul\":4764:4798   */\n      0x455243313135353a204552433131353552656365697665722072656a65637465\n        /* \"#utility.yul\":4744:4762   */\n      0x44\n      dup3\n      add\n        /* \"#utility.yul\":4737:4799   */\n      mstore\n      shl(0xc0, 0x6420746f6b656e73)\n        /* \"#utility.yul\":4815:4833   */\n      0x64\n      dup3\n      add\n        /* \"#utility.yul\":4808:4846   */\n      mstore\n        /* \"#utility.yul\":4863:4882   */\n      0x84\n      add\n        /* \"ERC1155_Dropsite.sol\":2058:2108  revert(\"ERC1155: ERC1155Receiver rejected tokens\") */\n      tag_68\n        /* \"#utility.yul\":4484:4888   */\n      jump\n        /* \"ERC1155_Dropsite.sol\":1975:2127  if (response != IERC1155Receiver.onERC1155Received.selector) {... */\n    tag_292:\n        /* \"ERC1155_Dropsite.sol\":1931:2141  returns (bytes4 response) {... */\n      pop\n        /* \"ERC1155_Dropsite.sol\":1615:2341  function _doSafeTransferAcceptanceCheck(... */\n      pop\n      pop\n      pop\n      pop\n      pop\n      pop\n      jump\t// out\n    tag_187:\n      dup3\n      dup1\n      sload\n      tag_296\n      swap1\n      tag_105\n      jump\t// in\n    tag_296:\n      swap1\n      0x00\n      mstore\n      keccak256(0x00, 0x20)\n      swap1\n      0x1f\n      add\n      0x20\n      swap1\n      div\n      dup2\n      add\n      swap3\n      dup3\n      tag_298\n      jumpi\n      0x00\n      dup6\n      sstore\n      jump(tag_301)\n    tag_298:\n      dup3\n      0x1f\n      lt\n      tag_299\n      jumpi\n      dup1\n      mload\n      not(0xff)\n      and\n      dup4\n      dup1\n      add\n      or\n      dup6\n      sstore\n      jump(tag_301)\n    tag_299:\n      dup3\n      dup1\n      add\n      0x01\n      add\n      dup6\n      sstore\n      dup3\n      iszero\n      tag_301\n      jumpi\n      swap2\n      dup3\n      add\n    tag_300:\n      dup3\n      dup2\n      gt\n      iszero\n      tag_301\n      jumpi\n      dup3\n      mload\n      dup3\n      sstore\n      swap2\n      0x20\n      add\n      swap2\n      swap1\n      0x01\n      add\n      swap1\n      jump(tag_300)\n    tag_301:\n      pop\n      tag_302\n      swap3\n      swap2\n      pop\n      tag_303\n      jump\t// in\n    tag_302:\n      pop\n      swap1\n      jump\t// out\n    tag_206:\n      dup3\n      dup1\n      sload\n      tag_304\n      swap1\n      tag_105\n      jump\t// in\n    tag_304:\n      swap1\n      0x00\n      mstore\n      keccak256(0x00, 0x20)\n      swap1\n      0x1f\n      add\n      0x20\n      swap1\n      div\n      dup2\n      add\n      swap3\n      dup3\n      tag_306\n      jumpi\n      0x00\n      dup6\n      sstore\n      jump(tag_301)\n    tag_306:\n      dup3\n      0x1f\n      lt\n      tag_307\n      jumpi\n      dup1\n      sload\n      dup6\n      sstore\n      jump(tag_301)\n    tag_307:\n      dup3\n      dup1\n      add\n      0x01\n      add\n      dup6\n      sstore\n      dup3\n      iszero\n      tag_301\n      jumpi\n      0x00\n      mstore\n      keccak256(0x00, 0x20)\n      swap2\n      0x1f\n      add\n      0x20\n      swap1\n      div\n      dup3\n      add\n    tag_308:\n      dup3\n      dup2\n      gt\n      iszero\n      tag_301\n      jumpi\n      dup3\n      sload\n      dup3\n      sstore\n      swap2\n      0x01\n      add\n      swap2\n      swap1\n      0x01\n      add\n      swap1\n      jump(tag_308)\n    tag_303:\n    tag_311:\n      dup1\n      dup3\n      gt\n      iszero\n      tag_302\n      jumpi\n      0x00\n      dup2\n      sstore\n      0x01\n      add\n      jump(tag_311)\n        /* \"#utility.yul\":14:261   */\n    tag_34:\n        /* \"#utility.yul\":73:79   */\n      0x00\n        /* \"#utility.yul\":126:128   */\n      0x20\n        /* \"#utility.yul\":114:123   */\n      dup3\n        /* \"#utility.yul\":105:112   */\n      dup5\n        /* \"#utility.yul\":101:124   */\n      sub\n        /* \"#utility.yul\":97:129   */\n      slt\n        /* \"#utility.yul\":94:146   */\n      iszero\n      tag_315\n      jumpi\n        /* \"#utility.yul\":142:143   */\n      0x00\n        /* \"#utility.yul\":139:140   */\n      dup1\n        /* \"#utility.yul\":132:144   */\n      revert\n        /* \"#utility.yul\":94:146   */\n    tag_315:\n        /* \"#utility.yul\":181:190   */\n      dup2\n        /* \"#utility.yul\":168:191   */\n      calldataload\n        /* \"#utility.yul\":200:231   */\n      tag_316\n        /* \"#utility.yul\":225:230   */\n      dup2\n        /* \"#utility.yul\":200:231   */\n      tag_317\n      jump\t// in\n    tag_316:\n        /* \"#utility.yul\":250:255   */\n      swap4\n        /* \"#utility.yul\":14:261   */\n      swap3\n      pop\n      pop\n      pop\n      jump\t// out\n        /* \"#utility.yul\":526:816   */\n    tag_277:\n        /* \"#utility.yul\":595:601   */\n      0x00\n        /* \"#utility.yul\":648:650   */\n      0x20\n        /* \"#utility.yul\":636:645   */\n      dup3\n        /* \"#utility.yul\":627:634   */\n      dup5\n        /* \"#utility.yul\":623:646   */\n      sub\n        /* \"#utility.yul\":619:651   */\n      slt\n        /* \"#utility.yul\":616:668   */\n      iszero\n      tag_322\n      jumpi\n        /* \"#utility.yul\":664:665   */\n      0x00\n        /* \"#utility.yul\":661:662   */\n      dup1\n        /* \"#utility.yul\":654:666   */\n      revert\n        /* \"#utility.yul\":616:668   */\n    tag_322:\n        /* \"#utility.yul\":690:706   */\n      dup2\n      mload\n      not(sub(shl(0xe0, 0x01), 0x01))\n        /* \"#utility.yul\":735:767   */\n      dup2\n      and\n        /* \"#utility.yul\":725:768   */\n      dup2\n      eq\n        /* \"#utility.yul\":715:786   */\n      tag_316\n      jumpi\n        /* \"#utility.yul\":782:783   */\n      0x00\n        /* \"#utility.yul\":779:780   */\n      dup1\n        /* \"#utility.yul\":772:784   */\n      revert\n        /* \"#utility.yul\":821:1001   */\n    tag_62:\n        /* \"#utility.yul\":880:886   */\n      0x00\n        /* \"#utility.yul\":933:935   */\n      0x20\n        /* \"#utility.yul\":921:930   */\n      dup3\n        /* \"#utility.yul\":912:919   */\n      dup5\n        /* \"#utility.yul\":908:931   */\n      sub\n        /* \"#utility.yul\":904:936   */\n      slt\n        /* \"#utility.yul\":901:953   */\n      iszero\n      tag_325\n      jumpi\n        /* \"#utility.yul\":949:950   */\n      0x00\n        /* \"#utility.yul\":946:947   */\n      dup1\n        /* \"#utility.yul\":939:951   */\n      revert\n        /* \"#utility.yul\":901:953   */\n    tag_325:\n      pop\n        /* \"#utility.yul\":972:995   */\n      calldataload\n      swap2\n        /* \"#utility.yul\":821:1001   */\n      swap1\n      pop\n      jump\t// out\n        /* \"#utility.yul\":1006:1264   */\n    tag_326:\n        /* \"#utility.yul\":1048:1051   */\n      0x00\n        /* \"#utility.yul\":1086:1091   */\n      dup2\n        /* \"#utility.yul\":1080:1092   */\n      mload\n        /* \"#utility.yul\":1113:1119   */\n      dup1\n        /* \"#utility.yul\":1108:1111   */\n      dup5\n        /* \"#utility.yul\":1101:1120   */\n      mstore\n        /* \"#utility.yul\":1129:1192   */\n      tag_328\n        /* \"#utility.yul\":1185:1191   */\n      dup2\n        /* \"#utility.yul\":1178:1182   */\n      0x20\n        /* \"#utility.yul\":1173:1176   */\n      dup7\n        /* \"#utility.yul\":1169:1183   */\n      add\n        /* \"#utility.yul\":1162:1166   */\n      0x20\n        /* \"#utility.yul\":1155:1160   */\n      dup7\n        /* \"#utility.yul\":1151:1167   */\n      add\n        /* \"#utility.yul\":1129:1192   */\n      tag_329\n      jump\t// in\n    tag_328:\n        /* \"#utility.yul\":1246:1248   */\n      0x1f\n        /* \"#utility.yul\":1225:1240   */\n      add\n      not(0x1f)\n        /* \"#utility.yul\":1221:1250   */\n      and\n        /* \"#utility.yul\":1212:1251   */\n      swap3\n      swap1\n      swap3\n      add\n        /* \"#utility.yul\":1253:1257   */\n      0x20\n        /* \"#utility.yul\":1208:1258   */\n      add\n      swap3\n        /* \"#utility.yul\":1006:1264   */\n      swap2\n      pop\n      pop\n      jump\t// out\n        /* \"#utility.yul\":1269:1694   */\n    tag_185:\n      shl(0xc0, 0x4469616d6f6e645f)\n        /* \"#utility.yul\":1526:1529   */\n      dup2\n        /* \"#utility.yul\":1519:1542   */\n      mstore\n        /* \"#utility.yul\":1501:1504   */\n      0x00\n        /* \"#utility.yul\":1571:1577   */\n      dup3\n        /* \"#utility.yul\":1565:1578   */\n      mload\n        /* \"#utility.yul\":1587:1648   */\n      tag_331\n        /* \"#utility.yul\":1641:1647   */\n      dup2\n        /* \"#utility.yul\":1637:1638   */\n      0x08\n        /* \"#utility.yul\":1632:1635   */\n      dup6\n        /* \"#utility.yul\":1628:1639   */\n      add\n        /* \"#utility.yul\":1621:1625   */\n      0x20\n        /* \"#utility.yul\":1613:1619   */\n      dup8\n        /* \"#utility.yul\":1609:1626   */\n      add\n        /* \"#utility.yul\":1587:1648   */\n      tag_329\n      jump\t// in\n    tag_331:\n        /* \"#utility.yul\":1668:1684   */\n      swap2\n      swap1\n      swap2\n      add\n        /* \"#utility.yul\":1686:1687   */\n      0x08\n        /* \"#utility.yul\":1664:1688   */\n      add\n      swap3\n        /* \"#utility.yul\":1269:1694   */\n      swap2\n      pop\n      pop\n      jump\t// out\n        /* \"#utility.yul\":1699:2121   */\n    tag_194:\n      shl(0xd8, 0x476f6c645f)\n        /* \"#utility.yul\":1956:1959   */\n      dup2\n        /* \"#utility.yul\":1949:1969   */\n      mstore\n        /* \"#utility.yul\":1931:1934   */\n      0x00\n        /* \"#utility.yul\":1998:2004   */\n      dup3\n        /* \"#utility.yul\":1992:2005   */\n      mload\n        /* \"#utility.yul\":2014:2075   */\n      tag_333\n        /* \"#utility.yul\":2068:2074   */\n      dup2\n        /* \"#utility.yul\":2064:2065   */\n      0x05\n        /* \"#utility.yul\":2059:2062   */\n      dup6\n        /* \"#utility.yul\":2055:2066   */\n      add\n        /* \"#utility.yul\":2048:2052   */\n      0x20\n        /* \"#utility.yul\":2040:2046   */\n      dup8\n        /* \"#utility.yul\":2036:2053   */\n      add\n        /* \"#utility.yul\":2014:2075   */\n      tag_329\n      jump\t// in\n    tag_333:\n        /* \"#utility.yul\":2095:2111   */\n      swap2\n      swap1\n      swap2\n      add\n        /* \"#utility.yul\":2113:2114   */\n      0x05\n        /* \"#utility.yul\":2091:2115   */\n      add\n      swap3\n        /* \"#utility.yul\":1699:2121   */\n      swap2\n      pop\n      pop\n      jump\t// out\n        /* \"#utility.yul\":2126:2550   */\n    tag_202:\n      shl(0xc8, 0x53696c7665725f)\n        /* \"#utility.yul\":2383:2386   */\n      dup2\n        /* \"#utility.yul\":2376:2398   */\n      mstore\n        /* \"#utility.yul\":2358:2361   */\n      0x00\n        /* \"#utility.yul\":2427:2433   */\n      dup3\n        /* \"#utility.yul\":2421:2434   */\n      mload\n        /* \"#utility.yul\":2443:2504   */\n      tag_335\n        /* \"#utility.yul\":2497:2503   */\n      dup2\n        /* \"#utility.yul\":2493:2494   */\n      0x07\n        /* \"#utility.yul\":2488:2491   */\n      dup6\n        /* \"#utility.yul\":2484:2495   */\n      add\n        /* \"#utility.yul\":2477:2481   */\n      0x20\n        /* \"#utility.yul\":2469:2475   */\n      dup8\n        /* \"#utility.yul\":2465:2482   */\n      add\n        /* \"#utility.yul\":2443:2504   */\n      tag_329\n      jump\t// in\n    tag_335:\n        /* \"#utility.yul\":2524:2540   */\n      swap2\n      swap1\n      swap2\n      add\n        /* \"#utility.yul\":2542:2543   */\n      0x07\n        /* \"#utility.yul\":2520:2544   */\n      add\n      swap3\n        /* \"#utility.yul\":2126:2550   */\n      swap2\n      pop\n      pop\n      jump\t// out\n        /* \"#utility.yul\":3078:3641   */\n    tag_273:\n      sub(shl(0xa0, 0x01), 0x01)\n        /* \"#utility.yul\":3377:3392   */\n      dup7\n      dup2\n      and\n        /* \"#utility.yul\":3359:3393   */\n      dup3\n      mstore\n        /* \"#utility.yul\":3429:3444   */\n      dup6\n      and\n        /* \"#utility.yul\":3424:3426   */\n      0x20\n        /* \"#utility.yul\":3409:3427   */\n      dup3\n      add\n        /* \"#utility.yul\":3402:3445   */\n      mstore\n        /* \"#utility.yul\":3476:3478   */\n      0x40\n        /* \"#utility.yul\":3461:3479   */\n      dup2\n      add\n        /* \"#utility.yul\":3454:3488   */\n      dup5\n      swap1\n      mstore\n        /* \"#utility.yul\":3519:3521   */\n      0x60\n        /* \"#utility.yul\":3504:3522   */\n      dup2\n      add\n        /* \"#utility.yul\":3497:3531   */\n      dup4\n      swap1\n      mstore\n        /* \"#utility.yul\":3339:3342   */\n      0xa0\n        /* \"#utility.yul\":3562:3565   */\n      0x80\n        /* \"#utility.yul\":3547:3566   */\n      dup3\n      add\n        /* \"#utility.yul\":3540:3572   */\n      dup2\n      swap1\n      mstore\n        /* \"#utility.yul\":3302:3306   */\n      0x00\n      swap1\n        /* \"#utility.yul\":3589:3635   */\n      tag_339\n      swap1\n        /* \"#utility.yul\":3615:3634   */\n      dup4\n      add\n        /* \"#utility.yul\":3607:3613   */\n      dup5\n        /* \"#utility.yul\":3589:3635   */\n      tag_326\n      jump\t// in\n    tag_339:\n        /* \"#utility.yul\":3581:3635   */\n      swap8\n        /* \"#utility.yul\":3078:3641   */\n      swap7\n      pop\n      pop\n      pop\n      pop\n      pop\n      pop\n      pop\n      jump\t// out\n        /* \"#utility.yul\":3838:4058   */\n    tag_288:\n        /* \"#utility.yul\":3987:3989   */\n      0x20\n        /* \"#utility.yul\":3976:3985   */\n      dup2\n        /* \"#utility.yul\":3969:3990   */\n      mstore\n        /* \"#utility.yul\":3950:3954   */\n      0x00\n        /* \"#utility.yul\":4007:4052   */\n      tag_316\n        /* \"#utility.yul\":4048:4050   */\n      0x20\n        /* \"#utility.yul\":4037:4046   */\n      dup4\n        /* \"#utility.yul\":4033:4051   */\n      add\n        /* \"#utility.yul\":4025:4031   */\n      dup5\n        /* \"#utility.yul\":4007:4052   */\n      tag_326\n      jump\t// in\n        /* \"#utility.yul\":5952:6304   */\n    tag_69:\n        /* \"#utility.yul\":6154:6156   */\n      0x20\n        /* \"#utility.yul\":6136:6157   */\n      dup1\n      dup3\n      mstore\n        /* \"#utility.yul\":6193:6195   */\n      0x1c\n        /* \"#utility.yul\":6173:6191   */\n      swap1\n      dup3\n      add\n        /* \"#utility.yul\":6166:6196   */\n      mstore\n        /* \"#utility.yul\":6232:6262   */\n      0x4f6e6c79204e46542d4553204f776e65722063616e2041636365737300000000\n        /* \"#utility.yul\":6227:6229   */\n      0x40\n        /* \"#utility.yul\":6212:6230   */\n      dup3\n      add\n        /* \"#utility.yul\":6205:6263   */\n      mstore\n        /* \"#utility.yul\":6295:6297   */\n      0x60\n        /* \"#utility.yul\":6280:6298   */\n      add\n      swap1\n        /* \"#utility.yul\":5952:6304   */\n      jump\t// out\n        /* \"#utility.yul\":6309:6660   */\n    tag_96:\n        /* \"#utility.yul\":6511:6513   */\n      0x20\n        /* \"#utility.yul\":6493:6514   */\n      dup1\n      dup3\n      mstore\n        /* \"#utility.yul\":6550:6552   */\n      0x1b\n        /* \"#utility.yul\":6530:6548   */\n      swap1\n      dup3\n      add\n        /* \"#utility.yul\":6523:6553   */\n      mstore\n        /* \"#utility.yul\":6589:6618   */\n      0x44726f7073697465206973206e6f74204f70656e6564205965742e0000000000\n        /* \"#utility.yul\":6584:6586   */\n      0x40\n        /* \"#utility.yul\":6569:6587   */\n      dup3\n      add\n        /* \"#utility.yul\":6562:6619   */\n      mstore\n        /* \"#utility.yul\":6651:6653   */\n      0x60\n        /* \"#utility.yul\":6636:6654   */\n      add\n      swap1\n        /* \"#utility.yul\":6309:6660   */\n      jump\t// out\n        /* \"#utility.yul\":7961:8252   */\n    tag_37:\n        /* \"#utility.yul\":8138:8144   */\n      dup3\n        /* \"#utility.yul\":8127:8136   */\n      dup2\n        /* \"#utility.yul\":8120:8145   */\n      mstore\n        /* \"#utility.yul\":8181:8183   */\n      0x40\n        /* \"#utility.yul\":8176:8178   */\n      0x20\n        /* \"#utility.yul\":8165:8174   */\n      dup3\n        /* \"#utility.yul\":8161:8179   */\n      add\n        /* \"#utility.yul\":8154:8184   */\n      mstore\n        /* \"#utility.yul\":8101:8105   */\n      0x00\n        /* \"#utility.yul\":8201:8246   */\n      tag_253\n        /* \"#utility.yul\":8242:8244   */\n      0x40\n        /* \"#utility.yul\":8231:8240   */\n      dup4\n        /* \"#utility.yul\":8227:8245   */\n      add\n        /* \"#utility.yul\":8219:8225   */\n      dup5\n        /* \"#utility.yul\":8201:8246   */\n      tag_326\n      jump\t// in\n        /* \"#utility.yul\":8834:8962   */\n    tag_229:\n        /* \"#utility.yul\":8874:8877   */\n      0x00\n        /* \"#utility.yul\":8905:8906   */\n      dup3\n        /* \"#utility.yul\":8901:8907   */\n      not\n        /* \"#utility.yul\":8898:8899   */\n      dup3\n        /* \"#utility.yul\":8895:8908   */\n      gt\n        /* \"#utility.yul\":8892:8931   */\n      iszero\n      tag_360\n      jumpi\n        /* \"#utility.yul\":8911:8929   */\n      tag_360\n      tag_361\n      jump\t// in\n    tag_360:\n      pop\n        /* \"#utility.yul\":8947:8956   */\n      add\n      swap1\n        /* \"#utility.yul\":8834:8962   */\n      jump\t// out\n        /* \"#utility.yul\":8967:9087   */\n    tag_247:\n        /* \"#utility.yul\":9007:9008   */\n      0x00\n        /* \"#utility.yul\":9033:9034   */\n      dup3\n        /* \"#utility.yul\":9023:9058   */\n      tag_364\n      jumpi\n        /* \"#utility.yul\":9038:9056   */\n      tag_364\n      tag_365\n      jump\t// in\n    tag_364:\n      pop\n        /* \"#utility.yul\":9072:9081   */\n      div\n      swap1\n        /* \"#utility.yul\":8967:9087   */\n      jump\t// out\n        /* \"#utility.yul\":9092:9217   */\n    tag_255:\n        /* \"#utility.yul\":9132:9136   */\n      0x00\n        /* \"#utility.yul\":9160:9161   */\n      dup3\n        /* \"#utility.yul\":9157:9158   */\n      dup3\n        /* \"#utility.yul\":9154:9162   */\n      lt\n        /* \"#utility.yul\":9151:9185   */\n      iszero\n      tag_368\n      jumpi\n        /* \"#utility.yul\":9165:9183   */\n      tag_368\n      tag_361\n      jump\t// in\n    tag_368:\n      pop\n        /* \"#utility.yul\":9202:9211   */\n      sub\n      swap1\n        /* \"#utility.yul\":9092:9217   */\n      jump\t// out\n        /* \"#utility.yul\":9222:9480   */\n    tag_329:\n        /* \"#utility.yul\":9294:9295   */\n      0x00\n        /* \"#utility.yul\":9304:9417   */\n    tag_370:\n        /* \"#utility.yul\":9318:9324   */\n      dup4\n        /* \"#utility.yul\":9315:9316   */\n      dup2\n        /* \"#utility.yul\":9312:9325   */\n      lt\n        /* \"#utility.yul\":9304:9417   */\n      iszero\n      tag_372\n      jumpi\n        /* \"#utility.yul\":9394:9405   */\n      dup2\n      dup2\n      add\n        /* \"#utility.yul\":9388:9406   */\n      mload\n        /* \"#utility.yul\":9375:9386   */\n      dup4\n      dup3\n      add\n        /* \"#utility.yul\":9368:9407   */\n      mstore\n        /* \"#utility.yul\":9340:9342   */\n      0x20\n        /* \"#utility.yul\":9333:9343   */\n      add\n        /* \"#utility.yul\":9304:9417   */\n      jump(tag_370)\n    tag_372:\n        /* \"#utility.yul\":9435:9441   */\n      dup4\n        /* \"#utility.yul\":9432:9433   */\n      dup2\n        /* \"#utility.yul\":9429:9442   */\n      gt\n        /* \"#utility.yul\":9426:9474   */\n      iszero\n      tag_373\n      jumpi\n        /* \"#utility.yul\":9470:9471   */\n      0x00\n        /* \"#utility.yul\":9461:9467   */\n      dup5\n        /* \"#utility.yul\":9456:9459   */\n      dup5\n        /* \"#utility.yul\":9452:9468   */\n      add\n        /* \"#utility.yul\":9445:9472   */\n      mstore\n        /* \"#utility.yul\":9426:9474   */\n    tag_373:\n      pop\n        /* \"#utility.yul\":9222:9480   */\n      pop\n      pop\n      pop\n      jump\t// out\n        /* \"#utility.yul\":9485:9865   */\n    tag_105:\n        /* \"#utility.yul\":9564:9565   */\n      0x01\n        /* \"#utility.yul\":9560:9572   */\n      dup2\n      dup2\n      shr\n      swap1\n        /* \"#utility.yul\":9607:9619   */\n      dup3\n      and\n      dup1\n        /* \"#utility.yul\":9628:9689   */\n      tag_375\n      jumpi\n        /* \"#utility.yul\":9682:9686   */\n      0x7f\n        /* \"#utility.yul\":9674:9680   */\n      dup3\n        /* \"#utility.yul\":9670:9687   */\n      and\n        /* \"#utility.yul\":9660:9687   */\n      swap2\n      pop\n        /* \"#utility.yul\":9628:9689   */\n    tag_375:\n        /* \"#utility.yul\":9735:9737   */\n      0x20\n        /* \"#utility.yul\":9727:9733   */\n      dup3\n        /* \"#utility.yul\":9724:9738   */\n      lt\n        /* \"#utility.yul\":9704:9722   */\n      dup2\n        /* \"#utility.yul\":9701:9739   */\n      eq\n        /* \"#utility.yul\":9698:9859   */\n      iszero\n      tag_376\n      jumpi\n        /* \"#utility.yul\":9781:9791   */\n      0x4e487b71\n        /* \"#utility.yul\":9776:9779   */\n      0xe0\n        /* \"#utility.yul\":9772:9792   */\n      shl\n        /* \"#utility.yul\":9769:9770   */\n      0x00\n        /* \"#utility.yul\":9762:9793   */\n      mstore\n        /* \"#utility.yul\":9816:9820   */\n      0x22\n        /* \"#utility.yul\":9813:9814   */\n      0x04\n        /* \"#utility.yul\":9806:9821   */\n      mstore\n        /* \"#utility.yul\":9844:9848   */\n      0x24\n        /* \"#utility.yul\":9841:9842   */\n      0x00\n        /* \"#utility.yul\":9834:9849   */\n      revert\n        /* \"#utility.yul\":9698:9859   */\n    tag_376:\n      pop\n        /* \"#utility.yul\":9485:9865   */\n      swap2\n      swap1\n      pop\n      jump\t// out\n        /* \"#utility.yul\":9870:10216   */\n    tag_377:\n        /* \"#utility.yul\":9980:9982   */\n      0x1f\n        /* \"#utility.yul\":9961:9974   */\n      dup3\n      add\n      not(0x1f)\n        /* \"#utility.yul\":9957:9984   */\n      and\n        /* \"#utility.yul\":9945:9985   */\n      dup2\n      add\n        /* \"#utility.yul\":10015:10033   */\n      0xffffffffffffffff\n        /* \"#utility.yul\":10000:10034   */\n      dup2\n      gt\n        /* \"#utility.yul\":10036:10058   */\n      dup3\n      dup3\n      lt\n        /* \"#utility.yul\":9997:10059   */\n      or\n        /* \"#utility.yul\":9994:10179   */\n      iszero\n      tag_379\n      jumpi\n        /* \"#utility.yul\":10101:10111   */\n      0x4e487b71\n        /* \"#utility.yul\":10096:10099   */\n      0xe0\n        /* \"#utility.yul\":10092:10112   */\n      shl\n        /* \"#utility.yul\":10089:10090   */\n      0x00\n        /* \"#utility.yul\":10082:10113   */\n      mstore\n        /* \"#utility.yul\":10136:10140   */\n      0x41\n        /* \"#utility.yul\":10133:10134   */\n      0x04\n        /* \"#utility.yul\":10126:10141   */\n      mstore\n        /* \"#utility.yul\":10164:10168   */\n      0x24\n        /* \"#utility.yul\":10161:10162   */\n      0x00\n        /* \"#utility.yul\":10154:10169   */\n      revert\n        /* \"#utility.yul\":9994:10179   */\n    tag_379:\n        /* \"#utility.yul\":10195:10197   */\n      0x40\n        /* \"#utility.yul\":10188:10210   */\n      mstore\n      pop\n      pop\n        /* \"#utility.yul\":9870:10216   */\n      jump\t// out\n        /* \"#utility.yul\":10221:10356   */\n    tag_112:\n        /* \"#utility.yul\":10260:10263   */\n      0x00\n      not(0x00)\n        /* \"#utility.yul\":10281:10298   */\n      dup3\n      eq\n        /* \"#utility.yul\":10278:10321   */\n      iszero\n      tag_382\n      jumpi\n        /* \"#utility.yul\":10301:10319   */\n      tag_382\n      tag_361\n      jump\t// in\n    tag_382:\n      pop\n        /* \"#utility.yul\":10348:10349   */\n      0x01\n        /* \"#utility.yul\":10337:10350   */\n      add\n      swap1\n        /* \"#utility.yul\":10221:10356   */\n      jump\t// out\n        /* \"#utility.yul\":10361:10473   */\n    tag_240:\n        /* \"#utility.yul\":10393:10394   */\n      0x00\n        /* \"#utility.yul\":10419:10420   */\n      dup3\n        /* \"#utility.yul\":10409:10444   */\n      tag_385\n      jumpi\n        /* \"#utility.yul\":10424:10442   */\n      tag_385\n      tag_365\n      jump\t// in\n    tag_385:\n      pop\n        /* \"#utility.yul\":10458:10467   */\n      mod\n      swap1\n        /* \"#utility.yul\":10361:10473   */\n      jump\t// out\n        /* \"#utility.yul\":10478:10605   */\n    tag_361:\n        /* \"#utility.yul\":10539:10549   */\n      0x4e487b71\n        /* \"#utility.yul\":10534:10537   */\n      0xe0\n        /* \"#utility.yul\":10530:10550   */\n      shl\n        /* \"#utility.yul\":10527:10528   */\n      0x00\n        /* \"#utility.yul\":10520:10551   */\n      mstore\n        /* \"#utility.yul\":10570:10574   */\n      0x11\n        /* \"#utility.yul\":10567:10568   */\n      0x04\n        /* \"#utility.yul\":10560:10575   */\n      mstore\n        /* \"#utility.yul\":10594:10598   */\n      0x24\n        /* \"#utility.yul\":10591:10592   */\n      0x00\n        /* \"#utility.yul\":10584:10599   */\n      revert\n        /* \"#utility.yul\":10610:10737   */\n    tag_365:\n        /* \"#utility.yul\":10671:10681   */\n      0x4e487b71\n        /* \"#utility.yul\":10666:10669   */\n      0xe0\n        /* \"#utility.yul\":10662:10682   */\n      shl\n        /* \"#utility.yul\":10659:10660   */\n      0x00\n        /* \"#utility.yul\":10652:10683   */\n      mstore\n        /* \"#utility.yul\":10702:10706   */\n      0x12\n        /* \"#utility.yul\":10699:10700   */\n      0x04\n        /* \"#utility.yul\":10692:10707   */\n      mstore\n        /* \"#utility.yul\":10726:10730   */\n      0x24\n        /* \"#utility.yul\":10723:10724   */\n      0x00\n        /* \"#utility.yul\":10716:10731   */\n      revert\n        /* \"#utility.yul\":10742:10869   */\n    tag_177:\n        /* \"#utility.yul\":10803:10813   */\n      0x4e487b71\n        /* \"#utility.yul\":10798:10801   */\n      0xe0\n        /* \"#utility.yul\":10794:10814   */\n      shl\n        /* \"#utility.yul\":10791:10792   */\n      0x00\n        /* \"#utility.yul\":10784:10815   */\n      mstore\n        /* \"#utility.yul\":10834:10838   */\n      0x32\n        /* \"#utility.yul\":10831:10832   */\n      0x04\n        /* \"#utility.yul\":10824:10839   */\n      mstore\n        /* \"#utility.yul\":10858:10862   */\n      0x24\n        /* \"#utility.yul\":10855:10856   */\n      0x00\n        /* \"#utility.yul\":10848:10863   */\n      revert\n        /* \"#utility.yul\":10874:11001   */\n    tag_250:\n        /* \"#utility.yul\":10935:10945   */\n      0x4e487b71\n        /* \"#utility.yul\":10930:10933   */\n      0xe0\n        /* \"#utility.yul\":10926:10946   */\n      shl\n        /* \"#utility.yul\":10923:10924   */\n      0x00\n        /* \"#utility.yul\":10916:10947   */\n      mstore\n        /* \"#utility.yul\":10966:10970   */\n      0x41\n        /* \"#utility.yul\":10963:10964   */\n      0x04\n        /* \"#utility.yul\":10956:10971   */\n      mstore\n        /* \"#utility.yul\":10990:10994   */\n      0x24\n        /* \"#utility.yul\":10987:10988   */\n      0x00\n        /* \"#utility.yul\":10980:10995   */\n      revert\n        /* \"#utility.yul\":11006:11185   */\n    tag_283:\n        /* \"#utility.yul\":11041:11044   */\n      0x00\n        /* \"#utility.yul\":11083:11084   */\n      0x03\n        /* \"#utility.yul\":11065:11081   */\n      returndatasize\n        /* \"#utility.yul\":11062:11085   */\n      gt\n        /* \"#utility.yul\":11059:11179   */\n      iszero\n      tag_70\n      jumpi\n        /* \"#utility.yul\":11129:11130   */\n      0x04\n        /* \"#utility.yul\":11126:11127   */\n      0x00\n        /* \"#utility.yul\":11123:11124   */\n      dup1\n        /* \"#utility.yul\":11108:11131   */\n      returndatacopy\n      pop\n        /* \"#utility.yul\":11166:11167   */\n      0x00\n        /* \"#utility.yul\":11160:11168   */\n      mload\n        /* \"#utility.yul\":11155:11158   */\n      0xe0\n        /* \"#utility.yul\":11151:11169   */\n      shr\n        /* \"#utility.yul\":11006:11185   */\n      swap1\n      jump\t// out\n        /* \"#utility.yul\":11190:11861   */\n    tag_285:\n        /* \"#utility.yul\":11229:11232   */\n      0x00\n        /* \"#utility.yul\":11271:11275   */\n      0x44\n        /* \"#utility.yul\":11253:11269   */\n      returndatasize\n        /* \"#utility.yul\":11250:11276   */\n      lt\n        /* \"#utility.yul\":11247:11286   */\n      iszero\n      tag_393\n      jumpi\n        /* \"#utility.yul\":11190:11861   */\n      swap1\n      jump\t// out\n        /* \"#utility.yul\":11247:11286   */\n    tag_393:\n        /* \"#utility.yul\":11313:11315   */\n      0x40\n        /* \"#utility.yul\":11307:11316   */\n      mload\n      not(0x03)\n        /* \"#utility.yul\":11378:11394   */\n      returndatasize\n        /* \"#utility.yul\":11374:11399   */\n      dup2\n      add\n        /* \"#utility.yul\":11371:11372   */\n      0x04\n        /* \"#utility.yul\":11307:11316   */\n      dup4\n        /* \"#utility.yul\":11350:11400   */\n      returndatacopy\n        /* \"#utility.yul\":11429:11433   */\n      dup2\n        /* \"#utility.yul\":11423:11434   */\n      mload\n        /* \"#utility.yul\":11453:11469   */\n      returndatasize\n        /* \"#utility.yul\":11488:11506   */\n      0xffffffffffffffff\n        /* \"#utility.yul\":11559:11561   */\n      dup2\n        /* \"#utility.yul\":11552:11556   */\n      0x24\n        /* \"#utility.yul\":11544:11550   */\n      dup5\n        /* \"#utility.yul\":11540:11557   */\n      add\n        /* \"#utility.yul\":11537:11562   */\n      gt\n        /* \"#utility.yul\":11532:11534   */\n      dup2\n        /* \"#utility.yul\":11524:11530   */\n      dup5\n        /* \"#utility.yul\":11521:11535   */\n      gt\n        /* \"#utility.yul\":11518:11563   */\n      or\n        /* \"#utility.yul\":11515:11573   */\n      iszero\n      tag_394\n      jumpi\n        /* \"#utility.yul\":11566:11571   */\n      pop\n      pop\n      pop\n      pop\n      pop\n        /* \"#utility.yul\":11190:11861   */\n      swap1\n      jump\t// out\n        /* \"#utility.yul\":11515:11573   */\n    tag_394:\n        /* \"#utility.yul\":11603:11609   */\n      dup3\n        /* \"#utility.yul\":11597:11601   */\n      dup6\n        /* \"#utility.yul\":11593:11610   */\n      add\n        /* \"#utility.yul\":11582:11610   */\n      swap2\n      pop\n        /* \"#utility.yul\":11639:11642   */\n      dup2\n        /* \"#utility.yul\":11633:11643   */\n      mload\n        /* \"#utility.yul\":11666:11668   */\n      dup2\n        /* \"#utility.yul\":11658:11664   */\n      dup2\n        /* \"#utility.yul\":11655:11669   */\n      gt\n        /* \"#utility.yul\":11652:11679   */\n      iszero\n      tag_395\n      jumpi\n        /* \"#utility.yul\":11672:11677   */\n      pop\n      pop\n      pop\n      pop\n      pop\n      pop\n        /* \"#utility.yul\":11190:11861   */\n      swap1\n      jump\t// out\n        /* \"#utility.yul\":11652:11679   */\n    tag_395:\n        /* \"#utility.yul\":11756:11758   */\n      dup5\n        /* \"#utility.yul\":11737:11753   */\n      returndatasize\n        /* \"#utility.yul\":11731:11735   */\n      dup8\n        /* \"#utility.yul\":11727:11754   */\n      add\n        /* \"#utility.yul\":11723:11759   */\n      add\n        /* \"#utility.yul\":11716:11720   */\n      0x20\n        /* \"#utility.yul\":11707:11713   */\n      dup3\n        /* \"#utility.yul\":11702:11705   */\n      dup6\n        /* \"#utility.yul\":11698:11714   */\n      add\n        /* \"#utility.yul\":11694:11721   */\n      add\n        /* \"#utility.yul\":11691:11760   */\n      gt\n        /* \"#utility.yul\":11688:11770   */\n      iszero\n      tag_396\n      jumpi\n        /* \"#utility.yul\":11763:11768   */\n      pop\n      pop\n      pop\n      pop\n      pop\n      pop\n        /* \"#utility.yul\":11190:11861   */\n      swap1\n      jump\t// out\n        /* \"#utility.yul\":11688:11770   */\n    tag_396:\n        /* \"#utility.yul\":11779:11836   */\n      tag_397\n        /* \"#utility.yul\":11830:11834   */\n      0x20\n        /* \"#utility.yul\":11821:11827   */\n      dup3\n        /* \"#utility.yul\":11813:11819   */\n      dup7\n        /* \"#utility.yul\":11809:11828   */\n      add\n        /* \"#utility.yul\":11805:11835   */\n      add\n        /* \"#utility.yul\":11799:11803   */\n      dup8\n        /* \"#utility.yul\":11779:11836   */\n      tag_377\n      jump\t// in\n    tag_397:\n      pop\n        /* \"#utility.yul\":11852:11855   */\n      swap1\n      swap6\n        /* \"#utility.yul\":11190:11861   */\n      swap5\n      pop\n      pop\n      pop\n      pop\n      pop\n      jump\t// out\n        /* \"#utility.yul\":11866:11997   */\n    tag_317:\n      sub(shl(0xa0, 0x01), 0x01)\n        /* \"#utility.yul\":11941:11972   */\n      dup2\n      and\n        /* \"#utility.yul\":11931:11973   */\n      dup2\n      eq\n        /* \"#utility.yul\":11921:11991   */\n      tag_399\n      jumpi\n        /* \"#utility.yul\":11987:11988   */\n      0x00\n        /* \"#utility.yul\":11984:11985   */\n      dup1\n        /* \"#utility.yul\":11977:11989   */\n      revert\n        /* \"#utility.yul\":11921:11991   */\n    tag_399:\n        /* \"#utility.yul\":11866:11997   */\n      pop\n      jump\t// out\n\n    auxdata: 0xa264697066735822122040c72b607f9b4660158a34d2aec7f6264e406bb4dd642924b52113df28cd2d6d64736f6c63430008070033\n}\n",
				"bytecode": {
					"linkReferences": {},
					"object": "60a06040819052600060808190526200001b9160029162000159565b50604080516102808101825260008152600160208201819052918101919091526002606082018190526080820181905260a0820181905260c0820181905260e08201819052610100820181905261012082018190526101408201819052610160820181905261018082018190526101a082018190526101c082018190526101e08201819052610200820181905261022082018190526102408201819052610260820152620000ce906003906014620001e8565b50600c805460ff19166001179055348015620000e957600080fd5b50604051620017fe380380620017fe8339810160408190526200010c916200028f565b80516200012190600d90602084019062000159565b5050600c8054610100600160a81b031916336101000217905560006004819055600160055560078190556008819055600955620003be565b82805462000167906200036b565b90600052602060002090601f0160209004810192826200018b5760008555620001d6565b82601f10620001a657805160ff1916838001178555620001d6565b82800160010185558215620001d6579182015b82811115620001d6578251825591602001919060010190620001b9565b50620001e492915062000278565b5090565b600183019183908215620001d65791602002820160005b838211156200023f57835183826101000a81548160ff021916908360ff1602179055509260200192600101602081600001049283019260010302620001ff565b80156200026e5782816101000a81549060ff02191690556001016020816000010492830192600103026200023f565b5050620001e49291505b5b80821115620001e4576000815560010162000279565b60006020808385031215620002a357600080fd5b82516001600160401b0380821115620002bb57600080fd5b818501915085601f830112620002d057600080fd5b815181811115620002e557620002e5620003a8565b604051601f8201601f19908116603f01168101908382118183101715620003105762000310620003a8565b8160405282815288868487010111156200032957600080fd5b600093505b828410156200034d57848401860151818501870152928501926200032e565b828411156200035f5760008684830101525b98975050505050505050565b600181811c908216806200038057607f821691505b60208210811415620003a257634e487b7160e01b600052602260045260246000fd5b50919050565b634e487b7160e01b600052604160045260246000fd5b61143080620003ce6000396000f3fe60806040526004361061009c5760003560e01c80633b668059116100645780633b6680591461014b5780633d65df701461016057806360daa85114610173578063aa90c726146101a3578063b4a99a4e146101b8578063eddd0d9c146101f557600080fd5b80630390c11c146100a15780630a67d2c7146100c95780631309a563146100de578063154602591461010857806332b61b4c1461011d575b600080fd5b3480156100ad57600080fd5b506100b6610215565b6040519081526020015b60405180910390f35b6100dc6100d7366004610fcf565b610261565b005b3480156100ea57600080fd5b50600c546100f89060ff1681565b60405190151581526020016100c0565b34801561011457600080fd5b506100dc610322565b34801561012957600080fd5b5061013d610138366004610fcf565b6103bd565b6040516100c09291906111b4565b34801561015757600080fd5b506100b66105ed565b61013d61016e366004610fcf565b61062d565b34801561017f57600080fd5b50610188610716565b604080519384526020840192909252908201526060016100c0565b3480156101af57600080fd5b506100dc610767565b3480156101c457600080fd5b50600c546101dd9061010090046001600160a01b031681565b6040516001600160a01b0390911681526020016100c0565b34801561020157600080fd5b506100dc61021036600461101d565b610801565b600c5460009061010090046001600160a01b0316336001600160a01b0316146102595760405162461bcd60e51b815260040161025090611146565b60405180910390fd5b506004545b90565b600c5461010090046001600160a01b0316336001600160a01b0316146102995760405162461bcd60e51b815260040161025090611146565b47806102e75760405162461bcd60e51b815260206004820152601d60248201527f4572726f7221204e6f2042616c616e636520746f2077697468647261770000006044820152606401610250565b6040516001600160a01b0383169082156108fc029083906000818181858888f1935050505015801561031d573d6000803e3d6000fd5b505050565b600c5461010090046001600160a01b0316336001600160a01b03161461035a5760405162461bcd60e51b815260040161025090611146565b600c5460ff1615156001146103b15760405162461bcd60e51b815260206004820152601b60248201527f44726f707369746520697320616c72656164792052756e6e696e6700000000006044820152606401610250565b600c805460ff19169055565b600c5460009060609061010090046001600160a01b0316336001600160a01b0316146103fb5760405162461bcd60e51b815260040161025090611146565b600c5460ff161561041e5760405162461bcd60e51b81526004016102509061117d565b6103e86004541061046d5760405162461bcd60e51b815260206004820152601960248201527813585e08135a5b9d1a5b99c8131a5b5a5d081c995858da1959603a1b6044820152606401610250565b600061047761083e565b905061051184826005546002805461048e90611240565b80601f01602080910402602001604051908101604052809291908181526020018280546104ba90611240565b80156105075780601f106104dc57610100808354040283529160200191610507565b820191906000526020600020905b8154815290600101906020018083116104ea57829003601f168201915b5050505050610a0f565b60048054906000610521836112b6565b90915550506001600160a01b0384166000908152600a602090815260408220805460018101825590835291200181905560028054829190819061056390611240565b80601f016020809104026020016040519081016040528092919081815260200182805461058f90611240565b80156105dc5780601f106105b1576101008083540402835291602001916105dc565b820191906000526020600020905b8154815290600101906020018083116105bf57829003601f168201915b505050505090509250925050915091565b600c5460009061010090046001600160a01b0316336001600160a01b0316146106285760405162461bcd60e51b815260040161025090611146565b504790565b600c5460009060609060ff16156106565760405162461bcd60e51b81526004016102509061117d565b6103e8600454106106a55760405162461bcd60e51b815260206004820152601960248201527813585e08135a5b9d1a5b99c8131a5b5a5d081c995858da1959603a1b6044820152606401610250565b60065434146106eb5760405162461bcd60e51b81526020600482015260126024820152714e6f7420456e6f7567682042616c616e636560701b6044820152606401610250565b60006106f561083e565b905061070c84826005546002805461048e90611240565b6105113334610b20565b600c546000908190819061010090046001600160a01b0316336001600160a01b0316146107555760405162461bcd60e51b815260040161025090611146565b50506007546008546009549193909250565b600c5461010090046001600160a01b0316336001600160a01b03161461079f5760405162461bcd60e51b815260040161025090611146565b600c5460ff16156107f25760405162461bcd60e51b815260206004820152601b60248201527f44726f707369746520697320616c72656164792053746f7070656400000000006044820152606401610250565b600c805460ff19166001179055565b600c5461010090046001600160a01b0316336001600160a01b0316146108395760405162461bcd60e51b815260040161025090611146565b600655565b600c5460009060ff16156108645760405162461bcd60e51b81526004016102509061117d565b600061086e610b51565b905060006003826014811061088557610885611311565b602081049091015460ff601f9092166101000a9004169050801580156108ad57506032600754105b1561091057600780549060006108c2836112b6565b91905055506108d2600754610bad565b6040516020016108e29190611062565b60405160208183030381529060405260029080519060200190610906929190610ebb565b50915061025e9050565b6001811115801561092357506064600854105b156109585760088054906000610938836112b6565b9190505550610948600854610bad565b6040516020016108e29190611092565b6002811115801561096d575061035260095411155b156109df5760098054906000610982836112b6565b9190505550610992600954610bad565b6040516020016109a291906110bf565b604051602081830303815290604052600290805190602001906109c6929190610ebb565b60029080546109d490611240565b610906929190610f3f565b606460085410156109fd5750600880546001916000610938836112b6565b5060078054600091826108c2836112b6565b6001600160a01b038416610a6f5760405162461bcd60e51b815260206004820152602160248201527f455243313135353a206d696e7420746f20746865207a65726f206164647265736044820152607360f81b6064820152608401610250565b33610a9081600087610a8088610cb3565b610a8988610cb3565b5050505050565b6000848152602081815260408083206001600160a01b038916845290915281208054859290610ac09084906111cd565b909155505060408051858152602081018590526001600160a01b0380881692600092918516917fc3d58168c5ae7397731d063d5bbf3d657854427343f4c083240f7aacaa2d0f62910160405180910390a4610a8981600087878787610d06565b6001600160a01b0382166000908152600b602052604081208054839290610b489084906111cd565b90915550505050565b60008060144233604051602001610b8492919091825260601b6bffffffffffffffffffffffff1916602082015260340190565b6040516020818303038152906040528051906020012060001c610ba791906112d1565b92915050565b606081610bd15750506040805180820190915260018152600360fc1b602082015290565b8160005b8115610bfb5780610be5816112b6565b9150610bf49050600a836111e5565b9150610bd5565b60008167ffffffffffffffff811115610c1657610c16611327565b6040519080825280601f01601f191660200182016040528015610c40576020820181803683370190505b5090505b8415610cab57610c556001836111f9565b9150610c62600a866112d1565b610c6d9060306111cd565b60f81b818381518110610c8257610c82611311565b60200101906001600160f81b031916908160001a905350610ca4600a866111e5565b9450610c44565b949350505050565b60408051600180825281830190925260609160009190602080830190803683370190505090508281600081518110610ced57610ced611311565b602090810291909101015292915050565b505050505050565b6001600160a01b0384163b15610cfe576040516315d1344960e31b81526001600160a01b0385169063ae89a24890610d4a90899089908890889088906004016110ee565b602060405180830381600087803b158015610d6457600080fd5b505af1925050508015610d94575060408051601f3d908101601f19168201909252610d9191810190610ff3565b60015b610e4157610da061133d565b806308c379a01415610dda5750610db5611358565b80610dc05750610ddc565b8060405162461bcd60e51b81526004016102509190611133565b505b60405162461bcd60e51b815260206004820152603460248201527f455243313135353a207472616e7366657220746f206e6f6e20455243313135356044820152732932b1b2b4bb32b91034b6b83632b6b2b73a32b960611b6064820152608401610250565b6001600160e01b031981166315d1344960e31b14610eb25760405162461bcd60e51b815260206004820152602860248201527f455243313135353a204552433131353552656365697665722072656a656374656044820152676420746f6b656e7360c01b6064820152608401610250565b50505050505050565b828054610ec790611240565b90600052602060002090601f016020900481019282610ee95760008555610f2f565b82601f10610f0257805160ff1916838001178555610f2f565b82800160010185558215610f2f579182015b82811115610f2f578251825591602001919060010190610f14565b50610f3b929150610fba565b5090565b828054610f4b90611240565b90600052602060002090601f016020900481019282610f6d5760008555610f2f565b82601f10610f7e5780548555610f2f565b82800160010185558215610f2f57600052602060002091601f016020900482015b82811115610f2f578254825591600101919060010190610f9f565b5b80821115610f3b5760008155600101610fbb565b600060208284031215610fe157600080fd5b8135610fec816113e2565b9392505050565b60006020828403121561100557600080fd5b81516001600160e01b031981168114610fec57600080fd5b60006020828403121561102f57600080fd5b5035919050565b6000815180845261104e816020860160208601611210565b601f01601f19169290920160200192915050565b674469616d6f6e645f60c01b815260008251611085816008850160208701611210565b9190910160080192915050565b64476f6c645f60d81b8152600082516110b2816005850160208701611210565b9190910160050192915050565b6653696c7665725f60c81b8152600082516110e1816007850160208701611210565b9190910160070192915050565b6001600160a01b03868116825285166020820152604081018490526060810183905260a06080820181905260009061112890830184611036565b979650505050505050565b602081526000610fec6020830184611036565b6020808252601c908201527f4f6e6c79204e46542d4553204f776e65722063616e2041636365737300000000604082015260600190565b6020808252601b908201527f44726f7073697465206973206e6f74204f70656e6564205965742e0000000000604082015260600190565b828152604060208201526000610cab6040830184611036565b600082198211156111e0576111e06112e5565b500190565b6000826111f4576111f46112fb565b500490565b60008282101561120b5761120b6112e5565b500390565b60005b8381101561122b578181015183820152602001611213565b8381111561123a576000848401525b50505050565b600181811c9082168061125457607f821691505b6020821081141561127557634e487b7160e01b600052602260045260246000fd5b50919050565b601f8201601f1916810167ffffffffffffffff811182821017156112af57634e487b7160e01b600052604160045260246000fd5b6040525050565b60006000198214156112ca576112ca6112e5565b5060010190565b6000826112e0576112e06112fb565b500690565b634e487b7160e01b600052601160045260246000fd5b634e487b7160e01b600052601260045260246000fd5b634e487b7160e01b600052603260045260246000fd5b634e487b7160e01b600052604160045260246000fd5b600060033d111561025e5760046000803e5060005160e01c90565b600060443d10156113665790565b6040516003193d81016004833e81513d67ffffffffffffffff816024840111818411171561139657505050505090565b82850191508151818111156113ae5750505050505090565b843d87010160208285010111156113c85750505050505090565b6113d76020828601018761127b565b509095945050505050565b6001600160a01b03811681146113f757600080fd5b5056fea264697066735822122040c72b607f9b4660158a34d2aec7f6264e406bb4dd642924b52113df28cd2d6d64736f6c63430008070033",
					"opcodes": "PUSH1 0xA0 PUSH1 0x40 DUP2 SWAP1 MSTORE PUSH1 0x0 PUSH1 0x80 DUP2 SWAP1 MSTORE PUSH3 0x1B SWAP2 PUSH1 0x2 SWAP2 PUSH3 0x159 JUMP JUMPDEST POP PUSH1 0x40 DUP1 MLOAD PUSH2 0x280 DUP2 ADD DUP3 MSTORE PUSH1 0x0 DUP2 MSTORE PUSH1 0x1 PUSH1 0x20 DUP3 ADD DUP2 SWAP1 MSTORE SWAP2 DUP2 ADD SWAP2 SWAP1 SWAP2 MSTORE PUSH1 0x2 PUSH1 0x60 DUP3 ADD DUP2 SWAP1 MSTORE PUSH1 0x80 DUP3 ADD DUP2 SWAP1 MSTORE PUSH1 0xA0 DUP3 ADD DUP2 SWAP1 MSTORE PUSH1 0xC0 DUP3 ADD DUP2 SWAP1 MSTORE PUSH1 0xE0 DUP3 ADD DUP2 SWAP1 MSTORE PUSH2 0x100 DUP3 ADD DUP2 SWAP1 MSTORE PUSH2 0x120 DUP3 ADD DUP2 SWAP1 MSTORE PUSH2 0x140 DUP3 ADD DUP2 SWAP1 MSTORE PUSH2 0x160 DUP3 ADD DUP2 SWAP1 MSTORE PUSH2 0x180 DUP3 ADD DUP2 SWAP1 MSTORE PUSH2 0x1A0 DUP3 ADD DUP2 SWAP1 MSTORE PUSH2 0x1C0 DUP3 ADD DUP2 SWAP1 MSTORE PUSH2 0x1E0 DUP3 ADD DUP2 SWAP1 MSTORE PUSH2 0x200 DUP3 ADD DUP2 SWAP1 MSTORE PUSH2 0x220 DUP3 ADD DUP2 SWAP1 MSTORE PUSH2 0x240 DUP3 ADD DUP2 SWAP1 MSTORE PUSH2 0x260 DUP3 ADD MSTORE PUSH3 0xCE SWAP1 PUSH1 0x3 SWAP1 PUSH1 0x14 PUSH3 0x1E8 JUMP JUMPDEST POP PUSH1 0xC DUP1 SLOAD PUSH1 0xFF NOT AND PUSH1 0x1 OR SWAP1 SSTORE CALLVALUE DUP1 ISZERO PUSH3 0xE9 JUMPI PUSH1 0x0 DUP1 REVERT JUMPDEST POP PUSH1 0x40 MLOAD PUSH3 0x17FE CODESIZE SUB DUP1 PUSH3 0x17FE DUP4 CODECOPY DUP2 ADD PUSH1 0x40 DUP2 SWAP1 MSTORE PUSH3 0x10C SWAP2 PUSH3 0x28F JUMP JUMPDEST DUP1 MLOAD PUSH3 0x121 SWAP1 PUSH1 0xD SWAP1 PUSH1 0x20 DUP5 ADD SWAP1 PUSH3 0x159 JUMP JUMPDEST POP POP PUSH1 0xC DUP1 SLOAD PUSH2 0x100 PUSH1 0x1 PUSH1 0xA8 SHL SUB NOT AND CALLER PUSH2 0x100 MUL OR SWAP1 SSTORE PUSH1 0x0 PUSH1 0x4 DUP2 SWAP1 SSTORE PUSH1 0x1 PUSH1 0x5 SSTORE PUSH1 0x7 DUP2 SWAP1 SSTORE PUSH1 0x8 DUP2 SWAP1 SSTORE PUSH1 0x9 SSTORE PUSH3 0x3BE JUMP JUMPDEST DUP3 DUP1 SLOAD PUSH3 0x167 SWAP1 PUSH3 0x36B JUMP JUMPDEST SWAP1 PUSH1 0x0 MSTORE PUSH1 0x20 PUSH1 0x0 KECCAK256 SWAP1 PUSH1 0x1F ADD PUSH1 0x20 SWAP1 DIV DUP2 ADD SWAP3 DUP3 PUSH3 0x18B JUMPI PUSH1 0x0 DUP6 SSTORE PUSH3 0x1D6 JUMP JUMPDEST DUP3 PUSH1 0x1F LT PUSH3 0x1A6 JUMPI DUP1 MLOAD PUSH1 0xFF NOT AND DUP4 DUP1 ADD OR DUP6 SSTORE PUSH3 0x1D6 JUMP JUMPDEST DUP3 DUP1 ADD PUSH1 0x1 ADD DUP6 SSTORE DUP3 ISZERO PUSH3 0x1D6 JUMPI SWAP2 DUP3 ADD JUMPDEST DUP3 DUP2 GT ISZERO PUSH3 0x1D6 JUMPI DUP3 MLOAD DUP3 SSTORE SWAP2 PUSH1 0x20 ADD SWAP2 SWAP1 PUSH1 0x1 ADD SWAP1 PUSH3 0x1B9 JUMP JUMPDEST POP PUSH3 0x1E4 SWAP3 SWAP2 POP PUSH3 0x278 JUMP JUMPDEST POP SWAP1 JUMP JUMPDEST PUSH1 0x1 DUP4 ADD SWAP2 DUP4 SWAP1 DUP3 ISZERO PUSH3 0x1D6 JUMPI SWAP2 PUSH1 0x20 MUL DUP3 ADD PUSH1 0x0 JUMPDEST DUP4 DUP3 GT ISZERO PUSH3 0x23F JUMPI DUP4 MLOAD DUP4 DUP3 PUSH2 0x100 EXP DUP2 SLOAD DUP2 PUSH1 0xFF MUL NOT AND SWAP1 DUP4 PUSH1 0xFF AND MUL OR SWAP1 SSTORE POP SWAP3 PUSH1 0x20 ADD SWAP3 PUSH1 0x1 ADD PUSH1 0x20 DUP2 PUSH1 0x0 ADD DIV SWAP3 DUP4 ADD SWAP3 PUSH1 0x1 SUB MUL PUSH3 0x1FF JUMP JUMPDEST DUP1 ISZERO PUSH3 0x26E JUMPI DUP3 DUP2 PUSH2 0x100 EXP DUP2 SLOAD SWAP1 PUSH1 0xFF MUL NOT AND SWAP1 SSTORE PUSH1 0x1 ADD PUSH1 0x20 DUP2 PUSH1 0x0 ADD DIV SWAP3 DUP4 ADD SWAP3 PUSH1 0x1 SUB MUL PUSH3 0x23F JUMP JUMPDEST POP POP PUSH3 0x1E4 SWAP3 SWAP2 POP JUMPDEST JUMPDEST DUP1 DUP3 GT ISZERO PUSH3 0x1E4 JUMPI PUSH1 0x0 DUP2 SSTORE PUSH1 0x1 ADD PUSH3 0x279 JUMP JUMPDEST PUSH1 0x0 PUSH1 0x20 DUP1 DUP4 DUP6 SUB SLT ISZERO PUSH3 0x2A3 JUMPI PUSH1 0x0 DUP1 REVERT JUMPDEST DUP3 MLOAD PUSH1 0x1 PUSH1 0x1 PUSH1 0x40 SHL SUB DUP1 DUP3 GT ISZERO PUSH3 0x2BB JUMPI PUSH1 0x0 DUP1 REVERT JUMPDEST DUP2 DUP6 ADD SWAP2 POP DUP6 PUSH1 0x1F DUP4 ADD SLT PUSH3 0x2D0 JUMPI PUSH1 0x0 DUP1 REVERT JUMPDEST DUP2 MLOAD DUP2 DUP2 GT ISZERO PUSH3 0x2E5 JUMPI PUSH3 0x2E5 PUSH3 0x3A8 JUMP JUMPDEST PUSH1 0x40 MLOAD PUSH1 0x1F DUP3 ADD PUSH1 0x1F NOT SWAP1 DUP2 AND PUSH1 0x3F ADD AND DUP2 ADD SWAP1 DUP4 DUP3 GT DUP2 DUP4 LT OR ISZERO PUSH3 0x310 JUMPI PUSH3 0x310 PUSH3 0x3A8 JUMP JUMPDEST DUP2 PUSH1 0x40 MSTORE DUP3 DUP2 MSTORE DUP9 DUP7 DUP5 DUP8 ADD ADD GT ISZERO PUSH3 0x329 JUMPI PUSH1 0x0 DUP1 REVERT JUMPDEST PUSH1 0x0 SWAP4 POP JUMPDEST DUP3 DUP5 LT ISZERO PUSH3 0x34D JUMPI DUP5 DUP5 ADD DUP7 ADD MLOAD DUP2 DUP6 ADD DUP8 ADD MSTORE SWAP3 DUP6 ADD SWAP3 PUSH3 0x32E JUMP JUMPDEST DUP3 DUP5 GT ISZERO PUSH3 0x35F JUMPI PUSH1 0x0 DUP7 DUP5 DUP4 ADD ADD MSTORE JUMPDEST SWAP9 SWAP8 POP POP POP POP POP POP POP POP JUMP JUMPDEST PUSH1 0x1 DUP2 DUP2 SHR SWAP1 DUP3 AND DUP1 PUSH3 0x380 JUMPI PUSH1 0x7F DUP3 AND SWAP2 POP JUMPDEST PUSH1 0x20 DUP3 LT DUP2 EQ ISZERO PUSH3 0x3A2 JUMPI PUSH4 0x4E487B71 PUSH1 0xE0 SHL PUSH1 0x0 MSTORE PUSH1 0x22 PUSH1 0x4 MSTORE PUSH1 0x24 PUSH1 0x0 REVERT JUMPDEST POP SWAP2 SWAP1 POP JUMP JUMPDEST PUSH4 0x4E487B71 PUSH1 0xE0 SHL PUSH1 0x0 MSTORE PUSH1 0x41 PUSH1 0x4 MSTORE PUSH1 0x24 PUSH1 0x0 REVERT JUMPDEST PUSH2 0x1430 DUP1 PUSH3 0x3CE PUSH1 0x0 CODECOPY PUSH1 0x0 RETURN INVALID PUSH1 0x80 PUSH1 0x40 MSTORE PUSH1 0x4 CALLDATASIZE LT PUSH2 0x9C JUMPI PUSH1 0x0 CALLDATALOAD PUSH1 0xE0 SHR DUP1 PUSH4 0x3B668059 GT PUSH2 0x64 JUMPI DUP1 PUSH4 0x3B668059 EQ PUSH2 0x14B JUMPI DUP1 PUSH4 0x3D65DF70 EQ PUSH2 0x160 JUMPI DUP1 PUSH4 0x60DAA851 EQ PUSH2 0x173 JUMPI DUP1 PUSH4 0xAA90C726 EQ PUSH2 0x1A3 JUMPI DUP1 PUSH4 0xB4A99A4E EQ PUSH2 0x1B8 JUMPI DUP1 PUSH4 0xEDDD0D9C EQ PUSH2 0x1F5 JUMPI PUSH1 0x0 DUP1 REVERT JUMPDEST DUP1 PUSH4 0x390C11C EQ PUSH2 0xA1 JUMPI DUP1 PUSH4 0xA67D2C7 EQ PUSH2 0xC9 JUMPI DUP1 PUSH4 0x1309A563 EQ PUSH2 0xDE JUMPI DUP1 PUSH4 0x15460259 EQ PUSH2 0x108 JUMPI DUP1 PUSH4 0x32B61B4C EQ PUSH2 0x11D JUMPI JUMPDEST PUSH1 0x0 DUP1 REVERT JUMPDEST CALLVALUE DUP1 ISZERO PUSH2 0xAD JUMPI PUSH1 0x0 DUP1 REVERT JUMPDEST POP PUSH2 0xB6 PUSH2 0x215 JUMP JUMPDEST PUSH1 0x40 MLOAD SWAP1 DUP2 MSTORE PUSH1 0x20 ADD JUMPDEST PUSH1 0x40 MLOAD DUP1 SWAP2 SUB SWAP1 RETURN JUMPDEST PUSH2 0xDC PUSH2 0xD7 CALLDATASIZE PUSH1 0x4 PUSH2 0xFCF JUMP JUMPDEST PUSH2 0x261 JUMP JUMPDEST STOP JUMPDEST CALLVALUE DUP1 ISZERO PUSH2 0xEA JUMPI PUSH1 0x0 DUP1 REVERT JUMPDEST POP PUSH1 0xC SLOAD PUSH2 0xF8 SWAP1 PUSH1 0xFF AND DUP2 JUMP JUMPDEST PUSH1 0x40 MLOAD SWAP1 ISZERO ISZERO DUP2 MSTORE PUSH1 0x20 ADD PUSH2 0xC0 JUMP JUMPDEST CALLVALUE DUP1 ISZERO PUSH2 0x114 JUMPI PUSH1 0x0 DUP1 REVERT JUMPDEST POP PUSH2 0xDC PUSH2 0x322 JUMP JUMPDEST CALLVALUE DUP1 ISZERO PUSH2 0x129 JUMPI PUSH1 0x0 DUP1 REVERT JUMPDEST POP PUSH2 0x13D PUSH2 0x138 CALLDATASIZE PUSH1 0x4 PUSH2 0xFCF JUMP JUMPDEST PUSH2 0x3BD JUMP JUMPDEST PUSH1 0x40 MLOAD PUSH2 0xC0 SWAP3 SWAP2 SWAP1 PUSH2 0x11B4 JUMP JUMPDEST CALLVALUE DUP1 ISZERO PUSH2 0x157 JUMPI PUSH1 0x0 DUP1 REVERT JUMPDEST POP PUSH2 0xB6 PUSH2 0x5ED JUMP JUMPDEST PUSH2 0x13D PUSH2 0x16E CALLDATASIZE PUSH1 0x4 PUSH2 0xFCF JUMP JUMPDEST PUSH2 0x62D JUMP JUMPDEST CALLVALUE DUP1 ISZERO PUSH2 0x17F JUMPI PUSH1 0x0 DUP1 REVERT JUMPDEST POP PUSH2 0x188 PUSH2 0x716 JUMP JUMPDEST PUSH1 0x40 DUP1 MLOAD SWAP4 DUP5 MSTORE PUSH1 0x20 DUP5 ADD SWAP3 SWAP1 SWAP3 MSTORE SWAP1 DUP3 ADD MSTORE PUSH1 0x60 ADD PUSH2 0xC0 JUMP JUMPDEST CALLVALUE DUP1 ISZERO PUSH2 0x1AF JUMPI PUSH1 0x0 DUP1 REVERT JUMPDEST POP PUSH2 0xDC PUSH2 0x767 JUMP JUMPDEST CALLVALUE DUP1 ISZERO PUSH2 0x1C4 JUMPI PUSH1 0x0 DUP1 REVERT JUMPDEST POP PUSH1 0xC SLOAD PUSH2 0x1DD SWAP1 PUSH2 0x100 SWAP1 DIV PUSH1 0x1 PUSH1 0x1 PUSH1 0xA0 SHL SUB AND DUP2 JUMP JUMPDEST PUSH1 0x40 MLOAD PUSH1 0x1 PUSH1 0x1 PUSH1 0xA0 SHL SUB SWAP1 SWAP2 AND DUP2 MSTORE PUSH1 0x20 ADD PUSH2 0xC0 JUMP JUMPDEST CALLVALUE DUP1 ISZERO PUSH2 0x201 JUMPI PUSH1 0x0 DUP1 REVERT JUMPDEST POP PUSH2 0xDC PUSH2 0x210 CALLDATASIZE PUSH1 0x4 PUSH2 0x101D JUMP JUMPDEST PUSH2 0x801 JUMP JUMPDEST PUSH1 0xC SLOAD PUSH1 0x0 SWAP1 PUSH2 0x100 SWAP1 DIV PUSH1 0x1 PUSH1 0x1 PUSH1 0xA0 SHL SUB AND CALLER PUSH1 0x1 PUSH1 0x1 PUSH1 0xA0 SHL SUB AND EQ PUSH2 0x259 JUMPI PUSH1 0x40 MLOAD PUSH3 0x461BCD PUSH1 0xE5 SHL DUP2 MSTORE PUSH1 0x4 ADD PUSH2 0x250 SWAP1 PUSH2 0x1146 JUMP JUMPDEST PUSH1 0x40 MLOAD DUP1 SWAP2 SUB SWAP1 REVERT JUMPDEST POP PUSH1 0x4 SLOAD JUMPDEST SWAP1 JUMP JUMPDEST PUSH1 0xC SLOAD PUSH2 0x100 SWAP1 DIV PUSH1 0x1 PUSH1 0x1 PUSH1 0xA0 SHL SUB AND CALLER PUSH1 0x1 PUSH1 0x1 PUSH1 0xA0 SHL SUB AND EQ PUSH2 0x299 JUMPI PUSH1 0x40 MLOAD PUSH3 0x461BCD PUSH1 0xE5 SHL DUP2 MSTORE PUSH1 0x4 ADD PUSH2 0x250 SWAP1 PUSH2 0x1146 JUMP JUMPDEST SELFBALANCE DUP1 PUSH2 0x2E7 JUMPI PUSH1 0x40 MLOAD PUSH3 0x461BCD PUSH1 0xE5 SHL DUP2 MSTORE PUSH1 0x20 PUSH1 0x4 DUP3 ADD MSTORE PUSH1 0x1D PUSH1 0x24 DUP3 ADD MSTORE PUSH32 0x4572726F7221204E6F2042616C616E636520746F207769746864726177000000 PUSH1 0x44 DUP3 ADD MSTORE PUSH1 0x64 ADD PUSH2 0x250 JUMP JUMPDEST PUSH1 0x40 MLOAD PUSH1 0x1 PUSH1 0x1 PUSH1 0xA0 SHL SUB DUP4 AND SWAP1 DUP3 ISZERO PUSH2 0x8FC MUL SWAP1 DUP4 SWAP1 PUSH1 0x0 DUP2 DUP2 DUP2 DUP6 DUP9 DUP9 CALL SWAP4 POP POP POP POP ISZERO DUP1 ISZERO PUSH2 0x31D JUMPI RETURNDATASIZE PUSH1 0x0 DUP1 RETURNDATACOPY RETURNDATASIZE PUSH1 0x0 REVERT JUMPDEST POP POP POP JUMP JUMPDEST PUSH1 0xC SLOAD PUSH2 0x100 SWAP1 DIV PUSH1 0x1 PUSH1 0x1 PUSH1 0xA0 SHL SUB AND CALLER PUSH1 0x1 PUSH1 0x1 PUSH1 0xA0 SHL SUB AND EQ PUSH2 0x35A JUMPI PUSH1 0x40 MLOAD PUSH3 0x461BCD PUSH1 0xE5 SHL DUP2 MSTORE PUSH1 0x4 ADD PUSH2 0x250 SWAP1 PUSH2 0x1146 JUMP JUMPDEST PUSH1 0xC SLOAD PUSH1 0xFF AND ISZERO ISZERO PUSH1 0x1 EQ PUSH2 0x3B1 JUMPI PUSH1 0x40 MLOAD PUSH3 0x461BCD PUSH1 0xE5 SHL DUP2 MSTORE PUSH1 0x20 PUSH1 0x4 DUP3 ADD MSTORE PUSH1 0x1B PUSH1 0x24 DUP3 ADD MSTORE PUSH32 0x44726F707369746520697320616C72656164792052756E6E696E670000000000 PUSH1 0x44 DUP3 ADD MSTORE PUSH1 0x64 ADD PUSH2 0x250 JUMP JUMPDEST PUSH1 0xC DUP1 SLOAD PUSH1 0xFF NOT AND SWAP1 SSTORE JUMP JUMPDEST PUSH1 0xC SLOAD PUSH1 0x0 SWAP1 PUSH1 0x60 SWAP1 PUSH2 0x100 SWAP1 DIV PUSH1 0x1 PUSH1 0x1 PUSH1 0xA0 SHL SUB AND CALLER PUSH1 0x1 PUSH1 0x1 PUSH1 0xA0 SHL SUB AND EQ PUSH2 0x3FB JUMPI PUSH1 0x40 MLOAD PUSH3 0x461BCD PUSH1 0xE5 SHL DUP2 MSTORE PUSH1 0x4 ADD PUSH2 0x250 SWAP1 PUSH2 0x1146 JUMP JUMPDEST PUSH1 0xC SLOAD PUSH1 0xFF AND ISZERO PUSH2 0x41E JUMPI PUSH1 0x40 MLOAD PUSH3 0x461BCD PUSH1 0xE5 SHL DUP2 MSTORE PUSH1 0x4 ADD PUSH2 0x250 SWAP1 PUSH2 0x117D JUMP JUMPDEST PUSH2 0x3E8 PUSH1 0x4 SLOAD LT PUSH2 0x46D JUMPI PUSH1 0x40 MLOAD PUSH3 0x461BCD PUSH1 0xE5 SHL DUP2 MSTORE PUSH1 0x20 PUSH1 0x4 DUP3 ADD MSTORE PUSH1 0x19 PUSH1 0x24 DUP3 ADD MSTORE PUSH25 0x13585E08135A5B9D1A5B99C8131A5B5A5D081C995858DA1959 PUSH1 0x3A SHL PUSH1 0x44 DUP3 ADD MSTORE PUSH1 0x64 ADD PUSH2 0x250 JUMP JUMPDEST PUSH1 0x0 PUSH2 0x477 PUSH2 0x83E JUMP JUMPDEST SWAP1 POP PUSH2 0x511 DUP5 DUP3 PUSH1 0x5 SLOAD PUSH1 0x2 DUP1 SLOAD PUSH2 0x48E SWAP1 PUSH2 0x1240 JUMP JUMPDEST DUP1 PUSH1 0x1F ADD PUSH1 0x20 DUP1 SWAP2 DIV MUL PUSH1 0x20 ADD PUSH1 0x40 MLOAD SWAP1 DUP2 ADD PUSH1 0x40 MSTORE DUP1 SWAP3 SWAP2 SWAP1 DUP2 DUP2 MSTORE PUSH1 0x20 ADD DUP3 DUP1 SLOAD PUSH2 0x4BA SWAP1 PUSH2 0x1240 JUMP JUMPDEST DUP1 ISZERO PUSH2 0x507 JUMPI DUP1 PUSH1 0x1F LT PUSH2 0x4DC JUMPI PUSH2 0x100 DUP1 DUP4 SLOAD DIV MUL DUP4 MSTORE SWAP2 PUSH1 0x20 ADD SWAP2 PUSH2 0x507 JUMP JUMPDEST DUP3 ADD SWAP2 SWAP1 PUSH1 0x0 MSTORE PUSH1 0x20 PUSH1 0x0 KECCAK256 SWAP1 JUMPDEST DUP2 SLOAD DUP2 MSTORE SWAP1 PUSH1 0x1 ADD SWAP1 PUSH1 0x20 ADD DUP1 DUP4 GT PUSH2 0x4EA JUMPI DUP3 SWAP1 SUB PUSH1 0x1F AND DUP3 ADD SWAP2 JUMPDEST POP POP POP POP POP PUSH2 0xA0F JUMP JUMPDEST PUSH1 0x4 DUP1 SLOAD SWAP1 PUSH1 0x0 PUSH2 0x521 DUP4 PUSH2 0x12B6 JUMP JUMPDEST SWAP1 SWAP2 SSTORE POP POP PUSH1 0x1 PUSH1 0x1 PUSH1 0xA0 SHL SUB DUP5 AND PUSH1 0x0 SWAP1 DUP2 MSTORE PUSH1 0xA PUSH1 0x20 SWAP1 DUP2 MSTORE PUSH1 0x40 DUP3 KECCAK256 DUP1 SLOAD PUSH1 0x1 DUP2 ADD DUP3 SSTORE SWAP1 DUP4 MSTORE SWAP2 KECCAK256 ADD DUP2 SWAP1 SSTORE PUSH1 0x2 DUP1 SLOAD DUP3 SWAP2 SWAP1 DUP2 SWAP1 PUSH2 0x563 SWAP1 PUSH2 0x1240 JUMP JUMPDEST DUP1 PUSH1 0x1F ADD PUSH1 0x20 DUP1 SWAP2 DIV MUL PUSH1 0x20 ADD PUSH1 0x40 MLOAD SWAP1 DUP2 ADD PUSH1 0x40 MSTORE DUP1 SWAP3 SWAP2 SWAP1 DUP2 DUP2 MSTORE PUSH1 0x20 ADD DUP3 DUP1 SLOAD PUSH2 0x58F SWAP1 PUSH2 0x1240 JUMP JUMPDEST DUP1 ISZERO PUSH2 0x5DC JUMPI DUP1 PUSH1 0x1F LT PUSH2 0x5B1 JUMPI PUSH2 0x100 DUP1 DUP4 SLOAD DIV MUL DUP4 MSTORE SWAP2 PUSH1 0x20 ADD SWAP2 PUSH2 0x5DC JUMP JUMPDEST DUP3 ADD SWAP2 SWAP1 PUSH1 0x0 MSTORE PUSH1 0x20 PUSH1 0x0 KECCAK256 SWAP1 JUMPDEST DUP2 SLOAD DUP2 MSTORE SWAP1 PUSH1 0x1 ADD SWAP1 PUSH1 0x20 ADD DUP1 DUP4 GT PUSH2 0x5BF JUMPI DUP3 SWAP1 SUB PUSH1 0x1F AND DUP3 ADD SWAP2 JUMPDEST POP POP POP POP POP SWAP1 POP SWAP3 POP SWAP3 POP POP SWAP2 POP SWAP2 JUMP JUMPDEST PUSH1 0xC SLOAD PUSH1 0x0 SWAP1 PUSH2 0x100 SWAP1 DIV PUSH1 0x1 PUSH1 0x1 PUSH1 0xA0 SHL SUB AND CALLER PUSH1 0x1 PUSH1 0x1 PUSH1 0xA0 SHL SUB AND EQ PUSH2 0x628 JUMPI PUSH1 0x40 MLOAD PUSH3 0x461BCD PUSH1 0xE5 SHL DUP2 MSTORE PUSH1 0x4 ADD PUSH2 0x250 SWAP1 PUSH2 0x1146 JUMP JUMPDEST POP SELFBALANCE SWAP1 JUMP JUMPDEST PUSH1 0xC SLOAD PUSH1 0x0 SWAP1 PUSH1 0x60 SWAP1 PUSH1 0xFF AND ISZERO PUSH2 0x656 JUMPI PUSH1 0x40 MLOAD PUSH3 0x461BCD PUSH1 0xE5 SHL DUP2 MSTORE PUSH1 0x4 ADD PUSH2 0x250 SWAP1 PUSH2 0x117D JUMP JUMPDEST PUSH2 0x3E8 PUSH1 0x4 SLOAD LT PUSH2 0x6A5 JUMPI PUSH1 0x40 MLOAD PUSH3 0x461BCD PUSH1 0xE5 SHL DUP2 MSTORE PUSH1 0x20 PUSH1 0x4 DUP3 ADD MSTORE PUSH1 0x19 PUSH1 0x24 DUP3 ADD MSTORE PUSH25 0x13585E08135A5B9D1A5B99C8131A5B5A5D081C995858DA1959 PUSH1 0x3A SHL PUSH1 0x44 DUP3 ADD MSTORE PUSH1 0x64 ADD PUSH2 0x250 JUMP JUMPDEST PUSH1 0x6 SLOAD CALLVALUE EQ PUSH2 0x6EB JUMPI PUSH1 0x40 MLOAD PUSH3 0x461BCD PUSH1 0xE5 SHL DUP2 MSTORE PUSH1 0x20 PUSH1 0x4 DUP3 ADD MSTORE PUSH1 0x12 PUSH1 0x24 DUP3 ADD MSTORE PUSH18 0x4E6F7420456E6F7567682042616C616E6365 PUSH1 0x70 SHL PUSH1 0x44 DUP3 ADD MSTORE PUSH1 0x64 ADD PUSH2 0x250 JUMP JUMPDEST PUSH1 0x0 PUSH2 0x6F5 PUSH2 0x83E JUMP JUMPDEST SWAP1 POP PUSH2 0x70C DUP5 DUP3 PUSH1 0x5 SLOAD PUSH1 0x2 DUP1 SLOAD PUSH2 0x48E SWAP1 PUSH2 0x1240 JUMP JUMPDEST PUSH2 0x511 CALLER CALLVALUE PUSH2 0xB20 JUMP JUMPDEST PUSH1 0xC SLOAD PUSH1 0x0 SWAP1 DUP2 SWAP1 DUP2 SWAP1 PUSH2 0x100 SWAP1 DIV PUSH1 0x1 PUSH1 0x1 PUSH1 0xA0 SHL SUB AND CALLER PUSH1 0x1 PUSH1 0x1 PUSH1 0xA0 SHL SUB AND EQ PUSH2 0x755 JUMPI PUSH1 0x40 MLOAD PUSH3 0x461BCD PUSH1 0xE5 SHL DUP2 MSTORE PUSH1 0x4 ADD PUSH2 0x250 SWAP1 PUSH2 0x1146 JUMP JUMPDEST POP POP PUSH1 0x7 SLOAD PUSH1 0x8 SLOAD PUSH1 0x9 SLOAD SWAP2 SWAP4 SWAP1 SWAP3 POP JUMP JUMPDEST PUSH1 0xC SLOAD PUSH2 0x100 SWAP1 DIV PUSH1 0x1 PUSH1 0x1 PUSH1 0xA0 SHL SUB AND CALLER PUSH1 0x1 PUSH1 0x1 PUSH1 0xA0 SHL SUB AND EQ PUSH2 0x79F JUMPI PUSH1 0x40 MLOAD PUSH3 0x461BCD PUSH1 0xE5 SHL DUP2 MSTORE PUSH1 0x4 ADD PUSH2 0x250 SWAP1 PUSH2 0x1146 JUMP JUMPDEST PUSH1 0xC SLOAD PUSH1 0xFF AND ISZERO PUSH2 0x7F2 JUMPI PUSH1 0x40 MLOAD PUSH3 0x461BCD PUSH1 0xE5 SHL DUP2 MSTORE PUSH1 0x20 PUSH1 0x4 DUP3 ADD MSTORE PUSH1 0x1B PUSH1 0x24 DUP3 ADD MSTORE PUSH32 0x44726F707369746520697320616C72656164792053746F707065640000000000 PUSH1 0x44 DUP3 ADD MSTORE PUSH1 0x64 ADD PUSH2 0x250 JUMP JUMPDEST PUSH1 0xC DUP1 SLOAD PUSH1 0xFF NOT AND PUSH1 0x1 OR SWAP1 SSTORE JUMP JUMPDEST PUSH1 0xC SLOAD PUSH2 0x100 SWAP1 DIV PUSH1 0x1 PUSH1 0x1 PUSH1 0xA0 SHL SUB AND CALLER PUSH1 0x1 PUSH1 0x1 PUSH1 0xA0 SHL SUB AND EQ PUSH2 0x839 JUMPI PUSH1 0x40 MLOAD PUSH3 0x461BCD PUSH1 0xE5 SHL DUP2 MSTORE PUSH1 0x4 ADD PUSH2 0x250 SWAP1 PUSH2 0x1146 JUMP JUMPDEST PUSH1 0x6 SSTORE JUMP JUMPDEST PUSH1 0xC SLOAD PUSH1 0x0 SWAP1 PUSH1 0xFF AND ISZERO PUSH2 0x864 JUMPI PUSH1 0x40 MLOAD PUSH3 0x461BCD PUSH1 0xE5 SHL DUP2 MSTORE PUSH1 0x4 ADD PUSH2 0x250 SWAP1 PUSH2 0x117D JUMP JUMPDEST PUSH1 0x0 PUSH2 0x86E PUSH2 0xB51 JUMP JUMPDEST SWAP1 POP PUSH1 0x0 PUSH1 0x3 DUP3 PUSH1 0x14 DUP2 LT PUSH2 0x885 JUMPI PUSH2 0x885 PUSH2 0x1311 JUMP JUMPDEST PUSH1 0x20 DUP2 DIV SWAP1 SWAP2 ADD SLOAD PUSH1 0xFF PUSH1 0x1F SWAP1 SWAP3 AND PUSH2 0x100 EXP SWAP1 DIV AND SWAP1 POP DUP1 ISZERO DUP1 ISZERO PUSH2 0x8AD JUMPI POP PUSH1 0x32 PUSH1 0x7 SLOAD LT JUMPDEST ISZERO PUSH2 0x910 JUMPI PUSH1 0x7 DUP1 SLOAD SWAP1 PUSH1 0x0 PUSH2 0x8C2 DUP4 PUSH2 0x12B6 JUMP JUMPDEST SWAP2 SWAP1 POP SSTORE POP PUSH2 0x8D2 PUSH1 0x7 SLOAD PUSH2 0xBAD JUMP JUMPDEST PUSH1 0x40 MLOAD PUSH1 0x20 ADD PUSH2 0x8E2 SWAP2 SWAP1 PUSH2 0x1062 JUMP JUMPDEST PUSH1 0x40 MLOAD PUSH1 0x20 DUP2 DUP4 SUB SUB DUP2 MSTORE SWAP1 PUSH1 0x40 MSTORE PUSH1 0x2 SWAP1 DUP1 MLOAD SWAP1 PUSH1 0x20 ADD SWAP1 PUSH2 0x906 SWAP3 SWAP2 SWAP1 PUSH2 0xEBB JUMP JUMPDEST POP SWAP2 POP PUSH2 0x25E SWAP1 POP JUMP JUMPDEST PUSH1 0x1 DUP2 GT ISZERO DUP1 ISZERO PUSH2 0x923 JUMPI POP PUSH1 0x64 PUSH1 0x8 SLOAD LT JUMPDEST ISZERO PUSH2 0x958 JUMPI PUSH1 0x8 DUP1 SLOAD SWAP1 PUSH1 0x0 PUSH2 0x938 DUP4 PUSH2 0x12B6 JUMP JUMPDEST SWAP2 SWAP1 POP SSTORE POP PUSH2 0x948 PUSH1 0x8 SLOAD PUSH2 0xBAD JUMP JUMPDEST PUSH1 0x40 MLOAD PUSH1 0x20 ADD PUSH2 0x8E2 SWAP2 SWAP1 PUSH2 0x1092 JUMP JUMPDEST PUSH1 0x2 DUP2 GT ISZERO DUP1 ISZERO PUSH2 0x96D JUMPI POP PUSH2 0x352 PUSH1 0x9 SLOAD GT ISZERO JUMPDEST ISZERO PUSH2 0x9DF JUMPI PUSH1 0x9 DUP1 SLOAD SWAP1 PUSH1 0x0 PUSH2 0x982 DUP4 PUSH2 0x12B6 JUMP JUMPDEST SWAP2 SWAP1 POP SSTORE POP PUSH2 0x992 PUSH1 0x9 SLOAD PUSH2 0xBAD JUMP JUMPDEST PUSH1 0x40 MLOAD PUSH1 0x20 ADD PUSH2 0x9A2 SWAP2 SWAP1 PUSH2 0x10BF JUMP JUMPDEST PUSH1 0x40 MLOAD PUSH1 0x20 DUP2 DUP4 SUB SUB DUP2 MSTORE SWAP1 PUSH1 0x40 MSTORE PUSH1 0x2 SWAP1 DUP1 MLOAD SWAP1 PUSH1 0x20 ADD SWAP1 PUSH2 0x9C6 SWAP3 SWAP2 SWAP1 PUSH2 0xEBB JUMP JUMPDEST PUSH1 0x2 SWAP1 DUP1 SLOAD PUSH2 0x9D4 SWAP1 PUSH2 0x1240 JUMP JUMPDEST PUSH2 0x906 SWAP3 SWAP2 SWAP1 PUSH2 0xF3F JUMP JUMPDEST PUSH1 0x64 PUSH1 0x8 SLOAD LT ISZERO PUSH2 0x9FD JUMPI POP PUSH1 0x8 DUP1 SLOAD PUSH1 0x1 SWAP2 PUSH1 0x0 PUSH2 0x938 DUP4 PUSH2 0x12B6 JUMP JUMPDEST POP PUSH1 0x7 DUP1 SLOAD PUSH1 0x0 SWAP2 DUP3 PUSH2 0x8C2 DUP4 PUSH2 0x12B6 JUMP JUMPDEST PUSH1 0x1 PUSH1 0x1 PUSH1 0xA0 SHL SUB DUP5 AND PUSH2 0xA6F JUMPI PUSH1 0x40 MLOAD PUSH3 0x461BCD PUSH1 0xE5 SHL DUP2 MSTORE PUSH1 0x20 PUSH1 0x4 DUP3 ADD MSTORE PUSH1 0x21 PUSH1 0x24 DUP3 ADD MSTORE PUSH32 0x455243313135353A206D696E7420746F20746865207A65726F20616464726573 PUSH1 0x44 DUP3 ADD MSTORE PUSH1 0x73 PUSH1 0xF8 SHL PUSH1 0x64 DUP3 ADD MSTORE PUSH1 0x84 ADD PUSH2 0x250 JUMP JUMPDEST CALLER PUSH2 0xA90 DUP2 PUSH1 0x0 DUP8 PUSH2 0xA80 DUP9 PUSH2 0xCB3 JUMP JUMPDEST PUSH2 0xA89 DUP9 PUSH2 0xCB3 JUMP JUMPDEST POP POP POP POP POP JUMP JUMPDEST PUSH1 0x0 DUP5 DUP2 MSTORE PUSH1 0x20 DUP2 DUP2 MSTORE PUSH1 0x40 DUP1 DUP4 KECCAK256 PUSH1 0x1 PUSH1 0x1 PUSH1 0xA0 SHL SUB DUP10 AND DUP5 MSTORE SWAP1 SWAP2 MSTORE DUP2 KECCAK256 DUP1 SLOAD DUP6 SWAP3 SWAP1 PUSH2 0xAC0 SWAP1 DUP5 SWAP1 PUSH2 0x11CD JUMP JUMPDEST SWAP1 SWAP2 SSTORE POP POP PUSH1 0x40 DUP1 MLOAD DUP6 DUP2 MSTORE PUSH1 0x20 DUP2 ADD DUP6 SWAP1 MSTORE PUSH1 0x1 PUSH1 0x1 PUSH1 0xA0 SHL SUB DUP1 DUP9 AND SWAP3 PUSH1 0x0 SWAP3 SWAP2 DUP6 AND SWAP2 PUSH32 0xC3D58168C5AE7397731D063D5BBF3D657854427343F4C083240F7AACAA2D0F62 SWAP2 ADD PUSH1 0x40 MLOAD DUP1 SWAP2 SUB SWAP1 LOG4 PUSH2 0xA89 DUP2 PUSH1 0x0 DUP8 DUP8 DUP8 DUP8 PUSH2 0xD06 JUMP JUMPDEST PUSH1 0x1 PUSH1 0x1 PUSH1 0xA0 SHL SUB DUP3 AND PUSH1 0x0 SWAP1 DUP2 MSTORE PUSH1 0xB PUSH1 0x20 MSTORE PUSH1 0x40 DUP2 KECCAK256 DUP1 SLOAD DUP4 SWAP3 SWAP1 PUSH2 0xB48 SWAP1 DUP5 SWAP1 PUSH2 0x11CD JUMP JUMPDEST SWAP1 SWAP2 SSTORE POP POP POP POP JUMP JUMPDEST PUSH1 0x0 DUP1 PUSH1 0x14 TIMESTAMP CALLER PUSH1 0x40 MLOAD PUSH1 0x20 ADD PUSH2 0xB84 SWAP3 SWAP2 SWAP1 SWAP2 DUP3 MSTORE PUSH1 0x60 SHL PUSH12 0xFFFFFFFFFFFFFFFFFFFFFFFF NOT AND PUSH1 0x20 DUP3 ADD MSTORE PUSH1 0x34 ADD SWAP1 JUMP JUMPDEST PUSH1 0x40 MLOAD PUSH1 0x20 DUP2 DUP4 SUB SUB DUP2 MSTORE SWAP1 PUSH1 0x40 MSTORE DUP1 MLOAD SWAP1 PUSH1 0x20 ADD KECCAK256 PUSH1 0x0 SHR PUSH2 0xBA7 SWAP2 SWAP1 PUSH2 0x12D1 JUMP JUMPDEST SWAP3 SWAP2 POP POP JUMP JUMPDEST PUSH1 0x60 DUP2 PUSH2 0xBD1 JUMPI POP POP PUSH1 0x40 DUP1 MLOAD DUP1 DUP3 ADD SWAP1 SWAP2 MSTORE PUSH1 0x1 DUP2 MSTORE PUSH1 0x3 PUSH1 0xFC SHL PUSH1 0x20 DUP3 ADD MSTORE SWAP1 JUMP JUMPDEST DUP2 PUSH1 0x0 JUMPDEST DUP2 ISZERO PUSH2 0xBFB JUMPI DUP1 PUSH2 0xBE5 DUP2 PUSH2 0x12B6 JUMP JUMPDEST SWAP2 POP PUSH2 0xBF4 SWAP1 POP PUSH1 0xA DUP4 PUSH2 0x11E5 JUMP JUMPDEST SWAP2 POP PUSH2 0xBD5 JUMP JUMPDEST PUSH1 0x0 DUP2 PUSH8 0xFFFFFFFFFFFFFFFF DUP2 GT ISZERO PUSH2 0xC16 JUMPI PUSH2 0xC16 PUSH2 0x1327 JUMP JUMPDEST PUSH1 0x40 MLOAD SWAP1 DUP1 DUP3 MSTORE DUP1 PUSH1 0x1F ADD PUSH1 0x1F NOT AND PUSH1 0x20 ADD DUP3 ADD PUSH1 0x40 MSTORE DUP1 ISZERO PUSH2 0xC40 JUMPI PUSH1 0x20 DUP3 ADD DUP2 DUP1 CALLDATASIZE DUP4 CALLDATACOPY ADD SWAP1 POP JUMPDEST POP SWAP1 POP JUMPDEST DUP5 ISZERO PUSH2 0xCAB JUMPI PUSH2 0xC55 PUSH1 0x1 DUP4 PUSH2 0x11F9 JUMP JUMPDEST SWAP2 POP PUSH2 0xC62 PUSH1 0xA DUP7 PUSH2 0x12D1 JUMP JUMPDEST PUSH2 0xC6D SWAP1 PUSH1 0x30 PUSH2 0x11CD JUMP JUMPDEST PUSH1 0xF8 SHL DUP2 DUP4 DUP2 MLOAD DUP2 LT PUSH2 0xC82 JUMPI PUSH2 0xC82 PUSH2 0x1311 JUMP JUMPDEST PUSH1 0x20 ADD ADD SWAP1 PUSH1 0x1 PUSH1 0x1 PUSH1 0xF8 SHL SUB NOT AND SWAP1 DUP2 PUSH1 0x0 BYTE SWAP1 MSTORE8 POP PUSH2 0xCA4 PUSH1 0xA DUP7 PUSH2 0x11E5 JUMP JUMPDEST SWAP5 POP PUSH2 0xC44 JUMP JUMPDEST SWAP5 SWAP4 POP POP POP POP JUMP JUMPDEST PUSH1 0x40 DUP1 MLOAD PUSH1 0x1 DUP1 DUP3 MSTORE DUP2 DUP4 ADD SWAP1 SWAP3 MSTORE PUSH1 0x60 SWAP2 PUSH1 0x0 SWAP2 SWAP1 PUSH1 0x20 DUP1 DUP4 ADD SWAP1 DUP1 CALLDATASIZE DUP4 CALLDATACOPY ADD SWAP1 POP POP SWAP1 POP DUP3 DUP2 PUSH1 0x0 DUP2 MLOAD DUP2 LT PUSH2 0xCED JUMPI PUSH2 0xCED PUSH2 0x1311 JUMP JUMPDEST PUSH1 0x20 SWAP1 DUP2 MUL SWAP2 SWAP1 SWAP2 ADD ADD MSTORE SWAP3 SWAP2 POP POP JUMP JUMPDEST POP POP POP POP POP POP JUMP JUMPDEST PUSH1 0x1 PUSH1 0x1 PUSH1 0xA0 SHL SUB DUP5 AND EXTCODESIZE ISZERO PUSH2 0xCFE JUMPI PUSH1 0x40 MLOAD PUSH4 0x15D13449 PUSH1 0xE3 SHL DUP2 MSTORE PUSH1 0x1 PUSH1 0x1 PUSH1 0xA0 SHL SUB DUP6 AND SWAP1 PUSH4 0xAE89A248 SWAP1 PUSH2 0xD4A SWAP1 DUP10 SWAP1 DUP10 SWAP1 DUP9 SWAP1 DUP9 SWAP1 DUP9 SWAP1 PUSH1 0x4 ADD PUSH2 0x10EE JUMP JUMPDEST PUSH1 0x20 PUSH1 0x40 MLOAD DUP1 DUP4 SUB DUP2 PUSH1 0x0 DUP8 DUP1 EXTCODESIZE ISZERO DUP1 ISZERO PUSH2 0xD64 JUMPI PUSH1 0x0 DUP1 REVERT JUMPDEST POP GAS CALL SWAP3 POP POP POP DUP1 ISZERO PUSH2 0xD94 JUMPI POP PUSH1 0x40 DUP1 MLOAD PUSH1 0x1F RETURNDATASIZE SWAP1 DUP2 ADD PUSH1 0x1F NOT AND DUP3 ADD SWAP1 SWAP3 MSTORE PUSH2 0xD91 SWAP2 DUP2 ADD SWAP1 PUSH2 0xFF3 JUMP JUMPDEST PUSH1 0x1 JUMPDEST PUSH2 0xE41 JUMPI PUSH2 0xDA0 PUSH2 0x133D JUMP JUMPDEST DUP1 PUSH4 0x8C379A0 EQ ISZERO PUSH2 0xDDA JUMPI POP PUSH2 0xDB5 PUSH2 0x1358 JUMP JUMPDEST DUP1 PUSH2 0xDC0 JUMPI POP PUSH2 0xDDC JUMP JUMPDEST DUP1 PUSH1 0x40 MLOAD PUSH3 0x461BCD PUSH1 0xE5 SHL DUP2 MSTORE PUSH1 0x4 ADD PUSH2 0x250 SWAP2 SWAP1 PUSH2 0x1133 JUMP JUMPDEST POP JUMPDEST PUSH1 0x40 MLOAD PUSH3 0x461BCD PUSH1 0xE5 SHL DUP2 MSTORE PUSH1 0x20 PUSH1 0x4 DUP3 ADD MSTORE PUSH1 0x34 PUSH1 0x24 DUP3 ADD MSTORE PUSH32 0x455243313135353A207472616E7366657220746F206E6F6E2045524331313535 PUSH1 0x44 DUP3 ADD MSTORE PUSH20 0x2932B1B2B4BB32B91034B6B83632B6B2B73A32B9 PUSH1 0x61 SHL PUSH1 0x64 DUP3 ADD MSTORE PUSH1 0x84 ADD PUSH2 0x250 JUMP JUMPDEST PUSH1 0x1 PUSH1 0x1 PUSH1 0xE0 SHL SUB NOT DUP2 AND PUSH4 0x15D13449 PUSH1 0xE3 SHL EQ PUSH2 0xEB2 JUMPI PUSH1 0x40 MLOAD PUSH3 0x461BCD PUSH1 0xE5 SHL DUP2 MSTORE PUSH1 0x20 PUSH1 0x4 DUP3 ADD MSTORE PUSH1 0x28 PUSH1 0x24 DUP3 ADD MSTORE PUSH32 0x455243313135353A204552433131353552656365697665722072656A65637465 PUSH1 0x44 DUP3 ADD MSTORE PUSH8 0x6420746F6B656E73 PUSH1 0xC0 SHL PUSH1 0x64 DUP3 ADD MSTORE PUSH1 0x84 ADD PUSH2 0x250 JUMP JUMPDEST POP POP POP POP POP POP POP JUMP JUMPDEST DUP3 DUP1 SLOAD PUSH2 0xEC7 SWAP1 PUSH2 0x1240 JUMP JUMPDEST SWAP1 PUSH1 0x0 MSTORE PUSH1 0x20 PUSH1 0x0 KECCAK256 SWAP1 PUSH1 0x1F ADD PUSH1 0x20 SWAP1 DIV DUP2 ADD SWAP3 DUP3 PUSH2 0xEE9 JUMPI PUSH1 0x0 DUP6 SSTORE PUSH2 0xF2F JUMP JUMPDEST DUP3 PUSH1 0x1F LT PUSH2 0xF02 JUMPI DUP1 MLOAD PUSH1 0xFF NOT AND DUP4 DUP1 ADD OR DUP6 SSTORE PUSH2 0xF2F JUMP JUMPDEST DUP3 DUP1 ADD PUSH1 0x1 ADD DUP6 SSTORE DUP3 ISZERO PUSH2 0xF2F JUMPI SWAP2 DUP3 ADD JUMPDEST DUP3 DUP2 GT ISZERO PUSH2 0xF2F JUMPI DUP3 MLOAD DUP3 SSTORE SWAP2 PUSH1 0x20 ADD SWAP2 SWAP1 PUSH1 0x1 ADD SWAP1 PUSH2 0xF14 JUMP JUMPDEST POP PUSH2 0xF3B SWAP3 SWAP2 POP PUSH2 0xFBA JUMP JUMPDEST POP SWAP1 JUMP JUMPDEST DUP3 DUP1 SLOAD PUSH2 0xF4B SWAP1 PUSH2 0x1240 JUMP JUMPDEST SWAP1 PUSH1 0x0 MSTORE PUSH1 0x20 PUSH1 0x0 KECCAK256 SWAP1 PUSH1 0x1F ADD PUSH1 0x20 SWAP1 DIV DUP2 ADD SWAP3 DUP3 PUSH2 0xF6D JUMPI PUSH1 0x0 DUP6 SSTORE PUSH2 0xF2F JUMP JUMPDEST DUP3 PUSH1 0x1F LT PUSH2 0xF7E JUMPI DUP1 SLOAD DUP6 SSTORE PUSH2 0xF2F JUMP JUMPDEST DUP3 DUP1 ADD PUSH1 0x1 ADD DUP6 SSTORE DUP3 ISZERO PUSH2 0xF2F JUMPI PUSH1 0x0 MSTORE PUSH1 0x20 PUSH1 0x0 KECCAK256 SWAP2 PUSH1 0x1F ADD PUSH1 0x20 SWAP1 DIV DUP3 ADD JUMPDEST DUP3 DUP2 GT ISZERO PUSH2 0xF2F JUMPI DUP3 SLOAD DUP3 SSTORE SWAP2 PUSH1 0x1 ADD SWAP2 SWAP1 PUSH1 0x1 ADD SWAP1 PUSH2 0xF9F JUMP JUMPDEST JUMPDEST DUP1 DUP3 GT ISZERO PUSH2 0xF3B JUMPI PUSH1 0x0 DUP2 SSTORE PUSH1 0x1 ADD PUSH2 0xFBB JUMP JUMPDEST PUSH1 0x0 PUSH1 0x20 DUP3 DUP5 SUB SLT ISZERO PUSH2 0xFE1 JUMPI PUSH1 0x0 DUP1 REVERT JUMPDEST DUP2 CALLDATALOAD PUSH2 0xFEC DUP2 PUSH2 0x13E2 JUMP JUMPDEST SWAP4 SWAP3 POP POP POP JUMP JUMPDEST PUSH1 0x0 PUSH1 0x20 DUP3 DUP5 SUB SLT ISZERO PUSH2 0x1005 JUMPI PUSH1 0x0 DUP1 REVERT JUMPDEST DUP2 MLOAD PUSH1 0x1 PUSH1 0x1 PUSH1 0xE0 SHL SUB NOT DUP2 AND DUP2 EQ PUSH2 0xFEC JUMPI PUSH1 0x0 DUP1 REVERT JUMPDEST PUSH1 0x0 PUSH1 0x20 DUP3 DUP5 SUB SLT ISZERO PUSH2 0x102F JUMPI PUSH1 0x0 DUP1 REVERT JUMPDEST POP CALLDATALOAD SWAP2 SWAP1 POP JUMP JUMPDEST PUSH1 0x0 DUP2 MLOAD DUP1 DUP5 MSTORE PUSH2 0x104E DUP2 PUSH1 0x20 DUP7 ADD PUSH1 0x20 DUP7 ADD PUSH2 0x1210 JUMP JUMPDEST PUSH1 0x1F ADD PUSH1 0x1F NOT AND SWAP3 SWAP1 SWAP3 ADD PUSH1 0x20 ADD SWAP3 SWAP2 POP POP JUMP JUMPDEST PUSH8 0x4469616D6F6E645F PUSH1 0xC0 SHL DUP2 MSTORE PUSH1 0x0 DUP3 MLOAD PUSH2 0x1085 DUP2 PUSH1 0x8 DUP6 ADD PUSH1 0x20 DUP8 ADD PUSH2 0x1210 JUMP JUMPDEST SWAP2 SWAP1 SWAP2 ADD PUSH1 0x8 ADD SWAP3 SWAP2 POP POP JUMP JUMPDEST PUSH5 0x476F6C645F PUSH1 0xD8 SHL DUP2 MSTORE PUSH1 0x0 DUP3 MLOAD PUSH2 0x10B2 DUP2 PUSH1 0x5 DUP6 ADD PUSH1 0x20 DUP8 ADD PUSH2 0x1210 JUMP JUMPDEST SWAP2 SWAP1 SWAP2 ADD PUSH1 0x5 ADD SWAP3 SWAP2 POP POP JUMP JUMPDEST PUSH7 0x53696C7665725F PUSH1 0xC8 SHL DUP2 MSTORE PUSH1 0x0 DUP3 MLOAD PUSH2 0x10E1 DUP2 PUSH1 0x7 DUP6 ADD PUSH1 0x20 DUP8 ADD PUSH2 0x1210 JUMP JUMPDEST SWAP2 SWAP1 SWAP2 ADD PUSH1 0x7 ADD SWAP3 SWAP2 POP POP JUMP JUMPDEST PUSH1 0x1 PUSH1 0x1 PUSH1 0xA0 SHL SUB DUP7 DUP2 AND DUP3 MSTORE DUP6 AND PUSH1 0x20 DUP3 ADD MSTORE PUSH1 0x40 DUP2 ADD DUP5 SWAP1 MSTORE PUSH1 0x60 DUP2 ADD DUP4 SWAP1 MSTORE PUSH1 0xA0 PUSH1 0x80 DUP3 ADD DUP2 SWAP1 MSTORE PUSH1 0x0 SWAP1 PUSH2 0x1128 SWAP1 DUP4 ADD DUP5 PUSH2 0x1036 JUMP JUMPDEST SWAP8 SWAP7 POP POP POP POP POP POP POP JUMP JUMPDEST PUSH1 0x20 DUP2 MSTORE PUSH1 0x0 PUSH2 0xFEC PUSH1 0x20 DUP4 ADD DUP5 PUSH2 0x1036 JUMP JUMPDEST PUSH1 0x20 DUP1 DUP3 MSTORE PUSH1 0x1C SWAP1 DUP3 ADD MSTORE PUSH32 0x4F6E6C79204E46542D4553204F776E65722063616E2041636365737300000000 PUSH1 0x40 DUP3 ADD MSTORE PUSH1 0x60 ADD SWAP1 JUMP JUMPDEST PUSH1 0x20 DUP1 DUP3 MSTORE PUSH1 0x1B SWAP1 DUP3 ADD MSTORE PUSH32 0x44726F7073697465206973206E6F74204F70656E6564205965742E0000000000 PUSH1 0x40 DUP3 ADD MSTORE PUSH1 0x60 ADD SWAP1 JUMP JUMPDEST DUP3 DUP2 MSTORE PUSH1 0x40 PUSH1 0x20 DUP3 ADD MSTORE PUSH1 0x0 PUSH2 0xCAB PUSH1 0x40 DUP4 ADD DUP5 PUSH2 0x1036 JUMP JUMPDEST PUSH1 0x0 DUP3 NOT DUP3 GT ISZERO PUSH2 0x11E0 JUMPI PUSH2 0x11E0 PUSH2 0x12E5 JUMP JUMPDEST POP ADD SWAP1 JUMP JUMPDEST PUSH1 0x0 DUP3 PUSH2 0x11F4 JUMPI PUSH2 0x11F4 PUSH2 0x12FB JUMP JUMPDEST POP DIV SWAP1 JUMP JUMPDEST PUSH1 0x0 DUP3 DUP3 LT ISZERO PUSH2 0x120B JUMPI PUSH2 0x120B PUSH2 0x12E5 JUMP JUMPDEST POP SUB SWAP1 JUMP JUMPDEST PUSH1 0x0 JUMPDEST DUP4 DUP2 LT ISZERO PUSH2 0x122B JUMPI DUP2 DUP2 ADD MLOAD DUP4 DUP3 ADD MSTORE PUSH1 0x20 ADD PUSH2 0x1213 JUMP JUMPDEST DUP4 DUP2 GT ISZERO PUSH2 0x123A JUMPI PUSH1 0x0 DUP5 DUP5 ADD MSTORE JUMPDEST POP POP POP POP JUMP JUMPDEST PUSH1 0x1 DUP2 DUP2 SHR SWAP1 DUP3 AND DUP1 PUSH2 0x1254 JUMPI PUSH1 0x7F DUP3 AND SWAP2 POP JUMPDEST PUSH1 0x20 DUP3 LT DUP2 EQ ISZERO PUSH2 0x1275 JUMPI PUSH4 0x4E487B71 PUSH1 0xE0 SHL PUSH1 0x0 MSTORE PUSH1 0x22 PUSH1 0x4 MSTORE PUSH1 0x24 PUSH1 0x0 REVERT JUMPDEST POP SWAP2 SWAP1 POP JUMP JUMPDEST PUSH1 0x1F DUP3 ADD PUSH1 0x1F NOT AND DUP2 ADD PUSH8 0xFFFFFFFFFFFFFFFF DUP2 GT DUP3 DUP3 LT OR ISZERO PUSH2 0x12AF JUMPI PUSH4 0x4E487B71 PUSH1 0xE0 SHL PUSH1 0x0 MSTORE PUSH1 0x41 PUSH1 0x4 MSTORE PUSH1 0x24 PUSH1 0x0 REVERT JUMPDEST PUSH1 0x40 MSTORE POP POP JUMP JUMPDEST PUSH1 0x0 PUSH1 0x0 NOT DUP3 EQ ISZERO PUSH2 0x12CA JUMPI PUSH2 0x12CA PUSH2 0x12E5 JUMP JUMPDEST POP PUSH1 0x1 ADD SWAP1 JUMP JUMPDEST PUSH1 0x0 DUP3 PUSH2 0x12E0 JUMPI PUSH2 0x12E0 PUSH2 0x12FB JUMP JUMPDEST POP MOD SWAP1 JUMP JUMPDEST PUSH4 0x4E487B71 PUSH1 0xE0 SHL PUSH1 0x0 MSTORE PUSH1 0x11 PUSH1 0x4 MSTORE PUSH1 0x24 PUSH1 0x0 REVERT JUMPDEST PUSH4 0x4E487B71 PUSH1 0xE0 SHL PUSH1 0x0 MSTORE PUSH1 0x12 PUSH1 0x4 MSTORE PUSH1 0x24 PUSH1 0x0 REVERT JUMPDEST PUSH4 0x4E487B71 PUSH1 0xE0 SHL PUSH1 0x0 MSTORE PUSH1 0x32 PUSH1 0x4 MSTORE PUSH1 0x24 PUSH1 0x0 REVERT JUMPDEST PUSH4 0x4E487B71 PUSH1 0xE0 SHL PUSH1 0x0 MSTORE PUSH1 0x41 PUSH1 0x4 MSTORE PUSH1 0x24 PUSH1 0x0 REVERT JUMPDEST PUSH1 0x0 PUSH1 0x3 RETURNDATASIZE GT ISZERO PUSH2 0x25E JUMPI PUSH1 0x4 PUSH1 0x0 DUP1 RETURNDATACOPY POP PUSH1 0x0 MLOAD PUSH1 0xE0 SHR SWAP1 JUMP JUMPDEST PUSH1 0x0 PUSH1 0x44 RETURNDATASIZE LT ISZERO PUSH2 0x1366 JUMPI SWAP1 JUMP JUMPDEST PUSH1 0x40 MLOAD PUSH1 0x3 NOT RETURNDATASIZE DUP2 ADD PUSH1 0x4 DUP4 RETURNDATACOPY DUP2 MLOAD RETURNDATASIZE PUSH8 0xFFFFFFFFFFFFFFFF DUP2 PUSH1 0x24 DUP5 ADD GT DUP2 DUP5 GT OR ISZERO PUSH2 0x1396 JUMPI POP POP POP POP POP SWAP1 JUMP JUMPDEST DUP3 DUP6 ADD SWAP2 POP DUP2 MLOAD DUP2 DUP2 GT ISZERO PUSH2 0x13AE JUMPI POP POP POP POP POP POP SWAP1 JUMP JUMPDEST DUP5 RETURNDATASIZE DUP8 ADD ADD PUSH1 0x20 DUP3 DUP6 ADD ADD GT ISZERO PUSH2 0x13C8 JUMPI POP POP POP POP POP POP SWAP1 JUMP JUMPDEST PUSH2 0x13D7 PUSH1 0x20 DUP3 DUP7 ADD ADD DUP8 PUSH2 0x127B JUMP JUMPDEST POP SWAP1 SWAP6 SWAP5 POP POP POP POP POP JUMP JUMPDEST PUSH1 0x1 PUSH1 0x1 PUSH1 0xA0 SHL SUB DUP2 AND DUP2 EQ PUSH2 0x13F7 JUMPI PUSH1 0x0 DUP1 REVERT JUMPDEST POP JUMP INVALID LOG2 PUSH5 0x6970667358 0x22 SLT KECCAK256 BLOCKHASH 0xC7 0x2B PUSH1 0x7F SWAP12 CHAINID PUSH1 0x15 DUP11 CALLVALUE 0xD2 0xAE 0xC7 0xF6 0x26 0x4E BLOCKHASH PUSH12 0xB4DD642924B52113DF28CD2D PUSH14 0x64736F6C63430008070033000000 "
				},
				"gasEstimates": {
					"creation": {
						"codeDepositCost": "1033600",
						"executionCost": "infinite",
						"totalCost": "infinite"
					},
					"external": {
						"ContractBalance()": "2447",
						"CryptoRandomMint(address)": "infinite",
						"FiatRandomMint(address)": "infinite",
						"IsPaused()": "2355",
						"Owner()": "2436",
						"checkMintedCategoryWise()": "8801",
						"checkTotalMinted()": "4475",
						"openDropsite()": "28733",
						"setMintFee(uint256)": "24603",
						"stopDropsite()": "28729",
						"withDraw(address)": "infinite"
					},
					"internal": {
						"depositAmount(address,uint256)": "24404",
						"random()": "infinite",
						"updateConditions()": "infinite"
					}
				},
				"methodIdentifiers": {
					"ContractBalance()": "3b668059",
					"CryptoRandomMint(address)": "3d65df70",
					"FiatRandomMint(address)": "32b61b4c",
					"IsPaused()": "1309a563",
					"Owner()": "b4a99a4e",
					"checkMintedCategoryWise()": "60daa851",
					"checkTotalMinted()": "0390c11c",
					"openDropsite()": "15460259",
					"setMintFee(uint256)": "eddd0d9c",
					"stopDropsite()": "aa90c726",
					"withDraw(address)": "0a67d2c7"
				}
			},
			"userdoc": {
				"kind": "user",
				"methods": {},
				"version": 1
			}
		}
	}
}