{
	"Dropsite.sol": {
		"Dropsite": {
			"abi": [
				{
					"inputs": [
						{
							"internalType": "string",
							"name": "name",
							"type": "string"
						}
					],
					"stateMutability": "nonpayable",
					"type": "constructor"
				},
				{
					"anonymous": false,
					"inputs": [
						{
							"indexed": true,
							"internalType": "address",
							"name": "operator",
							"type": "address"
						},
						{
							"indexed": true,
							"internalType": "address",
							"name": "from",
							"type": "address"
						},
						{
							"indexed": true,
							"internalType": "address",
							"name": "to",
							"type": "address"
						},
						{
							"indexed": false,
							"internalType": "uint256",
							"name": "id",
							"type": "uint256"
						},
						{
							"indexed": false,
							"internalType": "uint256",
							"name": "value",
							"type": "uint256"
						}
					],
					"name": "TransferSingle",
					"type": "event"
				},
				{
					"inputs": [],
					"name": "IsPaused",
					"outputs": [
						{
							"internalType": "bool",
							"name": "",
							"type": "bool"
						}
					],
					"stateMutability": "view",
					"type": "function"
				},
				{
					"inputs": [],
					"name": "Owner",
					"outputs": [
						{
							"internalType": "address payable",
							"name": "",
							"type": "address"
						}
					],
					"stateMutability": "view",
					"type": "function"
				},
				{
					"inputs": [],
					"name": "SwitchSaleState",
					"outputs": [],
					"stateMutability": "nonpayable",
					"type": "function"
				},
				{
					"inputs": [],
					"name": "TotalNFTsMinted",
					"outputs": [
						{
							"internalType": "uint256",
							"name": "",
							"type": "uint256"
						}
					],
					"stateMutability": "view",
					"type": "function"
				},
				{
					"inputs": [],
					"name": "checkMintedCategory",
					"outputs": [
						{
							"internalType": "uint256",
							"name": "",
							"type": "uint256"
						},
						{
							"internalType": "uint256",
							"name": "",
							"type": "uint256"
						},
						{
							"internalType": "uint256",
							"name": "",
							"type": "uint256"
						}
					],
					"stateMutability": "view",
					"type": "function"
				},
				{
					"inputs": [
						{
							"internalType": "address",
							"name": "",
							"type": "address"
						}
					],
					"name": "dropsite_NFT_Owner",
					"outputs": [
						{
							"internalType": "uint256",
							"name": "",
							"type": "uint256"
						}
					],
					"stateMutability": "view",
					"type": "function"
				},
				{
					"inputs": [],
					"name": "finishDropsite",
					"outputs": [],
					"stateMutability": "nonpayable",
					"type": "function"
				},
				{
					"inputs": [],
					"name": "randomMint",
					"outputs": [
						{
							"internalType": "uint256",
							"name": "",
							"type": "uint256"
						}
					],
					"stateMutability": "nonpayable",
					"type": "function"
				}
			],
			"devdoc": {
				"kind": "dev",
				"methods": {},
				"version": 1
			},
			"evm": {
				"assembly": "    /* \"Dropsite.sol\":122:2509  contract Dropsite is ERC1155_Dropsite  { ... */\n  mstore(0x40, 0x80)\n    /* \"Dropsite.sol\":190:205  bytes  data =\"\" */\n  mload(0x40)\n  dup1\n  0x20\n  add\n  0x40\n  mstore\n  dup1\n  0x00\n  dup2\n  mstore\n  pop\n  0x02\n  swap1\n  dup1\n  mload\n  swap1\n  0x20\n  add\n  swap1\n  tag_1\n  swap3\n  swap2\n  swap1\n  tag_2\n  jump\t// in\ntag_1:\n  pop\n    /* \"Dropsite.sol\":815:819  true */\n  0x01\n    /* \"Dropsite.sol\":792:819  bool public IsPaused = true */\n  0x0b\n  exp(0x0100, 0x00)\n  dup2\n  sload\n  dup2\n  0xff\n  mul\n  not\n  and\n  swap1\n  dup4\n  iszero\n  iszero\n  mul\n  or\n  swap1\n  sstore\n  pop\n    /* \"Dropsite.sol\":891:1159  constructor (string memory name){... */\n  callvalue\n  dup1\n  iszero\n  tag_3\n  jumpi\n  0x00\n  dup1\n  revert\ntag_3:\n  pop\n  mload(0x40)\n  sub(codesize, bytecodeSize)\n  dup1\n  bytecodeSize\n  dup4\n  codecopy\n  dup2\n  dup2\n  add\n  0x40\n  mstore\n  dup2\n  add\n  swap1\n  tag_4\n  swap2\n  swap1\n  tag_5\n  jump\t// in\ntag_4:\n    /* \"Dropsite.sol\":941:945  name */\n  dup1\n    /* \"Dropsite.sol\":933:938  _name */\n  0x0c\n    /* \"Dropsite.sol\":933:945  _name = name */\n  swap1\n  dup1\n  mload\n  swap1\n  0x20\n  add\n  swap1\n  tag_8\n  swap3\n  swap2\n  swap1\n  tag_9\n  jump\t// in\ntag_8:\n  pop\n    /* \"Dropsite.sol\":971:981  msg.sender */\n  caller\n    /* \"Dropsite.sol\":955:960  Owner */\n  0x0b\n  0x01\n    /* \"Dropsite.sol\":955:982  Owner = payable(msg.sender) */\n  0x0100\n  exp\n  dup2\n  sload\n  dup2\n  0xffffffffffffffffffffffffffffffffffffffff\n  mul\n  not\n  and\n  swap1\n  dup4\n  0xffffffffffffffffffffffffffffffffffffffff\n  and\n  mul\n  or\n  swap1\n  sstore\n  pop\n    /* \"Dropsite.sol\":1008:1009  0 */\n  0x00\n    /* \"Dropsite.sol\":992:1007  TotalNFTsMinted */\n  0x03\n    /* \"Dropsite.sol\":992:1009  TotalNFTsMinted=0 */\n  dup2\n  swap1\n  sstore\n  pop\n    /* \"Dropsite.sol\":1048:1049  1 */\n  0x01\n    /* \"Dropsite.sol\":1036:1047  numOfCopies */\n  0x04\n    /* \"Dropsite.sol\":1036:1049  numOfCopies=1 */\n  dup2\n  swap1\n  sstore\n  pop\n    /* \"Dropsite.sol\":1105:1106  0 */\n  0x00\n    /* \"Dropsite.sol\":1096:1104  Platinum */\n  0x05\n    /* \"Dropsite.sol\":1096:1106  Platinum=0 */\n  dup2\n  swap1\n  sstore\n  pop\n    /* \"Dropsite.sol\":1133:1134  0 */\n  0x00\n    /* \"Dropsite.sol\":1128:1132  Gold */\n  0x06\n    /* \"Dropsite.sol\":1128:1134  Gold=0 */\n  dup2\n  swap1\n  sstore\n  pop\n    /* \"Dropsite.sol\":1151:1152  0 */\n  0x00\n    /* \"Dropsite.sol\":1144:1150  Silver */\n  0x07\n    /* \"Dropsite.sol\":1144:1152  Silver=0 */\n  dup2\n  swap1\n  sstore\n  pop\n    /* \"Dropsite.sol\":891:1159  constructor (string memory name){... */\n  pop\n    /* \"Dropsite.sol\":122:2509  contract Dropsite is ERC1155_Dropsite  { ... */\n  jump(tag_10)\ntag_2:\n  dup3\n  dup1\n  sload\n  tag_11\n  swap1\n  tag_12\n  jump\t// in\ntag_11:\n  swap1\n  0x00\n  mstore\n  keccak256(0x00, 0x20)\n  swap1\n  0x1f\n  add\n  0x20\n  swap1\n  div\n  dup2\n  add\n  swap3\n  dup3\n  tag_14\n  jumpi\n  0x00\n  dup6\n  sstore\n  jump(tag_13)\ntag_14:\n  dup3\n  0x1f\n  lt\n  tag_15\n  jumpi\n  dup1\n  mload\n  not(0xff)\n  and\n  dup4\n  dup1\n  add\n  or\n  dup6\n  sstore\n  jump(tag_13)\ntag_15:\n  dup3\n  dup1\n  add\n  0x01\n  add\n  dup6\n  sstore\n  dup3\n  iszero\n  tag_13\n  jumpi\n  swap2\n  dup3\n  add\ntag_16:\n  dup3\n  dup2\n  gt\n  iszero\n  tag_17\n  jumpi\n  dup3\n  mload\n  dup3\n  sstore\n  swap2\n  0x20\n  add\n  swap2\n  swap1\n  0x01\n  add\n  swap1\n  jump(tag_16)\ntag_17:\ntag_13:\n  pop\n  swap1\n  pop\n  tag_18\n  swap2\n  swap1\n  tag_19\n  jump\t// in\ntag_18:\n  pop\n  swap1\n  jump\t// out\ntag_9:\n  dup3\n  dup1\n  sload\n  tag_20\n  swap1\n  tag_12\n  jump\t// in\ntag_20:\n  swap1\n  0x00\n  mstore\n  keccak256(0x00, 0x20)\n  swap1\n  0x1f\n  add\n  0x20\n  swap1\n  div\n  dup2\n  add\n  swap3\n  dup3\n  tag_22\n  jumpi\n  0x00\n  dup6\n  sstore\n  jump(tag_21)\ntag_22:\n  dup3\n  0x1f\n  lt\n  tag_23\n  jumpi\n  dup1\n  mload\n  not(0xff)\n  and\n  dup4\n  dup1\n  add\n  or\n  dup6\n  sstore\n  jump(tag_21)\ntag_23:\n  dup3\n  dup1\n  add\n  0x01\n  add\n  dup6\n  sstore\n  dup3\n  iszero\n  tag_21\n  jumpi\n  swap2\n  dup3\n  add\ntag_24:\n  dup3\n  dup2\n  gt\n  iszero\n  tag_25\n  jumpi\n  dup3\n  mload\n  dup3\n  sstore\n  swap2\n  0x20\n  add\n  swap2\n  swap1\n  0x01\n  add\n  swap1\n  jump(tag_24)\ntag_25:\ntag_21:\n  pop\n  swap1\n  pop\n  tag_26\n  swap2\n  swap1\n  tag_19\n  jump\t// in\ntag_26:\n  pop\n  swap1\n  jump\t// out\ntag_19:\ntag_27:\n  dup1\n  dup3\n  gt\n  iszero\n  tag_28\n  jumpi\n  0x00\n  dup2\n  0x00\n  swap1\n  sstore\n  pop\n  0x01\n  add\n  jump(tag_27)\ntag_28:\n  pop\n  swap1\n  jump\t// out\n    /* \"#utility.yul\":7:428   */\ntag_30:\n    /* \"#utility.yul\":96:101   */\n  0x00\n    /* \"#utility.yul\":121:187   */\n  tag_32\n    /* \"#utility.yul\":137:186   */\n  tag_33\n    /* \"#utility.yul\":179:185   */\n  dup5\n    /* \"#utility.yul\":137:186   */\n  tag_34\n  jump\t// in\ntag_33:\n    /* \"#utility.yul\":121:187   */\n  tag_35\n  jump\t// in\ntag_32:\n    /* \"#utility.yul\":112:187   */\n  swap1\n  pop\n    /* \"#utility.yul\":210:216   */\n  dup3\n    /* \"#utility.yul\":203:208   */\n  dup2\n    /* \"#utility.yul\":196:217   */\n  mstore\n    /* \"#utility.yul\":248:252   */\n  0x20\n    /* \"#utility.yul\":241:246   */\n  dup2\n    /* \"#utility.yul\":237:253   */\n  add\n    /* \"#utility.yul\":286:289   */\n  dup5\n    /* \"#utility.yul\":277:283   */\n  dup5\n    /* \"#utility.yul\":272:275   */\n  dup5\n    /* \"#utility.yul\":268:284   */\n  add\n    /* \"#utility.yul\":265:290   */\n  gt\n    /* \"#utility.yul\":262:374   */\n  iszero\n  tag_36\n  jumpi\n    /* \"#utility.yul\":293:372   */\n  tag_37\n  tag_38\n  jump\t// in\ntag_37:\n    /* \"#utility.yul\":262:374   */\ntag_36:\n    /* \"#utility.yul\":383:422   */\n  tag_39\n    /* \"#utility.yul\":415:421   */\n  dup5\n    /* \"#utility.yul\":410:413   */\n  dup3\n    /* \"#utility.yul\":405:408   */\n  dup6\n    /* \"#utility.yul\":383:422   */\n  tag_40\n  jump\t// in\ntag_39:\n    /* \"#utility.yul\":102:428   */\n  pop\n    /* \"#utility.yul\":7:428   */\n  swap4\n  swap3\n  pop\n  pop\n  pop\n  jump\t// out\n    /* \"#utility.yul\":448:803   */\ntag_41:\n    /* \"#utility.yul\":515:520   */\n  0x00\n    /* \"#utility.yul\":564:567   */\n  dup3\n    /* \"#utility.yul\":557:561   */\n  0x1f\n    /* \"#utility.yul\":549:555   */\n  dup4\n    /* \"#utility.yul\":545:562   */\n  add\n    /* \"#utility.yul\":541:568   */\n  slt\n    /* \"#utility.yul\":531:653   */\n  tag_43\n  jumpi\n    /* \"#utility.yul\":572:651   */\n  tag_44\n  tag_45\n  jump\t// in\ntag_44:\n    /* \"#utility.yul\":531:653   */\ntag_43:\n    /* \"#utility.yul\":682:688   */\n  dup2\n    /* \"#utility.yul\":676:689   */\n  mload\n    /* \"#utility.yul\":707:797   */\n  tag_46\n    /* \"#utility.yul\":793:796   */\n  dup5\n    /* \"#utility.yul\":785:791   */\n  dup3\n    /* \"#utility.yul\":778:782   */\n  0x20\n    /* \"#utility.yul\":770:776   */\n  dup7\n    /* \"#utility.yul\":766:783   */\n  add\n    /* \"#utility.yul\":707:797   */\n  tag_30\n  jump\t// in\ntag_46:\n    /* \"#utility.yul\":698:797   */\n  swap2\n  pop\n    /* \"#utility.yul\":521:803   */\n  pop\n    /* \"#utility.yul\":448:803   */\n  swap3\n  swap2\n  pop\n  pop\n  jump\t// out\n    /* \"#utility.yul\":809:1333   */\ntag_5:\n    /* \"#utility.yul\":889:895   */\n  0x00\n    /* \"#utility.yul\":938:940   */\n  0x20\n    /* \"#utility.yul\":926:935   */\n  dup3\n    /* \"#utility.yul\":917:924   */\n  dup5\n    /* \"#utility.yul\":913:936   */\n  sub\n    /* \"#utility.yul\":909:941   */\n  slt\n    /* \"#utility.yul\":906:1025   */\n  iszero\n  tag_48\n  jumpi\n    /* \"#utility.yul\":944:1023   */\n  tag_49\n  tag_50\n  jump\t// in\ntag_49:\n    /* \"#utility.yul\":906:1025   */\ntag_48:\n    /* \"#utility.yul\":1085:1086   */\n  0x00\n    /* \"#utility.yul\":1074:1083   */\n  dup3\n    /* \"#utility.yul\":1070:1087   */\n  add\n    /* \"#utility.yul\":1064:1088   */\n  mload\n    /* \"#utility.yul\":1115:1133   */\n  0xffffffffffffffff\n    /* \"#utility.yul\":1107:1113   */\n  dup2\n    /* \"#utility.yul\":1104:1134   */\n  gt\n    /* \"#utility.yul\":1101:1218   */\n  iszero\n  tag_51\n  jumpi\n    /* \"#utility.yul\":1137:1216   */\n  tag_52\n  tag_53\n  jump\t// in\ntag_52:\n    /* \"#utility.yul\":1101:1218   */\ntag_51:\n    /* \"#utility.yul\":1242:1316   */\n  tag_54\n    /* \"#utility.yul\":1308:1315   */\n  dup5\n    /* \"#utility.yul\":1299:1305   */\n  dup3\n    /* \"#utility.yul\":1288:1297   */\n  dup6\n    /* \"#utility.yul\":1284:1306   */\n  add\n    /* \"#utility.yul\":1242:1316   */\n  tag_41\n  jump\t// in\ntag_54:\n    /* \"#utility.yul\":1232:1316   */\n  swap2\n  pop\n    /* \"#utility.yul\":1035:1326   */\n  pop\n    /* \"#utility.yul\":809:1333   */\n  swap3\n  swap2\n  pop\n  pop\n  jump\t// out\n    /* \"#utility.yul\":1339:1468   */\ntag_35:\n    /* \"#utility.yul\":1373:1379   */\n  0x00\n    /* \"#utility.yul\":1400:1420   */\n  tag_56\n  tag_57\n  jump\t// in\ntag_56:\n    /* \"#utility.yul\":1390:1420   */\n  swap1\n  pop\n    /* \"#utility.yul\":1429:1462   */\n  tag_58\n    /* \"#utility.yul\":1457:1461   */\n  dup3\n    /* \"#utility.yul\":1449:1455   */\n  dup3\n    /* \"#utility.yul\":1429:1462   */\n  tag_59\n  jump\t// in\ntag_58:\n    /* \"#utility.yul\":1339:1468   */\n  swap2\n  swap1\n  pop\n  jump\t// out\n    /* \"#utility.yul\":1474:1549   */\ntag_57:\n    /* \"#utility.yul\":1507:1513   */\n  0x00\n    /* \"#utility.yul\":1540:1542   */\n  0x40\n    /* \"#utility.yul\":1534:1543   */\n  mload\n    /* \"#utility.yul\":1524:1543   */\n  swap1\n  pop\n    /* \"#utility.yul\":1474:1549   */\n  swap1\n  jump\t// out\n    /* \"#utility.yul\":1555:1863   */\ntag_34:\n    /* \"#utility.yul\":1617:1621   */\n  0x00\n    /* \"#utility.yul\":1707:1725   */\n  0xffffffffffffffff\n    /* \"#utility.yul\":1699:1705   */\n  dup3\n    /* \"#utility.yul\":1696:1726   */\n  gt\n    /* \"#utility.yul\":1693:1749   */\n  iszero\n  tag_62\n  jumpi\n    /* \"#utility.yul\":1729:1747   */\n  tag_63\n  tag_64\n  jump\t// in\ntag_63:\n    /* \"#utility.yul\":1693:1749   */\ntag_62:\n    /* \"#utility.yul\":1767:1796   */\n  tag_65\n    /* \"#utility.yul\":1789:1795   */\n  dup3\n    /* \"#utility.yul\":1767:1796   */\n  tag_66\n  jump\t// in\ntag_65:\n    /* \"#utility.yul\":1759:1796   */\n  swap1\n  pop\n    /* \"#utility.yul\":1851:1855   */\n  0x20\n    /* \"#utility.yul\":1845:1849   */\n  dup2\n    /* \"#utility.yul\":1841:1856   */\n  add\n    /* \"#utility.yul\":1833:1856   */\n  swap1\n  pop\n    /* \"#utility.yul\":1555:1863   */\n  swap2\n  swap1\n  pop\n  jump\t// out\n    /* \"#utility.yul\":1869:2176   */\ntag_40:\n    /* \"#utility.yul\":1937:1938   */\n  0x00\n    /* \"#utility.yul\":1947:2060   */\ntag_68:\n    /* \"#utility.yul\":1961:1967   */\n  dup4\n    /* \"#utility.yul\":1958:1959   */\n  dup2\n    /* \"#utility.yul\":1955:1968   */\n  lt\n    /* \"#utility.yul\":1947:2060   */\n  iszero\n  tag_70\n  jumpi\n    /* \"#utility.yul\":2046:2047   */\n  dup1\n    /* \"#utility.yul\":2041:2044   */\n  dup3\n    /* \"#utility.yul\":2037:2048   */\n  add\n    /* \"#utility.yul\":2031:2049   */\n  mload\n    /* \"#utility.yul\":2027:2028   */\n  dup2\n    /* \"#utility.yul\":2022:2025   */\n  dup5\n    /* \"#utility.yul\":2018:2029   */\n  add\n    /* \"#utility.yul\":2011:2050   */\n  mstore\n    /* \"#utility.yul\":1983:1985   */\n  0x20\n    /* \"#utility.yul\":1980:1981   */\n  dup2\n    /* \"#utility.yul\":1976:1986   */\n  add\n    /* \"#utility.yul\":1971:1986   */\n  swap1\n  pop\n    /* \"#utility.yul\":1947:2060   */\n  jump(tag_68)\ntag_70:\n    /* \"#utility.yul\":2078:2084   */\n  dup4\n    /* \"#utility.yul\":2075:2076   */\n  dup2\n    /* \"#utility.yul\":2072:2085   */\n  gt\n    /* \"#utility.yul\":2069:2170   */\n  iszero\n  tag_71\n  jumpi\n    /* \"#utility.yul\":2158:2159   */\n  0x00\n    /* \"#utility.yul\":2149:2155   */\n  dup5\n    /* \"#utility.yul\":2144:2147   */\n  dup5\n    /* \"#utility.yul\":2140:2156   */\n  add\n    /* \"#utility.yul\":2133:2160   */\n  mstore\n    /* \"#utility.yul\":2069:2170   */\ntag_71:\n    /* \"#utility.yul\":1918:2176   */\n  pop\n    /* \"#utility.yul\":1869:2176   */\n  pop\n  pop\n  pop\n  jump\t// out\n    /* \"#utility.yul\":2182:2502   */\ntag_12:\n    /* \"#utility.yul\":2226:2232   */\n  0x00\n    /* \"#utility.yul\":2263:2264   */\n  0x02\n    /* \"#utility.yul\":2257:2261   */\n  dup3\n    /* \"#utility.yul\":2253:2265   */\n  div\n    /* \"#utility.yul\":2243:2265   */\n  swap1\n  pop\n    /* \"#utility.yul\":2310:2311   */\n  0x01\n    /* \"#utility.yul\":2304:2308   */\n  dup3\n    /* \"#utility.yul\":2300:2312   */\n  and\n    /* \"#utility.yul\":2331:2349   */\n  dup1\n    /* \"#utility.yul\":2321:2402   */\n  tag_73\n  jumpi\n    /* \"#utility.yul\":2387:2391   */\n  0x7f\n    /* \"#utility.yul\":2379:2385   */\n  dup3\n    /* \"#utility.yul\":2375:2392   */\n  and\n    /* \"#utility.yul\":2365:2392   */\n  swap2\n  pop\n    /* \"#utility.yul\":2321:2402   */\ntag_73:\n    /* \"#utility.yul\":2449:2451   */\n  0x20\n    /* \"#utility.yul\":2441:2447   */\n  dup3\n    /* \"#utility.yul\":2438:2452   */\n  lt\n    /* \"#utility.yul\":2418:2436   */\n  dup2\n    /* \"#utility.yul\":2415:2453   */\n  eq\n    /* \"#utility.yul\":2412:2496   */\n  iszero\n  tag_74\n  jumpi\n    /* \"#utility.yul\":2468:2486   */\n  tag_75\n  tag_76\n  jump\t// in\ntag_75:\n    /* \"#utility.yul\":2412:2496   */\ntag_74:\n    /* \"#utility.yul\":2233:2502   */\n  pop\n    /* \"#utility.yul\":2182:2502   */\n  swap2\n  swap1\n  pop\n  jump\t// out\n    /* \"#utility.yul\":2508:2789   */\ntag_59:\n    /* \"#utility.yul\":2591:2618   */\n  tag_78\n    /* \"#utility.yul\":2613:2617   */\n  dup3\n    /* \"#utility.yul\":2591:2618   */\n  tag_66\n  jump\t// in\ntag_78:\n    /* \"#utility.yul\":2583:2589   */\n  dup2\n    /* \"#utility.yul\":2579:2619   */\n  add\n    /* \"#utility.yul\":2721:2727   */\n  dup2\n    /* \"#utility.yul\":2709:2719   */\n  dup2\n    /* \"#utility.yul\":2706:2728   */\n  lt\n    /* \"#utility.yul\":2685:2703   */\n  0xffffffffffffffff\n    /* \"#utility.yul\":2673:2683   */\n  dup3\n    /* \"#utility.yul\":2670:2704   */\n  gt\n    /* \"#utility.yul\":2667:2729   */\n  or\n    /* \"#utility.yul\":2664:2752   */\n  iszero\n  tag_79\n  jumpi\n    /* \"#utility.yul\":2732:2750   */\n  tag_80\n  tag_64\n  jump\t// in\ntag_80:\n    /* \"#utility.yul\":2664:2752   */\ntag_79:\n    /* \"#utility.yul\":2772:2782   */\n  dup1\n    /* \"#utility.yul\":2768:2770   */\n  0x40\n    /* \"#utility.yul\":2761:2783   */\n  mstore\n    /* \"#utility.yul\":2551:2789   */\n  pop\n    /* \"#utility.yul\":2508:2789   */\n  pop\n  pop\n  jump\t// out\n    /* \"#utility.yul\":2795:2975   */\ntag_76:\n    /* \"#utility.yul\":2843:2920   */\n  0x4e487b7100000000000000000000000000000000000000000000000000000000\n    /* \"#utility.yul\":2840:2841   */\n  0x00\n    /* \"#utility.yul\":2833:2921   */\n  mstore\n    /* \"#utility.yul\":2940:2944   */\n  0x22\n    /* \"#utility.yul\":2937:2938   */\n  0x04\n    /* \"#utility.yul\":2930:2945   */\n  mstore\n    /* \"#utility.yul\":2964:2968   */\n  0x24\n    /* \"#utility.yul\":2961:2962   */\n  0x00\n    /* \"#utility.yul\":2954:2969   */\n  revert\n    /* \"#utility.yul\":2981:3161   */\ntag_64:\n    /* \"#utility.yul\":3029:3106   */\n  0x4e487b7100000000000000000000000000000000000000000000000000000000\n    /* \"#utility.yul\":3026:3027   */\n  0x00\n    /* \"#utility.yul\":3019:3107   */\n  mstore\n    /* \"#utility.yul\":3126:3130   */\n  0x41\n    /* \"#utility.yul\":3123:3124   */\n  0x04\n    /* \"#utility.yul\":3116:3131   */\n  mstore\n    /* \"#utility.yul\":3150:3154   */\n  0x24\n    /* \"#utility.yul\":3147:3148   */\n  0x00\n    /* \"#utility.yul\":3140:3155   */\n  revert\n    /* \"#utility.yul\":3167:3284   */\ntag_45:\n    /* \"#utility.yul\":3276:3277   */\n  0x00\n    /* \"#utility.yul\":3273:3274   */\n  dup1\n    /* \"#utility.yul\":3266:3278   */\n  revert\n    /* \"#utility.yul\":3290:3407   */\ntag_38:\n    /* \"#utility.yul\":3399:3400   */\n  0x00\n    /* \"#utility.yul\":3396:3397   */\n  dup1\n    /* \"#utility.yul\":3389:3401   */\n  revert\n    /* \"#utility.yul\":3413:3530   */\ntag_53:\n    /* \"#utility.yul\":3522:3523   */\n  0x00\n    /* \"#utility.yul\":3519:3520   */\n  dup1\n    /* \"#utility.yul\":3512:3524   */\n  revert\n    /* \"#utility.yul\":3536:3653   */\ntag_50:\n    /* \"#utility.yul\":3645:3646   */\n  0x00\n    /* \"#utility.yul\":3642:3643   */\n  dup1\n    /* \"#utility.yul\":3635:3647   */\n  revert\n    /* \"#utility.yul\":3659:3761   */\ntag_66:\n    /* \"#utility.yul\":3700:3706   */\n  0x00\n    /* \"#utility.yul\":3751:3753   */\n  0x1f\n    /* \"#utility.yul\":3747:3754   */\n  not\n    /* \"#utility.yul\":3742:3744   */\n  0x1f\n    /* \"#utility.yul\":3735:3740   */\n  dup4\n    /* \"#utility.yul\":3731:3745   */\n  add\n    /* \"#utility.yul\":3727:3755   */\n  and\n    /* \"#utility.yul\":3717:3755   */\n  swap1\n  pop\n    /* \"#utility.yul\":3659:3761   */\n  swap2\n  swap1\n  pop\n  jump\t// out\n    /* \"Dropsite.sol\":122:2509  contract Dropsite is ERC1155_Dropsite  { ... */\ntag_10:\n  dataSize(sub_0)\n  dup1\n  dataOffset(sub_0)\n  0x00\n  codecopy\n  0x00\n  return\nstop\n\nsub_0: assembly {\n        /* \"Dropsite.sol\":122:2509  contract Dropsite is ERC1155_Dropsite  { ... */\n      mstore(0x40, 0x80)\n      callvalue\n      dup1\n      iszero\n      tag_1\n      jumpi\n      0x00\n      dup1\n      revert\n    tag_1:\n      pop\n      jumpi(tag_2, lt(calldatasize, 0x04))\n      shr(0xe0, calldataload(0x00))\n      dup1\n      0x7e1eaabf\n      gt\n      tag_11\n      jumpi\n      dup1\n      0x7e1eaabf\n      eq\n      tag_7\n      jumpi\n      dup1\n      0xb4a99a4e\n      eq\n      tag_8\n      jumpi\n      dup1\n      0xc63bc456\n      eq\n      tag_9\n      jumpi\n      dup1\n      0xd4c892c4\n      eq\n      tag_10\n      jumpi\n      jump(tag_2)\n    tag_11:\n      dup1\n      0x1309a563\n      eq\n      tag_3\n      jumpi\n      dup1\n      0x322f0ece\n      eq\n      tag_4\n      jumpi\n      dup1\n      0x5a8bc1a9\n      eq\n      tag_5\n      jumpi\n      dup1\n      0x67818243\n      eq\n      tag_6\n      jumpi\n    tag_2:\n      0x00\n      dup1\n      revert\n        /* \"Dropsite.sol\":792:819  bool public IsPaused = true */\n    tag_3:\n      tag_12\n      tag_13\n      jump\t// in\n    tag_12:\n      mload(0x40)\n      tag_14\n      swap2\n      swap1\n      tag_15\n      jump\t// in\n    tag_14:\n      mload(0x40)\n      dup1\n      swap2\n      sub\n      swap1\n      return\n        /* \"Dropsite.sol\":212:239  uint public TotalNFTsMinted */\n    tag_4:\n      tag_16\n      tag_17\n      jump\t// in\n    tag_16:\n      mload(0x40)\n      tag_18\n      swap2\n      swap1\n      tag_19\n      jump\t// in\n    tag_18:\n      mload(0x40)\n      dup1\n      swap2\n      sub\n      swap1\n      return\n        /* \"Dropsite.sol\":2434:2506  function finishDropsite() public OnlyOwner{... */\n    tag_5:\n      tag_20\n      tag_21\n      jump\t// in\n    tag_20:\n      stop\n        /* \"Dropsite.sol\":1301:1477  function SwitchSaleState() public OnlyOwner {... */\n    tag_6:\n      tag_22\n      tag_23\n      jump\t// in\n    tag_22:\n      stop\n        /* \"Dropsite.sol\":1669:2429  function randomMint() contractIsNotPaused public returns (uint) {... */\n    tag_7:\n      tag_24\n      tag_25\n      jump\t// in\n    tag_24:\n      mload(0x40)\n      tag_26\n      swap2\n      swap1\n      tag_19\n      jump\t// in\n    tag_26:\n      mload(0x40)\n      dup1\n      swap2\n      sub\n      swap1\n      return\n        /* \"Dropsite.sol\":825:854  address payable public  Owner */\n    tag_8:\n      tag_27\n      tag_28\n      jump\t// in\n    tag_27:\n      mload(0x40)\n      tag_29\n      swap2\n      swap1\n      tag_30\n      jump\t// in\n    tag_29:\n      mload(0x40)\n      dup1\n      swap2\n      sub\n      swap1\n      return\n        /* \"Dropsite.sol\":1171:1295  function checkMintedCategory() public view OnlyOwner returns(uint,uint,uint){... */\n    tag_9:\n      tag_31\n      tag_32\n      jump\t// in\n    tag_31:\n      mload(0x40)\n      tag_33\n      swap4\n      swap3\n      swap2\n      swap1\n      tag_34\n      jump\t// in\n    tag_33:\n      mload(0x40)\n      dup1\n      swap2\n      sub\n      swap1\n      return\n        /* \"Dropsite.sol\":406:455  mapping (address=>uint) public dropsite_NFT_Owner */\n    tag_10:\n      tag_35\n      0x04\n      dup1\n      calldatasize\n      sub\n      dup2\n      add\n      swap1\n      tag_36\n      swap2\n      swap1\n      tag_37\n      jump\t// in\n    tag_36:\n      tag_38\n      jump\t// in\n    tag_35:\n      mload(0x40)\n      tag_39\n      swap2\n      swap1\n      tag_19\n      jump\t// in\n    tag_39:\n      mload(0x40)\n      dup1\n      swap2\n      sub\n      swap1\n      return\n        /* \"Dropsite.sol\":792:819  bool public IsPaused = true */\n    tag_13:\n      0x0b\n      0x00\n      swap1\n      sload\n      swap1\n      0x0100\n      exp\n      swap1\n      div\n      0xff\n      and\n      dup2\n      jump\t// out\n        /* \"Dropsite.sol\":212:239  uint public TotalNFTsMinted */\n    tag_17:\n      sload(0x03)\n      dup2\n      jump\t// out\n        /* \"Dropsite.sol\":2434:2506  function finishDropsite() public OnlyOwner{... */\n    tag_21:\n        /* \"Dropsite.sol\":578:583  Owner */\n      0x0b\n      0x01\n      swap1\n      sload\n      swap1\n      0x0100\n      exp\n      swap1\n      div\n      0xffffffffffffffffffffffffffffffffffffffff\n      and\n        /* \"Dropsite.sol\":562:583  _msgSender() == Owner */\n      0xffffffffffffffffffffffffffffffffffffffff\n      and\n        /* \"Dropsite.sol\":562:574  _msgSender() */\n      tag_41\n        /* \"Dropsite.sol\":562:572  _msgSender */\n      tag_42\n        /* \"Dropsite.sol\":562:574  _msgSender() */\n      jump\t// in\n    tag_41:\n        /* \"Dropsite.sol\":562:583  _msgSender() == Owner */\n      0xffffffffffffffffffffffffffffffffffffffff\n      and\n      eq\n        /* \"Dropsite.sol\":554:612  require(_msgSender() == Owner, \"OnyxNft Owner can Access\") */\n      tag_43\n      jumpi\n      mload(0x40)\n      0x08c379a000000000000000000000000000000000000000000000000000000000\n      dup2\n      mstore\n      0x04\n      add\n      tag_44\n      swap1\n      tag_45\n      jump\t// in\n    tag_44:\n      mload(0x40)\n      dup1\n      swap2\n      sub\n      swap1\n      revert\n    tag_43:\n        /* \"Dropsite.sol\":2495:2499  true */\n      0x01\n        /* \"Dropsite.sol\":2486:2494  IsPaused */\n      0x0b\n      0x00\n        /* \"Dropsite.sol\":2486:2499  IsPaused=true */\n      0x0100\n      exp\n      dup2\n      sload\n      dup2\n      0xff\n      mul\n      not\n      and\n      swap1\n      dup4\n      iszero\n      iszero\n      mul\n      or\n      swap1\n      sstore\n      pop\n        /* \"Dropsite.sol\":2434:2506  function finishDropsite() public OnlyOwner{... */\n      jump\t// out\n        /* \"Dropsite.sol\":1301:1477  function SwitchSaleState() public OnlyOwner {... */\n    tag_23:\n        /* \"Dropsite.sol\":578:583  Owner */\n      0x0b\n      0x01\n      swap1\n      sload\n      swap1\n      0x0100\n      exp\n      swap1\n      div\n      0xffffffffffffffffffffffffffffffffffffffff\n      and\n        /* \"Dropsite.sol\":562:583  _msgSender() == Owner */\n      0xffffffffffffffffffffffffffffffffffffffff\n      and\n        /* \"Dropsite.sol\":562:574  _msgSender() */\n      tag_48\n        /* \"Dropsite.sol\":562:572  _msgSender */\n      tag_42\n        /* \"Dropsite.sol\":562:574  _msgSender() */\n      jump\t// in\n    tag_48:\n        /* \"Dropsite.sol\":562:583  _msgSender() == Owner */\n      0xffffffffffffffffffffffffffffffffffffffff\n      and\n      eq\n        /* \"Dropsite.sol\":554:612  require(_msgSender() == Owner, \"OnyxNft Owner can Access\") */\n      tag_49\n      jumpi\n      mload(0x40)\n      0x08c379a000000000000000000000000000000000000000000000000000000000\n      dup2\n      mstore\n      0x04\n      add\n      tag_50\n      swap1\n      tag_45\n      jump\t// in\n    tag_50:\n      mload(0x40)\n      dup1\n      swap2\n      sub\n      swap1\n      revert\n    tag_49:\n        /* \"Dropsite.sol\":1371:1375  true */\n      0x01\n        /* \"Dropsite.sol\":1359:1375  IsPaused == true */\n      iszero\n      iszero\n        /* \"Dropsite.sol\":1359:1367  IsPaused */\n      0x0b\n      0x00\n      swap1\n      sload\n      swap1\n      0x0100\n      exp\n      swap1\n      div\n      0xff\n      and\n        /* \"Dropsite.sol\":1359:1375  IsPaused == true */\n      iszero\n      iszero\n      eq\n        /* \"Dropsite.sol\":1355:1471  if (IsPaused == true){... */\n      iszero\n      tag_52\n      jumpi\n        /* \"Dropsite.sol\":1401:1406  false */\n      0x00\n        /* \"Dropsite.sol\":1390:1398  IsPaused */\n      0x0b\n      0x00\n        /* \"Dropsite.sol\":1390:1406  IsPaused = false */\n      0x0100\n      exp\n      dup2\n      sload\n      dup2\n      0xff\n      mul\n      not\n      and\n      swap1\n      dup4\n      iszero\n      iszero\n      mul\n      or\n      swap1\n      sstore\n      pop\n        /* \"Dropsite.sol\":1355:1471  if (IsPaused == true){... */\n      jump(tag_53)\n    tag_52:\n        /* \"Dropsite.sol\":1456:1460  true */\n      0x01\n        /* \"Dropsite.sol\":1445:1453  IsPaused */\n      0x0b\n      0x00\n        /* \"Dropsite.sol\":1445:1460  IsPaused = true */\n      0x0100\n      exp\n      dup2\n      sload\n      dup2\n      0xff\n      mul\n      not\n      and\n      swap1\n      dup4\n      iszero\n      iszero\n      mul\n      or\n      swap1\n      sstore\n      pop\n        /* \"Dropsite.sol\":1355:1471  if (IsPaused == true){... */\n    tag_53:\n        /* \"Dropsite.sol\":1301:1477  function SwitchSaleState() public OnlyOwner {... */\n      jump\t// out\n        /* \"Dropsite.sol\":1669:2429  function randomMint() contractIsNotPaused public returns (uint) {... */\n    tag_25:\n        /* \"Dropsite.sol\":1727:1731  uint */\n      0x00\n        /* \"Dropsite.sol\":738:743  false */\n      dup1\n        /* \"Dropsite.sol\":726:743  IsPaused == false */\n      iszero\n      iszero\n        /* \"Dropsite.sol\":726:734  IsPaused */\n      0x0b\n      0x00\n      swap1\n      sload\n      swap1\n      0x0100\n      exp\n      swap1\n      div\n      0xff\n      and\n        /* \"Dropsite.sol\":726:743  IsPaused == false */\n      iszero\n      iszero\n      eq\n        /* \"Dropsite.sol\":717:767  require (IsPaused == false, \"Contract is Paused\" ) */\n      tag_55\n      jumpi\n      mload(0x40)\n      0x08c379a000000000000000000000000000000000000000000000000000000000\n      dup2\n      mstore\n      0x04\n      add\n      tag_56\n      swap1\n      tag_57\n      jump\t// in\n    tag_56:\n      mload(0x40)\n      dup1\n      swap2\n      sub\n      swap1\n      revert\n    tag_55:\n        /* \"Dropsite.sol\":1743:1753  uint nftId */\n      0x00\n        /* \"Dropsite.sol\":1756:1764  random() */\n      tag_59\n        /* \"Dropsite.sol\":1756:1762  random */\n      tag_60\n        /* \"Dropsite.sol\":1756:1764  random() */\n      jump\t// in\n    tag_59:\n        /* \"Dropsite.sol\":1743:1764  uint nftId = random() */\n      swap1\n      pop\n        /* \"Dropsite.sol\":1784:1787  150 */\n      0x96\n        /* \"Dropsite.sol\":1774:1782  Platinum */\n      sload(0x05)\n        /* \"Dropsite.sol\":1774:1787  Platinum<=150 */\n      gt\n      iszero\n        /* \"Dropsite.sol\":1774:1799  Platinum<=150 && nftId==0 */\n      dup1\n      iszero\n      tag_61\n      jumpi\n      pop\n        /* \"Dropsite.sol\":1798:1799  0 */\n      0x00\n        /* \"Dropsite.sol\":1791:1796  nftId */\n      dup2\n        /* \"Dropsite.sol\":1791:1799  nftId==0 */\n      eq\n        /* \"Dropsite.sol\":1774:1799  Platinum<=150 && nftId==0 */\n    tag_61:\n        /* \"Dropsite.sol\":1773:1827  (Platinum<=150 && nftId==0) || (Gold<=350 && nftId==1) */\n      dup1\n      tag_62\n      jumpi\n      pop\n        /* \"Dropsite.sol\":1811:1814  350 */\n      0x015e\n        /* \"Dropsite.sol\":1805:1809  Gold */\n      sload(0x06)\n        /* \"Dropsite.sol\":1805:1814  Gold<=350 */\n      gt\n      iszero\n        /* \"Dropsite.sol\":1805:1826  Gold<=350 && nftId==1 */\n      dup1\n      iszero\n      tag_63\n      jumpi\n      pop\n        /* \"Dropsite.sol\":1825:1826  1 */\n      0x01\n        /* \"Dropsite.sol\":1818:1823  nftId */\n      dup2\n        /* \"Dropsite.sol\":1818:1826  nftId==1 */\n      eq\n        /* \"Dropsite.sol\":1805:1826  Gold<=350 && nftId==1 */\n    tag_63:\n        /* \"Dropsite.sol\":1773:1827  (Platinum<=150 && nftId==0) || (Gold<=350 && nftId==1) */\n    tag_62:\n        /* \"Dropsite.sol\":1773:1856  (Platinum<=150 && nftId==0) || (Gold<=350 && nftId==1) || (Silver<=500 && nftId==2) */\n      dup1\n      tag_64\n      jumpi\n      pop\n        /* \"Dropsite.sol\":1840:1843  500 */\n      0x01f4\n        /* \"Dropsite.sol\":1832:1838  Silver */\n      sload(0x07)\n        /* \"Dropsite.sol\":1832:1843  Silver<=500 */\n      gt\n      iszero\n        /* \"Dropsite.sol\":1832:1855  Silver<=500 && nftId==2 */\n      dup1\n      iszero\n      tag_65\n      jumpi\n      pop\n        /* \"Dropsite.sol\":1854:1855  2 */\n      0x02\n        /* \"Dropsite.sol\":1847:1852  nftId */\n      dup2\n        /* \"Dropsite.sol\":1847:1855  nftId==2 */\n      eq\n        /* \"Dropsite.sol\":1832:1855  Silver<=500 && nftId==2 */\n    tag_65:\n        /* \"Dropsite.sol\":1773:1856  (Platinum<=150 && nftId==0) || (Gold<=350 && nftId==1) || (Silver<=500 && nftId==2) */\n    tag_64:\n        /* \"Dropsite.sol\":1770:2247  if((Platinum<=150 && nftId==0) || (Gold<=350 && nftId==1) || (Silver<=500 && nftId==2))... */\n      iszero\n      tag_66\n      jumpi\n        /* \"Dropsite.sol\":1888:1896  random() */\n      tag_67\n        /* \"Dropsite.sol\":1888:1894  random */\n      tag_60\n        /* \"Dropsite.sol\":1888:1896  random() */\n      jump\t// in\n    tag_67:\n        /* \"Dropsite.sol\":1880:1896  nftId = random() */\n      swap1\n      pop\n        /* \"Dropsite.sol\":1920:1921  0 */\n      0x00\n        /* \"Dropsite.sol\":1913:1918  nftId */\n      dup2\n        /* \"Dropsite.sol\":1913:1921  nftId==0 */\n      eq\n        /* \"Dropsite.sol\":1910:2237  if(nftId==0)... */\n      iszero\n      tag_68\n      jumpi\n        /* \"Dropsite.sol\":1953:1968  data=\"Platinum\" */\n      mload(0x40)\n      dup1\n      0x40\n      add\n      0x40\n      mstore\n      dup1\n      0x08\n      dup2\n      mstore\n      0x20\n      add\n      0x506c6174696e756d000000000000000000000000000000000000000000000000\n      dup2\n      mstore\n      pop\n        /* \"Dropsite.sol\":1953:1957  data */\n      0x02\n        /* \"Dropsite.sol\":1953:1968  data=\"Platinum\" */\n      swap1\n      dup1\n      mload\n      swap1\n      0x20\n      add\n      swap1\n      tag_69\n      swap3\n      swap2\n      swap1\n      tag_70\n      jump\t// in\n    tag_69:\n      pop\n        /* \"Dropsite.sol\":1986:1994  Platinum */\n      0x05\n      0x00\n        /* \"Dropsite.sol\":1986:1996  Platinum++ */\n      dup2\n      sload\n      dup1\n      swap3\n      swap2\n      swap1\n      tag_71\n      swap1\n      tag_72\n      jump\t// in\n    tag_71:\n      swap2\n      swap1\n      pop\n      sstore\n      pop\n        /* \"Dropsite.sol\":1910:2237  if(nftId==0)... */\n      jump(tag_73)\n    tag_68:\n        /* \"Dropsite.sol\":2039:2040  1 */\n      0x01\n        /* \"Dropsite.sol\":2032:2037  nftId */\n      dup2\n        /* \"Dropsite.sol\":2032:2040  nftId==1 */\n      eq\n        /* \"Dropsite.sol\":2029:2237  if(nftId==1)... */\n      iszero\n      tag_74\n      jumpi\n        /* \"Dropsite.sol\":2072:2083  data=\"Gold\" */\n      mload(0x40)\n      dup1\n      0x40\n      add\n      0x40\n      mstore\n      dup1\n      0x04\n      dup2\n      mstore\n      0x20\n      add\n      0x476f6c6400000000000000000000000000000000000000000000000000000000\n      dup2\n      mstore\n      pop\n        /* \"Dropsite.sol\":2072:2076  data */\n      0x02\n        /* \"Dropsite.sol\":2072:2083  data=\"Gold\" */\n      swap1\n      dup1\n      mload\n      swap1\n      0x20\n      add\n      swap1\n      tag_75\n      swap3\n      swap2\n      swap1\n      tag_70\n      jump\t// in\n    tag_75:\n      pop\n        /* \"Dropsite.sol\":2101:2105  Gold */\n      0x06\n      0x00\n        /* \"Dropsite.sol\":2101:2107  Gold++ */\n      dup2\n      sload\n      dup1\n      swap3\n      swap2\n      swap1\n      tag_76\n      swap1\n      tag_72\n      jump\t// in\n    tag_76:\n      swap2\n      swap1\n      pop\n      sstore\n      pop\n        /* \"Dropsite.sol\":2029:2237  if(nftId==1)... */\n      jump(tag_77)\n    tag_74:\n        /* \"Dropsite.sol\":2150:2151  2 */\n      0x02\n        /* \"Dropsite.sol\":2143:2148  nftId */\n      dup2\n        /* \"Dropsite.sol\":2143:2151  nftId==2 */\n      eq\n        /* \"Dropsite.sol\":2140:2237  if(nftId==2)... */\n      iszero\n      tag_78\n      jumpi\n        /* \"Dropsite.sol\":2183:2196  data=\"Silver\" */\n      mload(0x40)\n      dup1\n      0x40\n      add\n      0x40\n      mstore\n      dup1\n      0x06\n      dup2\n      mstore\n      0x20\n      add\n      0x53696c7665720000000000000000000000000000000000000000000000000000\n      dup2\n      mstore\n      pop\n        /* \"Dropsite.sol\":2183:2187  data */\n      0x02\n        /* \"Dropsite.sol\":2183:2196  data=\"Silver\" */\n      swap1\n      dup1\n      mload\n      swap1\n      0x20\n      add\n      swap1\n      tag_79\n      swap3\n      swap2\n      swap1\n      tag_70\n      jump\t// in\n    tag_79:\n      pop\n        /* \"Dropsite.sol\":2214:2220  Silver */\n      0x07\n      0x00\n        /* \"Dropsite.sol\":2214:2222  Silver++ */\n      dup2\n      sload\n      dup1\n      swap3\n      swap2\n      swap1\n      tag_80\n      swap1\n      tag_72\n      jump\t// in\n    tag_80:\n      swap2\n      swap1\n      pop\n      sstore\n      pop\n        /* \"Dropsite.sol\":2140:2237  if(nftId==2)... */\n    tag_78:\n        /* \"Dropsite.sol\":2029:2237  if(nftId==1)... */\n    tag_77:\n        /* \"Dropsite.sol\":1910:2237  if(nftId==0)... */\n    tag_73:\n        /* \"Dropsite.sol\":1770:2247  if((Platinum<=150 && nftId==0) || (Gold<=350 && nftId==1) || (Silver<=500 && nftId==2))... */\n    tag_66:\n        /* \"Dropsite.sol\":2258:2303  _mint(_msgSender(), nftId, numOfCopies, data) */\n      tag_81\n        /* \"Dropsite.sol\":2264:2276  _msgSender() */\n      tag_82\n        /* \"Dropsite.sol\":2264:2274  _msgSender */\n      tag_42\n        /* \"Dropsite.sol\":2264:2276  _msgSender() */\n      jump\t// in\n    tag_82:\n        /* \"Dropsite.sol\":2278:2283  nftId */\n      dup3\n        /* \"Dropsite.sol\":2285:2296  numOfCopies */\n      sload(0x04)\n        /* \"Dropsite.sol\":2298:2302  data */\n      0x02\n        /* \"Dropsite.sol\":2258:2303  _mint(_msgSender(), nftId, numOfCopies, data) */\n      dup1\n      sload\n      tag_83\n      swap1\n      tag_84\n      jump\t// in\n    tag_83:\n      dup1\n      0x1f\n      add\n      0x20\n      dup1\n      swap2\n      div\n      mul\n      0x20\n      add\n      mload(0x40)\n      swap1\n      dup2\n      add\n      0x40\n      mstore\n      dup1\n      swap3\n      swap2\n      swap1\n      dup2\n      dup2\n      mstore\n      0x20\n      add\n      dup3\n      dup1\n      sload\n      tag_85\n      swap1\n      tag_84\n      jump\t// in\n    tag_85:\n      dup1\n      iszero\n      tag_86\n      jumpi\n      dup1\n      0x1f\n      lt\n      tag_87\n      jumpi\n      0x0100\n      dup1\n      dup4\n      sload\n      div\n      mul\n      dup4\n      mstore\n      swap2\n      0x20\n      add\n      swap2\n      jump(tag_86)\n    tag_87:\n      dup3\n      add\n      swap2\n      swap1\n      0x00\n      mstore\n      keccak256(0x00, 0x20)\n      swap1\n    tag_88:\n      dup2\n      sload\n      dup2\n      mstore\n      swap1\n      0x01\n      add\n      swap1\n      0x20\n      add\n      dup1\n      dup4\n      gt\n      tag_88\n      jumpi\n      dup3\n      swap1\n      sub\n      0x1f\n      and\n      dup3\n      add\n      swap2\n    tag_86:\n      pop\n      pop\n      pop\n      pop\n      pop\n        /* \"Dropsite.sol\":2258:2263  _mint */\n      tag_89\n        /* \"Dropsite.sol\":2258:2303  _mint(_msgSender(), nftId, numOfCopies, data) */\n      jump\t// in\n    tag_81:\n        /* \"Dropsite.sol\":2333:2337  true */\n      0x01\n        /* \"Dropsite.sol\":2309:2318  nftExists */\n      0x09\n        /* \"Dropsite.sol\":2309:2332  nftExists[_msgSender()] */\n      0x00\n        /* \"Dropsite.sol\":2319:2331  _msgSender() */\n      tag_90\n        /* \"Dropsite.sol\":2319:2329  _msgSender */\n      tag_42\n        /* \"Dropsite.sol\":2319:2331  _msgSender() */\n      jump\t// in\n    tag_90:\n        /* \"Dropsite.sol\":2309:2332  nftExists[_msgSender()] */\n      0xffffffffffffffffffffffffffffffffffffffff\n      and\n      0xffffffffffffffffffffffffffffffffffffffff\n      and\n      dup2\n      mstore\n      0x20\n      add\n      swap1\n      dup2\n      mstore\n      0x20\n      add\n      0x00\n      keccak256\n      0x00\n        /* \"Dropsite.sol\":2309:2337  nftExists[_msgSender()]=true */\n      0x0100\n      exp\n      dup2\n      sload\n      dup2\n      0xff\n      mul\n      not\n      and\n      swap1\n      dup4\n      iszero\n      iszero\n      mul\n      or\n      swap1\n      sstore\n      pop\n        /* \"Dropsite.sol\":2343:2358  TotalNFTsMinted */\n      0x03\n      0x00\n        /* \"Dropsite.sol\":2343:2360  TotalNFTsMinted++ */\n      dup2\n      sload\n      dup1\n      swap3\n      swap2\n      swap1\n      tag_91\n      swap1\n      tag_72\n      jump\t// in\n    tag_91:\n      swap2\n      swap1\n      pop\n      sstore\n      pop\n        /* \"Dropsite.sol\":2399:2404  nftId */\n      dup1\n        /* \"Dropsite.sol\":2366:2384  dropsite_NFT_Owner */\n      0x08\n        /* \"Dropsite.sol\":2366:2398  dropsite_NFT_Owner[_msgSender()] */\n      0x00\n        /* \"Dropsite.sol\":2385:2397  _msgSender() */\n      tag_92\n        /* \"Dropsite.sol\":2385:2395  _msgSender */\n      tag_42\n        /* \"Dropsite.sol\":2385:2397  _msgSender() */\n      jump\t// in\n    tag_92:\n        /* \"Dropsite.sol\":2366:2398  dropsite_NFT_Owner[_msgSender()] */\n      0xffffffffffffffffffffffffffffffffffffffff\n      and\n      0xffffffffffffffffffffffffffffffffffffffff\n      and\n      dup2\n      mstore\n      0x20\n      add\n      swap1\n      dup2\n      mstore\n      0x20\n      add\n      0x00\n      keccak256\n        /* \"Dropsite.sol\":2366:2404  dropsite_NFT_Owner[_msgSender()]=nftId */\n      dup2\n      swap1\n      sstore\n      pop\n        /* \"Dropsite.sol\":2417:2422  nftId */\n      dup1\n        /* \"Dropsite.sol\":2410:2422  return nftId */\n      swap2\n      pop\n      pop\n        /* \"Dropsite.sol\":1669:2429  function randomMint() contractIsNotPaused public returns (uint) {... */\n      swap1\n      jump\t// out\n        /* \"Dropsite.sol\":825:854  address payable public  Owner */\n    tag_28:\n      0x0b\n      0x01\n      swap1\n      sload\n      swap1\n      0x0100\n      exp\n      swap1\n      div\n      0xffffffffffffffffffffffffffffffffffffffff\n      and\n      dup2\n      jump\t// out\n        /* \"Dropsite.sol\":1171:1295  function checkMintedCategory() public view OnlyOwner returns(uint,uint,uint){... */\n    tag_32:\n        /* \"Dropsite.sol\":1232:1236  uint */\n      0x00\n        /* \"Dropsite.sol\":1237:1241  uint */\n      dup1\n        /* \"Dropsite.sol\":1242:1246  uint */\n      0x00\n        /* \"Dropsite.sol\":578:583  Owner */\n      0x0b\n      0x01\n      swap1\n      sload\n      swap1\n      0x0100\n      exp\n      swap1\n      div\n      0xffffffffffffffffffffffffffffffffffffffff\n      and\n        /* \"Dropsite.sol\":562:583  _msgSender() == Owner */\n      0xffffffffffffffffffffffffffffffffffffffff\n      and\n        /* \"Dropsite.sol\":562:574  _msgSender() */\n      tag_94\n        /* \"Dropsite.sol\":562:572  _msgSender */\n      tag_42\n        /* \"Dropsite.sol\":562:574  _msgSender() */\n      jump\t// in\n    tag_94:\n        /* \"Dropsite.sol\":562:583  _msgSender() == Owner */\n      0xffffffffffffffffffffffffffffffffffffffff\n      and\n      eq\n        /* \"Dropsite.sol\":554:612  require(_msgSender() == Owner, \"OnyxNft Owner can Access\") */\n      tag_95\n      jumpi\n      mload(0x40)\n      0x08c379a000000000000000000000000000000000000000000000000000000000\n      dup2\n      mstore\n      0x04\n      add\n      tag_96\n      swap1\n      tag_45\n      jump\t// in\n    tag_96:\n      mload(0x40)\n      dup1\n      swap2\n      sub\n      swap1\n      revert\n    tag_95:\n        /* \"Dropsite.sol\":1266:1274  Platinum */\n      sload(0x05)\n        /* \"Dropsite.sol\":1275:1279  Gold */\n      sload(0x06)\n        /* \"Dropsite.sol\":1280:1286  Silver */\n      sload(0x07)\n        /* \"Dropsite.sol\":1258:1287  return (Platinum,Gold,Silver) */\n      swap3\n      pop\n      swap3\n      pop\n      swap3\n      pop\n        /* \"Dropsite.sol\":1171:1295  function checkMintedCategory() public view OnlyOwner returns(uint,uint,uint){... */\n      swap1\n      swap2\n      swap3\n      jump\t// out\n        /* \"Dropsite.sol\":406:455  mapping (address=>uint) public dropsite_NFT_Owner */\n    tag_38:\n      mstore(0x20, 0x08)\n      dup1\n      0x00\n      mstore\n      keccak256(0x00, 0x40)\n      0x00\n      swap2\n      pop\n      swap1\n      pop\n      sload\n      dup2\n      jump\t// out\n        /* \"Context.sol\":640:736  function _msgSender() internal view virtual returns (address) {... */\n    tag_42:\n        /* \"Context.sol\":693:700  address */\n      0x00\n        /* \"Context.sol\":719:729  msg.sender */\n      caller\n        /* \"Context.sol\":712:729  return msg.sender */\n      swap1\n      pop\n        /* \"Context.sol\":640:736  function _msgSender() internal view virtual returns (address) {... */\n      swap1\n      jump\t// out\n        /* \"Dropsite.sol\":1487:1658  function random() internal view returns (uint) {... */\n    tag_60:\n        /* \"Dropsite.sol\":1528:1532  uint */\n      0x00\n        /* \"Dropsite.sol\":1540:1557  uint randomnumber */\n      dup1\n        /* \"Dropsite.sol\":1625:1626  3 */\n      0x03\n        /* \"Dropsite.sol\":1592:1607  block.timestamp */\n      timestamp\n        /* \"Dropsite.sol\":1609:1619  msg.sender */\n      caller\n        /* \"Dropsite.sol\":1575:1620  abi.encodePacked(block.timestamp, msg.sender) */\n      add(0x20, mload(0x40))\n      tag_100\n      swap3\n      swap2\n      swap1\n      tag_101\n      jump\t// in\n    tag_100:\n      mload(0x40)\n      0x20\n      dup2\n      dup4\n      sub\n      sub\n      dup2\n      mstore\n      swap1\n      0x40\n      mstore\n        /* \"Dropsite.sol\":1565:1621  keccak256(abi.encodePacked(block.timestamp, msg.sender)) */\n      dup1\n      mload\n      swap1\n      0x20\n      add\n      keccak256\n        /* \"Dropsite.sol\":1560:1622  uint(keccak256(abi.encodePacked(block.timestamp, msg.sender))) */\n      0x00\n      shr\n        /* \"Dropsite.sol\":1560:1626  uint(keccak256(abi.encodePacked(block.timestamp, msg.sender))) % 3 */\n      tag_102\n      swap2\n      swap1\n      tag_103\n      jump\t// in\n    tag_102:\n        /* \"Dropsite.sol\":1540:1626  uint randomnumber = uint(keccak256(abi.encodePacked(block.timestamp, msg.sender))) % 3 */\n      swap1\n      pop\n        /* \"Dropsite.sol\":1639:1651  randomnumber */\n      dup1\n        /* \"Dropsite.sol\":1632:1651  return randomnumber */\n      swap2\n      pop\n      pop\n        /* \"Dropsite.sol\":1487:1658  function random() internal view returns (uint) {... */\n      swap1\n      jump\t// out\n        /* \"ERC1155_Dropsite.sol\":835:1386  function _mint(... */\n    tag_89:\n        /* \"ERC1155_Dropsite.sol\":996:997  0 */\n      0x00\n        /* \"ERC1155_Dropsite.sol\":982:998  to != address(0) */\n      0xffffffffffffffffffffffffffffffffffffffff\n      and\n        /* \"ERC1155_Dropsite.sol\":982:984  to */\n      dup5\n        /* \"ERC1155_Dropsite.sol\":982:998  to != address(0) */\n      0xffffffffffffffffffffffffffffffffffffffff\n      and\n      eq\n      iszero\n        /* \"ERC1155_Dropsite.sol\":974:1036  require(to != address(0), \"ERC1155: mint to the zero address\") */\n      tag_105\n      jumpi\n      mload(0x40)\n      0x08c379a000000000000000000000000000000000000000000000000000000000\n      dup2\n      mstore\n      0x04\n      add\n      tag_106\n      swap1\n      tag_107\n      jump\t// in\n    tag_106:\n      mload(0x40)\n      dup1\n      swap2\n      sub\n      swap1\n      revert\n    tag_105:\n        /* \"ERC1155_Dropsite.sol\":1047:1063  address operator */\n      0x00\n        /* \"ERC1155_Dropsite.sol\":1066:1078  _msgSender() */\n      tag_108\n        /* \"ERC1155_Dropsite.sol\":1066:1076  _msgSender */\n      tag_42\n        /* \"ERC1155_Dropsite.sol\":1066:1078  _msgSender() */\n      jump\t// in\n    tag_108:\n        /* \"ERC1155_Dropsite.sol\":1047:1078  address operator = _msgSender() */\n      swap1\n      pop\n        /* \"ERC1155_Dropsite.sol\":1089:1191  _beforeTokenTransfer(operator, address(0), to, _asSingletonArray(id), _asSingletonArray(amount), data) */\n      tag_109\n        /* \"ERC1155_Dropsite.sol\":1110:1118  operator */\n      dup2\n        /* \"ERC1155_Dropsite.sol\":1128:1129  0 */\n      0x00\n        /* \"ERC1155_Dropsite.sol\":1132:1134  to */\n      dup8\n        /* \"ERC1155_Dropsite.sol\":1136:1157  _asSingletonArray(id) */\n      tag_110\n        /* \"ERC1155_Dropsite.sol\":1154:1156  id */\n      dup9\n        /* \"ERC1155_Dropsite.sol\":1136:1153  _asSingletonArray */\n      tag_111\n        /* \"ERC1155_Dropsite.sol\":1136:1157  _asSingletonArray(id) */\n      jump\t// in\n    tag_110:\n        /* \"ERC1155_Dropsite.sol\":1159:1184  _asSingletonArray(amount) */\n      tag_112\n        /* \"ERC1155_Dropsite.sol\":1177:1183  amount */\n      dup9\n        /* \"ERC1155_Dropsite.sol\":1159:1176  _asSingletonArray */\n      tag_111\n        /* \"ERC1155_Dropsite.sol\":1159:1184  _asSingletonArray(amount) */\n      jump\t// in\n    tag_112:\n        /* \"ERC1155_Dropsite.sol\":1186:1190  data */\n      dup8\n        /* \"ERC1155_Dropsite.sol\":1089:1109  _beforeTokenTransfer */\n      tag_113\n        /* \"ERC1155_Dropsite.sol\":1089:1191  _beforeTokenTransfer(operator, address(0), to, _asSingletonArray(id), _asSingletonArray(amount), data) */\n      jump\t// in\n    tag_109:\n        /* \"ERC1155_Dropsite.sol\":1222:1228  amount */\n      dup3\n        /* \"ERC1155_Dropsite.sol\":1201:1210  _balances */\n      0x00\n        /* \"ERC1155_Dropsite.sol\":1201:1214  _balances[id] */\n      dup1\n        /* \"ERC1155_Dropsite.sol\":1211:1213  id */\n      dup7\n        /* \"ERC1155_Dropsite.sol\":1201:1214  _balances[id] */\n      dup2\n      mstore\n      0x20\n      add\n      swap1\n      dup2\n      mstore\n      0x20\n      add\n      0x00\n      keccak256\n        /* \"ERC1155_Dropsite.sol\":1201:1218  _balances[id][to] */\n      0x00\n        /* \"ERC1155_Dropsite.sol\":1215:1217  to */\n      dup8\n        /* \"ERC1155_Dropsite.sol\":1201:1218  _balances[id][to] */\n      0xffffffffffffffffffffffffffffffffffffffff\n      and\n      0xffffffffffffffffffffffffffffffffffffffff\n      and\n      dup2\n      mstore\n      0x20\n      add\n      swap1\n      dup2\n      mstore\n      0x20\n      add\n      0x00\n      keccak256\n      0x00\n        /* \"ERC1155_Dropsite.sol\":1201:1228  _balances[id][to] += amount */\n      dup3\n      dup3\n      sload\n      tag_114\n      swap2\n      swap1\n      tag_115\n      jump\t// in\n    tag_114:\n      swap3\n      pop\n      pop\n      dup2\n      swap1\n      sstore\n      pop\n        /* \"ERC1155_Dropsite.sol\":1280:1282  to */\n      dup5\n        /* \"ERC1155_Dropsite.sol\":1243:1295  TransferSingle(operator, address(0), to, id, amount) */\n      0xffffffffffffffffffffffffffffffffffffffff\n      and\n        /* \"ERC1155_Dropsite.sol\":1276:1277  0 */\n      0x00\n        /* \"ERC1155_Dropsite.sol\":1243:1295  TransferSingle(operator, address(0), to, id, amount) */\n      0xffffffffffffffffffffffffffffffffffffffff\n      and\n        /* \"ERC1155_Dropsite.sol\":1258:1266  operator */\n      dup3\n        /* \"ERC1155_Dropsite.sol\":1243:1295  TransferSingle(operator, address(0), to, id, amount) */\n      0xffffffffffffffffffffffffffffffffffffffff\n      and\n      0xc3d58168c5ae7397731d063d5bbf3d657854427343f4c083240f7aacaa2d0f62\n        /* \"ERC1155_Dropsite.sol\":1284:1286  id */\n      dup8\n        /* \"ERC1155_Dropsite.sol\":1288:1294  amount */\n      dup8\n        /* \"ERC1155_Dropsite.sol\":1243:1295  TransferSingle(operator, address(0), to, id, amount) */\n      mload(0x40)\n      tag_116\n      swap3\n      swap2\n      swap1\n      tag_117\n      jump\t// in\n    tag_116:\n      mload(0x40)\n      dup1\n      swap2\n      sub\n      swap1\n      log4\n        /* \"ERC1155_Dropsite.sol\":1305:1379  _doSafeTransferAcceptanceCheck(operator, address(0), to, id, amount, data) */\n      tag_118\n        /* \"ERC1155_Dropsite.sol\":1336:1344  operator */\n      dup2\n        /* \"ERC1155_Dropsite.sol\":1354:1355  0 */\n      0x00\n        /* \"ERC1155_Dropsite.sol\":1358:1360  to */\n      dup8\n        /* \"ERC1155_Dropsite.sol\":1362:1364  id */\n      dup8\n        /* \"ERC1155_Dropsite.sol\":1366:1372  amount */\n      dup8\n        /* \"ERC1155_Dropsite.sol\":1374:1378  data */\n      dup8\n        /* \"ERC1155_Dropsite.sol\":1305:1335  _doSafeTransferAcceptanceCheck */\n      tag_119\n        /* \"ERC1155_Dropsite.sol\":1305:1379  _doSafeTransferAcceptanceCheck(operator, address(0), to, id, amount, data) */\n      jump\t// in\n    tag_118:\n        /* \"ERC1155_Dropsite.sol\":964:1386  {... */\n      pop\n        /* \"ERC1155_Dropsite.sol\":835:1386  function _mint(... */\n      pop\n      pop\n      pop\n      pop\n      jump\t// out\n        /* \"ERC1155_Dropsite.sol\":2344:2537  function _asSingletonArray(uint256 element) private pure returns (uint256[] memory) {... */\n    tag_111:\n        /* \"ERC1155_Dropsite.sol\":2410:2426  uint256[] memory */\n      0x60\n        /* \"ERC1155_Dropsite.sol\":2438:2460  uint256[] memory array */\n      0x00\n        /* \"ERC1155_Dropsite.sol\":2477:2478  1 */\n      0x01\n        /* \"ERC1155_Dropsite.sol\":2463:2479  new uint256[](1) */\n      0xffffffffffffffff\n      dup2\n      gt\n      iszero\n      tag_121\n      jumpi\n      tag_122\n      tag_123\n      jump\t// in\n    tag_122:\n    tag_121:\n      mload(0x40)\n      swap1\n      dup1\n      dup3\n      mstore\n      dup1\n      0x20\n      mul\n      0x20\n      add\n      dup3\n      add\n      0x40\n      mstore\n      dup1\n      iszero\n      tag_124\n      jumpi\n      dup2\n      0x20\n      add\n      0x20\n      dup3\n      mul\n      dup1\n      calldatasize\n      dup4\n      calldatacopy\n      dup1\n      dup3\n      add\n      swap2\n      pop\n      pop\n      swap1\n      pop\n    tag_124:\n      pop\n        /* \"ERC1155_Dropsite.sol\":2438:2479  uint256[] memory array = new uint256[](1) */\n      swap1\n      pop\n        /* \"ERC1155_Dropsite.sol\":2500:2507  element */\n      dup3\n        /* \"ERC1155_Dropsite.sol\":2489:2494  array */\n      dup2\n        /* \"ERC1155_Dropsite.sol\":2495:2496  0 */\n      0x00\n        /* \"ERC1155_Dropsite.sol\":2489:2497  array[0] */\n      dup2\n      mload\n      dup2\n      lt\n      tag_125\n      jumpi\n      tag_126\n      tag_127\n      jump\t// in\n    tag_126:\n    tag_125:\n      0x20\n      mul\n      0x20\n      add\n      add\n        /* \"ERC1155_Dropsite.sol\":2489:2507  array[0] = element */\n      dup2\n      dup2\n      mstore\n      pop\n      pop\n        /* \"ERC1155_Dropsite.sol\":2525:2530  array */\n      dup1\n        /* \"ERC1155_Dropsite.sol\":2518:2530  return array */\n      swap2\n      pop\n      pop\n        /* \"ERC1155_Dropsite.sol\":2344:2537  function _asSingletonArray(uint256 element) private pure returns (uint256[] memory) {... */\n      swap2\n      swap1\n      pop\n      jump\t// out\n        /* \"ERC1155_Dropsite.sol\":1393:1607  function _beforeTokenTransfer(... */\n    tag_113:\n      pop\n      pop\n      pop\n      pop\n      pop\n      pop\n      jump\t// out\n        /* \"ERC1155_Dropsite.sol\":1613:2338  function _doSafeTransferAcceptanceCheck(... */\n    tag_119:\n        /* \"ERC1155_Dropsite.sol\":1820:1835  to.isContract() */\n      tag_130\n        /* \"ERC1155_Dropsite.sol\":1820:1822  to */\n      dup5\n        /* \"ERC1155_Dropsite.sol\":1820:1833  to.isContract */\n      0xffffffffffffffffffffffffffffffffffffffff\n      and\n      tag_131\n        /* \"ERC1155_Dropsite.sol\":1820:1835  to.isContract() */\n      jump\t// in\n    tag_130:\n        /* \"ERC1155_Dropsite.sol\":1816:2332  if (to.isContract()) {... */\n      iszero\n      tag_132\n      jumpi\n        /* \"ERC1155_Dropsite.sol\":1872:1874  to */\n      dup4\n        /* \"ERC1155_Dropsite.sol\":1855:1893  IERC1155Receiver(to).onERC1155Received */\n      0xffffffffffffffffffffffffffffffffffffffff\n      and\n      0xf23a6e61\n        /* \"ERC1155_Dropsite.sol\":1894:1902  operator */\n      dup8\n        /* \"ERC1155_Dropsite.sol\":1904:1908  from */\n      dup8\n        /* \"ERC1155_Dropsite.sol\":1910:1912  id */\n      dup7\n        /* \"ERC1155_Dropsite.sol\":1914:1920  amount */\n      dup7\n        /* \"ERC1155_Dropsite.sol\":1922:1926  data */\n      dup7\n        /* \"ERC1155_Dropsite.sol\":1855:1927  IERC1155Receiver(to).onERC1155Received(operator, from, id, amount, data) */\n      mload(0x40)\n      dup7\n      0xffffffff\n      and\n      0xe0\n      shl\n      dup2\n      mstore\n      0x04\n      add\n      tag_133\n      swap6\n      swap5\n      swap4\n      swap3\n      swap2\n      swap1\n      tag_134\n      jump\t// in\n    tag_133:\n      0x20\n      mload(0x40)\n      dup1\n      dup4\n      sub\n      dup2\n      0x00\n      dup8\n      dup1\n      extcodesize\n      iszero\n      dup1\n      iszero\n      tag_135\n      jumpi\n      0x00\n      dup1\n      revert\n    tag_135:\n      pop\n      gas\n      call\n      swap3\n      pop\n      pop\n      pop\n      dup1\n      iszero\n      tag_136\n      jumpi\n      pop\n      mload(0x40)\n      returndatasize\n      not(0x1f)\n      0x1f\n      dup3\n      add\n      and\n      dup3\n      add\n      dup1\n      0x40\n      mstore\n      pop\n      dup2\n      add\n      swap1\n      tag_137\n      swap2\n      swap1\n      tag_138\n      jump\t// in\n    tag_137:\n      0x01\n    tag_136:\n        /* \"ERC1155_Dropsite.sol\":1851:2322  try IERC1155Receiver(to).onERC1155Received(operator, from, id, amount, data) returns (bytes4 response) {... */\n      tag_139\n      jumpi\n      tag_143\n      tag_144\n      jump\t// in\n    tag_143:\n      dup1\n      0x08c379a0\n      eq\n      iszero\n      tag_142\n      jumpi\n      pop\n      tag_145\n      tag_146\n      jump\t// in\n    tag_145:\n      dup1\n      tag_147\n      jumpi\n      pop\n      jump(tag_141)\n    tag_147:\n        /* \"ERC1155_Dropsite.sol\":2198:2204  reason */\n      dup1\n        /* \"ERC1155_Dropsite.sol\":2191:2205  revert(reason) */\n      mload(0x40)\n      0x08c379a000000000000000000000000000000000000000000000000000000000\n      dup2\n      mstore\n      0x04\n      add\n      tag_148\n      swap2\n      swap1\n      tag_149\n      jump\t// in\n    tag_148:\n      mload(0x40)\n      dup1\n      swap2\n      sub\n      swap1\n      revert\n        /* \"ERC1155_Dropsite.sol\":1851:2322  try IERC1155Receiver(to).onERC1155Received(operator, from, id, amount, data) returns (bytes4 response) {... */\n    tag_142:\n      pop\n    tag_141:\n        /* \"ERC1155_Dropsite.sol\":2245:2307  revert(\"ERC1155: transfer to non ERC1155Receiver implementer\") */\n      mload(0x40)\n      0x08c379a000000000000000000000000000000000000000000000000000000000\n      dup2\n      mstore\n      0x04\n      add\n      tag_150\n      swap1\n      tag_151\n      jump\t// in\n    tag_150:\n      mload(0x40)\n      dup1\n      swap2\n      sub\n      swap1\n      revert\n        /* \"ERC1155_Dropsite.sol\":1851:2322  try IERC1155Receiver(to).onERC1155Received(operator, from, id, amount, data) returns (bytes4 response) {... */\n    tag_139:\n        /* \"ERC1155_Dropsite.sol\":1988:2031  IERC1155Receiver.onERC1155Received.selector */\n      shl(0xe0, 0xf23a6e61)\n        /* \"ERC1155_Dropsite.sol\":1976:2031  response != IERC1155Receiver.onERC1155Received.selector */\n      not(0xffffffffffffffffffffffffffffffffffffffffffffffffffffffff)\n      and\n        /* \"ERC1155_Dropsite.sol\":1976:1984  response */\n      dup2\n        /* \"ERC1155_Dropsite.sol\":1976:2031  response != IERC1155Receiver.onERC1155Received.selector */\n      not(0xffffffffffffffffffffffffffffffffffffffffffffffffffffffff)\n      and\n      eq\n        /* \"ERC1155_Dropsite.sol\":1972:2124  if (response != IERC1155Receiver.onERC1155Received.selector) {... */\n      tag_153\n      jumpi\n        /* \"ERC1155_Dropsite.sol\":2055:2105  revert(\"ERC1155: ERC1155Receiver rejected tokens\") */\n      mload(0x40)\n      0x08c379a000000000000000000000000000000000000000000000000000000000\n      dup2\n      mstore\n      0x04\n      add\n      tag_154\n      swap1\n      tag_155\n      jump\t// in\n    tag_154:\n      mload(0x40)\n      dup1\n      swap2\n      sub\n      swap1\n      revert\n        /* \"ERC1155_Dropsite.sol\":1972:2124  if (response != IERC1155Receiver.onERC1155Received.selector) {... */\n    tag_153:\n        /* \"ERC1155_Dropsite.sol\":1928:2138  returns (bytes4 response) {... */\n      pop\n        /* \"ERC1155_Dropsite.sol\":1816:2332  if (to.isContract()) {... */\n    tag_132:\n        /* \"ERC1155_Dropsite.sol\":1613:2338  function _doSafeTransferAcceptanceCheck(... */\n      pop\n      pop\n      pop\n      pop\n      pop\n      pop\n      jump\t// out\n        /* \"Address.sol\":771:1148  function isContract(address account) internal view returns (bool) {... */\n    tag_131:\n        /* \"Address.sol\":831:835  bool */\n      0x00\n        /* \"Address.sol\":1034:1046  uint256 size */\n      dup1\n        /* \"Address.sol\":1099:1106  account */\n      dup3\n        /* \"Address.sol\":1087:1107  extcodesize(account) */\n      extcodesize\n        /* \"Address.sol\":1079:1107  size := extcodesize(account) */\n      swap1\n      pop\n        /* \"Address.sol\":1140:1141  0 */\n      0x00\n        /* \"Address.sol\":1133:1137  size */\n      dup2\n        /* \"Address.sol\":1133:1141  size > 0 */\n      gt\n        /* \"Address.sol\":1126:1141  return size > 0 */\n      swap2\n      pop\n      pop\n        /* \"Address.sol\":771:1148  function isContract(address account) internal view returns (bool) {... */\n      swap2\n      swap1\n      pop\n      jump\t// out\n    tag_70:\n      dup3\n      dup1\n      sload\n      tag_157\n      swap1\n      tag_84\n      jump\t// in\n    tag_157:\n      swap1\n      0x00\n      mstore\n      keccak256(0x00, 0x20)\n      swap1\n      0x1f\n      add\n      0x20\n      swap1\n      div\n      dup2\n      add\n      swap3\n      dup3\n      tag_159\n      jumpi\n      0x00\n      dup6\n      sstore\n      jump(tag_158)\n    tag_159:\n      dup3\n      0x1f\n      lt\n      tag_160\n      jumpi\n      dup1\n      mload\n      not(0xff)\n      and\n      dup4\n      dup1\n      add\n      or\n      dup6\n      sstore\n      jump(tag_158)\n    tag_160:\n      dup3\n      dup1\n      add\n      0x01\n      add\n      dup6\n      sstore\n      dup3\n      iszero\n      tag_158\n      jumpi\n      swap2\n      dup3\n      add\n    tag_161:\n      dup3\n      dup2\n      gt\n      iszero\n      tag_162\n      jumpi\n      dup3\n      mload\n      dup3\n      sstore\n      swap2\n      0x20\n      add\n      swap2\n      swap1\n      0x01\n      add\n      swap1\n      jump(tag_161)\n    tag_162:\n    tag_158:\n      pop\n      swap1\n      pop\n      tag_163\n      swap2\n      swap1\n      tag_164\n      jump\t// in\n    tag_163:\n      pop\n      swap1\n      jump\t// out\n    tag_164:\n    tag_165:\n      dup1\n      dup3\n      gt\n      iszero\n      tag_166\n      jumpi\n      0x00\n      dup2\n      0x00\n      swap1\n      sstore\n      pop\n      0x01\n      add\n      jump(tag_165)\n    tag_166:\n      pop\n      swap1\n      jump\t// out\n        /* \"#utility.yul\":7:146   */\n    tag_168:\n        /* \"#utility.yul\":53:58   */\n      0x00\n        /* \"#utility.yul\":91:97   */\n      dup2\n        /* \"#utility.yul\":78:98   */\n      calldataload\n        /* \"#utility.yul\":69:98   */\n      swap1\n      pop\n        /* \"#utility.yul\":107:140   */\n      tag_170\n        /* \"#utility.yul\":134:139   */\n      dup2\n        /* \"#utility.yul\":107:140   */\n      tag_171\n      jump\t// in\n    tag_170:\n        /* \"#utility.yul\":7:146   */\n      swap3\n      swap2\n      pop\n      pop\n      jump\t// out\n        /* \"#utility.yul\":152:293   */\n    tag_172:\n        /* \"#utility.yul\":208:213   */\n      0x00\n        /* \"#utility.yul\":239:245   */\n      dup2\n        /* \"#utility.yul\":233:246   */\n      mload\n        /* \"#utility.yul\":224:246   */\n      swap1\n      pop\n        /* \"#utility.yul\":255:287   */\n      tag_174\n        /* \"#utility.yul\":281:286   */\n      dup2\n        /* \"#utility.yul\":255:287   */\n      tag_175\n      jump\t// in\n    tag_174:\n        /* \"#utility.yul\":152:293   */\n      swap3\n      swap2\n      pop\n      pop\n      jump\t// out\n        /* \"#utility.yul\":299:628   */\n    tag_37:\n        /* \"#utility.yul\":358:364   */\n      0x00\n        /* \"#utility.yul\":407:409   */\n      0x20\n        /* \"#utility.yul\":395:404   */\n      dup3\n        /* \"#utility.yul\":386:393   */\n      dup5\n        /* \"#utility.yul\":382:405   */\n      sub\n        /* \"#utility.yul\":378:410   */\n      slt\n        /* \"#utility.yul\":375:494   */\n      iszero\n      tag_177\n      jumpi\n        /* \"#utility.yul\":413:492   */\n      tag_178\n      tag_179\n      jump\t// in\n    tag_178:\n        /* \"#utility.yul\":375:494   */\n    tag_177:\n        /* \"#utility.yul\":533:534   */\n      0x00\n        /* \"#utility.yul\":558:611   */\n      tag_180\n        /* \"#utility.yul\":603:610   */\n      dup5\n        /* \"#utility.yul\":594:600   */\n      dup3\n        /* \"#utility.yul\":583:592   */\n      dup6\n        /* \"#utility.yul\":579:601   */\n      add\n        /* \"#utility.yul\":558:611   */\n      tag_168\n      jump\t// in\n    tag_180:\n        /* \"#utility.yul\":548:611   */\n      swap2\n      pop\n        /* \"#utility.yul\":504:621   */\n      pop\n        /* \"#utility.yul\":299:628   */\n      swap3\n      swap2\n      pop\n      pop\n      jump\t// out\n        /* \"#utility.yul\":634:983   */\n    tag_138:\n        /* \"#utility.yul\":703:709   */\n      0x00\n        /* \"#utility.yul\":752:754   */\n      0x20\n        /* \"#utility.yul\":740:749   */\n      dup3\n        /* \"#utility.yul\":731:738   */\n      dup5\n        /* \"#utility.yul\":727:750   */\n      sub\n        /* \"#utility.yul\":723:755   */\n      slt\n        /* \"#utility.yul\":720:839   */\n      iszero\n      tag_182\n      jumpi\n        /* \"#utility.yul\":758:837   */\n      tag_183\n      tag_179\n      jump\t// in\n    tag_183:\n        /* \"#utility.yul\":720:839   */\n    tag_182:\n        /* \"#utility.yul\":878:879   */\n      0x00\n        /* \"#utility.yul\":903:966   */\n      tag_184\n        /* \"#utility.yul\":958:965   */\n      dup5\n        /* \"#utility.yul\":949:955   */\n      dup3\n        /* \"#utility.yul\":938:947   */\n      dup6\n        /* \"#utility.yul\":934:956   */\n      add\n        /* \"#utility.yul\":903:966   */\n      tag_172\n      jump\t// in\n    tag_184:\n        /* \"#utility.yul\":893:966   */\n      swap2\n      pop\n        /* \"#utility.yul\":849:976   */\n      pop\n        /* \"#utility.yul\":634:983   */\n      swap3\n      swap2\n      pop\n      pop\n      jump\t// out\n        /* \"#utility.yul\":989:1131   */\n    tag_185:\n        /* \"#utility.yul\":1092:1124   */\n      tag_187\n        /* \"#utility.yul\":1118:1123   */\n      dup2\n        /* \"#utility.yul\":1092:1124   */\n      tag_188\n      jump\t// in\n    tag_187:\n        /* \"#utility.yul\":1087:1090   */\n      dup3\n        /* \"#utility.yul\":1080:1125   */\n      mstore\n        /* \"#utility.yul\":989:1131   */\n      pop\n      pop\n      jump\t// out\n        /* \"#utility.yul\":1137:1255   */\n    tag_189:\n        /* \"#utility.yul\":1224:1248   */\n      tag_191\n        /* \"#utility.yul\":1242:1247   */\n      dup2\n        /* \"#utility.yul\":1224:1248   */\n      tag_192\n      jump\t// in\n    tag_191:\n        /* \"#utility.yul\":1219:1222   */\n      dup3\n        /* \"#utility.yul\":1212:1249   */\n      mstore\n        /* \"#utility.yul\":1137:1255   */\n      pop\n      pop\n      jump\t// out\n        /* \"#utility.yul\":1261:1418   */\n    tag_193:\n        /* \"#utility.yul\":1366:1411   */\n      tag_195\n        /* \"#utility.yul\":1386:1410   */\n      tag_196\n        /* \"#utility.yul\":1404:1409   */\n      dup3\n        /* \"#utility.yul\":1386:1410   */\n      tag_192\n      jump\t// in\n    tag_196:\n        /* \"#utility.yul\":1366:1411   */\n      tag_197\n      jump\t// in\n    tag_195:\n        /* \"#utility.yul\":1361:1364   */\n      dup3\n        /* \"#utility.yul\":1354:1412   */\n      mstore\n        /* \"#utility.yul\":1261:1418   */\n      pop\n      pop\n      jump\t// out\n        /* \"#utility.yul\":1424:1533   */\n    tag_198:\n        /* \"#utility.yul\":1505:1526   */\n      tag_200\n        /* \"#utility.yul\":1520:1525   */\n      dup2\n        /* \"#utility.yul\":1505:1526   */\n      tag_201\n      jump\t// in\n    tag_200:\n        /* \"#utility.yul\":1500:1503   */\n      dup3\n        /* \"#utility.yul\":1493:1527   */\n      mstore\n        /* \"#utility.yul\":1424:1533   */\n      pop\n      pop\n      jump\t// out\n        /* \"#utility.yul\":1539:1899   */\n    tag_202:\n        /* \"#utility.yul\":1625:1628   */\n      0x00\n        /* \"#utility.yul\":1653:1691   */\n      tag_204\n        /* \"#utility.yul\":1685:1690   */\n      dup3\n        /* \"#utility.yul\":1653:1691   */\n      tag_205\n      jump\t// in\n    tag_204:\n        /* \"#utility.yul\":1707:1777   */\n      tag_206\n        /* \"#utility.yul\":1770:1776   */\n      dup2\n        /* \"#utility.yul\":1765:1768   */\n      dup6\n        /* \"#utility.yul\":1707:1777   */\n      tag_207\n      jump\t// in\n    tag_206:\n        /* \"#utility.yul\":1700:1777   */\n      swap4\n      pop\n        /* \"#utility.yul\":1786:1838   */\n      tag_208\n        /* \"#utility.yul\":1831:1837   */\n      dup2\n        /* \"#utility.yul\":1826:1829   */\n      dup6\n        /* \"#utility.yul\":1819:1823   */\n      0x20\n        /* \"#utility.yul\":1812:1817   */\n      dup7\n        /* \"#utility.yul\":1808:1824   */\n      add\n        /* \"#utility.yul\":1786:1838   */\n      tag_209\n      jump\t// in\n    tag_208:\n        /* \"#utility.yul\":1863:1892   */\n      tag_210\n        /* \"#utility.yul\":1885:1891   */\n      dup2\n        /* \"#utility.yul\":1863:1892   */\n      tag_211\n      jump\t// in\n    tag_210:\n        /* \"#utility.yul\":1858:1861   */\n      dup5\n        /* \"#utility.yul\":1854:1893   */\n      add\n        /* \"#utility.yul\":1847:1893   */\n      swap2\n      pop\n        /* \"#utility.yul\":1629:1899   */\n      pop\n        /* \"#utility.yul\":1539:1899   */\n      swap3\n      swap2\n      pop\n      pop\n      jump\t// out\n        /* \"#utility.yul\":1905:2269   */\n    tag_212:\n        /* \"#utility.yul\":1993:1996   */\n      0x00\n        /* \"#utility.yul\":2021:2060   */\n      tag_214\n        /* \"#utility.yul\":2054:2059   */\n      dup3\n        /* \"#utility.yul\":2021:2060   */\n      tag_215\n      jump\t// in\n    tag_214:\n        /* \"#utility.yul\":2076:2147   */\n      tag_216\n        /* \"#utility.yul\":2140:2146   */\n      dup2\n        /* \"#utility.yul\":2135:2138   */\n      dup6\n        /* \"#utility.yul\":2076:2147   */\n      tag_217\n      jump\t// in\n    tag_216:\n        /* \"#utility.yul\":2069:2147   */\n      swap4\n      pop\n        /* \"#utility.yul\":2156:2208   */\n      tag_218\n        /* \"#utility.yul\":2201:2207   */\n      dup2\n        /* \"#utility.yul\":2196:2199   */\n      dup6\n        /* \"#utility.yul\":2189:2193   */\n      0x20\n        /* \"#utility.yul\":2182:2187   */\n      dup7\n        /* \"#utility.yul\":2178:2194   */\n      add\n        /* \"#utility.yul\":2156:2208   */\n      tag_209\n      jump\t// in\n    tag_218:\n        /* \"#utility.yul\":2233:2262   */\n      tag_219\n        /* \"#utility.yul\":2255:2261   */\n      dup2\n        /* \"#utility.yul\":2233:2262   */\n      tag_211\n      jump\t// in\n    tag_219:\n        /* \"#utility.yul\":2228:2231   */\n      dup5\n        /* \"#utility.yul\":2224:2263   */\n      add\n        /* \"#utility.yul\":2217:2263   */\n      swap2\n      pop\n        /* \"#utility.yul\":1997:2269   */\n      pop\n        /* \"#utility.yul\":1905:2269   */\n      swap3\n      swap2\n      pop\n      pop\n      jump\t// out\n        /* \"#utility.yul\":2275:2641   */\n    tag_220:\n        /* \"#utility.yul\":2417:2420   */\n      0x00\n        /* \"#utility.yul\":2438:2505   */\n      tag_222\n        /* \"#utility.yul\":2502:2504   */\n      0x34\n        /* \"#utility.yul\":2497:2500   */\n      dup4\n        /* \"#utility.yul\":2438:2505   */\n      tag_217\n      jump\t// in\n    tag_222:\n        /* \"#utility.yul\":2431:2505   */\n      swap2\n      pop\n        /* \"#utility.yul\":2514:2607   */\n      tag_223\n        /* \"#utility.yul\":2603:2606   */\n      dup3\n        /* \"#utility.yul\":2514:2607   */\n      tag_224\n      jump\t// in\n    tag_223:\n        /* \"#utility.yul\":2632:2634   */\n      0x40\n        /* \"#utility.yul\":2627:2630   */\n      dup3\n        /* \"#utility.yul\":2623:2635   */\n      add\n        /* \"#utility.yul\":2616:2635   */\n      swap1\n      pop\n        /* \"#utility.yul\":2275:2641   */\n      swap2\n      swap1\n      pop\n      jump\t// out\n        /* \"#utility.yul\":2647:3013   */\n    tag_225:\n        /* \"#utility.yul\":2789:2792   */\n      0x00\n        /* \"#utility.yul\":2810:2877   */\n      tag_227\n        /* \"#utility.yul\":2874:2876   */\n      0x28\n        /* \"#utility.yul\":2869:2872   */\n      dup4\n        /* \"#utility.yul\":2810:2877   */\n      tag_217\n      jump\t// in\n    tag_227:\n        /* \"#utility.yul\":2803:2877   */\n      swap2\n      pop\n        /* \"#utility.yul\":2886:2979   */\n      tag_228\n        /* \"#utility.yul\":2975:2978   */\n      dup3\n        /* \"#utility.yul\":2886:2979   */\n      tag_229\n      jump\t// in\n    tag_228:\n        /* \"#utility.yul\":3004:3006   */\n      0x40\n        /* \"#utility.yul\":2999:3002   */\n      dup3\n        /* \"#utility.yul\":2995:3007   */\n      add\n        /* \"#utility.yul\":2988:3007   */\n      swap1\n      pop\n        /* \"#utility.yul\":2647:3013   */\n      swap2\n      swap1\n      pop\n      jump\t// out\n        /* \"#utility.yul\":3019:3385   */\n    tag_230:\n        /* \"#utility.yul\":3161:3164   */\n      0x00\n        /* \"#utility.yul\":3182:3249   */\n      tag_232\n        /* \"#utility.yul\":3246:3248   */\n      0x18\n        /* \"#utility.yul\":3241:3244   */\n      dup4\n        /* \"#utility.yul\":3182:3249   */\n      tag_217\n      jump\t// in\n    tag_232:\n        /* \"#utility.yul\":3175:3249   */\n      swap2\n      pop\n        /* \"#utility.yul\":3258:3351   */\n      tag_233\n        /* \"#utility.yul\":3347:3350   */\n      dup3\n        /* \"#utility.yul\":3258:3351   */\n      tag_234\n      jump\t// in\n    tag_233:\n        /* \"#utility.yul\":3376:3378   */\n      0x20\n        /* \"#utility.yul\":3371:3374   */\n      dup3\n        /* \"#utility.yul\":3367:3379   */\n      add\n        /* \"#utility.yul\":3360:3379   */\n      swap1\n      pop\n        /* \"#utility.yul\":3019:3385   */\n      swap2\n      swap1\n      pop\n      jump\t// out\n        /* \"#utility.yul\":3391:3757   */\n    tag_235:\n        /* \"#utility.yul\":3533:3536   */\n      0x00\n        /* \"#utility.yul\":3554:3621   */\n      tag_237\n        /* \"#utility.yul\":3618:3620   */\n      0x12\n        /* \"#utility.yul\":3613:3616   */\n      dup4\n        /* \"#utility.yul\":3554:3621   */\n      tag_217\n      jump\t// in\n    tag_237:\n        /* \"#utility.yul\":3547:3621   */\n      swap2\n      pop\n        /* \"#utility.yul\":3630:3723   */\n      tag_238\n        /* \"#utility.yul\":3719:3722   */\n      dup3\n        /* \"#utility.yul\":3630:3723   */\n      tag_239\n      jump\t// in\n    tag_238:\n        /* \"#utility.yul\":3748:3750   */\n      0x20\n        /* \"#utility.yul\":3743:3746   */\n      dup3\n        /* \"#utility.yul\":3739:3751   */\n      add\n        /* \"#utility.yul\":3732:3751   */\n      swap1\n      pop\n        /* \"#utility.yul\":3391:3757   */\n      swap2\n      swap1\n      pop\n      jump\t// out\n        /* \"#utility.yul\":3763:4129   */\n    tag_240:\n        /* \"#utility.yul\":3905:3908   */\n      0x00\n        /* \"#utility.yul\":3926:3993   */\n      tag_242\n        /* \"#utility.yul\":3990:3992   */\n      0x21\n        /* \"#utility.yul\":3985:3988   */\n      dup4\n        /* \"#utility.yul\":3926:3993   */\n      tag_217\n      jump\t// in\n    tag_242:\n        /* \"#utility.yul\":3919:3993   */\n      swap2\n      pop\n        /* \"#utility.yul\":4002:4095   */\n      tag_243\n        /* \"#utility.yul\":4091:4094   */\n      dup3\n        /* \"#utility.yul\":4002:4095   */\n      tag_244\n      jump\t// in\n    tag_243:\n        /* \"#utility.yul\":4120:4122   */\n      0x40\n        /* \"#utility.yul\":4115:4118   */\n      dup3\n        /* \"#utility.yul\":4111:4123   */\n      add\n        /* \"#utility.yul\":4104:4123   */\n      swap1\n      pop\n        /* \"#utility.yul\":3763:4129   */\n      swap2\n      swap1\n      pop\n      jump\t// out\n        /* \"#utility.yul\":4135:4253   */\n    tag_245:\n        /* \"#utility.yul\":4222:4246   */\n      tag_247\n        /* \"#utility.yul\":4240:4245   */\n      dup2\n        /* \"#utility.yul\":4222:4246   */\n      tag_248\n      jump\t// in\n    tag_247:\n        /* \"#utility.yul\":4217:4220   */\n      dup3\n        /* \"#utility.yul\":4210:4247   */\n      mstore\n        /* \"#utility.yul\":4135:4253   */\n      pop\n      pop\n      jump\t// out\n        /* \"#utility.yul\":4259:4416   */\n    tag_249:\n        /* \"#utility.yul\":4364:4409   */\n      tag_251\n        /* \"#utility.yul\":4384:4408   */\n      tag_252\n        /* \"#utility.yul\":4402:4407   */\n      dup3\n        /* \"#utility.yul\":4384:4408   */\n      tag_248\n      jump\t// in\n    tag_252:\n        /* \"#utility.yul\":4364:4409   */\n      tag_253\n      jump\t// in\n    tag_251:\n        /* \"#utility.yul\":4359:4362   */\n      dup3\n        /* \"#utility.yul\":4352:4410   */\n      mstore\n        /* \"#utility.yul\":4259:4416   */\n      pop\n      pop\n      jump\t// out\n        /* \"#utility.yul\":4422:4819   */\n    tag_101:\n        /* \"#utility.yul\":4562:4565   */\n      0x00\n        /* \"#utility.yul\":4577:4652   */\n      tag_255\n        /* \"#utility.yul\":4648:4651   */\n      dup3\n        /* \"#utility.yul\":4639:4645   */\n      dup6\n        /* \"#utility.yul\":4577:4652   */\n      tag_249\n      jump\t// in\n    tag_255:\n        /* \"#utility.yul\":4677:4679   */\n      0x20\n        /* \"#utility.yul\":4672:4675   */\n      dup3\n        /* \"#utility.yul\":4668:4680   */\n      add\n        /* \"#utility.yul\":4661:4680   */\n      swap2\n      pop\n        /* \"#utility.yul\":4690:4765   */\n      tag_256\n        /* \"#utility.yul\":4761:4764   */\n      dup3\n        /* \"#utility.yul\":4752:4758   */\n      dup5\n        /* \"#utility.yul\":4690:4765   */\n      tag_193\n      jump\t// in\n    tag_256:\n        /* \"#utility.yul\":4790:4792   */\n      0x14\n        /* \"#utility.yul\":4785:4788   */\n      dup3\n        /* \"#utility.yul\":4781:4793   */\n      add\n        /* \"#utility.yul\":4774:4793   */\n      swap2\n      pop\n        /* \"#utility.yul\":4810:4813   */\n      dup2\n        /* \"#utility.yul\":4803:4813   */\n      swap1\n      pop\n        /* \"#utility.yul\":4422:4819   */\n      swap4\n      swap3\n      pop\n      pop\n      pop\n      jump\t// out\n        /* \"#utility.yul\":4825:5079   */\n    tag_30:\n        /* \"#utility.yul\":4934:4938   */\n      0x00\n        /* \"#utility.yul\":4972:4974   */\n      0x20\n        /* \"#utility.yul\":4961:4970   */\n      dup3\n        /* \"#utility.yul\":4957:4975   */\n      add\n        /* \"#utility.yul\":4949:4975   */\n      swap1\n      pop\n        /* \"#utility.yul\":4985:5072   */\n      tag_258\n        /* \"#utility.yul\":5069:5070   */\n      0x00\n        /* \"#utility.yul\":5058:5067   */\n      dup4\n        /* \"#utility.yul\":5054:5071   */\n      add\n        /* \"#utility.yul\":5045:5051   */\n      dup5\n        /* \"#utility.yul\":4985:5072   */\n      tag_185\n      jump\t// in\n    tag_258:\n        /* \"#utility.yul\":4825:5079   */\n      swap3\n      swap2\n      pop\n      pop\n      jump\t// out\n        /* \"#utility.yul\":5085:5836   */\n    tag_134:\n        /* \"#utility.yul\":5308:5312   */\n      0x00\n        /* \"#utility.yul\":5346:5349   */\n      0xa0\n        /* \"#utility.yul\":5335:5344   */\n      dup3\n        /* \"#utility.yul\":5331:5350   */\n      add\n        /* \"#utility.yul\":5323:5350   */\n      swap1\n      pop\n        /* \"#utility.yul\":5360:5431   */\n      tag_260\n        /* \"#utility.yul\":5428:5429   */\n      0x00\n        /* \"#utility.yul\":5417:5426   */\n      dup4\n        /* \"#utility.yul\":5413:5430   */\n      add\n        /* \"#utility.yul\":5404:5410   */\n      dup9\n        /* \"#utility.yul\":5360:5431   */\n      tag_189\n      jump\t// in\n    tag_260:\n        /* \"#utility.yul\":5441:5513   */\n      tag_261\n        /* \"#utility.yul\":5509:5511   */\n      0x20\n        /* \"#utility.yul\":5498:5507   */\n      dup4\n        /* \"#utility.yul\":5494:5512   */\n      add\n        /* \"#utility.yul\":5485:5491   */\n      dup8\n        /* \"#utility.yul\":5441:5513   */\n      tag_189\n      jump\t// in\n    tag_261:\n        /* \"#utility.yul\":5523:5595   */\n      tag_262\n        /* \"#utility.yul\":5591:5593   */\n      0x40\n        /* \"#utility.yul\":5580:5589   */\n      dup4\n        /* \"#utility.yul\":5576:5594   */\n      add\n        /* \"#utility.yul\":5567:5573   */\n      dup7\n        /* \"#utility.yul\":5523:5595   */\n      tag_245\n      jump\t// in\n    tag_262:\n        /* \"#utility.yul\":5605:5677   */\n      tag_263\n        /* \"#utility.yul\":5673:5675   */\n      0x60\n        /* \"#utility.yul\":5662:5671   */\n      dup4\n        /* \"#utility.yul\":5658:5676   */\n      add\n        /* \"#utility.yul\":5649:5655   */\n      dup6\n        /* \"#utility.yul\":5605:5677   */\n      tag_245\n      jump\t// in\n    tag_263:\n        /* \"#utility.yul\":5725:5734   */\n      dup2\n        /* \"#utility.yul\":5719:5723   */\n      dup2\n        /* \"#utility.yul\":5715:5735   */\n      sub\n        /* \"#utility.yul\":5709:5712   */\n      0x80\n        /* \"#utility.yul\":5698:5707   */\n      dup4\n        /* \"#utility.yul\":5694:5713   */\n      add\n        /* \"#utility.yul\":5687:5736   */\n      mstore\n        /* \"#utility.yul\":5753:5829   */\n      tag_264\n        /* \"#utility.yul\":5824:5828   */\n      dup2\n        /* \"#utility.yul\":5815:5821   */\n      dup5\n        /* \"#utility.yul\":5753:5829   */\n      tag_202\n      jump\t// in\n    tag_264:\n        /* \"#utility.yul\":5745:5829   */\n      swap1\n      pop\n        /* \"#utility.yul\":5085:5836   */\n      swap7\n      swap6\n      pop\n      pop\n      pop\n      pop\n      pop\n      pop\n      jump\t// out\n        /* \"#utility.yul\":5842:6052   */\n    tag_15:\n        /* \"#utility.yul\":5929:5933   */\n      0x00\n        /* \"#utility.yul\":5967:5969   */\n      0x20\n        /* \"#utility.yul\":5956:5965   */\n      dup3\n        /* \"#utility.yul\":5952:5970   */\n      add\n        /* \"#utility.yul\":5944:5970   */\n      swap1\n      pop\n        /* \"#utility.yul\":5980:6045   */\n      tag_266\n        /* \"#utility.yul\":6042:6043   */\n      0x00\n        /* \"#utility.yul\":6031:6040   */\n      dup4\n        /* \"#utility.yul\":6027:6044   */\n      add\n        /* \"#utility.yul\":6018:6024   */\n      dup5\n        /* \"#utility.yul\":5980:6045   */\n      tag_198\n      jump\t// in\n    tag_266:\n        /* \"#utility.yul\":5842:6052   */\n      swap3\n      swap2\n      pop\n      pop\n      jump\t// out\n        /* \"#utility.yul\":6058:6371   */\n    tag_149:\n        /* \"#utility.yul\":6171:6175   */\n      0x00\n        /* \"#utility.yul\":6209:6211   */\n      0x20\n        /* \"#utility.yul\":6198:6207   */\n      dup3\n        /* \"#utility.yul\":6194:6212   */\n      add\n        /* \"#utility.yul\":6186:6212   */\n      swap1\n      pop\n        /* \"#utility.yul\":6258:6267   */\n      dup2\n        /* \"#utility.yul\":6252:6256   */\n      dup2\n        /* \"#utility.yul\":6248:6268   */\n      sub\n        /* \"#utility.yul\":6244:6245   */\n      0x00\n        /* \"#utility.yul\":6233:6242   */\n      dup4\n        /* \"#utility.yul\":6229:6246   */\n      add\n        /* \"#utility.yul\":6222:6269   */\n      mstore\n        /* \"#utility.yul\":6286:6364   */\n      tag_268\n        /* \"#utility.yul\":6359:6363   */\n      dup2\n        /* \"#utility.yul\":6350:6356   */\n      dup5\n        /* \"#utility.yul\":6286:6364   */\n      tag_212\n      jump\t// in\n    tag_268:\n        /* \"#utility.yul\":6278:6364   */\n      swap1\n      pop\n        /* \"#utility.yul\":6058:6371   */\n      swap3\n      swap2\n      pop\n      pop\n      jump\t// out\n        /* \"#utility.yul\":6377:6796   */\n    tag_151:\n        /* \"#utility.yul\":6543:6547   */\n      0x00\n        /* \"#utility.yul\":6581:6583   */\n      0x20\n        /* \"#utility.yul\":6570:6579   */\n      dup3\n        /* \"#utility.yul\":6566:6584   */\n      add\n        /* \"#utility.yul\":6558:6584   */\n      swap1\n      pop\n        /* \"#utility.yul\":6630:6639   */\n      dup2\n        /* \"#utility.yul\":6624:6628   */\n      dup2\n        /* \"#utility.yul\":6620:6640   */\n      sub\n        /* \"#utility.yul\":6616:6617   */\n      0x00\n        /* \"#utility.yul\":6605:6614   */\n      dup4\n        /* \"#utility.yul\":6601:6618   */\n      add\n        /* \"#utility.yul\":6594:6641   */\n      mstore\n        /* \"#utility.yul\":6658:6789   */\n      tag_270\n        /* \"#utility.yul\":6784:6788   */\n      dup2\n        /* \"#utility.yul\":6658:6789   */\n      tag_220\n      jump\t// in\n    tag_270:\n        /* \"#utility.yul\":6650:6789   */\n      swap1\n      pop\n        /* \"#utility.yul\":6377:6796   */\n      swap2\n      swap1\n      pop\n      jump\t// out\n        /* \"#utility.yul\":6802:7221   */\n    tag_155:\n        /* \"#utility.yul\":6968:6972   */\n      0x00\n        /* \"#utility.yul\":7006:7008   */\n      0x20\n        /* \"#utility.yul\":6995:7004   */\n      dup3\n        /* \"#utility.yul\":6991:7009   */\n      add\n        /* \"#utility.yul\":6983:7009   */\n      swap1\n      pop\n        /* \"#utility.yul\":7055:7064   */\n      dup2\n        /* \"#utility.yul\":7049:7053   */\n      dup2\n        /* \"#utility.yul\":7045:7065   */\n      sub\n        /* \"#utility.yul\":7041:7042   */\n      0x00\n        /* \"#utility.yul\":7030:7039   */\n      dup4\n        /* \"#utility.yul\":7026:7043   */\n      add\n        /* \"#utility.yul\":7019:7066   */\n      mstore\n        /* \"#utility.yul\":7083:7214   */\n      tag_272\n        /* \"#utility.yul\":7209:7213   */\n      dup2\n        /* \"#utility.yul\":7083:7214   */\n      tag_225\n      jump\t// in\n    tag_272:\n        /* \"#utility.yul\":7075:7214   */\n      swap1\n      pop\n        /* \"#utility.yul\":6802:7221   */\n      swap2\n      swap1\n      pop\n      jump\t// out\n        /* \"#utility.yul\":7227:7646   */\n    tag_45:\n        /* \"#utility.yul\":7393:7397   */\n      0x00\n        /* \"#utility.yul\":7431:7433   */\n      0x20\n        /* \"#utility.yul\":7420:7429   */\n      dup3\n        /* \"#utility.yul\":7416:7434   */\n      add\n        /* \"#utility.yul\":7408:7434   */\n      swap1\n      pop\n        /* \"#utility.yul\":7480:7489   */\n      dup2\n        /* \"#utility.yul\":7474:7478   */\n      dup2\n        /* \"#utility.yul\":7470:7490   */\n      sub\n        /* \"#utility.yul\":7466:7467   */\n      0x00\n        /* \"#utility.yul\":7455:7464   */\n      dup4\n        /* \"#utility.yul\":7451:7468   */\n      add\n        /* \"#utility.yul\":7444:7491   */\n      mstore\n        /* \"#utility.yul\":7508:7639   */\n      tag_274\n        /* \"#utility.yul\":7634:7638   */\n      dup2\n        /* \"#utility.yul\":7508:7639   */\n      tag_230\n      jump\t// in\n    tag_274:\n        /* \"#utility.yul\":7500:7639   */\n      swap1\n      pop\n        /* \"#utility.yul\":7227:7646   */\n      swap2\n      swap1\n      pop\n      jump\t// out\n        /* \"#utility.yul\":7652:8071   */\n    tag_57:\n        /* \"#utility.yul\":7818:7822   */\n      0x00\n        /* \"#utility.yul\":7856:7858   */\n      0x20\n        /* \"#utility.yul\":7845:7854   */\n      dup3\n        /* \"#utility.yul\":7841:7859   */\n      add\n        /* \"#utility.yul\":7833:7859   */\n      swap1\n      pop\n        /* \"#utility.yul\":7905:7914   */\n      dup2\n        /* \"#utility.yul\":7899:7903   */\n      dup2\n        /* \"#utility.yul\":7895:7915   */\n      sub\n        /* \"#utility.yul\":7891:7892   */\n      0x00\n        /* \"#utility.yul\":7880:7889   */\n      dup4\n        /* \"#utility.yul\":7876:7893   */\n      add\n        /* \"#utility.yul\":7869:7916   */\n      mstore\n        /* \"#utility.yul\":7933:8064   */\n      tag_276\n        /* \"#utility.yul\":8059:8063   */\n      dup2\n        /* \"#utility.yul\":7933:8064   */\n      tag_235\n      jump\t// in\n    tag_276:\n        /* \"#utility.yul\":7925:8064   */\n      swap1\n      pop\n        /* \"#utility.yul\":7652:8071   */\n      swap2\n      swap1\n      pop\n      jump\t// out\n        /* \"#utility.yul\":8077:8496   */\n    tag_107:\n        /* \"#utility.yul\":8243:8247   */\n      0x00\n        /* \"#utility.yul\":8281:8283   */\n      0x20\n        /* \"#utility.yul\":8270:8279   */\n      dup3\n        /* \"#utility.yul\":8266:8284   */\n      add\n        /* \"#utility.yul\":8258:8284   */\n      swap1\n      pop\n        /* \"#utility.yul\":8330:8339   */\n      dup2\n        /* \"#utility.yul\":8324:8328   */\n      dup2\n        /* \"#utility.yul\":8320:8340   */\n      sub\n        /* \"#utility.yul\":8316:8317   */\n      0x00\n        /* \"#utility.yul\":8305:8314   */\n      dup4\n        /* \"#utility.yul\":8301:8318   */\n      add\n        /* \"#utility.yul\":8294:8341   */\n      mstore\n        /* \"#utility.yul\":8358:8489   */\n      tag_278\n        /* \"#utility.yul\":8484:8488   */\n      dup2\n        /* \"#utility.yul\":8358:8489   */\n      tag_240\n      jump\t// in\n    tag_278:\n        /* \"#utility.yul\":8350:8489   */\n      swap1\n      pop\n        /* \"#utility.yul\":8077:8496   */\n      swap2\n      swap1\n      pop\n      jump\t// out\n        /* \"#utility.yul\":8502:8724   */\n    tag_19:\n        /* \"#utility.yul\":8595:8599   */\n      0x00\n        /* \"#utility.yul\":8633:8635   */\n      0x20\n        /* \"#utility.yul\":8622:8631   */\n      dup3\n        /* \"#utility.yul\":8618:8636   */\n      add\n        /* \"#utility.yul\":8610:8636   */\n      swap1\n      pop\n        /* \"#utility.yul\":8646:8717   */\n      tag_280\n        /* \"#utility.yul\":8714:8715   */\n      0x00\n        /* \"#utility.yul\":8703:8712   */\n      dup4\n        /* \"#utility.yul\":8699:8716   */\n      add\n        /* \"#utility.yul\":8690:8696   */\n      dup5\n        /* \"#utility.yul\":8646:8717   */\n      tag_245\n      jump\t// in\n    tag_280:\n        /* \"#utility.yul\":8502:8724   */\n      swap3\n      swap2\n      pop\n      pop\n      jump\t// out\n        /* \"#utility.yul\":8730:9062   */\n    tag_117:\n        /* \"#utility.yul\":8851:8855   */\n      0x00\n        /* \"#utility.yul\":8889:8891   */\n      0x40\n        /* \"#utility.yul\":8878:8887   */\n      dup3\n        /* \"#utility.yul\":8874:8892   */\n      add\n        /* \"#utility.yul\":8866:8892   */\n      swap1\n      pop\n        /* \"#utility.yul\":8902:8973   */\n      tag_282\n        /* \"#utility.yul\":8970:8971   */\n      0x00\n        /* \"#utility.yul\":8959:8968   */\n      dup4\n        /* \"#utility.yul\":8955:8972   */\n      add\n        /* \"#utility.yul\":8946:8952   */\n      dup6\n        /* \"#utility.yul\":8902:8973   */\n      tag_245\n      jump\t// in\n    tag_282:\n        /* \"#utility.yul\":8983:9055   */\n      tag_283\n        /* \"#utility.yul\":9051:9053   */\n      0x20\n        /* \"#utility.yul\":9040:9049   */\n      dup4\n        /* \"#utility.yul\":9036:9054   */\n      add\n        /* \"#utility.yul\":9027:9033   */\n      dup5\n        /* \"#utility.yul\":8983:9055   */\n      tag_245\n      jump\t// in\n    tag_283:\n        /* \"#utility.yul\":8730:9062   */\n      swap4\n      swap3\n      pop\n      pop\n      pop\n      jump\t// out\n        /* \"#utility.yul\":9068:9510   */\n    tag_34:\n        /* \"#utility.yul\":9217:9221   */\n      0x00\n        /* \"#utility.yul\":9255:9257   */\n      0x60\n        /* \"#utility.yul\":9244:9253   */\n      dup3\n        /* \"#utility.yul\":9240:9258   */\n      add\n        /* \"#utility.yul\":9232:9258   */\n      swap1\n      pop\n        /* \"#utility.yul\":9268:9339   */\n      tag_285\n        /* \"#utility.yul\":9336:9337   */\n      0x00\n        /* \"#utility.yul\":9325:9334   */\n      dup4\n        /* \"#utility.yul\":9321:9338   */\n      add\n        /* \"#utility.yul\":9312:9318   */\n      dup7\n        /* \"#utility.yul\":9268:9339   */\n      tag_245\n      jump\t// in\n    tag_285:\n        /* \"#utility.yul\":9349:9421   */\n      tag_286\n        /* \"#utility.yul\":9417:9419   */\n      0x20\n        /* \"#utility.yul\":9406:9415   */\n      dup4\n        /* \"#utility.yul\":9402:9420   */\n      add\n        /* \"#utility.yul\":9393:9399   */\n      dup6\n        /* \"#utility.yul\":9349:9421   */\n      tag_245\n      jump\t// in\n    tag_286:\n        /* \"#utility.yul\":9431:9503   */\n      tag_287\n        /* \"#utility.yul\":9499:9501   */\n      0x40\n        /* \"#utility.yul\":9488:9497   */\n      dup4\n        /* \"#utility.yul\":9484:9502   */\n      add\n        /* \"#utility.yul\":9475:9481   */\n      dup5\n        /* \"#utility.yul\":9431:9503   */\n      tag_245\n      jump\t// in\n    tag_287:\n        /* \"#utility.yul\":9068:9510   */\n      swap5\n      swap4\n      pop\n      pop\n      pop\n      pop\n      jump\t// out\n        /* \"#utility.yul\":9516:9591   */\n    tag_288:\n        /* \"#utility.yul\":9549:9555   */\n      0x00\n        /* \"#utility.yul\":9582:9584   */\n      0x40\n        /* \"#utility.yul\":9576:9585   */\n      mload\n        /* \"#utility.yul\":9566:9585   */\n      swap1\n      pop\n        /* \"#utility.yul\":9516:9591   */\n      swap1\n      jump\t// out\n        /* \"#utility.yul\":9597:9695   */\n    tag_205:\n        /* \"#utility.yul\":9648:9654   */\n      0x00\n        /* \"#utility.yul\":9682:9687   */\n      dup2\n        /* \"#utility.yul\":9676:9688   */\n      mload\n        /* \"#utility.yul\":9666:9688   */\n      swap1\n      pop\n        /* \"#utility.yul\":9597:9695   */\n      swap2\n      swap1\n      pop\n      jump\t// out\n        /* \"#utility.yul\":9701:9800   */\n    tag_215:\n        /* \"#utility.yul\":9753:9759   */\n      0x00\n        /* \"#utility.yul\":9787:9792   */\n      dup2\n        /* \"#utility.yul\":9781:9793   */\n      mload\n        /* \"#utility.yul\":9771:9793   */\n      swap1\n      pop\n        /* \"#utility.yul\":9701:9800   */\n      swap2\n      swap1\n      pop\n      jump\t// out\n        /* \"#utility.yul\":9806:9974   */\n    tag_207:\n        /* \"#utility.yul\":9889:9900   */\n      0x00\n        /* \"#utility.yul\":9923:9929   */\n      dup3\n        /* \"#utility.yul\":9918:9921   */\n      dup3\n        /* \"#utility.yul\":9911:9930   */\n      mstore\n        /* \"#utility.yul\":9963:9967   */\n      0x20\n        /* \"#utility.yul\":9958:9961   */\n      dup3\n        /* \"#utility.yul\":9954:9968   */\n      add\n        /* \"#utility.yul\":9939:9968   */\n      swap1\n      pop\n        /* \"#utility.yul\":9806:9974   */\n      swap3\n      swap2\n      pop\n      pop\n      jump\t// out\n        /* \"#utility.yul\":9980:10149   */\n    tag_217:\n        /* \"#utility.yul\":10064:10075   */\n      0x00\n        /* \"#utility.yul\":10098:10104   */\n      dup3\n        /* \"#utility.yul\":10093:10096   */\n      dup3\n        /* \"#utility.yul\":10086:10105   */\n      mstore\n        /* \"#utility.yul\":10138:10142   */\n      0x20\n        /* \"#utility.yul\":10133:10136   */\n      dup3\n        /* \"#utility.yul\":10129:10143   */\n      add\n        /* \"#utility.yul\":10114:10143   */\n      swap1\n      pop\n        /* \"#utility.yul\":9980:10149   */\n      swap3\n      swap2\n      pop\n      pop\n      jump\t// out\n        /* \"#utility.yul\":10155:10460   */\n    tag_115:\n        /* \"#utility.yul\":10195:10198   */\n      0x00\n        /* \"#utility.yul\":10214:10234   */\n      tag_295\n        /* \"#utility.yul\":10232:10233   */\n      dup3\n        /* \"#utility.yul\":10214:10234   */\n      tag_248\n      jump\t// in\n    tag_295:\n        /* \"#utility.yul\":10209:10234   */\n      swap2\n      pop\n        /* \"#utility.yul\":10248:10268   */\n      tag_296\n        /* \"#utility.yul\":10266:10267   */\n      dup4\n        /* \"#utility.yul\":10248:10268   */\n      tag_248\n      jump\t// in\n    tag_296:\n        /* \"#utility.yul\":10243:10268   */\n      swap3\n      pop\n        /* \"#utility.yul\":10402:10403   */\n      dup3\n        /* \"#utility.yul\":10334:10400   */\n      0xffffffffffffffffffffffffffffffffffffffffffffffffffffffffffffffff\n        /* \"#utility.yul\":10330:10404   */\n      sub\n        /* \"#utility.yul\":10327:10328   */\n      dup3\n        /* \"#utility.yul\":10324:10405   */\n      gt\n        /* \"#utility.yul\":10321:10428   */\n      iszero\n      tag_297\n      jumpi\n        /* \"#utility.yul\":10408:10426   */\n      tag_298\n      tag_299\n      jump\t// in\n    tag_298:\n        /* \"#utility.yul\":10321:10428   */\n    tag_297:\n        /* \"#utility.yul\":10452:10453   */\n      dup3\n        /* \"#utility.yul\":10449:10450   */\n      dup3\n        /* \"#utility.yul\":10445:10454   */\n      add\n        /* \"#utility.yul\":10438:10454   */\n      swap1\n      pop\n        /* \"#utility.yul\":10155:10460   */\n      swap3\n      swap2\n      pop\n      pop\n      jump\t// out\n        /* \"#utility.yul\":10466:10562   */\n    tag_192:\n        /* \"#utility.yul\":10503:10510   */\n      0x00\n        /* \"#utility.yul\":10532:10556   */\n      tag_301\n        /* \"#utility.yul\":10550:10555   */\n      dup3\n        /* \"#utility.yul\":10532:10556   */\n      tag_302\n      jump\t// in\n    tag_301:\n        /* \"#utility.yul\":10521:10556   */\n      swap1\n      pop\n        /* \"#utility.yul\":10466:10562   */\n      swap2\n      swap1\n      pop\n      jump\t// out\n        /* \"#utility.yul\":10568:10672   */\n    tag_188:\n        /* \"#utility.yul\":10613:10620   */\n      0x00\n        /* \"#utility.yul\":10642:10666   */\n      tag_304\n        /* \"#utility.yul\":10660:10665   */\n      dup3\n        /* \"#utility.yul\":10642:10666   */\n      tag_302\n      jump\t// in\n    tag_304:\n        /* \"#utility.yul\":10631:10666   */\n      swap1\n      pop\n        /* \"#utility.yul\":10568:10672   */\n      swap2\n      swap1\n      pop\n      jump\t// out\n        /* \"#utility.yul\":10678:10768   */\n    tag_201:\n        /* \"#utility.yul\":10712:10719   */\n      0x00\n        /* \"#utility.yul\":10755:10760   */\n      dup2\n        /* \"#utility.yul\":10748:10761   */\n      iszero\n        /* \"#utility.yul\":10741:10762   */\n      iszero\n        /* \"#utility.yul\":10730:10762   */\n      swap1\n      pop\n        /* \"#utility.yul\":10678:10768   */\n      swap2\n      swap1\n      pop\n      jump\t// out\n        /* \"#utility.yul\":10774:10923   */\n    tag_306:\n        /* \"#utility.yul\":10810:10817   */\n      0x00\n        /* \"#utility.yul\":10850:10916   */\n      0xffffffff00000000000000000000000000000000000000000000000000000000\n        /* \"#utility.yul\":10843:10848   */\n      dup3\n        /* \"#utility.yul\":10839:10917   */\n      and\n        /* \"#utility.yul\":10828:10917   */\n      swap1\n      pop\n        /* \"#utility.yul\":10774:10923   */\n      swap2\n      swap1\n      pop\n      jump\t// out\n        /* \"#utility.yul\":10929:11055   */\n    tag_302:\n        /* \"#utility.yul\":10966:10973   */\n      0x00\n        /* \"#utility.yul\":11006:11048   */\n      0xffffffffffffffffffffffffffffffffffffffff\n        /* \"#utility.yul\":10999:11004   */\n      dup3\n        /* \"#utility.yul\":10995:11049   */\n      and\n        /* \"#utility.yul\":10984:11049   */\n      swap1\n      pop\n        /* \"#utility.yul\":10929:11055   */\n      swap2\n      swap1\n      pop\n      jump\t// out\n        /* \"#utility.yul\":11061:11138   */\n    tag_248:\n        /* \"#utility.yul\":11098:11105   */\n      0x00\n        /* \"#utility.yul\":11127:11132   */\n      dup2\n        /* \"#utility.yul\":11116:11132   */\n      swap1\n      pop\n        /* \"#utility.yul\":11061:11138   */\n      swap2\n      swap1\n      pop\n      jump\t// out\n        /* \"#utility.yul\":11144:11451   */\n    tag_209:\n        /* \"#utility.yul\":11212:11213   */\n      0x00\n        /* \"#utility.yul\":11222:11335   */\n    tag_311:\n        /* \"#utility.yul\":11236:11242   */\n      dup4\n        /* \"#utility.yul\":11233:11234   */\n      dup2\n        /* \"#utility.yul\":11230:11243   */\n      lt\n        /* \"#utility.yul\":11222:11335   */\n      iszero\n      tag_313\n      jumpi\n        /* \"#utility.yul\":11321:11322   */\n      dup1\n        /* \"#utility.yul\":11316:11319   */\n      dup3\n        /* \"#utility.yul\":11312:11323   */\n      add\n        /* \"#utility.yul\":11306:11324   */\n      mload\n        /* \"#utility.yul\":11302:11303   */\n      dup2\n        /* \"#utility.yul\":11297:11300   */\n      dup5\n        /* \"#utility.yul\":11293:11304   */\n      add\n        /* \"#utility.yul\":11286:11325   */\n      mstore\n        /* \"#utility.yul\":11258:11260   */\n      0x20\n        /* \"#utility.yul\":11255:11256   */\n      dup2\n        /* \"#utility.yul\":11251:11261   */\n      add\n        /* \"#utility.yul\":11246:11261   */\n      swap1\n      pop\n        /* \"#utility.yul\":11222:11335   */\n      jump(tag_311)\n    tag_313:\n        /* \"#utility.yul\":11353:11359   */\n      dup4\n        /* \"#utility.yul\":11350:11351   */\n      dup2\n        /* \"#utility.yul\":11347:11360   */\n      gt\n        /* \"#utility.yul\":11344:11445   */\n      iszero\n      tag_314\n      jumpi\n        /* \"#utility.yul\":11433:11434   */\n      0x00\n        /* \"#utility.yul\":11424:11430   */\n      dup5\n        /* \"#utility.yul\":11419:11422   */\n      dup5\n        /* \"#utility.yul\":11415:11431   */\n      add\n        /* \"#utility.yul\":11408:11435   */\n      mstore\n        /* \"#utility.yul\":11344:11445   */\n    tag_314:\n        /* \"#utility.yul\":11193:11451   */\n      pop\n        /* \"#utility.yul\":11144:11451   */\n      pop\n      pop\n      pop\n      jump\t// out\n        /* \"#utility.yul\":11457:11777   */\n    tag_84:\n        /* \"#utility.yul\":11501:11507   */\n      0x00\n        /* \"#utility.yul\":11538:11539   */\n      0x02\n        /* \"#utility.yul\":11532:11536   */\n      dup3\n        /* \"#utility.yul\":11528:11540   */\n      div\n        /* \"#utility.yul\":11518:11540   */\n      swap1\n      pop\n        /* \"#utility.yul\":11585:11586   */\n      0x01\n        /* \"#utility.yul\":11579:11583   */\n      dup3\n        /* \"#utility.yul\":11575:11587   */\n      and\n        /* \"#utility.yul\":11606:11624   */\n      dup1\n        /* \"#utility.yul\":11596:11677   */\n      tag_316\n      jumpi\n        /* \"#utility.yul\":11662:11666   */\n      0x7f\n        /* \"#utility.yul\":11654:11660   */\n      dup3\n        /* \"#utility.yul\":11650:11667   */\n      and\n        /* \"#utility.yul\":11640:11667   */\n      swap2\n      pop\n        /* \"#utility.yul\":11596:11677   */\n    tag_316:\n        /* \"#utility.yul\":11724:11726   */\n      0x20\n        /* \"#utility.yul\":11716:11722   */\n      dup3\n        /* \"#utility.yul\":11713:11727   */\n      lt\n        /* \"#utility.yul\":11693:11711   */\n      dup2\n        /* \"#utility.yul\":11690:11728   */\n      eq\n        /* \"#utility.yul\":11687:11771   */\n      iszero\n      tag_317\n      jumpi\n        /* \"#utility.yul\":11743:11761   */\n      tag_318\n      tag_319\n      jump\t// in\n    tag_318:\n        /* \"#utility.yul\":11687:11771   */\n    tag_317:\n        /* \"#utility.yul\":11508:11777   */\n      pop\n        /* \"#utility.yul\":11457:11777   */\n      swap2\n      swap1\n      pop\n      jump\t// out\n        /* \"#utility.yul\":11783:12064   */\n    tag_320:\n        /* \"#utility.yul\":11866:11893   */\n      tag_322\n        /* \"#utility.yul\":11888:11892   */\n      dup3\n        /* \"#utility.yul\":11866:11893   */\n      tag_211\n      jump\t// in\n    tag_322:\n        /* \"#utility.yul\":11858:11864   */\n      dup2\n        /* \"#utility.yul\":11854:11894   */\n      add\n        /* \"#utility.yul\":11996:12002   */\n      dup2\n        /* \"#utility.yul\":11984:11994   */\n      dup2\n        /* \"#utility.yul\":11981:12003   */\n      lt\n        /* \"#utility.yul\":11960:11978   */\n      0xffffffffffffffff\n        /* \"#utility.yul\":11948:11958   */\n      dup3\n        /* \"#utility.yul\":11945:11979   */\n      gt\n        /* \"#utility.yul\":11942:12004   */\n      or\n        /* \"#utility.yul\":11939:12027   */\n      iszero\n      tag_323\n      jumpi\n        /* \"#utility.yul\":12007:12025   */\n      tag_324\n      tag_123\n      jump\t// in\n    tag_324:\n        /* \"#utility.yul\":11939:12027   */\n    tag_323:\n        /* \"#utility.yul\":12047:12057   */\n      dup1\n        /* \"#utility.yul\":12043:12045   */\n      0x40\n        /* \"#utility.yul\":12036:12058   */\n      mstore\n        /* \"#utility.yul\":11826:12064   */\n      pop\n        /* \"#utility.yul\":11783:12064   */\n      pop\n      pop\n      jump\t// out\n        /* \"#utility.yul\":12070:12303   */\n    tag_72:\n        /* \"#utility.yul\":12109:12112   */\n      0x00\n        /* \"#utility.yul\":12132:12156   */\n      tag_326\n        /* \"#utility.yul\":12150:12155   */\n      dup3\n        /* \"#utility.yul\":12132:12156   */\n      tag_248\n      jump\t// in\n    tag_326:\n        /* \"#utility.yul\":12123:12156   */\n      swap2\n      pop\n        /* \"#utility.yul\":12178:12244   */\n      0xffffffffffffffffffffffffffffffffffffffffffffffffffffffffffffffff\n        /* \"#utility.yul\":12171:12176   */\n      dup3\n        /* \"#utility.yul\":12168:12245   */\n      eq\n        /* \"#utility.yul\":12165:12268   */\n      iszero\n      tag_327\n      jumpi\n        /* \"#utility.yul\":12248:12266   */\n      tag_328\n      tag_299\n      jump\t// in\n    tag_328:\n        /* \"#utility.yul\":12165:12268   */\n    tag_327:\n        /* \"#utility.yul\":12295:12296   */\n      0x01\n        /* \"#utility.yul\":12288:12293   */\n      dup3\n        /* \"#utility.yul\":12284:12297   */\n      add\n        /* \"#utility.yul\":12277:12297   */\n      swap1\n      pop\n        /* \"#utility.yul\":12070:12303   */\n      swap2\n      swap1\n      pop\n      jump\t// out\n        /* \"#utility.yul\":12309:12409   */\n    tag_197:\n        /* \"#utility.yul\":12348:12355   */\n      0x00\n        /* \"#utility.yul\":12377:12403   */\n      tag_330\n        /* \"#utility.yul\":12397:12402   */\n      dup3\n        /* \"#utility.yul\":12377:12403   */\n      tag_331\n      jump\t// in\n    tag_330:\n        /* \"#utility.yul\":12366:12403   */\n      swap1\n      pop\n        /* \"#utility.yul\":12309:12409   */\n      swap2\n      swap1\n      pop\n      jump\t// out\n        /* \"#utility.yul\":12415:12509   */\n    tag_331:\n        /* \"#utility.yul\":12454:12461   */\n      0x00\n        /* \"#utility.yul\":12483:12503   */\n      tag_333\n        /* \"#utility.yul\":12497:12502   */\n      dup3\n        /* \"#utility.yul\":12483:12503   */\n      tag_334\n      jump\t// in\n    tag_333:\n        /* \"#utility.yul\":12472:12503   */\n      swap1\n      pop\n        /* \"#utility.yul\":12415:12509   */\n      swap2\n      swap1\n      pop\n      jump\t// out\n        /* \"#utility.yul\":12515:12594   */\n    tag_253:\n        /* \"#utility.yul\":12554:12561   */\n      0x00\n        /* \"#utility.yul\":12583:12588   */\n      dup2\n        /* \"#utility.yul\":12572:12588   */\n      swap1\n      pop\n        /* \"#utility.yul\":12515:12594   */\n      swap2\n      swap1\n      pop\n      jump\t// out\n        /* \"#utility.yul\":12600:12776   */\n    tag_103:\n        /* \"#utility.yul\":12632:12633   */\n      0x00\n        /* \"#utility.yul\":12649:12669   */\n      tag_337\n        /* \"#utility.yul\":12667:12668   */\n      dup3\n        /* \"#utility.yul\":12649:12669   */\n      tag_248\n      jump\t// in\n    tag_337:\n        /* \"#utility.yul\":12644:12669   */\n      swap2\n      pop\n        /* \"#utility.yul\":12683:12703   */\n      tag_338\n        /* \"#utility.yul\":12701:12702   */\n      dup4\n        /* \"#utility.yul\":12683:12703   */\n      tag_248\n      jump\t// in\n    tag_338:\n        /* \"#utility.yul\":12678:12703   */\n      swap3\n      pop\n        /* \"#utility.yul\":12722:12723   */\n      dup3\n        /* \"#utility.yul\":12712:12747   */\n      tag_339\n      jumpi\n        /* \"#utility.yul\":12727:12745   */\n      tag_340\n      tag_341\n      jump\t// in\n    tag_340:\n        /* \"#utility.yul\":12712:12747   */\n    tag_339:\n        /* \"#utility.yul\":12768:12769   */\n      dup3\n        /* \"#utility.yul\":12765:12766   */\n      dup3\n        /* \"#utility.yul\":12761:12770   */\n      mod\n        /* \"#utility.yul\":12756:12770   */\n      swap1\n      pop\n        /* \"#utility.yul\":12600:12776   */\n      swap3\n      swap2\n      pop\n      pop\n      jump\t// out\n        /* \"#utility.yul\":12782:12962   */\n    tag_299:\n        /* \"#utility.yul\":12830:12907   */\n      0x4e487b7100000000000000000000000000000000000000000000000000000000\n        /* \"#utility.yul\":12827:12828   */\n      0x00\n        /* \"#utility.yul\":12820:12908   */\n      mstore\n        /* \"#utility.yul\":12927:12931   */\n      0x11\n        /* \"#utility.yul\":12924:12925   */\n      0x04\n        /* \"#utility.yul\":12917:12932   */\n      mstore\n        /* \"#utility.yul\":12951:12955   */\n      0x24\n        /* \"#utility.yul\":12948:12949   */\n      0x00\n        /* \"#utility.yul\":12941:12956   */\n      revert\n        /* \"#utility.yul\":12968:13148   */\n    tag_341:\n        /* \"#utility.yul\":13016:13093   */\n      0x4e487b7100000000000000000000000000000000000000000000000000000000\n        /* \"#utility.yul\":13013:13014   */\n      0x00\n        /* \"#utility.yul\":13006:13094   */\n      mstore\n        /* \"#utility.yul\":13113:13117   */\n      0x12\n        /* \"#utility.yul\":13110:13111   */\n      0x04\n        /* \"#utility.yul\":13103:13118   */\n      mstore\n        /* \"#utility.yul\":13137:13141   */\n      0x24\n        /* \"#utility.yul\":13134:13135   */\n      0x00\n        /* \"#utility.yul\":13127:13142   */\n      revert\n        /* \"#utility.yul\":13154:13334   */\n    tag_319:\n        /* \"#utility.yul\":13202:13279   */\n      0x4e487b7100000000000000000000000000000000000000000000000000000000\n        /* \"#utility.yul\":13199:13200   */\n      0x00\n        /* \"#utility.yul\":13192:13280   */\n      mstore\n        /* \"#utility.yul\":13299:13303   */\n      0x22\n        /* \"#utility.yul\":13296:13297   */\n      0x04\n        /* \"#utility.yul\":13289:13304   */\n      mstore\n        /* \"#utility.yul\":13323:13327   */\n      0x24\n        /* \"#utility.yul\":13320:13321   */\n      0x00\n        /* \"#utility.yul\":13313:13328   */\n      revert\n        /* \"#utility.yul\":13340:13520   */\n    tag_127:\n        /* \"#utility.yul\":13388:13465   */\n      0x4e487b7100000000000000000000000000000000000000000000000000000000\n        /* \"#utility.yul\":13385:13386   */\n      0x00\n        /* \"#utility.yul\":13378:13466   */\n      mstore\n        /* \"#utility.yul\":13485:13489   */\n      0x32\n        /* \"#utility.yul\":13482:13483   */\n      0x04\n        /* \"#utility.yul\":13475:13490   */\n      mstore\n        /* \"#utility.yul\":13509:13513   */\n      0x24\n        /* \"#utility.yul\":13506:13507   */\n      0x00\n        /* \"#utility.yul\":13499:13514   */\n      revert\n        /* \"#utility.yul\":13526:13706   */\n    tag_123:\n        /* \"#utility.yul\":13574:13651   */\n      0x4e487b7100000000000000000000000000000000000000000000000000000000\n        /* \"#utility.yul\":13571:13572   */\n      0x00\n        /* \"#utility.yul\":13564:13652   */\n      mstore\n        /* \"#utility.yul\":13671:13675   */\n      0x41\n        /* \"#utility.yul\":13668:13669   */\n      0x04\n        /* \"#utility.yul\":13661:13676   */\n      mstore\n        /* \"#utility.yul\":13695:13699   */\n      0x24\n        /* \"#utility.yul\":13692:13693   */\n      0x00\n        /* \"#utility.yul\":13685:13700   */\n      revert\n        /* \"#utility.yul\":13712:13895   */\n    tag_144:\n        /* \"#utility.yul\":13747:13750   */\n      0x00\n        /* \"#utility.yul\":13785:13786   */\n      0x03\n        /* \"#utility.yul\":13767:13783   */\n      returndatasize\n        /* \"#utility.yul\":13764:13787   */\n      gt\n        /* \"#utility.yul\":13761:13889   */\n      iszero\n      tag_348\n      jumpi\n        /* \"#utility.yul\":13823:13824   */\n      0x04\n        /* \"#utility.yul\":13820:13821   */\n      0x00\n        /* \"#utility.yul\":13817:13818   */\n      dup1\n        /* \"#utility.yul\":13802:13825   */\n      returndatacopy\n        /* \"#utility.yul\":13845:13879   */\n      tag_349\n        /* \"#utility.yul\":13876:13877   */\n      0x00\n        /* \"#utility.yul\":13870:13878   */\n      mload\n        /* \"#utility.yul\":13845:13879   */\n      tag_350\n      jump\t// in\n    tag_349:\n        /* \"#utility.yul\":13838:13879   */\n      swap1\n      pop\n        /* \"#utility.yul\":13761:13889   */\n    tag_348:\n        /* \"#utility.yul\":13712:13895   */\n      swap1\n      jump\t// out\n        /* \"#utility.yul\":14024:14141   */\n    tag_179:\n        /* \"#utility.yul\":14133:14134   */\n      0x00\n        /* \"#utility.yul\":14130:14131   */\n      dup1\n        /* \"#utility.yul\":14123:14135   */\n      revert\n        /* \"#utility.yul\":14147:14249   */\n    tag_211:\n        /* \"#utility.yul\":14188:14194   */\n      0x00\n        /* \"#utility.yul\":14239:14241   */\n      0x1f\n        /* \"#utility.yul\":14235:14242   */\n      not\n        /* \"#utility.yul\":14230:14232   */\n      0x1f\n        /* \"#utility.yul\":14223:14228   */\n      dup4\n        /* \"#utility.yul\":14219:14233   */\n      add\n        /* \"#utility.yul\":14215:14243   */\n      and\n        /* \"#utility.yul\":14205:14243   */\n      swap1\n      pop\n        /* \"#utility.yul\":14147:14249   */\n      swap2\n      swap1\n      pop\n      jump\t// out\n        /* \"#utility.yul\":14255:14349   */\n    tag_334:\n        /* \"#utility.yul\":14288:14296   */\n      0x00\n        /* \"#utility.yul\":14336:14341   */\n      dup2\n        /* \"#utility.yul\":14332:14334   */\n      0x60\n        /* \"#utility.yul\":14328:14342   */\n      shl\n        /* \"#utility.yul\":14307:14342   */\n      swap1\n      pop\n        /* \"#utility.yul\":14255:14349   */\n      swap2\n      swap1\n      pop\n      jump\t// out\n        /* \"#utility.yul\":14355:14461   */\n    tag_350:\n        /* \"#utility.yul\":14399:14407   */\n      0x00\n        /* \"#utility.yul\":14448:14453   */\n      dup2\n        /* \"#utility.yul\":14443:14446   */\n      0xe0\n        /* \"#utility.yul\":14439:14454   */\n      shr\n        /* \"#utility.yul\":14418:14454   */\n      swap1\n      pop\n        /* \"#utility.yul\":14355:14461   */\n      swap2\n      swap1\n      pop\n      jump\t// out\n        /* \"#utility.yul\":14467:14706   */\n    tag_224:\n        /* \"#utility.yul\":14607:14641   */\n      0x455243313135353a207472616e7366657220746f206e6f6e2045524331313535\n        /* \"#utility.yul\":14603:14604   */\n      0x00\n        /* \"#utility.yul\":14595:14601   */\n      dup3\n        /* \"#utility.yul\":14591:14605   */\n      add\n        /* \"#utility.yul\":14584:14642   */\n      mstore\n        /* \"#utility.yul\":14676:14698   */\n      0x526563656976657220696d706c656d656e746572000000000000000000000000\n        /* \"#utility.yul\":14671:14673   */\n      0x20\n        /* \"#utility.yul\":14663:14669   */\n      dup3\n        /* \"#utility.yul\":14659:14674   */\n      add\n        /* \"#utility.yul\":14652:14699   */\n      mstore\n        /* \"#utility.yul\":14467:14706   */\n      pop\n      jump\t// out\n        /* \"#utility.yul\":14712:14939   */\n    tag_229:\n        /* \"#utility.yul\":14852:14886   */\n      0x455243313135353a204552433131353552656365697665722072656a65637465\n        /* \"#utility.yul\":14848:14849   */\n      0x00\n        /* \"#utility.yul\":14840:14846   */\n      dup3\n        /* \"#utility.yul\":14836:14850   */\n      add\n        /* \"#utility.yul\":14829:14887   */\n      mstore\n        /* \"#utility.yul\":14921:14931   */\n      0x6420746f6b656e73000000000000000000000000000000000000000000000000\n        /* \"#utility.yul\":14916:14918   */\n      0x20\n        /* \"#utility.yul\":14908:14914   */\n      dup3\n        /* \"#utility.yul\":14904:14919   */\n      add\n        /* \"#utility.yul\":14897:14932   */\n      mstore\n        /* \"#utility.yul\":14712:14939   */\n      pop\n      jump\t// out\n        /* \"#utility.yul\":14945:15119   */\n    tag_234:\n        /* \"#utility.yul\":15085:15111   */\n      0x4f6e79784e6674204f776e65722063616e204163636573730000000000000000\n        /* \"#utility.yul\":15081:15082   */\n      0x00\n        /* \"#utility.yul\":15073:15079   */\n      dup3\n        /* \"#utility.yul\":15069:15083   */\n      add\n        /* \"#utility.yul\":15062:15112   */\n      mstore\n        /* \"#utility.yul\":14945:15119   */\n      pop\n      jump\t// out\n        /* \"#utility.yul\":15125:15293   */\n    tag_239:\n        /* \"#utility.yul\":15265:15285   */\n      0x436f6e7472616374206973205061757365640000000000000000000000000000\n        /* \"#utility.yul\":15261:15262   */\n      0x00\n        /* \"#utility.yul\":15253:15259   */\n      dup3\n        /* \"#utility.yul\":15249:15263   */\n      add\n        /* \"#utility.yul\":15242:15286   */\n      mstore\n        /* \"#utility.yul\":15125:15293   */\n      pop\n      jump\t// out\n        /* \"#utility.yul\":15299:15519   */\n    tag_244:\n        /* \"#utility.yul\":15439:15473   */\n      0x455243313135353a206d696e7420746f20746865207a65726f20616464726573\n        /* \"#utility.yul\":15435:15436   */\n      0x00\n        /* \"#utility.yul\":15427:15433   */\n      dup3\n        /* \"#utility.yul\":15423:15437   */\n      add\n        /* \"#utility.yul\":15416:15474   */\n      mstore\n        /* \"#utility.yul\":15508:15511   */\n      0x7300000000000000000000000000000000000000000000000000000000000000\n        /* \"#utility.yul\":15503:15505   */\n      0x20\n        /* \"#utility.yul\":15495:15501   */\n      dup3\n        /* \"#utility.yul\":15491:15506   */\n      add\n        /* \"#utility.yul\":15484:15512   */\n      mstore\n        /* \"#utility.yul\":15299:15519   */\n      pop\n      jump\t// out\n        /* \"#utility.yul\":15525:16236   */\n    tag_146:\n        /* \"#utility.yul\":15564:15567   */\n      0x00\n        /* \"#utility.yul\":15602:15606   */\n      0x44\n        /* \"#utility.yul\":15584:15600   */\n      returndatasize\n        /* \"#utility.yul\":15581:15607   */\n      lt\n        /* \"#utility.yul\":15578:15617   */\n      iszero\n      tag_363\n      jumpi\n        /* \"#utility.yul\":15610:15615   */\n      jump(tag_362)\n        /* \"#utility.yul\":15578:15617   */\n    tag_363:\n        /* \"#utility.yul\":15639:15659   */\n      tag_364\n      tag_288\n      jump\t// in\n    tag_364:\n        /* \"#utility.yul\":15714:15715   */\n      0x04\n        /* \"#utility.yul\":15696:15712   */\n      returndatasize\n        /* \"#utility.yul\":15692:15716   */\n      sub\n        /* \"#utility.yul\":15689:15690   */\n      0x04\n        /* \"#utility.yul\":15683:15687   */\n      dup3\n        /* \"#utility.yul\":15668:15717   */\n      returndatacopy\n        /* \"#utility.yul\":15747:15751   */\n      dup1\n        /* \"#utility.yul\":15741:15752   */\n      mload\n        /* \"#utility.yul\":15846:15862   */\n      returndatasize\n        /* \"#utility.yul\":15839:15843   */\n      0x24\n        /* \"#utility.yul\":15831:15837   */\n      dup3\n        /* \"#utility.yul\":15827:15844   */\n      add\n        /* \"#utility.yul\":15824:15863   */\n      gt\n        /* \"#utility.yul\":15791:15809   */\n      0xffffffffffffffff\n        /* \"#utility.yul\":15783:15789   */\n      dup3\n        /* \"#utility.yul\":15780:15810   */\n      gt\n        /* \"#utility.yul\":15764:15877   */\n      or\n        /* \"#utility.yul\":15761:15907   */\n      iszero\n      tag_365\n      jumpi\n        /* \"#utility.yul\":15892:15897   */\n      pop\n      pop\n      jump(tag_362)\n        /* \"#utility.yul\":15761:15907   */\n    tag_365:\n        /* \"#utility.yul\":15938:15944   */\n      dup1\n        /* \"#utility.yul\":15932:15936   */\n      dup3\n        /* \"#utility.yul\":15928:15945   */\n      add\n        /* \"#utility.yul\":15974:15977   */\n      dup1\n        /* \"#utility.yul\":15968:15978   */\n      mload\n        /* \"#utility.yul\":16001:16019   */\n      0xffffffffffffffff\n        /* \"#utility.yul\":15993:15999   */\n      dup2\n        /* \"#utility.yul\":15990:16020   */\n      gt\n        /* \"#utility.yul\":15987:16030   */\n      iszero\n      tag_366\n      jumpi\n        /* \"#utility.yul\":16023:16028   */\n      pop\n      pop\n      pop\n      pop\n      jump(tag_362)\n        /* \"#utility.yul\":15987:16030   */\n    tag_366:\n        /* \"#utility.yul\":16071:16077   */\n      dup1\n        /* \"#utility.yul\":16064:16068   */\n      0x20\n        /* \"#utility.yul\":16059:16062   */\n      dup4\n        /* \"#utility.yul\":16055:16069   */\n      add\n        /* \"#utility.yul\":16051:16078   */\n      add\n        /* \"#utility.yul\":16130:16131   */\n      0x04\n        /* \"#utility.yul\":16112:16128   */\n      returndatasize\n        /* \"#utility.yul\":16108:16132   */\n      sub\n        /* \"#utility.yul\":16102:16106   */\n      dup6\n        /* \"#utility.yul\":16098:16133   */\n      add\n        /* \"#utility.yul\":16093:16096   */\n      dup2\n        /* \"#utility.yul\":16090:16134   */\n      gt\n        /* \"#utility.yul\":16087:16144   */\n      iszero\n      tag_367\n      jumpi\n        /* \"#utility.yul\":16137:16142   */\n      pop\n      pop\n      pop\n      pop\n      pop\n      jump(tag_362)\n        /* \"#utility.yul\":16087:16144   */\n    tag_367:\n        /* \"#utility.yul\":16154:16211   */\n      tag_368\n        /* \"#utility.yul\":16202:16208   */\n      dup3\n        /* \"#utility.yul\":16196:16200   */\n      0x20\n        /* \"#utility.yul\":16192:16209   */\n      add\n        /* \"#utility.yul\":16184:16190   */\n      dup6\n        /* \"#utility.yul\":16180:16210   */\n      add\n        /* \"#utility.yul\":16174:16178   */\n      dup7\n        /* \"#utility.yul\":16154:16211   */\n      tag_320\n      jump\t// in\n    tag_368:\n        /* \"#utility.yul\":16227:16230   */\n      dup3\n        /* \"#utility.yul\":16220:16230   */\n      swap6\n      pop\n        /* \"#utility.yul\":15568:16236   */\n      pop\n      pop\n      pop\n      pop\n      pop\n        /* \"#utility.yul\":15525:16236   */\n    tag_362:\n      swap1\n      jump\t// out\n        /* \"#utility.yul\":16242:16364   */\n    tag_171:\n        /* \"#utility.yul\":16315:16339   */\n      tag_370\n        /* \"#utility.yul\":16333:16338   */\n      dup2\n        /* \"#utility.yul\":16315:16339   */\n      tag_192\n      jump\t// in\n    tag_370:\n        /* \"#utility.yul\":16308:16313   */\n      dup2\n        /* \"#utility.yul\":16305:16340   */\n      eq\n        /* \"#utility.yul\":16295:16358   */\n      tag_371\n      jumpi\n        /* \"#utility.yul\":16354:16355   */\n      0x00\n        /* \"#utility.yul\":16351:16352   */\n      dup1\n        /* \"#utility.yul\":16344:16356   */\n      revert\n        /* \"#utility.yul\":16295:16358   */\n    tag_371:\n        /* \"#utility.yul\":16242:16364   */\n      pop\n      jump\t// out\n        /* \"#utility.yul\":16370:16490   */\n    tag_175:\n        /* \"#utility.yul\":16442:16465   */\n      tag_373\n        /* \"#utility.yul\":16459:16464   */\n      dup2\n        /* \"#utility.yul\":16442:16465   */\n      tag_306\n      jump\t// in\n    tag_373:\n        /* \"#utility.yul\":16435:16440   */\n      dup2\n        /* \"#utility.yul\":16432:16466   */\n      eq\n        /* \"#utility.yul\":16422:16484   */\n      tag_374\n      jumpi\n        /* \"#utility.yul\":16480:16481   */\n      0x00\n        /* \"#utility.yul\":16477:16478   */\n      dup1\n        /* \"#utility.yul\":16470:16482   */\n      revert\n        /* \"#utility.yul\":16422:16484   */\n    tag_374:\n        /* \"#utility.yul\":16370:16490   */\n      pop\n      jump\t// out\n\n    auxdata: 0xa2646970667358221220d663b2c559fe779d3275054ae7631699ee9268ee648dd8731e197b5887e8afda64736f6c63430008070033\n}\n",
				"bytecode": {
					"linkReferences": {},
					"object": "608060405260405180602001604052806000815250600290805190602001906200002b92919062000103565b506001600b60006101000a81548160ff0219169083151502179055503480156200005457600080fd5b5060405162001b0f38038062001b0f83398181016040528101906200007a9190620002c2565b80600c90805190602001906200009292919062000194565b5033600b60016101000a81548173ffffffffffffffffffffffffffffffffffffffff021916908373ffffffffffffffffffffffffffffffffffffffff160217905550600060038190555060016004819055506000600581905550600060068190555060006007819055505062000497565b8280546200011190620003a8565b90600052602060002090601f01602090048101928262000135576000855562000181565b82601f106200015057805160ff191683800117855562000181565b8280016001018555821562000181579182015b828111156200018057825182559160200191906001019062000163565b5b50905062000190919062000225565b5090565b828054620001a290620003a8565b90600052602060002090601f016020900481019282620001c6576000855562000212565b82601f10620001e157805160ff191683800117855562000212565b8280016001018555821562000212579182015b8281111562000211578251825591602001919060010190620001f4565b5b50905062000221919062000225565b5090565b5b808211156200024057600081600090555060010162000226565b5090565b60006200025b62000255846200033c565b62000313565b9050828152602081018484840111156200027a576200027962000477565b5b6200028784828562000372565b509392505050565b600082601f830112620002a757620002a662000472565b5b8151620002b984826020860162000244565b91505092915050565b600060208284031215620002db57620002da62000481565b5b600082015167ffffffffffffffff811115620002fc57620002fb6200047c565b5b6200030a848285016200028f565b91505092915050565b60006200031f62000332565b90506200032d8282620003de565b919050565b6000604051905090565b600067ffffffffffffffff8211156200035a576200035962000443565b5b620003658262000486565b9050602081019050919050565b60005b838110156200039257808201518184015260208101905062000375565b83811115620003a2576000848401525b50505050565b60006002820490506001821680620003c157607f821691505b60208210811415620003d857620003d762000414565b5b50919050565b620003e98262000486565b810181811067ffffffffffffffff821117156200040b576200040a62000443565b5b80604052505050565b7f4e487b7100000000000000000000000000000000000000000000000000000000600052602260045260246000fd5b7f4e487b7100000000000000000000000000000000000000000000000000000000600052604160045260246000fd5b600080fd5b600080fd5b600080fd5b600080fd5b6000601f19601f8301169050919050565b61166880620004a76000396000f3fe608060405234801561001057600080fd5b50600436106100885760003560e01c80637e1eaabf1161005b5780637e1eaabf146100dd578063b4a99a4e146100fb578063c63bc45614610119578063d4c892c41461013957610088565b80631309a5631461008d578063322f0ece146100ab5780635a8bc1a9146100c957806367818243146100d3575b600080fd5b610095610169565b6040516100a29190610f3e565b60405180910390f35b6100b361017c565b6040516100c0919061101b565b60405180910390f35b6100d1610182565b005b6100db610236565b005b6100e5610327565b6040516100f2919061101b565b60405180910390f35b61010361069f565b6040516101109190610ec9565b60405180910390f35b6101216106c5565b6040516101309392919061105f565b60405180910390f35b610153600480360381019061014e9190610cb8565b610775565b604051610160919061101b565b60405180910390f35b600b60009054906101000a900460ff1681565b60035481565b600b60019054906101000a900473ffffffffffffffffffffffffffffffffffffffff1673ffffffffffffffffffffffffffffffffffffffff166101c361078d565b73ffffffffffffffffffffffffffffffffffffffff1614610219576040517f08c379a000000000000000000000000000000000000000000000000000000000815260040161021090610fbb565b60405180910390fd5b6001600b60006101000a81548160ff021916908315150217905550565b600b60019054906101000a900473ffffffffffffffffffffffffffffffffffffffff1673ffffffffffffffffffffffffffffffffffffffff1661027761078d565b73ffffffffffffffffffffffffffffffffffffffff16146102cd576040517f08c379a00000000000000000000000000000000000000000000000000000000081526004016102c490610fbb565b60405180910390fd5b60011515600b60009054906101000a900460ff1615151415610309576000600b60006101000a81548160ff021916908315150217905550610325565b6001600b60006101000a81548160ff0219169083151502179055505b565b6000801515600b60009054906101000a900460ff1615151461037e576040517f08c379a000000000000000000000000000000000000000000000000000000000815260040161037590610fdb565b60405180910390fd5b6000610388610795565b905060966005541115801561039d5750600081145b806103b8575061015e600654111580156103b75750600181145b5b806103d357506101f4600754111580156103d25750600281145b5b15610537576103e0610795565b90506000811415610454576040518060400160405280600881526020017f506c6174696e756d00000000000000000000000000000000000000000000000081525060029080519060200190610436929190610beb565b506005600081548092919061044a9061124a565b9190505550610536565b60018114156104c6576040518060400160405280600481526020017f476f6c6400000000000000000000000000000000000000000000000000000000815250600290805190602001906104a8929190610beb565b50600660008154809291906104bc9061124a565b9190505550610535565b6002811415610534576040518060400160405280600681526020017f53696c76657200000000000000000000000000000000000000000000000000008152506002908051906020019061051a929190610beb565b506007600081548092919061052e9061124a565b91905055505b5b5b5b6105d661054261078d565b8260045460028054610553906111e7565b80601f016020809104026020016040519081016040528092919081815260200182805461057f906111e7565b80156105cc5780601f106105a1576101008083540402835291602001916105cc565b820191906000526020600020905b8154815290600101906020018083116105af57829003601f168201915b50505050506107d9565b6001600960006105e461078d565b73ffffffffffffffffffffffffffffffffffffffff1673ffffffffffffffffffffffffffffffffffffffff16815260200190815260200160002060006101000a81548160ff021916908315150217905550600360008154809291906106489061124a565b9190505550806008600061065a61078d565b73ffffffffffffffffffffffffffffffffffffffff1673ffffffffffffffffffffffffffffffffffffffff168152602001908152602001600020819055508091505090565b600b60019054906101000a900473ffffffffffffffffffffffffffffffffffffffff1681565b6000806000600b60019054906101000a900473ffffffffffffffffffffffffffffffffffffffff1673ffffffffffffffffffffffffffffffffffffffff1661070b61078d565b73ffffffffffffffffffffffffffffffffffffffff1614610761576040517f08c379a000000000000000000000000000000000000000000000000000000000815260040161075890610fbb565b60405180910390fd5b600554600654600754925092509250909192565b60086020528060005260406000206000915090505481565b600033905090565b600080600342336040516020016107ad929190610e9d565b6040516020818303038152906040528051906020012060001c6107d091906112c1565b90508091505090565b600073ffffffffffffffffffffffffffffffffffffffff168473ffffffffffffffffffffffffffffffffffffffff161415610849576040517f08c379a000000000000000000000000000000000000000000000000000000000815260040161084090610ffb565b60405180910390fd5b600061085361078d565b9050610874816000876108658861096f565b61086e8861096f565b876109e9565b8260008086815260200190815260200160002060008773ffffffffffffffffffffffffffffffffffffffff1673ffffffffffffffffffffffffffffffffffffffff16815260200190815260200160002060008282546108d391906110d8565b925050819055508473ffffffffffffffffffffffffffffffffffffffff16600073ffffffffffffffffffffffffffffffffffffffff168273ffffffffffffffffffffffffffffffffffffffff167fc3d58168c5ae7397731d063d5bbf3d657854427343f4c083240f7aacaa2d0f628787604051610951929190611036565b60405180910390a4610968816000878787876109f1565b5050505050565b60606000600167ffffffffffffffff81111561098e5761098d6113ae565b5b6040519080825280602002602001820160405280156109bc5781602001602082028036833780820191505090505b50905082816000815181106109d4576109d361137f565b5b60200260200101818152505080915050919050565b505050505050565b610a108473ffffffffffffffffffffffffffffffffffffffff16610bd8565b15610bd0578373ffffffffffffffffffffffffffffffffffffffff1663f23a6e6187878686866040518663ffffffff1660e01b8152600401610a56959493929190610ee4565b602060405180830381600087803b158015610a7057600080fd5b505af1925050508015610aa157506040513d601f19601f82011682018060405250810190610a9e9190610ce5565b60015b610b4757610aad6113dd565b806308c379a01415610b0a5750610ac261156e565b80610acd5750610b0c565b806040517f08c379a0000000000000000000000000000000000000000000000000000000008152600401610b019190610f59565b60405180910390fd5b505b6040517f08c379a0000000000000000000000000000000000000000000000000000000008152600401610b3e90610f7b565b60405180910390fd5b63f23a6e6160e01b7bffffffffffffffffffffffffffffffffffffffffffffffffffffffff1916817bffffffffffffffffffffffffffffffffffffffffffffffffffffffff191614610bce576040517f08c379a0000000000000000000000000000000000000000000000000000000008152600401610bc590610f9b565b60405180910390fd5b505b505050505050565b600080823b905060008111915050919050565b828054610bf7906111e7565b90600052602060002090601f016020900481019282610c195760008555610c60565b82601f10610c3257805160ff1916838001178555610c60565b82800160010185558215610c60579182015b82811115610c5f578251825591602001919060010190610c44565b5b509050610c6d9190610c71565b5090565b5b80821115610c8a576000816000905550600101610c72565b5090565b600081359050610c9d81611604565b92915050565b600081519050610cb28161161b565b92915050565b600060208284031215610cce57610ccd6113ff565b5b6000610cdc84828501610c8e565b91505092915050565b600060208284031215610cfb57610cfa6113ff565b5b6000610d0984828501610ca3565b91505092915050565b610d1b81611140565b82525050565b610d2a8161112e565b82525050565b610d41610d3c8261112e565b611293565b82525050565b610d5081611152565b82525050565b6000610d61826110a0565b610d6b81856110b6565b9350610d7b8185602086016111b4565b610d8481611404565b840191505092915050565b6000610d9a826110ab565b610da481856110c7565b9350610db48185602086016111b4565b610dbd81611404565b840191505092915050565b6000610dd56034836110c7565b9150610de08261142f565b604082019050919050565b6000610df86028836110c7565b9150610e038261147e565b604082019050919050565b6000610e1b6018836110c7565b9150610e26826114cd565b602082019050919050565b6000610e3e6012836110c7565b9150610e49826114f6565b602082019050919050565b6000610e616021836110c7565b9150610e6c8261151f565b604082019050919050565b610e80816111aa565b82525050565b610e97610e92826111aa565b6112b7565b82525050565b6000610ea98285610e86565b602082019150610eb98284610d30565b6014820191508190509392505050565b6000602082019050610ede6000830184610d12565b92915050565b600060a082019050610ef96000830188610d21565b610f066020830187610d21565b610f136040830186610e77565b610f206060830185610e77565b8181036080830152610f328184610d56565b90509695505050505050565b6000602082019050610f536000830184610d47565b92915050565b60006020820190508181036000830152610f738184610d8f565b905092915050565b60006020820190508181036000830152610f9481610dc8565b9050919050565b60006020820190508181036000830152610fb481610deb565b9050919050565b60006020820190508181036000830152610fd481610e0e565b9050919050565b60006020820190508181036000830152610ff481610e31565b9050919050565b6000602082019050818103600083015261101481610e54565b9050919050565b60006020820190506110306000830184610e77565b92915050565b600060408201905061104b6000830185610e77565b6110586020830184610e77565b9392505050565b60006060820190506110746000830186610e77565b6110816020830185610e77565b61108e6040830184610e77565b949350505050565b6000604051905090565b600081519050919050565b600081519050919050565b600082825260208201905092915050565b600082825260208201905092915050565b60006110e3826111aa565b91506110ee836111aa565b9250827fffffffffffffffffffffffffffffffffffffffffffffffffffffffffffffffff03821115611123576111226112f2565b5b828201905092915050565b60006111398261118a565b9050919050565b600061114b8261118a565b9050919050565b60008115159050919050565b60007fffffffff0000000000000000000000000000000000000000000000000000000082169050919050565b600073ffffffffffffffffffffffffffffffffffffffff82169050919050565b6000819050919050565b60005b838110156111d25780820151818401526020810190506111b7565b838111156111e1576000848401525b50505050565b600060028204905060018216806111ff57607f821691505b6020821081141561121357611212611350565b5b50919050565b61122282611404565b810181811067ffffffffffffffff82111715611241576112406113ae565b5b80604052505050565b6000611255826111aa565b91507fffffffffffffffffffffffffffffffffffffffffffffffffffffffffffffffff821415611288576112876112f2565b5b600182019050919050565b600061129e826112a5565b9050919050565b60006112b082611415565b9050919050565b6000819050919050565b60006112cc826111aa565b91506112d7836111aa565b9250826112e7576112e6611321565b5b828206905092915050565b7f4e487b7100000000000000000000000000000000000000000000000000000000600052601160045260246000fd5b7f4e487b7100000000000000000000000000000000000000000000000000000000600052601260045260246000fd5b7f4e487b7100000000000000000000000000000000000000000000000000000000600052602260045260246000fd5b7f4e487b7100000000000000000000000000000000000000000000000000000000600052603260045260246000fd5b7f4e487b7100000000000000000000000000000000000000000000000000000000600052604160045260246000fd5b600060033d11156113fc5760046000803e6113f9600051611422565b90505b90565b600080fd5b6000601f19601f8301169050919050565b60008160601b9050919050565b60008160e01c9050919050565b7f455243313135353a207472616e7366657220746f206e6f6e204552433131353560008201527f526563656976657220696d706c656d656e746572000000000000000000000000602082015250565b7f455243313135353a204552433131353552656365697665722072656a6563746560008201527f6420746f6b656e73000000000000000000000000000000000000000000000000602082015250565b7f4f6e79784e6674204f776e65722063616e204163636573730000000000000000600082015250565b7f436f6e7472616374206973205061757365640000000000000000000000000000600082015250565b7f455243313135353a206d696e7420746f20746865207a65726f2061646472657360008201527f7300000000000000000000000000000000000000000000000000000000000000602082015250565b600060443d101561157e57611601565b611586611096565b60043d036004823e80513d602482011167ffffffffffffffff821117156115ae575050611601565b808201805167ffffffffffffffff8111156115cc5750505050611601565b80602083010160043d0385018111156115e9575050505050611601565b6115f882602001850186611219565b82955050505050505b90565b61160d8161112e565b811461161857600080fd5b50565b6116248161115e565b811461162f57600080fd5b5056fea2646970667358221220d663b2c559fe779d3275054ae7631699ee9268ee648dd8731e197b5887e8afda64736f6c63430008070033",
					"opcodes": "PUSH1 0x80 PUSH1 0x40 MSTORE PUSH1 0x40 MLOAD DUP1 PUSH1 0x20 ADD PUSH1 0x40 MSTORE DUP1 PUSH1 0x0 DUP2 MSTORE POP PUSH1 0x2 SWAP1 DUP1 MLOAD SWAP1 PUSH1 0x20 ADD SWAP1 PUSH3 0x2B SWAP3 SWAP2 SWAP1 PUSH3 0x103 JUMP JUMPDEST POP PUSH1 0x1 PUSH1 0xB PUSH1 0x0 PUSH2 0x100 EXP DUP2 SLOAD DUP2 PUSH1 0xFF MUL NOT AND SWAP1 DUP4 ISZERO ISZERO MUL OR SWAP1 SSTORE POP CALLVALUE DUP1 ISZERO PUSH3 0x54 JUMPI PUSH1 0x0 DUP1 REVERT JUMPDEST POP PUSH1 0x40 MLOAD PUSH3 0x1B0F CODESIZE SUB DUP1 PUSH3 0x1B0F DUP4 CODECOPY DUP2 DUP2 ADD PUSH1 0x40 MSTORE DUP2 ADD SWAP1 PUSH3 0x7A SWAP2 SWAP1 PUSH3 0x2C2 JUMP JUMPDEST DUP1 PUSH1 0xC SWAP1 DUP1 MLOAD SWAP1 PUSH1 0x20 ADD SWAP1 PUSH3 0x92 SWAP3 SWAP2 SWAP1 PUSH3 0x194 JUMP JUMPDEST POP CALLER PUSH1 0xB PUSH1 0x1 PUSH2 0x100 EXP DUP2 SLOAD DUP2 PUSH20 0xFFFFFFFFFFFFFFFFFFFFFFFFFFFFFFFFFFFFFFFF MUL NOT AND SWAP1 DUP4 PUSH20 0xFFFFFFFFFFFFFFFFFFFFFFFFFFFFFFFFFFFFFFFF AND MUL OR SWAP1 SSTORE POP PUSH1 0x0 PUSH1 0x3 DUP2 SWAP1 SSTORE POP PUSH1 0x1 PUSH1 0x4 DUP2 SWAP1 SSTORE POP PUSH1 0x0 PUSH1 0x5 DUP2 SWAP1 SSTORE POP PUSH1 0x0 PUSH1 0x6 DUP2 SWAP1 SSTORE POP PUSH1 0x0 PUSH1 0x7 DUP2 SWAP1 SSTORE POP POP PUSH3 0x497 JUMP JUMPDEST DUP3 DUP1 SLOAD PUSH3 0x111 SWAP1 PUSH3 0x3A8 JUMP JUMPDEST SWAP1 PUSH1 0x0 MSTORE PUSH1 0x20 PUSH1 0x0 KECCAK256 SWAP1 PUSH1 0x1F ADD PUSH1 0x20 SWAP1 DIV DUP2 ADD SWAP3 DUP3 PUSH3 0x135 JUMPI PUSH1 0x0 DUP6 SSTORE PUSH3 0x181 JUMP JUMPDEST DUP3 PUSH1 0x1F LT PUSH3 0x150 JUMPI DUP1 MLOAD PUSH1 0xFF NOT AND DUP4 DUP1 ADD OR DUP6 SSTORE PUSH3 0x181 JUMP JUMPDEST DUP3 DUP1 ADD PUSH1 0x1 ADD DUP6 SSTORE DUP3 ISZERO PUSH3 0x181 JUMPI SWAP2 DUP3 ADD JUMPDEST DUP3 DUP2 GT ISZERO PUSH3 0x180 JUMPI DUP3 MLOAD DUP3 SSTORE SWAP2 PUSH1 0x20 ADD SWAP2 SWAP1 PUSH1 0x1 ADD SWAP1 PUSH3 0x163 JUMP JUMPDEST JUMPDEST POP SWAP1 POP PUSH3 0x190 SWAP2 SWAP1 PUSH3 0x225 JUMP JUMPDEST POP SWAP1 JUMP JUMPDEST DUP3 DUP1 SLOAD PUSH3 0x1A2 SWAP1 PUSH3 0x3A8 JUMP JUMPDEST SWAP1 PUSH1 0x0 MSTORE PUSH1 0x20 PUSH1 0x0 KECCAK256 SWAP1 PUSH1 0x1F ADD PUSH1 0x20 SWAP1 DIV DUP2 ADD SWAP3 DUP3 PUSH3 0x1C6 JUMPI PUSH1 0x0 DUP6 SSTORE PUSH3 0x212 JUMP JUMPDEST DUP3 PUSH1 0x1F LT PUSH3 0x1E1 JUMPI DUP1 MLOAD PUSH1 0xFF NOT AND DUP4 DUP1 ADD OR DUP6 SSTORE PUSH3 0x212 JUMP JUMPDEST DUP3 DUP1 ADD PUSH1 0x1 ADD DUP6 SSTORE DUP3 ISZERO PUSH3 0x212 JUMPI SWAP2 DUP3 ADD JUMPDEST DUP3 DUP2 GT ISZERO PUSH3 0x211 JUMPI DUP3 MLOAD DUP3 SSTORE SWAP2 PUSH1 0x20 ADD SWAP2 SWAP1 PUSH1 0x1 ADD SWAP1 PUSH3 0x1F4 JUMP JUMPDEST JUMPDEST POP SWAP1 POP PUSH3 0x221 SWAP2 SWAP1 PUSH3 0x225 JUMP JUMPDEST POP SWAP1 JUMP JUMPDEST JUMPDEST DUP1 DUP3 GT ISZERO PUSH3 0x240 JUMPI PUSH1 0x0 DUP2 PUSH1 0x0 SWAP1 SSTORE POP PUSH1 0x1 ADD PUSH3 0x226 JUMP JUMPDEST POP SWAP1 JUMP JUMPDEST PUSH1 0x0 PUSH3 0x25B PUSH3 0x255 DUP5 PUSH3 0x33C JUMP JUMPDEST PUSH3 0x313 JUMP JUMPDEST SWAP1 POP DUP3 DUP2 MSTORE PUSH1 0x20 DUP2 ADD DUP5 DUP5 DUP5 ADD GT ISZERO PUSH3 0x27A JUMPI PUSH3 0x279 PUSH3 0x477 JUMP JUMPDEST JUMPDEST PUSH3 0x287 DUP5 DUP3 DUP6 PUSH3 0x372 JUMP JUMPDEST POP SWAP4 SWAP3 POP POP POP JUMP JUMPDEST PUSH1 0x0 DUP3 PUSH1 0x1F DUP4 ADD SLT PUSH3 0x2A7 JUMPI PUSH3 0x2A6 PUSH3 0x472 JUMP JUMPDEST JUMPDEST DUP2 MLOAD PUSH3 0x2B9 DUP5 DUP3 PUSH1 0x20 DUP7 ADD PUSH3 0x244 JUMP JUMPDEST SWAP2 POP POP SWAP3 SWAP2 POP POP JUMP JUMPDEST PUSH1 0x0 PUSH1 0x20 DUP3 DUP5 SUB SLT ISZERO PUSH3 0x2DB JUMPI PUSH3 0x2DA PUSH3 0x481 JUMP JUMPDEST JUMPDEST PUSH1 0x0 DUP3 ADD MLOAD PUSH8 0xFFFFFFFFFFFFFFFF DUP2 GT ISZERO PUSH3 0x2FC JUMPI PUSH3 0x2FB PUSH3 0x47C JUMP JUMPDEST JUMPDEST PUSH3 0x30A DUP5 DUP3 DUP6 ADD PUSH3 0x28F JUMP JUMPDEST SWAP2 POP POP SWAP3 SWAP2 POP POP JUMP JUMPDEST PUSH1 0x0 PUSH3 0x31F PUSH3 0x332 JUMP JUMPDEST SWAP1 POP PUSH3 0x32D DUP3 DUP3 PUSH3 0x3DE JUMP JUMPDEST SWAP2 SWAP1 POP JUMP JUMPDEST PUSH1 0x0 PUSH1 0x40 MLOAD SWAP1 POP SWAP1 JUMP JUMPDEST PUSH1 0x0 PUSH8 0xFFFFFFFFFFFFFFFF DUP3 GT ISZERO PUSH3 0x35A JUMPI PUSH3 0x359 PUSH3 0x443 JUMP JUMPDEST JUMPDEST PUSH3 0x365 DUP3 PUSH3 0x486 JUMP JUMPDEST SWAP1 POP PUSH1 0x20 DUP2 ADD SWAP1 POP SWAP2 SWAP1 POP JUMP JUMPDEST PUSH1 0x0 JUMPDEST DUP4 DUP2 LT ISZERO PUSH3 0x392 JUMPI DUP1 DUP3 ADD MLOAD DUP2 DUP5 ADD MSTORE PUSH1 0x20 DUP2 ADD SWAP1 POP PUSH3 0x375 JUMP JUMPDEST DUP4 DUP2 GT ISZERO PUSH3 0x3A2 JUMPI PUSH1 0x0 DUP5 DUP5 ADD MSTORE JUMPDEST POP POP POP POP JUMP JUMPDEST PUSH1 0x0 PUSH1 0x2 DUP3 DIV SWAP1 POP PUSH1 0x1 DUP3 AND DUP1 PUSH3 0x3C1 JUMPI PUSH1 0x7F DUP3 AND SWAP2 POP JUMPDEST PUSH1 0x20 DUP3 LT DUP2 EQ ISZERO PUSH3 0x3D8 JUMPI PUSH3 0x3D7 PUSH3 0x414 JUMP JUMPDEST JUMPDEST POP SWAP2 SWAP1 POP JUMP JUMPDEST PUSH3 0x3E9 DUP3 PUSH3 0x486 JUMP JUMPDEST DUP2 ADD DUP2 DUP2 LT PUSH8 0xFFFFFFFFFFFFFFFF DUP3 GT OR ISZERO PUSH3 0x40B JUMPI PUSH3 0x40A PUSH3 0x443 JUMP JUMPDEST JUMPDEST DUP1 PUSH1 0x40 MSTORE POP POP POP JUMP JUMPDEST PUSH32 0x4E487B7100000000000000000000000000000000000000000000000000000000 PUSH1 0x0 MSTORE PUSH1 0x22 PUSH1 0x4 MSTORE PUSH1 0x24 PUSH1 0x0 REVERT JUMPDEST PUSH32 0x4E487B7100000000000000000000000000000000000000000000000000000000 PUSH1 0x0 MSTORE PUSH1 0x41 PUSH1 0x4 MSTORE PUSH1 0x24 PUSH1 0x0 REVERT JUMPDEST PUSH1 0x0 DUP1 REVERT JUMPDEST PUSH1 0x0 DUP1 REVERT JUMPDEST PUSH1 0x0 DUP1 REVERT JUMPDEST PUSH1 0x0 DUP1 REVERT JUMPDEST PUSH1 0x0 PUSH1 0x1F NOT PUSH1 0x1F DUP4 ADD AND SWAP1 POP SWAP2 SWAP1 POP JUMP JUMPDEST PUSH2 0x1668 DUP1 PUSH3 0x4A7 PUSH1 0x0 CODECOPY PUSH1 0x0 RETURN INVALID PUSH1 0x80 PUSH1 0x40 MSTORE CALLVALUE DUP1 ISZERO PUSH2 0x10 JUMPI PUSH1 0x0 DUP1 REVERT JUMPDEST POP PUSH1 0x4 CALLDATASIZE LT PUSH2 0x88 JUMPI PUSH1 0x0 CALLDATALOAD PUSH1 0xE0 SHR DUP1 PUSH4 0x7E1EAABF GT PUSH2 0x5B JUMPI DUP1 PUSH4 0x7E1EAABF EQ PUSH2 0xDD JUMPI DUP1 PUSH4 0xB4A99A4E EQ PUSH2 0xFB JUMPI DUP1 PUSH4 0xC63BC456 EQ PUSH2 0x119 JUMPI DUP1 PUSH4 0xD4C892C4 EQ PUSH2 0x139 JUMPI PUSH2 0x88 JUMP JUMPDEST DUP1 PUSH4 0x1309A563 EQ PUSH2 0x8D JUMPI DUP1 PUSH4 0x322F0ECE EQ PUSH2 0xAB JUMPI DUP1 PUSH4 0x5A8BC1A9 EQ PUSH2 0xC9 JUMPI DUP1 PUSH4 0x67818243 EQ PUSH2 0xD3 JUMPI JUMPDEST PUSH1 0x0 DUP1 REVERT JUMPDEST PUSH2 0x95 PUSH2 0x169 JUMP JUMPDEST PUSH1 0x40 MLOAD PUSH2 0xA2 SWAP2 SWAP1 PUSH2 0xF3E JUMP JUMPDEST PUSH1 0x40 MLOAD DUP1 SWAP2 SUB SWAP1 RETURN JUMPDEST PUSH2 0xB3 PUSH2 0x17C JUMP JUMPDEST PUSH1 0x40 MLOAD PUSH2 0xC0 SWAP2 SWAP1 PUSH2 0x101B JUMP JUMPDEST PUSH1 0x40 MLOAD DUP1 SWAP2 SUB SWAP1 RETURN JUMPDEST PUSH2 0xD1 PUSH2 0x182 JUMP JUMPDEST STOP JUMPDEST PUSH2 0xDB PUSH2 0x236 JUMP JUMPDEST STOP JUMPDEST PUSH2 0xE5 PUSH2 0x327 JUMP JUMPDEST PUSH1 0x40 MLOAD PUSH2 0xF2 SWAP2 SWAP1 PUSH2 0x101B JUMP JUMPDEST PUSH1 0x40 MLOAD DUP1 SWAP2 SUB SWAP1 RETURN JUMPDEST PUSH2 0x103 PUSH2 0x69F JUMP JUMPDEST PUSH1 0x40 MLOAD PUSH2 0x110 SWAP2 SWAP1 PUSH2 0xEC9 JUMP JUMPDEST PUSH1 0x40 MLOAD DUP1 SWAP2 SUB SWAP1 RETURN JUMPDEST PUSH2 0x121 PUSH2 0x6C5 JUMP JUMPDEST PUSH1 0x40 MLOAD PUSH2 0x130 SWAP4 SWAP3 SWAP2 SWAP1 PUSH2 0x105F JUMP JUMPDEST PUSH1 0x40 MLOAD DUP1 SWAP2 SUB SWAP1 RETURN JUMPDEST PUSH2 0x153 PUSH1 0x4 DUP1 CALLDATASIZE SUB DUP2 ADD SWAP1 PUSH2 0x14E SWAP2 SWAP1 PUSH2 0xCB8 JUMP JUMPDEST PUSH2 0x775 JUMP JUMPDEST PUSH1 0x40 MLOAD PUSH2 0x160 SWAP2 SWAP1 PUSH2 0x101B JUMP JUMPDEST PUSH1 0x40 MLOAD DUP1 SWAP2 SUB SWAP1 RETURN JUMPDEST PUSH1 0xB PUSH1 0x0 SWAP1 SLOAD SWAP1 PUSH2 0x100 EXP SWAP1 DIV PUSH1 0xFF AND DUP2 JUMP JUMPDEST PUSH1 0x3 SLOAD DUP2 JUMP JUMPDEST PUSH1 0xB PUSH1 0x1 SWAP1 SLOAD SWAP1 PUSH2 0x100 EXP SWAP1 DIV PUSH20 0xFFFFFFFFFFFFFFFFFFFFFFFFFFFFFFFFFFFFFFFF AND PUSH20 0xFFFFFFFFFFFFFFFFFFFFFFFFFFFFFFFFFFFFFFFF AND PUSH2 0x1C3 PUSH2 0x78D JUMP JUMPDEST PUSH20 0xFFFFFFFFFFFFFFFFFFFFFFFFFFFFFFFFFFFFFFFF AND EQ PUSH2 0x219 JUMPI PUSH1 0x40 MLOAD PUSH32 0x8C379A000000000000000000000000000000000000000000000000000000000 DUP2 MSTORE PUSH1 0x4 ADD PUSH2 0x210 SWAP1 PUSH2 0xFBB JUMP JUMPDEST PUSH1 0x40 MLOAD DUP1 SWAP2 SUB SWAP1 REVERT JUMPDEST PUSH1 0x1 PUSH1 0xB PUSH1 0x0 PUSH2 0x100 EXP DUP2 SLOAD DUP2 PUSH1 0xFF MUL NOT AND SWAP1 DUP4 ISZERO ISZERO MUL OR SWAP1 SSTORE POP JUMP JUMPDEST PUSH1 0xB PUSH1 0x1 SWAP1 SLOAD SWAP1 PUSH2 0x100 EXP SWAP1 DIV PUSH20 0xFFFFFFFFFFFFFFFFFFFFFFFFFFFFFFFFFFFFFFFF AND PUSH20 0xFFFFFFFFFFFFFFFFFFFFFFFFFFFFFFFFFFFFFFFF AND PUSH2 0x277 PUSH2 0x78D JUMP JUMPDEST PUSH20 0xFFFFFFFFFFFFFFFFFFFFFFFFFFFFFFFFFFFFFFFF AND EQ PUSH2 0x2CD JUMPI PUSH1 0x40 MLOAD PUSH32 0x8C379A000000000000000000000000000000000000000000000000000000000 DUP2 MSTORE PUSH1 0x4 ADD PUSH2 0x2C4 SWAP1 PUSH2 0xFBB JUMP JUMPDEST PUSH1 0x40 MLOAD DUP1 SWAP2 SUB SWAP1 REVERT JUMPDEST PUSH1 0x1 ISZERO ISZERO PUSH1 0xB PUSH1 0x0 SWAP1 SLOAD SWAP1 PUSH2 0x100 EXP SWAP1 DIV PUSH1 0xFF AND ISZERO ISZERO EQ ISZERO PUSH2 0x309 JUMPI PUSH1 0x0 PUSH1 0xB PUSH1 0x0 PUSH2 0x100 EXP DUP2 SLOAD DUP2 PUSH1 0xFF MUL NOT AND SWAP1 DUP4 ISZERO ISZERO MUL OR SWAP1 SSTORE POP PUSH2 0x325 JUMP JUMPDEST PUSH1 0x1 PUSH1 0xB PUSH1 0x0 PUSH2 0x100 EXP DUP2 SLOAD DUP2 PUSH1 0xFF MUL NOT AND SWAP1 DUP4 ISZERO ISZERO MUL OR SWAP1 SSTORE POP JUMPDEST JUMP JUMPDEST PUSH1 0x0 DUP1 ISZERO ISZERO PUSH1 0xB PUSH1 0x0 SWAP1 SLOAD SWAP1 PUSH2 0x100 EXP SWAP1 DIV PUSH1 0xFF AND ISZERO ISZERO EQ PUSH2 0x37E JUMPI PUSH1 0x40 MLOAD PUSH32 0x8C379A000000000000000000000000000000000000000000000000000000000 DUP2 MSTORE PUSH1 0x4 ADD PUSH2 0x375 SWAP1 PUSH2 0xFDB JUMP JUMPDEST PUSH1 0x40 MLOAD DUP1 SWAP2 SUB SWAP1 REVERT JUMPDEST PUSH1 0x0 PUSH2 0x388 PUSH2 0x795 JUMP JUMPDEST SWAP1 POP PUSH1 0x96 PUSH1 0x5 SLOAD GT ISZERO DUP1 ISZERO PUSH2 0x39D JUMPI POP PUSH1 0x0 DUP2 EQ JUMPDEST DUP1 PUSH2 0x3B8 JUMPI POP PUSH2 0x15E PUSH1 0x6 SLOAD GT ISZERO DUP1 ISZERO PUSH2 0x3B7 JUMPI POP PUSH1 0x1 DUP2 EQ JUMPDEST JUMPDEST DUP1 PUSH2 0x3D3 JUMPI POP PUSH2 0x1F4 PUSH1 0x7 SLOAD GT ISZERO DUP1 ISZERO PUSH2 0x3D2 JUMPI POP PUSH1 0x2 DUP2 EQ JUMPDEST JUMPDEST ISZERO PUSH2 0x537 JUMPI PUSH2 0x3E0 PUSH2 0x795 JUMP JUMPDEST SWAP1 POP PUSH1 0x0 DUP2 EQ ISZERO PUSH2 0x454 JUMPI PUSH1 0x40 MLOAD DUP1 PUSH1 0x40 ADD PUSH1 0x40 MSTORE DUP1 PUSH1 0x8 DUP2 MSTORE PUSH1 0x20 ADD PUSH32 0x506C6174696E756D000000000000000000000000000000000000000000000000 DUP2 MSTORE POP PUSH1 0x2 SWAP1 DUP1 MLOAD SWAP1 PUSH1 0x20 ADD SWAP1 PUSH2 0x436 SWAP3 SWAP2 SWAP1 PUSH2 0xBEB JUMP JUMPDEST POP PUSH1 0x5 PUSH1 0x0 DUP2 SLOAD DUP1 SWAP3 SWAP2 SWAP1 PUSH2 0x44A SWAP1 PUSH2 0x124A JUMP JUMPDEST SWAP2 SWAP1 POP SSTORE POP PUSH2 0x536 JUMP JUMPDEST PUSH1 0x1 DUP2 EQ ISZERO PUSH2 0x4C6 JUMPI PUSH1 0x40 MLOAD DUP1 PUSH1 0x40 ADD PUSH1 0x40 MSTORE DUP1 PUSH1 0x4 DUP2 MSTORE PUSH1 0x20 ADD PUSH32 0x476F6C6400000000000000000000000000000000000000000000000000000000 DUP2 MSTORE POP PUSH1 0x2 SWAP1 DUP1 MLOAD SWAP1 PUSH1 0x20 ADD SWAP1 PUSH2 0x4A8 SWAP3 SWAP2 SWAP1 PUSH2 0xBEB JUMP JUMPDEST POP PUSH1 0x6 PUSH1 0x0 DUP2 SLOAD DUP1 SWAP3 SWAP2 SWAP1 PUSH2 0x4BC SWAP1 PUSH2 0x124A JUMP JUMPDEST SWAP2 SWAP1 POP SSTORE POP PUSH2 0x535 JUMP JUMPDEST PUSH1 0x2 DUP2 EQ ISZERO PUSH2 0x534 JUMPI PUSH1 0x40 MLOAD DUP1 PUSH1 0x40 ADD PUSH1 0x40 MSTORE DUP1 PUSH1 0x6 DUP2 MSTORE PUSH1 0x20 ADD PUSH32 0x53696C7665720000000000000000000000000000000000000000000000000000 DUP2 MSTORE POP PUSH1 0x2 SWAP1 DUP1 MLOAD SWAP1 PUSH1 0x20 ADD SWAP1 PUSH2 0x51A SWAP3 SWAP2 SWAP1 PUSH2 0xBEB JUMP JUMPDEST POP PUSH1 0x7 PUSH1 0x0 DUP2 SLOAD DUP1 SWAP3 SWAP2 SWAP1 PUSH2 0x52E SWAP1 PUSH2 0x124A JUMP JUMPDEST SWAP2 SWAP1 POP SSTORE POP JUMPDEST JUMPDEST JUMPDEST JUMPDEST PUSH2 0x5D6 PUSH2 0x542 PUSH2 0x78D JUMP JUMPDEST DUP3 PUSH1 0x4 SLOAD PUSH1 0x2 DUP1 SLOAD PUSH2 0x553 SWAP1 PUSH2 0x11E7 JUMP JUMPDEST DUP1 PUSH1 0x1F ADD PUSH1 0x20 DUP1 SWAP2 DIV MUL PUSH1 0x20 ADD PUSH1 0x40 MLOAD SWAP1 DUP2 ADD PUSH1 0x40 MSTORE DUP1 SWAP3 SWAP2 SWAP1 DUP2 DUP2 MSTORE PUSH1 0x20 ADD DUP3 DUP1 SLOAD PUSH2 0x57F SWAP1 PUSH2 0x11E7 JUMP JUMPDEST DUP1 ISZERO PUSH2 0x5CC JUMPI DUP1 PUSH1 0x1F LT PUSH2 0x5A1 JUMPI PUSH2 0x100 DUP1 DUP4 SLOAD DIV MUL DUP4 MSTORE SWAP2 PUSH1 0x20 ADD SWAP2 PUSH2 0x5CC JUMP JUMPDEST DUP3 ADD SWAP2 SWAP1 PUSH1 0x0 MSTORE PUSH1 0x20 PUSH1 0x0 KECCAK256 SWAP1 JUMPDEST DUP2 SLOAD DUP2 MSTORE SWAP1 PUSH1 0x1 ADD SWAP1 PUSH1 0x20 ADD DUP1 DUP4 GT PUSH2 0x5AF JUMPI DUP3 SWAP1 SUB PUSH1 0x1F AND DUP3 ADD SWAP2 JUMPDEST POP POP POP POP POP PUSH2 0x7D9 JUMP JUMPDEST PUSH1 0x1 PUSH1 0x9 PUSH1 0x0 PUSH2 0x5E4 PUSH2 0x78D JUMP JUMPDEST PUSH20 0xFFFFFFFFFFFFFFFFFFFFFFFFFFFFFFFFFFFFFFFF AND PUSH20 0xFFFFFFFFFFFFFFFFFFFFFFFFFFFFFFFFFFFFFFFF AND DUP2 MSTORE PUSH1 0x20 ADD SWAP1 DUP2 MSTORE PUSH1 0x20 ADD PUSH1 0x0 KECCAK256 PUSH1 0x0 PUSH2 0x100 EXP DUP2 SLOAD DUP2 PUSH1 0xFF MUL NOT AND SWAP1 DUP4 ISZERO ISZERO MUL OR SWAP1 SSTORE POP PUSH1 0x3 PUSH1 0x0 DUP2 SLOAD DUP1 SWAP3 SWAP2 SWAP1 PUSH2 0x648 SWAP1 PUSH2 0x124A JUMP JUMPDEST SWAP2 SWAP1 POP SSTORE POP DUP1 PUSH1 0x8 PUSH1 0x0 PUSH2 0x65A PUSH2 0x78D JUMP JUMPDEST PUSH20 0xFFFFFFFFFFFFFFFFFFFFFFFFFFFFFFFFFFFFFFFF AND PUSH20 0xFFFFFFFFFFFFFFFFFFFFFFFFFFFFFFFFFFFFFFFF AND DUP2 MSTORE PUSH1 0x20 ADD SWAP1 DUP2 MSTORE PUSH1 0x20 ADD PUSH1 0x0 KECCAK256 DUP2 SWAP1 SSTORE POP DUP1 SWAP2 POP POP SWAP1 JUMP JUMPDEST PUSH1 0xB PUSH1 0x1 SWAP1 SLOAD SWAP1 PUSH2 0x100 EXP SWAP1 DIV PUSH20 0xFFFFFFFFFFFFFFFFFFFFFFFFFFFFFFFFFFFFFFFF AND DUP2 JUMP JUMPDEST PUSH1 0x0 DUP1 PUSH1 0x0 PUSH1 0xB PUSH1 0x1 SWAP1 SLOAD SWAP1 PUSH2 0x100 EXP SWAP1 DIV PUSH20 0xFFFFFFFFFFFFFFFFFFFFFFFFFFFFFFFFFFFFFFFF AND PUSH20 0xFFFFFFFFFFFFFFFFFFFFFFFFFFFFFFFFFFFFFFFF AND PUSH2 0x70B PUSH2 0x78D JUMP JUMPDEST PUSH20 0xFFFFFFFFFFFFFFFFFFFFFFFFFFFFFFFFFFFFFFFF AND EQ PUSH2 0x761 JUMPI PUSH1 0x40 MLOAD PUSH32 0x8C379A000000000000000000000000000000000000000000000000000000000 DUP2 MSTORE PUSH1 0x4 ADD PUSH2 0x758 SWAP1 PUSH2 0xFBB JUMP JUMPDEST PUSH1 0x40 MLOAD DUP1 SWAP2 SUB SWAP1 REVERT JUMPDEST PUSH1 0x5 SLOAD PUSH1 0x6 SLOAD PUSH1 0x7 SLOAD SWAP3 POP SWAP3 POP SWAP3 POP SWAP1 SWAP2 SWAP3 JUMP JUMPDEST PUSH1 0x8 PUSH1 0x20 MSTORE DUP1 PUSH1 0x0 MSTORE PUSH1 0x40 PUSH1 0x0 KECCAK256 PUSH1 0x0 SWAP2 POP SWAP1 POP SLOAD DUP2 JUMP JUMPDEST PUSH1 0x0 CALLER SWAP1 POP SWAP1 JUMP JUMPDEST PUSH1 0x0 DUP1 PUSH1 0x3 TIMESTAMP CALLER PUSH1 0x40 MLOAD PUSH1 0x20 ADD PUSH2 0x7AD SWAP3 SWAP2 SWAP1 PUSH2 0xE9D JUMP JUMPDEST PUSH1 0x40 MLOAD PUSH1 0x20 DUP2 DUP4 SUB SUB DUP2 MSTORE SWAP1 PUSH1 0x40 MSTORE DUP1 MLOAD SWAP1 PUSH1 0x20 ADD KECCAK256 PUSH1 0x0 SHR PUSH2 0x7D0 SWAP2 SWAP1 PUSH2 0x12C1 JUMP JUMPDEST SWAP1 POP DUP1 SWAP2 POP POP SWAP1 JUMP JUMPDEST PUSH1 0x0 PUSH20 0xFFFFFFFFFFFFFFFFFFFFFFFFFFFFFFFFFFFFFFFF AND DUP5 PUSH20 0xFFFFFFFFFFFFFFFFFFFFFFFFFFFFFFFFFFFFFFFF AND EQ ISZERO PUSH2 0x849 JUMPI PUSH1 0x40 MLOAD PUSH32 0x8C379A000000000000000000000000000000000000000000000000000000000 DUP2 MSTORE PUSH1 0x4 ADD PUSH2 0x840 SWAP1 PUSH2 0xFFB JUMP JUMPDEST PUSH1 0x40 MLOAD DUP1 SWAP2 SUB SWAP1 REVERT JUMPDEST PUSH1 0x0 PUSH2 0x853 PUSH2 0x78D JUMP JUMPDEST SWAP1 POP PUSH2 0x874 DUP2 PUSH1 0x0 DUP8 PUSH2 0x865 DUP9 PUSH2 0x96F JUMP JUMPDEST PUSH2 0x86E DUP9 PUSH2 0x96F JUMP JUMPDEST DUP8 PUSH2 0x9E9 JUMP JUMPDEST DUP3 PUSH1 0x0 DUP1 DUP7 DUP2 MSTORE PUSH1 0x20 ADD SWAP1 DUP2 MSTORE PUSH1 0x20 ADD PUSH1 0x0 KECCAK256 PUSH1 0x0 DUP8 PUSH20 0xFFFFFFFFFFFFFFFFFFFFFFFFFFFFFFFFFFFFFFFF AND PUSH20 0xFFFFFFFFFFFFFFFFFFFFFFFFFFFFFFFFFFFFFFFF AND DUP2 MSTORE PUSH1 0x20 ADD SWAP1 DUP2 MSTORE PUSH1 0x20 ADD PUSH1 0x0 KECCAK256 PUSH1 0x0 DUP3 DUP3 SLOAD PUSH2 0x8D3 SWAP2 SWAP1 PUSH2 0x10D8 JUMP JUMPDEST SWAP3 POP POP DUP2 SWAP1 SSTORE POP DUP5 PUSH20 0xFFFFFFFFFFFFFFFFFFFFFFFFFFFFFFFFFFFFFFFF AND PUSH1 0x0 PUSH20 0xFFFFFFFFFFFFFFFFFFFFFFFFFFFFFFFFFFFFFFFF AND DUP3 PUSH20 0xFFFFFFFFFFFFFFFFFFFFFFFFFFFFFFFFFFFFFFFF AND PUSH32 0xC3D58168C5AE7397731D063D5BBF3D657854427343F4C083240F7AACAA2D0F62 DUP8 DUP8 PUSH1 0x40 MLOAD PUSH2 0x951 SWAP3 SWAP2 SWAP1 PUSH2 0x1036 JUMP JUMPDEST PUSH1 0x40 MLOAD DUP1 SWAP2 SUB SWAP1 LOG4 PUSH2 0x968 DUP2 PUSH1 0x0 DUP8 DUP8 DUP8 DUP8 PUSH2 0x9F1 JUMP JUMPDEST POP POP POP POP POP JUMP JUMPDEST PUSH1 0x60 PUSH1 0x0 PUSH1 0x1 PUSH8 0xFFFFFFFFFFFFFFFF DUP2 GT ISZERO PUSH2 0x98E JUMPI PUSH2 0x98D PUSH2 0x13AE JUMP JUMPDEST JUMPDEST PUSH1 0x40 MLOAD SWAP1 DUP1 DUP3 MSTORE DUP1 PUSH1 0x20 MUL PUSH1 0x20 ADD DUP3 ADD PUSH1 0x40 MSTORE DUP1 ISZERO PUSH2 0x9BC JUMPI DUP2 PUSH1 0x20 ADD PUSH1 0x20 DUP3 MUL DUP1 CALLDATASIZE DUP4 CALLDATACOPY DUP1 DUP3 ADD SWAP2 POP POP SWAP1 POP JUMPDEST POP SWAP1 POP DUP3 DUP2 PUSH1 0x0 DUP2 MLOAD DUP2 LT PUSH2 0x9D4 JUMPI PUSH2 0x9D3 PUSH2 0x137F JUMP JUMPDEST JUMPDEST PUSH1 0x20 MUL PUSH1 0x20 ADD ADD DUP2 DUP2 MSTORE POP POP DUP1 SWAP2 POP POP SWAP2 SWAP1 POP JUMP JUMPDEST POP POP POP POP POP POP JUMP JUMPDEST PUSH2 0xA10 DUP5 PUSH20 0xFFFFFFFFFFFFFFFFFFFFFFFFFFFFFFFFFFFFFFFF AND PUSH2 0xBD8 JUMP JUMPDEST ISZERO PUSH2 0xBD0 JUMPI DUP4 PUSH20 0xFFFFFFFFFFFFFFFFFFFFFFFFFFFFFFFFFFFFFFFF AND PUSH4 0xF23A6E61 DUP8 DUP8 DUP7 DUP7 DUP7 PUSH1 0x40 MLOAD DUP7 PUSH4 0xFFFFFFFF AND PUSH1 0xE0 SHL DUP2 MSTORE PUSH1 0x4 ADD PUSH2 0xA56 SWAP6 SWAP5 SWAP4 SWAP3 SWAP2 SWAP1 PUSH2 0xEE4 JUMP JUMPDEST PUSH1 0x20 PUSH1 0x40 MLOAD DUP1 DUP4 SUB DUP2 PUSH1 0x0 DUP8 DUP1 EXTCODESIZE ISZERO DUP1 ISZERO PUSH2 0xA70 JUMPI PUSH1 0x0 DUP1 REVERT JUMPDEST POP GAS CALL SWAP3 POP POP POP DUP1 ISZERO PUSH2 0xAA1 JUMPI POP PUSH1 0x40 MLOAD RETURNDATASIZE PUSH1 0x1F NOT PUSH1 0x1F DUP3 ADD AND DUP3 ADD DUP1 PUSH1 0x40 MSTORE POP DUP2 ADD SWAP1 PUSH2 0xA9E SWAP2 SWAP1 PUSH2 0xCE5 JUMP JUMPDEST PUSH1 0x1 JUMPDEST PUSH2 0xB47 JUMPI PUSH2 0xAAD PUSH2 0x13DD JUMP JUMPDEST DUP1 PUSH4 0x8C379A0 EQ ISZERO PUSH2 0xB0A JUMPI POP PUSH2 0xAC2 PUSH2 0x156E JUMP JUMPDEST DUP1 PUSH2 0xACD JUMPI POP PUSH2 0xB0C JUMP JUMPDEST DUP1 PUSH1 0x40 MLOAD PUSH32 0x8C379A000000000000000000000000000000000000000000000000000000000 DUP2 MSTORE PUSH1 0x4 ADD PUSH2 0xB01 SWAP2 SWAP1 PUSH2 0xF59 JUMP JUMPDEST PUSH1 0x40 MLOAD DUP1 SWAP2 SUB SWAP1 REVERT JUMPDEST POP JUMPDEST PUSH1 0x40 MLOAD PUSH32 0x8C379A000000000000000000000000000000000000000000000000000000000 DUP2 MSTORE PUSH1 0x4 ADD PUSH2 0xB3E SWAP1 PUSH2 0xF7B JUMP JUMPDEST PUSH1 0x40 MLOAD DUP1 SWAP2 SUB SWAP1 REVERT JUMPDEST PUSH4 0xF23A6E61 PUSH1 0xE0 SHL PUSH28 0xFFFFFFFFFFFFFFFFFFFFFFFFFFFFFFFFFFFFFFFFFFFFFFFFFFFFFFFF NOT AND DUP2 PUSH28 0xFFFFFFFFFFFFFFFFFFFFFFFFFFFFFFFFFFFFFFFFFFFFFFFFFFFFFFFF NOT AND EQ PUSH2 0xBCE JUMPI PUSH1 0x40 MLOAD PUSH32 0x8C379A000000000000000000000000000000000000000000000000000000000 DUP2 MSTORE PUSH1 0x4 ADD PUSH2 0xBC5 SWAP1 PUSH2 0xF9B JUMP JUMPDEST PUSH1 0x40 MLOAD DUP1 SWAP2 SUB SWAP1 REVERT JUMPDEST POP JUMPDEST POP POP POP POP POP POP JUMP JUMPDEST PUSH1 0x0 DUP1 DUP3 EXTCODESIZE SWAP1 POP PUSH1 0x0 DUP2 GT SWAP2 POP POP SWAP2 SWAP1 POP JUMP JUMPDEST DUP3 DUP1 SLOAD PUSH2 0xBF7 SWAP1 PUSH2 0x11E7 JUMP JUMPDEST SWAP1 PUSH1 0x0 MSTORE PUSH1 0x20 PUSH1 0x0 KECCAK256 SWAP1 PUSH1 0x1F ADD PUSH1 0x20 SWAP1 DIV DUP2 ADD SWAP3 DUP3 PUSH2 0xC19 JUMPI PUSH1 0x0 DUP6 SSTORE PUSH2 0xC60 JUMP JUMPDEST DUP3 PUSH1 0x1F LT PUSH2 0xC32 JUMPI DUP1 MLOAD PUSH1 0xFF NOT AND DUP4 DUP1 ADD OR DUP6 SSTORE PUSH2 0xC60 JUMP JUMPDEST DUP3 DUP1 ADD PUSH1 0x1 ADD DUP6 SSTORE DUP3 ISZERO PUSH2 0xC60 JUMPI SWAP2 DUP3 ADD JUMPDEST DUP3 DUP2 GT ISZERO PUSH2 0xC5F JUMPI DUP3 MLOAD DUP3 SSTORE SWAP2 PUSH1 0x20 ADD SWAP2 SWAP1 PUSH1 0x1 ADD SWAP1 PUSH2 0xC44 JUMP JUMPDEST JUMPDEST POP SWAP1 POP PUSH2 0xC6D SWAP2 SWAP1 PUSH2 0xC71 JUMP JUMPDEST POP SWAP1 JUMP JUMPDEST JUMPDEST DUP1 DUP3 GT ISZERO PUSH2 0xC8A JUMPI PUSH1 0x0 DUP2 PUSH1 0x0 SWAP1 SSTORE POP PUSH1 0x1 ADD PUSH2 0xC72 JUMP JUMPDEST POP SWAP1 JUMP JUMPDEST PUSH1 0x0 DUP2 CALLDATALOAD SWAP1 POP PUSH2 0xC9D DUP2 PUSH2 0x1604 JUMP JUMPDEST SWAP3 SWAP2 POP POP JUMP JUMPDEST PUSH1 0x0 DUP2 MLOAD SWAP1 POP PUSH2 0xCB2 DUP2 PUSH2 0x161B JUMP JUMPDEST SWAP3 SWAP2 POP POP JUMP JUMPDEST PUSH1 0x0 PUSH1 0x20 DUP3 DUP5 SUB SLT ISZERO PUSH2 0xCCE JUMPI PUSH2 0xCCD PUSH2 0x13FF JUMP JUMPDEST JUMPDEST PUSH1 0x0 PUSH2 0xCDC DUP5 DUP3 DUP6 ADD PUSH2 0xC8E JUMP JUMPDEST SWAP2 POP POP SWAP3 SWAP2 POP POP JUMP JUMPDEST PUSH1 0x0 PUSH1 0x20 DUP3 DUP5 SUB SLT ISZERO PUSH2 0xCFB JUMPI PUSH2 0xCFA PUSH2 0x13FF JUMP JUMPDEST JUMPDEST PUSH1 0x0 PUSH2 0xD09 DUP5 DUP3 DUP6 ADD PUSH2 0xCA3 JUMP JUMPDEST SWAP2 POP POP SWAP3 SWAP2 POP POP JUMP JUMPDEST PUSH2 0xD1B DUP2 PUSH2 0x1140 JUMP JUMPDEST DUP3 MSTORE POP POP JUMP JUMPDEST PUSH2 0xD2A DUP2 PUSH2 0x112E JUMP JUMPDEST DUP3 MSTORE POP POP JUMP JUMPDEST PUSH2 0xD41 PUSH2 0xD3C DUP3 PUSH2 0x112E JUMP JUMPDEST PUSH2 0x1293 JUMP JUMPDEST DUP3 MSTORE POP POP JUMP JUMPDEST PUSH2 0xD50 DUP2 PUSH2 0x1152 JUMP JUMPDEST DUP3 MSTORE POP POP JUMP JUMPDEST PUSH1 0x0 PUSH2 0xD61 DUP3 PUSH2 0x10A0 JUMP JUMPDEST PUSH2 0xD6B DUP2 DUP6 PUSH2 0x10B6 JUMP JUMPDEST SWAP4 POP PUSH2 0xD7B DUP2 DUP6 PUSH1 0x20 DUP7 ADD PUSH2 0x11B4 JUMP JUMPDEST PUSH2 0xD84 DUP2 PUSH2 0x1404 JUMP JUMPDEST DUP5 ADD SWAP2 POP POP SWAP3 SWAP2 POP POP JUMP JUMPDEST PUSH1 0x0 PUSH2 0xD9A DUP3 PUSH2 0x10AB JUMP JUMPDEST PUSH2 0xDA4 DUP2 DUP6 PUSH2 0x10C7 JUMP JUMPDEST SWAP4 POP PUSH2 0xDB4 DUP2 DUP6 PUSH1 0x20 DUP7 ADD PUSH2 0x11B4 JUMP JUMPDEST PUSH2 0xDBD DUP2 PUSH2 0x1404 JUMP JUMPDEST DUP5 ADD SWAP2 POP POP SWAP3 SWAP2 POP POP JUMP JUMPDEST PUSH1 0x0 PUSH2 0xDD5 PUSH1 0x34 DUP4 PUSH2 0x10C7 JUMP JUMPDEST SWAP2 POP PUSH2 0xDE0 DUP3 PUSH2 0x142F JUMP JUMPDEST PUSH1 0x40 DUP3 ADD SWAP1 POP SWAP2 SWAP1 POP JUMP JUMPDEST PUSH1 0x0 PUSH2 0xDF8 PUSH1 0x28 DUP4 PUSH2 0x10C7 JUMP JUMPDEST SWAP2 POP PUSH2 0xE03 DUP3 PUSH2 0x147E JUMP JUMPDEST PUSH1 0x40 DUP3 ADD SWAP1 POP SWAP2 SWAP1 POP JUMP JUMPDEST PUSH1 0x0 PUSH2 0xE1B PUSH1 0x18 DUP4 PUSH2 0x10C7 JUMP JUMPDEST SWAP2 POP PUSH2 0xE26 DUP3 PUSH2 0x14CD JUMP JUMPDEST PUSH1 0x20 DUP3 ADD SWAP1 POP SWAP2 SWAP1 POP JUMP JUMPDEST PUSH1 0x0 PUSH2 0xE3E PUSH1 0x12 DUP4 PUSH2 0x10C7 JUMP JUMPDEST SWAP2 POP PUSH2 0xE49 DUP3 PUSH2 0x14F6 JUMP JUMPDEST PUSH1 0x20 DUP3 ADD SWAP1 POP SWAP2 SWAP1 POP JUMP JUMPDEST PUSH1 0x0 PUSH2 0xE61 PUSH1 0x21 DUP4 PUSH2 0x10C7 JUMP JUMPDEST SWAP2 POP PUSH2 0xE6C DUP3 PUSH2 0x151F JUMP JUMPDEST PUSH1 0x40 DUP3 ADD SWAP1 POP SWAP2 SWAP1 POP JUMP JUMPDEST PUSH2 0xE80 DUP2 PUSH2 0x11AA JUMP JUMPDEST DUP3 MSTORE POP POP JUMP JUMPDEST PUSH2 0xE97 PUSH2 0xE92 DUP3 PUSH2 0x11AA JUMP JUMPDEST PUSH2 0x12B7 JUMP JUMPDEST DUP3 MSTORE POP POP JUMP JUMPDEST PUSH1 0x0 PUSH2 0xEA9 DUP3 DUP6 PUSH2 0xE86 JUMP JUMPDEST PUSH1 0x20 DUP3 ADD SWAP2 POP PUSH2 0xEB9 DUP3 DUP5 PUSH2 0xD30 JUMP JUMPDEST PUSH1 0x14 DUP3 ADD SWAP2 POP DUP2 SWAP1 POP SWAP4 SWAP3 POP POP POP JUMP JUMPDEST PUSH1 0x0 PUSH1 0x20 DUP3 ADD SWAP1 POP PUSH2 0xEDE PUSH1 0x0 DUP4 ADD DUP5 PUSH2 0xD12 JUMP JUMPDEST SWAP3 SWAP2 POP POP JUMP JUMPDEST PUSH1 0x0 PUSH1 0xA0 DUP3 ADD SWAP1 POP PUSH2 0xEF9 PUSH1 0x0 DUP4 ADD DUP9 PUSH2 0xD21 JUMP JUMPDEST PUSH2 0xF06 PUSH1 0x20 DUP4 ADD DUP8 PUSH2 0xD21 JUMP JUMPDEST PUSH2 0xF13 PUSH1 0x40 DUP4 ADD DUP7 PUSH2 0xE77 JUMP JUMPDEST PUSH2 0xF20 PUSH1 0x60 DUP4 ADD DUP6 PUSH2 0xE77 JUMP JUMPDEST DUP2 DUP2 SUB PUSH1 0x80 DUP4 ADD MSTORE PUSH2 0xF32 DUP2 DUP5 PUSH2 0xD56 JUMP JUMPDEST SWAP1 POP SWAP7 SWAP6 POP POP POP POP POP POP JUMP JUMPDEST PUSH1 0x0 PUSH1 0x20 DUP3 ADD SWAP1 POP PUSH2 0xF53 PUSH1 0x0 DUP4 ADD DUP5 PUSH2 0xD47 JUMP JUMPDEST SWAP3 SWAP2 POP POP JUMP JUMPDEST PUSH1 0x0 PUSH1 0x20 DUP3 ADD SWAP1 POP DUP2 DUP2 SUB PUSH1 0x0 DUP4 ADD MSTORE PUSH2 0xF73 DUP2 DUP5 PUSH2 0xD8F JUMP JUMPDEST SWAP1 POP SWAP3 SWAP2 POP POP JUMP JUMPDEST PUSH1 0x0 PUSH1 0x20 DUP3 ADD SWAP1 POP DUP2 DUP2 SUB PUSH1 0x0 DUP4 ADD MSTORE PUSH2 0xF94 DUP2 PUSH2 0xDC8 JUMP JUMPDEST SWAP1 POP SWAP2 SWAP1 POP JUMP JUMPDEST PUSH1 0x0 PUSH1 0x20 DUP3 ADD SWAP1 POP DUP2 DUP2 SUB PUSH1 0x0 DUP4 ADD MSTORE PUSH2 0xFB4 DUP2 PUSH2 0xDEB JUMP JUMPDEST SWAP1 POP SWAP2 SWAP1 POP JUMP JUMPDEST PUSH1 0x0 PUSH1 0x20 DUP3 ADD SWAP1 POP DUP2 DUP2 SUB PUSH1 0x0 DUP4 ADD MSTORE PUSH2 0xFD4 DUP2 PUSH2 0xE0E JUMP JUMPDEST SWAP1 POP SWAP2 SWAP1 POP JUMP JUMPDEST PUSH1 0x0 PUSH1 0x20 DUP3 ADD SWAP1 POP DUP2 DUP2 SUB PUSH1 0x0 DUP4 ADD MSTORE PUSH2 0xFF4 DUP2 PUSH2 0xE31 JUMP JUMPDEST SWAP1 POP SWAP2 SWAP1 POP JUMP JUMPDEST PUSH1 0x0 PUSH1 0x20 DUP3 ADD SWAP1 POP DUP2 DUP2 SUB PUSH1 0x0 DUP4 ADD MSTORE PUSH2 0x1014 DUP2 PUSH2 0xE54 JUMP JUMPDEST SWAP1 POP SWAP2 SWAP1 POP JUMP JUMPDEST PUSH1 0x0 PUSH1 0x20 DUP3 ADD SWAP1 POP PUSH2 0x1030 PUSH1 0x0 DUP4 ADD DUP5 PUSH2 0xE77 JUMP JUMPDEST SWAP3 SWAP2 POP POP JUMP JUMPDEST PUSH1 0x0 PUSH1 0x40 DUP3 ADD SWAP1 POP PUSH2 0x104B PUSH1 0x0 DUP4 ADD DUP6 PUSH2 0xE77 JUMP JUMPDEST PUSH2 0x1058 PUSH1 0x20 DUP4 ADD DUP5 PUSH2 0xE77 JUMP JUMPDEST SWAP4 SWAP3 POP POP POP JUMP JUMPDEST PUSH1 0x0 PUSH1 0x60 DUP3 ADD SWAP1 POP PUSH2 0x1074 PUSH1 0x0 DUP4 ADD DUP7 PUSH2 0xE77 JUMP JUMPDEST PUSH2 0x1081 PUSH1 0x20 DUP4 ADD DUP6 PUSH2 0xE77 JUMP JUMPDEST PUSH2 0x108E PUSH1 0x40 DUP4 ADD DUP5 PUSH2 0xE77 JUMP JUMPDEST SWAP5 SWAP4 POP POP POP POP JUMP JUMPDEST PUSH1 0x0 PUSH1 0x40 MLOAD SWAP1 POP SWAP1 JUMP JUMPDEST PUSH1 0x0 DUP2 MLOAD SWAP1 POP SWAP2 SWAP1 POP JUMP JUMPDEST PUSH1 0x0 DUP2 MLOAD SWAP1 POP SWAP2 SWAP1 POP JUMP JUMPDEST PUSH1 0x0 DUP3 DUP3 MSTORE PUSH1 0x20 DUP3 ADD SWAP1 POP SWAP3 SWAP2 POP POP JUMP JUMPDEST PUSH1 0x0 DUP3 DUP3 MSTORE PUSH1 0x20 DUP3 ADD SWAP1 POP SWAP3 SWAP2 POP POP JUMP JUMPDEST PUSH1 0x0 PUSH2 0x10E3 DUP3 PUSH2 0x11AA JUMP JUMPDEST SWAP2 POP PUSH2 0x10EE DUP4 PUSH2 0x11AA JUMP JUMPDEST SWAP3 POP DUP3 PUSH32 0xFFFFFFFFFFFFFFFFFFFFFFFFFFFFFFFFFFFFFFFFFFFFFFFFFFFFFFFFFFFFFFFF SUB DUP3 GT ISZERO PUSH2 0x1123 JUMPI PUSH2 0x1122 PUSH2 0x12F2 JUMP JUMPDEST JUMPDEST DUP3 DUP3 ADD SWAP1 POP SWAP3 SWAP2 POP POP JUMP JUMPDEST PUSH1 0x0 PUSH2 0x1139 DUP3 PUSH2 0x118A JUMP JUMPDEST SWAP1 POP SWAP2 SWAP1 POP JUMP JUMPDEST PUSH1 0x0 PUSH2 0x114B DUP3 PUSH2 0x118A JUMP JUMPDEST SWAP1 POP SWAP2 SWAP1 POP JUMP JUMPDEST PUSH1 0x0 DUP2 ISZERO ISZERO SWAP1 POP SWAP2 SWAP1 POP JUMP JUMPDEST PUSH1 0x0 PUSH32 0xFFFFFFFF00000000000000000000000000000000000000000000000000000000 DUP3 AND SWAP1 POP SWAP2 SWAP1 POP JUMP JUMPDEST PUSH1 0x0 PUSH20 0xFFFFFFFFFFFFFFFFFFFFFFFFFFFFFFFFFFFFFFFF DUP3 AND SWAP1 POP SWAP2 SWAP1 POP JUMP JUMPDEST PUSH1 0x0 DUP2 SWAP1 POP SWAP2 SWAP1 POP JUMP JUMPDEST PUSH1 0x0 JUMPDEST DUP4 DUP2 LT ISZERO PUSH2 0x11D2 JUMPI DUP1 DUP3 ADD MLOAD DUP2 DUP5 ADD MSTORE PUSH1 0x20 DUP2 ADD SWAP1 POP PUSH2 0x11B7 JUMP JUMPDEST DUP4 DUP2 GT ISZERO PUSH2 0x11E1 JUMPI PUSH1 0x0 DUP5 DUP5 ADD MSTORE JUMPDEST POP POP POP POP JUMP JUMPDEST PUSH1 0x0 PUSH1 0x2 DUP3 DIV SWAP1 POP PUSH1 0x1 DUP3 AND DUP1 PUSH2 0x11FF JUMPI PUSH1 0x7F DUP3 AND SWAP2 POP JUMPDEST PUSH1 0x20 DUP3 LT DUP2 EQ ISZERO PUSH2 0x1213 JUMPI PUSH2 0x1212 PUSH2 0x1350 JUMP JUMPDEST JUMPDEST POP SWAP2 SWAP1 POP JUMP JUMPDEST PUSH2 0x1222 DUP3 PUSH2 0x1404 JUMP JUMPDEST DUP2 ADD DUP2 DUP2 LT PUSH8 0xFFFFFFFFFFFFFFFF DUP3 GT OR ISZERO PUSH2 0x1241 JUMPI PUSH2 0x1240 PUSH2 0x13AE JUMP JUMPDEST JUMPDEST DUP1 PUSH1 0x40 MSTORE POP POP POP JUMP JUMPDEST PUSH1 0x0 PUSH2 0x1255 DUP3 PUSH2 0x11AA JUMP JUMPDEST SWAP2 POP PUSH32 0xFFFFFFFFFFFFFFFFFFFFFFFFFFFFFFFFFFFFFFFFFFFFFFFFFFFFFFFFFFFFFFFF DUP3 EQ ISZERO PUSH2 0x1288 JUMPI PUSH2 0x1287 PUSH2 0x12F2 JUMP JUMPDEST JUMPDEST PUSH1 0x1 DUP3 ADD SWAP1 POP SWAP2 SWAP1 POP JUMP JUMPDEST PUSH1 0x0 PUSH2 0x129E DUP3 PUSH2 0x12A5 JUMP JUMPDEST SWAP1 POP SWAP2 SWAP1 POP JUMP JUMPDEST PUSH1 0x0 PUSH2 0x12B0 DUP3 PUSH2 0x1415 JUMP JUMPDEST SWAP1 POP SWAP2 SWAP1 POP JUMP JUMPDEST PUSH1 0x0 DUP2 SWAP1 POP SWAP2 SWAP1 POP JUMP JUMPDEST PUSH1 0x0 PUSH2 0x12CC DUP3 PUSH2 0x11AA JUMP JUMPDEST SWAP2 POP PUSH2 0x12D7 DUP4 PUSH2 0x11AA JUMP JUMPDEST SWAP3 POP DUP3 PUSH2 0x12E7 JUMPI PUSH2 0x12E6 PUSH2 0x1321 JUMP JUMPDEST JUMPDEST DUP3 DUP3 MOD SWAP1 POP SWAP3 SWAP2 POP POP JUMP JUMPDEST PUSH32 0x4E487B7100000000000000000000000000000000000000000000000000000000 PUSH1 0x0 MSTORE PUSH1 0x11 PUSH1 0x4 MSTORE PUSH1 0x24 PUSH1 0x0 REVERT JUMPDEST PUSH32 0x4E487B7100000000000000000000000000000000000000000000000000000000 PUSH1 0x0 MSTORE PUSH1 0x12 PUSH1 0x4 MSTORE PUSH1 0x24 PUSH1 0x0 REVERT JUMPDEST PUSH32 0x4E487B7100000000000000000000000000000000000000000000000000000000 PUSH1 0x0 MSTORE PUSH1 0x22 PUSH1 0x4 MSTORE PUSH1 0x24 PUSH1 0x0 REVERT JUMPDEST PUSH32 0x4E487B7100000000000000000000000000000000000000000000000000000000 PUSH1 0x0 MSTORE PUSH1 0x32 PUSH1 0x4 MSTORE PUSH1 0x24 PUSH1 0x0 REVERT JUMPDEST PUSH32 0x4E487B7100000000000000000000000000000000000000000000000000000000 PUSH1 0x0 MSTORE PUSH1 0x41 PUSH1 0x4 MSTORE PUSH1 0x24 PUSH1 0x0 REVERT JUMPDEST PUSH1 0x0 PUSH1 0x3 RETURNDATASIZE GT ISZERO PUSH2 0x13FC JUMPI PUSH1 0x4 PUSH1 0x0 DUP1 RETURNDATACOPY PUSH2 0x13F9 PUSH1 0x0 MLOAD PUSH2 0x1422 JUMP JUMPDEST SWAP1 POP JUMPDEST SWAP1 JUMP JUMPDEST PUSH1 0x0 DUP1 REVERT JUMPDEST PUSH1 0x0 PUSH1 0x1F NOT PUSH1 0x1F DUP4 ADD AND SWAP1 POP SWAP2 SWAP1 POP JUMP JUMPDEST PUSH1 0x0 DUP2 PUSH1 0x60 SHL SWAP1 POP SWAP2 SWAP1 POP JUMP JUMPDEST PUSH1 0x0 DUP2 PUSH1 0xE0 SHR SWAP1 POP SWAP2 SWAP1 POP JUMP JUMPDEST PUSH32 0x455243313135353A207472616E7366657220746F206E6F6E2045524331313535 PUSH1 0x0 DUP3 ADD MSTORE PUSH32 0x526563656976657220696D706C656D656E746572000000000000000000000000 PUSH1 0x20 DUP3 ADD MSTORE POP JUMP JUMPDEST PUSH32 0x455243313135353A204552433131353552656365697665722072656A65637465 PUSH1 0x0 DUP3 ADD MSTORE PUSH32 0x6420746F6B656E73000000000000000000000000000000000000000000000000 PUSH1 0x20 DUP3 ADD MSTORE POP JUMP JUMPDEST PUSH32 0x4F6E79784E6674204F776E65722063616E204163636573730000000000000000 PUSH1 0x0 DUP3 ADD MSTORE POP JUMP JUMPDEST PUSH32 0x436F6E7472616374206973205061757365640000000000000000000000000000 PUSH1 0x0 DUP3 ADD MSTORE POP JUMP JUMPDEST PUSH32 0x455243313135353A206D696E7420746F20746865207A65726F20616464726573 PUSH1 0x0 DUP3 ADD MSTORE PUSH32 0x7300000000000000000000000000000000000000000000000000000000000000 PUSH1 0x20 DUP3 ADD MSTORE POP JUMP JUMPDEST PUSH1 0x0 PUSH1 0x44 RETURNDATASIZE LT ISZERO PUSH2 0x157E JUMPI PUSH2 0x1601 JUMP JUMPDEST PUSH2 0x1586 PUSH2 0x1096 JUMP JUMPDEST PUSH1 0x4 RETURNDATASIZE SUB PUSH1 0x4 DUP3 RETURNDATACOPY DUP1 MLOAD RETURNDATASIZE PUSH1 0x24 DUP3 ADD GT PUSH8 0xFFFFFFFFFFFFFFFF DUP3 GT OR ISZERO PUSH2 0x15AE JUMPI POP POP PUSH2 0x1601 JUMP JUMPDEST DUP1 DUP3 ADD DUP1 MLOAD PUSH8 0xFFFFFFFFFFFFFFFF DUP2 GT ISZERO PUSH2 0x15CC JUMPI POP POP POP POP PUSH2 0x1601 JUMP JUMPDEST DUP1 PUSH1 0x20 DUP4 ADD ADD PUSH1 0x4 RETURNDATASIZE SUB DUP6 ADD DUP2 GT ISZERO PUSH2 0x15E9 JUMPI POP POP POP POP POP PUSH2 0x1601 JUMP JUMPDEST PUSH2 0x15F8 DUP3 PUSH1 0x20 ADD DUP6 ADD DUP7 PUSH2 0x1219 JUMP JUMPDEST DUP3 SWAP6 POP POP POP POP POP POP JUMPDEST SWAP1 JUMP JUMPDEST PUSH2 0x160D DUP2 PUSH2 0x112E JUMP JUMPDEST DUP2 EQ PUSH2 0x1618 JUMPI PUSH1 0x0 DUP1 REVERT JUMPDEST POP JUMP JUMPDEST PUSH2 0x1624 DUP2 PUSH2 0x115E JUMP JUMPDEST DUP2 EQ PUSH2 0x162F JUMPI PUSH1 0x0 DUP1 REVERT JUMPDEST POP JUMP INVALID LOG2 PUSH5 0x6970667358 0x22 SLT KECCAK256 0xD6 PUSH4 0xB2C559FE PUSH24 0x9D3275054AE7631699EE9268EE648DD8731E197B5887E8AF 0xDA PUSH5 0x736F6C6343 STOP ADDMOD SMOD STOP CALLER "
				},
				"gasEstimates": {
					"creation": {
						"codeDepositCost": "1147200",
						"executionCost": "infinite",
						"totalCost": "infinite"
					},
					"external": {
						"IsPaused()": "2472",
						"Owner()": "2586",
						"SwitchSaleState()": "28918",
						"TotalNFTsMinted()": "2452",
						"checkMintedCategory()": "infinite",
						"dropsite_NFT_Owner(address)": "2880",
						"finishDropsite()": "26711",
						"randomMint()": "infinite"
					},
					"internal": {
						"random()": "infinite"
					}
				},
				"methodIdentifiers": {
					"IsPaused()": "1309a563",
					"Owner()": "b4a99a4e",
					"SwitchSaleState()": "67818243",
					"TotalNFTsMinted()": "322f0ece",
					"checkMintedCategory()": "c63bc456",
					"dropsite_NFT_Owner(address)": "d4c892c4",
					"finishDropsite()": "5a8bc1a9",
					"randomMint()": "7e1eaabf"
				}
			},
			"userdoc": {
				"kind": "user",
				"methods": {},
				"version": 1
			}
		}
	}
}