{
	"Dropsite.sol": {
		"Dropsite": {
			"abi": [
				{
					"inputs": [
						{
							"internalType": "string",
							"name": "name",
							"type": "string"
						}
					],
					"stateMutability": "nonpayable",
					"type": "constructor"
				},
				{
					"anonymous": false,
					"inputs": [
						{
							"indexed": true,
							"internalType": "address",
							"name": "operator",
							"type": "address"
						},
						{
							"indexed": true,
							"internalType": "address",
							"name": "from",
							"type": "address"
						},
						{
							"indexed": true,
							"internalType": "address",
							"name": "to",
							"type": "address"
						},
						{
							"indexed": false,
							"internalType": "uint256",
							"name": "id",
							"type": "uint256"
						},
						{
							"indexed": false,
							"internalType": "uint256",
							"name": "value",
							"type": "uint256"
						}
					],
					"name": "TransferSingle",
					"type": "event"
				},
				{
					"inputs": [],
					"name": "ContractBalance",
					"outputs": [
						{
							"internalType": "uint256",
							"name": "",
							"type": "uint256"
						}
					],
					"stateMutability": "view",
					"type": "function"
				},
				{
					"inputs": [
						{
							"internalType": "address",
							"name": "user_addr",
							"type": "address"
						}
					],
					"name": "CryptoRandomMint",
					"outputs": [
						{
							"internalType": "uint256",
							"name": "",
							"type": "uint256"
						},
						{
							"internalType": "string",
							"name": "",
							"type": "string"
						}
					],
					"stateMutability": "payable",
					"type": "function"
				},
				{
					"inputs": [
						{
							"internalType": "address",
							"name": "user_addr",
							"type": "address"
						}
					],
					"name": "FiatRandomMint",
					"outputs": [
						{
							"internalType": "uint256",
							"name": "",
							"type": "uint256"
						},
						{
							"internalType": "string",
							"name": "",
							"type": "string"
						}
					],
					"stateMutability": "nonpayable",
					"type": "function"
				},
				{
					"inputs": [],
					"name": "IsPaused",
					"outputs": [
						{
							"internalType": "bool",
							"name": "",
							"type": "bool"
						}
					],
					"stateMutability": "view",
					"type": "function"
				},
				{
					"inputs": [],
					"name": "Owner",
					"outputs": [
						{
							"internalType": "address payable",
							"name": "",
							"type": "address"
						}
					],
					"stateMutability": "view",
					"type": "function"
				},
				{
					"inputs": [],
					"name": "checkMintedCategoryWise",
					"outputs": [
						{
							"internalType": "uint256",
							"name": "",
							"type": "uint256"
						},
						{
							"internalType": "uint256",
							"name": "",
							"type": "uint256"
						},
						{
							"internalType": "uint256",
							"name": "",
							"type": "uint256"
						}
					],
					"stateMutability": "view",
					"type": "function"
				},
				{
					"inputs": [],
					"name": "checkTotalMinted",
					"outputs": [
						{
							"internalType": "uint256",
							"name": "",
							"type": "uint256"
						}
					],
					"stateMutability": "view",
					"type": "function"
				},
				{
					"inputs": [],
					"name": "openDropsite",
					"outputs": [],
					"stateMutability": "nonpayable",
					"type": "function"
				},
				{
					"inputs": [
						{
							"internalType": "address",
							"name": "addr",
							"type": "address"
						}
					],
					"name": "returnOwner",
					"outputs": [
						{
							"internalType": "uint256[]",
							"name": "",
							"type": "uint256[]"
						}
					],
					"stateMutability": "view",
					"type": "function"
				},
				{
					"inputs": [],
					"name": "stopDropsite",
					"outputs": [],
					"stateMutability": "nonpayable",
					"type": "function"
				},
				{
					"inputs": [
						{
							"internalType": "address payable",
							"name": "to",
							"type": "address"
						}
					],
					"name": "withDraw",
					"outputs": [],
					"stateMutability": "payable",
					"type": "function"
				}
			],
			"devdoc": {
				"kind": "dev",
				"methods": {},
				"version": 1
			},
			"evm": {
				"assembly": "    /* \"Dropsite.sol\":241:257  string  data =\"\" */\n  0xa0\n    /* \"Dropsite.sol\":146:6210  contract Dropsite is ERC1155_Dropsite  { ... */\n  0x40\n    /* \"Dropsite.sol\":241:257  string  data =\"\" */\n  dup2\n  swap1\n  mstore\n  0x00\n    /* \"Dropsite.sol\":146:6210  contract Dropsite is ERC1155_Dropsite  { ... */\n  0x80\n    /* \"Dropsite.sol\":241:257  string  data =\"\" */\n  dup2\n  swap1\n  mstore\n  tag_1\n  swap2\n  0x02\n  swap2\n  tag_2\n  jump\t// in\ntag_1:\n  pop\n    /* \"Dropsite.sol\":440:506  uint8[20] private nums = [0,1,1,2,2,2,2,2,2,2,2,2,2,2,2,2,2,2,2,2] */\n  0x40\n  dup1\n  mload\n  0x0280\n  dup2\n  add\n  dup3\n  mstore\n  0x00\n  dup2\n  mstore\n    /* \"Dropsite.sol\":468:469  1 */\n  0x01\n    /* \"Dropsite.sol\":440:506  uint8[20] private nums = [0,1,1,2,2,2,2,2,2,2,2,2,2,2,2,2,2,2,2,2] */\n  0x20\n  dup3\n  add\n  dup2\n  swap1\n  mstore\n  swap2\n  dup2\n  add\n  swap2\n  swap1\n  swap2\n  mstore\n    /* \"Dropsite.sol\":472:473  2 */\n  0x02\n    /* \"Dropsite.sol\":440:506  uint8[20] private nums = [0,1,1,2,2,2,2,2,2,2,2,2,2,2,2,2,2,2,2,2] */\n  0x60\n  dup3\n  add\n  dup2\n  swap1\n  mstore\n  0x80\n  dup3\n  add\n  dup2\n  swap1\n  mstore\n  0xa0\n  dup3\n  add\n  dup2\n  swap1\n  mstore\n  0xc0\n  dup3\n  add\n  dup2\n  swap1\n  mstore\n  0xe0\n  dup3\n  add\n  dup2\n  swap1\n  mstore\n  0x0100\n  dup3\n  add\n  dup2\n  swap1\n  mstore\n  0x0120\n  dup3\n  add\n  dup2\n  swap1\n  mstore\n  0x0140\n  dup3\n  add\n  dup2\n  swap1\n  mstore\n  0x0160\n  dup3\n  add\n  dup2\n  swap1\n  mstore\n  0x0180\n  dup3\n  add\n  dup2\n  swap1\n  mstore\n  0x01a0\n  dup3\n  add\n  dup2\n  swap1\n  mstore\n  0x01c0\n  dup3\n  add\n  dup2\n  swap1\n  mstore\n  0x01e0\n  dup3\n  add\n  dup2\n  swap1\n  mstore\n  0x0200\n  dup3\n  add\n  dup2\n  swap1\n  mstore\n  0x0220\n  dup3\n  add\n  dup2\n  swap1\n  mstore\n  0x0240\n  dup3\n  add\n  dup2\n  swap1\n  mstore\n  0x0260\n  dup3\n  add\n  mstore\n  tag_3\n  swap1\n  0x03\n  swap1\n  0x14\n  tag_4\n  jump\t// in\ntag_3:\n  pop\n    /* \"Dropsite.sol\":1417:1444  bool public IsPaused = true */\n  0x0b\n  dup1\n  sload\n  not(0xff)\n  and\n    /* \"Dropsite.sol\":1440:1444  true */\n  0x01\n    /* \"Dropsite.sol\":1417:1444  bool public IsPaused = true */\n  or\n  swap1\n  sstore\n    /* \"Dropsite.sol\":1511:1786  constructor (string memory name){... */\n  callvalue\n  dup1\n  iszero\n  tag_5\n  jumpi\n  0x00\n  dup1\n  revert\ntag_5:\n  pop\n  mload(0x40)\n  sub(codesize, bytecodeSize)\n  dup1\n  bytecodeSize\n  dup4\n  codecopy\n  dup2\n  add\n  0x40\n  dup2\n  swap1\n  mstore\n  tag_6\n  swap2\n  tag_7\n  jump\t// in\ntag_6:\n    /* \"Dropsite.sol\":1553:1565  _name = name */\n  dup1\n  mload\n  tag_10\n  swap1\n    /* \"Dropsite.sol\":1553:1558  _name */\n  0x0c\n  swap1\n    /* \"Dropsite.sol\":1553:1565  _name = name */\n  0x20\n  dup5\n  add\n  swap1\n  tag_2\n  jump\t// in\ntag_10:\n  pop\n  pop\n    /* \"Dropsite.sol\":1575:1580  Owner */\n  0x0b\n    /* \"Dropsite.sol\":1575:1602  Owner = payable(msg.sender) */\n  dup1\n  sload\n  not(sub(shl(0xa8, 0x01), 0x0100))\n  and\n    /* \"Dropsite.sol\":1591:1601  msg.sender */\n  caller\n    /* \"Dropsite.sol\":1575:1602  Owner = payable(msg.sender) */\n  0x0100\n  mul\n  or\n  swap1\n  sstore\n  0x00\n    /* \"Dropsite.sol\":1613:1628  TotalNFTsMinted */\n  0x04\n    /* \"Dropsite.sol\":1613:1630  TotalNFTsMinted=0 */\n  dup2\n  swap1\n  sstore\n  0x01\n    /* \"Dropsite.sol\":1664:1675  numOfCopies */\n  0x05\n    /* \"Dropsite.sol\":1664:1677  numOfCopies=1 */\n  sstore\n  0x06\n    /* \"Dropsite.sol\":1724:1733  Diamond=0 */\n  dup2\n  swap1\n  sstore\n  0x07\n    /* \"Dropsite.sol\":1755:1761  Gold=0 */\n  dup2\n  swap1\n  sstore\n    /* \"Dropsite.sol\":1771:1777  Silver */\n  0x08\n    /* \"Dropsite.sol\":1771:1779  Silver=0 */\n  sstore\n    /* \"Dropsite.sol\":146:6210  contract Dropsite is ERC1155_Dropsite  { ... */\n  jump(tag_28)\ntag_2:\n  dup3\n  dup1\n  sload\n  tag_12\n  swap1\n  tag_13\n  jump\t// in\ntag_12:\n  swap1\n  0x00\n  mstore\n  keccak256(0x00, 0x20)\n  swap1\n  0x1f\n  add\n  0x20\n  swap1\n  div\n  dup2\n  add\n  swap3\n  dup3\n  tag_15\n  jumpi\n  0x00\n  dup6\n  sstore\n  jump(tag_18)\ntag_15:\n  dup3\n  0x1f\n  lt\n  tag_16\n  jumpi\n  dup1\n  mload\n  not(0xff)\n  and\n  dup4\n  dup1\n  add\n  or\n  dup6\n  sstore\n  jump(tag_18)\ntag_16:\n  dup3\n  dup1\n  add\n  0x01\n  add\n  dup6\n  sstore\n  dup3\n  iszero\n  tag_18\n  jumpi\n  swap2\n  dup3\n  add\ntag_17:\n  dup3\n  dup2\n  gt\n  iszero\n  tag_18\n  jumpi\n  dup3\n  mload\n  dup3\n  sstore\n  swap2\n  0x20\n  add\n  swap2\n  swap1\n  0x01\n  add\n  swap1\n  jump(tag_17)\ntag_18:\n  pop\n  tag_19\n  swap3\n  swap2\n  pop\n  tag_20\n  jump\t// in\ntag_19:\n  pop\n  swap1\n  jump\t// out\ntag_4:\n  0x01\n  dup4\n  add\n  swap2\n  dup4\n  swap1\n  dup3\n  iszero\n  tag_18\n  jumpi\n  swap2\n  0x20\n  mul\n  dup3\n  add\n  0x00\ntag_22:\n  dup4\n  dup3\n  gt\n  iszero\n  tag_23\n  jumpi\n  dup4\n  mload\n  dup4\n  dup3\n  0x0100\n  exp\n  dup2\n  sload\n  dup2\n  0xff\n  mul\n  not\n  and\n  swap1\n  dup4\n  0xff\n  and\n  mul\n  or\n  swap1\n  sstore\n  pop\n  swap3\n  0x20\n  add\n  swap3\n  0x01\n  add\n  0x20\n  dup2\n  0x00\n  add\n  div\n  swap3\n  dup4\n  add\n  swap3\n  0x01\n  sub\n  mul\n  jump(tag_22)\ntag_23:\n  dup1\n  iszero\n  tag_24\n  jumpi\n  dup3\n  dup2\n  0x0100\n  exp\n  dup2\n  sload\n  swap1\n  0xff\n  mul\n  not\n  and\n  swap1\n  sstore\n  0x01\n  add\n  0x20\n  dup2\n  0x00\n  add\n  div\n  swap3\n  dup4\n  add\n  swap3\n  0x01\n  sub\n  mul\n  jump(tag_23)\ntag_24:\n  pop\n  pop\n  tag_19\n  swap3\n  swap2\n  pop\ntag_20:\ntag_26:\n  dup1\n  dup3\n  gt\n  iszero\n  tag_19\n  jumpi\n  0x00\n  dup2\n  sstore\n  0x01\n  add\n  jump(tag_26)\n    /* \"#utility.yul\":14:1101   */\ntag_7:\n    /* \"#utility.yul\":94:100   */\n  0x00\n    /* \"#utility.yul\":125:127   */\n  0x20\n    /* \"#utility.yul\":168:170   */\n  dup1\n    /* \"#utility.yul\":156:165   */\n  dup4\n    /* \"#utility.yul\":147:154   */\n  dup6\n    /* \"#utility.yul\":143:166   */\n  sub\n    /* \"#utility.yul\":139:171   */\n  slt\n    /* \"#utility.yul\":136:188   */\n  iszero\n  tag_30\n  jumpi\n    /* \"#utility.yul\":184:185   */\n  0x00\n    /* \"#utility.yul\":181:182   */\n  dup1\n    /* \"#utility.yul\":174:186   */\n  revert\n    /* \"#utility.yul\":136:188   */\ntag_30:\n    /* \"#utility.yul\":211:227   */\n  dup3\n  mload\n  sub(shl(0x40, 0x01), 0x01)\n    /* \"#utility.yul\":276:290   */\n  dup1\n  dup3\n  gt\n    /* \"#utility.yul\":273:307   */\n  iszero\n  tag_31\n  jumpi\n    /* \"#utility.yul\":303:304   */\n  0x00\n    /* \"#utility.yul\":300:301   */\n  dup1\n    /* \"#utility.yul\":293:305   */\n  revert\n    /* \"#utility.yul\":273:307   */\ntag_31:\n    /* \"#utility.yul\":341:347   */\n  dup2\n    /* \"#utility.yul\":330:339   */\n  dup6\n    /* \"#utility.yul\":326:348   */\n  add\n    /* \"#utility.yul\":316:348   */\n  swap2\n  pop\n    /* \"#utility.yul\":386:393   */\n  dup6\n    /* \"#utility.yul\":379:383   */\n  0x1f\n    /* \"#utility.yul\":375:377   */\n  dup4\n    /* \"#utility.yul\":371:384   */\n  add\n    /* \"#utility.yul\":367:394   */\n  slt\n    /* \"#utility.yul\":357:412   */\n  tag_32\n  jumpi\n    /* \"#utility.yul\":408:409   */\n  0x00\n    /* \"#utility.yul\":405:406   */\n  dup1\n    /* \"#utility.yul\":398:410   */\n  revert\n    /* \"#utility.yul\":357:412   */\ntag_32:\n    /* \"#utility.yul\":437:439   */\n  dup2\n    /* \"#utility.yul\":431:440   */\n  mload\n    /* \"#utility.yul\":459:461   */\n  dup2\n    /* \"#utility.yul\":455:457   */\n  dup2\n    /* \"#utility.yul\":452:462   */\n  gt\n    /* \"#utility.yul\":449:485   */\n  iszero\n  tag_34\n  jumpi\n    /* \"#utility.yul\":465:483   */\n  tag_34\n  tag_35\n  jump\t// in\ntag_34:\n    /* \"#utility.yul\":540:542   */\n  0x40\n    /* \"#utility.yul\":534:543   */\n  mload\n    /* \"#utility.yul\":508:510   */\n  0x1f\n    /* \"#utility.yul\":594:607   */\n  dup3\n  add\n  not(0x1f)\n    /* \"#utility.yul\":590:612   */\n  swap1\n  dup2\n  and\n    /* \"#utility.yul\":614:616   */\n  0x3f\n    /* \"#utility.yul\":586:617   */\n  add\n    /* \"#utility.yul\":582:622   */\n  and\n    /* \"#utility.yul\":570:623   */\n  dup2\n  add\n  swap1\n    /* \"#utility.yul\":638:656   */\n  dup4\n  dup3\n  gt\n    /* \"#utility.yul\":658:680   */\n  dup2\n  dup4\n  lt\n    /* \"#utility.yul\":635:681   */\n  or\n    /* \"#utility.yul\":632:704   */\n  iszero\n  tag_37\n  jumpi\n    /* \"#utility.yul\":684:702   */\n  tag_37\n  tag_35\n  jump\t// in\ntag_37:\n    /* \"#utility.yul\":724:734   */\n  dup2\n    /* \"#utility.yul\":720:722   */\n  0x40\n    /* \"#utility.yul\":713:735   */\n  mstore\n    /* \"#utility.yul\":759:761   */\n  dup3\n    /* \"#utility.yul\":751:757   */\n  dup2\n    /* \"#utility.yul\":744:762   */\n  mstore\n    /* \"#utility.yul\":799:806   */\n  dup9\n    /* \"#utility.yul\":794:796   */\n  dup7\n    /* \"#utility.yul\":789:791   */\n  dup5\n    /* \"#utility.yul\":785:787   */\n  dup8\n    /* \"#utility.yul\":781:792   */\n  add\n    /* \"#utility.yul\":777:797   */\n  add\n    /* \"#utility.yul\":774:807   */\n  gt\n    /* \"#utility.yul\":771:824   */\n  iszero\n  tag_38\n  jumpi\n    /* \"#utility.yul\":820:821   */\n  0x00\n    /* \"#utility.yul\":817:818   */\n  dup1\n    /* \"#utility.yul\":810:822   */\n  revert\n    /* \"#utility.yul\":771:824   */\ntag_38:\n    /* \"#utility.yul\":842:843   */\n  0x00\n    /* \"#utility.yul\":833:843   */\n  swap4\n  pop\n    /* \"#utility.yul\":852:981   */\ntag_39:\n    /* \"#utility.yul\":866:868   */\n  dup3\n    /* \"#utility.yul\":863:864   */\n  dup5\n    /* \"#utility.yul\":860:869   */\n  lt\n    /* \"#utility.yul\":852:981   */\n  iszero\n  tag_41\n  jumpi\n    /* \"#utility.yul\":954:964   */\n  dup5\n  dup5\n  add\n    /* \"#utility.yul\":950:969   */\n  dup7\n  add\n    /* \"#utility.yul\":944:970   */\n  mload\n    /* \"#utility.yul\":923:937   */\n  dup2\n  dup6\n  add\n    /* \"#utility.yul\":919:942   */\n  dup8\n  add\n    /* \"#utility.yul\":912:971   */\n  mstore\n    /* \"#utility.yul\":877:887   */\n  swap3\n  dup6\n  add\n  swap3\n    /* \"#utility.yul\":852:981   */\n  jump(tag_39)\ntag_41:\n    /* \"#utility.yul\":999:1001   */\n  dup3\n    /* \"#utility.yul\":996:997   */\n  dup5\n    /* \"#utility.yul\":993:1002   */\n  gt\n    /* \"#utility.yul\":990:1070   */\n  iszero\n  tag_42\n  jumpi\n    /* \"#utility.yul\":1058:1059   */\n  0x00\n    /* \"#utility.yul\":1053:1055   */\n  dup7\n    /* \"#utility.yul\":1048:1050   */\n  dup5\n    /* \"#utility.yul\":1040:1046   */\n  dup4\n    /* \"#utility.yul\":1036:1051   */\n  add\n    /* \"#utility.yul\":1032:1056   */\n  add\n    /* \"#utility.yul\":1025:1060   */\n  mstore\n    /* \"#utility.yul\":990:1070   */\ntag_42:\n    /* \"#utility.yul\":1089:1095   */\n  swap9\n    /* \"#utility.yul\":14:1101   */\n  swap8\n  pop\n  pop\n  pop\n  pop\n  pop\n  pop\n  pop\n  pop\n  jump\t// out\n    /* \"#utility.yul\":1106:1486   */\ntag_13:\n    /* \"#utility.yul\":1185:1186   */\n  0x01\n    /* \"#utility.yul\":1181:1193   */\n  dup2\n  dup2\n  shr\n  swap1\n    /* \"#utility.yul\":1228:1240   */\n  dup3\n  and\n  dup1\n    /* \"#utility.yul\":1249:1310   */\n  tag_44\n  jumpi\n    /* \"#utility.yul\":1303:1307   */\n  0x7f\n    /* \"#utility.yul\":1295:1301   */\n  dup3\n    /* \"#utility.yul\":1291:1308   */\n  and\n    /* \"#utility.yul\":1281:1308   */\n  swap2\n  pop\n    /* \"#utility.yul\":1249:1310   */\ntag_44:\n    /* \"#utility.yul\":1356:1358   */\n  0x20\n    /* \"#utility.yul\":1348:1354   */\n  dup3\n    /* \"#utility.yul\":1345:1359   */\n  lt\n    /* \"#utility.yul\":1325:1343   */\n  dup2\n    /* \"#utility.yul\":1322:1360   */\n  eq\n    /* \"#utility.yul\":1319:1480   */\n  iszero\n  tag_45\n  jumpi\n    /* \"#utility.yul\":1402:1412   */\n  0x4e487b71\n    /* \"#utility.yul\":1397:1400   */\n  0xe0\n    /* \"#utility.yul\":1393:1413   */\n  shl\n    /* \"#utility.yul\":1390:1391   */\n  0x00\n    /* \"#utility.yul\":1383:1414   */\n  mstore\n    /* \"#utility.yul\":1437:1441   */\n  0x22\n    /* \"#utility.yul\":1434:1435   */\n  0x04\n    /* \"#utility.yul\":1427:1442   */\n  mstore\n    /* \"#utility.yul\":1465:1469   */\n  0x24\n    /* \"#utility.yul\":1462:1463   */\n  0x00\n    /* \"#utility.yul\":1455:1470   */\n  revert\n    /* \"#utility.yul\":1319:1480   */\ntag_45:\n  pop\n    /* \"#utility.yul\":1106:1486   */\n  swap2\n  swap1\n  pop\n  jump\t// out\n    /* \"#utility.yul\":1491:1618   */\ntag_35:\n    /* \"#utility.yul\":1552:1562   */\n  0x4e487b71\n    /* \"#utility.yul\":1547:1550   */\n  0xe0\n    /* \"#utility.yul\":1543:1563   */\n  shl\n    /* \"#utility.yul\":1540:1541   */\n  0x00\n    /* \"#utility.yul\":1533:1564   */\n  mstore\n    /* \"#utility.yul\":1583:1587   */\n  0x41\n    /* \"#utility.yul\":1580:1581   */\n  0x04\n    /* \"#utility.yul\":1573:1588   */\n  mstore\n    /* \"#utility.yul\":1607:1611   */\n  0x24\n    /* \"#utility.yul\":1604:1605   */\n  0x00\n    /* \"#utility.yul\":1597:1612   */\n  revert\n    /* \"#utility.yul\":1491:1618   */\ntag_28:\n    /* \"Dropsite.sol\":146:6210  contract Dropsite is ERC1155_Dropsite  { ... */\n  dataSize(sub_0)\n  dup1\n  dataOffset(sub_0)\n  0x00\n  codecopy\n  0x00\n  return\nstop\n\nsub_0: assembly {\n        /* \"Dropsite.sol\":146:6210  contract Dropsite is ERC1155_Dropsite  { ... */\n      mstore(0x40, 0x80)\n      jumpi(tag_1, lt(calldatasize, 0x04))\n      shr(0xe0, calldataload(0x00))\n      dup1\n      0x3b668059\n      gt\n      tag_13\n      jumpi\n      dup1\n      0x3b668059\n      eq\n      tag_7\n      jumpi\n      dup1\n      0x3d65df70\n      eq\n      tag_8\n      jumpi\n      dup1\n      0x60daa851\n      eq\n      tag_9\n      jumpi\n      dup1\n      0xaa90c726\n      eq\n      tag_10\n      jumpi\n      dup1\n      0xb4a99a4e\n      eq\n      tag_11\n      jumpi\n      dup1\n      0xfd6c3b1b\n      eq\n      tag_12\n      jumpi\n      0x00\n      dup1\n      revert\n    tag_13:\n      dup1\n      0x0390c11c\n      eq\n      tag_2\n      jumpi\n      dup1\n      0x0a67d2c7\n      eq\n      tag_3\n      jumpi\n      dup1\n      0x1309a563\n      eq\n      tag_4\n      jumpi\n      dup1\n      0x15460259\n      eq\n      tag_5\n      jumpi\n      dup1\n      0x32b61b4c\n      eq\n      tag_6\n      jumpi\n    tag_1:\n      0x00\n      dup1\n      revert\n        /* \"Dropsite.sol\":2007:2111  function checkTotalMinted() public view OnlyOwner returns(uint){... */\n    tag_2:\n      callvalue\n      dup1\n      iszero\n      tag_14\n      jumpi\n      0x00\n      dup1\n      revert\n    tag_14:\n      pop\n      tag_15\n      tag_16\n      jump\t// in\n    tag_15:\n      mload(0x40)\n        /* \"#utility.yul\":8384:8409   */\n      swap1\n      dup2\n      mstore\n        /* \"#utility.yul\":8372:8374   */\n      0x20\n        /* \"#utility.yul\":8357:8375   */\n      add\n        /* \"Dropsite.sol\":2007:2111  function checkTotalMinted() public view OnlyOwner returns(uint){... */\n    tag_17:\n      mload(0x40)\n      dup1\n      swap2\n      sub\n      swap1\n      return\n        /* \"Dropsite.sol\":2490:2704  function withDraw(address payable to) public payable OnlyOwner {... */\n    tag_3:\n      tag_19\n      tag_20\n      calldatasize\n      0x04\n      tag_34\n      jump\t// in\n    tag_20:\n      tag_22\n      jump\t// in\n    tag_19:\n      stop\n        /* \"Dropsite.sol\":1417:1444  bool public IsPaused = true */\n    tag_4:\n      callvalue\n      dup1\n      iszero\n      tag_23\n      jumpi\n      0x00\n      dup1\n      revert\n    tag_23:\n      pop\n      sload(0x0b)\n      tag_24\n      swap1\n      0xff\n      and\n      dup2\n      jump\n    tag_24:\n      mload(0x40)\n        /* \"#utility.yul\":4263:4277   */\n      swap1\n      iszero\n        /* \"#utility.yul\":4256:4278   */\n      iszero\n        /* \"#utility.yul\":4238:4279   */\n      dup2\n      mstore\n        /* \"#utility.yul\":4226:4228   */\n      0x20\n        /* \"#utility.yul\":4211:4229   */\n      add\n        /* \"Dropsite.sol\":1417:1444  bool public IsPaused = true */\n      tag_17\n        /* \"#utility.yul\":4098:4285   */\n      jump\n        /* \"Dropsite.sol\":2259:2395  function openDropsite() public OnlyOwner {... */\n    tag_5:\n      callvalue\n      dup1\n      iszero\n      tag_28\n      jumpi\n      0x00\n      dup1\n      revert\n    tag_28:\n      pop\n      tag_19\n      tag_30\n      jump\t// in\n        /* \"Dropsite.sol\":4957:5403  function FiatRandomMint(address user_addr) OnlyOwner contractIsNotPaused public returns (uint,string memory) {... */\n    tag_6:\n      callvalue\n      dup1\n      iszero\n      tag_31\n      jumpi\n      0x00\n      dup1\n      revert\n    tag_31:\n      pop\n      tag_32\n      tag_33\n      calldatasize\n      0x04\n      tag_34\n      jump\t// in\n    tag_33:\n      tag_35\n      jump\t// in\n    tag_32:\n      mload(0x40)\n      tag_17\n      swap3\n      swap2\n      swap1\n      tag_37\n      jump\t// in\n        /* \"Dropsite.sol\":2757:2865  function ContractBalance() public view OnlyOwner returns (uint){... */\n    tag_7:\n      callvalue\n      dup1\n      iszero\n      tag_38\n      jumpi\n      0x00\n      dup1\n      revert\n    tag_38:\n      pop\n      tag_15\n      tag_40\n      jump\t// in\n        /* \"Dropsite.sol\":5620:6208  function CryptoRandomMint(address user_addr)  contractIsNotPaused public payable returns (uint,string memory) {... */\n    tag_8:\n      tag_32\n      tag_43\n      calldatasize\n      0x04\n      tag_34\n      jump\t// in\n    tag_43:\n      tag_44\n      jump\t// in\n        /* \"Dropsite.sol\":1840:1967  function checkMintedCategoryWise() public view OnlyOwner returns(uint,uint,uint){... */\n    tag_9:\n      callvalue\n      dup1\n      iszero\n      tag_46\n      jumpi\n      0x00\n      dup1\n      revert\n    tag_46:\n      pop\n      tag_47\n      tag_48\n      jump\t// in\n    tag_47:\n      0x40\n      dup1\n      mload\n        /* \"#utility.yul\":9171:9196   */\n      swap4\n      dup5\n      mstore\n        /* \"#utility.yul\":9227:9229   */\n      0x20\n        /* \"#utility.yul\":9212:9230   */\n      dup5\n      add\n        /* \"#utility.yul\":9205:9239   */\n      swap3\n      swap1\n      swap3\n      mstore\n        /* \"#utility.yul\":9255:9273   */\n      swap1\n      dup3\n      add\n        /* \"#utility.yul\":9248:9282   */\n      mstore\n        /* \"#utility.yul\":9159:9161   */\n      0x60\n        /* \"#utility.yul\":9144:9162   */\n      add\n        /* \"Dropsite.sol\":1840:1967  function checkMintedCategoryWise() public view OnlyOwner returns(uint,uint,uint){... */\n      tag_17\n        /* \"#utility.yul\":8969:9288   */\n      jump\n        /* \"Dropsite.sol\":2117:2252  function stopDropsite() public OnlyOwner{... */\n    tag_10:\n      callvalue\n      dup1\n      iszero\n      tag_51\n      jumpi\n      0x00\n      dup1\n      revert\n    tag_51:\n      pop\n      tag_19\n      tag_53\n      jump\t// in\n        /* \"Dropsite.sol\":1450:1479  address payable public  Owner */\n    tag_11:\n      callvalue\n      dup1\n      iszero\n      tag_54\n      jumpi\n      0x00\n      dup1\n      revert\n    tag_54:\n      pop\n      sload(0x0b)\n      tag_55\n      swap1\n      0x0100\n      swap1\n      div\n      sub(shl(0xa0, 0x01), 0x01)\n      and\n      dup2\n      jump\n    tag_55:\n      mload(0x40)\n      sub(shl(0xa0, 0x01), 0x01)\n        /* \"#utility.yul\":2849:2881   */\n      swap1\n      swap2\n      and\n        /* \"#utility.yul\":2831:2882   */\n      dup2\n      mstore\n        /* \"#utility.yul\":2819:2821   */\n      0x20\n        /* \"#utility.yul\":2804:2822   */\n      add\n        /* \"Dropsite.sol\":1450:1479  address payable public  Owner */\n      tag_17\n        /* \"#utility.yul\":2669:2888   */\n      jump\n        /* \"Dropsite.sol\":930:1068  function returnOwner(address addr) public view returns (uint[] memory){... */\n    tag_12:\n      callvalue\n      dup1\n      iszero\n      tag_59\n      jumpi\n      0x00\n      dup1\n      revert\n    tag_59:\n      pop\n      tag_60\n      tag_61\n      calldatasize\n      0x04\n      tag_34\n      jump\t// in\n    tag_61:\n      tag_62\n      jump\t// in\n    tag_60:\n      mload(0x40)\n      tag_17\n      swap2\n      swap1\n      tag_64\n      jump\t// in\n        /* \"Dropsite.sol\":2007:2111  function checkTotalMinted() public view OnlyOwner returns(uint){... */\n    tag_16:\n        /* \"Dropsite.sol\":1189:1194  Owner */\n      sload(0x0b)\n        /* \"Dropsite.sol\":2065:2069  uint */\n      0x00\n      swap1\n        /* \"Dropsite.sol\":1189:1194  Owner */\n      0x0100\n      swap1\n      div\n      sub(shl(0xa0, 0x01), 0x01)\n      and\n        /* \"Context.sol\":719:729  msg.sender */\n      caller\n      sub(shl(0xa0, 0x01), 0x01)\n        /* \"Dropsite.sol\":1173:1194  _msgSender() == Owner */\n      and\n      eq\n        /* \"Dropsite.sol\":1165:1227  require(_msgSender() == Owner, \"Only NFT-ES Owner can Access\") */\n      tag_68\n      jumpi\n      mload(0x40)\n      shl(0xe5, 0x461bcd)\n      dup2\n      mstore\n      0x04\n      add\n      tag_69\n      swap1\n      tag_70\n      jump\t// in\n    tag_69:\n      mload(0x40)\n      dup1\n      swap2\n      sub\n      swap1\n      revert\n    tag_68:\n      pop\n        /* \"Dropsite.sol\":2088:2103  TotalNFTsMinted */\n      sload(0x04)\n        /* \"Dropsite.sol\":1237:1238  _ */\n    tag_71:\n        /* \"Dropsite.sol\":2007:2111  function checkTotalMinted() public view OnlyOwner returns(uint){... */\n      swap1\n      jump\t// out\n        /* \"Dropsite.sol\":2490:2704  function withDraw(address payable to) public payable OnlyOwner {... */\n    tag_22:\n        /* \"Dropsite.sol\":1189:1194  Owner */\n      sload(0x0b)\n      0x0100\n      swap1\n      div\n      sub(shl(0xa0, 0x01), 0x01)\n      and\n        /* \"Context.sol\":719:729  msg.sender */\n      caller\n      sub(shl(0xa0, 0x01), 0x01)\n        /* \"Dropsite.sol\":1173:1194  _msgSender() == Owner */\n      and\n      eq\n        /* \"Dropsite.sol\":1165:1227  require(_msgSender() == Owner, \"Only NFT-ES Owner can Access\") */\n      tag_74\n      jumpi\n      mload(0x40)\n      shl(0xe5, 0x461bcd)\n      dup2\n      mstore\n      0x04\n      add\n      tag_69\n      swap1\n      tag_70\n      jump\t// in\n    tag_74:\n        /* \"Dropsite.sol\":2578:2599  address(this).balance */\n      selfbalance\n        /* \"Dropsite.sol\":2617:2632  Balance > 0 wei */\n      dup1\n        /* \"Dropsite.sol\":2609:2666  require(Balance > 0 wei, \"Error! No Balance to withdraw\") */\n      tag_77\n      jumpi\n      mload(0x40)\n      shl(0xe5, 0x461bcd)\n      dup2\n      mstore\n        /* \"#utility.yul\":7680:7682   */\n      0x20\n        /* \"Dropsite.sol\":2609:2666  require(Balance > 0 wei, \"Error! No Balance to withdraw\") */\n      0x04\n      dup3\n      add\n        /* \"#utility.yul\":7662:7683   */\n      mstore\n        /* \"#utility.yul\":7719:7721   */\n      0x1d\n        /* \"#utility.yul\":7699:7717   */\n      0x24\n      dup3\n      add\n        /* \"#utility.yul\":7692:7722   */\n      mstore\n        /* \"#utility.yul\":7758:7789   */\n      0x4572726f7221204e6f2042616c616e636520746f207769746864726177000000\n        /* \"#utility.yul\":7738:7756   */\n      0x44\n      dup3\n      add\n        /* \"#utility.yul\":7731:7790   */\n      mstore\n        /* \"#utility.yul\":7807:7825   */\n      0x64\n      add\n        /* \"Dropsite.sol\":2609:2666  require(Balance > 0 wei, \"Error! No Balance to withdraw\") */\n      tag_69\n        /* \"#utility.yul\":7478:7831   */\n      jump\n        /* \"Dropsite.sol\":2609:2666  require(Balance > 0 wei, \"Error! No Balance to withdraw\") */\n    tag_77:\n        /* \"Dropsite.sol\":2677:2697  to.transfer(Balance) */\n      mload(0x40)\n      sub(shl(0xa0, 0x01), 0x01)\n        /* \"Dropsite.sol\":2677:2688  to.transfer */\n      dup4\n      and\n      swap1\n        /* \"Dropsite.sol\":2677:2697  to.transfer(Balance) */\n      dup3\n      iszero\n      0x08fc\n      mul\n      swap1\n        /* \"Dropsite.sol\":2689:2696  Balance */\n      dup4\n      swap1\n        /* \"Dropsite.sol\":2677:2697  to.transfer(Balance) */\n      0x00\n      dup2\n      dup2\n      dup2\n        /* \"Dropsite.sol\":2689:2696  Balance */\n      dup6\n        /* \"Dropsite.sol\":2677:2688  to.transfer */\n      dup9\n        /* \"Dropsite.sol\":2677:2697  to.transfer(Balance) */\n      dup9\n      call\n      swap4\n      pop\n      pop\n      pop\n      pop\n      iszero\n      dup1\n      iszero\n      tag_81\n      jumpi\n      returndatasize\n      0x00\n      dup1\n      returndatacopy\n      revert(0x00, returndatasize)\n    tag_81:\n      pop\n        /* \"Dropsite.sol\":2553:2704  {... */\n      pop\n        /* \"Dropsite.sol\":2490:2704  function withDraw(address payable to) public payable OnlyOwner {... */\n      pop\n      jump\t// out\n        /* \"Dropsite.sol\":2259:2395  function openDropsite() public OnlyOwner {... */\n    tag_30:\n        /* \"Dropsite.sol\":1189:1194  Owner */\n      sload(0x0b)\n      0x0100\n      swap1\n      div\n      sub(shl(0xa0, 0x01), 0x01)\n      and\n        /* \"Context.sol\":719:729  msg.sender */\n      caller\n      sub(shl(0xa0, 0x01), 0x01)\n        /* \"Dropsite.sol\":1173:1194  _msgSender() == Owner */\n      and\n      eq\n        /* \"Dropsite.sol\":1165:1227  require(_msgSender() == Owner, \"Only NFT-ES Owner can Access\") */\n      tag_84\n      jumpi\n      mload(0x40)\n      shl(0xe5, 0x461bcd)\n      dup2\n      mstore\n      0x04\n      add\n      tag_69\n      swap1\n      tag_70\n      jump\t// in\n    tag_84:\n        /* \"Dropsite.sol\":2318:2326  IsPaused */\n      and(0xff, sload(0x0b))\n        /* \"Dropsite.sol\":2318:2332  IsPaused==true */\n      iszero\n      iszero\n        /* \"Dropsite.sol\":2318:2326  IsPaused */\n      0x01\n        /* \"Dropsite.sol\":2318:2332  IsPaused==true */\n      eq\n        /* \"Dropsite.sol\":2310:2364  require(IsPaused==true, \"Dropsite is already Running\") */\n      tag_87\n      jumpi\n      mload(0x40)\n      shl(0xe5, 0x461bcd)\n      dup2\n      mstore\n        /* \"#utility.yul\":5901:5903   */\n      0x20\n        /* \"Dropsite.sol\":2310:2364  require(IsPaused==true, \"Dropsite is already Running\") */\n      0x04\n      dup3\n      add\n        /* \"#utility.yul\":5883:5904   */\n      mstore\n        /* \"#utility.yul\":5940:5942   */\n      0x1b\n        /* \"#utility.yul\":5920:5938   */\n      0x24\n      dup3\n      add\n        /* \"#utility.yul\":5913:5943   */\n      mstore\n        /* \"#utility.yul\":5979:6008   */\n      0x44726f707369746520697320616c72656164792052756e6e696e670000000000\n        /* \"#utility.yul\":5959:5977   */\n      0x44\n      dup3\n      add\n        /* \"#utility.yul\":5952:6009   */\n      mstore\n        /* \"#utility.yul\":6026:6044   */\n      0x64\n      add\n        /* \"Dropsite.sol\":2310:2364  require(IsPaused==true, \"Dropsite is already Running\") */\n      tag_69\n        /* \"#utility.yul\":5699:6050   */\n      jump\n        /* \"Dropsite.sol\":2310:2364  require(IsPaused==true, \"Dropsite is already Running\") */\n    tag_87:\n        /* \"Dropsite.sol\":2374:2382  IsPaused */\n      0x0b\n        /* \"Dropsite.sol\":2374:2388  IsPaused=false */\n      dup1\n      sload\n      not(0xff)\n      and\n      swap1\n      sstore\n        /* \"Dropsite.sol\":2259:2395  function openDropsite() public OnlyOwner {... */\n      jump\t// out\n        /* \"Dropsite.sol\":4957:5403  function FiatRandomMint(address user_addr) OnlyOwner contractIsNotPaused public returns (uint,string memory) {... */\n    tag_35:\n        /* \"Dropsite.sol\":1189:1194  Owner */\n      sload(0x0b)\n        /* \"Dropsite.sol\":5046:5050  uint */\n      0x00\n      swap1\n        /* \"Dropsite.sol\":5051:5064  string memory */\n      0x60\n      swap1\n        /* \"Dropsite.sol\":1189:1194  Owner */\n      0x0100\n      swap1\n      div\n      sub(shl(0xa0, 0x01), 0x01)\n      and\n        /* \"Context.sol\":719:729  msg.sender */\n      caller\n      sub(shl(0xa0, 0x01), 0x01)\n        /* \"Dropsite.sol\":1173:1194  _msgSender() == Owner */\n      and\n      eq\n        /* \"Dropsite.sol\":1165:1227  require(_msgSender() == Owner, \"Only NFT-ES Owner can Access\") */\n      tag_92\n      jumpi\n      mload(0x40)\n      shl(0xe5, 0x461bcd)\n      dup2\n      mstore\n      0x04\n      add\n      tag_69\n      swap1\n      tag_70\n      jump\t// in\n    tag_92:\n        /* \"Dropsite.sol\":1342:1350  IsPaused */\n      and(0xff, sload(0x0b))\n        /* \"Dropsite.sol\":1342:1359  IsPaused == false */\n      iszero\n        /* \"Dropsite.sol\":1333:1392  require (IsPaused == false, \"Dropsite is not Opened Yet.\" ) */\n      tag_95\n      jumpi\n      mload(0x40)\n      shl(0xe5, 0x461bcd)\n      dup2\n      mstore\n      0x04\n      add\n      tag_69\n      swap1\n      tag_97\n      jump\t// in\n    tag_95:\n        /* \"Dropsite.sol\":5097:5101  1000 */\n      0x03e8\n        /* \"Dropsite.sol\":5081:5096  TotalNFTsMinted */\n      sload(0x04)\n        /* \"Dropsite.sol\":5081:5101  TotalNFTsMinted<1000 */\n      lt\n        /* \"Dropsite.sol\":5073:5131  require(TotalNFTsMinted<1000, \"Max Minting Limit reached\") */\n      tag_99\n      jumpi\n      mload(0x40)\n      shl(0xe5, 0x461bcd)\n      dup2\n      mstore\n        /* \"#utility.yul\":7326:7328   */\n      0x20\n        /* \"Dropsite.sol\":5073:5131  require(TotalNFTsMinted<1000, \"Max Minting Limit reached\") */\n      0x04\n      dup3\n      add\n        /* \"#utility.yul\":7308:7329   */\n      mstore\n        /* \"#utility.yul\":7365:7367   */\n      0x19\n        /* \"#utility.yul\":7345:7363   */\n      0x24\n      dup3\n      add\n        /* \"#utility.yul\":7338:7368   */\n      mstore\n      shl(0x3a, 0x13585e08135a5b9d1a5b99c8131a5b5a5d081c995858da1959)\n        /* \"#utility.yul\":7384:7402   */\n      0x44\n      dup3\n      add\n        /* \"#utility.yul\":7377:7432   */\n      mstore\n        /* \"#utility.yul\":7449:7467   */\n      0x64\n      add\n        /* \"Dropsite.sol\":5073:5131  require(TotalNFTsMinted<1000, \"Max Minting Limit reached\") */\n      tag_69\n        /* \"#utility.yul\":7124:7473   */\n      jump\n        /* \"Dropsite.sol\":5073:5131  require(TotalNFTsMinted<1000, \"Max Minting Limit reached\") */\n    tag_99:\n        /* \"Dropsite.sol\":5194:5204  uint nftId */\n      0x00\n        /* \"Dropsite.sol\":5207:5225  updateConditions() */\n      tag_102\n        /* \"Dropsite.sol\":5207:5223  updateConditions */\n      tag_103\n        /* \"Dropsite.sol\":5207:5225  updateConditions() */\n      jump\t// in\n    tag_102:\n        /* \"Dropsite.sol\":5194:5225  uint nftId = updateConditions() */\n      swap1\n      pop\n        /* \"Dropsite.sol\":5231:5273  _mint(user_addr, nftId, numOfCopies, data) */\n      tag_104\n        /* \"Dropsite.sol\":5237:5246  user_addr */\n      dup5\n        /* \"Dropsite.sol\":5248:5253  nftId */\n      dup3\n        /* \"Dropsite.sol\":5255:5266  numOfCopies */\n      sload(0x05)\n        /* \"Dropsite.sol\":5268:5272  data */\n      0x02\n        /* \"Dropsite.sol\":5231:5273  _mint(user_addr, nftId, numOfCopies, data) */\n      dup1\n      sload\n      tag_105\n      swap1\n      tag_106\n      jump\t// in\n    tag_105:\n      dup1\n      0x1f\n      add\n      0x20\n      dup1\n      swap2\n      div\n      mul\n      0x20\n      add\n      mload(0x40)\n      swap1\n      dup2\n      add\n      0x40\n      mstore\n      dup1\n      swap3\n      swap2\n      swap1\n      dup2\n      dup2\n      mstore\n      0x20\n      add\n      dup3\n      dup1\n      sload\n      tag_107\n      swap1\n      tag_106\n      jump\t// in\n    tag_107:\n      dup1\n      iszero\n      tag_108\n      jumpi\n      dup1\n      0x1f\n      lt\n      tag_109\n      jumpi\n      0x0100\n      dup1\n      dup4\n      sload\n      div\n      mul\n      dup4\n      mstore\n      swap2\n      0x20\n      add\n      swap2\n      jump(tag_108)\n    tag_109:\n      dup3\n      add\n      swap2\n      swap1\n      0x00\n      mstore\n      keccak256(0x00, 0x20)\n      swap1\n    tag_110:\n      dup2\n      sload\n      dup2\n      mstore\n      swap1\n      0x01\n      add\n      swap1\n      0x20\n      add\n      dup1\n      dup4\n      gt\n      tag_110\n      jumpi\n      dup3\n      swap1\n      sub\n      0x1f\n      and\n      dup3\n      add\n      swap2\n    tag_108:\n      pop\n      pop\n      pop\n      pop\n      pop\n        /* \"Dropsite.sol\":5231:5236  _mint */\n      tag_111\n        /* \"Dropsite.sol\":5231:5273  _mint(user_addr, nftId, numOfCopies, data) */\n      jump\t// in\n    tag_104:\n        /* \"Dropsite.sol\":5279:5294  TotalNFTsMinted */\n      0x04\n        /* \"Dropsite.sol\":5279:5296  TotalNFTsMinted++ */\n      dup1\n      sload\n      swap1\n        /* \"Dropsite.sol\":5279:5294  TotalNFTsMinted */\n      0x00\n        /* \"Dropsite.sol\":5279:5296  TotalNFTsMinted++ */\n      tag_112\n      dup4\n      tag_113\n      jump\t// in\n    tag_112:\n      swap1\n      swap2\n      sstore\n      pop\n      pop\n      sub(shl(0xa0, 0x01), 0x01)\n        /* \"Dropsite.sol\":5302:5331  dropsite_NFT_Owner[user_addr] */\n      dup5\n      and\n      0x00\n      swap1\n      dup2\n      mstore\n        /* \"Dropsite.sol\":5302:5320  dropsite_NFT_Owner */\n      0x09\n        /* \"Dropsite.sol\":5302:5331  dropsite_NFT_Owner[user_addr] */\n      0x20\n      swap1\n      dup2\n      mstore\n      0x40\n      dup3\n      keccak256\n        /* \"Dropsite.sol\":5302:5363  dropsite_NFT_Owner[user_addr].owned_Dropsite_NFTs.push(nftId) */\n      dup1\n      sload\n      0x01\n      dup2\n      add\n      dup3\n      sstore\n      swap1\n      dup4\n      mstore\n      swap2\n      keccak256\n      add\n      dup2\n      swap1\n      sstore\n        /* \"Dropsite.sol\":5390:5394  data */\n      0x02\n        /* \"Dropsite.sol\":5369:5396  return (nftId,string(data)) */\n      dup1\n      sload\n        /* \"Dropsite.sol\":5357:5362  nftId */\n      dup3\n      swap2\n        /* \"Dropsite.sol\":5390:5394  data */\n      swap1\n      dup2\n      swap1\n        /* \"Dropsite.sol\":5369:5396  return (nftId,string(data)) */\n      tag_115\n      swap1\n      tag_106\n      jump\t// in\n    tag_115:\n      dup1\n      0x1f\n      add\n      0x20\n      dup1\n      swap2\n      div\n      mul\n      0x20\n      add\n      mload(0x40)\n      swap1\n      dup2\n      add\n      0x40\n      mstore\n      dup1\n      swap3\n      swap2\n      swap1\n      dup2\n      dup2\n      mstore\n      0x20\n      add\n      dup3\n      dup1\n      sload\n      tag_116\n      swap1\n      tag_106\n      jump\t// in\n    tag_116:\n      dup1\n      iszero\n      tag_117\n      jumpi\n      dup1\n      0x1f\n      lt\n      tag_118\n      jumpi\n      0x0100\n      dup1\n      dup4\n      sload\n      div\n      mul\n      dup4\n      mstore\n      swap2\n      0x20\n      add\n      swap2\n      jump(tag_117)\n    tag_118:\n      dup3\n      add\n      swap2\n      swap1\n      0x00\n      mstore\n      keccak256(0x00, 0x20)\n      swap1\n    tag_119:\n      dup2\n      sload\n      dup2\n      mstore\n      swap1\n      0x01\n      add\n      swap1\n      0x20\n      add\n      dup1\n      dup4\n      gt\n      tag_119\n      jumpi\n      dup3\n      swap1\n      sub\n      0x1f\n      and\n      dup3\n      add\n      swap2\n    tag_117:\n      pop\n      pop\n      pop\n      pop\n      pop\n      swap1\n      pop\n      swap3\n      pop\n      swap3\n      pop\n      pop\n        /* \"Dropsite.sol\":4957:5403  function FiatRandomMint(address user_addr) OnlyOwner contractIsNotPaused public returns (uint,string memory) {... */\n      swap2\n      pop\n      swap2\n      jump\t// out\n        /* \"Dropsite.sol\":2757:2865  function ContractBalance() public view OnlyOwner returns (uint){... */\n    tag_40:\n        /* \"Dropsite.sol\":1189:1194  Owner */\n      sload(0x0b)\n        /* \"Dropsite.sol\":2815:2819  uint */\n      0x00\n      swap1\n        /* \"Dropsite.sol\":1189:1194  Owner */\n      0x0100\n      swap1\n      div\n      sub(shl(0xa0, 0x01), 0x01)\n      and\n        /* \"Context.sol\":719:729  msg.sender */\n      caller\n      sub(shl(0xa0, 0x01), 0x01)\n        /* \"Dropsite.sol\":1173:1194  _msgSender() == Owner */\n      and\n      eq\n        /* \"Dropsite.sol\":1165:1227  require(_msgSender() == Owner, \"Only NFT-ES Owner can Access\") */\n      tag_122\n      jumpi\n      mload(0x40)\n      shl(0xe5, 0x461bcd)\n      dup2\n      mstore\n      0x04\n      add\n      tag_69\n      swap1\n      tag_70\n      jump\t// in\n    tag_122:\n      pop\n        /* \"Dropsite.sol\":2837:2858  address(this).balance */\n      selfbalance\n        /* \"Dropsite.sol\":2757:2865  function ContractBalance() public view OnlyOwner returns (uint){... */\n      swap1\n      jump\t// out\n        /* \"Dropsite.sol\":5620:6208  function CryptoRandomMint(address user_addr)  contractIsNotPaused public payable returns (uint,string memory) {... */\n    tag_44:\n        /* \"Dropsite.sol\":1342:1350  IsPaused */\n      sload(0x0b)\n        /* \"Dropsite.sol\":5710:5714  uint */\n      0x00\n      swap1\n        /* \"Dropsite.sol\":5715:5728  string memory */\n      0x60\n      swap1\n        /* \"Dropsite.sol\":1342:1350  IsPaused */\n      0xff\n      and\n        /* \"Dropsite.sol\":1342:1359  IsPaused == false */\n      iszero\n        /* \"Dropsite.sol\":1333:1392  require (IsPaused == false, \"Dropsite is not Opened Yet.\" ) */\n      tag_126\n      jumpi\n      mload(0x40)\n      shl(0xe5, 0x461bcd)\n      dup2\n      mstore\n      0x04\n      add\n      tag_69\n      swap1\n      tag_97\n      jump\t// in\n    tag_126:\n        /* \"Dropsite.sol\":5761:5765  1000 */\n      0x03e8\n        /* \"Dropsite.sol\":5745:5760  TotalNFTsMinted */\n      sload(0x04)\n        /* \"Dropsite.sol\":5745:5765  TotalNFTsMinted<1000 */\n      lt\n        /* \"Dropsite.sol\":5737:5795  require(TotalNFTsMinted<1000, \"Max Minting Limit reached\") */\n      tag_129\n      jumpi\n      mload(0x40)\n      shl(0xe5, 0x461bcd)\n      dup2\n      mstore\n        /* \"#utility.yul\":7326:7328   */\n      0x20\n        /* \"Dropsite.sol\":5737:5795  require(TotalNFTsMinted<1000, \"Max Minting Limit reached\") */\n      0x04\n      dup3\n      add\n        /* \"#utility.yul\":7308:7329   */\n      mstore\n        /* \"#utility.yul\":7365:7367   */\n      0x19\n        /* \"#utility.yul\":7345:7363   */\n      0x24\n      dup3\n      add\n        /* \"#utility.yul\":7338:7368   */\n      mstore\n      shl(0x3a, 0x13585e08135a5b9d1a5b99c8131a5b5a5d081c995858da1959)\n        /* \"#utility.yul\":7384:7402   */\n      0x44\n      dup3\n      add\n        /* \"#utility.yul\":7377:7432   */\n      mstore\n        /* \"#utility.yul\":7449:7467   */\n      0x64\n      add\n        /* \"Dropsite.sol\":5737:5795  require(TotalNFTsMinted<1000, \"Max Minting Limit reached\") */\n      tag_69\n        /* \"#utility.yul\":7124:7473   */\n      jump\n        /* \"Dropsite.sol\":5737:5795  require(TotalNFTsMinted<1000, \"Max Minting Limit reached\") */\n    tag_129:\n        /* \"Dropsite.sol\":5810:5819  msg.value */\n      callvalue\n        /* \"Dropsite.sol\":5824:5844  25000000000000000000 */\n      0x015af1d78b58c40000\n        /* \"Dropsite.sol\":5810:5845  msg.value == (25000000000000000000) */\n      eq\n        /* \"Dropsite.sol\":5802:5875  require(msg.value == (25000000000000000000), \"Balance must be 25 Matics\") */\n      tag_131\n      jumpi\n      mload(0x40)\n      shl(0xe5, 0x461bcd)\n      dup2\n      mstore\n        /* \"#utility.yul\":5547:5549   */\n      0x20\n        /* \"Dropsite.sol\":5802:5875  require(msg.value == (25000000000000000000), \"Balance must be 25 Matics\") */\n      0x04\n      dup3\n      add\n        /* \"#utility.yul\":5529:5550   */\n      mstore\n        /* \"#utility.yul\":5586:5588   */\n      0x19\n        /* \"#utility.yul\":5566:5584   */\n      0x24\n      dup3\n      add\n        /* \"#utility.yul\":5559:5589   */\n      mstore\n        /* \"#utility.yul\":5625:5652   */\n      0x42616c616e6365206d757374206265203235204d617469637300000000000000\n        /* \"#utility.yul\":5605:5623   */\n      0x44\n      dup3\n      add\n        /* \"#utility.yul\":5598:5653   */\n      mstore\n        /* \"#utility.yul\":5670:5688   */\n      0x64\n      add\n        /* \"Dropsite.sol\":5802:5875  require(msg.value == (25000000000000000000), \"Balance must be 25 Matics\") */\n      tag_69\n        /* \"#utility.yul\":5345:5694   */\n      jump\n        /* \"Dropsite.sol\":5802:5875  require(msg.value == (25000000000000000000), \"Balance must be 25 Matics\") */\n    tag_131:\n        /* \"Dropsite.sol\":5955:5965  uint nftId */\n      0x00\n        /* \"Dropsite.sol\":5968:5986  updateConditions() */\n      tag_134\n        /* \"Dropsite.sol\":5968:5984  updateConditions */\n      tag_103\n        /* \"Dropsite.sol\":5968:5986  updateConditions() */\n      jump\t// in\n    tag_134:\n        /* \"Dropsite.sol\":5955:5986  uint nftId = updateConditions() */\n      swap1\n      pop\n        /* \"Dropsite.sol\":5992:6034  _mint(user_addr, nftId, numOfCopies, data) */\n      tag_135\n        /* \"Dropsite.sol\":5998:6007  user_addr */\n      dup5\n        /* \"Dropsite.sol\":6009:6014  nftId */\n      dup3\n        /* \"Dropsite.sol\":6016:6027  numOfCopies */\n      sload(0x05)\n        /* \"Dropsite.sol\":6029:6033  data */\n      0x02\n        /* \"Dropsite.sol\":5992:6034  _mint(user_addr, nftId, numOfCopies, data) */\n      dup1\n      sload\n      tag_105\n      swap1\n      tag_106\n      jump\t// in\n    tag_135:\n        /* \"Dropsite.sol\":6040:6078  depositAmount(_msgSender(), msg.value) */\n      tag_104\n        /* \"Context.sol\":719:729  msg.sender */\n      caller\n        /* \"Dropsite.sol\":6068:6077  msg.value */\n      callvalue\n        /* \"Dropsite.sol\":6040:6053  depositAmount */\n      tag_143\n        /* \"Dropsite.sol\":6040:6078  depositAmount(_msgSender(), msg.value) */\n      jump\t// in\n        /* \"Dropsite.sol\":1840:1967  function checkMintedCategoryWise() public view OnlyOwner returns(uint,uint,uint){... */\n    tag_48:\n        /* \"Dropsite.sol\":1189:1194  Owner */\n      sload(0x0b)\n        /* \"Dropsite.sol\":1905:1909  uint */\n      0x00\n      swap1\n      dup2\n      swap1\n      dup2\n      swap1\n        /* \"Dropsite.sol\":1189:1194  Owner */\n      0x0100\n      swap1\n      div\n      sub(shl(0xa0, 0x01), 0x01)\n      and\n        /* \"Context.sol\":719:729  msg.sender */\n      caller\n      sub(shl(0xa0, 0x01), 0x01)\n        /* \"Dropsite.sol\":1173:1194  _msgSender() == Owner */\n      and\n      eq\n        /* \"Dropsite.sol\":1165:1227  require(_msgSender() == Owner, \"Only NFT-ES Owner can Access\") */\n      tag_153\n      jumpi\n      mload(0x40)\n      shl(0xe5, 0x461bcd)\n      dup2\n      mstore\n      0x04\n      add\n      tag_69\n      swap1\n      tag_70\n      jump\t// in\n    tag_153:\n      pop\n      pop\n        /* \"Dropsite.sol\":1939:1946  Diamond */\n      sload(0x06)\n        /* \"Dropsite.sol\":1947:1951  Gold */\n      sload(0x07)\n        /* \"Dropsite.sol\":1952:1958  Silver */\n      sload(0x08)\n        /* \"Dropsite.sol\":1939:1946  Diamond */\n      swap2\n      swap4\n        /* \"Dropsite.sol\":1947:1951  Gold */\n      swap1\n      swap3\n      pop\n        /* \"Dropsite.sol\":1840:1967  function checkMintedCategoryWise() public view OnlyOwner returns(uint,uint,uint){... */\n      jump\t// out\n        /* \"Dropsite.sol\":2117:2252  function stopDropsite() public OnlyOwner{... */\n    tag_53:\n        /* \"Dropsite.sol\":1189:1194  Owner */\n      sload(0x0b)\n      0x0100\n      swap1\n      div\n      sub(shl(0xa0, 0x01), 0x01)\n      and\n        /* \"Context.sol\":719:729  msg.sender */\n      caller\n      sub(shl(0xa0, 0x01), 0x01)\n        /* \"Dropsite.sol\":1173:1194  _msgSender() == Owner */\n      and\n      eq\n        /* \"Dropsite.sol\":1165:1227  require(_msgSender() == Owner, \"Only NFT-ES Owner can Access\") */\n      tag_158\n      jumpi\n      mload(0x40)\n      shl(0xe5, 0x461bcd)\n      dup2\n      mstore\n      0x04\n      add\n      tag_69\n      swap1\n      tag_70\n      jump\t// in\n    tag_158:\n        /* \"Dropsite.sol\":2175:2183  IsPaused */\n      and(0xff, sload(0x0b))\n        /* \"Dropsite.sol\":2175:2190  IsPaused==false */\n      iszero\n        /* \"Dropsite.sol\":2167:2222  require(IsPaused==false, \"Dropsite is already Stopped\") */\n      tag_161\n      jumpi\n      mload(0x40)\n      shl(0xe5, 0x461bcd)\n      dup2\n      mstore\n        /* \"#utility.yul\":6257:6259   */\n      0x20\n        /* \"Dropsite.sol\":2167:2222  require(IsPaused==false, \"Dropsite is already Stopped\") */\n      0x04\n      dup3\n      add\n        /* \"#utility.yul\":6239:6260   */\n      mstore\n        /* \"#utility.yul\":6296:6298   */\n      0x1b\n        /* \"#utility.yul\":6276:6294   */\n      0x24\n      dup3\n      add\n        /* \"#utility.yul\":6269:6299   */\n      mstore\n        /* \"#utility.yul\":6335:6364   */\n      0x44726f707369746520697320616c72656164792053746f707065640000000000\n        /* \"#utility.yul\":6315:6333   */\n      0x44\n      dup3\n      add\n        /* \"#utility.yul\":6308:6365   */\n      mstore\n        /* \"#utility.yul\":6382:6400   */\n      0x64\n      add\n        /* \"Dropsite.sol\":2167:2222  require(IsPaused==false, \"Dropsite is already Stopped\") */\n      tag_69\n        /* \"#utility.yul\":6055:6406   */\n      jump\n        /* \"Dropsite.sol\":2167:2222  require(IsPaused==false, \"Dropsite is already Stopped\") */\n    tag_161:\n        /* \"Dropsite.sol\":2232:2240  IsPaused */\n      0x0b\n        /* \"Dropsite.sol\":2232:2245  IsPaused=true */\n      dup1\n      sload\n      not(0xff)\n      and\n        /* \"Dropsite.sol\":2241:2245  true */\n      0x01\n        /* \"Dropsite.sol\":2232:2245  IsPaused=true */\n      or\n      swap1\n      sstore\n        /* \"Dropsite.sol\":2117:2252  function stopDropsite() public OnlyOwner{... */\n      jump\t// out\n        /* \"Dropsite.sol\":930:1068  function returnOwner(address addr) public view returns (uint[] memory){... */\n    tag_62:\n      sub(shl(0xa0, 0x01), 0x01)\n        /* \"Dropsite.sol\":1017:1041  dropsite_NFT_Owner[addr] */\n      dup2\n      and\n      0x00\n      swap1\n      dup2\n      mstore\n        /* \"Dropsite.sol\":1017:1035  dropsite_NFT_Owner */\n      0x09\n        /* \"Dropsite.sol\":1017:1041  dropsite_NFT_Owner[addr] */\n      0x20\n      swap1\n      dup2\n      mstore\n      0x40\n      swap2\n      dup3\n      swap1\n      keccak256\n        /* \"Dropsite.sol\":1010:1061  return dropsite_NFT_Owner[addr].owned_Dropsite_NFTs */\n      dup1\n      sload\n      dup4\n      mload\n      dup2\n      dup5\n      mul\n      dup2\n      add\n      dup5\n      add\n      swap1\n      swap5\n      mstore\n      dup1\n      dup5\n      mstore\n        /* \"Dropsite.sol\":986:999  uint[] memory */\n      0x60\n      swap4\n        /* \"Dropsite.sol\":1010:1061  return dropsite_NFT_Owner[addr].owned_Dropsite_NFTs */\n      swap3\n      dup4\n      add\n        /* \"Dropsite.sol\":1017:1041  dropsite_NFT_Owner[addr] */\n      dup3\n        /* \"Dropsite.sol\":1010:1061  return dropsite_NFT_Owner[addr].owned_Dropsite_NFTs */\n      dup3\n      dup1\n      iszero\n      tag_165\n      jumpi\n      0x20\n      mul\n      dup3\n      add\n      swap2\n      swap1\n      0x00\n      mstore\n      keccak256(0x00, 0x20)\n      swap1\n    tag_166:\n      dup2\n      sload\n      dup2\n      mstore\n      0x20\n      add\n      swap1\n      0x01\n      add\n      swap1\n      dup1\n      dup4\n      gt\n      tag_166\n      jumpi\n    tag_165:\n      pop\n      pop\n      pop\n      pop\n      pop\n      swap1\n      pop\n        /* \"Dropsite.sol\":930:1068  function returnOwner(address addr) public view returns (uint[] memory){... */\n      swap2\n      swap1\n      pop\n      jump\t// out\n        /* \"Dropsite.sol\":3322:4910  function updateConditions() internal contractIsNotPaused returns(uint) {... */\n    tag_103:\n        /* \"Dropsite.sol\":1342:1350  IsPaused */\n      sload(0x0b)\n        /* \"Dropsite.sol\":3387:3391  uint */\n      0x00\n      swap1\n        /* \"Dropsite.sol\":1342:1350  IsPaused */\n      0xff\n      and\n        /* \"Dropsite.sol\":1342:1359  IsPaused == false */\n      iszero\n        /* \"Dropsite.sol\":1333:1392  require (IsPaused == false, \"Dropsite is not Opened Yet.\" ) */\n      tag_169\n      jumpi\n      mload(0x40)\n      shl(0xe5, 0x461bcd)\n      dup2\n      mstore\n      0x04\n      add\n      tag_69\n      swap1\n      tag_97\n      jump\t// in\n    tag_169:\n        /* \"Dropsite.sol\":3402:3412  uint index */\n      0x00\n        /* \"Dropsite.sol\":3415:3423  random() */\n      tag_172\n        /* \"Dropsite.sol\":3415:3421  random */\n      tag_173\n        /* \"Dropsite.sol\":3415:3423  random() */\n      jump\t// in\n    tag_172:\n        /* \"Dropsite.sol\":3402:3423  uint index = random() */\n      swap1\n      pop\n        /* \"Dropsite.sol\":3433:3443  uint nftId */\n      0x00\n        /* \"Dropsite.sol\":3446:3450  nums */\n      0x03\n        /* \"Dropsite.sol\":3451:3456  index */\n      dup3\n        /* \"Dropsite.sol\":3446:3457  nums[index] */\n      0x14\n      dup2\n      lt\n      tag_175\n      jumpi\n      tag_175\n      tag_176\n      jump\t// in\n    tag_175:\n      0x20\n      dup2\n      div\n      swap1\n      swap2\n      add\n      sload\n      0xff\n      0x1f\n      swap1\n      swap3\n      and\n      0x0100\n      exp\n      swap1\n      div\n      and\n      swap1\n      pop\n        /* \"Dropsite.sol\":3554:3564  nftId == 0 */\n      dup1\n      iszero\n        /* \"Dropsite.sol\":3554:3580  nftId == 0 && Diamond < 50 */\n      dup1\n      iszero\n      tag_178\n      jumpi\n      pop\n        /* \"Dropsite.sol\":3578:3580  50 */\n      0x32\n        /* \"Dropsite.sol\":3568:3575  Diamond */\n      sload(0x06)\n        /* \"Dropsite.sol\":3568:3580  Diamond < 50 */\n      lt\n        /* \"Dropsite.sol\":3554:3580  nftId == 0 && Diamond < 50 */\n    tag_178:\n        /* \"Dropsite.sol\":3551:4905  if(nftId == 0 && Diamond < 50) {... */\n      iszero\n      tag_179\n      jumpi\n        /* \"Dropsite.sol\":3597:3604  Diamond */\n      0x06\n        /* \"Dropsite.sol\":3597:3606  Diamond++ */\n      dup1\n      sload\n      swap1\n        /* \"Dropsite.sol\":3597:3604  Diamond */\n      0x00\n        /* \"Dropsite.sol\":3597:3606  Diamond++ */\n      tag_180\n      dup4\n      tag_113\n      jump\t// in\n    tag_180:\n      swap2\n      swap1\n      pop\n      sstore\n      pop\n        /* \"Dropsite.sol\":3662:3687  Strings.toString(Diamond) */\n      tag_181\n        /* \"Dropsite.sol\":3679:3686  Diamond */\n      sload(0x06)\n        /* \"Dropsite.sol\":3662:3678  Strings.toString */\n      tag_182\n        /* \"Dropsite.sol\":3662:3687  Strings.toString(Diamond) */\n      jump\t// in\n    tag_181:\n        /* \"Dropsite.sol\":3634:3688  abi.encodePacked(\"Diamond_\",Strings.toString(Diamond)) */\n      add(0x20, mload(0x40))\n      tag_183\n      swap2\n      swap1\n      tag_184\n      jump\t// in\n    tag_183:\n      mload(0x40)\n      0x20\n      dup2\n      dup4\n      sub\n      sub\n      dup2\n      mstore\n      swap1\n      0x40\n      mstore\n        /* \"Dropsite.sol\":3620:3624  data */\n      0x02\n        /* \"Dropsite.sol\":3620:3689  data = string(abi.encodePacked(\"Diamond_\",Strings.toString(Diamond))) */\n      swap1\n      dup1\n      mload\n      swap1\n      0x20\n      add\n      swap1\n      tag_185\n      swap3\n      swap2\n      swap1\n      tag_186\n      jump\t// in\n    tag_185:\n      pop\n        /* \"Dropsite.sol\":3723:3728  nftId */\n      swap2\n      pop\n        /* \"Dropsite.sol\":3716:3728  return nftId */\n      tag_71\n      swap1\n      pop\n      jump\n        /* \"Dropsite.sol\":3551:4905  if(nftId == 0 && Diamond < 50) {... */\n    tag_179:\n        /* \"Dropsite.sol\":3852:3853  1 */\n      0x01\n        /* \"Dropsite.sol\":3843:3848  nftId */\n      dup2\n        /* \"Dropsite.sol\":3843:3853  nftId <= 1 */\n      gt\n      iszero\n        /* \"Dropsite.sol\":3843:3867  nftId <= 1 && Gold < 100 */\n      dup1\n      iszero\n      tag_188\n      jumpi\n      pop\n        /* \"Dropsite.sol\":3864:3867  100 */\n      0x64\n        /* \"Dropsite.sol\":3857:3861  Gold */\n      sload(0x07)\n        /* \"Dropsite.sol\":3857:3867  Gold < 100 */\n      lt\n        /* \"Dropsite.sol\":3843:3867  nftId <= 1 && Gold < 100 */\n    tag_188:\n        /* \"Dropsite.sol\":3840:4905  if(nftId <= 1 && Gold < 100) {... */\n      iszero\n      tag_189\n      jumpi\n        /* \"Dropsite.sol\":3883:3887  Gold */\n      0x07\n        /* \"Dropsite.sol\":3883:3889  Gold++ */\n      dup1\n      sload\n      swap1\n        /* \"Dropsite.sol\":3883:3887  Gold */\n      0x00\n        /* \"Dropsite.sol\":3883:3889  Gold++ */\n      tag_190\n      dup4\n      tag_113\n      jump\t// in\n    tag_190:\n      swap2\n      swap1\n      pop\n      sstore\n      pop\n        /* \"Dropsite.sol\":3942:3964  Strings.toString(Gold) */\n      tag_191\n        /* \"Dropsite.sol\":3959:3963  Gold */\n      sload(0x07)\n        /* \"Dropsite.sol\":3942:3958  Strings.toString */\n      tag_182\n        /* \"Dropsite.sol\":3942:3964  Strings.toString(Gold) */\n      jump\t// in\n    tag_191:\n        /* \"Dropsite.sol\":3917:3965  abi.encodePacked(\"Gold_\",Strings.toString(Gold)) */\n      add(0x20, mload(0x40))\n      tag_183\n      swap2\n      swap1\n      tag_193\n      jump\t// in\n        /* \"Dropsite.sol\":3840:4905  if(nftId <= 1 && Gold < 100) {... */\n    tag_189:\n        /* \"Dropsite.sol\":4122:4123  2 */\n      0x02\n        /* \"Dropsite.sol\":4113:4118  nftId */\n      dup2\n        /* \"Dropsite.sol\":4113:4123  nftId <= 2 */\n      gt\n      iszero\n        /* \"Dropsite.sol\":4113:4140  nftId <= 2 && Silver <= 850 */\n      dup1\n      iszero\n      tag_196\n      jumpi\n      pop\n        /* \"Dropsite.sol\":4137:4140  850 */\n      0x0352\n        /* \"Dropsite.sol\":4127:4133  Silver */\n      sload(0x08)\n        /* \"Dropsite.sol\":4127:4140  Silver <= 850 */\n      gt\n      iszero\n        /* \"Dropsite.sol\":4113:4140  nftId <= 2 && Silver <= 850 */\n    tag_196:\n        /* \"Dropsite.sol\":4110:4905  if(nftId <= 2 && Silver <= 850) {... */\n      iszero\n      tag_197\n      jumpi\n        /* \"Dropsite.sol\":4156:4162  Silver */\n      0x08\n        /* \"Dropsite.sol\":4156:4164  Silver++ */\n      dup1\n      sload\n      swap1\n        /* \"Dropsite.sol\":4156:4162  Silver */\n      0x00\n        /* \"Dropsite.sol\":4156:4164  Silver++ */\n      tag_198\n      dup4\n      tag_113\n      jump\t// in\n    tag_198:\n      swap2\n      swap1\n      pop\n      sstore\n      pop\n        /* \"Dropsite.sol\":4224:4248  Strings.toString(Silver) */\n      tag_199\n        /* \"Dropsite.sol\":4241:4247  Silver */\n      sload(0x08)\n        /* \"Dropsite.sol\":4224:4240  Strings.toString */\n      tag_182\n        /* \"Dropsite.sol\":4224:4248  Strings.toString(Silver) */\n      jump\t// in\n    tag_199:\n        /* \"Dropsite.sol\":4197:4249  abi.encodePacked(\"Silver_\",Strings.toString(Silver)) */\n      add(0x20, mload(0x40))\n      tag_200\n      swap2\n      swap1\n      tag_201\n      jump\t// in\n    tag_200:\n      mload(0x40)\n      0x20\n      dup2\n      dup4\n      sub\n      sub\n      dup2\n      mstore\n      swap1\n      0x40\n      mstore\n        /* \"Dropsite.sol\":4183:4187  data */\n      0x02\n        /* \"Dropsite.sol\":4183:4250  data = string(abi.encodePacked(\"Silver_\",Strings.toString(Silver))) */\n      swap1\n      dup1\n      mload\n      swap1\n      0x20\n      add\n      swap1\n      tag_202\n      swap3\n      swap2\n      swap1\n      tag_186\n      jump\t// in\n    tag_202:\n        /* \"Dropsite.sol\":4178:4182  data */\n      0x02\n        /* \"Dropsite.sol\":4178:4250  data=data = string(abi.encodePacked(\"Silver_\",Strings.toString(Silver))) */\n      swap1\n      dup1\n      sload\n      tag_203\n      swap1\n      tag_106\n      jump\t// in\n    tag_203:\n      tag_185\n      swap3\n      swap2\n      swap1\n      tag_205\n      jump\t// in\n        /* \"Dropsite.sol\":4110:4905  if(nftId <= 2 && Silver <= 850) {... */\n    tag_197:\n        /* \"Dropsite.sol\":4487:4490  100 */\n      0x64\n        /* \"Dropsite.sol\":4480:4484  Gold */\n      sload(0x07)\n        /* \"Dropsite.sol\":4480:4490  Gold < 100 */\n      lt\n        /* \"Dropsite.sol\":4477:4896  if(Gold < 100) {... */\n      iszero\n      tag_207\n      jumpi\n      pop\n        /* \"Dropsite.sol\":4537:4541  Gold */\n      0x07\n        /* \"Dropsite.sol\":4537:4543  Gold++ */\n      dup1\n      sload\n        /* \"Dropsite.sol\":4518:4519  1 */\n      0x01\n      swap2\n        /* \"Dropsite.sol\":4537:4541  Gold */\n      0x00\n        /* \"Dropsite.sol\":4537:4543  Gold++ */\n      tag_190\n      dup4\n      tag_113\n      jump\t// in\n        /* \"Dropsite.sol\":4477:4896  if(Gold < 100) {... */\n    tag_207:\n      pop\n        /* \"Dropsite.sol\":4738:4745  Diamond */\n      0x06\n        /* \"Dropsite.sol\":4738:4747  Diamond++ */\n      dup1\n      sload\n        /* \"Dropsite.sol\":4719:4720  0 */\n      0x00\n      swap2\n      dup3\n        /* \"Dropsite.sol\":4738:4747  Diamond++ */\n      tag_180\n      dup4\n      tag_113\n      jump\t// in\n        /* \"ERC1155_Dropsite.sol\":835:1387  function _mint(... */\n    tag_111:\n      sub(shl(0xa0, 0x01), 0x01)\n        /* \"ERC1155_Dropsite.sol\":983:999  to != address(0) */\n      dup5\n      and\n        /* \"ERC1155_Dropsite.sol\":975:1037  require(to != address(0), \"ERC1155: mint to the zero address\") */\n      tag_218\n      jumpi\n      mload(0x40)\n      shl(0xe5, 0x461bcd)\n      dup2\n      mstore\n        /* \"#utility.yul\":8038:8040   */\n      0x20\n        /* \"ERC1155_Dropsite.sol\":975:1037  require(to != address(0), \"ERC1155: mint to the zero address\") */\n      0x04\n      dup3\n      add\n        /* \"#utility.yul\":8020:8041   */\n      mstore\n        /* \"#utility.yul\":8077:8079   */\n      0x21\n        /* \"#utility.yul\":8057:8075   */\n      0x24\n      dup3\n      add\n        /* \"#utility.yul\":8050:8080   */\n      mstore\n        /* \"#utility.yul\":8116:8150   */\n      0x455243313135353a206d696e7420746f20746865207a65726f20616464726573\n        /* \"#utility.yul\":8096:8114   */\n      0x44\n      dup3\n      add\n        /* \"#utility.yul\":8089:8151   */\n      mstore\n      shl(0xf8, 0x73)\n        /* \"#utility.yul\":8167:8185   */\n      0x64\n      dup3\n      add\n        /* \"#utility.yul\":8160:8191   */\n      mstore\n        /* \"#utility.yul\":8208:8227   */\n      0x84\n      add\n        /* \"ERC1155_Dropsite.sol\":975:1037  require(to != address(0), \"ERC1155: mint to the zero address\") */\n      tag_69\n        /* \"#utility.yul\":7836:8233   */\n      jump\n        /* \"ERC1155_Dropsite.sol\":975:1037  require(to != address(0), \"ERC1155: mint to the zero address\") */\n    tag_218:\n        /* \"Context.sol\":719:729  msg.sender */\n      caller\n        /* \"ERC1155_Dropsite.sol\":1090:1192  _beforeTokenTransfer(operator, address(0), to, _asSingletonArray(id), _asSingletonArray(amount), data) */\n      tag_222\n        /* \"Context.sol\":719:729  msg.sender */\n      dup2\n        /* \"ERC1155_Dropsite.sol\":1048:1064  address operator */\n      0x00\n        /* \"ERC1155_Dropsite.sol\":1133:1135  to */\n      dup8\n        /* \"ERC1155_Dropsite.sol\":1137:1158  _asSingletonArray(id) */\n      tag_223\n        /* \"ERC1155_Dropsite.sol\":1155:1157  id */\n      dup9\n        /* \"ERC1155_Dropsite.sol\":1137:1154  _asSingletonArray */\n      tag_224\n        /* \"ERC1155_Dropsite.sol\":1137:1158  _asSingletonArray(id) */\n      jump\t// in\n    tag_223:\n        /* \"ERC1155_Dropsite.sol\":1160:1185  _asSingletonArray(amount) */\n      tag_225\n        /* \"ERC1155_Dropsite.sol\":1178:1184  amount */\n      dup9\n        /* \"ERC1155_Dropsite.sol\":1160:1177  _asSingletonArray */\n      tag_224\n        /* \"ERC1155_Dropsite.sol\":1160:1185  _asSingletonArray(amount) */\n      jump\t// in\n    tag_225:\n        /* \"ERC1155_Dropsite.sol\":1394:1609  function _beforeTokenTransfer(... */\n      pop\n      pop\n      pop\n      pop\n      pop\n      jump\n        /* \"ERC1155_Dropsite.sol\":1090:1192  _beforeTokenTransfer(operator, address(0), to, _asSingletonArray(id), _asSingletonArray(amount), data) */\n    tag_222:\n        /* \"ERC1155_Dropsite.sol\":1202:1211  _balances */\n      0x00\n        /* \"ERC1155_Dropsite.sol\":1202:1215  _balances[id] */\n      dup5\n      dup2\n      mstore\n      0x20\n      dup2\n      dup2\n      mstore\n      0x40\n      dup1\n      dup4\n      keccak256\n      sub(shl(0xa0, 0x01), 0x01)\n        /* \"ERC1155_Dropsite.sol\":1202:1219  _balances[id][to] */\n      dup10\n      and\n      dup5\n      mstore\n      swap1\n      swap2\n      mstore\n      dup2\n      keccak256\n        /* \"ERC1155_Dropsite.sol\":1202:1229  _balances[id][to] += amount */\n      dup1\n      sload\n        /* \"ERC1155_Dropsite.sol\":1223:1229  amount */\n      dup6\n      swap3\n        /* \"ERC1155_Dropsite.sol\":1202:1211  _balances */\n      swap1\n        /* \"ERC1155_Dropsite.sol\":1202:1229  _balances[id][to] += amount */\n      tag_227\n      swap1\n        /* \"ERC1155_Dropsite.sol\":1223:1229  amount */\n      dup5\n      swap1\n        /* \"ERC1155_Dropsite.sol\":1202:1229  _balances[id][to] += amount */\n      tag_228\n      jump\t// in\n    tag_227:\n      swap1\n      swap2\n      sstore\n      pop\n      pop\n        /* \"ERC1155_Dropsite.sol\":1244:1296  TransferSingle(operator, address(0), to, id, amount) */\n      0x40\n      dup1\n      mload\n        /* \"#utility.yul\":8890:8915   */\n      dup6\n      dup2\n      mstore\n        /* \"#utility.yul\":8946:8948   */\n      0x20\n        /* \"#utility.yul\":8931:8949   */\n      dup2\n      add\n        /* \"#utility.yul\":8924:8958   */\n      dup6\n      swap1\n      mstore\n      sub(shl(0xa0, 0x01), 0x01)\n        /* \"ERC1155_Dropsite.sol\":1244:1296  TransferSingle(operator, address(0), to, id, amount) */\n      dup1\n      dup9\n      and\n      swap3\n        /* \"ERC1155_Dropsite.sol\":1277:1278  0 */\n      0x00\n      swap3\n        /* \"ERC1155_Dropsite.sol\":1244:1296  TransferSingle(operator, address(0), to, id, amount) */\n      swap2\n      dup6\n      and\n      swap2\n      0xc3d58168c5ae7397731d063d5bbf3d657854427343f4c083240f7aacaa2d0f62\n      swap2\n        /* \"#utility.yul\":8863:8881   */\n      add\n        /* \"ERC1155_Dropsite.sol\":1244:1296  TransferSingle(operator, address(0), to, id, amount) */\n      mload(0x40)\n      dup1\n      swap2\n      sub\n      swap1\n      log4\n        /* \"ERC1155_Dropsite.sol\":1306:1380  _doSafeTransferAcceptanceCheck(operator, address(0), to, id, amount, data) */\n      tag_225\n        /* \"ERC1155_Dropsite.sol\":1337:1345  operator */\n      dup2\n        /* \"ERC1155_Dropsite.sol\":1355:1356  0 */\n      0x00\n        /* \"ERC1155_Dropsite.sol\":1359:1361  to */\n      dup8\n        /* \"ERC1155_Dropsite.sol\":1363:1365  id */\n      dup8\n        /* \"ERC1155_Dropsite.sol\":1367:1373  amount */\n      dup8\n        /* \"ERC1155_Dropsite.sol\":1375:1379  data */\n      dup8\n        /* \"ERC1155_Dropsite.sol\":1306:1336  _doSafeTransferAcceptanceCheck */\n      tag_232\n        /* \"ERC1155_Dropsite.sol\":1306:1380  _doSafeTransferAcceptanceCheck(operator, address(0), to, id, amount, data) */\n      jump\t// in\n        /* \"Dropsite.sol\":5448:5567  function depositAmount(address payee,uint amountToDeposit) internal {... */\n    tag_143:\n      sub(shl(0xa0, 0x01), 0x01)\n        /* \"Dropsite.sol\":5526:5541  deposits[payee] */\n      dup3\n      and\n      0x00\n      swap1\n      dup2\n      mstore\n        /* \"Dropsite.sol\":5526:5534  deposits */\n      0x0a\n        /* \"Dropsite.sol\":5526:5541  deposits[payee] */\n      0x20\n      mstore\n      0x40\n      dup2\n      keccak256\n        /* \"Dropsite.sol\":5526:5560  deposits[payee] += amountToDeposit */\n      dup1\n      sload\n        /* \"Dropsite.sol\":5545:5560  amountToDeposit */\n      dup4\n      swap3\n        /* \"Dropsite.sol\":5526:5541  deposits[payee] */\n      swap1\n        /* \"Dropsite.sol\":5526:5560  deposits[payee] += amountToDeposit */\n      tag_234\n      swap1\n        /* \"Dropsite.sol\":5545:5560  amountToDeposit */\n      dup5\n      swap1\n        /* \"Dropsite.sol\":5526:5560  deposits[payee] += amountToDeposit */\n      tag_228\n      jump\t// in\n    tag_234:\n      swap1\n      swap2\n      sstore\n      pop\n      pop\n      pop\n      pop\n        /* \"Dropsite.sol\":5448:5567  function depositAmount(address payee,uint amountToDeposit) internal {... */\n      jump\t// out\n        /* \"Dropsite.sol\":2941:3137  function random() internal view returns (uint) {... */\n    tag_173:\n        /* \"Dropsite.sol\":2982:2986  uint */\n      0x00\n        /* \"Dropsite.sol\":3018:3035  uint randomnumber */\n      dup1\n        /* \"Dropsite.sol\":3103:3105  20 */\n      0x14\n        /* \"Dropsite.sol\":3070:3085  block.timestamp */\n      timestamp\n        /* \"Dropsite.sol\":3087:3097  msg.sender */\n      caller\n        /* \"Dropsite.sol\":3053:3098  abi.encodePacked(block.timestamp, msg.sender) */\n      add(0x20, mload(0x40))\n      tag_236\n      swap3\n      swap2\n      swap1\n        /* \"#utility.yul\":2527:2546   */\n      swap2\n      dup3\n      mstore\n        /* \"#utility.yul\":2584:2586   */\n      0x60\n        /* \"#utility.yul\":2580:2595   */\n      shl\n      not(0xffffffffffffffffffffffff)\n        /* \"#utility.yul\":2576:2629   */\n      and\n        /* \"#utility.yul\":2571:2573   */\n      0x20\n        /* \"#utility.yul\":2562:2574   */\n      dup3\n      add\n        /* \"#utility.yul\":2555:2630   */\n      mstore\n        /* \"#utility.yul\":2655:2657   */\n      0x34\n        /* \"#utility.yul\":2646:2658   */\n      add\n      swap1\n        /* \"#utility.yul\":2370:2664   */\n      jump\n        /* \"Dropsite.sol\":3053:3098  abi.encodePacked(block.timestamp, msg.sender) */\n    tag_236:\n      mload(0x40)\n      0x20\n      dup2\n      dup4\n      sub\n      sub\n      dup2\n      mstore\n      swap1\n      0x40\n      mstore\n        /* \"Dropsite.sol\":3043:3099  keccak256(abi.encodePacked(block.timestamp, msg.sender)) */\n      dup1\n      mload\n      swap1\n      0x20\n      add\n      keccak256\n        /* \"Dropsite.sol\":3038:3100  uint(keccak256(abi.encodePacked(block.timestamp, msg.sender))) */\n      0x00\n      shr\n        /* \"Dropsite.sol\":3038:3105  uint(keccak256(abi.encodePacked(block.timestamp, msg.sender))) % 20 */\n      tag_238\n      swap2\n      swap1\n      tag_239\n      jump\t// in\n    tag_238:\n        /* \"Dropsite.sol\":3018:3105  uint randomnumber = uint(keccak256(abi.encodePacked(block.timestamp, msg.sender))) % 20 */\n      swap3\n        /* \"Dropsite.sol\":2941:3137  function random() internal view returns (uint) {... */\n      swap2\n      pop\n      pop\n      jump\t// out\n        /* \"Strings.sol\":329:1032  function toString(uint256 value) internal pure returns (string memory) {... */\n    tag_182:\n        /* \"Strings.sol\":385:398  string memory */\n      0x60\n        /* \"Strings.sol\":602:612  value == 0 */\n      dup2\n        /* \"Strings.sol\":598:649  if (value == 0) {... */\n      tag_241\n      jumpi\n      pop\n      pop\n        /* \"Strings.sol\":628:638  return \"0\" */\n      0x40\n      dup1\n      mload\n      dup1\n      dup3\n      add\n      swap1\n      swap2\n      mstore\n      0x01\n      dup2\n      mstore\n      shl(0xfc, 0x03)\n      0x20\n      dup3\n      add\n      mstore\n      swap1\n        /* \"Strings.sol\":329:1032  function toString(uint256 value) internal pure returns (string memory) {... */\n      jump\t// out\n        /* \"Strings.sol\":598:649  if (value == 0) {... */\n    tag_241:\n        /* \"Strings.sol\":673:678  value */\n      dup2\n        /* \"Strings.sol\":658:670  uint256 temp */\n      0x00\n        /* \"Strings.sol\":712:787  while (temp != 0) {... */\n    tag_242:\n        /* \"Strings.sol\":719:728  temp != 0 */\n      dup2\n      iszero\n        /* \"Strings.sol\":712:787  while (temp != 0) {... */\n      tag_243\n      jumpi\n        /* \"Strings.sol\":744:752  digits++ */\n      dup1\n      tag_244\n      dup2\n      tag_113\n      jump\t// in\n    tag_244:\n      swap2\n      pop\n        /* \"Strings.sol\":766:776  temp /= 10 */\n      tag_245\n      swap1\n      pop\n        /* \"Strings.sol\":774:776  10 */\n      0x0a\n        /* \"Strings.sol\":766:776  temp /= 10 */\n      dup4\n      tag_246\n      jump\t// in\n    tag_245:\n      swap2\n      pop\n        /* \"Strings.sol\":712:787  while (temp != 0) {... */\n      jump(tag_242)\n    tag_243:\n        /* \"Strings.sol\":796:815  bytes memory buffer */\n      0x00\n        /* \"Strings.sol\":828:834  digits */\n      dup2\n        /* \"Strings.sol\":818:835  new bytes(digits) */\n      0xffffffffffffffff\n      dup2\n      gt\n      iszero\n      tag_248\n      jumpi\n      tag_248\n      tag_249\n      jump\t// in\n    tag_248:\n      mload(0x40)\n      swap1\n      dup1\n      dup3\n      mstore\n      dup1\n      0x1f\n      add\n      not(0x1f)\n      and\n      0x20\n      add\n      dup3\n      add\n      0x40\n      mstore\n      dup1\n      iszero\n      tag_250\n      jumpi\n      0x20\n      dup3\n      add\n      dup2\n      dup1\n      calldatasize\n      dup4\n      calldatacopy\n      add\n      swap1\n      pop\n    tag_250:\n      pop\n        /* \"Strings.sol\":796:835  bytes memory buffer = new bytes(digits) */\n      swap1\n      pop\n        /* \"Strings.sol\":845:995  while (value != 0) {... */\n    tag_251:\n        /* \"Strings.sol\":852:862  value != 0 */\n      dup5\n      iszero\n        /* \"Strings.sol\":845:995  while (value != 0) {... */\n      tag_252\n      jumpi\n        /* \"Strings.sol\":878:889  digits -= 1 */\n      tag_253\n        /* \"Strings.sol\":888:889  1 */\n      0x01\n        /* \"Strings.sol\":878:889  digits -= 1 */\n      dup4\n      tag_254\n      jump\t// in\n    tag_253:\n      swap2\n      pop\n        /* \"Strings.sol\":946:956  value % 10 */\n      tag_255\n        /* \"Strings.sol\":954:956  10 */\n      0x0a\n        /* \"Strings.sol\":946:951  value */\n      dup7\n        /* \"Strings.sol\":946:956  value % 10 */\n      tag_239\n      jump\t// in\n    tag_255:\n        /* \"Strings.sol\":933:957  48 + uint256(value % 10) */\n      tag_256\n      swap1\n        /* \"Strings.sol\":933:935  48 */\n      0x30\n        /* \"Strings.sol\":933:957  48 + uint256(value % 10) */\n      tag_228\n      jump\t// in\n    tag_256:\n        /* \"Strings.sol\":920:959  bytes1(uint8(48 + uint256(value % 10))) */\n      0xf8\n      shl\n        /* \"Strings.sol\":903:909  buffer */\n      dup2\n        /* \"Strings.sol\":910:916  digits */\n      dup4\n        /* \"Strings.sol\":903:917  buffer[digits] */\n      dup2\n      mload\n      dup2\n      lt\n      tag_258\n      jumpi\n      tag_258\n      tag_176\n      jump\t// in\n    tag_258:\n      0x20\n      add\n      add\n        /* \"Strings.sol\":903:959  buffer[digits] = bytes1(uint8(48 + uint256(value % 10))) */\n      swap1\n      not(sub(shl(0xf8, 0x01), 0x01))\n      and\n      swap1\n      dup2\n      0x00\n      byte\n      swap1\n      mstore8\n      pop\n        /* \"Strings.sol\":973:984  value /= 10 */\n      tag_259\n        /* \"Strings.sol\":982:984  10 */\n      0x0a\n        /* \"Strings.sol\":973:984  value /= 10 */\n      dup7\n      tag_246\n      jump\t// in\n    tag_259:\n      swap5\n      pop\n        /* \"Strings.sol\":845:995  while (value != 0) {... */\n      jump(tag_251)\n    tag_252:\n        /* \"Strings.sol\":1018:1024  buffer */\n      swap5\n        /* \"Strings.sol\":329:1032  function toString(uint256 value) internal pure returns (string memory) {... */\n      swap4\n      pop\n      pop\n      pop\n      pop\n      jump\t// out\n        /* \"ERC1155_Dropsite.sol\":2347:2540  function _asSingletonArray(uint256 element) private pure returns (uint256[] memory) {... */\n    tag_224:\n        /* \"ERC1155_Dropsite.sol\":2466:2482  new uint256[](1) */\n      0x40\n      dup1\n      mload\n        /* \"ERC1155_Dropsite.sol\":2480:2481  1 */\n      0x01\n        /* \"ERC1155_Dropsite.sol\":2466:2482  new uint256[](1) */\n      dup1\n      dup3\n      mstore\n      dup2\n      dup4\n      add\n      swap1\n      swap3\n      mstore\n        /* \"ERC1155_Dropsite.sol\":2413:2429  uint256[] memory */\n      0x60\n      swap2\n        /* \"ERC1155_Dropsite.sol\":2441:2463  uint256[] memory array */\n      0x00\n      swap2\n        /* \"ERC1155_Dropsite.sol\":2466:2482  new uint256[](1) */\n      swap1\n      0x20\n      dup1\n      dup4\n      add\n      swap1\n      dup1\n      calldatasize\n      dup4\n      calldatacopy\n      add\n      swap1\n      pop\n      pop\n        /* \"ERC1155_Dropsite.sol\":2441:2482  uint256[] memory array = new uint256[](1) */\n      swap1\n      pop\n        /* \"ERC1155_Dropsite.sol\":2503:2510  element */\n      dup3\n        /* \"ERC1155_Dropsite.sol\":2492:2497  array */\n      dup2\n        /* \"ERC1155_Dropsite.sol\":2498:2499  0 */\n      0x00\n        /* \"ERC1155_Dropsite.sol\":2492:2500  array[0] */\n      dup2\n      mload\n      dup2\n      lt\n      tag_265\n      jumpi\n      tag_265\n      tag_176\n      jump\t// in\n    tag_265:\n      0x20\n      swap1\n      dup2\n      mul\n      swap2\n      swap1\n      swap2\n      add\n      add\n        /* \"ERC1155_Dropsite.sol\":2492:2510  array[0] = element */\n      mstore\n        /* \"ERC1155_Dropsite.sol\":2528:2533  array */\n      swap3\n        /* \"ERC1155_Dropsite.sol\":2347:2540  function _asSingletonArray(uint256 element) private pure returns (uint256[] memory) {... */\n      swap2\n      pop\n      pop\n      jump\t// out\n        /* \"ERC1155_Dropsite.sol\":1394:1609  function _beforeTokenTransfer(... */\n    tag_226:\n      pop\n      pop\n      pop\n      pop\n      pop\n      pop\n      jump\t// out\n        /* \"ERC1155_Dropsite.sol\":1615:2341  function _doSafeTransferAcceptanceCheck(... */\n    tag_232:\n      sub(shl(0xa0, 0x01), 0x01)\n        /* \"ERC1155_Dropsite.sol\":1823:1836  to.isContract */\n      dup5\n      and\n        /* \"Address.sol\":1087:1107  extcodesize(account) */\n      extcodesize\n        /* \"Address.sol\":1133:1141  size > 0 */\n      iszero\n        /* \"ERC1155_Dropsite.sol\":1819:2335  if (to.isContract()) {... */\n      tag_226\n      jumpi\n        /* \"ERC1155_Dropsite.sol\":1858:1930  IERC1155Receiver(to).onERC1155Received(operator, from, id, amount, data) */\n      mload(0x40)\n      shl(0xe3, 0x15d13449)\n      dup2\n      mstore\n      sub(shl(0xa0, 0x01), 0x01)\n        /* \"ERC1155_Dropsite.sol\":1858:1896  IERC1155Receiver(to).onERC1155Received */\n      dup6\n      and\n      swap1\n      0xae89a248\n      swap1\n        /* \"ERC1155_Dropsite.sol\":1858:1930  IERC1155Receiver(to).onERC1155Received(operator, from, id, amount, data) */\n      tag_271\n      swap1\n        /* \"ERC1155_Dropsite.sol\":1897:1905  operator */\n      dup10\n      swap1\n        /* \"ERC1155_Dropsite.sol\":1907:1911  from */\n      dup10\n      swap1\n        /* \"ERC1155_Dropsite.sol\":1913:1915  id */\n      dup9\n      swap1\n        /* \"ERC1155_Dropsite.sol\":1917:1923  amount */\n      dup9\n      swap1\n        /* \"ERC1155_Dropsite.sol\":1925:1929  data */\n      dup9\n      swap1\n        /* \"ERC1155_Dropsite.sol\":1858:1930  IERC1155Receiver(to).onERC1155Received(operator, from, id, amount, data) */\n      0x04\n      add\n      tag_272\n      jump\t// in\n    tag_271:\n      0x20\n      mload(0x40)\n      dup1\n      dup4\n      sub\n      dup2\n      0x00\n      dup8\n      dup1\n      extcodesize\n      iszero\n      dup1\n      iszero\n      tag_273\n      jumpi\n      0x00\n      dup1\n      revert\n    tag_273:\n      pop\n      gas\n      call\n      swap3\n      pop\n      pop\n      pop\n      dup1\n      iszero\n      tag_274\n      jumpi\n      pop\n      0x40\n      dup1\n      mload\n      0x1f\n      returndatasize\n      swap1\n      dup2\n      add\n      not(0x1f)\n      and\n      dup3\n      add\n      swap1\n      swap3\n      mstore\n      tag_275\n      swap2\n      dup2\n      add\n      swap1\n      tag_276\n      jump\t// in\n    tag_275:\n      0x01\n    tag_274:\n        /* \"ERC1155_Dropsite.sol\":1854:2325  try IERC1155Receiver(to).onERC1155Received(operator, from, id, amount, data) returns (bytes4 response) {... */\n      tag_277\n      jumpi\n      tag_281\n      tag_282\n      jump\t// in\n    tag_281:\n      dup1\n      0x08c379a0\n      eq\n      iszero\n      tag_280\n      jumpi\n      pop\n      tag_283\n      tag_284\n      jump\t// in\n    tag_283:\n      dup1\n      tag_285\n      jumpi\n      pop\n      jump(tag_279)\n    tag_285:\n        /* \"ERC1155_Dropsite.sol\":2201:2207  reason */\n      dup1\n        /* \"ERC1155_Dropsite.sol\":2194:2208  revert(reason) */\n      mload(0x40)\n      shl(0xe5, 0x461bcd)\n      dup2\n      mstore\n      0x04\n      add\n      tag_69\n      swap2\n      swap1\n      tag_287\n      jump\t// in\n        /* \"ERC1155_Dropsite.sol\":1854:2325  try IERC1155Receiver(to).onERC1155Received(operator, from, id, amount, data) returns (bytes4 response) {... */\n    tag_280:\n      pop\n    tag_279:\n        /* \"ERC1155_Dropsite.sol\":2248:2310  revert(\"ERC1155: transfer to non ERC1155Receiver implementer\") */\n      mload(0x40)\n      shl(0xe5, 0x461bcd)\n      dup2\n      mstore\n        /* \"#utility.yul\":4717:4719   */\n      0x20\n        /* \"ERC1155_Dropsite.sol\":2248:2310  revert(\"ERC1155: transfer to non ERC1155Receiver implementer\") */\n      0x04\n      dup3\n      add\n        /* \"#utility.yul\":4699:4720   */\n      mstore\n        /* \"#utility.yul\":4756:4758   */\n      0x34\n        /* \"#utility.yul\":4736:4754   */\n      0x24\n      dup3\n      add\n        /* \"#utility.yul\":4729:4759   */\n      mstore\n        /* \"#utility.yul\":4795:4829   */\n      0x455243313135353a207472616e7366657220746f206e6f6e2045524331313535\n        /* \"#utility.yul\":4775:4793   */\n      0x44\n      dup3\n      add\n        /* \"#utility.yul\":4768:4830   */\n      mstore\n      shl(0x61, 0x2932b1b2b4bb32b91034b6b83632b6b2b73a32b9)\n        /* \"#utility.yul\":4846:4864   */\n      0x64\n      dup3\n      add\n        /* \"#utility.yul\":4839:4889   */\n      mstore\n        /* \"#utility.yul\":4906:4925   */\n      0x84\n      add\n        /* \"ERC1155_Dropsite.sol\":2248:2310  revert(\"ERC1155: transfer to non ERC1155Receiver implementer\") */\n      tag_69\n        /* \"#utility.yul\":4515:4931   */\n      jump\n        /* \"ERC1155_Dropsite.sol\":1854:2325  try IERC1155Receiver(to).onERC1155Received(operator, from, id, amount, data) returns (bytes4 response) {... */\n    tag_277:\n      not(sub(shl(0xe0, 0x01), 0x01))\n        /* \"ERC1155_Dropsite.sol\":1979:2034  response != IERC1155Receiver.onERC1155Received.selector */\n      dup2\n      and\n      shl(0xe3, 0x15d13449)\n      eq\n        /* \"ERC1155_Dropsite.sol\":1975:2127  if (response != IERC1155Receiver.onERC1155Received.selector) {... */\n      tag_291\n      jumpi\n        /* \"ERC1155_Dropsite.sol\":2058:2108  revert(\"ERC1155: ERC1155Receiver rejected tokens\") */\n      mload(0x40)\n      shl(0xe5, 0x461bcd)\n      dup2\n      mstore\n        /* \"#utility.yul\":5138:5140   */\n      0x20\n        /* \"ERC1155_Dropsite.sol\":2058:2108  revert(\"ERC1155: ERC1155Receiver rejected tokens\") */\n      0x04\n      dup3\n      add\n        /* \"#utility.yul\":5120:5141   */\n      mstore\n        /* \"#utility.yul\":5177:5179   */\n      0x28\n        /* \"#utility.yul\":5157:5175   */\n      0x24\n      dup3\n      add\n        /* \"#utility.yul\":5150:5180   */\n      mstore\n        /* \"#utility.yul\":5216:5250   */\n      0x455243313135353a204552433131353552656365697665722072656a65637465\n        /* \"#utility.yul\":5196:5214   */\n      0x44\n      dup3\n      add\n        /* \"#utility.yul\":5189:5251   */\n      mstore\n      shl(0xc0, 0x6420746f6b656e73)\n        /* \"#utility.yul\":5267:5285   */\n      0x64\n      dup3\n      add\n        /* \"#utility.yul\":5260:5298   */\n      mstore\n        /* \"#utility.yul\":5315:5334   */\n      0x84\n      add\n        /* \"ERC1155_Dropsite.sol\":2058:2108  revert(\"ERC1155: ERC1155Receiver rejected tokens\") */\n      tag_69\n        /* \"#utility.yul\":4936:5340   */\n      jump\n        /* \"ERC1155_Dropsite.sol\":1975:2127  if (response != IERC1155Receiver.onERC1155Received.selector) {... */\n    tag_291:\n        /* \"ERC1155_Dropsite.sol\":1931:2141  returns (bytes4 response) {... */\n      pop\n        /* \"ERC1155_Dropsite.sol\":1615:2341  function _doSafeTransferAcceptanceCheck(... */\n      pop\n      pop\n      pop\n      pop\n      pop\n      pop\n      jump\t// out\n    tag_186:\n      dup3\n      dup1\n      sload\n      tag_295\n      swap1\n      tag_106\n      jump\t// in\n    tag_295:\n      swap1\n      0x00\n      mstore\n      keccak256(0x00, 0x20)\n      swap1\n      0x1f\n      add\n      0x20\n      swap1\n      div\n      dup2\n      add\n      swap3\n      dup3\n      tag_297\n      jumpi\n      0x00\n      dup6\n      sstore\n      jump(tag_300)\n    tag_297:\n      dup3\n      0x1f\n      lt\n      tag_298\n      jumpi\n      dup1\n      mload\n      not(0xff)\n      and\n      dup4\n      dup1\n      add\n      or\n      dup6\n      sstore\n      jump(tag_300)\n    tag_298:\n      dup3\n      dup1\n      add\n      0x01\n      add\n      dup6\n      sstore\n      dup3\n      iszero\n      tag_300\n      jumpi\n      swap2\n      dup3\n      add\n    tag_299:\n      dup3\n      dup2\n      gt\n      iszero\n      tag_300\n      jumpi\n      dup3\n      mload\n      dup3\n      sstore\n      swap2\n      0x20\n      add\n      swap2\n      swap1\n      0x01\n      add\n      swap1\n      jump(tag_299)\n    tag_300:\n      pop\n      tag_301\n      swap3\n      swap2\n      pop\n      tag_302\n      jump\t// in\n    tag_301:\n      pop\n      swap1\n      jump\t// out\n    tag_205:\n      dup3\n      dup1\n      sload\n      tag_303\n      swap1\n      tag_106\n      jump\t// in\n    tag_303:\n      swap1\n      0x00\n      mstore\n      keccak256(0x00, 0x20)\n      swap1\n      0x1f\n      add\n      0x20\n      swap1\n      div\n      dup2\n      add\n      swap3\n      dup3\n      tag_305\n      jumpi\n      0x00\n      dup6\n      sstore\n      jump(tag_300)\n    tag_305:\n      dup3\n      0x1f\n      lt\n      tag_306\n      jumpi\n      dup1\n      sload\n      dup6\n      sstore\n      jump(tag_300)\n    tag_306:\n      dup3\n      dup1\n      add\n      0x01\n      add\n      dup6\n      sstore\n      dup3\n      iszero\n      tag_300\n      jumpi\n      0x00\n      mstore\n      keccak256(0x00, 0x20)\n      swap2\n      0x1f\n      add\n      0x20\n      swap1\n      div\n      dup3\n      add\n    tag_307:\n      dup3\n      dup2\n      gt\n      iszero\n      tag_300\n      jumpi\n      dup3\n      sload\n      dup3\n      sstore\n      swap2\n      0x01\n      add\n      swap2\n      swap1\n      0x01\n      add\n      swap1\n      jump(tag_307)\n    tag_302:\n    tag_310:\n      dup1\n      dup3\n      gt\n      iszero\n      tag_301\n      jumpi\n      0x00\n      dup2\n      sstore\n      0x01\n      add\n      jump(tag_310)\n        /* \"#utility.yul\":14:261   */\n    tag_34:\n        /* \"#utility.yul\":73:79   */\n      0x00\n        /* \"#utility.yul\":126:128   */\n      0x20\n        /* \"#utility.yul\":114:123   */\n      dup3\n        /* \"#utility.yul\":105:112   */\n      dup5\n        /* \"#utility.yul\":101:124   */\n      sub\n        /* \"#utility.yul\":97:129   */\n      slt\n        /* \"#utility.yul\":94:146   */\n      iszero\n      tag_314\n      jumpi\n        /* \"#utility.yul\":142:143   */\n      0x00\n        /* \"#utility.yul\":139:140   */\n      dup1\n        /* \"#utility.yul\":132:144   */\n      revert\n        /* \"#utility.yul\":94:146   */\n    tag_314:\n        /* \"#utility.yul\":181:190   */\n      dup2\n        /* \"#utility.yul\":168:191   */\n      calldataload\n        /* \"#utility.yul\":200:231   */\n      tag_315\n        /* \"#utility.yul\":225:230   */\n      dup2\n        /* \"#utility.yul\":200:231   */\n      tag_316\n      jump\t// in\n    tag_315:\n        /* \"#utility.yul\":250:255   */\n      swap4\n        /* \"#utility.yul\":14:261   */\n      swap3\n      pop\n      pop\n      pop\n      jump\t// out\n        /* \"#utility.yul\":526:816   */\n    tag_276:\n        /* \"#utility.yul\":595:601   */\n      0x00\n        /* \"#utility.yul\":648:650   */\n      0x20\n        /* \"#utility.yul\":636:645   */\n      dup3\n        /* \"#utility.yul\":627:634   */\n      dup5\n        /* \"#utility.yul\":623:646   */\n      sub\n        /* \"#utility.yul\":619:651   */\n      slt\n        /* \"#utility.yul\":616:668   */\n      iszero\n      tag_321\n      jumpi\n        /* \"#utility.yul\":664:665   */\n      0x00\n        /* \"#utility.yul\":661:662   */\n      dup1\n        /* \"#utility.yul\":654:666   */\n      revert\n        /* \"#utility.yul\":616:668   */\n    tag_321:\n        /* \"#utility.yul\":690:706   */\n      dup2\n      mload\n      not(sub(shl(0xe0, 0x01), 0x01))\n        /* \"#utility.yul\":735:767   */\n      dup2\n      and\n        /* \"#utility.yul\":725:768   */\n      dup2\n      eq\n        /* \"#utility.yul\":715:786   */\n      tag_315\n      jumpi\n        /* \"#utility.yul\":782:783   */\n      0x00\n        /* \"#utility.yul\":779:780   */\n      dup1\n        /* \"#utility.yul\":772:784   */\n      revert\n        /* \"#utility.yul\":821:1079   */\n    tag_323:\n        /* \"#utility.yul\":863:866   */\n      0x00\n        /* \"#utility.yul\":901:906   */\n      dup2\n        /* \"#utility.yul\":895:907   */\n      mload\n        /* \"#utility.yul\":928:934   */\n      dup1\n        /* \"#utility.yul\":923:926   */\n      dup5\n        /* \"#utility.yul\":916:935   */\n      mstore\n        /* \"#utility.yul\":944:1007   */\n      tag_325\n        /* \"#utility.yul\":1000:1006   */\n      dup2\n        /* \"#utility.yul\":993:997   */\n      0x20\n        /* \"#utility.yul\":988:991   */\n      dup7\n        /* \"#utility.yul\":984:998   */\n      add\n        /* \"#utility.yul\":977:981   */\n      0x20\n        /* \"#utility.yul\":970:975   */\n      dup7\n        /* \"#utility.yul\":966:982   */\n      add\n        /* \"#utility.yul\":944:1007   */\n      tag_326\n      jump\t// in\n    tag_325:\n        /* \"#utility.yul\":1061:1063   */\n      0x1f\n        /* \"#utility.yul\":1040:1055   */\n      add\n      not(0x1f)\n        /* \"#utility.yul\":1036:1065   */\n      and\n        /* \"#utility.yul\":1027:1066   */\n      swap3\n      swap1\n      swap3\n      add\n        /* \"#utility.yul\":1068:1072   */\n      0x20\n        /* \"#utility.yul\":1023:1073   */\n      add\n      swap3\n        /* \"#utility.yul\":821:1079   */\n      swap2\n      pop\n      pop\n      jump\t// out\n        /* \"#utility.yul\":1084:1509   */\n    tag_184:\n      shl(0xc0, 0x4469616d6f6e645f)\n        /* \"#utility.yul\":1341:1344   */\n      dup2\n        /* \"#utility.yul\":1334:1357   */\n      mstore\n        /* \"#utility.yul\":1316:1319   */\n      0x00\n        /* \"#utility.yul\":1386:1392   */\n      dup3\n        /* \"#utility.yul\":1380:1393   */\n      mload\n        /* \"#utility.yul\":1402:1463   */\n      tag_328\n        /* \"#utility.yul\":1456:1462   */\n      dup2\n        /* \"#utility.yul\":1452:1453   */\n      0x08\n        /* \"#utility.yul\":1447:1450   */\n      dup6\n        /* \"#utility.yul\":1443:1454   */\n      add\n        /* \"#utility.yul\":1436:1440   */\n      0x20\n        /* \"#utility.yul\":1428:1434   */\n      dup8\n        /* \"#utility.yul\":1424:1441   */\n      add\n        /* \"#utility.yul\":1402:1463   */\n      tag_326\n      jump\t// in\n    tag_328:\n        /* \"#utility.yul\":1483:1499   */\n      swap2\n      swap1\n      swap2\n      add\n        /* \"#utility.yul\":1501:1502   */\n      0x08\n        /* \"#utility.yul\":1479:1503   */\n      add\n      swap3\n        /* \"#utility.yul\":1084:1509   */\n      swap2\n      pop\n      pop\n      jump\t// out\n        /* \"#utility.yul\":1514:1936   */\n    tag_193:\n      shl(0xd8, 0x476f6c645f)\n        /* \"#utility.yul\":1771:1774   */\n      dup2\n        /* \"#utility.yul\":1764:1784   */\n      mstore\n        /* \"#utility.yul\":1746:1749   */\n      0x00\n        /* \"#utility.yul\":1813:1819   */\n      dup3\n        /* \"#utility.yul\":1807:1820   */\n      mload\n        /* \"#utility.yul\":1829:1890   */\n      tag_330\n        /* \"#utility.yul\":1883:1889   */\n      dup2\n        /* \"#utility.yul\":1879:1880   */\n      0x05\n        /* \"#utility.yul\":1874:1877   */\n      dup6\n        /* \"#utility.yul\":1870:1881   */\n      add\n        /* \"#utility.yul\":1863:1867   */\n      0x20\n        /* \"#utility.yul\":1855:1861   */\n      dup8\n        /* \"#utility.yul\":1851:1868   */\n      add\n        /* \"#utility.yul\":1829:1890   */\n      tag_326\n      jump\t// in\n    tag_330:\n        /* \"#utility.yul\":1910:1926   */\n      swap2\n      swap1\n      swap2\n      add\n        /* \"#utility.yul\":1928:1929   */\n      0x05\n        /* \"#utility.yul\":1906:1930   */\n      add\n      swap3\n        /* \"#utility.yul\":1514:1936   */\n      swap2\n      pop\n      pop\n      jump\t// out\n        /* \"#utility.yul\":1941:2365   */\n    tag_201:\n      shl(0xc8, 0x53696c7665725f)\n        /* \"#utility.yul\":2198:2201   */\n      dup2\n        /* \"#utility.yul\":2191:2213   */\n      mstore\n        /* \"#utility.yul\":2173:2176   */\n      0x00\n        /* \"#utility.yul\":2242:2248   */\n      dup3\n        /* \"#utility.yul\":2236:2249   */\n      mload\n        /* \"#utility.yul\":2258:2319   */\n      tag_332\n        /* \"#utility.yul\":2312:2318   */\n      dup2\n        /* \"#utility.yul\":2308:2309   */\n      0x07\n        /* \"#utility.yul\":2303:2306   */\n      dup6\n        /* \"#utility.yul\":2299:2310   */\n      add\n        /* \"#utility.yul\":2292:2296   */\n      0x20\n        /* \"#utility.yul\":2284:2290   */\n      dup8\n        /* \"#utility.yul\":2280:2297   */\n      add\n        /* \"#utility.yul\":2258:2319   */\n      tag_326\n      jump\t// in\n    tag_332:\n        /* \"#utility.yul\":2339:2355   */\n      swap2\n      swap1\n      swap2\n      add\n        /* \"#utility.yul\":2357:2358   */\n      0x07\n        /* \"#utility.yul\":2335:2359   */\n      add\n      swap3\n        /* \"#utility.yul\":1941:2365   */\n      swap2\n      pop\n      pop\n      jump\t// out\n        /* \"#utility.yul\":2893:3456   */\n    tag_272:\n      sub(shl(0xa0, 0x01), 0x01)\n        /* \"#utility.yul\":3192:3207   */\n      dup7\n      dup2\n      and\n        /* \"#utility.yul\":3174:3208   */\n      dup3\n      mstore\n        /* \"#utility.yul\":3244:3259   */\n      dup6\n      and\n        /* \"#utility.yul\":3239:3241   */\n      0x20\n        /* \"#utility.yul\":3224:3242   */\n      dup3\n      add\n        /* \"#utility.yul\":3217:3260   */\n      mstore\n        /* \"#utility.yul\":3291:3293   */\n      0x40\n        /* \"#utility.yul\":3276:3294   */\n      dup2\n      add\n        /* \"#utility.yul\":3269:3303   */\n      dup5\n      swap1\n      mstore\n        /* \"#utility.yul\":3334:3336   */\n      0x60\n        /* \"#utility.yul\":3319:3337   */\n      dup2\n      add\n        /* \"#utility.yul\":3312:3346   */\n      dup4\n      swap1\n      mstore\n        /* \"#utility.yul\":3154:3157   */\n      0xa0\n        /* \"#utility.yul\":3377:3380   */\n      0x80\n        /* \"#utility.yul\":3362:3381   */\n      dup3\n      add\n        /* \"#utility.yul\":3355:3387   */\n      dup2\n      swap1\n      mstore\n        /* \"#utility.yul\":3117:3121   */\n      0x00\n      swap1\n        /* \"#utility.yul\":3404:3450   */\n      tag_336\n      swap1\n        /* \"#utility.yul\":3430:3449   */\n      dup4\n      add\n        /* \"#utility.yul\":3422:3428   */\n      dup5\n        /* \"#utility.yul\":3404:3450   */\n      tag_323\n      jump\t// in\n    tag_336:\n        /* \"#utility.yul\":3396:3450   */\n      swap8\n        /* \"#utility.yul\":2893:3456   */\n      swap7\n      pop\n      pop\n      pop\n      pop\n      pop\n      pop\n      pop\n      jump\t// out\n        /* \"#utility.yul\":3461:4093   */\n    tag_64:\n        /* \"#utility.yul\":3632:3634   */\n      0x20\n        /* \"#utility.yul\":3684:3705   */\n      dup1\n      dup3\n      mstore\n        /* \"#utility.yul\":3754:3767   */\n      dup3\n      mload\n        /* \"#utility.yul\":3657:3675   */\n      dup3\n      dup3\n      add\n        /* \"#utility.yul\":3776:3798   */\n      dup2\n      swap1\n      mstore\n        /* \"#utility.yul\":3603:3607   */\n      0x00\n      swap2\n        /* \"#utility.yul\":3632:3634   */\n      swap1\n        /* \"#utility.yul\":3855:3870   */\n      dup5\n      dup3\n      add\n      swap1\n        /* \"#utility.yul\":3829:3831   */\n      0x40\n        /* \"#utility.yul\":3814:3832   */\n      dup6\n      add\n      swap1\n        /* \"#utility.yul\":3603:3607   */\n      dup5\n        /* \"#utility.yul\":3898:4067   */\n    tag_338:\n        /* \"#utility.yul\":3912:3918   */\n      dup2\n        /* \"#utility.yul\":3909:3910   */\n      dup2\n        /* \"#utility.yul\":3906:3919   */\n      lt\n        /* \"#utility.yul\":3898:4067   */\n      iszero\n      tag_340\n      jumpi\n        /* \"#utility.yul\":3973:3986   */\n      dup4\n      mload\n        /* \"#utility.yul\":3961:3987   */\n      dup4\n      mstore\n        /* \"#utility.yul\":4042:4057   */\n      swap3\n      dup5\n      add\n      swap3\n        /* \"#utility.yul\":4007:4019   */\n      swap2\n      dup5\n      add\n      swap2\n        /* \"#utility.yul\":3934:3935   */\n      0x01\n        /* \"#utility.yul\":3927:3936   */\n      add\n        /* \"#utility.yul\":3898:4067   */\n      jump(tag_338)\n    tag_340:\n      pop\n        /* \"#utility.yul\":4084:4087   */\n      swap1\n      swap7\n        /* \"#utility.yul\":3461:4093   */\n      swap6\n      pop\n      pop\n      pop\n      pop\n      pop\n      pop\n      jump\t// out\n        /* \"#utility.yul\":4290:4510   */\n    tag_287:\n        /* \"#utility.yul\":4439:4441   */\n      0x20\n        /* \"#utility.yul\":4428:4437   */\n      dup2\n        /* \"#utility.yul\":4421:4442   */\n      mstore\n        /* \"#utility.yul\":4402:4406   */\n      0x00\n        /* \"#utility.yul\":4459:4504   */\n      tag_315\n        /* \"#utility.yul\":4500:4502   */\n      0x20\n        /* \"#utility.yul\":4489:4498   */\n      dup4\n        /* \"#utility.yul\":4485:4503   */\n      add\n        /* \"#utility.yul\":4477:4483   */\n      dup5\n        /* \"#utility.yul\":4459:4504   */\n      tag_323\n      jump\t// in\n        /* \"#utility.yul\":6411:6763   */\n    tag_70:\n        /* \"#utility.yul\":6613:6615   */\n      0x20\n        /* \"#utility.yul\":6595:6616   */\n      dup1\n      dup3\n      mstore\n        /* \"#utility.yul\":6652:6654   */\n      0x1c\n        /* \"#utility.yul\":6632:6650   */\n      swap1\n      dup3\n      add\n        /* \"#utility.yul\":6625:6655   */\n      mstore\n        /* \"#utility.yul\":6691:6721   */\n      0x4f6e6c79204e46542d4553204f776e65722063616e2041636365737300000000\n        /* \"#utility.yul\":6686:6688   */\n      0x40\n        /* \"#utility.yul\":6671:6689   */\n      dup3\n      add\n        /* \"#utility.yul\":6664:6722   */\n      mstore\n        /* \"#utility.yul\":6754:6756   */\n      0x60\n        /* \"#utility.yul\":6739:6757   */\n      add\n      swap1\n        /* \"#utility.yul\":6411:6763   */\n      jump\t// out\n        /* \"#utility.yul\":6768:7119   */\n    tag_97:\n        /* \"#utility.yul\":6970:6972   */\n      0x20\n        /* \"#utility.yul\":6952:6973   */\n      dup1\n      dup3\n      mstore\n        /* \"#utility.yul\":7009:7011   */\n      0x1b\n        /* \"#utility.yul\":6989:7007   */\n      swap1\n      dup3\n      add\n        /* \"#utility.yul\":6982:7012   */\n      mstore\n        /* \"#utility.yul\":7048:7077   */\n      0x44726f7073697465206973206e6f74204f70656e6564205965742e0000000000\n        /* \"#utility.yul\":7043:7045   */\n      0x40\n        /* \"#utility.yul\":7028:7046   */\n      dup3\n      add\n        /* \"#utility.yul\":7021:7078   */\n      mstore\n        /* \"#utility.yul\":7110:7112   */\n      0x60\n        /* \"#utility.yul\":7095:7113   */\n      add\n      swap1\n        /* \"#utility.yul\":6768:7119   */\n      jump\t// out\n        /* \"#utility.yul\":8420:8711   */\n    tag_37:\n        /* \"#utility.yul\":8597:8603   */\n      dup3\n        /* \"#utility.yul\":8586:8595   */\n      dup2\n        /* \"#utility.yul\":8579:8604   */\n      mstore\n        /* \"#utility.yul\":8640:8642   */\n      0x40\n        /* \"#utility.yul\":8635:8637   */\n      0x20\n        /* \"#utility.yul\":8624:8633   */\n      dup3\n        /* \"#utility.yul\":8620:8638   */\n      add\n        /* \"#utility.yul\":8613:8643   */\n      mstore\n        /* \"#utility.yul\":8560:8564   */\n      0x00\n        /* \"#utility.yul\":8660:8705   */\n      tag_252\n        /* \"#utility.yul\":8701:8703   */\n      0x40\n        /* \"#utility.yul\":8690:8699   */\n      dup4\n        /* \"#utility.yul\":8686:8704   */\n      add\n        /* \"#utility.yul\":8678:8684   */\n      dup5\n        /* \"#utility.yul\":8660:8705   */\n      tag_323\n      jump\t// in\n        /* \"#utility.yul\":9293:9421   */\n    tag_228:\n        /* \"#utility.yul\":9333:9336   */\n      0x00\n        /* \"#utility.yul\":9364:9365   */\n      dup3\n        /* \"#utility.yul\":9360:9366   */\n      not\n        /* \"#utility.yul\":9357:9358   */\n      dup3\n        /* \"#utility.yul\":9354:9367   */\n      gt\n        /* \"#utility.yul\":9351:9390   */\n      iszero\n      tag_361\n      jumpi\n        /* \"#utility.yul\":9370:9388   */\n      tag_361\n      tag_362\n      jump\t// in\n    tag_361:\n      pop\n        /* \"#utility.yul\":9406:9415   */\n      add\n      swap1\n        /* \"#utility.yul\":9293:9421   */\n      jump\t// out\n        /* \"#utility.yul\":9426:9546   */\n    tag_246:\n        /* \"#utility.yul\":9466:9467   */\n      0x00\n        /* \"#utility.yul\":9492:9493   */\n      dup3\n        /* \"#utility.yul\":9482:9517   */\n      tag_365\n      jumpi\n        /* \"#utility.yul\":9497:9515   */\n      tag_365\n      tag_366\n      jump\t// in\n    tag_365:\n      pop\n        /* \"#utility.yul\":9531:9540   */\n      div\n      swap1\n        /* \"#utility.yul\":9426:9546   */\n      jump\t// out\n        /* \"#utility.yul\":9551:9676   */\n    tag_254:\n        /* \"#utility.yul\":9591:9595   */\n      0x00\n        /* \"#utility.yul\":9619:9620   */\n      dup3\n        /* \"#utility.yul\":9616:9617   */\n      dup3\n        /* \"#utility.yul\":9613:9621   */\n      lt\n        /* \"#utility.yul\":9610:9644   */\n      iszero\n      tag_369\n      jumpi\n        /* \"#utility.yul\":9624:9642   */\n      tag_369\n      tag_362\n      jump\t// in\n    tag_369:\n      pop\n        /* \"#utility.yul\":9661:9670   */\n      sub\n      swap1\n        /* \"#utility.yul\":9551:9676   */\n      jump\t// out\n        /* \"#utility.yul\":9681:9939   */\n    tag_326:\n        /* \"#utility.yul\":9753:9754   */\n      0x00\n        /* \"#utility.yul\":9763:9876   */\n    tag_371:\n        /* \"#utility.yul\":9777:9783   */\n      dup4\n        /* \"#utility.yul\":9774:9775   */\n      dup2\n        /* \"#utility.yul\":9771:9784   */\n      lt\n        /* \"#utility.yul\":9763:9876   */\n      iszero\n      tag_373\n      jumpi\n        /* \"#utility.yul\":9853:9864   */\n      dup2\n      dup2\n      add\n        /* \"#utility.yul\":9847:9865   */\n      mload\n        /* \"#utility.yul\":9834:9845   */\n      dup4\n      dup3\n      add\n        /* \"#utility.yul\":9827:9866   */\n      mstore\n        /* \"#utility.yul\":9799:9801   */\n      0x20\n        /* \"#utility.yul\":9792:9802   */\n      add\n        /* \"#utility.yul\":9763:9876   */\n      jump(tag_371)\n    tag_373:\n        /* \"#utility.yul\":9894:9900   */\n      dup4\n        /* \"#utility.yul\":9891:9892   */\n      dup2\n        /* \"#utility.yul\":9888:9901   */\n      gt\n        /* \"#utility.yul\":9885:9933   */\n      iszero\n      tag_374\n      jumpi\n        /* \"#utility.yul\":9929:9930   */\n      0x00\n        /* \"#utility.yul\":9920:9926   */\n      dup5\n        /* \"#utility.yul\":9915:9918   */\n      dup5\n        /* \"#utility.yul\":9911:9927   */\n      add\n        /* \"#utility.yul\":9904:9931   */\n      mstore\n        /* \"#utility.yul\":9885:9933   */\n    tag_374:\n      pop\n        /* \"#utility.yul\":9681:9939   */\n      pop\n      pop\n      pop\n      jump\t// out\n        /* \"#utility.yul\":9944:10324   */\n    tag_106:\n        /* \"#utility.yul\":10023:10024   */\n      0x01\n        /* \"#utility.yul\":10019:10031   */\n      dup2\n      dup2\n      shr\n      swap1\n        /* \"#utility.yul\":10066:10078   */\n      dup3\n      and\n      dup1\n        /* \"#utility.yul\":10087:10148   */\n      tag_376\n      jumpi\n        /* \"#utility.yul\":10141:10145   */\n      0x7f\n        /* \"#utility.yul\":10133:10139   */\n      dup3\n        /* \"#utility.yul\":10129:10146   */\n      and\n        /* \"#utility.yul\":10119:10146   */\n      swap2\n      pop\n        /* \"#utility.yul\":10087:10148   */\n    tag_376:\n        /* \"#utility.yul\":10194:10196   */\n      0x20\n        /* \"#utility.yul\":10186:10192   */\n      dup3\n        /* \"#utility.yul\":10183:10197   */\n      lt\n        /* \"#utility.yul\":10163:10181   */\n      dup2\n        /* \"#utility.yul\":10160:10198   */\n      eq\n        /* \"#utility.yul\":10157:10318   */\n      iszero\n      tag_377\n      jumpi\n        /* \"#utility.yul\":10240:10250   */\n      0x4e487b71\n        /* \"#utility.yul\":10235:10238   */\n      0xe0\n        /* \"#utility.yul\":10231:10251   */\n      shl\n        /* \"#utility.yul\":10228:10229   */\n      0x00\n        /* \"#utility.yul\":10221:10252   */\n      mstore\n        /* \"#utility.yul\":10275:10279   */\n      0x22\n        /* \"#utility.yul\":10272:10273   */\n      0x04\n        /* \"#utility.yul\":10265:10280   */\n      mstore\n        /* \"#utility.yul\":10303:10307   */\n      0x24\n        /* \"#utility.yul\":10300:10301   */\n      0x00\n        /* \"#utility.yul\":10293:10308   */\n      revert\n        /* \"#utility.yul\":10157:10318   */\n    tag_377:\n      pop\n        /* \"#utility.yul\":9944:10324   */\n      swap2\n      swap1\n      pop\n      jump\t// out\n        /* \"#utility.yul\":10329:10675   */\n    tag_378:\n        /* \"#utility.yul\":10439:10441   */\n      0x1f\n        /* \"#utility.yul\":10420:10433   */\n      dup3\n      add\n      not(0x1f)\n        /* \"#utility.yul\":10416:10443   */\n      and\n        /* \"#utility.yul\":10404:10444   */\n      dup2\n      add\n        /* \"#utility.yul\":10474:10492   */\n      0xffffffffffffffff\n        /* \"#utility.yul\":10459:10493   */\n      dup2\n      gt\n        /* \"#utility.yul\":10495:10517   */\n      dup3\n      dup3\n      lt\n        /* \"#utility.yul\":10456:10518   */\n      or\n        /* \"#utility.yul\":10453:10638   */\n      iszero\n      tag_380\n      jumpi\n        /* \"#utility.yul\":10560:10570   */\n      0x4e487b71\n        /* \"#utility.yul\":10555:10558   */\n      0xe0\n        /* \"#utility.yul\":10551:10571   */\n      shl\n        /* \"#utility.yul\":10548:10549   */\n      0x00\n        /* \"#utility.yul\":10541:10572   */\n      mstore\n        /* \"#utility.yul\":10595:10599   */\n      0x41\n        /* \"#utility.yul\":10592:10593   */\n      0x04\n        /* \"#utility.yul\":10585:10600   */\n      mstore\n        /* \"#utility.yul\":10623:10627   */\n      0x24\n        /* \"#utility.yul\":10620:10621   */\n      0x00\n        /* \"#utility.yul\":10613:10628   */\n      revert\n        /* \"#utility.yul\":10453:10638   */\n    tag_380:\n        /* \"#utility.yul\":10654:10656   */\n      0x40\n        /* \"#utility.yul\":10647:10669   */\n      mstore\n      pop\n      pop\n        /* \"#utility.yul\":10329:10675   */\n      jump\t// out\n        /* \"#utility.yul\":10680:10815   */\n    tag_113:\n        /* \"#utility.yul\":10719:10722   */\n      0x00\n      not(0x00)\n        /* \"#utility.yul\":10740:10757   */\n      dup3\n      eq\n        /* \"#utility.yul\":10737:10780   */\n      iszero\n      tag_383\n      jumpi\n        /* \"#utility.yul\":10760:10778   */\n      tag_383\n      tag_362\n      jump\t// in\n    tag_383:\n      pop\n        /* \"#utility.yul\":10807:10808   */\n      0x01\n        /* \"#utility.yul\":10796:10809   */\n      add\n      swap1\n        /* \"#utility.yul\":10680:10815   */\n      jump\t// out\n        /* \"#utility.yul\":10820:10932   */\n    tag_239:\n        /* \"#utility.yul\":10852:10853   */\n      0x00\n        /* \"#utility.yul\":10878:10879   */\n      dup3\n        /* \"#utility.yul\":10868:10903   */\n      tag_386\n      jumpi\n        /* \"#utility.yul\":10883:10901   */\n      tag_386\n      tag_366\n      jump\t// in\n    tag_386:\n      pop\n        /* \"#utility.yul\":10917:10926   */\n      mod\n      swap1\n        /* \"#utility.yul\":10820:10932   */\n      jump\t// out\n        /* \"#utility.yul\":10937:11064   */\n    tag_362:\n        /* \"#utility.yul\":10998:11008   */\n      0x4e487b71\n        /* \"#utility.yul\":10993:10996   */\n      0xe0\n        /* \"#utility.yul\":10989:11009   */\n      shl\n        /* \"#utility.yul\":10986:10987   */\n      0x00\n        /* \"#utility.yul\":10979:11010   */\n      mstore\n        /* \"#utility.yul\":11029:11033   */\n      0x11\n        /* \"#utility.yul\":11026:11027   */\n      0x04\n        /* \"#utility.yul\":11019:11034   */\n      mstore\n        /* \"#utility.yul\":11053:11057   */\n      0x24\n        /* \"#utility.yul\":11050:11051   */\n      0x00\n        /* \"#utility.yul\":11043:11058   */\n      revert\n        /* \"#utility.yul\":11069:11196   */\n    tag_366:\n        /* \"#utility.yul\":11130:11140   */\n      0x4e487b71\n        /* \"#utility.yul\":11125:11128   */\n      0xe0\n        /* \"#utility.yul\":11121:11141   */\n      shl\n        /* \"#utility.yul\":11118:11119   */\n      0x00\n        /* \"#utility.yul\":11111:11142   */\n      mstore\n        /* \"#utility.yul\":11161:11165   */\n      0x12\n        /* \"#utility.yul\":11158:11159   */\n      0x04\n        /* \"#utility.yul\":11151:11166   */\n      mstore\n        /* \"#utility.yul\":11185:11189   */\n      0x24\n        /* \"#utility.yul\":11182:11183   */\n      0x00\n        /* \"#utility.yul\":11175:11190   */\n      revert\n        /* \"#utility.yul\":11201:11328   */\n    tag_176:\n        /* \"#utility.yul\":11262:11272   */\n      0x4e487b71\n        /* \"#utility.yul\":11257:11260   */\n      0xe0\n        /* \"#utility.yul\":11253:11273   */\n      shl\n        /* \"#utility.yul\":11250:11251   */\n      0x00\n        /* \"#utility.yul\":11243:11274   */\n      mstore\n        /* \"#utility.yul\":11293:11297   */\n      0x32\n        /* \"#utility.yul\":11290:11291   */\n      0x04\n        /* \"#utility.yul\":11283:11298   */\n      mstore\n        /* \"#utility.yul\":11317:11321   */\n      0x24\n        /* \"#utility.yul\":11314:11315   */\n      0x00\n        /* \"#utility.yul\":11307:11322   */\n      revert\n        /* \"#utility.yul\":11333:11460   */\n    tag_249:\n        /* \"#utility.yul\":11394:11404   */\n      0x4e487b71\n        /* \"#utility.yul\":11389:11392   */\n      0xe0\n        /* \"#utility.yul\":11385:11405   */\n      shl\n        /* \"#utility.yul\":11382:11383   */\n      0x00\n        /* \"#utility.yul\":11375:11406   */\n      mstore\n        /* \"#utility.yul\":11425:11429   */\n      0x41\n        /* \"#utility.yul\":11422:11423   */\n      0x04\n        /* \"#utility.yul\":11415:11430   */\n      mstore\n        /* \"#utility.yul\":11449:11453   */\n      0x24\n        /* \"#utility.yul\":11446:11447   */\n      0x00\n        /* \"#utility.yul\":11439:11454   */\n      revert\n        /* \"#utility.yul\":11465:11644   */\n    tag_282:\n        /* \"#utility.yul\":11500:11503   */\n      0x00\n        /* \"#utility.yul\":11542:11543   */\n      0x03\n        /* \"#utility.yul\":11524:11540   */\n      returndatasize\n        /* \"#utility.yul\":11521:11544   */\n      gt\n        /* \"#utility.yul\":11518:11638   */\n      iszero\n      tag_71\n      jumpi\n        /* \"#utility.yul\":11588:11589   */\n      0x04\n        /* \"#utility.yul\":11585:11586   */\n      0x00\n        /* \"#utility.yul\":11582:11583   */\n      dup1\n        /* \"#utility.yul\":11567:11590   */\n      returndatacopy\n      pop\n        /* \"#utility.yul\":11625:11626   */\n      0x00\n        /* \"#utility.yul\":11619:11627   */\n      mload\n        /* \"#utility.yul\":11614:11617   */\n      0xe0\n        /* \"#utility.yul\":11610:11628   */\n      shr\n        /* \"#utility.yul\":11465:11644   */\n      swap1\n      jump\t// out\n        /* \"#utility.yul\":11649:12320   */\n    tag_284:\n        /* \"#utility.yul\":11688:11691   */\n      0x00\n        /* \"#utility.yul\":11730:11734   */\n      0x44\n        /* \"#utility.yul\":11712:11728   */\n      returndatasize\n        /* \"#utility.yul\":11709:11735   */\n      lt\n        /* \"#utility.yul\":11706:11745   */\n      iszero\n      tag_394\n      jumpi\n        /* \"#utility.yul\":11649:12320   */\n      swap1\n      jump\t// out\n        /* \"#utility.yul\":11706:11745   */\n    tag_394:\n        /* \"#utility.yul\":11772:11774   */\n      0x40\n        /* \"#utility.yul\":11766:11775   */\n      mload\n      not(0x03)\n        /* \"#utility.yul\":11837:11853   */\n      returndatasize\n        /* \"#utility.yul\":11833:11858   */\n      dup2\n      add\n        /* \"#utility.yul\":11830:11831   */\n      0x04\n        /* \"#utility.yul\":11766:11775   */\n      dup4\n        /* \"#utility.yul\":11809:11859   */\n      returndatacopy\n        /* \"#utility.yul\":11888:11892   */\n      dup2\n        /* \"#utility.yul\":11882:11893   */\n      mload\n        /* \"#utility.yul\":11912:11928   */\n      returndatasize\n        /* \"#utility.yul\":11947:11965   */\n      0xffffffffffffffff\n        /* \"#utility.yul\":12018:12020   */\n      dup2\n        /* \"#utility.yul\":12011:12015   */\n      0x24\n        /* \"#utility.yul\":12003:12009   */\n      dup5\n        /* \"#utility.yul\":11999:12016   */\n      add\n        /* \"#utility.yul\":11996:12021   */\n      gt\n        /* \"#utility.yul\":11991:11993   */\n      dup2\n        /* \"#utility.yul\":11983:11989   */\n      dup5\n        /* \"#utility.yul\":11980:11994   */\n      gt\n        /* \"#utility.yul\":11977:12022   */\n      or\n        /* \"#utility.yul\":11974:12032   */\n      iszero\n      tag_395\n      jumpi\n        /* \"#utility.yul\":12025:12030   */\n      pop\n      pop\n      pop\n      pop\n      pop\n        /* \"#utility.yul\":11649:12320   */\n      swap1\n      jump\t// out\n        /* \"#utility.yul\":11974:12032   */\n    tag_395:\n        /* \"#utility.yul\":12062:12068   */\n      dup3\n        /* \"#utility.yul\":12056:12060   */\n      dup6\n        /* \"#utility.yul\":12052:12069   */\n      add\n        /* \"#utility.yul\":12041:12069   */\n      swap2\n      pop\n        /* \"#utility.yul\":12098:12101   */\n      dup2\n        /* \"#utility.yul\":12092:12102   */\n      mload\n        /* \"#utility.yul\":12125:12127   */\n      dup2\n        /* \"#utility.yul\":12117:12123   */\n      dup2\n        /* \"#utility.yul\":12114:12128   */\n      gt\n        /* \"#utility.yul\":12111:12138   */\n      iszero\n      tag_396\n      jumpi\n        /* \"#utility.yul\":12131:12136   */\n      pop\n      pop\n      pop\n      pop\n      pop\n      pop\n        /* \"#utility.yul\":11649:12320   */\n      swap1\n      jump\t// out\n        /* \"#utility.yul\":12111:12138   */\n    tag_396:\n        /* \"#utility.yul\":12215:12217   */\n      dup5\n        /* \"#utility.yul\":12196:12212   */\n      returndatasize\n        /* \"#utility.yul\":12190:12194   */\n      dup8\n        /* \"#utility.yul\":12186:12213   */\n      add\n        /* \"#utility.yul\":12182:12218   */\n      add\n        /* \"#utility.yul\":12175:12179   */\n      0x20\n        /* \"#utility.yul\":12166:12172   */\n      dup3\n        /* \"#utility.yul\":12161:12164   */\n      dup6\n        /* \"#utility.yul\":12157:12173   */\n      add\n        /* \"#utility.yul\":12153:12180   */\n      add\n        /* \"#utility.yul\":12150:12219   */\n      gt\n        /* \"#utility.yul\":12147:12229   */\n      iszero\n      tag_397\n      jumpi\n        /* \"#utility.yul\":12222:12227   */\n      pop\n      pop\n      pop\n      pop\n      pop\n      pop\n        /* \"#utility.yul\":11649:12320   */\n      swap1\n      jump\t// out\n        /* \"#utility.yul\":12147:12229   */\n    tag_397:\n        /* \"#utility.yul\":12238:12295   */\n      tag_398\n        /* \"#utility.yul\":12289:12293   */\n      0x20\n        /* \"#utility.yul\":12280:12286   */\n      dup3\n        /* \"#utility.yul\":12272:12278   */\n      dup7\n        /* \"#utility.yul\":12268:12287   */\n      add\n        /* \"#utility.yul\":12264:12294   */\n      add\n        /* \"#utility.yul\":12258:12262   */\n      dup8\n        /* \"#utility.yul\":12238:12295   */\n      tag_378\n      jump\t// in\n    tag_398:\n      pop\n        /* \"#utility.yul\":12311:12314   */\n      swap1\n      swap6\n        /* \"#utility.yul\":11649:12320   */\n      swap5\n      pop\n      pop\n      pop\n      pop\n      pop\n      jump\t// out\n        /* \"#utility.yul\":12325:12456   */\n    tag_316:\n      sub(shl(0xa0, 0x01), 0x01)\n        /* \"#utility.yul\":12400:12431   */\n      dup2\n      and\n        /* \"#utility.yul\":12390:12432   */\n      dup2\n      eq\n        /* \"#utility.yul\":12380:12450   */\n      tag_400\n      jumpi\n        /* \"#utility.yul\":12446:12447   */\n      0x00\n        /* \"#utility.yul\":12443:12444   */\n      dup1\n        /* \"#utility.yul\":12436:12448   */\n      revert\n        /* \"#utility.yul\":12380:12450   */\n    tag_400:\n        /* \"#utility.yul\":12325:12456   */\n      pop\n      jump\t// out\n\n    auxdata: 0xa2646970667358221220beaa33ab9fc5e1b7eab3f745dfa9316cd77b5213ba482cc3b30f7d47456edd5c64736f6c63430008070033\n}\n",
				"bytecode": {
					"linkReferences": {},
					"object": "60a06040819052600060808190526200001b9160029162000159565b50604080516102808101825260008152600160208201819052918101919091526002606082018190526080820181905260a0820181905260c0820181905260e08201819052610100820181905261012082018190526101408201819052610160820181905261018082018190526101a082018190526101c082018190526101e08201819052610200820181905261022082018190526102408201819052610260820152620000ce906003906014620001e8565b50600b805460ff19166001179055348015620000e957600080fd5b5060405162001877380380620018778339810160408190526200010c916200028f565b80516200012190600c90602084019062000159565b5050600b8054610100600160a81b031916336101000217905560006004819055600160055560068190556007819055600855620003be565b82805462000167906200036b565b90600052602060002090601f0160209004810192826200018b5760008555620001d6565b82601f10620001a657805160ff1916838001178555620001d6565b82800160010185558215620001d6579182015b82811115620001d6578251825591602001919060010190620001b9565b50620001e492915062000278565b5090565b600183019183908215620001d65791602002820160005b838211156200023f57835183826101000a81548160ff021916908360ff1602179055509260200192600101602081600001049283019260010302620001ff565b80156200026e5782816101000a81549060ff02191690556001016020816000010492830192600103026200023f565b5050620001e49291505b5b80821115620001e4576000815560010162000279565b60006020808385031215620002a357600080fd5b82516001600160401b0380821115620002bb57600080fd5b818501915085601f830112620002d057600080fd5b815181811115620002e557620002e5620003a8565b604051601f8201601f19908116603f01168101908382118183101715620003105762000310620003a8565b8160405282815288868487010111156200032957600080fd5b600093505b828410156200034d57848401860151818501870152928501926200032e565b828411156200035f5760008684830101525b98975050505050505050565b600181811c908216806200038057607f821691505b60208210811415620003a257634e487b7160e01b600052602260045260246000fd5b50919050565b634e487b7160e01b600052604160045260246000fd5b6114a980620003ce6000396000f3fe60806040526004361061009c5760003560e01c80633b668059116100645780633b6680591461014b5780633d65df701461016057806360daa85114610173578063aa90c726146101a3578063b4a99a4e146101b8578063fd6c3b1b146101f557600080fd5b80630390c11c146100a15780630a67d2c7146100c95780631309a563146100de578063154602591461010857806332b61b4c1461011d575b600080fd5b3480156100ad57600080fd5b506100b6610222565b6040519081526020015b60405180910390f35b6100dc6100d736600461101d565b61026e565b005b3480156100ea57600080fd5b50600b546100f89060ff1681565b60405190151581526020016100c0565b34801561011457600080fd5b506100dc61032f565b34801561012957600080fd5b5061013d61013836600461101d565b6103ca565b6040516100c092919061122d565b34801561015757600080fd5b506100b66105fa565b61013d61016e36600461101d565b61063a565b34801561017f57600080fd5b50610188610735565b604080519384526020840192909252908201526060016100c0565b3480156101af57600080fd5b506100dc610786565b3480156101c457600080fd5b50600b546101dd9061010090046001600160a01b031681565b6040516001600160a01b0390911681526020016100c0565b34801561020157600080fd5b5061021561021036600461101d565b610820565b6040516100c09190611168565b600b5460009061010090046001600160a01b0316336001600160a01b0316146102665760405162461bcd60e51b815260040161025d906111bf565b60405180910390fd5b506004545b90565b600b5461010090046001600160a01b0316336001600160a01b0316146102a65760405162461bcd60e51b815260040161025d906111bf565b47806102f45760405162461bcd60e51b815260206004820152601d60248201527f4572726f7221204e6f2042616c616e636520746f207769746864726177000000604482015260640161025d565b6040516001600160a01b0383169082156108fc029083906000818181858888f1935050505015801561032a573d6000803e3d6000fd5b505050565b600b5461010090046001600160a01b0316336001600160a01b0316146103675760405162461bcd60e51b815260040161025d906111bf565b600b5460ff1615156001146103be5760405162461bcd60e51b815260206004820152601b60248201527f44726f707369746520697320616c72656164792052756e6e696e670000000000604482015260640161025d565b600b805460ff19169055565b600b5460009060609061010090046001600160a01b0316336001600160a01b0316146104085760405162461bcd60e51b815260040161025d906111bf565b600b5460ff161561042b5760405162461bcd60e51b815260040161025d906111f6565b6103e86004541061047a5760405162461bcd60e51b815260206004820152601960248201527813585e08135a5b9d1a5b99c8131a5b5a5d081c995858da1959603a1b604482015260640161025d565b600061048461088c565b905061051e84826005546002805461049b906112b9565b80601f01602080910402602001604051908101604052809291908181526020018280546104c7906112b9565b80156105145780601f106104e957610100808354040283529160200191610514565b820191906000526020600020905b8154815290600101906020018083116104f757829003601f168201915b5050505050610a5d565b6004805490600061052e8361132f565b90915550506001600160a01b038416600090815260096020908152604082208054600181018255908352912001819055600280548291908190610570906112b9565b80601f016020809104026020016040519081016040528092919081815260200182805461059c906112b9565b80156105e95780601f106105be576101008083540402835291602001916105e9565b820191906000526020600020905b8154815290600101906020018083116105cc57829003601f168201915b505050505090509250925050915091565b600b5460009061010090046001600160a01b0316336001600160a01b0316146106355760405162461bcd60e51b815260040161025d906111bf565b504790565b600b5460009060609060ff16156106635760405162461bcd60e51b815260040161025d906111f6565b6103e8600454106106b25760405162461bcd60e51b815260206004820152601960248201527813585e08135a5b9d1a5b99c8131a5b5a5d081c995858da1959603a1b604482015260640161025d565b3468015af1d78b58c400001461070a5760405162461bcd60e51b815260206004820152601960248201527f42616c616e6365206d757374206265203235204d617469637300000000000000604482015260640161025d565b600061071461088c565b905061072b84826005546002805461049b906112b9565b61051e3334610b6e565b600b546000908190819061010090046001600160a01b0316336001600160a01b0316146107745760405162461bcd60e51b815260040161025d906111bf565b50506006546007546008549193909250565b600b5461010090046001600160a01b0316336001600160a01b0316146107be5760405162461bcd60e51b815260040161025d906111bf565b600b5460ff16156108115760405162461bcd60e51b815260206004820152601b60248201527f44726f707369746520697320616c72656164792053746f707065640000000000604482015260640161025d565b600b805460ff19166001179055565b6001600160a01b03811660009081526009602090815260409182902080548351818402810184019094528084526060939283018282801561088057602002820191906000526020600020905b81548152602001906001019080831161086c575b50505050509050919050565b600b5460009060ff16156108b25760405162461bcd60e51b815260040161025d906111f6565b60006108bc610b9f565b90506000600382601481106108d3576108d361138a565b602081049091015460ff601f9092166101000a9004169050801580156108fb57506032600654105b1561095e57600680549060006109108361132f565b9190505550610920600654610bfb565b6040516020016109309190611097565b60405160208183030381529060405260029080519060200190610954929190610f09565b50915061026b9050565b6001811115801561097157506064600754105b156109a657600780549060006109868361132f565b9190505550610996600754610bfb565b60405160200161093091906110c7565b600281111580156109bb575061035260085411155b15610a2d57600880549060006109d08361132f565b91905055506109e0600854610bfb565b6040516020016109f091906110f4565b60405160208183030381529060405260029080519060200190610a14929190610f09565b6002908054610a22906112b9565b610954929190610f8d565b60646007541015610a4b57506007805460019160006109868361132f565b5060068054600091826109108361132f565b6001600160a01b038416610abd5760405162461bcd60e51b815260206004820152602160248201527f455243313135353a206d696e7420746f20746865207a65726f206164647265736044820152607360f81b606482015260840161025d565b33610ade81600087610ace88610d01565b610ad788610d01565b5050505050565b6000848152602081815260408083206001600160a01b038916845290915281208054859290610b0e908490611246565b909155505060408051858152602081018590526001600160a01b0380881692600092918516917fc3d58168c5ae7397731d063d5bbf3d657854427343f4c083240f7aacaa2d0f62910160405180910390a4610ad781600087878787610d54565b6001600160a01b0382166000908152600a602052604081208054839290610b96908490611246565b90915550505050565b60008060144233604051602001610bd292919091825260601b6bffffffffffffffffffffffff1916602082015260340190565b6040516020818303038152906040528051906020012060001c610bf5919061134a565b92915050565b606081610c1f5750506040805180820190915260018152600360fc1b602082015290565b8160005b8115610c495780610c338161132f565b9150610c429050600a8361125e565b9150610c23565b60008167ffffffffffffffff811115610c6457610c646113a0565b6040519080825280601f01601f191660200182016040528015610c8e576020820181803683370190505b5090505b8415610cf957610ca3600183611272565b9150610cb0600a8661134a565b610cbb906030611246565b60f81b818381518110610cd057610cd061138a565b60200101906001600160f81b031916908160001a905350610cf2600a8661125e565b9450610c92565b949350505050565b60408051600180825281830190925260609160009190602080830190803683370190505090508281600081518110610d3b57610d3b61138a565b602090810291909101015292915050565b505050505050565b6001600160a01b0384163b15610d4c576040516315d1344960e31b81526001600160a01b0385169063ae89a24890610d989089908990889088908890600401611123565b602060405180830381600087803b158015610db257600080fd5b505af1925050508015610de2575060408051601f3d908101601f19168201909252610ddf91810190611041565b60015b610e8f57610dee6113b6565b806308c379a01415610e285750610e036113d1565b80610e0e5750610e2a565b8060405162461bcd60e51b815260040161025d91906111ac565b505b60405162461bcd60e51b815260206004820152603460248201527f455243313135353a207472616e7366657220746f206e6f6e20455243313135356044820152732932b1b2b4bb32b91034b6b83632b6b2b73a32b960611b606482015260840161025d565b6001600160e01b031981166315d1344960e31b14610f005760405162461bcd60e51b815260206004820152602860248201527f455243313135353a204552433131353552656365697665722072656a656374656044820152676420746f6b656e7360c01b606482015260840161025d565b50505050505050565b828054610f15906112b9565b90600052602060002090601f016020900481019282610f375760008555610f7d565b82601f10610f5057805160ff1916838001178555610f7d565b82800160010185558215610f7d579182015b82811115610f7d578251825591602001919060010190610f62565b50610f89929150611008565b5090565b828054610f99906112b9565b90600052602060002090601f016020900481019282610fbb5760008555610f7d565b82601f10610fcc5780548555610f7d565b82800160010185558215610f7d57600052602060002091601f016020900482015b82811115610f7d578254825591600101919060010190610fed565b5b80821115610f895760008155600101611009565b60006020828403121561102f57600080fd5b813561103a8161145b565b9392505050565b60006020828403121561105357600080fd5b81516001600160e01b03198116811461103a57600080fd5b60008151808452611083816020860160208601611289565b601f01601f19169290920160200192915050565b674469616d6f6e645f60c01b8152600082516110ba816008850160208701611289565b9190910160080192915050565b64476f6c645f60d81b8152600082516110e7816005850160208701611289565b9190910160050192915050565b6653696c7665725f60c81b815260008251611116816007850160208701611289565b9190910160070192915050565b6001600160a01b03868116825285166020820152604081018490526060810183905260a06080820181905260009061115d9083018461106b565b979650505050505050565b6020808252825182820181905260009190848201906040850190845b818110156111a057835183529284019291840191600101611184565b50909695505050505050565b60208152600061103a602083018461106b565b6020808252601c908201527f4f6e6c79204e46542d4553204f776e65722063616e2041636365737300000000604082015260600190565b6020808252601b908201527f44726f7073697465206973206e6f74204f70656e6564205965742e0000000000604082015260600190565b828152604060208201526000610cf9604083018461106b565b600082198211156112595761125961135e565b500190565b60008261126d5761126d611374565b500490565b6000828210156112845761128461135e565b500390565b60005b838110156112a457818101518382015260200161128c565b838111156112b3576000848401525b50505050565b600181811c908216806112cd57607f821691505b602082108114156112ee57634e487b7160e01b600052602260045260246000fd5b50919050565b601f8201601f1916810167ffffffffffffffff8111828210171561132857634e487b7160e01b600052604160045260246000fd5b6040525050565b60006000198214156113435761134361135e565b5060010190565b60008261135957611359611374565b500690565b634e487b7160e01b600052601160045260246000fd5b634e487b7160e01b600052601260045260246000fd5b634e487b7160e01b600052603260045260246000fd5b634e487b7160e01b600052604160045260246000fd5b600060033d111561026b5760046000803e5060005160e01c90565b600060443d10156113df5790565b6040516003193d81016004833e81513d67ffffffffffffffff816024840111818411171561140f57505050505090565b82850191508151818111156114275750505050505090565b843d87010160208285010111156114415750505050505090565b611450602082860101876112f4565b509095945050505050565b6001600160a01b038116811461147057600080fd5b5056fea2646970667358221220beaa33ab9fc5e1b7eab3f745dfa9316cd77b5213ba482cc3b30f7d47456edd5c64736f6c63430008070033",
					"opcodes": "PUSH1 0xA0 PUSH1 0x40 DUP2 SWAP1 MSTORE PUSH1 0x0 PUSH1 0x80 DUP2 SWAP1 MSTORE PUSH3 0x1B SWAP2 PUSH1 0x2 SWAP2 PUSH3 0x159 JUMP JUMPDEST POP PUSH1 0x40 DUP1 MLOAD PUSH2 0x280 DUP2 ADD DUP3 MSTORE PUSH1 0x0 DUP2 MSTORE PUSH1 0x1 PUSH1 0x20 DUP3 ADD DUP2 SWAP1 MSTORE SWAP2 DUP2 ADD SWAP2 SWAP1 SWAP2 MSTORE PUSH1 0x2 PUSH1 0x60 DUP3 ADD DUP2 SWAP1 MSTORE PUSH1 0x80 DUP3 ADD DUP2 SWAP1 MSTORE PUSH1 0xA0 DUP3 ADD DUP2 SWAP1 MSTORE PUSH1 0xC0 DUP3 ADD DUP2 SWAP1 MSTORE PUSH1 0xE0 DUP3 ADD DUP2 SWAP1 MSTORE PUSH2 0x100 DUP3 ADD DUP2 SWAP1 MSTORE PUSH2 0x120 DUP3 ADD DUP2 SWAP1 MSTORE PUSH2 0x140 DUP3 ADD DUP2 SWAP1 MSTORE PUSH2 0x160 DUP3 ADD DUP2 SWAP1 MSTORE PUSH2 0x180 DUP3 ADD DUP2 SWAP1 MSTORE PUSH2 0x1A0 DUP3 ADD DUP2 SWAP1 MSTORE PUSH2 0x1C0 DUP3 ADD DUP2 SWAP1 MSTORE PUSH2 0x1E0 DUP3 ADD DUP2 SWAP1 MSTORE PUSH2 0x200 DUP3 ADD DUP2 SWAP1 MSTORE PUSH2 0x220 DUP3 ADD DUP2 SWAP1 MSTORE PUSH2 0x240 DUP3 ADD DUP2 SWAP1 MSTORE PUSH2 0x260 DUP3 ADD MSTORE PUSH3 0xCE SWAP1 PUSH1 0x3 SWAP1 PUSH1 0x14 PUSH3 0x1E8 JUMP JUMPDEST POP PUSH1 0xB DUP1 SLOAD PUSH1 0xFF NOT AND PUSH1 0x1 OR SWAP1 SSTORE CALLVALUE DUP1 ISZERO PUSH3 0xE9 JUMPI PUSH1 0x0 DUP1 REVERT JUMPDEST POP PUSH1 0x40 MLOAD PUSH3 0x1877 CODESIZE SUB DUP1 PUSH3 0x1877 DUP4 CODECOPY DUP2 ADD PUSH1 0x40 DUP2 SWAP1 MSTORE PUSH3 0x10C SWAP2 PUSH3 0x28F JUMP JUMPDEST DUP1 MLOAD PUSH3 0x121 SWAP1 PUSH1 0xC SWAP1 PUSH1 0x20 DUP5 ADD SWAP1 PUSH3 0x159 JUMP JUMPDEST POP POP PUSH1 0xB DUP1 SLOAD PUSH2 0x100 PUSH1 0x1 PUSH1 0xA8 SHL SUB NOT AND CALLER PUSH2 0x100 MUL OR SWAP1 SSTORE PUSH1 0x0 PUSH1 0x4 DUP2 SWAP1 SSTORE PUSH1 0x1 PUSH1 0x5 SSTORE PUSH1 0x6 DUP2 SWAP1 SSTORE PUSH1 0x7 DUP2 SWAP1 SSTORE PUSH1 0x8 SSTORE PUSH3 0x3BE JUMP JUMPDEST DUP3 DUP1 SLOAD PUSH3 0x167 SWAP1 PUSH3 0x36B JUMP JUMPDEST SWAP1 PUSH1 0x0 MSTORE PUSH1 0x20 PUSH1 0x0 KECCAK256 SWAP1 PUSH1 0x1F ADD PUSH1 0x20 SWAP1 DIV DUP2 ADD SWAP3 DUP3 PUSH3 0x18B JUMPI PUSH1 0x0 DUP6 SSTORE PUSH3 0x1D6 JUMP JUMPDEST DUP3 PUSH1 0x1F LT PUSH3 0x1A6 JUMPI DUP1 MLOAD PUSH1 0xFF NOT AND DUP4 DUP1 ADD OR DUP6 SSTORE PUSH3 0x1D6 JUMP JUMPDEST DUP3 DUP1 ADD PUSH1 0x1 ADD DUP6 SSTORE DUP3 ISZERO PUSH3 0x1D6 JUMPI SWAP2 DUP3 ADD JUMPDEST DUP3 DUP2 GT ISZERO PUSH3 0x1D6 JUMPI DUP3 MLOAD DUP3 SSTORE SWAP2 PUSH1 0x20 ADD SWAP2 SWAP1 PUSH1 0x1 ADD SWAP1 PUSH3 0x1B9 JUMP JUMPDEST POP PUSH3 0x1E4 SWAP3 SWAP2 POP PUSH3 0x278 JUMP JUMPDEST POP SWAP1 JUMP JUMPDEST PUSH1 0x1 DUP4 ADD SWAP2 DUP4 SWAP1 DUP3 ISZERO PUSH3 0x1D6 JUMPI SWAP2 PUSH1 0x20 MUL DUP3 ADD PUSH1 0x0 JUMPDEST DUP4 DUP3 GT ISZERO PUSH3 0x23F JUMPI DUP4 MLOAD DUP4 DUP3 PUSH2 0x100 EXP DUP2 SLOAD DUP2 PUSH1 0xFF MUL NOT AND SWAP1 DUP4 PUSH1 0xFF AND MUL OR SWAP1 SSTORE POP SWAP3 PUSH1 0x20 ADD SWAP3 PUSH1 0x1 ADD PUSH1 0x20 DUP2 PUSH1 0x0 ADD DIV SWAP3 DUP4 ADD SWAP3 PUSH1 0x1 SUB MUL PUSH3 0x1FF JUMP JUMPDEST DUP1 ISZERO PUSH3 0x26E JUMPI DUP3 DUP2 PUSH2 0x100 EXP DUP2 SLOAD SWAP1 PUSH1 0xFF MUL NOT AND SWAP1 SSTORE PUSH1 0x1 ADD PUSH1 0x20 DUP2 PUSH1 0x0 ADD DIV SWAP3 DUP4 ADD SWAP3 PUSH1 0x1 SUB MUL PUSH3 0x23F JUMP JUMPDEST POP POP PUSH3 0x1E4 SWAP3 SWAP2 POP JUMPDEST JUMPDEST DUP1 DUP3 GT ISZERO PUSH3 0x1E4 JUMPI PUSH1 0x0 DUP2 SSTORE PUSH1 0x1 ADD PUSH3 0x279 JUMP JUMPDEST PUSH1 0x0 PUSH1 0x20 DUP1 DUP4 DUP6 SUB SLT ISZERO PUSH3 0x2A3 JUMPI PUSH1 0x0 DUP1 REVERT JUMPDEST DUP3 MLOAD PUSH1 0x1 PUSH1 0x1 PUSH1 0x40 SHL SUB DUP1 DUP3 GT ISZERO PUSH3 0x2BB JUMPI PUSH1 0x0 DUP1 REVERT JUMPDEST DUP2 DUP6 ADD SWAP2 POP DUP6 PUSH1 0x1F DUP4 ADD SLT PUSH3 0x2D0 JUMPI PUSH1 0x0 DUP1 REVERT JUMPDEST DUP2 MLOAD DUP2 DUP2 GT ISZERO PUSH3 0x2E5 JUMPI PUSH3 0x2E5 PUSH3 0x3A8 JUMP JUMPDEST PUSH1 0x40 MLOAD PUSH1 0x1F DUP3 ADD PUSH1 0x1F NOT SWAP1 DUP2 AND PUSH1 0x3F ADD AND DUP2 ADD SWAP1 DUP4 DUP3 GT DUP2 DUP4 LT OR ISZERO PUSH3 0x310 JUMPI PUSH3 0x310 PUSH3 0x3A8 JUMP JUMPDEST DUP2 PUSH1 0x40 MSTORE DUP3 DUP2 MSTORE DUP9 DUP7 DUP5 DUP8 ADD ADD GT ISZERO PUSH3 0x329 JUMPI PUSH1 0x0 DUP1 REVERT JUMPDEST PUSH1 0x0 SWAP4 POP JUMPDEST DUP3 DUP5 LT ISZERO PUSH3 0x34D JUMPI DUP5 DUP5 ADD DUP7 ADD MLOAD DUP2 DUP6 ADD DUP8 ADD MSTORE SWAP3 DUP6 ADD SWAP3 PUSH3 0x32E JUMP JUMPDEST DUP3 DUP5 GT ISZERO PUSH3 0x35F JUMPI PUSH1 0x0 DUP7 DUP5 DUP4 ADD ADD MSTORE JUMPDEST SWAP9 SWAP8 POP POP POP POP POP POP POP POP JUMP JUMPDEST PUSH1 0x1 DUP2 DUP2 SHR SWAP1 DUP3 AND DUP1 PUSH3 0x380 JUMPI PUSH1 0x7F DUP3 AND SWAP2 POP JUMPDEST PUSH1 0x20 DUP3 LT DUP2 EQ ISZERO PUSH3 0x3A2 JUMPI PUSH4 0x4E487B71 PUSH1 0xE0 SHL PUSH1 0x0 MSTORE PUSH1 0x22 PUSH1 0x4 MSTORE PUSH1 0x24 PUSH1 0x0 REVERT JUMPDEST POP SWAP2 SWAP1 POP JUMP JUMPDEST PUSH4 0x4E487B71 PUSH1 0xE0 SHL PUSH1 0x0 MSTORE PUSH1 0x41 PUSH1 0x4 MSTORE PUSH1 0x24 PUSH1 0x0 REVERT JUMPDEST PUSH2 0x14A9 DUP1 PUSH3 0x3CE PUSH1 0x0 CODECOPY PUSH1 0x0 RETURN INVALID PUSH1 0x80 PUSH1 0x40 MSTORE PUSH1 0x4 CALLDATASIZE LT PUSH2 0x9C JUMPI PUSH1 0x0 CALLDATALOAD PUSH1 0xE0 SHR DUP1 PUSH4 0x3B668059 GT PUSH2 0x64 JUMPI DUP1 PUSH4 0x3B668059 EQ PUSH2 0x14B JUMPI DUP1 PUSH4 0x3D65DF70 EQ PUSH2 0x160 JUMPI DUP1 PUSH4 0x60DAA851 EQ PUSH2 0x173 JUMPI DUP1 PUSH4 0xAA90C726 EQ PUSH2 0x1A3 JUMPI DUP1 PUSH4 0xB4A99A4E EQ PUSH2 0x1B8 JUMPI DUP1 PUSH4 0xFD6C3B1B EQ PUSH2 0x1F5 JUMPI PUSH1 0x0 DUP1 REVERT JUMPDEST DUP1 PUSH4 0x390C11C EQ PUSH2 0xA1 JUMPI DUP1 PUSH4 0xA67D2C7 EQ PUSH2 0xC9 JUMPI DUP1 PUSH4 0x1309A563 EQ PUSH2 0xDE JUMPI DUP1 PUSH4 0x15460259 EQ PUSH2 0x108 JUMPI DUP1 PUSH4 0x32B61B4C EQ PUSH2 0x11D JUMPI JUMPDEST PUSH1 0x0 DUP1 REVERT JUMPDEST CALLVALUE DUP1 ISZERO PUSH2 0xAD JUMPI PUSH1 0x0 DUP1 REVERT JUMPDEST POP PUSH2 0xB6 PUSH2 0x222 JUMP JUMPDEST PUSH1 0x40 MLOAD SWAP1 DUP2 MSTORE PUSH1 0x20 ADD JUMPDEST PUSH1 0x40 MLOAD DUP1 SWAP2 SUB SWAP1 RETURN JUMPDEST PUSH2 0xDC PUSH2 0xD7 CALLDATASIZE PUSH1 0x4 PUSH2 0x101D JUMP JUMPDEST PUSH2 0x26E JUMP JUMPDEST STOP JUMPDEST CALLVALUE DUP1 ISZERO PUSH2 0xEA JUMPI PUSH1 0x0 DUP1 REVERT JUMPDEST POP PUSH1 0xB SLOAD PUSH2 0xF8 SWAP1 PUSH1 0xFF AND DUP2 JUMP JUMPDEST PUSH1 0x40 MLOAD SWAP1 ISZERO ISZERO DUP2 MSTORE PUSH1 0x20 ADD PUSH2 0xC0 JUMP JUMPDEST CALLVALUE DUP1 ISZERO PUSH2 0x114 JUMPI PUSH1 0x0 DUP1 REVERT JUMPDEST POP PUSH2 0xDC PUSH2 0x32F JUMP JUMPDEST CALLVALUE DUP1 ISZERO PUSH2 0x129 JUMPI PUSH1 0x0 DUP1 REVERT JUMPDEST POP PUSH2 0x13D PUSH2 0x138 CALLDATASIZE PUSH1 0x4 PUSH2 0x101D JUMP JUMPDEST PUSH2 0x3CA JUMP JUMPDEST PUSH1 0x40 MLOAD PUSH2 0xC0 SWAP3 SWAP2 SWAP1 PUSH2 0x122D JUMP JUMPDEST CALLVALUE DUP1 ISZERO PUSH2 0x157 JUMPI PUSH1 0x0 DUP1 REVERT JUMPDEST POP PUSH2 0xB6 PUSH2 0x5FA JUMP JUMPDEST PUSH2 0x13D PUSH2 0x16E CALLDATASIZE PUSH1 0x4 PUSH2 0x101D JUMP JUMPDEST PUSH2 0x63A JUMP JUMPDEST CALLVALUE DUP1 ISZERO PUSH2 0x17F JUMPI PUSH1 0x0 DUP1 REVERT JUMPDEST POP PUSH2 0x188 PUSH2 0x735 JUMP JUMPDEST PUSH1 0x40 DUP1 MLOAD SWAP4 DUP5 MSTORE PUSH1 0x20 DUP5 ADD SWAP3 SWAP1 SWAP3 MSTORE SWAP1 DUP3 ADD MSTORE PUSH1 0x60 ADD PUSH2 0xC0 JUMP JUMPDEST CALLVALUE DUP1 ISZERO PUSH2 0x1AF JUMPI PUSH1 0x0 DUP1 REVERT JUMPDEST POP PUSH2 0xDC PUSH2 0x786 JUMP JUMPDEST CALLVALUE DUP1 ISZERO PUSH2 0x1C4 JUMPI PUSH1 0x0 DUP1 REVERT JUMPDEST POP PUSH1 0xB SLOAD PUSH2 0x1DD SWAP1 PUSH2 0x100 SWAP1 DIV PUSH1 0x1 PUSH1 0x1 PUSH1 0xA0 SHL SUB AND DUP2 JUMP JUMPDEST PUSH1 0x40 MLOAD PUSH1 0x1 PUSH1 0x1 PUSH1 0xA0 SHL SUB SWAP1 SWAP2 AND DUP2 MSTORE PUSH1 0x20 ADD PUSH2 0xC0 JUMP JUMPDEST CALLVALUE DUP1 ISZERO PUSH2 0x201 JUMPI PUSH1 0x0 DUP1 REVERT JUMPDEST POP PUSH2 0x215 PUSH2 0x210 CALLDATASIZE PUSH1 0x4 PUSH2 0x101D JUMP JUMPDEST PUSH2 0x820 JUMP JUMPDEST PUSH1 0x40 MLOAD PUSH2 0xC0 SWAP2 SWAP1 PUSH2 0x1168 JUMP JUMPDEST PUSH1 0xB SLOAD PUSH1 0x0 SWAP1 PUSH2 0x100 SWAP1 DIV PUSH1 0x1 PUSH1 0x1 PUSH1 0xA0 SHL SUB AND CALLER PUSH1 0x1 PUSH1 0x1 PUSH1 0xA0 SHL SUB AND EQ PUSH2 0x266 JUMPI PUSH1 0x40 MLOAD PUSH3 0x461BCD PUSH1 0xE5 SHL DUP2 MSTORE PUSH1 0x4 ADD PUSH2 0x25D SWAP1 PUSH2 0x11BF JUMP JUMPDEST PUSH1 0x40 MLOAD DUP1 SWAP2 SUB SWAP1 REVERT JUMPDEST POP PUSH1 0x4 SLOAD JUMPDEST SWAP1 JUMP JUMPDEST PUSH1 0xB SLOAD PUSH2 0x100 SWAP1 DIV PUSH1 0x1 PUSH1 0x1 PUSH1 0xA0 SHL SUB AND CALLER PUSH1 0x1 PUSH1 0x1 PUSH1 0xA0 SHL SUB AND EQ PUSH2 0x2A6 JUMPI PUSH1 0x40 MLOAD PUSH3 0x461BCD PUSH1 0xE5 SHL DUP2 MSTORE PUSH1 0x4 ADD PUSH2 0x25D SWAP1 PUSH2 0x11BF JUMP JUMPDEST SELFBALANCE DUP1 PUSH2 0x2F4 JUMPI PUSH1 0x40 MLOAD PUSH3 0x461BCD PUSH1 0xE5 SHL DUP2 MSTORE PUSH1 0x20 PUSH1 0x4 DUP3 ADD MSTORE PUSH1 0x1D PUSH1 0x24 DUP3 ADD MSTORE PUSH32 0x4572726F7221204E6F2042616C616E636520746F207769746864726177000000 PUSH1 0x44 DUP3 ADD MSTORE PUSH1 0x64 ADD PUSH2 0x25D JUMP JUMPDEST PUSH1 0x40 MLOAD PUSH1 0x1 PUSH1 0x1 PUSH1 0xA0 SHL SUB DUP4 AND SWAP1 DUP3 ISZERO PUSH2 0x8FC MUL SWAP1 DUP4 SWAP1 PUSH1 0x0 DUP2 DUP2 DUP2 DUP6 DUP9 DUP9 CALL SWAP4 POP POP POP POP ISZERO DUP1 ISZERO PUSH2 0x32A JUMPI RETURNDATASIZE PUSH1 0x0 DUP1 RETURNDATACOPY RETURNDATASIZE PUSH1 0x0 REVERT JUMPDEST POP POP POP JUMP JUMPDEST PUSH1 0xB SLOAD PUSH2 0x100 SWAP1 DIV PUSH1 0x1 PUSH1 0x1 PUSH1 0xA0 SHL SUB AND CALLER PUSH1 0x1 PUSH1 0x1 PUSH1 0xA0 SHL SUB AND EQ PUSH2 0x367 JUMPI PUSH1 0x40 MLOAD PUSH3 0x461BCD PUSH1 0xE5 SHL DUP2 MSTORE PUSH1 0x4 ADD PUSH2 0x25D SWAP1 PUSH2 0x11BF JUMP JUMPDEST PUSH1 0xB SLOAD PUSH1 0xFF AND ISZERO ISZERO PUSH1 0x1 EQ PUSH2 0x3BE JUMPI PUSH1 0x40 MLOAD PUSH3 0x461BCD PUSH1 0xE5 SHL DUP2 MSTORE PUSH1 0x20 PUSH1 0x4 DUP3 ADD MSTORE PUSH1 0x1B PUSH1 0x24 DUP3 ADD MSTORE PUSH32 0x44726F707369746520697320616C72656164792052756E6E696E670000000000 PUSH1 0x44 DUP3 ADD MSTORE PUSH1 0x64 ADD PUSH2 0x25D JUMP JUMPDEST PUSH1 0xB DUP1 SLOAD PUSH1 0xFF NOT AND SWAP1 SSTORE JUMP JUMPDEST PUSH1 0xB SLOAD PUSH1 0x0 SWAP1 PUSH1 0x60 SWAP1 PUSH2 0x100 SWAP1 DIV PUSH1 0x1 PUSH1 0x1 PUSH1 0xA0 SHL SUB AND CALLER PUSH1 0x1 PUSH1 0x1 PUSH1 0xA0 SHL SUB AND EQ PUSH2 0x408 JUMPI PUSH1 0x40 MLOAD PUSH3 0x461BCD PUSH1 0xE5 SHL DUP2 MSTORE PUSH1 0x4 ADD PUSH2 0x25D SWAP1 PUSH2 0x11BF JUMP JUMPDEST PUSH1 0xB SLOAD PUSH1 0xFF AND ISZERO PUSH2 0x42B JUMPI PUSH1 0x40 MLOAD PUSH3 0x461BCD PUSH1 0xE5 SHL DUP2 MSTORE PUSH1 0x4 ADD PUSH2 0x25D SWAP1 PUSH2 0x11F6 JUMP JUMPDEST PUSH2 0x3E8 PUSH1 0x4 SLOAD LT PUSH2 0x47A JUMPI PUSH1 0x40 MLOAD PUSH3 0x461BCD PUSH1 0xE5 SHL DUP2 MSTORE PUSH1 0x20 PUSH1 0x4 DUP3 ADD MSTORE PUSH1 0x19 PUSH1 0x24 DUP3 ADD MSTORE PUSH25 0x13585E08135A5B9D1A5B99C8131A5B5A5D081C995858DA1959 PUSH1 0x3A SHL PUSH1 0x44 DUP3 ADD MSTORE PUSH1 0x64 ADD PUSH2 0x25D JUMP JUMPDEST PUSH1 0x0 PUSH2 0x484 PUSH2 0x88C JUMP JUMPDEST SWAP1 POP PUSH2 0x51E DUP5 DUP3 PUSH1 0x5 SLOAD PUSH1 0x2 DUP1 SLOAD PUSH2 0x49B SWAP1 PUSH2 0x12B9 JUMP JUMPDEST DUP1 PUSH1 0x1F ADD PUSH1 0x20 DUP1 SWAP2 DIV MUL PUSH1 0x20 ADD PUSH1 0x40 MLOAD SWAP1 DUP2 ADD PUSH1 0x40 MSTORE DUP1 SWAP3 SWAP2 SWAP1 DUP2 DUP2 MSTORE PUSH1 0x20 ADD DUP3 DUP1 SLOAD PUSH2 0x4C7 SWAP1 PUSH2 0x12B9 JUMP JUMPDEST DUP1 ISZERO PUSH2 0x514 JUMPI DUP1 PUSH1 0x1F LT PUSH2 0x4E9 JUMPI PUSH2 0x100 DUP1 DUP4 SLOAD DIV MUL DUP4 MSTORE SWAP2 PUSH1 0x20 ADD SWAP2 PUSH2 0x514 JUMP JUMPDEST DUP3 ADD SWAP2 SWAP1 PUSH1 0x0 MSTORE PUSH1 0x20 PUSH1 0x0 KECCAK256 SWAP1 JUMPDEST DUP2 SLOAD DUP2 MSTORE SWAP1 PUSH1 0x1 ADD SWAP1 PUSH1 0x20 ADD DUP1 DUP4 GT PUSH2 0x4F7 JUMPI DUP3 SWAP1 SUB PUSH1 0x1F AND DUP3 ADD SWAP2 JUMPDEST POP POP POP POP POP PUSH2 0xA5D JUMP JUMPDEST PUSH1 0x4 DUP1 SLOAD SWAP1 PUSH1 0x0 PUSH2 0x52E DUP4 PUSH2 0x132F JUMP JUMPDEST SWAP1 SWAP2 SSTORE POP POP PUSH1 0x1 PUSH1 0x1 PUSH1 0xA0 SHL SUB DUP5 AND PUSH1 0x0 SWAP1 DUP2 MSTORE PUSH1 0x9 PUSH1 0x20 SWAP1 DUP2 MSTORE PUSH1 0x40 DUP3 KECCAK256 DUP1 SLOAD PUSH1 0x1 DUP2 ADD DUP3 SSTORE SWAP1 DUP4 MSTORE SWAP2 KECCAK256 ADD DUP2 SWAP1 SSTORE PUSH1 0x2 DUP1 SLOAD DUP3 SWAP2 SWAP1 DUP2 SWAP1 PUSH2 0x570 SWAP1 PUSH2 0x12B9 JUMP JUMPDEST DUP1 PUSH1 0x1F ADD PUSH1 0x20 DUP1 SWAP2 DIV MUL PUSH1 0x20 ADD PUSH1 0x40 MLOAD SWAP1 DUP2 ADD PUSH1 0x40 MSTORE DUP1 SWAP3 SWAP2 SWAP1 DUP2 DUP2 MSTORE PUSH1 0x20 ADD DUP3 DUP1 SLOAD PUSH2 0x59C SWAP1 PUSH2 0x12B9 JUMP JUMPDEST DUP1 ISZERO PUSH2 0x5E9 JUMPI DUP1 PUSH1 0x1F LT PUSH2 0x5BE JUMPI PUSH2 0x100 DUP1 DUP4 SLOAD DIV MUL DUP4 MSTORE SWAP2 PUSH1 0x20 ADD SWAP2 PUSH2 0x5E9 JUMP JUMPDEST DUP3 ADD SWAP2 SWAP1 PUSH1 0x0 MSTORE PUSH1 0x20 PUSH1 0x0 KECCAK256 SWAP1 JUMPDEST DUP2 SLOAD DUP2 MSTORE SWAP1 PUSH1 0x1 ADD SWAP1 PUSH1 0x20 ADD DUP1 DUP4 GT PUSH2 0x5CC JUMPI DUP3 SWAP1 SUB PUSH1 0x1F AND DUP3 ADD SWAP2 JUMPDEST POP POP POP POP POP SWAP1 POP SWAP3 POP SWAP3 POP POP SWAP2 POP SWAP2 JUMP JUMPDEST PUSH1 0xB SLOAD PUSH1 0x0 SWAP1 PUSH2 0x100 SWAP1 DIV PUSH1 0x1 PUSH1 0x1 PUSH1 0xA0 SHL SUB AND CALLER PUSH1 0x1 PUSH1 0x1 PUSH1 0xA0 SHL SUB AND EQ PUSH2 0x635 JUMPI PUSH1 0x40 MLOAD PUSH3 0x461BCD PUSH1 0xE5 SHL DUP2 MSTORE PUSH1 0x4 ADD PUSH2 0x25D SWAP1 PUSH2 0x11BF JUMP JUMPDEST POP SELFBALANCE SWAP1 JUMP JUMPDEST PUSH1 0xB SLOAD PUSH1 0x0 SWAP1 PUSH1 0x60 SWAP1 PUSH1 0xFF AND ISZERO PUSH2 0x663 JUMPI PUSH1 0x40 MLOAD PUSH3 0x461BCD PUSH1 0xE5 SHL DUP2 MSTORE PUSH1 0x4 ADD PUSH2 0x25D SWAP1 PUSH2 0x11F6 JUMP JUMPDEST PUSH2 0x3E8 PUSH1 0x4 SLOAD LT PUSH2 0x6B2 JUMPI PUSH1 0x40 MLOAD PUSH3 0x461BCD PUSH1 0xE5 SHL DUP2 MSTORE PUSH1 0x20 PUSH1 0x4 DUP3 ADD MSTORE PUSH1 0x19 PUSH1 0x24 DUP3 ADD MSTORE PUSH25 0x13585E08135A5B9D1A5B99C8131A5B5A5D081C995858DA1959 PUSH1 0x3A SHL PUSH1 0x44 DUP3 ADD MSTORE PUSH1 0x64 ADD PUSH2 0x25D JUMP JUMPDEST CALLVALUE PUSH9 0x15AF1D78B58C40000 EQ PUSH2 0x70A JUMPI PUSH1 0x40 MLOAD PUSH3 0x461BCD PUSH1 0xE5 SHL DUP2 MSTORE PUSH1 0x20 PUSH1 0x4 DUP3 ADD MSTORE PUSH1 0x19 PUSH1 0x24 DUP3 ADD MSTORE PUSH32 0x42616C616E6365206D757374206265203235204D617469637300000000000000 PUSH1 0x44 DUP3 ADD MSTORE PUSH1 0x64 ADD PUSH2 0x25D JUMP JUMPDEST PUSH1 0x0 PUSH2 0x714 PUSH2 0x88C JUMP JUMPDEST SWAP1 POP PUSH2 0x72B DUP5 DUP3 PUSH1 0x5 SLOAD PUSH1 0x2 DUP1 SLOAD PUSH2 0x49B SWAP1 PUSH2 0x12B9 JUMP JUMPDEST PUSH2 0x51E CALLER CALLVALUE PUSH2 0xB6E JUMP JUMPDEST PUSH1 0xB SLOAD PUSH1 0x0 SWAP1 DUP2 SWAP1 DUP2 SWAP1 PUSH2 0x100 SWAP1 DIV PUSH1 0x1 PUSH1 0x1 PUSH1 0xA0 SHL SUB AND CALLER PUSH1 0x1 PUSH1 0x1 PUSH1 0xA0 SHL SUB AND EQ PUSH2 0x774 JUMPI PUSH1 0x40 MLOAD PUSH3 0x461BCD PUSH1 0xE5 SHL DUP2 MSTORE PUSH1 0x4 ADD PUSH2 0x25D SWAP1 PUSH2 0x11BF JUMP JUMPDEST POP POP PUSH1 0x6 SLOAD PUSH1 0x7 SLOAD PUSH1 0x8 SLOAD SWAP2 SWAP4 SWAP1 SWAP3 POP JUMP JUMPDEST PUSH1 0xB SLOAD PUSH2 0x100 SWAP1 DIV PUSH1 0x1 PUSH1 0x1 PUSH1 0xA0 SHL SUB AND CALLER PUSH1 0x1 PUSH1 0x1 PUSH1 0xA0 SHL SUB AND EQ PUSH2 0x7BE JUMPI PUSH1 0x40 MLOAD PUSH3 0x461BCD PUSH1 0xE5 SHL DUP2 MSTORE PUSH1 0x4 ADD PUSH2 0x25D SWAP1 PUSH2 0x11BF JUMP JUMPDEST PUSH1 0xB SLOAD PUSH1 0xFF AND ISZERO PUSH2 0x811 JUMPI PUSH1 0x40 MLOAD PUSH3 0x461BCD PUSH1 0xE5 SHL DUP2 MSTORE PUSH1 0x20 PUSH1 0x4 DUP3 ADD MSTORE PUSH1 0x1B PUSH1 0x24 DUP3 ADD MSTORE PUSH32 0x44726F707369746520697320616C72656164792053746F707065640000000000 PUSH1 0x44 DUP3 ADD MSTORE PUSH1 0x64 ADD PUSH2 0x25D JUMP JUMPDEST PUSH1 0xB DUP1 SLOAD PUSH1 0xFF NOT AND PUSH1 0x1 OR SWAP1 SSTORE JUMP JUMPDEST PUSH1 0x1 PUSH1 0x1 PUSH1 0xA0 SHL SUB DUP2 AND PUSH1 0x0 SWAP1 DUP2 MSTORE PUSH1 0x9 PUSH1 0x20 SWAP1 DUP2 MSTORE PUSH1 0x40 SWAP2 DUP3 SWAP1 KECCAK256 DUP1 SLOAD DUP4 MLOAD DUP2 DUP5 MUL DUP2 ADD DUP5 ADD SWAP1 SWAP5 MSTORE DUP1 DUP5 MSTORE PUSH1 0x60 SWAP4 SWAP3 DUP4 ADD DUP3 DUP3 DUP1 ISZERO PUSH2 0x880 JUMPI PUSH1 0x20 MUL DUP3 ADD SWAP2 SWAP1 PUSH1 0x0 MSTORE PUSH1 0x20 PUSH1 0x0 KECCAK256 SWAP1 JUMPDEST DUP2 SLOAD DUP2 MSTORE PUSH1 0x20 ADD SWAP1 PUSH1 0x1 ADD SWAP1 DUP1 DUP4 GT PUSH2 0x86C JUMPI JUMPDEST POP POP POP POP POP SWAP1 POP SWAP2 SWAP1 POP JUMP JUMPDEST PUSH1 0xB SLOAD PUSH1 0x0 SWAP1 PUSH1 0xFF AND ISZERO PUSH2 0x8B2 JUMPI PUSH1 0x40 MLOAD PUSH3 0x461BCD PUSH1 0xE5 SHL DUP2 MSTORE PUSH1 0x4 ADD PUSH2 0x25D SWAP1 PUSH2 0x11F6 JUMP JUMPDEST PUSH1 0x0 PUSH2 0x8BC PUSH2 0xB9F JUMP JUMPDEST SWAP1 POP PUSH1 0x0 PUSH1 0x3 DUP3 PUSH1 0x14 DUP2 LT PUSH2 0x8D3 JUMPI PUSH2 0x8D3 PUSH2 0x138A JUMP JUMPDEST PUSH1 0x20 DUP2 DIV SWAP1 SWAP2 ADD SLOAD PUSH1 0xFF PUSH1 0x1F SWAP1 SWAP3 AND PUSH2 0x100 EXP SWAP1 DIV AND SWAP1 POP DUP1 ISZERO DUP1 ISZERO PUSH2 0x8FB JUMPI POP PUSH1 0x32 PUSH1 0x6 SLOAD LT JUMPDEST ISZERO PUSH2 0x95E JUMPI PUSH1 0x6 DUP1 SLOAD SWAP1 PUSH1 0x0 PUSH2 0x910 DUP4 PUSH2 0x132F JUMP JUMPDEST SWAP2 SWAP1 POP SSTORE POP PUSH2 0x920 PUSH1 0x6 SLOAD PUSH2 0xBFB JUMP JUMPDEST PUSH1 0x40 MLOAD PUSH1 0x20 ADD PUSH2 0x930 SWAP2 SWAP1 PUSH2 0x1097 JUMP JUMPDEST PUSH1 0x40 MLOAD PUSH1 0x20 DUP2 DUP4 SUB SUB DUP2 MSTORE SWAP1 PUSH1 0x40 MSTORE PUSH1 0x2 SWAP1 DUP1 MLOAD SWAP1 PUSH1 0x20 ADD SWAP1 PUSH2 0x954 SWAP3 SWAP2 SWAP1 PUSH2 0xF09 JUMP JUMPDEST POP SWAP2 POP PUSH2 0x26B SWAP1 POP JUMP JUMPDEST PUSH1 0x1 DUP2 GT ISZERO DUP1 ISZERO PUSH2 0x971 JUMPI POP PUSH1 0x64 PUSH1 0x7 SLOAD LT JUMPDEST ISZERO PUSH2 0x9A6 JUMPI PUSH1 0x7 DUP1 SLOAD SWAP1 PUSH1 0x0 PUSH2 0x986 DUP4 PUSH2 0x132F JUMP JUMPDEST SWAP2 SWAP1 POP SSTORE POP PUSH2 0x996 PUSH1 0x7 SLOAD PUSH2 0xBFB JUMP JUMPDEST PUSH1 0x40 MLOAD PUSH1 0x20 ADD PUSH2 0x930 SWAP2 SWAP1 PUSH2 0x10C7 JUMP JUMPDEST PUSH1 0x2 DUP2 GT ISZERO DUP1 ISZERO PUSH2 0x9BB JUMPI POP PUSH2 0x352 PUSH1 0x8 SLOAD GT ISZERO JUMPDEST ISZERO PUSH2 0xA2D JUMPI PUSH1 0x8 DUP1 SLOAD SWAP1 PUSH1 0x0 PUSH2 0x9D0 DUP4 PUSH2 0x132F JUMP JUMPDEST SWAP2 SWAP1 POP SSTORE POP PUSH2 0x9E0 PUSH1 0x8 SLOAD PUSH2 0xBFB JUMP JUMPDEST PUSH1 0x40 MLOAD PUSH1 0x20 ADD PUSH2 0x9F0 SWAP2 SWAP1 PUSH2 0x10F4 JUMP JUMPDEST PUSH1 0x40 MLOAD PUSH1 0x20 DUP2 DUP4 SUB SUB DUP2 MSTORE SWAP1 PUSH1 0x40 MSTORE PUSH1 0x2 SWAP1 DUP1 MLOAD SWAP1 PUSH1 0x20 ADD SWAP1 PUSH2 0xA14 SWAP3 SWAP2 SWAP1 PUSH2 0xF09 JUMP JUMPDEST PUSH1 0x2 SWAP1 DUP1 SLOAD PUSH2 0xA22 SWAP1 PUSH2 0x12B9 JUMP JUMPDEST PUSH2 0x954 SWAP3 SWAP2 SWAP1 PUSH2 0xF8D JUMP JUMPDEST PUSH1 0x64 PUSH1 0x7 SLOAD LT ISZERO PUSH2 0xA4B JUMPI POP PUSH1 0x7 DUP1 SLOAD PUSH1 0x1 SWAP2 PUSH1 0x0 PUSH2 0x986 DUP4 PUSH2 0x132F JUMP JUMPDEST POP PUSH1 0x6 DUP1 SLOAD PUSH1 0x0 SWAP2 DUP3 PUSH2 0x910 DUP4 PUSH2 0x132F JUMP JUMPDEST PUSH1 0x1 PUSH1 0x1 PUSH1 0xA0 SHL SUB DUP5 AND PUSH2 0xABD JUMPI PUSH1 0x40 MLOAD PUSH3 0x461BCD PUSH1 0xE5 SHL DUP2 MSTORE PUSH1 0x20 PUSH1 0x4 DUP3 ADD MSTORE PUSH1 0x21 PUSH1 0x24 DUP3 ADD MSTORE PUSH32 0x455243313135353A206D696E7420746F20746865207A65726F20616464726573 PUSH1 0x44 DUP3 ADD MSTORE PUSH1 0x73 PUSH1 0xF8 SHL PUSH1 0x64 DUP3 ADD MSTORE PUSH1 0x84 ADD PUSH2 0x25D JUMP JUMPDEST CALLER PUSH2 0xADE DUP2 PUSH1 0x0 DUP8 PUSH2 0xACE DUP9 PUSH2 0xD01 JUMP JUMPDEST PUSH2 0xAD7 DUP9 PUSH2 0xD01 JUMP JUMPDEST POP POP POP POP POP JUMP JUMPDEST PUSH1 0x0 DUP5 DUP2 MSTORE PUSH1 0x20 DUP2 DUP2 MSTORE PUSH1 0x40 DUP1 DUP4 KECCAK256 PUSH1 0x1 PUSH1 0x1 PUSH1 0xA0 SHL SUB DUP10 AND DUP5 MSTORE SWAP1 SWAP2 MSTORE DUP2 KECCAK256 DUP1 SLOAD DUP6 SWAP3 SWAP1 PUSH2 0xB0E SWAP1 DUP5 SWAP1 PUSH2 0x1246 JUMP JUMPDEST SWAP1 SWAP2 SSTORE POP POP PUSH1 0x40 DUP1 MLOAD DUP6 DUP2 MSTORE PUSH1 0x20 DUP2 ADD DUP6 SWAP1 MSTORE PUSH1 0x1 PUSH1 0x1 PUSH1 0xA0 SHL SUB DUP1 DUP9 AND SWAP3 PUSH1 0x0 SWAP3 SWAP2 DUP6 AND SWAP2 PUSH32 0xC3D58168C5AE7397731D063D5BBF3D657854427343F4C083240F7AACAA2D0F62 SWAP2 ADD PUSH1 0x40 MLOAD DUP1 SWAP2 SUB SWAP1 LOG4 PUSH2 0xAD7 DUP2 PUSH1 0x0 DUP8 DUP8 DUP8 DUP8 PUSH2 0xD54 JUMP JUMPDEST PUSH1 0x1 PUSH1 0x1 PUSH1 0xA0 SHL SUB DUP3 AND PUSH1 0x0 SWAP1 DUP2 MSTORE PUSH1 0xA PUSH1 0x20 MSTORE PUSH1 0x40 DUP2 KECCAK256 DUP1 SLOAD DUP4 SWAP3 SWAP1 PUSH2 0xB96 SWAP1 DUP5 SWAP1 PUSH2 0x1246 JUMP JUMPDEST SWAP1 SWAP2 SSTORE POP POP POP POP JUMP JUMPDEST PUSH1 0x0 DUP1 PUSH1 0x14 TIMESTAMP CALLER PUSH1 0x40 MLOAD PUSH1 0x20 ADD PUSH2 0xBD2 SWAP3 SWAP2 SWAP1 SWAP2 DUP3 MSTORE PUSH1 0x60 SHL PUSH12 0xFFFFFFFFFFFFFFFFFFFFFFFF NOT AND PUSH1 0x20 DUP3 ADD MSTORE PUSH1 0x34 ADD SWAP1 JUMP JUMPDEST PUSH1 0x40 MLOAD PUSH1 0x20 DUP2 DUP4 SUB SUB DUP2 MSTORE SWAP1 PUSH1 0x40 MSTORE DUP1 MLOAD SWAP1 PUSH1 0x20 ADD KECCAK256 PUSH1 0x0 SHR PUSH2 0xBF5 SWAP2 SWAP1 PUSH2 0x134A JUMP JUMPDEST SWAP3 SWAP2 POP POP JUMP JUMPDEST PUSH1 0x60 DUP2 PUSH2 0xC1F JUMPI POP POP PUSH1 0x40 DUP1 MLOAD DUP1 DUP3 ADD SWAP1 SWAP2 MSTORE PUSH1 0x1 DUP2 MSTORE PUSH1 0x3 PUSH1 0xFC SHL PUSH1 0x20 DUP3 ADD MSTORE SWAP1 JUMP JUMPDEST DUP2 PUSH1 0x0 JUMPDEST DUP2 ISZERO PUSH2 0xC49 JUMPI DUP1 PUSH2 0xC33 DUP2 PUSH2 0x132F JUMP JUMPDEST SWAP2 POP PUSH2 0xC42 SWAP1 POP PUSH1 0xA DUP4 PUSH2 0x125E JUMP JUMPDEST SWAP2 POP PUSH2 0xC23 JUMP JUMPDEST PUSH1 0x0 DUP2 PUSH8 0xFFFFFFFFFFFFFFFF DUP2 GT ISZERO PUSH2 0xC64 JUMPI PUSH2 0xC64 PUSH2 0x13A0 JUMP JUMPDEST PUSH1 0x40 MLOAD SWAP1 DUP1 DUP3 MSTORE DUP1 PUSH1 0x1F ADD PUSH1 0x1F NOT AND PUSH1 0x20 ADD DUP3 ADD PUSH1 0x40 MSTORE DUP1 ISZERO PUSH2 0xC8E JUMPI PUSH1 0x20 DUP3 ADD DUP2 DUP1 CALLDATASIZE DUP4 CALLDATACOPY ADD SWAP1 POP JUMPDEST POP SWAP1 POP JUMPDEST DUP5 ISZERO PUSH2 0xCF9 JUMPI PUSH2 0xCA3 PUSH1 0x1 DUP4 PUSH2 0x1272 JUMP JUMPDEST SWAP2 POP PUSH2 0xCB0 PUSH1 0xA DUP7 PUSH2 0x134A JUMP JUMPDEST PUSH2 0xCBB SWAP1 PUSH1 0x30 PUSH2 0x1246 JUMP JUMPDEST PUSH1 0xF8 SHL DUP2 DUP4 DUP2 MLOAD DUP2 LT PUSH2 0xCD0 JUMPI PUSH2 0xCD0 PUSH2 0x138A JUMP JUMPDEST PUSH1 0x20 ADD ADD SWAP1 PUSH1 0x1 PUSH1 0x1 PUSH1 0xF8 SHL SUB NOT AND SWAP1 DUP2 PUSH1 0x0 BYTE SWAP1 MSTORE8 POP PUSH2 0xCF2 PUSH1 0xA DUP7 PUSH2 0x125E JUMP JUMPDEST SWAP5 POP PUSH2 0xC92 JUMP JUMPDEST SWAP5 SWAP4 POP POP POP POP JUMP JUMPDEST PUSH1 0x40 DUP1 MLOAD PUSH1 0x1 DUP1 DUP3 MSTORE DUP2 DUP4 ADD SWAP1 SWAP3 MSTORE PUSH1 0x60 SWAP2 PUSH1 0x0 SWAP2 SWAP1 PUSH1 0x20 DUP1 DUP4 ADD SWAP1 DUP1 CALLDATASIZE DUP4 CALLDATACOPY ADD SWAP1 POP POP SWAP1 POP DUP3 DUP2 PUSH1 0x0 DUP2 MLOAD DUP2 LT PUSH2 0xD3B JUMPI PUSH2 0xD3B PUSH2 0x138A JUMP JUMPDEST PUSH1 0x20 SWAP1 DUP2 MUL SWAP2 SWAP1 SWAP2 ADD ADD MSTORE SWAP3 SWAP2 POP POP JUMP JUMPDEST POP POP POP POP POP POP JUMP JUMPDEST PUSH1 0x1 PUSH1 0x1 PUSH1 0xA0 SHL SUB DUP5 AND EXTCODESIZE ISZERO PUSH2 0xD4C JUMPI PUSH1 0x40 MLOAD PUSH4 0x15D13449 PUSH1 0xE3 SHL DUP2 MSTORE PUSH1 0x1 PUSH1 0x1 PUSH1 0xA0 SHL SUB DUP6 AND SWAP1 PUSH4 0xAE89A248 SWAP1 PUSH2 0xD98 SWAP1 DUP10 SWAP1 DUP10 SWAP1 DUP9 SWAP1 DUP9 SWAP1 DUP9 SWAP1 PUSH1 0x4 ADD PUSH2 0x1123 JUMP JUMPDEST PUSH1 0x20 PUSH1 0x40 MLOAD DUP1 DUP4 SUB DUP2 PUSH1 0x0 DUP8 DUP1 EXTCODESIZE ISZERO DUP1 ISZERO PUSH2 0xDB2 JUMPI PUSH1 0x0 DUP1 REVERT JUMPDEST POP GAS CALL SWAP3 POP POP POP DUP1 ISZERO PUSH2 0xDE2 JUMPI POP PUSH1 0x40 DUP1 MLOAD PUSH1 0x1F RETURNDATASIZE SWAP1 DUP2 ADD PUSH1 0x1F NOT AND DUP3 ADD SWAP1 SWAP3 MSTORE PUSH2 0xDDF SWAP2 DUP2 ADD SWAP1 PUSH2 0x1041 JUMP JUMPDEST PUSH1 0x1 JUMPDEST PUSH2 0xE8F JUMPI PUSH2 0xDEE PUSH2 0x13B6 JUMP JUMPDEST DUP1 PUSH4 0x8C379A0 EQ ISZERO PUSH2 0xE28 JUMPI POP PUSH2 0xE03 PUSH2 0x13D1 JUMP JUMPDEST DUP1 PUSH2 0xE0E JUMPI POP PUSH2 0xE2A JUMP JUMPDEST DUP1 PUSH1 0x40 MLOAD PUSH3 0x461BCD PUSH1 0xE5 SHL DUP2 MSTORE PUSH1 0x4 ADD PUSH2 0x25D SWAP2 SWAP1 PUSH2 0x11AC JUMP JUMPDEST POP JUMPDEST PUSH1 0x40 MLOAD PUSH3 0x461BCD PUSH1 0xE5 SHL DUP2 MSTORE PUSH1 0x20 PUSH1 0x4 DUP3 ADD MSTORE PUSH1 0x34 PUSH1 0x24 DUP3 ADD MSTORE PUSH32 0x455243313135353A207472616E7366657220746F206E6F6E2045524331313535 PUSH1 0x44 DUP3 ADD MSTORE PUSH20 0x2932B1B2B4BB32B91034B6B83632B6B2B73A32B9 PUSH1 0x61 SHL PUSH1 0x64 DUP3 ADD MSTORE PUSH1 0x84 ADD PUSH2 0x25D JUMP JUMPDEST PUSH1 0x1 PUSH1 0x1 PUSH1 0xE0 SHL SUB NOT DUP2 AND PUSH4 0x15D13449 PUSH1 0xE3 SHL EQ PUSH2 0xF00 JUMPI PUSH1 0x40 MLOAD PUSH3 0x461BCD PUSH1 0xE5 SHL DUP2 MSTORE PUSH1 0x20 PUSH1 0x4 DUP3 ADD MSTORE PUSH1 0x28 PUSH1 0x24 DUP3 ADD MSTORE PUSH32 0x455243313135353A204552433131353552656365697665722072656A65637465 PUSH1 0x44 DUP3 ADD MSTORE PUSH8 0x6420746F6B656E73 PUSH1 0xC0 SHL PUSH1 0x64 DUP3 ADD MSTORE PUSH1 0x84 ADD PUSH2 0x25D JUMP JUMPDEST POP POP POP POP POP POP POP JUMP JUMPDEST DUP3 DUP1 SLOAD PUSH2 0xF15 SWAP1 PUSH2 0x12B9 JUMP JUMPDEST SWAP1 PUSH1 0x0 MSTORE PUSH1 0x20 PUSH1 0x0 KECCAK256 SWAP1 PUSH1 0x1F ADD PUSH1 0x20 SWAP1 DIV DUP2 ADD SWAP3 DUP3 PUSH2 0xF37 JUMPI PUSH1 0x0 DUP6 SSTORE PUSH2 0xF7D JUMP JUMPDEST DUP3 PUSH1 0x1F LT PUSH2 0xF50 JUMPI DUP1 MLOAD PUSH1 0xFF NOT AND DUP4 DUP1 ADD OR DUP6 SSTORE PUSH2 0xF7D JUMP JUMPDEST DUP3 DUP1 ADD PUSH1 0x1 ADD DUP6 SSTORE DUP3 ISZERO PUSH2 0xF7D JUMPI SWAP2 DUP3 ADD JUMPDEST DUP3 DUP2 GT ISZERO PUSH2 0xF7D JUMPI DUP3 MLOAD DUP3 SSTORE SWAP2 PUSH1 0x20 ADD SWAP2 SWAP1 PUSH1 0x1 ADD SWAP1 PUSH2 0xF62 JUMP JUMPDEST POP PUSH2 0xF89 SWAP3 SWAP2 POP PUSH2 0x1008 JUMP JUMPDEST POP SWAP1 JUMP JUMPDEST DUP3 DUP1 SLOAD PUSH2 0xF99 SWAP1 PUSH2 0x12B9 JUMP JUMPDEST SWAP1 PUSH1 0x0 MSTORE PUSH1 0x20 PUSH1 0x0 KECCAK256 SWAP1 PUSH1 0x1F ADD PUSH1 0x20 SWAP1 DIV DUP2 ADD SWAP3 DUP3 PUSH2 0xFBB JUMPI PUSH1 0x0 DUP6 SSTORE PUSH2 0xF7D JUMP JUMPDEST DUP3 PUSH1 0x1F LT PUSH2 0xFCC JUMPI DUP1 SLOAD DUP6 SSTORE PUSH2 0xF7D JUMP JUMPDEST DUP3 DUP1 ADD PUSH1 0x1 ADD DUP6 SSTORE DUP3 ISZERO PUSH2 0xF7D JUMPI PUSH1 0x0 MSTORE PUSH1 0x20 PUSH1 0x0 KECCAK256 SWAP2 PUSH1 0x1F ADD PUSH1 0x20 SWAP1 DIV DUP3 ADD JUMPDEST DUP3 DUP2 GT ISZERO PUSH2 0xF7D JUMPI DUP3 SLOAD DUP3 SSTORE SWAP2 PUSH1 0x1 ADD SWAP2 SWAP1 PUSH1 0x1 ADD SWAP1 PUSH2 0xFED JUMP JUMPDEST JUMPDEST DUP1 DUP3 GT ISZERO PUSH2 0xF89 JUMPI PUSH1 0x0 DUP2 SSTORE PUSH1 0x1 ADD PUSH2 0x1009 JUMP JUMPDEST PUSH1 0x0 PUSH1 0x20 DUP3 DUP5 SUB SLT ISZERO PUSH2 0x102F JUMPI PUSH1 0x0 DUP1 REVERT JUMPDEST DUP2 CALLDATALOAD PUSH2 0x103A DUP2 PUSH2 0x145B JUMP JUMPDEST SWAP4 SWAP3 POP POP POP JUMP JUMPDEST PUSH1 0x0 PUSH1 0x20 DUP3 DUP5 SUB SLT ISZERO PUSH2 0x1053 JUMPI PUSH1 0x0 DUP1 REVERT JUMPDEST DUP2 MLOAD PUSH1 0x1 PUSH1 0x1 PUSH1 0xE0 SHL SUB NOT DUP2 AND DUP2 EQ PUSH2 0x103A JUMPI PUSH1 0x0 DUP1 REVERT JUMPDEST PUSH1 0x0 DUP2 MLOAD DUP1 DUP5 MSTORE PUSH2 0x1083 DUP2 PUSH1 0x20 DUP7 ADD PUSH1 0x20 DUP7 ADD PUSH2 0x1289 JUMP JUMPDEST PUSH1 0x1F ADD PUSH1 0x1F NOT AND SWAP3 SWAP1 SWAP3 ADD PUSH1 0x20 ADD SWAP3 SWAP2 POP POP JUMP JUMPDEST PUSH8 0x4469616D6F6E645F PUSH1 0xC0 SHL DUP2 MSTORE PUSH1 0x0 DUP3 MLOAD PUSH2 0x10BA DUP2 PUSH1 0x8 DUP6 ADD PUSH1 0x20 DUP8 ADD PUSH2 0x1289 JUMP JUMPDEST SWAP2 SWAP1 SWAP2 ADD PUSH1 0x8 ADD SWAP3 SWAP2 POP POP JUMP JUMPDEST PUSH5 0x476F6C645F PUSH1 0xD8 SHL DUP2 MSTORE PUSH1 0x0 DUP3 MLOAD PUSH2 0x10E7 DUP2 PUSH1 0x5 DUP6 ADD PUSH1 0x20 DUP8 ADD PUSH2 0x1289 JUMP JUMPDEST SWAP2 SWAP1 SWAP2 ADD PUSH1 0x5 ADD SWAP3 SWAP2 POP POP JUMP JUMPDEST PUSH7 0x53696C7665725F PUSH1 0xC8 SHL DUP2 MSTORE PUSH1 0x0 DUP3 MLOAD PUSH2 0x1116 DUP2 PUSH1 0x7 DUP6 ADD PUSH1 0x20 DUP8 ADD PUSH2 0x1289 JUMP JUMPDEST SWAP2 SWAP1 SWAP2 ADD PUSH1 0x7 ADD SWAP3 SWAP2 POP POP JUMP JUMPDEST PUSH1 0x1 PUSH1 0x1 PUSH1 0xA0 SHL SUB DUP7 DUP2 AND DUP3 MSTORE DUP6 AND PUSH1 0x20 DUP3 ADD MSTORE PUSH1 0x40 DUP2 ADD DUP5 SWAP1 MSTORE PUSH1 0x60 DUP2 ADD DUP4 SWAP1 MSTORE PUSH1 0xA0 PUSH1 0x80 DUP3 ADD DUP2 SWAP1 MSTORE PUSH1 0x0 SWAP1 PUSH2 0x115D SWAP1 DUP4 ADD DUP5 PUSH2 0x106B JUMP JUMPDEST SWAP8 SWAP7 POP POP POP POP POP POP POP JUMP JUMPDEST PUSH1 0x20 DUP1 DUP3 MSTORE DUP3 MLOAD DUP3 DUP3 ADD DUP2 SWAP1 MSTORE PUSH1 0x0 SWAP2 SWAP1 DUP5 DUP3 ADD SWAP1 PUSH1 0x40 DUP6 ADD SWAP1 DUP5 JUMPDEST DUP2 DUP2 LT ISZERO PUSH2 0x11A0 JUMPI DUP4 MLOAD DUP4 MSTORE SWAP3 DUP5 ADD SWAP3 SWAP2 DUP5 ADD SWAP2 PUSH1 0x1 ADD PUSH2 0x1184 JUMP JUMPDEST POP SWAP1 SWAP7 SWAP6 POP POP POP POP POP POP JUMP JUMPDEST PUSH1 0x20 DUP2 MSTORE PUSH1 0x0 PUSH2 0x103A PUSH1 0x20 DUP4 ADD DUP5 PUSH2 0x106B JUMP JUMPDEST PUSH1 0x20 DUP1 DUP3 MSTORE PUSH1 0x1C SWAP1 DUP3 ADD MSTORE PUSH32 0x4F6E6C79204E46542D4553204F776E65722063616E2041636365737300000000 PUSH1 0x40 DUP3 ADD MSTORE PUSH1 0x60 ADD SWAP1 JUMP JUMPDEST PUSH1 0x20 DUP1 DUP3 MSTORE PUSH1 0x1B SWAP1 DUP3 ADD MSTORE PUSH32 0x44726F7073697465206973206E6F74204F70656E6564205965742E0000000000 PUSH1 0x40 DUP3 ADD MSTORE PUSH1 0x60 ADD SWAP1 JUMP JUMPDEST DUP3 DUP2 MSTORE PUSH1 0x40 PUSH1 0x20 DUP3 ADD MSTORE PUSH1 0x0 PUSH2 0xCF9 PUSH1 0x40 DUP4 ADD DUP5 PUSH2 0x106B JUMP JUMPDEST PUSH1 0x0 DUP3 NOT DUP3 GT ISZERO PUSH2 0x1259 JUMPI PUSH2 0x1259 PUSH2 0x135E JUMP JUMPDEST POP ADD SWAP1 JUMP JUMPDEST PUSH1 0x0 DUP3 PUSH2 0x126D JUMPI PUSH2 0x126D PUSH2 0x1374 JUMP JUMPDEST POP DIV SWAP1 JUMP JUMPDEST PUSH1 0x0 DUP3 DUP3 LT ISZERO PUSH2 0x1284 JUMPI PUSH2 0x1284 PUSH2 0x135E JUMP JUMPDEST POP SUB SWAP1 JUMP JUMPDEST PUSH1 0x0 JUMPDEST DUP4 DUP2 LT ISZERO PUSH2 0x12A4 JUMPI DUP2 DUP2 ADD MLOAD DUP4 DUP3 ADD MSTORE PUSH1 0x20 ADD PUSH2 0x128C JUMP JUMPDEST DUP4 DUP2 GT ISZERO PUSH2 0x12B3 JUMPI PUSH1 0x0 DUP5 DUP5 ADD MSTORE JUMPDEST POP POP POP POP JUMP JUMPDEST PUSH1 0x1 DUP2 DUP2 SHR SWAP1 DUP3 AND DUP1 PUSH2 0x12CD JUMPI PUSH1 0x7F DUP3 AND SWAP2 POP JUMPDEST PUSH1 0x20 DUP3 LT DUP2 EQ ISZERO PUSH2 0x12EE JUMPI PUSH4 0x4E487B71 PUSH1 0xE0 SHL PUSH1 0x0 MSTORE PUSH1 0x22 PUSH1 0x4 MSTORE PUSH1 0x24 PUSH1 0x0 REVERT JUMPDEST POP SWAP2 SWAP1 POP JUMP JUMPDEST PUSH1 0x1F DUP3 ADD PUSH1 0x1F NOT AND DUP2 ADD PUSH8 0xFFFFFFFFFFFFFFFF DUP2 GT DUP3 DUP3 LT OR ISZERO PUSH2 0x1328 JUMPI PUSH4 0x4E487B71 PUSH1 0xE0 SHL PUSH1 0x0 MSTORE PUSH1 0x41 PUSH1 0x4 MSTORE PUSH1 0x24 PUSH1 0x0 REVERT JUMPDEST PUSH1 0x40 MSTORE POP POP JUMP JUMPDEST PUSH1 0x0 PUSH1 0x0 NOT DUP3 EQ ISZERO PUSH2 0x1343 JUMPI PUSH2 0x1343 PUSH2 0x135E JUMP JUMPDEST POP PUSH1 0x1 ADD SWAP1 JUMP JUMPDEST PUSH1 0x0 DUP3 PUSH2 0x1359 JUMPI PUSH2 0x1359 PUSH2 0x1374 JUMP JUMPDEST POP MOD SWAP1 JUMP JUMPDEST PUSH4 0x4E487B71 PUSH1 0xE0 SHL PUSH1 0x0 MSTORE PUSH1 0x11 PUSH1 0x4 MSTORE PUSH1 0x24 PUSH1 0x0 REVERT JUMPDEST PUSH4 0x4E487B71 PUSH1 0xE0 SHL PUSH1 0x0 MSTORE PUSH1 0x12 PUSH1 0x4 MSTORE PUSH1 0x24 PUSH1 0x0 REVERT JUMPDEST PUSH4 0x4E487B71 PUSH1 0xE0 SHL PUSH1 0x0 MSTORE PUSH1 0x32 PUSH1 0x4 MSTORE PUSH1 0x24 PUSH1 0x0 REVERT JUMPDEST PUSH4 0x4E487B71 PUSH1 0xE0 SHL PUSH1 0x0 MSTORE PUSH1 0x41 PUSH1 0x4 MSTORE PUSH1 0x24 PUSH1 0x0 REVERT JUMPDEST PUSH1 0x0 PUSH1 0x3 RETURNDATASIZE GT ISZERO PUSH2 0x26B JUMPI PUSH1 0x4 PUSH1 0x0 DUP1 RETURNDATACOPY POP PUSH1 0x0 MLOAD PUSH1 0xE0 SHR SWAP1 JUMP JUMPDEST PUSH1 0x0 PUSH1 0x44 RETURNDATASIZE LT ISZERO PUSH2 0x13DF JUMPI SWAP1 JUMP JUMPDEST PUSH1 0x40 MLOAD PUSH1 0x3 NOT RETURNDATASIZE DUP2 ADD PUSH1 0x4 DUP4 RETURNDATACOPY DUP2 MLOAD RETURNDATASIZE PUSH8 0xFFFFFFFFFFFFFFFF DUP2 PUSH1 0x24 DUP5 ADD GT DUP2 DUP5 GT OR ISZERO PUSH2 0x140F JUMPI POP POP POP POP POP SWAP1 JUMP JUMPDEST DUP3 DUP6 ADD SWAP2 POP DUP2 MLOAD DUP2 DUP2 GT ISZERO PUSH2 0x1427 JUMPI POP POP POP POP POP POP SWAP1 JUMP JUMPDEST DUP5 RETURNDATASIZE DUP8 ADD ADD PUSH1 0x20 DUP3 DUP6 ADD ADD GT ISZERO PUSH2 0x1441 JUMPI POP POP POP POP POP POP SWAP1 JUMP JUMPDEST PUSH2 0x1450 PUSH1 0x20 DUP3 DUP7 ADD ADD DUP8 PUSH2 0x12F4 JUMP JUMPDEST POP SWAP1 SWAP6 SWAP5 POP POP POP POP POP JUMP JUMPDEST PUSH1 0x1 PUSH1 0x1 PUSH1 0xA0 SHL SUB DUP2 AND DUP2 EQ PUSH2 0x1470 JUMPI PUSH1 0x0 DUP1 REVERT JUMPDEST POP JUMP INVALID LOG2 PUSH5 0x6970667358 0x22 SLT KECCAK256 0xBE 0xAA CALLER 0xAB SWAP16 0xC5 0xE1 0xB7 0xEA 0xB3 0xF7 GASLIMIT 0xDF 0xA9 BALANCE PUSH13 0xD77B5213BA482CC3B30F7D4745 PUSH15 0xDD5C64736F6C634300080700330000 "
				},
				"gasEstimates": {
					"creation": {
						"codeDepositCost": "1057800",
						"executionCost": "infinite",
						"totalCost": "infinite"
					},
					"external": {
						"ContractBalance()": "2447",
						"CryptoRandomMint(address)": "infinite",
						"FiatRandomMint(address)": "infinite",
						"IsPaused()": "2355",
						"Owner()": "2436",
						"checkMintedCategoryWise()": "8801",
						"checkTotalMinted()": "4475",
						"openDropsite()": "28733",
						"returnOwner(address)": "infinite",
						"stopDropsite()": "28729",
						"withDraw(address)": "infinite"
					},
					"internal": {
						"depositAmount(address,uint256)": "24404",
						"random()": "infinite",
						"updateConditions()": "infinite"
					}
				},
				"methodIdentifiers": {
					"ContractBalance()": "3b668059",
					"CryptoRandomMint(address)": "3d65df70",
					"FiatRandomMint(address)": "32b61b4c",
					"IsPaused()": "1309a563",
					"Owner()": "b4a99a4e",
					"checkMintedCategoryWise()": "60daa851",
					"checkTotalMinted()": "0390c11c",
					"openDropsite()": "15460259",
					"returnOwner(address)": "fd6c3b1b",
					"stopDropsite()": "aa90c726",
					"withDraw(address)": "0a67d2c7"
				}
			},
			"userdoc": {
				"kind": "user",
				"methods": {},
				"version": 1
			}
		}
	}
}