{
	"Dropsite.sol": {
		"Dropsite": {
			"abi": [
				{
					"inputs": [
						{
							"internalType": "string",
							"name": "name",
							"type": "string"
						}
					],
					"stateMutability": "nonpayable",
					"type": "constructor"
				},
				{
					"anonymous": false,
					"inputs": [
						{
							"indexed": true,
							"internalType": "address",
							"name": "operator",
							"type": "address"
						},
						{
							"indexed": true,
							"internalType": "address",
							"name": "from",
							"type": "address"
						},
						{
							"indexed": true,
							"internalType": "address",
							"name": "to",
							"type": "address"
						},
						{
							"indexed": false,
							"internalType": "uint256",
							"name": "id",
							"type": "uint256"
						},
						{
							"indexed": false,
							"internalType": "uint256",
							"name": "value",
							"type": "uint256"
						}
					],
					"name": "TransferSingle",
					"type": "event"
				},
				{
					"inputs": [],
					"name": "IsPaused",
					"outputs": [
						{
							"internalType": "bool",
							"name": "",
							"type": "bool"
						}
					],
					"stateMutability": "view",
					"type": "function"
				},
				{
					"inputs": [],
					"name": "Owner",
					"outputs": [
						{
							"internalType": "address payable",
							"name": "",
							"type": "address"
						}
					],
					"stateMutability": "view",
					"type": "function"
				},
				{
					"inputs": [],
					"name": "TotalNFTsMinted",
					"outputs": [
						{
							"internalType": "uint256",
							"name": "",
							"type": "uint256"
						}
					],
					"stateMutability": "view",
					"type": "function"
				},
				{
					"inputs": [],
					"name": "checkMintedCategoryWise",
					"outputs": [
						{
							"internalType": "uint256",
							"name": "",
							"type": "uint256"
						},
						{
							"internalType": "uint256",
							"name": "",
							"type": "uint256"
						},
						{
							"internalType": "uint256",
							"name": "",
							"type": "uint256"
						}
					],
					"stateMutability": "view",
					"type": "function"
				},
				{
					"inputs": [
						{
							"internalType": "address",
							"name": "",
							"type": "address"
						}
					],
					"name": "dropsite_NFT_Owner",
					"outputs": [
						{
							"internalType": "uint256",
							"name": "",
							"type": "uint256"
						}
					],
					"stateMutability": "view",
					"type": "function"
				},
				{
					"inputs": [],
					"name": "openDropsite",
					"outputs": [],
					"stateMutability": "nonpayable",
					"type": "function"
				},
				{
					"inputs": [],
					"name": "randomMint",
					"outputs": [
						{
							"internalType": "uint256",
							"name": "",
							"type": "uint256"
						}
					],
					"stateMutability": "nonpayable",
					"type": "function"
				},
				{
					"inputs": [],
					"name": "stopDropsite",
					"outputs": [],
					"stateMutability": "nonpayable",
					"type": "function"
				}
			],
			"devdoc": {
				"kind": "dev",
				"methods": {},
				"version": 1
			},
			"evm": {
				"assembly": "    /* \"Dropsite.sol\":122:2731  contract Dropsite is ERC1155_Dropsite  { ... */\n  mstore(0x40, 0x80)\n    /* \"Dropsite.sol\":190:205  bytes  data =\"\" */\n  mload(0x40)\n  dup1\n  0x20\n  add\n  0x40\n  mstore\n  dup1\n  0x00\n  dup2\n  mstore\n  pop\n  0x02\n  swap1\n  dup1\n  mload\n  swap1\n  0x20\n  add\n  swap1\n  tag_1\n  swap3\n  swap2\n  swap1\n  tag_2\n  jump\t// in\ntag_1:\n  pop\n    /* \"Dropsite.sol\":803:807  true */\n  0x01\n    /* \"Dropsite.sol\":780:807  bool public IsPaused = true */\n  0x0a\n  exp(0x0100, 0x00)\n  dup2\n  sload\n  dup2\n  0xff\n  mul\n  not\n  and\n  swap1\n  dup4\n  iszero\n  iszero\n  mul\n  or\n  swap1\n  sstore\n  pop\n    /* \"Dropsite.sol\":879:1155  constructor (string memory name){... */\n  callvalue\n  dup1\n  iszero\n  tag_3\n  jumpi\n  0x00\n  dup1\n  revert\ntag_3:\n  pop\n  mload(0x40)\n  sub(codesize, bytecodeSize)\n  dup1\n  bytecodeSize\n  dup4\n  codecopy\n  dup2\n  dup2\n  add\n  0x40\n  mstore\n  dup2\n  add\n  swap1\n  tag_4\n  swap2\n  swap1\n  tag_5\n  jump\t// in\ntag_4:\n    /* \"Dropsite.sol\":929:933  name */\n  dup1\n    /* \"Dropsite.sol\":921:926  _name */\n  0x0b\n    /* \"Dropsite.sol\":921:933  _name = name */\n  swap1\n  dup1\n  mload\n  swap1\n  0x20\n  add\n  swap1\n  tag_8\n  swap3\n  swap2\n  swap1\n  tag_9\n  jump\t// in\ntag_8:\n  pop\n    /* \"Dropsite.sol\":959:969  msg.sender */\n  caller\n    /* \"Dropsite.sol\":943:948  Owner */\n  0x0a\n  0x01\n    /* \"Dropsite.sol\":943:970  Owner = payable(msg.sender) */\n  0x0100\n  exp\n  dup2\n  sload\n  dup2\n  0xffffffffffffffffffffffffffffffffffffffff\n  mul\n  not\n  and\n  swap1\n  dup4\n  0xffffffffffffffffffffffffffffffffffffffff\n  and\n  mul\n  or\n  swap1\n  sstore\n  pop\n    /* \"Dropsite.sol\":997:998  0 */\n  0x00\n    /* \"Dropsite.sol\":981:996  TotalNFTsMinted */\n  0x03\n    /* \"Dropsite.sol\":981:998  TotalNFTsMinted=0 */\n  dup2\n  swap1\n  sstore\n  pop\n    /* \"Dropsite.sol\":1044:1045  1 */\n  0x01\n    /* \"Dropsite.sol\":1032:1043  numOfCopies */\n  0x04\n    /* \"Dropsite.sol\":1032:1045  numOfCopies=1 */\n  dup2\n  swap1\n  sstore\n  pop\n    /* \"Dropsite.sol\":1101:1102  0 */\n  0x00\n    /* \"Dropsite.sol\":1092:1100  Platinum */\n  0x05\n    /* \"Dropsite.sol\":1092:1102  Platinum=0 */\n  dup2\n  swap1\n  sstore\n  pop\n    /* \"Dropsite.sol\":1129:1130  0 */\n  0x00\n    /* \"Dropsite.sol\":1124:1128  Gold */\n  0x06\n    /* \"Dropsite.sol\":1124:1130  Gold=0 */\n  dup2\n  swap1\n  sstore\n  pop\n    /* \"Dropsite.sol\":1147:1148  0 */\n  0x00\n    /* \"Dropsite.sol\":1140:1146  Silver */\n  0x07\n    /* \"Dropsite.sol\":1140:1148  Silver=0 */\n  dup2\n  swap1\n  sstore\n  pop\n    /* \"Dropsite.sol\":879:1155  constructor (string memory name){... */\n  pop\n    /* \"Dropsite.sol\":122:2731  contract Dropsite is ERC1155_Dropsite  { ... */\n  jump(tag_10)\ntag_2:\n  dup3\n  dup1\n  sload\n  tag_11\n  swap1\n  tag_12\n  jump\t// in\ntag_11:\n  swap1\n  0x00\n  mstore\n  keccak256(0x00, 0x20)\n  swap1\n  0x1f\n  add\n  0x20\n  swap1\n  div\n  dup2\n  add\n  swap3\n  dup3\n  tag_14\n  jumpi\n  0x00\n  dup6\n  sstore\n  jump(tag_13)\ntag_14:\n  dup3\n  0x1f\n  lt\n  tag_15\n  jumpi\n  dup1\n  mload\n  not(0xff)\n  and\n  dup4\n  dup1\n  add\n  or\n  dup6\n  sstore\n  jump(tag_13)\ntag_15:\n  dup3\n  dup1\n  add\n  0x01\n  add\n  dup6\n  sstore\n  dup3\n  iszero\n  tag_13\n  jumpi\n  swap2\n  dup3\n  add\ntag_16:\n  dup3\n  dup2\n  gt\n  iszero\n  tag_17\n  jumpi\n  dup3\n  mload\n  dup3\n  sstore\n  swap2\n  0x20\n  add\n  swap2\n  swap1\n  0x01\n  add\n  swap1\n  jump(tag_16)\ntag_17:\ntag_13:\n  pop\n  swap1\n  pop\n  tag_18\n  swap2\n  swap1\n  tag_19\n  jump\t// in\ntag_18:\n  pop\n  swap1\n  jump\t// out\ntag_9:\n  dup3\n  dup1\n  sload\n  tag_20\n  swap1\n  tag_12\n  jump\t// in\ntag_20:\n  swap1\n  0x00\n  mstore\n  keccak256(0x00, 0x20)\n  swap1\n  0x1f\n  add\n  0x20\n  swap1\n  div\n  dup2\n  add\n  swap3\n  dup3\n  tag_22\n  jumpi\n  0x00\n  dup6\n  sstore\n  jump(tag_21)\ntag_22:\n  dup3\n  0x1f\n  lt\n  tag_23\n  jumpi\n  dup1\n  mload\n  not(0xff)\n  and\n  dup4\n  dup1\n  add\n  or\n  dup6\n  sstore\n  jump(tag_21)\ntag_23:\n  dup3\n  dup1\n  add\n  0x01\n  add\n  dup6\n  sstore\n  dup3\n  iszero\n  tag_21\n  jumpi\n  swap2\n  dup3\n  add\ntag_24:\n  dup3\n  dup2\n  gt\n  iszero\n  tag_25\n  jumpi\n  dup3\n  mload\n  dup3\n  sstore\n  swap2\n  0x20\n  add\n  swap2\n  swap1\n  0x01\n  add\n  swap1\n  jump(tag_24)\ntag_25:\ntag_21:\n  pop\n  swap1\n  pop\n  tag_26\n  swap2\n  swap1\n  tag_19\n  jump\t// in\ntag_26:\n  pop\n  swap1\n  jump\t// out\ntag_19:\ntag_27:\n  dup1\n  dup3\n  gt\n  iszero\n  tag_28\n  jumpi\n  0x00\n  dup2\n  0x00\n  swap1\n  sstore\n  pop\n  0x01\n  add\n  jump(tag_27)\ntag_28:\n  pop\n  swap1\n  jump\t// out\n    /* \"#utility.yul\":7:428   */\ntag_30:\n    /* \"#utility.yul\":96:101   */\n  0x00\n    /* \"#utility.yul\":121:187   */\n  tag_32\n    /* \"#utility.yul\":137:186   */\n  tag_33\n    /* \"#utility.yul\":179:185   */\n  dup5\n    /* \"#utility.yul\":137:186   */\n  tag_34\n  jump\t// in\ntag_33:\n    /* \"#utility.yul\":121:187   */\n  tag_35\n  jump\t// in\ntag_32:\n    /* \"#utility.yul\":112:187   */\n  swap1\n  pop\n    /* \"#utility.yul\":210:216   */\n  dup3\n    /* \"#utility.yul\":203:208   */\n  dup2\n    /* \"#utility.yul\":196:217   */\n  mstore\n    /* \"#utility.yul\":248:252   */\n  0x20\n    /* \"#utility.yul\":241:246   */\n  dup2\n    /* \"#utility.yul\":237:253   */\n  add\n    /* \"#utility.yul\":286:289   */\n  dup5\n    /* \"#utility.yul\":277:283   */\n  dup5\n    /* \"#utility.yul\":272:275   */\n  dup5\n    /* \"#utility.yul\":268:284   */\n  add\n    /* \"#utility.yul\":265:290   */\n  gt\n    /* \"#utility.yul\":262:374   */\n  iszero\n  tag_36\n  jumpi\n    /* \"#utility.yul\":293:372   */\n  tag_37\n  tag_38\n  jump\t// in\ntag_37:\n    /* \"#utility.yul\":262:374   */\ntag_36:\n    /* \"#utility.yul\":383:422   */\n  tag_39\n    /* \"#utility.yul\":415:421   */\n  dup5\n    /* \"#utility.yul\":410:413   */\n  dup3\n    /* \"#utility.yul\":405:408   */\n  dup6\n    /* \"#utility.yul\":383:422   */\n  tag_40\n  jump\t// in\ntag_39:\n    /* \"#utility.yul\":102:428   */\n  pop\n    /* \"#utility.yul\":7:428   */\n  swap4\n  swap3\n  pop\n  pop\n  pop\n  jump\t// out\n    /* \"#utility.yul\":448:803   */\ntag_41:\n    /* \"#utility.yul\":515:520   */\n  0x00\n    /* \"#utility.yul\":564:567   */\n  dup3\n    /* \"#utility.yul\":557:561   */\n  0x1f\n    /* \"#utility.yul\":549:555   */\n  dup4\n    /* \"#utility.yul\":545:562   */\n  add\n    /* \"#utility.yul\":541:568   */\n  slt\n    /* \"#utility.yul\":531:653   */\n  tag_43\n  jumpi\n    /* \"#utility.yul\":572:651   */\n  tag_44\n  tag_45\n  jump\t// in\ntag_44:\n    /* \"#utility.yul\":531:653   */\ntag_43:\n    /* \"#utility.yul\":682:688   */\n  dup2\n    /* \"#utility.yul\":676:689   */\n  mload\n    /* \"#utility.yul\":707:797   */\n  tag_46\n    /* \"#utility.yul\":793:796   */\n  dup5\n    /* \"#utility.yul\":785:791   */\n  dup3\n    /* \"#utility.yul\":778:782   */\n  0x20\n    /* \"#utility.yul\":770:776   */\n  dup7\n    /* \"#utility.yul\":766:783   */\n  add\n    /* \"#utility.yul\":707:797   */\n  tag_30\n  jump\t// in\ntag_46:\n    /* \"#utility.yul\":698:797   */\n  swap2\n  pop\n    /* \"#utility.yul\":521:803   */\n  pop\n    /* \"#utility.yul\":448:803   */\n  swap3\n  swap2\n  pop\n  pop\n  jump\t// out\n    /* \"#utility.yul\":809:1333   */\ntag_5:\n    /* \"#utility.yul\":889:895   */\n  0x00\n    /* \"#utility.yul\":938:940   */\n  0x20\n    /* \"#utility.yul\":926:935   */\n  dup3\n    /* \"#utility.yul\":917:924   */\n  dup5\n    /* \"#utility.yul\":913:936   */\n  sub\n    /* \"#utility.yul\":909:941   */\n  slt\n    /* \"#utility.yul\":906:1025   */\n  iszero\n  tag_48\n  jumpi\n    /* \"#utility.yul\":944:1023   */\n  tag_49\n  tag_50\n  jump\t// in\ntag_49:\n    /* \"#utility.yul\":906:1025   */\ntag_48:\n    /* \"#utility.yul\":1085:1086   */\n  0x00\n    /* \"#utility.yul\":1074:1083   */\n  dup3\n    /* \"#utility.yul\":1070:1087   */\n  add\n    /* \"#utility.yul\":1064:1088   */\n  mload\n    /* \"#utility.yul\":1115:1133   */\n  0xffffffffffffffff\n    /* \"#utility.yul\":1107:1113   */\n  dup2\n    /* \"#utility.yul\":1104:1134   */\n  gt\n    /* \"#utility.yul\":1101:1218   */\n  iszero\n  tag_51\n  jumpi\n    /* \"#utility.yul\":1137:1216   */\n  tag_52\n  tag_53\n  jump\t// in\ntag_52:\n    /* \"#utility.yul\":1101:1218   */\ntag_51:\n    /* \"#utility.yul\":1242:1316   */\n  tag_54\n    /* \"#utility.yul\":1308:1315   */\n  dup5\n    /* \"#utility.yul\":1299:1305   */\n  dup3\n    /* \"#utility.yul\":1288:1297   */\n  dup6\n    /* \"#utility.yul\":1284:1306   */\n  add\n    /* \"#utility.yul\":1242:1316   */\n  tag_41\n  jump\t// in\ntag_54:\n    /* \"#utility.yul\":1232:1316   */\n  swap2\n  pop\n    /* \"#utility.yul\":1035:1326   */\n  pop\n    /* \"#utility.yul\":809:1333   */\n  swap3\n  swap2\n  pop\n  pop\n  jump\t// out\n    /* \"#utility.yul\":1339:1468   */\ntag_35:\n    /* \"#utility.yul\":1373:1379   */\n  0x00\n    /* \"#utility.yul\":1400:1420   */\n  tag_56\n  tag_57\n  jump\t// in\ntag_56:\n    /* \"#utility.yul\":1390:1420   */\n  swap1\n  pop\n    /* \"#utility.yul\":1429:1462   */\n  tag_58\n    /* \"#utility.yul\":1457:1461   */\n  dup3\n    /* \"#utility.yul\":1449:1455   */\n  dup3\n    /* \"#utility.yul\":1429:1462   */\n  tag_59\n  jump\t// in\ntag_58:\n    /* \"#utility.yul\":1339:1468   */\n  swap2\n  swap1\n  pop\n  jump\t// out\n    /* \"#utility.yul\":1474:1549   */\ntag_57:\n    /* \"#utility.yul\":1507:1513   */\n  0x00\n    /* \"#utility.yul\":1540:1542   */\n  0x40\n    /* \"#utility.yul\":1534:1543   */\n  mload\n    /* \"#utility.yul\":1524:1543   */\n  swap1\n  pop\n    /* \"#utility.yul\":1474:1549   */\n  swap1\n  jump\t// out\n    /* \"#utility.yul\":1555:1863   */\ntag_34:\n    /* \"#utility.yul\":1617:1621   */\n  0x00\n    /* \"#utility.yul\":1707:1725   */\n  0xffffffffffffffff\n    /* \"#utility.yul\":1699:1705   */\n  dup3\n    /* \"#utility.yul\":1696:1726   */\n  gt\n    /* \"#utility.yul\":1693:1749   */\n  iszero\n  tag_62\n  jumpi\n    /* \"#utility.yul\":1729:1747   */\n  tag_63\n  tag_64\n  jump\t// in\ntag_63:\n    /* \"#utility.yul\":1693:1749   */\ntag_62:\n    /* \"#utility.yul\":1767:1796   */\n  tag_65\n    /* \"#utility.yul\":1789:1795   */\n  dup3\n    /* \"#utility.yul\":1767:1796   */\n  tag_66\n  jump\t// in\ntag_65:\n    /* \"#utility.yul\":1759:1796   */\n  swap1\n  pop\n    /* \"#utility.yul\":1851:1855   */\n  0x20\n    /* \"#utility.yul\":1845:1849   */\n  dup2\n    /* \"#utility.yul\":1841:1856   */\n  add\n    /* \"#utility.yul\":1833:1856   */\n  swap1\n  pop\n    /* \"#utility.yul\":1555:1863   */\n  swap2\n  swap1\n  pop\n  jump\t// out\n    /* \"#utility.yul\":1869:2176   */\ntag_40:\n    /* \"#utility.yul\":1937:1938   */\n  0x00\n    /* \"#utility.yul\":1947:2060   */\ntag_68:\n    /* \"#utility.yul\":1961:1967   */\n  dup4\n    /* \"#utility.yul\":1958:1959   */\n  dup2\n    /* \"#utility.yul\":1955:1968   */\n  lt\n    /* \"#utility.yul\":1947:2060   */\n  iszero\n  tag_70\n  jumpi\n    /* \"#utility.yul\":2046:2047   */\n  dup1\n    /* \"#utility.yul\":2041:2044   */\n  dup3\n    /* \"#utility.yul\":2037:2048   */\n  add\n    /* \"#utility.yul\":2031:2049   */\n  mload\n    /* \"#utility.yul\":2027:2028   */\n  dup2\n    /* \"#utility.yul\":2022:2025   */\n  dup5\n    /* \"#utility.yul\":2018:2029   */\n  add\n    /* \"#utility.yul\":2011:2050   */\n  mstore\n    /* \"#utility.yul\":1983:1985   */\n  0x20\n    /* \"#utility.yul\":1980:1981   */\n  dup2\n    /* \"#utility.yul\":1976:1986   */\n  add\n    /* \"#utility.yul\":1971:1986   */\n  swap1\n  pop\n    /* \"#utility.yul\":1947:2060   */\n  jump(tag_68)\ntag_70:\n    /* \"#utility.yul\":2078:2084   */\n  dup4\n    /* \"#utility.yul\":2075:2076   */\n  dup2\n    /* \"#utility.yul\":2072:2085   */\n  gt\n    /* \"#utility.yul\":2069:2170   */\n  iszero\n  tag_71\n  jumpi\n    /* \"#utility.yul\":2158:2159   */\n  0x00\n    /* \"#utility.yul\":2149:2155   */\n  dup5\n    /* \"#utility.yul\":2144:2147   */\n  dup5\n    /* \"#utility.yul\":2140:2156   */\n  add\n    /* \"#utility.yul\":2133:2160   */\n  mstore\n    /* \"#utility.yul\":2069:2170   */\ntag_71:\n    /* \"#utility.yul\":1918:2176   */\n  pop\n    /* \"#utility.yul\":1869:2176   */\n  pop\n  pop\n  pop\n  jump\t// out\n    /* \"#utility.yul\":2182:2502   */\ntag_12:\n    /* \"#utility.yul\":2226:2232   */\n  0x00\n    /* \"#utility.yul\":2263:2264   */\n  0x02\n    /* \"#utility.yul\":2257:2261   */\n  dup3\n    /* \"#utility.yul\":2253:2265   */\n  div\n    /* \"#utility.yul\":2243:2265   */\n  swap1\n  pop\n    /* \"#utility.yul\":2310:2311   */\n  0x01\n    /* \"#utility.yul\":2304:2308   */\n  dup3\n    /* \"#utility.yul\":2300:2312   */\n  and\n    /* \"#utility.yul\":2331:2349   */\n  dup1\n    /* \"#utility.yul\":2321:2402   */\n  tag_73\n  jumpi\n    /* \"#utility.yul\":2387:2391   */\n  0x7f\n    /* \"#utility.yul\":2379:2385   */\n  dup3\n    /* \"#utility.yul\":2375:2392   */\n  and\n    /* \"#utility.yul\":2365:2392   */\n  swap2\n  pop\n    /* \"#utility.yul\":2321:2402   */\ntag_73:\n    /* \"#utility.yul\":2449:2451   */\n  0x20\n    /* \"#utility.yul\":2441:2447   */\n  dup3\n    /* \"#utility.yul\":2438:2452   */\n  lt\n    /* \"#utility.yul\":2418:2436   */\n  dup2\n    /* \"#utility.yul\":2415:2453   */\n  eq\n    /* \"#utility.yul\":2412:2496   */\n  iszero\n  tag_74\n  jumpi\n    /* \"#utility.yul\":2468:2486   */\n  tag_75\n  tag_76\n  jump\t// in\ntag_75:\n    /* \"#utility.yul\":2412:2496   */\ntag_74:\n    /* \"#utility.yul\":2233:2502   */\n  pop\n    /* \"#utility.yul\":2182:2502   */\n  swap2\n  swap1\n  pop\n  jump\t// out\n    /* \"#utility.yul\":2508:2789   */\ntag_59:\n    /* \"#utility.yul\":2591:2618   */\n  tag_78\n    /* \"#utility.yul\":2613:2617   */\n  dup3\n    /* \"#utility.yul\":2591:2618   */\n  tag_66\n  jump\t// in\ntag_78:\n    /* \"#utility.yul\":2583:2589   */\n  dup2\n    /* \"#utility.yul\":2579:2619   */\n  add\n    /* \"#utility.yul\":2721:2727   */\n  dup2\n    /* \"#utility.yul\":2709:2719   */\n  dup2\n    /* \"#utility.yul\":2706:2728   */\n  lt\n    /* \"#utility.yul\":2685:2703   */\n  0xffffffffffffffff\n    /* \"#utility.yul\":2673:2683   */\n  dup3\n    /* \"#utility.yul\":2670:2704   */\n  gt\n    /* \"#utility.yul\":2667:2729   */\n  or\n    /* \"#utility.yul\":2664:2752   */\n  iszero\n  tag_79\n  jumpi\n    /* \"#utility.yul\":2732:2750   */\n  tag_80\n  tag_64\n  jump\t// in\ntag_80:\n    /* \"#utility.yul\":2664:2752   */\ntag_79:\n    /* \"#utility.yul\":2772:2782   */\n  dup1\n    /* \"#utility.yul\":2768:2770   */\n  0x40\n    /* \"#utility.yul\":2761:2783   */\n  mstore\n    /* \"#utility.yul\":2551:2789   */\n  pop\n    /* \"#utility.yul\":2508:2789   */\n  pop\n  pop\n  jump\t// out\n    /* \"#utility.yul\":2795:2975   */\ntag_76:\n    /* \"#utility.yul\":2843:2920   */\n  0x4e487b7100000000000000000000000000000000000000000000000000000000\n    /* \"#utility.yul\":2840:2841   */\n  0x00\n    /* \"#utility.yul\":2833:2921   */\n  mstore\n    /* \"#utility.yul\":2940:2944   */\n  0x22\n    /* \"#utility.yul\":2937:2938   */\n  0x04\n    /* \"#utility.yul\":2930:2945   */\n  mstore\n    /* \"#utility.yul\":2964:2968   */\n  0x24\n    /* \"#utility.yul\":2961:2962   */\n  0x00\n    /* \"#utility.yul\":2954:2969   */\n  revert\n    /* \"#utility.yul\":2981:3161   */\ntag_64:\n    /* \"#utility.yul\":3029:3106   */\n  0x4e487b7100000000000000000000000000000000000000000000000000000000\n    /* \"#utility.yul\":3026:3027   */\n  0x00\n    /* \"#utility.yul\":3019:3107   */\n  mstore\n    /* \"#utility.yul\":3126:3130   */\n  0x41\n    /* \"#utility.yul\":3123:3124   */\n  0x04\n    /* \"#utility.yul\":3116:3131   */\n  mstore\n    /* \"#utility.yul\":3150:3154   */\n  0x24\n    /* \"#utility.yul\":3147:3148   */\n  0x00\n    /* \"#utility.yul\":3140:3155   */\n  revert\n    /* \"#utility.yul\":3167:3284   */\ntag_45:\n    /* \"#utility.yul\":3276:3277   */\n  0x00\n    /* \"#utility.yul\":3273:3274   */\n  dup1\n    /* \"#utility.yul\":3266:3278   */\n  revert\n    /* \"#utility.yul\":3290:3407   */\ntag_38:\n    /* \"#utility.yul\":3399:3400   */\n  0x00\n    /* \"#utility.yul\":3396:3397   */\n  dup1\n    /* \"#utility.yul\":3389:3401   */\n  revert\n    /* \"#utility.yul\":3413:3530   */\ntag_53:\n    /* \"#utility.yul\":3522:3523   */\n  0x00\n    /* \"#utility.yul\":3519:3520   */\n  dup1\n    /* \"#utility.yul\":3512:3524   */\n  revert\n    /* \"#utility.yul\":3536:3653   */\ntag_50:\n    /* \"#utility.yul\":3645:3646   */\n  0x00\n    /* \"#utility.yul\":3642:3643   */\n  dup1\n    /* \"#utility.yul\":3635:3647   */\n  revert\n    /* \"#utility.yul\":3659:3761   */\ntag_66:\n    /* \"#utility.yul\":3700:3706   */\n  0x00\n    /* \"#utility.yul\":3751:3753   */\n  0x1f\n    /* \"#utility.yul\":3747:3754   */\n  not\n    /* \"#utility.yul\":3742:3744   */\n  0x1f\n    /* \"#utility.yul\":3735:3740   */\n  dup4\n    /* \"#utility.yul\":3731:3745   */\n  add\n    /* \"#utility.yul\":3727:3755   */\n  and\n    /* \"#utility.yul\":3717:3755   */\n  swap1\n  pop\n    /* \"#utility.yul\":3659:3761   */\n  swap2\n  swap1\n  pop\n  jump\t// out\n    /* \"Dropsite.sol\":122:2731  contract Dropsite is ERC1155_Dropsite  { ... */\ntag_10:\n  dataSize(sub_0)\n  dup1\n  dataOffset(sub_0)\n  0x00\n  codecopy\n  0x00\n  return\nstop\n\nsub_0: assembly {\n        /* \"Dropsite.sol\":122:2731  contract Dropsite is ERC1155_Dropsite  { ... */\n      mstore(0x40, 0x80)\n      callvalue\n      dup1\n      iszero\n      tag_1\n      jumpi\n      0x00\n      dup1\n      revert\n    tag_1:\n      pop\n      jumpi(tag_2, lt(calldatasize, 0x04))\n      shr(0xe0, calldataload(0x00))\n      dup1\n      0x7e1eaabf\n      gt\n      tag_11\n      jumpi\n      dup1\n      0x7e1eaabf\n      eq\n      tag_7\n      jumpi\n      dup1\n      0xaa90c726\n      eq\n      tag_8\n      jumpi\n      dup1\n      0xb4a99a4e\n      eq\n      tag_9\n      jumpi\n      dup1\n      0xd4c892c4\n      eq\n      tag_10\n      jumpi\n      jump(tag_2)\n    tag_11:\n      dup1\n      0x1309a563\n      eq\n      tag_3\n      jumpi\n      dup1\n      0x15460259\n      eq\n      tag_4\n      jumpi\n      dup1\n      0x322f0ece\n      eq\n      tag_5\n      jumpi\n      dup1\n      0x60daa851\n      eq\n      tag_6\n      jumpi\n    tag_2:\n      0x00\n      dup1\n      revert\n        /* \"Dropsite.sol\":780:807  bool public IsPaused = true */\n    tag_3:\n      tag_12\n      tag_13\n      jump\t// in\n    tag_12:\n      mload(0x40)\n      tag_14\n      swap2\n      swap1\n      tag_15\n      jump\t// in\n    tag_14:\n      mload(0x40)\n      dup1\n      swap2\n      sub\n      swap1\n      return\n        /* \"Dropsite.sol\":1444:1580  function openDropsite() public OnlyOwner {... */\n    tag_4:\n      tag_16\n      tag_17\n      jump\t// in\n    tag_16:\n      stop\n        /* \"Dropsite.sol\":212:239  uint public TotalNFTsMinted */\n    tag_5:\n      tag_18\n      tag_19\n      jump\t// in\n    tag_18:\n      mload(0x40)\n      tag_20\n      swap2\n      swap1\n      tag_21\n      jump\t// in\n    tag_20:\n      mload(0x40)\n      dup1\n      swap2\n      sub\n      swap1\n      return\n        /* \"Dropsite.sol\":1167:1295  function checkMintedCategoryWise() public view OnlyOwner returns(uint,uint,uint){... */\n    tag_6:\n      tag_22\n      tag_23\n      jump\t// in\n    tag_22:\n      mload(0x40)\n      tag_24\n      swap4\n      swap3\n      swap2\n      swap1\n      tag_25\n      jump\t// in\n    tag_24:\n      mload(0x40)\n      dup1\n      swap2\n      sub\n      swap1\n      return\n        /* \"Dropsite.sol\":1772:2723  function randomMint() contractIsNotPaused public returns (uint) {... */\n    tag_7:\n      tag_26\n      tag_27\n      jump\t// in\n    tag_26:\n      mload(0x40)\n      tag_28\n      swap2\n      swap1\n      tag_21\n      jump\t// in\n    tag_28:\n      mload(0x40)\n      dup1\n      swap2\n      sub\n      swap1\n      return\n        /* \"Dropsite.sol\":1302:1437  function stopDropsite() public OnlyOwner{... */\n    tag_8:\n      tag_29\n      tag_30\n      jump\t// in\n    tag_29:\n      stop\n        /* \"Dropsite.sol\":813:842  address payable public  Owner */\n    tag_9:\n      tag_31\n      tag_32\n      jump\t// in\n    tag_31:\n      mload(0x40)\n      tag_33\n      swap2\n      swap1\n      tag_34\n      jump\t// in\n    tag_33:\n      mload(0x40)\n      dup1\n      swap2\n      sub\n      swap1\n      return\n        /* \"Dropsite.sol\":434:483  mapping (address=>uint) public dropsite_NFT_Owner */\n    tag_10:\n      tag_35\n      0x04\n      dup1\n      calldatasize\n      sub\n      dup2\n      add\n      swap1\n      tag_36\n      swap2\n      swap1\n      tag_37\n      jump\t// in\n    tag_36:\n      tag_38\n      jump\t// in\n    tag_35:\n      mload(0x40)\n      tag_39\n      swap2\n      swap1\n      tag_21\n      jump\t// in\n    tag_39:\n      mload(0x40)\n      dup1\n      swap2\n      sub\n      swap1\n      return\n        /* \"Dropsite.sol\":780:807  bool public IsPaused = true */\n    tag_13:\n      0x0a\n      0x00\n      swap1\n      sload\n      swap1\n      0x0100\n      exp\n      swap1\n      div\n      0xff\n      and\n      dup2\n      jump\t// out\n        /* \"Dropsite.sol\":1444:1580  function openDropsite() public OnlyOwner {... */\n    tag_17:\n        /* \"Dropsite.sol\":565:570  Owner */\n      0x0a\n      0x01\n      swap1\n      sload\n      swap1\n      0x0100\n      exp\n      swap1\n      div\n      0xffffffffffffffffffffffffffffffffffffffff\n      and\n        /* \"Dropsite.sol\":549:570  _msgSender() == Owner */\n      0xffffffffffffffffffffffffffffffffffffffff\n      and\n        /* \"Dropsite.sol\":549:561  _msgSender() */\n      tag_41\n        /* \"Dropsite.sol\":549:559  _msgSender */\n      tag_42\n        /* \"Dropsite.sol\":549:561  _msgSender() */\n      jump\t// in\n    tag_41:\n        /* \"Dropsite.sol\":549:570  _msgSender() == Owner */\n      0xffffffffffffffffffffffffffffffffffffffff\n      and\n      eq\n        /* \"Dropsite.sol\":541:599  require(_msgSender() == Owner, \"OnyxNft Owner can Access\") */\n      tag_43\n      jumpi\n      mload(0x40)\n      0x08c379a000000000000000000000000000000000000000000000000000000000\n      dup2\n      mstore\n      0x04\n      add\n      tag_44\n      swap1\n      tag_45\n      jump\t// in\n    tag_44:\n      mload(0x40)\n      dup1\n      swap2\n      sub\n      swap1\n      revert\n    tag_43:\n        /* \"Dropsite.sol\":1513:1517  true */\n      0x01\n        /* \"Dropsite.sol\":1503:1517  IsPaused==true */\n      iszero\n      iszero\n        /* \"Dropsite.sol\":1503:1511  IsPaused */\n      0x0a\n      0x00\n      swap1\n      sload\n      swap1\n      0x0100\n      exp\n      swap1\n      div\n      0xff\n      and\n        /* \"Dropsite.sol\":1503:1517  IsPaused==true */\n      iszero\n      iszero\n      eq\n        /* \"Dropsite.sol\":1495:1549  require(IsPaused==true, \"Dropsite is already Running\") */\n      tag_47\n      jumpi\n      mload(0x40)\n      0x08c379a000000000000000000000000000000000000000000000000000000000\n      dup2\n      mstore\n      0x04\n      add\n      tag_48\n      swap1\n      tag_49\n      jump\t// in\n    tag_48:\n      mload(0x40)\n      dup1\n      swap2\n      sub\n      swap1\n      revert\n    tag_47:\n        /* \"Dropsite.sol\":1568:1573  false */\n      0x00\n        /* \"Dropsite.sol\":1559:1567  IsPaused */\n      0x0a\n      0x00\n        /* \"Dropsite.sol\":1559:1573  IsPaused=false */\n      0x0100\n      exp\n      dup2\n      sload\n      dup2\n      0xff\n      mul\n      not\n      and\n      swap1\n      dup4\n      iszero\n      iszero\n      mul\n      or\n      swap1\n      sstore\n      pop\n        /* \"Dropsite.sol\":1444:1580  function openDropsite() public OnlyOwner {... */\n      jump\t// out\n        /* \"Dropsite.sol\":212:239  uint public TotalNFTsMinted */\n    tag_19:\n      sload(0x03)\n      dup2\n      jump\t// out\n        /* \"Dropsite.sol\":1167:1295  function checkMintedCategoryWise() public view OnlyOwner returns(uint,uint,uint){... */\n    tag_23:\n        /* \"Dropsite.sol\":1232:1236  uint */\n      0x00\n        /* \"Dropsite.sol\":1237:1241  uint */\n      dup1\n        /* \"Dropsite.sol\":1242:1246  uint */\n      0x00\n        /* \"Dropsite.sol\":565:570  Owner */\n      0x0a\n      0x01\n      swap1\n      sload\n      swap1\n      0x0100\n      exp\n      swap1\n      div\n      0xffffffffffffffffffffffffffffffffffffffff\n      and\n        /* \"Dropsite.sol\":549:570  _msgSender() == Owner */\n      0xffffffffffffffffffffffffffffffffffffffff\n      and\n        /* \"Dropsite.sol\":549:561  _msgSender() */\n      tag_51\n        /* \"Dropsite.sol\":549:559  _msgSender */\n      tag_42\n        /* \"Dropsite.sol\":549:561  _msgSender() */\n      jump\t// in\n    tag_51:\n        /* \"Dropsite.sol\":549:570  _msgSender() == Owner */\n      0xffffffffffffffffffffffffffffffffffffffff\n      and\n      eq\n        /* \"Dropsite.sol\":541:599  require(_msgSender() == Owner, \"OnyxNft Owner can Access\") */\n      tag_52\n      jumpi\n      mload(0x40)\n      0x08c379a000000000000000000000000000000000000000000000000000000000\n      dup2\n      mstore\n      0x04\n      add\n      tag_53\n      swap1\n      tag_45\n      jump\t// in\n    tag_53:\n      mload(0x40)\n      dup1\n      swap2\n      sub\n      swap1\n      revert\n    tag_52:\n        /* \"Dropsite.sol\":1266:1274  Platinum */\n      sload(0x05)\n        /* \"Dropsite.sol\":1275:1279  Gold */\n      sload(0x06)\n        /* \"Dropsite.sol\":1280:1286  Silver */\n      sload(0x07)\n        /* \"Dropsite.sol\":1258:1287  return (Platinum,Gold,Silver) */\n      swap3\n      pop\n      swap3\n      pop\n      swap3\n      pop\n        /* \"Dropsite.sol\":1167:1295  function checkMintedCategoryWise() public view OnlyOwner returns(uint,uint,uint){... */\n      swap1\n      swap2\n      swap3\n      jump\t// out\n        /* \"Dropsite.sol\":1772:2723  function randomMint() contractIsNotPaused public returns (uint) {... */\n    tag_27:\n        /* \"Dropsite.sol\":1830:1834  uint */\n      0x00\n        /* \"Dropsite.sol\":726:731  false */\n      dup1\n        /* \"Dropsite.sol\":714:731  IsPaused == false */\n      iszero\n      iszero\n        /* \"Dropsite.sol\":714:722  IsPaused */\n      0x0a\n      0x00\n      swap1\n      sload\n      swap1\n      0x0100\n      exp\n      swap1\n      div\n      0xff\n      and\n        /* \"Dropsite.sol\":714:731  IsPaused == false */\n      iszero\n      iszero\n      eq\n        /* \"Dropsite.sol\":705:755  require (IsPaused == false, \"Contract is Paused\" ) */\n      tag_56\n      jumpi\n      mload(0x40)\n      0x08c379a000000000000000000000000000000000000000000000000000000000\n      dup2\n      mstore\n      0x04\n      add\n      tag_57\n      swap1\n      tag_58\n      jump\t// in\n    tag_57:\n      mload(0x40)\n      dup1\n      swap2\n      sub\n      swap1\n      revert\n    tag_56:\n        /* \"Dropsite.sol\":1841:1851  uint nftId */\n      0x00\n        /* \"Dropsite.sol\":1854:1862  random() */\n      tag_60\n        /* \"Dropsite.sol\":1854:1860  random */\n      tag_61\n        /* \"Dropsite.sol\":1854:1862  random() */\n      jump\t// in\n    tag_60:\n        /* \"Dropsite.sol\":1841:1862  uint nftId = random() */\n      swap1\n      pop\n        /* \"Dropsite.sol\":1982:1983  0 */\n      0x00\n        /* \"Dropsite.sol\":1973:1978  nftId */\n      dup2\n        /* \"Dropsite.sol\":1973:1983  nftId == 0 */\n      eq\n        /* \"Dropsite.sol\":1973:2001  nftId == 0 && Platinum < 150 */\n      dup1\n      iszero\n      tag_62\n      jumpi\n      pop\n        /* \"Dropsite.sol\":1998:2001  150 */\n      0x96\n        /* \"Dropsite.sol\":1987:1995  Platinum */\n      sload(0x05)\n        /* \"Dropsite.sol\":1987:2001  Platinum < 150 */\n      lt\n        /* \"Dropsite.sol\":1973:2001  nftId == 0 && Platinum < 150 */\n    tag_62:\n        /* \"Dropsite.sol\":1970:2581  if(nftId == 0 && Platinum < 150) {... */\n      iszero\n      tag_63\n      jumpi\n        /* \"Dropsite.sol\":2013:2030  data = \"Platinum\" */\n      mload(0x40)\n      dup1\n      0x40\n      add\n      0x40\n      mstore\n      dup1\n      0x08\n      dup2\n      mstore\n      0x20\n      add\n      0x506c6174696e756d000000000000000000000000000000000000000000000000\n      dup2\n      mstore\n      pop\n        /* \"Dropsite.sol\":2013:2017  data */\n      0x02\n        /* \"Dropsite.sol\":2013:2030  data = \"Platinum\" */\n      swap1\n      dup1\n      mload\n      swap1\n      0x20\n      add\n      swap1\n      tag_64\n      swap3\n      swap2\n      swap1\n      tag_65\n      jump\t// in\n    tag_64:\n      pop\n        /* \"Dropsite.sol\":2040:2048  Platinum */\n      0x05\n      0x00\n        /* \"Dropsite.sol\":2040:2050  Platinum++ */\n      dup2\n      sload\n      dup1\n      swap3\n      swap2\n      swap1\n      tag_66\n      swap1\n      tag_67\n      jump\t// in\n    tag_66:\n      swap2\n      swap1\n      pop\n      sstore\n      pop\n        /* \"Dropsite.sol\":1970:2581  if(nftId == 0 && Platinum < 150) {... */\n      jump(tag_68)\n    tag_63:\n        /* \"Dropsite.sol\":2151:2152  1 */\n      0x01\n        /* \"Dropsite.sol\":2142:2147  nftId */\n      dup2\n        /* \"Dropsite.sol\":2142:2152  nftId <= 1 */\n      gt\n      iszero\n        /* \"Dropsite.sol\":2142:2166  nftId <= 1 && Gold < 351 */\n      dup1\n      iszero\n      tag_69\n      jumpi\n      pop\n        /* \"Dropsite.sol\":2163:2166  351 */\n      0x015f\n        /* \"Dropsite.sol\":2156:2160  Gold */\n      sload(0x06)\n        /* \"Dropsite.sol\":2156:2166  Gold < 351 */\n      lt\n        /* \"Dropsite.sol\":2142:2166  nftId <= 1 && Gold < 351 */\n    tag_69:\n        /* \"Dropsite.sol\":2142:2183  nftId <= 1 && Gold < 351 && Platinum==150 */\n      dup1\n      iszero\n      tag_70\n      jumpi\n      pop\n        /* \"Dropsite.sol\":2180:2183  150 */\n      0x96\n        /* \"Dropsite.sol\":2170:2178  Platinum */\n      sload(0x05)\n        /* \"Dropsite.sol\":2170:2183  Platinum==150 */\n      eq\n        /* \"Dropsite.sol\":2142:2183  nftId <= 1 && Gold < 351 && Platinum==150 */\n    tag_70:\n        /* \"Dropsite.sol\":2139:2581  if(nftId <= 1 && Gold < 351 && Platinum==150) {... */\n      iszero\n      tag_71\n      jumpi\n        /* \"Dropsite.sol\":2195:2208  data = \"Gold\" */\n      mload(0x40)\n      dup1\n      0x40\n      add\n      0x40\n      mstore\n      dup1\n      0x04\n      dup2\n      mstore\n      0x20\n      add\n      0x476f6c6400000000000000000000000000000000000000000000000000000000\n      dup2\n      mstore\n      pop\n        /* \"Dropsite.sol\":2195:2199  data */\n      0x02\n        /* \"Dropsite.sol\":2195:2208  data = \"Gold\" */\n      swap1\n      dup1\n      mload\n      swap1\n      0x20\n      add\n      swap1\n      tag_72\n      swap3\n      swap2\n      swap1\n      tag_65\n      jump\t// in\n    tag_72:\n      pop\n        /* \"Dropsite.sol\":2218:2222  Gold */\n      0x06\n      0x00\n        /* \"Dropsite.sol\":2218:2224  Gold++ */\n      dup2\n      sload\n      dup1\n      swap3\n      swap2\n      swap1\n      tag_73\n      swap1\n      tag_67\n      jump\t// in\n    tag_73:\n      swap2\n      swap1\n      pop\n      sstore\n      pop\n        /* \"Dropsite.sol\":2139:2581  if(nftId <= 1 && Gold < 351 && Platinum==150) {... */\n      jump(tag_74)\n    tag_71:\n        /* \"Dropsite.sol\":2345:2346  2 */\n      0x02\n        /* \"Dropsite.sol\":2336:2341  nftId */\n      dup2\n        /* \"Dropsite.sol\":2336:2346  nftId == 2 */\n      eq\n        /* \"Dropsite.sol\":2336:2363  nftId == 2 && Silver <= 500 */\n      dup1\n      iszero\n      tag_75\n      jumpi\n      pop\n        /* \"Dropsite.sol\":2360:2363  500 */\n      0x01f4\n        /* \"Dropsite.sol\":2350:2356  Silver */\n      sload(0x07)\n        /* \"Dropsite.sol\":2350:2363  Silver <= 500 */\n      gt\n      iszero\n        /* \"Dropsite.sol\":2336:2363  nftId == 2 && Silver <= 500 */\n    tag_75:\n        /* \"Dropsite.sol\":2333:2581  if(nftId == 2 && Silver <= 500) {... */\n      iszero\n      tag_76\n      jumpi\n        /* \"Dropsite.sol\":2375:2388  data=\"Silver\" */\n      mload(0x40)\n      dup1\n      0x40\n      add\n      0x40\n      mstore\n      dup1\n      0x06\n      dup2\n      mstore\n      0x20\n      add\n      0x53696c7665720000000000000000000000000000000000000000000000000000\n      dup2\n      mstore\n      pop\n        /* \"Dropsite.sol\":2375:2379  data */\n      0x02\n        /* \"Dropsite.sol\":2375:2388  data=\"Silver\" */\n      swap1\n      dup1\n      mload\n      swap1\n      0x20\n      add\n      swap1\n      tag_77\n      swap3\n      swap2\n      swap1\n      tag_65\n      jump\t// in\n    tag_77:\n      pop\n        /* \"Dropsite.sol\":2398:2404  Silver */\n      0x07\n      0x00\n        /* \"Dropsite.sol\":2398:2406  Silver++ */\n      dup2\n      sload\n      dup1\n      swap3\n      swap2\n      swap1\n      tag_78\n      swap1\n      tag_67\n      jump\t// in\n    tag_78:\n      swap2\n      swap1\n      pop\n      sstore\n      pop\n        /* \"Dropsite.sol\":2333:2581  if(nftId == 2 && Silver <= 500) {... */\n      jump(tag_79)\n    tag_76:\n        /* \"Dropsite.sol\":2439:2442  350 */\n      0x015e\n        /* \"Dropsite.sol\":2432:2436  Gold */\n      sload(0x06)\n        /* \"Dropsite.sol\":2432:2442  Gold < 350 */\n      lt\n        /* \"Dropsite.sol\":2429:2575  if(Gold < 350) {... */\n      iszero\n      tag_80\n      jumpi\n        /* \"Dropsite.sol\":2458:2471  data = \"Gold\" */\n      mload(0x40)\n      dup1\n      0x40\n      add\n      0x40\n      mstore\n      dup1\n      0x04\n      dup2\n      mstore\n      0x20\n      add\n      0x476f6c6400000000000000000000000000000000000000000000000000000000\n      dup2\n      mstore\n      pop\n        /* \"Dropsite.sol\":2458:2462  data */\n      0x02\n        /* \"Dropsite.sol\":2458:2471  data = \"Gold\" */\n      swap1\n      dup1\n      mload\n      swap1\n      0x20\n      add\n      swap1\n      tag_81\n      swap3\n      swap2\n      swap1\n      tag_65\n      jump\t// in\n    tag_81:\n      pop\n        /* \"Dropsite.sol\":2485:2489  Gold */\n      0x06\n      0x00\n        /* \"Dropsite.sol\":2485:2491  Gold++ */\n      dup2\n      sload\n      dup1\n      swap3\n      swap2\n      swap1\n      tag_82\n      swap1\n      tag_67\n      jump\t// in\n    tag_82:\n      swap2\n      swap1\n      pop\n      sstore\n      pop\n        /* \"Dropsite.sol\":2429:2575  if(Gold < 350) {... */\n      jump(tag_83)\n    tag_80:\n        /* \"Dropsite.sol\":2523:2540  data = \"Platinum\" */\n      mload(0x40)\n      dup1\n      0x40\n      add\n      0x40\n      mstore\n      dup1\n      0x08\n      dup2\n      mstore\n      0x20\n      add\n      0x506c6174696e756d000000000000000000000000000000000000000000000000\n      dup2\n      mstore\n      pop\n        /* \"Dropsite.sol\":2523:2527  data */\n      0x02\n        /* \"Dropsite.sol\":2523:2540  data = \"Platinum\" */\n      swap1\n      dup1\n      mload\n      swap1\n      0x20\n      add\n      swap1\n      tag_84\n      swap3\n      swap2\n      swap1\n      tag_65\n      jump\t// in\n    tag_84:\n      pop\n        /* \"Dropsite.sol\":2554:2562  Platinum */\n      0x05\n      0x00\n        /* \"Dropsite.sol\":2554:2564  Platinum++ */\n      dup2\n      sload\n      dup1\n      swap3\n      swap2\n      swap1\n      tag_85\n      swap1\n      tag_67\n      jump\t// in\n    tag_85:\n      swap2\n      swap1\n      pop\n      sstore\n      pop\n        /* \"Dropsite.sol\":2429:2575  if(Gold < 350) {... */\n    tag_83:\n        /* \"Dropsite.sol\":2333:2581  if(nftId == 2 && Silver <= 500) {... */\n    tag_79:\n        /* \"Dropsite.sol\":2139:2581  if(nftId <= 1 && Gold < 351 && Platinum==150) {... */\n    tag_74:\n        /* \"Dropsite.sol\":1970:2581  if(nftId == 0 && Platinum < 150) {... */\n    tag_68:\n        /* \"Dropsite.sol\":2586:2631  _mint(_msgSender(), nftId, numOfCopies, data) */\n      tag_86\n        /* \"Dropsite.sol\":2592:2604  _msgSender() */\n      tag_87\n        /* \"Dropsite.sol\":2592:2602  _msgSender */\n      tag_42\n        /* \"Dropsite.sol\":2592:2604  _msgSender() */\n      jump\t// in\n    tag_87:\n        /* \"Dropsite.sol\":2606:2611  nftId */\n      dup3\n        /* \"Dropsite.sol\":2613:2624  numOfCopies */\n      sload(0x04)\n        /* \"Dropsite.sol\":2626:2630  data */\n      0x02\n        /* \"Dropsite.sol\":2586:2631  _mint(_msgSender(), nftId, numOfCopies, data) */\n      dup1\n      sload\n      tag_88\n      swap1\n      tag_89\n      jump\t// in\n    tag_88:\n      dup1\n      0x1f\n      add\n      0x20\n      dup1\n      swap2\n      div\n      mul\n      0x20\n      add\n      mload(0x40)\n      swap1\n      dup2\n      add\n      0x40\n      mstore\n      dup1\n      swap3\n      swap2\n      swap1\n      dup2\n      dup2\n      mstore\n      0x20\n      add\n      dup3\n      dup1\n      sload\n      tag_90\n      swap1\n      tag_89\n      jump\t// in\n    tag_90:\n      dup1\n      iszero\n      tag_91\n      jumpi\n      dup1\n      0x1f\n      lt\n      tag_92\n      jumpi\n      0x0100\n      dup1\n      dup4\n      sload\n      div\n      mul\n      dup4\n      mstore\n      swap2\n      0x20\n      add\n      swap2\n      jump(tag_91)\n    tag_92:\n      dup3\n      add\n      swap2\n      swap1\n      0x00\n      mstore\n      keccak256(0x00, 0x20)\n      swap1\n    tag_93:\n      dup2\n      sload\n      dup2\n      mstore\n      swap1\n      0x01\n      add\n      swap1\n      0x20\n      add\n      dup1\n      dup4\n      gt\n      tag_93\n      jumpi\n      dup3\n      swap1\n      sub\n      0x1f\n      and\n      dup3\n      add\n      swap2\n    tag_91:\n      pop\n      pop\n      pop\n      pop\n      pop\n        /* \"Dropsite.sol\":2586:2591  _mint */\n      tag_94\n        /* \"Dropsite.sol\":2586:2631  _mint(_msgSender(), nftId, numOfCopies, data) */\n      jump\t// in\n    tag_86:\n        /* \"Dropsite.sol\":2637:2652  TotalNFTsMinted */\n      0x03\n      0x00\n        /* \"Dropsite.sol\":2637:2654  TotalNFTsMinted++ */\n      dup2\n      sload\n      dup1\n      swap3\n      swap2\n      swap1\n      tag_95\n      swap1\n      tag_67\n      jump\t// in\n    tag_95:\n      swap2\n      swap1\n      pop\n      sstore\n      pop\n        /* \"Dropsite.sol\":2693:2698  nftId */\n      dup1\n        /* \"Dropsite.sol\":2660:2678  dropsite_NFT_Owner */\n      0x08\n        /* \"Dropsite.sol\":2660:2692  dropsite_NFT_Owner[_msgSender()] */\n      0x00\n        /* \"Dropsite.sol\":2679:2691  _msgSender() */\n      tag_96\n        /* \"Dropsite.sol\":2679:2689  _msgSender */\n      tag_42\n        /* \"Dropsite.sol\":2679:2691  _msgSender() */\n      jump\t// in\n    tag_96:\n        /* \"Dropsite.sol\":2660:2692  dropsite_NFT_Owner[_msgSender()] */\n      0xffffffffffffffffffffffffffffffffffffffff\n      and\n      0xffffffffffffffffffffffffffffffffffffffff\n      and\n      dup2\n      mstore\n      0x20\n      add\n      swap1\n      dup2\n      mstore\n      0x20\n      add\n      0x00\n      keccak256\n        /* \"Dropsite.sol\":2660:2698  dropsite_NFT_Owner[_msgSender()]=nftId */\n      dup2\n      swap1\n      sstore\n      pop\n        /* \"Dropsite.sol\":2711:2716  nftId */\n      dup1\n        /* \"Dropsite.sol\":2704:2716  return nftId */\n      swap2\n      pop\n      pop\n        /* \"Dropsite.sol\":1772:2723  function randomMint() contractIsNotPaused public returns (uint) {... */\n      swap1\n      jump\t// out\n        /* \"Dropsite.sol\":1302:1437  function stopDropsite() public OnlyOwner{... */\n    tag_30:\n        /* \"Dropsite.sol\":565:570  Owner */\n      0x0a\n      0x01\n      swap1\n      sload\n      swap1\n      0x0100\n      exp\n      swap1\n      div\n      0xffffffffffffffffffffffffffffffffffffffff\n      and\n        /* \"Dropsite.sol\":549:570  _msgSender() == Owner */\n      0xffffffffffffffffffffffffffffffffffffffff\n      and\n        /* \"Dropsite.sol\":549:561  _msgSender() */\n      tag_98\n        /* \"Dropsite.sol\":549:559  _msgSender */\n      tag_42\n        /* \"Dropsite.sol\":549:561  _msgSender() */\n      jump\t// in\n    tag_98:\n        /* \"Dropsite.sol\":549:570  _msgSender() == Owner */\n      0xffffffffffffffffffffffffffffffffffffffff\n      and\n      eq\n        /* \"Dropsite.sol\":541:599  require(_msgSender() == Owner, \"OnyxNft Owner can Access\") */\n      tag_99\n      jumpi\n      mload(0x40)\n      0x08c379a000000000000000000000000000000000000000000000000000000000\n      dup2\n      mstore\n      0x04\n      add\n      tag_100\n      swap1\n      tag_45\n      jump\t// in\n    tag_100:\n      mload(0x40)\n      dup1\n      swap2\n      sub\n      swap1\n      revert\n    tag_99:\n        /* \"Dropsite.sol\":1370:1375  false */\n      0x00\n        /* \"Dropsite.sol\":1360:1375  IsPaused==false */\n      iszero\n      iszero\n        /* \"Dropsite.sol\":1360:1368  IsPaused */\n      0x0a\n      0x00\n      swap1\n      sload\n      swap1\n      0x0100\n      exp\n      swap1\n      div\n      0xff\n      and\n        /* \"Dropsite.sol\":1360:1375  IsPaused==false */\n      iszero\n      iszero\n      eq\n        /* \"Dropsite.sol\":1352:1407  require(IsPaused==false, \"Dropsite is already Stopped\") */\n      tag_102\n      jumpi\n      mload(0x40)\n      0x08c379a000000000000000000000000000000000000000000000000000000000\n      dup2\n      mstore\n      0x04\n      add\n      tag_103\n      swap1\n      tag_104\n      jump\t// in\n    tag_103:\n      mload(0x40)\n      dup1\n      swap2\n      sub\n      swap1\n      revert\n    tag_102:\n        /* \"Dropsite.sol\":1426:1430  true */\n      0x01\n        /* \"Dropsite.sol\":1417:1425  IsPaused */\n      0x0a\n      0x00\n        /* \"Dropsite.sol\":1417:1430  IsPaused=true */\n      0x0100\n      exp\n      dup2\n      sload\n      dup2\n      0xff\n      mul\n      not\n      and\n      swap1\n      dup4\n      iszero\n      iszero\n      mul\n      or\n      swap1\n      sstore\n      pop\n        /* \"Dropsite.sol\":1302:1437  function stopDropsite() public OnlyOwner{... */\n      jump\t// out\n        /* \"Dropsite.sol\":813:842  address payable public  Owner */\n    tag_32:\n      0x0a\n      0x01\n      swap1\n      sload\n      swap1\n      0x0100\n      exp\n      swap1\n      div\n      0xffffffffffffffffffffffffffffffffffffffff\n      and\n      dup2\n      jump\t// out\n        /* \"Dropsite.sol\":434:483  mapping (address=>uint) public dropsite_NFT_Owner */\n    tag_38:\n      mstore(0x20, 0x08)\n      dup1\n      0x00\n      mstore\n      keccak256(0x00, 0x40)\n      0x00\n      swap2\n      pop\n      swap1\n      pop\n      sload\n      dup2\n      jump\t// out\n        /* \"Context.sol\":640:736  function _msgSender() internal view virtual returns (address) {... */\n    tag_42:\n        /* \"Context.sol\":693:700  address */\n      0x00\n        /* \"Context.sol\":719:729  msg.sender */\n      caller\n        /* \"Context.sol\":712:729  return msg.sender */\n      swap1\n      pop\n        /* \"Context.sol\":640:736  function _msgSender() internal view virtual returns (address) {... */\n      swap1\n      jump\t// out\n        /* \"Dropsite.sol\":1590:1761  function random() internal view returns (uint) {... */\n    tag_61:\n        /* \"Dropsite.sol\":1631:1635  uint */\n      0x00\n        /* \"Dropsite.sol\":1643:1660  uint randomnumber */\n      dup1\n        /* \"Dropsite.sol\":1728:1729  3 */\n      0x03\n        /* \"Dropsite.sol\":1695:1710  block.timestamp */\n      timestamp\n        /* \"Dropsite.sol\":1712:1722  msg.sender */\n      caller\n        /* \"Dropsite.sol\":1678:1723  abi.encodePacked(block.timestamp, msg.sender) */\n      add(0x20, mload(0x40))\n      tag_107\n      swap3\n      swap2\n      swap1\n      tag_108\n      jump\t// in\n    tag_107:\n      mload(0x40)\n      0x20\n      dup2\n      dup4\n      sub\n      sub\n      dup2\n      mstore\n      swap1\n      0x40\n      mstore\n        /* \"Dropsite.sol\":1668:1724  keccak256(abi.encodePacked(block.timestamp, msg.sender)) */\n      dup1\n      mload\n      swap1\n      0x20\n      add\n      keccak256\n        /* \"Dropsite.sol\":1663:1725  uint(keccak256(abi.encodePacked(block.timestamp, msg.sender))) */\n      0x00\n      shr\n        /* \"Dropsite.sol\":1663:1729  uint(keccak256(abi.encodePacked(block.timestamp, msg.sender))) % 3 */\n      tag_109\n      swap2\n      swap1\n      tag_110\n      jump\t// in\n    tag_109:\n        /* \"Dropsite.sol\":1643:1729  uint randomnumber = uint(keccak256(abi.encodePacked(block.timestamp, msg.sender))) % 3 */\n      swap1\n      pop\n        /* \"Dropsite.sol\":1742:1754  randomnumber */\n      dup1\n        /* \"Dropsite.sol\":1735:1754  return randomnumber */\n      swap2\n      pop\n      pop\n        /* \"Dropsite.sol\":1590:1761  function random() internal view returns (uint) {... */\n      swap1\n      jump\t// out\n        /* \"ERC1155_Dropsite.sol\":835:1386  function _mint(... */\n    tag_94:\n        /* \"ERC1155_Dropsite.sol\":996:997  0 */\n      0x00\n        /* \"ERC1155_Dropsite.sol\":982:998  to != address(0) */\n      0xffffffffffffffffffffffffffffffffffffffff\n      and\n        /* \"ERC1155_Dropsite.sol\":982:984  to */\n      dup5\n        /* \"ERC1155_Dropsite.sol\":982:998  to != address(0) */\n      0xffffffffffffffffffffffffffffffffffffffff\n      and\n      eq\n      iszero\n        /* \"ERC1155_Dropsite.sol\":974:1036  require(to != address(0), \"ERC1155: mint to the zero address\") */\n      tag_112\n      jumpi\n      mload(0x40)\n      0x08c379a000000000000000000000000000000000000000000000000000000000\n      dup2\n      mstore\n      0x04\n      add\n      tag_113\n      swap1\n      tag_114\n      jump\t// in\n    tag_113:\n      mload(0x40)\n      dup1\n      swap2\n      sub\n      swap1\n      revert\n    tag_112:\n        /* \"ERC1155_Dropsite.sol\":1047:1063  address operator */\n      0x00\n        /* \"ERC1155_Dropsite.sol\":1066:1078  _msgSender() */\n      tag_115\n        /* \"ERC1155_Dropsite.sol\":1066:1076  _msgSender */\n      tag_42\n        /* \"ERC1155_Dropsite.sol\":1066:1078  _msgSender() */\n      jump\t// in\n    tag_115:\n        /* \"ERC1155_Dropsite.sol\":1047:1078  address operator = _msgSender() */\n      swap1\n      pop\n        /* \"ERC1155_Dropsite.sol\":1089:1191  _beforeTokenTransfer(operator, address(0), to, _asSingletonArray(id), _asSingletonArray(amount), data) */\n      tag_116\n        /* \"ERC1155_Dropsite.sol\":1110:1118  operator */\n      dup2\n        /* \"ERC1155_Dropsite.sol\":1128:1129  0 */\n      0x00\n        /* \"ERC1155_Dropsite.sol\":1132:1134  to */\n      dup8\n        /* \"ERC1155_Dropsite.sol\":1136:1157  _asSingletonArray(id) */\n      tag_117\n        /* \"ERC1155_Dropsite.sol\":1154:1156  id */\n      dup9\n        /* \"ERC1155_Dropsite.sol\":1136:1153  _asSingletonArray */\n      tag_118\n        /* \"ERC1155_Dropsite.sol\":1136:1157  _asSingletonArray(id) */\n      jump\t// in\n    tag_117:\n        /* \"ERC1155_Dropsite.sol\":1159:1184  _asSingletonArray(amount) */\n      tag_119\n        /* \"ERC1155_Dropsite.sol\":1177:1183  amount */\n      dup9\n        /* \"ERC1155_Dropsite.sol\":1159:1176  _asSingletonArray */\n      tag_118\n        /* \"ERC1155_Dropsite.sol\":1159:1184  _asSingletonArray(amount) */\n      jump\t// in\n    tag_119:\n        /* \"ERC1155_Dropsite.sol\":1186:1190  data */\n      dup8\n        /* \"ERC1155_Dropsite.sol\":1089:1109  _beforeTokenTransfer */\n      tag_120\n        /* \"ERC1155_Dropsite.sol\":1089:1191  _beforeTokenTransfer(operator, address(0), to, _asSingletonArray(id), _asSingletonArray(amount), data) */\n      jump\t// in\n    tag_116:\n        /* \"ERC1155_Dropsite.sol\":1222:1228  amount */\n      dup3\n        /* \"ERC1155_Dropsite.sol\":1201:1210  _balances */\n      0x00\n        /* \"ERC1155_Dropsite.sol\":1201:1214  _balances[id] */\n      dup1\n        /* \"ERC1155_Dropsite.sol\":1211:1213  id */\n      dup7\n        /* \"ERC1155_Dropsite.sol\":1201:1214  _balances[id] */\n      dup2\n      mstore\n      0x20\n      add\n      swap1\n      dup2\n      mstore\n      0x20\n      add\n      0x00\n      keccak256\n        /* \"ERC1155_Dropsite.sol\":1201:1218  _balances[id][to] */\n      0x00\n        /* \"ERC1155_Dropsite.sol\":1215:1217  to */\n      dup8\n        /* \"ERC1155_Dropsite.sol\":1201:1218  _balances[id][to] */\n      0xffffffffffffffffffffffffffffffffffffffff\n      and\n      0xffffffffffffffffffffffffffffffffffffffff\n      and\n      dup2\n      mstore\n      0x20\n      add\n      swap1\n      dup2\n      mstore\n      0x20\n      add\n      0x00\n      keccak256\n      0x00\n        /* \"ERC1155_Dropsite.sol\":1201:1228  _balances[id][to] += amount */\n      dup3\n      dup3\n      sload\n      tag_121\n      swap2\n      swap1\n      tag_122\n      jump\t// in\n    tag_121:\n      swap3\n      pop\n      pop\n      dup2\n      swap1\n      sstore\n      pop\n        /* \"ERC1155_Dropsite.sol\":1280:1282  to */\n      dup5\n        /* \"ERC1155_Dropsite.sol\":1243:1295  TransferSingle(operator, address(0), to, id, amount) */\n      0xffffffffffffffffffffffffffffffffffffffff\n      and\n        /* \"ERC1155_Dropsite.sol\":1276:1277  0 */\n      0x00\n        /* \"ERC1155_Dropsite.sol\":1243:1295  TransferSingle(operator, address(0), to, id, amount) */\n      0xffffffffffffffffffffffffffffffffffffffff\n      and\n        /* \"ERC1155_Dropsite.sol\":1258:1266  operator */\n      dup3\n        /* \"ERC1155_Dropsite.sol\":1243:1295  TransferSingle(operator, address(0), to, id, amount) */\n      0xffffffffffffffffffffffffffffffffffffffff\n      and\n      0xc3d58168c5ae7397731d063d5bbf3d657854427343f4c083240f7aacaa2d0f62\n        /* \"ERC1155_Dropsite.sol\":1284:1286  id */\n      dup8\n        /* \"ERC1155_Dropsite.sol\":1288:1294  amount */\n      dup8\n        /* \"ERC1155_Dropsite.sol\":1243:1295  TransferSingle(operator, address(0), to, id, amount) */\n      mload(0x40)\n      tag_123\n      swap3\n      swap2\n      swap1\n      tag_124\n      jump\t// in\n    tag_123:\n      mload(0x40)\n      dup1\n      swap2\n      sub\n      swap1\n      log4\n        /* \"ERC1155_Dropsite.sol\":1305:1379  _doSafeTransferAcceptanceCheck(operator, address(0), to, id, amount, data) */\n      tag_125\n        /* \"ERC1155_Dropsite.sol\":1336:1344  operator */\n      dup2\n        /* \"ERC1155_Dropsite.sol\":1354:1355  0 */\n      0x00\n        /* \"ERC1155_Dropsite.sol\":1358:1360  to */\n      dup8\n        /* \"ERC1155_Dropsite.sol\":1362:1364  id */\n      dup8\n        /* \"ERC1155_Dropsite.sol\":1366:1372  amount */\n      dup8\n        /* \"ERC1155_Dropsite.sol\":1374:1378  data */\n      dup8\n        /* \"ERC1155_Dropsite.sol\":1305:1335  _doSafeTransferAcceptanceCheck */\n      tag_126\n        /* \"ERC1155_Dropsite.sol\":1305:1379  _doSafeTransferAcceptanceCheck(operator, address(0), to, id, amount, data) */\n      jump\t// in\n    tag_125:\n        /* \"ERC1155_Dropsite.sol\":964:1386  {... */\n      pop\n        /* \"ERC1155_Dropsite.sol\":835:1386  function _mint(... */\n      pop\n      pop\n      pop\n      pop\n      jump\t// out\n        /* \"ERC1155_Dropsite.sol\":2344:2537  function _asSingletonArray(uint256 element) private pure returns (uint256[] memory) {... */\n    tag_118:\n        /* \"ERC1155_Dropsite.sol\":2410:2426  uint256[] memory */\n      0x60\n        /* \"ERC1155_Dropsite.sol\":2438:2460  uint256[] memory array */\n      0x00\n        /* \"ERC1155_Dropsite.sol\":2477:2478  1 */\n      0x01\n        /* \"ERC1155_Dropsite.sol\":2463:2479  new uint256[](1) */\n      0xffffffffffffffff\n      dup2\n      gt\n      iszero\n      tag_128\n      jumpi\n      tag_129\n      tag_130\n      jump\t// in\n    tag_129:\n    tag_128:\n      mload(0x40)\n      swap1\n      dup1\n      dup3\n      mstore\n      dup1\n      0x20\n      mul\n      0x20\n      add\n      dup3\n      add\n      0x40\n      mstore\n      dup1\n      iszero\n      tag_131\n      jumpi\n      dup2\n      0x20\n      add\n      0x20\n      dup3\n      mul\n      dup1\n      calldatasize\n      dup4\n      calldatacopy\n      dup1\n      dup3\n      add\n      swap2\n      pop\n      pop\n      swap1\n      pop\n    tag_131:\n      pop\n        /* \"ERC1155_Dropsite.sol\":2438:2479  uint256[] memory array = new uint256[](1) */\n      swap1\n      pop\n        /* \"ERC1155_Dropsite.sol\":2500:2507  element */\n      dup3\n        /* \"ERC1155_Dropsite.sol\":2489:2494  array */\n      dup2\n        /* \"ERC1155_Dropsite.sol\":2495:2496  0 */\n      0x00\n        /* \"ERC1155_Dropsite.sol\":2489:2497  array[0] */\n      dup2\n      mload\n      dup2\n      lt\n      tag_132\n      jumpi\n      tag_133\n      tag_134\n      jump\t// in\n    tag_133:\n    tag_132:\n      0x20\n      mul\n      0x20\n      add\n      add\n        /* \"ERC1155_Dropsite.sol\":2489:2507  array[0] = element */\n      dup2\n      dup2\n      mstore\n      pop\n      pop\n        /* \"ERC1155_Dropsite.sol\":2525:2530  array */\n      dup1\n        /* \"ERC1155_Dropsite.sol\":2518:2530  return array */\n      swap2\n      pop\n      pop\n        /* \"ERC1155_Dropsite.sol\":2344:2537  function _asSingletonArray(uint256 element) private pure returns (uint256[] memory) {... */\n      swap2\n      swap1\n      pop\n      jump\t// out\n        /* \"ERC1155_Dropsite.sol\":1393:1607  function _beforeTokenTransfer(... */\n    tag_120:\n      pop\n      pop\n      pop\n      pop\n      pop\n      pop\n      jump\t// out\n        /* \"ERC1155_Dropsite.sol\":1613:2338  function _doSafeTransferAcceptanceCheck(... */\n    tag_126:\n        /* \"ERC1155_Dropsite.sol\":1820:1835  to.isContract() */\n      tag_137\n        /* \"ERC1155_Dropsite.sol\":1820:1822  to */\n      dup5\n        /* \"ERC1155_Dropsite.sol\":1820:1833  to.isContract */\n      0xffffffffffffffffffffffffffffffffffffffff\n      and\n      tag_138\n        /* \"ERC1155_Dropsite.sol\":1820:1835  to.isContract() */\n      jump\t// in\n    tag_137:\n        /* \"ERC1155_Dropsite.sol\":1816:2332  if (to.isContract()) {... */\n      iszero\n      tag_139\n      jumpi\n        /* \"ERC1155_Dropsite.sol\":1872:1874  to */\n      dup4\n        /* \"ERC1155_Dropsite.sol\":1855:1893  IERC1155Receiver(to).onERC1155Received */\n      0xffffffffffffffffffffffffffffffffffffffff\n      and\n      0xf23a6e61\n        /* \"ERC1155_Dropsite.sol\":1894:1902  operator */\n      dup8\n        /* \"ERC1155_Dropsite.sol\":1904:1908  from */\n      dup8\n        /* \"ERC1155_Dropsite.sol\":1910:1912  id */\n      dup7\n        /* \"ERC1155_Dropsite.sol\":1914:1920  amount */\n      dup7\n        /* \"ERC1155_Dropsite.sol\":1922:1926  data */\n      dup7\n        /* \"ERC1155_Dropsite.sol\":1855:1927  IERC1155Receiver(to).onERC1155Received(operator, from, id, amount, data) */\n      mload(0x40)\n      dup7\n      0xffffffff\n      and\n      0xe0\n      shl\n      dup2\n      mstore\n      0x04\n      add\n      tag_140\n      swap6\n      swap5\n      swap4\n      swap3\n      swap2\n      swap1\n      tag_141\n      jump\t// in\n    tag_140:\n      0x20\n      mload(0x40)\n      dup1\n      dup4\n      sub\n      dup2\n      0x00\n      dup8\n      dup1\n      extcodesize\n      iszero\n      dup1\n      iszero\n      tag_142\n      jumpi\n      0x00\n      dup1\n      revert\n    tag_142:\n      pop\n      gas\n      call\n      swap3\n      pop\n      pop\n      pop\n      dup1\n      iszero\n      tag_143\n      jumpi\n      pop\n      mload(0x40)\n      returndatasize\n      not(0x1f)\n      0x1f\n      dup3\n      add\n      and\n      dup3\n      add\n      dup1\n      0x40\n      mstore\n      pop\n      dup2\n      add\n      swap1\n      tag_144\n      swap2\n      swap1\n      tag_145\n      jump\t// in\n    tag_144:\n      0x01\n    tag_143:\n        /* \"ERC1155_Dropsite.sol\":1851:2322  try IERC1155Receiver(to).onERC1155Received(operator, from, id, amount, data) returns (bytes4 response) {... */\n      tag_146\n      jumpi\n      tag_150\n      tag_151\n      jump\t// in\n    tag_150:\n      dup1\n      0x08c379a0\n      eq\n      iszero\n      tag_149\n      jumpi\n      pop\n      tag_152\n      tag_153\n      jump\t// in\n    tag_152:\n      dup1\n      tag_154\n      jumpi\n      pop\n      jump(tag_148)\n    tag_154:\n        /* \"ERC1155_Dropsite.sol\":2198:2204  reason */\n      dup1\n        /* \"ERC1155_Dropsite.sol\":2191:2205  revert(reason) */\n      mload(0x40)\n      0x08c379a000000000000000000000000000000000000000000000000000000000\n      dup2\n      mstore\n      0x04\n      add\n      tag_155\n      swap2\n      swap1\n      tag_156\n      jump\t// in\n    tag_155:\n      mload(0x40)\n      dup1\n      swap2\n      sub\n      swap1\n      revert\n        /* \"ERC1155_Dropsite.sol\":1851:2322  try IERC1155Receiver(to).onERC1155Received(operator, from, id, amount, data) returns (bytes4 response) {... */\n    tag_149:\n      pop\n    tag_148:\n        /* \"ERC1155_Dropsite.sol\":2245:2307  revert(\"ERC1155: transfer to non ERC1155Receiver implementer\") */\n      mload(0x40)\n      0x08c379a000000000000000000000000000000000000000000000000000000000\n      dup2\n      mstore\n      0x04\n      add\n      tag_157\n      swap1\n      tag_158\n      jump\t// in\n    tag_157:\n      mload(0x40)\n      dup1\n      swap2\n      sub\n      swap1\n      revert\n        /* \"ERC1155_Dropsite.sol\":1851:2322  try IERC1155Receiver(to).onERC1155Received(operator, from, id, amount, data) returns (bytes4 response) {... */\n    tag_146:\n        /* \"ERC1155_Dropsite.sol\":1988:2031  IERC1155Receiver.onERC1155Received.selector */\n      shl(0xe0, 0xf23a6e61)\n        /* \"ERC1155_Dropsite.sol\":1976:2031  response != IERC1155Receiver.onERC1155Received.selector */\n      not(0xffffffffffffffffffffffffffffffffffffffffffffffffffffffff)\n      and\n        /* \"ERC1155_Dropsite.sol\":1976:1984  response */\n      dup2\n        /* \"ERC1155_Dropsite.sol\":1976:2031  response != IERC1155Receiver.onERC1155Received.selector */\n      not(0xffffffffffffffffffffffffffffffffffffffffffffffffffffffff)\n      and\n      eq\n        /* \"ERC1155_Dropsite.sol\":1972:2124  if (response != IERC1155Receiver.onERC1155Received.selector) {... */\n      tag_160\n      jumpi\n        /* \"ERC1155_Dropsite.sol\":2055:2105  revert(\"ERC1155: ERC1155Receiver rejected tokens\") */\n      mload(0x40)\n      0x08c379a000000000000000000000000000000000000000000000000000000000\n      dup2\n      mstore\n      0x04\n      add\n      tag_161\n      swap1\n      tag_162\n      jump\t// in\n    tag_161:\n      mload(0x40)\n      dup1\n      swap2\n      sub\n      swap1\n      revert\n        /* \"ERC1155_Dropsite.sol\":1972:2124  if (response != IERC1155Receiver.onERC1155Received.selector) {... */\n    tag_160:\n        /* \"ERC1155_Dropsite.sol\":1928:2138  returns (bytes4 response) {... */\n      pop\n        /* \"ERC1155_Dropsite.sol\":1816:2332  if (to.isContract()) {... */\n    tag_139:\n        /* \"ERC1155_Dropsite.sol\":1613:2338  function _doSafeTransferAcceptanceCheck(... */\n      pop\n      pop\n      pop\n      pop\n      pop\n      pop\n      jump\t// out\n        /* \"Address.sol\":771:1148  function isContract(address account) internal view returns (bool) {... */\n    tag_138:\n        /* \"Address.sol\":831:835  bool */\n      0x00\n        /* \"Address.sol\":1034:1046  uint256 size */\n      dup1\n        /* \"Address.sol\":1099:1106  account */\n      dup3\n        /* \"Address.sol\":1087:1107  extcodesize(account) */\n      extcodesize\n        /* \"Address.sol\":1079:1107  size := extcodesize(account) */\n      swap1\n      pop\n        /* \"Address.sol\":1140:1141  0 */\n      0x00\n        /* \"Address.sol\":1133:1137  size */\n      dup2\n        /* \"Address.sol\":1133:1141  size > 0 */\n      gt\n        /* \"Address.sol\":1126:1141  return size > 0 */\n      swap2\n      pop\n      pop\n        /* \"Address.sol\":771:1148  function isContract(address account) internal view returns (bool) {... */\n      swap2\n      swap1\n      pop\n      jump\t// out\n    tag_65:\n      dup3\n      dup1\n      sload\n      tag_164\n      swap1\n      tag_89\n      jump\t// in\n    tag_164:\n      swap1\n      0x00\n      mstore\n      keccak256(0x00, 0x20)\n      swap1\n      0x1f\n      add\n      0x20\n      swap1\n      div\n      dup2\n      add\n      swap3\n      dup3\n      tag_166\n      jumpi\n      0x00\n      dup6\n      sstore\n      jump(tag_165)\n    tag_166:\n      dup3\n      0x1f\n      lt\n      tag_167\n      jumpi\n      dup1\n      mload\n      not(0xff)\n      and\n      dup4\n      dup1\n      add\n      or\n      dup6\n      sstore\n      jump(tag_165)\n    tag_167:\n      dup3\n      dup1\n      add\n      0x01\n      add\n      dup6\n      sstore\n      dup3\n      iszero\n      tag_165\n      jumpi\n      swap2\n      dup3\n      add\n    tag_168:\n      dup3\n      dup2\n      gt\n      iszero\n      tag_169\n      jumpi\n      dup3\n      mload\n      dup3\n      sstore\n      swap2\n      0x20\n      add\n      swap2\n      swap1\n      0x01\n      add\n      swap1\n      jump(tag_168)\n    tag_169:\n    tag_165:\n      pop\n      swap1\n      pop\n      tag_170\n      swap2\n      swap1\n      tag_171\n      jump\t// in\n    tag_170:\n      pop\n      swap1\n      jump\t// out\n    tag_171:\n    tag_172:\n      dup1\n      dup3\n      gt\n      iszero\n      tag_173\n      jumpi\n      0x00\n      dup2\n      0x00\n      swap1\n      sstore\n      pop\n      0x01\n      add\n      jump(tag_172)\n    tag_173:\n      pop\n      swap1\n      jump\t// out\n        /* \"#utility.yul\":7:146   */\n    tag_175:\n        /* \"#utility.yul\":53:58   */\n      0x00\n        /* \"#utility.yul\":91:97   */\n      dup2\n        /* \"#utility.yul\":78:98   */\n      calldataload\n        /* \"#utility.yul\":69:98   */\n      swap1\n      pop\n        /* \"#utility.yul\":107:140   */\n      tag_177\n        /* \"#utility.yul\":134:139   */\n      dup2\n        /* \"#utility.yul\":107:140   */\n      tag_178\n      jump\t// in\n    tag_177:\n        /* \"#utility.yul\":7:146   */\n      swap3\n      swap2\n      pop\n      pop\n      jump\t// out\n        /* \"#utility.yul\":152:293   */\n    tag_179:\n        /* \"#utility.yul\":208:213   */\n      0x00\n        /* \"#utility.yul\":239:245   */\n      dup2\n        /* \"#utility.yul\":233:246   */\n      mload\n        /* \"#utility.yul\":224:246   */\n      swap1\n      pop\n        /* \"#utility.yul\":255:287   */\n      tag_181\n        /* \"#utility.yul\":281:286   */\n      dup2\n        /* \"#utility.yul\":255:287   */\n      tag_182\n      jump\t// in\n    tag_181:\n        /* \"#utility.yul\":152:293   */\n      swap3\n      swap2\n      pop\n      pop\n      jump\t// out\n        /* \"#utility.yul\":299:628   */\n    tag_37:\n        /* \"#utility.yul\":358:364   */\n      0x00\n        /* \"#utility.yul\":407:409   */\n      0x20\n        /* \"#utility.yul\":395:404   */\n      dup3\n        /* \"#utility.yul\":386:393   */\n      dup5\n        /* \"#utility.yul\":382:405   */\n      sub\n        /* \"#utility.yul\":378:410   */\n      slt\n        /* \"#utility.yul\":375:494   */\n      iszero\n      tag_184\n      jumpi\n        /* \"#utility.yul\":413:492   */\n      tag_185\n      tag_186\n      jump\t// in\n    tag_185:\n        /* \"#utility.yul\":375:494   */\n    tag_184:\n        /* \"#utility.yul\":533:534   */\n      0x00\n        /* \"#utility.yul\":558:611   */\n      tag_187\n        /* \"#utility.yul\":603:610   */\n      dup5\n        /* \"#utility.yul\":594:600   */\n      dup3\n        /* \"#utility.yul\":583:592   */\n      dup6\n        /* \"#utility.yul\":579:601   */\n      add\n        /* \"#utility.yul\":558:611   */\n      tag_175\n      jump\t// in\n    tag_187:\n        /* \"#utility.yul\":548:611   */\n      swap2\n      pop\n        /* \"#utility.yul\":504:621   */\n      pop\n        /* \"#utility.yul\":299:628   */\n      swap3\n      swap2\n      pop\n      pop\n      jump\t// out\n        /* \"#utility.yul\":634:983   */\n    tag_145:\n        /* \"#utility.yul\":703:709   */\n      0x00\n        /* \"#utility.yul\":752:754   */\n      0x20\n        /* \"#utility.yul\":740:749   */\n      dup3\n        /* \"#utility.yul\":731:738   */\n      dup5\n        /* \"#utility.yul\":727:750   */\n      sub\n        /* \"#utility.yul\":723:755   */\n      slt\n        /* \"#utility.yul\":720:839   */\n      iszero\n      tag_189\n      jumpi\n        /* \"#utility.yul\":758:837   */\n      tag_190\n      tag_186\n      jump\t// in\n    tag_190:\n        /* \"#utility.yul\":720:839   */\n    tag_189:\n        /* \"#utility.yul\":878:879   */\n      0x00\n        /* \"#utility.yul\":903:966   */\n      tag_191\n        /* \"#utility.yul\":958:965   */\n      dup5\n        /* \"#utility.yul\":949:955   */\n      dup3\n        /* \"#utility.yul\":938:947   */\n      dup6\n        /* \"#utility.yul\":934:956   */\n      add\n        /* \"#utility.yul\":903:966   */\n      tag_179\n      jump\t// in\n    tag_191:\n        /* \"#utility.yul\":893:966   */\n      swap2\n      pop\n        /* \"#utility.yul\":849:976   */\n      pop\n        /* \"#utility.yul\":634:983   */\n      swap3\n      swap2\n      pop\n      pop\n      jump\t// out\n        /* \"#utility.yul\":989:1131   */\n    tag_192:\n        /* \"#utility.yul\":1092:1124   */\n      tag_194\n        /* \"#utility.yul\":1118:1123   */\n      dup2\n        /* \"#utility.yul\":1092:1124   */\n      tag_195\n      jump\t// in\n    tag_194:\n        /* \"#utility.yul\":1087:1090   */\n      dup3\n        /* \"#utility.yul\":1080:1125   */\n      mstore\n        /* \"#utility.yul\":989:1131   */\n      pop\n      pop\n      jump\t// out\n        /* \"#utility.yul\":1137:1255   */\n    tag_196:\n        /* \"#utility.yul\":1224:1248   */\n      tag_198\n        /* \"#utility.yul\":1242:1247   */\n      dup2\n        /* \"#utility.yul\":1224:1248   */\n      tag_199\n      jump\t// in\n    tag_198:\n        /* \"#utility.yul\":1219:1222   */\n      dup3\n        /* \"#utility.yul\":1212:1249   */\n      mstore\n        /* \"#utility.yul\":1137:1255   */\n      pop\n      pop\n      jump\t// out\n        /* \"#utility.yul\":1261:1418   */\n    tag_200:\n        /* \"#utility.yul\":1366:1411   */\n      tag_202\n        /* \"#utility.yul\":1386:1410   */\n      tag_203\n        /* \"#utility.yul\":1404:1409   */\n      dup3\n        /* \"#utility.yul\":1386:1410   */\n      tag_199\n      jump\t// in\n    tag_203:\n        /* \"#utility.yul\":1366:1411   */\n      tag_204\n      jump\t// in\n    tag_202:\n        /* \"#utility.yul\":1361:1364   */\n      dup3\n        /* \"#utility.yul\":1354:1412   */\n      mstore\n        /* \"#utility.yul\":1261:1418   */\n      pop\n      pop\n      jump\t// out\n        /* \"#utility.yul\":1424:1533   */\n    tag_205:\n        /* \"#utility.yul\":1505:1526   */\n      tag_207\n        /* \"#utility.yul\":1520:1525   */\n      dup2\n        /* \"#utility.yul\":1505:1526   */\n      tag_208\n      jump\t// in\n    tag_207:\n        /* \"#utility.yul\":1500:1503   */\n      dup3\n        /* \"#utility.yul\":1493:1527   */\n      mstore\n        /* \"#utility.yul\":1424:1533   */\n      pop\n      pop\n      jump\t// out\n        /* \"#utility.yul\":1539:1899   */\n    tag_209:\n        /* \"#utility.yul\":1625:1628   */\n      0x00\n        /* \"#utility.yul\":1653:1691   */\n      tag_211\n        /* \"#utility.yul\":1685:1690   */\n      dup3\n        /* \"#utility.yul\":1653:1691   */\n      tag_212\n      jump\t// in\n    tag_211:\n        /* \"#utility.yul\":1707:1777   */\n      tag_213\n        /* \"#utility.yul\":1770:1776   */\n      dup2\n        /* \"#utility.yul\":1765:1768   */\n      dup6\n        /* \"#utility.yul\":1707:1777   */\n      tag_214\n      jump\t// in\n    tag_213:\n        /* \"#utility.yul\":1700:1777   */\n      swap4\n      pop\n        /* \"#utility.yul\":1786:1838   */\n      tag_215\n        /* \"#utility.yul\":1831:1837   */\n      dup2\n        /* \"#utility.yul\":1826:1829   */\n      dup6\n        /* \"#utility.yul\":1819:1823   */\n      0x20\n        /* \"#utility.yul\":1812:1817   */\n      dup7\n        /* \"#utility.yul\":1808:1824   */\n      add\n        /* \"#utility.yul\":1786:1838   */\n      tag_216\n      jump\t// in\n    tag_215:\n        /* \"#utility.yul\":1863:1892   */\n      tag_217\n        /* \"#utility.yul\":1885:1891   */\n      dup2\n        /* \"#utility.yul\":1863:1892   */\n      tag_218\n      jump\t// in\n    tag_217:\n        /* \"#utility.yul\":1858:1861   */\n      dup5\n        /* \"#utility.yul\":1854:1893   */\n      add\n        /* \"#utility.yul\":1847:1893   */\n      swap2\n      pop\n        /* \"#utility.yul\":1629:1899   */\n      pop\n        /* \"#utility.yul\":1539:1899   */\n      swap3\n      swap2\n      pop\n      pop\n      jump\t// out\n        /* \"#utility.yul\":1905:2269   */\n    tag_219:\n        /* \"#utility.yul\":1993:1996   */\n      0x00\n        /* \"#utility.yul\":2021:2060   */\n      tag_221\n        /* \"#utility.yul\":2054:2059   */\n      dup3\n        /* \"#utility.yul\":2021:2060   */\n      tag_222\n      jump\t// in\n    tag_221:\n        /* \"#utility.yul\":2076:2147   */\n      tag_223\n        /* \"#utility.yul\":2140:2146   */\n      dup2\n        /* \"#utility.yul\":2135:2138   */\n      dup6\n        /* \"#utility.yul\":2076:2147   */\n      tag_224\n      jump\t// in\n    tag_223:\n        /* \"#utility.yul\":2069:2147   */\n      swap4\n      pop\n        /* \"#utility.yul\":2156:2208   */\n      tag_225\n        /* \"#utility.yul\":2201:2207   */\n      dup2\n        /* \"#utility.yul\":2196:2199   */\n      dup6\n        /* \"#utility.yul\":2189:2193   */\n      0x20\n        /* \"#utility.yul\":2182:2187   */\n      dup7\n        /* \"#utility.yul\":2178:2194   */\n      add\n        /* \"#utility.yul\":2156:2208   */\n      tag_216\n      jump\t// in\n    tag_225:\n        /* \"#utility.yul\":2233:2262   */\n      tag_226\n        /* \"#utility.yul\":2255:2261   */\n      dup2\n        /* \"#utility.yul\":2233:2262   */\n      tag_218\n      jump\t// in\n    tag_226:\n        /* \"#utility.yul\":2228:2231   */\n      dup5\n        /* \"#utility.yul\":2224:2263   */\n      add\n        /* \"#utility.yul\":2217:2263   */\n      swap2\n      pop\n        /* \"#utility.yul\":1997:2269   */\n      pop\n        /* \"#utility.yul\":1905:2269   */\n      swap3\n      swap2\n      pop\n      pop\n      jump\t// out\n        /* \"#utility.yul\":2275:2641   */\n    tag_227:\n        /* \"#utility.yul\":2417:2420   */\n      0x00\n        /* \"#utility.yul\":2438:2505   */\n      tag_229\n        /* \"#utility.yul\":2502:2504   */\n      0x34\n        /* \"#utility.yul\":2497:2500   */\n      dup4\n        /* \"#utility.yul\":2438:2505   */\n      tag_224\n      jump\t// in\n    tag_229:\n        /* \"#utility.yul\":2431:2505   */\n      swap2\n      pop\n        /* \"#utility.yul\":2514:2607   */\n      tag_230\n        /* \"#utility.yul\":2603:2606   */\n      dup3\n        /* \"#utility.yul\":2514:2607   */\n      tag_231\n      jump\t// in\n    tag_230:\n        /* \"#utility.yul\":2632:2634   */\n      0x40\n        /* \"#utility.yul\":2627:2630   */\n      dup3\n        /* \"#utility.yul\":2623:2635   */\n      add\n        /* \"#utility.yul\":2616:2635   */\n      swap1\n      pop\n        /* \"#utility.yul\":2275:2641   */\n      swap2\n      swap1\n      pop\n      jump\t// out\n        /* \"#utility.yul\":2647:3013   */\n    tag_232:\n        /* \"#utility.yul\":2789:2792   */\n      0x00\n        /* \"#utility.yul\":2810:2877   */\n      tag_234\n        /* \"#utility.yul\":2874:2876   */\n      0x28\n        /* \"#utility.yul\":2869:2872   */\n      dup4\n        /* \"#utility.yul\":2810:2877   */\n      tag_224\n      jump\t// in\n    tag_234:\n        /* \"#utility.yul\":2803:2877   */\n      swap2\n      pop\n        /* \"#utility.yul\":2886:2979   */\n      tag_235\n        /* \"#utility.yul\":2975:2978   */\n      dup3\n        /* \"#utility.yul\":2886:2979   */\n      tag_236\n      jump\t// in\n    tag_235:\n        /* \"#utility.yul\":3004:3006   */\n      0x40\n        /* \"#utility.yul\":2999:3002   */\n      dup3\n        /* \"#utility.yul\":2995:3007   */\n      add\n        /* \"#utility.yul\":2988:3007   */\n      swap1\n      pop\n        /* \"#utility.yul\":2647:3013   */\n      swap2\n      swap1\n      pop\n      jump\t// out\n        /* \"#utility.yul\":3019:3385   */\n    tag_237:\n        /* \"#utility.yul\":3161:3164   */\n      0x00\n        /* \"#utility.yul\":3182:3249   */\n      tag_239\n        /* \"#utility.yul\":3246:3248   */\n      0x1b\n        /* \"#utility.yul\":3241:3244   */\n      dup4\n        /* \"#utility.yul\":3182:3249   */\n      tag_224\n      jump\t// in\n    tag_239:\n        /* \"#utility.yul\":3175:3249   */\n      swap2\n      pop\n        /* \"#utility.yul\":3258:3351   */\n      tag_240\n        /* \"#utility.yul\":3347:3350   */\n      dup3\n        /* \"#utility.yul\":3258:3351   */\n      tag_241\n      jump\t// in\n    tag_240:\n        /* \"#utility.yul\":3376:3378   */\n      0x20\n        /* \"#utility.yul\":3371:3374   */\n      dup3\n        /* \"#utility.yul\":3367:3379   */\n      add\n        /* \"#utility.yul\":3360:3379   */\n      swap1\n      pop\n        /* \"#utility.yul\":3019:3385   */\n      swap2\n      swap1\n      pop\n      jump\t// out\n        /* \"#utility.yul\":3391:3757   */\n    tag_242:\n        /* \"#utility.yul\":3533:3536   */\n      0x00\n        /* \"#utility.yul\":3554:3621   */\n      tag_244\n        /* \"#utility.yul\":3618:3620   */\n      0x1b\n        /* \"#utility.yul\":3613:3616   */\n      dup4\n        /* \"#utility.yul\":3554:3621   */\n      tag_224\n      jump\t// in\n    tag_244:\n        /* \"#utility.yul\":3547:3621   */\n      swap2\n      pop\n        /* \"#utility.yul\":3630:3723   */\n      tag_245\n        /* \"#utility.yul\":3719:3722   */\n      dup3\n        /* \"#utility.yul\":3630:3723   */\n      tag_246\n      jump\t// in\n    tag_245:\n        /* \"#utility.yul\":3748:3750   */\n      0x20\n        /* \"#utility.yul\":3743:3746   */\n      dup3\n        /* \"#utility.yul\":3739:3751   */\n      add\n        /* \"#utility.yul\":3732:3751   */\n      swap1\n      pop\n        /* \"#utility.yul\":3391:3757   */\n      swap2\n      swap1\n      pop\n      jump\t// out\n        /* \"#utility.yul\":3763:4129   */\n    tag_247:\n        /* \"#utility.yul\":3905:3908   */\n      0x00\n        /* \"#utility.yul\":3926:3993   */\n      tag_249\n        /* \"#utility.yul\":3990:3992   */\n      0x18\n        /* \"#utility.yul\":3985:3988   */\n      dup4\n        /* \"#utility.yul\":3926:3993   */\n      tag_224\n      jump\t// in\n    tag_249:\n        /* \"#utility.yul\":3919:3993   */\n      swap2\n      pop\n        /* \"#utility.yul\":4002:4095   */\n      tag_250\n        /* \"#utility.yul\":4091:4094   */\n      dup3\n        /* \"#utility.yul\":4002:4095   */\n      tag_251\n      jump\t// in\n    tag_250:\n        /* \"#utility.yul\":4120:4122   */\n      0x20\n        /* \"#utility.yul\":4115:4118   */\n      dup3\n        /* \"#utility.yul\":4111:4123   */\n      add\n        /* \"#utility.yul\":4104:4123   */\n      swap1\n      pop\n        /* \"#utility.yul\":3763:4129   */\n      swap2\n      swap1\n      pop\n      jump\t// out\n        /* \"#utility.yul\":4135:4501   */\n    tag_252:\n        /* \"#utility.yul\":4277:4280   */\n      0x00\n        /* \"#utility.yul\":4298:4365   */\n      tag_254\n        /* \"#utility.yul\":4362:4364   */\n      0x12\n        /* \"#utility.yul\":4357:4360   */\n      dup4\n        /* \"#utility.yul\":4298:4365   */\n      tag_224\n      jump\t// in\n    tag_254:\n        /* \"#utility.yul\":4291:4365   */\n      swap2\n      pop\n        /* \"#utility.yul\":4374:4467   */\n      tag_255\n        /* \"#utility.yul\":4463:4466   */\n      dup3\n        /* \"#utility.yul\":4374:4467   */\n      tag_256\n      jump\t// in\n    tag_255:\n        /* \"#utility.yul\":4492:4494   */\n      0x20\n        /* \"#utility.yul\":4487:4490   */\n      dup3\n        /* \"#utility.yul\":4483:4495   */\n      add\n        /* \"#utility.yul\":4476:4495   */\n      swap1\n      pop\n        /* \"#utility.yul\":4135:4501   */\n      swap2\n      swap1\n      pop\n      jump\t// out\n        /* \"#utility.yul\":4507:4873   */\n    tag_257:\n        /* \"#utility.yul\":4649:4652   */\n      0x00\n        /* \"#utility.yul\":4670:4737   */\n      tag_259\n        /* \"#utility.yul\":4734:4736   */\n      0x21\n        /* \"#utility.yul\":4729:4732   */\n      dup4\n        /* \"#utility.yul\":4670:4737   */\n      tag_224\n      jump\t// in\n    tag_259:\n        /* \"#utility.yul\":4663:4737   */\n      swap2\n      pop\n        /* \"#utility.yul\":4746:4839   */\n      tag_260\n        /* \"#utility.yul\":4835:4838   */\n      dup3\n        /* \"#utility.yul\":4746:4839   */\n      tag_261\n      jump\t// in\n    tag_260:\n        /* \"#utility.yul\":4864:4866   */\n      0x40\n        /* \"#utility.yul\":4859:4862   */\n      dup3\n        /* \"#utility.yul\":4855:4867   */\n      add\n        /* \"#utility.yul\":4848:4867   */\n      swap1\n      pop\n        /* \"#utility.yul\":4507:4873   */\n      swap2\n      swap1\n      pop\n      jump\t// out\n        /* \"#utility.yul\":4879:4997   */\n    tag_262:\n        /* \"#utility.yul\":4966:4990   */\n      tag_264\n        /* \"#utility.yul\":4984:4989   */\n      dup2\n        /* \"#utility.yul\":4966:4990   */\n      tag_265\n      jump\t// in\n    tag_264:\n        /* \"#utility.yul\":4961:4964   */\n      dup3\n        /* \"#utility.yul\":4954:4991   */\n      mstore\n        /* \"#utility.yul\":4879:4997   */\n      pop\n      pop\n      jump\t// out\n        /* \"#utility.yul\":5003:5160   */\n    tag_266:\n        /* \"#utility.yul\":5108:5153   */\n      tag_268\n        /* \"#utility.yul\":5128:5152   */\n      tag_269\n        /* \"#utility.yul\":5146:5151   */\n      dup3\n        /* \"#utility.yul\":5128:5152   */\n      tag_265\n      jump\t// in\n    tag_269:\n        /* \"#utility.yul\":5108:5153   */\n      tag_270\n      jump\t// in\n    tag_268:\n        /* \"#utility.yul\":5103:5106   */\n      dup3\n        /* \"#utility.yul\":5096:5154   */\n      mstore\n        /* \"#utility.yul\":5003:5160   */\n      pop\n      pop\n      jump\t// out\n        /* \"#utility.yul\":5166:5563   */\n    tag_108:\n        /* \"#utility.yul\":5306:5309   */\n      0x00\n        /* \"#utility.yul\":5321:5396   */\n      tag_272\n        /* \"#utility.yul\":5392:5395   */\n      dup3\n        /* \"#utility.yul\":5383:5389   */\n      dup6\n        /* \"#utility.yul\":5321:5396   */\n      tag_266\n      jump\t// in\n    tag_272:\n        /* \"#utility.yul\":5421:5423   */\n      0x20\n        /* \"#utility.yul\":5416:5419   */\n      dup3\n        /* \"#utility.yul\":5412:5424   */\n      add\n        /* \"#utility.yul\":5405:5424   */\n      swap2\n      pop\n        /* \"#utility.yul\":5434:5509   */\n      tag_273\n        /* \"#utility.yul\":5505:5508   */\n      dup3\n        /* \"#utility.yul\":5496:5502   */\n      dup5\n        /* \"#utility.yul\":5434:5509   */\n      tag_200\n      jump\t// in\n    tag_273:\n        /* \"#utility.yul\":5534:5536   */\n      0x14\n        /* \"#utility.yul\":5529:5532   */\n      dup3\n        /* \"#utility.yul\":5525:5537   */\n      add\n        /* \"#utility.yul\":5518:5537   */\n      swap2\n      pop\n        /* \"#utility.yul\":5554:5557   */\n      dup2\n        /* \"#utility.yul\":5547:5557   */\n      swap1\n      pop\n        /* \"#utility.yul\":5166:5563   */\n      swap4\n      swap3\n      pop\n      pop\n      pop\n      jump\t// out\n        /* \"#utility.yul\":5569:5823   */\n    tag_34:\n        /* \"#utility.yul\":5678:5682   */\n      0x00\n        /* \"#utility.yul\":5716:5718   */\n      0x20\n        /* \"#utility.yul\":5705:5714   */\n      dup3\n        /* \"#utility.yul\":5701:5719   */\n      add\n        /* \"#utility.yul\":5693:5719   */\n      swap1\n      pop\n        /* \"#utility.yul\":5729:5816   */\n      tag_275\n        /* \"#utility.yul\":5813:5814   */\n      0x00\n        /* \"#utility.yul\":5802:5811   */\n      dup4\n        /* \"#utility.yul\":5798:5815   */\n      add\n        /* \"#utility.yul\":5789:5795   */\n      dup5\n        /* \"#utility.yul\":5729:5816   */\n      tag_192\n      jump\t// in\n    tag_275:\n        /* \"#utility.yul\":5569:5823   */\n      swap3\n      swap2\n      pop\n      pop\n      jump\t// out\n        /* \"#utility.yul\":5829:6580   */\n    tag_141:\n        /* \"#utility.yul\":6052:6056   */\n      0x00\n        /* \"#utility.yul\":6090:6093   */\n      0xa0\n        /* \"#utility.yul\":6079:6088   */\n      dup3\n        /* \"#utility.yul\":6075:6094   */\n      add\n        /* \"#utility.yul\":6067:6094   */\n      swap1\n      pop\n        /* \"#utility.yul\":6104:6175   */\n      tag_277\n        /* \"#utility.yul\":6172:6173   */\n      0x00\n        /* \"#utility.yul\":6161:6170   */\n      dup4\n        /* \"#utility.yul\":6157:6174   */\n      add\n        /* \"#utility.yul\":6148:6154   */\n      dup9\n        /* \"#utility.yul\":6104:6175   */\n      tag_196\n      jump\t// in\n    tag_277:\n        /* \"#utility.yul\":6185:6257   */\n      tag_278\n        /* \"#utility.yul\":6253:6255   */\n      0x20\n        /* \"#utility.yul\":6242:6251   */\n      dup4\n        /* \"#utility.yul\":6238:6256   */\n      add\n        /* \"#utility.yul\":6229:6235   */\n      dup8\n        /* \"#utility.yul\":6185:6257   */\n      tag_196\n      jump\t// in\n    tag_278:\n        /* \"#utility.yul\":6267:6339   */\n      tag_279\n        /* \"#utility.yul\":6335:6337   */\n      0x40\n        /* \"#utility.yul\":6324:6333   */\n      dup4\n        /* \"#utility.yul\":6320:6338   */\n      add\n        /* \"#utility.yul\":6311:6317   */\n      dup7\n        /* \"#utility.yul\":6267:6339   */\n      tag_262\n      jump\t// in\n    tag_279:\n        /* \"#utility.yul\":6349:6421   */\n      tag_280\n        /* \"#utility.yul\":6417:6419   */\n      0x60\n        /* \"#utility.yul\":6406:6415   */\n      dup4\n        /* \"#utility.yul\":6402:6420   */\n      add\n        /* \"#utility.yul\":6393:6399   */\n      dup6\n        /* \"#utility.yul\":6349:6421   */\n      tag_262\n      jump\t// in\n    tag_280:\n        /* \"#utility.yul\":6469:6478   */\n      dup2\n        /* \"#utility.yul\":6463:6467   */\n      dup2\n        /* \"#utility.yul\":6459:6479   */\n      sub\n        /* \"#utility.yul\":6453:6456   */\n      0x80\n        /* \"#utility.yul\":6442:6451   */\n      dup4\n        /* \"#utility.yul\":6438:6457   */\n      add\n        /* \"#utility.yul\":6431:6480   */\n      mstore\n        /* \"#utility.yul\":6497:6573   */\n      tag_281\n        /* \"#utility.yul\":6568:6572   */\n      dup2\n        /* \"#utility.yul\":6559:6565   */\n      dup5\n        /* \"#utility.yul\":6497:6573   */\n      tag_209\n      jump\t// in\n    tag_281:\n        /* \"#utility.yul\":6489:6573   */\n      swap1\n      pop\n        /* \"#utility.yul\":5829:6580   */\n      swap7\n      swap6\n      pop\n      pop\n      pop\n      pop\n      pop\n      pop\n      jump\t// out\n        /* \"#utility.yul\":6586:6796   */\n    tag_15:\n        /* \"#utility.yul\":6673:6677   */\n      0x00\n        /* \"#utility.yul\":6711:6713   */\n      0x20\n        /* \"#utility.yul\":6700:6709   */\n      dup3\n        /* \"#utility.yul\":6696:6714   */\n      add\n        /* \"#utility.yul\":6688:6714   */\n      swap1\n      pop\n        /* \"#utility.yul\":6724:6789   */\n      tag_283\n        /* \"#utility.yul\":6786:6787   */\n      0x00\n        /* \"#utility.yul\":6775:6784   */\n      dup4\n        /* \"#utility.yul\":6771:6788   */\n      add\n        /* \"#utility.yul\":6762:6768   */\n      dup5\n        /* \"#utility.yul\":6724:6789   */\n      tag_205\n      jump\t// in\n    tag_283:\n        /* \"#utility.yul\":6586:6796   */\n      swap3\n      swap2\n      pop\n      pop\n      jump\t// out\n        /* \"#utility.yul\":6802:7115   */\n    tag_156:\n        /* \"#utility.yul\":6915:6919   */\n      0x00\n        /* \"#utility.yul\":6953:6955   */\n      0x20\n        /* \"#utility.yul\":6942:6951   */\n      dup3\n        /* \"#utility.yul\":6938:6956   */\n      add\n        /* \"#utility.yul\":6930:6956   */\n      swap1\n      pop\n        /* \"#utility.yul\":7002:7011   */\n      dup2\n        /* \"#utility.yul\":6996:7000   */\n      dup2\n        /* \"#utility.yul\":6992:7012   */\n      sub\n        /* \"#utility.yul\":6988:6989   */\n      0x00\n        /* \"#utility.yul\":6977:6986   */\n      dup4\n        /* \"#utility.yul\":6973:6990   */\n      add\n        /* \"#utility.yul\":6966:7013   */\n      mstore\n        /* \"#utility.yul\":7030:7108   */\n      tag_285\n        /* \"#utility.yul\":7103:7107   */\n      dup2\n        /* \"#utility.yul\":7094:7100   */\n      dup5\n        /* \"#utility.yul\":7030:7108   */\n      tag_219\n      jump\t// in\n    tag_285:\n        /* \"#utility.yul\":7022:7108   */\n      swap1\n      pop\n        /* \"#utility.yul\":6802:7115   */\n      swap3\n      swap2\n      pop\n      pop\n      jump\t// out\n        /* \"#utility.yul\":7121:7540   */\n    tag_158:\n        /* \"#utility.yul\":7287:7291   */\n      0x00\n        /* \"#utility.yul\":7325:7327   */\n      0x20\n        /* \"#utility.yul\":7314:7323   */\n      dup3\n        /* \"#utility.yul\":7310:7328   */\n      add\n        /* \"#utility.yul\":7302:7328   */\n      swap1\n      pop\n        /* \"#utility.yul\":7374:7383   */\n      dup2\n        /* \"#utility.yul\":7368:7372   */\n      dup2\n        /* \"#utility.yul\":7364:7384   */\n      sub\n        /* \"#utility.yul\":7360:7361   */\n      0x00\n        /* \"#utility.yul\":7349:7358   */\n      dup4\n        /* \"#utility.yul\":7345:7362   */\n      add\n        /* \"#utility.yul\":7338:7385   */\n      mstore\n        /* \"#utility.yul\":7402:7533   */\n      tag_287\n        /* \"#utility.yul\":7528:7532   */\n      dup2\n        /* \"#utility.yul\":7402:7533   */\n      tag_227\n      jump\t// in\n    tag_287:\n        /* \"#utility.yul\":7394:7533   */\n      swap1\n      pop\n        /* \"#utility.yul\":7121:7540   */\n      swap2\n      swap1\n      pop\n      jump\t// out\n        /* \"#utility.yul\":7546:7965   */\n    tag_162:\n        /* \"#utility.yul\":7712:7716   */\n      0x00\n        /* \"#utility.yul\":7750:7752   */\n      0x20\n        /* \"#utility.yul\":7739:7748   */\n      dup3\n        /* \"#utility.yul\":7735:7753   */\n      add\n        /* \"#utility.yul\":7727:7753   */\n      swap1\n      pop\n        /* \"#utility.yul\":7799:7808   */\n      dup2\n        /* \"#utility.yul\":7793:7797   */\n      dup2\n        /* \"#utility.yul\":7789:7809   */\n      sub\n        /* \"#utility.yul\":7785:7786   */\n      0x00\n        /* \"#utility.yul\":7774:7783   */\n      dup4\n        /* \"#utility.yul\":7770:7787   */\n      add\n        /* \"#utility.yul\":7763:7810   */\n      mstore\n        /* \"#utility.yul\":7827:7958   */\n      tag_289\n        /* \"#utility.yul\":7953:7957   */\n      dup2\n        /* \"#utility.yul\":7827:7958   */\n      tag_232\n      jump\t// in\n    tag_289:\n        /* \"#utility.yul\":7819:7958   */\n      swap1\n      pop\n        /* \"#utility.yul\":7546:7965   */\n      swap2\n      swap1\n      pop\n      jump\t// out\n        /* \"#utility.yul\":7971:8390   */\n    tag_49:\n        /* \"#utility.yul\":8137:8141   */\n      0x00\n        /* \"#utility.yul\":8175:8177   */\n      0x20\n        /* \"#utility.yul\":8164:8173   */\n      dup3\n        /* \"#utility.yul\":8160:8178   */\n      add\n        /* \"#utility.yul\":8152:8178   */\n      swap1\n      pop\n        /* \"#utility.yul\":8224:8233   */\n      dup2\n        /* \"#utility.yul\":8218:8222   */\n      dup2\n        /* \"#utility.yul\":8214:8234   */\n      sub\n        /* \"#utility.yul\":8210:8211   */\n      0x00\n        /* \"#utility.yul\":8199:8208   */\n      dup4\n        /* \"#utility.yul\":8195:8212   */\n      add\n        /* \"#utility.yul\":8188:8235   */\n      mstore\n        /* \"#utility.yul\":8252:8383   */\n      tag_291\n        /* \"#utility.yul\":8378:8382   */\n      dup2\n        /* \"#utility.yul\":8252:8383   */\n      tag_237\n      jump\t// in\n    tag_291:\n        /* \"#utility.yul\":8244:8383   */\n      swap1\n      pop\n        /* \"#utility.yul\":7971:8390   */\n      swap2\n      swap1\n      pop\n      jump\t// out\n        /* \"#utility.yul\":8396:8815   */\n    tag_104:\n        /* \"#utility.yul\":8562:8566   */\n      0x00\n        /* \"#utility.yul\":8600:8602   */\n      0x20\n        /* \"#utility.yul\":8589:8598   */\n      dup3\n        /* \"#utility.yul\":8585:8603   */\n      add\n        /* \"#utility.yul\":8577:8603   */\n      swap1\n      pop\n        /* \"#utility.yul\":8649:8658   */\n      dup2\n        /* \"#utility.yul\":8643:8647   */\n      dup2\n        /* \"#utility.yul\":8639:8659   */\n      sub\n        /* \"#utility.yul\":8635:8636   */\n      0x00\n        /* \"#utility.yul\":8624:8633   */\n      dup4\n        /* \"#utility.yul\":8620:8637   */\n      add\n        /* \"#utility.yul\":8613:8660   */\n      mstore\n        /* \"#utility.yul\":8677:8808   */\n      tag_293\n        /* \"#utility.yul\":8803:8807   */\n      dup2\n        /* \"#utility.yul\":8677:8808   */\n      tag_242\n      jump\t// in\n    tag_293:\n        /* \"#utility.yul\":8669:8808   */\n      swap1\n      pop\n        /* \"#utility.yul\":8396:8815   */\n      swap2\n      swap1\n      pop\n      jump\t// out\n        /* \"#utility.yul\":8821:9240   */\n    tag_45:\n        /* \"#utility.yul\":8987:8991   */\n      0x00\n        /* \"#utility.yul\":9025:9027   */\n      0x20\n        /* \"#utility.yul\":9014:9023   */\n      dup3\n        /* \"#utility.yul\":9010:9028   */\n      add\n        /* \"#utility.yul\":9002:9028   */\n      swap1\n      pop\n        /* \"#utility.yul\":9074:9083   */\n      dup2\n        /* \"#utility.yul\":9068:9072   */\n      dup2\n        /* \"#utility.yul\":9064:9084   */\n      sub\n        /* \"#utility.yul\":9060:9061   */\n      0x00\n        /* \"#utility.yul\":9049:9058   */\n      dup4\n        /* \"#utility.yul\":9045:9062   */\n      add\n        /* \"#utility.yul\":9038:9085   */\n      mstore\n        /* \"#utility.yul\":9102:9233   */\n      tag_295\n        /* \"#utility.yul\":9228:9232   */\n      dup2\n        /* \"#utility.yul\":9102:9233   */\n      tag_247\n      jump\t// in\n    tag_295:\n        /* \"#utility.yul\":9094:9233   */\n      swap1\n      pop\n        /* \"#utility.yul\":8821:9240   */\n      swap2\n      swap1\n      pop\n      jump\t// out\n        /* \"#utility.yul\":9246:9665   */\n    tag_58:\n        /* \"#utility.yul\":9412:9416   */\n      0x00\n        /* \"#utility.yul\":9450:9452   */\n      0x20\n        /* \"#utility.yul\":9439:9448   */\n      dup3\n        /* \"#utility.yul\":9435:9453   */\n      add\n        /* \"#utility.yul\":9427:9453   */\n      swap1\n      pop\n        /* \"#utility.yul\":9499:9508   */\n      dup2\n        /* \"#utility.yul\":9493:9497   */\n      dup2\n        /* \"#utility.yul\":9489:9509   */\n      sub\n        /* \"#utility.yul\":9485:9486   */\n      0x00\n        /* \"#utility.yul\":9474:9483   */\n      dup4\n        /* \"#utility.yul\":9470:9487   */\n      add\n        /* \"#utility.yul\":9463:9510   */\n      mstore\n        /* \"#utility.yul\":9527:9658   */\n      tag_297\n        /* \"#utility.yul\":9653:9657   */\n      dup2\n        /* \"#utility.yul\":9527:9658   */\n      tag_252\n      jump\t// in\n    tag_297:\n        /* \"#utility.yul\":9519:9658   */\n      swap1\n      pop\n        /* \"#utility.yul\":9246:9665   */\n      swap2\n      swap1\n      pop\n      jump\t// out\n        /* \"#utility.yul\":9671:10090   */\n    tag_114:\n        /* \"#utility.yul\":9837:9841   */\n      0x00\n        /* \"#utility.yul\":9875:9877   */\n      0x20\n        /* \"#utility.yul\":9864:9873   */\n      dup3\n        /* \"#utility.yul\":9860:9878   */\n      add\n        /* \"#utility.yul\":9852:9878   */\n      swap1\n      pop\n        /* \"#utility.yul\":9924:9933   */\n      dup2\n        /* \"#utility.yul\":9918:9922   */\n      dup2\n        /* \"#utility.yul\":9914:9934   */\n      sub\n        /* \"#utility.yul\":9910:9911   */\n      0x00\n        /* \"#utility.yul\":9899:9908   */\n      dup4\n        /* \"#utility.yul\":9895:9912   */\n      add\n        /* \"#utility.yul\":9888:9935   */\n      mstore\n        /* \"#utility.yul\":9952:10083   */\n      tag_299\n        /* \"#utility.yul\":10078:10082   */\n      dup2\n        /* \"#utility.yul\":9952:10083   */\n      tag_257\n      jump\t// in\n    tag_299:\n        /* \"#utility.yul\":9944:10083   */\n      swap1\n      pop\n        /* \"#utility.yul\":9671:10090   */\n      swap2\n      swap1\n      pop\n      jump\t// out\n        /* \"#utility.yul\":10096:10318   */\n    tag_21:\n        /* \"#utility.yul\":10189:10193   */\n      0x00\n        /* \"#utility.yul\":10227:10229   */\n      0x20\n        /* \"#utility.yul\":10216:10225   */\n      dup3\n        /* \"#utility.yul\":10212:10230   */\n      add\n        /* \"#utility.yul\":10204:10230   */\n      swap1\n      pop\n        /* \"#utility.yul\":10240:10311   */\n      tag_301\n        /* \"#utility.yul\":10308:10309   */\n      0x00\n        /* \"#utility.yul\":10297:10306   */\n      dup4\n        /* \"#utility.yul\":10293:10310   */\n      add\n        /* \"#utility.yul\":10284:10290   */\n      dup5\n        /* \"#utility.yul\":10240:10311   */\n      tag_262\n      jump\t// in\n    tag_301:\n        /* \"#utility.yul\":10096:10318   */\n      swap3\n      swap2\n      pop\n      pop\n      jump\t// out\n        /* \"#utility.yul\":10324:10656   */\n    tag_124:\n        /* \"#utility.yul\":10445:10449   */\n      0x00\n        /* \"#utility.yul\":10483:10485   */\n      0x40\n        /* \"#utility.yul\":10472:10481   */\n      dup3\n        /* \"#utility.yul\":10468:10486   */\n      add\n        /* \"#utility.yul\":10460:10486   */\n      swap1\n      pop\n        /* \"#utility.yul\":10496:10567   */\n      tag_303\n        /* \"#utility.yul\":10564:10565   */\n      0x00\n        /* \"#utility.yul\":10553:10562   */\n      dup4\n        /* \"#utility.yul\":10549:10566   */\n      add\n        /* \"#utility.yul\":10540:10546   */\n      dup6\n        /* \"#utility.yul\":10496:10567   */\n      tag_262\n      jump\t// in\n    tag_303:\n        /* \"#utility.yul\":10577:10649   */\n      tag_304\n        /* \"#utility.yul\":10645:10647   */\n      0x20\n        /* \"#utility.yul\":10634:10643   */\n      dup4\n        /* \"#utility.yul\":10630:10648   */\n      add\n        /* \"#utility.yul\":10621:10627   */\n      dup5\n        /* \"#utility.yul\":10577:10649   */\n      tag_262\n      jump\t// in\n    tag_304:\n        /* \"#utility.yul\":10324:10656   */\n      swap4\n      swap3\n      pop\n      pop\n      pop\n      jump\t// out\n        /* \"#utility.yul\":10662:11104   */\n    tag_25:\n        /* \"#utility.yul\":10811:10815   */\n      0x00\n        /* \"#utility.yul\":10849:10851   */\n      0x60\n        /* \"#utility.yul\":10838:10847   */\n      dup3\n        /* \"#utility.yul\":10834:10852   */\n      add\n        /* \"#utility.yul\":10826:10852   */\n      swap1\n      pop\n        /* \"#utility.yul\":10862:10933   */\n      tag_306\n        /* \"#utility.yul\":10930:10931   */\n      0x00\n        /* \"#utility.yul\":10919:10928   */\n      dup4\n        /* \"#utility.yul\":10915:10932   */\n      add\n        /* \"#utility.yul\":10906:10912   */\n      dup7\n        /* \"#utility.yul\":10862:10933   */\n      tag_262\n      jump\t// in\n    tag_306:\n        /* \"#utility.yul\":10943:11015   */\n      tag_307\n        /* \"#utility.yul\":11011:11013   */\n      0x20\n        /* \"#utility.yul\":11000:11009   */\n      dup4\n        /* \"#utility.yul\":10996:11014   */\n      add\n        /* \"#utility.yul\":10987:10993   */\n      dup6\n        /* \"#utility.yul\":10943:11015   */\n      tag_262\n      jump\t// in\n    tag_307:\n        /* \"#utility.yul\":11025:11097   */\n      tag_308\n        /* \"#utility.yul\":11093:11095   */\n      0x40\n        /* \"#utility.yul\":11082:11091   */\n      dup4\n        /* \"#utility.yul\":11078:11096   */\n      add\n        /* \"#utility.yul\":11069:11075   */\n      dup5\n        /* \"#utility.yul\":11025:11097   */\n      tag_262\n      jump\t// in\n    tag_308:\n        /* \"#utility.yul\":10662:11104   */\n      swap5\n      swap4\n      pop\n      pop\n      pop\n      pop\n      jump\t// out\n        /* \"#utility.yul\":11110:11185   */\n    tag_309:\n        /* \"#utility.yul\":11143:11149   */\n      0x00\n        /* \"#utility.yul\":11176:11178   */\n      0x40\n        /* \"#utility.yul\":11170:11179   */\n      mload\n        /* \"#utility.yul\":11160:11179   */\n      swap1\n      pop\n        /* \"#utility.yul\":11110:11185   */\n      swap1\n      jump\t// out\n        /* \"#utility.yul\":11191:11289   */\n    tag_212:\n        /* \"#utility.yul\":11242:11248   */\n      0x00\n        /* \"#utility.yul\":11276:11281   */\n      dup2\n        /* \"#utility.yul\":11270:11282   */\n      mload\n        /* \"#utility.yul\":11260:11282   */\n      swap1\n      pop\n        /* \"#utility.yul\":11191:11289   */\n      swap2\n      swap1\n      pop\n      jump\t// out\n        /* \"#utility.yul\":11295:11394   */\n    tag_222:\n        /* \"#utility.yul\":11347:11353   */\n      0x00\n        /* \"#utility.yul\":11381:11386   */\n      dup2\n        /* \"#utility.yul\":11375:11387   */\n      mload\n        /* \"#utility.yul\":11365:11387   */\n      swap1\n      pop\n        /* \"#utility.yul\":11295:11394   */\n      swap2\n      swap1\n      pop\n      jump\t// out\n        /* \"#utility.yul\":11400:11568   */\n    tag_214:\n        /* \"#utility.yul\":11483:11494   */\n      0x00\n        /* \"#utility.yul\":11517:11523   */\n      dup3\n        /* \"#utility.yul\":11512:11515   */\n      dup3\n        /* \"#utility.yul\":11505:11524   */\n      mstore\n        /* \"#utility.yul\":11557:11561   */\n      0x20\n        /* \"#utility.yul\":11552:11555   */\n      dup3\n        /* \"#utility.yul\":11548:11562   */\n      add\n        /* \"#utility.yul\":11533:11562   */\n      swap1\n      pop\n        /* \"#utility.yul\":11400:11568   */\n      swap3\n      swap2\n      pop\n      pop\n      jump\t// out\n        /* \"#utility.yul\":11574:11743   */\n    tag_224:\n        /* \"#utility.yul\":11658:11669   */\n      0x00\n        /* \"#utility.yul\":11692:11698   */\n      dup3\n        /* \"#utility.yul\":11687:11690   */\n      dup3\n        /* \"#utility.yul\":11680:11699   */\n      mstore\n        /* \"#utility.yul\":11732:11736   */\n      0x20\n        /* \"#utility.yul\":11727:11730   */\n      dup3\n        /* \"#utility.yul\":11723:11737   */\n      add\n        /* \"#utility.yul\":11708:11737   */\n      swap1\n      pop\n        /* \"#utility.yul\":11574:11743   */\n      swap3\n      swap2\n      pop\n      pop\n      jump\t// out\n        /* \"#utility.yul\":11749:12054   */\n    tag_122:\n        /* \"#utility.yul\":11789:11792   */\n      0x00\n        /* \"#utility.yul\":11808:11828   */\n      tag_316\n        /* \"#utility.yul\":11826:11827   */\n      dup3\n        /* \"#utility.yul\":11808:11828   */\n      tag_265\n      jump\t// in\n    tag_316:\n        /* \"#utility.yul\":11803:11828   */\n      swap2\n      pop\n        /* \"#utility.yul\":11842:11862   */\n      tag_317\n        /* \"#utility.yul\":11860:11861   */\n      dup4\n        /* \"#utility.yul\":11842:11862   */\n      tag_265\n      jump\t// in\n    tag_317:\n        /* \"#utility.yul\":11837:11862   */\n      swap3\n      pop\n        /* \"#utility.yul\":11996:11997   */\n      dup3\n        /* \"#utility.yul\":11928:11994   */\n      0xffffffffffffffffffffffffffffffffffffffffffffffffffffffffffffffff\n        /* \"#utility.yul\":11924:11998   */\n      sub\n        /* \"#utility.yul\":11921:11922   */\n      dup3\n        /* \"#utility.yul\":11918:11999   */\n      gt\n        /* \"#utility.yul\":11915:12022   */\n      iszero\n      tag_318\n      jumpi\n        /* \"#utility.yul\":12002:12020   */\n      tag_319\n      tag_320\n      jump\t// in\n    tag_319:\n        /* \"#utility.yul\":11915:12022   */\n    tag_318:\n        /* \"#utility.yul\":12046:12047   */\n      dup3\n        /* \"#utility.yul\":12043:12044   */\n      dup3\n        /* \"#utility.yul\":12039:12048   */\n      add\n        /* \"#utility.yul\":12032:12048   */\n      swap1\n      pop\n        /* \"#utility.yul\":11749:12054   */\n      swap3\n      swap2\n      pop\n      pop\n      jump\t// out\n        /* \"#utility.yul\":12060:12156   */\n    tag_199:\n        /* \"#utility.yul\":12097:12104   */\n      0x00\n        /* \"#utility.yul\":12126:12150   */\n      tag_322\n        /* \"#utility.yul\":12144:12149   */\n      dup3\n        /* \"#utility.yul\":12126:12150   */\n      tag_323\n      jump\t// in\n    tag_322:\n        /* \"#utility.yul\":12115:12150   */\n      swap1\n      pop\n        /* \"#utility.yul\":12060:12156   */\n      swap2\n      swap1\n      pop\n      jump\t// out\n        /* \"#utility.yul\":12162:12266   */\n    tag_195:\n        /* \"#utility.yul\":12207:12214   */\n      0x00\n        /* \"#utility.yul\":12236:12260   */\n      tag_325\n        /* \"#utility.yul\":12254:12259   */\n      dup3\n        /* \"#utility.yul\":12236:12260   */\n      tag_323\n      jump\t// in\n    tag_325:\n        /* \"#utility.yul\":12225:12260   */\n      swap1\n      pop\n        /* \"#utility.yul\":12162:12266   */\n      swap2\n      swap1\n      pop\n      jump\t// out\n        /* \"#utility.yul\":12272:12362   */\n    tag_208:\n        /* \"#utility.yul\":12306:12313   */\n      0x00\n        /* \"#utility.yul\":12349:12354   */\n      dup2\n        /* \"#utility.yul\":12342:12355   */\n      iszero\n        /* \"#utility.yul\":12335:12356   */\n      iszero\n        /* \"#utility.yul\":12324:12356   */\n      swap1\n      pop\n        /* \"#utility.yul\":12272:12362   */\n      swap2\n      swap1\n      pop\n      jump\t// out\n        /* \"#utility.yul\":12368:12517   */\n    tag_327:\n        /* \"#utility.yul\":12404:12411   */\n      0x00\n        /* \"#utility.yul\":12444:12510   */\n      0xffffffff00000000000000000000000000000000000000000000000000000000\n        /* \"#utility.yul\":12437:12442   */\n      dup3\n        /* \"#utility.yul\":12433:12511   */\n      and\n        /* \"#utility.yul\":12422:12511   */\n      swap1\n      pop\n        /* \"#utility.yul\":12368:12517   */\n      swap2\n      swap1\n      pop\n      jump\t// out\n        /* \"#utility.yul\":12523:12649   */\n    tag_323:\n        /* \"#utility.yul\":12560:12567   */\n      0x00\n        /* \"#utility.yul\":12600:12642   */\n      0xffffffffffffffffffffffffffffffffffffffff\n        /* \"#utility.yul\":12593:12598   */\n      dup3\n        /* \"#utility.yul\":12589:12643   */\n      and\n        /* \"#utility.yul\":12578:12643   */\n      swap1\n      pop\n        /* \"#utility.yul\":12523:12649   */\n      swap2\n      swap1\n      pop\n      jump\t// out\n        /* \"#utility.yul\":12655:12732   */\n    tag_265:\n        /* \"#utility.yul\":12692:12699   */\n      0x00\n        /* \"#utility.yul\":12721:12726   */\n      dup2\n        /* \"#utility.yul\":12710:12726   */\n      swap1\n      pop\n        /* \"#utility.yul\":12655:12732   */\n      swap2\n      swap1\n      pop\n      jump\t// out\n        /* \"#utility.yul\":12738:13045   */\n    tag_216:\n        /* \"#utility.yul\":12806:12807   */\n      0x00\n        /* \"#utility.yul\":12816:12929   */\n    tag_332:\n        /* \"#utility.yul\":12830:12836   */\n      dup4\n        /* \"#utility.yul\":12827:12828   */\n      dup2\n        /* \"#utility.yul\":12824:12837   */\n      lt\n        /* \"#utility.yul\":12816:12929   */\n      iszero\n      tag_334\n      jumpi\n        /* \"#utility.yul\":12915:12916   */\n      dup1\n        /* \"#utility.yul\":12910:12913   */\n      dup3\n        /* \"#utility.yul\":12906:12917   */\n      add\n        /* \"#utility.yul\":12900:12918   */\n      mload\n        /* \"#utility.yul\":12896:12897   */\n      dup2\n        /* \"#utility.yul\":12891:12894   */\n      dup5\n        /* \"#utility.yul\":12887:12898   */\n      add\n        /* \"#utility.yul\":12880:12919   */\n      mstore\n        /* \"#utility.yul\":12852:12854   */\n      0x20\n        /* \"#utility.yul\":12849:12850   */\n      dup2\n        /* \"#utility.yul\":12845:12855   */\n      add\n        /* \"#utility.yul\":12840:12855   */\n      swap1\n      pop\n        /* \"#utility.yul\":12816:12929   */\n      jump(tag_332)\n    tag_334:\n        /* \"#utility.yul\":12947:12953   */\n      dup4\n        /* \"#utility.yul\":12944:12945   */\n      dup2\n        /* \"#utility.yul\":12941:12954   */\n      gt\n        /* \"#utility.yul\":12938:13039   */\n      iszero\n      tag_335\n      jumpi\n        /* \"#utility.yul\":13027:13028   */\n      0x00\n        /* \"#utility.yul\":13018:13024   */\n      dup5\n        /* \"#utility.yul\":13013:13016   */\n      dup5\n        /* \"#utility.yul\":13009:13025   */\n      add\n        /* \"#utility.yul\":13002:13029   */\n      mstore\n        /* \"#utility.yul\":12938:13039   */\n    tag_335:\n        /* \"#utility.yul\":12787:13045   */\n      pop\n        /* \"#utility.yul\":12738:13045   */\n      pop\n      pop\n      pop\n      jump\t// out\n        /* \"#utility.yul\":13051:13371   */\n    tag_89:\n        /* \"#utility.yul\":13095:13101   */\n      0x00\n        /* \"#utility.yul\":13132:13133   */\n      0x02\n        /* \"#utility.yul\":13126:13130   */\n      dup3\n        /* \"#utility.yul\":13122:13134   */\n      div\n        /* \"#utility.yul\":13112:13134   */\n      swap1\n      pop\n        /* \"#utility.yul\":13179:13180   */\n      0x01\n        /* \"#utility.yul\":13173:13177   */\n      dup3\n        /* \"#utility.yul\":13169:13181   */\n      and\n        /* \"#utility.yul\":13200:13218   */\n      dup1\n        /* \"#utility.yul\":13190:13271   */\n      tag_337\n      jumpi\n        /* \"#utility.yul\":13256:13260   */\n      0x7f\n        /* \"#utility.yul\":13248:13254   */\n      dup3\n        /* \"#utility.yul\":13244:13261   */\n      and\n        /* \"#utility.yul\":13234:13261   */\n      swap2\n      pop\n        /* \"#utility.yul\":13190:13271   */\n    tag_337:\n        /* \"#utility.yul\":13318:13320   */\n      0x20\n        /* \"#utility.yul\":13310:13316   */\n      dup3\n        /* \"#utility.yul\":13307:13321   */\n      lt\n        /* \"#utility.yul\":13287:13305   */\n      dup2\n        /* \"#utility.yul\":13284:13322   */\n      eq\n        /* \"#utility.yul\":13281:13365   */\n      iszero\n      tag_338\n      jumpi\n        /* \"#utility.yul\":13337:13355   */\n      tag_339\n      tag_340\n      jump\t// in\n    tag_339:\n        /* \"#utility.yul\":13281:13365   */\n    tag_338:\n        /* \"#utility.yul\":13102:13371   */\n      pop\n        /* \"#utility.yul\":13051:13371   */\n      swap2\n      swap1\n      pop\n      jump\t// out\n        /* \"#utility.yul\":13377:13658   */\n    tag_341:\n        /* \"#utility.yul\":13460:13487   */\n      tag_343\n        /* \"#utility.yul\":13482:13486   */\n      dup3\n        /* \"#utility.yul\":13460:13487   */\n      tag_218\n      jump\t// in\n    tag_343:\n        /* \"#utility.yul\":13452:13458   */\n      dup2\n        /* \"#utility.yul\":13448:13488   */\n      add\n        /* \"#utility.yul\":13590:13596   */\n      dup2\n        /* \"#utility.yul\":13578:13588   */\n      dup2\n        /* \"#utility.yul\":13575:13597   */\n      lt\n        /* \"#utility.yul\":13554:13572   */\n      0xffffffffffffffff\n        /* \"#utility.yul\":13542:13552   */\n      dup3\n        /* \"#utility.yul\":13539:13573   */\n      gt\n        /* \"#utility.yul\":13536:13598   */\n      or\n        /* \"#utility.yul\":13533:13621   */\n      iszero\n      tag_344\n      jumpi\n        /* \"#utility.yul\":13601:13619   */\n      tag_345\n      tag_130\n      jump\t// in\n    tag_345:\n        /* \"#utility.yul\":13533:13621   */\n    tag_344:\n        /* \"#utility.yul\":13641:13651   */\n      dup1\n        /* \"#utility.yul\":13637:13639   */\n      0x40\n        /* \"#utility.yul\":13630:13652   */\n      mstore\n        /* \"#utility.yul\":13420:13658   */\n      pop\n        /* \"#utility.yul\":13377:13658   */\n      pop\n      pop\n      jump\t// out\n        /* \"#utility.yul\":13664:13897   */\n    tag_67:\n        /* \"#utility.yul\":13703:13706   */\n      0x00\n        /* \"#utility.yul\":13726:13750   */\n      tag_347\n        /* \"#utility.yul\":13744:13749   */\n      dup3\n        /* \"#utility.yul\":13726:13750   */\n      tag_265\n      jump\t// in\n    tag_347:\n        /* \"#utility.yul\":13717:13750   */\n      swap2\n      pop\n        /* \"#utility.yul\":13772:13838   */\n      0xffffffffffffffffffffffffffffffffffffffffffffffffffffffffffffffff\n        /* \"#utility.yul\":13765:13770   */\n      dup3\n        /* \"#utility.yul\":13762:13839   */\n      eq\n        /* \"#utility.yul\":13759:13862   */\n      iszero\n      tag_348\n      jumpi\n        /* \"#utility.yul\":13842:13860   */\n      tag_349\n      tag_320\n      jump\t// in\n    tag_349:\n        /* \"#utility.yul\":13759:13862   */\n    tag_348:\n        /* \"#utility.yul\":13889:13890   */\n      0x01\n        /* \"#utility.yul\":13882:13887   */\n      dup3\n        /* \"#utility.yul\":13878:13891   */\n      add\n        /* \"#utility.yul\":13871:13891   */\n      swap1\n      pop\n        /* \"#utility.yul\":13664:13897   */\n      swap2\n      swap1\n      pop\n      jump\t// out\n        /* \"#utility.yul\":13903:14003   */\n    tag_204:\n        /* \"#utility.yul\":13942:13949   */\n      0x00\n        /* \"#utility.yul\":13971:13997   */\n      tag_351\n        /* \"#utility.yul\":13991:13996   */\n      dup3\n        /* \"#utility.yul\":13971:13997   */\n      tag_352\n      jump\t// in\n    tag_351:\n        /* \"#utility.yul\":13960:13997   */\n      swap1\n      pop\n        /* \"#utility.yul\":13903:14003   */\n      swap2\n      swap1\n      pop\n      jump\t// out\n        /* \"#utility.yul\":14009:14103   */\n    tag_352:\n        /* \"#utility.yul\":14048:14055   */\n      0x00\n        /* \"#utility.yul\":14077:14097   */\n      tag_354\n        /* \"#utility.yul\":14091:14096   */\n      dup3\n        /* \"#utility.yul\":14077:14097   */\n      tag_355\n      jump\t// in\n    tag_354:\n        /* \"#utility.yul\":14066:14097   */\n      swap1\n      pop\n        /* \"#utility.yul\":14009:14103   */\n      swap2\n      swap1\n      pop\n      jump\t// out\n        /* \"#utility.yul\":14109:14188   */\n    tag_270:\n        /* \"#utility.yul\":14148:14155   */\n      0x00\n        /* \"#utility.yul\":14177:14182   */\n      dup2\n        /* \"#utility.yul\":14166:14182   */\n      swap1\n      pop\n        /* \"#utility.yul\":14109:14188   */\n      swap2\n      swap1\n      pop\n      jump\t// out\n        /* \"#utility.yul\":14194:14370   */\n    tag_110:\n        /* \"#utility.yul\":14226:14227   */\n      0x00\n        /* \"#utility.yul\":14243:14263   */\n      tag_358\n        /* \"#utility.yul\":14261:14262   */\n      dup3\n        /* \"#utility.yul\":14243:14263   */\n      tag_265\n      jump\t// in\n    tag_358:\n        /* \"#utility.yul\":14238:14263   */\n      swap2\n      pop\n        /* \"#utility.yul\":14277:14297   */\n      tag_359\n        /* \"#utility.yul\":14295:14296   */\n      dup4\n        /* \"#utility.yul\":14277:14297   */\n      tag_265\n      jump\t// in\n    tag_359:\n        /* \"#utility.yul\":14272:14297   */\n      swap3\n      pop\n        /* \"#utility.yul\":14316:14317   */\n      dup3\n        /* \"#utility.yul\":14306:14341   */\n      tag_360\n      jumpi\n        /* \"#utility.yul\":14321:14339   */\n      tag_361\n      tag_362\n      jump\t// in\n    tag_361:\n        /* \"#utility.yul\":14306:14341   */\n    tag_360:\n        /* \"#utility.yul\":14362:14363   */\n      dup3\n        /* \"#utility.yul\":14359:14360   */\n      dup3\n        /* \"#utility.yul\":14355:14364   */\n      mod\n        /* \"#utility.yul\":14350:14364   */\n      swap1\n      pop\n        /* \"#utility.yul\":14194:14370   */\n      swap3\n      swap2\n      pop\n      pop\n      jump\t// out\n        /* \"#utility.yul\":14376:14556   */\n    tag_320:\n        /* \"#utility.yul\":14424:14501   */\n      0x4e487b7100000000000000000000000000000000000000000000000000000000\n        /* \"#utility.yul\":14421:14422   */\n      0x00\n        /* \"#utility.yul\":14414:14502   */\n      mstore\n        /* \"#utility.yul\":14521:14525   */\n      0x11\n        /* \"#utility.yul\":14518:14519   */\n      0x04\n        /* \"#utility.yul\":14511:14526   */\n      mstore\n        /* \"#utility.yul\":14545:14549   */\n      0x24\n        /* \"#utility.yul\":14542:14543   */\n      0x00\n        /* \"#utility.yul\":14535:14550   */\n      revert\n        /* \"#utility.yul\":14562:14742   */\n    tag_362:\n        /* \"#utility.yul\":14610:14687   */\n      0x4e487b7100000000000000000000000000000000000000000000000000000000\n        /* \"#utility.yul\":14607:14608   */\n      0x00\n        /* \"#utility.yul\":14600:14688   */\n      mstore\n        /* \"#utility.yul\":14707:14711   */\n      0x12\n        /* \"#utility.yul\":14704:14705   */\n      0x04\n        /* \"#utility.yul\":14697:14712   */\n      mstore\n        /* \"#utility.yul\":14731:14735   */\n      0x24\n        /* \"#utility.yul\":14728:14729   */\n      0x00\n        /* \"#utility.yul\":14721:14736   */\n      revert\n        /* \"#utility.yul\":14748:14928   */\n    tag_340:\n        /* \"#utility.yul\":14796:14873   */\n      0x4e487b7100000000000000000000000000000000000000000000000000000000\n        /* \"#utility.yul\":14793:14794   */\n      0x00\n        /* \"#utility.yul\":14786:14874   */\n      mstore\n        /* \"#utility.yul\":14893:14897   */\n      0x22\n        /* \"#utility.yul\":14890:14891   */\n      0x04\n        /* \"#utility.yul\":14883:14898   */\n      mstore\n        /* \"#utility.yul\":14917:14921   */\n      0x24\n        /* \"#utility.yul\":14914:14915   */\n      0x00\n        /* \"#utility.yul\":14907:14922   */\n      revert\n        /* \"#utility.yul\":14934:15114   */\n    tag_134:\n        /* \"#utility.yul\":14982:15059   */\n      0x4e487b7100000000000000000000000000000000000000000000000000000000\n        /* \"#utility.yul\":14979:14980   */\n      0x00\n        /* \"#utility.yul\":14972:15060   */\n      mstore\n        /* \"#utility.yul\":15079:15083   */\n      0x32\n        /* \"#utility.yul\":15076:15077   */\n      0x04\n        /* \"#utility.yul\":15069:15084   */\n      mstore\n        /* \"#utility.yul\":15103:15107   */\n      0x24\n        /* \"#utility.yul\":15100:15101   */\n      0x00\n        /* \"#utility.yul\":15093:15108   */\n      revert\n        /* \"#utility.yul\":15120:15300   */\n    tag_130:\n        /* \"#utility.yul\":15168:15245   */\n      0x4e487b7100000000000000000000000000000000000000000000000000000000\n        /* \"#utility.yul\":15165:15166   */\n      0x00\n        /* \"#utility.yul\":15158:15246   */\n      mstore\n        /* \"#utility.yul\":15265:15269   */\n      0x41\n        /* \"#utility.yul\":15262:15263   */\n      0x04\n        /* \"#utility.yul\":15255:15270   */\n      mstore\n        /* \"#utility.yul\":15289:15293   */\n      0x24\n        /* \"#utility.yul\":15286:15287   */\n      0x00\n        /* \"#utility.yul\":15279:15294   */\n      revert\n        /* \"#utility.yul\":15306:15489   */\n    tag_151:\n        /* \"#utility.yul\":15341:15344   */\n      0x00\n        /* \"#utility.yul\":15379:15380   */\n      0x03\n        /* \"#utility.yul\":15361:15377   */\n      returndatasize\n        /* \"#utility.yul\":15358:15381   */\n      gt\n        /* \"#utility.yul\":15355:15483   */\n      iszero\n      tag_369\n      jumpi\n        /* \"#utility.yul\":15417:15418   */\n      0x04\n        /* \"#utility.yul\":15414:15415   */\n      0x00\n        /* \"#utility.yul\":15411:15412   */\n      dup1\n        /* \"#utility.yul\":15396:15419   */\n      returndatacopy\n        /* \"#utility.yul\":15439:15473   */\n      tag_370\n        /* \"#utility.yul\":15470:15471   */\n      0x00\n        /* \"#utility.yul\":15464:15472   */\n      mload\n        /* \"#utility.yul\":15439:15473   */\n      tag_371\n      jump\t// in\n    tag_370:\n        /* \"#utility.yul\":15432:15473   */\n      swap1\n      pop\n        /* \"#utility.yul\":15355:15483   */\n    tag_369:\n        /* \"#utility.yul\":15306:15489   */\n      swap1\n      jump\t// out\n        /* \"#utility.yul\":15618:15735   */\n    tag_186:\n        /* \"#utility.yul\":15727:15728   */\n      0x00\n        /* \"#utility.yul\":15724:15725   */\n      dup1\n        /* \"#utility.yul\":15717:15729   */\n      revert\n        /* \"#utility.yul\":15741:15843   */\n    tag_218:\n        /* \"#utility.yul\":15782:15788   */\n      0x00\n        /* \"#utility.yul\":15833:15835   */\n      0x1f\n        /* \"#utility.yul\":15829:15836   */\n      not\n        /* \"#utility.yul\":15824:15826   */\n      0x1f\n        /* \"#utility.yul\":15817:15822   */\n      dup4\n        /* \"#utility.yul\":15813:15827   */\n      add\n        /* \"#utility.yul\":15809:15837   */\n      and\n        /* \"#utility.yul\":15799:15837   */\n      swap1\n      pop\n        /* \"#utility.yul\":15741:15843   */\n      swap2\n      swap1\n      pop\n      jump\t// out\n        /* \"#utility.yul\":15849:15943   */\n    tag_355:\n        /* \"#utility.yul\":15882:15890   */\n      0x00\n        /* \"#utility.yul\":15930:15935   */\n      dup2\n        /* \"#utility.yul\":15926:15928   */\n      0x60\n        /* \"#utility.yul\":15922:15936   */\n      shl\n        /* \"#utility.yul\":15901:15936   */\n      swap1\n      pop\n        /* \"#utility.yul\":15849:15943   */\n      swap2\n      swap1\n      pop\n      jump\t// out\n        /* \"#utility.yul\":15949:16055   */\n    tag_371:\n        /* \"#utility.yul\":15993:16001   */\n      0x00\n        /* \"#utility.yul\":16042:16047   */\n      dup2\n        /* \"#utility.yul\":16037:16040   */\n      0xe0\n        /* \"#utility.yul\":16033:16048   */\n      shr\n        /* \"#utility.yul\":16012:16048   */\n      swap1\n      pop\n        /* \"#utility.yul\":15949:16055   */\n      swap2\n      swap1\n      pop\n      jump\t// out\n        /* \"#utility.yul\":16061:16300   */\n    tag_231:\n        /* \"#utility.yul\":16201:16235   */\n      0x455243313135353a207472616e7366657220746f206e6f6e2045524331313535\n        /* \"#utility.yul\":16197:16198   */\n      0x00\n        /* \"#utility.yul\":16189:16195   */\n      dup3\n        /* \"#utility.yul\":16185:16199   */\n      add\n        /* \"#utility.yul\":16178:16236   */\n      mstore\n        /* \"#utility.yul\":16270:16292   */\n      0x526563656976657220696d706c656d656e746572000000000000000000000000\n        /* \"#utility.yul\":16265:16267   */\n      0x20\n        /* \"#utility.yul\":16257:16263   */\n      dup3\n        /* \"#utility.yul\":16253:16268   */\n      add\n        /* \"#utility.yul\":16246:16293   */\n      mstore\n        /* \"#utility.yul\":16061:16300   */\n      pop\n      jump\t// out\n        /* \"#utility.yul\":16306:16533   */\n    tag_236:\n        /* \"#utility.yul\":16446:16480   */\n      0x455243313135353a204552433131353552656365697665722072656a65637465\n        /* \"#utility.yul\":16442:16443   */\n      0x00\n        /* \"#utility.yul\":16434:16440   */\n      dup3\n        /* \"#utility.yul\":16430:16444   */\n      add\n        /* \"#utility.yul\":16423:16481   */\n      mstore\n        /* \"#utility.yul\":16515:16525   */\n      0x6420746f6b656e73000000000000000000000000000000000000000000000000\n        /* \"#utility.yul\":16510:16512   */\n      0x20\n        /* \"#utility.yul\":16502:16508   */\n      dup3\n        /* \"#utility.yul\":16498:16513   */\n      add\n        /* \"#utility.yul\":16491:16526   */\n      mstore\n        /* \"#utility.yul\":16306:16533   */\n      pop\n      jump\t// out\n        /* \"#utility.yul\":16539:16716   */\n    tag_241:\n        /* \"#utility.yul\":16679:16708   */\n      0x44726f707369746520697320616c72656164792052756e6e696e670000000000\n        /* \"#utility.yul\":16675:16676   */\n      0x00\n        /* \"#utility.yul\":16667:16673   */\n      dup3\n        /* \"#utility.yul\":16663:16677   */\n      add\n        /* \"#utility.yul\":16656:16709   */\n      mstore\n        /* \"#utility.yul\":16539:16716   */\n      pop\n      jump\t// out\n        /* \"#utility.yul\":16722:16899   */\n    tag_246:\n        /* \"#utility.yul\":16862:16891   */\n      0x44726f707369746520697320616c72656164792053746f707065640000000000\n        /* \"#utility.yul\":16858:16859   */\n      0x00\n        /* \"#utility.yul\":16850:16856   */\n      dup3\n        /* \"#utility.yul\":16846:16860   */\n      add\n        /* \"#utility.yul\":16839:16892   */\n      mstore\n        /* \"#utility.yul\":16722:16899   */\n      pop\n      jump\t// out\n        /* \"#utility.yul\":16905:17079   */\n    tag_251:\n        /* \"#utility.yul\":17045:17071   */\n      0x4f6e79784e6674204f776e65722063616e204163636573730000000000000000\n        /* \"#utility.yul\":17041:17042   */\n      0x00\n        /* \"#utility.yul\":17033:17039   */\n      dup3\n        /* \"#utility.yul\":17029:17043   */\n      add\n        /* \"#utility.yul\":17022:17072   */\n      mstore\n        /* \"#utility.yul\":16905:17079   */\n      pop\n      jump\t// out\n        /* \"#utility.yul\":17085:17253   */\n    tag_256:\n        /* \"#utility.yul\":17225:17245   */\n      0x436f6e7472616374206973205061757365640000000000000000000000000000\n        /* \"#utility.yul\":17221:17222   */\n      0x00\n        /* \"#utility.yul\":17213:17219   */\n      dup3\n        /* \"#utility.yul\":17209:17223   */\n      add\n        /* \"#utility.yul\":17202:17246   */\n      mstore\n        /* \"#utility.yul\":17085:17253   */\n      pop\n      jump\t// out\n        /* \"#utility.yul\":17259:17479   */\n    tag_261:\n        /* \"#utility.yul\":17399:17433   */\n      0x455243313135353a206d696e7420746f20746865207a65726f20616464726573\n        /* \"#utility.yul\":17395:17396   */\n      0x00\n        /* \"#utility.yul\":17387:17393   */\n      dup3\n        /* \"#utility.yul\":17383:17397   */\n      add\n        /* \"#utility.yul\":17376:17434   */\n      mstore\n        /* \"#utility.yul\":17468:17471   */\n      0x7300000000000000000000000000000000000000000000000000000000000000\n        /* \"#utility.yul\":17463:17465   */\n      0x20\n        /* \"#utility.yul\":17455:17461   */\n      dup3\n        /* \"#utility.yul\":17451:17466   */\n      add\n        /* \"#utility.yul\":17444:17472   */\n      mstore\n        /* \"#utility.yul\":17259:17479   */\n      pop\n      jump\t// out\n        /* \"#utility.yul\":17485:18196   */\n    tag_153:\n        /* \"#utility.yul\":17524:17527   */\n      0x00\n        /* \"#utility.yul\":17562:17566   */\n      0x44\n        /* \"#utility.yul\":17544:17560   */\n      returndatasize\n        /* \"#utility.yul\":17541:17567   */\n      lt\n        /* \"#utility.yul\":17538:17577   */\n      iszero\n      tag_386\n      jumpi\n        /* \"#utility.yul\":17570:17575   */\n      jump(tag_385)\n        /* \"#utility.yul\":17538:17577   */\n    tag_386:\n        /* \"#utility.yul\":17599:17619   */\n      tag_387\n      tag_309\n      jump\t// in\n    tag_387:\n        /* \"#utility.yul\":17674:17675   */\n      0x04\n        /* \"#utility.yul\":17656:17672   */\n      returndatasize\n        /* \"#utility.yul\":17652:17676   */\n      sub\n        /* \"#utility.yul\":17649:17650   */\n      0x04\n        /* \"#utility.yul\":17643:17647   */\n      dup3\n        /* \"#utility.yul\":17628:17677   */\n      returndatacopy\n        /* \"#utility.yul\":17707:17711   */\n      dup1\n        /* \"#utility.yul\":17701:17712   */\n      mload\n        /* \"#utility.yul\":17806:17822   */\n      returndatasize\n        /* \"#utility.yul\":17799:17803   */\n      0x24\n        /* \"#utility.yul\":17791:17797   */\n      dup3\n        /* \"#utility.yul\":17787:17804   */\n      add\n        /* \"#utility.yul\":17784:17823   */\n      gt\n        /* \"#utility.yul\":17751:17769   */\n      0xffffffffffffffff\n        /* \"#utility.yul\":17743:17749   */\n      dup3\n        /* \"#utility.yul\":17740:17770   */\n      gt\n        /* \"#utility.yul\":17724:17837   */\n      or\n        /* \"#utility.yul\":17721:17867   */\n      iszero\n      tag_388\n      jumpi\n        /* \"#utility.yul\":17852:17857   */\n      pop\n      pop\n      jump(tag_385)\n        /* \"#utility.yul\":17721:17867   */\n    tag_388:\n        /* \"#utility.yul\":17898:17904   */\n      dup1\n        /* \"#utility.yul\":17892:17896   */\n      dup3\n        /* \"#utility.yul\":17888:17905   */\n      add\n        /* \"#utility.yul\":17934:17937   */\n      dup1\n        /* \"#utility.yul\":17928:17938   */\n      mload\n        /* \"#utility.yul\":17961:17979   */\n      0xffffffffffffffff\n        /* \"#utility.yul\":17953:17959   */\n      dup2\n        /* \"#utility.yul\":17950:17980   */\n      gt\n        /* \"#utility.yul\":17947:17990   */\n      iszero\n      tag_389\n      jumpi\n        /* \"#utility.yul\":17983:17988   */\n      pop\n      pop\n      pop\n      pop\n      jump(tag_385)\n        /* \"#utility.yul\":17947:17990   */\n    tag_389:\n        /* \"#utility.yul\":18031:18037   */\n      dup1\n        /* \"#utility.yul\":18024:18028   */\n      0x20\n        /* \"#utility.yul\":18019:18022   */\n      dup4\n        /* \"#utility.yul\":18015:18029   */\n      add\n        /* \"#utility.yul\":18011:18038   */\n      add\n        /* \"#utility.yul\":18090:18091   */\n      0x04\n        /* \"#utility.yul\":18072:18088   */\n      returndatasize\n        /* \"#utility.yul\":18068:18092   */\n      sub\n        /* \"#utility.yul\":18062:18066   */\n      dup6\n        /* \"#utility.yul\":18058:18093   */\n      add\n        /* \"#utility.yul\":18053:18056   */\n      dup2\n        /* \"#utility.yul\":18050:18094   */\n      gt\n        /* \"#utility.yul\":18047:18104   */\n      iszero\n      tag_390\n      jumpi\n        /* \"#utility.yul\":18097:18102   */\n      pop\n      pop\n      pop\n      pop\n      pop\n      jump(tag_385)\n        /* \"#utility.yul\":18047:18104   */\n    tag_390:\n        /* \"#utility.yul\":18114:18171   */\n      tag_391\n        /* \"#utility.yul\":18162:18168   */\n      dup3\n        /* \"#utility.yul\":18156:18160   */\n      0x20\n        /* \"#utility.yul\":18152:18169   */\n      add\n        /* \"#utility.yul\":18144:18150   */\n      dup6\n        /* \"#utility.yul\":18140:18170   */\n      add\n        /* \"#utility.yul\":18134:18138   */\n      dup7\n        /* \"#utility.yul\":18114:18171   */\n      tag_341\n      jump\t// in\n    tag_391:\n        /* \"#utility.yul\":18187:18190   */\n      dup3\n        /* \"#utility.yul\":18180:18190   */\n      swap6\n      pop\n        /* \"#utility.yul\":17528:18196   */\n      pop\n      pop\n      pop\n      pop\n      pop\n        /* \"#utility.yul\":17485:18196   */\n    tag_385:\n      swap1\n      jump\t// out\n        /* \"#utility.yul\":18202:18324   */\n    tag_178:\n        /* \"#utility.yul\":18275:18299   */\n      tag_393\n        /* \"#utility.yul\":18293:18298   */\n      dup2\n        /* \"#utility.yul\":18275:18299   */\n      tag_199\n      jump\t// in\n    tag_393:\n        /* \"#utility.yul\":18268:18273   */\n      dup2\n        /* \"#utility.yul\":18265:18300   */\n      eq\n        /* \"#utility.yul\":18255:18318   */\n      tag_394\n      jumpi\n        /* \"#utility.yul\":18314:18315   */\n      0x00\n        /* \"#utility.yul\":18311:18312   */\n      dup1\n        /* \"#utility.yul\":18304:18316   */\n      revert\n        /* \"#utility.yul\":18255:18318   */\n    tag_394:\n        /* \"#utility.yul\":18202:18324   */\n      pop\n      jump\t// out\n        /* \"#utility.yul\":18330:18450   */\n    tag_182:\n        /* \"#utility.yul\":18402:18425   */\n      tag_396\n        /* \"#utility.yul\":18419:18424   */\n      dup2\n        /* \"#utility.yul\":18402:18425   */\n      tag_327\n      jump\t// in\n    tag_396:\n        /* \"#utility.yul\":18395:18400   */\n      dup2\n        /* \"#utility.yul\":18392:18426   */\n      eq\n        /* \"#utility.yul\":18382:18444   */\n      tag_397\n      jumpi\n        /* \"#utility.yul\":18440:18441   */\n      0x00\n        /* \"#utility.yul\":18437:18438   */\n      dup1\n        /* \"#utility.yul\":18430:18442   */\n      revert\n        /* \"#utility.yul\":18382:18444   */\n    tag_397:\n        /* \"#utility.yul\":18330:18450   */\n      pop\n      jump\t// out\n\n    auxdata: 0xa2646970667358221220f4e4493fd47310dbbb14150d8a7a1ccbc2fbc02624674e73813304cab916f5d564736f6c63430008070033\n}\n",
				"bytecode": {
					"linkReferences": {},
					"object": "608060405260405180602001604052806000815250600290805190602001906200002b92919062000103565b506001600a60006101000a81548160ff0219169083151502179055503480156200005457600080fd5b5060405162001cb938038062001cb983398181016040528101906200007a9190620002c2565b80600b90805190602001906200009292919062000194565b5033600a60016101000a81548173ffffffffffffffffffffffffffffffffffffffff021916908373ffffffffffffffffffffffffffffffffffffffff160217905550600060038190555060016004819055506000600581905550600060068190555060006007819055505062000497565b8280546200011190620003a8565b90600052602060002090601f01602090048101928262000135576000855562000181565b82601f106200015057805160ff191683800117855562000181565b8280016001018555821562000181579182015b828111156200018057825182559160200191906001019062000163565b5b50905062000190919062000225565b5090565b828054620001a290620003a8565b90600052602060002090601f016020900481019282620001c6576000855562000212565b82601f10620001e157805160ff191683800117855562000212565b8280016001018555821562000212579182015b8281111562000211578251825591602001919060010190620001f4565b5b50905062000221919062000225565b5090565b5b808211156200024057600081600090555060010162000226565b5090565b60006200025b62000255846200033c565b62000313565b9050828152602081018484840111156200027a576200027962000477565b5b6200028784828562000372565b509392505050565b600082601f830112620002a757620002a662000472565b5b8151620002b984826020860162000244565b91505092915050565b600060208284031215620002db57620002da62000481565b5b600082015167ffffffffffffffff811115620002fc57620002fb6200047c565b5b6200030a848285016200028f565b91505092915050565b60006200031f62000332565b90506200032d8282620003de565b919050565b6000604051905090565b600067ffffffffffffffff8211156200035a576200035962000443565b5b620003658262000486565b9050602081019050919050565b60005b838110156200039257808201518184015260208101905062000375565b83811115620003a2576000848401525b50505050565b60006002820490506001821680620003c157607f821691505b60208210811415620003d857620003d762000414565b5b50919050565b620003e98262000486565b810181811067ffffffffffffffff821117156200040b576200040a62000443565b5b80604052505050565b7f4e487b7100000000000000000000000000000000000000000000000000000000600052602260045260246000fd5b7f4e487b7100000000000000000000000000000000000000000000000000000000600052604160045260246000fd5b600080fd5b600080fd5b600080fd5b600080fd5b6000601f19601f8301169050919050565b61181280620004a76000396000f3fe608060405234801561001057600080fd5b50600436106100885760003560e01c80637e1eaabf1161005b5780637e1eaabf146100f3578063aa90c72614610111578063b4a99a4e1461011b578063d4c892c41461013957610088565b80631309a5631461008d57806315460259146100ab578063322f0ece146100b557806360daa851146100d3575b600080fd5b610095610169565b6040516100a29190611056565b60405180910390f35b6100b361017c565b005b6100bd610286565b6040516100ca9190611173565b60405180910390f35b6100db61028c565b6040516100ea939291906111b7565b60405180910390f35b6100fb61033c565b6040516101089190611173565b60405180910390f35b610119610717565b005b610123610821565b6040516101309190610fe1565b60405180910390f35b610153600480360381019061014e9190610d8a565b610847565b6040516101609190611173565b60405180910390f35b600a60009054906101000a900460ff1681565b600a60019054906101000a900473ffffffffffffffffffffffffffffffffffffffff1673ffffffffffffffffffffffffffffffffffffffff166101bd61085f565b73ffffffffffffffffffffffffffffffffffffffff1614610213576040517f08c379a000000000000000000000000000000000000000000000000000000000815260040161020a90611113565b60405180910390fd5b60011515600a60009054906101000a900460ff16151514610269576040517f08c379a0000000000000000000000000000000000000000000000000000000008152600401610260906110d3565b60405180910390fd5b6000600a60006101000a81548160ff021916908315150217905550565b60035481565b6000806000600a60019054906101000a900473ffffffffffffffffffffffffffffffffffffffff1673ffffffffffffffffffffffffffffffffffffffff166102d261085f565b73ffffffffffffffffffffffffffffffffffffffff1614610328576040517f08c379a000000000000000000000000000000000000000000000000000000000815260040161031f90611113565b60405180910390fd5b600554600654600754925092509250909192565b6000801515600a60009054906101000a900460ff16151514610393576040517f08c379a000000000000000000000000000000000000000000000000000000000815260040161038a90611133565b60405180910390fd5b600061039d610867565b90506000811480156103b157506096600554105b1561041f576040518060400160405280600881526020017f506c6174696e756d00000000000000000000000000000000000000000000000081525060029080519060200190610401929190610cbd565b5060056000815480929190610415906113a2565b919050555061060e565b60018111158015610433575061015f600654105b801561044157506096600554145b156104af576040518060400160405280600481526020017f476f6c640000000000000000000000000000000000000000000000000000000081525060029080519060200190610491929190610cbd565b50600660008154809291906104a5906113a2565b919050555061060d565b6002811480156104c357506101f460075411155b15610531576040518060400160405280600681526020017f53696c766572000000000000000000000000000000000000000000000000000081525060029080519060200190610513929190610cbd565b5060076000815480929190610527906113a2565b919050555061060c565b61015e60065410156105a6576040518060400160405280600481526020017f476f6c640000000000000000000000000000000000000000000000000000000081525060029080519060200190610588929190610cbd565b506006600081548092919061059c906113a2565b919050555061060b565b6040518060400160405280600881526020017f506c6174696e756d000000000000000000000000000000000000000000000000815250600290805190602001906105f1929190610cbd565b5060056000815480929190610605906113a2565b91905055505b5b5b5b6106ad61061961085f565b826004546002805461062a9061133f565b80601f01602080910402602001604051908101604052809291908181526020018280546106569061133f565b80156106a35780601f10610678576101008083540402835291602001916106a3565b820191906000526020600020905b81548152906001019060200180831161068657829003601f168201915b50505050506108ab565b600360008154809291906106c0906113a2565b919050555080600860006106d261085f565b73ffffffffffffffffffffffffffffffffffffffff1673ffffffffffffffffffffffffffffffffffffffff168152602001908152602001600020819055508091505090565b600a60019054906101000a900473ffffffffffffffffffffffffffffffffffffffff1673ffffffffffffffffffffffffffffffffffffffff1661075861085f565b73ffffffffffffffffffffffffffffffffffffffff16146107ae576040517f08c379a00000000000000000000000000000000000000000000000000000000081526004016107a590611113565b60405180910390fd5b60001515600a60009054906101000a900460ff16151514610804576040517f08c379a00000000000000000000000000000000000000000000000000000000081526004016107fb906110f3565b60405180910390fd5b6001600a60006101000a81548160ff021916908315150217905550565b600a60019054906101000a900473ffffffffffffffffffffffffffffffffffffffff1681565b60086020528060005260406000206000915090505481565b600033905090565b6000806003423360405160200161087f929190610fb5565b6040516020818303038152906040528051906020012060001c6108a29190611419565b90508091505090565b600073ffffffffffffffffffffffffffffffffffffffff168473ffffffffffffffffffffffffffffffffffffffff16141561091b576040517f08c379a000000000000000000000000000000000000000000000000000000000815260040161091290611153565b60405180910390fd5b600061092561085f565b90506109468160008761093788610a41565b61094088610a41565b87610abb565b8260008086815260200190815260200160002060008773ffffffffffffffffffffffffffffffffffffffff1673ffffffffffffffffffffffffffffffffffffffff16815260200190815260200160002060008282546109a59190611230565b925050819055508473ffffffffffffffffffffffffffffffffffffffff16600073ffffffffffffffffffffffffffffffffffffffff168273ffffffffffffffffffffffffffffffffffffffff167fc3d58168c5ae7397731d063d5bbf3d657854427343f4c083240f7aacaa2d0f628787604051610a2392919061118e565b60405180910390a4610a3a81600087878787610ac3565b5050505050565b60606000600167ffffffffffffffff811115610a6057610a5f611506565b5b604051908082528060200260200182016040528015610a8e5781602001602082028036833780820191505090505b5090508281600081518110610aa657610aa56114d7565b5b60200260200101818152505080915050919050565b505050505050565b610ae28473ffffffffffffffffffffffffffffffffffffffff16610caa565b15610ca2578373ffffffffffffffffffffffffffffffffffffffff1663f23a6e6187878686866040518663ffffffff1660e01b8152600401610b28959493929190610ffc565b602060405180830381600087803b158015610b4257600080fd5b505af1925050508015610b7357506040513d601f19601f82011682018060405250810190610b709190610db7565b60015b610c1957610b7f611535565b806308c379a01415610bdc5750610b94611718565b80610b9f5750610bde565b806040517f08c379a0000000000000000000000000000000000000000000000000000000008152600401610bd39190611071565b60405180910390fd5b505b6040517f08c379a0000000000000000000000000000000000000000000000000000000008152600401610c1090611093565b60405180910390fd5b63f23a6e6160e01b7bffffffffffffffffffffffffffffffffffffffffffffffffffffffff1916817bffffffffffffffffffffffffffffffffffffffffffffffffffffffff191614610ca0576040517f08c379a0000000000000000000000000000000000000000000000000000000008152600401610c97906110b3565b60405180910390fd5b505b505050505050565b600080823b905060008111915050919050565b828054610cc99061133f565b90600052602060002090601f016020900481019282610ceb5760008555610d32565b82601f10610d0457805160ff1916838001178555610d32565b82800160010185558215610d32579182015b82811115610d31578251825591602001919060010190610d16565b5b509050610d3f9190610d43565b5090565b5b80821115610d5c576000816000905550600101610d44565b5090565b600081359050610d6f816117ae565b92915050565b600081519050610d84816117c5565b92915050565b600060208284031215610da057610d9f611557565b5b6000610dae84828501610d60565b91505092915050565b600060208284031215610dcd57610dcc611557565b5b6000610ddb84828501610d75565b91505092915050565b610ded81611298565b82525050565b610dfc81611286565b82525050565b610e13610e0e82611286565b6113eb565b82525050565b610e22816112aa565b82525050565b6000610e33826111f8565b610e3d818561120e565b9350610e4d81856020860161130c565b610e568161155c565b840191505092915050565b6000610e6c82611203565b610e76818561121f565b9350610e8681856020860161130c565b610e8f8161155c565b840191505092915050565b6000610ea760348361121f565b9150610eb282611587565b604082019050919050565b6000610eca60288361121f565b9150610ed5826115d6565b604082019050919050565b6000610eed601b8361121f565b9150610ef882611625565b602082019050919050565b6000610f10601b8361121f565b9150610f1b8261164e565b602082019050919050565b6000610f3360188361121f565b9150610f3e82611677565b602082019050919050565b6000610f5660128361121f565b9150610f61826116a0565b602082019050919050565b6000610f7960218361121f565b9150610f84826116c9565b604082019050919050565b610f9881611302565b82525050565b610faf610faa82611302565b61140f565b82525050565b6000610fc18285610f9e565b602082019150610fd18284610e02565b6014820191508190509392505050565b6000602082019050610ff66000830184610de4565b92915050565b600060a0820190506110116000830188610df3565b61101e6020830187610df3565b61102b6040830186610f8f565b6110386060830185610f8f565b818103608083015261104a8184610e28565b90509695505050505050565b600060208201905061106b6000830184610e19565b92915050565b6000602082019050818103600083015261108b8184610e61565b905092915050565b600060208201905081810360008301526110ac81610e9a565b9050919050565b600060208201905081810360008301526110cc81610ebd565b9050919050565b600060208201905081810360008301526110ec81610ee0565b9050919050565b6000602082019050818103600083015261110c81610f03565b9050919050565b6000602082019050818103600083015261112c81610f26565b9050919050565b6000602082019050818103600083015261114c81610f49565b9050919050565b6000602082019050818103600083015261116c81610f6c565b9050919050565b60006020820190506111886000830184610f8f565b92915050565b60006040820190506111a36000830185610f8f565b6111b06020830184610f8f565b9392505050565b60006060820190506111cc6000830186610f8f565b6111d96020830185610f8f565b6111e66040830184610f8f565b949350505050565b6000604051905090565b600081519050919050565b600081519050919050565b600082825260208201905092915050565b600082825260208201905092915050565b600061123b82611302565b915061124683611302565b9250827fffffffffffffffffffffffffffffffffffffffffffffffffffffffffffffffff0382111561127b5761127a61144a565b5b828201905092915050565b6000611291826112e2565b9050919050565b60006112a3826112e2565b9050919050565b60008115159050919050565b60007fffffffff0000000000000000000000000000000000000000000000000000000082169050919050565b600073ffffffffffffffffffffffffffffffffffffffff82169050919050565b6000819050919050565b60005b8381101561132a57808201518184015260208101905061130f565b83811115611339576000848401525b50505050565b6000600282049050600182168061135757607f821691505b6020821081141561136b5761136a6114a8565b5b50919050565b61137a8261155c565b810181811067ffffffffffffffff8211171561139957611398611506565b5b80604052505050565b60006113ad82611302565b91507fffffffffffffffffffffffffffffffffffffffffffffffffffffffffffffffff8214156113e0576113df61144a565b5b600182019050919050565b60006113f6826113fd565b9050919050565b60006114088261156d565b9050919050565b6000819050919050565b600061142482611302565b915061142f83611302565b92508261143f5761143e611479565b5b828206905092915050565b7f4e487b7100000000000000000000000000000000000000000000000000000000600052601160045260246000fd5b7f4e487b7100000000000000000000000000000000000000000000000000000000600052601260045260246000fd5b7f4e487b7100000000000000000000000000000000000000000000000000000000600052602260045260246000fd5b7f4e487b7100000000000000000000000000000000000000000000000000000000600052603260045260246000fd5b7f4e487b7100000000000000000000000000000000000000000000000000000000600052604160045260246000fd5b600060033d11156115545760046000803e61155160005161157a565b90505b90565b600080fd5b6000601f19601f8301169050919050565b60008160601b9050919050565b60008160e01c9050919050565b7f455243313135353a207472616e7366657220746f206e6f6e204552433131353560008201527f526563656976657220696d706c656d656e746572000000000000000000000000602082015250565b7f455243313135353a204552433131353552656365697665722072656a6563746560008201527f6420746f6b656e73000000000000000000000000000000000000000000000000602082015250565b7f44726f707369746520697320616c72656164792052756e6e696e670000000000600082015250565b7f44726f707369746520697320616c72656164792053746f707065640000000000600082015250565b7f4f6e79784e6674204f776e65722063616e204163636573730000000000000000600082015250565b7f436f6e7472616374206973205061757365640000000000000000000000000000600082015250565b7f455243313135353a206d696e7420746f20746865207a65726f2061646472657360008201527f7300000000000000000000000000000000000000000000000000000000000000602082015250565b600060443d1015611728576117ab565b6117306111ee565b60043d036004823e80513d602482011167ffffffffffffffff821117156117585750506117ab565b808201805167ffffffffffffffff81111561177657505050506117ab565b80602083010160043d0385018111156117935750505050506117ab565b6117a282602001850186611371565b82955050505050505b90565b6117b781611286565b81146117c257600080fd5b50565b6117ce816112b6565b81146117d957600080fd5b5056fea2646970667358221220f4e4493fd47310dbbb14150d8a7a1ccbc2fbc02624674e73813304cab916f5d564736f6c63430008070033",
					"opcodes": "PUSH1 0x80 PUSH1 0x40 MSTORE PUSH1 0x40 MLOAD DUP1 PUSH1 0x20 ADD PUSH1 0x40 MSTORE DUP1 PUSH1 0x0 DUP2 MSTORE POP PUSH1 0x2 SWAP1 DUP1 MLOAD SWAP1 PUSH1 0x20 ADD SWAP1 PUSH3 0x2B SWAP3 SWAP2 SWAP1 PUSH3 0x103 JUMP JUMPDEST POP PUSH1 0x1 PUSH1 0xA PUSH1 0x0 PUSH2 0x100 EXP DUP2 SLOAD DUP2 PUSH1 0xFF MUL NOT AND SWAP1 DUP4 ISZERO ISZERO MUL OR SWAP1 SSTORE POP CALLVALUE DUP1 ISZERO PUSH3 0x54 JUMPI PUSH1 0x0 DUP1 REVERT JUMPDEST POP PUSH1 0x40 MLOAD PUSH3 0x1CB9 CODESIZE SUB DUP1 PUSH3 0x1CB9 DUP4 CODECOPY DUP2 DUP2 ADD PUSH1 0x40 MSTORE DUP2 ADD SWAP1 PUSH3 0x7A SWAP2 SWAP1 PUSH3 0x2C2 JUMP JUMPDEST DUP1 PUSH1 0xB SWAP1 DUP1 MLOAD SWAP1 PUSH1 0x20 ADD SWAP1 PUSH3 0x92 SWAP3 SWAP2 SWAP1 PUSH3 0x194 JUMP JUMPDEST POP CALLER PUSH1 0xA PUSH1 0x1 PUSH2 0x100 EXP DUP2 SLOAD DUP2 PUSH20 0xFFFFFFFFFFFFFFFFFFFFFFFFFFFFFFFFFFFFFFFF MUL NOT AND SWAP1 DUP4 PUSH20 0xFFFFFFFFFFFFFFFFFFFFFFFFFFFFFFFFFFFFFFFF AND MUL OR SWAP1 SSTORE POP PUSH1 0x0 PUSH1 0x3 DUP2 SWAP1 SSTORE POP PUSH1 0x1 PUSH1 0x4 DUP2 SWAP1 SSTORE POP PUSH1 0x0 PUSH1 0x5 DUP2 SWAP1 SSTORE POP PUSH1 0x0 PUSH1 0x6 DUP2 SWAP1 SSTORE POP PUSH1 0x0 PUSH1 0x7 DUP2 SWAP1 SSTORE POP POP PUSH3 0x497 JUMP JUMPDEST DUP3 DUP1 SLOAD PUSH3 0x111 SWAP1 PUSH3 0x3A8 JUMP JUMPDEST SWAP1 PUSH1 0x0 MSTORE PUSH1 0x20 PUSH1 0x0 KECCAK256 SWAP1 PUSH1 0x1F ADD PUSH1 0x20 SWAP1 DIV DUP2 ADD SWAP3 DUP3 PUSH3 0x135 JUMPI PUSH1 0x0 DUP6 SSTORE PUSH3 0x181 JUMP JUMPDEST DUP3 PUSH1 0x1F LT PUSH3 0x150 JUMPI DUP1 MLOAD PUSH1 0xFF NOT AND DUP4 DUP1 ADD OR DUP6 SSTORE PUSH3 0x181 JUMP JUMPDEST DUP3 DUP1 ADD PUSH1 0x1 ADD DUP6 SSTORE DUP3 ISZERO PUSH3 0x181 JUMPI SWAP2 DUP3 ADD JUMPDEST DUP3 DUP2 GT ISZERO PUSH3 0x180 JUMPI DUP3 MLOAD DUP3 SSTORE SWAP2 PUSH1 0x20 ADD SWAP2 SWAP1 PUSH1 0x1 ADD SWAP1 PUSH3 0x163 JUMP JUMPDEST JUMPDEST POP SWAP1 POP PUSH3 0x190 SWAP2 SWAP1 PUSH3 0x225 JUMP JUMPDEST POP SWAP1 JUMP JUMPDEST DUP3 DUP1 SLOAD PUSH3 0x1A2 SWAP1 PUSH3 0x3A8 JUMP JUMPDEST SWAP1 PUSH1 0x0 MSTORE PUSH1 0x20 PUSH1 0x0 KECCAK256 SWAP1 PUSH1 0x1F ADD PUSH1 0x20 SWAP1 DIV DUP2 ADD SWAP3 DUP3 PUSH3 0x1C6 JUMPI PUSH1 0x0 DUP6 SSTORE PUSH3 0x212 JUMP JUMPDEST DUP3 PUSH1 0x1F LT PUSH3 0x1E1 JUMPI DUP1 MLOAD PUSH1 0xFF NOT AND DUP4 DUP1 ADD OR DUP6 SSTORE PUSH3 0x212 JUMP JUMPDEST DUP3 DUP1 ADD PUSH1 0x1 ADD DUP6 SSTORE DUP3 ISZERO PUSH3 0x212 JUMPI SWAP2 DUP3 ADD JUMPDEST DUP3 DUP2 GT ISZERO PUSH3 0x211 JUMPI DUP3 MLOAD DUP3 SSTORE SWAP2 PUSH1 0x20 ADD SWAP2 SWAP1 PUSH1 0x1 ADD SWAP1 PUSH3 0x1F4 JUMP JUMPDEST JUMPDEST POP SWAP1 POP PUSH3 0x221 SWAP2 SWAP1 PUSH3 0x225 JUMP JUMPDEST POP SWAP1 JUMP JUMPDEST JUMPDEST DUP1 DUP3 GT ISZERO PUSH3 0x240 JUMPI PUSH1 0x0 DUP2 PUSH1 0x0 SWAP1 SSTORE POP PUSH1 0x1 ADD PUSH3 0x226 JUMP JUMPDEST POP SWAP1 JUMP JUMPDEST PUSH1 0x0 PUSH3 0x25B PUSH3 0x255 DUP5 PUSH3 0x33C JUMP JUMPDEST PUSH3 0x313 JUMP JUMPDEST SWAP1 POP DUP3 DUP2 MSTORE PUSH1 0x20 DUP2 ADD DUP5 DUP5 DUP5 ADD GT ISZERO PUSH3 0x27A JUMPI PUSH3 0x279 PUSH3 0x477 JUMP JUMPDEST JUMPDEST PUSH3 0x287 DUP5 DUP3 DUP6 PUSH3 0x372 JUMP JUMPDEST POP SWAP4 SWAP3 POP POP POP JUMP JUMPDEST PUSH1 0x0 DUP3 PUSH1 0x1F DUP4 ADD SLT PUSH3 0x2A7 JUMPI PUSH3 0x2A6 PUSH3 0x472 JUMP JUMPDEST JUMPDEST DUP2 MLOAD PUSH3 0x2B9 DUP5 DUP3 PUSH1 0x20 DUP7 ADD PUSH3 0x244 JUMP JUMPDEST SWAP2 POP POP SWAP3 SWAP2 POP POP JUMP JUMPDEST PUSH1 0x0 PUSH1 0x20 DUP3 DUP5 SUB SLT ISZERO PUSH3 0x2DB JUMPI PUSH3 0x2DA PUSH3 0x481 JUMP JUMPDEST JUMPDEST PUSH1 0x0 DUP3 ADD MLOAD PUSH8 0xFFFFFFFFFFFFFFFF DUP2 GT ISZERO PUSH3 0x2FC JUMPI PUSH3 0x2FB PUSH3 0x47C JUMP JUMPDEST JUMPDEST PUSH3 0x30A DUP5 DUP3 DUP6 ADD PUSH3 0x28F JUMP JUMPDEST SWAP2 POP POP SWAP3 SWAP2 POP POP JUMP JUMPDEST PUSH1 0x0 PUSH3 0x31F PUSH3 0x332 JUMP JUMPDEST SWAP1 POP PUSH3 0x32D DUP3 DUP3 PUSH3 0x3DE JUMP JUMPDEST SWAP2 SWAP1 POP JUMP JUMPDEST PUSH1 0x0 PUSH1 0x40 MLOAD SWAP1 POP SWAP1 JUMP JUMPDEST PUSH1 0x0 PUSH8 0xFFFFFFFFFFFFFFFF DUP3 GT ISZERO PUSH3 0x35A JUMPI PUSH3 0x359 PUSH3 0x443 JUMP JUMPDEST JUMPDEST PUSH3 0x365 DUP3 PUSH3 0x486 JUMP JUMPDEST SWAP1 POP PUSH1 0x20 DUP2 ADD SWAP1 POP SWAP2 SWAP1 POP JUMP JUMPDEST PUSH1 0x0 JUMPDEST DUP4 DUP2 LT ISZERO PUSH3 0x392 JUMPI DUP1 DUP3 ADD MLOAD DUP2 DUP5 ADD MSTORE PUSH1 0x20 DUP2 ADD SWAP1 POP PUSH3 0x375 JUMP JUMPDEST DUP4 DUP2 GT ISZERO PUSH3 0x3A2 JUMPI PUSH1 0x0 DUP5 DUP5 ADD MSTORE JUMPDEST POP POP POP POP JUMP JUMPDEST PUSH1 0x0 PUSH1 0x2 DUP3 DIV SWAP1 POP PUSH1 0x1 DUP3 AND DUP1 PUSH3 0x3C1 JUMPI PUSH1 0x7F DUP3 AND SWAP2 POP JUMPDEST PUSH1 0x20 DUP3 LT DUP2 EQ ISZERO PUSH3 0x3D8 JUMPI PUSH3 0x3D7 PUSH3 0x414 JUMP JUMPDEST JUMPDEST POP SWAP2 SWAP1 POP JUMP JUMPDEST PUSH3 0x3E9 DUP3 PUSH3 0x486 JUMP JUMPDEST DUP2 ADD DUP2 DUP2 LT PUSH8 0xFFFFFFFFFFFFFFFF DUP3 GT OR ISZERO PUSH3 0x40B JUMPI PUSH3 0x40A PUSH3 0x443 JUMP JUMPDEST JUMPDEST DUP1 PUSH1 0x40 MSTORE POP POP POP JUMP JUMPDEST PUSH32 0x4E487B7100000000000000000000000000000000000000000000000000000000 PUSH1 0x0 MSTORE PUSH1 0x22 PUSH1 0x4 MSTORE PUSH1 0x24 PUSH1 0x0 REVERT JUMPDEST PUSH32 0x4E487B7100000000000000000000000000000000000000000000000000000000 PUSH1 0x0 MSTORE PUSH1 0x41 PUSH1 0x4 MSTORE PUSH1 0x24 PUSH1 0x0 REVERT JUMPDEST PUSH1 0x0 DUP1 REVERT JUMPDEST PUSH1 0x0 DUP1 REVERT JUMPDEST PUSH1 0x0 DUP1 REVERT JUMPDEST PUSH1 0x0 DUP1 REVERT JUMPDEST PUSH1 0x0 PUSH1 0x1F NOT PUSH1 0x1F DUP4 ADD AND SWAP1 POP SWAP2 SWAP1 POP JUMP JUMPDEST PUSH2 0x1812 DUP1 PUSH3 0x4A7 PUSH1 0x0 CODECOPY PUSH1 0x0 RETURN INVALID PUSH1 0x80 PUSH1 0x40 MSTORE CALLVALUE DUP1 ISZERO PUSH2 0x10 JUMPI PUSH1 0x0 DUP1 REVERT JUMPDEST POP PUSH1 0x4 CALLDATASIZE LT PUSH2 0x88 JUMPI PUSH1 0x0 CALLDATALOAD PUSH1 0xE0 SHR DUP1 PUSH4 0x7E1EAABF GT PUSH2 0x5B JUMPI DUP1 PUSH4 0x7E1EAABF EQ PUSH2 0xF3 JUMPI DUP1 PUSH4 0xAA90C726 EQ PUSH2 0x111 JUMPI DUP1 PUSH4 0xB4A99A4E EQ PUSH2 0x11B JUMPI DUP1 PUSH4 0xD4C892C4 EQ PUSH2 0x139 JUMPI PUSH2 0x88 JUMP JUMPDEST DUP1 PUSH4 0x1309A563 EQ PUSH2 0x8D JUMPI DUP1 PUSH4 0x15460259 EQ PUSH2 0xAB JUMPI DUP1 PUSH4 0x322F0ECE EQ PUSH2 0xB5 JUMPI DUP1 PUSH4 0x60DAA851 EQ PUSH2 0xD3 JUMPI JUMPDEST PUSH1 0x0 DUP1 REVERT JUMPDEST PUSH2 0x95 PUSH2 0x169 JUMP JUMPDEST PUSH1 0x40 MLOAD PUSH2 0xA2 SWAP2 SWAP1 PUSH2 0x1056 JUMP JUMPDEST PUSH1 0x40 MLOAD DUP1 SWAP2 SUB SWAP1 RETURN JUMPDEST PUSH2 0xB3 PUSH2 0x17C JUMP JUMPDEST STOP JUMPDEST PUSH2 0xBD PUSH2 0x286 JUMP JUMPDEST PUSH1 0x40 MLOAD PUSH2 0xCA SWAP2 SWAP1 PUSH2 0x1173 JUMP JUMPDEST PUSH1 0x40 MLOAD DUP1 SWAP2 SUB SWAP1 RETURN JUMPDEST PUSH2 0xDB PUSH2 0x28C JUMP JUMPDEST PUSH1 0x40 MLOAD PUSH2 0xEA SWAP4 SWAP3 SWAP2 SWAP1 PUSH2 0x11B7 JUMP JUMPDEST PUSH1 0x40 MLOAD DUP1 SWAP2 SUB SWAP1 RETURN JUMPDEST PUSH2 0xFB PUSH2 0x33C JUMP JUMPDEST PUSH1 0x40 MLOAD PUSH2 0x108 SWAP2 SWAP1 PUSH2 0x1173 JUMP JUMPDEST PUSH1 0x40 MLOAD DUP1 SWAP2 SUB SWAP1 RETURN JUMPDEST PUSH2 0x119 PUSH2 0x717 JUMP JUMPDEST STOP JUMPDEST PUSH2 0x123 PUSH2 0x821 JUMP JUMPDEST PUSH1 0x40 MLOAD PUSH2 0x130 SWAP2 SWAP1 PUSH2 0xFE1 JUMP JUMPDEST PUSH1 0x40 MLOAD DUP1 SWAP2 SUB SWAP1 RETURN JUMPDEST PUSH2 0x153 PUSH1 0x4 DUP1 CALLDATASIZE SUB DUP2 ADD SWAP1 PUSH2 0x14E SWAP2 SWAP1 PUSH2 0xD8A JUMP JUMPDEST PUSH2 0x847 JUMP JUMPDEST PUSH1 0x40 MLOAD PUSH2 0x160 SWAP2 SWAP1 PUSH2 0x1173 JUMP JUMPDEST PUSH1 0x40 MLOAD DUP1 SWAP2 SUB SWAP1 RETURN JUMPDEST PUSH1 0xA PUSH1 0x0 SWAP1 SLOAD SWAP1 PUSH2 0x100 EXP SWAP1 DIV PUSH1 0xFF AND DUP2 JUMP JUMPDEST PUSH1 0xA PUSH1 0x1 SWAP1 SLOAD SWAP1 PUSH2 0x100 EXP SWAP1 DIV PUSH20 0xFFFFFFFFFFFFFFFFFFFFFFFFFFFFFFFFFFFFFFFF AND PUSH20 0xFFFFFFFFFFFFFFFFFFFFFFFFFFFFFFFFFFFFFFFF AND PUSH2 0x1BD PUSH2 0x85F JUMP JUMPDEST PUSH20 0xFFFFFFFFFFFFFFFFFFFFFFFFFFFFFFFFFFFFFFFF AND EQ PUSH2 0x213 JUMPI PUSH1 0x40 MLOAD PUSH32 0x8C379A000000000000000000000000000000000000000000000000000000000 DUP2 MSTORE PUSH1 0x4 ADD PUSH2 0x20A SWAP1 PUSH2 0x1113 JUMP JUMPDEST PUSH1 0x40 MLOAD DUP1 SWAP2 SUB SWAP1 REVERT JUMPDEST PUSH1 0x1 ISZERO ISZERO PUSH1 0xA PUSH1 0x0 SWAP1 SLOAD SWAP1 PUSH2 0x100 EXP SWAP1 DIV PUSH1 0xFF AND ISZERO ISZERO EQ PUSH2 0x269 JUMPI PUSH1 0x40 MLOAD PUSH32 0x8C379A000000000000000000000000000000000000000000000000000000000 DUP2 MSTORE PUSH1 0x4 ADD PUSH2 0x260 SWAP1 PUSH2 0x10D3 JUMP JUMPDEST PUSH1 0x40 MLOAD DUP1 SWAP2 SUB SWAP1 REVERT JUMPDEST PUSH1 0x0 PUSH1 0xA PUSH1 0x0 PUSH2 0x100 EXP DUP2 SLOAD DUP2 PUSH1 0xFF MUL NOT AND SWAP1 DUP4 ISZERO ISZERO MUL OR SWAP1 SSTORE POP JUMP JUMPDEST PUSH1 0x3 SLOAD DUP2 JUMP JUMPDEST PUSH1 0x0 DUP1 PUSH1 0x0 PUSH1 0xA PUSH1 0x1 SWAP1 SLOAD SWAP1 PUSH2 0x100 EXP SWAP1 DIV PUSH20 0xFFFFFFFFFFFFFFFFFFFFFFFFFFFFFFFFFFFFFFFF AND PUSH20 0xFFFFFFFFFFFFFFFFFFFFFFFFFFFFFFFFFFFFFFFF AND PUSH2 0x2D2 PUSH2 0x85F JUMP JUMPDEST PUSH20 0xFFFFFFFFFFFFFFFFFFFFFFFFFFFFFFFFFFFFFFFF AND EQ PUSH2 0x328 JUMPI PUSH1 0x40 MLOAD PUSH32 0x8C379A000000000000000000000000000000000000000000000000000000000 DUP2 MSTORE PUSH1 0x4 ADD PUSH2 0x31F SWAP1 PUSH2 0x1113 JUMP JUMPDEST PUSH1 0x40 MLOAD DUP1 SWAP2 SUB SWAP1 REVERT JUMPDEST PUSH1 0x5 SLOAD PUSH1 0x6 SLOAD PUSH1 0x7 SLOAD SWAP3 POP SWAP3 POP SWAP3 POP SWAP1 SWAP2 SWAP3 JUMP JUMPDEST PUSH1 0x0 DUP1 ISZERO ISZERO PUSH1 0xA PUSH1 0x0 SWAP1 SLOAD SWAP1 PUSH2 0x100 EXP SWAP1 DIV PUSH1 0xFF AND ISZERO ISZERO EQ PUSH2 0x393 JUMPI PUSH1 0x40 MLOAD PUSH32 0x8C379A000000000000000000000000000000000000000000000000000000000 DUP2 MSTORE PUSH1 0x4 ADD PUSH2 0x38A SWAP1 PUSH2 0x1133 JUMP JUMPDEST PUSH1 0x40 MLOAD DUP1 SWAP2 SUB SWAP1 REVERT JUMPDEST PUSH1 0x0 PUSH2 0x39D PUSH2 0x867 JUMP JUMPDEST SWAP1 POP PUSH1 0x0 DUP2 EQ DUP1 ISZERO PUSH2 0x3B1 JUMPI POP PUSH1 0x96 PUSH1 0x5 SLOAD LT JUMPDEST ISZERO PUSH2 0x41F JUMPI PUSH1 0x40 MLOAD DUP1 PUSH1 0x40 ADD PUSH1 0x40 MSTORE DUP1 PUSH1 0x8 DUP2 MSTORE PUSH1 0x20 ADD PUSH32 0x506C6174696E756D000000000000000000000000000000000000000000000000 DUP2 MSTORE POP PUSH1 0x2 SWAP1 DUP1 MLOAD SWAP1 PUSH1 0x20 ADD SWAP1 PUSH2 0x401 SWAP3 SWAP2 SWAP1 PUSH2 0xCBD JUMP JUMPDEST POP PUSH1 0x5 PUSH1 0x0 DUP2 SLOAD DUP1 SWAP3 SWAP2 SWAP1 PUSH2 0x415 SWAP1 PUSH2 0x13A2 JUMP JUMPDEST SWAP2 SWAP1 POP SSTORE POP PUSH2 0x60E JUMP JUMPDEST PUSH1 0x1 DUP2 GT ISZERO DUP1 ISZERO PUSH2 0x433 JUMPI POP PUSH2 0x15F PUSH1 0x6 SLOAD LT JUMPDEST DUP1 ISZERO PUSH2 0x441 JUMPI POP PUSH1 0x96 PUSH1 0x5 SLOAD EQ JUMPDEST ISZERO PUSH2 0x4AF JUMPI PUSH1 0x40 MLOAD DUP1 PUSH1 0x40 ADD PUSH1 0x40 MSTORE DUP1 PUSH1 0x4 DUP2 MSTORE PUSH1 0x20 ADD PUSH32 0x476F6C6400000000000000000000000000000000000000000000000000000000 DUP2 MSTORE POP PUSH1 0x2 SWAP1 DUP1 MLOAD SWAP1 PUSH1 0x20 ADD SWAP1 PUSH2 0x491 SWAP3 SWAP2 SWAP1 PUSH2 0xCBD JUMP JUMPDEST POP PUSH1 0x6 PUSH1 0x0 DUP2 SLOAD DUP1 SWAP3 SWAP2 SWAP1 PUSH2 0x4A5 SWAP1 PUSH2 0x13A2 JUMP JUMPDEST SWAP2 SWAP1 POP SSTORE POP PUSH2 0x60D JUMP JUMPDEST PUSH1 0x2 DUP2 EQ DUP1 ISZERO PUSH2 0x4C3 JUMPI POP PUSH2 0x1F4 PUSH1 0x7 SLOAD GT ISZERO JUMPDEST ISZERO PUSH2 0x531 JUMPI PUSH1 0x40 MLOAD DUP1 PUSH1 0x40 ADD PUSH1 0x40 MSTORE DUP1 PUSH1 0x6 DUP2 MSTORE PUSH1 0x20 ADD PUSH32 0x53696C7665720000000000000000000000000000000000000000000000000000 DUP2 MSTORE POP PUSH1 0x2 SWAP1 DUP1 MLOAD SWAP1 PUSH1 0x20 ADD SWAP1 PUSH2 0x513 SWAP3 SWAP2 SWAP1 PUSH2 0xCBD JUMP JUMPDEST POP PUSH1 0x7 PUSH1 0x0 DUP2 SLOAD DUP1 SWAP3 SWAP2 SWAP1 PUSH2 0x527 SWAP1 PUSH2 0x13A2 JUMP JUMPDEST SWAP2 SWAP1 POP SSTORE POP PUSH2 0x60C JUMP JUMPDEST PUSH2 0x15E PUSH1 0x6 SLOAD LT ISZERO PUSH2 0x5A6 JUMPI PUSH1 0x40 MLOAD DUP1 PUSH1 0x40 ADD PUSH1 0x40 MSTORE DUP1 PUSH1 0x4 DUP2 MSTORE PUSH1 0x20 ADD PUSH32 0x476F6C6400000000000000000000000000000000000000000000000000000000 DUP2 MSTORE POP PUSH1 0x2 SWAP1 DUP1 MLOAD SWAP1 PUSH1 0x20 ADD SWAP1 PUSH2 0x588 SWAP3 SWAP2 SWAP1 PUSH2 0xCBD JUMP JUMPDEST POP PUSH1 0x6 PUSH1 0x0 DUP2 SLOAD DUP1 SWAP3 SWAP2 SWAP1 PUSH2 0x59C SWAP1 PUSH2 0x13A2 JUMP JUMPDEST SWAP2 SWAP1 POP SSTORE POP PUSH2 0x60B JUMP JUMPDEST PUSH1 0x40 MLOAD DUP1 PUSH1 0x40 ADD PUSH1 0x40 MSTORE DUP1 PUSH1 0x8 DUP2 MSTORE PUSH1 0x20 ADD PUSH32 0x506C6174696E756D000000000000000000000000000000000000000000000000 DUP2 MSTORE POP PUSH1 0x2 SWAP1 DUP1 MLOAD SWAP1 PUSH1 0x20 ADD SWAP1 PUSH2 0x5F1 SWAP3 SWAP2 SWAP1 PUSH2 0xCBD JUMP JUMPDEST POP PUSH1 0x5 PUSH1 0x0 DUP2 SLOAD DUP1 SWAP3 SWAP2 SWAP1 PUSH2 0x605 SWAP1 PUSH2 0x13A2 JUMP JUMPDEST SWAP2 SWAP1 POP SSTORE POP JUMPDEST JUMPDEST JUMPDEST JUMPDEST PUSH2 0x6AD PUSH2 0x619 PUSH2 0x85F JUMP JUMPDEST DUP3 PUSH1 0x4 SLOAD PUSH1 0x2 DUP1 SLOAD PUSH2 0x62A SWAP1 PUSH2 0x133F JUMP JUMPDEST DUP1 PUSH1 0x1F ADD PUSH1 0x20 DUP1 SWAP2 DIV MUL PUSH1 0x20 ADD PUSH1 0x40 MLOAD SWAP1 DUP2 ADD PUSH1 0x40 MSTORE DUP1 SWAP3 SWAP2 SWAP1 DUP2 DUP2 MSTORE PUSH1 0x20 ADD DUP3 DUP1 SLOAD PUSH2 0x656 SWAP1 PUSH2 0x133F JUMP JUMPDEST DUP1 ISZERO PUSH2 0x6A3 JUMPI DUP1 PUSH1 0x1F LT PUSH2 0x678 JUMPI PUSH2 0x100 DUP1 DUP4 SLOAD DIV MUL DUP4 MSTORE SWAP2 PUSH1 0x20 ADD SWAP2 PUSH2 0x6A3 JUMP JUMPDEST DUP3 ADD SWAP2 SWAP1 PUSH1 0x0 MSTORE PUSH1 0x20 PUSH1 0x0 KECCAK256 SWAP1 JUMPDEST DUP2 SLOAD DUP2 MSTORE SWAP1 PUSH1 0x1 ADD SWAP1 PUSH1 0x20 ADD DUP1 DUP4 GT PUSH2 0x686 JUMPI DUP3 SWAP1 SUB PUSH1 0x1F AND DUP3 ADD SWAP2 JUMPDEST POP POP POP POP POP PUSH2 0x8AB JUMP JUMPDEST PUSH1 0x3 PUSH1 0x0 DUP2 SLOAD DUP1 SWAP3 SWAP2 SWAP1 PUSH2 0x6C0 SWAP1 PUSH2 0x13A2 JUMP JUMPDEST SWAP2 SWAP1 POP SSTORE POP DUP1 PUSH1 0x8 PUSH1 0x0 PUSH2 0x6D2 PUSH2 0x85F JUMP JUMPDEST PUSH20 0xFFFFFFFFFFFFFFFFFFFFFFFFFFFFFFFFFFFFFFFF AND PUSH20 0xFFFFFFFFFFFFFFFFFFFFFFFFFFFFFFFFFFFFFFFF AND DUP2 MSTORE PUSH1 0x20 ADD SWAP1 DUP2 MSTORE PUSH1 0x20 ADD PUSH1 0x0 KECCAK256 DUP2 SWAP1 SSTORE POP DUP1 SWAP2 POP POP SWAP1 JUMP JUMPDEST PUSH1 0xA PUSH1 0x1 SWAP1 SLOAD SWAP1 PUSH2 0x100 EXP SWAP1 DIV PUSH20 0xFFFFFFFFFFFFFFFFFFFFFFFFFFFFFFFFFFFFFFFF AND PUSH20 0xFFFFFFFFFFFFFFFFFFFFFFFFFFFFFFFFFFFFFFFF AND PUSH2 0x758 PUSH2 0x85F JUMP JUMPDEST PUSH20 0xFFFFFFFFFFFFFFFFFFFFFFFFFFFFFFFFFFFFFFFF AND EQ PUSH2 0x7AE JUMPI PUSH1 0x40 MLOAD PUSH32 0x8C379A000000000000000000000000000000000000000000000000000000000 DUP2 MSTORE PUSH1 0x4 ADD PUSH2 0x7A5 SWAP1 PUSH2 0x1113 JUMP JUMPDEST PUSH1 0x40 MLOAD DUP1 SWAP2 SUB SWAP1 REVERT JUMPDEST PUSH1 0x0 ISZERO ISZERO PUSH1 0xA PUSH1 0x0 SWAP1 SLOAD SWAP1 PUSH2 0x100 EXP SWAP1 DIV PUSH1 0xFF AND ISZERO ISZERO EQ PUSH2 0x804 JUMPI PUSH1 0x40 MLOAD PUSH32 0x8C379A000000000000000000000000000000000000000000000000000000000 DUP2 MSTORE PUSH1 0x4 ADD PUSH2 0x7FB SWAP1 PUSH2 0x10F3 JUMP JUMPDEST PUSH1 0x40 MLOAD DUP1 SWAP2 SUB SWAP1 REVERT JUMPDEST PUSH1 0x1 PUSH1 0xA PUSH1 0x0 PUSH2 0x100 EXP DUP2 SLOAD DUP2 PUSH1 0xFF MUL NOT AND SWAP1 DUP4 ISZERO ISZERO MUL OR SWAP1 SSTORE POP JUMP JUMPDEST PUSH1 0xA PUSH1 0x1 SWAP1 SLOAD SWAP1 PUSH2 0x100 EXP SWAP1 DIV PUSH20 0xFFFFFFFFFFFFFFFFFFFFFFFFFFFFFFFFFFFFFFFF AND DUP2 JUMP JUMPDEST PUSH1 0x8 PUSH1 0x20 MSTORE DUP1 PUSH1 0x0 MSTORE PUSH1 0x40 PUSH1 0x0 KECCAK256 PUSH1 0x0 SWAP2 POP SWAP1 POP SLOAD DUP2 JUMP JUMPDEST PUSH1 0x0 CALLER SWAP1 POP SWAP1 JUMP JUMPDEST PUSH1 0x0 DUP1 PUSH1 0x3 TIMESTAMP CALLER PUSH1 0x40 MLOAD PUSH1 0x20 ADD PUSH2 0x87F SWAP3 SWAP2 SWAP1 PUSH2 0xFB5 JUMP JUMPDEST PUSH1 0x40 MLOAD PUSH1 0x20 DUP2 DUP4 SUB SUB DUP2 MSTORE SWAP1 PUSH1 0x40 MSTORE DUP1 MLOAD SWAP1 PUSH1 0x20 ADD KECCAK256 PUSH1 0x0 SHR PUSH2 0x8A2 SWAP2 SWAP1 PUSH2 0x1419 JUMP JUMPDEST SWAP1 POP DUP1 SWAP2 POP POP SWAP1 JUMP JUMPDEST PUSH1 0x0 PUSH20 0xFFFFFFFFFFFFFFFFFFFFFFFFFFFFFFFFFFFFFFFF AND DUP5 PUSH20 0xFFFFFFFFFFFFFFFFFFFFFFFFFFFFFFFFFFFFFFFF AND EQ ISZERO PUSH2 0x91B JUMPI PUSH1 0x40 MLOAD PUSH32 0x8C379A000000000000000000000000000000000000000000000000000000000 DUP2 MSTORE PUSH1 0x4 ADD PUSH2 0x912 SWAP1 PUSH2 0x1153 JUMP JUMPDEST PUSH1 0x40 MLOAD DUP1 SWAP2 SUB SWAP1 REVERT JUMPDEST PUSH1 0x0 PUSH2 0x925 PUSH2 0x85F JUMP JUMPDEST SWAP1 POP PUSH2 0x946 DUP2 PUSH1 0x0 DUP8 PUSH2 0x937 DUP9 PUSH2 0xA41 JUMP JUMPDEST PUSH2 0x940 DUP9 PUSH2 0xA41 JUMP JUMPDEST DUP8 PUSH2 0xABB JUMP JUMPDEST DUP3 PUSH1 0x0 DUP1 DUP7 DUP2 MSTORE PUSH1 0x20 ADD SWAP1 DUP2 MSTORE PUSH1 0x20 ADD PUSH1 0x0 KECCAK256 PUSH1 0x0 DUP8 PUSH20 0xFFFFFFFFFFFFFFFFFFFFFFFFFFFFFFFFFFFFFFFF AND PUSH20 0xFFFFFFFFFFFFFFFFFFFFFFFFFFFFFFFFFFFFFFFF AND DUP2 MSTORE PUSH1 0x20 ADD SWAP1 DUP2 MSTORE PUSH1 0x20 ADD PUSH1 0x0 KECCAK256 PUSH1 0x0 DUP3 DUP3 SLOAD PUSH2 0x9A5 SWAP2 SWAP1 PUSH2 0x1230 JUMP JUMPDEST SWAP3 POP POP DUP2 SWAP1 SSTORE POP DUP5 PUSH20 0xFFFFFFFFFFFFFFFFFFFFFFFFFFFFFFFFFFFFFFFF AND PUSH1 0x0 PUSH20 0xFFFFFFFFFFFFFFFFFFFFFFFFFFFFFFFFFFFFFFFF AND DUP3 PUSH20 0xFFFFFFFFFFFFFFFFFFFFFFFFFFFFFFFFFFFFFFFF AND PUSH32 0xC3D58168C5AE7397731D063D5BBF3D657854427343F4C083240F7AACAA2D0F62 DUP8 DUP8 PUSH1 0x40 MLOAD PUSH2 0xA23 SWAP3 SWAP2 SWAP1 PUSH2 0x118E JUMP JUMPDEST PUSH1 0x40 MLOAD DUP1 SWAP2 SUB SWAP1 LOG4 PUSH2 0xA3A DUP2 PUSH1 0x0 DUP8 DUP8 DUP8 DUP8 PUSH2 0xAC3 JUMP JUMPDEST POP POP POP POP POP JUMP JUMPDEST PUSH1 0x60 PUSH1 0x0 PUSH1 0x1 PUSH8 0xFFFFFFFFFFFFFFFF DUP2 GT ISZERO PUSH2 0xA60 JUMPI PUSH2 0xA5F PUSH2 0x1506 JUMP JUMPDEST JUMPDEST PUSH1 0x40 MLOAD SWAP1 DUP1 DUP3 MSTORE DUP1 PUSH1 0x20 MUL PUSH1 0x20 ADD DUP3 ADD PUSH1 0x40 MSTORE DUP1 ISZERO PUSH2 0xA8E JUMPI DUP2 PUSH1 0x20 ADD PUSH1 0x20 DUP3 MUL DUP1 CALLDATASIZE DUP4 CALLDATACOPY DUP1 DUP3 ADD SWAP2 POP POP SWAP1 POP JUMPDEST POP SWAP1 POP DUP3 DUP2 PUSH1 0x0 DUP2 MLOAD DUP2 LT PUSH2 0xAA6 JUMPI PUSH2 0xAA5 PUSH2 0x14D7 JUMP JUMPDEST JUMPDEST PUSH1 0x20 MUL PUSH1 0x20 ADD ADD DUP2 DUP2 MSTORE POP POP DUP1 SWAP2 POP POP SWAP2 SWAP1 POP JUMP JUMPDEST POP POP POP POP POP POP JUMP JUMPDEST PUSH2 0xAE2 DUP5 PUSH20 0xFFFFFFFFFFFFFFFFFFFFFFFFFFFFFFFFFFFFFFFF AND PUSH2 0xCAA JUMP JUMPDEST ISZERO PUSH2 0xCA2 JUMPI DUP4 PUSH20 0xFFFFFFFFFFFFFFFFFFFFFFFFFFFFFFFFFFFFFFFF AND PUSH4 0xF23A6E61 DUP8 DUP8 DUP7 DUP7 DUP7 PUSH1 0x40 MLOAD DUP7 PUSH4 0xFFFFFFFF AND PUSH1 0xE0 SHL DUP2 MSTORE PUSH1 0x4 ADD PUSH2 0xB28 SWAP6 SWAP5 SWAP4 SWAP3 SWAP2 SWAP1 PUSH2 0xFFC JUMP JUMPDEST PUSH1 0x20 PUSH1 0x40 MLOAD DUP1 DUP4 SUB DUP2 PUSH1 0x0 DUP8 DUP1 EXTCODESIZE ISZERO DUP1 ISZERO PUSH2 0xB42 JUMPI PUSH1 0x0 DUP1 REVERT JUMPDEST POP GAS CALL SWAP3 POP POP POP DUP1 ISZERO PUSH2 0xB73 JUMPI POP PUSH1 0x40 MLOAD RETURNDATASIZE PUSH1 0x1F NOT PUSH1 0x1F DUP3 ADD AND DUP3 ADD DUP1 PUSH1 0x40 MSTORE POP DUP2 ADD SWAP1 PUSH2 0xB70 SWAP2 SWAP1 PUSH2 0xDB7 JUMP JUMPDEST PUSH1 0x1 JUMPDEST PUSH2 0xC19 JUMPI PUSH2 0xB7F PUSH2 0x1535 JUMP JUMPDEST DUP1 PUSH4 0x8C379A0 EQ ISZERO PUSH2 0xBDC JUMPI POP PUSH2 0xB94 PUSH2 0x1718 JUMP JUMPDEST DUP1 PUSH2 0xB9F JUMPI POP PUSH2 0xBDE JUMP JUMPDEST DUP1 PUSH1 0x40 MLOAD PUSH32 0x8C379A000000000000000000000000000000000000000000000000000000000 DUP2 MSTORE PUSH1 0x4 ADD PUSH2 0xBD3 SWAP2 SWAP1 PUSH2 0x1071 JUMP JUMPDEST PUSH1 0x40 MLOAD DUP1 SWAP2 SUB SWAP1 REVERT JUMPDEST POP JUMPDEST PUSH1 0x40 MLOAD PUSH32 0x8C379A000000000000000000000000000000000000000000000000000000000 DUP2 MSTORE PUSH1 0x4 ADD PUSH2 0xC10 SWAP1 PUSH2 0x1093 JUMP JUMPDEST PUSH1 0x40 MLOAD DUP1 SWAP2 SUB SWAP1 REVERT JUMPDEST PUSH4 0xF23A6E61 PUSH1 0xE0 SHL PUSH28 0xFFFFFFFFFFFFFFFFFFFFFFFFFFFFFFFFFFFFFFFFFFFFFFFFFFFFFFFF NOT AND DUP2 PUSH28 0xFFFFFFFFFFFFFFFFFFFFFFFFFFFFFFFFFFFFFFFFFFFFFFFFFFFFFFFF NOT AND EQ PUSH2 0xCA0 JUMPI PUSH1 0x40 MLOAD PUSH32 0x8C379A000000000000000000000000000000000000000000000000000000000 DUP2 MSTORE PUSH1 0x4 ADD PUSH2 0xC97 SWAP1 PUSH2 0x10B3 JUMP JUMPDEST PUSH1 0x40 MLOAD DUP1 SWAP2 SUB SWAP1 REVERT JUMPDEST POP JUMPDEST POP POP POP POP POP POP JUMP JUMPDEST PUSH1 0x0 DUP1 DUP3 EXTCODESIZE SWAP1 POP PUSH1 0x0 DUP2 GT SWAP2 POP POP SWAP2 SWAP1 POP JUMP JUMPDEST DUP3 DUP1 SLOAD PUSH2 0xCC9 SWAP1 PUSH2 0x133F JUMP JUMPDEST SWAP1 PUSH1 0x0 MSTORE PUSH1 0x20 PUSH1 0x0 KECCAK256 SWAP1 PUSH1 0x1F ADD PUSH1 0x20 SWAP1 DIV DUP2 ADD SWAP3 DUP3 PUSH2 0xCEB JUMPI PUSH1 0x0 DUP6 SSTORE PUSH2 0xD32 JUMP JUMPDEST DUP3 PUSH1 0x1F LT PUSH2 0xD04 JUMPI DUP1 MLOAD PUSH1 0xFF NOT AND DUP4 DUP1 ADD OR DUP6 SSTORE PUSH2 0xD32 JUMP JUMPDEST DUP3 DUP1 ADD PUSH1 0x1 ADD DUP6 SSTORE DUP3 ISZERO PUSH2 0xD32 JUMPI SWAP2 DUP3 ADD JUMPDEST DUP3 DUP2 GT ISZERO PUSH2 0xD31 JUMPI DUP3 MLOAD DUP3 SSTORE SWAP2 PUSH1 0x20 ADD SWAP2 SWAP1 PUSH1 0x1 ADD SWAP1 PUSH2 0xD16 JUMP JUMPDEST JUMPDEST POP SWAP1 POP PUSH2 0xD3F SWAP2 SWAP1 PUSH2 0xD43 JUMP JUMPDEST POP SWAP1 JUMP JUMPDEST JUMPDEST DUP1 DUP3 GT ISZERO PUSH2 0xD5C JUMPI PUSH1 0x0 DUP2 PUSH1 0x0 SWAP1 SSTORE POP PUSH1 0x1 ADD PUSH2 0xD44 JUMP JUMPDEST POP SWAP1 JUMP JUMPDEST PUSH1 0x0 DUP2 CALLDATALOAD SWAP1 POP PUSH2 0xD6F DUP2 PUSH2 0x17AE JUMP JUMPDEST SWAP3 SWAP2 POP POP JUMP JUMPDEST PUSH1 0x0 DUP2 MLOAD SWAP1 POP PUSH2 0xD84 DUP2 PUSH2 0x17C5 JUMP JUMPDEST SWAP3 SWAP2 POP POP JUMP JUMPDEST PUSH1 0x0 PUSH1 0x20 DUP3 DUP5 SUB SLT ISZERO PUSH2 0xDA0 JUMPI PUSH2 0xD9F PUSH2 0x1557 JUMP JUMPDEST JUMPDEST PUSH1 0x0 PUSH2 0xDAE DUP5 DUP3 DUP6 ADD PUSH2 0xD60 JUMP JUMPDEST SWAP2 POP POP SWAP3 SWAP2 POP POP JUMP JUMPDEST PUSH1 0x0 PUSH1 0x20 DUP3 DUP5 SUB SLT ISZERO PUSH2 0xDCD JUMPI PUSH2 0xDCC PUSH2 0x1557 JUMP JUMPDEST JUMPDEST PUSH1 0x0 PUSH2 0xDDB DUP5 DUP3 DUP6 ADD PUSH2 0xD75 JUMP JUMPDEST SWAP2 POP POP SWAP3 SWAP2 POP POP JUMP JUMPDEST PUSH2 0xDED DUP2 PUSH2 0x1298 JUMP JUMPDEST DUP3 MSTORE POP POP JUMP JUMPDEST PUSH2 0xDFC DUP2 PUSH2 0x1286 JUMP JUMPDEST DUP3 MSTORE POP POP JUMP JUMPDEST PUSH2 0xE13 PUSH2 0xE0E DUP3 PUSH2 0x1286 JUMP JUMPDEST PUSH2 0x13EB JUMP JUMPDEST DUP3 MSTORE POP POP JUMP JUMPDEST PUSH2 0xE22 DUP2 PUSH2 0x12AA JUMP JUMPDEST DUP3 MSTORE POP POP JUMP JUMPDEST PUSH1 0x0 PUSH2 0xE33 DUP3 PUSH2 0x11F8 JUMP JUMPDEST PUSH2 0xE3D DUP2 DUP6 PUSH2 0x120E JUMP JUMPDEST SWAP4 POP PUSH2 0xE4D DUP2 DUP6 PUSH1 0x20 DUP7 ADD PUSH2 0x130C JUMP JUMPDEST PUSH2 0xE56 DUP2 PUSH2 0x155C JUMP JUMPDEST DUP5 ADD SWAP2 POP POP SWAP3 SWAP2 POP POP JUMP JUMPDEST PUSH1 0x0 PUSH2 0xE6C DUP3 PUSH2 0x1203 JUMP JUMPDEST PUSH2 0xE76 DUP2 DUP6 PUSH2 0x121F JUMP JUMPDEST SWAP4 POP PUSH2 0xE86 DUP2 DUP6 PUSH1 0x20 DUP7 ADD PUSH2 0x130C JUMP JUMPDEST PUSH2 0xE8F DUP2 PUSH2 0x155C JUMP JUMPDEST DUP5 ADD SWAP2 POP POP SWAP3 SWAP2 POP POP JUMP JUMPDEST PUSH1 0x0 PUSH2 0xEA7 PUSH1 0x34 DUP4 PUSH2 0x121F JUMP JUMPDEST SWAP2 POP PUSH2 0xEB2 DUP3 PUSH2 0x1587 JUMP JUMPDEST PUSH1 0x40 DUP3 ADD SWAP1 POP SWAP2 SWAP1 POP JUMP JUMPDEST PUSH1 0x0 PUSH2 0xECA PUSH1 0x28 DUP4 PUSH2 0x121F JUMP JUMPDEST SWAP2 POP PUSH2 0xED5 DUP3 PUSH2 0x15D6 JUMP JUMPDEST PUSH1 0x40 DUP3 ADD SWAP1 POP SWAP2 SWAP1 POP JUMP JUMPDEST PUSH1 0x0 PUSH2 0xEED PUSH1 0x1B DUP4 PUSH2 0x121F JUMP JUMPDEST SWAP2 POP PUSH2 0xEF8 DUP3 PUSH2 0x1625 JUMP JUMPDEST PUSH1 0x20 DUP3 ADD SWAP1 POP SWAP2 SWAP1 POP JUMP JUMPDEST PUSH1 0x0 PUSH2 0xF10 PUSH1 0x1B DUP4 PUSH2 0x121F JUMP JUMPDEST SWAP2 POP PUSH2 0xF1B DUP3 PUSH2 0x164E JUMP JUMPDEST PUSH1 0x20 DUP3 ADD SWAP1 POP SWAP2 SWAP1 POP JUMP JUMPDEST PUSH1 0x0 PUSH2 0xF33 PUSH1 0x18 DUP4 PUSH2 0x121F JUMP JUMPDEST SWAP2 POP PUSH2 0xF3E DUP3 PUSH2 0x1677 JUMP JUMPDEST PUSH1 0x20 DUP3 ADD SWAP1 POP SWAP2 SWAP1 POP JUMP JUMPDEST PUSH1 0x0 PUSH2 0xF56 PUSH1 0x12 DUP4 PUSH2 0x121F JUMP JUMPDEST SWAP2 POP PUSH2 0xF61 DUP3 PUSH2 0x16A0 JUMP JUMPDEST PUSH1 0x20 DUP3 ADD SWAP1 POP SWAP2 SWAP1 POP JUMP JUMPDEST PUSH1 0x0 PUSH2 0xF79 PUSH1 0x21 DUP4 PUSH2 0x121F JUMP JUMPDEST SWAP2 POP PUSH2 0xF84 DUP3 PUSH2 0x16C9 JUMP JUMPDEST PUSH1 0x40 DUP3 ADD SWAP1 POP SWAP2 SWAP1 POP JUMP JUMPDEST PUSH2 0xF98 DUP2 PUSH2 0x1302 JUMP JUMPDEST DUP3 MSTORE POP POP JUMP JUMPDEST PUSH2 0xFAF PUSH2 0xFAA DUP3 PUSH2 0x1302 JUMP JUMPDEST PUSH2 0x140F JUMP JUMPDEST DUP3 MSTORE POP POP JUMP JUMPDEST PUSH1 0x0 PUSH2 0xFC1 DUP3 DUP6 PUSH2 0xF9E JUMP JUMPDEST PUSH1 0x20 DUP3 ADD SWAP2 POP PUSH2 0xFD1 DUP3 DUP5 PUSH2 0xE02 JUMP JUMPDEST PUSH1 0x14 DUP3 ADD SWAP2 POP DUP2 SWAP1 POP SWAP4 SWAP3 POP POP POP JUMP JUMPDEST PUSH1 0x0 PUSH1 0x20 DUP3 ADD SWAP1 POP PUSH2 0xFF6 PUSH1 0x0 DUP4 ADD DUP5 PUSH2 0xDE4 JUMP JUMPDEST SWAP3 SWAP2 POP POP JUMP JUMPDEST PUSH1 0x0 PUSH1 0xA0 DUP3 ADD SWAP1 POP PUSH2 0x1011 PUSH1 0x0 DUP4 ADD DUP9 PUSH2 0xDF3 JUMP JUMPDEST PUSH2 0x101E PUSH1 0x20 DUP4 ADD DUP8 PUSH2 0xDF3 JUMP JUMPDEST PUSH2 0x102B PUSH1 0x40 DUP4 ADD DUP7 PUSH2 0xF8F JUMP JUMPDEST PUSH2 0x1038 PUSH1 0x60 DUP4 ADD DUP6 PUSH2 0xF8F JUMP JUMPDEST DUP2 DUP2 SUB PUSH1 0x80 DUP4 ADD MSTORE PUSH2 0x104A DUP2 DUP5 PUSH2 0xE28 JUMP JUMPDEST SWAP1 POP SWAP7 SWAP6 POP POP POP POP POP POP JUMP JUMPDEST PUSH1 0x0 PUSH1 0x20 DUP3 ADD SWAP1 POP PUSH2 0x106B PUSH1 0x0 DUP4 ADD DUP5 PUSH2 0xE19 JUMP JUMPDEST SWAP3 SWAP2 POP POP JUMP JUMPDEST PUSH1 0x0 PUSH1 0x20 DUP3 ADD SWAP1 POP DUP2 DUP2 SUB PUSH1 0x0 DUP4 ADD MSTORE PUSH2 0x108B DUP2 DUP5 PUSH2 0xE61 JUMP JUMPDEST SWAP1 POP SWAP3 SWAP2 POP POP JUMP JUMPDEST PUSH1 0x0 PUSH1 0x20 DUP3 ADD SWAP1 POP DUP2 DUP2 SUB PUSH1 0x0 DUP4 ADD MSTORE PUSH2 0x10AC DUP2 PUSH2 0xE9A JUMP JUMPDEST SWAP1 POP SWAP2 SWAP1 POP JUMP JUMPDEST PUSH1 0x0 PUSH1 0x20 DUP3 ADD SWAP1 POP DUP2 DUP2 SUB PUSH1 0x0 DUP4 ADD MSTORE PUSH2 0x10CC DUP2 PUSH2 0xEBD JUMP JUMPDEST SWAP1 POP SWAP2 SWAP1 POP JUMP JUMPDEST PUSH1 0x0 PUSH1 0x20 DUP3 ADD SWAP1 POP DUP2 DUP2 SUB PUSH1 0x0 DUP4 ADD MSTORE PUSH2 0x10EC DUP2 PUSH2 0xEE0 JUMP JUMPDEST SWAP1 POP SWAP2 SWAP1 POP JUMP JUMPDEST PUSH1 0x0 PUSH1 0x20 DUP3 ADD SWAP1 POP DUP2 DUP2 SUB PUSH1 0x0 DUP4 ADD MSTORE PUSH2 0x110C DUP2 PUSH2 0xF03 JUMP JUMPDEST SWAP1 POP SWAP2 SWAP1 POP JUMP JUMPDEST PUSH1 0x0 PUSH1 0x20 DUP3 ADD SWAP1 POP DUP2 DUP2 SUB PUSH1 0x0 DUP4 ADD MSTORE PUSH2 0x112C DUP2 PUSH2 0xF26 JUMP JUMPDEST SWAP1 POP SWAP2 SWAP1 POP JUMP JUMPDEST PUSH1 0x0 PUSH1 0x20 DUP3 ADD SWAP1 POP DUP2 DUP2 SUB PUSH1 0x0 DUP4 ADD MSTORE PUSH2 0x114C DUP2 PUSH2 0xF49 JUMP JUMPDEST SWAP1 POP SWAP2 SWAP1 POP JUMP JUMPDEST PUSH1 0x0 PUSH1 0x20 DUP3 ADD SWAP1 POP DUP2 DUP2 SUB PUSH1 0x0 DUP4 ADD MSTORE PUSH2 0x116C DUP2 PUSH2 0xF6C JUMP JUMPDEST SWAP1 POP SWAP2 SWAP1 POP JUMP JUMPDEST PUSH1 0x0 PUSH1 0x20 DUP3 ADD SWAP1 POP PUSH2 0x1188 PUSH1 0x0 DUP4 ADD DUP5 PUSH2 0xF8F JUMP JUMPDEST SWAP3 SWAP2 POP POP JUMP JUMPDEST PUSH1 0x0 PUSH1 0x40 DUP3 ADD SWAP1 POP PUSH2 0x11A3 PUSH1 0x0 DUP4 ADD DUP6 PUSH2 0xF8F JUMP JUMPDEST PUSH2 0x11B0 PUSH1 0x20 DUP4 ADD DUP5 PUSH2 0xF8F JUMP JUMPDEST SWAP4 SWAP3 POP POP POP JUMP JUMPDEST PUSH1 0x0 PUSH1 0x60 DUP3 ADD SWAP1 POP PUSH2 0x11CC PUSH1 0x0 DUP4 ADD DUP7 PUSH2 0xF8F JUMP JUMPDEST PUSH2 0x11D9 PUSH1 0x20 DUP4 ADD DUP6 PUSH2 0xF8F JUMP JUMPDEST PUSH2 0x11E6 PUSH1 0x40 DUP4 ADD DUP5 PUSH2 0xF8F JUMP JUMPDEST SWAP5 SWAP4 POP POP POP POP JUMP JUMPDEST PUSH1 0x0 PUSH1 0x40 MLOAD SWAP1 POP SWAP1 JUMP JUMPDEST PUSH1 0x0 DUP2 MLOAD SWAP1 POP SWAP2 SWAP1 POP JUMP JUMPDEST PUSH1 0x0 DUP2 MLOAD SWAP1 POP SWAP2 SWAP1 POP JUMP JUMPDEST PUSH1 0x0 DUP3 DUP3 MSTORE PUSH1 0x20 DUP3 ADD SWAP1 POP SWAP3 SWAP2 POP POP JUMP JUMPDEST PUSH1 0x0 DUP3 DUP3 MSTORE PUSH1 0x20 DUP3 ADD SWAP1 POP SWAP3 SWAP2 POP POP JUMP JUMPDEST PUSH1 0x0 PUSH2 0x123B DUP3 PUSH2 0x1302 JUMP JUMPDEST SWAP2 POP PUSH2 0x1246 DUP4 PUSH2 0x1302 JUMP JUMPDEST SWAP3 POP DUP3 PUSH32 0xFFFFFFFFFFFFFFFFFFFFFFFFFFFFFFFFFFFFFFFFFFFFFFFFFFFFFFFFFFFFFFFF SUB DUP3 GT ISZERO PUSH2 0x127B JUMPI PUSH2 0x127A PUSH2 0x144A JUMP JUMPDEST JUMPDEST DUP3 DUP3 ADD SWAP1 POP SWAP3 SWAP2 POP POP JUMP JUMPDEST PUSH1 0x0 PUSH2 0x1291 DUP3 PUSH2 0x12E2 JUMP JUMPDEST SWAP1 POP SWAP2 SWAP1 POP JUMP JUMPDEST PUSH1 0x0 PUSH2 0x12A3 DUP3 PUSH2 0x12E2 JUMP JUMPDEST SWAP1 POP SWAP2 SWAP1 POP JUMP JUMPDEST PUSH1 0x0 DUP2 ISZERO ISZERO SWAP1 POP SWAP2 SWAP1 POP JUMP JUMPDEST PUSH1 0x0 PUSH32 0xFFFFFFFF00000000000000000000000000000000000000000000000000000000 DUP3 AND SWAP1 POP SWAP2 SWAP1 POP JUMP JUMPDEST PUSH1 0x0 PUSH20 0xFFFFFFFFFFFFFFFFFFFFFFFFFFFFFFFFFFFFFFFF DUP3 AND SWAP1 POP SWAP2 SWAP1 POP JUMP JUMPDEST PUSH1 0x0 DUP2 SWAP1 POP SWAP2 SWAP1 POP JUMP JUMPDEST PUSH1 0x0 JUMPDEST DUP4 DUP2 LT ISZERO PUSH2 0x132A JUMPI DUP1 DUP3 ADD MLOAD DUP2 DUP5 ADD MSTORE PUSH1 0x20 DUP2 ADD SWAP1 POP PUSH2 0x130F JUMP JUMPDEST DUP4 DUP2 GT ISZERO PUSH2 0x1339 JUMPI PUSH1 0x0 DUP5 DUP5 ADD MSTORE JUMPDEST POP POP POP POP JUMP JUMPDEST PUSH1 0x0 PUSH1 0x2 DUP3 DIV SWAP1 POP PUSH1 0x1 DUP3 AND DUP1 PUSH2 0x1357 JUMPI PUSH1 0x7F DUP3 AND SWAP2 POP JUMPDEST PUSH1 0x20 DUP3 LT DUP2 EQ ISZERO PUSH2 0x136B JUMPI PUSH2 0x136A PUSH2 0x14A8 JUMP JUMPDEST JUMPDEST POP SWAP2 SWAP1 POP JUMP JUMPDEST PUSH2 0x137A DUP3 PUSH2 0x155C JUMP JUMPDEST DUP2 ADD DUP2 DUP2 LT PUSH8 0xFFFFFFFFFFFFFFFF DUP3 GT OR ISZERO PUSH2 0x1399 JUMPI PUSH2 0x1398 PUSH2 0x1506 JUMP JUMPDEST JUMPDEST DUP1 PUSH1 0x40 MSTORE POP POP POP JUMP JUMPDEST PUSH1 0x0 PUSH2 0x13AD DUP3 PUSH2 0x1302 JUMP JUMPDEST SWAP2 POP PUSH32 0xFFFFFFFFFFFFFFFFFFFFFFFFFFFFFFFFFFFFFFFFFFFFFFFFFFFFFFFFFFFFFFFF DUP3 EQ ISZERO PUSH2 0x13E0 JUMPI PUSH2 0x13DF PUSH2 0x144A JUMP JUMPDEST JUMPDEST PUSH1 0x1 DUP3 ADD SWAP1 POP SWAP2 SWAP1 POP JUMP JUMPDEST PUSH1 0x0 PUSH2 0x13F6 DUP3 PUSH2 0x13FD JUMP JUMPDEST SWAP1 POP SWAP2 SWAP1 POP JUMP JUMPDEST PUSH1 0x0 PUSH2 0x1408 DUP3 PUSH2 0x156D JUMP JUMPDEST SWAP1 POP SWAP2 SWAP1 POP JUMP JUMPDEST PUSH1 0x0 DUP2 SWAP1 POP SWAP2 SWAP1 POP JUMP JUMPDEST PUSH1 0x0 PUSH2 0x1424 DUP3 PUSH2 0x1302 JUMP JUMPDEST SWAP2 POP PUSH2 0x142F DUP4 PUSH2 0x1302 JUMP JUMPDEST SWAP3 POP DUP3 PUSH2 0x143F JUMPI PUSH2 0x143E PUSH2 0x1479 JUMP JUMPDEST JUMPDEST DUP3 DUP3 MOD SWAP1 POP SWAP3 SWAP2 POP POP JUMP JUMPDEST PUSH32 0x4E487B7100000000000000000000000000000000000000000000000000000000 PUSH1 0x0 MSTORE PUSH1 0x11 PUSH1 0x4 MSTORE PUSH1 0x24 PUSH1 0x0 REVERT JUMPDEST PUSH32 0x4E487B7100000000000000000000000000000000000000000000000000000000 PUSH1 0x0 MSTORE PUSH1 0x12 PUSH1 0x4 MSTORE PUSH1 0x24 PUSH1 0x0 REVERT JUMPDEST PUSH32 0x4E487B7100000000000000000000000000000000000000000000000000000000 PUSH1 0x0 MSTORE PUSH1 0x22 PUSH1 0x4 MSTORE PUSH1 0x24 PUSH1 0x0 REVERT JUMPDEST PUSH32 0x4E487B7100000000000000000000000000000000000000000000000000000000 PUSH1 0x0 MSTORE PUSH1 0x32 PUSH1 0x4 MSTORE PUSH1 0x24 PUSH1 0x0 REVERT JUMPDEST PUSH32 0x4E487B7100000000000000000000000000000000000000000000000000000000 PUSH1 0x0 MSTORE PUSH1 0x41 PUSH1 0x4 MSTORE PUSH1 0x24 PUSH1 0x0 REVERT JUMPDEST PUSH1 0x0 PUSH1 0x3 RETURNDATASIZE GT ISZERO PUSH2 0x1554 JUMPI PUSH1 0x4 PUSH1 0x0 DUP1 RETURNDATACOPY PUSH2 0x1551 PUSH1 0x0 MLOAD PUSH2 0x157A JUMP JUMPDEST SWAP1 POP JUMPDEST SWAP1 JUMP JUMPDEST PUSH1 0x0 DUP1 REVERT JUMPDEST PUSH1 0x0 PUSH1 0x1F NOT PUSH1 0x1F DUP4 ADD AND SWAP1 POP SWAP2 SWAP1 POP JUMP JUMPDEST PUSH1 0x0 DUP2 PUSH1 0x60 SHL SWAP1 POP SWAP2 SWAP1 POP JUMP JUMPDEST PUSH1 0x0 DUP2 PUSH1 0xE0 SHR SWAP1 POP SWAP2 SWAP1 POP JUMP JUMPDEST PUSH32 0x455243313135353A207472616E7366657220746F206E6F6E2045524331313535 PUSH1 0x0 DUP3 ADD MSTORE PUSH32 0x526563656976657220696D706C656D656E746572000000000000000000000000 PUSH1 0x20 DUP3 ADD MSTORE POP JUMP JUMPDEST PUSH32 0x455243313135353A204552433131353552656365697665722072656A65637465 PUSH1 0x0 DUP3 ADD MSTORE PUSH32 0x6420746F6B656E73000000000000000000000000000000000000000000000000 PUSH1 0x20 DUP3 ADD MSTORE POP JUMP JUMPDEST PUSH32 0x44726F707369746520697320616C72656164792052756E6E696E670000000000 PUSH1 0x0 DUP3 ADD MSTORE POP JUMP JUMPDEST PUSH32 0x44726F707369746520697320616C72656164792053746F707065640000000000 PUSH1 0x0 DUP3 ADD MSTORE POP JUMP JUMPDEST PUSH32 0x4F6E79784E6674204F776E65722063616E204163636573730000000000000000 PUSH1 0x0 DUP3 ADD MSTORE POP JUMP JUMPDEST PUSH32 0x436F6E7472616374206973205061757365640000000000000000000000000000 PUSH1 0x0 DUP3 ADD MSTORE POP JUMP JUMPDEST PUSH32 0x455243313135353A206D696E7420746F20746865207A65726F20616464726573 PUSH1 0x0 DUP3 ADD MSTORE PUSH32 0x7300000000000000000000000000000000000000000000000000000000000000 PUSH1 0x20 DUP3 ADD MSTORE POP JUMP JUMPDEST PUSH1 0x0 PUSH1 0x44 RETURNDATASIZE LT ISZERO PUSH2 0x1728 JUMPI PUSH2 0x17AB JUMP JUMPDEST PUSH2 0x1730 PUSH2 0x11EE JUMP JUMPDEST PUSH1 0x4 RETURNDATASIZE SUB PUSH1 0x4 DUP3 RETURNDATACOPY DUP1 MLOAD RETURNDATASIZE PUSH1 0x24 DUP3 ADD GT PUSH8 0xFFFFFFFFFFFFFFFF DUP3 GT OR ISZERO PUSH2 0x1758 JUMPI POP POP PUSH2 0x17AB JUMP JUMPDEST DUP1 DUP3 ADD DUP1 MLOAD PUSH8 0xFFFFFFFFFFFFFFFF DUP2 GT ISZERO PUSH2 0x1776 JUMPI POP POP POP POP PUSH2 0x17AB JUMP JUMPDEST DUP1 PUSH1 0x20 DUP4 ADD ADD PUSH1 0x4 RETURNDATASIZE SUB DUP6 ADD DUP2 GT ISZERO PUSH2 0x1793 JUMPI POP POP POP POP POP PUSH2 0x17AB JUMP JUMPDEST PUSH2 0x17A2 DUP3 PUSH1 0x20 ADD DUP6 ADD DUP7 PUSH2 0x1371 JUMP JUMPDEST DUP3 SWAP6 POP POP POP POP POP POP JUMPDEST SWAP1 JUMP JUMPDEST PUSH2 0x17B7 DUP2 PUSH2 0x1286 JUMP JUMPDEST DUP2 EQ PUSH2 0x17C2 JUMPI PUSH1 0x0 DUP1 REVERT JUMPDEST POP JUMP JUMPDEST PUSH2 0x17CE DUP2 PUSH2 0x12B6 JUMP JUMPDEST DUP2 EQ PUSH2 0x17D9 JUMPI PUSH1 0x0 DUP1 REVERT JUMPDEST POP JUMP INVALID LOG2 PUSH5 0x6970667358 0x22 SLT KECCAK256 DELEGATECALL 0xE4 0x49 EXTCODEHASH 0xD4 PUSH20 0x10DBBB14150D8A7A1CCBC2FBC02624674E738133 DIV 0xCA 0xB9 AND CREATE2 0xD5 PUSH5 0x736F6C6343 STOP ADDMOD SMOD STOP CALLER "
				},
				"gasEstimates": {
					"creation": {
						"codeDepositCost": "1232400",
						"executionCost": "infinite",
						"totalCost": "infinite"
					},
					"external": {
						"IsPaused()": "2472",
						"Owner()": "2608",
						"TotalNFTsMinted()": "2474",
						"checkMintedCategoryWise()": "infinite",
						"dropsite_NFT_Owner(address)": "2880",
						"openDropsite()": "28860",
						"randomMint()": "infinite",
						"stopDropsite()": "28859"
					},
					"internal": {
						"random()": "infinite"
					}
				},
				"methodIdentifiers": {
					"IsPaused()": "1309a563",
					"Owner()": "b4a99a4e",
					"TotalNFTsMinted()": "322f0ece",
					"checkMintedCategoryWise()": "60daa851",
					"dropsite_NFT_Owner(address)": "d4c892c4",
					"openDropsite()": "15460259",
					"randomMint()": "7e1eaabf",
					"stopDropsite()": "aa90c726"
				}
			},
			"userdoc": {
				"kind": "user",
				"methods": {},
				"version": 1
			}
		}
	}
}