{
	"Dropsite.sol": {
		"Dropsite": {
			"abi": [
				{
					"inputs": [
						{
							"internalType": "string",
							"name": "name",
							"type": "string"
						}
					],
					"stateMutability": "nonpayable",
					"type": "constructor"
				},
				{
					"anonymous": false,
					"inputs": [
						{
							"indexed": true,
							"internalType": "address",
							"name": "operator",
							"type": "address"
						},
						{
							"indexed": true,
							"internalType": "address",
							"name": "from",
							"type": "address"
						},
						{
							"indexed": true,
							"internalType": "address",
							"name": "to",
							"type": "address"
						},
						{
							"indexed": false,
							"internalType": "uint256",
							"name": "id",
							"type": "uint256"
						},
						{
							"indexed": false,
							"internalType": "uint256",
							"name": "value",
							"type": "uint256"
						}
					],
					"name": "TransferSingle",
					"type": "event"
				},
				{
					"inputs": [],
					"name": "ContractBalance",
					"outputs": [
						{
							"internalType": "uint256",
							"name": "",
							"type": "uint256"
						}
					],
					"stateMutability": "view",
					"type": "function"
				},
				{
					"inputs": [
						{
							"internalType": "address",
							"name": "user_addr",
							"type": "address"
						}
					],
					"name": "CryptoRandomMint",
					"outputs": [
						{
							"internalType": "uint256",
							"name": "",
							"type": "uint256"
						},
						{
							"internalType": "string",
							"name": "",
							"type": "string"
						}
					],
					"stateMutability": "payable",
					"type": "function"
				},
				{
					"inputs": [
						{
							"internalType": "address",
							"name": "user_addr",
							"type": "address"
						}
					],
					"name": "FiatRandomMint",
					"outputs": [
						{
							"internalType": "uint256",
							"name": "",
							"type": "uint256"
						},
						{
							"internalType": "string",
							"name": "",
							"type": "string"
						}
					],
					"stateMutability": "nonpayable",
					"type": "function"
				},
				{
					"inputs": [],
					"name": "IsPaused",
					"outputs": [
						{
							"internalType": "bool",
							"name": "",
							"type": "bool"
						}
					],
					"stateMutability": "view",
					"type": "function"
				},
				{
					"inputs": [],
					"name": "Owner",
					"outputs": [
						{
							"internalType": "address payable",
							"name": "",
							"type": "address"
						}
					],
					"stateMutability": "view",
					"type": "function"
				},
				{
					"inputs": [],
					"name": "checkMintedCategoryWise",
					"outputs": [
						{
							"internalType": "uint256",
							"name": "",
							"type": "uint256"
						},
						{
							"internalType": "uint256",
							"name": "",
							"type": "uint256"
						},
						{
							"internalType": "uint256",
							"name": "",
							"type": "uint256"
						}
					],
					"stateMutability": "view",
					"type": "function"
				},
				{
					"inputs": [],
					"name": "checkTotalMinted",
					"outputs": [
						{
							"internalType": "uint256",
							"name": "",
							"type": "uint256"
						}
					],
					"stateMutability": "view",
					"type": "function"
				},
				{
					"inputs": [
						{
							"internalType": "uint256",
							"name": "",
							"type": "uint256"
						}
					],
					"name": "nums",
					"outputs": [
						{
							"internalType": "uint8",
							"name": "",
							"type": "uint8"
						}
					],
					"stateMutability": "view",
					"type": "function"
				},
				{
					"inputs": [],
					"name": "openDropsite",
					"outputs": [],
					"stateMutability": "nonpayable",
					"type": "function"
				},
				{
					"inputs": [],
					"name": "stopDropsite",
					"outputs": [],
					"stateMutability": "nonpayable",
					"type": "function"
				},
				{
					"inputs": [
						{
							"internalType": "address payable",
							"name": "to",
							"type": "address"
						}
					],
					"name": "withDraw",
					"outputs": [],
					"stateMutability": "payable",
					"type": "function"
				}
			],
			"devdoc": {
				"kind": "dev",
				"methods": {},
				"version": 1
			},
			"evm": {
				"assembly": "    /* \"Dropsite.sol\":122:4725  contract Dropsite is ERC1155_Dropsite  { ... */\n  mstore(0x40, 0x80)\n    /* \"Dropsite.sol\":188:203  bytes  data =\"\" */\n  mload(0x40)\n  dup1\n  0x20\n  add\n  0x40\n  mstore\n  dup1\n  0x00\n  dup2\n  mstore\n  pop\n  0x02\n  swap1\n  dup1\n  mload\n  swap1\n  0x20\n  add\n  swap1\n  tag_1\n  swap3\n  swap2\n  swap1\n  tag_2\n  jump\t// in\ntag_1:\n  pop\n    /* \"Dropsite.sol\":209:254  uint8[10] public nums = [0,1,1,1,2,2,2,2,2,2] */\n  mload(0x40)\n  dup1\n  0x0140\n  add\n  0x40\n  mstore\n  dup1\n    /* \"Dropsite.sol\":234:235  0 */\n  0x00\n    /* \"Dropsite.sol\":209:254  uint8[10] public nums = [0,1,1,1,2,2,2,2,2,2] */\n  0xff\n  and\n  dup2\n  mstore\n  0x20\n  add\n    /* \"Dropsite.sol\":236:237  1 */\n  0x01\n    /* \"Dropsite.sol\":209:254  uint8[10] public nums = [0,1,1,1,2,2,2,2,2,2] */\n  0xff\n  and\n  dup2\n  mstore\n  0x20\n  add\n    /* \"Dropsite.sol\":238:239  1 */\n  0x01\n    /* \"Dropsite.sol\":209:254  uint8[10] public nums = [0,1,1,1,2,2,2,2,2,2] */\n  0xff\n  and\n  dup2\n  mstore\n  0x20\n  add\n    /* \"Dropsite.sol\":240:241  1 */\n  0x01\n    /* \"Dropsite.sol\":209:254  uint8[10] public nums = [0,1,1,1,2,2,2,2,2,2] */\n  0xff\n  and\n  dup2\n  mstore\n  0x20\n  add\n    /* \"Dropsite.sol\":242:243  2 */\n  0x02\n    /* \"Dropsite.sol\":209:254  uint8[10] public nums = [0,1,1,1,2,2,2,2,2,2] */\n  0xff\n  and\n  dup2\n  mstore\n  0x20\n  add\n    /* \"Dropsite.sol\":244:245  2 */\n  0x02\n    /* \"Dropsite.sol\":209:254  uint8[10] public nums = [0,1,1,1,2,2,2,2,2,2] */\n  0xff\n  and\n  dup2\n  mstore\n  0x20\n  add\n    /* \"Dropsite.sol\":246:247  2 */\n  0x02\n    /* \"Dropsite.sol\":209:254  uint8[10] public nums = [0,1,1,1,2,2,2,2,2,2] */\n  0xff\n  and\n  dup2\n  mstore\n  0x20\n  add\n    /* \"Dropsite.sol\":248:249  2 */\n  0x02\n    /* \"Dropsite.sol\":209:254  uint8[10] public nums = [0,1,1,1,2,2,2,2,2,2] */\n  0xff\n  and\n  dup2\n  mstore\n  0x20\n  add\n    /* \"Dropsite.sol\":250:251  2 */\n  0x02\n    /* \"Dropsite.sol\":209:254  uint8[10] public nums = [0,1,1,1,2,2,2,2,2,2] */\n  0xff\n  and\n  dup2\n  mstore\n  0x20\n  add\n    /* \"Dropsite.sol\":252:253  2 */\n  0x02\n    /* \"Dropsite.sol\":209:254  uint8[10] public nums = [0,1,1,1,2,2,2,2,2,2] */\n  0xff\n  and\n  dup2\n  mstore\n  pop\n  0x03\n  swap1\n  0x0a\n  tag_3\n  swap3\n  swap2\n  swap1\n  tag_4\n  jump\t// in\ntag_3:\n  pop\n    /* \"Dropsite.sol\":890:894  true */\n  0x01\n    /* \"Dropsite.sol\":867:894  bool public IsPaused = true */\n  0x0b\n  exp(0x0100, 0x00)\n  dup2\n  sload\n  dup2\n  0xff\n  mul\n  not\n  and\n  swap1\n  dup4\n  iszero\n  iszero\n  mul\n  or\n  swap1\n  sstore\n  pop\n    /* \"Dropsite.sol\":966:1241  constructor (string memory name){... */\n  callvalue\n  dup1\n  iszero\n  tag_5\n  jumpi\n  0x00\n  dup1\n  revert\ntag_5:\n  pop\n  mload(0x40)\n  sub(codesize, bytecodeSize)\n  dup1\n  bytecodeSize\n  dup4\n  codecopy\n  dup2\n  dup2\n  add\n  0x40\n  mstore\n  dup2\n  add\n  swap1\n  tag_6\n  swap2\n  swap1\n  tag_7\n  jump\t// in\ntag_6:\n    /* \"Dropsite.sol\":1016:1020  name */\n  dup1\n    /* \"Dropsite.sol\":1008:1013  _name */\n  0x0c\n    /* \"Dropsite.sol\":1008:1020  _name = name */\n  swap1\n  dup1\n  mload\n  swap1\n  0x20\n  add\n  swap1\n  tag_10\n  swap3\n  swap2\n  swap1\n  tag_11\n  jump\t// in\ntag_10:\n  pop\n    /* \"Dropsite.sol\":1046:1056  msg.sender */\n  caller\n    /* \"Dropsite.sol\":1030:1035  Owner */\n  0x0b\n  0x01\n    /* \"Dropsite.sol\":1030:1057  Owner = payable(msg.sender) */\n  0x0100\n  exp\n  dup2\n  sload\n  dup2\n  0xffffffffffffffffffffffffffffffffffffffff\n  mul\n  not\n  and\n  swap1\n  dup4\n  0xffffffffffffffffffffffffffffffffffffffff\n  and\n  mul\n  or\n  swap1\n  sstore\n  pop\n    /* \"Dropsite.sol\":1084:1085  0 */\n  0x00\n    /* \"Dropsite.sol\":1068:1083  TotalNFTsMinted */\n  0x04\n    /* \"Dropsite.sol\":1068:1085  TotalNFTsMinted=0 */\n  dup2\n  swap1\n  sstore\n  pop\n    /* \"Dropsite.sol\":1131:1132  1 */\n  0x01\n    /* \"Dropsite.sol\":1119:1130  numOfCopies */\n  0x05\n    /* \"Dropsite.sol\":1119:1132  numOfCopies=1 */\n  dup2\n  swap1\n  sstore\n  pop\n    /* \"Dropsite.sol\":1187:1188  0 */\n  0x00\n    /* \"Dropsite.sol\":1179:1186  Diamond */\n  0x06\n    /* \"Dropsite.sol\":1179:1188  Diamond=0 */\n  dup2\n  swap1\n  sstore\n  pop\n    /* \"Dropsite.sol\":1215:1216  0 */\n  0x00\n    /* \"Dropsite.sol\":1210:1214  Gold */\n  0x07\n    /* \"Dropsite.sol\":1210:1216  Gold=0 */\n  dup2\n  swap1\n  sstore\n  pop\n    /* \"Dropsite.sol\":1233:1234  0 */\n  0x00\n    /* \"Dropsite.sol\":1226:1232  Silver */\n  0x08\n    /* \"Dropsite.sol\":1226:1234  Silver=0 */\n  dup2\n  swap1\n  sstore\n  pop\n    /* \"Dropsite.sol\":966:1241  constructor (string memory name){... */\n  pop\n    /* \"Dropsite.sol\":122:4725  contract Dropsite is ERC1155_Dropsite  { ... */\n  jump(tag_12)\ntag_2:\n  dup3\n  dup1\n  sload\n  tag_13\n  swap1\n  tag_14\n  jump\t// in\ntag_13:\n  swap1\n  0x00\n  mstore\n  keccak256(0x00, 0x20)\n  swap1\n  0x1f\n  add\n  0x20\n  swap1\n  div\n  dup2\n  add\n  swap3\n  dup3\n  tag_16\n  jumpi\n  0x00\n  dup6\n  sstore\n  jump(tag_15)\ntag_16:\n  dup3\n  0x1f\n  lt\n  tag_17\n  jumpi\n  dup1\n  mload\n  not(0xff)\n  and\n  dup4\n  dup1\n  add\n  or\n  dup6\n  sstore\n  jump(tag_15)\ntag_17:\n  dup3\n  dup1\n  add\n  0x01\n  add\n  dup6\n  sstore\n  dup3\n  iszero\n  tag_15\n  jumpi\n  swap2\n  dup3\n  add\ntag_18:\n  dup3\n  dup2\n  gt\n  iszero\n  tag_19\n  jumpi\n  dup3\n  mload\n  dup3\n  sstore\n  swap2\n  0x20\n  add\n  swap2\n  swap1\n  0x01\n  add\n  swap1\n  jump(tag_18)\ntag_19:\ntag_15:\n  pop\n  swap1\n  pop\n  tag_20\n  swap2\n  swap1\n  tag_21\n  jump\t// in\ntag_20:\n  pop\n  swap1\n  jump\t// out\ntag_4:\n  dup3\n  add(0x1f, 0x0a)\n  0x20\n  swap1\n  div\n  dup2\n  add\n  swap3\n  dup3\n  iszero\n  tag_22\n  jumpi\n  swap2\n  0x20\n  mul\n  dup3\n  add\n  0x00\ntag_23:\n  dup4\n  dup3\n  gt\n  iszero\n  tag_24\n  jumpi\n  dup4\n  mload\n  dup4\n  dup3\n  0x0100\n  exp\n  dup2\n  sload\n  dup2\n  0xff\n  mul\n  not\n  and\n  swap1\n  dup4\n  0xff\n  and\n  mul\n  or\n  swap1\n  sstore\n  pop\n  swap3\n  0x20\n  add\n  swap3\n  0x01\n  add\n  0x20\n  dup2\n  0x00\n  add\n  div\n  swap3\n  dup4\n  add\n  swap3\n  0x01\n  sub\n  mul\n  jump(tag_23)\ntag_24:\n  dup1\n  iszero\n  tag_25\n  jumpi\n  dup3\n  dup2\n  0x0100\n  exp\n  dup2\n  sload\n  swap1\n  0xff\n  mul\n  not\n  and\n  swap1\n  sstore\n  0x01\n  add\n  0x20\n  dup2\n  0x00\n  add\n  div\n  swap3\n  dup4\n  add\n  swap3\n  0x01\n  sub\n  mul\n  jump(tag_24)\ntag_25:\n  pop\ntag_22:\n  pop\n  swap1\n  pop\n  tag_26\n  swap2\n  swap1\n  tag_21\n  jump\t// in\ntag_26:\n  pop\n  swap1\n  jump\t// out\ntag_11:\n  dup3\n  dup1\n  sload\n  tag_27\n  swap1\n  tag_14\n  jump\t// in\ntag_27:\n  swap1\n  0x00\n  mstore\n  keccak256(0x00, 0x20)\n  swap1\n  0x1f\n  add\n  0x20\n  swap1\n  div\n  dup2\n  add\n  swap3\n  dup3\n  tag_29\n  jumpi\n  0x00\n  dup6\n  sstore\n  jump(tag_28)\ntag_29:\n  dup3\n  0x1f\n  lt\n  tag_30\n  jumpi\n  dup1\n  mload\n  not(0xff)\n  and\n  dup4\n  dup1\n  add\n  or\n  dup6\n  sstore\n  jump(tag_28)\ntag_30:\n  dup3\n  dup1\n  add\n  0x01\n  add\n  dup6\n  sstore\n  dup3\n  iszero\n  tag_28\n  jumpi\n  swap2\n  dup3\n  add\ntag_31:\n  dup3\n  dup2\n  gt\n  iszero\n  tag_32\n  jumpi\n  dup3\n  mload\n  dup3\n  sstore\n  swap2\n  0x20\n  add\n  swap2\n  swap1\n  0x01\n  add\n  swap1\n  jump(tag_31)\ntag_32:\ntag_28:\n  pop\n  swap1\n  pop\n  tag_33\n  swap2\n  swap1\n  tag_21\n  jump\t// in\ntag_33:\n  pop\n  swap1\n  jump\t// out\ntag_21:\ntag_34:\n  dup1\n  dup3\n  gt\n  iszero\n  tag_35\n  jumpi\n  0x00\n  dup2\n  0x00\n  swap1\n  sstore\n  pop\n  0x01\n  add\n  jump(tag_34)\ntag_35:\n  pop\n  swap1\n  jump\t// out\n    /* \"#utility.yul\":7:428   */\ntag_37:\n    /* \"#utility.yul\":96:101   */\n  0x00\n    /* \"#utility.yul\":121:187   */\n  tag_39\n    /* \"#utility.yul\":137:186   */\n  tag_40\n    /* \"#utility.yul\":179:185   */\n  dup5\n    /* \"#utility.yul\":137:186   */\n  tag_41\n  jump\t// in\ntag_40:\n    /* \"#utility.yul\":121:187   */\n  tag_42\n  jump\t// in\ntag_39:\n    /* \"#utility.yul\":112:187   */\n  swap1\n  pop\n    /* \"#utility.yul\":210:216   */\n  dup3\n    /* \"#utility.yul\":203:208   */\n  dup2\n    /* \"#utility.yul\":196:217   */\n  mstore\n    /* \"#utility.yul\":248:252   */\n  0x20\n    /* \"#utility.yul\":241:246   */\n  dup2\n    /* \"#utility.yul\":237:253   */\n  add\n    /* \"#utility.yul\":286:289   */\n  dup5\n    /* \"#utility.yul\":277:283   */\n  dup5\n    /* \"#utility.yul\":272:275   */\n  dup5\n    /* \"#utility.yul\":268:284   */\n  add\n    /* \"#utility.yul\":265:290   */\n  gt\n    /* \"#utility.yul\":262:374   */\n  iszero\n  tag_43\n  jumpi\n    /* \"#utility.yul\":293:372   */\n  tag_44\n  tag_45\n  jump\t// in\ntag_44:\n    /* \"#utility.yul\":262:374   */\ntag_43:\n    /* \"#utility.yul\":383:422   */\n  tag_46\n    /* \"#utility.yul\":415:421   */\n  dup5\n    /* \"#utility.yul\":410:413   */\n  dup3\n    /* \"#utility.yul\":405:408   */\n  dup6\n    /* \"#utility.yul\":383:422   */\n  tag_47\n  jump\t// in\ntag_46:\n    /* \"#utility.yul\":102:428   */\n  pop\n    /* \"#utility.yul\":7:428   */\n  swap4\n  swap3\n  pop\n  pop\n  pop\n  jump\t// out\n    /* \"#utility.yul\":448:803   */\ntag_48:\n    /* \"#utility.yul\":515:520   */\n  0x00\n    /* \"#utility.yul\":564:567   */\n  dup3\n    /* \"#utility.yul\":557:561   */\n  0x1f\n    /* \"#utility.yul\":549:555   */\n  dup4\n    /* \"#utility.yul\":545:562   */\n  add\n    /* \"#utility.yul\":541:568   */\n  slt\n    /* \"#utility.yul\":531:653   */\n  tag_50\n  jumpi\n    /* \"#utility.yul\":572:651   */\n  tag_51\n  tag_52\n  jump\t// in\ntag_51:\n    /* \"#utility.yul\":531:653   */\ntag_50:\n    /* \"#utility.yul\":682:688   */\n  dup2\n    /* \"#utility.yul\":676:689   */\n  mload\n    /* \"#utility.yul\":707:797   */\n  tag_53\n    /* \"#utility.yul\":793:796   */\n  dup5\n    /* \"#utility.yul\":785:791   */\n  dup3\n    /* \"#utility.yul\":778:782   */\n  0x20\n    /* \"#utility.yul\":770:776   */\n  dup7\n    /* \"#utility.yul\":766:783   */\n  add\n    /* \"#utility.yul\":707:797   */\n  tag_37\n  jump\t// in\ntag_53:\n    /* \"#utility.yul\":698:797   */\n  swap2\n  pop\n    /* \"#utility.yul\":521:803   */\n  pop\n    /* \"#utility.yul\":448:803   */\n  swap3\n  swap2\n  pop\n  pop\n  jump\t// out\n    /* \"#utility.yul\":809:1333   */\ntag_7:\n    /* \"#utility.yul\":889:895   */\n  0x00\n    /* \"#utility.yul\":938:940   */\n  0x20\n    /* \"#utility.yul\":926:935   */\n  dup3\n    /* \"#utility.yul\":917:924   */\n  dup5\n    /* \"#utility.yul\":913:936   */\n  sub\n    /* \"#utility.yul\":909:941   */\n  slt\n    /* \"#utility.yul\":906:1025   */\n  iszero\n  tag_55\n  jumpi\n    /* \"#utility.yul\":944:1023   */\n  tag_56\n  tag_57\n  jump\t// in\ntag_56:\n    /* \"#utility.yul\":906:1025   */\ntag_55:\n    /* \"#utility.yul\":1085:1086   */\n  0x00\n    /* \"#utility.yul\":1074:1083   */\n  dup3\n    /* \"#utility.yul\":1070:1087   */\n  add\n    /* \"#utility.yul\":1064:1088   */\n  mload\n    /* \"#utility.yul\":1115:1133   */\n  0xffffffffffffffff\n    /* \"#utility.yul\":1107:1113   */\n  dup2\n    /* \"#utility.yul\":1104:1134   */\n  gt\n    /* \"#utility.yul\":1101:1218   */\n  iszero\n  tag_58\n  jumpi\n    /* \"#utility.yul\":1137:1216   */\n  tag_59\n  tag_60\n  jump\t// in\ntag_59:\n    /* \"#utility.yul\":1101:1218   */\ntag_58:\n    /* \"#utility.yul\":1242:1316   */\n  tag_61\n    /* \"#utility.yul\":1308:1315   */\n  dup5\n    /* \"#utility.yul\":1299:1305   */\n  dup3\n    /* \"#utility.yul\":1288:1297   */\n  dup6\n    /* \"#utility.yul\":1284:1306   */\n  add\n    /* \"#utility.yul\":1242:1316   */\n  tag_48\n  jump\t// in\ntag_61:\n    /* \"#utility.yul\":1232:1316   */\n  swap2\n  pop\n    /* \"#utility.yul\":1035:1326   */\n  pop\n    /* \"#utility.yul\":809:1333   */\n  swap3\n  swap2\n  pop\n  pop\n  jump\t// out\n    /* \"#utility.yul\":1339:1468   */\ntag_42:\n    /* \"#utility.yul\":1373:1379   */\n  0x00\n    /* \"#utility.yul\":1400:1420   */\n  tag_63\n  tag_64\n  jump\t// in\ntag_63:\n    /* \"#utility.yul\":1390:1420   */\n  swap1\n  pop\n    /* \"#utility.yul\":1429:1462   */\n  tag_65\n    /* \"#utility.yul\":1457:1461   */\n  dup3\n    /* \"#utility.yul\":1449:1455   */\n  dup3\n    /* \"#utility.yul\":1429:1462   */\n  tag_66\n  jump\t// in\ntag_65:\n    /* \"#utility.yul\":1339:1468   */\n  swap2\n  swap1\n  pop\n  jump\t// out\n    /* \"#utility.yul\":1474:1549   */\ntag_64:\n    /* \"#utility.yul\":1507:1513   */\n  0x00\n    /* \"#utility.yul\":1540:1542   */\n  0x40\n    /* \"#utility.yul\":1534:1543   */\n  mload\n    /* \"#utility.yul\":1524:1543   */\n  swap1\n  pop\n    /* \"#utility.yul\":1474:1549   */\n  swap1\n  jump\t// out\n    /* \"#utility.yul\":1555:1863   */\ntag_41:\n    /* \"#utility.yul\":1617:1621   */\n  0x00\n    /* \"#utility.yul\":1707:1725   */\n  0xffffffffffffffff\n    /* \"#utility.yul\":1699:1705   */\n  dup3\n    /* \"#utility.yul\":1696:1726   */\n  gt\n    /* \"#utility.yul\":1693:1749   */\n  iszero\n  tag_69\n  jumpi\n    /* \"#utility.yul\":1729:1747   */\n  tag_70\n  tag_71\n  jump\t// in\ntag_70:\n    /* \"#utility.yul\":1693:1749   */\ntag_69:\n    /* \"#utility.yul\":1767:1796   */\n  tag_72\n    /* \"#utility.yul\":1789:1795   */\n  dup3\n    /* \"#utility.yul\":1767:1796   */\n  tag_73\n  jump\t// in\ntag_72:\n    /* \"#utility.yul\":1759:1796   */\n  swap1\n  pop\n    /* \"#utility.yul\":1851:1855   */\n  0x20\n    /* \"#utility.yul\":1845:1849   */\n  dup2\n    /* \"#utility.yul\":1841:1856   */\n  add\n    /* \"#utility.yul\":1833:1856   */\n  swap1\n  pop\n    /* \"#utility.yul\":1555:1863   */\n  swap2\n  swap1\n  pop\n  jump\t// out\n    /* \"#utility.yul\":1869:2176   */\ntag_47:\n    /* \"#utility.yul\":1937:1938   */\n  0x00\n    /* \"#utility.yul\":1947:2060   */\ntag_75:\n    /* \"#utility.yul\":1961:1967   */\n  dup4\n    /* \"#utility.yul\":1958:1959   */\n  dup2\n    /* \"#utility.yul\":1955:1968   */\n  lt\n    /* \"#utility.yul\":1947:2060   */\n  iszero\n  tag_77\n  jumpi\n    /* \"#utility.yul\":2046:2047   */\n  dup1\n    /* \"#utility.yul\":2041:2044   */\n  dup3\n    /* \"#utility.yul\":2037:2048   */\n  add\n    /* \"#utility.yul\":2031:2049   */\n  mload\n    /* \"#utility.yul\":2027:2028   */\n  dup2\n    /* \"#utility.yul\":2022:2025   */\n  dup5\n    /* \"#utility.yul\":2018:2029   */\n  add\n    /* \"#utility.yul\":2011:2050   */\n  mstore\n    /* \"#utility.yul\":1983:1985   */\n  0x20\n    /* \"#utility.yul\":1980:1981   */\n  dup2\n    /* \"#utility.yul\":1976:1986   */\n  add\n    /* \"#utility.yul\":1971:1986   */\n  swap1\n  pop\n    /* \"#utility.yul\":1947:2060   */\n  jump(tag_75)\ntag_77:\n    /* \"#utility.yul\":2078:2084   */\n  dup4\n    /* \"#utility.yul\":2075:2076   */\n  dup2\n    /* \"#utility.yul\":2072:2085   */\n  gt\n    /* \"#utility.yul\":2069:2170   */\n  iszero\n  tag_78\n  jumpi\n    /* \"#utility.yul\":2158:2159   */\n  0x00\n    /* \"#utility.yul\":2149:2155   */\n  dup5\n    /* \"#utility.yul\":2144:2147   */\n  dup5\n    /* \"#utility.yul\":2140:2156   */\n  add\n    /* \"#utility.yul\":2133:2160   */\n  mstore\n    /* \"#utility.yul\":2069:2170   */\ntag_78:\n    /* \"#utility.yul\":1918:2176   */\n  pop\n    /* \"#utility.yul\":1869:2176   */\n  pop\n  pop\n  pop\n  jump\t// out\n    /* \"#utility.yul\":2182:2502   */\ntag_14:\n    /* \"#utility.yul\":2226:2232   */\n  0x00\n    /* \"#utility.yul\":2263:2264   */\n  0x02\n    /* \"#utility.yul\":2257:2261   */\n  dup3\n    /* \"#utility.yul\":2253:2265   */\n  div\n    /* \"#utility.yul\":2243:2265   */\n  swap1\n  pop\n    /* \"#utility.yul\":2310:2311   */\n  0x01\n    /* \"#utility.yul\":2304:2308   */\n  dup3\n    /* \"#utility.yul\":2300:2312   */\n  and\n    /* \"#utility.yul\":2331:2349   */\n  dup1\n    /* \"#utility.yul\":2321:2402   */\n  tag_80\n  jumpi\n    /* \"#utility.yul\":2387:2391   */\n  0x7f\n    /* \"#utility.yul\":2379:2385   */\n  dup3\n    /* \"#utility.yul\":2375:2392   */\n  and\n    /* \"#utility.yul\":2365:2392   */\n  swap2\n  pop\n    /* \"#utility.yul\":2321:2402   */\ntag_80:\n    /* \"#utility.yul\":2449:2451   */\n  0x20\n    /* \"#utility.yul\":2441:2447   */\n  dup3\n    /* \"#utility.yul\":2438:2452   */\n  lt\n    /* \"#utility.yul\":2418:2436   */\n  dup2\n    /* \"#utility.yul\":2415:2453   */\n  eq\n    /* \"#utility.yul\":2412:2496   */\n  iszero\n  tag_81\n  jumpi\n    /* \"#utility.yul\":2468:2486   */\n  tag_82\n  tag_83\n  jump\t// in\ntag_82:\n    /* \"#utility.yul\":2412:2496   */\ntag_81:\n    /* \"#utility.yul\":2233:2502   */\n  pop\n    /* \"#utility.yul\":2182:2502   */\n  swap2\n  swap1\n  pop\n  jump\t// out\n    /* \"#utility.yul\":2508:2789   */\ntag_66:\n    /* \"#utility.yul\":2591:2618   */\n  tag_85\n    /* \"#utility.yul\":2613:2617   */\n  dup3\n    /* \"#utility.yul\":2591:2618   */\n  tag_73\n  jump\t// in\ntag_85:\n    /* \"#utility.yul\":2583:2589   */\n  dup2\n    /* \"#utility.yul\":2579:2619   */\n  add\n    /* \"#utility.yul\":2721:2727   */\n  dup2\n    /* \"#utility.yul\":2709:2719   */\n  dup2\n    /* \"#utility.yul\":2706:2728   */\n  lt\n    /* \"#utility.yul\":2685:2703   */\n  0xffffffffffffffff\n    /* \"#utility.yul\":2673:2683   */\n  dup3\n    /* \"#utility.yul\":2670:2704   */\n  gt\n    /* \"#utility.yul\":2667:2729   */\n  or\n    /* \"#utility.yul\":2664:2752   */\n  iszero\n  tag_86\n  jumpi\n    /* \"#utility.yul\":2732:2750   */\n  tag_87\n  tag_71\n  jump\t// in\ntag_87:\n    /* \"#utility.yul\":2664:2752   */\ntag_86:\n    /* \"#utility.yul\":2772:2782   */\n  dup1\n    /* \"#utility.yul\":2768:2770   */\n  0x40\n    /* \"#utility.yul\":2761:2783   */\n  mstore\n    /* \"#utility.yul\":2551:2789   */\n  pop\n    /* \"#utility.yul\":2508:2789   */\n  pop\n  pop\n  jump\t// out\n    /* \"#utility.yul\":2795:2975   */\ntag_83:\n    /* \"#utility.yul\":2843:2920   */\n  0x4e487b7100000000000000000000000000000000000000000000000000000000\n    /* \"#utility.yul\":2840:2841   */\n  0x00\n    /* \"#utility.yul\":2833:2921   */\n  mstore\n    /* \"#utility.yul\":2940:2944   */\n  0x22\n    /* \"#utility.yul\":2937:2938   */\n  0x04\n    /* \"#utility.yul\":2930:2945   */\n  mstore\n    /* \"#utility.yul\":2964:2968   */\n  0x24\n    /* \"#utility.yul\":2961:2962   */\n  0x00\n    /* \"#utility.yul\":2954:2969   */\n  revert\n    /* \"#utility.yul\":2981:3161   */\ntag_71:\n    /* \"#utility.yul\":3029:3106   */\n  0x4e487b7100000000000000000000000000000000000000000000000000000000\n    /* \"#utility.yul\":3026:3027   */\n  0x00\n    /* \"#utility.yul\":3019:3107   */\n  mstore\n    /* \"#utility.yul\":3126:3130   */\n  0x41\n    /* \"#utility.yul\":3123:3124   */\n  0x04\n    /* \"#utility.yul\":3116:3131   */\n  mstore\n    /* \"#utility.yul\":3150:3154   */\n  0x24\n    /* \"#utility.yul\":3147:3148   */\n  0x00\n    /* \"#utility.yul\":3140:3155   */\n  revert\n    /* \"#utility.yul\":3167:3284   */\ntag_52:\n    /* \"#utility.yul\":3276:3277   */\n  0x00\n    /* \"#utility.yul\":3273:3274   */\n  dup1\n    /* \"#utility.yul\":3266:3278   */\n  revert\n    /* \"#utility.yul\":3290:3407   */\ntag_45:\n    /* \"#utility.yul\":3399:3400   */\n  0x00\n    /* \"#utility.yul\":3396:3397   */\n  dup1\n    /* \"#utility.yul\":3389:3401   */\n  revert\n    /* \"#utility.yul\":3413:3530   */\ntag_60:\n    /* \"#utility.yul\":3522:3523   */\n  0x00\n    /* \"#utility.yul\":3519:3520   */\n  dup1\n    /* \"#utility.yul\":3512:3524   */\n  revert\n    /* \"#utility.yul\":3536:3653   */\ntag_57:\n    /* \"#utility.yul\":3645:3646   */\n  0x00\n    /* \"#utility.yul\":3642:3643   */\n  dup1\n    /* \"#utility.yul\":3635:3647   */\n  revert\n    /* \"#utility.yul\":3659:3761   */\ntag_73:\n    /* \"#utility.yul\":3700:3706   */\n  0x00\n    /* \"#utility.yul\":3751:3753   */\n  0x1f\n    /* \"#utility.yul\":3747:3754   */\n  not\n    /* \"#utility.yul\":3742:3744   */\n  0x1f\n    /* \"#utility.yul\":3735:3740   */\n  dup4\n    /* \"#utility.yul\":3731:3745   */\n  add\n    /* \"#utility.yul\":3727:3755   */\n  and\n    /* \"#utility.yul\":3717:3755   */\n  swap1\n  pop\n    /* \"#utility.yul\":3659:3761   */\n  swap2\n  swap1\n  pop\n  jump\t// out\n    /* \"Dropsite.sol\":122:4725  contract Dropsite is ERC1155_Dropsite  { ... */\ntag_12:\n  dataSize(sub_0)\n  dup1\n  dataOffset(sub_0)\n  0x00\n  codecopy\n  0x00\n  return\nstop\n\nsub_0: assembly {\n        /* \"Dropsite.sol\":122:4725  contract Dropsite is ERC1155_Dropsite  { ... */\n      mstore(0x40, 0x80)\n      jumpi(tag_1, lt(calldatasize, 0x04))\n      shr(0xe0, calldataload(0x00))\n      dup1\n      0x3b668059\n      gt\n      tag_13\n      jumpi\n      dup1\n      0x3b668059\n      eq\n      tag_7\n      jumpi\n      dup1\n      0x3d65df70\n      eq\n      tag_8\n      jumpi\n      dup1\n      0x60daa851\n      eq\n      tag_9\n      jumpi\n      dup1\n      0xaa90c726\n      eq\n      tag_10\n      jumpi\n      dup1\n      0xb4a99a4e\n      eq\n      tag_11\n      jumpi\n      dup1\n      0xfd1ee54c\n      eq\n      tag_12\n      jumpi\n      jump(tag_1)\n    tag_13:\n      dup1\n      0x0390c11c\n      eq\n      tag_2\n      jumpi\n      dup1\n      0x0a67d2c7\n      eq\n      tag_3\n      jumpi\n      dup1\n      0x1309a563\n      eq\n      tag_4\n      jumpi\n      dup1\n      0x15460259\n      eq\n      tag_5\n      jumpi\n      dup1\n      0x32b61b4c\n      eq\n      tag_6\n      jumpi\n    tag_1:\n      0x00\n      dup1\n      revert\n        /* \"Dropsite.sol\":1385:1489  function checkTotalMinted() public view OnlyOwner returns(uint){... */\n    tag_2:\n      callvalue\n      dup1\n      iszero\n      tag_14\n      jumpi\n      0x00\n      dup1\n      revert\n    tag_14:\n      pop\n      tag_15\n      tag_16\n      jump\t// in\n    tag_15:\n      mload(0x40)\n      tag_17\n      swap2\n      swap1\n      tag_18\n      jump\t// in\n    tag_17:\n      mload(0x40)\n      dup1\n      swap2\n      sub\n      swap1\n      return\n        /* \"Dropsite.sol\":1847:2061  function withDraw(address payable to) public payable OnlyOwner {... */\n    tag_3:\n      tag_19\n      0x04\n      dup1\n      calldatasize\n      sub\n      dup2\n      add\n      swap1\n      tag_20\n      swap2\n      swap1\n      tag_21\n      jump\t// in\n    tag_20:\n      tag_22\n      jump\t// in\n    tag_19:\n      stop\n        /* \"Dropsite.sol\":867:894  bool public IsPaused = true */\n    tag_4:\n      callvalue\n      dup1\n      iszero\n      tag_23\n      jumpi\n      0x00\n      dup1\n      revert\n    tag_23:\n      pop\n      tag_24\n      tag_25\n      jump\t// in\n    tag_24:\n      mload(0x40)\n      tag_26\n      swap2\n      swap1\n      tag_27\n      jump\t// in\n    tag_26:\n      mload(0x40)\n      dup1\n      swap2\n      sub\n      swap1\n      return\n        /* \"Dropsite.sol\":1637:1773  function openDropsite() public OnlyOwner {... */\n    tag_5:\n      callvalue\n      dup1\n      iszero\n      tag_28\n      jumpi\n      0x00\n      dup1\n      revert\n    tag_28:\n      pop\n      tag_29\n      tag_30\n      jump\t// in\n    tag_29:\n      stop\n        /* \"Dropsite.sol\":3582:4002  function FiatRandomMint(address user_addr) OnlyOwner contractIsNotPaused public returns (uint,string memory) {... */\n    tag_6:\n      callvalue\n      dup1\n      iszero\n      tag_31\n      jumpi\n      0x00\n      dup1\n      revert\n    tag_31:\n      pop\n      tag_32\n      0x04\n      dup1\n      calldatasize\n      sub\n      dup2\n      add\n      swap1\n      tag_33\n      swap2\n      swap1\n      tag_34\n      jump\t// in\n    tag_33:\n      tag_35\n      jump\t// in\n    tag_32:\n      mload(0x40)\n      tag_36\n      swap3\n      swap2\n      swap1\n      tag_37\n      jump\t// in\n    tag_36:\n      mload(0x40)\n      dup1\n      swap2\n      sub\n      swap1\n      return\n        /* \"Dropsite.sol\":2114:2222  function ContractBalance() public view OnlyOwner returns (uint){... */\n    tag_7:\n      callvalue\n      dup1\n      iszero\n      tag_38\n      jumpi\n      0x00\n      dup1\n      revert\n    tag_38:\n      pop\n      tag_39\n      tag_40\n      jump\t// in\n    tag_39:\n      mload(0x40)\n      tag_41\n      swap2\n      swap1\n      tag_18\n      jump\t// in\n    tag_41:\n      mload(0x40)\n      dup1\n      swap2\n      sub\n      swap1\n      return\n        /* \"Dropsite.sol\":4179:4723  function CryptoRandomMint(address user_addr)  contractIsNotPaused public payable returns (uint,string memory) {... */\n    tag_8:\n      tag_42\n      0x04\n      dup1\n      calldatasize\n      sub\n      dup2\n      add\n      swap1\n      tag_43\n      swap2\n      swap1\n      tag_34\n      jump\t// in\n    tag_43:\n      tag_44\n      jump\t// in\n    tag_42:\n      mload(0x40)\n      tag_45\n      swap3\n      swap2\n      swap1\n      tag_37\n      jump\t// in\n    tag_45:\n      mload(0x40)\n      dup1\n      swap2\n      sub\n      swap1\n      return\n        /* \"Dropsite.sol\":1253:1380  function checkMintedCategoryWise() public view OnlyOwner returns(uint,uint,uint){... */\n    tag_9:\n      callvalue\n      dup1\n      iszero\n      tag_46\n      jumpi\n      0x00\n      dup1\n      revert\n    tag_46:\n      pop\n      tag_47\n      tag_48\n      jump\t// in\n    tag_47:\n      mload(0x40)\n      tag_49\n      swap4\n      swap3\n      swap2\n      swap1\n      tag_50\n      jump\t// in\n    tag_49:\n      mload(0x40)\n      dup1\n      swap2\n      sub\n      swap1\n      return\n        /* \"Dropsite.sol\":1495:1630  function stopDropsite() public OnlyOwner{... */\n    tag_10:\n      callvalue\n      dup1\n      iszero\n      tag_51\n      jumpi\n      0x00\n      dup1\n      revert\n    tag_51:\n      pop\n      tag_52\n      tag_53\n      jump\t// in\n    tag_52:\n      stop\n        /* \"Dropsite.sol\":900:929  address payable public  Owner */\n    tag_11:\n      callvalue\n      dup1\n      iszero\n      tag_54\n      jumpi\n      0x00\n      dup1\n      revert\n    tag_54:\n      pop\n      tag_55\n      tag_56\n      jump\t// in\n    tag_55:\n      mload(0x40)\n      tag_57\n      swap2\n      swap1\n      tag_58\n      jump\t// in\n    tag_57:\n      mload(0x40)\n      dup1\n      swap2\n      sub\n      swap1\n      return\n        /* \"Dropsite.sol\":209:254  uint8[10] public nums = [0,1,1,1,2,2,2,2,2,2] */\n    tag_12:\n      callvalue\n      dup1\n      iszero\n      tag_59\n      jumpi\n      0x00\n      dup1\n      revert\n    tag_59:\n      pop\n      tag_60\n      0x04\n      dup1\n      calldatasize\n      sub\n      dup2\n      add\n      swap1\n      tag_61\n      swap2\n      swap1\n      tag_62\n      jump\t// in\n    tag_61:\n      tag_63\n      jump\t// in\n    tag_60:\n      mload(0x40)\n      tag_64\n      swap2\n      swap1\n      tag_65\n      jump\t// in\n    tag_64:\n      mload(0x40)\n      dup1\n      swap2\n      sub\n      swap1\n      return\n        /* \"Dropsite.sol\":1385:1489  function checkTotalMinted() public view OnlyOwner returns(uint){... */\n    tag_16:\n        /* \"Dropsite.sol\":1443:1447  uint */\n      0x00\n        /* \"Dropsite.sol\":639:644  Owner */\n      0x0b\n      0x01\n      swap1\n      sload\n      swap1\n      0x0100\n      exp\n      swap1\n      div\n      0xffffffffffffffffffffffffffffffffffffffff\n      and\n        /* \"Dropsite.sol\":623:644  _msgSender() == Owner */\n      0xffffffffffffffffffffffffffffffffffffffff\n      and\n        /* \"Dropsite.sol\":623:635  _msgSender() */\n      tag_67\n        /* \"Dropsite.sol\":623:633  _msgSender */\n      tag_68\n        /* \"Dropsite.sol\":623:635  _msgSender() */\n      jump\t// in\n    tag_67:\n        /* \"Dropsite.sol\":623:644  _msgSender() == Owner */\n      0xffffffffffffffffffffffffffffffffffffffff\n      and\n      eq\n        /* \"Dropsite.sol\":615:677  require(_msgSender() == Owner, \"Only NFT-ES Owner can Access\") */\n      tag_69\n      jumpi\n      mload(0x40)\n      0x08c379a000000000000000000000000000000000000000000000000000000000\n      dup2\n      mstore\n      0x04\n      add\n      tag_70\n      swap1\n      tag_71\n      jump\t// in\n    tag_70:\n      mload(0x40)\n      dup1\n      swap2\n      sub\n      swap1\n      revert\n    tag_69:\n        /* \"Dropsite.sol\":1466:1481  TotalNFTsMinted */\n      sload(0x04)\n        /* \"Dropsite.sol\":1459:1481  return TotalNFTsMinted */\n      swap1\n      pop\n        /* \"Dropsite.sol\":1385:1489  function checkTotalMinted() public view OnlyOwner returns(uint){... */\n      swap1\n      jump\t// out\n        /* \"Dropsite.sol\":1847:2061  function withDraw(address payable to) public payable OnlyOwner {... */\n    tag_22:\n        /* \"Dropsite.sol\":639:644  Owner */\n      0x0b\n      0x01\n      swap1\n      sload\n      swap1\n      0x0100\n      exp\n      swap1\n      div\n      0xffffffffffffffffffffffffffffffffffffffff\n      and\n        /* \"Dropsite.sol\":623:644  _msgSender() == Owner */\n      0xffffffffffffffffffffffffffffffffffffffff\n      and\n        /* \"Dropsite.sol\":623:635  _msgSender() */\n      tag_74\n        /* \"Dropsite.sol\":623:633  _msgSender */\n      tag_68\n        /* \"Dropsite.sol\":623:635  _msgSender() */\n      jump\t// in\n    tag_74:\n        /* \"Dropsite.sol\":623:644  _msgSender() == Owner */\n      0xffffffffffffffffffffffffffffffffffffffff\n      and\n      eq\n        /* \"Dropsite.sol\":615:677  require(_msgSender() == Owner, \"Only NFT-ES Owner can Access\") */\n      tag_75\n      jumpi\n      mload(0x40)\n      0x08c379a000000000000000000000000000000000000000000000000000000000\n      dup2\n      mstore\n      0x04\n      add\n      tag_76\n      swap1\n      tag_71\n      jump\t// in\n    tag_76:\n      mload(0x40)\n      dup1\n      swap2\n      sub\n      swap1\n      revert\n    tag_75:\n        /* \"Dropsite.sol\":1920:1932  uint Balance */\n      0x00\n        /* \"Dropsite.sol\":1935:1956  address(this).balance */\n      selfbalance\n        /* \"Dropsite.sol\":1920:1956  uint Balance = address(this).balance */\n      swap1\n      pop\n        /* \"Dropsite.sol\":1984:1989  0 wei */\n      0x00\n        /* \"Dropsite.sol\":1974:1981  Balance */\n      dup2\n        /* \"Dropsite.sol\":1974:1989  Balance > 0 wei */\n      gt\n        /* \"Dropsite.sol\":1966:2023  require(Balance > 0 wei, \"Error! No Balance to withdraw\") */\n      tag_78\n      jumpi\n      mload(0x40)\n      0x08c379a000000000000000000000000000000000000000000000000000000000\n      dup2\n      mstore\n      0x04\n      add\n      tag_79\n      swap1\n      tag_80\n      jump\t// in\n    tag_79:\n      mload(0x40)\n      dup1\n      swap2\n      sub\n      swap1\n      revert\n    tag_78:\n        /* \"Dropsite.sol\":2034:2036  to */\n      dup2\n        /* \"Dropsite.sol\":2034:2045  to.transfer */\n      0xffffffffffffffffffffffffffffffffffffffff\n      and\n        /* \"Dropsite.sol\":2034:2054  to.transfer(Balance) */\n      0x08fc\n        /* \"Dropsite.sol\":2046:2053  Balance */\n      dup3\n        /* \"Dropsite.sol\":2034:2054  to.transfer(Balance) */\n      swap1\n      dup2\n      iszero\n      mul\n      swap1\n      mload(0x40)\n      0x00\n      mload(0x40)\n      dup1\n      dup4\n      sub\n      dup2\n      dup6\n      dup9\n      dup9\n      call\n      swap4\n      pop\n      pop\n      pop\n      pop\n      iszero\n      dup1\n      iszero\n      tag_82\n      jumpi\n      returndatasize\n      0x00\n      dup1\n      returndatacopy\n      revert(0x00, returndatasize)\n    tag_82:\n      pop\n        /* \"Dropsite.sol\":1910:2061  {... */\n      pop\n        /* \"Dropsite.sol\":1847:2061  function withDraw(address payable to) public payable OnlyOwner {... */\n      pop\n      jump\t// out\n        /* \"Dropsite.sol\":867:894  bool public IsPaused = true */\n    tag_25:\n      0x0b\n      0x00\n      swap1\n      sload\n      swap1\n      0x0100\n      exp\n      swap1\n      div\n      0xff\n      and\n      dup2\n      jump\t// out\n        /* \"Dropsite.sol\":1637:1773  function openDropsite() public OnlyOwner {... */\n    tag_30:\n        /* \"Dropsite.sol\":639:644  Owner */\n      0x0b\n      0x01\n      swap1\n      sload\n      swap1\n      0x0100\n      exp\n      swap1\n      div\n      0xffffffffffffffffffffffffffffffffffffffff\n      and\n        /* \"Dropsite.sol\":623:644  _msgSender() == Owner */\n      0xffffffffffffffffffffffffffffffffffffffff\n      and\n        /* \"Dropsite.sol\":623:635  _msgSender() */\n      tag_84\n        /* \"Dropsite.sol\":623:633  _msgSender */\n      tag_68\n        /* \"Dropsite.sol\":623:635  _msgSender() */\n      jump\t// in\n    tag_84:\n        /* \"Dropsite.sol\":623:644  _msgSender() == Owner */\n      0xffffffffffffffffffffffffffffffffffffffff\n      and\n      eq\n        /* \"Dropsite.sol\":615:677  require(_msgSender() == Owner, \"Only NFT-ES Owner can Access\") */\n      tag_85\n      jumpi\n      mload(0x40)\n      0x08c379a000000000000000000000000000000000000000000000000000000000\n      dup2\n      mstore\n      0x04\n      add\n      tag_86\n      swap1\n      tag_71\n      jump\t// in\n    tag_86:\n      mload(0x40)\n      dup1\n      swap2\n      sub\n      swap1\n      revert\n    tag_85:\n        /* \"Dropsite.sol\":1706:1710  true */\n      0x01\n        /* \"Dropsite.sol\":1696:1710  IsPaused==true */\n      iszero\n      iszero\n        /* \"Dropsite.sol\":1696:1704  IsPaused */\n      0x0b\n      0x00\n      swap1\n      sload\n      swap1\n      0x0100\n      exp\n      swap1\n      div\n      0xff\n      and\n        /* \"Dropsite.sol\":1696:1710  IsPaused==true */\n      iszero\n      iszero\n      eq\n        /* \"Dropsite.sol\":1688:1742  require(IsPaused==true, \"Dropsite is already Running\") */\n      tag_88\n      jumpi\n      mload(0x40)\n      0x08c379a000000000000000000000000000000000000000000000000000000000\n      dup2\n      mstore\n      0x04\n      add\n      tag_89\n      swap1\n      tag_90\n      jump\t// in\n    tag_89:\n      mload(0x40)\n      dup1\n      swap2\n      sub\n      swap1\n      revert\n    tag_88:\n        /* \"Dropsite.sol\":1761:1766  false */\n      0x00\n        /* \"Dropsite.sol\":1752:1760  IsPaused */\n      0x0b\n      0x00\n        /* \"Dropsite.sol\":1752:1766  IsPaused=false */\n      0x0100\n      exp\n      dup2\n      sload\n      dup2\n      0xff\n      mul\n      not\n      and\n      swap1\n      dup4\n      iszero\n      iszero\n      mul\n      or\n      swap1\n      sstore\n      pop\n        /* \"Dropsite.sol\":1637:1773  function openDropsite() public OnlyOwner {... */\n      jump\t// out\n        /* \"Dropsite.sol\":3582:4002  function FiatRandomMint(address user_addr) OnlyOwner contractIsNotPaused public returns (uint,string memory) {... */\n    tag_35:\n        /* \"Dropsite.sol\":3671:3675  uint */\n      0x00\n        /* \"Dropsite.sol\":3676:3689  string memory */\n      0x60\n        /* \"Dropsite.sol\":639:644  Owner */\n      0x0b\n      0x01\n      swap1\n      sload\n      swap1\n      0x0100\n      exp\n      swap1\n      div\n      0xffffffffffffffffffffffffffffffffffffffff\n      and\n        /* \"Dropsite.sol\":623:644  _msgSender() == Owner */\n      0xffffffffffffffffffffffffffffffffffffffff\n      and\n        /* \"Dropsite.sol\":623:635  _msgSender() */\n      tag_92\n        /* \"Dropsite.sol\":623:633  _msgSender */\n      tag_68\n        /* \"Dropsite.sol\":623:635  _msgSender() */\n      jump\t// in\n    tag_92:\n        /* \"Dropsite.sol\":623:644  _msgSender() == Owner */\n      0xffffffffffffffffffffffffffffffffffffffff\n      and\n      eq\n        /* \"Dropsite.sol\":615:677  require(_msgSender() == Owner, \"Only NFT-ES Owner can Access\") */\n      tag_93\n      jumpi\n      mload(0x40)\n      0x08c379a000000000000000000000000000000000000000000000000000000000\n      dup2\n      mstore\n      0x04\n      add\n      tag_94\n      swap1\n      tag_71\n      jump\t// in\n    tag_94:\n      mload(0x40)\n      dup1\n      swap2\n      sub\n      swap1\n      revert\n    tag_93:\n        /* \"Dropsite.sol\":804:809  false */\n      0x00\n        /* \"Dropsite.sol\":792:809  IsPaused == false */\n      iszero\n      iszero\n        /* \"Dropsite.sol\":792:800  IsPaused */\n      0x0b\n      0x00\n      swap1\n      sload\n      swap1\n      0x0100\n      exp\n      swap1\n      div\n      0xff\n      and\n        /* \"Dropsite.sol\":792:809  IsPaused == false */\n      iszero\n      iszero\n      eq\n        /* \"Dropsite.sol\":783:842  require (IsPaused == false, \"Dropsite is not Opened Yet.\" ) */\n      tag_96\n      jumpi\n      mload(0x40)\n      0x08c379a000000000000000000000000000000000000000000000000000000000\n      dup2\n      mstore\n      0x04\n      add\n      tag_97\n      swap1\n      tag_98\n      jump\t// in\n    tag_97:\n      mload(0x40)\n      dup1\n      swap2\n      sub\n      swap1\n      revert\n    tag_96:\n        /* \"Dropsite.sol\":3722:3726  1000 */\n      0x03e8\n        /* \"Dropsite.sol\":3706:3721  TotalNFTsMinted */\n      sload(0x04)\n        /* \"Dropsite.sol\":3706:3726  TotalNFTsMinted<1000 */\n      lt\n        /* \"Dropsite.sol\":3698:3756  require(TotalNFTsMinted<1000, \"Max Minting Limit reached\") */\n      tag_100\n      jumpi\n      mload(0x40)\n      0x08c379a000000000000000000000000000000000000000000000000000000000\n      dup2\n      mstore\n      0x04\n      add\n      tag_101\n      swap1\n      tag_102\n      jump\t// in\n    tag_101:\n      mload(0x40)\n      dup1\n      swap2\n      sub\n      swap1\n      revert\n    tag_100:\n        /* \"Dropsite.sol\":3819:3829  uint nftId */\n      0x00\n        /* \"Dropsite.sol\":3832:3850  updateConditions() */\n      tag_103\n        /* \"Dropsite.sol\":3832:3848  updateConditions */\n      tag_104\n        /* \"Dropsite.sol\":3832:3850  updateConditions() */\n      jump\t// in\n    tag_103:\n        /* \"Dropsite.sol\":3819:3850  uint nftId = updateConditions() */\n      swap1\n      pop\n        /* \"Dropsite.sol\":3856:3898  _mint(user_addr, nftId, numOfCopies, data) */\n      tag_105\n        /* \"Dropsite.sol\":3862:3871  user_addr */\n      dup5\n        /* \"Dropsite.sol\":3873:3878  nftId */\n      dup3\n        /* \"Dropsite.sol\":3880:3891  numOfCopies */\n      sload(0x05)\n        /* \"Dropsite.sol\":3893:3897  data */\n      0x02\n        /* \"Dropsite.sol\":3856:3898  _mint(user_addr, nftId, numOfCopies, data) */\n      dup1\n      sload\n      tag_106\n      swap1\n      tag_107\n      jump\t// in\n    tag_106:\n      dup1\n      0x1f\n      add\n      0x20\n      dup1\n      swap2\n      div\n      mul\n      0x20\n      add\n      mload(0x40)\n      swap1\n      dup2\n      add\n      0x40\n      mstore\n      dup1\n      swap3\n      swap2\n      swap1\n      dup2\n      dup2\n      mstore\n      0x20\n      add\n      dup3\n      dup1\n      sload\n      tag_108\n      swap1\n      tag_107\n      jump\t// in\n    tag_108:\n      dup1\n      iszero\n      tag_109\n      jumpi\n      dup1\n      0x1f\n      lt\n      tag_110\n      jumpi\n      0x0100\n      dup1\n      dup4\n      sload\n      div\n      mul\n      dup4\n      mstore\n      swap2\n      0x20\n      add\n      swap2\n      jump(tag_109)\n    tag_110:\n      dup3\n      add\n      swap2\n      swap1\n      0x00\n      mstore\n      keccak256(0x00, 0x20)\n      swap1\n    tag_111:\n      dup2\n      sload\n      dup2\n      mstore\n      swap1\n      0x01\n      add\n      swap1\n      0x20\n      add\n      dup1\n      dup4\n      gt\n      tag_111\n      jumpi\n      dup3\n      swap1\n      sub\n      0x1f\n      and\n      dup3\n      add\n      swap2\n    tag_109:\n      pop\n      pop\n      pop\n      pop\n      pop\n        /* \"Dropsite.sol\":3856:3861  _mint */\n      tag_112\n        /* \"Dropsite.sol\":3856:3898  _mint(user_addr, nftId, numOfCopies, data) */\n      jump\t// in\n    tag_105:\n        /* \"Dropsite.sol\":3904:3919  TotalNFTsMinted */\n      0x04\n      0x00\n        /* \"Dropsite.sol\":3904:3921  TotalNFTsMinted++ */\n      dup2\n      sload\n      dup1\n      swap3\n      swap2\n      swap1\n      tag_113\n      swap1\n      tag_114\n      jump\t// in\n    tag_113:\n      swap2\n      swap1\n      pop\n      sstore\n      pop\n        /* \"Dropsite.sol\":3957:3962  nftId */\n      dup1\n        /* \"Dropsite.sol\":3927:3945  dropsite_NFT_Owner */\n      0x09\n        /* \"Dropsite.sol\":3927:3956  dropsite_NFT_Owner[user_addr] */\n      0x00\n        /* \"Dropsite.sol\":3946:3955  user_addr */\n      dup7\n        /* \"Dropsite.sol\":3927:3956  dropsite_NFT_Owner[user_addr] */\n      0xffffffffffffffffffffffffffffffffffffffff\n      and\n      0xffffffffffffffffffffffffffffffffffffffff\n      and\n      dup2\n      mstore\n      0x20\n      add\n      swap1\n      dup2\n      mstore\n      0x20\n      add\n      0x00\n      keccak256\n        /* \"Dropsite.sol\":3927:3962  dropsite_NFT_Owner[user_addr]=nftId */\n      dup2\n      swap1\n      sstore\n      pop\n        /* \"Dropsite.sol\":3976:3981  nftId */\n      dup1\n        /* \"Dropsite.sol\":3989:3993  data */\n      0x02\n        /* \"Dropsite.sol\":3968:3995  return (nftId,string(data)) */\n      dup1\n      dup1\n      sload\n      tag_115\n      swap1\n      tag_107\n      jump\t// in\n    tag_115:\n      dup1\n      0x1f\n      add\n      0x20\n      dup1\n      swap2\n      div\n      mul\n      0x20\n      add\n      mload(0x40)\n      swap1\n      dup2\n      add\n      0x40\n      mstore\n      dup1\n      swap3\n      swap2\n      swap1\n      dup2\n      dup2\n      mstore\n      0x20\n      add\n      dup3\n      dup1\n      sload\n      tag_116\n      swap1\n      tag_107\n      jump\t// in\n    tag_116:\n      dup1\n      iszero\n      tag_117\n      jumpi\n      dup1\n      0x1f\n      lt\n      tag_118\n      jumpi\n      0x0100\n      dup1\n      dup4\n      sload\n      div\n      mul\n      dup4\n      mstore\n      swap2\n      0x20\n      add\n      swap2\n      jump(tag_117)\n    tag_118:\n      dup3\n      add\n      swap2\n      swap1\n      0x00\n      mstore\n      keccak256(0x00, 0x20)\n      swap1\n    tag_119:\n      dup2\n      sload\n      dup2\n      mstore\n      swap1\n      0x01\n      add\n      swap1\n      0x20\n      add\n      dup1\n      dup4\n      gt\n      tag_119\n      jumpi\n      dup3\n      swap1\n      sub\n      0x1f\n      and\n      dup3\n      add\n      swap2\n    tag_117:\n      pop\n      pop\n      pop\n      pop\n      pop\n      swap1\n      pop\n      swap3\n      pop\n      swap3\n      pop\n      pop\n        /* \"Dropsite.sol\":3582:4002  function FiatRandomMint(address user_addr) OnlyOwner contractIsNotPaused public returns (uint,string memory) {... */\n      swap2\n      pop\n      swap2\n      jump\t// out\n        /* \"Dropsite.sol\":2114:2222  function ContractBalance() public view OnlyOwner returns (uint){... */\n    tag_40:\n        /* \"Dropsite.sol\":2172:2176  uint */\n      0x00\n        /* \"Dropsite.sol\":639:644  Owner */\n      0x0b\n      0x01\n      swap1\n      sload\n      swap1\n      0x0100\n      exp\n      swap1\n      div\n      0xffffffffffffffffffffffffffffffffffffffff\n      and\n        /* \"Dropsite.sol\":623:644  _msgSender() == Owner */\n      0xffffffffffffffffffffffffffffffffffffffff\n      and\n        /* \"Dropsite.sol\":623:635  _msgSender() */\n      tag_121\n        /* \"Dropsite.sol\":623:633  _msgSender */\n      tag_68\n        /* \"Dropsite.sol\":623:635  _msgSender() */\n      jump\t// in\n    tag_121:\n        /* \"Dropsite.sol\":623:644  _msgSender() == Owner */\n      0xffffffffffffffffffffffffffffffffffffffff\n      and\n      eq\n        /* \"Dropsite.sol\":615:677  require(_msgSender() == Owner, \"Only NFT-ES Owner can Access\") */\n      tag_122\n      jumpi\n      mload(0x40)\n      0x08c379a000000000000000000000000000000000000000000000000000000000\n      dup2\n      mstore\n      0x04\n      add\n      tag_123\n      swap1\n      tag_71\n      jump\t// in\n    tag_123:\n      mload(0x40)\n      dup1\n      swap2\n      sub\n      swap1\n      revert\n    tag_122:\n        /* \"Dropsite.sol\":2194:2215  address(this).balance */\n      selfbalance\n        /* \"Dropsite.sol\":2187:2215  return address(this).balance */\n      swap1\n      pop\n        /* \"Dropsite.sol\":2114:2222  function ContractBalance() public view OnlyOwner returns (uint){... */\n      swap1\n      jump\t// out\n        /* \"Dropsite.sol\":4179:4723  function CryptoRandomMint(address user_addr)  contractIsNotPaused public payable returns (uint,string memory) {... */\n    tag_44:\n        /* \"Dropsite.sol\":4269:4273  uint */\n      0x00\n        /* \"Dropsite.sol\":4274:4287  string memory */\n      0x60\n        /* \"Dropsite.sol\":804:809  false */\n      0x00\n        /* \"Dropsite.sol\":792:809  IsPaused == false */\n      iszero\n      iszero\n        /* \"Dropsite.sol\":792:800  IsPaused */\n      0x0b\n      0x00\n      swap1\n      sload\n      swap1\n      0x0100\n      exp\n      swap1\n      div\n      0xff\n      and\n        /* \"Dropsite.sol\":792:809  IsPaused == false */\n      iszero\n      iszero\n      eq\n        /* \"Dropsite.sol\":783:842  require (IsPaused == false, \"Dropsite is not Opened Yet.\" ) */\n      tag_126\n      jumpi\n      mload(0x40)\n      0x08c379a000000000000000000000000000000000000000000000000000000000\n      dup2\n      mstore\n      0x04\n      add\n      tag_127\n      swap1\n      tag_98\n      jump\t// in\n    tag_127:\n      mload(0x40)\n      dup1\n      swap2\n      sub\n      swap1\n      revert\n    tag_126:\n        /* \"Dropsite.sol\":4320:4324  1000 */\n      0x03e8\n        /* \"Dropsite.sol\":4304:4319  TotalNFTsMinted */\n      sload(0x04)\n        /* \"Dropsite.sol\":4304:4324  TotalNFTsMinted<1000 */\n      lt\n        /* \"Dropsite.sol\":4296:4354  require(TotalNFTsMinted<1000, \"Max Minting Limit reached\") */\n      tag_129\n      jumpi\n      mload(0x40)\n      0x08c379a000000000000000000000000000000000000000000000000000000000\n      dup2\n      mstore\n      0x04\n      add\n      tag_130\n      swap1\n      tag_102\n      jump\t// in\n    tag_130:\n      mload(0x40)\n      dup1\n      swap2\n      sub\n      swap1\n      revert\n    tag_129:\n        /* \"Dropsite.sol\":4383:4385  25 */\n      0x19\n        /* \"Dropsite.sol\":4369:4378  msg.value */\n      callvalue\n        /* \"Dropsite.sol\":4369:4386  msg.value == (25) */\n      eq\n        /* \"Dropsite.sol\":4361:4416  require(msg.value == (25), \"Balance must be 25 Matics\") */\n      tag_131\n      jumpi\n      mload(0x40)\n      0x08c379a000000000000000000000000000000000000000000000000000000000\n      dup2\n      mstore\n      0x04\n      add\n      tag_132\n      swap1\n      tag_133\n      jump\t// in\n    tag_132:\n      mload(0x40)\n      dup1\n      swap2\n      sub\n      swap1\n      revert\n    tag_131:\n        /* \"Dropsite.sol\":4496:4506  uint nftId */\n      0x00\n        /* \"Dropsite.sol\":4509:4527  updateConditions() */\n      tag_134\n        /* \"Dropsite.sol\":4509:4525  updateConditions */\n      tag_104\n        /* \"Dropsite.sol\":4509:4527  updateConditions() */\n      jump\t// in\n    tag_134:\n        /* \"Dropsite.sol\":4496:4527  uint nftId = updateConditions() */\n      swap1\n      pop\n        /* \"Dropsite.sol\":4533:4575  _mint(user_addr, nftId, numOfCopies, data) */\n      tag_135\n        /* \"Dropsite.sol\":4539:4548  user_addr */\n      dup5\n        /* \"Dropsite.sol\":4550:4555  nftId */\n      dup3\n        /* \"Dropsite.sol\":4557:4568  numOfCopies */\n      sload(0x05)\n        /* \"Dropsite.sol\":4570:4574  data */\n      0x02\n        /* \"Dropsite.sol\":4533:4575  _mint(user_addr, nftId, numOfCopies, data) */\n      dup1\n      sload\n      tag_136\n      swap1\n      tag_107\n      jump\t// in\n    tag_136:\n      dup1\n      0x1f\n      add\n      0x20\n      dup1\n      swap2\n      div\n      mul\n      0x20\n      add\n      mload(0x40)\n      swap1\n      dup2\n      add\n      0x40\n      mstore\n      dup1\n      swap3\n      swap2\n      swap1\n      dup2\n      dup2\n      mstore\n      0x20\n      add\n      dup3\n      dup1\n      sload\n      tag_137\n      swap1\n      tag_107\n      jump\t// in\n    tag_137:\n      dup1\n      iszero\n      tag_138\n      jumpi\n      dup1\n      0x1f\n      lt\n      tag_139\n      jumpi\n      0x0100\n      dup1\n      dup4\n      sload\n      div\n      mul\n      dup4\n      mstore\n      swap2\n      0x20\n      add\n      swap2\n      jump(tag_138)\n    tag_139:\n      dup3\n      add\n      swap2\n      swap1\n      0x00\n      mstore\n      keccak256(0x00, 0x20)\n      swap1\n    tag_140:\n      dup2\n      sload\n      dup2\n      mstore\n      swap1\n      0x01\n      add\n      swap1\n      0x20\n      add\n      dup1\n      dup4\n      gt\n      tag_140\n      jumpi\n      dup3\n      swap1\n      sub\n      0x1f\n      and\n      dup3\n      add\n      swap2\n    tag_138:\n      pop\n      pop\n      pop\n      pop\n      pop\n        /* \"Dropsite.sol\":4533:4538  _mint */\n      tag_112\n        /* \"Dropsite.sol\":4533:4575  _mint(user_addr, nftId, numOfCopies, data) */\n      jump\t// in\n    tag_135:\n        /* \"Dropsite.sol\":4581:4619  depositAmount(_msgSender(), msg.value) */\n      tag_141\n        /* \"Dropsite.sol\":4595:4607  _msgSender() */\n      tag_142\n        /* \"Dropsite.sol\":4595:4605  _msgSender */\n      tag_68\n        /* \"Dropsite.sol\":4595:4607  _msgSender() */\n      jump\t// in\n    tag_142:\n        /* \"Dropsite.sol\":4609:4618  msg.value */\n      callvalue\n        /* \"Dropsite.sol\":4581:4594  depositAmount */\n      tag_143\n        /* \"Dropsite.sol\":4581:4619  depositAmount(_msgSender(), msg.value) */\n      jump\t// in\n    tag_141:\n        /* \"Dropsite.sol\":4625:4640  TotalNFTsMinted */\n      0x04\n      0x00\n        /* \"Dropsite.sol\":4625:4642  TotalNFTsMinted++ */\n      dup2\n      sload\n      dup1\n      swap3\n      swap2\n      swap1\n      tag_144\n      swap1\n      tag_114\n      jump\t// in\n    tag_144:\n      swap2\n      swap1\n      pop\n      sstore\n      pop\n        /* \"Dropsite.sol\":4678:4683  nftId */\n      dup1\n        /* \"Dropsite.sol\":4648:4666  dropsite_NFT_Owner */\n      0x09\n        /* \"Dropsite.sol\":4648:4677  dropsite_NFT_Owner[user_addr] */\n      0x00\n        /* \"Dropsite.sol\":4667:4676  user_addr */\n      dup7\n        /* \"Dropsite.sol\":4648:4677  dropsite_NFT_Owner[user_addr] */\n      0xffffffffffffffffffffffffffffffffffffffff\n      and\n      0xffffffffffffffffffffffffffffffffffffffff\n      and\n      dup2\n      mstore\n      0x20\n      add\n      swap1\n      dup2\n      mstore\n      0x20\n      add\n      0x00\n      keccak256\n        /* \"Dropsite.sol\":4648:4683  dropsite_NFT_Owner[user_addr]=nftId */\n      dup2\n      swap1\n      sstore\n      pop\n        /* \"Dropsite.sol\":4697:4702  nftId */\n      dup1\n        /* \"Dropsite.sol\":4710:4714  data */\n      0x02\n        /* \"Dropsite.sol\":4689:4716  return (nftId,string(data)) */\n      dup1\n      dup1\n      sload\n      tag_145\n      swap1\n      tag_107\n      jump\t// in\n    tag_145:\n      dup1\n      0x1f\n      add\n      0x20\n      dup1\n      swap2\n      div\n      mul\n      0x20\n      add\n      mload(0x40)\n      swap1\n      dup2\n      add\n      0x40\n      mstore\n      dup1\n      swap3\n      swap2\n      swap1\n      dup2\n      dup2\n      mstore\n      0x20\n      add\n      dup3\n      dup1\n      sload\n      tag_146\n      swap1\n      tag_107\n      jump\t// in\n    tag_146:\n      dup1\n      iszero\n      tag_147\n      jumpi\n      dup1\n      0x1f\n      lt\n      tag_148\n      jumpi\n      0x0100\n      dup1\n      dup4\n      sload\n      div\n      mul\n      dup4\n      mstore\n      swap2\n      0x20\n      add\n      swap2\n      jump(tag_147)\n    tag_148:\n      dup3\n      add\n      swap2\n      swap1\n      0x00\n      mstore\n      keccak256(0x00, 0x20)\n      swap1\n    tag_149:\n      dup2\n      sload\n      dup2\n      mstore\n      swap1\n      0x01\n      add\n      swap1\n      0x20\n      add\n      dup1\n      dup4\n      gt\n      tag_149\n      jumpi\n      dup3\n      swap1\n      sub\n      0x1f\n      and\n      dup3\n      add\n      swap2\n    tag_147:\n      pop\n      pop\n      pop\n      pop\n      pop\n      swap1\n      pop\n      swap3\n      pop\n      swap3\n      pop\n      pop\n        /* \"Dropsite.sol\":4179:4723  function CryptoRandomMint(address user_addr)  contractIsNotPaused public payable returns (uint,string memory) {... */\n      swap2\n      pop\n      swap2\n      jump\t// out\n        /* \"Dropsite.sol\":1253:1380  function checkMintedCategoryWise() public view OnlyOwner returns(uint,uint,uint){... */\n    tag_48:\n        /* \"Dropsite.sol\":1318:1322  uint */\n      0x00\n        /* \"Dropsite.sol\":1323:1327  uint */\n      dup1\n        /* \"Dropsite.sol\":1328:1332  uint */\n      0x00\n        /* \"Dropsite.sol\":639:644  Owner */\n      0x0b\n      0x01\n      swap1\n      sload\n      swap1\n      0x0100\n      exp\n      swap1\n      div\n      0xffffffffffffffffffffffffffffffffffffffff\n      and\n        /* \"Dropsite.sol\":623:644  _msgSender() == Owner */\n      0xffffffffffffffffffffffffffffffffffffffff\n      and\n        /* \"Dropsite.sol\":623:635  _msgSender() */\n      tag_151\n        /* \"Dropsite.sol\":623:633  _msgSender */\n      tag_68\n        /* \"Dropsite.sol\":623:635  _msgSender() */\n      jump\t// in\n    tag_151:\n        /* \"Dropsite.sol\":623:644  _msgSender() == Owner */\n      0xffffffffffffffffffffffffffffffffffffffff\n      and\n      eq\n        /* \"Dropsite.sol\":615:677  require(_msgSender() == Owner, \"Only NFT-ES Owner can Access\") */\n      tag_152\n      jumpi\n      mload(0x40)\n      0x08c379a000000000000000000000000000000000000000000000000000000000\n      dup2\n      mstore\n      0x04\n      add\n      tag_153\n      swap1\n      tag_71\n      jump\t// in\n    tag_153:\n      mload(0x40)\n      dup1\n      swap2\n      sub\n      swap1\n      revert\n    tag_152:\n        /* \"Dropsite.sol\":1352:1359  Diamond */\n      sload(0x06)\n        /* \"Dropsite.sol\":1360:1364  Gold */\n      sload(0x07)\n        /* \"Dropsite.sol\":1365:1371  Silver */\n      sload(0x08)\n        /* \"Dropsite.sol\":1344:1372  return (Diamond,Gold,Silver) */\n      swap3\n      pop\n      swap3\n      pop\n      swap3\n      pop\n        /* \"Dropsite.sol\":1253:1380  function checkMintedCategoryWise() public view OnlyOwner returns(uint,uint,uint){... */\n      swap1\n      swap2\n      swap3\n      jump\t// out\n        /* \"Dropsite.sol\":1495:1630  function stopDropsite() public OnlyOwner{... */\n    tag_53:\n        /* \"Dropsite.sol\":639:644  Owner */\n      0x0b\n      0x01\n      swap1\n      sload\n      swap1\n      0x0100\n      exp\n      swap1\n      div\n      0xffffffffffffffffffffffffffffffffffffffff\n      and\n        /* \"Dropsite.sol\":623:644  _msgSender() == Owner */\n      0xffffffffffffffffffffffffffffffffffffffff\n      and\n        /* \"Dropsite.sol\":623:635  _msgSender() */\n      tag_156\n        /* \"Dropsite.sol\":623:633  _msgSender */\n      tag_68\n        /* \"Dropsite.sol\":623:635  _msgSender() */\n      jump\t// in\n    tag_156:\n        /* \"Dropsite.sol\":623:644  _msgSender() == Owner */\n      0xffffffffffffffffffffffffffffffffffffffff\n      and\n      eq\n        /* \"Dropsite.sol\":615:677  require(_msgSender() == Owner, \"Only NFT-ES Owner can Access\") */\n      tag_157\n      jumpi\n      mload(0x40)\n      0x08c379a000000000000000000000000000000000000000000000000000000000\n      dup2\n      mstore\n      0x04\n      add\n      tag_158\n      swap1\n      tag_71\n      jump\t// in\n    tag_158:\n      mload(0x40)\n      dup1\n      swap2\n      sub\n      swap1\n      revert\n    tag_157:\n        /* \"Dropsite.sol\":1563:1568  false */\n      0x00\n        /* \"Dropsite.sol\":1553:1568  IsPaused==false */\n      iszero\n      iszero\n        /* \"Dropsite.sol\":1553:1561  IsPaused */\n      0x0b\n      0x00\n      swap1\n      sload\n      swap1\n      0x0100\n      exp\n      swap1\n      div\n      0xff\n      and\n        /* \"Dropsite.sol\":1553:1568  IsPaused==false */\n      iszero\n      iszero\n      eq\n        /* \"Dropsite.sol\":1545:1600  require(IsPaused==false, \"Dropsite is already Stopped\") */\n      tag_160\n      jumpi\n      mload(0x40)\n      0x08c379a000000000000000000000000000000000000000000000000000000000\n      dup2\n      mstore\n      0x04\n      add\n      tag_161\n      swap1\n      tag_162\n      jump\t// in\n    tag_161:\n      mload(0x40)\n      dup1\n      swap2\n      sub\n      swap1\n      revert\n    tag_160:\n        /* \"Dropsite.sol\":1619:1623  true */\n      0x01\n        /* \"Dropsite.sol\":1610:1618  IsPaused */\n      0x0b\n      0x00\n        /* \"Dropsite.sol\":1610:1623  IsPaused=true */\n      0x0100\n      exp\n      dup2\n      sload\n      dup2\n      0xff\n      mul\n      not\n      and\n      swap1\n      dup4\n      iszero\n      iszero\n      mul\n      or\n      swap1\n      sstore\n      pop\n        /* \"Dropsite.sol\":1495:1630  function stopDropsite() public OnlyOwner{... */\n      jump\t// out\n        /* \"Dropsite.sol\":900:929  address payable public  Owner */\n    tag_56:\n      0x0b\n      0x01\n      swap1\n      sload\n      swap1\n      0x0100\n      exp\n      swap1\n      div\n      0xffffffffffffffffffffffffffffffffffffffff\n      and\n      dup2\n      jump\t// out\n        /* \"Dropsite.sol\":209:254  uint8[10] public nums = [0,1,1,1,2,2,2,2,2,2] */\n    tag_63:\n      0x03\n      dup2\n      0x0a\n      dup2\n      lt\n      tag_163\n      jumpi\n      0x00\n      dup1\n      revert\n    tag_163:\n      0x20\n      swap2\n      dup3\n      dup3\n      div\n      add\n      swap2\n      swap1\n      mod\n      swap2\n      pop\n      sload\n      swap1\n      0x0100\n      exp\n      swap1\n      div\n      0xff\n      and\n      dup2\n      jump\t// out\n        /* \"Context.sol\":640:736  function _msgSender() internal view virtual returns (address) {... */\n    tag_68:\n        /* \"Context.sol\":693:700  address */\n      0x00\n        /* \"Context.sol\":719:729  msg.sender */\n      caller\n        /* \"Context.sol\":712:729  return msg.sender */\n      swap1\n      pop\n        /* \"Context.sol\":640:736  function _msgSender() internal view virtual returns (address) {... */\n      swap1\n      jump\t// out\n        /* \"Dropsite.sol\":2429:3536  function updateConditions() internal contractIsNotPaused returns(uint) {... */\n    tag_104:\n        /* \"Dropsite.sol\":2494:2498  uint */\n      0x00\n        /* \"Dropsite.sol\":804:809  false */\n      dup1\n        /* \"Dropsite.sol\":792:809  IsPaused == false */\n      iszero\n      iszero\n        /* \"Dropsite.sol\":792:800  IsPaused */\n      0x0b\n      0x00\n      swap1\n      sload\n      swap1\n      0x0100\n      exp\n      swap1\n      div\n      0xff\n      and\n        /* \"Dropsite.sol\":792:809  IsPaused == false */\n      iszero\n      iszero\n      eq\n        /* \"Dropsite.sol\":783:842  require (IsPaused == false, \"Dropsite is not Opened Yet.\" ) */\n      tag_167\n      jumpi\n      mload(0x40)\n      0x08c379a000000000000000000000000000000000000000000000000000000000\n      dup2\n      mstore\n      0x04\n      add\n      tag_168\n      swap1\n      tag_98\n      jump\t// in\n    tag_168:\n      mload(0x40)\n      dup1\n      swap2\n      sub\n      swap1\n      revert\n    tag_167:\n        /* \"Dropsite.sol\":2509:2519  uint index */\n      0x00\n        /* \"Dropsite.sol\":2522:2530  random() */\n      tag_170\n        /* \"Dropsite.sol\":2522:2528  random */\n      tag_171\n        /* \"Dropsite.sol\":2522:2530  random() */\n      jump\t// in\n    tag_170:\n        /* \"Dropsite.sol\":2509:2530  uint index = random() */\n      swap1\n      pop\n        /* \"Dropsite.sol\":2540:2550  uint nftId */\n      0x00\n        /* \"Dropsite.sol\":2553:2557  nums */\n      0x03\n        /* \"Dropsite.sol\":2558:2563  index */\n      dup3\n        /* \"Dropsite.sol\":2553:2564  nums[index] */\n      0x0a\n      dup2\n      lt\n      tag_172\n      jumpi\n      tag_173\n      tag_174\n      jump\t// in\n    tag_173:\n    tag_172:\n      0x20\n      swap2\n      dup3\n      dup3\n      div\n      add\n      swap2\n      swap1\n      mod\n      swap1\n      sload\n      swap1\n      0x0100\n      exp\n      swap1\n      div\n      0xff\n      and\n        /* \"Dropsite.sol\":2540:2564  uint nftId = nums[index] */\n      0xff\n      and\n      swap1\n      pop\n        /* \"Dropsite.sol\":2654:2655  0 */\n      0x00\n        /* \"Dropsite.sol\":2645:2650  nftId */\n      dup2\n        /* \"Dropsite.sol\":2645:2655  nftId == 0 */\n      eq\n        /* \"Dropsite.sol\":2645:2671  nftId == 0 && Diamond < 50 */\n      dup1\n      iszero\n      tag_176\n      jumpi\n      pop\n        /* \"Dropsite.sol\":2669:2671  50 */\n      0x32\n        /* \"Dropsite.sol\":2659:2666  Diamond */\n      sload(0x06)\n        /* \"Dropsite.sol\":2659:2671  Diamond < 50 */\n      lt\n        /* \"Dropsite.sol\":2645:2671  nftId == 0 && Diamond < 50 */\n    tag_176:\n        /* \"Dropsite.sol\":2642:3531  if(nftId == 0 && Diamond < 50) {... */\n      iszero\n      tag_177\n      jumpi\n        /* \"Dropsite.sol\":2687:2703  data = \"Diamond\" */\n      mload(0x40)\n      dup1\n      0x40\n      add\n      0x40\n      mstore\n      dup1\n      0x07\n      dup2\n      mstore\n      0x20\n      add\n      0x4469616d6f6e6400000000000000000000000000000000000000000000000000\n      dup2\n      mstore\n      pop\n        /* \"Dropsite.sol\":2687:2691  data */\n      0x02\n        /* \"Dropsite.sol\":2687:2703  data = \"Diamond\" */\n      swap1\n      dup1\n      mload\n      swap1\n      0x20\n      add\n      swap1\n      tag_178\n      swap3\n      swap2\n      swap1\n      tag_179\n      jump\t// in\n    tag_178:\n      pop\n        /* \"Dropsite.sol\":2717:2724  Diamond */\n      0x06\n      0x00\n        /* \"Dropsite.sol\":2717:2726  Diamond++ */\n      dup2\n      sload\n      dup1\n      swap3\n      swap2\n      swap1\n      tag_180\n      swap1\n      tag_114\n      jump\t// in\n    tag_180:\n      swap2\n      swap1\n      pop\n      sstore\n      pop\n        /* \"Dropsite.sol\":2748:2753  nftId */\n      dup1\n        /* \"Dropsite.sol\":2741:2753  return nftId */\n      swap3\n      pop\n      pop\n      pop\n      jump(tag_169)\n        /* \"Dropsite.sol\":2642:3531  if(nftId == 0 && Diamond < 50) {... */\n    tag_177:\n        /* \"Dropsite.sol\":2860:2861  1 */\n      0x01\n        /* \"Dropsite.sol\":2851:2856  nftId */\n      dup2\n        /* \"Dropsite.sol\":2851:2861  nftId <= 1 */\n      gt\n      iszero\n        /* \"Dropsite.sol\":2851:2875  nftId <= 1 && Gold < 100 */\n      dup1\n      iszero\n      tag_182\n      jumpi\n      pop\n        /* \"Dropsite.sol\":2872:2875  100 */\n      0x64\n        /* \"Dropsite.sol\":2865:2869  Gold */\n      sload(0x07)\n        /* \"Dropsite.sol\":2865:2875  Gold < 100 */\n      lt\n        /* \"Dropsite.sol\":2851:2875  nftId <= 1 && Gold < 100 */\n    tag_182:\n        /* \"Dropsite.sol\":2848:3531  if(nftId <= 1 && Gold < 100) {... */\n      iszero\n      tag_183\n      jumpi\n        /* \"Dropsite.sol\":2904:2917  data = \"Gold\" */\n      mload(0x40)\n      dup1\n      0x40\n      add\n      0x40\n      mstore\n      dup1\n      0x04\n      dup2\n      mstore\n      0x20\n      add\n      0x476f6c6400000000000000000000000000000000000000000000000000000000\n      dup2\n      mstore\n      pop\n        /* \"Dropsite.sol\":2904:2908  data */\n      0x02\n        /* \"Dropsite.sol\":2904:2917  data = \"Gold\" */\n      swap1\n      dup1\n      mload\n      swap1\n      0x20\n      add\n      swap1\n      tag_184\n      swap3\n      swap2\n      swap1\n      tag_179\n      jump\t// in\n    tag_184:\n      pop\n        /* \"Dropsite.sol\":2931:2935  Gold */\n      0x07\n      0x00\n        /* \"Dropsite.sol\":2931:2937  Gold++ */\n      dup2\n      sload\n      dup1\n      swap3\n      swap2\n      swap1\n      tag_185\n      swap1\n      tag_114\n      jump\t// in\n    tag_185:\n      swap2\n      swap1\n      pop\n      sstore\n      pop\n        /* \"Dropsite.sol\":2958:2963  nftId */\n      dup1\n        /* \"Dropsite.sol\":2951:2963  return nftId */\n      swap3\n      pop\n      pop\n      pop\n      jump(tag_169)\n        /* \"Dropsite.sol\":2848:3531  if(nftId <= 1 && Gold < 100) {... */\n    tag_183:\n        /* \"Dropsite.sol\":3093:3094  2 */\n      0x02\n        /* \"Dropsite.sol\":3084:3089  nftId */\n      dup2\n        /* \"Dropsite.sol\":3084:3094  nftId <= 2 */\n      gt\n      iszero\n        /* \"Dropsite.sol\":3084:3111  nftId <= 2 && Silver <= 850 */\n      dup1\n      iszero\n      tag_187\n      jumpi\n      pop\n        /* \"Dropsite.sol\":3108:3111  850 */\n      0x0352\n        /* \"Dropsite.sol\":3098:3104  Silver */\n      sload(0x08)\n        /* \"Dropsite.sol\":3098:3111  Silver <= 850 */\n      gt\n      iszero\n        /* \"Dropsite.sol\":3084:3111  nftId <= 2 && Silver <= 850 */\n    tag_187:\n        /* \"Dropsite.sol\":3081:3531  if(nftId <= 2 && Silver <= 850) {... */\n      iszero\n      tag_188\n      jumpi\n        /* \"Dropsite.sol\":3140:3153  data=\"Silver\" */\n      mload(0x40)\n      dup1\n      0x40\n      add\n      0x40\n      mstore\n      dup1\n      0x06\n      dup2\n      mstore\n      0x20\n      add\n      0x53696c7665720000000000000000000000000000000000000000000000000000\n      dup2\n      mstore\n      pop\n        /* \"Dropsite.sol\":3140:3144  data */\n      0x02\n        /* \"Dropsite.sol\":3140:3153  data=\"Silver\" */\n      swap1\n      dup1\n      mload\n      swap1\n      0x20\n      add\n      swap1\n      tag_189\n      swap3\n      swap2\n      swap1\n      tag_179\n      jump\t// in\n    tag_189:\n      pop\n        /* \"Dropsite.sol\":3167:3173  Silver */\n      0x08\n      0x00\n        /* \"Dropsite.sol\":3167:3175  Silver++ */\n      dup2\n      sload\n      dup1\n      swap3\n      swap2\n      swap1\n      tag_190\n      swap1\n      tag_114\n      jump\t// in\n    tag_190:\n      swap2\n      swap1\n      pop\n      sstore\n      pop\n        /* \"Dropsite.sol\":3196:3201  nftId */\n      dup1\n        /* \"Dropsite.sol\":3189:3201  return nftId */\n      swap3\n      pop\n      pop\n      pop\n      jump(tag_169)\n        /* \"Dropsite.sol\":3081:3531  if(nftId <= 2 && Silver <= 850) {... */\n    tag_188:\n        /* \"Dropsite.sol\":3250:3253  100 */\n      0x64\n        /* \"Dropsite.sol\":3243:3247  Gold */\n      sload(0x07)\n        /* \"Dropsite.sol\":3243:3253  Gold < 100 */\n      lt\n        /* \"Dropsite.sol\":3240:3522  if(Gold < 100) {... */\n      iszero\n      tag_192\n      jumpi\n        /* \"Dropsite.sol\":3281:3282  1 */\n      0x01\n        /* \"Dropsite.sol\":3273:3282  nftId = 1 */\n      swap1\n      pop\n        /* \"Dropsite.sol\":3300:3313  data = \"Gold\" */\n      mload(0x40)\n      dup1\n      0x40\n      add\n      0x40\n      mstore\n      dup1\n      0x04\n      dup2\n      mstore\n      0x20\n      add\n      0x476f6c6400000000000000000000000000000000000000000000000000000000\n      dup2\n      mstore\n      pop\n        /* \"Dropsite.sol\":3300:3304  data */\n      0x02\n        /* \"Dropsite.sol\":3300:3313  data = \"Gold\" */\n      swap1\n      dup1\n      mload\n      swap1\n      0x20\n      add\n      swap1\n      tag_193\n      swap3\n      swap2\n      swap1\n      tag_179\n      jump\t// in\n    tag_193:\n      pop\n        /* \"Dropsite.sol\":3331:3335  Gold */\n      0x07\n      0x00\n        /* \"Dropsite.sol\":3331:3337  Gold++ */\n      dup2\n      sload\n      dup1\n      swap3\n      swap2\n      swap1\n      tag_194\n      swap1\n      tag_114\n      jump\t// in\n    tag_194:\n      swap2\n      swap1\n      pop\n      sstore\n      pop\n        /* \"Dropsite.sol\":3363:3368  nftId */\n      dup1\n        /* \"Dropsite.sol\":3356:3368  return nftId */\n      swap3\n      pop\n      pop\n      pop\n      jump(tag_169)\n        /* \"Dropsite.sol\":3240:3522  if(Gold < 100) {... */\n    tag_192:\n        /* \"Dropsite.sol\":3415:3416  0 */\n      0x00\n        /* \"Dropsite.sol\":3407:3416  nftId = 0 */\n      swap1\n      pop\n        /* \"Dropsite.sol\":3434:3450  data = \"Diamond\" */\n      mload(0x40)\n      dup1\n      0x40\n      add\n      0x40\n      mstore\n      dup1\n      0x07\n      dup2\n      mstore\n      0x20\n      add\n      0x4469616d6f6e6400000000000000000000000000000000000000000000000000\n      dup2\n      mstore\n      pop\n        /* \"Dropsite.sol\":3434:3438  data */\n      0x02\n        /* \"Dropsite.sol\":3434:3450  data = \"Diamond\" */\n      swap1\n      dup1\n      mload\n      swap1\n      0x20\n      add\n      swap1\n      tag_196\n      swap3\n      swap2\n      swap1\n      tag_179\n      jump\t// in\n    tag_196:\n      pop\n        /* \"Dropsite.sol\":3468:3475  Diamond */\n      0x06\n      0x00\n        /* \"Dropsite.sol\":3468:3477  Diamond++ */\n      dup2\n      sload\n      dup1\n      swap3\n      swap2\n      swap1\n      tag_197\n      swap1\n      tag_114\n      jump\t// in\n    tag_197:\n      swap2\n      swap1\n      pop\n      sstore\n      pop\n        /* \"Dropsite.sol\":3502:3507  nftId */\n      dup1\n        /* \"Dropsite.sol\":3495:3507  return nftId */\n      swap3\n      pop\n      pop\n      pop\n        /* \"Dropsite.sol\":852:853  _ */\n    tag_169:\n        /* \"Dropsite.sol\":2429:3536  function updateConditions() internal contractIsNotPaused returns(uint) {... */\n      swap1\n      jump\t// out\n        /* \"ERC1155_Dropsite.sol\":835:1386  function _mint(... */\n    tag_112:\n        /* \"ERC1155_Dropsite.sol\":996:997  0 */\n      0x00\n        /* \"ERC1155_Dropsite.sol\":982:998  to != address(0) */\n      0xffffffffffffffffffffffffffffffffffffffff\n      and\n        /* \"ERC1155_Dropsite.sol\":982:984  to */\n      dup5\n        /* \"ERC1155_Dropsite.sol\":982:998  to != address(0) */\n      0xffffffffffffffffffffffffffffffffffffffff\n      and\n      eq\n      iszero\n        /* \"ERC1155_Dropsite.sol\":974:1036  require(to != address(0), \"ERC1155: mint to the zero address\") */\n      tag_199\n      jumpi\n      mload(0x40)\n      0x08c379a000000000000000000000000000000000000000000000000000000000\n      dup2\n      mstore\n      0x04\n      add\n      tag_200\n      swap1\n      tag_201\n      jump\t// in\n    tag_200:\n      mload(0x40)\n      dup1\n      swap2\n      sub\n      swap1\n      revert\n    tag_199:\n        /* \"ERC1155_Dropsite.sol\":1047:1063  address operator */\n      0x00\n        /* \"ERC1155_Dropsite.sol\":1066:1078  _msgSender() */\n      tag_202\n        /* \"ERC1155_Dropsite.sol\":1066:1076  _msgSender */\n      tag_68\n        /* \"ERC1155_Dropsite.sol\":1066:1078  _msgSender() */\n      jump\t// in\n    tag_202:\n        /* \"ERC1155_Dropsite.sol\":1047:1078  address operator = _msgSender() */\n      swap1\n      pop\n        /* \"ERC1155_Dropsite.sol\":1089:1191  _beforeTokenTransfer(operator, address(0), to, _asSingletonArray(id), _asSingletonArray(amount), data) */\n      tag_203\n        /* \"ERC1155_Dropsite.sol\":1110:1118  operator */\n      dup2\n        /* \"ERC1155_Dropsite.sol\":1128:1129  0 */\n      0x00\n        /* \"ERC1155_Dropsite.sol\":1132:1134  to */\n      dup8\n        /* \"ERC1155_Dropsite.sol\":1136:1157  _asSingletonArray(id) */\n      tag_204\n        /* \"ERC1155_Dropsite.sol\":1154:1156  id */\n      dup9\n        /* \"ERC1155_Dropsite.sol\":1136:1153  _asSingletonArray */\n      tag_205\n        /* \"ERC1155_Dropsite.sol\":1136:1157  _asSingletonArray(id) */\n      jump\t// in\n    tag_204:\n        /* \"ERC1155_Dropsite.sol\":1159:1184  _asSingletonArray(amount) */\n      tag_206\n        /* \"ERC1155_Dropsite.sol\":1177:1183  amount */\n      dup9\n        /* \"ERC1155_Dropsite.sol\":1159:1176  _asSingletonArray */\n      tag_205\n        /* \"ERC1155_Dropsite.sol\":1159:1184  _asSingletonArray(amount) */\n      jump\t// in\n    tag_206:\n        /* \"ERC1155_Dropsite.sol\":1186:1190  data */\n      dup8\n        /* \"ERC1155_Dropsite.sol\":1089:1109  _beforeTokenTransfer */\n      tag_207\n        /* \"ERC1155_Dropsite.sol\":1089:1191  _beforeTokenTransfer(operator, address(0), to, _asSingletonArray(id), _asSingletonArray(amount), data) */\n      jump\t// in\n    tag_203:\n        /* \"ERC1155_Dropsite.sol\":1222:1228  amount */\n      dup3\n        /* \"ERC1155_Dropsite.sol\":1201:1210  _balances */\n      0x00\n        /* \"ERC1155_Dropsite.sol\":1201:1214  _balances[id] */\n      dup1\n        /* \"ERC1155_Dropsite.sol\":1211:1213  id */\n      dup7\n        /* \"ERC1155_Dropsite.sol\":1201:1214  _balances[id] */\n      dup2\n      mstore\n      0x20\n      add\n      swap1\n      dup2\n      mstore\n      0x20\n      add\n      0x00\n      keccak256\n        /* \"ERC1155_Dropsite.sol\":1201:1218  _balances[id][to] */\n      0x00\n        /* \"ERC1155_Dropsite.sol\":1215:1217  to */\n      dup8\n        /* \"ERC1155_Dropsite.sol\":1201:1218  _balances[id][to] */\n      0xffffffffffffffffffffffffffffffffffffffff\n      and\n      0xffffffffffffffffffffffffffffffffffffffff\n      and\n      dup2\n      mstore\n      0x20\n      add\n      swap1\n      dup2\n      mstore\n      0x20\n      add\n      0x00\n      keccak256\n      0x00\n        /* \"ERC1155_Dropsite.sol\":1201:1228  _balances[id][to] += amount */\n      dup3\n      dup3\n      sload\n      tag_208\n      swap2\n      swap1\n      tag_209\n      jump\t// in\n    tag_208:\n      swap3\n      pop\n      pop\n      dup2\n      swap1\n      sstore\n      pop\n        /* \"ERC1155_Dropsite.sol\":1280:1282  to */\n      dup5\n        /* \"ERC1155_Dropsite.sol\":1243:1295  TransferSingle(operator, address(0), to, id, amount) */\n      0xffffffffffffffffffffffffffffffffffffffff\n      and\n        /* \"ERC1155_Dropsite.sol\":1276:1277  0 */\n      0x00\n        /* \"ERC1155_Dropsite.sol\":1243:1295  TransferSingle(operator, address(0), to, id, amount) */\n      0xffffffffffffffffffffffffffffffffffffffff\n      and\n        /* \"ERC1155_Dropsite.sol\":1258:1266  operator */\n      dup3\n        /* \"ERC1155_Dropsite.sol\":1243:1295  TransferSingle(operator, address(0), to, id, amount) */\n      0xffffffffffffffffffffffffffffffffffffffff\n      and\n      0xc3d58168c5ae7397731d063d5bbf3d657854427343f4c083240f7aacaa2d0f62\n        /* \"ERC1155_Dropsite.sol\":1284:1286  id */\n      dup8\n        /* \"ERC1155_Dropsite.sol\":1288:1294  amount */\n      dup8\n        /* \"ERC1155_Dropsite.sol\":1243:1295  TransferSingle(operator, address(0), to, id, amount) */\n      mload(0x40)\n      tag_210\n      swap3\n      swap2\n      swap1\n      tag_211\n      jump\t// in\n    tag_210:\n      mload(0x40)\n      dup1\n      swap2\n      sub\n      swap1\n      log4\n        /* \"ERC1155_Dropsite.sol\":1305:1379  _doSafeTransferAcceptanceCheck(operator, address(0), to, id, amount, data) */\n      tag_212\n        /* \"ERC1155_Dropsite.sol\":1336:1344  operator */\n      dup2\n        /* \"ERC1155_Dropsite.sol\":1354:1355  0 */\n      0x00\n        /* \"ERC1155_Dropsite.sol\":1358:1360  to */\n      dup8\n        /* \"ERC1155_Dropsite.sol\":1362:1364  id */\n      dup8\n        /* \"ERC1155_Dropsite.sol\":1366:1372  amount */\n      dup8\n        /* \"ERC1155_Dropsite.sol\":1374:1378  data */\n      dup8\n        /* \"ERC1155_Dropsite.sol\":1305:1335  _doSafeTransferAcceptanceCheck */\n      tag_213\n        /* \"ERC1155_Dropsite.sol\":1305:1379  _doSafeTransferAcceptanceCheck(operator, address(0), to, id, amount, data) */\n      jump\t// in\n    tag_212:\n        /* \"ERC1155_Dropsite.sol\":964:1386  {... */\n      pop\n        /* \"ERC1155_Dropsite.sol\":835:1386  function _mint(... */\n      pop\n      pop\n      pop\n      pop\n      jump\t// out\n        /* \"Dropsite.sol\":4012:4131  function depositAmount(address payee,uint amountToDeposit) internal {... */\n    tag_143:\n        /* \"Dropsite.sol\":4109:4124  amountToDeposit */\n      dup1\n        /* \"Dropsite.sol\":4090:4098  deposits */\n      0x0a\n        /* \"Dropsite.sol\":4090:4105  deposits[payee] */\n      0x00\n        /* \"Dropsite.sol\":4099:4104  payee */\n      dup5\n        /* \"Dropsite.sol\":4090:4105  deposits[payee] */\n      0xffffffffffffffffffffffffffffffffffffffff\n      and\n      0xffffffffffffffffffffffffffffffffffffffff\n      and\n      dup2\n      mstore\n      0x20\n      add\n      swap1\n      dup2\n      mstore\n      0x20\n      add\n      0x00\n      keccak256\n      0x00\n        /* \"Dropsite.sol\":4090:4124  deposits[payee] += amountToDeposit */\n      dup3\n      dup3\n      sload\n      tag_215\n      swap2\n      swap1\n      tag_209\n      jump\t// in\n    tag_215:\n      swap3\n      pop\n      pop\n      dup2\n      swap1\n      sstore\n      pop\n        /* \"Dropsite.sol\":4012:4131  function depositAmount(address payee,uint amountToDeposit) internal {... */\n      pop\n      pop\n      jump\t// out\n        /* \"Dropsite.sol\":2228:2424  function random() internal view returns (uint) {... */\n    tag_171:\n        /* \"Dropsite.sol\":2269:2273  uint */\n      0x00\n        /* \"Dropsite.sol\":2305:2322  uint randomnumber */\n      dup1\n        /* \"Dropsite.sol\":2390:2392  10 */\n      0x0a\n        /* \"Dropsite.sol\":2357:2372  block.timestamp */\n      timestamp\n        /* \"Dropsite.sol\":2374:2384  msg.sender */\n      caller\n        /* \"Dropsite.sol\":2340:2385  abi.encodePacked(block.timestamp, msg.sender) */\n      add(0x20, mload(0x40))\n      tag_217\n      swap3\n      swap2\n      swap1\n      tag_218\n      jump\t// in\n    tag_217:\n      mload(0x40)\n      0x20\n      dup2\n      dup4\n      sub\n      sub\n      dup2\n      mstore\n      swap1\n      0x40\n      mstore\n        /* \"Dropsite.sol\":2330:2386  keccak256(abi.encodePacked(block.timestamp, msg.sender)) */\n      dup1\n      mload\n      swap1\n      0x20\n      add\n      keccak256\n        /* \"Dropsite.sol\":2325:2387  uint(keccak256(abi.encodePacked(block.timestamp, msg.sender))) */\n      0x00\n      shr\n        /* \"Dropsite.sol\":2325:2392  uint(keccak256(abi.encodePacked(block.timestamp, msg.sender))) % 10 */\n      tag_219\n      swap2\n      swap1\n      tag_220\n      jump\t// in\n    tag_219:\n        /* \"Dropsite.sol\":2305:2392  uint randomnumber = uint(keccak256(abi.encodePacked(block.timestamp, msg.sender))) % 10 */\n      swap1\n      pop\n        /* \"Dropsite.sol\":2405:2417  randomnumber */\n      dup1\n        /* \"Dropsite.sol\":2398:2417  return randomnumber */\n      swap2\n      pop\n      pop\n        /* \"Dropsite.sol\":2228:2424  function random() internal view returns (uint) {... */\n      swap1\n      jump\t// out\n        /* \"ERC1155_Dropsite.sol\":2344:2537  function _asSingletonArray(uint256 element) private pure returns (uint256[] memory) {... */\n    tag_205:\n        /* \"ERC1155_Dropsite.sol\":2410:2426  uint256[] memory */\n      0x60\n        /* \"ERC1155_Dropsite.sol\":2438:2460  uint256[] memory array */\n      0x00\n        /* \"ERC1155_Dropsite.sol\":2477:2478  1 */\n      0x01\n        /* \"ERC1155_Dropsite.sol\":2463:2479  new uint256[](1) */\n      0xffffffffffffffff\n      dup2\n      gt\n      iszero\n      tag_222\n      jumpi\n      tag_223\n      tag_224\n      jump\t// in\n    tag_223:\n    tag_222:\n      mload(0x40)\n      swap1\n      dup1\n      dup3\n      mstore\n      dup1\n      0x20\n      mul\n      0x20\n      add\n      dup3\n      add\n      0x40\n      mstore\n      dup1\n      iszero\n      tag_225\n      jumpi\n      dup2\n      0x20\n      add\n      0x20\n      dup3\n      mul\n      dup1\n      calldatasize\n      dup4\n      calldatacopy\n      dup1\n      dup3\n      add\n      swap2\n      pop\n      pop\n      swap1\n      pop\n    tag_225:\n      pop\n        /* \"ERC1155_Dropsite.sol\":2438:2479  uint256[] memory array = new uint256[](1) */\n      swap1\n      pop\n        /* \"ERC1155_Dropsite.sol\":2500:2507  element */\n      dup3\n        /* \"ERC1155_Dropsite.sol\":2489:2494  array */\n      dup2\n        /* \"ERC1155_Dropsite.sol\":2495:2496  0 */\n      0x00\n        /* \"ERC1155_Dropsite.sol\":2489:2497  array[0] */\n      dup2\n      mload\n      dup2\n      lt\n      tag_226\n      jumpi\n      tag_227\n      tag_174\n      jump\t// in\n    tag_227:\n    tag_226:\n      0x20\n      mul\n      0x20\n      add\n      add\n        /* \"ERC1155_Dropsite.sol\":2489:2507  array[0] = element */\n      dup2\n      dup2\n      mstore\n      pop\n      pop\n        /* \"ERC1155_Dropsite.sol\":2525:2530  array */\n      dup1\n        /* \"ERC1155_Dropsite.sol\":2518:2530  return array */\n      swap2\n      pop\n      pop\n        /* \"ERC1155_Dropsite.sol\":2344:2537  function _asSingletonArray(uint256 element) private pure returns (uint256[] memory) {... */\n      swap2\n      swap1\n      pop\n      jump\t// out\n        /* \"ERC1155_Dropsite.sol\":1393:1607  function _beforeTokenTransfer(... */\n    tag_207:\n      pop\n      pop\n      pop\n      pop\n      pop\n      pop\n      jump\t// out\n        /* \"ERC1155_Dropsite.sol\":1613:2338  function _doSafeTransferAcceptanceCheck(... */\n    tag_213:\n        /* \"ERC1155_Dropsite.sol\":1820:1835  to.isContract() */\n      tag_230\n        /* \"ERC1155_Dropsite.sol\":1820:1822  to */\n      dup5\n        /* \"ERC1155_Dropsite.sol\":1820:1833  to.isContract */\n      0xffffffffffffffffffffffffffffffffffffffff\n      and\n      tag_231\n        /* \"ERC1155_Dropsite.sol\":1820:1835  to.isContract() */\n      jump\t// in\n    tag_230:\n        /* \"ERC1155_Dropsite.sol\":1816:2332  if (to.isContract()) {... */\n      iszero\n      tag_232\n      jumpi\n        /* \"ERC1155_Dropsite.sol\":1872:1874  to */\n      dup4\n        /* \"ERC1155_Dropsite.sol\":1855:1893  IERC1155Receiver(to).onERC1155Received */\n      0xffffffffffffffffffffffffffffffffffffffff\n      and\n      0xf23a6e61\n        /* \"ERC1155_Dropsite.sol\":1894:1902  operator */\n      dup8\n        /* \"ERC1155_Dropsite.sol\":1904:1908  from */\n      dup8\n        /* \"ERC1155_Dropsite.sol\":1910:1912  id */\n      dup7\n        /* \"ERC1155_Dropsite.sol\":1914:1920  amount */\n      dup7\n        /* \"ERC1155_Dropsite.sol\":1922:1926  data */\n      dup7\n        /* \"ERC1155_Dropsite.sol\":1855:1927  IERC1155Receiver(to).onERC1155Received(operator, from, id, amount, data) */\n      mload(0x40)\n      dup7\n      0xffffffff\n      and\n      0xe0\n      shl\n      dup2\n      mstore\n      0x04\n      add\n      tag_233\n      swap6\n      swap5\n      swap4\n      swap3\n      swap2\n      swap1\n      tag_234\n      jump\t// in\n    tag_233:\n      0x20\n      mload(0x40)\n      dup1\n      dup4\n      sub\n      dup2\n      0x00\n      dup8\n      dup1\n      extcodesize\n      iszero\n      dup1\n      iszero\n      tag_235\n      jumpi\n      0x00\n      dup1\n      revert\n    tag_235:\n      pop\n      gas\n      call\n      swap3\n      pop\n      pop\n      pop\n      dup1\n      iszero\n      tag_236\n      jumpi\n      pop\n      mload(0x40)\n      returndatasize\n      not(0x1f)\n      0x1f\n      dup3\n      add\n      and\n      dup3\n      add\n      dup1\n      0x40\n      mstore\n      pop\n      dup2\n      add\n      swap1\n      tag_237\n      swap2\n      swap1\n      tag_238\n      jump\t// in\n    tag_237:\n      0x01\n    tag_236:\n        /* \"ERC1155_Dropsite.sol\":1851:2322  try IERC1155Receiver(to).onERC1155Received(operator, from, id, amount, data) returns (bytes4 response) {... */\n      tag_239\n      jumpi\n      tag_243\n      tag_244\n      jump\t// in\n    tag_243:\n      dup1\n      0x08c379a0\n      eq\n      iszero\n      tag_242\n      jumpi\n      pop\n      tag_245\n      tag_246\n      jump\t// in\n    tag_245:\n      dup1\n      tag_247\n      jumpi\n      pop\n      jump(tag_241)\n    tag_247:\n        /* \"ERC1155_Dropsite.sol\":2198:2204  reason */\n      dup1\n        /* \"ERC1155_Dropsite.sol\":2191:2205  revert(reason) */\n      mload(0x40)\n      0x08c379a000000000000000000000000000000000000000000000000000000000\n      dup2\n      mstore\n      0x04\n      add\n      tag_248\n      swap2\n      swap1\n      tag_249\n      jump\t// in\n    tag_248:\n      mload(0x40)\n      dup1\n      swap2\n      sub\n      swap1\n      revert\n        /* \"ERC1155_Dropsite.sol\":1851:2322  try IERC1155Receiver(to).onERC1155Received(operator, from, id, amount, data) returns (bytes4 response) {... */\n    tag_242:\n      pop\n    tag_241:\n        /* \"ERC1155_Dropsite.sol\":2245:2307  revert(\"ERC1155: transfer to non ERC1155Receiver implementer\") */\n      mload(0x40)\n      0x08c379a000000000000000000000000000000000000000000000000000000000\n      dup2\n      mstore\n      0x04\n      add\n      tag_250\n      swap1\n      tag_251\n      jump\t// in\n    tag_250:\n      mload(0x40)\n      dup1\n      swap2\n      sub\n      swap1\n      revert\n        /* \"ERC1155_Dropsite.sol\":1851:2322  try IERC1155Receiver(to).onERC1155Received(operator, from, id, amount, data) returns (bytes4 response) {... */\n    tag_239:\n        /* \"ERC1155_Dropsite.sol\":1988:2031  IERC1155Receiver.onERC1155Received.selector */\n      shl(0xe0, 0xf23a6e61)\n        /* \"ERC1155_Dropsite.sol\":1976:2031  response != IERC1155Receiver.onERC1155Received.selector */\n      not(0xffffffffffffffffffffffffffffffffffffffffffffffffffffffff)\n      and\n        /* \"ERC1155_Dropsite.sol\":1976:1984  response */\n      dup2\n        /* \"ERC1155_Dropsite.sol\":1976:2031  response != IERC1155Receiver.onERC1155Received.selector */\n      not(0xffffffffffffffffffffffffffffffffffffffffffffffffffffffff)\n      and\n      eq\n        /* \"ERC1155_Dropsite.sol\":1972:2124  if (response != IERC1155Receiver.onERC1155Received.selector) {... */\n      tag_253\n      jumpi\n        /* \"ERC1155_Dropsite.sol\":2055:2105  revert(\"ERC1155: ERC1155Receiver rejected tokens\") */\n      mload(0x40)\n      0x08c379a000000000000000000000000000000000000000000000000000000000\n      dup2\n      mstore\n      0x04\n      add\n      tag_254\n      swap1\n      tag_255\n      jump\t// in\n    tag_254:\n      mload(0x40)\n      dup1\n      swap2\n      sub\n      swap1\n      revert\n        /* \"ERC1155_Dropsite.sol\":1972:2124  if (response != IERC1155Receiver.onERC1155Received.selector) {... */\n    tag_253:\n        /* \"ERC1155_Dropsite.sol\":1928:2138  returns (bytes4 response) {... */\n      pop\n        /* \"ERC1155_Dropsite.sol\":1816:2332  if (to.isContract()) {... */\n    tag_232:\n        /* \"ERC1155_Dropsite.sol\":1613:2338  function _doSafeTransferAcceptanceCheck(... */\n      pop\n      pop\n      pop\n      pop\n      pop\n      pop\n      jump\t// out\n        /* \"Address.sol\":771:1148  function isContract(address account) internal view returns (bool) {... */\n    tag_231:\n        /* \"Address.sol\":831:835  bool */\n      0x00\n        /* \"Address.sol\":1034:1046  uint256 size */\n      dup1\n        /* \"Address.sol\":1099:1106  account */\n      dup3\n        /* \"Address.sol\":1087:1107  extcodesize(account) */\n      extcodesize\n        /* \"Address.sol\":1079:1107  size := extcodesize(account) */\n      swap1\n      pop\n        /* \"Address.sol\":1140:1141  0 */\n      0x00\n        /* \"Address.sol\":1133:1137  size */\n      dup2\n        /* \"Address.sol\":1133:1141  size > 0 */\n      gt\n        /* \"Address.sol\":1126:1141  return size > 0 */\n      swap2\n      pop\n      pop\n        /* \"Address.sol\":771:1148  function isContract(address account) internal view returns (bool) {... */\n      swap2\n      swap1\n      pop\n      jump\t// out\n    tag_179:\n      dup3\n      dup1\n      sload\n      tag_257\n      swap1\n      tag_107\n      jump\t// in\n    tag_257:\n      swap1\n      0x00\n      mstore\n      keccak256(0x00, 0x20)\n      swap1\n      0x1f\n      add\n      0x20\n      swap1\n      div\n      dup2\n      add\n      swap3\n      dup3\n      tag_259\n      jumpi\n      0x00\n      dup6\n      sstore\n      jump(tag_258)\n    tag_259:\n      dup3\n      0x1f\n      lt\n      tag_260\n      jumpi\n      dup1\n      mload\n      not(0xff)\n      and\n      dup4\n      dup1\n      add\n      or\n      dup6\n      sstore\n      jump(tag_258)\n    tag_260:\n      dup3\n      dup1\n      add\n      0x01\n      add\n      dup6\n      sstore\n      dup3\n      iszero\n      tag_258\n      jumpi\n      swap2\n      dup3\n      add\n    tag_261:\n      dup3\n      dup2\n      gt\n      iszero\n      tag_262\n      jumpi\n      dup3\n      mload\n      dup3\n      sstore\n      swap2\n      0x20\n      add\n      swap2\n      swap1\n      0x01\n      add\n      swap1\n      jump(tag_261)\n    tag_262:\n    tag_258:\n      pop\n      swap1\n      pop\n      tag_263\n      swap2\n      swap1\n      tag_264\n      jump\t// in\n    tag_263:\n      pop\n      swap1\n      jump\t// out\n    tag_264:\n    tag_265:\n      dup1\n      dup3\n      gt\n      iszero\n      tag_266\n      jumpi\n      0x00\n      dup2\n      0x00\n      swap1\n      sstore\n      pop\n      0x01\n      add\n      jump(tag_265)\n    tag_266:\n      pop\n      swap1\n      jump\t// out\n        /* \"#utility.yul\":7:146   */\n    tag_268:\n        /* \"#utility.yul\":53:58   */\n      0x00\n        /* \"#utility.yul\":91:97   */\n      dup2\n        /* \"#utility.yul\":78:98   */\n      calldataload\n        /* \"#utility.yul\":69:98   */\n      swap1\n      pop\n        /* \"#utility.yul\":107:140   */\n      tag_270\n        /* \"#utility.yul\":134:139   */\n      dup2\n        /* \"#utility.yul\":107:140   */\n      tag_271\n      jump\t// in\n    tag_270:\n        /* \"#utility.yul\":7:146   */\n      swap3\n      swap2\n      pop\n      pop\n      jump\t// out\n        /* \"#utility.yul\":152:307   */\n    tag_272:\n        /* \"#utility.yul\":206:211   */\n      0x00\n        /* \"#utility.yul\":244:250   */\n      dup2\n        /* \"#utility.yul\":231:251   */\n      calldataload\n        /* \"#utility.yul\":222:251   */\n      swap1\n      pop\n        /* \"#utility.yul\":260:301   */\n      tag_274\n        /* \"#utility.yul\":295:300   */\n      dup2\n        /* \"#utility.yul\":260:301   */\n      tag_275\n      jump\t// in\n    tag_274:\n        /* \"#utility.yul\":152:307   */\n      swap3\n      swap2\n      pop\n      pop\n      jump\t// out\n        /* \"#utility.yul\":313:454   */\n    tag_276:\n        /* \"#utility.yul\":369:374   */\n      0x00\n        /* \"#utility.yul\":400:406   */\n      dup2\n        /* \"#utility.yul\":394:407   */\n      mload\n        /* \"#utility.yul\":385:407   */\n      swap1\n      pop\n        /* \"#utility.yul\":416:448   */\n      tag_278\n        /* \"#utility.yul\":442:447   */\n      dup2\n        /* \"#utility.yul\":416:448   */\n      tag_279\n      jump\t// in\n    tag_278:\n        /* \"#utility.yul\":313:454   */\n      swap3\n      swap2\n      pop\n      pop\n      jump\t// out\n        /* \"#utility.yul\":460:599   */\n    tag_280:\n        /* \"#utility.yul\":506:511   */\n      0x00\n        /* \"#utility.yul\":544:550   */\n      dup2\n        /* \"#utility.yul\":531:551   */\n      calldataload\n        /* \"#utility.yul\":522:551   */\n      swap1\n      pop\n        /* \"#utility.yul\":560:593   */\n      tag_282\n        /* \"#utility.yul\":587:592   */\n      dup2\n        /* \"#utility.yul\":560:593   */\n      tag_283\n      jump\t// in\n    tag_282:\n        /* \"#utility.yul\":460:599   */\n      swap3\n      swap2\n      pop\n      pop\n      jump\t// out\n        /* \"#utility.yul\":605:934   */\n    tag_34:\n        /* \"#utility.yul\":664:670   */\n      0x00\n        /* \"#utility.yul\":713:715   */\n      0x20\n        /* \"#utility.yul\":701:710   */\n      dup3\n        /* \"#utility.yul\":692:699   */\n      dup5\n        /* \"#utility.yul\":688:711   */\n      sub\n        /* \"#utility.yul\":684:716   */\n      slt\n        /* \"#utility.yul\":681:800   */\n      iszero\n      tag_285\n      jumpi\n        /* \"#utility.yul\":719:798   */\n      tag_286\n      tag_287\n      jump\t// in\n    tag_286:\n        /* \"#utility.yul\":681:800   */\n    tag_285:\n        /* \"#utility.yul\":839:840   */\n      0x00\n        /* \"#utility.yul\":864:917   */\n      tag_288\n        /* \"#utility.yul\":909:916   */\n      dup5\n        /* \"#utility.yul\":900:906   */\n      dup3\n        /* \"#utility.yul\":889:898   */\n      dup6\n        /* \"#utility.yul\":885:907   */\n      add\n        /* \"#utility.yul\":864:917   */\n      tag_268\n      jump\t// in\n    tag_288:\n        /* \"#utility.yul\":854:917   */\n      swap2\n      pop\n        /* \"#utility.yul\":810:927   */\n      pop\n        /* \"#utility.yul\":605:934   */\n      swap3\n      swap2\n      pop\n      pop\n      jump\t// out\n        /* \"#utility.yul\":940:1285   */\n    tag_21:\n        /* \"#utility.yul\":1007:1013   */\n      0x00\n        /* \"#utility.yul\":1056:1058   */\n      0x20\n        /* \"#utility.yul\":1044:1053   */\n      dup3\n        /* \"#utility.yul\":1035:1042   */\n      dup5\n        /* \"#utility.yul\":1031:1054   */\n      sub\n        /* \"#utility.yul\":1027:1059   */\n      slt\n        /* \"#utility.yul\":1024:1143   */\n      iszero\n      tag_290\n      jumpi\n        /* \"#utility.yul\":1062:1141   */\n      tag_291\n      tag_287\n      jump\t// in\n    tag_291:\n        /* \"#utility.yul\":1024:1143   */\n    tag_290:\n        /* \"#utility.yul\":1182:1183   */\n      0x00\n        /* \"#utility.yul\":1207:1268   */\n      tag_292\n        /* \"#utility.yul\":1260:1267   */\n      dup5\n        /* \"#utility.yul\":1251:1257   */\n      dup3\n        /* \"#utility.yul\":1240:1249   */\n      dup6\n        /* \"#utility.yul\":1236:1258   */\n      add\n        /* \"#utility.yul\":1207:1268   */\n      tag_272\n      jump\t// in\n    tag_292:\n        /* \"#utility.yul\":1197:1268   */\n      swap2\n      pop\n        /* \"#utility.yul\":1153:1278   */\n      pop\n        /* \"#utility.yul\":940:1285   */\n      swap3\n      swap2\n      pop\n      pop\n      jump\t// out\n        /* \"#utility.yul\":1291:1640   */\n    tag_238:\n        /* \"#utility.yul\":1360:1366   */\n      0x00\n        /* \"#utility.yul\":1409:1411   */\n      0x20\n        /* \"#utility.yul\":1397:1406   */\n      dup3\n        /* \"#utility.yul\":1388:1395   */\n      dup5\n        /* \"#utility.yul\":1384:1407   */\n      sub\n        /* \"#utility.yul\":1380:1412   */\n      slt\n        /* \"#utility.yul\":1377:1496   */\n      iszero\n      tag_294\n      jumpi\n        /* \"#utility.yul\":1415:1494   */\n      tag_295\n      tag_287\n      jump\t// in\n    tag_295:\n        /* \"#utility.yul\":1377:1496   */\n    tag_294:\n        /* \"#utility.yul\":1535:1536   */\n      0x00\n        /* \"#utility.yul\":1560:1623   */\n      tag_296\n        /* \"#utility.yul\":1615:1622   */\n      dup5\n        /* \"#utility.yul\":1606:1612   */\n      dup3\n        /* \"#utility.yul\":1595:1604   */\n      dup6\n        /* \"#utility.yul\":1591:1613   */\n      add\n        /* \"#utility.yul\":1560:1623   */\n      tag_276\n      jump\t// in\n    tag_296:\n        /* \"#utility.yul\":1550:1623   */\n      swap2\n      pop\n        /* \"#utility.yul\":1506:1633   */\n      pop\n        /* \"#utility.yul\":1291:1640   */\n      swap3\n      swap2\n      pop\n      pop\n      jump\t// out\n        /* \"#utility.yul\":1646:1975   */\n    tag_62:\n        /* \"#utility.yul\":1705:1711   */\n      0x00\n        /* \"#utility.yul\":1754:1756   */\n      0x20\n        /* \"#utility.yul\":1742:1751   */\n      dup3\n        /* \"#utility.yul\":1733:1740   */\n      dup5\n        /* \"#utility.yul\":1729:1752   */\n      sub\n        /* \"#utility.yul\":1725:1757   */\n      slt\n        /* \"#utility.yul\":1722:1841   */\n      iszero\n      tag_298\n      jumpi\n        /* \"#utility.yul\":1760:1839   */\n      tag_299\n      tag_287\n      jump\t// in\n    tag_299:\n        /* \"#utility.yul\":1722:1841   */\n    tag_298:\n        /* \"#utility.yul\":1880:1881   */\n      0x00\n        /* \"#utility.yul\":1905:1958   */\n      tag_300\n        /* \"#utility.yul\":1950:1957   */\n      dup5\n        /* \"#utility.yul\":1941:1947   */\n      dup3\n        /* \"#utility.yul\":1930:1939   */\n      dup6\n        /* \"#utility.yul\":1926:1948   */\n      add\n        /* \"#utility.yul\":1905:1958   */\n      tag_280\n      jump\t// in\n    tag_300:\n        /* \"#utility.yul\":1895:1958   */\n      swap2\n      pop\n        /* \"#utility.yul\":1851:1968   */\n      pop\n        /* \"#utility.yul\":1646:1975   */\n      swap3\n      swap2\n      pop\n      pop\n      jump\t// out\n        /* \"#utility.yul\":1981:2123   */\n    tag_301:\n        /* \"#utility.yul\":2084:2116   */\n      tag_303\n        /* \"#utility.yul\":2110:2115   */\n      dup2\n        /* \"#utility.yul\":2084:2116   */\n      tag_304\n      jump\t// in\n    tag_303:\n        /* \"#utility.yul\":2079:2082   */\n      dup3\n        /* \"#utility.yul\":2072:2117   */\n      mstore\n        /* \"#utility.yul\":1981:2123   */\n      pop\n      pop\n      jump\t// out\n        /* \"#utility.yul\":2129:2247   */\n    tag_305:\n        /* \"#utility.yul\":2216:2240   */\n      tag_307\n        /* \"#utility.yul\":2234:2239   */\n      dup2\n        /* \"#utility.yul\":2216:2240   */\n      tag_308\n      jump\t// in\n    tag_307:\n        /* \"#utility.yul\":2211:2214   */\n      dup3\n        /* \"#utility.yul\":2204:2241   */\n      mstore\n        /* \"#utility.yul\":2129:2247   */\n      pop\n      pop\n      jump\t// out\n        /* \"#utility.yul\":2253:2410   */\n    tag_309:\n        /* \"#utility.yul\":2358:2403   */\n      tag_311\n        /* \"#utility.yul\":2378:2402   */\n      tag_312\n        /* \"#utility.yul\":2396:2401   */\n      dup3\n        /* \"#utility.yul\":2378:2402   */\n      tag_308\n      jump\t// in\n    tag_312:\n        /* \"#utility.yul\":2358:2403   */\n      tag_313\n      jump\t// in\n    tag_311:\n        /* \"#utility.yul\":2353:2356   */\n      dup3\n        /* \"#utility.yul\":2346:2404   */\n      mstore\n        /* \"#utility.yul\":2253:2410   */\n      pop\n      pop\n      jump\t// out\n        /* \"#utility.yul\":2416:2525   */\n    tag_314:\n        /* \"#utility.yul\":2497:2518   */\n      tag_316\n        /* \"#utility.yul\":2512:2517   */\n      dup2\n        /* \"#utility.yul\":2497:2518   */\n      tag_317\n      jump\t// in\n    tag_316:\n        /* \"#utility.yul\":2492:2495   */\n      dup3\n        /* \"#utility.yul\":2485:2519   */\n      mstore\n        /* \"#utility.yul\":2416:2525   */\n      pop\n      pop\n      jump\t// out\n        /* \"#utility.yul\":2531:2891   */\n    tag_318:\n        /* \"#utility.yul\":2617:2620   */\n      0x00\n        /* \"#utility.yul\":2645:2683   */\n      tag_320\n        /* \"#utility.yul\":2677:2682   */\n      dup3\n        /* \"#utility.yul\":2645:2683   */\n      tag_321\n      jump\t// in\n    tag_320:\n        /* \"#utility.yul\":2699:2769   */\n      tag_322\n        /* \"#utility.yul\":2762:2768   */\n      dup2\n        /* \"#utility.yul\":2757:2760   */\n      dup6\n        /* \"#utility.yul\":2699:2769   */\n      tag_323\n      jump\t// in\n    tag_322:\n        /* \"#utility.yul\":2692:2769   */\n      swap4\n      pop\n        /* \"#utility.yul\":2778:2830   */\n      tag_324\n        /* \"#utility.yul\":2823:2829   */\n      dup2\n        /* \"#utility.yul\":2818:2821   */\n      dup6\n        /* \"#utility.yul\":2811:2815   */\n      0x20\n        /* \"#utility.yul\":2804:2809   */\n      dup7\n        /* \"#utility.yul\":2800:2816   */\n      add\n        /* \"#utility.yul\":2778:2830   */\n      tag_325\n      jump\t// in\n    tag_324:\n        /* \"#utility.yul\":2855:2884   */\n      tag_326\n        /* \"#utility.yul\":2877:2883   */\n      dup2\n        /* \"#utility.yul\":2855:2884   */\n      tag_327\n      jump\t// in\n    tag_326:\n        /* \"#utility.yul\":2850:2853   */\n      dup5\n        /* \"#utility.yul\":2846:2885   */\n      add\n        /* \"#utility.yul\":2839:2885   */\n      swap2\n      pop\n        /* \"#utility.yul\":2621:2891   */\n      pop\n        /* \"#utility.yul\":2531:2891   */\n      swap3\n      swap2\n      pop\n      pop\n      jump\t// out\n        /* \"#utility.yul\":2897:3261   */\n    tag_328:\n        /* \"#utility.yul\":2985:2988   */\n      0x00\n        /* \"#utility.yul\":3013:3052   */\n      tag_330\n        /* \"#utility.yul\":3046:3051   */\n      dup3\n        /* \"#utility.yul\":3013:3052   */\n      tag_331\n      jump\t// in\n    tag_330:\n        /* \"#utility.yul\":3068:3139   */\n      tag_332\n        /* \"#utility.yul\":3132:3138   */\n      dup2\n        /* \"#utility.yul\":3127:3130   */\n      dup6\n        /* \"#utility.yul\":3068:3139   */\n      tag_333\n      jump\t// in\n    tag_332:\n        /* \"#utility.yul\":3061:3139   */\n      swap4\n      pop\n        /* \"#utility.yul\":3148:3200   */\n      tag_334\n        /* \"#utility.yul\":3193:3199   */\n      dup2\n        /* \"#utility.yul\":3188:3191   */\n      dup6\n        /* \"#utility.yul\":3181:3185   */\n      0x20\n        /* \"#utility.yul\":3174:3179   */\n      dup7\n        /* \"#utility.yul\":3170:3186   */\n      add\n        /* \"#utility.yul\":3148:3200   */\n      tag_325\n      jump\t// in\n    tag_334:\n        /* \"#utility.yul\":3225:3254   */\n      tag_335\n        /* \"#utility.yul\":3247:3253   */\n      dup2\n        /* \"#utility.yul\":3225:3254   */\n      tag_327\n      jump\t// in\n    tag_335:\n        /* \"#utility.yul\":3220:3223   */\n      dup5\n        /* \"#utility.yul\":3216:3255   */\n      add\n        /* \"#utility.yul\":3209:3255   */\n      swap2\n      pop\n        /* \"#utility.yul\":2989:3261   */\n      pop\n        /* \"#utility.yul\":2897:3261   */\n      swap3\n      swap2\n      pop\n      pop\n      jump\t// out\n        /* \"#utility.yul\":3267:3633   */\n    tag_336:\n        /* \"#utility.yul\":3409:3412   */\n      0x00\n        /* \"#utility.yul\":3430:3497   */\n      tag_338\n        /* \"#utility.yul\":3494:3496   */\n      0x34\n        /* \"#utility.yul\":3489:3492   */\n      dup4\n        /* \"#utility.yul\":3430:3497   */\n      tag_333\n      jump\t// in\n    tag_338:\n        /* \"#utility.yul\":3423:3497   */\n      swap2\n      pop\n        /* \"#utility.yul\":3506:3599   */\n      tag_339\n        /* \"#utility.yul\":3595:3598   */\n      dup3\n        /* \"#utility.yul\":3506:3599   */\n      tag_340\n      jump\t// in\n    tag_339:\n        /* \"#utility.yul\":3624:3626   */\n      0x40\n        /* \"#utility.yul\":3619:3622   */\n      dup3\n        /* \"#utility.yul\":3615:3627   */\n      add\n        /* \"#utility.yul\":3608:3627   */\n      swap1\n      pop\n        /* \"#utility.yul\":3267:3633   */\n      swap2\n      swap1\n      pop\n      jump\t// out\n        /* \"#utility.yul\":3639:4005   */\n    tag_341:\n        /* \"#utility.yul\":3781:3784   */\n      0x00\n        /* \"#utility.yul\":3802:3869   */\n      tag_343\n        /* \"#utility.yul\":3866:3868   */\n      0x28\n        /* \"#utility.yul\":3861:3864   */\n      dup4\n        /* \"#utility.yul\":3802:3869   */\n      tag_333\n      jump\t// in\n    tag_343:\n        /* \"#utility.yul\":3795:3869   */\n      swap2\n      pop\n        /* \"#utility.yul\":3878:3971   */\n      tag_344\n        /* \"#utility.yul\":3967:3970   */\n      dup3\n        /* \"#utility.yul\":3878:3971   */\n      tag_345\n      jump\t// in\n    tag_344:\n        /* \"#utility.yul\":3996:3998   */\n      0x40\n        /* \"#utility.yul\":3991:3994   */\n      dup3\n        /* \"#utility.yul\":3987:3999   */\n      add\n        /* \"#utility.yul\":3980:3999   */\n      swap1\n      pop\n        /* \"#utility.yul\":3639:4005   */\n      swap2\n      swap1\n      pop\n      jump\t// out\n        /* \"#utility.yul\":4011:4377   */\n    tag_346:\n        /* \"#utility.yul\":4153:4156   */\n      0x00\n        /* \"#utility.yul\":4174:4241   */\n      tag_348\n        /* \"#utility.yul\":4238:4240   */\n      0x19\n        /* \"#utility.yul\":4233:4236   */\n      dup4\n        /* \"#utility.yul\":4174:4241   */\n      tag_333\n      jump\t// in\n    tag_348:\n        /* \"#utility.yul\":4167:4241   */\n      swap2\n      pop\n        /* \"#utility.yul\":4250:4343   */\n      tag_349\n        /* \"#utility.yul\":4339:4342   */\n      dup3\n        /* \"#utility.yul\":4250:4343   */\n      tag_350\n      jump\t// in\n    tag_349:\n        /* \"#utility.yul\":4368:4370   */\n      0x20\n        /* \"#utility.yul\":4363:4366   */\n      dup3\n        /* \"#utility.yul\":4359:4371   */\n      add\n        /* \"#utility.yul\":4352:4371   */\n      swap1\n      pop\n        /* \"#utility.yul\":4011:4377   */\n      swap2\n      swap1\n      pop\n      jump\t// out\n        /* \"#utility.yul\":4383:4749   */\n    tag_351:\n        /* \"#utility.yul\":4525:4528   */\n      0x00\n        /* \"#utility.yul\":4546:4613   */\n      tag_353\n        /* \"#utility.yul\":4610:4612   */\n      0x1b\n        /* \"#utility.yul\":4605:4608   */\n      dup4\n        /* \"#utility.yul\":4546:4613   */\n      tag_333\n      jump\t// in\n    tag_353:\n        /* \"#utility.yul\":4539:4613   */\n      swap2\n      pop\n        /* \"#utility.yul\":4622:4715   */\n      tag_354\n        /* \"#utility.yul\":4711:4714   */\n      dup3\n        /* \"#utility.yul\":4622:4715   */\n      tag_355\n      jump\t// in\n    tag_354:\n        /* \"#utility.yul\":4740:4742   */\n      0x20\n        /* \"#utility.yul\":4735:4738   */\n      dup3\n        /* \"#utility.yul\":4731:4743   */\n      add\n        /* \"#utility.yul\":4724:4743   */\n      swap1\n      pop\n        /* \"#utility.yul\":4383:4749   */\n      swap2\n      swap1\n      pop\n      jump\t// out\n        /* \"#utility.yul\":4755:5121   */\n    tag_356:\n        /* \"#utility.yul\":4897:4900   */\n      0x00\n        /* \"#utility.yul\":4918:4985   */\n      tag_358\n        /* \"#utility.yul\":4982:4984   */\n      0x1b\n        /* \"#utility.yul\":4977:4980   */\n      dup4\n        /* \"#utility.yul\":4918:4985   */\n      tag_333\n      jump\t// in\n    tag_358:\n        /* \"#utility.yul\":4911:4985   */\n      swap2\n      pop\n        /* \"#utility.yul\":4994:5087   */\n      tag_359\n        /* \"#utility.yul\":5083:5086   */\n      dup3\n        /* \"#utility.yul\":4994:5087   */\n      tag_360\n      jump\t// in\n    tag_359:\n        /* \"#utility.yul\":5112:5114   */\n      0x20\n        /* \"#utility.yul\":5107:5110   */\n      dup3\n        /* \"#utility.yul\":5103:5115   */\n      add\n        /* \"#utility.yul\":5096:5115   */\n      swap1\n      pop\n        /* \"#utility.yul\":4755:5121   */\n      swap2\n      swap1\n      pop\n      jump\t// out\n        /* \"#utility.yul\":5127:5493   */\n    tag_361:\n        /* \"#utility.yul\":5269:5272   */\n      0x00\n        /* \"#utility.yul\":5290:5357   */\n      tag_363\n        /* \"#utility.yul\":5354:5356   */\n      0x1c\n        /* \"#utility.yul\":5349:5352   */\n      dup4\n        /* \"#utility.yul\":5290:5357   */\n      tag_333\n      jump\t// in\n    tag_363:\n        /* \"#utility.yul\":5283:5357   */\n      swap2\n      pop\n        /* \"#utility.yul\":5366:5459   */\n      tag_364\n        /* \"#utility.yul\":5455:5458   */\n      dup3\n        /* \"#utility.yul\":5366:5459   */\n      tag_365\n      jump\t// in\n    tag_364:\n        /* \"#utility.yul\":5484:5486   */\n      0x20\n        /* \"#utility.yul\":5479:5482   */\n      dup3\n        /* \"#utility.yul\":5475:5487   */\n      add\n        /* \"#utility.yul\":5468:5487   */\n      swap1\n      pop\n        /* \"#utility.yul\":5127:5493   */\n      swap2\n      swap1\n      pop\n      jump\t// out\n        /* \"#utility.yul\":5499:5865   */\n    tag_366:\n        /* \"#utility.yul\":5641:5644   */\n      0x00\n        /* \"#utility.yul\":5662:5729   */\n      tag_368\n        /* \"#utility.yul\":5726:5728   */\n      0x1b\n        /* \"#utility.yul\":5721:5724   */\n      dup4\n        /* \"#utility.yul\":5662:5729   */\n      tag_333\n      jump\t// in\n    tag_368:\n        /* \"#utility.yul\":5655:5729   */\n      swap2\n      pop\n        /* \"#utility.yul\":5738:5831   */\n      tag_369\n        /* \"#utility.yul\":5827:5830   */\n      dup3\n        /* \"#utility.yul\":5738:5831   */\n      tag_370\n      jump\t// in\n    tag_369:\n        /* \"#utility.yul\":5856:5858   */\n      0x20\n        /* \"#utility.yul\":5851:5854   */\n      dup3\n        /* \"#utility.yul\":5847:5859   */\n      add\n        /* \"#utility.yul\":5840:5859   */\n      swap1\n      pop\n        /* \"#utility.yul\":5499:5865   */\n      swap2\n      swap1\n      pop\n      jump\t// out\n        /* \"#utility.yul\":5871:6237   */\n    tag_371:\n        /* \"#utility.yul\":6013:6016   */\n      0x00\n        /* \"#utility.yul\":6034:6101   */\n      tag_373\n        /* \"#utility.yul\":6098:6100   */\n      0x19\n        /* \"#utility.yul\":6093:6096   */\n      dup4\n        /* \"#utility.yul\":6034:6101   */\n      tag_333\n      jump\t// in\n    tag_373:\n        /* \"#utility.yul\":6027:6101   */\n      swap2\n      pop\n        /* \"#utility.yul\":6110:6203   */\n      tag_374\n        /* \"#utility.yul\":6199:6202   */\n      dup3\n        /* \"#utility.yul\":6110:6203   */\n      tag_375\n      jump\t// in\n    tag_374:\n        /* \"#utility.yul\":6228:6230   */\n      0x20\n        /* \"#utility.yul\":6223:6226   */\n      dup3\n        /* \"#utility.yul\":6219:6231   */\n      add\n        /* \"#utility.yul\":6212:6231   */\n      swap1\n      pop\n        /* \"#utility.yul\":5871:6237   */\n      swap2\n      swap1\n      pop\n      jump\t// out\n        /* \"#utility.yul\":6243:6609   */\n    tag_376:\n        /* \"#utility.yul\":6385:6388   */\n      0x00\n        /* \"#utility.yul\":6406:6473   */\n      tag_378\n        /* \"#utility.yul\":6470:6472   */\n      0x1d\n        /* \"#utility.yul\":6465:6468   */\n      dup4\n        /* \"#utility.yul\":6406:6473   */\n      tag_333\n      jump\t// in\n    tag_378:\n        /* \"#utility.yul\":6399:6473   */\n      swap2\n      pop\n        /* \"#utility.yul\":6482:6575   */\n      tag_379\n        /* \"#utility.yul\":6571:6574   */\n      dup3\n        /* \"#utility.yul\":6482:6575   */\n      tag_380\n      jump\t// in\n    tag_379:\n        /* \"#utility.yul\":6600:6602   */\n      0x20\n        /* \"#utility.yul\":6595:6598   */\n      dup3\n        /* \"#utility.yul\":6591:6603   */\n      add\n        /* \"#utility.yul\":6584:6603   */\n      swap1\n      pop\n        /* \"#utility.yul\":6243:6609   */\n      swap2\n      swap1\n      pop\n      jump\t// out\n        /* \"#utility.yul\":6615:6981   */\n    tag_381:\n        /* \"#utility.yul\":6757:6760   */\n      0x00\n        /* \"#utility.yul\":6778:6845   */\n      tag_383\n        /* \"#utility.yul\":6842:6844   */\n      0x21\n        /* \"#utility.yul\":6837:6840   */\n      dup4\n        /* \"#utility.yul\":6778:6845   */\n      tag_333\n      jump\t// in\n    tag_383:\n        /* \"#utility.yul\":6771:6845   */\n      swap2\n      pop\n        /* \"#utility.yul\":6854:6947   */\n      tag_384\n        /* \"#utility.yul\":6943:6946   */\n      dup3\n        /* \"#utility.yul\":6854:6947   */\n      tag_385\n      jump\t// in\n    tag_384:\n        /* \"#utility.yul\":6972:6974   */\n      0x40\n        /* \"#utility.yul\":6967:6970   */\n      dup3\n        /* \"#utility.yul\":6963:6975   */\n      add\n        /* \"#utility.yul\":6956:6975   */\n      swap1\n      pop\n        /* \"#utility.yul\":6615:6981   */\n      swap2\n      swap1\n      pop\n      jump\t// out\n        /* \"#utility.yul\":6987:7105   */\n    tag_386:\n        /* \"#utility.yul\":7074:7098   */\n      tag_388\n        /* \"#utility.yul\":7092:7097   */\n      dup2\n        /* \"#utility.yul\":7074:7098   */\n      tag_389\n      jump\t// in\n    tag_388:\n        /* \"#utility.yul\":7069:7072   */\n      dup3\n        /* \"#utility.yul\":7062:7099   */\n      mstore\n        /* \"#utility.yul\":6987:7105   */\n      pop\n      pop\n      jump\t// out\n        /* \"#utility.yul\":7111:7268   */\n    tag_390:\n        /* \"#utility.yul\":7216:7261   */\n      tag_392\n        /* \"#utility.yul\":7236:7260   */\n      tag_393\n        /* \"#utility.yul\":7254:7259   */\n      dup3\n        /* \"#utility.yul\":7236:7260   */\n      tag_389\n      jump\t// in\n    tag_393:\n        /* \"#utility.yul\":7216:7261   */\n      tag_394\n      jump\t// in\n    tag_392:\n        /* \"#utility.yul\":7211:7214   */\n      dup3\n        /* \"#utility.yul\":7204:7262   */\n      mstore\n        /* \"#utility.yul\":7111:7268   */\n      pop\n      pop\n      jump\t// out\n        /* \"#utility.yul\":7274:7386   */\n    tag_395:\n        /* \"#utility.yul\":7357:7379   */\n      tag_397\n        /* \"#utility.yul\":7373:7378   */\n      dup2\n        /* \"#utility.yul\":7357:7379   */\n      tag_398\n      jump\t// in\n    tag_397:\n        /* \"#utility.yul\":7352:7355   */\n      dup3\n        /* \"#utility.yul\":7345:7380   */\n      mstore\n        /* \"#utility.yul\":7274:7386   */\n      pop\n      pop\n      jump\t// out\n        /* \"#utility.yul\":7392:7789   */\n    tag_218:\n        /* \"#utility.yul\":7532:7535   */\n      0x00\n        /* \"#utility.yul\":7547:7622   */\n      tag_400\n        /* \"#utility.yul\":7618:7621   */\n      dup3\n        /* \"#utility.yul\":7609:7615   */\n      dup6\n        /* \"#utility.yul\":7547:7622   */\n      tag_390\n      jump\t// in\n    tag_400:\n        /* \"#utility.yul\":7647:7649   */\n      0x20\n        /* \"#utility.yul\":7642:7645   */\n      dup3\n        /* \"#utility.yul\":7638:7650   */\n      add\n        /* \"#utility.yul\":7631:7650   */\n      swap2\n      pop\n        /* \"#utility.yul\":7660:7735   */\n      tag_401\n        /* \"#utility.yul\":7731:7734   */\n      dup3\n        /* \"#utility.yul\":7722:7728   */\n      dup5\n        /* \"#utility.yul\":7660:7735   */\n      tag_309\n      jump\t// in\n    tag_401:\n        /* \"#utility.yul\":7760:7762   */\n      0x14\n        /* \"#utility.yul\":7755:7758   */\n      dup3\n        /* \"#utility.yul\":7751:7763   */\n      add\n        /* \"#utility.yul\":7744:7763   */\n      swap2\n      pop\n        /* \"#utility.yul\":7780:7783   */\n      dup2\n        /* \"#utility.yul\":7773:7783   */\n      swap1\n      pop\n        /* \"#utility.yul\":7392:7789   */\n      swap4\n      swap3\n      pop\n      pop\n      pop\n      jump\t// out\n        /* \"#utility.yul\":7795:8049   */\n    tag_58:\n        /* \"#utility.yul\":7904:7908   */\n      0x00\n        /* \"#utility.yul\":7942:7944   */\n      0x20\n        /* \"#utility.yul\":7931:7940   */\n      dup3\n        /* \"#utility.yul\":7927:7945   */\n      add\n        /* \"#utility.yul\":7919:7945   */\n      swap1\n      pop\n        /* \"#utility.yul\":7955:8042   */\n      tag_403\n        /* \"#utility.yul\":8039:8040   */\n      0x00\n        /* \"#utility.yul\":8028:8037   */\n      dup4\n        /* \"#utility.yul\":8024:8041   */\n      add\n        /* \"#utility.yul\":8015:8021   */\n      dup5\n        /* \"#utility.yul\":7955:8042   */\n      tag_301\n      jump\t// in\n    tag_403:\n        /* \"#utility.yul\":7795:8049   */\n      swap3\n      swap2\n      pop\n      pop\n      jump\t// out\n        /* \"#utility.yul\":8055:8806   */\n    tag_234:\n        /* \"#utility.yul\":8278:8282   */\n      0x00\n        /* \"#utility.yul\":8316:8319   */\n      0xa0\n        /* \"#utility.yul\":8305:8314   */\n      dup3\n        /* \"#utility.yul\":8301:8320   */\n      add\n        /* \"#utility.yul\":8293:8320   */\n      swap1\n      pop\n        /* \"#utility.yul\":8330:8401   */\n      tag_405\n        /* \"#utility.yul\":8398:8399   */\n      0x00\n        /* \"#utility.yul\":8387:8396   */\n      dup4\n        /* \"#utility.yul\":8383:8400   */\n      add\n        /* \"#utility.yul\":8374:8380   */\n      dup9\n        /* \"#utility.yul\":8330:8401   */\n      tag_305\n      jump\t// in\n    tag_405:\n        /* \"#utility.yul\":8411:8483   */\n      tag_406\n        /* \"#utility.yul\":8479:8481   */\n      0x20\n        /* \"#utility.yul\":8468:8477   */\n      dup4\n        /* \"#utility.yul\":8464:8482   */\n      add\n        /* \"#utility.yul\":8455:8461   */\n      dup8\n        /* \"#utility.yul\":8411:8483   */\n      tag_305\n      jump\t// in\n    tag_406:\n        /* \"#utility.yul\":8493:8565   */\n      tag_407\n        /* \"#utility.yul\":8561:8563   */\n      0x40\n        /* \"#utility.yul\":8550:8559   */\n      dup4\n        /* \"#utility.yul\":8546:8564   */\n      add\n        /* \"#utility.yul\":8537:8543   */\n      dup7\n        /* \"#utility.yul\":8493:8565   */\n      tag_386\n      jump\t// in\n    tag_407:\n        /* \"#utility.yul\":8575:8647   */\n      tag_408\n        /* \"#utility.yul\":8643:8645   */\n      0x60\n        /* \"#utility.yul\":8632:8641   */\n      dup4\n        /* \"#utility.yul\":8628:8646   */\n      add\n        /* \"#utility.yul\":8619:8625   */\n      dup6\n        /* \"#utility.yul\":8575:8647   */\n      tag_386\n      jump\t// in\n    tag_408:\n        /* \"#utility.yul\":8695:8704   */\n      dup2\n        /* \"#utility.yul\":8689:8693   */\n      dup2\n        /* \"#utility.yul\":8685:8705   */\n      sub\n        /* \"#utility.yul\":8679:8682   */\n      0x80\n        /* \"#utility.yul\":8668:8677   */\n      dup4\n        /* \"#utility.yul\":8664:8683   */\n      add\n        /* \"#utility.yul\":8657:8706   */\n      mstore\n        /* \"#utility.yul\":8723:8799   */\n      tag_409\n        /* \"#utility.yul\":8794:8798   */\n      dup2\n        /* \"#utility.yul\":8785:8791   */\n      dup5\n        /* \"#utility.yul\":8723:8799   */\n      tag_318\n      jump\t// in\n    tag_409:\n        /* \"#utility.yul\":8715:8799   */\n      swap1\n      pop\n        /* \"#utility.yul\":8055:8806   */\n      swap7\n      swap6\n      pop\n      pop\n      pop\n      pop\n      pop\n      pop\n      jump\t// out\n        /* \"#utility.yul\":8812:9022   */\n    tag_27:\n        /* \"#utility.yul\":8899:8903   */\n      0x00\n        /* \"#utility.yul\":8937:8939   */\n      0x20\n        /* \"#utility.yul\":8926:8935   */\n      dup3\n        /* \"#utility.yul\":8922:8940   */\n      add\n        /* \"#utility.yul\":8914:8940   */\n      swap1\n      pop\n        /* \"#utility.yul\":8950:9015   */\n      tag_411\n        /* \"#utility.yul\":9012:9013   */\n      0x00\n        /* \"#utility.yul\":9001:9010   */\n      dup4\n        /* \"#utility.yul\":8997:9014   */\n      add\n        /* \"#utility.yul\":8988:8994   */\n      dup5\n        /* \"#utility.yul\":8950:9015   */\n      tag_314\n      jump\t// in\n    tag_411:\n        /* \"#utility.yul\":8812:9022   */\n      swap3\n      swap2\n      pop\n      pop\n      jump\t// out\n        /* \"#utility.yul\":9028:9341   */\n    tag_249:\n        /* \"#utility.yul\":9141:9145   */\n      0x00\n        /* \"#utility.yul\":9179:9181   */\n      0x20\n        /* \"#utility.yul\":9168:9177   */\n      dup3\n        /* \"#utility.yul\":9164:9182   */\n      add\n        /* \"#utility.yul\":9156:9182   */\n      swap1\n      pop\n        /* \"#utility.yul\":9228:9237   */\n      dup2\n        /* \"#utility.yul\":9222:9226   */\n      dup2\n        /* \"#utility.yul\":9218:9238   */\n      sub\n        /* \"#utility.yul\":9214:9215   */\n      0x00\n        /* \"#utility.yul\":9203:9212   */\n      dup4\n        /* \"#utility.yul\":9199:9216   */\n      add\n        /* \"#utility.yul\":9192:9239   */\n      mstore\n        /* \"#utility.yul\":9256:9334   */\n      tag_413\n        /* \"#utility.yul\":9329:9333   */\n      dup2\n        /* \"#utility.yul\":9320:9326   */\n      dup5\n        /* \"#utility.yul\":9256:9334   */\n      tag_328\n      jump\t// in\n    tag_413:\n        /* \"#utility.yul\":9248:9334   */\n      swap1\n      pop\n        /* \"#utility.yul\":9028:9341   */\n      swap3\n      swap2\n      pop\n      pop\n      jump\t// out\n        /* \"#utility.yul\":9347:9766   */\n    tag_251:\n        /* \"#utility.yul\":9513:9517   */\n      0x00\n        /* \"#utility.yul\":9551:9553   */\n      0x20\n        /* \"#utility.yul\":9540:9549   */\n      dup3\n        /* \"#utility.yul\":9536:9554   */\n      add\n        /* \"#utility.yul\":9528:9554   */\n      swap1\n      pop\n        /* \"#utility.yul\":9600:9609   */\n      dup2\n        /* \"#utility.yul\":9594:9598   */\n      dup2\n        /* \"#utility.yul\":9590:9610   */\n      sub\n        /* \"#utility.yul\":9586:9587   */\n      0x00\n        /* \"#utility.yul\":9575:9584   */\n      dup4\n        /* \"#utility.yul\":9571:9588   */\n      add\n        /* \"#utility.yul\":9564:9611   */\n      mstore\n        /* \"#utility.yul\":9628:9759   */\n      tag_415\n        /* \"#utility.yul\":9754:9758   */\n      dup2\n        /* \"#utility.yul\":9628:9759   */\n      tag_336\n      jump\t// in\n    tag_415:\n        /* \"#utility.yul\":9620:9759   */\n      swap1\n      pop\n        /* \"#utility.yul\":9347:9766   */\n      swap2\n      swap1\n      pop\n      jump\t// out\n        /* \"#utility.yul\":9772:10191   */\n    tag_255:\n        /* \"#utility.yul\":9938:9942   */\n      0x00\n        /* \"#utility.yul\":9976:9978   */\n      0x20\n        /* \"#utility.yul\":9965:9974   */\n      dup3\n        /* \"#utility.yul\":9961:9979   */\n      add\n        /* \"#utility.yul\":9953:9979   */\n      swap1\n      pop\n        /* \"#utility.yul\":10025:10034   */\n      dup2\n        /* \"#utility.yul\":10019:10023   */\n      dup2\n        /* \"#utility.yul\":10015:10035   */\n      sub\n        /* \"#utility.yul\":10011:10012   */\n      0x00\n        /* \"#utility.yul\":10000:10009   */\n      dup4\n        /* \"#utility.yul\":9996:10013   */\n      add\n        /* \"#utility.yul\":9989:10036   */\n      mstore\n        /* \"#utility.yul\":10053:10184   */\n      tag_417\n        /* \"#utility.yul\":10179:10183   */\n      dup2\n        /* \"#utility.yul\":10053:10184   */\n      tag_341\n      jump\t// in\n    tag_417:\n        /* \"#utility.yul\":10045:10184   */\n      swap1\n      pop\n        /* \"#utility.yul\":9772:10191   */\n      swap2\n      swap1\n      pop\n      jump\t// out\n        /* \"#utility.yul\":10197:10616   */\n    tag_133:\n        /* \"#utility.yul\":10363:10367   */\n      0x00\n        /* \"#utility.yul\":10401:10403   */\n      0x20\n        /* \"#utility.yul\":10390:10399   */\n      dup3\n        /* \"#utility.yul\":10386:10404   */\n      add\n        /* \"#utility.yul\":10378:10404   */\n      swap1\n      pop\n        /* \"#utility.yul\":10450:10459   */\n      dup2\n        /* \"#utility.yul\":10444:10448   */\n      dup2\n        /* \"#utility.yul\":10440:10460   */\n      sub\n        /* \"#utility.yul\":10436:10437   */\n      0x00\n        /* \"#utility.yul\":10425:10434   */\n      dup4\n        /* \"#utility.yul\":10421:10438   */\n      add\n        /* \"#utility.yul\":10414:10461   */\n      mstore\n        /* \"#utility.yul\":10478:10609   */\n      tag_419\n        /* \"#utility.yul\":10604:10608   */\n      dup2\n        /* \"#utility.yul\":10478:10609   */\n      tag_346\n      jump\t// in\n    tag_419:\n        /* \"#utility.yul\":10470:10609   */\n      swap1\n      pop\n        /* \"#utility.yul\":10197:10616   */\n      swap2\n      swap1\n      pop\n      jump\t// out\n        /* \"#utility.yul\":10622:11041   */\n    tag_90:\n        /* \"#utility.yul\":10788:10792   */\n      0x00\n        /* \"#utility.yul\":10826:10828   */\n      0x20\n        /* \"#utility.yul\":10815:10824   */\n      dup3\n        /* \"#utility.yul\":10811:10829   */\n      add\n        /* \"#utility.yul\":10803:10829   */\n      swap1\n      pop\n        /* \"#utility.yul\":10875:10884   */\n      dup2\n        /* \"#utility.yul\":10869:10873   */\n      dup2\n        /* \"#utility.yul\":10865:10885   */\n      sub\n        /* \"#utility.yul\":10861:10862   */\n      0x00\n        /* \"#utility.yul\":10850:10859   */\n      dup4\n        /* \"#utility.yul\":10846:10863   */\n      add\n        /* \"#utility.yul\":10839:10886   */\n      mstore\n        /* \"#utility.yul\":10903:11034   */\n      tag_421\n        /* \"#utility.yul\":11029:11033   */\n      dup2\n        /* \"#utility.yul\":10903:11034   */\n      tag_351\n      jump\t// in\n    tag_421:\n        /* \"#utility.yul\":10895:11034   */\n      swap1\n      pop\n        /* \"#utility.yul\":10622:11041   */\n      swap2\n      swap1\n      pop\n      jump\t// out\n        /* \"#utility.yul\":11047:11466   */\n    tag_162:\n        /* \"#utility.yul\":11213:11217   */\n      0x00\n        /* \"#utility.yul\":11251:11253   */\n      0x20\n        /* \"#utility.yul\":11240:11249   */\n      dup3\n        /* \"#utility.yul\":11236:11254   */\n      add\n        /* \"#utility.yul\":11228:11254   */\n      swap1\n      pop\n        /* \"#utility.yul\":11300:11309   */\n      dup2\n        /* \"#utility.yul\":11294:11298   */\n      dup2\n        /* \"#utility.yul\":11290:11310   */\n      sub\n        /* \"#utility.yul\":11286:11287   */\n      0x00\n        /* \"#utility.yul\":11275:11284   */\n      dup4\n        /* \"#utility.yul\":11271:11288   */\n      add\n        /* \"#utility.yul\":11264:11311   */\n      mstore\n        /* \"#utility.yul\":11328:11459   */\n      tag_423\n        /* \"#utility.yul\":11454:11458   */\n      dup2\n        /* \"#utility.yul\":11328:11459   */\n      tag_356\n      jump\t// in\n    tag_423:\n        /* \"#utility.yul\":11320:11459   */\n      swap1\n      pop\n        /* \"#utility.yul\":11047:11466   */\n      swap2\n      swap1\n      pop\n      jump\t// out\n        /* \"#utility.yul\":11472:11891   */\n    tag_71:\n        /* \"#utility.yul\":11638:11642   */\n      0x00\n        /* \"#utility.yul\":11676:11678   */\n      0x20\n        /* \"#utility.yul\":11665:11674   */\n      dup3\n        /* \"#utility.yul\":11661:11679   */\n      add\n        /* \"#utility.yul\":11653:11679   */\n      swap1\n      pop\n        /* \"#utility.yul\":11725:11734   */\n      dup2\n        /* \"#utility.yul\":11719:11723   */\n      dup2\n        /* \"#utility.yul\":11715:11735   */\n      sub\n        /* \"#utility.yul\":11711:11712   */\n      0x00\n        /* \"#utility.yul\":11700:11709   */\n      dup4\n        /* \"#utility.yul\":11696:11713   */\n      add\n        /* \"#utility.yul\":11689:11736   */\n      mstore\n        /* \"#utility.yul\":11753:11884   */\n      tag_425\n        /* \"#utility.yul\":11879:11883   */\n      dup2\n        /* \"#utility.yul\":11753:11884   */\n      tag_361\n      jump\t// in\n    tag_425:\n        /* \"#utility.yul\":11745:11884   */\n      swap1\n      pop\n        /* \"#utility.yul\":11472:11891   */\n      swap2\n      swap1\n      pop\n      jump\t// out\n        /* \"#utility.yul\":11897:12316   */\n    tag_98:\n        /* \"#utility.yul\":12063:12067   */\n      0x00\n        /* \"#utility.yul\":12101:12103   */\n      0x20\n        /* \"#utility.yul\":12090:12099   */\n      dup3\n        /* \"#utility.yul\":12086:12104   */\n      add\n        /* \"#utility.yul\":12078:12104   */\n      swap1\n      pop\n        /* \"#utility.yul\":12150:12159   */\n      dup2\n        /* \"#utility.yul\":12144:12148   */\n      dup2\n        /* \"#utility.yul\":12140:12160   */\n      sub\n        /* \"#utility.yul\":12136:12137   */\n      0x00\n        /* \"#utility.yul\":12125:12134   */\n      dup4\n        /* \"#utility.yul\":12121:12138   */\n      add\n        /* \"#utility.yul\":12114:12161   */\n      mstore\n        /* \"#utility.yul\":12178:12309   */\n      tag_427\n        /* \"#utility.yul\":12304:12308   */\n      dup2\n        /* \"#utility.yul\":12178:12309   */\n      tag_366\n      jump\t// in\n    tag_427:\n        /* \"#utility.yul\":12170:12309   */\n      swap1\n      pop\n        /* \"#utility.yul\":11897:12316   */\n      swap2\n      swap1\n      pop\n      jump\t// out\n        /* \"#utility.yul\":12322:12741   */\n    tag_102:\n        /* \"#utility.yul\":12488:12492   */\n      0x00\n        /* \"#utility.yul\":12526:12528   */\n      0x20\n        /* \"#utility.yul\":12515:12524   */\n      dup3\n        /* \"#utility.yul\":12511:12529   */\n      add\n        /* \"#utility.yul\":12503:12529   */\n      swap1\n      pop\n        /* \"#utility.yul\":12575:12584   */\n      dup2\n        /* \"#utility.yul\":12569:12573   */\n      dup2\n        /* \"#utility.yul\":12565:12585   */\n      sub\n        /* \"#utility.yul\":12561:12562   */\n      0x00\n        /* \"#utility.yul\":12550:12559   */\n      dup4\n        /* \"#utility.yul\":12546:12563   */\n      add\n        /* \"#utility.yul\":12539:12586   */\n      mstore\n        /* \"#utility.yul\":12603:12734   */\n      tag_429\n        /* \"#utility.yul\":12729:12733   */\n      dup2\n        /* \"#utility.yul\":12603:12734   */\n      tag_371\n      jump\t// in\n    tag_429:\n        /* \"#utility.yul\":12595:12734   */\n      swap1\n      pop\n        /* \"#utility.yul\":12322:12741   */\n      swap2\n      swap1\n      pop\n      jump\t// out\n        /* \"#utility.yul\":12747:13166   */\n    tag_80:\n        /* \"#utility.yul\":12913:12917   */\n      0x00\n        /* \"#utility.yul\":12951:12953   */\n      0x20\n        /* \"#utility.yul\":12940:12949   */\n      dup3\n        /* \"#utility.yul\":12936:12954   */\n      add\n        /* \"#utility.yul\":12928:12954   */\n      swap1\n      pop\n        /* \"#utility.yul\":13000:13009   */\n      dup2\n        /* \"#utility.yul\":12994:12998   */\n      dup2\n        /* \"#utility.yul\":12990:13010   */\n      sub\n        /* \"#utility.yul\":12986:12987   */\n      0x00\n        /* \"#utility.yul\":12975:12984   */\n      dup4\n        /* \"#utility.yul\":12971:12988   */\n      add\n        /* \"#utility.yul\":12964:13011   */\n      mstore\n        /* \"#utility.yul\":13028:13159   */\n      tag_431\n        /* \"#utility.yul\":13154:13158   */\n      dup2\n        /* \"#utility.yul\":13028:13159   */\n      tag_376\n      jump\t// in\n    tag_431:\n        /* \"#utility.yul\":13020:13159   */\n      swap1\n      pop\n        /* \"#utility.yul\":12747:13166   */\n      swap2\n      swap1\n      pop\n      jump\t// out\n        /* \"#utility.yul\":13172:13591   */\n    tag_201:\n        /* \"#utility.yul\":13338:13342   */\n      0x00\n        /* \"#utility.yul\":13376:13378   */\n      0x20\n        /* \"#utility.yul\":13365:13374   */\n      dup3\n        /* \"#utility.yul\":13361:13379   */\n      add\n        /* \"#utility.yul\":13353:13379   */\n      swap1\n      pop\n        /* \"#utility.yul\":13425:13434   */\n      dup2\n        /* \"#utility.yul\":13419:13423   */\n      dup2\n        /* \"#utility.yul\":13415:13435   */\n      sub\n        /* \"#utility.yul\":13411:13412   */\n      0x00\n        /* \"#utility.yul\":13400:13409   */\n      dup4\n        /* \"#utility.yul\":13396:13413   */\n      add\n        /* \"#utility.yul\":13389:13436   */\n      mstore\n        /* \"#utility.yul\":13453:13584   */\n      tag_433\n        /* \"#utility.yul\":13579:13583   */\n      dup2\n        /* \"#utility.yul\":13453:13584   */\n      tag_381\n      jump\t// in\n    tag_433:\n        /* \"#utility.yul\":13445:13584   */\n      swap1\n      pop\n        /* \"#utility.yul\":13172:13591   */\n      swap2\n      swap1\n      pop\n      jump\t// out\n        /* \"#utility.yul\":13597:13819   */\n    tag_18:\n        /* \"#utility.yul\":13690:13694   */\n      0x00\n        /* \"#utility.yul\":13728:13730   */\n      0x20\n        /* \"#utility.yul\":13717:13726   */\n      dup3\n        /* \"#utility.yul\":13713:13731   */\n      add\n        /* \"#utility.yul\":13705:13731   */\n      swap1\n      pop\n        /* \"#utility.yul\":13741:13812   */\n      tag_435\n        /* \"#utility.yul\":13809:13810   */\n      0x00\n        /* \"#utility.yul\":13798:13807   */\n      dup4\n        /* \"#utility.yul\":13794:13811   */\n      add\n        /* \"#utility.yul\":13785:13791   */\n      dup5\n        /* \"#utility.yul\":13741:13812   */\n      tag_386\n      jump\t// in\n    tag_435:\n        /* \"#utility.yul\":13597:13819   */\n      swap3\n      swap2\n      pop\n      pop\n      jump\t// out\n        /* \"#utility.yul\":13825:14248   */\n    tag_37:\n        /* \"#utility.yul\":13966:13970   */\n      0x00\n        /* \"#utility.yul\":14004:14006   */\n      0x40\n        /* \"#utility.yul\":13993:14002   */\n      dup3\n        /* \"#utility.yul\":13989:14007   */\n      add\n        /* \"#utility.yul\":13981:14007   */\n      swap1\n      pop\n        /* \"#utility.yul\":14017:14088   */\n      tag_437\n        /* \"#utility.yul\":14085:14086   */\n      0x00\n        /* \"#utility.yul\":14074:14083   */\n      dup4\n        /* \"#utility.yul\":14070:14087   */\n      add\n        /* \"#utility.yul\":14061:14067   */\n      dup6\n        /* \"#utility.yul\":14017:14088   */\n      tag_386\n      jump\t// in\n    tag_437:\n        /* \"#utility.yul\":14135:14144   */\n      dup2\n        /* \"#utility.yul\":14129:14133   */\n      dup2\n        /* \"#utility.yul\":14125:14145   */\n      sub\n        /* \"#utility.yul\":14120:14122   */\n      0x20\n        /* \"#utility.yul\":14109:14118   */\n      dup4\n        /* \"#utility.yul\":14105:14123   */\n      add\n        /* \"#utility.yul\":14098:14146   */\n      mstore\n        /* \"#utility.yul\":14163:14241   */\n      tag_438\n        /* \"#utility.yul\":14236:14240   */\n      dup2\n        /* \"#utility.yul\":14227:14233   */\n      dup5\n        /* \"#utility.yul\":14163:14241   */\n      tag_328\n      jump\t// in\n    tag_438:\n        /* \"#utility.yul\":14155:14241   */\n      swap1\n      pop\n        /* \"#utility.yul\":13825:14248   */\n      swap4\n      swap3\n      pop\n      pop\n      pop\n      jump\t// out\n        /* \"#utility.yul\":14254:14586   */\n    tag_211:\n        /* \"#utility.yul\":14375:14379   */\n      0x00\n        /* \"#utility.yul\":14413:14415   */\n      0x40\n        /* \"#utility.yul\":14402:14411   */\n      dup3\n        /* \"#utility.yul\":14398:14416   */\n      add\n        /* \"#utility.yul\":14390:14416   */\n      swap1\n      pop\n        /* \"#utility.yul\":14426:14497   */\n      tag_440\n        /* \"#utility.yul\":14494:14495   */\n      0x00\n        /* \"#utility.yul\":14483:14492   */\n      dup4\n        /* \"#utility.yul\":14479:14496   */\n      add\n        /* \"#utility.yul\":14470:14476   */\n      dup6\n        /* \"#utility.yul\":14426:14497   */\n      tag_386\n      jump\t// in\n    tag_440:\n        /* \"#utility.yul\":14507:14579   */\n      tag_441\n        /* \"#utility.yul\":14575:14577   */\n      0x20\n        /* \"#utility.yul\":14564:14573   */\n      dup4\n        /* \"#utility.yul\":14560:14578   */\n      add\n        /* \"#utility.yul\":14551:14557   */\n      dup5\n        /* \"#utility.yul\":14507:14579   */\n      tag_386\n      jump\t// in\n    tag_441:\n        /* \"#utility.yul\":14254:14586   */\n      swap4\n      swap3\n      pop\n      pop\n      pop\n      jump\t// out\n        /* \"#utility.yul\":14592:15034   */\n    tag_50:\n        /* \"#utility.yul\":14741:14745   */\n      0x00\n        /* \"#utility.yul\":14779:14781   */\n      0x60\n        /* \"#utility.yul\":14768:14777   */\n      dup3\n        /* \"#utility.yul\":14764:14782   */\n      add\n        /* \"#utility.yul\":14756:14782   */\n      swap1\n      pop\n        /* \"#utility.yul\":14792:14863   */\n      tag_443\n        /* \"#utility.yul\":14860:14861   */\n      0x00\n        /* \"#utility.yul\":14849:14858   */\n      dup4\n        /* \"#utility.yul\":14845:14862   */\n      add\n        /* \"#utility.yul\":14836:14842   */\n      dup7\n        /* \"#utility.yul\":14792:14863   */\n      tag_386\n      jump\t// in\n    tag_443:\n        /* \"#utility.yul\":14873:14945   */\n      tag_444\n        /* \"#utility.yul\":14941:14943   */\n      0x20\n        /* \"#utility.yul\":14930:14939   */\n      dup4\n        /* \"#utility.yul\":14926:14944   */\n      add\n        /* \"#utility.yul\":14917:14923   */\n      dup6\n        /* \"#utility.yul\":14873:14945   */\n      tag_386\n      jump\t// in\n    tag_444:\n        /* \"#utility.yul\":14955:15027   */\n      tag_445\n        /* \"#utility.yul\":15023:15025   */\n      0x40\n        /* \"#utility.yul\":15012:15021   */\n      dup4\n        /* \"#utility.yul\":15008:15026   */\n      add\n        /* \"#utility.yul\":14999:15005   */\n      dup5\n        /* \"#utility.yul\":14955:15027   */\n      tag_386\n      jump\t// in\n    tag_445:\n        /* \"#utility.yul\":14592:15034   */\n      swap5\n      swap4\n      pop\n      pop\n      pop\n      pop\n      jump\t// out\n        /* \"#utility.yul\":15040:15254   */\n    tag_65:\n        /* \"#utility.yul\":15129:15133   */\n      0x00\n        /* \"#utility.yul\":15167:15169   */\n      0x20\n        /* \"#utility.yul\":15156:15165   */\n      dup3\n        /* \"#utility.yul\":15152:15170   */\n      add\n        /* \"#utility.yul\":15144:15170   */\n      swap1\n      pop\n        /* \"#utility.yul\":15180:15247   */\n      tag_447\n        /* \"#utility.yul\":15244:15245   */\n      0x00\n        /* \"#utility.yul\":15233:15242   */\n      dup4\n        /* \"#utility.yul\":15229:15246   */\n      add\n        /* \"#utility.yul\":15220:15226   */\n      dup5\n        /* \"#utility.yul\":15180:15247   */\n      tag_395\n      jump\t// in\n    tag_447:\n        /* \"#utility.yul\":15040:15254   */\n      swap3\n      swap2\n      pop\n      pop\n      jump\t// out\n        /* \"#utility.yul\":15260:15335   */\n    tag_448:\n        /* \"#utility.yul\":15293:15299   */\n      0x00\n        /* \"#utility.yul\":15326:15328   */\n      0x40\n        /* \"#utility.yul\":15320:15329   */\n      mload\n        /* \"#utility.yul\":15310:15329   */\n      swap1\n      pop\n        /* \"#utility.yul\":15260:15335   */\n      swap1\n      jump\t// out\n        /* \"#utility.yul\":15341:15439   */\n    tag_321:\n        /* \"#utility.yul\":15392:15398   */\n      0x00\n        /* \"#utility.yul\":15426:15431   */\n      dup2\n        /* \"#utility.yul\":15420:15432   */\n      mload\n        /* \"#utility.yul\":15410:15432   */\n      swap1\n      pop\n        /* \"#utility.yul\":15341:15439   */\n      swap2\n      swap1\n      pop\n      jump\t// out\n        /* \"#utility.yul\":15445:15544   */\n    tag_331:\n        /* \"#utility.yul\":15497:15503   */\n      0x00\n        /* \"#utility.yul\":15531:15536   */\n      dup2\n        /* \"#utility.yul\":15525:15537   */\n      mload\n        /* \"#utility.yul\":15515:15537   */\n      swap1\n      pop\n        /* \"#utility.yul\":15445:15544   */\n      swap2\n      swap1\n      pop\n      jump\t// out\n        /* \"#utility.yul\":15550:15718   */\n    tag_323:\n        /* \"#utility.yul\":15633:15644   */\n      0x00\n        /* \"#utility.yul\":15667:15673   */\n      dup3\n        /* \"#utility.yul\":15662:15665   */\n      dup3\n        /* \"#utility.yul\":15655:15674   */\n      mstore\n        /* \"#utility.yul\":15707:15711   */\n      0x20\n        /* \"#utility.yul\":15702:15705   */\n      dup3\n        /* \"#utility.yul\":15698:15712   */\n      add\n        /* \"#utility.yul\":15683:15712   */\n      swap1\n      pop\n        /* \"#utility.yul\":15550:15718   */\n      swap3\n      swap2\n      pop\n      pop\n      jump\t// out\n        /* \"#utility.yul\":15724:15893   */\n    tag_333:\n        /* \"#utility.yul\":15808:15819   */\n      0x00\n        /* \"#utility.yul\":15842:15848   */\n      dup3\n        /* \"#utility.yul\":15837:15840   */\n      dup3\n        /* \"#utility.yul\":15830:15849   */\n      mstore\n        /* \"#utility.yul\":15882:15886   */\n      0x20\n        /* \"#utility.yul\":15877:15880   */\n      dup3\n        /* \"#utility.yul\":15873:15887   */\n      add\n        /* \"#utility.yul\":15858:15887   */\n      swap1\n      pop\n        /* \"#utility.yul\":15724:15893   */\n      swap3\n      swap2\n      pop\n      pop\n      jump\t// out\n        /* \"#utility.yul\":15899:16204   */\n    tag_209:\n        /* \"#utility.yul\":15939:15942   */\n      0x00\n        /* \"#utility.yul\":15958:15978   */\n      tag_455\n        /* \"#utility.yul\":15976:15977   */\n      dup3\n        /* \"#utility.yul\":15958:15978   */\n      tag_389\n      jump\t// in\n    tag_455:\n        /* \"#utility.yul\":15953:15978   */\n      swap2\n      pop\n        /* \"#utility.yul\":15992:16012   */\n      tag_456\n        /* \"#utility.yul\":16010:16011   */\n      dup4\n        /* \"#utility.yul\":15992:16012   */\n      tag_389\n      jump\t// in\n    tag_456:\n        /* \"#utility.yul\":15987:16012   */\n      swap3\n      pop\n        /* \"#utility.yul\":16146:16147   */\n      dup3\n        /* \"#utility.yul\":16078:16144   */\n      0xffffffffffffffffffffffffffffffffffffffffffffffffffffffffffffffff\n        /* \"#utility.yul\":16074:16148   */\n      sub\n        /* \"#utility.yul\":16071:16072   */\n      dup3\n        /* \"#utility.yul\":16068:16149   */\n      gt\n        /* \"#utility.yul\":16065:16172   */\n      iszero\n      tag_457\n      jumpi\n        /* \"#utility.yul\":16152:16170   */\n      tag_458\n      tag_459\n      jump\t// in\n    tag_458:\n        /* \"#utility.yul\":16065:16172   */\n    tag_457:\n        /* \"#utility.yul\":16196:16197   */\n      dup3\n        /* \"#utility.yul\":16193:16194   */\n      dup3\n        /* \"#utility.yul\":16189:16198   */\n      add\n        /* \"#utility.yul\":16182:16198   */\n      swap1\n      pop\n        /* \"#utility.yul\":15899:16204   */\n      swap3\n      swap2\n      pop\n      pop\n      jump\t// out\n        /* \"#utility.yul\":16210:16306   */\n    tag_308:\n        /* \"#utility.yul\":16247:16254   */\n      0x00\n        /* \"#utility.yul\":16276:16300   */\n      tag_461\n        /* \"#utility.yul\":16294:16299   */\n      dup3\n        /* \"#utility.yul\":16276:16300   */\n      tag_462\n      jump\t// in\n    tag_461:\n        /* \"#utility.yul\":16265:16300   */\n      swap1\n      pop\n        /* \"#utility.yul\":16210:16306   */\n      swap2\n      swap1\n      pop\n      jump\t// out\n        /* \"#utility.yul\":16312:16416   */\n    tag_304:\n        /* \"#utility.yul\":16357:16364   */\n      0x00\n        /* \"#utility.yul\":16386:16410   */\n      tag_464\n        /* \"#utility.yul\":16404:16409   */\n      dup3\n        /* \"#utility.yul\":16386:16410   */\n      tag_462\n      jump\t// in\n    tag_464:\n        /* \"#utility.yul\":16375:16410   */\n      swap1\n      pop\n        /* \"#utility.yul\":16312:16416   */\n      swap2\n      swap1\n      pop\n      jump\t// out\n        /* \"#utility.yul\":16422:16512   */\n    tag_317:\n        /* \"#utility.yul\":16456:16463   */\n      0x00\n        /* \"#utility.yul\":16499:16504   */\n      dup2\n        /* \"#utility.yul\":16492:16505   */\n      iszero\n        /* \"#utility.yul\":16485:16506   */\n      iszero\n        /* \"#utility.yul\":16474:16506   */\n      swap1\n      pop\n        /* \"#utility.yul\":16422:16512   */\n      swap2\n      swap1\n      pop\n      jump\t// out\n        /* \"#utility.yul\":16518:16667   */\n    tag_466:\n        /* \"#utility.yul\":16554:16561   */\n      0x00\n        /* \"#utility.yul\":16594:16660   */\n      0xffffffff00000000000000000000000000000000000000000000000000000000\n        /* \"#utility.yul\":16587:16592   */\n      dup3\n        /* \"#utility.yul\":16583:16661   */\n      and\n        /* \"#utility.yul\":16572:16661   */\n      swap1\n      pop\n        /* \"#utility.yul\":16518:16667   */\n      swap2\n      swap1\n      pop\n      jump\t// out\n        /* \"#utility.yul\":16673:16799   */\n    tag_462:\n        /* \"#utility.yul\":16710:16717   */\n      0x00\n        /* \"#utility.yul\":16750:16792   */\n      0xffffffffffffffffffffffffffffffffffffffff\n        /* \"#utility.yul\":16743:16748   */\n      dup3\n        /* \"#utility.yul\":16739:16793   */\n      and\n        /* \"#utility.yul\":16728:16793   */\n      swap1\n      pop\n        /* \"#utility.yul\":16673:16799   */\n      swap2\n      swap1\n      pop\n      jump\t// out\n        /* \"#utility.yul\":16805:16882   */\n    tag_389:\n        /* \"#utility.yul\":16842:16849   */\n      0x00\n        /* \"#utility.yul\":16871:16876   */\n      dup2\n        /* \"#utility.yul\":16860:16876   */\n      swap1\n      pop\n        /* \"#utility.yul\":16805:16882   */\n      swap2\n      swap1\n      pop\n      jump\t// out\n        /* \"#utility.yul\":16888:16974   */\n    tag_398:\n        /* \"#utility.yul\":16923:16930   */\n      0x00\n        /* \"#utility.yul\":16963:16967   */\n      0xff\n        /* \"#utility.yul\":16956:16961   */\n      dup3\n        /* \"#utility.yul\":16952:16968   */\n      and\n        /* \"#utility.yul\":16941:16968   */\n      swap1\n      pop\n        /* \"#utility.yul\":16888:16974   */\n      swap2\n      swap1\n      pop\n      jump\t// out\n        /* \"#utility.yul\":16980:17287   */\n    tag_325:\n        /* \"#utility.yul\":17048:17049   */\n      0x00\n        /* \"#utility.yul\":17058:17171   */\n    tag_472:\n        /* \"#utility.yul\":17072:17078   */\n      dup4\n        /* \"#utility.yul\":17069:17070   */\n      dup2\n        /* \"#utility.yul\":17066:17079   */\n      lt\n        /* \"#utility.yul\":17058:17171   */\n      iszero\n      tag_474\n      jumpi\n        /* \"#utility.yul\":17157:17158   */\n      dup1\n        /* \"#utility.yul\":17152:17155   */\n      dup3\n        /* \"#utility.yul\":17148:17159   */\n      add\n        /* \"#utility.yul\":17142:17160   */\n      mload\n        /* \"#utility.yul\":17138:17139   */\n      dup2\n        /* \"#utility.yul\":17133:17136   */\n      dup5\n        /* \"#utility.yul\":17129:17140   */\n      add\n        /* \"#utility.yul\":17122:17161   */\n      mstore\n        /* \"#utility.yul\":17094:17096   */\n      0x20\n        /* \"#utility.yul\":17091:17092   */\n      dup2\n        /* \"#utility.yul\":17087:17097   */\n      add\n        /* \"#utility.yul\":17082:17097   */\n      swap1\n      pop\n        /* \"#utility.yul\":17058:17171   */\n      jump(tag_472)\n    tag_474:\n        /* \"#utility.yul\":17189:17195   */\n      dup4\n        /* \"#utility.yul\":17186:17187   */\n      dup2\n        /* \"#utility.yul\":17183:17196   */\n      gt\n        /* \"#utility.yul\":17180:17281   */\n      iszero\n      tag_475\n      jumpi\n        /* \"#utility.yul\":17269:17270   */\n      0x00\n        /* \"#utility.yul\":17260:17266   */\n      dup5\n        /* \"#utility.yul\":17255:17258   */\n      dup5\n        /* \"#utility.yul\":17251:17267   */\n      add\n        /* \"#utility.yul\":17244:17271   */\n      mstore\n        /* \"#utility.yul\":17180:17281   */\n    tag_475:\n        /* \"#utility.yul\":17029:17287   */\n      pop\n        /* \"#utility.yul\":16980:17287   */\n      pop\n      pop\n      pop\n      jump\t// out\n        /* \"#utility.yul\":17293:17613   */\n    tag_107:\n        /* \"#utility.yul\":17337:17343   */\n      0x00\n        /* \"#utility.yul\":17374:17375   */\n      0x02\n        /* \"#utility.yul\":17368:17372   */\n      dup3\n        /* \"#utility.yul\":17364:17376   */\n      div\n        /* \"#utility.yul\":17354:17376   */\n      swap1\n      pop\n        /* \"#utility.yul\":17421:17422   */\n      0x01\n        /* \"#utility.yul\":17415:17419   */\n      dup3\n        /* \"#utility.yul\":17411:17423   */\n      and\n        /* \"#utility.yul\":17442:17460   */\n      dup1\n        /* \"#utility.yul\":17432:17513   */\n      tag_477\n      jumpi\n        /* \"#utility.yul\":17498:17502   */\n      0x7f\n        /* \"#utility.yul\":17490:17496   */\n      dup3\n        /* \"#utility.yul\":17486:17503   */\n      and\n        /* \"#utility.yul\":17476:17503   */\n      swap2\n      pop\n        /* \"#utility.yul\":17432:17513   */\n    tag_477:\n        /* \"#utility.yul\":17560:17562   */\n      0x20\n        /* \"#utility.yul\":17552:17558   */\n      dup3\n        /* \"#utility.yul\":17549:17563   */\n      lt\n        /* \"#utility.yul\":17529:17547   */\n      dup2\n        /* \"#utility.yul\":17526:17564   */\n      eq\n        /* \"#utility.yul\":17523:17607   */\n      iszero\n      tag_478\n      jumpi\n        /* \"#utility.yul\":17579:17597   */\n      tag_479\n      tag_480\n      jump\t// in\n    tag_479:\n        /* \"#utility.yul\":17523:17607   */\n    tag_478:\n        /* \"#utility.yul\":17344:17613   */\n      pop\n        /* \"#utility.yul\":17293:17613   */\n      swap2\n      swap1\n      pop\n      jump\t// out\n        /* \"#utility.yul\":17619:17900   */\n    tag_481:\n        /* \"#utility.yul\":17702:17729   */\n      tag_483\n        /* \"#utility.yul\":17724:17728   */\n      dup3\n        /* \"#utility.yul\":17702:17729   */\n      tag_327\n      jump\t// in\n    tag_483:\n        /* \"#utility.yul\":17694:17700   */\n      dup2\n        /* \"#utility.yul\":17690:17730   */\n      add\n        /* \"#utility.yul\":17832:17838   */\n      dup2\n        /* \"#utility.yul\":17820:17830   */\n      dup2\n        /* \"#utility.yul\":17817:17839   */\n      lt\n        /* \"#utility.yul\":17796:17814   */\n      0xffffffffffffffff\n        /* \"#utility.yul\":17784:17794   */\n      dup3\n        /* \"#utility.yul\":17781:17815   */\n      gt\n        /* \"#utility.yul\":17778:17840   */\n      or\n        /* \"#utility.yul\":17775:17863   */\n      iszero\n      tag_484\n      jumpi\n        /* \"#utility.yul\":17843:17861   */\n      tag_485\n      tag_224\n      jump\t// in\n    tag_485:\n        /* \"#utility.yul\":17775:17863   */\n    tag_484:\n        /* \"#utility.yul\":17883:17893   */\n      dup1\n        /* \"#utility.yul\":17879:17881   */\n      0x40\n        /* \"#utility.yul\":17872:17894   */\n      mstore\n        /* \"#utility.yul\":17662:17900   */\n      pop\n        /* \"#utility.yul\":17619:17900   */\n      pop\n      pop\n      jump\t// out\n        /* \"#utility.yul\":17906:18139   */\n    tag_114:\n        /* \"#utility.yul\":17945:17948   */\n      0x00\n        /* \"#utility.yul\":17968:17992   */\n      tag_487\n        /* \"#utility.yul\":17986:17991   */\n      dup3\n        /* \"#utility.yul\":17968:17992   */\n      tag_389\n      jump\t// in\n    tag_487:\n        /* \"#utility.yul\":17959:17992   */\n      swap2\n      pop\n        /* \"#utility.yul\":18014:18080   */\n      0xffffffffffffffffffffffffffffffffffffffffffffffffffffffffffffffff\n        /* \"#utility.yul\":18007:18012   */\n      dup3\n        /* \"#utility.yul\":18004:18081   */\n      eq\n        /* \"#utility.yul\":18001:18104   */\n      iszero\n      tag_488\n      jumpi\n        /* \"#utility.yul\":18084:18102   */\n      tag_489\n      tag_459\n      jump\t// in\n    tag_489:\n        /* \"#utility.yul\":18001:18104   */\n    tag_488:\n        /* \"#utility.yul\":18131:18132   */\n      0x01\n        /* \"#utility.yul\":18124:18129   */\n      dup3\n        /* \"#utility.yul\":18120:18133   */\n      add\n        /* \"#utility.yul\":18113:18133   */\n      swap1\n      pop\n        /* \"#utility.yul\":17906:18139   */\n      swap2\n      swap1\n      pop\n      jump\t// out\n        /* \"#utility.yul\":18145:18245   */\n    tag_313:\n        /* \"#utility.yul\":18184:18191   */\n      0x00\n        /* \"#utility.yul\":18213:18239   */\n      tag_491\n        /* \"#utility.yul\":18233:18238   */\n      dup3\n        /* \"#utility.yul\":18213:18239   */\n      tag_492\n      jump\t// in\n    tag_491:\n        /* \"#utility.yul\":18202:18239   */\n      swap1\n      pop\n        /* \"#utility.yul\":18145:18245   */\n      swap2\n      swap1\n      pop\n      jump\t// out\n        /* \"#utility.yul\":18251:18345   */\n    tag_492:\n        /* \"#utility.yul\":18290:18297   */\n      0x00\n        /* \"#utility.yul\":18319:18339   */\n      tag_494\n        /* \"#utility.yul\":18333:18338   */\n      dup3\n        /* \"#utility.yul\":18319:18339   */\n      tag_495\n      jump\t// in\n    tag_494:\n        /* \"#utility.yul\":18308:18339   */\n      swap1\n      pop\n        /* \"#utility.yul\":18251:18345   */\n      swap2\n      swap1\n      pop\n      jump\t// out\n        /* \"#utility.yul\":18351:18430   */\n    tag_394:\n        /* \"#utility.yul\":18390:18397   */\n      0x00\n        /* \"#utility.yul\":18419:18424   */\n      dup2\n        /* \"#utility.yul\":18408:18424   */\n      swap1\n      pop\n        /* \"#utility.yul\":18351:18430   */\n      swap2\n      swap1\n      pop\n      jump\t// out\n        /* \"#utility.yul\":18436:18612   */\n    tag_220:\n        /* \"#utility.yul\":18468:18469   */\n      0x00\n        /* \"#utility.yul\":18485:18505   */\n      tag_498\n        /* \"#utility.yul\":18503:18504   */\n      dup3\n        /* \"#utility.yul\":18485:18505   */\n      tag_389\n      jump\t// in\n    tag_498:\n        /* \"#utility.yul\":18480:18505   */\n      swap2\n      pop\n        /* \"#utility.yul\":18519:18539   */\n      tag_499\n        /* \"#utility.yul\":18537:18538   */\n      dup4\n        /* \"#utility.yul\":18519:18539   */\n      tag_389\n      jump\t// in\n    tag_499:\n        /* \"#utility.yul\":18514:18539   */\n      swap3\n      pop\n        /* \"#utility.yul\":18558:18559   */\n      dup3\n        /* \"#utility.yul\":18548:18583   */\n      tag_500\n      jumpi\n        /* \"#utility.yul\":18563:18581   */\n      tag_501\n      tag_502\n      jump\t// in\n    tag_501:\n        /* \"#utility.yul\":18548:18583   */\n    tag_500:\n        /* \"#utility.yul\":18604:18605   */\n      dup3\n        /* \"#utility.yul\":18601:18602   */\n      dup3\n        /* \"#utility.yul\":18597:18606   */\n      mod\n        /* \"#utility.yul\":18592:18606   */\n      swap1\n      pop\n        /* \"#utility.yul\":18436:18612   */\n      swap3\n      swap2\n      pop\n      pop\n      jump\t// out\n        /* \"#utility.yul\":18618:18798   */\n    tag_459:\n        /* \"#utility.yul\":18666:18743   */\n      0x4e487b7100000000000000000000000000000000000000000000000000000000\n        /* \"#utility.yul\":18663:18664   */\n      0x00\n        /* \"#utility.yul\":18656:18744   */\n      mstore\n        /* \"#utility.yul\":18763:18767   */\n      0x11\n        /* \"#utility.yul\":18760:18761   */\n      0x04\n        /* \"#utility.yul\":18753:18768   */\n      mstore\n        /* \"#utility.yul\":18787:18791   */\n      0x24\n        /* \"#utility.yul\":18784:18785   */\n      0x00\n        /* \"#utility.yul\":18777:18792   */\n      revert\n        /* \"#utility.yul\":18804:18984   */\n    tag_502:\n        /* \"#utility.yul\":18852:18929   */\n      0x4e487b7100000000000000000000000000000000000000000000000000000000\n        /* \"#utility.yul\":18849:18850   */\n      0x00\n        /* \"#utility.yul\":18842:18930   */\n      mstore\n        /* \"#utility.yul\":18949:18953   */\n      0x12\n        /* \"#utility.yul\":18946:18947   */\n      0x04\n        /* \"#utility.yul\":18939:18954   */\n      mstore\n        /* \"#utility.yul\":18973:18977   */\n      0x24\n        /* \"#utility.yul\":18970:18971   */\n      0x00\n        /* \"#utility.yul\":18963:18978   */\n      revert\n        /* \"#utility.yul\":18990:19170   */\n    tag_480:\n        /* \"#utility.yul\":19038:19115   */\n      0x4e487b7100000000000000000000000000000000000000000000000000000000\n        /* \"#utility.yul\":19035:19036   */\n      0x00\n        /* \"#utility.yul\":19028:19116   */\n      mstore\n        /* \"#utility.yul\":19135:19139   */\n      0x22\n        /* \"#utility.yul\":19132:19133   */\n      0x04\n        /* \"#utility.yul\":19125:19140   */\n      mstore\n        /* \"#utility.yul\":19159:19163   */\n      0x24\n        /* \"#utility.yul\":19156:19157   */\n      0x00\n        /* \"#utility.yul\":19149:19164   */\n      revert\n        /* \"#utility.yul\":19176:19356   */\n    tag_174:\n        /* \"#utility.yul\":19224:19301   */\n      0x4e487b7100000000000000000000000000000000000000000000000000000000\n        /* \"#utility.yul\":19221:19222   */\n      0x00\n        /* \"#utility.yul\":19214:19302   */\n      mstore\n        /* \"#utility.yul\":19321:19325   */\n      0x32\n        /* \"#utility.yul\":19318:19319   */\n      0x04\n        /* \"#utility.yul\":19311:19326   */\n      mstore\n        /* \"#utility.yul\":19345:19349   */\n      0x24\n        /* \"#utility.yul\":19342:19343   */\n      0x00\n        /* \"#utility.yul\":19335:19350   */\n      revert\n        /* \"#utility.yul\":19362:19542   */\n    tag_224:\n        /* \"#utility.yul\":19410:19487   */\n      0x4e487b7100000000000000000000000000000000000000000000000000000000\n        /* \"#utility.yul\":19407:19408   */\n      0x00\n        /* \"#utility.yul\":19400:19488   */\n      mstore\n        /* \"#utility.yul\":19507:19511   */\n      0x41\n        /* \"#utility.yul\":19504:19505   */\n      0x04\n        /* \"#utility.yul\":19497:19512   */\n      mstore\n        /* \"#utility.yul\":19531:19535   */\n      0x24\n        /* \"#utility.yul\":19528:19529   */\n      0x00\n        /* \"#utility.yul\":19521:19536   */\n      revert\n        /* \"#utility.yul\":19548:19731   */\n    tag_244:\n        /* \"#utility.yul\":19583:19586   */\n      0x00\n        /* \"#utility.yul\":19621:19622   */\n      0x03\n        /* \"#utility.yul\":19603:19619   */\n      returndatasize\n        /* \"#utility.yul\":19600:19623   */\n      gt\n        /* \"#utility.yul\":19597:19725   */\n      iszero\n      tag_509\n      jumpi\n        /* \"#utility.yul\":19659:19660   */\n      0x04\n        /* \"#utility.yul\":19656:19657   */\n      0x00\n        /* \"#utility.yul\":19653:19654   */\n      dup1\n        /* \"#utility.yul\":19638:19661   */\n      returndatacopy\n        /* \"#utility.yul\":19681:19715   */\n      tag_510\n        /* \"#utility.yul\":19712:19713   */\n      0x00\n        /* \"#utility.yul\":19706:19714   */\n      mload\n        /* \"#utility.yul\":19681:19715   */\n      tag_511\n      jump\t// in\n    tag_510:\n        /* \"#utility.yul\":19674:19715   */\n      swap1\n      pop\n        /* \"#utility.yul\":19597:19725   */\n    tag_509:\n        /* \"#utility.yul\":19548:19731   */\n      swap1\n      jump\t// out\n        /* \"#utility.yul\":19860:19977   */\n    tag_287:\n        /* \"#utility.yul\":19969:19970   */\n      0x00\n        /* \"#utility.yul\":19966:19967   */\n      dup1\n        /* \"#utility.yul\":19959:19971   */\n      revert\n        /* \"#utility.yul\":19983:20085   */\n    tag_327:\n        /* \"#utility.yul\":20024:20030   */\n      0x00\n        /* \"#utility.yul\":20075:20077   */\n      0x1f\n        /* \"#utility.yul\":20071:20078   */\n      not\n        /* \"#utility.yul\":20066:20068   */\n      0x1f\n        /* \"#utility.yul\":20059:20064   */\n      dup4\n        /* \"#utility.yul\":20055:20069   */\n      add\n        /* \"#utility.yul\":20051:20079   */\n      and\n        /* \"#utility.yul\":20041:20079   */\n      swap1\n      pop\n        /* \"#utility.yul\":19983:20085   */\n      swap2\n      swap1\n      pop\n      jump\t// out\n        /* \"#utility.yul\":20091:20185   */\n    tag_495:\n        /* \"#utility.yul\":20124:20132   */\n      0x00\n        /* \"#utility.yul\":20172:20177   */\n      dup2\n        /* \"#utility.yul\":20168:20170   */\n      0x60\n        /* \"#utility.yul\":20164:20178   */\n      shl\n        /* \"#utility.yul\":20143:20178   */\n      swap1\n      pop\n        /* \"#utility.yul\":20091:20185   */\n      swap2\n      swap1\n      pop\n      jump\t// out\n        /* \"#utility.yul\":20191:20297   */\n    tag_511:\n        /* \"#utility.yul\":20235:20243   */\n      0x00\n        /* \"#utility.yul\":20284:20289   */\n      dup2\n        /* \"#utility.yul\":20279:20282   */\n      0xe0\n        /* \"#utility.yul\":20275:20290   */\n      shr\n        /* \"#utility.yul\":20254:20290   */\n      swap1\n      pop\n        /* \"#utility.yul\":20191:20297   */\n      swap2\n      swap1\n      pop\n      jump\t// out\n        /* \"#utility.yul\":20303:20542   */\n    tag_340:\n        /* \"#utility.yul\":20443:20477   */\n      0x455243313135353a207472616e7366657220746f206e6f6e2045524331313535\n        /* \"#utility.yul\":20439:20440   */\n      0x00\n        /* \"#utility.yul\":20431:20437   */\n      dup3\n        /* \"#utility.yul\":20427:20441   */\n      add\n        /* \"#utility.yul\":20420:20478   */\n      mstore\n        /* \"#utility.yul\":20512:20534   */\n      0x526563656976657220696d706c656d656e746572000000000000000000000000\n        /* \"#utility.yul\":20507:20509   */\n      0x20\n        /* \"#utility.yul\":20499:20505   */\n      dup3\n        /* \"#utility.yul\":20495:20510   */\n      add\n        /* \"#utility.yul\":20488:20535   */\n      mstore\n        /* \"#utility.yul\":20303:20542   */\n      pop\n      jump\t// out\n        /* \"#utility.yul\":20548:20775   */\n    tag_345:\n        /* \"#utility.yul\":20688:20722   */\n      0x455243313135353a204552433131353552656365697665722072656a65637465\n        /* \"#utility.yul\":20684:20685   */\n      0x00\n        /* \"#utility.yul\":20676:20682   */\n      dup3\n        /* \"#utility.yul\":20672:20686   */\n      add\n        /* \"#utility.yul\":20665:20723   */\n      mstore\n        /* \"#utility.yul\":20757:20767   */\n      0x6420746f6b656e73000000000000000000000000000000000000000000000000\n        /* \"#utility.yul\":20752:20754   */\n      0x20\n        /* \"#utility.yul\":20744:20750   */\n      dup3\n        /* \"#utility.yul\":20740:20755   */\n      add\n        /* \"#utility.yul\":20733:20768   */\n      mstore\n        /* \"#utility.yul\":20548:20775   */\n      pop\n      jump\t// out\n        /* \"#utility.yul\":20781:20956   */\n    tag_350:\n        /* \"#utility.yul\":20921:20948   */\n      0x42616c616e6365206d757374206265203235204d617469637300000000000000\n        /* \"#utility.yul\":20917:20918   */\n      0x00\n        /* \"#utility.yul\":20909:20915   */\n      dup3\n        /* \"#utility.yul\":20905:20919   */\n      add\n        /* \"#utility.yul\":20898:20949   */\n      mstore\n        /* \"#utility.yul\":20781:20956   */\n      pop\n      jump\t// out\n        /* \"#utility.yul\":20962:21139   */\n    tag_355:\n        /* \"#utility.yul\":21102:21131   */\n      0x44726f707369746520697320616c72656164792052756e6e696e670000000000\n        /* \"#utility.yul\":21098:21099   */\n      0x00\n        /* \"#utility.yul\":21090:21096   */\n      dup3\n        /* \"#utility.yul\":21086:21100   */\n      add\n        /* \"#utility.yul\":21079:21132   */\n      mstore\n        /* \"#utility.yul\":20962:21139   */\n      pop\n      jump\t// out\n        /* \"#utility.yul\":21145:21322   */\n    tag_360:\n        /* \"#utility.yul\":21285:21314   */\n      0x44726f707369746520697320616c72656164792053746f707065640000000000\n        /* \"#utility.yul\":21281:21282   */\n      0x00\n        /* \"#utility.yul\":21273:21279   */\n      dup3\n        /* \"#utility.yul\":21269:21283   */\n      add\n        /* \"#utility.yul\":21262:21315   */\n      mstore\n        /* \"#utility.yul\":21145:21322   */\n      pop\n      jump\t// out\n        /* \"#utility.yul\":21328:21506   */\n    tag_365:\n        /* \"#utility.yul\":21468:21498   */\n      0x4f6e6c79204e46542d4553204f776e65722063616e2041636365737300000000\n        /* \"#utility.yul\":21464:21465   */\n      0x00\n        /* \"#utility.yul\":21456:21462   */\n      dup3\n        /* \"#utility.yul\":21452:21466   */\n      add\n        /* \"#utility.yul\":21445:21499   */\n      mstore\n        /* \"#utility.yul\":21328:21506   */\n      pop\n      jump\t// out\n        /* \"#utility.yul\":21512:21689   */\n    tag_370:\n        /* \"#utility.yul\":21652:21681   */\n      0x44726f7073697465206973206e6f74204f70656e6564205965742e0000000000\n        /* \"#utility.yul\":21648:21649   */\n      0x00\n        /* \"#utility.yul\":21640:21646   */\n      dup3\n        /* \"#utility.yul\":21636:21650   */\n      add\n        /* \"#utility.yul\":21629:21682   */\n      mstore\n        /* \"#utility.yul\":21512:21689   */\n      pop\n      jump\t// out\n        /* \"#utility.yul\":21695:21870   */\n    tag_375:\n        /* \"#utility.yul\":21835:21862   */\n      0x4d6178204d696e74696e67204c696d6974207265616368656400000000000000\n        /* \"#utility.yul\":21831:21832   */\n      0x00\n        /* \"#utility.yul\":21823:21829   */\n      dup3\n        /* \"#utility.yul\":21819:21833   */\n      add\n        /* \"#utility.yul\":21812:21863   */\n      mstore\n        /* \"#utility.yul\":21695:21870   */\n      pop\n      jump\t// out\n        /* \"#utility.yul\":21876:22055   */\n    tag_380:\n        /* \"#utility.yul\":22016:22047   */\n      0x4572726f7221204e6f2042616c616e636520746f207769746864726177000000\n        /* \"#utility.yul\":22012:22013   */\n      0x00\n        /* \"#utility.yul\":22004:22010   */\n      dup3\n        /* \"#utility.yul\":22000:22014   */\n      add\n        /* \"#utility.yul\":21993:22048   */\n      mstore\n        /* \"#utility.yul\":21876:22055   */\n      pop\n      jump\t// out\n        /* \"#utility.yul\":22061:22281   */\n    tag_385:\n        /* \"#utility.yul\":22201:22235   */\n      0x455243313135353a206d696e7420746f20746865207a65726f20616464726573\n        /* \"#utility.yul\":22197:22198   */\n      0x00\n        /* \"#utility.yul\":22189:22195   */\n      dup3\n        /* \"#utility.yul\":22185:22199   */\n      add\n        /* \"#utility.yul\":22178:22236   */\n      mstore\n        /* \"#utility.yul\":22270:22273   */\n      0x7300000000000000000000000000000000000000000000000000000000000000\n        /* \"#utility.yul\":22265:22267   */\n      0x20\n        /* \"#utility.yul\":22257:22263   */\n      dup3\n        /* \"#utility.yul\":22253:22268   */\n      add\n        /* \"#utility.yul\":22246:22274   */\n      mstore\n        /* \"#utility.yul\":22061:22281   */\n      pop\n      jump\t// out\n        /* \"#utility.yul\":22287:22998   */\n    tag_246:\n        /* \"#utility.yul\":22326:22329   */\n      0x00\n        /* \"#utility.yul\":22364:22368   */\n      0x44\n        /* \"#utility.yul\":22346:22362   */\n      returndatasize\n        /* \"#utility.yul\":22343:22369   */\n      lt\n        /* \"#utility.yul\":22340:22379   */\n      iszero\n      tag_529\n      jumpi\n        /* \"#utility.yul\":22372:22377   */\n      jump(tag_528)\n        /* \"#utility.yul\":22340:22379   */\n    tag_529:\n        /* \"#utility.yul\":22401:22421   */\n      tag_530\n      tag_448\n      jump\t// in\n    tag_530:\n        /* \"#utility.yul\":22476:22477   */\n      0x04\n        /* \"#utility.yul\":22458:22474   */\n      returndatasize\n        /* \"#utility.yul\":22454:22478   */\n      sub\n        /* \"#utility.yul\":22451:22452   */\n      0x04\n        /* \"#utility.yul\":22445:22449   */\n      dup3\n        /* \"#utility.yul\":22430:22479   */\n      returndatacopy\n        /* \"#utility.yul\":22509:22513   */\n      dup1\n        /* \"#utility.yul\":22503:22514   */\n      mload\n        /* \"#utility.yul\":22608:22624   */\n      returndatasize\n        /* \"#utility.yul\":22601:22605   */\n      0x24\n        /* \"#utility.yul\":22593:22599   */\n      dup3\n        /* \"#utility.yul\":22589:22606   */\n      add\n        /* \"#utility.yul\":22586:22625   */\n      gt\n        /* \"#utility.yul\":22553:22571   */\n      0xffffffffffffffff\n        /* \"#utility.yul\":22545:22551   */\n      dup3\n        /* \"#utility.yul\":22542:22572   */\n      gt\n        /* \"#utility.yul\":22526:22639   */\n      or\n        /* \"#utility.yul\":22523:22669   */\n      iszero\n      tag_531\n      jumpi\n        /* \"#utility.yul\":22654:22659   */\n      pop\n      pop\n      jump(tag_528)\n        /* \"#utility.yul\":22523:22669   */\n    tag_531:\n        /* \"#utility.yul\":22700:22706   */\n      dup1\n        /* \"#utility.yul\":22694:22698   */\n      dup3\n        /* \"#utility.yul\":22690:22707   */\n      add\n        /* \"#utility.yul\":22736:22739   */\n      dup1\n        /* \"#utility.yul\":22730:22740   */\n      mload\n        /* \"#utility.yul\":22763:22781   */\n      0xffffffffffffffff\n        /* \"#utility.yul\":22755:22761   */\n      dup2\n        /* \"#utility.yul\":22752:22782   */\n      gt\n        /* \"#utility.yul\":22749:22792   */\n      iszero\n      tag_532\n      jumpi\n        /* \"#utility.yul\":22785:22790   */\n      pop\n      pop\n      pop\n      pop\n      jump(tag_528)\n        /* \"#utility.yul\":22749:22792   */\n    tag_532:\n        /* \"#utility.yul\":22833:22839   */\n      dup1\n        /* \"#utility.yul\":22826:22830   */\n      0x20\n        /* \"#utility.yul\":22821:22824   */\n      dup4\n        /* \"#utility.yul\":22817:22831   */\n      add\n        /* \"#utility.yul\":22813:22840   */\n      add\n        /* \"#utility.yul\":22892:22893   */\n      0x04\n        /* \"#utility.yul\":22874:22890   */\n      returndatasize\n        /* \"#utility.yul\":22870:22894   */\n      sub\n        /* \"#utility.yul\":22864:22868   */\n      dup6\n        /* \"#utility.yul\":22860:22895   */\n      add\n        /* \"#utility.yul\":22855:22858   */\n      dup2\n        /* \"#utility.yul\":22852:22896   */\n      gt\n        /* \"#utility.yul\":22849:22906   */\n      iszero\n      tag_533\n      jumpi\n        /* \"#utility.yul\":22899:22904   */\n      pop\n      pop\n      pop\n      pop\n      pop\n      jump(tag_528)\n        /* \"#utility.yul\":22849:22906   */\n    tag_533:\n        /* \"#utility.yul\":22916:22973   */\n      tag_534\n        /* \"#utility.yul\":22964:22970   */\n      dup3\n        /* \"#utility.yul\":22958:22962   */\n      0x20\n        /* \"#utility.yul\":22954:22971   */\n      add\n        /* \"#utility.yul\":22946:22952   */\n      dup6\n        /* \"#utility.yul\":22942:22972   */\n      add\n        /* \"#utility.yul\":22936:22940   */\n      dup7\n        /* \"#utility.yul\":22916:22973   */\n      tag_481\n      jump\t// in\n    tag_534:\n        /* \"#utility.yul\":22989:22992   */\n      dup3\n        /* \"#utility.yul\":22982:22992   */\n      swap6\n      pop\n        /* \"#utility.yul\":22330:22998   */\n      pop\n      pop\n      pop\n      pop\n      pop\n        /* \"#utility.yul\":22287:22998   */\n    tag_528:\n      swap1\n      jump\t// out\n        /* \"#utility.yul\":23004:23126   */\n    tag_271:\n        /* \"#utility.yul\":23077:23101   */\n      tag_536\n        /* \"#utility.yul\":23095:23100   */\n      dup2\n        /* \"#utility.yul\":23077:23101   */\n      tag_308\n      jump\t// in\n    tag_536:\n        /* \"#utility.yul\":23070:23075   */\n      dup2\n        /* \"#utility.yul\":23067:23102   */\n      eq\n        /* \"#utility.yul\":23057:23120   */\n      tag_537\n      jumpi\n        /* \"#utility.yul\":23116:23117   */\n      0x00\n        /* \"#utility.yul\":23113:23114   */\n      dup1\n        /* \"#utility.yul\":23106:23118   */\n      revert\n        /* \"#utility.yul\":23057:23120   */\n    tag_537:\n        /* \"#utility.yul\":23004:23126   */\n      pop\n      jump\t// out\n        /* \"#utility.yul\":23132:23270   */\n    tag_275:\n        /* \"#utility.yul\":23213:23245   */\n      tag_539\n        /* \"#utility.yul\":23239:23244   */\n      dup2\n        /* \"#utility.yul\":23213:23245   */\n      tag_304\n      jump\t// in\n    tag_539:\n        /* \"#utility.yul\":23206:23211   */\n      dup2\n        /* \"#utility.yul\":23203:23246   */\n      eq\n        /* \"#utility.yul\":23193:23264   */\n      tag_540\n      jumpi\n        /* \"#utility.yul\":23260:23261   */\n      0x00\n        /* \"#utility.yul\":23257:23258   */\n      dup1\n        /* \"#utility.yul\":23250:23262   */\n      revert\n        /* \"#utility.yul\":23193:23264   */\n    tag_540:\n        /* \"#utility.yul\":23132:23270   */\n      pop\n      jump\t// out\n        /* \"#utility.yul\":23276:23396   */\n    tag_279:\n        /* \"#utility.yul\":23348:23371   */\n      tag_542\n        /* \"#utility.yul\":23365:23370   */\n      dup2\n        /* \"#utility.yul\":23348:23371   */\n      tag_466\n      jump\t// in\n    tag_542:\n        /* \"#utility.yul\":23341:23346   */\n      dup2\n        /* \"#utility.yul\":23338:23372   */\n      eq\n        /* \"#utility.yul\":23328:23390   */\n      tag_543\n      jumpi\n        /* \"#utility.yul\":23386:23387   */\n      0x00\n        /* \"#utility.yul\":23383:23384   */\n      dup1\n        /* \"#utility.yul\":23376:23388   */\n      revert\n        /* \"#utility.yul\":23328:23390   */\n    tag_543:\n        /* \"#utility.yul\":23276:23396   */\n      pop\n      jump\t// out\n        /* \"#utility.yul\":23402:23524   */\n    tag_283:\n        /* \"#utility.yul\":23475:23499   */\n      tag_545\n        /* \"#utility.yul\":23493:23498   */\n      dup2\n        /* \"#utility.yul\":23475:23499   */\n      tag_389\n      jump\t// in\n    tag_545:\n        /* \"#utility.yul\":23468:23473   */\n      dup2\n        /* \"#utility.yul\":23465:23500   */\n      eq\n        /* \"#utility.yul\":23455:23518   */\n      tag_546\n      jumpi\n        /* \"#utility.yul\":23514:23515   */\n      0x00\n        /* \"#utility.yul\":23511:23512   */\n      dup1\n        /* \"#utility.yul\":23504:23516   */\n      revert\n        /* \"#utility.yul\":23455:23518   */\n    tag_546:\n        /* \"#utility.yul\":23402:23524   */\n      pop\n      jump\t// out\n\n    auxdata: 0xa264697066735822122077216474b74f2f2f87b3c7f3a168e0410737a50a2c23f83d3a8e6dd469f9398564736f6c63430008070033\n}\n",
				"bytecode": {
					"linkReferences": {},
					"object": "608060405260405180602001604052806000815250600290805190602001906200002b92919062000184565b50604051806101400160405280600060ff168152602001600160ff168152602001600160ff168152602001600160ff168152602001600260ff168152602001600260ff168152602001600260ff168152602001600260ff168152602001600260ff168152602001600260ff16815250600390600a620000ac92919062000215565b506001600b60006101000a81548160ff021916908315150217905550348015620000d557600080fd5b50604051620028a6380380620028a68339818101604052810190620000fb9190620003e4565b80600c908051906020019062000113929190620002b6565b5033600b60016101000a81548173ffffffffffffffffffffffffffffffffffffffff021916908373ffffffffffffffffffffffffffffffffffffffff1602179055506000600481905550600160058190555060006006819055506000600781905550600060088190555050620005b9565b8280546200019290620004ca565b90600052602060002090601f016020900481019282620001b6576000855562000202565b82601f10620001d157805160ff191683800117855562000202565b8280016001018555821562000202579182015b8281111562000201578251825591602001919060010190620001e4565b5b50905062000211919062000347565b5090565b82600a601f01602090048101928215620002a35791602002820160005b838211156200027257835183826101000a81548160ff021916908360ff160217905550926020019260010160208160000104928301926001030262000232565b8015620002a15782816101000a81549060ff021916905560010160208160000104928301926001030262000272565b505b509050620002b2919062000347565b5090565b828054620002c490620004ca565b90600052602060002090601f016020900481019282620002e8576000855562000334565b82601f106200030357805160ff191683800117855562000334565b8280016001018555821562000334579182015b828111156200033357825182559160200191906001019062000316565b5b50905062000343919062000347565b5090565b5b808211156200036257600081600090555060010162000348565b5090565b60006200037d62000377846200045e565b62000435565b9050828152602081018484840111156200039c576200039b62000599565b5b620003a984828562000494565b509392505050565b600082601f830112620003c957620003c862000594565b5b8151620003db84826020860162000366565b91505092915050565b600060208284031215620003fd57620003fc620005a3565b5b600082015167ffffffffffffffff8111156200041e576200041d6200059e565b5b6200042c84828501620003b1565b91505092915050565b60006200044162000454565b90506200044f828262000500565b919050565b6000604051905090565b600067ffffffffffffffff8211156200047c576200047b62000565565b5b6200048782620005a8565b9050602081019050919050565b60005b83811015620004b457808201518184015260208101905062000497565b83811115620004c4576000848401525b50505050565b60006002820490506001821680620004e357607f821691505b60208210811415620004fa57620004f962000536565b5b50919050565b6200050b82620005a8565b810181811067ffffffffffffffff821117156200052d576200052c62000565565b5b80604052505050565b7f4e487b7100000000000000000000000000000000000000000000000000000000600052602260045260246000fd5b7f4e487b7100000000000000000000000000000000000000000000000000000000600052604160045260246000fd5b600080fd5b600080fd5b600080fd5b600080fd5b6000601f19601f8301169050919050565b6122dd80620005c96000396000f3fe60806040526004361061009c5760003560e01c80633b668059116100645780633b668059146101685780633d65df701461019357806360daa851146101c4578063aa90c726146101f1578063b4a99a4e14610208578063fd1ee54c146102335761009c565b80630390c11c146100a15780630a67d2c7146100cc5780631309a563146100e8578063154602591461011357806332b61b4c1461012a575b600080fd5b3480156100ad57600080fd5b506100b6610270565b6040516100c39190611b3d565b60405180910390f35b6100e660048036038101906100e1919061164f565b610311565b005b3480156100f457600080fd5b506100fd61043b565b60405161010a91906119c0565b60405180910390f35b34801561011f57600080fd5b5061012861044e565b005b34801561013657600080fd5b50610151600480360381019061014c9190611622565b610558565b60405161015f929190611b58565b60405180910390f35b34801561017457600080fd5b5061017d610828565b60405161018a9190611b3d565b60405180910390f35b6101ad60048036038101906101a89190611622565b6108c7565b6040516101bb929190611b58565b60405180910390f35b3480156101d057600080fd5b506101d9610b54565b6040516101e893929190611bb1565b60405180910390f35b3480156101fd57600080fd5b50610206610c04565b005b34801561021457600080fd5b5061021d610d0e565b60405161022a919061194b565b60405180910390f35b34801561023f57600080fd5b5061025a600480360381019061025591906116a9565b610d34565b6040516102679190611be8565b60405180910390f35b6000600b60019054906101000a900473ffffffffffffffffffffffffffffffffffffffff1673ffffffffffffffffffffffffffffffffffffffff166102b3610d5e565b73ffffffffffffffffffffffffffffffffffffffff1614610309576040517f08c379a000000000000000000000000000000000000000000000000000000000815260040161030090611a9d565b60405180910390fd5b600454905090565b600b60019054906101000a900473ffffffffffffffffffffffffffffffffffffffff1673ffffffffffffffffffffffffffffffffffffffff16610352610d5e565b73ffffffffffffffffffffffffffffffffffffffff16146103a8576040517f08c379a000000000000000000000000000000000000000000000000000000000815260040161039f90611a9d565b60405180910390fd5b6000479050600081116103f0576040517f08c379a00000000000000000000000000000000000000000000000000000000081526004016103e790611afd565b60405180910390fd5b8173ffffffffffffffffffffffffffffffffffffffff166108fc829081150290604051600060405180830381858888f19350505050158015610436573d6000803e3d6000fd5b505050565b600b60009054906101000a900460ff1681565b600b60019054906101000a900473ffffffffffffffffffffffffffffffffffffffff1673ffffffffffffffffffffffffffffffffffffffff1661048f610d5e565b73ffffffffffffffffffffffffffffffffffffffff16146104e5576040517f08c379a00000000000000000000000000000000000000000000000000000000081526004016104dc90611a9d565b60405180910390fd5b60011515600b60009054906101000a900460ff1615151461053b576040517f08c379a000000000000000000000000000000000000000000000000000000000815260040161053290611a5d565b60405180910390fd5b6000600b60006101000a81548160ff021916908315150217905550565b60006060600b60019054906101000a900473ffffffffffffffffffffffffffffffffffffffff1673ffffffffffffffffffffffffffffffffffffffff1661059d610d5e565b73ffffffffffffffffffffffffffffffffffffffff16146105f3576040517f08c379a00000000000000000000000000000000000000000000000000000000081526004016105ea90611a9d565b60405180910390fd5b60001515600b60009054906101000a900460ff16151514610649576040517f08c379a000000000000000000000000000000000000000000000000000000000815260040161064090611abd565b60405180910390fd5b6103e86004541061068f576040517f08c379a000000000000000000000000000000000000000000000000000000000815260040161068690611add565b60405180910390fd5b6000610699610d66565b90506107338482600554600280546106b090611d61565b80601f01602080910402602001604051908101604052809291908181526020018280546106dc90611d61565b80156107295780601f106106fe57610100808354040283529160200191610729565b820191906000526020600020905b81548152906001019060200180831161070c57829003601f168201915b505050505061107b565b6004600081548092919061074690611dc4565b919050555080600960008673ffffffffffffffffffffffffffffffffffffffff1673ffffffffffffffffffffffffffffffffffffffff1681526020019081526020016000208190555080600280805461079e90611d61565b80601f01602080910402602001604051908101604052809291908181526020018280546107ca90611d61565b80156108175780601f106107ec57610100808354040283529160200191610817565b820191906000526020600020905b8154815290600101906020018083116107fa57829003601f168201915b505050505090509250925050915091565b6000600b60019054906101000a900473ffffffffffffffffffffffffffffffffffffffff1673ffffffffffffffffffffffffffffffffffffffff1661086b610d5e565b73ffffffffffffffffffffffffffffffffffffffff16146108c1576040517f08c379a00000000000000000000000000000000000000000000000000000000081526004016108b890611a9d565b60405180910390fd5b47905090565b6000606060001515600b60009054906101000a900460ff16151514610921576040517f08c379a000000000000000000000000000000000000000000000000000000000815260040161091890611abd565b60405180910390fd5b6103e860045410610967576040517f08c379a000000000000000000000000000000000000000000000000000000000815260040161095e90611add565b60405180910390fd5b601934146109aa576040517f08c379a00000000000000000000000000000000000000000000000000000000081526004016109a190611a3d565b60405180910390fd5b60006109b4610d66565b9050610a4e8482600554600280546109cb90611d61565b80601f01602080910402602001604051908101604052809291908181526020018280546109f790611d61565b8015610a445780601f10610a1957610100808354040283529160200191610a44565b820191906000526020600020905b815481529060010190602001808311610a2757829003601f168201915b505050505061107b565b610a5f610a59610d5e565b34611211565b60046000815480929190610a7290611dc4565b919050555080600960008673ffffffffffffffffffffffffffffffffffffffff1673ffffffffffffffffffffffffffffffffffffffff16815260200190815260200160002081905550806002808054610aca90611d61565b80601f0160208091040260200160405190810160405280929190818152602001828054610af690611d61565b8015610b435780601f10610b1857610100808354040283529160200191610b43565b820191906000526020600020905b815481529060010190602001808311610b2657829003601f168201915b505050505090509250925050915091565b6000806000600b60019054906101000a900473ffffffffffffffffffffffffffffffffffffffff1673ffffffffffffffffffffffffffffffffffffffff16610b9a610d5e565b73ffffffffffffffffffffffffffffffffffffffff1614610bf0576040517f08c379a0000000000000000000000000000000000000000000000000000000008152600401610be790611a9d565b60405180910390fd5b600654600754600854925092509250909192565b600b60019054906101000a900473ffffffffffffffffffffffffffffffffffffffff1673ffffffffffffffffffffffffffffffffffffffff16610c45610d5e565b73ffffffffffffffffffffffffffffffffffffffff1614610c9b576040517f08c379a0000000000000000000000000000000000000000000000000000000008152600401610c9290611a9d565b60405180910390fd5b60001515600b60009054906101000a900460ff16151514610cf1576040517f08c379a0000000000000000000000000000000000000000000000000000000008152600401610ce890611a7d565b60405180910390fd5b6001600b60006101000a81548160ff021916908315150217905550565b600b60019054906101000a900473ffffffffffffffffffffffffffffffffffffffff1681565b600381600a8110610d4457600080fd5b60209182820401919006915054906101000a900460ff1681565b600033905090565b6000801515600b60009054906101000a900460ff16151514610dbd576040517f08c379a0000000000000000000000000000000000000000000000000000000008152600401610db490611abd565b60405180910390fd5b6000610dc761126b565b90506000600382600a8110610ddf57610dde611ef9565b5b602091828204019190069054906101000a900460ff1660ff169050600081148015610e0c57506032600654105b15610e7f576040518060400160405280600781526020017f4469616d6f6e640000000000000000000000000000000000000000000000000081525060029080519060200190610e5c92919061152b565b5060066000815480929190610e7090611dc4565b91905055508092505050611078565b60018111158015610e9257506064600754105b15610f05576040518060400160405280600481526020017f476f6c640000000000000000000000000000000000000000000000000000000081525060029080519060200190610ee292919061152b565b5060076000815480929190610ef690611dc4565b91905055508092505050611078565b60028111158015610f1a575061035260085411155b15610f8d576040518060400160405280600681526020017f53696c766572000000000000000000000000000000000000000000000000000081525060029080519060200190610f6a92919061152b565b5060086000815480929190610f7e90611dc4565b91905055508092505050611078565b6064600754101561100a57600190506040518060400160405280600481526020017f476f6c640000000000000000000000000000000000000000000000000000000081525060029080519060200190610fe792919061152b565b5060076000815480929190610ffb90611dc4565b91905055508092505050611078565b600090506040518060400160405280600781526020017f4469616d6f6e64000000000000000000000000000000000000000000000000008152506002908051906020019061105992919061152b565b506006600081548092919061106d90611dc4565b919050555080925050505b90565b600073ffffffffffffffffffffffffffffffffffffffff168473ffffffffffffffffffffffffffffffffffffffff1614156110eb576040517f08c379a00000000000000000000000000000000000000000000000000000000081526004016110e290611b1d565b60405180910390fd5b60006110f5610d5e565b905061111681600087611107886112af565b611110886112af565b87611329565b8260008086815260200190815260200160002060008773ffffffffffffffffffffffffffffffffffffffff1673ffffffffffffffffffffffffffffffffffffffff16815260200190815260200160002060008282546111759190611c45565b925050819055508473ffffffffffffffffffffffffffffffffffffffff16600073ffffffffffffffffffffffffffffffffffffffff168273ffffffffffffffffffffffffffffffffffffffff167fc3d58168c5ae7397731d063d5bbf3d657854427343f4c083240f7aacaa2d0f6287876040516111f3929190611b88565b60405180910390a461120a81600087878787611331565b5050505050565b80600a60008473ffffffffffffffffffffffffffffffffffffffff1673ffffffffffffffffffffffffffffffffffffffff16815260200190815260200160002060008282546112609190611c45565b925050819055505050565b600080600a423360405160200161128392919061191f565b6040516020818303038152906040528051906020012060001c6112a69190611e3b565b90508091505090565b60606000600167ffffffffffffffff8111156112ce576112cd611f28565b5b6040519080825280602002602001820160405280156112fc5781602001602082028036833780820191505090505b509050828160008151811061131457611313611ef9565b5b60200260200101818152505080915050919050565b505050505050565b6113508473ffffffffffffffffffffffffffffffffffffffff16611518565b15611510578373ffffffffffffffffffffffffffffffffffffffff1663f23a6e6187878686866040518663ffffffff1660e01b8152600401611396959493929190611966565b602060405180830381600087803b1580156113b057600080fd5b505af19250505080156113e157506040513d601f19601f820116820180604052508101906113de919061167c565b60015b611487576113ed611f57565b806308c379a0141561144a57506114026121b5565b8061140d575061144c565b806040517f08c379a000000000000000000000000000000000000000000000000000000000815260040161144191906119db565b60405180910390fd5b505b6040517f08c379a000000000000000000000000000000000000000000000000000000000815260040161147e906119fd565b60405180910390fd5b63f23a6e6160e01b7bffffffffffffffffffffffffffffffffffffffffffffffffffffffff1916817bffffffffffffffffffffffffffffffffffffffffffffffffffffffff19161461150e576040517f08c379a000000000000000000000000000000000000000000000000000000000815260040161150590611a1d565b60405180910390fd5b505b505050505050565b600080823b905060008111915050919050565b82805461153790611d61565b90600052602060002090601f01602090048101928261155957600085556115a0565b82601f1061157257805160ff19168380011785556115a0565b828001600101855582156115a0579182015b8281111561159f578251825591602001919060010190611584565b5b5090506115ad91906115b1565b5090565b5b808211156115ca5760008160009055506001016115b2565b5090565b6000813590506115dd8161224b565b92915050565b6000813590506115f281612262565b92915050565b60008151905061160781612279565b92915050565b60008135905061161c81612290565b92915050565b60006020828403121561163857611637611f79565b5b6000611646848285016115ce565b91505092915050565b60006020828403121561166557611664611f79565b5b6000611673848285016115e3565b91505092915050565b60006020828403121561169257611691611f79565b5b60006116a0848285016115f8565b91505092915050565b6000602082840312156116bf576116be611f79565b5b60006116cd8482850161160d565b91505092915050565b6116df81611cad565b82525050565b6116ee81611c9b565b82525050565b61170561170082611c9b565b611e0d565b82525050565b61171481611cbf565b82525050565b600061172582611c0d565b61172f8185611c23565b935061173f818560208601611d2e565b61174881611f7e565b840191505092915050565b600061175e82611c18565b6117688185611c34565b9350611778818560208601611d2e565b61178181611f7e565b840191505092915050565b6000611799603483611c34565b91506117a482611fa9565b604082019050919050565b60006117bc602883611c34565b91506117c782611ff8565b604082019050919050565b60006117df601983611c34565b91506117ea82612047565b602082019050919050565b6000611802601b83611c34565b915061180d82612070565b602082019050919050565b6000611825601b83611c34565b915061183082612099565b602082019050919050565b6000611848601c83611c34565b9150611853826120c2565b602082019050919050565b600061186b601b83611c34565b9150611876826120eb565b602082019050919050565b600061188e601983611c34565b915061189982612114565b602082019050919050565b60006118b1601d83611c34565b91506118bc8261213d565b602082019050919050565b60006118d4602183611c34565b91506118df82612166565b604082019050919050565b6118f381611d17565b82525050565b61190a61190582611d17565b611e31565b82525050565b61191981611d21565b82525050565b600061192b82856118f9565b60208201915061193b82846116f4565b6014820191508190509392505050565b600060208201905061196060008301846116d6565b92915050565b600060a08201905061197b60008301886116e5565b61198860208301876116e5565b61199560408301866118ea565b6119a260608301856118ea565b81810360808301526119b4818461171a565b90509695505050505050565b60006020820190506119d5600083018461170b565b92915050565b600060208201905081810360008301526119f58184611753565b905092915050565b60006020820190508181036000830152611a168161178c565b9050919050565b60006020820190508181036000830152611a36816117af565b9050919050565b60006020820190508181036000830152611a56816117d2565b9050919050565b60006020820190508181036000830152611a76816117f5565b9050919050565b60006020820190508181036000830152611a9681611818565b9050919050565b60006020820190508181036000830152611ab68161183b565b9050919050565b60006020820190508181036000830152611ad68161185e565b9050919050565b60006020820190508181036000830152611af681611881565b9050919050565b60006020820190508181036000830152611b16816118a4565b9050919050565b60006020820190508181036000830152611b36816118c7565b9050919050565b6000602082019050611b5260008301846118ea565b92915050565b6000604082019050611b6d60008301856118ea565b8181036020830152611b7f8184611753565b90509392505050565b6000604082019050611b9d60008301856118ea565b611baa60208301846118ea565b9392505050565b6000606082019050611bc660008301866118ea565b611bd360208301856118ea565b611be060408301846118ea565b949350505050565b6000602082019050611bfd6000830184611910565b92915050565b6000604051905090565b600081519050919050565b600081519050919050565b600082825260208201905092915050565b600082825260208201905092915050565b6000611c5082611d17565b9150611c5b83611d17565b9250827fffffffffffffffffffffffffffffffffffffffffffffffffffffffffffffffff03821115611c9057611c8f611e6c565b5b828201905092915050565b6000611ca682611cf7565b9050919050565b6000611cb882611cf7565b9050919050565b60008115159050919050565b60007fffffffff0000000000000000000000000000000000000000000000000000000082169050919050565b600073ffffffffffffffffffffffffffffffffffffffff82169050919050565b6000819050919050565b600060ff82169050919050565b60005b83811015611d4c578082015181840152602081019050611d31565b83811115611d5b576000848401525b50505050565b60006002820490506001821680611d7957607f821691505b60208210811415611d8d57611d8c611eca565b5b50919050565b611d9c82611f7e565b810181811067ffffffffffffffff82111715611dbb57611dba611f28565b5b80604052505050565b6000611dcf82611d17565b91507fffffffffffffffffffffffffffffffffffffffffffffffffffffffffffffffff821415611e0257611e01611e6c565b5b600182019050919050565b6000611e1882611e1f565b9050919050565b6000611e2a82611f8f565b9050919050565b6000819050919050565b6000611e4682611d17565b9150611e5183611d17565b925082611e6157611e60611e9b565b5b828206905092915050565b7f4e487b7100000000000000000000000000000000000000000000000000000000600052601160045260246000fd5b7f4e487b7100000000000000000000000000000000000000000000000000000000600052601260045260246000fd5b7f4e487b7100000000000000000000000000000000000000000000000000000000600052602260045260246000fd5b7f4e487b7100000000000000000000000000000000000000000000000000000000600052603260045260246000fd5b7f4e487b7100000000000000000000000000000000000000000000000000000000600052604160045260246000fd5b600060033d1115611f765760046000803e611f73600051611f9c565b90505b90565b600080fd5b6000601f19601f8301169050919050565b60008160601b9050919050565b60008160e01c9050919050565b7f455243313135353a207472616e7366657220746f206e6f6e204552433131353560008201527f526563656976657220696d706c656d656e746572000000000000000000000000602082015250565b7f455243313135353a204552433131353552656365697665722072656a6563746560008201527f6420746f6b656e73000000000000000000000000000000000000000000000000602082015250565b7f42616c616e6365206d757374206265203235204d617469637300000000000000600082015250565b7f44726f707369746520697320616c72656164792052756e6e696e670000000000600082015250565b7f44726f707369746520697320616c72656164792053746f707065640000000000600082015250565b7f4f6e6c79204e46542d4553204f776e65722063616e2041636365737300000000600082015250565b7f44726f7073697465206973206e6f74204f70656e6564205965742e0000000000600082015250565b7f4d6178204d696e74696e67204c696d6974207265616368656400000000000000600082015250565b7f4572726f7221204e6f2042616c616e636520746f207769746864726177000000600082015250565b7f455243313135353a206d696e7420746f20746865207a65726f2061646472657360008201527f7300000000000000000000000000000000000000000000000000000000000000602082015250565b600060443d10156121c557612248565b6121cd611c03565b60043d036004823e80513d602482011167ffffffffffffffff821117156121f5575050612248565b808201805167ffffffffffffffff8111156122135750505050612248565b80602083010160043d038501811115612230575050505050612248565b61223f82602001850186611d93565b82955050505050505b90565b61225481611c9b565b811461225f57600080fd5b50565b61226b81611cad565b811461227657600080fd5b50565b61228281611ccb565b811461228d57600080fd5b50565b61229981611d17565b81146122a457600080fd5b5056fea264697066735822122077216474b74f2f2f87b3c7f3a168e0410737a50a2c23f83d3a8e6dd469f9398564736f6c63430008070033",
					"opcodes": "PUSH1 0x80 PUSH1 0x40 MSTORE PUSH1 0x40 MLOAD DUP1 PUSH1 0x20 ADD PUSH1 0x40 MSTORE DUP1 PUSH1 0x0 DUP2 MSTORE POP PUSH1 0x2 SWAP1 DUP1 MLOAD SWAP1 PUSH1 0x20 ADD SWAP1 PUSH3 0x2B SWAP3 SWAP2 SWAP1 PUSH3 0x184 JUMP JUMPDEST POP PUSH1 0x40 MLOAD DUP1 PUSH2 0x140 ADD PUSH1 0x40 MSTORE DUP1 PUSH1 0x0 PUSH1 0xFF AND DUP2 MSTORE PUSH1 0x20 ADD PUSH1 0x1 PUSH1 0xFF AND DUP2 MSTORE PUSH1 0x20 ADD PUSH1 0x1 PUSH1 0xFF AND DUP2 MSTORE PUSH1 0x20 ADD PUSH1 0x1 PUSH1 0xFF AND DUP2 MSTORE PUSH1 0x20 ADD PUSH1 0x2 PUSH1 0xFF AND DUP2 MSTORE PUSH1 0x20 ADD PUSH1 0x2 PUSH1 0xFF AND DUP2 MSTORE PUSH1 0x20 ADD PUSH1 0x2 PUSH1 0xFF AND DUP2 MSTORE PUSH1 0x20 ADD PUSH1 0x2 PUSH1 0xFF AND DUP2 MSTORE PUSH1 0x20 ADD PUSH1 0x2 PUSH1 0xFF AND DUP2 MSTORE PUSH1 0x20 ADD PUSH1 0x2 PUSH1 0xFF AND DUP2 MSTORE POP PUSH1 0x3 SWAP1 PUSH1 0xA PUSH3 0xAC SWAP3 SWAP2 SWAP1 PUSH3 0x215 JUMP JUMPDEST POP PUSH1 0x1 PUSH1 0xB PUSH1 0x0 PUSH2 0x100 EXP DUP2 SLOAD DUP2 PUSH1 0xFF MUL NOT AND SWAP1 DUP4 ISZERO ISZERO MUL OR SWAP1 SSTORE POP CALLVALUE DUP1 ISZERO PUSH3 0xD5 JUMPI PUSH1 0x0 DUP1 REVERT JUMPDEST POP PUSH1 0x40 MLOAD PUSH3 0x28A6 CODESIZE SUB DUP1 PUSH3 0x28A6 DUP4 CODECOPY DUP2 DUP2 ADD PUSH1 0x40 MSTORE DUP2 ADD SWAP1 PUSH3 0xFB SWAP2 SWAP1 PUSH3 0x3E4 JUMP JUMPDEST DUP1 PUSH1 0xC SWAP1 DUP1 MLOAD SWAP1 PUSH1 0x20 ADD SWAP1 PUSH3 0x113 SWAP3 SWAP2 SWAP1 PUSH3 0x2B6 JUMP JUMPDEST POP CALLER PUSH1 0xB PUSH1 0x1 PUSH2 0x100 EXP DUP2 SLOAD DUP2 PUSH20 0xFFFFFFFFFFFFFFFFFFFFFFFFFFFFFFFFFFFFFFFF MUL NOT AND SWAP1 DUP4 PUSH20 0xFFFFFFFFFFFFFFFFFFFFFFFFFFFFFFFFFFFFFFFF AND MUL OR SWAP1 SSTORE POP PUSH1 0x0 PUSH1 0x4 DUP2 SWAP1 SSTORE POP PUSH1 0x1 PUSH1 0x5 DUP2 SWAP1 SSTORE POP PUSH1 0x0 PUSH1 0x6 DUP2 SWAP1 SSTORE POP PUSH1 0x0 PUSH1 0x7 DUP2 SWAP1 SSTORE POP PUSH1 0x0 PUSH1 0x8 DUP2 SWAP1 SSTORE POP POP PUSH3 0x5B9 JUMP JUMPDEST DUP3 DUP1 SLOAD PUSH3 0x192 SWAP1 PUSH3 0x4CA JUMP JUMPDEST SWAP1 PUSH1 0x0 MSTORE PUSH1 0x20 PUSH1 0x0 KECCAK256 SWAP1 PUSH1 0x1F ADD PUSH1 0x20 SWAP1 DIV DUP2 ADD SWAP3 DUP3 PUSH3 0x1B6 JUMPI PUSH1 0x0 DUP6 SSTORE PUSH3 0x202 JUMP JUMPDEST DUP3 PUSH1 0x1F LT PUSH3 0x1D1 JUMPI DUP1 MLOAD PUSH1 0xFF NOT AND DUP4 DUP1 ADD OR DUP6 SSTORE PUSH3 0x202 JUMP JUMPDEST DUP3 DUP1 ADD PUSH1 0x1 ADD DUP6 SSTORE DUP3 ISZERO PUSH3 0x202 JUMPI SWAP2 DUP3 ADD JUMPDEST DUP3 DUP2 GT ISZERO PUSH3 0x201 JUMPI DUP3 MLOAD DUP3 SSTORE SWAP2 PUSH1 0x20 ADD SWAP2 SWAP1 PUSH1 0x1 ADD SWAP1 PUSH3 0x1E4 JUMP JUMPDEST JUMPDEST POP SWAP1 POP PUSH3 0x211 SWAP2 SWAP1 PUSH3 0x347 JUMP JUMPDEST POP SWAP1 JUMP JUMPDEST DUP3 PUSH1 0xA PUSH1 0x1F ADD PUSH1 0x20 SWAP1 DIV DUP2 ADD SWAP3 DUP3 ISZERO PUSH3 0x2A3 JUMPI SWAP2 PUSH1 0x20 MUL DUP3 ADD PUSH1 0x0 JUMPDEST DUP4 DUP3 GT ISZERO PUSH3 0x272 JUMPI DUP4 MLOAD DUP4 DUP3 PUSH2 0x100 EXP DUP2 SLOAD DUP2 PUSH1 0xFF MUL NOT AND SWAP1 DUP4 PUSH1 0xFF AND MUL OR SWAP1 SSTORE POP SWAP3 PUSH1 0x20 ADD SWAP3 PUSH1 0x1 ADD PUSH1 0x20 DUP2 PUSH1 0x0 ADD DIV SWAP3 DUP4 ADD SWAP3 PUSH1 0x1 SUB MUL PUSH3 0x232 JUMP JUMPDEST DUP1 ISZERO PUSH3 0x2A1 JUMPI DUP3 DUP2 PUSH2 0x100 EXP DUP2 SLOAD SWAP1 PUSH1 0xFF MUL NOT AND SWAP1 SSTORE PUSH1 0x1 ADD PUSH1 0x20 DUP2 PUSH1 0x0 ADD DIV SWAP3 DUP4 ADD SWAP3 PUSH1 0x1 SUB MUL PUSH3 0x272 JUMP JUMPDEST POP JUMPDEST POP SWAP1 POP PUSH3 0x2B2 SWAP2 SWAP1 PUSH3 0x347 JUMP JUMPDEST POP SWAP1 JUMP JUMPDEST DUP3 DUP1 SLOAD PUSH3 0x2C4 SWAP1 PUSH3 0x4CA JUMP JUMPDEST SWAP1 PUSH1 0x0 MSTORE PUSH1 0x20 PUSH1 0x0 KECCAK256 SWAP1 PUSH1 0x1F ADD PUSH1 0x20 SWAP1 DIV DUP2 ADD SWAP3 DUP3 PUSH3 0x2E8 JUMPI PUSH1 0x0 DUP6 SSTORE PUSH3 0x334 JUMP JUMPDEST DUP3 PUSH1 0x1F LT PUSH3 0x303 JUMPI DUP1 MLOAD PUSH1 0xFF NOT AND DUP4 DUP1 ADD OR DUP6 SSTORE PUSH3 0x334 JUMP JUMPDEST DUP3 DUP1 ADD PUSH1 0x1 ADD DUP6 SSTORE DUP3 ISZERO PUSH3 0x334 JUMPI SWAP2 DUP3 ADD JUMPDEST DUP3 DUP2 GT ISZERO PUSH3 0x333 JUMPI DUP3 MLOAD DUP3 SSTORE SWAP2 PUSH1 0x20 ADD SWAP2 SWAP1 PUSH1 0x1 ADD SWAP1 PUSH3 0x316 JUMP JUMPDEST JUMPDEST POP SWAP1 POP PUSH3 0x343 SWAP2 SWAP1 PUSH3 0x347 JUMP JUMPDEST POP SWAP1 JUMP JUMPDEST JUMPDEST DUP1 DUP3 GT ISZERO PUSH3 0x362 JUMPI PUSH1 0x0 DUP2 PUSH1 0x0 SWAP1 SSTORE POP PUSH1 0x1 ADD PUSH3 0x348 JUMP JUMPDEST POP SWAP1 JUMP JUMPDEST PUSH1 0x0 PUSH3 0x37D PUSH3 0x377 DUP5 PUSH3 0x45E JUMP JUMPDEST PUSH3 0x435 JUMP JUMPDEST SWAP1 POP DUP3 DUP2 MSTORE PUSH1 0x20 DUP2 ADD DUP5 DUP5 DUP5 ADD GT ISZERO PUSH3 0x39C JUMPI PUSH3 0x39B PUSH3 0x599 JUMP JUMPDEST JUMPDEST PUSH3 0x3A9 DUP5 DUP3 DUP6 PUSH3 0x494 JUMP JUMPDEST POP SWAP4 SWAP3 POP POP POP JUMP JUMPDEST PUSH1 0x0 DUP3 PUSH1 0x1F DUP4 ADD SLT PUSH3 0x3C9 JUMPI PUSH3 0x3C8 PUSH3 0x594 JUMP JUMPDEST JUMPDEST DUP2 MLOAD PUSH3 0x3DB DUP5 DUP3 PUSH1 0x20 DUP7 ADD PUSH3 0x366 JUMP JUMPDEST SWAP2 POP POP SWAP3 SWAP2 POP POP JUMP JUMPDEST PUSH1 0x0 PUSH1 0x20 DUP3 DUP5 SUB SLT ISZERO PUSH3 0x3FD JUMPI PUSH3 0x3FC PUSH3 0x5A3 JUMP JUMPDEST JUMPDEST PUSH1 0x0 DUP3 ADD MLOAD PUSH8 0xFFFFFFFFFFFFFFFF DUP2 GT ISZERO PUSH3 0x41E JUMPI PUSH3 0x41D PUSH3 0x59E JUMP JUMPDEST JUMPDEST PUSH3 0x42C DUP5 DUP3 DUP6 ADD PUSH3 0x3B1 JUMP JUMPDEST SWAP2 POP POP SWAP3 SWAP2 POP POP JUMP JUMPDEST PUSH1 0x0 PUSH3 0x441 PUSH3 0x454 JUMP JUMPDEST SWAP1 POP PUSH3 0x44F DUP3 DUP3 PUSH3 0x500 JUMP JUMPDEST SWAP2 SWAP1 POP JUMP JUMPDEST PUSH1 0x0 PUSH1 0x40 MLOAD SWAP1 POP SWAP1 JUMP JUMPDEST PUSH1 0x0 PUSH8 0xFFFFFFFFFFFFFFFF DUP3 GT ISZERO PUSH3 0x47C JUMPI PUSH3 0x47B PUSH3 0x565 JUMP JUMPDEST JUMPDEST PUSH3 0x487 DUP3 PUSH3 0x5A8 JUMP JUMPDEST SWAP1 POP PUSH1 0x20 DUP2 ADD SWAP1 POP SWAP2 SWAP1 POP JUMP JUMPDEST PUSH1 0x0 JUMPDEST DUP4 DUP2 LT ISZERO PUSH3 0x4B4 JUMPI DUP1 DUP3 ADD MLOAD DUP2 DUP5 ADD MSTORE PUSH1 0x20 DUP2 ADD SWAP1 POP PUSH3 0x497 JUMP JUMPDEST DUP4 DUP2 GT ISZERO PUSH3 0x4C4 JUMPI PUSH1 0x0 DUP5 DUP5 ADD MSTORE JUMPDEST POP POP POP POP JUMP JUMPDEST PUSH1 0x0 PUSH1 0x2 DUP3 DIV SWAP1 POP PUSH1 0x1 DUP3 AND DUP1 PUSH3 0x4E3 JUMPI PUSH1 0x7F DUP3 AND SWAP2 POP JUMPDEST PUSH1 0x20 DUP3 LT DUP2 EQ ISZERO PUSH3 0x4FA JUMPI PUSH3 0x4F9 PUSH3 0x536 JUMP JUMPDEST JUMPDEST POP SWAP2 SWAP1 POP JUMP JUMPDEST PUSH3 0x50B DUP3 PUSH3 0x5A8 JUMP JUMPDEST DUP2 ADD DUP2 DUP2 LT PUSH8 0xFFFFFFFFFFFFFFFF DUP3 GT OR ISZERO PUSH3 0x52D JUMPI PUSH3 0x52C PUSH3 0x565 JUMP JUMPDEST JUMPDEST DUP1 PUSH1 0x40 MSTORE POP POP POP JUMP JUMPDEST PUSH32 0x4E487B7100000000000000000000000000000000000000000000000000000000 PUSH1 0x0 MSTORE PUSH1 0x22 PUSH1 0x4 MSTORE PUSH1 0x24 PUSH1 0x0 REVERT JUMPDEST PUSH32 0x4E487B7100000000000000000000000000000000000000000000000000000000 PUSH1 0x0 MSTORE PUSH1 0x41 PUSH1 0x4 MSTORE PUSH1 0x24 PUSH1 0x0 REVERT JUMPDEST PUSH1 0x0 DUP1 REVERT JUMPDEST PUSH1 0x0 DUP1 REVERT JUMPDEST PUSH1 0x0 DUP1 REVERT JUMPDEST PUSH1 0x0 DUP1 REVERT JUMPDEST PUSH1 0x0 PUSH1 0x1F NOT PUSH1 0x1F DUP4 ADD AND SWAP1 POP SWAP2 SWAP1 POP JUMP JUMPDEST PUSH2 0x22DD DUP1 PUSH3 0x5C9 PUSH1 0x0 CODECOPY PUSH1 0x0 RETURN INVALID PUSH1 0x80 PUSH1 0x40 MSTORE PUSH1 0x4 CALLDATASIZE LT PUSH2 0x9C JUMPI PUSH1 0x0 CALLDATALOAD PUSH1 0xE0 SHR DUP1 PUSH4 0x3B668059 GT PUSH2 0x64 JUMPI DUP1 PUSH4 0x3B668059 EQ PUSH2 0x168 JUMPI DUP1 PUSH4 0x3D65DF70 EQ PUSH2 0x193 JUMPI DUP1 PUSH4 0x60DAA851 EQ PUSH2 0x1C4 JUMPI DUP1 PUSH4 0xAA90C726 EQ PUSH2 0x1F1 JUMPI DUP1 PUSH4 0xB4A99A4E EQ PUSH2 0x208 JUMPI DUP1 PUSH4 0xFD1EE54C EQ PUSH2 0x233 JUMPI PUSH2 0x9C JUMP JUMPDEST DUP1 PUSH4 0x390C11C EQ PUSH2 0xA1 JUMPI DUP1 PUSH4 0xA67D2C7 EQ PUSH2 0xCC JUMPI DUP1 PUSH4 0x1309A563 EQ PUSH2 0xE8 JUMPI DUP1 PUSH4 0x15460259 EQ PUSH2 0x113 JUMPI DUP1 PUSH4 0x32B61B4C EQ PUSH2 0x12A JUMPI JUMPDEST PUSH1 0x0 DUP1 REVERT JUMPDEST CALLVALUE DUP1 ISZERO PUSH2 0xAD JUMPI PUSH1 0x0 DUP1 REVERT JUMPDEST POP PUSH2 0xB6 PUSH2 0x270 JUMP JUMPDEST PUSH1 0x40 MLOAD PUSH2 0xC3 SWAP2 SWAP1 PUSH2 0x1B3D JUMP JUMPDEST PUSH1 0x40 MLOAD DUP1 SWAP2 SUB SWAP1 RETURN JUMPDEST PUSH2 0xE6 PUSH1 0x4 DUP1 CALLDATASIZE SUB DUP2 ADD SWAP1 PUSH2 0xE1 SWAP2 SWAP1 PUSH2 0x164F JUMP JUMPDEST PUSH2 0x311 JUMP JUMPDEST STOP JUMPDEST CALLVALUE DUP1 ISZERO PUSH2 0xF4 JUMPI PUSH1 0x0 DUP1 REVERT JUMPDEST POP PUSH2 0xFD PUSH2 0x43B JUMP JUMPDEST PUSH1 0x40 MLOAD PUSH2 0x10A SWAP2 SWAP1 PUSH2 0x19C0 JUMP JUMPDEST PUSH1 0x40 MLOAD DUP1 SWAP2 SUB SWAP1 RETURN JUMPDEST CALLVALUE DUP1 ISZERO PUSH2 0x11F JUMPI PUSH1 0x0 DUP1 REVERT JUMPDEST POP PUSH2 0x128 PUSH2 0x44E JUMP JUMPDEST STOP JUMPDEST CALLVALUE DUP1 ISZERO PUSH2 0x136 JUMPI PUSH1 0x0 DUP1 REVERT JUMPDEST POP PUSH2 0x151 PUSH1 0x4 DUP1 CALLDATASIZE SUB DUP2 ADD SWAP1 PUSH2 0x14C SWAP2 SWAP1 PUSH2 0x1622 JUMP JUMPDEST PUSH2 0x558 JUMP JUMPDEST PUSH1 0x40 MLOAD PUSH2 0x15F SWAP3 SWAP2 SWAP1 PUSH2 0x1B58 JUMP JUMPDEST PUSH1 0x40 MLOAD DUP1 SWAP2 SUB SWAP1 RETURN JUMPDEST CALLVALUE DUP1 ISZERO PUSH2 0x174 JUMPI PUSH1 0x0 DUP1 REVERT JUMPDEST POP PUSH2 0x17D PUSH2 0x828 JUMP JUMPDEST PUSH1 0x40 MLOAD PUSH2 0x18A SWAP2 SWAP1 PUSH2 0x1B3D JUMP JUMPDEST PUSH1 0x40 MLOAD DUP1 SWAP2 SUB SWAP1 RETURN JUMPDEST PUSH2 0x1AD PUSH1 0x4 DUP1 CALLDATASIZE SUB DUP2 ADD SWAP1 PUSH2 0x1A8 SWAP2 SWAP1 PUSH2 0x1622 JUMP JUMPDEST PUSH2 0x8C7 JUMP JUMPDEST PUSH1 0x40 MLOAD PUSH2 0x1BB SWAP3 SWAP2 SWAP1 PUSH2 0x1B58 JUMP JUMPDEST PUSH1 0x40 MLOAD DUP1 SWAP2 SUB SWAP1 RETURN JUMPDEST CALLVALUE DUP1 ISZERO PUSH2 0x1D0 JUMPI PUSH1 0x0 DUP1 REVERT JUMPDEST POP PUSH2 0x1D9 PUSH2 0xB54 JUMP JUMPDEST PUSH1 0x40 MLOAD PUSH2 0x1E8 SWAP4 SWAP3 SWAP2 SWAP1 PUSH2 0x1BB1 JUMP JUMPDEST PUSH1 0x40 MLOAD DUP1 SWAP2 SUB SWAP1 RETURN JUMPDEST CALLVALUE DUP1 ISZERO PUSH2 0x1FD JUMPI PUSH1 0x0 DUP1 REVERT JUMPDEST POP PUSH2 0x206 PUSH2 0xC04 JUMP JUMPDEST STOP JUMPDEST CALLVALUE DUP1 ISZERO PUSH2 0x214 JUMPI PUSH1 0x0 DUP1 REVERT JUMPDEST POP PUSH2 0x21D PUSH2 0xD0E JUMP JUMPDEST PUSH1 0x40 MLOAD PUSH2 0x22A SWAP2 SWAP1 PUSH2 0x194B JUMP JUMPDEST PUSH1 0x40 MLOAD DUP1 SWAP2 SUB SWAP1 RETURN JUMPDEST CALLVALUE DUP1 ISZERO PUSH2 0x23F JUMPI PUSH1 0x0 DUP1 REVERT JUMPDEST POP PUSH2 0x25A PUSH1 0x4 DUP1 CALLDATASIZE SUB DUP2 ADD SWAP1 PUSH2 0x255 SWAP2 SWAP1 PUSH2 0x16A9 JUMP JUMPDEST PUSH2 0xD34 JUMP JUMPDEST PUSH1 0x40 MLOAD PUSH2 0x267 SWAP2 SWAP1 PUSH2 0x1BE8 JUMP JUMPDEST PUSH1 0x40 MLOAD DUP1 SWAP2 SUB SWAP1 RETURN JUMPDEST PUSH1 0x0 PUSH1 0xB PUSH1 0x1 SWAP1 SLOAD SWAP1 PUSH2 0x100 EXP SWAP1 DIV PUSH20 0xFFFFFFFFFFFFFFFFFFFFFFFFFFFFFFFFFFFFFFFF AND PUSH20 0xFFFFFFFFFFFFFFFFFFFFFFFFFFFFFFFFFFFFFFFF AND PUSH2 0x2B3 PUSH2 0xD5E JUMP JUMPDEST PUSH20 0xFFFFFFFFFFFFFFFFFFFFFFFFFFFFFFFFFFFFFFFF AND EQ PUSH2 0x309 JUMPI PUSH1 0x40 MLOAD PUSH32 0x8C379A000000000000000000000000000000000000000000000000000000000 DUP2 MSTORE PUSH1 0x4 ADD PUSH2 0x300 SWAP1 PUSH2 0x1A9D JUMP JUMPDEST PUSH1 0x40 MLOAD DUP1 SWAP2 SUB SWAP1 REVERT JUMPDEST PUSH1 0x4 SLOAD SWAP1 POP SWAP1 JUMP JUMPDEST PUSH1 0xB PUSH1 0x1 SWAP1 SLOAD SWAP1 PUSH2 0x100 EXP SWAP1 DIV PUSH20 0xFFFFFFFFFFFFFFFFFFFFFFFFFFFFFFFFFFFFFFFF AND PUSH20 0xFFFFFFFFFFFFFFFFFFFFFFFFFFFFFFFFFFFFFFFF AND PUSH2 0x352 PUSH2 0xD5E JUMP JUMPDEST PUSH20 0xFFFFFFFFFFFFFFFFFFFFFFFFFFFFFFFFFFFFFFFF AND EQ PUSH2 0x3A8 JUMPI PUSH1 0x40 MLOAD PUSH32 0x8C379A000000000000000000000000000000000000000000000000000000000 DUP2 MSTORE PUSH1 0x4 ADD PUSH2 0x39F SWAP1 PUSH2 0x1A9D JUMP JUMPDEST PUSH1 0x40 MLOAD DUP1 SWAP2 SUB SWAP1 REVERT JUMPDEST PUSH1 0x0 SELFBALANCE SWAP1 POP PUSH1 0x0 DUP2 GT PUSH2 0x3F0 JUMPI PUSH1 0x40 MLOAD PUSH32 0x8C379A000000000000000000000000000000000000000000000000000000000 DUP2 MSTORE PUSH1 0x4 ADD PUSH2 0x3E7 SWAP1 PUSH2 0x1AFD JUMP JUMPDEST PUSH1 0x40 MLOAD DUP1 SWAP2 SUB SWAP1 REVERT JUMPDEST DUP2 PUSH20 0xFFFFFFFFFFFFFFFFFFFFFFFFFFFFFFFFFFFFFFFF AND PUSH2 0x8FC DUP3 SWAP1 DUP2 ISZERO MUL SWAP1 PUSH1 0x40 MLOAD PUSH1 0x0 PUSH1 0x40 MLOAD DUP1 DUP4 SUB DUP2 DUP6 DUP9 DUP9 CALL SWAP4 POP POP POP POP ISZERO DUP1 ISZERO PUSH2 0x436 JUMPI RETURNDATASIZE PUSH1 0x0 DUP1 RETURNDATACOPY RETURNDATASIZE PUSH1 0x0 REVERT JUMPDEST POP POP POP JUMP JUMPDEST PUSH1 0xB PUSH1 0x0 SWAP1 SLOAD SWAP1 PUSH2 0x100 EXP SWAP1 DIV PUSH1 0xFF AND DUP2 JUMP JUMPDEST PUSH1 0xB PUSH1 0x1 SWAP1 SLOAD SWAP1 PUSH2 0x100 EXP SWAP1 DIV PUSH20 0xFFFFFFFFFFFFFFFFFFFFFFFFFFFFFFFFFFFFFFFF AND PUSH20 0xFFFFFFFFFFFFFFFFFFFFFFFFFFFFFFFFFFFFFFFF AND PUSH2 0x48F PUSH2 0xD5E JUMP JUMPDEST PUSH20 0xFFFFFFFFFFFFFFFFFFFFFFFFFFFFFFFFFFFFFFFF AND EQ PUSH2 0x4E5 JUMPI PUSH1 0x40 MLOAD PUSH32 0x8C379A000000000000000000000000000000000000000000000000000000000 DUP2 MSTORE PUSH1 0x4 ADD PUSH2 0x4DC SWAP1 PUSH2 0x1A9D JUMP JUMPDEST PUSH1 0x40 MLOAD DUP1 SWAP2 SUB SWAP1 REVERT JUMPDEST PUSH1 0x1 ISZERO ISZERO PUSH1 0xB PUSH1 0x0 SWAP1 SLOAD SWAP1 PUSH2 0x100 EXP SWAP1 DIV PUSH1 0xFF AND ISZERO ISZERO EQ PUSH2 0x53B JUMPI PUSH1 0x40 MLOAD PUSH32 0x8C379A000000000000000000000000000000000000000000000000000000000 DUP2 MSTORE PUSH1 0x4 ADD PUSH2 0x532 SWAP1 PUSH2 0x1A5D JUMP JUMPDEST PUSH1 0x40 MLOAD DUP1 SWAP2 SUB SWAP1 REVERT JUMPDEST PUSH1 0x0 PUSH1 0xB PUSH1 0x0 PUSH2 0x100 EXP DUP2 SLOAD DUP2 PUSH1 0xFF MUL NOT AND SWAP1 DUP4 ISZERO ISZERO MUL OR SWAP1 SSTORE POP JUMP JUMPDEST PUSH1 0x0 PUSH1 0x60 PUSH1 0xB PUSH1 0x1 SWAP1 SLOAD SWAP1 PUSH2 0x100 EXP SWAP1 DIV PUSH20 0xFFFFFFFFFFFFFFFFFFFFFFFFFFFFFFFFFFFFFFFF AND PUSH20 0xFFFFFFFFFFFFFFFFFFFFFFFFFFFFFFFFFFFFFFFF AND PUSH2 0x59D PUSH2 0xD5E JUMP JUMPDEST PUSH20 0xFFFFFFFFFFFFFFFFFFFFFFFFFFFFFFFFFFFFFFFF AND EQ PUSH2 0x5F3 JUMPI PUSH1 0x40 MLOAD PUSH32 0x8C379A000000000000000000000000000000000000000000000000000000000 DUP2 MSTORE PUSH1 0x4 ADD PUSH2 0x5EA SWAP1 PUSH2 0x1A9D JUMP JUMPDEST PUSH1 0x40 MLOAD DUP1 SWAP2 SUB SWAP1 REVERT JUMPDEST PUSH1 0x0 ISZERO ISZERO PUSH1 0xB PUSH1 0x0 SWAP1 SLOAD SWAP1 PUSH2 0x100 EXP SWAP1 DIV PUSH1 0xFF AND ISZERO ISZERO EQ PUSH2 0x649 JUMPI PUSH1 0x40 MLOAD PUSH32 0x8C379A000000000000000000000000000000000000000000000000000000000 DUP2 MSTORE PUSH1 0x4 ADD PUSH2 0x640 SWAP1 PUSH2 0x1ABD JUMP JUMPDEST PUSH1 0x40 MLOAD DUP1 SWAP2 SUB SWAP1 REVERT JUMPDEST PUSH2 0x3E8 PUSH1 0x4 SLOAD LT PUSH2 0x68F JUMPI PUSH1 0x40 MLOAD PUSH32 0x8C379A000000000000000000000000000000000000000000000000000000000 DUP2 MSTORE PUSH1 0x4 ADD PUSH2 0x686 SWAP1 PUSH2 0x1ADD JUMP JUMPDEST PUSH1 0x40 MLOAD DUP1 SWAP2 SUB SWAP1 REVERT JUMPDEST PUSH1 0x0 PUSH2 0x699 PUSH2 0xD66 JUMP JUMPDEST SWAP1 POP PUSH2 0x733 DUP5 DUP3 PUSH1 0x5 SLOAD PUSH1 0x2 DUP1 SLOAD PUSH2 0x6B0 SWAP1 PUSH2 0x1D61 JUMP JUMPDEST DUP1 PUSH1 0x1F ADD PUSH1 0x20 DUP1 SWAP2 DIV MUL PUSH1 0x20 ADD PUSH1 0x40 MLOAD SWAP1 DUP2 ADD PUSH1 0x40 MSTORE DUP1 SWAP3 SWAP2 SWAP1 DUP2 DUP2 MSTORE PUSH1 0x20 ADD DUP3 DUP1 SLOAD PUSH2 0x6DC SWAP1 PUSH2 0x1D61 JUMP JUMPDEST DUP1 ISZERO PUSH2 0x729 JUMPI DUP1 PUSH1 0x1F LT PUSH2 0x6FE JUMPI PUSH2 0x100 DUP1 DUP4 SLOAD DIV MUL DUP4 MSTORE SWAP2 PUSH1 0x20 ADD SWAP2 PUSH2 0x729 JUMP JUMPDEST DUP3 ADD SWAP2 SWAP1 PUSH1 0x0 MSTORE PUSH1 0x20 PUSH1 0x0 KECCAK256 SWAP1 JUMPDEST DUP2 SLOAD DUP2 MSTORE SWAP1 PUSH1 0x1 ADD SWAP1 PUSH1 0x20 ADD DUP1 DUP4 GT PUSH2 0x70C JUMPI DUP3 SWAP1 SUB PUSH1 0x1F AND DUP3 ADD SWAP2 JUMPDEST POP POP POP POP POP PUSH2 0x107B JUMP JUMPDEST PUSH1 0x4 PUSH1 0x0 DUP2 SLOAD DUP1 SWAP3 SWAP2 SWAP1 PUSH2 0x746 SWAP1 PUSH2 0x1DC4 JUMP JUMPDEST SWAP2 SWAP1 POP SSTORE POP DUP1 PUSH1 0x9 PUSH1 0x0 DUP7 PUSH20 0xFFFFFFFFFFFFFFFFFFFFFFFFFFFFFFFFFFFFFFFF AND PUSH20 0xFFFFFFFFFFFFFFFFFFFFFFFFFFFFFFFFFFFFFFFF AND DUP2 MSTORE PUSH1 0x20 ADD SWAP1 DUP2 MSTORE PUSH1 0x20 ADD PUSH1 0x0 KECCAK256 DUP2 SWAP1 SSTORE POP DUP1 PUSH1 0x2 DUP1 DUP1 SLOAD PUSH2 0x79E SWAP1 PUSH2 0x1D61 JUMP JUMPDEST DUP1 PUSH1 0x1F ADD PUSH1 0x20 DUP1 SWAP2 DIV MUL PUSH1 0x20 ADD PUSH1 0x40 MLOAD SWAP1 DUP2 ADD PUSH1 0x40 MSTORE DUP1 SWAP3 SWAP2 SWAP1 DUP2 DUP2 MSTORE PUSH1 0x20 ADD DUP3 DUP1 SLOAD PUSH2 0x7CA SWAP1 PUSH2 0x1D61 JUMP JUMPDEST DUP1 ISZERO PUSH2 0x817 JUMPI DUP1 PUSH1 0x1F LT PUSH2 0x7EC JUMPI PUSH2 0x100 DUP1 DUP4 SLOAD DIV MUL DUP4 MSTORE SWAP2 PUSH1 0x20 ADD SWAP2 PUSH2 0x817 JUMP JUMPDEST DUP3 ADD SWAP2 SWAP1 PUSH1 0x0 MSTORE PUSH1 0x20 PUSH1 0x0 KECCAK256 SWAP1 JUMPDEST DUP2 SLOAD DUP2 MSTORE SWAP1 PUSH1 0x1 ADD SWAP1 PUSH1 0x20 ADD DUP1 DUP4 GT PUSH2 0x7FA JUMPI DUP3 SWAP1 SUB PUSH1 0x1F AND DUP3 ADD SWAP2 JUMPDEST POP POP POP POP POP SWAP1 POP SWAP3 POP SWAP3 POP POP SWAP2 POP SWAP2 JUMP JUMPDEST PUSH1 0x0 PUSH1 0xB PUSH1 0x1 SWAP1 SLOAD SWAP1 PUSH2 0x100 EXP SWAP1 DIV PUSH20 0xFFFFFFFFFFFFFFFFFFFFFFFFFFFFFFFFFFFFFFFF AND PUSH20 0xFFFFFFFFFFFFFFFFFFFFFFFFFFFFFFFFFFFFFFFF AND PUSH2 0x86B PUSH2 0xD5E JUMP JUMPDEST PUSH20 0xFFFFFFFFFFFFFFFFFFFFFFFFFFFFFFFFFFFFFFFF AND EQ PUSH2 0x8C1 JUMPI PUSH1 0x40 MLOAD PUSH32 0x8C379A000000000000000000000000000000000000000000000000000000000 DUP2 MSTORE PUSH1 0x4 ADD PUSH2 0x8B8 SWAP1 PUSH2 0x1A9D JUMP JUMPDEST PUSH1 0x40 MLOAD DUP1 SWAP2 SUB SWAP1 REVERT JUMPDEST SELFBALANCE SWAP1 POP SWAP1 JUMP JUMPDEST PUSH1 0x0 PUSH1 0x60 PUSH1 0x0 ISZERO ISZERO PUSH1 0xB PUSH1 0x0 SWAP1 SLOAD SWAP1 PUSH2 0x100 EXP SWAP1 DIV PUSH1 0xFF AND ISZERO ISZERO EQ PUSH2 0x921 JUMPI PUSH1 0x40 MLOAD PUSH32 0x8C379A000000000000000000000000000000000000000000000000000000000 DUP2 MSTORE PUSH1 0x4 ADD PUSH2 0x918 SWAP1 PUSH2 0x1ABD JUMP JUMPDEST PUSH1 0x40 MLOAD DUP1 SWAP2 SUB SWAP1 REVERT JUMPDEST PUSH2 0x3E8 PUSH1 0x4 SLOAD LT PUSH2 0x967 JUMPI PUSH1 0x40 MLOAD PUSH32 0x8C379A000000000000000000000000000000000000000000000000000000000 DUP2 MSTORE PUSH1 0x4 ADD PUSH2 0x95E SWAP1 PUSH2 0x1ADD JUMP JUMPDEST PUSH1 0x40 MLOAD DUP1 SWAP2 SUB SWAP1 REVERT JUMPDEST PUSH1 0x19 CALLVALUE EQ PUSH2 0x9AA JUMPI PUSH1 0x40 MLOAD PUSH32 0x8C379A000000000000000000000000000000000000000000000000000000000 DUP2 MSTORE PUSH1 0x4 ADD PUSH2 0x9A1 SWAP1 PUSH2 0x1A3D JUMP JUMPDEST PUSH1 0x40 MLOAD DUP1 SWAP2 SUB SWAP1 REVERT JUMPDEST PUSH1 0x0 PUSH2 0x9B4 PUSH2 0xD66 JUMP JUMPDEST SWAP1 POP PUSH2 0xA4E DUP5 DUP3 PUSH1 0x5 SLOAD PUSH1 0x2 DUP1 SLOAD PUSH2 0x9CB SWAP1 PUSH2 0x1D61 JUMP JUMPDEST DUP1 PUSH1 0x1F ADD PUSH1 0x20 DUP1 SWAP2 DIV MUL PUSH1 0x20 ADD PUSH1 0x40 MLOAD SWAP1 DUP2 ADD PUSH1 0x40 MSTORE DUP1 SWAP3 SWAP2 SWAP1 DUP2 DUP2 MSTORE PUSH1 0x20 ADD DUP3 DUP1 SLOAD PUSH2 0x9F7 SWAP1 PUSH2 0x1D61 JUMP JUMPDEST DUP1 ISZERO PUSH2 0xA44 JUMPI DUP1 PUSH1 0x1F LT PUSH2 0xA19 JUMPI PUSH2 0x100 DUP1 DUP4 SLOAD DIV MUL DUP4 MSTORE SWAP2 PUSH1 0x20 ADD SWAP2 PUSH2 0xA44 JUMP JUMPDEST DUP3 ADD SWAP2 SWAP1 PUSH1 0x0 MSTORE PUSH1 0x20 PUSH1 0x0 KECCAK256 SWAP1 JUMPDEST DUP2 SLOAD DUP2 MSTORE SWAP1 PUSH1 0x1 ADD SWAP1 PUSH1 0x20 ADD DUP1 DUP4 GT PUSH2 0xA27 JUMPI DUP3 SWAP1 SUB PUSH1 0x1F AND DUP3 ADD SWAP2 JUMPDEST POP POP POP POP POP PUSH2 0x107B JUMP JUMPDEST PUSH2 0xA5F PUSH2 0xA59 PUSH2 0xD5E JUMP JUMPDEST CALLVALUE PUSH2 0x1211 JUMP JUMPDEST PUSH1 0x4 PUSH1 0x0 DUP2 SLOAD DUP1 SWAP3 SWAP2 SWAP1 PUSH2 0xA72 SWAP1 PUSH2 0x1DC4 JUMP JUMPDEST SWAP2 SWAP1 POP SSTORE POP DUP1 PUSH1 0x9 PUSH1 0x0 DUP7 PUSH20 0xFFFFFFFFFFFFFFFFFFFFFFFFFFFFFFFFFFFFFFFF AND PUSH20 0xFFFFFFFFFFFFFFFFFFFFFFFFFFFFFFFFFFFFFFFF AND DUP2 MSTORE PUSH1 0x20 ADD SWAP1 DUP2 MSTORE PUSH1 0x20 ADD PUSH1 0x0 KECCAK256 DUP2 SWAP1 SSTORE POP DUP1 PUSH1 0x2 DUP1 DUP1 SLOAD PUSH2 0xACA SWAP1 PUSH2 0x1D61 JUMP JUMPDEST DUP1 PUSH1 0x1F ADD PUSH1 0x20 DUP1 SWAP2 DIV MUL PUSH1 0x20 ADD PUSH1 0x40 MLOAD SWAP1 DUP2 ADD PUSH1 0x40 MSTORE DUP1 SWAP3 SWAP2 SWAP1 DUP2 DUP2 MSTORE PUSH1 0x20 ADD DUP3 DUP1 SLOAD PUSH2 0xAF6 SWAP1 PUSH2 0x1D61 JUMP JUMPDEST DUP1 ISZERO PUSH2 0xB43 JUMPI DUP1 PUSH1 0x1F LT PUSH2 0xB18 JUMPI PUSH2 0x100 DUP1 DUP4 SLOAD DIV MUL DUP4 MSTORE SWAP2 PUSH1 0x20 ADD SWAP2 PUSH2 0xB43 JUMP JUMPDEST DUP3 ADD SWAP2 SWAP1 PUSH1 0x0 MSTORE PUSH1 0x20 PUSH1 0x0 KECCAK256 SWAP1 JUMPDEST DUP2 SLOAD DUP2 MSTORE SWAP1 PUSH1 0x1 ADD SWAP1 PUSH1 0x20 ADD DUP1 DUP4 GT PUSH2 0xB26 JUMPI DUP3 SWAP1 SUB PUSH1 0x1F AND DUP3 ADD SWAP2 JUMPDEST POP POP POP POP POP SWAP1 POP SWAP3 POP SWAP3 POP POP SWAP2 POP SWAP2 JUMP JUMPDEST PUSH1 0x0 DUP1 PUSH1 0x0 PUSH1 0xB PUSH1 0x1 SWAP1 SLOAD SWAP1 PUSH2 0x100 EXP SWAP1 DIV PUSH20 0xFFFFFFFFFFFFFFFFFFFFFFFFFFFFFFFFFFFFFFFF AND PUSH20 0xFFFFFFFFFFFFFFFFFFFFFFFFFFFFFFFFFFFFFFFF AND PUSH2 0xB9A PUSH2 0xD5E JUMP JUMPDEST PUSH20 0xFFFFFFFFFFFFFFFFFFFFFFFFFFFFFFFFFFFFFFFF AND EQ PUSH2 0xBF0 JUMPI PUSH1 0x40 MLOAD PUSH32 0x8C379A000000000000000000000000000000000000000000000000000000000 DUP2 MSTORE PUSH1 0x4 ADD PUSH2 0xBE7 SWAP1 PUSH2 0x1A9D JUMP JUMPDEST PUSH1 0x40 MLOAD DUP1 SWAP2 SUB SWAP1 REVERT JUMPDEST PUSH1 0x6 SLOAD PUSH1 0x7 SLOAD PUSH1 0x8 SLOAD SWAP3 POP SWAP3 POP SWAP3 POP SWAP1 SWAP2 SWAP3 JUMP JUMPDEST PUSH1 0xB PUSH1 0x1 SWAP1 SLOAD SWAP1 PUSH2 0x100 EXP SWAP1 DIV PUSH20 0xFFFFFFFFFFFFFFFFFFFFFFFFFFFFFFFFFFFFFFFF AND PUSH20 0xFFFFFFFFFFFFFFFFFFFFFFFFFFFFFFFFFFFFFFFF AND PUSH2 0xC45 PUSH2 0xD5E JUMP JUMPDEST PUSH20 0xFFFFFFFFFFFFFFFFFFFFFFFFFFFFFFFFFFFFFFFF AND EQ PUSH2 0xC9B JUMPI PUSH1 0x40 MLOAD PUSH32 0x8C379A000000000000000000000000000000000000000000000000000000000 DUP2 MSTORE PUSH1 0x4 ADD PUSH2 0xC92 SWAP1 PUSH2 0x1A9D JUMP JUMPDEST PUSH1 0x40 MLOAD DUP1 SWAP2 SUB SWAP1 REVERT JUMPDEST PUSH1 0x0 ISZERO ISZERO PUSH1 0xB PUSH1 0x0 SWAP1 SLOAD SWAP1 PUSH2 0x100 EXP SWAP1 DIV PUSH1 0xFF AND ISZERO ISZERO EQ PUSH2 0xCF1 JUMPI PUSH1 0x40 MLOAD PUSH32 0x8C379A000000000000000000000000000000000000000000000000000000000 DUP2 MSTORE PUSH1 0x4 ADD PUSH2 0xCE8 SWAP1 PUSH2 0x1A7D JUMP JUMPDEST PUSH1 0x40 MLOAD DUP1 SWAP2 SUB SWAP1 REVERT JUMPDEST PUSH1 0x1 PUSH1 0xB PUSH1 0x0 PUSH2 0x100 EXP DUP2 SLOAD DUP2 PUSH1 0xFF MUL NOT AND SWAP1 DUP4 ISZERO ISZERO MUL OR SWAP1 SSTORE POP JUMP JUMPDEST PUSH1 0xB PUSH1 0x1 SWAP1 SLOAD SWAP1 PUSH2 0x100 EXP SWAP1 DIV PUSH20 0xFFFFFFFFFFFFFFFFFFFFFFFFFFFFFFFFFFFFFFFF AND DUP2 JUMP JUMPDEST PUSH1 0x3 DUP2 PUSH1 0xA DUP2 LT PUSH2 0xD44 JUMPI PUSH1 0x0 DUP1 REVERT JUMPDEST PUSH1 0x20 SWAP2 DUP3 DUP3 DIV ADD SWAP2 SWAP1 MOD SWAP2 POP SLOAD SWAP1 PUSH2 0x100 EXP SWAP1 DIV PUSH1 0xFF AND DUP2 JUMP JUMPDEST PUSH1 0x0 CALLER SWAP1 POP SWAP1 JUMP JUMPDEST PUSH1 0x0 DUP1 ISZERO ISZERO PUSH1 0xB PUSH1 0x0 SWAP1 SLOAD SWAP1 PUSH2 0x100 EXP SWAP1 DIV PUSH1 0xFF AND ISZERO ISZERO EQ PUSH2 0xDBD JUMPI PUSH1 0x40 MLOAD PUSH32 0x8C379A000000000000000000000000000000000000000000000000000000000 DUP2 MSTORE PUSH1 0x4 ADD PUSH2 0xDB4 SWAP1 PUSH2 0x1ABD JUMP JUMPDEST PUSH1 0x40 MLOAD DUP1 SWAP2 SUB SWAP1 REVERT JUMPDEST PUSH1 0x0 PUSH2 0xDC7 PUSH2 0x126B JUMP JUMPDEST SWAP1 POP PUSH1 0x0 PUSH1 0x3 DUP3 PUSH1 0xA DUP2 LT PUSH2 0xDDF JUMPI PUSH2 0xDDE PUSH2 0x1EF9 JUMP JUMPDEST JUMPDEST PUSH1 0x20 SWAP2 DUP3 DUP3 DIV ADD SWAP2 SWAP1 MOD SWAP1 SLOAD SWAP1 PUSH2 0x100 EXP SWAP1 DIV PUSH1 0xFF AND PUSH1 0xFF AND SWAP1 POP PUSH1 0x0 DUP2 EQ DUP1 ISZERO PUSH2 0xE0C JUMPI POP PUSH1 0x32 PUSH1 0x6 SLOAD LT JUMPDEST ISZERO PUSH2 0xE7F JUMPI PUSH1 0x40 MLOAD DUP1 PUSH1 0x40 ADD PUSH1 0x40 MSTORE DUP1 PUSH1 0x7 DUP2 MSTORE PUSH1 0x20 ADD PUSH32 0x4469616D6F6E6400000000000000000000000000000000000000000000000000 DUP2 MSTORE POP PUSH1 0x2 SWAP1 DUP1 MLOAD SWAP1 PUSH1 0x20 ADD SWAP1 PUSH2 0xE5C SWAP3 SWAP2 SWAP1 PUSH2 0x152B JUMP JUMPDEST POP PUSH1 0x6 PUSH1 0x0 DUP2 SLOAD DUP1 SWAP3 SWAP2 SWAP1 PUSH2 0xE70 SWAP1 PUSH2 0x1DC4 JUMP JUMPDEST SWAP2 SWAP1 POP SSTORE POP DUP1 SWAP3 POP POP POP PUSH2 0x1078 JUMP JUMPDEST PUSH1 0x1 DUP2 GT ISZERO DUP1 ISZERO PUSH2 0xE92 JUMPI POP PUSH1 0x64 PUSH1 0x7 SLOAD LT JUMPDEST ISZERO PUSH2 0xF05 JUMPI PUSH1 0x40 MLOAD DUP1 PUSH1 0x40 ADD PUSH1 0x40 MSTORE DUP1 PUSH1 0x4 DUP2 MSTORE PUSH1 0x20 ADD PUSH32 0x476F6C6400000000000000000000000000000000000000000000000000000000 DUP2 MSTORE POP PUSH1 0x2 SWAP1 DUP1 MLOAD SWAP1 PUSH1 0x20 ADD SWAP1 PUSH2 0xEE2 SWAP3 SWAP2 SWAP1 PUSH2 0x152B JUMP JUMPDEST POP PUSH1 0x7 PUSH1 0x0 DUP2 SLOAD DUP1 SWAP3 SWAP2 SWAP1 PUSH2 0xEF6 SWAP1 PUSH2 0x1DC4 JUMP JUMPDEST SWAP2 SWAP1 POP SSTORE POP DUP1 SWAP3 POP POP POP PUSH2 0x1078 JUMP JUMPDEST PUSH1 0x2 DUP2 GT ISZERO DUP1 ISZERO PUSH2 0xF1A JUMPI POP PUSH2 0x352 PUSH1 0x8 SLOAD GT ISZERO JUMPDEST ISZERO PUSH2 0xF8D JUMPI PUSH1 0x40 MLOAD DUP1 PUSH1 0x40 ADD PUSH1 0x40 MSTORE DUP1 PUSH1 0x6 DUP2 MSTORE PUSH1 0x20 ADD PUSH32 0x53696C7665720000000000000000000000000000000000000000000000000000 DUP2 MSTORE POP PUSH1 0x2 SWAP1 DUP1 MLOAD SWAP1 PUSH1 0x20 ADD SWAP1 PUSH2 0xF6A SWAP3 SWAP2 SWAP1 PUSH2 0x152B JUMP JUMPDEST POP PUSH1 0x8 PUSH1 0x0 DUP2 SLOAD DUP1 SWAP3 SWAP2 SWAP1 PUSH2 0xF7E SWAP1 PUSH2 0x1DC4 JUMP JUMPDEST SWAP2 SWAP1 POP SSTORE POP DUP1 SWAP3 POP POP POP PUSH2 0x1078 JUMP JUMPDEST PUSH1 0x64 PUSH1 0x7 SLOAD LT ISZERO PUSH2 0x100A JUMPI PUSH1 0x1 SWAP1 POP PUSH1 0x40 MLOAD DUP1 PUSH1 0x40 ADD PUSH1 0x40 MSTORE DUP1 PUSH1 0x4 DUP2 MSTORE PUSH1 0x20 ADD PUSH32 0x476F6C6400000000000000000000000000000000000000000000000000000000 DUP2 MSTORE POP PUSH1 0x2 SWAP1 DUP1 MLOAD SWAP1 PUSH1 0x20 ADD SWAP1 PUSH2 0xFE7 SWAP3 SWAP2 SWAP1 PUSH2 0x152B JUMP JUMPDEST POP PUSH1 0x7 PUSH1 0x0 DUP2 SLOAD DUP1 SWAP3 SWAP2 SWAP1 PUSH2 0xFFB SWAP1 PUSH2 0x1DC4 JUMP JUMPDEST SWAP2 SWAP1 POP SSTORE POP DUP1 SWAP3 POP POP POP PUSH2 0x1078 JUMP JUMPDEST PUSH1 0x0 SWAP1 POP PUSH1 0x40 MLOAD DUP1 PUSH1 0x40 ADD PUSH1 0x40 MSTORE DUP1 PUSH1 0x7 DUP2 MSTORE PUSH1 0x20 ADD PUSH32 0x4469616D6F6E6400000000000000000000000000000000000000000000000000 DUP2 MSTORE POP PUSH1 0x2 SWAP1 DUP1 MLOAD SWAP1 PUSH1 0x20 ADD SWAP1 PUSH2 0x1059 SWAP3 SWAP2 SWAP1 PUSH2 0x152B JUMP JUMPDEST POP PUSH1 0x6 PUSH1 0x0 DUP2 SLOAD DUP1 SWAP3 SWAP2 SWAP1 PUSH2 0x106D SWAP1 PUSH2 0x1DC4 JUMP JUMPDEST SWAP2 SWAP1 POP SSTORE POP DUP1 SWAP3 POP POP POP JUMPDEST SWAP1 JUMP JUMPDEST PUSH1 0x0 PUSH20 0xFFFFFFFFFFFFFFFFFFFFFFFFFFFFFFFFFFFFFFFF AND DUP5 PUSH20 0xFFFFFFFFFFFFFFFFFFFFFFFFFFFFFFFFFFFFFFFF AND EQ ISZERO PUSH2 0x10EB JUMPI PUSH1 0x40 MLOAD PUSH32 0x8C379A000000000000000000000000000000000000000000000000000000000 DUP2 MSTORE PUSH1 0x4 ADD PUSH2 0x10E2 SWAP1 PUSH2 0x1B1D JUMP JUMPDEST PUSH1 0x40 MLOAD DUP1 SWAP2 SUB SWAP1 REVERT JUMPDEST PUSH1 0x0 PUSH2 0x10F5 PUSH2 0xD5E JUMP JUMPDEST SWAP1 POP PUSH2 0x1116 DUP2 PUSH1 0x0 DUP8 PUSH2 0x1107 DUP9 PUSH2 0x12AF JUMP JUMPDEST PUSH2 0x1110 DUP9 PUSH2 0x12AF JUMP JUMPDEST DUP8 PUSH2 0x1329 JUMP JUMPDEST DUP3 PUSH1 0x0 DUP1 DUP7 DUP2 MSTORE PUSH1 0x20 ADD SWAP1 DUP2 MSTORE PUSH1 0x20 ADD PUSH1 0x0 KECCAK256 PUSH1 0x0 DUP8 PUSH20 0xFFFFFFFFFFFFFFFFFFFFFFFFFFFFFFFFFFFFFFFF AND PUSH20 0xFFFFFFFFFFFFFFFFFFFFFFFFFFFFFFFFFFFFFFFF AND DUP2 MSTORE PUSH1 0x20 ADD SWAP1 DUP2 MSTORE PUSH1 0x20 ADD PUSH1 0x0 KECCAK256 PUSH1 0x0 DUP3 DUP3 SLOAD PUSH2 0x1175 SWAP2 SWAP1 PUSH2 0x1C45 JUMP JUMPDEST SWAP3 POP POP DUP2 SWAP1 SSTORE POP DUP5 PUSH20 0xFFFFFFFFFFFFFFFFFFFFFFFFFFFFFFFFFFFFFFFF AND PUSH1 0x0 PUSH20 0xFFFFFFFFFFFFFFFFFFFFFFFFFFFFFFFFFFFFFFFF AND DUP3 PUSH20 0xFFFFFFFFFFFFFFFFFFFFFFFFFFFFFFFFFFFFFFFF AND PUSH32 0xC3D58168C5AE7397731D063D5BBF3D657854427343F4C083240F7AACAA2D0F62 DUP8 DUP8 PUSH1 0x40 MLOAD PUSH2 0x11F3 SWAP3 SWAP2 SWAP1 PUSH2 0x1B88 JUMP JUMPDEST PUSH1 0x40 MLOAD DUP1 SWAP2 SUB SWAP1 LOG4 PUSH2 0x120A DUP2 PUSH1 0x0 DUP8 DUP8 DUP8 DUP8 PUSH2 0x1331 JUMP JUMPDEST POP POP POP POP POP JUMP JUMPDEST DUP1 PUSH1 0xA PUSH1 0x0 DUP5 PUSH20 0xFFFFFFFFFFFFFFFFFFFFFFFFFFFFFFFFFFFFFFFF AND PUSH20 0xFFFFFFFFFFFFFFFFFFFFFFFFFFFFFFFFFFFFFFFF AND DUP2 MSTORE PUSH1 0x20 ADD SWAP1 DUP2 MSTORE PUSH1 0x20 ADD PUSH1 0x0 KECCAK256 PUSH1 0x0 DUP3 DUP3 SLOAD PUSH2 0x1260 SWAP2 SWAP1 PUSH2 0x1C45 JUMP JUMPDEST SWAP3 POP POP DUP2 SWAP1 SSTORE POP POP POP JUMP JUMPDEST PUSH1 0x0 DUP1 PUSH1 0xA TIMESTAMP CALLER PUSH1 0x40 MLOAD PUSH1 0x20 ADD PUSH2 0x1283 SWAP3 SWAP2 SWAP1 PUSH2 0x191F JUMP JUMPDEST PUSH1 0x40 MLOAD PUSH1 0x20 DUP2 DUP4 SUB SUB DUP2 MSTORE SWAP1 PUSH1 0x40 MSTORE DUP1 MLOAD SWAP1 PUSH1 0x20 ADD KECCAK256 PUSH1 0x0 SHR PUSH2 0x12A6 SWAP2 SWAP1 PUSH2 0x1E3B JUMP JUMPDEST SWAP1 POP DUP1 SWAP2 POP POP SWAP1 JUMP JUMPDEST PUSH1 0x60 PUSH1 0x0 PUSH1 0x1 PUSH8 0xFFFFFFFFFFFFFFFF DUP2 GT ISZERO PUSH2 0x12CE JUMPI PUSH2 0x12CD PUSH2 0x1F28 JUMP JUMPDEST JUMPDEST PUSH1 0x40 MLOAD SWAP1 DUP1 DUP3 MSTORE DUP1 PUSH1 0x20 MUL PUSH1 0x20 ADD DUP3 ADD PUSH1 0x40 MSTORE DUP1 ISZERO PUSH2 0x12FC JUMPI DUP2 PUSH1 0x20 ADD PUSH1 0x20 DUP3 MUL DUP1 CALLDATASIZE DUP4 CALLDATACOPY DUP1 DUP3 ADD SWAP2 POP POP SWAP1 POP JUMPDEST POP SWAP1 POP DUP3 DUP2 PUSH1 0x0 DUP2 MLOAD DUP2 LT PUSH2 0x1314 JUMPI PUSH2 0x1313 PUSH2 0x1EF9 JUMP JUMPDEST JUMPDEST PUSH1 0x20 MUL PUSH1 0x20 ADD ADD DUP2 DUP2 MSTORE POP POP DUP1 SWAP2 POP POP SWAP2 SWAP1 POP JUMP JUMPDEST POP POP POP POP POP POP JUMP JUMPDEST PUSH2 0x1350 DUP5 PUSH20 0xFFFFFFFFFFFFFFFFFFFFFFFFFFFFFFFFFFFFFFFF AND PUSH2 0x1518 JUMP JUMPDEST ISZERO PUSH2 0x1510 JUMPI DUP4 PUSH20 0xFFFFFFFFFFFFFFFFFFFFFFFFFFFFFFFFFFFFFFFF AND PUSH4 0xF23A6E61 DUP8 DUP8 DUP7 DUP7 DUP7 PUSH1 0x40 MLOAD DUP7 PUSH4 0xFFFFFFFF AND PUSH1 0xE0 SHL DUP2 MSTORE PUSH1 0x4 ADD PUSH2 0x1396 SWAP6 SWAP5 SWAP4 SWAP3 SWAP2 SWAP1 PUSH2 0x1966 JUMP JUMPDEST PUSH1 0x20 PUSH1 0x40 MLOAD DUP1 DUP4 SUB DUP2 PUSH1 0x0 DUP8 DUP1 EXTCODESIZE ISZERO DUP1 ISZERO PUSH2 0x13B0 JUMPI PUSH1 0x0 DUP1 REVERT JUMPDEST POP GAS CALL SWAP3 POP POP POP DUP1 ISZERO PUSH2 0x13E1 JUMPI POP PUSH1 0x40 MLOAD RETURNDATASIZE PUSH1 0x1F NOT PUSH1 0x1F DUP3 ADD AND DUP3 ADD DUP1 PUSH1 0x40 MSTORE POP DUP2 ADD SWAP1 PUSH2 0x13DE SWAP2 SWAP1 PUSH2 0x167C JUMP JUMPDEST PUSH1 0x1 JUMPDEST PUSH2 0x1487 JUMPI PUSH2 0x13ED PUSH2 0x1F57 JUMP JUMPDEST DUP1 PUSH4 0x8C379A0 EQ ISZERO PUSH2 0x144A JUMPI POP PUSH2 0x1402 PUSH2 0x21B5 JUMP JUMPDEST DUP1 PUSH2 0x140D JUMPI POP PUSH2 0x144C JUMP JUMPDEST DUP1 PUSH1 0x40 MLOAD PUSH32 0x8C379A000000000000000000000000000000000000000000000000000000000 DUP2 MSTORE PUSH1 0x4 ADD PUSH2 0x1441 SWAP2 SWAP1 PUSH2 0x19DB JUMP JUMPDEST PUSH1 0x40 MLOAD DUP1 SWAP2 SUB SWAP1 REVERT JUMPDEST POP JUMPDEST PUSH1 0x40 MLOAD PUSH32 0x8C379A000000000000000000000000000000000000000000000000000000000 DUP2 MSTORE PUSH1 0x4 ADD PUSH2 0x147E SWAP1 PUSH2 0x19FD JUMP JUMPDEST PUSH1 0x40 MLOAD DUP1 SWAP2 SUB SWAP1 REVERT JUMPDEST PUSH4 0xF23A6E61 PUSH1 0xE0 SHL PUSH28 0xFFFFFFFFFFFFFFFFFFFFFFFFFFFFFFFFFFFFFFFFFFFFFFFFFFFFFFFF NOT AND DUP2 PUSH28 0xFFFFFFFFFFFFFFFFFFFFFFFFFFFFFFFFFFFFFFFFFFFFFFFFFFFFFFFF NOT AND EQ PUSH2 0x150E JUMPI PUSH1 0x40 MLOAD PUSH32 0x8C379A000000000000000000000000000000000000000000000000000000000 DUP2 MSTORE PUSH1 0x4 ADD PUSH2 0x1505 SWAP1 PUSH2 0x1A1D JUMP JUMPDEST PUSH1 0x40 MLOAD DUP1 SWAP2 SUB SWAP1 REVERT JUMPDEST POP JUMPDEST POP POP POP POP POP POP JUMP JUMPDEST PUSH1 0x0 DUP1 DUP3 EXTCODESIZE SWAP1 POP PUSH1 0x0 DUP2 GT SWAP2 POP POP SWAP2 SWAP1 POP JUMP JUMPDEST DUP3 DUP1 SLOAD PUSH2 0x1537 SWAP1 PUSH2 0x1D61 JUMP JUMPDEST SWAP1 PUSH1 0x0 MSTORE PUSH1 0x20 PUSH1 0x0 KECCAK256 SWAP1 PUSH1 0x1F ADD PUSH1 0x20 SWAP1 DIV DUP2 ADD SWAP3 DUP3 PUSH2 0x1559 JUMPI PUSH1 0x0 DUP6 SSTORE PUSH2 0x15A0 JUMP JUMPDEST DUP3 PUSH1 0x1F LT PUSH2 0x1572 JUMPI DUP1 MLOAD PUSH1 0xFF NOT AND DUP4 DUP1 ADD OR DUP6 SSTORE PUSH2 0x15A0 JUMP JUMPDEST DUP3 DUP1 ADD PUSH1 0x1 ADD DUP6 SSTORE DUP3 ISZERO PUSH2 0x15A0 JUMPI SWAP2 DUP3 ADD JUMPDEST DUP3 DUP2 GT ISZERO PUSH2 0x159F JUMPI DUP3 MLOAD DUP3 SSTORE SWAP2 PUSH1 0x20 ADD SWAP2 SWAP1 PUSH1 0x1 ADD SWAP1 PUSH2 0x1584 JUMP JUMPDEST JUMPDEST POP SWAP1 POP PUSH2 0x15AD SWAP2 SWAP1 PUSH2 0x15B1 JUMP JUMPDEST POP SWAP1 JUMP JUMPDEST JUMPDEST DUP1 DUP3 GT ISZERO PUSH2 0x15CA JUMPI PUSH1 0x0 DUP2 PUSH1 0x0 SWAP1 SSTORE POP PUSH1 0x1 ADD PUSH2 0x15B2 JUMP JUMPDEST POP SWAP1 JUMP JUMPDEST PUSH1 0x0 DUP2 CALLDATALOAD SWAP1 POP PUSH2 0x15DD DUP2 PUSH2 0x224B JUMP JUMPDEST SWAP3 SWAP2 POP POP JUMP JUMPDEST PUSH1 0x0 DUP2 CALLDATALOAD SWAP1 POP PUSH2 0x15F2 DUP2 PUSH2 0x2262 JUMP JUMPDEST SWAP3 SWAP2 POP POP JUMP JUMPDEST PUSH1 0x0 DUP2 MLOAD SWAP1 POP PUSH2 0x1607 DUP2 PUSH2 0x2279 JUMP JUMPDEST SWAP3 SWAP2 POP POP JUMP JUMPDEST PUSH1 0x0 DUP2 CALLDATALOAD SWAP1 POP PUSH2 0x161C DUP2 PUSH2 0x2290 JUMP JUMPDEST SWAP3 SWAP2 POP POP JUMP JUMPDEST PUSH1 0x0 PUSH1 0x20 DUP3 DUP5 SUB SLT ISZERO PUSH2 0x1638 JUMPI PUSH2 0x1637 PUSH2 0x1F79 JUMP JUMPDEST JUMPDEST PUSH1 0x0 PUSH2 0x1646 DUP5 DUP3 DUP6 ADD PUSH2 0x15CE JUMP JUMPDEST SWAP2 POP POP SWAP3 SWAP2 POP POP JUMP JUMPDEST PUSH1 0x0 PUSH1 0x20 DUP3 DUP5 SUB SLT ISZERO PUSH2 0x1665 JUMPI PUSH2 0x1664 PUSH2 0x1F79 JUMP JUMPDEST JUMPDEST PUSH1 0x0 PUSH2 0x1673 DUP5 DUP3 DUP6 ADD PUSH2 0x15E3 JUMP JUMPDEST SWAP2 POP POP SWAP3 SWAP2 POP POP JUMP JUMPDEST PUSH1 0x0 PUSH1 0x20 DUP3 DUP5 SUB SLT ISZERO PUSH2 0x1692 JUMPI PUSH2 0x1691 PUSH2 0x1F79 JUMP JUMPDEST JUMPDEST PUSH1 0x0 PUSH2 0x16A0 DUP5 DUP3 DUP6 ADD PUSH2 0x15F8 JUMP JUMPDEST SWAP2 POP POP SWAP3 SWAP2 POP POP JUMP JUMPDEST PUSH1 0x0 PUSH1 0x20 DUP3 DUP5 SUB SLT ISZERO PUSH2 0x16BF JUMPI PUSH2 0x16BE PUSH2 0x1F79 JUMP JUMPDEST JUMPDEST PUSH1 0x0 PUSH2 0x16CD DUP5 DUP3 DUP6 ADD PUSH2 0x160D JUMP JUMPDEST SWAP2 POP POP SWAP3 SWAP2 POP POP JUMP JUMPDEST PUSH2 0x16DF DUP2 PUSH2 0x1CAD JUMP JUMPDEST DUP3 MSTORE POP POP JUMP JUMPDEST PUSH2 0x16EE DUP2 PUSH2 0x1C9B JUMP JUMPDEST DUP3 MSTORE POP POP JUMP JUMPDEST PUSH2 0x1705 PUSH2 0x1700 DUP3 PUSH2 0x1C9B JUMP JUMPDEST PUSH2 0x1E0D JUMP JUMPDEST DUP3 MSTORE POP POP JUMP JUMPDEST PUSH2 0x1714 DUP2 PUSH2 0x1CBF JUMP JUMPDEST DUP3 MSTORE POP POP JUMP JUMPDEST PUSH1 0x0 PUSH2 0x1725 DUP3 PUSH2 0x1C0D JUMP JUMPDEST PUSH2 0x172F DUP2 DUP6 PUSH2 0x1C23 JUMP JUMPDEST SWAP4 POP PUSH2 0x173F DUP2 DUP6 PUSH1 0x20 DUP7 ADD PUSH2 0x1D2E JUMP JUMPDEST PUSH2 0x1748 DUP2 PUSH2 0x1F7E JUMP JUMPDEST DUP5 ADD SWAP2 POP POP SWAP3 SWAP2 POP POP JUMP JUMPDEST PUSH1 0x0 PUSH2 0x175E DUP3 PUSH2 0x1C18 JUMP JUMPDEST PUSH2 0x1768 DUP2 DUP6 PUSH2 0x1C34 JUMP JUMPDEST SWAP4 POP PUSH2 0x1778 DUP2 DUP6 PUSH1 0x20 DUP7 ADD PUSH2 0x1D2E JUMP JUMPDEST PUSH2 0x1781 DUP2 PUSH2 0x1F7E JUMP JUMPDEST DUP5 ADD SWAP2 POP POP SWAP3 SWAP2 POP POP JUMP JUMPDEST PUSH1 0x0 PUSH2 0x1799 PUSH1 0x34 DUP4 PUSH2 0x1C34 JUMP JUMPDEST SWAP2 POP PUSH2 0x17A4 DUP3 PUSH2 0x1FA9 JUMP JUMPDEST PUSH1 0x40 DUP3 ADD SWAP1 POP SWAP2 SWAP1 POP JUMP JUMPDEST PUSH1 0x0 PUSH2 0x17BC PUSH1 0x28 DUP4 PUSH2 0x1C34 JUMP JUMPDEST SWAP2 POP PUSH2 0x17C7 DUP3 PUSH2 0x1FF8 JUMP JUMPDEST PUSH1 0x40 DUP3 ADD SWAP1 POP SWAP2 SWAP1 POP JUMP JUMPDEST PUSH1 0x0 PUSH2 0x17DF PUSH1 0x19 DUP4 PUSH2 0x1C34 JUMP JUMPDEST SWAP2 POP PUSH2 0x17EA DUP3 PUSH2 0x2047 JUMP JUMPDEST PUSH1 0x20 DUP3 ADD SWAP1 POP SWAP2 SWAP1 POP JUMP JUMPDEST PUSH1 0x0 PUSH2 0x1802 PUSH1 0x1B DUP4 PUSH2 0x1C34 JUMP JUMPDEST SWAP2 POP PUSH2 0x180D DUP3 PUSH2 0x2070 JUMP JUMPDEST PUSH1 0x20 DUP3 ADD SWAP1 POP SWAP2 SWAP1 POP JUMP JUMPDEST PUSH1 0x0 PUSH2 0x1825 PUSH1 0x1B DUP4 PUSH2 0x1C34 JUMP JUMPDEST SWAP2 POP PUSH2 0x1830 DUP3 PUSH2 0x2099 JUMP JUMPDEST PUSH1 0x20 DUP3 ADD SWAP1 POP SWAP2 SWAP1 POP JUMP JUMPDEST PUSH1 0x0 PUSH2 0x1848 PUSH1 0x1C DUP4 PUSH2 0x1C34 JUMP JUMPDEST SWAP2 POP PUSH2 0x1853 DUP3 PUSH2 0x20C2 JUMP JUMPDEST PUSH1 0x20 DUP3 ADD SWAP1 POP SWAP2 SWAP1 POP JUMP JUMPDEST PUSH1 0x0 PUSH2 0x186B PUSH1 0x1B DUP4 PUSH2 0x1C34 JUMP JUMPDEST SWAP2 POP PUSH2 0x1876 DUP3 PUSH2 0x20EB JUMP JUMPDEST PUSH1 0x20 DUP3 ADD SWAP1 POP SWAP2 SWAP1 POP JUMP JUMPDEST PUSH1 0x0 PUSH2 0x188E PUSH1 0x19 DUP4 PUSH2 0x1C34 JUMP JUMPDEST SWAP2 POP PUSH2 0x1899 DUP3 PUSH2 0x2114 JUMP JUMPDEST PUSH1 0x20 DUP3 ADD SWAP1 POP SWAP2 SWAP1 POP JUMP JUMPDEST PUSH1 0x0 PUSH2 0x18B1 PUSH1 0x1D DUP4 PUSH2 0x1C34 JUMP JUMPDEST SWAP2 POP PUSH2 0x18BC DUP3 PUSH2 0x213D JUMP JUMPDEST PUSH1 0x20 DUP3 ADD SWAP1 POP SWAP2 SWAP1 POP JUMP JUMPDEST PUSH1 0x0 PUSH2 0x18D4 PUSH1 0x21 DUP4 PUSH2 0x1C34 JUMP JUMPDEST SWAP2 POP PUSH2 0x18DF DUP3 PUSH2 0x2166 JUMP JUMPDEST PUSH1 0x40 DUP3 ADD SWAP1 POP SWAP2 SWAP1 POP JUMP JUMPDEST PUSH2 0x18F3 DUP2 PUSH2 0x1D17 JUMP JUMPDEST DUP3 MSTORE POP POP JUMP JUMPDEST PUSH2 0x190A PUSH2 0x1905 DUP3 PUSH2 0x1D17 JUMP JUMPDEST PUSH2 0x1E31 JUMP JUMPDEST DUP3 MSTORE POP POP JUMP JUMPDEST PUSH2 0x1919 DUP2 PUSH2 0x1D21 JUMP JUMPDEST DUP3 MSTORE POP POP JUMP JUMPDEST PUSH1 0x0 PUSH2 0x192B DUP3 DUP6 PUSH2 0x18F9 JUMP JUMPDEST PUSH1 0x20 DUP3 ADD SWAP2 POP PUSH2 0x193B DUP3 DUP5 PUSH2 0x16F4 JUMP JUMPDEST PUSH1 0x14 DUP3 ADD SWAP2 POP DUP2 SWAP1 POP SWAP4 SWAP3 POP POP POP JUMP JUMPDEST PUSH1 0x0 PUSH1 0x20 DUP3 ADD SWAP1 POP PUSH2 0x1960 PUSH1 0x0 DUP4 ADD DUP5 PUSH2 0x16D6 JUMP JUMPDEST SWAP3 SWAP2 POP POP JUMP JUMPDEST PUSH1 0x0 PUSH1 0xA0 DUP3 ADD SWAP1 POP PUSH2 0x197B PUSH1 0x0 DUP4 ADD DUP9 PUSH2 0x16E5 JUMP JUMPDEST PUSH2 0x1988 PUSH1 0x20 DUP4 ADD DUP8 PUSH2 0x16E5 JUMP JUMPDEST PUSH2 0x1995 PUSH1 0x40 DUP4 ADD DUP7 PUSH2 0x18EA JUMP JUMPDEST PUSH2 0x19A2 PUSH1 0x60 DUP4 ADD DUP6 PUSH2 0x18EA JUMP JUMPDEST DUP2 DUP2 SUB PUSH1 0x80 DUP4 ADD MSTORE PUSH2 0x19B4 DUP2 DUP5 PUSH2 0x171A JUMP JUMPDEST SWAP1 POP SWAP7 SWAP6 POP POP POP POP POP POP JUMP JUMPDEST PUSH1 0x0 PUSH1 0x20 DUP3 ADD SWAP1 POP PUSH2 0x19D5 PUSH1 0x0 DUP4 ADD DUP5 PUSH2 0x170B JUMP JUMPDEST SWAP3 SWAP2 POP POP JUMP JUMPDEST PUSH1 0x0 PUSH1 0x20 DUP3 ADD SWAP1 POP DUP2 DUP2 SUB PUSH1 0x0 DUP4 ADD MSTORE PUSH2 0x19F5 DUP2 DUP5 PUSH2 0x1753 JUMP JUMPDEST SWAP1 POP SWAP3 SWAP2 POP POP JUMP JUMPDEST PUSH1 0x0 PUSH1 0x20 DUP3 ADD SWAP1 POP DUP2 DUP2 SUB PUSH1 0x0 DUP4 ADD MSTORE PUSH2 0x1A16 DUP2 PUSH2 0x178C JUMP JUMPDEST SWAP1 POP SWAP2 SWAP1 POP JUMP JUMPDEST PUSH1 0x0 PUSH1 0x20 DUP3 ADD SWAP1 POP DUP2 DUP2 SUB PUSH1 0x0 DUP4 ADD MSTORE PUSH2 0x1A36 DUP2 PUSH2 0x17AF JUMP JUMPDEST SWAP1 POP SWAP2 SWAP1 POP JUMP JUMPDEST PUSH1 0x0 PUSH1 0x20 DUP3 ADD SWAP1 POP DUP2 DUP2 SUB PUSH1 0x0 DUP4 ADD MSTORE PUSH2 0x1A56 DUP2 PUSH2 0x17D2 JUMP JUMPDEST SWAP1 POP SWAP2 SWAP1 POP JUMP JUMPDEST PUSH1 0x0 PUSH1 0x20 DUP3 ADD SWAP1 POP DUP2 DUP2 SUB PUSH1 0x0 DUP4 ADD MSTORE PUSH2 0x1A76 DUP2 PUSH2 0x17F5 JUMP JUMPDEST SWAP1 POP SWAP2 SWAP1 POP JUMP JUMPDEST PUSH1 0x0 PUSH1 0x20 DUP3 ADD SWAP1 POP DUP2 DUP2 SUB PUSH1 0x0 DUP4 ADD MSTORE PUSH2 0x1A96 DUP2 PUSH2 0x1818 JUMP JUMPDEST SWAP1 POP SWAP2 SWAP1 POP JUMP JUMPDEST PUSH1 0x0 PUSH1 0x20 DUP3 ADD SWAP1 POP DUP2 DUP2 SUB PUSH1 0x0 DUP4 ADD MSTORE PUSH2 0x1AB6 DUP2 PUSH2 0x183B JUMP JUMPDEST SWAP1 POP SWAP2 SWAP1 POP JUMP JUMPDEST PUSH1 0x0 PUSH1 0x20 DUP3 ADD SWAP1 POP DUP2 DUP2 SUB PUSH1 0x0 DUP4 ADD MSTORE PUSH2 0x1AD6 DUP2 PUSH2 0x185E JUMP JUMPDEST SWAP1 POP SWAP2 SWAP1 POP JUMP JUMPDEST PUSH1 0x0 PUSH1 0x20 DUP3 ADD SWAP1 POP DUP2 DUP2 SUB PUSH1 0x0 DUP4 ADD MSTORE PUSH2 0x1AF6 DUP2 PUSH2 0x1881 JUMP JUMPDEST SWAP1 POP SWAP2 SWAP1 POP JUMP JUMPDEST PUSH1 0x0 PUSH1 0x20 DUP3 ADD SWAP1 POP DUP2 DUP2 SUB PUSH1 0x0 DUP4 ADD MSTORE PUSH2 0x1B16 DUP2 PUSH2 0x18A4 JUMP JUMPDEST SWAP1 POP SWAP2 SWAP1 POP JUMP JUMPDEST PUSH1 0x0 PUSH1 0x20 DUP3 ADD SWAP1 POP DUP2 DUP2 SUB PUSH1 0x0 DUP4 ADD MSTORE PUSH2 0x1B36 DUP2 PUSH2 0x18C7 JUMP JUMPDEST SWAP1 POP SWAP2 SWAP1 POP JUMP JUMPDEST PUSH1 0x0 PUSH1 0x20 DUP3 ADD SWAP1 POP PUSH2 0x1B52 PUSH1 0x0 DUP4 ADD DUP5 PUSH2 0x18EA JUMP JUMPDEST SWAP3 SWAP2 POP POP JUMP JUMPDEST PUSH1 0x0 PUSH1 0x40 DUP3 ADD SWAP1 POP PUSH2 0x1B6D PUSH1 0x0 DUP4 ADD DUP6 PUSH2 0x18EA JUMP JUMPDEST DUP2 DUP2 SUB PUSH1 0x20 DUP4 ADD MSTORE PUSH2 0x1B7F DUP2 DUP5 PUSH2 0x1753 JUMP JUMPDEST SWAP1 POP SWAP4 SWAP3 POP POP POP JUMP JUMPDEST PUSH1 0x0 PUSH1 0x40 DUP3 ADD SWAP1 POP PUSH2 0x1B9D PUSH1 0x0 DUP4 ADD DUP6 PUSH2 0x18EA JUMP JUMPDEST PUSH2 0x1BAA PUSH1 0x20 DUP4 ADD DUP5 PUSH2 0x18EA JUMP JUMPDEST SWAP4 SWAP3 POP POP POP JUMP JUMPDEST PUSH1 0x0 PUSH1 0x60 DUP3 ADD SWAP1 POP PUSH2 0x1BC6 PUSH1 0x0 DUP4 ADD DUP7 PUSH2 0x18EA JUMP JUMPDEST PUSH2 0x1BD3 PUSH1 0x20 DUP4 ADD DUP6 PUSH2 0x18EA JUMP JUMPDEST PUSH2 0x1BE0 PUSH1 0x40 DUP4 ADD DUP5 PUSH2 0x18EA JUMP JUMPDEST SWAP5 SWAP4 POP POP POP POP JUMP JUMPDEST PUSH1 0x0 PUSH1 0x20 DUP3 ADD SWAP1 POP PUSH2 0x1BFD PUSH1 0x0 DUP4 ADD DUP5 PUSH2 0x1910 JUMP JUMPDEST SWAP3 SWAP2 POP POP JUMP JUMPDEST PUSH1 0x0 PUSH1 0x40 MLOAD SWAP1 POP SWAP1 JUMP JUMPDEST PUSH1 0x0 DUP2 MLOAD SWAP1 POP SWAP2 SWAP1 POP JUMP JUMPDEST PUSH1 0x0 DUP2 MLOAD SWAP1 POP SWAP2 SWAP1 POP JUMP JUMPDEST PUSH1 0x0 DUP3 DUP3 MSTORE PUSH1 0x20 DUP3 ADD SWAP1 POP SWAP3 SWAP2 POP POP JUMP JUMPDEST PUSH1 0x0 DUP3 DUP3 MSTORE PUSH1 0x20 DUP3 ADD SWAP1 POP SWAP3 SWAP2 POP POP JUMP JUMPDEST PUSH1 0x0 PUSH2 0x1C50 DUP3 PUSH2 0x1D17 JUMP JUMPDEST SWAP2 POP PUSH2 0x1C5B DUP4 PUSH2 0x1D17 JUMP JUMPDEST SWAP3 POP DUP3 PUSH32 0xFFFFFFFFFFFFFFFFFFFFFFFFFFFFFFFFFFFFFFFFFFFFFFFFFFFFFFFFFFFFFFFF SUB DUP3 GT ISZERO PUSH2 0x1C90 JUMPI PUSH2 0x1C8F PUSH2 0x1E6C JUMP JUMPDEST JUMPDEST DUP3 DUP3 ADD SWAP1 POP SWAP3 SWAP2 POP POP JUMP JUMPDEST PUSH1 0x0 PUSH2 0x1CA6 DUP3 PUSH2 0x1CF7 JUMP JUMPDEST SWAP1 POP SWAP2 SWAP1 POP JUMP JUMPDEST PUSH1 0x0 PUSH2 0x1CB8 DUP3 PUSH2 0x1CF7 JUMP JUMPDEST SWAP1 POP SWAP2 SWAP1 POP JUMP JUMPDEST PUSH1 0x0 DUP2 ISZERO ISZERO SWAP1 POP SWAP2 SWAP1 POP JUMP JUMPDEST PUSH1 0x0 PUSH32 0xFFFFFFFF00000000000000000000000000000000000000000000000000000000 DUP3 AND SWAP1 POP SWAP2 SWAP1 POP JUMP JUMPDEST PUSH1 0x0 PUSH20 0xFFFFFFFFFFFFFFFFFFFFFFFFFFFFFFFFFFFFFFFF DUP3 AND SWAP1 POP SWAP2 SWAP1 POP JUMP JUMPDEST PUSH1 0x0 DUP2 SWAP1 POP SWAP2 SWAP1 POP JUMP JUMPDEST PUSH1 0x0 PUSH1 0xFF DUP3 AND SWAP1 POP SWAP2 SWAP1 POP JUMP JUMPDEST PUSH1 0x0 JUMPDEST DUP4 DUP2 LT ISZERO PUSH2 0x1D4C JUMPI DUP1 DUP3 ADD MLOAD DUP2 DUP5 ADD MSTORE PUSH1 0x20 DUP2 ADD SWAP1 POP PUSH2 0x1D31 JUMP JUMPDEST DUP4 DUP2 GT ISZERO PUSH2 0x1D5B JUMPI PUSH1 0x0 DUP5 DUP5 ADD MSTORE JUMPDEST POP POP POP POP JUMP JUMPDEST PUSH1 0x0 PUSH1 0x2 DUP3 DIV SWAP1 POP PUSH1 0x1 DUP3 AND DUP1 PUSH2 0x1D79 JUMPI PUSH1 0x7F DUP3 AND SWAP2 POP JUMPDEST PUSH1 0x20 DUP3 LT DUP2 EQ ISZERO PUSH2 0x1D8D JUMPI PUSH2 0x1D8C PUSH2 0x1ECA JUMP JUMPDEST JUMPDEST POP SWAP2 SWAP1 POP JUMP JUMPDEST PUSH2 0x1D9C DUP3 PUSH2 0x1F7E JUMP JUMPDEST DUP2 ADD DUP2 DUP2 LT PUSH8 0xFFFFFFFFFFFFFFFF DUP3 GT OR ISZERO PUSH2 0x1DBB JUMPI PUSH2 0x1DBA PUSH2 0x1F28 JUMP JUMPDEST JUMPDEST DUP1 PUSH1 0x40 MSTORE POP POP POP JUMP JUMPDEST PUSH1 0x0 PUSH2 0x1DCF DUP3 PUSH2 0x1D17 JUMP JUMPDEST SWAP2 POP PUSH32 0xFFFFFFFFFFFFFFFFFFFFFFFFFFFFFFFFFFFFFFFFFFFFFFFFFFFFFFFFFFFFFFFF DUP3 EQ ISZERO PUSH2 0x1E02 JUMPI PUSH2 0x1E01 PUSH2 0x1E6C JUMP JUMPDEST JUMPDEST PUSH1 0x1 DUP3 ADD SWAP1 POP SWAP2 SWAP1 POP JUMP JUMPDEST PUSH1 0x0 PUSH2 0x1E18 DUP3 PUSH2 0x1E1F JUMP JUMPDEST SWAP1 POP SWAP2 SWAP1 POP JUMP JUMPDEST PUSH1 0x0 PUSH2 0x1E2A DUP3 PUSH2 0x1F8F JUMP JUMPDEST SWAP1 POP SWAP2 SWAP1 POP JUMP JUMPDEST PUSH1 0x0 DUP2 SWAP1 POP SWAP2 SWAP1 POP JUMP JUMPDEST PUSH1 0x0 PUSH2 0x1E46 DUP3 PUSH2 0x1D17 JUMP JUMPDEST SWAP2 POP PUSH2 0x1E51 DUP4 PUSH2 0x1D17 JUMP JUMPDEST SWAP3 POP DUP3 PUSH2 0x1E61 JUMPI PUSH2 0x1E60 PUSH2 0x1E9B JUMP JUMPDEST JUMPDEST DUP3 DUP3 MOD SWAP1 POP SWAP3 SWAP2 POP POP JUMP JUMPDEST PUSH32 0x4E487B7100000000000000000000000000000000000000000000000000000000 PUSH1 0x0 MSTORE PUSH1 0x11 PUSH1 0x4 MSTORE PUSH1 0x24 PUSH1 0x0 REVERT JUMPDEST PUSH32 0x4E487B7100000000000000000000000000000000000000000000000000000000 PUSH1 0x0 MSTORE PUSH1 0x12 PUSH1 0x4 MSTORE PUSH1 0x24 PUSH1 0x0 REVERT JUMPDEST PUSH32 0x4E487B7100000000000000000000000000000000000000000000000000000000 PUSH1 0x0 MSTORE PUSH1 0x22 PUSH1 0x4 MSTORE PUSH1 0x24 PUSH1 0x0 REVERT JUMPDEST PUSH32 0x4E487B7100000000000000000000000000000000000000000000000000000000 PUSH1 0x0 MSTORE PUSH1 0x32 PUSH1 0x4 MSTORE PUSH1 0x24 PUSH1 0x0 REVERT JUMPDEST PUSH32 0x4E487B7100000000000000000000000000000000000000000000000000000000 PUSH1 0x0 MSTORE PUSH1 0x41 PUSH1 0x4 MSTORE PUSH1 0x24 PUSH1 0x0 REVERT JUMPDEST PUSH1 0x0 PUSH1 0x3 RETURNDATASIZE GT ISZERO PUSH2 0x1F76 JUMPI PUSH1 0x4 PUSH1 0x0 DUP1 RETURNDATACOPY PUSH2 0x1F73 PUSH1 0x0 MLOAD PUSH2 0x1F9C JUMP JUMPDEST SWAP1 POP JUMPDEST SWAP1 JUMP JUMPDEST PUSH1 0x0 DUP1 REVERT JUMPDEST PUSH1 0x0 PUSH1 0x1F NOT PUSH1 0x1F DUP4 ADD AND SWAP1 POP SWAP2 SWAP1 POP JUMP JUMPDEST PUSH1 0x0 DUP2 PUSH1 0x60 SHL SWAP1 POP SWAP2 SWAP1 POP JUMP JUMPDEST PUSH1 0x0 DUP2 PUSH1 0xE0 SHR SWAP1 POP SWAP2 SWAP1 POP JUMP JUMPDEST PUSH32 0x455243313135353A207472616E7366657220746F206E6F6E2045524331313535 PUSH1 0x0 DUP3 ADD MSTORE PUSH32 0x526563656976657220696D706C656D656E746572000000000000000000000000 PUSH1 0x20 DUP3 ADD MSTORE POP JUMP JUMPDEST PUSH32 0x455243313135353A204552433131353552656365697665722072656A65637465 PUSH1 0x0 DUP3 ADD MSTORE PUSH32 0x6420746F6B656E73000000000000000000000000000000000000000000000000 PUSH1 0x20 DUP3 ADD MSTORE POP JUMP JUMPDEST PUSH32 0x42616C616E6365206D757374206265203235204D617469637300000000000000 PUSH1 0x0 DUP3 ADD MSTORE POP JUMP JUMPDEST PUSH32 0x44726F707369746520697320616C72656164792052756E6E696E670000000000 PUSH1 0x0 DUP3 ADD MSTORE POP JUMP JUMPDEST PUSH32 0x44726F707369746520697320616C72656164792053746F707065640000000000 PUSH1 0x0 DUP3 ADD MSTORE POP JUMP JUMPDEST PUSH32 0x4F6E6C79204E46542D4553204F776E65722063616E2041636365737300000000 PUSH1 0x0 DUP3 ADD MSTORE POP JUMP JUMPDEST PUSH32 0x44726F7073697465206973206E6F74204F70656E6564205965742E0000000000 PUSH1 0x0 DUP3 ADD MSTORE POP JUMP JUMPDEST PUSH32 0x4D6178204D696E74696E67204C696D6974207265616368656400000000000000 PUSH1 0x0 DUP3 ADD MSTORE POP JUMP JUMPDEST PUSH32 0x4572726F7221204E6F2042616C616E636520746F207769746864726177000000 PUSH1 0x0 DUP3 ADD MSTORE POP JUMP JUMPDEST PUSH32 0x455243313135353A206D696E7420746F20746865207A65726F20616464726573 PUSH1 0x0 DUP3 ADD MSTORE PUSH32 0x7300000000000000000000000000000000000000000000000000000000000000 PUSH1 0x20 DUP3 ADD MSTORE POP JUMP JUMPDEST PUSH1 0x0 PUSH1 0x44 RETURNDATASIZE LT ISZERO PUSH2 0x21C5 JUMPI PUSH2 0x2248 JUMP JUMPDEST PUSH2 0x21CD PUSH2 0x1C03 JUMP JUMPDEST PUSH1 0x4 RETURNDATASIZE SUB PUSH1 0x4 DUP3 RETURNDATACOPY DUP1 MLOAD RETURNDATASIZE PUSH1 0x24 DUP3 ADD GT PUSH8 0xFFFFFFFFFFFFFFFF DUP3 GT OR ISZERO PUSH2 0x21F5 JUMPI POP POP PUSH2 0x2248 JUMP JUMPDEST DUP1 DUP3 ADD DUP1 MLOAD PUSH8 0xFFFFFFFFFFFFFFFF DUP2 GT ISZERO PUSH2 0x2213 JUMPI POP POP POP POP PUSH2 0x2248 JUMP JUMPDEST DUP1 PUSH1 0x20 DUP4 ADD ADD PUSH1 0x4 RETURNDATASIZE SUB DUP6 ADD DUP2 GT ISZERO PUSH2 0x2230 JUMPI POP POP POP POP POP PUSH2 0x2248 JUMP JUMPDEST PUSH2 0x223F DUP3 PUSH1 0x20 ADD DUP6 ADD DUP7 PUSH2 0x1D93 JUMP JUMPDEST DUP3 SWAP6 POP POP POP POP POP POP JUMPDEST SWAP1 JUMP JUMPDEST PUSH2 0x2254 DUP2 PUSH2 0x1C9B JUMP JUMPDEST DUP2 EQ PUSH2 0x225F JUMPI PUSH1 0x0 DUP1 REVERT JUMPDEST POP JUMP JUMPDEST PUSH2 0x226B DUP2 PUSH2 0x1CAD JUMP JUMPDEST DUP2 EQ PUSH2 0x2276 JUMPI PUSH1 0x0 DUP1 REVERT JUMPDEST POP JUMP JUMPDEST PUSH2 0x2282 DUP2 PUSH2 0x1CCB JUMP JUMPDEST DUP2 EQ PUSH2 0x228D JUMPI PUSH1 0x0 DUP1 REVERT JUMPDEST POP JUMP JUMPDEST PUSH2 0x2299 DUP2 PUSH2 0x1D17 JUMP JUMPDEST DUP2 EQ PUSH2 0x22A4 JUMPI PUSH1 0x0 DUP1 REVERT JUMPDEST POP JUMP INVALID LOG2 PUSH5 0x6970667358 0x22 SLT KECCAK256 PUSH24 0x216474B74F2F2F87B3C7F3A168E0410737A50A2C23F83D3A DUP15 PUSH14 0xD469F9398564736F6C6343000807 STOP CALLER "
				},
				"gasEstimates": {
					"creation": {
						"codeDepositCost": "1785000",
						"executionCost": "infinite",
						"totalCost": "infinite"
					},
					"external": {
						"ContractBalance()": "2691",
						"CryptoRandomMint(address)": "infinite",
						"FiatRandomMint(address)": "infinite",
						"IsPaused()": "2516",
						"Owner()": "2652",
						"checkMintedCategoryWise()": "infinite",
						"checkTotalMinted()": "4693",
						"nums(uint256)": "4497",
						"openDropsite()": "28904",
						"stopDropsite()": "28903",
						"withDraw(address)": "infinite"
					},
					"internal": {
						"depositAmount(address,uint256)": "infinite",
						"random()": "infinite",
						"updateConditions()": "infinite"
					}
				},
				"methodIdentifiers": {
					"ContractBalance()": "3b668059",
					"CryptoRandomMint(address)": "3d65df70",
					"FiatRandomMint(address)": "32b61b4c",
					"IsPaused()": "1309a563",
					"Owner()": "b4a99a4e",
					"checkMintedCategoryWise()": "60daa851",
					"checkTotalMinted()": "0390c11c",
					"nums(uint256)": "fd1ee54c",
					"openDropsite()": "15460259",
					"stopDropsite()": "aa90c726",
					"withDraw(address)": "0a67d2c7"
				}
			},
			"userdoc": {
				"kind": "user",
				"methods": {},
				"version": 1
			}
		}
	}
}