{
	"RandomTest.sol": {
		"RandomTest": {
			"abi": [
				{
					"inputs": [],
					"name": "randomTest",
					"outputs": [
						{
							"internalType": "uint256",
							"name": "",
							"type": "uint256"
						}
					],
					"stateMutability": "pure",
					"type": "function"
				}
			],
			"devdoc": {
				"kind": "dev",
				"methods": {},
				"version": 1
			},
			"evm": {
				"assembly": "    /* \"RandomTest.sol\":54:434  contract RandomTest{... */\n  mstore(0x40, 0x80)\n  callvalue\n  dup1\n  iszero\n  tag_1\n  jumpi\n  0x00\n  dup1\n  revert\ntag_1:\n  pop\n  dataSize(sub_0)\n  dup1\n  dataOffset(sub_0)\n  0x00\n  codecopy\n  0x00\n  return\nstop\n\nsub_0: assembly {\n        /* \"RandomTest.sol\":54:434  contract RandomTest{... */\n      mstore(0x40, 0x80)\n      callvalue\n      dup1\n      iszero\n      tag_1\n      jumpi\n      0x00\n      dup1\n      revert\n    tag_1:\n      pop\n      jumpi(tag_2, lt(calldatasize, 0x04))\n      shr(0xe0, calldataload(0x00))\n      dup1\n      0x5adb5778\n      eq\n      tag_3\n      jumpi\n    tag_2:\n      0x00\n      dup1\n      revert\n        /* \"RandomTest.sol\":79:225  function randomTest() public pure returns (uint256)... */\n    tag_3:\n      tag_4\n      tag_5\n      jump\t// in\n    tag_4:\n      mload(0x40)\n      tag_6\n      swap2\n      swap1\n      tag_7\n      jump\t// in\n    tag_6:\n      mload(0x40)\n      dup1\n      swap2\n      sub\n      swap1\n      return\n    tag_5:\n        /* \"RandomTest.sol\":122:129  uint256 */\n      0x00\n        /* \"RandomTest.sol\":155:176  uint8[10] memory nums */\n      tag_9\n      tag_10\n      jump\t// in\n    tag_9:\n        /* \"RandomTest.sol\":190:218  nums = [0,1,1,1,2,2,2,2,2,2] */\n      mload(0x40)\n      dup1\n      0x0140\n      add\n      0x40\n      mstore\n      dup1\n        /* \"RandomTest.sol\":198:199  0 */\n      0x00\n        /* \"RandomTest.sol\":190:218  nums = [0,1,1,1,2,2,2,2,2,2] */\n      0xff\n      and\n      dup2\n      mstore\n      0x20\n      add\n        /* \"RandomTest.sol\":200:201  1 */\n      0x01\n        /* \"RandomTest.sol\":190:218  nums = [0,1,1,1,2,2,2,2,2,2] */\n      0xff\n      and\n      dup2\n      mstore\n      0x20\n      add\n        /* \"RandomTest.sol\":202:203  1 */\n      0x01\n        /* \"RandomTest.sol\":190:218  nums = [0,1,1,1,2,2,2,2,2,2] */\n      0xff\n      and\n      dup2\n      mstore\n      0x20\n      add\n        /* \"RandomTest.sol\":204:205  1 */\n      0x01\n        /* \"RandomTest.sol\":190:218  nums = [0,1,1,1,2,2,2,2,2,2] */\n      0xff\n      and\n      dup2\n      mstore\n      0x20\n      add\n        /* \"RandomTest.sol\":206:207  2 */\n      0x02\n        /* \"RandomTest.sol\":190:218  nums = [0,1,1,1,2,2,2,2,2,2] */\n      0xff\n      and\n      dup2\n      mstore\n      0x20\n      add\n        /* \"RandomTest.sol\":208:209  2 */\n      0x02\n        /* \"RandomTest.sol\":190:218  nums = [0,1,1,1,2,2,2,2,2,2] */\n      0xff\n      and\n      dup2\n      mstore\n      0x20\n      add\n        /* \"RandomTest.sol\":210:211  2 */\n      0x02\n        /* \"RandomTest.sol\":190:218  nums = [0,1,1,1,2,2,2,2,2,2] */\n      0xff\n      and\n      dup2\n      mstore\n      0x20\n      add\n        /* \"RandomTest.sol\":212:213  2 */\n      0x02\n        /* \"RandomTest.sol\":190:218  nums = [0,1,1,1,2,2,2,2,2,2] */\n      0xff\n      and\n      dup2\n      mstore\n      0x20\n      add\n        /* \"RandomTest.sol\":214:215  2 */\n      0x02\n        /* \"RandomTest.sol\":190:218  nums = [0,1,1,1,2,2,2,2,2,2] */\n      0xff\n      and\n      dup2\n      mstore\n      0x20\n      add\n        /* \"RandomTest.sol\":216:217  2 */\n      0x02\n        /* \"RandomTest.sol\":190:218  nums = [0,1,1,1,2,2,2,2,2,2] */\n      0xff\n      and\n      dup2\n      mstore\n      pop\n      swap1\n      pop\n        /* \"RandomTest.sol\":135:225  {      ... */\n      pop\n        /* \"RandomTest.sol\":79:225  function randomTest() public pure returns (uint256)... */\n      swap1\n      jump\t// out\n    tag_10:\n      mload(0x40)\n      dup1\n      0x0140\n      add\n      0x40\n      mstore\n      dup1\n      0x0a\n      swap1\n      0x20\n      dup3\n      mul\n      dup1\n      calldatasize\n      dup4\n      calldatacopy\n      dup1\n      dup3\n      add\n      swap2\n      pop\n      pop\n      swap1\n      pop\n      pop\n      swap1\n      jump\t// out\n        /* \"#utility.yul\":7:125   */\n    tag_12:\n        /* \"#utility.yul\":94:118   */\n      tag_14\n        /* \"#utility.yul\":112:117   */\n      dup2\n        /* \"#utility.yul\":94:118   */\n      tag_15\n      jump\t// in\n    tag_14:\n        /* \"#utility.yul\":89:92   */\n      dup3\n        /* \"#utility.yul\":82:119   */\n      mstore\n        /* \"#utility.yul\":7:125   */\n      pop\n      pop\n      jump\t// out\n        /* \"#utility.yul\":131:353   */\n    tag_7:\n        /* \"#utility.yul\":224:228   */\n      0x00\n        /* \"#utility.yul\":262:264   */\n      0x20\n        /* \"#utility.yul\":251:260   */\n      dup3\n        /* \"#utility.yul\":247:265   */\n      add\n        /* \"#utility.yul\":239:265   */\n      swap1\n      pop\n        /* \"#utility.yul\":275:346   */\n      tag_17\n        /* \"#utility.yul\":343:344   */\n      0x00\n        /* \"#utility.yul\":332:341   */\n      dup4\n        /* \"#utility.yul\":328:345   */\n      add\n        /* \"#utility.yul\":319:325   */\n      dup5\n        /* \"#utility.yul\":275:346   */\n      tag_12\n      jump\t// in\n    tag_17:\n        /* \"#utility.yul\":131:353   */\n      swap3\n      swap2\n      pop\n      pop\n      jump\t// out\n        /* \"#utility.yul\":359:436   */\n    tag_15:\n        /* \"#utility.yul\":396:403   */\n      0x00\n        /* \"#utility.yul\":425:430   */\n      dup2\n        /* \"#utility.yul\":414:430   */\n      swap1\n      pop\n        /* \"#utility.yul\":359:436   */\n      swap2\n      swap1\n      pop\n      jump\t// out\n\n    auxdata: 0xa26469706673582212209a5b13b3209a51c8a7f8ee46111fccc81d4fb1291b036fec82faf8e8ca7e33fc64736f6c63430008070033\n}\n",
				"bytecode": {
					"linkReferences": {},
					"object": "608060405234801561001057600080fd5b50610159806100206000396000f3fe608060405234801561001057600080fd5b506004361061002b5760003560e01c80635adb577814610030575b600080fd5b61003861004e565b60405161004591906100fe565b60405180910390f35b60006100586100cc565b604051806101400160405280600060ff168152602001600160ff168152602001600160ff168152602001600160ff168152602001600260ff168152602001600260ff168152602001600260ff168152602001600260ff168152602001600260ff168152602001600260ff1681525090505090565b604051806101400160405280600a90602082028036833780820191505090505090565b6100f881610119565b82525050565b600060208201905061011360008301846100ef565b92915050565b600081905091905056fea26469706673582212209a5b13b3209a51c8a7f8ee46111fccc81d4fb1291b036fec82faf8e8ca7e33fc64736f6c63430008070033",
					"opcodes": "PUSH1 0x80 PUSH1 0x40 MSTORE CALLVALUE DUP1 ISZERO PUSH2 0x10 JUMPI PUSH1 0x0 DUP1 REVERT JUMPDEST POP PUSH2 0x159 DUP1 PUSH2 0x20 PUSH1 0x0 CODECOPY PUSH1 0x0 RETURN INVALID PUSH1 0x80 PUSH1 0x40 MSTORE CALLVALUE DUP1 ISZERO PUSH2 0x10 JUMPI PUSH1 0x0 DUP1 REVERT JUMPDEST POP PUSH1 0x4 CALLDATASIZE LT PUSH2 0x2B JUMPI PUSH1 0x0 CALLDATALOAD PUSH1 0xE0 SHR DUP1 PUSH4 0x5ADB5778 EQ PUSH2 0x30 JUMPI JUMPDEST PUSH1 0x0 DUP1 REVERT JUMPDEST PUSH2 0x38 PUSH2 0x4E JUMP JUMPDEST PUSH1 0x40 MLOAD PUSH2 0x45 SWAP2 SWAP1 PUSH2 0xFE JUMP JUMPDEST PUSH1 0x40 MLOAD DUP1 SWAP2 SUB SWAP1 RETURN JUMPDEST PUSH1 0x0 PUSH2 0x58 PUSH2 0xCC JUMP JUMPDEST PUSH1 0x40 MLOAD DUP1 PUSH2 0x140 ADD PUSH1 0x40 MSTORE DUP1 PUSH1 0x0 PUSH1 0xFF AND DUP2 MSTORE PUSH1 0x20 ADD PUSH1 0x1 PUSH1 0xFF AND DUP2 MSTORE PUSH1 0x20 ADD PUSH1 0x1 PUSH1 0xFF AND DUP2 MSTORE PUSH1 0x20 ADD PUSH1 0x1 PUSH1 0xFF AND DUP2 MSTORE PUSH1 0x20 ADD PUSH1 0x2 PUSH1 0xFF AND DUP2 MSTORE PUSH1 0x20 ADD PUSH1 0x2 PUSH1 0xFF AND DUP2 MSTORE PUSH1 0x20 ADD PUSH1 0x2 PUSH1 0xFF AND DUP2 MSTORE PUSH1 0x20 ADD PUSH1 0x2 PUSH1 0xFF AND DUP2 MSTORE PUSH1 0x20 ADD PUSH1 0x2 PUSH1 0xFF AND DUP2 MSTORE PUSH1 0x20 ADD PUSH1 0x2 PUSH1 0xFF AND DUP2 MSTORE POP SWAP1 POP POP SWAP1 JUMP JUMPDEST PUSH1 0x40 MLOAD DUP1 PUSH2 0x140 ADD PUSH1 0x40 MSTORE DUP1 PUSH1 0xA SWAP1 PUSH1 0x20 DUP3 MUL DUP1 CALLDATASIZE DUP4 CALLDATACOPY DUP1 DUP3 ADD SWAP2 POP POP SWAP1 POP POP SWAP1 JUMP JUMPDEST PUSH2 0xF8 DUP2 PUSH2 0x119 JUMP JUMPDEST DUP3 MSTORE POP POP JUMP JUMPDEST PUSH1 0x0 PUSH1 0x20 DUP3 ADD SWAP1 POP PUSH2 0x113 PUSH1 0x0 DUP4 ADD DUP5 PUSH2 0xEF JUMP JUMPDEST SWAP3 SWAP2 POP POP JUMP JUMPDEST PUSH1 0x0 DUP2 SWAP1 POP SWAP2 SWAP1 POP JUMP INVALID LOG2 PUSH5 0x6970667358 0x22 SLT KECCAK256 SWAP11 JUMPDEST SGT 0xB3 KECCAK256 SWAP11 MLOAD 0xC8 0xA7 0xF8 0xEE CHAINID GT 0x1F 0xCC 0xC8 SAR 0x4F 0xB1 0x29 SHL SUB PUSH16 0xEC82FAF8E8CA7E33FC64736F6C634300 ADDMOD SMOD STOP CALLER "
				},
				"gasEstimates": {
					"creation": {
						"codeDepositCost": "69000",
						"executionCost": "117",
						"totalCost": "69117"
					},
					"external": {
						"randomTest()": "infinite"
					},
					"internal": {
						"random()": "infinite"
					}
				},
				"methodIdentifiers": {
					"randomTest()": "5adb5778"
				}
			},
			"userdoc": {
				"kind": "user",
				"methods": {},
				"version": 1
			}
		}
	}
}