{
	"Dropsite.sol": {
		"Dropsite": {
			"abi": [
				{
					"inputs": [
						{
							"internalType": "string",
							"name": "name",
							"type": "string"
						}
					],
					"stateMutability": "nonpayable",
					"type": "constructor"
				},
				{
					"anonymous": false,
					"inputs": [
						{
							"indexed": true,
							"internalType": "address",
							"name": "operator",
							"type": "address"
						},
						{
							"indexed": true,
							"internalType": "address",
							"name": "from",
							"type": "address"
						},
						{
							"indexed": true,
							"internalType": "address",
							"name": "to",
							"type": "address"
						},
						{
							"indexed": false,
							"internalType": "uint256",
							"name": "id",
							"type": "uint256"
						},
						{
							"indexed": false,
							"internalType": "uint256",
							"name": "value",
							"type": "uint256"
						}
					],
					"name": "TransferSingle",
					"type": "event"
				},
				{
					"inputs": [],
					"name": "ContractBalance",
					"outputs": [
						{
							"internalType": "uint256",
							"name": "",
							"type": "uint256"
						}
					],
					"stateMutability": "view",
					"type": "function"
				},
				{
					"inputs": [
						{
							"internalType": "address",
							"name": "user_addr",
							"type": "address"
						}
					],
					"name": "CryptoRandomMint",
					"outputs": [
						{
							"internalType": "uint256",
							"name": "",
							"type": "uint256"
						},
						{
							"internalType": "string",
							"name": "",
							"type": "string"
						}
					],
					"stateMutability": "payable",
					"type": "function"
				},
				{
					"inputs": [
						{
							"internalType": "address",
							"name": "user_addr",
							"type": "address"
						}
					],
					"name": "FiatrandomMint",
					"outputs": [
						{
							"internalType": "uint256",
							"name": "",
							"type": "uint256"
						},
						{
							"internalType": "string",
							"name": "",
							"type": "string"
						}
					],
					"stateMutability": "nonpayable",
					"type": "function"
				},
				{
					"inputs": [],
					"name": "IsPaused",
					"outputs": [
						{
							"internalType": "bool",
							"name": "",
							"type": "bool"
						}
					],
					"stateMutability": "view",
					"type": "function"
				},
				{
					"inputs": [],
					"name": "Owner",
					"outputs": [
						{
							"internalType": "address payable",
							"name": "",
							"type": "address"
						}
					],
					"stateMutability": "view",
					"type": "function"
				},
				{
					"inputs": [],
					"name": "checkMintedCategoryWise",
					"outputs": [
						{
							"internalType": "uint256",
							"name": "",
							"type": "uint256"
						},
						{
							"internalType": "uint256",
							"name": "",
							"type": "uint256"
						},
						{
							"internalType": "uint256",
							"name": "",
							"type": "uint256"
						}
					],
					"stateMutability": "view",
					"type": "function"
				},
				{
					"inputs": [],
					"name": "checkTotalMinted",
					"outputs": [
						{
							"internalType": "uint256",
							"name": "",
							"type": "uint256"
						}
					],
					"stateMutability": "view",
					"type": "function"
				},
				{
					"inputs": [],
					"name": "openDropsite",
					"outputs": [],
					"stateMutability": "nonpayable",
					"type": "function"
				},
				{
					"inputs": [],
					"name": "stopDropsite",
					"outputs": [],
					"stateMutability": "nonpayable",
					"type": "function"
				},
				{
					"inputs": [
						{
							"internalType": "address payable",
							"name": "to",
							"type": "address"
						}
					],
					"name": "withDraw",
					"outputs": [],
					"stateMutability": "payable",
					"type": "function"
				}
			],
			"devdoc": {
				"kind": "dev",
				"methods": {},
				"version": 1
			},
			"evm": {
				"assembly": "    /* \"Dropsite.sol\":122:4752  contract Dropsite is ERC1155_Dropsite  { ... */\n  mstore(0x40, 0x80)\n    /* \"Dropsite.sol\":190:205  bytes  data =\"\" */\n  mload(0x40)\n  dup1\n  0x20\n  add\n  0x40\n  mstore\n  dup1\n  0x00\n  dup2\n  mstore\n  pop\n  0x02\n  swap1\n  dup1\n  mload\n  swap1\n  0x20\n  add\n  swap1\n  tag_1\n  swap3\n  swap2\n  swap1\n  tag_2\n  jump\t// in\ntag_1:\n  pop\n    /* \"Dropsite.sol\":844:848  true */\n  0x01\n    /* \"Dropsite.sol\":821:848  bool public IsPaused = true */\n  0x0b\n  exp(0x0100, 0x00)\n  dup2\n  sload\n  dup2\n  0xff\n  mul\n  not\n  and\n  swap1\n  dup4\n  iszero\n  iszero\n  mul\n  or\n  swap1\n  sstore\n  pop\n    /* \"Dropsite.sol\":920:1196  constructor (string memory name){... */\n  callvalue\n  dup1\n  iszero\n  tag_3\n  jumpi\n  0x00\n  dup1\n  revert\ntag_3:\n  pop\n  mload(0x40)\n  sub(codesize, bytecodeSize)\n  dup1\n  bytecodeSize\n  dup4\n  codecopy\n  dup2\n  dup2\n  add\n  0x40\n  mstore\n  dup2\n  add\n  swap1\n  tag_4\n  swap2\n  swap1\n  tag_5\n  jump\t// in\ntag_4:\n    /* \"Dropsite.sol\":970:974  name */\n  dup1\n    /* \"Dropsite.sol\":962:967  _name */\n  0x0c\n    /* \"Dropsite.sol\":962:974  _name = name */\n  swap1\n  dup1\n  mload\n  swap1\n  0x20\n  add\n  swap1\n  tag_8\n  swap3\n  swap2\n  swap1\n  tag_9\n  jump\t// in\ntag_8:\n  pop\n    /* \"Dropsite.sol\":1000:1010  msg.sender */\n  caller\n    /* \"Dropsite.sol\":984:989  Owner */\n  0x0b\n  0x01\n    /* \"Dropsite.sol\":984:1011  Owner = payable(msg.sender) */\n  0x0100\n  exp\n  dup2\n  sload\n  dup2\n  0xffffffffffffffffffffffffffffffffffffffff\n  mul\n  not\n  and\n  swap1\n  dup4\n  0xffffffffffffffffffffffffffffffffffffffff\n  and\n  mul\n  or\n  swap1\n  sstore\n  pop\n    /* \"Dropsite.sol\":1038:1039  0 */\n  0x00\n    /* \"Dropsite.sol\":1022:1037  TotalNFTsMinted */\n  0x03\n    /* \"Dropsite.sol\":1022:1039  TotalNFTsMinted=0 */\n  dup2\n  swap1\n  sstore\n  pop\n    /* \"Dropsite.sol\":1085:1086  1 */\n  0x01\n    /* \"Dropsite.sol\":1073:1084  numOfCopies */\n  0x04\n    /* \"Dropsite.sol\":1073:1086  numOfCopies=1 */\n  dup2\n  swap1\n  sstore\n  pop\n    /* \"Dropsite.sol\":1142:1143  0 */\n  0x00\n    /* \"Dropsite.sol\":1133:1141  Platinum */\n  0x05\n    /* \"Dropsite.sol\":1133:1143  Platinum=0 */\n  dup2\n  swap1\n  sstore\n  pop\n    /* \"Dropsite.sol\":1170:1171  0 */\n  0x00\n    /* \"Dropsite.sol\":1165:1169  Gold */\n  0x06\n    /* \"Dropsite.sol\":1165:1171  Gold=0 */\n  dup2\n  swap1\n  sstore\n  pop\n    /* \"Dropsite.sol\":1188:1189  0 */\n  0x00\n    /* \"Dropsite.sol\":1181:1187  Silver */\n  0x07\n    /* \"Dropsite.sol\":1181:1189  Silver=0 */\n  dup2\n  swap1\n  sstore\n  pop\n    /* \"Dropsite.sol\":920:1196  constructor (string memory name){... */\n  pop\n    /* \"Dropsite.sol\":122:4752  contract Dropsite is ERC1155_Dropsite  { ... */\n  jump(tag_10)\ntag_2:\n  dup3\n  dup1\n  sload\n  tag_11\n  swap1\n  tag_12\n  jump\t// in\ntag_11:\n  swap1\n  0x00\n  mstore\n  keccak256(0x00, 0x20)\n  swap1\n  0x1f\n  add\n  0x20\n  swap1\n  div\n  dup2\n  add\n  swap3\n  dup3\n  tag_14\n  jumpi\n  0x00\n  dup6\n  sstore\n  jump(tag_13)\ntag_14:\n  dup3\n  0x1f\n  lt\n  tag_15\n  jumpi\n  dup1\n  mload\n  not(0xff)\n  and\n  dup4\n  dup1\n  add\n  or\n  dup6\n  sstore\n  jump(tag_13)\ntag_15:\n  dup3\n  dup1\n  add\n  0x01\n  add\n  dup6\n  sstore\n  dup3\n  iszero\n  tag_13\n  jumpi\n  swap2\n  dup3\n  add\ntag_16:\n  dup3\n  dup2\n  gt\n  iszero\n  tag_17\n  jumpi\n  dup3\n  mload\n  dup3\n  sstore\n  swap2\n  0x20\n  add\n  swap2\n  swap1\n  0x01\n  add\n  swap1\n  jump(tag_16)\ntag_17:\ntag_13:\n  pop\n  swap1\n  pop\n  tag_18\n  swap2\n  swap1\n  tag_19\n  jump\t// in\ntag_18:\n  pop\n  swap1\n  jump\t// out\ntag_9:\n  dup3\n  dup1\n  sload\n  tag_20\n  swap1\n  tag_12\n  jump\t// in\ntag_20:\n  swap1\n  0x00\n  mstore\n  keccak256(0x00, 0x20)\n  swap1\n  0x1f\n  add\n  0x20\n  swap1\n  div\n  dup2\n  add\n  swap3\n  dup3\n  tag_22\n  jumpi\n  0x00\n  dup6\n  sstore\n  jump(tag_21)\ntag_22:\n  dup3\n  0x1f\n  lt\n  tag_23\n  jumpi\n  dup1\n  mload\n  not(0xff)\n  and\n  dup4\n  dup1\n  add\n  or\n  dup6\n  sstore\n  jump(tag_21)\ntag_23:\n  dup3\n  dup1\n  add\n  0x01\n  add\n  dup6\n  sstore\n  dup3\n  iszero\n  tag_21\n  jumpi\n  swap2\n  dup3\n  add\ntag_24:\n  dup3\n  dup2\n  gt\n  iszero\n  tag_25\n  jumpi\n  dup3\n  mload\n  dup3\n  sstore\n  swap2\n  0x20\n  add\n  swap2\n  swap1\n  0x01\n  add\n  swap1\n  jump(tag_24)\ntag_25:\ntag_21:\n  pop\n  swap1\n  pop\n  tag_26\n  swap2\n  swap1\n  tag_19\n  jump\t// in\ntag_26:\n  pop\n  swap1\n  jump\t// out\ntag_19:\ntag_27:\n  dup1\n  dup3\n  gt\n  iszero\n  tag_28\n  jumpi\n  0x00\n  dup2\n  0x00\n  swap1\n  sstore\n  pop\n  0x01\n  add\n  jump(tag_27)\ntag_28:\n  pop\n  swap1\n  jump\t// out\n    /* \"#utility.yul\":7:428   */\ntag_30:\n    /* \"#utility.yul\":96:101   */\n  0x00\n    /* \"#utility.yul\":121:187   */\n  tag_32\n    /* \"#utility.yul\":137:186   */\n  tag_33\n    /* \"#utility.yul\":179:185   */\n  dup5\n    /* \"#utility.yul\":137:186   */\n  tag_34\n  jump\t// in\ntag_33:\n    /* \"#utility.yul\":121:187   */\n  tag_35\n  jump\t// in\ntag_32:\n    /* \"#utility.yul\":112:187   */\n  swap1\n  pop\n    /* \"#utility.yul\":210:216   */\n  dup3\n    /* \"#utility.yul\":203:208   */\n  dup2\n    /* \"#utility.yul\":196:217   */\n  mstore\n    /* \"#utility.yul\":248:252   */\n  0x20\n    /* \"#utility.yul\":241:246   */\n  dup2\n    /* \"#utility.yul\":237:253   */\n  add\n    /* \"#utility.yul\":286:289   */\n  dup5\n    /* \"#utility.yul\":277:283   */\n  dup5\n    /* \"#utility.yul\":272:275   */\n  dup5\n    /* \"#utility.yul\":268:284   */\n  add\n    /* \"#utility.yul\":265:290   */\n  gt\n    /* \"#utility.yul\":262:374   */\n  iszero\n  tag_36\n  jumpi\n    /* \"#utility.yul\":293:372   */\n  tag_37\n  tag_38\n  jump\t// in\ntag_37:\n    /* \"#utility.yul\":262:374   */\ntag_36:\n    /* \"#utility.yul\":383:422   */\n  tag_39\n    /* \"#utility.yul\":415:421   */\n  dup5\n    /* \"#utility.yul\":410:413   */\n  dup3\n    /* \"#utility.yul\":405:408   */\n  dup6\n    /* \"#utility.yul\":383:422   */\n  tag_40\n  jump\t// in\ntag_39:\n    /* \"#utility.yul\":102:428   */\n  pop\n    /* \"#utility.yul\":7:428   */\n  swap4\n  swap3\n  pop\n  pop\n  pop\n  jump\t// out\n    /* \"#utility.yul\":448:803   */\ntag_41:\n    /* \"#utility.yul\":515:520   */\n  0x00\n    /* \"#utility.yul\":564:567   */\n  dup3\n    /* \"#utility.yul\":557:561   */\n  0x1f\n    /* \"#utility.yul\":549:555   */\n  dup4\n    /* \"#utility.yul\":545:562   */\n  add\n    /* \"#utility.yul\":541:568   */\n  slt\n    /* \"#utility.yul\":531:653   */\n  tag_43\n  jumpi\n    /* \"#utility.yul\":572:651   */\n  tag_44\n  tag_45\n  jump\t// in\ntag_44:\n    /* \"#utility.yul\":531:653   */\ntag_43:\n    /* \"#utility.yul\":682:688   */\n  dup2\n    /* \"#utility.yul\":676:689   */\n  mload\n    /* \"#utility.yul\":707:797   */\n  tag_46\n    /* \"#utility.yul\":793:796   */\n  dup5\n    /* \"#utility.yul\":785:791   */\n  dup3\n    /* \"#utility.yul\":778:782   */\n  0x20\n    /* \"#utility.yul\":770:776   */\n  dup7\n    /* \"#utility.yul\":766:783   */\n  add\n    /* \"#utility.yul\":707:797   */\n  tag_30\n  jump\t// in\ntag_46:\n    /* \"#utility.yul\":698:797   */\n  swap2\n  pop\n    /* \"#utility.yul\":521:803   */\n  pop\n    /* \"#utility.yul\":448:803   */\n  swap3\n  swap2\n  pop\n  pop\n  jump\t// out\n    /* \"#utility.yul\":809:1333   */\ntag_5:\n    /* \"#utility.yul\":889:895   */\n  0x00\n    /* \"#utility.yul\":938:940   */\n  0x20\n    /* \"#utility.yul\":926:935   */\n  dup3\n    /* \"#utility.yul\":917:924   */\n  dup5\n    /* \"#utility.yul\":913:936   */\n  sub\n    /* \"#utility.yul\":909:941   */\n  slt\n    /* \"#utility.yul\":906:1025   */\n  iszero\n  tag_48\n  jumpi\n    /* \"#utility.yul\":944:1023   */\n  tag_49\n  tag_50\n  jump\t// in\ntag_49:\n    /* \"#utility.yul\":906:1025   */\ntag_48:\n    /* \"#utility.yul\":1085:1086   */\n  0x00\n    /* \"#utility.yul\":1074:1083   */\n  dup3\n    /* \"#utility.yul\":1070:1087   */\n  add\n    /* \"#utility.yul\":1064:1088   */\n  mload\n    /* \"#utility.yul\":1115:1133   */\n  0xffffffffffffffff\n    /* \"#utility.yul\":1107:1113   */\n  dup2\n    /* \"#utility.yul\":1104:1134   */\n  gt\n    /* \"#utility.yul\":1101:1218   */\n  iszero\n  tag_51\n  jumpi\n    /* \"#utility.yul\":1137:1216   */\n  tag_52\n  tag_53\n  jump\t// in\ntag_52:\n    /* \"#utility.yul\":1101:1218   */\ntag_51:\n    /* \"#utility.yul\":1242:1316   */\n  tag_54\n    /* \"#utility.yul\":1308:1315   */\n  dup5\n    /* \"#utility.yul\":1299:1305   */\n  dup3\n    /* \"#utility.yul\":1288:1297   */\n  dup6\n    /* \"#utility.yul\":1284:1306   */\n  add\n    /* \"#utility.yul\":1242:1316   */\n  tag_41\n  jump\t// in\ntag_54:\n    /* \"#utility.yul\":1232:1316   */\n  swap2\n  pop\n    /* \"#utility.yul\":1035:1326   */\n  pop\n    /* \"#utility.yul\":809:1333   */\n  swap3\n  swap2\n  pop\n  pop\n  jump\t// out\n    /* \"#utility.yul\":1339:1468   */\ntag_35:\n    /* \"#utility.yul\":1373:1379   */\n  0x00\n    /* \"#utility.yul\":1400:1420   */\n  tag_56\n  tag_57\n  jump\t// in\ntag_56:\n    /* \"#utility.yul\":1390:1420   */\n  swap1\n  pop\n    /* \"#utility.yul\":1429:1462   */\n  tag_58\n    /* \"#utility.yul\":1457:1461   */\n  dup3\n    /* \"#utility.yul\":1449:1455   */\n  dup3\n    /* \"#utility.yul\":1429:1462   */\n  tag_59\n  jump\t// in\ntag_58:\n    /* \"#utility.yul\":1339:1468   */\n  swap2\n  swap1\n  pop\n  jump\t// out\n    /* \"#utility.yul\":1474:1549   */\ntag_57:\n    /* \"#utility.yul\":1507:1513   */\n  0x00\n    /* \"#utility.yul\":1540:1542   */\n  0x40\n    /* \"#utility.yul\":1534:1543   */\n  mload\n    /* \"#utility.yul\":1524:1543   */\n  swap1\n  pop\n    /* \"#utility.yul\":1474:1549   */\n  swap1\n  jump\t// out\n    /* \"#utility.yul\":1555:1863   */\ntag_34:\n    /* \"#utility.yul\":1617:1621   */\n  0x00\n    /* \"#utility.yul\":1707:1725   */\n  0xffffffffffffffff\n    /* \"#utility.yul\":1699:1705   */\n  dup3\n    /* \"#utility.yul\":1696:1726   */\n  gt\n    /* \"#utility.yul\":1693:1749   */\n  iszero\n  tag_62\n  jumpi\n    /* \"#utility.yul\":1729:1747   */\n  tag_63\n  tag_64\n  jump\t// in\ntag_63:\n    /* \"#utility.yul\":1693:1749   */\ntag_62:\n    /* \"#utility.yul\":1767:1796   */\n  tag_65\n    /* \"#utility.yul\":1789:1795   */\n  dup3\n    /* \"#utility.yul\":1767:1796   */\n  tag_66\n  jump\t// in\ntag_65:\n    /* \"#utility.yul\":1759:1796   */\n  swap1\n  pop\n    /* \"#utility.yul\":1851:1855   */\n  0x20\n    /* \"#utility.yul\":1845:1849   */\n  dup2\n    /* \"#utility.yul\":1841:1856   */\n  add\n    /* \"#utility.yul\":1833:1856   */\n  swap1\n  pop\n    /* \"#utility.yul\":1555:1863   */\n  swap2\n  swap1\n  pop\n  jump\t// out\n    /* \"#utility.yul\":1869:2176   */\ntag_40:\n    /* \"#utility.yul\":1937:1938   */\n  0x00\n    /* \"#utility.yul\":1947:2060   */\ntag_68:\n    /* \"#utility.yul\":1961:1967   */\n  dup4\n    /* \"#utility.yul\":1958:1959   */\n  dup2\n    /* \"#utility.yul\":1955:1968   */\n  lt\n    /* \"#utility.yul\":1947:2060   */\n  iszero\n  tag_70\n  jumpi\n    /* \"#utility.yul\":2046:2047   */\n  dup1\n    /* \"#utility.yul\":2041:2044   */\n  dup3\n    /* \"#utility.yul\":2037:2048   */\n  add\n    /* \"#utility.yul\":2031:2049   */\n  mload\n    /* \"#utility.yul\":2027:2028   */\n  dup2\n    /* \"#utility.yul\":2022:2025   */\n  dup5\n    /* \"#utility.yul\":2018:2029   */\n  add\n    /* \"#utility.yul\":2011:2050   */\n  mstore\n    /* \"#utility.yul\":1983:1985   */\n  0x20\n    /* \"#utility.yul\":1980:1981   */\n  dup2\n    /* \"#utility.yul\":1976:1986   */\n  add\n    /* \"#utility.yul\":1971:1986   */\n  swap1\n  pop\n    /* \"#utility.yul\":1947:2060   */\n  jump(tag_68)\ntag_70:\n    /* \"#utility.yul\":2078:2084   */\n  dup4\n    /* \"#utility.yul\":2075:2076   */\n  dup2\n    /* \"#utility.yul\":2072:2085   */\n  gt\n    /* \"#utility.yul\":2069:2170   */\n  iszero\n  tag_71\n  jumpi\n    /* \"#utility.yul\":2158:2159   */\n  0x00\n    /* \"#utility.yul\":2149:2155   */\n  dup5\n    /* \"#utility.yul\":2144:2147   */\n  dup5\n    /* \"#utility.yul\":2140:2156   */\n  add\n    /* \"#utility.yul\":2133:2160   */\n  mstore\n    /* \"#utility.yul\":2069:2170   */\ntag_71:\n    /* \"#utility.yul\":1918:2176   */\n  pop\n    /* \"#utility.yul\":1869:2176   */\n  pop\n  pop\n  pop\n  jump\t// out\n    /* \"#utility.yul\":2182:2502   */\ntag_12:\n    /* \"#utility.yul\":2226:2232   */\n  0x00\n    /* \"#utility.yul\":2263:2264   */\n  0x02\n    /* \"#utility.yul\":2257:2261   */\n  dup3\n    /* \"#utility.yul\":2253:2265   */\n  div\n    /* \"#utility.yul\":2243:2265   */\n  swap1\n  pop\n    /* \"#utility.yul\":2310:2311   */\n  0x01\n    /* \"#utility.yul\":2304:2308   */\n  dup3\n    /* \"#utility.yul\":2300:2312   */\n  and\n    /* \"#utility.yul\":2331:2349   */\n  dup1\n    /* \"#utility.yul\":2321:2402   */\n  tag_73\n  jumpi\n    /* \"#utility.yul\":2387:2391   */\n  0x7f\n    /* \"#utility.yul\":2379:2385   */\n  dup3\n    /* \"#utility.yul\":2375:2392   */\n  and\n    /* \"#utility.yul\":2365:2392   */\n  swap2\n  pop\n    /* \"#utility.yul\":2321:2402   */\ntag_73:\n    /* \"#utility.yul\":2449:2451   */\n  0x20\n    /* \"#utility.yul\":2441:2447   */\n  dup3\n    /* \"#utility.yul\":2438:2452   */\n  lt\n    /* \"#utility.yul\":2418:2436   */\n  dup2\n    /* \"#utility.yul\":2415:2453   */\n  eq\n    /* \"#utility.yul\":2412:2496   */\n  iszero\n  tag_74\n  jumpi\n    /* \"#utility.yul\":2468:2486   */\n  tag_75\n  tag_76\n  jump\t// in\ntag_75:\n    /* \"#utility.yul\":2412:2496   */\ntag_74:\n    /* \"#utility.yul\":2233:2502   */\n  pop\n    /* \"#utility.yul\":2182:2502   */\n  swap2\n  swap1\n  pop\n  jump\t// out\n    /* \"#utility.yul\":2508:2789   */\ntag_59:\n    /* \"#utility.yul\":2591:2618   */\n  tag_78\n    /* \"#utility.yul\":2613:2617   */\n  dup3\n    /* \"#utility.yul\":2591:2618   */\n  tag_66\n  jump\t// in\ntag_78:\n    /* \"#utility.yul\":2583:2589   */\n  dup2\n    /* \"#utility.yul\":2579:2619   */\n  add\n    /* \"#utility.yul\":2721:2727   */\n  dup2\n    /* \"#utility.yul\":2709:2719   */\n  dup2\n    /* \"#utility.yul\":2706:2728   */\n  lt\n    /* \"#utility.yul\":2685:2703   */\n  0xffffffffffffffff\n    /* \"#utility.yul\":2673:2683   */\n  dup3\n    /* \"#utility.yul\":2670:2704   */\n  gt\n    /* \"#utility.yul\":2667:2729   */\n  or\n    /* \"#utility.yul\":2664:2752   */\n  iszero\n  tag_79\n  jumpi\n    /* \"#utility.yul\":2732:2750   */\n  tag_80\n  tag_64\n  jump\t// in\ntag_80:\n    /* \"#utility.yul\":2664:2752   */\ntag_79:\n    /* \"#utility.yul\":2772:2782   */\n  dup1\n    /* \"#utility.yul\":2768:2770   */\n  0x40\n    /* \"#utility.yul\":2761:2783   */\n  mstore\n    /* \"#utility.yul\":2551:2789   */\n  pop\n    /* \"#utility.yul\":2508:2789   */\n  pop\n  pop\n  jump\t// out\n    /* \"#utility.yul\":2795:2975   */\ntag_76:\n    /* \"#utility.yul\":2843:2920   */\n  0x4e487b7100000000000000000000000000000000000000000000000000000000\n    /* \"#utility.yul\":2840:2841   */\n  0x00\n    /* \"#utility.yul\":2833:2921   */\n  mstore\n    /* \"#utility.yul\":2940:2944   */\n  0x22\n    /* \"#utility.yul\":2937:2938   */\n  0x04\n    /* \"#utility.yul\":2930:2945   */\n  mstore\n    /* \"#utility.yul\":2964:2968   */\n  0x24\n    /* \"#utility.yul\":2961:2962   */\n  0x00\n    /* \"#utility.yul\":2954:2969   */\n  revert\n    /* \"#utility.yul\":2981:3161   */\ntag_64:\n    /* \"#utility.yul\":3029:3106   */\n  0x4e487b7100000000000000000000000000000000000000000000000000000000\n    /* \"#utility.yul\":3026:3027   */\n  0x00\n    /* \"#utility.yul\":3019:3107   */\n  mstore\n    /* \"#utility.yul\":3126:3130   */\n  0x41\n    /* \"#utility.yul\":3123:3124   */\n  0x04\n    /* \"#utility.yul\":3116:3131   */\n  mstore\n    /* \"#utility.yul\":3150:3154   */\n  0x24\n    /* \"#utility.yul\":3147:3148   */\n  0x00\n    /* \"#utility.yul\":3140:3155   */\n  revert\n    /* \"#utility.yul\":3167:3284   */\ntag_45:\n    /* \"#utility.yul\":3276:3277   */\n  0x00\n    /* \"#utility.yul\":3273:3274   */\n  dup1\n    /* \"#utility.yul\":3266:3278   */\n  revert\n    /* \"#utility.yul\":3290:3407   */\ntag_38:\n    /* \"#utility.yul\":3399:3400   */\n  0x00\n    /* \"#utility.yul\":3396:3397   */\n  dup1\n    /* \"#utility.yul\":3389:3401   */\n  revert\n    /* \"#utility.yul\":3413:3530   */\ntag_53:\n    /* \"#utility.yul\":3522:3523   */\n  0x00\n    /* \"#utility.yul\":3519:3520   */\n  dup1\n    /* \"#utility.yul\":3512:3524   */\n  revert\n    /* \"#utility.yul\":3536:3653   */\ntag_50:\n    /* \"#utility.yul\":3645:3646   */\n  0x00\n    /* \"#utility.yul\":3642:3643   */\n  dup1\n    /* \"#utility.yul\":3635:3647   */\n  revert\n    /* \"#utility.yul\":3659:3761   */\ntag_66:\n    /* \"#utility.yul\":3700:3706   */\n  0x00\n    /* \"#utility.yul\":3751:3753   */\n  0x1f\n    /* \"#utility.yul\":3747:3754   */\n  not\n    /* \"#utility.yul\":3742:3744   */\n  0x1f\n    /* \"#utility.yul\":3735:3740   */\n  dup4\n    /* \"#utility.yul\":3731:3745   */\n  add\n    /* \"#utility.yul\":3727:3755   */\n  and\n    /* \"#utility.yul\":3717:3755   */\n  swap1\n  pop\n    /* \"#utility.yul\":3659:3761   */\n  swap2\n  swap1\n  pop\n  jump\t// out\n    /* \"Dropsite.sol\":122:4752  contract Dropsite is ERC1155_Dropsite  { ... */\ntag_10:\n  dataSize(sub_0)\n  dup1\n  dataOffset(sub_0)\n  0x00\n  codecopy\n  0x00\n  return\nstop\n\nsub_0: assembly {\n        /* \"Dropsite.sol\":122:4752  contract Dropsite is ERC1155_Dropsite  { ... */\n      mstore(0x40, 0x80)\n      jumpi(tag_1, lt(calldatasize, 0x04))\n      shr(0xe0, calldataload(0x00))\n      dup1\n      0x3d65df70\n      gt\n      tag_12\n      jumpi\n      dup1\n      0x3d65df70\n      eq\n      tag_7\n      jumpi\n      dup1\n      0x60daa851\n      eq\n      tag_8\n      jumpi\n      dup1\n      0xaa90c726\n      eq\n      tag_9\n      jumpi\n      dup1\n      0xb4a99a4e\n      eq\n      tag_10\n      jumpi\n      dup1\n      0xfd93d41c\n      eq\n      tag_11\n      jumpi\n      jump(tag_1)\n    tag_12:\n      dup1\n      0x0390c11c\n      eq\n      tag_2\n      jumpi\n      dup1\n      0x0a67d2c7\n      eq\n      tag_3\n      jumpi\n      dup1\n      0x1309a563\n      eq\n      tag_4\n      jumpi\n      dup1\n      0x15460259\n      eq\n      tag_5\n      jumpi\n      dup1\n      0x3b668059\n      eq\n      tag_6\n      jumpi\n    tag_1:\n      0x00\n      dup1\n      revert\n        /* \"Dropsite.sol\":1341:1445  function checkTotalMinted() public view OnlyOwner returns(uint){... */\n    tag_2:\n      callvalue\n      dup1\n      iszero\n      tag_13\n      jumpi\n      0x00\n      dup1\n      revert\n    tag_13:\n      pop\n      tag_14\n      tag_15\n      jump\t// in\n    tag_14:\n      mload(0x40)\n      tag_16\n      swap2\n      swap1\n      tag_17\n      jump\t// in\n    tag_16:\n      mload(0x40)\n      dup1\n      swap2\n      sub\n      swap1\n      return\n        /* \"Dropsite.sol\":1803:2017  function withDraw(address payable to) public payable OnlyOwner {... */\n    tag_3:\n      tag_18\n      0x04\n      dup1\n      calldatasize\n      sub\n      dup2\n      add\n      swap1\n      tag_19\n      swap2\n      swap1\n      tag_20\n      jump\t// in\n    tag_19:\n      tag_21\n      jump\t// in\n    tag_18:\n      stop\n        /* \"Dropsite.sol\":821:848  bool public IsPaused = true */\n    tag_4:\n      callvalue\n      dup1\n      iszero\n      tag_22\n      jumpi\n      0x00\n      dup1\n      revert\n    tag_22:\n      pop\n      tag_23\n      tag_24\n      jump\t// in\n    tag_23:\n      mload(0x40)\n      tag_25\n      swap2\n      swap1\n      tag_26\n      jump\t// in\n    tag_25:\n      mload(0x40)\n      dup1\n      swap2\n      sub\n      swap1\n      return\n        /* \"Dropsite.sol\":1593:1729  function openDropsite() public OnlyOwner {... */\n    tag_5:\n      callvalue\n      dup1\n      iszero\n      tag_27\n      jumpi\n      0x00\n      dup1\n      revert\n    tag_27:\n      pop\n      tag_28\n      tag_29\n      jump\t// in\n    tag_28:\n      stop\n        /* \"Dropsite.sol\":2070:2178  function ContractBalance() public view OnlyOwner returns (uint){... */\n    tag_6:\n      callvalue\n      dup1\n      iszero\n      tag_30\n      jumpi\n      0x00\n      dup1\n      revert\n    tag_30:\n      pop\n      tag_31\n      tag_32\n      jump\t// in\n    tag_31:\n      mload(0x40)\n      tag_33\n      swap2\n      swap1\n      tag_17\n      jump\t// in\n    tag_33:\n      mload(0x40)\n      dup1\n      swap2\n      sub\n      swap1\n      return\n        /* \"Dropsite.sol\":3599:4744  function CryptoRandomMint(address user_addr) OnlyOwner contractIsNotPaused public payable returns (uint,string memory) {... */\n    tag_7:\n      tag_34\n      0x04\n      dup1\n      calldatasize\n      sub\n      dup2\n      add\n      swap1\n      tag_35\n      swap2\n      swap1\n      tag_36\n      jump\t// in\n    tag_35:\n      tag_37\n      jump\t// in\n    tag_34:\n      mload(0x40)\n      tag_38\n      swap3\n      swap2\n      swap1\n      tag_39\n      jump\t// in\n    tag_38:\n      mload(0x40)\n      dup1\n      swap2\n      sub\n      swap1\n      return\n        /* \"Dropsite.sol\":1208:1336  function checkMintedCategoryWise() public view OnlyOwner returns(uint,uint,uint){... */\n    tag_8:\n      callvalue\n      dup1\n      iszero\n      tag_40\n      jumpi\n      0x00\n      dup1\n      revert\n    tag_40:\n      pop\n      tag_41\n      tag_42\n      jump\t// in\n    tag_41:\n      mload(0x40)\n      tag_43\n      swap4\n      swap3\n      swap2\n      swap1\n      tag_44\n      jump\t// in\n    tag_43:\n      mload(0x40)\n      dup1\n      swap2\n      sub\n      swap1\n      return\n        /* \"Dropsite.sol\":1451:1586  function stopDropsite() public OnlyOwner{... */\n    tag_9:\n      callvalue\n      dup1\n      iszero\n      tag_45\n      jumpi\n      0x00\n      dup1\n      revert\n    tag_45:\n      pop\n      tag_46\n      tag_47\n      jump\t// in\n    tag_46:\n      stop\n        /* \"Dropsite.sol\":854:883  address payable public  Owner */\n    tag_10:\n      callvalue\n      dup1\n      iszero\n      tag_48\n      jumpi\n      0x00\n      dup1\n      revert\n    tag_48:\n      pop\n      tag_49\n      tag_50\n      jump\t// in\n    tag_49:\n      mload(0x40)\n      tag_51\n      swap2\n      swap1\n      tag_52\n      jump\t// in\n    tag_51:\n      mload(0x40)\n      dup1\n      swap2\n      sub\n      swap1\n      return\n        /* \"Dropsite.sol\":2366:3452  function FiatrandomMint(address user_addr) OnlyOwner contractIsNotPaused public returns (uint,string memory) {... */\n    tag_11:\n      callvalue\n      dup1\n      iszero\n      tag_53\n      jumpi\n      0x00\n      dup1\n      revert\n    tag_53:\n      pop\n      tag_54\n      0x04\n      dup1\n      calldatasize\n      sub\n      dup2\n      add\n      swap1\n      tag_55\n      swap2\n      swap1\n      tag_36\n      jump\t// in\n    tag_55:\n      tag_56\n      jump\t// in\n    tag_54:\n      mload(0x40)\n      tag_57\n      swap3\n      swap2\n      swap1\n      tag_39\n      jump\t// in\n    tag_57:\n      mload(0x40)\n      dup1\n      swap2\n      sub\n      swap1\n      return\n        /* \"Dropsite.sol\":1341:1445  function checkTotalMinted() public view OnlyOwner returns(uint){... */\n    tag_15:\n        /* \"Dropsite.sol\":1399:1403  uint */\n      0x00\n        /* \"Dropsite.sol\":593:598  Owner */\n      0x0b\n      0x01\n      swap1\n      sload\n      swap1\n      0x0100\n      exp\n      swap1\n      div\n      0xffffffffffffffffffffffffffffffffffffffff\n      and\n        /* \"Dropsite.sol\":577:598  _msgSender() == Owner */\n      0xffffffffffffffffffffffffffffffffffffffff\n      and\n        /* \"Dropsite.sol\":577:589  _msgSender() */\n      tag_59\n        /* \"Dropsite.sol\":577:587  _msgSender */\n      tag_60\n        /* \"Dropsite.sol\":577:589  _msgSender() */\n      jump\t// in\n    tag_59:\n        /* \"Dropsite.sol\":577:598  _msgSender() == Owner */\n      0xffffffffffffffffffffffffffffffffffffffff\n      and\n      eq\n        /* \"Dropsite.sol\":569:631  require(_msgSender() == Owner, \"Only NFT-ES Owner can Access\") */\n      tag_61\n      jumpi\n      mload(0x40)\n      0x08c379a000000000000000000000000000000000000000000000000000000000\n      dup2\n      mstore\n      0x04\n      add\n      tag_62\n      swap1\n      tag_63\n      jump\t// in\n    tag_62:\n      mload(0x40)\n      dup1\n      swap2\n      sub\n      swap1\n      revert\n    tag_61:\n        /* \"Dropsite.sol\":1422:1437  TotalNFTsMinted */\n      sload(0x03)\n        /* \"Dropsite.sol\":1415:1437  return TotalNFTsMinted */\n      swap1\n      pop\n        /* \"Dropsite.sol\":1341:1445  function checkTotalMinted() public view OnlyOwner returns(uint){... */\n      swap1\n      jump\t// out\n        /* \"Dropsite.sol\":1803:2017  function withDraw(address payable to) public payable OnlyOwner {... */\n    tag_21:\n        /* \"Dropsite.sol\":593:598  Owner */\n      0x0b\n      0x01\n      swap1\n      sload\n      swap1\n      0x0100\n      exp\n      swap1\n      div\n      0xffffffffffffffffffffffffffffffffffffffff\n      and\n        /* \"Dropsite.sol\":577:598  _msgSender() == Owner */\n      0xffffffffffffffffffffffffffffffffffffffff\n      and\n        /* \"Dropsite.sol\":577:589  _msgSender() */\n      tag_66\n        /* \"Dropsite.sol\":577:587  _msgSender */\n      tag_60\n        /* \"Dropsite.sol\":577:589  _msgSender() */\n      jump\t// in\n    tag_66:\n        /* \"Dropsite.sol\":577:598  _msgSender() == Owner */\n      0xffffffffffffffffffffffffffffffffffffffff\n      and\n      eq\n        /* \"Dropsite.sol\":569:631  require(_msgSender() == Owner, \"Only NFT-ES Owner can Access\") */\n      tag_67\n      jumpi\n      mload(0x40)\n      0x08c379a000000000000000000000000000000000000000000000000000000000\n      dup2\n      mstore\n      0x04\n      add\n      tag_68\n      swap1\n      tag_63\n      jump\t// in\n    tag_68:\n      mload(0x40)\n      dup1\n      swap2\n      sub\n      swap1\n      revert\n    tag_67:\n        /* \"Dropsite.sol\":1876:1888  uint Balance */\n      0x00\n        /* \"Dropsite.sol\":1891:1912  address(this).balance */\n      selfbalance\n        /* \"Dropsite.sol\":1876:1912  uint Balance = address(this).balance */\n      swap1\n      pop\n        /* \"Dropsite.sol\":1940:1945  0 wei */\n      0x00\n        /* \"Dropsite.sol\":1930:1937  Balance */\n      dup2\n        /* \"Dropsite.sol\":1930:1945  Balance > 0 wei */\n      gt\n        /* \"Dropsite.sol\":1922:1979  require(Balance > 0 wei, \"Error! No Balance to withdraw\") */\n      tag_70\n      jumpi\n      mload(0x40)\n      0x08c379a000000000000000000000000000000000000000000000000000000000\n      dup2\n      mstore\n      0x04\n      add\n      tag_71\n      swap1\n      tag_72\n      jump\t// in\n    tag_71:\n      mload(0x40)\n      dup1\n      swap2\n      sub\n      swap1\n      revert\n    tag_70:\n        /* \"Dropsite.sol\":1990:1992  to */\n      dup2\n        /* \"Dropsite.sol\":1990:2001  to.transfer */\n      0xffffffffffffffffffffffffffffffffffffffff\n      and\n        /* \"Dropsite.sol\":1990:2010  to.transfer(Balance) */\n      0x08fc\n        /* \"Dropsite.sol\":2002:2009  Balance */\n      dup3\n        /* \"Dropsite.sol\":1990:2010  to.transfer(Balance) */\n      swap1\n      dup2\n      iszero\n      mul\n      swap1\n      mload(0x40)\n      0x00\n      mload(0x40)\n      dup1\n      dup4\n      sub\n      dup2\n      dup6\n      dup9\n      dup9\n      call\n      swap4\n      pop\n      pop\n      pop\n      pop\n      iszero\n      dup1\n      iszero\n      tag_74\n      jumpi\n      returndatasize\n      0x00\n      dup1\n      returndatacopy\n      revert(0x00, returndatasize)\n    tag_74:\n      pop\n        /* \"Dropsite.sol\":1866:2017  {... */\n      pop\n        /* \"Dropsite.sol\":1803:2017  function withDraw(address payable to) public payable OnlyOwner {... */\n      pop\n      jump\t// out\n        /* \"Dropsite.sol\":821:848  bool public IsPaused = true */\n    tag_24:\n      0x0b\n      0x00\n      swap1\n      sload\n      swap1\n      0x0100\n      exp\n      swap1\n      div\n      0xff\n      and\n      dup2\n      jump\t// out\n        /* \"Dropsite.sol\":1593:1729  function openDropsite() public OnlyOwner {... */\n    tag_29:\n        /* \"Dropsite.sol\":593:598  Owner */\n      0x0b\n      0x01\n      swap1\n      sload\n      swap1\n      0x0100\n      exp\n      swap1\n      div\n      0xffffffffffffffffffffffffffffffffffffffff\n      and\n        /* \"Dropsite.sol\":577:598  _msgSender() == Owner */\n      0xffffffffffffffffffffffffffffffffffffffff\n      and\n        /* \"Dropsite.sol\":577:589  _msgSender() */\n      tag_76\n        /* \"Dropsite.sol\":577:587  _msgSender */\n      tag_60\n        /* \"Dropsite.sol\":577:589  _msgSender() */\n      jump\t// in\n    tag_76:\n        /* \"Dropsite.sol\":577:598  _msgSender() == Owner */\n      0xffffffffffffffffffffffffffffffffffffffff\n      and\n      eq\n        /* \"Dropsite.sol\":569:631  require(_msgSender() == Owner, \"Only NFT-ES Owner can Access\") */\n      tag_77\n      jumpi\n      mload(0x40)\n      0x08c379a000000000000000000000000000000000000000000000000000000000\n      dup2\n      mstore\n      0x04\n      add\n      tag_78\n      swap1\n      tag_63\n      jump\t// in\n    tag_78:\n      mload(0x40)\n      dup1\n      swap2\n      sub\n      swap1\n      revert\n    tag_77:\n        /* \"Dropsite.sol\":1662:1666  true */\n      0x01\n        /* \"Dropsite.sol\":1652:1666  IsPaused==true */\n      iszero\n      iszero\n        /* \"Dropsite.sol\":1652:1660  IsPaused */\n      0x0b\n      0x00\n      swap1\n      sload\n      swap1\n      0x0100\n      exp\n      swap1\n      div\n      0xff\n      and\n        /* \"Dropsite.sol\":1652:1666  IsPaused==true */\n      iszero\n      iszero\n      eq\n        /* \"Dropsite.sol\":1644:1698  require(IsPaused==true, \"Dropsite is already Running\") */\n      tag_80\n      jumpi\n      mload(0x40)\n      0x08c379a000000000000000000000000000000000000000000000000000000000\n      dup2\n      mstore\n      0x04\n      add\n      tag_81\n      swap1\n      tag_82\n      jump\t// in\n    tag_81:\n      mload(0x40)\n      dup1\n      swap2\n      sub\n      swap1\n      revert\n    tag_80:\n        /* \"Dropsite.sol\":1717:1722  false */\n      0x00\n        /* \"Dropsite.sol\":1708:1716  IsPaused */\n      0x0b\n      0x00\n        /* \"Dropsite.sol\":1708:1722  IsPaused=false */\n      0x0100\n      exp\n      dup2\n      sload\n      dup2\n      0xff\n      mul\n      not\n      and\n      swap1\n      dup4\n      iszero\n      iszero\n      mul\n      or\n      swap1\n      sstore\n      pop\n        /* \"Dropsite.sol\":1593:1729  function openDropsite() public OnlyOwner {... */\n      jump\t// out\n        /* \"Dropsite.sol\":2070:2178  function ContractBalance() public view OnlyOwner returns (uint){... */\n    tag_32:\n        /* \"Dropsite.sol\":2128:2132  uint */\n      0x00\n        /* \"Dropsite.sol\":593:598  Owner */\n      0x0b\n      0x01\n      swap1\n      sload\n      swap1\n      0x0100\n      exp\n      swap1\n      div\n      0xffffffffffffffffffffffffffffffffffffffff\n      and\n        /* \"Dropsite.sol\":577:598  _msgSender() == Owner */\n      0xffffffffffffffffffffffffffffffffffffffff\n      and\n        /* \"Dropsite.sol\":577:589  _msgSender() */\n      tag_84\n        /* \"Dropsite.sol\":577:587  _msgSender */\n      tag_60\n        /* \"Dropsite.sol\":577:589  _msgSender() */\n      jump\t// in\n    tag_84:\n        /* \"Dropsite.sol\":577:598  _msgSender() == Owner */\n      0xffffffffffffffffffffffffffffffffffffffff\n      and\n      eq\n        /* \"Dropsite.sol\":569:631  require(_msgSender() == Owner, \"Only NFT-ES Owner can Access\") */\n      tag_85\n      jumpi\n      mload(0x40)\n      0x08c379a000000000000000000000000000000000000000000000000000000000\n      dup2\n      mstore\n      0x04\n      add\n      tag_86\n      swap1\n      tag_63\n      jump\t// in\n    tag_86:\n      mload(0x40)\n      dup1\n      swap2\n      sub\n      swap1\n      revert\n    tag_85:\n        /* \"Dropsite.sol\":2150:2171  address(this).balance */\n      selfbalance\n        /* \"Dropsite.sol\":2143:2171  return address(this).balance */\n      swap1\n      pop\n        /* \"Dropsite.sol\":2070:2178  function ContractBalance() public view OnlyOwner returns (uint){... */\n      swap1\n      jump\t// out\n        /* \"Dropsite.sol\":3599:4744  function CryptoRandomMint(address user_addr) OnlyOwner contractIsNotPaused public payable returns (uint,string memory) {... */\n    tag_37:\n        /* \"Dropsite.sol\":3698:3702  uint */\n      0x00\n        /* \"Dropsite.sol\":3703:3716  string memory */\n      0x60\n        /* \"Dropsite.sol\":593:598  Owner */\n      0x0b\n      0x01\n      swap1\n      sload\n      swap1\n      0x0100\n      exp\n      swap1\n      div\n      0xffffffffffffffffffffffffffffffffffffffff\n      and\n        /* \"Dropsite.sol\":577:598  _msgSender() == Owner */\n      0xffffffffffffffffffffffffffffffffffffffff\n      and\n        /* \"Dropsite.sol\":577:589  _msgSender() */\n      tag_89\n        /* \"Dropsite.sol\":577:587  _msgSender */\n      tag_60\n        /* \"Dropsite.sol\":577:589  _msgSender() */\n      jump\t// in\n    tag_89:\n        /* \"Dropsite.sol\":577:598  _msgSender() == Owner */\n      0xffffffffffffffffffffffffffffffffffffffff\n      and\n      eq\n        /* \"Dropsite.sol\":569:631  require(_msgSender() == Owner, \"Only NFT-ES Owner can Access\") */\n      tag_90\n      jumpi\n      mload(0x40)\n      0x08c379a000000000000000000000000000000000000000000000000000000000\n      dup2\n      mstore\n      0x04\n      add\n      tag_91\n      swap1\n      tag_63\n      jump\t// in\n    tag_91:\n      mload(0x40)\n      dup1\n      swap2\n      sub\n      swap1\n      revert\n    tag_90:\n        /* \"Dropsite.sol\":758:763  false */\n      0x00\n        /* \"Dropsite.sol\":746:763  IsPaused == false */\n      iszero\n      iszero\n        /* \"Dropsite.sol\":746:754  IsPaused */\n      0x0b\n      0x00\n      swap1\n      sload\n      swap1\n      0x0100\n      exp\n      swap1\n      div\n      0xff\n      and\n        /* \"Dropsite.sol\":746:763  IsPaused == false */\n      iszero\n      iszero\n      eq\n        /* \"Dropsite.sol\":737:796  require (IsPaused == false, \"Dropsite is not Opened Yet.\" ) */\n      tag_93\n      jumpi\n      mload(0x40)\n      0x08c379a000000000000000000000000000000000000000000000000000000000\n      dup2\n      mstore\n      0x04\n      add\n      tag_94\n      swap1\n      tag_95\n      jump\t// in\n    tag_94:\n      mload(0x40)\n      dup1\n      swap2\n      sub\n      swap1\n      revert\n    tag_93:\n        /* \"Dropsite.sol\":3750:3753  100 */\n      0x64\n        /* \"Dropsite.sol\":3734:3749  TotalNFTsMinted */\n      sload(0x03)\n        /* \"Dropsite.sol\":3734:3753  TotalNFTsMinted<100 */\n      lt\n        /* \"Dropsite.sol\":3726:3783  require(TotalNFTsMinted<100, \"Max Minting Limit reached\") */\n      tag_97\n      jumpi\n      mload(0x40)\n      0x08c379a000000000000000000000000000000000000000000000000000000000\n      dup2\n      mstore\n      0x04\n      add\n      tag_98\n      swap1\n      tag_99\n      jump\t// in\n    tag_98:\n      mload(0x40)\n      dup1\n      swap2\n      sub\n      swap1\n      revert\n    tag_97:\n        /* \"Dropsite.sol\":3788:3798  uint nftId */\n      0x00\n        /* \"Dropsite.sol\":3801:3809  random() */\n      tag_100\n        /* \"Dropsite.sol\":3801:3807  random */\n      tag_101\n        /* \"Dropsite.sol\":3801:3809  random() */\n      jump\t// in\n    tag_100:\n        /* \"Dropsite.sol\":3788:3809  uint nftId = random() */\n      swap1\n      pop\n        /* \"Dropsite.sol\":3929:3930  0 */\n      0x00\n        /* \"Dropsite.sol\":3920:3925  nftId */\n      dup2\n        /* \"Dropsite.sol\":3920:3930  nftId == 0 */\n      eq\n        /* \"Dropsite.sol\":3920:3947  nftId == 0 && Platinum < 15 */\n      dup1\n      iszero\n      tag_102\n      jumpi\n      pop\n        /* \"Dropsite.sol\":3945:3947  15 */\n      0x0f\n        /* \"Dropsite.sol\":3934:3942  Platinum */\n      sload(0x05)\n        /* \"Dropsite.sol\":3934:3947  Platinum < 15 */\n      lt\n        /* \"Dropsite.sol\":3920:3947  nftId == 0 && Platinum < 15 */\n    tag_102:\n        /* \"Dropsite.sol\":3917:4341  if(nftId == 0 && Platinum < 15) {... */\n      iszero\n      tag_103\n      jumpi\n        /* \"Dropsite.sol\":3959:3976  data = \"Platinum\" */\n      mload(0x40)\n      dup1\n      0x40\n      add\n      0x40\n      mstore\n      dup1\n      0x08\n      dup2\n      mstore\n      0x20\n      add\n      0x506c6174696e756d000000000000000000000000000000000000000000000000\n      dup2\n      mstore\n      pop\n        /* \"Dropsite.sol\":3959:3963  data */\n      0x02\n        /* \"Dropsite.sol\":3959:3976  data = \"Platinum\" */\n      swap1\n      dup1\n      mload\n      swap1\n      0x20\n      add\n      swap1\n      tag_104\n      swap3\n      swap2\n      swap1\n      tag_105\n      jump\t// in\n    tag_104:\n      pop\n        /* \"Dropsite.sol\":3986:3994  Platinum */\n      0x05\n      0x00\n        /* \"Dropsite.sol\":3986:3996  Platinum++ */\n      dup2\n      sload\n      dup1\n      swap3\n      swap2\n      swap1\n      tag_106\n      swap1\n      tag_107\n      jump\t// in\n    tag_106:\n      swap2\n      swap1\n      pop\n      sstore\n      pop\n        /* \"Dropsite.sol\":3917:4341  if(nftId == 0 && Platinum < 15) {... */\n      jump(tag_108)\n    tag_103:\n        /* \"Dropsite.sol\":4097:4098  1 */\n      0x01\n        /* \"Dropsite.sol\":4088:4093  nftId */\n      dup2\n        /* \"Dropsite.sol\":4088:4098  nftId <= 1 */\n      gt\n      iszero\n        /* \"Dropsite.sol\":4088:4111  nftId <= 1 && Gold < 35 */\n      dup1\n      iszero\n      tag_109\n      jumpi\n      pop\n        /* \"Dropsite.sol\":4109:4111  35 */\n      0x23\n        /* \"Dropsite.sol\":4102:4106  Gold */\n      sload(0x06)\n        /* \"Dropsite.sol\":4102:4111  Gold < 35 */\n      lt\n        /* \"Dropsite.sol\":4088:4111  nftId <= 1 && Gold < 35 */\n    tag_109:\n        /* \"Dropsite.sol\":4085:4341  if(nftId <= 1 && Gold < 35) {... */\n      iszero\n      tag_110\n      jumpi\n        /* \"Dropsite.sol\":4123:4136  data = \"Gold\" */\n      mload(0x40)\n      dup1\n      0x40\n      add\n      0x40\n      mstore\n      dup1\n      0x04\n      dup2\n      mstore\n      0x20\n      add\n      0x476f6c6400000000000000000000000000000000000000000000000000000000\n      dup2\n      mstore\n      pop\n        /* \"Dropsite.sol\":4123:4127  data */\n      0x02\n        /* \"Dropsite.sol\":4123:4136  data = \"Gold\" */\n      swap1\n      dup1\n      mload\n      swap1\n      0x20\n      add\n      swap1\n      tag_111\n      swap3\n      swap2\n      swap1\n      tag_105\n      jump\t// in\n    tag_111:\n      pop\n        /* \"Dropsite.sol\":4146:4150  Gold */\n      0x06\n      0x00\n        /* \"Dropsite.sol\":4146:4152  Gold++ */\n      dup2\n      sload\n      dup1\n      swap3\n      swap2\n      swap1\n      tag_112\n      swap1\n      tag_107\n      jump\t// in\n    tag_112:\n      swap2\n      swap1\n      pop\n      sstore\n      pop\n        /* \"Dropsite.sol\":4085:4341  if(nftId <= 1 && Gold < 35) {... */\n      jump(tag_113)\n    tag_110:\n        /* \"Dropsite.sol\":4274:4275  2 */\n      0x02\n        /* \"Dropsite.sol\":4265:4270  nftId */\n      dup2\n        /* \"Dropsite.sol\":4265:4275  nftId <= 2 */\n      gt\n      iszero\n        /* \"Dropsite.sol\":4265:4291  nftId <= 2 && Silver <= 50 */\n      dup1\n      iszero\n      tag_114\n      jumpi\n      pop\n        /* \"Dropsite.sol\":4289:4291  50 */\n      0x32\n        /* \"Dropsite.sol\":4279:4285  Silver */\n      sload(0x07)\n        /* \"Dropsite.sol\":4279:4291  Silver <= 50 */\n      gt\n      iszero\n        /* \"Dropsite.sol\":4265:4291  nftId <= 2 && Silver <= 50 */\n    tag_114:\n        /* \"Dropsite.sol\":4262:4341  if(nftId <= 2 && Silver <= 50) {... */\n      iszero\n      tag_115\n      jumpi\n        /* \"Dropsite.sol\":4303:4316  data=\"Silver\" */\n      mload(0x40)\n      dup1\n      0x40\n      add\n      0x40\n      mstore\n      dup1\n      0x06\n      dup2\n      mstore\n      0x20\n      add\n      0x53696c7665720000000000000000000000000000000000000000000000000000\n      dup2\n      mstore\n      pop\n        /* \"Dropsite.sol\":4303:4307  data */\n      0x02\n        /* \"Dropsite.sol\":4303:4316  data=\"Silver\" */\n      swap1\n      dup1\n      mload\n      swap1\n      0x20\n      add\n      swap1\n      tag_116\n      swap3\n      swap2\n      swap1\n      tag_105\n      jump\t// in\n    tag_116:\n      pop\n        /* \"Dropsite.sol\":4326:4332  Silver */\n      0x07\n      0x00\n        /* \"Dropsite.sol\":4326:4334  Silver++ */\n      dup2\n      sload\n      dup1\n      swap3\n      swap2\n      swap1\n      tag_117\n      swap1\n      tag_107\n      jump\t// in\n    tag_117:\n      swap2\n      swap1\n      pop\n      sstore\n      pop\n        /* \"Dropsite.sol\":4262:4341  if(nftId <= 2 && Silver <= 50) {... */\n    tag_115:\n        /* \"Dropsite.sol\":4085:4341  if(nftId <= 1 && Gold < 35) {... */\n    tag_113:\n        /* \"Dropsite.sol\":3917:4341  if(nftId == 0 && Platinum < 15) {... */\n    tag_108:\n        /* \"Dropsite.sol\":4550:4592  _mint(user_addr, nftId, numOfCopies, data) */\n      tag_118\n        /* \"Dropsite.sol\":4556:4565  user_addr */\n      dup5\n        /* \"Dropsite.sol\":4567:4572  nftId */\n      dup3\n        /* \"Dropsite.sol\":4574:4585  numOfCopies */\n      sload(0x04)\n        /* \"Dropsite.sol\":4587:4591  data */\n      0x02\n        /* \"Dropsite.sol\":4550:4592  _mint(user_addr, nftId, numOfCopies, data) */\n      dup1\n      sload\n      tag_119\n      swap1\n      tag_120\n      jump\t// in\n    tag_119:\n      dup1\n      0x1f\n      add\n      0x20\n      dup1\n      swap2\n      div\n      mul\n      0x20\n      add\n      mload(0x40)\n      swap1\n      dup2\n      add\n      0x40\n      mstore\n      dup1\n      swap3\n      swap2\n      swap1\n      dup2\n      dup2\n      mstore\n      0x20\n      add\n      dup3\n      dup1\n      sload\n      tag_121\n      swap1\n      tag_120\n      jump\t// in\n    tag_121:\n      dup1\n      iszero\n      tag_122\n      jumpi\n      dup1\n      0x1f\n      lt\n      tag_123\n      jumpi\n      0x0100\n      dup1\n      dup4\n      sload\n      div\n      mul\n      dup4\n      mstore\n      swap2\n      0x20\n      add\n      swap2\n      jump(tag_122)\n    tag_123:\n      dup3\n      add\n      swap2\n      swap1\n      0x00\n      mstore\n      keccak256(0x00, 0x20)\n      swap1\n    tag_124:\n      dup2\n      sload\n      dup2\n      mstore\n      swap1\n      0x01\n      add\n      swap1\n      0x20\n      add\n      dup1\n      dup4\n      gt\n      tag_124\n      jumpi\n      dup3\n      swap1\n      sub\n      0x1f\n      and\n      dup3\n      add\n      swap2\n    tag_122:\n      pop\n      pop\n      pop\n      pop\n      pop\n        /* \"Dropsite.sol\":4550:4555  _mint */\n      tag_125\n        /* \"Dropsite.sol\":4550:4592  _mint(user_addr, nftId, numOfCopies, data) */\n      jump\t// in\n    tag_118:\n        /* \"Dropsite.sol\":4598:4640  depositBidAmmount(_msgSender(), msg.value) */\n      tag_126\n        /* \"Dropsite.sol\":4616:4628  _msgSender() */\n      tag_127\n        /* \"Dropsite.sol\":4616:4626  _msgSender */\n      tag_60\n        /* \"Dropsite.sol\":4616:4628  _msgSender() */\n      jump\t// in\n    tag_127:\n        /* \"Dropsite.sol\":4630:4639  msg.value */\n      callvalue\n        /* \"Dropsite.sol\":4598:4615  depositBidAmmount */\n      tag_128\n        /* \"Dropsite.sol\":4598:4640  depositBidAmmount(_msgSender(), msg.value) */\n      jump\t// in\n    tag_126:\n        /* \"Dropsite.sol\":4646:4661  TotalNFTsMinted */\n      0x03\n      0x00\n        /* \"Dropsite.sol\":4646:4663  TotalNFTsMinted++ */\n      dup2\n      sload\n      dup1\n      swap3\n      swap2\n      swap1\n      tag_129\n      swap1\n      tag_107\n      jump\t// in\n    tag_129:\n      swap2\n      swap1\n      pop\n      sstore\n      pop\n        /* \"Dropsite.sol\":4699:4704  nftId */\n      dup1\n        /* \"Dropsite.sol\":4669:4687  dropsite_NFT_Owner */\n      0x08\n        /* \"Dropsite.sol\":4669:4698  dropsite_NFT_Owner[user_addr] */\n      0x00\n        /* \"Dropsite.sol\":4688:4697  user_addr */\n      dup7\n        /* \"Dropsite.sol\":4669:4698  dropsite_NFT_Owner[user_addr] */\n      0xffffffffffffffffffffffffffffffffffffffff\n      and\n      0xffffffffffffffffffffffffffffffffffffffff\n      and\n      dup2\n      mstore\n      0x20\n      add\n      swap1\n      dup2\n      mstore\n      0x20\n      add\n      0x00\n      keccak256\n        /* \"Dropsite.sol\":4669:4704  dropsite_NFT_Owner[user_addr]=nftId */\n      dup2\n      swap1\n      sstore\n      pop\n        /* \"Dropsite.sol\":4718:4723  nftId */\n      dup1\n        /* \"Dropsite.sol\":4731:4735  data */\n      0x02\n        /* \"Dropsite.sol\":4710:4737  return (nftId,string(data)) */\n      dup1\n      dup1\n      sload\n      tag_130\n      swap1\n      tag_120\n      jump\t// in\n    tag_130:\n      dup1\n      0x1f\n      add\n      0x20\n      dup1\n      swap2\n      div\n      mul\n      0x20\n      add\n      mload(0x40)\n      swap1\n      dup2\n      add\n      0x40\n      mstore\n      dup1\n      swap3\n      swap2\n      swap1\n      dup2\n      dup2\n      mstore\n      0x20\n      add\n      dup3\n      dup1\n      sload\n      tag_131\n      swap1\n      tag_120\n      jump\t// in\n    tag_131:\n      dup1\n      iszero\n      tag_132\n      jumpi\n      dup1\n      0x1f\n      lt\n      tag_133\n      jumpi\n      0x0100\n      dup1\n      dup4\n      sload\n      div\n      mul\n      dup4\n      mstore\n      swap2\n      0x20\n      add\n      swap2\n      jump(tag_132)\n    tag_133:\n      dup3\n      add\n      swap2\n      swap1\n      0x00\n      mstore\n      keccak256(0x00, 0x20)\n      swap1\n    tag_134:\n      dup2\n      sload\n      dup2\n      mstore\n      swap1\n      0x01\n      add\n      swap1\n      0x20\n      add\n      dup1\n      dup4\n      gt\n      tag_134\n      jumpi\n      dup3\n      swap1\n      sub\n      0x1f\n      and\n      dup3\n      add\n      swap2\n    tag_132:\n      pop\n      pop\n      pop\n      pop\n      pop\n      swap1\n      pop\n      swap3\n      pop\n      swap3\n      pop\n      pop\n        /* \"Dropsite.sol\":3599:4744  function CryptoRandomMint(address user_addr) OnlyOwner contractIsNotPaused public payable returns (uint,string memory) {... */\n      swap2\n      pop\n      swap2\n      jump\t// out\n        /* \"Dropsite.sol\":1208:1336  function checkMintedCategoryWise() public view OnlyOwner returns(uint,uint,uint){... */\n    tag_42:\n        /* \"Dropsite.sol\":1273:1277  uint */\n      0x00\n        /* \"Dropsite.sol\":1278:1282  uint */\n      dup1\n        /* \"Dropsite.sol\":1283:1287  uint */\n      0x00\n        /* \"Dropsite.sol\":593:598  Owner */\n      0x0b\n      0x01\n      swap1\n      sload\n      swap1\n      0x0100\n      exp\n      swap1\n      div\n      0xffffffffffffffffffffffffffffffffffffffff\n      and\n        /* \"Dropsite.sol\":577:598  _msgSender() == Owner */\n      0xffffffffffffffffffffffffffffffffffffffff\n      and\n        /* \"Dropsite.sol\":577:589  _msgSender() */\n      tag_136\n        /* \"Dropsite.sol\":577:587  _msgSender */\n      tag_60\n        /* \"Dropsite.sol\":577:589  _msgSender() */\n      jump\t// in\n    tag_136:\n        /* \"Dropsite.sol\":577:598  _msgSender() == Owner */\n      0xffffffffffffffffffffffffffffffffffffffff\n      and\n      eq\n        /* \"Dropsite.sol\":569:631  require(_msgSender() == Owner, \"Only NFT-ES Owner can Access\") */\n      tag_137\n      jumpi\n      mload(0x40)\n      0x08c379a000000000000000000000000000000000000000000000000000000000\n      dup2\n      mstore\n      0x04\n      add\n      tag_138\n      swap1\n      tag_63\n      jump\t// in\n    tag_138:\n      mload(0x40)\n      dup1\n      swap2\n      sub\n      swap1\n      revert\n    tag_137:\n        /* \"Dropsite.sol\":1307:1315  Platinum */\n      sload(0x05)\n        /* \"Dropsite.sol\":1316:1320  Gold */\n      sload(0x06)\n        /* \"Dropsite.sol\":1321:1327  Silver */\n      sload(0x07)\n        /* \"Dropsite.sol\":1299:1328  return (Platinum,Gold,Silver) */\n      swap3\n      pop\n      swap3\n      pop\n      swap3\n      pop\n        /* \"Dropsite.sol\":1208:1336  function checkMintedCategoryWise() public view OnlyOwner returns(uint,uint,uint){... */\n      swap1\n      swap2\n      swap3\n      jump\t// out\n        /* \"Dropsite.sol\":1451:1586  function stopDropsite() public OnlyOwner{... */\n    tag_47:\n        /* \"Dropsite.sol\":593:598  Owner */\n      0x0b\n      0x01\n      swap1\n      sload\n      swap1\n      0x0100\n      exp\n      swap1\n      div\n      0xffffffffffffffffffffffffffffffffffffffff\n      and\n        /* \"Dropsite.sol\":577:598  _msgSender() == Owner */\n      0xffffffffffffffffffffffffffffffffffffffff\n      and\n        /* \"Dropsite.sol\":577:589  _msgSender() */\n      tag_141\n        /* \"Dropsite.sol\":577:587  _msgSender */\n      tag_60\n        /* \"Dropsite.sol\":577:589  _msgSender() */\n      jump\t// in\n    tag_141:\n        /* \"Dropsite.sol\":577:598  _msgSender() == Owner */\n      0xffffffffffffffffffffffffffffffffffffffff\n      and\n      eq\n        /* \"Dropsite.sol\":569:631  require(_msgSender() == Owner, \"Only NFT-ES Owner can Access\") */\n      tag_142\n      jumpi\n      mload(0x40)\n      0x08c379a000000000000000000000000000000000000000000000000000000000\n      dup2\n      mstore\n      0x04\n      add\n      tag_143\n      swap1\n      tag_63\n      jump\t// in\n    tag_143:\n      mload(0x40)\n      dup1\n      swap2\n      sub\n      swap1\n      revert\n    tag_142:\n        /* \"Dropsite.sol\":1519:1524  false */\n      0x00\n        /* \"Dropsite.sol\":1509:1524  IsPaused==false */\n      iszero\n      iszero\n        /* \"Dropsite.sol\":1509:1517  IsPaused */\n      0x0b\n      0x00\n      swap1\n      sload\n      swap1\n      0x0100\n      exp\n      swap1\n      div\n      0xff\n      and\n        /* \"Dropsite.sol\":1509:1524  IsPaused==false */\n      iszero\n      iszero\n      eq\n        /* \"Dropsite.sol\":1501:1556  require(IsPaused==false, \"Dropsite is already Stopped\") */\n      tag_145\n      jumpi\n      mload(0x40)\n      0x08c379a000000000000000000000000000000000000000000000000000000000\n      dup2\n      mstore\n      0x04\n      add\n      tag_146\n      swap1\n      tag_147\n      jump\t// in\n    tag_146:\n      mload(0x40)\n      dup1\n      swap2\n      sub\n      swap1\n      revert\n    tag_145:\n        /* \"Dropsite.sol\":1575:1579  true */\n      0x01\n        /* \"Dropsite.sol\":1566:1574  IsPaused */\n      0x0b\n      0x00\n        /* \"Dropsite.sol\":1566:1579  IsPaused=true */\n      0x0100\n      exp\n      dup2\n      sload\n      dup2\n      0xff\n      mul\n      not\n      and\n      swap1\n      dup4\n      iszero\n      iszero\n      mul\n      or\n      swap1\n      sstore\n      pop\n        /* \"Dropsite.sol\":1451:1586  function stopDropsite() public OnlyOwner{... */\n      jump\t// out\n        /* \"Dropsite.sol\":854:883  address payable public  Owner */\n    tag_50:\n      0x0b\n      0x01\n      swap1\n      sload\n      swap1\n      0x0100\n      exp\n      swap1\n      div\n      0xffffffffffffffffffffffffffffffffffffffff\n      and\n      dup2\n      jump\t// out\n        /* \"Dropsite.sol\":2366:3452  function FiatrandomMint(address user_addr) OnlyOwner contractIsNotPaused public returns (uint,string memory) {... */\n    tag_56:\n        /* \"Dropsite.sol\":2455:2459  uint */\n      0x00\n        /* \"Dropsite.sol\":2460:2473  string memory */\n      0x60\n        /* \"Dropsite.sol\":593:598  Owner */\n      0x0b\n      0x01\n      swap1\n      sload\n      swap1\n      0x0100\n      exp\n      swap1\n      div\n      0xffffffffffffffffffffffffffffffffffffffff\n      and\n        /* \"Dropsite.sol\":577:598  _msgSender() == Owner */\n      0xffffffffffffffffffffffffffffffffffffffff\n      and\n        /* \"Dropsite.sol\":577:589  _msgSender() */\n      tag_149\n        /* \"Dropsite.sol\":577:587  _msgSender */\n      tag_60\n        /* \"Dropsite.sol\":577:589  _msgSender() */\n      jump\t// in\n    tag_149:\n        /* \"Dropsite.sol\":577:598  _msgSender() == Owner */\n      0xffffffffffffffffffffffffffffffffffffffff\n      and\n      eq\n        /* \"Dropsite.sol\":569:631  require(_msgSender() == Owner, \"Only NFT-ES Owner can Access\") */\n      tag_150\n      jumpi\n      mload(0x40)\n      0x08c379a000000000000000000000000000000000000000000000000000000000\n      dup2\n      mstore\n      0x04\n      add\n      tag_151\n      swap1\n      tag_63\n      jump\t// in\n    tag_151:\n      mload(0x40)\n      dup1\n      swap2\n      sub\n      swap1\n      revert\n    tag_150:\n        /* \"Dropsite.sol\":758:763  false */\n      0x00\n        /* \"Dropsite.sol\":746:763  IsPaused == false */\n      iszero\n      iszero\n        /* \"Dropsite.sol\":746:754  IsPaused */\n      0x0b\n      0x00\n      swap1\n      sload\n      swap1\n      0x0100\n      exp\n      swap1\n      div\n      0xff\n      and\n        /* \"Dropsite.sol\":746:763  IsPaused == false */\n      iszero\n      iszero\n      eq\n        /* \"Dropsite.sol\":737:796  require (IsPaused == false, \"Dropsite is not Opened Yet.\" ) */\n      tag_153\n      jumpi\n      mload(0x40)\n      0x08c379a000000000000000000000000000000000000000000000000000000000\n      dup2\n      mstore\n      0x04\n      add\n      tag_154\n      swap1\n      tag_95\n      jump\t// in\n    tag_154:\n      mload(0x40)\n      dup1\n      swap2\n      sub\n      swap1\n      revert\n    tag_153:\n        /* \"Dropsite.sol\":2506:2509  100 */\n      0x64\n        /* \"Dropsite.sol\":2490:2505  TotalNFTsMinted */\n      sload(0x03)\n        /* \"Dropsite.sol\":2490:2509  TotalNFTsMinted<100 */\n      lt\n        /* \"Dropsite.sol\":2482:2539  require(TotalNFTsMinted<100, \"Max Minting Limit reached\") */\n      tag_156\n      jumpi\n      mload(0x40)\n      0x08c379a000000000000000000000000000000000000000000000000000000000\n      dup2\n      mstore\n      0x04\n      add\n      tag_157\n      swap1\n      tag_99\n      jump\t// in\n    tag_157:\n      mload(0x40)\n      dup1\n      swap2\n      sub\n      swap1\n      revert\n    tag_156:\n        /* \"Dropsite.sol\":2544:2554  uint nftId */\n      0x00\n        /* \"Dropsite.sol\":2557:2565  random() */\n      tag_158\n        /* \"Dropsite.sol\":2557:2563  random */\n      tag_101\n        /* \"Dropsite.sol\":2557:2565  random() */\n      jump\t// in\n    tag_158:\n        /* \"Dropsite.sol\":2544:2565  uint nftId = random() */\n      swap1\n      pop\n        /* \"Dropsite.sol\":2685:2686  0 */\n      0x00\n        /* \"Dropsite.sol\":2676:2681  nftId */\n      dup2\n        /* \"Dropsite.sol\":2676:2686  nftId == 0 */\n      eq\n        /* \"Dropsite.sol\":2676:2703  nftId == 0 && Platinum < 15 */\n      dup1\n      iszero\n      tag_159\n      jumpi\n      pop\n        /* \"Dropsite.sol\":2701:2703  15 */\n      0x0f\n        /* \"Dropsite.sol\":2690:2698  Platinum */\n      sload(0x05)\n        /* \"Dropsite.sol\":2690:2703  Platinum < 15 */\n      lt\n        /* \"Dropsite.sol\":2676:2703  nftId == 0 && Platinum < 15 */\n    tag_159:\n        /* \"Dropsite.sol\":2673:3097  if(nftId == 0 && Platinum < 15) {... */\n      iszero\n      tag_160\n      jumpi\n        /* \"Dropsite.sol\":2715:2732  data = \"Platinum\" */\n      mload(0x40)\n      dup1\n      0x40\n      add\n      0x40\n      mstore\n      dup1\n      0x08\n      dup2\n      mstore\n      0x20\n      add\n      0x506c6174696e756d000000000000000000000000000000000000000000000000\n      dup2\n      mstore\n      pop\n        /* \"Dropsite.sol\":2715:2719  data */\n      0x02\n        /* \"Dropsite.sol\":2715:2732  data = \"Platinum\" */\n      swap1\n      dup1\n      mload\n      swap1\n      0x20\n      add\n      swap1\n      tag_161\n      swap3\n      swap2\n      swap1\n      tag_105\n      jump\t// in\n    tag_161:\n      pop\n        /* \"Dropsite.sol\":2742:2750  Platinum */\n      0x05\n      0x00\n        /* \"Dropsite.sol\":2742:2752  Platinum++ */\n      dup2\n      sload\n      dup1\n      swap3\n      swap2\n      swap1\n      tag_162\n      swap1\n      tag_107\n      jump\t// in\n    tag_162:\n      swap2\n      swap1\n      pop\n      sstore\n      pop\n        /* \"Dropsite.sol\":2673:3097  if(nftId == 0 && Platinum < 15) {... */\n      jump(tag_163)\n    tag_160:\n        /* \"Dropsite.sol\":2853:2854  1 */\n      0x01\n        /* \"Dropsite.sol\":2844:2849  nftId */\n      dup2\n        /* \"Dropsite.sol\":2844:2854  nftId <= 1 */\n      gt\n      iszero\n        /* \"Dropsite.sol\":2844:2867  nftId <= 1 && Gold < 35 */\n      dup1\n      iszero\n      tag_164\n      jumpi\n      pop\n        /* \"Dropsite.sol\":2865:2867  35 */\n      0x23\n        /* \"Dropsite.sol\":2858:2862  Gold */\n      sload(0x06)\n        /* \"Dropsite.sol\":2858:2867  Gold < 35 */\n      lt\n        /* \"Dropsite.sol\":2844:2867  nftId <= 1 && Gold < 35 */\n    tag_164:\n        /* \"Dropsite.sol\":2841:3097  if(nftId <= 1 && Gold < 35) {... */\n      iszero\n      tag_165\n      jumpi\n        /* \"Dropsite.sol\":2879:2892  data = \"Gold\" */\n      mload(0x40)\n      dup1\n      0x40\n      add\n      0x40\n      mstore\n      dup1\n      0x04\n      dup2\n      mstore\n      0x20\n      add\n      0x476f6c6400000000000000000000000000000000000000000000000000000000\n      dup2\n      mstore\n      pop\n        /* \"Dropsite.sol\":2879:2883  data */\n      0x02\n        /* \"Dropsite.sol\":2879:2892  data = \"Gold\" */\n      swap1\n      dup1\n      mload\n      swap1\n      0x20\n      add\n      swap1\n      tag_166\n      swap3\n      swap2\n      swap1\n      tag_105\n      jump\t// in\n    tag_166:\n      pop\n        /* \"Dropsite.sol\":2902:2906  Gold */\n      0x06\n      0x00\n        /* \"Dropsite.sol\":2902:2908  Gold++ */\n      dup2\n      sload\n      dup1\n      swap3\n      swap2\n      swap1\n      tag_167\n      swap1\n      tag_107\n      jump\t// in\n    tag_167:\n      swap2\n      swap1\n      pop\n      sstore\n      pop\n        /* \"Dropsite.sol\":2841:3097  if(nftId <= 1 && Gold < 35) {... */\n      jump(tag_168)\n    tag_165:\n        /* \"Dropsite.sol\":3030:3031  2 */\n      0x02\n        /* \"Dropsite.sol\":3021:3026  nftId */\n      dup2\n        /* \"Dropsite.sol\":3021:3031  nftId <= 2 */\n      gt\n      iszero\n        /* \"Dropsite.sol\":3021:3047  nftId <= 2 && Silver <= 50 */\n      dup1\n      iszero\n      tag_169\n      jumpi\n      pop\n        /* \"Dropsite.sol\":3045:3047  50 */\n      0x32\n        /* \"Dropsite.sol\":3035:3041  Silver */\n      sload(0x07)\n        /* \"Dropsite.sol\":3035:3047  Silver <= 50 */\n      gt\n      iszero\n        /* \"Dropsite.sol\":3021:3047  nftId <= 2 && Silver <= 50 */\n    tag_169:\n        /* \"Dropsite.sol\":3018:3097  if(nftId <= 2 && Silver <= 50) {... */\n      iszero\n      tag_170\n      jumpi\n        /* \"Dropsite.sol\":3059:3072  data=\"Silver\" */\n      mload(0x40)\n      dup1\n      0x40\n      add\n      0x40\n      mstore\n      dup1\n      0x06\n      dup2\n      mstore\n      0x20\n      add\n      0x53696c7665720000000000000000000000000000000000000000000000000000\n      dup2\n      mstore\n      pop\n        /* \"Dropsite.sol\":3059:3063  data */\n      0x02\n        /* \"Dropsite.sol\":3059:3072  data=\"Silver\" */\n      swap1\n      dup1\n      mload\n      swap1\n      0x20\n      add\n      swap1\n      tag_171\n      swap3\n      swap2\n      swap1\n      tag_105\n      jump\t// in\n    tag_171:\n      pop\n        /* \"Dropsite.sol\":3082:3088  Silver */\n      0x07\n      0x00\n        /* \"Dropsite.sol\":3082:3090  Silver++ */\n      dup2\n      sload\n      dup1\n      swap3\n      swap2\n      swap1\n      tag_172\n      swap1\n      tag_107\n      jump\t// in\n    tag_172:\n      swap2\n      swap1\n      pop\n      sstore\n      pop\n        /* \"Dropsite.sol\":3018:3097  if(nftId <= 2 && Silver <= 50) {... */\n    tag_170:\n        /* \"Dropsite.sol\":2841:3097  if(nftId <= 1 && Gold < 35) {... */\n    tag_168:\n        /* \"Dropsite.sol\":2673:3097  if(nftId == 0 && Platinum < 15) {... */\n    tag_163:\n        /* \"Dropsite.sol\":3306:3348  _mint(user_addr, nftId, numOfCopies, data) */\n      tag_173\n        /* \"Dropsite.sol\":3312:3321  user_addr */\n      dup5\n        /* \"Dropsite.sol\":3323:3328  nftId */\n      dup3\n        /* \"Dropsite.sol\":3330:3341  numOfCopies */\n      sload(0x04)\n        /* \"Dropsite.sol\":3343:3347  data */\n      0x02\n        /* \"Dropsite.sol\":3306:3348  _mint(user_addr, nftId, numOfCopies, data) */\n      dup1\n      sload\n      tag_174\n      swap1\n      tag_120\n      jump\t// in\n    tag_174:\n      dup1\n      0x1f\n      add\n      0x20\n      dup1\n      swap2\n      div\n      mul\n      0x20\n      add\n      mload(0x40)\n      swap1\n      dup2\n      add\n      0x40\n      mstore\n      dup1\n      swap3\n      swap2\n      swap1\n      dup2\n      dup2\n      mstore\n      0x20\n      add\n      dup3\n      dup1\n      sload\n      tag_175\n      swap1\n      tag_120\n      jump\t// in\n    tag_175:\n      dup1\n      iszero\n      tag_176\n      jumpi\n      dup1\n      0x1f\n      lt\n      tag_177\n      jumpi\n      0x0100\n      dup1\n      dup4\n      sload\n      div\n      mul\n      dup4\n      mstore\n      swap2\n      0x20\n      add\n      swap2\n      jump(tag_176)\n    tag_177:\n      dup3\n      add\n      swap2\n      swap1\n      0x00\n      mstore\n      keccak256(0x00, 0x20)\n      swap1\n    tag_178:\n      dup2\n      sload\n      dup2\n      mstore\n      swap1\n      0x01\n      add\n      swap1\n      0x20\n      add\n      dup1\n      dup4\n      gt\n      tag_178\n      jumpi\n      dup3\n      swap1\n      sub\n      0x1f\n      and\n      dup3\n      add\n      swap2\n    tag_176:\n      pop\n      pop\n      pop\n      pop\n      pop\n        /* \"Dropsite.sol\":3306:3311  _mint */\n      tag_125\n        /* \"Dropsite.sol\":3306:3348  _mint(user_addr, nftId, numOfCopies, data) */\n      jump\t// in\n    tag_173:\n        /* \"Dropsite.sol\":3354:3369  TotalNFTsMinted */\n      0x03\n      0x00\n        /* \"Dropsite.sol\":3354:3371  TotalNFTsMinted++ */\n      dup2\n      sload\n      dup1\n      swap3\n      swap2\n      swap1\n      tag_179\n      swap1\n      tag_107\n      jump\t// in\n    tag_179:\n      swap2\n      swap1\n      pop\n      sstore\n      pop\n        /* \"Dropsite.sol\":3407:3412  nftId */\n      dup1\n        /* \"Dropsite.sol\":3377:3395  dropsite_NFT_Owner */\n      0x08\n        /* \"Dropsite.sol\":3377:3406  dropsite_NFT_Owner[user_addr] */\n      0x00\n        /* \"Dropsite.sol\":3396:3405  user_addr */\n      dup7\n        /* \"Dropsite.sol\":3377:3406  dropsite_NFT_Owner[user_addr] */\n      0xffffffffffffffffffffffffffffffffffffffff\n      and\n      0xffffffffffffffffffffffffffffffffffffffff\n      and\n      dup2\n      mstore\n      0x20\n      add\n      swap1\n      dup2\n      mstore\n      0x20\n      add\n      0x00\n      keccak256\n        /* \"Dropsite.sol\":3377:3412  dropsite_NFT_Owner[user_addr]=nftId */\n      dup2\n      swap1\n      sstore\n      pop\n        /* \"Dropsite.sol\":3426:3431  nftId */\n      dup1\n        /* \"Dropsite.sol\":3439:3443  data */\n      0x02\n        /* \"Dropsite.sol\":3418:3445  return (nftId,string(data)) */\n      dup1\n      dup1\n      sload\n      tag_180\n      swap1\n      tag_120\n      jump\t// in\n    tag_180:\n      dup1\n      0x1f\n      add\n      0x20\n      dup1\n      swap2\n      div\n      mul\n      0x20\n      add\n      mload(0x40)\n      swap1\n      dup2\n      add\n      0x40\n      mstore\n      dup1\n      swap3\n      swap2\n      swap1\n      dup2\n      dup2\n      mstore\n      0x20\n      add\n      dup3\n      dup1\n      sload\n      tag_181\n      swap1\n      tag_120\n      jump\t// in\n    tag_181:\n      dup1\n      iszero\n      tag_182\n      jumpi\n      dup1\n      0x1f\n      lt\n      tag_183\n      jumpi\n      0x0100\n      dup1\n      dup4\n      sload\n      div\n      mul\n      dup4\n      mstore\n      swap2\n      0x20\n      add\n      swap2\n      jump(tag_182)\n    tag_183:\n      dup3\n      add\n      swap2\n      swap1\n      0x00\n      mstore\n      keccak256(0x00, 0x20)\n      swap1\n    tag_184:\n      dup2\n      sload\n      dup2\n      mstore\n      swap1\n      0x01\n      add\n      swap1\n      0x20\n      add\n      dup1\n      dup4\n      gt\n      tag_184\n      jumpi\n      dup3\n      swap1\n      sub\n      0x1f\n      and\n      dup3\n      add\n      swap2\n    tag_182:\n      pop\n      pop\n      pop\n      pop\n      pop\n      swap1\n      pop\n      swap3\n      pop\n      swap3\n      pop\n      pop\n        /* \"Dropsite.sol\":2366:3452  function FiatrandomMint(address user_addr) OnlyOwner contractIsNotPaused public returns (uint,string memory) {... */\n      swap2\n      pop\n      swap2\n      jump\t// out\n        /* \"Context.sol\":640:736  function _msgSender() internal view virtual returns (address) {... */\n    tag_60:\n        /* \"Context.sol\":693:700  address */\n      0x00\n        /* \"Context.sol\":719:729  msg.sender */\n      caller\n        /* \"Context.sol\":712:729  return msg.sender */\n      swap1\n      pop\n        /* \"Context.sol\":640:736  function _msgSender() internal view virtual returns (address) {... */\n      swap1\n      jump\t// out\n        /* \"Dropsite.sol\":2184:2355  function random() internal view returns (uint) {... */\n    tag_101:\n        /* \"Dropsite.sol\":2225:2229  uint */\n      0x00\n        /* \"Dropsite.sol\":2237:2254  uint randomnumber */\n      dup1\n        /* \"Dropsite.sol\":2322:2323  3 */\n      0x03\n        /* \"Dropsite.sol\":2289:2304  block.timestamp */\n      timestamp\n        /* \"Dropsite.sol\":2306:2316  msg.sender */\n      caller\n        /* \"Dropsite.sol\":2272:2317  abi.encodePacked(block.timestamp, msg.sender) */\n      add(0x20, mload(0x40))\n      tag_187\n      swap3\n      swap2\n      swap1\n      tag_188\n      jump\t// in\n    tag_187:\n      mload(0x40)\n      0x20\n      dup2\n      dup4\n      sub\n      sub\n      dup2\n      mstore\n      swap1\n      0x40\n      mstore\n        /* \"Dropsite.sol\":2262:2318  keccak256(abi.encodePacked(block.timestamp, msg.sender)) */\n      dup1\n      mload\n      swap1\n      0x20\n      add\n      keccak256\n        /* \"Dropsite.sol\":2257:2319  uint(keccak256(abi.encodePacked(block.timestamp, msg.sender))) */\n      0x00\n      shr\n        /* \"Dropsite.sol\":2257:2323  uint(keccak256(abi.encodePacked(block.timestamp, msg.sender))) % 3 */\n      tag_189\n      swap2\n      swap1\n      tag_190\n      jump\t// in\n    tag_189:\n        /* \"Dropsite.sol\":2237:2323  uint randomnumber = uint(keccak256(abi.encodePacked(block.timestamp, msg.sender))) % 3 */\n      swap1\n      pop\n        /* \"Dropsite.sol\":2336:2348  randomnumber */\n      dup1\n        /* \"Dropsite.sol\":2329:2348  return randomnumber */\n      swap2\n      pop\n      pop\n        /* \"Dropsite.sol\":2184:2355  function random() internal view returns (uint) {... */\n      swap1\n      jump\t// out\n        /* \"ERC1155_Dropsite.sol\":835:1386  function _mint(... */\n    tag_125:\n        /* \"ERC1155_Dropsite.sol\":996:997  0 */\n      0x00\n        /* \"ERC1155_Dropsite.sol\":982:998  to != address(0) */\n      0xffffffffffffffffffffffffffffffffffffffff\n      and\n        /* \"ERC1155_Dropsite.sol\":982:984  to */\n      dup5\n        /* \"ERC1155_Dropsite.sol\":982:998  to != address(0) */\n      0xffffffffffffffffffffffffffffffffffffffff\n      and\n      eq\n      iszero\n        /* \"ERC1155_Dropsite.sol\":974:1036  require(to != address(0), \"ERC1155: mint to the zero address\") */\n      tag_192\n      jumpi\n      mload(0x40)\n      0x08c379a000000000000000000000000000000000000000000000000000000000\n      dup2\n      mstore\n      0x04\n      add\n      tag_193\n      swap1\n      tag_194\n      jump\t// in\n    tag_193:\n      mload(0x40)\n      dup1\n      swap2\n      sub\n      swap1\n      revert\n    tag_192:\n        /* \"ERC1155_Dropsite.sol\":1047:1063  address operator */\n      0x00\n        /* \"ERC1155_Dropsite.sol\":1066:1078  _msgSender() */\n      tag_195\n        /* \"ERC1155_Dropsite.sol\":1066:1076  _msgSender */\n      tag_60\n        /* \"ERC1155_Dropsite.sol\":1066:1078  _msgSender() */\n      jump\t// in\n    tag_195:\n        /* \"ERC1155_Dropsite.sol\":1047:1078  address operator = _msgSender() */\n      swap1\n      pop\n        /* \"ERC1155_Dropsite.sol\":1089:1191  _beforeTokenTransfer(operator, address(0), to, _asSingletonArray(id), _asSingletonArray(amount), data) */\n      tag_196\n        /* \"ERC1155_Dropsite.sol\":1110:1118  operator */\n      dup2\n        /* \"ERC1155_Dropsite.sol\":1128:1129  0 */\n      0x00\n        /* \"ERC1155_Dropsite.sol\":1132:1134  to */\n      dup8\n        /* \"ERC1155_Dropsite.sol\":1136:1157  _asSingletonArray(id) */\n      tag_197\n        /* \"ERC1155_Dropsite.sol\":1154:1156  id */\n      dup9\n        /* \"ERC1155_Dropsite.sol\":1136:1153  _asSingletonArray */\n      tag_198\n        /* \"ERC1155_Dropsite.sol\":1136:1157  _asSingletonArray(id) */\n      jump\t// in\n    tag_197:\n        /* \"ERC1155_Dropsite.sol\":1159:1184  _asSingletonArray(amount) */\n      tag_199\n        /* \"ERC1155_Dropsite.sol\":1177:1183  amount */\n      dup9\n        /* \"ERC1155_Dropsite.sol\":1159:1176  _asSingletonArray */\n      tag_198\n        /* \"ERC1155_Dropsite.sol\":1159:1184  _asSingletonArray(amount) */\n      jump\t// in\n    tag_199:\n        /* \"ERC1155_Dropsite.sol\":1186:1190  data */\n      dup8\n        /* \"ERC1155_Dropsite.sol\":1089:1109  _beforeTokenTransfer */\n      tag_200\n        /* \"ERC1155_Dropsite.sol\":1089:1191  _beforeTokenTransfer(operator, address(0), to, _asSingletonArray(id), _asSingletonArray(amount), data) */\n      jump\t// in\n    tag_196:\n        /* \"ERC1155_Dropsite.sol\":1222:1228  amount */\n      dup3\n        /* \"ERC1155_Dropsite.sol\":1201:1210  _balances */\n      0x00\n        /* \"ERC1155_Dropsite.sol\":1201:1214  _balances[id] */\n      dup1\n        /* \"ERC1155_Dropsite.sol\":1211:1213  id */\n      dup7\n        /* \"ERC1155_Dropsite.sol\":1201:1214  _balances[id] */\n      dup2\n      mstore\n      0x20\n      add\n      swap1\n      dup2\n      mstore\n      0x20\n      add\n      0x00\n      keccak256\n        /* \"ERC1155_Dropsite.sol\":1201:1218  _balances[id][to] */\n      0x00\n        /* \"ERC1155_Dropsite.sol\":1215:1217  to */\n      dup8\n        /* \"ERC1155_Dropsite.sol\":1201:1218  _balances[id][to] */\n      0xffffffffffffffffffffffffffffffffffffffff\n      and\n      0xffffffffffffffffffffffffffffffffffffffff\n      and\n      dup2\n      mstore\n      0x20\n      add\n      swap1\n      dup2\n      mstore\n      0x20\n      add\n      0x00\n      keccak256\n      0x00\n        /* \"ERC1155_Dropsite.sol\":1201:1228  _balances[id][to] += amount */\n      dup3\n      dup3\n      sload\n      tag_201\n      swap2\n      swap1\n      tag_202\n      jump\t// in\n    tag_201:\n      swap3\n      pop\n      pop\n      dup2\n      swap1\n      sstore\n      pop\n        /* \"ERC1155_Dropsite.sol\":1280:1282  to */\n      dup5\n        /* \"ERC1155_Dropsite.sol\":1243:1295  TransferSingle(operator, address(0), to, id, amount) */\n      0xffffffffffffffffffffffffffffffffffffffff\n      and\n        /* \"ERC1155_Dropsite.sol\":1276:1277  0 */\n      0x00\n        /* \"ERC1155_Dropsite.sol\":1243:1295  TransferSingle(operator, address(0), to, id, amount) */\n      0xffffffffffffffffffffffffffffffffffffffff\n      and\n        /* \"ERC1155_Dropsite.sol\":1258:1266  operator */\n      dup3\n        /* \"ERC1155_Dropsite.sol\":1243:1295  TransferSingle(operator, address(0), to, id, amount) */\n      0xffffffffffffffffffffffffffffffffffffffff\n      and\n      0xc3d58168c5ae7397731d063d5bbf3d657854427343f4c083240f7aacaa2d0f62\n        /* \"ERC1155_Dropsite.sol\":1284:1286  id */\n      dup8\n        /* \"ERC1155_Dropsite.sol\":1288:1294  amount */\n      dup8\n        /* \"ERC1155_Dropsite.sol\":1243:1295  TransferSingle(operator, address(0), to, id, amount) */\n      mload(0x40)\n      tag_203\n      swap3\n      swap2\n      swap1\n      tag_204\n      jump\t// in\n    tag_203:\n      mload(0x40)\n      dup1\n      swap2\n      sub\n      swap1\n      log4\n        /* \"ERC1155_Dropsite.sol\":1305:1379  _doSafeTransferAcceptanceCheck(operator, address(0), to, id, amount, data) */\n      tag_205\n        /* \"ERC1155_Dropsite.sol\":1336:1344  operator */\n      dup2\n        /* \"ERC1155_Dropsite.sol\":1354:1355  0 */\n      0x00\n        /* \"ERC1155_Dropsite.sol\":1358:1360  to */\n      dup8\n        /* \"ERC1155_Dropsite.sol\":1362:1364  id */\n      dup8\n        /* \"ERC1155_Dropsite.sol\":1366:1372  amount */\n      dup8\n        /* \"ERC1155_Dropsite.sol\":1374:1378  data */\n      dup8\n        /* \"ERC1155_Dropsite.sol\":1305:1335  _doSafeTransferAcceptanceCheck */\n      tag_206\n        /* \"ERC1155_Dropsite.sol\":1305:1379  _doSafeTransferAcceptanceCheck(operator, address(0), to, id, amount, data) */\n      jump\t// in\n    tag_205:\n        /* \"ERC1155_Dropsite.sol\":964:1386  {... */\n      pop\n        /* \"ERC1155_Dropsite.sol\":835:1386  function _mint(... */\n      pop\n      pop\n      pop\n      pop\n      jump\t// out\n        /* \"Dropsite.sol\":3462:3593  function depositBidAmmount(address payee,uint amountToDeposit) internal {... */\n    tag_128:\n        /* \"Dropsite.sol\":3571:3586  amountToDeposit */\n      dup1\n        /* \"Dropsite.sol\":3552:3560  deposits */\n      0x0a\n        /* \"Dropsite.sol\":3552:3567  deposits[payee] */\n      0x00\n        /* \"Dropsite.sol\":3561:3566  payee */\n      dup5\n        /* \"Dropsite.sol\":3552:3567  deposits[payee] */\n      0xffffffffffffffffffffffffffffffffffffffff\n      and\n      0xffffffffffffffffffffffffffffffffffffffff\n      and\n      dup2\n      mstore\n      0x20\n      add\n      swap1\n      dup2\n      mstore\n      0x20\n      add\n      0x00\n      keccak256\n      0x00\n        /* \"Dropsite.sol\":3552:3586  deposits[payee] += amountToDeposit */\n      dup3\n      dup3\n      sload\n      tag_208\n      swap2\n      swap1\n      tag_202\n      jump\t// in\n    tag_208:\n      swap3\n      pop\n      pop\n      dup2\n      swap1\n      sstore\n      pop\n        /* \"Dropsite.sol\":3462:3593  function depositBidAmmount(address payee,uint amountToDeposit) internal {... */\n      pop\n      pop\n      jump\t// out\n        /* \"ERC1155_Dropsite.sol\":2344:2537  function _asSingletonArray(uint256 element) private pure returns (uint256[] memory) {... */\n    tag_198:\n        /* \"ERC1155_Dropsite.sol\":2410:2426  uint256[] memory */\n      0x60\n        /* \"ERC1155_Dropsite.sol\":2438:2460  uint256[] memory array */\n      0x00\n        /* \"ERC1155_Dropsite.sol\":2477:2478  1 */\n      0x01\n        /* \"ERC1155_Dropsite.sol\":2463:2479  new uint256[](1) */\n      0xffffffffffffffff\n      dup2\n      gt\n      iszero\n      tag_210\n      jumpi\n      tag_211\n      tag_212\n      jump\t// in\n    tag_211:\n    tag_210:\n      mload(0x40)\n      swap1\n      dup1\n      dup3\n      mstore\n      dup1\n      0x20\n      mul\n      0x20\n      add\n      dup3\n      add\n      0x40\n      mstore\n      dup1\n      iszero\n      tag_213\n      jumpi\n      dup2\n      0x20\n      add\n      0x20\n      dup3\n      mul\n      dup1\n      calldatasize\n      dup4\n      calldatacopy\n      dup1\n      dup3\n      add\n      swap2\n      pop\n      pop\n      swap1\n      pop\n    tag_213:\n      pop\n        /* \"ERC1155_Dropsite.sol\":2438:2479  uint256[] memory array = new uint256[](1) */\n      swap1\n      pop\n        /* \"ERC1155_Dropsite.sol\":2500:2507  element */\n      dup3\n        /* \"ERC1155_Dropsite.sol\":2489:2494  array */\n      dup2\n        /* \"ERC1155_Dropsite.sol\":2495:2496  0 */\n      0x00\n        /* \"ERC1155_Dropsite.sol\":2489:2497  array[0] */\n      dup2\n      mload\n      dup2\n      lt\n      tag_214\n      jumpi\n      tag_215\n      tag_216\n      jump\t// in\n    tag_215:\n    tag_214:\n      0x20\n      mul\n      0x20\n      add\n      add\n        /* \"ERC1155_Dropsite.sol\":2489:2507  array[0] = element */\n      dup2\n      dup2\n      mstore\n      pop\n      pop\n        /* \"ERC1155_Dropsite.sol\":2525:2530  array */\n      dup1\n        /* \"ERC1155_Dropsite.sol\":2518:2530  return array */\n      swap2\n      pop\n      pop\n        /* \"ERC1155_Dropsite.sol\":2344:2537  function _asSingletonArray(uint256 element) private pure returns (uint256[] memory) {... */\n      swap2\n      swap1\n      pop\n      jump\t// out\n        /* \"ERC1155_Dropsite.sol\":1393:1607  function _beforeTokenTransfer(... */\n    tag_200:\n      pop\n      pop\n      pop\n      pop\n      pop\n      pop\n      jump\t// out\n        /* \"ERC1155_Dropsite.sol\":1613:2338  function _doSafeTransferAcceptanceCheck(... */\n    tag_206:\n        /* \"ERC1155_Dropsite.sol\":1820:1835  to.isContract() */\n      tag_219\n        /* \"ERC1155_Dropsite.sol\":1820:1822  to */\n      dup5\n        /* \"ERC1155_Dropsite.sol\":1820:1833  to.isContract */\n      0xffffffffffffffffffffffffffffffffffffffff\n      and\n      tag_220\n        /* \"ERC1155_Dropsite.sol\":1820:1835  to.isContract() */\n      jump\t// in\n    tag_219:\n        /* \"ERC1155_Dropsite.sol\":1816:2332  if (to.isContract()) {... */\n      iszero\n      tag_221\n      jumpi\n        /* \"ERC1155_Dropsite.sol\":1872:1874  to */\n      dup4\n        /* \"ERC1155_Dropsite.sol\":1855:1893  IERC1155Receiver(to).onERC1155Received */\n      0xffffffffffffffffffffffffffffffffffffffff\n      and\n      0xf23a6e61\n        /* \"ERC1155_Dropsite.sol\":1894:1902  operator */\n      dup8\n        /* \"ERC1155_Dropsite.sol\":1904:1908  from */\n      dup8\n        /* \"ERC1155_Dropsite.sol\":1910:1912  id */\n      dup7\n        /* \"ERC1155_Dropsite.sol\":1914:1920  amount */\n      dup7\n        /* \"ERC1155_Dropsite.sol\":1922:1926  data */\n      dup7\n        /* \"ERC1155_Dropsite.sol\":1855:1927  IERC1155Receiver(to).onERC1155Received(operator, from, id, amount, data) */\n      mload(0x40)\n      dup7\n      0xffffffff\n      and\n      0xe0\n      shl\n      dup2\n      mstore\n      0x04\n      add\n      tag_222\n      swap6\n      swap5\n      swap4\n      swap3\n      swap2\n      swap1\n      tag_223\n      jump\t// in\n    tag_222:\n      0x20\n      mload(0x40)\n      dup1\n      dup4\n      sub\n      dup2\n      0x00\n      dup8\n      dup1\n      extcodesize\n      iszero\n      dup1\n      iszero\n      tag_224\n      jumpi\n      0x00\n      dup1\n      revert\n    tag_224:\n      pop\n      gas\n      call\n      swap3\n      pop\n      pop\n      pop\n      dup1\n      iszero\n      tag_225\n      jumpi\n      pop\n      mload(0x40)\n      returndatasize\n      not(0x1f)\n      0x1f\n      dup3\n      add\n      and\n      dup3\n      add\n      dup1\n      0x40\n      mstore\n      pop\n      dup2\n      add\n      swap1\n      tag_226\n      swap2\n      swap1\n      tag_227\n      jump\t// in\n    tag_226:\n      0x01\n    tag_225:\n        /* \"ERC1155_Dropsite.sol\":1851:2322  try IERC1155Receiver(to).onERC1155Received(operator, from, id, amount, data) returns (bytes4 response) {... */\n      tag_228\n      jumpi\n      tag_232\n      tag_233\n      jump\t// in\n    tag_232:\n      dup1\n      0x08c379a0\n      eq\n      iszero\n      tag_231\n      jumpi\n      pop\n      tag_234\n      tag_235\n      jump\t// in\n    tag_234:\n      dup1\n      tag_236\n      jumpi\n      pop\n      jump(tag_230)\n    tag_236:\n        /* \"ERC1155_Dropsite.sol\":2198:2204  reason */\n      dup1\n        /* \"ERC1155_Dropsite.sol\":2191:2205  revert(reason) */\n      mload(0x40)\n      0x08c379a000000000000000000000000000000000000000000000000000000000\n      dup2\n      mstore\n      0x04\n      add\n      tag_237\n      swap2\n      swap1\n      tag_238\n      jump\t// in\n    tag_237:\n      mload(0x40)\n      dup1\n      swap2\n      sub\n      swap1\n      revert\n        /* \"ERC1155_Dropsite.sol\":1851:2322  try IERC1155Receiver(to).onERC1155Received(operator, from, id, amount, data) returns (bytes4 response) {... */\n    tag_231:\n      pop\n    tag_230:\n        /* \"ERC1155_Dropsite.sol\":2245:2307  revert(\"ERC1155: transfer to non ERC1155Receiver implementer\") */\n      mload(0x40)\n      0x08c379a000000000000000000000000000000000000000000000000000000000\n      dup2\n      mstore\n      0x04\n      add\n      tag_239\n      swap1\n      tag_240\n      jump\t// in\n    tag_239:\n      mload(0x40)\n      dup1\n      swap2\n      sub\n      swap1\n      revert\n        /* \"ERC1155_Dropsite.sol\":1851:2322  try IERC1155Receiver(to).onERC1155Received(operator, from, id, amount, data) returns (bytes4 response) {... */\n    tag_228:\n        /* \"ERC1155_Dropsite.sol\":1988:2031  IERC1155Receiver.onERC1155Received.selector */\n      shl(0xe0, 0xf23a6e61)\n        /* \"ERC1155_Dropsite.sol\":1976:2031  response != IERC1155Receiver.onERC1155Received.selector */\n      not(0xffffffffffffffffffffffffffffffffffffffffffffffffffffffff)\n      and\n        /* \"ERC1155_Dropsite.sol\":1976:1984  response */\n      dup2\n        /* \"ERC1155_Dropsite.sol\":1976:2031  response != IERC1155Receiver.onERC1155Received.selector */\n      not(0xffffffffffffffffffffffffffffffffffffffffffffffffffffffff)\n      and\n      eq\n        /* \"ERC1155_Dropsite.sol\":1972:2124  if (response != IERC1155Receiver.onERC1155Received.selector) {... */\n      tag_242\n      jumpi\n        /* \"ERC1155_Dropsite.sol\":2055:2105  revert(\"ERC1155: ERC1155Receiver rejected tokens\") */\n      mload(0x40)\n      0x08c379a000000000000000000000000000000000000000000000000000000000\n      dup2\n      mstore\n      0x04\n      add\n      tag_243\n      swap1\n      tag_244\n      jump\t// in\n    tag_243:\n      mload(0x40)\n      dup1\n      swap2\n      sub\n      swap1\n      revert\n        /* \"ERC1155_Dropsite.sol\":1972:2124  if (response != IERC1155Receiver.onERC1155Received.selector) {... */\n    tag_242:\n        /* \"ERC1155_Dropsite.sol\":1928:2138  returns (bytes4 response) {... */\n      pop\n        /* \"ERC1155_Dropsite.sol\":1816:2332  if (to.isContract()) {... */\n    tag_221:\n        /* \"ERC1155_Dropsite.sol\":1613:2338  function _doSafeTransferAcceptanceCheck(... */\n      pop\n      pop\n      pop\n      pop\n      pop\n      pop\n      jump\t// out\n        /* \"Address.sol\":771:1148  function isContract(address account) internal view returns (bool) {... */\n    tag_220:\n        /* \"Address.sol\":831:835  bool */\n      0x00\n        /* \"Address.sol\":1034:1046  uint256 size */\n      dup1\n        /* \"Address.sol\":1099:1106  account */\n      dup3\n        /* \"Address.sol\":1087:1107  extcodesize(account) */\n      extcodesize\n        /* \"Address.sol\":1079:1107  size := extcodesize(account) */\n      swap1\n      pop\n        /* \"Address.sol\":1140:1141  0 */\n      0x00\n        /* \"Address.sol\":1133:1137  size */\n      dup2\n        /* \"Address.sol\":1133:1141  size > 0 */\n      gt\n        /* \"Address.sol\":1126:1141  return size > 0 */\n      swap2\n      pop\n      pop\n        /* \"Address.sol\":771:1148  function isContract(address account) internal view returns (bool) {... */\n      swap2\n      swap1\n      pop\n      jump\t// out\n    tag_105:\n      dup3\n      dup1\n      sload\n      tag_246\n      swap1\n      tag_120\n      jump\t// in\n    tag_246:\n      swap1\n      0x00\n      mstore\n      keccak256(0x00, 0x20)\n      swap1\n      0x1f\n      add\n      0x20\n      swap1\n      div\n      dup2\n      add\n      swap3\n      dup3\n      tag_248\n      jumpi\n      0x00\n      dup6\n      sstore\n      jump(tag_247)\n    tag_248:\n      dup3\n      0x1f\n      lt\n      tag_249\n      jumpi\n      dup1\n      mload\n      not(0xff)\n      and\n      dup4\n      dup1\n      add\n      or\n      dup6\n      sstore\n      jump(tag_247)\n    tag_249:\n      dup3\n      dup1\n      add\n      0x01\n      add\n      dup6\n      sstore\n      dup3\n      iszero\n      tag_247\n      jumpi\n      swap2\n      dup3\n      add\n    tag_250:\n      dup3\n      dup2\n      gt\n      iszero\n      tag_251\n      jumpi\n      dup3\n      mload\n      dup3\n      sstore\n      swap2\n      0x20\n      add\n      swap2\n      swap1\n      0x01\n      add\n      swap1\n      jump(tag_250)\n    tag_251:\n    tag_247:\n      pop\n      swap1\n      pop\n      tag_252\n      swap2\n      swap1\n      tag_253\n      jump\t// in\n    tag_252:\n      pop\n      swap1\n      jump\t// out\n    tag_253:\n    tag_254:\n      dup1\n      dup3\n      gt\n      iszero\n      tag_255\n      jumpi\n      0x00\n      dup2\n      0x00\n      swap1\n      sstore\n      pop\n      0x01\n      add\n      jump(tag_254)\n    tag_255:\n      pop\n      swap1\n      jump\t// out\n        /* \"#utility.yul\":7:146   */\n    tag_257:\n        /* \"#utility.yul\":53:58   */\n      0x00\n        /* \"#utility.yul\":91:97   */\n      dup2\n        /* \"#utility.yul\":78:98   */\n      calldataload\n        /* \"#utility.yul\":69:98   */\n      swap1\n      pop\n        /* \"#utility.yul\":107:140   */\n      tag_259\n        /* \"#utility.yul\":134:139   */\n      dup2\n        /* \"#utility.yul\":107:140   */\n      tag_260\n      jump\t// in\n    tag_259:\n        /* \"#utility.yul\":7:146   */\n      swap3\n      swap2\n      pop\n      pop\n      jump\t// out\n        /* \"#utility.yul\":152:307   */\n    tag_261:\n        /* \"#utility.yul\":206:211   */\n      0x00\n        /* \"#utility.yul\":244:250   */\n      dup2\n        /* \"#utility.yul\":231:251   */\n      calldataload\n        /* \"#utility.yul\":222:251   */\n      swap1\n      pop\n        /* \"#utility.yul\":260:301   */\n      tag_263\n        /* \"#utility.yul\":295:300   */\n      dup2\n        /* \"#utility.yul\":260:301   */\n      tag_264\n      jump\t// in\n    tag_263:\n        /* \"#utility.yul\":152:307   */\n      swap3\n      swap2\n      pop\n      pop\n      jump\t// out\n        /* \"#utility.yul\":313:454   */\n    tag_265:\n        /* \"#utility.yul\":369:374   */\n      0x00\n        /* \"#utility.yul\":400:406   */\n      dup2\n        /* \"#utility.yul\":394:407   */\n      mload\n        /* \"#utility.yul\":385:407   */\n      swap1\n      pop\n        /* \"#utility.yul\":416:448   */\n      tag_267\n        /* \"#utility.yul\":442:447   */\n      dup2\n        /* \"#utility.yul\":416:448   */\n      tag_268\n      jump\t// in\n    tag_267:\n        /* \"#utility.yul\":313:454   */\n      swap3\n      swap2\n      pop\n      pop\n      jump\t// out\n        /* \"#utility.yul\":460:789   */\n    tag_36:\n        /* \"#utility.yul\":519:525   */\n      0x00\n        /* \"#utility.yul\":568:570   */\n      0x20\n        /* \"#utility.yul\":556:565   */\n      dup3\n        /* \"#utility.yul\":547:554   */\n      dup5\n        /* \"#utility.yul\":543:566   */\n      sub\n        /* \"#utility.yul\":539:571   */\n      slt\n        /* \"#utility.yul\":536:655   */\n      iszero\n      tag_270\n      jumpi\n        /* \"#utility.yul\":574:653   */\n      tag_271\n      tag_272\n      jump\t// in\n    tag_271:\n        /* \"#utility.yul\":536:655   */\n    tag_270:\n        /* \"#utility.yul\":694:695   */\n      0x00\n        /* \"#utility.yul\":719:772   */\n      tag_273\n        /* \"#utility.yul\":764:771   */\n      dup5\n        /* \"#utility.yul\":755:761   */\n      dup3\n        /* \"#utility.yul\":744:753   */\n      dup6\n        /* \"#utility.yul\":740:762   */\n      add\n        /* \"#utility.yul\":719:772   */\n      tag_257\n      jump\t// in\n    tag_273:\n        /* \"#utility.yul\":709:772   */\n      swap2\n      pop\n        /* \"#utility.yul\":665:782   */\n      pop\n        /* \"#utility.yul\":460:789   */\n      swap3\n      swap2\n      pop\n      pop\n      jump\t// out\n        /* \"#utility.yul\":795:1140   */\n    tag_20:\n        /* \"#utility.yul\":862:868   */\n      0x00\n        /* \"#utility.yul\":911:913   */\n      0x20\n        /* \"#utility.yul\":899:908   */\n      dup3\n        /* \"#utility.yul\":890:897   */\n      dup5\n        /* \"#utility.yul\":886:909   */\n      sub\n        /* \"#utility.yul\":882:914   */\n      slt\n        /* \"#utility.yul\":879:998   */\n      iszero\n      tag_275\n      jumpi\n        /* \"#utility.yul\":917:996   */\n      tag_276\n      tag_272\n      jump\t// in\n    tag_276:\n        /* \"#utility.yul\":879:998   */\n    tag_275:\n        /* \"#utility.yul\":1037:1038   */\n      0x00\n        /* \"#utility.yul\":1062:1123   */\n      tag_277\n        /* \"#utility.yul\":1115:1122   */\n      dup5\n        /* \"#utility.yul\":1106:1112   */\n      dup3\n        /* \"#utility.yul\":1095:1104   */\n      dup6\n        /* \"#utility.yul\":1091:1113   */\n      add\n        /* \"#utility.yul\":1062:1123   */\n      tag_261\n      jump\t// in\n    tag_277:\n        /* \"#utility.yul\":1052:1123   */\n      swap2\n      pop\n        /* \"#utility.yul\":1008:1133   */\n      pop\n        /* \"#utility.yul\":795:1140   */\n      swap3\n      swap2\n      pop\n      pop\n      jump\t// out\n        /* \"#utility.yul\":1146:1495   */\n    tag_227:\n        /* \"#utility.yul\":1215:1221   */\n      0x00\n        /* \"#utility.yul\":1264:1266   */\n      0x20\n        /* \"#utility.yul\":1252:1261   */\n      dup3\n        /* \"#utility.yul\":1243:1250   */\n      dup5\n        /* \"#utility.yul\":1239:1262   */\n      sub\n        /* \"#utility.yul\":1235:1267   */\n      slt\n        /* \"#utility.yul\":1232:1351   */\n      iszero\n      tag_279\n      jumpi\n        /* \"#utility.yul\":1270:1349   */\n      tag_280\n      tag_272\n      jump\t// in\n    tag_280:\n        /* \"#utility.yul\":1232:1351   */\n    tag_279:\n        /* \"#utility.yul\":1390:1391   */\n      0x00\n        /* \"#utility.yul\":1415:1478   */\n      tag_281\n        /* \"#utility.yul\":1470:1477   */\n      dup5\n        /* \"#utility.yul\":1461:1467   */\n      dup3\n        /* \"#utility.yul\":1450:1459   */\n      dup6\n        /* \"#utility.yul\":1446:1468   */\n      add\n        /* \"#utility.yul\":1415:1478   */\n      tag_265\n      jump\t// in\n    tag_281:\n        /* \"#utility.yul\":1405:1478   */\n      swap2\n      pop\n        /* \"#utility.yul\":1361:1488   */\n      pop\n        /* \"#utility.yul\":1146:1495   */\n      swap3\n      swap2\n      pop\n      pop\n      jump\t// out\n        /* \"#utility.yul\":1501:1643   */\n    tag_282:\n        /* \"#utility.yul\":1604:1636   */\n      tag_284\n        /* \"#utility.yul\":1630:1635   */\n      dup2\n        /* \"#utility.yul\":1604:1636   */\n      tag_285\n      jump\t// in\n    tag_284:\n        /* \"#utility.yul\":1599:1602   */\n      dup3\n        /* \"#utility.yul\":1592:1637   */\n      mstore\n        /* \"#utility.yul\":1501:1643   */\n      pop\n      pop\n      jump\t// out\n        /* \"#utility.yul\":1649:1767   */\n    tag_286:\n        /* \"#utility.yul\":1736:1760   */\n      tag_288\n        /* \"#utility.yul\":1754:1759   */\n      dup2\n        /* \"#utility.yul\":1736:1760   */\n      tag_289\n      jump\t// in\n    tag_288:\n        /* \"#utility.yul\":1731:1734   */\n      dup3\n        /* \"#utility.yul\":1724:1761   */\n      mstore\n        /* \"#utility.yul\":1649:1767   */\n      pop\n      pop\n      jump\t// out\n        /* \"#utility.yul\":1773:1930   */\n    tag_290:\n        /* \"#utility.yul\":1878:1923   */\n      tag_292\n        /* \"#utility.yul\":1898:1922   */\n      tag_293\n        /* \"#utility.yul\":1916:1921   */\n      dup3\n        /* \"#utility.yul\":1898:1922   */\n      tag_289\n      jump\t// in\n    tag_293:\n        /* \"#utility.yul\":1878:1923   */\n      tag_294\n      jump\t// in\n    tag_292:\n        /* \"#utility.yul\":1873:1876   */\n      dup3\n        /* \"#utility.yul\":1866:1924   */\n      mstore\n        /* \"#utility.yul\":1773:1930   */\n      pop\n      pop\n      jump\t// out\n        /* \"#utility.yul\":1936:2045   */\n    tag_295:\n        /* \"#utility.yul\":2017:2038   */\n      tag_297\n        /* \"#utility.yul\":2032:2037   */\n      dup2\n        /* \"#utility.yul\":2017:2038   */\n      tag_298\n      jump\t// in\n    tag_297:\n        /* \"#utility.yul\":2012:2015   */\n      dup3\n        /* \"#utility.yul\":2005:2039   */\n      mstore\n        /* \"#utility.yul\":1936:2045   */\n      pop\n      pop\n      jump\t// out\n        /* \"#utility.yul\":2051:2411   */\n    tag_299:\n        /* \"#utility.yul\":2137:2140   */\n      0x00\n        /* \"#utility.yul\":2165:2203   */\n      tag_301\n        /* \"#utility.yul\":2197:2202   */\n      dup3\n        /* \"#utility.yul\":2165:2203   */\n      tag_302\n      jump\t// in\n    tag_301:\n        /* \"#utility.yul\":2219:2289   */\n      tag_303\n        /* \"#utility.yul\":2282:2288   */\n      dup2\n        /* \"#utility.yul\":2277:2280   */\n      dup6\n        /* \"#utility.yul\":2219:2289   */\n      tag_304\n      jump\t// in\n    tag_303:\n        /* \"#utility.yul\":2212:2289   */\n      swap4\n      pop\n        /* \"#utility.yul\":2298:2350   */\n      tag_305\n        /* \"#utility.yul\":2343:2349   */\n      dup2\n        /* \"#utility.yul\":2338:2341   */\n      dup6\n        /* \"#utility.yul\":2331:2335   */\n      0x20\n        /* \"#utility.yul\":2324:2329   */\n      dup7\n        /* \"#utility.yul\":2320:2336   */\n      add\n        /* \"#utility.yul\":2298:2350   */\n      tag_306\n      jump\t// in\n    tag_305:\n        /* \"#utility.yul\":2375:2404   */\n      tag_307\n        /* \"#utility.yul\":2397:2403   */\n      dup2\n        /* \"#utility.yul\":2375:2404   */\n      tag_308\n      jump\t// in\n    tag_307:\n        /* \"#utility.yul\":2370:2373   */\n      dup5\n        /* \"#utility.yul\":2366:2405   */\n      add\n        /* \"#utility.yul\":2359:2405   */\n      swap2\n      pop\n        /* \"#utility.yul\":2141:2411   */\n      pop\n        /* \"#utility.yul\":2051:2411   */\n      swap3\n      swap2\n      pop\n      pop\n      jump\t// out\n        /* \"#utility.yul\":2417:2781   */\n    tag_309:\n        /* \"#utility.yul\":2505:2508   */\n      0x00\n        /* \"#utility.yul\":2533:2572   */\n      tag_311\n        /* \"#utility.yul\":2566:2571   */\n      dup3\n        /* \"#utility.yul\":2533:2572   */\n      tag_312\n      jump\t// in\n    tag_311:\n        /* \"#utility.yul\":2588:2659   */\n      tag_313\n        /* \"#utility.yul\":2652:2658   */\n      dup2\n        /* \"#utility.yul\":2647:2650   */\n      dup6\n        /* \"#utility.yul\":2588:2659   */\n      tag_314\n      jump\t// in\n    tag_313:\n        /* \"#utility.yul\":2581:2659   */\n      swap4\n      pop\n        /* \"#utility.yul\":2668:2720   */\n      tag_315\n        /* \"#utility.yul\":2713:2719   */\n      dup2\n        /* \"#utility.yul\":2708:2711   */\n      dup6\n        /* \"#utility.yul\":2701:2705   */\n      0x20\n        /* \"#utility.yul\":2694:2699   */\n      dup7\n        /* \"#utility.yul\":2690:2706   */\n      add\n        /* \"#utility.yul\":2668:2720   */\n      tag_306\n      jump\t// in\n    tag_315:\n        /* \"#utility.yul\":2745:2774   */\n      tag_316\n        /* \"#utility.yul\":2767:2773   */\n      dup2\n        /* \"#utility.yul\":2745:2774   */\n      tag_308\n      jump\t// in\n    tag_316:\n        /* \"#utility.yul\":2740:2743   */\n      dup5\n        /* \"#utility.yul\":2736:2775   */\n      add\n        /* \"#utility.yul\":2729:2775   */\n      swap2\n      pop\n        /* \"#utility.yul\":2509:2781   */\n      pop\n        /* \"#utility.yul\":2417:2781   */\n      swap3\n      swap2\n      pop\n      pop\n      jump\t// out\n        /* \"#utility.yul\":2787:3153   */\n    tag_317:\n        /* \"#utility.yul\":2929:2932   */\n      0x00\n        /* \"#utility.yul\":2950:3017   */\n      tag_319\n        /* \"#utility.yul\":3014:3016   */\n      0x34\n        /* \"#utility.yul\":3009:3012   */\n      dup4\n        /* \"#utility.yul\":2950:3017   */\n      tag_314\n      jump\t// in\n    tag_319:\n        /* \"#utility.yul\":2943:3017   */\n      swap2\n      pop\n        /* \"#utility.yul\":3026:3119   */\n      tag_320\n        /* \"#utility.yul\":3115:3118   */\n      dup3\n        /* \"#utility.yul\":3026:3119   */\n      tag_321\n      jump\t// in\n    tag_320:\n        /* \"#utility.yul\":3144:3146   */\n      0x40\n        /* \"#utility.yul\":3139:3142   */\n      dup3\n        /* \"#utility.yul\":3135:3147   */\n      add\n        /* \"#utility.yul\":3128:3147   */\n      swap1\n      pop\n        /* \"#utility.yul\":2787:3153   */\n      swap2\n      swap1\n      pop\n      jump\t// out\n        /* \"#utility.yul\":3159:3525   */\n    tag_322:\n        /* \"#utility.yul\":3301:3304   */\n      0x00\n        /* \"#utility.yul\":3322:3389   */\n      tag_324\n        /* \"#utility.yul\":3386:3388   */\n      0x28\n        /* \"#utility.yul\":3381:3384   */\n      dup4\n        /* \"#utility.yul\":3322:3389   */\n      tag_314\n      jump\t// in\n    tag_324:\n        /* \"#utility.yul\":3315:3389   */\n      swap2\n      pop\n        /* \"#utility.yul\":3398:3491   */\n      tag_325\n        /* \"#utility.yul\":3487:3490   */\n      dup3\n        /* \"#utility.yul\":3398:3491   */\n      tag_326\n      jump\t// in\n    tag_325:\n        /* \"#utility.yul\":3516:3518   */\n      0x40\n        /* \"#utility.yul\":3511:3514   */\n      dup3\n        /* \"#utility.yul\":3507:3519   */\n      add\n        /* \"#utility.yul\":3500:3519   */\n      swap1\n      pop\n        /* \"#utility.yul\":3159:3525   */\n      swap2\n      swap1\n      pop\n      jump\t// out\n        /* \"#utility.yul\":3531:3897   */\n    tag_327:\n        /* \"#utility.yul\":3673:3676   */\n      0x00\n        /* \"#utility.yul\":3694:3761   */\n      tag_329\n        /* \"#utility.yul\":3758:3760   */\n      0x1b\n        /* \"#utility.yul\":3753:3756   */\n      dup4\n        /* \"#utility.yul\":3694:3761   */\n      tag_314\n      jump\t// in\n    tag_329:\n        /* \"#utility.yul\":3687:3761   */\n      swap2\n      pop\n        /* \"#utility.yul\":3770:3863   */\n      tag_330\n        /* \"#utility.yul\":3859:3862   */\n      dup3\n        /* \"#utility.yul\":3770:3863   */\n      tag_331\n      jump\t// in\n    tag_330:\n        /* \"#utility.yul\":3888:3890   */\n      0x20\n        /* \"#utility.yul\":3883:3886   */\n      dup3\n        /* \"#utility.yul\":3879:3891   */\n      add\n        /* \"#utility.yul\":3872:3891   */\n      swap1\n      pop\n        /* \"#utility.yul\":3531:3897   */\n      swap2\n      swap1\n      pop\n      jump\t// out\n        /* \"#utility.yul\":3903:4269   */\n    tag_332:\n        /* \"#utility.yul\":4045:4048   */\n      0x00\n        /* \"#utility.yul\":4066:4133   */\n      tag_334\n        /* \"#utility.yul\":4130:4132   */\n      0x1b\n        /* \"#utility.yul\":4125:4128   */\n      dup4\n        /* \"#utility.yul\":4066:4133   */\n      tag_314\n      jump\t// in\n    tag_334:\n        /* \"#utility.yul\":4059:4133   */\n      swap2\n      pop\n        /* \"#utility.yul\":4142:4235   */\n      tag_335\n        /* \"#utility.yul\":4231:4234   */\n      dup3\n        /* \"#utility.yul\":4142:4235   */\n      tag_336\n      jump\t// in\n    tag_335:\n        /* \"#utility.yul\":4260:4262   */\n      0x20\n        /* \"#utility.yul\":4255:4258   */\n      dup3\n        /* \"#utility.yul\":4251:4263   */\n      add\n        /* \"#utility.yul\":4244:4263   */\n      swap1\n      pop\n        /* \"#utility.yul\":3903:4269   */\n      swap2\n      swap1\n      pop\n      jump\t// out\n        /* \"#utility.yul\":4275:4641   */\n    tag_337:\n        /* \"#utility.yul\":4417:4420   */\n      0x00\n        /* \"#utility.yul\":4438:4505   */\n      tag_339\n        /* \"#utility.yul\":4502:4504   */\n      0x1c\n        /* \"#utility.yul\":4497:4500   */\n      dup4\n        /* \"#utility.yul\":4438:4505   */\n      tag_314\n      jump\t// in\n    tag_339:\n        /* \"#utility.yul\":4431:4505   */\n      swap2\n      pop\n        /* \"#utility.yul\":4514:4607   */\n      tag_340\n        /* \"#utility.yul\":4603:4606   */\n      dup3\n        /* \"#utility.yul\":4514:4607   */\n      tag_341\n      jump\t// in\n    tag_340:\n        /* \"#utility.yul\":4632:4634   */\n      0x20\n        /* \"#utility.yul\":4627:4630   */\n      dup3\n        /* \"#utility.yul\":4623:4635   */\n      add\n        /* \"#utility.yul\":4616:4635   */\n      swap1\n      pop\n        /* \"#utility.yul\":4275:4641   */\n      swap2\n      swap1\n      pop\n      jump\t// out\n        /* \"#utility.yul\":4647:5013   */\n    tag_342:\n        /* \"#utility.yul\":4789:4792   */\n      0x00\n        /* \"#utility.yul\":4810:4877   */\n      tag_344\n        /* \"#utility.yul\":4874:4876   */\n      0x1b\n        /* \"#utility.yul\":4869:4872   */\n      dup4\n        /* \"#utility.yul\":4810:4877   */\n      tag_314\n      jump\t// in\n    tag_344:\n        /* \"#utility.yul\":4803:4877   */\n      swap2\n      pop\n        /* \"#utility.yul\":4886:4979   */\n      tag_345\n        /* \"#utility.yul\":4975:4978   */\n      dup3\n        /* \"#utility.yul\":4886:4979   */\n      tag_346\n      jump\t// in\n    tag_345:\n        /* \"#utility.yul\":5004:5006   */\n      0x20\n        /* \"#utility.yul\":4999:5002   */\n      dup3\n        /* \"#utility.yul\":4995:5007   */\n      add\n        /* \"#utility.yul\":4988:5007   */\n      swap1\n      pop\n        /* \"#utility.yul\":4647:5013   */\n      swap2\n      swap1\n      pop\n      jump\t// out\n        /* \"#utility.yul\":5019:5385   */\n    tag_347:\n        /* \"#utility.yul\":5161:5164   */\n      0x00\n        /* \"#utility.yul\":5182:5249   */\n      tag_349\n        /* \"#utility.yul\":5246:5248   */\n      0x19\n        /* \"#utility.yul\":5241:5244   */\n      dup4\n        /* \"#utility.yul\":5182:5249   */\n      tag_314\n      jump\t// in\n    tag_349:\n        /* \"#utility.yul\":5175:5249   */\n      swap2\n      pop\n        /* \"#utility.yul\":5258:5351   */\n      tag_350\n        /* \"#utility.yul\":5347:5350   */\n      dup3\n        /* \"#utility.yul\":5258:5351   */\n      tag_351\n      jump\t// in\n    tag_350:\n        /* \"#utility.yul\":5376:5378   */\n      0x20\n        /* \"#utility.yul\":5371:5374   */\n      dup3\n        /* \"#utility.yul\":5367:5379   */\n      add\n        /* \"#utility.yul\":5360:5379   */\n      swap1\n      pop\n        /* \"#utility.yul\":5019:5385   */\n      swap2\n      swap1\n      pop\n      jump\t// out\n        /* \"#utility.yul\":5391:5757   */\n    tag_352:\n        /* \"#utility.yul\":5533:5536   */\n      0x00\n        /* \"#utility.yul\":5554:5621   */\n      tag_354\n        /* \"#utility.yul\":5618:5620   */\n      0x1d\n        /* \"#utility.yul\":5613:5616   */\n      dup4\n        /* \"#utility.yul\":5554:5621   */\n      tag_314\n      jump\t// in\n    tag_354:\n        /* \"#utility.yul\":5547:5621   */\n      swap2\n      pop\n        /* \"#utility.yul\":5630:5723   */\n      tag_355\n        /* \"#utility.yul\":5719:5722   */\n      dup3\n        /* \"#utility.yul\":5630:5723   */\n      tag_356\n      jump\t// in\n    tag_355:\n        /* \"#utility.yul\":5748:5750   */\n      0x20\n        /* \"#utility.yul\":5743:5746   */\n      dup3\n        /* \"#utility.yul\":5739:5751   */\n      add\n        /* \"#utility.yul\":5732:5751   */\n      swap1\n      pop\n        /* \"#utility.yul\":5391:5757   */\n      swap2\n      swap1\n      pop\n      jump\t// out\n        /* \"#utility.yul\":5763:6129   */\n    tag_357:\n        /* \"#utility.yul\":5905:5908   */\n      0x00\n        /* \"#utility.yul\":5926:5993   */\n      tag_359\n        /* \"#utility.yul\":5990:5992   */\n      0x21\n        /* \"#utility.yul\":5985:5988   */\n      dup4\n        /* \"#utility.yul\":5926:5993   */\n      tag_314\n      jump\t// in\n    tag_359:\n        /* \"#utility.yul\":5919:5993   */\n      swap2\n      pop\n        /* \"#utility.yul\":6002:6095   */\n      tag_360\n        /* \"#utility.yul\":6091:6094   */\n      dup3\n        /* \"#utility.yul\":6002:6095   */\n      tag_361\n      jump\t// in\n    tag_360:\n        /* \"#utility.yul\":6120:6122   */\n      0x40\n        /* \"#utility.yul\":6115:6118   */\n      dup3\n        /* \"#utility.yul\":6111:6123   */\n      add\n        /* \"#utility.yul\":6104:6123   */\n      swap1\n      pop\n        /* \"#utility.yul\":5763:6129   */\n      swap2\n      swap1\n      pop\n      jump\t// out\n        /* \"#utility.yul\":6135:6253   */\n    tag_362:\n        /* \"#utility.yul\":6222:6246   */\n      tag_364\n        /* \"#utility.yul\":6240:6245   */\n      dup2\n        /* \"#utility.yul\":6222:6246   */\n      tag_365\n      jump\t// in\n    tag_364:\n        /* \"#utility.yul\":6217:6220   */\n      dup3\n        /* \"#utility.yul\":6210:6247   */\n      mstore\n        /* \"#utility.yul\":6135:6253   */\n      pop\n      pop\n      jump\t// out\n        /* \"#utility.yul\":6259:6416   */\n    tag_366:\n        /* \"#utility.yul\":6364:6409   */\n      tag_368\n        /* \"#utility.yul\":6384:6408   */\n      tag_369\n        /* \"#utility.yul\":6402:6407   */\n      dup3\n        /* \"#utility.yul\":6384:6408   */\n      tag_365\n      jump\t// in\n    tag_369:\n        /* \"#utility.yul\":6364:6409   */\n      tag_370\n      jump\t// in\n    tag_368:\n        /* \"#utility.yul\":6359:6362   */\n      dup3\n        /* \"#utility.yul\":6352:6410   */\n      mstore\n        /* \"#utility.yul\":6259:6416   */\n      pop\n      pop\n      jump\t// out\n        /* \"#utility.yul\":6422:6819   */\n    tag_188:\n        /* \"#utility.yul\":6562:6565   */\n      0x00\n        /* \"#utility.yul\":6577:6652   */\n      tag_372\n        /* \"#utility.yul\":6648:6651   */\n      dup3\n        /* \"#utility.yul\":6639:6645   */\n      dup6\n        /* \"#utility.yul\":6577:6652   */\n      tag_366\n      jump\t// in\n    tag_372:\n        /* \"#utility.yul\":6677:6679   */\n      0x20\n        /* \"#utility.yul\":6672:6675   */\n      dup3\n        /* \"#utility.yul\":6668:6680   */\n      add\n        /* \"#utility.yul\":6661:6680   */\n      swap2\n      pop\n        /* \"#utility.yul\":6690:6765   */\n      tag_373\n        /* \"#utility.yul\":6761:6764   */\n      dup3\n        /* \"#utility.yul\":6752:6758   */\n      dup5\n        /* \"#utility.yul\":6690:6765   */\n      tag_290\n      jump\t// in\n    tag_373:\n        /* \"#utility.yul\":6790:6792   */\n      0x14\n        /* \"#utility.yul\":6785:6788   */\n      dup3\n        /* \"#utility.yul\":6781:6793   */\n      add\n        /* \"#utility.yul\":6774:6793   */\n      swap2\n      pop\n        /* \"#utility.yul\":6810:6813   */\n      dup2\n        /* \"#utility.yul\":6803:6813   */\n      swap1\n      pop\n        /* \"#utility.yul\":6422:6819   */\n      swap4\n      swap3\n      pop\n      pop\n      pop\n      jump\t// out\n        /* \"#utility.yul\":6825:7079   */\n    tag_52:\n        /* \"#utility.yul\":6934:6938   */\n      0x00\n        /* \"#utility.yul\":6972:6974   */\n      0x20\n        /* \"#utility.yul\":6961:6970   */\n      dup3\n        /* \"#utility.yul\":6957:6975   */\n      add\n        /* \"#utility.yul\":6949:6975   */\n      swap1\n      pop\n        /* \"#utility.yul\":6985:7072   */\n      tag_375\n        /* \"#utility.yul\":7069:7070   */\n      0x00\n        /* \"#utility.yul\":7058:7067   */\n      dup4\n        /* \"#utility.yul\":7054:7071   */\n      add\n        /* \"#utility.yul\":7045:7051   */\n      dup5\n        /* \"#utility.yul\":6985:7072   */\n      tag_282\n      jump\t// in\n    tag_375:\n        /* \"#utility.yul\":6825:7079   */\n      swap3\n      swap2\n      pop\n      pop\n      jump\t// out\n        /* \"#utility.yul\":7085:7836   */\n    tag_223:\n        /* \"#utility.yul\":7308:7312   */\n      0x00\n        /* \"#utility.yul\":7346:7349   */\n      0xa0\n        /* \"#utility.yul\":7335:7344   */\n      dup3\n        /* \"#utility.yul\":7331:7350   */\n      add\n        /* \"#utility.yul\":7323:7350   */\n      swap1\n      pop\n        /* \"#utility.yul\":7360:7431   */\n      tag_377\n        /* \"#utility.yul\":7428:7429   */\n      0x00\n        /* \"#utility.yul\":7417:7426   */\n      dup4\n        /* \"#utility.yul\":7413:7430   */\n      add\n        /* \"#utility.yul\":7404:7410   */\n      dup9\n        /* \"#utility.yul\":7360:7431   */\n      tag_286\n      jump\t// in\n    tag_377:\n        /* \"#utility.yul\":7441:7513   */\n      tag_378\n        /* \"#utility.yul\":7509:7511   */\n      0x20\n        /* \"#utility.yul\":7498:7507   */\n      dup4\n        /* \"#utility.yul\":7494:7512   */\n      add\n        /* \"#utility.yul\":7485:7491   */\n      dup8\n        /* \"#utility.yul\":7441:7513   */\n      tag_286\n      jump\t// in\n    tag_378:\n        /* \"#utility.yul\":7523:7595   */\n      tag_379\n        /* \"#utility.yul\":7591:7593   */\n      0x40\n        /* \"#utility.yul\":7580:7589   */\n      dup4\n        /* \"#utility.yul\":7576:7594   */\n      add\n        /* \"#utility.yul\":7567:7573   */\n      dup7\n        /* \"#utility.yul\":7523:7595   */\n      tag_362\n      jump\t// in\n    tag_379:\n        /* \"#utility.yul\":7605:7677   */\n      tag_380\n        /* \"#utility.yul\":7673:7675   */\n      0x60\n        /* \"#utility.yul\":7662:7671   */\n      dup4\n        /* \"#utility.yul\":7658:7676   */\n      add\n        /* \"#utility.yul\":7649:7655   */\n      dup6\n        /* \"#utility.yul\":7605:7677   */\n      tag_362\n      jump\t// in\n    tag_380:\n        /* \"#utility.yul\":7725:7734   */\n      dup2\n        /* \"#utility.yul\":7719:7723   */\n      dup2\n        /* \"#utility.yul\":7715:7735   */\n      sub\n        /* \"#utility.yul\":7709:7712   */\n      0x80\n        /* \"#utility.yul\":7698:7707   */\n      dup4\n        /* \"#utility.yul\":7694:7713   */\n      add\n        /* \"#utility.yul\":7687:7736   */\n      mstore\n        /* \"#utility.yul\":7753:7829   */\n      tag_381\n        /* \"#utility.yul\":7824:7828   */\n      dup2\n        /* \"#utility.yul\":7815:7821   */\n      dup5\n        /* \"#utility.yul\":7753:7829   */\n      tag_299\n      jump\t// in\n    tag_381:\n        /* \"#utility.yul\":7745:7829   */\n      swap1\n      pop\n        /* \"#utility.yul\":7085:7836   */\n      swap7\n      swap6\n      pop\n      pop\n      pop\n      pop\n      pop\n      pop\n      jump\t// out\n        /* \"#utility.yul\":7842:8052   */\n    tag_26:\n        /* \"#utility.yul\":7929:7933   */\n      0x00\n        /* \"#utility.yul\":7967:7969   */\n      0x20\n        /* \"#utility.yul\":7956:7965   */\n      dup3\n        /* \"#utility.yul\":7952:7970   */\n      add\n        /* \"#utility.yul\":7944:7970   */\n      swap1\n      pop\n        /* \"#utility.yul\":7980:8045   */\n      tag_383\n        /* \"#utility.yul\":8042:8043   */\n      0x00\n        /* \"#utility.yul\":8031:8040   */\n      dup4\n        /* \"#utility.yul\":8027:8044   */\n      add\n        /* \"#utility.yul\":8018:8024   */\n      dup5\n        /* \"#utility.yul\":7980:8045   */\n      tag_295\n      jump\t// in\n    tag_383:\n        /* \"#utility.yul\":7842:8052   */\n      swap3\n      swap2\n      pop\n      pop\n      jump\t// out\n        /* \"#utility.yul\":8058:8371   */\n    tag_238:\n        /* \"#utility.yul\":8171:8175   */\n      0x00\n        /* \"#utility.yul\":8209:8211   */\n      0x20\n        /* \"#utility.yul\":8198:8207   */\n      dup3\n        /* \"#utility.yul\":8194:8212   */\n      add\n        /* \"#utility.yul\":8186:8212   */\n      swap1\n      pop\n        /* \"#utility.yul\":8258:8267   */\n      dup2\n        /* \"#utility.yul\":8252:8256   */\n      dup2\n        /* \"#utility.yul\":8248:8268   */\n      sub\n        /* \"#utility.yul\":8244:8245   */\n      0x00\n        /* \"#utility.yul\":8233:8242   */\n      dup4\n        /* \"#utility.yul\":8229:8246   */\n      add\n        /* \"#utility.yul\":8222:8269   */\n      mstore\n        /* \"#utility.yul\":8286:8364   */\n      tag_385\n        /* \"#utility.yul\":8359:8363   */\n      dup2\n        /* \"#utility.yul\":8350:8356   */\n      dup5\n        /* \"#utility.yul\":8286:8364   */\n      tag_309\n      jump\t// in\n    tag_385:\n        /* \"#utility.yul\":8278:8364   */\n      swap1\n      pop\n        /* \"#utility.yul\":8058:8371   */\n      swap3\n      swap2\n      pop\n      pop\n      jump\t// out\n        /* \"#utility.yul\":8377:8796   */\n    tag_240:\n        /* \"#utility.yul\":8543:8547   */\n      0x00\n        /* \"#utility.yul\":8581:8583   */\n      0x20\n        /* \"#utility.yul\":8570:8579   */\n      dup3\n        /* \"#utility.yul\":8566:8584   */\n      add\n        /* \"#utility.yul\":8558:8584   */\n      swap1\n      pop\n        /* \"#utility.yul\":8630:8639   */\n      dup2\n        /* \"#utility.yul\":8624:8628   */\n      dup2\n        /* \"#utility.yul\":8620:8640   */\n      sub\n        /* \"#utility.yul\":8616:8617   */\n      0x00\n        /* \"#utility.yul\":8605:8614   */\n      dup4\n        /* \"#utility.yul\":8601:8618   */\n      add\n        /* \"#utility.yul\":8594:8641   */\n      mstore\n        /* \"#utility.yul\":8658:8789   */\n      tag_387\n        /* \"#utility.yul\":8784:8788   */\n      dup2\n        /* \"#utility.yul\":8658:8789   */\n      tag_317\n      jump\t// in\n    tag_387:\n        /* \"#utility.yul\":8650:8789   */\n      swap1\n      pop\n        /* \"#utility.yul\":8377:8796   */\n      swap2\n      swap1\n      pop\n      jump\t// out\n        /* \"#utility.yul\":8802:9221   */\n    tag_244:\n        /* \"#utility.yul\":8968:8972   */\n      0x00\n        /* \"#utility.yul\":9006:9008   */\n      0x20\n        /* \"#utility.yul\":8995:9004   */\n      dup3\n        /* \"#utility.yul\":8991:9009   */\n      add\n        /* \"#utility.yul\":8983:9009   */\n      swap1\n      pop\n        /* \"#utility.yul\":9055:9064   */\n      dup2\n        /* \"#utility.yul\":9049:9053   */\n      dup2\n        /* \"#utility.yul\":9045:9065   */\n      sub\n        /* \"#utility.yul\":9041:9042   */\n      0x00\n        /* \"#utility.yul\":9030:9039   */\n      dup4\n        /* \"#utility.yul\":9026:9043   */\n      add\n        /* \"#utility.yul\":9019:9066   */\n      mstore\n        /* \"#utility.yul\":9083:9214   */\n      tag_389\n        /* \"#utility.yul\":9209:9213   */\n      dup2\n        /* \"#utility.yul\":9083:9214   */\n      tag_322\n      jump\t// in\n    tag_389:\n        /* \"#utility.yul\":9075:9214   */\n      swap1\n      pop\n        /* \"#utility.yul\":8802:9221   */\n      swap2\n      swap1\n      pop\n      jump\t// out\n        /* \"#utility.yul\":9227:9646   */\n    tag_82:\n        /* \"#utility.yul\":9393:9397   */\n      0x00\n        /* \"#utility.yul\":9431:9433   */\n      0x20\n        /* \"#utility.yul\":9420:9429   */\n      dup3\n        /* \"#utility.yul\":9416:9434   */\n      add\n        /* \"#utility.yul\":9408:9434   */\n      swap1\n      pop\n        /* \"#utility.yul\":9480:9489   */\n      dup2\n        /* \"#utility.yul\":9474:9478   */\n      dup2\n        /* \"#utility.yul\":9470:9490   */\n      sub\n        /* \"#utility.yul\":9466:9467   */\n      0x00\n        /* \"#utility.yul\":9455:9464   */\n      dup4\n        /* \"#utility.yul\":9451:9468   */\n      add\n        /* \"#utility.yul\":9444:9491   */\n      mstore\n        /* \"#utility.yul\":9508:9639   */\n      tag_391\n        /* \"#utility.yul\":9634:9638   */\n      dup2\n        /* \"#utility.yul\":9508:9639   */\n      tag_327\n      jump\t// in\n    tag_391:\n        /* \"#utility.yul\":9500:9639   */\n      swap1\n      pop\n        /* \"#utility.yul\":9227:9646   */\n      swap2\n      swap1\n      pop\n      jump\t// out\n        /* \"#utility.yul\":9652:10071   */\n    tag_147:\n        /* \"#utility.yul\":9818:9822   */\n      0x00\n        /* \"#utility.yul\":9856:9858   */\n      0x20\n        /* \"#utility.yul\":9845:9854   */\n      dup3\n        /* \"#utility.yul\":9841:9859   */\n      add\n        /* \"#utility.yul\":9833:9859   */\n      swap1\n      pop\n        /* \"#utility.yul\":9905:9914   */\n      dup2\n        /* \"#utility.yul\":9899:9903   */\n      dup2\n        /* \"#utility.yul\":9895:9915   */\n      sub\n        /* \"#utility.yul\":9891:9892   */\n      0x00\n        /* \"#utility.yul\":9880:9889   */\n      dup4\n        /* \"#utility.yul\":9876:9893   */\n      add\n        /* \"#utility.yul\":9869:9916   */\n      mstore\n        /* \"#utility.yul\":9933:10064   */\n      tag_393\n        /* \"#utility.yul\":10059:10063   */\n      dup2\n        /* \"#utility.yul\":9933:10064   */\n      tag_332\n      jump\t// in\n    tag_393:\n        /* \"#utility.yul\":9925:10064   */\n      swap1\n      pop\n        /* \"#utility.yul\":9652:10071   */\n      swap2\n      swap1\n      pop\n      jump\t// out\n        /* \"#utility.yul\":10077:10496   */\n    tag_63:\n        /* \"#utility.yul\":10243:10247   */\n      0x00\n        /* \"#utility.yul\":10281:10283   */\n      0x20\n        /* \"#utility.yul\":10270:10279   */\n      dup3\n        /* \"#utility.yul\":10266:10284   */\n      add\n        /* \"#utility.yul\":10258:10284   */\n      swap1\n      pop\n        /* \"#utility.yul\":10330:10339   */\n      dup2\n        /* \"#utility.yul\":10324:10328   */\n      dup2\n        /* \"#utility.yul\":10320:10340   */\n      sub\n        /* \"#utility.yul\":10316:10317   */\n      0x00\n        /* \"#utility.yul\":10305:10314   */\n      dup4\n        /* \"#utility.yul\":10301:10318   */\n      add\n        /* \"#utility.yul\":10294:10341   */\n      mstore\n        /* \"#utility.yul\":10358:10489   */\n      tag_395\n        /* \"#utility.yul\":10484:10488   */\n      dup2\n        /* \"#utility.yul\":10358:10489   */\n      tag_337\n      jump\t// in\n    tag_395:\n        /* \"#utility.yul\":10350:10489   */\n      swap1\n      pop\n        /* \"#utility.yul\":10077:10496   */\n      swap2\n      swap1\n      pop\n      jump\t// out\n        /* \"#utility.yul\":10502:10921   */\n    tag_95:\n        /* \"#utility.yul\":10668:10672   */\n      0x00\n        /* \"#utility.yul\":10706:10708   */\n      0x20\n        /* \"#utility.yul\":10695:10704   */\n      dup3\n        /* \"#utility.yul\":10691:10709   */\n      add\n        /* \"#utility.yul\":10683:10709   */\n      swap1\n      pop\n        /* \"#utility.yul\":10755:10764   */\n      dup2\n        /* \"#utility.yul\":10749:10753   */\n      dup2\n        /* \"#utility.yul\":10745:10765   */\n      sub\n        /* \"#utility.yul\":10741:10742   */\n      0x00\n        /* \"#utility.yul\":10730:10739   */\n      dup4\n        /* \"#utility.yul\":10726:10743   */\n      add\n        /* \"#utility.yul\":10719:10766   */\n      mstore\n        /* \"#utility.yul\":10783:10914   */\n      tag_397\n        /* \"#utility.yul\":10909:10913   */\n      dup2\n        /* \"#utility.yul\":10783:10914   */\n      tag_342\n      jump\t// in\n    tag_397:\n        /* \"#utility.yul\":10775:10914   */\n      swap1\n      pop\n        /* \"#utility.yul\":10502:10921   */\n      swap2\n      swap1\n      pop\n      jump\t// out\n        /* \"#utility.yul\":10927:11346   */\n    tag_99:\n        /* \"#utility.yul\":11093:11097   */\n      0x00\n        /* \"#utility.yul\":11131:11133   */\n      0x20\n        /* \"#utility.yul\":11120:11129   */\n      dup3\n        /* \"#utility.yul\":11116:11134   */\n      add\n        /* \"#utility.yul\":11108:11134   */\n      swap1\n      pop\n        /* \"#utility.yul\":11180:11189   */\n      dup2\n        /* \"#utility.yul\":11174:11178   */\n      dup2\n        /* \"#utility.yul\":11170:11190   */\n      sub\n        /* \"#utility.yul\":11166:11167   */\n      0x00\n        /* \"#utility.yul\":11155:11164   */\n      dup4\n        /* \"#utility.yul\":11151:11168   */\n      add\n        /* \"#utility.yul\":11144:11191   */\n      mstore\n        /* \"#utility.yul\":11208:11339   */\n      tag_399\n        /* \"#utility.yul\":11334:11338   */\n      dup2\n        /* \"#utility.yul\":11208:11339   */\n      tag_347\n      jump\t// in\n    tag_399:\n        /* \"#utility.yul\":11200:11339   */\n      swap1\n      pop\n        /* \"#utility.yul\":10927:11346   */\n      swap2\n      swap1\n      pop\n      jump\t// out\n        /* \"#utility.yul\":11352:11771   */\n    tag_72:\n        /* \"#utility.yul\":11518:11522   */\n      0x00\n        /* \"#utility.yul\":11556:11558   */\n      0x20\n        /* \"#utility.yul\":11545:11554   */\n      dup3\n        /* \"#utility.yul\":11541:11559   */\n      add\n        /* \"#utility.yul\":11533:11559   */\n      swap1\n      pop\n        /* \"#utility.yul\":11605:11614   */\n      dup2\n        /* \"#utility.yul\":11599:11603   */\n      dup2\n        /* \"#utility.yul\":11595:11615   */\n      sub\n        /* \"#utility.yul\":11591:11592   */\n      0x00\n        /* \"#utility.yul\":11580:11589   */\n      dup4\n        /* \"#utility.yul\":11576:11593   */\n      add\n        /* \"#utility.yul\":11569:11616   */\n      mstore\n        /* \"#utility.yul\":11633:11764   */\n      tag_401\n        /* \"#utility.yul\":11759:11763   */\n      dup2\n        /* \"#utility.yul\":11633:11764   */\n      tag_352\n      jump\t// in\n    tag_401:\n        /* \"#utility.yul\":11625:11764   */\n      swap1\n      pop\n        /* \"#utility.yul\":11352:11771   */\n      swap2\n      swap1\n      pop\n      jump\t// out\n        /* \"#utility.yul\":11777:12196   */\n    tag_194:\n        /* \"#utility.yul\":11943:11947   */\n      0x00\n        /* \"#utility.yul\":11981:11983   */\n      0x20\n        /* \"#utility.yul\":11970:11979   */\n      dup3\n        /* \"#utility.yul\":11966:11984   */\n      add\n        /* \"#utility.yul\":11958:11984   */\n      swap1\n      pop\n        /* \"#utility.yul\":12030:12039   */\n      dup2\n        /* \"#utility.yul\":12024:12028   */\n      dup2\n        /* \"#utility.yul\":12020:12040   */\n      sub\n        /* \"#utility.yul\":12016:12017   */\n      0x00\n        /* \"#utility.yul\":12005:12014   */\n      dup4\n        /* \"#utility.yul\":12001:12018   */\n      add\n        /* \"#utility.yul\":11994:12041   */\n      mstore\n        /* \"#utility.yul\":12058:12189   */\n      tag_403\n        /* \"#utility.yul\":12184:12188   */\n      dup2\n        /* \"#utility.yul\":12058:12189   */\n      tag_357\n      jump\t// in\n    tag_403:\n        /* \"#utility.yul\":12050:12189   */\n      swap1\n      pop\n        /* \"#utility.yul\":11777:12196   */\n      swap2\n      swap1\n      pop\n      jump\t// out\n        /* \"#utility.yul\":12202:12424   */\n    tag_17:\n        /* \"#utility.yul\":12295:12299   */\n      0x00\n        /* \"#utility.yul\":12333:12335   */\n      0x20\n        /* \"#utility.yul\":12322:12331   */\n      dup3\n        /* \"#utility.yul\":12318:12336   */\n      add\n        /* \"#utility.yul\":12310:12336   */\n      swap1\n      pop\n        /* \"#utility.yul\":12346:12417   */\n      tag_405\n        /* \"#utility.yul\":12414:12415   */\n      0x00\n        /* \"#utility.yul\":12403:12412   */\n      dup4\n        /* \"#utility.yul\":12399:12416   */\n      add\n        /* \"#utility.yul\":12390:12396   */\n      dup5\n        /* \"#utility.yul\":12346:12417   */\n      tag_362\n      jump\t// in\n    tag_405:\n        /* \"#utility.yul\":12202:12424   */\n      swap3\n      swap2\n      pop\n      pop\n      jump\t// out\n        /* \"#utility.yul\":12430:12853   */\n    tag_39:\n        /* \"#utility.yul\":12571:12575   */\n      0x00\n        /* \"#utility.yul\":12609:12611   */\n      0x40\n        /* \"#utility.yul\":12598:12607   */\n      dup3\n        /* \"#utility.yul\":12594:12612   */\n      add\n        /* \"#utility.yul\":12586:12612   */\n      swap1\n      pop\n        /* \"#utility.yul\":12622:12693   */\n      tag_407\n        /* \"#utility.yul\":12690:12691   */\n      0x00\n        /* \"#utility.yul\":12679:12688   */\n      dup4\n        /* \"#utility.yul\":12675:12692   */\n      add\n        /* \"#utility.yul\":12666:12672   */\n      dup6\n        /* \"#utility.yul\":12622:12693   */\n      tag_362\n      jump\t// in\n    tag_407:\n        /* \"#utility.yul\":12740:12749   */\n      dup2\n        /* \"#utility.yul\":12734:12738   */\n      dup2\n        /* \"#utility.yul\":12730:12750   */\n      sub\n        /* \"#utility.yul\":12725:12727   */\n      0x20\n        /* \"#utility.yul\":12714:12723   */\n      dup4\n        /* \"#utility.yul\":12710:12728   */\n      add\n        /* \"#utility.yul\":12703:12751   */\n      mstore\n        /* \"#utility.yul\":12768:12846   */\n      tag_408\n        /* \"#utility.yul\":12841:12845   */\n      dup2\n        /* \"#utility.yul\":12832:12838   */\n      dup5\n        /* \"#utility.yul\":12768:12846   */\n      tag_309\n      jump\t// in\n    tag_408:\n        /* \"#utility.yul\":12760:12846   */\n      swap1\n      pop\n        /* \"#utility.yul\":12430:12853   */\n      swap4\n      swap3\n      pop\n      pop\n      pop\n      jump\t// out\n        /* \"#utility.yul\":12859:13191   */\n    tag_204:\n        /* \"#utility.yul\":12980:12984   */\n      0x00\n        /* \"#utility.yul\":13018:13020   */\n      0x40\n        /* \"#utility.yul\":13007:13016   */\n      dup3\n        /* \"#utility.yul\":13003:13021   */\n      add\n        /* \"#utility.yul\":12995:13021   */\n      swap1\n      pop\n        /* \"#utility.yul\":13031:13102   */\n      tag_410\n        /* \"#utility.yul\":13099:13100   */\n      0x00\n        /* \"#utility.yul\":13088:13097   */\n      dup4\n        /* \"#utility.yul\":13084:13101   */\n      add\n        /* \"#utility.yul\":13075:13081   */\n      dup6\n        /* \"#utility.yul\":13031:13102   */\n      tag_362\n      jump\t// in\n    tag_410:\n        /* \"#utility.yul\":13112:13184   */\n      tag_411\n        /* \"#utility.yul\":13180:13182   */\n      0x20\n        /* \"#utility.yul\":13169:13178   */\n      dup4\n        /* \"#utility.yul\":13165:13183   */\n      add\n        /* \"#utility.yul\":13156:13162   */\n      dup5\n        /* \"#utility.yul\":13112:13184   */\n      tag_362\n      jump\t// in\n    tag_411:\n        /* \"#utility.yul\":12859:13191   */\n      swap4\n      swap3\n      pop\n      pop\n      pop\n      jump\t// out\n        /* \"#utility.yul\":13197:13639   */\n    tag_44:\n        /* \"#utility.yul\":13346:13350   */\n      0x00\n        /* \"#utility.yul\":13384:13386   */\n      0x60\n        /* \"#utility.yul\":13373:13382   */\n      dup3\n        /* \"#utility.yul\":13369:13387   */\n      add\n        /* \"#utility.yul\":13361:13387   */\n      swap1\n      pop\n        /* \"#utility.yul\":13397:13468   */\n      tag_413\n        /* \"#utility.yul\":13465:13466   */\n      0x00\n        /* \"#utility.yul\":13454:13463   */\n      dup4\n        /* \"#utility.yul\":13450:13467   */\n      add\n        /* \"#utility.yul\":13441:13447   */\n      dup7\n        /* \"#utility.yul\":13397:13468   */\n      tag_362\n      jump\t// in\n    tag_413:\n        /* \"#utility.yul\":13478:13550   */\n      tag_414\n        /* \"#utility.yul\":13546:13548   */\n      0x20\n        /* \"#utility.yul\":13535:13544   */\n      dup4\n        /* \"#utility.yul\":13531:13549   */\n      add\n        /* \"#utility.yul\":13522:13528   */\n      dup6\n        /* \"#utility.yul\":13478:13550   */\n      tag_362\n      jump\t// in\n    tag_414:\n        /* \"#utility.yul\":13560:13632   */\n      tag_415\n        /* \"#utility.yul\":13628:13630   */\n      0x40\n        /* \"#utility.yul\":13617:13626   */\n      dup4\n        /* \"#utility.yul\":13613:13631   */\n      add\n        /* \"#utility.yul\":13604:13610   */\n      dup5\n        /* \"#utility.yul\":13560:13632   */\n      tag_362\n      jump\t// in\n    tag_415:\n        /* \"#utility.yul\":13197:13639   */\n      swap5\n      swap4\n      pop\n      pop\n      pop\n      pop\n      jump\t// out\n        /* \"#utility.yul\":13645:13720   */\n    tag_416:\n        /* \"#utility.yul\":13678:13684   */\n      0x00\n        /* \"#utility.yul\":13711:13713   */\n      0x40\n        /* \"#utility.yul\":13705:13714   */\n      mload\n        /* \"#utility.yul\":13695:13714   */\n      swap1\n      pop\n        /* \"#utility.yul\":13645:13720   */\n      swap1\n      jump\t// out\n        /* \"#utility.yul\":13726:13824   */\n    tag_302:\n        /* \"#utility.yul\":13777:13783   */\n      0x00\n        /* \"#utility.yul\":13811:13816   */\n      dup2\n        /* \"#utility.yul\":13805:13817   */\n      mload\n        /* \"#utility.yul\":13795:13817   */\n      swap1\n      pop\n        /* \"#utility.yul\":13726:13824   */\n      swap2\n      swap1\n      pop\n      jump\t// out\n        /* \"#utility.yul\":13830:13929   */\n    tag_312:\n        /* \"#utility.yul\":13882:13888   */\n      0x00\n        /* \"#utility.yul\":13916:13921   */\n      dup2\n        /* \"#utility.yul\":13910:13922   */\n      mload\n        /* \"#utility.yul\":13900:13922   */\n      swap1\n      pop\n        /* \"#utility.yul\":13830:13929   */\n      swap2\n      swap1\n      pop\n      jump\t// out\n        /* \"#utility.yul\":13935:14103   */\n    tag_304:\n        /* \"#utility.yul\":14018:14029   */\n      0x00\n        /* \"#utility.yul\":14052:14058   */\n      dup3\n        /* \"#utility.yul\":14047:14050   */\n      dup3\n        /* \"#utility.yul\":14040:14059   */\n      mstore\n        /* \"#utility.yul\":14092:14096   */\n      0x20\n        /* \"#utility.yul\":14087:14090   */\n      dup3\n        /* \"#utility.yul\":14083:14097   */\n      add\n        /* \"#utility.yul\":14068:14097   */\n      swap1\n      pop\n        /* \"#utility.yul\":13935:14103   */\n      swap3\n      swap2\n      pop\n      pop\n      jump\t// out\n        /* \"#utility.yul\":14109:14278   */\n    tag_314:\n        /* \"#utility.yul\":14193:14204   */\n      0x00\n        /* \"#utility.yul\":14227:14233   */\n      dup3\n        /* \"#utility.yul\":14222:14225   */\n      dup3\n        /* \"#utility.yul\":14215:14234   */\n      mstore\n        /* \"#utility.yul\":14267:14271   */\n      0x20\n        /* \"#utility.yul\":14262:14265   */\n      dup3\n        /* \"#utility.yul\":14258:14272   */\n      add\n        /* \"#utility.yul\":14243:14272   */\n      swap1\n      pop\n        /* \"#utility.yul\":14109:14278   */\n      swap3\n      swap2\n      pop\n      pop\n      jump\t// out\n        /* \"#utility.yul\":14284:14589   */\n    tag_202:\n        /* \"#utility.yul\":14324:14327   */\n      0x00\n        /* \"#utility.yul\":14343:14363   */\n      tag_423\n        /* \"#utility.yul\":14361:14362   */\n      dup3\n        /* \"#utility.yul\":14343:14363   */\n      tag_365\n      jump\t// in\n    tag_423:\n        /* \"#utility.yul\":14338:14363   */\n      swap2\n      pop\n        /* \"#utility.yul\":14377:14397   */\n      tag_424\n        /* \"#utility.yul\":14395:14396   */\n      dup4\n        /* \"#utility.yul\":14377:14397   */\n      tag_365\n      jump\t// in\n    tag_424:\n        /* \"#utility.yul\":14372:14397   */\n      swap3\n      pop\n        /* \"#utility.yul\":14531:14532   */\n      dup3\n        /* \"#utility.yul\":14463:14529   */\n      0xffffffffffffffffffffffffffffffffffffffffffffffffffffffffffffffff\n        /* \"#utility.yul\":14459:14533   */\n      sub\n        /* \"#utility.yul\":14456:14457   */\n      dup3\n        /* \"#utility.yul\":14453:14534   */\n      gt\n        /* \"#utility.yul\":14450:14557   */\n      iszero\n      tag_425\n      jumpi\n        /* \"#utility.yul\":14537:14555   */\n      tag_426\n      tag_427\n      jump\t// in\n    tag_426:\n        /* \"#utility.yul\":14450:14557   */\n    tag_425:\n        /* \"#utility.yul\":14581:14582   */\n      dup3\n        /* \"#utility.yul\":14578:14579   */\n      dup3\n        /* \"#utility.yul\":14574:14583   */\n      add\n        /* \"#utility.yul\":14567:14583   */\n      swap1\n      pop\n        /* \"#utility.yul\":14284:14589   */\n      swap3\n      swap2\n      pop\n      pop\n      jump\t// out\n        /* \"#utility.yul\":14595:14691   */\n    tag_289:\n        /* \"#utility.yul\":14632:14639   */\n      0x00\n        /* \"#utility.yul\":14661:14685   */\n      tag_429\n        /* \"#utility.yul\":14679:14684   */\n      dup3\n        /* \"#utility.yul\":14661:14685   */\n      tag_430\n      jump\t// in\n    tag_429:\n        /* \"#utility.yul\":14650:14685   */\n      swap1\n      pop\n        /* \"#utility.yul\":14595:14691   */\n      swap2\n      swap1\n      pop\n      jump\t// out\n        /* \"#utility.yul\":14697:14801   */\n    tag_285:\n        /* \"#utility.yul\":14742:14749   */\n      0x00\n        /* \"#utility.yul\":14771:14795   */\n      tag_432\n        /* \"#utility.yul\":14789:14794   */\n      dup3\n        /* \"#utility.yul\":14771:14795   */\n      tag_430\n      jump\t// in\n    tag_432:\n        /* \"#utility.yul\":14760:14795   */\n      swap1\n      pop\n        /* \"#utility.yul\":14697:14801   */\n      swap2\n      swap1\n      pop\n      jump\t// out\n        /* \"#utility.yul\":14807:14897   */\n    tag_298:\n        /* \"#utility.yul\":14841:14848   */\n      0x00\n        /* \"#utility.yul\":14884:14889   */\n      dup2\n        /* \"#utility.yul\":14877:14890   */\n      iszero\n        /* \"#utility.yul\":14870:14891   */\n      iszero\n        /* \"#utility.yul\":14859:14891   */\n      swap1\n      pop\n        /* \"#utility.yul\":14807:14897   */\n      swap2\n      swap1\n      pop\n      jump\t// out\n        /* \"#utility.yul\":14903:15052   */\n    tag_434:\n        /* \"#utility.yul\":14939:14946   */\n      0x00\n        /* \"#utility.yul\":14979:15045   */\n      0xffffffff00000000000000000000000000000000000000000000000000000000\n        /* \"#utility.yul\":14972:14977   */\n      dup3\n        /* \"#utility.yul\":14968:15046   */\n      and\n        /* \"#utility.yul\":14957:15046   */\n      swap1\n      pop\n        /* \"#utility.yul\":14903:15052   */\n      swap2\n      swap1\n      pop\n      jump\t// out\n        /* \"#utility.yul\":15058:15184   */\n    tag_430:\n        /* \"#utility.yul\":15095:15102   */\n      0x00\n        /* \"#utility.yul\":15135:15177   */\n      0xffffffffffffffffffffffffffffffffffffffff\n        /* \"#utility.yul\":15128:15133   */\n      dup3\n        /* \"#utility.yul\":15124:15178   */\n      and\n        /* \"#utility.yul\":15113:15178   */\n      swap1\n      pop\n        /* \"#utility.yul\":15058:15184   */\n      swap2\n      swap1\n      pop\n      jump\t// out\n        /* \"#utility.yul\":15190:15267   */\n    tag_365:\n        /* \"#utility.yul\":15227:15234   */\n      0x00\n        /* \"#utility.yul\":15256:15261   */\n      dup2\n        /* \"#utility.yul\":15245:15261   */\n      swap1\n      pop\n        /* \"#utility.yul\":15190:15267   */\n      swap2\n      swap1\n      pop\n      jump\t// out\n        /* \"#utility.yul\":15273:15580   */\n    tag_306:\n        /* \"#utility.yul\":15341:15342   */\n      0x00\n        /* \"#utility.yul\":15351:15464   */\n    tag_439:\n        /* \"#utility.yul\":15365:15371   */\n      dup4\n        /* \"#utility.yul\":15362:15363   */\n      dup2\n        /* \"#utility.yul\":15359:15372   */\n      lt\n        /* \"#utility.yul\":15351:15464   */\n      iszero\n      tag_441\n      jumpi\n        /* \"#utility.yul\":15450:15451   */\n      dup1\n        /* \"#utility.yul\":15445:15448   */\n      dup3\n        /* \"#utility.yul\":15441:15452   */\n      add\n        /* \"#utility.yul\":15435:15453   */\n      mload\n        /* \"#utility.yul\":15431:15432   */\n      dup2\n        /* \"#utility.yul\":15426:15429   */\n      dup5\n        /* \"#utility.yul\":15422:15433   */\n      add\n        /* \"#utility.yul\":15415:15454   */\n      mstore\n        /* \"#utility.yul\":15387:15389   */\n      0x20\n        /* \"#utility.yul\":15384:15385   */\n      dup2\n        /* \"#utility.yul\":15380:15390   */\n      add\n        /* \"#utility.yul\":15375:15390   */\n      swap1\n      pop\n        /* \"#utility.yul\":15351:15464   */\n      jump(tag_439)\n    tag_441:\n        /* \"#utility.yul\":15482:15488   */\n      dup4\n        /* \"#utility.yul\":15479:15480   */\n      dup2\n        /* \"#utility.yul\":15476:15489   */\n      gt\n        /* \"#utility.yul\":15473:15574   */\n      iszero\n      tag_442\n      jumpi\n        /* \"#utility.yul\":15562:15563   */\n      0x00\n        /* \"#utility.yul\":15553:15559   */\n      dup5\n        /* \"#utility.yul\":15548:15551   */\n      dup5\n        /* \"#utility.yul\":15544:15560   */\n      add\n        /* \"#utility.yul\":15537:15564   */\n      mstore\n        /* \"#utility.yul\":15473:15574   */\n    tag_442:\n        /* \"#utility.yul\":15322:15580   */\n      pop\n        /* \"#utility.yul\":15273:15580   */\n      pop\n      pop\n      pop\n      jump\t// out\n        /* \"#utility.yul\":15586:15906   */\n    tag_120:\n        /* \"#utility.yul\":15630:15636   */\n      0x00\n        /* \"#utility.yul\":15667:15668   */\n      0x02\n        /* \"#utility.yul\":15661:15665   */\n      dup3\n        /* \"#utility.yul\":15657:15669   */\n      div\n        /* \"#utility.yul\":15647:15669   */\n      swap1\n      pop\n        /* \"#utility.yul\":15714:15715   */\n      0x01\n        /* \"#utility.yul\":15708:15712   */\n      dup3\n        /* \"#utility.yul\":15704:15716   */\n      and\n        /* \"#utility.yul\":15735:15753   */\n      dup1\n        /* \"#utility.yul\":15725:15806   */\n      tag_444\n      jumpi\n        /* \"#utility.yul\":15791:15795   */\n      0x7f\n        /* \"#utility.yul\":15783:15789   */\n      dup3\n        /* \"#utility.yul\":15779:15796   */\n      and\n        /* \"#utility.yul\":15769:15796   */\n      swap2\n      pop\n        /* \"#utility.yul\":15725:15806   */\n    tag_444:\n        /* \"#utility.yul\":15853:15855   */\n      0x20\n        /* \"#utility.yul\":15845:15851   */\n      dup3\n        /* \"#utility.yul\":15842:15856   */\n      lt\n        /* \"#utility.yul\":15822:15840   */\n      dup2\n        /* \"#utility.yul\":15819:15857   */\n      eq\n        /* \"#utility.yul\":15816:15900   */\n      iszero\n      tag_445\n      jumpi\n        /* \"#utility.yul\":15872:15890   */\n      tag_446\n      tag_447\n      jump\t// in\n    tag_446:\n        /* \"#utility.yul\":15816:15900   */\n    tag_445:\n        /* \"#utility.yul\":15637:15906   */\n      pop\n        /* \"#utility.yul\":15586:15906   */\n      swap2\n      swap1\n      pop\n      jump\t// out\n        /* \"#utility.yul\":15912:16193   */\n    tag_448:\n        /* \"#utility.yul\":15995:16022   */\n      tag_450\n        /* \"#utility.yul\":16017:16021   */\n      dup3\n        /* \"#utility.yul\":15995:16022   */\n      tag_308\n      jump\t// in\n    tag_450:\n        /* \"#utility.yul\":15987:15993   */\n      dup2\n        /* \"#utility.yul\":15983:16023   */\n      add\n        /* \"#utility.yul\":16125:16131   */\n      dup2\n        /* \"#utility.yul\":16113:16123   */\n      dup2\n        /* \"#utility.yul\":16110:16132   */\n      lt\n        /* \"#utility.yul\":16089:16107   */\n      0xffffffffffffffff\n        /* \"#utility.yul\":16077:16087   */\n      dup3\n        /* \"#utility.yul\":16074:16108   */\n      gt\n        /* \"#utility.yul\":16071:16133   */\n      or\n        /* \"#utility.yul\":16068:16156   */\n      iszero\n      tag_451\n      jumpi\n        /* \"#utility.yul\":16136:16154   */\n      tag_452\n      tag_212\n      jump\t// in\n    tag_452:\n        /* \"#utility.yul\":16068:16156   */\n    tag_451:\n        /* \"#utility.yul\":16176:16186   */\n      dup1\n        /* \"#utility.yul\":16172:16174   */\n      0x40\n        /* \"#utility.yul\":16165:16187   */\n      mstore\n        /* \"#utility.yul\":15955:16193   */\n      pop\n        /* \"#utility.yul\":15912:16193   */\n      pop\n      pop\n      jump\t// out\n        /* \"#utility.yul\":16199:16432   */\n    tag_107:\n        /* \"#utility.yul\":16238:16241   */\n      0x00\n        /* \"#utility.yul\":16261:16285   */\n      tag_454\n        /* \"#utility.yul\":16279:16284   */\n      dup3\n        /* \"#utility.yul\":16261:16285   */\n      tag_365\n      jump\t// in\n    tag_454:\n        /* \"#utility.yul\":16252:16285   */\n      swap2\n      pop\n        /* \"#utility.yul\":16307:16373   */\n      0xffffffffffffffffffffffffffffffffffffffffffffffffffffffffffffffff\n        /* \"#utility.yul\":16300:16305   */\n      dup3\n        /* \"#utility.yul\":16297:16374   */\n      eq\n        /* \"#utility.yul\":16294:16397   */\n      iszero\n      tag_455\n      jumpi\n        /* \"#utility.yul\":16377:16395   */\n      tag_456\n      tag_427\n      jump\t// in\n    tag_456:\n        /* \"#utility.yul\":16294:16397   */\n    tag_455:\n        /* \"#utility.yul\":16424:16425   */\n      0x01\n        /* \"#utility.yul\":16417:16422   */\n      dup3\n        /* \"#utility.yul\":16413:16426   */\n      add\n        /* \"#utility.yul\":16406:16426   */\n      swap1\n      pop\n        /* \"#utility.yul\":16199:16432   */\n      swap2\n      swap1\n      pop\n      jump\t// out\n        /* \"#utility.yul\":16438:16538   */\n    tag_294:\n        /* \"#utility.yul\":16477:16484   */\n      0x00\n        /* \"#utility.yul\":16506:16532   */\n      tag_458\n        /* \"#utility.yul\":16526:16531   */\n      dup3\n        /* \"#utility.yul\":16506:16532   */\n      tag_459\n      jump\t// in\n    tag_458:\n        /* \"#utility.yul\":16495:16532   */\n      swap1\n      pop\n        /* \"#utility.yul\":16438:16538   */\n      swap2\n      swap1\n      pop\n      jump\t// out\n        /* \"#utility.yul\":16544:16638   */\n    tag_459:\n        /* \"#utility.yul\":16583:16590   */\n      0x00\n        /* \"#utility.yul\":16612:16632   */\n      tag_461\n        /* \"#utility.yul\":16626:16631   */\n      dup3\n        /* \"#utility.yul\":16612:16632   */\n      tag_462\n      jump\t// in\n    tag_461:\n        /* \"#utility.yul\":16601:16632   */\n      swap1\n      pop\n        /* \"#utility.yul\":16544:16638   */\n      swap2\n      swap1\n      pop\n      jump\t// out\n        /* \"#utility.yul\":16644:16723   */\n    tag_370:\n        /* \"#utility.yul\":16683:16690   */\n      0x00\n        /* \"#utility.yul\":16712:16717   */\n      dup2\n        /* \"#utility.yul\":16701:16717   */\n      swap1\n      pop\n        /* \"#utility.yul\":16644:16723   */\n      swap2\n      swap1\n      pop\n      jump\t// out\n        /* \"#utility.yul\":16729:16905   */\n    tag_190:\n        /* \"#utility.yul\":16761:16762   */\n      0x00\n        /* \"#utility.yul\":16778:16798   */\n      tag_465\n        /* \"#utility.yul\":16796:16797   */\n      dup3\n        /* \"#utility.yul\":16778:16798   */\n      tag_365\n      jump\t// in\n    tag_465:\n        /* \"#utility.yul\":16773:16798   */\n      swap2\n      pop\n        /* \"#utility.yul\":16812:16832   */\n      tag_466\n        /* \"#utility.yul\":16830:16831   */\n      dup4\n        /* \"#utility.yul\":16812:16832   */\n      tag_365\n      jump\t// in\n    tag_466:\n        /* \"#utility.yul\":16807:16832   */\n      swap3\n      pop\n        /* \"#utility.yul\":16851:16852   */\n      dup3\n        /* \"#utility.yul\":16841:16876   */\n      tag_467\n      jumpi\n        /* \"#utility.yul\":16856:16874   */\n      tag_468\n      tag_469\n      jump\t// in\n    tag_468:\n        /* \"#utility.yul\":16841:16876   */\n    tag_467:\n        /* \"#utility.yul\":16897:16898   */\n      dup3\n        /* \"#utility.yul\":16894:16895   */\n      dup3\n        /* \"#utility.yul\":16890:16899   */\n      mod\n        /* \"#utility.yul\":16885:16899   */\n      swap1\n      pop\n        /* \"#utility.yul\":16729:16905   */\n      swap3\n      swap2\n      pop\n      pop\n      jump\t// out\n        /* \"#utility.yul\":16911:17091   */\n    tag_427:\n        /* \"#utility.yul\":16959:17036   */\n      0x4e487b7100000000000000000000000000000000000000000000000000000000\n        /* \"#utility.yul\":16956:16957   */\n      0x00\n        /* \"#utility.yul\":16949:17037   */\n      mstore\n        /* \"#utility.yul\":17056:17060   */\n      0x11\n        /* \"#utility.yul\":17053:17054   */\n      0x04\n        /* \"#utility.yul\":17046:17061   */\n      mstore\n        /* \"#utility.yul\":17080:17084   */\n      0x24\n        /* \"#utility.yul\":17077:17078   */\n      0x00\n        /* \"#utility.yul\":17070:17085   */\n      revert\n        /* \"#utility.yul\":17097:17277   */\n    tag_469:\n        /* \"#utility.yul\":17145:17222   */\n      0x4e487b7100000000000000000000000000000000000000000000000000000000\n        /* \"#utility.yul\":17142:17143   */\n      0x00\n        /* \"#utility.yul\":17135:17223   */\n      mstore\n        /* \"#utility.yul\":17242:17246   */\n      0x12\n        /* \"#utility.yul\":17239:17240   */\n      0x04\n        /* \"#utility.yul\":17232:17247   */\n      mstore\n        /* \"#utility.yul\":17266:17270   */\n      0x24\n        /* \"#utility.yul\":17263:17264   */\n      0x00\n        /* \"#utility.yul\":17256:17271   */\n      revert\n        /* \"#utility.yul\":17283:17463   */\n    tag_447:\n        /* \"#utility.yul\":17331:17408   */\n      0x4e487b7100000000000000000000000000000000000000000000000000000000\n        /* \"#utility.yul\":17328:17329   */\n      0x00\n        /* \"#utility.yul\":17321:17409   */\n      mstore\n        /* \"#utility.yul\":17428:17432   */\n      0x22\n        /* \"#utility.yul\":17425:17426   */\n      0x04\n        /* \"#utility.yul\":17418:17433   */\n      mstore\n        /* \"#utility.yul\":17452:17456   */\n      0x24\n        /* \"#utility.yul\":17449:17450   */\n      0x00\n        /* \"#utility.yul\":17442:17457   */\n      revert\n        /* \"#utility.yul\":17469:17649   */\n    tag_216:\n        /* \"#utility.yul\":17517:17594   */\n      0x4e487b7100000000000000000000000000000000000000000000000000000000\n        /* \"#utility.yul\":17514:17515   */\n      0x00\n        /* \"#utility.yul\":17507:17595   */\n      mstore\n        /* \"#utility.yul\":17614:17618   */\n      0x32\n        /* \"#utility.yul\":17611:17612   */\n      0x04\n        /* \"#utility.yul\":17604:17619   */\n      mstore\n        /* \"#utility.yul\":17638:17642   */\n      0x24\n        /* \"#utility.yul\":17635:17636   */\n      0x00\n        /* \"#utility.yul\":17628:17643   */\n      revert\n        /* \"#utility.yul\":17655:17835   */\n    tag_212:\n        /* \"#utility.yul\":17703:17780   */\n      0x4e487b7100000000000000000000000000000000000000000000000000000000\n        /* \"#utility.yul\":17700:17701   */\n      0x00\n        /* \"#utility.yul\":17693:17781   */\n      mstore\n        /* \"#utility.yul\":17800:17804   */\n      0x41\n        /* \"#utility.yul\":17797:17798   */\n      0x04\n        /* \"#utility.yul\":17790:17805   */\n      mstore\n        /* \"#utility.yul\":17824:17828   */\n      0x24\n        /* \"#utility.yul\":17821:17822   */\n      0x00\n        /* \"#utility.yul\":17814:17829   */\n      revert\n        /* \"#utility.yul\":17841:18024   */\n    tag_233:\n        /* \"#utility.yul\":17876:17879   */\n      0x00\n        /* \"#utility.yul\":17914:17915   */\n      0x03\n        /* \"#utility.yul\":17896:17912   */\n      returndatasize\n        /* \"#utility.yul\":17893:17916   */\n      gt\n        /* \"#utility.yul\":17890:18018   */\n      iszero\n      tag_476\n      jumpi\n        /* \"#utility.yul\":17952:17953   */\n      0x04\n        /* \"#utility.yul\":17949:17950   */\n      0x00\n        /* \"#utility.yul\":17946:17947   */\n      dup1\n        /* \"#utility.yul\":17931:17954   */\n      returndatacopy\n        /* \"#utility.yul\":17974:18008   */\n      tag_477\n        /* \"#utility.yul\":18005:18006   */\n      0x00\n        /* \"#utility.yul\":17999:18007   */\n      mload\n        /* \"#utility.yul\":17974:18008   */\n      tag_478\n      jump\t// in\n    tag_477:\n        /* \"#utility.yul\":17967:18008   */\n      swap1\n      pop\n        /* \"#utility.yul\":17890:18018   */\n    tag_476:\n        /* \"#utility.yul\":17841:18024   */\n      swap1\n      jump\t// out\n        /* \"#utility.yul\":18153:18270   */\n    tag_272:\n        /* \"#utility.yul\":18262:18263   */\n      0x00\n        /* \"#utility.yul\":18259:18260   */\n      dup1\n        /* \"#utility.yul\":18252:18264   */\n      revert\n        /* \"#utility.yul\":18276:18378   */\n    tag_308:\n        /* \"#utility.yul\":18317:18323   */\n      0x00\n        /* \"#utility.yul\":18368:18370   */\n      0x1f\n        /* \"#utility.yul\":18364:18371   */\n      not\n        /* \"#utility.yul\":18359:18361   */\n      0x1f\n        /* \"#utility.yul\":18352:18357   */\n      dup4\n        /* \"#utility.yul\":18348:18362   */\n      add\n        /* \"#utility.yul\":18344:18372   */\n      and\n        /* \"#utility.yul\":18334:18372   */\n      swap1\n      pop\n        /* \"#utility.yul\":18276:18378   */\n      swap2\n      swap1\n      pop\n      jump\t// out\n        /* \"#utility.yul\":18384:18478   */\n    tag_462:\n        /* \"#utility.yul\":18417:18425   */\n      0x00\n        /* \"#utility.yul\":18465:18470   */\n      dup2\n        /* \"#utility.yul\":18461:18463   */\n      0x60\n        /* \"#utility.yul\":18457:18471   */\n      shl\n        /* \"#utility.yul\":18436:18471   */\n      swap1\n      pop\n        /* \"#utility.yul\":18384:18478   */\n      swap2\n      swap1\n      pop\n      jump\t// out\n        /* \"#utility.yul\":18484:18590   */\n    tag_478:\n        /* \"#utility.yul\":18528:18536   */\n      0x00\n        /* \"#utility.yul\":18577:18582   */\n      dup2\n        /* \"#utility.yul\":18572:18575   */\n      0xe0\n        /* \"#utility.yul\":18568:18583   */\n      shr\n        /* \"#utility.yul\":18547:18583   */\n      swap1\n      pop\n        /* \"#utility.yul\":18484:18590   */\n      swap2\n      swap1\n      pop\n      jump\t// out\n        /* \"#utility.yul\":18596:18835   */\n    tag_321:\n        /* \"#utility.yul\":18736:18770   */\n      0x455243313135353a207472616e7366657220746f206e6f6e2045524331313535\n        /* \"#utility.yul\":18732:18733   */\n      0x00\n        /* \"#utility.yul\":18724:18730   */\n      dup3\n        /* \"#utility.yul\":18720:18734   */\n      add\n        /* \"#utility.yul\":18713:18771   */\n      mstore\n        /* \"#utility.yul\":18805:18827   */\n      0x526563656976657220696d706c656d656e746572000000000000000000000000\n        /* \"#utility.yul\":18800:18802   */\n      0x20\n        /* \"#utility.yul\":18792:18798   */\n      dup3\n        /* \"#utility.yul\":18788:18803   */\n      add\n        /* \"#utility.yul\":18781:18828   */\n      mstore\n        /* \"#utility.yul\":18596:18835   */\n      pop\n      jump\t// out\n        /* \"#utility.yul\":18841:19068   */\n    tag_326:\n        /* \"#utility.yul\":18981:19015   */\n      0x455243313135353a204552433131353552656365697665722072656a65637465\n        /* \"#utility.yul\":18977:18978   */\n      0x00\n        /* \"#utility.yul\":18969:18975   */\n      dup3\n        /* \"#utility.yul\":18965:18979   */\n      add\n        /* \"#utility.yul\":18958:19016   */\n      mstore\n        /* \"#utility.yul\":19050:19060   */\n      0x6420746f6b656e73000000000000000000000000000000000000000000000000\n        /* \"#utility.yul\":19045:19047   */\n      0x20\n        /* \"#utility.yul\":19037:19043   */\n      dup3\n        /* \"#utility.yul\":19033:19048   */\n      add\n        /* \"#utility.yul\":19026:19061   */\n      mstore\n        /* \"#utility.yul\":18841:19068   */\n      pop\n      jump\t// out\n        /* \"#utility.yul\":19074:19251   */\n    tag_331:\n        /* \"#utility.yul\":19214:19243   */\n      0x44726f707369746520697320616c72656164792052756e6e696e670000000000\n        /* \"#utility.yul\":19210:19211   */\n      0x00\n        /* \"#utility.yul\":19202:19208   */\n      dup3\n        /* \"#utility.yul\":19198:19212   */\n      add\n        /* \"#utility.yul\":19191:19244   */\n      mstore\n        /* \"#utility.yul\":19074:19251   */\n      pop\n      jump\t// out\n        /* \"#utility.yul\":19257:19434   */\n    tag_336:\n        /* \"#utility.yul\":19397:19426   */\n      0x44726f707369746520697320616c72656164792053746f707065640000000000\n        /* \"#utility.yul\":19393:19394   */\n      0x00\n        /* \"#utility.yul\":19385:19391   */\n      dup3\n        /* \"#utility.yul\":19381:19395   */\n      add\n        /* \"#utility.yul\":19374:19427   */\n      mstore\n        /* \"#utility.yul\":19257:19434   */\n      pop\n      jump\t// out\n        /* \"#utility.yul\":19440:19618   */\n    tag_341:\n        /* \"#utility.yul\":19580:19610   */\n      0x4f6e6c79204e46542d4553204f776e65722063616e2041636365737300000000\n        /* \"#utility.yul\":19576:19577   */\n      0x00\n        /* \"#utility.yul\":19568:19574   */\n      dup3\n        /* \"#utility.yul\":19564:19578   */\n      add\n        /* \"#utility.yul\":19557:19611   */\n      mstore\n        /* \"#utility.yul\":19440:19618   */\n      pop\n      jump\t// out\n        /* \"#utility.yul\":19624:19801   */\n    tag_346:\n        /* \"#utility.yul\":19764:19793   */\n      0x44726f7073697465206973206e6f74204f70656e6564205965742e0000000000\n        /* \"#utility.yul\":19760:19761   */\n      0x00\n        /* \"#utility.yul\":19752:19758   */\n      dup3\n        /* \"#utility.yul\":19748:19762   */\n      add\n        /* \"#utility.yul\":19741:19794   */\n      mstore\n        /* \"#utility.yul\":19624:19801   */\n      pop\n      jump\t// out\n        /* \"#utility.yul\":19807:19982   */\n    tag_351:\n        /* \"#utility.yul\":19947:19974   */\n      0x4d6178204d696e74696e67204c696d6974207265616368656400000000000000\n        /* \"#utility.yul\":19943:19944   */\n      0x00\n        /* \"#utility.yul\":19935:19941   */\n      dup3\n        /* \"#utility.yul\":19931:19945   */\n      add\n        /* \"#utility.yul\":19924:19975   */\n      mstore\n        /* \"#utility.yul\":19807:19982   */\n      pop\n      jump\t// out\n        /* \"#utility.yul\":19988:20167   */\n    tag_356:\n        /* \"#utility.yul\":20128:20159   */\n      0x4572726f7221204e6f2042616c616e636520746f207769746864726177000000\n        /* \"#utility.yul\":20124:20125   */\n      0x00\n        /* \"#utility.yul\":20116:20122   */\n      dup3\n        /* \"#utility.yul\":20112:20126   */\n      add\n        /* \"#utility.yul\":20105:20160   */\n      mstore\n        /* \"#utility.yul\":19988:20167   */\n      pop\n      jump\t// out\n        /* \"#utility.yul\":20173:20393   */\n    tag_361:\n        /* \"#utility.yul\":20313:20347   */\n      0x455243313135353a206d696e7420746f20746865207a65726f20616464726573\n        /* \"#utility.yul\":20309:20310   */\n      0x00\n        /* \"#utility.yul\":20301:20307   */\n      dup3\n        /* \"#utility.yul\":20297:20311   */\n      add\n        /* \"#utility.yul\":20290:20348   */\n      mstore\n        /* \"#utility.yul\":20382:20385   */\n      0x7300000000000000000000000000000000000000000000000000000000000000\n        /* \"#utility.yul\":20377:20379   */\n      0x20\n        /* \"#utility.yul\":20369:20375   */\n      dup3\n        /* \"#utility.yul\":20365:20380   */\n      add\n        /* \"#utility.yul\":20358:20386   */\n      mstore\n        /* \"#utility.yul\":20173:20393   */\n      pop\n      jump\t// out\n        /* \"#utility.yul\":20399:21110   */\n    tag_235:\n        /* \"#utility.yul\":20438:20441   */\n      0x00\n        /* \"#utility.yul\":20476:20480   */\n      0x44\n        /* \"#utility.yul\":20458:20474   */\n      returndatasize\n        /* \"#utility.yul\":20455:20481   */\n      lt\n        /* \"#utility.yul\":20452:20491   */\n      iszero\n      tag_495\n      jumpi\n        /* \"#utility.yul\":20484:20489   */\n      jump(tag_494)\n        /* \"#utility.yul\":20452:20491   */\n    tag_495:\n        /* \"#utility.yul\":20513:20533   */\n      tag_496\n      tag_416\n      jump\t// in\n    tag_496:\n        /* \"#utility.yul\":20588:20589   */\n      0x04\n        /* \"#utility.yul\":20570:20586   */\n      returndatasize\n        /* \"#utility.yul\":20566:20590   */\n      sub\n        /* \"#utility.yul\":20563:20564   */\n      0x04\n        /* \"#utility.yul\":20557:20561   */\n      dup3\n        /* \"#utility.yul\":20542:20591   */\n      returndatacopy\n        /* \"#utility.yul\":20621:20625   */\n      dup1\n        /* \"#utility.yul\":20615:20626   */\n      mload\n        /* \"#utility.yul\":20720:20736   */\n      returndatasize\n        /* \"#utility.yul\":20713:20717   */\n      0x24\n        /* \"#utility.yul\":20705:20711   */\n      dup3\n        /* \"#utility.yul\":20701:20718   */\n      add\n        /* \"#utility.yul\":20698:20737   */\n      gt\n        /* \"#utility.yul\":20665:20683   */\n      0xffffffffffffffff\n        /* \"#utility.yul\":20657:20663   */\n      dup3\n        /* \"#utility.yul\":20654:20684   */\n      gt\n        /* \"#utility.yul\":20638:20751   */\n      or\n        /* \"#utility.yul\":20635:20781   */\n      iszero\n      tag_497\n      jumpi\n        /* \"#utility.yul\":20766:20771   */\n      pop\n      pop\n      jump(tag_494)\n        /* \"#utility.yul\":20635:20781   */\n    tag_497:\n        /* \"#utility.yul\":20812:20818   */\n      dup1\n        /* \"#utility.yul\":20806:20810   */\n      dup3\n        /* \"#utility.yul\":20802:20819   */\n      add\n        /* \"#utility.yul\":20848:20851   */\n      dup1\n        /* \"#utility.yul\":20842:20852   */\n      mload\n        /* \"#utility.yul\":20875:20893   */\n      0xffffffffffffffff\n        /* \"#utility.yul\":20867:20873   */\n      dup2\n        /* \"#utility.yul\":20864:20894   */\n      gt\n        /* \"#utility.yul\":20861:20904   */\n      iszero\n      tag_498\n      jumpi\n        /* \"#utility.yul\":20897:20902   */\n      pop\n      pop\n      pop\n      pop\n      jump(tag_494)\n        /* \"#utility.yul\":20861:20904   */\n    tag_498:\n        /* \"#utility.yul\":20945:20951   */\n      dup1\n        /* \"#utility.yul\":20938:20942   */\n      0x20\n        /* \"#utility.yul\":20933:20936   */\n      dup4\n        /* \"#utility.yul\":20929:20943   */\n      add\n        /* \"#utility.yul\":20925:20952   */\n      add\n        /* \"#utility.yul\":21004:21005   */\n      0x04\n        /* \"#utility.yul\":20986:21002   */\n      returndatasize\n        /* \"#utility.yul\":20982:21006   */\n      sub\n        /* \"#utility.yul\":20976:20980   */\n      dup6\n        /* \"#utility.yul\":20972:21007   */\n      add\n        /* \"#utility.yul\":20967:20970   */\n      dup2\n        /* \"#utility.yul\":20964:21008   */\n      gt\n        /* \"#utility.yul\":20961:21018   */\n      iszero\n      tag_499\n      jumpi\n        /* \"#utility.yul\":21011:21016   */\n      pop\n      pop\n      pop\n      pop\n      pop\n      jump(tag_494)\n        /* \"#utility.yul\":20961:21018   */\n    tag_499:\n        /* \"#utility.yul\":21028:21085   */\n      tag_500\n        /* \"#utility.yul\":21076:21082   */\n      dup3\n        /* \"#utility.yul\":21070:21074   */\n      0x20\n        /* \"#utility.yul\":21066:21083   */\n      add\n        /* \"#utility.yul\":21058:21064   */\n      dup6\n        /* \"#utility.yul\":21054:21084   */\n      add\n        /* \"#utility.yul\":21048:21052   */\n      dup7\n        /* \"#utility.yul\":21028:21085   */\n      tag_448\n      jump\t// in\n    tag_500:\n        /* \"#utility.yul\":21101:21104   */\n      dup3\n        /* \"#utility.yul\":21094:21104   */\n      swap6\n      pop\n        /* \"#utility.yul\":20442:21110   */\n      pop\n      pop\n      pop\n      pop\n      pop\n        /* \"#utility.yul\":20399:21110   */\n    tag_494:\n      swap1\n      jump\t// out\n        /* \"#utility.yul\":21116:21238   */\n    tag_260:\n        /* \"#utility.yul\":21189:21213   */\n      tag_502\n        /* \"#utility.yul\":21207:21212   */\n      dup2\n        /* \"#utility.yul\":21189:21213   */\n      tag_289\n      jump\t// in\n    tag_502:\n        /* \"#utility.yul\":21182:21187   */\n      dup2\n        /* \"#utility.yul\":21179:21214   */\n      eq\n        /* \"#utility.yul\":21169:21232   */\n      tag_503\n      jumpi\n        /* \"#utility.yul\":21228:21229   */\n      0x00\n        /* \"#utility.yul\":21225:21226   */\n      dup1\n        /* \"#utility.yul\":21218:21230   */\n      revert\n        /* \"#utility.yul\":21169:21232   */\n    tag_503:\n        /* \"#utility.yul\":21116:21238   */\n      pop\n      jump\t// out\n        /* \"#utility.yul\":21244:21382   */\n    tag_264:\n        /* \"#utility.yul\":21325:21357   */\n      tag_505\n        /* \"#utility.yul\":21351:21356   */\n      dup2\n        /* \"#utility.yul\":21325:21357   */\n      tag_285\n      jump\t// in\n    tag_505:\n        /* \"#utility.yul\":21318:21323   */\n      dup2\n        /* \"#utility.yul\":21315:21358   */\n      eq\n        /* \"#utility.yul\":21305:21376   */\n      tag_506\n      jumpi\n        /* \"#utility.yul\":21372:21373   */\n      0x00\n        /* \"#utility.yul\":21369:21370   */\n      dup1\n        /* \"#utility.yul\":21362:21374   */\n      revert\n        /* \"#utility.yul\":21305:21376   */\n    tag_506:\n        /* \"#utility.yul\":21244:21382   */\n      pop\n      jump\t// out\n        /* \"#utility.yul\":21388:21508   */\n    tag_268:\n        /* \"#utility.yul\":21460:21483   */\n      tag_508\n        /* \"#utility.yul\":21477:21482   */\n      dup2\n        /* \"#utility.yul\":21460:21483   */\n      tag_434\n      jump\t// in\n    tag_508:\n        /* \"#utility.yul\":21453:21458   */\n      dup2\n        /* \"#utility.yul\":21450:21484   */\n      eq\n        /* \"#utility.yul\":21440:21502   */\n      tag_509\n      jumpi\n        /* \"#utility.yul\":21498:21499   */\n      0x00\n        /* \"#utility.yul\":21495:21496   */\n      dup1\n        /* \"#utility.yul\":21488:21500   */\n      revert\n        /* \"#utility.yul\":21440:21502   */\n    tag_509:\n        /* \"#utility.yul\":21388:21508   */\n      pop\n      jump\t// out\n\n    auxdata: 0xa264697066735822122045612904bf53a5322ef6a4c7f4418ff662e171ae2fc109b7171e848f9264593264736f6c63430008070033\n}\n",
				"bytecode": {
					"linkReferences": {},
					"object": "608060405260405180602001604052806000815250600290805190602001906200002b92919062000103565b506001600b60006101000a81548160ff0219169083151502179055503480156200005457600080fd5b50604051620026553803806200265583398181016040528101906200007a9190620002c2565b80600c90805190602001906200009292919062000194565b5033600b60016101000a81548173ffffffffffffffffffffffffffffffffffffffff021916908373ffffffffffffffffffffffffffffffffffffffff160217905550600060038190555060016004819055506000600581905550600060068190555060006007819055505062000497565b8280546200011190620003a8565b90600052602060002090601f01602090048101928262000135576000855562000181565b82601f106200015057805160ff191683800117855562000181565b8280016001018555821562000181579182015b828111156200018057825182559160200191906001019062000163565b5b50905062000190919062000225565b5090565b828054620001a290620003a8565b90600052602060002090601f016020900481019282620001c6576000855562000212565b82601f10620001e157805160ff191683800117855562000212565b8280016001018555821562000212579182015b8281111562000211578251825591602001919060010190620001f4565b5b50905062000221919062000225565b5090565b5b808211156200024057600081600090555060010162000226565b5090565b60006200025b62000255846200033c565b62000313565b9050828152602081018484840111156200027a576200027962000477565b5b6200028784828562000372565b509392505050565b600082601f830112620002a757620002a662000472565b5b8151620002b984826020860162000244565b91505092915050565b600060208284031215620002db57620002da62000481565b5b600082015167ffffffffffffffff811115620002fc57620002fb6200047c565b5b6200030a848285016200028f565b91505092915050565b60006200031f62000332565b90506200032d8282620003de565b919050565b6000604051905090565b600067ffffffffffffffff8211156200035a576200035962000443565b5b620003658262000486565b9050602081019050919050565b60005b838110156200039257808201518184015260208101905062000375565b83811115620003a2576000848401525b50505050565b60006002820490506001821680620003c157607f821691505b60208210811415620003d857620003d762000414565b5b50919050565b620003e98262000486565b810181811067ffffffffffffffff821117156200040b576200040a62000443565b5b80604052505050565b7f4e487b7100000000000000000000000000000000000000000000000000000000600052602260045260246000fd5b7f4e487b7100000000000000000000000000000000000000000000000000000000600052604160045260246000fd5b600080fd5b600080fd5b600080fd5b600080fd5b6000601f19601f8301169050919050565b6121ae80620004a76000396000f3fe6080604052600436106100915760003560e01c80633d65df70116100595780633d65df701461014a57806360daa8511461017b578063aa90c726146101a8578063b4a99a4e146101bf578063fd93d41c146101ea57610091565b80630390c11c146100965780630a67d2c7146100c15780631309a563146100dd57806315460259146101085780633b6680591461011f575b600080fd5b3480156100a257600080fd5b506100ab610228565b6040516100b89190611a76565b60405180910390f35b6100db60048036038101906100d69190611607565b6102c9565b005b3480156100e957600080fd5b506100f26103f3565b6040516100ff9190611919565b60405180910390f35b34801561011457600080fd5b5061011d610406565b005b34801561012b57600080fd5b50610134610510565b6040516101419190611a76565b60405180910390f35b610164600480360381019061015f91906115da565b6105af565b604051610172929190611a91565b60405180910390f35b34801561018757600080fd5b50610190610a10565b60405161019f93929190611aea565b60405180910390f35b3480156101b457600080fd5b506101bd610ac0565b005b3480156101cb57600080fd5b506101d4610bca565b6040516101e191906118a4565b60405180910390f35b3480156101f657600080fd5b50610211600480360381019061020c91906115da565b610bf0565b60405161021f929190611a91565b60405180910390f35b6000600b60019054906101000a900473ffffffffffffffffffffffffffffffffffffffff1673ffffffffffffffffffffffffffffffffffffffff1661026b611040565b73ffffffffffffffffffffffffffffffffffffffff16146102c1576040517f08c379a00000000000000000000000000000000000000000000000000000000081526004016102b8906119d6565b60405180910390fd5b600354905090565b600b60019054906101000a900473ffffffffffffffffffffffffffffffffffffffff1673ffffffffffffffffffffffffffffffffffffffff1661030a611040565b73ffffffffffffffffffffffffffffffffffffffff1614610360576040517f08c379a0000000000000000000000000000000000000000000000000000000008152600401610357906119d6565b60405180910390fd5b6000479050600081116103a8576040517f08c379a000000000000000000000000000000000000000000000000000000000815260040161039f90611a36565b60405180910390fd5b8173ffffffffffffffffffffffffffffffffffffffff166108fc829081150290604051600060405180830381858888f193505050501580156103ee573d6000803e3d6000fd5b505050565b600b60009054906101000a900460ff1681565b600b60019054906101000a900473ffffffffffffffffffffffffffffffffffffffff1673ffffffffffffffffffffffffffffffffffffffff16610447611040565b73ffffffffffffffffffffffffffffffffffffffff161461049d576040517f08c379a0000000000000000000000000000000000000000000000000000000008152600401610494906119d6565b60405180910390fd5b60011515600b60009054906101000a900460ff161515146104f3576040517f08c379a00000000000000000000000000000000000000000000000000000000081526004016104ea90611996565b60405180910390fd5b6000600b60006101000a81548160ff021916908315150217905550565b6000600b60019054906101000a900473ffffffffffffffffffffffffffffffffffffffff1673ffffffffffffffffffffffffffffffffffffffff16610553611040565b73ffffffffffffffffffffffffffffffffffffffff16146105a9576040517f08c379a00000000000000000000000000000000000000000000000000000000081526004016105a0906119d6565b60405180910390fd5b47905090565b60006060600b60019054906101000a900473ffffffffffffffffffffffffffffffffffffffff1673ffffffffffffffffffffffffffffffffffffffff166105f4611040565b73ffffffffffffffffffffffffffffffffffffffff161461064a576040517f08c379a0000000000000000000000000000000000000000000000000000000008152600401610641906119d6565b60405180910390fd5b60001515600b60009054906101000a900460ff161515146106a0576040517f08c379a0000000000000000000000000000000000000000000000000000000008152600401610697906119f6565b60405180910390fd5b6064600354106106e5576040517f08c379a00000000000000000000000000000000000000000000000000000000081526004016106dc90611a16565b60405180910390fd5b60006106ef611048565b90506000811480156107035750600f600554105b15610771576040518060400160405280600881526020017f506c6174696e756d000000000000000000000000000000000000000000000000815250600290805190602001906107539291906114f8565b506005600081548092919061076790611cd5565b9190505550610872565b6001811115801561078457506023600654105b156107f2576040518060400160405280600481526020017f476f6c6400000000000000000000000000000000000000000000000000000000815250600290805190602001906107d49291906114f8565b50600660008154809291906107e890611cd5565b9190505550610871565b600281111580156108065750603260075411155b15610870576040518060400160405280600681526020017f53696c7665720000000000000000000000000000000000000000000000000000815250600290805190602001906108569291906114f8565b506007600081548092919061086a90611cd5565b91905055505b5b5b61090a84826004546002805461088790611c72565b80601f01602080910402602001604051908101604052809291908181526020018280546108b390611c72565b80156109005780601f106108d557610100808354040283529160200191610900565b820191906000526020600020905b8154815290600101906020018083116108e357829003601f168201915b505050505061108c565b61091b610915611040565b34611222565b6003600081548092919061092e90611cd5565b919050555080600860008673ffffffffffffffffffffffffffffffffffffffff1673ffffffffffffffffffffffffffffffffffffffff1681526020019081526020016000208190555080600280805461098690611c72565b80601f01602080910402602001604051908101604052809291908181526020018280546109b290611c72565b80156109ff5780601f106109d4576101008083540402835291602001916109ff565b820191906000526020600020905b8154815290600101906020018083116109e257829003601f168201915b505050505090509250925050915091565b6000806000600b60019054906101000a900473ffffffffffffffffffffffffffffffffffffffff1673ffffffffffffffffffffffffffffffffffffffff16610a56611040565b73ffffffffffffffffffffffffffffffffffffffff1614610aac576040517f08c379a0000000000000000000000000000000000000000000000000000000008152600401610aa3906119d6565b60405180910390fd5b600554600654600754925092509250909192565b600b60019054906101000a900473ffffffffffffffffffffffffffffffffffffffff1673ffffffffffffffffffffffffffffffffffffffff16610b01611040565b73ffffffffffffffffffffffffffffffffffffffff1614610b57576040517f08c379a0000000000000000000000000000000000000000000000000000000008152600401610b4e906119d6565b60405180910390fd5b60001515600b60009054906101000a900460ff16151514610bad576040517f08c379a0000000000000000000000000000000000000000000000000000000008152600401610ba4906119b6565b60405180910390fd5b6001600b60006101000a81548160ff021916908315150217905550565b600b60019054906101000a900473ffffffffffffffffffffffffffffffffffffffff1681565b60006060600b60019054906101000a900473ffffffffffffffffffffffffffffffffffffffff1673ffffffffffffffffffffffffffffffffffffffff16610c35611040565b73ffffffffffffffffffffffffffffffffffffffff1614610c8b576040517f08c379a0000000000000000000000000000000000000000000000000000000008152600401610c82906119d6565b60405180910390fd5b60001515600b60009054906101000a900460ff16151514610ce1576040517f08c379a0000000000000000000000000000000000000000000000000000000008152600401610cd8906119f6565b60405180910390fd5b606460035410610d26576040517f08c379a0000000000000000000000000000000000000000000000000000000008152600401610d1d90611a16565b60405180910390fd5b6000610d30611048565b9050600081148015610d445750600f600554105b15610db2576040518060400160405280600881526020017f506c6174696e756d00000000000000000000000000000000000000000000000081525060029080519060200190610d949291906114f8565b5060056000815480929190610da890611cd5565b9190505550610eb3565b60018111158015610dc557506023600654105b15610e33576040518060400160405280600481526020017f476f6c640000000000000000000000000000000000000000000000000000000081525060029080519060200190610e159291906114f8565b5060066000815480929190610e2990611cd5565b9190505550610eb2565b60028111158015610e475750603260075411155b15610eb1576040518060400160405280600681526020017f53696c766572000000000000000000000000000000000000000000000000000081525060029080519060200190610e979291906114f8565b5060076000815480929190610eab90611cd5565b91905055505b5b5b610f4b848260045460028054610ec890611c72565b80601f0160208091040260200160405190810160405280929190818152602001828054610ef490611c72565b8015610f415780601f10610f1657610100808354040283529160200191610f41565b820191906000526020600020905b815481529060010190602001808311610f2457829003601f168201915b505050505061108c565b60036000815480929190610f5e90611cd5565b919050555080600860008673ffffffffffffffffffffffffffffffffffffffff1673ffffffffffffffffffffffffffffffffffffffff16815260200190815260200160002081905550806002808054610fb690611c72565b80601f0160208091040260200160405190810160405280929190818152602001828054610fe290611c72565b801561102f5780601f106110045761010080835404028352916020019161102f565b820191906000526020600020905b81548152906001019060200180831161101257829003601f168201915b505050505090509250925050915091565b600033905090565b60008060034233604051602001611060929190611878565b6040516020818303038152906040528051906020012060001c6110839190611d4c565b90508091505090565b600073ffffffffffffffffffffffffffffffffffffffff168473ffffffffffffffffffffffffffffffffffffffff1614156110fc576040517f08c379a00000000000000000000000000000000000000000000000000000000081526004016110f390611a56565b60405180910390fd5b6000611106611040565b9050611127816000876111188861127c565b6111218861127c565b876112f6565b8260008086815260200190815260200160002060008773ffffffffffffffffffffffffffffffffffffffff1673ffffffffffffffffffffffffffffffffffffffff16815260200190815260200160002060008282546111869190611b63565b925050819055508473ffffffffffffffffffffffffffffffffffffffff16600073ffffffffffffffffffffffffffffffffffffffff168273ffffffffffffffffffffffffffffffffffffffff167fc3d58168c5ae7397731d063d5bbf3d657854427343f4c083240f7aacaa2d0f628787604051611204929190611ac1565b60405180910390a461121b816000878787876112fe565b5050505050565b80600a60008473ffffffffffffffffffffffffffffffffffffffff1673ffffffffffffffffffffffffffffffffffffffff16815260200190815260200160002060008282546112719190611b63565b925050819055505050565b60606000600167ffffffffffffffff81111561129b5761129a611e39565b5b6040519080825280602002602001820160405280156112c95781602001602082028036833780820191505090505b50905082816000815181106112e1576112e0611e0a565b5b60200260200101818152505080915050919050565b505050505050565b61131d8473ffffffffffffffffffffffffffffffffffffffff166114e5565b156114dd578373ffffffffffffffffffffffffffffffffffffffff1663f23a6e6187878686866040518663ffffffff1660e01b81526004016113639594939291906118bf565b602060405180830381600087803b15801561137d57600080fd5b505af19250505080156113ae57506040513d601f19601f820116820180604052508101906113ab9190611634565b60015b611454576113ba611e68565b806308c379a0141561141757506113cf61209d565b806113da5750611419565b806040517f08c379a000000000000000000000000000000000000000000000000000000000815260040161140e9190611934565b60405180910390fd5b505b6040517f08c379a000000000000000000000000000000000000000000000000000000000815260040161144b90611956565b60405180910390fd5b63f23a6e6160e01b7bffffffffffffffffffffffffffffffffffffffffffffffffffffffff1916817bffffffffffffffffffffffffffffffffffffffffffffffffffffffff1916146114db576040517f08c379a00000000000000000000000000000000000000000000000000000000081526004016114d290611976565b60405180910390fd5b505b505050505050565b600080823b905060008111915050919050565b82805461150490611c72565b90600052602060002090601f016020900481019282611526576000855561156d565b82601f1061153f57805160ff191683800117855561156d565b8280016001018555821561156d579182015b8281111561156c578251825591602001919060010190611551565b5b50905061157a919061157e565b5090565b5b8082111561159757600081600090555060010161157f565b5090565b6000813590506115aa81612133565b92915050565b6000813590506115bf8161214a565b92915050565b6000815190506115d481612161565b92915050565b6000602082840312156115f0576115ef611e8a565b5b60006115fe8482850161159b565b91505092915050565b60006020828403121561161d5761161c611e8a565b5b600061162b848285016115b0565b91505092915050565b60006020828403121561164a57611649611e8a565b5b6000611658848285016115c5565b91505092915050565b61166a81611bcb565b82525050565b61167981611bb9565b82525050565b61169061168b82611bb9565b611d1e565b82525050565b61169f81611bdd565b82525050565b60006116b082611b2b565b6116ba8185611b41565b93506116ca818560208601611c3f565b6116d381611e8f565b840191505092915050565b60006116e982611b36565b6116f38185611b52565b9350611703818560208601611c3f565b61170c81611e8f565b840191505092915050565b6000611724603483611b52565b915061172f82611eba565b604082019050919050565b6000611747602883611b52565b915061175282611f09565b604082019050919050565b600061176a601b83611b52565b915061177582611f58565b602082019050919050565b600061178d601b83611b52565b915061179882611f81565b602082019050919050565b60006117b0601c83611b52565b91506117bb82611faa565b602082019050919050565b60006117d3601b83611b52565b91506117de82611fd3565b602082019050919050565b60006117f6601983611b52565b915061180182611ffc565b602082019050919050565b6000611819601d83611b52565b915061182482612025565b602082019050919050565b600061183c602183611b52565b91506118478261204e565b604082019050919050565b61185b81611c35565b82525050565b61187261186d82611c35565b611d42565b82525050565b60006118848285611861565b602082019150611894828461167f565b6014820191508190509392505050565b60006020820190506118b96000830184611661565b92915050565b600060a0820190506118d46000830188611670565b6118e16020830187611670565b6118ee6040830186611852565b6118fb6060830185611852565b818103608083015261190d81846116a5565b90509695505050505050565b600060208201905061192e6000830184611696565b92915050565b6000602082019050818103600083015261194e81846116de565b905092915050565b6000602082019050818103600083015261196f81611717565b9050919050565b6000602082019050818103600083015261198f8161173a565b9050919050565b600060208201905081810360008301526119af8161175d565b9050919050565b600060208201905081810360008301526119cf81611780565b9050919050565b600060208201905081810360008301526119ef816117a3565b9050919050565b60006020820190508181036000830152611a0f816117c6565b9050919050565b60006020820190508181036000830152611a2f816117e9565b9050919050565b60006020820190508181036000830152611a4f8161180c565b9050919050565b60006020820190508181036000830152611a6f8161182f565b9050919050565b6000602082019050611a8b6000830184611852565b92915050565b6000604082019050611aa66000830185611852565b8181036020830152611ab881846116de565b90509392505050565b6000604082019050611ad66000830185611852565b611ae36020830184611852565b9392505050565b6000606082019050611aff6000830186611852565b611b0c6020830185611852565b611b196040830184611852565b949350505050565b6000604051905090565b600081519050919050565b600081519050919050565b600082825260208201905092915050565b600082825260208201905092915050565b6000611b6e82611c35565b9150611b7983611c35565b9250827fffffffffffffffffffffffffffffffffffffffffffffffffffffffffffffffff03821115611bae57611bad611d7d565b5b828201905092915050565b6000611bc482611c15565b9050919050565b6000611bd682611c15565b9050919050565b60008115159050919050565b60007fffffffff0000000000000000000000000000000000000000000000000000000082169050919050565b600073ffffffffffffffffffffffffffffffffffffffff82169050919050565b6000819050919050565b60005b83811015611c5d578082015181840152602081019050611c42565b83811115611c6c576000848401525b50505050565b60006002820490506001821680611c8a57607f821691505b60208210811415611c9e57611c9d611ddb565b5b50919050565b611cad82611e8f565b810181811067ffffffffffffffff82111715611ccc57611ccb611e39565b5b80604052505050565b6000611ce082611c35565b91507fffffffffffffffffffffffffffffffffffffffffffffffffffffffffffffffff821415611d1357611d12611d7d565b5b600182019050919050565b6000611d2982611d30565b9050919050565b6000611d3b82611ea0565b9050919050565b6000819050919050565b6000611d5782611c35565b9150611d6283611c35565b925082611d7257611d71611dac565b5b828206905092915050565b7f4e487b7100000000000000000000000000000000000000000000000000000000600052601160045260246000fd5b7f4e487b7100000000000000000000000000000000000000000000000000000000600052601260045260246000fd5b7f4e487b7100000000000000000000000000000000000000000000000000000000600052602260045260246000fd5b7f4e487b7100000000000000000000000000000000000000000000000000000000600052603260045260246000fd5b7f4e487b7100000000000000000000000000000000000000000000000000000000600052604160045260246000fd5b600060033d1115611e875760046000803e611e84600051611ead565b90505b90565b600080fd5b6000601f19601f8301169050919050565b60008160601b9050919050565b60008160e01c9050919050565b7f455243313135353a207472616e7366657220746f206e6f6e204552433131353560008201527f526563656976657220696d706c656d656e746572000000000000000000000000602082015250565b7f455243313135353a204552433131353552656365697665722072656a6563746560008201527f6420746f6b656e73000000000000000000000000000000000000000000000000602082015250565b7f44726f707369746520697320616c72656164792052756e6e696e670000000000600082015250565b7f44726f707369746520697320616c72656164792053746f707065640000000000600082015250565b7f4f6e6c79204e46542d4553204f776e65722063616e2041636365737300000000600082015250565b7f44726f7073697465206973206e6f74204f70656e6564205965742e0000000000600082015250565b7f4d6178204d696e74696e67204c696d6974207265616368656400000000000000600082015250565b7f4572726f7221204e6f2042616c616e636520746f207769746864726177000000600082015250565b7f455243313135353a206d696e7420746f20746865207a65726f2061646472657360008201527f7300000000000000000000000000000000000000000000000000000000000000602082015250565b600060443d10156120ad57612130565b6120b5611b21565b60043d036004823e80513d602482011167ffffffffffffffff821117156120dd575050612130565b808201805167ffffffffffffffff8111156120fb5750505050612130565b80602083010160043d038501811115612118575050505050612130565b61212782602001850186611ca4565b82955050505050505b90565b61213c81611bb9565b811461214757600080fd5b50565b61215381611bcb565b811461215e57600080fd5b50565b61216a81611be9565b811461217557600080fd5b5056fea264697066735822122045612904bf53a5322ef6a4c7f4418ff662e171ae2fc109b7171e848f9264593264736f6c63430008070033",
					"opcodes": "PUSH1 0x80 PUSH1 0x40 MSTORE PUSH1 0x40 MLOAD DUP1 PUSH1 0x20 ADD PUSH1 0x40 MSTORE DUP1 PUSH1 0x0 DUP2 MSTORE POP PUSH1 0x2 SWAP1 DUP1 MLOAD SWAP1 PUSH1 0x20 ADD SWAP1 PUSH3 0x2B SWAP3 SWAP2 SWAP1 PUSH3 0x103 JUMP JUMPDEST POP PUSH1 0x1 PUSH1 0xB PUSH1 0x0 PUSH2 0x100 EXP DUP2 SLOAD DUP2 PUSH1 0xFF MUL NOT AND SWAP1 DUP4 ISZERO ISZERO MUL OR SWAP1 SSTORE POP CALLVALUE DUP1 ISZERO PUSH3 0x54 JUMPI PUSH1 0x0 DUP1 REVERT JUMPDEST POP PUSH1 0x40 MLOAD PUSH3 0x2655 CODESIZE SUB DUP1 PUSH3 0x2655 DUP4 CODECOPY DUP2 DUP2 ADD PUSH1 0x40 MSTORE DUP2 ADD SWAP1 PUSH3 0x7A SWAP2 SWAP1 PUSH3 0x2C2 JUMP JUMPDEST DUP1 PUSH1 0xC SWAP1 DUP1 MLOAD SWAP1 PUSH1 0x20 ADD SWAP1 PUSH3 0x92 SWAP3 SWAP2 SWAP1 PUSH3 0x194 JUMP JUMPDEST POP CALLER PUSH1 0xB PUSH1 0x1 PUSH2 0x100 EXP DUP2 SLOAD DUP2 PUSH20 0xFFFFFFFFFFFFFFFFFFFFFFFFFFFFFFFFFFFFFFFF MUL NOT AND SWAP1 DUP4 PUSH20 0xFFFFFFFFFFFFFFFFFFFFFFFFFFFFFFFFFFFFFFFF AND MUL OR SWAP1 SSTORE POP PUSH1 0x0 PUSH1 0x3 DUP2 SWAP1 SSTORE POP PUSH1 0x1 PUSH1 0x4 DUP2 SWAP1 SSTORE POP PUSH1 0x0 PUSH1 0x5 DUP2 SWAP1 SSTORE POP PUSH1 0x0 PUSH1 0x6 DUP2 SWAP1 SSTORE POP PUSH1 0x0 PUSH1 0x7 DUP2 SWAP1 SSTORE POP POP PUSH3 0x497 JUMP JUMPDEST DUP3 DUP1 SLOAD PUSH3 0x111 SWAP1 PUSH3 0x3A8 JUMP JUMPDEST SWAP1 PUSH1 0x0 MSTORE PUSH1 0x20 PUSH1 0x0 KECCAK256 SWAP1 PUSH1 0x1F ADD PUSH1 0x20 SWAP1 DIV DUP2 ADD SWAP3 DUP3 PUSH3 0x135 JUMPI PUSH1 0x0 DUP6 SSTORE PUSH3 0x181 JUMP JUMPDEST DUP3 PUSH1 0x1F LT PUSH3 0x150 JUMPI DUP1 MLOAD PUSH1 0xFF NOT AND DUP4 DUP1 ADD OR DUP6 SSTORE PUSH3 0x181 JUMP JUMPDEST DUP3 DUP1 ADD PUSH1 0x1 ADD DUP6 SSTORE DUP3 ISZERO PUSH3 0x181 JUMPI SWAP2 DUP3 ADD JUMPDEST DUP3 DUP2 GT ISZERO PUSH3 0x180 JUMPI DUP3 MLOAD DUP3 SSTORE SWAP2 PUSH1 0x20 ADD SWAP2 SWAP1 PUSH1 0x1 ADD SWAP1 PUSH3 0x163 JUMP JUMPDEST JUMPDEST POP SWAP1 POP PUSH3 0x190 SWAP2 SWAP1 PUSH3 0x225 JUMP JUMPDEST POP SWAP1 JUMP JUMPDEST DUP3 DUP1 SLOAD PUSH3 0x1A2 SWAP1 PUSH3 0x3A8 JUMP JUMPDEST SWAP1 PUSH1 0x0 MSTORE PUSH1 0x20 PUSH1 0x0 KECCAK256 SWAP1 PUSH1 0x1F ADD PUSH1 0x20 SWAP1 DIV DUP2 ADD SWAP3 DUP3 PUSH3 0x1C6 JUMPI PUSH1 0x0 DUP6 SSTORE PUSH3 0x212 JUMP JUMPDEST DUP3 PUSH1 0x1F LT PUSH3 0x1E1 JUMPI DUP1 MLOAD PUSH1 0xFF NOT AND DUP4 DUP1 ADD OR DUP6 SSTORE PUSH3 0x212 JUMP JUMPDEST DUP3 DUP1 ADD PUSH1 0x1 ADD DUP6 SSTORE DUP3 ISZERO PUSH3 0x212 JUMPI SWAP2 DUP3 ADD JUMPDEST DUP3 DUP2 GT ISZERO PUSH3 0x211 JUMPI DUP3 MLOAD DUP3 SSTORE SWAP2 PUSH1 0x20 ADD SWAP2 SWAP1 PUSH1 0x1 ADD SWAP1 PUSH3 0x1F4 JUMP JUMPDEST JUMPDEST POP SWAP1 POP PUSH3 0x221 SWAP2 SWAP1 PUSH3 0x225 JUMP JUMPDEST POP SWAP1 JUMP JUMPDEST JUMPDEST DUP1 DUP3 GT ISZERO PUSH3 0x240 JUMPI PUSH1 0x0 DUP2 PUSH1 0x0 SWAP1 SSTORE POP PUSH1 0x1 ADD PUSH3 0x226 JUMP JUMPDEST POP SWAP1 JUMP JUMPDEST PUSH1 0x0 PUSH3 0x25B PUSH3 0x255 DUP5 PUSH3 0x33C JUMP JUMPDEST PUSH3 0x313 JUMP JUMPDEST SWAP1 POP DUP3 DUP2 MSTORE PUSH1 0x20 DUP2 ADD DUP5 DUP5 DUP5 ADD GT ISZERO PUSH3 0x27A JUMPI PUSH3 0x279 PUSH3 0x477 JUMP JUMPDEST JUMPDEST PUSH3 0x287 DUP5 DUP3 DUP6 PUSH3 0x372 JUMP JUMPDEST POP SWAP4 SWAP3 POP POP POP JUMP JUMPDEST PUSH1 0x0 DUP3 PUSH1 0x1F DUP4 ADD SLT PUSH3 0x2A7 JUMPI PUSH3 0x2A6 PUSH3 0x472 JUMP JUMPDEST JUMPDEST DUP2 MLOAD PUSH3 0x2B9 DUP5 DUP3 PUSH1 0x20 DUP7 ADD PUSH3 0x244 JUMP JUMPDEST SWAP2 POP POP SWAP3 SWAP2 POP POP JUMP JUMPDEST PUSH1 0x0 PUSH1 0x20 DUP3 DUP5 SUB SLT ISZERO PUSH3 0x2DB JUMPI PUSH3 0x2DA PUSH3 0x481 JUMP JUMPDEST JUMPDEST PUSH1 0x0 DUP3 ADD MLOAD PUSH8 0xFFFFFFFFFFFFFFFF DUP2 GT ISZERO PUSH3 0x2FC JUMPI PUSH3 0x2FB PUSH3 0x47C JUMP JUMPDEST JUMPDEST PUSH3 0x30A DUP5 DUP3 DUP6 ADD PUSH3 0x28F JUMP JUMPDEST SWAP2 POP POP SWAP3 SWAP2 POP POP JUMP JUMPDEST PUSH1 0x0 PUSH3 0x31F PUSH3 0x332 JUMP JUMPDEST SWAP1 POP PUSH3 0x32D DUP3 DUP3 PUSH3 0x3DE JUMP JUMPDEST SWAP2 SWAP1 POP JUMP JUMPDEST PUSH1 0x0 PUSH1 0x40 MLOAD SWAP1 POP SWAP1 JUMP JUMPDEST PUSH1 0x0 PUSH8 0xFFFFFFFFFFFFFFFF DUP3 GT ISZERO PUSH3 0x35A JUMPI PUSH3 0x359 PUSH3 0x443 JUMP JUMPDEST JUMPDEST PUSH3 0x365 DUP3 PUSH3 0x486 JUMP JUMPDEST SWAP1 POP PUSH1 0x20 DUP2 ADD SWAP1 POP SWAP2 SWAP1 POP JUMP JUMPDEST PUSH1 0x0 JUMPDEST DUP4 DUP2 LT ISZERO PUSH3 0x392 JUMPI DUP1 DUP3 ADD MLOAD DUP2 DUP5 ADD MSTORE PUSH1 0x20 DUP2 ADD SWAP1 POP PUSH3 0x375 JUMP JUMPDEST DUP4 DUP2 GT ISZERO PUSH3 0x3A2 JUMPI PUSH1 0x0 DUP5 DUP5 ADD MSTORE JUMPDEST POP POP POP POP JUMP JUMPDEST PUSH1 0x0 PUSH1 0x2 DUP3 DIV SWAP1 POP PUSH1 0x1 DUP3 AND DUP1 PUSH3 0x3C1 JUMPI PUSH1 0x7F DUP3 AND SWAP2 POP JUMPDEST PUSH1 0x20 DUP3 LT DUP2 EQ ISZERO PUSH3 0x3D8 JUMPI PUSH3 0x3D7 PUSH3 0x414 JUMP JUMPDEST JUMPDEST POP SWAP2 SWAP1 POP JUMP JUMPDEST PUSH3 0x3E9 DUP3 PUSH3 0x486 JUMP JUMPDEST DUP2 ADD DUP2 DUP2 LT PUSH8 0xFFFFFFFFFFFFFFFF DUP3 GT OR ISZERO PUSH3 0x40B JUMPI PUSH3 0x40A PUSH3 0x443 JUMP JUMPDEST JUMPDEST DUP1 PUSH1 0x40 MSTORE POP POP POP JUMP JUMPDEST PUSH32 0x4E487B7100000000000000000000000000000000000000000000000000000000 PUSH1 0x0 MSTORE PUSH1 0x22 PUSH1 0x4 MSTORE PUSH1 0x24 PUSH1 0x0 REVERT JUMPDEST PUSH32 0x4E487B7100000000000000000000000000000000000000000000000000000000 PUSH1 0x0 MSTORE PUSH1 0x41 PUSH1 0x4 MSTORE PUSH1 0x24 PUSH1 0x0 REVERT JUMPDEST PUSH1 0x0 DUP1 REVERT JUMPDEST PUSH1 0x0 DUP1 REVERT JUMPDEST PUSH1 0x0 DUP1 REVERT JUMPDEST PUSH1 0x0 DUP1 REVERT JUMPDEST PUSH1 0x0 PUSH1 0x1F NOT PUSH1 0x1F DUP4 ADD AND SWAP1 POP SWAP2 SWAP1 POP JUMP JUMPDEST PUSH2 0x21AE DUP1 PUSH3 0x4A7 PUSH1 0x0 CODECOPY PUSH1 0x0 RETURN INVALID PUSH1 0x80 PUSH1 0x40 MSTORE PUSH1 0x4 CALLDATASIZE LT PUSH2 0x91 JUMPI PUSH1 0x0 CALLDATALOAD PUSH1 0xE0 SHR DUP1 PUSH4 0x3D65DF70 GT PUSH2 0x59 JUMPI DUP1 PUSH4 0x3D65DF70 EQ PUSH2 0x14A JUMPI DUP1 PUSH4 0x60DAA851 EQ PUSH2 0x17B JUMPI DUP1 PUSH4 0xAA90C726 EQ PUSH2 0x1A8 JUMPI DUP1 PUSH4 0xB4A99A4E EQ PUSH2 0x1BF JUMPI DUP1 PUSH4 0xFD93D41C EQ PUSH2 0x1EA JUMPI PUSH2 0x91 JUMP JUMPDEST DUP1 PUSH4 0x390C11C EQ PUSH2 0x96 JUMPI DUP1 PUSH4 0xA67D2C7 EQ PUSH2 0xC1 JUMPI DUP1 PUSH4 0x1309A563 EQ PUSH2 0xDD JUMPI DUP1 PUSH4 0x15460259 EQ PUSH2 0x108 JUMPI DUP1 PUSH4 0x3B668059 EQ PUSH2 0x11F JUMPI JUMPDEST PUSH1 0x0 DUP1 REVERT JUMPDEST CALLVALUE DUP1 ISZERO PUSH2 0xA2 JUMPI PUSH1 0x0 DUP1 REVERT JUMPDEST POP PUSH2 0xAB PUSH2 0x228 JUMP JUMPDEST PUSH1 0x40 MLOAD PUSH2 0xB8 SWAP2 SWAP1 PUSH2 0x1A76 JUMP JUMPDEST PUSH1 0x40 MLOAD DUP1 SWAP2 SUB SWAP1 RETURN JUMPDEST PUSH2 0xDB PUSH1 0x4 DUP1 CALLDATASIZE SUB DUP2 ADD SWAP1 PUSH2 0xD6 SWAP2 SWAP1 PUSH2 0x1607 JUMP JUMPDEST PUSH2 0x2C9 JUMP JUMPDEST STOP JUMPDEST CALLVALUE DUP1 ISZERO PUSH2 0xE9 JUMPI PUSH1 0x0 DUP1 REVERT JUMPDEST POP PUSH2 0xF2 PUSH2 0x3F3 JUMP JUMPDEST PUSH1 0x40 MLOAD PUSH2 0xFF SWAP2 SWAP1 PUSH2 0x1919 JUMP JUMPDEST PUSH1 0x40 MLOAD DUP1 SWAP2 SUB SWAP1 RETURN JUMPDEST CALLVALUE DUP1 ISZERO PUSH2 0x114 JUMPI PUSH1 0x0 DUP1 REVERT JUMPDEST POP PUSH2 0x11D PUSH2 0x406 JUMP JUMPDEST STOP JUMPDEST CALLVALUE DUP1 ISZERO PUSH2 0x12B JUMPI PUSH1 0x0 DUP1 REVERT JUMPDEST POP PUSH2 0x134 PUSH2 0x510 JUMP JUMPDEST PUSH1 0x40 MLOAD PUSH2 0x141 SWAP2 SWAP1 PUSH2 0x1A76 JUMP JUMPDEST PUSH1 0x40 MLOAD DUP1 SWAP2 SUB SWAP1 RETURN JUMPDEST PUSH2 0x164 PUSH1 0x4 DUP1 CALLDATASIZE SUB DUP2 ADD SWAP1 PUSH2 0x15F SWAP2 SWAP1 PUSH2 0x15DA JUMP JUMPDEST PUSH2 0x5AF JUMP JUMPDEST PUSH1 0x40 MLOAD PUSH2 0x172 SWAP3 SWAP2 SWAP1 PUSH2 0x1A91 JUMP JUMPDEST PUSH1 0x40 MLOAD DUP1 SWAP2 SUB SWAP1 RETURN JUMPDEST CALLVALUE DUP1 ISZERO PUSH2 0x187 JUMPI PUSH1 0x0 DUP1 REVERT JUMPDEST POP PUSH2 0x190 PUSH2 0xA10 JUMP JUMPDEST PUSH1 0x40 MLOAD PUSH2 0x19F SWAP4 SWAP3 SWAP2 SWAP1 PUSH2 0x1AEA JUMP JUMPDEST PUSH1 0x40 MLOAD DUP1 SWAP2 SUB SWAP1 RETURN JUMPDEST CALLVALUE DUP1 ISZERO PUSH2 0x1B4 JUMPI PUSH1 0x0 DUP1 REVERT JUMPDEST POP PUSH2 0x1BD PUSH2 0xAC0 JUMP JUMPDEST STOP JUMPDEST CALLVALUE DUP1 ISZERO PUSH2 0x1CB JUMPI PUSH1 0x0 DUP1 REVERT JUMPDEST POP PUSH2 0x1D4 PUSH2 0xBCA JUMP JUMPDEST PUSH1 0x40 MLOAD PUSH2 0x1E1 SWAP2 SWAP1 PUSH2 0x18A4 JUMP JUMPDEST PUSH1 0x40 MLOAD DUP1 SWAP2 SUB SWAP1 RETURN JUMPDEST CALLVALUE DUP1 ISZERO PUSH2 0x1F6 JUMPI PUSH1 0x0 DUP1 REVERT JUMPDEST POP PUSH2 0x211 PUSH1 0x4 DUP1 CALLDATASIZE SUB DUP2 ADD SWAP1 PUSH2 0x20C SWAP2 SWAP1 PUSH2 0x15DA JUMP JUMPDEST PUSH2 0xBF0 JUMP JUMPDEST PUSH1 0x40 MLOAD PUSH2 0x21F SWAP3 SWAP2 SWAP1 PUSH2 0x1A91 JUMP JUMPDEST PUSH1 0x40 MLOAD DUP1 SWAP2 SUB SWAP1 RETURN JUMPDEST PUSH1 0x0 PUSH1 0xB PUSH1 0x1 SWAP1 SLOAD SWAP1 PUSH2 0x100 EXP SWAP1 DIV PUSH20 0xFFFFFFFFFFFFFFFFFFFFFFFFFFFFFFFFFFFFFFFF AND PUSH20 0xFFFFFFFFFFFFFFFFFFFFFFFFFFFFFFFFFFFFFFFF AND PUSH2 0x26B PUSH2 0x1040 JUMP JUMPDEST PUSH20 0xFFFFFFFFFFFFFFFFFFFFFFFFFFFFFFFFFFFFFFFF AND EQ PUSH2 0x2C1 JUMPI PUSH1 0x40 MLOAD PUSH32 0x8C379A000000000000000000000000000000000000000000000000000000000 DUP2 MSTORE PUSH1 0x4 ADD PUSH2 0x2B8 SWAP1 PUSH2 0x19D6 JUMP JUMPDEST PUSH1 0x40 MLOAD DUP1 SWAP2 SUB SWAP1 REVERT JUMPDEST PUSH1 0x3 SLOAD SWAP1 POP SWAP1 JUMP JUMPDEST PUSH1 0xB PUSH1 0x1 SWAP1 SLOAD SWAP1 PUSH2 0x100 EXP SWAP1 DIV PUSH20 0xFFFFFFFFFFFFFFFFFFFFFFFFFFFFFFFFFFFFFFFF AND PUSH20 0xFFFFFFFFFFFFFFFFFFFFFFFFFFFFFFFFFFFFFFFF AND PUSH2 0x30A PUSH2 0x1040 JUMP JUMPDEST PUSH20 0xFFFFFFFFFFFFFFFFFFFFFFFFFFFFFFFFFFFFFFFF AND EQ PUSH2 0x360 JUMPI PUSH1 0x40 MLOAD PUSH32 0x8C379A000000000000000000000000000000000000000000000000000000000 DUP2 MSTORE PUSH1 0x4 ADD PUSH2 0x357 SWAP1 PUSH2 0x19D6 JUMP JUMPDEST PUSH1 0x40 MLOAD DUP1 SWAP2 SUB SWAP1 REVERT JUMPDEST PUSH1 0x0 SELFBALANCE SWAP1 POP PUSH1 0x0 DUP2 GT PUSH2 0x3A8 JUMPI PUSH1 0x40 MLOAD PUSH32 0x8C379A000000000000000000000000000000000000000000000000000000000 DUP2 MSTORE PUSH1 0x4 ADD PUSH2 0x39F SWAP1 PUSH2 0x1A36 JUMP JUMPDEST PUSH1 0x40 MLOAD DUP1 SWAP2 SUB SWAP1 REVERT JUMPDEST DUP2 PUSH20 0xFFFFFFFFFFFFFFFFFFFFFFFFFFFFFFFFFFFFFFFF AND PUSH2 0x8FC DUP3 SWAP1 DUP2 ISZERO MUL SWAP1 PUSH1 0x40 MLOAD PUSH1 0x0 PUSH1 0x40 MLOAD DUP1 DUP4 SUB DUP2 DUP6 DUP9 DUP9 CALL SWAP4 POP POP POP POP ISZERO DUP1 ISZERO PUSH2 0x3EE JUMPI RETURNDATASIZE PUSH1 0x0 DUP1 RETURNDATACOPY RETURNDATASIZE PUSH1 0x0 REVERT JUMPDEST POP POP POP JUMP JUMPDEST PUSH1 0xB PUSH1 0x0 SWAP1 SLOAD SWAP1 PUSH2 0x100 EXP SWAP1 DIV PUSH1 0xFF AND DUP2 JUMP JUMPDEST PUSH1 0xB PUSH1 0x1 SWAP1 SLOAD SWAP1 PUSH2 0x100 EXP SWAP1 DIV PUSH20 0xFFFFFFFFFFFFFFFFFFFFFFFFFFFFFFFFFFFFFFFF AND PUSH20 0xFFFFFFFFFFFFFFFFFFFFFFFFFFFFFFFFFFFFFFFF AND PUSH2 0x447 PUSH2 0x1040 JUMP JUMPDEST PUSH20 0xFFFFFFFFFFFFFFFFFFFFFFFFFFFFFFFFFFFFFFFF AND EQ PUSH2 0x49D JUMPI PUSH1 0x40 MLOAD PUSH32 0x8C379A000000000000000000000000000000000000000000000000000000000 DUP2 MSTORE PUSH1 0x4 ADD PUSH2 0x494 SWAP1 PUSH2 0x19D6 JUMP JUMPDEST PUSH1 0x40 MLOAD DUP1 SWAP2 SUB SWAP1 REVERT JUMPDEST PUSH1 0x1 ISZERO ISZERO PUSH1 0xB PUSH1 0x0 SWAP1 SLOAD SWAP1 PUSH2 0x100 EXP SWAP1 DIV PUSH1 0xFF AND ISZERO ISZERO EQ PUSH2 0x4F3 JUMPI PUSH1 0x40 MLOAD PUSH32 0x8C379A000000000000000000000000000000000000000000000000000000000 DUP2 MSTORE PUSH1 0x4 ADD PUSH2 0x4EA SWAP1 PUSH2 0x1996 JUMP JUMPDEST PUSH1 0x40 MLOAD DUP1 SWAP2 SUB SWAP1 REVERT JUMPDEST PUSH1 0x0 PUSH1 0xB PUSH1 0x0 PUSH2 0x100 EXP DUP2 SLOAD DUP2 PUSH1 0xFF MUL NOT AND SWAP1 DUP4 ISZERO ISZERO MUL OR SWAP1 SSTORE POP JUMP JUMPDEST PUSH1 0x0 PUSH1 0xB PUSH1 0x1 SWAP1 SLOAD SWAP1 PUSH2 0x100 EXP SWAP1 DIV PUSH20 0xFFFFFFFFFFFFFFFFFFFFFFFFFFFFFFFFFFFFFFFF AND PUSH20 0xFFFFFFFFFFFFFFFFFFFFFFFFFFFFFFFFFFFFFFFF AND PUSH2 0x553 PUSH2 0x1040 JUMP JUMPDEST PUSH20 0xFFFFFFFFFFFFFFFFFFFFFFFFFFFFFFFFFFFFFFFF AND EQ PUSH2 0x5A9 JUMPI PUSH1 0x40 MLOAD PUSH32 0x8C379A000000000000000000000000000000000000000000000000000000000 DUP2 MSTORE PUSH1 0x4 ADD PUSH2 0x5A0 SWAP1 PUSH2 0x19D6 JUMP JUMPDEST PUSH1 0x40 MLOAD DUP1 SWAP2 SUB SWAP1 REVERT JUMPDEST SELFBALANCE SWAP1 POP SWAP1 JUMP JUMPDEST PUSH1 0x0 PUSH1 0x60 PUSH1 0xB PUSH1 0x1 SWAP1 SLOAD SWAP1 PUSH2 0x100 EXP SWAP1 DIV PUSH20 0xFFFFFFFFFFFFFFFFFFFFFFFFFFFFFFFFFFFFFFFF AND PUSH20 0xFFFFFFFFFFFFFFFFFFFFFFFFFFFFFFFFFFFFFFFF AND PUSH2 0x5F4 PUSH2 0x1040 JUMP JUMPDEST PUSH20 0xFFFFFFFFFFFFFFFFFFFFFFFFFFFFFFFFFFFFFFFF AND EQ PUSH2 0x64A JUMPI PUSH1 0x40 MLOAD PUSH32 0x8C379A000000000000000000000000000000000000000000000000000000000 DUP2 MSTORE PUSH1 0x4 ADD PUSH2 0x641 SWAP1 PUSH2 0x19D6 JUMP JUMPDEST PUSH1 0x40 MLOAD DUP1 SWAP2 SUB SWAP1 REVERT JUMPDEST PUSH1 0x0 ISZERO ISZERO PUSH1 0xB PUSH1 0x0 SWAP1 SLOAD SWAP1 PUSH2 0x100 EXP SWAP1 DIV PUSH1 0xFF AND ISZERO ISZERO EQ PUSH2 0x6A0 JUMPI PUSH1 0x40 MLOAD PUSH32 0x8C379A000000000000000000000000000000000000000000000000000000000 DUP2 MSTORE PUSH1 0x4 ADD PUSH2 0x697 SWAP1 PUSH2 0x19F6 JUMP JUMPDEST PUSH1 0x40 MLOAD DUP1 SWAP2 SUB SWAP1 REVERT JUMPDEST PUSH1 0x64 PUSH1 0x3 SLOAD LT PUSH2 0x6E5 JUMPI PUSH1 0x40 MLOAD PUSH32 0x8C379A000000000000000000000000000000000000000000000000000000000 DUP2 MSTORE PUSH1 0x4 ADD PUSH2 0x6DC SWAP1 PUSH2 0x1A16 JUMP JUMPDEST PUSH1 0x40 MLOAD DUP1 SWAP2 SUB SWAP1 REVERT JUMPDEST PUSH1 0x0 PUSH2 0x6EF PUSH2 0x1048 JUMP JUMPDEST SWAP1 POP PUSH1 0x0 DUP2 EQ DUP1 ISZERO PUSH2 0x703 JUMPI POP PUSH1 0xF PUSH1 0x5 SLOAD LT JUMPDEST ISZERO PUSH2 0x771 JUMPI PUSH1 0x40 MLOAD DUP1 PUSH1 0x40 ADD PUSH1 0x40 MSTORE DUP1 PUSH1 0x8 DUP2 MSTORE PUSH1 0x20 ADD PUSH32 0x506C6174696E756D000000000000000000000000000000000000000000000000 DUP2 MSTORE POP PUSH1 0x2 SWAP1 DUP1 MLOAD SWAP1 PUSH1 0x20 ADD SWAP1 PUSH2 0x753 SWAP3 SWAP2 SWAP1 PUSH2 0x14F8 JUMP JUMPDEST POP PUSH1 0x5 PUSH1 0x0 DUP2 SLOAD DUP1 SWAP3 SWAP2 SWAP1 PUSH2 0x767 SWAP1 PUSH2 0x1CD5 JUMP JUMPDEST SWAP2 SWAP1 POP SSTORE POP PUSH2 0x872 JUMP JUMPDEST PUSH1 0x1 DUP2 GT ISZERO DUP1 ISZERO PUSH2 0x784 JUMPI POP PUSH1 0x23 PUSH1 0x6 SLOAD LT JUMPDEST ISZERO PUSH2 0x7F2 JUMPI PUSH1 0x40 MLOAD DUP1 PUSH1 0x40 ADD PUSH1 0x40 MSTORE DUP1 PUSH1 0x4 DUP2 MSTORE PUSH1 0x20 ADD PUSH32 0x476F6C6400000000000000000000000000000000000000000000000000000000 DUP2 MSTORE POP PUSH1 0x2 SWAP1 DUP1 MLOAD SWAP1 PUSH1 0x20 ADD SWAP1 PUSH2 0x7D4 SWAP3 SWAP2 SWAP1 PUSH2 0x14F8 JUMP JUMPDEST POP PUSH1 0x6 PUSH1 0x0 DUP2 SLOAD DUP1 SWAP3 SWAP2 SWAP1 PUSH2 0x7E8 SWAP1 PUSH2 0x1CD5 JUMP JUMPDEST SWAP2 SWAP1 POP SSTORE POP PUSH2 0x871 JUMP JUMPDEST PUSH1 0x2 DUP2 GT ISZERO DUP1 ISZERO PUSH2 0x806 JUMPI POP PUSH1 0x32 PUSH1 0x7 SLOAD GT ISZERO JUMPDEST ISZERO PUSH2 0x870 JUMPI PUSH1 0x40 MLOAD DUP1 PUSH1 0x40 ADD PUSH1 0x40 MSTORE DUP1 PUSH1 0x6 DUP2 MSTORE PUSH1 0x20 ADD PUSH32 0x53696C7665720000000000000000000000000000000000000000000000000000 DUP2 MSTORE POP PUSH1 0x2 SWAP1 DUP1 MLOAD SWAP1 PUSH1 0x20 ADD SWAP1 PUSH2 0x856 SWAP3 SWAP2 SWAP1 PUSH2 0x14F8 JUMP JUMPDEST POP PUSH1 0x7 PUSH1 0x0 DUP2 SLOAD DUP1 SWAP3 SWAP2 SWAP1 PUSH2 0x86A SWAP1 PUSH2 0x1CD5 JUMP JUMPDEST SWAP2 SWAP1 POP SSTORE POP JUMPDEST JUMPDEST JUMPDEST PUSH2 0x90A DUP5 DUP3 PUSH1 0x4 SLOAD PUSH1 0x2 DUP1 SLOAD PUSH2 0x887 SWAP1 PUSH2 0x1C72 JUMP JUMPDEST DUP1 PUSH1 0x1F ADD PUSH1 0x20 DUP1 SWAP2 DIV MUL PUSH1 0x20 ADD PUSH1 0x40 MLOAD SWAP1 DUP2 ADD PUSH1 0x40 MSTORE DUP1 SWAP3 SWAP2 SWAP1 DUP2 DUP2 MSTORE PUSH1 0x20 ADD DUP3 DUP1 SLOAD PUSH2 0x8B3 SWAP1 PUSH2 0x1C72 JUMP JUMPDEST DUP1 ISZERO PUSH2 0x900 JUMPI DUP1 PUSH1 0x1F LT PUSH2 0x8D5 JUMPI PUSH2 0x100 DUP1 DUP4 SLOAD DIV MUL DUP4 MSTORE SWAP2 PUSH1 0x20 ADD SWAP2 PUSH2 0x900 JUMP JUMPDEST DUP3 ADD SWAP2 SWAP1 PUSH1 0x0 MSTORE PUSH1 0x20 PUSH1 0x0 KECCAK256 SWAP1 JUMPDEST DUP2 SLOAD DUP2 MSTORE SWAP1 PUSH1 0x1 ADD SWAP1 PUSH1 0x20 ADD DUP1 DUP4 GT PUSH2 0x8E3 JUMPI DUP3 SWAP1 SUB PUSH1 0x1F AND DUP3 ADD SWAP2 JUMPDEST POP POP POP POP POP PUSH2 0x108C JUMP JUMPDEST PUSH2 0x91B PUSH2 0x915 PUSH2 0x1040 JUMP JUMPDEST CALLVALUE PUSH2 0x1222 JUMP JUMPDEST PUSH1 0x3 PUSH1 0x0 DUP2 SLOAD DUP1 SWAP3 SWAP2 SWAP1 PUSH2 0x92E SWAP1 PUSH2 0x1CD5 JUMP JUMPDEST SWAP2 SWAP1 POP SSTORE POP DUP1 PUSH1 0x8 PUSH1 0x0 DUP7 PUSH20 0xFFFFFFFFFFFFFFFFFFFFFFFFFFFFFFFFFFFFFFFF AND PUSH20 0xFFFFFFFFFFFFFFFFFFFFFFFFFFFFFFFFFFFFFFFF AND DUP2 MSTORE PUSH1 0x20 ADD SWAP1 DUP2 MSTORE PUSH1 0x20 ADD PUSH1 0x0 KECCAK256 DUP2 SWAP1 SSTORE POP DUP1 PUSH1 0x2 DUP1 DUP1 SLOAD PUSH2 0x986 SWAP1 PUSH2 0x1C72 JUMP JUMPDEST DUP1 PUSH1 0x1F ADD PUSH1 0x20 DUP1 SWAP2 DIV MUL PUSH1 0x20 ADD PUSH1 0x40 MLOAD SWAP1 DUP2 ADD PUSH1 0x40 MSTORE DUP1 SWAP3 SWAP2 SWAP1 DUP2 DUP2 MSTORE PUSH1 0x20 ADD DUP3 DUP1 SLOAD PUSH2 0x9B2 SWAP1 PUSH2 0x1C72 JUMP JUMPDEST DUP1 ISZERO PUSH2 0x9FF JUMPI DUP1 PUSH1 0x1F LT PUSH2 0x9D4 JUMPI PUSH2 0x100 DUP1 DUP4 SLOAD DIV MUL DUP4 MSTORE SWAP2 PUSH1 0x20 ADD SWAP2 PUSH2 0x9FF JUMP JUMPDEST DUP3 ADD SWAP2 SWAP1 PUSH1 0x0 MSTORE PUSH1 0x20 PUSH1 0x0 KECCAK256 SWAP1 JUMPDEST DUP2 SLOAD DUP2 MSTORE SWAP1 PUSH1 0x1 ADD SWAP1 PUSH1 0x20 ADD DUP1 DUP4 GT PUSH2 0x9E2 JUMPI DUP3 SWAP1 SUB PUSH1 0x1F AND DUP3 ADD SWAP2 JUMPDEST POP POP POP POP POP SWAP1 POP SWAP3 POP SWAP3 POP POP SWAP2 POP SWAP2 JUMP JUMPDEST PUSH1 0x0 DUP1 PUSH1 0x0 PUSH1 0xB PUSH1 0x1 SWAP1 SLOAD SWAP1 PUSH2 0x100 EXP SWAP1 DIV PUSH20 0xFFFFFFFFFFFFFFFFFFFFFFFFFFFFFFFFFFFFFFFF AND PUSH20 0xFFFFFFFFFFFFFFFFFFFFFFFFFFFFFFFFFFFFFFFF AND PUSH2 0xA56 PUSH2 0x1040 JUMP JUMPDEST PUSH20 0xFFFFFFFFFFFFFFFFFFFFFFFFFFFFFFFFFFFFFFFF AND EQ PUSH2 0xAAC JUMPI PUSH1 0x40 MLOAD PUSH32 0x8C379A000000000000000000000000000000000000000000000000000000000 DUP2 MSTORE PUSH1 0x4 ADD PUSH2 0xAA3 SWAP1 PUSH2 0x19D6 JUMP JUMPDEST PUSH1 0x40 MLOAD DUP1 SWAP2 SUB SWAP1 REVERT JUMPDEST PUSH1 0x5 SLOAD PUSH1 0x6 SLOAD PUSH1 0x7 SLOAD SWAP3 POP SWAP3 POP SWAP3 POP SWAP1 SWAP2 SWAP3 JUMP JUMPDEST PUSH1 0xB PUSH1 0x1 SWAP1 SLOAD SWAP1 PUSH2 0x100 EXP SWAP1 DIV PUSH20 0xFFFFFFFFFFFFFFFFFFFFFFFFFFFFFFFFFFFFFFFF AND PUSH20 0xFFFFFFFFFFFFFFFFFFFFFFFFFFFFFFFFFFFFFFFF AND PUSH2 0xB01 PUSH2 0x1040 JUMP JUMPDEST PUSH20 0xFFFFFFFFFFFFFFFFFFFFFFFFFFFFFFFFFFFFFFFF AND EQ PUSH2 0xB57 JUMPI PUSH1 0x40 MLOAD PUSH32 0x8C379A000000000000000000000000000000000000000000000000000000000 DUP2 MSTORE PUSH1 0x4 ADD PUSH2 0xB4E SWAP1 PUSH2 0x19D6 JUMP JUMPDEST PUSH1 0x40 MLOAD DUP1 SWAP2 SUB SWAP1 REVERT JUMPDEST PUSH1 0x0 ISZERO ISZERO PUSH1 0xB PUSH1 0x0 SWAP1 SLOAD SWAP1 PUSH2 0x100 EXP SWAP1 DIV PUSH1 0xFF AND ISZERO ISZERO EQ PUSH2 0xBAD JUMPI PUSH1 0x40 MLOAD PUSH32 0x8C379A000000000000000000000000000000000000000000000000000000000 DUP2 MSTORE PUSH1 0x4 ADD PUSH2 0xBA4 SWAP1 PUSH2 0x19B6 JUMP JUMPDEST PUSH1 0x40 MLOAD DUP1 SWAP2 SUB SWAP1 REVERT JUMPDEST PUSH1 0x1 PUSH1 0xB PUSH1 0x0 PUSH2 0x100 EXP DUP2 SLOAD DUP2 PUSH1 0xFF MUL NOT AND SWAP1 DUP4 ISZERO ISZERO MUL OR SWAP1 SSTORE POP JUMP JUMPDEST PUSH1 0xB PUSH1 0x1 SWAP1 SLOAD SWAP1 PUSH2 0x100 EXP SWAP1 DIV PUSH20 0xFFFFFFFFFFFFFFFFFFFFFFFFFFFFFFFFFFFFFFFF AND DUP2 JUMP JUMPDEST PUSH1 0x0 PUSH1 0x60 PUSH1 0xB PUSH1 0x1 SWAP1 SLOAD SWAP1 PUSH2 0x100 EXP SWAP1 DIV PUSH20 0xFFFFFFFFFFFFFFFFFFFFFFFFFFFFFFFFFFFFFFFF AND PUSH20 0xFFFFFFFFFFFFFFFFFFFFFFFFFFFFFFFFFFFFFFFF AND PUSH2 0xC35 PUSH2 0x1040 JUMP JUMPDEST PUSH20 0xFFFFFFFFFFFFFFFFFFFFFFFFFFFFFFFFFFFFFFFF AND EQ PUSH2 0xC8B JUMPI PUSH1 0x40 MLOAD PUSH32 0x8C379A000000000000000000000000000000000000000000000000000000000 DUP2 MSTORE PUSH1 0x4 ADD PUSH2 0xC82 SWAP1 PUSH2 0x19D6 JUMP JUMPDEST PUSH1 0x40 MLOAD DUP1 SWAP2 SUB SWAP1 REVERT JUMPDEST PUSH1 0x0 ISZERO ISZERO PUSH1 0xB PUSH1 0x0 SWAP1 SLOAD SWAP1 PUSH2 0x100 EXP SWAP1 DIV PUSH1 0xFF AND ISZERO ISZERO EQ PUSH2 0xCE1 JUMPI PUSH1 0x40 MLOAD PUSH32 0x8C379A000000000000000000000000000000000000000000000000000000000 DUP2 MSTORE PUSH1 0x4 ADD PUSH2 0xCD8 SWAP1 PUSH2 0x19F6 JUMP JUMPDEST PUSH1 0x40 MLOAD DUP1 SWAP2 SUB SWAP1 REVERT JUMPDEST PUSH1 0x64 PUSH1 0x3 SLOAD LT PUSH2 0xD26 JUMPI PUSH1 0x40 MLOAD PUSH32 0x8C379A000000000000000000000000000000000000000000000000000000000 DUP2 MSTORE PUSH1 0x4 ADD PUSH2 0xD1D SWAP1 PUSH2 0x1A16 JUMP JUMPDEST PUSH1 0x40 MLOAD DUP1 SWAP2 SUB SWAP1 REVERT JUMPDEST PUSH1 0x0 PUSH2 0xD30 PUSH2 0x1048 JUMP JUMPDEST SWAP1 POP PUSH1 0x0 DUP2 EQ DUP1 ISZERO PUSH2 0xD44 JUMPI POP PUSH1 0xF PUSH1 0x5 SLOAD LT JUMPDEST ISZERO PUSH2 0xDB2 JUMPI PUSH1 0x40 MLOAD DUP1 PUSH1 0x40 ADD PUSH1 0x40 MSTORE DUP1 PUSH1 0x8 DUP2 MSTORE PUSH1 0x20 ADD PUSH32 0x506C6174696E756D000000000000000000000000000000000000000000000000 DUP2 MSTORE POP PUSH1 0x2 SWAP1 DUP1 MLOAD SWAP1 PUSH1 0x20 ADD SWAP1 PUSH2 0xD94 SWAP3 SWAP2 SWAP1 PUSH2 0x14F8 JUMP JUMPDEST POP PUSH1 0x5 PUSH1 0x0 DUP2 SLOAD DUP1 SWAP3 SWAP2 SWAP1 PUSH2 0xDA8 SWAP1 PUSH2 0x1CD5 JUMP JUMPDEST SWAP2 SWAP1 POP SSTORE POP PUSH2 0xEB3 JUMP JUMPDEST PUSH1 0x1 DUP2 GT ISZERO DUP1 ISZERO PUSH2 0xDC5 JUMPI POP PUSH1 0x23 PUSH1 0x6 SLOAD LT JUMPDEST ISZERO PUSH2 0xE33 JUMPI PUSH1 0x40 MLOAD DUP1 PUSH1 0x40 ADD PUSH1 0x40 MSTORE DUP1 PUSH1 0x4 DUP2 MSTORE PUSH1 0x20 ADD PUSH32 0x476F6C6400000000000000000000000000000000000000000000000000000000 DUP2 MSTORE POP PUSH1 0x2 SWAP1 DUP1 MLOAD SWAP1 PUSH1 0x20 ADD SWAP1 PUSH2 0xE15 SWAP3 SWAP2 SWAP1 PUSH2 0x14F8 JUMP JUMPDEST POP PUSH1 0x6 PUSH1 0x0 DUP2 SLOAD DUP1 SWAP3 SWAP2 SWAP1 PUSH2 0xE29 SWAP1 PUSH2 0x1CD5 JUMP JUMPDEST SWAP2 SWAP1 POP SSTORE POP PUSH2 0xEB2 JUMP JUMPDEST PUSH1 0x2 DUP2 GT ISZERO DUP1 ISZERO PUSH2 0xE47 JUMPI POP PUSH1 0x32 PUSH1 0x7 SLOAD GT ISZERO JUMPDEST ISZERO PUSH2 0xEB1 JUMPI PUSH1 0x40 MLOAD DUP1 PUSH1 0x40 ADD PUSH1 0x40 MSTORE DUP1 PUSH1 0x6 DUP2 MSTORE PUSH1 0x20 ADD PUSH32 0x53696C7665720000000000000000000000000000000000000000000000000000 DUP2 MSTORE POP PUSH1 0x2 SWAP1 DUP1 MLOAD SWAP1 PUSH1 0x20 ADD SWAP1 PUSH2 0xE97 SWAP3 SWAP2 SWAP1 PUSH2 0x14F8 JUMP JUMPDEST POP PUSH1 0x7 PUSH1 0x0 DUP2 SLOAD DUP1 SWAP3 SWAP2 SWAP1 PUSH2 0xEAB SWAP1 PUSH2 0x1CD5 JUMP JUMPDEST SWAP2 SWAP1 POP SSTORE POP JUMPDEST JUMPDEST JUMPDEST PUSH2 0xF4B DUP5 DUP3 PUSH1 0x4 SLOAD PUSH1 0x2 DUP1 SLOAD PUSH2 0xEC8 SWAP1 PUSH2 0x1C72 JUMP JUMPDEST DUP1 PUSH1 0x1F ADD PUSH1 0x20 DUP1 SWAP2 DIV MUL PUSH1 0x20 ADD PUSH1 0x40 MLOAD SWAP1 DUP2 ADD PUSH1 0x40 MSTORE DUP1 SWAP3 SWAP2 SWAP1 DUP2 DUP2 MSTORE PUSH1 0x20 ADD DUP3 DUP1 SLOAD PUSH2 0xEF4 SWAP1 PUSH2 0x1C72 JUMP JUMPDEST DUP1 ISZERO PUSH2 0xF41 JUMPI DUP1 PUSH1 0x1F LT PUSH2 0xF16 JUMPI PUSH2 0x100 DUP1 DUP4 SLOAD DIV MUL DUP4 MSTORE SWAP2 PUSH1 0x20 ADD SWAP2 PUSH2 0xF41 JUMP JUMPDEST DUP3 ADD SWAP2 SWAP1 PUSH1 0x0 MSTORE PUSH1 0x20 PUSH1 0x0 KECCAK256 SWAP1 JUMPDEST DUP2 SLOAD DUP2 MSTORE SWAP1 PUSH1 0x1 ADD SWAP1 PUSH1 0x20 ADD DUP1 DUP4 GT PUSH2 0xF24 JUMPI DUP3 SWAP1 SUB PUSH1 0x1F AND DUP3 ADD SWAP2 JUMPDEST POP POP POP POP POP PUSH2 0x108C JUMP JUMPDEST PUSH1 0x3 PUSH1 0x0 DUP2 SLOAD DUP1 SWAP3 SWAP2 SWAP1 PUSH2 0xF5E SWAP1 PUSH2 0x1CD5 JUMP JUMPDEST SWAP2 SWAP1 POP SSTORE POP DUP1 PUSH1 0x8 PUSH1 0x0 DUP7 PUSH20 0xFFFFFFFFFFFFFFFFFFFFFFFFFFFFFFFFFFFFFFFF AND PUSH20 0xFFFFFFFFFFFFFFFFFFFFFFFFFFFFFFFFFFFFFFFF AND DUP2 MSTORE PUSH1 0x20 ADD SWAP1 DUP2 MSTORE PUSH1 0x20 ADD PUSH1 0x0 KECCAK256 DUP2 SWAP1 SSTORE POP DUP1 PUSH1 0x2 DUP1 DUP1 SLOAD PUSH2 0xFB6 SWAP1 PUSH2 0x1C72 JUMP JUMPDEST DUP1 PUSH1 0x1F ADD PUSH1 0x20 DUP1 SWAP2 DIV MUL PUSH1 0x20 ADD PUSH1 0x40 MLOAD SWAP1 DUP2 ADD PUSH1 0x40 MSTORE DUP1 SWAP3 SWAP2 SWAP1 DUP2 DUP2 MSTORE PUSH1 0x20 ADD DUP3 DUP1 SLOAD PUSH2 0xFE2 SWAP1 PUSH2 0x1C72 JUMP JUMPDEST DUP1 ISZERO PUSH2 0x102F JUMPI DUP1 PUSH1 0x1F LT PUSH2 0x1004 JUMPI PUSH2 0x100 DUP1 DUP4 SLOAD DIV MUL DUP4 MSTORE SWAP2 PUSH1 0x20 ADD SWAP2 PUSH2 0x102F JUMP JUMPDEST DUP3 ADD SWAP2 SWAP1 PUSH1 0x0 MSTORE PUSH1 0x20 PUSH1 0x0 KECCAK256 SWAP1 JUMPDEST DUP2 SLOAD DUP2 MSTORE SWAP1 PUSH1 0x1 ADD SWAP1 PUSH1 0x20 ADD DUP1 DUP4 GT PUSH2 0x1012 JUMPI DUP3 SWAP1 SUB PUSH1 0x1F AND DUP3 ADD SWAP2 JUMPDEST POP POP POP POP POP SWAP1 POP SWAP3 POP SWAP3 POP POP SWAP2 POP SWAP2 JUMP JUMPDEST PUSH1 0x0 CALLER SWAP1 POP SWAP1 JUMP JUMPDEST PUSH1 0x0 DUP1 PUSH1 0x3 TIMESTAMP CALLER PUSH1 0x40 MLOAD PUSH1 0x20 ADD PUSH2 0x1060 SWAP3 SWAP2 SWAP1 PUSH2 0x1878 JUMP JUMPDEST PUSH1 0x40 MLOAD PUSH1 0x20 DUP2 DUP4 SUB SUB DUP2 MSTORE SWAP1 PUSH1 0x40 MSTORE DUP1 MLOAD SWAP1 PUSH1 0x20 ADD KECCAK256 PUSH1 0x0 SHR PUSH2 0x1083 SWAP2 SWAP1 PUSH2 0x1D4C JUMP JUMPDEST SWAP1 POP DUP1 SWAP2 POP POP SWAP1 JUMP JUMPDEST PUSH1 0x0 PUSH20 0xFFFFFFFFFFFFFFFFFFFFFFFFFFFFFFFFFFFFFFFF AND DUP5 PUSH20 0xFFFFFFFFFFFFFFFFFFFFFFFFFFFFFFFFFFFFFFFF AND EQ ISZERO PUSH2 0x10FC JUMPI PUSH1 0x40 MLOAD PUSH32 0x8C379A000000000000000000000000000000000000000000000000000000000 DUP2 MSTORE PUSH1 0x4 ADD PUSH2 0x10F3 SWAP1 PUSH2 0x1A56 JUMP JUMPDEST PUSH1 0x40 MLOAD DUP1 SWAP2 SUB SWAP1 REVERT JUMPDEST PUSH1 0x0 PUSH2 0x1106 PUSH2 0x1040 JUMP JUMPDEST SWAP1 POP PUSH2 0x1127 DUP2 PUSH1 0x0 DUP8 PUSH2 0x1118 DUP9 PUSH2 0x127C JUMP JUMPDEST PUSH2 0x1121 DUP9 PUSH2 0x127C JUMP JUMPDEST DUP8 PUSH2 0x12F6 JUMP JUMPDEST DUP3 PUSH1 0x0 DUP1 DUP7 DUP2 MSTORE PUSH1 0x20 ADD SWAP1 DUP2 MSTORE PUSH1 0x20 ADD PUSH1 0x0 KECCAK256 PUSH1 0x0 DUP8 PUSH20 0xFFFFFFFFFFFFFFFFFFFFFFFFFFFFFFFFFFFFFFFF AND PUSH20 0xFFFFFFFFFFFFFFFFFFFFFFFFFFFFFFFFFFFFFFFF AND DUP2 MSTORE PUSH1 0x20 ADD SWAP1 DUP2 MSTORE PUSH1 0x20 ADD PUSH1 0x0 KECCAK256 PUSH1 0x0 DUP3 DUP3 SLOAD PUSH2 0x1186 SWAP2 SWAP1 PUSH2 0x1B63 JUMP JUMPDEST SWAP3 POP POP DUP2 SWAP1 SSTORE POP DUP5 PUSH20 0xFFFFFFFFFFFFFFFFFFFFFFFFFFFFFFFFFFFFFFFF AND PUSH1 0x0 PUSH20 0xFFFFFFFFFFFFFFFFFFFFFFFFFFFFFFFFFFFFFFFF AND DUP3 PUSH20 0xFFFFFFFFFFFFFFFFFFFFFFFFFFFFFFFFFFFFFFFF AND PUSH32 0xC3D58168C5AE7397731D063D5BBF3D657854427343F4C083240F7AACAA2D0F62 DUP8 DUP8 PUSH1 0x40 MLOAD PUSH2 0x1204 SWAP3 SWAP2 SWAP1 PUSH2 0x1AC1 JUMP JUMPDEST PUSH1 0x40 MLOAD DUP1 SWAP2 SUB SWAP1 LOG4 PUSH2 0x121B DUP2 PUSH1 0x0 DUP8 DUP8 DUP8 DUP8 PUSH2 0x12FE JUMP JUMPDEST POP POP POP POP POP JUMP JUMPDEST DUP1 PUSH1 0xA PUSH1 0x0 DUP5 PUSH20 0xFFFFFFFFFFFFFFFFFFFFFFFFFFFFFFFFFFFFFFFF AND PUSH20 0xFFFFFFFFFFFFFFFFFFFFFFFFFFFFFFFFFFFFFFFF AND DUP2 MSTORE PUSH1 0x20 ADD SWAP1 DUP2 MSTORE PUSH1 0x20 ADD PUSH1 0x0 KECCAK256 PUSH1 0x0 DUP3 DUP3 SLOAD PUSH2 0x1271 SWAP2 SWAP1 PUSH2 0x1B63 JUMP JUMPDEST SWAP3 POP POP DUP2 SWAP1 SSTORE POP POP POP JUMP JUMPDEST PUSH1 0x60 PUSH1 0x0 PUSH1 0x1 PUSH8 0xFFFFFFFFFFFFFFFF DUP2 GT ISZERO PUSH2 0x129B JUMPI PUSH2 0x129A PUSH2 0x1E39 JUMP JUMPDEST JUMPDEST PUSH1 0x40 MLOAD SWAP1 DUP1 DUP3 MSTORE DUP1 PUSH1 0x20 MUL PUSH1 0x20 ADD DUP3 ADD PUSH1 0x40 MSTORE DUP1 ISZERO PUSH2 0x12C9 JUMPI DUP2 PUSH1 0x20 ADD PUSH1 0x20 DUP3 MUL DUP1 CALLDATASIZE DUP4 CALLDATACOPY DUP1 DUP3 ADD SWAP2 POP POP SWAP1 POP JUMPDEST POP SWAP1 POP DUP3 DUP2 PUSH1 0x0 DUP2 MLOAD DUP2 LT PUSH2 0x12E1 JUMPI PUSH2 0x12E0 PUSH2 0x1E0A JUMP JUMPDEST JUMPDEST PUSH1 0x20 MUL PUSH1 0x20 ADD ADD DUP2 DUP2 MSTORE POP POP DUP1 SWAP2 POP POP SWAP2 SWAP1 POP JUMP JUMPDEST POP POP POP POP POP POP JUMP JUMPDEST PUSH2 0x131D DUP5 PUSH20 0xFFFFFFFFFFFFFFFFFFFFFFFFFFFFFFFFFFFFFFFF AND PUSH2 0x14E5 JUMP JUMPDEST ISZERO PUSH2 0x14DD JUMPI DUP4 PUSH20 0xFFFFFFFFFFFFFFFFFFFFFFFFFFFFFFFFFFFFFFFF AND PUSH4 0xF23A6E61 DUP8 DUP8 DUP7 DUP7 DUP7 PUSH1 0x40 MLOAD DUP7 PUSH4 0xFFFFFFFF AND PUSH1 0xE0 SHL DUP2 MSTORE PUSH1 0x4 ADD PUSH2 0x1363 SWAP6 SWAP5 SWAP4 SWAP3 SWAP2 SWAP1 PUSH2 0x18BF JUMP JUMPDEST PUSH1 0x20 PUSH1 0x40 MLOAD DUP1 DUP4 SUB DUP2 PUSH1 0x0 DUP8 DUP1 EXTCODESIZE ISZERO DUP1 ISZERO PUSH2 0x137D JUMPI PUSH1 0x0 DUP1 REVERT JUMPDEST POP GAS CALL SWAP3 POP POP POP DUP1 ISZERO PUSH2 0x13AE JUMPI POP PUSH1 0x40 MLOAD RETURNDATASIZE PUSH1 0x1F NOT PUSH1 0x1F DUP3 ADD AND DUP3 ADD DUP1 PUSH1 0x40 MSTORE POP DUP2 ADD SWAP1 PUSH2 0x13AB SWAP2 SWAP1 PUSH2 0x1634 JUMP JUMPDEST PUSH1 0x1 JUMPDEST PUSH2 0x1454 JUMPI PUSH2 0x13BA PUSH2 0x1E68 JUMP JUMPDEST DUP1 PUSH4 0x8C379A0 EQ ISZERO PUSH2 0x1417 JUMPI POP PUSH2 0x13CF PUSH2 0x209D JUMP JUMPDEST DUP1 PUSH2 0x13DA JUMPI POP PUSH2 0x1419 JUMP JUMPDEST DUP1 PUSH1 0x40 MLOAD PUSH32 0x8C379A000000000000000000000000000000000000000000000000000000000 DUP2 MSTORE PUSH1 0x4 ADD PUSH2 0x140E SWAP2 SWAP1 PUSH2 0x1934 JUMP JUMPDEST PUSH1 0x40 MLOAD DUP1 SWAP2 SUB SWAP1 REVERT JUMPDEST POP JUMPDEST PUSH1 0x40 MLOAD PUSH32 0x8C379A000000000000000000000000000000000000000000000000000000000 DUP2 MSTORE PUSH1 0x4 ADD PUSH2 0x144B SWAP1 PUSH2 0x1956 JUMP JUMPDEST PUSH1 0x40 MLOAD DUP1 SWAP2 SUB SWAP1 REVERT JUMPDEST PUSH4 0xF23A6E61 PUSH1 0xE0 SHL PUSH28 0xFFFFFFFFFFFFFFFFFFFFFFFFFFFFFFFFFFFFFFFFFFFFFFFFFFFFFFFF NOT AND DUP2 PUSH28 0xFFFFFFFFFFFFFFFFFFFFFFFFFFFFFFFFFFFFFFFFFFFFFFFFFFFFFFFF NOT AND EQ PUSH2 0x14DB JUMPI PUSH1 0x40 MLOAD PUSH32 0x8C379A000000000000000000000000000000000000000000000000000000000 DUP2 MSTORE PUSH1 0x4 ADD PUSH2 0x14D2 SWAP1 PUSH2 0x1976 JUMP JUMPDEST PUSH1 0x40 MLOAD DUP1 SWAP2 SUB SWAP1 REVERT JUMPDEST POP JUMPDEST POP POP POP POP POP POP JUMP JUMPDEST PUSH1 0x0 DUP1 DUP3 EXTCODESIZE SWAP1 POP PUSH1 0x0 DUP2 GT SWAP2 POP POP SWAP2 SWAP1 POP JUMP JUMPDEST DUP3 DUP1 SLOAD PUSH2 0x1504 SWAP1 PUSH2 0x1C72 JUMP JUMPDEST SWAP1 PUSH1 0x0 MSTORE PUSH1 0x20 PUSH1 0x0 KECCAK256 SWAP1 PUSH1 0x1F ADD PUSH1 0x20 SWAP1 DIV DUP2 ADD SWAP3 DUP3 PUSH2 0x1526 JUMPI PUSH1 0x0 DUP6 SSTORE PUSH2 0x156D JUMP JUMPDEST DUP3 PUSH1 0x1F LT PUSH2 0x153F JUMPI DUP1 MLOAD PUSH1 0xFF NOT AND DUP4 DUP1 ADD OR DUP6 SSTORE PUSH2 0x156D JUMP JUMPDEST DUP3 DUP1 ADD PUSH1 0x1 ADD DUP6 SSTORE DUP3 ISZERO PUSH2 0x156D JUMPI SWAP2 DUP3 ADD JUMPDEST DUP3 DUP2 GT ISZERO PUSH2 0x156C JUMPI DUP3 MLOAD DUP3 SSTORE SWAP2 PUSH1 0x20 ADD SWAP2 SWAP1 PUSH1 0x1 ADD SWAP1 PUSH2 0x1551 JUMP JUMPDEST JUMPDEST POP SWAP1 POP PUSH2 0x157A SWAP2 SWAP1 PUSH2 0x157E JUMP JUMPDEST POP SWAP1 JUMP JUMPDEST JUMPDEST DUP1 DUP3 GT ISZERO PUSH2 0x1597 JUMPI PUSH1 0x0 DUP2 PUSH1 0x0 SWAP1 SSTORE POP PUSH1 0x1 ADD PUSH2 0x157F JUMP JUMPDEST POP SWAP1 JUMP JUMPDEST PUSH1 0x0 DUP2 CALLDATALOAD SWAP1 POP PUSH2 0x15AA DUP2 PUSH2 0x2133 JUMP JUMPDEST SWAP3 SWAP2 POP POP JUMP JUMPDEST PUSH1 0x0 DUP2 CALLDATALOAD SWAP1 POP PUSH2 0x15BF DUP2 PUSH2 0x214A JUMP JUMPDEST SWAP3 SWAP2 POP POP JUMP JUMPDEST PUSH1 0x0 DUP2 MLOAD SWAP1 POP PUSH2 0x15D4 DUP2 PUSH2 0x2161 JUMP JUMPDEST SWAP3 SWAP2 POP POP JUMP JUMPDEST PUSH1 0x0 PUSH1 0x20 DUP3 DUP5 SUB SLT ISZERO PUSH2 0x15F0 JUMPI PUSH2 0x15EF PUSH2 0x1E8A JUMP JUMPDEST JUMPDEST PUSH1 0x0 PUSH2 0x15FE DUP5 DUP3 DUP6 ADD PUSH2 0x159B JUMP JUMPDEST SWAP2 POP POP SWAP3 SWAP2 POP POP JUMP JUMPDEST PUSH1 0x0 PUSH1 0x20 DUP3 DUP5 SUB SLT ISZERO PUSH2 0x161D JUMPI PUSH2 0x161C PUSH2 0x1E8A JUMP JUMPDEST JUMPDEST PUSH1 0x0 PUSH2 0x162B DUP5 DUP3 DUP6 ADD PUSH2 0x15B0 JUMP JUMPDEST SWAP2 POP POP SWAP3 SWAP2 POP POP JUMP JUMPDEST PUSH1 0x0 PUSH1 0x20 DUP3 DUP5 SUB SLT ISZERO PUSH2 0x164A JUMPI PUSH2 0x1649 PUSH2 0x1E8A JUMP JUMPDEST JUMPDEST PUSH1 0x0 PUSH2 0x1658 DUP5 DUP3 DUP6 ADD PUSH2 0x15C5 JUMP JUMPDEST SWAP2 POP POP SWAP3 SWAP2 POP POP JUMP JUMPDEST PUSH2 0x166A DUP2 PUSH2 0x1BCB JUMP JUMPDEST DUP3 MSTORE POP POP JUMP JUMPDEST PUSH2 0x1679 DUP2 PUSH2 0x1BB9 JUMP JUMPDEST DUP3 MSTORE POP POP JUMP JUMPDEST PUSH2 0x1690 PUSH2 0x168B DUP3 PUSH2 0x1BB9 JUMP JUMPDEST PUSH2 0x1D1E JUMP JUMPDEST DUP3 MSTORE POP POP JUMP JUMPDEST PUSH2 0x169F DUP2 PUSH2 0x1BDD JUMP JUMPDEST DUP3 MSTORE POP POP JUMP JUMPDEST PUSH1 0x0 PUSH2 0x16B0 DUP3 PUSH2 0x1B2B JUMP JUMPDEST PUSH2 0x16BA DUP2 DUP6 PUSH2 0x1B41 JUMP JUMPDEST SWAP4 POP PUSH2 0x16CA DUP2 DUP6 PUSH1 0x20 DUP7 ADD PUSH2 0x1C3F JUMP JUMPDEST PUSH2 0x16D3 DUP2 PUSH2 0x1E8F JUMP JUMPDEST DUP5 ADD SWAP2 POP POP SWAP3 SWAP2 POP POP JUMP JUMPDEST PUSH1 0x0 PUSH2 0x16E9 DUP3 PUSH2 0x1B36 JUMP JUMPDEST PUSH2 0x16F3 DUP2 DUP6 PUSH2 0x1B52 JUMP JUMPDEST SWAP4 POP PUSH2 0x1703 DUP2 DUP6 PUSH1 0x20 DUP7 ADD PUSH2 0x1C3F JUMP JUMPDEST PUSH2 0x170C DUP2 PUSH2 0x1E8F JUMP JUMPDEST DUP5 ADD SWAP2 POP POP SWAP3 SWAP2 POP POP JUMP JUMPDEST PUSH1 0x0 PUSH2 0x1724 PUSH1 0x34 DUP4 PUSH2 0x1B52 JUMP JUMPDEST SWAP2 POP PUSH2 0x172F DUP3 PUSH2 0x1EBA JUMP JUMPDEST PUSH1 0x40 DUP3 ADD SWAP1 POP SWAP2 SWAP1 POP JUMP JUMPDEST PUSH1 0x0 PUSH2 0x1747 PUSH1 0x28 DUP4 PUSH2 0x1B52 JUMP JUMPDEST SWAP2 POP PUSH2 0x1752 DUP3 PUSH2 0x1F09 JUMP JUMPDEST PUSH1 0x40 DUP3 ADD SWAP1 POP SWAP2 SWAP1 POP JUMP JUMPDEST PUSH1 0x0 PUSH2 0x176A PUSH1 0x1B DUP4 PUSH2 0x1B52 JUMP JUMPDEST SWAP2 POP PUSH2 0x1775 DUP3 PUSH2 0x1F58 JUMP JUMPDEST PUSH1 0x20 DUP3 ADD SWAP1 POP SWAP2 SWAP1 POP JUMP JUMPDEST PUSH1 0x0 PUSH2 0x178D PUSH1 0x1B DUP4 PUSH2 0x1B52 JUMP JUMPDEST SWAP2 POP PUSH2 0x1798 DUP3 PUSH2 0x1F81 JUMP JUMPDEST PUSH1 0x20 DUP3 ADD SWAP1 POP SWAP2 SWAP1 POP JUMP JUMPDEST PUSH1 0x0 PUSH2 0x17B0 PUSH1 0x1C DUP4 PUSH2 0x1B52 JUMP JUMPDEST SWAP2 POP PUSH2 0x17BB DUP3 PUSH2 0x1FAA JUMP JUMPDEST PUSH1 0x20 DUP3 ADD SWAP1 POP SWAP2 SWAP1 POP JUMP JUMPDEST PUSH1 0x0 PUSH2 0x17D3 PUSH1 0x1B DUP4 PUSH2 0x1B52 JUMP JUMPDEST SWAP2 POP PUSH2 0x17DE DUP3 PUSH2 0x1FD3 JUMP JUMPDEST PUSH1 0x20 DUP3 ADD SWAP1 POP SWAP2 SWAP1 POP JUMP JUMPDEST PUSH1 0x0 PUSH2 0x17F6 PUSH1 0x19 DUP4 PUSH2 0x1B52 JUMP JUMPDEST SWAP2 POP PUSH2 0x1801 DUP3 PUSH2 0x1FFC JUMP JUMPDEST PUSH1 0x20 DUP3 ADD SWAP1 POP SWAP2 SWAP1 POP JUMP JUMPDEST PUSH1 0x0 PUSH2 0x1819 PUSH1 0x1D DUP4 PUSH2 0x1B52 JUMP JUMPDEST SWAP2 POP PUSH2 0x1824 DUP3 PUSH2 0x2025 JUMP JUMPDEST PUSH1 0x20 DUP3 ADD SWAP1 POP SWAP2 SWAP1 POP JUMP JUMPDEST PUSH1 0x0 PUSH2 0x183C PUSH1 0x21 DUP4 PUSH2 0x1B52 JUMP JUMPDEST SWAP2 POP PUSH2 0x1847 DUP3 PUSH2 0x204E JUMP JUMPDEST PUSH1 0x40 DUP3 ADD SWAP1 POP SWAP2 SWAP1 POP JUMP JUMPDEST PUSH2 0x185B DUP2 PUSH2 0x1C35 JUMP JUMPDEST DUP3 MSTORE POP POP JUMP JUMPDEST PUSH2 0x1872 PUSH2 0x186D DUP3 PUSH2 0x1C35 JUMP JUMPDEST PUSH2 0x1D42 JUMP JUMPDEST DUP3 MSTORE POP POP JUMP JUMPDEST PUSH1 0x0 PUSH2 0x1884 DUP3 DUP6 PUSH2 0x1861 JUMP JUMPDEST PUSH1 0x20 DUP3 ADD SWAP2 POP PUSH2 0x1894 DUP3 DUP5 PUSH2 0x167F JUMP JUMPDEST PUSH1 0x14 DUP3 ADD SWAP2 POP DUP2 SWAP1 POP SWAP4 SWAP3 POP POP POP JUMP JUMPDEST PUSH1 0x0 PUSH1 0x20 DUP3 ADD SWAP1 POP PUSH2 0x18B9 PUSH1 0x0 DUP4 ADD DUP5 PUSH2 0x1661 JUMP JUMPDEST SWAP3 SWAP2 POP POP JUMP JUMPDEST PUSH1 0x0 PUSH1 0xA0 DUP3 ADD SWAP1 POP PUSH2 0x18D4 PUSH1 0x0 DUP4 ADD DUP9 PUSH2 0x1670 JUMP JUMPDEST PUSH2 0x18E1 PUSH1 0x20 DUP4 ADD DUP8 PUSH2 0x1670 JUMP JUMPDEST PUSH2 0x18EE PUSH1 0x40 DUP4 ADD DUP7 PUSH2 0x1852 JUMP JUMPDEST PUSH2 0x18FB PUSH1 0x60 DUP4 ADD DUP6 PUSH2 0x1852 JUMP JUMPDEST DUP2 DUP2 SUB PUSH1 0x80 DUP4 ADD MSTORE PUSH2 0x190D DUP2 DUP5 PUSH2 0x16A5 JUMP JUMPDEST SWAP1 POP SWAP7 SWAP6 POP POP POP POP POP POP JUMP JUMPDEST PUSH1 0x0 PUSH1 0x20 DUP3 ADD SWAP1 POP PUSH2 0x192E PUSH1 0x0 DUP4 ADD DUP5 PUSH2 0x1696 JUMP JUMPDEST SWAP3 SWAP2 POP POP JUMP JUMPDEST PUSH1 0x0 PUSH1 0x20 DUP3 ADD SWAP1 POP DUP2 DUP2 SUB PUSH1 0x0 DUP4 ADD MSTORE PUSH2 0x194E DUP2 DUP5 PUSH2 0x16DE JUMP JUMPDEST SWAP1 POP SWAP3 SWAP2 POP POP JUMP JUMPDEST PUSH1 0x0 PUSH1 0x20 DUP3 ADD SWAP1 POP DUP2 DUP2 SUB PUSH1 0x0 DUP4 ADD MSTORE PUSH2 0x196F DUP2 PUSH2 0x1717 JUMP JUMPDEST SWAP1 POP SWAP2 SWAP1 POP JUMP JUMPDEST PUSH1 0x0 PUSH1 0x20 DUP3 ADD SWAP1 POP DUP2 DUP2 SUB PUSH1 0x0 DUP4 ADD MSTORE PUSH2 0x198F DUP2 PUSH2 0x173A JUMP JUMPDEST SWAP1 POP SWAP2 SWAP1 POP JUMP JUMPDEST PUSH1 0x0 PUSH1 0x20 DUP3 ADD SWAP1 POP DUP2 DUP2 SUB PUSH1 0x0 DUP4 ADD MSTORE PUSH2 0x19AF DUP2 PUSH2 0x175D JUMP JUMPDEST SWAP1 POP SWAP2 SWAP1 POP JUMP JUMPDEST PUSH1 0x0 PUSH1 0x20 DUP3 ADD SWAP1 POP DUP2 DUP2 SUB PUSH1 0x0 DUP4 ADD MSTORE PUSH2 0x19CF DUP2 PUSH2 0x1780 JUMP JUMPDEST SWAP1 POP SWAP2 SWAP1 POP JUMP JUMPDEST PUSH1 0x0 PUSH1 0x20 DUP3 ADD SWAP1 POP DUP2 DUP2 SUB PUSH1 0x0 DUP4 ADD MSTORE PUSH2 0x19EF DUP2 PUSH2 0x17A3 JUMP JUMPDEST SWAP1 POP SWAP2 SWAP1 POP JUMP JUMPDEST PUSH1 0x0 PUSH1 0x20 DUP3 ADD SWAP1 POP DUP2 DUP2 SUB PUSH1 0x0 DUP4 ADD MSTORE PUSH2 0x1A0F DUP2 PUSH2 0x17C6 JUMP JUMPDEST SWAP1 POP SWAP2 SWAP1 POP JUMP JUMPDEST PUSH1 0x0 PUSH1 0x20 DUP3 ADD SWAP1 POP DUP2 DUP2 SUB PUSH1 0x0 DUP4 ADD MSTORE PUSH2 0x1A2F DUP2 PUSH2 0x17E9 JUMP JUMPDEST SWAP1 POP SWAP2 SWAP1 POP JUMP JUMPDEST PUSH1 0x0 PUSH1 0x20 DUP3 ADD SWAP1 POP DUP2 DUP2 SUB PUSH1 0x0 DUP4 ADD MSTORE PUSH2 0x1A4F DUP2 PUSH2 0x180C JUMP JUMPDEST SWAP1 POP SWAP2 SWAP1 POP JUMP JUMPDEST PUSH1 0x0 PUSH1 0x20 DUP3 ADD SWAP1 POP DUP2 DUP2 SUB PUSH1 0x0 DUP4 ADD MSTORE PUSH2 0x1A6F DUP2 PUSH2 0x182F JUMP JUMPDEST SWAP1 POP SWAP2 SWAP1 POP JUMP JUMPDEST PUSH1 0x0 PUSH1 0x20 DUP3 ADD SWAP1 POP PUSH2 0x1A8B PUSH1 0x0 DUP4 ADD DUP5 PUSH2 0x1852 JUMP JUMPDEST SWAP3 SWAP2 POP POP JUMP JUMPDEST PUSH1 0x0 PUSH1 0x40 DUP3 ADD SWAP1 POP PUSH2 0x1AA6 PUSH1 0x0 DUP4 ADD DUP6 PUSH2 0x1852 JUMP JUMPDEST DUP2 DUP2 SUB PUSH1 0x20 DUP4 ADD MSTORE PUSH2 0x1AB8 DUP2 DUP5 PUSH2 0x16DE JUMP JUMPDEST SWAP1 POP SWAP4 SWAP3 POP POP POP JUMP JUMPDEST PUSH1 0x0 PUSH1 0x40 DUP3 ADD SWAP1 POP PUSH2 0x1AD6 PUSH1 0x0 DUP4 ADD DUP6 PUSH2 0x1852 JUMP JUMPDEST PUSH2 0x1AE3 PUSH1 0x20 DUP4 ADD DUP5 PUSH2 0x1852 JUMP JUMPDEST SWAP4 SWAP3 POP POP POP JUMP JUMPDEST PUSH1 0x0 PUSH1 0x60 DUP3 ADD SWAP1 POP PUSH2 0x1AFF PUSH1 0x0 DUP4 ADD DUP7 PUSH2 0x1852 JUMP JUMPDEST PUSH2 0x1B0C PUSH1 0x20 DUP4 ADD DUP6 PUSH2 0x1852 JUMP JUMPDEST PUSH2 0x1B19 PUSH1 0x40 DUP4 ADD DUP5 PUSH2 0x1852 JUMP JUMPDEST SWAP5 SWAP4 POP POP POP POP JUMP JUMPDEST PUSH1 0x0 PUSH1 0x40 MLOAD SWAP1 POP SWAP1 JUMP JUMPDEST PUSH1 0x0 DUP2 MLOAD SWAP1 POP SWAP2 SWAP1 POP JUMP JUMPDEST PUSH1 0x0 DUP2 MLOAD SWAP1 POP SWAP2 SWAP1 POP JUMP JUMPDEST PUSH1 0x0 DUP3 DUP3 MSTORE PUSH1 0x20 DUP3 ADD SWAP1 POP SWAP3 SWAP2 POP POP JUMP JUMPDEST PUSH1 0x0 DUP3 DUP3 MSTORE PUSH1 0x20 DUP3 ADD SWAP1 POP SWAP3 SWAP2 POP POP JUMP JUMPDEST PUSH1 0x0 PUSH2 0x1B6E DUP3 PUSH2 0x1C35 JUMP JUMPDEST SWAP2 POP PUSH2 0x1B79 DUP4 PUSH2 0x1C35 JUMP JUMPDEST SWAP3 POP DUP3 PUSH32 0xFFFFFFFFFFFFFFFFFFFFFFFFFFFFFFFFFFFFFFFFFFFFFFFFFFFFFFFFFFFFFFFF SUB DUP3 GT ISZERO PUSH2 0x1BAE JUMPI PUSH2 0x1BAD PUSH2 0x1D7D JUMP JUMPDEST JUMPDEST DUP3 DUP3 ADD SWAP1 POP SWAP3 SWAP2 POP POP JUMP JUMPDEST PUSH1 0x0 PUSH2 0x1BC4 DUP3 PUSH2 0x1C15 JUMP JUMPDEST SWAP1 POP SWAP2 SWAP1 POP JUMP JUMPDEST PUSH1 0x0 PUSH2 0x1BD6 DUP3 PUSH2 0x1C15 JUMP JUMPDEST SWAP1 POP SWAP2 SWAP1 POP JUMP JUMPDEST PUSH1 0x0 DUP2 ISZERO ISZERO SWAP1 POP SWAP2 SWAP1 POP JUMP JUMPDEST PUSH1 0x0 PUSH32 0xFFFFFFFF00000000000000000000000000000000000000000000000000000000 DUP3 AND SWAP1 POP SWAP2 SWAP1 POP JUMP JUMPDEST PUSH1 0x0 PUSH20 0xFFFFFFFFFFFFFFFFFFFFFFFFFFFFFFFFFFFFFFFF DUP3 AND SWAP1 POP SWAP2 SWAP1 POP JUMP JUMPDEST PUSH1 0x0 DUP2 SWAP1 POP SWAP2 SWAP1 POP JUMP JUMPDEST PUSH1 0x0 JUMPDEST DUP4 DUP2 LT ISZERO PUSH2 0x1C5D JUMPI DUP1 DUP3 ADD MLOAD DUP2 DUP5 ADD MSTORE PUSH1 0x20 DUP2 ADD SWAP1 POP PUSH2 0x1C42 JUMP JUMPDEST DUP4 DUP2 GT ISZERO PUSH2 0x1C6C JUMPI PUSH1 0x0 DUP5 DUP5 ADD MSTORE JUMPDEST POP POP POP POP JUMP JUMPDEST PUSH1 0x0 PUSH1 0x2 DUP3 DIV SWAP1 POP PUSH1 0x1 DUP3 AND DUP1 PUSH2 0x1C8A JUMPI PUSH1 0x7F DUP3 AND SWAP2 POP JUMPDEST PUSH1 0x20 DUP3 LT DUP2 EQ ISZERO PUSH2 0x1C9E JUMPI PUSH2 0x1C9D PUSH2 0x1DDB JUMP JUMPDEST JUMPDEST POP SWAP2 SWAP1 POP JUMP JUMPDEST PUSH2 0x1CAD DUP3 PUSH2 0x1E8F JUMP JUMPDEST DUP2 ADD DUP2 DUP2 LT PUSH8 0xFFFFFFFFFFFFFFFF DUP3 GT OR ISZERO PUSH2 0x1CCC JUMPI PUSH2 0x1CCB PUSH2 0x1E39 JUMP JUMPDEST JUMPDEST DUP1 PUSH1 0x40 MSTORE POP POP POP JUMP JUMPDEST PUSH1 0x0 PUSH2 0x1CE0 DUP3 PUSH2 0x1C35 JUMP JUMPDEST SWAP2 POP PUSH32 0xFFFFFFFFFFFFFFFFFFFFFFFFFFFFFFFFFFFFFFFFFFFFFFFFFFFFFFFFFFFFFFFF DUP3 EQ ISZERO PUSH2 0x1D13 JUMPI PUSH2 0x1D12 PUSH2 0x1D7D JUMP JUMPDEST JUMPDEST PUSH1 0x1 DUP3 ADD SWAP1 POP SWAP2 SWAP1 POP JUMP JUMPDEST PUSH1 0x0 PUSH2 0x1D29 DUP3 PUSH2 0x1D30 JUMP JUMPDEST SWAP1 POP SWAP2 SWAP1 POP JUMP JUMPDEST PUSH1 0x0 PUSH2 0x1D3B DUP3 PUSH2 0x1EA0 JUMP JUMPDEST SWAP1 POP SWAP2 SWAP1 POP JUMP JUMPDEST PUSH1 0x0 DUP2 SWAP1 POP SWAP2 SWAP1 POP JUMP JUMPDEST PUSH1 0x0 PUSH2 0x1D57 DUP3 PUSH2 0x1C35 JUMP JUMPDEST SWAP2 POP PUSH2 0x1D62 DUP4 PUSH2 0x1C35 JUMP JUMPDEST SWAP3 POP DUP3 PUSH2 0x1D72 JUMPI PUSH2 0x1D71 PUSH2 0x1DAC JUMP JUMPDEST JUMPDEST DUP3 DUP3 MOD SWAP1 POP SWAP3 SWAP2 POP POP JUMP JUMPDEST PUSH32 0x4E487B7100000000000000000000000000000000000000000000000000000000 PUSH1 0x0 MSTORE PUSH1 0x11 PUSH1 0x4 MSTORE PUSH1 0x24 PUSH1 0x0 REVERT JUMPDEST PUSH32 0x4E487B7100000000000000000000000000000000000000000000000000000000 PUSH1 0x0 MSTORE PUSH1 0x12 PUSH1 0x4 MSTORE PUSH1 0x24 PUSH1 0x0 REVERT JUMPDEST PUSH32 0x4E487B7100000000000000000000000000000000000000000000000000000000 PUSH1 0x0 MSTORE PUSH1 0x22 PUSH1 0x4 MSTORE PUSH1 0x24 PUSH1 0x0 REVERT JUMPDEST PUSH32 0x4E487B7100000000000000000000000000000000000000000000000000000000 PUSH1 0x0 MSTORE PUSH1 0x32 PUSH1 0x4 MSTORE PUSH1 0x24 PUSH1 0x0 REVERT JUMPDEST PUSH32 0x4E487B7100000000000000000000000000000000000000000000000000000000 PUSH1 0x0 MSTORE PUSH1 0x41 PUSH1 0x4 MSTORE PUSH1 0x24 PUSH1 0x0 REVERT JUMPDEST PUSH1 0x0 PUSH1 0x3 RETURNDATASIZE GT ISZERO PUSH2 0x1E87 JUMPI PUSH1 0x4 PUSH1 0x0 DUP1 RETURNDATACOPY PUSH2 0x1E84 PUSH1 0x0 MLOAD PUSH2 0x1EAD JUMP JUMPDEST SWAP1 POP JUMPDEST SWAP1 JUMP JUMPDEST PUSH1 0x0 DUP1 REVERT JUMPDEST PUSH1 0x0 PUSH1 0x1F NOT PUSH1 0x1F DUP4 ADD AND SWAP1 POP SWAP2 SWAP1 POP JUMP JUMPDEST PUSH1 0x0 DUP2 PUSH1 0x60 SHL SWAP1 POP SWAP2 SWAP1 POP JUMP JUMPDEST PUSH1 0x0 DUP2 PUSH1 0xE0 SHR SWAP1 POP SWAP2 SWAP1 POP JUMP JUMPDEST PUSH32 0x455243313135353A207472616E7366657220746F206E6F6E2045524331313535 PUSH1 0x0 DUP3 ADD MSTORE PUSH32 0x526563656976657220696D706C656D656E746572000000000000000000000000 PUSH1 0x20 DUP3 ADD MSTORE POP JUMP JUMPDEST PUSH32 0x455243313135353A204552433131353552656365697665722072656A65637465 PUSH1 0x0 DUP3 ADD MSTORE PUSH32 0x6420746F6B656E73000000000000000000000000000000000000000000000000 PUSH1 0x20 DUP3 ADD MSTORE POP JUMP JUMPDEST PUSH32 0x44726F707369746520697320616C72656164792052756E6E696E670000000000 PUSH1 0x0 DUP3 ADD MSTORE POP JUMP JUMPDEST PUSH32 0x44726F707369746520697320616C72656164792053746F707065640000000000 PUSH1 0x0 DUP3 ADD MSTORE POP JUMP JUMPDEST PUSH32 0x4F6E6C79204E46542D4553204F776E65722063616E2041636365737300000000 PUSH1 0x0 DUP3 ADD MSTORE POP JUMP JUMPDEST PUSH32 0x44726F7073697465206973206E6F74204F70656E6564205965742E0000000000 PUSH1 0x0 DUP3 ADD MSTORE POP JUMP JUMPDEST PUSH32 0x4D6178204D696E74696E67204C696D6974207265616368656400000000000000 PUSH1 0x0 DUP3 ADD MSTORE POP JUMP JUMPDEST PUSH32 0x4572726F7221204E6F2042616C616E636520746F207769746864726177000000 PUSH1 0x0 DUP3 ADD MSTORE POP JUMP JUMPDEST PUSH32 0x455243313135353A206D696E7420746F20746865207A65726F20616464726573 PUSH1 0x0 DUP3 ADD MSTORE PUSH32 0x7300000000000000000000000000000000000000000000000000000000000000 PUSH1 0x20 DUP3 ADD MSTORE POP JUMP JUMPDEST PUSH1 0x0 PUSH1 0x44 RETURNDATASIZE LT ISZERO PUSH2 0x20AD JUMPI PUSH2 0x2130 JUMP JUMPDEST PUSH2 0x20B5 PUSH2 0x1B21 JUMP JUMPDEST PUSH1 0x4 RETURNDATASIZE SUB PUSH1 0x4 DUP3 RETURNDATACOPY DUP1 MLOAD RETURNDATASIZE PUSH1 0x24 DUP3 ADD GT PUSH8 0xFFFFFFFFFFFFFFFF DUP3 GT OR ISZERO PUSH2 0x20DD JUMPI POP POP PUSH2 0x2130 JUMP JUMPDEST DUP1 DUP3 ADD DUP1 MLOAD PUSH8 0xFFFFFFFFFFFFFFFF DUP2 GT ISZERO PUSH2 0x20FB JUMPI POP POP POP POP PUSH2 0x2130 JUMP JUMPDEST DUP1 PUSH1 0x20 DUP4 ADD ADD PUSH1 0x4 RETURNDATASIZE SUB DUP6 ADD DUP2 GT ISZERO PUSH2 0x2118 JUMPI POP POP POP POP POP PUSH2 0x2130 JUMP JUMPDEST PUSH2 0x2127 DUP3 PUSH1 0x20 ADD DUP6 ADD DUP7 PUSH2 0x1CA4 JUMP JUMPDEST DUP3 SWAP6 POP POP POP POP POP POP JUMPDEST SWAP1 JUMP JUMPDEST PUSH2 0x213C DUP2 PUSH2 0x1BB9 JUMP JUMPDEST DUP2 EQ PUSH2 0x2147 JUMPI PUSH1 0x0 DUP1 REVERT JUMPDEST POP JUMP JUMPDEST PUSH2 0x2153 DUP2 PUSH2 0x1BCB JUMP JUMPDEST DUP2 EQ PUSH2 0x215E JUMPI PUSH1 0x0 DUP1 REVERT JUMPDEST POP JUMP JUMPDEST PUSH2 0x216A DUP2 PUSH2 0x1BE9 JUMP JUMPDEST DUP2 EQ PUSH2 0x2175 JUMPI PUSH1 0x0 DUP1 REVERT JUMPDEST POP JUMP INVALID LOG2 PUSH5 0x6970667358 0x22 SLT KECCAK256 GASLIMIT PUSH2 0x2904 0xBF MSTORE8 0xA5 ORIGIN 0x2E 0xF6 LOG4 0xC7 DELEGATECALL COINBASE DUP16 0xF6 PUSH3 0xE171AE 0x2F 0xC1 MULMOD 0xB7 OR 0x1E DUP5 DUP16 SWAP3 PUSH5 0x593264736F PUSH13 0x63430008070033000000000000 "
				},
				"gasEstimates": {
					"creation": {
						"codeDepositCost": "1724400",
						"executionCost": "infinite",
						"totalCost": "infinite"
					},
					"external": {
						"ContractBalance()": "2780",
						"CryptoRandomMint(address)": "infinite",
						"FiatrandomMint(address)": "infinite",
						"IsPaused()": "2516",
						"Owner()": "2630",
						"checkMintedCategoryWise()": "infinite",
						"checkTotalMinted()": "4693",
						"openDropsite()": "28904",
						"stopDropsite()": "28881",
						"withDraw(address)": "infinite"
					},
					"internal": {
						"depositBidAmmount(address,uint256)": "infinite",
						"random()": "infinite"
					}
				},
				"methodIdentifiers": {
					"ContractBalance()": "3b668059",
					"CryptoRandomMint(address)": "3d65df70",
					"FiatrandomMint(address)": "fd93d41c",
					"IsPaused()": "1309a563",
					"Owner()": "b4a99a4e",
					"checkMintedCategoryWise()": "60daa851",
					"checkTotalMinted()": "0390c11c",
					"openDropsite()": "15460259",
					"stopDropsite()": "aa90c726",
					"withDraw(address)": "0a67d2c7"
				}
			},
			"userdoc": {
				"kind": "user",
				"methods": {},
				"version": 1
			}
		}
	}
}