{
	"TestProxy.sol": {
		"TestProxy": {
			"abi": [
				{
					"inputs": [
						{
							"internalType": "address",
							"name": "addr",
							"type": "address"
						}
					],
					"name": "getOwner",
					"outputs": [
						{
							"internalType": "uint256",
							"name": "",
							"type": "uint256"
						}
					],
					"stateMutability": "view",
					"type": "function"
				}
			],
			"devdoc": {
				"kind": "dev",
				"methods": {},
				"version": 1
			},
			"evm": {
				"assembly": "    /* \"TestProxy.sol\":79:246  contract TestProxy{... */\n  mstore(0x40, 0x80)\n  callvalue\n  dup1\n  iszero\n  tag_1\n  jumpi\n  0x00\n  dup1\n  revert\ntag_1:\n  pop\n  dataSize(sub_0)\n  dup1\n  dataOffset(sub_0)\n  0x00\n  codecopy\n  0x00\n  return\nstop\n\nsub_0: assembly {\n        /* \"TestProxy.sol\":79:246  contract TestProxy{... */\n      mstore(0x40, 0x80)\n      callvalue\n      dup1\n      iszero\n      tag_1\n      jumpi\n      0x00\n      dup1\n      revert\n    tag_1:\n      pop\n      jumpi(tag_2, lt(calldatasize, 0x04))\n      shr(0xe0, calldataload(0x00))\n      dup1\n      0xfa544161\n      eq\n      tag_3\n      jumpi\n    tag_2:\n      0x00\n      dup1\n      revert\n        /* \"TestProxy.sol\":105:243  function getOwner(address addr) public view returns(uint) {... */\n    tag_3:\n      tag_4\n      0x04\n      dup1\n      calldatasize\n      sub\n      dup2\n      add\n      swap1\n      tag_5\n      swap2\n      swap1\n      tag_6\n      jump\t// in\n    tag_5:\n      tag_7\n      jump\t// in\n    tag_4:\n      mload(0x40)\n      tag_8\n      swap2\n      swap1\n      tag_9\n      jump\t// in\n    tag_8:\n      mload(0x40)\n      dup1\n      swap2\n      sub\n      swap1\n      return\n    tag_7:\n        /* \"TestProxy.sol\":157:161  uint */\n      0x00\n        /* \"TestProxy.sol\":173:183  Dropsite d */\n      dup1\n        /* \"TestProxy.sol\":195:199  addr */\n      dup3\n        /* \"TestProxy.sol\":173:200  Dropsite d = Dropsite(addr) */\n      swap1\n      pop\n        /* \"TestProxy.sol\":217:218  d */\n      dup1\n        /* \"TestProxy.sol\":217:230  d.returnOwner */\n      0xffffffffffffffffffffffffffffffffffffffff\n      and\n      0xfd6c3b1b\n        /* \"TestProxy.sol\":231:235  addr */\n      dup5\n        /* \"TestProxy.sol\":217:236  d.returnOwner(addr) */\n      mload(0x40)\n      dup3\n      0xffffffff\n      and\n      0xe0\n      shl\n      dup2\n      mstore\n      0x04\n      add\n      tag_11\n      swap2\n      swap1\n      tag_12\n      jump\t// in\n    tag_11:\n      0x20\n      mload(0x40)\n      dup1\n      dup4\n      sub\n      dup2\n      dup7\n      dup1\n      extcodesize\n      iszero\n      dup1\n      iszero\n      tag_13\n      jumpi\n      0x00\n      dup1\n      revert\n    tag_13:\n      pop\n      gas\n      staticcall\n      iszero\n      dup1\n      iszero\n      tag_15\n      jumpi\n      returndatasize\n      0x00\n      dup1\n      returndatacopy\n      revert(0x00, returndatasize)\n    tag_15:\n      pop\n      pop\n      pop\n      pop\n      mload(0x40)\n      returndatasize\n      not(0x1f)\n      0x1f\n      dup3\n      add\n      and\n      dup3\n      add\n      dup1\n      0x40\n      mstore\n      pop\n      dup2\n      add\n      swap1\n      tag_16\n      swap2\n      swap1\n      tag_17\n      jump\t// in\n    tag_16:\n        /* \"TestProxy.sol\":210:236  return d.returnOwner(addr) */\n      swap2\n      pop\n      pop\n        /* \"TestProxy.sol\":105:243  function getOwner(address addr) public view returns(uint) {... */\n      swap2\n      swap1\n      pop\n      jump\t// out\n        /* \"#utility.yul\":7:146   */\n    tag_19:\n        /* \"#utility.yul\":53:58   */\n      0x00\n        /* \"#utility.yul\":91:97   */\n      dup2\n        /* \"#utility.yul\":78:98   */\n      calldataload\n        /* \"#utility.yul\":69:98   */\n      swap1\n      pop\n        /* \"#utility.yul\":107:140   */\n      tag_21\n        /* \"#utility.yul\":134:139   */\n      dup2\n        /* \"#utility.yul\":107:140   */\n      tag_22\n      jump\t// in\n    tag_21:\n        /* \"#utility.yul\":7:146   */\n      swap3\n      swap2\n      pop\n      pop\n      jump\t// out\n        /* \"#utility.yul\":152:295   */\n    tag_23:\n        /* \"#utility.yul\":209:214   */\n      0x00\n        /* \"#utility.yul\":240:246   */\n      dup2\n        /* \"#utility.yul\":234:247   */\n      mload\n        /* \"#utility.yul\":225:247   */\n      swap1\n      pop\n        /* \"#utility.yul\":256:289   */\n      tag_25\n        /* \"#utility.yul\":283:288   */\n      dup2\n        /* \"#utility.yul\":256:289   */\n      tag_26\n      jump\t// in\n    tag_25:\n        /* \"#utility.yul\":152:295   */\n      swap3\n      swap2\n      pop\n      pop\n      jump\t// out\n        /* \"#utility.yul\":301:630   */\n    tag_6:\n        /* \"#utility.yul\":360:366   */\n      0x00\n        /* \"#utility.yul\":409:411   */\n      0x20\n        /* \"#utility.yul\":397:406   */\n      dup3\n        /* \"#utility.yul\":388:395   */\n      dup5\n        /* \"#utility.yul\":384:407   */\n      sub\n        /* \"#utility.yul\":380:412   */\n      slt\n        /* \"#utility.yul\":377:496   */\n      iszero\n      tag_28\n      jumpi\n        /* \"#utility.yul\":415:494   */\n      tag_29\n      tag_30\n      jump\t// in\n    tag_29:\n        /* \"#utility.yul\":377:496   */\n    tag_28:\n        /* \"#utility.yul\":535:536   */\n      0x00\n        /* \"#utility.yul\":560:613   */\n      tag_31\n        /* \"#utility.yul\":605:612   */\n      dup5\n        /* \"#utility.yul\":596:602   */\n      dup3\n        /* \"#utility.yul\":585:594   */\n      dup6\n        /* \"#utility.yul\":581:603   */\n      add\n        /* \"#utility.yul\":560:613   */\n      tag_19\n      jump\t// in\n    tag_31:\n        /* \"#utility.yul\":550:613   */\n      swap2\n      pop\n        /* \"#utility.yul\":506:623   */\n      pop\n        /* \"#utility.yul\":301:630   */\n      swap3\n      swap2\n      pop\n      pop\n      jump\t// out\n        /* \"#utility.yul\":636:987   */\n    tag_17:\n        /* \"#utility.yul\":706:712   */\n      0x00\n        /* \"#utility.yul\":755:757   */\n      0x20\n        /* \"#utility.yul\":743:752   */\n      dup3\n        /* \"#utility.yul\":734:741   */\n      dup5\n        /* \"#utility.yul\":730:753   */\n      sub\n        /* \"#utility.yul\":726:758   */\n      slt\n        /* \"#utility.yul\":723:842   */\n      iszero\n      tag_33\n      jumpi\n        /* \"#utility.yul\":761:840   */\n      tag_34\n      tag_30\n      jump\t// in\n    tag_34:\n        /* \"#utility.yul\":723:842   */\n    tag_33:\n        /* \"#utility.yul\":881:882   */\n      0x00\n        /* \"#utility.yul\":906:970   */\n      tag_35\n        /* \"#utility.yul\":962:969   */\n      dup5\n        /* \"#utility.yul\":953:959   */\n      dup3\n        /* \"#utility.yul\":942:951   */\n      dup6\n        /* \"#utility.yul\":938:960   */\n      add\n        /* \"#utility.yul\":906:970   */\n      tag_23\n      jump\t// in\n    tag_35:\n        /* \"#utility.yul\":896:970   */\n      swap2\n      pop\n        /* \"#utility.yul\":852:980   */\n      pop\n        /* \"#utility.yul\":636:987   */\n      swap3\n      swap2\n      pop\n      pop\n      jump\t// out\n        /* \"#utility.yul\":993:1111   */\n    tag_36:\n        /* \"#utility.yul\":1080:1104   */\n      tag_38\n        /* \"#utility.yul\":1098:1103   */\n      dup2\n        /* \"#utility.yul\":1080:1104   */\n      tag_39\n      jump\t// in\n    tag_38:\n        /* \"#utility.yul\":1075:1078   */\n      dup3\n        /* \"#utility.yul\":1068:1105   */\n      mstore\n        /* \"#utility.yul\":993:1111   */\n      pop\n      pop\n      jump\t// out\n        /* \"#utility.yul\":1117:1235   */\n    tag_40:\n        /* \"#utility.yul\":1204:1228   */\n      tag_42\n        /* \"#utility.yul\":1222:1227   */\n      dup2\n        /* \"#utility.yul\":1204:1228   */\n      tag_43\n      jump\t// in\n    tag_42:\n        /* \"#utility.yul\":1199:1202   */\n      dup3\n        /* \"#utility.yul\":1192:1229   */\n      mstore\n        /* \"#utility.yul\":1117:1235   */\n      pop\n      pop\n      jump\t// out\n        /* \"#utility.yul\":1241:1463   */\n    tag_12:\n        /* \"#utility.yul\":1334:1338   */\n      0x00\n        /* \"#utility.yul\":1372:1374   */\n      0x20\n        /* \"#utility.yul\":1361:1370   */\n      dup3\n        /* \"#utility.yul\":1357:1375   */\n      add\n        /* \"#utility.yul\":1349:1375   */\n      swap1\n      pop\n        /* \"#utility.yul\":1385:1456   */\n      tag_45\n        /* \"#utility.yul\":1453:1454   */\n      0x00\n        /* \"#utility.yul\":1442:1451   */\n      dup4\n        /* \"#utility.yul\":1438:1455   */\n      add\n        /* \"#utility.yul\":1429:1435   */\n      dup5\n        /* \"#utility.yul\":1385:1456   */\n      tag_36\n      jump\t// in\n    tag_45:\n        /* \"#utility.yul\":1241:1463   */\n      swap3\n      swap2\n      pop\n      pop\n      jump\t// out\n        /* \"#utility.yul\":1469:1691   */\n    tag_9:\n        /* \"#utility.yul\":1562:1566   */\n      0x00\n        /* \"#utility.yul\":1600:1602   */\n      0x20\n        /* \"#utility.yul\":1589:1598   */\n      dup3\n        /* \"#utility.yul\":1585:1603   */\n      add\n        /* \"#utility.yul\":1577:1603   */\n      swap1\n      pop\n        /* \"#utility.yul\":1613:1684   */\n      tag_47\n        /* \"#utility.yul\":1681:1682   */\n      0x00\n        /* \"#utility.yul\":1670:1679   */\n      dup4\n        /* \"#utility.yul\":1666:1683   */\n      add\n        /* \"#utility.yul\":1657:1663   */\n      dup5\n        /* \"#utility.yul\":1613:1684   */\n      tag_40\n      jump\t// in\n    tag_47:\n        /* \"#utility.yul\":1469:1691   */\n      swap3\n      swap2\n      pop\n      pop\n      jump\t// out\n        /* \"#utility.yul\":1778:1874   */\n    tag_39:\n        /* \"#utility.yul\":1815:1822   */\n      0x00\n        /* \"#utility.yul\":1844:1868   */\n      tag_51\n        /* \"#utility.yul\":1862:1867   */\n      dup3\n        /* \"#utility.yul\":1844:1868   */\n      tag_52\n      jump\t// in\n    tag_51:\n        /* \"#utility.yul\":1833:1868   */\n      swap1\n      pop\n        /* \"#utility.yul\":1778:1874   */\n      swap2\n      swap1\n      pop\n      jump\t// out\n        /* \"#utility.yul\":1880:2006   */\n    tag_52:\n        /* \"#utility.yul\":1917:1924   */\n      0x00\n        /* \"#utility.yul\":1957:1999   */\n      0xffffffffffffffffffffffffffffffffffffffff\n        /* \"#utility.yul\":1950:1955   */\n      dup3\n        /* \"#utility.yul\":1946:2000   */\n      and\n        /* \"#utility.yul\":1935:2000   */\n      swap1\n      pop\n        /* \"#utility.yul\":1880:2006   */\n      swap2\n      swap1\n      pop\n      jump\t// out\n        /* \"#utility.yul\":2012:2089   */\n    tag_43:\n        /* \"#utility.yul\":2049:2056   */\n      0x00\n        /* \"#utility.yul\":2078:2083   */\n      dup2\n        /* \"#utility.yul\":2067:2083   */\n      swap1\n      pop\n        /* \"#utility.yul\":2012:2089   */\n      swap2\n      swap1\n      pop\n      jump\t// out\n        /* \"#utility.yul\":2218:2335   */\n    tag_30:\n        /* \"#utility.yul\":2327:2328   */\n      0x00\n        /* \"#utility.yul\":2324:2325   */\n      dup1\n        /* \"#utility.yul\":2317:2329   */\n      revert\n        /* \"#utility.yul\":2341:2463   */\n    tag_22:\n        /* \"#utility.yul\":2414:2438   */\n      tag_59\n        /* \"#utility.yul\":2432:2437   */\n      dup2\n        /* \"#utility.yul\":2414:2438   */\n      tag_39\n      jump\t// in\n    tag_59:\n        /* \"#utility.yul\":2407:2412   */\n      dup2\n        /* \"#utility.yul\":2404:2439   */\n      eq\n        /* \"#utility.yul\":2394:2457   */\n      tag_60\n      jumpi\n        /* \"#utility.yul\":2453:2454   */\n      0x00\n        /* \"#utility.yul\":2450:2451   */\n      dup1\n        /* \"#utility.yul\":2443:2455   */\n      revert\n        /* \"#utility.yul\":2394:2457   */\n    tag_60:\n        /* \"#utility.yul\":2341:2463   */\n      pop\n      jump\t// out\n        /* \"#utility.yul\":2469:2591   */\n    tag_26:\n        /* \"#utility.yul\":2542:2566   */\n      tag_62\n        /* \"#utility.yul\":2560:2565   */\n      dup2\n        /* \"#utility.yul\":2542:2566   */\n      tag_43\n      jump\t// in\n    tag_62:\n        /* \"#utility.yul\":2535:2540   */\n      dup2\n        /* \"#utility.yul\":2532:2567   */\n      eq\n        /* \"#utility.yul\":2522:2585   */\n      tag_63\n      jumpi\n        /* \"#utility.yul\":2581:2582   */\n      0x00\n        /* \"#utility.yul\":2578:2579   */\n      dup1\n        /* \"#utility.yul\":2571:2583   */\n      revert\n        /* \"#utility.yul\":2522:2585   */\n    tag_63:\n        /* \"#utility.yul\":2469:2591   */\n      pop\n      jump\t// out\n\n    auxdata: 0xa2646970667358221220ea5f9de048f9d6079f513d34695e77c4056b555214e3062c248f402a4d7fbb0a64736f6c63430008070033\n}\n",
				"bytecode": {
					"linkReferences": {},
					"object": "608060405234801561001057600080fd5b50610274806100206000396000f3fe608060405234801561001057600080fd5b506004361061002b5760003560e01c8063fa54416114610030575b600080fd5b61004a60048036038101906100459190610121565b610060565b60405161005791906101b4565b60405180910390f35b6000808290508073ffffffffffffffffffffffffffffffffffffffff1663fd6c3b1b846040518263ffffffff1660e01b815260040161009f9190610199565b60206040518083038186803b1580156100b757600080fd5b505afa1580156100cb573d6000803e3d6000fd5b505050506040513d601f19601f820116820180604052508101906100ef919061014e565b915050919050565b60008135905061010681610210565b92915050565b60008151905061011b81610227565b92915050565b6000602082840312156101375761013661020b565b5b6000610145848285016100f7565b91505092915050565b6000602082840312156101645761016361020b565b5b60006101728482850161010c565b91505092915050565b610184816101cf565b82525050565b61019381610201565b82525050565b60006020820190506101ae600083018461017b565b92915050565b60006020820190506101c9600083018461018a565b92915050565b60006101da826101e1565b9050919050565b600073ffffffffffffffffffffffffffffffffffffffff82169050919050565b6000819050919050565b600080fd5b610219816101cf565b811461022457600080fd5b50565b61023081610201565b811461023b57600080fd5b5056fea2646970667358221220ea5f9de048f9d6079f513d34695e77c4056b555214e3062c248f402a4d7fbb0a64736f6c63430008070033",
					"opcodes": "PUSH1 0x80 PUSH1 0x40 MSTORE CALLVALUE DUP1 ISZERO PUSH2 0x10 JUMPI PUSH1 0x0 DUP1 REVERT JUMPDEST POP PUSH2 0x274 DUP1 PUSH2 0x20 PUSH1 0x0 CODECOPY PUSH1 0x0 RETURN INVALID PUSH1 0x80 PUSH1 0x40 MSTORE CALLVALUE DUP1 ISZERO PUSH2 0x10 JUMPI PUSH1 0x0 DUP1 REVERT JUMPDEST POP PUSH1 0x4 CALLDATASIZE LT PUSH2 0x2B JUMPI PUSH1 0x0 CALLDATALOAD PUSH1 0xE0 SHR DUP1 PUSH4 0xFA544161 EQ PUSH2 0x30 JUMPI JUMPDEST PUSH1 0x0 DUP1 REVERT JUMPDEST PUSH2 0x4A PUSH1 0x4 DUP1 CALLDATASIZE SUB DUP2 ADD SWAP1 PUSH2 0x45 SWAP2 SWAP1 PUSH2 0x121 JUMP JUMPDEST PUSH2 0x60 JUMP JUMPDEST PUSH1 0x40 MLOAD PUSH2 0x57 SWAP2 SWAP1 PUSH2 0x1B4 JUMP JUMPDEST PUSH1 0x40 MLOAD DUP1 SWAP2 SUB SWAP1 RETURN JUMPDEST PUSH1 0x0 DUP1 DUP3 SWAP1 POP DUP1 PUSH20 0xFFFFFFFFFFFFFFFFFFFFFFFFFFFFFFFFFFFFFFFF AND PUSH4 0xFD6C3B1B DUP5 PUSH1 0x40 MLOAD DUP3 PUSH4 0xFFFFFFFF AND PUSH1 0xE0 SHL DUP2 MSTORE PUSH1 0x4 ADD PUSH2 0x9F SWAP2 SWAP1 PUSH2 0x199 JUMP JUMPDEST PUSH1 0x20 PUSH1 0x40 MLOAD DUP1 DUP4 SUB DUP2 DUP7 DUP1 EXTCODESIZE ISZERO DUP1 ISZERO PUSH2 0xB7 JUMPI PUSH1 0x0 DUP1 REVERT JUMPDEST POP GAS STATICCALL ISZERO DUP1 ISZERO PUSH2 0xCB JUMPI RETURNDATASIZE PUSH1 0x0 DUP1 RETURNDATACOPY RETURNDATASIZE PUSH1 0x0 REVERT JUMPDEST POP POP POP POP PUSH1 0x40 MLOAD RETURNDATASIZE PUSH1 0x1F NOT PUSH1 0x1F DUP3 ADD AND DUP3 ADD DUP1 PUSH1 0x40 MSTORE POP DUP2 ADD SWAP1 PUSH2 0xEF SWAP2 SWAP1 PUSH2 0x14E JUMP JUMPDEST SWAP2 POP POP SWAP2 SWAP1 POP JUMP JUMPDEST PUSH1 0x0 DUP2 CALLDATALOAD SWAP1 POP PUSH2 0x106 DUP2 PUSH2 0x210 JUMP JUMPDEST SWAP3 SWAP2 POP POP JUMP JUMPDEST PUSH1 0x0 DUP2 MLOAD SWAP1 POP PUSH2 0x11B DUP2 PUSH2 0x227 JUMP JUMPDEST SWAP3 SWAP2 POP POP JUMP JUMPDEST PUSH1 0x0 PUSH1 0x20 DUP3 DUP5 SUB SLT ISZERO PUSH2 0x137 JUMPI PUSH2 0x136 PUSH2 0x20B JUMP JUMPDEST JUMPDEST PUSH1 0x0 PUSH2 0x145 DUP5 DUP3 DUP6 ADD PUSH2 0xF7 JUMP JUMPDEST SWAP2 POP POP SWAP3 SWAP2 POP POP JUMP JUMPDEST PUSH1 0x0 PUSH1 0x20 DUP3 DUP5 SUB SLT ISZERO PUSH2 0x164 JUMPI PUSH2 0x163 PUSH2 0x20B JUMP JUMPDEST JUMPDEST PUSH1 0x0 PUSH2 0x172 DUP5 DUP3 DUP6 ADD PUSH2 0x10C JUMP JUMPDEST SWAP2 POP POP SWAP3 SWAP2 POP POP JUMP JUMPDEST PUSH2 0x184 DUP2 PUSH2 0x1CF JUMP JUMPDEST DUP3 MSTORE POP POP JUMP JUMPDEST PUSH2 0x193 DUP2 PUSH2 0x201 JUMP JUMPDEST DUP3 MSTORE POP POP JUMP JUMPDEST PUSH1 0x0 PUSH1 0x20 DUP3 ADD SWAP1 POP PUSH2 0x1AE PUSH1 0x0 DUP4 ADD DUP5 PUSH2 0x17B JUMP JUMPDEST SWAP3 SWAP2 POP POP JUMP JUMPDEST PUSH1 0x0 PUSH1 0x20 DUP3 ADD SWAP1 POP PUSH2 0x1C9 PUSH1 0x0 DUP4 ADD DUP5 PUSH2 0x18A JUMP JUMPDEST SWAP3 SWAP2 POP POP JUMP JUMPDEST PUSH1 0x0 PUSH2 0x1DA DUP3 PUSH2 0x1E1 JUMP JUMPDEST SWAP1 POP SWAP2 SWAP1 POP JUMP JUMPDEST PUSH1 0x0 PUSH20 0xFFFFFFFFFFFFFFFFFFFFFFFFFFFFFFFFFFFFFFFF DUP3 AND SWAP1 POP SWAP2 SWAP1 POP JUMP JUMPDEST PUSH1 0x0 DUP2 SWAP1 POP SWAP2 SWAP1 POP JUMP JUMPDEST PUSH1 0x0 DUP1 REVERT JUMPDEST PUSH2 0x219 DUP2 PUSH2 0x1CF JUMP JUMPDEST DUP2 EQ PUSH2 0x224 JUMPI PUSH1 0x0 DUP1 REVERT JUMPDEST POP JUMP JUMPDEST PUSH2 0x230 DUP2 PUSH2 0x201 JUMP JUMPDEST DUP2 EQ PUSH2 0x23B JUMPI PUSH1 0x0 DUP1 REVERT JUMPDEST POP JUMP INVALID LOG2 PUSH5 0x6970667358 0x22 SLT KECCAK256 0xEA 0x5F SWAP14 0xE0 BASEFEE 0xF9 0xD6 SMOD SWAP16 MLOAD RETURNDATASIZE CALLVALUE PUSH10 0x5E77C4056B555214E306 0x2C 0x24 DUP16 BLOCKHASH 0x2A 0x4D PUSH32 0xBB0A64736F6C6343000807003300000000000000000000000000000000000000 "
				},
				"gasEstimates": {
					"creation": {
						"codeDepositCost": "125600",
						"executionCost": "171",
						"totalCost": "125771"
					},
					"external": {
						"getOwner(address)": "infinite"
					}
				},
				"methodIdentifiers": {
					"getOwner(address)": "fa544161"
				}
			},
			"userdoc": {
				"kind": "user",
				"methods": {},
				"version": 1
			}
		}
	}
}