{
	"Dropsite.sol": {
		"Dropsite": {
			"abi": [
				{
					"inputs": [
						{
							"internalType": "string",
							"name": "name",
							"type": "string"
						}
					],
					"stateMutability": "nonpayable",
					"type": "constructor"
				},
				{
					"anonymous": false,
					"inputs": [
						{
							"indexed": true,
							"internalType": "address",
							"name": "operator",
							"type": "address"
						},
						{
							"indexed": true,
							"internalType": "address",
							"name": "from",
							"type": "address"
						},
						{
							"indexed": true,
							"internalType": "address",
							"name": "to",
							"type": "address"
						},
						{
							"indexed": false,
							"internalType": "uint256",
							"name": "id",
							"type": "uint256"
						},
						{
							"indexed": false,
							"internalType": "uint256",
							"name": "value",
							"type": "uint256"
						}
					],
					"name": "TransferSingle",
					"type": "event"
				},
				{
					"inputs": [],
					"name": "ContractBalance",
					"outputs": [
						{
							"internalType": "uint256",
							"name": "",
							"type": "uint256"
						}
					],
					"stateMutability": "view",
					"type": "function"
				},
				{
					"inputs": [
						{
							"internalType": "address",
							"name": "user_addr",
							"type": "address"
						}
					],
					"name": "CryptoRandomMint",
					"outputs": [
						{
							"internalType": "uint256",
							"name": "",
							"type": "uint256"
						},
						{
							"internalType": "string",
							"name": "",
							"type": "string"
						}
					],
					"stateMutability": "payable",
					"type": "function"
				},
				{
					"inputs": [
						{
							"internalType": "address",
							"name": "user_addr",
							"type": "address"
						}
					],
					"name": "FiatRandomMint",
					"outputs": [
						{
							"internalType": "uint256",
							"name": "",
							"type": "uint256"
						},
						{
							"internalType": "string",
							"name": "",
							"type": "string"
						}
					],
					"stateMutability": "nonpayable",
					"type": "function"
				},
				{
					"inputs": [],
					"name": "IsPaused",
					"outputs": [
						{
							"internalType": "bool",
							"name": "",
							"type": "bool"
						}
					],
					"stateMutability": "view",
					"type": "function"
				},
				{
					"inputs": [],
					"name": "Owner",
					"outputs": [
						{
							"internalType": "address payable",
							"name": "",
							"type": "address"
						}
					],
					"stateMutability": "view",
					"type": "function"
				},
				{
					"inputs": [],
					"name": "checkMintedCategoryWise",
					"outputs": [
						{
							"internalType": "uint256",
							"name": "",
							"type": "uint256"
						},
						{
							"internalType": "uint256",
							"name": "",
							"type": "uint256"
						},
						{
							"internalType": "uint256",
							"name": "",
							"type": "uint256"
						}
					],
					"stateMutability": "view",
					"type": "function"
				},
				{
					"inputs": [],
					"name": "checkTotalMinted",
					"outputs": [
						{
							"internalType": "uint256",
							"name": "",
							"type": "uint256"
						}
					],
					"stateMutability": "view",
					"type": "function"
				},
				{
					"inputs": [
						{
							"internalType": "uint256",
							"name": "",
							"type": "uint256"
						}
					],
					"name": "nums",
					"outputs": [
						{
							"internalType": "uint8",
							"name": "",
							"type": "uint8"
						}
					],
					"stateMutability": "view",
					"type": "function"
				},
				{
					"inputs": [],
					"name": "openDropsite",
					"outputs": [],
					"stateMutability": "nonpayable",
					"type": "function"
				},
				{
					"inputs": [
						{
							"internalType": "address",
							"name": "addr",
							"type": "address"
						}
					],
					"name": "returnOwner",
					"outputs": [
						{
							"internalType": "uint256",
							"name": "",
							"type": "uint256"
						}
					],
					"stateMutability": "view",
					"type": "function"
				},
				{
					"inputs": [],
					"name": "stopDropsite",
					"outputs": [],
					"stateMutability": "nonpayable",
					"type": "function"
				},
				{
					"inputs": [
						{
							"internalType": "address payable",
							"name": "to",
							"type": "address"
						}
					],
					"name": "withDraw",
					"outputs": [],
					"stateMutability": "payable",
					"type": "function"
				}
			],
			"devdoc": {
				"kind": "dev",
				"methods": {},
				"version": 1
			},
			"evm": {
				"assembly": "    /* \"Dropsite.sol\":122:4905  contract Dropsite is ERC1155_Dropsite  { ... */\n  mstore(0x40, 0x80)\n    /* \"Dropsite.sol\":188:203  bytes  data =\"\" */\n  mload(0x40)\n  dup1\n  0x20\n  add\n  0x40\n  mstore\n  dup1\n  0x00\n  dup2\n  mstore\n  pop\n  0x02\n  swap1\n  dup1\n  mload\n  swap1\n  0x20\n  add\n  swap1\n  tag_1\n  swap3\n  swap2\n  swap1\n  tag_2\n  jump\t// in\ntag_1:\n  pop\n    /* \"Dropsite.sol\":209:274  uint8[20] public nums = [0,1,1,2,2,2,2,2,2,2,2,2,2,2,2,2,2,2,2,2] */\n  mload(0x40)\n  dup1\n  0x0280\n  add\n  0x40\n  mstore\n  dup1\n    /* \"Dropsite.sol\":234:235  0 */\n  0x00\n    /* \"Dropsite.sol\":209:274  uint8[20] public nums = [0,1,1,2,2,2,2,2,2,2,2,2,2,2,2,2,2,2,2,2] */\n  0xff\n  and\n  dup2\n  mstore\n  0x20\n  add\n    /* \"Dropsite.sol\":236:237  1 */\n  0x01\n    /* \"Dropsite.sol\":209:274  uint8[20] public nums = [0,1,1,2,2,2,2,2,2,2,2,2,2,2,2,2,2,2,2,2] */\n  0xff\n  and\n  dup2\n  mstore\n  0x20\n  add\n    /* \"Dropsite.sol\":238:239  1 */\n  0x01\n    /* \"Dropsite.sol\":209:274  uint8[20] public nums = [0,1,1,2,2,2,2,2,2,2,2,2,2,2,2,2,2,2,2,2] */\n  0xff\n  and\n  dup2\n  mstore\n  0x20\n  add\n    /* \"Dropsite.sol\":240:241  2 */\n  0x02\n    /* \"Dropsite.sol\":209:274  uint8[20] public nums = [0,1,1,2,2,2,2,2,2,2,2,2,2,2,2,2,2,2,2,2] */\n  0xff\n  and\n  dup2\n  mstore\n  0x20\n  add\n    /* \"Dropsite.sol\":242:243  2 */\n  0x02\n    /* \"Dropsite.sol\":209:274  uint8[20] public nums = [0,1,1,2,2,2,2,2,2,2,2,2,2,2,2,2,2,2,2,2] */\n  0xff\n  and\n  dup2\n  mstore\n  0x20\n  add\n    /* \"Dropsite.sol\":244:245  2 */\n  0x02\n    /* \"Dropsite.sol\":209:274  uint8[20] public nums = [0,1,1,2,2,2,2,2,2,2,2,2,2,2,2,2,2,2,2,2] */\n  0xff\n  and\n  dup2\n  mstore\n  0x20\n  add\n    /* \"Dropsite.sol\":246:247  2 */\n  0x02\n    /* \"Dropsite.sol\":209:274  uint8[20] public nums = [0,1,1,2,2,2,2,2,2,2,2,2,2,2,2,2,2,2,2,2] */\n  0xff\n  and\n  dup2\n  mstore\n  0x20\n  add\n    /* \"Dropsite.sol\":248:249  2 */\n  0x02\n    /* \"Dropsite.sol\":209:274  uint8[20] public nums = [0,1,1,2,2,2,2,2,2,2,2,2,2,2,2,2,2,2,2,2] */\n  0xff\n  and\n  dup2\n  mstore\n  0x20\n  add\n    /* \"Dropsite.sol\":250:251  2 */\n  0x02\n    /* \"Dropsite.sol\":209:274  uint8[20] public nums = [0,1,1,2,2,2,2,2,2,2,2,2,2,2,2,2,2,2,2,2] */\n  0xff\n  and\n  dup2\n  mstore\n  0x20\n  add\n    /* \"Dropsite.sol\":252:253  2 */\n  0x02\n    /* \"Dropsite.sol\":209:274  uint8[20] public nums = [0,1,1,2,2,2,2,2,2,2,2,2,2,2,2,2,2,2,2,2] */\n  0xff\n  and\n  dup2\n  mstore\n  0x20\n  add\n    /* \"Dropsite.sol\":254:255  2 */\n  0x02\n    /* \"Dropsite.sol\":209:274  uint8[20] public nums = [0,1,1,2,2,2,2,2,2,2,2,2,2,2,2,2,2,2,2,2] */\n  0xff\n  and\n  dup2\n  mstore\n  0x20\n  add\n    /* \"Dropsite.sol\":256:257  2 */\n  0x02\n    /* \"Dropsite.sol\":209:274  uint8[20] public nums = [0,1,1,2,2,2,2,2,2,2,2,2,2,2,2,2,2,2,2,2] */\n  0xff\n  and\n  dup2\n  mstore\n  0x20\n  add\n    /* \"Dropsite.sol\":258:259  2 */\n  0x02\n    /* \"Dropsite.sol\":209:274  uint8[20] public nums = [0,1,1,2,2,2,2,2,2,2,2,2,2,2,2,2,2,2,2,2] */\n  0xff\n  and\n  dup2\n  mstore\n  0x20\n  add\n    /* \"Dropsite.sol\":260:261  2 */\n  0x02\n    /* \"Dropsite.sol\":209:274  uint8[20] public nums = [0,1,1,2,2,2,2,2,2,2,2,2,2,2,2,2,2,2,2,2] */\n  0xff\n  and\n  dup2\n  mstore\n  0x20\n  add\n    /* \"Dropsite.sol\":262:263  2 */\n  0x02\n    /* \"Dropsite.sol\":209:274  uint8[20] public nums = [0,1,1,2,2,2,2,2,2,2,2,2,2,2,2,2,2,2,2,2] */\n  0xff\n  and\n  dup2\n  mstore\n  0x20\n  add\n    /* \"Dropsite.sol\":264:265  2 */\n  0x02\n    /* \"Dropsite.sol\":209:274  uint8[20] public nums = [0,1,1,2,2,2,2,2,2,2,2,2,2,2,2,2,2,2,2,2] */\n  0xff\n  and\n  dup2\n  mstore\n  0x20\n  add\n    /* \"Dropsite.sol\":266:267  2 */\n  0x02\n    /* \"Dropsite.sol\":209:274  uint8[20] public nums = [0,1,1,2,2,2,2,2,2,2,2,2,2,2,2,2,2,2,2,2] */\n  0xff\n  and\n  dup2\n  mstore\n  0x20\n  add\n    /* \"Dropsite.sol\":268:269  2 */\n  0x02\n    /* \"Dropsite.sol\":209:274  uint8[20] public nums = [0,1,1,2,2,2,2,2,2,2,2,2,2,2,2,2,2,2,2,2] */\n  0xff\n  and\n  dup2\n  mstore\n  0x20\n  add\n    /* \"Dropsite.sol\":270:271  2 */\n  0x02\n    /* \"Dropsite.sol\":209:274  uint8[20] public nums = [0,1,1,2,2,2,2,2,2,2,2,2,2,2,2,2,2,2,2,2] */\n  0xff\n  and\n  dup2\n  mstore\n  0x20\n  add\n    /* \"Dropsite.sol\":272:273  2 */\n  0x02\n    /* \"Dropsite.sol\":209:274  uint8[20] public nums = [0,1,1,2,2,2,2,2,2,2,2,2,2,2,2,2,2,2,2,2] */\n  0xff\n  and\n  dup2\n  mstore\n  pop\n  0x03\n  swap1\n  0x14\n  tag_3\n  swap3\n  swap2\n  swap1\n  tag_4\n  jump\t// in\ntag_3:\n  pop\n    /* \"Dropsite.sol\":1070:1074  true */\n  0x01\n    /* \"Dropsite.sol\":1047:1074  bool public IsPaused = true */\n  0x0b\n  exp(0x0100, 0x00)\n  dup2\n  sload\n  dup2\n  0xff\n  mul\n  not\n  and\n  swap1\n  dup4\n  iszero\n  iszero\n  mul\n  or\n  swap1\n  sstore\n  pop\n    /* \"Dropsite.sol\":1146:1421  constructor (string memory name){... */\n  callvalue\n  dup1\n  iszero\n  tag_5\n  jumpi\n  0x00\n  dup1\n  revert\ntag_5:\n  pop\n  mload(0x40)\n  sub(codesize, bytecodeSize)\n  dup1\n  bytecodeSize\n  dup4\n  codecopy\n  dup2\n  dup2\n  add\n  0x40\n  mstore\n  dup2\n  add\n  swap1\n  tag_6\n  swap2\n  swap1\n  tag_7\n  jump\t// in\ntag_6:\n    /* \"Dropsite.sol\":1196:1200  name */\n  dup1\n    /* \"Dropsite.sol\":1188:1193  _name */\n  0x0c\n    /* \"Dropsite.sol\":1188:1200  _name = name */\n  swap1\n  dup1\n  mload\n  swap1\n  0x20\n  add\n  swap1\n  tag_10\n  swap3\n  swap2\n  swap1\n  tag_11\n  jump\t// in\ntag_10:\n  pop\n    /* \"Dropsite.sol\":1226:1236  msg.sender */\n  caller\n    /* \"Dropsite.sol\":1210:1215  Owner */\n  0x0b\n  0x01\n    /* \"Dropsite.sol\":1210:1237  Owner = payable(msg.sender) */\n  0x0100\n  exp\n  dup2\n  sload\n  dup2\n  0xffffffffffffffffffffffffffffffffffffffff\n  mul\n  not\n  and\n  swap1\n  dup4\n  0xffffffffffffffffffffffffffffffffffffffff\n  and\n  mul\n  or\n  swap1\n  sstore\n  pop\n    /* \"Dropsite.sol\":1264:1265  0 */\n  0x00\n    /* \"Dropsite.sol\":1248:1263  TotalNFTsMinted */\n  0x04\n    /* \"Dropsite.sol\":1248:1265  TotalNFTsMinted=0 */\n  dup2\n  swap1\n  sstore\n  pop\n    /* \"Dropsite.sol\":1311:1312  1 */\n  0x01\n    /* \"Dropsite.sol\":1299:1310  numOfCopies */\n  0x05\n    /* \"Dropsite.sol\":1299:1312  numOfCopies=1 */\n  dup2\n  swap1\n  sstore\n  pop\n    /* \"Dropsite.sol\":1367:1368  0 */\n  0x00\n    /* \"Dropsite.sol\":1359:1366  Diamond */\n  0x06\n    /* \"Dropsite.sol\":1359:1368  Diamond=0 */\n  dup2\n  swap1\n  sstore\n  pop\n    /* \"Dropsite.sol\":1395:1396  0 */\n  0x00\n    /* \"Dropsite.sol\":1390:1394  Gold */\n  0x07\n    /* \"Dropsite.sol\":1390:1396  Gold=0 */\n  dup2\n  swap1\n  sstore\n  pop\n    /* \"Dropsite.sol\":1413:1414  0 */\n  0x00\n    /* \"Dropsite.sol\":1406:1412  Silver */\n  0x08\n    /* \"Dropsite.sol\":1406:1414  Silver=0 */\n  dup2\n  swap1\n  sstore\n  pop\n    /* \"Dropsite.sol\":1146:1421  constructor (string memory name){... */\n  pop\n    /* \"Dropsite.sol\":122:4905  contract Dropsite is ERC1155_Dropsite  { ... */\n  jump(tag_12)\ntag_2:\n  dup3\n  dup1\n  sload\n  tag_13\n  swap1\n  tag_14\n  jump\t// in\ntag_13:\n  swap1\n  0x00\n  mstore\n  keccak256(0x00, 0x20)\n  swap1\n  0x1f\n  add\n  0x20\n  swap1\n  div\n  dup2\n  add\n  swap3\n  dup3\n  tag_16\n  jumpi\n  0x00\n  dup6\n  sstore\n  jump(tag_15)\ntag_16:\n  dup3\n  0x1f\n  lt\n  tag_17\n  jumpi\n  dup1\n  mload\n  not(0xff)\n  and\n  dup4\n  dup1\n  add\n  or\n  dup6\n  sstore\n  jump(tag_15)\ntag_17:\n  dup3\n  dup1\n  add\n  0x01\n  add\n  dup6\n  sstore\n  dup3\n  iszero\n  tag_15\n  jumpi\n  swap2\n  dup3\n  add\ntag_18:\n  dup3\n  dup2\n  gt\n  iszero\n  tag_19\n  jumpi\n  dup3\n  mload\n  dup3\n  sstore\n  swap2\n  0x20\n  add\n  swap2\n  swap1\n  0x01\n  add\n  swap1\n  jump(tag_18)\ntag_19:\ntag_15:\n  pop\n  swap1\n  pop\n  tag_20\n  swap2\n  swap1\n  tag_21\n  jump\t// in\ntag_20:\n  pop\n  swap1\n  jump\t// out\ntag_4:\n  dup3\n  add(0x1f, 0x14)\n  0x20\n  swap1\n  div\n  dup2\n  add\n  swap3\n  dup3\n  iszero\n  tag_22\n  jumpi\n  swap2\n  0x20\n  mul\n  dup3\n  add\n  0x00\ntag_23:\n  dup4\n  dup3\n  gt\n  iszero\n  tag_24\n  jumpi\n  dup4\n  mload\n  dup4\n  dup3\n  0x0100\n  exp\n  dup2\n  sload\n  dup2\n  0xff\n  mul\n  not\n  and\n  swap1\n  dup4\n  0xff\n  and\n  mul\n  or\n  swap1\n  sstore\n  pop\n  swap3\n  0x20\n  add\n  swap3\n  0x01\n  add\n  0x20\n  dup2\n  0x00\n  add\n  div\n  swap3\n  dup4\n  add\n  swap3\n  0x01\n  sub\n  mul\n  jump(tag_23)\ntag_24:\n  dup1\n  iszero\n  tag_25\n  jumpi\n  dup3\n  dup2\n  0x0100\n  exp\n  dup2\n  sload\n  swap1\n  0xff\n  mul\n  not\n  and\n  swap1\n  sstore\n  0x01\n  add\n  0x20\n  dup2\n  0x00\n  add\n  div\n  swap3\n  dup4\n  add\n  swap3\n  0x01\n  sub\n  mul\n  jump(tag_24)\ntag_25:\n  pop\ntag_22:\n  pop\n  swap1\n  pop\n  tag_26\n  swap2\n  swap1\n  tag_21\n  jump\t// in\ntag_26:\n  pop\n  swap1\n  jump\t// out\ntag_11:\n  dup3\n  dup1\n  sload\n  tag_27\n  swap1\n  tag_14\n  jump\t// in\ntag_27:\n  swap1\n  0x00\n  mstore\n  keccak256(0x00, 0x20)\n  swap1\n  0x1f\n  add\n  0x20\n  swap1\n  div\n  dup2\n  add\n  swap3\n  dup3\n  tag_29\n  jumpi\n  0x00\n  dup6\n  sstore\n  jump(tag_28)\ntag_29:\n  dup3\n  0x1f\n  lt\n  tag_30\n  jumpi\n  dup1\n  mload\n  not(0xff)\n  and\n  dup4\n  dup1\n  add\n  or\n  dup6\n  sstore\n  jump(tag_28)\ntag_30:\n  dup3\n  dup1\n  add\n  0x01\n  add\n  dup6\n  sstore\n  dup3\n  iszero\n  tag_28\n  jumpi\n  swap2\n  dup3\n  add\ntag_31:\n  dup3\n  dup2\n  gt\n  iszero\n  tag_32\n  jumpi\n  dup3\n  mload\n  dup3\n  sstore\n  swap2\n  0x20\n  add\n  swap2\n  swap1\n  0x01\n  add\n  swap1\n  jump(tag_31)\ntag_32:\ntag_28:\n  pop\n  swap1\n  pop\n  tag_33\n  swap2\n  swap1\n  tag_21\n  jump\t// in\ntag_33:\n  pop\n  swap1\n  jump\t// out\ntag_21:\ntag_34:\n  dup1\n  dup3\n  gt\n  iszero\n  tag_35\n  jumpi\n  0x00\n  dup2\n  0x00\n  swap1\n  sstore\n  pop\n  0x01\n  add\n  jump(tag_34)\ntag_35:\n  pop\n  swap1\n  jump\t// out\n    /* \"#utility.yul\":7:428   */\ntag_37:\n    /* \"#utility.yul\":96:101   */\n  0x00\n    /* \"#utility.yul\":121:187   */\n  tag_39\n    /* \"#utility.yul\":137:186   */\n  tag_40\n    /* \"#utility.yul\":179:185   */\n  dup5\n    /* \"#utility.yul\":137:186   */\n  tag_41\n  jump\t// in\ntag_40:\n    /* \"#utility.yul\":121:187   */\n  tag_42\n  jump\t// in\ntag_39:\n    /* \"#utility.yul\":112:187   */\n  swap1\n  pop\n    /* \"#utility.yul\":210:216   */\n  dup3\n    /* \"#utility.yul\":203:208   */\n  dup2\n    /* \"#utility.yul\":196:217   */\n  mstore\n    /* \"#utility.yul\":248:252   */\n  0x20\n    /* \"#utility.yul\":241:246   */\n  dup2\n    /* \"#utility.yul\":237:253   */\n  add\n    /* \"#utility.yul\":286:289   */\n  dup5\n    /* \"#utility.yul\":277:283   */\n  dup5\n    /* \"#utility.yul\":272:275   */\n  dup5\n    /* \"#utility.yul\":268:284   */\n  add\n    /* \"#utility.yul\":265:290   */\n  gt\n    /* \"#utility.yul\":262:374   */\n  iszero\n  tag_43\n  jumpi\n    /* \"#utility.yul\":293:372   */\n  tag_44\n  tag_45\n  jump\t// in\ntag_44:\n    /* \"#utility.yul\":262:374   */\ntag_43:\n    /* \"#utility.yul\":383:422   */\n  tag_46\n    /* \"#utility.yul\":415:421   */\n  dup5\n    /* \"#utility.yul\":410:413   */\n  dup3\n    /* \"#utility.yul\":405:408   */\n  dup6\n    /* \"#utility.yul\":383:422   */\n  tag_47\n  jump\t// in\ntag_46:\n    /* \"#utility.yul\":102:428   */\n  pop\n    /* \"#utility.yul\":7:428   */\n  swap4\n  swap3\n  pop\n  pop\n  pop\n  jump\t// out\n    /* \"#utility.yul\":448:803   */\ntag_48:\n    /* \"#utility.yul\":515:520   */\n  0x00\n    /* \"#utility.yul\":564:567   */\n  dup3\n    /* \"#utility.yul\":557:561   */\n  0x1f\n    /* \"#utility.yul\":549:555   */\n  dup4\n    /* \"#utility.yul\":545:562   */\n  add\n    /* \"#utility.yul\":541:568   */\n  slt\n    /* \"#utility.yul\":531:653   */\n  tag_50\n  jumpi\n    /* \"#utility.yul\":572:651   */\n  tag_51\n  tag_52\n  jump\t// in\ntag_51:\n    /* \"#utility.yul\":531:653   */\ntag_50:\n    /* \"#utility.yul\":682:688   */\n  dup2\n    /* \"#utility.yul\":676:689   */\n  mload\n    /* \"#utility.yul\":707:797   */\n  tag_53\n    /* \"#utility.yul\":793:796   */\n  dup5\n    /* \"#utility.yul\":785:791   */\n  dup3\n    /* \"#utility.yul\":778:782   */\n  0x20\n    /* \"#utility.yul\":770:776   */\n  dup7\n    /* \"#utility.yul\":766:783   */\n  add\n    /* \"#utility.yul\":707:797   */\n  tag_37\n  jump\t// in\ntag_53:\n    /* \"#utility.yul\":698:797   */\n  swap2\n  pop\n    /* \"#utility.yul\":521:803   */\n  pop\n    /* \"#utility.yul\":448:803   */\n  swap3\n  swap2\n  pop\n  pop\n  jump\t// out\n    /* \"#utility.yul\":809:1333   */\ntag_7:\n    /* \"#utility.yul\":889:895   */\n  0x00\n    /* \"#utility.yul\":938:940   */\n  0x20\n    /* \"#utility.yul\":926:935   */\n  dup3\n    /* \"#utility.yul\":917:924   */\n  dup5\n    /* \"#utility.yul\":913:936   */\n  sub\n    /* \"#utility.yul\":909:941   */\n  slt\n    /* \"#utility.yul\":906:1025   */\n  iszero\n  tag_55\n  jumpi\n    /* \"#utility.yul\":944:1023   */\n  tag_56\n  tag_57\n  jump\t// in\ntag_56:\n    /* \"#utility.yul\":906:1025   */\ntag_55:\n    /* \"#utility.yul\":1085:1086   */\n  0x00\n    /* \"#utility.yul\":1074:1083   */\n  dup3\n    /* \"#utility.yul\":1070:1087   */\n  add\n    /* \"#utility.yul\":1064:1088   */\n  mload\n    /* \"#utility.yul\":1115:1133   */\n  0xffffffffffffffff\n    /* \"#utility.yul\":1107:1113   */\n  dup2\n    /* \"#utility.yul\":1104:1134   */\n  gt\n    /* \"#utility.yul\":1101:1218   */\n  iszero\n  tag_58\n  jumpi\n    /* \"#utility.yul\":1137:1216   */\n  tag_59\n  tag_60\n  jump\t// in\ntag_59:\n    /* \"#utility.yul\":1101:1218   */\ntag_58:\n    /* \"#utility.yul\":1242:1316   */\n  tag_61\n    /* \"#utility.yul\":1308:1315   */\n  dup5\n    /* \"#utility.yul\":1299:1305   */\n  dup3\n    /* \"#utility.yul\":1288:1297   */\n  dup6\n    /* \"#utility.yul\":1284:1306   */\n  add\n    /* \"#utility.yul\":1242:1316   */\n  tag_48\n  jump\t// in\ntag_61:\n    /* \"#utility.yul\":1232:1316   */\n  swap2\n  pop\n    /* \"#utility.yul\":1035:1326   */\n  pop\n    /* \"#utility.yul\":809:1333   */\n  swap3\n  swap2\n  pop\n  pop\n  jump\t// out\n    /* \"#utility.yul\":1339:1468   */\ntag_42:\n    /* \"#utility.yul\":1373:1379   */\n  0x00\n    /* \"#utility.yul\":1400:1420   */\n  tag_63\n  tag_64\n  jump\t// in\ntag_63:\n    /* \"#utility.yul\":1390:1420   */\n  swap1\n  pop\n    /* \"#utility.yul\":1429:1462   */\n  tag_65\n    /* \"#utility.yul\":1457:1461   */\n  dup3\n    /* \"#utility.yul\":1449:1455   */\n  dup3\n    /* \"#utility.yul\":1429:1462   */\n  tag_66\n  jump\t// in\ntag_65:\n    /* \"#utility.yul\":1339:1468   */\n  swap2\n  swap1\n  pop\n  jump\t// out\n    /* \"#utility.yul\":1474:1549   */\ntag_64:\n    /* \"#utility.yul\":1507:1513   */\n  0x00\n    /* \"#utility.yul\":1540:1542   */\n  0x40\n    /* \"#utility.yul\":1534:1543   */\n  mload\n    /* \"#utility.yul\":1524:1543   */\n  swap1\n  pop\n    /* \"#utility.yul\":1474:1549   */\n  swap1\n  jump\t// out\n    /* \"#utility.yul\":1555:1863   */\ntag_41:\n    /* \"#utility.yul\":1617:1621   */\n  0x00\n    /* \"#utility.yul\":1707:1725   */\n  0xffffffffffffffff\n    /* \"#utility.yul\":1699:1705   */\n  dup3\n    /* \"#utility.yul\":1696:1726   */\n  gt\n    /* \"#utility.yul\":1693:1749   */\n  iszero\n  tag_69\n  jumpi\n    /* \"#utility.yul\":1729:1747   */\n  tag_70\n  tag_71\n  jump\t// in\ntag_70:\n    /* \"#utility.yul\":1693:1749   */\ntag_69:\n    /* \"#utility.yul\":1767:1796   */\n  tag_72\n    /* \"#utility.yul\":1789:1795   */\n  dup3\n    /* \"#utility.yul\":1767:1796   */\n  tag_73\n  jump\t// in\ntag_72:\n    /* \"#utility.yul\":1759:1796   */\n  swap1\n  pop\n    /* \"#utility.yul\":1851:1855   */\n  0x20\n    /* \"#utility.yul\":1845:1849   */\n  dup2\n    /* \"#utility.yul\":1841:1856   */\n  add\n    /* \"#utility.yul\":1833:1856   */\n  swap1\n  pop\n    /* \"#utility.yul\":1555:1863   */\n  swap2\n  swap1\n  pop\n  jump\t// out\n    /* \"#utility.yul\":1869:2176   */\ntag_47:\n    /* \"#utility.yul\":1937:1938   */\n  0x00\n    /* \"#utility.yul\":1947:2060   */\ntag_75:\n    /* \"#utility.yul\":1961:1967   */\n  dup4\n    /* \"#utility.yul\":1958:1959   */\n  dup2\n    /* \"#utility.yul\":1955:1968   */\n  lt\n    /* \"#utility.yul\":1947:2060   */\n  iszero\n  tag_77\n  jumpi\n    /* \"#utility.yul\":2046:2047   */\n  dup1\n    /* \"#utility.yul\":2041:2044   */\n  dup3\n    /* \"#utility.yul\":2037:2048   */\n  add\n    /* \"#utility.yul\":2031:2049   */\n  mload\n    /* \"#utility.yul\":2027:2028   */\n  dup2\n    /* \"#utility.yul\":2022:2025   */\n  dup5\n    /* \"#utility.yul\":2018:2029   */\n  add\n    /* \"#utility.yul\":2011:2050   */\n  mstore\n    /* \"#utility.yul\":1983:1985   */\n  0x20\n    /* \"#utility.yul\":1980:1981   */\n  dup2\n    /* \"#utility.yul\":1976:1986   */\n  add\n    /* \"#utility.yul\":1971:1986   */\n  swap1\n  pop\n    /* \"#utility.yul\":1947:2060   */\n  jump(tag_75)\ntag_77:\n    /* \"#utility.yul\":2078:2084   */\n  dup4\n    /* \"#utility.yul\":2075:2076   */\n  dup2\n    /* \"#utility.yul\":2072:2085   */\n  gt\n    /* \"#utility.yul\":2069:2170   */\n  iszero\n  tag_78\n  jumpi\n    /* \"#utility.yul\":2158:2159   */\n  0x00\n    /* \"#utility.yul\":2149:2155   */\n  dup5\n    /* \"#utility.yul\":2144:2147   */\n  dup5\n    /* \"#utility.yul\":2140:2156   */\n  add\n    /* \"#utility.yul\":2133:2160   */\n  mstore\n    /* \"#utility.yul\":2069:2170   */\ntag_78:\n    /* \"#utility.yul\":1918:2176   */\n  pop\n    /* \"#utility.yul\":1869:2176   */\n  pop\n  pop\n  pop\n  jump\t// out\n    /* \"#utility.yul\":2182:2502   */\ntag_14:\n    /* \"#utility.yul\":2226:2232   */\n  0x00\n    /* \"#utility.yul\":2263:2264   */\n  0x02\n    /* \"#utility.yul\":2257:2261   */\n  dup3\n    /* \"#utility.yul\":2253:2265   */\n  div\n    /* \"#utility.yul\":2243:2265   */\n  swap1\n  pop\n    /* \"#utility.yul\":2310:2311   */\n  0x01\n    /* \"#utility.yul\":2304:2308   */\n  dup3\n    /* \"#utility.yul\":2300:2312   */\n  and\n    /* \"#utility.yul\":2331:2349   */\n  dup1\n    /* \"#utility.yul\":2321:2402   */\n  tag_80\n  jumpi\n    /* \"#utility.yul\":2387:2391   */\n  0x7f\n    /* \"#utility.yul\":2379:2385   */\n  dup3\n    /* \"#utility.yul\":2375:2392   */\n  and\n    /* \"#utility.yul\":2365:2392   */\n  swap2\n  pop\n    /* \"#utility.yul\":2321:2402   */\ntag_80:\n    /* \"#utility.yul\":2449:2451   */\n  0x20\n    /* \"#utility.yul\":2441:2447   */\n  dup3\n    /* \"#utility.yul\":2438:2452   */\n  lt\n    /* \"#utility.yul\":2418:2436   */\n  dup2\n    /* \"#utility.yul\":2415:2453   */\n  eq\n    /* \"#utility.yul\":2412:2496   */\n  iszero\n  tag_81\n  jumpi\n    /* \"#utility.yul\":2468:2486   */\n  tag_82\n  tag_83\n  jump\t// in\ntag_82:\n    /* \"#utility.yul\":2412:2496   */\ntag_81:\n    /* \"#utility.yul\":2233:2502   */\n  pop\n    /* \"#utility.yul\":2182:2502   */\n  swap2\n  swap1\n  pop\n  jump\t// out\n    /* \"#utility.yul\":2508:2789   */\ntag_66:\n    /* \"#utility.yul\":2591:2618   */\n  tag_85\n    /* \"#utility.yul\":2613:2617   */\n  dup3\n    /* \"#utility.yul\":2591:2618   */\n  tag_73\n  jump\t// in\ntag_85:\n    /* \"#utility.yul\":2583:2589   */\n  dup2\n    /* \"#utility.yul\":2579:2619   */\n  add\n    /* \"#utility.yul\":2721:2727   */\n  dup2\n    /* \"#utility.yul\":2709:2719   */\n  dup2\n    /* \"#utility.yul\":2706:2728   */\n  lt\n    /* \"#utility.yul\":2685:2703   */\n  0xffffffffffffffff\n    /* \"#utility.yul\":2673:2683   */\n  dup3\n    /* \"#utility.yul\":2670:2704   */\n  gt\n    /* \"#utility.yul\":2667:2729   */\n  or\n    /* \"#utility.yul\":2664:2752   */\n  iszero\n  tag_86\n  jumpi\n    /* \"#utility.yul\":2732:2750   */\n  tag_87\n  tag_71\n  jump\t// in\ntag_87:\n    /* \"#utility.yul\":2664:2752   */\ntag_86:\n    /* \"#utility.yul\":2772:2782   */\n  dup1\n    /* \"#utility.yul\":2768:2770   */\n  0x40\n    /* \"#utility.yul\":2761:2783   */\n  mstore\n    /* \"#utility.yul\":2551:2789   */\n  pop\n    /* \"#utility.yul\":2508:2789   */\n  pop\n  pop\n  jump\t// out\n    /* \"#utility.yul\":2795:2975   */\ntag_83:\n    /* \"#utility.yul\":2843:2920   */\n  0x4e487b7100000000000000000000000000000000000000000000000000000000\n    /* \"#utility.yul\":2840:2841   */\n  0x00\n    /* \"#utility.yul\":2833:2921   */\n  mstore\n    /* \"#utility.yul\":2940:2944   */\n  0x22\n    /* \"#utility.yul\":2937:2938   */\n  0x04\n    /* \"#utility.yul\":2930:2945   */\n  mstore\n    /* \"#utility.yul\":2964:2968   */\n  0x24\n    /* \"#utility.yul\":2961:2962   */\n  0x00\n    /* \"#utility.yul\":2954:2969   */\n  revert\n    /* \"#utility.yul\":2981:3161   */\ntag_71:\n    /* \"#utility.yul\":3029:3106   */\n  0x4e487b7100000000000000000000000000000000000000000000000000000000\n    /* \"#utility.yul\":3026:3027   */\n  0x00\n    /* \"#utility.yul\":3019:3107   */\n  mstore\n    /* \"#utility.yul\":3126:3130   */\n  0x41\n    /* \"#utility.yul\":3123:3124   */\n  0x04\n    /* \"#utility.yul\":3116:3131   */\n  mstore\n    /* \"#utility.yul\":3150:3154   */\n  0x24\n    /* \"#utility.yul\":3147:3148   */\n  0x00\n    /* \"#utility.yul\":3140:3155   */\n  revert\n    /* \"#utility.yul\":3167:3284   */\ntag_52:\n    /* \"#utility.yul\":3276:3277   */\n  0x00\n    /* \"#utility.yul\":3273:3274   */\n  dup1\n    /* \"#utility.yul\":3266:3278   */\n  revert\n    /* \"#utility.yul\":3290:3407   */\ntag_45:\n    /* \"#utility.yul\":3399:3400   */\n  0x00\n    /* \"#utility.yul\":3396:3397   */\n  dup1\n    /* \"#utility.yul\":3389:3401   */\n  revert\n    /* \"#utility.yul\":3413:3530   */\ntag_60:\n    /* \"#utility.yul\":3522:3523   */\n  0x00\n    /* \"#utility.yul\":3519:3520   */\n  dup1\n    /* \"#utility.yul\":3512:3524   */\n  revert\n    /* \"#utility.yul\":3536:3653   */\ntag_57:\n    /* \"#utility.yul\":3645:3646   */\n  0x00\n    /* \"#utility.yul\":3642:3643   */\n  dup1\n    /* \"#utility.yul\":3635:3647   */\n  revert\n    /* \"#utility.yul\":3659:3761   */\ntag_73:\n    /* \"#utility.yul\":3700:3706   */\n  0x00\n    /* \"#utility.yul\":3751:3753   */\n  0x1f\n    /* \"#utility.yul\":3747:3754   */\n  not\n    /* \"#utility.yul\":3742:3744   */\n  0x1f\n    /* \"#utility.yul\":3735:3740   */\n  dup4\n    /* \"#utility.yul\":3731:3745   */\n  add\n    /* \"#utility.yul\":3727:3755   */\n  and\n    /* \"#utility.yul\":3717:3755   */\n  swap1\n  pop\n    /* \"#utility.yul\":3659:3761   */\n  swap2\n  swap1\n  pop\n  jump\t// out\n    /* \"Dropsite.sol\":122:4905  contract Dropsite is ERC1155_Dropsite  { ... */\ntag_12:\n  dataSize(sub_0)\n  dup1\n  dataOffset(sub_0)\n  0x00\n  codecopy\n  0x00\n  return\nstop\n\nsub_0: assembly {\n        /* \"Dropsite.sol\":122:4905  contract Dropsite is ERC1155_Dropsite  { ... */\n      mstore(0x40, 0x80)\n      jumpi(tag_1, lt(calldatasize, 0x04))\n      shr(0xe0, calldataload(0x00))\n      dup1\n      0x3d65df70\n      gt\n      tag_14\n      jumpi\n      dup1\n      0x3d65df70\n      eq\n      tag_8\n      jumpi\n      dup1\n      0x60daa851\n      eq\n      tag_9\n      jumpi\n      dup1\n      0xaa90c726\n      eq\n      tag_10\n      jumpi\n      dup1\n      0xb4a99a4e\n      eq\n      tag_11\n      jumpi\n      dup1\n      0xfd1ee54c\n      eq\n      tag_12\n      jumpi\n      dup1\n      0xfd6c3b1b\n      eq\n      tag_13\n      jumpi\n      jump(tag_1)\n    tag_14:\n      dup1\n      0x0390c11c\n      eq\n      tag_2\n      jumpi\n      dup1\n      0x0a67d2c7\n      eq\n      tag_3\n      jumpi\n      dup1\n      0x1309a563\n      eq\n      tag_4\n      jumpi\n      dup1\n      0x15460259\n      eq\n      tag_5\n      jumpi\n      dup1\n      0x32b61b4c\n      eq\n      tag_6\n      jumpi\n      dup1\n      0x3b668059\n      eq\n      tag_7\n      jumpi\n    tag_1:\n      0x00\n      dup1\n      revert\n        /* \"Dropsite.sol\":1565:1669  function checkTotalMinted() public view OnlyOwner returns(uint){... */\n    tag_2:\n      callvalue\n      dup1\n      iszero\n      tag_15\n      jumpi\n      0x00\n      dup1\n      revert\n    tag_15:\n      pop\n      tag_16\n      tag_17\n      jump\t// in\n    tag_16:\n      mload(0x40)\n      tag_18\n      swap2\n      swap1\n      tag_19\n      jump\t// in\n    tag_18:\n      mload(0x40)\n      dup1\n      swap2\n      sub\n      swap1\n      return\n        /* \"Dropsite.sol\":2027:2241  function withDraw(address payable to) public payable OnlyOwner {... */\n    tag_3:\n      tag_20\n      0x04\n      dup1\n      calldatasize\n      sub\n      dup2\n      add\n      swap1\n      tag_21\n      swap2\n      swap1\n      tag_22\n      jump\t// in\n    tag_21:\n      tag_23\n      jump\t// in\n    tag_20:\n      stop\n        /* \"Dropsite.sol\":1047:1074  bool public IsPaused = true */\n    tag_4:\n      callvalue\n      dup1\n      iszero\n      tag_24\n      jumpi\n      0x00\n      dup1\n      revert\n    tag_24:\n      pop\n      tag_25\n      tag_26\n      jump\t// in\n    tag_25:\n      mload(0x40)\n      tag_27\n      swap2\n      swap1\n      tag_28\n      jump\t// in\n    tag_27:\n      mload(0x40)\n      dup1\n      swap2\n      sub\n      swap1\n      return\n        /* \"Dropsite.sol\":1817:1953  function openDropsite() public OnlyOwner {... */\n    tag_5:\n      callvalue\n      dup1\n      iszero\n      tag_29\n      jumpi\n      0x00\n      dup1\n      revert\n    tag_29:\n      pop\n      tag_30\n      tag_31\n      jump\t// in\n    tag_30:\n      stop\n        /* \"Dropsite.sol\":3762:4182  function FiatRandomMint(address user_addr) OnlyOwner contractIsNotPaused public returns (uint,string memory) {... */\n    tag_6:\n      callvalue\n      dup1\n      iszero\n      tag_32\n      jumpi\n      0x00\n      dup1\n      revert\n    tag_32:\n      pop\n      tag_33\n      0x04\n      dup1\n      calldatasize\n      sub\n      dup2\n      add\n      swap1\n      tag_34\n      swap2\n      swap1\n      tag_35\n      jump\t// in\n    tag_34:\n      tag_36\n      jump\t// in\n    tag_33:\n      mload(0x40)\n      tag_37\n      swap3\n      swap2\n      swap1\n      tag_38\n      jump\t// in\n    tag_37:\n      mload(0x40)\n      dup1\n      swap2\n      sub\n      swap1\n      return\n        /* \"Dropsite.sol\":2294:2402  function ContractBalance() public view OnlyOwner returns (uint){... */\n    tag_7:\n      callvalue\n      dup1\n      iszero\n      tag_39\n      jumpi\n      0x00\n      dup1\n      revert\n    tag_39:\n      pop\n      tag_40\n      tag_41\n      jump\t// in\n    tag_40:\n      mload(0x40)\n      tag_42\n      swap2\n      swap1\n      tag_19\n      jump\t// in\n    tag_42:\n      mload(0x40)\n      dup1\n      swap2\n      sub\n      swap1\n      return\n        /* \"Dropsite.sol\":4359:4903  function CryptoRandomMint(address user_addr)  contractIsNotPaused public payable returns (uint,string memory) {... */\n    tag_8:\n      tag_43\n      0x04\n      dup1\n      calldatasize\n      sub\n      dup2\n      add\n      swap1\n      tag_44\n      swap2\n      swap1\n      tag_35\n      jump\t// in\n    tag_44:\n      tag_45\n      jump\t// in\n    tag_43:\n      mload(0x40)\n      tag_46\n      swap3\n      swap2\n      swap1\n      tag_38\n      jump\t// in\n    tag_46:\n      mload(0x40)\n      dup1\n      swap2\n      sub\n      swap1\n      return\n        /* \"Dropsite.sol\":1433:1560  function checkMintedCategoryWise() public view OnlyOwner returns(uint,uint,uint){... */\n    tag_9:\n      callvalue\n      dup1\n      iszero\n      tag_47\n      jumpi\n      0x00\n      dup1\n      revert\n    tag_47:\n      pop\n      tag_48\n      tag_49\n      jump\t// in\n    tag_48:\n      mload(0x40)\n      tag_50\n      swap4\n      swap3\n      swap2\n      swap1\n      tag_51\n      jump\t// in\n    tag_50:\n      mload(0x40)\n      dup1\n      swap2\n      sub\n      swap1\n      return\n        /* \"Dropsite.sol\":1675:1810  function stopDropsite() public OnlyOwner{... */\n    tag_10:\n      callvalue\n      dup1\n      iszero\n      tag_52\n      jumpi\n      0x00\n      dup1\n      revert\n    tag_52:\n      pop\n      tag_53\n      tag_54\n      jump\t// in\n    tag_53:\n      stop\n        /* \"Dropsite.sol\":1080:1109  address payable public  Owner */\n    tag_11:\n      callvalue\n      dup1\n      iszero\n      tag_55\n      jumpi\n      0x00\n      dup1\n      revert\n    tag_55:\n      pop\n      tag_56\n      tag_57\n      jump\t// in\n    tag_56:\n      mload(0x40)\n      tag_58\n      swap2\n      swap1\n      tag_59\n      jump\t// in\n    tag_58:\n      mload(0x40)\n      dup1\n      swap2\n      sub\n      swap1\n      return\n        /* \"Dropsite.sol\":209:274  uint8[20] public nums = [0,1,1,2,2,2,2,2,2,2,2,2,2,2,2,2,2,2,2,2] */\n    tag_12:\n      callvalue\n      dup1\n      iszero\n      tag_60\n      jumpi\n      0x00\n      dup1\n      revert\n    tag_60:\n      pop\n      tag_61\n      0x04\n      dup1\n      calldatasize\n      sub\n      dup2\n      add\n      swap1\n      tag_62\n      swap2\n      swap1\n      tag_63\n      jump\t// in\n    tag_62:\n      tag_64\n      jump\t// in\n    tag_61:\n      mload(0x40)\n      tag_65\n      swap2\n      swap1\n      tag_66\n      jump\t// in\n    tag_65:\n      mload(0x40)\n      dup1\n      swap2\n      sub\n      swap1\n      return\n        /* \"Dropsite.sol\":585:694  function returnOwner(address addr) public view returns (uint){... */\n    tag_13:\n      callvalue\n      dup1\n      iszero\n      tag_67\n      jumpi\n      0x00\n      dup1\n      revert\n    tag_67:\n      pop\n      tag_68\n      0x04\n      dup1\n      calldatasize\n      sub\n      dup2\n      add\n      swap1\n      tag_69\n      swap2\n      swap1\n      tag_35\n      jump\t// in\n    tag_69:\n      tag_70\n      jump\t// in\n    tag_68:\n      mload(0x40)\n      tag_71\n      swap2\n      swap1\n      tag_19\n      jump\t// in\n    tag_71:\n      mload(0x40)\n      dup1\n      swap2\n      sub\n      swap1\n      return\n        /* \"Dropsite.sol\":1565:1669  function checkTotalMinted() public view OnlyOwner returns(uint){... */\n    tag_17:\n        /* \"Dropsite.sol\":1623:1627  uint */\n      0x00\n        /* \"Dropsite.sol\":819:824  Owner */\n      0x0b\n      0x01\n      swap1\n      sload\n      swap1\n      0x0100\n      exp\n      swap1\n      div\n      0xffffffffffffffffffffffffffffffffffffffff\n      and\n        /* \"Dropsite.sol\":803:824  _msgSender() == Owner */\n      0xffffffffffffffffffffffffffffffffffffffff\n      and\n        /* \"Dropsite.sol\":803:815  _msgSender() */\n      tag_73\n        /* \"Dropsite.sol\":803:813  _msgSender */\n      tag_74\n        /* \"Dropsite.sol\":803:815  _msgSender() */\n      jump\t// in\n    tag_73:\n        /* \"Dropsite.sol\":803:824  _msgSender() == Owner */\n      0xffffffffffffffffffffffffffffffffffffffff\n      and\n      eq\n        /* \"Dropsite.sol\":795:857  require(_msgSender() == Owner, \"Only NFT-ES Owner can Access\") */\n      tag_75\n      jumpi\n      mload(0x40)\n      0x08c379a000000000000000000000000000000000000000000000000000000000\n      dup2\n      mstore\n      0x04\n      add\n      tag_76\n      swap1\n      tag_77\n      jump\t// in\n    tag_76:\n      mload(0x40)\n      dup1\n      swap2\n      sub\n      swap1\n      revert\n    tag_75:\n        /* \"Dropsite.sol\":1646:1661  TotalNFTsMinted */\n      sload(0x04)\n        /* \"Dropsite.sol\":1639:1661  return TotalNFTsMinted */\n      swap1\n      pop\n        /* \"Dropsite.sol\":1565:1669  function checkTotalMinted() public view OnlyOwner returns(uint){... */\n      swap1\n      jump\t// out\n        /* \"Dropsite.sol\":2027:2241  function withDraw(address payable to) public payable OnlyOwner {... */\n    tag_23:\n        /* \"Dropsite.sol\":819:824  Owner */\n      0x0b\n      0x01\n      swap1\n      sload\n      swap1\n      0x0100\n      exp\n      swap1\n      div\n      0xffffffffffffffffffffffffffffffffffffffff\n      and\n        /* \"Dropsite.sol\":803:824  _msgSender() == Owner */\n      0xffffffffffffffffffffffffffffffffffffffff\n      and\n        /* \"Dropsite.sol\":803:815  _msgSender() */\n      tag_80\n        /* \"Dropsite.sol\":803:813  _msgSender */\n      tag_74\n        /* \"Dropsite.sol\":803:815  _msgSender() */\n      jump\t// in\n    tag_80:\n        /* \"Dropsite.sol\":803:824  _msgSender() == Owner */\n      0xffffffffffffffffffffffffffffffffffffffff\n      and\n      eq\n        /* \"Dropsite.sol\":795:857  require(_msgSender() == Owner, \"Only NFT-ES Owner can Access\") */\n      tag_81\n      jumpi\n      mload(0x40)\n      0x08c379a000000000000000000000000000000000000000000000000000000000\n      dup2\n      mstore\n      0x04\n      add\n      tag_82\n      swap1\n      tag_77\n      jump\t// in\n    tag_82:\n      mload(0x40)\n      dup1\n      swap2\n      sub\n      swap1\n      revert\n    tag_81:\n        /* \"Dropsite.sol\":2100:2112  uint Balance */\n      0x00\n        /* \"Dropsite.sol\":2115:2136  address(this).balance */\n      selfbalance\n        /* \"Dropsite.sol\":2100:2136  uint Balance = address(this).balance */\n      swap1\n      pop\n        /* \"Dropsite.sol\":2164:2169  0 wei */\n      0x00\n        /* \"Dropsite.sol\":2154:2161  Balance */\n      dup2\n        /* \"Dropsite.sol\":2154:2169  Balance > 0 wei */\n      gt\n        /* \"Dropsite.sol\":2146:2203  require(Balance > 0 wei, \"Error! No Balance to withdraw\") */\n      tag_84\n      jumpi\n      mload(0x40)\n      0x08c379a000000000000000000000000000000000000000000000000000000000\n      dup2\n      mstore\n      0x04\n      add\n      tag_85\n      swap1\n      tag_86\n      jump\t// in\n    tag_85:\n      mload(0x40)\n      dup1\n      swap2\n      sub\n      swap1\n      revert\n    tag_84:\n        /* \"Dropsite.sol\":2214:2216  to */\n      dup2\n        /* \"Dropsite.sol\":2214:2225  to.transfer */\n      0xffffffffffffffffffffffffffffffffffffffff\n      and\n        /* \"Dropsite.sol\":2214:2234  to.transfer(Balance) */\n      0x08fc\n        /* \"Dropsite.sol\":2226:2233  Balance */\n      dup3\n        /* \"Dropsite.sol\":2214:2234  to.transfer(Balance) */\n      swap1\n      dup2\n      iszero\n      mul\n      swap1\n      mload(0x40)\n      0x00\n      mload(0x40)\n      dup1\n      dup4\n      sub\n      dup2\n      dup6\n      dup9\n      dup9\n      call\n      swap4\n      pop\n      pop\n      pop\n      pop\n      iszero\n      dup1\n      iszero\n      tag_88\n      jumpi\n      returndatasize\n      0x00\n      dup1\n      returndatacopy\n      revert(0x00, returndatasize)\n    tag_88:\n      pop\n        /* \"Dropsite.sol\":2090:2241  {... */\n      pop\n        /* \"Dropsite.sol\":2027:2241  function withDraw(address payable to) public payable OnlyOwner {... */\n      pop\n      jump\t// out\n        /* \"Dropsite.sol\":1047:1074  bool public IsPaused = true */\n    tag_26:\n      0x0b\n      0x00\n      swap1\n      sload\n      swap1\n      0x0100\n      exp\n      swap1\n      div\n      0xff\n      and\n      dup2\n      jump\t// out\n        /* \"Dropsite.sol\":1817:1953  function openDropsite() public OnlyOwner {... */\n    tag_31:\n        /* \"Dropsite.sol\":819:824  Owner */\n      0x0b\n      0x01\n      swap1\n      sload\n      swap1\n      0x0100\n      exp\n      swap1\n      div\n      0xffffffffffffffffffffffffffffffffffffffff\n      and\n        /* \"Dropsite.sol\":803:824  _msgSender() == Owner */\n      0xffffffffffffffffffffffffffffffffffffffff\n      and\n        /* \"Dropsite.sol\":803:815  _msgSender() */\n      tag_90\n        /* \"Dropsite.sol\":803:813  _msgSender */\n      tag_74\n        /* \"Dropsite.sol\":803:815  _msgSender() */\n      jump\t// in\n    tag_90:\n        /* \"Dropsite.sol\":803:824  _msgSender() == Owner */\n      0xffffffffffffffffffffffffffffffffffffffff\n      and\n      eq\n        /* \"Dropsite.sol\":795:857  require(_msgSender() == Owner, \"Only NFT-ES Owner can Access\") */\n      tag_91\n      jumpi\n      mload(0x40)\n      0x08c379a000000000000000000000000000000000000000000000000000000000\n      dup2\n      mstore\n      0x04\n      add\n      tag_92\n      swap1\n      tag_77\n      jump\t// in\n    tag_92:\n      mload(0x40)\n      dup1\n      swap2\n      sub\n      swap1\n      revert\n    tag_91:\n        /* \"Dropsite.sol\":1886:1890  true */\n      0x01\n        /* \"Dropsite.sol\":1876:1890  IsPaused==true */\n      iszero\n      iszero\n        /* \"Dropsite.sol\":1876:1884  IsPaused */\n      0x0b\n      0x00\n      swap1\n      sload\n      swap1\n      0x0100\n      exp\n      swap1\n      div\n      0xff\n      and\n        /* \"Dropsite.sol\":1876:1890  IsPaused==true */\n      iszero\n      iszero\n      eq\n        /* \"Dropsite.sol\":1868:1922  require(IsPaused==true, \"Dropsite is already Running\") */\n      tag_94\n      jumpi\n      mload(0x40)\n      0x08c379a000000000000000000000000000000000000000000000000000000000\n      dup2\n      mstore\n      0x04\n      add\n      tag_95\n      swap1\n      tag_96\n      jump\t// in\n    tag_95:\n      mload(0x40)\n      dup1\n      swap2\n      sub\n      swap1\n      revert\n    tag_94:\n        /* \"Dropsite.sol\":1941:1946  false */\n      0x00\n        /* \"Dropsite.sol\":1932:1940  IsPaused */\n      0x0b\n      0x00\n        /* \"Dropsite.sol\":1932:1946  IsPaused=false */\n      0x0100\n      exp\n      dup2\n      sload\n      dup2\n      0xff\n      mul\n      not\n      and\n      swap1\n      dup4\n      iszero\n      iszero\n      mul\n      or\n      swap1\n      sstore\n      pop\n        /* \"Dropsite.sol\":1817:1953  function openDropsite() public OnlyOwner {... */\n      jump\t// out\n        /* \"Dropsite.sol\":3762:4182  function FiatRandomMint(address user_addr) OnlyOwner contractIsNotPaused public returns (uint,string memory) {... */\n    tag_36:\n        /* \"Dropsite.sol\":3851:3855  uint */\n      0x00\n        /* \"Dropsite.sol\":3856:3869  string memory */\n      0x60\n        /* \"Dropsite.sol\":819:824  Owner */\n      0x0b\n      0x01\n      swap1\n      sload\n      swap1\n      0x0100\n      exp\n      swap1\n      div\n      0xffffffffffffffffffffffffffffffffffffffff\n      and\n        /* \"Dropsite.sol\":803:824  _msgSender() == Owner */\n      0xffffffffffffffffffffffffffffffffffffffff\n      and\n        /* \"Dropsite.sol\":803:815  _msgSender() */\n      tag_98\n        /* \"Dropsite.sol\":803:813  _msgSender */\n      tag_74\n        /* \"Dropsite.sol\":803:815  _msgSender() */\n      jump\t// in\n    tag_98:\n        /* \"Dropsite.sol\":803:824  _msgSender() == Owner */\n      0xffffffffffffffffffffffffffffffffffffffff\n      and\n      eq\n        /* \"Dropsite.sol\":795:857  require(_msgSender() == Owner, \"Only NFT-ES Owner can Access\") */\n      tag_99\n      jumpi\n      mload(0x40)\n      0x08c379a000000000000000000000000000000000000000000000000000000000\n      dup2\n      mstore\n      0x04\n      add\n      tag_100\n      swap1\n      tag_77\n      jump\t// in\n    tag_100:\n      mload(0x40)\n      dup1\n      swap2\n      sub\n      swap1\n      revert\n    tag_99:\n        /* \"Dropsite.sol\":984:989  false */\n      0x00\n        /* \"Dropsite.sol\":972:989  IsPaused == false */\n      iszero\n      iszero\n        /* \"Dropsite.sol\":972:980  IsPaused */\n      0x0b\n      0x00\n      swap1\n      sload\n      swap1\n      0x0100\n      exp\n      swap1\n      div\n      0xff\n      and\n        /* \"Dropsite.sol\":972:989  IsPaused == false */\n      iszero\n      iszero\n      eq\n        /* \"Dropsite.sol\":963:1022  require (IsPaused == false, \"Dropsite is not Opened Yet.\" ) */\n      tag_102\n      jumpi\n      mload(0x40)\n      0x08c379a000000000000000000000000000000000000000000000000000000000\n      dup2\n      mstore\n      0x04\n      add\n      tag_103\n      swap1\n      tag_104\n      jump\t// in\n    tag_103:\n      mload(0x40)\n      dup1\n      swap2\n      sub\n      swap1\n      revert\n    tag_102:\n        /* \"Dropsite.sol\":3902:3906  1000 */\n      0x03e8\n        /* \"Dropsite.sol\":3886:3901  TotalNFTsMinted */\n      sload(0x04)\n        /* \"Dropsite.sol\":3886:3906  TotalNFTsMinted<1000 */\n      lt\n        /* \"Dropsite.sol\":3878:3936  require(TotalNFTsMinted<1000, \"Max Minting Limit reached\") */\n      tag_106\n      jumpi\n      mload(0x40)\n      0x08c379a000000000000000000000000000000000000000000000000000000000\n      dup2\n      mstore\n      0x04\n      add\n      tag_107\n      swap1\n      tag_108\n      jump\t// in\n    tag_107:\n      mload(0x40)\n      dup1\n      swap2\n      sub\n      swap1\n      revert\n    tag_106:\n        /* \"Dropsite.sol\":3999:4009  uint nftId */\n      0x00\n        /* \"Dropsite.sol\":4012:4030  updateConditions() */\n      tag_109\n        /* \"Dropsite.sol\":4012:4028  updateConditions */\n      tag_110\n        /* \"Dropsite.sol\":4012:4030  updateConditions() */\n      jump\t// in\n    tag_109:\n        /* \"Dropsite.sol\":3999:4030  uint nftId = updateConditions() */\n      swap1\n      pop\n        /* \"Dropsite.sol\":4036:4078  _mint(user_addr, nftId, numOfCopies, data) */\n      tag_111\n        /* \"Dropsite.sol\":4042:4051  user_addr */\n      dup5\n        /* \"Dropsite.sol\":4053:4058  nftId */\n      dup3\n        /* \"Dropsite.sol\":4060:4071  numOfCopies */\n      sload(0x05)\n        /* \"Dropsite.sol\":4073:4077  data */\n      0x02\n        /* \"Dropsite.sol\":4036:4078  _mint(user_addr, nftId, numOfCopies, data) */\n      dup1\n      sload\n      tag_112\n      swap1\n      tag_113\n      jump\t// in\n    tag_112:\n      dup1\n      0x1f\n      add\n      0x20\n      dup1\n      swap2\n      div\n      mul\n      0x20\n      add\n      mload(0x40)\n      swap1\n      dup2\n      add\n      0x40\n      mstore\n      dup1\n      swap3\n      swap2\n      swap1\n      dup2\n      dup2\n      mstore\n      0x20\n      add\n      dup3\n      dup1\n      sload\n      tag_114\n      swap1\n      tag_113\n      jump\t// in\n    tag_114:\n      dup1\n      iszero\n      tag_115\n      jumpi\n      dup1\n      0x1f\n      lt\n      tag_116\n      jumpi\n      0x0100\n      dup1\n      dup4\n      sload\n      div\n      mul\n      dup4\n      mstore\n      swap2\n      0x20\n      add\n      swap2\n      jump(tag_115)\n    tag_116:\n      dup3\n      add\n      swap2\n      swap1\n      0x00\n      mstore\n      keccak256(0x00, 0x20)\n      swap1\n    tag_117:\n      dup2\n      sload\n      dup2\n      mstore\n      swap1\n      0x01\n      add\n      swap1\n      0x20\n      add\n      dup1\n      dup4\n      gt\n      tag_117\n      jumpi\n      dup3\n      swap1\n      sub\n      0x1f\n      and\n      dup3\n      add\n      swap2\n    tag_115:\n      pop\n      pop\n      pop\n      pop\n      pop\n        /* \"Dropsite.sol\":4036:4041  _mint */\n      tag_118\n        /* \"Dropsite.sol\":4036:4078  _mint(user_addr, nftId, numOfCopies, data) */\n      jump\t// in\n    tag_111:\n        /* \"Dropsite.sol\":4084:4099  TotalNFTsMinted */\n      0x04\n      0x00\n        /* \"Dropsite.sol\":4084:4101  TotalNFTsMinted++ */\n      dup2\n      sload\n      dup1\n      swap3\n      swap2\n      swap1\n      tag_119\n      swap1\n      tag_120\n      jump\t// in\n    tag_119:\n      swap2\n      swap1\n      pop\n      sstore\n      pop\n        /* \"Dropsite.sol\":4137:4142  nftId */\n      dup1\n        /* \"Dropsite.sol\":4107:4125  dropsite_NFT_Owner */\n      0x09\n        /* \"Dropsite.sol\":4107:4136  dropsite_NFT_Owner[user_addr] */\n      0x00\n        /* \"Dropsite.sol\":4126:4135  user_addr */\n      dup7\n        /* \"Dropsite.sol\":4107:4136  dropsite_NFT_Owner[user_addr] */\n      0xffffffffffffffffffffffffffffffffffffffff\n      and\n      0xffffffffffffffffffffffffffffffffffffffff\n      and\n      dup2\n      mstore\n      0x20\n      add\n      swap1\n      dup2\n      mstore\n      0x20\n      add\n      0x00\n      keccak256\n        /* \"Dropsite.sol\":4107:4142  dropsite_NFT_Owner[user_addr]=nftId */\n      dup2\n      swap1\n      sstore\n      pop\n        /* \"Dropsite.sol\":4156:4161  nftId */\n      dup1\n        /* \"Dropsite.sol\":4169:4173  data */\n      0x02\n        /* \"Dropsite.sol\":4148:4175  return (nftId,string(data)) */\n      dup1\n      dup1\n      sload\n      tag_121\n      swap1\n      tag_113\n      jump\t// in\n    tag_121:\n      dup1\n      0x1f\n      add\n      0x20\n      dup1\n      swap2\n      div\n      mul\n      0x20\n      add\n      mload(0x40)\n      swap1\n      dup2\n      add\n      0x40\n      mstore\n      dup1\n      swap3\n      swap2\n      swap1\n      dup2\n      dup2\n      mstore\n      0x20\n      add\n      dup3\n      dup1\n      sload\n      tag_122\n      swap1\n      tag_113\n      jump\t// in\n    tag_122:\n      dup1\n      iszero\n      tag_123\n      jumpi\n      dup1\n      0x1f\n      lt\n      tag_124\n      jumpi\n      0x0100\n      dup1\n      dup4\n      sload\n      div\n      mul\n      dup4\n      mstore\n      swap2\n      0x20\n      add\n      swap2\n      jump(tag_123)\n    tag_124:\n      dup3\n      add\n      swap2\n      swap1\n      0x00\n      mstore\n      keccak256(0x00, 0x20)\n      swap1\n    tag_125:\n      dup2\n      sload\n      dup2\n      mstore\n      swap1\n      0x01\n      add\n      swap1\n      0x20\n      add\n      dup1\n      dup4\n      gt\n      tag_125\n      jumpi\n      dup3\n      swap1\n      sub\n      0x1f\n      and\n      dup3\n      add\n      swap2\n    tag_123:\n      pop\n      pop\n      pop\n      pop\n      pop\n      swap1\n      pop\n      swap3\n      pop\n      swap3\n      pop\n      pop\n        /* \"Dropsite.sol\":3762:4182  function FiatRandomMint(address user_addr) OnlyOwner contractIsNotPaused public returns (uint,string memory) {... */\n      swap2\n      pop\n      swap2\n      jump\t// out\n        /* \"Dropsite.sol\":2294:2402  function ContractBalance() public view OnlyOwner returns (uint){... */\n    tag_41:\n        /* \"Dropsite.sol\":2352:2356  uint */\n      0x00\n        /* \"Dropsite.sol\":819:824  Owner */\n      0x0b\n      0x01\n      swap1\n      sload\n      swap1\n      0x0100\n      exp\n      swap1\n      div\n      0xffffffffffffffffffffffffffffffffffffffff\n      and\n        /* \"Dropsite.sol\":803:824  _msgSender() == Owner */\n      0xffffffffffffffffffffffffffffffffffffffff\n      and\n        /* \"Dropsite.sol\":803:815  _msgSender() */\n      tag_127\n        /* \"Dropsite.sol\":803:813  _msgSender */\n      tag_74\n        /* \"Dropsite.sol\":803:815  _msgSender() */\n      jump\t// in\n    tag_127:\n        /* \"Dropsite.sol\":803:824  _msgSender() == Owner */\n      0xffffffffffffffffffffffffffffffffffffffff\n      and\n      eq\n        /* \"Dropsite.sol\":795:857  require(_msgSender() == Owner, \"Only NFT-ES Owner can Access\") */\n      tag_128\n      jumpi\n      mload(0x40)\n      0x08c379a000000000000000000000000000000000000000000000000000000000\n      dup2\n      mstore\n      0x04\n      add\n      tag_129\n      swap1\n      tag_77\n      jump\t// in\n    tag_129:\n      mload(0x40)\n      dup1\n      swap2\n      sub\n      swap1\n      revert\n    tag_128:\n        /* \"Dropsite.sol\":2374:2395  address(this).balance */\n      selfbalance\n        /* \"Dropsite.sol\":2367:2395  return address(this).balance */\n      swap1\n      pop\n        /* \"Dropsite.sol\":2294:2402  function ContractBalance() public view OnlyOwner returns (uint){... */\n      swap1\n      jump\t// out\n        /* \"Dropsite.sol\":4359:4903  function CryptoRandomMint(address user_addr)  contractIsNotPaused public payable returns (uint,string memory) {... */\n    tag_45:\n        /* \"Dropsite.sol\":4449:4453  uint */\n      0x00\n        /* \"Dropsite.sol\":4454:4467  string memory */\n      0x60\n        /* \"Dropsite.sol\":984:989  false */\n      0x00\n        /* \"Dropsite.sol\":972:989  IsPaused == false */\n      iszero\n      iszero\n        /* \"Dropsite.sol\":972:980  IsPaused */\n      0x0b\n      0x00\n      swap1\n      sload\n      swap1\n      0x0100\n      exp\n      swap1\n      div\n      0xff\n      and\n        /* \"Dropsite.sol\":972:989  IsPaused == false */\n      iszero\n      iszero\n      eq\n        /* \"Dropsite.sol\":963:1022  require (IsPaused == false, \"Dropsite is not Opened Yet.\" ) */\n      tag_132\n      jumpi\n      mload(0x40)\n      0x08c379a000000000000000000000000000000000000000000000000000000000\n      dup2\n      mstore\n      0x04\n      add\n      tag_133\n      swap1\n      tag_104\n      jump\t// in\n    tag_133:\n      mload(0x40)\n      dup1\n      swap2\n      sub\n      swap1\n      revert\n    tag_132:\n        /* \"Dropsite.sol\":4500:4504  1000 */\n      0x03e8\n        /* \"Dropsite.sol\":4484:4499  TotalNFTsMinted */\n      sload(0x04)\n        /* \"Dropsite.sol\":4484:4504  TotalNFTsMinted<1000 */\n      lt\n        /* \"Dropsite.sol\":4476:4534  require(TotalNFTsMinted<1000, \"Max Minting Limit reached\") */\n      tag_135\n      jumpi\n      mload(0x40)\n      0x08c379a000000000000000000000000000000000000000000000000000000000\n      dup2\n      mstore\n      0x04\n      add\n      tag_136\n      swap1\n      tag_108\n      jump\t// in\n    tag_136:\n      mload(0x40)\n      dup1\n      swap2\n      sub\n      swap1\n      revert\n    tag_135:\n        /* \"Dropsite.sol\":4563:4565  25 */\n      0x19\n        /* \"Dropsite.sol\":4549:4558  msg.value */\n      callvalue\n        /* \"Dropsite.sol\":4549:4566  msg.value == (25) */\n      eq\n        /* \"Dropsite.sol\":4541:4596  require(msg.value == (25), \"Balance must be 25 Matics\") */\n      tag_137\n      jumpi\n      mload(0x40)\n      0x08c379a000000000000000000000000000000000000000000000000000000000\n      dup2\n      mstore\n      0x04\n      add\n      tag_138\n      swap1\n      tag_139\n      jump\t// in\n    tag_138:\n      mload(0x40)\n      dup1\n      swap2\n      sub\n      swap1\n      revert\n    tag_137:\n        /* \"Dropsite.sol\":4676:4686  uint nftId */\n      0x00\n        /* \"Dropsite.sol\":4689:4707  updateConditions() */\n      tag_140\n        /* \"Dropsite.sol\":4689:4705  updateConditions */\n      tag_110\n        /* \"Dropsite.sol\":4689:4707  updateConditions() */\n      jump\t// in\n    tag_140:\n        /* \"Dropsite.sol\":4676:4707  uint nftId = updateConditions() */\n      swap1\n      pop\n        /* \"Dropsite.sol\":4713:4755  _mint(user_addr, nftId, numOfCopies, data) */\n      tag_141\n        /* \"Dropsite.sol\":4719:4728  user_addr */\n      dup5\n        /* \"Dropsite.sol\":4730:4735  nftId */\n      dup3\n        /* \"Dropsite.sol\":4737:4748  numOfCopies */\n      sload(0x05)\n        /* \"Dropsite.sol\":4750:4754  data */\n      0x02\n        /* \"Dropsite.sol\":4713:4755  _mint(user_addr, nftId, numOfCopies, data) */\n      dup1\n      sload\n      tag_142\n      swap1\n      tag_113\n      jump\t// in\n    tag_142:\n      dup1\n      0x1f\n      add\n      0x20\n      dup1\n      swap2\n      div\n      mul\n      0x20\n      add\n      mload(0x40)\n      swap1\n      dup2\n      add\n      0x40\n      mstore\n      dup1\n      swap3\n      swap2\n      swap1\n      dup2\n      dup2\n      mstore\n      0x20\n      add\n      dup3\n      dup1\n      sload\n      tag_143\n      swap1\n      tag_113\n      jump\t// in\n    tag_143:\n      dup1\n      iszero\n      tag_144\n      jumpi\n      dup1\n      0x1f\n      lt\n      tag_145\n      jumpi\n      0x0100\n      dup1\n      dup4\n      sload\n      div\n      mul\n      dup4\n      mstore\n      swap2\n      0x20\n      add\n      swap2\n      jump(tag_144)\n    tag_145:\n      dup3\n      add\n      swap2\n      swap1\n      0x00\n      mstore\n      keccak256(0x00, 0x20)\n      swap1\n    tag_146:\n      dup2\n      sload\n      dup2\n      mstore\n      swap1\n      0x01\n      add\n      swap1\n      0x20\n      add\n      dup1\n      dup4\n      gt\n      tag_146\n      jumpi\n      dup3\n      swap1\n      sub\n      0x1f\n      and\n      dup3\n      add\n      swap2\n    tag_144:\n      pop\n      pop\n      pop\n      pop\n      pop\n        /* \"Dropsite.sol\":4713:4718  _mint */\n      tag_118\n        /* \"Dropsite.sol\":4713:4755  _mint(user_addr, nftId, numOfCopies, data) */\n      jump\t// in\n    tag_141:\n        /* \"Dropsite.sol\":4761:4799  depositAmount(_msgSender(), msg.value) */\n      tag_147\n        /* \"Dropsite.sol\":4775:4787  _msgSender() */\n      tag_148\n        /* \"Dropsite.sol\":4775:4785  _msgSender */\n      tag_74\n        /* \"Dropsite.sol\":4775:4787  _msgSender() */\n      jump\t// in\n    tag_148:\n        /* \"Dropsite.sol\":4789:4798  msg.value */\n      callvalue\n        /* \"Dropsite.sol\":4761:4774  depositAmount */\n      tag_149\n        /* \"Dropsite.sol\":4761:4799  depositAmount(_msgSender(), msg.value) */\n      jump\t// in\n    tag_147:\n        /* \"Dropsite.sol\":4805:4820  TotalNFTsMinted */\n      0x04\n      0x00\n        /* \"Dropsite.sol\":4805:4822  TotalNFTsMinted++ */\n      dup2\n      sload\n      dup1\n      swap3\n      swap2\n      swap1\n      tag_150\n      swap1\n      tag_120\n      jump\t// in\n    tag_150:\n      swap2\n      swap1\n      pop\n      sstore\n      pop\n        /* \"Dropsite.sol\":4858:4863  nftId */\n      dup1\n        /* \"Dropsite.sol\":4828:4846  dropsite_NFT_Owner */\n      0x09\n        /* \"Dropsite.sol\":4828:4857  dropsite_NFT_Owner[user_addr] */\n      0x00\n        /* \"Dropsite.sol\":4847:4856  user_addr */\n      dup7\n        /* \"Dropsite.sol\":4828:4857  dropsite_NFT_Owner[user_addr] */\n      0xffffffffffffffffffffffffffffffffffffffff\n      and\n      0xffffffffffffffffffffffffffffffffffffffff\n      and\n      dup2\n      mstore\n      0x20\n      add\n      swap1\n      dup2\n      mstore\n      0x20\n      add\n      0x00\n      keccak256\n        /* \"Dropsite.sol\":4828:4863  dropsite_NFT_Owner[user_addr]=nftId */\n      dup2\n      swap1\n      sstore\n      pop\n        /* \"Dropsite.sol\":4877:4882  nftId */\n      dup1\n        /* \"Dropsite.sol\":4890:4894  data */\n      0x02\n        /* \"Dropsite.sol\":4869:4896  return (nftId,string(data)) */\n      dup1\n      dup1\n      sload\n      tag_151\n      swap1\n      tag_113\n      jump\t// in\n    tag_151:\n      dup1\n      0x1f\n      add\n      0x20\n      dup1\n      swap2\n      div\n      mul\n      0x20\n      add\n      mload(0x40)\n      swap1\n      dup2\n      add\n      0x40\n      mstore\n      dup1\n      swap3\n      swap2\n      swap1\n      dup2\n      dup2\n      mstore\n      0x20\n      add\n      dup3\n      dup1\n      sload\n      tag_152\n      swap1\n      tag_113\n      jump\t// in\n    tag_152:\n      dup1\n      iszero\n      tag_153\n      jumpi\n      dup1\n      0x1f\n      lt\n      tag_154\n      jumpi\n      0x0100\n      dup1\n      dup4\n      sload\n      div\n      mul\n      dup4\n      mstore\n      swap2\n      0x20\n      add\n      swap2\n      jump(tag_153)\n    tag_154:\n      dup3\n      add\n      swap2\n      swap1\n      0x00\n      mstore\n      keccak256(0x00, 0x20)\n      swap1\n    tag_155:\n      dup2\n      sload\n      dup2\n      mstore\n      swap1\n      0x01\n      add\n      swap1\n      0x20\n      add\n      dup1\n      dup4\n      gt\n      tag_155\n      jumpi\n      dup3\n      swap1\n      sub\n      0x1f\n      and\n      dup3\n      add\n      swap2\n    tag_153:\n      pop\n      pop\n      pop\n      pop\n      pop\n      swap1\n      pop\n      swap3\n      pop\n      swap3\n      pop\n      pop\n        /* \"Dropsite.sol\":4359:4903  function CryptoRandomMint(address user_addr)  contractIsNotPaused public payable returns (uint,string memory) {... */\n      swap2\n      pop\n      swap2\n      jump\t// out\n        /* \"Dropsite.sol\":1433:1560  function checkMintedCategoryWise() public view OnlyOwner returns(uint,uint,uint){... */\n    tag_49:\n        /* \"Dropsite.sol\":1498:1502  uint */\n      0x00\n        /* \"Dropsite.sol\":1503:1507  uint */\n      dup1\n        /* \"Dropsite.sol\":1508:1512  uint */\n      0x00\n        /* \"Dropsite.sol\":819:824  Owner */\n      0x0b\n      0x01\n      swap1\n      sload\n      swap1\n      0x0100\n      exp\n      swap1\n      div\n      0xffffffffffffffffffffffffffffffffffffffff\n      and\n        /* \"Dropsite.sol\":803:824  _msgSender() == Owner */\n      0xffffffffffffffffffffffffffffffffffffffff\n      and\n        /* \"Dropsite.sol\":803:815  _msgSender() */\n      tag_157\n        /* \"Dropsite.sol\":803:813  _msgSender */\n      tag_74\n        /* \"Dropsite.sol\":803:815  _msgSender() */\n      jump\t// in\n    tag_157:\n        /* \"Dropsite.sol\":803:824  _msgSender() == Owner */\n      0xffffffffffffffffffffffffffffffffffffffff\n      and\n      eq\n        /* \"Dropsite.sol\":795:857  require(_msgSender() == Owner, \"Only NFT-ES Owner can Access\") */\n      tag_158\n      jumpi\n      mload(0x40)\n      0x08c379a000000000000000000000000000000000000000000000000000000000\n      dup2\n      mstore\n      0x04\n      add\n      tag_159\n      swap1\n      tag_77\n      jump\t// in\n    tag_159:\n      mload(0x40)\n      dup1\n      swap2\n      sub\n      swap1\n      revert\n    tag_158:\n        /* \"Dropsite.sol\":1532:1539  Diamond */\n      sload(0x06)\n        /* \"Dropsite.sol\":1540:1544  Gold */\n      sload(0x07)\n        /* \"Dropsite.sol\":1545:1551  Silver */\n      sload(0x08)\n        /* \"Dropsite.sol\":1524:1552  return (Diamond,Gold,Silver) */\n      swap3\n      pop\n      swap3\n      pop\n      swap3\n      pop\n        /* \"Dropsite.sol\":1433:1560  function checkMintedCategoryWise() public view OnlyOwner returns(uint,uint,uint){... */\n      swap1\n      swap2\n      swap3\n      jump\t// out\n        /* \"Dropsite.sol\":1675:1810  function stopDropsite() public OnlyOwner{... */\n    tag_54:\n        /* \"Dropsite.sol\":819:824  Owner */\n      0x0b\n      0x01\n      swap1\n      sload\n      swap1\n      0x0100\n      exp\n      swap1\n      div\n      0xffffffffffffffffffffffffffffffffffffffff\n      and\n        /* \"Dropsite.sol\":803:824  _msgSender() == Owner */\n      0xffffffffffffffffffffffffffffffffffffffff\n      and\n        /* \"Dropsite.sol\":803:815  _msgSender() */\n      tag_162\n        /* \"Dropsite.sol\":803:813  _msgSender */\n      tag_74\n        /* \"Dropsite.sol\":803:815  _msgSender() */\n      jump\t// in\n    tag_162:\n        /* \"Dropsite.sol\":803:824  _msgSender() == Owner */\n      0xffffffffffffffffffffffffffffffffffffffff\n      and\n      eq\n        /* \"Dropsite.sol\":795:857  require(_msgSender() == Owner, \"Only NFT-ES Owner can Access\") */\n      tag_163\n      jumpi\n      mload(0x40)\n      0x08c379a000000000000000000000000000000000000000000000000000000000\n      dup2\n      mstore\n      0x04\n      add\n      tag_164\n      swap1\n      tag_77\n      jump\t// in\n    tag_164:\n      mload(0x40)\n      dup1\n      swap2\n      sub\n      swap1\n      revert\n    tag_163:\n        /* \"Dropsite.sol\":1743:1748  false */\n      0x00\n        /* \"Dropsite.sol\":1733:1748  IsPaused==false */\n      iszero\n      iszero\n        /* \"Dropsite.sol\":1733:1741  IsPaused */\n      0x0b\n      0x00\n      swap1\n      sload\n      swap1\n      0x0100\n      exp\n      swap1\n      div\n      0xff\n      and\n        /* \"Dropsite.sol\":1733:1748  IsPaused==false */\n      iszero\n      iszero\n      eq\n        /* \"Dropsite.sol\":1725:1780  require(IsPaused==false, \"Dropsite is already Stopped\") */\n      tag_166\n      jumpi\n      mload(0x40)\n      0x08c379a000000000000000000000000000000000000000000000000000000000\n      dup2\n      mstore\n      0x04\n      add\n      tag_167\n      swap1\n      tag_168\n      jump\t// in\n    tag_167:\n      mload(0x40)\n      dup1\n      swap2\n      sub\n      swap1\n      revert\n    tag_166:\n        /* \"Dropsite.sol\":1799:1803  true */\n      0x01\n        /* \"Dropsite.sol\":1790:1798  IsPaused */\n      0x0b\n      0x00\n        /* \"Dropsite.sol\":1790:1803  IsPaused=true */\n      0x0100\n      exp\n      dup2\n      sload\n      dup2\n      0xff\n      mul\n      not\n      and\n      swap1\n      dup4\n      iszero\n      iszero\n      mul\n      or\n      swap1\n      sstore\n      pop\n        /* \"Dropsite.sol\":1675:1810  function stopDropsite() public OnlyOwner{... */\n      jump\t// out\n        /* \"Dropsite.sol\":1080:1109  address payable public  Owner */\n    tag_57:\n      0x0b\n      0x01\n      swap1\n      sload\n      swap1\n      0x0100\n      exp\n      swap1\n      div\n      0xffffffffffffffffffffffffffffffffffffffff\n      and\n      dup2\n      jump\t// out\n        /* \"Dropsite.sol\":209:274  uint8[20] public nums = [0,1,1,2,2,2,2,2,2,2,2,2,2,2,2,2,2,2,2,2] */\n    tag_64:\n      0x03\n      dup2\n      0x14\n      dup2\n      lt\n      tag_169\n      jumpi\n      0x00\n      dup1\n      revert\n    tag_169:\n      0x20\n      swap2\n      dup3\n      dup3\n      div\n      add\n      swap2\n      swap1\n      mod\n      swap2\n      pop\n      sload\n      swap1\n      0x0100\n      exp\n      swap1\n      div\n      0xff\n      and\n      dup2\n      jump\t// out\n        /* \"Dropsite.sol\":585:694  function returnOwner(address addr) public view returns (uint){... */\n    tag_70:\n        /* \"Dropsite.sol\":641:645  uint */\n      0x00\n        /* \"Dropsite.sol\":663:681  dropsite_NFT_Owner */\n      0x09\n        /* \"Dropsite.sol\":663:687  dropsite_NFT_Owner[addr] */\n      0x00\n        /* \"Dropsite.sol\":682:686  addr */\n      dup4\n        /* \"Dropsite.sol\":663:687  dropsite_NFT_Owner[addr] */\n      0xffffffffffffffffffffffffffffffffffffffff\n      and\n      0xffffffffffffffffffffffffffffffffffffffff\n      and\n      dup2\n      mstore\n      0x20\n      add\n      swap1\n      dup2\n      mstore\n      0x20\n      add\n      0x00\n      keccak256\n      sload\n        /* \"Dropsite.sol\":656:687  return dropsite_NFT_Owner[addr] */\n      swap1\n      pop\n        /* \"Dropsite.sol\":585:694  function returnOwner(address addr) public view returns (uint){... */\n      swap2\n      swap1\n      pop\n      jump\t// out\n        /* \"Context.sol\":640:736  function _msgSender() internal view virtual returns (address) {... */\n    tag_74:\n        /* \"Context.sol\":693:700  address */\n      0x00\n        /* \"Context.sol\":719:729  msg.sender */\n      caller\n        /* \"Context.sol\":712:729  return msg.sender */\n      swap1\n      pop\n        /* \"Context.sol\":640:736  function _msgSender() internal view virtual returns (address) {... */\n      swap1\n      jump\t// out\n        /* \"Dropsite.sol\":2609:3716  function updateConditions() internal contractIsNotPaused returns(uint) {... */\n    tag_110:\n        /* \"Dropsite.sol\":2674:2678  uint */\n      0x00\n        /* \"Dropsite.sol\":984:989  false */\n      dup1\n        /* \"Dropsite.sol\":972:989  IsPaused == false */\n      iszero\n      iszero\n        /* \"Dropsite.sol\":972:980  IsPaused */\n      0x0b\n      0x00\n      swap1\n      sload\n      swap1\n      0x0100\n      exp\n      swap1\n      div\n      0xff\n      and\n        /* \"Dropsite.sol\":972:989  IsPaused == false */\n      iszero\n      iszero\n      eq\n        /* \"Dropsite.sol\":963:1022  require (IsPaused == false, \"Dropsite is not Opened Yet.\" ) */\n      tag_174\n      jumpi\n      mload(0x40)\n      0x08c379a000000000000000000000000000000000000000000000000000000000\n      dup2\n      mstore\n      0x04\n      add\n      tag_175\n      swap1\n      tag_104\n      jump\t// in\n    tag_175:\n      mload(0x40)\n      dup1\n      swap2\n      sub\n      swap1\n      revert\n    tag_174:\n        /* \"Dropsite.sol\":2689:2699  uint index */\n      0x00\n        /* \"Dropsite.sol\":2702:2710  random() */\n      tag_177\n        /* \"Dropsite.sol\":2702:2708  random */\n      tag_178\n        /* \"Dropsite.sol\":2702:2710  random() */\n      jump\t// in\n    tag_177:\n        /* \"Dropsite.sol\":2689:2710  uint index = random() */\n      swap1\n      pop\n        /* \"Dropsite.sol\":2720:2730  uint nftId */\n      0x00\n        /* \"Dropsite.sol\":2733:2737  nums */\n      0x03\n        /* \"Dropsite.sol\":2738:2743  index */\n      dup3\n        /* \"Dropsite.sol\":2733:2744  nums[index] */\n      0x14\n      dup2\n      lt\n      tag_179\n      jumpi\n      tag_180\n      tag_181\n      jump\t// in\n    tag_180:\n    tag_179:\n      0x20\n      swap2\n      dup3\n      dup3\n      div\n      add\n      swap2\n      swap1\n      mod\n      swap1\n      sload\n      swap1\n      0x0100\n      exp\n      swap1\n      div\n      0xff\n      and\n        /* \"Dropsite.sol\":2720:2744  uint nftId = nums[index] */\n      0xff\n      and\n      swap1\n      pop\n        /* \"Dropsite.sol\":2834:2835  0 */\n      0x00\n        /* \"Dropsite.sol\":2825:2830  nftId */\n      dup2\n        /* \"Dropsite.sol\":2825:2835  nftId == 0 */\n      eq\n        /* \"Dropsite.sol\":2825:2851  nftId == 0 && Diamond < 50 */\n      dup1\n      iszero\n      tag_183\n      jumpi\n      pop\n        /* \"Dropsite.sol\":2849:2851  50 */\n      0x32\n        /* \"Dropsite.sol\":2839:2846  Diamond */\n      sload(0x06)\n        /* \"Dropsite.sol\":2839:2851  Diamond < 50 */\n      lt\n        /* \"Dropsite.sol\":2825:2851  nftId == 0 && Diamond < 50 */\n    tag_183:\n        /* \"Dropsite.sol\":2822:3711  if(nftId == 0 && Diamond < 50) {... */\n      iszero\n      tag_184\n      jumpi\n        /* \"Dropsite.sol\":2867:2883  data = \"Diamond\" */\n      mload(0x40)\n      dup1\n      0x40\n      add\n      0x40\n      mstore\n      dup1\n      0x07\n      dup2\n      mstore\n      0x20\n      add\n      0x4469616d6f6e6400000000000000000000000000000000000000000000000000\n      dup2\n      mstore\n      pop\n        /* \"Dropsite.sol\":2867:2871  data */\n      0x02\n        /* \"Dropsite.sol\":2867:2883  data = \"Diamond\" */\n      swap1\n      dup1\n      mload\n      swap1\n      0x20\n      add\n      swap1\n      tag_185\n      swap3\n      swap2\n      swap1\n      tag_186\n      jump\t// in\n    tag_185:\n      pop\n        /* \"Dropsite.sol\":2897:2904  Diamond */\n      0x06\n      0x00\n        /* \"Dropsite.sol\":2897:2906  Diamond++ */\n      dup2\n      sload\n      dup1\n      swap3\n      swap2\n      swap1\n      tag_187\n      swap1\n      tag_120\n      jump\t// in\n    tag_187:\n      swap2\n      swap1\n      pop\n      sstore\n      pop\n        /* \"Dropsite.sol\":2928:2933  nftId */\n      dup1\n        /* \"Dropsite.sol\":2921:2933  return nftId */\n      swap3\n      pop\n      pop\n      pop\n      jump(tag_176)\n        /* \"Dropsite.sol\":2822:3711  if(nftId == 0 && Diamond < 50) {... */\n    tag_184:\n        /* \"Dropsite.sol\":3040:3041  1 */\n      0x01\n        /* \"Dropsite.sol\":3031:3036  nftId */\n      dup2\n        /* \"Dropsite.sol\":3031:3041  nftId <= 1 */\n      gt\n      iszero\n        /* \"Dropsite.sol\":3031:3055  nftId <= 1 && Gold < 100 */\n      dup1\n      iszero\n      tag_189\n      jumpi\n      pop\n        /* \"Dropsite.sol\":3052:3055  100 */\n      0x64\n        /* \"Dropsite.sol\":3045:3049  Gold */\n      sload(0x07)\n        /* \"Dropsite.sol\":3045:3055  Gold < 100 */\n      lt\n        /* \"Dropsite.sol\":3031:3055  nftId <= 1 && Gold < 100 */\n    tag_189:\n        /* \"Dropsite.sol\":3028:3711  if(nftId <= 1 && Gold < 100) {... */\n      iszero\n      tag_190\n      jumpi\n        /* \"Dropsite.sol\":3084:3097  data = \"Gold\" */\n      mload(0x40)\n      dup1\n      0x40\n      add\n      0x40\n      mstore\n      dup1\n      0x04\n      dup2\n      mstore\n      0x20\n      add\n      0x476f6c6400000000000000000000000000000000000000000000000000000000\n      dup2\n      mstore\n      pop\n        /* \"Dropsite.sol\":3084:3088  data */\n      0x02\n        /* \"Dropsite.sol\":3084:3097  data = \"Gold\" */\n      swap1\n      dup1\n      mload\n      swap1\n      0x20\n      add\n      swap1\n      tag_191\n      swap3\n      swap2\n      swap1\n      tag_186\n      jump\t// in\n    tag_191:\n      pop\n        /* \"Dropsite.sol\":3111:3115  Gold */\n      0x07\n      0x00\n        /* \"Dropsite.sol\":3111:3117  Gold++ */\n      dup2\n      sload\n      dup1\n      swap3\n      swap2\n      swap1\n      tag_192\n      swap1\n      tag_120\n      jump\t// in\n    tag_192:\n      swap2\n      swap1\n      pop\n      sstore\n      pop\n        /* \"Dropsite.sol\":3138:3143  nftId */\n      dup1\n        /* \"Dropsite.sol\":3131:3143  return nftId */\n      swap3\n      pop\n      pop\n      pop\n      jump(tag_176)\n        /* \"Dropsite.sol\":3028:3711  if(nftId <= 1 && Gold < 100) {... */\n    tag_190:\n        /* \"Dropsite.sol\":3273:3274  2 */\n      0x02\n        /* \"Dropsite.sol\":3264:3269  nftId */\n      dup2\n        /* \"Dropsite.sol\":3264:3274  nftId <= 2 */\n      gt\n      iszero\n        /* \"Dropsite.sol\":3264:3291  nftId <= 2 && Silver <= 850 */\n      dup1\n      iszero\n      tag_194\n      jumpi\n      pop\n        /* \"Dropsite.sol\":3288:3291  850 */\n      0x0352\n        /* \"Dropsite.sol\":3278:3284  Silver */\n      sload(0x08)\n        /* \"Dropsite.sol\":3278:3291  Silver <= 850 */\n      gt\n      iszero\n        /* \"Dropsite.sol\":3264:3291  nftId <= 2 && Silver <= 850 */\n    tag_194:\n        /* \"Dropsite.sol\":3261:3711  if(nftId <= 2 && Silver <= 850) {... */\n      iszero\n      tag_195\n      jumpi\n        /* \"Dropsite.sol\":3320:3333  data=\"Silver\" */\n      mload(0x40)\n      dup1\n      0x40\n      add\n      0x40\n      mstore\n      dup1\n      0x06\n      dup2\n      mstore\n      0x20\n      add\n      0x53696c7665720000000000000000000000000000000000000000000000000000\n      dup2\n      mstore\n      pop\n        /* \"Dropsite.sol\":3320:3324  data */\n      0x02\n        /* \"Dropsite.sol\":3320:3333  data=\"Silver\" */\n      swap1\n      dup1\n      mload\n      swap1\n      0x20\n      add\n      swap1\n      tag_196\n      swap3\n      swap2\n      swap1\n      tag_186\n      jump\t// in\n    tag_196:\n      pop\n        /* \"Dropsite.sol\":3347:3353  Silver */\n      0x08\n      0x00\n        /* \"Dropsite.sol\":3347:3355  Silver++ */\n      dup2\n      sload\n      dup1\n      swap3\n      swap2\n      swap1\n      tag_197\n      swap1\n      tag_120\n      jump\t// in\n    tag_197:\n      swap2\n      swap1\n      pop\n      sstore\n      pop\n        /* \"Dropsite.sol\":3376:3381  nftId */\n      dup1\n        /* \"Dropsite.sol\":3369:3381  return nftId */\n      swap3\n      pop\n      pop\n      pop\n      jump(tag_176)\n        /* \"Dropsite.sol\":3261:3711  if(nftId <= 2 && Silver <= 850) {... */\n    tag_195:\n        /* \"Dropsite.sol\":3430:3433  100 */\n      0x64\n        /* \"Dropsite.sol\":3423:3427  Gold */\n      sload(0x07)\n        /* \"Dropsite.sol\":3423:3433  Gold < 100 */\n      lt\n        /* \"Dropsite.sol\":3420:3702  if(Gold < 100) {... */\n      iszero\n      tag_199\n      jumpi\n        /* \"Dropsite.sol\":3461:3462  1 */\n      0x01\n        /* \"Dropsite.sol\":3453:3462  nftId = 1 */\n      swap1\n      pop\n        /* \"Dropsite.sol\":3480:3493  data = \"Gold\" */\n      mload(0x40)\n      dup1\n      0x40\n      add\n      0x40\n      mstore\n      dup1\n      0x04\n      dup2\n      mstore\n      0x20\n      add\n      0x476f6c6400000000000000000000000000000000000000000000000000000000\n      dup2\n      mstore\n      pop\n        /* \"Dropsite.sol\":3480:3484  data */\n      0x02\n        /* \"Dropsite.sol\":3480:3493  data = \"Gold\" */\n      swap1\n      dup1\n      mload\n      swap1\n      0x20\n      add\n      swap1\n      tag_200\n      swap3\n      swap2\n      swap1\n      tag_186\n      jump\t// in\n    tag_200:\n      pop\n        /* \"Dropsite.sol\":3511:3515  Gold */\n      0x07\n      0x00\n        /* \"Dropsite.sol\":3511:3517  Gold++ */\n      dup2\n      sload\n      dup1\n      swap3\n      swap2\n      swap1\n      tag_201\n      swap1\n      tag_120\n      jump\t// in\n    tag_201:\n      swap2\n      swap1\n      pop\n      sstore\n      pop\n        /* \"Dropsite.sol\":3543:3548  nftId */\n      dup1\n        /* \"Dropsite.sol\":3536:3548  return nftId */\n      swap3\n      pop\n      pop\n      pop\n      jump(tag_176)\n        /* \"Dropsite.sol\":3420:3702  if(Gold < 100) {... */\n    tag_199:\n        /* \"Dropsite.sol\":3595:3596  0 */\n      0x00\n        /* \"Dropsite.sol\":3587:3596  nftId = 0 */\n      swap1\n      pop\n        /* \"Dropsite.sol\":3614:3630  data = \"Diamond\" */\n      mload(0x40)\n      dup1\n      0x40\n      add\n      0x40\n      mstore\n      dup1\n      0x07\n      dup2\n      mstore\n      0x20\n      add\n      0x4469616d6f6e6400000000000000000000000000000000000000000000000000\n      dup2\n      mstore\n      pop\n        /* \"Dropsite.sol\":3614:3618  data */\n      0x02\n        /* \"Dropsite.sol\":3614:3630  data = \"Diamond\" */\n      swap1\n      dup1\n      mload\n      swap1\n      0x20\n      add\n      swap1\n      tag_203\n      swap3\n      swap2\n      swap1\n      tag_186\n      jump\t// in\n    tag_203:\n      pop\n        /* \"Dropsite.sol\":3648:3655  Diamond */\n      0x06\n      0x00\n        /* \"Dropsite.sol\":3648:3657  Diamond++ */\n      dup2\n      sload\n      dup1\n      swap3\n      swap2\n      swap1\n      tag_204\n      swap1\n      tag_120\n      jump\t// in\n    tag_204:\n      swap2\n      swap1\n      pop\n      sstore\n      pop\n        /* \"Dropsite.sol\":3682:3687  nftId */\n      dup1\n        /* \"Dropsite.sol\":3675:3687  return nftId */\n      swap3\n      pop\n      pop\n      pop\n        /* \"Dropsite.sol\":1032:1033  _ */\n    tag_176:\n        /* \"Dropsite.sol\":2609:3716  function updateConditions() internal contractIsNotPaused returns(uint) {... */\n      swap1\n      jump\t// out\n        /* \"ERC1155_Dropsite.sol\":835:1386  function _mint(... */\n    tag_118:\n        /* \"ERC1155_Dropsite.sol\":996:997  0 */\n      0x00\n        /* \"ERC1155_Dropsite.sol\":982:998  to != address(0) */\n      0xffffffffffffffffffffffffffffffffffffffff\n      and\n        /* \"ERC1155_Dropsite.sol\":982:984  to */\n      dup5\n        /* \"ERC1155_Dropsite.sol\":982:998  to != address(0) */\n      0xffffffffffffffffffffffffffffffffffffffff\n      and\n      eq\n      iszero\n        /* \"ERC1155_Dropsite.sol\":974:1036  require(to != address(0), \"ERC1155: mint to the zero address\") */\n      tag_206\n      jumpi\n      mload(0x40)\n      0x08c379a000000000000000000000000000000000000000000000000000000000\n      dup2\n      mstore\n      0x04\n      add\n      tag_207\n      swap1\n      tag_208\n      jump\t// in\n    tag_207:\n      mload(0x40)\n      dup1\n      swap2\n      sub\n      swap1\n      revert\n    tag_206:\n        /* \"ERC1155_Dropsite.sol\":1047:1063  address operator */\n      0x00\n        /* \"ERC1155_Dropsite.sol\":1066:1078  _msgSender() */\n      tag_209\n        /* \"ERC1155_Dropsite.sol\":1066:1076  _msgSender */\n      tag_74\n        /* \"ERC1155_Dropsite.sol\":1066:1078  _msgSender() */\n      jump\t// in\n    tag_209:\n        /* \"ERC1155_Dropsite.sol\":1047:1078  address operator = _msgSender() */\n      swap1\n      pop\n        /* \"ERC1155_Dropsite.sol\":1089:1191  _beforeTokenTransfer(operator, address(0), to, _asSingletonArray(id), _asSingletonArray(amount), data) */\n      tag_210\n        /* \"ERC1155_Dropsite.sol\":1110:1118  operator */\n      dup2\n        /* \"ERC1155_Dropsite.sol\":1128:1129  0 */\n      0x00\n        /* \"ERC1155_Dropsite.sol\":1132:1134  to */\n      dup8\n        /* \"ERC1155_Dropsite.sol\":1136:1157  _asSingletonArray(id) */\n      tag_211\n        /* \"ERC1155_Dropsite.sol\":1154:1156  id */\n      dup9\n        /* \"ERC1155_Dropsite.sol\":1136:1153  _asSingletonArray */\n      tag_212\n        /* \"ERC1155_Dropsite.sol\":1136:1157  _asSingletonArray(id) */\n      jump\t// in\n    tag_211:\n        /* \"ERC1155_Dropsite.sol\":1159:1184  _asSingletonArray(amount) */\n      tag_213\n        /* \"ERC1155_Dropsite.sol\":1177:1183  amount */\n      dup9\n        /* \"ERC1155_Dropsite.sol\":1159:1176  _asSingletonArray */\n      tag_212\n        /* \"ERC1155_Dropsite.sol\":1159:1184  _asSingletonArray(amount) */\n      jump\t// in\n    tag_213:\n        /* \"ERC1155_Dropsite.sol\":1186:1190  data */\n      dup8\n        /* \"ERC1155_Dropsite.sol\":1089:1109  _beforeTokenTransfer */\n      tag_214\n        /* \"ERC1155_Dropsite.sol\":1089:1191  _beforeTokenTransfer(operator, address(0), to, _asSingletonArray(id), _asSingletonArray(amount), data) */\n      jump\t// in\n    tag_210:\n        /* \"ERC1155_Dropsite.sol\":1222:1228  amount */\n      dup3\n        /* \"ERC1155_Dropsite.sol\":1201:1210  _balances */\n      0x00\n        /* \"ERC1155_Dropsite.sol\":1201:1214  _balances[id] */\n      dup1\n        /* \"ERC1155_Dropsite.sol\":1211:1213  id */\n      dup7\n        /* \"ERC1155_Dropsite.sol\":1201:1214  _balances[id] */\n      dup2\n      mstore\n      0x20\n      add\n      swap1\n      dup2\n      mstore\n      0x20\n      add\n      0x00\n      keccak256\n        /* \"ERC1155_Dropsite.sol\":1201:1218  _balances[id][to] */\n      0x00\n        /* \"ERC1155_Dropsite.sol\":1215:1217  to */\n      dup8\n        /* \"ERC1155_Dropsite.sol\":1201:1218  _balances[id][to] */\n      0xffffffffffffffffffffffffffffffffffffffff\n      and\n      0xffffffffffffffffffffffffffffffffffffffff\n      and\n      dup2\n      mstore\n      0x20\n      add\n      swap1\n      dup2\n      mstore\n      0x20\n      add\n      0x00\n      keccak256\n      0x00\n        /* \"ERC1155_Dropsite.sol\":1201:1228  _balances[id][to] += amount */\n      dup3\n      dup3\n      sload\n      tag_215\n      swap2\n      swap1\n      tag_216\n      jump\t// in\n    tag_215:\n      swap3\n      pop\n      pop\n      dup2\n      swap1\n      sstore\n      pop\n        /* \"ERC1155_Dropsite.sol\":1280:1282  to */\n      dup5\n        /* \"ERC1155_Dropsite.sol\":1243:1295  TransferSingle(operator, address(0), to, id, amount) */\n      0xffffffffffffffffffffffffffffffffffffffff\n      and\n        /* \"ERC1155_Dropsite.sol\":1276:1277  0 */\n      0x00\n        /* \"ERC1155_Dropsite.sol\":1243:1295  TransferSingle(operator, address(0), to, id, amount) */\n      0xffffffffffffffffffffffffffffffffffffffff\n      and\n        /* \"ERC1155_Dropsite.sol\":1258:1266  operator */\n      dup3\n        /* \"ERC1155_Dropsite.sol\":1243:1295  TransferSingle(operator, address(0), to, id, amount) */\n      0xffffffffffffffffffffffffffffffffffffffff\n      and\n      0xc3d58168c5ae7397731d063d5bbf3d657854427343f4c083240f7aacaa2d0f62\n        /* \"ERC1155_Dropsite.sol\":1284:1286  id */\n      dup8\n        /* \"ERC1155_Dropsite.sol\":1288:1294  amount */\n      dup8\n        /* \"ERC1155_Dropsite.sol\":1243:1295  TransferSingle(operator, address(0), to, id, amount) */\n      mload(0x40)\n      tag_217\n      swap3\n      swap2\n      swap1\n      tag_218\n      jump\t// in\n    tag_217:\n      mload(0x40)\n      dup1\n      swap2\n      sub\n      swap1\n      log4\n        /* \"ERC1155_Dropsite.sol\":1305:1379  _doSafeTransferAcceptanceCheck(operator, address(0), to, id, amount, data) */\n      tag_219\n        /* \"ERC1155_Dropsite.sol\":1336:1344  operator */\n      dup2\n        /* \"ERC1155_Dropsite.sol\":1354:1355  0 */\n      0x00\n        /* \"ERC1155_Dropsite.sol\":1358:1360  to */\n      dup8\n        /* \"ERC1155_Dropsite.sol\":1362:1364  id */\n      dup8\n        /* \"ERC1155_Dropsite.sol\":1366:1372  amount */\n      dup8\n        /* \"ERC1155_Dropsite.sol\":1374:1378  data */\n      dup8\n        /* \"ERC1155_Dropsite.sol\":1305:1335  _doSafeTransferAcceptanceCheck */\n      tag_220\n        /* \"ERC1155_Dropsite.sol\":1305:1379  _doSafeTransferAcceptanceCheck(operator, address(0), to, id, amount, data) */\n      jump\t// in\n    tag_219:\n        /* \"ERC1155_Dropsite.sol\":964:1386  {... */\n      pop\n        /* \"ERC1155_Dropsite.sol\":835:1386  function _mint(... */\n      pop\n      pop\n      pop\n      pop\n      jump\t// out\n        /* \"Dropsite.sol\":4192:4311  function depositAmount(address payee,uint amountToDeposit) internal {... */\n    tag_149:\n        /* \"Dropsite.sol\":4289:4304  amountToDeposit */\n      dup1\n        /* \"Dropsite.sol\":4270:4278  deposits */\n      0x0a\n        /* \"Dropsite.sol\":4270:4285  deposits[payee] */\n      0x00\n        /* \"Dropsite.sol\":4279:4284  payee */\n      dup5\n        /* \"Dropsite.sol\":4270:4285  deposits[payee] */\n      0xffffffffffffffffffffffffffffffffffffffff\n      and\n      0xffffffffffffffffffffffffffffffffffffffff\n      and\n      dup2\n      mstore\n      0x20\n      add\n      swap1\n      dup2\n      mstore\n      0x20\n      add\n      0x00\n      keccak256\n      0x00\n        /* \"Dropsite.sol\":4270:4304  deposits[payee] += amountToDeposit */\n      dup3\n      dup3\n      sload\n      tag_222\n      swap2\n      swap1\n      tag_216\n      jump\t// in\n    tag_222:\n      swap3\n      pop\n      pop\n      dup2\n      swap1\n      sstore\n      pop\n        /* \"Dropsite.sol\":4192:4311  function depositAmount(address payee,uint amountToDeposit) internal {... */\n      pop\n      pop\n      jump\t// out\n        /* \"Dropsite.sol\":2408:2604  function random() internal view returns (uint) {... */\n    tag_178:\n        /* \"Dropsite.sol\":2449:2453  uint */\n      0x00\n        /* \"Dropsite.sol\":2485:2502  uint randomnumber */\n      dup1\n        /* \"Dropsite.sol\":2570:2572  20 */\n      0x14\n        /* \"Dropsite.sol\":2537:2552  block.timestamp */\n      timestamp\n        /* \"Dropsite.sol\":2554:2564  msg.sender */\n      caller\n        /* \"Dropsite.sol\":2520:2565  abi.encodePacked(block.timestamp, msg.sender) */\n      add(0x20, mload(0x40))\n      tag_224\n      swap3\n      swap2\n      swap1\n      tag_225\n      jump\t// in\n    tag_224:\n      mload(0x40)\n      0x20\n      dup2\n      dup4\n      sub\n      sub\n      dup2\n      mstore\n      swap1\n      0x40\n      mstore\n        /* \"Dropsite.sol\":2510:2566  keccak256(abi.encodePacked(block.timestamp, msg.sender)) */\n      dup1\n      mload\n      swap1\n      0x20\n      add\n      keccak256\n        /* \"Dropsite.sol\":2505:2567  uint(keccak256(abi.encodePacked(block.timestamp, msg.sender))) */\n      0x00\n      shr\n        /* \"Dropsite.sol\":2505:2572  uint(keccak256(abi.encodePacked(block.timestamp, msg.sender))) % 20 */\n      tag_226\n      swap2\n      swap1\n      tag_227\n      jump\t// in\n    tag_226:\n        /* \"Dropsite.sol\":2485:2572  uint randomnumber = uint(keccak256(abi.encodePacked(block.timestamp, msg.sender))) % 20 */\n      swap1\n      pop\n        /* \"Dropsite.sol\":2585:2597  randomnumber */\n      dup1\n        /* \"Dropsite.sol\":2578:2597  return randomnumber */\n      swap2\n      pop\n      pop\n        /* \"Dropsite.sol\":2408:2604  function random() internal view returns (uint) {... */\n      swap1\n      jump\t// out\n        /* \"ERC1155_Dropsite.sol\":2344:2537  function _asSingletonArray(uint256 element) private pure returns (uint256[] memory) {... */\n    tag_212:\n        /* \"ERC1155_Dropsite.sol\":2410:2426  uint256[] memory */\n      0x60\n        /* \"ERC1155_Dropsite.sol\":2438:2460  uint256[] memory array */\n      0x00\n        /* \"ERC1155_Dropsite.sol\":2477:2478  1 */\n      0x01\n        /* \"ERC1155_Dropsite.sol\":2463:2479  new uint256[](1) */\n      0xffffffffffffffff\n      dup2\n      gt\n      iszero\n      tag_229\n      jumpi\n      tag_230\n      tag_231\n      jump\t// in\n    tag_230:\n    tag_229:\n      mload(0x40)\n      swap1\n      dup1\n      dup3\n      mstore\n      dup1\n      0x20\n      mul\n      0x20\n      add\n      dup3\n      add\n      0x40\n      mstore\n      dup1\n      iszero\n      tag_232\n      jumpi\n      dup2\n      0x20\n      add\n      0x20\n      dup3\n      mul\n      dup1\n      calldatasize\n      dup4\n      calldatacopy\n      dup1\n      dup3\n      add\n      swap2\n      pop\n      pop\n      swap1\n      pop\n    tag_232:\n      pop\n        /* \"ERC1155_Dropsite.sol\":2438:2479  uint256[] memory array = new uint256[](1) */\n      swap1\n      pop\n        /* \"ERC1155_Dropsite.sol\":2500:2507  element */\n      dup3\n        /* \"ERC1155_Dropsite.sol\":2489:2494  array */\n      dup2\n        /* \"ERC1155_Dropsite.sol\":2495:2496  0 */\n      0x00\n        /* \"ERC1155_Dropsite.sol\":2489:2497  array[0] */\n      dup2\n      mload\n      dup2\n      lt\n      tag_233\n      jumpi\n      tag_234\n      tag_181\n      jump\t// in\n    tag_234:\n    tag_233:\n      0x20\n      mul\n      0x20\n      add\n      add\n        /* \"ERC1155_Dropsite.sol\":2489:2507  array[0] = element */\n      dup2\n      dup2\n      mstore\n      pop\n      pop\n        /* \"ERC1155_Dropsite.sol\":2525:2530  array */\n      dup1\n        /* \"ERC1155_Dropsite.sol\":2518:2530  return array */\n      swap2\n      pop\n      pop\n        /* \"ERC1155_Dropsite.sol\":2344:2537  function _asSingletonArray(uint256 element) private pure returns (uint256[] memory) {... */\n      swap2\n      swap1\n      pop\n      jump\t// out\n        /* \"ERC1155_Dropsite.sol\":1393:1607  function _beforeTokenTransfer(... */\n    tag_214:\n      pop\n      pop\n      pop\n      pop\n      pop\n      pop\n      jump\t// out\n        /* \"ERC1155_Dropsite.sol\":1613:2338  function _doSafeTransferAcceptanceCheck(... */\n    tag_220:\n        /* \"ERC1155_Dropsite.sol\":1820:1835  to.isContract() */\n      tag_237\n        /* \"ERC1155_Dropsite.sol\":1820:1822  to */\n      dup5\n        /* \"ERC1155_Dropsite.sol\":1820:1833  to.isContract */\n      0xffffffffffffffffffffffffffffffffffffffff\n      and\n      tag_238\n        /* \"ERC1155_Dropsite.sol\":1820:1835  to.isContract() */\n      jump\t// in\n    tag_237:\n        /* \"ERC1155_Dropsite.sol\":1816:2332  if (to.isContract()) {... */\n      iszero\n      tag_239\n      jumpi\n        /* \"ERC1155_Dropsite.sol\":1872:1874  to */\n      dup4\n        /* \"ERC1155_Dropsite.sol\":1855:1893  IERC1155Receiver(to).onERC1155Received */\n      0xffffffffffffffffffffffffffffffffffffffff\n      and\n      0xf23a6e61\n        /* \"ERC1155_Dropsite.sol\":1894:1902  operator */\n      dup8\n        /* \"ERC1155_Dropsite.sol\":1904:1908  from */\n      dup8\n        /* \"ERC1155_Dropsite.sol\":1910:1912  id */\n      dup7\n        /* \"ERC1155_Dropsite.sol\":1914:1920  amount */\n      dup7\n        /* \"ERC1155_Dropsite.sol\":1922:1926  data */\n      dup7\n        /* \"ERC1155_Dropsite.sol\":1855:1927  IERC1155Receiver(to).onERC1155Received(operator, from, id, amount, data) */\n      mload(0x40)\n      dup7\n      0xffffffff\n      and\n      0xe0\n      shl\n      dup2\n      mstore\n      0x04\n      add\n      tag_240\n      swap6\n      swap5\n      swap4\n      swap3\n      swap2\n      swap1\n      tag_241\n      jump\t// in\n    tag_240:\n      0x20\n      mload(0x40)\n      dup1\n      dup4\n      sub\n      dup2\n      0x00\n      dup8\n      dup1\n      extcodesize\n      iszero\n      dup1\n      iszero\n      tag_242\n      jumpi\n      0x00\n      dup1\n      revert\n    tag_242:\n      pop\n      gas\n      call\n      swap3\n      pop\n      pop\n      pop\n      dup1\n      iszero\n      tag_243\n      jumpi\n      pop\n      mload(0x40)\n      returndatasize\n      not(0x1f)\n      0x1f\n      dup3\n      add\n      and\n      dup3\n      add\n      dup1\n      0x40\n      mstore\n      pop\n      dup2\n      add\n      swap1\n      tag_244\n      swap2\n      swap1\n      tag_245\n      jump\t// in\n    tag_244:\n      0x01\n    tag_243:\n        /* \"ERC1155_Dropsite.sol\":1851:2322  try IERC1155Receiver(to).onERC1155Received(operator, from, id, amount, data) returns (bytes4 response) {... */\n      tag_246\n      jumpi\n      tag_250\n      tag_251\n      jump\t// in\n    tag_250:\n      dup1\n      0x08c379a0\n      eq\n      iszero\n      tag_249\n      jumpi\n      pop\n      tag_252\n      tag_253\n      jump\t// in\n    tag_252:\n      dup1\n      tag_254\n      jumpi\n      pop\n      jump(tag_248)\n    tag_254:\n        /* \"ERC1155_Dropsite.sol\":2198:2204  reason */\n      dup1\n        /* \"ERC1155_Dropsite.sol\":2191:2205  revert(reason) */\n      mload(0x40)\n      0x08c379a000000000000000000000000000000000000000000000000000000000\n      dup2\n      mstore\n      0x04\n      add\n      tag_255\n      swap2\n      swap1\n      tag_256\n      jump\t// in\n    tag_255:\n      mload(0x40)\n      dup1\n      swap2\n      sub\n      swap1\n      revert\n        /* \"ERC1155_Dropsite.sol\":1851:2322  try IERC1155Receiver(to).onERC1155Received(operator, from, id, amount, data) returns (bytes4 response) {... */\n    tag_249:\n      pop\n    tag_248:\n        /* \"ERC1155_Dropsite.sol\":2245:2307  revert(\"ERC1155: transfer to non ERC1155Receiver implementer\") */\n      mload(0x40)\n      0x08c379a000000000000000000000000000000000000000000000000000000000\n      dup2\n      mstore\n      0x04\n      add\n      tag_257\n      swap1\n      tag_258\n      jump\t// in\n    tag_257:\n      mload(0x40)\n      dup1\n      swap2\n      sub\n      swap1\n      revert\n        /* \"ERC1155_Dropsite.sol\":1851:2322  try IERC1155Receiver(to).onERC1155Received(operator, from, id, amount, data) returns (bytes4 response) {... */\n    tag_246:\n        /* \"ERC1155_Dropsite.sol\":1988:2031  IERC1155Receiver.onERC1155Received.selector */\n      shl(0xe0, 0xf23a6e61)\n        /* \"ERC1155_Dropsite.sol\":1976:2031  response != IERC1155Receiver.onERC1155Received.selector */\n      not(0xffffffffffffffffffffffffffffffffffffffffffffffffffffffff)\n      and\n        /* \"ERC1155_Dropsite.sol\":1976:1984  response */\n      dup2\n        /* \"ERC1155_Dropsite.sol\":1976:2031  response != IERC1155Receiver.onERC1155Received.selector */\n      not(0xffffffffffffffffffffffffffffffffffffffffffffffffffffffff)\n      and\n      eq\n        /* \"ERC1155_Dropsite.sol\":1972:2124  if (response != IERC1155Receiver.onERC1155Received.selector) {... */\n      tag_260\n      jumpi\n        /* \"ERC1155_Dropsite.sol\":2055:2105  revert(\"ERC1155: ERC1155Receiver rejected tokens\") */\n      mload(0x40)\n      0x08c379a000000000000000000000000000000000000000000000000000000000\n      dup2\n      mstore\n      0x04\n      add\n      tag_261\n      swap1\n      tag_262\n      jump\t// in\n    tag_261:\n      mload(0x40)\n      dup1\n      swap2\n      sub\n      swap1\n      revert\n        /* \"ERC1155_Dropsite.sol\":1972:2124  if (response != IERC1155Receiver.onERC1155Received.selector) {... */\n    tag_260:\n        /* \"ERC1155_Dropsite.sol\":1928:2138  returns (bytes4 response) {... */\n      pop\n        /* \"ERC1155_Dropsite.sol\":1816:2332  if (to.isContract()) {... */\n    tag_239:\n        /* \"ERC1155_Dropsite.sol\":1613:2338  function _doSafeTransferAcceptanceCheck(... */\n      pop\n      pop\n      pop\n      pop\n      pop\n      pop\n      jump\t// out\n        /* \"Address.sol\":771:1148  function isContract(address account) internal view returns (bool) {... */\n    tag_238:\n        /* \"Address.sol\":831:835  bool */\n      0x00\n        /* \"Address.sol\":1034:1046  uint256 size */\n      dup1\n        /* \"Address.sol\":1099:1106  account */\n      dup3\n        /* \"Address.sol\":1087:1107  extcodesize(account) */\n      extcodesize\n        /* \"Address.sol\":1079:1107  size := extcodesize(account) */\n      swap1\n      pop\n        /* \"Address.sol\":1140:1141  0 */\n      0x00\n        /* \"Address.sol\":1133:1137  size */\n      dup2\n        /* \"Address.sol\":1133:1141  size > 0 */\n      gt\n        /* \"Address.sol\":1126:1141  return size > 0 */\n      swap2\n      pop\n      pop\n        /* \"Address.sol\":771:1148  function isContract(address account) internal view returns (bool) {... */\n      swap2\n      swap1\n      pop\n      jump\t// out\n    tag_186:\n      dup3\n      dup1\n      sload\n      tag_264\n      swap1\n      tag_113\n      jump\t// in\n    tag_264:\n      swap1\n      0x00\n      mstore\n      keccak256(0x00, 0x20)\n      swap1\n      0x1f\n      add\n      0x20\n      swap1\n      div\n      dup2\n      add\n      swap3\n      dup3\n      tag_266\n      jumpi\n      0x00\n      dup6\n      sstore\n      jump(tag_265)\n    tag_266:\n      dup3\n      0x1f\n      lt\n      tag_267\n      jumpi\n      dup1\n      mload\n      not(0xff)\n      and\n      dup4\n      dup1\n      add\n      or\n      dup6\n      sstore\n      jump(tag_265)\n    tag_267:\n      dup3\n      dup1\n      add\n      0x01\n      add\n      dup6\n      sstore\n      dup3\n      iszero\n      tag_265\n      jumpi\n      swap2\n      dup3\n      add\n    tag_268:\n      dup3\n      dup2\n      gt\n      iszero\n      tag_269\n      jumpi\n      dup3\n      mload\n      dup3\n      sstore\n      swap2\n      0x20\n      add\n      swap2\n      swap1\n      0x01\n      add\n      swap1\n      jump(tag_268)\n    tag_269:\n    tag_265:\n      pop\n      swap1\n      pop\n      tag_270\n      swap2\n      swap1\n      tag_271\n      jump\t// in\n    tag_270:\n      pop\n      swap1\n      jump\t// out\n    tag_271:\n    tag_272:\n      dup1\n      dup3\n      gt\n      iszero\n      tag_273\n      jumpi\n      0x00\n      dup2\n      0x00\n      swap1\n      sstore\n      pop\n      0x01\n      add\n      jump(tag_272)\n    tag_273:\n      pop\n      swap1\n      jump\t// out\n        /* \"#utility.yul\":7:146   */\n    tag_275:\n        /* \"#utility.yul\":53:58   */\n      0x00\n        /* \"#utility.yul\":91:97   */\n      dup2\n        /* \"#utility.yul\":78:98   */\n      calldataload\n        /* \"#utility.yul\":69:98   */\n      swap1\n      pop\n        /* \"#utility.yul\":107:140   */\n      tag_277\n        /* \"#utility.yul\":134:139   */\n      dup2\n        /* \"#utility.yul\":107:140   */\n      tag_278\n      jump\t// in\n    tag_277:\n        /* \"#utility.yul\":7:146   */\n      swap3\n      swap2\n      pop\n      pop\n      jump\t// out\n        /* \"#utility.yul\":152:307   */\n    tag_279:\n        /* \"#utility.yul\":206:211   */\n      0x00\n        /* \"#utility.yul\":244:250   */\n      dup2\n        /* \"#utility.yul\":231:251   */\n      calldataload\n        /* \"#utility.yul\":222:251   */\n      swap1\n      pop\n        /* \"#utility.yul\":260:301   */\n      tag_281\n        /* \"#utility.yul\":295:300   */\n      dup2\n        /* \"#utility.yul\":260:301   */\n      tag_282\n      jump\t// in\n    tag_281:\n        /* \"#utility.yul\":152:307   */\n      swap3\n      swap2\n      pop\n      pop\n      jump\t// out\n        /* \"#utility.yul\":313:454   */\n    tag_283:\n        /* \"#utility.yul\":369:374   */\n      0x00\n        /* \"#utility.yul\":400:406   */\n      dup2\n        /* \"#utility.yul\":394:407   */\n      mload\n        /* \"#utility.yul\":385:407   */\n      swap1\n      pop\n        /* \"#utility.yul\":416:448   */\n      tag_285\n        /* \"#utility.yul\":442:447   */\n      dup2\n        /* \"#utility.yul\":416:448   */\n      tag_286\n      jump\t// in\n    tag_285:\n        /* \"#utility.yul\":313:454   */\n      swap3\n      swap2\n      pop\n      pop\n      jump\t// out\n        /* \"#utility.yul\":460:599   */\n    tag_287:\n        /* \"#utility.yul\":506:511   */\n      0x00\n        /* \"#utility.yul\":544:550   */\n      dup2\n        /* \"#utility.yul\":531:551   */\n      calldataload\n        /* \"#utility.yul\":522:551   */\n      swap1\n      pop\n        /* \"#utility.yul\":560:593   */\n      tag_289\n        /* \"#utility.yul\":587:592   */\n      dup2\n        /* \"#utility.yul\":560:593   */\n      tag_290\n      jump\t// in\n    tag_289:\n        /* \"#utility.yul\":460:599   */\n      swap3\n      swap2\n      pop\n      pop\n      jump\t// out\n        /* \"#utility.yul\":605:934   */\n    tag_35:\n        /* \"#utility.yul\":664:670   */\n      0x00\n        /* \"#utility.yul\":713:715   */\n      0x20\n        /* \"#utility.yul\":701:710   */\n      dup3\n        /* \"#utility.yul\":692:699   */\n      dup5\n        /* \"#utility.yul\":688:711   */\n      sub\n        /* \"#utility.yul\":684:716   */\n      slt\n        /* \"#utility.yul\":681:800   */\n      iszero\n      tag_292\n      jumpi\n        /* \"#utility.yul\":719:798   */\n      tag_293\n      tag_294\n      jump\t// in\n    tag_293:\n        /* \"#utility.yul\":681:800   */\n    tag_292:\n        /* \"#utility.yul\":839:840   */\n      0x00\n        /* \"#utility.yul\":864:917   */\n      tag_295\n        /* \"#utility.yul\":909:916   */\n      dup5\n        /* \"#utility.yul\":900:906   */\n      dup3\n        /* \"#utility.yul\":889:898   */\n      dup6\n        /* \"#utility.yul\":885:907   */\n      add\n        /* \"#utility.yul\":864:917   */\n      tag_275\n      jump\t// in\n    tag_295:\n        /* \"#utility.yul\":854:917   */\n      swap2\n      pop\n        /* \"#utility.yul\":810:927   */\n      pop\n        /* \"#utility.yul\":605:934   */\n      swap3\n      swap2\n      pop\n      pop\n      jump\t// out\n        /* \"#utility.yul\":940:1285   */\n    tag_22:\n        /* \"#utility.yul\":1007:1013   */\n      0x00\n        /* \"#utility.yul\":1056:1058   */\n      0x20\n        /* \"#utility.yul\":1044:1053   */\n      dup3\n        /* \"#utility.yul\":1035:1042   */\n      dup5\n        /* \"#utility.yul\":1031:1054   */\n      sub\n        /* \"#utility.yul\":1027:1059   */\n      slt\n        /* \"#utility.yul\":1024:1143   */\n      iszero\n      tag_297\n      jumpi\n        /* \"#utility.yul\":1062:1141   */\n      tag_298\n      tag_294\n      jump\t// in\n    tag_298:\n        /* \"#utility.yul\":1024:1143   */\n    tag_297:\n        /* \"#utility.yul\":1182:1183   */\n      0x00\n        /* \"#utility.yul\":1207:1268   */\n      tag_299\n        /* \"#utility.yul\":1260:1267   */\n      dup5\n        /* \"#utility.yul\":1251:1257   */\n      dup3\n        /* \"#utility.yul\":1240:1249   */\n      dup6\n        /* \"#utility.yul\":1236:1258   */\n      add\n        /* \"#utility.yul\":1207:1268   */\n      tag_279\n      jump\t// in\n    tag_299:\n        /* \"#utility.yul\":1197:1268   */\n      swap2\n      pop\n        /* \"#utility.yul\":1153:1278   */\n      pop\n        /* \"#utility.yul\":940:1285   */\n      swap3\n      swap2\n      pop\n      pop\n      jump\t// out\n        /* \"#utility.yul\":1291:1640   */\n    tag_245:\n        /* \"#utility.yul\":1360:1366   */\n      0x00\n        /* \"#utility.yul\":1409:1411   */\n      0x20\n        /* \"#utility.yul\":1397:1406   */\n      dup3\n        /* \"#utility.yul\":1388:1395   */\n      dup5\n        /* \"#utility.yul\":1384:1407   */\n      sub\n        /* \"#utility.yul\":1380:1412   */\n      slt\n        /* \"#utility.yul\":1377:1496   */\n      iszero\n      tag_301\n      jumpi\n        /* \"#utility.yul\":1415:1494   */\n      tag_302\n      tag_294\n      jump\t// in\n    tag_302:\n        /* \"#utility.yul\":1377:1496   */\n    tag_301:\n        /* \"#utility.yul\":1535:1536   */\n      0x00\n        /* \"#utility.yul\":1560:1623   */\n      tag_303\n        /* \"#utility.yul\":1615:1622   */\n      dup5\n        /* \"#utility.yul\":1606:1612   */\n      dup3\n        /* \"#utility.yul\":1595:1604   */\n      dup6\n        /* \"#utility.yul\":1591:1613   */\n      add\n        /* \"#utility.yul\":1560:1623   */\n      tag_283\n      jump\t// in\n    tag_303:\n        /* \"#utility.yul\":1550:1623   */\n      swap2\n      pop\n        /* \"#utility.yul\":1506:1633   */\n      pop\n        /* \"#utility.yul\":1291:1640   */\n      swap3\n      swap2\n      pop\n      pop\n      jump\t// out\n        /* \"#utility.yul\":1646:1975   */\n    tag_63:\n        /* \"#utility.yul\":1705:1711   */\n      0x00\n        /* \"#utility.yul\":1754:1756   */\n      0x20\n        /* \"#utility.yul\":1742:1751   */\n      dup3\n        /* \"#utility.yul\":1733:1740   */\n      dup5\n        /* \"#utility.yul\":1729:1752   */\n      sub\n        /* \"#utility.yul\":1725:1757   */\n      slt\n        /* \"#utility.yul\":1722:1841   */\n      iszero\n      tag_305\n      jumpi\n        /* \"#utility.yul\":1760:1839   */\n      tag_306\n      tag_294\n      jump\t// in\n    tag_306:\n        /* \"#utility.yul\":1722:1841   */\n    tag_305:\n        /* \"#utility.yul\":1880:1881   */\n      0x00\n        /* \"#utility.yul\":1905:1958   */\n      tag_307\n        /* \"#utility.yul\":1950:1957   */\n      dup5\n        /* \"#utility.yul\":1941:1947   */\n      dup3\n        /* \"#utility.yul\":1930:1939   */\n      dup6\n        /* \"#utility.yul\":1926:1948   */\n      add\n        /* \"#utility.yul\":1905:1958   */\n      tag_287\n      jump\t// in\n    tag_307:\n        /* \"#utility.yul\":1895:1958   */\n      swap2\n      pop\n        /* \"#utility.yul\":1851:1968   */\n      pop\n        /* \"#utility.yul\":1646:1975   */\n      swap3\n      swap2\n      pop\n      pop\n      jump\t// out\n        /* \"#utility.yul\":1981:2123   */\n    tag_308:\n        /* \"#utility.yul\":2084:2116   */\n      tag_310\n        /* \"#utility.yul\":2110:2115   */\n      dup2\n        /* \"#utility.yul\":2084:2116   */\n      tag_311\n      jump\t// in\n    tag_310:\n        /* \"#utility.yul\":2079:2082   */\n      dup3\n        /* \"#utility.yul\":2072:2117   */\n      mstore\n        /* \"#utility.yul\":1981:2123   */\n      pop\n      pop\n      jump\t// out\n        /* \"#utility.yul\":2129:2247   */\n    tag_312:\n        /* \"#utility.yul\":2216:2240   */\n      tag_314\n        /* \"#utility.yul\":2234:2239   */\n      dup2\n        /* \"#utility.yul\":2216:2240   */\n      tag_315\n      jump\t// in\n    tag_314:\n        /* \"#utility.yul\":2211:2214   */\n      dup3\n        /* \"#utility.yul\":2204:2241   */\n      mstore\n        /* \"#utility.yul\":2129:2247   */\n      pop\n      pop\n      jump\t// out\n        /* \"#utility.yul\":2253:2410   */\n    tag_316:\n        /* \"#utility.yul\":2358:2403   */\n      tag_318\n        /* \"#utility.yul\":2378:2402   */\n      tag_319\n        /* \"#utility.yul\":2396:2401   */\n      dup3\n        /* \"#utility.yul\":2378:2402   */\n      tag_315\n      jump\t// in\n    tag_319:\n        /* \"#utility.yul\":2358:2403   */\n      tag_320\n      jump\t// in\n    tag_318:\n        /* \"#utility.yul\":2353:2356   */\n      dup3\n        /* \"#utility.yul\":2346:2404   */\n      mstore\n        /* \"#utility.yul\":2253:2410   */\n      pop\n      pop\n      jump\t// out\n        /* \"#utility.yul\":2416:2525   */\n    tag_321:\n        /* \"#utility.yul\":2497:2518   */\n      tag_323\n        /* \"#utility.yul\":2512:2517   */\n      dup2\n        /* \"#utility.yul\":2497:2518   */\n      tag_324\n      jump\t// in\n    tag_323:\n        /* \"#utility.yul\":2492:2495   */\n      dup3\n        /* \"#utility.yul\":2485:2519   */\n      mstore\n        /* \"#utility.yul\":2416:2525   */\n      pop\n      pop\n      jump\t// out\n        /* \"#utility.yul\":2531:2891   */\n    tag_325:\n        /* \"#utility.yul\":2617:2620   */\n      0x00\n        /* \"#utility.yul\":2645:2683   */\n      tag_327\n        /* \"#utility.yul\":2677:2682   */\n      dup3\n        /* \"#utility.yul\":2645:2683   */\n      tag_328\n      jump\t// in\n    tag_327:\n        /* \"#utility.yul\":2699:2769   */\n      tag_329\n        /* \"#utility.yul\":2762:2768   */\n      dup2\n        /* \"#utility.yul\":2757:2760   */\n      dup6\n        /* \"#utility.yul\":2699:2769   */\n      tag_330\n      jump\t// in\n    tag_329:\n        /* \"#utility.yul\":2692:2769   */\n      swap4\n      pop\n        /* \"#utility.yul\":2778:2830   */\n      tag_331\n        /* \"#utility.yul\":2823:2829   */\n      dup2\n        /* \"#utility.yul\":2818:2821   */\n      dup6\n        /* \"#utility.yul\":2811:2815   */\n      0x20\n        /* \"#utility.yul\":2804:2809   */\n      dup7\n        /* \"#utility.yul\":2800:2816   */\n      add\n        /* \"#utility.yul\":2778:2830   */\n      tag_332\n      jump\t// in\n    tag_331:\n        /* \"#utility.yul\":2855:2884   */\n      tag_333\n        /* \"#utility.yul\":2877:2883   */\n      dup2\n        /* \"#utility.yul\":2855:2884   */\n      tag_334\n      jump\t// in\n    tag_333:\n        /* \"#utility.yul\":2850:2853   */\n      dup5\n        /* \"#utility.yul\":2846:2885   */\n      add\n        /* \"#utility.yul\":2839:2885   */\n      swap2\n      pop\n        /* \"#utility.yul\":2621:2891   */\n      pop\n        /* \"#utility.yul\":2531:2891   */\n      swap3\n      swap2\n      pop\n      pop\n      jump\t// out\n        /* \"#utility.yul\":2897:3261   */\n    tag_335:\n        /* \"#utility.yul\":2985:2988   */\n      0x00\n        /* \"#utility.yul\":3013:3052   */\n      tag_337\n        /* \"#utility.yul\":3046:3051   */\n      dup3\n        /* \"#utility.yul\":3013:3052   */\n      tag_338\n      jump\t// in\n    tag_337:\n        /* \"#utility.yul\":3068:3139   */\n      tag_339\n        /* \"#utility.yul\":3132:3138   */\n      dup2\n        /* \"#utility.yul\":3127:3130   */\n      dup6\n        /* \"#utility.yul\":3068:3139   */\n      tag_340\n      jump\t// in\n    tag_339:\n        /* \"#utility.yul\":3061:3139   */\n      swap4\n      pop\n        /* \"#utility.yul\":3148:3200   */\n      tag_341\n        /* \"#utility.yul\":3193:3199   */\n      dup2\n        /* \"#utility.yul\":3188:3191   */\n      dup6\n        /* \"#utility.yul\":3181:3185   */\n      0x20\n        /* \"#utility.yul\":3174:3179   */\n      dup7\n        /* \"#utility.yul\":3170:3186   */\n      add\n        /* \"#utility.yul\":3148:3200   */\n      tag_332\n      jump\t// in\n    tag_341:\n        /* \"#utility.yul\":3225:3254   */\n      tag_342\n        /* \"#utility.yul\":3247:3253   */\n      dup2\n        /* \"#utility.yul\":3225:3254   */\n      tag_334\n      jump\t// in\n    tag_342:\n        /* \"#utility.yul\":3220:3223   */\n      dup5\n        /* \"#utility.yul\":3216:3255   */\n      add\n        /* \"#utility.yul\":3209:3255   */\n      swap2\n      pop\n        /* \"#utility.yul\":2989:3261   */\n      pop\n        /* \"#utility.yul\":2897:3261   */\n      swap3\n      swap2\n      pop\n      pop\n      jump\t// out\n        /* \"#utility.yul\":3267:3633   */\n    tag_343:\n        /* \"#utility.yul\":3409:3412   */\n      0x00\n        /* \"#utility.yul\":3430:3497   */\n      tag_345\n        /* \"#utility.yul\":3494:3496   */\n      0x34\n        /* \"#utility.yul\":3489:3492   */\n      dup4\n        /* \"#utility.yul\":3430:3497   */\n      tag_340\n      jump\t// in\n    tag_345:\n        /* \"#utility.yul\":3423:3497   */\n      swap2\n      pop\n        /* \"#utility.yul\":3506:3599   */\n      tag_346\n        /* \"#utility.yul\":3595:3598   */\n      dup3\n        /* \"#utility.yul\":3506:3599   */\n      tag_347\n      jump\t// in\n    tag_346:\n        /* \"#utility.yul\":3624:3626   */\n      0x40\n        /* \"#utility.yul\":3619:3622   */\n      dup3\n        /* \"#utility.yul\":3615:3627   */\n      add\n        /* \"#utility.yul\":3608:3627   */\n      swap1\n      pop\n        /* \"#utility.yul\":3267:3633   */\n      swap2\n      swap1\n      pop\n      jump\t// out\n        /* \"#utility.yul\":3639:4005   */\n    tag_348:\n        /* \"#utility.yul\":3781:3784   */\n      0x00\n        /* \"#utility.yul\":3802:3869   */\n      tag_350\n        /* \"#utility.yul\":3866:3868   */\n      0x28\n        /* \"#utility.yul\":3861:3864   */\n      dup4\n        /* \"#utility.yul\":3802:3869   */\n      tag_340\n      jump\t// in\n    tag_350:\n        /* \"#utility.yul\":3795:3869   */\n      swap2\n      pop\n        /* \"#utility.yul\":3878:3971   */\n      tag_351\n        /* \"#utility.yul\":3967:3970   */\n      dup3\n        /* \"#utility.yul\":3878:3971   */\n      tag_352\n      jump\t// in\n    tag_351:\n        /* \"#utility.yul\":3996:3998   */\n      0x40\n        /* \"#utility.yul\":3991:3994   */\n      dup3\n        /* \"#utility.yul\":3987:3999   */\n      add\n        /* \"#utility.yul\":3980:3999   */\n      swap1\n      pop\n        /* \"#utility.yul\":3639:4005   */\n      swap2\n      swap1\n      pop\n      jump\t// out\n        /* \"#utility.yul\":4011:4377   */\n    tag_353:\n        /* \"#utility.yul\":4153:4156   */\n      0x00\n        /* \"#utility.yul\":4174:4241   */\n      tag_355\n        /* \"#utility.yul\":4238:4240   */\n      0x19\n        /* \"#utility.yul\":4233:4236   */\n      dup4\n        /* \"#utility.yul\":4174:4241   */\n      tag_340\n      jump\t// in\n    tag_355:\n        /* \"#utility.yul\":4167:4241   */\n      swap2\n      pop\n        /* \"#utility.yul\":4250:4343   */\n      tag_356\n        /* \"#utility.yul\":4339:4342   */\n      dup3\n        /* \"#utility.yul\":4250:4343   */\n      tag_357\n      jump\t// in\n    tag_356:\n        /* \"#utility.yul\":4368:4370   */\n      0x20\n        /* \"#utility.yul\":4363:4366   */\n      dup3\n        /* \"#utility.yul\":4359:4371   */\n      add\n        /* \"#utility.yul\":4352:4371   */\n      swap1\n      pop\n        /* \"#utility.yul\":4011:4377   */\n      swap2\n      swap1\n      pop\n      jump\t// out\n        /* \"#utility.yul\":4383:4749   */\n    tag_358:\n        /* \"#utility.yul\":4525:4528   */\n      0x00\n        /* \"#utility.yul\":4546:4613   */\n      tag_360\n        /* \"#utility.yul\":4610:4612   */\n      0x1b\n        /* \"#utility.yul\":4605:4608   */\n      dup4\n        /* \"#utility.yul\":4546:4613   */\n      tag_340\n      jump\t// in\n    tag_360:\n        /* \"#utility.yul\":4539:4613   */\n      swap2\n      pop\n        /* \"#utility.yul\":4622:4715   */\n      tag_361\n        /* \"#utility.yul\":4711:4714   */\n      dup3\n        /* \"#utility.yul\":4622:4715   */\n      tag_362\n      jump\t// in\n    tag_361:\n        /* \"#utility.yul\":4740:4742   */\n      0x20\n        /* \"#utility.yul\":4735:4738   */\n      dup3\n        /* \"#utility.yul\":4731:4743   */\n      add\n        /* \"#utility.yul\":4724:4743   */\n      swap1\n      pop\n        /* \"#utility.yul\":4383:4749   */\n      swap2\n      swap1\n      pop\n      jump\t// out\n        /* \"#utility.yul\":4755:5121   */\n    tag_363:\n        /* \"#utility.yul\":4897:4900   */\n      0x00\n        /* \"#utility.yul\":4918:4985   */\n      tag_365\n        /* \"#utility.yul\":4982:4984   */\n      0x1b\n        /* \"#utility.yul\":4977:4980   */\n      dup4\n        /* \"#utility.yul\":4918:4985   */\n      tag_340\n      jump\t// in\n    tag_365:\n        /* \"#utility.yul\":4911:4985   */\n      swap2\n      pop\n        /* \"#utility.yul\":4994:5087   */\n      tag_366\n        /* \"#utility.yul\":5083:5086   */\n      dup3\n        /* \"#utility.yul\":4994:5087   */\n      tag_367\n      jump\t// in\n    tag_366:\n        /* \"#utility.yul\":5112:5114   */\n      0x20\n        /* \"#utility.yul\":5107:5110   */\n      dup3\n        /* \"#utility.yul\":5103:5115   */\n      add\n        /* \"#utility.yul\":5096:5115   */\n      swap1\n      pop\n        /* \"#utility.yul\":4755:5121   */\n      swap2\n      swap1\n      pop\n      jump\t// out\n        /* \"#utility.yul\":5127:5493   */\n    tag_368:\n        /* \"#utility.yul\":5269:5272   */\n      0x00\n        /* \"#utility.yul\":5290:5357   */\n      tag_370\n        /* \"#utility.yul\":5354:5356   */\n      0x1c\n        /* \"#utility.yul\":5349:5352   */\n      dup4\n        /* \"#utility.yul\":5290:5357   */\n      tag_340\n      jump\t// in\n    tag_370:\n        /* \"#utility.yul\":5283:5357   */\n      swap2\n      pop\n        /* \"#utility.yul\":5366:5459   */\n      tag_371\n        /* \"#utility.yul\":5455:5458   */\n      dup3\n        /* \"#utility.yul\":5366:5459   */\n      tag_372\n      jump\t// in\n    tag_371:\n        /* \"#utility.yul\":5484:5486   */\n      0x20\n        /* \"#utility.yul\":5479:5482   */\n      dup3\n        /* \"#utility.yul\":5475:5487   */\n      add\n        /* \"#utility.yul\":5468:5487   */\n      swap1\n      pop\n        /* \"#utility.yul\":5127:5493   */\n      swap2\n      swap1\n      pop\n      jump\t// out\n        /* \"#utility.yul\":5499:5865   */\n    tag_373:\n        /* \"#utility.yul\":5641:5644   */\n      0x00\n        /* \"#utility.yul\":5662:5729   */\n      tag_375\n        /* \"#utility.yul\":5726:5728   */\n      0x1b\n        /* \"#utility.yul\":5721:5724   */\n      dup4\n        /* \"#utility.yul\":5662:5729   */\n      tag_340\n      jump\t// in\n    tag_375:\n        /* \"#utility.yul\":5655:5729   */\n      swap2\n      pop\n        /* \"#utility.yul\":5738:5831   */\n      tag_376\n        /* \"#utility.yul\":5827:5830   */\n      dup3\n        /* \"#utility.yul\":5738:5831   */\n      tag_377\n      jump\t// in\n    tag_376:\n        /* \"#utility.yul\":5856:5858   */\n      0x20\n        /* \"#utility.yul\":5851:5854   */\n      dup3\n        /* \"#utility.yul\":5847:5859   */\n      add\n        /* \"#utility.yul\":5840:5859   */\n      swap1\n      pop\n        /* \"#utility.yul\":5499:5865   */\n      swap2\n      swap1\n      pop\n      jump\t// out\n        /* \"#utility.yul\":5871:6237   */\n    tag_378:\n        /* \"#utility.yul\":6013:6016   */\n      0x00\n        /* \"#utility.yul\":6034:6101   */\n      tag_380\n        /* \"#utility.yul\":6098:6100   */\n      0x19\n        /* \"#utility.yul\":6093:6096   */\n      dup4\n        /* \"#utility.yul\":6034:6101   */\n      tag_340\n      jump\t// in\n    tag_380:\n        /* \"#utility.yul\":6027:6101   */\n      swap2\n      pop\n        /* \"#utility.yul\":6110:6203   */\n      tag_381\n        /* \"#utility.yul\":6199:6202   */\n      dup3\n        /* \"#utility.yul\":6110:6203   */\n      tag_382\n      jump\t// in\n    tag_381:\n        /* \"#utility.yul\":6228:6230   */\n      0x20\n        /* \"#utility.yul\":6223:6226   */\n      dup3\n        /* \"#utility.yul\":6219:6231   */\n      add\n        /* \"#utility.yul\":6212:6231   */\n      swap1\n      pop\n        /* \"#utility.yul\":5871:6237   */\n      swap2\n      swap1\n      pop\n      jump\t// out\n        /* \"#utility.yul\":6243:6609   */\n    tag_383:\n        /* \"#utility.yul\":6385:6388   */\n      0x00\n        /* \"#utility.yul\":6406:6473   */\n      tag_385\n        /* \"#utility.yul\":6470:6472   */\n      0x1d\n        /* \"#utility.yul\":6465:6468   */\n      dup4\n        /* \"#utility.yul\":6406:6473   */\n      tag_340\n      jump\t// in\n    tag_385:\n        /* \"#utility.yul\":6399:6473   */\n      swap2\n      pop\n        /* \"#utility.yul\":6482:6575   */\n      tag_386\n        /* \"#utility.yul\":6571:6574   */\n      dup3\n        /* \"#utility.yul\":6482:6575   */\n      tag_387\n      jump\t// in\n    tag_386:\n        /* \"#utility.yul\":6600:6602   */\n      0x20\n        /* \"#utility.yul\":6595:6598   */\n      dup3\n        /* \"#utility.yul\":6591:6603   */\n      add\n        /* \"#utility.yul\":6584:6603   */\n      swap1\n      pop\n        /* \"#utility.yul\":6243:6609   */\n      swap2\n      swap1\n      pop\n      jump\t// out\n        /* \"#utility.yul\":6615:6981   */\n    tag_388:\n        /* \"#utility.yul\":6757:6760   */\n      0x00\n        /* \"#utility.yul\":6778:6845   */\n      tag_390\n        /* \"#utility.yul\":6842:6844   */\n      0x21\n        /* \"#utility.yul\":6837:6840   */\n      dup4\n        /* \"#utility.yul\":6778:6845   */\n      tag_340\n      jump\t// in\n    tag_390:\n        /* \"#utility.yul\":6771:6845   */\n      swap2\n      pop\n        /* \"#utility.yul\":6854:6947   */\n      tag_391\n        /* \"#utility.yul\":6943:6946   */\n      dup3\n        /* \"#utility.yul\":6854:6947   */\n      tag_392\n      jump\t// in\n    tag_391:\n        /* \"#utility.yul\":6972:6974   */\n      0x40\n        /* \"#utility.yul\":6967:6970   */\n      dup3\n        /* \"#utility.yul\":6963:6975   */\n      add\n        /* \"#utility.yul\":6956:6975   */\n      swap1\n      pop\n        /* \"#utility.yul\":6615:6981   */\n      swap2\n      swap1\n      pop\n      jump\t// out\n        /* \"#utility.yul\":6987:7105   */\n    tag_393:\n        /* \"#utility.yul\":7074:7098   */\n      tag_395\n        /* \"#utility.yul\":7092:7097   */\n      dup2\n        /* \"#utility.yul\":7074:7098   */\n      tag_396\n      jump\t// in\n    tag_395:\n        /* \"#utility.yul\":7069:7072   */\n      dup3\n        /* \"#utility.yul\":7062:7099   */\n      mstore\n        /* \"#utility.yul\":6987:7105   */\n      pop\n      pop\n      jump\t// out\n        /* \"#utility.yul\":7111:7268   */\n    tag_397:\n        /* \"#utility.yul\":7216:7261   */\n      tag_399\n        /* \"#utility.yul\":7236:7260   */\n      tag_400\n        /* \"#utility.yul\":7254:7259   */\n      dup3\n        /* \"#utility.yul\":7236:7260   */\n      tag_396\n      jump\t// in\n    tag_400:\n        /* \"#utility.yul\":7216:7261   */\n      tag_401\n      jump\t// in\n    tag_399:\n        /* \"#utility.yul\":7211:7214   */\n      dup3\n        /* \"#utility.yul\":7204:7262   */\n      mstore\n        /* \"#utility.yul\":7111:7268   */\n      pop\n      pop\n      jump\t// out\n        /* \"#utility.yul\":7274:7386   */\n    tag_402:\n        /* \"#utility.yul\":7357:7379   */\n      tag_404\n        /* \"#utility.yul\":7373:7378   */\n      dup2\n        /* \"#utility.yul\":7357:7379   */\n      tag_405\n      jump\t// in\n    tag_404:\n        /* \"#utility.yul\":7352:7355   */\n      dup3\n        /* \"#utility.yul\":7345:7380   */\n      mstore\n        /* \"#utility.yul\":7274:7386   */\n      pop\n      pop\n      jump\t// out\n        /* \"#utility.yul\":7392:7789   */\n    tag_225:\n        /* \"#utility.yul\":7532:7535   */\n      0x00\n        /* \"#utility.yul\":7547:7622   */\n      tag_407\n        /* \"#utility.yul\":7618:7621   */\n      dup3\n        /* \"#utility.yul\":7609:7615   */\n      dup6\n        /* \"#utility.yul\":7547:7622   */\n      tag_397\n      jump\t// in\n    tag_407:\n        /* \"#utility.yul\":7647:7649   */\n      0x20\n        /* \"#utility.yul\":7642:7645   */\n      dup3\n        /* \"#utility.yul\":7638:7650   */\n      add\n        /* \"#utility.yul\":7631:7650   */\n      swap2\n      pop\n        /* \"#utility.yul\":7660:7735   */\n      tag_408\n        /* \"#utility.yul\":7731:7734   */\n      dup3\n        /* \"#utility.yul\":7722:7728   */\n      dup5\n        /* \"#utility.yul\":7660:7735   */\n      tag_316\n      jump\t// in\n    tag_408:\n        /* \"#utility.yul\":7760:7762   */\n      0x14\n        /* \"#utility.yul\":7755:7758   */\n      dup3\n        /* \"#utility.yul\":7751:7763   */\n      add\n        /* \"#utility.yul\":7744:7763   */\n      swap2\n      pop\n        /* \"#utility.yul\":7780:7783   */\n      dup2\n        /* \"#utility.yul\":7773:7783   */\n      swap1\n      pop\n        /* \"#utility.yul\":7392:7789   */\n      swap4\n      swap3\n      pop\n      pop\n      pop\n      jump\t// out\n        /* \"#utility.yul\":7795:8049   */\n    tag_59:\n        /* \"#utility.yul\":7904:7908   */\n      0x00\n        /* \"#utility.yul\":7942:7944   */\n      0x20\n        /* \"#utility.yul\":7931:7940   */\n      dup3\n        /* \"#utility.yul\":7927:7945   */\n      add\n        /* \"#utility.yul\":7919:7945   */\n      swap1\n      pop\n        /* \"#utility.yul\":7955:8042   */\n      tag_410\n        /* \"#utility.yul\":8039:8040   */\n      0x00\n        /* \"#utility.yul\":8028:8037   */\n      dup4\n        /* \"#utility.yul\":8024:8041   */\n      add\n        /* \"#utility.yul\":8015:8021   */\n      dup5\n        /* \"#utility.yul\":7955:8042   */\n      tag_308\n      jump\t// in\n    tag_410:\n        /* \"#utility.yul\":7795:8049   */\n      swap3\n      swap2\n      pop\n      pop\n      jump\t// out\n        /* \"#utility.yul\":8055:8806   */\n    tag_241:\n        /* \"#utility.yul\":8278:8282   */\n      0x00\n        /* \"#utility.yul\":8316:8319   */\n      0xa0\n        /* \"#utility.yul\":8305:8314   */\n      dup3\n        /* \"#utility.yul\":8301:8320   */\n      add\n        /* \"#utility.yul\":8293:8320   */\n      swap1\n      pop\n        /* \"#utility.yul\":8330:8401   */\n      tag_412\n        /* \"#utility.yul\":8398:8399   */\n      0x00\n        /* \"#utility.yul\":8387:8396   */\n      dup4\n        /* \"#utility.yul\":8383:8400   */\n      add\n        /* \"#utility.yul\":8374:8380   */\n      dup9\n        /* \"#utility.yul\":8330:8401   */\n      tag_312\n      jump\t// in\n    tag_412:\n        /* \"#utility.yul\":8411:8483   */\n      tag_413\n        /* \"#utility.yul\":8479:8481   */\n      0x20\n        /* \"#utility.yul\":8468:8477   */\n      dup4\n        /* \"#utility.yul\":8464:8482   */\n      add\n        /* \"#utility.yul\":8455:8461   */\n      dup8\n        /* \"#utility.yul\":8411:8483   */\n      tag_312\n      jump\t// in\n    tag_413:\n        /* \"#utility.yul\":8493:8565   */\n      tag_414\n        /* \"#utility.yul\":8561:8563   */\n      0x40\n        /* \"#utility.yul\":8550:8559   */\n      dup4\n        /* \"#utility.yul\":8546:8564   */\n      add\n        /* \"#utility.yul\":8537:8543   */\n      dup7\n        /* \"#utility.yul\":8493:8565   */\n      tag_393\n      jump\t// in\n    tag_414:\n        /* \"#utility.yul\":8575:8647   */\n      tag_415\n        /* \"#utility.yul\":8643:8645   */\n      0x60\n        /* \"#utility.yul\":8632:8641   */\n      dup4\n        /* \"#utility.yul\":8628:8646   */\n      add\n        /* \"#utility.yul\":8619:8625   */\n      dup6\n        /* \"#utility.yul\":8575:8647   */\n      tag_393\n      jump\t// in\n    tag_415:\n        /* \"#utility.yul\":8695:8704   */\n      dup2\n        /* \"#utility.yul\":8689:8693   */\n      dup2\n        /* \"#utility.yul\":8685:8705   */\n      sub\n        /* \"#utility.yul\":8679:8682   */\n      0x80\n        /* \"#utility.yul\":8668:8677   */\n      dup4\n        /* \"#utility.yul\":8664:8683   */\n      add\n        /* \"#utility.yul\":8657:8706   */\n      mstore\n        /* \"#utility.yul\":8723:8799   */\n      tag_416\n        /* \"#utility.yul\":8794:8798   */\n      dup2\n        /* \"#utility.yul\":8785:8791   */\n      dup5\n        /* \"#utility.yul\":8723:8799   */\n      tag_325\n      jump\t// in\n    tag_416:\n        /* \"#utility.yul\":8715:8799   */\n      swap1\n      pop\n        /* \"#utility.yul\":8055:8806   */\n      swap7\n      swap6\n      pop\n      pop\n      pop\n      pop\n      pop\n      pop\n      jump\t// out\n        /* \"#utility.yul\":8812:9022   */\n    tag_28:\n        /* \"#utility.yul\":8899:8903   */\n      0x00\n        /* \"#utility.yul\":8937:8939   */\n      0x20\n        /* \"#utility.yul\":8926:8935   */\n      dup3\n        /* \"#utility.yul\":8922:8940   */\n      add\n        /* \"#utility.yul\":8914:8940   */\n      swap1\n      pop\n        /* \"#utility.yul\":8950:9015   */\n      tag_418\n        /* \"#utility.yul\":9012:9013   */\n      0x00\n        /* \"#utility.yul\":9001:9010   */\n      dup4\n        /* \"#utility.yul\":8997:9014   */\n      add\n        /* \"#utility.yul\":8988:8994   */\n      dup5\n        /* \"#utility.yul\":8950:9015   */\n      tag_321\n      jump\t// in\n    tag_418:\n        /* \"#utility.yul\":8812:9022   */\n      swap3\n      swap2\n      pop\n      pop\n      jump\t// out\n        /* \"#utility.yul\":9028:9341   */\n    tag_256:\n        /* \"#utility.yul\":9141:9145   */\n      0x00\n        /* \"#utility.yul\":9179:9181   */\n      0x20\n        /* \"#utility.yul\":9168:9177   */\n      dup3\n        /* \"#utility.yul\":9164:9182   */\n      add\n        /* \"#utility.yul\":9156:9182   */\n      swap1\n      pop\n        /* \"#utility.yul\":9228:9237   */\n      dup2\n        /* \"#utility.yul\":9222:9226   */\n      dup2\n        /* \"#utility.yul\":9218:9238   */\n      sub\n        /* \"#utility.yul\":9214:9215   */\n      0x00\n        /* \"#utility.yul\":9203:9212   */\n      dup4\n        /* \"#utility.yul\":9199:9216   */\n      add\n        /* \"#utility.yul\":9192:9239   */\n      mstore\n        /* \"#utility.yul\":9256:9334   */\n      tag_420\n        /* \"#utility.yul\":9329:9333   */\n      dup2\n        /* \"#utility.yul\":9320:9326   */\n      dup5\n        /* \"#utility.yul\":9256:9334   */\n      tag_335\n      jump\t// in\n    tag_420:\n        /* \"#utility.yul\":9248:9334   */\n      swap1\n      pop\n        /* \"#utility.yul\":9028:9341   */\n      swap3\n      swap2\n      pop\n      pop\n      jump\t// out\n        /* \"#utility.yul\":9347:9766   */\n    tag_258:\n        /* \"#utility.yul\":9513:9517   */\n      0x00\n        /* \"#utility.yul\":9551:9553   */\n      0x20\n        /* \"#utility.yul\":9540:9549   */\n      dup3\n        /* \"#utility.yul\":9536:9554   */\n      add\n        /* \"#utility.yul\":9528:9554   */\n      swap1\n      pop\n        /* \"#utility.yul\":9600:9609   */\n      dup2\n        /* \"#utility.yul\":9594:9598   */\n      dup2\n        /* \"#utility.yul\":9590:9610   */\n      sub\n        /* \"#utility.yul\":9586:9587   */\n      0x00\n        /* \"#utility.yul\":9575:9584   */\n      dup4\n        /* \"#utility.yul\":9571:9588   */\n      add\n        /* \"#utility.yul\":9564:9611   */\n      mstore\n        /* \"#utility.yul\":9628:9759   */\n      tag_422\n        /* \"#utility.yul\":9754:9758   */\n      dup2\n        /* \"#utility.yul\":9628:9759   */\n      tag_343\n      jump\t// in\n    tag_422:\n        /* \"#utility.yul\":9620:9759   */\n      swap1\n      pop\n        /* \"#utility.yul\":9347:9766   */\n      swap2\n      swap1\n      pop\n      jump\t// out\n        /* \"#utility.yul\":9772:10191   */\n    tag_262:\n        /* \"#utility.yul\":9938:9942   */\n      0x00\n        /* \"#utility.yul\":9976:9978   */\n      0x20\n        /* \"#utility.yul\":9965:9974   */\n      dup3\n        /* \"#utility.yul\":9961:9979   */\n      add\n        /* \"#utility.yul\":9953:9979   */\n      swap1\n      pop\n        /* \"#utility.yul\":10025:10034   */\n      dup2\n        /* \"#utility.yul\":10019:10023   */\n      dup2\n        /* \"#utility.yul\":10015:10035   */\n      sub\n        /* \"#utility.yul\":10011:10012   */\n      0x00\n        /* \"#utility.yul\":10000:10009   */\n      dup4\n        /* \"#utility.yul\":9996:10013   */\n      add\n        /* \"#utility.yul\":9989:10036   */\n      mstore\n        /* \"#utility.yul\":10053:10184   */\n      tag_424\n        /* \"#utility.yul\":10179:10183   */\n      dup2\n        /* \"#utility.yul\":10053:10184   */\n      tag_348\n      jump\t// in\n    tag_424:\n        /* \"#utility.yul\":10045:10184   */\n      swap1\n      pop\n        /* \"#utility.yul\":9772:10191   */\n      swap2\n      swap1\n      pop\n      jump\t// out\n        /* \"#utility.yul\":10197:10616   */\n    tag_139:\n        /* \"#utility.yul\":10363:10367   */\n      0x00\n        /* \"#utility.yul\":10401:10403   */\n      0x20\n        /* \"#utility.yul\":10390:10399   */\n      dup3\n        /* \"#utility.yul\":10386:10404   */\n      add\n        /* \"#utility.yul\":10378:10404   */\n      swap1\n      pop\n        /* \"#utility.yul\":10450:10459   */\n      dup2\n        /* \"#utility.yul\":10444:10448   */\n      dup2\n        /* \"#utility.yul\":10440:10460   */\n      sub\n        /* \"#utility.yul\":10436:10437   */\n      0x00\n        /* \"#utility.yul\":10425:10434   */\n      dup4\n        /* \"#utility.yul\":10421:10438   */\n      add\n        /* \"#utility.yul\":10414:10461   */\n      mstore\n        /* \"#utility.yul\":10478:10609   */\n      tag_426\n        /* \"#utility.yul\":10604:10608   */\n      dup2\n        /* \"#utility.yul\":10478:10609   */\n      tag_353\n      jump\t// in\n    tag_426:\n        /* \"#utility.yul\":10470:10609   */\n      swap1\n      pop\n        /* \"#utility.yul\":10197:10616   */\n      swap2\n      swap1\n      pop\n      jump\t// out\n        /* \"#utility.yul\":10622:11041   */\n    tag_96:\n        /* \"#utility.yul\":10788:10792   */\n      0x00\n        /* \"#utility.yul\":10826:10828   */\n      0x20\n        /* \"#utility.yul\":10815:10824   */\n      dup3\n        /* \"#utility.yul\":10811:10829   */\n      add\n        /* \"#utility.yul\":10803:10829   */\n      swap1\n      pop\n        /* \"#utility.yul\":10875:10884   */\n      dup2\n        /* \"#utility.yul\":10869:10873   */\n      dup2\n        /* \"#utility.yul\":10865:10885   */\n      sub\n        /* \"#utility.yul\":10861:10862   */\n      0x00\n        /* \"#utility.yul\":10850:10859   */\n      dup4\n        /* \"#utility.yul\":10846:10863   */\n      add\n        /* \"#utility.yul\":10839:10886   */\n      mstore\n        /* \"#utility.yul\":10903:11034   */\n      tag_428\n        /* \"#utility.yul\":11029:11033   */\n      dup2\n        /* \"#utility.yul\":10903:11034   */\n      tag_358\n      jump\t// in\n    tag_428:\n        /* \"#utility.yul\":10895:11034   */\n      swap1\n      pop\n        /* \"#utility.yul\":10622:11041   */\n      swap2\n      swap1\n      pop\n      jump\t// out\n        /* \"#utility.yul\":11047:11466   */\n    tag_168:\n        /* \"#utility.yul\":11213:11217   */\n      0x00\n        /* \"#utility.yul\":11251:11253   */\n      0x20\n        /* \"#utility.yul\":11240:11249   */\n      dup3\n        /* \"#utility.yul\":11236:11254   */\n      add\n        /* \"#utility.yul\":11228:11254   */\n      swap1\n      pop\n        /* \"#utility.yul\":11300:11309   */\n      dup2\n        /* \"#utility.yul\":11294:11298   */\n      dup2\n        /* \"#utility.yul\":11290:11310   */\n      sub\n        /* \"#utility.yul\":11286:11287   */\n      0x00\n        /* \"#utility.yul\":11275:11284   */\n      dup4\n        /* \"#utility.yul\":11271:11288   */\n      add\n        /* \"#utility.yul\":11264:11311   */\n      mstore\n        /* \"#utility.yul\":11328:11459   */\n      tag_430\n        /* \"#utility.yul\":11454:11458   */\n      dup2\n        /* \"#utility.yul\":11328:11459   */\n      tag_363\n      jump\t// in\n    tag_430:\n        /* \"#utility.yul\":11320:11459   */\n      swap1\n      pop\n        /* \"#utility.yul\":11047:11466   */\n      swap2\n      swap1\n      pop\n      jump\t// out\n        /* \"#utility.yul\":11472:11891   */\n    tag_77:\n        /* \"#utility.yul\":11638:11642   */\n      0x00\n        /* \"#utility.yul\":11676:11678   */\n      0x20\n        /* \"#utility.yul\":11665:11674   */\n      dup3\n        /* \"#utility.yul\":11661:11679   */\n      add\n        /* \"#utility.yul\":11653:11679   */\n      swap1\n      pop\n        /* \"#utility.yul\":11725:11734   */\n      dup2\n        /* \"#utility.yul\":11719:11723   */\n      dup2\n        /* \"#utility.yul\":11715:11735   */\n      sub\n        /* \"#utility.yul\":11711:11712   */\n      0x00\n        /* \"#utility.yul\":11700:11709   */\n      dup4\n        /* \"#utility.yul\":11696:11713   */\n      add\n        /* \"#utility.yul\":11689:11736   */\n      mstore\n        /* \"#utility.yul\":11753:11884   */\n      tag_432\n        /* \"#utility.yul\":11879:11883   */\n      dup2\n        /* \"#utility.yul\":11753:11884   */\n      tag_368\n      jump\t// in\n    tag_432:\n        /* \"#utility.yul\":11745:11884   */\n      swap1\n      pop\n        /* \"#utility.yul\":11472:11891   */\n      swap2\n      swap1\n      pop\n      jump\t// out\n        /* \"#utility.yul\":11897:12316   */\n    tag_104:\n        /* \"#utility.yul\":12063:12067   */\n      0x00\n        /* \"#utility.yul\":12101:12103   */\n      0x20\n        /* \"#utility.yul\":12090:12099   */\n      dup3\n        /* \"#utility.yul\":12086:12104   */\n      add\n        /* \"#utility.yul\":12078:12104   */\n      swap1\n      pop\n        /* \"#utility.yul\":12150:12159   */\n      dup2\n        /* \"#utility.yul\":12144:12148   */\n      dup2\n        /* \"#utility.yul\":12140:12160   */\n      sub\n        /* \"#utility.yul\":12136:12137   */\n      0x00\n        /* \"#utility.yul\":12125:12134   */\n      dup4\n        /* \"#utility.yul\":12121:12138   */\n      add\n        /* \"#utility.yul\":12114:12161   */\n      mstore\n        /* \"#utility.yul\":12178:12309   */\n      tag_434\n        /* \"#utility.yul\":12304:12308   */\n      dup2\n        /* \"#utility.yul\":12178:12309   */\n      tag_373\n      jump\t// in\n    tag_434:\n        /* \"#utility.yul\":12170:12309   */\n      swap1\n      pop\n        /* \"#utility.yul\":11897:12316   */\n      swap2\n      swap1\n      pop\n      jump\t// out\n        /* \"#utility.yul\":12322:12741   */\n    tag_108:\n        /* \"#utility.yul\":12488:12492   */\n      0x00\n        /* \"#utility.yul\":12526:12528   */\n      0x20\n        /* \"#utility.yul\":12515:12524   */\n      dup3\n        /* \"#utility.yul\":12511:12529   */\n      add\n        /* \"#utility.yul\":12503:12529   */\n      swap1\n      pop\n        /* \"#utility.yul\":12575:12584   */\n      dup2\n        /* \"#utility.yul\":12569:12573   */\n      dup2\n        /* \"#utility.yul\":12565:12585   */\n      sub\n        /* \"#utility.yul\":12561:12562   */\n      0x00\n        /* \"#utility.yul\":12550:12559   */\n      dup4\n        /* \"#utility.yul\":12546:12563   */\n      add\n        /* \"#utility.yul\":12539:12586   */\n      mstore\n        /* \"#utility.yul\":12603:12734   */\n      tag_436\n        /* \"#utility.yul\":12729:12733   */\n      dup2\n        /* \"#utility.yul\":12603:12734   */\n      tag_378\n      jump\t// in\n    tag_436:\n        /* \"#utility.yul\":12595:12734   */\n      swap1\n      pop\n        /* \"#utility.yul\":12322:12741   */\n      swap2\n      swap1\n      pop\n      jump\t// out\n        /* \"#utility.yul\":12747:13166   */\n    tag_86:\n        /* \"#utility.yul\":12913:12917   */\n      0x00\n        /* \"#utility.yul\":12951:12953   */\n      0x20\n        /* \"#utility.yul\":12940:12949   */\n      dup3\n        /* \"#utility.yul\":12936:12954   */\n      add\n        /* \"#utility.yul\":12928:12954   */\n      swap1\n      pop\n        /* \"#utility.yul\":13000:13009   */\n      dup2\n        /* \"#utility.yul\":12994:12998   */\n      dup2\n        /* \"#utility.yul\":12990:13010   */\n      sub\n        /* \"#utility.yul\":12986:12987   */\n      0x00\n        /* \"#utility.yul\":12975:12984   */\n      dup4\n        /* \"#utility.yul\":12971:12988   */\n      add\n        /* \"#utility.yul\":12964:13011   */\n      mstore\n        /* \"#utility.yul\":13028:13159   */\n      tag_438\n        /* \"#utility.yul\":13154:13158   */\n      dup2\n        /* \"#utility.yul\":13028:13159   */\n      tag_383\n      jump\t// in\n    tag_438:\n        /* \"#utility.yul\":13020:13159   */\n      swap1\n      pop\n        /* \"#utility.yul\":12747:13166   */\n      swap2\n      swap1\n      pop\n      jump\t// out\n        /* \"#utility.yul\":13172:13591   */\n    tag_208:\n        /* \"#utility.yul\":13338:13342   */\n      0x00\n        /* \"#utility.yul\":13376:13378   */\n      0x20\n        /* \"#utility.yul\":13365:13374   */\n      dup3\n        /* \"#utility.yul\":13361:13379   */\n      add\n        /* \"#utility.yul\":13353:13379   */\n      swap1\n      pop\n        /* \"#utility.yul\":13425:13434   */\n      dup2\n        /* \"#utility.yul\":13419:13423   */\n      dup2\n        /* \"#utility.yul\":13415:13435   */\n      sub\n        /* \"#utility.yul\":13411:13412   */\n      0x00\n        /* \"#utility.yul\":13400:13409   */\n      dup4\n        /* \"#utility.yul\":13396:13413   */\n      add\n        /* \"#utility.yul\":13389:13436   */\n      mstore\n        /* \"#utility.yul\":13453:13584   */\n      tag_440\n        /* \"#utility.yul\":13579:13583   */\n      dup2\n        /* \"#utility.yul\":13453:13584   */\n      tag_388\n      jump\t// in\n    tag_440:\n        /* \"#utility.yul\":13445:13584   */\n      swap1\n      pop\n        /* \"#utility.yul\":13172:13591   */\n      swap2\n      swap1\n      pop\n      jump\t// out\n        /* \"#utility.yul\":13597:13819   */\n    tag_19:\n        /* \"#utility.yul\":13690:13694   */\n      0x00\n        /* \"#utility.yul\":13728:13730   */\n      0x20\n        /* \"#utility.yul\":13717:13726   */\n      dup3\n        /* \"#utility.yul\":13713:13731   */\n      add\n        /* \"#utility.yul\":13705:13731   */\n      swap1\n      pop\n        /* \"#utility.yul\":13741:13812   */\n      tag_442\n        /* \"#utility.yul\":13809:13810   */\n      0x00\n        /* \"#utility.yul\":13798:13807   */\n      dup4\n        /* \"#utility.yul\":13794:13811   */\n      add\n        /* \"#utility.yul\":13785:13791   */\n      dup5\n        /* \"#utility.yul\":13741:13812   */\n      tag_393\n      jump\t// in\n    tag_442:\n        /* \"#utility.yul\":13597:13819   */\n      swap3\n      swap2\n      pop\n      pop\n      jump\t// out\n        /* \"#utility.yul\":13825:14248   */\n    tag_38:\n        /* \"#utility.yul\":13966:13970   */\n      0x00\n        /* \"#utility.yul\":14004:14006   */\n      0x40\n        /* \"#utility.yul\":13993:14002   */\n      dup3\n        /* \"#utility.yul\":13989:14007   */\n      add\n        /* \"#utility.yul\":13981:14007   */\n      swap1\n      pop\n        /* \"#utility.yul\":14017:14088   */\n      tag_444\n        /* \"#utility.yul\":14085:14086   */\n      0x00\n        /* \"#utility.yul\":14074:14083   */\n      dup4\n        /* \"#utility.yul\":14070:14087   */\n      add\n        /* \"#utility.yul\":14061:14067   */\n      dup6\n        /* \"#utility.yul\":14017:14088   */\n      tag_393\n      jump\t// in\n    tag_444:\n        /* \"#utility.yul\":14135:14144   */\n      dup2\n        /* \"#utility.yul\":14129:14133   */\n      dup2\n        /* \"#utility.yul\":14125:14145   */\n      sub\n        /* \"#utility.yul\":14120:14122   */\n      0x20\n        /* \"#utility.yul\":14109:14118   */\n      dup4\n        /* \"#utility.yul\":14105:14123   */\n      add\n        /* \"#utility.yul\":14098:14146   */\n      mstore\n        /* \"#utility.yul\":14163:14241   */\n      tag_445\n        /* \"#utility.yul\":14236:14240   */\n      dup2\n        /* \"#utility.yul\":14227:14233   */\n      dup5\n        /* \"#utility.yul\":14163:14241   */\n      tag_335\n      jump\t// in\n    tag_445:\n        /* \"#utility.yul\":14155:14241   */\n      swap1\n      pop\n        /* \"#utility.yul\":13825:14248   */\n      swap4\n      swap3\n      pop\n      pop\n      pop\n      jump\t// out\n        /* \"#utility.yul\":14254:14586   */\n    tag_218:\n        /* \"#utility.yul\":14375:14379   */\n      0x00\n        /* \"#utility.yul\":14413:14415   */\n      0x40\n        /* \"#utility.yul\":14402:14411   */\n      dup3\n        /* \"#utility.yul\":14398:14416   */\n      add\n        /* \"#utility.yul\":14390:14416   */\n      swap1\n      pop\n        /* \"#utility.yul\":14426:14497   */\n      tag_447\n        /* \"#utility.yul\":14494:14495   */\n      0x00\n        /* \"#utility.yul\":14483:14492   */\n      dup4\n        /* \"#utility.yul\":14479:14496   */\n      add\n        /* \"#utility.yul\":14470:14476   */\n      dup6\n        /* \"#utility.yul\":14426:14497   */\n      tag_393\n      jump\t// in\n    tag_447:\n        /* \"#utility.yul\":14507:14579   */\n      tag_448\n        /* \"#utility.yul\":14575:14577   */\n      0x20\n        /* \"#utility.yul\":14564:14573   */\n      dup4\n        /* \"#utility.yul\":14560:14578   */\n      add\n        /* \"#utility.yul\":14551:14557   */\n      dup5\n        /* \"#utility.yul\":14507:14579   */\n      tag_393\n      jump\t// in\n    tag_448:\n        /* \"#utility.yul\":14254:14586   */\n      swap4\n      swap3\n      pop\n      pop\n      pop\n      jump\t// out\n        /* \"#utility.yul\":14592:15034   */\n    tag_51:\n        /* \"#utility.yul\":14741:14745   */\n      0x00\n        /* \"#utility.yul\":14779:14781   */\n      0x60\n        /* \"#utility.yul\":14768:14777   */\n      dup3\n        /* \"#utility.yul\":14764:14782   */\n      add\n        /* \"#utility.yul\":14756:14782   */\n      swap1\n      pop\n        /* \"#utility.yul\":14792:14863   */\n      tag_450\n        /* \"#utility.yul\":14860:14861   */\n      0x00\n        /* \"#utility.yul\":14849:14858   */\n      dup4\n        /* \"#utility.yul\":14845:14862   */\n      add\n        /* \"#utility.yul\":14836:14842   */\n      dup7\n        /* \"#utility.yul\":14792:14863   */\n      tag_393\n      jump\t// in\n    tag_450:\n        /* \"#utility.yul\":14873:14945   */\n      tag_451\n        /* \"#utility.yul\":14941:14943   */\n      0x20\n        /* \"#utility.yul\":14930:14939   */\n      dup4\n        /* \"#utility.yul\":14926:14944   */\n      add\n        /* \"#utility.yul\":14917:14923   */\n      dup6\n        /* \"#utility.yul\":14873:14945   */\n      tag_393\n      jump\t// in\n    tag_451:\n        /* \"#utility.yul\":14955:15027   */\n      tag_452\n        /* \"#utility.yul\":15023:15025   */\n      0x40\n        /* \"#utility.yul\":15012:15021   */\n      dup4\n        /* \"#utility.yul\":15008:15026   */\n      add\n        /* \"#utility.yul\":14999:15005   */\n      dup5\n        /* \"#utility.yul\":14955:15027   */\n      tag_393\n      jump\t// in\n    tag_452:\n        /* \"#utility.yul\":14592:15034   */\n      swap5\n      swap4\n      pop\n      pop\n      pop\n      pop\n      jump\t// out\n        /* \"#utility.yul\":15040:15254   */\n    tag_66:\n        /* \"#utility.yul\":15129:15133   */\n      0x00\n        /* \"#utility.yul\":15167:15169   */\n      0x20\n        /* \"#utility.yul\":15156:15165   */\n      dup3\n        /* \"#utility.yul\":15152:15170   */\n      add\n        /* \"#utility.yul\":15144:15170   */\n      swap1\n      pop\n        /* \"#utility.yul\":15180:15247   */\n      tag_454\n        /* \"#utility.yul\":15244:15245   */\n      0x00\n        /* \"#utility.yul\":15233:15242   */\n      dup4\n        /* \"#utility.yul\":15229:15246   */\n      add\n        /* \"#utility.yul\":15220:15226   */\n      dup5\n        /* \"#utility.yul\":15180:15247   */\n      tag_402\n      jump\t// in\n    tag_454:\n        /* \"#utility.yul\":15040:15254   */\n      swap3\n      swap2\n      pop\n      pop\n      jump\t// out\n        /* \"#utility.yul\":15260:15335   */\n    tag_455:\n        /* \"#utility.yul\":15293:15299   */\n      0x00\n        /* \"#utility.yul\":15326:15328   */\n      0x40\n        /* \"#utility.yul\":15320:15329   */\n      mload\n        /* \"#utility.yul\":15310:15329   */\n      swap1\n      pop\n        /* \"#utility.yul\":15260:15335   */\n      swap1\n      jump\t// out\n        /* \"#utility.yul\":15341:15439   */\n    tag_328:\n        /* \"#utility.yul\":15392:15398   */\n      0x00\n        /* \"#utility.yul\":15426:15431   */\n      dup2\n        /* \"#utility.yul\":15420:15432   */\n      mload\n        /* \"#utility.yul\":15410:15432   */\n      swap1\n      pop\n        /* \"#utility.yul\":15341:15439   */\n      swap2\n      swap1\n      pop\n      jump\t// out\n        /* \"#utility.yul\":15445:15544   */\n    tag_338:\n        /* \"#utility.yul\":15497:15503   */\n      0x00\n        /* \"#utility.yul\":15531:15536   */\n      dup2\n        /* \"#utility.yul\":15525:15537   */\n      mload\n        /* \"#utility.yul\":15515:15537   */\n      swap1\n      pop\n        /* \"#utility.yul\":15445:15544   */\n      swap2\n      swap1\n      pop\n      jump\t// out\n        /* \"#utility.yul\":15550:15718   */\n    tag_330:\n        /* \"#utility.yul\":15633:15644   */\n      0x00\n        /* \"#utility.yul\":15667:15673   */\n      dup3\n        /* \"#utility.yul\":15662:15665   */\n      dup3\n        /* \"#utility.yul\":15655:15674   */\n      mstore\n        /* \"#utility.yul\":15707:15711   */\n      0x20\n        /* \"#utility.yul\":15702:15705   */\n      dup3\n        /* \"#utility.yul\":15698:15712   */\n      add\n        /* \"#utility.yul\":15683:15712   */\n      swap1\n      pop\n        /* \"#utility.yul\":15550:15718   */\n      swap3\n      swap2\n      pop\n      pop\n      jump\t// out\n        /* \"#utility.yul\":15724:15893   */\n    tag_340:\n        /* \"#utility.yul\":15808:15819   */\n      0x00\n        /* \"#utility.yul\":15842:15848   */\n      dup3\n        /* \"#utility.yul\":15837:15840   */\n      dup3\n        /* \"#utility.yul\":15830:15849   */\n      mstore\n        /* \"#utility.yul\":15882:15886   */\n      0x20\n        /* \"#utility.yul\":15877:15880   */\n      dup3\n        /* \"#utility.yul\":15873:15887   */\n      add\n        /* \"#utility.yul\":15858:15887   */\n      swap1\n      pop\n        /* \"#utility.yul\":15724:15893   */\n      swap3\n      swap2\n      pop\n      pop\n      jump\t// out\n        /* \"#utility.yul\":15899:16204   */\n    tag_216:\n        /* \"#utility.yul\":15939:15942   */\n      0x00\n        /* \"#utility.yul\":15958:15978   */\n      tag_462\n        /* \"#utility.yul\":15976:15977   */\n      dup3\n        /* \"#utility.yul\":15958:15978   */\n      tag_396\n      jump\t// in\n    tag_462:\n        /* \"#utility.yul\":15953:15978   */\n      swap2\n      pop\n        /* \"#utility.yul\":15992:16012   */\n      tag_463\n        /* \"#utility.yul\":16010:16011   */\n      dup4\n        /* \"#utility.yul\":15992:16012   */\n      tag_396\n      jump\t// in\n    tag_463:\n        /* \"#utility.yul\":15987:16012   */\n      swap3\n      pop\n        /* \"#utility.yul\":16146:16147   */\n      dup3\n        /* \"#utility.yul\":16078:16144   */\n      0xffffffffffffffffffffffffffffffffffffffffffffffffffffffffffffffff\n        /* \"#utility.yul\":16074:16148   */\n      sub\n        /* \"#utility.yul\":16071:16072   */\n      dup3\n        /* \"#utility.yul\":16068:16149   */\n      gt\n        /* \"#utility.yul\":16065:16172   */\n      iszero\n      tag_464\n      jumpi\n        /* \"#utility.yul\":16152:16170   */\n      tag_465\n      tag_466\n      jump\t// in\n    tag_465:\n        /* \"#utility.yul\":16065:16172   */\n    tag_464:\n        /* \"#utility.yul\":16196:16197   */\n      dup3\n        /* \"#utility.yul\":16193:16194   */\n      dup3\n        /* \"#utility.yul\":16189:16198   */\n      add\n        /* \"#utility.yul\":16182:16198   */\n      swap1\n      pop\n        /* \"#utility.yul\":15899:16204   */\n      swap3\n      swap2\n      pop\n      pop\n      jump\t// out\n        /* \"#utility.yul\":16210:16306   */\n    tag_315:\n        /* \"#utility.yul\":16247:16254   */\n      0x00\n        /* \"#utility.yul\":16276:16300   */\n      tag_468\n        /* \"#utility.yul\":16294:16299   */\n      dup3\n        /* \"#utility.yul\":16276:16300   */\n      tag_469\n      jump\t// in\n    tag_468:\n        /* \"#utility.yul\":16265:16300   */\n      swap1\n      pop\n        /* \"#utility.yul\":16210:16306   */\n      swap2\n      swap1\n      pop\n      jump\t// out\n        /* \"#utility.yul\":16312:16416   */\n    tag_311:\n        /* \"#utility.yul\":16357:16364   */\n      0x00\n        /* \"#utility.yul\":16386:16410   */\n      tag_471\n        /* \"#utility.yul\":16404:16409   */\n      dup3\n        /* \"#utility.yul\":16386:16410   */\n      tag_469\n      jump\t// in\n    tag_471:\n        /* \"#utility.yul\":16375:16410   */\n      swap1\n      pop\n        /* \"#utility.yul\":16312:16416   */\n      swap2\n      swap1\n      pop\n      jump\t// out\n        /* \"#utility.yul\":16422:16512   */\n    tag_324:\n        /* \"#utility.yul\":16456:16463   */\n      0x00\n        /* \"#utility.yul\":16499:16504   */\n      dup2\n        /* \"#utility.yul\":16492:16505   */\n      iszero\n        /* \"#utility.yul\":16485:16506   */\n      iszero\n        /* \"#utility.yul\":16474:16506   */\n      swap1\n      pop\n        /* \"#utility.yul\":16422:16512   */\n      swap2\n      swap1\n      pop\n      jump\t// out\n        /* \"#utility.yul\":16518:16667   */\n    tag_473:\n        /* \"#utility.yul\":16554:16561   */\n      0x00\n        /* \"#utility.yul\":16594:16660   */\n      0xffffffff00000000000000000000000000000000000000000000000000000000\n        /* \"#utility.yul\":16587:16592   */\n      dup3\n        /* \"#utility.yul\":16583:16661   */\n      and\n        /* \"#utility.yul\":16572:16661   */\n      swap1\n      pop\n        /* \"#utility.yul\":16518:16667   */\n      swap2\n      swap1\n      pop\n      jump\t// out\n        /* \"#utility.yul\":16673:16799   */\n    tag_469:\n        /* \"#utility.yul\":16710:16717   */\n      0x00\n        /* \"#utility.yul\":16750:16792   */\n      0xffffffffffffffffffffffffffffffffffffffff\n        /* \"#utility.yul\":16743:16748   */\n      dup3\n        /* \"#utility.yul\":16739:16793   */\n      and\n        /* \"#utility.yul\":16728:16793   */\n      swap1\n      pop\n        /* \"#utility.yul\":16673:16799   */\n      swap2\n      swap1\n      pop\n      jump\t// out\n        /* \"#utility.yul\":16805:16882   */\n    tag_396:\n        /* \"#utility.yul\":16842:16849   */\n      0x00\n        /* \"#utility.yul\":16871:16876   */\n      dup2\n        /* \"#utility.yul\":16860:16876   */\n      swap1\n      pop\n        /* \"#utility.yul\":16805:16882   */\n      swap2\n      swap1\n      pop\n      jump\t// out\n        /* \"#utility.yul\":16888:16974   */\n    tag_405:\n        /* \"#utility.yul\":16923:16930   */\n      0x00\n        /* \"#utility.yul\":16963:16967   */\n      0xff\n        /* \"#utility.yul\":16956:16961   */\n      dup3\n        /* \"#utility.yul\":16952:16968   */\n      and\n        /* \"#utility.yul\":16941:16968   */\n      swap1\n      pop\n        /* \"#utility.yul\":16888:16974   */\n      swap2\n      swap1\n      pop\n      jump\t// out\n        /* \"#utility.yul\":16980:17287   */\n    tag_332:\n        /* \"#utility.yul\":17048:17049   */\n      0x00\n        /* \"#utility.yul\":17058:17171   */\n    tag_479:\n        /* \"#utility.yul\":17072:17078   */\n      dup4\n        /* \"#utility.yul\":17069:17070   */\n      dup2\n        /* \"#utility.yul\":17066:17079   */\n      lt\n        /* \"#utility.yul\":17058:17171   */\n      iszero\n      tag_481\n      jumpi\n        /* \"#utility.yul\":17157:17158   */\n      dup1\n        /* \"#utility.yul\":17152:17155   */\n      dup3\n        /* \"#utility.yul\":17148:17159   */\n      add\n        /* \"#utility.yul\":17142:17160   */\n      mload\n        /* \"#utility.yul\":17138:17139   */\n      dup2\n        /* \"#utility.yul\":17133:17136   */\n      dup5\n        /* \"#utility.yul\":17129:17140   */\n      add\n        /* \"#utility.yul\":17122:17161   */\n      mstore\n        /* \"#utility.yul\":17094:17096   */\n      0x20\n        /* \"#utility.yul\":17091:17092   */\n      dup2\n        /* \"#utility.yul\":17087:17097   */\n      add\n        /* \"#utility.yul\":17082:17097   */\n      swap1\n      pop\n        /* \"#utility.yul\":17058:17171   */\n      jump(tag_479)\n    tag_481:\n        /* \"#utility.yul\":17189:17195   */\n      dup4\n        /* \"#utility.yul\":17186:17187   */\n      dup2\n        /* \"#utility.yul\":17183:17196   */\n      gt\n        /* \"#utility.yul\":17180:17281   */\n      iszero\n      tag_482\n      jumpi\n        /* \"#utility.yul\":17269:17270   */\n      0x00\n        /* \"#utility.yul\":17260:17266   */\n      dup5\n        /* \"#utility.yul\":17255:17258   */\n      dup5\n        /* \"#utility.yul\":17251:17267   */\n      add\n        /* \"#utility.yul\":17244:17271   */\n      mstore\n        /* \"#utility.yul\":17180:17281   */\n    tag_482:\n        /* \"#utility.yul\":17029:17287   */\n      pop\n        /* \"#utility.yul\":16980:17287   */\n      pop\n      pop\n      pop\n      jump\t// out\n        /* \"#utility.yul\":17293:17613   */\n    tag_113:\n        /* \"#utility.yul\":17337:17343   */\n      0x00\n        /* \"#utility.yul\":17374:17375   */\n      0x02\n        /* \"#utility.yul\":17368:17372   */\n      dup3\n        /* \"#utility.yul\":17364:17376   */\n      div\n        /* \"#utility.yul\":17354:17376   */\n      swap1\n      pop\n        /* \"#utility.yul\":17421:17422   */\n      0x01\n        /* \"#utility.yul\":17415:17419   */\n      dup3\n        /* \"#utility.yul\":17411:17423   */\n      and\n        /* \"#utility.yul\":17442:17460   */\n      dup1\n        /* \"#utility.yul\":17432:17513   */\n      tag_484\n      jumpi\n        /* \"#utility.yul\":17498:17502   */\n      0x7f\n        /* \"#utility.yul\":17490:17496   */\n      dup3\n        /* \"#utility.yul\":17486:17503   */\n      and\n        /* \"#utility.yul\":17476:17503   */\n      swap2\n      pop\n        /* \"#utility.yul\":17432:17513   */\n    tag_484:\n        /* \"#utility.yul\":17560:17562   */\n      0x20\n        /* \"#utility.yul\":17552:17558   */\n      dup3\n        /* \"#utility.yul\":17549:17563   */\n      lt\n        /* \"#utility.yul\":17529:17547   */\n      dup2\n        /* \"#utility.yul\":17526:17564   */\n      eq\n        /* \"#utility.yul\":17523:17607   */\n      iszero\n      tag_485\n      jumpi\n        /* \"#utility.yul\":17579:17597   */\n      tag_486\n      tag_487\n      jump\t// in\n    tag_486:\n        /* \"#utility.yul\":17523:17607   */\n    tag_485:\n        /* \"#utility.yul\":17344:17613   */\n      pop\n        /* \"#utility.yul\":17293:17613   */\n      swap2\n      swap1\n      pop\n      jump\t// out\n        /* \"#utility.yul\":17619:17900   */\n    tag_488:\n        /* \"#utility.yul\":17702:17729   */\n      tag_490\n        /* \"#utility.yul\":17724:17728   */\n      dup3\n        /* \"#utility.yul\":17702:17729   */\n      tag_334\n      jump\t// in\n    tag_490:\n        /* \"#utility.yul\":17694:17700   */\n      dup2\n        /* \"#utility.yul\":17690:17730   */\n      add\n        /* \"#utility.yul\":17832:17838   */\n      dup2\n        /* \"#utility.yul\":17820:17830   */\n      dup2\n        /* \"#utility.yul\":17817:17839   */\n      lt\n        /* \"#utility.yul\":17796:17814   */\n      0xffffffffffffffff\n        /* \"#utility.yul\":17784:17794   */\n      dup3\n        /* \"#utility.yul\":17781:17815   */\n      gt\n        /* \"#utility.yul\":17778:17840   */\n      or\n        /* \"#utility.yul\":17775:17863   */\n      iszero\n      tag_491\n      jumpi\n        /* \"#utility.yul\":17843:17861   */\n      tag_492\n      tag_231\n      jump\t// in\n    tag_492:\n        /* \"#utility.yul\":17775:17863   */\n    tag_491:\n        /* \"#utility.yul\":17883:17893   */\n      dup1\n        /* \"#utility.yul\":17879:17881   */\n      0x40\n        /* \"#utility.yul\":17872:17894   */\n      mstore\n        /* \"#utility.yul\":17662:17900   */\n      pop\n        /* \"#utility.yul\":17619:17900   */\n      pop\n      pop\n      jump\t// out\n        /* \"#utility.yul\":17906:18139   */\n    tag_120:\n        /* \"#utility.yul\":17945:17948   */\n      0x00\n        /* \"#utility.yul\":17968:17992   */\n      tag_494\n        /* \"#utility.yul\":17986:17991   */\n      dup3\n        /* \"#utility.yul\":17968:17992   */\n      tag_396\n      jump\t// in\n    tag_494:\n        /* \"#utility.yul\":17959:17992   */\n      swap2\n      pop\n        /* \"#utility.yul\":18014:18080   */\n      0xffffffffffffffffffffffffffffffffffffffffffffffffffffffffffffffff\n        /* \"#utility.yul\":18007:18012   */\n      dup3\n        /* \"#utility.yul\":18004:18081   */\n      eq\n        /* \"#utility.yul\":18001:18104   */\n      iszero\n      tag_495\n      jumpi\n        /* \"#utility.yul\":18084:18102   */\n      tag_496\n      tag_466\n      jump\t// in\n    tag_496:\n        /* \"#utility.yul\":18001:18104   */\n    tag_495:\n        /* \"#utility.yul\":18131:18132   */\n      0x01\n        /* \"#utility.yul\":18124:18129   */\n      dup3\n        /* \"#utility.yul\":18120:18133   */\n      add\n        /* \"#utility.yul\":18113:18133   */\n      swap1\n      pop\n        /* \"#utility.yul\":17906:18139   */\n      swap2\n      swap1\n      pop\n      jump\t// out\n        /* \"#utility.yul\":18145:18245   */\n    tag_320:\n        /* \"#utility.yul\":18184:18191   */\n      0x00\n        /* \"#utility.yul\":18213:18239   */\n      tag_498\n        /* \"#utility.yul\":18233:18238   */\n      dup3\n        /* \"#utility.yul\":18213:18239   */\n      tag_499\n      jump\t// in\n    tag_498:\n        /* \"#utility.yul\":18202:18239   */\n      swap1\n      pop\n        /* \"#utility.yul\":18145:18245   */\n      swap2\n      swap1\n      pop\n      jump\t// out\n        /* \"#utility.yul\":18251:18345   */\n    tag_499:\n        /* \"#utility.yul\":18290:18297   */\n      0x00\n        /* \"#utility.yul\":18319:18339   */\n      tag_501\n        /* \"#utility.yul\":18333:18338   */\n      dup3\n        /* \"#utility.yul\":18319:18339   */\n      tag_502\n      jump\t// in\n    tag_501:\n        /* \"#utility.yul\":18308:18339   */\n      swap1\n      pop\n        /* \"#utility.yul\":18251:18345   */\n      swap2\n      swap1\n      pop\n      jump\t// out\n        /* \"#utility.yul\":18351:18430   */\n    tag_401:\n        /* \"#utility.yul\":18390:18397   */\n      0x00\n        /* \"#utility.yul\":18419:18424   */\n      dup2\n        /* \"#utility.yul\":18408:18424   */\n      swap1\n      pop\n        /* \"#utility.yul\":18351:18430   */\n      swap2\n      swap1\n      pop\n      jump\t// out\n        /* \"#utility.yul\":18436:18612   */\n    tag_227:\n        /* \"#utility.yul\":18468:18469   */\n      0x00\n        /* \"#utility.yul\":18485:18505   */\n      tag_505\n        /* \"#utility.yul\":18503:18504   */\n      dup3\n        /* \"#utility.yul\":18485:18505   */\n      tag_396\n      jump\t// in\n    tag_505:\n        /* \"#utility.yul\":18480:18505   */\n      swap2\n      pop\n        /* \"#utility.yul\":18519:18539   */\n      tag_506\n        /* \"#utility.yul\":18537:18538   */\n      dup4\n        /* \"#utility.yul\":18519:18539   */\n      tag_396\n      jump\t// in\n    tag_506:\n        /* \"#utility.yul\":18514:18539   */\n      swap3\n      pop\n        /* \"#utility.yul\":18558:18559   */\n      dup3\n        /* \"#utility.yul\":18548:18583   */\n      tag_507\n      jumpi\n        /* \"#utility.yul\":18563:18581   */\n      tag_508\n      tag_509\n      jump\t// in\n    tag_508:\n        /* \"#utility.yul\":18548:18583   */\n    tag_507:\n        /* \"#utility.yul\":18604:18605   */\n      dup3\n        /* \"#utility.yul\":18601:18602   */\n      dup3\n        /* \"#utility.yul\":18597:18606   */\n      mod\n        /* \"#utility.yul\":18592:18606   */\n      swap1\n      pop\n        /* \"#utility.yul\":18436:18612   */\n      swap3\n      swap2\n      pop\n      pop\n      jump\t// out\n        /* \"#utility.yul\":18618:18798   */\n    tag_466:\n        /* \"#utility.yul\":18666:18743   */\n      0x4e487b7100000000000000000000000000000000000000000000000000000000\n        /* \"#utility.yul\":18663:18664   */\n      0x00\n        /* \"#utility.yul\":18656:18744   */\n      mstore\n        /* \"#utility.yul\":18763:18767   */\n      0x11\n        /* \"#utility.yul\":18760:18761   */\n      0x04\n        /* \"#utility.yul\":18753:18768   */\n      mstore\n        /* \"#utility.yul\":18787:18791   */\n      0x24\n        /* \"#utility.yul\":18784:18785   */\n      0x00\n        /* \"#utility.yul\":18777:18792   */\n      revert\n        /* \"#utility.yul\":18804:18984   */\n    tag_509:\n        /* \"#utility.yul\":18852:18929   */\n      0x4e487b7100000000000000000000000000000000000000000000000000000000\n        /* \"#utility.yul\":18849:18850   */\n      0x00\n        /* \"#utility.yul\":18842:18930   */\n      mstore\n        /* \"#utility.yul\":18949:18953   */\n      0x12\n        /* \"#utility.yul\":18946:18947   */\n      0x04\n        /* \"#utility.yul\":18939:18954   */\n      mstore\n        /* \"#utility.yul\":18973:18977   */\n      0x24\n        /* \"#utility.yul\":18970:18971   */\n      0x00\n        /* \"#utility.yul\":18963:18978   */\n      revert\n        /* \"#utility.yul\":18990:19170   */\n    tag_487:\n        /* \"#utility.yul\":19038:19115   */\n      0x4e487b7100000000000000000000000000000000000000000000000000000000\n        /* \"#utility.yul\":19035:19036   */\n      0x00\n        /* \"#utility.yul\":19028:19116   */\n      mstore\n        /* \"#utility.yul\":19135:19139   */\n      0x22\n        /* \"#utility.yul\":19132:19133   */\n      0x04\n        /* \"#utility.yul\":19125:19140   */\n      mstore\n        /* \"#utility.yul\":19159:19163   */\n      0x24\n        /* \"#utility.yul\":19156:19157   */\n      0x00\n        /* \"#utility.yul\":19149:19164   */\n      revert\n        /* \"#utility.yul\":19176:19356   */\n    tag_181:\n        /* \"#utility.yul\":19224:19301   */\n      0x4e487b7100000000000000000000000000000000000000000000000000000000\n        /* \"#utility.yul\":19221:19222   */\n      0x00\n        /* \"#utility.yul\":19214:19302   */\n      mstore\n        /* \"#utility.yul\":19321:19325   */\n      0x32\n        /* \"#utility.yul\":19318:19319   */\n      0x04\n        /* \"#utility.yul\":19311:19326   */\n      mstore\n        /* \"#utility.yul\":19345:19349   */\n      0x24\n        /* \"#utility.yul\":19342:19343   */\n      0x00\n        /* \"#utility.yul\":19335:19350   */\n      revert\n        /* \"#utility.yul\":19362:19542   */\n    tag_231:\n        /* \"#utility.yul\":19410:19487   */\n      0x4e487b7100000000000000000000000000000000000000000000000000000000\n        /* \"#utility.yul\":19407:19408   */\n      0x00\n        /* \"#utility.yul\":19400:19488   */\n      mstore\n        /* \"#utility.yul\":19507:19511   */\n      0x41\n        /* \"#utility.yul\":19504:19505   */\n      0x04\n        /* \"#utility.yul\":19497:19512   */\n      mstore\n        /* \"#utility.yul\":19531:19535   */\n      0x24\n        /* \"#utility.yul\":19528:19529   */\n      0x00\n        /* \"#utility.yul\":19521:19536   */\n      revert\n        /* \"#utility.yul\":19548:19731   */\n    tag_251:\n        /* \"#utility.yul\":19583:19586   */\n      0x00\n        /* \"#utility.yul\":19621:19622   */\n      0x03\n        /* \"#utility.yul\":19603:19619   */\n      returndatasize\n        /* \"#utility.yul\":19600:19623   */\n      gt\n        /* \"#utility.yul\":19597:19725   */\n      iszero\n      tag_516\n      jumpi\n        /* \"#utility.yul\":19659:19660   */\n      0x04\n        /* \"#utility.yul\":19656:19657   */\n      0x00\n        /* \"#utility.yul\":19653:19654   */\n      dup1\n        /* \"#utility.yul\":19638:19661   */\n      returndatacopy\n        /* \"#utility.yul\":19681:19715   */\n      tag_517\n        /* \"#utility.yul\":19712:19713   */\n      0x00\n        /* \"#utility.yul\":19706:19714   */\n      mload\n        /* \"#utility.yul\":19681:19715   */\n      tag_518\n      jump\t// in\n    tag_517:\n        /* \"#utility.yul\":19674:19715   */\n      swap1\n      pop\n        /* \"#utility.yul\":19597:19725   */\n    tag_516:\n        /* \"#utility.yul\":19548:19731   */\n      swap1\n      jump\t// out\n        /* \"#utility.yul\":19860:19977   */\n    tag_294:\n        /* \"#utility.yul\":19969:19970   */\n      0x00\n        /* \"#utility.yul\":19966:19967   */\n      dup1\n        /* \"#utility.yul\":19959:19971   */\n      revert\n        /* \"#utility.yul\":19983:20085   */\n    tag_334:\n        /* \"#utility.yul\":20024:20030   */\n      0x00\n        /* \"#utility.yul\":20075:20077   */\n      0x1f\n        /* \"#utility.yul\":20071:20078   */\n      not\n        /* \"#utility.yul\":20066:20068   */\n      0x1f\n        /* \"#utility.yul\":20059:20064   */\n      dup4\n        /* \"#utility.yul\":20055:20069   */\n      add\n        /* \"#utility.yul\":20051:20079   */\n      and\n        /* \"#utility.yul\":20041:20079   */\n      swap1\n      pop\n        /* \"#utility.yul\":19983:20085   */\n      swap2\n      swap1\n      pop\n      jump\t// out\n        /* \"#utility.yul\":20091:20185   */\n    tag_502:\n        /* \"#utility.yul\":20124:20132   */\n      0x00\n        /* \"#utility.yul\":20172:20177   */\n      dup2\n        /* \"#utility.yul\":20168:20170   */\n      0x60\n        /* \"#utility.yul\":20164:20178   */\n      shl\n        /* \"#utility.yul\":20143:20178   */\n      swap1\n      pop\n        /* \"#utility.yul\":20091:20185   */\n      swap2\n      swap1\n      pop\n      jump\t// out\n        /* \"#utility.yul\":20191:20297   */\n    tag_518:\n        /* \"#utility.yul\":20235:20243   */\n      0x00\n        /* \"#utility.yul\":20284:20289   */\n      dup2\n        /* \"#utility.yul\":20279:20282   */\n      0xe0\n        /* \"#utility.yul\":20275:20290   */\n      shr\n        /* \"#utility.yul\":20254:20290   */\n      swap1\n      pop\n        /* \"#utility.yul\":20191:20297   */\n      swap2\n      swap1\n      pop\n      jump\t// out\n        /* \"#utility.yul\":20303:20542   */\n    tag_347:\n        /* \"#utility.yul\":20443:20477   */\n      0x455243313135353a207472616e7366657220746f206e6f6e2045524331313535\n        /* \"#utility.yul\":20439:20440   */\n      0x00\n        /* \"#utility.yul\":20431:20437   */\n      dup3\n        /* \"#utility.yul\":20427:20441   */\n      add\n        /* \"#utility.yul\":20420:20478   */\n      mstore\n        /* \"#utility.yul\":20512:20534   */\n      0x526563656976657220696d706c656d656e746572000000000000000000000000\n        /* \"#utility.yul\":20507:20509   */\n      0x20\n        /* \"#utility.yul\":20499:20505   */\n      dup3\n        /* \"#utility.yul\":20495:20510   */\n      add\n        /* \"#utility.yul\":20488:20535   */\n      mstore\n        /* \"#utility.yul\":20303:20542   */\n      pop\n      jump\t// out\n        /* \"#utility.yul\":20548:20775   */\n    tag_352:\n        /* \"#utility.yul\":20688:20722   */\n      0x455243313135353a204552433131353552656365697665722072656a65637465\n        /* \"#utility.yul\":20684:20685   */\n      0x00\n        /* \"#utility.yul\":20676:20682   */\n      dup3\n        /* \"#utility.yul\":20672:20686   */\n      add\n        /* \"#utility.yul\":20665:20723   */\n      mstore\n        /* \"#utility.yul\":20757:20767   */\n      0x6420746f6b656e73000000000000000000000000000000000000000000000000\n        /* \"#utility.yul\":20752:20754   */\n      0x20\n        /* \"#utility.yul\":20744:20750   */\n      dup3\n        /* \"#utility.yul\":20740:20755   */\n      add\n        /* \"#utility.yul\":20733:20768   */\n      mstore\n        /* \"#utility.yul\":20548:20775   */\n      pop\n      jump\t// out\n        /* \"#utility.yul\":20781:20956   */\n    tag_357:\n        /* \"#utility.yul\":20921:20948   */\n      0x42616c616e6365206d757374206265203235204d617469637300000000000000\n        /* \"#utility.yul\":20917:20918   */\n      0x00\n        /* \"#utility.yul\":20909:20915   */\n      dup3\n        /* \"#utility.yul\":20905:20919   */\n      add\n        /* \"#utility.yul\":20898:20949   */\n      mstore\n        /* \"#utility.yul\":20781:20956   */\n      pop\n      jump\t// out\n        /* \"#utility.yul\":20962:21139   */\n    tag_362:\n        /* \"#utility.yul\":21102:21131   */\n      0x44726f707369746520697320616c72656164792052756e6e696e670000000000\n        /* \"#utility.yul\":21098:21099   */\n      0x00\n        /* \"#utility.yul\":21090:21096   */\n      dup3\n        /* \"#utility.yul\":21086:21100   */\n      add\n        /* \"#utility.yul\":21079:21132   */\n      mstore\n        /* \"#utility.yul\":20962:21139   */\n      pop\n      jump\t// out\n        /* \"#utility.yul\":21145:21322   */\n    tag_367:\n        /* \"#utility.yul\":21285:21314   */\n      0x44726f707369746520697320616c72656164792053746f707065640000000000\n        /* \"#utility.yul\":21281:21282   */\n      0x00\n        /* \"#utility.yul\":21273:21279   */\n      dup3\n        /* \"#utility.yul\":21269:21283   */\n      add\n        /* \"#utility.yul\":21262:21315   */\n      mstore\n        /* \"#utility.yul\":21145:21322   */\n      pop\n      jump\t// out\n        /* \"#utility.yul\":21328:21506   */\n    tag_372:\n        /* \"#utility.yul\":21468:21498   */\n      0x4f6e6c79204e46542d4553204f776e65722063616e2041636365737300000000\n        /* \"#utility.yul\":21464:21465   */\n      0x00\n        /* \"#utility.yul\":21456:21462   */\n      dup3\n        /* \"#utility.yul\":21452:21466   */\n      add\n        /* \"#utility.yul\":21445:21499   */\n      mstore\n        /* \"#utility.yul\":21328:21506   */\n      pop\n      jump\t// out\n        /* \"#utility.yul\":21512:21689   */\n    tag_377:\n        /* \"#utility.yul\":21652:21681   */\n      0x44726f7073697465206973206e6f74204f70656e6564205965742e0000000000\n        /* \"#utility.yul\":21648:21649   */\n      0x00\n        /* \"#utility.yul\":21640:21646   */\n      dup3\n        /* \"#utility.yul\":21636:21650   */\n      add\n        /* \"#utility.yul\":21629:21682   */\n      mstore\n        /* \"#utility.yul\":21512:21689   */\n      pop\n      jump\t// out\n        /* \"#utility.yul\":21695:21870   */\n    tag_382:\n        /* \"#utility.yul\":21835:21862   */\n      0x4d6178204d696e74696e67204c696d6974207265616368656400000000000000\n        /* \"#utility.yul\":21831:21832   */\n      0x00\n        /* \"#utility.yul\":21823:21829   */\n      dup3\n        /* \"#utility.yul\":21819:21833   */\n      add\n        /* \"#utility.yul\":21812:21863   */\n      mstore\n        /* \"#utility.yul\":21695:21870   */\n      pop\n      jump\t// out\n        /* \"#utility.yul\":21876:22055   */\n    tag_387:\n        /* \"#utility.yul\":22016:22047   */\n      0x4572726f7221204e6f2042616c616e636520746f207769746864726177000000\n        /* \"#utility.yul\":22012:22013   */\n      0x00\n        /* \"#utility.yul\":22004:22010   */\n      dup3\n        /* \"#utility.yul\":22000:22014   */\n      add\n        /* \"#utility.yul\":21993:22048   */\n      mstore\n        /* \"#utility.yul\":21876:22055   */\n      pop\n      jump\t// out\n        /* \"#utility.yul\":22061:22281   */\n    tag_392:\n        /* \"#utility.yul\":22201:22235   */\n      0x455243313135353a206d696e7420746f20746865207a65726f20616464726573\n        /* \"#utility.yul\":22197:22198   */\n      0x00\n        /* \"#utility.yul\":22189:22195   */\n      dup3\n        /* \"#utility.yul\":22185:22199   */\n      add\n        /* \"#utility.yul\":22178:22236   */\n      mstore\n        /* \"#utility.yul\":22270:22273   */\n      0x7300000000000000000000000000000000000000000000000000000000000000\n        /* \"#utility.yul\":22265:22267   */\n      0x20\n        /* \"#utility.yul\":22257:22263   */\n      dup3\n        /* \"#utility.yul\":22253:22268   */\n      add\n        /* \"#utility.yul\":22246:22274   */\n      mstore\n        /* \"#utility.yul\":22061:22281   */\n      pop\n      jump\t// out\n        /* \"#utility.yul\":22287:22998   */\n    tag_253:\n        /* \"#utility.yul\":22326:22329   */\n      0x00\n        /* \"#utility.yul\":22364:22368   */\n      0x44\n        /* \"#utility.yul\":22346:22362   */\n      returndatasize\n        /* \"#utility.yul\":22343:22369   */\n      lt\n        /* \"#utility.yul\":22340:22379   */\n      iszero\n      tag_536\n      jumpi\n        /* \"#utility.yul\":22372:22377   */\n      jump(tag_535)\n        /* \"#utility.yul\":22340:22379   */\n    tag_536:\n        /* \"#utility.yul\":22401:22421   */\n      tag_537\n      tag_455\n      jump\t// in\n    tag_537:\n        /* \"#utility.yul\":22476:22477   */\n      0x04\n        /* \"#utility.yul\":22458:22474   */\n      returndatasize\n        /* \"#utility.yul\":22454:22478   */\n      sub\n        /* \"#utility.yul\":22451:22452   */\n      0x04\n        /* \"#utility.yul\":22445:22449   */\n      dup3\n        /* \"#utility.yul\":22430:22479   */\n      returndatacopy\n        /* \"#utility.yul\":22509:22513   */\n      dup1\n        /* \"#utility.yul\":22503:22514   */\n      mload\n        /* \"#utility.yul\":22608:22624   */\n      returndatasize\n        /* \"#utility.yul\":22601:22605   */\n      0x24\n        /* \"#utility.yul\":22593:22599   */\n      dup3\n        /* \"#utility.yul\":22589:22606   */\n      add\n        /* \"#utility.yul\":22586:22625   */\n      gt\n        /* \"#utility.yul\":22553:22571   */\n      0xffffffffffffffff\n        /* \"#utility.yul\":22545:22551   */\n      dup3\n        /* \"#utility.yul\":22542:22572   */\n      gt\n        /* \"#utility.yul\":22526:22639   */\n      or\n        /* \"#utility.yul\":22523:22669   */\n      iszero\n      tag_538\n      jumpi\n        /* \"#utility.yul\":22654:22659   */\n      pop\n      pop\n      jump(tag_535)\n        /* \"#utility.yul\":22523:22669   */\n    tag_538:\n        /* \"#utility.yul\":22700:22706   */\n      dup1\n        /* \"#utility.yul\":22694:22698   */\n      dup3\n        /* \"#utility.yul\":22690:22707   */\n      add\n        /* \"#utility.yul\":22736:22739   */\n      dup1\n        /* \"#utility.yul\":22730:22740   */\n      mload\n        /* \"#utility.yul\":22763:22781   */\n      0xffffffffffffffff\n        /* \"#utility.yul\":22755:22761   */\n      dup2\n        /* \"#utility.yul\":22752:22782   */\n      gt\n        /* \"#utility.yul\":22749:22792   */\n      iszero\n      tag_539\n      jumpi\n        /* \"#utility.yul\":22785:22790   */\n      pop\n      pop\n      pop\n      pop\n      jump(tag_535)\n        /* \"#utility.yul\":22749:22792   */\n    tag_539:\n        /* \"#utility.yul\":22833:22839   */\n      dup1\n        /* \"#utility.yul\":22826:22830   */\n      0x20\n        /* \"#utility.yul\":22821:22824   */\n      dup4\n        /* \"#utility.yul\":22817:22831   */\n      add\n        /* \"#utility.yul\":22813:22840   */\n      add\n        /* \"#utility.yul\":22892:22893   */\n      0x04\n        /* \"#utility.yul\":22874:22890   */\n      returndatasize\n        /* \"#utility.yul\":22870:22894   */\n      sub\n        /* \"#utility.yul\":22864:22868   */\n      dup6\n        /* \"#utility.yul\":22860:22895   */\n      add\n        /* \"#utility.yul\":22855:22858   */\n      dup2\n        /* \"#utility.yul\":22852:22896   */\n      gt\n        /* \"#utility.yul\":22849:22906   */\n      iszero\n      tag_540\n      jumpi\n        /* \"#utility.yul\":22899:22904   */\n      pop\n      pop\n      pop\n      pop\n      pop\n      jump(tag_535)\n        /* \"#utility.yul\":22849:22906   */\n    tag_540:\n        /* \"#utility.yul\":22916:22973   */\n      tag_541\n        /* \"#utility.yul\":22964:22970   */\n      dup3\n        /* \"#utility.yul\":22958:22962   */\n      0x20\n        /* \"#utility.yul\":22954:22971   */\n      add\n        /* \"#utility.yul\":22946:22952   */\n      dup6\n        /* \"#utility.yul\":22942:22972   */\n      add\n        /* \"#utility.yul\":22936:22940   */\n      dup7\n        /* \"#utility.yul\":22916:22973   */\n      tag_488\n      jump\t// in\n    tag_541:\n        /* \"#utility.yul\":22989:22992   */\n      dup3\n        /* \"#utility.yul\":22982:22992   */\n      swap6\n      pop\n        /* \"#utility.yul\":22330:22998   */\n      pop\n      pop\n      pop\n      pop\n      pop\n        /* \"#utility.yul\":22287:22998   */\n    tag_535:\n      swap1\n      jump\t// out\n        /* \"#utility.yul\":23004:23126   */\n    tag_278:\n        /* \"#utility.yul\":23077:23101   */\n      tag_543\n        /* \"#utility.yul\":23095:23100   */\n      dup2\n        /* \"#utility.yul\":23077:23101   */\n      tag_315\n      jump\t// in\n    tag_543:\n        /* \"#utility.yul\":23070:23075   */\n      dup2\n        /* \"#utility.yul\":23067:23102   */\n      eq\n        /* \"#utility.yul\":23057:23120   */\n      tag_544\n      jumpi\n        /* \"#utility.yul\":23116:23117   */\n      0x00\n        /* \"#utility.yul\":23113:23114   */\n      dup1\n        /* \"#utility.yul\":23106:23118   */\n      revert\n        /* \"#utility.yul\":23057:23120   */\n    tag_544:\n        /* \"#utility.yul\":23004:23126   */\n      pop\n      jump\t// out\n        /* \"#utility.yul\":23132:23270   */\n    tag_282:\n        /* \"#utility.yul\":23213:23245   */\n      tag_546\n        /* \"#utility.yul\":23239:23244   */\n      dup2\n        /* \"#utility.yul\":23213:23245   */\n      tag_311\n      jump\t// in\n    tag_546:\n        /* \"#utility.yul\":23206:23211   */\n      dup2\n        /* \"#utility.yul\":23203:23246   */\n      eq\n        /* \"#utility.yul\":23193:23264   */\n      tag_547\n      jumpi\n        /* \"#utility.yul\":23260:23261   */\n      0x00\n        /* \"#utility.yul\":23257:23258   */\n      dup1\n        /* \"#utility.yul\":23250:23262   */\n      revert\n        /* \"#utility.yul\":23193:23264   */\n    tag_547:\n        /* \"#utility.yul\":23132:23270   */\n      pop\n      jump\t// out\n        /* \"#utility.yul\":23276:23396   */\n    tag_286:\n        /* \"#utility.yul\":23348:23371   */\n      tag_549\n        /* \"#utility.yul\":23365:23370   */\n      dup2\n        /* \"#utility.yul\":23348:23371   */\n      tag_473\n      jump\t// in\n    tag_549:\n        /* \"#utility.yul\":23341:23346   */\n      dup2\n        /* \"#utility.yul\":23338:23372   */\n      eq\n        /* \"#utility.yul\":23328:23390   */\n      tag_550\n      jumpi\n        /* \"#utility.yul\":23386:23387   */\n      0x00\n        /* \"#utility.yul\":23383:23384   */\n      dup1\n        /* \"#utility.yul\":23376:23388   */\n      revert\n        /* \"#utility.yul\":23328:23390   */\n    tag_550:\n        /* \"#utility.yul\":23276:23396   */\n      pop\n      jump\t// out\n        /* \"#utility.yul\":23402:23524   */\n    tag_290:\n        /* \"#utility.yul\":23475:23499   */\n      tag_552\n        /* \"#utility.yul\":23493:23498   */\n      dup2\n        /* \"#utility.yul\":23475:23499   */\n      tag_396\n      jump\t// in\n    tag_552:\n        /* \"#utility.yul\":23468:23473   */\n      dup2\n        /* \"#utility.yul\":23465:23500   */\n      eq\n        /* \"#utility.yul\":23455:23518   */\n      tag_553\n      jumpi\n        /* \"#utility.yul\":23514:23515   */\n      0x00\n        /* \"#utility.yul\":23511:23512   */\n      dup1\n        /* \"#utility.yul\":23504:23516   */\n      revert\n        /* \"#utility.yul\":23455:23518   */\n    tag_553:\n        /* \"#utility.yul\":23402:23524   */\n      pop\n      jump\t// out\n\n    auxdata: 0xa2646970667358221220a09373a79fd6f1575b91ca17d2a750bddd197746e38a69f2a17158b12d8c5e8764736f6c63430008070033\n}\n",
				"bytecode": {
					"linkReferences": {},
					"object": "608060405260405180602001604052806000815250600290805190602001906200002b929190620001e8565b50604051806102800160405280600060ff168152602001600160ff168152602001600160ff168152602001600260ff168152602001600260ff168152602001600260ff168152602001600260ff168152602001600260ff168152602001600260ff168152602001600260ff168152602001600260ff168152602001600260ff168152602001600260ff168152602001600260ff168152602001600260ff168152602001600260ff168152602001600260ff168152602001600260ff168152602001600260ff168152602001600260ff1681525060039060146200011092919062000279565b506001600b60006101000a81548160ff0219169083151502179055503480156200013957600080fd5b506040516200299b3803806200299b83398181016040528101906200015f919062000448565b80600c9080519060200190620001779291906200031a565b5033600b60016101000a81548173ffffffffffffffffffffffffffffffffffffffff021916908373ffffffffffffffffffffffffffffffffffffffff16021790555060006004819055506001600581905550600060068190555060006007819055506000600881905550506200061d565b828054620001f6906200052e565b90600052602060002090601f0160209004810192826200021a576000855562000266565b82601f106200023557805160ff191683800117855562000266565b8280016001018555821562000266579182015b828111156200026557825182559160200191906001019062000248565b5b509050620002759190620003ab565b5090565b826014601f01602090048101928215620003075791602002820160005b83821115620002d657835183826101000a81548160ff021916908360ff160217905550926020019260010160208160000104928301926001030262000296565b8015620003055782816101000a81549060ff0219169055600101602081600001049283019260010302620002d6565b505b509050620003169190620003ab565b5090565b82805462000328906200052e565b90600052602060002090601f0160209004810192826200034c576000855562000398565b82601f106200036757805160ff191683800117855562000398565b8280016001018555821562000398579182015b82811115620003975782518255916020019190600101906200037a565b5b509050620003a79190620003ab565b5090565b5b80821115620003c6576000816000905550600101620003ac565b5090565b6000620003e1620003db84620004c2565b62000499565b9050828152602081018484840111156200040057620003ff620005fd565b5b6200040d848285620004f8565b509392505050565b600082601f8301126200042d576200042c620005f8565b5b81516200043f848260208601620003ca565b91505092915050565b60006020828403121562000461576200046062000607565b5b600082015167ffffffffffffffff81111562000482576200048162000602565b5b620004908482850162000415565b91505092915050565b6000620004a5620004b8565b9050620004b3828262000564565b919050565b6000604051905090565b600067ffffffffffffffff821115620004e057620004df620005c9565b5b620004eb826200060c565b9050602081019050919050565b60005b8381101562000518578082015181840152602081019050620004fb565b8381111562000528576000848401525b50505050565b600060028204905060018216806200054757607f821691505b602082108114156200055e576200055d6200059a565b5b50919050565b6200056f826200060c565b810181811067ffffffffffffffff82111715620005915762000590620005c9565b5b80604052505050565b7f4e487b7100000000000000000000000000000000000000000000000000000000600052602260045260246000fd5b7f4e487b7100000000000000000000000000000000000000000000000000000000600052604160045260246000fd5b600080fd5b600080fd5b600080fd5b600080fd5b6000601f19601f8301169050919050565b61236e806200062d6000396000f3fe6080604052600436106100a75760003560e01c80633d65df70116100645780633d65df701461019e57806360daa851146101cf578063aa90c726146101fc578063b4a99a4e14610213578063fd1ee54c1461023e578063fd6c3b1b1461027b576100a7565b80630390c11c146100ac5780630a67d2c7146100d75780631309a563146100f3578063154602591461011e57806332b61b4c146101355780633b66805914610173575b600080fd5b3480156100b857600080fd5b506100c16102b8565b6040516100ce9190611bce565b60405180910390f35b6100f160048036038101906100ec91906116e0565b610359565b005b3480156100ff57600080fd5b50610108610483565b6040516101159190611a51565b60405180910390f35b34801561012a57600080fd5b50610133610496565b005b34801561014157600080fd5b5061015c600480360381019061015791906116b3565b6105a0565b60405161016a929190611be9565b60405180910390f35b34801561017f57600080fd5b50610188610870565b6040516101959190611bce565b60405180910390f35b6101b860048036038101906101b391906116b3565b61090f565b6040516101c6929190611be9565b60405180910390f35b3480156101db57600080fd5b506101e4610b9c565b6040516101f393929190611c42565b60405180910390f35b34801561020857600080fd5b50610211610c4c565b005b34801561021f57600080fd5b50610228610d56565b60405161023591906119dc565b60405180910390f35b34801561024a57600080fd5b506102656004803603810190610260919061173a565b610d7c565b6040516102729190611c79565b60405180910390f35b34801561028757600080fd5b506102a2600480360381019061029d91906116b3565b610da6565b6040516102af9190611bce565b60405180910390f35b6000600b60019054906101000a900473ffffffffffffffffffffffffffffffffffffffff1673ffffffffffffffffffffffffffffffffffffffff166102fb610def565b73ffffffffffffffffffffffffffffffffffffffff1614610351576040517f08c379a000000000000000000000000000000000000000000000000000000000815260040161034890611b2e565b60405180910390fd5b600454905090565b600b60019054906101000a900473ffffffffffffffffffffffffffffffffffffffff1673ffffffffffffffffffffffffffffffffffffffff1661039a610def565b73ffffffffffffffffffffffffffffffffffffffff16146103f0576040517f08c379a00000000000000000000000000000000000000000000000000000000081526004016103e790611b2e565b60405180910390fd5b600047905060008111610438576040517f08c379a000000000000000000000000000000000000000000000000000000000815260040161042f90611b8e565b60405180910390fd5b8173ffffffffffffffffffffffffffffffffffffffff166108fc829081150290604051600060405180830381858888f1935050505015801561047e573d6000803e3d6000fd5b505050565b600b60009054906101000a900460ff1681565b600b60019054906101000a900473ffffffffffffffffffffffffffffffffffffffff1673ffffffffffffffffffffffffffffffffffffffff166104d7610def565b73ffffffffffffffffffffffffffffffffffffffff161461052d576040517f08c379a000000000000000000000000000000000000000000000000000000000815260040161052490611b2e565b60405180910390fd5b60011515600b60009054906101000a900460ff16151514610583576040517f08c379a000000000000000000000000000000000000000000000000000000000815260040161057a90611aee565b60405180910390fd5b6000600b60006101000a81548160ff021916908315150217905550565b60006060600b60019054906101000a900473ffffffffffffffffffffffffffffffffffffffff1673ffffffffffffffffffffffffffffffffffffffff166105e5610def565b73ffffffffffffffffffffffffffffffffffffffff161461063b576040517f08c379a000000000000000000000000000000000000000000000000000000000815260040161063290611b2e565b60405180910390fd5b60001515600b60009054906101000a900460ff16151514610691576040517f08c379a000000000000000000000000000000000000000000000000000000000815260040161068890611b4e565b60405180910390fd5b6103e8600454106106d7576040517f08c379a00000000000000000000000000000000000000000000000000000000081526004016106ce90611b6e565b60405180910390fd5b60006106e1610df7565b905061077b8482600554600280546106f890611df2565b80601f016020809104026020016040519081016040528092919081815260200182805461072490611df2565b80156107715780601f1061074657610100808354040283529160200191610771565b820191906000526020600020905b81548152906001019060200180831161075457829003601f168201915b505050505061110c565b6004600081548092919061078e90611e55565b919050555080600960008673ffffffffffffffffffffffffffffffffffffffff1673ffffffffffffffffffffffffffffffffffffffff168152602001908152602001600020819055508060028080546107e690611df2565b80601f016020809104026020016040519081016040528092919081815260200182805461081290611df2565b801561085f5780601f106108345761010080835404028352916020019161085f565b820191906000526020600020905b81548152906001019060200180831161084257829003601f168201915b505050505090509250925050915091565b6000600b60019054906101000a900473ffffffffffffffffffffffffffffffffffffffff1673ffffffffffffffffffffffffffffffffffffffff166108b3610def565b73ffffffffffffffffffffffffffffffffffffffff1614610909576040517f08c379a000000000000000000000000000000000000000000000000000000000815260040161090090611b2e565b60405180910390fd5b47905090565b6000606060001515600b60009054906101000a900460ff16151514610969576040517f08c379a000000000000000000000000000000000000000000000000000000000815260040161096090611b4e565b60405180910390fd5b6103e8600454106109af576040517f08c379a00000000000000000000000000000000000000000000000000000000081526004016109a690611b6e565b60405180910390fd5b601934146109f2576040517f08c379a00000000000000000000000000000000000000000000000000000000081526004016109e990611ace565b60405180910390fd5b60006109fc610df7565b9050610a96848260055460028054610a1390611df2565b80601f0160208091040260200160405190810160405280929190818152602001828054610a3f90611df2565b8015610a8c5780601f10610a6157610100808354040283529160200191610a8c565b820191906000526020600020905b815481529060010190602001808311610a6f57829003601f168201915b505050505061110c565b610aa7610aa1610def565b346112a2565b60046000815480929190610aba90611e55565b919050555080600960008673ffffffffffffffffffffffffffffffffffffffff1673ffffffffffffffffffffffffffffffffffffffff16815260200190815260200160002081905550806002808054610b1290611df2565b80601f0160208091040260200160405190810160405280929190818152602001828054610b3e90611df2565b8015610b8b5780601f10610b6057610100808354040283529160200191610b8b565b820191906000526020600020905b815481529060010190602001808311610b6e57829003601f168201915b505050505090509250925050915091565b6000806000600b60019054906101000a900473ffffffffffffffffffffffffffffffffffffffff1673ffffffffffffffffffffffffffffffffffffffff16610be2610def565b73ffffffffffffffffffffffffffffffffffffffff1614610c38576040517f08c379a0000000000000000000000000000000000000000000000000000000008152600401610c2f90611b2e565b60405180910390fd5b600654600754600854925092509250909192565b600b60019054906101000a900473ffffffffffffffffffffffffffffffffffffffff1673ffffffffffffffffffffffffffffffffffffffff16610c8d610def565b73ffffffffffffffffffffffffffffffffffffffff1614610ce3576040517f08c379a0000000000000000000000000000000000000000000000000000000008152600401610cda90611b2e565b60405180910390fd5b60001515600b60009054906101000a900460ff16151514610d39576040517f08c379a0000000000000000000000000000000000000000000000000000000008152600401610d3090611b0e565b60405180910390fd5b6001600b60006101000a81548160ff021916908315150217905550565b600b60019054906101000a900473ffffffffffffffffffffffffffffffffffffffff1681565b60038160148110610d8c57600080fd5b60209182820401919006915054906101000a900460ff1681565b6000600960008373ffffffffffffffffffffffffffffffffffffffff1673ffffffffffffffffffffffffffffffffffffffff168152602001908152602001600020549050919050565b600033905090565b6000801515600b60009054906101000a900460ff16151514610e4e576040517f08c379a0000000000000000000000000000000000000000000000000000000008152600401610e4590611b4e565b60405180910390fd5b6000610e586112fc565b9050600060038260148110610e7057610e6f611f8a565b5b602091828204019190069054906101000a900460ff1660ff169050600081148015610e9d57506032600654105b15610f10576040518060400160405280600781526020017f4469616d6f6e640000000000000000000000000000000000000000000000000081525060029080519060200190610eed9291906115bc565b5060066000815480929190610f0190611e55565b91905055508092505050611109565b60018111158015610f2357506064600754105b15610f96576040518060400160405280600481526020017f476f6c640000000000000000000000000000000000000000000000000000000081525060029080519060200190610f739291906115bc565b5060076000815480929190610f8790611e55565b91905055508092505050611109565b60028111158015610fab575061035260085411155b1561101e576040518060400160405280600681526020017f53696c766572000000000000000000000000000000000000000000000000000081525060029080519060200190610ffb9291906115bc565b506008600081548092919061100f90611e55565b91905055508092505050611109565b6064600754101561109b57600190506040518060400160405280600481526020017f476f6c6400000000000000000000000000000000000000000000000000000000815250600290805190602001906110789291906115bc565b506007600081548092919061108c90611e55565b91905055508092505050611109565b600090506040518060400160405280600781526020017f4469616d6f6e6400000000000000000000000000000000000000000000000000815250600290805190602001906110ea9291906115bc565b50600660008154809291906110fe90611e55565b919050555080925050505b90565b600073ffffffffffffffffffffffffffffffffffffffff168473ffffffffffffffffffffffffffffffffffffffff16141561117c576040517f08c379a000000000000000000000000000000000000000000000000000000000815260040161117390611bae565b60405180910390fd5b6000611186610def565b90506111a78160008761119888611340565b6111a188611340565b876113ba565b8260008086815260200190815260200160002060008773ffffffffffffffffffffffffffffffffffffffff1673ffffffffffffffffffffffffffffffffffffffff16815260200190815260200160002060008282546112069190611cd6565b925050819055508473ffffffffffffffffffffffffffffffffffffffff16600073ffffffffffffffffffffffffffffffffffffffff168273ffffffffffffffffffffffffffffffffffffffff167fc3d58168c5ae7397731d063d5bbf3d657854427343f4c083240f7aacaa2d0f628787604051611284929190611c19565b60405180910390a461129b816000878787876113c2565b5050505050565b80600a60008473ffffffffffffffffffffffffffffffffffffffff1673ffffffffffffffffffffffffffffffffffffffff16815260200190815260200160002060008282546112f19190611cd6565b925050819055505050565b600080601442336040516020016113149291906119b0565b6040516020818303038152906040528051906020012060001c6113379190611ecc565b90508091505090565b60606000600167ffffffffffffffff81111561135f5761135e611fb9565b5b60405190808252806020026020018201604052801561138d5781602001602082028036833780820191505090505b50905082816000815181106113a5576113a4611f8a565b5b60200260200101818152505080915050919050565b505050505050565b6113e18473ffffffffffffffffffffffffffffffffffffffff166115a9565b156115a1578373ffffffffffffffffffffffffffffffffffffffff1663f23a6e6187878686866040518663ffffffff1660e01b81526004016114279594939291906119f7565b602060405180830381600087803b15801561144157600080fd5b505af192505050801561147257506040513d601f19601f8201168201806040525081019061146f919061170d565b60015b6115185761147e611fe8565b806308c379a014156114db5750611493612246565b8061149e57506114dd565b806040517f08c379a00000000000000000000000000000000000000000000000000000000081526004016114d29190611a6c565b60405180910390fd5b505b6040517f08c379a000000000000000000000000000000000000000000000000000000000815260040161150f90611a8e565b60405180910390fd5b63f23a6e6160e01b7bffffffffffffffffffffffffffffffffffffffffffffffffffffffff1916817bffffffffffffffffffffffffffffffffffffffffffffffffffffffff19161461159f576040517f08c379a000000000000000000000000000000000000000000000000000000000815260040161159690611aae565b60405180910390fd5b505b505050505050565b600080823b905060008111915050919050565b8280546115c890611df2565b90600052602060002090601f0160209004810192826115ea5760008555611631565b82601f1061160357805160ff1916838001178555611631565b82800160010185558215611631579182015b82811115611630578251825591602001919060010190611615565b5b50905061163e9190611642565b5090565b5b8082111561165b576000816000905550600101611643565b5090565b60008135905061166e816122dc565b92915050565b600081359050611683816122f3565b92915050565b6000815190506116988161230a565b92915050565b6000813590506116ad81612321565b92915050565b6000602082840312156116c9576116c861200a565b5b60006116d78482850161165f565b91505092915050565b6000602082840312156116f6576116f561200a565b5b600061170484828501611674565b91505092915050565b6000602082840312156117235761172261200a565b5b600061173184828501611689565b91505092915050565b6000602082840312156117505761174f61200a565b5b600061175e8482850161169e565b91505092915050565b61177081611d3e565b82525050565b61177f81611d2c565b82525050565b61179661179182611d2c565b611e9e565b82525050565b6117a581611d50565b82525050565b60006117b682611c9e565b6117c08185611cb4565b93506117d0818560208601611dbf565b6117d98161200f565b840191505092915050565b60006117ef82611ca9565b6117f98185611cc5565b9350611809818560208601611dbf565b6118128161200f565b840191505092915050565b600061182a603483611cc5565b91506118358261203a565b604082019050919050565b600061184d602883611cc5565b915061185882612089565b604082019050919050565b6000611870601983611cc5565b915061187b826120d8565b602082019050919050565b6000611893601b83611cc5565b915061189e82612101565b602082019050919050565b60006118b6601b83611cc5565b91506118c18261212a565b602082019050919050565b60006118d9601c83611cc5565b91506118e482612153565b602082019050919050565b60006118fc601b83611cc5565b91506119078261217c565b602082019050919050565b600061191f601983611cc5565b915061192a826121a5565b602082019050919050565b6000611942601d83611cc5565b915061194d826121ce565b602082019050919050565b6000611965602183611cc5565b9150611970826121f7565b604082019050919050565b61198481611da8565b82525050565b61199b61199682611da8565b611ec2565b82525050565b6119aa81611db2565b82525050565b60006119bc828561198a565b6020820191506119cc8284611785565b6014820191508190509392505050565b60006020820190506119f16000830184611767565b92915050565b600060a082019050611a0c6000830188611776565b611a196020830187611776565b611a26604083018661197b565b611a33606083018561197b565b8181036080830152611a4581846117ab565b90509695505050505050565b6000602082019050611a66600083018461179c565b92915050565b60006020820190508181036000830152611a8681846117e4565b905092915050565b60006020820190508181036000830152611aa78161181d565b9050919050565b60006020820190508181036000830152611ac781611840565b9050919050565b60006020820190508181036000830152611ae781611863565b9050919050565b60006020820190508181036000830152611b0781611886565b9050919050565b60006020820190508181036000830152611b27816118a9565b9050919050565b60006020820190508181036000830152611b47816118cc565b9050919050565b60006020820190508181036000830152611b67816118ef565b9050919050565b60006020820190508181036000830152611b8781611912565b9050919050565b60006020820190508181036000830152611ba781611935565b9050919050565b60006020820190508181036000830152611bc781611958565b9050919050565b6000602082019050611be3600083018461197b565b92915050565b6000604082019050611bfe600083018561197b565b8181036020830152611c1081846117e4565b90509392505050565b6000604082019050611c2e600083018561197b565b611c3b602083018461197b565b9392505050565b6000606082019050611c57600083018661197b565b611c64602083018561197b565b611c71604083018461197b565b949350505050565b6000602082019050611c8e60008301846119a1565b92915050565b6000604051905090565b600081519050919050565b600081519050919050565b600082825260208201905092915050565b600082825260208201905092915050565b6000611ce182611da8565b9150611cec83611da8565b9250827fffffffffffffffffffffffffffffffffffffffffffffffffffffffffffffffff03821115611d2157611d20611efd565b5b828201905092915050565b6000611d3782611d88565b9050919050565b6000611d4982611d88565b9050919050565b60008115159050919050565b60007fffffffff0000000000000000000000000000000000000000000000000000000082169050919050565b600073ffffffffffffffffffffffffffffffffffffffff82169050919050565b6000819050919050565b600060ff82169050919050565b60005b83811015611ddd578082015181840152602081019050611dc2565b83811115611dec576000848401525b50505050565b60006002820490506001821680611e0a57607f821691505b60208210811415611e1e57611e1d611f5b565b5b50919050565b611e2d8261200f565b810181811067ffffffffffffffff82111715611e4c57611e4b611fb9565b5b80604052505050565b6000611e6082611da8565b91507fffffffffffffffffffffffffffffffffffffffffffffffffffffffffffffffff821415611e9357611e92611efd565b5b600182019050919050565b6000611ea982611eb0565b9050919050565b6000611ebb82612020565b9050919050565b6000819050919050565b6000611ed782611da8565b9150611ee283611da8565b925082611ef257611ef1611f2c565b5b828206905092915050565b7f4e487b7100000000000000000000000000000000000000000000000000000000600052601160045260246000fd5b7f4e487b7100000000000000000000000000000000000000000000000000000000600052601260045260246000fd5b7f4e487b7100000000000000000000000000000000000000000000000000000000600052602260045260246000fd5b7f4e487b7100000000000000000000000000000000000000000000000000000000600052603260045260246000fd5b7f4e487b7100000000000000000000000000000000000000000000000000000000600052604160045260246000fd5b600060033d11156120075760046000803e61200460005161202d565b90505b90565b600080fd5b6000601f19601f8301169050919050565b60008160601b9050919050565b60008160e01c9050919050565b7f455243313135353a207472616e7366657220746f206e6f6e204552433131353560008201527f526563656976657220696d706c656d656e746572000000000000000000000000602082015250565b7f455243313135353a204552433131353552656365697665722072656a6563746560008201527f6420746f6b656e73000000000000000000000000000000000000000000000000602082015250565b7f42616c616e6365206d757374206265203235204d617469637300000000000000600082015250565b7f44726f707369746520697320616c72656164792052756e6e696e670000000000600082015250565b7f44726f707369746520697320616c72656164792053746f707065640000000000600082015250565b7f4f6e6c79204e46542d4553204f776e65722063616e2041636365737300000000600082015250565b7f44726f7073697465206973206e6f74204f70656e6564205965742e0000000000600082015250565b7f4d6178204d696e74696e67204c696d6974207265616368656400000000000000600082015250565b7f4572726f7221204e6f2042616c616e636520746f207769746864726177000000600082015250565b7f455243313135353a206d696e7420746f20746865207a65726f2061646472657360008201527f7300000000000000000000000000000000000000000000000000000000000000602082015250565b600060443d1015612256576122d9565b61225e611c94565b60043d036004823e80513d602482011167ffffffffffffffff821117156122865750506122d9565b808201805167ffffffffffffffff8111156122a457505050506122d9565b80602083010160043d0385018111156122c15750505050506122d9565b6122d082602001850186611e24565b82955050505050505b90565b6122e581611d2c565b81146122f057600080fd5b50565b6122fc81611d3e565b811461230757600080fd5b50565b61231381611d5c565b811461231e57600080fd5b50565b61232a81611da8565b811461233557600080fd5b5056fea2646970667358221220a09373a79fd6f1575b91ca17d2a750bddd197746e38a69f2a17158b12d8c5e8764736f6c63430008070033",
					"opcodes": "PUSH1 0x80 PUSH1 0x40 MSTORE PUSH1 0x40 MLOAD DUP1 PUSH1 0x20 ADD PUSH1 0x40 MSTORE DUP1 PUSH1 0x0 DUP2 MSTORE POP PUSH1 0x2 SWAP1 DUP1 MLOAD SWAP1 PUSH1 0x20 ADD SWAP1 PUSH3 0x2B SWAP3 SWAP2 SWAP1 PUSH3 0x1E8 JUMP JUMPDEST POP PUSH1 0x40 MLOAD DUP1 PUSH2 0x280 ADD PUSH1 0x40 MSTORE DUP1 PUSH1 0x0 PUSH1 0xFF AND DUP2 MSTORE PUSH1 0x20 ADD PUSH1 0x1 PUSH1 0xFF AND DUP2 MSTORE PUSH1 0x20 ADD PUSH1 0x1 PUSH1 0xFF AND DUP2 MSTORE PUSH1 0x20 ADD PUSH1 0x2 PUSH1 0xFF AND DUP2 MSTORE PUSH1 0x20 ADD PUSH1 0x2 PUSH1 0xFF AND DUP2 MSTORE PUSH1 0x20 ADD PUSH1 0x2 PUSH1 0xFF AND DUP2 MSTORE PUSH1 0x20 ADD PUSH1 0x2 PUSH1 0xFF AND DUP2 MSTORE PUSH1 0x20 ADD PUSH1 0x2 PUSH1 0xFF AND DUP2 MSTORE PUSH1 0x20 ADD PUSH1 0x2 PUSH1 0xFF AND DUP2 MSTORE PUSH1 0x20 ADD PUSH1 0x2 PUSH1 0xFF AND DUP2 MSTORE PUSH1 0x20 ADD PUSH1 0x2 PUSH1 0xFF AND DUP2 MSTORE PUSH1 0x20 ADD PUSH1 0x2 PUSH1 0xFF AND DUP2 MSTORE PUSH1 0x20 ADD PUSH1 0x2 PUSH1 0xFF AND DUP2 MSTORE PUSH1 0x20 ADD PUSH1 0x2 PUSH1 0xFF AND DUP2 MSTORE PUSH1 0x20 ADD PUSH1 0x2 PUSH1 0xFF AND DUP2 MSTORE PUSH1 0x20 ADD PUSH1 0x2 PUSH1 0xFF AND DUP2 MSTORE PUSH1 0x20 ADD PUSH1 0x2 PUSH1 0xFF AND DUP2 MSTORE PUSH1 0x20 ADD PUSH1 0x2 PUSH1 0xFF AND DUP2 MSTORE PUSH1 0x20 ADD PUSH1 0x2 PUSH1 0xFF AND DUP2 MSTORE PUSH1 0x20 ADD PUSH1 0x2 PUSH1 0xFF AND DUP2 MSTORE POP PUSH1 0x3 SWAP1 PUSH1 0x14 PUSH3 0x110 SWAP3 SWAP2 SWAP1 PUSH3 0x279 JUMP JUMPDEST POP PUSH1 0x1 PUSH1 0xB PUSH1 0x0 PUSH2 0x100 EXP DUP2 SLOAD DUP2 PUSH1 0xFF MUL NOT AND SWAP1 DUP4 ISZERO ISZERO MUL OR SWAP1 SSTORE POP CALLVALUE DUP1 ISZERO PUSH3 0x139 JUMPI PUSH1 0x0 DUP1 REVERT JUMPDEST POP PUSH1 0x40 MLOAD PUSH3 0x299B CODESIZE SUB DUP1 PUSH3 0x299B DUP4 CODECOPY DUP2 DUP2 ADD PUSH1 0x40 MSTORE DUP2 ADD SWAP1 PUSH3 0x15F SWAP2 SWAP1 PUSH3 0x448 JUMP JUMPDEST DUP1 PUSH1 0xC SWAP1 DUP1 MLOAD SWAP1 PUSH1 0x20 ADD SWAP1 PUSH3 0x177 SWAP3 SWAP2 SWAP1 PUSH3 0x31A JUMP JUMPDEST POP CALLER PUSH1 0xB PUSH1 0x1 PUSH2 0x100 EXP DUP2 SLOAD DUP2 PUSH20 0xFFFFFFFFFFFFFFFFFFFFFFFFFFFFFFFFFFFFFFFF MUL NOT AND SWAP1 DUP4 PUSH20 0xFFFFFFFFFFFFFFFFFFFFFFFFFFFFFFFFFFFFFFFF AND MUL OR SWAP1 SSTORE POP PUSH1 0x0 PUSH1 0x4 DUP2 SWAP1 SSTORE POP PUSH1 0x1 PUSH1 0x5 DUP2 SWAP1 SSTORE POP PUSH1 0x0 PUSH1 0x6 DUP2 SWAP1 SSTORE POP PUSH1 0x0 PUSH1 0x7 DUP2 SWAP1 SSTORE POP PUSH1 0x0 PUSH1 0x8 DUP2 SWAP1 SSTORE POP POP PUSH3 0x61D JUMP JUMPDEST DUP3 DUP1 SLOAD PUSH3 0x1F6 SWAP1 PUSH3 0x52E JUMP JUMPDEST SWAP1 PUSH1 0x0 MSTORE PUSH1 0x20 PUSH1 0x0 KECCAK256 SWAP1 PUSH1 0x1F ADD PUSH1 0x20 SWAP1 DIV DUP2 ADD SWAP3 DUP3 PUSH3 0x21A JUMPI PUSH1 0x0 DUP6 SSTORE PUSH3 0x266 JUMP JUMPDEST DUP3 PUSH1 0x1F LT PUSH3 0x235 JUMPI DUP1 MLOAD PUSH1 0xFF NOT AND DUP4 DUP1 ADD OR DUP6 SSTORE PUSH3 0x266 JUMP JUMPDEST DUP3 DUP1 ADD PUSH1 0x1 ADD DUP6 SSTORE DUP3 ISZERO PUSH3 0x266 JUMPI SWAP2 DUP3 ADD JUMPDEST DUP3 DUP2 GT ISZERO PUSH3 0x265 JUMPI DUP3 MLOAD DUP3 SSTORE SWAP2 PUSH1 0x20 ADD SWAP2 SWAP1 PUSH1 0x1 ADD SWAP1 PUSH3 0x248 JUMP JUMPDEST JUMPDEST POP SWAP1 POP PUSH3 0x275 SWAP2 SWAP1 PUSH3 0x3AB JUMP JUMPDEST POP SWAP1 JUMP JUMPDEST DUP3 PUSH1 0x14 PUSH1 0x1F ADD PUSH1 0x20 SWAP1 DIV DUP2 ADD SWAP3 DUP3 ISZERO PUSH3 0x307 JUMPI SWAP2 PUSH1 0x20 MUL DUP3 ADD PUSH1 0x0 JUMPDEST DUP4 DUP3 GT ISZERO PUSH3 0x2D6 JUMPI DUP4 MLOAD DUP4 DUP3 PUSH2 0x100 EXP DUP2 SLOAD DUP2 PUSH1 0xFF MUL NOT AND SWAP1 DUP4 PUSH1 0xFF AND MUL OR SWAP1 SSTORE POP SWAP3 PUSH1 0x20 ADD SWAP3 PUSH1 0x1 ADD PUSH1 0x20 DUP2 PUSH1 0x0 ADD DIV SWAP3 DUP4 ADD SWAP3 PUSH1 0x1 SUB MUL PUSH3 0x296 JUMP JUMPDEST DUP1 ISZERO PUSH3 0x305 JUMPI DUP3 DUP2 PUSH2 0x100 EXP DUP2 SLOAD SWAP1 PUSH1 0xFF MUL NOT AND SWAP1 SSTORE PUSH1 0x1 ADD PUSH1 0x20 DUP2 PUSH1 0x0 ADD DIV SWAP3 DUP4 ADD SWAP3 PUSH1 0x1 SUB MUL PUSH3 0x2D6 JUMP JUMPDEST POP JUMPDEST POP SWAP1 POP PUSH3 0x316 SWAP2 SWAP1 PUSH3 0x3AB JUMP JUMPDEST POP SWAP1 JUMP JUMPDEST DUP3 DUP1 SLOAD PUSH3 0x328 SWAP1 PUSH3 0x52E JUMP JUMPDEST SWAP1 PUSH1 0x0 MSTORE PUSH1 0x20 PUSH1 0x0 KECCAK256 SWAP1 PUSH1 0x1F ADD PUSH1 0x20 SWAP1 DIV DUP2 ADD SWAP3 DUP3 PUSH3 0x34C JUMPI PUSH1 0x0 DUP6 SSTORE PUSH3 0x398 JUMP JUMPDEST DUP3 PUSH1 0x1F LT PUSH3 0x367 JUMPI DUP1 MLOAD PUSH1 0xFF NOT AND DUP4 DUP1 ADD OR DUP6 SSTORE PUSH3 0x398 JUMP JUMPDEST DUP3 DUP1 ADD PUSH1 0x1 ADD DUP6 SSTORE DUP3 ISZERO PUSH3 0x398 JUMPI SWAP2 DUP3 ADD JUMPDEST DUP3 DUP2 GT ISZERO PUSH3 0x397 JUMPI DUP3 MLOAD DUP3 SSTORE SWAP2 PUSH1 0x20 ADD SWAP2 SWAP1 PUSH1 0x1 ADD SWAP1 PUSH3 0x37A JUMP JUMPDEST JUMPDEST POP SWAP1 POP PUSH3 0x3A7 SWAP2 SWAP1 PUSH3 0x3AB JUMP JUMPDEST POP SWAP1 JUMP JUMPDEST JUMPDEST DUP1 DUP3 GT ISZERO PUSH3 0x3C6 JUMPI PUSH1 0x0 DUP2 PUSH1 0x0 SWAP1 SSTORE POP PUSH1 0x1 ADD PUSH3 0x3AC JUMP JUMPDEST POP SWAP1 JUMP JUMPDEST PUSH1 0x0 PUSH3 0x3E1 PUSH3 0x3DB DUP5 PUSH3 0x4C2 JUMP JUMPDEST PUSH3 0x499 JUMP JUMPDEST SWAP1 POP DUP3 DUP2 MSTORE PUSH1 0x20 DUP2 ADD DUP5 DUP5 DUP5 ADD GT ISZERO PUSH3 0x400 JUMPI PUSH3 0x3FF PUSH3 0x5FD JUMP JUMPDEST JUMPDEST PUSH3 0x40D DUP5 DUP3 DUP6 PUSH3 0x4F8 JUMP JUMPDEST POP SWAP4 SWAP3 POP POP POP JUMP JUMPDEST PUSH1 0x0 DUP3 PUSH1 0x1F DUP4 ADD SLT PUSH3 0x42D JUMPI PUSH3 0x42C PUSH3 0x5F8 JUMP JUMPDEST JUMPDEST DUP2 MLOAD PUSH3 0x43F DUP5 DUP3 PUSH1 0x20 DUP7 ADD PUSH3 0x3CA JUMP JUMPDEST SWAP2 POP POP SWAP3 SWAP2 POP POP JUMP JUMPDEST PUSH1 0x0 PUSH1 0x20 DUP3 DUP5 SUB SLT ISZERO PUSH3 0x461 JUMPI PUSH3 0x460 PUSH3 0x607 JUMP JUMPDEST JUMPDEST PUSH1 0x0 DUP3 ADD MLOAD PUSH8 0xFFFFFFFFFFFFFFFF DUP2 GT ISZERO PUSH3 0x482 JUMPI PUSH3 0x481 PUSH3 0x602 JUMP JUMPDEST JUMPDEST PUSH3 0x490 DUP5 DUP3 DUP6 ADD PUSH3 0x415 JUMP JUMPDEST SWAP2 POP POP SWAP3 SWAP2 POP POP JUMP JUMPDEST PUSH1 0x0 PUSH3 0x4A5 PUSH3 0x4B8 JUMP JUMPDEST SWAP1 POP PUSH3 0x4B3 DUP3 DUP3 PUSH3 0x564 JUMP JUMPDEST SWAP2 SWAP1 POP JUMP JUMPDEST PUSH1 0x0 PUSH1 0x40 MLOAD SWAP1 POP SWAP1 JUMP JUMPDEST PUSH1 0x0 PUSH8 0xFFFFFFFFFFFFFFFF DUP3 GT ISZERO PUSH3 0x4E0 JUMPI PUSH3 0x4DF PUSH3 0x5C9 JUMP JUMPDEST JUMPDEST PUSH3 0x4EB DUP3 PUSH3 0x60C JUMP JUMPDEST SWAP1 POP PUSH1 0x20 DUP2 ADD SWAP1 POP SWAP2 SWAP1 POP JUMP JUMPDEST PUSH1 0x0 JUMPDEST DUP4 DUP2 LT ISZERO PUSH3 0x518 JUMPI DUP1 DUP3 ADD MLOAD DUP2 DUP5 ADD MSTORE PUSH1 0x20 DUP2 ADD SWAP1 POP PUSH3 0x4FB JUMP JUMPDEST DUP4 DUP2 GT ISZERO PUSH3 0x528 JUMPI PUSH1 0x0 DUP5 DUP5 ADD MSTORE JUMPDEST POP POP POP POP JUMP JUMPDEST PUSH1 0x0 PUSH1 0x2 DUP3 DIV SWAP1 POP PUSH1 0x1 DUP3 AND DUP1 PUSH3 0x547 JUMPI PUSH1 0x7F DUP3 AND SWAP2 POP JUMPDEST PUSH1 0x20 DUP3 LT DUP2 EQ ISZERO PUSH3 0x55E JUMPI PUSH3 0x55D PUSH3 0x59A JUMP JUMPDEST JUMPDEST POP SWAP2 SWAP1 POP JUMP JUMPDEST PUSH3 0x56F DUP3 PUSH3 0x60C JUMP JUMPDEST DUP2 ADD DUP2 DUP2 LT PUSH8 0xFFFFFFFFFFFFFFFF DUP3 GT OR ISZERO PUSH3 0x591 JUMPI PUSH3 0x590 PUSH3 0x5C9 JUMP JUMPDEST JUMPDEST DUP1 PUSH1 0x40 MSTORE POP POP POP JUMP JUMPDEST PUSH32 0x4E487B7100000000000000000000000000000000000000000000000000000000 PUSH1 0x0 MSTORE PUSH1 0x22 PUSH1 0x4 MSTORE PUSH1 0x24 PUSH1 0x0 REVERT JUMPDEST PUSH32 0x4E487B7100000000000000000000000000000000000000000000000000000000 PUSH1 0x0 MSTORE PUSH1 0x41 PUSH1 0x4 MSTORE PUSH1 0x24 PUSH1 0x0 REVERT JUMPDEST PUSH1 0x0 DUP1 REVERT JUMPDEST PUSH1 0x0 DUP1 REVERT JUMPDEST PUSH1 0x0 DUP1 REVERT JUMPDEST PUSH1 0x0 DUP1 REVERT JUMPDEST PUSH1 0x0 PUSH1 0x1F NOT PUSH1 0x1F DUP4 ADD AND SWAP1 POP SWAP2 SWAP1 POP JUMP JUMPDEST PUSH2 0x236E DUP1 PUSH3 0x62D PUSH1 0x0 CODECOPY PUSH1 0x0 RETURN INVALID PUSH1 0x80 PUSH1 0x40 MSTORE PUSH1 0x4 CALLDATASIZE LT PUSH2 0xA7 JUMPI PUSH1 0x0 CALLDATALOAD PUSH1 0xE0 SHR DUP1 PUSH4 0x3D65DF70 GT PUSH2 0x64 JUMPI DUP1 PUSH4 0x3D65DF70 EQ PUSH2 0x19E JUMPI DUP1 PUSH4 0x60DAA851 EQ PUSH2 0x1CF JUMPI DUP1 PUSH4 0xAA90C726 EQ PUSH2 0x1FC JUMPI DUP1 PUSH4 0xB4A99A4E EQ PUSH2 0x213 JUMPI DUP1 PUSH4 0xFD1EE54C EQ PUSH2 0x23E JUMPI DUP1 PUSH4 0xFD6C3B1B EQ PUSH2 0x27B JUMPI PUSH2 0xA7 JUMP JUMPDEST DUP1 PUSH4 0x390C11C EQ PUSH2 0xAC JUMPI DUP1 PUSH4 0xA67D2C7 EQ PUSH2 0xD7 JUMPI DUP1 PUSH4 0x1309A563 EQ PUSH2 0xF3 JUMPI DUP1 PUSH4 0x15460259 EQ PUSH2 0x11E JUMPI DUP1 PUSH4 0x32B61B4C EQ PUSH2 0x135 JUMPI DUP1 PUSH4 0x3B668059 EQ PUSH2 0x173 JUMPI JUMPDEST PUSH1 0x0 DUP1 REVERT JUMPDEST CALLVALUE DUP1 ISZERO PUSH2 0xB8 JUMPI PUSH1 0x0 DUP1 REVERT JUMPDEST POP PUSH2 0xC1 PUSH2 0x2B8 JUMP JUMPDEST PUSH1 0x40 MLOAD PUSH2 0xCE SWAP2 SWAP1 PUSH2 0x1BCE JUMP JUMPDEST PUSH1 0x40 MLOAD DUP1 SWAP2 SUB SWAP1 RETURN JUMPDEST PUSH2 0xF1 PUSH1 0x4 DUP1 CALLDATASIZE SUB DUP2 ADD SWAP1 PUSH2 0xEC SWAP2 SWAP1 PUSH2 0x16E0 JUMP JUMPDEST PUSH2 0x359 JUMP JUMPDEST STOP JUMPDEST CALLVALUE DUP1 ISZERO PUSH2 0xFF JUMPI PUSH1 0x0 DUP1 REVERT JUMPDEST POP PUSH2 0x108 PUSH2 0x483 JUMP JUMPDEST PUSH1 0x40 MLOAD PUSH2 0x115 SWAP2 SWAP1 PUSH2 0x1A51 JUMP JUMPDEST PUSH1 0x40 MLOAD DUP1 SWAP2 SUB SWAP1 RETURN JUMPDEST CALLVALUE DUP1 ISZERO PUSH2 0x12A JUMPI PUSH1 0x0 DUP1 REVERT JUMPDEST POP PUSH2 0x133 PUSH2 0x496 JUMP JUMPDEST STOP JUMPDEST CALLVALUE DUP1 ISZERO PUSH2 0x141 JUMPI PUSH1 0x0 DUP1 REVERT JUMPDEST POP PUSH2 0x15C PUSH1 0x4 DUP1 CALLDATASIZE SUB DUP2 ADD SWAP1 PUSH2 0x157 SWAP2 SWAP1 PUSH2 0x16B3 JUMP JUMPDEST PUSH2 0x5A0 JUMP JUMPDEST PUSH1 0x40 MLOAD PUSH2 0x16A SWAP3 SWAP2 SWAP1 PUSH2 0x1BE9 JUMP JUMPDEST PUSH1 0x40 MLOAD DUP1 SWAP2 SUB SWAP1 RETURN JUMPDEST CALLVALUE DUP1 ISZERO PUSH2 0x17F JUMPI PUSH1 0x0 DUP1 REVERT JUMPDEST POP PUSH2 0x188 PUSH2 0x870 JUMP JUMPDEST PUSH1 0x40 MLOAD PUSH2 0x195 SWAP2 SWAP1 PUSH2 0x1BCE JUMP JUMPDEST PUSH1 0x40 MLOAD DUP1 SWAP2 SUB SWAP1 RETURN JUMPDEST PUSH2 0x1B8 PUSH1 0x4 DUP1 CALLDATASIZE SUB DUP2 ADD SWAP1 PUSH2 0x1B3 SWAP2 SWAP1 PUSH2 0x16B3 JUMP JUMPDEST PUSH2 0x90F JUMP JUMPDEST PUSH1 0x40 MLOAD PUSH2 0x1C6 SWAP3 SWAP2 SWAP1 PUSH2 0x1BE9 JUMP JUMPDEST PUSH1 0x40 MLOAD DUP1 SWAP2 SUB SWAP1 RETURN JUMPDEST CALLVALUE DUP1 ISZERO PUSH2 0x1DB JUMPI PUSH1 0x0 DUP1 REVERT JUMPDEST POP PUSH2 0x1E4 PUSH2 0xB9C JUMP JUMPDEST PUSH1 0x40 MLOAD PUSH2 0x1F3 SWAP4 SWAP3 SWAP2 SWAP1 PUSH2 0x1C42 JUMP JUMPDEST PUSH1 0x40 MLOAD DUP1 SWAP2 SUB SWAP1 RETURN JUMPDEST CALLVALUE DUP1 ISZERO PUSH2 0x208 JUMPI PUSH1 0x0 DUP1 REVERT JUMPDEST POP PUSH2 0x211 PUSH2 0xC4C JUMP JUMPDEST STOP JUMPDEST CALLVALUE DUP1 ISZERO PUSH2 0x21F JUMPI PUSH1 0x0 DUP1 REVERT JUMPDEST POP PUSH2 0x228 PUSH2 0xD56 JUMP JUMPDEST PUSH1 0x40 MLOAD PUSH2 0x235 SWAP2 SWAP1 PUSH2 0x19DC JUMP JUMPDEST PUSH1 0x40 MLOAD DUP1 SWAP2 SUB SWAP1 RETURN JUMPDEST CALLVALUE DUP1 ISZERO PUSH2 0x24A JUMPI PUSH1 0x0 DUP1 REVERT JUMPDEST POP PUSH2 0x265 PUSH1 0x4 DUP1 CALLDATASIZE SUB DUP2 ADD SWAP1 PUSH2 0x260 SWAP2 SWAP1 PUSH2 0x173A JUMP JUMPDEST PUSH2 0xD7C JUMP JUMPDEST PUSH1 0x40 MLOAD PUSH2 0x272 SWAP2 SWAP1 PUSH2 0x1C79 JUMP JUMPDEST PUSH1 0x40 MLOAD DUP1 SWAP2 SUB SWAP1 RETURN JUMPDEST CALLVALUE DUP1 ISZERO PUSH2 0x287 JUMPI PUSH1 0x0 DUP1 REVERT JUMPDEST POP PUSH2 0x2A2 PUSH1 0x4 DUP1 CALLDATASIZE SUB DUP2 ADD SWAP1 PUSH2 0x29D SWAP2 SWAP1 PUSH2 0x16B3 JUMP JUMPDEST PUSH2 0xDA6 JUMP JUMPDEST PUSH1 0x40 MLOAD PUSH2 0x2AF SWAP2 SWAP1 PUSH2 0x1BCE JUMP JUMPDEST PUSH1 0x40 MLOAD DUP1 SWAP2 SUB SWAP1 RETURN JUMPDEST PUSH1 0x0 PUSH1 0xB PUSH1 0x1 SWAP1 SLOAD SWAP1 PUSH2 0x100 EXP SWAP1 DIV PUSH20 0xFFFFFFFFFFFFFFFFFFFFFFFFFFFFFFFFFFFFFFFF AND PUSH20 0xFFFFFFFFFFFFFFFFFFFFFFFFFFFFFFFFFFFFFFFF AND PUSH2 0x2FB PUSH2 0xDEF JUMP JUMPDEST PUSH20 0xFFFFFFFFFFFFFFFFFFFFFFFFFFFFFFFFFFFFFFFF AND EQ PUSH2 0x351 JUMPI PUSH1 0x40 MLOAD PUSH32 0x8C379A000000000000000000000000000000000000000000000000000000000 DUP2 MSTORE PUSH1 0x4 ADD PUSH2 0x348 SWAP1 PUSH2 0x1B2E JUMP JUMPDEST PUSH1 0x40 MLOAD DUP1 SWAP2 SUB SWAP1 REVERT JUMPDEST PUSH1 0x4 SLOAD SWAP1 POP SWAP1 JUMP JUMPDEST PUSH1 0xB PUSH1 0x1 SWAP1 SLOAD SWAP1 PUSH2 0x100 EXP SWAP1 DIV PUSH20 0xFFFFFFFFFFFFFFFFFFFFFFFFFFFFFFFFFFFFFFFF AND PUSH20 0xFFFFFFFFFFFFFFFFFFFFFFFFFFFFFFFFFFFFFFFF AND PUSH2 0x39A PUSH2 0xDEF JUMP JUMPDEST PUSH20 0xFFFFFFFFFFFFFFFFFFFFFFFFFFFFFFFFFFFFFFFF AND EQ PUSH2 0x3F0 JUMPI PUSH1 0x40 MLOAD PUSH32 0x8C379A000000000000000000000000000000000000000000000000000000000 DUP2 MSTORE PUSH1 0x4 ADD PUSH2 0x3E7 SWAP1 PUSH2 0x1B2E JUMP JUMPDEST PUSH1 0x40 MLOAD DUP1 SWAP2 SUB SWAP1 REVERT JUMPDEST PUSH1 0x0 SELFBALANCE SWAP1 POP PUSH1 0x0 DUP2 GT PUSH2 0x438 JUMPI PUSH1 0x40 MLOAD PUSH32 0x8C379A000000000000000000000000000000000000000000000000000000000 DUP2 MSTORE PUSH1 0x4 ADD PUSH2 0x42F SWAP1 PUSH2 0x1B8E JUMP JUMPDEST PUSH1 0x40 MLOAD DUP1 SWAP2 SUB SWAP1 REVERT JUMPDEST DUP2 PUSH20 0xFFFFFFFFFFFFFFFFFFFFFFFFFFFFFFFFFFFFFFFF AND PUSH2 0x8FC DUP3 SWAP1 DUP2 ISZERO MUL SWAP1 PUSH1 0x40 MLOAD PUSH1 0x0 PUSH1 0x40 MLOAD DUP1 DUP4 SUB DUP2 DUP6 DUP9 DUP9 CALL SWAP4 POP POP POP POP ISZERO DUP1 ISZERO PUSH2 0x47E JUMPI RETURNDATASIZE PUSH1 0x0 DUP1 RETURNDATACOPY RETURNDATASIZE PUSH1 0x0 REVERT JUMPDEST POP POP POP JUMP JUMPDEST PUSH1 0xB PUSH1 0x0 SWAP1 SLOAD SWAP1 PUSH2 0x100 EXP SWAP1 DIV PUSH1 0xFF AND DUP2 JUMP JUMPDEST PUSH1 0xB PUSH1 0x1 SWAP1 SLOAD SWAP1 PUSH2 0x100 EXP SWAP1 DIV PUSH20 0xFFFFFFFFFFFFFFFFFFFFFFFFFFFFFFFFFFFFFFFF AND PUSH20 0xFFFFFFFFFFFFFFFFFFFFFFFFFFFFFFFFFFFFFFFF AND PUSH2 0x4D7 PUSH2 0xDEF JUMP JUMPDEST PUSH20 0xFFFFFFFFFFFFFFFFFFFFFFFFFFFFFFFFFFFFFFFF AND EQ PUSH2 0x52D JUMPI PUSH1 0x40 MLOAD PUSH32 0x8C379A000000000000000000000000000000000000000000000000000000000 DUP2 MSTORE PUSH1 0x4 ADD PUSH2 0x524 SWAP1 PUSH2 0x1B2E JUMP JUMPDEST PUSH1 0x40 MLOAD DUP1 SWAP2 SUB SWAP1 REVERT JUMPDEST PUSH1 0x1 ISZERO ISZERO PUSH1 0xB PUSH1 0x0 SWAP1 SLOAD SWAP1 PUSH2 0x100 EXP SWAP1 DIV PUSH1 0xFF AND ISZERO ISZERO EQ PUSH2 0x583 JUMPI PUSH1 0x40 MLOAD PUSH32 0x8C379A000000000000000000000000000000000000000000000000000000000 DUP2 MSTORE PUSH1 0x4 ADD PUSH2 0x57A SWAP1 PUSH2 0x1AEE JUMP JUMPDEST PUSH1 0x40 MLOAD DUP1 SWAP2 SUB SWAP1 REVERT JUMPDEST PUSH1 0x0 PUSH1 0xB PUSH1 0x0 PUSH2 0x100 EXP DUP2 SLOAD DUP2 PUSH1 0xFF MUL NOT AND SWAP1 DUP4 ISZERO ISZERO MUL OR SWAP1 SSTORE POP JUMP JUMPDEST PUSH1 0x0 PUSH1 0x60 PUSH1 0xB PUSH1 0x1 SWAP1 SLOAD SWAP1 PUSH2 0x100 EXP SWAP1 DIV PUSH20 0xFFFFFFFFFFFFFFFFFFFFFFFFFFFFFFFFFFFFFFFF AND PUSH20 0xFFFFFFFFFFFFFFFFFFFFFFFFFFFFFFFFFFFFFFFF AND PUSH2 0x5E5 PUSH2 0xDEF JUMP JUMPDEST PUSH20 0xFFFFFFFFFFFFFFFFFFFFFFFFFFFFFFFFFFFFFFFF AND EQ PUSH2 0x63B JUMPI PUSH1 0x40 MLOAD PUSH32 0x8C379A000000000000000000000000000000000000000000000000000000000 DUP2 MSTORE PUSH1 0x4 ADD PUSH2 0x632 SWAP1 PUSH2 0x1B2E JUMP JUMPDEST PUSH1 0x40 MLOAD DUP1 SWAP2 SUB SWAP1 REVERT JUMPDEST PUSH1 0x0 ISZERO ISZERO PUSH1 0xB PUSH1 0x0 SWAP1 SLOAD SWAP1 PUSH2 0x100 EXP SWAP1 DIV PUSH1 0xFF AND ISZERO ISZERO EQ PUSH2 0x691 JUMPI PUSH1 0x40 MLOAD PUSH32 0x8C379A000000000000000000000000000000000000000000000000000000000 DUP2 MSTORE PUSH1 0x4 ADD PUSH2 0x688 SWAP1 PUSH2 0x1B4E JUMP JUMPDEST PUSH1 0x40 MLOAD DUP1 SWAP2 SUB SWAP1 REVERT JUMPDEST PUSH2 0x3E8 PUSH1 0x4 SLOAD LT PUSH2 0x6D7 JUMPI PUSH1 0x40 MLOAD PUSH32 0x8C379A000000000000000000000000000000000000000000000000000000000 DUP2 MSTORE PUSH1 0x4 ADD PUSH2 0x6CE SWAP1 PUSH2 0x1B6E JUMP JUMPDEST PUSH1 0x40 MLOAD DUP1 SWAP2 SUB SWAP1 REVERT JUMPDEST PUSH1 0x0 PUSH2 0x6E1 PUSH2 0xDF7 JUMP JUMPDEST SWAP1 POP PUSH2 0x77B DUP5 DUP3 PUSH1 0x5 SLOAD PUSH1 0x2 DUP1 SLOAD PUSH2 0x6F8 SWAP1 PUSH2 0x1DF2 JUMP JUMPDEST DUP1 PUSH1 0x1F ADD PUSH1 0x20 DUP1 SWAP2 DIV MUL PUSH1 0x20 ADD PUSH1 0x40 MLOAD SWAP1 DUP2 ADD PUSH1 0x40 MSTORE DUP1 SWAP3 SWAP2 SWAP1 DUP2 DUP2 MSTORE PUSH1 0x20 ADD DUP3 DUP1 SLOAD PUSH2 0x724 SWAP1 PUSH2 0x1DF2 JUMP JUMPDEST DUP1 ISZERO PUSH2 0x771 JUMPI DUP1 PUSH1 0x1F LT PUSH2 0x746 JUMPI PUSH2 0x100 DUP1 DUP4 SLOAD DIV MUL DUP4 MSTORE SWAP2 PUSH1 0x20 ADD SWAP2 PUSH2 0x771 JUMP JUMPDEST DUP3 ADD SWAP2 SWAP1 PUSH1 0x0 MSTORE PUSH1 0x20 PUSH1 0x0 KECCAK256 SWAP1 JUMPDEST DUP2 SLOAD DUP2 MSTORE SWAP1 PUSH1 0x1 ADD SWAP1 PUSH1 0x20 ADD DUP1 DUP4 GT PUSH2 0x754 JUMPI DUP3 SWAP1 SUB PUSH1 0x1F AND DUP3 ADD SWAP2 JUMPDEST POP POP POP POP POP PUSH2 0x110C JUMP JUMPDEST PUSH1 0x4 PUSH1 0x0 DUP2 SLOAD DUP1 SWAP3 SWAP2 SWAP1 PUSH2 0x78E SWAP1 PUSH2 0x1E55 JUMP JUMPDEST SWAP2 SWAP1 POP SSTORE POP DUP1 PUSH1 0x9 PUSH1 0x0 DUP7 PUSH20 0xFFFFFFFFFFFFFFFFFFFFFFFFFFFFFFFFFFFFFFFF AND PUSH20 0xFFFFFFFFFFFFFFFFFFFFFFFFFFFFFFFFFFFFFFFF AND DUP2 MSTORE PUSH1 0x20 ADD SWAP1 DUP2 MSTORE PUSH1 0x20 ADD PUSH1 0x0 KECCAK256 DUP2 SWAP1 SSTORE POP DUP1 PUSH1 0x2 DUP1 DUP1 SLOAD PUSH2 0x7E6 SWAP1 PUSH2 0x1DF2 JUMP JUMPDEST DUP1 PUSH1 0x1F ADD PUSH1 0x20 DUP1 SWAP2 DIV MUL PUSH1 0x20 ADD PUSH1 0x40 MLOAD SWAP1 DUP2 ADD PUSH1 0x40 MSTORE DUP1 SWAP3 SWAP2 SWAP1 DUP2 DUP2 MSTORE PUSH1 0x20 ADD DUP3 DUP1 SLOAD PUSH2 0x812 SWAP1 PUSH2 0x1DF2 JUMP JUMPDEST DUP1 ISZERO PUSH2 0x85F JUMPI DUP1 PUSH1 0x1F LT PUSH2 0x834 JUMPI PUSH2 0x100 DUP1 DUP4 SLOAD DIV MUL DUP4 MSTORE SWAP2 PUSH1 0x20 ADD SWAP2 PUSH2 0x85F JUMP JUMPDEST DUP3 ADD SWAP2 SWAP1 PUSH1 0x0 MSTORE PUSH1 0x20 PUSH1 0x0 KECCAK256 SWAP1 JUMPDEST DUP2 SLOAD DUP2 MSTORE SWAP1 PUSH1 0x1 ADD SWAP1 PUSH1 0x20 ADD DUP1 DUP4 GT PUSH2 0x842 JUMPI DUP3 SWAP1 SUB PUSH1 0x1F AND DUP3 ADD SWAP2 JUMPDEST POP POP POP POP POP SWAP1 POP SWAP3 POP SWAP3 POP POP SWAP2 POP SWAP2 JUMP JUMPDEST PUSH1 0x0 PUSH1 0xB PUSH1 0x1 SWAP1 SLOAD SWAP1 PUSH2 0x100 EXP SWAP1 DIV PUSH20 0xFFFFFFFFFFFFFFFFFFFFFFFFFFFFFFFFFFFFFFFF AND PUSH20 0xFFFFFFFFFFFFFFFFFFFFFFFFFFFFFFFFFFFFFFFF AND PUSH2 0x8B3 PUSH2 0xDEF JUMP JUMPDEST PUSH20 0xFFFFFFFFFFFFFFFFFFFFFFFFFFFFFFFFFFFFFFFF AND EQ PUSH2 0x909 JUMPI PUSH1 0x40 MLOAD PUSH32 0x8C379A000000000000000000000000000000000000000000000000000000000 DUP2 MSTORE PUSH1 0x4 ADD PUSH2 0x900 SWAP1 PUSH2 0x1B2E JUMP JUMPDEST PUSH1 0x40 MLOAD DUP1 SWAP2 SUB SWAP1 REVERT JUMPDEST SELFBALANCE SWAP1 POP SWAP1 JUMP JUMPDEST PUSH1 0x0 PUSH1 0x60 PUSH1 0x0 ISZERO ISZERO PUSH1 0xB PUSH1 0x0 SWAP1 SLOAD SWAP1 PUSH2 0x100 EXP SWAP1 DIV PUSH1 0xFF AND ISZERO ISZERO EQ PUSH2 0x969 JUMPI PUSH1 0x40 MLOAD PUSH32 0x8C379A000000000000000000000000000000000000000000000000000000000 DUP2 MSTORE PUSH1 0x4 ADD PUSH2 0x960 SWAP1 PUSH2 0x1B4E JUMP JUMPDEST PUSH1 0x40 MLOAD DUP1 SWAP2 SUB SWAP1 REVERT JUMPDEST PUSH2 0x3E8 PUSH1 0x4 SLOAD LT PUSH2 0x9AF JUMPI PUSH1 0x40 MLOAD PUSH32 0x8C379A000000000000000000000000000000000000000000000000000000000 DUP2 MSTORE PUSH1 0x4 ADD PUSH2 0x9A6 SWAP1 PUSH2 0x1B6E JUMP JUMPDEST PUSH1 0x40 MLOAD DUP1 SWAP2 SUB SWAP1 REVERT JUMPDEST PUSH1 0x19 CALLVALUE EQ PUSH2 0x9F2 JUMPI PUSH1 0x40 MLOAD PUSH32 0x8C379A000000000000000000000000000000000000000000000000000000000 DUP2 MSTORE PUSH1 0x4 ADD PUSH2 0x9E9 SWAP1 PUSH2 0x1ACE JUMP JUMPDEST PUSH1 0x40 MLOAD DUP1 SWAP2 SUB SWAP1 REVERT JUMPDEST PUSH1 0x0 PUSH2 0x9FC PUSH2 0xDF7 JUMP JUMPDEST SWAP1 POP PUSH2 0xA96 DUP5 DUP3 PUSH1 0x5 SLOAD PUSH1 0x2 DUP1 SLOAD PUSH2 0xA13 SWAP1 PUSH2 0x1DF2 JUMP JUMPDEST DUP1 PUSH1 0x1F ADD PUSH1 0x20 DUP1 SWAP2 DIV MUL PUSH1 0x20 ADD PUSH1 0x40 MLOAD SWAP1 DUP2 ADD PUSH1 0x40 MSTORE DUP1 SWAP3 SWAP2 SWAP1 DUP2 DUP2 MSTORE PUSH1 0x20 ADD DUP3 DUP1 SLOAD PUSH2 0xA3F SWAP1 PUSH2 0x1DF2 JUMP JUMPDEST DUP1 ISZERO PUSH2 0xA8C JUMPI DUP1 PUSH1 0x1F LT PUSH2 0xA61 JUMPI PUSH2 0x100 DUP1 DUP4 SLOAD DIV MUL DUP4 MSTORE SWAP2 PUSH1 0x20 ADD SWAP2 PUSH2 0xA8C JUMP JUMPDEST DUP3 ADD SWAP2 SWAP1 PUSH1 0x0 MSTORE PUSH1 0x20 PUSH1 0x0 KECCAK256 SWAP1 JUMPDEST DUP2 SLOAD DUP2 MSTORE SWAP1 PUSH1 0x1 ADD SWAP1 PUSH1 0x20 ADD DUP1 DUP4 GT PUSH2 0xA6F JUMPI DUP3 SWAP1 SUB PUSH1 0x1F AND DUP3 ADD SWAP2 JUMPDEST POP POP POP POP POP PUSH2 0x110C JUMP JUMPDEST PUSH2 0xAA7 PUSH2 0xAA1 PUSH2 0xDEF JUMP JUMPDEST CALLVALUE PUSH2 0x12A2 JUMP JUMPDEST PUSH1 0x4 PUSH1 0x0 DUP2 SLOAD DUP1 SWAP3 SWAP2 SWAP1 PUSH2 0xABA SWAP1 PUSH2 0x1E55 JUMP JUMPDEST SWAP2 SWAP1 POP SSTORE POP DUP1 PUSH1 0x9 PUSH1 0x0 DUP7 PUSH20 0xFFFFFFFFFFFFFFFFFFFFFFFFFFFFFFFFFFFFFFFF AND PUSH20 0xFFFFFFFFFFFFFFFFFFFFFFFFFFFFFFFFFFFFFFFF AND DUP2 MSTORE PUSH1 0x20 ADD SWAP1 DUP2 MSTORE PUSH1 0x20 ADD PUSH1 0x0 KECCAK256 DUP2 SWAP1 SSTORE POP DUP1 PUSH1 0x2 DUP1 DUP1 SLOAD PUSH2 0xB12 SWAP1 PUSH2 0x1DF2 JUMP JUMPDEST DUP1 PUSH1 0x1F ADD PUSH1 0x20 DUP1 SWAP2 DIV MUL PUSH1 0x20 ADD PUSH1 0x40 MLOAD SWAP1 DUP2 ADD PUSH1 0x40 MSTORE DUP1 SWAP3 SWAP2 SWAP1 DUP2 DUP2 MSTORE PUSH1 0x20 ADD DUP3 DUP1 SLOAD PUSH2 0xB3E SWAP1 PUSH2 0x1DF2 JUMP JUMPDEST DUP1 ISZERO PUSH2 0xB8B JUMPI DUP1 PUSH1 0x1F LT PUSH2 0xB60 JUMPI PUSH2 0x100 DUP1 DUP4 SLOAD DIV MUL DUP4 MSTORE SWAP2 PUSH1 0x20 ADD SWAP2 PUSH2 0xB8B JUMP JUMPDEST DUP3 ADD SWAP2 SWAP1 PUSH1 0x0 MSTORE PUSH1 0x20 PUSH1 0x0 KECCAK256 SWAP1 JUMPDEST DUP2 SLOAD DUP2 MSTORE SWAP1 PUSH1 0x1 ADD SWAP1 PUSH1 0x20 ADD DUP1 DUP4 GT PUSH2 0xB6E JUMPI DUP3 SWAP1 SUB PUSH1 0x1F AND DUP3 ADD SWAP2 JUMPDEST POP POP POP POP POP SWAP1 POP SWAP3 POP SWAP3 POP POP SWAP2 POP SWAP2 JUMP JUMPDEST PUSH1 0x0 DUP1 PUSH1 0x0 PUSH1 0xB PUSH1 0x1 SWAP1 SLOAD SWAP1 PUSH2 0x100 EXP SWAP1 DIV PUSH20 0xFFFFFFFFFFFFFFFFFFFFFFFFFFFFFFFFFFFFFFFF AND PUSH20 0xFFFFFFFFFFFFFFFFFFFFFFFFFFFFFFFFFFFFFFFF AND PUSH2 0xBE2 PUSH2 0xDEF JUMP JUMPDEST PUSH20 0xFFFFFFFFFFFFFFFFFFFFFFFFFFFFFFFFFFFFFFFF AND EQ PUSH2 0xC38 JUMPI PUSH1 0x40 MLOAD PUSH32 0x8C379A000000000000000000000000000000000000000000000000000000000 DUP2 MSTORE PUSH1 0x4 ADD PUSH2 0xC2F SWAP1 PUSH2 0x1B2E JUMP JUMPDEST PUSH1 0x40 MLOAD DUP1 SWAP2 SUB SWAP1 REVERT JUMPDEST PUSH1 0x6 SLOAD PUSH1 0x7 SLOAD PUSH1 0x8 SLOAD SWAP3 POP SWAP3 POP SWAP3 POP SWAP1 SWAP2 SWAP3 JUMP JUMPDEST PUSH1 0xB PUSH1 0x1 SWAP1 SLOAD SWAP1 PUSH2 0x100 EXP SWAP1 DIV PUSH20 0xFFFFFFFFFFFFFFFFFFFFFFFFFFFFFFFFFFFFFFFF AND PUSH20 0xFFFFFFFFFFFFFFFFFFFFFFFFFFFFFFFFFFFFFFFF AND PUSH2 0xC8D PUSH2 0xDEF JUMP JUMPDEST PUSH20 0xFFFFFFFFFFFFFFFFFFFFFFFFFFFFFFFFFFFFFFFF AND EQ PUSH2 0xCE3 JUMPI PUSH1 0x40 MLOAD PUSH32 0x8C379A000000000000000000000000000000000000000000000000000000000 DUP2 MSTORE PUSH1 0x4 ADD PUSH2 0xCDA SWAP1 PUSH2 0x1B2E JUMP JUMPDEST PUSH1 0x40 MLOAD DUP1 SWAP2 SUB SWAP1 REVERT JUMPDEST PUSH1 0x0 ISZERO ISZERO PUSH1 0xB PUSH1 0x0 SWAP1 SLOAD SWAP1 PUSH2 0x100 EXP SWAP1 DIV PUSH1 0xFF AND ISZERO ISZERO EQ PUSH2 0xD39 JUMPI PUSH1 0x40 MLOAD PUSH32 0x8C379A000000000000000000000000000000000000000000000000000000000 DUP2 MSTORE PUSH1 0x4 ADD PUSH2 0xD30 SWAP1 PUSH2 0x1B0E JUMP JUMPDEST PUSH1 0x40 MLOAD DUP1 SWAP2 SUB SWAP1 REVERT JUMPDEST PUSH1 0x1 PUSH1 0xB PUSH1 0x0 PUSH2 0x100 EXP DUP2 SLOAD DUP2 PUSH1 0xFF MUL NOT AND SWAP1 DUP4 ISZERO ISZERO MUL OR SWAP1 SSTORE POP JUMP JUMPDEST PUSH1 0xB PUSH1 0x1 SWAP1 SLOAD SWAP1 PUSH2 0x100 EXP SWAP1 DIV PUSH20 0xFFFFFFFFFFFFFFFFFFFFFFFFFFFFFFFFFFFFFFFF AND DUP2 JUMP JUMPDEST PUSH1 0x3 DUP2 PUSH1 0x14 DUP2 LT PUSH2 0xD8C JUMPI PUSH1 0x0 DUP1 REVERT JUMPDEST PUSH1 0x20 SWAP2 DUP3 DUP3 DIV ADD SWAP2 SWAP1 MOD SWAP2 POP SLOAD SWAP1 PUSH2 0x100 EXP SWAP1 DIV PUSH1 0xFF AND DUP2 JUMP JUMPDEST PUSH1 0x0 PUSH1 0x9 PUSH1 0x0 DUP4 PUSH20 0xFFFFFFFFFFFFFFFFFFFFFFFFFFFFFFFFFFFFFFFF AND PUSH20 0xFFFFFFFFFFFFFFFFFFFFFFFFFFFFFFFFFFFFFFFF AND DUP2 MSTORE PUSH1 0x20 ADD SWAP1 DUP2 MSTORE PUSH1 0x20 ADD PUSH1 0x0 KECCAK256 SLOAD SWAP1 POP SWAP2 SWAP1 POP JUMP JUMPDEST PUSH1 0x0 CALLER SWAP1 POP SWAP1 JUMP JUMPDEST PUSH1 0x0 DUP1 ISZERO ISZERO PUSH1 0xB PUSH1 0x0 SWAP1 SLOAD SWAP1 PUSH2 0x100 EXP SWAP1 DIV PUSH1 0xFF AND ISZERO ISZERO EQ PUSH2 0xE4E JUMPI PUSH1 0x40 MLOAD PUSH32 0x8C379A000000000000000000000000000000000000000000000000000000000 DUP2 MSTORE PUSH1 0x4 ADD PUSH2 0xE45 SWAP1 PUSH2 0x1B4E JUMP JUMPDEST PUSH1 0x40 MLOAD DUP1 SWAP2 SUB SWAP1 REVERT JUMPDEST PUSH1 0x0 PUSH2 0xE58 PUSH2 0x12FC JUMP JUMPDEST SWAP1 POP PUSH1 0x0 PUSH1 0x3 DUP3 PUSH1 0x14 DUP2 LT PUSH2 0xE70 JUMPI PUSH2 0xE6F PUSH2 0x1F8A JUMP JUMPDEST JUMPDEST PUSH1 0x20 SWAP2 DUP3 DUP3 DIV ADD SWAP2 SWAP1 MOD SWAP1 SLOAD SWAP1 PUSH2 0x100 EXP SWAP1 DIV PUSH1 0xFF AND PUSH1 0xFF AND SWAP1 POP PUSH1 0x0 DUP2 EQ DUP1 ISZERO PUSH2 0xE9D JUMPI POP PUSH1 0x32 PUSH1 0x6 SLOAD LT JUMPDEST ISZERO PUSH2 0xF10 JUMPI PUSH1 0x40 MLOAD DUP1 PUSH1 0x40 ADD PUSH1 0x40 MSTORE DUP1 PUSH1 0x7 DUP2 MSTORE PUSH1 0x20 ADD PUSH32 0x4469616D6F6E6400000000000000000000000000000000000000000000000000 DUP2 MSTORE POP PUSH1 0x2 SWAP1 DUP1 MLOAD SWAP1 PUSH1 0x20 ADD SWAP1 PUSH2 0xEED SWAP3 SWAP2 SWAP1 PUSH2 0x15BC JUMP JUMPDEST POP PUSH1 0x6 PUSH1 0x0 DUP2 SLOAD DUP1 SWAP3 SWAP2 SWAP1 PUSH2 0xF01 SWAP1 PUSH2 0x1E55 JUMP JUMPDEST SWAP2 SWAP1 POP SSTORE POP DUP1 SWAP3 POP POP POP PUSH2 0x1109 JUMP JUMPDEST PUSH1 0x1 DUP2 GT ISZERO DUP1 ISZERO PUSH2 0xF23 JUMPI POP PUSH1 0x64 PUSH1 0x7 SLOAD LT JUMPDEST ISZERO PUSH2 0xF96 JUMPI PUSH1 0x40 MLOAD DUP1 PUSH1 0x40 ADD PUSH1 0x40 MSTORE DUP1 PUSH1 0x4 DUP2 MSTORE PUSH1 0x20 ADD PUSH32 0x476F6C6400000000000000000000000000000000000000000000000000000000 DUP2 MSTORE POP PUSH1 0x2 SWAP1 DUP1 MLOAD SWAP1 PUSH1 0x20 ADD SWAP1 PUSH2 0xF73 SWAP3 SWAP2 SWAP1 PUSH2 0x15BC JUMP JUMPDEST POP PUSH1 0x7 PUSH1 0x0 DUP2 SLOAD DUP1 SWAP3 SWAP2 SWAP1 PUSH2 0xF87 SWAP1 PUSH2 0x1E55 JUMP JUMPDEST SWAP2 SWAP1 POP SSTORE POP DUP1 SWAP3 POP POP POP PUSH2 0x1109 JUMP JUMPDEST PUSH1 0x2 DUP2 GT ISZERO DUP1 ISZERO PUSH2 0xFAB JUMPI POP PUSH2 0x352 PUSH1 0x8 SLOAD GT ISZERO JUMPDEST ISZERO PUSH2 0x101E JUMPI PUSH1 0x40 MLOAD DUP1 PUSH1 0x40 ADD PUSH1 0x40 MSTORE DUP1 PUSH1 0x6 DUP2 MSTORE PUSH1 0x20 ADD PUSH32 0x53696C7665720000000000000000000000000000000000000000000000000000 DUP2 MSTORE POP PUSH1 0x2 SWAP1 DUP1 MLOAD SWAP1 PUSH1 0x20 ADD SWAP1 PUSH2 0xFFB SWAP3 SWAP2 SWAP1 PUSH2 0x15BC JUMP JUMPDEST POP PUSH1 0x8 PUSH1 0x0 DUP2 SLOAD DUP1 SWAP3 SWAP2 SWAP1 PUSH2 0x100F SWAP1 PUSH2 0x1E55 JUMP JUMPDEST SWAP2 SWAP1 POP SSTORE POP DUP1 SWAP3 POP POP POP PUSH2 0x1109 JUMP JUMPDEST PUSH1 0x64 PUSH1 0x7 SLOAD LT ISZERO PUSH2 0x109B JUMPI PUSH1 0x1 SWAP1 POP PUSH1 0x40 MLOAD DUP1 PUSH1 0x40 ADD PUSH1 0x40 MSTORE DUP1 PUSH1 0x4 DUP2 MSTORE PUSH1 0x20 ADD PUSH32 0x476F6C6400000000000000000000000000000000000000000000000000000000 DUP2 MSTORE POP PUSH1 0x2 SWAP1 DUP1 MLOAD SWAP1 PUSH1 0x20 ADD SWAP1 PUSH2 0x1078 SWAP3 SWAP2 SWAP1 PUSH2 0x15BC JUMP JUMPDEST POP PUSH1 0x7 PUSH1 0x0 DUP2 SLOAD DUP1 SWAP3 SWAP2 SWAP1 PUSH2 0x108C SWAP1 PUSH2 0x1E55 JUMP JUMPDEST SWAP2 SWAP1 POP SSTORE POP DUP1 SWAP3 POP POP POP PUSH2 0x1109 JUMP JUMPDEST PUSH1 0x0 SWAP1 POP PUSH1 0x40 MLOAD DUP1 PUSH1 0x40 ADD PUSH1 0x40 MSTORE DUP1 PUSH1 0x7 DUP2 MSTORE PUSH1 0x20 ADD PUSH32 0x4469616D6F6E6400000000000000000000000000000000000000000000000000 DUP2 MSTORE POP PUSH1 0x2 SWAP1 DUP1 MLOAD SWAP1 PUSH1 0x20 ADD SWAP1 PUSH2 0x10EA SWAP3 SWAP2 SWAP1 PUSH2 0x15BC JUMP JUMPDEST POP PUSH1 0x6 PUSH1 0x0 DUP2 SLOAD DUP1 SWAP3 SWAP2 SWAP1 PUSH2 0x10FE SWAP1 PUSH2 0x1E55 JUMP JUMPDEST SWAP2 SWAP1 POP SSTORE POP DUP1 SWAP3 POP POP POP JUMPDEST SWAP1 JUMP JUMPDEST PUSH1 0x0 PUSH20 0xFFFFFFFFFFFFFFFFFFFFFFFFFFFFFFFFFFFFFFFF AND DUP5 PUSH20 0xFFFFFFFFFFFFFFFFFFFFFFFFFFFFFFFFFFFFFFFF AND EQ ISZERO PUSH2 0x117C JUMPI PUSH1 0x40 MLOAD PUSH32 0x8C379A000000000000000000000000000000000000000000000000000000000 DUP2 MSTORE PUSH1 0x4 ADD PUSH2 0x1173 SWAP1 PUSH2 0x1BAE JUMP JUMPDEST PUSH1 0x40 MLOAD DUP1 SWAP2 SUB SWAP1 REVERT JUMPDEST PUSH1 0x0 PUSH2 0x1186 PUSH2 0xDEF JUMP JUMPDEST SWAP1 POP PUSH2 0x11A7 DUP2 PUSH1 0x0 DUP8 PUSH2 0x1198 DUP9 PUSH2 0x1340 JUMP JUMPDEST PUSH2 0x11A1 DUP9 PUSH2 0x1340 JUMP JUMPDEST DUP8 PUSH2 0x13BA JUMP JUMPDEST DUP3 PUSH1 0x0 DUP1 DUP7 DUP2 MSTORE PUSH1 0x20 ADD SWAP1 DUP2 MSTORE PUSH1 0x20 ADD PUSH1 0x0 KECCAK256 PUSH1 0x0 DUP8 PUSH20 0xFFFFFFFFFFFFFFFFFFFFFFFFFFFFFFFFFFFFFFFF AND PUSH20 0xFFFFFFFFFFFFFFFFFFFFFFFFFFFFFFFFFFFFFFFF AND DUP2 MSTORE PUSH1 0x20 ADD SWAP1 DUP2 MSTORE PUSH1 0x20 ADD PUSH1 0x0 KECCAK256 PUSH1 0x0 DUP3 DUP3 SLOAD PUSH2 0x1206 SWAP2 SWAP1 PUSH2 0x1CD6 JUMP JUMPDEST SWAP3 POP POP DUP2 SWAP1 SSTORE POP DUP5 PUSH20 0xFFFFFFFFFFFFFFFFFFFFFFFFFFFFFFFFFFFFFFFF AND PUSH1 0x0 PUSH20 0xFFFFFFFFFFFFFFFFFFFFFFFFFFFFFFFFFFFFFFFF AND DUP3 PUSH20 0xFFFFFFFFFFFFFFFFFFFFFFFFFFFFFFFFFFFFFFFF AND PUSH32 0xC3D58168C5AE7397731D063D5BBF3D657854427343F4C083240F7AACAA2D0F62 DUP8 DUP8 PUSH1 0x40 MLOAD PUSH2 0x1284 SWAP3 SWAP2 SWAP1 PUSH2 0x1C19 JUMP JUMPDEST PUSH1 0x40 MLOAD DUP1 SWAP2 SUB SWAP1 LOG4 PUSH2 0x129B DUP2 PUSH1 0x0 DUP8 DUP8 DUP8 DUP8 PUSH2 0x13C2 JUMP JUMPDEST POP POP POP POP POP JUMP JUMPDEST DUP1 PUSH1 0xA PUSH1 0x0 DUP5 PUSH20 0xFFFFFFFFFFFFFFFFFFFFFFFFFFFFFFFFFFFFFFFF AND PUSH20 0xFFFFFFFFFFFFFFFFFFFFFFFFFFFFFFFFFFFFFFFF AND DUP2 MSTORE PUSH1 0x20 ADD SWAP1 DUP2 MSTORE PUSH1 0x20 ADD PUSH1 0x0 KECCAK256 PUSH1 0x0 DUP3 DUP3 SLOAD PUSH2 0x12F1 SWAP2 SWAP1 PUSH2 0x1CD6 JUMP JUMPDEST SWAP3 POP POP DUP2 SWAP1 SSTORE POP POP POP JUMP JUMPDEST PUSH1 0x0 DUP1 PUSH1 0x14 TIMESTAMP CALLER PUSH1 0x40 MLOAD PUSH1 0x20 ADD PUSH2 0x1314 SWAP3 SWAP2 SWAP1 PUSH2 0x19B0 JUMP JUMPDEST PUSH1 0x40 MLOAD PUSH1 0x20 DUP2 DUP4 SUB SUB DUP2 MSTORE SWAP1 PUSH1 0x40 MSTORE DUP1 MLOAD SWAP1 PUSH1 0x20 ADD KECCAK256 PUSH1 0x0 SHR PUSH2 0x1337 SWAP2 SWAP1 PUSH2 0x1ECC JUMP JUMPDEST SWAP1 POP DUP1 SWAP2 POP POP SWAP1 JUMP JUMPDEST PUSH1 0x60 PUSH1 0x0 PUSH1 0x1 PUSH8 0xFFFFFFFFFFFFFFFF DUP2 GT ISZERO PUSH2 0x135F JUMPI PUSH2 0x135E PUSH2 0x1FB9 JUMP JUMPDEST JUMPDEST PUSH1 0x40 MLOAD SWAP1 DUP1 DUP3 MSTORE DUP1 PUSH1 0x20 MUL PUSH1 0x20 ADD DUP3 ADD PUSH1 0x40 MSTORE DUP1 ISZERO PUSH2 0x138D JUMPI DUP2 PUSH1 0x20 ADD PUSH1 0x20 DUP3 MUL DUP1 CALLDATASIZE DUP4 CALLDATACOPY DUP1 DUP3 ADD SWAP2 POP POP SWAP1 POP JUMPDEST POP SWAP1 POP DUP3 DUP2 PUSH1 0x0 DUP2 MLOAD DUP2 LT PUSH2 0x13A5 JUMPI PUSH2 0x13A4 PUSH2 0x1F8A JUMP JUMPDEST JUMPDEST PUSH1 0x20 MUL PUSH1 0x20 ADD ADD DUP2 DUP2 MSTORE POP POP DUP1 SWAP2 POP POP SWAP2 SWAP1 POP JUMP JUMPDEST POP POP POP POP POP POP JUMP JUMPDEST PUSH2 0x13E1 DUP5 PUSH20 0xFFFFFFFFFFFFFFFFFFFFFFFFFFFFFFFFFFFFFFFF AND PUSH2 0x15A9 JUMP JUMPDEST ISZERO PUSH2 0x15A1 JUMPI DUP4 PUSH20 0xFFFFFFFFFFFFFFFFFFFFFFFFFFFFFFFFFFFFFFFF AND PUSH4 0xF23A6E61 DUP8 DUP8 DUP7 DUP7 DUP7 PUSH1 0x40 MLOAD DUP7 PUSH4 0xFFFFFFFF AND PUSH1 0xE0 SHL DUP2 MSTORE PUSH1 0x4 ADD PUSH2 0x1427 SWAP6 SWAP5 SWAP4 SWAP3 SWAP2 SWAP1 PUSH2 0x19F7 JUMP JUMPDEST PUSH1 0x20 PUSH1 0x40 MLOAD DUP1 DUP4 SUB DUP2 PUSH1 0x0 DUP8 DUP1 EXTCODESIZE ISZERO DUP1 ISZERO PUSH2 0x1441 JUMPI PUSH1 0x0 DUP1 REVERT JUMPDEST POP GAS CALL SWAP3 POP POP POP DUP1 ISZERO PUSH2 0x1472 JUMPI POP PUSH1 0x40 MLOAD RETURNDATASIZE PUSH1 0x1F NOT PUSH1 0x1F DUP3 ADD AND DUP3 ADD DUP1 PUSH1 0x40 MSTORE POP DUP2 ADD SWAP1 PUSH2 0x146F SWAP2 SWAP1 PUSH2 0x170D JUMP JUMPDEST PUSH1 0x1 JUMPDEST PUSH2 0x1518 JUMPI PUSH2 0x147E PUSH2 0x1FE8 JUMP JUMPDEST DUP1 PUSH4 0x8C379A0 EQ ISZERO PUSH2 0x14DB JUMPI POP PUSH2 0x1493 PUSH2 0x2246 JUMP JUMPDEST DUP1 PUSH2 0x149E JUMPI POP PUSH2 0x14DD JUMP JUMPDEST DUP1 PUSH1 0x40 MLOAD PUSH32 0x8C379A000000000000000000000000000000000000000000000000000000000 DUP2 MSTORE PUSH1 0x4 ADD PUSH2 0x14D2 SWAP2 SWAP1 PUSH2 0x1A6C JUMP JUMPDEST PUSH1 0x40 MLOAD DUP1 SWAP2 SUB SWAP1 REVERT JUMPDEST POP JUMPDEST PUSH1 0x40 MLOAD PUSH32 0x8C379A000000000000000000000000000000000000000000000000000000000 DUP2 MSTORE PUSH1 0x4 ADD PUSH2 0x150F SWAP1 PUSH2 0x1A8E JUMP JUMPDEST PUSH1 0x40 MLOAD DUP1 SWAP2 SUB SWAP1 REVERT JUMPDEST PUSH4 0xF23A6E61 PUSH1 0xE0 SHL PUSH28 0xFFFFFFFFFFFFFFFFFFFFFFFFFFFFFFFFFFFFFFFFFFFFFFFFFFFFFFFF NOT AND DUP2 PUSH28 0xFFFFFFFFFFFFFFFFFFFFFFFFFFFFFFFFFFFFFFFFFFFFFFFFFFFFFFFF NOT AND EQ PUSH2 0x159F JUMPI PUSH1 0x40 MLOAD PUSH32 0x8C379A000000000000000000000000000000000000000000000000000000000 DUP2 MSTORE PUSH1 0x4 ADD PUSH2 0x1596 SWAP1 PUSH2 0x1AAE JUMP JUMPDEST PUSH1 0x40 MLOAD DUP1 SWAP2 SUB SWAP1 REVERT JUMPDEST POP JUMPDEST POP POP POP POP POP POP JUMP JUMPDEST PUSH1 0x0 DUP1 DUP3 EXTCODESIZE SWAP1 POP PUSH1 0x0 DUP2 GT SWAP2 POP POP SWAP2 SWAP1 POP JUMP JUMPDEST DUP3 DUP1 SLOAD PUSH2 0x15C8 SWAP1 PUSH2 0x1DF2 JUMP JUMPDEST SWAP1 PUSH1 0x0 MSTORE PUSH1 0x20 PUSH1 0x0 KECCAK256 SWAP1 PUSH1 0x1F ADD PUSH1 0x20 SWAP1 DIV DUP2 ADD SWAP3 DUP3 PUSH2 0x15EA JUMPI PUSH1 0x0 DUP6 SSTORE PUSH2 0x1631 JUMP JUMPDEST DUP3 PUSH1 0x1F LT PUSH2 0x1603 JUMPI DUP1 MLOAD PUSH1 0xFF NOT AND DUP4 DUP1 ADD OR DUP6 SSTORE PUSH2 0x1631 JUMP JUMPDEST DUP3 DUP1 ADD PUSH1 0x1 ADD DUP6 SSTORE DUP3 ISZERO PUSH2 0x1631 JUMPI SWAP2 DUP3 ADD JUMPDEST DUP3 DUP2 GT ISZERO PUSH2 0x1630 JUMPI DUP3 MLOAD DUP3 SSTORE SWAP2 PUSH1 0x20 ADD SWAP2 SWAP1 PUSH1 0x1 ADD SWAP1 PUSH2 0x1615 JUMP JUMPDEST JUMPDEST POP SWAP1 POP PUSH2 0x163E SWAP2 SWAP1 PUSH2 0x1642 JUMP JUMPDEST POP SWAP1 JUMP JUMPDEST JUMPDEST DUP1 DUP3 GT ISZERO PUSH2 0x165B JUMPI PUSH1 0x0 DUP2 PUSH1 0x0 SWAP1 SSTORE POP PUSH1 0x1 ADD PUSH2 0x1643 JUMP JUMPDEST POP SWAP1 JUMP JUMPDEST PUSH1 0x0 DUP2 CALLDATALOAD SWAP1 POP PUSH2 0x166E DUP2 PUSH2 0x22DC JUMP JUMPDEST SWAP3 SWAP2 POP POP JUMP JUMPDEST PUSH1 0x0 DUP2 CALLDATALOAD SWAP1 POP PUSH2 0x1683 DUP2 PUSH2 0x22F3 JUMP JUMPDEST SWAP3 SWAP2 POP POP JUMP JUMPDEST PUSH1 0x0 DUP2 MLOAD SWAP1 POP PUSH2 0x1698 DUP2 PUSH2 0x230A JUMP JUMPDEST SWAP3 SWAP2 POP POP JUMP JUMPDEST PUSH1 0x0 DUP2 CALLDATALOAD SWAP1 POP PUSH2 0x16AD DUP2 PUSH2 0x2321 JUMP JUMPDEST SWAP3 SWAP2 POP POP JUMP JUMPDEST PUSH1 0x0 PUSH1 0x20 DUP3 DUP5 SUB SLT ISZERO PUSH2 0x16C9 JUMPI PUSH2 0x16C8 PUSH2 0x200A JUMP JUMPDEST JUMPDEST PUSH1 0x0 PUSH2 0x16D7 DUP5 DUP3 DUP6 ADD PUSH2 0x165F JUMP JUMPDEST SWAP2 POP POP SWAP3 SWAP2 POP POP JUMP JUMPDEST PUSH1 0x0 PUSH1 0x20 DUP3 DUP5 SUB SLT ISZERO PUSH2 0x16F6 JUMPI PUSH2 0x16F5 PUSH2 0x200A JUMP JUMPDEST JUMPDEST PUSH1 0x0 PUSH2 0x1704 DUP5 DUP3 DUP6 ADD PUSH2 0x1674 JUMP JUMPDEST SWAP2 POP POP SWAP3 SWAP2 POP POP JUMP JUMPDEST PUSH1 0x0 PUSH1 0x20 DUP3 DUP5 SUB SLT ISZERO PUSH2 0x1723 JUMPI PUSH2 0x1722 PUSH2 0x200A JUMP JUMPDEST JUMPDEST PUSH1 0x0 PUSH2 0x1731 DUP5 DUP3 DUP6 ADD PUSH2 0x1689 JUMP JUMPDEST SWAP2 POP POP SWAP3 SWAP2 POP POP JUMP JUMPDEST PUSH1 0x0 PUSH1 0x20 DUP3 DUP5 SUB SLT ISZERO PUSH2 0x1750 JUMPI PUSH2 0x174F PUSH2 0x200A JUMP JUMPDEST JUMPDEST PUSH1 0x0 PUSH2 0x175E DUP5 DUP3 DUP6 ADD PUSH2 0x169E JUMP JUMPDEST SWAP2 POP POP SWAP3 SWAP2 POP POP JUMP JUMPDEST PUSH2 0x1770 DUP2 PUSH2 0x1D3E JUMP JUMPDEST DUP3 MSTORE POP POP JUMP JUMPDEST PUSH2 0x177F DUP2 PUSH2 0x1D2C JUMP JUMPDEST DUP3 MSTORE POP POP JUMP JUMPDEST PUSH2 0x1796 PUSH2 0x1791 DUP3 PUSH2 0x1D2C JUMP JUMPDEST PUSH2 0x1E9E JUMP JUMPDEST DUP3 MSTORE POP POP JUMP JUMPDEST PUSH2 0x17A5 DUP2 PUSH2 0x1D50 JUMP JUMPDEST DUP3 MSTORE POP POP JUMP JUMPDEST PUSH1 0x0 PUSH2 0x17B6 DUP3 PUSH2 0x1C9E JUMP JUMPDEST PUSH2 0x17C0 DUP2 DUP6 PUSH2 0x1CB4 JUMP JUMPDEST SWAP4 POP PUSH2 0x17D0 DUP2 DUP6 PUSH1 0x20 DUP7 ADD PUSH2 0x1DBF JUMP JUMPDEST PUSH2 0x17D9 DUP2 PUSH2 0x200F JUMP JUMPDEST DUP5 ADD SWAP2 POP POP SWAP3 SWAP2 POP POP JUMP JUMPDEST PUSH1 0x0 PUSH2 0x17EF DUP3 PUSH2 0x1CA9 JUMP JUMPDEST PUSH2 0x17F9 DUP2 DUP6 PUSH2 0x1CC5 JUMP JUMPDEST SWAP4 POP PUSH2 0x1809 DUP2 DUP6 PUSH1 0x20 DUP7 ADD PUSH2 0x1DBF JUMP JUMPDEST PUSH2 0x1812 DUP2 PUSH2 0x200F JUMP JUMPDEST DUP5 ADD SWAP2 POP POP SWAP3 SWAP2 POP POP JUMP JUMPDEST PUSH1 0x0 PUSH2 0x182A PUSH1 0x34 DUP4 PUSH2 0x1CC5 JUMP JUMPDEST SWAP2 POP PUSH2 0x1835 DUP3 PUSH2 0x203A JUMP JUMPDEST PUSH1 0x40 DUP3 ADD SWAP1 POP SWAP2 SWAP1 POP JUMP JUMPDEST PUSH1 0x0 PUSH2 0x184D PUSH1 0x28 DUP4 PUSH2 0x1CC5 JUMP JUMPDEST SWAP2 POP PUSH2 0x1858 DUP3 PUSH2 0x2089 JUMP JUMPDEST PUSH1 0x40 DUP3 ADD SWAP1 POP SWAP2 SWAP1 POP JUMP JUMPDEST PUSH1 0x0 PUSH2 0x1870 PUSH1 0x19 DUP4 PUSH2 0x1CC5 JUMP JUMPDEST SWAP2 POP PUSH2 0x187B DUP3 PUSH2 0x20D8 JUMP JUMPDEST PUSH1 0x20 DUP3 ADD SWAP1 POP SWAP2 SWAP1 POP JUMP JUMPDEST PUSH1 0x0 PUSH2 0x1893 PUSH1 0x1B DUP4 PUSH2 0x1CC5 JUMP JUMPDEST SWAP2 POP PUSH2 0x189E DUP3 PUSH2 0x2101 JUMP JUMPDEST PUSH1 0x20 DUP3 ADD SWAP1 POP SWAP2 SWAP1 POP JUMP JUMPDEST PUSH1 0x0 PUSH2 0x18B6 PUSH1 0x1B DUP4 PUSH2 0x1CC5 JUMP JUMPDEST SWAP2 POP PUSH2 0x18C1 DUP3 PUSH2 0x212A JUMP JUMPDEST PUSH1 0x20 DUP3 ADD SWAP1 POP SWAP2 SWAP1 POP JUMP JUMPDEST PUSH1 0x0 PUSH2 0x18D9 PUSH1 0x1C DUP4 PUSH2 0x1CC5 JUMP JUMPDEST SWAP2 POP PUSH2 0x18E4 DUP3 PUSH2 0x2153 JUMP JUMPDEST PUSH1 0x20 DUP3 ADD SWAP1 POP SWAP2 SWAP1 POP JUMP JUMPDEST PUSH1 0x0 PUSH2 0x18FC PUSH1 0x1B DUP4 PUSH2 0x1CC5 JUMP JUMPDEST SWAP2 POP PUSH2 0x1907 DUP3 PUSH2 0x217C JUMP JUMPDEST PUSH1 0x20 DUP3 ADD SWAP1 POP SWAP2 SWAP1 POP JUMP JUMPDEST PUSH1 0x0 PUSH2 0x191F PUSH1 0x19 DUP4 PUSH2 0x1CC5 JUMP JUMPDEST SWAP2 POP PUSH2 0x192A DUP3 PUSH2 0x21A5 JUMP JUMPDEST PUSH1 0x20 DUP3 ADD SWAP1 POP SWAP2 SWAP1 POP JUMP JUMPDEST PUSH1 0x0 PUSH2 0x1942 PUSH1 0x1D DUP4 PUSH2 0x1CC5 JUMP JUMPDEST SWAP2 POP PUSH2 0x194D DUP3 PUSH2 0x21CE JUMP JUMPDEST PUSH1 0x20 DUP3 ADD SWAP1 POP SWAP2 SWAP1 POP JUMP JUMPDEST PUSH1 0x0 PUSH2 0x1965 PUSH1 0x21 DUP4 PUSH2 0x1CC5 JUMP JUMPDEST SWAP2 POP PUSH2 0x1970 DUP3 PUSH2 0x21F7 JUMP JUMPDEST PUSH1 0x40 DUP3 ADD SWAP1 POP SWAP2 SWAP1 POP JUMP JUMPDEST PUSH2 0x1984 DUP2 PUSH2 0x1DA8 JUMP JUMPDEST DUP3 MSTORE POP POP JUMP JUMPDEST PUSH2 0x199B PUSH2 0x1996 DUP3 PUSH2 0x1DA8 JUMP JUMPDEST PUSH2 0x1EC2 JUMP JUMPDEST DUP3 MSTORE POP POP JUMP JUMPDEST PUSH2 0x19AA DUP2 PUSH2 0x1DB2 JUMP JUMPDEST DUP3 MSTORE POP POP JUMP JUMPDEST PUSH1 0x0 PUSH2 0x19BC DUP3 DUP6 PUSH2 0x198A JUMP JUMPDEST PUSH1 0x20 DUP3 ADD SWAP2 POP PUSH2 0x19CC DUP3 DUP5 PUSH2 0x1785 JUMP JUMPDEST PUSH1 0x14 DUP3 ADD SWAP2 POP DUP2 SWAP1 POP SWAP4 SWAP3 POP POP POP JUMP JUMPDEST PUSH1 0x0 PUSH1 0x20 DUP3 ADD SWAP1 POP PUSH2 0x19F1 PUSH1 0x0 DUP4 ADD DUP5 PUSH2 0x1767 JUMP JUMPDEST SWAP3 SWAP2 POP POP JUMP JUMPDEST PUSH1 0x0 PUSH1 0xA0 DUP3 ADD SWAP1 POP PUSH2 0x1A0C PUSH1 0x0 DUP4 ADD DUP9 PUSH2 0x1776 JUMP JUMPDEST PUSH2 0x1A19 PUSH1 0x20 DUP4 ADD DUP8 PUSH2 0x1776 JUMP JUMPDEST PUSH2 0x1A26 PUSH1 0x40 DUP4 ADD DUP7 PUSH2 0x197B JUMP JUMPDEST PUSH2 0x1A33 PUSH1 0x60 DUP4 ADD DUP6 PUSH2 0x197B JUMP JUMPDEST DUP2 DUP2 SUB PUSH1 0x80 DUP4 ADD MSTORE PUSH2 0x1A45 DUP2 DUP5 PUSH2 0x17AB JUMP JUMPDEST SWAP1 POP SWAP7 SWAP6 POP POP POP POP POP POP JUMP JUMPDEST PUSH1 0x0 PUSH1 0x20 DUP3 ADD SWAP1 POP PUSH2 0x1A66 PUSH1 0x0 DUP4 ADD DUP5 PUSH2 0x179C JUMP JUMPDEST SWAP3 SWAP2 POP POP JUMP JUMPDEST PUSH1 0x0 PUSH1 0x20 DUP3 ADD SWAP1 POP DUP2 DUP2 SUB PUSH1 0x0 DUP4 ADD MSTORE PUSH2 0x1A86 DUP2 DUP5 PUSH2 0x17E4 JUMP JUMPDEST SWAP1 POP SWAP3 SWAP2 POP POP JUMP JUMPDEST PUSH1 0x0 PUSH1 0x20 DUP3 ADD SWAP1 POP DUP2 DUP2 SUB PUSH1 0x0 DUP4 ADD MSTORE PUSH2 0x1AA7 DUP2 PUSH2 0x181D JUMP JUMPDEST SWAP1 POP SWAP2 SWAP1 POP JUMP JUMPDEST PUSH1 0x0 PUSH1 0x20 DUP3 ADD SWAP1 POP DUP2 DUP2 SUB PUSH1 0x0 DUP4 ADD MSTORE PUSH2 0x1AC7 DUP2 PUSH2 0x1840 JUMP JUMPDEST SWAP1 POP SWAP2 SWAP1 POP JUMP JUMPDEST PUSH1 0x0 PUSH1 0x20 DUP3 ADD SWAP1 POP DUP2 DUP2 SUB PUSH1 0x0 DUP4 ADD MSTORE PUSH2 0x1AE7 DUP2 PUSH2 0x1863 JUMP JUMPDEST SWAP1 POP SWAP2 SWAP1 POP JUMP JUMPDEST PUSH1 0x0 PUSH1 0x20 DUP3 ADD SWAP1 POP DUP2 DUP2 SUB PUSH1 0x0 DUP4 ADD MSTORE PUSH2 0x1B07 DUP2 PUSH2 0x1886 JUMP JUMPDEST SWAP1 POP SWAP2 SWAP1 POP JUMP JUMPDEST PUSH1 0x0 PUSH1 0x20 DUP3 ADD SWAP1 POP DUP2 DUP2 SUB PUSH1 0x0 DUP4 ADD MSTORE PUSH2 0x1B27 DUP2 PUSH2 0x18A9 JUMP JUMPDEST SWAP1 POP SWAP2 SWAP1 POP JUMP JUMPDEST PUSH1 0x0 PUSH1 0x20 DUP3 ADD SWAP1 POP DUP2 DUP2 SUB PUSH1 0x0 DUP4 ADD MSTORE PUSH2 0x1B47 DUP2 PUSH2 0x18CC JUMP JUMPDEST SWAP1 POP SWAP2 SWAP1 POP JUMP JUMPDEST PUSH1 0x0 PUSH1 0x20 DUP3 ADD SWAP1 POP DUP2 DUP2 SUB PUSH1 0x0 DUP4 ADD MSTORE PUSH2 0x1B67 DUP2 PUSH2 0x18EF JUMP JUMPDEST SWAP1 POP SWAP2 SWAP1 POP JUMP JUMPDEST PUSH1 0x0 PUSH1 0x20 DUP3 ADD SWAP1 POP DUP2 DUP2 SUB PUSH1 0x0 DUP4 ADD MSTORE PUSH2 0x1B87 DUP2 PUSH2 0x1912 JUMP JUMPDEST SWAP1 POP SWAP2 SWAP1 POP JUMP JUMPDEST PUSH1 0x0 PUSH1 0x20 DUP3 ADD SWAP1 POP DUP2 DUP2 SUB PUSH1 0x0 DUP4 ADD MSTORE PUSH2 0x1BA7 DUP2 PUSH2 0x1935 JUMP JUMPDEST SWAP1 POP SWAP2 SWAP1 POP JUMP JUMPDEST PUSH1 0x0 PUSH1 0x20 DUP3 ADD SWAP1 POP DUP2 DUP2 SUB PUSH1 0x0 DUP4 ADD MSTORE PUSH2 0x1BC7 DUP2 PUSH2 0x1958 JUMP JUMPDEST SWAP1 POP SWAP2 SWAP1 POP JUMP JUMPDEST PUSH1 0x0 PUSH1 0x20 DUP3 ADD SWAP1 POP PUSH2 0x1BE3 PUSH1 0x0 DUP4 ADD DUP5 PUSH2 0x197B JUMP JUMPDEST SWAP3 SWAP2 POP POP JUMP JUMPDEST PUSH1 0x0 PUSH1 0x40 DUP3 ADD SWAP1 POP PUSH2 0x1BFE PUSH1 0x0 DUP4 ADD DUP6 PUSH2 0x197B JUMP JUMPDEST DUP2 DUP2 SUB PUSH1 0x20 DUP4 ADD MSTORE PUSH2 0x1C10 DUP2 DUP5 PUSH2 0x17E4 JUMP JUMPDEST SWAP1 POP SWAP4 SWAP3 POP POP POP JUMP JUMPDEST PUSH1 0x0 PUSH1 0x40 DUP3 ADD SWAP1 POP PUSH2 0x1C2E PUSH1 0x0 DUP4 ADD DUP6 PUSH2 0x197B JUMP JUMPDEST PUSH2 0x1C3B PUSH1 0x20 DUP4 ADD DUP5 PUSH2 0x197B JUMP JUMPDEST SWAP4 SWAP3 POP POP POP JUMP JUMPDEST PUSH1 0x0 PUSH1 0x60 DUP3 ADD SWAP1 POP PUSH2 0x1C57 PUSH1 0x0 DUP4 ADD DUP7 PUSH2 0x197B JUMP JUMPDEST PUSH2 0x1C64 PUSH1 0x20 DUP4 ADD DUP6 PUSH2 0x197B JUMP JUMPDEST PUSH2 0x1C71 PUSH1 0x40 DUP4 ADD DUP5 PUSH2 0x197B JUMP JUMPDEST SWAP5 SWAP4 POP POP POP POP JUMP JUMPDEST PUSH1 0x0 PUSH1 0x20 DUP3 ADD SWAP1 POP PUSH2 0x1C8E PUSH1 0x0 DUP4 ADD DUP5 PUSH2 0x19A1 JUMP JUMPDEST SWAP3 SWAP2 POP POP JUMP JUMPDEST PUSH1 0x0 PUSH1 0x40 MLOAD SWAP1 POP SWAP1 JUMP JUMPDEST PUSH1 0x0 DUP2 MLOAD SWAP1 POP SWAP2 SWAP1 POP JUMP JUMPDEST PUSH1 0x0 DUP2 MLOAD SWAP1 POP SWAP2 SWAP1 POP JUMP JUMPDEST PUSH1 0x0 DUP3 DUP3 MSTORE PUSH1 0x20 DUP3 ADD SWAP1 POP SWAP3 SWAP2 POP POP JUMP JUMPDEST PUSH1 0x0 DUP3 DUP3 MSTORE PUSH1 0x20 DUP3 ADD SWAP1 POP SWAP3 SWAP2 POP POP JUMP JUMPDEST PUSH1 0x0 PUSH2 0x1CE1 DUP3 PUSH2 0x1DA8 JUMP JUMPDEST SWAP2 POP PUSH2 0x1CEC DUP4 PUSH2 0x1DA8 JUMP JUMPDEST SWAP3 POP DUP3 PUSH32 0xFFFFFFFFFFFFFFFFFFFFFFFFFFFFFFFFFFFFFFFFFFFFFFFFFFFFFFFFFFFFFFFF SUB DUP3 GT ISZERO PUSH2 0x1D21 JUMPI PUSH2 0x1D20 PUSH2 0x1EFD JUMP JUMPDEST JUMPDEST DUP3 DUP3 ADD SWAP1 POP SWAP3 SWAP2 POP POP JUMP JUMPDEST PUSH1 0x0 PUSH2 0x1D37 DUP3 PUSH2 0x1D88 JUMP JUMPDEST SWAP1 POP SWAP2 SWAP1 POP JUMP JUMPDEST PUSH1 0x0 PUSH2 0x1D49 DUP3 PUSH2 0x1D88 JUMP JUMPDEST SWAP1 POP SWAP2 SWAP1 POP JUMP JUMPDEST PUSH1 0x0 DUP2 ISZERO ISZERO SWAP1 POP SWAP2 SWAP1 POP JUMP JUMPDEST PUSH1 0x0 PUSH32 0xFFFFFFFF00000000000000000000000000000000000000000000000000000000 DUP3 AND SWAP1 POP SWAP2 SWAP1 POP JUMP JUMPDEST PUSH1 0x0 PUSH20 0xFFFFFFFFFFFFFFFFFFFFFFFFFFFFFFFFFFFFFFFF DUP3 AND SWAP1 POP SWAP2 SWAP1 POP JUMP JUMPDEST PUSH1 0x0 DUP2 SWAP1 POP SWAP2 SWAP1 POP JUMP JUMPDEST PUSH1 0x0 PUSH1 0xFF DUP3 AND SWAP1 POP SWAP2 SWAP1 POP JUMP JUMPDEST PUSH1 0x0 JUMPDEST DUP4 DUP2 LT ISZERO PUSH2 0x1DDD JUMPI DUP1 DUP3 ADD MLOAD DUP2 DUP5 ADD MSTORE PUSH1 0x20 DUP2 ADD SWAP1 POP PUSH2 0x1DC2 JUMP JUMPDEST DUP4 DUP2 GT ISZERO PUSH2 0x1DEC JUMPI PUSH1 0x0 DUP5 DUP5 ADD MSTORE JUMPDEST POP POP POP POP JUMP JUMPDEST PUSH1 0x0 PUSH1 0x2 DUP3 DIV SWAP1 POP PUSH1 0x1 DUP3 AND DUP1 PUSH2 0x1E0A JUMPI PUSH1 0x7F DUP3 AND SWAP2 POP JUMPDEST PUSH1 0x20 DUP3 LT DUP2 EQ ISZERO PUSH2 0x1E1E JUMPI PUSH2 0x1E1D PUSH2 0x1F5B JUMP JUMPDEST JUMPDEST POP SWAP2 SWAP1 POP JUMP JUMPDEST PUSH2 0x1E2D DUP3 PUSH2 0x200F JUMP JUMPDEST DUP2 ADD DUP2 DUP2 LT PUSH8 0xFFFFFFFFFFFFFFFF DUP3 GT OR ISZERO PUSH2 0x1E4C JUMPI PUSH2 0x1E4B PUSH2 0x1FB9 JUMP JUMPDEST JUMPDEST DUP1 PUSH1 0x40 MSTORE POP POP POP JUMP JUMPDEST PUSH1 0x0 PUSH2 0x1E60 DUP3 PUSH2 0x1DA8 JUMP JUMPDEST SWAP2 POP PUSH32 0xFFFFFFFFFFFFFFFFFFFFFFFFFFFFFFFFFFFFFFFFFFFFFFFFFFFFFFFFFFFFFFFF DUP3 EQ ISZERO PUSH2 0x1E93 JUMPI PUSH2 0x1E92 PUSH2 0x1EFD JUMP JUMPDEST JUMPDEST PUSH1 0x1 DUP3 ADD SWAP1 POP SWAP2 SWAP1 POP JUMP JUMPDEST PUSH1 0x0 PUSH2 0x1EA9 DUP3 PUSH2 0x1EB0 JUMP JUMPDEST SWAP1 POP SWAP2 SWAP1 POP JUMP JUMPDEST PUSH1 0x0 PUSH2 0x1EBB DUP3 PUSH2 0x2020 JUMP JUMPDEST SWAP1 POP SWAP2 SWAP1 POP JUMP JUMPDEST PUSH1 0x0 DUP2 SWAP1 POP SWAP2 SWAP1 POP JUMP JUMPDEST PUSH1 0x0 PUSH2 0x1ED7 DUP3 PUSH2 0x1DA8 JUMP JUMPDEST SWAP2 POP PUSH2 0x1EE2 DUP4 PUSH2 0x1DA8 JUMP JUMPDEST SWAP3 POP DUP3 PUSH2 0x1EF2 JUMPI PUSH2 0x1EF1 PUSH2 0x1F2C JUMP JUMPDEST JUMPDEST DUP3 DUP3 MOD SWAP1 POP SWAP3 SWAP2 POP POP JUMP JUMPDEST PUSH32 0x4E487B7100000000000000000000000000000000000000000000000000000000 PUSH1 0x0 MSTORE PUSH1 0x11 PUSH1 0x4 MSTORE PUSH1 0x24 PUSH1 0x0 REVERT JUMPDEST PUSH32 0x4E487B7100000000000000000000000000000000000000000000000000000000 PUSH1 0x0 MSTORE PUSH1 0x12 PUSH1 0x4 MSTORE PUSH1 0x24 PUSH1 0x0 REVERT JUMPDEST PUSH32 0x4E487B7100000000000000000000000000000000000000000000000000000000 PUSH1 0x0 MSTORE PUSH1 0x22 PUSH1 0x4 MSTORE PUSH1 0x24 PUSH1 0x0 REVERT JUMPDEST PUSH32 0x4E487B7100000000000000000000000000000000000000000000000000000000 PUSH1 0x0 MSTORE PUSH1 0x32 PUSH1 0x4 MSTORE PUSH1 0x24 PUSH1 0x0 REVERT JUMPDEST PUSH32 0x4E487B7100000000000000000000000000000000000000000000000000000000 PUSH1 0x0 MSTORE PUSH1 0x41 PUSH1 0x4 MSTORE PUSH1 0x24 PUSH1 0x0 REVERT JUMPDEST PUSH1 0x0 PUSH1 0x3 RETURNDATASIZE GT ISZERO PUSH2 0x2007 JUMPI PUSH1 0x4 PUSH1 0x0 DUP1 RETURNDATACOPY PUSH2 0x2004 PUSH1 0x0 MLOAD PUSH2 0x202D JUMP JUMPDEST SWAP1 POP JUMPDEST SWAP1 JUMP JUMPDEST PUSH1 0x0 DUP1 REVERT JUMPDEST PUSH1 0x0 PUSH1 0x1F NOT PUSH1 0x1F DUP4 ADD AND SWAP1 POP SWAP2 SWAP1 POP JUMP JUMPDEST PUSH1 0x0 DUP2 PUSH1 0x60 SHL SWAP1 POP SWAP2 SWAP1 POP JUMP JUMPDEST PUSH1 0x0 DUP2 PUSH1 0xE0 SHR SWAP1 POP SWAP2 SWAP1 POP JUMP JUMPDEST PUSH32 0x455243313135353A207472616E7366657220746F206E6F6E2045524331313535 PUSH1 0x0 DUP3 ADD MSTORE PUSH32 0x526563656976657220696D706C656D656E746572000000000000000000000000 PUSH1 0x20 DUP3 ADD MSTORE POP JUMP JUMPDEST PUSH32 0x455243313135353A204552433131353552656365697665722072656A65637465 PUSH1 0x0 DUP3 ADD MSTORE PUSH32 0x6420746F6B656E73000000000000000000000000000000000000000000000000 PUSH1 0x20 DUP3 ADD MSTORE POP JUMP JUMPDEST PUSH32 0x42616C616E6365206D757374206265203235204D617469637300000000000000 PUSH1 0x0 DUP3 ADD MSTORE POP JUMP JUMPDEST PUSH32 0x44726F707369746520697320616C72656164792052756E6E696E670000000000 PUSH1 0x0 DUP3 ADD MSTORE POP JUMP JUMPDEST PUSH32 0x44726F707369746520697320616C72656164792053746F707065640000000000 PUSH1 0x0 DUP3 ADD MSTORE POP JUMP JUMPDEST PUSH32 0x4F6E6C79204E46542D4553204F776E65722063616E2041636365737300000000 PUSH1 0x0 DUP3 ADD MSTORE POP JUMP JUMPDEST PUSH32 0x44726F7073697465206973206E6F74204F70656E6564205965742E0000000000 PUSH1 0x0 DUP3 ADD MSTORE POP JUMP JUMPDEST PUSH32 0x4D6178204D696E74696E67204C696D6974207265616368656400000000000000 PUSH1 0x0 DUP3 ADD MSTORE POP JUMP JUMPDEST PUSH32 0x4572726F7221204E6F2042616C616E636520746F207769746864726177000000 PUSH1 0x0 DUP3 ADD MSTORE POP JUMP JUMPDEST PUSH32 0x455243313135353A206D696E7420746F20746865207A65726F20616464726573 PUSH1 0x0 DUP3 ADD MSTORE PUSH32 0x7300000000000000000000000000000000000000000000000000000000000000 PUSH1 0x20 DUP3 ADD MSTORE POP JUMP JUMPDEST PUSH1 0x0 PUSH1 0x44 RETURNDATASIZE LT ISZERO PUSH2 0x2256 JUMPI PUSH2 0x22D9 JUMP JUMPDEST PUSH2 0x225E PUSH2 0x1C94 JUMP JUMPDEST PUSH1 0x4 RETURNDATASIZE SUB PUSH1 0x4 DUP3 RETURNDATACOPY DUP1 MLOAD RETURNDATASIZE PUSH1 0x24 DUP3 ADD GT PUSH8 0xFFFFFFFFFFFFFFFF DUP3 GT OR ISZERO PUSH2 0x2286 JUMPI POP POP PUSH2 0x22D9 JUMP JUMPDEST DUP1 DUP3 ADD DUP1 MLOAD PUSH8 0xFFFFFFFFFFFFFFFF DUP2 GT ISZERO PUSH2 0x22A4 JUMPI POP POP POP POP PUSH2 0x22D9 JUMP JUMPDEST DUP1 PUSH1 0x20 DUP4 ADD ADD PUSH1 0x4 RETURNDATASIZE SUB DUP6 ADD DUP2 GT ISZERO PUSH2 0x22C1 JUMPI POP POP POP POP POP PUSH2 0x22D9 JUMP JUMPDEST PUSH2 0x22D0 DUP3 PUSH1 0x20 ADD DUP6 ADD DUP7 PUSH2 0x1E24 JUMP JUMPDEST DUP3 SWAP6 POP POP POP POP POP POP JUMPDEST SWAP1 JUMP JUMPDEST PUSH2 0x22E5 DUP2 PUSH2 0x1D2C JUMP JUMPDEST DUP2 EQ PUSH2 0x22F0 JUMPI PUSH1 0x0 DUP1 REVERT JUMPDEST POP JUMP JUMPDEST PUSH2 0x22FC DUP2 PUSH2 0x1D3E JUMP JUMPDEST DUP2 EQ PUSH2 0x2307 JUMPI PUSH1 0x0 DUP1 REVERT JUMPDEST POP JUMP JUMPDEST PUSH2 0x2313 DUP2 PUSH2 0x1D5C JUMP JUMPDEST DUP2 EQ PUSH2 0x231E JUMPI PUSH1 0x0 DUP1 REVERT JUMPDEST POP JUMP JUMPDEST PUSH2 0x232A DUP2 PUSH2 0x1DA8 JUMP JUMPDEST DUP2 EQ PUSH2 0x2335 JUMPI PUSH1 0x0 DUP1 REVERT JUMPDEST POP JUMP INVALID LOG2 PUSH5 0x6970667358 0x22 SLT KECCAK256 LOG0 SWAP4 PUSH20 0xA79FD6F1575B91CA17D2A750BDDD197746E38A69 CALLCODE LOG1 PUSH18 0x58B12D8C5E8764736F6C6343000807003300 "
				},
				"gasEstimates": {
					"creation": {
						"codeDepositCost": "1814000",
						"executionCost": "infinite",
						"totalCost": "infinite"
					},
					"external": {
						"ContractBalance()": "2802",
						"CryptoRandomMint(address)": "infinite",
						"FiatRandomMint(address)": "infinite",
						"IsPaused()": "2516",
						"Owner()": "2630",
						"checkMintedCategoryWise()": "infinite",
						"checkTotalMinted()": "4693",
						"nums(uint256)": "4475",
						"openDropsite()": "28904",
						"returnOwner(address)": "2951",
						"stopDropsite()": "28881",
						"withDraw(address)": "infinite"
					},
					"internal": {
						"depositAmount(address,uint256)": "infinite",
						"random()": "infinite",
						"updateConditions()": "infinite"
					}
				},
				"methodIdentifiers": {
					"ContractBalance()": "3b668059",
					"CryptoRandomMint(address)": "3d65df70",
					"FiatRandomMint(address)": "32b61b4c",
					"IsPaused()": "1309a563",
					"Owner()": "b4a99a4e",
					"checkMintedCategoryWise()": "60daa851",
					"checkTotalMinted()": "0390c11c",
					"nums(uint256)": "fd1ee54c",
					"openDropsite()": "15460259",
					"returnOwner(address)": "fd6c3b1b",
					"stopDropsite()": "aa90c726",
					"withDraw(address)": "0a67d2c7"
				}
			},
			"userdoc": {
				"kind": "user",
				"methods": {},
				"version": 1
			}
		}
	}
}