{
	"Dropsite.sol": {
		"Dropsite": {
			"abi": [
				{
					"inputs": [
						{
							"internalType": "string",
							"name": "name",
							"type": "string"
						}
					],
					"stateMutability": "nonpayable",
					"type": "constructor"
				},
				{
					"anonymous": false,
					"inputs": [
						{
							"indexed": true,
							"internalType": "address",
							"name": "operator",
							"type": "address"
						},
						{
							"indexed": true,
							"internalType": "address",
							"name": "from",
							"type": "address"
						},
						{
							"indexed": true,
							"internalType": "address",
							"name": "to",
							"type": "address"
						},
						{
							"indexed": false,
							"internalType": "uint256",
							"name": "id",
							"type": "uint256"
						},
						{
							"indexed": false,
							"internalType": "uint256",
							"name": "value",
							"type": "uint256"
						}
					],
					"name": "TransferSingle",
					"type": "event"
				},
				{
					"inputs": [],
					"name": "ContractBalance",
					"outputs": [
						{
							"internalType": "uint256",
							"name": "",
							"type": "uint256"
						}
					],
					"stateMutability": "view",
					"type": "function"
				},
				{
					"inputs": [
						{
							"internalType": "address",
							"name": "user_addr",
							"type": "address"
						}
					],
					"name": "CryptoRandomMint",
					"outputs": [
						{
							"internalType": "uint256",
							"name": "",
							"type": "uint256"
						},
						{
							"internalType": "string",
							"name": "",
							"type": "string"
						}
					],
					"stateMutability": "payable",
					"type": "function"
				},
				{
					"inputs": [
						{
							"internalType": "address",
							"name": "user_addr",
							"type": "address"
						}
					],
					"name": "FiatRandomMint",
					"outputs": [
						{
							"internalType": "uint256",
							"name": "",
							"type": "uint256"
						},
						{
							"internalType": "string",
							"name": "",
							"type": "string"
						}
					],
					"stateMutability": "nonpayable",
					"type": "function"
				},
				{
					"inputs": [],
					"name": "IsPaused",
					"outputs": [
						{
							"internalType": "bool",
							"name": "",
							"type": "bool"
						}
					],
					"stateMutability": "view",
					"type": "function"
				},
				{
					"inputs": [],
					"name": "Owner",
					"outputs": [
						{
							"internalType": "address payable",
							"name": "",
							"type": "address"
						}
					],
					"stateMutability": "view",
					"type": "function"
				},
				{
					"inputs": [],
					"name": "checkMintedCategoryWise",
					"outputs": [
						{
							"internalType": "uint256",
							"name": "",
							"type": "uint256"
						},
						{
							"internalType": "uint256",
							"name": "",
							"type": "uint256"
						},
						{
							"internalType": "uint256",
							"name": "",
							"type": "uint256"
						}
					],
					"stateMutability": "view",
					"type": "function"
				},
				{
					"inputs": [],
					"name": "checkTotalMinted",
					"outputs": [
						{
							"internalType": "uint256",
							"name": "",
							"type": "uint256"
						}
					],
					"stateMutability": "view",
					"type": "function"
				},
				{
					"inputs": [
						{
							"internalType": "uint256",
							"name": "",
							"type": "uint256"
						}
					],
					"name": "nums",
					"outputs": [
						{
							"internalType": "uint8",
							"name": "",
							"type": "uint8"
						}
					],
					"stateMutability": "view",
					"type": "function"
				},
				{
					"inputs": [],
					"name": "openDropsite",
					"outputs": [],
					"stateMutability": "nonpayable",
					"type": "function"
				},
				{
					"inputs": [
						{
							"internalType": "address",
							"name": "addr",
							"type": "address"
						}
					],
					"name": "returnOwner",
					"outputs": [
						{
							"internalType": "uint256[]",
							"name": "",
							"type": "uint256[]"
						}
					],
					"stateMutability": "view",
					"type": "function"
				},
				{
					"inputs": [],
					"name": "stopDropsite",
					"outputs": [],
					"stateMutability": "nonpayable",
					"type": "function"
				},
				{
					"inputs": [
						{
							"internalType": "address payable",
							"name": "to",
							"type": "address"
						}
					],
					"name": "withDraw",
					"outputs": [],
					"stateMutability": "payable",
					"type": "function"
				}
			],
			"devdoc": {
				"kind": "dev",
				"methods": {},
				"version": 1
			},
			"evm": {
				"assembly": "    /* \"Dropsite.sol\":122:5050  contract Dropsite is ERC1155_Dropsite  { ... */\n  mstore(0x40, 0x80)\n    /* \"Dropsite.sol\":188:203  bytes  data =\"\" */\n  mload(0x40)\n  dup1\n  0x20\n  add\n  0x40\n  mstore\n  dup1\n  0x00\n  dup2\n  mstore\n  pop\n  0x02\n  swap1\n  dup1\n  mload\n  swap1\n  0x20\n  add\n  swap1\n  tag_1\n  swap3\n  swap2\n  swap1\n  tag_2\n  jump\t// in\ntag_1:\n  pop\n    /* \"Dropsite.sol\":209:274  uint8[20] public nums = [0,1,1,2,2,2,2,2,2,2,2,2,2,2,2,2,2,2,2,2] */\n  mload(0x40)\n  dup1\n  0x0280\n  add\n  0x40\n  mstore\n  dup1\n    /* \"Dropsite.sol\":234:235  0 */\n  0x00\n    /* \"Dropsite.sol\":209:274  uint8[20] public nums = [0,1,1,2,2,2,2,2,2,2,2,2,2,2,2,2,2,2,2,2] */\n  0xff\n  and\n  dup2\n  mstore\n  0x20\n  add\n    /* \"Dropsite.sol\":236:237  1 */\n  0x01\n    /* \"Dropsite.sol\":209:274  uint8[20] public nums = [0,1,1,2,2,2,2,2,2,2,2,2,2,2,2,2,2,2,2,2] */\n  0xff\n  and\n  dup2\n  mstore\n  0x20\n  add\n    /* \"Dropsite.sol\":238:239  1 */\n  0x01\n    /* \"Dropsite.sol\":209:274  uint8[20] public nums = [0,1,1,2,2,2,2,2,2,2,2,2,2,2,2,2,2,2,2,2] */\n  0xff\n  and\n  dup2\n  mstore\n  0x20\n  add\n    /* \"Dropsite.sol\":240:241  2 */\n  0x02\n    /* \"Dropsite.sol\":209:274  uint8[20] public nums = [0,1,1,2,2,2,2,2,2,2,2,2,2,2,2,2,2,2,2,2] */\n  0xff\n  and\n  dup2\n  mstore\n  0x20\n  add\n    /* \"Dropsite.sol\":242:243  2 */\n  0x02\n    /* \"Dropsite.sol\":209:274  uint8[20] public nums = [0,1,1,2,2,2,2,2,2,2,2,2,2,2,2,2,2,2,2,2] */\n  0xff\n  and\n  dup2\n  mstore\n  0x20\n  add\n    /* \"Dropsite.sol\":244:245  2 */\n  0x02\n    /* \"Dropsite.sol\":209:274  uint8[20] public nums = [0,1,1,2,2,2,2,2,2,2,2,2,2,2,2,2,2,2,2,2] */\n  0xff\n  and\n  dup2\n  mstore\n  0x20\n  add\n    /* \"Dropsite.sol\":246:247  2 */\n  0x02\n    /* \"Dropsite.sol\":209:274  uint8[20] public nums = [0,1,1,2,2,2,2,2,2,2,2,2,2,2,2,2,2,2,2,2] */\n  0xff\n  and\n  dup2\n  mstore\n  0x20\n  add\n    /* \"Dropsite.sol\":248:249  2 */\n  0x02\n    /* \"Dropsite.sol\":209:274  uint8[20] public nums = [0,1,1,2,2,2,2,2,2,2,2,2,2,2,2,2,2,2,2,2] */\n  0xff\n  and\n  dup2\n  mstore\n  0x20\n  add\n    /* \"Dropsite.sol\":250:251  2 */\n  0x02\n    /* \"Dropsite.sol\":209:274  uint8[20] public nums = [0,1,1,2,2,2,2,2,2,2,2,2,2,2,2,2,2,2,2,2] */\n  0xff\n  and\n  dup2\n  mstore\n  0x20\n  add\n    /* \"Dropsite.sol\":252:253  2 */\n  0x02\n    /* \"Dropsite.sol\":209:274  uint8[20] public nums = [0,1,1,2,2,2,2,2,2,2,2,2,2,2,2,2,2,2,2,2] */\n  0xff\n  and\n  dup2\n  mstore\n  0x20\n  add\n    /* \"Dropsite.sol\":254:255  2 */\n  0x02\n    /* \"Dropsite.sol\":209:274  uint8[20] public nums = [0,1,1,2,2,2,2,2,2,2,2,2,2,2,2,2,2,2,2,2] */\n  0xff\n  and\n  dup2\n  mstore\n  0x20\n  add\n    /* \"Dropsite.sol\":256:257  2 */\n  0x02\n    /* \"Dropsite.sol\":209:274  uint8[20] public nums = [0,1,1,2,2,2,2,2,2,2,2,2,2,2,2,2,2,2,2,2] */\n  0xff\n  and\n  dup2\n  mstore\n  0x20\n  add\n    /* \"Dropsite.sol\":258:259  2 */\n  0x02\n    /* \"Dropsite.sol\":209:274  uint8[20] public nums = [0,1,1,2,2,2,2,2,2,2,2,2,2,2,2,2,2,2,2,2] */\n  0xff\n  and\n  dup2\n  mstore\n  0x20\n  add\n    /* \"Dropsite.sol\":260:261  2 */\n  0x02\n    /* \"Dropsite.sol\":209:274  uint8[20] public nums = [0,1,1,2,2,2,2,2,2,2,2,2,2,2,2,2,2,2,2,2] */\n  0xff\n  and\n  dup2\n  mstore\n  0x20\n  add\n    /* \"Dropsite.sol\":262:263  2 */\n  0x02\n    /* \"Dropsite.sol\":209:274  uint8[20] public nums = [0,1,1,2,2,2,2,2,2,2,2,2,2,2,2,2,2,2,2,2] */\n  0xff\n  and\n  dup2\n  mstore\n  0x20\n  add\n    /* \"Dropsite.sol\":264:265  2 */\n  0x02\n    /* \"Dropsite.sol\":209:274  uint8[20] public nums = [0,1,1,2,2,2,2,2,2,2,2,2,2,2,2,2,2,2,2,2] */\n  0xff\n  and\n  dup2\n  mstore\n  0x20\n  add\n    /* \"Dropsite.sol\":266:267  2 */\n  0x02\n    /* \"Dropsite.sol\":209:274  uint8[20] public nums = [0,1,1,2,2,2,2,2,2,2,2,2,2,2,2,2,2,2,2,2] */\n  0xff\n  and\n  dup2\n  mstore\n  0x20\n  add\n    /* \"Dropsite.sol\":268:269  2 */\n  0x02\n    /* \"Dropsite.sol\":209:274  uint8[20] public nums = [0,1,1,2,2,2,2,2,2,2,2,2,2,2,2,2,2,2,2,2] */\n  0xff\n  and\n  dup2\n  mstore\n  0x20\n  add\n    /* \"Dropsite.sol\":270:271  2 */\n  0x02\n    /* \"Dropsite.sol\":209:274  uint8[20] public nums = [0,1,1,2,2,2,2,2,2,2,2,2,2,2,2,2,2,2,2,2] */\n  0xff\n  and\n  dup2\n  mstore\n  0x20\n  add\n    /* \"Dropsite.sol\":272:273  2 */\n  0x02\n    /* \"Dropsite.sol\":209:274  uint8[20] public nums = [0,1,1,2,2,2,2,2,2,2,2,2,2,2,2,2,2,2,2,2] */\n  0xff\n  and\n  dup2\n  mstore\n  pop\n  0x03\n  swap1\n  0x14\n  tag_3\n  swap3\n  swap2\n  swap1\n  tag_4\n  jump\t// in\ntag_3:\n  pop\n    /* \"Dropsite.sol\":1163:1167  true */\n  0x01\n    /* \"Dropsite.sol\":1140:1167  bool public IsPaused = true */\n  0x0b\n  exp(0x0100, 0x00)\n  dup2\n  sload\n  dup2\n  0xff\n  mul\n  not\n  and\n  swap1\n  dup4\n  iszero\n  iszero\n  mul\n  or\n  swap1\n  sstore\n  pop\n    /* \"Dropsite.sol\":1239:1514  constructor (string memory name){... */\n  callvalue\n  dup1\n  iszero\n  tag_5\n  jumpi\n  0x00\n  dup1\n  revert\ntag_5:\n  pop\n  mload(0x40)\n  sub(codesize, bytecodeSize)\n  dup1\n  bytecodeSize\n  dup4\n  codecopy\n  dup2\n  dup2\n  add\n  0x40\n  mstore\n  dup2\n  add\n  swap1\n  tag_6\n  swap2\n  swap1\n  tag_7\n  jump\t// in\ntag_6:\n    /* \"Dropsite.sol\":1289:1293  name */\n  dup1\n    /* \"Dropsite.sol\":1281:1286  _name */\n  0x0c\n    /* \"Dropsite.sol\":1281:1293  _name = name */\n  swap1\n  dup1\n  mload\n  swap1\n  0x20\n  add\n  swap1\n  tag_10\n  swap3\n  swap2\n  swap1\n  tag_11\n  jump\t// in\ntag_10:\n  pop\n    /* \"Dropsite.sol\":1319:1329  msg.sender */\n  caller\n    /* \"Dropsite.sol\":1303:1308  Owner */\n  0x0b\n  0x01\n    /* \"Dropsite.sol\":1303:1330  Owner = payable(msg.sender) */\n  0x0100\n  exp\n  dup2\n  sload\n  dup2\n  0xffffffffffffffffffffffffffffffffffffffff\n  mul\n  not\n  and\n  swap1\n  dup4\n  0xffffffffffffffffffffffffffffffffffffffff\n  and\n  mul\n  or\n  swap1\n  sstore\n  pop\n    /* \"Dropsite.sol\":1357:1358  0 */\n  0x00\n    /* \"Dropsite.sol\":1341:1356  TotalNFTsMinted */\n  0x04\n    /* \"Dropsite.sol\":1341:1358  TotalNFTsMinted=0 */\n  dup2\n  swap1\n  sstore\n  pop\n    /* \"Dropsite.sol\":1404:1405  1 */\n  0x01\n    /* \"Dropsite.sol\":1392:1403  numOfCopies */\n  0x05\n    /* \"Dropsite.sol\":1392:1405  numOfCopies=1 */\n  dup2\n  swap1\n  sstore\n  pop\n    /* \"Dropsite.sol\":1460:1461  0 */\n  0x00\n    /* \"Dropsite.sol\":1452:1459  Diamond */\n  0x06\n    /* \"Dropsite.sol\":1452:1461  Diamond=0 */\n  dup2\n  swap1\n  sstore\n  pop\n    /* \"Dropsite.sol\":1488:1489  0 */\n  0x00\n    /* \"Dropsite.sol\":1483:1487  Gold */\n  0x07\n    /* \"Dropsite.sol\":1483:1489  Gold=0 */\n  dup2\n  swap1\n  sstore\n  pop\n    /* \"Dropsite.sol\":1506:1507  0 */\n  0x00\n    /* \"Dropsite.sol\":1499:1505  Silver */\n  0x08\n    /* \"Dropsite.sol\":1499:1507  Silver=0 */\n  dup2\n  swap1\n  sstore\n  pop\n    /* \"Dropsite.sol\":1239:1514  constructor (string memory name){... */\n  pop\n    /* \"Dropsite.sol\":122:5050  contract Dropsite is ERC1155_Dropsite  { ... */\n  jump(tag_12)\ntag_2:\n  dup3\n  dup1\n  sload\n  tag_13\n  swap1\n  tag_14\n  jump\t// in\ntag_13:\n  swap1\n  0x00\n  mstore\n  keccak256(0x00, 0x20)\n  swap1\n  0x1f\n  add\n  0x20\n  swap1\n  div\n  dup2\n  add\n  swap3\n  dup3\n  tag_16\n  jumpi\n  0x00\n  dup6\n  sstore\n  jump(tag_15)\ntag_16:\n  dup3\n  0x1f\n  lt\n  tag_17\n  jumpi\n  dup1\n  mload\n  not(0xff)\n  and\n  dup4\n  dup1\n  add\n  or\n  dup6\n  sstore\n  jump(tag_15)\ntag_17:\n  dup3\n  dup1\n  add\n  0x01\n  add\n  dup6\n  sstore\n  dup3\n  iszero\n  tag_15\n  jumpi\n  swap2\n  dup3\n  add\ntag_18:\n  dup3\n  dup2\n  gt\n  iszero\n  tag_19\n  jumpi\n  dup3\n  mload\n  dup3\n  sstore\n  swap2\n  0x20\n  add\n  swap2\n  swap1\n  0x01\n  add\n  swap1\n  jump(tag_18)\ntag_19:\ntag_15:\n  pop\n  swap1\n  pop\n  tag_20\n  swap2\n  swap1\n  tag_21\n  jump\t// in\ntag_20:\n  pop\n  swap1\n  jump\t// out\ntag_4:\n  dup3\n  add(0x1f, 0x14)\n  0x20\n  swap1\n  div\n  dup2\n  add\n  swap3\n  dup3\n  iszero\n  tag_22\n  jumpi\n  swap2\n  0x20\n  mul\n  dup3\n  add\n  0x00\ntag_23:\n  dup4\n  dup3\n  gt\n  iszero\n  tag_24\n  jumpi\n  dup4\n  mload\n  dup4\n  dup3\n  0x0100\n  exp\n  dup2\n  sload\n  dup2\n  0xff\n  mul\n  not\n  and\n  swap1\n  dup4\n  0xff\n  and\n  mul\n  or\n  swap1\n  sstore\n  pop\n  swap3\n  0x20\n  add\n  swap3\n  0x01\n  add\n  0x20\n  dup2\n  0x00\n  add\n  div\n  swap3\n  dup4\n  add\n  swap3\n  0x01\n  sub\n  mul\n  jump(tag_23)\ntag_24:\n  dup1\n  iszero\n  tag_25\n  jumpi\n  dup3\n  dup2\n  0x0100\n  exp\n  dup2\n  sload\n  swap1\n  0xff\n  mul\n  not\n  and\n  swap1\n  sstore\n  0x01\n  add\n  0x20\n  dup2\n  0x00\n  add\n  div\n  swap3\n  dup4\n  add\n  swap3\n  0x01\n  sub\n  mul\n  jump(tag_24)\ntag_25:\n  pop\ntag_22:\n  pop\n  swap1\n  pop\n  tag_26\n  swap2\n  swap1\n  tag_21\n  jump\t// in\ntag_26:\n  pop\n  swap1\n  jump\t// out\ntag_11:\n  dup3\n  dup1\n  sload\n  tag_27\n  swap1\n  tag_14\n  jump\t// in\ntag_27:\n  swap1\n  0x00\n  mstore\n  keccak256(0x00, 0x20)\n  swap1\n  0x1f\n  add\n  0x20\n  swap1\n  div\n  dup2\n  add\n  swap3\n  dup3\n  tag_29\n  jumpi\n  0x00\n  dup6\n  sstore\n  jump(tag_28)\ntag_29:\n  dup3\n  0x1f\n  lt\n  tag_30\n  jumpi\n  dup1\n  mload\n  not(0xff)\n  and\n  dup4\n  dup1\n  add\n  or\n  dup6\n  sstore\n  jump(tag_28)\ntag_30:\n  dup3\n  dup1\n  add\n  0x01\n  add\n  dup6\n  sstore\n  dup3\n  iszero\n  tag_28\n  jumpi\n  swap2\n  dup3\n  add\ntag_31:\n  dup3\n  dup2\n  gt\n  iszero\n  tag_32\n  jumpi\n  dup3\n  mload\n  dup3\n  sstore\n  swap2\n  0x20\n  add\n  swap2\n  swap1\n  0x01\n  add\n  swap1\n  jump(tag_31)\ntag_32:\ntag_28:\n  pop\n  swap1\n  pop\n  tag_33\n  swap2\n  swap1\n  tag_21\n  jump\t// in\ntag_33:\n  pop\n  swap1\n  jump\t// out\ntag_21:\ntag_34:\n  dup1\n  dup3\n  gt\n  iszero\n  tag_35\n  jumpi\n  0x00\n  dup2\n  0x00\n  swap1\n  sstore\n  pop\n  0x01\n  add\n  jump(tag_34)\ntag_35:\n  pop\n  swap1\n  jump\t// out\n    /* \"#utility.yul\":7:428   */\ntag_37:\n    /* \"#utility.yul\":96:101   */\n  0x00\n    /* \"#utility.yul\":121:187   */\n  tag_39\n    /* \"#utility.yul\":137:186   */\n  tag_40\n    /* \"#utility.yul\":179:185   */\n  dup5\n    /* \"#utility.yul\":137:186   */\n  tag_41\n  jump\t// in\ntag_40:\n    /* \"#utility.yul\":121:187   */\n  tag_42\n  jump\t// in\ntag_39:\n    /* \"#utility.yul\":112:187   */\n  swap1\n  pop\n    /* \"#utility.yul\":210:216   */\n  dup3\n    /* \"#utility.yul\":203:208   */\n  dup2\n    /* \"#utility.yul\":196:217   */\n  mstore\n    /* \"#utility.yul\":248:252   */\n  0x20\n    /* \"#utility.yul\":241:246   */\n  dup2\n    /* \"#utility.yul\":237:253   */\n  add\n    /* \"#utility.yul\":286:289   */\n  dup5\n    /* \"#utility.yul\":277:283   */\n  dup5\n    /* \"#utility.yul\":272:275   */\n  dup5\n    /* \"#utility.yul\":268:284   */\n  add\n    /* \"#utility.yul\":265:290   */\n  gt\n    /* \"#utility.yul\":262:374   */\n  iszero\n  tag_43\n  jumpi\n    /* \"#utility.yul\":293:372   */\n  tag_44\n  tag_45\n  jump\t// in\ntag_44:\n    /* \"#utility.yul\":262:374   */\ntag_43:\n    /* \"#utility.yul\":383:422   */\n  tag_46\n    /* \"#utility.yul\":415:421   */\n  dup5\n    /* \"#utility.yul\":410:413   */\n  dup3\n    /* \"#utility.yul\":405:408   */\n  dup6\n    /* \"#utility.yul\":383:422   */\n  tag_47\n  jump\t// in\ntag_46:\n    /* \"#utility.yul\":102:428   */\n  pop\n    /* \"#utility.yul\":7:428   */\n  swap4\n  swap3\n  pop\n  pop\n  pop\n  jump\t// out\n    /* \"#utility.yul\":448:803   */\ntag_48:\n    /* \"#utility.yul\":515:520   */\n  0x00\n    /* \"#utility.yul\":564:567   */\n  dup3\n    /* \"#utility.yul\":557:561   */\n  0x1f\n    /* \"#utility.yul\":549:555   */\n  dup4\n    /* \"#utility.yul\":545:562   */\n  add\n    /* \"#utility.yul\":541:568   */\n  slt\n    /* \"#utility.yul\":531:653   */\n  tag_50\n  jumpi\n    /* \"#utility.yul\":572:651   */\n  tag_51\n  tag_52\n  jump\t// in\ntag_51:\n    /* \"#utility.yul\":531:653   */\ntag_50:\n    /* \"#utility.yul\":682:688   */\n  dup2\n    /* \"#utility.yul\":676:689   */\n  mload\n    /* \"#utility.yul\":707:797   */\n  tag_53\n    /* \"#utility.yul\":793:796   */\n  dup5\n    /* \"#utility.yul\":785:791   */\n  dup3\n    /* \"#utility.yul\":778:782   */\n  0x20\n    /* \"#utility.yul\":770:776   */\n  dup7\n    /* \"#utility.yul\":766:783   */\n  add\n    /* \"#utility.yul\":707:797   */\n  tag_37\n  jump\t// in\ntag_53:\n    /* \"#utility.yul\":698:797   */\n  swap2\n  pop\n    /* \"#utility.yul\":521:803   */\n  pop\n    /* \"#utility.yul\":448:803   */\n  swap3\n  swap2\n  pop\n  pop\n  jump\t// out\n    /* \"#utility.yul\":809:1333   */\ntag_7:\n    /* \"#utility.yul\":889:895   */\n  0x00\n    /* \"#utility.yul\":938:940   */\n  0x20\n    /* \"#utility.yul\":926:935   */\n  dup3\n    /* \"#utility.yul\":917:924   */\n  dup5\n    /* \"#utility.yul\":913:936   */\n  sub\n    /* \"#utility.yul\":909:941   */\n  slt\n    /* \"#utility.yul\":906:1025   */\n  iszero\n  tag_55\n  jumpi\n    /* \"#utility.yul\":944:1023   */\n  tag_56\n  tag_57\n  jump\t// in\ntag_56:\n    /* \"#utility.yul\":906:1025   */\ntag_55:\n    /* \"#utility.yul\":1085:1086   */\n  0x00\n    /* \"#utility.yul\":1074:1083   */\n  dup3\n    /* \"#utility.yul\":1070:1087   */\n  add\n    /* \"#utility.yul\":1064:1088   */\n  mload\n    /* \"#utility.yul\":1115:1133   */\n  0xffffffffffffffff\n    /* \"#utility.yul\":1107:1113   */\n  dup2\n    /* \"#utility.yul\":1104:1134   */\n  gt\n    /* \"#utility.yul\":1101:1218   */\n  iszero\n  tag_58\n  jumpi\n    /* \"#utility.yul\":1137:1216   */\n  tag_59\n  tag_60\n  jump\t// in\ntag_59:\n    /* \"#utility.yul\":1101:1218   */\ntag_58:\n    /* \"#utility.yul\":1242:1316   */\n  tag_61\n    /* \"#utility.yul\":1308:1315   */\n  dup5\n    /* \"#utility.yul\":1299:1305   */\n  dup3\n    /* \"#utility.yul\":1288:1297   */\n  dup6\n    /* \"#utility.yul\":1284:1306   */\n  add\n    /* \"#utility.yul\":1242:1316   */\n  tag_48\n  jump\t// in\ntag_61:\n    /* \"#utility.yul\":1232:1316   */\n  swap2\n  pop\n    /* \"#utility.yul\":1035:1326   */\n  pop\n    /* \"#utility.yul\":809:1333   */\n  swap3\n  swap2\n  pop\n  pop\n  jump\t// out\n    /* \"#utility.yul\":1339:1468   */\ntag_42:\n    /* \"#utility.yul\":1373:1379   */\n  0x00\n    /* \"#utility.yul\":1400:1420   */\n  tag_63\n  tag_64\n  jump\t// in\ntag_63:\n    /* \"#utility.yul\":1390:1420   */\n  swap1\n  pop\n    /* \"#utility.yul\":1429:1462   */\n  tag_65\n    /* \"#utility.yul\":1457:1461   */\n  dup3\n    /* \"#utility.yul\":1449:1455   */\n  dup3\n    /* \"#utility.yul\":1429:1462   */\n  tag_66\n  jump\t// in\ntag_65:\n    /* \"#utility.yul\":1339:1468   */\n  swap2\n  swap1\n  pop\n  jump\t// out\n    /* \"#utility.yul\":1474:1549   */\ntag_64:\n    /* \"#utility.yul\":1507:1513   */\n  0x00\n    /* \"#utility.yul\":1540:1542   */\n  0x40\n    /* \"#utility.yul\":1534:1543   */\n  mload\n    /* \"#utility.yul\":1524:1543   */\n  swap1\n  pop\n    /* \"#utility.yul\":1474:1549   */\n  swap1\n  jump\t// out\n    /* \"#utility.yul\":1555:1863   */\ntag_41:\n    /* \"#utility.yul\":1617:1621   */\n  0x00\n    /* \"#utility.yul\":1707:1725   */\n  0xffffffffffffffff\n    /* \"#utility.yul\":1699:1705   */\n  dup3\n    /* \"#utility.yul\":1696:1726   */\n  gt\n    /* \"#utility.yul\":1693:1749   */\n  iszero\n  tag_69\n  jumpi\n    /* \"#utility.yul\":1729:1747   */\n  tag_70\n  tag_71\n  jump\t// in\ntag_70:\n    /* \"#utility.yul\":1693:1749   */\ntag_69:\n    /* \"#utility.yul\":1767:1796   */\n  tag_72\n    /* \"#utility.yul\":1789:1795   */\n  dup3\n    /* \"#utility.yul\":1767:1796   */\n  tag_73\n  jump\t// in\ntag_72:\n    /* \"#utility.yul\":1759:1796   */\n  swap1\n  pop\n    /* \"#utility.yul\":1851:1855   */\n  0x20\n    /* \"#utility.yul\":1845:1849   */\n  dup2\n    /* \"#utility.yul\":1841:1856   */\n  add\n    /* \"#utility.yul\":1833:1856   */\n  swap1\n  pop\n    /* \"#utility.yul\":1555:1863   */\n  swap2\n  swap1\n  pop\n  jump\t// out\n    /* \"#utility.yul\":1869:2176   */\ntag_47:\n    /* \"#utility.yul\":1937:1938   */\n  0x00\n    /* \"#utility.yul\":1947:2060   */\ntag_75:\n    /* \"#utility.yul\":1961:1967   */\n  dup4\n    /* \"#utility.yul\":1958:1959   */\n  dup2\n    /* \"#utility.yul\":1955:1968   */\n  lt\n    /* \"#utility.yul\":1947:2060   */\n  iszero\n  tag_77\n  jumpi\n    /* \"#utility.yul\":2046:2047   */\n  dup1\n    /* \"#utility.yul\":2041:2044   */\n  dup3\n    /* \"#utility.yul\":2037:2048   */\n  add\n    /* \"#utility.yul\":2031:2049   */\n  mload\n    /* \"#utility.yul\":2027:2028   */\n  dup2\n    /* \"#utility.yul\":2022:2025   */\n  dup5\n    /* \"#utility.yul\":2018:2029   */\n  add\n    /* \"#utility.yul\":2011:2050   */\n  mstore\n    /* \"#utility.yul\":1983:1985   */\n  0x20\n    /* \"#utility.yul\":1980:1981   */\n  dup2\n    /* \"#utility.yul\":1976:1986   */\n  add\n    /* \"#utility.yul\":1971:1986   */\n  swap1\n  pop\n    /* \"#utility.yul\":1947:2060   */\n  jump(tag_75)\ntag_77:\n    /* \"#utility.yul\":2078:2084   */\n  dup4\n    /* \"#utility.yul\":2075:2076   */\n  dup2\n    /* \"#utility.yul\":2072:2085   */\n  gt\n    /* \"#utility.yul\":2069:2170   */\n  iszero\n  tag_78\n  jumpi\n    /* \"#utility.yul\":2158:2159   */\n  0x00\n    /* \"#utility.yul\":2149:2155   */\n  dup5\n    /* \"#utility.yul\":2144:2147   */\n  dup5\n    /* \"#utility.yul\":2140:2156   */\n  add\n    /* \"#utility.yul\":2133:2160   */\n  mstore\n    /* \"#utility.yul\":2069:2170   */\ntag_78:\n    /* \"#utility.yul\":1918:2176   */\n  pop\n    /* \"#utility.yul\":1869:2176   */\n  pop\n  pop\n  pop\n  jump\t// out\n    /* \"#utility.yul\":2182:2502   */\ntag_14:\n    /* \"#utility.yul\":2226:2232   */\n  0x00\n    /* \"#utility.yul\":2263:2264   */\n  0x02\n    /* \"#utility.yul\":2257:2261   */\n  dup3\n    /* \"#utility.yul\":2253:2265   */\n  div\n    /* \"#utility.yul\":2243:2265   */\n  swap1\n  pop\n    /* \"#utility.yul\":2310:2311   */\n  0x01\n    /* \"#utility.yul\":2304:2308   */\n  dup3\n    /* \"#utility.yul\":2300:2312   */\n  and\n    /* \"#utility.yul\":2331:2349   */\n  dup1\n    /* \"#utility.yul\":2321:2402   */\n  tag_80\n  jumpi\n    /* \"#utility.yul\":2387:2391   */\n  0x7f\n    /* \"#utility.yul\":2379:2385   */\n  dup3\n    /* \"#utility.yul\":2375:2392   */\n  and\n    /* \"#utility.yul\":2365:2392   */\n  swap2\n  pop\n    /* \"#utility.yul\":2321:2402   */\ntag_80:\n    /* \"#utility.yul\":2449:2451   */\n  0x20\n    /* \"#utility.yul\":2441:2447   */\n  dup3\n    /* \"#utility.yul\":2438:2452   */\n  lt\n    /* \"#utility.yul\":2418:2436   */\n  dup2\n    /* \"#utility.yul\":2415:2453   */\n  eq\n    /* \"#utility.yul\":2412:2496   */\n  iszero\n  tag_81\n  jumpi\n    /* \"#utility.yul\":2468:2486   */\n  tag_82\n  tag_83\n  jump\t// in\ntag_82:\n    /* \"#utility.yul\":2412:2496   */\ntag_81:\n    /* \"#utility.yul\":2233:2502   */\n  pop\n    /* \"#utility.yul\":2182:2502   */\n  swap2\n  swap1\n  pop\n  jump\t// out\n    /* \"#utility.yul\":2508:2789   */\ntag_66:\n    /* \"#utility.yul\":2591:2618   */\n  tag_85\n    /* \"#utility.yul\":2613:2617   */\n  dup3\n    /* \"#utility.yul\":2591:2618   */\n  tag_73\n  jump\t// in\ntag_85:\n    /* \"#utility.yul\":2583:2589   */\n  dup2\n    /* \"#utility.yul\":2579:2619   */\n  add\n    /* \"#utility.yul\":2721:2727   */\n  dup2\n    /* \"#utility.yul\":2709:2719   */\n  dup2\n    /* \"#utility.yul\":2706:2728   */\n  lt\n    /* \"#utility.yul\":2685:2703   */\n  0xffffffffffffffff\n    /* \"#utility.yul\":2673:2683   */\n  dup3\n    /* \"#utility.yul\":2670:2704   */\n  gt\n    /* \"#utility.yul\":2667:2729   */\n  or\n    /* \"#utility.yul\":2664:2752   */\n  iszero\n  tag_86\n  jumpi\n    /* \"#utility.yul\":2732:2750   */\n  tag_87\n  tag_71\n  jump\t// in\ntag_87:\n    /* \"#utility.yul\":2664:2752   */\ntag_86:\n    /* \"#utility.yul\":2772:2782   */\n  dup1\n    /* \"#utility.yul\":2768:2770   */\n  0x40\n    /* \"#utility.yul\":2761:2783   */\n  mstore\n    /* \"#utility.yul\":2551:2789   */\n  pop\n    /* \"#utility.yul\":2508:2789   */\n  pop\n  pop\n  jump\t// out\n    /* \"#utility.yul\":2795:2975   */\ntag_83:\n    /* \"#utility.yul\":2843:2920   */\n  0x4e487b7100000000000000000000000000000000000000000000000000000000\n    /* \"#utility.yul\":2840:2841   */\n  0x00\n    /* \"#utility.yul\":2833:2921   */\n  mstore\n    /* \"#utility.yul\":2940:2944   */\n  0x22\n    /* \"#utility.yul\":2937:2938   */\n  0x04\n    /* \"#utility.yul\":2930:2945   */\n  mstore\n    /* \"#utility.yul\":2964:2968   */\n  0x24\n    /* \"#utility.yul\":2961:2962   */\n  0x00\n    /* \"#utility.yul\":2954:2969   */\n  revert\n    /* \"#utility.yul\":2981:3161   */\ntag_71:\n    /* \"#utility.yul\":3029:3106   */\n  0x4e487b7100000000000000000000000000000000000000000000000000000000\n    /* \"#utility.yul\":3026:3027   */\n  0x00\n    /* \"#utility.yul\":3019:3107   */\n  mstore\n    /* \"#utility.yul\":3126:3130   */\n  0x41\n    /* \"#utility.yul\":3123:3124   */\n  0x04\n    /* \"#utility.yul\":3116:3131   */\n  mstore\n    /* \"#utility.yul\":3150:3154   */\n  0x24\n    /* \"#utility.yul\":3147:3148   */\n  0x00\n    /* \"#utility.yul\":3140:3155   */\n  revert\n    /* \"#utility.yul\":3167:3284   */\ntag_52:\n    /* \"#utility.yul\":3276:3277   */\n  0x00\n    /* \"#utility.yul\":3273:3274   */\n  dup1\n    /* \"#utility.yul\":3266:3278   */\n  revert\n    /* \"#utility.yul\":3290:3407   */\ntag_45:\n    /* \"#utility.yul\":3399:3400   */\n  0x00\n    /* \"#utility.yul\":3396:3397   */\n  dup1\n    /* \"#utility.yul\":3389:3401   */\n  revert\n    /* \"#utility.yul\":3413:3530   */\ntag_60:\n    /* \"#utility.yul\":3522:3523   */\n  0x00\n    /* \"#utility.yul\":3519:3520   */\n  dup1\n    /* \"#utility.yul\":3512:3524   */\n  revert\n    /* \"#utility.yul\":3536:3653   */\ntag_57:\n    /* \"#utility.yul\":3645:3646   */\n  0x00\n    /* \"#utility.yul\":3642:3643   */\n  dup1\n    /* \"#utility.yul\":3635:3647   */\n  revert\n    /* \"#utility.yul\":3659:3761   */\ntag_73:\n    /* \"#utility.yul\":3700:3706   */\n  0x00\n    /* \"#utility.yul\":3751:3753   */\n  0x1f\n    /* \"#utility.yul\":3747:3754   */\n  not\n    /* \"#utility.yul\":3742:3744   */\n  0x1f\n    /* \"#utility.yul\":3735:3740   */\n  dup4\n    /* \"#utility.yul\":3731:3745   */\n  add\n    /* \"#utility.yul\":3727:3755   */\n  and\n    /* \"#utility.yul\":3717:3755   */\n  swap1\n  pop\n    /* \"#utility.yul\":3659:3761   */\n  swap2\n  swap1\n  pop\n  jump\t// out\n    /* \"Dropsite.sol\":122:5050  contract Dropsite is ERC1155_Dropsite  { ... */\ntag_12:\n  dataSize(sub_0)\n  dup1\n  dataOffset(sub_0)\n  0x00\n  codecopy\n  0x00\n  return\nstop\n\nsub_0: assembly {\n        /* \"Dropsite.sol\":122:5050  contract Dropsite is ERC1155_Dropsite  { ... */\n      mstore(0x40, 0x80)\n      jumpi(tag_1, lt(calldatasize, 0x04))\n      shr(0xe0, calldataload(0x00))\n      dup1\n      0x3d65df70\n      gt\n      tag_14\n      jumpi\n      dup1\n      0x3d65df70\n      eq\n      tag_8\n      jumpi\n      dup1\n      0x60daa851\n      eq\n      tag_9\n      jumpi\n      dup1\n      0xaa90c726\n      eq\n      tag_10\n      jumpi\n      dup1\n      0xb4a99a4e\n      eq\n      tag_11\n      jumpi\n      dup1\n      0xfd1ee54c\n      eq\n      tag_12\n      jumpi\n      dup1\n      0xfd6c3b1b\n      eq\n      tag_13\n      jumpi\n      jump(tag_1)\n    tag_14:\n      dup1\n      0x0390c11c\n      eq\n      tag_2\n      jumpi\n      dup1\n      0x0a67d2c7\n      eq\n      tag_3\n      jumpi\n      dup1\n      0x1309a563\n      eq\n      tag_4\n      jumpi\n      dup1\n      0x15460259\n      eq\n      tag_5\n      jumpi\n      dup1\n      0x32b61b4c\n      eq\n      tag_6\n      jumpi\n      dup1\n      0x3b668059\n      eq\n      tag_7\n      jumpi\n    tag_1:\n      0x00\n      dup1\n      revert\n        /* \"Dropsite.sol\":1658:1762  function checkTotalMinted() public view OnlyOwner returns(uint){... */\n    tag_2:\n      callvalue\n      dup1\n      iszero\n      tag_15\n      jumpi\n      0x00\n      dup1\n      revert\n    tag_15:\n      pop\n      tag_16\n      tag_17\n      jump\t// in\n    tag_16:\n      mload(0x40)\n      tag_18\n      swap2\n      swap1\n      tag_19\n      jump\t// in\n    tag_18:\n      mload(0x40)\n      dup1\n      swap2\n      sub\n      swap1\n      return\n        /* \"Dropsite.sol\":2120:2334  function withDraw(address payable to) public payable OnlyOwner {... */\n    tag_3:\n      tag_20\n      0x04\n      dup1\n      calldatasize\n      sub\n      dup2\n      add\n      swap1\n      tag_21\n      swap2\n      swap1\n      tag_22\n      jump\t// in\n    tag_21:\n      tag_23\n      jump\t// in\n    tag_20:\n      stop\n        /* \"Dropsite.sol\":1140:1167  bool public IsPaused = true */\n    tag_4:\n      callvalue\n      dup1\n      iszero\n      tag_24\n      jumpi\n      0x00\n      dup1\n      revert\n    tag_24:\n      pop\n      tag_25\n      tag_26\n      jump\t// in\n    tag_25:\n      mload(0x40)\n      tag_27\n      swap2\n      swap1\n      tag_28\n      jump\t// in\n    tag_27:\n      mload(0x40)\n      dup1\n      swap2\n      sub\n      swap1\n      return\n        /* \"Dropsite.sol\":1910:2046  function openDropsite() public OnlyOwner {... */\n    tag_5:\n      callvalue\n      dup1\n      iszero\n      tag_29\n      jumpi\n      0x00\n      dup1\n      revert\n    tag_29:\n      pop\n      tag_30\n      tag_31\n      jump\t// in\n    tag_30:\n      stop\n        /* \"Dropsite.sol\":3855:4301  function FiatRandomMint(address user_addr) OnlyOwner contractIsNotPaused public returns (uint,string memory) {... */\n    tag_6:\n      callvalue\n      dup1\n      iszero\n      tag_32\n      jumpi\n      0x00\n      dup1\n      revert\n    tag_32:\n      pop\n      tag_33\n      0x04\n      dup1\n      calldatasize\n      sub\n      dup2\n      add\n      swap1\n      tag_34\n      swap2\n      swap1\n      tag_35\n      jump\t// in\n    tag_34:\n      tag_36\n      jump\t// in\n    tag_33:\n      mload(0x40)\n      tag_37\n      swap3\n      swap2\n      swap1\n      tag_38\n      jump\t// in\n    tag_37:\n      mload(0x40)\n      dup1\n      swap2\n      sub\n      swap1\n      return\n        /* \"Dropsite.sol\":2387:2495  function ContractBalance() public view OnlyOwner returns (uint){... */\n    tag_7:\n      callvalue\n      dup1\n      iszero\n      tag_39\n      jumpi\n      0x00\n      dup1\n      revert\n    tag_39:\n      pop\n      tag_40\n      tag_41\n      jump\t// in\n    tag_40:\n      mload(0x40)\n      tag_42\n      swap2\n      swap1\n      tag_19\n      jump\t// in\n    tag_42:\n      mload(0x40)\n      dup1\n      swap2\n      sub\n      swap1\n      return\n        /* \"Dropsite.sol\":4478:5048  function CryptoRandomMint(address user_addr)  contractIsNotPaused public payable returns (uint,string memory) {... */\n    tag_8:\n      tag_43\n      0x04\n      dup1\n      calldatasize\n      sub\n      dup2\n      add\n      swap1\n      tag_44\n      swap2\n      swap1\n      tag_35\n      jump\t// in\n    tag_44:\n      tag_45\n      jump\t// in\n    tag_43:\n      mload(0x40)\n      tag_46\n      swap3\n      swap2\n      swap1\n      tag_38\n      jump\t// in\n    tag_46:\n      mload(0x40)\n      dup1\n      swap2\n      sub\n      swap1\n      return\n        /* \"Dropsite.sol\":1526:1653  function checkMintedCategoryWise() public view OnlyOwner returns(uint,uint,uint){... */\n    tag_9:\n      callvalue\n      dup1\n      iszero\n      tag_47\n      jumpi\n      0x00\n      dup1\n      revert\n    tag_47:\n      pop\n      tag_48\n      tag_49\n      jump\t// in\n    tag_48:\n      mload(0x40)\n      tag_50\n      swap4\n      swap3\n      swap2\n      swap1\n      tag_51\n      jump\t// in\n    tag_50:\n      mload(0x40)\n      dup1\n      swap2\n      sub\n      swap1\n      return\n        /* \"Dropsite.sol\":1768:1903  function stopDropsite() public OnlyOwner{... */\n    tag_10:\n      callvalue\n      dup1\n      iszero\n      tag_52\n      jumpi\n      0x00\n      dup1\n      revert\n    tag_52:\n      pop\n      tag_53\n      tag_54\n      jump\t// in\n    tag_53:\n      stop\n        /* \"Dropsite.sol\":1173:1202  address payable public  Owner */\n    tag_11:\n      callvalue\n      dup1\n      iszero\n      tag_55\n      jumpi\n      0x00\n      dup1\n      revert\n    tag_55:\n      pop\n      tag_56\n      tag_57\n      jump\t// in\n    tag_56:\n      mload(0x40)\n      tag_58\n      swap2\n      swap1\n      tag_59\n      jump\t// in\n    tag_58:\n      mload(0x40)\n      dup1\n      swap2\n      sub\n      swap1\n      return\n        /* \"Dropsite.sol\":209:274  uint8[20] public nums = [0,1,1,2,2,2,2,2,2,2,2,2,2,2,2,2,2,2,2,2] */\n    tag_12:\n      callvalue\n      dup1\n      iszero\n      tag_60\n      jumpi\n      0x00\n      dup1\n      revert\n    tag_60:\n      pop\n      tag_61\n      0x04\n      dup1\n      calldatasize\n      sub\n      dup2\n      add\n      swap1\n      tag_62\n      swap2\n      swap1\n      tag_63\n      jump\t// in\n    tag_62:\n      tag_64\n      jump\t// in\n    tag_61:\n      mload(0x40)\n      tag_65\n      swap2\n      swap1\n      tag_66\n      jump\t// in\n    tag_65:\n      mload(0x40)\n      dup1\n      swap2\n      sub\n      swap1\n      return\n        /* \"Dropsite.sol\":653:791  function returnOwner(address addr) public view returns (uint[] memory){... */\n    tag_13:\n      callvalue\n      dup1\n      iszero\n      tag_67\n      jumpi\n      0x00\n      dup1\n      revert\n    tag_67:\n      pop\n      tag_68\n      0x04\n      dup1\n      calldatasize\n      sub\n      dup2\n      add\n      swap1\n      tag_69\n      swap2\n      swap1\n      tag_35\n      jump\t// in\n    tag_69:\n      tag_70\n      jump\t// in\n    tag_68:\n      mload(0x40)\n      tag_71\n      swap2\n      swap1\n      tag_72\n      jump\t// in\n    tag_71:\n      mload(0x40)\n      dup1\n      swap2\n      sub\n      swap1\n      return\n        /* \"Dropsite.sol\":1658:1762  function checkTotalMinted() public view OnlyOwner returns(uint){... */\n    tag_17:\n        /* \"Dropsite.sol\":1716:1720  uint */\n      0x00\n        /* \"Dropsite.sol\":912:917  Owner */\n      0x0b\n      0x01\n      swap1\n      sload\n      swap1\n      0x0100\n      exp\n      swap1\n      div\n      0xffffffffffffffffffffffffffffffffffffffff\n      and\n        /* \"Dropsite.sol\":896:917  _msgSender() == Owner */\n      0xffffffffffffffffffffffffffffffffffffffff\n      and\n        /* \"Dropsite.sol\":896:908  _msgSender() */\n      tag_74\n        /* \"Dropsite.sol\":896:906  _msgSender */\n      tag_75\n        /* \"Dropsite.sol\":896:908  _msgSender() */\n      jump\t// in\n    tag_74:\n        /* \"Dropsite.sol\":896:917  _msgSender() == Owner */\n      0xffffffffffffffffffffffffffffffffffffffff\n      and\n      eq\n        /* \"Dropsite.sol\":888:950  require(_msgSender() == Owner, \"Only NFT-ES Owner can Access\") */\n      tag_76\n      jumpi\n      mload(0x40)\n      0x08c379a000000000000000000000000000000000000000000000000000000000\n      dup2\n      mstore\n      0x04\n      add\n      tag_77\n      swap1\n      tag_78\n      jump\t// in\n    tag_77:\n      mload(0x40)\n      dup1\n      swap2\n      sub\n      swap1\n      revert\n    tag_76:\n        /* \"Dropsite.sol\":1739:1754  TotalNFTsMinted */\n      sload(0x04)\n        /* \"Dropsite.sol\":1732:1754  return TotalNFTsMinted */\n      swap1\n      pop\n        /* \"Dropsite.sol\":1658:1762  function checkTotalMinted() public view OnlyOwner returns(uint){... */\n      swap1\n      jump\t// out\n        /* \"Dropsite.sol\":2120:2334  function withDraw(address payable to) public payable OnlyOwner {... */\n    tag_23:\n        /* \"Dropsite.sol\":912:917  Owner */\n      0x0b\n      0x01\n      swap1\n      sload\n      swap1\n      0x0100\n      exp\n      swap1\n      div\n      0xffffffffffffffffffffffffffffffffffffffff\n      and\n        /* \"Dropsite.sol\":896:917  _msgSender() == Owner */\n      0xffffffffffffffffffffffffffffffffffffffff\n      and\n        /* \"Dropsite.sol\":896:908  _msgSender() */\n      tag_81\n        /* \"Dropsite.sol\":896:906  _msgSender */\n      tag_75\n        /* \"Dropsite.sol\":896:908  _msgSender() */\n      jump\t// in\n    tag_81:\n        /* \"Dropsite.sol\":896:917  _msgSender() == Owner */\n      0xffffffffffffffffffffffffffffffffffffffff\n      and\n      eq\n        /* \"Dropsite.sol\":888:950  require(_msgSender() == Owner, \"Only NFT-ES Owner can Access\") */\n      tag_82\n      jumpi\n      mload(0x40)\n      0x08c379a000000000000000000000000000000000000000000000000000000000\n      dup2\n      mstore\n      0x04\n      add\n      tag_83\n      swap1\n      tag_78\n      jump\t// in\n    tag_83:\n      mload(0x40)\n      dup1\n      swap2\n      sub\n      swap1\n      revert\n    tag_82:\n        /* \"Dropsite.sol\":2193:2205  uint Balance */\n      0x00\n        /* \"Dropsite.sol\":2208:2229  address(this).balance */\n      selfbalance\n        /* \"Dropsite.sol\":2193:2229  uint Balance = address(this).balance */\n      swap1\n      pop\n        /* \"Dropsite.sol\":2257:2262  0 wei */\n      0x00\n        /* \"Dropsite.sol\":2247:2254  Balance */\n      dup2\n        /* \"Dropsite.sol\":2247:2262  Balance > 0 wei */\n      gt\n        /* \"Dropsite.sol\":2239:2296  require(Balance > 0 wei, \"Error! No Balance to withdraw\") */\n      tag_85\n      jumpi\n      mload(0x40)\n      0x08c379a000000000000000000000000000000000000000000000000000000000\n      dup2\n      mstore\n      0x04\n      add\n      tag_86\n      swap1\n      tag_87\n      jump\t// in\n    tag_86:\n      mload(0x40)\n      dup1\n      swap2\n      sub\n      swap1\n      revert\n    tag_85:\n        /* \"Dropsite.sol\":2307:2309  to */\n      dup2\n        /* \"Dropsite.sol\":2307:2318  to.transfer */\n      0xffffffffffffffffffffffffffffffffffffffff\n      and\n        /* \"Dropsite.sol\":2307:2327  to.transfer(Balance) */\n      0x08fc\n        /* \"Dropsite.sol\":2319:2326  Balance */\n      dup3\n        /* \"Dropsite.sol\":2307:2327  to.transfer(Balance) */\n      swap1\n      dup2\n      iszero\n      mul\n      swap1\n      mload(0x40)\n      0x00\n      mload(0x40)\n      dup1\n      dup4\n      sub\n      dup2\n      dup6\n      dup9\n      dup9\n      call\n      swap4\n      pop\n      pop\n      pop\n      pop\n      iszero\n      dup1\n      iszero\n      tag_89\n      jumpi\n      returndatasize\n      0x00\n      dup1\n      returndatacopy\n      revert(0x00, returndatasize)\n    tag_89:\n      pop\n        /* \"Dropsite.sol\":2183:2334  {... */\n      pop\n        /* \"Dropsite.sol\":2120:2334  function withDraw(address payable to) public payable OnlyOwner {... */\n      pop\n      jump\t// out\n        /* \"Dropsite.sol\":1140:1167  bool public IsPaused = true */\n    tag_26:\n      0x0b\n      0x00\n      swap1\n      sload\n      swap1\n      0x0100\n      exp\n      swap1\n      div\n      0xff\n      and\n      dup2\n      jump\t// out\n        /* \"Dropsite.sol\":1910:2046  function openDropsite() public OnlyOwner {... */\n    tag_31:\n        /* \"Dropsite.sol\":912:917  Owner */\n      0x0b\n      0x01\n      swap1\n      sload\n      swap1\n      0x0100\n      exp\n      swap1\n      div\n      0xffffffffffffffffffffffffffffffffffffffff\n      and\n        /* \"Dropsite.sol\":896:917  _msgSender() == Owner */\n      0xffffffffffffffffffffffffffffffffffffffff\n      and\n        /* \"Dropsite.sol\":896:908  _msgSender() */\n      tag_91\n        /* \"Dropsite.sol\":896:906  _msgSender */\n      tag_75\n        /* \"Dropsite.sol\":896:908  _msgSender() */\n      jump\t// in\n    tag_91:\n        /* \"Dropsite.sol\":896:917  _msgSender() == Owner */\n      0xffffffffffffffffffffffffffffffffffffffff\n      and\n      eq\n        /* \"Dropsite.sol\":888:950  require(_msgSender() == Owner, \"Only NFT-ES Owner can Access\") */\n      tag_92\n      jumpi\n      mload(0x40)\n      0x08c379a000000000000000000000000000000000000000000000000000000000\n      dup2\n      mstore\n      0x04\n      add\n      tag_93\n      swap1\n      tag_78\n      jump\t// in\n    tag_93:\n      mload(0x40)\n      dup1\n      swap2\n      sub\n      swap1\n      revert\n    tag_92:\n        /* \"Dropsite.sol\":1979:1983  true */\n      0x01\n        /* \"Dropsite.sol\":1969:1983  IsPaused==true */\n      iszero\n      iszero\n        /* \"Dropsite.sol\":1969:1977  IsPaused */\n      0x0b\n      0x00\n      swap1\n      sload\n      swap1\n      0x0100\n      exp\n      swap1\n      div\n      0xff\n      and\n        /* \"Dropsite.sol\":1969:1983  IsPaused==true */\n      iszero\n      iszero\n      eq\n        /* \"Dropsite.sol\":1961:2015  require(IsPaused==true, \"Dropsite is already Running\") */\n      tag_95\n      jumpi\n      mload(0x40)\n      0x08c379a000000000000000000000000000000000000000000000000000000000\n      dup2\n      mstore\n      0x04\n      add\n      tag_96\n      swap1\n      tag_97\n      jump\t// in\n    tag_96:\n      mload(0x40)\n      dup1\n      swap2\n      sub\n      swap1\n      revert\n    tag_95:\n        /* \"Dropsite.sol\":2034:2039  false */\n      0x00\n        /* \"Dropsite.sol\":2025:2033  IsPaused */\n      0x0b\n      0x00\n        /* \"Dropsite.sol\":2025:2039  IsPaused=false */\n      0x0100\n      exp\n      dup2\n      sload\n      dup2\n      0xff\n      mul\n      not\n      and\n      swap1\n      dup4\n      iszero\n      iszero\n      mul\n      or\n      swap1\n      sstore\n      pop\n        /* \"Dropsite.sol\":1910:2046  function openDropsite() public OnlyOwner {... */\n      jump\t// out\n        /* \"Dropsite.sol\":3855:4301  function FiatRandomMint(address user_addr) OnlyOwner contractIsNotPaused public returns (uint,string memory) {... */\n    tag_36:\n        /* \"Dropsite.sol\":3944:3948  uint */\n      0x00\n        /* \"Dropsite.sol\":3949:3962  string memory */\n      0x60\n        /* \"Dropsite.sol\":912:917  Owner */\n      0x0b\n      0x01\n      swap1\n      sload\n      swap1\n      0x0100\n      exp\n      swap1\n      div\n      0xffffffffffffffffffffffffffffffffffffffff\n      and\n        /* \"Dropsite.sol\":896:917  _msgSender() == Owner */\n      0xffffffffffffffffffffffffffffffffffffffff\n      and\n        /* \"Dropsite.sol\":896:908  _msgSender() */\n      tag_99\n        /* \"Dropsite.sol\":896:906  _msgSender */\n      tag_75\n        /* \"Dropsite.sol\":896:908  _msgSender() */\n      jump\t// in\n    tag_99:\n        /* \"Dropsite.sol\":896:917  _msgSender() == Owner */\n      0xffffffffffffffffffffffffffffffffffffffff\n      and\n      eq\n        /* \"Dropsite.sol\":888:950  require(_msgSender() == Owner, \"Only NFT-ES Owner can Access\") */\n      tag_100\n      jumpi\n      mload(0x40)\n      0x08c379a000000000000000000000000000000000000000000000000000000000\n      dup2\n      mstore\n      0x04\n      add\n      tag_101\n      swap1\n      tag_78\n      jump\t// in\n    tag_101:\n      mload(0x40)\n      dup1\n      swap2\n      sub\n      swap1\n      revert\n    tag_100:\n        /* \"Dropsite.sol\":1077:1082  false */\n      0x00\n        /* \"Dropsite.sol\":1065:1082  IsPaused == false */\n      iszero\n      iszero\n        /* \"Dropsite.sol\":1065:1073  IsPaused */\n      0x0b\n      0x00\n      swap1\n      sload\n      swap1\n      0x0100\n      exp\n      swap1\n      div\n      0xff\n      and\n        /* \"Dropsite.sol\":1065:1082  IsPaused == false */\n      iszero\n      iszero\n      eq\n        /* \"Dropsite.sol\":1056:1115  require (IsPaused == false, \"Dropsite is not Opened Yet.\" ) */\n      tag_103\n      jumpi\n      mload(0x40)\n      0x08c379a000000000000000000000000000000000000000000000000000000000\n      dup2\n      mstore\n      0x04\n      add\n      tag_104\n      swap1\n      tag_105\n      jump\t// in\n    tag_104:\n      mload(0x40)\n      dup1\n      swap2\n      sub\n      swap1\n      revert\n    tag_103:\n        /* \"Dropsite.sol\":3995:3999  1000 */\n      0x03e8\n        /* \"Dropsite.sol\":3979:3994  TotalNFTsMinted */\n      sload(0x04)\n        /* \"Dropsite.sol\":3979:3999  TotalNFTsMinted<1000 */\n      lt\n        /* \"Dropsite.sol\":3971:4029  require(TotalNFTsMinted<1000, \"Max Minting Limit reached\") */\n      tag_107\n      jumpi\n      mload(0x40)\n      0x08c379a000000000000000000000000000000000000000000000000000000000\n      dup2\n      mstore\n      0x04\n      add\n      tag_108\n      swap1\n      tag_109\n      jump\t// in\n    tag_108:\n      mload(0x40)\n      dup1\n      swap2\n      sub\n      swap1\n      revert\n    tag_107:\n        /* \"Dropsite.sol\":4092:4102  uint nftId */\n      0x00\n        /* \"Dropsite.sol\":4105:4123  updateConditions() */\n      tag_110\n        /* \"Dropsite.sol\":4105:4121  updateConditions */\n      tag_111\n        /* \"Dropsite.sol\":4105:4123  updateConditions() */\n      jump\t// in\n    tag_110:\n        /* \"Dropsite.sol\":4092:4123  uint nftId = updateConditions() */\n      swap1\n      pop\n        /* \"Dropsite.sol\":4129:4171  _mint(user_addr, nftId, numOfCopies, data) */\n      tag_112\n        /* \"Dropsite.sol\":4135:4144  user_addr */\n      dup5\n        /* \"Dropsite.sol\":4146:4151  nftId */\n      dup3\n        /* \"Dropsite.sol\":4153:4164  numOfCopies */\n      sload(0x05)\n        /* \"Dropsite.sol\":4166:4170  data */\n      0x02\n        /* \"Dropsite.sol\":4129:4171  _mint(user_addr, nftId, numOfCopies, data) */\n      dup1\n      sload\n      tag_113\n      swap1\n      tag_114\n      jump\t// in\n    tag_113:\n      dup1\n      0x1f\n      add\n      0x20\n      dup1\n      swap2\n      div\n      mul\n      0x20\n      add\n      mload(0x40)\n      swap1\n      dup2\n      add\n      0x40\n      mstore\n      dup1\n      swap3\n      swap2\n      swap1\n      dup2\n      dup2\n      mstore\n      0x20\n      add\n      dup3\n      dup1\n      sload\n      tag_115\n      swap1\n      tag_114\n      jump\t// in\n    tag_115:\n      dup1\n      iszero\n      tag_116\n      jumpi\n      dup1\n      0x1f\n      lt\n      tag_117\n      jumpi\n      0x0100\n      dup1\n      dup4\n      sload\n      div\n      mul\n      dup4\n      mstore\n      swap2\n      0x20\n      add\n      swap2\n      jump(tag_116)\n    tag_117:\n      dup3\n      add\n      swap2\n      swap1\n      0x00\n      mstore\n      keccak256(0x00, 0x20)\n      swap1\n    tag_118:\n      dup2\n      sload\n      dup2\n      mstore\n      swap1\n      0x01\n      add\n      swap1\n      0x20\n      add\n      dup1\n      dup4\n      gt\n      tag_118\n      jumpi\n      dup3\n      swap1\n      sub\n      0x1f\n      and\n      dup3\n      add\n      swap2\n    tag_116:\n      pop\n      pop\n      pop\n      pop\n      pop\n        /* \"Dropsite.sol\":4129:4134  _mint */\n      tag_119\n        /* \"Dropsite.sol\":4129:4171  _mint(user_addr, nftId, numOfCopies, data) */\n      jump\t// in\n    tag_112:\n        /* \"Dropsite.sol\":4177:4192  TotalNFTsMinted */\n      0x04\n      0x00\n        /* \"Dropsite.sol\":4177:4194  TotalNFTsMinted++ */\n      dup2\n      sload\n      dup1\n      swap3\n      swap2\n      swap1\n      tag_120\n      swap1\n      tag_121\n      jump\t// in\n    tag_120:\n      swap2\n      swap1\n      pop\n      sstore\n      pop\n        /* \"Dropsite.sol\":4200:4218  dropsite_NFT_Owner */\n      0x09\n        /* \"Dropsite.sol\":4200:4229  dropsite_NFT_Owner[user_addr] */\n      0x00\n        /* \"Dropsite.sol\":4219:4228  user_addr */\n      dup6\n        /* \"Dropsite.sol\":4200:4229  dropsite_NFT_Owner[user_addr] */\n      0xffffffffffffffffffffffffffffffffffffffff\n      and\n      0xffffffffffffffffffffffffffffffffffffffff\n      and\n      dup2\n      mstore\n      0x20\n      add\n      swap1\n      dup2\n      mstore\n      0x20\n      add\n      0x00\n      keccak256\n        /* \"Dropsite.sol\":4200:4249  dropsite_NFT_Owner[user_addr].owned_Dropsite_NFTs */\n      0x00\n      add\n        /* \"Dropsite.sol\":4255:4260  nftId */\n      dup2\n        /* \"Dropsite.sol\":4200:4261  dropsite_NFT_Owner[user_addr].owned_Dropsite_NFTs.push(nftId) */\n      swap1\n      dup1\n      0x01\n      dup2\n      sload\n      add\n      dup1\n      dup3\n      sstore\n      dup1\n      swap2\n      pop\n      pop\n      0x01\n      swap1\n      sub\n      swap1\n      0x00\n      mstore\n      keccak256(0x00, 0x20)\n      add\n      0x00\n      swap1\n      swap2\n      swap1\n      swap2\n      swap1\n      swap2\n      pop\n      sstore\n        /* \"Dropsite.sol\":4275:4280  nftId */\n      dup1\n        /* \"Dropsite.sol\":4288:4292  data */\n      0x02\n        /* \"Dropsite.sol\":4267:4294  return (nftId,string(data)) */\n      dup1\n      dup1\n      sload\n      tag_123\n      swap1\n      tag_114\n      jump\t// in\n    tag_123:\n      dup1\n      0x1f\n      add\n      0x20\n      dup1\n      swap2\n      div\n      mul\n      0x20\n      add\n      mload(0x40)\n      swap1\n      dup2\n      add\n      0x40\n      mstore\n      dup1\n      swap3\n      swap2\n      swap1\n      dup2\n      dup2\n      mstore\n      0x20\n      add\n      dup3\n      dup1\n      sload\n      tag_124\n      swap1\n      tag_114\n      jump\t// in\n    tag_124:\n      dup1\n      iszero\n      tag_125\n      jumpi\n      dup1\n      0x1f\n      lt\n      tag_126\n      jumpi\n      0x0100\n      dup1\n      dup4\n      sload\n      div\n      mul\n      dup4\n      mstore\n      swap2\n      0x20\n      add\n      swap2\n      jump(tag_125)\n    tag_126:\n      dup3\n      add\n      swap2\n      swap1\n      0x00\n      mstore\n      keccak256(0x00, 0x20)\n      swap1\n    tag_127:\n      dup2\n      sload\n      dup2\n      mstore\n      swap1\n      0x01\n      add\n      swap1\n      0x20\n      add\n      dup1\n      dup4\n      gt\n      tag_127\n      jumpi\n      dup3\n      swap1\n      sub\n      0x1f\n      and\n      dup3\n      add\n      swap2\n    tag_125:\n      pop\n      pop\n      pop\n      pop\n      pop\n      swap1\n      pop\n      swap3\n      pop\n      swap3\n      pop\n      pop\n        /* \"Dropsite.sol\":3855:4301  function FiatRandomMint(address user_addr) OnlyOwner contractIsNotPaused public returns (uint,string memory) {... */\n      swap2\n      pop\n      swap2\n      jump\t// out\n        /* \"Dropsite.sol\":2387:2495  function ContractBalance() public view OnlyOwner returns (uint){... */\n    tag_41:\n        /* \"Dropsite.sol\":2445:2449  uint */\n      0x00\n        /* \"Dropsite.sol\":912:917  Owner */\n      0x0b\n      0x01\n      swap1\n      sload\n      swap1\n      0x0100\n      exp\n      swap1\n      div\n      0xffffffffffffffffffffffffffffffffffffffff\n      and\n        /* \"Dropsite.sol\":896:917  _msgSender() == Owner */\n      0xffffffffffffffffffffffffffffffffffffffff\n      and\n        /* \"Dropsite.sol\":896:908  _msgSender() */\n      tag_129\n        /* \"Dropsite.sol\":896:906  _msgSender */\n      tag_75\n        /* \"Dropsite.sol\":896:908  _msgSender() */\n      jump\t// in\n    tag_129:\n        /* \"Dropsite.sol\":896:917  _msgSender() == Owner */\n      0xffffffffffffffffffffffffffffffffffffffff\n      and\n      eq\n        /* \"Dropsite.sol\":888:950  require(_msgSender() == Owner, \"Only NFT-ES Owner can Access\") */\n      tag_130\n      jumpi\n      mload(0x40)\n      0x08c379a000000000000000000000000000000000000000000000000000000000\n      dup2\n      mstore\n      0x04\n      add\n      tag_131\n      swap1\n      tag_78\n      jump\t// in\n    tag_131:\n      mload(0x40)\n      dup1\n      swap2\n      sub\n      swap1\n      revert\n    tag_130:\n        /* \"Dropsite.sol\":2467:2488  address(this).balance */\n      selfbalance\n        /* \"Dropsite.sol\":2460:2488  return address(this).balance */\n      swap1\n      pop\n        /* \"Dropsite.sol\":2387:2495  function ContractBalance() public view OnlyOwner returns (uint){... */\n      swap1\n      jump\t// out\n        /* \"Dropsite.sol\":4478:5048  function CryptoRandomMint(address user_addr)  contractIsNotPaused public payable returns (uint,string memory) {... */\n    tag_45:\n        /* \"Dropsite.sol\":4568:4572  uint */\n      0x00\n        /* \"Dropsite.sol\":4573:4586  string memory */\n      0x60\n        /* \"Dropsite.sol\":1077:1082  false */\n      0x00\n        /* \"Dropsite.sol\":1065:1082  IsPaused == false */\n      iszero\n      iszero\n        /* \"Dropsite.sol\":1065:1073  IsPaused */\n      0x0b\n      0x00\n      swap1\n      sload\n      swap1\n      0x0100\n      exp\n      swap1\n      div\n      0xff\n      and\n        /* \"Dropsite.sol\":1065:1082  IsPaused == false */\n      iszero\n      iszero\n      eq\n        /* \"Dropsite.sol\":1056:1115  require (IsPaused == false, \"Dropsite is not Opened Yet.\" ) */\n      tag_134\n      jumpi\n      mload(0x40)\n      0x08c379a000000000000000000000000000000000000000000000000000000000\n      dup2\n      mstore\n      0x04\n      add\n      tag_135\n      swap1\n      tag_105\n      jump\t// in\n    tag_135:\n      mload(0x40)\n      dup1\n      swap2\n      sub\n      swap1\n      revert\n    tag_134:\n        /* \"Dropsite.sol\":4619:4623  1000 */\n      0x03e8\n        /* \"Dropsite.sol\":4603:4618  TotalNFTsMinted */\n      sload(0x04)\n        /* \"Dropsite.sol\":4603:4623  TotalNFTsMinted<1000 */\n      lt\n        /* \"Dropsite.sol\":4595:4653  require(TotalNFTsMinted<1000, \"Max Minting Limit reached\") */\n      tag_137\n      jumpi\n      mload(0x40)\n      0x08c379a000000000000000000000000000000000000000000000000000000000\n      dup2\n      mstore\n      0x04\n      add\n      tag_138\n      swap1\n      tag_109\n      jump\t// in\n    tag_138:\n      mload(0x40)\n      dup1\n      swap2\n      sub\n      swap1\n      revert\n    tag_137:\n        /* \"Dropsite.sol\":4682:4684  25 */\n      0x19\n        /* \"Dropsite.sol\":4668:4677  msg.value */\n      callvalue\n        /* \"Dropsite.sol\":4668:4685  msg.value == (25) */\n      eq\n        /* \"Dropsite.sol\":4660:4715  require(msg.value == (25), \"Balance must be 25 Matics\") */\n      tag_139\n      jumpi\n      mload(0x40)\n      0x08c379a000000000000000000000000000000000000000000000000000000000\n      dup2\n      mstore\n      0x04\n      add\n      tag_140\n      swap1\n      tag_141\n      jump\t// in\n    tag_140:\n      mload(0x40)\n      dup1\n      swap2\n      sub\n      swap1\n      revert\n    tag_139:\n        /* \"Dropsite.sol\":4795:4805  uint nftId */\n      0x00\n        /* \"Dropsite.sol\":4808:4826  updateConditions() */\n      tag_142\n        /* \"Dropsite.sol\":4808:4824  updateConditions */\n      tag_111\n        /* \"Dropsite.sol\":4808:4826  updateConditions() */\n      jump\t// in\n    tag_142:\n        /* \"Dropsite.sol\":4795:4826  uint nftId = updateConditions() */\n      swap1\n      pop\n        /* \"Dropsite.sol\":4832:4874  _mint(user_addr, nftId, numOfCopies, data) */\n      tag_143\n        /* \"Dropsite.sol\":4838:4847  user_addr */\n      dup5\n        /* \"Dropsite.sol\":4849:4854  nftId */\n      dup3\n        /* \"Dropsite.sol\":4856:4867  numOfCopies */\n      sload(0x05)\n        /* \"Dropsite.sol\":4869:4873  data */\n      0x02\n        /* \"Dropsite.sol\":4832:4874  _mint(user_addr, nftId, numOfCopies, data) */\n      dup1\n      sload\n      tag_144\n      swap1\n      tag_114\n      jump\t// in\n    tag_144:\n      dup1\n      0x1f\n      add\n      0x20\n      dup1\n      swap2\n      div\n      mul\n      0x20\n      add\n      mload(0x40)\n      swap1\n      dup2\n      add\n      0x40\n      mstore\n      dup1\n      swap3\n      swap2\n      swap1\n      dup2\n      dup2\n      mstore\n      0x20\n      add\n      dup3\n      dup1\n      sload\n      tag_145\n      swap1\n      tag_114\n      jump\t// in\n    tag_145:\n      dup1\n      iszero\n      tag_146\n      jumpi\n      dup1\n      0x1f\n      lt\n      tag_147\n      jumpi\n      0x0100\n      dup1\n      dup4\n      sload\n      div\n      mul\n      dup4\n      mstore\n      swap2\n      0x20\n      add\n      swap2\n      jump(tag_146)\n    tag_147:\n      dup3\n      add\n      swap2\n      swap1\n      0x00\n      mstore\n      keccak256(0x00, 0x20)\n      swap1\n    tag_148:\n      dup2\n      sload\n      dup2\n      mstore\n      swap1\n      0x01\n      add\n      swap1\n      0x20\n      add\n      dup1\n      dup4\n      gt\n      tag_148\n      jumpi\n      dup3\n      swap1\n      sub\n      0x1f\n      and\n      dup3\n      add\n      swap2\n    tag_146:\n      pop\n      pop\n      pop\n      pop\n      pop\n        /* \"Dropsite.sol\":4832:4837  _mint */\n      tag_119\n        /* \"Dropsite.sol\":4832:4874  _mint(user_addr, nftId, numOfCopies, data) */\n      jump\t// in\n    tag_143:\n        /* \"Dropsite.sol\":4880:4918  depositAmount(_msgSender(), msg.value) */\n      tag_149\n        /* \"Dropsite.sol\":4894:4906  _msgSender() */\n      tag_150\n        /* \"Dropsite.sol\":4894:4904  _msgSender */\n      tag_75\n        /* \"Dropsite.sol\":4894:4906  _msgSender() */\n      jump\t// in\n    tag_150:\n        /* \"Dropsite.sol\":4908:4917  msg.value */\n      callvalue\n        /* \"Dropsite.sol\":4880:4893  depositAmount */\n      tag_151\n        /* \"Dropsite.sol\":4880:4918  depositAmount(_msgSender(), msg.value) */\n      jump\t// in\n    tag_149:\n        /* \"Dropsite.sol\":4924:4939  TotalNFTsMinted */\n      0x04\n      0x00\n        /* \"Dropsite.sol\":4924:4941  TotalNFTsMinted++ */\n      dup2\n      sload\n      dup1\n      swap3\n      swap2\n      swap1\n      tag_152\n      swap1\n      tag_121\n      jump\t// in\n    tag_152:\n      swap2\n      swap1\n      pop\n      sstore\n      pop\n        /* \"Dropsite.sol\":4947:4965  dropsite_NFT_Owner */\n      0x09\n        /* \"Dropsite.sol\":4947:4976  dropsite_NFT_Owner[user_addr] */\n      0x00\n        /* \"Dropsite.sol\":4966:4975  user_addr */\n      dup6\n        /* \"Dropsite.sol\":4947:4976  dropsite_NFT_Owner[user_addr] */\n      0xffffffffffffffffffffffffffffffffffffffff\n      and\n      0xffffffffffffffffffffffffffffffffffffffff\n      and\n      dup2\n      mstore\n      0x20\n      add\n      swap1\n      dup2\n      mstore\n      0x20\n      add\n      0x00\n      keccak256\n        /* \"Dropsite.sol\":4947:4996  dropsite_NFT_Owner[user_addr].owned_Dropsite_NFTs */\n      0x00\n      add\n        /* \"Dropsite.sol\":5002:5007  nftId */\n      dup2\n        /* \"Dropsite.sol\":4947:5008  dropsite_NFT_Owner[user_addr].owned_Dropsite_NFTs.push(nftId) */\n      swap1\n      dup1\n      0x01\n      dup2\n      sload\n      add\n      dup1\n      dup3\n      sstore\n      dup1\n      swap2\n      pop\n      pop\n      0x01\n      swap1\n      sub\n      swap1\n      0x00\n      mstore\n      keccak256(0x00, 0x20)\n      add\n      0x00\n      swap1\n      swap2\n      swap1\n      swap2\n      swap1\n      swap2\n      pop\n      sstore\n        /* \"Dropsite.sol\":5022:5027  nftId */\n      dup1\n        /* \"Dropsite.sol\":5035:5039  data */\n      0x02\n        /* \"Dropsite.sol\":5014:5041  return (nftId,string(data)) */\n      dup1\n      dup1\n      sload\n      tag_154\n      swap1\n      tag_114\n      jump\t// in\n    tag_154:\n      dup1\n      0x1f\n      add\n      0x20\n      dup1\n      swap2\n      div\n      mul\n      0x20\n      add\n      mload(0x40)\n      swap1\n      dup2\n      add\n      0x40\n      mstore\n      dup1\n      swap3\n      swap2\n      swap1\n      dup2\n      dup2\n      mstore\n      0x20\n      add\n      dup3\n      dup1\n      sload\n      tag_155\n      swap1\n      tag_114\n      jump\t// in\n    tag_155:\n      dup1\n      iszero\n      tag_156\n      jumpi\n      dup1\n      0x1f\n      lt\n      tag_157\n      jumpi\n      0x0100\n      dup1\n      dup4\n      sload\n      div\n      mul\n      dup4\n      mstore\n      swap2\n      0x20\n      add\n      swap2\n      jump(tag_156)\n    tag_157:\n      dup3\n      add\n      swap2\n      swap1\n      0x00\n      mstore\n      keccak256(0x00, 0x20)\n      swap1\n    tag_158:\n      dup2\n      sload\n      dup2\n      mstore\n      swap1\n      0x01\n      add\n      swap1\n      0x20\n      add\n      dup1\n      dup4\n      gt\n      tag_158\n      jumpi\n      dup3\n      swap1\n      sub\n      0x1f\n      and\n      dup3\n      add\n      swap2\n    tag_156:\n      pop\n      pop\n      pop\n      pop\n      pop\n      swap1\n      pop\n      swap3\n      pop\n      swap3\n      pop\n      pop\n        /* \"Dropsite.sol\":4478:5048  function CryptoRandomMint(address user_addr)  contractIsNotPaused public payable returns (uint,string memory) {... */\n      swap2\n      pop\n      swap2\n      jump\t// out\n        /* \"Dropsite.sol\":1526:1653  function checkMintedCategoryWise() public view OnlyOwner returns(uint,uint,uint){... */\n    tag_49:\n        /* \"Dropsite.sol\":1591:1595  uint */\n      0x00\n        /* \"Dropsite.sol\":1596:1600  uint */\n      dup1\n        /* \"Dropsite.sol\":1601:1605  uint */\n      0x00\n        /* \"Dropsite.sol\":912:917  Owner */\n      0x0b\n      0x01\n      swap1\n      sload\n      swap1\n      0x0100\n      exp\n      swap1\n      div\n      0xffffffffffffffffffffffffffffffffffffffff\n      and\n        /* \"Dropsite.sol\":896:917  _msgSender() == Owner */\n      0xffffffffffffffffffffffffffffffffffffffff\n      and\n        /* \"Dropsite.sol\":896:908  _msgSender() */\n      tag_160\n        /* \"Dropsite.sol\":896:906  _msgSender */\n      tag_75\n        /* \"Dropsite.sol\":896:908  _msgSender() */\n      jump\t// in\n    tag_160:\n        /* \"Dropsite.sol\":896:917  _msgSender() == Owner */\n      0xffffffffffffffffffffffffffffffffffffffff\n      and\n      eq\n        /* \"Dropsite.sol\":888:950  require(_msgSender() == Owner, \"Only NFT-ES Owner can Access\") */\n      tag_161\n      jumpi\n      mload(0x40)\n      0x08c379a000000000000000000000000000000000000000000000000000000000\n      dup2\n      mstore\n      0x04\n      add\n      tag_162\n      swap1\n      tag_78\n      jump\t// in\n    tag_162:\n      mload(0x40)\n      dup1\n      swap2\n      sub\n      swap1\n      revert\n    tag_161:\n        /* \"Dropsite.sol\":1625:1632  Diamond */\n      sload(0x06)\n        /* \"Dropsite.sol\":1633:1637  Gold */\n      sload(0x07)\n        /* \"Dropsite.sol\":1638:1644  Silver */\n      sload(0x08)\n        /* \"Dropsite.sol\":1617:1645  return (Diamond,Gold,Silver) */\n      swap3\n      pop\n      swap3\n      pop\n      swap3\n      pop\n        /* \"Dropsite.sol\":1526:1653  function checkMintedCategoryWise() public view OnlyOwner returns(uint,uint,uint){... */\n      swap1\n      swap2\n      swap3\n      jump\t// out\n        /* \"Dropsite.sol\":1768:1903  function stopDropsite() public OnlyOwner{... */\n    tag_54:\n        /* \"Dropsite.sol\":912:917  Owner */\n      0x0b\n      0x01\n      swap1\n      sload\n      swap1\n      0x0100\n      exp\n      swap1\n      div\n      0xffffffffffffffffffffffffffffffffffffffff\n      and\n        /* \"Dropsite.sol\":896:917  _msgSender() == Owner */\n      0xffffffffffffffffffffffffffffffffffffffff\n      and\n        /* \"Dropsite.sol\":896:908  _msgSender() */\n      tag_165\n        /* \"Dropsite.sol\":896:906  _msgSender */\n      tag_75\n        /* \"Dropsite.sol\":896:908  _msgSender() */\n      jump\t// in\n    tag_165:\n        /* \"Dropsite.sol\":896:917  _msgSender() == Owner */\n      0xffffffffffffffffffffffffffffffffffffffff\n      and\n      eq\n        /* \"Dropsite.sol\":888:950  require(_msgSender() == Owner, \"Only NFT-ES Owner can Access\") */\n      tag_166\n      jumpi\n      mload(0x40)\n      0x08c379a000000000000000000000000000000000000000000000000000000000\n      dup2\n      mstore\n      0x04\n      add\n      tag_167\n      swap1\n      tag_78\n      jump\t// in\n    tag_167:\n      mload(0x40)\n      dup1\n      swap2\n      sub\n      swap1\n      revert\n    tag_166:\n        /* \"Dropsite.sol\":1836:1841  false */\n      0x00\n        /* \"Dropsite.sol\":1826:1841  IsPaused==false */\n      iszero\n      iszero\n        /* \"Dropsite.sol\":1826:1834  IsPaused */\n      0x0b\n      0x00\n      swap1\n      sload\n      swap1\n      0x0100\n      exp\n      swap1\n      div\n      0xff\n      and\n        /* \"Dropsite.sol\":1826:1841  IsPaused==false */\n      iszero\n      iszero\n      eq\n        /* \"Dropsite.sol\":1818:1873  require(IsPaused==false, \"Dropsite is already Stopped\") */\n      tag_169\n      jumpi\n      mload(0x40)\n      0x08c379a000000000000000000000000000000000000000000000000000000000\n      dup2\n      mstore\n      0x04\n      add\n      tag_170\n      swap1\n      tag_171\n      jump\t// in\n    tag_170:\n      mload(0x40)\n      dup1\n      swap2\n      sub\n      swap1\n      revert\n    tag_169:\n        /* \"Dropsite.sol\":1892:1896  true */\n      0x01\n        /* \"Dropsite.sol\":1883:1891  IsPaused */\n      0x0b\n      0x00\n        /* \"Dropsite.sol\":1883:1896  IsPaused=true */\n      0x0100\n      exp\n      dup2\n      sload\n      dup2\n      0xff\n      mul\n      not\n      and\n      swap1\n      dup4\n      iszero\n      iszero\n      mul\n      or\n      swap1\n      sstore\n      pop\n        /* \"Dropsite.sol\":1768:1903  function stopDropsite() public OnlyOwner{... */\n      jump\t// out\n        /* \"Dropsite.sol\":1173:1202  address payable public  Owner */\n    tag_57:\n      0x0b\n      0x01\n      swap1\n      sload\n      swap1\n      0x0100\n      exp\n      swap1\n      div\n      0xffffffffffffffffffffffffffffffffffffffff\n      and\n      dup2\n      jump\t// out\n        /* \"Dropsite.sol\":209:274  uint8[20] public nums = [0,1,1,2,2,2,2,2,2,2,2,2,2,2,2,2,2,2,2,2] */\n    tag_64:\n      0x03\n      dup2\n      0x14\n      dup2\n      lt\n      tag_172\n      jumpi\n      0x00\n      dup1\n      revert\n    tag_172:\n      0x20\n      swap2\n      dup3\n      dup3\n      div\n      add\n      swap2\n      swap1\n      mod\n      swap2\n      pop\n      sload\n      swap1\n      0x0100\n      exp\n      swap1\n      div\n      0xff\n      and\n      dup2\n      jump\t// out\n        /* \"Dropsite.sol\":653:791  function returnOwner(address addr) public view returns (uint[] memory){... */\n    tag_70:\n        /* \"Dropsite.sol\":709:722  uint[] memory */\n      0x60\n        /* \"Dropsite.sol\":740:758  dropsite_NFT_Owner */\n      0x09\n        /* \"Dropsite.sol\":740:764  dropsite_NFT_Owner[addr] */\n      0x00\n        /* \"Dropsite.sol\":759:763  addr */\n      dup4\n        /* \"Dropsite.sol\":740:764  dropsite_NFT_Owner[addr] */\n      0xffffffffffffffffffffffffffffffffffffffff\n      and\n      0xffffffffffffffffffffffffffffffffffffffff\n      and\n      dup2\n      mstore\n      0x20\n      add\n      swap1\n      dup2\n      mstore\n      0x20\n      add\n      0x00\n      keccak256\n        /* \"Dropsite.sol\":740:784  dropsite_NFT_Owner[addr].owned_Dropsite_NFTs */\n      0x00\n      add\n        /* \"Dropsite.sol\":733:784  return dropsite_NFT_Owner[addr].owned_Dropsite_NFTs */\n      dup1\n      sload\n      dup1\n      0x20\n      mul\n      0x20\n      add\n      mload(0x40)\n      swap1\n      dup2\n      add\n      0x40\n      mstore\n      dup1\n      swap3\n      swap2\n      swap1\n      dup2\n      dup2\n      mstore\n      0x20\n      add\n      dup3\n      dup1\n      sload\n      dup1\n      iszero\n      tag_175\n      jumpi\n      0x20\n      mul\n      dup3\n      add\n      swap2\n      swap1\n      0x00\n      mstore\n      keccak256(0x00, 0x20)\n      swap1\n    tag_176:\n      dup2\n      sload\n      dup2\n      mstore\n      0x20\n      add\n      swap1\n      0x01\n      add\n      swap1\n      dup1\n      dup4\n      gt\n      tag_176\n      jumpi\n    tag_175:\n      pop\n      pop\n      pop\n      pop\n      pop\n      swap1\n      pop\n        /* \"Dropsite.sol\":653:791  function returnOwner(address addr) public view returns (uint[] memory){... */\n      swap2\n      swap1\n      pop\n      jump\t// out\n        /* \"Context.sol\":640:736  function _msgSender() internal view virtual returns (address) {... */\n    tag_75:\n        /* \"Context.sol\":693:700  address */\n      0x00\n        /* \"Context.sol\":719:729  msg.sender */\n      caller\n        /* \"Context.sol\":712:729  return msg.sender */\n      swap1\n      pop\n        /* \"Context.sol\":640:736  function _msgSender() internal view virtual returns (address) {... */\n      swap1\n      jump\t// out\n        /* \"Dropsite.sol\":2702:3809  function updateConditions() internal contractIsNotPaused returns(uint) {... */\n    tag_111:\n        /* \"Dropsite.sol\":2767:2771  uint */\n      0x00\n        /* \"Dropsite.sol\":1077:1082  false */\n      dup1\n        /* \"Dropsite.sol\":1065:1082  IsPaused == false */\n      iszero\n      iszero\n        /* \"Dropsite.sol\":1065:1073  IsPaused */\n      0x0b\n      0x00\n      swap1\n      sload\n      swap1\n      0x0100\n      exp\n      swap1\n      div\n      0xff\n      and\n        /* \"Dropsite.sol\":1065:1082  IsPaused == false */\n      iszero\n      iszero\n      eq\n        /* \"Dropsite.sol\":1056:1115  require (IsPaused == false, \"Dropsite is not Opened Yet.\" ) */\n      tag_179\n      jumpi\n      mload(0x40)\n      0x08c379a000000000000000000000000000000000000000000000000000000000\n      dup2\n      mstore\n      0x04\n      add\n      tag_180\n      swap1\n      tag_105\n      jump\t// in\n    tag_180:\n      mload(0x40)\n      dup1\n      swap2\n      sub\n      swap1\n      revert\n    tag_179:\n        /* \"Dropsite.sol\":2782:2792  uint index */\n      0x00\n        /* \"Dropsite.sol\":2795:2803  random() */\n      tag_182\n        /* \"Dropsite.sol\":2795:2801  random */\n      tag_183\n        /* \"Dropsite.sol\":2795:2803  random() */\n      jump\t// in\n    tag_182:\n        /* \"Dropsite.sol\":2782:2803  uint index = random() */\n      swap1\n      pop\n        /* \"Dropsite.sol\":2813:2823  uint nftId */\n      0x00\n        /* \"Dropsite.sol\":2826:2830  nums */\n      0x03\n        /* \"Dropsite.sol\":2831:2836  index */\n      dup3\n        /* \"Dropsite.sol\":2826:2837  nums[index] */\n      0x14\n      dup2\n      lt\n      tag_184\n      jumpi\n      tag_185\n      tag_186\n      jump\t// in\n    tag_185:\n    tag_184:\n      0x20\n      swap2\n      dup3\n      dup3\n      div\n      add\n      swap2\n      swap1\n      mod\n      swap1\n      sload\n      swap1\n      0x0100\n      exp\n      swap1\n      div\n      0xff\n      and\n        /* \"Dropsite.sol\":2813:2837  uint nftId = nums[index] */\n      0xff\n      and\n      swap1\n      pop\n        /* \"Dropsite.sol\":2927:2928  0 */\n      0x00\n        /* \"Dropsite.sol\":2918:2923  nftId */\n      dup2\n        /* \"Dropsite.sol\":2918:2928  nftId == 0 */\n      eq\n        /* \"Dropsite.sol\":2918:2944  nftId == 0 && Diamond < 50 */\n      dup1\n      iszero\n      tag_188\n      jumpi\n      pop\n        /* \"Dropsite.sol\":2942:2944  50 */\n      0x32\n        /* \"Dropsite.sol\":2932:2939  Diamond */\n      sload(0x06)\n        /* \"Dropsite.sol\":2932:2944  Diamond < 50 */\n      lt\n        /* \"Dropsite.sol\":2918:2944  nftId == 0 && Diamond < 50 */\n    tag_188:\n        /* \"Dropsite.sol\":2915:3804  if(nftId == 0 && Diamond < 50) {... */\n      iszero\n      tag_189\n      jumpi\n        /* \"Dropsite.sol\":2960:2976  data = \"Diamond\" */\n      mload(0x40)\n      dup1\n      0x40\n      add\n      0x40\n      mstore\n      dup1\n      0x07\n      dup2\n      mstore\n      0x20\n      add\n      0x4469616d6f6e6400000000000000000000000000000000000000000000000000\n      dup2\n      mstore\n      pop\n        /* \"Dropsite.sol\":2960:2964  data */\n      0x02\n        /* \"Dropsite.sol\":2960:2976  data = \"Diamond\" */\n      swap1\n      dup1\n      mload\n      swap1\n      0x20\n      add\n      swap1\n      tag_190\n      swap3\n      swap2\n      swap1\n      tag_191\n      jump\t// in\n    tag_190:\n      pop\n        /* \"Dropsite.sol\":2990:2997  Diamond */\n      0x06\n      0x00\n        /* \"Dropsite.sol\":2990:2999  Diamond++ */\n      dup2\n      sload\n      dup1\n      swap3\n      swap2\n      swap1\n      tag_192\n      swap1\n      tag_121\n      jump\t// in\n    tag_192:\n      swap2\n      swap1\n      pop\n      sstore\n      pop\n        /* \"Dropsite.sol\":3021:3026  nftId */\n      dup1\n        /* \"Dropsite.sol\":3014:3026  return nftId */\n      swap3\n      pop\n      pop\n      pop\n      jump(tag_181)\n        /* \"Dropsite.sol\":2915:3804  if(nftId == 0 && Diamond < 50) {... */\n    tag_189:\n        /* \"Dropsite.sol\":3133:3134  1 */\n      0x01\n        /* \"Dropsite.sol\":3124:3129  nftId */\n      dup2\n        /* \"Dropsite.sol\":3124:3134  nftId <= 1 */\n      gt\n      iszero\n        /* \"Dropsite.sol\":3124:3148  nftId <= 1 && Gold < 100 */\n      dup1\n      iszero\n      tag_194\n      jumpi\n      pop\n        /* \"Dropsite.sol\":3145:3148  100 */\n      0x64\n        /* \"Dropsite.sol\":3138:3142  Gold */\n      sload(0x07)\n        /* \"Dropsite.sol\":3138:3148  Gold < 100 */\n      lt\n        /* \"Dropsite.sol\":3124:3148  nftId <= 1 && Gold < 100 */\n    tag_194:\n        /* \"Dropsite.sol\":3121:3804  if(nftId <= 1 && Gold < 100) {... */\n      iszero\n      tag_195\n      jumpi\n        /* \"Dropsite.sol\":3177:3190  data = \"Gold\" */\n      mload(0x40)\n      dup1\n      0x40\n      add\n      0x40\n      mstore\n      dup1\n      0x04\n      dup2\n      mstore\n      0x20\n      add\n      0x476f6c6400000000000000000000000000000000000000000000000000000000\n      dup2\n      mstore\n      pop\n        /* \"Dropsite.sol\":3177:3181  data */\n      0x02\n        /* \"Dropsite.sol\":3177:3190  data = \"Gold\" */\n      swap1\n      dup1\n      mload\n      swap1\n      0x20\n      add\n      swap1\n      tag_196\n      swap3\n      swap2\n      swap1\n      tag_191\n      jump\t// in\n    tag_196:\n      pop\n        /* \"Dropsite.sol\":3204:3208  Gold */\n      0x07\n      0x00\n        /* \"Dropsite.sol\":3204:3210  Gold++ */\n      dup2\n      sload\n      dup1\n      swap3\n      swap2\n      swap1\n      tag_197\n      swap1\n      tag_121\n      jump\t// in\n    tag_197:\n      swap2\n      swap1\n      pop\n      sstore\n      pop\n        /* \"Dropsite.sol\":3231:3236  nftId */\n      dup1\n        /* \"Dropsite.sol\":3224:3236  return nftId */\n      swap3\n      pop\n      pop\n      pop\n      jump(tag_181)\n        /* \"Dropsite.sol\":3121:3804  if(nftId <= 1 && Gold < 100) {... */\n    tag_195:\n        /* \"Dropsite.sol\":3366:3367  2 */\n      0x02\n        /* \"Dropsite.sol\":3357:3362  nftId */\n      dup2\n        /* \"Dropsite.sol\":3357:3367  nftId <= 2 */\n      gt\n      iszero\n        /* \"Dropsite.sol\":3357:3384  nftId <= 2 && Silver <= 850 */\n      dup1\n      iszero\n      tag_199\n      jumpi\n      pop\n        /* \"Dropsite.sol\":3381:3384  850 */\n      0x0352\n        /* \"Dropsite.sol\":3371:3377  Silver */\n      sload(0x08)\n        /* \"Dropsite.sol\":3371:3384  Silver <= 850 */\n      gt\n      iszero\n        /* \"Dropsite.sol\":3357:3384  nftId <= 2 && Silver <= 850 */\n    tag_199:\n        /* \"Dropsite.sol\":3354:3804  if(nftId <= 2 && Silver <= 850) {... */\n      iszero\n      tag_200\n      jumpi\n        /* \"Dropsite.sol\":3413:3426  data=\"Silver\" */\n      mload(0x40)\n      dup1\n      0x40\n      add\n      0x40\n      mstore\n      dup1\n      0x06\n      dup2\n      mstore\n      0x20\n      add\n      0x53696c7665720000000000000000000000000000000000000000000000000000\n      dup2\n      mstore\n      pop\n        /* \"Dropsite.sol\":3413:3417  data */\n      0x02\n        /* \"Dropsite.sol\":3413:3426  data=\"Silver\" */\n      swap1\n      dup1\n      mload\n      swap1\n      0x20\n      add\n      swap1\n      tag_201\n      swap3\n      swap2\n      swap1\n      tag_191\n      jump\t// in\n    tag_201:\n      pop\n        /* \"Dropsite.sol\":3440:3446  Silver */\n      0x08\n      0x00\n        /* \"Dropsite.sol\":3440:3448  Silver++ */\n      dup2\n      sload\n      dup1\n      swap3\n      swap2\n      swap1\n      tag_202\n      swap1\n      tag_121\n      jump\t// in\n    tag_202:\n      swap2\n      swap1\n      pop\n      sstore\n      pop\n        /* \"Dropsite.sol\":3469:3474  nftId */\n      dup1\n        /* \"Dropsite.sol\":3462:3474  return nftId */\n      swap3\n      pop\n      pop\n      pop\n      jump(tag_181)\n        /* \"Dropsite.sol\":3354:3804  if(nftId <= 2 && Silver <= 850) {... */\n    tag_200:\n        /* \"Dropsite.sol\":3523:3526  100 */\n      0x64\n        /* \"Dropsite.sol\":3516:3520  Gold */\n      sload(0x07)\n        /* \"Dropsite.sol\":3516:3526  Gold < 100 */\n      lt\n        /* \"Dropsite.sol\":3513:3795  if(Gold < 100) {... */\n      iszero\n      tag_204\n      jumpi\n        /* \"Dropsite.sol\":3554:3555  1 */\n      0x01\n        /* \"Dropsite.sol\":3546:3555  nftId = 1 */\n      swap1\n      pop\n        /* \"Dropsite.sol\":3573:3586  data = \"Gold\" */\n      mload(0x40)\n      dup1\n      0x40\n      add\n      0x40\n      mstore\n      dup1\n      0x04\n      dup2\n      mstore\n      0x20\n      add\n      0x476f6c6400000000000000000000000000000000000000000000000000000000\n      dup2\n      mstore\n      pop\n        /* \"Dropsite.sol\":3573:3577  data */\n      0x02\n        /* \"Dropsite.sol\":3573:3586  data = \"Gold\" */\n      swap1\n      dup1\n      mload\n      swap1\n      0x20\n      add\n      swap1\n      tag_205\n      swap3\n      swap2\n      swap1\n      tag_191\n      jump\t// in\n    tag_205:\n      pop\n        /* \"Dropsite.sol\":3604:3608  Gold */\n      0x07\n      0x00\n        /* \"Dropsite.sol\":3604:3610  Gold++ */\n      dup2\n      sload\n      dup1\n      swap3\n      swap2\n      swap1\n      tag_206\n      swap1\n      tag_121\n      jump\t// in\n    tag_206:\n      swap2\n      swap1\n      pop\n      sstore\n      pop\n        /* \"Dropsite.sol\":3636:3641  nftId */\n      dup1\n        /* \"Dropsite.sol\":3629:3641  return nftId */\n      swap3\n      pop\n      pop\n      pop\n      jump(tag_181)\n        /* \"Dropsite.sol\":3513:3795  if(Gold < 100) {... */\n    tag_204:\n        /* \"Dropsite.sol\":3688:3689  0 */\n      0x00\n        /* \"Dropsite.sol\":3680:3689  nftId = 0 */\n      swap1\n      pop\n        /* \"Dropsite.sol\":3707:3723  data = \"Diamond\" */\n      mload(0x40)\n      dup1\n      0x40\n      add\n      0x40\n      mstore\n      dup1\n      0x07\n      dup2\n      mstore\n      0x20\n      add\n      0x4469616d6f6e6400000000000000000000000000000000000000000000000000\n      dup2\n      mstore\n      pop\n        /* \"Dropsite.sol\":3707:3711  data */\n      0x02\n        /* \"Dropsite.sol\":3707:3723  data = \"Diamond\" */\n      swap1\n      dup1\n      mload\n      swap1\n      0x20\n      add\n      swap1\n      tag_208\n      swap3\n      swap2\n      swap1\n      tag_191\n      jump\t// in\n    tag_208:\n      pop\n        /* \"Dropsite.sol\":3741:3748  Diamond */\n      0x06\n      0x00\n        /* \"Dropsite.sol\":3741:3750  Diamond++ */\n      dup2\n      sload\n      dup1\n      swap3\n      swap2\n      swap1\n      tag_209\n      swap1\n      tag_121\n      jump\t// in\n    tag_209:\n      swap2\n      swap1\n      pop\n      sstore\n      pop\n        /* \"Dropsite.sol\":3775:3780  nftId */\n      dup1\n        /* \"Dropsite.sol\":3768:3780  return nftId */\n      swap3\n      pop\n      pop\n      pop\n        /* \"Dropsite.sol\":1125:1126  _ */\n    tag_181:\n        /* \"Dropsite.sol\":2702:3809  function updateConditions() internal contractIsNotPaused returns(uint) {... */\n      swap1\n      jump\t// out\n        /* \"ERC1155_Dropsite.sol\":835:1386  function _mint(... */\n    tag_119:\n        /* \"ERC1155_Dropsite.sol\":996:997  0 */\n      0x00\n        /* \"ERC1155_Dropsite.sol\":982:998  to != address(0) */\n      0xffffffffffffffffffffffffffffffffffffffff\n      and\n        /* \"ERC1155_Dropsite.sol\":982:984  to */\n      dup5\n        /* \"ERC1155_Dropsite.sol\":982:998  to != address(0) */\n      0xffffffffffffffffffffffffffffffffffffffff\n      and\n      eq\n      iszero\n        /* \"ERC1155_Dropsite.sol\":974:1036  require(to != address(0), \"ERC1155: mint to the zero address\") */\n      tag_211\n      jumpi\n      mload(0x40)\n      0x08c379a000000000000000000000000000000000000000000000000000000000\n      dup2\n      mstore\n      0x04\n      add\n      tag_212\n      swap1\n      tag_213\n      jump\t// in\n    tag_212:\n      mload(0x40)\n      dup1\n      swap2\n      sub\n      swap1\n      revert\n    tag_211:\n        /* \"ERC1155_Dropsite.sol\":1047:1063  address operator */\n      0x00\n        /* \"ERC1155_Dropsite.sol\":1066:1078  _msgSender() */\n      tag_214\n        /* \"ERC1155_Dropsite.sol\":1066:1076  _msgSender */\n      tag_75\n        /* \"ERC1155_Dropsite.sol\":1066:1078  _msgSender() */\n      jump\t// in\n    tag_214:\n        /* \"ERC1155_Dropsite.sol\":1047:1078  address operator = _msgSender() */\n      swap1\n      pop\n        /* \"ERC1155_Dropsite.sol\":1089:1191  _beforeTokenTransfer(operator, address(0), to, _asSingletonArray(id), _asSingletonArray(amount), data) */\n      tag_215\n        /* \"ERC1155_Dropsite.sol\":1110:1118  operator */\n      dup2\n        /* \"ERC1155_Dropsite.sol\":1128:1129  0 */\n      0x00\n        /* \"ERC1155_Dropsite.sol\":1132:1134  to */\n      dup8\n        /* \"ERC1155_Dropsite.sol\":1136:1157  _asSingletonArray(id) */\n      tag_216\n        /* \"ERC1155_Dropsite.sol\":1154:1156  id */\n      dup9\n        /* \"ERC1155_Dropsite.sol\":1136:1153  _asSingletonArray */\n      tag_217\n        /* \"ERC1155_Dropsite.sol\":1136:1157  _asSingletonArray(id) */\n      jump\t// in\n    tag_216:\n        /* \"ERC1155_Dropsite.sol\":1159:1184  _asSingletonArray(amount) */\n      tag_218\n        /* \"ERC1155_Dropsite.sol\":1177:1183  amount */\n      dup9\n        /* \"ERC1155_Dropsite.sol\":1159:1176  _asSingletonArray */\n      tag_217\n        /* \"ERC1155_Dropsite.sol\":1159:1184  _asSingletonArray(amount) */\n      jump\t// in\n    tag_218:\n        /* \"ERC1155_Dropsite.sol\":1186:1190  data */\n      dup8\n        /* \"ERC1155_Dropsite.sol\":1089:1109  _beforeTokenTransfer */\n      tag_219\n        /* \"ERC1155_Dropsite.sol\":1089:1191  _beforeTokenTransfer(operator, address(0), to, _asSingletonArray(id), _asSingletonArray(amount), data) */\n      jump\t// in\n    tag_215:\n        /* \"ERC1155_Dropsite.sol\":1222:1228  amount */\n      dup3\n        /* \"ERC1155_Dropsite.sol\":1201:1210  _balances */\n      0x00\n        /* \"ERC1155_Dropsite.sol\":1201:1214  _balances[id] */\n      dup1\n        /* \"ERC1155_Dropsite.sol\":1211:1213  id */\n      dup7\n        /* \"ERC1155_Dropsite.sol\":1201:1214  _balances[id] */\n      dup2\n      mstore\n      0x20\n      add\n      swap1\n      dup2\n      mstore\n      0x20\n      add\n      0x00\n      keccak256\n        /* \"ERC1155_Dropsite.sol\":1201:1218  _balances[id][to] */\n      0x00\n        /* \"ERC1155_Dropsite.sol\":1215:1217  to */\n      dup8\n        /* \"ERC1155_Dropsite.sol\":1201:1218  _balances[id][to] */\n      0xffffffffffffffffffffffffffffffffffffffff\n      and\n      0xffffffffffffffffffffffffffffffffffffffff\n      and\n      dup2\n      mstore\n      0x20\n      add\n      swap1\n      dup2\n      mstore\n      0x20\n      add\n      0x00\n      keccak256\n      0x00\n        /* \"ERC1155_Dropsite.sol\":1201:1228  _balances[id][to] += amount */\n      dup3\n      dup3\n      sload\n      tag_220\n      swap2\n      swap1\n      tag_221\n      jump\t// in\n    tag_220:\n      swap3\n      pop\n      pop\n      dup2\n      swap1\n      sstore\n      pop\n        /* \"ERC1155_Dropsite.sol\":1280:1282  to */\n      dup5\n        /* \"ERC1155_Dropsite.sol\":1243:1295  TransferSingle(operator, address(0), to, id, amount) */\n      0xffffffffffffffffffffffffffffffffffffffff\n      and\n        /* \"ERC1155_Dropsite.sol\":1276:1277  0 */\n      0x00\n        /* \"ERC1155_Dropsite.sol\":1243:1295  TransferSingle(operator, address(0), to, id, amount) */\n      0xffffffffffffffffffffffffffffffffffffffff\n      and\n        /* \"ERC1155_Dropsite.sol\":1258:1266  operator */\n      dup3\n        /* \"ERC1155_Dropsite.sol\":1243:1295  TransferSingle(operator, address(0), to, id, amount) */\n      0xffffffffffffffffffffffffffffffffffffffff\n      and\n      0xc3d58168c5ae7397731d063d5bbf3d657854427343f4c083240f7aacaa2d0f62\n        /* \"ERC1155_Dropsite.sol\":1284:1286  id */\n      dup8\n        /* \"ERC1155_Dropsite.sol\":1288:1294  amount */\n      dup8\n        /* \"ERC1155_Dropsite.sol\":1243:1295  TransferSingle(operator, address(0), to, id, amount) */\n      mload(0x40)\n      tag_222\n      swap3\n      swap2\n      swap1\n      tag_223\n      jump\t// in\n    tag_222:\n      mload(0x40)\n      dup1\n      swap2\n      sub\n      swap1\n      log4\n        /* \"ERC1155_Dropsite.sol\":1305:1379  _doSafeTransferAcceptanceCheck(operator, address(0), to, id, amount, data) */\n      tag_224\n        /* \"ERC1155_Dropsite.sol\":1336:1344  operator */\n      dup2\n        /* \"ERC1155_Dropsite.sol\":1354:1355  0 */\n      0x00\n        /* \"ERC1155_Dropsite.sol\":1358:1360  to */\n      dup8\n        /* \"ERC1155_Dropsite.sol\":1362:1364  id */\n      dup8\n        /* \"ERC1155_Dropsite.sol\":1366:1372  amount */\n      dup8\n        /* \"ERC1155_Dropsite.sol\":1374:1378  data */\n      dup8\n        /* \"ERC1155_Dropsite.sol\":1305:1335  _doSafeTransferAcceptanceCheck */\n      tag_225\n        /* \"ERC1155_Dropsite.sol\":1305:1379  _doSafeTransferAcceptanceCheck(operator, address(0), to, id, amount, data) */\n      jump\t// in\n    tag_224:\n        /* \"ERC1155_Dropsite.sol\":964:1386  {... */\n      pop\n        /* \"ERC1155_Dropsite.sol\":835:1386  function _mint(... */\n      pop\n      pop\n      pop\n      pop\n      jump\t// out\n        /* \"Dropsite.sol\":4311:4430  function depositAmount(address payee,uint amountToDeposit) internal {... */\n    tag_151:\n        /* \"Dropsite.sol\":4408:4423  amountToDeposit */\n      dup1\n        /* \"Dropsite.sol\":4389:4397  deposits */\n      0x0a\n        /* \"Dropsite.sol\":4389:4404  deposits[payee] */\n      0x00\n        /* \"Dropsite.sol\":4398:4403  payee */\n      dup5\n        /* \"Dropsite.sol\":4389:4404  deposits[payee] */\n      0xffffffffffffffffffffffffffffffffffffffff\n      and\n      0xffffffffffffffffffffffffffffffffffffffff\n      and\n      dup2\n      mstore\n      0x20\n      add\n      swap1\n      dup2\n      mstore\n      0x20\n      add\n      0x00\n      keccak256\n      0x00\n        /* \"Dropsite.sol\":4389:4423  deposits[payee] += amountToDeposit */\n      dup3\n      dup3\n      sload\n      tag_227\n      swap2\n      swap1\n      tag_221\n      jump\t// in\n    tag_227:\n      swap3\n      pop\n      pop\n      dup2\n      swap1\n      sstore\n      pop\n        /* \"Dropsite.sol\":4311:4430  function depositAmount(address payee,uint amountToDeposit) internal {... */\n      pop\n      pop\n      jump\t// out\n        /* \"Dropsite.sol\":2501:2697  function random() internal view returns (uint) {... */\n    tag_183:\n        /* \"Dropsite.sol\":2542:2546  uint */\n      0x00\n        /* \"Dropsite.sol\":2578:2595  uint randomnumber */\n      dup1\n        /* \"Dropsite.sol\":2663:2665  20 */\n      0x14\n        /* \"Dropsite.sol\":2630:2645  block.timestamp */\n      timestamp\n        /* \"Dropsite.sol\":2647:2657  msg.sender */\n      caller\n        /* \"Dropsite.sol\":2613:2658  abi.encodePacked(block.timestamp, msg.sender) */\n      add(0x20, mload(0x40))\n      tag_229\n      swap3\n      swap2\n      swap1\n      tag_230\n      jump\t// in\n    tag_229:\n      mload(0x40)\n      0x20\n      dup2\n      dup4\n      sub\n      sub\n      dup2\n      mstore\n      swap1\n      0x40\n      mstore\n        /* \"Dropsite.sol\":2603:2659  keccak256(abi.encodePacked(block.timestamp, msg.sender)) */\n      dup1\n      mload\n      swap1\n      0x20\n      add\n      keccak256\n        /* \"Dropsite.sol\":2598:2660  uint(keccak256(abi.encodePacked(block.timestamp, msg.sender))) */\n      0x00\n      shr\n        /* \"Dropsite.sol\":2598:2665  uint(keccak256(abi.encodePacked(block.timestamp, msg.sender))) % 20 */\n      tag_231\n      swap2\n      swap1\n      tag_232\n      jump\t// in\n    tag_231:\n        /* \"Dropsite.sol\":2578:2665  uint randomnumber = uint(keccak256(abi.encodePacked(block.timestamp, msg.sender))) % 20 */\n      swap1\n      pop\n        /* \"Dropsite.sol\":2678:2690  randomnumber */\n      dup1\n        /* \"Dropsite.sol\":2671:2690  return randomnumber */\n      swap2\n      pop\n      pop\n        /* \"Dropsite.sol\":2501:2697  function random() internal view returns (uint) {... */\n      swap1\n      jump\t// out\n        /* \"ERC1155_Dropsite.sol\":2344:2537  function _asSingletonArray(uint256 element) private pure returns (uint256[] memory) {... */\n    tag_217:\n        /* \"ERC1155_Dropsite.sol\":2410:2426  uint256[] memory */\n      0x60\n        /* \"ERC1155_Dropsite.sol\":2438:2460  uint256[] memory array */\n      0x00\n        /* \"ERC1155_Dropsite.sol\":2477:2478  1 */\n      0x01\n        /* \"ERC1155_Dropsite.sol\":2463:2479  new uint256[](1) */\n      0xffffffffffffffff\n      dup2\n      gt\n      iszero\n      tag_234\n      jumpi\n      tag_235\n      tag_236\n      jump\t// in\n    tag_235:\n    tag_234:\n      mload(0x40)\n      swap1\n      dup1\n      dup3\n      mstore\n      dup1\n      0x20\n      mul\n      0x20\n      add\n      dup3\n      add\n      0x40\n      mstore\n      dup1\n      iszero\n      tag_237\n      jumpi\n      dup2\n      0x20\n      add\n      0x20\n      dup3\n      mul\n      dup1\n      calldatasize\n      dup4\n      calldatacopy\n      dup1\n      dup3\n      add\n      swap2\n      pop\n      pop\n      swap1\n      pop\n    tag_237:\n      pop\n        /* \"ERC1155_Dropsite.sol\":2438:2479  uint256[] memory array = new uint256[](1) */\n      swap1\n      pop\n        /* \"ERC1155_Dropsite.sol\":2500:2507  element */\n      dup3\n        /* \"ERC1155_Dropsite.sol\":2489:2494  array */\n      dup2\n        /* \"ERC1155_Dropsite.sol\":2495:2496  0 */\n      0x00\n        /* \"ERC1155_Dropsite.sol\":2489:2497  array[0] */\n      dup2\n      mload\n      dup2\n      lt\n      tag_238\n      jumpi\n      tag_239\n      tag_186\n      jump\t// in\n    tag_239:\n    tag_238:\n      0x20\n      mul\n      0x20\n      add\n      add\n        /* \"ERC1155_Dropsite.sol\":2489:2507  array[0] = element */\n      dup2\n      dup2\n      mstore\n      pop\n      pop\n        /* \"ERC1155_Dropsite.sol\":2525:2530  array */\n      dup1\n        /* \"ERC1155_Dropsite.sol\":2518:2530  return array */\n      swap2\n      pop\n      pop\n        /* \"ERC1155_Dropsite.sol\":2344:2537  function _asSingletonArray(uint256 element) private pure returns (uint256[] memory) {... */\n      swap2\n      swap1\n      pop\n      jump\t// out\n        /* \"ERC1155_Dropsite.sol\":1393:1607  function _beforeTokenTransfer(... */\n    tag_219:\n      pop\n      pop\n      pop\n      pop\n      pop\n      pop\n      jump\t// out\n        /* \"ERC1155_Dropsite.sol\":1613:2338  function _doSafeTransferAcceptanceCheck(... */\n    tag_225:\n        /* \"ERC1155_Dropsite.sol\":1820:1835  to.isContract() */\n      tag_242\n        /* \"ERC1155_Dropsite.sol\":1820:1822  to */\n      dup5\n        /* \"ERC1155_Dropsite.sol\":1820:1833  to.isContract */\n      0xffffffffffffffffffffffffffffffffffffffff\n      and\n      tag_243\n        /* \"ERC1155_Dropsite.sol\":1820:1835  to.isContract() */\n      jump\t// in\n    tag_242:\n        /* \"ERC1155_Dropsite.sol\":1816:2332  if (to.isContract()) {... */\n      iszero\n      tag_244\n      jumpi\n        /* \"ERC1155_Dropsite.sol\":1872:1874  to */\n      dup4\n        /* \"ERC1155_Dropsite.sol\":1855:1893  IERC1155Receiver(to).onERC1155Received */\n      0xffffffffffffffffffffffffffffffffffffffff\n      and\n      0xf23a6e61\n        /* \"ERC1155_Dropsite.sol\":1894:1902  operator */\n      dup8\n        /* \"ERC1155_Dropsite.sol\":1904:1908  from */\n      dup8\n        /* \"ERC1155_Dropsite.sol\":1910:1912  id */\n      dup7\n        /* \"ERC1155_Dropsite.sol\":1914:1920  amount */\n      dup7\n        /* \"ERC1155_Dropsite.sol\":1922:1926  data */\n      dup7\n        /* \"ERC1155_Dropsite.sol\":1855:1927  IERC1155Receiver(to).onERC1155Received(operator, from, id, amount, data) */\n      mload(0x40)\n      dup7\n      0xffffffff\n      and\n      0xe0\n      shl\n      dup2\n      mstore\n      0x04\n      add\n      tag_245\n      swap6\n      swap5\n      swap4\n      swap3\n      swap2\n      swap1\n      tag_246\n      jump\t// in\n    tag_245:\n      0x20\n      mload(0x40)\n      dup1\n      dup4\n      sub\n      dup2\n      0x00\n      dup8\n      dup1\n      extcodesize\n      iszero\n      dup1\n      iszero\n      tag_247\n      jumpi\n      0x00\n      dup1\n      revert\n    tag_247:\n      pop\n      gas\n      call\n      swap3\n      pop\n      pop\n      pop\n      dup1\n      iszero\n      tag_248\n      jumpi\n      pop\n      mload(0x40)\n      returndatasize\n      not(0x1f)\n      0x1f\n      dup3\n      add\n      and\n      dup3\n      add\n      dup1\n      0x40\n      mstore\n      pop\n      dup2\n      add\n      swap1\n      tag_249\n      swap2\n      swap1\n      tag_250\n      jump\t// in\n    tag_249:\n      0x01\n    tag_248:\n        /* \"ERC1155_Dropsite.sol\":1851:2322  try IERC1155Receiver(to).onERC1155Received(operator, from, id, amount, data) returns (bytes4 response) {... */\n      tag_251\n      jumpi\n      tag_255\n      tag_256\n      jump\t// in\n    tag_255:\n      dup1\n      0x08c379a0\n      eq\n      iszero\n      tag_254\n      jumpi\n      pop\n      tag_257\n      tag_258\n      jump\t// in\n    tag_257:\n      dup1\n      tag_259\n      jumpi\n      pop\n      jump(tag_253)\n    tag_259:\n        /* \"ERC1155_Dropsite.sol\":2198:2204  reason */\n      dup1\n        /* \"ERC1155_Dropsite.sol\":2191:2205  revert(reason) */\n      mload(0x40)\n      0x08c379a000000000000000000000000000000000000000000000000000000000\n      dup2\n      mstore\n      0x04\n      add\n      tag_260\n      swap2\n      swap1\n      tag_261\n      jump\t// in\n    tag_260:\n      mload(0x40)\n      dup1\n      swap2\n      sub\n      swap1\n      revert\n        /* \"ERC1155_Dropsite.sol\":1851:2322  try IERC1155Receiver(to).onERC1155Received(operator, from, id, amount, data) returns (bytes4 response) {... */\n    tag_254:\n      pop\n    tag_253:\n        /* \"ERC1155_Dropsite.sol\":2245:2307  revert(\"ERC1155: transfer to non ERC1155Receiver implementer\") */\n      mload(0x40)\n      0x08c379a000000000000000000000000000000000000000000000000000000000\n      dup2\n      mstore\n      0x04\n      add\n      tag_262\n      swap1\n      tag_263\n      jump\t// in\n    tag_262:\n      mload(0x40)\n      dup1\n      swap2\n      sub\n      swap1\n      revert\n        /* \"ERC1155_Dropsite.sol\":1851:2322  try IERC1155Receiver(to).onERC1155Received(operator, from, id, amount, data) returns (bytes4 response) {... */\n    tag_251:\n        /* \"ERC1155_Dropsite.sol\":1988:2031  IERC1155Receiver.onERC1155Received.selector */\n      shl(0xe0, 0xf23a6e61)\n        /* \"ERC1155_Dropsite.sol\":1976:2031  response != IERC1155Receiver.onERC1155Received.selector */\n      not(0xffffffffffffffffffffffffffffffffffffffffffffffffffffffff)\n      and\n        /* \"ERC1155_Dropsite.sol\":1976:1984  response */\n      dup2\n        /* \"ERC1155_Dropsite.sol\":1976:2031  response != IERC1155Receiver.onERC1155Received.selector */\n      not(0xffffffffffffffffffffffffffffffffffffffffffffffffffffffff)\n      and\n      eq\n        /* \"ERC1155_Dropsite.sol\":1972:2124  if (response != IERC1155Receiver.onERC1155Received.selector) {... */\n      tag_265\n      jumpi\n        /* \"ERC1155_Dropsite.sol\":2055:2105  revert(\"ERC1155: ERC1155Receiver rejected tokens\") */\n      mload(0x40)\n      0x08c379a000000000000000000000000000000000000000000000000000000000\n      dup2\n      mstore\n      0x04\n      add\n      tag_266\n      swap1\n      tag_267\n      jump\t// in\n    tag_266:\n      mload(0x40)\n      dup1\n      swap2\n      sub\n      swap1\n      revert\n        /* \"ERC1155_Dropsite.sol\":1972:2124  if (response != IERC1155Receiver.onERC1155Received.selector) {... */\n    tag_265:\n        /* \"ERC1155_Dropsite.sol\":1928:2138  returns (bytes4 response) {... */\n      pop\n        /* \"ERC1155_Dropsite.sol\":1816:2332  if (to.isContract()) {... */\n    tag_244:\n        /* \"ERC1155_Dropsite.sol\":1613:2338  function _doSafeTransferAcceptanceCheck(... */\n      pop\n      pop\n      pop\n      pop\n      pop\n      pop\n      jump\t// out\n        /* \"Address.sol\":771:1148  function isContract(address account) internal view returns (bool) {... */\n    tag_243:\n        /* \"Address.sol\":831:835  bool */\n      0x00\n        /* \"Address.sol\":1034:1046  uint256 size */\n      dup1\n        /* \"Address.sol\":1099:1106  account */\n      dup3\n        /* \"Address.sol\":1087:1107  extcodesize(account) */\n      extcodesize\n        /* \"Address.sol\":1079:1107  size := extcodesize(account) */\n      swap1\n      pop\n        /* \"Address.sol\":1140:1141  0 */\n      0x00\n        /* \"Address.sol\":1133:1137  size */\n      dup2\n        /* \"Address.sol\":1133:1141  size > 0 */\n      gt\n        /* \"Address.sol\":1126:1141  return size > 0 */\n      swap2\n      pop\n      pop\n        /* \"Address.sol\":771:1148  function isContract(address account) internal view returns (bool) {... */\n      swap2\n      swap1\n      pop\n      jump\t// out\n    tag_191:\n      dup3\n      dup1\n      sload\n      tag_269\n      swap1\n      tag_114\n      jump\t// in\n    tag_269:\n      swap1\n      0x00\n      mstore\n      keccak256(0x00, 0x20)\n      swap1\n      0x1f\n      add\n      0x20\n      swap1\n      div\n      dup2\n      add\n      swap3\n      dup3\n      tag_271\n      jumpi\n      0x00\n      dup6\n      sstore\n      jump(tag_270)\n    tag_271:\n      dup3\n      0x1f\n      lt\n      tag_272\n      jumpi\n      dup1\n      mload\n      not(0xff)\n      and\n      dup4\n      dup1\n      add\n      or\n      dup6\n      sstore\n      jump(tag_270)\n    tag_272:\n      dup3\n      dup1\n      add\n      0x01\n      add\n      dup6\n      sstore\n      dup3\n      iszero\n      tag_270\n      jumpi\n      swap2\n      dup3\n      add\n    tag_273:\n      dup3\n      dup2\n      gt\n      iszero\n      tag_274\n      jumpi\n      dup3\n      mload\n      dup3\n      sstore\n      swap2\n      0x20\n      add\n      swap2\n      swap1\n      0x01\n      add\n      swap1\n      jump(tag_273)\n    tag_274:\n    tag_270:\n      pop\n      swap1\n      pop\n      tag_275\n      swap2\n      swap1\n      tag_276\n      jump\t// in\n    tag_275:\n      pop\n      swap1\n      jump\t// out\n    tag_276:\n    tag_277:\n      dup1\n      dup3\n      gt\n      iszero\n      tag_278\n      jumpi\n      0x00\n      dup2\n      0x00\n      swap1\n      sstore\n      pop\n      0x01\n      add\n      jump(tag_277)\n    tag_278:\n      pop\n      swap1\n      jump\t// out\n        /* \"#utility.yul\":7:146   */\n    tag_280:\n        /* \"#utility.yul\":53:58   */\n      0x00\n        /* \"#utility.yul\":91:97   */\n      dup2\n        /* \"#utility.yul\":78:98   */\n      calldataload\n        /* \"#utility.yul\":69:98   */\n      swap1\n      pop\n        /* \"#utility.yul\":107:140   */\n      tag_282\n        /* \"#utility.yul\":134:139   */\n      dup2\n        /* \"#utility.yul\":107:140   */\n      tag_283\n      jump\t// in\n    tag_282:\n        /* \"#utility.yul\":7:146   */\n      swap3\n      swap2\n      pop\n      pop\n      jump\t// out\n        /* \"#utility.yul\":152:307   */\n    tag_284:\n        /* \"#utility.yul\":206:211   */\n      0x00\n        /* \"#utility.yul\":244:250   */\n      dup2\n        /* \"#utility.yul\":231:251   */\n      calldataload\n        /* \"#utility.yul\":222:251   */\n      swap1\n      pop\n        /* \"#utility.yul\":260:301   */\n      tag_286\n        /* \"#utility.yul\":295:300   */\n      dup2\n        /* \"#utility.yul\":260:301   */\n      tag_287\n      jump\t// in\n    tag_286:\n        /* \"#utility.yul\":152:307   */\n      swap3\n      swap2\n      pop\n      pop\n      jump\t// out\n        /* \"#utility.yul\":313:454   */\n    tag_288:\n        /* \"#utility.yul\":369:374   */\n      0x00\n        /* \"#utility.yul\":400:406   */\n      dup2\n        /* \"#utility.yul\":394:407   */\n      mload\n        /* \"#utility.yul\":385:407   */\n      swap1\n      pop\n        /* \"#utility.yul\":416:448   */\n      tag_290\n        /* \"#utility.yul\":442:447   */\n      dup2\n        /* \"#utility.yul\":416:448   */\n      tag_291\n      jump\t// in\n    tag_290:\n        /* \"#utility.yul\":313:454   */\n      swap3\n      swap2\n      pop\n      pop\n      jump\t// out\n        /* \"#utility.yul\":460:599   */\n    tag_292:\n        /* \"#utility.yul\":506:511   */\n      0x00\n        /* \"#utility.yul\":544:550   */\n      dup2\n        /* \"#utility.yul\":531:551   */\n      calldataload\n        /* \"#utility.yul\":522:551   */\n      swap1\n      pop\n        /* \"#utility.yul\":560:593   */\n      tag_294\n        /* \"#utility.yul\":587:592   */\n      dup2\n        /* \"#utility.yul\":560:593   */\n      tag_295\n      jump\t// in\n    tag_294:\n        /* \"#utility.yul\":460:599   */\n      swap3\n      swap2\n      pop\n      pop\n      jump\t// out\n        /* \"#utility.yul\":605:934   */\n    tag_35:\n        /* \"#utility.yul\":664:670   */\n      0x00\n        /* \"#utility.yul\":713:715   */\n      0x20\n        /* \"#utility.yul\":701:710   */\n      dup3\n        /* \"#utility.yul\":692:699   */\n      dup5\n        /* \"#utility.yul\":688:711   */\n      sub\n        /* \"#utility.yul\":684:716   */\n      slt\n        /* \"#utility.yul\":681:800   */\n      iszero\n      tag_297\n      jumpi\n        /* \"#utility.yul\":719:798   */\n      tag_298\n      tag_299\n      jump\t// in\n    tag_298:\n        /* \"#utility.yul\":681:800   */\n    tag_297:\n        /* \"#utility.yul\":839:840   */\n      0x00\n        /* \"#utility.yul\":864:917   */\n      tag_300\n        /* \"#utility.yul\":909:916   */\n      dup5\n        /* \"#utility.yul\":900:906   */\n      dup3\n        /* \"#utility.yul\":889:898   */\n      dup6\n        /* \"#utility.yul\":885:907   */\n      add\n        /* \"#utility.yul\":864:917   */\n      tag_280\n      jump\t// in\n    tag_300:\n        /* \"#utility.yul\":854:917   */\n      swap2\n      pop\n        /* \"#utility.yul\":810:927   */\n      pop\n        /* \"#utility.yul\":605:934   */\n      swap3\n      swap2\n      pop\n      pop\n      jump\t// out\n        /* \"#utility.yul\":940:1285   */\n    tag_22:\n        /* \"#utility.yul\":1007:1013   */\n      0x00\n        /* \"#utility.yul\":1056:1058   */\n      0x20\n        /* \"#utility.yul\":1044:1053   */\n      dup3\n        /* \"#utility.yul\":1035:1042   */\n      dup5\n        /* \"#utility.yul\":1031:1054   */\n      sub\n        /* \"#utility.yul\":1027:1059   */\n      slt\n        /* \"#utility.yul\":1024:1143   */\n      iszero\n      tag_302\n      jumpi\n        /* \"#utility.yul\":1062:1141   */\n      tag_303\n      tag_299\n      jump\t// in\n    tag_303:\n        /* \"#utility.yul\":1024:1143   */\n    tag_302:\n        /* \"#utility.yul\":1182:1183   */\n      0x00\n        /* \"#utility.yul\":1207:1268   */\n      tag_304\n        /* \"#utility.yul\":1260:1267   */\n      dup5\n        /* \"#utility.yul\":1251:1257   */\n      dup3\n        /* \"#utility.yul\":1240:1249   */\n      dup6\n        /* \"#utility.yul\":1236:1258   */\n      add\n        /* \"#utility.yul\":1207:1268   */\n      tag_284\n      jump\t// in\n    tag_304:\n        /* \"#utility.yul\":1197:1268   */\n      swap2\n      pop\n        /* \"#utility.yul\":1153:1278   */\n      pop\n        /* \"#utility.yul\":940:1285   */\n      swap3\n      swap2\n      pop\n      pop\n      jump\t// out\n        /* \"#utility.yul\":1291:1640   */\n    tag_250:\n        /* \"#utility.yul\":1360:1366   */\n      0x00\n        /* \"#utility.yul\":1409:1411   */\n      0x20\n        /* \"#utility.yul\":1397:1406   */\n      dup3\n        /* \"#utility.yul\":1388:1395   */\n      dup5\n        /* \"#utility.yul\":1384:1407   */\n      sub\n        /* \"#utility.yul\":1380:1412   */\n      slt\n        /* \"#utility.yul\":1377:1496   */\n      iszero\n      tag_306\n      jumpi\n        /* \"#utility.yul\":1415:1494   */\n      tag_307\n      tag_299\n      jump\t// in\n    tag_307:\n        /* \"#utility.yul\":1377:1496   */\n    tag_306:\n        /* \"#utility.yul\":1535:1536   */\n      0x00\n        /* \"#utility.yul\":1560:1623   */\n      tag_308\n        /* \"#utility.yul\":1615:1622   */\n      dup5\n        /* \"#utility.yul\":1606:1612   */\n      dup3\n        /* \"#utility.yul\":1595:1604   */\n      dup6\n        /* \"#utility.yul\":1591:1613   */\n      add\n        /* \"#utility.yul\":1560:1623   */\n      tag_288\n      jump\t// in\n    tag_308:\n        /* \"#utility.yul\":1550:1623   */\n      swap2\n      pop\n        /* \"#utility.yul\":1506:1633   */\n      pop\n        /* \"#utility.yul\":1291:1640   */\n      swap3\n      swap2\n      pop\n      pop\n      jump\t// out\n        /* \"#utility.yul\":1646:1975   */\n    tag_63:\n        /* \"#utility.yul\":1705:1711   */\n      0x00\n        /* \"#utility.yul\":1754:1756   */\n      0x20\n        /* \"#utility.yul\":1742:1751   */\n      dup3\n        /* \"#utility.yul\":1733:1740   */\n      dup5\n        /* \"#utility.yul\":1729:1752   */\n      sub\n        /* \"#utility.yul\":1725:1757   */\n      slt\n        /* \"#utility.yul\":1722:1841   */\n      iszero\n      tag_310\n      jumpi\n        /* \"#utility.yul\":1760:1839   */\n      tag_311\n      tag_299\n      jump\t// in\n    tag_311:\n        /* \"#utility.yul\":1722:1841   */\n    tag_310:\n        /* \"#utility.yul\":1880:1881   */\n      0x00\n        /* \"#utility.yul\":1905:1958   */\n      tag_312\n        /* \"#utility.yul\":1950:1957   */\n      dup5\n        /* \"#utility.yul\":1941:1947   */\n      dup3\n        /* \"#utility.yul\":1930:1939   */\n      dup6\n        /* \"#utility.yul\":1926:1948   */\n      add\n        /* \"#utility.yul\":1905:1958   */\n      tag_292\n      jump\t// in\n    tag_312:\n        /* \"#utility.yul\":1895:1958   */\n      swap2\n      pop\n        /* \"#utility.yul\":1851:1968   */\n      pop\n        /* \"#utility.yul\":1646:1975   */\n      swap3\n      swap2\n      pop\n      pop\n      jump\t// out\n        /* \"#utility.yul\":1981:2160   */\n    tag_313:\n        /* \"#utility.yul\":2050:2060   */\n      0x00\n        /* \"#utility.yul\":2071:2117   */\n      tag_315\n        /* \"#utility.yul\":2113:2116   */\n      dup4\n        /* \"#utility.yul\":2105:2111   */\n      dup4\n        /* \"#utility.yul\":2071:2117   */\n      tag_316\n      jump\t// in\n    tag_315:\n        /* \"#utility.yul\":2149:2153   */\n      0x20\n        /* \"#utility.yul\":2144:2147   */\n      dup4\n        /* \"#utility.yul\":2140:2154   */\n      add\n        /* \"#utility.yul\":2126:2154   */\n      swap1\n      pop\n        /* \"#utility.yul\":1981:2160   */\n      swap3\n      swap2\n      pop\n      pop\n      jump\t// out\n        /* \"#utility.yul\":2166:2308   */\n    tag_317:\n        /* \"#utility.yul\":2269:2301   */\n      tag_319\n        /* \"#utility.yul\":2295:2300   */\n      dup2\n        /* \"#utility.yul\":2269:2301   */\n      tag_320\n      jump\t// in\n    tag_319:\n        /* \"#utility.yul\":2264:2267   */\n      dup3\n        /* \"#utility.yul\":2257:2302   */\n      mstore\n        /* \"#utility.yul\":2166:2308   */\n      pop\n      pop\n      jump\t// out\n        /* \"#utility.yul\":2314:2432   */\n    tag_321:\n        /* \"#utility.yul\":2401:2425   */\n      tag_323\n        /* \"#utility.yul\":2419:2424   */\n      dup2\n        /* \"#utility.yul\":2401:2425   */\n      tag_324\n      jump\t// in\n    tag_323:\n        /* \"#utility.yul\":2396:2399   */\n      dup3\n        /* \"#utility.yul\":2389:2426   */\n      mstore\n        /* \"#utility.yul\":2314:2432   */\n      pop\n      pop\n      jump\t// out\n        /* \"#utility.yul\":2438:2595   */\n    tag_325:\n        /* \"#utility.yul\":2543:2588   */\n      tag_327\n        /* \"#utility.yul\":2563:2587   */\n      tag_328\n        /* \"#utility.yul\":2581:2586   */\n      dup3\n        /* \"#utility.yul\":2563:2587   */\n      tag_324\n      jump\t// in\n    tag_328:\n        /* \"#utility.yul\":2543:2588   */\n      tag_329\n      jump\t// in\n    tag_327:\n        /* \"#utility.yul\":2538:2541   */\n      dup3\n        /* \"#utility.yul\":2531:2589   */\n      mstore\n        /* \"#utility.yul\":2438:2595   */\n      pop\n      pop\n      jump\t// out\n        /* \"#utility.yul\":2631:3363   */\n    tag_330:\n        /* \"#utility.yul\":2750:2753   */\n      0x00\n        /* \"#utility.yul\":2779:2833   */\n      tag_332\n        /* \"#utility.yul\":2827:2832   */\n      dup3\n        /* \"#utility.yul\":2779:2833   */\n      tag_333\n      jump\t// in\n    tag_332:\n        /* \"#utility.yul\":2849:2935   */\n      tag_334\n        /* \"#utility.yul\":2928:2934   */\n      dup2\n        /* \"#utility.yul\":2923:2926   */\n      dup6\n        /* \"#utility.yul\":2849:2935   */\n      tag_335\n      jump\t// in\n    tag_334:\n        /* \"#utility.yul\":2842:2935   */\n      swap4\n      pop\n        /* \"#utility.yul\":2959:3015   */\n      tag_336\n        /* \"#utility.yul\":3009:3014   */\n      dup4\n        /* \"#utility.yul\":2959:3015   */\n      tag_337\n      jump\t// in\n    tag_336:\n        /* \"#utility.yul\":3038:3045   */\n      dup1\n        /* \"#utility.yul\":3069:3070   */\n      0x00\n        /* \"#utility.yul\":3054:3338   */\n    tag_338:\n        /* \"#utility.yul\":3079:3085   */\n      dup4\n        /* \"#utility.yul\":3076:3077   */\n      dup2\n        /* \"#utility.yul\":3073:3086   */\n      lt\n        /* \"#utility.yul\":3054:3338   */\n      iszero\n      tag_340\n      jumpi\n        /* \"#utility.yul\":3155:3161   */\n      dup2\n        /* \"#utility.yul\":3149:3162   */\n      mload\n        /* \"#utility.yul\":3182:3245   */\n      tag_341\n        /* \"#utility.yul\":3241:3244   */\n      dup9\n        /* \"#utility.yul\":3226:3239   */\n      dup3\n        /* \"#utility.yul\":3182:3245   */\n      tag_313\n      jump\t// in\n    tag_341:\n        /* \"#utility.yul\":3175:3245   */\n      swap8\n      pop\n        /* \"#utility.yul\":3268:3328   */\n      tag_342\n        /* \"#utility.yul\":3321:3327   */\n      dup4\n        /* \"#utility.yul\":3268:3328   */\n      tag_343\n      jump\t// in\n    tag_342:\n        /* \"#utility.yul\":3258:3328   */\n      swap3\n      pop\n        /* \"#utility.yul\":3114:3338   */\n      pop\n        /* \"#utility.yul\":3101:3102   */\n      0x01\n        /* \"#utility.yul\":3098:3099   */\n      dup2\n        /* \"#utility.yul\":3094:3103   */\n      add\n        /* \"#utility.yul\":3089:3103   */\n      swap1\n      pop\n        /* \"#utility.yul\":3054:3338   */\n      jump(tag_338)\n    tag_340:\n        /* \"#utility.yul\":3058:3072   */\n      pop\n        /* \"#utility.yul\":3354:3357   */\n      dup6\n        /* \"#utility.yul\":3347:3357   */\n      swap4\n      pop\n        /* \"#utility.yul\":2755:3363   */\n      pop\n      pop\n      pop\n        /* \"#utility.yul\":2631:3363   */\n      swap3\n      swap2\n      pop\n      pop\n      jump\t// out\n        /* \"#utility.yul\":3369:3478   */\n    tag_344:\n        /* \"#utility.yul\":3450:3471   */\n      tag_346\n        /* \"#utility.yul\":3465:3470   */\n      dup2\n        /* \"#utility.yul\":3450:3471   */\n      tag_347\n      jump\t// in\n    tag_346:\n        /* \"#utility.yul\":3445:3448   */\n      dup3\n        /* \"#utility.yul\":3438:3472   */\n      mstore\n        /* \"#utility.yul\":3369:3478   */\n      pop\n      pop\n      jump\t// out\n        /* \"#utility.yul\":3484:3844   */\n    tag_348:\n        /* \"#utility.yul\":3570:3573   */\n      0x00\n        /* \"#utility.yul\":3598:3636   */\n      tag_350\n        /* \"#utility.yul\":3630:3635   */\n      dup3\n        /* \"#utility.yul\":3598:3636   */\n      tag_351\n      jump\t// in\n    tag_350:\n        /* \"#utility.yul\":3652:3722   */\n      tag_352\n        /* \"#utility.yul\":3715:3721   */\n      dup2\n        /* \"#utility.yul\":3710:3713   */\n      dup6\n        /* \"#utility.yul\":3652:3722   */\n      tag_353\n      jump\t// in\n    tag_352:\n        /* \"#utility.yul\":3645:3722   */\n      swap4\n      pop\n        /* \"#utility.yul\":3731:3783   */\n      tag_354\n        /* \"#utility.yul\":3776:3782   */\n      dup2\n        /* \"#utility.yul\":3771:3774   */\n      dup6\n        /* \"#utility.yul\":3764:3768   */\n      0x20\n        /* \"#utility.yul\":3757:3762   */\n      dup7\n        /* \"#utility.yul\":3753:3769   */\n      add\n        /* \"#utility.yul\":3731:3783   */\n      tag_355\n      jump\t// in\n    tag_354:\n        /* \"#utility.yul\":3808:3837   */\n      tag_356\n        /* \"#utility.yul\":3830:3836   */\n      dup2\n        /* \"#utility.yul\":3808:3837   */\n      tag_357\n      jump\t// in\n    tag_356:\n        /* \"#utility.yul\":3803:3806   */\n      dup5\n        /* \"#utility.yul\":3799:3838   */\n      add\n        /* \"#utility.yul\":3792:3838   */\n      swap2\n      pop\n        /* \"#utility.yul\":3574:3844   */\n      pop\n        /* \"#utility.yul\":3484:3844   */\n      swap3\n      swap2\n      pop\n      pop\n      jump\t// out\n        /* \"#utility.yul\":3850:4214   */\n    tag_358:\n        /* \"#utility.yul\":3938:3941   */\n      0x00\n        /* \"#utility.yul\":3966:4005   */\n      tag_360\n        /* \"#utility.yul\":3999:4004   */\n      dup3\n        /* \"#utility.yul\":3966:4005   */\n      tag_361\n      jump\t// in\n    tag_360:\n        /* \"#utility.yul\":4021:4092   */\n      tag_362\n        /* \"#utility.yul\":4085:4091   */\n      dup2\n        /* \"#utility.yul\":4080:4083   */\n      dup6\n        /* \"#utility.yul\":4021:4092   */\n      tag_363\n      jump\t// in\n    tag_362:\n        /* \"#utility.yul\":4014:4092   */\n      swap4\n      pop\n        /* \"#utility.yul\":4101:4153   */\n      tag_364\n        /* \"#utility.yul\":4146:4152   */\n      dup2\n        /* \"#utility.yul\":4141:4144   */\n      dup6\n        /* \"#utility.yul\":4134:4138   */\n      0x20\n        /* \"#utility.yul\":4127:4132   */\n      dup7\n        /* \"#utility.yul\":4123:4139   */\n      add\n        /* \"#utility.yul\":4101:4153   */\n      tag_355\n      jump\t// in\n    tag_364:\n        /* \"#utility.yul\":4178:4207   */\n      tag_365\n        /* \"#utility.yul\":4200:4206   */\n      dup2\n        /* \"#utility.yul\":4178:4207   */\n      tag_357\n      jump\t// in\n    tag_365:\n        /* \"#utility.yul\":4173:4176   */\n      dup5\n        /* \"#utility.yul\":4169:4208   */\n      add\n        /* \"#utility.yul\":4162:4208   */\n      swap2\n      pop\n        /* \"#utility.yul\":3942:4214   */\n      pop\n        /* \"#utility.yul\":3850:4214   */\n      swap3\n      swap2\n      pop\n      pop\n      jump\t// out\n        /* \"#utility.yul\":4220:4586   */\n    tag_366:\n        /* \"#utility.yul\":4362:4365   */\n      0x00\n        /* \"#utility.yul\":4383:4450   */\n      tag_368\n        /* \"#utility.yul\":4447:4449   */\n      0x34\n        /* \"#utility.yul\":4442:4445   */\n      dup4\n        /* \"#utility.yul\":4383:4450   */\n      tag_363\n      jump\t// in\n    tag_368:\n        /* \"#utility.yul\":4376:4450   */\n      swap2\n      pop\n        /* \"#utility.yul\":4459:4552   */\n      tag_369\n        /* \"#utility.yul\":4548:4551   */\n      dup3\n        /* \"#utility.yul\":4459:4552   */\n      tag_370\n      jump\t// in\n    tag_369:\n        /* \"#utility.yul\":4577:4579   */\n      0x40\n        /* \"#utility.yul\":4572:4575   */\n      dup3\n        /* \"#utility.yul\":4568:4580   */\n      add\n        /* \"#utility.yul\":4561:4580   */\n      swap1\n      pop\n        /* \"#utility.yul\":4220:4586   */\n      swap2\n      swap1\n      pop\n      jump\t// out\n        /* \"#utility.yul\":4592:4958   */\n    tag_371:\n        /* \"#utility.yul\":4734:4737   */\n      0x00\n        /* \"#utility.yul\":4755:4822   */\n      tag_373\n        /* \"#utility.yul\":4819:4821   */\n      0x28\n        /* \"#utility.yul\":4814:4817   */\n      dup4\n        /* \"#utility.yul\":4755:4822   */\n      tag_363\n      jump\t// in\n    tag_373:\n        /* \"#utility.yul\":4748:4822   */\n      swap2\n      pop\n        /* \"#utility.yul\":4831:4924   */\n      tag_374\n        /* \"#utility.yul\":4920:4923   */\n      dup3\n        /* \"#utility.yul\":4831:4924   */\n      tag_375\n      jump\t// in\n    tag_374:\n        /* \"#utility.yul\":4949:4951   */\n      0x40\n        /* \"#utility.yul\":4944:4947   */\n      dup3\n        /* \"#utility.yul\":4940:4952   */\n      add\n        /* \"#utility.yul\":4933:4952   */\n      swap1\n      pop\n        /* \"#utility.yul\":4592:4958   */\n      swap2\n      swap1\n      pop\n      jump\t// out\n        /* \"#utility.yul\":4964:5330   */\n    tag_376:\n        /* \"#utility.yul\":5106:5109   */\n      0x00\n        /* \"#utility.yul\":5127:5194   */\n      tag_378\n        /* \"#utility.yul\":5191:5193   */\n      0x19\n        /* \"#utility.yul\":5186:5189   */\n      dup4\n        /* \"#utility.yul\":5127:5194   */\n      tag_363\n      jump\t// in\n    tag_378:\n        /* \"#utility.yul\":5120:5194   */\n      swap2\n      pop\n        /* \"#utility.yul\":5203:5296   */\n      tag_379\n        /* \"#utility.yul\":5292:5295   */\n      dup3\n        /* \"#utility.yul\":5203:5296   */\n      tag_380\n      jump\t// in\n    tag_379:\n        /* \"#utility.yul\":5321:5323   */\n      0x20\n        /* \"#utility.yul\":5316:5319   */\n      dup3\n        /* \"#utility.yul\":5312:5324   */\n      add\n        /* \"#utility.yul\":5305:5324   */\n      swap1\n      pop\n        /* \"#utility.yul\":4964:5330   */\n      swap2\n      swap1\n      pop\n      jump\t// out\n        /* \"#utility.yul\":5336:5702   */\n    tag_381:\n        /* \"#utility.yul\":5478:5481   */\n      0x00\n        /* \"#utility.yul\":5499:5566   */\n      tag_383\n        /* \"#utility.yul\":5563:5565   */\n      0x1b\n        /* \"#utility.yul\":5558:5561   */\n      dup4\n        /* \"#utility.yul\":5499:5566   */\n      tag_363\n      jump\t// in\n    tag_383:\n        /* \"#utility.yul\":5492:5566   */\n      swap2\n      pop\n        /* \"#utility.yul\":5575:5668   */\n      tag_384\n        /* \"#utility.yul\":5664:5667   */\n      dup3\n        /* \"#utility.yul\":5575:5668   */\n      tag_385\n      jump\t// in\n    tag_384:\n        /* \"#utility.yul\":5693:5695   */\n      0x20\n        /* \"#utility.yul\":5688:5691   */\n      dup3\n        /* \"#utility.yul\":5684:5696   */\n      add\n        /* \"#utility.yul\":5677:5696   */\n      swap1\n      pop\n        /* \"#utility.yul\":5336:5702   */\n      swap2\n      swap1\n      pop\n      jump\t// out\n        /* \"#utility.yul\":5708:6074   */\n    tag_386:\n        /* \"#utility.yul\":5850:5853   */\n      0x00\n        /* \"#utility.yul\":5871:5938   */\n      tag_388\n        /* \"#utility.yul\":5935:5937   */\n      0x1b\n        /* \"#utility.yul\":5930:5933   */\n      dup4\n        /* \"#utility.yul\":5871:5938   */\n      tag_363\n      jump\t// in\n    tag_388:\n        /* \"#utility.yul\":5864:5938   */\n      swap2\n      pop\n        /* \"#utility.yul\":5947:6040   */\n      tag_389\n        /* \"#utility.yul\":6036:6039   */\n      dup3\n        /* \"#utility.yul\":5947:6040   */\n      tag_390\n      jump\t// in\n    tag_389:\n        /* \"#utility.yul\":6065:6067   */\n      0x20\n        /* \"#utility.yul\":6060:6063   */\n      dup3\n        /* \"#utility.yul\":6056:6068   */\n      add\n        /* \"#utility.yul\":6049:6068   */\n      swap1\n      pop\n        /* \"#utility.yul\":5708:6074   */\n      swap2\n      swap1\n      pop\n      jump\t// out\n        /* \"#utility.yul\":6080:6446   */\n    tag_391:\n        /* \"#utility.yul\":6222:6225   */\n      0x00\n        /* \"#utility.yul\":6243:6310   */\n      tag_393\n        /* \"#utility.yul\":6307:6309   */\n      0x1c\n        /* \"#utility.yul\":6302:6305   */\n      dup4\n        /* \"#utility.yul\":6243:6310   */\n      tag_363\n      jump\t// in\n    tag_393:\n        /* \"#utility.yul\":6236:6310   */\n      swap2\n      pop\n        /* \"#utility.yul\":6319:6412   */\n      tag_394\n        /* \"#utility.yul\":6408:6411   */\n      dup3\n        /* \"#utility.yul\":6319:6412   */\n      tag_395\n      jump\t// in\n    tag_394:\n        /* \"#utility.yul\":6437:6439   */\n      0x20\n        /* \"#utility.yul\":6432:6435   */\n      dup3\n        /* \"#utility.yul\":6428:6440   */\n      add\n        /* \"#utility.yul\":6421:6440   */\n      swap1\n      pop\n        /* \"#utility.yul\":6080:6446   */\n      swap2\n      swap1\n      pop\n      jump\t// out\n        /* \"#utility.yul\":6452:6818   */\n    tag_396:\n        /* \"#utility.yul\":6594:6597   */\n      0x00\n        /* \"#utility.yul\":6615:6682   */\n      tag_398\n        /* \"#utility.yul\":6679:6681   */\n      0x1b\n        /* \"#utility.yul\":6674:6677   */\n      dup4\n        /* \"#utility.yul\":6615:6682   */\n      tag_363\n      jump\t// in\n    tag_398:\n        /* \"#utility.yul\":6608:6682   */\n      swap2\n      pop\n        /* \"#utility.yul\":6691:6784   */\n      tag_399\n        /* \"#utility.yul\":6780:6783   */\n      dup3\n        /* \"#utility.yul\":6691:6784   */\n      tag_400\n      jump\t// in\n    tag_399:\n        /* \"#utility.yul\":6809:6811   */\n      0x20\n        /* \"#utility.yul\":6804:6807   */\n      dup3\n        /* \"#utility.yul\":6800:6812   */\n      add\n        /* \"#utility.yul\":6793:6812   */\n      swap1\n      pop\n        /* \"#utility.yul\":6452:6818   */\n      swap2\n      swap1\n      pop\n      jump\t// out\n        /* \"#utility.yul\":6824:7190   */\n    tag_401:\n        /* \"#utility.yul\":6966:6969   */\n      0x00\n        /* \"#utility.yul\":6987:7054   */\n      tag_403\n        /* \"#utility.yul\":7051:7053   */\n      0x19\n        /* \"#utility.yul\":7046:7049   */\n      dup4\n        /* \"#utility.yul\":6987:7054   */\n      tag_363\n      jump\t// in\n    tag_403:\n        /* \"#utility.yul\":6980:7054   */\n      swap2\n      pop\n        /* \"#utility.yul\":7063:7156   */\n      tag_404\n        /* \"#utility.yul\":7152:7155   */\n      dup3\n        /* \"#utility.yul\":7063:7156   */\n      tag_405\n      jump\t// in\n    tag_404:\n        /* \"#utility.yul\":7181:7183   */\n      0x20\n        /* \"#utility.yul\":7176:7179   */\n      dup3\n        /* \"#utility.yul\":7172:7184   */\n      add\n        /* \"#utility.yul\":7165:7184   */\n      swap1\n      pop\n        /* \"#utility.yul\":6824:7190   */\n      swap2\n      swap1\n      pop\n      jump\t// out\n        /* \"#utility.yul\":7196:7562   */\n    tag_406:\n        /* \"#utility.yul\":7338:7341   */\n      0x00\n        /* \"#utility.yul\":7359:7426   */\n      tag_408\n        /* \"#utility.yul\":7423:7425   */\n      0x1d\n        /* \"#utility.yul\":7418:7421   */\n      dup4\n        /* \"#utility.yul\":7359:7426   */\n      tag_363\n      jump\t// in\n    tag_408:\n        /* \"#utility.yul\":7352:7426   */\n      swap2\n      pop\n        /* \"#utility.yul\":7435:7528   */\n      tag_409\n        /* \"#utility.yul\":7524:7527   */\n      dup3\n        /* \"#utility.yul\":7435:7528   */\n      tag_410\n      jump\t// in\n    tag_409:\n        /* \"#utility.yul\":7553:7555   */\n      0x20\n        /* \"#utility.yul\":7548:7551   */\n      dup3\n        /* \"#utility.yul\":7544:7556   */\n      add\n        /* \"#utility.yul\":7537:7556   */\n      swap1\n      pop\n        /* \"#utility.yul\":7196:7562   */\n      swap2\n      swap1\n      pop\n      jump\t// out\n        /* \"#utility.yul\":7568:7934   */\n    tag_411:\n        /* \"#utility.yul\":7710:7713   */\n      0x00\n        /* \"#utility.yul\":7731:7798   */\n      tag_413\n        /* \"#utility.yul\":7795:7797   */\n      0x21\n        /* \"#utility.yul\":7790:7793   */\n      dup4\n        /* \"#utility.yul\":7731:7798   */\n      tag_363\n      jump\t// in\n    tag_413:\n        /* \"#utility.yul\":7724:7798   */\n      swap2\n      pop\n        /* \"#utility.yul\":7807:7900   */\n      tag_414\n        /* \"#utility.yul\":7896:7899   */\n      dup3\n        /* \"#utility.yul\":7807:7900   */\n      tag_415\n      jump\t// in\n    tag_414:\n        /* \"#utility.yul\":7925:7927   */\n      0x40\n        /* \"#utility.yul\":7920:7923   */\n      dup3\n        /* \"#utility.yul\":7916:7928   */\n      add\n        /* \"#utility.yul\":7909:7928   */\n      swap1\n      pop\n        /* \"#utility.yul\":7568:7934   */\n      swap2\n      swap1\n      pop\n      jump\t// out\n        /* \"#utility.yul\":7940:8048   */\n    tag_316:\n        /* \"#utility.yul\":8017:8041   */\n      tag_417\n        /* \"#utility.yul\":8035:8040   */\n      dup2\n        /* \"#utility.yul\":8017:8041   */\n      tag_418\n      jump\t// in\n    tag_417:\n        /* \"#utility.yul\":8012:8015   */\n      dup3\n        /* \"#utility.yul\":8005:8042   */\n      mstore\n        /* \"#utility.yul\":7940:8048   */\n      pop\n      pop\n      jump\t// out\n        /* \"#utility.yul\":8054:8172   */\n    tag_419:\n        /* \"#utility.yul\":8141:8165   */\n      tag_421\n        /* \"#utility.yul\":8159:8164   */\n      dup2\n        /* \"#utility.yul\":8141:8165   */\n      tag_418\n      jump\t// in\n    tag_421:\n        /* \"#utility.yul\":8136:8139   */\n      dup3\n        /* \"#utility.yul\":8129:8166   */\n      mstore\n        /* \"#utility.yul\":8054:8172   */\n      pop\n      pop\n      jump\t// out\n        /* \"#utility.yul\":8178:8335   */\n    tag_422:\n        /* \"#utility.yul\":8283:8328   */\n      tag_424\n        /* \"#utility.yul\":8303:8327   */\n      tag_425\n        /* \"#utility.yul\":8321:8326   */\n      dup3\n        /* \"#utility.yul\":8303:8327   */\n      tag_418\n      jump\t// in\n    tag_425:\n        /* \"#utility.yul\":8283:8328   */\n      tag_426\n      jump\t// in\n    tag_424:\n        /* \"#utility.yul\":8278:8281   */\n      dup3\n        /* \"#utility.yul\":8271:8329   */\n      mstore\n        /* \"#utility.yul\":8178:8335   */\n      pop\n      pop\n      jump\t// out\n        /* \"#utility.yul\":8341:8453   */\n    tag_427:\n        /* \"#utility.yul\":8424:8446   */\n      tag_429\n        /* \"#utility.yul\":8440:8445   */\n      dup2\n        /* \"#utility.yul\":8424:8446   */\n      tag_430\n      jump\t// in\n    tag_429:\n        /* \"#utility.yul\":8419:8422   */\n      dup3\n        /* \"#utility.yul\":8412:8447   */\n      mstore\n        /* \"#utility.yul\":8341:8453   */\n      pop\n      pop\n      jump\t// out\n        /* \"#utility.yul\":8459:8856   */\n    tag_230:\n        /* \"#utility.yul\":8599:8602   */\n      0x00\n        /* \"#utility.yul\":8614:8689   */\n      tag_432\n        /* \"#utility.yul\":8685:8688   */\n      dup3\n        /* \"#utility.yul\":8676:8682   */\n      dup6\n        /* \"#utility.yul\":8614:8689   */\n      tag_422\n      jump\t// in\n    tag_432:\n        /* \"#utility.yul\":8714:8716   */\n      0x20\n        /* \"#utility.yul\":8709:8712   */\n      dup3\n        /* \"#utility.yul\":8705:8717   */\n      add\n        /* \"#utility.yul\":8698:8717   */\n      swap2\n      pop\n        /* \"#utility.yul\":8727:8802   */\n      tag_433\n        /* \"#utility.yul\":8798:8801   */\n      dup3\n        /* \"#utility.yul\":8789:8795   */\n      dup5\n        /* \"#utility.yul\":8727:8802   */\n      tag_325\n      jump\t// in\n    tag_433:\n        /* \"#utility.yul\":8827:8829   */\n      0x14\n        /* \"#utility.yul\":8822:8825   */\n      dup3\n        /* \"#utility.yul\":8818:8830   */\n      add\n        /* \"#utility.yul\":8811:8830   */\n      swap2\n      pop\n        /* \"#utility.yul\":8847:8850   */\n      dup2\n        /* \"#utility.yul\":8840:8850   */\n      swap1\n      pop\n        /* \"#utility.yul\":8459:8856   */\n      swap4\n      swap3\n      pop\n      pop\n      pop\n      jump\t// out\n        /* \"#utility.yul\":8862:9116   */\n    tag_59:\n        /* \"#utility.yul\":8971:8975   */\n      0x00\n        /* \"#utility.yul\":9009:9011   */\n      0x20\n        /* \"#utility.yul\":8998:9007   */\n      dup3\n        /* \"#utility.yul\":8994:9012   */\n      add\n        /* \"#utility.yul\":8986:9012   */\n      swap1\n      pop\n        /* \"#utility.yul\":9022:9109   */\n      tag_435\n        /* \"#utility.yul\":9106:9107   */\n      0x00\n        /* \"#utility.yul\":9095:9104   */\n      dup4\n        /* \"#utility.yul\":9091:9108   */\n      add\n        /* \"#utility.yul\":9082:9088   */\n      dup5\n        /* \"#utility.yul\":9022:9109   */\n      tag_317\n      jump\t// in\n    tag_435:\n        /* \"#utility.yul\":8862:9116   */\n      swap3\n      swap2\n      pop\n      pop\n      jump\t// out\n        /* \"#utility.yul\":9122:9873   */\n    tag_246:\n        /* \"#utility.yul\":9345:9349   */\n      0x00\n        /* \"#utility.yul\":9383:9386   */\n      0xa0\n        /* \"#utility.yul\":9372:9381   */\n      dup3\n        /* \"#utility.yul\":9368:9387   */\n      add\n        /* \"#utility.yul\":9360:9387   */\n      swap1\n      pop\n        /* \"#utility.yul\":9397:9468   */\n      tag_437\n        /* \"#utility.yul\":9465:9466   */\n      0x00\n        /* \"#utility.yul\":9454:9463   */\n      dup4\n        /* \"#utility.yul\":9450:9467   */\n      add\n        /* \"#utility.yul\":9441:9447   */\n      dup9\n        /* \"#utility.yul\":9397:9468   */\n      tag_321\n      jump\t// in\n    tag_437:\n        /* \"#utility.yul\":9478:9550   */\n      tag_438\n        /* \"#utility.yul\":9546:9548   */\n      0x20\n        /* \"#utility.yul\":9535:9544   */\n      dup4\n        /* \"#utility.yul\":9531:9549   */\n      add\n        /* \"#utility.yul\":9522:9528   */\n      dup8\n        /* \"#utility.yul\":9478:9550   */\n      tag_321\n      jump\t// in\n    tag_438:\n        /* \"#utility.yul\":9560:9632   */\n      tag_439\n        /* \"#utility.yul\":9628:9630   */\n      0x40\n        /* \"#utility.yul\":9617:9626   */\n      dup4\n        /* \"#utility.yul\":9613:9631   */\n      add\n        /* \"#utility.yul\":9604:9610   */\n      dup7\n        /* \"#utility.yul\":9560:9632   */\n      tag_419\n      jump\t// in\n    tag_439:\n        /* \"#utility.yul\":9642:9714   */\n      tag_440\n        /* \"#utility.yul\":9710:9712   */\n      0x60\n        /* \"#utility.yul\":9699:9708   */\n      dup4\n        /* \"#utility.yul\":9695:9713   */\n      add\n        /* \"#utility.yul\":9686:9692   */\n      dup6\n        /* \"#utility.yul\":9642:9714   */\n      tag_419\n      jump\t// in\n    tag_440:\n        /* \"#utility.yul\":9762:9771   */\n      dup2\n        /* \"#utility.yul\":9756:9760   */\n      dup2\n        /* \"#utility.yul\":9752:9772   */\n      sub\n        /* \"#utility.yul\":9746:9749   */\n      0x80\n        /* \"#utility.yul\":9735:9744   */\n      dup4\n        /* \"#utility.yul\":9731:9750   */\n      add\n        /* \"#utility.yul\":9724:9773   */\n      mstore\n        /* \"#utility.yul\":9790:9866   */\n      tag_441\n        /* \"#utility.yul\":9861:9865   */\n      dup2\n        /* \"#utility.yul\":9852:9858   */\n      dup5\n        /* \"#utility.yul\":9790:9866   */\n      tag_348\n      jump\t// in\n    tag_441:\n        /* \"#utility.yul\":9782:9866   */\n      swap1\n      pop\n        /* \"#utility.yul\":9122:9873   */\n      swap7\n      swap6\n      pop\n      pop\n      pop\n      pop\n      pop\n      pop\n      jump\t// out\n        /* \"#utility.yul\":9879:10252   */\n    tag_72:\n        /* \"#utility.yul\":10022:10026   */\n      0x00\n        /* \"#utility.yul\":10060:10062   */\n      0x20\n        /* \"#utility.yul\":10049:10058   */\n      dup3\n        /* \"#utility.yul\":10045:10063   */\n      add\n        /* \"#utility.yul\":10037:10063   */\n      swap1\n      pop\n        /* \"#utility.yul\":10109:10118   */\n      dup2\n        /* \"#utility.yul\":10103:10107   */\n      dup2\n        /* \"#utility.yul\":10099:10119   */\n      sub\n        /* \"#utility.yul\":10095:10096   */\n      0x00\n        /* \"#utility.yul\":10084:10093   */\n      dup4\n        /* \"#utility.yul\":10080:10097   */\n      add\n        /* \"#utility.yul\":10073:10120   */\n      mstore\n        /* \"#utility.yul\":10137:10245   */\n      tag_443\n        /* \"#utility.yul\":10240:10244   */\n      dup2\n        /* \"#utility.yul\":10231:10237   */\n      dup5\n        /* \"#utility.yul\":10137:10245   */\n      tag_330\n      jump\t// in\n    tag_443:\n        /* \"#utility.yul\":10129:10245   */\n      swap1\n      pop\n        /* \"#utility.yul\":9879:10252   */\n      swap3\n      swap2\n      pop\n      pop\n      jump\t// out\n        /* \"#utility.yul\":10258:10468   */\n    tag_28:\n        /* \"#utility.yul\":10345:10349   */\n      0x00\n        /* \"#utility.yul\":10383:10385   */\n      0x20\n        /* \"#utility.yul\":10372:10381   */\n      dup3\n        /* \"#utility.yul\":10368:10386   */\n      add\n        /* \"#utility.yul\":10360:10386   */\n      swap1\n      pop\n        /* \"#utility.yul\":10396:10461   */\n      tag_445\n        /* \"#utility.yul\":10458:10459   */\n      0x00\n        /* \"#utility.yul\":10447:10456   */\n      dup4\n        /* \"#utility.yul\":10443:10460   */\n      add\n        /* \"#utility.yul\":10434:10440   */\n      dup5\n        /* \"#utility.yul\":10396:10461   */\n      tag_344\n      jump\t// in\n    tag_445:\n        /* \"#utility.yul\":10258:10468   */\n      swap3\n      swap2\n      pop\n      pop\n      jump\t// out\n        /* \"#utility.yul\":10474:10787   */\n    tag_261:\n        /* \"#utility.yul\":10587:10591   */\n      0x00\n        /* \"#utility.yul\":10625:10627   */\n      0x20\n        /* \"#utility.yul\":10614:10623   */\n      dup3\n        /* \"#utility.yul\":10610:10628   */\n      add\n        /* \"#utility.yul\":10602:10628   */\n      swap1\n      pop\n        /* \"#utility.yul\":10674:10683   */\n      dup2\n        /* \"#utility.yul\":10668:10672   */\n      dup2\n        /* \"#utility.yul\":10664:10684   */\n      sub\n        /* \"#utility.yul\":10660:10661   */\n      0x00\n        /* \"#utility.yul\":10649:10658   */\n      dup4\n        /* \"#utility.yul\":10645:10662   */\n      add\n        /* \"#utility.yul\":10638:10685   */\n      mstore\n        /* \"#utility.yul\":10702:10780   */\n      tag_447\n        /* \"#utility.yul\":10775:10779   */\n      dup2\n        /* \"#utility.yul\":10766:10772   */\n      dup5\n        /* \"#utility.yul\":10702:10780   */\n      tag_358\n      jump\t// in\n    tag_447:\n        /* \"#utility.yul\":10694:10780   */\n      swap1\n      pop\n        /* \"#utility.yul\":10474:10787   */\n      swap3\n      swap2\n      pop\n      pop\n      jump\t// out\n        /* \"#utility.yul\":10793:11212   */\n    tag_263:\n        /* \"#utility.yul\":10959:10963   */\n      0x00\n        /* \"#utility.yul\":10997:10999   */\n      0x20\n        /* \"#utility.yul\":10986:10995   */\n      dup3\n        /* \"#utility.yul\":10982:11000   */\n      add\n        /* \"#utility.yul\":10974:11000   */\n      swap1\n      pop\n        /* \"#utility.yul\":11046:11055   */\n      dup2\n        /* \"#utility.yul\":11040:11044   */\n      dup2\n        /* \"#utility.yul\":11036:11056   */\n      sub\n        /* \"#utility.yul\":11032:11033   */\n      0x00\n        /* \"#utility.yul\":11021:11030   */\n      dup4\n        /* \"#utility.yul\":11017:11034   */\n      add\n        /* \"#utility.yul\":11010:11057   */\n      mstore\n        /* \"#utility.yul\":11074:11205   */\n      tag_449\n        /* \"#utility.yul\":11200:11204   */\n      dup2\n        /* \"#utility.yul\":11074:11205   */\n      tag_366\n      jump\t// in\n    tag_449:\n        /* \"#utility.yul\":11066:11205   */\n      swap1\n      pop\n        /* \"#utility.yul\":10793:11212   */\n      swap2\n      swap1\n      pop\n      jump\t// out\n        /* \"#utility.yul\":11218:11637   */\n    tag_267:\n        /* \"#utility.yul\":11384:11388   */\n      0x00\n        /* \"#utility.yul\":11422:11424   */\n      0x20\n        /* \"#utility.yul\":11411:11420   */\n      dup3\n        /* \"#utility.yul\":11407:11425   */\n      add\n        /* \"#utility.yul\":11399:11425   */\n      swap1\n      pop\n        /* \"#utility.yul\":11471:11480   */\n      dup2\n        /* \"#utility.yul\":11465:11469   */\n      dup2\n        /* \"#utility.yul\":11461:11481   */\n      sub\n        /* \"#utility.yul\":11457:11458   */\n      0x00\n        /* \"#utility.yul\":11446:11455   */\n      dup4\n        /* \"#utility.yul\":11442:11459   */\n      add\n        /* \"#utility.yul\":11435:11482   */\n      mstore\n        /* \"#utility.yul\":11499:11630   */\n      tag_451\n        /* \"#utility.yul\":11625:11629   */\n      dup2\n        /* \"#utility.yul\":11499:11630   */\n      tag_371\n      jump\t// in\n    tag_451:\n        /* \"#utility.yul\":11491:11630   */\n      swap1\n      pop\n        /* \"#utility.yul\":11218:11637   */\n      swap2\n      swap1\n      pop\n      jump\t// out\n        /* \"#utility.yul\":11643:12062   */\n    tag_141:\n        /* \"#utility.yul\":11809:11813   */\n      0x00\n        /* \"#utility.yul\":11847:11849   */\n      0x20\n        /* \"#utility.yul\":11836:11845   */\n      dup3\n        /* \"#utility.yul\":11832:11850   */\n      add\n        /* \"#utility.yul\":11824:11850   */\n      swap1\n      pop\n        /* \"#utility.yul\":11896:11905   */\n      dup2\n        /* \"#utility.yul\":11890:11894   */\n      dup2\n        /* \"#utility.yul\":11886:11906   */\n      sub\n        /* \"#utility.yul\":11882:11883   */\n      0x00\n        /* \"#utility.yul\":11871:11880   */\n      dup4\n        /* \"#utility.yul\":11867:11884   */\n      add\n        /* \"#utility.yul\":11860:11907   */\n      mstore\n        /* \"#utility.yul\":11924:12055   */\n      tag_453\n        /* \"#utility.yul\":12050:12054   */\n      dup2\n        /* \"#utility.yul\":11924:12055   */\n      tag_376\n      jump\t// in\n    tag_453:\n        /* \"#utility.yul\":11916:12055   */\n      swap1\n      pop\n        /* \"#utility.yul\":11643:12062   */\n      swap2\n      swap1\n      pop\n      jump\t// out\n        /* \"#utility.yul\":12068:12487   */\n    tag_97:\n        /* \"#utility.yul\":12234:12238   */\n      0x00\n        /* \"#utility.yul\":12272:12274   */\n      0x20\n        /* \"#utility.yul\":12261:12270   */\n      dup3\n        /* \"#utility.yul\":12257:12275   */\n      add\n        /* \"#utility.yul\":12249:12275   */\n      swap1\n      pop\n        /* \"#utility.yul\":12321:12330   */\n      dup2\n        /* \"#utility.yul\":12315:12319   */\n      dup2\n        /* \"#utility.yul\":12311:12331   */\n      sub\n        /* \"#utility.yul\":12307:12308   */\n      0x00\n        /* \"#utility.yul\":12296:12305   */\n      dup4\n        /* \"#utility.yul\":12292:12309   */\n      add\n        /* \"#utility.yul\":12285:12332   */\n      mstore\n        /* \"#utility.yul\":12349:12480   */\n      tag_455\n        /* \"#utility.yul\":12475:12479   */\n      dup2\n        /* \"#utility.yul\":12349:12480   */\n      tag_381\n      jump\t// in\n    tag_455:\n        /* \"#utility.yul\":12341:12480   */\n      swap1\n      pop\n        /* \"#utility.yul\":12068:12487   */\n      swap2\n      swap1\n      pop\n      jump\t// out\n        /* \"#utility.yul\":12493:12912   */\n    tag_171:\n        /* \"#utility.yul\":12659:12663   */\n      0x00\n        /* \"#utility.yul\":12697:12699   */\n      0x20\n        /* \"#utility.yul\":12686:12695   */\n      dup3\n        /* \"#utility.yul\":12682:12700   */\n      add\n        /* \"#utility.yul\":12674:12700   */\n      swap1\n      pop\n        /* \"#utility.yul\":12746:12755   */\n      dup2\n        /* \"#utility.yul\":12740:12744   */\n      dup2\n        /* \"#utility.yul\":12736:12756   */\n      sub\n        /* \"#utility.yul\":12732:12733   */\n      0x00\n        /* \"#utility.yul\":12721:12730   */\n      dup4\n        /* \"#utility.yul\":12717:12734   */\n      add\n        /* \"#utility.yul\":12710:12757   */\n      mstore\n        /* \"#utility.yul\":12774:12905   */\n      tag_457\n        /* \"#utility.yul\":12900:12904   */\n      dup2\n        /* \"#utility.yul\":12774:12905   */\n      tag_386\n      jump\t// in\n    tag_457:\n        /* \"#utility.yul\":12766:12905   */\n      swap1\n      pop\n        /* \"#utility.yul\":12493:12912   */\n      swap2\n      swap1\n      pop\n      jump\t// out\n        /* \"#utility.yul\":12918:13337   */\n    tag_78:\n        /* \"#utility.yul\":13084:13088   */\n      0x00\n        /* \"#utility.yul\":13122:13124   */\n      0x20\n        /* \"#utility.yul\":13111:13120   */\n      dup3\n        /* \"#utility.yul\":13107:13125   */\n      add\n        /* \"#utility.yul\":13099:13125   */\n      swap1\n      pop\n        /* \"#utility.yul\":13171:13180   */\n      dup2\n        /* \"#utility.yul\":13165:13169   */\n      dup2\n        /* \"#utility.yul\":13161:13181   */\n      sub\n        /* \"#utility.yul\":13157:13158   */\n      0x00\n        /* \"#utility.yul\":13146:13155   */\n      dup4\n        /* \"#utility.yul\":13142:13159   */\n      add\n        /* \"#utility.yul\":13135:13182   */\n      mstore\n        /* \"#utility.yul\":13199:13330   */\n      tag_459\n        /* \"#utility.yul\":13325:13329   */\n      dup2\n        /* \"#utility.yul\":13199:13330   */\n      tag_391\n      jump\t// in\n    tag_459:\n        /* \"#utility.yul\":13191:13330   */\n      swap1\n      pop\n        /* \"#utility.yul\":12918:13337   */\n      swap2\n      swap1\n      pop\n      jump\t// out\n        /* \"#utility.yul\":13343:13762   */\n    tag_105:\n        /* \"#utility.yul\":13509:13513   */\n      0x00\n        /* \"#utility.yul\":13547:13549   */\n      0x20\n        /* \"#utility.yul\":13536:13545   */\n      dup3\n        /* \"#utility.yul\":13532:13550   */\n      add\n        /* \"#utility.yul\":13524:13550   */\n      swap1\n      pop\n        /* \"#utility.yul\":13596:13605   */\n      dup2\n        /* \"#utility.yul\":13590:13594   */\n      dup2\n        /* \"#utility.yul\":13586:13606   */\n      sub\n        /* \"#utility.yul\":13582:13583   */\n      0x00\n        /* \"#utility.yul\":13571:13580   */\n      dup4\n        /* \"#utility.yul\":13567:13584   */\n      add\n        /* \"#utility.yul\":13560:13607   */\n      mstore\n        /* \"#utility.yul\":13624:13755   */\n      tag_461\n        /* \"#utility.yul\":13750:13754   */\n      dup2\n        /* \"#utility.yul\":13624:13755   */\n      tag_396\n      jump\t// in\n    tag_461:\n        /* \"#utility.yul\":13616:13755   */\n      swap1\n      pop\n        /* \"#utility.yul\":13343:13762   */\n      swap2\n      swap1\n      pop\n      jump\t// out\n        /* \"#utility.yul\":13768:14187   */\n    tag_109:\n        /* \"#utility.yul\":13934:13938   */\n      0x00\n        /* \"#utility.yul\":13972:13974   */\n      0x20\n        /* \"#utility.yul\":13961:13970   */\n      dup3\n        /* \"#utility.yul\":13957:13975   */\n      add\n        /* \"#utility.yul\":13949:13975   */\n      swap1\n      pop\n        /* \"#utility.yul\":14021:14030   */\n      dup2\n        /* \"#utility.yul\":14015:14019   */\n      dup2\n        /* \"#utility.yul\":14011:14031   */\n      sub\n        /* \"#utility.yul\":14007:14008   */\n      0x00\n        /* \"#utility.yul\":13996:14005   */\n      dup4\n        /* \"#utility.yul\":13992:14009   */\n      add\n        /* \"#utility.yul\":13985:14032   */\n      mstore\n        /* \"#utility.yul\":14049:14180   */\n      tag_463\n        /* \"#utility.yul\":14175:14179   */\n      dup2\n        /* \"#utility.yul\":14049:14180   */\n      tag_401\n      jump\t// in\n    tag_463:\n        /* \"#utility.yul\":14041:14180   */\n      swap1\n      pop\n        /* \"#utility.yul\":13768:14187   */\n      swap2\n      swap1\n      pop\n      jump\t// out\n        /* \"#utility.yul\":14193:14612   */\n    tag_87:\n        /* \"#utility.yul\":14359:14363   */\n      0x00\n        /* \"#utility.yul\":14397:14399   */\n      0x20\n        /* \"#utility.yul\":14386:14395   */\n      dup3\n        /* \"#utility.yul\":14382:14400   */\n      add\n        /* \"#utility.yul\":14374:14400   */\n      swap1\n      pop\n        /* \"#utility.yul\":14446:14455   */\n      dup2\n        /* \"#utility.yul\":14440:14444   */\n      dup2\n        /* \"#utility.yul\":14436:14456   */\n      sub\n        /* \"#utility.yul\":14432:14433   */\n      0x00\n        /* \"#utility.yul\":14421:14430   */\n      dup4\n        /* \"#utility.yul\":14417:14434   */\n      add\n        /* \"#utility.yul\":14410:14457   */\n      mstore\n        /* \"#utility.yul\":14474:14605   */\n      tag_465\n        /* \"#utility.yul\":14600:14604   */\n      dup2\n        /* \"#utility.yul\":14474:14605   */\n      tag_406\n      jump\t// in\n    tag_465:\n        /* \"#utility.yul\":14466:14605   */\n      swap1\n      pop\n        /* \"#utility.yul\":14193:14612   */\n      swap2\n      swap1\n      pop\n      jump\t// out\n        /* \"#utility.yul\":14618:15037   */\n    tag_213:\n        /* \"#utility.yul\":14784:14788   */\n      0x00\n        /* \"#utility.yul\":14822:14824   */\n      0x20\n        /* \"#utility.yul\":14811:14820   */\n      dup3\n        /* \"#utility.yul\":14807:14825   */\n      add\n        /* \"#utility.yul\":14799:14825   */\n      swap1\n      pop\n        /* \"#utility.yul\":14871:14880   */\n      dup2\n        /* \"#utility.yul\":14865:14869   */\n      dup2\n        /* \"#utility.yul\":14861:14881   */\n      sub\n        /* \"#utility.yul\":14857:14858   */\n      0x00\n        /* \"#utility.yul\":14846:14855   */\n      dup4\n        /* \"#utility.yul\":14842:14859   */\n      add\n        /* \"#utility.yul\":14835:14882   */\n      mstore\n        /* \"#utility.yul\":14899:15030   */\n      tag_467\n        /* \"#utility.yul\":15025:15029   */\n      dup2\n        /* \"#utility.yul\":14899:15030   */\n      tag_411\n      jump\t// in\n    tag_467:\n        /* \"#utility.yul\":14891:15030   */\n      swap1\n      pop\n        /* \"#utility.yul\":14618:15037   */\n      swap2\n      swap1\n      pop\n      jump\t// out\n        /* \"#utility.yul\":15043:15265   */\n    tag_19:\n        /* \"#utility.yul\":15136:15140   */\n      0x00\n        /* \"#utility.yul\":15174:15176   */\n      0x20\n        /* \"#utility.yul\":15163:15172   */\n      dup3\n        /* \"#utility.yul\":15159:15177   */\n      add\n        /* \"#utility.yul\":15151:15177   */\n      swap1\n      pop\n        /* \"#utility.yul\":15187:15258   */\n      tag_469\n        /* \"#utility.yul\":15255:15256   */\n      0x00\n        /* \"#utility.yul\":15244:15253   */\n      dup4\n        /* \"#utility.yul\":15240:15257   */\n      add\n        /* \"#utility.yul\":15231:15237   */\n      dup5\n        /* \"#utility.yul\":15187:15258   */\n      tag_419\n      jump\t// in\n    tag_469:\n        /* \"#utility.yul\":15043:15265   */\n      swap3\n      swap2\n      pop\n      pop\n      jump\t// out\n        /* \"#utility.yul\":15271:15694   */\n    tag_38:\n        /* \"#utility.yul\":15412:15416   */\n      0x00\n        /* \"#utility.yul\":15450:15452   */\n      0x40\n        /* \"#utility.yul\":15439:15448   */\n      dup3\n        /* \"#utility.yul\":15435:15453   */\n      add\n        /* \"#utility.yul\":15427:15453   */\n      swap1\n      pop\n        /* \"#utility.yul\":15463:15534   */\n      tag_471\n        /* \"#utility.yul\":15531:15532   */\n      0x00\n        /* \"#utility.yul\":15520:15529   */\n      dup4\n        /* \"#utility.yul\":15516:15533   */\n      add\n        /* \"#utility.yul\":15507:15513   */\n      dup6\n        /* \"#utility.yul\":15463:15534   */\n      tag_419\n      jump\t// in\n    tag_471:\n        /* \"#utility.yul\":15581:15590   */\n      dup2\n        /* \"#utility.yul\":15575:15579   */\n      dup2\n        /* \"#utility.yul\":15571:15591   */\n      sub\n        /* \"#utility.yul\":15566:15568   */\n      0x20\n        /* \"#utility.yul\":15555:15564   */\n      dup4\n        /* \"#utility.yul\":15551:15569   */\n      add\n        /* \"#utility.yul\":15544:15592   */\n      mstore\n        /* \"#utility.yul\":15609:15687   */\n      tag_472\n        /* \"#utility.yul\":15682:15686   */\n      dup2\n        /* \"#utility.yul\":15673:15679   */\n      dup5\n        /* \"#utility.yul\":15609:15687   */\n      tag_358\n      jump\t// in\n    tag_472:\n        /* \"#utility.yul\":15601:15687   */\n      swap1\n      pop\n        /* \"#utility.yul\":15271:15694   */\n      swap4\n      swap3\n      pop\n      pop\n      pop\n      jump\t// out\n        /* \"#utility.yul\":15700:16032   */\n    tag_223:\n        /* \"#utility.yul\":15821:15825   */\n      0x00\n        /* \"#utility.yul\":15859:15861   */\n      0x40\n        /* \"#utility.yul\":15848:15857   */\n      dup3\n        /* \"#utility.yul\":15844:15862   */\n      add\n        /* \"#utility.yul\":15836:15862   */\n      swap1\n      pop\n        /* \"#utility.yul\":15872:15943   */\n      tag_474\n        /* \"#utility.yul\":15940:15941   */\n      0x00\n        /* \"#utility.yul\":15929:15938   */\n      dup4\n        /* \"#utility.yul\":15925:15942   */\n      add\n        /* \"#utility.yul\":15916:15922   */\n      dup6\n        /* \"#utility.yul\":15872:15943   */\n      tag_419\n      jump\t// in\n    tag_474:\n        /* \"#utility.yul\":15953:16025   */\n      tag_475\n        /* \"#utility.yul\":16021:16023   */\n      0x20\n        /* \"#utility.yul\":16010:16019   */\n      dup4\n        /* \"#utility.yul\":16006:16024   */\n      add\n        /* \"#utility.yul\":15997:16003   */\n      dup5\n        /* \"#utility.yul\":15953:16025   */\n      tag_419\n      jump\t// in\n    tag_475:\n        /* \"#utility.yul\":15700:16032   */\n      swap4\n      swap3\n      pop\n      pop\n      pop\n      jump\t// out\n        /* \"#utility.yul\":16038:16480   */\n    tag_51:\n        /* \"#utility.yul\":16187:16191   */\n      0x00\n        /* \"#utility.yul\":16225:16227   */\n      0x60\n        /* \"#utility.yul\":16214:16223   */\n      dup3\n        /* \"#utility.yul\":16210:16228   */\n      add\n        /* \"#utility.yul\":16202:16228   */\n      swap1\n      pop\n        /* \"#utility.yul\":16238:16309   */\n      tag_477\n        /* \"#utility.yul\":16306:16307   */\n      0x00\n        /* \"#utility.yul\":16295:16304   */\n      dup4\n        /* \"#utility.yul\":16291:16308   */\n      add\n        /* \"#utility.yul\":16282:16288   */\n      dup7\n        /* \"#utility.yul\":16238:16309   */\n      tag_419\n      jump\t// in\n    tag_477:\n        /* \"#utility.yul\":16319:16391   */\n      tag_478\n        /* \"#utility.yul\":16387:16389   */\n      0x20\n        /* \"#utility.yul\":16376:16385   */\n      dup4\n        /* \"#utility.yul\":16372:16390   */\n      add\n        /* \"#utility.yul\":16363:16369   */\n      dup6\n        /* \"#utility.yul\":16319:16391   */\n      tag_419\n      jump\t// in\n    tag_478:\n        /* \"#utility.yul\":16401:16473   */\n      tag_479\n        /* \"#utility.yul\":16469:16471   */\n      0x40\n        /* \"#utility.yul\":16458:16467   */\n      dup4\n        /* \"#utility.yul\":16454:16472   */\n      add\n        /* \"#utility.yul\":16445:16451   */\n      dup5\n        /* \"#utility.yul\":16401:16473   */\n      tag_419\n      jump\t// in\n    tag_479:\n        /* \"#utility.yul\":16038:16480   */\n      swap5\n      swap4\n      pop\n      pop\n      pop\n      pop\n      jump\t// out\n        /* \"#utility.yul\":16486:16700   */\n    tag_66:\n        /* \"#utility.yul\":16575:16579   */\n      0x00\n        /* \"#utility.yul\":16613:16615   */\n      0x20\n        /* \"#utility.yul\":16602:16611   */\n      dup3\n        /* \"#utility.yul\":16598:16616   */\n      add\n        /* \"#utility.yul\":16590:16616   */\n      swap1\n      pop\n        /* \"#utility.yul\":16626:16693   */\n      tag_481\n        /* \"#utility.yul\":16690:16691   */\n      0x00\n        /* \"#utility.yul\":16679:16688   */\n      dup4\n        /* \"#utility.yul\":16675:16692   */\n      add\n        /* \"#utility.yul\":16666:16672   */\n      dup5\n        /* \"#utility.yul\":16626:16693   */\n      tag_427\n      jump\t// in\n    tag_481:\n        /* \"#utility.yul\":16486:16700   */\n      swap3\n      swap2\n      pop\n      pop\n      jump\t// out\n        /* \"#utility.yul\":16706:16781   */\n    tag_482:\n        /* \"#utility.yul\":16739:16745   */\n      0x00\n        /* \"#utility.yul\":16772:16774   */\n      0x40\n        /* \"#utility.yul\":16766:16775   */\n      mload\n        /* \"#utility.yul\":16756:16775   */\n      swap1\n      pop\n        /* \"#utility.yul\":16706:16781   */\n      swap1\n      jump\t// out\n        /* \"#utility.yul\":16787:16919   */\n    tag_337:\n        /* \"#utility.yul\":16854:16858   */\n      0x00\n        /* \"#utility.yul\":16877:16880   */\n      dup2\n        /* \"#utility.yul\":16869:16880   */\n      swap1\n      pop\n        /* \"#utility.yul\":16907:16911   */\n      0x20\n        /* \"#utility.yul\":16902:16905   */\n      dup3\n        /* \"#utility.yul\":16898:16912   */\n      add\n        /* \"#utility.yul\":16890:16912   */\n      swap1\n      pop\n        /* \"#utility.yul\":16787:16919   */\n      swap2\n      swap1\n      pop\n      jump\t// out\n        /* \"#utility.yul\":16925:17039   */\n    tag_333:\n        /* \"#utility.yul\":16992:16998   */\n      0x00\n        /* \"#utility.yul\":17026:17031   */\n      dup2\n        /* \"#utility.yul\":17020:17032   */\n      mload\n        /* \"#utility.yul\":17010:17032   */\n      swap1\n      pop\n        /* \"#utility.yul\":16925:17039   */\n      swap2\n      swap1\n      pop\n      jump\t// out\n        /* \"#utility.yul\":17045:17143   */\n    tag_351:\n        /* \"#utility.yul\":17096:17102   */\n      0x00\n        /* \"#utility.yul\":17130:17135   */\n      dup2\n        /* \"#utility.yul\":17124:17136   */\n      mload\n        /* \"#utility.yul\":17114:17136   */\n      swap1\n      pop\n        /* \"#utility.yul\":17045:17143   */\n      swap2\n      swap1\n      pop\n      jump\t// out\n        /* \"#utility.yul\":17149:17248   */\n    tag_361:\n        /* \"#utility.yul\":17201:17207   */\n      0x00\n        /* \"#utility.yul\":17235:17240   */\n      dup2\n        /* \"#utility.yul\":17229:17241   */\n      mload\n        /* \"#utility.yul\":17219:17241   */\n      swap1\n      pop\n        /* \"#utility.yul\":17149:17248   */\n      swap2\n      swap1\n      pop\n      jump\t// out\n        /* \"#utility.yul\":17254:17367   */\n    tag_343:\n        /* \"#utility.yul\":17324:17328   */\n      0x00\n        /* \"#utility.yul\":17356:17360   */\n      0x20\n        /* \"#utility.yul\":17351:17354   */\n      dup3\n        /* \"#utility.yul\":17347:17361   */\n      add\n        /* \"#utility.yul\":17339:17361   */\n      swap1\n      pop\n        /* \"#utility.yul\":17254:17367   */\n      swap2\n      swap1\n      pop\n      jump\t// out\n        /* \"#utility.yul\":17373:17557   */\n    tag_335:\n        /* \"#utility.yul\":17472:17483   */\n      0x00\n        /* \"#utility.yul\":17506:17512   */\n      dup3\n        /* \"#utility.yul\":17501:17504   */\n      dup3\n        /* \"#utility.yul\":17494:17513   */\n      mstore\n        /* \"#utility.yul\":17546:17550   */\n      0x20\n        /* \"#utility.yul\":17541:17544   */\n      dup3\n        /* \"#utility.yul\":17537:17551   */\n      add\n        /* \"#utility.yul\":17522:17551   */\n      swap1\n      pop\n        /* \"#utility.yul\":17373:17557   */\n      swap3\n      swap2\n      pop\n      pop\n      jump\t// out\n        /* \"#utility.yul\":17563:17731   */\n    tag_353:\n        /* \"#utility.yul\":17646:17657   */\n      0x00\n        /* \"#utility.yul\":17680:17686   */\n      dup3\n        /* \"#utility.yul\":17675:17678   */\n      dup3\n        /* \"#utility.yul\":17668:17687   */\n      mstore\n        /* \"#utility.yul\":17720:17724   */\n      0x20\n        /* \"#utility.yul\":17715:17718   */\n      dup3\n        /* \"#utility.yul\":17711:17725   */\n      add\n        /* \"#utility.yul\":17696:17725   */\n      swap1\n      pop\n        /* \"#utility.yul\":17563:17731   */\n      swap3\n      swap2\n      pop\n      pop\n      jump\t// out\n        /* \"#utility.yul\":17737:17906   */\n    tag_363:\n        /* \"#utility.yul\":17821:17832   */\n      0x00\n        /* \"#utility.yul\":17855:17861   */\n      dup3\n        /* \"#utility.yul\":17850:17853   */\n      dup3\n        /* \"#utility.yul\":17843:17862   */\n      mstore\n        /* \"#utility.yul\":17895:17899   */\n      0x20\n        /* \"#utility.yul\":17890:17893   */\n      dup3\n        /* \"#utility.yul\":17886:17900   */\n      add\n        /* \"#utility.yul\":17871:17900   */\n      swap1\n      pop\n        /* \"#utility.yul\":17737:17906   */\n      swap3\n      swap2\n      pop\n      pop\n      jump\t// out\n        /* \"#utility.yul\":17912:18217   */\n    tag_221:\n        /* \"#utility.yul\":17952:17955   */\n      0x00\n        /* \"#utility.yul\":17971:17991   */\n      tag_493\n        /* \"#utility.yul\":17989:17990   */\n      dup3\n        /* \"#utility.yul\":17971:17991   */\n      tag_418\n      jump\t// in\n    tag_493:\n        /* \"#utility.yul\":17966:17991   */\n      swap2\n      pop\n        /* \"#utility.yul\":18005:18025   */\n      tag_494\n        /* \"#utility.yul\":18023:18024   */\n      dup4\n        /* \"#utility.yul\":18005:18025   */\n      tag_418\n      jump\t// in\n    tag_494:\n        /* \"#utility.yul\":18000:18025   */\n      swap3\n      pop\n        /* \"#utility.yul\":18159:18160   */\n      dup3\n        /* \"#utility.yul\":18091:18157   */\n      0xffffffffffffffffffffffffffffffffffffffffffffffffffffffffffffffff\n        /* \"#utility.yul\":18087:18161   */\n      sub\n        /* \"#utility.yul\":18084:18085   */\n      dup3\n        /* \"#utility.yul\":18081:18162   */\n      gt\n        /* \"#utility.yul\":18078:18185   */\n      iszero\n      tag_495\n      jumpi\n        /* \"#utility.yul\":18165:18183   */\n      tag_496\n      tag_497\n      jump\t// in\n    tag_496:\n        /* \"#utility.yul\":18078:18185   */\n    tag_495:\n        /* \"#utility.yul\":18209:18210   */\n      dup3\n        /* \"#utility.yul\":18206:18207   */\n      dup3\n        /* \"#utility.yul\":18202:18211   */\n      add\n        /* \"#utility.yul\":18195:18211   */\n      swap1\n      pop\n        /* \"#utility.yul\":17912:18217   */\n      swap3\n      swap2\n      pop\n      pop\n      jump\t// out\n        /* \"#utility.yul\":18223:18319   */\n    tag_324:\n        /* \"#utility.yul\":18260:18267   */\n      0x00\n        /* \"#utility.yul\":18289:18313   */\n      tag_499\n        /* \"#utility.yul\":18307:18312   */\n      dup3\n        /* \"#utility.yul\":18289:18313   */\n      tag_500\n      jump\t// in\n    tag_499:\n        /* \"#utility.yul\":18278:18313   */\n      swap1\n      pop\n        /* \"#utility.yul\":18223:18319   */\n      swap2\n      swap1\n      pop\n      jump\t// out\n        /* \"#utility.yul\":18325:18429   */\n    tag_320:\n        /* \"#utility.yul\":18370:18377   */\n      0x00\n        /* \"#utility.yul\":18399:18423   */\n      tag_502\n        /* \"#utility.yul\":18417:18422   */\n      dup3\n        /* \"#utility.yul\":18399:18423   */\n      tag_500\n      jump\t// in\n    tag_502:\n        /* \"#utility.yul\":18388:18423   */\n      swap1\n      pop\n        /* \"#utility.yul\":18325:18429   */\n      swap2\n      swap1\n      pop\n      jump\t// out\n        /* \"#utility.yul\":18435:18525   */\n    tag_347:\n        /* \"#utility.yul\":18469:18476   */\n      0x00\n        /* \"#utility.yul\":18512:18517   */\n      dup2\n        /* \"#utility.yul\":18505:18518   */\n      iszero\n        /* \"#utility.yul\":18498:18519   */\n      iszero\n        /* \"#utility.yul\":18487:18519   */\n      swap1\n      pop\n        /* \"#utility.yul\":18435:18525   */\n      swap2\n      swap1\n      pop\n      jump\t// out\n        /* \"#utility.yul\":18531:18680   */\n    tag_504:\n        /* \"#utility.yul\":18567:18574   */\n      0x00\n        /* \"#utility.yul\":18607:18673   */\n      0xffffffff00000000000000000000000000000000000000000000000000000000\n        /* \"#utility.yul\":18600:18605   */\n      dup3\n        /* \"#utility.yul\":18596:18674   */\n      and\n        /* \"#utility.yul\":18585:18674   */\n      swap1\n      pop\n        /* \"#utility.yul\":18531:18680   */\n      swap2\n      swap1\n      pop\n      jump\t// out\n        /* \"#utility.yul\":18686:18812   */\n    tag_500:\n        /* \"#utility.yul\":18723:18730   */\n      0x00\n        /* \"#utility.yul\":18763:18805   */\n      0xffffffffffffffffffffffffffffffffffffffff\n        /* \"#utility.yul\":18756:18761   */\n      dup3\n        /* \"#utility.yul\":18752:18806   */\n      and\n        /* \"#utility.yul\":18741:18806   */\n      swap1\n      pop\n        /* \"#utility.yul\":18686:18812   */\n      swap2\n      swap1\n      pop\n      jump\t// out\n        /* \"#utility.yul\":18818:18895   */\n    tag_418:\n        /* \"#utility.yul\":18855:18862   */\n      0x00\n        /* \"#utility.yul\":18884:18889   */\n      dup2\n        /* \"#utility.yul\":18873:18889   */\n      swap1\n      pop\n        /* \"#utility.yul\":18818:18895   */\n      swap2\n      swap1\n      pop\n      jump\t// out\n        /* \"#utility.yul\":18901:18987   */\n    tag_430:\n        /* \"#utility.yul\":18936:18943   */\n      0x00\n        /* \"#utility.yul\":18976:18980   */\n      0xff\n        /* \"#utility.yul\":18969:18974   */\n      dup3\n        /* \"#utility.yul\":18965:18981   */\n      and\n        /* \"#utility.yul\":18954:18981   */\n      swap1\n      pop\n        /* \"#utility.yul\":18901:18987   */\n      swap2\n      swap1\n      pop\n      jump\t// out\n        /* \"#utility.yul\":18993:19300   */\n    tag_355:\n        /* \"#utility.yul\":19061:19062   */\n      0x00\n        /* \"#utility.yul\":19071:19184   */\n    tag_510:\n        /* \"#utility.yul\":19085:19091   */\n      dup4\n        /* \"#utility.yul\":19082:19083   */\n      dup2\n        /* \"#utility.yul\":19079:19092   */\n      lt\n        /* \"#utility.yul\":19071:19184   */\n      iszero\n      tag_512\n      jumpi\n        /* \"#utility.yul\":19170:19171   */\n      dup1\n        /* \"#utility.yul\":19165:19168   */\n      dup3\n        /* \"#utility.yul\":19161:19172   */\n      add\n        /* \"#utility.yul\":19155:19173   */\n      mload\n        /* \"#utility.yul\":19151:19152   */\n      dup2\n        /* \"#utility.yul\":19146:19149   */\n      dup5\n        /* \"#utility.yul\":19142:19153   */\n      add\n        /* \"#utility.yul\":19135:19174   */\n      mstore\n        /* \"#utility.yul\":19107:19109   */\n      0x20\n        /* \"#utility.yul\":19104:19105   */\n      dup2\n        /* \"#utility.yul\":19100:19110   */\n      add\n        /* \"#utility.yul\":19095:19110   */\n      swap1\n      pop\n        /* \"#utility.yul\":19071:19184   */\n      jump(tag_510)\n    tag_512:\n        /* \"#utility.yul\":19202:19208   */\n      dup4\n        /* \"#utility.yul\":19199:19200   */\n      dup2\n        /* \"#utility.yul\":19196:19209   */\n      gt\n        /* \"#utility.yul\":19193:19294   */\n      iszero\n      tag_513\n      jumpi\n        /* \"#utility.yul\":19282:19283   */\n      0x00\n        /* \"#utility.yul\":19273:19279   */\n      dup5\n        /* \"#utility.yul\":19268:19271   */\n      dup5\n        /* \"#utility.yul\":19264:19280   */\n      add\n        /* \"#utility.yul\":19257:19284   */\n      mstore\n        /* \"#utility.yul\":19193:19294   */\n    tag_513:\n        /* \"#utility.yul\":19042:19300   */\n      pop\n        /* \"#utility.yul\":18993:19300   */\n      pop\n      pop\n      pop\n      jump\t// out\n        /* \"#utility.yul\":19306:19626   */\n    tag_114:\n        /* \"#utility.yul\":19350:19356   */\n      0x00\n        /* \"#utility.yul\":19387:19388   */\n      0x02\n        /* \"#utility.yul\":19381:19385   */\n      dup3\n        /* \"#utility.yul\":19377:19389   */\n      div\n        /* \"#utility.yul\":19367:19389   */\n      swap1\n      pop\n        /* \"#utility.yul\":19434:19435   */\n      0x01\n        /* \"#utility.yul\":19428:19432   */\n      dup3\n        /* \"#utility.yul\":19424:19436   */\n      and\n        /* \"#utility.yul\":19455:19473   */\n      dup1\n        /* \"#utility.yul\":19445:19526   */\n      tag_515\n      jumpi\n        /* \"#utility.yul\":19511:19515   */\n      0x7f\n        /* \"#utility.yul\":19503:19509   */\n      dup3\n        /* \"#utility.yul\":19499:19516   */\n      and\n        /* \"#utility.yul\":19489:19516   */\n      swap2\n      pop\n        /* \"#utility.yul\":19445:19526   */\n    tag_515:\n        /* \"#utility.yul\":19573:19575   */\n      0x20\n        /* \"#utility.yul\":19565:19571   */\n      dup3\n        /* \"#utility.yul\":19562:19576   */\n      lt\n        /* \"#utility.yul\":19542:19560   */\n      dup2\n        /* \"#utility.yul\":19539:19577   */\n      eq\n        /* \"#utility.yul\":19536:19620   */\n      iszero\n      tag_516\n      jumpi\n        /* \"#utility.yul\":19592:19610   */\n      tag_517\n      tag_518\n      jump\t// in\n    tag_517:\n        /* \"#utility.yul\":19536:19620   */\n    tag_516:\n        /* \"#utility.yul\":19357:19626   */\n      pop\n        /* \"#utility.yul\":19306:19626   */\n      swap2\n      swap1\n      pop\n      jump\t// out\n        /* \"#utility.yul\":19632:19913   */\n    tag_519:\n        /* \"#utility.yul\":19715:19742   */\n      tag_521\n        /* \"#utility.yul\":19737:19741   */\n      dup3\n        /* \"#utility.yul\":19715:19742   */\n      tag_357\n      jump\t// in\n    tag_521:\n        /* \"#utility.yul\":19707:19713   */\n      dup2\n        /* \"#utility.yul\":19703:19743   */\n      add\n        /* \"#utility.yul\":19845:19851   */\n      dup2\n        /* \"#utility.yul\":19833:19843   */\n      dup2\n        /* \"#utility.yul\":19830:19852   */\n      lt\n        /* \"#utility.yul\":19809:19827   */\n      0xffffffffffffffff\n        /* \"#utility.yul\":19797:19807   */\n      dup3\n        /* \"#utility.yul\":19794:19828   */\n      gt\n        /* \"#utility.yul\":19791:19853   */\n      or\n        /* \"#utility.yul\":19788:19876   */\n      iszero\n      tag_522\n      jumpi\n        /* \"#utility.yul\":19856:19874   */\n      tag_523\n      tag_236\n      jump\t// in\n    tag_523:\n        /* \"#utility.yul\":19788:19876   */\n    tag_522:\n        /* \"#utility.yul\":19896:19906   */\n      dup1\n        /* \"#utility.yul\":19892:19894   */\n      0x40\n        /* \"#utility.yul\":19885:19907   */\n      mstore\n        /* \"#utility.yul\":19675:19913   */\n      pop\n        /* \"#utility.yul\":19632:19913   */\n      pop\n      pop\n      jump\t// out\n        /* \"#utility.yul\":19919:20152   */\n    tag_121:\n        /* \"#utility.yul\":19958:19961   */\n      0x00\n        /* \"#utility.yul\":19981:20005   */\n      tag_525\n        /* \"#utility.yul\":19999:20004   */\n      dup3\n        /* \"#utility.yul\":19981:20005   */\n      tag_418\n      jump\t// in\n    tag_525:\n        /* \"#utility.yul\":19972:20005   */\n      swap2\n      pop\n        /* \"#utility.yul\":20027:20093   */\n      0xffffffffffffffffffffffffffffffffffffffffffffffffffffffffffffffff\n        /* \"#utility.yul\":20020:20025   */\n      dup3\n        /* \"#utility.yul\":20017:20094   */\n      eq\n        /* \"#utility.yul\":20014:20117   */\n      iszero\n      tag_526\n      jumpi\n        /* \"#utility.yul\":20097:20115   */\n      tag_527\n      tag_497\n      jump\t// in\n    tag_527:\n        /* \"#utility.yul\":20014:20117   */\n    tag_526:\n        /* \"#utility.yul\":20144:20145   */\n      0x01\n        /* \"#utility.yul\":20137:20142   */\n      dup3\n        /* \"#utility.yul\":20133:20146   */\n      add\n        /* \"#utility.yul\":20126:20146   */\n      swap1\n      pop\n        /* \"#utility.yul\":19919:20152   */\n      swap2\n      swap1\n      pop\n      jump\t// out\n        /* \"#utility.yul\":20158:20258   */\n    tag_329:\n        /* \"#utility.yul\":20197:20204   */\n      0x00\n        /* \"#utility.yul\":20226:20252   */\n      tag_529\n        /* \"#utility.yul\":20246:20251   */\n      dup3\n        /* \"#utility.yul\":20226:20252   */\n      tag_530\n      jump\t// in\n    tag_529:\n        /* \"#utility.yul\":20215:20252   */\n      swap1\n      pop\n        /* \"#utility.yul\":20158:20258   */\n      swap2\n      swap1\n      pop\n      jump\t// out\n        /* \"#utility.yul\":20264:20358   */\n    tag_530:\n        /* \"#utility.yul\":20303:20310   */\n      0x00\n        /* \"#utility.yul\":20332:20352   */\n      tag_532\n        /* \"#utility.yul\":20346:20351   */\n      dup3\n        /* \"#utility.yul\":20332:20352   */\n      tag_533\n      jump\t// in\n    tag_532:\n        /* \"#utility.yul\":20321:20352   */\n      swap1\n      pop\n        /* \"#utility.yul\":20264:20358   */\n      swap2\n      swap1\n      pop\n      jump\t// out\n        /* \"#utility.yul\":20364:20443   */\n    tag_426:\n        /* \"#utility.yul\":20403:20410   */\n      0x00\n        /* \"#utility.yul\":20432:20437   */\n      dup2\n        /* \"#utility.yul\":20421:20437   */\n      swap1\n      pop\n        /* \"#utility.yul\":20364:20443   */\n      swap2\n      swap1\n      pop\n      jump\t// out\n        /* \"#utility.yul\":20449:20625   */\n    tag_232:\n        /* \"#utility.yul\":20481:20482   */\n      0x00\n        /* \"#utility.yul\":20498:20518   */\n      tag_536\n        /* \"#utility.yul\":20516:20517   */\n      dup3\n        /* \"#utility.yul\":20498:20518   */\n      tag_418\n      jump\t// in\n    tag_536:\n        /* \"#utility.yul\":20493:20518   */\n      swap2\n      pop\n        /* \"#utility.yul\":20532:20552   */\n      tag_537\n        /* \"#utility.yul\":20550:20551   */\n      dup4\n        /* \"#utility.yul\":20532:20552   */\n      tag_418\n      jump\t// in\n    tag_537:\n        /* \"#utility.yul\":20527:20552   */\n      swap3\n      pop\n        /* \"#utility.yul\":20571:20572   */\n      dup3\n        /* \"#utility.yul\":20561:20596   */\n      tag_538\n      jumpi\n        /* \"#utility.yul\":20576:20594   */\n      tag_539\n      tag_540\n      jump\t// in\n    tag_539:\n        /* \"#utility.yul\":20561:20596   */\n    tag_538:\n        /* \"#utility.yul\":20617:20618   */\n      dup3\n        /* \"#utility.yul\":20614:20615   */\n      dup3\n        /* \"#utility.yul\":20610:20619   */\n      mod\n        /* \"#utility.yul\":20605:20619   */\n      swap1\n      pop\n        /* \"#utility.yul\":20449:20625   */\n      swap3\n      swap2\n      pop\n      pop\n      jump\t// out\n        /* \"#utility.yul\":20631:20811   */\n    tag_497:\n        /* \"#utility.yul\":20679:20756   */\n      0x4e487b7100000000000000000000000000000000000000000000000000000000\n        /* \"#utility.yul\":20676:20677   */\n      0x00\n        /* \"#utility.yul\":20669:20757   */\n      mstore\n        /* \"#utility.yul\":20776:20780   */\n      0x11\n        /* \"#utility.yul\":20773:20774   */\n      0x04\n        /* \"#utility.yul\":20766:20781   */\n      mstore\n        /* \"#utility.yul\":20800:20804   */\n      0x24\n        /* \"#utility.yul\":20797:20798   */\n      0x00\n        /* \"#utility.yul\":20790:20805   */\n      revert\n        /* \"#utility.yul\":20817:20997   */\n    tag_540:\n        /* \"#utility.yul\":20865:20942   */\n      0x4e487b7100000000000000000000000000000000000000000000000000000000\n        /* \"#utility.yul\":20862:20863   */\n      0x00\n        /* \"#utility.yul\":20855:20943   */\n      mstore\n        /* \"#utility.yul\":20962:20966   */\n      0x12\n        /* \"#utility.yul\":20959:20960   */\n      0x04\n        /* \"#utility.yul\":20952:20967   */\n      mstore\n        /* \"#utility.yul\":20986:20990   */\n      0x24\n        /* \"#utility.yul\":20983:20984   */\n      0x00\n        /* \"#utility.yul\":20976:20991   */\n      revert\n        /* \"#utility.yul\":21003:21183   */\n    tag_518:\n        /* \"#utility.yul\":21051:21128   */\n      0x4e487b7100000000000000000000000000000000000000000000000000000000\n        /* \"#utility.yul\":21048:21049   */\n      0x00\n        /* \"#utility.yul\":21041:21129   */\n      mstore\n        /* \"#utility.yul\":21148:21152   */\n      0x22\n        /* \"#utility.yul\":21145:21146   */\n      0x04\n        /* \"#utility.yul\":21138:21153   */\n      mstore\n        /* \"#utility.yul\":21172:21176   */\n      0x24\n        /* \"#utility.yul\":21169:21170   */\n      0x00\n        /* \"#utility.yul\":21162:21177   */\n      revert\n        /* \"#utility.yul\":21189:21369   */\n    tag_186:\n        /* \"#utility.yul\":21237:21314   */\n      0x4e487b7100000000000000000000000000000000000000000000000000000000\n        /* \"#utility.yul\":21234:21235   */\n      0x00\n        /* \"#utility.yul\":21227:21315   */\n      mstore\n        /* \"#utility.yul\":21334:21338   */\n      0x32\n        /* \"#utility.yul\":21331:21332   */\n      0x04\n        /* \"#utility.yul\":21324:21339   */\n      mstore\n        /* \"#utility.yul\":21358:21362   */\n      0x24\n        /* \"#utility.yul\":21355:21356   */\n      0x00\n        /* \"#utility.yul\":21348:21363   */\n      revert\n        /* \"#utility.yul\":21375:21555   */\n    tag_236:\n        /* \"#utility.yul\":21423:21500   */\n      0x4e487b7100000000000000000000000000000000000000000000000000000000\n        /* \"#utility.yul\":21420:21421   */\n      0x00\n        /* \"#utility.yul\":21413:21501   */\n      mstore\n        /* \"#utility.yul\":21520:21524   */\n      0x41\n        /* \"#utility.yul\":21517:21518   */\n      0x04\n        /* \"#utility.yul\":21510:21525   */\n      mstore\n        /* \"#utility.yul\":21544:21548   */\n      0x24\n        /* \"#utility.yul\":21541:21542   */\n      0x00\n        /* \"#utility.yul\":21534:21549   */\n      revert\n        /* \"#utility.yul\":21561:21744   */\n    tag_256:\n        /* \"#utility.yul\":21596:21599   */\n      0x00\n        /* \"#utility.yul\":21634:21635   */\n      0x03\n        /* \"#utility.yul\":21616:21632   */\n      returndatasize\n        /* \"#utility.yul\":21613:21636   */\n      gt\n        /* \"#utility.yul\":21610:21738   */\n      iszero\n      tag_547\n      jumpi\n        /* \"#utility.yul\":21672:21673   */\n      0x04\n        /* \"#utility.yul\":21669:21670   */\n      0x00\n        /* \"#utility.yul\":21666:21667   */\n      dup1\n        /* \"#utility.yul\":21651:21674   */\n      returndatacopy\n        /* \"#utility.yul\":21694:21728   */\n      tag_548\n        /* \"#utility.yul\":21725:21726   */\n      0x00\n        /* \"#utility.yul\":21719:21727   */\n      mload\n        /* \"#utility.yul\":21694:21728   */\n      tag_549\n      jump\t// in\n    tag_548:\n        /* \"#utility.yul\":21687:21728   */\n      swap1\n      pop\n        /* \"#utility.yul\":21610:21738   */\n    tag_547:\n        /* \"#utility.yul\":21561:21744   */\n      swap1\n      jump\t// out\n        /* \"#utility.yul\":21873:21990   */\n    tag_299:\n        /* \"#utility.yul\":21982:21983   */\n      0x00\n        /* \"#utility.yul\":21979:21980   */\n      dup1\n        /* \"#utility.yul\":21972:21984   */\n      revert\n        /* \"#utility.yul\":21996:22098   */\n    tag_357:\n        /* \"#utility.yul\":22037:22043   */\n      0x00\n        /* \"#utility.yul\":22088:22090   */\n      0x1f\n        /* \"#utility.yul\":22084:22091   */\n      not\n        /* \"#utility.yul\":22079:22081   */\n      0x1f\n        /* \"#utility.yul\":22072:22077   */\n      dup4\n        /* \"#utility.yul\":22068:22082   */\n      add\n        /* \"#utility.yul\":22064:22092   */\n      and\n        /* \"#utility.yul\":22054:22092   */\n      swap1\n      pop\n        /* \"#utility.yul\":21996:22098   */\n      swap2\n      swap1\n      pop\n      jump\t// out\n        /* \"#utility.yul\":22104:22198   */\n    tag_533:\n        /* \"#utility.yul\":22137:22145   */\n      0x00\n        /* \"#utility.yul\":22185:22190   */\n      dup2\n        /* \"#utility.yul\":22181:22183   */\n      0x60\n        /* \"#utility.yul\":22177:22191   */\n      shl\n        /* \"#utility.yul\":22156:22191   */\n      swap1\n      pop\n        /* \"#utility.yul\":22104:22198   */\n      swap2\n      swap1\n      pop\n      jump\t// out\n        /* \"#utility.yul\":22204:22310   */\n    tag_549:\n        /* \"#utility.yul\":22248:22256   */\n      0x00\n        /* \"#utility.yul\":22297:22302   */\n      dup2\n        /* \"#utility.yul\":22292:22295   */\n      0xe0\n        /* \"#utility.yul\":22288:22303   */\n      shr\n        /* \"#utility.yul\":22267:22303   */\n      swap1\n      pop\n        /* \"#utility.yul\":22204:22310   */\n      swap2\n      swap1\n      pop\n      jump\t// out\n        /* \"#utility.yul\":22316:22555   */\n    tag_370:\n        /* \"#utility.yul\":22456:22490   */\n      0x455243313135353a207472616e7366657220746f206e6f6e2045524331313535\n        /* \"#utility.yul\":22452:22453   */\n      0x00\n        /* \"#utility.yul\":22444:22450   */\n      dup3\n        /* \"#utility.yul\":22440:22454   */\n      add\n        /* \"#utility.yul\":22433:22491   */\n      mstore\n        /* \"#utility.yul\":22525:22547   */\n      0x526563656976657220696d706c656d656e746572000000000000000000000000\n        /* \"#utility.yul\":22520:22522   */\n      0x20\n        /* \"#utility.yul\":22512:22518   */\n      dup3\n        /* \"#utility.yul\":22508:22523   */\n      add\n        /* \"#utility.yul\":22501:22548   */\n      mstore\n        /* \"#utility.yul\":22316:22555   */\n      pop\n      jump\t// out\n        /* \"#utility.yul\":22561:22788   */\n    tag_375:\n        /* \"#utility.yul\":22701:22735   */\n      0x455243313135353a204552433131353552656365697665722072656a65637465\n        /* \"#utility.yul\":22697:22698   */\n      0x00\n        /* \"#utility.yul\":22689:22695   */\n      dup3\n        /* \"#utility.yul\":22685:22699   */\n      add\n        /* \"#utility.yul\":22678:22736   */\n      mstore\n        /* \"#utility.yul\":22770:22780   */\n      0x6420746f6b656e73000000000000000000000000000000000000000000000000\n        /* \"#utility.yul\":22765:22767   */\n      0x20\n        /* \"#utility.yul\":22757:22763   */\n      dup3\n        /* \"#utility.yul\":22753:22768   */\n      add\n        /* \"#utility.yul\":22746:22781   */\n      mstore\n        /* \"#utility.yul\":22561:22788   */\n      pop\n      jump\t// out\n        /* \"#utility.yul\":22794:22969   */\n    tag_380:\n        /* \"#utility.yul\":22934:22961   */\n      0x42616c616e6365206d757374206265203235204d617469637300000000000000\n        /* \"#utility.yul\":22930:22931   */\n      0x00\n        /* \"#utility.yul\":22922:22928   */\n      dup3\n        /* \"#utility.yul\":22918:22932   */\n      add\n        /* \"#utility.yul\":22911:22962   */\n      mstore\n        /* \"#utility.yul\":22794:22969   */\n      pop\n      jump\t// out\n        /* \"#utility.yul\":22975:23152   */\n    tag_385:\n        /* \"#utility.yul\":23115:23144   */\n      0x44726f707369746520697320616c72656164792052756e6e696e670000000000\n        /* \"#utility.yul\":23111:23112   */\n      0x00\n        /* \"#utility.yul\":23103:23109   */\n      dup3\n        /* \"#utility.yul\":23099:23113   */\n      add\n        /* \"#utility.yul\":23092:23145   */\n      mstore\n        /* \"#utility.yul\":22975:23152   */\n      pop\n      jump\t// out\n        /* \"#utility.yul\":23158:23335   */\n    tag_390:\n        /* \"#utility.yul\":23298:23327   */\n      0x44726f707369746520697320616c72656164792053746f707065640000000000\n        /* \"#utility.yul\":23294:23295   */\n      0x00\n        /* \"#utility.yul\":23286:23292   */\n      dup3\n        /* \"#utility.yul\":23282:23296   */\n      add\n        /* \"#utility.yul\":23275:23328   */\n      mstore\n        /* \"#utility.yul\":23158:23335   */\n      pop\n      jump\t// out\n        /* \"#utility.yul\":23341:23519   */\n    tag_395:\n        /* \"#utility.yul\":23481:23511   */\n      0x4f6e6c79204e46542d4553204f776e65722063616e2041636365737300000000\n        /* \"#utility.yul\":23477:23478   */\n      0x00\n        /* \"#utility.yul\":23469:23475   */\n      dup3\n        /* \"#utility.yul\":23465:23479   */\n      add\n        /* \"#utility.yul\":23458:23512   */\n      mstore\n        /* \"#utility.yul\":23341:23519   */\n      pop\n      jump\t// out\n        /* \"#utility.yul\":23525:23702   */\n    tag_400:\n        /* \"#utility.yul\":23665:23694   */\n      0x44726f7073697465206973206e6f74204f70656e6564205965742e0000000000\n        /* \"#utility.yul\":23661:23662   */\n      0x00\n        /* \"#utility.yul\":23653:23659   */\n      dup3\n        /* \"#utility.yul\":23649:23663   */\n      add\n        /* \"#utility.yul\":23642:23695   */\n      mstore\n        /* \"#utility.yul\":23525:23702   */\n      pop\n      jump\t// out\n        /* \"#utility.yul\":23708:23883   */\n    tag_405:\n        /* \"#utility.yul\":23848:23875   */\n      0x4d6178204d696e74696e67204c696d6974207265616368656400000000000000\n        /* \"#utility.yul\":23844:23845   */\n      0x00\n        /* \"#utility.yul\":23836:23842   */\n      dup3\n        /* \"#utility.yul\":23832:23846   */\n      add\n        /* \"#utility.yul\":23825:23876   */\n      mstore\n        /* \"#utility.yul\":23708:23883   */\n      pop\n      jump\t// out\n        /* \"#utility.yul\":23889:24068   */\n    tag_410:\n        /* \"#utility.yul\":24029:24060   */\n      0x4572726f7221204e6f2042616c616e636520746f207769746864726177000000\n        /* \"#utility.yul\":24025:24026   */\n      0x00\n        /* \"#utility.yul\":24017:24023   */\n      dup3\n        /* \"#utility.yul\":24013:24027   */\n      add\n        /* \"#utility.yul\":24006:24061   */\n      mstore\n        /* \"#utility.yul\":23889:24068   */\n      pop\n      jump\t// out\n        /* \"#utility.yul\":24074:24294   */\n    tag_415:\n        /* \"#utility.yul\":24214:24248   */\n      0x455243313135353a206d696e7420746f20746865207a65726f20616464726573\n        /* \"#utility.yul\":24210:24211   */\n      0x00\n        /* \"#utility.yul\":24202:24208   */\n      dup3\n        /* \"#utility.yul\":24198:24212   */\n      add\n        /* \"#utility.yul\":24191:24249   */\n      mstore\n        /* \"#utility.yul\":24283:24286   */\n      0x7300000000000000000000000000000000000000000000000000000000000000\n        /* \"#utility.yul\":24278:24280   */\n      0x20\n        /* \"#utility.yul\":24270:24276   */\n      dup3\n        /* \"#utility.yul\":24266:24281   */\n      add\n        /* \"#utility.yul\":24259:24287   */\n      mstore\n        /* \"#utility.yul\":24074:24294   */\n      pop\n      jump\t// out\n        /* \"#utility.yul\":24300:25011   */\n    tag_258:\n        /* \"#utility.yul\":24339:24342   */\n      0x00\n        /* \"#utility.yul\":24377:24381   */\n      0x44\n        /* \"#utility.yul\":24359:24375   */\n      returndatasize\n        /* \"#utility.yul\":24356:24382   */\n      lt\n        /* \"#utility.yul\":24353:24392   */\n      iszero\n      tag_567\n      jumpi\n        /* \"#utility.yul\":24385:24390   */\n      jump(tag_566)\n        /* \"#utility.yul\":24353:24392   */\n    tag_567:\n        /* \"#utility.yul\":24414:24434   */\n      tag_568\n      tag_482\n      jump\t// in\n    tag_568:\n        /* \"#utility.yul\":24489:24490   */\n      0x04\n        /* \"#utility.yul\":24471:24487   */\n      returndatasize\n        /* \"#utility.yul\":24467:24491   */\n      sub\n        /* \"#utility.yul\":24464:24465   */\n      0x04\n        /* \"#utility.yul\":24458:24462   */\n      dup3\n        /* \"#utility.yul\":24443:24492   */\n      returndatacopy\n        /* \"#utility.yul\":24522:24526   */\n      dup1\n        /* \"#utility.yul\":24516:24527   */\n      mload\n        /* \"#utility.yul\":24621:24637   */\n      returndatasize\n        /* \"#utility.yul\":24614:24618   */\n      0x24\n        /* \"#utility.yul\":24606:24612   */\n      dup3\n        /* \"#utility.yul\":24602:24619   */\n      add\n        /* \"#utility.yul\":24599:24638   */\n      gt\n        /* \"#utility.yul\":24566:24584   */\n      0xffffffffffffffff\n        /* \"#utility.yul\":24558:24564   */\n      dup3\n        /* \"#utility.yul\":24555:24585   */\n      gt\n        /* \"#utility.yul\":24539:24652   */\n      or\n        /* \"#utility.yul\":24536:24682   */\n      iszero\n      tag_569\n      jumpi\n        /* \"#utility.yul\":24667:24672   */\n      pop\n      pop\n      jump(tag_566)\n        /* \"#utility.yul\":24536:24682   */\n    tag_569:\n        /* \"#utility.yul\":24713:24719   */\n      dup1\n        /* \"#utility.yul\":24707:24711   */\n      dup3\n        /* \"#utility.yul\":24703:24720   */\n      add\n        /* \"#utility.yul\":24749:24752   */\n      dup1\n        /* \"#utility.yul\":24743:24753   */\n      mload\n        /* \"#utility.yul\":24776:24794   */\n      0xffffffffffffffff\n        /* \"#utility.yul\":24768:24774   */\n      dup2\n        /* \"#utility.yul\":24765:24795   */\n      gt\n        /* \"#utility.yul\":24762:24805   */\n      iszero\n      tag_570\n      jumpi\n        /* \"#utility.yul\":24798:24803   */\n      pop\n      pop\n      pop\n      pop\n      jump(tag_566)\n        /* \"#utility.yul\":24762:24805   */\n    tag_570:\n        /* \"#utility.yul\":24846:24852   */\n      dup1\n        /* \"#utility.yul\":24839:24843   */\n      0x20\n        /* \"#utility.yul\":24834:24837   */\n      dup4\n        /* \"#utility.yul\":24830:24844   */\n      add\n        /* \"#utility.yul\":24826:24853   */\n      add\n        /* \"#utility.yul\":24905:24906   */\n      0x04\n        /* \"#utility.yul\":24887:24903   */\n      returndatasize\n        /* \"#utility.yul\":24883:24907   */\n      sub\n        /* \"#utility.yul\":24877:24881   */\n      dup6\n        /* \"#utility.yul\":24873:24908   */\n      add\n        /* \"#utility.yul\":24868:24871   */\n      dup2\n        /* \"#utility.yul\":24865:24909   */\n      gt\n        /* \"#utility.yul\":24862:24919   */\n      iszero\n      tag_571\n      jumpi\n        /* \"#utility.yul\":24912:24917   */\n      pop\n      pop\n      pop\n      pop\n      pop\n      jump(tag_566)\n        /* \"#utility.yul\":24862:24919   */\n    tag_571:\n        /* \"#utility.yul\":24929:24986   */\n      tag_572\n        /* \"#utility.yul\":24977:24983   */\n      dup3\n        /* \"#utility.yul\":24971:24975   */\n      0x20\n        /* \"#utility.yul\":24967:24984   */\n      add\n        /* \"#utility.yul\":24959:24965   */\n      dup6\n        /* \"#utility.yul\":24955:24985   */\n      add\n        /* \"#utility.yul\":24949:24953   */\n      dup7\n        /* \"#utility.yul\":24929:24986   */\n      tag_519\n      jump\t// in\n    tag_572:\n        /* \"#utility.yul\":25002:25005   */\n      dup3\n        /* \"#utility.yul\":24995:25005   */\n      swap6\n      pop\n        /* \"#utility.yul\":24343:25011   */\n      pop\n      pop\n      pop\n      pop\n      pop\n        /* \"#utility.yul\":24300:25011   */\n    tag_566:\n      swap1\n      jump\t// out\n        /* \"#utility.yul\":25017:25139   */\n    tag_283:\n        /* \"#utility.yul\":25090:25114   */\n      tag_574\n        /* \"#utility.yul\":25108:25113   */\n      dup2\n        /* \"#utility.yul\":25090:25114   */\n      tag_324\n      jump\t// in\n    tag_574:\n        /* \"#utility.yul\":25083:25088   */\n      dup2\n        /* \"#utility.yul\":25080:25115   */\n      eq\n        /* \"#utility.yul\":25070:25133   */\n      tag_575\n      jumpi\n        /* \"#utility.yul\":25129:25130   */\n      0x00\n        /* \"#utility.yul\":25126:25127   */\n      dup1\n        /* \"#utility.yul\":25119:25131   */\n      revert\n        /* \"#utility.yul\":25070:25133   */\n    tag_575:\n        /* \"#utility.yul\":25017:25139   */\n      pop\n      jump\t// out\n        /* \"#utility.yul\":25145:25283   */\n    tag_287:\n        /* \"#utility.yul\":25226:25258   */\n      tag_577\n        /* \"#utility.yul\":25252:25257   */\n      dup2\n        /* \"#utility.yul\":25226:25258   */\n      tag_320\n      jump\t// in\n    tag_577:\n        /* \"#utility.yul\":25219:25224   */\n      dup2\n        /* \"#utility.yul\":25216:25259   */\n      eq\n        /* \"#utility.yul\":25206:25277   */\n      tag_578\n      jumpi\n        /* \"#utility.yul\":25273:25274   */\n      0x00\n        /* \"#utility.yul\":25270:25271   */\n      dup1\n        /* \"#utility.yul\":25263:25275   */\n      revert\n        /* \"#utility.yul\":25206:25277   */\n    tag_578:\n        /* \"#utility.yul\":25145:25283   */\n      pop\n      jump\t// out\n        /* \"#utility.yul\":25289:25409   */\n    tag_291:\n        /* \"#utility.yul\":25361:25384   */\n      tag_580\n        /* \"#utility.yul\":25378:25383   */\n      dup2\n        /* \"#utility.yul\":25361:25384   */\n      tag_504\n      jump\t// in\n    tag_580:\n        /* \"#utility.yul\":25354:25359   */\n      dup2\n        /* \"#utility.yul\":25351:25385   */\n      eq\n        /* \"#utility.yul\":25341:25403   */\n      tag_581\n      jumpi\n        /* \"#utility.yul\":25399:25400   */\n      0x00\n        /* \"#utility.yul\":25396:25397   */\n      dup1\n        /* \"#utility.yul\":25389:25401   */\n      revert\n        /* \"#utility.yul\":25341:25403   */\n    tag_581:\n        /* \"#utility.yul\":25289:25409   */\n      pop\n      jump\t// out\n        /* \"#utility.yul\":25415:25537   */\n    tag_295:\n        /* \"#utility.yul\":25488:25512   */\n      tag_583\n        /* \"#utility.yul\":25506:25511   */\n      dup2\n        /* \"#utility.yul\":25488:25512   */\n      tag_418\n      jump\t// in\n    tag_583:\n        /* \"#utility.yul\":25481:25486   */\n      dup2\n        /* \"#utility.yul\":25478:25513   */\n      eq\n        /* \"#utility.yul\":25468:25531   */\n      tag_584\n      jumpi\n        /* \"#utility.yul\":25527:25528   */\n      0x00\n        /* \"#utility.yul\":25524:25525   */\n      dup1\n        /* \"#utility.yul\":25517:25529   */\n      revert\n        /* \"#utility.yul\":25468:25531   */\n    tag_584:\n        /* \"#utility.yul\":25415:25537   */\n      pop\n      jump\t// out\n\n    auxdata: 0xa2646970667358221220c3135b05d4fb52c9d781160867e3deb5a08b8770b7637f6277d9938efdf1427964736f6c63430008070033\n}\n",
				"bytecode": {
					"linkReferences": {},
					"object": "608060405260405180602001604052806000815250600290805190602001906200002b929190620001e8565b50604051806102800160405280600060ff168152602001600160ff168152602001600160ff168152602001600260ff168152602001600260ff168152602001600260ff168152602001600260ff168152602001600260ff168152602001600260ff168152602001600260ff168152602001600260ff168152602001600260ff168152602001600260ff168152602001600260ff168152602001600260ff168152602001600260ff168152602001600260ff168152602001600260ff168152602001600260ff168152602001600260ff1681525060039060146200011092919062000279565b506001600b60006101000a81548160ff0219169083151502179055503480156200013957600080fd5b5060405162002b1638038062002b1683398181016040528101906200015f919062000448565b80600c9080519060200190620001779291906200031a565b5033600b60016101000a81548173ffffffffffffffffffffffffffffffffffffffff021916908373ffffffffffffffffffffffffffffffffffffffff16021790555060006004819055506001600581905550600060068190555060006007819055506000600881905550506200061d565b828054620001f6906200052e565b90600052602060002090601f0160209004810192826200021a576000855562000266565b82601f106200023557805160ff191683800117855562000266565b8280016001018555821562000266579182015b828111156200026557825182559160200191906001019062000248565b5b509050620002759190620003ab565b5090565b826014601f01602090048101928215620003075791602002820160005b83821115620002d657835183826101000a81548160ff021916908360ff160217905550926020019260010160208160000104928301926001030262000296565b8015620003055782816101000a81549060ff0219169055600101602081600001049283019260010302620002d6565b505b509050620003169190620003ab565b5090565b82805462000328906200052e565b90600052602060002090601f0160209004810192826200034c576000855562000398565b82601f106200036757805160ff191683800117855562000398565b8280016001018555821562000398579182015b82811115620003975782518255916020019190600101906200037a565b5b509050620003a79190620003ab565b5090565b5b80821115620003c6576000816000905550600101620003ac565b5090565b6000620003e1620003db84620004c2565b62000499565b9050828152602081018484840111156200040057620003ff620005fd565b5b6200040d848285620004f8565b509392505050565b600082601f8301126200042d576200042c620005f8565b5b81516200043f848260208601620003ca565b91505092915050565b60006020828403121562000461576200046062000607565b5b600082015167ffffffffffffffff81111562000482576200048162000602565b5b620004908482850162000415565b91505092915050565b6000620004a5620004b8565b9050620004b3828262000564565b919050565b6000604051905090565b600067ffffffffffffffff821115620004e057620004df620005c9565b5b620004eb826200060c565b9050602081019050919050565b60005b8381101562000518578082015181840152602081019050620004fb565b8381111562000528576000848401525b50505050565b600060028204905060018216806200054757607f821691505b602082108114156200055e576200055d6200059a565b5b50919050565b6200056f826200060c565b810181811067ffffffffffffffff82111715620005915762000590620005c9565b5b80604052505050565b7f4e487b7100000000000000000000000000000000000000000000000000000000600052602260045260246000fd5b7f4e487b7100000000000000000000000000000000000000000000000000000000600052604160045260246000fd5b600080fd5b600080fd5b600080fd5b600080fd5b6000601f19601f8301169050919050565b6124e9806200062d6000396000f3fe6080604052600436106100a75760003560e01c80633d65df70116100645780633d65df701461019e57806360daa851146101cf578063aa90c726146101fc578063b4a99a4e14610213578063fd1ee54c1461023e578063fd6c3b1b1461027b576100a7565b80630390c11c146100ac5780630a67d2c7146100d75780631309a563146100f3578063154602591461011e57806332b61b4c146101355780633b66805914610173575b600080fd5b3480156100b857600080fd5b506100c16102b8565b6040516100ce9190611d10565b60405180910390f35b6100f160048036038101906100ec919061177b565b610359565b005b3480156100ff57600080fd5b50610108610483565b6040516101159190611b93565b60405180910390f35b34801561012a57600080fd5b50610133610496565b005b34801561014157600080fd5b5061015c6004803603810190610157919061174e565b6105a0565b60405161016a929190611d2b565b60405180910390f35b34801561017f57600080fd5b50610188610895565b6040516101959190611d10565b60405180910390f35b6101b860048036038101906101b3919061174e565b610934565b6040516101c6929190611d2b565b60405180910390f35b3480156101db57600080fd5b506101e4610be6565b6040516101f393929190611d84565b60405180910390f35b34801561020857600080fd5b50610211610c96565b005b34801561021f57600080fd5b50610228610da0565b6040516102359190611afc565b60405180910390f35b34801561024a57600080fd5b50610265600480360381019061026091906117d5565b610dc6565b6040516102729190611dbb565b60405180910390f35b34801561028757600080fd5b506102a2600480360381019061029d919061174e565b610df0565b6040516102af9190611b71565b60405180910390f35b6000600b60019054906101000a900473ffffffffffffffffffffffffffffffffffffffff1673ffffffffffffffffffffffffffffffffffffffff166102fb610e8a565b73ffffffffffffffffffffffffffffffffffffffff1614610351576040517f08c379a000000000000000000000000000000000000000000000000000000000815260040161034890611c70565b60405180910390fd5b600454905090565b600b60019054906101000a900473ffffffffffffffffffffffffffffffffffffffff1673ffffffffffffffffffffffffffffffffffffffff1661039a610e8a565b73ffffffffffffffffffffffffffffffffffffffff16146103f0576040517f08c379a00000000000000000000000000000000000000000000000000000000081526004016103e790611c70565b60405180910390fd5b600047905060008111610438576040517f08c379a000000000000000000000000000000000000000000000000000000000815260040161042f90611cd0565b60405180910390fd5b8173ffffffffffffffffffffffffffffffffffffffff166108fc829081150290604051600060405180830381858888f1935050505015801561047e573d6000803e3d6000fd5b505050565b600b60009054906101000a900460ff1681565b600b60019054906101000a900473ffffffffffffffffffffffffffffffffffffffff1673ffffffffffffffffffffffffffffffffffffffff166104d7610e8a565b73ffffffffffffffffffffffffffffffffffffffff161461052d576040517f08c379a000000000000000000000000000000000000000000000000000000000815260040161052490611c70565b60405180910390fd5b60011515600b60009054906101000a900460ff16151514610583576040517f08c379a000000000000000000000000000000000000000000000000000000000815260040161057a90611c30565b60405180910390fd5b6000600b60006101000a81548160ff021916908315150217905550565b60006060600b60019054906101000a900473ffffffffffffffffffffffffffffffffffffffff1673ffffffffffffffffffffffffffffffffffffffff166105e5610e8a565b73ffffffffffffffffffffffffffffffffffffffff161461063b576040517f08c379a000000000000000000000000000000000000000000000000000000000815260040161063290611c70565b60405180910390fd5b60001515600b60009054906101000a900460ff16151514610691576040517f08c379a000000000000000000000000000000000000000000000000000000000815260040161068890611c90565b60405180910390fd5b6103e8600454106106d7576040517f08c379a00000000000000000000000000000000000000000000000000000000081526004016106ce90611cb0565b60405180910390fd5b60006106e1610e92565b905061077b8482600554600280546106f890611f6d565b80601f016020809104026020016040519081016040528092919081815260200182805461072490611f6d565b80156107715780601f1061074657610100808354040283529160200191610771565b820191906000526020600020905b81548152906001019060200180831161075457829003601f168201915b50505050506111a7565b6004600081548092919061078e90611fd0565b9190505550600960008573ffffffffffffffffffffffffffffffffffffffff1673ffffffffffffffffffffffffffffffffffffffff16815260200190815260200160002060000181908060018154018082558091505060019003906000526020600020016000909190919091505580600280805461080b90611f6d565b80601f016020809104026020016040519081016040528092919081815260200182805461083790611f6d565b80156108845780601f1061085957610100808354040283529160200191610884565b820191906000526020600020905b81548152906001019060200180831161086757829003601f168201915b505050505090509250925050915091565b6000600b60019054906101000a900473ffffffffffffffffffffffffffffffffffffffff1673ffffffffffffffffffffffffffffffffffffffff166108d8610e8a565b73ffffffffffffffffffffffffffffffffffffffff161461092e576040517f08c379a000000000000000000000000000000000000000000000000000000000815260040161092590611c70565b60405180910390fd5b47905090565b6000606060001515600b60009054906101000a900460ff1615151461098e576040517f08c379a000000000000000000000000000000000000000000000000000000000815260040161098590611c90565b60405180910390fd5b6103e8600454106109d4576040517f08c379a00000000000000000000000000000000000000000000000000000000081526004016109cb90611cb0565b60405180910390fd5b60193414610a17576040517f08c379a0000000000000000000000000000000000000000000000000000000008152600401610a0e90611c10565b60405180910390fd5b6000610a21610e92565b9050610abb848260055460028054610a3890611f6d565b80601f0160208091040260200160405190810160405280929190818152602001828054610a6490611f6d565b8015610ab15780601f10610a8657610100808354040283529160200191610ab1565b820191906000526020600020905b815481529060010190602001808311610a9457829003601f168201915b50505050506111a7565b610acc610ac6610e8a565b3461133d565b60046000815480929190610adf90611fd0565b9190505550600960008573ffffffffffffffffffffffffffffffffffffffff1673ffffffffffffffffffffffffffffffffffffffff168152602001908152602001600020600001819080600181540180825580915050600190039060005260206000200160009091909190915055806002808054610b5c90611f6d565b80601f0160208091040260200160405190810160405280929190818152602001828054610b8890611f6d565b8015610bd55780601f10610baa57610100808354040283529160200191610bd5565b820191906000526020600020905b815481529060010190602001808311610bb857829003601f168201915b505050505090509250925050915091565b6000806000600b60019054906101000a900473ffffffffffffffffffffffffffffffffffffffff1673ffffffffffffffffffffffffffffffffffffffff16610c2c610e8a565b73ffffffffffffffffffffffffffffffffffffffff1614610c82576040517f08c379a0000000000000000000000000000000000000000000000000000000008152600401610c7990611c70565b60405180910390fd5b600654600754600854925092509250909192565b600b60019054906101000a900473ffffffffffffffffffffffffffffffffffffffff1673ffffffffffffffffffffffffffffffffffffffff16610cd7610e8a565b73ffffffffffffffffffffffffffffffffffffffff1614610d2d576040517f08c379a0000000000000000000000000000000000000000000000000000000008152600401610d2490611c70565b60405180910390fd5b60001515600b60009054906101000a900460ff16151514610d83576040517f08c379a0000000000000000000000000000000000000000000000000000000008152600401610d7a90611c50565b60405180910390fd5b6001600b60006101000a81548160ff021916908315150217905550565b600b60019054906101000a900473ffffffffffffffffffffffffffffffffffffffff1681565b60038160148110610dd657600080fd5b60209182820401919006915054906101000a900460ff1681565b6060600960008373ffffffffffffffffffffffffffffffffffffffff1673ffffffffffffffffffffffffffffffffffffffff168152602001908152602001600020600001805480602002602001604051908101604052809291908181526020018280548015610e7e57602002820191906000526020600020905b815481526020019060010190808311610e6a575b50505050509050919050565b600033905090565b6000801515600b60009054906101000a900460ff16151514610ee9576040517f08c379a0000000000000000000000000000000000000000000000000000000008152600401610ee090611c90565b60405180910390fd5b6000610ef3611397565b9050600060038260148110610f0b57610f0a612105565b5b602091828204019190069054906101000a900460ff1660ff169050600081148015610f3857506032600654105b15610fab576040518060400160405280600781526020017f4469616d6f6e640000000000000000000000000000000000000000000000000081525060029080519060200190610f88929190611657565b5060066000815480929190610f9c90611fd0565b919050555080925050506111a4565b60018111158015610fbe57506064600754105b15611031576040518060400160405280600481526020017f476f6c64000000000000000000000000000000000000000000000000000000008152506002908051906020019061100e929190611657565b506007600081548092919061102290611fd0565b919050555080925050506111a4565b60028111158015611046575061035260085411155b156110b9576040518060400160405280600681526020017f53696c766572000000000000000000000000000000000000000000000000000081525060029080519060200190611096929190611657565b50600860008154809291906110aa90611fd0565b919050555080925050506111a4565b6064600754101561113657600190506040518060400160405280600481526020017f476f6c640000000000000000000000000000000000000000000000000000000081525060029080519060200190611113929190611657565b506007600081548092919061112790611fd0565b919050555080925050506111a4565b600090506040518060400160405280600781526020017f4469616d6f6e640000000000000000000000000000000000000000000000000081525060029080519060200190611185929190611657565b506006600081548092919061119990611fd0565b919050555080925050505b90565b600073ffffffffffffffffffffffffffffffffffffffff168473ffffffffffffffffffffffffffffffffffffffff161415611217576040517f08c379a000000000000000000000000000000000000000000000000000000000815260040161120e90611cf0565b60405180910390fd5b6000611221610e8a565b905061124281600087611233886113db565b61123c886113db565b87611455565b8260008086815260200190815260200160002060008773ffffffffffffffffffffffffffffffffffffffff1673ffffffffffffffffffffffffffffffffffffffff16815260200190815260200160002060008282546112a19190611e51565b925050819055508473ffffffffffffffffffffffffffffffffffffffff16600073ffffffffffffffffffffffffffffffffffffffff168273ffffffffffffffffffffffffffffffffffffffff167fc3d58168c5ae7397731d063d5bbf3d657854427343f4c083240f7aacaa2d0f62878760405161131f929190611d5b565b60405180910390a46113368160008787878761145d565b5050505050565b80600a60008473ffffffffffffffffffffffffffffffffffffffff1673ffffffffffffffffffffffffffffffffffffffff168152602001908152602001600020600082825461138c9190611e51565b925050819055505050565b600080601442336040516020016113af929190611ad0565b6040516020818303038152906040528051906020012060001c6113d29190612047565b90508091505090565b60606000600167ffffffffffffffff8111156113fa576113f9612134565b5b6040519080825280602002602001820160405280156114285781602001602082028036833780820191505090505b50905082816000815181106114405761143f612105565b5b60200260200101818152505080915050919050565b505050505050565b61147c8473ffffffffffffffffffffffffffffffffffffffff16611644565b1561163c578373ffffffffffffffffffffffffffffffffffffffff1663f23a6e6187878686866040518663ffffffff1660e01b81526004016114c2959493929190611b17565b602060405180830381600087803b1580156114dc57600080fd5b505af192505050801561150d57506040513d601f19601f8201168201806040525081019061150a91906117a8565b60015b6115b357611519612163565b806308c379a01415611576575061152e6123c1565b806115395750611578565b806040517f08c379a000000000000000000000000000000000000000000000000000000000815260040161156d9190611bae565b60405180910390fd5b505b6040517f08c379a00000000000000000000000000000000000000000000000000000000081526004016115aa90611bd0565b60405180910390fd5b63f23a6e6160e01b7bffffffffffffffffffffffffffffffffffffffffffffffffffffffff1916817bffffffffffffffffffffffffffffffffffffffffffffffffffffffff19161461163a576040517f08c379a000000000000000000000000000000000000000000000000000000000815260040161163190611bf0565b60405180910390fd5b505b505050505050565b600080823b905060008111915050919050565b82805461166390611f6d565b90600052602060002090601f01602090048101928261168557600085556116cc565b82601f1061169e57805160ff19168380011785556116cc565b828001600101855582156116cc579182015b828111156116cb5782518255916020019190600101906116b0565b5b5090506116d991906116dd565b5090565b5b808211156116f65760008160009055506001016116de565b5090565b60008135905061170981612457565b92915050565b60008135905061171e8161246e565b92915050565b60008151905061173381612485565b92915050565b6000813590506117488161249c565b92915050565b60006020828403121561176457611763612185565b5b6000611772848285016116fa565b91505092915050565b60006020828403121561179157611790612185565b5b600061179f8482850161170f565b91505092915050565b6000602082840312156117be576117bd612185565b5b60006117cc84828501611724565b91505092915050565b6000602082840312156117eb576117ea612185565b5b60006117f984828501611739565b91505092915050565b600061180e8383611a8c565b60208301905092915050565b61182381611eb9565b82525050565b61183281611ea7565b82525050565b61184961184482611ea7565b612019565b82525050565b600061185a82611df0565b6118648185611e1e565b935061186f83611de0565b8060005b838110156118a05781516118878882611802565b975061189283611e11565b925050600181019050611873565b5085935050505092915050565b6118b681611ecb565b82525050565b60006118c782611dfb565b6118d18185611e2f565b93506118e1818560208601611f3a565b6118ea8161218a565b840191505092915050565b600061190082611e06565b61190a8185611e40565b935061191a818560208601611f3a565b6119238161218a565b840191505092915050565b600061193b603483611e40565b9150611946826121b5565b604082019050919050565b600061195e602883611e40565b915061196982612204565b604082019050919050565b6000611981601983611e40565b915061198c82612253565b602082019050919050565b60006119a4601b83611e40565b91506119af8261227c565b602082019050919050565b60006119c7601b83611e40565b91506119d2826122a5565b602082019050919050565b60006119ea601c83611e40565b91506119f5826122ce565b602082019050919050565b6000611a0d601b83611e40565b9150611a18826122f7565b602082019050919050565b6000611a30601983611e40565b9150611a3b82612320565b602082019050919050565b6000611a53601d83611e40565b9150611a5e82612349565b602082019050919050565b6000611a76602183611e40565b9150611a8182612372565b604082019050919050565b611a9581611f23565b82525050565b611aa481611f23565b82525050565b611abb611ab682611f23565b61203d565b82525050565b611aca81611f2d565b82525050565b6000611adc8285611aaa565b602082019150611aec8284611838565b6014820191508190509392505050565b6000602082019050611b11600083018461181a565b92915050565b600060a082019050611b2c6000830188611829565b611b396020830187611829565b611b466040830186611a9b565b611b536060830185611a9b565b8181036080830152611b6581846118bc565b90509695505050505050565b60006020820190508181036000830152611b8b818461184f565b905092915050565b6000602082019050611ba860008301846118ad565b92915050565b60006020820190508181036000830152611bc881846118f5565b905092915050565b60006020820190508181036000830152611be98161192e565b9050919050565b60006020820190508181036000830152611c0981611951565b9050919050565b60006020820190508181036000830152611c2981611974565b9050919050565b60006020820190508181036000830152611c4981611997565b9050919050565b60006020820190508181036000830152611c69816119ba565b9050919050565b60006020820190508181036000830152611c89816119dd565b9050919050565b60006020820190508181036000830152611ca981611a00565b9050919050565b60006020820190508181036000830152611cc981611a23565b9050919050565b60006020820190508181036000830152611ce981611a46565b9050919050565b60006020820190508181036000830152611d0981611a69565b9050919050565b6000602082019050611d256000830184611a9b565b92915050565b6000604082019050611d406000830185611a9b565b8181036020830152611d5281846118f5565b90509392505050565b6000604082019050611d706000830185611a9b565b611d7d6020830184611a9b565b9392505050565b6000606082019050611d996000830186611a9b565b611da66020830185611a9b565b611db36040830184611a9b565b949350505050565b6000602082019050611dd06000830184611ac1565b92915050565b6000604051905090565b6000819050602082019050919050565b600081519050919050565b600081519050919050565b600081519050919050565b6000602082019050919050565b600082825260208201905092915050565b600082825260208201905092915050565b600082825260208201905092915050565b6000611e5c82611f23565b9150611e6783611f23565b9250827fffffffffffffffffffffffffffffffffffffffffffffffffffffffffffffffff03821115611e9c57611e9b612078565b5b828201905092915050565b6000611eb282611f03565b9050919050565b6000611ec482611f03565b9050919050565b60008115159050919050565b60007fffffffff0000000000000000000000000000000000000000000000000000000082169050919050565b600073ffffffffffffffffffffffffffffffffffffffff82169050919050565b6000819050919050565b600060ff82169050919050565b60005b83811015611f58578082015181840152602081019050611f3d565b83811115611f67576000848401525b50505050565b60006002820490506001821680611f8557607f821691505b60208210811415611f9957611f986120d6565b5b50919050565b611fa88261218a565b810181811067ffffffffffffffff82111715611fc757611fc6612134565b5b80604052505050565b6000611fdb82611f23565b91507fffffffffffffffffffffffffffffffffffffffffffffffffffffffffffffffff82141561200e5761200d612078565b5b600182019050919050565b60006120248261202b565b9050919050565b60006120368261219b565b9050919050565b6000819050919050565b600061205282611f23565b915061205d83611f23565b92508261206d5761206c6120a7565b5b828206905092915050565b7f4e487b7100000000000000000000000000000000000000000000000000000000600052601160045260246000fd5b7f4e487b7100000000000000000000000000000000000000000000000000000000600052601260045260246000fd5b7f4e487b7100000000000000000000000000000000000000000000000000000000600052602260045260246000fd5b7f4e487b7100000000000000000000000000000000000000000000000000000000600052603260045260246000fd5b7f4e487b7100000000000000000000000000000000000000000000000000000000600052604160045260246000fd5b600060033d11156121825760046000803e61217f6000516121a8565b90505b90565b600080fd5b6000601f19601f8301169050919050565b60008160601b9050919050565b60008160e01c9050919050565b7f455243313135353a207472616e7366657220746f206e6f6e204552433131353560008201527f526563656976657220696d706c656d656e746572000000000000000000000000602082015250565b7f455243313135353a204552433131353552656365697665722072656a6563746560008201527f6420746f6b656e73000000000000000000000000000000000000000000000000602082015250565b7f42616c616e6365206d757374206265203235204d617469637300000000000000600082015250565b7f44726f707369746520697320616c72656164792052756e6e696e670000000000600082015250565b7f44726f707369746520697320616c72656164792053746f707065640000000000600082015250565b7f4f6e6c79204e46542d4553204f776e65722063616e2041636365737300000000600082015250565b7f44726f7073697465206973206e6f74204f70656e6564205965742e0000000000600082015250565b7f4d6178204d696e74696e67204c696d6974207265616368656400000000000000600082015250565b7f4572726f7221204e6f2042616c616e636520746f207769746864726177000000600082015250565b7f455243313135353a206d696e7420746f20746865207a65726f2061646472657360008201527f7300000000000000000000000000000000000000000000000000000000000000602082015250565b600060443d10156123d157612454565b6123d9611dd6565b60043d036004823e80513d602482011167ffffffffffffffff82111715612401575050612454565b808201805167ffffffffffffffff81111561241f5750505050612454565b80602083010160043d03850181111561243c575050505050612454565b61244b82602001850186611f9f565b82955050505050505b90565b61246081611ea7565b811461246b57600080fd5b50565b61247781611eb9565b811461248257600080fd5b50565b61248e81611ed7565b811461249957600080fd5b50565b6124a581611f23565b81146124b057600080fd5b5056fea2646970667358221220c3135b05d4fb52c9d781160867e3deb5a08b8770b7637f6277d9938efdf1427964736f6c63430008070033",
					"opcodes": "PUSH1 0x80 PUSH1 0x40 MSTORE PUSH1 0x40 MLOAD DUP1 PUSH1 0x20 ADD PUSH1 0x40 MSTORE DUP1 PUSH1 0x0 DUP2 MSTORE POP PUSH1 0x2 SWAP1 DUP1 MLOAD SWAP1 PUSH1 0x20 ADD SWAP1 PUSH3 0x2B SWAP3 SWAP2 SWAP1 PUSH3 0x1E8 JUMP JUMPDEST POP PUSH1 0x40 MLOAD DUP1 PUSH2 0x280 ADD PUSH1 0x40 MSTORE DUP1 PUSH1 0x0 PUSH1 0xFF AND DUP2 MSTORE PUSH1 0x20 ADD PUSH1 0x1 PUSH1 0xFF AND DUP2 MSTORE PUSH1 0x20 ADD PUSH1 0x1 PUSH1 0xFF AND DUP2 MSTORE PUSH1 0x20 ADD PUSH1 0x2 PUSH1 0xFF AND DUP2 MSTORE PUSH1 0x20 ADD PUSH1 0x2 PUSH1 0xFF AND DUP2 MSTORE PUSH1 0x20 ADD PUSH1 0x2 PUSH1 0xFF AND DUP2 MSTORE PUSH1 0x20 ADD PUSH1 0x2 PUSH1 0xFF AND DUP2 MSTORE PUSH1 0x20 ADD PUSH1 0x2 PUSH1 0xFF AND DUP2 MSTORE PUSH1 0x20 ADD PUSH1 0x2 PUSH1 0xFF AND DUP2 MSTORE PUSH1 0x20 ADD PUSH1 0x2 PUSH1 0xFF AND DUP2 MSTORE PUSH1 0x20 ADD PUSH1 0x2 PUSH1 0xFF AND DUP2 MSTORE PUSH1 0x20 ADD PUSH1 0x2 PUSH1 0xFF AND DUP2 MSTORE PUSH1 0x20 ADD PUSH1 0x2 PUSH1 0xFF AND DUP2 MSTORE PUSH1 0x20 ADD PUSH1 0x2 PUSH1 0xFF AND DUP2 MSTORE PUSH1 0x20 ADD PUSH1 0x2 PUSH1 0xFF AND DUP2 MSTORE PUSH1 0x20 ADD PUSH1 0x2 PUSH1 0xFF AND DUP2 MSTORE PUSH1 0x20 ADD PUSH1 0x2 PUSH1 0xFF AND DUP2 MSTORE PUSH1 0x20 ADD PUSH1 0x2 PUSH1 0xFF AND DUP2 MSTORE PUSH1 0x20 ADD PUSH1 0x2 PUSH1 0xFF AND DUP2 MSTORE PUSH1 0x20 ADD PUSH1 0x2 PUSH1 0xFF AND DUP2 MSTORE POP PUSH1 0x3 SWAP1 PUSH1 0x14 PUSH3 0x110 SWAP3 SWAP2 SWAP1 PUSH3 0x279 JUMP JUMPDEST POP PUSH1 0x1 PUSH1 0xB PUSH1 0x0 PUSH2 0x100 EXP DUP2 SLOAD DUP2 PUSH1 0xFF MUL NOT AND SWAP1 DUP4 ISZERO ISZERO MUL OR SWAP1 SSTORE POP CALLVALUE DUP1 ISZERO PUSH3 0x139 JUMPI PUSH1 0x0 DUP1 REVERT JUMPDEST POP PUSH1 0x40 MLOAD PUSH3 0x2B16 CODESIZE SUB DUP1 PUSH3 0x2B16 DUP4 CODECOPY DUP2 DUP2 ADD PUSH1 0x40 MSTORE DUP2 ADD SWAP1 PUSH3 0x15F SWAP2 SWAP1 PUSH3 0x448 JUMP JUMPDEST DUP1 PUSH1 0xC SWAP1 DUP1 MLOAD SWAP1 PUSH1 0x20 ADD SWAP1 PUSH3 0x177 SWAP3 SWAP2 SWAP1 PUSH3 0x31A JUMP JUMPDEST POP CALLER PUSH1 0xB PUSH1 0x1 PUSH2 0x100 EXP DUP2 SLOAD DUP2 PUSH20 0xFFFFFFFFFFFFFFFFFFFFFFFFFFFFFFFFFFFFFFFF MUL NOT AND SWAP1 DUP4 PUSH20 0xFFFFFFFFFFFFFFFFFFFFFFFFFFFFFFFFFFFFFFFF AND MUL OR SWAP1 SSTORE POP PUSH1 0x0 PUSH1 0x4 DUP2 SWAP1 SSTORE POP PUSH1 0x1 PUSH1 0x5 DUP2 SWAP1 SSTORE POP PUSH1 0x0 PUSH1 0x6 DUP2 SWAP1 SSTORE POP PUSH1 0x0 PUSH1 0x7 DUP2 SWAP1 SSTORE POP PUSH1 0x0 PUSH1 0x8 DUP2 SWAP1 SSTORE POP POP PUSH3 0x61D JUMP JUMPDEST DUP3 DUP1 SLOAD PUSH3 0x1F6 SWAP1 PUSH3 0x52E JUMP JUMPDEST SWAP1 PUSH1 0x0 MSTORE PUSH1 0x20 PUSH1 0x0 KECCAK256 SWAP1 PUSH1 0x1F ADD PUSH1 0x20 SWAP1 DIV DUP2 ADD SWAP3 DUP3 PUSH3 0x21A JUMPI PUSH1 0x0 DUP6 SSTORE PUSH3 0x266 JUMP JUMPDEST DUP3 PUSH1 0x1F LT PUSH3 0x235 JUMPI DUP1 MLOAD PUSH1 0xFF NOT AND DUP4 DUP1 ADD OR DUP6 SSTORE PUSH3 0x266 JUMP JUMPDEST DUP3 DUP1 ADD PUSH1 0x1 ADD DUP6 SSTORE DUP3 ISZERO PUSH3 0x266 JUMPI SWAP2 DUP3 ADD JUMPDEST DUP3 DUP2 GT ISZERO PUSH3 0x265 JUMPI DUP3 MLOAD DUP3 SSTORE SWAP2 PUSH1 0x20 ADD SWAP2 SWAP1 PUSH1 0x1 ADD SWAP1 PUSH3 0x248 JUMP JUMPDEST JUMPDEST POP SWAP1 POP PUSH3 0x275 SWAP2 SWAP1 PUSH3 0x3AB JUMP JUMPDEST POP SWAP1 JUMP JUMPDEST DUP3 PUSH1 0x14 PUSH1 0x1F ADD PUSH1 0x20 SWAP1 DIV DUP2 ADD SWAP3 DUP3 ISZERO PUSH3 0x307 JUMPI SWAP2 PUSH1 0x20 MUL DUP3 ADD PUSH1 0x0 JUMPDEST DUP4 DUP3 GT ISZERO PUSH3 0x2D6 JUMPI DUP4 MLOAD DUP4 DUP3 PUSH2 0x100 EXP DUP2 SLOAD DUP2 PUSH1 0xFF MUL NOT AND SWAP1 DUP4 PUSH1 0xFF AND MUL OR SWAP1 SSTORE POP SWAP3 PUSH1 0x20 ADD SWAP3 PUSH1 0x1 ADD PUSH1 0x20 DUP2 PUSH1 0x0 ADD DIV SWAP3 DUP4 ADD SWAP3 PUSH1 0x1 SUB MUL PUSH3 0x296 JUMP JUMPDEST DUP1 ISZERO PUSH3 0x305 JUMPI DUP3 DUP2 PUSH2 0x100 EXP DUP2 SLOAD SWAP1 PUSH1 0xFF MUL NOT AND SWAP1 SSTORE PUSH1 0x1 ADD PUSH1 0x20 DUP2 PUSH1 0x0 ADD DIV SWAP3 DUP4 ADD SWAP3 PUSH1 0x1 SUB MUL PUSH3 0x2D6 JUMP JUMPDEST POP JUMPDEST POP SWAP1 POP PUSH3 0x316 SWAP2 SWAP1 PUSH3 0x3AB JUMP JUMPDEST POP SWAP1 JUMP JUMPDEST DUP3 DUP1 SLOAD PUSH3 0x328 SWAP1 PUSH3 0x52E JUMP JUMPDEST SWAP1 PUSH1 0x0 MSTORE PUSH1 0x20 PUSH1 0x0 KECCAK256 SWAP1 PUSH1 0x1F ADD PUSH1 0x20 SWAP1 DIV DUP2 ADD SWAP3 DUP3 PUSH3 0x34C JUMPI PUSH1 0x0 DUP6 SSTORE PUSH3 0x398 JUMP JUMPDEST DUP3 PUSH1 0x1F LT PUSH3 0x367 JUMPI DUP1 MLOAD PUSH1 0xFF NOT AND DUP4 DUP1 ADD OR DUP6 SSTORE PUSH3 0x398 JUMP JUMPDEST DUP3 DUP1 ADD PUSH1 0x1 ADD DUP6 SSTORE DUP3 ISZERO PUSH3 0x398 JUMPI SWAP2 DUP3 ADD JUMPDEST DUP3 DUP2 GT ISZERO PUSH3 0x397 JUMPI DUP3 MLOAD DUP3 SSTORE SWAP2 PUSH1 0x20 ADD SWAP2 SWAP1 PUSH1 0x1 ADD SWAP1 PUSH3 0x37A JUMP JUMPDEST JUMPDEST POP SWAP1 POP PUSH3 0x3A7 SWAP2 SWAP1 PUSH3 0x3AB JUMP JUMPDEST POP SWAP1 JUMP JUMPDEST JUMPDEST DUP1 DUP3 GT ISZERO PUSH3 0x3C6 JUMPI PUSH1 0x0 DUP2 PUSH1 0x0 SWAP1 SSTORE POP PUSH1 0x1 ADD PUSH3 0x3AC JUMP JUMPDEST POP SWAP1 JUMP JUMPDEST PUSH1 0x0 PUSH3 0x3E1 PUSH3 0x3DB DUP5 PUSH3 0x4C2 JUMP JUMPDEST PUSH3 0x499 JUMP JUMPDEST SWAP1 POP DUP3 DUP2 MSTORE PUSH1 0x20 DUP2 ADD DUP5 DUP5 DUP5 ADD GT ISZERO PUSH3 0x400 JUMPI PUSH3 0x3FF PUSH3 0x5FD JUMP JUMPDEST JUMPDEST PUSH3 0x40D DUP5 DUP3 DUP6 PUSH3 0x4F8 JUMP JUMPDEST POP SWAP4 SWAP3 POP POP POP JUMP JUMPDEST PUSH1 0x0 DUP3 PUSH1 0x1F DUP4 ADD SLT PUSH3 0x42D JUMPI PUSH3 0x42C PUSH3 0x5F8 JUMP JUMPDEST JUMPDEST DUP2 MLOAD PUSH3 0x43F DUP5 DUP3 PUSH1 0x20 DUP7 ADD PUSH3 0x3CA JUMP JUMPDEST SWAP2 POP POP SWAP3 SWAP2 POP POP JUMP JUMPDEST PUSH1 0x0 PUSH1 0x20 DUP3 DUP5 SUB SLT ISZERO PUSH3 0x461 JUMPI PUSH3 0x460 PUSH3 0x607 JUMP JUMPDEST JUMPDEST PUSH1 0x0 DUP3 ADD MLOAD PUSH8 0xFFFFFFFFFFFFFFFF DUP2 GT ISZERO PUSH3 0x482 JUMPI PUSH3 0x481 PUSH3 0x602 JUMP JUMPDEST JUMPDEST PUSH3 0x490 DUP5 DUP3 DUP6 ADD PUSH3 0x415 JUMP JUMPDEST SWAP2 POP POP SWAP3 SWAP2 POP POP JUMP JUMPDEST PUSH1 0x0 PUSH3 0x4A5 PUSH3 0x4B8 JUMP JUMPDEST SWAP1 POP PUSH3 0x4B3 DUP3 DUP3 PUSH3 0x564 JUMP JUMPDEST SWAP2 SWAP1 POP JUMP JUMPDEST PUSH1 0x0 PUSH1 0x40 MLOAD SWAP1 POP SWAP1 JUMP JUMPDEST PUSH1 0x0 PUSH8 0xFFFFFFFFFFFFFFFF DUP3 GT ISZERO PUSH3 0x4E0 JUMPI PUSH3 0x4DF PUSH3 0x5C9 JUMP JUMPDEST JUMPDEST PUSH3 0x4EB DUP3 PUSH3 0x60C JUMP JUMPDEST SWAP1 POP PUSH1 0x20 DUP2 ADD SWAP1 POP SWAP2 SWAP1 POP JUMP JUMPDEST PUSH1 0x0 JUMPDEST DUP4 DUP2 LT ISZERO PUSH3 0x518 JUMPI DUP1 DUP3 ADD MLOAD DUP2 DUP5 ADD MSTORE PUSH1 0x20 DUP2 ADD SWAP1 POP PUSH3 0x4FB JUMP JUMPDEST DUP4 DUP2 GT ISZERO PUSH3 0x528 JUMPI PUSH1 0x0 DUP5 DUP5 ADD MSTORE JUMPDEST POP POP POP POP JUMP JUMPDEST PUSH1 0x0 PUSH1 0x2 DUP3 DIV SWAP1 POP PUSH1 0x1 DUP3 AND DUP1 PUSH3 0x547 JUMPI PUSH1 0x7F DUP3 AND SWAP2 POP JUMPDEST PUSH1 0x20 DUP3 LT DUP2 EQ ISZERO PUSH3 0x55E JUMPI PUSH3 0x55D PUSH3 0x59A JUMP JUMPDEST JUMPDEST POP SWAP2 SWAP1 POP JUMP JUMPDEST PUSH3 0x56F DUP3 PUSH3 0x60C JUMP JUMPDEST DUP2 ADD DUP2 DUP2 LT PUSH8 0xFFFFFFFFFFFFFFFF DUP3 GT OR ISZERO PUSH3 0x591 JUMPI PUSH3 0x590 PUSH3 0x5C9 JUMP JUMPDEST JUMPDEST DUP1 PUSH1 0x40 MSTORE POP POP POP JUMP JUMPDEST PUSH32 0x4E487B7100000000000000000000000000000000000000000000000000000000 PUSH1 0x0 MSTORE PUSH1 0x22 PUSH1 0x4 MSTORE PUSH1 0x24 PUSH1 0x0 REVERT JUMPDEST PUSH32 0x4E487B7100000000000000000000000000000000000000000000000000000000 PUSH1 0x0 MSTORE PUSH1 0x41 PUSH1 0x4 MSTORE PUSH1 0x24 PUSH1 0x0 REVERT JUMPDEST PUSH1 0x0 DUP1 REVERT JUMPDEST PUSH1 0x0 DUP1 REVERT JUMPDEST PUSH1 0x0 DUP1 REVERT JUMPDEST PUSH1 0x0 DUP1 REVERT JUMPDEST PUSH1 0x0 PUSH1 0x1F NOT PUSH1 0x1F DUP4 ADD AND SWAP1 POP SWAP2 SWAP1 POP JUMP JUMPDEST PUSH2 0x24E9 DUP1 PUSH3 0x62D PUSH1 0x0 CODECOPY PUSH1 0x0 RETURN INVALID PUSH1 0x80 PUSH1 0x40 MSTORE PUSH1 0x4 CALLDATASIZE LT PUSH2 0xA7 JUMPI PUSH1 0x0 CALLDATALOAD PUSH1 0xE0 SHR DUP1 PUSH4 0x3D65DF70 GT PUSH2 0x64 JUMPI DUP1 PUSH4 0x3D65DF70 EQ PUSH2 0x19E JUMPI DUP1 PUSH4 0x60DAA851 EQ PUSH2 0x1CF JUMPI DUP1 PUSH4 0xAA90C726 EQ PUSH2 0x1FC JUMPI DUP1 PUSH4 0xB4A99A4E EQ PUSH2 0x213 JUMPI DUP1 PUSH4 0xFD1EE54C EQ PUSH2 0x23E JUMPI DUP1 PUSH4 0xFD6C3B1B EQ PUSH2 0x27B JUMPI PUSH2 0xA7 JUMP JUMPDEST DUP1 PUSH4 0x390C11C EQ PUSH2 0xAC JUMPI DUP1 PUSH4 0xA67D2C7 EQ PUSH2 0xD7 JUMPI DUP1 PUSH4 0x1309A563 EQ PUSH2 0xF3 JUMPI DUP1 PUSH4 0x15460259 EQ PUSH2 0x11E JUMPI DUP1 PUSH4 0x32B61B4C EQ PUSH2 0x135 JUMPI DUP1 PUSH4 0x3B668059 EQ PUSH2 0x173 JUMPI JUMPDEST PUSH1 0x0 DUP1 REVERT JUMPDEST CALLVALUE DUP1 ISZERO PUSH2 0xB8 JUMPI PUSH1 0x0 DUP1 REVERT JUMPDEST POP PUSH2 0xC1 PUSH2 0x2B8 JUMP JUMPDEST PUSH1 0x40 MLOAD PUSH2 0xCE SWAP2 SWAP1 PUSH2 0x1D10 JUMP JUMPDEST PUSH1 0x40 MLOAD DUP1 SWAP2 SUB SWAP1 RETURN JUMPDEST PUSH2 0xF1 PUSH1 0x4 DUP1 CALLDATASIZE SUB DUP2 ADD SWAP1 PUSH2 0xEC SWAP2 SWAP1 PUSH2 0x177B JUMP JUMPDEST PUSH2 0x359 JUMP JUMPDEST STOP JUMPDEST CALLVALUE DUP1 ISZERO PUSH2 0xFF JUMPI PUSH1 0x0 DUP1 REVERT JUMPDEST POP PUSH2 0x108 PUSH2 0x483 JUMP JUMPDEST PUSH1 0x40 MLOAD PUSH2 0x115 SWAP2 SWAP1 PUSH2 0x1B93 JUMP JUMPDEST PUSH1 0x40 MLOAD DUP1 SWAP2 SUB SWAP1 RETURN JUMPDEST CALLVALUE DUP1 ISZERO PUSH2 0x12A JUMPI PUSH1 0x0 DUP1 REVERT JUMPDEST POP PUSH2 0x133 PUSH2 0x496 JUMP JUMPDEST STOP JUMPDEST CALLVALUE DUP1 ISZERO PUSH2 0x141 JUMPI PUSH1 0x0 DUP1 REVERT JUMPDEST POP PUSH2 0x15C PUSH1 0x4 DUP1 CALLDATASIZE SUB DUP2 ADD SWAP1 PUSH2 0x157 SWAP2 SWAP1 PUSH2 0x174E JUMP JUMPDEST PUSH2 0x5A0 JUMP JUMPDEST PUSH1 0x40 MLOAD PUSH2 0x16A SWAP3 SWAP2 SWAP1 PUSH2 0x1D2B JUMP JUMPDEST PUSH1 0x40 MLOAD DUP1 SWAP2 SUB SWAP1 RETURN JUMPDEST CALLVALUE DUP1 ISZERO PUSH2 0x17F JUMPI PUSH1 0x0 DUP1 REVERT JUMPDEST POP PUSH2 0x188 PUSH2 0x895 JUMP JUMPDEST PUSH1 0x40 MLOAD PUSH2 0x195 SWAP2 SWAP1 PUSH2 0x1D10 JUMP JUMPDEST PUSH1 0x40 MLOAD DUP1 SWAP2 SUB SWAP1 RETURN JUMPDEST PUSH2 0x1B8 PUSH1 0x4 DUP1 CALLDATASIZE SUB DUP2 ADD SWAP1 PUSH2 0x1B3 SWAP2 SWAP1 PUSH2 0x174E JUMP JUMPDEST PUSH2 0x934 JUMP JUMPDEST PUSH1 0x40 MLOAD PUSH2 0x1C6 SWAP3 SWAP2 SWAP1 PUSH2 0x1D2B JUMP JUMPDEST PUSH1 0x40 MLOAD DUP1 SWAP2 SUB SWAP1 RETURN JUMPDEST CALLVALUE DUP1 ISZERO PUSH2 0x1DB JUMPI PUSH1 0x0 DUP1 REVERT JUMPDEST POP PUSH2 0x1E4 PUSH2 0xBE6 JUMP JUMPDEST PUSH1 0x40 MLOAD PUSH2 0x1F3 SWAP4 SWAP3 SWAP2 SWAP1 PUSH2 0x1D84 JUMP JUMPDEST PUSH1 0x40 MLOAD DUP1 SWAP2 SUB SWAP1 RETURN JUMPDEST CALLVALUE DUP1 ISZERO PUSH2 0x208 JUMPI PUSH1 0x0 DUP1 REVERT JUMPDEST POP PUSH2 0x211 PUSH2 0xC96 JUMP JUMPDEST STOP JUMPDEST CALLVALUE DUP1 ISZERO PUSH2 0x21F JUMPI PUSH1 0x0 DUP1 REVERT JUMPDEST POP PUSH2 0x228 PUSH2 0xDA0 JUMP JUMPDEST PUSH1 0x40 MLOAD PUSH2 0x235 SWAP2 SWAP1 PUSH2 0x1AFC JUMP JUMPDEST PUSH1 0x40 MLOAD DUP1 SWAP2 SUB SWAP1 RETURN JUMPDEST CALLVALUE DUP1 ISZERO PUSH2 0x24A JUMPI PUSH1 0x0 DUP1 REVERT JUMPDEST POP PUSH2 0x265 PUSH1 0x4 DUP1 CALLDATASIZE SUB DUP2 ADD SWAP1 PUSH2 0x260 SWAP2 SWAP1 PUSH2 0x17D5 JUMP JUMPDEST PUSH2 0xDC6 JUMP JUMPDEST PUSH1 0x40 MLOAD PUSH2 0x272 SWAP2 SWAP1 PUSH2 0x1DBB JUMP JUMPDEST PUSH1 0x40 MLOAD DUP1 SWAP2 SUB SWAP1 RETURN JUMPDEST CALLVALUE DUP1 ISZERO PUSH2 0x287 JUMPI PUSH1 0x0 DUP1 REVERT JUMPDEST POP PUSH2 0x2A2 PUSH1 0x4 DUP1 CALLDATASIZE SUB DUP2 ADD SWAP1 PUSH2 0x29D SWAP2 SWAP1 PUSH2 0x174E JUMP JUMPDEST PUSH2 0xDF0 JUMP JUMPDEST PUSH1 0x40 MLOAD PUSH2 0x2AF SWAP2 SWAP1 PUSH2 0x1B71 JUMP JUMPDEST PUSH1 0x40 MLOAD DUP1 SWAP2 SUB SWAP1 RETURN JUMPDEST PUSH1 0x0 PUSH1 0xB PUSH1 0x1 SWAP1 SLOAD SWAP1 PUSH2 0x100 EXP SWAP1 DIV PUSH20 0xFFFFFFFFFFFFFFFFFFFFFFFFFFFFFFFFFFFFFFFF AND PUSH20 0xFFFFFFFFFFFFFFFFFFFFFFFFFFFFFFFFFFFFFFFF AND PUSH2 0x2FB PUSH2 0xE8A JUMP JUMPDEST PUSH20 0xFFFFFFFFFFFFFFFFFFFFFFFFFFFFFFFFFFFFFFFF AND EQ PUSH2 0x351 JUMPI PUSH1 0x40 MLOAD PUSH32 0x8C379A000000000000000000000000000000000000000000000000000000000 DUP2 MSTORE PUSH1 0x4 ADD PUSH2 0x348 SWAP1 PUSH2 0x1C70 JUMP JUMPDEST PUSH1 0x40 MLOAD DUP1 SWAP2 SUB SWAP1 REVERT JUMPDEST PUSH1 0x4 SLOAD SWAP1 POP SWAP1 JUMP JUMPDEST PUSH1 0xB PUSH1 0x1 SWAP1 SLOAD SWAP1 PUSH2 0x100 EXP SWAP1 DIV PUSH20 0xFFFFFFFFFFFFFFFFFFFFFFFFFFFFFFFFFFFFFFFF AND PUSH20 0xFFFFFFFFFFFFFFFFFFFFFFFFFFFFFFFFFFFFFFFF AND PUSH2 0x39A PUSH2 0xE8A JUMP JUMPDEST PUSH20 0xFFFFFFFFFFFFFFFFFFFFFFFFFFFFFFFFFFFFFFFF AND EQ PUSH2 0x3F0 JUMPI PUSH1 0x40 MLOAD PUSH32 0x8C379A000000000000000000000000000000000000000000000000000000000 DUP2 MSTORE PUSH1 0x4 ADD PUSH2 0x3E7 SWAP1 PUSH2 0x1C70 JUMP JUMPDEST PUSH1 0x40 MLOAD DUP1 SWAP2 SUB SWAP1 REVERT JUMPDEST PUSH1 0x0 SELFBALANCE SWAP1 POP PUSH1 0x0 DUP2 GT PUSH2 0x438 JUMPI PUSH1 0x40 MLOAD PUSH32 0x8C379A000000000000000000000000000000000000000000000000000000000 DUP2 MSTORE PUSH1 0x4 ADD PUSH2 0x42F SWAP1 PUSH2 0x1CD0 JUMP JUMPDEST PUSH1 0x40 MLOAD DUP1 SWAP2 SUB SWAP1 REVERT JUMPDEST DUP2 PUSH20 0xFFFFFFFFFFFFFFFFFFFFFFFFFFFFFFFFFFFFFFFF AND PUSH2 0x8FC DUP3 SWAP1 DUP2 ISZERO MUL SWAP1 PUSH1 0x40 MLOAD PUSH1 0x0 PUSH1 0x40 MLOAD DUP1 DUP4 SUB DUP2 DUP6 DUP9 DUP9 CALL SWAP4 POP POP POP POP ISZERO DUP1 ISZERO PUSH2 0x47E JUMPI RETURNDATASIZE PUSH1 0x0 DUP1 RETURNDATACOPY RETURNDATASIZE PUSH1 0x0 REVERT JUMPDEST POP POP POP JUMP JUMPDEST PUSH1 0xB PUSH1 0x0 SWAP1 SLOAD SWAP1 PUSH2 0x100 EXP SWAP1 DIV PUSH1 0xFF AND DUP2 JUMP JUMPDEST PUSH1 0xB PUSH1 0x1 SWAP1 SLOAD SWAP1 PUSH2 0x100 EXP SWAP1 DIV PUSH20 0xFFFFFFFFFFFFFFFFFFFFFFFFFFFFFFFFFFFFFFFF AND PUSH20 0xFFFFFFFFFFFFFFFFFFFFFFFFFFFFFFFFFFFFFFFF AND PUSH2 0x4D7 PUSH2 0xE8A JUMP JUMPDEST PUSH20 0xFFFFFFFFFFFFFFFFFFFFFFFFFFFFFFFFFFFFFFFF AND EQ PUSH2 0x52D JUMPI PUSH1 0x40 MLOAD PUSH32 0x8C379A000000000000000000000000000000000000000000000000000000000 DUP2 MSTORE PUSH1 0x4 ADD PUSH2 0x524 SWAP1 PUSH2 0x1C70 JUMP JUMPDEST PUSH1 0x40 MLOAD DUP1 SWAP2 SUB SWAP1 REVERT JUMPDEST PUSH1 0x1 ISZERO ISZERO PUSH1 0xB PUSH1 0x0 SWAP1 SLOAD SWAP1 PUSH2 0x100 EXP SWAP1 DIV PUSH1 0xFF AND ISZERO ISZERO EQ PUSH2 0x583 JUMPI PUSH1 0x40 MLOAD PUSH32 0x8C379A000000000000000000000000000000000000000000000000000000000 DUP2 MSTORE PUSH1 0x4 ADD PUSH2 0x57A SWAP1 PUSH2 0x1C30 JUMP JUMPDEST PUSH1 0x40 MLOAD DUP1 SWAP2 SUB SWAP1 REVERT JUMPDEST PUSH1 0x0 PUSH1 0xB PUSH1 0x0 PUSH2 0x100 EXP DUP2 SLOAD DUP2 PUSH1 0xFF MUL NOT AND SWAP1 DUP4 ISZERO ISZERO MUL OR SWAP1 SSTORE POP JUMP JUMPDEST PUSH1 0x0 PUSH1 0x60 PUSH1 0xB PUSH1 0x1 SWAP1 SLOAD SWAP1 PUSH2 0x100 EXP SWAP1 DIV PUSH20 0xFFFFFFFFFFFFFFFFFFFFFFFFFFFFFFFFFFFFFFFF AND PUSH20 0xFFFFFFFFFFFFFFFFFFFFFFFFFFFFFFFFFFFFFFFF AND PUSH2 0x5E5 PUSH2 0xE8A JUMP JUMPDEST PUSH20 0xFFFFFFFFFFFFFFFFFFFFFFFFFFFFFFFFFFFFFFFF AND EQ PUSH2 0x63B JUMPI PUSH1 0x40 MLOAD PUSH32 0x8C379A000000000000000000000000000000000000000000000000000000000 DUP2 MSTORE PUSH1 0x4 ADD PUSH2 0x632 SWAP1 PUSH2 0x1C70 JUMP JUMPDEST PUSH1 0x40 MLOAD DUP1 SWAP2 SUB SWAP1 REVERT JUMPDEST PUSH1 0x0 ISZERO ISZERO PUSH1 0xB PUSH1 0x0 SWAP1 SLOAD SWAP1 PUSH2 0x100 EXP SWAP1 DIV PUSH1 0xFF AND ISZERO ISZERO EQ PUSH2 0x691 JUMPI PUSH1 0x40 MLOAD PUSH32 0x8C379A000000000000000000000000000000000000000000000000000000000 DUP2 MSTORE PUSH1 0x4 ADD PUSH2 0x688 SWAP1 PUSH2 0x1C90 JUMP JUMPDEST PUSH1 0x40 MLOAD DUP1 SWAP2 SUB SWAP1 REVERT JUMPDEST PUSH2 0x3E8 PUSH1 0x4 SLOAD LT PUSH2 0x6D7 JUMPI PUSH1 0x40 MLOAD PUSH32 0x8C379A000000000000000000000000000000000000000000000000000000000 DUP2 MSTORE PUSH1 0x4 ADD PUSH2 0x6CE SWAP1 PUSH2 0x1CB0 JUMP JUMPDEST PUSH1 0x40 MLOAD DUP1 SWAP2 SUB SWAP1 REVERT JUMPDEST PUSH1 0x0 PUSH2 0x6E1 PUSH2 0xE92 JUMP JUMPDEST SWAP1 POP PUSH2 0x77B DUP5 DUP3 PUSH1 0x5 SLOAD PUSH1 0x2 DUP1 SLOAD PUSH2 0x6F8 SWAP1 PUSH2 0x1F6D JUMP JUMPDEST DUP1 PUSH1 0x1F ADD PUSH1 0x20 DUP1 SWAP2 DIV MUL PUSH1 0x20 ADD PUSH1 0x40 MLOAD SWAP1 DUP2 ADD PUSH1 0x40 MSTORE DUP1 SWAP3 SWAP2 SWAP1 DUP2 DUP2 MSTORE PUSH1 0x20 ADD DUP3 DUP1 SLOAD PUSH2 0x724 SWAP1 PUSH2 0x1F6D JUMP JUMPDEST DUP1 ISZERO PUSH2 0x771 JUMPI DUP1 PUSH1 0x1F LT PUSH2 0x746 JUMPI PUSH2 0x100 DUP1 DUP4 SLOAD DIV MUL DUP4 MSTORE SWAP2 PUSH1 0x20 ADD SWAP2 PUSH2 0x771 JUMP JUMPDEST DUP3 ADD SWAP2 SWAP1 PUSH1 0x0 MSTORE PUSH1 0x20 PUSH1 0x0 KECCAK256 SWAP1 JUMPDEST DUP2 SLOAD DUP2 MSTORE SWAP1 PUSH1 0x1 ADD SWAP1 PUSH1 0x20 ADD DUP1 DUP4 GT PUSH2 0x754 JUMPI DUP3 SWAP1 SUB PUSH1 0x1F AND DUP3 ADD SWAP2 JUMPDEST POP POP POP POP POP PUSH2 0x11A7 JUMP JUMPDEST PUSH1 0x4 PUSH1 0x0 DUP2 SLOAD DUP1 SWAP3 SWAP2 SWAP1 PUSH2 0x78E SWAP1 PUSH2 0x1FD0 JUMP JUMPDEST SWAP2 SWAP1 POP SSTORE POP PUSH1 0x9 PUSH1 0x0 DUP6 PUSH20 0xFFFFFFFFFFFFFFFFFFFFFFFFFFFFFFFFFFFFFFFF AND PUSH20 0xFFFFFFFFFFFFFFFFFFFFFFFFFFFFFFFFFFFFFFFF AND DUP2 MSTORE PUSH1 0x20 ADD SWAP1 DUP2 MSTORE PUSH1 0x20 ADD PUSH1 0x0 KECCAK256 PUSH1 0x0 ADD DUP2 SWAP1 DUP1 PUSH1 0x1 DUP2 SLOAD ADD DUP1 DUP3 SSTORE DUP1 SWAP2 POP POP PUSH1 0x1 SWAP1 SUB SWAP1 PUSH1 0x0 MSTORE PUSH1 0x20 PUSH1 0x0 KECCAK256 ADD PUSH1 0x0 SWAP1 SWAP2 SWAP1 SWAP2 SWAP1 SWAP2 POP SSTORE DUP1 PUSH1 0x2 DUP1 DUP1 SLOAD PUSH2 0x80B SWAP1 PUSH2 0x1F6D JUMP JUMPDEST DUP1 PUSH1 0x1F ADD PUSH1 0x20 DUP1 SWAP2 DIV MUL PUSH1 0x20 ADD PUSH1 0x40 MLOAD SWAP1 DUP2 ADD PUSH1 0x40 MSTORE DUP1 SWAP3 SWAP2 SWAP1 DUP2 DUP2 MSTORE PUSH1 0x20 ADD DUP3 DUP1 SLOAD PUSH2 0x837 SWAP1 PUSH2 0x1F6D JUMP JUMPDEST DUP1 ISZERO PUSH2 0x884 JUMPI DUP1 PUSH1 0x1F LT PUSH2 0x859 JUMPI PUSH2 0x100 DUP1 DUP4 SLOAD DIV MUL DUP4 MSTORE SWAP2 PUSH1 0x20 ADD SWAP2 PUSH2 0x884 JUMP JUMPDEST DUP3 ADD SWAP2 SWAP1 PUSH1 0x0 MSTORE PUSH1 0x20 PUSH1 0x0 KECCAK256 SWAP1 JUMPDEST DUP2 SLOAD DUP2 MSTORE SWAP1 PUSH1 0x1 ADD SWAP1 PUSH1 0x20 ADD DUP1 DUP4 GT PUSH2 0x867 JUMPI DUP3 SWAP1 SUB PUSH1 0x1F AND DUP3 ADD SWAP2 JUMPDEST POP POP POP POP POP SWAP1 POP SWAP3 POP SWAP3 POP POP SWAP2 POP SWAP2 JUMP JUMPDEST PUSH1 0x0 PUSH1 0xB PUSH1 0x1 SWAP1 SLOAD SWAP1 PUSH2 0x100 EXP SWAP1 DIV PUSH20 0xFFFFFFFFFFFFFFFFFFFFFFFFFFFFFFFFFFFFFFFF AND PUSH20 0xFFFFFFFFFFFFFFFFFFFFFFFFFFFFFFFFFFFFFFFF AND PUSH2 0x8D8 PUSH2 0xE8A JUMP JUMPDEST PUSH20 0xFFFFFFFFFFFFFFFFFFFFFFFFFFFFFFFFFFFFFFFF AND EQ PUSH2 0x92E JUMPI PUSH1 0x40 MLOAD PUSH32 0x8C379A000000000000000000000000000000000000000000000000000000000 DUP2 MSTORE PUSH1 0x4 ADD PUSH2 0x925 SWAP1 PUSH2 0x1C70 JUMP JUMPDEST PUSH1 0x40 MLOAD DUP1 SWAP2 SUB SWAP1 REVERT JUMPDEST SELFBALANCE SWAP1 POP SWAP1 JUMP JUMPDEST PUSH1 0x0 PUSH1 0x60 PUSH1 0x0 ISZERO ISZERO PUSH1 0xB PUSH1 0x0 SWAP1 SLOAD SWAP1 PUSH2 0x100 EXP SWAP1 DIV PUSH1 0xFF AND ISZERO ISZERO EQ PUSH2 0x98E JUMPI PUSH1 0x40 MLOAD PUSH32 0x8C379A000000000000000000000000000000000000000000000000000000000 DUP2 MSTORE PUSH1 0x4 ADD PUSH2 0x985 SWAP1 PUSH2 0x1C90 JUMP JUMPDEST PUSH1 0x40 MLOAD DUP1 SWAP2 SUB SWAP1 REVERT JUMPDEST PUSH2 0x3E8 PUSH1 0x4 SLOAD LT PUSH2 0x9D4 JUMPI PUSH1 0x40 MLOAD PUSH32 0x8C379A000000000000000000000000000000000000000000000000000000000 DUP2 MSTORE PUSH1 0x4 ADD PUSH2 0x9CB SWAP1 PUSH2 0x1CB0 JUMP JUMPDEST PUSH1 0x40 MLOAD DUP1 SWAP2 SUB SWAP1 REVERT JUMPDEST PUSH1 0x19 CALLVALUE EQ PUSH2 0xA17 JUMPI PUSH1 0x40 MLOAD PUSH32 0x8C379A000000000000000000000000000000000000000000000000000000000 DUP2 MSTORE PUSH1 0x4 ADD PUSH2 0xA0E SWAP1 PUSH2 0x1C10 JUMP JUMPDEST PUSH1 0x40 MLOAD DUP1 SWAP2 SUB SWAP1 REVERT JUMPDEST PUSH1 0x0 PUSH2 0xA21 PUSH2 0xE92 JUMP JUMPDEST SWAP1 POP PUSH2 0xABB DUP5 DUP3 PUSH1 0x5 SLOAD PUSH1 0x2 DUP1 SLOAD PUSH2 0xA38 SWAP1 PUSH2 0x1F6D JUMP JUMPDEST DUP1 PUSH1 0x1F ADD PUSH1 0x20 DUP1 SWAP2 DIV MUL PUSH1 0x20 ADD PUSH1 0x40 MLOAD SWAP1 DUP2 ADD PUSH1 0x40 MSTORE DUP1 SWAP3 SWAP2 SWAP1 DUP2 DUP2 MSTORE PUSH1 0x20 ADD DUP3 DUP1 SLOAD PUSH2 0xA64 SWAP1 PUSH2 0x1F6D JUMP JUMPDEST DUP1 ISZERO PUSH2 0xAB1 JUMPI DUP1 PUSH1 0x1F LT PUSH2 0xA86 JUMPI PUSH2 0x100 DUP1 DUP4 SLOAD DIV MUL DUP4 MSTORE SWAP2 PUSH1 0x20 ADD SWAP2 PUSH2 0xAB1 JUMP JUMPDEST DUP3 ADD SWAP2 SWAP1 PUSH1 0x0 MSTORE PUSH1 0x20 PUSH1 0x0 KECCAK256 SWAP1 JUMPDEST DUP2 SLOAD DUP2 MSTORE SWAP1 PUSH1 0x1 ADD SWAP1 PUSH1 0x20 ADD DUP1 DUP4 GT PUSH2 0xA94 JUMPI DUP3 SWAP1 SUB PUSH1 0x1F AND DUP3 ADD SWAP2 JUMPDEST POP POP POP POP POP PUSH2 0x11A7 JUMP JUMPDEST PUSH2 0xACC PUSH2 0xAC6 PUSH2 0xE8A JUMP JUMPDEST CALLVALUE PUSH2 0x133D JUMP JUMPDEST PUSH1 0x4 PUSH1 0x0 DUP2 SLOAD DUP1 SWAP3 SWAP2 SWAP1 PUSH2 0xADF SWAP1 PUSH2 0x1FD0 JUMP JUMPDEST SWAP2 SWAP1 POP SSTORE POP PUSH1 0x9 PUSH1 0x0 DUP6 PUSH20 0xFFFFFFFFFFFFFFFFFFFFFFFFFFFFFFFFFFFFFFFF AND PUSH20 0xFFFFFFFFFFFFFFFFFFFFFFFFFFFFFFFFFFFFFFFF AND DUP2 MSTORE PUSH1 0x20 ADD SWAP1 DUP2 MSTORE PUSH1 0x20 ADD PUSH1 0x0 KECCAK256 PUSH1 0x0 ADD DUP2 SWAP1 DUP1 PUSH1 0x1 DUP2 SLOAD ADD DUP1 DUP3 SSTORE DUP1 SWAP2 POP POP PUSH1 0x1 SWAP1 SUB SWAP1 PUSH1 0x0 MSTORE PUSH1 0x20 PUSH1 0x0 KECCAK256 ADD PUSH1 0x0 SWAP1 SWAP2 SWAP1 SWAP2 SWAP1 SWAP2 POP SSTORE DUP1 PUSH1 0x2 DUP1 DUP1 SLOAD PUSH2 0xB5C SWAP1 PUSH2 0x1F6D JUMP JUMPDEST DUP1 PUSH1 0x1F ADD PUSH1 0x20 DUP1 SWAP2 DIV MUL PUSH1 0x20 ADD PUSH1 0x40 MLOAD SWAP1 DUP2 ADD PUSH1 0x40 MSTORE DUP1 SWAP3 SWAP2 SWAP1 DUP2 DUP2 MSTORE PUSH1 0x20 ADD DUP3 DUP1 SLOAD PUSH2 0xB88 SWAP1 PUSH2 0x1F6D JUMP JUMPDEST DUP1 ISZERO PUSH2 0xBD5 JUMPI DUP1 PUSH1 0x1F LT PUSH2 0xBAA JUMPI PUSH2 0x100 DUP1 DUP4 SLOAD DIV MUL DUP4 MSTORE SWAP2 PUSH1 0x20 ADD SWAP2 PUSH2 0xBD5 JUMP JUMPDEST DUP3 ADD SWAP2 SWAP1 PUSH1 0x0 MSTORE PUSH1 0x20 PUSH1 0x0 KECCAK256 SWAP1 JUMPDEST DUP2 SLOAD DUP2 MSTORE SWAP1 PUSH1 0x1 ADD SWAP1 PUSH1 0x20 ADD DUP1 DUP4 GT PUSH2 0xBB8 JUMPI DUP3 SWAP1 SUB PUSH1 0x1F AND DUP3 ADD SWAP2 JUMPDEST POP POP POP POP POP SWAP1 POP SWAP3 POP SWAP3 POP POP SWAP2 POP SWAP2 JUMP JUMPDEST PUSH1 0x0 DUP1 PUSH1 0x0 PUSH1 0xB PUSH1 0x1 SWAP1 SLOAD SWAP1 PUSH2 0x100 EXP SWAP1 DIV PUSH20 0xFFFFFFFFFFFFFFFFFFFFFFFFFFFFFFFFFFFFFFFF AND PUSH20 0xFFFFFFFFFFFFFFFFFFFFFFFFFFFFFFFFFFFFFFFF AND PUSH2 0xC2C PUSH2 0xE8A JUMP JUMPDEST PUSH20 0xFFFFFFFFFFFFFFFFFFFFFFFFFFFFFFFFFFFFFFFF AND EQ PUSH2 0xC82 JUMPI PUSH1 0x40 MLOAD PUSH32 0x8C379A000000000000000000000000000000000000000000000000000000000 DUP2 MSTORE PUSH1 0x4 ADD PUSH2 0xC79 SWAP1 PUSH2 0x1C70 JUMP JUMPDEST PUSH1 0x40 MLOAD DUP1 SWAP2 SUB SWAP1 REVERT JUMPDEST PUSH1 0x6 SLOAD PUSH1 0x7 SLOAD PUSH1 0x8 SLOAD SWAP3 POP SWAP3 POP SWAP3 POP SWAP1 SWAP2 SWAP3 JUMP JUMPDEST PUSH1 0xB PUSH1 0x1 SWAP1 SLOAD SWAP1 PUSH2 0x100 EXP SWAP1 DIV PUSH20 0xFFFFFFFFFFFFFFFFFFFFFFFFFFFFFFFFFFFFFFFF AND PUSH20 0xFFFFFFFFFFFFFFFFFFFFFFFFFFFFFFFFFFFFFFFF AND PUSH2 0xCD7 PUSH2 0xE8A JUMP JUMPDEST PUSH20 0xFFFFFFFFFFFFFFFFFFFFFFFFFFFFFFFFFFFFFFFF AND EQ PUSH2 0xD2D JUMPI PUSH1 0x40 MLOAD PUSH32 0x8C379A000000000000000000000000000000000000000000000000000000000 DUP2 MSTORE PUSH1 0x4 ADD PUSH2 0xD24 SWAP1 PUSH2 0x1C70 JUMP JUMPDEST PUSH1 0x40 MLOAD DUP1 SWAP2 SUB SWAP1 REVERT JUMPDEST PUSH1 0x0 ISZERO ISZERO PUSH1 0xB PUSH1 0x0 SWAP1 SLOAD SWAP1 PUSH2 0x100 EXP SWAP1 DIV PUSH1 0xFF AND ISZERO ISZERO EQ PUSH2 0xD83 JUMPI PUSH1 0x40 MLOAD PUSH32 0x8C379A000000000000000000000000000000000000000000000000000000000 DUP2 MSTORE PUSH1 0x4 ADD PUSH2 0xD7A SWAP1 PUSH2 0x1C50 JUMP JUMPDEST PUSH1 0x40 MLOAD DUP1 SWAP2 SUB SWAP1 REVERT JUMPDEST PUSH1 0x1 PUSH1 0xB PUSH1 0x0 PUSH2 0x100 EXP DUP2 SLOAD DUP2 PUSH1 0xFF MUL NOT AND SWAP1 DUP4 ISZERO ISZERO MUL OR SWAP1 SSTORE POP JUMP JUMPDEST PUSH1 0xB PUSH1 0x1 SWAP1 SLOAD SWAP1 PUSH2 0x100 EXP SWAP1 DIV PUSH20 0xFFFFFFFFFFFFFFFFFFFFFFFFFFFFFFFFFFFFFFFF AND DUP2 JUMP JUMPDEST PUSH1 0x3 DUP2 PUSH1 0x14 DUP2 LT PUSH2 0xDD6 JUMPI PUSH1 0x0 DUP1 REVERT JUMPDEST PUSH1 0x20 SWAP2 DUP3 DUP3 DIV ADD SWAP2 SWAP1 MOD SWAP2 POP SLOAD SWAP1 PUSH2 0x100 EXP SWAP1 DIV PUSH1 0xFF AND DUP2 JUMP JUMPDEST PUSH1 0x60 PUSH1 0x9 PUSH1 0x0 DUP4 PUSH20 0xFFFFFFFFFFFFFFFFFFFFFFFFFFFFFFFFFFFFFFFF AND PUSH20 0xFFFFFFFFFFFFFFFFFFFFFFFFFFFFFFFFFFFFFFFF AND DUP2 MSTORE PUSH1 0x20 ADD SWAP1 DUP2 MSTORE PUSH1 0x20 ADD PUSH1 0x0 KECCAK256 PUSH1 0x0 ADD DUP1 SLOAD DUP1 PUSH1 0x20 MUL PUSH1 0x20 ADD PUSH1 0x40 MLOAD SWAP1 DUP2 ADD PUSH1 0x40 MSTORE DUP1 SWAP3 SWAP2 SWAP1 DUP2 DUP2 MSTORE PUSH1 0x20 ADD DUP3 DUP1 SLOAD DUP1 ISZERO PUSH2 0xE7E JUMPI PUSH1 0x20 MUL DUP3 ADD SWAP2 SWAP1 PUSH1 0x0 MSTORE PUSH1 0x20 PUSH1 0x0 KECCAK256 SWAP1 JUMPDEST DUP2 SLOAD DUP2 MSTORE PUSH1 0x20 ADD SWAP1 PUSH1 0x1 ADD SWAP1 DUP1 DUP4 GT PUSH2 0xE6A JUMPI JUMPDEST POP POP POP POP POP SWAP1 POP SWAP2 SWAP1 POP JUMP JUMPDEST PUSH1 0x0 CALLER SWAP1 POP SWAP1 JUMP JUMPDEST PUSH1 0x0 DUP1 ISZERO ISZERO PUSH1 0xB PUSH1 0x0 SWAP1 SLOAD SWAP1 PUSH2 0x100 EXP SWAP1 DIV PUSH1 0xFF AND ISZERO ISZERO EQ PUSH2 0xEE9 JUMPI PUSH1 0x40 MLOAD PUSH32 0x8C379A000000000000000000000000000000000000000000000000000000000 DUP2 MSTORE PUSH1 0x4 ADD PUSH2 0xEE0 SWAP1 PUSH2 0x1C90 JUMP JUMPDEST PUSH1 0x40 MLOAD DUP1 SWAP2 SUB SWAP1 REVERT JUMPDEST PUSH1 0x0 PUSH2 0xEF3 PUSH2 0x1397 JUMP JUMPDEST SWAP1 POP PUSH1 0x0 PUSH1 0x3 DUP3 PUSH1 0x14 DUP2 LT PUSH2 0xF0B JUMPI PUSH2 0xF0A PUSH2 0x2105 JUMP JUMPDEST JUMPDEST PUSH1 0x20 SWAP2 DUP3 DUP3 DIV ADD SWAP2 SWAP1 MOD SWAP1 SLOAD SWAP1 PUSH2 0x100 EXP SWAP1 DIV PUSH1 0xFF AND PUSH1 0xFF AND SWAP1 POP PUSH1 0x0 DUP2 EQ DUP1 ISZERO PUSH2 0xF38 JUMPI POP PUSH1 0x32 PUSH1 0x6 SLOAD LT JUMPDEST ISZERO PUSH2 0xFAB JUMPI PUSH1 0x40 MLOAD DUP1 PUSH1 0x40 ADD PUSH1 0x40 MSTORE DUP1 PUSH1 0x7 DUP2 MSTORE PUSH1 0x20 ADD PUSH32 0x4469616D6F6E6400000000000000000000000000000000000000000000000000 DUP2 MSTORE POP PUSH1 0x2 SWAP1 DUP1 MLOAD SWAP1 PUSH1 0x20 ADD SWAP1 PUSH2 0xF88 SWAP3 SWAP2 SWAP1 PUSH2 0x1657 JUMP JUMPDEST POP PUSH1 0x6 PUSH1 0x0 DUP2 SLOAD DUP1 SWAP3 SWAP2 SWAP1 PUSH2 0xF9C SWAP1 PUSH2 0x1FD0 JUMP JUMPDEST SWAP2 SWAP1 POP SSTORE POP DUP1 SWAP3 POP POP POP PUSH2 0x11A4 JUMP JUMPDEST PUSH1 0x1 DUP2 GT ISZERO DUP1 ISZERO PUSH2 0xFBE JUMPI POP PUSH1 0x64 PUSH1 0x7 SLOAD LT JUMPDEST ISZERO PUSH2 0x1031 JUMPI PUSH1 0x40 MLOAD DUP1 PUSH1 0x40 ADD PUSH1 0x40 MSTORE DUP1 PUSH1 0x4 DUP2 MSTORE PUSH1 0x20 ADD PUSH32 0x476F6C6400000000000000000000000000000000000000000000000000000000 DUP2 MSTORE POP PUSH1 0x2 SWAP1 DUP1 MLOAD SWAP1 PUSH1 0x20 ADD SWAP1 PUSH2 0x100E SWAP3 SWAP2 SWAP1 PUSH2 0x1657 JUMP JUMPDEST POP PUSH1 0x7 PUSH1 0x0 DUP2 SLOAD DUP1 SWAP3 SWAP2 SWAP1 PUSH2 0x1022 SWAP1 PUSH2 0x1FD0 JUMP JUMPDEST SWAP2 SWAP1 POP SSTORE POP DUP1 SWAP3 POP POP POP PUSH2 0x11A4 JUMP JUMPDEST PUSH1 0x2 DUP2 GT ISZERO DUP1 ISZERO PUSH2 0x1046 JUMPI POP PUSH2 0x352 PUSH1 0x8 SLOAD GT ISZERO JUMPDEST ISZERO PUSH2 0x10B9 JUMPI PUSH1 0x40 MLOAD DUP1 PUSH1 0x40 ADD PUSH1 0x40 MSTORE DUP1 PUSH1 0x6 DUP2 MSTORE PUSH1 0x20 ADD PUSH32 0x53696C7665720000000000000000000000000000000000000000000000000000 DUP2 MSTORE POP PUSH1 0x2 SWAP1 DUP1 MLOAD SWAP1 PUSH1 0x20 ADD SWAP1 PUSH2 0x1096 SWAP3 SWAP2 SWAP1 PUSH2 0x1657 JUMP JUMPDEST POP PUSH1 0x8 PUSH1 0x0 DUP2 SLOAD DUP1 SWAP3 SWAP2 SWAP1 PUSH2 0x10AA SWAP1 PUSH2 0x1FD0 JUMP JUMPDEST SWAP2 SWAP1 POP SSTORE POP DUP1 SWAP3 POP POP POP PUSH2 0x11A4 JUMP JUMPDEST PUSH1 0x64 PUSH1 0x7 SLOAD LT ISZERO PUSH2 0x1136 JUMPI PUSH1 0x1 SWAP1 POP PUSH1 0x40 MLOAD DUP1 PUSH1 0x40 ADD PUSH1 0x40 MSTORE DUP1 PUSH1 0x4 DUP2 MSTORE PUSH1 0x20 ADD PUSH32 0x476F6C6400000000000000000000000000000000000000000000000000000000 DUP2 MSTORE POP PUSH1 0x2 SWAP1 DUP1 MLOAD SWAP1 PUSH1 0x20 ADD SWAP1 PUSH2 0x1113 SWAP3 SWAP2 SWAP1 PUSH2 0x1657 JUMP JUMPDEST POP PUSH1 0x7 PUSH1 0x0 DUP2 SLOAD DUP1 SWAP3 SWAP2 SWAP1 PUSH2 0x1127 SWAP1 PUSH2 0x1FD0 JUMP JUMPDEST SWAP2 SWAP1 POP SSTORE POP DUP1 SWAP3 POP POP POP PUSH2 0x11A4 JUMP JUMPDEST PUSH1 0x0 SWAP1 POP PUSH1 0x40 MLOAD DUP1 PUSH1 0x40 ADD PUSH1 0x40 MSTORE DUP1 PUSH1 0x7 DUP2 MSTORE PUSH1 0x20 ADD PUSH32 0x4469616D6F6E6400000000000000000000000000000000000000000000000000 DUP2 MSTORE POP PUSH1 0x2 SWAP1 DUP1 MLOAD SWAP1 PUSH1 0x20 ADD SWAP1 PUSH2 0x1185 SWAP3 SWAP2 SWAP1 PUSH2 0x1657 JUMP JUMPDEST POP PUSH1 0x6 PUSH1 0x0 DUP2 SLOAD DUP1 SWAP3 SWAP2 SWAP1 PUSH2 0x1199 SWAP1 PUSH2 0x1FD0 JUMP JUMPDEST SWAP2 SWAP1 POP SSTORE POP DUP1 SWAP3 POP POP POP JUMPDEST SWAP1 JUMP JUMPDEST PUSH1 0x0 PUSH20 0xFFFFFFFFFFFFFFFFFFFFFFFFFFFFFFFFFFFFFFFF AND DUP5 PUSH20 0xFFFFFFFFFFFFFFFFFFFFFFFFFFFFFFFFFFFFFFFF AND EQ ISZERO PUSH2 0x1217 JUMPI PUSH1 0x40 MLOAD PUSH32 0x8C379A000000000000000000000000000000000000000000000000000000000 DUP2 MSTORE PUSH1 0x4 ADD PUSH2 0x120E SWAP1 PUSH2 0x1CF0 JUMP JUMPDEST PUSH1 0x40 MLOAD DUP1 SWAP2 SUB SWAP1 REVERT JUMPDEST PUSH1 0x0 PUSH2 0x1221 PUSH2 0xE8A JUMP JUMPDEST SWAP1 POP PUSH2 0x1242 DUP2 PUSH1 0x0 DUP8 PUSH2 0x1233 DUP9 PUSH2 0x13DB JUMP JUMPDEST PUSH2 0x123C DUP9 PUSH2 0x13DB JUMP JUMPDEST DUP8 PUSH2 0x1455 JUMP JUMPDEST DUP3 PUSH1 0x0 DUP1 DUP7 DUP2 MSTORE PUSH1 0x20 ADD SWAP1 DUP2 MSTORE PUSH1 0x20 ADD PUSH1 0x0 KECCAK256 PUSH1 0x0 DUP8 PUSH20 0xFFFFFFFFFFFFFFFFFFFFFFFFFFFFFFFFFFFFFFFF AND PUSH20 0xFFFFFFFFFFFFFFFFFFFFFFFFFFFFFFFFFFFFFFFF AND DUP2 MSTORE PUSH1 0x20 ADD SWAP1 DUP2 MSTORE PUSH1 0x20 ADD PUSH1 0x0 KECCAK256 PUSH1 0x0 DUP3 DUP3 SLOAD PUSH2 0x12A1 SWAP2 SWAP1 PUSH2 0x1E51 JUMP JUMPDEST SWAP3 POP POP DUP2 SWAP1 SSTORE POP DUP5 PUSH20 0xFFFFFFFFFFFFFFFFFFFFFFFFFFFFFFFFFFFFFFFF AND PUSH1 0x0 PUSH20 0xFFFFFFFFFFFFFFFFFFFFFFFFFFFFFFFFFFFFFFFF AND DUP3 PUSH20 0xFFFFFFFFFFFFFFFFFFFFFFFFFFFFFFFFFFFFFFFF AND PUSH32 0xC3D58168C5AE7397731D063D5BBF3D657854427343F4C083240F7AACAA2D0F62 DUP8 DUP8 PUSH1 0x40 MLOAD PUSH2 0x131F SWAP3 SWAP2 SWAP1 PUSH2 0x1D5B JUMP JUMPDEST PUSH1 0x40 MLOAD DUP1 SWAP2 SUB SWAP1 LOG4 PUSH2 0x1336 DUP2 PUSH1 0x0 DUP8 DUP8 DUP8 DUP8 PUSH2 0x145D JUMP JUMPDEST POP POP POP POP POP JUMP JUMPDEST DUP1 PUSH1 0xA PUSH1 0x0 DUP5 PUSH20 0xFFFFFFFFFFFFFFFFFFFFFFFFFFFFFFFFFFFFFFFF AND PUSH20 0xFFFFFFFFFFFFFFFFFFFFFFFFFFFFFFFFFFFFFFFF AND DUP2 MSTORE PUSH1 0x20 ADD SWAP1 DUP2 MSTORE PUSH1 0x20 ADD PUSH1 0x0 KECCAK256 PUSH1 0x0 DUP3 DUP3 SLOAD PUSH2 0x138C SWAP2 SWAP1 PUSH2 0x1E51 JUMP JUMPDEST SWAP3 POP POP DUP2 SWAP1 SSTORE POP POP POP JUMP JUMPDEST PUSH1 0x0 DUP1 PUSH1 0x14 TIMESTAMP CALLER PUSH1 0x40 MLOAD PUSH1 0x20 ADD PUSH2 0x13AF SWAP3 SWAP2 SWAP1 PUSH2 0x1AD0 JUMP JUMPDEST PUSH1 0x40 MLOAD PUSH1 0x20 DUP2 DUP4 SUB SUB DUP2 MSTORE SWAP1 PUSH1 0x40 MSTORE DUP1 MLOAD SWAP1 PUSH1 0x20 ADD KECCAK256 PUSH1 0x0 SHR PUSH2 0x13D2 SWAP2 SWAP1 PUSH2 0x2047 JUMP JUMPDEST SWAP1 POP DUP1 SWAP2 POP POP SWAP1 JUMP JUMPDEST PUSH1 0x60 PUSH1 0x0 PUSH1 0x1 PUSH8 0xFFFFFFFFFFFFFFFF DUP2 GT ISZERO PUSH2 0x13FA JUMPI PUSH2 0x13F9 PUSH2 0x2134 JUMP JUMPDEST JUMPDEST PUSH1 0x40 MLOAD SWAP1 DUP1 DUP3 MSTORE DUP1 PUSH1 0x20 MUL PUSH1 0x20 ADD DUP3 ADD PUSH1 0x40 MSTORE DUP1 ISZERO PUSH2 0x1428 JUMPI DUP2 PUSH1 0x20 ADD PUSH1 0x20 DUP3 MUL DUP1 CALLDATASIZE DUP4 CALLDATACOPY DUP1 DUP3 ADD SWAP2 POP POP SWAP1 POP JUMPDEST POP SWAP1 POP DUP3 DUP2 PUSH1 0x0 DUP2 MLOAD DUP2 LT PUSH2 0x1440 JUMPI PUSH2 0x143F PUSH2 0x2105 JUMP JUMPDEST JUMPDEST PUSH1 0x20 MUL PUSH1 0x20 ADD ADD DUP2 DUP2 MSTORE POP POP DUP1 SWAP2 POP POP SWAP2 SWAP1 POP JUMP JUMPDEST POP POP POP POP POP POP JUMP JUMPDEST PUSH2 0x147C DUP5 PUSH20 0xFFFFFFFFFFFFFFFFFFFFFFFFFFFFFFFFFFFFFFFF AND PUSH2 0x1644 JUMP JUMPDEST ISZERO PUSH2 0x163C JUMPI DUP4 PUSH20 0xFFFFFFFFFFFFFFFFFFFFFFFFFFFFFFFFFFFFFFFF AND PUSH4 0xF23A6E61 DUP8 DUP8 DUP7 DUP7 DUP7 PUSH1 0x40 MLOAD DUP7 PUSH4 0xFFFFFFFF AND PUSH1 0xE0 SHL DUP2 MSTORE PUSH1 0x4 ADD PUSH2 0x14C2 SWAP6 SWAP5 SWAP4 SWAP3 SWAP2 SWAP1 PUSH2 0x1B17 JUMP JUMPDEST PUSH1 0x20 PUSH1 0x40 MLOAD DUP1 DUP4 SUB DUP2 PUSH1 0x0 DUP8 DUP1 EXTCODESIZE ISZERO DUP1 ISZERO PUSH2 0x14DC JUMPI PUSH1 0x0 DUP1 REVERT JUMPDEST POP GAS CALL SWAP3 POP POP POP DUP1 ISZERO PUSH2 0x150D JUMPI POP PUSH1 0x40 MLOAD RETURNDATASIZE PUSH1 0x1F NOT PUSH1 0x1F DUP3 ADD AND DUP3 ADD DUP1 PUSH1 0x40 MSTORE POP DUP2 ADD SWAP1 PUSH2 0x150A SWAP2 SWAP1 PUSH2 0x17A8 JUMP JUMPDEST PUSH1 0x1 JUMPDEST PUSH2 0x15B3 JUMPI PUSH2 0x1519 PUSH2 0x2163 JUMP JUMPDEST DUP1 PUSH4 0x8C379A0 EQ ISZERO PUSH2 0x1576 JUMPI POP PUSH2 0x152E PUSH2 0x23C1 JUMP JUMPDEST DUP1 PUSH2 0x1539 JUMPI POP PUSH2 0x1578 JUMP JUMPDEST DUP1 PUSH1 0x40 MLOAD PUSH32 0x8C379A000000000000000000000000000000000000000000000000000000000 DUP2 MSTORE PUSH1 0x4 ADD PUSH2 0x156D SWAP2 SWAP1 PUSH2 0x1BAE JUMP JUMPDEST PUSH1 0x40 MLOAD DUP1 SWAP2 SUB SWAP1 REVERT JUMPDEST POP JUMPDEST PUSH1 0x40 MLOAD PUSH32 0x8C379A000000000000000000000000000000000000000000000000000000000 DUP2 MSTORE PUSH1 0x4 ADD PUSH2 0x15AA SWAP1 PUSH2 0x1BD0 JUMP JUMPDEST PUSH1 0x40 MLOAD DUP1 SWAP2 SUB SWAP1 REVERT JUMPDEST PUSH4 0xF23A6E61 PUSH1 0xE0 SHL PUSH28 0xFFFFFFFFFFFFFFFFFFFFFFFFFFFFFFFFFFFFFFFFFFFFFFFFFFFFFFFF NOT AND DUP2 PUSH28 0xFFFFFFFFFFFFFFFFFFFFFFFFFFFFFFFFFFFFFFFFFFFFFFFFFFFFFFFF NOT AND EQ PUSH2 0x163A JUMPI PUSH1 0x40 MLOAD PUSH32 0x8C379A000000000000000000000000000000000000000000000000000000000 DUP2 MSTORE PUSH1 0x4 ADD PUSH2 0x1631 SWAP1 PUSH2 0x1BF0 JUMP JUMPDEST PUSH1 0x40 MLOAD DUP1 SWAP2 SUB SWAP1 REVERT JUMPDEST POP JUMPDEST POP POP POP POP POP POP JUMP JUMPDEST PUSH1 0x0 DUP1 DUP3 EXTCODESIZE SWAP1 POP PUSH1 0x0 DUP2 GT SWAP2 POP POP SWAP2 SWAP1 POP JUMP JUMPDEST DUP3 DUP1 SLOAD PUSH2 0x1663 SWAP1 PUSH2 0x1F6D JUMP JUMPDEST SWAP1 PUSH1 0x0 MSTORE PUSH1 0x20 PUSH1 0x0 KECCAK256 SWAP1 PUSH1 0x1F ADD PUSH1 0x20 SWAP1 DIV DUP2 ADD SWAP3 DUP3 PUSH2 0x1685 JUMPI PUSH1 0x0 DUP6 SSTORE PUSH2 0x16CC JUMP JUMPDEST DUP3 PUSH1 0x1F LT PUSH2 0x169E JUMPI DUP1 MLOAD PUSH1 0xFF NOT AND DUP4 DUP1 ADD OR DUP6 SSTORE PUSH2 0x16CC JUMP JUMPDEST DUP3 DUP1 ADD PUSH1 0x1 ADD DUP6 SSTORE DUP3 ISZERO PUSH2 0x16CC JUMPI SWAP2 DUP3 ADD JUMPDEST DUP3 DUP2 GT ISZERO PUSH2 0x16CB JUMPI DUP3 MLOAD DUP3 SSTORE SWAP2 PUSH1 0x20 ADD SWAP2 SWAP1 PUSH1 0x1 ADD SWAP1 PUSH2 0x16B0 JUMP JUMPDEST JUMPDEST POP SWAP1 POP PUSH2 0x16D9 SWAP2 SWAP1 PUSH2 0x16DD JUMP JUMPDEST POP SWAP1 JUMP JUMPDEST JUMPDEST DUP1 DUP3 GT ISZERO PUSH2 0x16F6 JUMPI PUSH1 0x0 DUP2 PUSH1 0x0 SWAP1 SSTORE POP PUSH1 0x1 ADD PUSH2 0x16DE JUMP JUMPDEST POP SWAP1 JUMP JUMPDEST PUSH1 0x0 DUP2 CALLDATALOAD SWAP1 POP PUSH2 0x1709 DUP2 PUSH2 0x2457 JUMP JUMPDEST SWAP3 SWAP2 POP POP JUMP JUMPDEST PUSH1 0x0 DUP2 CALLDATALOAD SWAP1 POP PUSH2 0x171E DUP2 PUSH2 0x246E JUMP JUMPDEST SWAP3 SWAP2 POP POP JUMP JUMPDEST PUSH1 0x0 DUP2 MLOAD SWAP1 POP PUSH2 0x1733 DUP2 PUSH2 0x2485 JUMP JUMPDEST SWAP3 SWAP2 POP POP JUMP JUMPDEST PUSH1 0x0 DUP2 CALLDATALOAD SWAP1 POP PUSH2 0x1748 DUP2 PUSH2 0x249C JUMP JUMPDEST SWAP3 SWAP2 POP POP JUMP JUMPDEST PUSH1 0x0 PUSH1 0x20 DUP3 DUP5 SUB SLT ISZERO PUSH2 0x1764 JUMPI PUSH2 0x1763 PUSH2 0x2185 JUMP JUMPDEST JUMPDEST PUSH1 0x0 PUSH2 0x1772 DUP5 DUP3 DUP6 ADD PUSH2 0x16FA JUMP JUMPDEST SWAP2 POP POP SWAP3 SWAP2 POP POP JUMP JUMPDEST PUSH1 0x0 PUSH1 0x20 DUP3 DUP5 SUB SLT ISZERO PUSH2 0x1791 JUMPI PUSH2 0x1790 PUSH2 0x2185 JUMP JUMPDEST JUMPDEST PUSH1 0x0 PUSH2 0x179F DUP5 DUP3 DUP6 ADD PUSH2 0x170F JUMP JUMPDEST SWAP2 POP POP SWAP3 SWAP2 POP POP JUMP JUMPDEST PUSH1 0x0 PUSH1 0x20 DUP3 DUP5 SUB SLT ISZERO PUSH2 0x17BE JUMPI PUSH2 0x17BD PUSH2 0x2185 JUMP JUMPDEST JUMPDEST PUSH1 0x0 PUSH2 0x17CC DUP5 DUP3 DUP6 ADD PUSH2 0x1724 JUMP JUMPDEST SWAP2 POP POP SWAP3 SWAP2 POP POP JUMP JUMPDEST PUSH1 0x0 PUSH1 0x20 DUP3 DUP5 SUB SLT ISZERO PUSH2 0x17EB JUMPI PUSH2 0x17EA PUSH2 0x2185 JUMP JUMPDEST JUMPDEST PUSH1 0x0 PUSH2 0x17F9 DUP5 DUP3 DUP6 ADD PUSH2 0x1739 JUMP JUMPDEST SWAP2 POP POP SWAP3 SWAP2 POP POP JUMP JUMPDEST PUSH1 0x0 PUSH2 0x180E DUP4 DUP4 PUSH2 0x1A8C JUMP JUMPDEST PUSH1 0x20 DUP4 ADD SWAP1 POP SWAP3 SWAP2 POP POP JUMP JUMPDEST PUSH2 0x1823 DUP2 PUSH2 0x1EB9 JUMP JUMPDEST DUP3 MSTORE POP POP JUMP JUMPDEST PUSH2 0x1832 DUP2 PUSH2 0x1EA7 JUMP JUMPDEST DUP3 MSTORE POP POP JUMP JUMPDEST PUSH2 0x1849 PUSH2 0x1844 DUP3 PUSH2 0x1EA7 JUMP JUMPDEST PUSH2 0x2019 JUMP JUMPDEST DUP3 MSTORE POP POP JUMP JUMPDEST PUSH1 0x0 PUSH2 0x185A DUP3 PUSH2 0x1DF0 JUMP JUMPDEST PUSH2 0x1864 DUP2 DUP6 PUSH2 0x1E1E JUMP JUMPDEST SWAP4 POP PUSH2 0x186F DUP4 PUSH2 0x1DE0 JUMP JUMPDEST DUP1 PUSH1 0x0 JUMPDEST DUP4 DUP2 LT ISZERO PUSH2 0x18A0 JUMPI DUP2 MLOAD PUSH2 0x1887 DUP9 DUP3 PUSH2 0x1802 JUMP JUMPDEST SWAP8 POP PUSH2 0x1892 DUP4 PUSH2 0x1E11 JUMP JUMPDEST SWAP3 POP POP PUSH1 0x1 DUP2 ADD SWAP1 POP PUSH2 0x1873 JUMP JUMPDEST POP DUP6 SWAP4 POP POP POP POP SWAP3 SWAP2 POP POP JUMP JUMPDEST PUSH2 0x18B6 DUP2 PUSH2 0x1ECB JUMP JUMPDEST DUP3 MSTORE POP POP JUMP JUMPDEST PUSH1 0x0 PUSH2 0x18C7 DUP3 PUSH2 0x1DFB JUMP JUMPDEST PUSH2 0x18D1 DUP2 DUP6 PUSH2 0x1E2F JUMP JUMPDEST SWAP4 POP PUSH2 0x18E1 DUP2 DUP6 PUSH1 0x20 DUP7 ADD PUSH2 0x1F3A JUMP JUMPDEST PUSH2 0x18EA DUP2 PUSH2 0x218A JUMP JUMPDEST DUP5 ADD SWAP2 POP POP SWAP3 SWAP2 POP POP JUMP JUMPDEST PUSH1 0x0 PUSH2 0x1900 DUP3 PUSH2 0x1E06 JUMP JUMPDEST PUSH2 0x190A DUP2 DUP6 PUSH2 0x1E40 JUMP JUMPDEST SWAP4 POP PUSH2 0x191A DUP2 DUP6 PUSH1 0x20 DUP7 ADD PUSH2 0x1F3A JUMP JUMPDEST PUSH2 0x1923 DUP2 PUSH2 0x218A JUMP JUMPDEST DUP5 ADD SWAP2 POP POP SWAP3 SWAP2 POP POP JUMP JUMPDEST PUSH1 0x0 PUSH2 0x193B PUSH1 0x34 DUP4 PUSH2 0x1E40 JUMP JUMPDEST SWAP2 POP PUSH2 0x1946 DUP3 PUSH2 0x21B5 JUMP JUMPDEST PUSH1 0x40 DUP3 ADD SWAP1 POP SWAP2 SWAP1 POP JUMP JUMPDEST PUSH1 0x0 PUSH2 0x195E PUSH1 0x28 DUP4 PUSH2 0x1E40 JUMP JUMPDEST SWAP2 POP PUSH2 0x1969 DUP3 PUSH2 0x2204 JUMP JUMPDEST PUSH1 0x40 DUP3 ADD SWAP1 POP SWAP2 SWAP1 POP JUMP JUMPDEST PUSH1 0x0 PUSH2 0x1981 PUSH1 0x19 DUP4 PUSH2 0x1E40 JUMP JUMPDEST SWAP2 POP PUSH2 0x198C DUP3 PUSH2 0x2253 JUMP JUMPDEST PUSH1 0x20 DUP3 ADD SWAP1 POP SWAP2 SWAP1 POP JUMP JUMPDEST PUSH1 0x0 PUSH2 0x19A4 PUSH1 0x1B DUP4 PUSH2 0x1E40 JUMP JUMPDEST SWAP2 POP PUSH2 0x19AF DUP3 PUSH2 0x227C JUMP JUMPDEST PUSH1 0x20 DUP3 ADD SWAP1 POP SWAP2 SWAP1 POP JUMP JUMPDEST PUSH1 0x0 PUSH2 0x19C7 PUSH1 0x1B DUP4 PUSH2 0x1E40 JUMP JUMPDEST SWAP2 POP PUSH2 0x19D2 DUP3 PUSH2 0x22A5 JUMP JUMPDEST PUSH1 0x20 DUP3 ADD SWAP1 POP SWAP2 SWAP1 POP JUMP JUMPDEST PUSH1 0x0 PUSH2 0x19EA PUSH1 0x1C DUP4 PUSH2 0x1E40 JUMP JUMPDEST SWAP2 POP PUSH2 0x19F5 DUP3 PUSH2 0x22CE JUMP JUMPDEST PUSH1 0x20 DUP3 ADD SWAP1 POP SWAP2 SWAP1 POP JUMP JUMPDEST PUSH1 0x0 PUSH2 0x1A0D PUSH1 0x1B DUP4 PUSH2 0x1E40 JUMP JUMPDEST SWAP2 POP PUSH2 0x1A18 DUP3 PUSH2 0x22F7 JUMP JUMPDEST PUSH1 0x20 DUP3 ADD SWAP1 POP SWAP2 SWAP1 POP JUMP JUMPDEST PUSH1 0x0 PUSH2 0x1A30 PUSH1 0x19 DUP4 PUSH2 0x1E40 JUMP JUMPDEST SWAP2 POP PUSH2 0x1A3B DUP3 PUSH2 0x2320 JUMP JUMPDEST PUSH1 0x20 DUP3 ADD SWAP1 POP SWAP2 SWAP1 POP JUMP JUMPDEST PUSH1 0x0 PUSH2 0x1A53 PUSH1 0x1D DUP4 PUSH2 0x1E40 JUMP JUMPDEST SWAP2 POP PUSH2 0x1A5E DUP3 PUSH2 0x2349 JUMP JUMPDEST PUSH1 0x20 DUP3 ADD SWAP1 POP SWAP2 SWAP1 POP JUMP JUMPDEST PUSH1 0x0 PUSH2 0x1A76 PUSH1 0x21 DUP4 PUSH2 0x1E40 JUMP JUMPDEST SWAP2 POP PUSH2 0x1A81 DUP3 PUSH2 0x2372 JUMP JUMPDEST PUSH1 0x40 DUP3 ADD SWAP1 POP SWAP2 SWAP1 POP JUMP JUMPDEST PUSH2 0x1A95 DUP2 PUSH2 0x1F23 JUMP JUMPDEST DUP3 MSTORE POP POP JUMP JUMPDEST PUSH2 0x1AA4 DUP2 PUSH2 0x1F23 JUMP JUMPDEST DUP3 MSTORE POP POP JUMP JUMPDEST PUSH2 0x1ABB PUSH2 0x1AB6 DUP3 PUSH2 0x1F23 JUMP JUMPDEST PUSH2 0x203D JUMP JUMPDEST DUP3 MSTORE POP POP JUMP JUMPDEST PUSH2 0x1ACA DUP2 PUSH2 0x1F2D JUMP JUMPDEST DUP3 MSTORE POP POP JUMP JUMPDEST PUSH1 0x0 PUSH2 0x1ADC DUP3 DUP6 PUSH2 0x1AAA JUMP JUMPDEST PUSH1 0x20 DUP3 ADD SWAP2 POP PUSH2 0x1AEC DUP3 DUP5 PUSH2 0x1838 JUMP JUMPDEST PUSH1 0x14 DUP3 ADD SWAP2 POP DUP2 SWAP1 POP SWAP4 SWAP3 POP POP POP JUMP JUMPDEST PUSH1 0x0 PUSH1 0x20 DUP3 ADD SWAP1 POP PUSH2 0x1B11 PUSH1 0x0 DUP4 ADD DUP5 PUSH2 0x181A JUMP JUMPDEST SWAP3 SWAP2 POP POP JUMP JUMPDEST PUSH1 0x0 PUSH1 0xA0 DUP3 ADD SWAP1 POP PUSH2 0x1B2C PUSH1 0x0 DUP4 ADD DUP9 PUSH2 0x1829 JUMP JUMPDEST PUSH2 0x1B39 PUSH1 0x20 DUP4 ADD DUP8 PUSH2 0x1829 JUMP JUMPDEST PUSH2 0x1B46 PUSH1 0x40 DUP4 ADD DUP7 PUSH2 0x1A9B JUMP JUMPDEST PUSH2 0x1B53 PUSH1 0x60 DUP4 ADD DUP6 PUSH2 0x1A9B JUMP JUMPDEST DUP2 DUP2 SUB PUSH1 0x80 DUP4 ADD MSTORE PUSH2 0x1B65 DUP2 DUP5 PUSH2 0x18BC JUMP JUMPDEST SWAP1 POP SWAP7 SWAP6 POP POP POP POP POP POP JUMP JUMPDEST PUSH1 0x0 PUSH1 0x20 DUP3 ADD SWAP1 POP DUP2 DUP2 SUB PUSH1 0x0 DUP4 ADD MSTORE PUSH2 0x1B8B DUP2 DUP5 PUSH2 0x184F JUMP JUMPDEST SWAP1 POP SWAP3 SWAP2 POP POP JUMP JUMPDEST PUSH1 0x0 PUSH1 0x20 DUP3 ADD SWAP1 POP PUSH2 0x1BA8 PUSH1 0x0 DUP4 ADD DUP5 PUSH2 0x18AD JUMP JUMPDEST SWAP3 SWAP2 POP POP JUMP JUMPDEST PUSH1 0x0 PUSH1 0x20 DUP3 ADD SWAP1 POP DUP2 DUP2 SUB PUSH1 0x0 DUP4 ADD MSTORE PUSH2 0x1BC8 DUP2 DUP5 PUSH2 0x18F5 JUMP JUMPDEST SWAP1 POP SWAP3 SWAP2 POP POP JUMP JUMPDEST PUSH1 0x0 PUSH1 0x20 DUP3 ADD SWAP1 POP DUP2 DUP2 SUB PUSH1 0x0 DUP4 ADD MSTORE PUSH2 0x1BE9 DUP2 PUSH2 0x192E JUMP JUMPDEST SWAP1 POP SWAP2 SWAP1 POP JUMP JUMPDEST PUSH1 0x0 PUSH1 0x20 DUP3 ADD SWAP1 POP DUP2 DUP2 SUB PUSH1 0x0 DUP4 ADD MSTORE PUSH2 0x1C09 DUP2 PUSH2 0x1951 JUMP JUMPDEST SWAP1 POP SWAP2 SWAP1 POP JUMP JUMPDEST PUSH1 0x0 PUSH1 0x20 DUP3 ADD SWAP1 POP DUP2 DUP2 SUB PUSH1 0x0 DUP4 ADD MSTORE PUSH2 0x1C29 DUP2 PUSH2 0x1974 JUMP JUMPDEST SWAP1 POP SWAP2 SWAP1 POP JUMP JUMPDEST PUSH1 0x0 PUSH1 0x20 DUP3 ADD SWAP1 POP DUP2 DUP2 SUB PUSH1 0x0 DUP4 ADD MSTORE PUSH2 0x1C49 DUP2 PUSH2 0x1997 JUMP JUMPDEST SWAP1 POP SWAP2 SWAP1 POP JUMP JUMPDEST PUSH1 0x0 PUSH1 0x20 DUP3 ADD SWAP1 POP DUP2 DUP2 SUB PUSH1 0x0 DUP4 ADD MSTORE PUSH2 0x1C69 DUP2 PUSH2 0x19BA JUMP JUMPDEST SWAP1 POP SWAP2 SWAP1 POP JUMP JUMPDEST PUSH1 0x0 PUSH1 0x20 DUP3 ADD SWAP1 POP DUP2 DUP2 SUB PUSH1 0x0 DUP4 ADD MSTORE PUSH2 0x1C89 DUP2 PUSH2 0x19DD JUMP JUMPDEST SWAP1 POP SWAP2 SWAP1 POP JUMP JUMPDEST PUSH1 0x0 PUSH1 0x20 DUP3 ADD SWAP1 POP DUP2 DUP2 SUB PUSH1 0x0 DUP4 ADD MSTORE PUSH2 0x1CA9 DUP2 PUSH2 0x1A00 JUMP JUMPDEST SWAP1 POP SWAP2 SWAP1 POP JUMP JUMPDEST PUSH1 0x0 PUSH1 0x20 DUP3 ADD SWAP1 POP DUP2 DUP2 SUB PUSH1 0x0 DUP4 ADD MSTORE PUSH2 0x1CC9 DUP2 PUSH2 0x1A23 JUMP JUMPDEST SWAP1 POP SWAP2 SWAP1 POP JUMP JUMPDEST PUSH1 0x0 PUSH1 0x20 DUP3 ADD SWAP1 POP DUP2 DUP2 SUB PUSH1 0x0 DUP4 ADD MSTORE PUSH2 0x1CE9 DUP2 PUSH2 0x1A46 JUMP JUMPDEST SWAP1 POP SWAP2 SWAP1 POP JUMP JUMPDEST PUSH1 0x0 PUSH1 0x20 DUP3 ADD SWAP1 POP DUP2 DUP2 SUB PUSH1 0x0 DUP4 ADD MSTORE PUSH2 0x1D09 DUP2 PUSH2 0x1A69 JUMP JUMPDEST SWAP1 POP SWAP2 SWAP1 POP JUMP JUMPDEST PUSH1 0x0 PUSH1 0x20 DUP3 ADD SWAP1 POP PUSH2 0x1D25 PUSH1 0x0 DUP4 ADD DUP5 PUSH2 0x1A9B JUMP JUMPDEST SWAP3 SWAP2 POP POP JUMP JUMPDEST PUSH1 0x0 PUSH1 0x40 DUP3 ADD SWAP1 POP PUSH2 0x1D40 PUSH1 0x0 DUP4 ADD DUP6 PUSH2 0x1A9B JUMP JUMPDEST DUP2 DUP2 SUB PUSH1 0x20 DUP4 ADD MSTORE PUSH2 0x1D52 DUP2 DUP5 PUSH2 0x18F5 JUMP JUMPDEST SWAP1 POP SWAP4 SWAP3 POP POP POP JUMP JUMPDEST PUSH1 0x0 PUSH1 0x40 DUP3 ADD SWAP1 POP PUSH2 0x1D70 PUSH1 0x0 DUP4 ADD DUP6 PUSH2 0x1A9B JUMP JUMPDEST PUSH2 0x1D7D PUSH1 0x20 DUP4 ADD DUP5 PUSH2 0x1A9B JUMP JUMPDEST SWAP4 SWAP3 POP POP POP JUMP JUMPDEST PUSH1 0x0 PUSH1 0x60 DUP3 ADD SWAP1 POP PUSH2 0x1D99 PUSH1 0x0 DUP4 ADD DUP7 PUSH2 0x1A9B JUMP JUMPDEST PUSH2 0x1DA6 PUSH1 0x20 DUP4 ADD DUP6 PUSH2 0x1A9B JUMP JUMPDEST PUSH2 0x1DB3 PUSH1 0x40 DUP4 ADD DUP5 PUSH2 0x1A9B JUMP JUMPDEST SWAP5 SWAP4 POP POP POP POP JUMP JUMPDEST PUSH1 0x0 PUSH1 0x20 DUP3 ADD SWAP1 POP PUSH2 0x1DD0 PUSH1 0x0 DUP4 ADD DUP5 PUSH2 0x1AC1 JUMP JUMPDEST SWAP3 SWAP2 POP POP JUMP JUMPDEST PUSH1 0x0 PUSH1 0x40 MLOAD SWAP1 POP SWAP1 JUMP JUMPDEST PUSH1 0x0 DUP2 SWAP1 POP PUSH1 0x20 DUP3 ADD SWAP1 POP SWAP2 SWAP1 POP JUMP JUMPDEST PUSH1 0x0 DUP2 MLOAD SWAP1 POP SWAP2 SWAP1 POP JUMP JUMPDEST PUSH1 0x0 DUP2 MLOAD SWAP1 POP SWAP2 SWAP1 POP JUMP JUMPDEST PUSH1 0x0 DUP2 MLOAD SWAP1 POP SWAP2 SWAP1 POP JUMP JUMPDEST PUSH1 0x0 PUSH1 0x20 DUP3 ADD SWAP1 POP SWAP2 SWAP1 POP JUMP JUMPDEST PUSH1 0x0 DUP3 DUP3 MSTORE PUSH1 0x20 DUP3 ADD SWAP1 POP SWAP3 SWAP2 POP POP JUMP JUMPDEST PUSH1 0x0 DUP3 DUP3 MSTORE PUSH1 0x20 DUP3 ADD SWAP1 POP SWAP3 SWAP2 POP POP JUMP JUMPDEST PUSH1 0x0 DUP3 DUP3 MSTORE PUSH1 0x20 DUP3 ADD SWAP1 POP SWAP3 SWAP2 POP POP JUMP JUMPDEST PUSH1 0x0 PUSH2 0x1E5C DUP3 PUSH2 0x1F23 JUMP JUMPDEST SWAP2 POP PUSH2 0x1E67 DUP4 PUSH2 0x1F23 JUMP JUMPDEST SWAP3 POP DUP3 PUSH32 0xFFFFFFFFFFFFFFFFFFFFFFFFFFFFFFFFFFFFFFFFFFFFFFFFFFFFFFFFFFFFFFFF SUB DUP3 GT ISZERO PUSH2 0x1E9C JUMPI PUSH2 0x1E9B PUSH2 0x2078 JUMP JUMPDEST JUMPDEST DUP3 DUP3 ADD SWAP1 POP SWAP3 SWAP2 POP POP JUMP JUMPDEST PUSH1 0x0 PUSH2 0x1EB2 DUP3 PUSH2 0x1F03 JUMP JUMPDEST SWAP1 POP SWAP2 SWAP1 POP JUMP JUMPDEST PUSH1 0x0 PUSH2 0x1EC4 DUP3 PUSH2 0x1F03 JUMP JUMPDEST SWAP1 POP SWAP2 SWAP1 POP JUMP JUMPDEST PUSH1 0x0 DUP2 ISZERO ISZERO SWAP1 POP SWAP2 SWAP1 POP JUMP JUMPDEST PUSH1 0x0 PUSH32 0xFFFFFFFF00000000000000000000000000000000000000000000000000000000 DUP3 AND SWAP1 POP SWAP2 SWAP1 POP JUMP JUMPDEST PUSH1 0x0 PUSH20 0xFFFFFFFFFFFFFFFFFFFFFFFFFFFFFFFFFFFFFFFF DUP3 AND SWAP1 POP SWAP2 SWAP1 POP JUMP JUMPDEST PUSH1 0x0 DUP2 SWAP1 POP SWAP2 SWAP1 POP JUMP JUMPDEST PUSH1 0x0 PUSH1 0xFF DUP3 AND SWAP1 POP SWAP2 SWAP1 POP JUMP JUMPDEST PUSH1 0x0 JUMPDEST DUP4 DUP2 LT ISZERO PUSH2 0x1F58 JUMPI DUP1 DUP3 ADD MLOAD DUP2 DUP5 ADD MSTORE PUSH1 0x20 DUP2 ADD SWAP1 POP PUSH2 0x1F3D JUMP JUMPDEST DUP4 DUP2 GT ISZERO PUSH2 0x1F67 JUMPI PUSH1 0x0 DUP5 DUP5 ADD MSTORE JUMPDEST POP POP POP POP JUMP JUMPDEST PUSH1 0x0 PUSH1 0x2 DUP3 DIV SWAP1 POP PUSH1 0x1 DUP3 AND DUP1 PUSH2 0x1F85 JUMPI PUSH1 0x7F DUP3 AND SWAP2 POP JUMPDEST PUSH1 0x20 DUP3 LT DUP2 EQ ISZERO PUSH2 0x1F99 JUMPI PUSH2 0x1F98 PUSH2 0x20D6 JUMP JUMPDEST JUMPDEST POP SWAP2 SWAP1 POP JUMP JUMPDEST PUSH2 0x1FA8 DUP3 PUSH2 0x218A JUMP JUMPDEST DUP2 ADD DUP2 DUP2 LT PUSH8 0xFFFFFFFFFFFFFFFF DUP3 GT OR ISZERO PUSH2 0x1FC7 JUMPI PUSH2 0x1FC6 PUSH2 0x2134 JUMP JUMPDEST JUMPDEST DUP1 PUSH1 0x40 MSTORE POP POP POP JUMP JUMPDEST PUSH1 0x0 PUSH2 0x1FDB DUP3 PUSH2 0x1F23 JUMP JUMPDEST SWAP2 POP PUSH32 0xFFFFFFFFFFFFFFFFFFFFFFFFFFFFFFFFFFFFFFFFFFFFFFFFFFFFFFFFFFFFFFFF DUP3 EQ ISZERO PUSH2 0x200E JUMPI PUSH2 0x200D PUSH2 0x2078 JUMP JUMPDEST JUMPDEST PUSH1 0x1 DUP3 ADD SWAP1 POP SWAP2 SWAP1 POP JUMP JUMPDEST PUSH1 0x0 PUSH2 0x2024 DUP3 PUSH2 0x202B JUMP JUMPDEST SWAP1 POP SWAP2 SWAP1 POP JUMP JUMPDEST PUSH1 0x0 PUSH2 0x2036 DUP3 PUSH2 0x219B JUMP JUMPDEST SWAP1 POP SWAP2 SWAP1 POP JUMP JUMPDEST PUSH1 0x0 DUP2 SWAP1 POP SWAP2 SWAP1 POP JUMP JUMPDEST PUSH1 0x0 PUSH2 0x2052 DUP3 PUSH2 0x1F23 JUMP JUMPDEST SWAP2 POP PUSH2 0x205D DUP4 PUSH2 0x1F23 JUMP JUMPDEST SWAP3 POP DUP3 PUSH2 0x206D JUMPI PUSH2 0x206C PUSH2 0x20A7 JUMP JUMPDEST JUMPDEST DUP3 DUP3 MOD SWAP1 POP SWAP3 SWAP2 POP POP JUMP JUMPDEST PUSH32 0x4E487B7100000000000000000000000000000000000000000000000000000000 PUSH1 0x0 MSTORE PUSH1 0x11 PUSH1 0x4 MSTORE PUSH1 0x24 PUSH1 0x0 REVERT JUMPDEST PUSH32 0x4E487B7100000000000000000000000000000000000000000000000000000000 PUSH1 0x0 MSTORE PUSH1 0x12 PUSH1 0x4 MSTORE PUSH1 0x24 PUSH1 0x0 REVERT JUMPDEST PUSH32 0x4E487B7100000000000000000000000000000000000000000000000000000000 PUSH1 0x0 MSTORE PUSH1 0x22 PUSH1 0x4 MSTORE PUSH1 0x24 PUSH1 0x0 REVERT JUMPDEST PUSH32 0x4E487B7100000000000000000000000000000000000000000000000000000000 PUSH1 0x0 MSTORE PUSH1 0x32 PUSH1 0x4 MSTORE PUSH1 0x24 PUSH1 0x0 REVERT JUMPDEST PUSH32 0x4E487B7100000000000000000000000000000000000000000000000000000000 PUSH1 0x0 MSTORE PUSH1 0x41 PUSH1 0x4 MSTORE PUSH1 0x24 PUSH1 0x0 REVERT JUMPDEST PUSH1 0x0 PUSH1 0x3 RETURNDATASIZE GT ISZERO PUSH2 0x2182 JUMPI PUSH1 0x4 PUSH1 0x0 DUP1 RETURNDATACOPY PUSH2 0x217F PUSH1 0x0 MLOAD PUSH2 0x21A8 JUMP JUMPDEST SWAP1 POP JUMPDEST SWAP1 JUMP JUMPDEST PUSH1 0x0 DUP1 REVERT JUMPDEST PUSH1 0x0 PUSH1 0x1F NOT PUSH1 0x1F DUP4 ADD AND SWAP1 POP SWAP2 SWAP1 POP JUMP JUMPDEST PUSH1 0x0 DUP2 PUSH1 0x60 SHL SWAP1 POP SWAP2 SWAP1 POP JUMP JUMPDEST PUSH1 0x0 DUP2 PUSH1 0xE0 SHR SWAP1 POP SWAP2 SWAP1 POP JUMP JUMPDEST PUSH32 0x455243313135353A207472616E7366657220746F206E6F6E2045524331313535 PUSH1 0x0 DUP3 ADD MSTORE PUSH32 0x526563656976657220696D706C656D656E746572000000000000000000000000 PUSH1 0x20 DUP3 ADD MSTORE POP JUMP JUMPDEST PUSH32 0x455243313135353A204552433131353552656365697665722072656A65637465 PUSH1 0x0 DUP3 ADD MSTORE PUSH32 0x6420746F6B656E73000000000000000000000000000000000000000000000000 PUSH1 0x20 DUP3 ADD MSTORE POP JUMP JUMPDEST PUSH32 0x42616C616E6365206D757374206265203235204D617469637300000000000000 PUSH1 0x0 DUP3 ADD MSTORE POP JUMP JUMPDEST PUSH32 0x44726F707369746520697320616C72656164792052756E6E696E670000000000 PUSH1 0x0 DUP3 ADD MSTORE POP JUMP JUMPDEST PUSH32 0x44726F707369746520697320616C72656164792053746F707065640000000000 PUSH1 0x0 DUP3 ADD MSTORE POP JUMP JUMPDEST PUSH32 0x4F6E6C79204E46542D4553204F776E65722063616E2041636365737300000000 PUSH1 0x0 DUP3 ADD MSTORE POP JUMP JUMPDEST PUSH32 0x44726F7073697465206973206E6F74204F70656E6564205965742E0000000000 PUSH1 0x0 DUP3 ADD MSTORE POP JUMP JUMPDEST PUSH32 0x4D6178204D696E74696E67204C696D6974207265616368656400000000000000 PUSH1 0x0 DUP3 ADD MSTORE POP JUMP JUMPDEST PUSH32 0x4572726F7221204E6F2042616C616E636520746F207769746864726177000000 PUSH1 0x0 DUP3 ADD MSTORE POP JUMP JUMPDEST PUSH32 0x455243313135353A206D696E7420746F20746865207A65726F20616464726573 PUSH1 0x0 DUP3 ADD MSTORE PUSH32 0x7300000000000000000000000000000000000000000000000000000000000000 PUSH1 0x20 DUP3 ADD MSTORE POP JUMP JUMPDEST PUSH1 0x0 PUSH1 0x44 RETURNDATASIZE LT ISZERO PUSH2 0x23D1 JUMPI PUSH2 0x2454 JUMP JUMPDEST PUSH2 0x23D9 PUSH2 0x1DD6 JUMP JUMPDEST PUSH1 0x4 RETURNDATASIZE SUB PUSH1 0x4 DUP3 RETURNDATACOPY DUP1 MLOAD RETURNDATASIZE PUSH1 0x24 DUP3 ADD GT PUSH8 0xFFFFFFFFFFFFFFFF DUP3 GT OR ISZERO PUSH2 0x2401 JUMPI POP POP PUSH2 0x2454 JUMP JUMPDEST DUP1 DUP3 ADD DUP1 MLOAD PUSH8 0xFFFFFFFFFFFFFFFF DUP2 GT ISZERO PUSH2 0x241F JUMPI POP POP POP POP PUSH2 0x2454 JUMP JUMPDEST DUP1 PUSH1 0x20 DUP4 ADD ADD PUSH1 0x4 RETURNDATASIZE SUB DUP6 ADD DUP2 GT ISZERO PUSH2 0x243C JUMPI POP POP POP POP POP PUSH2 0x2454 JUMP JUMPDEST PUSH2 0x244B DUP3 PUSH1 0x20 ADD DUP6 ADD DUP7 PUSH2 0x1F9F JUMP JUMPDEST DUP3 SWAP6 POP POP POP POP POP POP JUMPDEST SWAP1 JUMP JUMPDEST PUSH2 0x2460 DUP2 PUSH2 0x1EA7 JUMP JUMPDEST DUP2 EQ PUSH2 0x246B JUMPI PUSH1 0x0 DUP1 REVERT JUMPDEST POP JUMP JUMPDEST PUSH2 0x2477 DUP2 PUSH2 0x1EB9 JUMP JUMPDEST DUP2 EQ PUSH2 0x2482 JUMPI PUSH1 0x0 DUP1 REVERT JUMPDEST POP JUMP JUMPDEST PUSH2 0x248E DUP2 PUSH2 0x1ED7 JUMP JUMPDEST DUP2 EQ PUSH2 0x2499 JUMPI PUSH1 0x0 DUP1 REVERT JUMPDEST POP JUMP JUMPDEST PUSH2 0x24A5 DUP2 PUSH2 0x1F23 JUMP JUMPDEST DUP2 EQ PUSH2 0x24B0 JUMPI PUSH1 0x0 DUP1 REVERT JUMPDEST POP JUMP INVALID LOG2 PUSH5 0x6970667358 0x22 SLT KECCAK256 0xC3 SGT JUMPDEST SDIV 0xD4 0xFB MSTORE 0xC9 0xD7 DUP2 AND ADDMOD PUSH8 0xE3DEB5A08B8770B7 PUSH4 0x7F6277D9 SWAP4 DUP15 REVERT CALL TIMESTAMP PUSH26 0x64736F6C63430008070033000000000000000000000000000000 "
				},
				"gasEstimates": {
					"creation": {
						"codeDepositCost": "1889800",
						"executionCost": "infinite",
						"totalCost": "infinite"
					},
					"external": {
						"ContractBalance()": "2802",
						"CryptoRandomMint(address)": "infinite",
						"FiatRandomMint(address)": "infinite",
						"IsPaused()": "2516",
						"Owner()": "2630",
						"checkMintedCategoryWise()": "infinite",
						"checkTotalMinted()": "4693",
						"nums(uint256)": "4475",
						"openDropsite()": "28904",
						"returnOwner(address)": "infinite",
						"stopDropsite()": "28881",
						"withDraw(address)": "infinite"
					},
					"internal": {
						"depositAmount(address,uint256)": "infinite",
						"random()": "infinite",
						"updateConditions()": "infinite"
					}
				},
				"methodIdentifiers": {
					"ContractBalance()": "3b668059",
					"CryptoRandomMint(address)": "3d65df70",
					"FiatRandomMint(address)": "32b61b4c",
					"IsPaused()": "1309a563",
					"Owner()": "b4a99a4e",
					"checkMintedCategoryWise()": "60daa851",
					"checkTotalMinted()": "0390c11c",
					"nums(uint256)": "fd1ee54c",
					"openDropsite()": "15460259",
					"returnOwner(address)": "fd6c3b1b",
					"stopDropsite()": "aa90c726",
					"withDraw(address)": "0a67d2c7"
				}
			},
			"userdoc": {
				"kind": "user",
				"methods": {},
				"version": 1
			}
		}
	}
}