{
	"NFTES_Drop_flat.sol": {
		"NFTES_Drop": {
			"abi": [
				{
					"inputs": [
						{
							"internalType": "string",
							"name": "name",
							"type": "string"
						}
					],
					"stateMutability": "nonpayable",
					"type": "constructor"
				},
				{
					"anonymous": false,
					"inputs": [
						{
							"indexed": true,
							"internalType": "address",
							"name": "operator",
							"type": "address"
						},
						{
							"indexed": true,
							"internalType": "address",
							"name": "from",
							"type": "address"
						},
						{
							"indexed": true,
							"internalType": "address",
							"name": "to",
							"type": "address"
						},
						{
							"indexed": false,
							"internalType": "uint256",
							"name": "id",
							"type": "uint256"
						},
						{
							"indexed": false,
							"internalType": "uint256",
							"name": "value",
							"type": "uint256"
						}
					],
					"name": "TransferSingle",
					"type": "event"
				},
				{
					"inputs": [],
					"name": "Owner",
					"outputs": [
						{
							"internalType": "address payable",
							"name": "",
							"type": "address"
						}
					],
					"stateMutability": "view",
					"type": "function"
				},
				{
					"inputs": [
						{
							"internalType": "address",
							"name": "newOwnerAddr",
							"type": "address"
						}
					],
					"name": "changeOwner",
					"outputs": [],
					"stateMutability": "nonpayable",
					"type": "function"
				},
				{
					"inputs": [],
					"name": "checkMintedCategoryWise",
					"outputs": [
						{
							"internalType": "uint256",
							"name": "",
							"type": "uint256"
						},
						{
							"internalType": "uint256",
							"name": "",
							"type": "uint256"
						},
						{
							"internalType": "uint256",
							"name": "",
							"type": "uint256"
						}
					],
					"stateMutability": "view",
					"type": "function"
				},
				{
					"inputs": [],
					"name": "checkTotalMinted",
					"outputs": [
						{
							"internalType": "uint256",
							"name": "",
							"type": "uint256"
						}
					],
					"stateMutability": "view",
					"type": "function"
				},
				{
					"inputs": [],
					"name": "contractBalance",
					"outputs": [
						{
							"internalType": "uint256",
							"name": "",
							"type": "uint256"
						}
					],
					"stateMutability": "view",
					"type": "function"
				},
				{
					"inputs": [
						{
							"internalType": "address",
							"name": "user_addr",
							"type": "address"
						},
						{
							"internalType": "uint256",
							"name": "noOfMints",
							"type": "uint256"
						}
					],
					"name": "cryptoRandomMint",
					"outputs": [
						{
							"internalType": "uint256[]",
							"name": "",
							"type": "uint256[]"
						}
					],
					"stateMutability": "payable",
					"type": "function"
				},
				{
					"inputs": [
						{
							"internalType": "address",
							"name": "user_addr",
							"type": "address"
						},
						{
							"internalType": "uint256",
							"name": "noOfMints",
							"type": "uint256"
						}
					],
					"name": "fiatRandomMint",
					"outputs": [
						{
							"internalType": "uint256[]",
							"name": "",
							"type": "uint256[]"
						}
					],
					"stateMutability": "nonpayable",
					"type": "function"
				},
				{
					"inputs": [],
					"name": "getMintFee",
					"outputs": [
						{
							"internalType": "uint256",
							"name": "",
							"type": "uint256"
						}
					],
					"stateMutability": "view",
					"type": "function"
				},
				{
					"inputs": [],
					"name": "isAdmin",
					"outputs": [
						{
							"internalType": "bool",
							"name": "",
							"type": "bool"
						}
					],
					"stateMutability": "view",
					"type": "function"
				},
				{
					"inputs": [],
					"name": "isPaused",
					"outputs": [
						{
							"internalType": "bool",
							"name": "",
							"type": "bool"
						}
					],
					"stateMutability": "view",
					"type": "function"
				},
				{
					"inputs": [],
					"name": "openDropsite",
					"outputs": [],
					"stateMutability": "nonpayable",
					"type": "function"
				},
				{
					"inputs": [
						{
							"internalType": "address",
							"name": "addr",
							"type": "address"
						}
					],
					"name": "returnNftsOwner",
					"outputs": [
						{
							"internalType": "uint256[]",
							"name": "",
							"type": "uint256[]"
						}
					],
					"stateMutability": "view",
					"type": "function"
				},
				{
					"inputs": [
						{
							"internalType": "uint256",
							"name": "_mintFee",
							"type": "uint256"
						}
					],
					"name": "setMintFee",
					"outputs": [],
					"stateMutability": "nonpayable",
					"type": "function"
				},
				{
					"inputs": [],
					"name": "stopDropsite",
					"outputs": [],
					"stateMutability": "nonpayable",
					"type": "function"
				},
				{
					"inputs": [
						{
							"internalType": "address payable",
							"name": "to",
							"type": "address"
						},
						{
							"internalType": "uint256",
							"name": "amount",
							"type": "uint256"
						}
					],
					"name": "withDraw",
					"outputs": [],
					"stateMutability": "nonpayable",
					"type": "function"
				}
			],
			"devdoc": {
				"kind": "dev",
				"methods": {},
				"version": 1
			},
			"evm": {
				"assembly": "    /* \"NFTES_Drop_flat.sol\":15472:23414  contract NFTES_Drop is ERC1155_Drop {... */\n  mstore(0x40, 0x80)\n    /* \"NFTES_Drop_flat.sol\":15562:15578  string data = \"\" */\n  mload(0x40)\n  dup1\n  0x20\n  add\n  0x40\n  mstore\n  dup1\n  0x00\n  dup2\n  mstore\n  pop\n  0x02\n  swap1\n  dup1\n  mload\n  swap1\n  0x20\n  add\n  swap1\n  tag_1\n  swap3\n  swap2\n  swap1\n  tag_2\n  jump\t// in\ntag_1:\n  pop\n    /* \"NFTES_Drop_flat.sol\":15830:15832  50 */\n  0x32\n    /* \"NFTES_Drop_flat.sol\":15806:15832  uint256 maxDiamondCount=50 */\n  0x09\n  sstore\n    /* \"NFTES_Drop_flat.sol\":15859:15862  100 */\n  0x64\n    /* \"NFTES_Drop_flat.sol\":15838:15862  uint256 maxGoldCount=100 */\n  0x0a\n  sstore\n    /* \"NFTES_Drop_flat.sol\":15891:15894  850 */\n  0x0352\n    /* \"NFTES_Drop_flat.sol\":15868:15894  uint256 maxSilverCount=850 */\n  0x0b\n  sstore\n    /* \"NFTES_Drop_flat.sol\":16570:16574  true */\n  0x01\n    /* \"NFTES_Drop_flat.sol\":16547:16574  bool public isPaused = true */\n  0x0e\n  exp(0x0100, 0x00)\n  dup2\n  sload\n  dup2\n  0xff\n  mul\n  not\n  and\n  swap1\n  dup4\n  iszero\n  iszero\n  mul\n  or\n  swap1\n  sstore\n  pop\n    /* \"NFTES_Drop_flat.sol\":16641:16959  constructor(string memory name) {... */\n  callvalue\n  dup1\n  iszero\n  tag_3\n  jumpi\n  0x00\n  dup1\n  revert\ntag_3:\n  pop\n  mload(0x40)\n  sub(codesize, bytecodeSize)\n  dup1\n  bytecodeSize\n  dup4\n  codecopy\n  dup2\n  dup2\n  add\n  0x40\n  mstore\n  dup2\n  add\n  swap1\n  tag_4\n  swap2\n  swap1\n  tag_5\n  jump\t// in\ntag_4:\n    /* \"NFTES_Drop_flat.sol\":16691:16695  name */\n  dup1\n    /* \"NFTES_Drop_flat.sol\":16683:16688  _name */\n  0x0f\n    /* \"NFTES_Drop_flat.sol\":16683:16695  _name = name */\n  swap1\n  dup1\n  mload\n  swap1\n  0x20\n  add\n  swap1\n  tag_8\n  swap3\n  swap2\n  swap1\n  tag_2\n  jump\t// in\ntag_8:\n  pop\n    /* \"NFTES_Drop_flat.sol\":16721:16731  msg.sender */\n  caller\n    /* \"NFTES_Drop_flat.sol\":16705:16710  Owner */\n  0x0e\n  0x01\n    /* \"NFTES_Drop_flat.sol\":16705:16732  Owner = payable(msg.sender) */\n  0x0100\n  exp\n  dup2\n  sload\n  dup2\n  0xffffffffffffffffffffffffffffffffffffffff\n  mul\n  not\n  and\n  swap1\n  dup4\n  0xffffffffffffffffffffffffffffffffffffffff\n  and\n  mul\n  or\n  swap1\n  sstore\n  pop\n    /* \"NFTES_Drop_flat.sol\":16761:16762  0 */\n  0x00\n    /* \"NFTES_Drop_flat.sol\":16743:16758  totalNFTsMinted */\n  0x03\n    /* \"NFTES_Drop_flat.sol\":16743:16762  totalNFTsMinted = 0 */\n  dup2\n  swap1\n  sstore\n  pop\n    /* \"NFTES_Drop_flat.sol\":16806:16807  1 */\n  0x01\n    /* \"NFTES_Drop_flat.sol\":16792:16803  numOfCopies */\n  0x04\n    /* \"NFTES_Drop_flat.sol\":16792:16807  numOfCopies = 1 */\n  dup2\n  swap1\n  sstore\n  pop\n    /* \"NFTES_Drop_flat.sol\":16913:16914  0 */\n  0x00\n    /* \"NFTES_Drop_flat.sol\":16903:16910  Diamond */\n  0x06\n    /* \"NFTES_Drop_flat.sol\":16903:16914  Diamond = 0 */\n  dup2\n  swap1\n  sstore\n  pop\n    /* \"NFTES_Drop_flat.sol\":16931:16932  0 */\n  0x00\n    /* \"NFTES_Drop_flat.sol\":16924:16928  Gold */\n  0x07\n    /* \"NFTES_Drop_flat.sol\":16924:16932  Gold = 0 */\n  dup2\n  swap1\n  sstore\n  pop\n    /* \"NFTES_Drop_flat.sol\":16951:16952  0 */\n  0x00\n    /* \"NFTES_Drop_flat.sol\":16942:16948  Silver */\n  0x08\n    /* \"NFTES_Drop_flat.sol\":16942:16952  Silver = 0 */\n  dup2\n  swap1\n  sstore\n  pop\n    /* \"NFTES_Drop_flat.sol\":16641:16959  constructor(string memory name) {... */\n  pop\n    /* \"NFTES_Drop_flat.sol\":15472:23414  contract NFTES_Drop is ERC1155_Drop {... */\n  jump(tag_9)\ntag_2:\n  dup3\n  dup1\n  sload\n  tag_10\n  swap1\n  tag_11\n  jump\t// in\ntag_10:\n  swap1\n  0x00\n  mstore\n  keccak256(0x00, 0x20)\n  swap1\n  0x1f\n  add\n  0x20\n  swap1\n  div\n  dup2\n  add\n  swap3\n  dup3\n  tag_13\n  jumpi\n  0x00\n  dup6\n  sstore\n  jump(tag_12)\ntag_13:\n  dup3\n  0x1f\n  lt\n  tag_14\n  jumpi\n  dup1\n  mload\n  not(0xff)\n  and\n  dup4\n  dup1\n  add\n  or\n  dup6\n  sstore\n  jump(tag_12)\ntag_14:\n  dup3\n  dup1\n  add\n  0x01\n  add\n  dup6\n  sstore\n  dup3\n  iszero\n  tag_12\n  jumpi\n  swap2\n  dup3\n  add\ntag_15:\n  dup3\n  dup2\n  gt\n  iszero\n  tag_16\n  jumpi\n  dup3\n  mload\n  dup3\n  sstore\n  swap2\n  0x20\n  add\n  swap2\n  swap1\n  0x01\n  add\n  swap1\n  jump(tag_15)\ntag_16:\ntag_12:\n  pop\n  swap1\n  pop\n  tag_17\n  swap2\n  swap1\n  tag_18\n  jump\t// in\ntag_17:\n  pop\n  swap1\n  jump\t// out\ntag_18:\ntag_19:\n  dup1\n  dup3\n  gt\n  iszero\n  tag_20\n  jumpi\n  0x00\n  dup2\n  0x00\n  swap1\n  sstore\n  pop\n  0x01\n  add\n  jump(tag_19)\ntag_20:\n  pop\n  swap1\n  jump\t// out\n    /* \"#utility.yul\":7:428   */\ntag_22:\n    /* \"#utility.yul\":96:101   */\n  0x00\n    /* \"#utility.yul\":121:187   */\n  tag_24\n    /* \"#utility.yul\":137:186   */\n  tag_25\n    /* \"#utility.yul\":179:185   */\n  dup5\n    /* \"#utility.yul\":137:186   */\n  tag_26\n  jump\t// in\ntag_25:\n    /* \"#utility.yul\":121:187   */\n  tag_27\n  jump\t// in\ntag_24:\n    /* \"#utility.yul\":112:187   */\n  swap1\n  pop\n    /* \"#utility.yul\":210:216   */\n  dup3\n    /* \"#utility.yul\":203:208   */\n  dup2\n    /* \"#utility.yul\":196:217   */\n  mstore\n    /* \"#utility.yul\":248:252   */\n  0x20\n    /* \"#utility.yul\":241:246   */\n  dup2\n    /* \"#utility.yul\":237:253   */\n  add\n    /* \"#utility.yul\":286:289   */\n  dup5\n    /* \"#utility.yul\":277:283   */\n  dup5\n    /* \"#utility.yul\":272:275   */\n  dup5\n    /* \"#utility.yul\":268:284   */\n  add\n    /* \"#utility.yul\":265:290   */\n  gt\n    /* \"#utility.yul\":262:374   */\n  iszero\n  tag_28\n  jumpi\n    /* \"#utility.yul\":293:372   */\n  tag_29\n  tag_30\n  jump\t// in\ntag_29:\n    /* \"#utility.yul\":262:374   */\ntag_28:\n    /* \"#utility.yul\":383:422   */\n  tag_31\n    /* \"#utility.yul\":415:421   */\n  dup5\n    /* \"#utility.yul\":410:413   */\n  dup3\n    /* \"#utility.yul\":405:408   */\n  dup6\n    /* \"#utility.yul\":383:422   */\n  tag_32\n  jump\t// in\ntag_31:\n    /* \"#utility.yul\":102:428   */\n  pop\n    /* \"#utility.yul\":7:428   */\n  swap4\n  swap3\n  pop\n  pop\n  pop\n  jump\t// out\n    /* \"#utility.yul\":448:803   */\ntag_33:\n    /* \"#utility.yul\":515:520   */\n  0x00\n    /* \"#utility.yul\":564:567   */\n  dup3\n    /* \"#utility.yul\":557:561   */\n  0x1f\n    /* \"#utility.yul\":549:555   */\n  dup4\n    /* \"#utility.yul\":545:562   */\n  add\n    /* \"#utility.yul\":541:568   */\n  slt\n    /* \"#utility.yul\":531:653   */\n  tag_35\n  jumpi\n    /* \"#utility.yul\":572:651   */\n  tag_36\n  tag_37\n  jump\t// in\ntag_36:\n    /* \"#utility.yul\":531:653   */\ntag_35:\n    /* \"#utility.yul\":682:688   */\n  dup2\n    /* \"#utility.yul\":676:689   */\n  mload\n    /* \"#utility.yul\":707:797   */\n  tag_38\n    /* \"#utility.yul\":793:796   */\n  dup5\n    /* \"#utility.yul\":785:791   */\n  dup3\n    /* \"#utility.yul\":778:782   */\n  0x20\n    /* \"#utility.yul\":770:776   */\n  dup7\n    /* \"#utility.yul\":766:783   */\n  add\n    /* \"#utility.yul\":707:797   */\n  tag_22\n  jump\t// in\ntag_38:\n    /* \"#utility.yul\":698:797   */\n  swap2\n  pop\n    /* \"#utility.yul\":521:803   */\n  pop\n    /* \"#utility.yul\":448:803   */\n  swap3\n  swap2\n  pop\n  pop\n  jump\t// out\n    /* \"#utility.yul\":809:1333   */\ntag_5:\n    /* \"#utility.yul\":889:895   */\n  0x00\n    /* \"#utility.yul\":938:940   */\n  0x20\n    /* \"#utility.yul\":926:935   */\n  dup3\n    /* \"#utility.yul\":917:924   */\n  dup5\n    /* \"#utility.yul\":913:936   */\n  sub\n    /* \"#utility.yul\":909:941   */\n  slt\n    /* \"#utility.yul\":906:1025   */\n  iszero\n  tag_40\n  jumpi\n    /* \"#utility.yul\":944:1023   */\n  tag_41\n  tag_42\n  jump\t// in\ntag_41:\n    /* \"#utility.yul\":906:1025   */\ntag_40:\n    /* \"#utility.yul\":1085:1086   */\n  0x00\n    /* \"#utility.yul\":1074:1083   */\n  dup3\n    /* \"#utility.yul\":1070:1087   */\n  add\n    /* \"#utility.yul\":1064:1088   */\n  mload\n    /* \"#utility.yul\":1115:1133   */\n  0xffffffffffffffff\n    /* \"#utility.yul\":1107:1113   */\n  dup2\n    /* \"#utility.yul\":1104:1134   */\n  gt\n    /* \"#utility.yul\":1101:1218   */\n  iszero\n  tag_43\n  jumpi\n    /* \"#utility.yul\":1137:1216   */\n  tag_44\n  tag_45\n  jump\t// in\ntag_44:\n    /* \"#utility.yul\":1101:1218   */\ntag_43:\n    /* \"#utility.yul\":1242:1316   */\n  tag_46\n    /* \"#utility.yul\":1308:1315   */\n  dup5\n    /* \"#utility.yul\":1299:1305   */\n  dup3\n    /* \"#utility.yul\":1288:1297   */\n  dup6\n    /* \"#utility.yul\":1284:1306   */\n  add\n    /* \"#utility.yul\":1242:1316   */\n  tag_33\n  jump\t// in\ntag_46:\n    /* \"#utility.yul\":1232:1316   */\n  swap2\n  pop\n    /* \"#utility.yul\":1035:1326   */\n  pop\n    /* \"#utility.yul\":809:1333   */\n  swap3\n  swap2\n  pop\n  pop\n  jump\t// out\n    /* \"#utility.yul\":1339:1468   */\ntag_27:\n    /* \"#utility.yul\":1373:1379   */\n  0x00\n    /* \"#utility.yul\":1400:1420   */\n  tag_48\n  tag_49\n  jump\t// in\ntag_48:\n    /* \"#utility.yul\":1390:1420   */\n  swap1\n  pop\n    /* \"#utility.yul\":1429:1462   */\n  tag_50\n    /* \"#utility.yul\":1457:1461   */\n  dup3\n    /* \"#utility.yul\":1449:1455   */\n  dup3\n    /* \"#utility.yul\":1429:1462   */\n  tag_51\n  jump\t// in\ntag_50:\n    /* \"#utility.yul\":1339:1468   */\n  swap2\n  swap1\n  pop\n  jump\t// out\n    /* \"#utility.yul\":1474:1549   */\ntag_49:\n    /* \"#utility.yul\":1507:1513   */\n  0x00\n    /* \"#utility.yul\":1540:1542   */\n  0x40\n    /* \"#utility.yul\":1534:1543   */\n  mload\n    /* \"#utility.yul\":1524:1543   */\n  swap1\n  pop\n    /* \"#utility.yul\":1474:1549   */\n  swap1\n  jump\t// out\n    /* \"#utility.yul\":1555:1863   */\ntag_26:\n    /* \"#utility.yul\":1617:1621   */\n  0x00\n    /* \"#utility.yul\":1707:1725   */\n  0xffffffffffffffff\n    /* \"#utility.yul\":1699:1705   */\n  dup3\n    /* \"#utility.yul\":1696:1726   */\n  gt\n    /* \"#utility.yul\":1693:1749   */\n  iszero\n  tag_54\n  jumpi\n    /* \"#utility.yul\":1729:1747   */\n  tag_55\n  tag_56\n  jump\t// in\ntag_55:\n    /* \"#utility.yul\":1693:1749   */\ntag_54:\n    /* \"#utility.yul\":1767:1796   */\n  tag_57\n    /* \"#utility.yul\":1789:1795   */\n  dup3\n    /* \"#utility.yul\":1767:1796   */\n  tag_58\n  jump\t// in\ntag_57:\n    /* \"#utility.yul\":1759:1796   */\n  swap1\n  pop\n    /* \"#utility.yul\":1851:1855   */\n  0x20\n    /* \"#utility.yul\":1845:1849   */\n  dup2\n    /* \"#utility.yul\":1841:1856   */\n  add\n    /* \"#utility.yul\":1833:1856   */\n  swap1\n  pop\n    /* \"#utility.yul\":1555:1863   */\n  swap2\n  swap1\n  pop\n  jump\t// out\n    /* \"#utility.yul\":1869:2176   */\ntag_32:\n    /* \"#utility.yul\":1937:1938   */\n  0x00\n    /* \"#utility.yul\":1947:2060   */\ntag_60:\n    /* \"#utility.yul\":1961:1967   */\n  dup4\n    /* \"#utility.yul\":1958:1959   */\n  dup2\n    /* \"#utility.yul\":1955:1968   */\n  lt\n    /* \"#utility.yul\":1947:2060   */\n  iszero\n  tag_62\n  jumpi\n    /* \"#utility.yul\":2046:2047   */\n  dup1\n    /* \"#utility.yul\":2041:2044   */\n  dup3\n    /* \"#utility.yul\":2037:2048   */\n  add\n    /* \"#utility.yul\":2031:2049   */\n  mload\n    /* \"#utility.yul\":2027:2028   */\n  dup2\n    /* \"#utility.yul\":2022:2025   */\n  dup5\n    /* \"#utility.yul\":2018:2029   */\n  add\n    /* \"#utility.yul\":2011:2050   */\n  mstore\n    /* \"#utility.yul\":1983:1985   */\n  0x20\n    /* \"#utility.yul\":1980:1981   */\n  dup2\n    /* \"#utility.yul\":1976:1986   */\n  add\n    /* \"#utility.yul\":1971:1986   */\n  swap1\n  pop\n    /* \"#utility.yul\":1947:2060   */\n  jump(tag_60)\ntag_62:\n    /* \"#utility.yul\":2078:2084   */\n  dup4\n    /* \"#utility.yul\":2075:2076   */\n  dup2\n    /* \"#utility.yul\":2072:2085   */\n  gt\n    /* \"#utility.yul\":2069:2170   */\n  iszero\n  tag_63\n  jumpi\n    /* \"#utility.yul\":2158:2159   */\n  0x00\n    /* \"#utility.yul\":2149:2155   */\n  dup5\n    /* \"#utility.yul\":2144:2147   */\n  dup5\n    /* \"#utility.yul\":2140:2156   */\n  add\n    /* \"#utility.yul\":2133:2160   */\n  mstore\n    /* \"#utility.yul\":2069:2170   */\ntag_63:\n    /* \"#utility.yul\":1918:2176   */\n  pop\n    /* \"#utility.yul\":1869:2176   */\n  pop\n  pop\n  pop\n  jump\t// out\n    /* \"#utility.yul\":2182:2502   */\ntag_11:\n    /* \"#utility.yul\":2226:2232   */\n  0x00\n    /* \"#utility.yul\":2263:2264   */\n  0x02\n    /* \"#utility.yul\":2257:2261   */\n  dup3\n    /* \"#utility.yul\":2253:2265   */\n  div\n    /* \"#utility.yul\":2243:2265   */\n  swap1\n  pop\n    /* \"#utility.yul\":2310:2311   */\n  0x01\n    /* \"#utility.yul\":2304:2308   */\n  dup3\n    /* \"#utility.yul\":2300:2312   */\n  and\n    /* \"#utility.yul\":2331:2349   */\n  dup1\n    /* \"#utility.yul\":2321:2402   */\n  tag_65\n  jumpi\n    /* \"#utility.yul\":2387:2391   */\n  0x7f\n    /* \"#utility.yul\":2379:2385   */\n  dup3\n    /* \"#utility.yul\":2375:2392   */\n  and\n    /* \"#utility.yul\":2365:2392   */\n  swap2\n  pop\n    /* \"#utility.yul\":2321:2402   */\ntag_65:\n    /* \"#utility.yul\":2449:2451   */\n  0x20\n    /* \"#utility.yul\":2441:2447   */\n  dup3\n    /* \"#utility.yul\":2438:2452   */\n  lt\n    /* \"#utility.yul\":2418:2436   */\n  dup2\n    /* \"#utility.yul\":2415:2453   */\n  eq\n    /* \"#utility.yul\":2412:2496   */\n  iszero\n  tag_66\n  jumpi\n    /* \"#utility.yul\":2468:2486   */\n  tag_67\n  tag_68\n  jump\t// in\ntag_67:\n    /* \"#utility.yul\":2412:2496   */\ntag_66:\n    /* \"#utility.yul\":2233:2502   */\n  pop\n    /* \"#utility.yul\":2182:2502   */\n  swap2\n  swap1\n  pop\n  jump\t// out\n    /* \"#utility.yul\":2508:2789   */\ntag_51:\n    /* \"#utility.yul\":2591:2618   */\n  tag_70\n    /* \"#utility.yul\":2613:2617   */\n  dup3\n    /* \"#utility.yul\":2591:2618   */\n  tag_58\n  jump\t// in\ntag_70:\n    /* \"#utility.yul\":2583:2589   */\n  dup2\n    /* \"#utility.yul\":2579:2619   */\n  add\n    /* \"#utility.yul\":2721:2727   */\n  dup2\n    /* \"#utility.yul\":2709:2719   */\n  dup2\n    /* \"#utility.yul\":2706:2728   */\n  lt\n    /* \"#utility.yul\":2685:2703   */\n  0xffffffffffffffff\n    /* \"#utility.yul\":2673:2683   */\n  dup3\n    /* \"#utility.yul\":2670:2704   */\n  gt\n    /* \"#utility.yul\":2667:2729   */\n  or\n    /* \"#utility.yul\":2664:2752   */\n  iszero\n  tag_71\n  jumpi\n    /* \"#utility.yul\":2732:2750   */\n  tag_72\n  tag_56\n  jump\t// in\ntag_72:\n    /* \"#utility.yul\":2664:2752   */\ntag_71:\n    /* \"#utility.yul\":2772:2782   */\n  dup1\n    /* \"#utility.yul\":2768:2770   */\n  0x40\n    /* \"#utility.yul\":2761:2783   */\n  mstore\n    /* \"#utility.yul\":2551:2789   */\n  pop\n    /* \"#utility.yul\":2508:2789   */\n  pop\n  pop\n  jump\t// out\n    /* \"#utility.yul\":2795:2975   */\ntag_68:\n    /* \"#utility.yul\":2843:2920   */\n  0x4e487b7100000000000000000000000000000000000000000000000000000000\n    /* \"#utility.yul\":2840:2841   */\n  0x00\n    /* \"#utility.yul\":2833:2921   */\n  mstore\n    /* \"#utility.yul\":2940:2944   */\n  0x22\n    /* \"#utility.yul\":2937:2938   */\n  0x04\n    /* \"#utility.yul\":2930:2945   */\n  mstore\n    /* \"#utility.yul\":2964:2968   */\n  0x24\n    /* \"#utility.yul\":2961:2962   */\n  0x00\n    /* \"#utility.yul\":2954:2969   */\n  revert\n    /* \"#utility.yul\":2981:3161   */\ntag_56:\n    /* \"#utility.yul\":3029:3106   */\n  0x4e487b7100000000000000000000000000000000000000000000000000000000\n    /* \"#utility.yul\":3026:3027   */\n  0x00\n    /* \"#utility.yul\":3019:3107   */\n  mstore\n    /* \"#utility.yul\":3126:3130   */\n  0x41\n    /* \"#utility.yul\":3123:3124   */\n  0x04\n    /* \"#utility.yul\":3116:3131   */\n  mstore\n    /* \"#utility.yul\":3150:3154   */\n  0x24\n    /* \"#utility.yul\":3147:3148   */\n  0x00\n    /* \"#utility.yul\":3140:3155   */\n  revert\n    /* \"#utility.yul\":3167:3284   */\ntag_37:\n    /* \"#utility.yul\":3276:3277   */\n  0x00\n    /* \"#utility.yul\":3273:3274   */\n  dup1\n    /* \"#utility.yul\":3266:3278   */\n  revert\n    /* \"#utility.yul\":3290:3407   */\ntag_30:\n    /* \"#utility.yul\":3399:3400   */\n  0x00\n    /* \"#utility.yul\":3396:3397   */\n  dup1\n    /* \"#utility.yul\":3389:3401   */\n  revert\n    /* \"#utility.yul\":3413:3530   */\ntag_45:\n    /* \"#utility.yul\":3522:3523   */\n  0x00\n    /* \"#utility.yul\":3519:3520   */\n  dup1\n    /* \"#utility.yul\":3512:3524   */\n  revert\n    /* \"#utility.yul\":3536:3653   */\ntag_42:\n    /* \"#utility.yul\":3645:3646   */\n  0x00\n    /* \"#utility.yul\":3642:3643   */\n  dup1\n    /* \"#utility.yul\":3635:3647   */\n  revert\n    /* \"#utility.yul\":3659:3761   */\ntag_58:\n    /* \"#utility.yul\":3700:3706   */\n  0x00\n    /* \"#utility.yul\":3751:3753   */\n  0x1f\n    /* \"#utility.yul\":3747:3754   */\n  not\n    /* \"#utility.yul\":3742:3744   */\n  0x1f\n    /* \"#utility.yul\":3735:3740   */\n  dup4\n    /* \"#utility.yul\":3731:3745   */\n  add\n    /* \"#utility.yul\":3727:3755   */\n  and\n    /* \"#utility.yul\":3717:3755   */\n  swap1\n  pop\n    /* \"#utility.yul\":3659:3761   */\n  swap2\n  swap1\n  pop\n  jump\t// out\n    /* \"NFTES_Drop_flat.sol\":15472:23414  contract NFTES_Drop is ERC1155_Drop {... */\ntag_9:\n  dataSize(sub_0)\n  dup1\n  dataOffset(sub_0)\n  0x00\n  codecopy\n  0x00\n  return\nstop\n\nsub_0: assembly {\n        /* \"NFTES_Drop_flat.sol\":15472:23414  contract NFTES_Drop is ERC1155_Drop {... */\n      mstore(0x40, 0x80)\n      jumpi(tag_1, lt(calldatasize, 0x04))\n      shr(0xe0, calldataload(0x00))\n      dup1\n      0x7a5caab3\n      gt\n      tag_17\n      jumpi\n      dup1\n      0xb187bd26\n      gt\n      tag_18\n      jumpi\n      dup1\n      0xb187bd26\n      eq\n      tag_13\n      jumpi\n      dup1\n      0xb4a99a4e\n      eq\n      tag_14\n      jumpi\n      dup1\n      0xb6db75a0\n      eq\n      tag_15\n      jumpi\n      dup1\n      0xeddd0d9c\n      eq\n      tag_16\n      jumpi\n      jump(tag_1)\n    tag_18:\n      dup1\n      0x7a5caab3\n      eq\n      tag_9\n      jumpi\n      dup1\n      0x8b7afe2e\n      eq\n      tag_10\n      jumpi\n      dup1\n      0xa6f9dae1\n      eq\n      tag_11\n      jumpi\n      dup1\n      0xaa90c726\n      eq\n      tag_12\n      jumpi\n      jump(tag_1)\n    tag_17:\n      dup1\n      0x225011da\n      gt\n      tag_19\n      jumpi\n      dup1\n      0x225011da\n      eq\n      tag_5\n      jumpi\n      dup1\n      0x5b27d84e\n      eq\n      tag_6\n      jumpi\n      dup1\n      0x5e1f0556\n      eq\n      tag_7\n      jumpi\n      dup1\n      0x60daa851\n      eq\n      tag_8\n      jumpi\n      jump(tag_1)\n    tag_19:\n      dup1\n      0x0390c11c\n      eq\n      tag_2\n      jumpi\n      dup1\n      0x15460259\n      eq\n      tag_3\n      jumpi\n      dup1\n      0x191e2e83\n      eq\n      tag_4\n      jumpi\n    tag_1:\n      0x00\n      dup1\n      revert\n        /* \"NFTES_Drop_flat.sol\":18102:18199  function checkTotalMinted() public view returns (uint256) {... */\n    tag_2:\n      callvalue\n      dup1\n      iszero\n      tag_20\n      jumpi\n      0x00\n      dup1\n      revert\n    tag_20:\n      pop\n      tag_21\n      tag_22\n      jump\t// in\n    tag_21:\n      mload(0x40)\n      tag_23\n      swap2\n      swap1\n      tag_24\n      jump\t// in\n    tag_23:\n      mload(0x40)\n      dup1\n      swap2\n      sub\n      swap1\n      return\n        /* \"NFTES_Drop_flat.sol\":18351:18491  function openDropsite() public OnlyOwner {... */\n    tag_3:\n      callvalue\n      dup1\n      iszero\n      tag_25\n      jumpi\n      0x00\n      dup1\n      revert\n    tag_25:\n      pop\n      tag_26\n      tag_27\n      jump\t// in\n    tag_26:\n      stop\n        /* \"NFTES_Drop_flat.sol\":18580:18798  function withDraw(address payable to, uint amount) public  OnlyOwner {... */\n    tag_4:\n      callvalue\n      dup1\n      iszero\n      tag_28\n      jumpi\n      0x00\n      dup1\n      revert\n    tag_28:\n      pop\n      tag_29\n      0x04\n      dup1\n      calldatasize\n      sub\n      dup2\n      add\n      swap1\n      tag_30\n      swap2\n      swap1\n      tag_31\n      jump\t// in\n    tag_30:\n      tag_32\n      jump\t// in\n    tag_29:\n      stop\n        /* \"NFTES_Drop_flat.sol\":17289:17491  function returnNftsOwner(address addr)... */\n    tag_5:\n      callvalue\n      dup1\n      iszero\n      tag_33\n      jumpi\n      0x00\n      dup1\n      revert\n    tag_33:\n      pop\n      tag_34\n      0x04\n      dup1\n      calldatasize\n      sub\n      dup2\n      add\n      swap1\n      tag_35\n      swap2\n      swap1\n      tag_36\n      jump\t// in\n    tag_35:\n      tag_37\n      jump\t// in\n    tag_34:\n      mload(0x40)\n      tag_38\n      swap2\n      swap1\n      tag_39\n      jump\t// in\n    tag_38:\n      mload(0x40)\n      dup1\n      swap2\n      sub\n      swap1\n      return\n        /* \"NFTES_Drop_flat.sol\":22707:23412  function cryptoRandomMint(address user_addr, uint256 noOfMints)... */\n    tag_6:\n      tag_40\n      0x04\n      dup1\n      calldatasize\n      sub\n      dup2\n      add\n      swap1\n      tag_41\n      swap2\n      swap1\n      tag_42\n      jump\t// in\n    tag_41:\n      tag_43\n      jump\t// in\n    tag_40:\n      mload(0x40)\n      tag_44\n      swap2\n      swap1\n      tag_39\n      jump\t// in\n    tag_44:\n      mload(0x40)\n      dup1\n      swap2\n      sub\n      swap1\n      return\n        /* \"NFTES_Drop_flat.sol\":21837:22492  function fiatRandomMint(address user_addr, uint256 noOfMints)... */\n    tag_7:\n      callvalue\n      dup1\n      iszero\n      tag_45\n      jumpi\n      0x00\n      dup1\n      revert\n    tag_45:\n      pop\n      tag_46\n      0x04\n      dup1\n      calldatasize\n      sub\n      dup2\n      add\n      swap1\n      tag_47\n      swap2\n      swap1\n      tag_42\n      jump\t// in\n    tag_47:\n      tag_48\n      jump\t// in\n    tag_46:\n      mload(0x40)\n      tag_49\n      swap2\n      swap1\n      tag_39\n      jump\t// in\n    tag_49:\n      mload(0x40)\n      dup1\n      swap2\n      sub\n      swap1\n      return\n        /* \"NFTES_Drop_flat.sol\":17544:17785  function checkMintedCategoryWise()... */\n    tag_8:\n      callvalue\n      dup1\n      iszero\n      tag_50\n      jumpi\n      0x00\n      dup1\n      revert\n    tag_50:\n      pop\n      tag_51\n      tag_52\n      jump\t// in\n    tag_51:\n      mload(0x40)\n      tag_53\n      swap4\n      swap3\n      swap2\n      swap1\n      tag_54\n      jump\t// in\n    tag_53:\n      mload(0x40)\n      dup1\n      swap2\n      sub\n      swap1\n      return\n        /* \"NFTES_Drop_flat.sol\":17951:18063  function getMintFee()... */\n    tag_9:\n      callvalue\n      dup1\n      iszero\n      tag_55\n      jumpi\n      0x00\n      dup1\n      revert\n    tag_55:\n      pop\n      tag_56\n      tag_57\n      jump\t// in\n    tag_56:\n      mload(0x40)\n      tag_58\n      swap2\n      swap1\n      tag_24\n      jump\t// in\n    tag_58:\n      mload(0x40)\n      dup1\n      swap2\n      sub\n      swap1\n      return\n        /* \"NFTES_Drop_flat.sol\":18843:18955  function contractBalance() public view OnlyOwner returns (uint256) {... */\n    tag_10:\n      callvalue\n      dup1\n      iszero\n      tag_59\n      jumpi\n      0x00\n      dup1\n      revert\n    tag_59:\n      pop\n      tag_60\n      tag_61\n      jump\t// in\n    tag_60:\n      mload(0x40)\n      tag_62\n      swap2\n      swap1\n      tag_24\n      jump\t// in\n    tag_62:\n      mload(0x40)\n      dup1\n      swap2\n      sub\n      swap1\n      return\n        /* \"NFTES_Drop_flat.sol\":17091:17245  function changeOwner(address newOwnerAddr)... */\n    tag_11:\n      callvalue\n      dup1\n      iszero\n      tag_63\n      jumpi\n      0x00\n      dup1\n      revert\n    tag_63:\n      pop\n      tag_64\n      0x04\n      dup1\n      calldatasize\n      sub\n      dup2\n      add\n      swap1\n      tag_65\n      swap2\n      swap1\n      tag_36\n      jump\t// in\n    tag_65:\n      tag_66\n      jump\t// in\n    tag_64:\n      stop\n        /* \"NFTES_Drop_flat.sol\":18205:18345  function stopDropsite() public OnlyOwner {... */\n    tag_12:\n      callvalue\n      dup1\n      iszero\n      tag_67\n      jumpi\n      0x00\n      dup1\n      revert\n    tag_67:\n      pop\n      tag_68\n      tag_69\n      jump\t// in\n    tag_68:\n      stop\n        /* \"NFTES_Drop_flat.sol\":16547:16574  bool public isPaused = true */\n    tag_13:\n      callvalue\n      dup1\n      iszero\n      tag_70\n      jumpi\n      0x00\n      dup1\n      revert\n    tag_70:\n      pop\n      tag_71\n      tag_72\n      jump\t// in\n    tag_71:\n      mload(0x40)\n      tag_73\n      swap2\n      swap1\n      tag_74\n      jump\t// in\n    tag_73:\n      mload(0x40)\n      dup1\n      swap2\n      sub\n      swap1\n      return\n        /* \"NFTES_Drop_flat.sol\":16580:16608  address payable public Owner */\n    tag_14:\n      callvalue\n      dup1\n      iszero\n      tag_75\n      jumpi\n      0x00\n      dup1\n      revert\n    tag_75:\n      pop\n      tag_76\n      tag_77\n      jump\t// in\n    tag_76:\n      mload(0x40)\n      tag_78\n      swap2\n      swap1\n      tag_79\n      jump\t// in\n    tag_78:\n      mload(0x40)\n      dup1\n      swap2\n      sub\n      swap1\n      return\n        /* \"NFTES_Drop_flat.sol\":16964:17086  function isAdmin() public view returns (bool){... */\n    tag_15:\n      callvalue\n      dup1\n      iszero\n      tag_80\n      jumpi\n      0x00\n      dup1\n      revert\n    tag_80:\n      pop\n      tag_81\n      tag_82\n      jump\t// in\n    tag_81:\n      mload(0x40)\n      tag_83\n      swap2\n      swap1\n      tag_74\n      jump\t// in\n    tag_83:\n      mload(0x40)\n      dup1\n      swap2\n      sub\n      swap1\n      return\n        /* \"NFTES_Drop_flat.sol\":17829:17918  function setMintFee(uint _mintFee) public OnlyOwner  {... */\n    tag_16:\n      callvalue\n      dup1\n      iszero\n      tag_84\n      jumpi\n      0x00\n      dup1\n      revert\n    tag_84:\n      pop\n      tag_85\n      0x04\n      dup1\n      calldatasize\n      sub\n      dup2\n      add\n      swap1\n      tag_86\n      swap2\n      swap1\n      tag_87\n      jump\t// in\n    tag_86:\n      tag_88\n      jump\t// in\n    tag_85:\n      stop\n        /* \"NFTES_Drop_flat.sol\":18102:18199  function checkTotalMinted() public view returns (uint256) {... */\n    tag_22:\n        /* \"NFTES_Drop_flat.sol\":18151:18158  uint256 */\n      0x00\n        /* \"NFTES_Drop_flat.sol\":18177:18192  totalNFTsMinted */\n      sload(0x03)\n        /* \"NFTES_Drop_flat.sol\":18170:18192  return totalNFTsMinted */\n      swap1\n      pop\n        /* \"NFTES_Drop_flat.sol\":18102:18199  function checkTotalMinted() public view returns (uint256) {... */\n      swap1\n      jump\t// out\n        /* \"NFTES_Drop_flat.sol\":18351:18491  function openDropsite() public OnlyOwner {... */\n    tag_27:\n        /* \"NFTES_Drop_flat.sol\":16205:16210  Owner */\n      0x0e\n      0x01\n      swap1\n      sload\n      swap1\n      0x0100\n      exp\n      swap1\n      div\n      0xffffffffffffffffffffffffffffffffffffffff\n      and\n        /* \"NFTES_Drop_flat.sol\":16189:16210  _msgSender() == Owner */\n      0xffffffffffffffffffffffffffffffffffffffff\n      and\n        /* \"NFTES_Drop_flat.sol\":16189:16201  _msgSender() */\n      tag_91\n        /* \"NFTES_Drop_flat.sol\":16189:16199  _msgSender */\n      tag_92\n        /* \"NFTES_Drop_flat.sol\":16189:16201  _msgSender() */\n      jump\t// in\n    tag_91:\n        /* \"NFTES_Drop_flat.sol\":16189:16210  _msgSender() == Owner */\n      0xffffffffffffffffffffffffffffffffffffffff\n      and\n      eq\n        /* \"NFTES_Drop_flat.sol\":16181:16243  require(_msgSender() == Owner, \"Only NFT-ES Owner can Access\") */\n      tag_93\n      jumpi\n      mload(0x40)\n      0x08c379a000000000000000000000000000000000000000000000000000000000\n      dup2\n      mstore\n      0x04\n      add\n      tag_94\n      swap1\n      tag_95\n      jump\t// in\n    tag_94:\n      mload(0x40)\n      dup1\n      swap2\n      sub\n      swap1\n      revert\n    tag_93:\n        /* \"NFTES_Drop_flat.sol\":18422:18426  true */\n      0x01\n        /* \"NFTES_Drop_flat.sol\":18410:18426  isPaused == true */\n      iszero\n      iszero\n        /* \"NFTES_Drop_flat.sol\":18410:18418  isPaused */\n      0x0e\n      0x00\n      swap1\n      sload\n      swap1\n      0x0100\n      exp\n      swap1\n      div\n      0xff\n      and\n        /* \"NFTES_Drop_flat.sol\":18410:18426  isPaused == true */\n      iszero\n      iszero\n      eq\n        /* \"NFTES_Drop_flat.sol\":18402:18458  require(isPaused == true, \"Dropsite is already Running\") */\n      tag_97\n      jumpi\n      mload(0x40)\n      0x08c379a000000000000000000000000000000000000000000000000000000000\n      dup2\n      mstore\n      0x04\n      add\n      tag_98\n      swap1\n      tag_99\n      jump\t// in\n    tag_98:\n      mload(0x40)\n      dup1\n      swap2\n      sub\n      swap1\n      revert\n    tag_97:\n        /* \"NFTES_Drop_flat.sol\":18479:18484  false */\n      0x00\n        /* \"NFTES_Drop_flat.sol\":18468:18476  isPaused */\n      0x0e\n      0x00\n        /* \"NFTES_Drop_flat.sol\":18468:18484  isPaused = false */\n      0x0100\n      exp\n      dup2\n      sload\n      dup2\n      0xff\n      mul\n      not\n      and\n      swap1\n      dup4\n      iszero\n      iszero\n      mul\n      or\n      swap1\n      sstore\n      pop\n        /* \"NFTES_Drop_flat.sol\":18351:18491  function openDropsite() public OnlyOwner {... */\n      jump\t// out\n        /* \"NFTES_Drop_flat.sol\":18580:18798  function withDraw(address payable to, uint amount) public  OnlyOwner {... */\n    tag_32:\n        /* \"NFTES_Drop_flat.sol\":16205:16210  Owner */\n      0x0e\n      0x01\n      swap1\n      sload\n      swap1\n      0x0100\n      exp\n      swap1\n      div\n      0xffffffffffffffffffffffffffffffffffffffff\n      and\n        /* \"NFTES_Drop_flat.sol\":16189:16210  _msgSender() == Owner */\n      0xffffffffffffffffffffffffffffffffffffffff\n      and\n        /* \"NFTES_Drop_flat.sol\":16189:16201  _msgSender() */\n      tag_101\n        /* \"NFTES_Drop_flat.sol\":16189:16199  _msgSender */\n      tag_92\n        /* \"NFTES_Drop_flat.sol\":16189:16201  _msgSender() */\n      jump\t// in\n    tag_101:\n        /* \"NFTES_Drop_flat.sol\":16189:16210  _msgSender() == Owner */\n      0xffffffffffffffffffffffffffffffffffffffff\n      and\n      eq\n        /* \"NFTES_Drop_flat.sol\":16181:16243  require(_msgSender() == Owner, \"Only NFT-ES Owner can Access\") */\n      tag_102\n      jumpi\n      mload(0x40)\n      0x08c379a000000000000000000000000000000000000000000000000000000000\n      dup2\n      mstore\n      0x04\n      add\n      tag_103\n      swap1\n      tag_95\n      jump\t// in\n    tag_103:\n      mload(0x40)\n      dup1\n      swap2\n      sub\n      swap1\n      revert\n    tag_102:\n        /* \"NFTES_Drop_flat.sol\":18659:18674  uint256 Balance */\n      0x00\n        /* \"NFTES_Drop_flat.sol\":18677:18698  address(this).balance */\n      selfbalance\n        /* \"NFTES_Drop_flat.sol\":18659:18698  uint256 Balance = address(this).balance */\n      swap1\n      pop\n        /* \"NFTES_Drop_flat.sol\":18725:18732  Balance */\n      dup1\n        /* \"NFTES_Drop_flat.sol\":18716:18722  amount */\n      dup3\n        /* \"NFTES_Drop_flat.sol\":18716:18732  amount < Balance */\n      lt\n        /* \"NFTES_Drop_flat.sol\":18708:18762  require(amount < Balance, \"Error! Not Enough Balance\") */\n      tag_105\n      jumpi\n      mload(0x40)\n      0x08c379a000000000000000000000000000000000000000000000000000000000\n      dup2\n      mstore\n      0x04\n      add\n      tag_106\n      swap1\n      tag_107\n      jump\t// in\n    tag_106:\n      mload(0x40)\n      dup1\n      swap2\n      sub\n      swap1\n      revert\n    tag_105:\n        /* \"NFTES_Drop_flat.sol\":18772:18774  to */\n      dup3\n        /* \"NFTES_Drop_flat.sol\":18772:18783  to.transfer */\n      0xffffffffffffffffffffffffffffffffffffffff\n      and\n        /* \"NFTES_Drop_flat.sol\":18772:18791  to.transfer(amount) */\n      0x08fc\n        /* \"NFTES_Drop_flat.sol\":18784:18790  amount */\n      dup4\n        /* \"NFTES_Drop_flat.sol\":18772:18791  to.transfer(amount) */\n      swap1\n      dup2\n      iszero\n      mul\n      swap1\n      mload(0x40)\n      0x00\n      mload(0x40)\n      dup1\n      dup4\n      sub\n      dup2\n      dup6\n      dup9\n      dup9\n      call\n      swap4\n      pop\n      pop\n      pop\n      pop\n      iszero\n      dup1\n      iszero\n      tag_109\n      jumpi\n      returndatasize\n      0x00\n      dup1\n      returndatacopy\n      revert(0x00, returndatasize)\n    tag_109:\n      pop\n        /* \"NFTES_Drop_flat.sol\":18649:18798  {... */\n      pop\n        /* \"NFTES_Drop_flat.sol\":18580:18798  function withDraw(address payable to, uint amount) public  OnlyOwner {... */\n      pop\n      pop\n      jump\t// out\n        /* \"NFTES_Drop_flat.sol\":17289:17491  function returnNftsOwner(address addr)... */\n    tag_37:\n        /* \"NFTES_Drop_flat.sol\":17401:17417  uint256[] memory */\n      0x60\n        /* \"NFTES_Drop_flat.sol\":16370:16375  false */\n      0x00\n        /* \"NFTES_Drop_flat.sol\":16358:16375  isPaused == false */\n      iszero\n      iszero\n        /* \"NFTES_Drop_flat.sol\":16358:16366  isPaused */\n      0x0e\n      0x00\n      swap1\n      sload\n      swap1\n      0x0100\n      exp\n      swap1\n      div\n      0xff\n      and\n        /* \"NFTES_Drop_flat.sol\":16358:16375  isPaused == false */\n      iszero\n      iszero\n      eq\n        /* \"NFTES_Drop_flat.sol\":16350:16407  require(isPaused == false, \"Dropsite is not Opened Yet.\") */\n      tag_111\n      jumpi\n      mload(0x40)\n      0x08c379a000000000000000000000000000000000000000000000000000000000\n      dup2\n      mstore\n      0x04\n      add\n      tag_112\n      swap1\n      tag_113\n      jump\t// in\n    tag_112:\n      mload(0x40)\n      dup1\n      swap2\n      sub\n      swap1\n      revert\n    tag_111:\n        /* \"NFTES_Drop_flat.sol\":17440:17458  dropsite_NFT_Owner */\n      0x0c\n        /* \"NFTES_Drop_flat.sol\":17440:17464  dropsite_NFT_Owner[addr] */\n      0x00\n        /* \"NFTES_Drop_flat.sol\":17459:17463  addr */\n      dup4\n        /* \"NFTES_Drop_flat.sol\":17440:17464  dropsite_NFT_Owner[addr] */\n      0xffffffffffffffffffffffffffffffffffffffff\n      and\n      0xffffffffffffffffffffffffffffffffffffffff\n      and\n      dup2\n      mstore\n      0x20\n      add\n      swap1\n      dup2\n      mstore\n      0x20\n      add\n      0x00\n      keccak256\n        /* \"NFTES_Drop_flat.sol\":17440:17484  dropsite_NFT_Owner[addr].owned_Dropsite_NFTs */\n      0x00\n      add\n        /* \"NFTES_Drop_flat.sol\":17433:17484  return dropsite_NFT_Owner[addr].owned_Dropsite_NFTs */\n      dup1\n      sload\n      dup1\n      0x20\n      mul\n      0x20\n      add\n      mload(0x40)\n      swap1\n      dup2\n      add\n      0x40\n      mstore\n      dup1\n      swap3\n      swap2\n      swap1\n      dup2\n      dup2\n      mstore\n      0x20\n      add\n      dup3\n      dup1\n      sload\n      dup1\n      iszero\n      tag_115\n      jumpi\n      0x20\n      mul\n      dup3\n      add\n      swap2\n      swap1\n      0x00\n      mstore\n      keccak256(0x00, 0x20)\n      swap1\n    tag_116:\n      dup2\n      sload\n      dup2\n      mstore\n      0x20\n      add\n      swap1\n      0x01\n      add\n      swap1\n      dup1\n      dup4\n      gt\n      tag_116\n      jumpi\n    tag_115:\n      pop\n      pop\n      pop\n      pop\n      pop\n      swap1\n      pop\n        /* \"NFTES_Drop_flat.sol\":17289:17491  function returnNftsOwner(address addr)... */\n      swap2\n      swap1\n      pop\n      jump\t// out\n        /* \"NFTES_Drop_flat.sol\":22707:23412  function cryptoRandomMint(address user_addr, uint256 noOfMints)... */\n    tag_43:\n        /* \"NFTES_Drop_flat.sol\":22871:22887  uint256[] memory */\n      0x60\n        /* \"NFTES_Drop_flat.sol\":16370:16375  false */\n      0x00\n        /* \"NFTES_Drop_flat.sol\":16358:16375  isPaused == false */\n      iszero\n      iszero\n        /* \"NFTES_Drop_flat.sol\":16358:16366  isPaused */\n      0x0e\n      0x00\n      swap1\n      sload\n      swap1\n      0x0100\n      exp\n      swap1\n      div\n      0xff\n      and\n        /* \"NFTES_Drop_flat.sol\":16358:16375  isPaused == false */\n      iszero\n      iszero\n      eq\n        /* \"NFTES_Drop_flat.sol\":16350:16407  require(isPaused == false, \"Dropsite is not Opened Yet.\") */\n      tag_118\n      jumpi\n      mload(0x40)\n      0x08c379a000000000000000000000000000000000000000000000000000000000\n      dup2\n      mstore\n      0x04\n      add\n      tag_119\n      swap1\n      tag_113\n      jump\t// in\n    tag_119:\n      mload(0x40)\n      dup1\n      swap2\n      sub\n      swap1\n      revert\n    tag_118:\n        /* \"NFTES_Drop_flat.sol\":16487:16488  0 */\n      0x00\n        /* \"NFTES_Drop_flat.sol\":16475:16483  mintFees */\n      sload(0x05)\n        /* \"NFTES_Drop_flat.sol\":16475:16488  mintFees != 0 */\n      eq\n      iszero\n        /* \"NFTES_Drop_flat.sol\":16467:16524  require(mintFees != 0, \"Owner Should set mint Fee First\") */\n      tag_121\n      jumpi\n      mload(0x40)\n      0x08c379a000000000000000000000000000000000000000000000000000000000\n      dup2\n      mstore\n      0x04\n      add\n      tag_122\n      swap1\n      tag_123\n      jump\t// in\n    tag_122:\n      mload(0x40)\n      dup1\n      swap2\n      sub\n      swap1\n      revert\n    tag_121:\n        /* \"NFTES_Drop_flat.sol\":22923:22924  4 */\n      0x04\n        /* \"NFTES_Drop_flat.sol\":22911:22920  noOfMints */\n      dup3\n        /* \"NFTES_Drop_flat.sol\":22911:22924  noOfMints < 4 */\n      lt\n        /* \"NFTES_Drop_flat.sol\":22911:22941  noOfMints < 4 && noOfMints > 0 */\n      dup1\n      iszero\n      tag_125\n      jumpi\n      pop\n        /* \"NFTES_Drop_flat.sol\":22940:22941  0 */\n      0x00\n        /* \"NFTES_Drop_flat.sol\":22928:22937  noOfMints */\n      dup3\n        /* \"NFTES_Drop_flat.sol\":22928:22941  noOfMints > 0 */\n      gt\n        /* \"NFTES_Drop_flat.sol\":22911:22941  noOfMints < 4 && noOfMints > 0 */\n    tag_125:\n        /* \"NFTES_Drop_flat.sol\":22903:22967  require(noOfMints < 4 && noOfMints > 0, \"You can mint 1-3 NFTs\") */\n      tag_126\n      jumpi\n      mload(0x40)\n      0x08c379a000000000000000000000000000000000000000000000000000000000\n      dup2\n      mstore\n      0x04\n      add\n      tag_127\n      swap1\n      tag_128\n      jump\t// in\n    tag_127:\n      mload(0x40)\n      dup1\n      swap2\n      sub\n      swap1\n      revert\n    tag_126:\n        /* \"NFTES_Drop_flat.sol\":23003:23007  1000 */\n      0x03e8\n        /* \"NFTES_Drop_flat.sol\":22985:23000  totalNFTsMinted */\n      sload(0x03)\n        /* \"NFTES_Drop_flat.sol\":22985:23007  totalNFTsMinted < 1000 */\n      lt\n        /* \"NFTES_Drop_flat.sol\":22977:23037  require(totalNFTsMinted < 1000, \"Max Minting Limit reached\") */\n      tag_129\n      jumpi\n      mload(0x40)\n      0x08c379a000000000000000000000000000000000000000000000000000000000\n      dup2\n      mstore\n      0x04\n      add\n      tag_130\n      swap1\n      tag_131\n      jump\t// in\n    tag_130:\n      mload(0x40)\n      dup1\n      swap2\n      sub\n      swap1\n      revert\n    tag_129:\n        /* \"NFTES_Drop_flat.sol\":23067:23068  0 */\n      0x00\n        /* \"NFTES_Drop_flat.sol\":23055:23063  mintFees */\n      sload(0x05)\n        /* \"NFTES_Drop_flat.sol\":23055:23068  mintFees != 0 */\n      eq\n      iszero\n        /* \"NFTES_Drop_flat.sol\":23047:23089  require(mintFees != 0, \"Mint Fee Not Set\") */\n      tag_132\n      jumpi\n      mload(0x40)\n      0x08c379a000000000000000000000000000000000000000000000000000000000\n      dup2\n      mstore\n      0x04\n      add\n      tag_133\n      swap1\n      tag_134\n      jump\t// in\n    tag_133:\n      mload(0x40)\n      dup1\n      swap2\n      sub\n      swap1\n      revert\n    tag_132:\n        /* \"NFTES_Drop_flat.sol\":23131:23140  noOfMints */\n      dup2\n        /* \"NFTES_Drop_flat.sol\":23120:23128  mintFees */\n      sload(0x05)\n        /* \"NFTES_Drop_flat.sol\":23120:23140  mintFees * noOfMints */\n      tag_135\n      swap2\n      swap1\n      tag_136\n      jump\t// in\n    tag_135:\n        /* \"NFTES_Drop_flat.sol\":23107:23116  msg.value */\n      callvalue\n        /* \"NFTES_Drop_flat.sol\":23107:23140  msg.value == mintFees * noOfMints */\n      eq\n        /* \"NFTES_Drop_flat.sol\":23099:23163  require(msg.value == mintFees * noOfMints, \"Not Enough Balance\") */\n      tag_137\n      jumpi\n      mload(0x40)\n      0x08c379a000000000000000000000000000000000000000000000000000000000\n      dup2\n      mstore\n      0x04\n      add\n      tag_138\n      swap1\n      tag_139\n      jump\t// in\n    tag_138:\n      mload(0x40)\n      dup1\n      swap2\n      sub\n      swap1\n      revert\n    tag_137:\n        /* \"NFTES_Drop_flat.sol\":23173:23195  uint[] memory response */\n      0x60\n        /* \"NFTES_Drop_flat.sol\":23210:23219  uint256 i */\n      0x00\n        /* \"NFTES_Drop_flat.sol\":23205:23292  for (uint256 i = 0; i < noOfMints; ++i) {... */\n    tag_140:\n        /* \"NFTES_Drop_flat.sol\":23229:23238  noOfMints */\n      dup4\n        /* \"NFTES_Drop_flat.sol\":23225:23226  i */\n      dup2\n        /* \"NFTES_Drop_flat.sol\":23225:23238  i < noOfMints */\n      lt\n        /* \"NFTES_Drop_flat.sol\":23205:23292  for (uint256 i = 0; i < noOfMints; ++i) {... */\n      iszero\n      tag_141\n      jumpi\n        /* \"NFTES_Drop_flat.sol\":23257:23281  randomMinting(user_addr) */\n      tag_143\n        /* \"NFTES_Drop_flat.sol\":23271:23280  user_addr */\n      dup6\n        /* \"NFTES_Drop_flat.sol\":23257:23270  randomMinting */\n      tag_144\n        /* \"NFTES_Drop_flat.sol\":23257:23281  randomMinting(user_addr) */\n      jump\t// in\n    tag_143:\n      pop\n      pop\n        /* \"NFTES_Drop_flat.sol\":23240:23243  ++i */\n      dup1\n      tag_145\n      swap1\n      tag_146\n      jump\t// in\n    tag_145:\n      swap1\n      pop\n        /* \"NFTES_Drop_flat.sol\":23205:23292  for (uint256 i = 0; i < noOfMints; ++i) {... */\n      jump(tag_140)\n    tag_141:\n      pop\n        /* \"NFTES_Drop_flat.sol\":23301:23339  depositAmount(_msgSender(), msg.value) */\n      tag_147\n        /* \"NFTES_Drop_flat.sol\":23315:23327  _msgSender() */\n      tag_148\n        /* \"NFTES_Drop_flat.sol\":23315:23325  _msgSender */\n      tag_92\n        /* \"NFTES_Drop_flat.sol\":23315:23327  _msgSender() */\n      jump\t// in\n    tag_148:\n        /* \"NFTES_Drop_flat.sol\":23329:23338  msg.value */\n      callvalue\n        /* \"NFTES_Drop_flat.sol\":23301:23314  depositAmount */\n      tag_149\n        /* \"NFTES_Drop_flat.sol\":23301:23339  depositAmount(_msgSender(), msg.value) */\n      jump\t// in\n    tag_147:\n        /* \"NFTES_Drop_flat.sol\":23356:23374  dropsite_NFT_Owner */\n      0x0c\n        /* \"NFTES_Drop_flat.sol\":23356:23385  dropsite_NFT_Owner[user_addr] */\n      0x00\n        /* \"NFTES_Drop_flat.sol\":23375:23384  user_addr */\n      dup6\n        /* \"NFTES_Drop_flat.sol\":23356:23385  dropsite_NFT_Owner[user_addr] */\n      0xffffffffffffffffffffffffffffffffffffffff\n      and\n      0xffffffffffffffffffffffffffffffffffffffff\n      and\n      dup2\n      mstore\n      0x20\n      add\n      swap1\n      dup2\n      mstore\n      0x20\n      add\n      0x00\n      keccak256\n        /* \"NFTES_Drop_flat.sol\":23356:23405  dropsite_NFT_Owner[user_addr].owned_Dropsite_NFTs */\n      0x00\n      add\n        /* \"NFTES_Drop_flat.sol\":23349:23405  return dropsite_NFT_Owner[user_addr].owned_Dropsite_NFTs */\n      dup1\n      sload\n      dup1\n      0x20\n      mul\n      0x20\n      add\n      mload(0x40)\n      swap1\n      dup2\n      add\n      0x40\n      mstore\n      dup1\n      swap3\n      swap2\n      swap1\n      dup2\n      dup2\n      mstore\n      0x20\n      add\n      dup3\n      dup1\n      sload\n      dup1\n      iszero\n      tag_150\n      jumpi\n      0x20\n      mul\n      dup3\n      add\n      swap2\n      swap1\n      0x00\n      mstore\n      keccak256(0x00, 0x20)\n      swap1\n    tag_151:\n      dup2\n      sload\n      dup2\n      mstore\n      0x20\n      add\n      swap1\n      0x01\n      add\n      swap1\n      dup1\n      dup4\n      gt\n      tag_151\n      jumpi\n    tag_150:\n      pop\n      pop\n      pop\n      pop\n      pop\n      swap2\n      pop\n      pop\n        /* \"NFTES_Drop_flat.sol\":22707:23412  function cryptoRandomMint(address user_addr, uint256 noOfMints)... */\n      swap3\n      swap2\n      pop\n      pop\n      jump\t// out\n        /* \"NFTES_Drop_flat.sol\":21837:22492  function fiatRandomMint(address user_addr, uint256 noOfMints)... */\n    tag_48:\n        /* \"NFTES_Drop_flat.sol\":22001:22017  uint256[] memory */\n      0x60\n        /* \"NFTES_Drop_flat.sol\":16205:16210  Owner */\n      0x0e\n      0x01\n      swap1\n      sload\n      swap1\n      0x0100\n      exp\n      swap1\n      div\n      0xffffffffffffffffffffffffffffffffffffffff\n      and\n        /* \"NFTES_Drop_flat.sol\":16189:16210  _msgSender() == Owner */\n      0xffffffffffffffffffffffffffffffffffffffff\n      and\n        /* \"NFTES_Drop_flat.sol\":16189:16201  _msgSender() */\n      tag_153\n        /* \"NFTES_Drop_flat.sol\":16189:16199  _msgSender */\n      tag_92\n        /* \"NFTES_Drop_flat.sol\":16189:16201  _msgSender() */\n      jump\t// in\n    tag_153:\n        /* \"NFTES_Drop_flat.sol\":16189:16210  _msgSender() == Owner */\n      0xffffffffffffffffffffffffffffffffffffffff\n      and\n      eq\n        /* \"NFTES_Drop_flat.sol\":16181:16243  require(_msgSender() == Owner, \"Only NFT-ES Owner can Access\") */\n      tag_154\n      jumpi\n      mload(0x40)\n      0x08c379a000000000000000000000000000000000000000000000000000000000\n      dup2\n      mstore\n      0x04\n      add\n      tag_155\n      swap1\n      tag_95\n      jump\t// in\n    tag_155:\n      mload(0x40)\n      dup1\n      swap2\n      sub\n      swap1\n      revert\n    tag_154:\n        /* \"NFTES_Drop_flat.sol\":16370:16375  false */\n      0x00\n        /* \"NFTES_Drop_flat.sol\":16358:16375  isPaused == false */\n      iszero\n      iszero\n        /* \"NFTES_Drop_flat.sol\":16358:16366  isPaused */\n      0x0e\n      0x00\n      swap1\n      sload\n      swap1\n      0x0100\n      exp\n      swap1\n      div\n      0xff\n      and\n        /* \"NFTES_Drop_flat.sol\":16358:16375  isPaused == false */\n      iszero\n      iszero\n      eq\n        /* \"NFTES_Drop_flat.sol\":16350:16407  require(isPaused == false, \"Dropsite is not Opened Yet.\") */\n      tag_157\n      jumpi\n      mload(0x40)\n      0x08c379a000000000000000000000000000000000000000000000000000000000\n      dup2\n      mstore\n      0x04\n      add\n      tag_158\n      swap1\n      tag_113\n      jump\t// in\n    tag_158:\n      mload(0x40)\n      dup1\n      swap2\n      sub\n      swap1\n      revert\n    tag_157:\n        /* \"NFTES_Drop_flat.sol\":16487:16488  0 */\n      0x00\n        /* \"NFTES_Drop_flat.sol\":16475:16483  mintFees */\n      sload(0x05)\n        /* \"NFTES_Drop_flat.sol\":16475:16488  mintFees != 0 */\n      eq\n      iszero\n        /* \"NFTES_Drop_flat.sol\":16467:16524  require(mintFees != 0, \"Owner Should set mint Fee First\") */\n      tag_160\n      jumpi\n      mload(0x40)\n      0x08c379a000000000000000000000000000000000000000000000000000000000\n      dup2\n      mstore\n      0x04\n      add\n      tag_161\n      swap1\n      tag_123\n      jump\t// in\n    tag_161:\n      mload(0x40)\n      dup1\n      swap2\n      sub\n      swap1\n      revert\n    tag_160:\n        /* \"NFTES_Drop_flat.sol\":22053:22054  4 */\n      0x04\n        /* \"NFTES_Drop_flat.sol\":22041:22050  noOfMints */\n      dup3\n        /* \"NFTES_Drop_flat.sol\":22041:22054  noOfMints < 4 */\n      lt\n        /* \"NFTES_Drop_flat.sol\":22041:22071  noOfMints < 4 && noOfMints > 0 */\n      dup1\n      iszero\n      tag_163\n      jumpi\n      pop\n        /* \"NFTES_Drop_flat.sol\":22070:22071  0 */\n      0x00\n        /* \"NFTES_Drop_flat.sol\":22058:22067  noOfMints */\n      dup3\n        /* \"NFTES_Drop_flat.sol\":22058:22071  noOfMints > 0 */\n      gt\n        /* \"NFTES_Drop_flat.sol\":22041:22071  noOfMints < 4 && noOfMints > 0 */\n    tag_163:\n        /* \"NFTES_Drop_flat.sol\":22033:22097  require(noOfMints < 4 && noOfMints > 0, \"You can mint 1-3 NFTs\") */\n      tag_164\n      jumpi\n      mload(0x40)\n      0x08c379a000000000000000000000000000000000000000000000000000000000\n      dup2\n      mstore\n      0x04\n      add\n      tag_165\n      swap1\n      tag_128\n      jump\t// in\n    tag_165:\n      mload(0x40)\n      dup1\n      swap2\n      sub\n      swap1\n      revert\n    tag_164:\n        /* \"NFTES_Drop_flat.sol\":22133:22137  1000 */\n      0x03e8\n        /* \"NFTES_Drop_flat.sol\":22115:22130  totalNFTsMinted */\n      sload(0x03)\n        /* \"NFTES_Drop_flat.sol\":22115:22137  totalNFTsMinted < 1000 */\n      lt\n        /* \"NFTES_Drop_flat.sol\":22107:22167  require(totalNFTsMinted < 1000, \"Max Minting Limit reached\") */\n      tag_166\n      jumpi\n      mload(0x40)\n      0x08c379a000000000000000000000000000000000000000000000000000000000\n      dup2\n      mstore\n      0x04\n      add\n      tag_167\n      swap1\n      tag_131\n      jump\t// in\n    tag_167:\n      mload(0x40)\n      dup1\n      swap2\n      sub\n      swap1\n      revert\n    tag_166:\n        /* \"NFTES_Drop_flat.sol\":22197:22198  0 */\n      0x00\n        /* \"NFTES_Drop_flat.sol\":22185:22193  mintFees */\n      sload(0x05)\n        /* \"NFTES_Drop_flat.sol\":22185:22198  mintFees != 0 */\n      eq\n      iszero\n        /* \"NFTES_Drop_flat.sol\":22177:22219  require(mintFees != 0, \"Mint Fee Not Set\") */\n      tag_168\n      jumpi\n      mload(0x40)\n      0x08c379a000000000000000000000000000000000000000000000000000000000\n      dup2\n      mstore\n      0x04\n      add\n      tag_169\n      swap1\n      tag_134\n      jump\t// in\n    tag_169:\n      mload(0x40)\n      dup1\n      swap2\n      sub\n      swap1\n      revert\n    tag_168:\n        /* \"NFTES_Drop_flat.sol\":22229:22247  uint returnedNftID */\n      0x00\n        /* \"NFTES_Drop_flat.sol\":22257:22286  string memory returnedNftData */\n      0x60\n        /* \"NFTES_Drop_flat.sol\":22301:22310  uint256 i */\n      0x00\n        /* \"NFTES_Drop_flat.sol\":22296:22420  for (uint256 i = 0; i < noOfMints; i++) {... */\n    tag_170:\n        /* \"NFTES_Drop_flat.sol\":22320:22329  noOfMints */\n      dup5\n        /* \"NFTES_Drop_flat.sol\":22316:22317  i */\n      dup2\n        /* \"NFTES_Drop_flat.sol\":22316:22329  i < noOfMints */\n      lt\n        /* \"NFTES_Drop_flat.sol\":22296:22420  for (uint256 i = 0; i < noOfMints; i++) {... */\n      iszero\n      tag_171\n      jumpi\n        /* \"NFTES_Drop_flat.sol\":22385:22409  randomMinting(user_addr) */\n      tag_173\n        /* \"NFTES_Drop_flat.sol\":22399:22408  user_addr */\n      dup7\n        /* \"NFTES_Drop_flat.sol\":22385:22398  randomMinting */\n      tag_144\n        /* \"NFTES_Drop_flat.sol\":22385:22409  randomMinting(user_addr) */\n      jump\t// in\n    tag_173:\n        /* \"NFTES_Drop_flat.sol\":22350:22409  (returnedNftID, returnedNftData) = randomMinting(user_addr) */\n      dup1\n      swap4\n      pop\n      dup2\n      swap5\n      pop\n      pop\n      pop\n        /* \"NFTES_Drop_flat.sol\":22331:22334  i++ */\n      dup1\n      dup1\n      tag_174\n      swap1\n      tag_146\n      jump\t// in\n    tag_174:\n      swap2\n      pop\n      pop\n        /* \"NFTES_Drop_flat.sol\":22296:22420  for (uint256 i = 0; i < noOfMints; i++) {... */\n      jump(tag_170)\n    tag_171:\n      pop\n        /* \"NFTES_Drop_flat.sol\":22436:22454  dropsite_NFT_Owner */\n      0x0c\n        /* \"NFTES_Drop_flat.sol\":22436:22465  dropsite_NFT_Owner[user_addr] */\n      0x00\n        /* \"NFTES_Drop_flat.sol\":22455:22464  user_addr */\n      dup7\n        /* \"NFTES_Drop_flat.sol\":22436:22465  dropsite_NFT_Owner[user_addr] */\n      0xffffffffffffffffffffffffffffffffffffffff\n      and\n      0xffffffffffffffffffffffffffffffffffffffff\n      and\n      dup2\n      mstore\n      0x20\n      add\n      swap1\n      dup2\n      mstore\n      0x20\n      add\n      0x00\n      keccak256\n        /* \"NFTES_Drop_flat.sol\":22436:22485  dropsite_NFT_Owner[user_addr].owned_Dropsite_NFTs */\n      0x00\n      add\n        /* \"NFTES_Drop_flat.sol\":22429:22485  return dropsite_NFT_Owner[user_addr].owned_Dropsite_NFTs */\n      dup1\n      sload\n      dup1\n      0x20\n      mul\n      0x20\n      add\n      mload(0x40)\n      swap1\n      dup2\n      add\n      0x40\n      mstore\n      dup1\n      swap3\n      swap2\n      swap1\n      dup2\n      dup2\n      mstore\n      0x20\n      add\n      dup3\n      dup1\n      sload\n      dup1\n      iszero\n      tag_175\n      jumpi\n      0x20\n      mul\n      dup3\n      add\n      swap2\n      swap1\n      0x00\n      mstore\n      keccak256(0x00, 0x20)\n      swap1\n    tag_176:\n      dup2\n      sload\n      dup2\n      mstore\n      0x20\n      add\n      swap1\n      0x01\n      add\n      swap1\n      dup1\n      dup4\n      gt\n      tag_176\n      jumpi\n    tag_175:\n      pop\n      pop\n      pop\n      pop\n      pop\n      swap3\n      pop\n      pop\n      pop\n        /* \"NFTES_Drop_flat.sol\":21837:22492  function fiatRandomMint(address user_addr, uint256 noOfMints)... */\n      swap3\n      swap2\n      pop\n      pop\n      jump\t// out\n        /* \"NFTES_Drop_flat.sol\":17544:17785  function checkMintedCategoryWise()... */\n    tag_52:\n        /* \"NFTES_Drop_flat.sol\":17683:17687  uint */\n      0x00\n        /* \"NFTES_Drop_flat.sol\":17701:17705  uint */\n      dup1\n        /* \"NFTES_Drop_flat.sol\":17719:17723  uint */\n      0x00\n        /* \"NFTES_Drop_flat.sol\":16205:16210  Owner */\n      0x0e\n      0x01\n      swap1\n      sload\n      swap1\n      0x0100\n      exp\n      swap1\n      div\n      0xffffffffffffffffffffffffffffffffffffffff\n      and\n        /* \"NFTES_Drop_flat.sol\":16189:16210  _msgSender() == Owner */\n      0xffffffffffffffffffffffffffffffffffffffff\n      and\n        /* \"NFTES_Drop_flat.sol\":16189:16201  _msgSender() */\n      tag_178\n        /* \"NFTES_Drop_flat.sol\":16189:16199  _msgSender */\n      tag_92\n        /* \"NFTES_Drop_flat.sol\":16189:16201  _msgSender() */\n      jump\t// in\n    tag_178:\n        /* \"NFTES_Drop_flat.sol\":16189:16210  _msgSender() == Owner */\n      0xffffffffffffffffffffffffffffffffffffffff\n      and\n      eq\n        /* \"NFTES_Drop_flat.sol\":16181:16243  require(_msgSender() == Owner, \"Only NFT-ES Owner can Access\") */\n      tag_179\n      jumpi\n      mload(0x40)\n      0x08c379a000000000000000000000000000000000000000000000000000000000\n      dup2\n      mstore\n      0x04\n      add\n      tag_180\n      swap1\n      tag_95\n      jump\t// in\n    tag_180:\n      mload(0x40)\n      dup1\n      swap2\n      sub\n      swap1\n      revert\n    tag_179:\n        /* \"NFTES_Drop_flat.sol\":16370:16375  false */\n      0x00\n        /* \"NFTES_Drop_flat.sol\":16358:16375  isPaused == false */\n      iszero\n      iszero\n        /* \"NFTES_Drop_flat.sol\":16358:16366  isPaused */\n      0x0e\n      0x00\n      swap1\n      sload\n      swap1\n      0x0100\n      exp\n      swap1\n      div\n      0xff\n      and\n        /* \"NFTES_Drop_flat.sol\":16358:16375  isPaused == false */\n      iszero\n      iszero\n      eq\n        /* \"NFTES_Drop_flat.sol\":16350:16407  require(isPaused == false, \"Dropsite is not Opened Yet.\") */\n      tag_182\n      jumpi\n      mload(0x40)\n      0x08c379a000000000000000000000000000000000000000000000000000000000\n      dup2\n      mstore\n      0x04\n      add\n      tag_183\n      swap1\n      tag_113\n      jump\t// in\n    tag_183:\n      mload(0x40)\n      dup1\n      swap2\n      sub\n      swap1\n      revert\n    tag_182:\n        /* \"NFTES_Drop_flat.sol\":17756:17763  Diamond */\n      sload(0x06)\n        /* \"NFTES_Drop_flat.sol\":17765:17769  Gold */\n      sload(0x07)\n        /* \"NFTES_Drop_flat.sol\":17771:17777  Silver */\n      sload(0x08)\n        /* \"NFTES_Drop_flat.sol\":17748:17778  return (Diamond, Gold, Silver) */\n      swap3\n      pop\n      swap3\n      pop\n      swap3\n      pop\n        /* \"NFTES_Drop_flat.sol\":17544:17785  function checkMintedCategoryWise()... */\n      swap1\n      swap2\n      swap3\n      jump\t// out\n        /* \"NFTES_Drop_flat.sol\":17951:18063  function getMintFee()... */\n    tag_57:\n        /* \"NFTES_Drop_flat.sol\":18018:18025  uint256 */\n      0x00\n        /* \"NFTES_Drop_flat.sol\":18048:18056  mintFees */\n      sload(0x05)\n        /* \"NFTES_Drop_flat.sol\":18041:18056  return mintFees */\n      swap1\n      pop\n        /* \"NFTES_Drop_flat.sol\":17951:18063  function getMintFee()... */\n      swap1\n      jump\t// out\n        /* \"NFTES_Drop_flat.sol\":18843:18955  function contractBalance() public view OnlyOwner returns (uint256) {... */\n    tag_61:\n        /* \"NFTES_Drop_flat.sol\":18901:18908  uint256 */\n      0x00\n        /* \"NFTES_Drop_flat.sol\":16205:16210  Owner */\n      0x0e\n      0x01\n      swap1\n      sload\n      swap1\n      0x0100\n      exp\n      swap1\n      div\n      0xffffffffffffffffffffffffffffffffffffffff\n      and\n        /* \"NFTES_Drop_flat.sol\":16189:16210  _msgSender() == Owner */\n      0xffffffffffffffffffffffffffffffffffffffff\n      and\n        /* \"NFTES_Drop_flat.sol\":16189:16201  _msgSender() */\n      tag_187\n        /* \"NFTES_Drop_flat.sol\":16189:16199  _msgSender */\n      tag_92\n        /* \"NFTES_Drop_flat.sol\":16189:16201  _msgSender() */\n      jump\t// in\n    tag_187:\n        /* \"NFTES_Drop_flat.sol\":16189:16210  _msgSender() == Owner */\n      0xffffffffffffffffffffffffffffffffffffffff\n      and\n      eq\n        /* \"NFTES_Drop_flat.sol\":16181:16243  require(_msgSender() == Owner, \"Only NFT-ES Owner can Access\") */\n      tag_188\n      jumpi\n      mload(0x40)\n      0x08c379a000000000000000000000000000000000000000000000000000000000\n      dup2\n      mstore\n      0x04\n      add\n      tag_189\n      swap1\n      tag_95\n      jump\t// in\n    tag_189:\n      mload(0x40)\n      dup1\n      swap2\n      sub\n      swap1\n      revert\n    tag_188:\n        /* \"NFTES_Drop_flat.sol\":18927:18948  address(this).balance */\n      selfbalance\n        /* \"NFTES_Drop_flat.sol\":18920:18948  return address(this).balance */\n      swap1\n      pop\n        /* \"NFTES_Drop_flat.sol\":18843:18955  function contractBalance() public view OnlyOwner returns (uint256) {... */\n      swap1\n      jump\t// out\n        /* \"NFTES_Drop_flat.sol\":17091:17245  function changeOwner(address newOwnerAddr)... */\n    tag_66:\n        /* \"NFTES_Drop_flat.sol\":16205:16210  Owner */\n      0x0e\n      0x01\n      swap1\n      sload\n      swap1\n      0x0100\n      exp\n      swap1\n      div\n      0xffffffffffffffffffffffffffffffffffffffff\n      and\n        /* \"NFTES_Drop_flat.sol\":16189:16210  _msgSender() == Owner */\n      0xffffffffffffffffffffffffffffffffffffffff\n      and\n        /* \"NFTES_Drop_flat.sol\":16189:16201  _msgSender() */\n      tag_192\n        /* \"NFTES_Drop_flat.sol\":16189:16199  _msgSender */\n      tag_92\n        /* \"NFTES_Drop_flat.sol\":16189:16201  _msgSender() */\n      jump\t// in\n    tag_192:\n        /* \"NFTES_Drop_flat.sol\":16189:16210  _msgSender() == Owner */\n      0xffffffffffffffffffffffffffffffffffffffff\n      and\n      eq\n        /* \"NFTES_Drop_flat.sol\":16181:16243  require(_msgSender() == Owner, \"Only NFT-ES Owner can Access\") */\n      tag_193\n      jumpi\n      mload(0x40)\n      0x08c379a000000000000000000000000000000000000000000000000000000000\n      dup2\n      mstore\n      0x04\n      add\n      tag_194\n      swap1\n      tag_95\n      jump\t// in\n    tag_194:\n      mload(0x40)\n      dup1\n      swap2\n      sub\n      swap1\n      revert\n    tag_193:\n        /* \"NFTES_Drop_flat.sol\":16370:16375  false */\n      0x00\n        /* \"NFTES_Drop_flat.sol\":16358:16375  isPaused == false */\n      iszero\n      iszero\n        /* \"NFTES_Drop_flat.sol\":16358:16366  isPaused */\n      0x0e\n      0x00\n      swap1\n      sload\n      swap1\n      0x0100\n      exp\n      swap1\n      div\n      0xff\n      and\n        /* \"NFTES_Drop_flat.sol\":16358:16375  isPaused == false */\n      iszero\n      iszero\n      eq\n        /* \"NFTES_Drop_flat.sol\":16350:16407  require(isPaused == false, \"Dropsite is not Opened Yet.\") */\n      tag_196\n      jumpi\n      mload(0x40)\n      0x08c379a000000000000000000000000000000000000000000000000000000000\n      dup2\n      mstore\n      0x04\n      add\n      tag_197\n      swap1\n      tag_113\n      jump\t// in\n    tag_197:\n      mload(0x40)\n      dup1\n      swap2\n      sub\n      swap1\n      revert\n    tag_196:\n        /* \"NFTES_Drop_flat.sol\":17225:17237  newOwnerAddr */\n      dup1\n        /* \"NFTES_Drop_flat.sol\":17209:17214  Owner */\n      0x0e\n      0x01\n        /* \"NFTES_Drop_flat.sol\":17209:17238  Owner = payable(newOwnerAddr) */\n      0x0100\n      exp\n      dup2\n      sload\n      dup2\n      0xffffffffffffffffffffffffffffffffffffffff\n      mul\n      not\n      and\n      swap1\n      dup4\n      0xffffffffffffffffffffffffffffffffffffffff\n      and\n      mul\n      or\n      swap1\n      sstore\n      pop\n        /* \"NFTES_Drop_flat.sol\":17091:17245  function changeOwner(address newOwnerAddr)... */\n      pop\n      jump\t// out\n        /* \"NFTES_Drop_flat.sol\":18205:18345  function stopDropsite() public OnlyOwner {... */\n    tag_69:\n        /* \"NFTES_Drop_flat.sol\":16205:16210  Owner */\n      0x0e\n      0x01\n      swap1\n      sload\n      swap1\n      0x0100\n      exp\n      swap1\n      div\n      0xffffffffffffffffffffffffffffffffffffffff\n      and\n        /* \"NFTES_Drop_flat.sol\":16189:16210  _msgSender() == Owner */\n      0xffffffffffffffffffffffffffffffffffffffff\n      and\n        /* \"NFTES_Drop_flat.sol\":16189:16201  _msgSender() */\n      tag_200\n        /* \"NFTES_Drop_flat.sol\":16189:16199  _msgSender */\n      tag_92\n        /* \"NFTES_Drop_flat.sol\":16189:16201  _msgSender() */\n      jump\t// in\n    tag_200:\n        /* \"NFTES_Drop_flat.sol\":16189:16210  _msgSender() == Owner */\n      0xffffffffffffffffffffffffffffffffffffffff\n      and\n      eq\n        /* \"NFTES_Drop_flat.sol\":16181:16243  require(_msgSender() == Owner, \"Only NFT-ES Owner can Access\") */\n      tag_201\n      jumpi\n      mload(0x40)\n      0x08c379a000000000000000000000000000000000000000000000000000000000\n      dup2\n      mstore\n      0x04\n      add\n      tag_202\n      swap1\n      tag_95\n      jump\t// in\n    tag_202:\n      mload(0x40)\n      dup1\n      swap2\n      sub\n      swap1\n      revert\n    tag_201:\n        /* \"NFTES_Drop_flat.sol\":18276:18281  false */\n      0x00\n        /* \"NFTES_Drop_flat.sol\":18264:18281  isPaused == false */\n      iszero\n      iszero\n        /* \"NFTES_Drop_flat.sol\":18264:18272  isPaused */\n      0x0e\n      0x00\n      swap1\n      sload\n      swap1\n      0x0100\n      exp\n      swap1\n      div\n      0xff\n      and\n        /* \"NFTES_Drop_flat.sol\":18264:18281  isPaused == false */\n      iszero\n      iszero\n      eq\n        /* \"NFTES_Drop_flat.sol\":18256:18313  require(isPaused == false, \"Dropsite is already Stopped\") */\n      tag_204\n      jumpi\n      mload(0x40)\n      0x08c379a000000000000000000000000000000000000000000000000000000000\n      dup2\n      mstore\n      0x04\n      add\n      tag_205\n      swap1\n      tag_206\n      jump\t// in\n    tag_205:\n      mload(0x40)\n      dup1\n      swap2\n      sub\n      swap1\n      revert\n    tag_204:\n        /* \"NFTES_Drop_flat.sol\":18334:18338  true */\n      0x01\n        /* \"NFTES_Drop_flat.sol\":18323:18331  isPaused */\n      0x0e\n      0x00\n        /* \"NFTES_Drop_flat.sol\":18323:18338  isPaused = true */\n      0x0100\n      exp\n      dup2\n      sload\n      dup2\n      0xff\n      mul\n      not\n      and\n      swap1\n      dup4\n      iszero\n      iszero\n      mul\n      or\n      swap1\n      sstore\n      pop\n        /* \"NFTES_Drop_flat.sol\":18205:18345  function stopDropsite() public OnlyOwner {... */\n      jump\t// out\n        /* \"NFTES_Drop_flat.sol\":16547:16574  bool public isPaused = true */\n    tag_72:\n      0x0e\n      0x00\n      swap1\n      sload\n      swap1\n      0x0100\n      exp\n      swap1\n      div\n      0xff\n      and\n      dup2\n      jump\t// out\n        /* \"NFTES_Drop_flat.sol\":16580:16608  address payable public Owner */\n    tag_77:\n      0x0e\n      0x01\n      swap1\n      sload\n      swap1\n      0x0100\n      exp\n      swap1\n      div\n      0xffffffffffffffffffffffffffffffffffffffff\n      and\n      dup2\n      jump\t// out\n        /* \"NFTES_Drop_flat.sol\":16964:17086  function isAdmin() public view returns (bool){... */\n    tag_82:\n        /* \"NFTES_Drop_flat.sol\":17004:17008  bool */\n      0x00\n        /* \"NFTES_Drop_flat.sol\":17034:17039  Owner */\n      0x0e\n      0x01\n      swap1\n      sload\n      swap1\n      0x0100\n      exp\n      swap1\n      div\n      0xffffffffffffffffffffffffffffffffffffffff\n      and\n        /* \"NFTES_Drop_flat.sol\":17022:17039  msg.sender==Owner */\n      0xffffffffffffffffffffffffffffffffffffffff\n      and\n        /* \"NFTES_Drop_flat.sol\":17022:17032  msg.sender */\n      caller\n        /* \"NFTES_Drop_flat.sol\":17022:17039  msg.sender==Owner */\n      0xffffffffffffffffffffffffffffffffffffffff\n      and\n      eq\n        /* \"NFTES_Drop_flat.sol\":17019:17079  if(msg.sender==Owner) return true;... */\n      iszero\n      tag_208\n      jumpi\n        /* \"NFTES_Drop_flat.sol\":17048:17052  true */\n      0x01\n        /* \"NFTES_Drop_flat.sol\":17041:17052  return true */\n      swap1\n      pop\n      jump(tag_207)\n        /* \"NFTES_Drop_flat.sol\":17019:17079  if(msg.sender==Owner) return true;... */\n    tag_208:\n        /* \"NFTES_Drop_flat.sol\":17074:17079  false */\n      0x00\n        /* \"NFTES_Drop_flat.sol\":17067:17079  return false */\n      swap1\n      pop\n        /* \"NFTES_Drop_flat.sol\":16964:17086  function isAdmin() public view returns (bool){... */\n    tag_207:\n      swap1\n      jump\t// out\n        /* \"NFTES_Drop_flat.sol\":17829:17918  function setMintFee(uint _mintFee) public OnlyOwner  {... */\n    tag_88:\n        /* \"NFTES_Drop_flat.sol\":16205:16210  Owner */\n      0x0e\n      0x01\n      swap1\n      sload\n      swap1\n      0x0100\n      exp\n      swap1\n      div\n      0xffffffffffffffffffffffffffffffffffffffff\n      and\n        /* \"NFTES_Drop_flat.sol\":16189:16210  _msgSender() == Owner */\n      0xffffffffffffffffffffffffffffffffffffffff\n      and\n        /* \"NFTES_Drop_flat.sol\":16189:16201  _msgSender() */\n      tag_211\n        /* \"NFTES_Drop_flat.sol\":16189:16199  _msgSender */\n      tag_92\n        /* \"NFTES_Drop_flat.sol\":16189:16201  _msgSender() */\n      jump\t// in\n    tag_211:\n        /* \"NFTES_Drop_flat.sol\":16189:16210  _msgSender() == Owner */\n      0xffffffffffffffffffffffffffffffffffffffff\n      and\n      eq\n        /* \"NFTES_Drop_flat.sol\":16181:16243  require(_msgSender() == Owner, \"Only NFT-ES Owner can Access\") */\n      tag_212\n      jumpi\n      mload(0x40)\n      0x08c379a000000000000000000000000000000000000000000000000000000000\n      dup2\n      mstore\n      0x04\n      add\n      tag_213\n      swap1\n      tag_95\n      jump\t// in\n    tag_213:\n      mload(0x40)\n      dup1\n      swap2\n      sub\n      swap1\n      revert\n    tag_212:\n        /* \"NFTES_Drop_flat.sol\":17903:17911  _mintFee */\n      dup1\n        /* \"NFTES_Drop_flat.sol\":17892:17900  mintFees */\n      0x05\n        /* \"NFTES_Drop_flat.sol\":17892:17911  mintFees = _mintFee */\n      dup2\n      swap1\n      sstore\n      pop\n        /* \"NFTES_Drop_flat.sol\":17829:17918  function setMintFee(uint _mintFee) public OnlyOwner  {... */\n      pop\n      jump\t// out\n        /* \"NFTES_Drop_flat.sol\":2608:2704  function _msgSender() internal view virtual returns (address) {... */\n    tag_92:\n        /* \"NFTES_Drop_flat.sol\":2661:2668  address */\n      0x00\n        /* \"NFTES_Drop_flat.sol\":2687:2697  msg.sender */\n      caller\n        /* \"NFTES_Drop_flat.sol\":2680:2697  return msg.sender */\n      swap1\n      pop\n        /* \"NFTES_Drop_flat.sol\":2608:2704  function _msgSender() internal view virtual returns (address) {... */\n      swap1\n      jump\t// out\n        /* \"NFTES_Drop_flat.sol\":21308:21790  function randomMinting(address user_addr)... */\n    tag_144:\n        /* \"NFTES_Drop_flat.sol\":21412:21419  uint256 */\n      0x00\n        /* \"NFTES_Drop_flat.sol\":21421:21434  string memory */\n      0x60\n        /* \"NFTES_Drop_flat.sol\":16370:16375  false */\n      0x00\n        /* \"NFTES_Drop_flat.sol\":16358:16375  isPaused == false */\n      iszero\n      iszero\n        /* \"NFTES_Drop_flat.sol\":16358:16366  isPaused */\n      0x0e\n      0x00\n      swap1\n      sload\n      swap1\n      0x0100\n      exp\n      swap1\n      div\n      0xff\n      and\n        /* \"NFTES_Drop_flat.sol\":16358:16375  isPaused == false */\n      iszero\n      iszero\n      eq\n        /* \"NFTES_Drop_flat.sol\":16350:16407  require(isPaused == false, \"Dropsite is not Opened Yet.\") */\n      tag_217\n      jumpi\n      mload(0x40)\n      0x08c379a000000000000000000000000000000000000000000000000000000000\n      dup2\n      mstore\n      0x04\n      add\n      tag_218\n      swap1\n      tag_113\n      jump\t// in\n    tag_218:\n      mload(0x40)\n      dup1\n      swap2\n      sub\n      swap1\n      revert\n    tag_217:\n        /* \"NFTES_Drop_flat.sol\":21530:21543  uint256 index */\n      0x00\n        /* \"NFTES_Drop_flat.sol\":21546:21554  random() */\n      tag_220\n        /* \"NFTES_Drop_flat.sol\":21546:21552  random */\n      tag_221\n        /* \"NFTES_Drop_flat.sol\":21546:21554  random() */\n      jump\t// in\n    tag_220:\n        /* \"NFTES_Drop_flat.sol\":21530:21554  uint256 index = random() */\n      swap1\n      pop\n        /* \"NFTES_Drop_flat.sol\":21564:21577  uint256 nftId */\n      0x00\n        /* \"NFTES_Drop_flat.sol\":21580:21603  updateConditions(index) */\n      tag_222\n        /* \"NFTES_Drop_flat.sol\":21597:21602  index */\n      dup3\n        /* \"NFTES_Drop_flat.sol\":21580:21596  updateConditions */\n      tag_223\n        /* \"NFTES_Drop_flat.sol\":21580:21603  updateConditions(index) */\n      jump\t// in\n    tag_222:\n        /* \"NFTES_Drop_flat.sol\":21564:21603  uint256 nftId = updateConditions(index) */\n      swap1\n      pop\n        /* \"NFTES_Drop_flat.sol\":21613:21655  _mint(user_addr, nftId, numOfCopies, data) */\n      tag_224\n        /* \"NFTES_Drop_flat.sol\":21619:21628  user_addr */\n      dup6\n        /* \"NFTES_Drop_flat.sol\":21630:21635  nftId */\n      dup3\n        /* \"NFTES_Drop_flat.sol\":21637:21648  numOfCopies */\n      sload(0x04)\n        /* \"NFTES_Drop_flat.sol\":21650:21654  data */\n      0x02\n        /* \"NFTES_Drop_flat.sol\":21613:21655  _mint(user_addr, nftId, numOfCopies, data) */\n      dup1\n      sload\n      tag_225\n      swap1\n      tag_226\n      jump\t// in\n    tag_225:\n      dup1\n      0x1f\n      add\n      0x20\n      dup1\n      swap2\n      div\n      mul\n      0x20\n      add\n      mload(0x40)\n      swap1\n      dup2\n      add\n      0x40\n      mstore\n      dup1\n      swap3\n      swap2\n      swap1\n      dup2\n      dup2\n      mstore\n      0x20\n      add\n      dup3\n      dup1\n      sload\n      tag_227\n      swap1\n      tag_226\n      jump\t// in\n    tag_227:\n      dup1\n      iszero\n      tag_228\n      jumpi\n      dup1\n      0x1f\n      lt\n      tag_229\n      jumpi\n      0x0100\n      dup1\n      dup4\n      sload\n      div\n      mul\n      dup4\n      mstore\n      swap2\n      0x20\n      add\n      swap2\n      jump(tag_228)\n    tag_229:\n      dup3\n      add\n      swap2\n      swap1\n      0x00\n      mstore\n      keccak256(0x00, 0x20)\n      swap1\n    tag_230:\n      dup2\n      sload\n      dup2\n      mstore\n      swap1\n      0x01\n      add\n      swap1\n      0x20\n      add\n      dup1\n      dup4\n      gt\n      tag_230\n      jumpi\n      dup3\n      swap1\n      sub\n      0x1f\n      and\n      dup3\n      add\n      swap2\n    tag_228:\n      pop\n      pop\n      pop\n      pop\n      pop\n        /* \"NFTES_Drop_flat.sol\":21613:21618  _mint */\n      tag_231\n        /* \"NFTES_Drop_flat.sol\":21613:21655  _mint(user_addr, nftId, numOfCopies, data) */\n      jump\t// in\n    tag_224:\n        /* \"NFTES_Drop_flat.sol\":21665:21680  totalNFTsMinted */\n      0x03\n      0x00\n        /* \"NFTES_Drop_flat.sol\":21665:21682  totalNFTsMinted++ */\n      dup2\n      sload\n      dup1\n      swap3\n      swap2\n      swap1\n      tag_232\n      swap1\n      tag_146\n      jump\t// in\n    tag_232:\n      swap2\n      swap1\n      pop\n      sstore\n      pop\n        /* \"NFTES_Drop_flat.sol\":21692:21710  dropsite_NFT_Owner */\n      0x0c\n        /* \"NFTES_Drop_flat.sol\":21692:21721  dropsite_NFT_Owner[user_addr] */\n      0x00\n        /* \"NFTES_Drop_flat.sol\":21711:21720  user_addr */\n      dup7\n        /* \"NFTES_Drop_flat.sol\":21692:21721  dropsite_NFT_Owner[user_addr] */\n      0xffffffffffffffffffffffffffffffffffffffff\n      and\n      0xffffffffffffffffffffffffffffffffffffffff\n      and\n      dup2\n      mstore\n      0x20\n      add\n      swap1\n      dup2\n      mstore\n      0x20\n      add\n      0x00\n      keccak256\n        /* \"NFTES_Drop_flat.sol\":21692:21741  dropsite_NFT_Owner[user_addr].owned_Dropsite_NFTs */\n      0x00\n      add\n        /* \"NFTES_Drop_flat.sol\":21747:21752  nftId */\n      dup2\n        /* \"NFTES_Drop_flat.sol\":21692:21753  dropsite_NFT_Owner[user_addr].owned_Dropsite_NFTs.push(nftId) */\n      swap1\n      dup1\n      0x01\n      dup2\n      sload\n      add\n      dup1\n      dup3\n      sstore\n      dup1\n      swap2\n      pop\n      pop\n      0x01\n      swap1\n      sub\n      swap1\n      0x00\n      mstore\n      keccak256(0x00, 0x20)\n      add\n      0x00\n      swap1\n      swap2\n      swap1\n      swap2\n      swap1\n      swap2\n      pop\n      sstore\n        /* \"NFTES_Drop_flat.sol\":21771:21776  nftId */\n      dup1\n        /* \"NFTES_Drop_flat.sol\":21778:21782  data */\n      0x02\n        /* \"NFTES_Drop_flat.sol\":21763:21783  return (nftId, data) */\n      dup1\n      dup1\n      sload\n      tag_234\n      swap1\n      tag_226\n      jump\t// in\n    tag_234:\n      dup1\n      0x1f\n      add\n      0x20\n      dup1\n      swap2\n      div\n      mul\n      0x20\n      add\n      mload(0x40)\n      swap1\n      dup2\n      add\n      0x40\n      mstore\n      dup1\n      swap3\n      swap2\n      swap1\n      dup2\n      dup2\n      mstore\n      0x20\n      add\n      dup3\n      dup1\n      sload\n      tag_235\n      swap1\n      tag_226\n      jump\t// in\n    tag_235:\n      dup1\n      iszero\n      tag_236\n      jumpi\n      dup1\n      0x1f\n      lt\n      tag_237\n      jumpi\n      0x0100\n      dup1\n      dup4\n      sload\n      div\n      mul\n      dup4\n      mstore\n      swap2\n      0x20\n      add\n      swap2\n      jump(tag_236)\n    tag_237:\n      dup3\n      add\n      swap2\n      swap1\n      0x00\n      mstore\n      keccak256(0x00, 0x20)\n      swap1\n    tag_238:\n      dup2\n      sload\n      dup2\n      mstore\n      swap1\n      0x01\n      add\n      swap1\n      0x20\n      add\n      dup1\n      dup4\n      gt\n      tag_238\n      jumpi\n      dup3\n      swap1\n      sub\n      0x1f\n      and\n      dup3\n      add\n      swap2\n    tag_236:\n      pop\n      pop\n      pop\n      pop\n      pop\n      swap1\n      pop\n      swap4\n      pop\n      swap4\n      pop\n      pop\n      pop\n        /* \"NFTES_Drop_flat.sol\":21308:21790  function randomMinting(address user_addr)... */\n      swap2\n      pop\n      swap2\n      jump\t// out\n        /* \"NFTES_Drop_flat.sol\":22535:22658  function depositAmount(address payee, uint256 amountToDeposit) internal {... */\n    tag_149:\n        /* \"NFTES_Drop_flat.sol\":22636:22651  amountToDeposit */\n      dup1\n        /* \"NFTES_Drop_flat.sol\":22617:22625  deposits */\n      0x0d\n        /* \"NFTES_Drop_flat.sol\":22617:22632  deposits[payee] */\n      0x00\n        /* \"NFTES_Drop_flat.sol\":22626:22631  payee */\n      dup5\n        /* \"NFTES_Drop_flat.sol\":22617:22632  deposits[payee] */\n      0xffffffffffffffffffffffffffffffffffffffff\n      and\n      0xffffffffffffffffffffffffffffffffffffffff\n      and\n      dup2\n      mstore\n      0x20\n      add\n      swap1\n      dup2\n      mstore\n      0x20\n      add\n      0x00\n      keccak256\n      0x00\n        /* \"NFTES_Drop_flat.sol\":22617:22651  deposits[payee] += amountToDeposit */\n      dup3\n      dup3\n      sload\n      tag_240\n      swap2\n      swap1\n      tag_241\n      jump\t// in\n    tag_240:\n      swap3\n      pop\n      pop\n      dup2\n      swap1\n      sstore\n      pop\n        /* \"NFTES_Drop_flat.sol\":22535:22658  function depositAmount(address payee, uint256 amountToDeposit) internal {... */\n      pop\n      pop\n      jump\t// out\n        /* \"NFTES_Drop_flat.sol\":19066:19608  function random() internal view returns (uint256) {... */\n    tag_221:\n        /* \"NFTES_Drop_flat.sol\":19107:19114  uint256 */\n      0x00\n        /* \"NFTES_Drop_flat.sol\":19203:19223  uint256 randomnumber */\n      dup1\n        /* \"NFTES_Drop_flat.sol\":19463:19470  Diamond */\n      sload(0x06)\n        /* \"NFTES_Drop_flat.sol\":19432:19436  Gold */\n      sload(0x07)\n        /* \"NFTES_Drop_flat.sol\":19399:19405  Silver */\n      sload(0x08)\n        /* \"NFTES_Drop_flat.sol\":19357:19372  totalNFTsMinted */\n      sload(0x03)\n        /* \"NFTES_Drop_flat.sol\":19314:19329  block.timestamp */\n      timestamp\n        /* \"NFTES_Drop_flat.sol\":19313:19372  (block.timestamp) +... */\n      tag_243\n      swap2\n      swap1\n      tag_241\n      jump\t// in\n    tag_243:\n        /* \"NFTES_Drop_flat.sol\":19313:19405  (block.timestamp) +... */\n      tag_244\n      swap2\n      swap1\n      tag_241\n      jump\t// in\n    tag_244:\n        /* \"NFTES_Drop_flat.sol\":19313:19436  (block.timestamp) +... */\n      tag_245\n      swap2\n      swap1\n      tag_241\n      jump\t// in\n    tag_245:\n        /* \"NFTES_Drop_flat.sol\":19313:19470  (block.timestamp) +... */\n      tag_246\n      swap2\n      swap1\n      tag_241\n      jump\t// in\n    tag_246:\n        /* \"NFTES_Drop_flat.sol\":19493:19503  msg.sender */\n      caller\n        /* \"NFTES_Drop_flat.sol\":19525:19530  Owner */\n      0x0e\n      0x01\n      swap1\n      sload\n      swap1\n      0x0100\n      exp\n      swap1\n      div\n      0xffffffffffffffffffffffffffffffffffffffff\n      and\n        /* \"NFTES_Drop_flat.sol\":19274:19548  abi.encodePacked(... */\n      add(0x20, mload(0x40))\n      tag_247\n      swap4\n      swap3\n      swap2\n      swap1\n      tag_248\n      jump\t// in\n    tag_247:\n      mload(0x40)\n      0x20\n      dup2\n      dup4\n      sub\n      sub\n      dup2\n      mstore\n      swap1\n      0x40\n      mstore\n        /* \"NFTES_Drop_flat.sol\":19247:19562  keccak256(... */\n      dup1\n      mload\n      swap1\n      0x20\n      add\n      keccak256\n        /* \"NFTES_Drop_flat.sol\":19226:19572  uint256(... */\n      0x00\n      shr\n        /* \"NFTES_Drop_flat.sol\":19203:19572  uint256 randomnumber = uint256(... */\n      swap1\n      pop\n        /* \"NFTES_Drop_flat.sol\":19589:19601  randomnumber */\n      dup1\n        /* \"NFTES_Drop_flat.sol\":19582:19601  return randomnumber */\n      swap2\n      pop\n      pop\n        /* \"NFTES_Drop_flat.sol\":19066:19608  function random() internal view returns (uint256) {... */\n      swap1\n      jump\t// out\n        /* \"NFTES_Drop_flat.sol\":19660:21302  function updateConditions(uint256 index)... */\n    tag_223:\n        /* \"NFTES_Drop_flat.sol\":19763:19770  uint256 */\n      0x00\n        /* \"NFTES_Drop_flat.sol\":16370:16375  false */\n      dup1\n        /* \"NFTES_Drop_flat.sol\":16358:16375  isPaused == false */\n      iszero\n      iszero\n        /* \"NFTES_Drop_flat.sol\":16358:16366  isPaused */\n      0x0e\n      0x00\n      swap1\n      sload\n      swap1\n      0x0100\n      exp\n      swap1\n      div\n      0xff\n      and\n        /* \"NFTES_Drop_flat.sol\":16358:16375  isPaused == false */\n      iszero\n      iszero\n      eq\n        /* \"NFTES_Drop_flat.sol\":16350:16407  require(isPaused == false, \"Dropsite is not Opened Yet.\") */\n      tag_250\n      jumpi\n      mload(0x40)\n      0x08c379a000000000000000000000000000000000000000000000000000000000\n      dup2\n      mstore\n      0x04\n      add\n      tag_251\n      swap1\n      tag_113\n      jump\t// in\n    tag_251:\n      mload(0x40)\n      dup1\n      swap2\n      sub\n      swap1\n      revert\n    tag_250:\n        /* \"NFTES_Drop_flat.sol\":19786:19796  uint nftId */\n      0x00\n        /* \"NFTES_Drop_flat.sol\":19825:19826  1 */\n      0x01\n        /* \"NFTES_Drop_flat.sol\":19819:19821  20 */\n      0x14\n        /* \"NFTES_Drop_flat.sol\":19810:19815  index */\n      dup5\n        /* \"NFTES_Drop_flat.sol\":19809:19821  (index) % 20 */\n      tag_253\n      swap2\n      swap1\n      tag_254\n      jump\t// in\n    tag_253:\n        /* \"NFTES_Drop_flat.sol\":19809:19826  (index) % 20 == 1 */\n      eq\n        /* \"NFTES_Drop_flat.sol\":19809:19855  (index) % 20 == 1 && Diamond < maxDiamondCount */\n      dup1\n      iszero\n      tag_255\n      jumpi\n      pop\n        /* \"NFTES_Drop_flat.sol\":19840:19855  maxDiamondCount */\n      sload(0x09)\n        /* \"NFTES_Drop_flat.sol\":19830:19837  Diamond */\n      sload(0x06)\n        /* \"NFTES_Drop_flat.sol\":19830:19855  Diamond < maxDiamondCount */\n      lt\n        /* \"NFTES_Drop_flat.sol\":19809:19855  (index) % 20 == 1 && Diamond < maxDiamondCount */\n    tag_255:\n        /* \"NFTES_Drop_flat.sol\":19806:21296  if((index) % 20 == 1 && Diamond < maxDiamondCount){... */\n      iszero\n      tag_256\n      jumpi\n        /* \"NFTES_Drop_flat.sol\":19870:19877  Diamond */\n      0x06\n      0x00\n        /* \"NFTES_Drop_flat.sol\":19870:19879  Diamond++ */\n      dup2\n      sload\n      dup1\n      swap3\n      swap2\n      swap1\n      tag_257\n      swap1\n      tag_146\n      jump\t// in\n    tag_257:\n      swap2\n      swap1\n      pop\n      sstore\n      pop\n        /* \"NFTES_Drop_flat.sol\":19953:19978  Strings.toString(Diamond) */\n      tag_258\n        /* \"NFTES_Drop_flat.sol\":19970:19977  Diamond */\n      sload(0x06)\n        /* \"NFTES_Drop_flat.sol\":19953:19969  Strings.toString */\n      tag_259\n        /* \"NFTES_Drop_flat.sol\":19953:19978  Strings.toString(Diamond) */\n      jump\t// in\n    tag_258:\n        /* \"NFTES_Drop_flat.sol\":19924:19979  abi.encodePacked(\"Diamond_\", Strings.toString(Diamond)) */\n      add(0x20, mload(0x40))\n      tag_260\n      swap2\n      swap1\n      tag_261\n      jump\t// in\n    tag_260:\n      mload(0x40)\n      0x20\n      dup2\n      dup4\n      sub\n      sub\n      dup2\n      mstore\n      swap1\n      0x40\n      mstore\n        /* \"NFTES_Drop_flat.sol\":19893:19897  data */\n      0x02\n        /* \"NFTES_Drop_flat.sol\":19893:19993  data = string(... */\n      swap1\n      dup1\n      mload\n      swap1\n      0x20\n      add\n      swap1\n      tag_262\n      swap3\n      swap2\n      swap1\n      tag_263\n      jump\t// in\n    tag_262:\n      pop\n        /* \"NFTES_Drop_flat.sol\":20020:20021  0 */\n      0x00\n        /* \"NFTES_Drop_flat.sol\":20014:20021  nftId=0 */\n      swap1\n      pop\n      dup1\n        /* \"NFTES_Drop_flat.sol\":20007:20021  return nftId=0 */\n      swap2\n      pop\n      pop\n      jump(tag_252)\n        /* \"NFTES_Drop_flat.sol\":19806:21296  if((index) % 20 == 1 && Diamond < maxDiamondCount){... */\n    tag_256:\n        /* \"NFTES_Drop_flat.sol\":20150:20151  3 */\n      0x03\n        /* \"NFTES_Drop_flat.sol\":20144:20146  20 */\n      0x14\n        /* \"NFTES_Drop_flat.sol\":20135:20140  index */\n      dup5\n        /* \"NFTES_Drop_flat.sol\":20134:20146  (index) % 20 */\n      tag_265\n      swap2\n      swap1\n      tag_254\n      jump\t// in\n    tag_265:\n        /* \"NFTES_Drop_flat.sol\":20134:20151  (index) % 20 <= 3 */\n      gt\n      iszero\n        /* \"NFTES_Drop_flat.sol\":20134:20174  (index) % 20 <= 3 && Gold < maxGoldCount */\n      dup1\n      iszero\n      tag_266\n      jumpi\n      pop\n        /* \"NFTES_Drop_flat.sol\":20162:20174  maxGoldCount */\n      sload(0x0a)\n        /* \"NFTES_Drop_flat.sol\":20155:20159  Gold */\n      sload(0x07)\n        /* \"NFTES_Drop_flat.sol\":20155:20174  Gold < maxGoldCount */\n      lt\n        /* \"NFTES_Drop_flat.sol\":20134:20174  (index) % 20 <= 3 && Gold < maxGoldCount */\n    tag_266:\n        /* \"NFTES_Drop_flat.sol\":20130:21296  if ((index) % 20 <= 3 && Gold < maxGoldCount) {... */\n      iszero\n      tag_267\n      jumpi\n        /* \"NFTES_Drop_flat.sol\":20190:20194  Gold */\n      0x07\n      0x00\n        /* \"NFTES_Drop_flat.sol\":20190:20196  Gold++ */\n      dup2\n      sload\n      dup1\n      swap3\n      swap2\n      swap1\n      tag_268\n      swap1\n      tag_146\n      jump\t// in\n    tag_268:\n      swap2\n      swap1\n      pop\n      sstore\n      pop\n        /* \"NFTES_Drop_flat.sol\":20250:20272  Strings.toString(Gold) */\n      tag_269\n        /* \"NFTES_Drop_flat.sol\":20267:20271  Gold */\n      sload(0x07)\n        /* \"NFTES_Drop_flat.sol\":20250:20266  Strings.toString */\n      tag_259\n        /* \"NFTES_Drop_flat.sol\":20250:20272  Strings.toString(Gold) */\n      jump\t// in\n    tag_269:\n        /* \"NFTES_Drop_flat.sol\":20224:20273  abi.encodePacked(\"Gold_\", Strings.toString(Gold)) */\n      add(0x20, mload(0x40))\n      tag_270\n      swap2\n      swap1\n      tag_271\n      jump\t// in\n    tag_270:\n      mload(0x40)\n      0x20\n      dup2\n      dup4\n      sub\n      sub\n      dup2\n      mstore\n      swap1\n      0x40\n      mstore\n        /* \"NFTES_Drop_flat.sol\":20210:20214  data */\n      0x02\n        /* \"NFTES_Drop_flat.sol\":20210:20274  data = string(abi.encodePacked(\"Gold_\", Strings.toString(Gold))) */\n      swap1\n      dup1\n      mload\n      swap1\n      0x20\n      add\n      swap1\n      tag_272\n      swap3\n      swap2\n      swap1\n      tag_263\n      jump\t// in\n    tag_272:\n      pop\n        /* \"NFTES_Drop_flat.sol\":20301:20302  1 */\n      0x01\n        /* \"NFTES_Drop_flat.sol\":20295:20302  nftId=1 */\n      swap1\n      pop\n      dup1\n        /* \"NFTES_Drop_flat.sol\":20288:20302  return nftId=1 */\n      swap2\n      pop\n      pop\n      jump(tag_252)\n        /* \"NFTES_Drop_flat.sol\":20130:21296  if ((index) % 20 <= 3 && Gold < maxGoldCount) {... */\n    tag_267:\n        /* \"NFTES_Drop_flat.sol\":20442:20443  3 */\n      0x03\n        /* \"NFTES_Drop_flat.sol\":20437:20439  20 */\n      0x14\n        /* \"NFTES_Drop_flat.sol\":20428:20433  index */\n      dup5\n        /* \"NFTES_Drop_flat.sol\":20427:20439  (index) % 20 */\n      tag_274\n      swap2\n      swap1\n      tag_254\n      jump\t// in\n    tag_274:\n        /* \"NFTES_Drop_flat.sol\":20427:20443  (index) % 20 > 3 */\n      gt\n        /* \"NFTES_Drop_flat.sol\":20427:20470  (index) % 20 > 3 && Silver < maxSilverCount */\n      dup1\n      iszero\n      tag_275\n      jumpi\n      pop\n        /* \"NFTES_Drop_flat.sol\":20456:20470  maxSilverCount */\n      sload(0x0b)\n        /* \"NFTES_Drop_flat.sol\":20447:20453  Silver */\n      sload(0x08)\n        /* \"NFTES_Drop_flat.sol\":20447:20470  Silver < maxSilverCount */\n      lt\n        /* \"NFTES_Drop_flat.sol\":20427:20470  (index) % 20 > 3 && Silver < maxSilverCount */\n    tag_275:\n        /* \"NFTES_Drop_flat.sol\":20423:21296  if ((index) % 20 > 3 && Silver < maxSilverCount) {... */\n      iszero\n      tag_276\n      jumpi\n        /* \"NFTES_Drop_flat.sol\":20486:20492  Silver */\n      0x08\n      0x00\n        /* \"NFTES_Drop_flat.sol\":20486:20494  Silver++ */\n      dup2\n      sload\n      dup1\n      swap3\n      swap2\n      swap1\n      tag_277\n      swap1\n      tag_146\n      jump\t// in\n    tag_277:\n      swap2\n      swap1\n      pop\n      sstore\n      pop\n        /* \"NFTES_Drop_flat.sol\":20567:20591  Strings.toString(Silver) */\n      tag_278\n        /* \"NFTES_Drop_flat.sol\":20584:20590  Silver */\n      sload(0x08)\n        /* \"NFTES_Drop_flat.sol\":20567:20583  Strings.toString */\n      tag_259\n        /* \"NFTES_Drop_flat.sol\":20567:20591  Strings.toString(Silver) */\n      jump\t// in\n    tag_278:\n        /* \"NFTES_Drop_flat.sol\":20539:20592  abi.encodePacked(\"Silver_\", Strings.toString(Silver)) */\n      add(0x20, mload(0x40))\n      tag_279\n      swap2\n      swap1\n      tag_280\n      jump\t// in\n    tag_279:\n      mload(0x40)\n      0x20\n      dup2\n      dup4\n      sub\n      sub\n      dup2\n      mstore\n      swap1\n      0x40\n      mstore\n        /* \"NFTES_Drop_flat.sol\":20508:20512  data */\n      0x02\n        /* \"NFTES_Drop_flat.sol\":20508:20606  data = string(... */\n      swap1\n      dup1\n      mload\n      swap1\n      0x20\n      add\n      swap1\n      tag_281\n      swap3\n      swap2\n      swap1\n      tag_263\n      jump\t// in\n    tag_281:\n      pop\n        /* \"NFTES_Drop_flat.sol\":20633:20634  2 */\n      0x02\n        /* \"NFTES_Drop_flat.sol\":20627:20634  nftId=2 */\n      swap1\n      pop\n      dup1\n        /* \"NFTES_Drop_flat.sol\":20620:20634  return nftId=2 */\n      swap2\n      pop\n      pop\n      jump(tag_252)\n        /* \"NFTES_Drop_flat.sol\":20423:21296  if ((index) % 20 > 3 && Silver < maxSilverCount) {... */\n    tag_276:\n        /* \"NFTES_Drop_flat.sol\":20825:20837  maxGoldCount */\n      sload(0x0a)\n        /* \"NFTES_Drop_flat.sol\":20818:20822  Gold */\n      sload(0x07)\n        /* \"NFTES_Drop_flat.sol\":20818:20837  Gold < maxGoldCount */\n      lt\n        /* \"NFTES_Drop_flat.sol\":20814:21286  if (Gold < maxGoldCount) {... */\n      iszero\n      tag_283\n      jumpi\n        /* \"NFTES_Drop_flat.sol\":20865:20866  1 */\n      0x01\n        /* \"NFTES_Drop_flat.sol\":20857:20866  nftId = 1 */\n      swap1\n      pop\n        /* \"NFTES_Drop_flat.sol\":20884:20888  Gold */\n      0x07\n      0x00\n        /* \"NFTES_Drop_flat.sol\":20884:20890  Gold++ */\n      dup2\n      sload\n      dup1\n      swap3\n      swap2\n      swap1\n      tag_284\n      swap1\n      tag_146\n      jump\t// in\n    tag_284:\n      swap2\n      swap1\n      pop\n      sstore\n      pop\n        /* \"NFTES_Drop_flat.sol\":20969:20991  Strings.toString(Gold) */\n      tag_285\n        /* \"NFTES_Drop_flat.sol\":20986:20990  Gold */\n      sload(0x07)\n        /* \"NFTES_Drop_flat.sol\":20969:20985  Strings.toString */\n      tag_259\n        /* \"NFTES_Drop_flat.sol\":20969:20991  Strings.toString(Gold) */\n      jump\t// in\n    tag_285:\n        /* \"NFTES_Drop_flat.sol\":20943:20992  abi.encodePacked(\"Gold_\", Strings.toString(Gold)) */\n      add(0x20, mload(0x40))\n      tag_286\n      swap2\n      swap1\n      tag_271\n      jump\t// in\n    tag_286:\n      mload(0x40)\n      0x20\n      dup2\n      dup4\n      sub\n      sub\n      dup2\n      mstore\n      swap1\n      0x40\n      mstore\n        /* \"NFTES_Drop_flat.sol\":20908:20912  data */\n      0x02\n        /* \"NFTES_Drop_flat.sol\":20908:21010  data = string(... */\n      swap1\n      dup1\n      mload\n      swap1\n      0x20\n      add\n      swap1\n      tag_287\n      swap3\n      swap2\n      swap1\n      tag_263\n      jump\t// in\n    tag_287:\n      pop\n        /* \"NFTES_Drop_flat.sol\":21035:21040  nftId */\n      dup1\n        /* \"NFTES_Drop_flat.sol\":21028:21040  return nftId */\n      swap2\n      pop\n      pop\n      jump(tag_252)\n        /* \"NFTES_Drop_flat.sol\":20814:21286  if (Gold < maxGoldCount) {... */\n    tag_283:\n        /* \"NFTES_Drop_flat.sol\":21087:21088  0 */\n      0x00\n        /* \"NFTES_Drop_flat.sol\":21079:21088  nftId = 0 */\n      swap1\n      pop\n        /* \"NFTES_Drop_flat.sol\":21106:21113  Diamond */\n      0x06\n      0x00\n        /* \"NFTES_Drop_flat.sol\":21106:21115  Diamond++ */\n      dup2\n      sload\n      dup1\n      swap3\n      swap2\n      swap1\n      tag_289\n      swap1\n      tag_146\n      jump\t// in\n    tag_289:\n      swap2\n      swap1\n      pop\n      sstore\n      pop\n        /* \"NFTES_Drop_flat.sol\":21197:21222  Strings.toString(Diamond) */\n      tag_290\n        /* \"NFTES_Drop_flat.sol\":21214:21221  Diamond */\n      sload(0x06)\n        /* \"NFTES_Drop_flat.sol\":21197:21213  Strings.toString */\n      tag_259\n        /* \"NFTES_Drop_flat.sol\":21197:21222  Strings.toString(Diamond) */\n      jump\t// in\n    tag_290:\n        /* \"NFTES_Drop_flat.sol\":21168:21223  abi.encodePacked(\"Diamond_\", Strings.toString(Diamond)) */\n      add(0x20, mload(0x40))\n      tag_291\n      swap2\n      swap1\n      tag_261\n      jump\t// in\n    tag_291:\n      mload(0x40)\n      0x20\n      dup2\n      dup4\n      sub\n      sub\n      dup2\n      mstore\n      swap1\n      0x40\n      mstore\n        /* \"NFTES_Drop_flat.sol\":21133:21137  data */\n      0x02\n        /* \"NFTES_Drop_flat.sol\":21133:21241  data = string(... */\n      swap1\n      dup1\n      mload\n      swap1\n      0x20\n      add\n      swap1\n      tag_292\n      swap3\n      swap2\n      swap1\n      tag_263\n      jump\t// in\n    tag_292:\n      pop\n        /* \"NFTES_Drop_flat.sol\":21266:21271  nftId */\n      dup1\n        /* \"NFTES_Drop_flat.sol\":21259:21271  return nftId */\n      swap2\n      pop\n      pop\n        /* \"NFTES_Drop_flat.sol\":16417:16418  _ */\n    tag_252:\n        /* \"NFTES_Drop_flat.sol\":19660:21302  function updateConditions(uint256 index)... */\n      swap2\n      swap1\n      pop\n      jump\t// out\n        /* \"NFTES_Drop_flat.sol\":13711:14263  function _mint(... */\n    tag_231:\n        /* \"NFTES_Drop_flat.sol\":13873:13874  0 */\n      0x00\n        /* \"NFTES_Drop_flat.sol\":13859:13875  to != address(0) */\n      0xffffffffffffffffffffffffffffffffffffffff\n      and\n        /* \"NFTES_Drop_flat.sol\":13859:13861  to */\n      dup5\n        /* \"NFTES_Drop_flat.sol\":13859:13875  to != address(0) */\n      0xffffffffffffffffffffffffffffffffffffffff\n      and\n      eq\n      iszero\n        /* \"NFTES_Drop_flat.sol\":13851:13913  require(to != address(0), \"ERC1155: mint to the zero address\") */\n      tag_294\n      jumpi\n      mload(0x40)\n      0x08c379a000000000000000000000000000000000000000000000000000000000\n      dup2\n      mstore\n      0x04\n      add\n      tag_295\n      swap1\n      tag_296\n      jump\t// in\n    tag_295:\n      mload(0x40)\n      dup1\n      swap2\n      sub\n      swap1\n      revert\n    tag_294:\n        /* \"NFTES_Drop_flat.sol\":13924:13940  address operator */\n      0x00\n        /* \"NFTES_Drop_flat.sol\":13943:13955  _msgSender() */\n      tag_297\n        /* \"NFTES_Drop_flat.sol\":13943:13953  _msgSender */\n      tag_92\n        /* \"NFTES_Drop_flat.sol\":13943:13955  _msgSender() */\n      jump\t// in\n    tag_297:\n        /* \"NFTES_Drop_flat.sol\":13924:13955  address operator = _msgSender() */\n      swap1\n      pop\n        /* \"NFTES_Drop_flat.sol\":13966:14068  _beforeTokenTransfer(operator, address(0), to, _asSingletonArray(id), _asSingletonArray(amount), data) */\n      tag_298\n        /* \"NFTES_Drop_flat.sol\":13987:13995  operator */\n      dup2\n        /* \"NFTES_Drop_flat.sol\":14005:14006  0 */\n      0x00\n        /* \"NFTES_Drop_flat.sol\":14009:14011  to */\n      dup8\n        /* \"NFTES_Drop_flat.sol\":14013:14034  _asSingletonArray(id) */\n      tag_299\n        /* \"NFTES_Drop_flat.sol\":14031:14033  id */\n      dup9\n        /* \"NFTES_Drop_flat.sol\":14013:14030  _asSingletonArray */\n      tag_300\n        /* \"NFTES_Drop_flat.sol\":14013:14034  _asSingletonArray(id) */\n      jump\t// in\n    tag_299:\n        /* \"NFTES_Drop_flat.sol\":14036:14061  _asSingletonArray(amount) */\n      tag_301\n        /* \"NFTES_Drop_flat.sol\":14054:14060  amount */\n      dup9\n        /* \"NFTES_Drop_flat.sol\":14036:14053  _asSingletonArray */\n      tag_300\n        /* \"NFTES_Drop_flat.sol\":14036:14061  _asSingletonArray(amount) */\n      jump\t// in\n    tag_301:\n        /* \"NFTES_Drop_flat.sol\":14063:14067  data */\n      dup8\n        /* \"NFTES_Drop_flat.sol\":13966:13986  _beforeTokenTransfer */\n      tag_302\n        /* \"NFTES_Drop_flat.sol\":13966:14068  _beforeTokenTransfer(operator, address(0), to, _asSingletonArray(id), _asSingletonArray(amount), data) */\n      jump\t// in\n    tag_298:\n        /* \"NFTES_Drop_flat.sol\":14099:14105  amount */\n      dup3\n        /* \"NFTES_Drop_flat.sol\":14078:14087  _balances */\n      0x00\n        /* \"NFTES_Drop_flat.sol\":14078:14091  _balances[id] */\n      dup1\n        /* \"NFTES_Drop_flat.sol\":14088:14090  id */\n      dup7\n        /* \"NFTES_Drop_flat.sol\":14078:14091  _balances[id] */\n      dup2\n      mstore\n      0x20\n      add\n      swap1\n      dup2\n      mstore\n      0x20\n      add\n      0x00\n      keccak256\n        /* \"NFTES_Drop_flat.sol\":14078:14095  _balances[id][to] */\n      0x00\n        /* \"NFTES_Drop_flat.sol\":14092:14094  to */\n      dup8\n        /* \"NFTES_Drop_flat.sol\":14078:14095  _balances[id][to] */\n      0xffffffffffffffffffffffffffffffffffffffff\n      and\n      0xffffffffffffffffffffffffffffffffffffffff\n      and\n      dup2\n      mstore\n      0x20\n      add\n      swap1\n      dup2\n      mstore\n      0x20\n      add\n      0x00\n      keccak256\n      0x00\n        /* \"NFTES_Drop_flat.sol\":14078:14105  _balances[id][to] += amount */\n      dup3\n      dup3\n      sload\n      tag_303\n      swap2\n      swap1\n      tag_241\n      jump\t// in\n    tag_303:\n      swap3\n      pop\n      pop\n      dup2\n      swap1\n      sstore\n      pop\n        /* \"NFTES_Drop_flat.sol\":14157:14159  to */\n      dup5\n        /* \"NFTES_Drop_flat.sol\":14120:14172  TransferSingle(operator, address(0), to, id, amount) */\n      0xffffffffffffffffffffffffffffffffffffffff\n      and\n        /* \"NFTES_Drop_flat.sol\":14153:14154  0 */\n      0x00\n        /* \"NFTES_Drop_flat.sol\":14120:14172  TransferSingle(operator, address(0), to, id, amount) */\n      0xffffffffffffffffffffffffffffffffffffffff\n      and\n        /* \"NFTES_Drop_flat.sol\":14135:14143  operator */\n      dup3\n        /* \"NFTES_Drop_flat.sol\":14120:14172  TransferSingle(operator, address(0), to, id, amount) */\n      0xffffffffffffffffffffffffffffffffffffffff\n      and\n      0xc3d58168c5ae7397731d063d5bbf3d657854427343f4c083240f7aacaa2d0f62\n        /* \"NFTES_Drop_flat.sol\":14161:14163  id */\n      dup8\n        /* \"NFTES_Drop_flat.sol\":14165:14171  amount */\n      dup8\n        /* \"NFTES_Drop_flat.sol\":14120:14172  TransferSingle(operator, address(0), to, id, amount) */\n      mload(0x40)\n      tag_304\n      swap3\n      swap2\n      swap1\n      tag_305\n      jump\t// in\n    tag_304:\n      mload(0x40)\n      dup1\n      swap2\n      sub\n      swap1\n      log4\n        /* \"NFTES_Drop_flat.sol\":14182:14256  _doSafeTransferAcceptanceCheck(operator, address(0), to, id, amount, data) */\n      tag_306\n        /* \"NFTES_Drop_flat.sol\":14213:14221  operator */\n      dup2\n        /* \"NFTES_Drop_flat.sol\":14231:14232  0 */\n      0x00\n        /* \"NFTES_Drop_flat.sol\":14235:14237  to */\n      dup8\n        /* \"NFTES_Drop_flat.sol\":14239:14241  id */\n      dup8\n        /* \"NFTES_Drop_flat.sol\":14243:14249  amount */\n      dup8\n        /* \"NFTES_Drop_flat.sol\":14251:14255  data */\n      dup8\n        /* \"NFTES_Drop_flat.sol\":14182:14212  _doSafeTransferAcceptanceCheck */\n      tag_307\n        /* \"NFTES_Drop_flat.sol\":14182:14256  _doSafeTransferAcceptanceCheck(operator, address(0), to, id, amount, data) */\n      jump\t// in\n    tag_306:\n        /* \"NFTES_Drop_flat.sol\":13841:14263  {... */\n      pop\n        /* \"NFTES_Drop_flat.sol\":13711:14263  function _mint(... */\n      pop\n      pop\n      pop\n      pop\n      jump\t// out\n        /* \"NFTES_Drop_flat.sol\":273:976  function toString(uint256 value) internal pure returns (string memory) {... */\n    tag_259:\n        /* \"NFTES_Drop_flat.sol\":329:342  string memory */\n      0x60\n        /* \"NFTES_Drop_flat.sol\":555:556  0 */\n      0x00\n        /* \"NFTES_Drop_flat.sol\":546:551  value */\n      dup3\n        /* \"NFTES_Drop_flat.sol\":546:556  value == 0 */\n      eq\n        /* \"NFTES_Drop_flat.sol\":542:593  if (value == 0) {... */\n      iszero\n      tag_309\n      jumpi\n        /* \"NFTES_Drop_flat.sol\":572:582  return \"0\" */\n      mload(0x40)\n      dup1\n      0x40\n      add\n      0x40\n      mstore\n      dup1\n      0x01\n      dup2\n      mstore\n      0x20\n      add\n      0x3000000000000000000000000000000000000000000000000000000000000000\n      dup2\n      mstore\n      pop\n      swap1\n      pop\n      jump(tag_308)\n        /* \"NFTES_Drop_flat.sol\":542:593  if (value == 0) {... */\n    tag_309:\n        /* \"NFTES_Drop_flat.sol\":602:614  uint256 temp */\n      0x00\n        /* \"NFTES_Drop_flat.sol\":617:622  value */\n      dup3\n        /* \"NFTES_Drop_flat.sol\":602:622  uint256 temp = value */\n      swap1\n      pop\n        /* \"NFTES_Drop_flat.sol\":632:646  uint256 digits */\n      0x00\n        /* \"NFTES_Drop_flat.sol\":656:731  while (temp != 0) {... */\n    tag_310:\n        /* \"NFTES_Drop_flat.sol\":671:672  0 */\n      0x00\n        /* \"NFTES_Drop_flat.sol\":663:667  temp */\n      dup3\n        /* \"NFTES_Drop_flat.sol\":663:672  temp != 0 */\n      eq\n        /* \"NFTES_Drop_flat.sol\":656:731  while (temp != 0) {... */\n      tag_311\n      jumpi\n        /* \"NFTES_Drop_flat.sol\":688:696  digits++ */\n      dup1\n      dup1\n      tag_312\n      swap1\n      tag_146\n      jump\t// in\n    tag_312:\n      swap2\n      pop\n      pop\n        /* \"NFTES_Drop_flat.sol\":718:720  10 */\n      0x0a\n        /* \"NFTES_Drop_flat.sol\":710:720  temp /= 10 */\n      dup3\n      tag_313\n      swap2\n      swap1\n      tag_314\n      jump\t// in\n    tag_313:\n      swap2\n      pop\n        /* \"NFTES_Drop_flat.sol\":656:731  while (temp != 0) {... */\n      jump(tag_310)\n    tag_311:\n        /* \"NFTES_Drop_flat.sol\":740:759  bytes memory buffer */\n      0x00\n        /* \"NFTES_Drop_flat.sol\":772:778  digits */\n      dup2\n        /* \"NFTES_Drop_flat.sol\":762:779  new bytes(digits) */\n      0xffffffffffffffff\n      dup2\n      gt\n      iszero\n      tag_315\n      jumpi\n      tag_316\n      tag_317\n      jump\t// in\n    tag_316:\n    tag_315:\n      mload(0x40)\n      swap1\n      dup1\n      dup3\n      mstore\n      dup1\n      0x1f\n      add\n      not(0x1f)\n      and\n      0x20\n      add\n      dup3\n      add\n      0x40\n      mstore\n      dup1\n      iszero\n      tag_318\n      jumpi\n      dup2\n      0x20\n      add\n      0x01\n      dup3\n      mul\n      dup1\n      calldatasize\n      dup4\n      calldatacopy\n      dup1\n      dup3\n      add\n      swap2\n      pop\n      pop\n      swap1\n      pop\n    tag_318:\n      pop\n        /* \"NFTES_Drop_flat.sol\":740:779  bytes memory buffer = new bytes(digits) */\n      swap1\n      pop\n        /* \"NFTES_Drop_flat.sol\":789:939  while (value != 0) {... */\n    tag_319:\n        /* \"NFTES_Drop_flat.sol\":805:806  0 */\n      0x00\n        /* \"NFTES_Drop_flat.sol\":796:801  value */\n      dup6\n        /* \"NFTES_Drop_flat.sol\":796:806  value != 0 */\n      eq\n        /* \"NFTES_Drop_flat.sol\":789:939  while (value != 0) {... */\n      tag_320\n      jumpi\n        /* \"NFTES_Drop_flat.sol\":832:833  1 */\n      0x01\n        /* \"NFTES_Drop_flat.sol\":822:833  digits -= 1 */\n      dup3\n      tag_321\n      swap2\n      swap1\n      tag_322\n      jump\t// in\n    tag_321:\n      swap2\n      pop\n        /* \"NFTES_Drop_flat.sol\":898:900  10 */\n      0x0a\n        /* \"NFTES_Drop_flat.sol\":890:895  value */\n      dup6\n        /* \"NFTES_Drop_flat.sol\":890:900  value % 10 */\n      tag_323\n      swap2\n      swap1\n      tag_254\n      jump\t// in\n    tag_323:\n        /* \"NFTES_Drop_flat.sol\":877:879  48 */\n      0x30\n        /* \"NFTES_Drop_flat.sol\":877:901  48 + uint256(value % 10) */\n      tag_324\n      swap2\n      swap1\n      tag_241\n      jump\t// in\n    tag_324:\n        /* \"NFTES_Drop_flat.sol\":864:903  bytes1(uint8(48 + uint256(value % 10))) */\n      0xf8\n      shl\n        /* \"NFTES_Drop_flat.sol\":847:853  buffer */\n      dup2\n        /* \"NFTES_Drop_flat.sol\":854:860  digits */\n      dup4\n        /* \"NFTES_Drop_flat.sol\":847:861  buffer[digits] */\n      dup2\n      mload\n      dup2\n      lt\n      tag_325\n      jumpi\n      tag_326\n      tag_327\n      jump\t// in\n    tag_326:\n    tag_325:\n      0x20\n      add\n      add\n        /* \"NFTES_Drop_flat.sol\":847:903  buffer[digits] = bytes1(uint8(48 + uint256(value % 10))) */\n      swap1\n      not(0xffffffffffffffffffffffffffffffffffffffffffffffffffffffffffffff)\n      and\n      swap1\n      dup2\n      0x00\n      byte\n      swap1\n      mstore8\n      pop\n        /* \"NFTES_Drop_flat.sol\":926:928  10 */\n      0x0a\n        /* \"NFTES_Drop_flat.sol\":917:928  value /= 10 */\n      dup6\n      tag_328\n      swap2\n      swap1\n      tag_314\n      jump\t// in\n    tag_328:\n      swap5\n      pop\n        /* \"NFTES_Drop_flat.sol\":789:939  while (value != 0) {... */\n      jump(tag_319)\n    tag_320:\n        /* \"NFTES_Drop_flat.sol\":962:968  buffer */\n      dup1\n        /* \"NFTES_Drop_flat.sol\":948:969  return string(buffer) */\n      swap4\n      pop\n      pop\n      pop\n      pop\n        /* \"NFTES_Drop_flat.sol\":273:976  function toString(uint256 value) internal pure returns (string memory) {... */\n    tag_308:\n      swap2\n      swap1\n      pop\n      jump\t// out\n        /* \"NFTES_Drop_flat.sol\":15223:15416  function _asSingletonArray(uint256 element) private pure returns (uint256[] memory) {... */\n    tag_300:\n        /* \"NFTES_Drop_flat.sol\":15289:15305  uint256[] memory */\n      0x60\n        /* \"NFTES_Drop_flat.sol\":15317:15339  uint256[] memory array */\n      0x00\n        /* \"NFTES_Drop_flat.sol\":15356:15357  1 */\n      0x01\n        /* \"NFTES_Drop_flat.sol\":15342:15358  new uint256[](1) */\n      0xffffffffffffffff\n      dup2\n      gt\n      iszero\n      tag_330\n      jumpi\n      tag_331\n      tag_317\n      jump\t// in\n    tag_331:\n    tag_330:\n      mload(0x40)\n      swap1\n      dup1\n      dup3\n      mstore\n      dup1\n      0x20\n      mul\n      0x20\n      add\n      dup3\n      add\n      0x40\n      mstore\n      dup1\n      iszero\n      tag_332\n      jumpi\n      dup2\n      0x20\n      add\n      0x20\n      dup3\n      mul\n      dup1\n      calldatasize\n      dup4\n      calldatacopy\n      dup1\n      dup3\n      add\n      swap2\n      pop\n      pop\n      swap1\n      pop\n    tag_332:\n      pop\n        /* \"NFTES_Drop_flat.sol\":15317:15358  uint256[] memory array = new uint256[](1) */\n      swap1\n      pop\n        /* \"NFTES_Drop_flat.sol\":15379:15386  element */\n      dup3\n        /* \"NFTES_Drop_flat.sol\":15368:15373  array */\n      dup2\n        /* \"NFTES_Drop_flat.sol\":15374:15375  0 */\n      0x00\n        /* \"NFTES_Drop_flat.sol\":15368:15376  array[0] */\n      dup2\n      mload\n      dup2\n      lt\n      tag_333\n      jumpi\n      tag_334\n      tag_327\n      jump\t// in\n    tag_334:\n    tag_333:\n      0x20\n      mul\n      0x20\n      add\n      add\n        /* \"NFTES_Drop_flat.sol\":15368:15386  array[0] = element */\n      dup2\n      dup2\n      mstore\n      pop\n      pop\n        /* \"NFTES_Drop_flat.sol\":15404:15409  array */\n      dup1\n        /* \"NFTES_Drop_flat.sol\":15397:15409  return array */\n      swap2\n      pop\n      pop\n        /* \"NFTES_Drop_flat.sol\":15223:15416  function _asSingletonArray(uint256 element) private pure returns (uint256[] memory) {... */\n      swap2\n      swap1\n      pop\n      jump\t// out\n        /* \"NFTES_Drop_flat.sol\":14270:14485  function _beforeTokenTransfer(... */\n    tag_302:\n      pop\n      pop\n      pop\n      pop\n      pop\n      pop\n      jump\t// out\n        /* \"NFTES_Drop_flat.sol\":14491:15217  function _doSafeTransferAcceptanceCheck(... */\n    tag_307:\n        /* \"NFTES_Drop_flat.sol\":14699:14714  to.isContract() */\n      tag_337\n        /* \"NFTES_Drop_flat.sol\":14699:14701  to */\n      dup5\n        /* \"NFTES_Drop_flat.sol\":14699:14712  to.isContract */\n      0xffffffffffffffffffffffffffffffffffffffff\n      and\n      tag_338\n        /* \"NFTES_Drop_flat.sol\":14699:14714  to.isContract() */\n      jump\t// in\n    tag_337:\n        /* \"NFTES_Drop_flat.sol\":14695:15211  if (to.isContract()) {... */\n      iszero\n      tag_339\n      jumpi\n        /* \"NFTES_Drop_flat.sol\":14751:14753  to */\n      dup4\n        /* \"NFTES_Drop_flat.sol\":14734:14772  IERC1155Receiver(to).onERC1155Received */\n      0xffffffffffffffffffffffffffffffffffffffff\n      and\n      0xae89a248\n        /* \"NFTES_Drop_flat.sol\":14773:14781  operator */\n      dup8\n        /* \"NFTES_Drop_flat.sol\":14783:14787  from */\n      dup8\n        /* \"NFTES_Drop_flat.sol\":14789:14791  id */\n      dup7\n        /* \"NFTES_Drop_flat.sol\":14793:14799  amount */\n      dup7\n        /* \"NFTES_Drop_flat.sol\":14801:14805  data */\n      dup7\n        /* \"NFTES_Drop_flat.sol\":14734:14806  IERC1155Receiver(to).onERC1155Received(operator, from, id, amount, data) */\n      mload(0x40)\n      dup7\n      0xffffffff\n      and\n      0xe0\n      shl\n      dup2\n      mstore\n      0x04\n      add\n      tag_340\n      swap6\n      swap5\n      swap4\n      swap3\n      swap2\n      swap1\n      tag_341\n      jump\t// in\n    tag_340:\n      0x20\n      mload(0x40)\n      dup1\n      dup4\n      sub\n      dup2\n      0x00\n      dup8\n      dup1\n      extcodesize\n      iszero\n      dup1\n      iszero\n      tag_342\n      jumpi\n      0x00\n      dup1\n      revert\n    tag_342:\n      pop\n      gas\n      call\n      swap3\n      pop\n      pop\n      pop\n      dup1\n      iszero\n      tag_343\n      jumpi\n      pop\n      mload(0x40)\n      returndatasize\n      not(0x1f)\n      0x1f\n      dup3\n      add\n      and\n      dup3\n      add\n      dup1\n      0x40\n      mstore\n      pop\n      dup2\n      add\n      swap1\n      tag_344\n      swap2\n      swap1\n      tag_345\n      jump\t// in\n    tag_344:\n      0x01\n    tag_343:\n        /* \"NFTES_Drop_flat.sol\":14730:15201  try IERC1155Receiver(to).onERC1155Received(operator, from, id, amount, data) returns (bytes4 response) {... */\n      tag_346\n      jumpi\n      tag_350\n      tag_351\n      jump\t// in\n    tag_350:\n      dup1\n      0x08c379a0\n      eq\n      iszero\n      tag_349\n      jumpi\n      pop\n      tag_352\n      tag_353\n      jump\t// in\n    tag_352:\n      dup1\n      tag_354\n      jumpi\n      pop\n      jump(tag_348)\n    tag_354:\n        /* \"NFTES_Drop_flat.sol\":15077:15083  reason */\n      dup1\n        /* \"NFTES_Drop_flat.sol\":15070:15084  revert(reason) */\n      mload(0x40)\n      0x08c379a000000000000000000000000000000000000000000000000000000000\n      dup2\n      mstore\n      0x04\n      add\n      tag_355\n      swap2\n      swap1\n      tag_356\n      jump\t// in\n    tag_355:\n      mload(0x40)\n      dup1\n      swap2\n      sub\n      swap1\n      revert\n        /* \"NFTES_Drop_flat.sol\":14730:15201  try IERC1155Receiver(to).onERC1155Received(operator, from, id, amount, data) returns (bytes4 response) {... */\n    tag_349:\n      pop\n    tag_348:\n        /* \"NFTES_Drop_flat.sol\":15124:15186  revert(\"ERC1155: transfer to non ERC1155Receiver implementer\") */\n      mload(0x40)\n      0x08c379a000000000000000000000000000000000000000000000000000000000\n      dup2\n      mstore\n      0x04\n      add\n      tag_357\n      swap1\n      tag_358\n      jump\t// in\n    tag_357:\n      mload(0x40)\n      dup1\n      swap2\n      sub\n      swap1\n      revert\n        /* \"NFTES_Drop_flat.sol\":14730:15201  try IERC1155Receiver(to).onERC1155Received(operator, from, id, amount, data) returns (bytes4 response) {... */\n    tag_346:\n        /* \"NFTES_Drop_flat.sol\":14867:14910  IERC1155Receiver.onERC1155Received.selector */\n      shl(0xe0, 0xae89a248)\n        /* \"NFTES_Drop_flat.sol\":14855:14910  response != IERC1155Receiver.onERC1155Received.selector */\n      not(0xffffffffffffffffffffffffffffffffffffffffffffffffffffffff)\n      and\n        /* \"NFTES_Drop_flat.sol\":14855:14863  response */\n      dup2\n        /* \"NFTES_Drop_flat.sol\":14855:14910  response != IERC1155Receiver.onERC1155Received.selector */\n      not(0xffffffffffffffffffffffffffffffffffffffffffffffffffffffff)\n      and\n      eq\n        /* \"NFTES_Drop_flat.sol\":14851:15003  if (response != IERC1155Receiver.onERC1155Received.selector) {... */\n      tag_360\n      jumpi\n        /* \"NFTES_Drop_flat.sol\":14934:14984  revert(\"ERC1155: ERC1155Receiver rejected tokens\") */\n      mload(0x40)\n      0x08c379a000000000000000000000000000000000000000000000000000000000\n      dup2\n      mstore\n      0x04\n      add\n      tag_361\n      swap1\n      tag_362\n      jump\t// in\n    tag_361:\n      mload(0x40)\n      dup1\n      swap2\n      sub\n      swap1\n      revert\n        /* \"NFTES_Drop_flat.sol\":14851:15003  if (response != IERC1155Receiver.onERC1155Received.selector) {... */\n    tag_360:\n        /* \"NFTES_Drop_flat.sol\":14807:15017  returns (bytes4 response) {... */\n      pop\n        /* \"NFTES_Drop_flat.sol\":14695:15211  if (to.isContract()) {... */\n    tag_339:\n        /* \"NFTES_Drop_flat.sol\":14491:15217  function _doSafeTransferAcceptanceCheck(... */\n      pop\n      pop\n      pop\n      pop\n      pop\n      pop\n      jump\t// out\n        /* \"NFTES_Drop_flat.sol\":3574:3951  function isContract(address account) internal view returns (bool) {... */\n    tag_338:\n        /* \"NFTES_Drop_flat.sol\":3634:3638  bool */\n      0x00\n        /* \"NFTES_Drop_flat.sol\":3837:3849  uint256 size */\n      dup1\n        /* \"NFTES_Drop_flat.sol\":3902:3909  account */\n      dup3\n        /* \"NFTES_Drop_flat.sol\":3890:3910  extcodesize(account) */\n      extcodesize\n        /* \"NFTES_Drop_flat.sol\":3882:3910  size := extcodesize(account) */\n      swap1\n      pop\n        /* \"NFTES_Drop_flat.sol\":3943:3944  0 */\n      0x00\n        /* \"NFTES_Drop_flat.sol\":3936:3940  size */\n      dup2\n        /* \"NFTES_Drop_flat.sol\":3936:3944  size > 0 */\n      gt\n        /* \"NFTES_Drop_flat.sol\":3929:3944  return size > 0 */\n      swap2\n      pop\n      pop\n        /* \"NFTES_Drop_flat.sol\":3574:3951  function isContract(address account) internal view returns (bool) {... */\n      swap2\n      swap1\n      pop\n      jump\t// out\n    tag_263:\n      dup3\n      dup1\n      sload\n      tag_364\n      swap1\n      tag_226\n      jump\t// in\n    tag_364:\n      swap1\n      0x00\n      mstore\n      keccak256(0x00, 0x20)\n      swap1\n      0x1f\n      add\n      0x20\n      swap1\n      div\n      dup2\n      add\n      swap3\n      dup3\n      tag_366\n      jumpi\n      0x00\n      dup6\n      sstore\n      jump(tag_365)\n    tag_366:\n      dup3\n      0x1f\n      lt\n      tag_367\n      jumpi\n      dup1\n      mload\n      not(0xff)\n      and\n      dup4\n      dup1\n      add\n      or\n      dup6\n      sstore\n      jump(tag_365)\n    tag_367:\n      dup3\n      dup1\n      add\n      0x01\n      add\n      dup6\n      sstore\n      dup3\n      iszero\n      tag_365\n      jumpi\n      swap2\n      dup3\n      add\n    tag_368:\n      dup3\n      dup2\n      gt\n      iszero\n      tag_369\n      jumpi\n      dup3\n      mload\n      dup3\n      sstore\n      swap2\n      0x20\n      add\n      swap2\n      swap1\n      0x01\n      add\n      swap1\n      jump(tag_368)\n    tag_369:\n    tag_365:\n      pop\n      swap1\n      pop\n      tag_370\n      swap2\n      swap1\n      tag_371\n      jump\t// in\n    tag_370:\n      pop\n      swap1\n      jump\t// out\n    tag_371:\n    tag_372:\n      dup1\n      dup3\n      gt\n      iszero\n      tag_373\n      jumpi\n      0x00\n      dup2\n      0x00\n      swap1\n      sstore\n      pop\n      0x01\n      add\n      jump(tag_372)\n    tag_373:\n      pop\n      swap1\n      jump\t// out\n        /* \"#utility.yul\":7:146   */\n    tag_375:\n        /* \"#utility.yul\":53:58   */\n      0x00\n        /* \"#utility.yul\":91:97   */\n      dup2\n        /* \"#utility.yul\":78:98   */\n      calldataload\n        /* \"#utility.yul\":69:98   */\n      swap1\n      pop\n        /* \"#utility.yul\":107:140   */\n      tag_377\n        /* \"#utility.yul\":134:139   */\n      dup2\n        /* \"#utility.yul\":107:140   */\n      tag_378\n      jump\t// in\n    tag_377:\n        /* \"#utility.yul\":7:146   */\n      swap3\n      swap2\n      pop\n      pop\n      jump\t// out\n        /* \"#utility.yul\":152:307   */\n    tag_379:\n        /* \"#utility.yul\":206:211   */\n      0x00\n        /* \"#utility.yul\":244:250   */\n      dup2\n        /* \"#utility.yul\":231:251   */\n      calldataload\n        /* \"#utility.yul\":222:251   */\n      swap1\n      pop\n        /* \"#utility.yul\":260:301   */\n      tag_381\n        /* \"#utility.yul\":295:300   */\n      dup2\n        /* \"#utility.yul\":260:301   */\n      tag_382\n      jump\t// in\n    tag_381:\n        /* \"#utility.yul\":152:307   */\n      swap3\n      swap2\n      pop\n      pop\n      jump\t// out\n        /* \"#utility.yul\":313:454   */\n    tag_383:\n        /* \"#utility.yul\":369:374   */\n      0x00\n        /* \"#utility.yul\":400:406   */\n      dup2\n        /* \"#utility.yul\":394:407   */\n      mload\n        /* \"#utility.yul\":385:407   */\n      swap1\n      pop\n        /* \"#utility.yul\":416:448   */\n      tag_385\n        /* \"#utility.yul\":442:447   */\n      dup2\n        /* \"#utility.yul\":416:448   */\n      tag_386\n      jump\t// in\n    tag_385:\n        /* \"#utility.yul\":313:454   */\n      swap3\n      swap2\n      pop\n      pop\n      jump\t// out\n        /* \"#utility.yul\":460:599   */\n    tag_387:\n        /* \"#utility.yul\":506:511   */\n      0x00\n        /* \"#utility.yul\":544:550   */\n      dup2\n        /* \"#utility.yul\":531:551   */\n      calldataload\n        /* \"#utility.yul\":522:551   */\n      swap1\n      pop\n        /* \"#utility.yul\":560:593   */\n      tag_389\n        /* \"#utility.yul\":587:592   */\n      dup2\n        /* \"#utility.yul\":560:593   */\n      tag_390\n      jump\t// in\n    tag_389:\n        /* \"#utility.yul\":460:599   */\n      swap3\n      swap2\n      pop\n      pop\n      jump\t// out\n        /* \"#utility.yul\":605:934   */\n    tag_36:\n        /* \"#utility.yul\":664:670   */\n      0x00\n        /* \"#utility.yul\":713:715   */\n      0x20\n        /* \"#utility.yul\":701:710   */\n      dup3\n        /* \"#utility.yul\":692:699   */\n      dup5\n        /* \"#utility.yul\":688:711   */\n      sub\n        /* \"#utility.yul\":684:716   */\n      slt\n        /* \"#utility.yul\":681:800   */\n      iszero\n      tag_392\n      jumpi\n        /* \"#utility.yul\":719:798   */\n      tag_393\n      tag_394\n      jump\t// in\n    tag_393:\n        /* \"#utility.yul\":681:800   */\n    tag_392:\n        /* \"#utility.yul\":839:840   */\n      0x00\n        /* \"#utility.yul\":864:917   */\n      tag_395\n        /* \"#utility.yul\":909:916   */\n      dup5\n        /* \"#utility.yul\":900:906   */\n      dup3\n        /* \"#utility.yul\":889:898   */\n      dup6\n        /* \"#utility.yul\":885:907   */\n      add\n        /* \"#utility.yul\":864:917   */\n      tag_375\n      jump\t// in\n    tag_395:\n        /* \"#utility.yul\":854:917   */\n      swap2\n      pop\n        /* \"#utility.yul\":810:927   */\n      pop\n        /* \"#utility.yul\":605:934   */\n      swap3\n      swap2\n      pop\n      pop\n      jump\t// out\n        /* \"#utility.yul\":940:1430   */\n    tag_31:\n        /* \"#utility.yul\":1016:1022   */\n      0x00\n        /* \"#utility.yul\":1024:1030   */\n      dup1\n        /* \"#utility.yul\":1073:1075   */\n      0x40\n        /* \"#utility.yul\":1061:1070   */\n      dup4\n        /* \"#utility.yul\":1052:1059   */\n      dup6\n        /* \"#utility.yul\":1048:1071   */\n      sub\n        /* \"#utility.yul\":1044:1076   */\n      slt\n        /* \"#utility.yul\":1041:1160   */\n      iszero\n      tag_397\n      jumpi\n        /* \"#utility.yul\":1079:1158   */\n      tag_398\n      tag_394\n      jump\t// in\n    tag_398:\n        /* \"#utility.yul\":1041:1160   */\n    tag_397:\n        /* \"#utility.yul\":1199:1200   */\n      0x00\n        /* \"#utility.yul\":1224:1285   */\n      tag_399\n        /* \"#utility.yul\":1277:1284   */\n      dup6\n        /* \"#utility.yul\":1268:1274   */\n      dup3\n        /* \"#utility.yul\":1257:1266   */\n      dup7\n        /* \"#utility.yul\":1253:1275   */\n      add\n        /* \"#utility.yul\":1224:1285   */\n      tag_379\n      jump\t// in\n    tag_399:\n        /* \"#utility.yul\":1214:1285   */\n      swap3\n      pop\n        /* \"#utility.yul\":1170:1295   */\n      pop\n        /* \"#utility.yul\":1334:1336   */\n      0x20\n        /* \"#utility.yul\":1360:1413   */\n      tag_400\n        /* \"#utility.yul\":1405:1412   */\n      dup6\n        /* \"#utility.yul\":1396:1402   */\n      dup3\n        /* \"#utility.yul\":1385:1394   */\n      dup7\n        /* \"#utility.yul\":1381:1403   */\n      add\n        /* \"#utility.yul\":1360:1413   */\n      tag_387\n      jump\t// in\n    tag_400:\n        /* \"#utility.yul\":1350:1413   */\n      swap2\n      pop\n        /* \"#utility.yul\":1305:1423   */\n      pop\n        /* \"#utility.yul\":940:1430   */\n      swap3\n      pop\n      swap3\n      swap1\n      pop\n      jump\t// out\n        /* \"#utility.yul\":1436:1910   */\n    tag_42:\n        /* \"#utility.yul\":1504:1510   */\n      0x00\n        /* \"#utility.yul\":1512:1518   */\n      dup1\n        /* \"#utility.yul\":1561:1563   */\n      0x40\n        /* \"#utility.yul\":1549:1558   */\n      dup4\n        /* \"#utility.yul\":1540:1547   */\n      dup6\n        /* \"#utility.yul\":1536:1559   */\n      sub\n        /* \"#utility.yul\":1532:1564   */\n      slt\n        /* \"#utility.yul\":1529:1648   */\n      iszero\n      tag_402\n      jumpi\n        /* \"#utility.yul\":1567:1646   */\n      tag_403\n      tag_394\n      jump\t// in\n    tag_403:\n        /* \"#utility.yul\":1529:1648   */\n    tag_402:\n        /* \"#utility.yul\":1687:1688   */\n      0x00\n        /* \"#utility.yul\":1712:1765   */\n      tag_404\n        /* \"#utility.yul\":1757:1764   */\n      dup6\n        /* \"#utility.yul\":1748:1754   */\n      dup3\n        /* \"#utility.yul\":1737:1746   */\n      dup7\n        /* \"#utility.yul\":1733:1755   */\n      add\n        /* \"#utility.yul\":1712:1765   */\n      tag_375\n      jump\t// in\n    tag_404:\n        /* \"#utility.yul\":1702:1765   */\n      swap3\n      pop\n        /* \"#utility.yul\":1658:1775   */\n      pop\n        /* \"#utility.yul\":1814:1816   */\n      0x20\n        /* \"#utility.yul\":1840:1893   */\n      tag_405\n        /* \"#utility.yul\":1885:1892   */\n      dup6\n        /* \"#utility.yul\":1876:1882   */\n      dup3\n        /* \"#utility.yul\":1865:1874   */\n      dup7\n        /* \"#utility.yul\":1861:1883   */\n      add\n        /* \"#utility.yul\":1840:1893   */\n      tag_387\n      jump\t// in\n    tag_405:\n        /* \"#utility.yul\":1830:1893   */\n      swap2\n      pop\n        /* \"#utility.yul\":1785:1903   */\n      pop\n        /* \"#utility.yul\":1436:1910   */\n      swap3\n      pop\n      swap3\n      swap1\n      pop\n      jump\t// out\n        /* \"#utility.yul\":1916:2265   */\n    tag_345:\n        /* \"#utility.yul\":1985:1991   */\n      0x00\n        /* \"#utility.yul\":2034:2036   */\n      0x20\n        /* \"#utility.yul\":2022:2031   */\n      dup3\n        /* \"#utility.yul\":2013:2020   */\n      dup5\n        /* \"#utility.yul\":2009:2032   */\n      sub\n        /* \"#utility.yul\":2005:2037   */\n      slt\n        /* \"#utility.yul\":2002:2121   */\n      iszero\n      tag_407\n      jumpi\n        /* \"#utility.yul\":2040:2119   */\n      tag_408\n      tag_394\n      jump\t// in\n    tag_408:\n        /* \"#utility.yul\":2002:2121   */\n    tag_407:\n        /* \"#utility.yul\":2160:2161   */\n      0x00\n        /* \"#utility.yul\":2185:2248   */\n      tag_409\n        /* \"#utility.yul\":2240:2247   */\n      dup5\n        /* \"#utility.yul\":2231:2237   */\n      dup3\n        /* \"#utility.yul\":2220:2229   */\n      dup6\n        /* \"#utility.yul\":2216:2238   */\n      add\n        /* \"#utility.yul\":2185:2248   */\n      tag_383\n      jump\t// in\n    tag_409:\n        /* \"#utility.yul\":2175:2248   */\n      swap2\n      pop\n        /* \"#utility.yul\":2131:2258   */\n      pop\n        /* \"#utility.yul\":1916:2265   */\n      swap3\n      swap2\n      pop\n      pop\n      jump\t// out\n        /* \"#utility.yul\":2271:2600   */\n    tag_87:\n        /* \"#utility.yul\":2330:2336   */\n      0x00\n        /* \"#utility.yul\":2379:2381   */\n      0x20\n        /* \"#utility.yul\":2367:2376   */\n      dup3\n        /* \"#utility.yul\":2358:2365   */\n      dup5\n        /* \"#utility.yul\":2354:2377   */\n      sub\n        /* \"#utility.yul\":2350:2382   */\n      slt\n        /* \"#utility.yul\":2347:2466   */\n      iszero\n      tag_411\n      jumpi\n        /* \"#utility.yul\":2385:2464   */\n      tag_412\n      tag_394\n      jump\t// in\n    tag_412:\n        /* \"#utility.yul\":2347:2466   */\n    tag_411:\n        /* \"#utility.yul\":2505:2506   */\n      0x00\n        /* \"#utility.yul\":2530:2583   */\n      tag_413\n        /* \"#utility.yul\":2575:2582   */\n      dup5\n        /* \"#utility.yul\":2566:2572   */\n      dup3\n        /* \"#utility.yul\":2555:2564   */\n      dup6\n        /* \"#utility.yul\":2551:2573   */\n      add\n        /* \"#utility.yul\":2530:2583   */\n      tag_387\n      jump\t// in\n    tag_413:\n        /* \"#utility.yul\":2520:2583   */\n      swap2\n      pop\n        /* \"#utility.yul\":2476:2593   */\n      pop\n        /* \"#utility.yul\":2271:2600   */\n      swap3\n      swap2\n      pop\n      pop\n      jump\t// out\n        /* \"#utility.yul\":2606:2785   */\n    tag_414:\n        /* \"#utility.yul\":2675:2685   */\n      0x00\n        /* \"#utility.yul\":2696:2742   */\n      tag_416\n        /* \"#utility.yul\":2738:2741   */\n      dup4\n        /* \"#utility.yul\":2730:2736   */\n      dup4\n        /* \"#utility.yul\":2696:2742   */\n      tag_417\n      jump\t// in\n    tag_416:\n        /* \"#utility.yul\":2774:2778   */\n      0x20\n        /* \"#utility.yul\":2769:2772   */\n      dup4\n        /* \"#utility.yul\":2765:2779   */\n      add\n        /* \"#utility.yul\":2751:2779   */\n      swap1\n      pop\n        /* \"#utility.yul\":2606:2785   */\n      swap3\n      swap2\n      pop\n      pop\n      jump\t// out\n        /* \"#utility.yul\":2791:2933   */\n    tag_418:\n        /* \"#utility.yul\":2894:2926   */\n      tag_420\n        /* \"#utility.yul\":2920:2925   */\n      dup2\n        /* \"#utility.yul\":2894:2926   */\n      tag_421\n      jump\t// in\n    tag_420:\n        /* \"#utility.yul\":2889:2892   */\n      dup3\n        /* \"#utility.yul\":2882:2927   */\n      mstore\n        /* \"#utility.yul\":2791:2933   */\n      pop\n      pop\n      jump\t// out\n        /* \"#utility.yul\":2939:3128   */\n    tag_422:\n        /* \"#utility.yul\":3060:3121   */\n      tag_424\n        /* \"#utility.yul\":3088:3120   */\n      tag_425\n        /* \"#utility.yul\":3114:3119   */\n      dup3\n        /* \"#utility.yul\":3088:3120   */\n      tag_421\n      jump\t// in\n    tag_425:\n        /* \"#utility.yul\":3060:3121   */\n      tag_426\n      jump\t// in\n    tag_424:\n        /* \"#utility.yul\":3055:3058   */\n      dup3\n        /* \"#utility.yul\":3048:3122   */\n      mstore\n        /* \"#utility.yul\":2939:3128   */\n      pop\n      pop\n      jump\t// out\n        /* \"#utility.yul\":3134:3252   */\n    tag_427:\n        /* \"#utility.yul\":3221:3245   */\n      tag_429\n        /* \"#utility.yul\":3239:3244   */\n      dup2\n        /* \"#utility.yul\":3221:3245   */\n      tag_430\n      jump\t// in\n    tag_429:\n        /* \"#utility.yul\":3216:3219   */\n      dup3\n        /* \"#utility.yul\":3209:3246   */\n      mstore\n        /* \"#utility.yul\":3134:3252   */\n      pop\n      pop\n      jump\t// out\n        /* \"#utility.yul\":3258:3415   */\n    tag_431:\n        /* \"#utility.yul\":3363:3408   */\n      tag_433\n        /* \"#utility.yul\":3383:3407   */\n      tag_434\n        /* \"#utility.yul\":3401:3406   */\n      dup3\n        /* \"#utility.yul\":3383:3407   */\n      tag_430\n      jump\t// in\n    tag_434:\n        /* \"#utility.yul\":3363:3408   */\n      tag_435\n      jump\t// in\n    tag_433:\n        /* \"#utility.yul\":3358:3361   */\n      dup3\n        /* \"#utility.yul\":3351:3409   */\n      mstore\n        /* \"#utility.yul\":3258:3415   */\n      pop\n      pop\n      jump\t// out\n        /* \"#utility.yul\":3451:4183   */\n    tag_436:\n        /* \"#utility.yul\":3570:3573   */\n      0x00\n        /* \"#utility.yul\":3599:3653   */\n      tag_438\n        /* \"#utility.yul\":3647:3652   */\n      dup3\n        /* \"#utility.yul\":3599:3653   */\n      tag_439\n      jump\t// in\n    tag_438:\n        /* \"#utility.yul\":3669:3755   */\n      tag_440\n        /* \"#utility.yul\":3748:3754   */\n      dup2\n        /* \"#utility.yul\":3743:3746   */\n      dup6\n        /* \"#utility.yul\":3669:3755   */\n      tag_441\n      jump\t// in\n    tag_440:\n        /* \"#utility.yul\":3662:3755   */\n      swap4\n      pop\n        /* \"#utility.yul\":3779:3835   */\n      tag_442\n        /* \"#utility.yul\":3829:3834   */\n      dup4\n        /* \"#utility.yul\":3779:3835   */\n      tag_443\n      jump\t// in\n    tag_442:\n        /* \"#utility.yul\":3858:3865   */\n      dup1\n        /* \"#utility.yul\":3889:3890   */\n      0x00\n        /* \"#utility.yul\":3874:4158   */\n    tag_444:\n        /* \"#utility.yul\":3899:3905   */\n      dup4\n        /* \"#utility.yul\":3896:3897   */\n      dup2\n        /* \"#utility.yul\":3893:3906   */\n      lt\n        /* \"#utility.yul\":3874:4158   */\n      iszero\n      tag_446\n      jumpi\n        /* \"#utility.yul\":3975:3981   */\n      dup2\n        /* \"#utility.yul\":3969:3982   */\n      mload\n        /* \"#utility.yul\":4002:4065   */\n      tag_447\n        /* \"#utility.yul\":4061:4064   */\n      dup9\n        /* \"#utility.yul\":4046:4059   */\n      dup3\n        /* \"#utility.yul\":4002:4065   */\n      tag_414\n      jump\t// in\n    tag_447:\n        /* \"#utility.yul\":3995:4065   */\n      swap8\n      pop\n        /* \"#utility.yul\":4088:4148   */\n      tag_448\n        /* \"#utility.yul\":4141:4147   */\n      dup4\n        /* \"#utility.yul\":4088:4148   */\n      tag_449\n      jump\t// in\n    tag_448:\n        /* \"#utility.yul\":4078:4148   */\n      swap3\n      pop\n        /* \"#utility.yul\":3934:4158   */\n      pop\n        /* \"#utility.yul\":3921:3922   */\n      0x01\n        /* \"#utility.yul\":3918:3919   */\n      dup2\n        /* \"#utility.yul\":3914:3923   */\n      add\n        /* \"#utility.yul\":3909:3923   */\n      swap1\n      pop\n        /* \"#utility.yul\":3874:4158   */\n      jump(tag_444)\n    tag_446:\n        /* \"#utility.yul\":3878:3892   */\n      pop\n        /* \"#utility.yul\":4174:4177   */\n      dup6\n        /* \"#utility.yul\":4167:4177   */\n      swap4\n      pop\n        /* \"#utility.yul\":3575:4183   */\n      pop\n      pop\n      pop\n        /* \"#utility.yul\":3451:4183   */\n      swap3\n      swap2\n      pop\n      pop\n      jump\t// out\n        /* \"#utility.yul\":4189:4298   */\n    tag_450:\n        /* \"#utility.yul\":4270:4291   */\n      tag_452\n        /* \"#utility.yul\":4285:4290   */\n      dup2\n        /* \"#utility.yul\":4270:4291   */\n      tag_453\n      jump\t// in\n    tag_452:\n        /* \"#utility.yul\":4265:4268   */\n      dup3\n        /* \"#utility.yul\":4258:4292   */\n      mstore\n        /* \"#utility.yul\":4189:4298   */\n      pop\n      pop\n      jump\t// out\n        /* \"#utility.yul\":4304:4668   */\n    tag_454:\n        /* \"#utility.yul\":4392:4395   */\n      0x00\n        /* \"#utility.yul\":4420:4459   */\n      tag_456\n        /* \"#utility.yul\":4453:4458   */\n      dup3\n        /* \"#utility.yul\":4420:4459   */\n      tag_457\n      jump\t// in\n    tag_456:\n        /* \"#utility.yul\":4475:4546   */\n      tag_458\n        /* \"#utility.yul\":4539:4545   */\n      dup2\n        /* \"#utility.yul\":4534:4537   */\n      dup6\n        /* \"#utility.yul\":4475:4546   */\n      tag_459\n      jump\t// in\n    tag_458:\n        /* \"#utility.yul\":4468:4546   */\n      swap4\n      pop\n        /* \"#utility.yul\":4555:4607   */\n      tag_460\n        /* \"#utility.yul\":4600:4606   */\n      dup2\n        /* \"#utility.yul\":4595:4598   */\n      dup6\n        /* \"#utility.yul\":4588:4592   */\n      0x20\n        /* \"#utility.yul\":4581:4586   */\n      dup7\n        /* \"#utility.yul\":4577:4593   */\n      add\n        /* \"#utility.yul\":4555:4607   */\n      tag_461\n      jump\t// in\n    tag_460:\n        /* \"#utility.yul\":4632:4661   */\n      tag_462\n        /* \"#utility.yul\":4654:4660   */\n      dup2\n        /* \"#utility.yul\":4632:4661   */\n      tag_463\n      jump\t// in\n    tag_462:\n        /* \"#utility.yul\":4627:4630   */\n      dup5\n        /* \"#utility.yul\":4623:4662   */\n      add\n        /* \"#utility.yul\":4616:4662   */\n      swap2\n      pop\n        /* \"#utility.yul\":4396:4668   */\n      pop\n        /* \"#utility.yul\":4304:4668   */\n      swap3\n      swap2\n      pop\n      pop\n      jump\t// out\n        /* \"#utility.yul\":4674:5051   */\n    tag_464:\n        /* \"#utility.yul\":4780:4783   */\n      0x00\n        /* \"#utility.yul\":4808:4847   */\n      tag_466\n        /* \"#utility.yul\":4841:4846   */\n      dup3\n        /* \"#utility.yul\":4808:4847   */\n      tag_457\n      jump\t// in\n    tag_466:\n        /* \"#utility.yul\":4863:4952   */\n      tag_467\n        /* \"#utility.yul\":4945:4951   */\n      dup2\n        /* \"#utility.yul\":4940:4943   */\n      dup6\n        /* \"#utility.yul\":4863:4952   */\n      tag_468\n      jump\t// in\n    tag_467:\n        /* \"#utility.yul\":4856:4952   */\n      swap4\n      pop\n        /* \"#utility.yul\":4961:5013   */\n      tag_469\n        /* \"#utility.yul\":5006:5012   */\n      dup2\n        /* \"#utility.yul\":5001:5004   */\n      dup6\n        /* \"#utility.yul\":4994:4998   */\n      0x20\n        /* \"#utility.yul\":4987:4992   */\n      dup7\n        /* \"#utility.yul\":4983:4999   */\n      add\n        /* \"#utility.yul\":4961:5013   */\n      tag_461\n      jump\t// in\n    tag_469:\n        /* \"#utility.yul\":5038:5044   */\n      dup1\n        /* \"#utility.yul\":5033:5036   */\n      dup5\n        /* \"#utility.yul\":5029:5045   */\n      add\n        /* \"#utility.yul\":5022:5045   */\n      swap2\n      pop\n        /* \"#utility.yul\":4784:5051   */\n      pop\n        /* \"#utility.yul\":4674:5051   */\n      swap3\n      swap2\n      pop\n      pop\n      jump\t// out\n        /* \"#utility.yul\":5057:5423   */\n    tag_470:\n        /* \"#utility.yul\":5199:5202   */\n      0x00\n        /* \"#utility.yul\":5220:5287   */\n      tag_472\n        /* \"#utility.yul\":5284:5286   */\n      0x34\n        /* \"#utility.yul\":5279:5282   */\n      dup4\n        /* \"#utility.yul\":5220:5287   */\n      tag_459\n      jump\t// in\n    tag_472:\n        /* \"#utility.yul\":5213:5287   */\n      swap2\n      pop\n        /* \"#utility.yul\":5296:5389   */\n      tag_473\n        /* \"#utility.yul\":5385:5388   */\n      dup3\n        /* \"#utility.yul\":5296:5389   */\n      tag_474\n      jump\t// in\n    tag_473:\n        /* \"#utility.yul\":5414:5416   */\n      0x40\n        /* \"#utility.yul\":5409:5412   */\n      dup3\n        /* \"#utility.yul\":5405:5417   */\n      add\n        /* \"#utility.yul\":5398:5417   */\n      swap1\n      pop\n        /* \"#utility.yul\":5057:5423   */\n      swap2\n      swap1\n      pop\n      jump\t// out\n        /* \"#utility.yul\":5429:5795   */\n    tag_475:\n        /* \"#utility.yul\":5571:5574   */\n      0x00\n        /* \"#utility.yul\":5592:5659   */\n      tag_477\n        /* \"#utility.yul\":5656:5658   */\n      0x28\n        /* \"#utility.yul\":5651:5654   */\n      dup4\n        /* \"#utility.yul\":5592:5659   */\n      tag_459\n      jump\t// in\n    tag_477:\n        /* \"#utility.yul\":5585:5659   */\n      swap2\n      pop\n        /* \"#utility.yul\":5668:5761   */\n      tag_478\n        /* \"#utility.yul\":5757:5760   */\n      dup3\n        /* \"#utility.yul\":5668:5761   */\n      tag_479\n      jump\t// in\n    tag_478:\n        /* \"#utility.yul\":5786:5788   */\n      0x40\n        /* \"#utility.yul\":5781:5784   */\n      dup3\n        /* \"#utility.yul\":5777:5789   */\n      add\n        /* \"#utility.yul\":5770:5789   */\n      swap1\n      pop\n        /* \"#utility.yul\":5429:5795   */\n      swap2\n      swap1\n      pop\n      jump\t// out\n        /* \"#utility.yul\":5801:6167   */\n    tag_480:\n        /* \"#utility.yul\":5943:5946   */\n      0x00\n        /* \"#utility.yul\":5964:6031   */\n      tag_482\n        /* \"#utility.yul\":6028:6030   */\n      0x19\n        /* \"#utility.yul\":6023:6026   */\n      dup4\n        /* \"#utility.yul\":5964:6031   */\n      tag_459\n      jump\t// in\n    tag_482:\n        /* \"#utility.yul\":5957:6031   */\n      swap2\n      pop\n        /* \"#utility.yul\":6040:6133   */\n      tag_483\n        /* \"#utility.yul\":6129:6132   */\n      dup3\n        /* \"#utility.yul\":6040:6133   */\n      tag_484\n      jump\t// in\n    tag_483:\n        /* \"#utility.yul\":6158:6160   */\n      0x20\n        /* \"#utility.yul\":6153:6156   */\n      dup3\n        /* \"#utility.yul\":6149:6161   */\n      add\n        /* \"#utility.yul\":6142:6161   */\n      swap1\n      pop\n        /* \"#utility.yul\":5801:6167   */\n      swap2\n      swap1\n      pop\n      jump\t// out\n        /* \"#utility.yul\":6173:6573   */\n    tag_485:\n        /* \"#utility.yul\":6333:6336   */\n      0x00\n        /* \"#utility.yul\":6354:6438   */\n      tag_487\n        /* \"#utility.yul\":6436:6437   */\n      0x08\n        /* \"#utility.yul\":6431:6434   */\n      dup4\n        /* \"#utility.yul\":6354:6438   */\n      tag_468\n      jump\t// in\n    tag_487:\n        /* \"#utility.yul\":6347:6438   */\n      swap2\n      pop\n        /* \"#utility.yul\":6447:6540   */\n      tag_488\n        /* \"#utility.yul\":6536:6539   */\n      dup3\n        /* \"#utility.yul\":6447:6540   */\n      tag_489\n      jump\t// in\n    tag_488:\n        /* \"#utility.yul\":6565:6566   */\n      0x08\n        /* \"#utility.yul\":6560:6563   */\n      dup3\n        /* \"#utility.yul\":6556:6567   */\n      add\n        /* \"#utility.yul\":6549:6567   */\n      swap1\n      pop\n        /* \"#utility.yul\":6173:6573   */\n      swap2\n      swap1\n      pop\n      jump\t// out\n        /* \"#utility.yul\":6579:6945   */\n    tag_490:\n        /* \"#utility.yul\":6721:6724   */\n      0x00\n        /* \"#utility.yul\":6742:6809   */\n      tag_492\n        /* \"#utility.yul\":6806:6808   */\n      0x10\n        /* \"#utility.yul\":6801:6804   */\n      dup4\n        /* \"#utility.yul\":6742:6809   */\n      tag_459\n      jump\t// in\n    tag_492:\n        /* \"#utility.yul\":6735:6809   */\n      swap2\n      pop\n        /* \"#utility.yul\":6818:6911   */\n      tag_493\n        /* \"#utility.yul\":6907:6910   */\n      dup3\n        /* \"#utility.yul\":6818:6911   */\n      tag_494\n      jump\t// in\n    tag_493:\n        /* \"#utility.yul\":6936:6938   */\n      0x20\n        /* \"#utility.yul\":6931:6934   */\n      dup3\n        /* \"#utility.yul\":6927:6939   */\n      add\n        /* \"#utility.yul\":6920:6939   */\n      swap1\n      pop\n        /* \"#utility.yul\":6579:6945   */\n      swap2\n      swap1\n      pop\n      jump\t// out\n        /* \"#utility.yul\":6951:7351   */\n    tag_495:\n        /* \"#utility.yul\":7111:7114   */\n      0x00\n        /* \"#utility.yul\":7132:7216   */\n      tag_497\n        /* \"#utility.yul\":7214:7215   */\n      0x05\n        /* \"#utility.yul\":7209:7212   */\n      dup4\n        /* \"#utility.yul\":7132:7216   */\n      tag_468\n      jump\t// in\n    tag_497:\n        /* \"#utility.yul\":7125:7216   */\n      swap2\n      pop\n        /* \"#utility.yul\":7225:7318   */\n      tag_498\n        /* \"#utility.yul\":7314:7317   */\n      dup3\n        /* \"#utility.yul\":7225:7318   */\n      tag_499\n      jump\t// in\n    tag_498:\n        /* \"#utility.yul\":7343:7344   */\n      0x05\n        /* \"#utility.yul\":7338:7341   */\n      dup3\n        /* \"#utility.yul\":7334:7345   */\n      add\n        /* \"#utility.yul\":7327:7345   */\n      swap1\n      pop\n        /* \"#utility.yul\":6951:7351   */\n      swap2\n      swap1\n      pop\n      jump\t// out\n        /* \"#utility.yul\":7357:7723   */\n    tag_500:\n        /* \"#utility.yul\":7499:7502   */\n      0x00\n        /* \"#utility.yul\":7520:7587   */\n      tag_502\n        /* \"#utility.yul\":7584:7586   */\n      0x12\n        /* \"#utility.yul\":7579:7582   */\n      dup4\n        /* \"#utility.yul\":7520:7587   */\n      tag_459\n      jump\t// in\n    tag_502:\n        /* \"#utility.yul\":7513:7587   */\n      swap2\n      pop\n        /* \"#utility.yul\":7596:7689   */\n      tag_503\n        /* \"#utility.yul\":7685:7688   */\n      dup3\n        /* \"#utility.yul\":7596:7689   */\n      tag_504\n      jump\t// in\n    tag_503:\n        /* \"#utility.yul\":7714:7716   */\n      0x20\n        /* \"#utility.yul\":7709:7712   */\n      dup3\n        /* \"#utility.yul\":7705:7717   */\n      add\n        /* \"#utility.yul\":7698:7717   */\n      swap1\n      pop\n        /* \"#utility.yul\":7357:7723   */\n      swap2\n      swap1\n      pop\n      jump\t// out\n        /* \"#utility.yul\":7729:8095   */\n    tag_505:\n        /* \"#utility.yul\":7871:7874   */\n      0x00\n        /* \"#utility.yul\":7892:7959   */\n      tag_507\n        /* \"#utility.yul\":7956:7958   */\n      0x1b\n        /* \"#utility.yul\":7951:7954   */\n      dup4\n        /* \"#utility.yul\":7892:7959   */\n      tag_459\n      jump\t// in\n    tag_507:\n        /* \"#utility.yul\":7885:7959   */\n      swap2\n      pop\n        /* \"#utility.yul\":7968:8061   */\n      tag_508\n        /* \"#utility.yul\":8057:8060   */\n      dup3\n        /* \"#utility.yul\":7968:8061   */\n      tag_509\n      jump\t// in\n    tag_508:\n        /* \"#utility.yul\":8086:8088   */\n      0x20\n        /* \"#utility.yul\":8081:8084   */\n      dup3\n        /* \"#utility.yul\":8077:8089   */\n      add\n        /* \"#utility.yul\":8070:8089   */\n      swap1\n      pop\n        /* \"#utility.yul\":7729:8095   */\n      swap2\n      swap1\n      pop\n      jump\t// out\n        /* \"#utility.yul\":8101:8467   */\n    tag_510:\n        /* \"#utility.yul\":8243:8246   */\n      0x00\n        /* \"#utility.yul\":8264:8331   */\n      tag_512\n        /* \"#utility.yul\":8328:8330   */\n      0x1b\n        /* \"#utility.yul\":8323:8326   */\n      dup4\n        /* \"#utility.yul\":8264:8331   */\n      tag_459\n      jump\t// in\n    tag_512:\n        /* \"#utility.yul\":8257:8331   */\n      swap2\n      pop\n        /* \"#utility.yul\":8340:8433   */\n      tag_513\n        /* \"#utility.yul\":8429:8432   */\n      dup3\n        /* \"#utility.yul\":8340:8433   */\n      tag_514\n      jump\t// in\n    tag_513:\n        /* \"#utility.yul\":8458:8460   */\n      0x20\n        /* \"#utility.yul\":8453:8456   */\n      dup3\n        /* \"#utility.yul\":8449:8461   */\n      add\n        /* \"#utility.yul\":8442:8461   */\n      swap1\n      pop\n        /* \"#utility.yul\":8101:8467   */\n      swap2\n      swap1\n      pop\n      jump\t// out\n        /* \"#utility.yul\":8473:8839   */\n    tag_515:\n        /* \"#utility.yul\":8615:8618   */\n      0x00\n        /* \"#utility.yul\":8636:8703   */\n      tag_517\n        /* \"#utility.yul\":8700:8702   */\n      0x15\n        /* \"#utility.yul\":8695:8698   */\n      dup4\n        /* \"#utility.yul\":8636:8703   */\n      tag_459\n      jump\t// in\n    tag_517:\n        /* \"#utility.yul\":8629:8703   */\n      swap2\n      pop\n        /* \"#utility.yul\":8712:8805   */\n      tag_518\n        /* \"#utility.yul\":8801:8804   */\n      dup3\n        /* \"#utility.yul\":8712:8805   */\n      tag_519\n      jump\t// in\n    tag_518:\n        /* \"#utility.yul\":8830:8832   */\n      0x20\n        /* \"#utility.yul\":8825:8828   */\n      dup3\n        /* \"#utility.yul\":8821:8833   */\n      add\n        /* \"#utility.yul\":8814:8833   */\n      swap1\n      pop\n        /* \"#utility.yul\":8473:8839   */\n      swap2\n      swap1\n      pop\n      jump\t// out\n        /* \"#utility.yul\":8845:9211   */\n    tag_520:\n        /* \"#utility.yul\":8987:8990   */\n      0x00\n        /* \"#utility.yul\":9008:9075   */\n      tag_522\n        /* \"#utility.yul\":9072:9074   */\n      0x1c\n        /* \"#utility.yul\":9067:9070   */\n      dup4\n        /* \"#utility.yul\":9008:9075   */\n      tag_459\n      jump\t// in\n    tag_522:\n        /* \"#utility.yul\":9001:9075   */\n      swap2\n      pop\n        /* \"#utility.yul\":9084:9177   */\n      tag_523\n        /* \"#utility.yul\":9173:9176   */\n      dup3\n        /* \"#utility.yul\":9084:9177   */\n      tag_524\n      jump\t// in\n    tag_523:\n        /* \"#utility.yul\":9202:9204   */\n      0x20\n        /* \"#utility.yul\":9197:9200   */\n      dup3\n        /* \"#utility.yul\":9193:9205   */\n      add\n        /* \"#utility.yul\":9186:9205   */\n      swap1\n      pop\n        /* \"#utility.yul\":8845:9211   */\n      swap2\n      swap1\n      pop\n      jump\t// out\n        /* \"#utility.yul\":9217:9583   */\n    tag_525:\n        /* \"#utility.yul\":9359:9362   */\n      0x00\n        /* \"#utility.yul\":9380:9447   */\n      tag_527\n        /* \"#utility.yul\":9444:9446   */\n      0x1f\n        /* \"#utility.yul\":9439:9442   */\n      dup4\n        /* \"#utility.yul\":9380:9447   */\n      tag_459\n      jump\t// in\n    tag_527:\n        /* \"#utility.yul\":9373:9447   */\n      swap2\n      pop\n        /* \"#utility.yul\":9456:9549   */\n      tag_528\n        /* \"#utility.yul\":9545:9548   */\n      dup3\n        /* \"#utility.yul\":9456:9549   */\n      tag_529\n      jump\t// in\n    tag_528:\n        /* \"#utility.yul\":9574:9576   */\n      0x20\n        /* \"#utility.yul\":9569:9572   */\n      dup3\n        /* \"#utility.yul\":9565:9577   */\n      add\n        /* \"#utility.yul\":9558:9577   */\n      swap1\n      pop\n        /* \"#utility.yul\":9217:9583   */\n      swap2\n      swap1\n      pop\n      jump\t// out\n        /* \"#utility.yul\":9589:9955   */\n    tag_530:\n        /* \"#utility.yul\":9731:9734   */\n      0x00\n        /* \"#utility.yul\":9752:9819   */\n      tag_532\n        /* \"#utility.yul\":9816:9818   */\n      0x1b\n        /* \"#utility.yul\":9811:9814   */\n      dup4\n        /* \"#utility.yul\":9752:9819   */\n      tag_459\n      jump\t// in\n    tag_532:\n        /* \"#utility.yul\":9745:9819   */\n      swap2\n      pop\n        /* \"#utility.yul\":9828:9921   */\n      tag_533\n        /* \"#utility.yul\":9917:9920   */\n      dup3\n        /* \"#utility.yul\":9828:9921   */\n      tag_534\n      jump\t// in\n    tag_533:\n        /* \"#utility.yul\":9946:9948   */\n      0x20\n        /* \"#utility.yul\":9941:9944   */\n      dup3\n        /* \"#utility.yul\":9937:9949   */\n      add\n        /* \"#utility.yul\":9930:9949   */\n      swap1\n      pop\n        /* \"#utility.yul\":9589:9955   */\n      swap2\n      swap1\n      pop\n      jump\t// out\n        /* \"#utility.yul\":9961:10327   */\n    tag_535:\n        /* \"#utility.yul\":10103:10106   */\n      0x00\n        /* \"#utility.yul\":10124:10191   */\n      tag_537\n        /* \"#utility.yul\":10188:10190   */\n      0x19\n        /* \"#utility.yul\":10183:10186   */\n      dup4\n        /* \"#utility.yul\":10124:10191   */\n      tag_459\n      jump\t// in\n    tag_537:\n        /* \"#utility.yul\":10117:10191   */\n      swap2\n      pop\n        /* \"#utility.yul\":10200:10293   */\n      tag_538\n        /* \"#utility.yul\":10289:10292   */\n      dup3\n        /* \"#utility.yul\":10200:10293   */\n      tag_539\n      jump\t// in\n    tag_538:\n        /* \"#utility.yul\":10318:10320   */\n      0x20\n        /* \"#utility.yul\":10313:10316   */\n      dup3\n        /* \"#utility.yul\":10309:10321   */\n      add\n        /* \"#utility.yul\":10302:10321   */\n      swap1\n      pop\n        /* \"#utility.yul\":9961:10327   */\n      swap2\n      swap1\n      pop\n      jump\t// out\n        /* \"#utility.yul\":10333:10733   */\n    tag_540:\n        /* \"#utility.yul\":10493:10496   */\n      0x00\n        /* \"#utility.yul\":10514:10598   */\n      tag_542\n        /* \"#utility.yul\":10596:10597   */\n      0x07\n        /* \"#utility.yul\":10591:10594   */\n      dup4\n        /* \"#utility.yul\":10514:10598   */\n      tag_468\n      jump\t// in\n    tag_542:\n        /* \"#utility.yul\":10507:10598   */\n      swap2\n      pop\n        /* \"#utility.yul\":10607:10700   */\n      tag_543\n        /* \"#utility.yul\":10696:10699   */\n      dup3\n        /* \"#utility.yul\":10607:10700   */\n      tag_544\n      jump\t// in\n    tag_543:\n        /* \"#utility.yul\":10725:10726   */\n      0x07\n        /* \"#utility.yul\":10720:10723   */\n      dup3\n        /* \"#utility.yul\":10716:10727   */\n      add\n        /* \"#utility.yul\":10709:10727   */\n      swap1\n      pop\n        /* \"#utility.yul\":10333:10733   */\n      swap2\n      swap1\n      pop\n      jump\t// out\n        /* \"#utility.yul\":10739:11105   */\n    tag_545:\n        /* \"#utility.yul\":10881:10884   */\n      0x00\n        /* \"#utility.yul\":10902:10969   */\n      tag_547\n        /* \"#utility.yul\":10966:10968   */\n      0x21\n        /* \"#utility.yul\":10961:10964   */\n      dup4\n        /* \"#utility.yul\":10902:10969   */\n      tag_459\n      jump\t// in\n    tag_547:\n        /* \"#utility.yul\":10895:10969   */\n      swap2\n      pop\n        /* \"#utility.yul\":10978:11071   */\n      tag_548\n        /* \"#utility.yul\":11067:11070   */\n      dup3\n        /* \"#utility.yul\":10978:11071   */\n      tag_549\n      jump\t// in\n    tag_548:\n        /* \"#utility.yul\":11096:11098   */\n      0x40\n        /* \"#utility.yul\":11091:11094   */\n      dup3\n        /* \"#utility.yul\":11087:11099   */\n      add\n        /* \"#utility.yul\":11080:11099   */\n      swap1\n      pop\n        /* \"#utility.yul\":10739:11105   */\n      swap2\n      swap1\n      pop\n      jump\t// out\n        /* \"#utility.yul\":11111:11219   */\n    tag_417:\n        /* \"#utility.yul\":11188:11212   */\n      tag_551\n        /* \"#utility.yul\":11206:11211   */\n      dup2\n        /* \"#utility.yul\":11188:11212   */\n      tag_552\n      jump\t// in\n    tag_551:\n        /* \"#utility.yul\":11183:11186   */\n      dup3\n        /* \"#utility.yul\":11176:11213   */\n      mstore\n        /* \"#utility.yul\":11111:11219   */\n      pop\n      pop\n      jump\t// out\n        /* \"#utility.yul\":11225:11343   */\n    tag_553:\n        /* \"#utility.yul\":11312:11336   */\n      tag_555\n        /* \"#utility.yul\":11330:11335   */\n      dup2\n        /* \"#utility.yul\":11312:11336   */\n      tag_552\n      jump\t// in\n    tag_555:\n        /* \"#utility.yul\":11307:11310   */\n      dup3\n        /* \"#utility.yul\":11300:11337   */\n      mstore\n        /* \"#utility.yul\":11225:11343   */\n      pop\n      pop\n      jump\t// out\n        /* \"#utility.yul\":11349:11506   */\n    tag_556:\n        /* \"#utility.yul\":11454:11499   */\n      tag_558\n        /* \"#utility.yul\":11474:11498   */\n      tag_559\n        /* \"#utility.yul\":11492:11497   */\n      dup3\n        /* \"#utility.yul\":11474:11498   */\n      tag_552\n      jump\t// in\n    tag_559:\n        /* \"#utility.yul\":11454:11499   */\n      tag_560\n      jump\t// in\n    tag_558:\n        /* \"#utility.yul\":11449:11452   */\n      dup3\n        /* \"#utility.yul\":11442:11500   */\n      mstore\n        /* \"#utility.yul\":11349:11506   */\n      pop\n      pop\n      jump\t// out\n        /* \"#utility.yul\":11512:12053   */\n    tag_261:\n        /* \"#utility.yul\":11745:11748   */\n      0x00\n        /* \"#utility.yul\":11767:11915   */\n      tag_562\n        /* \"#utility.yul\":11911:11914   */\n      dup3\n        /* \"#utility.yul\":11767:11915   */\n      tag_485\n      jump\t// in\n    tag_562:\n        /* \"#utility.yul\":11760:11915   */\n      swap2\n      pop\n        /* \"#utility.yul\":11932:12027   */\n      tag_563\n        /* \"#utility.yul\":12023:12026   */\n      dup3\n        /* \"#utility.yul\":12014:12020   */\n      dup5\n        /* \"#utility.yul\":11932:12027   */\n      tag_464\n      jump\t// in\n    tag_563:\n        /* \"#utility.yul\":11925:12027   */\n      swap2\n      pop\n        /* \"#utility.yul\":12044:12047   */\n      dup2\n        /* \"#utility.yul\":12037:12047   */\n      swap1\n      pop\n        /* \"#utility.yul\":11512:12053   */\n      swap3\n      swap2\n      pop\n      pop\n      jump\t// out\n        /* \"#utility.yul\":12059:12600   */\n    tag_271:\n        /* \"#utility.yul\":12292:12295   */\n      0x00\n        /* \"#utility.yul\":12314:12462   */\n      tag_565\n        /* \"#utility.yul\":12458:12461   */\n      dup3\n        /* \"#utility.yul\":12314:12462   */\n      tag_495\n      jump\t// in\n    tag_565:\n        /* \"#utility.yul\":12307:12462   */\n      swap2\n      pop\n        /* \"#utility.yul\":12479:12574   */\n      tag_566\n        /* \"#utility.yul\":12570:12573   */\n      dup3\n        /* \"#utility.yul\":12561:12567   */\n      dup5\n        /* \"#utility.yul\":12479:12574   */\n      tag_464\n      jump\t// in\n    tag_566:\n        /* \"#utility.yul\":12472:12574   */\n      swap2\n      pop\n        /* \"#utility.yul\":12591:12594   */\n      dup2\n        /* \"#utility.yul\":12584:12594   */\n      swap1\n      pop\n        /* \"#utility.yul\":12059:12600   */\n      swap3\n      swap2\n      pop\n      pop\n      jump\t// out\n        /* \"#utility.yul\":12606:13147   */\n    tag_280:\n        /* \"#utility.yul\":12839:12842   */\n      0x00\n        /* \"#utility.yul\":12861:13009   */\n      tag_568\n        /* \"#utility.yul\":13005:13008   */\n      dup3\n        /* \"#utility.yul\":12861:13009   */\n      tag_540\n      jump\t// in\n    tag_568:\n        /* \"#utility.yul\":12854:13009   */\n      swap2\n      pop\n        /* \"#utility.yul\":13026:13121   */\n      tag_569\n        /* \"#utility.yul\":13117:13120   */\n      dup3\n        /* \"#utility.yul\":13108:13114   */\n      dup5\n        /* \"#utility.yul\":13026:13121   */\n      tag_464\n      jump\t// in\n    tag_569:\n        /* \"#utility.yul\":13019:13121   */\n      swap2\n      pop\n        /* \"#utility.yul\":13138:13141   */\n      dup2\n        /* \"#utility.yul\":13131:13141   */\n      swap1\n      pop\n        /* \"#utility.yul\":12606:13147   */\n      swap3\n      swap2\n      pop\n      pop\n      jump\t// out\n        /* \"#utility.yul\":13153:13723   */\n    tag_248:\n        /* \"#utility.yul\":13337:13340   */\n      0x00\n        /* \"#utility.yul\":13352:13427   */\n      tag_571\n        /* \"#utility.yul\":13423:13426   */\n      dup3\n        /* \"#utility.yul\":13414:13420   */\n      dup7\n        /* \"#utility.yul\":13352:13427   */\n      tag_556\n      jump\t// in\n    tag_571:\n        /* \"#utility.yul\":13452:13454   */\n      0x20\n        /* \"#utility.yul\":13447:13450   */\n      dup3\n        /* \"#utility.yul\":13443:13455   */\n      add\n        /* \"#utility.yul\":13436:13455   */\n      swap2\n      pop\n        /* \"#utility.yul\":13465:13540   */\n      tag_572\n        /* \"#utility.yul\":13536:13539   */\n      dup3\n        /* \"#utility.yul\":13527:13533   */\n      dup6\n        /* \"#utility.yul\":13465:13540   */\n      tag_431\n      jump\t// in\n    tag_572:\n        /* \"#utility.yul\":13565:13567   */\n      0x14\n        /* \"#utility.yul\":13560:13563   */\n      dup3\n        /* \"#utility.yul\":13556:13568   */\n      add\n        /* \"#utility.yul\":13549:13568   */\n      swap2\n      pop\n        /* \"#utility.yul\":13578:13669   */\n      tag_573\n        /* \"#utility.yul\":13665:13668   */\n      dup3\n        /* \"#utility.yul\":13656:13662   */\n      dup5\n        /* \"#utility.yul\":13578:13669   */\n      tag_422\n      jump\t// in\n    tag_573:\n        /* \"#utility.yul\":13694:13696   */\n      0x14\n        /* \"#utility.yul\":13689:13692   */\n      dup3\n        /* \"#utility.yul\":13685:13697   */\n      add\n        /* \"#utility.yul\":13678:13697   */\n      swap2\n      pop\n        /* \"#utility.yul\":13714:13717   */\n      dup2\n        /* \"#utility.yul\":13707:13717   */\n      swap1\n      pop\n        /* \"#utility.yul\":13153:13723   */\n      swap5\n      swap4\n      pop\n      pop\n      pop\n      pop\n      jump\t// out\n        /* \"#utility.yul\":13729:13983   */\n    tag_79:\n        /* \"#utility.yul\":13838:13842   */\n      0x00\n        /* \"#utility.yul\":13876:13878   */\n      0x20\n        /* \"#utility.yul\":13865:13874   */\n      dup3\n        /* \"#utility.yul\":13861:13879   */\n      add\n        /* \"#utility.yul\":13853:13879   */\n      swap1\n      pop\n        /* \"#utility.yul\":13889:13976   */\n      tag_575\n        /* \"#utility.yul\":13973:13974   */\n      0x00\n        /* \"#utility.yul\":13962:13971   */\n      dup4\n        /* \"#utility.yul\":13958:13975   */\n      add\n        /* \"#utility.yul\":13949:13955   */\n      dup5\n        /* \"#utility.yul\":13889:13976   */\n      tag_418\n      jump\t// in\n    tag_575:\n        /* \"#utility.yul\":13729:13983   */\n      swap3\n      swap2\n      pop\n      pop\n      jump\t// out\n        /* \"#utility.yul\":13989:14744   */\n    tag_341:\n        /* \"#utility.yul\":14214:14218   */\n      0x00\n        /* \"#utility.yul\":14252:14255   */\n      0xa0\n        /* \"#utility.yul\":14241:14250   */\n      dup3\n        /* \"#utility.yul\":14237:14256   */\n      add\n        /* \"#utility.yul\":14229:14256   */\n      swap1\n      pop\n        /* \"#utility.yul\":14266:14337   */\n      tag_577\n        /* \"#utility.yul\":14334:14335   */\n      0x00\n        /* \"#utility.yul\":14323:14332   */\n      dup4\n        /* \"#utility.yul\":14319:14336   */\n      add\n        /* \"#utility.yul\":14310:14316   */\n      dup9\n        /* \"#utility.yul\":14266:14337   */\n      tag_427\n      jump\t// in\n    tag_577:\n        /* \"#utility.yul\":14347:14419   */\n      tag_578\n        /* \"#utility.yul\":14415:14417   */\n      0x20\n        /* \"#utility.yul\":14404:14413   */\n      dup4\n        /* \"#utility.yul\":14400:14418   */\n      add\n        /* \"#utility.yul\":14391:14397   */\n      dup8\n        /* \"#utility.yul\":14347:14419   */\n      tag_427\n      jump\t// in\n    tag_578:\n        /* \"#utility.yul\":14429:14501   */\n      tag_579\n        /* \"#utility.yul\":14497:14499   */\n      0x40\n        /* \"#utility.yul\":14486:14495   */\n      dup4\n        /* \"#utility.yul\":14482:14500   */\n      add\n        /* \"#utility.yul\":14473:14479   */\n      dup7\n        /* \"#utility.yul\":14429:14501   */\n      tag_553\n      jump\t// in\n    tag_579:\n        /* \"#utility.yul\":14511:14583   */\n      tag_580\n        /* \"#utility.yul\":14579:14581   */\n      0x60\n        /* \"#utility.yul\":14568:14577   */\n      dup4\n        /* \"#utility.yul\":14564:14582   */\n      add\n        /* \"#utility.yul\":14555:14561   */\n      dup6\n        /* \"#utility.yul\":14511:14583   */\n      tag_553\n      jump\t// in\n    tag_580:\n        /* \"#utility.yul\":14631:14640   */\n      dup2\n        /* \"#utility.yul\":14625:14629   */\n      dup2\n        /* \"#utility.yul\":14621:14641   */\n      sub\n        /* \"#utility.yul\":14615:14618   */\n      0x80\n        /* \"#utility.yul\":14604:14613   */\n      dup4\n        /* \"#utility.yul\":14600:14619   */\n      add\n        /* \"#utility.yul\":14593:14642   */\n      mstore\n        /* \"#utility.yul\":14659:14737   */\n      tag_581\n        /* \"#utility.yul\":14732:14736   */\n      dup2\n        /* \"#utility.yul\":14723:14729   */\n      dup5\n        /* \"#utility.yul\":14659:14737   */\n      tag_454\n      jump\t// in\n    tag_581:\n        /* \"#utility.yul\":14651:14737   */\n      swap1\n      pop\n        /* \"#utility.yul\":13989:14744   */\n      swap7\n      swap6\n      pop\n      pop\n      pop\n      pop\n      pop\n      pop\n      jump\t// out\n        /* \"#utility.yul\":14750:15123   */\n    tag_39:\n        /* \"#utility.yul\":14893:14897   */\n      0x00\n        /* \"#utility.yul\":14931:14933   */\n      0x20\n        /* \"#utility.yul\":14920:14929   */\n      dup3\n        /* \"#utility.yul\":14916:14934   */\n      add\n        /* \"#utility.yul\":14908:14934   */\n      swap1\n      pop\n        /* \"#utility.yul\":14980:14989   */\n      dup2\n        /* \"#utility.yul\":14974:14978   */\n      dup2\n        /* \"#utility.yul\":14970:14990   */\n      sub\n        /* \"#utility.yul\":14966:14967   */\n      0x00\n        /* \"#utility.yul\":14955:14964   */\n      dup4\n        /* \"#utility.yul\":14951:14968   */\n      add\n        /* \"#utility.yul\":14944:14991   */\n      mstore\n        /* \"#utility.yul\":15008:15116   */\n      tag_583\n        /* \"#utility.yul\":15111:15115   */\n      dup2\n        /* \"#utility.yul\":15102:15108   */\n      dup5\n        /* \"#utility.yul\":15008:15116   */\n      tag_436\n      jump\t// in\n    tag_583:\n        /* \"#utility.yul\":15000:15116   */\n      swap1\n      pop\n        /* \"#utility.yul\":14750:15123   */\n      swap3\n      swap2\n      pop\n      pop\n      jump\t// out\n        /* \"#utility.yul\":15129:15339   */\n    tag_74:\n        /* \"#utility.yul\":15216:15220   */\n      0x00\n        /* \"#utility.yul\":15254:15256   */\n      0x20\n        /* \"#utility.yul\":15243:15252   */\n      dup3\n        /* \"#utility.yul\":15239:15257   */\n      add\n        /* \"#utility.yul\":15231:15257   */\n      swap1\n      pop\n        /* \"#utility.yul\":15267:15332   */\n      tag_585\n        /* \"#utility.yul\":15329:15330   */\n      0x00\n        /* \"#utility.yul\":15318:15327   */\n      dup4\n        /* \"#utility.yul\":15314:15331   */\n      add\n        /* \"#utility.yul\":15305:15311   */\n      dup5\n        /* \"#utility.yul\":15267:15332   */\n      tag_450\n      jump\t// in\n    tag_585:\n        /* \"#utility.yul\":15129:15339   */\n      swap3\n      swap2\n      pop\n      pop\n      jump\t// out\n        /* \"#utility.yul\":15345:15658   */\n    tag_356:\n        /* \"#utility.yul\":15458:15462   */\n      0x00\n        /* \"#utility.yul\":15496:15498   */\n      0x20\n        /* \"#utility.yul\":15485:15494   */\n      dup3\n        /* \"#utility.yul\":15481:15499   */\n      add\n        /* \"#utility.yul\":15473:15499   */\n      swap1\n      pop\n        /* \"#utility.yul\":15545:15554   */\n      dup2\n        /* \"#utility.yul\":15539:15543   */\n      dup2\n        /* \"#utility.yul\":15535:15555   */\n      sub\n        /* \"#utility.yul\":15531:15532   */\n      0x00\n        /* \"#utility.yul\":15520:15529   */\n      dup4\n        /* \"#utility.yul\":15516:15533   */\n      add\n        /* \"#utility.yul\":15509:15556   */\n      mstore\n        /* \"#utility.yul\":15573:15651   */\n      tag_587\n        /* \"#utility.yul\":15646:15650   */\n      dup2\n        /* \"#utility.yul\":15637:15643   */\n      dup5\n        /* \"#utility.yul\":15573:15651   */\n      tag_454\n      jump\t// in\n    tag_587:\n        /* \"#utility.yul\":15565:15651   */\n      swap1\n      pop\n        /* \"#utility.yul\":15345:15658   */\n      swap3\n      swap2\n      pop\n      pop\n      jump\t// out\n        /* \"#utility.yul\":15664:16083   */\n    tag_358:\n        /* \"#utility.yul\":15830:15834   */\n      0x00\n        /* \"#utility.yul\":15868:15870   */\n      0x20\n        /* \"#utility.yul\":15857:15866   */\n      dup3\n        /* \"#utility.yul\":15853:15871   */\n      add\n        /* \"#utility.yul\":15845:15871   */\n      swap1\n      pop\n        /* \"#utility.yul\":15917:15926   */\n      dup2\n        /* \"#utility.yul\":15911:15915   */\n      dup2\n        /* \"#utility.yul\":15907:15927   */\n      sub\n        /* \"#utility.yul\":15903:15904   */\n      0x00\n        /* \"#utility.yul\":15892:15901   */\n      dup4\n        /* \"#utility.yul\":15888:15905   */\n      add\n        /* \"#utility.yul\":15881:15928   */\n      mstore\n        /* \"#utility.yul\":15945:16076   */\n      tag_589\n        /* \"#utility.yul\":16071:16075   */\n      dup2\n        /* \"#utility.yul\":15945:16076   */\n      tag_470\n      jump\t// in\n    tag_589:\n        /* \"#utility.yul\":15937:16076   */\n      swap1\n      pop\n        /* \"#utility.yul\":15664:16083   */\n      swap2\n      swap1\n      pop\n      jump\t// out\n        /* \"#utility.yul\":16089:16508   */\n    tag_362:\n        /* \"#utility.yul\":16255:16259   */\n      0x00\n        /* \"#utility.yul\":16293:16295   */\n      0x20\n        /* \"#utility.yul\":16282:16291   */\n      dup3\n        /* \"#utility.yul\":16278:16296   */\n      add\n        /* \"#utility.yul\":16270:16296   */\n      swap1\n      pop\n        /* \"#utility.yul\":16342:16351   */\n      dup2\n        /* \"#utility.yul\":16336:16340   */\n      dup2\n        /* \"#utility.yul\":16332:16352   */\n      sub\n        /* \"#utility.yul\":16328:16329   */\n      0x00\n        /* \"#utility.yul\":16317:16326   */\n      dup4\n        /* \"#utility.yul\":16313:16330   */\n      add\n        /* \"#utility.yul\":16306:16353   */\n      mstore\n        /* \"#utility.yul\":16370:16501   */\n      tag_591\n        /* \"#utility.yul\":16496:16500   */\n      dup2\n        /* \"#utility.yul\":16370:16501   */\n      tag_475\n      jump\t// in\n    tag_591:\n        /* \"#utility.yul\":16362:16501   */\n      swap1\n      pop\n        /* \"#utility.yul\":16089:16508   */\n      swap2\n      swap1\n      pop\n      jump\t// out\n        /* \"#utility.yul\":16514:16933   */\n    tag_107:\n        /* \"#utility.yul\":16680:16684   */\n      0x00\n        /* \"#utility.yul\":16718:16720   */\n      0x20\n        /* \"#utility.yul\":16707:16716   */\n      dup3\n        /* \"#utility.yul\":16703:16721   */\n      add\n        /* \"#utility.yul\":16695:16721   */\n      swap1\n      pop\n        /* \"#utility.yul\":16767:16776   */\n      dup2\n        /* \"#utility.yul\":16761:16765   */\n      dup2\n        /* \"#utility.yul\":16757:16777   */\n      sub\n        /* \"#utility.yul\":16753:16754   */\n      0x00\n        /* \"#utility.yul\":16742:16751   */\n      dup4\n        /* \"#utility.yul\":16738:16755   */\n      add\n        /* \"#utility.yul\":16731:16778   */\n      mstore\n        /* \"#utility.yul\":16795:16926   */\n      tag_593\n        /* \"#utility.yul\":16921:16925   */\n      dup2\n        /* \"#utility.yul\":16795:16926   */\n      tag_480\n      jump\t// in\n    tag_593:\n        /* \"#utility.yul\":16787:16926   */\n      swap1\n      pop\n        /* \"#utility.yul\":16514:16933   */\n      swap2\n      swap1\n      pop\n      jump\t// out\n        /* \"#utility.yul\":16939:17358   */\n    tag_134:\n        /* \"#utility.yul\":17105:17109   */\n      0x00\n        /* \"#utility.yul\":17143:17145   */\n      0x20\n        /* \"#utility.yul\":17132:17141   */\n      dup3\n        /* \"#utility.yul\":17128:17146   */\n      add\n        /* \"#utility.yul\":17120:17146   */\n      swap1\n      pop\n        /* \"#utility.yul\":17192:17201   */\n      dup2\n        /* \"#utility.yul\":17186:17190   */\n      dup2\n        /* \"#utility.yul\":17182:17202   */\n      sub\n        /* \"#utility.yul\":17178:17179   */\n      0x00\n        /* \"#utility.yul\":17167:17176   */\n      dup4\n        /* \"#utility.yul\":17163:17180   */\n      add\n        /* \"#utility.yul\":17156:17203   */\n      mstore\n        /* \"#utility.yul\":17220:17351   */\n      tag_595\n        /* \"#utility.yul\":17346:17350   */\n      dup2\n        /* \"#utility.yul\":17220:17351   */\n      tag_490\n      jump\t// in\n    tag_595:\n        /* \"#utility.yul\":17212:17351   */\n      swap1\n      pop\n        /* \"#utility.yul\":16939:17358   */\n      swap2\n      swap1\n      pop\n      jump\t// out\n        /* \"#utility.yul\":17364:17783   */\n    tag_139:\n        /* \"#utility.yul\":17530:17534   */\n      0x00\n        /* \"#utility.yul\":17568:17570   */\n      0x20\n        /* \"#utility.yul\":17557:17566   */\n      dup3\n        /* \"#utility.yul\":17553:17571   */\n      add\n        /* \"#utility.yul\":17545:17571   */\n      swap1\n      pop\n        /* \"#utility.yul\":17617:17626   */\n      dup2\n        /* \"#utility.yul\":17611:17615   */\n      dup2\n        /* \"#utility.yul\":17607:17627   */\n      sub\n        /* \"#utility.yul\":17603:17604   */\n      0x00\n        /* \"#utility.yul\":17592:17601   */\n      dup4\n        /* \"#utility.yul\":17588:17605   */\n      add\n        /* \"#utility.yul\":17581:17628   */\n      mstore\n        /* \"#utility.yul\":17645:17776   */\n      tag_597\n        /* \"#utility.yul\":17771:17775   */\n      dup2\n        /* \"#utility.yul\":17645:17776   */\n      tag_500\n      jump\t// in\n    tag_597:\n        /* \"#utility.yul\":17637:17776   */\n      swap1\n      pop\n        /* \"#utility.yul\":17364:17783   */\n      swap2\n      swap1\n      pop\n      jump\t// out\n        /* \"#utility.yul\":17789:18208   */\n    tag_99:\n        /* \"#utility.yul\":17955:17959   */\n      0x00\n        /* \"#utility.yul\":17993:17995   */\n      0x20\n        /* \"#utility.yul\":17982:17991   */\n      dup3\n        /* \"#utility.yul\":17978:17996   */\n      add\n        /* \"#utility.yul\":17970:17996   */\n      swap1\n      pop\n        /* \"#utility.yul\":18042:18051   */\n      dup2\n        /* \"#utility.yul\":18036:18040   */\n      dup2\n        /* \"#utility.yul\":18032:18052   */\n      sub\n        /* \"#utility.yul\":18028:18029   */\n      0x00\n        /* \"#utility.yul\":18017:18026   */\n      dup4\n        /* \"#utility.yul\":18013:18030   */\n      add\n        /* \"#utility.yul\":18006:18053   */\n      mstore\n        /* \"#utility.yul\":18070:18201   */\n      tag_599\n        /* \"#utility.yul\":18196:18200   */\n      dup2\n        /* \"#utility.yul\":18070:18201   */\n      tag_505\n      jump\t// in\n    tag_599:\n        /* \"#utility.yul\":18062:18201   */\n      swap1\n      pop\n        /* \"#utility.yul\":17789:18208   */\n      swap2\n      swap1\n      pop\n      jump\t// out\n        /* \"#utility.yul\":18214:18633   */\n    tag_206:\n        /* \"#utility.yul\":18380:18384   */\n      0x00\n        /* \"#utility.yul\":18418:18420   */\n      0x20\n        /* \"#utility.yul\":18407:18416   */\n      dup3\n        /* \"#utility.yul\":18403:18421   */\n      add\n        /* \"#utility.yul\":18395:18421   */\n      swap1\n      pop\n        /* \"#utility.yul\":18467:18476   */\n      dup2\n        /* \"#utility.yul\":18461:18465   */\n      dup2\n        /* \"#utility.yul\":18457:18477   */\n      sub\n        /* \"#utility.yul\":18453:18454   */\n      0x00\n        /* \"#utility.yul\":18442:18451   */\n      dup4\n        /* \"#utility.yul\":18438:18455   */\n      add\n        /* \"#utility.yul\":18431:18478   */\n      mstore\n        /* \"#utility.yul\":18495:18626   */\n      tag_601\n        /* \"#utility.yul\":18621:18625   */\n      dup2\n        /* \"#utility.yul\":18495:18626   */\n      tag_510\n      jump\t// in\n    tag_601:\n        /* \"#utility.yul\":18487:18626   */\n      swap1\n      pop\n        /* \"#utility.yul\":18214:18633   */\n      swap2\n      swap1\n      pop\n      jump\t// out\n        /* \"#utility.yul\":18639:19058   */\n    tag_128:\n        /* \"#utility.yul\":18805:18809   */\n      0x00\n        /* \"#utility.yul\":18843:18845   */\n      0x20\n        /* \"#utility.yul\":18832:18841   */\n      dup3\n        /* \"#utility.yul\":18828:18846   */\n      add\n        /* \"#utility.yul\":18820:18846   */\n      swap1\n      pop\n        /* \"#utility.yul\":18892:18901   */\n      dup2\n        /* \"#utility.yul\":18886:18890   */\n      dup2\n        /* \"#utility.yul\":18882:18902   */\n      sub\n        /* \"#utility.yul\":18878:18879   */\n      0x00\n        /* \"#utility.yul\":18867:18876   */\n      dup4\n        /* \"#utility.yul\":18863:18880   */\n      add\n        /* \"#utility.yul\":18856:18903   */\n      mstore\n        /* \"#utility.yul\":18920:19051   */\n      tag_603\n        /* \"#utility.yul\":19046:19050   */\n      dup2\n        /* \"#utility.yul\":18920:19051   */\n      tag_515\n      jump\t// in\n    tag_603:\n        /* \"#utility.yul\":18912:19051   */\n      swap1\n      pop\n        /* \"#utility.yul\":18639:19058   */\n      swap2\n      swap1\n      pop\n      jump\t// out\n        /* \"#utility.yul\":19064:19483   */\n    tag_95:\n        /* \"#utility.yul\":19230:19234   */\n      0x00\n        /* \"#utility.yul\":19268:19270   */\n      0x20\n        /* \"#utility.yul\":19257:19266   */\n      dup3\n        /* \"#utility.yul\":19253:19271   */\n      add\n        /* \"#utility.yul\":19245:19271   */\n      swap1\n      pop\n        /* \"#utility.yul\":19317:19326   */\n      dup2\n        /* \"#utility.yul\":19311:19315   */\n      dup2\n        /* \"#utility.yul\":19307:19327   */\n      sub\n        /* \"#utility.yul\":19303:19304   */\n      0x00\n        /* \"#utility.yul\":19292:19301   */\n      dup4\n        /* \"#utility.yul\":19288:19305   */\n      add\n        /* \"#utility.yul\":19281:19328   */\n      mstore\n        /* \"#utility.yul\":19345:19476   */\n      tag_605\n        /* \"#utility.yul\":19471:19475   */\n      dup2\n        /* \"#utility.yul\":19345:19476   */\n      tag_520\n      jump\t// in\n    tag_605:\n        /* \"#utility.yul\":19337:19476   */\n      swap1\n      pop\n        /* \"#utility.yul\":19064:19483   */\n      swap2\n      swap1\n      pop\n      jump\t// out\n        /* \"#utility.yul\":19489:19908   */\n    tag_123:\n        /* \"#utility.yul\":19655:19659   */\n      0x00\n        /* \"#utility.yul\":19693:19695   */\n      0x20\n        /* \"#utility.yul\":19682:19691   */\n      dup3\n        /* \"#utility.yul\":19678:19696   */\n      add\n        /* \"#utility.yul\":19670:19696   */\n      swap1\n      pop\n        /* \"#utility.yul\":19742:19751   */\n      dup2\n        /* \"#utility.yul\":19736:19740   */\n      dup2\n        /* \"#utility.yul\":19732:19752   */\n      sub\n        /* \"#utility.yul\":19728:19729   */\n      0x00\n        /* \"#utility.yul\":19717:19726   */\n      dup4\n        /* \"#utility.yul\":19713:19730   */\n      add\n        /* \"#utility.yul\":19706:19753   */\n      mstore\n        /* \"#utility.yul\":19770:19901   */\n      tag_607\n        /* \"#utility.yul\":19896:19900   */\n      dup2\n        /* \"#utility.yul\":19770:19901   */\n      tag_525\n      jump\t// in\n    tag_607:\n        /* \"#utility.yul\":19762:19901   */\n      swap1\n      pop\n        /* \"#utility.yul\":19489:19908   */\n      swap2\n      swap1\n      pop\n      jump\t// out\n        /* \"#utility.yul\":19914:20333   */\n    tag_113:\n        /* \"#utility.yul\":20080:20084   */\n      0x00\n        /* \"#utility.yul\":20118:20120   */\n      0x20\n        /* \"#utility.yul\":20107:20116   */\n      dup3\n        /* \"#utility.yul\":20103:20121   */\n      add\n        /* \"#utility.yul\":20095:20121   */\n      swap1\n      pop\n        /* \"#utility.yul\":20167:20176   */\n      dup2\n        /* \"#utility.yul\":20161:20165   */\n      dup2\n        /* \"#utility.yul\":20157:20177   */\n      sub\n        /* \"#utility.yul\":20153:20154   */\n      0x00\n        /* \"#utility.yul\":20142:20151   */\n      dup4\n        /* \"#utility.yul\":20138:20155   */\n      add\n        /* \"#utility.yul\":20131:20178   */\n      mstore\n        /* \"#utility.yul\":20195:20326   */\n      tag_609\n        /* \"#utility.yul\":20321:20325   */\n      dup2\n        /* \"#utility.yul\":20195:20326   */\n      tag_530\n      jump\t// in\n    tag_609:\n        /* \"#utility.yul\":20187:20326   */\n      swap1\n      pop\n        /* \"#utility.yul\":19914:20333   */\n      swap2\n      swap1\n      pop\n      jump\t// out\n        /* \"#utility.yul\":20339:20758   */\n    tag_131:\n        /* \"#utility.yul\":20505:20509   */\n      0x00\n        /* \"#utility.yul\":20543:20545   */\n      0x20\n        /* \"#utility.yul\":20532:20541   */\n      dup3\n        /* \"#utility.yul\":20528:20546   */\n      add\n        /* \"#utility.yul\":20520:20546   */\n      swap1\n      pop\n        /* \"#utility.yul\":20592:20601   */\n      dup2\n        /* \"#utility.yul\":20586:20590   */\n      dup2\n        /* \"#utility.yul\":20582:20602   */\n      sub\n        /* \"#utility.yul\":20578:20579   */\n      0x00\n        /* \"#utility.yul\":20567:20576   */\n      dup4\n        /* \"#utility.yul\":20563:20580   */\n      add\n        /* \"#utility.yul\":20556:20603   */\n      mstore\n        /* \"#utility.yul\":20620:20751   */\n      tag_611\n        /* \"#utility.yul\":20746:20750   */\n      dup2\n        /* \"#utility.yul\":20620:20751   */\n      tag_535\n      jump\t// in\n    tag_611:\n        /* \"#utility.yul\":20612:20751   */\n      swap1\n      pop\n        /* \"#utility.yul\":20339:20758   */\n      swap2\n      swap1\n      pop\n      jump\t// out\n        /* \"#utility.yul\":20764:21183   */\n    tag_296:\n        /* \"#utility.yul\":20930:20934   */\n      0x00\n        /* \"#utility.yul\":20968:20970   */\n      0x20\n        /* \"#utility.yul\":20957:20966   */\n      dup3\n        /* \"#utility.yul\":20953:20971   */\n      add\n        /* \"#utility.yul\":20945:20971   */\n      swap1\n      pop\n        /* \"#utility.yul\":21017:21026   */\n      dup2\n        /* \"#utility.yul\":21011:21015   */\n      dup2\n        /* \"#utility.yul\":21007:21027   */\n      sub\n        /* \"#utility.yul\":21003:21004   */\n      0x00\n        /* \"#utility.yul\":20992:21001   */\n      dup4\n        /* \"#utility.yul\":20988:21005   */\n      add\n        /* \"#utility.yul\":20981:21028   */\n      mstore\n        /* \"#utility.yul\":21045:21176   */\n      tag_613\n        /* \"#utility.yul\":21171:21175   */\n      dup2\n        /* \"#utility.yul\":21045:21176   */\n      tag_545\n      jump\t// in\n    tag_613:\n        /* \"#utility.yul\":21037:21176   */\n      swap1\n      pop\n        /* \"#utility.yul\":20764:21183   */\n      swap2\n      swap1\n      pop\n      jump\t// out\n        /* \"#utility.yul\":21189:21411   */\n    tag_24:\n        /* \"#utility.yul\":21282:21286   */\n      0x00\n        /* \"#utility.yul\":21320:21322   */\n      0x20\n        /* \"#utility.yul\":21309:21318   */\n      dup3\n        /* \"#utility.yul\":21305:21323   */\n      add\n        /* \"#utility.yul\":21297:21323   */\n      swap1\n      pop\n        /* \"#utility.yul\":21333:21404   */\n      tag_615\n        /* \"#utility.yul\":21401:21402   */\n      0x00\n        /* \"#utility.yul\":21390:21399   */\n      dup4\n        /* \"#utility.yul\":21386:21403   */\n      add\n        /* \"#utility.yul\":21377:21383   */\n      dup5\n        /* \"#utility.yul\":21333:21404   */\n      tag_553\n      jump\t// in\n    tag_615:\n        /* \"#utility.yul\":21189:21411   */\n      swap3\n      swap2\n      pop\n      pop\n      jump\t// out\n        /* \"#utility.yul\":21417:21749   */\n    tag_305:\n        /* \"#utility.yul\":21538:21542   */\n      0x00\n        /* \"#utility.yul\":21576:21578   */\n      0x40\n        /* \"#utility.yul\":21565:21574   */\n      dup3\n        /* \"#utility.yul\":21561:21579   */\n      add\n        /* \"#utility.yul\":21553:21579   */\n      swap1\n      pop\n        /* \"#utility.yul\":21589:21660   */\n      tag_617\n        /* \"#utility.yul\":21657:21658   */\n      0x00\n        /* \"#utility.yul\":21646:21655   */\n      dup4\n        /* \"#utility.yul\":21642:21659   */\n      add\n        /* \"#utility.yul\":21633:21639   */\n      dup6\n        /* \"#utility.yul\":21589:21660   */\n      tag_553\n      jump\t// in\n    tag_617:\n        /* \"#utility.yul\":21670:21742   */\n      tag_618\n        /* \"#utility.yul\":21738:21740   */\n      0x20\n        /* \"#utility.yul\":21727:21736   */\n      dup4\n        /* \"#utility.yul\":21723:21741   */\n      add\n        /* \"#utility.yul\":21714:21720   */\n      dup5\n        /* \"#utility.yul\":21670:21742   */\n      tag_553\n      jump\t// in\n    tag_618:\n        /* \"#utility.yul\":21417:21749   */\n      swap4\n      swap3\n      pop\n      pop\n      pop\n      jump\t// out\n        /* \"#utility.yul\":21755:22197   */\n    tag_54:\n        /* \"#utility.yul\":21904:21908   */\n      0x00\n        /* \"#utility.yul\":21942:21944   */\n      0x60\n        /* \"#utility.yul\":21931:21940   */\n      dup3\n        /* \"#utility.yul\":21927:21945   */\n      add\n        /* \"#utility.yul\":21919:21945   */\n      swap1\n      pop\n        /* \"#utility.yul\":21955:22026   */\n      tag_620\n        /* \"#utility.yul\":22023:22024   */\n      0x00\n        /* \"#utility.yul\":22012:22021   */\n      dup4\n        /* \"#utility.yul\":22008:22025   */\n      add\n        /* \"#utility.yul\":21999:22005   */\n      dup7\n        /* \"#utility.yul\":21955:22026   */\n      tag_553\n      jump\t// in\n    tag_620:\n        /* \"#utility.yul\":22036:22108   */\n      tag_621\n        /* \"#utility.yul\":22104:22106   */\n      0x20\n        /* \"#utility.yul\":22093:22102   */\n      dup4\n        /* \"#utility.yul\":22089:22107   */\n      add\n        /* \"#utility.yul\":22080:22086   */\n      dup6\n        /* \"#utility.yul\":22036:22108   */\n      tag_553\n      jump\t// in\n    tag_621:\n        /* \"#utility.yul\":22118:22190   */\n      tag_622\n        /* \"#utility.yul\":22186:22188   */\n      0x40\n        /* \"#utility.yul\":22175:22184   */\n      dup4\n        /* \"#utility.yul\":22171:22189   */\n      add\n        /* \"#utility.yul\":22162:22168   */\n      dup5\n        /* \"#utility.yul\":22118:22190   */\n      tag_553\n      jump\t// in\n    tag_622:\n        /* \"#utility.yul\":21755:22197   */\n      swap5\n      swap4\n      pop\n      pop\n      pop\n      pop\n      jump\t// out\n        /* \"#utility.yul\":22203:22278   */\n    tag_623:\n        /* \"#utility.yul\":22236:22242   */\n      0x00\n        /* \"#utility.yul\":22269:22271   */\n      0x40\n        /* \"#utility.yul\":22263:22272   */\n      mload\n        /* \"#utility.yul\":22253:22272   */\n      swap1\n      pop\n        /* \"#utility.yul\":22203:22278   */\n      swap1\n      jump\t// out\n        /* \"#utility.yul\":22284:22416   */\n    tag_443:\n        /* \"#utility.yul\":22351:22355   */\n      0x00\n        /* \"#utility.yul\":22374:22377   */\n      dup2\n        /* \"#utility.yul\":22366:22377   */\n      swap1\n      pop\n        /* \"#utility.yul\":22404:22408   */\n      0x20\n        /* \"#utility.yul\":22399:22402   */\n      dup3\n        /* \"#utility.yul\":22395:22409   */\n      add\n        /* \"#utility.yul\":22387:22409   */\n      swap1\n      pop\n        /* \"#utility.yul\":22284:22416   */\n      swap2\n      swap1\n      pop\n      jump\t// out\n        /* \"#utility.yul\":22422:22536   */\n    tag_439:\n        /* \"#utility.yul\":22489:22495   */\n      0x00\n        /* \"#utility.yul\":22523:22528   */\n      dup2\n        /* \"#utility.yul\":22517:22529   */\n      mload\n        /* \"#utility.yul\":22507:22529   */\n      swap1\n      pop\n        /* \"#utility.yul\":22422:22536   */\n      swap2\n      swap1\n      pop\n      jump\t// out\n        /* \"#utility.yul\":22542:22641   */\n    tag_457:\n        /* \"#utility.yul\":22594:22600   */\n      0x00\n        /* \"#utility.yul\":22628:22633   */\n      dup2\n        /* \"#utility.yul\":22622:22634   */\n      mload\n        /* \"#utility.yul\":22612:22634   */\n      swap1\n      pop\n        /* \"#utility.yul\":22542:22641   */\n      swap2\n      swap1\n      pop\n      jump\t// out\n        /* \"#utility.yul\":22647:22760   */\n    tag_449:\n        /* \"#utility.yul\":22717:22721   */\n      0x00\n        /* \"#utility.yul\":22749:22753   */\n      0x20\n        /* \"#utility.yul\":22744:22747   */\n      dup3\n        /* \"#utility.yul\":22740:22754   */\n      add\n        /* \"#utility.yul\":22732:22754   */\n      swap1\n      pop\n        /* \"#utility.yul\":22647:22760   */\n      swap2\n      swap1\n      pop\n      jump\t// out\n        /* \"#utility.yul\":22766:22950   */\n    tag_441:\n        /* \"#utility.yul\":22865:22876   */\n      0x00\n        /* \"#utility.yul\":22899:22905   */\n      dup3\n        /* \"#utility.yul\":22894:22897   */\n      dup3\n        /* \"#utility.yul\":22887:22906   */\n      mstore\n        /* \"#utility.yul\":22939:22943   */\n      0x20\n        /* \"#utility.yul\":22934:22937   */\n      dup3\n        /* \"#utility.yul\":22930:22944   */\n      add\n        /* \"#utility.yul\":22915:22944   */\n      swap1\n      pop\n        /* \"#utility.yul\":22766:22950   */\n      swap3\n      swap2\n      pop\n      pop\n      jump\t// out\n        /* \"#utility.yul\":22956:23125   */\n    tag_459:\n        /* \"#utility.yul\":23040:23051   */\n      0x00\n        /* \"#utility.yul\":23074:23080   */\n      dup3\n        /* \"#utility.yul\":23069:23072   */\n      dup3\n        /* \"#utility.yul\":23062:23081   */\n      mstore\n        /* \"#utility.yul\":23114:23118   */\n      0x20\n        /* \"#utility.yul\":23109:23112   */\n      dup3\n        /* \"#utility.yul\":23105:23119   */\n      add\n        /* \"#utility.yul\":23090:23119   */\n      swap1\n      pop\n        /* \"#utility.yul\":22956:23125   */\n      swap3\n      swap2\n      pop\n      pop\n      jump\t// out\n        /* \"#utility.yul\":23131:23279   */\n    tag_468:\n        /* \"#utility.yul\":23233:23244   */\n      0x00\n        /* \"#utility.yul\":23270:23273   */\n      dup2\n        /* \"#utility.yul\":23255:23273   */\n      swap1\n      pop\n        /* \"#utility.yul\":23131:23279   */\n      swap3\n      swap2\n      pop\n      pop\n      jump\t// out\n        /* \"#utility.yul\":23285:23590   */\n    tag_241:\n        /* \"#utility.yul\":23325:23328   */\n      0x00\n        /* \"#utility.yul\":23344:23364   */\n      tag_633\n        /* \"#utility.yul\":23362:23363   */\n      dup3\n        /* \"#utility.yul\":23344:23364   */\n      tag_552\n      jump\t// in\n    tag_633:\n        /* \"#utility.yul\":23339:23364   */\n      swap2\n      pop\n        /* \"#utility.yul\":23378:23398   */\n      tag_634\n        /* \"#utility.yul\":23396:23397   */\n      dup4\n        /* \"#utility.yul\":23378:23398   */\n      tag_552\n      jump\t// in\n    tag_634:\n        /* \"#utility.yul\":23373:23398   */\n      swap3\n      pop\n        /* \"#utility.yul\":23532:23533   */\n      dup3\n        /* \"#utility.yul\":23464:23530   */\n      0xffffffffffffffffffffffffffffffffffffffffffffffffffffffffffffffff\n        /* \"#utility.yul\":23460:23534   */\n      sub\n        /* \"#utility.yul\":23457:23458   */\n      dup3\n        /* \"#utility.yul\":23454:23535   */\n      gt\n        /* \"#utility.yul\":23451:23558   */\n      iszero\n      tag_635\n      jumpi\n        /* \"#utility.yul\":23538:23556   */\n      tag_636\n      tag_637\n      jump\t// in\n    tag_636:\n        /* \"#utility.yul\":23451:23558   */\n    tag_635:\n        /* \"#utility.yul\":23582:23583   */\n      dup3\n        /* \"#utility.yul\":23579:23580   */\n      dup3\n        /* \"#utility.yul\":23575:23584   */\n      add\n        /* \"#utility.yul\":23568:23584   */\n      swap1\n      pop\n        /* \"#utility.yul\":23285:23590   */\n      swap3\n      swap2\n      pop\n      pop\n      jump\t// out\n        /* \"#utility.yul\":23596:23781   */\n    tag_314:\n        /* \"#utility.yul\":23636:23637   */\n      0x00\n        /* \"#utility.yul\":23653:23673   */\n      tag_639\n        /* \"#utility.yul\":23671:23672   */\n      dup3\n        /* \"#utility.yul\":23653:23673   */\n      tag_552\n      jump\t// in\n    tag_639:\n        /* \"#utility.yul\":23648:23673   */\n      swap2\n      pop\n        /* \"#utility.yul\":23687:23707   */\n      tag_640\n        /* \"#utility.yul\":23705:23706   */\n      dup4\n        /* \"#utility.yul\":23687:23707   */\n      tag_552\n      jump\t// in\n    tag_640:\n        /* \"#utility.yul\":23682:23707   */\n      swap3\n      pop\n        /* \"#utility.yul\":23726:23727   */\n      dup3\n        /* \"#utility.yul\":23716:23751   */\n      tag_641\n      jumpi\n        /* \"#utility.yul\":23731:23749   */\n      tag_642\n      tag_643\n      jump\t// in\n    tag_642:\n        /* \"#utility.yul\":23716:23751   */\n    tag_641:\n        /* \"#utility.yul\":23773:23774   */\n      dup3\n        /* \"#utility.yul\":23770:23771   */\n      dup3\n        /* \"#utility.yul\":23766:23775   */\n      div\n        /* \"#utility.yul\":23761:23775   */\n      swap1\n      pop\n        /* \"#utility.yul\":23596:23781   */\n      swap3\n      swap2\n      pop\n      pop\n      jump\t// out\n        /* \"#utility.yul\":23787:24135   */\n    tag_136:\n        /* \"#utility.yul\":23827:23834   */\n      0x00\n        /* \"#utility.yul\":23850:23870   */\n      tag_645\n        /* \"#utility.yul\":23868:23869   */\n      dup3\n        /* \"#utility.yul\":23850:23870   */\n      tag_552\n      jump\t// in\n    tag_645:\n        /* \"#utility.yul\":23845:23870   */\n      swap2\n      pop\n        /* \"#utility.yul\":23884:23904   */\n      tag_646\n        /* \"#utility.yul\":23902:23903   */\n      dup4\n        /* \"#utility.yul\":23884:23904   */\n      tag_552\n      jump\t// in\n    tag_646:\n        /* \"#utility.yul\":23879:23904   */\n      swap3\n      pop\n        /* \"#utility.yul\":24072:24073   */\n      dup2\n        /* \"#utility.yul\":24004:24070   */\n      0xffffffffffffffffffffffffffffffffffffffffffffffffffffffffffffffff\n        /* \"#utility.yul\":24000:24074   */\n      div\n        /* \"#utility.yul\":23997:23998   */\n      dup4\n        /* \"#utility.yul\":23994:24075   */\n      gt\n        /* \"#utility.yul\":23989:23990   */\n      dup3\n        /* \"#utility.yul\":23982:23991   */\n      iszero\n        /* \"#utility.yul\":23975:23992   */\n      iszero\n        /* \"#utility.yul\":23971:24076   */\n      and\n        /* \"#utility.yul\":23968:24099   */\n      iszero\n      tag_647\n      jumpi\n        /* \"#utility.yul\":24079:24097   */\n      tag_648\n      tag_637\n      jump\t// in\n    tag_648:\n        /* \"#utility.yul\":23968:24099   */\n    tag_647:\n        /* \"#utility.yul\":24127:24128   */\n      dup3\n        /* \"#utility.yul\":24124:24125   */\n      dup3\n        /* \"#utility.yul\":24120:24129   */\n      mul\n        /* \"#utility.yul\":24109:24129   */\n      swap1\n      pop\n        /* \"#utility.yul\":23787:24135   */\n      swap3\n      swap2\n      pop\n      pop\n      jump\t// out\n        /* \"#utility.yul\":24141:24332   */\n    tag_322:\n        /* \"#utility.yul\":24181:24185   */\n      0x00\n        /* \"#utility.yul\":24201:24221   */\n      tag_650\n        /* \"#utility.yul\":24219:24220   */\n      dup3\n        /* \"#utility.yul\":24201:24221   */\n      tag_552\n      jump\t// in\n    tag_650:\n        /* \"#utility.yul\":24196:24221   */\n      swap2\n      pop\n        /* \"#utility.yul\":24235:24255   */\n      tag_651\n        /* \"#utility.yul\":24253:24254   */\n      dup4\n        /* \"#utility.yul\":24235:24255   */\n      tag_552\n      jump\t// in\n    tag_651:\n        /* \"#utility.yul\":24230:24255   */\n      swap3\n      pop\n        /* \"#utility.yul\":24274:24275   */\n      dup3\n        /* \"#utility.yul\":24271:24272   */\n      dup3\n        /* \"#utility.yul\":24268:24276   */\n      lt\n        /* \"#utility.yul\":24265:24299   */\n      iszero\n      tag_652\n      jumpi\n        /* \"#utility.yul\":24279:24297   */\n      tag_653\n      tag_637\n      jump\t// in\n    tag_653:\n        /* \"#utility.yul\":24265:24299   */\n    tag_652:\n        /* \"#utility.yul\":24324:24325   */\n      dup3\n        /* \"#utility.yul\":24321:24322   */\n      dup3\n        /* \"#utility.yul\":24317:24326   */\n      sub\n        /* \"#utility.yul\":24309:24326   */\n      swap1\n      pop\n        /* \"#utility.yul\":24141:24332   */\n      swap3\n      swap2\n      pop\n      pop\n      jump\t// out\n        /* \"#utility.yul\":24338:24434   */\n    tag_430:\n        /* \"#utility.yul\":24375:24382   */\n      0x00\n        /* \"#utility.yul\":24404:24428   */\n      tag_655\n        /* \"#utility.yul\":24422:24427   */\n      dup3\n        /* \"#utility.yul\":24404:24428   */\n      tag_656\n      jump\t// in\n    tag_655:\n        /* \"#utility.yul\":24393:24428   */\n      swap1\n      pop\n        /* \"#utility.yul\":24338:24434   */\n      swap2\n      swap1\n      pop\n      jump\t// out\n        /* \"#utility.yul\":24440:24544   */\n    tag_421:\n        /* \"#utility.yul\":24485:24492   */\n      0x00\n        /* \"#utility.yul\":24514:24538   */\n      tag_658\n        /* \"#utility.yul\":24532:24537   */\n      dup3\n        /* \"#utility.yul\":24514:24538   */\n      tag_656\n      jump\t// in\n    tag_658:\n        /* \"#utility.yul\":24503:24538   */\n      swap1\n      pop\n        /* \"#utility.yul\":24440:24544   */\n      swap2\n      swap1\n      pop\n      jump\t// out\n        /* \"#utility.yul\":24550:24640   */\n    tag_453:\n        /* \"#utility.yul\":24584:24591   */\n      0x00\n        /* \"#utility.yul\":24627:24632   */\n      dup2\n        /* \"#utility.yul\":24620:24633   */\n      iszero\n        /* \"#utility.yul\":24613:24634   */\n      iszero\n        /* \"#utility.yul\":24602:24634   */\n      swap1\n      pop\n        /* \"#utility.yul\":24550:24640   */\n      swap2\n      swap1\n      pop\n      jump\t// out\n        /* \"#utility.yul\":24646:24795   */\n    tag_660:\n        /* \"#utility.yul\":24682:24689   */\n      0x00\n        /* \"#utility.yul\":24722:24788   */\n      0xffffffff00000000000000000000000000000000000000000000000000000000\n        /* \"#utility.yul\":24715:24720   */\n      dup3\n        /* \"#utility.yul\":24711:24789   */\n      and\n        /* \"#utility.yul\":24700:24789   */\n      swap1\n      pop\n        /* \"#utility.yul\":24646:24795   */\n      swap2\n      swap1\n      pop\n      jump\t// out\n        /* \"#utility.yul\":24801:24927   */\n    tag_656:\n        /* \"#utility.yul\":24838:24845   */\n      0x00\n        /* \"#utility.yul\":24878:24920   */\n      0xffffffffffffffffffffffffffffffffffffffff\n        /* \"#utility.yul\":24871:24876   */\n      dup3\n        /* \"#utility.yul\":24867:24921   */\n      and\n        /* \"#utility.yul\":24856:24921   */\n      swap1\n      pop\n        /* \"#utility.yul\":24801:24927   */\n      swap2\n      swap1\n      pop\n      jump\t// out\n        /* \"#utility.yul\":24933:25010   */\n    tag_552:\n        /* \"#utility.yul\":24970:24977   */\n      0x00\n        /* \"#utility.yul\":24999:25004   */\n      dup2\n        /* \"#utility.yul\":24988:25004   */\n      swap1\n      pop\n        /* \"#utility.yul\":24933:25010   */\n      swap2\n      swap1\n      pop\n      jump\t// out\n        /* \"#utility.yul\":25016:25323   */\n    tag_461:\n        /* \"#utility.yul\":25084:25085   */\n      0x00\n        /* \"#utility.yul\":25094:25207   */\n    tag_665:\n        /* \"#utility.yul\":25108:25114   */\n      dup4\n        /* \"#utility.yul\":25105:25106   */\n      dup2\n        /* \"#utility.yul\":25102:25115   */\n      lt\n        /* \"#utility.yul\":25094:25207   */\n      iszero\n      tag_667\n      jumpi\n        /* \"#utility.yul\":25193:25194   */\n      dup1\n        /* \"#utility.yul\":25188:25191   */\n      dup3\n        /* \"#utility.yul\":25184:25195   */\n      add\n        /* \"#utility.yul\":25178:25196   */\n      mload\n        /* \"#utility.yul\":25174:25175   */\n      dup2\n        /* \"#utility.yul\":25169:25172   */\n      dup5\n        /* \"#utility.yul\":25165:25176   */\n      add\n        /* \"#utility.yul\":25158:25197   */\n      mstore\n        /* \"#utility.yul\":25130:25132   */\n      0x20\n        /* \"#utility.yul\":25127:25128   */\n      dup2\n        /* \"#utility.yul\":25123:25133   */\n      add\n        /* \"#utility.yul\":25118:25133   */\n      swap1\n      pop\n        /* \"#utility.yul\":25094:25207   */\n      jump(tag_665)\n    tag_667:\n        /* \"#utility.yul\":25225:25231   */\n      dup4\n        /* \"#utility.yul\":25222:25223   */\n      dup2\n        /* \"#utility.yul\":25219:25232   */\n      gt\n        /* \"#utility.yul\":25216:25317   */\n      iszero\n      tag_668\n      jumpi\n        /* \"#utility.yul\":25305:25306   */\n      0x00\n        /* \"#utility.yul\":25296:25302   */\n      dup5\n        /* \"#utility.yul\":25291:25294   */\n      dup5\n        /* \"#utility.yul\":25287:25303   */\n      add\n        /* \"#utility.yul\":25280:25307   */\n      mstore\n        /* \"#utility.yul\":25216:25317   */\n    tag_668:\n        /* \"#utility.yul\":25065:25323   */\n      pop\n        /* \"#utility.yul\":25016:25323   */\n      pop\n      pop\n      pop\n      jump\t// out\n        /* \"#utility.yul\":25329:25649   */\n    tag_226:\n        /* \"#utility.yul\":25373:25379   */\n      0x00\n        /* \"#utility.yul\":25410:25411   */\n      0x02\n        /* \"#utility.yul\":25404:25408   */\n      dup3\n        /* \"#utility.yul\":25400:25412   */\n      div\n        /* \"#utility.yul\":25390:25412   */\n      swap1\n      pop\n        /* \"#utility.yul\":25457:25458   */\n      0x01\n        /* \"#utility.yul\":25451:25455   */\n      dup3\n        /* \"#utility.yul\":25447:25459   */\n      and\n        /* \"#utility.yul\":25478:25496   */\n      dup1\n        /* \"#utility.yul\":25468:25549   */\n      tag_670\n      jumpi\n        /* \"#utility.yul\":25534:25538   */\n      0x7f\n        /* \"#utility.yul\":25526:25532   */\n      dup3\n        /* \"#utility.yul\":25522:25539   */\n      and\n        /* \"#utility.yul\":25512:25539   */\n      swap2\n      pop\n        /* \"#utility.yul\":25468:25549   */\n    tag_670:\n        /* \"#utility.yul\":25596:25598   */\n      0x20\n        /* \"#utility.yul\":25588:25594   */\n      dup3\n        /* \"#utility.yul\":25585:25599   */\n      lt\n        /* \"#utility.yul\":25565:25583   */\n      dup2\n        /* \"#utility.yul\":25562:25600   */\n      eq\n        /* \"#utility.yul\":25559:25643   */\n      iszero\n      tag_671\n      jumpi\n        /* \"#utility.yul\":25615:25633   */\n      tag_672\n      tag_673\n      jump\t// in\n    tag_672:\n        /* \"#utility.yul\":25559:25643   */\n    tag_671:\n        /* \"#utility.yul\":25380:25649   */\n      pop\n        /* \"#utility.yul\":25329:25649   */\n      swap2\n      swap1\n      pop\n      jump\t// out\n        /* \"#utility.yul\":25655:25936   */\n    tag_674:\n        /* \"#utility.yul\":25738:25765   */\n      tag_676\n        /* \"#utility.yul\":25760:25764   */\n      dup3\n        /* \"#utility.yul\":25738:25765   */\n      tag_463\n      jump\t// in\n    tag_676:\n        /* \"#utility.yul\":25730:25736   */\n      dup2\n        /* \"#utility.yul\":25726:25766   */\n      add\n        /* \"#utility.yul\":25868:25874   */\n      dup2\n        /* \"#utility.yul\":25856:25866   */\n      dup2\n        /* \"#utility.yul\":25853:25875   */\n      lt\n        /* \"#utility.yul\":25832:25850   */\n      0xffffffffffffffff\n        /* \"#utility.yul\":25820:25830   */\n      dup3\n        /* \"#utility.yul\":25817:25851   */\n      gt\n        /* \"#utility.yul\":25814:25876   */\n      or\n        /* \"#utility.yul\":25811:25899   */\n      iszero\n      tag_677\n      jumpi\n        /* \"#utility.yul\":25879:25897   */\n      tag_678\n      tag_317\n      jump\t// in\n    tag_678:\n        /* \"#utility.yul\":25811:25899   */\n    tag_677:\n        /* \"#utility.yul\":25919:25929   */\n      dup1\n        /* \"#utility.yul\":25915:25917   */\n      0x40\n        /* \"#utility.yul\":25908:25930   */\n      mstore\n        /* \"#utility.yul\":25698:25936   */\n      pop\n        /* \"#utility.yul\":25655:25936   */\n      pop\n      pop\n      jump\t// out\n        /* \"#utility.yul\":25942:26175   */\n    tag_146:\n        /* \"#utility.yul\":25981:25984   */\n      0x00\n        /* \"#utility.yul\":26004:26028   */\n      tag_680\n        /* \"#utility.yul\":26022:26027   */\n      dup3\n        /* \"#utility.yul\":26004:26028   */\n      tag_552\n      jump\t// in\n    tag_680:\n        /* \"#utility.yul\":25995:26028   */\n      swap2\n      pop\n        /* \"#utility.yul\":26050:26116   */\n      0xffffffffffffffffffffffffffffffffffffffffffffffffffffffffffffffff\n        /* \"#utility.yul\":26043:26048   */\n      dup3\n        /* \"#utility.yul\":26040:26117   */\n      eq\n        /* \"#utility.yul\":26037:26140   */\n      iszero\n      tag_681\n      jumpi\n        /* \"#utility.yul\":26120:26138   */\n      tag_682\n      tag_637\n      jump\t// in\n    tag_682:\n        /* \"#utility.yul\":26037:26140   */\n    tag_681:\n        /* \"#utility.yul\":26167:26168   */\n      0x01\n        /* \"#utility.yul\":26160:26165   */\n      dup3\n        /* \"#utility.yul\":26156:26169   */\n      add\n        /* \"#utility.yul\":26149:26169   */\n      swap1\n      pop\n        /* \"#utility.yul\":25942:26175   */\n      swap2\n      swap1\n      pop\n      jump\t// out\n        /* \"#utility.yul\":26181:26281   */\n    tag_435:\n        /* \"#utility.yul\":26220:26227   */\n      0x00\n        /* \"#utility.yul\":26249:26275   */\n      tag_684\n        /* \"#utility.yul\":26269:26274   */\n      dup3\n        /* \"#utility.yul\":26249:26275   */\n      tag_685\n      jump\t// in\n    tag_684:\n        /* \"#utility.yul\":26238:26275   */\n      swap1\n      pop\n        /* \"#utility.yul\":26181:26281   */\n      swap2\n      swap1\n      pop\n      jump\t// out\n        /* \"#utility.yul\":26287:26395   */\n    tag_426:\n        /* \"#utility.yul\":26334:26341   */\n      0x00\n        /* \"#utility.yul\":26363:26389   */\n      tag_687\n        /* \"#utility.yul\":26383:26388   */\n      dup3\n        /* \"#utility.yul\":26363:26389   */\n      tag_685\n      jump\t// in\n    tag_687:\n        /* \"#utility.yul\":26352:26389   */\n      swap1\n      pop\n        /* \"#utility.yul\":26287:26395   */\n      swap2\n      swap1\n      pop\n      jump\t// out\n        /* \"#utility.yul\":26401:26495   */\n    tag_685:\n        /* \"#utility.yul\":26440:26447   */\n      0x00\n        /* \"#utility.yul\":26469:26489   */\n      tag_689\n        /* \"#utility.yul\":26483:26488   */\n      dup3\n        /* \"#utility.yul\":26469:26489   */\n      tag_690\n      jump\t// in\n    tag_689:\n        /* \"#utility.yul\":26458:26489   */\n      swap1\n      pop\n        /* \"#utility.yul\":26401:26495   */\n      swap2\n      swap1\n      pop\n      jump\t// out\n        /* \"#utility.yul\":26501:26580   */\n    tag_560:\n        /* \"#utility.yul\":26540:26547   */\n      0x00\n        /* \"#utility.yul\":26569:26574   */\n      dup2\n        /* \"#utility.yul\":26558:26574   */\n      swap1\n      pop\n        /* \"#utility.yul\":26501:26580   */\n      swap2\n      swap1\n      pop\n      jump\t// out\n        /* \"#utility.yul\":26586:26762   */\n    tag_254:\n        /* \"#utility.yul\":26618:26619   */\n      0x00\n        /* \"#utility.yul\":26635:26655   */\n      tag_693\n        /* \"#utility.yul\":26653:26654   */\n      dup3\n        /* \"#utility.yul\":26635:26655   */\n      tag_552\n      jump\t// in\n    tag_693:\n        /* \"#utility.yul\":26630:26655   */\n      swap2\n      pop\n        /* \"#utility.yul\":26669:26689   */\n      tag_694\n        /* \"#utility.yul\":26687:26688   */\n      dup4\n        /* \"#utility.yul\":26669:26689   */\n      tag_552\n      jump\t// in\n    tag_694:\n        /* \"#utility.yul\":26664:26689   */\n      swap3\n      pop\n        /* \"#utility.yul\":26708:26709   */\n      dup3\n        /* \"#utility.yul\":26698:26733   */\n      tag_695\n      jumpi\n        /* \"#utility.yul\":26713:26731   */\n      tag_696\n      tag_643\n      jump\t// in\n    tag_696:\n        /* \"#utility.yul\":26698:26733   */\n    tag_695:\n        /* \"#utility.yul\":26754:26755   */\n      dup3\n        /* \"#utility.yul\":26751:26752   */\n      dup3\n        /* \"#utility.yul\":26747:26756   */\n      mod\n        /* \"#utility.yul\":26742:26756   */\n      swap1\n      pop\n        /* \"#utility.yul\":26586:26762   */\n      swap3\n      swap2\n      pop\n      pop\n      jump\t// out\n        /* \"#utility.yul\":26768:26948   */\n    tag_637:\n        /* \"#utility.yul\":26816:26893   */\n      0x4e487b7100000000000000000000000000000000000000000000000000000000\n        /* \"#utility.yul\":26813:26814   */\n      0x00\n        /* \"#utility.yul\":26806:26894   */\n      mstore\n        /* \"#utility.yul\":26913:26917   */\n      0x11\n        /* \"#utility.yul\":26910:26911   */\n      0x04\n        /* \"#utility.yul\":26903:26918   */\n      mstore\n        /* \"#utility.yul\":26937:26941   */\n      0x24\n        /* \"#utility.yul\":26934:26935   */\n      0x00\n        /* \"#utility.yul\":26927:26942   */\n      revert\n        /* \"#utility.yul\":26954:27134   */\n    tag_643:\n        /* \"#utility.yul\":27002:27079   */\n      0x4e487b7100000000000000000000000000000000000000000000000000000000\n        /* \"#utility.yul\":26999:27000   */\n      0x00\n        /* \"#utility.yul\":26992:27080   */\n      mstore\n        /* \"#utility.yul\":27099:27103   */\n      0x12\n        /* \"#utility.yul\":27096:27097   */\n      0x04\n        /* \"#utility.yul\":27089:27104   */\n      mstore\n        /* \"#utility.yul\":27123:27127   */\n      0x24\n        /* \"#utility.yul\":27120:27121   */\n      0x00\n        /* \"#utility.yul\":27113:27128   */\n      revert\n        /* \"#utility.yul\":27140:27320   */\n    tag_673:\n        /* \"#utility.yul\":27188:27265   */\n      0x4e487b7100000000000000000000000000000000000000000000000000000000\n        /* \"#utility.yul\":27185:27186   */\n      0x00\n        /* \"#utility.yul\":27178:27266   */\n      mstore\n        /* \"#utility.yul\":27285:27289   */\n      0x22\n        /* \"#utility.yul\":27282:27283   */\n      0x04\n        /* \"#utility.yul\":27275:27290   */\n      mstore\n        /* \"#utility.yul\":27309:27313   */\n      0x24\n        /* \"#utility.yul\":27306:27307   */\n      0x00\n        /* \"#utility.yul\":27299:27314   */\n      revert\n        /* \"#utility.yul\":27326:27506   */\n    tag_327:\n        /* \"#utility.yul\":27374:27451   */\n      0x4e487b7100000000000000000000000000000000000000000000000000000000\n        /* \"#utility.yul\":27371:27372   */\n      0x00\n        /* \"#utility.yul\":27364:27452   */\n      mstore\n        /* \"#utility.yul\":27471:27475   */\n      0x32\n        /* \"#utility.yul\":27468:27469   */\n      0x04\n        /* \"#utility.yul\":27461:27476   */\n      mstore\n        /* \"#utility.yul\":27495:27499   */\n      0x24\n        /* \"#utility.yul\":27492:27493   */\n      0x00\n        /* \"#utility.yul\":27485:27500   */\n      revert\n        /* \"#utility.yul\":27512:27692   */\n    tag_317:\n        /* \"#utility.yul\":27560:27637   */\n      0x4e487b7100000000000000000000000000000000000000000000000000000000\n        /* \"#utility.yul\":27557:27558   */\n      0x00\n        /* \"#utility.yul\":27550:27638   */\n      mstore\n        /* \"#utility.yul\":27657:27661   */\n      0x41\n        /* \"#utility.yul\":27654:27655   */\n      0x04\n        /* \"#utility.yul\":27647:27662   */\n      mstore\n        /* \"#utility.yul\":27681:27685   */\n      0x24\n        /* \"#utility.yul\":27678:27679   */\n      0x00\n        /* \"#utility.yul\":27671:27686   */\n      revert\n        /* \"#utility.yul\":27698:27881   */\n    tag_351:\n        /* \"#utility.yul\":27733:27736   */\n      0x00\n        /* \"#utility.yul\":27771:27772   */\n      0x03\n        /* \"#utility.yul\":27753:27769   */\n      returndatasize\n        /* \"#utility.yul\":27750:27773   */\n      gt\n        /* \"#utility.yul\":27747:27875   */\n      iszero\n      tag_703\n      jumpi\n        /* \"#utility.yul\":27809:27810   */\n      0x04\n        /* \"#utility.yul\":27806:27807   */\n      0x00\n        /* \"#utility.yul\":27803:27804   */\n      dup1\n        /* \"#utility.yul\":27788:27811   */\n      returndatacopy\n        /* \"#utility.yul\":27831:27865   */\n      tag_704\n        /* \"#utility.yul\":27862:27863   */\n      0x00\n        /* \"#utility.yul\":27856:27864   */\n      mload\n        /* \"#utility.yul\":27831:27865   */\n      tag_705\n      jump\t// in\n    tag_704:\n        /* \"#utility.yul\":27824:27865   */\n      swap1\n      pop\n        /* \"#utility.yul\":27747:27875   */\n    tag_703:\n        /* \"#utility.yul\":27698:27881   */\n      swap1\n      jump\t// out\n        /* \"#utility.yul\":28010:28127   */\n    tag_394:\n        /* \"#utility.yul\":28119:28120   */\n      0x00\n        /* \"#utility.yul\":28116:28117   */\n      dup1\n        /* \"#utility.yul\":28109:28121   */\n      revert\n        /* \"#utility.yul\":28133:28235   */\n    tag_463:\n        /* \"#utility.yul\":28174:28180   */\n      0x00\n        /* \"#utility.yul\":28225:28227   */\n      0x1f\n        /* \"#utility.yul\":28221:28228   */\n      not\n        /* \"#utility.yul\":28216:28218   */\n      0x1f\n        /* \"#utility.yul\":28209:28214   */\n      dup4\n        /* \"#utility.yul\":28205:28219   */\n      add\n        /* \"#utility.yul\":28201:28229   */\n      and\n        /* \"#utility.yul\":28191:28229   */\n      swap1\n      pop\n        /* \"#utility.yul\":28133:28235   */\n      swap2\n      swap1\n      pop\n      jump\t// out\n        /* \"#utility.yul\":28241:28335   */\n    tag_690:\n        /* \"#utility.yul\":28274:28282   */\n      0x00\n        /* \"#utility.yul\":28322:28327   */\n      dup2\n        /* \"#utility.yul\":28318:28320   */\n      0x60\n        /* \"#utility.yul\":28314:28328   */\n      shl\n        /* \"#utility.yul\":28293:28328   */\n      swap1\n      pop\n        /* \"#utility.yul\":28241:28335   */\n      swap2\n      swap1\n      pop\n      jump\t// out\n        /* \"#utility.yul\":28341:28447   */\n    tag_705:\n        /* \"#utility.yul\":28385:28393   */\n      0x00\n        /* \"#utility.yul\":28434:28439   */\n      dup2\n        /* \"#utility.yul\":28429:28432   */\n      0xe0\n        /* \"#utility.yul\":28425:28440   */\n      shr\n        /* \"#utility.yul\":28404:28440   */\n      swap1\n      pop\n        /* \"#utility.yul\":28341:28447   */\n      swap2\n      swap1\n      pop\n      jump\t// out\n        /* \"#utility.yul\":28453:28692   */\n    tag_474:\n        /* \"#utility.yul\":28593:28627   */\n      0x455243313135353a207472616e7366657220746f206e6f6e2045524331313535\n        /* \"#utility.yul\":28589:28590   */\n      0x00\n        /* \"#utility.yul\":28581:28587   */\n      dup3\n        /* \"#utility.yul\":28577:28591   */\n      add\n        /* \"#utility.yul\":28570:28628   */\n      mstore\n        /* \"#utility.yul\":28662:28684   */\n      0x526563656976657220696d706c656d656e746572000000000000000000000000\n        /* \"#utility.yul\":28657:28659   */\n      0x20\n        /* \"#utility.yul\":28649:28655   */\n      dup3\n        /* \"#utility.yul\":28645:28660   */\n      add\n        /* \"#utility.yul\":28638:28685   */\n      mstore\n        /* \"#utility.yul\":28453:28692   */\n      pop\n      jump\t// out\n        /* \"#utility.yul\":28698:28925   */\n    tag_479:\n        /* \"#utility.yul\":28838:28872   */\n      0x455243313135353a204552433131353552656365697665722072656a65637465\n        /* \"#utility.yul\":28834:28835   */\n      0x00\n        /* \"#utility.yul\":28826:28832   */\n      dup3\n        /* \"#utility.yul\":28822:28836   */\n      add\n        /* \"#utility.yul\":28815:28873   */\n      mstore\n        /* \"#utility.yul\":28907:28917   */\n      0x6420746f6b656e73000000000000000000000000000000000000000000000000\n        /* \"#utility.yul\":28902:28904   */\n      0x20\n        /* \"#utility.yul\":28894:28900   */\n      dup3\n        /* \"#utility.yul\":28890:28905   */\n      add\n        /* \"#utility.yul\":28883:28918   */\n      mstore\n        /* \"#utility.yul\":28698:28925   */\n      pop\n      jump\t// out\n        /* \"#utility.yul\":28931:29106   */\n    tag_484:\n        /* \"#utility.yul\":29071:29098   */\n      0x4572726f7221204e6f7420456e6f7567682042616c616e636500000000000000\n        /* \"#utility.yul\":29067:29068   */\n      0x00\n        /* \"#utility.yul\":29059:29065   */\n      dup3\n        /* \"#utility.yul\":29055:29069   */\n      add\n        /* \"#utility.yul\":29048:29099   */\n      mstore\n        /* \"#utility.yul\":28931:29106   */\n      pop\n      jump\t// out\n        /* \"#utility.yul\":29112:29270   */\n    tag_489:\n        /* \"#utility.yul\":29252:29262   */\n      0x4469616d6f6e645f000000000000000000000000000000000000000000000000\n        /* \"#utility.yul\":29248:29249   */\n      0x00\n        /* \"#utility.yul\":29240:29246   */\n      dup3\n        /* \"#utility.yul\":29236:29250   */\n      add\n        /* \"#utility.yul\":29229:29263   */\n      mstore\n        /* \"#utility.yul\":29112:29270   */\n      pop\n      jump\t// out\n        /* \"#utility.yul\":29276:29442   */\n    tag_494:\n        /* \"#utility.yul\":29416:29434   */\n      0x4d696e7420466565204e6f742053657400000000000000000000000000000000\n        /* \"#utility.yul\":29412:29413   */\n      0x00\n        /* \"#utility.yul\":29404:29410   */\n      dup3\n        /* \"#utility.yul\":29400:29414   */\n      add\n        /* \"#utility.yul\":29393:29435   */\n      mstore\n        /* \"#utility.yul\":29276:29442   */\n      pop\n      jump\t// out\n        /* \"#utility.yul\":29448:29603   */\n    tag_499:\n        /* \"#utility.yul\":29588:29595   */\n      0x476f6c645f000000000000000000000000000000000000000000000000000000\n        /* \"#utility.yul\":29584:29585   */\n      0x00\n        /* \"#utility.yul\":29576:29582   */\n      dup3\n        /* \"#utility.yul\":29572:29586   */\n      add\n        /* \"#utility.yul\":29565:29596   */\n      mstore\n        /* \"#utility.yul\":29448:29603   */\n      pop\n      jump\t// out\n        /* \"#utility.yul\":29609:29777   */\n    tag_504:\n        /* \"#utility.yul\":29749:29769   */\n      0x4e6f7420456e6f7567682042616c616e63650000000000000000000000000000\n        /* \"#utility.yul\":29745:29746   */\n      0x00\n        /* \"#utility.yul\":29737:29743   */\n      dup3\n        /* \"#utility.yul\":29733:29747   */\n      add\n        /* \"#utility.yul\":29726:29770   */\n      mstore\n        /* \"#utility.yul\":29609:29777   */\n      pop\n      jump\t// out\n        /* \"#utility.yul\":29783:29960   */\n    tag_509:\n        /* \"#utility.yul\":29923:29952   */\n      0x44726f707369746520697320616c72656164792052756e6e696e670000000000\n        /* \"#utility.yul\":29919:29920   */\n      0x00\n        /* \"#utility.yul\":29911:29917   */\n      dup3\n        /* \"#utility.yul\":29907:29921   */\n      add\n        /* \"#utility.yul\":29900:29953   */\n      mstore\n        /* \"#utility.yul\":29783:29960   */\n      pop\n      jump\t// out\n        /* \"#utility.yul\":29966:30143   */\n    tag_514:\n        /* \"#utility.yul\":30106:30135   */\n      0x44726f707369746520697320616c72656164792053746f707065640000000000\n        /* \"#utility.yul\":30102:30103   */\n      0x00\n        /* \"#utility.yul\":30094:30100   */\n      dup3\n        /* \"#utility.yul\":30090:30104   */\n      add\n        /* \"#utility.yul\":30083:30136   */\n      mstore\n        /* \"#utility.yul\":29966:30143   */\n      pop\n      jump\t// out\n        /* \"#utility.yul\":30149:30320   */\n    tag_519:\n        /* \"#utility.yul\":30289:30312   */\n      0x596f752063616e206d696e7420312d33204e4654730000000000000000000000\n        /* \"#utility.yul\":30285:30286   */\n      0x00\n        /* \"#utility.yul\":30277:30283   */\n      dup3\n        /* \"#utility.yul\":30273:30287   */\n      add\n        /* \"#utility.yul\":30266:30313   */\n      mstore\n        /* \"#utility.yul\":30149:30320   */\n      pop\n      jump\t// out\n        /* \"#utility.yul\":30326:30504   */\n    tag_524:\n        /* \"#utility.yul\":30466:30496   */\n      0x4f6e6c79204e46542d4553204f776e65722063616e2041636365737300000000\n        /* \"#utility.yul\":30462:30463   */\n      0x00\n        /* \"#utility.yul\":30454:30460   */\n      dup3\n        /* \"#utility.yul\":30450:30464   */\n      add\n        /* \"#utility.yul\":30443:30497   */\n      mstore\n        /* \"#utility.yul\":30326:30504   */\n      pop\n      jump\t// out\n        /* \"#utility.yul\":30510:30691   */\n    tag_529:\n        /* \"#utility.yul\":30650:30683   */\n      0x4f776e65722053686f756c6420736574206d696e742046656520466972737400\n        /* \"#utility.yul\":30646:30647   */\n      0x00\n        /* \"#utility.yul\":30638:30644   */\n      dup3\n        /* \"#utility.yul\":30634:30648   */\n      add\n        /* \"#utility.yul\":30627:30684   */\n      mstore\n        /* \"#utility.yul\":30510:30691   */\n      pop\n      jump\t// out\n        /* \"#utility.yul\":30697:30874   */\n    tag_534:\n        /* \"#utility.yul\":30837:30866   */\n      0x44726f7073697465206973206e6f74204f70656e6564205965742e0000000000\n        /* \"#utility.yul\":30833:30834   */\n      0x00\n        /* \"#utility.yul\":30825:30831   */\n      dup3\n        /* \"#utility.yul\":30821:30835   */\n      add\n        /* \"#utility.yul\":30814:30867   */\n      mstore\n        /* \"#utility.yul\":30697:30874   */\n      pop\n      jump\t// out\n        /* \"#utility.yul\":30880:31055   */\n    tag_539:\n        /* \"#utility.yul\":31020:31047   */\n      0x4d6178204d696e74696e67204c696d6974207265616368656400000000000000\n        /* \"#utility.yul\":31016:31017   */\n      0x00\n        /* \"#utility.yul\":31008:31014   */\n      dup3\n        /* \"#utility.yul\":31004:31018   */\n      add\n        /* \"#utility.yul\":30997:31048   */\n      mstore\n        /* \"#utility.yul\":30880:31055   */\n      pop\n      jump\t// out\n        /* \"#utility.yul\":31061:31218   */\n    tag_544:\n        /* \"#utility.yul\":31201:31210   */\n      0x53696c7665725f00000000000000000000000000000000000000000000000000\n        /* \"#utility.yul\":31197:31198   */\n      0x00\n        /* \"#utility.yul\":31189:31195   */\n      dup3\n        /* \"#utility.yul\":31185:31199   */\n      add\n        /* \"#utility.yul\":31178:31211   */\n      mstore\n        /* \"#utility.yul\":31061:31218   */\n      pop\n      jump\t// out\n        /* \"#utility.yul\":31224:31444   */\n    tag_549:\n        /* \"#utility.yul\":31364:31398   */\n      0x455243313135353a206d696e7420746f20746865207a65726f20616464726573\n        /* \"#utility.yul\":31360:31361   */\n      0x00\n        /* \"#utility.yul\":31352:31358   */\n      dup3\n        /* \"#utility.yul\":31348:31362   */\n      add\n        /* \"#utility.yul\":31341:31399   */\n      mstore\n        /* \"#utility.yul\":31433:31436   */\n      0x7300000000000000000000000000000000000000000000000000000000000000\n        /* \"#utility.yul\":31428:31430   */\n      0x20\n        /* \"#utility.yul\":31420:31426   */\n      dup3\n        /* \"#utility.yul\":31416:31431   */\n      add\n        /* \"#utility.yul\":31409:31437   */\n      mstore\n        /* \"#utility.yul\":31224:31444   */\n      pop\n      jump\t// out\n        /* \"#utility.yul\":31450:32161   */\n    tag_353:\n        /* \"#utility.yul\":31489:31492   */\n      0x00\n        /* \"#utility.yul\":31527:31531   */\n      0x44\n        /* \"#utility.yul\":31509:31525   */\n      returndatasize\n        /* \"#utility.yul\":31506:31532   */\n      lt\n        /* \"#utility.yul\":31503:31542   */\n      iszero\n      tag_729\n      jumpi\n        /* \"#utility.yul\":31535:31540   */\n      jump(tag_728)\n        /* \"#utility.yul\":31503:31542   */\n    tag_729:\n        /* \"#utility.yul\":31564:31584   */\n      tag_730\n      tag_623\n      jump\t// in\n    tag_730:\n        /* \"#utility.yul\":31639:31640   */\n      0x04\n        /* \"#utility.yul\":31621:31637   */\n      returndatasize\n        /* \"#utility.yul\":31617:31641   */\n      sub\n        /* \"#utility.yul\":31614:31615   */\n      0x04\n        /* \"#utility.yul\":31608:31612   */\n      dup3\n        /* \"#utility.yul\":31593:31642   */\n      returndatacopy\n        /* \"#utility.yul\":31672:31676   */\n      dup1\n        /* \"#utility.yul\":31666:31677   */\n      mload\n        /* \"#utility.yul\":31771:31787   */\n      returndatasize\n        /* \"#utility.yul\":31764:31768   */\n      0x24\n        /* \"#utility.yul\":31756:31762   */\n      dup3\n        /* \"#utility.yul\":31752:31769   */\n      add\n        /* \"#utility.yul\":31749:31788   */\n      gt\n        /* \"#utility.yul\":31716:31734   */\n      0xffffffffffffffff\n        /* \"#utility.yul\":31708:31714   */\n      dup3\n        /* \"#utility.yul\":31705:31735   */\n      gt\n        /* \"#utility.yul\":31689:31802   */\n      or\n        /* \"#utility.yul\":31686:31832   */\n      iszero\n      tag_731\n      jumpi\n        /* \"#utility.yul\":31817:31822   */\n      pop\n      pop\n      jump(tag_728)\n        /* \"#utility.yul\":31686:31832   */\n    tag_731:\n        /* \"#utility.yul\":31863:31869   */\n      dup1\n        /* \"#utility.yul\":31857:31861   */\n      dup3\n        /* \"#utility.yul\":31853:31870   */\n      add\n        /* \"#utility.yul\":31899:31902   */\n      dup1\n        /* \"#utility.yul\":31893:31903   */\n      mload\n        /* \"#utility.yul\":31926:31944   */\n      0xffffffffffffffff\n        /* \"#utility.yul\":31918:31924   */\n      dup2\n        /* \"#utility.yul\":31915:31945   */\n      gt\n        /* \"#utility.yul\":31912:31955   */\n      iszero\n      tag_732\n      jumpi\n        /* \"#utility.yul\":31948:31953   */\n      pop\n      pop\n      pop\n      pop\n      jump(tag_728)\n        /* \"#utility.yul\":31912:31955   */\n    tag_732:\n        /* \"#utility.yul\":31996:32002   */\n      dup1\n        /* \"#utility.yul\":31989:31993   */\n      0x20\n        /* \"#utility.yul\":31984:31987   */\n      dup4\n        /* \"#utility.yul\":31980:31994   */\n      add\n        /* \"#utility.yul\":31976:32003   */\n      add\n        /* \"#utility.yul\":32055:32056   */\n      0x04\n        /* \"#utility.yul\":32037:32053   */\n      returndatasize\n        /* \"#utility.yul\":32033:32057   */\n      sub\n        /* \"#utility.yul\":32027:32031   */\n      dup6\n        /* \"#utility.yul\":32023:32058   */\n      add\n        /* \"#utility.yul\":32018:32021   */\n      dup2\n        /* \"#utility.yul\":32015:32059   */\n      gt\n        /* \"#utility.yul\":32012:32069   */\n      iszero\n      tag_733\n      jumpi\n        /* \"#utility.yul\":32062:32067   */\n      pop\n      pop\n      pop\n      pop\n      pop\n      jump(tag_728)\n        /* \"#utility.yul\":32012:32069   */\n    tag_733:\n        /* \"#utility.yul\":32079:32136   */\n      tag_734\n        /* \"#utility.yul\":32127:32133   */\n      dup3\n        /* \"#utility.yul\":32121:32125   */\n      0x20\n        /* \"#utility.yul\":32117:32134   */\n      add\n        /* \"#utility.yul\":32109:32115   */\n      dup6\n        /* \"#utility.yul\":32105:32135   */\n      add\n        /* \"#utility.yul\":32099:32103   */\n      dup7\n        /* \"#utility.yul\":32079:32136   */\n      tag_674\n      jump\t// in\n    tag_734:\n        /* \"#utility.yul\":32152:32155   */\n      dup3\n        /* \"#utility.yul\":32145:32155   */\n      swap6\n      pop\n        /* \"#utility.yul\":31493:32161   */\n      pop\n      pop\n      pop\n      pop\n      pop\n        /* \"#utility.yul\":31450:32161   */\n    tag_728:\n      swap1\n      jump\t// out\n        /* \"#utility.yul\":32167:32289   */\n    tag_378:\n        /* \"#utility.yul\":32240:32264   */\n      tag_736\n        /* \"#utility.yul\":32258:32263   */\n      dup2\n        /* \"#utility.yul\":32240:32264   */\n      tag_430\n      jump\t// in\n    tag_736:\n        /* \"#utility.yul\":32233:32238   */\n      dup2\n        /* \"#utility.yul\":32230:32265   */\n      eq\n        /* \"#utility.yul\":32220:32283   */\n      tag_737\n      jumpi\n        /* \"#utility.yul\":32279:32280   */\n      0x00\n        /* \"#utility.yul\":32276:32277   */\n      dup1\n        /* \"#utility.yul\":32269:32281   */\n      revert\n        /* \"#utility.yul\":32220:32283   */\n    tag_737:\n        /* \"#utility.yul\":32167:32289   */\n      pop\n      jump\t// out\n        /* \"#utility.yul\":32295:32433   */\n    tag_382:\n        /* \"#utility.yul\":32376:32408   */\n      tag_739\n        /* \"#utility.yul\":32402:32407   */\n      dup2\n        /* \"#utility.yul\":32376:32408   */\n      tag_421\n      jump\t// in\n    tag_739:\n        /* \"#utility.yul\":32369:32374   */\n      dup2\n        /* \"#utility.yul\":32366:32409   */\n      eq\n        /* \"#utility.yul\":32356:32427   */\n      tag_740\n      jumpi\n        /* \"#utility.yul\":32423:32424   */\n      0x00\n        /* \"#utility.yul\":32420:32421   */\n      dup1\n        /* \"#utility.yul\":32413:32425   */\n      revert\n        /* \"#utility.yul\":32356:32427   */\n    tag_740:\n        /* \"#utility.yul\":32295:32433   */\n      pop\n      jump\t// out\n        /* \"#utility.yul\":32439:32559   */\n    tag_386:\n        /* \"#utility.yul\":32511:32534   */\n      tag_742\n        /* \"#utility.yul\":32528:32533   */\n      dup2\n        /* \"#utility.yul\":32511:32534   */\n      tag_660\n      jump\t// in\n    tag_742:\n        /* \"#utility.yul\":32504:32509   */\n      dup2\n        /* \"#utility.yul\":32501:32535   */\n      eq\n        /* \"#utility.yul\":32491:32553   */\n      tag_743\n      jumpi\n        /* \"#utility.yul\":32549:32550   */\n      0x00\n        /* \"#utility.yul\":32546:32547   */\n      dup1\n        /* \"#utility.yul\":32539:32551   */\n      revert\n        /* \"#utility.yul\":32491:32553   */\n    tag_743:\n        /* \"#utility.yul\":32439:32559   */\n      pop\n      jump\t// out\n        /* \"#utility.yul\":32565:32687   */\n    tag_390:\n        /* \"#utility.yul\":32638:32662   */\n      tag_745\n        /* \"#utility.yul\":32656:32661   */\n      dup2\n        /* \"#utility.yul\":32638:32662   */\n      tag_552\n      jump\t// in\n    tag_745:\n        /* \"#utility.yul\":32631:32636   */\n      dup2\n        /* \"#utility.yul\":32628:32663   */\n      eq\n        /* \"#utility.yul\":32618:32681   */\n      tag_746\n      jumpi\n        /* \"#utility.yul\":32677:32678   */\n      0x00\n        /* \"#utility.yul\":32674:32675   */\n      dup1\n        /* \"#utility.yul\":32667:32679   */\n      revert\n        /* \"#utility.yul\":32618:32681   */\n    tag_746:\n        /* \"#utility.yul\":32565:32687   */\n      pop\n      jump\t// out\n\n    auxdata: 0xa2646970667358221220e5d2831bf07e1b4532a9a3ebbea040d2fbff48207a929eef9e514a076d6ec08f64736f6c63430008070033\n}\n",
				"bytecode": {
					"linkReferences": {},
					"object": "608060405260405180602001604052806000815250600290805190602001906200002b92919062000113565b5060326009556064600a55610352600b556001600e60006101000a81548160ff0219169083151502179055503480156200006457600080fd5b50604051620032af380380620032af83398181016040528101906200008a919062000241565b80600f9080519060200190620000a292919062000113565b5033600e60016101000a81548173ffffffffffffffffffffffffffffffffffffffff021916908373ffffffffffffffffffffffffffffffffffffffff160217905550600060038190555060016004819055506000600681905550600060078190555060006008819055505062000416565b828054620001219062000327565b90600052602060002090601f01602090048101928262000145576000855562000191565b82601f106200016057805160ff191683800117855562000191565b8280016001018555821562000191579182015b828111156200019057825182559160200191906001019062000173565b5b509050620001a09190620001a4565b5090565b5b80821115620001bf576000816000905550600101620001a5565b5090565b6000620001da620001d484620002bb565b62000292565b905082815260208101848484011115620001f957620001f8620003f6565b5b62000206848285620002f1565b509392505050565b600082601f830112620002265762000225620003f1565b5b815162000238848260208601620001c3565b91505092915050565b6000602082840312156200025a576200025962000400565b5b600082015167ffffffffffffffff8111156200027b576200027a620003fb565b5b62000289848285016200020e565b91505092915050565b60006200029e620002b1565b9050620002ac82826200035d565b919050565b6000604051905090565b600067ffffffffffffffff821115620002d957620002d8620003c2565b5b620002e48262000405565b9050602081019050919050565b60005b8381101562000311578082015181840152602081019050620002f4565b8381111562000321576000848401525b50505050565b600060028204905060018216806200034057607f821691505b6020821081141562000357576200035662000393565b5b50919050565b620003688262000405565b810181811067ffffffffffffffff821117156200038a5762000389620003c2565b5b80604052505050565b7f4e487b7100000000000000000000000000000000000000000000000000000000600052602260045260246000fd5b7f4e487b7100000000000000000000000000000000000000000000000000000000600052604160045260246000fd5b600080fd5b600080fd5b600080fd5b600080fd5b6000601f19601f8301169050919050565b612e8980620004266000396000f3fe6080604052600436106100e85760003560e01c80637a5caab31161008a578063b187bd2611610059578063b187bd26146102c5578063b4a99a4e146102f0578063b6db75a01461031b578063eddd0d9c14610346576100e8565b80637a5caab31461022f5780638b7afe2e1461025a578063a6f9dae114610285578063aa90c726146102ae576100e8565b8063225011da116100c6578063225011da146101585780635b27d84e146101955780635e1f0556146101c557806360daa85114610202576100e8565b80630390c11c146100ed5780631546025914610118578063191e2e831461012f575b600080fd5b3480156100f957600080fd5b5061010261036f565b60405161010f9190612552565b60405180910390f35b34801561012457600080fd5b5061012d610379565b005b34801561013b57600080fd5b5061015660048036038101906101519190611dc1565b610483565b005b34801561016457600080fd5b5061017f600480360381019061017a9190611d94565b6105ad565b60405161018c9190612353565b60405180910390f35b6101af60048036038101906101aa9190611e01565b61069d565b6040516101bc9190612353565b60405180910390f35b3480156101d157600080fd5b506101ec60048036038101906101e79190611e01565b61093a565b6040516101f99190612353565b60405180910390f35b34801561020e57600080fd5b50610217610c19565b60405161022693929190612596565b60405180910390f35b34801561023b57600080fd5b50610244610d1f565b6040516102519190612552565b60405180910390f35b34801561026657600080fd5b5061026f610d29565b60405161027c9190612552565b60405180910390f35b34801561029157600080fd5b506102ac60048036038101906102a79190611d94565b610dc8565b005b3480156102ba57600080fd5b506102c3610ef9565b005b3480156102d157600080fd5b506102da611003565b6040516102e79190612375565b60405180910390f35b3480156102fc57600080fd5b50610305611016565b60405161031291906122de565b60405180910390f35b34801561032757600080fd5b5061033061103c565b60405161033d9190612375565b60405180910390f35b34801561035257600080fd5b5061036d60048036038101906103689190611e6e565b6110a5565b005b6000600354905090565b600e60019054906101000a900473ffffffffffffffffffffffffffffffffffffffff1673ffffffffffffffffffffffffffffffffffffffff166103ba611146565b73ffffffffffffffffffffffffffffffffffffffff1614610410576040517f08c379a0000000000000000000000000000000000000000000000000000000008152600401610407906124b2565b60405180910390fd5b60011515600e60009054906101000a900460ff16151514610466576040517f08c379a000000000000000000000000000000000000000000000000000000000815260040161045d90612452565b60405180910390fd5b6000600e60006101000a81548160ff021916908315150217905550565b600e60019054906101000a900473ffffffffffffffffffffffffffffffffffffffff1673ffffffffffffffffffffffffffffffffffffffff166104c4611146565b73ffffffffffffffffffffffffffffffffffffffff161461051a576040517f08c379a0000000000000000000000000000000000000000000000000000000008152600401610511906124b2565b60405180910390fd5b6000479050808210610561576040517f08c379a0000000000000000000000000000000000000000000000000000000008152600401610558906123f2565b60405180910390fd5b8273ffffffffffffffffffffffffffffffffffffffff166108fc839081150290604051600060405180830381858888f193505050501580156105a7573d6000803e3d6000fd5b50505050565b606060001515600e60009054906101000a900460ff16151514610605576040517f08c379a00000000000000000000000000000000000000000000000000000000081526004016105fc906124f2565b60405180910390fd5b600c60008373ffffffffffffffffffffffffffffffffffffffff1673ffffffffffffffffffffffffffffffffffffffff16815260200190815260200160002060000180548060200260200160405190810160405280929190818152602001828054801561069157602002820191906000526020600020905b81548152602001906001019080831161067d575b50505050509050919050565b606060001515600e60009054906101000a900460ff161515146106f5576040517f08c379a00000000000000000000000000000000000000000000000000000000081526004016106ec906124f2565b60405180910390fd5b6000600554141561073b576040517f08c379a0000000000000000000000000000000000000000000000000000000008152600401610732906124d2565b60405180910390fd5b60048210801561074b5750600082115b61078a576040517f08c379a000000000000000000000000000000000000000000000000000000000815260040161078190612492565b60405180910390fd5b6103e8600354106107d0576040517f08c379a00000000000000000000000000000000000000000000000000000000081526004016107c790612512565b60405180910390fd5b60006005541415610816576040517f08c379a000000000000000000000000000000000000000000000000000000000815260040161080d90612412565b60405180910390fd5b8160055461082491906126be565b3414610865576040517f08c379a000000000000000000000000000000000000000000000000000000000815260040161085c90612432565b60405180910390fd5b606060005b8381101561088e5761087b8561114e565b50508061088790612868565b905061086a565b506108a061089a611146565b34611374565b600c60008573ffffffffffffffffffffffffffffffffffffffff1673ffffffffffffffffffffffffffffffffffffffff16815260200190815260200160002060000180548060200260200160405190810160405280929190818152602001828054801561092c57602002820191906000526020600020905b815481526020019060010190808311610918575b505050505091505092915050565b6060600e60019054906101000a900473ffffffffffffffffffffffffffffffffffffffff1673ffffffffffffffffffffffffffffffffffffffff1661097d611146565b73ffffffffffffffffffffffffffffffffffffffff16146109d3576040517f08c379a00000000000000000000000000000000000000000000000000000000081526004016109ca906124b2565b60405180910390fd5b60001515600e60009054906101000a900460ff16151514610a29576040517f08c379a0000000000000000000000000000000000000000000000000000000008152600401610a20906124f2565b60405180910390fd5b60006005541415610a6f576040517f08c379a0000000000000000000000000000000000000000000000000000000008152600401610a66906124d2565b60405180910390fd5b600482108015610a7f5750600082115b610abe576040517f08c379a0000000000000000000000000000000000000000000000000000000008152600401610ab590612492565b60405180910390fd5b6103e860035410610b04576040517f08c379a0000000000000000000000000000000000000000000000000000000008152600401610afb90612512565b60405180910390fd5b60006005541415610b4a576040517f08c379a0000000000000000000000000000000000000000000000000000000008152600401610b4190612412565b60405180910390fd5b6000606060005b84811015610b7d57610b628661114e565b80935081945050508080610b7590612868565b915050610b51565b50600c60008673ffffffffffffffffffffffffffffffffffffffff1673ffffffffffffffffffffffffffffffffffffffff168152602001908152602001600020600001805480602002602001604051908101604052809291908181526020018280548015610c0a57602002820191906000526020600020905b815481526020019060010190808311610bf6575b50505050509250505092915050565b6000806000600e60019054906101000a900473ffffffffffffffffffffffffffffffffffffffff1673ffffffffffffffffffffffffffffffffffffffff16610c5f611146565b73ffffffffffffffffffffffffffffffffffffffff1614610cb5576040517f08c379a0000000000000000000000000000000000000000000000000000000008152600401610cac906124b2565b60405180910390fd5b60001515600e60009054906101000a900460ff16151514610d0b576040517f08c379a0000000000000000000000000000000000000000000000000000000008152600401610d02906124f2565b60405180910390fd5b600654600754600854925092509250909192565b6000600554905090565b6000600e60019054906101000a900473ffffffffffffffffffffffffffffffffffffffff1673ffffffffffffffffffffffffffffffffffffffff16610d6c611146565b73ffffffffffffffffffffffffffffffffffffffff1614610dc2576040517f08c379a0000000000000000000000000000000000000000000000000000000008152600401610db9906124b2565b60405180910390fd5b47905090565b600e60019054906101000a900473ffffffffffffffffffffffffffffffffffffffff1673ffffffffffffffffffffffffffffffffffffffff16610e09611146565b73ffffffffffffffffffffffffffffffffffffffff1614610e5f576040517f08c379a0000000000000000000000000000000000000000000000000000000008152600401610e56906124b2565b60405180910390fd5b60001515600e60009054906101000a900460ff16151514610eb5576040517f08c379a0000000000000000000000000000000000000000000000000000000008152600401610eac906124f2565b60405180910390fd5b80600e60016101000a81548173ffffffffffffffffffffffffffffffffffffffff021916908373ffffffffffffffffffffffffffffffffffffffff16021790555050565b600e60019054906101000a900473ffffffffffffffffffffffffffffffffffffffff1673ffffffffffffffffffffffffffffffffffffffff16610f3a611146565b73ffffffffffffffffffffffffffffffffffffffff1614610f90576040517f08c379a0000000000000000000000000000000000000000000000000000000008152600401610f87906124b2565b60405180910390fd5b60001515600e60009054906101000a900460ff16151514610fe6576040517f08c379a0000000000000000000000000000000000000000000000000000000008152600401610fdd90612472565b60405180910390fd5b6001600e60006101000a81548160ff021916908315150217905550565b600e60009054906101000a900460ff1681565b600e60019054906101000a900473ffffffffffffffffffffffffffffffffffffffff1681565b6000600e60019054906101000a900473ffffffffffffffffffffffffffffffffffffffff1673ffffffffffffffffffffffffffffffffffffffff163373ffffffffffffffffffffffffffffffffffffffff16141561109d57600190506110a2565b600090505b90565b600e60019054906101000a900473ffffffffffffffffffffffffffffffffffffffff1673ffffffffffffffffffffffffffffffffffffffff166110e6611146565b73ffffffffffffffffffffffffffffffffffffffff161461113c576040517f08c379a0000000000000000000000000000000000000000000000000000000008152600401611133906124b2565b60405180910390fd5b8060058190555050565b600033905090565b6000606060001515600e60009054906101000a900460ff161515146111a8576040517f08c379a000000000000000000000000000000000000000000000000000000000815260040161119f906124f2565b60405180910390fd5b60006111b26113ce565b905060006111bf8261145e565b90506112598582600454600280546111d690612805565b80601f016020809104026020016040519081016040528092919081815260200182805461120290612805565b801561124f5780601f106112245761010080835404028352916020019161124f565b820191906000526020600020905b81548152906001019060200180831161123257829003601f168201915b505050505061172a565b6003600081548092919061126c90612868565b9190505550600c60008673ffffffffffffffffffffffffffffffffffffffff1673ffffffffffffffffffffffffffffffffffffffff1681526020019081526020016000206000018190806001815401808255809150506001900390600052602060002001600090919091909150558060028080546112e990612805565b80601f016020809104026020016040519081016040528092919081815260200182805461131590612805565b80156113625780601f1061133757610100808354040283529160200191611362565b820191906000526020600020905b81548152906001019060200180831161134557829003601f168201915b50505050509050935093505050915091565b80600d60008473ffffffffffffffffffffffffffffffffffffffff1673ffffffffffffffffffffffffffffffffffffffff16815260200190815260200160002060008282546113c39190612637565b925050819055505050565b600080600654600754600854600354426113e89190612637565b6113f29190612637565b6113fc9190612637565b6114069190612637565b33600e60019054906101000a900473ffffffffffffffffffffffffffffffffffffffff1660405160200161143c939291906122a1565b6040516020818303038152906040528051906020012060001c90508091505090565b6000801515600e60009054906101000a900460ff161515146114b5576040517f08c379a00000000000000000000000000000000000000000000000000000000081526004016114ac906124f2565b60405180910390fd5b600060016014846114c691906128f1565b1480156114d65750600954600654105b1561154057600660008154809291906114ee90612868565b91905055506114fe6006546118c0565b60405160200161150e919061223b565b60405160208183030381529060405260029080519060200190611532929190611c9d565b506000905080915050611725565b600360148461154f91906128f1565b111580156115605750600a54600754105b156115ca576007600081548092919061157890612868565b91905055506115886007546118c0565b604051602001611598919061225d565b604051602081830303815290604052600290805190602001906115bc929190611c9d565b506001905080915050611725565b60036014846115d991906128f1565b1180156115e95750600b54600854105b15611653576008600081548092919061160190612868565b91905055506116116008546118c0565b604051602001611621919061227f565b60405160208183030381529060405260029080519060200190611645929190611c9d565b506002905080915050611725565b600a5460075410156116c457600190506007600081548092919061167690612868565b91905055506116866007546118c0565b604051602001611696919061225d565b604051602081830303815290604052600290805190602001906116ba929190611c9d565b5080915050611725565b60009050600660008154809291906116db90612868565b91905055506116eb6006546118c0565b6040516020016116fb919061223b565b6040516020818303038152906040526002908051906020019061171f929190611c9d565b50809150505b919050565b600073ffffffffffffffffffffffffffffffffffffffff168473ffffffffffffffffffffffffffffffffffffffff16141561179a576040517f08c379a000000000000000000000000000000000000000000000000000000000815260040161179190612532565b60405180910390fd5b60006117a4611146565b90506117c5816000876117b688611a21565b6117bf88611a21565b87611a9b565b8260008086815260200190815260200160002060008773ffffffffffffffffffffffffffffffffffffffff1673ffffffffffffffffffffffffffffffffffffffff16815260200190815260200160002060008282546118249190612637565b925050819055508473ffffffffffffffffffffffffffffffffffffffff16600073ffffffffffffffffffffffffffffffffffffffff168273ffffffffffffffffffffffffffffffffffffffff167fc3d58168c5ae7397731d063d5bbf3d657854427343f4c083240f7aacaa2d0f6287876040516118a292919061256d565b60405180910390a46118b981600087878787611aa3565b5050505050565b60606000821415611908576040518060400160405280600181526020017f30000000000000000000000000000000000000000000000000000000000000008152509050611a1c565b600082905060005b6000821461193a57808061192390612868565b915050600a82611933919061268d565b9150611910565b60008167ffffffffffffffff811115611956576119556129de565b5b6040519080825280601f01601f1916602001820160405280156119885781602001600182028036833780820191505090505b5090505b60008514611a15576001826119a19190612718565b9150600a856119b091906128f1565b60306119bc9190612637565b60f81b8183815181106119d2576119d16129af565b5b60200101907effffffffffffffffffffffffffffffffffffffffffffffffffffffffffffff1916908160001a905350600a85611a0e919061268d565b945061198c565b8093505050505b919050565b60606000600167ffffffffffffffff811115611a4057611a3f6129de565b5b604051908082528060200260200182016040528015611a6e5781602001602082028036833780820191505090505b5090508281600081518110611a8657611a856129af565b5b60200260200101818152505080915050919050565b505050505050565b611ac28473ffffffffffffffffffffffffffffffffffffffff16611c8a565b15611c82578373ffffffffffffffffffffffffffffffffffffffff1663ae89a24887878686866040518663ffffffff1660e01b8152600401611b089594939291906122f9565b602060405180830381600087803b158015611b2257600080fd5b505af1925050508015611b5357506040513d601f19601f82011682018060405250810190611b509190611e41565b60015b611bf957611b5f612a0d565b806308c379a01415611bbc5750611b74612d61565b80611b7f5750611bbe565b806040517f08c379a0000000000000000000000000000000000000000000000000000000008152600401611bb39190612390565b60405180910390fd5b505b6040517f08c379a0000000000000000000000000000000000000000000000000000000008152600401611bf0906123b2565b60405180910390fd5b63ae89a24860e01b7bffffffffffffffffffffffffffffffffffffffffffffffffffffffff1916817bffffffffffffffffffffffffffffffffffffffffffffffffffffffff191614611c80576040517f08c379a0000000000000000000000000000000000000000000000000000000008152600401611c77906123d2565b60405180910390fd5b505b505050505050565b600080823b905060008111915050919050565b828054611ca990612805565b90600052602060002090601f016020900481019282611ccb5760008555611d12565b82601f10611ce457805160ff1916838001178555611d12565b82800160010185558215611d12579182015b82811115611d11578251825591602001919060010190611cf6565b5b509050611d1f9190611d23565b5090565b5b80821115611d3c576000816000905550600101611d24565b5090565b600081359050611d4f81612df7565b92915050565b600081359050611d6481612e0e565b92915050565b600081519050611d7981612e25565b92915050565b600081359050611d8e81612e3c565b92915050565b600060208284031215611daa57611da9612a2f565b5b6000611db884828501611d40565b91505092915050565b60008060408385031215611dd857611dd7612a2f565b5b6000611de685828601611d55565b9250506020611df785828601611d7f565b9150509250929050565b60008060408385031215611e1857611e17612a2f565b5b6000611e2685828601611d40565b9250506020611e3785828601611d7f565b9150509250929050565b600060208284031215611e5757611e56612a2f565b5b6000611e6584828501611d6a565b91505092915050565b600060208284031215611e8457611e83612a2f565b5b6000611e9284828501611d7f565b91505092915050565b6000611ea78383612206565b60208301905092915050565b611ebc8161275e565b82525050565b611ed3611ece8261275e565b6128c3565b82525050565b611ee28161274c565b82525050565b611ef9611ef48261274c565b6128b1565b82525050565b6000611f0a826125e7565b611f14818561260a565b9350611f1f836125d7565b8060005b83811015611f50578151611f378882611e9b565b9750611f42836125fd565b925050600181019050611f23565b5085935050505092915050565b611f6681612770565b82525050565b6000611f77826125f2565b611f81818561261b565b9350611f918185602086016127d2565b611f9a81612a34565b840191505092915050565b6000611fb0826125f2565b611fba818561262c565b9350611fca8185602086016127d2565b80840191505092915050565b6000611fe360348361261b565b9150611fee82612a5f565b604082019050919050565b600061200660288361261b565b915061201182612aae565b604082019050919050565b600061202960198361261b565b915061203482612afd565b602082019050919050565b600061204c60088361262c565b915061205782612b26565b600882019050919050565b600061206f60108361261b565b915061207a82612b4f565b602082019050919050565b600061209260058361262c565b915061209d82612b78565b600582019050919050565b60006120b560128361261b565b91506120c082612ba1565b602082019050919050565b60006120d8601b8361261b565b91506120e382612bca565b602082019050919050565b60006120fb601b8361261b565b915061210682612bf3565b602082019050919050565b600061211e60158361261b565b915061212982612c1c565b602082019050919050565b6000612141601c8361261b565b915061214c82612c45565b602082019050919050565b6000612164601f8361261b565b915061216f82612c6e565b602082019050919050565b6000612187601b8361261b565b915061219282612c97565b602082019050919050565b60006121aa60198361261b565b91506121b582612cc0565b602082019050919050565b60006121cd60078361262c565b91506121d882612ce9565b600782019050919050565b60006121f060218361261b565b91506121fb82612d12565b604082019050919050565b61220f816127c8565b82525050565b61221e816127c8565b82525050565b612235612230826127c8565b6128e7565b82525050565b60006122468261203f565b91506122528284611fa5565b915081905092915050565b600061226882612085565b91506122748284611fa5565b915081905092915050565b600061228a826121c0565b91506122968284611fa5565b915081905092915050565b60006122ad8286612224565b6020820191506122bd8285611ee8565b6014820191506122cd8284611ec2565b601482019150819050949350505050565b60006020820190506122f36000830184611eb3565b92915050565b600060a08201905061230e6000830188611ed9565b61231b6020830187611ed9565b6123286040830186612215565b6123356060830185612215565b81810360808301526123478184611f6c565b90509695505050505050565b6000602082019050818103600083015261236d8184611eff565b905092915050565b600060208201905061238a6000830184611f5d565b92915050565b600060208201905081810360008301526123aa8184611f6c565b905092915050565b600060208201905081810360008301526123cb81611fd6565b9050919050565b600060208201905081810360008301526123eb81611ff9565b9050919050565b6000602082019050818103600083015261240b8161201c565b9050919050565b6000602082019050818103600083015261242b81612062565b9050919050565b6000602082019050818103600083015261244b816120a8565b9050919050565b6000602082019050818103600083015261246b816120cb565b9050919050565b6000602082019050818103600083015261248b816120ee565b9050919050565b600060208201905081810360008301526124ab81612111565b9050919050565b600060208201905081810360008301526124cb81612134565b9050919050565b600060208201905081810360008301526124eb81612157565b9050919050565b6000602082019050818103600083015261250b8161217a565b9050919050565b6000602082019050818103600083015261252b8161219d565b9050919050565b6000602082019050818103600083015261254b816121e3565b9050919050565b60006020820190506125676000830184612215565b92915050565b60006040820190506125826000830185612215565b61258f6020830184612215565b9392505050565b60006060820190506125ab6000830186612215565b6125b86020830185612215565b6125c56040830184612215565b949350505050565b6000604051905090565b6000819050602082019050919050565b600081519050919050565b600081519050919050565b6000602082019050919050565b600082825260208201905092915050565b600082825260208201905092915050565b600081905092915050565b6000612642826127c8565b915061264d836127c8565b9250827fffffffffffffffffffffffffffffffffffffffffffffffffffffffffffffffff0382111561268257612681612922565b5b828201905092915050565b6000612698826127c8565b91506126a3836127c8565b9250826126b3576126b2612951565b5b828204905092915050565b60006126c9826127c8565b91506126d4836127c8565b9250817fffffffffffffffffffffffffffffffffffffffffffffffffffffffffffffffff048311821515161561270d5761270c612922565b5b828202905092915050565b6000612723826127c8565b915061272e836127c8565b92508282101561274157612740612922565b5b828203905092915050565b6000612757826127a8565b9050919050565b6000612769826127a8565b9050919050565b60008115159050919050565b60007fffffffff0000000000000000000000000000000000000000000000000000000082169050919050565b600073ffffffffffffffffffffffffffffffffffffffff82169050919050565b6000819050919050565b60005b838110156127f05780820151818401526020810190506127d5565b838111156127ff576000848401525b50505050565b6000600282049050600182168061281d57607f821691505b6020821081141561283157612830612980565b5b50919050565b61284082612a34565b810181811067ffffffffffffffff8211171561285f5761285e6129de565b5b80604052505050565b6000612873826127c8565b91507fffffffffffffffffffffffffffffffffffffffffffffffffffffffffffffffff8214156128a6576128a5612922565b5b600182019050919050565b60006128bc826128d5565b9050919050565b60006128ce826128d5565b9050919050565b60006128e082612a45565b9050919050565b6000819050919050565b60006128fc826127c8565b9150612907836127c8565b92508261291757612916612951565b5b828206905092915050565b7f4e487b7100000000000000000000000000000000000000000000000000000000600052601160045260246000fd5b7f4e487b7100000000000000000000000000000000000000000000000000000000600052601260045260246000fd5b7f4e487b7100000000000000000000000000000000000000000000000000000000600052602260045260246000fd5b7f4e487b7100000000000000000000000000000000000000000000000000000000600052603260045260246000fd5b7f4e487b7100000000000000000000000000000000000000000000000000000000600052604160045260246000fd5b600060033d1115612a2c5760046000803e612a29600051612a52565b90505b90565b600080fd5b6000601f19601f8301169050919050565b60008160601b9050919050565b60008160e01c9050919050565b7f455243313135353a207472616e7366657220746f206e6f6e204552433131353560008201527f526563656976657220696d706c656d656e746572000000000000000000000000602082015250565b7f455243313135353a204552433131353552656365697665722072656a6563746560008201527f6420746f6b656e73000000000000000000000000000000000000000000000000602082015250565b7f4572726f7221204e6f7420456e6f7567682042616c616e636500000000000000600082015250565b7f4469616d6f6e645f000000000000000000000000000000000000000000000000600082015250565b7f4d696e7420466565204e6f742053657400000000000000000000000000000000600082015250565b7f476f6c645f000000000000000000000000000000000000000000000000000000600082015250565b7f4e6f7420456e6f7567682042616c616e63650000000000000000000000000000600082015250565b7f44726f707369746520697320616c72656164792052756e6e696e670000000000600082015250565b7f44726f707369746520697320616c72656164792053746f707065640000000000600082015250565b7f596f752063616e206d696e7420312d33204e4654730000000000000000000000600082015250565b7f4f6e6c79204e46542d4553204f776e65722063616e2041636365737300000000600082015250565b7f4f776e65722053686f756c6420736574206d696e742046656520466972737400600082015250565b7f44726f7073697465206973206e6f74204f70656e6564205965742e0000000000600082015250565b7f4d6178204d696e74696e67204c696d6974207265616368656400000000000000600082015250565b7f53696c7665725f00000000000000000000000000000000000000000000000000600082015250565b7f455243313135353a206d696e7420746f20746865207a65726f2061646472657360008201527f7300000000000000000000000000000000000000000000000000000000000000602082015250565b600060443d1015612d7157612df4565b612d796125cd565b60043d036004823e80513d602482011167ffffffffffffffff82111715612da1575050612df4565b808201805167ffffffffffffffff811115612dbf5750505050612df4565b80602083010160043d038501811115612ddc575050505050612df4565b612deb82602001850186612837565b82955050505050505b90565b612e008161274c565b8114612e0b57600080fd5b50565b612e178161275e565b8114612e2257600080fd5b50565b612e2e8161277c565b8114612e3957600080fd5b50565b612e45816127c8565b8114612e5057600080fd5b5056fea2646970667358221220e5d2831bf07e1b4532a9a3ebbea040d2fbff48207a929eef9e514a076d6ec08f64736f6c63430008070033",
					"opcodes": "PUSH1 0x80 PUSH1 0x40 MSTORE PUSH1 0x40 MLOAD DUP1 PUSH1 0x20 ADD PUSH1 0x40 MSTORE DUP1 PUSH1 0x0 DUP2 MSTORE POP PUSH1 0x2 SWAP1 DUP1 MLOAD SWAP1 PUSH1 0x20 ADD SWAP1 PUSH3 0x2B SWAP3 SWAP2 SWAP1 PUSH3 0x113 JUMP JUMPDEST POP PUSH1 0x32 PUSH1 0x9 SSTORE PUSH1 0x64 PUSH1 0xA SSTORE PUSH2 0x352 PUSH1 0xB SSTORE PUSH1 0x1 PUSH1 0xE PUSH1 0x0 PUSH2 0x100 EXP DUP2 SLOAD DUP2 PUSH1 0xFF MUL NOT AND SWAP1 DUP4 ISZERO ISZERO MUL OR SWAP1 SSTORE POP CALLVALUE DUP1 ISZERO PUSH3 0x64 JUMPI PUSH1 0x0 DUP1 REVERT JUMPDEST POP PUSH1 0x40 MLOAD PUSH3 0x32AF CODESIZE SUB DUP1 PUSH3 0x32AF DUP4 CODECOPY DUP2 DUP2 ADD PUSH1 0x40 MSTORE DUP2 ADD SWAP1 PUSH3 0x8A SWAP2 SWAP1 PUSH3 0x241 JUMP JUMPDEST DUP1 PUSH1 0xF SWAP1 DUP1 MLOAD SWAP1 PUSH1 0x20 ADD SWAP1 PUSH3 0xA2 SWAP3 SWAP2 SWAP1 PUSH3 0x113 JUMP JUMPDEST POP CALLER PUSH1 0xE PUSH1 0x1 PUSH2 0x100 EXP DUP2 SLOAD DUP2 PUSH20 0xFFFFFFFFFFFFFFFFFFFFFFFFFFFFFFFFFFFFFFFF MUL NOT AND SWAP1 DUP4 PUSH20 0xFFFFFFFFFFFFFFFFFFFFFFFFFFFFFFFFFFFFFFFF AND MUL OR SWAP1 SSTORE POP PUSH1 0x0 PUSH1 0x3 DUP2 SWAP1 SSTORE POP PUSH1 0x1 PUSH1 0x4 DUP2 SWAP1 SSTORE POP PUSH1 0x0 PUSH1 0x6 DUP2 SWAP1 SSTORE POP PUSH1 0x0 PUSH1 0x7 DUP2 SWAP1 SSTORE POP PUSH1 0x0 PUSH1 0x8 DUP2 SWAP1 SSTORE POP POP PUSH3 0x416 JUMP JUMPDEST DUP3 DUP1 SLOAD PUSH3 0x121 SWAP1 PUSH3 0x327 JUMP JUMPDEST SWAP1 PUSH1 0x0 MSTORE PUSH1 0x20 PUSH1 0x0 KECCAK256 SWAP1 PUSH1 0x1F ADD PUSH1 0x20 SWAP1 DIV DUP2 ADD SWAP3 DUP3 PUSH3 0x145 JUMPI PUSH1 0x0 DUP6 SSTORE PUSH3 0x191 JUMP JUMPDEST DUP3 PUSH1 0x1F LT PUSH3 0x160 JUMPI DUP1 MLOAD PUSH1 0xFF NOT AND DUP4 DUP1 ADD OR DUP6 SSTORE PUSH3 0x191 JUMP JUMPDEST DUP3 DUP1 ADD PUSH1 0x1 ADD DUP6 SSTORE DUP3 ISZERO PUSH3 0x191 JUMPI SWAP2 DUP3 ADD JUMPDEST DUP3 DUP2 GT ISZERO PUSH3 0x190 JUMPI DUP3 MLOAD DUP3 SSTORE SWAP2 PUSH1 0x20 ADD SWAP2 SWAP1 PUSH1 0x1 ADD SWAP1 PUSH3 0x173 JUMP JUMPDEST JUMPDEST POP SWAP1 POP PUSH3 0x1A0 SWAP2 SWAP1 PUSH3 0x1A4 JUMP JUMPDEST POP SWAP1 JUMP JUMPDEST JUMPDEST DUP1 DUP3 GT ISZERO PUSH3 0x1BF JUMPI PUSH1 0x0 DUP2 PUSH1 0x0 SWAP1 SSTORE POP PUSH1 0x1 ADD PUSH3 0x1A5 JUMP JUMPDEST POP SWAP1 JUMP JUMPDEST PUSH1 0x0 PUSH3 0x1DA PUSH3 0x1D4 DUP5 PUSH3 0x2BB JUMP JUMPDEST PUSH3 0x292 JUMP JUMPDEST SWAP1 POP DUP3 DUP2 MSTORE PUSH1 0x20 DUP2 ADD DUP5 DUP5 DUP5 ADD GT ISZERO PUSH3 0x1F9 JUMPI PUSH3 0x1F8 PUSH3 0x3F6 JUMP JUMPDEST JUMPDEST PUSH3 0x206 DUP5 DUP3 DUP6 PUSH3 0x2F1 JUMP JUMPDEST POP SWAP4 SWAP3 POP POP POP JUMP JUMPDEST PUSH1 0x0 DUP3 PUSH1 0x1F DUP4 ADD SLT PUSH3 0x226 JUMPI PUSH3 0x225 PUSH3 0x3F1 JUMP JUMPDEST JUMPDEST DUP2 MLOAD PUSH3 0x238 DUP5 DUP3 PUSH1 0x20 DUP7 ADD PUSH3 0x1C3 JUMP JUMPDEST SWAP2 POP POP SWAP3 SWAP2 POP POP JUMP JUMPDEST PUSH1 0x0 PUSH1 0x20 DUP3 DUP5 SUB SLT ISZERO PUSH3 0x25A JUMPI PUSH3 0x259 PUSH3 0x400 JUMP JUMPDEST JUMPDEST PUSH1 0x0 DUP3 ADD MLOAD PUSH8 0xFFFFFFFFFFFFFFFF DUP2 GT ISZERO PUSH3 0x27B JUMPI PUSH3 0x27A PUSH3 0x3FB JUMP JUMPDEST JUMPDEST PUSH3 0x289 DUP5 DUP3 DUP6 ADD PUSH3 0x20E JUMP JUMPDEST SWAP2 POP POP SWAP3 SWAP2 POP POP JUMP JUMPDEST PUSH1 0x0 PUSH3 0x29E PUSH3 0x2B1 JUMP JUMPDEST SWAP1 POP PUSH3 0x2AC DUP3 DUP3 PUSH3 0x35D JUMP JUMPDEST SWAP2 SWAP1 POP JUMP JUMPDEST PUSH1 0x0 PUSH1 0x40 MLOAD SWAP1 POP SWAP1 JUMP JUMPDEST PUSH1 0x0 PUSH8 0xFFFFFFFFFFFFFFFF DUP3 GT ISZERO PUSH3 0x2D9 JUMPI PUSH3 0x2D8 PUSH3 0x3C2 JUMP JUMPDEST JUMPDEST PUSH3 0x2E4 DUP3 PUSH3 0x405 JUMP JUMPDEST SWAP1 POP PUSH1 0x20 DUP2 ADD SWAP1 POP SWAP2 SWAP1 POP JUMP JUMPDEST PUSH1 0x0 JUMPDEST DUP4 DUP2 LT ISZERO PUSH3 0x311 JUMPI DUP1 DUP3 ADD MLOAD DUP2 DUP5 ADD MSTORE PUSH1 0x20 DUP2 ADD SWAP1 POP PUSH3 0x2F4 JUMP JUMPDEST DUP4 DUP2 GT ISZERO PUSH3 0x321 JUMPI PUSH1 0x0 DUP5 DUP5 ADD MSTORE JUMPDEST POP POP POP POP JUMP JUMPDEST PUSH1 0x0 PUSH1 0x2 DUP3 DIV SWAP1 POP PUSH1 0x1 DUP3 AND DUP1 PUSH3 0x340 JUMPI PUSH1 0x7F DUP3 AND SWAP2 POP JUMPDEST PUSH1 0x20 DUP3 LT DUP2 EQ ISZERO PUSH3 0x357 JUMPI PUSH3 0x356 PUSH3 0x393 JUMP JUMPDEST JUMPDEST POP SWAP2 SWAP1 POP JUMP JUMPDEST PUSH3 0x368 DUP3 PUSH3 0x405 JUMP JUMPDEST DUP2 ADD DUP2 DUP2 LT PUSH8 0xFFFFFFFFFFFFFFFF DUP3 GT OR ISZERO PUSH3 0x38A JUMPI PUSH3 0x389 PUSH3 0x3C2 JUMP JUMPDEST JUMPDEST DUP1 PUSH1 0x40 MSTORE POP POP POP JUMP JUMPDEST PUSH32 0x4E487B7100000000000000000000000000000000000000000000000000000000 PUSH1 0x0 MSTORE PUSH1 0x22 PUSH1 0x4 MSTORE PUSH1 0x24 PUSH1 0x0 REVERT JUMPDEST PUSH32 0x4E487B7100000000000000000000000000000000000000000000000000000000 PUSH1 0x0 MSTORE PUSH1 0x41 PUSH1 0x4 MSTORE PUSH1 0x24 PUSH1 0x0 REVERT JUMPDEST PUSH1 0x0 DUP1 REVERT JUMPDEST PUSH1 0x0 DUP1 REVERT JUMPDEST PUSH1 0x0 DUP1 REVERT JUMPDEST PUSH1 0x0 DUP1 REVERT JUMPDEST PUSH1 0x0 PUSH1 0x1F NOT PUSH1 0x1F DUP4 ADD AND SWAP1 POP SWAP2 SWAP1 POP JUMP JUMPDEST PUSH2 0x2E89 DUP1 PUSH3 0x426 PUSH1 0x0 CODECOPY PUSH1 0x0 RETURN INVALID PUSH1 0x80 PUSH1 0x40 MSTORE PUSH1 0x4 CALLDATASIZE LT PUSH2 0xE8 JUMPI PUSH1 0x0 CALLDATALOAD PUSH1 0xE0 SHR DUP1 PUSH4 0x7A5CAAB3 GT PUSH2 0x8A JUMPI DUP1 PUSH4 0xB187BD26 GT PUSH2 0x59 JUMPI DUP1 PUSH4 0xB187BD26 EQ PUSH2 0x2C5 JUMPI DUP1 PUSH4 0xB4A99A4E EQ PUSH2 0x2F0 JUMPI DUP1 PUSH4 0xB6DB75A0 EQ PUSH2 0x31B JUMPI DUP1 PUSH4 0xEDDD0D9C EQ PUSH2 0x346 JUMPI PUSH2 0xE8 JUMP JUMPDEST DUP1 PUSH4 0x7A5CAAB3 EQ PUSH2 0x22F JUMPI DUP1 PUSH4 0x8B7AFE2E EQ PUSH2 0x25A JUMPI DUP1 PUSH4 0xA6F9DAE1 EQ PUSH2 0x285 JUMPI DUP1 PUSH4 0xAA90C726 EQ PUSH2 0x2AE JUMPI PUSH2 0xE8 JUMP JUMPDEST DUP1 PUSH4 0x225011DA GT PUSH2 0xC6 JUMPI DUP1 PUSH4 0x225011DA EQ PUSH2 0x158 JUMPI DUP1 PUSH4 0x5B27D84E EQ PUSH2 0x195 JUMPI DUP1 PUSH4 0x5E1F0556 EQ PUSH2 0x1C5 JUMPI DUP1 PUSH4 0x60DAA851 EQ PUSH2 0x202 JUMPI PUSH2 0xE8 JUMP JUMPDEST DUP1 PUSH4 0x390C11C EQ PUSH2 0xED JUMPI DUP1 PUSH4 0x15460259 EQ PUSH2 0x118 JUMPI DUP1 PUSH4 0x191E2E83 EQ PUSH2 0x12F JUMPI JUMPDEST PUSH1 0x0 DUP1 REVERT JUMPDEST CALLVALUE DUP1 ISZERO PUSH2 0xF9 JUMPI PUSH1 0x0 DUP1 REVERT JUMPDEST POP PUSH2 0x102 PUSH2 0x36F JUMP JUMPDEST PUSH1 0x40 MLOAD PUSH2 0x10F SWAP2 SWAP1 PUSH2 0x2552 JUMP JUMPDEST PUSH1 0x40 MLOAD DUP1 SWAP2 SUB SWAP1 RETURN JUMPDEST CALLVALUE DUP1 ISZERO PUSH2 0x124 JUMPI PUSH1 0x0 DUP1 REVERT JUMPDEST POP PUSH2 0x12D PUSH2 0x379 JUMP JUMPDEST STOP JUMPDEST CALLVALUE DUP1 ISZERO PUSH2 0x13B JUMPI PUSH1 0x0 DUP1 REVERT JUMPDEST POP PUSH2 0x156 PUSH1 0x4 DUP1 CALLDATASIZE SUB DUP2 ADD SWAP1 PUSH2 0x151 SWAP2 SWAP1 PUSH2 0x1DC1 JUMP JUMPDEST PUSH2 0x483 JUMP JUMPDEST STOP JUMPDEST CALLVALUE DUP1 ISZERO PUSH2 0x164 JUMPI PUSH1 0x0 DUP1 REVERT JUMPDEST POP PUSH2 0x17F PUSH1 0x4 DUP1 CALLDATASIZE SUB DUP2 ADD SWAP1 PUSH2 0x17A SWAP2 SWAP1 PUSH2 0x1D94 JUMP JUMPDEST PUSH2 0x5AD JUMP JUMPDEST PUSH1 0x40 MLOAD PUSH2 0x18C SWAP2 SWAP1 PUSH2 0x2353 JUMP JUMPDEST PUSH1 0x40 MLOAD DUP1 SWAP2 SUB SWAP1 RETURN JUMPDEST PUSH2 0x1AF PUSH1 0x4 DUP1 CALLDATASIZE SUB DUP2 ADD SWAP1 PUSH2 0x1AA SWAP2 SWAP1 PUSH2 0x1E01 JUMP JUMPDEST PUSH2 0x69D JUMP JUMPDEST PUSH1 0x40 MLOAD PUSH2 0x1BC SWAP2 SWAP1 PUSH2 0x2353 JUMP JUMPDEST PUSH1 0x40 MLOAD DUP1 SWAP2 SUB SWAP1 RETURN JUMPDEST CALLVALUE DUP1 ISZERO PUSH2 0x1D1 JUMPI PUSH1 0x0 DUP1 REVERT JUMPDEST POP PUSH2 0x1EC PUSH1 0x4 DUP1 CALLDATASIZE SUB DUP2 ADD SWAP1 PUSH2 0x1E7 SWAP2 SWAP1 PUSH2 0x1E01 JUMP JUMPDEST PUSH2 0x93A JUMP JUMPDEST PUSH1 0x40 MLOAD PUSH2 0x1F9 SWAP2 SWAP1 PUSH2 0x2353 JUMP JUMPDEST PUSH1 0x40 MLOAD DUP1 SWAP2 SUB SWAP1 RETURN JUMPDEST CALLVALUE DUP1 ISZERO PUSH2 0x20E JUMPI PUSH1 0x0 DUP1 REVERT JUMPDEST POP PUSH2 0x217 PUSH2 0xC19 JUMP JUMPDEST PUSH1 0x40 MLOAD PUSH2 0x226 SWAP4 SWAP3 SWAP2 SWAP1 PUSH2 0x2596 JUMP JUMPDEST PUSH1 0x40 MLOAD DUP1 SWAP2 SUB SWAP1 RETURN JUMPDEST CALLVALUE DUP1 ISZERO PUSH2 0x23B JUMPI PUSH1 0x0 DUP1 REVERT JUMPDEST POP PUSH2 0x244 PUSH2 0xD1F JUMP JUMPDEST PUSH1 0x40 MLOAD PUSH2 0x251 SWAP2 SWAP1 PUSH2 0x2552 JUMP JUMPDEST PUSH1 0x40 MLOAD DUP1 SWAP2 SUB SWAP1 RETURN JUMPDEST CALLVALUE DUP1 ISZERO PUSH2 0x266 JUMPI PUSH1 0x0 DUP1 REVERT JUMPDEST POP PUSH2 0x26F PUSH2 0xD29 JUMP JUMPDEST PUSH1 0x40 MLOAD PUSH2 0x27C SWAP2 SWAP1 PUSH2 0x2552 JUMP JUMPDEST PUSH1 0x40 MLOAD DUP1 SWAP2 SUB SWAP1 RETURN JUMPDEST CALLVALUE DUP1 ISZERO PUSH2 0x291 JUMPI PUSH1 0x0 DUP1 REVERT JUMPDEST POP PUSH2 0x2AC PUSH1 0x4 DUP1 CALLDATASIZE SUB DUP2 ADD SWAP1 PUSH2 0x2A7 SWAP2 SWAP1 PUSH2 0x1D94 JUMP JUMPDEST PUSH2 0xDC8 JUMP JUMPDEST STOP JUMPDEST CALLVALUE DUP1 ISZERO PUSH2 0x2BA JUMPI PUSH1 0x0 DUP1 REVERT JUMPDEST POP PUSH2 0x2C3 PUSH2 0xEF9 JUMP JUMPDEST STOP JUMPDEST CALLVALUE DUP1 ISZERO PUSH2 0x2D1 JUMPI PUSH1 0x0 DUP1 REVERT JUMPDEST POP PUSH2 0x2DA PUSH2 0x1003 JUMP JUMPDEST PUSH1 0x40 MLOAD PUSH2 0x2E7 SWAP2 SWAP1 PUSH2 0x2375 JUMP JUMPDEST PUSH1 0x40 MLOAD DUP1 SWAP2 SUB SWAP1 RETURN JUMPDEST CALLVALUE DUP1 ISZERO PUSH2 0x2FC JUMPI PUSH1 0x0 DUP1 REVERT JUMPDEST POP PUSH2 0x305 PUSH2 0x1016 JUMP JUMPDEST PUSH1 0x40 MLOAD PUSH2 0x312 SWAP2 SWAP1 PUSH2 0x22DE JUMP JUMPDEST PUSH1 0x40 MLOAD DUP1 SWAP2 SUB SWAP1 RETURN JUMPDEST CALLVALUE DUP1 ISZERO PUSH2 0x327 JUMPI PUSH1 0x0 DUP1 REVERT JUMPDEST POP PUSH2 0x330 PUSH2 0x103C JUMP JUMPDEST PUSH1 0x40 MLOAD PUSH2 0x33D SWAP2 SWAP1 PUSH2 0x2375 JUMP JUMPDEST PUSH1 0x40 MLOAD DUP1 SWAP2 SUB SWAP1 RETURN JUMPDEST CALLVALUE DUP1 ISZERO PUSH2 0x352 JUMPI PUSH1 0x0 DUP1 REVERT JUMPDEST POP PUSH2 0x36D PUSH1 0x4 DUP1 CALLDATASIZE SUB DUP2 ADD SWAP1 PUSH2 0x368 SWAP2 SWAP1 PUSH2 0x1E6E JUMP JUMPDEST PUSH2 0x10A5 JUMP JUMPDEST STOP JUMPDEST PUSH1 0x0 PUSH1 0x3 SLOAD SWAP1 POP SWAP1 JUMP JUMPDEST PUSH1 0xE PUSH1 0x1 SWAP1 SLOAD SWAP1 PUSH2 0x100 EXP SWAP1 DIV PUSH20 0xFFFFFFFFFFFFFFFFFFFFFFFFFFFFFFFFFFFFFFFF AND PUSH20 0xFFFFFFFFFFFFFFFFFFFFFFFFFFFFFFFFFFFFFFFF AND PUSH2 0x3BA PUSH2 0x1146 JUMP JUMPDEST PUSH20 0xFFFFFFFFFFFFFFFFFFFFFFFFFFFFFFFFFFFFFFFF AND EQ PUSH2 0x410 JUMPI PUSH1 0x40 MLOAD PUSH32 0x8C379A000000000000000000000000000000000000000000000000000000000 DUP2 MSTORE PUSH1 0x4 ADD PUSH2 0x407 SWAP1 PUSH2 0x24B2 JUMP JUMPDEST PUSH1 0x40 MLOAD DUP1 SWAP2 SUB SWAP1 REVERT JUMPDEST PUSH1 0x1 ISZERO ISZERO PUSH1 0xE PUSH1 0x0 SWAP1 SLOAD SWAP1 PUSH2 0x100 EXP SWAP1 DIV PUSH1 0xFF AND ISZERO ISZERO EQ PUSH2 0x466 JUMPI PUSH1 0x40 MLOAD PUSH32 0x8C379A000000000000000000000000000000000000000000000000000000000 DUP2 MSTORE PUSH1 0x4 ADD PUSH2 0x45D SWAP1 PUSH2 0x2452 JUMP JUMPDEST PUSH1 0x40 MLOAD DUP1 SWAP2 SUB SWAP1 REVERT JUMPDEST PUSH1 0x0 PUSH1 0xE PUSH1 0x0 PUSH2 0x100 EXP DUP2 SLOAD DUP2 PUSH1 0xFF MUL NOT AND SWAP1 DUP4 ISZERO ISZERO MUL OR SWAP1 SSTORE POP JUMP JUMPDEST PUSH1 0xE PUSH1 0x1 SWAP1 SLOAD SWAP1 PUSH2 0x100 EXP SWAP1 DIV PUSH20 0xFFFFFFFFFFFFFFFFFFFFFFFFFFFFFFFFFFFFFFFF AND PUSH20 0xFFFFFFFFFFFFFFFFFFFFFFFFFFFFFFFFFFFFFFFF AND PUSH2 0x4C4 PUSH2 0x1146 JUMP JUMPDEST PUSH20 0xFFFFFFFFFFFFFFFFFFFFFFFFFFFFFFFFFFFFFFFF AND EQ PUSH2 0x51A JUMPI PUSH1 0x40 MLOAD PUSH32 0x8C379A000000000000000000000000000000000000000000000000000000000 DUP2 MSTORE PUSH1 0x4 ADD PUSH2 0x511 SWAP1 PUSH2 0x24B2 JUMP JUMPDEST PUSH1 0x40 MLOAD DUP1 SWAP2 SUB SWAP1 REVERT JUMPDEST PUSH1 0x0 SELFBALANCE SWAP1 POP DUP1 DUP3 LT PUSH2 0x561 JUMPI PUSH1 0x40 MLOAD PUSH32 0x8C379A000000000000000000000000000000000000000000000000000000000 DUP2 MSTORE PUSH1 0x4 ADD PUSH2 0x558 SWAP1 PUSH2 0x23F2 JUMP JUMPDEST PUSH1 0x40 MLOAD DUP1 SWAP2 SUB SWAP1 REVERT JUMPDEST DUP3 PUSH20 0xFFFFFFFFFFFFFFFFFFFFFFFFFFFFFFFFFFFFFFFF AND PUSH2 0x8FC DUP4 SWAP1 DUP2 ISZERO MUL SWAP1 PUSH1 0x40 MLOAD PUSH1 0x0 PUSH1 0x40 MLOAD DUP1 DUP4 SUB DUP2 DUP6 DUP9 DUP9 CALL SWAP4 POP POP POP POP ISZERO DUP1 ISZERO PUSH2 0x5A7 JUMPI RETURNDATASIZE PUSH1 0x0 DUP1 RETURNDATACOPY RETURNDATASIZE PUSH1 0x0 REVERT JUMPDEST POP POP POP POP JUMP JUMPDEST PUSH1 0x60 PUSH1 0x0 ISZERO ISZERO PUSH1 0xE PUSH1 0x0 SWAP1 SLOAD SWAP1 PUSH2 0x100 EXP SWAP1 DIV PUSH1 0xFF AND ISZERO ISZERO EQ PUSH2 0x605 JUMPI PUSH1 0x40 MLOAD PUSH32 0x8C379A000000000000000000000000000000000000000000000000000000000 DUP2 MSTORE PUSH1 0x4 ADD PUSH2 0x5FC SWAP1 PUSH2 0x24F2 JUMP JUMPDEST PUSH1 0x40 MLOAD DUP1 SWAP2 SUB SWAP1 REVERT JUMPDEST PUSH1 0xC PUSH1 0x0 DUP4 PUSH20 0xFFFFFFFFFFFFFFFFFFFFFFFFFFFFFFFFFFFFFFFF AND PUSH20 0xFFFFFFFFFFFFFFFFFFFFFFFFFFFFFFFFFFFFFFFF AND DUP2 MSTORE PUSH1 0x20 ADD SWAP1 DUP2 MSTORE PUSH1 0x20 ADD PUSH1 0x0 KECCAK256 PUSH1 0x0 ADD DUP1 SLOAD DUP1 PUSH1 0x20 MUL PUSH1 0x20 ADD PUSH1 0x40 MLOAD SWAP1 DUP2 ADD PUSH1 0x40 MSTORE DUP1 SWAP3 SWAP2 SWAP1 DUP2 DUP2 MSTORE PUSH1 0x20 ADD DUP3 DUP1 SLOAD DUP1 ISZERO PUSH2 0x691 JUMPI PUSH1 0x20 MUL DUP3 ADD SWAP2 SWAP1 PUSH1 0x0 MSTORE PUSH1 0x20 PUSH1 0x0 KECCAK256 SWAP1 JUMPDEST DUP2 SLOAD DUP2 MSTORE PUSH1 0x20 ADD SWAP1 PUSH1 0x1 ADD SWAP1 DUP1 DUP4 GT PUSH2 0x67D JUMPI JUMPDEST POP POP POP POP POP SWAP1 POP SWAP2 SWAP1 POP JUMP JUMPDEST PUSH1 0x60 PUSH1 0x0 ISZERO ISZERO PUSH1 0xE PUSH1 0x0 SWAP1 SLOAD SWAP1 PUSH2 0x100 EXP SWAP1 DIV PUSH1 0xFF AND ISZERO ISZERO EQ PUSH2 0x6F5 JUMPI PUSH1 0x40 MLOAD PUSH32 0x8C379A000000000000000000000000000000000000000000000000000000000 DUP2 MSTORE PUSH1 0x4 ADD PUSH2 0x6EC SWAP1 PUSH2 0x24F2 JUMP JUMPDEST PUSH1 0x40 MLOAD DUP1 SWAP2 SUB SWAP1 REVERT JUMPDEST PUSH1 0x0 PUSH1 0x5 SLOAD EQ ISZERO PUSH2 0x73B JUMPI PUSH1 0x40 MLOAD PUSH32 0x8C379A000000000000000000000000000000000000000000000000000000000 DUP2 MSTORE PUSH1 0x4 ADD PUSH2 0x732 SWAP1 PUSH2 0x24D2 JUMP JUMPDEST PUSH1 0x40 MLOAD DUP1 SWAP2 SUB SWAP1 REVERT JUMPDEST PUSH1 0x4 DUP3 LT DUP1 ISZERO PUSH2 0x74B JUMPI POP PUSH1 0x0 DUP3 GT JUMPDEST PUSH2 0x78A JUMPI PUSH1 0x40 MLOAD PUSH32 0x8C379A000000000000000000000000000000000000000000000000000000000 DUP2 MSTORE PUSH1 0x4 ADD PUSH2 0x781 SWAP1 PUSH2 0x2492 JUMP JUMPDEST PUSH1 0x40 MLOAD DUP1 SWAP2 SUB SWAP1 REVERT JUMPDEST PUSH2 0x3E8 PUSH1 0x3 SLOAD LT PUSH2 0x7D0 JUMPI PUSH1 0x40 MLOAD PUSH32 0x8C379A000000000000000000000000000000000000000000000000000000000 DUP2 MSTORE PUSH1 0x4 ADD PUSH2 0x7C7 SWAP1 PUSH2 0x2512 JUMP JUMPDEST PUSH1 0x40 MLOAD DUP1 SWAP2 SUB SWAP1 REVERT JUMPDEST PUSH1 0x0 PUSH1 0x5 SLOAD EQ ISZERO PUSH2 0x816 JUMPI PUSH1 0x40 MLOAD PUSH32 0x8C379A000000000000000000000000000000000000000000000000000000000 DUP2 MSTORE PUSH1 0x4 ADD PUSH2 0x80D SWAP1 PUSH2 0x2412 JUMP JUMPDEST PUSH1 0x40 MLOAD DUP1 SWAP2 SUB SWAP1 REVERT JUMPDEST DUP2 PUSH1 0x5 SLOAD PUSH2 0x824 SWAP2 SWAP1 PUSH2 0x26BE JUMP JUMPDEST CALLVALUE EQ PUSH2 0x865 JUMPI PUSH1 0x40 MLOAD PUSH32 0x8C379A000000000000000000000000000000000000000000000000000000000 DUP2 MSTORE PUSH1 0x4 ADD PUSH2 0x85C SWAP1 PUSH2 0x2432 JUMP JUMPDEST PUSH1 0x40 MLOAD DUP1 SWAP2 SUB SWAP1 REVERT JUMPDEST PUSH1 0x60 PUSH1 0x0 JUMPDEST DUP4 DUP2 LT ISZERO PUSH2 0x88E JUMPI PUSH2 0x87B DUP6 PUSH2 0x114E JUMP JUMPDEST POP POP DUP1 PUSH2 0x887 SWAP1 PUSH2 0x2868 JUMP JUMPDEST SWAP1 POP PUSH2 0x86A JUMP JUMPDEST POP PUSH2 0x8A0 PUSH2 0x89A PUSH2 0x1146 JUMP JUMPDEST CALLVALUE PUSH2 0x1374 JUMP JUMPDEST PUSH1 0xC PUSH1 0x0 DUP6 PUSH20 0xFFFFFFFFFFFFFFFFFFFFFFFFFFFFFFFFFFFFFFFF AND PUSH20 0xFFFFFFFFFFFFFFFFFFFFFFFFFFFFFFFFFFFFFFFF AND DUP2 MSTORE PUSH1 0x20 ADD SWAP1 DUP2 MSTORE PUSH1 0x20 ADD PUSH1 0x0 KECCAK256 PUSH1 0x0 ADD DUP1 SLOAD DUP1 PUSH1 0x20 MUL PUSH1 0x20 ADD PUSH1 0x40 MLOAD SWAP1 DUP2 ADD PUSH1 0x40 MSTORE DUP1 SWAP3 SWAP2 SWAP1 DUP2 DUP2 MSTORE PUSH1 0x20 ADD DUP3 DUP1 SLOAD DUP1 ISZERO PUSH2 0x92C JUMPI PUSH1 0x20 MUL DUP3 ADD SWAP2 SWAP1 PUSH1 0x0 MSTORE PUSH1 0x20 PUSH1 0x0 KECCAK256 SWAP1 JUMPDEST DUP2 SLOAD DUP2 MSTORE PUSH1 0x20 ADD SWAP1 PUSH1 0x1 ADD SWAP1 DUP1 DUP4 GT PUSH2 0x918 JUMPI JUMPDEST POP POP POP POP POP SWAP2 POP POP SWAP3 SWAP2 POP POP JUMP JUMPDEST PUSH1 0x60 PUSH1 0xE PUSH1 0x1 SWAP1 SLOAD SWAP1 PUSH2 0x100 EXP SWAP1 DIV PUSH20 0xFFFFFFFFFFFFFFFFFFFFFFFFFFFFFFFFFFFFFFFF AND PUSH20 0xFFFFFFFFFFFFFFFFFFFFFFFFFFFFFFFFFFFFFFFF AND PUSH2 0x97D PUSH2 0x1146 JUMP JUMPDEST PUSH20 0xFFFFFFFFFFFFFFFFFFFFFFFFFFFFFFFFFFFFFFFF AND EQ PUSH2 0x9D3 JUMPI PUSH1 0x40 MLOAD PUSH32 0x8C379A000000000000000000000000000000000000000000000000000000000 DUP2 MSTORE PUSH1 0x4 ADD PUSH2 0x9CA SWAP1 PUSH2 0x24B2 JUMP JUMPDEST PUSH1 0x40 MLOAD DUP1 SWAP2 SUB SWAP1 REVERT JUMPDEST PUSH1 0x0 ISZERO ISZERO PUSH1 0xE PUSH1 0x0 SWAP1 SLOAD SWAP1 PUSH2 0x100 EXP SWAP1 DIV PUSH1 0xFF AND ISZERO ISZERO EQ PUSH2 0xA29 JUMPI PUSH1 0x40 MLOAD PUSH32 0x8C379A000000000000000000000000000000000000000000000000000000000 DUP2 MSTORE PUSH1 0x4 ADD PUSH2 0xA20 SWAP1 PUSH2 0x24F2 JUMP JUMPDEST PUSH1 0x40 MLOAD DUP1 SWAP2 SUB SWAP1 REVERT JUMPDEST PUSH1 0x0 PUSH1 0x5 SLOAD EQ ISZERO PUSH2 0xA6F JUMPI PUSH1 0x40 MLOAD PUSH32 0x8C379A000000000000000000000000000000000000000000000000000000000 DUP2 MSTORE PUSH1 0x4 ADD PUSH2 0xA66 SWAP1 PUSH2 0x24D2 JUMP JUMPDEST PUSH1 0x40 MLOAD DUP1 SWAP2 SUB SWAP1 REVERT JUMPDEST PUSH1 0x4 DUP3 LT DUP1 ISZERO PUSH2 0xA7F JUMPI POP PUSH1 0x0 DUP3 GT JUMPDEST PUSH2 0xABE JUMPI PUSH1 0x40 MLOAD PUSH32 0x8C379A000000000000000000000000000000000000000000000000000000000 DUP2 MSTORE PUSH1 0x4 ADD PUSH2 0xAB5 SWAP1 PUSH2 0x2492 JUMP JUMPDEST PUSH1 0x40 MLOAD DUP1 SWAP2 SUB SWAP1 REVERT JUMPDEST PUSH2 0x3E8 PUSH1 0x3 SLOAD LT PUSH2 0xB04 JUMPI PUSH1 0x40 MLOAD PUSH32 0x8C379A000000000000000000000000000000000000000000000000000000000 DUP2 MSTORE PUSH1 0x4 ADD PUSH2 0xAFB SWAP1 PUSH2 0x2512 JUMP JUMPDEST PUSH1 0x40 MLOAD DUP1 SWAP2 SUB SWAP1 REVERT JUMPDEST PUSH1 0x0 PUSH1 0x5 SLOAD EQ ISZERO PUSH2 0xB4A JUMPI PUSH1 0x40 MLOAD PUSH32 0x8C379A000000000000000000000000000000000000000000000000000000000 DUP2 MSTORE PUSH1 0x4 ADD PUSH2 0xB41 SWAP1 PUSH2 0x2412 JUMP JUMPDEST PUSH1 0x40 MLOAD DUP1 SWAP2 SUB SWAP1 REVERT JUMPDEST PUSH1 0x0 PUSH1 0x60 PUSH1 0x0 JUMPDEST DUP5 DUP2 LT ISZERO PUSH2 0xB7D JUMPI PUSH2 0xB62 DUP7 PUSH2 0x114E JUMP JUMPDEST DUP1 SWAP4 POP DUP2 SWAP5 POP POP POP DUP1 DUP1 PUSH2 0xB75 SWAP1 PUSH2 0x2868 JUMP JUMPDEST SWAP2 POP POP PUSH2 0xB51 JUMP JUMPDEST POP PUSH1 0xC PUSH1 0x0 DUP7 PUSH20 0xFFFFFFFFFFFFFFFFFFFFFFFFFFFFFFFFFFFFFFFF AND PUSH20 0xFFFFFFFFFFFFFFFFFFFFFFFFFFFFFFFFFFFFFFFF AND DUP2 MSTORE PUSH1 0x20 ADD SWAP1 DUP2 MSTORE PUSH1 0x20 ADD PUSH1 0x0 KECCAK256 PUSH1 0x0 ADD DUP1 SLOAD DUP1 PUSH1 0x20 MUL PUSH1 0x20 ADD PUSH1 0x40 MLOAD SWAP1 DUP2 ADD PUSH1 0x40 MSTORE DUP1 SWAP3 SWAP2 SWAP1 DUP2 DUP2 MSTORE PUSH1 0x20 ADD DUP3 DUP1 SLOAD DUP1 ISZERO PUSH2 0xC0A JUMPI PUSH1 0x20 MUL DUP3 ADD SWAP2 SWAP1 PUSH1 0x0 MSTORE PUSH1 0x20 PUSH1 0x0 KECCAK256 SWAP1 JUMPDEST DUP2 SLOAD DUP2 MSTORE PUSH1 0x20 ADD SWAP1 PUSH1 0x1 ADD SWAP1 DUP1 DUP4 GT PUSH2 0xBF6 JUMPI JUMPDEST POP POP POP POP POP SWAP3 POP POP POP SWAP3 SWAP2 POP POP JUMP JUMPDEST PUSH1 0x0 DUP1 PUSH1 0x0 PUSH1 0xE PUSH1 0x1 SWAP1 SLOAD SWAP1 PUSH2 0x100 EXP SWAP1 DIV PUSH20 0xFFFFFFFFFFFFFFFFFFFFFFFFFFFFFFFFFFFFFFFF AND PUSH20 0xFFFFFFFFFFFFFFFFFFFFFFFFFFFFFFFFFFFFFFFF AND PUSH2 0xC5F PUSH2 0x1146 JUMP JUMPDEST PUSH20 0xFFFFFFFFFFFFFFFFFFFFFFFFFFFFFFFFFFFFFFFF AND EQ PUSH2 0xCB5 JUMPI PUSH1 0x40 MLOAD PUSH32 0x8C379A000000000000000000000000000000000000000000000000000000000 DUP2 MSTORE PUSH1 0x4 ADD PUSH2 0xCAC SWAP1 PUSH2 0x24B2 JUMP JUMPDEST PUSH1 0x40 MLOAD DUP1 SWAP2 SUB SWAP1 REVERT JUMPDEST PUSH1 0x0 ISZERO ISZERO PUSH1 0xE PUSH1 0x0 SWAP1 SLOAD SWAP1 PUSH2 0x100 EXP SWAP1 DIV PUSH1 0xFF AND ISZERO ISZERO EQ PUSH2 0xD0B JUMPI PUSH1 0x40 MLOAD PUSH32 0x8C379A000000000000000000000000000000000000000000000000000000000 DUP2 MSTORE PUSH1 0x4 ADD PUSH2 0xD02 SWAP1 PUSH2 0x24F2 JUMP JUMPDEST PUSH1 0x40 MLOAD DUP1 SWAP2 SUB SWAP1 REVERT JUMPDEST PUSH1 0x6 SLOAD PUSH1 0x7 SLOAD PUSH1 0x8 SLOAD SWAP3 POP SWAP3 POP SWAP3 POP SWAP1 SWAP2 SWAP3 JUMP JUMPDEST PUSH1 0x0 PUSH1 0x5 SLOAD SWAP1 POP SWAP1 JUMP JUMPDEST PUSH1 0x0 PUSH1 0xE PUSH1 0x1 SWAP1 SLOAD SWAP1 PUSH2 0x100 EXP SWAP1 DIV PUSH20 0xFFFFFFFFFFFFFFFFFFFFFFFFFFFFFFFFFFFFFFFF AND PUSH20 0xFFFFFFFFFFFFFFFFFFFFFFFFFFFFFFFFFFFFFFFF AND PUSH2 0xD6C PUSH2 0x1146 JUMP JUMPDEST PUSH20 0xFFFFFFFFFFFFFFFFFFFFFFFFFFFFFFFFFFFFFFFF AND EQ PUSH2 0xDC2 JUMPI PUSH1 0x40 MLOAD PUSH32 0x8C379A000000000000000000000000000000000000000000000000000000000 DUP2 MSTORE PUSH1 0x4 ADD PUSH2 0xDB9 SWAP1 PUSH2 0x24B2 JUMP JUMPDEST PUSH1 0x40 MLOAD DUP1 SWAP2 SUB SWAP1 REVERT JUMPDEST SELFBALANCE SWAP1 POP SWAP1 JUMP JUMPDEST PUSH1 0xE PUSH1 0x1 SWAP1 SLOAD SWAP1 PUSH2 0x100 EXP SWAP1 DIV PUSH20 0xFFFFFFFFFFFFFFFFFFFFFFFFFFFFFFFFFFFFFFFF AND PUSH20 0xFFFFFFFFFFFFFFFFFFFFFFFFFFFFFFFFFFFFFFFF AND PUSH2 0xE09 PUSH2 0x1146 JUMP JUMPDEST PUSH20 0xFFFFFFFFFFFFFFFFFFFFFFFFFFFFFFFFFFFFFFFF AND EQ PUSH2 0xE5F JUMPI PUSH1 0x40 MLOAD PUSH32 0x8C379A000000000000000000000000000000000000000000000000000000000 DUP2 MSTORE PUSH1 0x4 ADD PUSH2 0xE56 SWAP1 PUSH2 0x24B2 JUMP JUMPDEST PUSH1 0x40 MLOAD DUP1 SWAP2 SUB SWAP1 REVERT JUMPDEST PUSH1 0x0 ISZERO ISZERO PUSH1 0xE PUSH1 0x0 SWAP1 SLOAD SWAP1 PUSH2 0x100 EXP SWAP1 DIV PUSH1 0xFF AND ISZERO ISZERO EQ PUSH2 0xEB5 JUMPI PUSH1 0x40 MLOAD PUSH32 0x8C379A000000000000000000000000000000000000000000000000000000000 DUP2 MSTORE PUSH1 0x4 ADD PUSH2 0xEAC SWAP1 PUSH2 0x24F2 JUMP JUMPDEST PUSH1 0x40 MLOAD DUP1 SWAP2 SUB SWAP1 REVERT JUMPDEST DUP1 PUSH1 0xE PUSH1 0x1 PUSH2 0x100 EXP DUP2 SLOAD DUP2 PUSH20 0xFFFFFFFFFFFFFFFFFFFFFFFFFFFFFFFFFFFFFFFF MUL NOT AND SWAP1 DUP4 PUSH20 0xFFFFFFFFFFFFFFFFFFFFFFFFFFFFFFFFFFFFFFFF AND MUL OR SWAP1 SSTORE POP POP JUMP JUMPDEST PUSH1 0xE PUSH1 0x1 SWAP1 SLOAD SWAP1 PUSH2 0x100 EXP SWAP1 DIV PUSH20 0xFFFFFFFFFFFFFFFFFFFFFFFFFFFFFFFFFFFFFFFF AND PUSH20 0xFFFFFFFFFFFFFFFFFFFFFFFFFFFFFFFFFFFFFFFF AND PUSH2 0xF3A PUSH2 0x1146 JUMP JUMPDEST PUSH20 0xFFFFFFFFFFFFFFFFFFFFFFFFFFFFFFFFFFFFFFFF AND EQ PUSH2 0xF90 JUMPI PUSH1 0x40 MLOAD PUSH32 0x8C379A000000000000000000000000000000000000000000000000000000000 DUP2 MSTORE PUSH1 0x4 ADD PUSH2 0xF87 SWAP1 PUSH2 0x24B2 JUMP JUMPDEST PUSH1 0x40 MLOAD DUP1 SWAP2 SUB SWAP1 REVERT JUMPDEST PUSH1 0x0 ISZERO ISZERO PUSH1 0xE PUSH1 0x0 SWAP1 SLOAD SWAP1 PUSH2 0x100 EXP SWAP1 DIV PUSH1 0xFF AND ISZERO ISZERO EQ PUSH2 0xFE6 JUMPI PUSH1 0x40 MLOAD PUSH32 0x8C379A000000000000000000000000000000000000000000000000000000000 DUP2 MSTORE PUSH1 0x4 ADD PUSH2 0xFDD SWAP1 PUSH2 0x2472 JUMP JUMPDEST PUSH1 0x40 MLOAD DUP1 SWAP2 SUB SWAP1 REVERT JUMPDEST PUSH1 0x1 PUSH1 0xE PUSH1 0x0 PUSH2 0x100 EXP DUP2 SLOAD DUP2 PUSH1 0xFF MUL NOT AND SWAP1 DUP4 ISZERO ISZERO MUL OR SWAP1 SSTORE POP JUMP JUMPDEST PUSH1 0xE PUSH1 0x0 SWAP1 SLOAD SWAP1 PUSH2 0x100 EXP SWAP1 DIV PUSH1 0xFF AND DUP2 JUMP JUMPDEST PUSH1 0xE PUSH1 0x1 SWAP1 SLOAD SWAP1 PUSH2 0x100 EXP SWAP1 DIV PUSH20 0xFFFFFFFFFFFFFFFFFFFFFFFFFFFFFFFFFFFFFFFF AND DUP2 JUMP JUMPDEST PUSH1 0x0 PUSH1 0xE PUSH1 0x1 SWAP1 SLOAD SWAP1 PUSH2 0x100 EXP SWAP1 DIV PUSH20 0xFFFFFFFFFFFFFFFFFFFFFFFFFFFFFFFFFFFFFFFF AND PUSH20 0xFFFFFFFFFFFFFFFFFFFFFFFFFFFFFFFFFFFFFFFF AND CALLER PUSH20 0xFFFFFFFFFFFFFFFFFFFFFFFFFFFFFFFFFFFFFFFF AND EQ ISZERO PUSH2 0x109D JUMPI PUSH1 0x1 SWAP1 POP PUSH2 0x10A2 JUMP JUMPDEST PUSH1 0x0 SWAP1 POP JUMPDEST SWAP1 JUMP JUMPDEST PUSH1 0xE PUSH1 0x1 SWAP1 SLOAD SWAP1 PUSH2 0x100 EXP SWAP1 DIV PUSH20 0xFFFFFFFFFFFFFFFFFFFFFFFFFFFFFFFFFFFFFFFF AND PUSH20 0xFFFFFFFFFFFFFFFFFFFFFFFFFFFFFFFFFFFFFFFF AND PUSH2 0x10E6 PUSH2 0x1146 JUMP JUMPDEST PUSH20 0xFFFFFFFFFFFFFFFFFFFFFFFFFFFFFFFFFFFFFFFF AND EQ PUSH2 0x113C JUMPI PUSH1 0x40 MLOAD PUSH32 0x8C379A000000000000000000000000000000000000000000000000000000000 DUP2 MSTORE PUSH1 0x4 ADD PUSH2 0x1133 SWAP1 PUSH2 0x24B2 JUMP JUMPDEST PUSH1 0x40 MLOAD DUP1 SWAP2 SUB SWAP1 REVERT JUMPDEST DUP1 PUSH1 0x5 DUP2 SWAP1 SSTORE POP POP JUMP JUMPDEST PUSH1 0x0 CALLER SWAP1 POP SWAP1 JUMP JUMPDEST PUSH1 0x0 PUSH1 0x60 PUSH1 0x0 ISZERO ISZERO PUSH1 0xE PUSH1 0x0 SWAP1 SLOAD SWAP1 PUSH2 0x100 EXP SWAP1 DIV PUSH1 0xFF AND ISZERO ISZERO EQ PUSH2 0x11A8 JUMPI PUSH1 0x40 MLOAD PUSH32 0x8C379A000000000000000000000000000000000000000000000000000000000 DUP2 MSTORE PUSH1 0x4 ADD PUSH2 0x119F SWAP1 PUSH2 0x24F2 JUMP JUMPDEST PUSH1 0x40 MLOAD DUP1 SWAP2 SUB SWAP1 REVERT JUMPDEST PUSH1 0x0 PUSH2 0x11B2 PUSH2 0x13CE JUMP JUMPDEST SWAP1 POP PUSH1 0x0 PUSH2 0x11BF DUP3 PUSH2 0x145E JUMP JUMPDEST SWAP1 POP PUSH2 0x1259 DUP6 DUP3 PUSH1 0x4 SLOAD PUSH1 0x2 DUP1 SLOAD PUSH2 0x11D6 SWAP1 PUSH2 0x2805 JUMP JUMPDEST DUP1 PUSH1 0x1F ADD PUSH1 0x20 DUP1 SWAP2 DIV MUL PUSH1 0x20 ADD PUSH1 0x40 MLOAD SWAP1 DUP2 ADD PUSH1 0x40 MSTORE DUP1 SWAP3 SWAP2 SWAP1 DUP2 DUP2 MSTORE PUSH1 0x20 ADD DUP3 DUP1 SLOAD PUSH2 0x1202 SWAP1 PUSH2 0x2805 JUMP JUMPDEST DUP1 ISZERO PUSH2 0x124F JUMPI DUP1 PUSH1 0x1F LT PUSH2 0x1224 JUMPI PUSH2 0x100 DUP1 DUP4 SLOAD DIV MUL DUP4 MSTORE SWAP2 PUSH1 0x20 ADD SWAP2 PUSH2 0x124F JUMP JUMPDEST DUP3 ADD SWAP2 SWAP1 PUSH1 0x0 MSTORE PUSH1 0x20 PUSH1 0x0 KECCAK256 SWAP1 JUMPDEST DUP2 SLOAD DUP2 MSTORE SWAP1 PUSH1 0x1 ADD SWAP1 PUSH1 0x20 ADD DUP1 DUP4 GT PUSH2 0x1232 JUMPI DUP3 SWAP1 SUB PUSH1 0x1F AND DUP3 ADD SWAP2 JUMPDEST POP POP POP POP POP PUSH2 0x172A JUMP JUMPDEST PUSH1 0x3 PUSH1 0x0 DUP2 SLOAD DUP1 SWAP3 SWAP2 SWAP1 PUSH2 0x126C SWAP1 PUSH2 0x2868 JUMP JUMPDEST SWAP2 SWAP1 POP SSTORE POP PUSH1 0xC PUSH1 0x0 DUP7 PUSH20 0xFFFFFFFFFFFFFFFFFFFFFFFFFFFFFFFFFFFFFFFF AND PUSH20 0xFFFFFFFFFFFFFFFFFFFFFFFFFFFFFFFFFFFFFFFF AND DUP2 MSTORE PUSH1 0x20 ADD SWAP1 DUP2 MSTORE PUSH1 0x20 ADD PUSH1 0x0 KECCAK256 PUSH1 0x0 ADD DUP2 SWAP1 DUP1 PUSH1 0x1 DUP2 SLOAD ADD DUP1 DUP3 SSTORE DUP1 SWAP2 POP POP PUSH1 0x1 SWAP1 SUB SWAP1 PUSH1 0x0 MSTORE PUSH1 0x20 PUSH1 0x0 KECCAK256 ADD PUSH1 0x0 SWAP1 SWAP2 SWAP1 SWAP2 SWAP1 SWAP2 POP SSTORE DUP1 PUSH1 0x2 DUP1 DUP1 SLOAD PUSH2 0x12E9 SWAP1 PUSH2 0x2805 JUMP JUMPDEST DUP1 PUSH1 0x1F ADD PUSH1 0x20 DUP1 SWAP2 DIV MUL PUSH1 0x20 ADD PUSH1 0x40 MLOAD SWAP1 DUP2 ADD PUSH1 0x40 MSTORE DUP1 SWAP3 SWAP2 SWAP1 DUP2 DUP2 MSTORE PUSH1 0x20 ADD DUP3 DUP1 SLOAD PUSH2 0x1315 SWAP1 PUSH2 0x2805 JUMP JUMPDEST DUP1 ISZERO PUSH2 0x1362 JUMPI DUP1 PUSH1 0x1F LT PUSH2 0x1337 JUMPI PUSH2 0x100 DUP1 DUP4 SLOAD DIV MUL DUP4 MSTORE SWAP2 PUSH1 0x20 ADD SWAP2 PUSH2 0x1362 JUMP JUMPDEST DUP3 ADD SWAP2 SWAP1 PUSH1 0x0 MSTORE PUSH1 0x20 PUSH1 0x0 KECCAK256 SWAP1 JUMPDEST DUP2 SLOAD DUP2 MSTORE SWAP1 PUSH1 0x1 ADD SWAP1 PUSH1 0x20 ADD DUP1 DUP4 GT PUSH2 0x1345 JUMPI DUP3 SWAP1 SUB PUSH1 0x1F AND DUP3 ADD SWAP2 JUMPDEST POP POP POP POP POP SWAP1 POP SWAP4 POP SWAP4 POP POP POP SWAP2 POP SWAP2 JUMP JUMPDEST DUP1 PUSH1 0xD PUSH1 0x0 DUP5 PUSH20 0xFFFFFFFFFFFFFFFFFFFFFFFFFFFFFFFFFFFFFFFF AND PUSH20 0xFFFFFFFFFFFFFFFFFFFFFFFFFFFFFFFFFFFFFFFF AND DUP2 MSTORE PUSH1 0x20 ADD SWAP1 DUP2 MSTORE PUSH1 0x20 ADD PUSH1 0x0 KECCAK256 PUSH1 0x0 DUP3 DUP3 SLOAD PUSH2 0x13C3 SWAP2 SWAP1 PUSH2 0x2637 JUMP JUMPDEST SWAP3 POP POP DUP2 SWAP1 SSTORE POP POP POP JUMP JUMPDEST PUSH1 0x0 DUP1 PUSH1 0x6 SLOAD PUSH1 0x7 SLOAD PUSH1 0x8 SLOAD PUSH1 0x3 SLOAD TIMESTAMP PUSH2 0x13E8 SWAP2 SWAP1 PUSH2 0x2637 JUMP JUMPDEST PUSH2 0x13F2 SWAP2 SWAP1 PUSH2 0x2637 JUMP JUMPDEST PUSH2 0x13FC SWAP2 SWAP1 PUSH2 0x2637 JUMP JUMPDEST PUSH2 0x1406 SWAP2 SWAP1 PUSH2 0x2637 JUMP JUMPDEST CALLER PUSH1 0xE PUSH1 0x1 SWAP1 SLOAD SWAP1 PUSH2 0x100 EXP SWAP1 DIV PUSH20 0xFFFFFFFFFFFFFFFFFFFFFFFFFFFFFFFFFFFFFFFF AND PUSH1 0x40 MLOAD PUSH1 0x20 ADD PUSH2 0x143C SWAP4 SWAP3 SWAP2 SWAP1 PUSH2 0x22A1 JUMP JUMPDEST PUSH1 0x40 MLOAD PUSH1 0x20 DUP2 DUP4 SUB SUB DUP2 MSTORE SWAP1 PUSH1 0x40 MSTORE DUP1 MLOAD SWAP1 PUSH1 0x20 ADD KECCAK256 PUSH1 0x0 SHR SWAP1 POP DUP1 SWAP2 POP POP SWAP1 JUMP JUMPDEST PUSH1 0x0 DUP1 ISZERO ISZERO PUSH1 0xE PUSH1 0x0 SWAP1 SLOAD SWAP1 PUSH2 0x100 EXP SWAP1 DIV PUSH1 0xFF AND ISZERO ISZERO EQ PUSH2 0x14B5 JUMPI PUSH1 0x40 MLOAD PUSH32 0x8C379A000000000000000000000000000000000000000000000000000000000 DUP2 MSTORE PUSH1 0x4 ADD PUSH2 0x14AC SWAP1 PUSH2 0x24F2 JUMP JUMPDEST PUSH1 0x40 MLOAD DUP1 SWAP2 SUB SWAP1 REVERT JUMPDEST PUSH1 0x0 PUSH1 0x1 PUSH1 0x14 DUP5 PUSH2 0x14C6 SWAP2 SWAP1 PUSH2 0x28F1 JUMP JUMPDEST EQ DUP1 ISZERO PUSH2 0x14D6 JUMPI POP PUSH1 0x9 SLOAD PUSH1 0x6 SLOAD LT JUMPDEST ISZERO PUSH2 0x1540 JUMPI PUSH1 0x6 PUSH1 0x0 DUP2 SLOAD DUP1 SWAP3 SWAP2 SWAP1 PUSH2 0x14EE SWAP1 PUSH2 0x2868 JUMP JUMPDEST SWAP2 SWAP1 POP SSTORE POP PUSH2 0x14FE PUSH1 0x6 SLOAD PUSH2 0x18C0 JUMP JUMPDEST PUSH1 0x40 MLOAD PUSH1 0x20 ADD PUSH2 0x150E SWAP2 SWAP1 PUSH2 0x223B JUMP JUMPDEST PUSH1 0x40 MLOAD PUSH1 0x20 DUP2 DUP4 SUB SUB DUP2 MSTORE SWAP1 PUSH1 0x40 MSTORE PUSH1 0x2 SWAP1 DUP1 MLOAD SWAP1 PUSH1 0x20 ADD SWAP1 PUSH2 0x1532 SWAP3 SWAP2 SWAP1 PUSH2 0x1C9D JUMP JUMPDEST POP PUSH1 0x0 SWAP1 POP DUP1 SWAP2 POP POP PUSH2 0x1725 JUMP JUMPDEST PUSH1 0x3 PUSH1 0x14 DUP5 PUSH2 0x154F SWAP2 SWAP1 PUSH2 0x28F1 JUMP JUMPDEST GT ISZERO DUP1 ISZERO PUSH2 0x1560 JUMPI POP PUSH1 0xA SLOAD PUSH1 0x7 SLOAD LT JUMPDEST ISZERO PUSH2 0x15CA JUMPI PUSH1 0x7 PUSH1 0x0 DUP2 SLOAD DUP1 SWAP3 SWAP2 SWAP1 PUSH2 0x1578 SWAP1 PUSH2 0x2868 JUMP JUMPDEST SWAP2 SWAP1 POP SSTORE POP PUSH2 0x1588 PUSH1 0x7 SLOAD PUSH2 0x18C0 JUMP JUMPDEST PUSH1 0x40 MLOAD PUSH1 0x20 ADD PUSH2 0x1598 SWAP2 SWAP1 PUSH2 0x225D JUMP JUMPDEST PUSH1 0x40 MLOAD PUSH1 0x20 DUP2 DUP4 SUB SUB DUP2 MSTORE SWAP1 PUSH1 0x40 MSTORE PUSH1 0x2 SWAP1 DUP1 MLOAD SWAP1 PUSH1 0x20 ADD SWAP1 PUSH2 0x15BC SWAP3 SWAP2 SWAP1 PUSH2 0x1C9D JUMP JUMPDEST POP PUSH1 0x1 SWAP1 POP DUP1 SWAP2 POP POP PUSH2 0x1725 JUMP JUMPDEST PUSH1 0x3 PUSH1 0x14 DUP5 PUSH2 0x15D9 SWAP2 SWAP1 PUSH2 0x28F1 JUMP JUMPDEST GT DUP1 ISZERO PUSH2 0x15E9 JUMPI POP PUSH1 0xB SLOAD PUSH1 0x8 SLOAD LT JUMPDEST ISZERO PUSH2 0x1653 JUMPI PUSH1 0x8 PUSH1 0x0 DUP2 SLOAD DUP1 SWAP3 SWAP2 SWAP1 PUSH2 0x1601 SWAP1 PUSH2 0x2868 JUMP JUMPDEST SWAP2 SWAP1 POP SSTORE POP PUSH2 0x1611 PUSH1 0x8 SLOAD PUSH2 0x18C0 JUMP JUMPDEST PUSH1 0x40 MLOAD PUSH1 0x20 ADD PUSH2 0x1621 SWAP2 SWAP1 PUSH2 0x227F JUMP JUMPDEST PUSH1 0x40 MLOAD PUSH1 0x20 DUP2 DUP4 SUB SUB DUP2 MSTORE SWAP1 PUSH1 0x40 MSTORE PUSH1 0x2 SWAP1 DUP1 MLOAD SWAP1 PUSH1 0x20 ADD SWAP1 PUSH2 0x1645 SWAP3 SWAP2 SWAP1 PUSH2 0x1C9D JUMP JUMPDEST POP PUSH1 0x2 SWAP1 POP DUP1 SWAP2 POP POP PUSH2 0x1725 JUMP JUMPDEST PUSH1 0xA SLOAD PUSH1 0x7 SLOAD LT ISZERO PUSH2 0x16C4 JUMPI PUSH1 0x1 SWAP1 POP PUSH1 0x7 PUSH1 0x0 DUP2 SLOAD DUP1 SWAP3 SWAP2 SWAP1 PUSH2 0x1676 SWAP1 PUSH2 0x2868 JUMP JUMPDEST SWAP2 SWAP1 POP SSTORE POP PUSH2 0x1686 PUSH1 0x7 SLOAD PUSH2 0x18C0 JUMP JUMPDEST PUSH1 0x40 MLOAD PUSH1 0x20 ADD PUSH2 0x1696 SWAP2 SWAP1 PUSH2 0x225D JUMP JUMPDEST PUSH1 0x40 MLOAD PUSH1 0x20 DUP2 DUP4 SUB SUB DUP2 MSTORE SWAP1 PUSH1 0x40 MSTORE PUSH1 0x2 SWAP1 DUP1 MLOAD SWAP1 PUSH1 0x20 ADD SWAP1 PUSH2 0x16BA SWAP3 SWAP2 SWAP1 PUSH2 0x1C9D JUMP JUMPDEST POP DUP1 SWAP2 POP POP PUSH2 0x1725 JUMP JUMPDEST PUSH1 0x0 SWAP1 POP PUSH1 0x6 PUSH1 0x0 DUP2 SLOAD DUP1 SWAP3 SWAP2 SWAP1 PUSH2 0x16DB SWAP1 PUSH2 0x2868 JUMP JUMPDEST SWAP2 SWAP1 POP SSTORE POP PUSH2 0x16EB PUSH1 0x6 SLOAD PUSH2 0x18C0 JUMP JUMPDEST PUSH1 0x40 MLOAD PUSH1 0x20 ADD PUSH2 0x16FB SWAP2 SWAP1 PUSH2 0x223B JUMP JUMPDEST PUSH1 0x40 MLOAD PUSH1 0x20 DUP2 DUP4 SUB SUB DUP2 MSTORE SWAP1 PUSH1 0x40 MSTORE PUSH1 0x2 SWAP1 DUP1 MLOAD SWAP1 PUSH1 0x20 ADD SWAP1 PUSH2 0x171F SWAP3 SWAP2 SWAP1 PUSH2 0x1C9D JUMP JUMPDEST POP DUP1 SWAP2 POP POP JUMPDEST SWAP2 SWAP1 POP JUMP JUMPDEST PUSH1 0x0 PUSH20 0xFFFFFFFFFFFFFFFFFFFFFFFFFFFFFFFFFFFFFFFF AND DUP5 PUSH20 0xFFFFFFFFFFFFFFFFFFFFFFFFFFFFFFFFFFFFFFFF AND EQ ISZERO PUSH2 0x179A JUMPI PUSH1 0x40 MLOAD PUSH32 0x8C379A000000000000000000000000000000000000000000000000000000000 DUP2 MSTORE PUSH1 0x4 ADD PUSH2 0x1791 SWAP1 PUSH2 0x2532 JUMP JUMPDEST PUSH1 0x40 MLOAD DUP1 SWAP2 SUB SWAP1 REVERT JUMPDEST PUSH1 0x0 PUSH2 0x17A4 PUSH2 0x1146 JUMP JUMPDEST SWAP1 POP PUSH2 0x17C5 DUP2 PUSH1 0x0 DUP8 PUSH2 0x17B6 DUP9 PUSH2 0x1A21 JUMP JUMPDEST PUSH2 0x17BF DUP9 PUSH2 0x1A21 JUMP JUMPDEST DUP8 PUSH2 0x1A9B JUMP JUMPDEST DUP3 PUSH1 0x0 DUP1 DUP7 DUP2 MSTORE PUSH1 0x20 ADD SWAP1 DUP2 MSTORE PUSH1 0x20 ADD PUSH1 0x0 KECCAK256 PUSH1 0x0 DUP8 PUSH20 0xFFFFFFFFFFFFFFFFFFFFFFFFFFFFFFFFFFFFFFFF AND PUSH20 0xFFFFFFFFFFFFFFFFFFFFFFFFFFFFFFFFFFFFFFFF AND DUP2 MSTORE PUSH1 0x20 ADD SWAP1 DUP2 MSTORE PUSH1 0x20 ADD PUSH1 0x0 KECCAK256 PUSH1 0x0 DUP3 DUP3 SLOAD PUSH2 0x1824 SWAP2 SWAP1 PUSH2 0x2637 JUMP JUMPDEST SWAP3 POP POP DUP2 SWAP1 SSTORE POP DUP5 PUSH20 0xFFFFFFFFFFFFFFFFFFFFFFFFFFFFFFFFFFFFFFFF AND PUSH1 0x0 PUSH20 0xFFFFFFFFFFFFFFFFFFFFFFFFFFFFFFFFFFFFFFFF AND DUP3 PUSH20 0xFFFFFFFFFFFFFFFFFFFFFFFFFFFFFFFFFFFFFFFF AND PUSH32 0xC3D58168C5AE7397731D063D5BBF3D657854427343F4C083240F7AACAA2D0F62 DUP8 DUP8 PUSH1 0x40 MLOAD PUSH2 0x18A2 SWAP3 SWAP2 SWAP1 PUSH2 0x256D JUMP JUMPDEST PUSH1 0x40 MLOAD DUP1 SWAP2 SUB SWAP1 LOG4 PUSH2 0x18B9 DUP2 PUSH1 0x0 DUP8 DUP8 DUP8 DUP8 PUSH2 0x1AA3 JUMP JUMPDEST POP POP POP POP POP JUMP JUMPDEST PUSH1 0x60 PUSH1 0x0 DUP3 EQ ISZERO PUSH2 0x1908 JUMPI PUSH1 0x40 MLOAD DUP1 PUSH1 0x40 ADD PUSH1 0x40 MSTORE DUP1 PUSH1 0x1 DUP2 MSTORE PUSH1 0x20 ADD PUSH32 0x3000000000000000000000000000000000000000000000000000000000000000 DUP2 MSTORE POP SWAP1 POP PUSH2 0x1A1C JUMP JUMPDEST PUSH1 0x0 DUP3 SWAP1 POP PUSH1 0x0 JUMPDEST PUSH1 0x0 DUP3 EQ PUSH2 0x193A JUMPI DUP1 DUP1 PUSH2 0x1923 SWAP1 PUSH2 0x2868 JUMP JUMPDEST SWAP2 POP POP PUSH1 0xA DUP3 PUSH2 0x1933 SWAP2 SWAP1 PUSH2 0x268D JUMP JUMPDEST SWAP2 POP PUSH2 0x1910 JUMP JUMPDEST PUSH1 0x0 DUP2 PUSH8 0xFFFFFFFFFFFFFFFF DUP2 GT ISZERO PUSH2 0x1956 JUMPI PUSH2 0x1955 PUSH2 0x29DE JUMP JUMPDEST JUMPDEST PUSH1 0x40 MLOAD SWAP1 DUP1 DUP3 MSTORE DUP1 PUSH1 0x1F ADD PUSH1 0x1F NOT AND PUSH1 0x20 ADD DUP3 ADD PUSH1 0x40 MSTORE DUP1 ISZERO PUSH2 0x1988 JUMPI DUP2 PUSH1 0x20 ADD PUSH1 0x1 DUP3 MUL DUP1 CALLDATASIZE DUP4 CALLDATACOPY DUP1 DUP3 ADD SWAP2 POP POP SWAP1 POP JUMPDEST POP SWAP1 POP JUMPDEST PUSH1 0x0 DUP6 EQ PUSH2 0x1A15 JUMPI PUSH1 0x1 DUP3 PUSH2 0x19A1 SWAP2 SWAP1 PUSH2 0x2718 JUMP JUMPDEST SWAP2 POP PUSH1 0xA DUP6 PUSH2 0x19B0 SWAP2 SWAP1 PUSH2 0x28F1 JUMP JUMPDEST PUSH1 0x30 PUSH2 0x19BC SWAP2 SWAP1 PUSH2 0x2637 JUMP JUMPDEST PUSH1 0xF8 SHL DUP2 DUP4 DUP2 MLOAD DUP2 LT PUSH2 0x19D2 JUMPI PUSH2 0x19D1 PUSH2 0x29AF JUMP JUMPDEST JUMPDEST PUSH1 0x20 ADD ADD SWAP1 PUSH31 0xFFFFFFFFFFFFFFFFFFFFFFFFFFFFFFFFFFFFFFFFFFFFFFFFFFFFFFFFFFFFFF NOT AND SWAP1 DUP2 PUSH1 0x0 BYTE SWAP1 MSTORE8 POP PUSH1 0xA DUP6 PUSH2 0x1A0E SWAP2 SWAP1 PUSH2 0x268D JUMP JUMPDEST SWAP5 POP PUSH2 0x198C JUMP JUMPDEST DUP1 SWAP4 POP POP POP POP JUMPDEST SWAP2 SWAP1 POP JUMP JUMPDEST PUSH1 0x60 PUSH1 0x0 PUSH1 0x1 PUSH8 0xFFFFFFFFFFFFFFFF DUP2 GT ISZERO PUSH2 0x1A40 JUMPI PUSH2 0x1A3F PUSH2 0x29DE JUMP JUMPDEST JUMPDEST PUSH1 0x40 MLOAD SWAP1 DUP1 DUP3 MSTORE DUP1 PUSH1 0x20 MUL PUSH1 0x20 ADD DUP3 ADD PUSH1 0x40 MSTORE DUP1 ISZERO PUSH2 0x1A6E JUMPI DUP2 PUSH1 0x20 ADD PUSH1 0x20 DUP3 MUL DUP1 CALLDATASIZE DUP4 CALLDATACOPY DUP1 DUP3 ADD SWAP2 POP POP SWAP1 POP JUMPDEST POP SWAP1 POP DUP3 DUP2 PUSH1 0x0 DUP2 MLOAD DUP2 LT PUSH2 0x1A86 JUMPI PUSH2 0x1A85 PUSH2 0x29AF JUMP JUMPDEST JUMPDEST PUSH1 0x20 MUL PUSH1 0x20 ADD ADD DUP2 DUP2 MSTORE POP POP DUP1 SWAP2 POP POP SWAP2 SWAP1 POP JUMP JUMPDEST POP POP POP POP POP POP JUMP JUMPDEST PUSH2 0x1AC2 DUP5 PUSH20 0xFFFFFFFFFFFFFFFFFFFFFFFFFFFFFFFFFFFFFFFF AND PUSH2 0x1C8A JUMP JUMPDEST ISZERO PUSH2 0x1C82 JUMPI DUP4 PUSH20 0xFFFFFFFFFFFFFFFFFFFFFFFFFFFFFFFFFFFFFFFF AND PUSH4 0xAE89A248 DUP8 DUP8 DUP7 DUP7 DUP7 PUSH1 0x40 MLOAD DUP7 PUSH4 0xFFFFFFFF AND PUSH1 0xE0 SHL DUP2 MSTORE PUSH1 0x4 ADD PUSH2 0x1B08 SWAP6 SWAP5 SWAP4 SWAP3 SWAP2 SWAP1 PUSH2 0x22F9 JUMP JUMPDEST PUSH1 0x20 PUSH1 0x40 MLOAD DUP1 DUP4 SUB DUP2 PUSH1 0x0 DUP8 DUP1 EXTCODESIZE ISZERO DUP1 ISZERO PUSH2 0x1B22 JUMPI PUSH1 0x0 DUP1 REVERT JUMPDEST POP GAS CALL SWAP3 POP POP POP DUP1 ISZERO PUSH2 0x1B53 JUMPI POP PUSH1 0x40 MLOAD RETURNDATASIZE PUSH1 0x1F NOT PUSH1 0x1F DUP3 ADD AND DUP3 ADD DUP1 PUSH1 0x40 MSTORE POP DUP2 ADD SWAP1 PUSH2 0x1B50 SWAP2 SWAP1 PUSH2 0x1E41 JUMP JUMPDEST PUSH1 0x1 JUMPDEST PUSH2 0x1BF9 JUMPI PUSH2 0x1B5F PUSH2 0x2A0D JUMP JUMPDEST DUP1 PUSH4 0x8C379A0 EQ ISZERO PUSH2 0x1BBC JUMPI POP PUSH2 0x1B74 PUSH2 0x2D61 JUMP JUMPDEST DUP1 PUSH2 0x1B7F JUMPI POP PUSH2 0x1BBE JUMP JUMPDEST DUP1 PUSH1 0x40 MLOAD PUSH32 0x8C379A000000000000000000000000000000000000000000000000000000000 DUP2 MSTORE PUSH1 0x4 ADD PUSH2 0x1BB3 SWAP2 SWAP1 PUSH2 0x2390 JUMP JUMPDEST PUSH1 0x40 MLOAD DUP1 SWAP2 SUB SWAP1 REVERT JUMPDEST POP JUMPDEST PUSH1 0x40 MLOAD PUSH32 0x8C379A000000000000000000000000000000000000000000000000000000000 DUP2 MSTORE PUSH1 0x4 ADD PUSH2 0x1BF0 SWAP1 PUSH2 0x23B2 JUMP JUMPDEST PUSH1 0x40 MLOAD DUP1 SWAP2 SUB SWAP1 REVERT JUMPDEST PUSH4 0xAE89A248 PUSH1 0xE0 SHL PUSH28 0xFFFFFFFFFFFFFFFFFFFFFFFFFFFFFFFFFFFFFFFFFFFFFFFFFFFFFFFF NOT AND DUP2 PUSH28 0xFFFFFFFFFFFFFFFFFFFFFFFFFFFFFFFFFFFFFFFFFFFFFFFFFFFFFFFF NOT AND EQ PUSH2 0x1C80 JUMPI PUSH1 0x40 MLOAD PUSH32 0x8C379A000000000000000000000000000000000000000000000000000000000 DUP2 MSTORE PUSH1 0x4 ADD PUSH2 0x1C77 SWAP1 PUSH2 0x23D2 JUMP JUMPDEST PUSH1 0x40 MLOAD DUP1 SWAP2 SUB SWAP1 REVERT JUMPDEST POP JUMPDEST POP POP POP POP POP POP JUMP JUMPDEST PUSH1 0x0 DUP1 DUP3 EXTCODESIZE SWAP1 POP PUSH1 0x0 DUP2 GT SWAP2 POP POP SWAP2 SWAP1 POP JUMP JUMPDEST DUP3 DUP1 SLOAD PUSH2 0x1CA9 SWAP1 PUSH2 0x2805 JUMP JUMPDEST SWAP1 PUSH1 0x0 MSTORE PUSH1 0x20 PUSH1 0x0 KECCAK256 SWAP1 PUSH1 0x1F ADD PUSH1 0x20 SWAP1 DIV DUP2 ADD SWAP3 DUP3 PUSH2 0x1CCB JUMPI PUSH1 0x0 DUP6 SSTORE PUSH2 0x1D12 JUMP JUMPDEST DUP3 PUSH1 0x1F LT PUSH2 0x1CE4 JUMPI DUP1 MLOAD PUSH1 0xFF NOT AND DUP4 DUP1 ADD OR DUP6 SSTORE PUSH2 0x1D12 JUMP JUMPDEST DUP3 DUP1 ADD PUSH1 0x1 ADD DUP6 SSTORE DUP3 ISZERO PUSH2 0x1D12 JUMPI SWAP2 DUP3 ADD JUMPDEST DUP3 DUP2 GT ISZERO PUSH2 0x1D11 JUMPI DUP3 MLOAD DUP3 SSTORE SWAP2 PUSH1 0x20 ADD SWAP2 SWAP1 PUSH1 0x1 ADD SWAP1 PUSH2 0x1CF6 JUMP JUMPDEST JUMPDEST POP SWAP1 POP PUSH2 0x1D1F SWAP2 SWAP1 PUSH2 0x1D23 JUMP JUMPDEST POP SWAP1 JUMP JUMPDEST JUMPDEST DUP1 DUP3 GT ISZERO PUSH2 0x1D3C JUMPI PUSH1 0x0 DUP2 PUSH1 0x0 SWAP1 SSTORE POP PUSH1 0x1 ADD PUSH2 0x1D24 JUMP JUMPDEST POP SWAP1 JUMP JUMPDEST PUSH1 0x0 DUP2 CALLDATALOAD SWAP1 POP PUSH2 0x1D4F DUP2 PUSH2 0x2DF7 JUMP JUMPDEST SWAP3 SWAP2 POP POP JUMP JUMPDEST PUSH1 0x0 DUP2 CALLDATALOAD SWAP1 POP PUSH2 0x1D64 DUP2 PUSH2 0x2E0E JUMP JUMPDEST SWAP3 SWAP2 POP POP JUMP JUMPDEST PUSH1 0x0 DUP2 MLOAD SWAP1 POP PUSH2 0x1D79 DUP2 PUSH2 0x2E25 JUMP JUMPDEST SWAP3 SWAP2 POP POP JUMP JUMPDEST PUSH1 0x0 DUP2 CALLDATALOAD SWAP1 POP PUSH2 0x1D8E DUP2 PUSH2 0x2E3C JUMP JUMPDEST SWAP3 SWAP2 POP POP JUMP JUMPDEST PUSH1 0x0 PUSH1 0x20 DUP3 DUP5 SUB SLT ISZERO PUSH2 0x1DAA JUMPI PUSH2 0x1DA9 PUSH2 0x2A2F JUMP JUMPDEST JUMPDEST PUSH1 0x0 PUSH2 0x1DB8 DUP5 DUP3 DUP6 ADD PUSH2 0x1D40 JUMP JUMPDEST SWAP2 POP POP SWAP3 SWAP2 POP POP JUMP JUMPDEST PUSH1 0x0 DUP1 PUSH1 0x40 DUP4 DUP6 SUB SLT ISZERO PUSH2 0x1DD8 JUMPI PUSH2 0x1DD7 PUSH2 0x2A2F JUMP JUMPDEST JUMPDEST PUSH1 0x0 PUSH2 0x1DE6 DUP6 DUP3 DUP7 ADD PUSH2 0x1D55 JUMP JUMPDEST SWAP3 POP POP PUSH1 0x20 PUSH2 0x1DF7 DUP6 DUP3 DUP7 ADD PUSH2 0x1D7F JUMP JUMPDEST SWAP2 POP POP SWAP3 POP SWAP3 SWAP1 POP JUMP JUMPDEST PUSH1 0x0 DUP1 PUSH1 0x40 DUP4 DUP6 SUB SLT ISZERO PUSH2 0x1E18 JUMPI PUSH2 0x1E17 PUSH2 0x2A2F JUMP JUMPDEST JUMPDEST PUSH1 0x0 PUSH2 0x1E26 DUP6 DUP3 DUP7 ADD PUSH2 0x1D40 JUMP JUMPDEST SWAP3 POP POP PUSH1 0x20 PUSH2 0x1E37 DUP6 DUP3 DUP7 ADD PUSH2 0x1D7F JUMP JUMPDEST SWAP2 POP POP SWAP3 POP SWAP3 SWAP1 POP JUMP JUMPDEST PUSH1 0x0 PUSH1 0x20 DUP3 DUP5 SUB SLT ISZERO PUSH2 0x1E57 JUMPI PUSH2 0x1E56 PUSH2 0x2A2F JUMP JUMPDEST JUMPDEST PUSH1 0x0 PUSH2 0x1E65 DUP5 DUP3 DUP6 ADD PUSH2 0x1D6A JUMP JUMPDEST SWAP2 POP POP SWAP3 SWAP2 POP POP JUMP JUMPDEST PUSH1 0x0 PUSH1 0x20 DUP3 DUP5 SUB SLT ISZERO PUSH2 0x1E84 JUMPI PUSH2 0x1E83 PUSH2 0x2A2F JUMP JUMPDEST JUMPDEST PUSH1 0x0 PUSH2 0x1E92 DUP5 DUP3 DUP6 ADD PUSH2 0x1D7F JUMP JUMPDEST SWAP2 POP POP SWAP3 SWAP2 POP POP JUMP JUMPDEST PUSH1 0x0 PUSH2 0x1EA7 DUP4 DUP4 PUSH2 0x2206 JUMP JUMPDEST PUSH1 0x20 DUP4 ADD SWAP1 POP SWAP3 SWAP2 POP POP JUMP JUMPDEST PUSH2 0x1EBC DUP2 PUSH2 0x275E JUMP JUMPDEST DUP3 MSTORE POP POP JUMP JUMPDEST PUSH2 0x1ED3 PUSH2 0x1ECE DUP3 PUSH2 0x275E JUMP JUMPDEST PUSH2 0x28C3 JUMP JUMPDEST DUP3 MSTORE POP POP JUMP JUMPDEST PUSH2 0x1EE2 DUP2 PUSH2 0x274C JUMP JUMPDEST DUP3 MSTORE POP POP JUMP JUMPDEST PUSH2 0x1EF9 PUSH2 0x1EF4 DUP3 PUSH2 0x274C JUMP JUMPDEST PUSH2 0x28B1 JUMP JUMPDEST DUP3 MSTORE POP POP JUMP JUMPDEST PUSH1 0x0 PUSH2 0x1F0A DUP3 PUSH2 0x25E7 JUMP JUMPDEST PUSH2 0x1F14 DUP2 DUP6 PUSH2 0x260A JUMP JUMPDEST SWAP4 POP PUSH2 0x1F1F DUP4 PUSH2 0x25D7 JUMP JUMPDEST DUP1 PUSH1 0x0 JUMPDEST DUP4 DUP2 LT ISZERO PUSH2 0x1F50 JUMPI DUP2 MLOAD PUSH2 0x1F37 DUP9 DUP3 PUSH2 0x1E9B JUMP JUMPDEST SWAP8 POP PUSH2 0x1F42 DUP4 PUSH2 0x25FD JUMP JUMPDEST SWAP3 POP POP PUSH1 0x1 DUP2 ADD SWAP1 POP PUSH2 0x1F23 JUMP JUMPDEST POP DUP6 SWAP4 POP POP POP POP SWAP3 SWAP2 POP POP JUMP JUMPDEST PUSH2 0x1F66 DUP2 PUSH2 0x2770 JUMP JUMPDEST DUP3 MSTORE POP POP JUMP JUMPDEST PUSH1 0x0 PUSH2 0x1F77 DUP3 PUSH2 0x25F2 JUMP JUMPDEST PUSH2 0x1F81 DUP2 DUP6 PUSH2 0x261B JUMP JUMPDEST SWAP4 POP PUSH2 0x1F91 DUP2 DUP6 PUSH1 0x20 DUP7 ADD PUSH2 0x27D2 JUMP JUMPDEST PUSH2 0x1F9A DUP2 PUSH2 0x2A34 JUMP JUMPDEST DUP5 ADD SWAP2 POP POP SWAP3 SWAP2 POP POP JUMP JUMPDEST PUSH1 0x0 PUSH2 0x1FB0 DUP3 PUSH2 0x25F2 JUMP JUMPDEST PUSH2 0x1FBA DUP2 DUP6 PUSH2 0x262C JUMP JUMPDEST SWAP4 POP PUSH2 0x1FCA DUP2 DUP6 PUSH1 0x20 DUP7 ADD PUSH2 0x27D2 JUMP JUMPDEST DUP1 DUP5 ADD SWAP2 POP POP SWAP3 SWAP2 POP POP JUMP JUMPDEST PUSH1 0x0 PUSH2 0x1FE3 PUSH1 0x34 DUP4 PUSH2 0x261B JUMP JUMPDEST SWAP2 POP PUSH2 0x1FEE DUP3 PUSH2 0x2A5F JUMP JUMPDEST PUSH1 0x40 DUP3 ADD SWAP1 POP SWAP2 SWAP1 POP JUMP JUMPDEST PUSH1 0x0 PUSH2 0x2006 PUSH1 0x28 DUP4 PUSH2 0x261B JUMP JUMPDEST SWAP2 POP PUSH2 0x2011 DUP3 PUSH2 0x2AAE JUMP JUMPDEST PUSH1 0x40 DUP3 ADD SWAP1 POP SWAP2 SWAP1 POP JUMP JUMPDEST PUSH1 0x0 PUSH2 0x2029 PUSH1 0x19 DUP4 PUSH2 0x261B JUMP JUMPDEST SWAP2 POP PUSH2 0x2034 DUP3 PUSH2 0x2AFD JUMP JUMPDEST PUSH1 0x20 DUP3 ADD SWAP1 POP SWAP2 SWAP1 POP JUMP JUMPDEST PUSH1 0x0 PUSH2 0x204C PUSH1 0x8 DUP4 PUSH2 0x262C JUMP JUMPDEST SWAP2 POP PUSH2 0x2057 DUP3 PUSH2 0x2B26 JUMP JUMPDEST PUSH1 0x8 DUP3 ADD SWAP1 POP SWAP2 SWAP1 POP JUMP JUMPDEST PUSH1 0x0 PUSH2 0x206F PUSH1 0x10 DUP4 PUSH2 0x261B JUMP JUMPDEST SWAP2 POP PUSH2 0x207A DUP3 PUSH2 0x2B4F JUMP JUMPDEST PUSH1 0x20 DUP3 ADD SWAP1 POP SWAP2 SWAP1 POP JUMP JUMPDEST PUSH1 0x0 PUSH2 0x2092 PUSH1 0x5 DUP4 PUSH2 0x262C JUMP JUMPDEST SWAP2 POP PUSH2 0x209D DUP3 PUSH2 0x2B78 JUMP JUMPDEST PUSH1 0x5 DUP3 ADD SWAP1 POP SWAP2 SWAP1 POP JUMP JUMPDEST PUSH1 0x0 PUSH2 0x20B5 PUSH1 0x12 DUP4 PUSH2 0x261B JUMP JUMPDEST SWAP2 POP PUSH2 0x20C0 DUP3 PUSH2 0x2BA1 JUMP JUMPDEST PUSH1 0x20 DUP3 ADD SWAP1 POP SWAP2 SWAP1 POP JUMP JUMPDEST PUSH1 0x0 PUSH2 0x20D8 PUSH1 0x1B DUP4 PUSH2 0x261B JUMP JUMPDEST SWAP2 POP PUSH2 0x20E3 DUP3 PUSH2 0x2BCA JUMP JUMPDEST PUSH1 0x20 DUP3 ADD SWAP1 POP SWAP2 SWAP1 POP JUMP JUMPDEST PUSH1 0x0 PUSH2 0x20FB PUSH1 0x1B DUP4 PUSH2 0x261B JUMP JUMPDEST SWAP2 POP PUSH2 0x2106 DUP3 PUSH2 0x2BF3 JUMP JUMPDEST PUSH1 0x20 DUP3 ADD SWAP1 POP SWAP2 SWAP1 POP JUMP JUMPDEST PUSH1 0x0 PUSH2 0x211E PUSH1 0x15 DUP4 PUSH2 0x261B JUMP JUMPDEST SWAP2 POP PUSH2 0x2129 DUP3 PUSH2 0x2C1C JUMP JUMPDEST PUSH1 0x20 DUP3 ADD SWAP1 POP SWAP2 SWAP1 POP JUMP JUMPDEST PUSH1 0x0 PUSH2 0x2141 PUSH1 0x1C DUP4 PUSH2 0x261B JUMP JUMPDEST SWAP2 POP PUSH2 0x214C DUP3 PUSH2 0x2C45 JUMP JUMPDEST PUSH1 0x20 DUP3 ADD SWAP1 POP SWAP2 SWAP1 POP JUMP JUMPDEST PUSH1 0x0 PUSH2 0x2164 PUSH1 0x1F DUP4 PUSH2 0x261B JUMP JUMPDEST SWAP2 POP PUSH2 0x216F DUP3 PUSH2 0x2C6E JUMP JUMPDEST PUSH1 0x20 DUP3 ADD SWAP1 POP SWAP2 SWAP1 POP JUMP JUMPDEST PUSH1 0x0 PUSH2 0x2187 PUSH1 0x1B DUP4 PUSH2 0x261B JUMP JUMPDEST SWAP2 POP PUSH2 0x2192 DUP3 PUSH2 0x2C97 JUMP JUMPDEST PUSH1 0x20 DUP3 ADD SWAP1 POP SWAP2 SWAP1 POP JUMP JUMPDEST PUSH1 0x0 PUSH2 0x21AA PUSH1 0x19 DUP4 PUSH2 0x261B JUMP JUMPDEST SWAP2 POP PUSH2 0x21B5 DUP3 PUSH2 0x2CC0 JUMP JUMPDEST PUSH1 0x20 DUP3 ADD SWAP1 POP SWAP2 SWAP1 POP JUMP JUMPDEST PUSH1 0x0 PUSH2 0x21CD PUSH1 0x7 DUP4 PUSH2 0x262C JUMP JUMPDEST SWAP2 POP PUSH2 0x21D8 DUP3 PUSH2 0x2CE9 JUMP JUMPDEST PUSH1 0x7 DUP3 ADD SWAP1 POP SWAP2 SWAP1 POP JUMP JUMPDEST PUSH1 0x0 PUSH2 0x21F0 PUSH1 0x21 DUP4 PUSH2 0x261B JUMP JUMPDEST SWAP2 POP PUSH2 0x21FB DUP3 PUSH2 0x2D12 JUMP JUMPDEST PUSH1 0x40 DUP3 ADD SWAP1 POP SWAP2 SWAP1 POP JUMP JUMPDEST PUSH2 0x220F DUP2 PUSH2 0x27C8 JUMP JUMPDEST DUP3 MSTORE POP POP JUMP JUMPDEST PUSH2 0x221E DUP2 PUSH2 0x27C8 JUMP JUMPDEST DUP3 MSTORE POP POP JUMP JUMPDEST PUSH2 0x2235 PUSH2 0x2230 DUP3 PUSH2 0x27C8 JUMP JUMPDEST PUSH2 0x28E7 JUMP JUMPDEST DUP3 MSTORE POP POP JUMP JUMPDEST PUSH1 0x0 PUSH2 0x2246 DUP3 PUSH2 0x203F JUMP JUMPDEST SWAP2 POP PUSH2 0x2252 DUP3 DUP5 PUSH2 0x1FA5 JUMP JUMPDEST SWAP2 POP DUP2 SWAP1 POP SWAP3 SWAP2 POP POP JUMP JUMPDEST PUSH1 0x0 PUSH2 0x2268 DUP3 PUSH2 0x2085 JUMP JUMPDEST SWAP2 POP PUSH2 0x2274 DUP3 DUP5 PUSH2 0x1FA5 JUMP JUMPDEST SWAP2 POP DUP2 SWAP1 POP SWAP3 SWAP2 POP POP JUMP JUMPDEST PUSH1 0x0 PUSH2 0x228A DUP3 PUSH2 0x21C0 JUMP JUMPDEST SWAP2 POP PUSH2 0x2296 DUP3 DUP5 PUSH2 0x1FA5 JUMP JUMPDEST SWAP2 POP DUP2 SWAP1 POP SWAP3 SWAP2 POP POP JUMP JUMPDEST PUSH1 0x0 PUSH2 0x22AD DUP3 DUP7 PUSH2 0x2224 JUMP JUMPDEST PUSH1 0x20 DUP3 ADD SWAP2 POP PUSH2 0x22BD DUP3 DUP6 PUSH2 0x1EE8 JUMP JUMPDEST PUSH1 0x14 DUP3 ADD SWAP2 POP PUSH2 0x22CD DUP3 DUP5 PUSH2 0x1EC2 JUMP JUMPDEST PUSH1 0x14 DUP3 ADD SWAP2 POP DUP2 SWAP1 POP SWAP5 SWAP4 POP POP POP POP JUMP JUMPDEST PUSH1 0x0 PUSH1 0x20 DUP3 ADD SWAP1 POP PUSH2 0x22F3 PUSH1 0x0 DUP4 ADD DUP5 PUSH2 0x1EB3 JUMP JUMPDEST SWAP3 SWAP2 POP POP JUMP JUMPDEST PUSH1 0x0 PUSH1 0xA0 DUP3 ADD SWAP1 POP PUSH2 0x230E PUSH1 0x0 DUP4 ADD DUP9 PUSH2 0x1ED9 JUMP JUMPDEST PUSH2 0x231B PUSH1 0x20 DUP4 ADD DUP8 PUSH2 0x1ED9 JUMP JUMPDEST PUSH2 0x2328 PUSH1 0x40 DUP4 ADD DUP7 PUSH2 0x2215 JUMP JUMPDEST PUSH2 0x2335 PUSH1 0x60 DUP4 ADD DUP6 PUSH2 0x2215 JUMP JUMPDEST DUP2 DUP2 SUB PUSH1 0x80 DUP4 ADD MSTORE PUSH2 0x2347 DUP2 DUP5 PUSH2 0x1F6C JUMP JUMPDEST SWAP1 POP SWAP7 SWAP6 POP POP POP POP POP POP JUMP JUMPDEST PUSH1 0x0 PUSH1 0x20 DUP3 ADD SWAP1 POP DUP2 DUP2 SUB PUSH1 0x0 DUP4 ADD MSTORE PUSH2 0x236D DUP2 DUP5 PUSH2 0x1EFF JUMP JUMPDEST SWAP1 POP SWAP3 SWAP2 POP POP JUMP JUMPDEST PUSH1 0x0 PUSH1 0x20 DUP3 ADD SWAP1 POP PUSH2 0x238A PUSH1 0x0 DUP4 ADD DUP5 PUSH2 0x1F5D JUMP JUMPDEST SWAP3 SWAP2 POP POP JUMP JUMPDEST PUSH1 0x0 PUSH1 0x20 DUP3 ADD SWAP1 POP DUP2 DUP2 SUB PUSH1 0x0 DUP4 ADD MSTORE PUSH2 0x23AA DUP2 DUP5 PUSH2 0x1F6C JUMP JUMPDEST SWAP1 POP SWAP3 SWAP2 POP POP JUMP JUMPDEST PUSH1 0x0 PUSH1 0x20 DUP3 ADD SWAP1 POP DUP2 DUP2 SUB PUSH1 0x0 DUP4 ADD MSTORE PUSH2 0x23CB DUP2 PUSH2 0x1FD6 JUMP JUMPDEST SWAP1 POP SWAP2 SWAP1 POP JUMP JUMPDEST PUSH1 0x0 PUSH1 0x20 DUP3 ADD SWAP1 POP DUP2 DUP2 SUB PUSH1 0x0 DUP4 ADD MSTORE PUSH2 0x23EB DUP2 PUSH2 0x1FF9 JUMP JUMPDEST SWAP1 POP SWAP2 SWAP1 POP JUMP JUMPDEST PUSH1 0x0 PUSH1 0x20 DUP3 ADD SWAP1 POP DUP2 DUP2 SUB PUSH1 0x0 DUP4 ADD MSTORE PUSH2 0x240B DUP2 PUSH2 0x201C JUMP JUMPDEST SWAP1 POP SWAP2 SWAP1 POP JUMP JUMPDEST PUSH1 0x0 PUSH1 0x20 DUP3 ADD SWAP1 POP DUP2 DUP2 SUB PUSH1 0x0 DUP4 ADD MSTORE PUSH2 0x242B DUP2 PUSH2 0x2062 JUMP JUMPDEST SWAP1 POP SWAP2 SWAP1 POP JUMP JUMPDEST PUSH1 0x0 PUSH1 0x20 DUP3 ADD SWAP1 POP DUP2 DUP2 SUB PUSH1 0x0 DUP4 ADD MSTORE PUSH2 0x244B DUP2 PUSH2 0x20A8 JUMP JUMPDEST SWAP1 POP SWAP2 SWAP1 POP JUMP JUMPDEST PUSH1 0x0 PUSH1 0x20 DUP3 ADD SWAP1 POP DUP2 DUP2 SUB PUSH1 0x0 DUP4 ADD MSTORE PUSH2 0x246B DUP2 PUSH2 0x20CB JUMP JUMPDEST SWAP1 POP SWAP2 SWAP1 POP JUMP JUMPDEST PUSH1 0x0 PUSH1 0x20 DUP3 ADD SWAP1 POP DUP2 DUP2 SUB PUSH1 0x0 DUP4 ADD MSTORE PUSH2 0x248B DUP2 PUSH2 0x20EE JUMP JUMPDEST SWAP1 POP SWAP2 SWAP1 POP JUMP JUMPDEST PUSH1 0x0 PUSH1 0x20 DUP3 ADD SWAP1 POP DUP2 DUP2 SUB PUSH1 0x0 DUP4 ADD MSTORE PUSH2 0x24AB DUP2 PUSH2 0x2111 JUMP JUMPDEST SWAP1 POP SWAP2 SWAP1 POP JUMP JUMPDEST PUSH1 0x0 PUSH1 0x20 DUP3 ADD SWAP1 POP DUP2 DUP2 SUB PUSH1 0x0 DUP4 ADD MSTORE PUSH2 0x24CB DUP2 PUSH2 0x2134 JUMP JUMPDEST SWAP1 POP SWAP2 SWAP1 POP JUMP JUMPDEST PUSH1 0x0 PUSH1 0x20 DUP3 ADD SWAP1 POP DUP2 DUP2 SUB PUSH1 0x0 DUP4 ADD MSTORE PUSH2 0x24EB DUP2 PUSH2 0x2157 JUMP JUMPDEST SWAP1 POP SWAP2 SWAP1 POP JUMP JUMPDEST PUSH1 0x0 PUSH1 0x20 DUP3 ADD SWAP1 POP DUP2 DUP2 SUB PUSH1 0x0 DUP4 ADD MSTORE PUSH2 0x250B DUP2 PUSH2 0x217A JUMP JUMPDEST SWAP1 POP SWAP2 SWAP1 POP JUMP JUMPDEST PUSH1 0x0 PUSH1 0x20 DUP3 ADD SWAP1 POP DUP2 DUP2 SUB PUSH1 0x0 DUP4 ADD MSTORE PUSH2 0x252B DUP2 PUSH2 0x219D JUMP JUMPDEST SWAP1 POP SWAP2 SWAP1 POP JUMP JUMPDEST PUSH1 0x0 PUSH1 0x20 DUP3 ADD SWAP1 POP DUP2 DUP2 SUB PUSH1 0x0 DUP4 ADD MSTORE PUSH2 0x254B DUP2 PUSH2 0x21E3 JUMP JUMPDEST SWAP1 POP SWAP2 SWAP1 POP JUMP JUMPDEST PUSH1 0x0 PUSH1 0x20 DUP3 ADD SWAP1 POP PUSH2 0x2567 PUSH1 0x0 DUP4 ADD DUP5 PUSH2 0x2215 JUMP JUMPDEST SWAP3 SWAP2 POP POP JUMP JUMPDEST PUSH1 0x0 PUSH1 0x40 DUP3 ADD SWAP1 POP PUSH2 0x2582 PUSH1 0x0 DUP4 ADD DUP6 PUSH2 0x2215 JUMP JUMPDEST PUSH2 0x258F PUSH1 0x20 DUP4 ADD DUP5 PUSH2 0x2215 JUMP JUMPDEST SWAP4 SWAP3 POP POP POP JUMP JUMPDEST PUSH1 0x0 PUSH1 0x60 DUP3 ADD SWAP1 POP PUSH2 0x25AB PUSH1 0x0 DUP4 ADD DUP7 PUSH2 0x2215 JUMP JUMPDEST PUSH2 0x25B8 PUSH1 0x20 DUP4 ADD DUP6 PUSH2 0x2215 JUMP JUMPDEST PUSH2 0x25C5 PUSH1 0x40 DUP4 ADD DUP5 PUSH2 0x2215 JUMP JUMPDEST SWAP5 SWAP4 POP POP POP POP JUMP JUMPDEST PUSH1 0x0 PUSH1 0x40 MLOAD SWAP1 POP SWAP1 JUMP JUMPDEST PUSH1 0x0 DUP2 SWAP1 POP PUSH1 0x20 DUP3 ADD SWAP1 POP SWAP2 SWAP1 POP JUMP JUMPDEST PUSH1 0x0 DUP2 MLOAD SWAP1 POP SWAP2 SWAP1 POP JUMP JUMPDEST PUSH1 0x0 DUP2 MLOAD SWAP1 POP SWAP2 SWAP1 POP JUMP JUMPDEST PUSH1 0x0 PUSH1 0x20 DUP3 ADD SWAP1 POP SWAP2 SWAP1 POP JUMP JUMPDEST PUSH1 0x0 DUP3 DUP3 MSTORE PUSH1 0x20 DUP3 ADD SWAP1 POP SWAP3 SWAP2 POP POP JUMP JUMPDEST PUSH1 0x0 DUP3 DUP3 MSTORE PUSH1 0x20 DUP3 ADD SWAP1 POP SWAP3 SWAP2 POP POP JUMP JUMPDEST PUSH1 0x0 DUP2 SWAP1 POP SWAP3 SWAP2 POP POP JUMP JUMPDEST PUSH1 0x0 PUSH2 0x2642 DUP3 PUSH2 0x27C8 JUMP JUMPDEST SWAP2 POP PUSH2 0x264D DUP4 PUSH2 0x27C8 JUMP JUMPDEST SWAP3 POP DUP3 PUSH32 0xFFFFFFFFFFFFFFFFFFFFFFFFFFFFFFFFFFFFFFFFFFFFFFFFFFFFFFFFFFFFFFFF SUB DUP3 GT ISZERO PUSH2 0x2682 JUMPI PUSH2 0x2681 PUSH2 0x2922 JUMP JUMPDEST JUMPDEST DUP3 DUP3 ADD SWAP1 POP SWAP3 SWAP2 POP POP JUMP JUMPDEST PUSH1 0x0 PUSH2 0x2698 DUP3 PUSH2 0x27C8 JUMP JUMPDEST SWAP2 POP PUSH2 0x26A3 DUP4 PUSH2 0x27C8 JUMP JUMPDEST SWAP3 POP DUP3 PUSH2 0x26B3 JUMPI PUSH2 0x26B2 PUSH2 0x2951 JUMP JUMPDEST JUMPDEST DUP3 DUP3 DIV SWAP1 POP SWAP3 SWAP2 POP POP JUMP JUMPDEST PUSH1 0x0 PUSH2 0x26C9 DUP3 PUSH2 0x27C8 JUMP JUMPDEST SWAP2 POP PUSH2 0x26D4 DUP4 PUSH2 0x27C8 JUMP JUMPDEST SWAP3 POP DUP2 PUSH32 0xFFFFFFFFFFFFFFFFFFFFFFFFFFFFFFFFFFFFFFFFFFFFFFFFFFFFFFFFFFFFFFFF DIV DUP4 GT DUP3 ISZERO ISZERO AND ISZERO PUSH2 0x270D JUMPI PUSH2 0x270C PUSH2 0x2922 JUMP JUMPDEST JUMPDEST DUP3 DUP3 MUL SWAP1 POP SWAP3 SWAP2 POP POP JUMP JUMPDEST PUSH1 0x0 PUSH2 0x2723 DUP3 PUSH2 0x27C8 JUMP JUMPDEST SWAP2 POP PUSH2 0x272E DUP4 PUSH2 0x27C8 JUMP JUMPDEST SWAP3 POP DUP3 DUP3 LT ISZERO PUSH2 0x2741 JUMPI PUSH2 0x2740 PUSH2 0x2922 JUMP JUMPDEST JUMPDEST DUP3 DUP3 SUB SWAP1 POP SWAP3 SWAP2 POP POP JUMP JUMPDEST PUSH1 0x0 PUSH2 0x2757 DUP3 PUSH2 0x27A8 JUMP JUMPDEST SWAP1 POP SWAP2 SWAP1 POP JUMP JUMPDEST PUSH1 0x0 PUSH2 0x2769 DUP3 PUSH2 0x27A8 JUMP JUMPDEST SWAP1 POP SWAP2 SWAP1 POP JUMP JUMPDEST PUSH1 0x0 DUP2 ISZERO ISZERO SWAP1 POP SWAP2 SWAP1 POP JUMP JUMPDEST PUSH1 0x0 PUSH32 0xFFFFFFFF00000000000000000000000000000000000000000000000000000000 DUP3 AND SWAP1 POP SWAP2 SWAP1 POP JUMP JUMPDEST PUSH1 0x0 PUSH20 0xFFFFFFFFFFFFFFFFFFFFFFFFFFFFFFFFFFFFFFFF DUP3 AND SWAP1 POP SWAP2 SWAP1 POP JUMP JUMPDEST PUSH1 0x0 DUP2 SWAP1 POP SWAP2 SWAP1 POP JUMP JUMPDEST PUSH1 0x0 JUMPDEST DUP4 DUP2 LT ISZERO PUSH2 0x27F0 JUMPI DUP1 DUP3 ADD MLOAD DUP2 DUP5 ADD MSTORE PUSH1 0x20 DUP2 ADD SWAP1 POP PUSH2 0x27D5 JUMP JUMPDEST DUP4 DUP2 GT ISZERO PUSH2 0x27FF JUMPI PUSH1 0x0 DUP5 DUP5 ADD MSTORE JUMPDEST POP POP POP POP JUMP JUMPDEST PUSH1 0x0 PUSH1 0x2 DUP3 DIV SWAP1 POP PUSH1 0x1 DUP3 AND DUP1 PUSH2 0x281D JUMPI PUSH1 0x7F DUP3 AND SWAP2 POP JUMPDEST PUSH1 0x20 DUP3 LT DUP2 EQ ISZERO PUSH2 0x2831 JUMPI PUSH2 0x2830 PUSH2 0x2980 JUMP JUMPDEST JUMPDEST POP SWAP2 SWAP1 POP JUMP JUMPDEST PUSH2 0x2840 DUP3 PUSH2 0x2A34 JUMP JUMPDEST DUP2 ADD DUP2 DUP2 LT PUSH8 0xFFFFFFFFFFFFFFFF DUP3 GT OR ISZERO PUSH2 0x285F JUMPI PUSH2 0x285E PUSH2 0x29DE JUMP JUMPDEST JUMPDEST DUP1 PUSH1 0x40 MSTORE POP POP POP JUMP JUMPDEST PUSH1 0x0 PUSH2 0x2873 DUP3 PUSH2 0x27C8 JUMP JUMPDEST SWAP2 POP PUSH32 0xFFFFFFFFFFFFFFFFFFFFFFFFFFFFFFFFFFFFFFFFFFFFFFFFFFFFFFFFFFFFFFFF DUP3 EQ ISZERO PUSH2 0x28A6 JUMPI PUSH2 0x28A5 PUSH2 0x2922 JUMP JUMPDEST JUMPDEST PUSH1 0x1 DUP3 ADD SWAP1 POP SWAP2 SWAP1 POP JUMP JUMPDEST PUSH1 0x0 PUSH2 0x28BC DUP3 PUSH2 0x28D5 JUMP JUMPDEST SWAP1 POP SWAP2 SWAP1 POP JUMP JUMPDEST PUSH1 0x0 PUSH2 0x28CE DUP3 PUSH2 0x28D5 JUMP JUMPDEST SWAP1 POP SWAP2 SWAP1 POP JUMP JUMPDEST PUSH1 0x0 PUSH2 0x28E0 DUP3 PUSH2 0x2A45 JUMP JUMPDEST SWAP1 POP SWAP2 SWAP1 POP JUMP JUMPDEST PUSH1 0x0 DUP2 SWAP1 POP SWAP2 SWAP1 POP JUMP JUMPDEST PUSH1 0x0 PUSH2 0x28FC DUP3 PUSH2 0x27C8 JUMP JUMPDEST SWAP2 POP PUSH2 0x2907 DUP4 PUSH2 0x27C8 JUMP JUMPDEST SWAP3 POP DUP3 PUSH2 0x2917 JUMPI PUSH2 0x2916 PUSH2 0x2951 JUMP JUMPDEST JUMPDEST DUP3 DUP3 MOD SWAP1 POP SWAP3 SWAP2 POP POP JUMP JUMPDEST PUSH32 0x4E487B7100000000000000000000000000000000000000000000000000000000 PUSH1 0x0 MSTORE PUSH1 0x11 PUSH1 0x4 MSTORE PUSH1 0x24 PUSH1 0x0 REVERT JUMPDEST PUSH32 0x4E487B7100000000000000000000000000000000000000000000000000000000 PUSH1 0x0 MSTORE PUSH1 0x12 PUSH1 0x4 MSTORE PUSH1 0x24 PUSH1 0x0 REVERT JUMPDEST PUSH32 0x4E487B7100000000000000000000000000000000000000000000000000000000 PUSH1 0x0 MSTORE PUSH1 0x22 PUSH1 0x4 MSTORE PUSH1 0x24 PUSH1 0x0 REVERT JUMPDEST PUSH32 0x4E487B7100000000000000000000000000000000000000000000000000000000 PUSH1 0x0 MSTORE PUSH1 0x32 PUSH1 0x4 MSTORE PUSH1 0x24 PUSH1 0x0 REVERT JUMPDEST PUSH32 0x4E487B7100000000000000000000000000000000000000000000000000000000 PUSH1 0x0 MSTORE PUSH1 0x41 PUSH1 0x4 MSTORE PUSH1 0x24 PUSH1 0x0 REVERT JUMPDEST PUSH1 0x0 PUSH1 0x3 RETURNDATASIZE GT ISZERO PUSH2 0x2A2C JUMPI PUSH1 0x4 PUSH1 0x0 DUP1 RETURNDATACOPY PUSH2 0x2A29 PUSH1 0x0 MLOAD PUSH2 0x2A52 JUMP JUMPDEST SWAP1 POP JUMPDEST SWAP1 JUMP JUMPDEST PUSH1 0x0 DUP1 REVERT JUMPDEST PUSH1 0x0 PUSH1 0x1F NOT PUSH1 0x1F DUP4 ADD AND SWAP1 POP SWAP2 SWAP1 POP JUMP JUMPDEST PUSH1 0x0 DUP2 PUSH1 0x60 SHL SWAP1 POP SWAP2 SWAP1 POP JUMP JUMPDEST PUSH1 0x0 DUP2 PUSH1 0xE0 SHR SWAP1 POP SWAP2 SWAP1 POP JUMP JUMPDEST PUSH32 0x455243313135353A207472616E7366657220746F206E6F6E2045524331313535 PUSH1 0x0 DUP3 ADD MSTORE PUSH32 0x526563656976657220696D706C656D656E746572000000000000000000000000 PUSH1 0x20 DUP3 ADD MSTORE POP JUMP JUMPDEST PUSH32 0x455243313135353A204552433131353552656365697665722072656A65637465 PUSH1 0x0 DUP3 ADD MSTORE PUSH32 0x6420746F6B656E73000000000000000000000000000000000000000000000000 PUSH1 0x20 DUP3 ADD MSTORE POP JUMP JUMPDEST PUSH32 0x4572726F7221204E6F7420456E6F7567682042616C616E636500000000000000 PUSH1 0x0 DUP3 ADD MSTORE POP JUMP JUMPDEST PUSH32 0x4469616D6F6E645F000000000000000000000000000000000000000000000000 PUSH1 0x0 DUP3 ADD MSTORE POP JUMP JUMPDEST PUSH32 0x4D696E7420466565204E6F742053657400000000000000000000000000000000 PUSH1 0x0 DUP3 ADD MSTORE POP JUMP JUMPDEST PUSH32 0x476F6C645F000000000000000000000000000000000000000000000000000000 PUSH1 0x0 DUP3 ADD MSTORE POP JUMP JUMPDEST PUSH32 0x4E6F7420456E6F7567682042616C616E63650000000000000000000000000000 PUSH1 0x0 DUP3 ADD MSTORE POP JUMP JUMPDEST PUSH32 0x44726F707369746520697320616C72656164792052756E6E696E670000000000 PUSH1 0x0 DUP3 ADD MSTORE POP JUMP JUMPDEST PUSH32 0x44726F707369746520697320616C72656164792053746F707065640000000000 PUSH1 0x0 DUP3 ADD MSTORE POP JUMP JUMPDEST PUSH32 0x596F752063616E206D696E7420312D33204E4654730000000000000000000000 PUSH1 0x0 DUP3 ADD MSTORE POP JUMP JUMPDEST PUSH32 0x4F6E6C79204E46542D4553204F776E65722063616E2041636365737300000000 PUSH1 0x0 DUP3 ADD MSTORE POP JUMP JUMPDEST PUSH32 0x4F776E65722053686F756C6420736574206D696E742046656520466972737400 PUSH1 0x0 DUP3 ADD MSTORE POP JUMP JUMPDEST PUSH32 0x44726F7073697465206973206E6F74204F70656E6564205965742E0000000000 PUSH1 0x0 DUP3 ADD MSTORE POP JUMP JUMPDEST PUSH32 0x4D6178204D696E74696E67204C696D6974207265616368656400000000000000 PUSH1 0x0 DUP3 ADD MSTORE POP JUMP JUMPDEST PUSH32 0x53696C7665725F00000000000000000000000000000000000000000000000000 PUSH1 0x0 DUP3 ADD MSTORE POP JUMP JUMPDEST PUSH32 0x455243313135353A206D696E7420746F20746865207A65726F20616464726573 PUSH1 0x0 DUP3 ADD MSTORE PUSH32 0x7300000000000000000000000000000000000000000000000000000000000000 PUSH1 0x20 DUP3 ADD MSTORE POP JUMP JUMPDEST PUSH1 0x0 PUSH1 0x44 RETURNDATASIZE LT ISZERO PUSH2 0x2D71 JUMPI PUSH2 0x2DF4 JUMP JUMPDEST PUSH2 0x2D79 PUSH2 0x25CD JUMP JUMPDEST PUSH1 0x4 RETURNDATASIZE SUB PUSH1 0x4 DUP3 RETURNDATACOPY DUP1 MLOAD RETURNDATASIZE PUSH1 0x24 DUP3 ADD GT PUSH8 0xFFFFFFFFFFFFFFFF DUP3 GT OR ISZERO PUSH2 0x2DA1 JUMPI POP POP PUSH2 0x2DF4 JUMP JUMPDEST DUP1 DUP3 ADD DUP1 MLOAD PUSH8 0xFFFFFFFFFFFFFFFF DUP2 GT ISZERO PUSH2 0x2DBF JUMPI POP POP POP POP PUSH2 0x2DF4 JUMP JUMPDEST DUP1 PUSH1 0x20 DUP4 ADD ADD PUSH1 0x4 RETURNDATASIZE SUB DUP6 ADD DUP2 GT ISZERO PUSH2 0x2DDC JUMPI POP POP POP POP POP PUSH2 0x2DF4 JUMP JUMPDEST PUSH2 0x2DEB DUP3 PUSH1 0x20 ADD DUP6 ADD DUP7 PUSH2 0x2837 JUMP JUMPDEST DUP3 SWAP6 POP POP POP POP POP POP JUMPDEST SWAP1 JUMP JUMPDEST PUSH2 0x2E00 DUP2 PUSH2 0x274C JUMP JUMPDEST DUP2 EQ PUSH2 0x2E0B JUMPI PUSH1 0x0 DUP1 REVERT JUMPDEST POP JUMP JUMPDEST PUSH2 0x2E17 DUP2 PUSH2 0x275E JUMP JUMPDEST DUP2 EQ PUSH2 0x2E22 JUMPI PUSH1 0x0 DUP1 REVERT JUMPDEST POP JUMP JUMPDEST PUSH2 0x2E2E DUP2 PUSH2 0x277C JUMP JUMPDEST DUP2 EQ PUSH2 0x2E39 JUMPI PUSH1 0x0 DUP1 REVERT JUMPDEST POP JUMP JUMPDEST PUSH2 0x2E45 DUP2 PUSH2 0x27C8 JUMP JUMPDEST DUP2 EQ PUSH2 0x2E50 JUMPI PUSH1 0x0 DUP1 REVERT JUMPDEST POP JUMP INVALID LOG2 PUSH5 0x6970667358 0x22 SLT KECCAK256 0xE5 0xD2 DUP4 SHL CREATE PUSH31 0x1B4532A9A3EBBEA040D2FBFF48207A929EEF9E514A076D6EC08F64736F6C63 NUMBER STOP ADDMOD SMOD STOP CALLER "
				},
				"gasEstimates": {
					"creation": {
						"codeDepositCost": "2382600",
						"executionCost": "infinite",
						"totalCost": "infinite"
					},
					"external": {
						"Owner()": "2608",
						"changeOwner(address)": "29265",
						"checkMintedCategoryWise()": "infinite",
						"checkTotalMinted()": "2461",
						"contractBalance()": "2736",
						"cryptoRandomMint(address,uint256)": "infinite",
						"fiatRandomMint(address,uint256)": "infinite",
						"getMintFee()": "2460",
						"isAdmin()": "2643",
						"isPaused()": "2493",
						"openDropsite()": "28883",
						"returnNftsOwner(address)": "infinite",
						"setMintFee(uint256)": "24863",
						"stopDropsite()": "28926",
						"withDraw(address,uint256)": "infinite"
					},
					"internal": {
						"depositAmount(address,uint256)": "infinite",
						"random()": "infinite",
						"randomMinting(address)": "infinite",
						"updateConditions(uint256)": "infinite"
					}
				},
				"methodIdentifiers": {
					"Owner()": "b4a99a4e",
					"changeOwner(address)": "a6f9dae1",
					"checkMintedCategoryWise()": "60daa851",
					"checkTotalMinted()": "0390c11c",
					"contractBalance()": "8b7afe2e",
					"cryptoRandomMint(address,uint256)": "5b27d84e",
					"fiatRandomMint(address,uint256)": "5e1f0556",
					"getMintFee()": "7a5caab3",
					"isAdmin()": "b6db75a0",
					"isPaused()": "b187bd26",
					"openDropsite()": "15460259",
					"returnNftsOwner(address)": "225011da",
					"setMintFee(uint256)": "eddd0d9c",
					"stopDropsite()": "aa90c726",
					"withDraw(address,uint256)": "191e2e83"
				}
			},
			"storageLayout": {
				"storage": [
					{
						"astId": 611,
						"contract": "NFTES_Drop_flat.sol:NFTES_Drop",
						"label": "_balances",
						"offset": 0,
						"slot": "0",
						"type": "t_mapping(t_uint256,t_mapping(t_address,t_uint256))"
					},
					{
						"astId": 617,
						"contract": "NFTES_Drop_flat.sol:NFTES_Drop",
						"label": "_operatorApprovals",
						"offset": 0,
						"slot": "1",
						"type": "t_mapping(t_address,t_mapping(t_address,t_bool))"
					},
					{
						"astId": 807,
						"contract": "NFTES_Drop_flat.sol:NFTES_Drop",
						"label": "data",
						"offset": 0,
						"slot": "2",
						"type": "t_string_storage"
					},
					{
						"astId": 809,
						"contract": "NFTES_Drop_flat.sol:NFTES_Drop",
						"label": "totalNFTsMinted",
						"offset": 0,
						"slot": "3",
						"type": "t_uint256"
					},
					{
						"astId": 811,
						"contract": "NFTES_Drop_flat.sol:NFTES_Drop",
						"label": "numOfCopies",
						"offset": 0,
						"slot": "4",
						"type": "t_uint256"
					},
					{
						"astId": 813,
						"contract": "NFTES_Drop_flat.sol:NFTES_Drop",
						"label": "mintFees",
						"offset": 0,
						"slot": "5",
						"type": "t_uint256"
					},
					{
						"astId": 815,
						"contract": "NFTES_Drop_flat.sol:NFTES_Drop",
						"label": "Diamond",
						"offset": 0,
						"slot": "6",
						"type": "t_uint256"
					},
					{
						"astId": 817,
						"contract": "NFTES_Drop_flat.sol:NFTES_Drop",
						"label": "Gold",
						"offset": 0,
						"slot": "7",
						"type": "t_uint256"
					},
					{
						"astId": 819,
						"contract": "NFTES_Drop_flat.sol:NFTES_Drop",
						"label": "Silver",
						"offset": 0,
						"slot": "8",
						"type": "t_uint256"
					},
					{
						"astId": 822,
						"contract": "NFTES_Drop_flat.sol:NFTES_Drop",
						"label": "maxDiamondCount",
						"offset": 0,
						"slot": "9",
						"type": "t_uint256"
					},
					{
						"astId": 825,
						"contract": "NFTES_Drop_flat.sol:NFTES_Drop",
						"label": "maxGoldCount",
						"offset": 0,
						"slot": "10",
						"type": "t_uint256"
					},
					{
						"astId": 828,
						"contract": "NFTES_Drop_flat.sol:NFTES_Drop",
						"label": "maxSilverCount",
						"offset": 0,
						"slot": "11",
						"type": "t_uint256"
					},
					{
						"astId": 837,
						"contract": "NFTES_Drop_flat.sol:NFTES_Drop",
						"label": "dropsite_NFT_Owner",
						"offset": 0,
						"slot": "12",
						"type": "t_mapping(t_address,t_struct(nft_Owner)832_storage)"
					},
					{
						"astId": 841,
						"contract": "NFTES_Drop_flat.sol:NFTES_Drop",
						"label": "deposits",
						"offset": 0,
						"slot": "13",
						"type": "t_mapping(t_address,t_uint256)"
					},
					{
						"astId": 878,
						"contract": "NFTES_Drop_flat.sol:NFTES_Drop",
						"label": "isPaused",
						"offset": 0,
						"slot": "14",
						"type": "t_bool"
					},
					{
						"astId": 880,
						"contract": "NFTES_Drop_flat.sol:NFTES_Drop",
						"label": "Owner",
						"offset": 1,
						"slot": "14",
						"type": "t_address_payable"
					},
					{
						"astId": 882,
						"contract": "NFTES_Drop_flat.sol:NFTES_Drop",
						"label": "_name",
						"offset": 0,
						"slot": "15",
						"type": "t_string_storage"
					}
				],
				"types": {
					"t_address": {
						"encoding": "inplace",
						"label": "address",
						"numberOfBytes": "20"
					},
					"t_address_payable": {
						"encoding": "inplace",
						"label": "address payable",
						"numberOfBytes": "20"
					},
					"t_array(t_uint256)dyn_storage": {
						"base": "t_uint256",
						"encoding": "dynamic_array",
						"label": "uint256[]",
						"numberOfBytes": "32"
					},
					"t_bool": {
						"encoding": "inplace",
						"label": "bool",
						"numberOfBytes": "1"
					},
					"t_mapping(t_address,t_bool)": {
						"encoding": "mapping",
						"key": "t_address",
						"label": "mapping(address => bool)",
						"numberOfBytes": "32",
						"value": "t_bool"
					},
					"t_mapping(t_address,t_mapping(t_address,t_bool))": {
						"encoding": "mapping",
						"key": "t_address",
						"label": "mapping(address => mapping(address => bool))",
						"numberOfBytes": "32",
						"value": "t_mapping(t_address,t_bool)"
					},
					"t_mapping(t_address,t_struct(nft_Owner)832_storage)": {
						"encoding": "mapping",
						"key": "t_address",
						"label": "mapping(address => struct NFTES_Drop.nft_Owner)",
						"numberOfBytes": "32",
						"value": "t_struct(nft_Owner)832_storage"
					},
					"t_mapping(t_address,t_uint256)": {
						"encoding": "mapping",
						"key": "t_address",
						"label": "mapping(address => uint256)",
						"numberOfBytes": "32",
						"value": "t_uint256"
					},
					"t_mapping(t_uint256,t_mapping(t_address,t_uint256))": {
						"encoding": "mapping",
						"key": "t_uint256",
						"label": "mapping(uint256 => mapping(address => uint256))",
						"numberOfBytes": "32",
						"value": "t_mapping(t_address,t_uint256)"
					},
					"t_string_storage": {
						"encoding": "bytes",
						"label": "string",
						"numberOfBytes": "32"
					},
					"t_struct(nft_Owner)832_storage": {
						"encoding": "inplace",
						"label": "struct NFTES_Drop.nft_Owner",
						"members": [
							{
								"astId": 831,
								"contract": "NFTES_Drop_flat.sol:NFTES_Drop",
								"label": "owned_Dropsite_NFTs",
								"offset": 0,
								"slot": "0",
								"type": "t_array(t_uint256)dyn_storage"
							}
						],
						"numberOfBytes": "32"
					},
					"t_uint256": {
						"encoding": "inplace",
						"label": "uint256",
						"numberOfBytes": "32"
					}
				}
			},
			"userdoc": {
				"kind": "user",
				"methods": {},
				"version": 1
			}
		}
	}
}