{
	"Dropsite.sol": {
		"Dropsite": {
			"abi": [
				{
					"inputs": [
						{
							"internalType": "string",
							"name": "name",
							"type": "string"
						}
					],
					"stateMutability": "nonpayable",
					"type": "constructor"
				},
				{
					"anonymous": false,
					"inputs": [
						{
							"indexed": true,
							"internalType": "address",
							"name": "operator",
							"type": "address"
						},
						{
							"indexed": true,
							"internalType": "address",
							"name": "from",
							"type": "address"
						},
						{
							"indexed": true,
							"internalType": "address",
							"name": "to",
							"type": "address"
						},
						{
							"indexed": false,
							"internalType": "uint256",
							"name": "id",
							"type": "uint256"
						},
						{
							"indexed": false,
							"internalType": "uint256",
							"name": "value",
							"type": "uint256"
						}
					],
					"name": "TransferSingle",
					"type": "event"
				},
				{
					"inputs": [],
					"name": "ContractBalance",
					"outputs": [
						{
							"internalType": "uint256",
							"name": "",
							"type": "uint256"
						}
					],
					"stateMutability": "view",
					"type": "function"
				},
				{
					"inputs": [
						{
							"internalType": "address",
							"name": "user_addr",
							"type": "address"
						}
					],
					"name": "CryptoRandomMint",
					"outputs": [
						{
							"internalType": "uint256",
							"name": "",
							"type": "uint256"
						},
						{
							"internalType": "string",
							"name": "",
							"type": "string"
						}
					],
					"stateMutability": "payable",
					"type": "function"
				},
				{
					"inputs": [
						{
							"internalType": "address",
							"name": "user_addr",
							"type": "address"
						},
						{
							"internalType": "uint256",
							"name": "noOfMints",
							"type": "uint256"
						}
					],
					"name": "FiatRandomMint",
					"outputs": [
						{
							"internalType": "uint256",
							"name": "",
							"type": "uint256"
						},
						{
							"internalType": "string",
							"name": "",
							"type": "string"
						}
					],
					"stateMutability": "nonpayable",
					"type": "function"
				},
				{
					"inputs": [],
					"name": "IsPaused",
					"outputs": [
						{
							"internalType": "bool",
							"name": "",
							"type": "bool"
						}
					],
					"stateMutability": "view",
					"type": "function"
				},
				{
					"inputs": [],
					"name": "Owner",
					"outputs": [
						{
							"internalType": "address payable",
							"name": "",
							"type": "address"
						}
					],
					"stateMutability": "view",
					"type": "function"
				},
				{
					"inputs": [],
					"name": "checkMintedCategoryWise",
					"outputs": [
						{
							"internalType": "uint256",
							"name": "",
							"type": "uint256"
						},
						{
							"internalType": "uint256",
							"name": "",
							"type": "uint256"
						},
						{
							"internalType": "uint256",
							"name": "",
							"type": "uint256"
						}
					],
					"stateMutability": "view",
					"type": "function"
				},
				{
					"inputs": [],
					"name": "checkTotalMinted",
					"outputs": [
						{
							"internalType": "uint256",
							"name": "",
							"type": "uint256"
						}
					],
					"stateMutability": "view",
					"type": "function"
				},
				{
					"inputs": [],
					"name": "getMintFee",
					"outputs": [
						{
							"internalType": "uint256",
							"name": "",
							"type": "uint256"
						}
					],
					"stateMutability": "view",
					"type": "function"
				},
				{
					"inputs": [],
					"name": "openDropsite",
					"outputs": [],
					"stateMutability": "nonpayable",
					"type": "function"
				},
				{
					"inputs": [
						{
							"internalType": "address",
							"name": "addr",
							"type": "address"
						}
					],
					"name": "returnOwner",
					"outputs": [
						{
							"internalType": "uint256[]",
							"name": "",
							"type": "uint256[]"
						}
					],
					"stateMutability": "view",
					"type": "function"
				},
				{
					"inputs": [
						{
							"internalType": "uint256",
							"name": "_mintFee",
							"type": "uint256"
						}
					],
					"name": "setMintFee",
					"outputs": [],
					"stateMutability": "nonpayable",
					"type": "function"
				},
				{
					"inputs": [],
					"name": "stopDropsite",
					"outputs": [],
					"stateMutability": "nonpayable",
					"type": "function"
				},
				{
					"inputs": [
						{
							"internalType": "address payable",
							"name": "to",
							"type": "address"
						}
					],
					"name": "withDraw",
					"outputs": [],
					"stateMutability": "payable",
					"type": "function"
				}
			],
			"devdoc": {
				"kind": "dev",
				"methods": {},
				"version": 1
			},
			"evm": {
				"assembly": "    /* \"Dropsite.sol\":146:6660  contract Dropsite is ERC1155_Dropsite  { ... */\n  mstore(0x40, 0x80)\n    /* \"Dropsite.sol\":241:257  string  data =\"\" */\n  mload(0x40)\n  dup1\n  0x20\n  add\n  0x40\n  mstore\n  dup1\n  0x00\n  dup2\n  mstore\n  pop\n  0x02\n  swap1\n  dup1\n  mload\n  swap1\n  0x20\n  add\n  swap1\n  tag_1\n  swap3\n  swap2\n  swap1\n  tag_2\n  jump\t// in\ntag_1:\n  pop\n    /* \"Dropsite.sol\":440:506  uint8[20] private nums = [0,1,1,2,2,2,2,2,2,2,2,2,2,2,2,2,2,2,2,2] */\n  mload(0x40)\n  dup1\n  0x0280\n  add\n  0x40\n  mstore\n  dup1\n    /* \"Dropsite.sol\":466:467  0 */\n  0x00\n    /* \"Dropsite.sol\":440:506  uint8[20] private nums = [0,1,1,2,2,2,2,2,2,2,2,2,2,2,2,2,2,2,2,2] */\n  0xff\n  and\n  dup2\n  mstore\n  0x20\n  add\n    /* \"Dropsite.sol\":468:469  1 */\n  0x01\n    /* \"Dropsite.sol\":440:506  uint8[20] private nums = [0,1,1,2,2,2,2,2,2,2,2,2,2,2,2,2,2,2,2,2] */\n  0xff\n  and\n  dup2\n  mstore\n  0x20\n  add\n    /* \"Dropsite.sol\":470:471  1 */\n  0x01\n    /* \"Dropsite.sol\":440:506  uint8[20] private nums = [0,1,1,2,2,2,2,2,2,2,2,2,2,2,2,2,2,2,2,2] */\n  0xff\n  and\n  dup2\n  mstore\n  0x20\n  add\n    /* \"Dropsite.sol\":472:473  2 */\n  0x02\n    /* \"Dropsite.sol\":440:506  uint8[20] private nums = [0,1,1,2,2,2,2,2,2,2,2,2,2,2,2,2,2,2,2,2] */\n  0xff\n  and\n  dup2\n  mstore\n  0x20\n  add\n    /* \"Dropsite.sol\":474:475  2 */\n  0x02\n    /* \"Dropsite.sol\":440:506  uint8[20] private nums = [0,1,1,2,2,2,2,2,2,2,2,2,2,2,2,2,2,2,2,2] */\n  0xff\n  and\n  dup2\n  mstore\n  0x20\n  add\n    /* \"Dropsite.sol\":476:477  2 */\n  0x02\n    /* \"Dropsite.sol\":440:506  uint8[20] private nums = [0,1,1,2,2,2,2,2,2,2,2,2,2,2,2,2,2,2,2,2] */\n  0xff\n  and\n  dup2\n  mstore\n  0x20\n  add\n    /* \"Dropsite.sol\":478:479  2 */\n  0x02\n    /* \"Dropsite.sol\":440:506  uint8[20] private nums = [0,1,1,2,2,2,2,2,2,2,2,2,2,2,2,2,2,2,2,2] */\n  0xff\n  and\n  dup2\n  mstore\n  0x20\n  add\n    /* \"Dropsite.sol\":480:481  2 */\n  0x02\n    /* \"Dropsite.sol\":440:506  uint8[20] private nums = [0,1,1,2,2,2,2,2,2,2,2,2,2,2,2,2,2,2,2,2] */\n  0xff\n  and\n  dup2\n  mstore\n  0x20\n  add\n    /* \"Dropsite.sol\":482:483  2 */\n  0x02\n    /* \"Dropsite.sol\":440:506  uint8[20] private nums = [0,1,1,2,2,2,2,2,2,2,2,2,2,2,2,2,2,2,2,2] */\n  0xff\n  and\n  dup2\n  mstore\n  0x20\n  add\n    /* \"Dropsite.sol\":484:485  2 */\n  0x02\n    /* \"Dropsite.sol\":440:506  uint8[20] private nums = [0,1,1,2,2,2,2,2,2,2,2,2,2,2,2,2,2,2,2,2] */\n  0xff\n  and\n  dup2\n  mstore\n  0x20\n  add\n    /* \"Dropsite.sol\":486:487  2 */\n  0x02\n    /* \"Dropsite.sol\":440:506  uint8[20] private nums = [0,1,1,2,2,2,2,2,2,2,2,2,2,2,2,2,2,2,2,2] */\n  0xff\n  and\n  dup2\n  mstore\n  0x20\n  add\n    /* \"Dropsite.sol\":488:489  2 */\n  0x02\n    /* \"Dropsite.sol\":440:506  uint8[20] private nums = [0,1,1,2,2,2,2,2,2,2,2,2,2,2,2,2,2,2,2,2] */\n  0xff\n  and\n  dup2\n  mstore\n  0x20\n  add\n    /* \"Dropsite.sol\":490:491  2 */\n  0x02\n    /* \"Dropsite.sol\":440:506  uint8[20] private nums = [0,1,1,2,2,2,2,2,2,2,2,2,2,2,2,2,2,2,2,2] */\n  0xff\n  and\n  dup2\n  mstore\n  0x20\n  add\n    /* \"Dropsite.sol\":492:493  2 */\n  0x02\n    /* \"Dropsite.sol\":440:506  uint8[20] private nums = [0,1,1,2,2,2,2,2,2,2,2,2,2,2,2,2,2,2,2,2] */\n  0xff\n  and\n  dup2\n  mstore\n  0x20\n  add\n    /* \"Dropsite.sol\":494:495  2 */\n  0x02\n    /* \"Dropsite.sol\":440:506  uint8[20] private nums = [0,1,1,2,2,2,2,2,2,2,2,2,2,2,2,2,2,2,2,2] */\n  0xff\n  and\n  dup2\n  mstore\n  0x20\n  add\n    /* \"Dropsite.sol\":496:497  2 */\n  0x02\n    /* \"Dropsite.sol\":440:506  uint8[20] private nums = [0,1,1,2,2,2,2,2,2,2,2,2,2,2,2,2,2,2,2,2] */\n  0xff\n  and\n  dup2\n  mstore\n  0x20\n  add\n    /* \"Dropsite.sol\":498:499  2 */\n  0x02\n    /* \"Dropsite.sol\":440:506  uint8[20] private nums = [0,1,1,2,2,2,2,2,2,2,2,2,2,2,2,2,2,2,2,2] */\n  0xff\n  and\n  dup2\n  mstore\n  0x20\n  add\n    /* \"Dropsite.sol\":500:501  2 */\n  0x02\n    /* \"Dropsite.sol\":440:506  uint8[20] private nums = [0,1,1,2,2,2,2,2,2,2,2,2,2,2,2,2,2,2,2,2] */\n  0xff\n  and\n  dup2\n  mstore\n  0x20\n  add\n    /* \"Dropsite.sol\":502:503  2 */\n  0x02\n    /* \"Dropsite.sol\":440:506  uint8[20] private nums = [0,1,1,2,2,2,2,2,2,2,2,2,2,2,2,2,2,2,2,2] */\n  0xff\n  and\n  dup2\n  mstore\n  0x20\n  add\n    /* \"Dropsite.sol\":504:505  2 */\n  0x02\n    /* \"Dropsite.sol\":440:506  uint8[20] private nums = [0,1,1,2,2,2,2,2,2,2,2,2,2,2,2,2,2,2,2,2] */\n  0xff\n  and\n  dup2\n  mstore\n  pop\n  0x03\n  swap1\n  0x14\n  tag_3\n  swap3\n  swap2\n  swap1\n  tag_4\n  jump\t// in\ntag_3:\n  pop\n    /* \"Dropsite.sol\":1269:1273  true */\n  0x01\n    /* \"Dropsite.sol\":1246:1273  bool public IsPaused = true */\n  0x0c\n  exp(0x0100, 0x00)\n  dup2\n  sload\n  dup2\n  0xff\n  mul\n  not\n  and\n  swap1\n  dup4\n  iszero\n  iszero\n  mul\n  or\n  swap1\n  sstore\n  pop\n    /* \"Dropsite.sol\":1340:1615  constructor (string memory name){... */\n  callvalue\n  dup1\n  iszero\n  tag_5\n  jumpi\n  0x00\n  dup1\n  revert\ntag_5:\n  pop\n  mload(0x40)\n  sub(codesize, bytecodeSize)\n  dup1\n  bytecodeSize\n  dup4\n  codecopy\n  dup2\n  dup2\n  add\n  0x40\n  mstore\n  dup2\n  add\n  swap1\n  tag_6\n  swap2\n  swap1\n  tag_7\n  jump\t// in\ntag_6:\n    /* \"Dropsite.sol\":1390:1394  name */\n  dup1\n    /* \"Dropsite.sol\":1382:1387  _name */\n  0x0d\n    /* \"Dropsite.sol\":1382:1394  _name = name */\n  swap1\n  dup1\n  mload\n  swap1\n  0x20\n  add\n  swap1\n  tag_10\n  swap3\n  swap2\n  swap1\n  tag_2\n  jump\t// in\ntag_10:\n  pop\n    /* \"Dropsite.sol\":1420:1430  msg.sender */\n  caller\n    /* \"Dropsite.sol\":1404:1409  Owner */\n  0x0c\n  0x01\n    /* \"Dropsite.sol\":1404:1431  Owner = payable(msg.sender) */\n  0x0100\n  exp\n  dup2\n  sload\n  dup2\n  0xffffffffffffffffffffffffffffffffffffffff\n  mul\n  not\n  and\n  swap1\n  dup4\n  0xffffffffffffffffffffffffffffffffffffffff\n  and\n  mul\n  or\n  swap1\n  sstore\n  pop\n    /* \"Dropsite.sol\":1458:1459  0 */\n  0x00\n    /* \"Dropsite.sol\":1442:1457  TotalNFTsMinted */\n  0x04\n    /* \"Dropsite.sol\":1442:1459  TotalNFTsMinted=0 */\n  dup2\n  swap1\n  sstore\n  pop\n    /* \"Dropsite.sol\":1505:1506  1 */\n  0x01\n    /* \"Dropsite.sol\":1493:1504  numOfCopies */\n  0x05\n    /* \"Dropsite.sol\":1493:1506  numOfCopies=1 */\n  dup2\n  swap1\n  sstore\n  pop\n    /* \"Dropsite.sol\":1561:1562  0 */\n  0x00\n    /* \"Dropsite.sol\":1553:1560  Diamond */\n  0x07\n    /* \"Dropsite.sol\":1553:1562  Diamond=0 */\n  dup2\n  swap1\n  sstore\n  pop\n    /* \"Dropsite.sol\":1589:1590  0 */\n  0x00\n    /* \"Dropsite.sol\":1584:1588  Gold */\n  0x08\n    /* \"Dropsite.sol\":1584:1590  Gold=0 */\n  dup2\n  swap1\n  sstore\n  pop\n    /* \"Dropsite.sol\":1607:1608  0 */\n  0x00\n    /* \"Dropsite.sol\":1600:1606  Silver */\n  0x09\n    /* \"Dropsite.sol\":1600:1608  Silver=0 */\n  dup2\n  swap1\n  sstore\n  pop\n    /* \"Dropsite.sol\":1340:1615  constructor (string memory name){... */\n  pop\n    /* \"Dropsite.sol\":146:6660  contract Dropsite is ERC1155_Dropsite  { ... */\n  jump(tag_11)\ntag_2:\n  dup3\n  dup1\n  sload\n  tag_12\n  swap1\n  tag_13\n  jump\t// in\ntag_12:\n  swap1\n  0x00\n  mstore\n  keccak256(0x00, 0x20)\n  swap1\n  0x1f\n  add\n  0x20\n  swap1\n  div\n  dup2\n  add\n  swap3\n  dup3\n  tag_15\n  jumpi\n  0x00\n  dup6\n  sstore\n  jump(tag_14)\ntag_15:\n  dup3\n  0x1f\n  lt\n  tag_16\n  jumpi\n  dup1\n  mload\n  not(0xff)\n  and\n  dup4\n  dup1\n  add\n  or\n  dup6\n  sstore\n  jump(tag_14)\ntag_16:\n  dup3\n  dup1\n  add\n  0x01\n  add\n  dup6\n  sstore\n  dup3\n  iszero\n  tag_14\n  jumpi\n  swap2\n  dup3\n  add\ntag_17:\n  dup3\n  dup2\n  gt\n  iszero\n  tag_18\n  jumpi\n  dup3\n  mload\n  dup3\n  sstore\n  swap2\n  0x20\n  add\n  swap2\n  swap1\n  0x01\n  add\n  swap1\n  jump(tag_17)\ntag_18:\ntag_14:\n  pop\n  swap1\n  pop\n  tag_19\n  swap2\n  swap1\n  tag_20\n  jump\t// in\ntag_19:\n  pop\n  swap1\n  jump\t// out\ntag_4:\n  dup3\n  add(0x1f, 0x14)\n  0x20\n  swap1\n  div\n  dup2\n  add\n  swap3\n  dup3\n  iszero\n  tag_21\n  jumpi\n  swap2\n  0x20\n  mul\n  dup3\n  add\n  0x00\ntag_22:\n  dup4\n  dup3\n  gt\n  iszero\n  tag_23\n  jumpi\n  dup4\n  mload\n  dup4\n  dup3\n  0x0100\n  exp\n  dup2\n  sload\n  dup2\n  0xff\n  mul\n  not\n  and\n  swap1\n  dup4\n  0xff\n  and\n  mul\n  or\n  swap1\n  sstore\n  pop\n  swap3\n  0x20\n  add\n  swap3\n  0x01\n  add\n  0x20\n  dup2\n  0x00\n  add\n  div\n  swap3\n  dup4\n  add\n  swap3\n  0x01\n  sub\n  mul\n  jump(tag_22)\ntag_23:\n  dup1\n  iszero\n  tag_24\n  jumpi\n  dup3\n  dup2\n  0x0100\n  exp\n  dup2\n  sload\n  swap1\n  0xff\n  mul\n  not\n  and\n  swap1\n  sstore\n  0x01\n  add\n  0x20\n  dup2\n  0x00\n  add\n  div\n  swap3\n  dup4\n  add\n  swap3\n  0x01\n  sub\n  mul\n  jump(tag_23)\ntag_24:\n  pop\ntag_21:\n  pop\n  swap1\n  pop\n  tag_25\n  swap2\n  swap1\n  tag_20\n  jump\t// in\ntag_25:\n  pop\n  swap1\n  jump\t// out\ntag_20:\ntag_26:\n  dup1\n  dup3\n  gt\n  iszero\n  tag_27\n  jumpi\n  0x00\n  dup2\n  0x00\n  swap1\n  sstore\n  pop\n  0x01\n  add\n  jump(tag_26)\ntag_27:\n  pop\n  swap1\n  jump\t// out\n    /* \"#utility.yul\":7:428   */\ntag_29:\n    /* \"#utility.yul\":96:101   */\n  0x00\n    /* \"#utility.yul\":121:187   */\n  tag_31\n    /* \"#utility.yul\":137:186   */\n  tag_32\n    /* \"#utility.yul\":179:185   */\n  dup5\n    /* \"#utility.yul\":137:186   */\n  tag_33\n  jump\t// in\ntag_32:\n    /* \"#utility.yul\":121:187   */\n  tag_34\n  jump\t// in\ntag_31:\n    /* \"#utility.yul\":112:187   */\n  swap1\n  pop\n    /* \"#utility.yul\":210:216   */\n  dup3\n    /* \"#utility.yul\":203:208   */\n  dup2\n    /* \"#utility.yul\":196:217   */\n  mstore\n    /* \"#utility.yul\":248:252   */\n  0x20\n    /* \"#utility.yul\":241:246   */\n  dup2\n    /* \"#utility.yul\":237:253   */\n  add\n    /* \"#utility.yul\":286:289   */\n  dup5\n    /* \"#utility.yul\":277:283   */\n  dup5\n    /* \"#utility.yul\":272:275   */\n  dup5\n    /* \"#utility.yul\":268:284   */\n  add\n    /* \"#utility.yul\":265:290   */\n  gt\n    /* \"#utility.yul\":262:374   */\n  iszero\n  tag_35\n  jumpi\n    /* \"#utility.yul\":293:372   */\n  tag_36\n  tag_37\n  jump\t// in\ntag_36:\n    /* \"#utility.yul\":262:374   */\ntag_35:\n    /* \"#utility.yul\":383:422   */\n  tag_38\n    /* \"#utility.yul\":415:421   */\n  dup5\n    /* \"#utility.yul\":410:413   */\n  dup3\n    /* \"#utility.yul\":405:408   */\n  dup6\n    /* \"#utility.yul\":383:422   */\n  tag_39\n  jump\t// in\ntag_38:\n    /* \"#utility.yul\":102:428   */\n  pop\n    /* \"#utility.yul\":7:428   */\n  swap4\n  swap3\n  pop\n  pop\n  pop\n  jump\t// out\n    /* \"#utility.yul\":448:803   */\ntag_40:\n    /* \"#utility.yul\":515:520   */\n  0x00\n    /* \"#utility.yul\":564:567   */\n  dup3\n    /* \"#utility.yul\":557:561   */\n  0x1f\n    /* \"#utility.yul\":549:555   */\n  dup4\n    /* \"#utility.yul\":545:562   */\n  add\n    /* \"#utility.yul\":541:568   */\n  slt\n    /* \"#utility.yul\":531:653   */\n  tag_42\n  jumpi\n    /* \"#utility.yul\":572:651   */\n  tag_43\n  tag_44\n  jump\t// in\ntag_43:\n    /* \"#utility.yul\":531:653   */\ntag_42:\n    /* \"#utility.yul\":682:688   */\n  dup2\n    /* \"#utility.yul\":676:689   */\n  mload\n    /* \"#utility.yul\":707:797   */\n  tag_45\n    /* \"#utility.yul\":793:796   */\n  dup5\n    /* \"#utility.yul\":785:791   */\n  dup3\n    /* \"#utility.yul\":778:782   */\n  0x20\n    /* \"#utility.yul\":770:776   */\n  dup7\n    /* \"#utility.yul\":766:783   */\n  add\n    /* \"#utility.yul\":707:797   */\n  tag_29\n  jump\t// in\ntag_45:\n    /* \"#utility.yul\":698:797   */\n  swap2\n  pop\n    /* \"#utility.yul\":521:803   */\n  pop\n    /* \"#utility.yul\":448:803   */\n  swap3\n  swap2\n  pop\n  pop\n  jump\t// out\n    /* \"#utility.yul\":809:1333   */\ntag_7:\n    /* \"#utility.yul\":889:895   */\n  0x00\n    /* \"#utility.yul\":938:940   */\n  0x20\n    /* \"#utility.yul\":926:935   */\n  dup3\n    /* \"#utility.yul\":917:924   */\n  dup5\n    /* \"#utility.yul\":913:936   */\n  sub\n    /* \"#utility.yul\":909:941   */\n  slt\n    /* \"#utility.yul\":906:1025   */\n  iszero\n  tag_47\n  jumpi\n    /* \"#utility.yul\":944:1023   */\n  tag_48\n  tag_49\n  jump\t// in\ntag_48:\n    /* \"#utility.yul\":906:1025   */\ntag_47:\n    /* \"#utility.yul\":1085:1086   */\n  0x00\n    /* \"#utility.yul\":1074:1083   */\n  dup3\n    /* \"#utility.yul\":1070:1087   */\n  add\n    /* \"#utility.yul\":1064:1088   */\n  mload\n    /* \"#utility.yul\":1115:1133   */\n  0xffffffffffffffff\n    /* \"#utility.yul\":1107:1113   */\n  dup2\n    /* \"#utility.yul\":1104:1134   */\n  gt\n    /* \"#utility.yul\":1101:1218   */\n  iszero\n  tag_50\n  jumpi\n    /* \"#utility.yul\":1137:1216   */\n  tag_51\n  tag_52\n  jump\t// in\ntag_51:\n    /* \"#utility.yul\":1101:1218   */\ntag_50:\n    /* \"#utility.yul\":1242:1316   */\n  tag_53\n    /* \"#utility.yul\":1308:1315   */\n  dup5\n    /* \"#utility.yul\":1299:1305   */\n  dup3\n    /* \"#utility.yul\":1288:1297   */\n  dup6\n    /* \"#utility.yul\":1284:1306   */\n  add\n    /* \"#utility.yul\":1242:1316   */\n  tag_40\n  jump\t// in\ntag_53:\n    /* \"#utility.yul\":1232:1316   */\n  swap2\n  pop\n    /* \"#utility.yul\":1035:1326   */\n  pop\n    /* \"#utility.yul\":809:1333   */\n  swap3\n  swap2\n  pop\n  pop\n  jump\t// out\n    /* \"#utility.yul\":1339:1468   */\ntag_34:\n    /* \"#utility.yul\":1373:1379   */\n  0x00\n    /* \"#utility.yul\":1400:1420   */\n  tag_55\n  tag_56\n  jump\t// in\ntag_55:\n    /* \"#utility.yul\":1390:1420   */\n  swap1\n  pop\n    /* \"#utility.yul\":1429:1462   */\n  tag_57\n    /* \"#utility.yul\":1457:1461   */\n  dup3\n    /* \"#utility.yul\":1449:1455   */\n  dup3\n    /* \"#utility.yul\":1429:1462   */\n  tag_58\n  jump\t// in\ntag_57:\n    /* \"#utility.yul\":1339:1468   */\n  swap2\n  swap1\n  pop\n  jump\t// out\n    /* \"#utility.yul\":1474:1549   */\ntag_56:\n    /* \"#utility.yul\":1507:1513   */\n  0x00\n    /* \"#utility.yul\":1540:1542   */\n  0x40\n    /* \"#utility.yul\":1534:1543   */\n  mload\n    /* \"#utility.yul\":1524:1543   */\n  swap1\n  pop\n    /* \"#utility.yul\":1474:1549   */\n  swap1\n  jump\t// out\n    /* \"#utility.yul\":1555:1863   */\ntag_33:\n    /* \"#utility.yul\":1617:1621   */\n  0x00\n    /* \"#utility.yul\":1707:1725   */\n  0xffffffffffffffff\n    /* \"#utility.yul\":1699:1705   */\n  dup3\n    /* \"#utility.yul\":1696:1726   */\n  gt\n    /* \"#utility.yul\":1693:1749   */\n  iszero\n  tag_61\n  jumpi\n    /* \"#utility.yul\":1729:1747   */\n  tag_62\n  tag_63\n  jump\t// in\ntag_62:\n    /* \"#utility.yul\":1693:1749   */\ntag_61:\n    /* \"#utility.yul\":1767:1796   */\n  tag_64\n    /* \"#utility.yul\":1789:1795   */\n  dup3\n    /* \"#utility.yul\":1767:1796   */\n  tag_65\n  jump\t// in\ntag_64:\n    /* \"#utility.yul\":1759:1796   */\n  swap1\n  pop\n    /* \"#utility.yul\":1851:1855   */\n  0x20\n    /* \"#utility.yul\":1845:1849   */\n  dup2\n    /* \"#utility.yul\":1841:1856   */\n  add\n    /* \"#utility.yul\":1833:1856   */\n  swap1\n  pop\n    /* \"#utility.yul\":1555:1863   */\n  swap2\n  swap1\n  pop\n  jump\t// out\n    /* \"#utility.yul\":1869:2176   */\ntag_39:\n    /* \"#utility.yul\":1937:1938   */\n  0x00\n    /* \"#utility.yul\":1947:2060   */\ntag_67:\n    /* \"#utility.yul\":1961:1967   */\n  dup4\n    /* \"#utility.yul\":1958:1959   */\n  dup2\n    /* \"#utility.yul\":1955:1968   */\n  lt\n    /* \"#utility.yul\":1947:2060   */\n  iszero\n  tag_69\n  jumpi\n    /* \"#utility.yul\":2046:2047   */\n  dup1\n    /* \"#utility.yul\":2041:2044   */\n  dup3\n    /* \"#utility.yul\":2037:2048   */\n  add\n    /* \"#utility.yul\":2031:2049   */\n  mload\n    /* \"#utility.yul\":2027:2028   */\n  dup2\n    /* \"#utility.yul\":2022:2025   */\n  dup5\n    /* \"#utility.yul\":2018:2029   */\n  add\n    /* \"#utility.yul\":2011:2050   */\n  mstore\n    /* \"#utility.yul\":1983:1985   */\n  0x20\n    /* \"#utility.yul\":1980:1981   */\n  dup2\n    /* \"#utility.yul\":1976:1986   */\n  add\n    /* \"#utility.yul\":1971:1986   */\n  swap1\n  pop\n    /* \"#utility.yul\":1947:2060   */\n  jump(tag_67)\ntag_69:\n    /* \"#utility.yul\":2078:2084   */\n  dup4\n    /* \"#utility.yul\":2075:2076   */\n  dup2\n    /* \"#utility.yul\":2072:2085   */\n  gt\n    /* \"#utility.yul\":2069:2170   */\n  iszero\n  tag_70\n  jumpi\n    /* \"#utility.yul\":2158:2159   */\n  0x00\n    /* \"#utility.yul\":2149:2155   */\n  dup5\n    /* \"#utility.yul\":2144:2147   */\n  dup5\n    /* \"#utility.yul\":2140:2156   */\n  add\n    /* \"#utility.yul\":2133:2160   */\n  mstore\n    /* \"#utility.yul\":2069:2170   */\ntag_70:\n    /* \"#utility.yul\":1918:2176   */\n  pop\n    /* \"#utility.yul\":1869:2176   */\n  pop\n  pop\n  pop\n  jump\t// out\n    /* \"#utility.yul\":2182:2502   */\ntag_13:\n    /* \"#utility.yul\":2226:2232   */\n  0x00\n    /* \"#utility.yul\":2263:2264   */\n  0x02\n    /* \"#utility.yul\":2257:2261   */\n  dup3\n    /* \"#utility.yul\":2253:2265   */\n  div\n    /* \"#utility.yul\":2243:2265   */\n  swap1\n  pop\n    /* \"#utility.yul\":2310:2311   */\n  0x01\n    /* \"#utility.yul\":2304:2308   */\n  dup3\n    /* \"#utility.yul\":2300:2312   */\n  and\n    /* \"#utility.yul\":2331:2349   */\n  dup1\n    /* \"#utility.yul\":2321:2402   */\n  tag_72\n  jumpi\n    /* \"#utility.yul\":2387:2391   */\n  0x7f\n    /* \"#utility.yul\":2379:2385   */\n  dup3\n    /* \"#utility.yul\":2375:2392   */\n  and\n    /* \"#utility.yul\":2365:2392   */\n  swap2\n  pop\n    /* \"#utility.yul\":2321:2402   */\ntag_72:\n    /* \"#utility.yul\":2449:2451   */\n  0x20\n    /* \"#utility.yul\":2441:2447   */\n  dup3\n    /* \"#utility.yul\":2438:2452   */\n  lt\n    /* \"#utility.yul\":2418:2436   */\n  dup2\n    /* \"#utility.yul\":2415:2453   */\n  eq\n    /* \"#utility.yul\":2412:2496   */\n  iszero\n  tag_73\n  jumpi\n    /* \"#utility.yul\":2468:2486   */\n  tag_74\n  tag_75\n  jump\t// in\ntag_74:\n    /* \"#utility.yul\":2412:2496   */\ntag_73:\n    /* \"#utility.yul\":2233:2502   */\n  pop\n    /* \"#utility.yul\":2182:2502   */\n  swap2\n  swap1\n  pop\n  jump\t// out\n    /* \"#utility.yul\":2508:2789   */\ntag_58:\n    /* \"#utility.yul\":2591:2618   */\n  tag_77\n    /* \"#utility.yul\":2613:2617   */\n  dup3\n    /* \"#utility.yul\":2591:2618   */\n  tag_65\n  jump\t// in\ntag_77:\n    /* \"#utility.yul\":2583:2589   */\n  dup2\n    /* \"#utility.yul\":2579:2619   */\n  add\n    /* \"#utility.yul\":2721:2727   */\n  dup2\n    /* \"#utility.yul\":2709:2719   */\n  dup2\n    /* \"#utility.yul\":2706:2728   */\n  lt\n    /* \"#utility.yul\":2685:2703   */\n  0xffffffffffffffff\n    /* \"#utility.yul\":2673:2683   */\n  dup3\n    /* \"#utility.yul\":2670:2704   */\n  gt\n    /* \"#utility.yul\":2667:2729   */\n  or\n    /* \"#utility.yul\":2664:2752   */\n  iszero\n  tag_78\n  jumpi\n    /* \"#utility.yul\":2732:2750   */\n  tag_79\n  tag_63\n  jump\t// in\ntag_79:\n    /* \"#utility.yul\":2664:2752   */\ntag_78:\n    /* \"#utility.yul\":2772:2782   */\n  dup1\n    /* \"#utility.yul\":2768:2770   */\n  0x40\n    /* \"#utility.yul\":2761:2783   */\n  mstore\n    /* \"#utility.yul\":2551:2789   */\n  pop\n    /* \"#utility.yul\":2508:2789   */\n  pop\n  pop\n  jump\t// out\n    /* \"#utility.yul\":2795:2975   */\ntag_75:\n    /* \"#utility.yul\":2843:2920   */\n  0x4e487b7100000000000000000000000000000000000000000000000000000000\n    /* \"#utility.yul\":2840:2841   */\n  0x00\n    /* \"#utility.yul\":2833:2921   */\n  mstore\n    /* \"#utility.yul\":2940:2944   */\n  0x22\n    /* \"#utility.yul\":2937:2938   */\n  0x04\n    /* \"#utility.yul\":2930:2945   */\n  mstore\n    /* \"#utility.yul\":2964:2968   */\n  0x24\n    /* \"#utility.yul\":2961:2962   */\n  0x00\n    /* \"#utility.yul\":2954:2969   */\n  revert\n    /* \"#utility.yul\":2981:3161   */\ntag_63:\n    /* \"#utility.yul\":3029:3106   */\n  0x4e487b7100000000000000000000000000000000000000000000000000000000\n    /* \"#utility.yul\":3026:3027   */\n  0x00\n    /* \"#utility.yul\":3019:3107   */\n  mstore\n    /* \"#utility.yul\":3126:3130   */\n  0x41\n    /* \"#utility.yul\":3123:3124   */\n  0x04\n    /* \"#utility.yul\":3116:3131   */\n  mstore\n    /* \"#utility.yul\":3150:3154   */\n  0x24\n    /* \"#utility.yul\":3147:3148   */\n  0x00\n    /* \"#utility.yul\":3140:3155   */\n  revert\n    /* \"#utility.yul\":3167:3284   */\ntag_44:\n    /* \"#utility.yul\":3276:3277   */\n  0x00\n    /* \"#utility.yul\":3273:3274   */\n  dup1\n    /* \"#utility.yul\":3266:3278   */\n  revert\n    /* \"#utility.yul\":3290:3407   */\ntag_37:\n    /* \"#utility.yul\":3399:3400   */\n  0x00\n    /* \"#utility.yul\":3396:3397   */\n  dup1\n    /* \"#utility.yul\":3389:3401   */\n  revert\n    /* \"#utility.yul\":3413:3530   */\ntag_52:\n    /* \"#utility.yul\":3522:3523   */\n  0x00\n    /* \"#utility.yul\":3519:3520   */\n  dup1\n    /* \"#utility.yul\":3512:3524   */\n  revert\n    /* \"#utility.yul\":3536:3653   */\ntag_49:\n    /* \"#utility.yul\":3645:3646   */\n  0x00\n    /* \"#utility.yul\":3642:3643   */\n  dup1\n    /* \"#utility.yul\":3635:3647   */\n  revert\n    /* \"#utility.yul\":3659:3761   */\ntag_65:\n    /* \"#utility.yul\":3700:3706   */\n  0x00\n    /* \"#utility.yul\":3751:3753   */\n  0x1f\n    /* \"#utility.yul\":3747:3754   */\n  not\n    /* \"#utility.yul\":3742:3744   */\n  0x1f\n    /* \"#utility.yul\":3735:3740   */\n  dup4\n    /* \"#utility.yul\":3731:3745   */\n  add\n    /* \"#utility.yul\":3727:3755   */\n  and\n    /* \"#utility.yul\":3717:3755   */\n  swap1\n  pop\n    /* \"#utility.yul\":3659:3761   */\n  swap2\n  swap1\n  pop\n  jump\t// out\n    /* \"Dropsite.sol\":146:6660  contract Dropsite is ERC1155_Dropsite  { ... */\ntag_11:\n  dataSize(sub_0)\n  dup1\n  dataOffset(sub_0)\n  0x00\n  codecopy\n  0x00\n  return\nstop\n\nsub_0: assembly {\n        /* \"Dropsite.sol\":146:6660  contract Dropsite is ERC1155_Dropsite  { ... */\n      mstore(0x40, 0x80)\n      jumpi(tag_1, lt(calldatasize, 0x04))\n      shr(0xe0, calldataload(0x00))\n      dup1\n      0x3d65df70\n      gt\n      tag_15\n      jumpi\n      dup1\n      0xaa90c726\n      gt\n      tag_16\n      jumpi\n      dup1\n      0xaa90c726\n      eq\n      tag_11\n      jumpi\n      dup1\n      0xb4a99a4e\n      eq\n      tag_12\n      jumpi\n      dup1\n      0xeddd0d9c\n      eq\n      tag_13\n      jumpi\n      dup1\n      0xfd6c3b1b\n      eq\n      tag_14\n      jumpi\n      jump(tag_1)\n    tag_16:\n      dup1\n      0x3d65df70\n      eq\n      tag_8\n      jumpi\n      dup1\n      0x60daa851\n      eq\n      tag_9\n      jumpi\n      dup1\n      0x7a5caab3\n      eq\n      tag_10\n      jumpi\n      jump(tag_1)\n    tag_15:\n      dup1\n      0x0390c11c\n      eq\n      tag_2\n      jumpi\n      dup1\n      0x0a67d2c7\n      eq\n      tag_3\n      jumpi\n      dup1\n      0x1309a563\n      eq\n      tag_4\n      jumpi\n      dup1\n      0x15460259\n      eq\n      tag_5\n      jumpi\n      dup1\n      0x27a8a072\n      eq\n      tag_6\n      jumpi\n      dup1\n      0x3b668059\n      eq\n      tag_7\n      jumpi\n    tag_1:\n      0x00\n      dup1\n      revert\n        /* \"Dropsite.sol\":2307:2411  function checkTotalMinted() public view OnlyOwner returns(uint){... */\n    tag_2:\n      callvalue\n      dup1\n      iszero\n      tag_17\n      jumpi\n      0x00\n      dup1\n      revert\n    tag_17:\n      pop\n      tag_18\n      tag_19\n      jump\t// in\n    tag_18:\n      mload(0x40)\n      tag_20\n      swap2\n      swap1\n      tag_21\n      jump\t// in\n    tag_20:\n      mload(0x40)\n      dup1\n      swap2\n      sub\n      swap1\n      return\n        /* \"Dropsite.sol\":2790:3004  function withDraw(address payable to) public payable OnlyOwner {... */\n    tag_3:\n      tag_22\n      0x04\n      dup1\n      calldatasize\n      sub\n      dup2\n      add\n      swap1\n      tag_23\n      swap2\n      swap1\n      tag_24\n      jump\t// in\n    tag_23:\n      tag_25\n      jump\t// in\n    tag_22:\n      stop\n        /* \"Dropsite.sol\":1246:1273  bool public IsPaused = true */\n    tag_4:\n      callvalue\n      dup1\n      iszero\n      tag_26\n      jumpi\n      0x00\n      dup1\n      revert\n    tag_26:\n      pop\n      tag_27\n      tag_28\n      jump\t// in\n    tag_27:\n      mload(0x40)\n      tag_29\n      swap2\n      swap1\n      tag_30\n      jump\t// in\n    tag_29:\n      mload(0x40)\n      dup1\n      swap2\n      sub\n      swap1\n      return\n        /* \"Dropsite.sol\":2559:2695  function openDropsite() public OnlyOwner {... */\n    tag_5:\n      callvalue\n      dup1\n      iszero\n      tag_31\n      jumpi\n      0x00\n      dup1\n      revert\n    tag_31:\n      pop\n      tag_32\n      tag_33\n      jump\t// in\n    tag_32:\n      stop\n        /* \"Dropsite.sol\":5306:5873  function FiatRandomMint(address user_addr, uint noOfMints) OnlyOwner contractIsNotPaused public returns (uint,string memory) {... */\n    tag_6:\n      callvalue\n      dup1\n      iszero\n      tag_34\n      jumpi\n      0x00\n      dup1\n      revert\n    tag_34:\n      pop\n      tag_35\n      0x04\n      dup1\n      calldatasize\n      sub\n      dup2\n      add\n      swap1\n      tag_36\n      swap2\n      swap1\n      tag_37\n      jump\t// in\n    tag_36:\n      tag_38\n      jump\t// in\n    tag_35:\n      mload(0x40)\n      tag_39\n      swap3\n      swap2\n      swap1\n      tag_40\n      jump\t// in\n    tag_39:\n      mload(0x40)\n      dup1\n      swap2\n      sub\n      swap1\n      return\n        /* \"Dropsite.sol\":3057:3165  function ContractBalance() public view OnlyOwner returns (uint){... */\n    tag_7:\n      callvalue\n      dup1\n      iszero\n      tag_41\n      jumpi\n      0x00\n      dup1\n      revert\n    tag_41:\n      pop\n      tag_42\n      tag_43\n      jump\t// in\n    tag_42:\n      mload(0x40)\n      tag_44\n      swap2\n      swap1\n      tag_21\n      jump\t// in\n    tag_44:\n      mload(0x40)\n      dup1\n      swap2\n      sub\n      swap1\n      return\n        /* \"Dropsite.sol\":6090:6658  function CryptoRandomMint(address user_addr)  contractIsNotPaused public payable returns (uint,string memory) {... */\n    tag_8:\n      tag_45\n      0x04\n      dup1\n      calldatasize\n      sub\n      dup2\n      add\n      swap1\n      tag_46\n      swap2\n      swap1\n      tag_47\n      jump\t// in\n    tag_46:\n      tag_48\n      jump\t// in\n    tag_45:\n      mload(0x40)\n      tag_49\n      swap3\n      swap2\n      swap1\n      tag_40\n      jump\t// in\n    tag_49:\n      mload(0x40)\n      dup1\n      swap2\n      sub\n      swap1\n      return\n        /* \"Dropsite.sol\":1882:2029  function checkMintedCategoryWise() public view OnlyOwner contractIsNotPaused returns(uint,uint,uint){... */\n    tag_9:\n      callvalue\n      dup1\n      iszero\n      tag_50\n      jumpi\n      0x00\n      dup1\n      revert\n    tag_50:\n      pop\n      tag_51\n      tag_52\n      jump\t// in\n    tag_51:\n      mload(0x40)\n      tag_53\n      swap4\n      swap3\n      swap2\n      swap1\n      tag_54\n      jump\t// in\n    tag_53:\n      mload(0x40)\n      dup1\n      swap2\n      sub\n      swap1\n      return\n        /* \"Dropsite.sol\":2151:2262  function getMintFee() public view OnlyOwner contractIsNotPaused returns (uint) {... */\n    tag_10:\n      callvalue\n      dup1\n      iszero\n      tag_55\n      jumpi\n      0x00\n      dup1\n      revert\n    tag_55:\n      pop\n      tag_56\n      tag_57\n      jump\t// in\n    tag_56:\n      mload(0x40)\n      tag_58\n      swap2\n      swap1\n      tag_21\n      jump\t// in\n    tag_58:\n      mload(0x40)\n      dup1\n      swap2\n      sub\n      swap1\n      return\n        /* \"Dropsite.sol\":2417:2552  function stopDropsite() public OnlyOwner{... */\n    tag_11:\n      callvalue\n      dup1\n      iszero\n      tag_59\n      jumpi\n      0x00\n      dup1\n      revert\n    tag_59:\n      pop\n      tag_60\n      tag_61\n      jump\t// in\n    tag_60:\n      stop\n        /* \"Dropsite.sol\":1279:1308  address payable public  Owner */\n    tag_12:\n      callvalue\n      dup1\n      iszero\n      tag_62\n      jumpi\n      0x00\n      dup1\n      revert\n    tag_62:\n      pop\n      tag_63\n      tag_64\n      jump\t// in\n    tag_63:\n      mload(0x40)\n      tag_65\n      swap2\n      swap1\n      tag_66\n      jump\t// in\n    tag_65:\n      mload(0x40)\n      dup1\n      swap2\n      sub\n      swap1\n      return\n        /* \"Dropsite.sol\":2035:2141  function setMintFee(uint _mintFee) public OnlyOwner contractIsNotPaused {... */\n    tag_13:\n      callvalue\n      dup1\n      iszero\n      tag_67\n      jumpi\n      0x00\n      dup1\n      revert\n    tag_67:\n      pop\n      tag_68\n      0x04\n      dup1\n      calldatasize\n      sub\n      dup2\n      add\n      swap1\n      tag_69\n      swap2\n      swap1\n      tag_70\n      jump\t// in\n    tag_69:\n      tag_71\n      jump\t// in\n    tag_68:\n      stop\n        /* \"Dropsite.sol\":1663:1822  function returnOwner(address addr) public view contractIsNotPaused returns  (uint[] memory){... */\n    tag_14:\n      callvalue\n      dup1\n      iszero\n      tag_72\n      jumpi\n      0x00\n      dup1\n      revert\n    tag_72:\n      pop\n      tag_73\n      0x04\n      dup1\n      calldatasize\n      sub\n      dup2\n      add\n      swap1\n      tag_74\n      swap2\n      swap1\n      tag_47\n      jump\t// in\n    tag_74:\n      tag_75\n      jump\t// in\n    tag_73:\n      mload(0x40)\n      tag_76\n      swap2\n      swap1\n      tag_77\n      jump\t// in\n    tag_76:\n      mload(0x40)\n      dup1\n      swap2\n      sub\n      swap1\n      return\n        /* \"Dropsite.sol\":2307:2411  function checkTotalMinted() public view OnlyOwner returns(uint){... */\n    tag_19:\n        /* \"Dropsite.sol\":2365:2369  uint */\n      0x00\n        /* \"Dropsite.sol\":1018:1023  Owner */\n      0x0c\n      0x01\n      swap1\n      sload\n      swap1\n      0x0100\n      exp\n      swap1\n      div\n      0xffffffffffffffffffffffffffffffffffffffff\n      and\n        /* \"Dropsite.sol\":1002:1023  _msgSender() == Owner */\n      0xffffffffffffffffffffffffffffffffffffffff\n      and\n        /* \"Dropsite.sol\":1002:1014  _msgSender() */\n      tag_79\n        /* \"Dropsite.sol\":1002:1012  _msgSender */\n      tag_80\n        /* \"Dropsite.sol\":1002:1014  _msgSender() */\n      jump\t// in\n    tag_79:\n        /* \"Dropsite.sol\":1002:1023  _msgSender() == Owner */\n      0xffffffffffffffffffffffffffffffffffffffff\n      and\n      eq\n        /* \"Dropsite.sol\":994:1056  require(_msgSender() == Owner, \"Only NFT-ES Owner can Access\") */\n      tag_81\n      jumpi\n      mload(0x40)\n      0x08c379a000000000000000000000000000000000000000000000000000000000\n      dup2\n      mstore\n      0x04\n      add\n      tag_82\n      swap1\n      tag_83\n      jump\t// in\n    tag_82:\n      mload(0x40)\n      dup1\n      swap2\n      sub\n      swap1\n      revert\n    tag_81:\n        /* \"Dropsite.sol\":2388:2403  TotalNFTsMinted */\n      sload(0x04)\n        /* \"Dropsite.sol\":2381:2403  return TotalNFTsMinted */\n      swap1\n      pop\n        /* \"Dropsite.sol\":2307:2411  function checkTotalMinted() public view OnlyOwner returns(uint){... */\n      swap1\n      jump\t// out\n        /* \"Dropsite.sol\":2790:3004  function withDraw(address payable to) public payable OnlyOwner {... */\n    tag_25:\n        /* \"Dropsite.sol\":1018:1023  Owner */\n      0x0c\n      0x01\n      swap1\n      sload\n      swap1\n      0x0100\n      exp\n      swap1\n      div\n      0xffffffffffffffffffffffffffffffffffffffff\n      and\n        /* \"Dropsite.sol\":1002:1023  _msgSender() == Owner */\n      0xffffffffffffffffffffffffffffffffffffffff\n      and\n        /* \"Dropsite.sol\":1002:1014  _msgSender() */\n      tag_86\n        /* \"Dropsite.sol\":1002:1012  _msgSender */\n      tag_80\n        /* \"Dropsite.sol\":1002:1014  _msgSender() */\n      jump\t// in\n    tag_86:\n        /* \"Dropsite.sol\":1002:1023  _msgSender() == Owner */\n      0xffffffffffffffffffffffffffffffffffffffff\n      and\n      eq\n        /* \"Dropsite.sol\":994:1056  require(_msgSender() == Owner, \"Only NFT-ES Owner can Access\") */\n      tag_87\n      jumpi\n      mload(0x40)\n      0x08c379a000000000000000000000000000000000000000000000000000000000\n      dup2\n      mstore\n      0x04\n      add\n      tag_88\n      swap1\n      tag_83\n      jump\t// in\n    tag_88:\n      mload(0x40)\n      dup1\n      swap2\n      sub\n      swap1\n      revert\n    tag_87:\n        /* \"Dropsite.sol\":2863:2875  uint Balance */\n      0x00\n        /* \"Dropsite.sol\":2878:2899  address(this).balance */\n      selfbalance\n        /* \"Dropsite.sol\":2863:2899  uint Balance = address(this).balance */\n      swap1\n      pop\n        /* \"Dropsite.sol\":2927:2932  0 wei */\n      0x00\n        /* \"Dropsite.sol\":2917:2924  Balance */\n      dup2\n        /* \"Dropsite.sol\":2917:2932  Balance > 0 wei */\n      gt\n        /* \"Dropsite.sol\":2909:2966  require(Balance > 0 wei, \"Error! No Balance to withdraw\") */\n      tag_90\n      jumpi\n      mload(0x40)\n      0x08c379a000000000000000000000000000000000000000000000000000000000\n      dup2\n      mstore\n      0x04\n      add\n      tag_91\n      swap1\n      tag_92\n      jump\t// in\n    tag_91:\n      mload(0x40)\n      dup1\n      swap2\n      sub\n      swap1\n      revert\n    tag_90:\n        /* \"Dropsite.sol\":2977:2979  to */\n      dup2\n        /* \"Dropsite.sol\":2977:2988  to.transfer */\n      0xffffffffffffffffffffffffffffffffffffffff\n      and\n        /* \"Dropsite.sol\":2977:2997  to.transfer(Balance) */\n      0x08fc\n        /* \"Dropsite.sol\":2989:2996  Balance */\n      dup3\n        /* \"Dropsite.sol\":2977:2997  to.transfer(Balance) */\n      swap1\n      dup2\n      iszero\n      mul\n      swap1\n      mload(0x40)\n      0x00\n      mload(0x40)\n      dup1\n      dup4\n      sub\n      dup2\n      dup6\n      dup9\n      dup9\n      call\n      swap4\n      pop\n      pop\n      pop\n      pop\n      iszero\n      dup1\n      iszero\n      tag_94\n      jumpi\n      returndatasize\n      0x00\n      dup1\n      returndatacopy\n      revert(0x00, returndatasize)\n    tag_94:\n      pop\n        /* \"Dropsite.sol\":2853:3004  {... */\n      pop\n        /* \"Dropsite.sol\":2790:3004  function withDraw(address payable to) public payable OnlyOwner {... */\n      pop\n      jump\t// out\n        /* \"Dropsite.sol\":1246:1273  bool public IsPaused = true */\n    tag_28:\n      0x0c\n      0x00\n      swap1\n      sload\n      swap1\n      0x0100\n      exp\n      swap1\n      div\n      0xff\n      and\n      dup2\n      jump\t// out\n        /* \"Dropsite.sol\":2559:2695  function openDropsite() public OnlyOwner {... */\n    tag_33:\n        /* \"Dropsite.sol\":1018:1023  Owner */\n      0x0c\n      0x01\n      swap1\n      sload\n      swap1\n      0x0100\n      exp\n      swap1\n      div\n      0xffffffffffffffffffffffffffffffffffffffff\n      and\n        /* \"Dropsite.sol\":1002:1023  _msgSender() == Owner */\n      0xffffffffffffffffffffffffffffffffffffffff\n      and\n        /* \"Dropsite.sol\":1002:1014  _msgSender() */\n      tag_96\n        /* \"Dropsite.sol\":1002:1012  _msgSender */\n      tag_80\n        /* \"Dropsite.sol\":1002:1014  _msgSender() */\n      jump\t// in\n    tag_96:\n        /* \"Dropsite.sol\":1002:1023  _msgSender() == Owner */\n      0xffffffffffffffffffffffffffffffffffffffff\n      and\n      eq\n        /* \"Dropsite.sol\":994:1056  require(_msgSender() == Owner, \"Only NFT-ES Owner can Access\") */\n      tag_97\n      jumpi\n      mload(0x40)\n      0x08c379a000000000000000000000000000000000000000000000000000000000\n      dup2\n      mstore\n      0x04\n      add\n      tag_98\n      swap1\n      tag_83\n      jump\t// in\n    tag_98:\n      mload(0x40)\n      dup1\n      swap2\n      sub\n      swap1\n      revert\n    tag_97:\n        /* \"Dropsite.sol\":2628:2632  true */\n      0x01\n        /* \"Dropsite.sol\":2618:2632  IsPaused==true */\n      iszero\n      iszero\n        /* \"Dropsite.sol\":2618:2626  IsPaused */\n      0x0c\n      0x00\n      swap1\n      sload\n      swap1\n      0x0100\n      exp\n      swap1\n      div\n      0xff\n      and\n        /* \"Dropsite.sol\":2618:2632  IsPaused==true */\n      iszero\n      iszero\n      eq\n        /* \"Dropsite.sol\":2610:2664  require(IsPaused==true, \"Dropsite is already Running\") */\n      tag_100\n      jumpi\n      mload(0x40)\n      0x08c379a000000000000000000000000000000000000000000000000000000000\n      dup2\n      mstore\n      0x04\n      add\n      tag_101\n      swap1\n      tag_102\n      jump\t// in\n    tag_101:\n      mload(0x40)\n      dup1\n      swap2\n      sub\n      swap1\n      revert\n    tag_100:\n        /* \"Dropsite.sol\":2683:2688  false */\n      0x00\n        /* \"Dropsite.sol\":2674:2682  IsPaused */\n      0x0c\n      0x00\n        /* \"Dropsite.sol\":2674:2688  IsPaused=false */\n      0x0100\n      exp\n      dup2\n      sload\n      dup2\n      0xff\n      mul\n      not\n      and\n      swap1\n      dup4\n      iszero\n      iszero\n      mul\n      or\n      swap1\n      sstore\n      pop\n        /* \"Dropsite.sol\":2559:2695  function openDropsite() public OnlyOwner {... */\n      jump\t// out\n        /* \"Dropsite.sol\":5306:5873  function FiatRandomMint(address user_addr, uint noOfMints) OnlyOwner contractIsNotPaused public returns (uint,string memory) {... */\n    tag_38:\n        /* \"Dropsite.sol\":5411:5415  uint */\n      0x00\n        /* \"Dropsite.sol\":5416:5429  string memory */\n      0x60\n        /* \"Dropsite.sol\":1018:1023  Owner */\n      0x0c\n      0x01\n      swap1\n      sload\n      swap1\n      0x0100\n      exp\n      swap1\n      div\n      0xffffffffffffffffffffffffffffffffffffffff\n      and\n        /* \"Dropsite.sol\":1002:1023  _msgSender() == Owner */\n      0xffffffffffffffffffffffffffffffffffffffff\n      and\n        /* \"Dropsite.sol\":1002:1014  _msgSender() */\n      tag_104\n        /* \"Dropsite.sol\":1002:1012  _msgSender */\n      tag_80\n        /* \"Dropsite.sol\":1002:1014  _msgSender() */\n      jump\t// in\n    tag_104:\n        /* \"Dropsite.sol\":1002:1023  _msgSender() == Owner */\n      0xffffffffffffffffffffffffffffffffffffffff\n      and\n      eq\n        /* \"Dropsite.sol\":994:1056  require(_msgSender() == Owner, \"Only NFT-ES Owner can Access\") */\n      tag_105\n      jumpi\n      mload(0x40)\n      0x08c379a000000000000000000000000000000000000000000000000000000000\n      dup2\n      mstore\n      0x04\n      add\n      tag_106\n      swap1\n      tag_83\n      jump\t// in\n    tag_106:\n      mload(0x40)\n      dup1\n      swap2\n      sub\n      swap1\n      revert\n    tag_105:\n        /* \"Dropsite.sol\":1183:1188  false */\n      0x00\n        /* \"Dropsite.sol\":1171:1188  IsPaused == false */\n      iszero\n      iszero\n        /* \"Dropsite.sol\":1171:1179  IsPaused */\n      0x0c\n      0x00\n      swap1\n      sload\n      swap1\n      0x0100\n      exp\n      swap1\n      div\n      0xff\n      and\n        /* \"Dropsite.sol\":1171:1188  IsPaused == false */\n      iszero\n      iszero\n      eq\n        /* \"Dropsite.sol\":1162:1221  require (IsPaused == false, \"Dropsite is not Opened Yet.\" ) */\n      tag_108\n      jumpi\n      mload(0x40)\n      0x08c379a000000000000000000000000000000000000000000000000000000000\n      dup2\n      mstore\n      0x04\n      add\n      tag_109\n      swap1\n      tag_110\n      jump\t// in\n    tag_109:\n      mload(0x40)\n      dup1\n      swap2\n      sub\n      swap1\n      revert\n    tag_108:\n        /* \"Dropsite.sol\":5456:5457  4 */\n      0x04\n        /* \"Dropsite.sol\":5446:5455  noOfMints */\n      dup4\n        /* \"Dropsite.sol\":5446:5457  noOfMints<4 */\n      lt\n        /* \"Dropsite.sol\":5446:5472  noOfMints<4 && noOfMints>0 */\n      dup1\n      iszero\n      tag_112\n      jumpi\n      pop\n        /* \"Dropsite.sol\":5471:5472  0 */\n      0x00\n        /* \"Dropsite.sol\":5461:5470  noOfMints */\n      dup4\n        /* \"Dropsite.sol\":5461:5472  noOfMints>0 */\n      gt\n        /* \"Dropsite.sol\":5446:5472  noOfMints<4 && noOfMints>0 */\n    tag_112:\n        /* \"Dropsite.sol\":5438:5497  require(noOfMints<4 && noOfMints>0,\"You can mint 1-3 NFTs\") */\n      tag_113\n      jumpi\n      mload(0x40)\n      0x08c379a000000000000000000000000000000000000000000000000000000000\n      dup2\n      mstore\n      0x04\n      add\n      tag_114\n      swap1\n      tag_115\n      jump\t// in\n    tag_114:\n      mload(0x40)\n      dup1\n      swap2\n      sub\n      swap1\n      revert\n    tag_113:\n        /* \"Dropsite.sol\":5528:5532  1000 */\n      0x03e8\n        /* \"Dropsite.sol\":5512:5527  TotalNFTsMinted */\n      sload(0x04)\n        /* \"Dropsite.sol\":5512:5532  TotalNFTsMinted<1000 */\n      lt\n        /* \"Dropsite.sol\":5504:5562  require(TotalNFTsMinted<1000, \"Max Minting Limit reached\") */\n      tag_116\n      jumpi\n      mload(0x40)\n      0x08c379a000000000000000000000000000000000000000000000000000000000\n      dup2\n      mstore\n      0x04\n      add\n      tag_117\n      swap1\n      tag_118\n      jump\t// in\n    tag_117:\n      mload(0x40)\n      dup1\n      swap2\n      sub\n      swap1\n      revert\n    tag_116:\n        /* \"Dropsite.sol\":5627:5633  uint i */\n      0x00\n        /* \"Dropsite.sol\":5638:5647  noOfMints */\n      dup4\n        /* \"Dropsite.sol\":5636:5637  i */\n      dup2\n        /* \"Dropsite.sol\":5636:5647  i<noOfMints */\n      lt\n        /* \"Dropsite.sol\":5623:5872  for(uint i=0;i<noOfMints;i++)... */\n      iszero\n      tag_120\n      jumpi\n        /* \"Dropsite.sol\":5663:5673  uint nftId */\n      0x00\n        /* \"Dropsite.sol\":5676:5694  updateConditions() */\n      tag_122\n        /* \"Dropsite.sol\":5676:5692  updateConditions */\n      tag_123\n        /* \"Dropsite.sol\":5676:5694  updateConditions() */\n      jump\t// in\n    tag_122:\n        /* \"Dropsite.sol\":5663:5694  uint nftId = updateConditions() */\n      swap1\n      pop\n        /* \"Dropsite.sol\":5700:5742  _mint(user_addr, nftId, numOfCopies, data) */\n      tag_124\n        /* \"Dropsite.sol\":5706:5715  user_addr */\n      dup7\n        /* \"Dropsite.sol\":5717:5722  nftId */\n      dup3\n        /* \"Dropsite.sol\":5724:5735  numOfCopies */\n      sload(0x05)\n        /* \"Dropsite.sol\":5737:5741  data */\n      0x02\n        /* \"Dropsite.sol\":5700:5742  _mint(user_addr, nftId, numOfCopies, data) */\n      dup1\n      sload\n      tag_125\n      swap1\n      tag_126\n      jump\t// in\n    tag_125:\n      dup1\n      0x1f\n      add\n      0x20\n      dup1\n      swap2\n      div\n      mul\n      0x20\n      add\n      mload(0x40)\n      swap1\n      dup2\n      add\n      0x40\n      mstore\n      dup1\n      swap3\n      swap2\n      swap1\n      dup2\n      dup2\n      mstore\n      0x20\n      add\n      dup3\n      dup1\n      sload\n      tag_127\n      swap1\n      tag_126\n      jump\t// in\n    tag_127:\n      dup1\n      iszero\n      tag_128\n      jumpi\n      dup1\n      0x1f\n      lt\n      tag_129\n      jumpi\n      0x0100\n      dup1\n      dup4\n      sload\n      div\n      mul\n      dup4\n      mstore\n      swap2\n      0x20\n      add\n      swap2\n      jump(tag_128)\n    tag_129:\n      dup3\n      add\n      swap2\n      swap1\n      0x00\n      mstore\n      keccak256(0x00, 0x20)\n      swap1\n    tag_130:\n      dup2\n      sload\n      dup2\n      mstore\n      swap1\n      0x01\n      add\n      swap1\n      0x20\n      add\n      dup1\n      dup4\n      gt\n      tag_130\n      jumpi\n      dup3\n      swap1\n      sub\n      0x1f\n      and\n      dup3\n      add\n      swap2\n    tag_128:\n      pop\n      pop\n      pop\n      pop\n      pop\n        /* \"Dropsite.sol\":5700:5705  _mint */\n      tag_131\n        /* \"Dropsite.sol\":5700:5742  _mint(user_addr, nftId, numOfCopies, data) */\n      jump\t// in\n    tag_124:\n        /* \"Dropsite.sol\":5748:5763  TotalNFTsMinted */\n      0x04\n      0x00\n        /* \"Dropsite.sol\":5748:5765  TotalNFTsMinted++ */\n      dup2\n      sload\n      dup1\n      swap3\n      swap2\n      swap1\n      tag_132\n      swap1\n      tag_133\n      jump\t// in\n    tag_132:\n      swap2\n      swap1\n      pop\n      sstore\n      pop\n        /* \"Dropsite.sol\":5771:5789  dropsite_NFT_Owner */\n      0x0a\n        /* \"Dropsite.sol\":5771:5800  dropsite_NFT_Owner[user_addr] */\n      0x00\n        /* \"Dropsite.sol\":5790:5799  user_addr */\n      dup8\n        /* \"Dropsite.sol\":5771:5800  dropsite_NFT_Owner[user_addr] */\n      0xffffffffffffffffffffffffffffffffffffffff\n      and\n      0xffffffffffffffffffffffffffffffffffffffff\n      and\n      dup2\n      mstore\n      0x20\n      add\n      swap1\n      dup2\n      mstore\n      0x20\n      add\n      0x00\n      keccak256\n        /* \"Dropsite.sol\":5771:5820  dropsite_NFT_Owner[user_addr].owned_Dropsite_NFTs */\n      0x00\n      add\n        /* \"Dropsite.sol\":5826:5831  nftId */\n      dup2\n        /* \"Dropsite.sol\":5771:5832  dropsite_NFT_Owner[user_addr].owned_Dropsite_NFTs.push(nftId) */\n      swap1\n      dup1\n      0x01\n      dup2\n      sload\n      add\n      dup1\n      dup3\n      sstore\n      dup1\n      swap2\n      pop\n      pop\n      0x01\n      swap1\n      sub\n      swap1\n      0x00\n      mstore\n      keccak256(0x00, 0x20)\n      add\n      0x00\n      swap1\n      swap2\n      swap1\n      swap2\n      swap1\n      swap2\n      pop\n      sstore\n        /* \"Dropsite.sol\":5846:5851  nftId */\n      dup1\n        /* \"Dropsite.sol\":5859:5863  data */\n      0x02\n        /* \"Dropsite.sol\":5838:5865  return (nftId,string(data)) */\n      dup1\n      dup1\n      sload\n      tag_135\n      swap1\n      tag_126\n      jump\t// in\n    tag_135:\n      dup1\n      0x1f\n      add\n      0x20\n      dup1\n      swap2\n      div\n      mul\n      0x20\n      add\n      mload(0x40)\n      swap1\n      dup2\n      add\n      0x40\n      mstore\n      dup1\n      swap3\n      swap2\n      swap1\n      dup2\n      dup2\n      mstore\n      0x20\n      add\n      dup3\n      dup1\n      sload\n      tag_136\n      swap1\n      tag_126\n      jump\t// in\n    tag_136:\n      dup1\n      iszero\n      tag_137\n      jumpi\n      dup1\n      0x1f\n      lt\n      tag_138\n      jumpi\n      0x0100\n      dup1\n      dup4\n      sload\n      div\n      mul\n      dup4\n      mstore\n      swap2\n      0x20\n      add\n      swap2\n      jump(tag_137)\n    tag_138:\n      dup3\n      add\n      swap2\n      swap1\n      0x00\n      mstore\n      keccak256(0x00, 0x20)\n      swap1\n    tag_139:\n      dup2\n      sload\n      dup2\n      mstore\n      swap1\n      0x01\n      add\n      swap1\n      0x20\n      add\n      dup1\n      dup4\n      gt\n      tag_139\n      jumpi\n      dup3\n      swap1\n      sub\n      0x1f\n      and\n      dup3\n      add\n      swap2\n    tag_137:\n      pop\n      pop\n      pop\n      pop\n      pop\n      swap1\n      pop\n      swap4\n      pop\n      swap4\n      pop\n      pop\n      pop\n      jump(tag_111)\n        /* \"Dropsite.sol\":5623:5872  for(uint i=0;i<noOfMints;i++)... */\n    tag_120:\n      pop\n        /* \"Dropsite.sol\":1231:1232  _ */\n    tag_111:\n        /* \"Dropsite.sol\":5306:5873  function FiatRandomMint(address user_addr, uint noOfMints) OnlyOwner contractIsNotPaused public returns (uint,string memory) {... */\n      swap3\n      pop\n      swap3\n      swap1\n      pop\n      jump\t// out\n        /* \"Dropsite.sol\":3057:3165  function ContractBalance() public view OnlyOwner returns (uint){... */\n    tag_43:\n        /* \"Dropsite.sol\":3115:3119  uint */\n      0x00\n        /* \"Dropsite.sol\":1018:1023  Owner */\n      0x0c\n      0x01\n      swap1\n      sload\n      swap1\n      0x0100\n      exp\n      swap1\n      div\n      0xffffffffffffffffffffffffffffffffffffffff\n      and\n        /* \"Dropsite.sol\":1002:1023  _msgSender() == Owner */\n      0xffffffffffffffffffffffffffffffffffffffff\n      and\n        /* \"Dropsite.sol\":1002:1014  _msgSender() */\n      tag_142\n        /* \"Dropsite.sol\":1002:1012  _msgSender */\n      tag_80\n        /* \"Dropsite.sol\":1002:1014  _msgSender() */\n      jump\t// in\n    tag_142:\n        /* \"Dropsite.sol\":1002:1023  _msgSender() == Owner */\n      0xffffffffffffffffffffffffffffffffffffffff\n      and\n      eq\n        /* \"Dropsite.sol\":994:1056  require(_msgSender() == Owner, \"Only NFT-ES Owner can Access\") */\n      tag_143\n      jumpi\n      mload(0x40)\n      0x08c379a000000000000000000000000000000000000000000000000000000000\n      dup2\n      mstore\n      0x04\n      add\n      tag_144\n      swap1\n      tag_83\n      jump\t// in\n    tag_144:\n      mload(0x40)\n      dup1\n      swap2\n      sub\n      swap1\n      revert\n    tag_143:\n        /* \"Dropsite.sol\":3137:3158  address(this).balance */\n      selfbalance\n        /* \"Dropsite.sol\":3130:3158  return address(this).balance */\n      swap1\n      pop\n        /* \"Dropsite.sol\":3057:3165  function ContractBalance() public view OnlyOwner returns (uint){... */\n      swap1\n      jump\t// out\n        /* \"Dropsite.sol\":6090:6658  function CryptoRandomMint(address user_addr)  contractIsNotPaused public payable returns (uint,string memory) {... */\n    tag_48:\n        /* \"Dropsite.sol\":6180:6184  uint */\n      0x00\n        /* \"Dropsite.sol\":6185:6198  string memory */\n      0x60\n        /* \"Dropsite.sol\":1183:1188  false */\n      0x00\n        /* \"Dropsite.sol\":1171:1188  IsPaused == false */\n      iszero\n      iszero\n        /* \"Dropsite.sol\":1171:1179  IsPaused */\n      0x0c\n      0x00\n      swap1\n      sload\n      swap1\n      0x0100\n      exp\n      swap1\n      div\n      0xff\n      and\n        /* \"Dropsite.sol\":1171:1188  IsPaused == false */\n      iszero\n      iszero\n      eq\n        /* \"Dropsite.sol\":1162:1221  require (IsPaused == false, \"Dropsite is not Opened Yet.\" ) */\n      tag_147\n      jumpi\n      mload(0x40)\n      0x08c379a000000000000000000000000000000000000000000000000000000000\n      dup2\n      mstore\n      0x04\n      add\n      tag_148\n      swap1\n      tag_110\n      jump\t// in\n    tag_148:\n      mload(0x40)\n      dup1\n      swap2\n      sub\n      swap1\n      revert\n    tag_147:\n        /* \"Dropsite.sol\":6231:6235  1000 */\n      0x03e8\n        /* \"Dropsite.sol\":6215:6230  TotalNFTsMinted */\n      sload(0x04)\n        /* \"Dropsite.sol\":6215:6235  TotalNFTsMinted<1000 */\n      lt\n        /* \"Dropsite.sol\":6207:6265  require(TotalNFTsMinted<1000, \"Max Minting Limit reached\") */\n      tag_150\n      jumpi\n      mload(0x40)\n      0x08c379a000000000000000000000000000000000000000000000000000000000\n      dup2\n      mstore\n      0x04\n      add\n      tag_151\n      swap1\n      tag_118\n      jump\t// in\n    tag_151:\n      mload(0x40)\n      dup1\n      swap2\n      sub\n      swap1\n      revert\n    tag_150:\n        /* \"Dropsite.sol\":6293:6301  mintFees */\n      sload(0x06)\n        /* \"Dropsite.sol\":6280:6289  msg.value */\n      callvalue\n        /* \"Dropsite.sol\":6280:6301  msg.value == mintFees */\n      eq\n        /* \"Dropsite.sol\":6272:6324  require(msg.value == mintFees, \"Not Enough Balance\") */\n      tag_152\n      jumpi\n      mload(0x40)\n      0x08c379a000000000000000000000000000000000000000000000000000000000\n      dup2\n      mstore\n      0x04\n      add\n      tag_153\n      swap1\n      tag_154\n      jump\t// in\n    tag_153:\n      mload(0x40)\n      dup1\n      swap2\n      sub\n      swap1\n      revert\n    tag_152:\n        /* \"Dropsite.sol\":6405:6415  uint nftId */\n      0x00\n        /* \"Dropsite.sol\":6418:6436  updateConditions() */\n      tag_155\n        /* \"Dropsite.sol\":6418:6434  updateConditions */\n      tag_123\n        /* \"Dropsite.sol\":6418:6436  updateConditions() */\n      jump\t// in\n    tag_155:\n        /* \"Dropsite.sol\":6405:6436  uint nftId = updateConditions() */\n      swap1\n      pop\n        /* \"Dropsite.sol\":6442:6484  _mint(user_addr, nftId, numOfCopies, data) */\n      tag_156\n        /* \"Dropsite.sol\":6448:6457  user_addr */\n      dup5\n        /* \"Dropsite.sol\":6459:6464  nftId */\n      dup3\n        /* \"Dropsite.sol\":6466:6477  numOfCopies */\n      sload(0x05)\n        /* \"Dropsite.sol\":6479:6483  data */\n      0x02\n        /* \"Dropsite.sol\":6442:6484  _mint(user_addr, nftId, numOfCopies, data) */\n      dup1\n      sload\n      tag_157\n      swap1\n      tag_126\n      jump\t// in\n    tag_157:\n      dup1\n      0x1f\n      add\n      0x20\n      dup1\n      swap2\n      div\n      mul\n      0x20\n      add\n      mload(0x40)\n      swap1\n      dup2\n      add\n      0x40\n      mstore\n      dup1\n      swap3\n      swap2\n      swap1\n      dup2\n      dup2\n      mstore\n      0x20\n      add\n      dup3\n      dup1\n      sload\n      tag_158\n      swap1\n      tag_126\n      jump\t// in\n    tag_158:\n      dup1\n      iszero\n      tag_159\n      jumpi\n      dup1\n      0x1f\n      lt\n      tag_160\n      jumpi\n      0x0100\n      dup1\n      dup4\n      sload\n      div\n      mul\n      dup4\n      mstore\n      swap2\n      0x20\n      add\n      swap2\n      jump(tag_159)\n    tag_160:\n      dup3\n      add\n      swap2\n      swap1\n      0x00\n      mstore\n      keccak256(0x00, 0x20)\n      swap1\n    tag_161:\n      dup2\n      sload\n      dup2\n      mstore\n      swap1\n      0x01\n      add\n      swap1\n      0x20\n      add\n      dup1\n      dup4\n      gt\n      tag_161\n      jumpi\n      dup3\n      swap1\n      sub\n      0x1f\n      and\n      dup3\n      add\n      swap2\n    tag_159:\n      pop\n      pop\n      pop\n      pop\n      pop\n        /* \"Dropsite.sol\":6442:6447  _mint */\n      tag_131\n        /* \"Dropsite.sol\":6442:6484  _mint(user_addr, nftId, numOfCopies, data) */\n      jump\t// in\n    tag_156:\n        /* \"Dropsite.sol\":6490:6528  depositAmount(_msgSender(), msg.value) */\n      tag_162\n        /* \"Dropsite.sol\":6504:6516  _msgSender() */\n      tag_163\n        /* \"Dropsite.sol\":6504:6514  _msgSender */\n      tag_80\n        /* \"Dropsite.sol\":6504:6516  _msgSender() */\n      jump\t// in\n    tag_163:\n        /* \"Dropsite.sol\":6518:6527  msg.value */\n      callvalue\n        /* \"Dropsite.sol\":6490:6503  depositAmount */\n      tag_164\n        /* \"Dropsite.sol\":6490:6528  depositAmount(_msgSender(), msg.value) */\n      jump\t// in\n    tag_162:\n        /* \"Dropsite.sol\":6534:6549  TotalNFTsMinted */\n      0x04\n      0x00\n        /* \"Dropsite.sol\":6534:6551  TotalNFTsMinted++ */\n      dup2\n      sload\n      dup1\n      swap3\n      swap2\n      swap1\n      tag_165\n      swap1\n      tag_133\n      jump\t// in\n    tag_165:\n      swap2\n      swap1\n      pop\n      sstore\n      pop\n        /* \"Dropsite.sol\":6557:6575  dropsite_NFT_Owner */\n      0x0a\n        /* \"Dropsite.sol\":6557:6586  dropsite_NFT_Owner[user_addr] */\n      0x00\n        /* \"Dropsite.sol\":6576:6585  user_addr */\n      dup6\n        /* \"Dropsite.sol\":6557:6586  dropsite_NFT_Owner[user_addr] */\n      0xffffffffffffffffffffffffffffffffffffffff\n      and\n      0xffffffffffffffffffffffffffffffffffffffff\n      and\n      dup2\n      mstore\n      0x20\n      add\n      swap1\n      dup2\n      mstore\n      0x20\n      add\n      0x00\n      keccak256\n        /* \"Dropsite.sol\":6557:6606  dropsite_NFT_Owner[user_addr].owned_Dropsite_NFTs */\n      0x00\n      add\n        /* \"Dropsite.sol\":6612:6617  nftId */\n      dup2\n        /* \"Dropsite.sol\":6557:6618  dropsite_NFT_Owner[user_addr].owned_Dropsite_NFTs.push(nftId) */\n      swap1\n      dup1\n      0x01\n      dup2\n      sload\n      add\n      dup1\n      dup3\n      sstore\n      dup1\n      swap2\n      pop\n      pop\n      0x01\n      swap1\n      sub\n      swap1\n      0x00\n      mstore\n      keccak256(0x00, 0x20)\n      add\n      0x00\n      swap1\n      swap2\n      swap1\n      swap2\n      swap1\n      swap2\n      pop\n      sstore\n        /* \"Dropsite.sol\":6632:6637  nftId */\n      dup1\n        /* \"Dropsite.sol\":6645:6649  data */\n      0x02\n        /* \"Dropsite.sol\":6624:6651  return (nftId,string(data)) */\n      dup1\n      dup1\n      sload\n      tag_167\n      swap1\n      tag_126\n      jump\t// in\n    tag_167:\n      dup1\n      0x1f\n      add\n      0x20\n      dup1\n      swap2\n      div\n      mul\n      0x20\n      add\n      mload(0x40)\n      swap1\n      dup2\n      add\n      0x40\n      mstore\n      dup1\n      swap3\n      swap2\n      swap1\n      dup2\n      dup2\n      mstore\n      0x20\n      add\n      dup3\n      dup1\n      sload\n      tag_168\n      swap1\n      tag_126\n      jump\t// in\n    tag_168:\n      dup1\n      iszero\n      tag_169\n      jumpi\n      dup1\n      0x1f\n      lt\n      tag_170\n      jumpi\n      0x0100\n      dup1\n      dup4\n      sload\n      div\n      mul\n      dup4\n      mstore\n      swap2\n      0x20\n      add\n      swap2\n      jump(tag_169)\n    tag_170:\n      dup3\n      add\n      swap2\n      swap1\n      0x00\n      mstore\n      keccak256(0x00, 0x20)\n      swap1\n    tag_171:\n      dup2\n      sload\n      dup2\n      mstore\n      swap1\n      0x01\n      add\n      swap1\n      0x20\n      add\n      dup1\n      dup4\n      gt\n      tag_171\n      jumpi\n      dup3\n      swap1\n      sub\n      0x1f\n      and\n      dup3\n      add\n      swap2\n    tag_169:\n      pop\n      pop\n      pop\n      pop\n      pop\n      swap1\n      pop\n      swap3\n      pop\n      swap3\n      pop\n      pop\n        /* \"Dropsite.sol\":6090:6658  function CryptoRandomMint(address user_addr)  contractIsNotPaused public payable returns (uint,string memory) {... */\n      swap2\n      pop\n      swap2\n      jump\t// out\n        /* \"Dropsite.sol\":1882:2029  function checkMintedCategoryWise() public view OnlyOwner contractIsNotPaused returns(uint,uint,uint){... */\n    tag_52:\n        /* \"Dropsite.sol\":1967:1971  uint */\n      0x00\n        /* \"Dropsite.sol\":1972:1976  uint */\n      dup1\n        /* \"Dropsite.sol\":1977:1981  uint */\n      0x00\n        /* \"Dropsite.sol\":1018:1023  Owner */\n      0x0c\n      0x01\n      swap1\n      sload\n      swap1\n      0x0100\n      exp\n      swap1\n      div\n      0xffffffffffffffffffffffffffffffffffffffff\n      and\n        /* \"Dropsite.sol\":1002:1023  _msgSender() == Owner */\n      0xffffffffffffffffffffffffffffffffffffffff\n      and\n        /* \"Dropsite.sol\":1002:1014  _msgSender() */\n      tag_173\n        /* \"Dropsite.sol\":1002:1012  _msgSender */\n      tag_80\n        /* \"Dropsite.sol\":1002:1014  _msgSender() */\n      jump\t// in\n    tag_173:\n        /* \"Dropsite.sol\":1002:1023  _msgSender() == Owner */\n      0xffffffffffffffffffffffffffffffffffffffff\n      and\n      eq\n        /* \"Dropsite.sol\":994:1056  require(_msgSender() == Owner, \"Only NFT-ES Owner can Access\") */\n      tag_174\n      jumpi\n      mload(0x40)\n      0x08c379a000000000000000000000000000000000000000000000000000000000\n      dup2\n      mstore\n      0x04\n      add\n      tag_175\n      swap1\n      tag_83\n      jump\t// in\n    tag_175:\n      mload(0x40)\n      dup1\n      swap2\n      sub\n      swap1\n      revert\n    tag_174:\n        /* \"Dropsite.sol\":1183:1188  false */\n      0x00\n        /* \"Dropsite.sol\":1171:1188  IsPaused == false */\n      iszero\n      iszero\n        /* \"Dropsite.sol\":1171:1179  IsPaused */\n      0x0c\n      0x00\n      swap1\n      sload\n      swap1\n      0x0100\n      exp\n      swap1\n      div\n      0xff\n      and\n        /* \"Dropsite.sol\":1171:1188  IsPaused == false */\n      iszero\n      iszero\n      eq\n        /* \"Dropsite.sol\":1162:1221  require (IsPaused == false, \"Dropsite is not Opened Yet.\" ) */\n      tag_177\n      jumpi\n      mload(0x40)\n      0x08c379a000000000000000000000000000000000000000000000000000000000\n      dup2\n      mstore\n      0x04\n      add\n      tag_178\n      swap1\n      tag_110\n      jump\t// in\n    tag_178:\n      mload(0x40)\n      dup1\n      swap2\n      sub\n      swap1\n      revert\n    tag_177:\n        /* \"Dropsite.sol\":2001:2008  Diamond */\n      sload(0x07)\n        /* \"Dropsite.sol\":2009:2013  Gold */\n      sload(0x08)\n        /* \"Dropsite.sol\":2014:2020  Silver */\n      sload(0x09)\n        /* \"Dropsite.sol\":1993:2021  return (Diamond,Gold,Silver) */\n      swap3\n      pop\n      swap3\n      pop\n      swap3\n      pop\n        /* \"Dropsite.sol\":1882:2029  function checkMintedCategoryWise() public view OnlyOwner contractIsNotPaused returns(uint,uint,uint){... */\n      swap1\n      swap2\n      swap3\n      jump\t// out\n        /* \"Dropsite.sol\":2151:2262  function getMintFee() public view OnlyOwner contractIsNotPaused returns (uint) {... */\n    tag_57:\n        /* \"Dropsite.sol\":2224:2228  uint */\n      0x00\n        /* \"Dropsite.sol\":1018:1023  Owner */\n      0x0c\n      0x01\n      swap1\n      sload\n      swap1\n      0x0100\n      exp\n      swap1\n      div\n      0xffffffffffffffffffffffffffffffffffffffff\n      and\n        /* \"Dropsite.sol\":1002:1023  _msgSender() == Owner */\n      0xffffffffffffffffffffffffffffffffffffffff\n      and\n        /* \"Dropsite.sol\":1002:1014  _msgSender() */\n      tag_181\n        /* \"Dropsite.sol\":1002:1012  _msgSender */\n      tag_80\n        /* \"Dropsite.sol\":1002:1014  _msgSender() */\n      jump\t// in\n    tag_181:\n        /* \"Dropsite.sol\":1002:1023  _msgSender() == Owner */\n      0xffffffffffffffffffffffffffffffffffffffff\n      and\n      eq\n        /* \"Dropsite.sol\":994:1056  require(_msgSender() == Owner, \"Only NFT-ES Owner can Access\") */\n      tag_182\n      jumpi\n      mload(0x40)\n      0x08c379a000000000000000000000000000000000000000000000000000000000\n      dup2\n      mstore\n      0x04\n      add\n      tag_183\n      swap1\n      tag_83\n      jump\t// in\n    tag_183:\n      mload(0x40)\n      dup1\n      swap2\n      sub\n      swap1\n      revert\n    tag_182:\n        /* \"Dropsite.sol\":1183:1188  false */\n      0x00\n        /* \"Dropsite.sol\":1171:1188  IsPaused == false */\n      iszero\n      iszero\n        /* \"Dropsite.sol\":1171:1179  IsPaused */\n      0x0c\n      0x00\n      swap1\n      sload\n      swap1\n      0x0100\n      exp\n      swap1\n      div\n      0xff\n      and\n        /* \"Dropsite.sol\":1171:1188  IsPaused == false */\n      iszero\n      iszero\n      eq\n        /* \"Dropsite.sol\":1162:1221  require (IsPaused == false, \"Dropsite is not Opened Yet.\" ) */\n      tag_185\n      jumpi\n      mload(0x40)\n      0x08c379a000000000000000000000000000000000000000000000000000000000\n      dup2\n      mstore\n      0x04\n      add\n      tag_186\n      swap1\n      tag_110\n      jump\t// in\n    tag_186:\n      mload(0x40)\n      dup1\n      swap2\n      sub\n      swap1\n      revert\n    tag_185:\n        /* \"Dropsite.sol\":2247:2255  mintFees */\n      sload(0x06)\n        /* \"Dropsite.sol\":2240:2255  return mintFees */\n      swap1\n      pop\n        /* \"Dropsite.sol\":2151:2262  function getMintFee() public view OnlyOwner contractIsNotPaused returns (uint) {... */\n      swap1\n      jump\t// out\n        /* \"Dropsite.sol\":2417:2552  function stopDropsite() public OnlyOwner{... */\n    tag_61:\n        /* \"Dropsite.sol\":1018:1023  Owner */\n      0x0c\n      0x01\n      swap1\n      sload\n      swap1\n      0x0100\n      exp\n      swap1\n      div\n      0xffffffffffffffffffffffffffffffffffffffff\n      and\n        /* \"Dropsite.sol\":1002:1023  _msgSender() == Owner */\n      0xffffffffffffffffffffffffffffffffffffffff\n      and\n        /* \"Dropsite.sol\":1002:1014  _msgSender() */\n      tag_189\n        /* \"Dropsite.sol\":1002:1012  _msgSender */\n      tag_80\n        /* \"Dropsite.sol\":1002:1014  _msgSender() */\n      jump\t// in\n    tag_189:\n        /* \"Dropsite.sol\":1002:1023  _msgSender() == Owner */\n      0xffffffffffffffffffffffffffffffffffffffff\n      and\n      eq\n        /* \"Dropsite.sol\":994:1056  require(_msgSender() == Owner, \"Only NFT-ES Owner can Access\") */\n      tag_190\n      jumpi\n      mload(0x40)\n      0x08c379a000000000000000000000000000000000000000000000000000000000\n      dup2\n      mstore\n      0x04\n      add\n      tag_191\n      swap1\n      tag_83\n      jump\t// in\n    tag_191:\n      mload(0x40)\n      dup1\n      swap2\n      sub\n      swap1\n      revert\n    tag_190:\n        /* \"Dropsite.sol\":2485:2490  false */\n      0x00\n        /* \"Dropsite.sol\":2475:2490  IsPaused==false */\n      iszero\n      iszero\n        /* \"Dropsite.sol\":2475:2483  IsPaused */\n      0x0c\n      0x00\n      swap1\n      sload\n      swap1\n      0x0100\n      exp\n      swap1\n      div\n      0xff\n      and\n        /* \"Dropsite.sol\":2475:2490  IsPaused==false */\n      iszero\n      iszero\n      eq\n        /* \"Dropsite.sol\":2467:2522  require(IsPaused==false, \"Dropsite is already Stopped\") */\n      tag_193\n      jumpi\n      mload(0x40)\n      0x08c379a000000000000000000000000000000000000000000000000000000000\n      dup2\n      mstore\n      0x04\n      add\n      tag_194\n      swap1\n      tag_195\n      jump\t// in\n    tag_194:\n      mload(0x40)\n      dup1\n      swap2\n      sub\n      swap1\n      revert\n    tag_193:\n        /* \"Dropsite.sol\":2541:2545  true */\n      0x01\n        /* \"Dropsite.sol\":2532:2540  IsPaused */\n      0x0c\n      0x00\n        /* \"Dropsite.sol\":2532:2545  IsPaused=true */\n      0x0100\n      exp\n      dup2\n      sload\n      dup2\n      0xff\n      mul\n      not\n      and\n      swap1\n      dup4\n      iszero\n      iszero\n      mul\n      or\n      swap1\n      sstore\n      pop\n        /* \"Dropsite.sol\":2417:2552  function stopDropsite() public OnlyOwner{... */\n      jump\t// out\n        /* \"Dropsite.sol\":1279:1308  address payable public  Owner */\n    tag_64:\n      0x0c\n      0x01\n      swap1\n      sload\n      swap1\n      0x0100\n      exp\n      swap1\n      div\n      0xffffffffffffffffffffffffffffffffffffffff\n      and\n      dup2\n      jump\t// out\n        /* \"Dropsite.sol\":2035:2141  function setMintFee(uint _mintFee) public OnlyOwner contractIsNotPaused {... */\n    tag_71:\n        /* \"Dropsite.sol\":1018:1023  Owner */\n      0x0c\n      0x01\n      swap1\n      sload\n      swap1\n      0x0100\n      exp\n      swap1\n      div\n      0xffffffffffffffffffffffffffffffffffffffff\n      and\n        /* \"Dropsite.sol\":1002:1023  _msgSender() == Owner */\n      0xffffffffffffffffffffffffffffffffffffffff\n      and\n        /* \"Dropsite.sol\":1002:1014  _msgSender() */\n      tag_197\n        /* \"Dropsite.sol\":1002:1012  _msgSender */\n      tag_80\n        /* \"Dropsite.sol\":1002:1014  _msgSender() */\n      jump\t// in\n    tag_197:\n        /* \"Dropsite.sol\":1002:1023  _msgSender() == Owner */\n      0xffffffffffffffffffffffffffffffffffffffff\n      and\n      eq\n        /* \"Dropsite.sol\":994:1056  require(_msgSender() == Owner, \"Only NFT-ES Owner can Access\") */\n      tag_198\n      jumpi\n      mload(0x40)\n      0x08c379a000000000000000000000000000000000000000000000000000000000\n      dup2\n      mstore\n      0x04\n      add\n      tag_199\n      swap1\n      tag_83\n      jump\t// in\n    tag_199:\n      mload(0x40)\n      dup1\n      swap2\n      sub\n      swap1\n      revert\n    tag_198:\n        /* \"Dropsite.sol\":1183:1188  false */\n      0x00\n        /* \"Dropsite.sol\":1171:1188  IsPaused == false */\n      iszero\n      iszero\n        /* \"Dropsite.sol\":1171:1179  IsPaused */\n      0x0c\n      0x00\n      swap1\n      sload\n      swap1\n      0x0100\n      exp\n      swap1\n      div\n      0xff\n      and\n        /* \"Dropsite.sol\":1171:1188  IsPaused == false */\n      iszero\n      iszero\n      eq\n        /* \"Dropsite.sol\":1162:1221  require (IsPaused == false, \"Dropsite is not Opened Yet.\" ) */\n      tag_201\n      jumpi\n      mload(0x40)\n      0x08c379a000000000000000000000000000000000000000000000000000000000\n      dup2\n      mstore\n      0x04\n      add\n      tag_202\n      swap1\n      tag_110\n      jump\t// in\n    tag_202:\n      mload(0x40)\n      dup1\n      swap2\n      sub\n      swap1\n      revert\n    tag_201:\n        /* \"Dropsite.sol\":2126:2134  _mintFee */\n      dup1\n        /* \"Dropsite.sol\":2117:2125  mintFees */\n      0x06\n        /* \"Dropsite.sol\":2117:2134  mintFees=_mintFee */\n      dup2\n      swap1\n      sstore\n      pop\n        /* \"Dropsite.sol\":2035:2141  function setMintFee(uint _mintFee) public OnlyOwner contractIsNotPaused {... */\n      pop\n      jump\t// out\n        /* \"Dropsite.sol\":1663:1822  function returnOwner(address addr) public view contractIsNotPaused returns  (uint[] memory){... */\n    tag_75:\n        /* \"Dropsite.sol\":1740:1753  uint[] memory */\n      0x60\n        /* \"Dropsite.sol\":1183:1188  false */\n      0x00\n        /* \"Dropsite.sol\":1171:1188  IsPaused == false */\n      iszero\n      iszero\n        /* \"Dropsite.sol\":1171:1179  IsPaused */\n      0x0c\n      0x00\n      swap1\n      sload\n      swap1\n      0x0100\n      exp\n      swap1\n      div\n      0xff\n      and\n        /* \"Dropsite.sol\":1171:1188  IsPaused == false */\n      iszero\n      iszero\n      eq\n        /* \"Dropsite.sol\":1162:1221  require (IsPaused == false, \"Dropsite is not Opened Yet.\" ) */\n      tag_205\n      jumpi\n      mload(0x40)\n      0x08c379a000000000000000000000000000000000000000000000000000000000\n      dup2\n      mstore\n      0x04\n      add\n      tag_206\n      swap1\n      tag_110\n      jump\t// in\n    tag_206:\n      mload(0x40)\n      dup1\n      swap2\n      sub\n      swap1\n      revert\n    tag_205:\n        /* \"Dropsite.sol\":1771:1789  dropsite_NFT_Owner */\n      0x0a\n        /* \"Dropsite.sol\":1771:1795  dropsite_NFT_Owner[addr] */\n      0x00\n        /* \"Dropsite.sol\":1790:1794  addr */\n      dup4\n        /* \"Dropsite.sol\":1771:1795  dropsite_NFT_Owner[addr] */\n      0xffffffffffffffffffffffffffffffffffffffff\n      and\n      0xffffffffffffffffffffffffffffffffffffffff\n      and\n      dup2\n      mstore\n      0x20\n      add\n      swap1\n      dup2\n      mstore\n      0x20\n      add\n      0x00\n      keccak256\n        /* \"Dropsite.sol\":1771:1815  dropsite_NFT_Owner[addr].owned_Dropsite_NFTs */\n      0x00\n      add\n        /* \"Dropsite.sol\":1764:1815  return dropsite_NFT_Owner[addr].owned_Dropsite_NFTs */\n      dup1\n      sload\n      dup1\n      0x20\n      mul\n      0x20\n      add\n      mload(0x40)\n      swap1\n      dup2\n      add\n      0x40\n      mstore\n      dup1\n      swap3\n      swap2\n      swap1\n      dup2\n      dup2\n      mstore\n      0x20\n      add\n      dup3\n      dup1\n      sload\n      dup1\n      iszero\n      tag_208\n      jumpi\n      0x20\n      mul\n      dup3\n      add\n      swap2\n      swap1\n      0x00\n      mstore\n      keccak256(0x00, 0x20)\n      swap1\n    tag_209:\n      dup2\n      sload\n      dup2\n      mstore\n      0x20\n      add\n      swap1\n      0x01\n      add\n      swap1\n      dup1\n      dup4\n      gt\n      tag_209\n      jumpi\n    tag_208:\n      pop\n      pop\n      pop\n      pop\n      pop\n      swap1\n      pop\n        /* \"Dropsite.sol\":1663:1822  function returnOwner(address addr) public view contractIsNotPaused returns  (uint[] memory){... */\n      swap2\n      swap1\n      pop\n      jump\t// out\n        /* \"Context.sol\":640:736  function _msgSender() internal view virtual returns (address) {... */\n    tag_80:\n        /* \"Context.sol\":693:700  address */\n      0x00\n        /* \"Context.sol\":719:729  msg.sender */\n      caller\n        /* \"Context.sol\":712:729  return msg.sender */\n      swap1\n      pop\n        /* \"Context.sol\":640:736  function _msgSender() internal view virtual returns (address) {... */\n      swap1\n      jump\t// out\n        /* \"Dropsite.sol\":3657:5259  function updateConditions() internal contractIsNotPaused returns(uint) {... */\n    tag_123:\n        /* \"Dropsite.sol\":3722:3726  uint */\n      0x00\n        /* \"Dropsite.sol\":1183:1188  false */\n      dup1\n        /* \"Dropsite.sol\":1171:1188  IsPaused == false */\n      iszero\n      iszero\n        /* \"Dropsite.sol\":1171:1179  IsPaused */\n      0x0c\n      0x00\n      swap1\n      sload\n      swap1\n      0x0100\n      exp\n      swap1\n      div\n      0xff\n      and\n        /* \"Dropsite.sol\":1171:1188  IsPaused == false */\n      iszero\n      iszero\n      eq\n        /* \"Dropsite.sol\":1162:1221  require (IsPaused == false, \"Dropsite is not Opened Yet.\" ) */\n      tag_212\n      jumpi\n      mload(0x40)\n      0x08c379a000000000000000000000000000000000000000000000000000000000\n      dup2\n      mstore\n      0x04\n      add\n      tag_213\n      swap1\n      tag_110\n      jump\t// in\n    tag_213:\n      mload(0x40)\n      dup1\n      swap2\n      sub\n      swap1\n      revert\n    tag_212:\n        /* \"Dropsite.sol\":3737:3747  uint index */\n      0x00\n        /* \"Dropsite.sol\":3750:3758  random() */\n      tag_215\n        /* \"Dropsite.sol\":3750:3756  random */\n      tag_216\n        /* \"Dropsite.sol\":3750:3758  random() */\n      jump\t// in\n    tag_215:\n        /* \"Dropsite.sol\":3737:3758  uint index = random() */\n      swap1\n      pop\n        /* \"Dropsite.sol\":3768:3778  uint nftId */\n      0x00\n        /* \"Dropsite.sol\":3781:3785  nums */\n      0x03\n        /* \"Dropsite.sol\":3786:3791  index */\n      dup3\n        /* \"Dropsite.sol\":3781:3792  nums[index] */\n      0x14\n      dup2\n      lt\n      tag_217\n      jumpi\n      tag_218\n      tag_219\n      jump\t// in\n    tag_218:\n    tag_217:\n      0x20\n      swap2\n      dup3\n      dup3\n      div\n      add\n      swap2\n      swap1\n      mod\n      swap1\n      sload\n      swap1\n      0x0100\n      exp\n      swap1\n      div\n      0xff\n      and\n        /* \"Dropsite.sol\":3768:3792  uint nftId = nums[index] */\n      0xff\n      and\n      swap1\n      pop\n        /* \"Dropsite.sol\":3898:3899  0 */\n      0x00\n        /* \"Dropsite.sol\":3889:3894  nftId */\n      dup2\n        /* \"Dropsite.sol\":3889:3899  nftId == 0 */\n      eq\n        /* \"Dropsite.sol\":3889:3915  nftId == 0 && Diamond < 50 */\n      dup1\n      iszero\n      tag_221\n      jumpi\n      pop\n        /* \"Dropsite.sol\":3913:3915  50 */\n      0x32\n        /* \"Dropsite.sol\":3903:3910  Diamond */\n      sload(0x07)\n        /* \"Dropsite.sol\":3903:3915  Diamond < 50 */\n      lt\n        /* \"Dropsite.sol\":3889:3915  nftId == 0 && Diamond < 50 */\n    tag_221:\n        /* \"Dropsite.sol\":3886:5254  if(nftId == 0 && Diamond < 50) {... */\n      iszero\n      tag_222\n      jumpi\n        /* \"Dropsite.sol\":3932:3939  Diamond */\n      0x07\n      0x00\n        /* \"Dropsite.sol\":3932:3941  Diamond++ */\n      dup2\n      sload\n      dup1\n      swap3\n      swap2\n      swap1\n      tag_223\n      swap1\n      tag_133\n      jump\t// in\n    tag_223:\n      swap2\n      swap1\n      pop\n      sstore\n      pop\n        /* \"Dropsite.sol\":3997:4022  Strings.toString(Diamond) */\n      tag_224\n        /* \"Dropsite.sol\":4014:4021  Diamond */\n      sload(0x07)\n        /* \"Dropsite.sol\":3997:4013  Strings.toString */\n      tag_225\n        /* \"Dropsite.sol\":3997:4022  Strings.toString(Diamond) */\n      jump\t// in\n    tag_224:\n        /* \"Dropsite.sol\":3969:4023  abi.encodePacked(\"Diamond_\",Strings.toString(Diamond)) */\n      add(0x20, mload(0x40))\n      tag_226\n      swap2\n      swap1\n      tag_227\n      jump\t// in\n    tag_226:\n      mload(0x40)\n      0x20\n      dup2\n      dup4\n      sub\n      sub\n      dup2\n      mstore\n      swap1\n      0x40\n      mstore\n        /* \"Dropsite.sol\":3955:3959  data */\n      0x02\n        /* \"Dropsite.sol\":3955:4024  data = string(abi.encodePacked(\"Diamond_\",Strings.toString(Diamond))) */\n      swap1\n      dup1\n      mload\n      swap1\n      0x20\n      add\n      swap1\n      tag_228\n      swap3\n      swap2\n      swap1\n      tag_229\n      jump\t// in\n    tag_228:\n      pop\n        /* \"Dropsite.sol\":4058:4063  nftId */\n      dup1\n        /* \"Dropsite.sol\":4051:4063  return nftId */\n      swap3\n      pop\n      pop\n      pop\n      jump(tag_214)\n        /* \"Dropsite.sol\":3886:5254  if(nftId == 0 && Diamond < 50) {... */\n    tag_222:\n        /* \"Dropsite.sol\":4187:4188  1 */\n      0x01\n        /* \"Dropsite.sol\":4178:4183  nftId */\n      dup2\n        /* \"Dropsite.sol\":4178:4188  nftId <= 1 */\n      gt\n      iszero\n        /* \"Dropsite.sol\":4178:4202  nftId <= 1 && Gold < 100 */\n      dup1\n      iszero\n      tag_231\n      jumpi\n      pop\n        /* \"Dropsite.sol\":4199:4202  100 */\n      0x64\n        /* \"Dropsite.sol\":4192:4196  Gold */\n      sload(0x08)\n        /* \"Dropsite.sol\":4192:4202  Gold < 100 */\n      lt\n        /* \"Dropsite.sol\":4178:4202  nftId <= 1 && Gold < 100 */\n    tag_231:\n        /* \"Dropsite.sol\":4175:5254  if(nftId <= 1 && Gold < 100) {... */\n      iszero\n      tag_232\n      jumpi\n        /* \"Dropsite.sol\":4218:4222  Gold */\n      0x08\n      0x00\n        /* \"Dropsite.sol\":4218:4224  Gold++ */\n      dup2\n      sload\n      dup1\n      swap3\n      swap2\n      swap1\n      tag_233\n      swap1\n      tag_133\n      jump\t// in\n    tag_233:\n      swap2\n      swap1\n      pop\n      sstore\n      pop\n        /* \"Dropsite.sol\":4277:4299  Strings.toString(Gold) */\n      tag_234\n        /* \"Dropsite.sol\":4294:4298  Gold */\n      sload(0x08)\n        /* \"Dropsite.sol\":4277:4293  Strings.toString */\n      tag_225\n        /* \"Dropsite.sol\":4277:4299  Strings.toString(Gold) */\n      jump\t// in\n    tag_234:\n        /* \"Dropsite.sol\":4252:4300  abi.encodePacked(\"Gold_\",Strings.toString(Gold)) */\n      add(0x20, mload(0x40))\n      tag_235\n      swap2\n      swap1\n      tag_236\n      jump\t// in\n    tag_235:\n      mload(0x40)\n      0x20\n      dup2\n      dup4\n      sub\n      sub\n      dup2\n      mstore\n      swap1\n      0x40\n      mstore\n        /* \"Dropsite.sol\":4238:4242  data */\n      0x02\n        /* \"Dropsite.sol\":4238:4301  data = string(abi.encodePacked(\"Gold_\",Strings.toString(Gold))) */\n      swap1\n      dup1\n      mload\n      swap1\n      0x20\n      add\n      swap1\n      tag_237\n      swap3\n      swap2\n      swap1\n      tag_229\n      jump\t// in\n    tag_237:\n      pop\n        /* \"Dropsite.sol\":4322:4327  nftId */\n      dup1\n        /* \"Dropsite.sol\":4315:4327  return nftId */\n      swap3\n      pop\n      pop\n      pop\n      jump(tag_214)\n        /* \"Dropsite.sol\":4175:5254  if(nftId <= 1 && Gold < 100) {... */\n    tag_232:\n        /* \"Dropsite.sol\":4457:4458  2 */\n      0x02\n        /* \"Dropsite.sol\":4448:4453  nftId */\n      dup2\n        /* \"Dropsite.sol\":4448:4458  nftId <= 2 */\n      gt\n      iszero\n        /* \"Dropsite.sol\":4448:4475  nftId <= 2 && Silver <= 850 */\n      dup1\n      iszero\n      tag_239\n      jumpi\n      pop\n        /* \"Dropsite.sol\":4472:4475  850 */\n      0x0352\n        /* \"Dropsite.sol\":4462:4468  Silver */\n      sload(0x09)\n        /* \"Dropsite.sol\":4462:4475  Silver <= 850 */\n      gt\n      iszero\n        /* \"Dropsite.sol\":4448:4475  nftId <= 2 && Silver <= 850 */\n    tag_239:\n        /* \"Dropsite.sol\":4445:5254  if(nftId <= 2 && Silver <= 850) {... */\n      iszero\n      tag_240\n      jumpi\n        /* \"Dropsite.sol\":4491:4497  Silver */\n      0x09\n      0x00\n        /* \"Dropsite.sol\":4491:4499  Silver++ */\n      dup2\n      sload\n      dup1\n      swap3\n      swap2\n      swap1\n      tag_241\n      swap1\n      tag_133\n      jump\t// in\n    tag_241:\n      swap2\n      swap1\n      pop\n      sstore\n      pop\n        /* \"Dropsite.sol\":4559:4583  Strings.toString(Silver) */\n      tag_242\n        /* \"Dropsite.sol\":4576:4582  Silver */\n      sload(0x09)\n        /* \"Dropsite.sol\":4559:4575  Strings.toString */\n      tag_225\n        /* \"Dropsite.sol\":4559:4583  Strings.toString(Silver) */\n      jump\t// in\n    tag_242:\n        /* \"Dropsite.sol\":4532:4584  abi.encodePacked(\"Silver_\",Strings.toString(Silver)) */\n      add(0x20, mload(0x40))\n      tag_243\n      swap2\n      swap1\n      tag_244\n      jump\t// in\n    tag_243:\n      mload(0x40)\n      0x20\n      dup2\n      dup4\n      sub\n      sub\n      dup2\n      mstore\n      swap1\n      0x40\n      mstore\n        /* \"Dropsite.sol\":4518:4522  data */\n      0x02\n        /* \"Dropsite.sol\":4518:4585  data = string(abi.encodePacked(\"Silver_\",Strings.toString(Silver))) */\n      swap1\n      dup1\n      mload\n      swap1\n      0x20\n      add\n      swap1\n      tag_245\n      swap3\n      swap2\n      swap1\n      tag_229\n      jump\t// in\n    tag_245:\n        /* \"Dropsite.sol\":4513:4517  data */\n      0x02\n        /* \"Dropsite.sol\":4513:4585  data=data = string(abi.encodePacked(\"Silver_\",Strings.toString(Silver))) */\n      swap1\n      dup1\n      sload\n      tag_246\n      swap1\n      tag_126\n      jump\t// in\n    tag_246:\n      tag_247\n      swap3\n      swap2\n      swap1\n      tag_248\n      jump\t// in\n    tag_247:\n      pop\n        /* \"Dropsite.sol\":4619:4624  nftId */\n      dup1\n        /* \"Dropsite.sol\":4612:4624  return nftId */\n      swap3\n      pop\n      pop\n      pop\n      jump(tag_214)\n        /* \"Dropsite.sol\":4445:5254  if(nftId <= 2 && Silver <= 850) {... */\n    tag_240:\n        /* \"Dropsite.sol\":4836:4839  100 */\n      0x64\n        /* \"Dropsite.sol\":4829:4833  Gold */\n      sload(0x08)\n        /* \"Dropsite.sol\":4829:4839  Gold < 100 */\n      lt\n        /* \"Dropsite.sol\":4826:5245  if(Gold < 100) {... */\n      iszero\n      tag_250\n      jumpi\n        /* \"Dropsite.sol\":4867:4868  1 */\n      0x01\n        /* \"Dropsite.sol\":4859:4868  nftId = 1 */\n      swap1\n      pop\n        /* \"Dropsite.sol\":4886:4890  Gold */\n      0x08\n      0x00\n        /* \"Dropsite.sol\":4886:4892  Gold++ */\n      dup2\n      sload\n      dup1\n      swap3\n      swap2\n      swap1\n      tag_251\n      swap1\n      tag_133\n      jump\t// in\n    tag_251:\n      swap2\n      swap1\n      pop\n      sstore\n      pop\n        /* \"Dropsite.sol\":4949:4971  Strings.toString(Gold) */\n      tag_252\n        /* \"Dropsite.sol\":4966:4970  Gold */\n      sload(0x08)\n        /* \"Dropsite.sol\":4949:4965  Strings.toString */\n      tag_225\n        /* \"Dropsite.sol\":4949:4971  Strings.toString(Gold) */\n      jump\t// in\n    tag_252:\n        /* \"Dropsite.sol\":4924:4972  abi.encodePacked(\"Gold_\",Strings.toString(Gold)) */\n      add(0x20, mload(0x40))\n      tag_253\n      swap2\n      swap1\n      tag_236\n      jump\t// in\n    tag_253:\n      mload(0x40)\n      0x20\n      dup2\n      dup4\n      sub\n      sub\n      dup2\n      mstore\n      swap1\n      0x40\n      mstore\n        /* \"Dropsite.sol\":4910:4914  data */\n      0x02\n        /* \"Dropsite.sol\":4910:4973  data = string(abi.encodePacked(\"Gold_\",Strings.toString(Gold))) */\n      swap1\n      dup1\n      mload\n      swap1\n      0x20\n      add\n      swap1\n      tag_254\n      swap3\n      swap2\n      swap1\n      tag_229\n      jump\t// in\n    tag_254:\n      pop\n        /* \"Dropsite.sol\":5016:5021  nftId */\n      dup1\n        /* \"Dropsite.sol\":5009:5021  return nftId */\n      swap3\n      pop\n      pop\n      pop\n      jump(tag_214)\n        /* \"Dropsite.sol\":4826:5245  if(Gold < 100) {... */\n    tag_250:\n        /* \"Dropsite.sol\":5068:5069  0 */\n      0x00\n        /* \"Dropsite.sol\":5060:5069  nftId = 0 */\n      swap1\n      pop\n        /* \"Dropsite.sol\":5087:5094  Diamond */\n      0x07\n      0x00\n        /* \"Dropsite.sol\":5087:5096  Diamond++ */\n      dup2\n      sload\n      dup1\n      swap3\n      swap2\n      swap1\n      tag_256\n      swap1\n      tag_133\n      jump\t// in\n    tag_256:\n      swap2\n      swap1\n      pop\n      sstore\n      pop\n        /* \"Dropsite.sol\":5156:5181  Strings.toString(Diamond) */\n      tag_257\n        /* \"Dropsite.sol\":5173:5180  Diamond */\n      sload(0x07)\n        /* \"Dropsite.sol\":5156:5172  Strings.toString */\n      tag_225\n        /* \"Dropsite.sol\":5156:5181  Strings.toString(Diamond) */\n      jump\t// in\n    tag_257:\n        /* \"Dropsite.sol\":5128:5182  abi.encodePacked(\"Diamond_\",Strings.toString(Diamond)) */\n      add(0x20, mload(0x40))\n      tag_258\n      swap2\n      swap1\n      tag_227\n      jump\t// in\n    tag_258:\n      mload(0x40)\n      0x20\n      dup2\n      dup4\n      sub\n      sub\n      dup2\n      mstore\n      swap1\n      0x40\n      mstore\n        /* \"Dropsite.sol\":5114:5118  data */\n      0x02\n        /* \"Dropsite.sol\":5114:5183  data = string(abi.encodePacked(\"Diamond_\",Strings.toString(Diamond))) */\n      swap1\n      dup1\n      mload\n      swap1\n      0x20\n      add\n      swap1\n      tag_259\n      swap3\n      swap2\n      swap1\n      tag_229\n      jump\t// in\n    tag_259:\n      pop\n        /* \"Dropsite.sol\":5225:5230  nftId */\n      dup1\n        /* \"Dropsite.sol\":5218:5230  return nftId */\n      swap3\n      pop\n      pop\n      pop\n        /* \"Dropsite.sol\":1231:1232  _ */\n    tag_214:\n        /* \"Dropsite.sol\":3657:5259  function updateConditions() internal contractIsNotPaused returns(uint) {... */\n      swap1\n      jump\t// out\n        /* \"ERC1155_Dropsite.sol\":835:1387  function _mint(... */\n    tag_131:\n        /* \"ERC1155_Dropsite.sol\":997:998  0 */\n      0x00\n        /* \"ERC1155_Dropsite.sol\":983:999  to != address(0) */\n      0xffffffffffffffffffffffffffffffffffffffff\n      and\n        /* \"ERC1155_Dropsite.sol\":983:985  to */\n      dup5\n        /* \"ERC1155_Dropsite.sol\":983:999  to != address(0) */\n      0xffffffffffffffffffffffffffffffffffffffff\n      and\n      eq\n      iszero\n        /* \"ERC1155_Dropsite.sol\":975:1037  require(to != address(0), \"ERC1155: mint to the zero address\") */\n      tag_261\n      jumpi\n      mload(0x40)\n      0x08c379a000000000000000000000000000000000000000000000000000000000\n      dup2\n      mstore\n      0x04\n      add\n      tag_262\n      swap1\n      tag_263\n      jump\t// in\n    tag_262:\n      mload(0x40)\n      dup1\n      swap2\n      sub\n      swap1\n      revert\n    tag_261:\n        /* \"ERC1155_Dropsite.sol\":1048:1064  address operator */\n      0x00\n        /* \"ERC1155_Dropsite.sol\":1067:1079  _msgSender() */\n      tag_264\n        /* \"ERC1155_Dropsite.sol\":1067:1077  _msgSender */\n      tag_80\n        /* \"ERC1155_Dropsite.sol\":1067:1079  _msgSender() */\n      jump\t// in\n    tag_264:\n        /* \"ERC1155_Dropsite.sol\":1048:1079  address operator = _msgSender() */\n      swap1\n      pop\n        /* \"ERC1155_Dropsite.sol\":1090:1192  _beforeTokenTransfer(operator, address(0), to, _asSingletonArray(id), _asSingletonArray(amount), data) */\n      tag_265\n        /* \"ERC1155_Dropsite.sol\":1111:1119  operator */\n      dup2\n        /* \"ERC1155_Dropsite.sol\":1129:1130  0 */\n      0x00\n        /* \"ERC1155_Dropsite.sol\":1133:1135  to */\n      dup8\n        /* \"ERC1155_Dropsite.sol\":1137:1158  _asSingletonArray(id) */\n      tag_266\n        /* \"ERC1155_Dropsite.sol\":1155:1157  id */\n      dup9\n        /* \"ERC1155_Dropsite.sol\":1137:1154  _asSingletonArray */\n      tag_267\n        /* \"ERC1155_Dropsite.sol\":1137:1158  _asSingletonArray(id) */\n      jump\t// in\n    tag_266:\n        /* \"ERC1155_Dropsite.sol\":1160:1185  _asSingletonArray(amount) */\n      tag_268\n        /* \"ERC1155_Dropsite.sol\":1178:1184  amount */\n      dup9\n        /* \"ERC1155_Dropsite.sol\":1160:1177  _asSingletonArray */\n      tag_267\n        /* \"ERC1155_Dropsite.sol\":1160:1185  _asSingletonArray(amount) */\n      jump\t// in\n    tag_268:\n        /* \"ERC1155_Dropsite.sol\":1187:1191  data */\n      dup8\n        /* \"ERC1155_Dropsite.sol\":1090:1110  _beforeTokenTransfer */\n      tag_269\n        /* \"ERC1155_Dropsite.sol\":1090:1192  _beforeTokenTransfer(operator, address(0), to, _asSingletonArray(id), _asSingletonArray(amount), data) */\n      jump\t// in\n    tag_265:\n        /* \"ERC1155_Dropsite.sol\":1223:1229  amount */\n      dup3\n        /* \"ERC1155_Dropsite.sol\":1202:1211  _balances */\n      0x00\n        /* \"ERC1155_Dropsite.sol\":1202:1215  _balances[id] */\n      dup1\n        /* \"ERC1155_Dropsite.sol\":1212:1214  id */\n      dup7\n        /* \"ERC1155_Dropsite.sol\":1202:1215  _balances[id] */\n      dup2\n      mstore\n      0x20\n      add\n      swap1\n      dup2\n      mstore\n      0x20\n      add\n      0x00\n      keccak256\n        /* \"ERC1155_Dropsite.sol\":1202:1219  _balances[id][to] */\n      0x00\n        /* \"ERC1155_Dropsite.sol\":1216:1218  to */\n      dup8\n        /* \"ERC1155_Dropsite.sol\":1202:1219  _balances[id][to] */\n      0xffffffffffffffffffffffffffffffffffffffff\n      and\n      0xffffffffffffffffffffffffffffffffffffffff\n      and\n      dup2\n      mstore\n      0x20\n      add\n      swap1\n      dup2\n      mstore\n      0x20\n      add\n      0x00\n      keccak256\n      0x00\n        /* \"ERC1155_Dropsite.sol\":1202:1229  _balances[id][to] += amount */\n      dup3\n      dup3\n      sload\n      tag_270\n      swap2\n      swap1\n      tag_271\n      jump\t// in\n    tag_270:\n      swap3\n      pop\n      pop\n      dup2\n      swap1\n      sstore\n      pop\n        /* \"ERC1155_Dropsite.sol\":1281:1283  to */\n      dup5\n        /* \"ERC1155_Dropsite.sol\":1244:1296  TransferSingle(operator, address(0), to, id, amount) */\n      0xffffffffffffffffffffffffffffffffffffffff\n      and\n        /* \"ERC1155_Dropsite.sol\":1277:1278  0 */\n      0x00\n        /* \"ERC1155_Dropsite.sol\":1244:1296  TransferSingle(operator, address(0), to, id, amount) */\n      0xffffffffffffffffffffffffffffffffffffffff\n      and\n        /* \"ERC1155_Dropsite.sol\":1259:1267  operator */\n      dup3\n        /* \"ERC1155_Dropsite.sol\":1244:1296  TransferSingle(operator, address(0), to, id, amount) */\n      0xffffffffffffffffffffffffffffffffffffffff\n      and\n      0xc3d58168c5ae7397731d063d5bbf3d657854427343f4c083240f7aacaa2d0f62\n        /* \"ERC1155_Dropsite.sol\":1285:1287  id */\n      dup8\n        /* \"ERC1155_Dropsite.sol\":1289:1295  amount */\n      dup8\n        /* \"ERC1155_Dropsite.sol\":1244:1296  TransferSingle(operator, address(0), to, id, amount) */\n      mload(0x40)\n      tag_272\n      swap3\n      swap2\n      swap1\n      tag_273\n      jump\t// in\n    tag_272:\n      mload(0x40)\n      dup1\n      swap2\n      sub\n      swap1\n      log4\n        /* \"ERC1155_Dropsite.sol\":1306:1380  _doSafeTransferAcceptanceCheck(operator, address(0), to, id, amount, data) */\n      tag_274\n        /* \"ERC1155_Dropsite.sol\":1337:1345  operator */\n      dup2\n        /* \"ERC1155_Dropsite.sol\":1355:1356  0 */\n      0x00\n        /* \"ERC1155_Dropsite.sol\":1359:1361  to */\n      dup8\n        /* \"ERC1155_Dropsite.sol\":1363:1365  id */\n      dup8\n        /* \"ERC1155_Dropsite.sol\":1367:1373  amount */\n      dup8\n        /* \"ERC1155_Dropsite.sol\":1375:1379  data */\n      dup8\n        /* \"ERC1155_Dropsite.sol\":1306:1336  _doSafeTransferAcceptanceCheck */\n      tag_275\n        /* \"ERC1155_Dropsite.sol\":1306:1380  _doSafeTransferAcceptanceCheck(operator, address(0), to, id, amount, data) */\n      jump\t// in\n    tag_274:\n        /* \"ERC1155_Dropsite.sol\":965:1387  {... */\n      pop\n        /* \"ERC1155_Dropsite.sol\":835:1387  function _mint(... */\n      pop\n      pop\n      pop\n      pop\n      jump\t// out\n        /* \"Dropsite.sol\":5918:6037  function depositAmount(address payee,uint amountToDeposit) internal {... */\n    tag_164:\n        /* \"Dropsite.sol\":6015:6030  amountToDeposit */\n      dup1\n        /* \"Dropsite.sol\":5996:6004  deposits */\n      0x0b\n        /* \"Dropsite.sol\":5996:6011  deposits[payee] */\n      0x00\n        /* \"Dropsite.sol\":6005:6010  payee */\n      dup5\n        /* \"Dropsite.sol\":5996:6011  deposits[payee] */\n      0xffffffffffffffffffffffffffffffffffffffff\n      and\n      0xffffffffffffffffffffffffffffffffffffffff\n      and\n      dup2\n      mstore\n      0x20\n      add\n      swap1\n      dup2\n      mstore\n      0x20\n      add\n      0x00\n      keccak256\n      0x00\n        /* \"Dropsite.sol\":5996:6030  deposits[payee] += amountToDeposit */\n      dup3\n      dup3\n      sload\n      tag_277\n      swap2\n      swap1\n      tag_271\n      jump\t// in\n    tag_277:\n      swap3\n      pop\n      pop\n      dup2\n      swap1\n      sstore\n      pop\n        /* \"Dropsite.sol\":5918:6037  function depositAmount(address payee,uint amountToDeposit) internal {... */\n      pop\n      pop\n      jump\t// out\n        /* \"Dropsite.sol\":3276:3472  function random() internal view returns (uint) {... */\n    tag_216:\n        /* \"Dropsite.sol\":3317:3321  uint */\n      0x00\n        /* \"Dropsite.sol\":3353:3370  uint randomnumber */\n      dup1\n        /* \"Dropsite.sol\":3438:3440  20 */\n      0x14\n        /* \"Dropsite.sol\":3405:3420  block.timestamp */\n      timestamp\n        /* \"Dropsite.sol\":3422:3432  msg.sender */\n      caller\n        /* \"Dropsite.sol\":3388:3433  abi.encodePacked(block.timestamp, msg.sender) */\n      add(0x20, mload(0x40))\n      tag_279\n      swap3\n      swap2\n      swap1\n      tag_280\n      jump\t// in\n    tag_279:\n      mload(0x40)\n      0x20\n      dup2\n      dup4\n      sub\n      sub\n      dup2\n      mstore\n      swap1\n      0x40\n      mstore\n        /* \"Dropsite.sol\":3378:3434  keccak256(abi.encodePacked(block.timestamp, msg.sender)) */\n      dup1\n      mload\n      swap1\n      0x20\n      add\n      keccak256\n        /* \"Dropsite.sol\":3373:3435  uint(keccak256(abi.encodePacked(block.timestamp, msg.sender))) */\n      0x00\n      shr\n        /* \"Dropsite.sol\":3373:3440  uint(keccak256(abi.encodePacked(block.timestamp, msg.sender))) % 20 */\n      tag_281\n      swap2\n      swap1\n      tag_282\n      jump\t// in\n    tag_281:\n        /* \"Dropsite.sol\":3353:3440  uint randomnumber = uint(keccak256(abi.encodePacked(block.timestamp, msg.sender))) % 20 */\n      swap1\n      pop\n        /* \"Dropsite.sol\":3453:3465  randomnumber */\n      dup1\n        /* \"Dropsite.sol\":3446:3465  return randomnumber */\n      swap2\n      pop\n      pop\n        /* \"Dropsite.sol\":3276:3472  function random() internal view returns (uint) {... */\n      swap1\n      jump\t// out\n        /* \"Strings.sol\":329:1032  function toString(uint256 value) internal pure returns (string memory) {... */\n    tag_225:\n        /* \"Strings.sol\":385:398  string memory */\n      0x60\n        /* \"Strings.sol\":611:612  0 */\n      0x00\n        /* \"Strings.sol\":602:607  value */\n      dup3\n        /* \"Strings.sol\":602:612  value == 0 */\n      eq\n        /* \"Strings.sol\":598:649  if (value == 0) {... */\n      iszero\n      tag_284\n      jumpi\n        /* \"Strings.sol\":628:638  return \"0\" */\n      mload(0x40)\n      dup1\n      0x40\n      add\n      0x40\n      mstore\n      dup1\n      0x01\n      dup2\n      mstore\n      0x20\n      add\n      0x3000000000000000000000000000000000000000000000000000000000000000\n      dup2\n      mstore\n      pop\n      swap1\n      pop\n      jump(tag_283)\n        /* \"Strings.sol\":598:649  if (value == 0) {... */\n    tag_284:\n        /* \"Strings.sol\":658:670  uint256 temp */\n      0x00\n        /* \"Strings.sol\":673:678  value */\n      dup3\n        /* \"Strings.sol\":658:678  uint256 temp = value */\n      swap1\n      pop\n        /* \"Strings.sol\":688:702  uint256 digits */\n      0x00\n        /* \"Strings.sol\":712:787  while (temp != 0) {... */\n    tag_285:\n        /* \"Strings.sol\":727:728  0 */\n      0x00\n        /* \"Strings.sol\":719:723  temp */\n      dup3\n        /* \"Strings.sol\":719:728  temp != 0 */\n      eq\n        /* \"Strings.sol\":712:787  while (temp != 0) {... */\n      tag_286\n      jumpi\n        /* \"Strings.sol\":744:752  digits++ */\n      dup1\n      dup1\n      tag_287\n      swap1\n      tag_133\n      jump\t// in\n    tag_287:\n      swap2\n      pop\n      pop\n        /* \"Strings.sol\":774:776  10 */\n      0x0a\n        /* \"Strings.sol\":766:776  temp /= 10 */\n      dup3\n      tag_288\n      swap2\n      swap1\n      tag_289\n      jump\t// in\n    tag_288:\n      swap2\n      pop\n        /* \"Strings.sol\":712:787  while (temp != 0) {... */\n      jump(tag_285)\n    tag_286:\n        /* \"Strings.sol\":796:815  bytes memory buffer */\n      0x00\n        /* \"Strings.sol\":828:834  digits */\n      dup2\n        /* \"Strings.sol\":818:835  new bytes(digits) */\n      0xffffffffffffffff\n      dup2\n      gt\n      iszero\n      tag_290\n      jumpi\n      tag_291\n      tag_292\n      jump\t// in\n    tag_291:\n    tag_290:\n      mload(0x40)\n      swap1\n      dup1\n      dup3\n      mstore\n      dup1\n      0x1f\n      add\n      not(0x1f)\n      and\n      0x20\n      add\n      dup3\n      add\n      0x40\n      mstore\n      dup1\n      iszero\n      tag_293\n      jumpi\n      dup2\n      0x20\n      add\n      0x01\n      dup3\n      mul\n      dup1\n      calldatasize\n      dup4\n      calldatacopy\n      dup1\n      dup3\n      add\n      swap2\n      pop\n      pop\n      swap1\n      pop\n    tag_293:\n      pop\n        /* \"Strings.sol\":796:835  bytes memory buffer = new bytes(digits) */\n      swap1\n      pop\n        /* \"Strings.sol\":845:995  while (value != 0) {... */\n    tag_294:\n        /* \"Strings.sol\":861:862  0 */\n      0x00\n        /* \"Strings.sol\":852:857  value */\n      dup6\n        /* \"Strings.sol\":852:862  value != 0 */\n      eq\n        /* \"Strings.sol\":845:995  while (value != 0) {... */\n      tag_295\n      jumpi\n        /* \"Strings.sol\":888:889  1 */\n      0x01\n        /* \"Strings.sol\":878:889  digits -= 1 */\n      dup3\n      tag_296\n      swap2\n      swap1\n      tag_297\n      jump\t// in\n    tag_296:\n      swap2\n      pop\n        /* \"Strings.sol\":954:956  10 */\n      0x0a\n        /* \"Strings.sol\":946:951  value */\n      dup6\n        /* \"Strings.sol\":946:956  value % 10 */\n      tag_298\n      swap2\n      swap1\n      tag_282\n      jump\t// in\n    tag_298:\n        /* \"Strings.sol\":933:935  48 */\n      0x30\n        /* \"Strings.sol\":933:957  48 + uint256(value % 10) */\n      tag_299\n      swap2\n      swap1\n      tag_271\n      jump\t// in\n    tag_299:\n        /* \"Strings.sol\":920:959  bytes1(uint8(48 + uint256(value % 10))) */\n      0xf8\n      shl\n        /* \"Strings.sol\":903:909  buffer */\n      dup2\n        /* \"Strings.sol\":910:916  digits */\n      dup4\n        /* \"Strings.sol\":903:917  buffer[digits] */\n      dup2\n      mload\n      dup2\n      lt\n      tag_300\n      jumpi\n      tag_301\n      tag_219\n      jump\t// in\n    tag_301:\n    tag_300:\n      0x20\n      add\n      add\n        /* \"Strings.sol\":903:959  buffer[digits] = bytes1(uint8(48 + uint256(value % 10))) */\n      swap1\n      not(0xffffffffffffffffffffffffffffffffffffffffffffffffffffffffffffff)\n      and\n      swap1\n      dup2\n      0x00\n      byte\n      swap1\n      mstore8\n      pop\n        /* \"Strings.sol\":982:984  10 */\n      0x0a\n        /* \"Strings.sol\":973:984  value /= 10 */\n      dup6\n      tag_302\n      swap2\n      swap1\n      tag_289\n      jump\t// in\n    tag_302:\n      swap5\n      pop\n        /* \"Strings.sol\":845:995  while (value != 0) {... */\n      jump(tag_294)\n    tag_295:\n        /* \"Strings.sol\":1018:1024  buffer */\n      dup1\n        /* \"Strings.sol\":1004:1025  return string(buffer) */\n      swap4\n      pop\n      pop\n      pop\n      pop\n        /* \"Strings.sol\":329:1032  function toString(uint256 value) internal pure returns (string memory) {... */\n    tag_283:\n      swap2\n      swap1\n      pop\n      jump\t// out\n        /* \"ERC1155_Dropsite.sol\":2347:2540  function _asSingletonArray(uint256 element) private pure returns (uint256[] memory) {... */\n    tag_267:\n        /* \"ERC1155_Dropsite.sol\":2413:2429  uint256[] memory */\n      0x60\n        /* \"ERC1155_Dropsite.sol\":2441:2463  uint256[] memory array */\n      0x00\n        /* \"ERC1155_Dropsite.sol\":2480:2481  1 */\n      0x01\n        /* \"ERC1155_Dropsite.sol\":2466:2482  new uint256[](1) */\n      0xffffffffffffffff\n      dup2\n      gt\n      iszero\n      tag_304\n      jumpi\n      tag_305\n      tag_292\n      jump\t// in\n    tag_305:\n    tag_304:\n      mload(0x40)\n      swap1\n      dup1\n      dup3\n      mstore\n      dup1\n      0x20\n      mul\n      0x20\n      add\n      dup3\n      add\n      0x40\n      mstore\n      dup1\n      iszero\n      tag_306\n      jumpi\n      dup2\n      0x20\n      add\n      0x20\n      dup3\n      mul\n      dup1\n      calldatasize\n      dup4\n      calldatacopy\n      dup1\n      dup3\n      add\n      swap2\n      pop\n      pop\n      swap1\n      pop\n    tag_306:\n      pop\n        /* \"ERC1155_Dropsite.sol\":2441:2482  uint256[] memory array = new uint256[](1) */\n      swap1\n      pop\n        /* \"ERC1155_Dropsite.sol\":2503:2510  element */\n      dup3\n        /* \"ERC1155_Dropsite.sol\":2492:2497  array */\n      dup2\n        /* \"ERC1155_Dropsite.sol\":2498:2499  0 */\n      0x00\n        /* \"ERC1155_Dropsite.sol\":2492:2500  array[0] */\n      dup2\n      mload\n      dup2\n      lt\n      tag_307\n      jumpi\n      tag_308\n      tag_219\n      jump\t// in\n    tag_308:\n    tag_307:\n      0x20\n      mul\n      0x20\n      add\n      add\n        /* \"ERC1155_Dropsite.sol\":2492:2510  array[0] = element */\n      dup2\n      dup2\n      mstore\n      pop\n      pop\n        /* \"ERC1155_Dropsite.sol\":2528:2533  array */\n      dup1\n        /* \"ERC1155_Dropsite.sol\":2521:2533  return array */\n      swap2\n      pop\n      pop\n        /* \"ERC1155_Dropsite.sol\":2347:2540  function _asSingletonArray(uint256 element) private pure returns (uint256[] memory) {... */\n      swap2\n      swap1\n      pop\n      jump\t// out\n        /* \"ERC1155_Dropsite.sol\":1394:1609  function _beforeTokenTransfer(... */\n    tag_269:\n      pop\n      pop\n      pop\n      pop\n      pop\n      pop\n      jump\t// out\n        /* \"ERC1155_Dropsite.sol\":1615:2341  function _doSafeTransferAcceptanceCheck(... */\n    tag_275:\n        /* \"ERC1155_Dropsite.sol\":1823:1838  to.isContract() */\n      tag_311\n        /* \"ERC1155_Dropsite.sol\":1823:1825  to */\n      dup5\n        /* \"ERC1155_Dropsite.sol\":1823:1836  to.isContract */\n      0xffffffffffffffffffffffffffffffffffffffff\n      and\n      tag_312\n        /* \"ERC1155_Dropsite.sol\":1823:1838  to.isContract() */\n      jump\t// in\n    tag_311:\n        /* \"ERC1155_Dropsite.sol\":1819:2335  if (to.isContract()) {... */\n      iszero\n      tag_313\n      jumpi\n        /* \"ERC1155_Dropsite.sol\":1875:1877  to */\n      dup4\n        /* \"ERC1155_Dropsite.sol\":1858:1896  IERC1155Receiver(to).onERC1155Received */\n      0xffffffffffffffffffffffffffffffffffffffff\n      and\n      0xae89a248\n        /* \"ERC1155_Dropsite.sol\":1897:1905  operator */\n      dup8\n        /* \"ERC1155_Dropsite.sol\":1907:1911  from */\n      dup8\n        /* \"ERC1155_Dropsite.sol\":1913:1915  id */\n      dup7\n        /* \"ERC1155_Dropsite.sol\":1917:1923  amount */\n      dup7\n        /* \"ERC1155_Dropsite.sol\":1925:1929  data */\n      dup7\n        /* \"ERC1155_Dropsite.sol\":1858:1930  IERC1155Receiver(to).onERC1155Received(operator, from, id, amount, data) */\n      mload(0x40)\n      dup7\n      0xffffffff\n      and\n      0xe0\n      shl\n      dup2\n      mstore\n      0x04\n      add\n      tag_314\n      swap6\n      swap5\n      swap4\n      swap3\n      swap2\n      swap1\n      tag_315\n      jump\t// in\n    tag_314:\n      0x20\n      mload(0x40)\n      dup1\n      dup4\n      sub\n      dup2\n      0x00\n      dup8\n      dup1\n      extcodesize\n      iszero\n      dup1\n      iszero\n      tag_316\n      jumpi\n      0x00\n      dup1\n      revert\n    tag_316:\n      pop\n      gas\n      call\n      swap3\n      pop\n      pop\n      pop\n      dup1\n      iszero\n      tag_317\n      jumpi\n      pop\n      mload(0x40)\n      returndatasize\n      not(0x1f)\n      0x1f\n      dup3\n      add\n      and\n      dup3\n      add\n      dup1\n      0x40\n      mstore\n      pop\n      dup2\n      add\n      swap1\n      tag_318\n      swap2\n      swap1\n      tag_319\n      jump\t// in\n    tag_318:\n      0x01\n    tag_317:\n        /* \"ERC1155_Dropsite.sol\":1854:2325  try IERC1155Receiver(to).onERC1155Received(operator, from, id, amount, data) returns (bytes4 response) {... */\n      tag_320\n      jumpi\n      tag_324\n      tag_325\n      jump\t// in\n    tag_324:\n      dup1\n      0x08c379a0\n      eq\n      iszero\n      tag_323\n      jumpi\n      pop\n      tag_326\n      tag_327\n      jump\t// in\n    tag_326:\n      dup1\n      tag_328\n      jumpi\n      pop\n      jump(tag_322)\n    tag_328:\n        /* \"ERC1155_Dropsite.sol\":2201:2207  reason */\n      dup1\n        /* \"ERC1155_Dropsite.sol\":2194:2208  revert(reason) */\n      mload(0x40)\n      0x08c379a000000000000000000000000000000000000000000000000000000000\n      dup2\n      mstore\n      0x04\n      add\n      tag_329\n      swap2\n      swap1\n      tag_330\n      jump\t// in\n    tag_329:\n      mload(0x40)\n      dup1\n      swap2\n      sub\n      swap1\n      revert\n        /* \"ERC1155_Dropsite.sol\":1854:2325  try IERC1155Receiver(to).onERC1155Received(operator, from, id, amount, data) returns (bytes4 response) {... */\n    tag_323:\n      pop\n    tag_322:\n        /* \"ERC1155_Dropsite.sol\":2248:2310  revert(\"ERC1155: transfer to non ERC1155Receiver implementer\") */\n      mload(0x40)\n      0x08c379a000000000000000000000000000000000000000000000000000000000\n      dup2\n      mstore\n      0x04\n      add\n      tag_331\n      swap1\n      tag_332\n      jump\t// in\n    tag_331:\n      mload(0x40)\n      dup1\n      swap2\n      sub\n      swap1\n      revert\n        /* \"ERC1155_Dropsite.sol\":1854:2325  try IERC1155Receiver(to).onERC1155Received(operator, from, id, amount, data) returns (bytes4 response) {... */\n    tag_320:\n        /* \"ERC1155_Dropsite.sol\":1991:2034  IERC1155Receiver.onERC1155Received.selector */\n      shl(0xe0, 0xae89a248)\n        /* \"ERC1155_Dropsite.sol\":1979:2034  response != IERC1155Receiver.onERC1155Received.selector */\n      not(0xffffffffffffffffffffffffffffffffffffffffffffffffffffffff)\n      and\n        /* \"ERC1155_Dropsite.sol\":1979:1987  response */\n      dup2\n        /* \"ERC1155_Dropsite.sol\":1979:2034  response != IERC1155Receiver.onERC1155Received.selector */\n      not(0xffffffffffffffffffffffffffffffffffffffffffffffffffffffff)\n      and\n      eq\n        /* \"ERC1155_Dropsite.sol\":1975:2127  if (response != IERC1155Receiver.onERC1155Received.selector) {... */\n      tag_334\n      jumpi\n        /* \"ERC1155_Dropsite.sol\":2058:2108  revert(\"ERC1155: ERC1155Receiver rejected tokens\") */\n      mload(0x40)\n      0x08c379a000000000000000000000000000000000000000000000000000000000\n      dup2\n      mstore\n      0x04\n      add\n      tag_335\n      swap1\n      tag_336\n      jump\t// in\n    tag_335:\n      mload(0x40)\n      dup1\n      swap2\n      sub\n      swap1\n      revert\n        /* \"ERC1155_Dropsite.sol\":1975:2127  if (response != IERC1155Receiver.onERC1155Received.selector) {... */\n    tag_334:\n        /* \"ERC1155_Dropsite.sol\":1931:2141  returns (bytes4 response) {... */\n      pop\n        /* \"ERC1155_Dropsite.sol\":1819:2335  if (to.isContract()) {... */\n    tag_313:\n        /* \"ERC1155_Dropsite.sol\":1615:2341  function _doSafeTransferAcceptanceCheck(... */\n      pop\n      pop\n      pop\n      pop\n      pop\n      pop\n      jump\t// out\n        /* \"Address.sol\":771:1148  function isContract(address account) internal view returns (bool) {... */\n    tag_312:\n        /* \"Address.sol\":831:835  bool */\n      0x00\n        /* \"Address.sol\":1034:1046  uint256 size */\n      dup1\n        /* \"Address.sol\":1099:1106  account */\n      dup3\n        /* \"Address.sol\":1087:1107  extcodesize(account) */\n      extcodesize\n        /* \"Address.sol\":1079:1107  size := extcodesize(account) */\n      swap1\n      pop\n        /* \"Address.sol\":1140:1141  0 */\n      0x00\n        /* \"Address.sol\":1133:1137  size */\n      dup2\n        /* \"Address.sol\":1133:1141  size > 0 */\n      gt\n        /* \"Address.sol\":1126:1141  return size > 0 */\n      swap2\n      pop\n      pop\n        /* \"Address.sol\":771:1148  function isContract(address account) internal view returns (bool) {... */\n      swap2\n      swap1\n      pop\n      jump\t// out\n    tag_229:\n      dup3\n      dup1\n      sload\n      tag_338\n      swap1\n      tag_126\n      jump\t// in\n    tag_338:\n      swap1\n      0x00\n      mstore\n      keccak256(0x00, 0x20)\n      swap1\n      0x1f\n      add\n      0x20\n      swap1\n      div\n      dup2\n      add\n      swap3\n      dup3\n      tag_340\n      jumpi\n      0x00\n      dup6\n      sstore\n      jump(tag_339)\n    tag_340:\n      dup3\n      0x1f\n      lt\n      tag_341\n      jumpi\n      dup1\n      mload\n      not(0xff)\n      and\n      dup4\n      dup1\n      add\n      or\n      dup6\n      sstore\n      jump(tag_339)\n    tag_341:\n      dup3\n      dup1\n      add\n      0x01\n      add\n      dup6\n      sstore\n      dup3\n      iszero\n      tag_339\n      jumpi\n      swap2\n      dup3\n      add\n    tag_342:\n      dup3\n      dup2\n      gt\n      iszero\n      tag_343\n      jumpi\n      dup3\n      mload\n      dup3\n      sstore\n      swap2\n      0x20\n      add\n      swap2\n      swap1\n      0x01\n      add\n      swap1\n      jump(tag_342)\n    tag_343:\n    tag_339:\n      pop\n      swap1\n      pop\n      tag_344\n      swap2\n      swap1\n      tag_345\n      jump\t// in\n    tag_344:\n      pop\n      swap1\n      jump\t// out\n    tag_248:\n      dup3\n      dup1\n      sload\n      tag_346\n      swap1\n      tag_126\n      jump\t// in\n    tag_346:\n      swap1\n      0x00\n      mstore\n      keccak256(0x00, 0x20)\n      swap1\n      0x1f\n      add\n      0x20\n      swap1\n      div\n      dup2\n      add\n      swap3\n      dup3\n      tag_348\n      jumpi\n      0x00\n      dup6\n      sstore\n      jump(tag_347)\n    tag_348:\n      dup3\n      0x1f\n      lt\n      tag_349\n      jumpi\n      dup1\n      sload\n      dup6\n      sstore\n      jump(tag_347)\n    tag_349:\n      dup3\n      dup1\n      add\n      0x01\n      add\n      dup6\n      sstore\n      dup3\n      iszero\n      tag_347\n      jumpi\n      0x00\n      mstore\n      keccak256(0x00, 0x20)\n      swap2\n      0x1f\n      add\n      0x20\n      swap1\n      div\n      dup3\n      add\n    tag_350:\n      dup3\n      dup2\n      gt\n      iszero\n      tag_351\n      jumpi\n      dup3\n      sload\n      dup3\n      sstore\n      swap2\n      0x01\n      add\n      swap2\n      swap1\n      0x01\n      add\n      swap1\n      jump(tag_350)\n    tag_351:\n    tag_347:\n      pop\n      swap1\n      pop\n      tag_352\n      swap2\n      swap1\n      tag_345\n      jump\t// in\n    tag_352:\n      pop\n      swap1\n      jump\t// out\n    tag_345:\n    tag_353:\n      dup1\n      dup3\n      gt\n      iszero\n      tag_354\n      jumpi\n      0x00\n      dup2\n      0x00\n      swap1\n      sstore\n      pop\n      0x01\n      add\n      jump(tag_353)\n    tag_354:\n      pop\n      swap1\n      jump\t// out\n        /* \"#utility.yul\":7:146   */\n    tag_356:\n        /* \"#utility.yul\":53:58   */\n      0x00\n        /* \"#utility.yul\":91:97   */\n      dup2\n        /* \"#utility.yul\":78:98   */\n      calldataload\n        /* \"#utility.yul\":69:98   */\n      swap1\n      pop\n        /* \"#utility.yul\":107:140   */\n      tag_358\n        /* \"#utility.yul\":134:139   */\n      dup2\n        /* \"#utility.yul\":107:140   */\n      tag_359\n      jump\t// in\n    tag_358:\n        /* \"#utility.yul\":7:146   */\n      swap3\n      swap2\n      pop\n      pop\n      jump\t// out\n        /* \"#utility.yul\":152:307   */\n    tag_360:\n        /* \"#utility.yul\":206:211   */\n      0x00\n        /* \"#utility.yul\":244:250   */\n      dup2\n        /* \"#utility.yul\":231:251   */\n      calldataload\n        /* \"#utility.yul\":222:251   */\n      swap1\n      pop\n        /* \"#utility.yul\":260:301   */\n      tag_362\n        /* \"#utility.yul\":295:300   */\n      dup2\n        /* \"#utility.yul\":260:301   */\n      tag_363\n      jump\t// in\n    tag_362:\n        /* \"#utility.yul\":152:307   */\n      swap3\n      swap2\n      pop\n      pop\n      jump\t// out\n        /* \"#utility.yul\":313:454   */\n    tag_364:\n        /* \"#utility.yul\":369:374   */\n      0x00\n        /* \"#utility.yul\":400:406   */\n      dup2\n        /* \"#utility.yul\":394:407   */\n      mload\n        /* \"#utility.yul\":385:407   */\n      swap1\n      pop\n        /* \"#utility.yul\":416:448   */\n      tag_366\n        /* \"#utility.yul\":442:447   */\n      dup2\n        /* \"#utility.yul\":416:448   */\n      tag_367\n      jump\t// in\n    tag_366:\n        /* \"#utility.yul\":313:454   */\n      swap3\n      swap2\n      pop\n      pop\n      jump\t// out\n        /* \"#utility.yul\":460:599   */\n    tag_368:\n        /* \"#utility.yul\":506:511   */\n      0x00\n        /* \"#utility.yul\":544:550   */\n      dup2\n        /* \"#utility.yul\":531:551   */\n      calldataload\n        /* \"#utility.yul\":522:551   */\n      swap1\n      pop\n        /* \"#utility.yul\":560:593   */\n      tag_370\n        /* \"#utility.yul\":587:592   */\n      dup2\n        /* \"#utility.yul\":560:593   */\n      tag_371\n      jump\t// in\n    tag_370:\n        /* \"#utility.yul\":460:599   */\n      swap3\n      swap2\n      pop\n      pop\n      jump\t// out\n        /* \"#utility.yul\":605:934   */\n    tag_47:\n        /* \"#utility.yul\":664:670   */\n      0x00\n        /* \"#utility.yul\":713:715   */\n      0x20\n        /* \"#utility.yul\":701:710   */\n      dup3\n        /* \"#utility.yul\":692:699   */\n      dup5\n        /* \"#utility.yul\":688:711   */\n      sub\n        /* \"#utility.yul\":684:716   */\n      slt\n        /* \"#utility.yul\":681:800   */\n      iszero\n      tag_373\n      jumpi\n        /* \"#utility.yul\":719:798   */\n      tag_374\n      tag_375\n      jump\t// in\n    tag_374:\n        /* \"#utility.yul\":681:800   */\n    tag_373:\n        /* \"#utility.yul\":839:840   */\n      0x00\n        /* \"#utility.yul\":864:917   */\n      tag_376\n        /* \"#utility.yul\":909:916   */\n      dup5\n        /* \"#utility.yul\":900:906   */\n      dup3\n        /* \"#utility.yul\":889:898   */\n      dup6\n        /* \"#utility.yul\":885:907   */\n      add\n        /* \"#utility.yul\":864:917   */\n      tag_356\n      jump\t// in\n    tag_376:\n        /* \"#utility.yul\":854:917   */\n      swap2\n      pop\n        /* \"#utility.yul\":810:927   */\n      pop\n        /* \"#utility.yul\":605:934   */\n      swap3\n      swap2\n      pop\n      pop\n      jump\t// out\n        /* \"#utility.yul\":940:1285   */\n    tag_24:\n        /* \"#utility.yul\":1007:1013   */\n      0x00\n        /* \"#utility.yul\":1056:1058   */\n      0x20\n        /* \"#utility.yul\":1044:1053   */\n      dup3\n        /* \"#utility.yul\":1035:1042   */\n      dup5\n        /* \"#utility.yul\":1031:1054   */\n      sub\n        /* \"#utility.yul\":1027:1059   */\n      slt\n        /* \"#utility.yul\":1024:1143   */\n      iszero\n      tag_378\n      jumpi\n        /* \"#utility.yul\":1062:1141   */\n      tag_379\n      tag_375\n      jump\t// in\n    tag_379:\n        /* \"#utility.yul\":1024:1143   */\n    tag_378:\n        /* \"#utility.yul\":1182:1183   */\n      0x00\n        /* \"#utility.yul\":1207:1268   */\n      tag_380\n        /* \"#utility.yul\":1260:1267   */\n      dup5\n        /* \"#utility.yul\":1251:1257   */\n      dup3\n        /* \"#utility.yul\":1240:1249   */\n      dup6\n        /* \"#utility.yul\":1236:1258   */\n      add\n        /* \"#utility.yul\":1207:1268   */\n      tag_360\n      jump\t// in\n    tag_380:\n        /* \"#utility.yul\":1197:1268   */\n      swap2\n      pop\n        /* \"#utility.yul\":1153:1278   */\n      pop\n        /* \"#utility.yul\":940:1285   */\n      swap3\n      swap2\n      pop\n      pop\n      jump\t// out\n        /* \"#utility.yul\":1291:1765   */\n    tag_37:\n        /* \"#utility.yul\":1359:1365   */\n      0x00\n        /* \"#utility.yul\":1367:1373   */\n      dup1\n        /* \"#utility.yul\":1416:1418   */\n      0x40\n        /* \"#utility.yul\":1404:1413   */\n      dup4\n        /* \"#utility.yul\":1395:1402   */\n      dup6\n        /* \"#utility.yul\":1391:1414   */\n      sub\n        /* \"#utility.yul\":1387:1419   */\n      slt\n        /* \"#utility.yul\":1384:1503   */\n      iszero\n      tag_382\n      jumpi\n        /* \"#utility.yul\":1422:1501   */\n      tag_383\n      tag_375\n      jump\t// in\n    tag_383:\n        /* \"#utility.yul\":1384:1503   */\n    tag_382:\n        /* \"#utility.yul\":1542:1543   */\n      0x00\n        /* \"#utility.yul\":1567:1620   */\n      tag_384\n        /* \"#utility.yul\":1612:1619   */\n      dup6\n        /* \"#utility.yul\":1603:1609   */\n      dup3\n        /* \"#utility.yul\":1592:1601   */\n      dup7\n        /* \"#utility.yul\":1588:1610   */\n      add\n        /* \"#utility.yul\":1567:1620   */\n      tag_356\n      jump\t// in\n    tag_384:\n        /* \"#utility.yul\":1557:1620   */\n      swap3\n      pop\n        /* \"#utility.yul\":1513:1630   */\n      pop\n        /* \"#utility.yul\":1669:1671   */\n      0x20\n        /* \"#utility.yul\":1695:1748   */\n      tag_385\n        /* \"#utility.yul\":1740:1747   */\n      dup6\n        /* \"#utility.yul\":1731:1737   */\n      dup3\n        /* \"#utility.yul\":1720:1729   */\n      dup7\n        /* \"#utility.yul\":1716:1738   */\n      add\n        /* \"#utility.yul\":1695:1748   */\n      tag_368\n      jump\t// in\n    tag_385:\n        /* \"#utility.yul\":1685:1748   */\n      swap2\n      pop\n        /* \"#utility.yul\":1640:1758   */\n      pop\n        /* \"#utility.yul\":1291:1765   */\n      swap3\n      pop\n      swap3\n      swap1\n      pop\n      jump\t// out\n        /* \"#utility.yul\":1771:2120   */\n    tag_319:\n        /* \"#utility.yul\":1840:1846   */\n      0x00\n        /* \"#utility.yul\":1889:1891   */\n      0x20\n        /* \"#utility.yul\":1877:1886   */\n      dup3\n        /* \"#utility.yul\":1868:1875   */\n      dup5\n        /* \"#utility.yul\":1864:1887   */\n      sub\n        /* \"#utility.yul\":1860:1892   */\n      slt\n        /* \"#utility.yul\":1857:1976   */\n      iszero\n      tag_387\n      jumpi\n        /* \"#utility.yul\":1895:1974   */\n      tag_388\n      tag_375\n      jump\t// in\n    tag_388:\n        /* \"#utility.yul\":1857:1976   */\n    tag_387:\n        /* \"#utility.yul\":2015:2016   */\n      0x00\n        /* \"#utility.yul\":2040:2103   */\n      tag_389\n        /* \"#utility.yul\":2095:2102   */\n      dup5\n        /* \"#utility.yul\":2086:2092   */\n      dup3\n        /* \"#utility.yul\":2075:2084   */\n      dup6\n        /* \"#utility.yul\":2071:2093   */\n      add\n        /* \"#utility.yul\":2040:2103   */\n      tag_364\n      jump\t// in\n    tag_389:\n        /* \"#utility.yul\":2030:2103   */\n      swap2\n      pop\n        /* \"#utility.yul\":1986:2113   */\n      pop\n        /* \"#utility.yul\":1771:2120   */\n      swap3\n      swap2\n      pop\n      pop\n      jump\t// out\n        /* \"#utility.yul\":2126:2455   */\n    tag_70:\n        /* \"#utility.yul\":2185:2191   */\n      0x00\n        /* \"#utility.yul\":2234:2236   */\n      0x20\n        /* \"#utility.yul\":2222:2231   */\n      dup3\n        /* \"#utility.yul\":2213:2220   */\n      dup5\n        /* \"#utility.yul\":2209:2232   */\n      sub\n        /* \"#utility.yul\":2205:2237   */\n      slt\n        /* \"#utility.yul\":2202:2321   */\n      iszero\n      tag_391\n      jumpi\n        /* \"#utility.yul\":2240:2319   */\n      tag_392\n      tag_375\n      jump\t// in\n    tag_392:\n        /* \"#utility.yul\":2202:2321   */\n    tag_391:\n        /* \"#utility.yul\":2360:2361   */\n      0x00\n        /* \"#utility.yul\":2385:2438   */\n      tag_393\n        /* \"#utility.yul\":2430:2437   */\n      dup5\n        /* \"#utility.yul\":2421:2427   */\n      dup3\n        /* \"#utility.yul\":2410:2419   */\n      dup6\n        /* \"#utility.yul\":2406:2428   */\n      add\n        /* \"#utility.yul\":2385:2438   */\n      tag_368\n      jump\t// in\n    tag_393:\n        /* \"#utility.yul\":2375:2438   */\n      swap2\n      pop\n        /* \"#utility.yul\":2331:2448   */\n      pop\n        /* \"#utility.yul\":2126:2455   */\n      swap3\n      swap2\n      pop\n      pop\n      jump\t// out\n        /* \"#utility.yul\":2461:2640   */\n    tag_394:\n        /* \"#utility.yul\":2530:2540   */\n      0x00\n        /* \"#utility.yul\":2551:2597   */\n      tag_396\n        /* \"#utility.yul\":2593:2596   */\n      dup4\n        /* \"#utility.yul\":2585:2591   */\n      dup4\n        /* \"#utility.yul\":2551:2597   */\n      tag_397\n      jump\t// in\n    tag_396:\n        /* \"#utility.yul\":2629:2633   */\n      0x20\n        /* \"#utility.yul\":2624:2627   */\n      dup4\n        /* \"#utility.yul\":2620:2634   */\n      add\n        /* \"#utility.yul\":2606:2634   */\n      swap1\n      pop\n        /* \"#utility.yul\":2461:2640   */\n      swap3\n      swap2\n      pop\n      pop\n      jump\t// out\n        /* \"#utility.yul\":2646:2788   */\n    tag_398:\n        /* \"#utility.yul\":2749:2781   */\n      tag_400\n        /* \"#utility.yul\":2775:2780   */\n      dup2\n        /* \"#utility.yul\":2749:2781   */\n      tag_401\n      jump\t// in\n    tag_400:\n        /* \"#utility.yul\":2744:2747   */\n      dup3\n        /* \"#utility.yul\":2737:2782   */\n      mstore\n        /* \"#utility.yul\":2646:2788   */\n      pop\n      pop\n      jump\t// out\n        /* \"#utility.yul\":2794:2912   */\n    tag_402:\n        /* \"#utility.yul\":2881:2905   */\n      tag_404\n        /* \"#utility.yul\":2899:2904   */\n      dup2\n        /* \"#utility.yul\":2881:2905   */\n      tag_405\n      jump\t// in\n    tag_404:\n        /* \"#utility.yul\":2876:2879   */\n      dup3\n        /* \"#utility.yul\":2869:2906   */\n      mstore\n        /* \"#utility.yul\":2794:2912   */\n      pop\n      pop\n      jump\t// out\n        /* \"#utility.yul\":2918:3075   */\n    tag_406:\n        /* \"#utility.yul\":3023:3068   */\n      tag_408\n        /* \"#utility.yul\":3043:3067   */\n      tag_409\n        /* \"#utility.yul\":3061:3066   */\n      dup3\n        /* \"#utility.yul\":3043:3067   */\n      tag_405\n      jump\t// in\n    tag_409:\n        /* \"#utility.yul\":3023:3068   */\n      tag_410\n      jump\t// in\n    tag_408:\n        /* \"#utility.yul\":3018:3021   */\n      dup3\n        /* \"#utility.yul\":3011:3069   */\n      mstore\n        /* \"#utility.yul\":2918:3075   */\n      pop\n      pop\n      jump\t// out\n        /* \"#utility.yul\":3111:3843   */\n    tag_411:\n        /* \"#utility.yul\":3230:3233   */\n      0x00\n        /* \"#utility.yul\":3259:3313   */\n      tag_413\n        /* \"#utility.yul\":3307:3312   */\n      dup3\n        /* \"#utility.yul\":3259:3313   */\n      tag_414\n      jump\t// in\n    tag_413:\n        /* \"#utility.yul\":3329:3415   */\n      tag_415\n        /* \"#utility.yul\":3408:3414   */\n      dup2\n        /* \"#utility.yul\":3403:3406   */\n      dup6\n        /* \"#utility.yul\":3329:3415   */\n      tag_416\n      jump\t// in\n    tag_415:\n        /* \"#utility.yul\":3322:3415   */\n      swap4\n      pop\n        /* \"#utility.yul\":3439:3495   */\n      tag_417\n        /* \"#utility.yul\":3489:3494   */\n      dup4\n        /* \"#utility.yul\":3439:3495   */\n      tag_418\n      jump\t// in\n    tag_417:\n        /* \"#utility.yul\":3518:3525   */\n      dup1\n        /* \"#utility.yul\":3549:3550   */\n      0x00\n        /* \"#utility.yul\":3534:3818   */\n    tag_419:\n        /* \"#utility.yul\":3559:3565   */\n      dup4\n        /* \"#utility.yul\":3556:3557   */\n      dup2\n        /* \"#utility.yul\":3553:3566   */\n      lt\n        /* \"#utility.yul\":3534:3818   */\n      iszero\n      tag_421\n      jumpi\n        /* \"#utility.yul\":3635:3641   */\n      dup2\n        /* \"#utility.yul\":3629:3642   */\n      mload\n        /* \"#utility.yul\":3662:3725   */\n      tag_422\n        /* \"#utility.yul\":3721:3724   */\n      dup9\n        /* \"#utility.yul\":3706:3719   */\n      dup3\n        /* \"#utility.yul\":3662:3725   */\n      tag_394\n      jump\t// in\n    tag_422:\n        /* \"#utility.yul\":3655:3725   */\n      swap8\n      pop\n        /* \"#utility.yul\":3748:3808   */\n      tag_423\n        /* \"#utility.yul\":3801:3807   */\n      dup4\n        /* \"#utility.yul\":3748:3808   */\n      tag_424\n      jump\t// in\n    tag_423:\n        /* \"#utility.yul\":3738:3808   */\n      swap3\n      pop\n        /* \"#utility.yul\":3594:3818   */\n      pop\n        /* \"#utility.yul\":3581:3582   */\n      0x01\n        /* \"#utility.yul\":3578:3579   */\n      dup2\n        /* \"#utility.yul\":3574:3583   */\n      add\n        /* \"#utility.yul\":3569:3583   */\n      swap1\n      pop\n        /* \"#utility.yul\":3534:3818   */\n      jump(tag_419)\n    tag_421:\n        /* \"#utility.yul\":3538:3552   */\n      pop\n        /* \"#utility.yul\":3834:3837   */\n      dup6\n        /* \"#utility.yul\":3827:3837   */\n      swap4\n      pop\n        /* \"#utility.yul\":3235:3843   */\n      pop\n      pop\n      pop\n        /* \"#utility.yul\":3111:3843   */\n      swap3\n      swap2\n      pop\n      pop\n      jump\t// out\n        /* \"#utility.yul\":3849:3958   */\n    tag_425:\n        /* \"#utility.yul\":3930:3951   */\n      tag_427\n        /* \"#utility.yul\":3945:3950   */\n      dup2\n        /* \"#utility.yul\":3930:3951   */\n      tag_428\n      jump\t// in\n    tag_427:\n        /* \"#utility.yul\":3925:3928   */\n      dup3\n        /* \"#utility.yul\":3918:3952   */\n      mstore\n        /* \"#utility.yul\":3849:3958   */\n      pop\n      pop\n      jump\t// out\n        /* \"#utility.yul\":3964:4328   */\n    tag_429:\n        /* \"#utility.yul\":4052:4055   */\n      0x00\n        /* \"#utility.yul\":4080:4119   */\n      tag_431\n        /* \"#utility.yul\":4113:4118   */\n      dup3\n        /* \"#utility.yul\":4080:4119   */\n      tag_432\n      jump\t// in\n    tag_431:\n        /* \"#utility.yul\":4135:4206   */\n      tag_433\n        /* \"#utility.yul\":4199:4205   */\n      dup2\n        /* \"#utility.yul\":4194:4197   */\n      dup6\n        /* \"#utility.yul\":4135:4206   */\n      tag_434\n      jump\t// in\n    tag_433:\n        /* \"#utility.yul\":4128:4206   */\n      swap4\n      pop\n        /* \"#utility.yul\":4215:4267   */\n      tag_435\n        /* \"#utility.yul\":4260:4266   */\n      dup2\n        /* \"#utility.yul\":4255:4258   */\n      dup6\n        /* \"#utility.yul\":4248:4252   */\n      0x20\n        /* \"#utility.yul\":4241:4246   */\n      dup7\n        /* \"#utility.yul\":4237:4253   */\n      add\n        /* \"#utility.yul\":4215:4267   */\n      tag_436\n      jump\t// in\n    tag_435:\n        /* \"#utility.yul\":4292:4321   */\n      tag_437\n        /* \"#utility.yul\":4314:4320   */\n      dup2\n        /* \"#utility.yul\":4292:4321   */\n      tag_438\n      jump\t// in\n    tag_437:\n        /* \"#utility.yul\":4287:4290   */\n      dup5\n        /* \"#utility.yul\":4283:4322   */\n      add\n        /* \"#utility.yul\":4276:4322   */\n      swap2\n      pop\n        /* \"#utility.yul\":4056:4328   */\n      pop\n        /* \"#utility.yul\":3964:4328   */\n      swap3\n      swap2\n      pop\n      pop\n      jump\t// out\n        /* \"#utility.yul\":4334:4711   */\n    tag_439:\n        /* \"#utility.yul\":4440:4443   */\n      0x00\n        /* \"#utility.yul\":4468:4507   */\n      tag_441\n        /* \"#utility.yul\":4501:4506   */\n      dup3\n        /* \"#utility.yul\":4468:4507   */\n      tag_432\n      jump\t// in\n    tag_441:\n        /* \"#utility.yul\":4523:4612   */\n      tag_442\n        /* \"#utility.yul\":4605:4611   */\n      dup2\n        /* \"#utility.yul\":4600:4603   */\n      dup6\n        /* \"#utility.yul\":4523:4612   */\n      tag_443\n      jump\t// in\n    tag_442:\n        /* \"#utility.yul\":4516:4612   */\n      swap4\n      pop\n        /* \"#utility.yul\":4621:4673   */\n      tag_444\n        /* \"#utility.yul\":4666:4672   */\n      dup2\n        /* \"#utility.yul\":4661:4664   */\n      dup6\n        /* \"#utility.yul\":4654:4658   */\n      0x20\n        /* \"#utility.yul\":4647:4652   */\n      dup7\n        /* \"#utility.yul\":4643:4659   */\n      add\n        /* \"#utility.yul\":4621:4673   */\n      tag_436\n      jump\t// in\n    tag_444:\n        /* \"#utility.yul\":4698:4704   */\n      dup1\n        /* \"#utility.yul\":4693:4696   */\n      dup5\n        /* \"#utility.yul\":4689:4705   */\n      add\n        /* \"#utility.yul\":4682:4705   */\n      swap2\n      pop\n        /* \"#utility.yul\":4444:4711   */\n      pop\n        /* \"#utility.yul\":4334:4711   */\n      swap3\n      swap2\n      pop\n      pop\n      jump\t// out\n        /* \"#utility.yul\":4717:5083   */\n    tag_445:\n        /* \"#utility.yul\":4859:4862   */\n      0x00\n        /* \"#utility.yul\":4880:4947   */\n      tag_447\n        /* \"#utility.yul\":4944:4946   */\n      0x34\n        /* \"#utility.yul\":4939:4942   */\n      dup4\n        /* \"#utility.yul\":4880:4947   */\n      tag_434\n      jump\t// in\n    tag_447:\n        /* \"#utility.yul\":4873:4947   */\n      swap2\n      pop\n        /* \"#utility.yul\":4956:5049   */\n      tag_448\n        /* \"#utility.yul\":5045:5048   */\n      dup3\n        /* \"#utility.yul\":4956:5049   */\n      tag_449\n      jump\t// in\n    tag_448:\n        /* \"#utility.yul\":5074:5076   */\n      0x40\n        /* \"#utility.yul\":5069:5072   */\n      dup3\n        /* \"#utility.yul\":5065:5077   */\n      add\n        /* \"#utility.yul\":5058:5077   */\n      swap1\n      pop\n        /* \"#utility.yul\":4717:5083   */\n      swap2\n      swap1\n      pop\n      jump\t// out\n        /* \"#utility.yul\":5089:5455   */\n    tag_450:\n        /* \"#utility.yul\":5231:5234   */\n      0x00\n        /* \"#utility.yul\":5252:5319   */\n      tag_452\n        /* \"#utility.yul\":5316:5318   */\n      0x28\n        /* \"#utility.yul\":5311:5314   */\n      dup4\n        /* \"#utility.yul\":5252:5319   */\n      tag_434\n      jump\t// in\n    tag_452:\n        /* \"#utility.yul\":5245:5319   */\n      swap2\n      pop\n        /* \"#utility.yul\":5328:5421   */\n      tag_453\n        /* \"#utility.yul\":5417:5420   */\n      dup3\n        /* \"#utility.yul\":5328:5421   */\n      tag_454\n      jump\t// in\n    tag_453:\n        /* \"#utility.yul\":5446:5448   */\n      0x40\n        /* \"#utility.yul\":5441:5444   */\n      dup3\n        /* \"#utility.yul\":5437:5449   */\n      add\n        /* \"#utility.yul\":5430:5449   */\n      swap1\n      pop\n        /* \"#utility.yul\":5089:5455   */\n      swap2\n      swap1\n      pop\n      jump\t// out\n        /* \"#utility.yul\":5461:5861   */\n    tag_455:\n        /* \"#utility.yul\":5621:5624   */\n      0x00\n        /* \"#utility.yul\":5642:5726   */\n      tag_457\n        /* \"#utility.yul\":5724:5725   */\n      0x08\n        /* \"#utility.yul\":5719:5722   */\n      dup4\n        /* \"#utility.yul\":5642:5726   */\n      tag_443\n      jump\t// in\n    tag_457:\n        /* \"#utility.yul\":5635:5726   */\n      swap2\n      pop\n        /* \"#utility.yul\":5735:5828   */\n      tag_458\n        /* \"#utility.yul\":5824:5827   */\n      dup3\n        /* \"#utility.yul\":5735:5828   */\n      tag_459\n      jump\t// in\n    tag_458:\n        /* \"#utility.yul\":5853:5854   */\n      0x08\n        /* \"#utility.yul\":5848:5851   */\n      dup3\n        /* \"#utility.yul\":5844:5855   */\n      add\n        /* \"#utility.yul\":5837:5855   */\n      swap1\n      pop\n        /* \"#utility.yul\":5461:5861   */\n      swap2\n      swap1\n      pop\n      jump\t// out\n        /* \"#utility.yul\":5867:6267   */\n    tag_460:\n        /* \"#utility.yul\":6027:6030   */\n      0x00\n        /* \"#utility.yul\":6048:6132   */\n      tag_462\n        /* \"#utility.yul\":6130:6131   */\n      0x05\n        /* \"#utility.yul\":6125:6128   */\n      dup4\n        /* \"#utility.yul\":6048:6132   */\n      tag_443\n      jump\t// in\n    tag_462:\n        /* \"#utility.yul\":6041:6132   */\n      swap2\n      pop\n        /* \"#utility.yul\":6141:6234   */\n      tag_463\n        /* \"#utility.yul\":6230:6233   */\n      dup3\n        /* \"#utility.yul\":6141:6234   */\n      tag_464\n      jump\t// in\n    tag_463:\n        /* \"#utility.yul\":6259:6260   */\n      0x05\n        /* \"#utility.yul\":6254:6257   */\n      dup3\n        /* \"#utility.yul\":6250:6261   */\n      add\n        /* \"#utility.yul\":6243:6261   */\n      swap1\n      pop\n        /* \"#utility.yul\":5867:6267   */\n      swap2\n      swap1\n      pop\n      jump\t// out\n        /* \"#utility.yul\":6273:6639   */\n    tag_465:\n        /* \"#utility.yul\":6415:6418   */\n      0x00\n        /* \"#utility.yul\":6436:6503   */\n      tag_467\n        /* \"#utility.yul\":6500:6502   */\n      0x12\n        /* \"#utility.yul\":6495:6498   */\n      dup4\n        /* \"#utility.yul\":6436:6503   */\n      tag_434\n      jump\t// in\n    tag_467:\n        /* \"#utility.yul\":6429:6503   */\n      swap2\n      pop\n        /* \"#utility.yul\":6512:6605   */\n      tag_468\n        /* \"#utility.yul\":6601:6604   */\n      dup3\n        /* \"#utility.yul\":6512:6605   */\n      tag_469\n      jump\t// in\n    tag_468:\n        /* \"#utility.yul\":6630:6632   */\n      0x20\n        /* \"#utility.yul\":6625:6628   */\n      dup3\n        /* \"#utility.yul\":6621:6633   */\n      add\n        /* \"#utility.yul\":6614:6633   */\n      swap1\n      pop\n        /* \"#utility.yul\":6273:6639   */\n      swap2\n      swap1\n      pop\n      jump\t// out\n        /* \"#utility.yul\":6645:7011   */\n    tag_470:\n        /* \"#utility.yul\":6787:6790   */\n      0x00\n        /* \"#utility.yul\":6808:6875   */\n      tag_472\n        /* \"#utility.yul\":6872:6874   */\n      0x1b\n        /* \"#utility.yul\":6867:6870   */\n      dup4\n        /* \"#utility.yul\":6808:6875   */\n      tag_434\n      jump\t// in\n    tag_472:\n        /* \"#utility.yul\":6801:6875   */\n      swap2\n      pop\n        /* \"#utility.yul\":6884:6977   */\n      tag_473\n        /* \"#utility.yul\":6973:6976   */\n      dup3\n        /* \"#utility.yul\":6884:6977   */\n      tag_474\n      jump\t// in\n    tag_473:\n        /* \"#utility.yul\":7002:7004   */\n      0x20\n        /* \"#utility.yul\":6997:7000   */\n      dup3\n        /* \"#utility.yul\":6993:7005   */\n      add\n        /* \"#utility.yul\":6986:7005   */\n      swap1\n      pop\n        /* \"#utility.yul\":6645:7011   */\n      swap2\n      swap1\n      pop\n      jump\t// out\n        /* \"#utility.yul\":7017:7383   */\n    tag_475:\n        /* \"#utility.yul\":7159:7162   */\n      0x00\n        /* \"#utility.yul\":7180:7247   */\n      tag_477\n        /* \"#utility.yul\":7244:7246   */\n      0x1b\n        /* \"#utility.yul\":7239:7242   */\n      dup4\n        /* \"#utility.yul\":7180:7247   */\n      tag_434\n      jump\t// in\n    tag_477:\n        /* \"#utility.yul\":7173:7247   */\n      swap2\n      pop\n        /* \"#utility.yul\":7256:7349   */\n      tag_478\n        /* \"#utility.yul\":7345:7348   */\n      dup3\n        /* \"#utility.yul\":7256:7349   */\n      tag_479\n      jump\t// in\n    tag_478:\n        /* \"#utility.yul\":7374:7376   */\n      0x20\n        /* \"#utility.yul\":7369:7372   */\n      dup3\n        /* \"#utility.yul\":7365:7377   */\n      add\n        /* \"#utility.yul\":7358:7377   */\n      swap1\n      pop\n        /* \"#utility.yul\":7017:7383   */\n      swap2\n      swap1\n      pop\n      jump\t// out\n        /* \"#utility.yul\":7389:7755   */\n    tag_480:\n        /* \"#utility.yul\":7531:7534   */\n      0x00\n        /* \"#utility.yul\":7552:7619   */\n      tag_482\n        /* \"#utility.yul\":7616:7618   */\n      0x15\n        /* \"#utility.yul\":7611:7614   */\n      dup4\n        /* \"#utility.yul\":7552:7619   */\n      tag_434\n      jump\t// in\n    tag_482:\n        /* \"#utility.yul\":7545:7619   */\n      swap2\n      pop\n        /* \"#utility.yul\":7628:7721   */\n      tag_483\n        /* \"#utility.yul\":7717:7720   */\n      dup3\n        /* \"#utility.yul\":7628:7721   */\n      tag_484\n      jump\t// in\n    tag_483:\n        /* \"#utility.yul\":7746:7748   */\n      0x20\n        /* \"#utility.yul\":7741:7744   */\n      dup3\n        /* \"#utility.yul\":7737:7749   */\n      add\n        /* \"#utility.yul\":7730:7749   */\n      swap1\n      pop\n        /* \"#utility.yul\":7389:7755   */\n      swap2\n      swap1\n      pop\n      jump\t// out\n        /* \"#utility.yul\":7761:8127   */\n    tag_485:\n        /* \"#utility.yul\":7903:7906   */\n      0x00\n        /* \"#utility.yul\":7924:7991   */\n      tag_487\n        /* \"#utility.yul\":7988:7990   */\n      0x1c\n        /* \"#utility.yul\":7983:7986   */\n      dup4\n        /* \"#utility.yul\":7924:7991   */\n      tag_434\n      jump\t// in\n    tag_487:\n        /* \"#utility.yul\":7917:7991   */\n      swap2\n      pop\n        /* \"#utility.yul\":8000:8093   */\n      tag_488\n        /* \"#utility.yul\":8089:8092   */\n      dup3\n        /* \"#utility.yul\":8000:8093   */\n      tag_489\n      jump\t// in\n    tag_488:\n        /* \"#utility.yul\":8118:8120   */\n      0x20\n        /* \"#utility.yul\":8113:8116   */\n      dup3\n        /* \"#utility.yul\":8109:8121   */\n      add\n        /* \"#utility.yul\":8102:8121   */\n      swap1\n      pop\n        /* \"#utility.yul\":7761:8127   */\n      swap2\n      swap1\n      pop\n      jump\t// out\n        /* \"#utility.yul\":8133:8499   */\n    tag_490:\n        /* \"#utility.yul\":8275:8278   */\n      0x00\n        /* \"#utility.yul\":8296:8363   */\n      tag_492\n        /* \"#utility.yul\":8360:8362   */\n      0x1b\n        /* \"#utility.yul\":8355:8358   */\n      dup4\n        /* \"#utility.yul\":8296:8363   */\n      tag_434\n      jump\t// in\n    tag_492:\n        /* \"#utility.yul\":8289:8363   */\n      swap2\n      pop\n        /* \"#utility.yul\":8372:8465   */\n      tag_493\n        /* \"#utility.yul\":8461:8464   */\n      dup3\n        /* \"#utility.yul\":8372:8465   */\n      tag_494\n      jump\t// in\n    tag_493:\n        /* \"#utility.yul\":8490:8492   */\n      0x20\n        /* \"#utility.yul\":8485:8488   */\n      dup3\n        /* \"#utility.yul\":8481:8493   */\n      add\n        /* \"#utility.yul\":8474:8493   */\n      swap1\n      pop\n        /* \"#utility.yul\":8133:8499   */\n      swap2\n      swap1\n      pop\n      jump\t// out\n        /* \"#utility.yul\":8505:8871   */\n    tag_495:\n        /* \"#utility.yul\":8647:8650   */\n      0x00\n        /* \"#utility.yul\":8668:8735   */\n      tag_497\n        /* \"#utility.yul\":8732:8734   */\n      0x19\n        /* \"#utility.yul\":8727:8730   */\n      dup4\n        /* \"#utility.yul\":8668:8735   */\n      tag_434\n      jump\t// in\n    tag_497:\n        /* \"#utility.yul\":8661:8735   */\n      swap2\n      pop\n        /* \"#utility.yul\":8744:8837   */\n      tag_498\n        /* \"#utility.yul\":8833:8836   */\n      dup3\n        /* \"#utility.yul\":8744:8837   */\n      tag_499\n      jump\t// in\n    tag_498:\n        /* \"#utility.yul\":8862:8864   */\n      0x20\n        /* \"#utility.yul\":8857:8860   */\n      dup3\n        /* \"#utility.yul\":8853:8865   */\n      add\n        /* \"#utility.yul\":8846:8865   */\n      swap1\n      pop\n        /* \"#utility.yul\":8505:8871   */\n      swap2\n      swap1\n      pop\n      jump\t// out\n        /* \"#utility.yul\":8877:9277   */\n    tag_500:\n        /* \"#utility.yul\":9037:9040   */\n      0x00\n        /* \"#utility.yul\":9058:9142   */\n      tag_502\n        /* \"#utility.yul\":9140:9141   */\n      0x07\n        /* \"#utility.yul\":9135:9138   */\n      dup4\n        /* \"#utility.yul\":9058:9142   */\n      tag_443\n      jump\t// in\n    tag_502:\n        /* \"#utility.yul\":9051:9142   */\n      swap2\n      pop\n        /* \"#utility.yul\":9151:9244   */\n      tag_503\n        /* \"#utility.yul\":9240:9243   */\n      dup3\n        /* \"#utility.yul\":9151:9244   */\n      tag_504\n      jump\t// in\n    tag_503:\n        /* \"#utility.yul\":9269:9270   */\n      0x07\n        /* \"#utility.yul\":9264:9267   */\n      dup3\n        /* \"#utility.yul\":9260:9271   */\n      add\n        /* \"#utility.yul\":9253:9271   */\n      swap1\n      pop\n        /* \"#utility.yul\":8877:9277   */\n      swap2\n      swap1\n      pop\n      jump\t// out\n        /* \"#utility.yul\":9283:9649   */\n    tag_505:\n        /* \"#utility.yul\":9425:9428   */\n      0x00\n        /* \"#utility.yul\":9446:9513   */\n      tag_507\n        /* \"#utility.yul\":9510:9512   */\n      0x1d\n        /* \"#utility.yul\":9505:9508   */\n      dup4\n        /* \"#utility.yul\":9446:9513   */\n      tag_434\n      jump\t// in\n    tag_507:\n        /* \"#utility.yul\":9439:9513   */\n      swap2\n      pop\n        /* \"#utility.yul\":9522:9615   */\n      tag_508\n        /* \"#utility.yul\":9611:9614   */\n      dup3\n        /* \"#utility.yul\":9522:9615   */\n      tag_509\n      jump\t// in\n    tag_508:\n        /* \"#utility.yul\":9640:9642   */\n      0x20\n        /* \"#utility.yul\":9635:9638   */\n      dup3\n        /* \"#utility.yul\":9631:9643   */\n      add\n        /* \"#utility.yul\":9624:9643   */\n      swap1\n      pop\n        /* \"#utility.yul\":9283:9649   */\n      swap2\n      swap1\n      pop\n      jump\t// out\n        /* \"#utility.yul\":9655:10021   */\n    tag_510:\n        /* \"#utility.yul\":9797:9800   */\n      0x00\n        /* \"#utility.yul\":9818:9885   */\n      tag_512\n        /* \"#utility.yul\":9882:9884   */\n      0x21\n        /* \"#utility.yul\":9877:9880   */\n      dup4\n        /* \"#utility.yul\":9818:9885   */\n      tag_434\n      jump\t// in\n    tag_512:\n        /* \"#utility.yul\":9811:9885   */\n      swap2\n      pop\n        /* \"#utility.yul\":9894:9987   */\n      tag_513\n        /* \"#utility.yul\":9983:9986   */\n      dup3\n        /* \"#utility.yul\":9894:9987   */\n      tag_514\n      jump\t// in\n    tag_513:\n        /* \"#utility.yul\":10012:10014   */\n      0x40\n        /* \"#utility.yul\":10007:10010   */\n      dup3\n        /* \"#utility.yul\":10003:10015   */\n      add\n        /* \"#utility.yul\":9996:10015   */\n      swap1\n      pop\n        /* \"#utility.yul\":9655:10021   */\n      swap2\n      swap1\n      pop\n      jump\t// out\n        /* \"#utility.yul\":10027:10135   */\n    tag_397:\n        /* \"#utility.yul\":10104:10128   */\n      tag_516\n        /* \"#utility.yul\":10122:10127   */\n      dup2\n        /* \"#utility.yul\":10104:10128   */\n      tag_517\n      jump\t// in\n    tag_516:\n        /* \"#utility.yul\":10099:10102   */\n      dup3\n        /* \"#utility.yul\":10092:10129   */\n      mstore\n        /* \"#utility.yul\":10027:10135   */\n      pop\n      pop\n      jump\t// out\n        /* \"#utility.yul\":10141:10259   */\n    tag_518:\n        /* \"#utility.yul\":10228:10252   */\n      tag_520\n        /* \"#utility.yul\":10246:10251   */\n      dup2\n        /* \"#utility.yul\":10228:10252   */\n      tag_517\n      jump\t// in\n    tag_520:\n        /* \"#utility.yul\":10223:10226   */\n      dup3\n        /* \"#utility.yul\":10216:10253   */\n      mstore\n        /* \"#utility.yul\":10141:10259   */\n      pop\n      pop\n      jump\t// out\n        /* \"#utility.yul\":10265:10422   */\n    tag_521:\n        /* \"#utility.yul\":10370:10415   */\n      tag_523\n        /* \"#utility.yul\":10390:10414   */\n      tag_524\n        /* \"#utility.yul\":10408:10413   */\n      dup3\n        /* \"#utility.yul\":10390:10414   */\n      tag_517\n      jump\t// in\n    tag_524:\n        /* \"#utility.yul\":10370:10415   */\n      tag_525\n      jump\t// in\n    tag_523:\n        /* \"#utility.yul\":10365:10368   */\n      dup3\n        /* \"#utility.yul\":10358:10416   */\n      mstore\n        /* \"#utility.yul\":10265:10422   */\n      pop\n      pop\n      jump\t// out\n        /* \"#utility.yul\":10428:10969   */\n    tag_227:\n        /* \"#utility.yul\":10661:10664   */\n      0x00\n        /* \"#utility.yul\":10683:10831   */\n      tag_527\n        /* \"#utility.yul\":10827:10830   */\n      dup3\n        /* \"#utility.yul\":10683:10831   */\n      tag_455\n      jump\t// in\n    tag_527:\n        /* \"#utility.yul\":10676:10831   */\n      swap2\n      pop\n        /* \"#utility.yul\":10848:10943   */\n      tag_528\n        /* \"#utility.yul\":10939:10942   */\n      dup3\n        /* \"#utility.yul\":10930:10936   */\n      dup5\n        /* \"#utility.yul\":10848:10943   */\n      tag_439\n      jump\t// in\n    tag_528:\n        /* \"#utility.yul\":10841:10943   */\n      swap2\n      pop\n        /* \"#utility.yul\":10960:10963   */\n      dup2\n        /* \"#utility.yul\":10953:10963   */\n      swap1\n      pop\n        /* \"#utility.yul\":10428:10969   */\n      swap3\n      swap2\n      pop\n      pop\n      jump\t// out\n        /* \"#utility.yul\":10975:11516   */\n    tag_236:\n        /* \"#utility.yul\":11208:11211   */\n      0x00\n        /* \"#utility.yul\":11230:11378   */\n      tag_530\n        /* \"#utility.yul\":11374:11377   */\n      dup3\n        /* \"#utility.yul\":11230:11378   */\n      tag_460\n      jump\t// in\n    tag_530:\n        /* \"#utility.yul\":11223:11378   */\n      swap2\n      pop\n        /* \"#utility.yul\":11395:11490   */\n      tag_531\n        /* \"#utility.yul\":11486:11489   */\n      dup3\n        /* \"#utility.yul\":11477:11483   */\n      dup5\n        /* \"#utility.yul\":11395:11490   */\n      tag_439\n      jump\t// in\n    tag_531:\n        /* \"#utility.yul\":11388:11490   */\n      swap2\n      pop\n        /* \"#utility.yul\":11507:11510   */\n      dup2\n        /* \"#utility.yul\":11500:11510   */\n      swap1\n      pop\n        /* \"#utility.yul\":10975:11516   */\n      swap3\n      swap2\n      pop\n      pop\n      jump\t// out\n        /* \"#utility.yul\":11522:12063   */\n    tag_244:\n        /* \"#utility.yul\":11755:11758   */\n      0x00\n        /* \"#utility.yul\":11777:11925   */\n      tag_533\n        /* \"#utility.yul\":11921:11924   */\n      dup3\n        /* \"#utility.yul\":11777:11925   */\n      tag_500\n      jump\t// in\n    tag_533:\n        /* \"#utility.yul\":11770:11925   */\n      swap2\n      pop\n        /* \"#utility.yul\":11942:12037   */\n      tag_534\n        /* \"#utility.yul\":12033:12036   */\n      dup3\n        /* \"#utility.yul\":12024:12030   */\n      dup5\n        /* \"#utility.yul\":11942:12037   */\n      tag_439\n      jump\t// in\n    tag_534:\n        /* \"#utility.yul\":11935:12037   */\n      swap2\n      pop\n        /* \"#utility.yul\":12054:12057   */\n      dup2\n        /* \"#utility.yul\":12047:12057   */\n      swap1\n      pop\n        /* \"#utility.yul\":11522:12063   */\n      swap3\n      swap2\n      pop\n      pop\n      jump\t// out\n        /* \"#utility.yul\":12069:12466   */\n    tag_280:\n        /* \"#utility.yul\":12209:12212   */\n      0x00\n        /* \"#utility.yul\":12224:12299   */\n      tag_536\n        /* \"#utility.yul\":12295:12298   */\n      dup3\n        /* \"#utility.yul\":12286:12292   */\n      dup6\n        /* \"#utility.yul\":12224:12299   */\n      tag_521\n      jump\t// in\n    tag_536:\n        /* \"#utility.yul\":12324:12326   */\n      0x20\n        /* \"#utility.yul\":12319:12322   */\n      dup3\n        /* \"#utility.yul\":12315:12327   */\n      add\n        /* \"#utility.yul\":12308:12327   */\n      swap2\n      pop\n        /* \"#utility.yul\":12337:12412   */\n      tag_537\n        /* \"#utility.yul\":12408:12411   */\n      dup3\n        /* \"#utility.yul\":12399:12405   */\n      dup5\n        /* \"#utility.yul\":12337:12412   */\n      tag_406\n      jump\t// in\n    tag_537:\n        /* \"#utility.yul\":12437:12439   */\n      0x14\n        /* \"#utility.yul\":12432:12435   */\n      dup3\n        /* \"#utility.yul\":12428:12440   */\n      add\n        /* \"#utility.yul\":12421:12440   */\n      swap2\n      pop\n        /* \"#utility.yul\":12457:12460   */\n      dup2\n        /* \"#utility.yul\":12450:12460   */\n      swap1\n      pop\n        /* \"#utility.yul\":12069:12466   */\n      swap4\n      swap3\n      pop\n      pop\n      pop\n      jump\t// out\n        /* \"#utility.yul\":12472:12726   */\n    tag_66:\n        /* \"#utility.yul\":12581:12585   */\n      0x00\n        /* \"#utility.yul\":12619:12621   */\n      0x20\n        /* \"#utility.yul\":12608:12617   */\n      dup3\n        /* \"#utility.yul\":12604:12622   */\n      add\n        /* \"#utility.yul\":12596:12622   */\n      swap1\n      pop\n        /* \"#utility.yul\":12632:12719   */\n      tag_539\n        /* \"#utility.yul\":12716:12717   */\n      0x00\n        /* \"#utility.yul\":12705:12714   */\n      dup4\n        /* \"#utility.yul\":12701:12718   */\n      add\n        /* \"#utility.yul\":12692:12698   */\n      dup5\n        /* \"#utility.yul\":12632:12719   */\n      tag_398\n      jump\t// in\n    tag_539:\n        /* \"#utility.yul\":12472:12726   */\n      swap3\n      swap2\n      pop\n      pop\n      jump\t// out\n        /* \"#utility.yul\":12732:13487   */\n    tag_315:\n        /* \"#utility.yul\":12957:12961   */\n      0x00\n        /* \"#utility.yul\":12995:12998   */\n      0xa0\n        /* \"#utility.yul\":12984:12993   */\n      dup3\n        /* \"#utility.yul\":12980:12999   */\n      add\n        /* \"#utility.yul\":12972:12999   */\n      swap1\n      pop\n        /* \"#utility.yul\":13009:13080   */\n      tag_541\n        /* \"#utility.yul\":13077:13078   */\n      0x00\n        /* \"#utility.yul\":13066:13075   */\n      dup4\n        /* \"#utility.yul\":13062:13079   */\n      add\n        /* \"#utility.yul\":13053:13059   */\n      dup9\n        /* \"#utility.yul\":13009:13080   */\n      tag_402\n      jump\t// in\n    tag_541:\n        /* \"#utility.yul\":13090:13162   */\n      tag_542\n        /* \"#utility.yul\":13158:13160   */\n      0x20\n        /* \"#utility.yul\":13147:13156   */\n      dup4\n        /* \"#utility.yul\":13143:13161   */\n      add\n        /* \"#utility.yul\":13134:13140   */\n      dup8\n        /* \"#utility.yul\":13090:13162   */\n      tag_402\n      jump\t// in\n    tag_542:\n        /* \"#utility.yul\":13172:13244   */\n      tag_543\n        /* \"#utility.yul\":13240:13242   */\n      0x40\n        /* \"#utility.yul\":13229:13238   */\n      dup4\n        /* \"#utility.yul\":13225:13243   */\n      add\n        /* \"#utility.yul\":13216:13222   */\n      dup7\n        /* \"#utility.yul\":13172:13244   */\n      tag_518\n      jump\t// in\n    tag_543:\n        /* \"#utility.yul\":13254:13326   */\n      tag_544\n        /* \"#utility.yul\":13322:13324   */\n      0x60\n        /* \"#utility.yul\":13311:13320   */\n      dup4\n        /* \"#utility.yul\":13307:13325   */\n      add\n        /* \"#utility.yul\":13298:13304   */\n      dup6\n        /* \"#utility.yul\":13254:13326   */\n      tag_518\n      jump\t// in\n    tag_544:\n        /* \"#utility.yul\":13374:13383   */\n      dup2\n        /* \"#utility.yul\":13368:13372   */\n      dup2\n        /* \"#utility.yul\":13364:13384   */\n      sub\n        /* \"#utility.yul\":13358:13361   */\n      0x80\n        /* \"#utility.yul\":13347:13356   */\n      dup4\n        /* \"#utility.yul\":13343:13362   */\n      add\n        /* \"#utility.yul\":13336:13385   */\n      mstore\n        /* \"#utility.yul\":13402:13480   */\n      tag_545\n        /* \"#utility.yul\":13475:13479   */\n      dup2\n        /* \"#utility.yul\":13466:13472   */\n      dup5\n        /* \"#utility.yul\":13402:13480   */\n      tag_429\n      jump\t// in\n    tag_545:\n        /* \"#utility.yul\":13394:13480   */\n      swap1\n      pop\n        /* \"#utility.yul\":12732:13487   */\n      swap7\n      swap6\n      pop\n      pop\n      pop\n      pop\n      pop\n      pop\n      jump\t// out\n        /* \"#utility.yul\":13493:13866   */\n    tag_77:\n        /* \"#utility.yul\":13636:13640   */\n      0x00\n        /* \"#utility.yul\":13674:13676   */\n      0x20\n        /* \"#utility.yul\":13663:13672   */\n      dup3\n        /* \"#utility.yul\":13659:13677   */\n      add\n        /* \"#utility.yul\":13651:13677   */\n      swap1\n      pop\n        /* \"#utility.yul\":13723:13732   */\n      dup2\n        /* \"#utility.yul\":13717:13721   */\n      dup2\n        /* \"#utility.yul\":13713:13733   */\n      sub\n        /* \"#utility.yul\":13709:13710   */\n      0x00\n        /* \"#utility.yul\":13698:13707   */\n      dup4\n        /* \"#utility.yul\":13694:13711   */\n      add\n        /* \"#utility.yul\":13687:13734   */\n      mstore\n        /* \"#utility.yul\":13751:13859   */\n      tag_547\n        /* \"#utility.yul\":13854:13858   */\n      dup2\n        /* \"#utility.yul\":13845:13851   */\n      dup5\n        /* \"#utility.yul\":13751:13859   */\n      tag_411\n      jump\t// in\n    tag_547:\n        /* \"#utility.yul\":13743:13859   */\n      swap1\n      pop\n        /* \"#utility.yul\":13493:13866   */\n      swap3\n      swap2\n      pop\n      pop\n      jump\t// out\n        /* \"#utility.yul\":13872:14082   */\n    tag_30:\n        /* \"#utility.yul\":13959:13963   */\n      0x00\n        /* \"#utility.yul\":13997:13999   */\n      0x20\n        /* \"#utility.yul\":13986:13995   */\n      dup3\n        /* \"#utility.yul\":13982:14000   */\n      add\n        /* \"#utility.yul\":13974:14000   */\n      swap1\n      pop\n        /* \"#utility.yul\":14010:14075   */\n      tag_549\n        /* \"#utility.yul\":14072:14073   */\n      0x00\n        /* \"#utility.yul\":14061:14070   */\n      dup4\n        /* \"#utility.yul\":14057:14074   */\n      add\n        /* \"#utility.yul\":14048:14054   */\n      dup5\n        /* \"#utility.yul\":14010:14075   */\n      tag_425\n      jump\t// in\n    tag_549:\n        /* \"#utility.yul\":13872:14082   */\n      swap3\n      swap2\n      pop\n      pop\n      jump\t// out\n        /* \"#utility.yul\":14088:14401   */\n    tag_330:\n        /* \"#utility.yul\":14201:14205   */\n      0x00\n        /* \"#utility.yul\":14239:14241   */\n      0x20\n        /* \"#utility.yul\":14228:14237   */\n      dup3\n        /* \"#utility.yul\":14224:14242   */\n      add\n        /* \"#utility.yul\":14216:14242   */\n      swap1\n      pop\n        /* \"#utility.yul\":14288:14297   */\n      dup2\n        /* \"#utility.yul\":14282:14286   */\n      dup2\n        /* \"#utility.yul\":14278:14298   */\n      sub\n        /* \"#utility.yul\":14274:14275   */\n      0x00\n        /* \"#utility.yul\":14263:14272   */\n      dup4\n        /* \"#utility.yul\":14259:14276   */\n      add\n        /* \"#utility.yul\":14252:14299   */\n      mstore\n        /* \"#utility.yul\":14316:14394   */\n      tag_551\n        /* \"#utility.yul\":14389:14393   */\n      dup2\n        /* \"#utility.yul\":14380:14386   */\n      dup5\n        /* \"#utility.yul\":14316:14394   */\n      tag_429\n      jump\t// in\n    tag_551:\n        /* \"#utility.yul\":14308:14394   */\n      swap1\n      pop\n        /* \"#utility.yul\":14088:14401   */\n      swap3\n      swap2\n      pop\n      pop\n      jump\t// out\n        /* \"#utility.yul\":14407:14826   */\n    tag_332:\n        /* \"#utility.yul\":14573:14577   */\n      0x00\n        /* \"#utility.yul\":14611:14613   */\n      0x20\n        /* \"#utility.yul\":14600:14609   */\n      dup3\n        /* \"#utility.yul\":14596:14614   */\n      add\n        /* \"#utility.yul\":14588:14614   */\n      swap1\n      pop\n        /* \"#utility.yul\":14660:14669   */\n      dup2\n        /* \"#utility.yul\":14654:14658   */\n      dup2\n        /* \"#utility.yul\":14650:14670   */\n      sub\n        /* \"#utility.yul\":14646:14647   */\n      0x00\n        /* \"#utility.yul\":14635:14644   */\n      dup4\n        /* \"#utility.yul\":14631:14648   */\n      add\n        /* \"#utility.yul\":14624:14671   */\n      mstore\n        /* \"#utility.yul\":14688:14819   */\n      tag_553\n        /* \"#utility.yul\":14814:14818   */\n      dup2\n        /* \"#utility.yul\":14688:14819   */\n      tag_445\n      jump\t// in\n    tag_553:\n        /* \"#utility.yul\":14680:14819   */\n      swap1\n      pop\n        /* \"#utility.yul\":14407:14826   */\n      swap2\n      swap1\n      pop\n      jump\t// out\n        /* \"#utility.yul\":14832:15251   */\n    tag_336:\n        /* \"#utility.yul\":14998:15002   */\n      0x00\n        /* \"#utility.yul\":15036:15038   */\n      0x20\n        /* \"#utility.yul\":15025:15034   */\n      dup3\n        /* \"#utility.yul\":15021:15039   */\n      add\n        /* \"#utility.yul\":15013:15039   */\n      swap1\n      pop\n        /* \"#utility.yul\":15085:15094   */\n      dup2\n        /* \"#utility.yul\":15079:15083   */\n      dup2\n        /* \"#utility.yul\":15075:15095   */\n      sub\n        /* \"#utility.yul\":15071:15072   */\n      0x00\n        /* \"#utility.yul\":15060:15069   */\n      dup4\n        /* \"#utility.yul\":15056:15073   */\n      add\n        /* \"#utility.yul\":15049:15096   */\n      mstore\n        /* \"#utility.yul\":15113:15244   */\n      tag_555\n        /* \"#utility.yul\":15239:15243   */\n      dup2\n        /* \"#utility.yul\":15113:15244   */\n      tag_450\n      jump\t// in\n    tag_555:\n        /* \"#utility.yul\":15105:15244   */\n      swap1\n      pop\n        /* \"#utility.yul\":14832:15251   */\n      swap2\n      swap1\n      pop\n      jump\t// out\n        /* \"#utility.yul\":15257:15676   */\n    tag_154:\n        /* \"#utility.yul\":15423:15427   */\n      0x00\n        /* \"#utility.yul\":15461:15463   */\n      0x20\n        /* \"#utility.yul\":15450:15459   */\n      dup3\n        /* \"#utility.yul\":15446:15464   */\n      add\n        /* \"#utility.yul\":15438:15464   */\n      swap1\n      pop\n        /* \"#utility.yul\":15510:15519   */\n      dup2\n        /* \"#utility.yul\":15504:15508   */\n      dup2\n        /* \"#utility.yul\":15500:15520   */\n      sub\n        /* \"#utility.yul\":15496:15497   */\n      0x00\n        /* \"#utility.yul\":15485:15494   */\n      dup4\n        /* \"#utility.yul\":15481:15498   */\n      add\n        /* \"#utility.yul\":15474:15521   */\n      mstore\n        /* \"#utility.yul\":15538:15669   */\n      tag_557\n        /* \"#utility.yul\":15664:15668   */\n      dup2\n        /* \"#utility.yul\":15538:15669   */\n      tag_465\n      jump\t// in\n    tag_557:\n        /* \"#utility.yul\":15530:15669   */\n      swap1\n      pop\n        /* \"#utility.yul\":15257:15676   */\n      swap2\n      swap1\n      pop\n      jump\t// out\n        /* \"#utility.yul\":15682:16101   */\n    tag_102:\n        /* \"#utility.yul\":15848:15852   */\n      0x00\n        /* \"#utility.yul\":15886:15888   */\n      0x20\n        /* \"#utility.yul\":15875:15884   */\n      dup3\n        /* \"#utility.yul\":15871:15889   */\n      add\n        /* \"#utility.yul\":15863:15889   */\n      swap1\n      pop\n        /* \"#utility.yul\":15935:15944   */\n      dup2\n        /* \"#utility.yul\":15929:15933   */\n      dup2\n        /* \"#utility.yul\":15925:15945   */\n      sub\n        /* \"#utility.yul\":15921:15922   */\n      0x00\n        /* \"#utility.yul\":15910:15919   */\n      dup4\n        /* \"#utility.yul\":15906:15923   */\n      add\n        /* \"#utility.yul\":15899:15946   */\n      mstore\n        /* \"#utility.yul\":15963:16094   */\n      tag_559\n        /* \"#utility.yul\":16089:16093   */\n      dup2\n        /* \"#utility.yul\":15963:16094   */\n      tag_470\n      jump\t// in\n    tag_559:\n        /* \"#utility.yul\":15955:16094   */\n      swap1\n      pop\n        /* \"#utility.yul\":15682:16101   */\n      swap2\n      swap1\n      pop\n      jump\t// out\n        /* \"#utility.yul\":16107:16526   */\n    tag_195:\n        /* \"#utility.yul\":16273:16277   */\n      0x00\n        /* \"#utility.yul\":16311:16313   */\n      0x20\n        /* \"#utility.yul\":16300:16309   */\n      dup3\n        /* \"#utility.yul\":16296:16314   */\n      add\n        /* \"#utility.yul\":16288:16314   */\n      swap1\n      pop\n        /* \"#utility.yul\":16360:16369   */\n      dup2\n        /* \"#utility.yul\":16354:16358   */\n      dup2\n        /* \"#utility.yul\":16350:16370   */\n      sub\n        /* \"#utility.yul\":16346:16347   */\n      0x00\n        /* \"#utility.yul\":16335:16344   */\n      dup4\n        /* \"#utility.yul\":16331:16348   */\n      add\n        /* \"#utility.yul\":16324:16371   */\n      mstore\n        /* \"#utility.yul\":16388:16519   */\n      tag_561\n        /* \"#utility.yul\":16514:16518   */\n      dup2\n        /* \"#utility.yul\":16388:16519   */\n      tag_475\n      jump\t// in\n    tag_561:\n        /* \"#utility.yul\":16380:16519   */\n      swap1\n      pop\n        /* \"#utility.yul\":16107:16526   */\n      swap2\n      swap1\n      pop\n      jump\t// out\n        /* \"#utility.yul\":16532:16951   */\n    tag_115:\n        /* \"#utility.yul\":16698:16702   */\n      0x00\n        /* \"#utility.yul\":16736:16738   */\n      0x20\n        /* \"#utility.yul\":16725:16734   */\n      dup3\n        /* \"#utility.yul\":16721:16739   */\n      add\n        /* \"#utility.yul\":16713:16739   */\n      swap1\n      pop\n        /* \"#utility.yul\":16785:16794   */\n      dup2\n        /* \"#utility.yul\":16779:16783   */\n      dup2\n        /* \"#utility.yul\":16775:16795   */\n      sub\n        /* \"#utility.yul\":16771:16772   */\n      0x00\n        /* \"#utility.yul\":16760:16769   */\n      dup4\n        /* \"#utility.yul\":16756:16773   */\n      add\n        /* \"#utility.yul\":16749:16796   */\n      mstore\n        /* \"#utility.yul\":16813:16944   */\n      tag_563\n        /* \"#utility.yul\":16939:16943   */\n      dup2\n        /* \"#utility.yul\":16813:16944   */\n      tag_480\n      jump\t// in\n    tag_563:\n        /* \"#utility.yul\":16805:16944   */\n      swap1\n      pop\n        /* \"#utility.yul\":16532:16951   */\n      swap2\n      swap1\n      pop\n      jump\t// out\n        /* \"#utility.yul\":16957:17376   */\n    tag_83:\n        /* \"#utility.yul\":17123:17127   */\n      0x00\n        /* \"#utility.yul\":17161:17163   */\n      0x20\n        /* \"#utility.yul\":17150:17159   */\n      dup3\n        /* \"#utility.yul\":17146:17164   */\n      add\n        /* \"#utility.yul\":17138:17164   */\n      swap1\n      pop\n        /* \"#utility.yul\":17210:17219   */\n      dup2\n        /* \"#utility.yul\":17204:17208   */\n      dup2\n        /* \"#utility.yul\":17200:17220   */\n      sub\n        /* \"#utility.yul\":17196:17197   */\n      0x00\n        /* \"#utility.yul\":17185:17194   */\n      dup4\n        /* \"#utility.yul\":17181:17198   */\n      add\n        /* \"#utility.yul\":17174:17221   */\n      mstore\n        /* \"#utility.yul\":17238:17369   */\n      tag_565\n        /* \"#utility.yul\":17364:17368   */\n      dup2\n        /* \"#utility.yul\":17238:17369   */\n      tag_485\n      jump\t// in\n    tag_565:\n        /* \"#utility.yul\":17230:17369   */\n      swap1\n      pop\n        /* \"#utility.yul\":16957:17376   */\n      swap2\n      swap1\n      pop\n      jump\t// out\n        /* \"#utility.yul\":17382:17801   */\n    tag_110:\n        /* \"#utility.yul\":17548:17552   */\n      0x00\n        /* \"#utility.yul\":17586:17588   */\n      0x20\n        /* \"#utility.yul\":17575:17584   */\n      dup3\n        /* \"#utility.yul\":17571:17589   */\n      add\n        /* \"#utility.yul\":17563:17589   */\n      swap1\n      pop\n        /* \"#utility.yul\":17635:17644   */\n      dup2\n        /* \"#utility.yul\":17629:17633   */\n      dup2\n        /* \"#utility.yul\":17625:17645   */\n      sub\n        /* \"#utility.yul\":17621:17622   */\n      0x00\n        /* \"#utility.yul\":17610:17619   */\n      dup4\n        /* \"#utility.yul\":17606:17623   */\n      add\n        /* \"#utility.yul\":17599:17646   */\n      mstore\n        /* \"#utility.yul\":17663:17794   */\n      tag_567\n        /* \"#utility.yul\":17789:17793   */\n      dup2\n        /* \"#utility.yul\":17663:17794   */\n      tag_490\n      jump\t// in\n    tag_567:\n        /* \"#utility.yul\":17655:17794   */\n      swap1\n      pop\n        /* \"#utility.yul\":17382:17801   */\n      swap2\n      swap1\n      pop\n      jump\t// out\n        /* \"#utility.yul\":17807:18226   */\n    tag_118:\n        /* \"#utility.yul\":17973:17977   */\n      0x00\n        /* \"#utility.yul\":18011:18013   */\n      0x20\n        /* \"#utility.yul\":18000:18009   */\n      dup3\n        /* \"#utility.yul\":17996:18014   */\n      add\n        /* \"#utility.yul\":17988:18014   */\n      swap1\n      pop\n        /* \"#utility.yul\":18060:18069   */\n      dup2\n        /* \"#utility.yul\":18054:18058   */\n      dup2\n        /* \"#utility.yul\":18050:18070   */\n      sub\n        /* \"#utility.yul\":18046:18047   */\n      0x00\n        /* \"#utility.yul\":18035:18044   */\n      dup4\n        /* \"#utility.yul\":18031:18048   */\n      add\n        /* \"#utility.yul\":18024:18071   */\n      mstore\n        /* \"#utility.yul\":18088:18219   */\n      tag_569\n        /* \"#utility.yul\":18214:18218   */\n      dup2\n        /* \"#utility.yul\":18088:18219   */\n      tag_495\n      jump\t// in\n    tag_569:\n        /* \"#utility.yul\":18080:18219   */\n      swap1\n      pop\n        /* \"#utility.yul\":17807:18226   */\n      swap2\n      swap1\n      pop\n      jump\t// out\n        /* \"#utility.yul\":18232:18651   */\n    tag_92:\n        /* \"#utility.yul\":18398:18402   */\n      0x00\n        /* \"#utility.yul\":18436:18438   */\n      0x20\n        /* \"#utility.yul\":18425:18434   */\n      dup3\n        /* \"#utility.yul\":18421:18439   */\n      add\n        /* \"#utility.yul\":18413:18439   */\n      swap1\n      pop\n        /* \"#utility.yul\":18485:18494   */\n      dup2\n        /* \"#utility.yul\":18479:18483   */\n      dup2\n        /* \"#utility.yul\":18475:18495   */\n      sub\n        /* \"#utility.yul\":18471:18472   */\n      0x00\n        /* \"#utility.yul\":18460:18469   */\n      dup4\n        /* \"#utility.yul\":18456:18473   */\n      add\n        /* \"#utility.yul\":18449:18496   */\n      mstore\n        /* \"#utility.yul\":18513:18644   */\n      tag_571\n        /* \"#utility.yul\":18639:18643   */\n      dup2\n        /* \"#utility.yul\":18513:18644   */\n      tag_505\n      jump\t// in\n    tag_571:\n        /* \"#utility.yul\":18505:18644   */\n      swap1\n      pop\n        /* \"#utility.yul\":18232:18651   */\n      swap2\n      swap1\n      pop\n      jump\t// out\n        /* \"#utility.yul\":18657:19076   */\n    tag_263:\n        /* \"#utility.yul\":18823:18827   */\n      0x00\n        /* \"#utility.yul\":18861:18863   */\n      0x20\n        /* \"#utility.yul\":18850:18859   */\n      dup3\n        /* \"#utility.yul\":18846:18864   */\n      add\n        /* \"#utility.yul\":18838:18864   */\n      swap1\n      pop\n        /* \"#utility.yul\":18910:18919   */\n      dup2\n        /* \"#utility.yul\":18904:18908   */\n      dup2\n        /* \"#utility.yul\":18900:18920   */\n      sub\n        /* \"#utility.yul\":18896:18897   */\n      0x00\n        /* \"#utility.yul\":18885:18894   */\n      dup4\n        /* \"#utility.yul\":18881:18898   */\n      add\n        /* \"#utility.yul\":18874:18921   */\n      mstore\n        /* \"#utility.yul\":18938:19069   */\n      tag_573\n        /* \"#utility.yul\":19064:19068   */\n      dup2\n        /* \"#utility.yul\":18938:19069   */\n      tag_510\n      jump\t// in\n    tag_573:\n        /* \"#utility.yul\":18930:19069   */\n      swap1\n      pop\n        /* \"#utility.yul\":18657:19076   */\n      swap2\n      swap1\n      pop\n      jump\t// out\n        /* \"#utility.yul\":19082:19304   */\n    tag_21:\n        /* \"#utility.yul\":19175:19179   */\n      0x00\n        /* \"#utility.yul\":19213:19215   */\n      0x20\n        /* \"#utility.yul\":19202:19211   */\n      dup3\n        /* \"#utility.yul\":19198:19216   */\n      add\n        /* \"#utility.yul\":19190:19216   */\n      swap1\n      pop\n        /* \"#utility.yul\":19226:19297   */\n      tag_575\n        /* \"#utility.yul\":19294:19295   */\n      0x00\n        /* \"#utility.yul\":19283:19292   */\n      dup4\n        /* \"#utility.yul\":19279:19296   */\n      add\n        /* \"#utility.yul\":19270:19276   */\n      dup5\n        /* \"#utility.yul\":19226:19297   */\n      tag_518\n      jump\t// in\n    tag_575:\n        /* \"#utility.yul\":19082:19304   */\n      swap3\n      swap2\n      pop\n      pop\n      jump\t// out\n        /* \"#utility.yul\":19310:19733   */\n    tag_40:\n        /* \"#utility.yul\":19451:19455   */\n      0x00\n        /* \"#utility.yul\":19489:19491   */\n      0x40\n        /* \"#utility.yul\":19478:19487   */\n      dup3\n        /* \"#utility.yul\":19474:19492   */\n      add\n        /* \"#utility.yul\":19466:19492   */\n      swap1\n      pop\n        /* \"#utility.yul\":19502:19573   */\n      tag_577\n        /* \"#utility.yul\":19570:19571   */\n      0x00\n        /* \"#utility.yul\":19559:19568   */\n      dup4\n        /* \"#utility.yul\":19555:19572   */\n      add\n        /* \"#utility.yul\":19546:19552   */\n      dup6\n        /* \"#utility.yul\":19502:19573   */\n      tag_518\n      jump\t// in\n    tag_577:\n        /* \"#utility.yul\":19620:19629   */\n      dup2\n        /* \"#utility.yul\":19614:19618   */\n      dup2\n        /* \"#utility.yul\":19610:19630   */\n      sub\n        /* \"#utility.yul\":19605:19607   */\n      0x20\n        /* \"#utility.yul\":19594:19603   */\n      dup4\n        /* \"#utility.yul\":19590:19608   */\n      add\n        /* \"#utility.yul\":19583:19631   */\n      mstore\n        /* \"#utility.yul\":19648:19726   */\n      tag_578\n        /* \"#utility.yul\":19721:19725   */\n      dup2\n        /* \"#utility.yul\":19712:19718   */\n      dup5\n        /* \"#utility.yul\":19648:19726   */\n      tag_429\n      jump\t// in\n    tag_578:\n        /* \"#utility.yul\":19640:19726   */\n      swap1\n      pop\n        /* \"#utility.yul\":19310:19733   */\n      swap4\n      swap3\n      pop\n      pop\n      pop\n      jump\t// out\n        /* \"#utility.yul\":19739:20071   */\n    tag_273:\n        /* \"#utility.yul\":19860:19864   */\n      0x00\n        /* \"#utility.yul\":19898:19900   */\n      0x40\n        /* \"#utility.yul\":19887:19896   */\n      dup3\n        /* \"#utility.yul\":19883:19901   */\n      add\n        /* \"#utility.yul\":19875:19901   */\n      swap1\n      pop\n        /* \"#utility.yul\":19911:19982   */\n      tag_580\n        /* \"#utility.yul\":19979:19980   */\n      0x00\n        /* \"#utility.yul\":19968:19977   */\n      dup4\n        /* \"#utility.yul\":19964:19981   */\n      add\n        /* \"#utility.yul\":19955:19961   */\n      dup6\n        /* \"#utility.yul\":19911:19982   */\n      tag_518\n      jump\t// in\n    tag_580:\n        /* \"#utility.yul\":19992:20064   */\n      tag_581\n        /* \"#utility.yul\":20060:20062   */\n      0x20\n        /* \"#utility.yul\":20049:20058   */\n      dup4\n        /* \"#utility.yul\":20045:20063   */\n      add\n        /* \"#utility.yul\":20036:20042   */\n      dup5\n        /* \"#utility.yul\":19992:20064   */\n      tag_518\n      jump\t// in\n    tag_581:\n        /* \"#utility.yul\":19739:20071   */\n      swap4\n      swap3\n      pop\n      pop\n      pop\n      jump\t// out\n        /* \"#utility.yul\":20077:20519   */\n    tag_54:\n        /* \"#utility.yul\":20226:20230   */\n      0x00\n        /* \"#utility.yul\":20264:20266   */\n      0x60\n        /* \"#utility.yul\":20253:20262   */\n      dup3\n        /* \"#utility.yul\":20249:20267   */\n      add\n        /* \"#utility.yul\":20241:20267   */\n      swap1\n      pop\n        /* \"#utility.yul\":20277:20348   */\n      tag_583\n        /* \"#utility.yul\":20345:20346   */\n      0x00\n        /* \"#utility.yul\":20334:20343   */\n      dup4\n        /* \"#utility.yul\":20330:20347   */\n      add\n        /* \"#utility.yul\":20321:20327   */\n      dup7\n        /* \"#utility.yul\":20277:20348   */\n      tag_518\n      jump\t// in\n    tag_583:\n        /* \"#utility.yul\":20358:20430   */\n      tag_584\n        /* \"#utility.yul\":20426:20428   */\n      0x20\n        /* \"#utility.yul\":20415:20424   */\n      dup4\n        /* \"#utility.yul\":20411:20429   */\n      add\n        /* \"#utility.yul\":20402:20408   */\n      dup6\n        /* \"#utility.yul\":20358:20430   */\n      tag_518\n      jump\t// in\n    tag_584:\n        /* \"#utility.yul\":20440:20512   */\n      tag_585\n        /* \"#utility.yul\":20508:20510   */\n      0x40\n        /* \"#utility.yul\":20497:20506   */\n      dup4\n        /* \"#utility.yul\":20493:20511   */\n      add\n        /* \"#utility.yul\":20484:20490   */\n      dup5\n        /* \"#utility.yul\":20440:20512   */\n      tag_518\n      jump\t// in\n    tag_585:\n        /* \"#utility.yul\":20077:20519   */\n      swap5\n      swap4\n      pop\n      pop\n      pop\n      pop\n      jump\t// out\n        /* \"#utility.yul\":20525:20600   */\n    tag_586:\n        /* \"#utility.yul\":20558:20564   */\n      0x00\n        /* \"#utility.yul\":20591:20593   */\n      0x40\n        /* \"#utility.yul\":20585:20594   */\n      mload\n        /* \"#utility.yul\":20575:20594   */\n      swap1\n      pop\n        /* \"#utility.yul\":20525:20600   */\n      swap1\n      jump\t// out\n        /* \"#utility.yul\":20606:20738   */\n    tag_418:\n        /* \"#utility.yul\":20673:20677   */\n      0x00\n        /* \"#utility.yul\":20696:20699   */\n      dup2\n        /* \"#utility.yul\":20688:20699   */\n      swap1\n      pop\n        /* \"#utility.yul\":20726:20730   */\n      0x20\n        /* \"#utility.yul\":20721:20724   */\n      dup3\n        /* \"#utility.yul\":20717:20731   */\n      add\n        /* \"#utility.yul\":20709:20731   */\n      swap1\n      pop\n        /* \"#utility.yul\":20606:20738   */\n      swap2\n      swap1\n      pop\n      jump\t// out\n        /* \"#utility.yul\":20744:20858   */\n    tag_414:\n        /* \"#utility.yul\":20811:20817   */\n      0x00\n        /* \"#utility.yul\":20845:20850   */\n      dup2\n        /* \"#utility.yul\":20839:20851   */\n      mload\n        /* \"#utility.yul\":20829:20851   */\n      swap1\n      pop\n        /* \"#utility.yul\":20744:20858   */\n      swap2\n      swap1\n      pop\n      jump\t// out\n        /* \"#utility.yul\":20864:20963   */\n    tag_432:\n        /* \"#utility.yul\":20916:20922   */\n      0x00\n        /* \"#utility.yul\":20950:20955   */\n      dup2\n        /* \"#utility.yul\":20944:20956   */\n      mload\n        /* \"#utility.yul\":20934:20956   */\n      swap1\n      pop\n        /* \"#utility.yul\":20864:20963   */\n      swap2\n      swap1\n      pop\n      jump\t// out\n        /* \"#utility.yul\":20969:21082   */\n    tag_424:\n        /* \"#utility.yul\":21039:21043   */\n      0x00\n        /* \"#utility.yul\":21071:21075   */\n      0x20\n        /* \"#utility.yul\":21066:21069   */\n      dup3\n        /* \"#utility.yul\":21062:21076   */\n      add\n        /* \"#utility.yul\":21054:21076   */\n      swap1\n      pop\n        /* \"#utility.yul\":20969:21082   */\n      swap2\n      swap1\n      pop\n      jump\t// out\n        /* \"#utility.yul\":21088:21272   */\n    tag_416:\n        /* \"#utility.yul\":21187:21198   */\n      0x00\n        /* \"#utility.yul\":21221:21227   */\n      dup3\n        /* \"#utility.yul\":21216:21219   */\n      dup3\n        /* \"#utility.yul\":21209:21228   */\n      mstore\n        /* \"#utility.yul\":21261:21265   */\n      0x20\n        /* \"#utility.yul\":21256:21259   */\n      dup3\n        /* \"#utility.yul\":21252:21266   */\n      add\n        /* \"#utility.yul\":21237:21266   */\n      swap1\n      pop\n        /* \"#utility.yul\":21088:21272   */\n      swap3\n      swap2\n      pop\n      pop\n      jump\t// out\n        /* \"#utility.yul\":21278:21447   */\n    tag_434:\n        /* \"#utility.yul\":21362:21373   */\n      0x00\n        /* \"#utility.yul\":21396:21402   */\n      dup3\n        /* \"#utility.yul\":21391:21394   */\n      dup3\n        /* \"#utility.yul\":21384:21403   */\n      mstore\n        /* \"#utility.yul\":21436:21440   */\n      0x20\n        /* \"#utility.yul\":21431:21434   */\n      dup3\n        /* \"#utility.yul\":21427:21441   */\n      add\n        /* \"#utility.yul\":21412:21441   */\n      swap1\n      pop\n        /* \"#utility.yul\":21278:21447   */\n      swap3\n      swap2\n      pop\n      pop\n      jump\t// out\n        /* \"#utility.yul\":21453:21601   */\n    tag_443:\n        /* \"#utility.yul\":21555:21566   */\n      0x00\n        /* \"#utility.yul\":21592:21595   */\n      dup2\n        /* \"#utility.yul\":21577:21595   */\n      swap1\n      pop\n        /* \"#utility.yul\":21453:21601   */\n      swap3\n      swap2\n      pop\n      pop\n      jump\t// out\n        /* \"#utility.yul\":21607:21912   */\n    tag_271:\n        /* \"#utility.yul\":21647:21650   */\n      0x00\n        /* \"#utility.yul\":21666:21686   */\n      tag_596\n        /* \"#utility.yul\":21684:21685   */\n      dup3\n        /* \"#utility.yul\":21666:21686   */\n      tag_517\n      jump\t// in\n    tag_596:\n        /* \"#utility.yul\":21661:21686   */\n      swap2\n      pop\n        /* \"#utility.yul\":21700:21720   */\n      tag_597\n        /* \"#utility.yul\":21718:21719   */\n      dup4\n        /* \"#utility.yul\":21700:21720   */\n      tag_517\n      jump\t// in\n    tag_597:\n        /* \"#utility.yul\":21695:21720   */\n      swap3\n      pop\n        /* \"#utility.yul\":21854:21855   */\n      dup3\n        /* \"#utility.yul\":21786:21852   */\n      0xffffffffffffffffffffffffffffffffffffffffffffffffffffffffffffffff\n        /* \"#utility.yul\":21782:21856   */\n      sub\n        /* \"#utility.yul\":21779:21780   */\n      dup3\n        /* \"#utility.yul\":21776:21857   */\n      gt\n        /* \"#utility.yul\":21773:21880   */\n      iszero\n      tag_598\n      jumpi\n        /* \"#utility.yul\":21860:21878   */\n      tag_599\n      tag_600\n      jump\t// in\n    tag_599:\n        /* \"#utility.yul\":21773:21880   */\n    tag_598:\n        /* \"#utility.yul\":21904:21905   */\n      dup3\n        /* \"#utility.yul\":21901:21902   */\n      dup3\n        /* \"#utility.yul\":21897:21906   */\n      add\n        /* \"#utility.yul\":21890:21906   */\n      swap1\n      pop\n        /* \"#utility.yul\":21607:21912   */\n      swap3\n      swap2\n      pop\n      pop\n      jump\t// out\n        /* \"#utility.yul\":21918:22103   */\n    tag_289:\n        /* \"#utility.yul\":21958:21959   */\n      0x00\n        /* \"#utility.yul\":21975:21995   */\n      tag_602\n        /* \"#utility.yul\":21993:21994   */\n      dup3\n        /* \"#utility.yul\":21975:21995   */\n      tag_517\n      jump\t// in\n    tag_602:\n        /* \"#utility.yul\":21970:21995   */\n      swap2\n      pop\n        /* \"#utility.yul\":22009:22029   */\n      tag_603\n        /* \"#utility.yul\":22027:22028   */\n      dup4\n        /* \"#utility.yul\":22009:22029   */\n      tag_517\n      jump\t// in\n    tag_603:\n        /* \"#utility.yul\":22004:22029   */\n      swap3\n      pop\n        /* \"#utility.yul\":22048:22049   */\n      dup3\n        /* \"#utility.yul\":22038:22073   */\n      tag_604\n      jumpi\n        /* \"#utility.yul\":22053:22071   */\n      tag_605\n      tag_606\n      jump\t// in\n    tag_605:\n        /* \"#utility.yul\":22038:22073   */\n    tag_604:\n        /* \"#utility.yul\":22095:22096   */\n      dup3\n        /* \"#utility.yul\":22092:22093   */\n      dup3\n        /* \"#utility.yul\":22088:22097   */\n      div\n        /* \"#utility.yul\":22083:22097   */\n      swap1\n      pop\n        /* \"#utility.yul\":21918:22103   */\n      swap3\n      swap2\n      pop\n      pop\n      jump\t// out\n        /* \"#utility.yul\":22109:22300   */\n    tag_297:\n        /* \"#utility.yul\":22149:22153   */\n      0x00\n        /* \"#utility.yul\":22169:22189   */\n      tag_608\n        /* \"#utility.yul\":22187:22188   */\n      dup3\n        /* \"#utility.yul\":22169:22189   */\n      tag_517\n      jump\t// in\n    tag_608:\n        /* \"#utility.yul\":22164:22189   */\n      swap2\n      pop\n        /* \"#utility.yul\":22203:22223   */\n      tag_609\n        /* \"#utility.yul\":22221:22222   */\n      dup4\n        /* \"#utility.yul\":22203:22223   */\n      tag_517\n      jump\t// in\n    tag_609:\n        /* \"#utility.yul\":22198:22223   */\n      swap3\n      pop\n        /* \"#utility.yul\":22242:22243   */\n      dup3\n        /* \"#utility.yul\":22239:22240   */\n      dup3\n        /* \"#utility.yul\":22236:22244   */\n      lt\n        /* \"#utility.yul\":22233:22267   */\n      iszero\n      tag_610\n      jumpi\n        /* \"#utility.yul\":22247:22265   */\n      tag_611\n      tag_600\n      jump\t// in\n    tag_611:\n        /* \"#utility.yul\":22233:22267   */\n    tag_610:\n        /* \"#utility.yul\":22292:22293   */\n      dup3\n        /* \"#utility.yul\":22289:22290   */\n      dup3\n        /* \"#utility.yul\":22285:22294   */\n      sub\n        /* \"#utility.yul\":22277:22294   */\n      swap1\n      pop\n        /* \"#utility.yul\":22109:22300   */\n      swap3\n      swap2\n      pop\n      pop\n      jump\t// out\n        /* \"#utility.yul\":22306:22402   */\n    tag_405:\n        /* \"#utility.yul\":22343:22350   */\n      0x00\n        /* \"#utility.yul\":22372:22396   */\n      tag_613\n        /* \"#utility.yul\":22390:22395   */\n      dup3\n        /* \"#utility.yul\":22372:22396   */\n      tag_614\n      jump\t// in\n    tag_613:\n        /* \"#utility.yul\":22361:22396   */\n      swap1\n      pop\n        /* \"#utility.yul\":22306:22402   */\n      swap2\n      swap1\n      pop\n      jump\t// out\n        /* \"#utility.yul\":22408:22512   */\n    tag_401:\n        /* \"#utility.yul\":22453:22460   */\n      0x00\n        /* \"#utility.yul\":22482:22506   */\n      tag_616\n        /* \"#utility.yul\":22500:22505   */\n      dup3\n        /* \"#utility.yul\":22482:22506   */\n      tag_614\n      jump\t// in\n    tag_616:\n        /* \"#utility.yul\":22471:22506   */\n      swap1\n      pop\n        /* \"#utility.yul\":22408:22512   */\n      swap2\n      swap1\n      pop\n      jump\t// out\n        /* \"#utility.yul\":22518:22608   */\n    tag_428:\n        /* \"#utility.yul\":22552:22559   */\n      0x00\n        /* \"#utility.yul\":22595:22600   */\n      dup2\n        /* \"#utility.yul\":22588:22601   */\n      iszero\n        /* \"#utility.yul\":22581:22602   */\n      iszero\n        /* \"#utility.yul\":22570:22602   */\n      swap1\n      pop\n        /* \"#utility.yul\":22518:22608   */\n      swap2\n      swap1\n      pop\n      jump\t// out\n        /* \"#utility.yul\":22614:22763   */\n    tag_618:\n        /* \"#utility.yul\":22650:22657   */\n      0x00\n        /* \"#utility.yul\":22690:22756   */\n      0xffffffff00000000000000000000000000000000000000000000000000000000\n        /* \"#utility.yul\":22683:22688   */\n      dup3\n        /* \"#utility.yul\":22679:22757   */\n      and\n        /* \"#utility.yul\":22668:22757   */\n      swap1\n      pop\n        /* \"#utility.yul\":22614:22763   */\n      swap2\n      swap1\n      pop\n      jump\t// out\n        /* \"#utility.yul\":22769:22895   */\n    tag_614:\n        /* \"#utility.yul\":22806:22813   */\n      0x00\n        /* \"#utility.yul\":22846:22888   */\n      0xffffffffffffffffffffffffffffffffffffffff\n        /* \"#utility.yul\":22839:22844   */\n      dup3\n        /* \"#utility.yul\":22835:22889   */\n      and\n        /* \"#utility.yul\":22824:22889   */\n      swap1\n      pop\n        /* \"#utility.yul\":22769:22895   */\n      swap2\n      swap1\n      pop\n      jump\t// out\n        /* \"#utility.yul\":22901:22978   */\n    tag_517:\n        /* \"#utility.yul\":22938:22945   */\n      0x00\n        /* \"#utility.yul\":22967:22972   */\n      dup2\n        /* \"#utility.yul\":22956:22972   */\n      swap1\n      pop\n        /* \"#utility.yul\":22901:22978   */\n      swap2\n      swap1\n      pop\n      jump\t// out\n        /* \"#utility.yul\":22984:23291   */\n    tag_436:\n        /* \"#utility.yul\":23052:23053   */\n      0x00\n        /* \"#utility.yul\":23062:23175   */\n    tag_623:\n        /* \"#utility.yul\":23076:23082   */\n      dup4\n        /* \"#utility.yul\":23073:23074   */\n      dup2\n        /* \"#utility.yul\":23070:23083   */\n      lt\n        /* \"#utility.yul\":23062:23175   */\n      iszero\n      tag_625\n      jumpi\n        /* \"#utility.yul\":23161:23162   */\n      dup1\n        /* \"#utility.yul\":23156:23159   */\n      dup3\n        /* \"#utility.yul\":23152:23163   */\n      add\n        /* \"#utility.yul\":23146:23164   */\n      mload\n        /* \"#utility.yul\":23142:23143   */\n      dup2\n        /* \"#utility.yul\":23137:23140   */\n      dup5\n        /* \"#utility.yul\":23133:23144   */\n      add\n        /* \"#utility.yul\":23126:23165   */\n      mstore\n        /* \"#utility.yul\":23098:23100   */\n      0x20\n        /* \"#utility.yul\":23095:23096   */\n      dup2\n        /* \"#utility.yul\":23091:23101   */\n      add\n        /* \"#utility.yul\":23086:23101   */\n      swap1\n      pop\n        /* \"#utility.yul\":23062:23175   */\n      jump(tag_623)\n    tag_625:\n        /* \"#utility.yul\":23193:23199   */\n      dup4\n        /* \"#utility.yul\":23190:23191   */\n      dup2\n        /* \"#utility.yul\":23187:23200   */\n      gt\n        /* \"#utility.yul\":23184:23285   */\n      iszero\n      tag_626\n      jumpi\n        /* \"#utility.yul\":23273:23274   */\n      0x00\n        /* \"#utility.yul\":23264:23270   */\n      dup5\n        /* \"#utility.yul\":23259:23262   */\n      dup5\n        /* \"#utility.yul\":23255:23271   */\n      add\n        /* \"#utility.yul\":23248:23275   */\n      mstore\n        /* \"#utility.yul\":23184:23285   */\n    tag_626:\n        /* \"#utility.yul\":23033:23291   */\n      pop\n        /* \"#utility.yul\":22984:23291   */\n      pop\n      pop\n      pop\n      jump\t// out\n        /* \"#utility.yul\":23297:23617   */\n    tag_126:\n        /* \"#utility.yul\":23341:23347   */\n      0x00\n        /* \"#utility.yul\":23378:23379   */\n      0x02\n        /* \"#utility.yul\":23372:23376   */\n      dup3\n        /* \"#utility.yul\":23368:23380   */\n      div\n        /* \"#utility.yul\":23358:23380   */\n      swap1\n      pop\n        /* \"#utility.yul\":23425:23426   */\n      0x01\n        /* \"#utility.yul\":23419:23423   */\n      dup3\n        /* \"#utility.yul\":23415:23427   */\n      and\n        /* \"#utility.yul\":23446:23464   */\n      dup1\n        /* \"#utility.yul\":23436:23517   */\n      tag_628\n      jumpi\n        /* \"#utility.yul\":23502:23506   */\n      0x7f\n        /* \"#utility.yul\":23494:23500   */\n      dup3\n        /* \"#utility.yul\":23490:23507   */\n      and\n        /* \"#utility.yul\":23480:23507   */\n      swap2\n      pop\n        /* \"#utility.yul\":23436:23517   */\n    tag_628:\n        /* \"#utility.yul\":23564:23566   */\n      0x20\n        /* \"#utility.yul\":23556:23562   */\n      dup3\n        /* \"#utility.yul\":23553:23567   */\n      lt\n        /* \"#utility.yul\":23533:23551   */\n      dup2\n        /* \"#utility.yul\":23530:23568   */\n      eq\n        /* \"#utility.yul\":23527:23611   */\n      iszero\n      tag_629\n      jumpi\n        /* \"#utility.yul\":23583:23601   */\n      tag_630\n      tag_631\n      jump\t// in\n    tag_630:\n        /* \"#utility.yul\":23527:23611   */\n    tag_629:\n        /* \"#utility.yul\":23348:23617   */\n      pop\n        /* \"#utility.yul\":23297:23617   */\n      swap2\n      swap1\n      pop\n      jump\t// out\n        /* \"#utility.yul\":23623:23904   */\n    tag_632:\n        /* \"#utility.yul\":23706:23733   */\n      tag_634\n        /* \"#utility.yul\":23728:23732   */\n      dup3\n        /* \"#utility.yul\":23706:23733   */\n      tag_438\n      jump\t// in\n    tag_634:\n        /* \"#utility.yul\":23698:23704   */\n      dup2\n        /* \"#utility.yul\":23694:23734   */\n      add\n        /* \"#utility.yul\":23836:23842   */\n      dup2\n        /* \"#utility.yul\":23824:23834   */\n      dup2\n        /* \"#utility.yul\":23821:23843   */\n      lt\n        /* \"#utility.yul\":23800:23818   */\n      0xffffffffffffffff\n        /* \"#utility.yul\":23788:23798   */\n      dup3\n        /* \"#utility.yul\":23785:23819   */\n      gt\n        /* \"#utility.yul\":23782:23844   */\n      or\n        /* \"#utility.yul\":23779:23867   */\n      iszero\n      tag_635\n      jumpi\n        /* \"#utility.yul\":23847:23865   */\n      tag_636\n      tag_292\n      jump\t// in\n    tag_636:\n        /* \"#utility.yul\":23779:23867   */\n    tag_635:\n        /* \"#utility.yul\":23887:23897   */\n      dup1\n        /* \"#utility.yul\":23883:23885   */\n      0x40\n        /* \"#utility.yul\":23876:23898   */\n      mstore\n        /* \"#utility.yul\":23666:23904   */\n      pop\n        /* \"#utility.yul\":23623:23904   */\n      pop\n      pop\n      jump\t// out\n        /* \"#utility.yul\":23910:24143   */\n    tag_133:\n        /* \"#utility.yul\":23949:23952   */\n      0x00\n        /* \"#utility.yul\":23972:23996   */\n      tag_638\n        /* \"#utility.yul\":23990:23995   */\n      dup3\n        /* \"#utility.yul\":23972:23996   */\n      tag_517\n      jump\t// in\n    tag_638:\n        /* \"#utility.yul\":23963:23996   */\n      swap2\n      pop\n        /* \"#utility.yul\":24018:24084   */\n      0xffffffffffffffffffffffffffffffffffffffffffffffffffffffffffffffff\n        /* \"#utility.yul\":24011:24016   */\n      dup3\n        /* \"#utility.yul\":24008:24085   */\n      eq\n        /* \"#utility.yul\":24005:24108   */\n      iszero\n      tag_639\n      jumpi\n        /* \"#utility.yul\":24088:24106   */\n      tag_640\n      tag_600\n      jump\t// in\n    tag_640:\n        /* \"#utility.yul\":24005:24108   */\n    tag_639:\n        /* \"#utility.yul\":24135:24136   */\n      0x01\n        /* \"#utility.yul\":24128:24133   */\n      dup3\n        /* \"#utility.yul\":24124:24137   */\n      add\n        /* \"#utility.yul\":24117:24137   */\n      swap1\n      pop\n        /* \"#utility.yul\":23910:24143   */\n      swap2\n      swap1\n      pop\n      jump\t// out\n        /* \"#utility.yul\":24149:24249   */\n    tag_410:\n        /* \"#utility.yul\":24188:24195   */\n      0x00\n        /* \"#utility.yul\":24217:24243   */\n      tag_642\n        /* \"#utility.yul\":24237:24242   */\n      dup3\n        /* \"#utility.yul\":24217:24243   */\n      tag_643\n      jump\t// in\n    tag_642:\n        /* \"#utility.yul\":24206:24243   */\n      swap1\n      pop\n        /* \"#utility.yul\":24149:24249   */\n      swap2\n      swap1\n      pop\n      jump\t// out\n        /* \"#utility.yul\":24255:24349   */\n    tag_643:\n        /* \"#utility.yul\":24294:24301   */\n      0x00\n        /* \"#utility.yul\":24323:24343   */\n      tag_645\n        /* \"#utility.yul\":24337:24342   */\n      dup3\n        /* \"#utility.yul\":24323:24343   */\n      tag_646\n      jump\t// in\n    tag_645:\n        /* \"#utility.yul\":24312:24343   */\n      swap1\n      pop\n        /* \"#utility.yul\":24255:24349   */\n      swap2\n      swap1\n      pop\n      jump\t// out\n        /* \"#utility.yul\":24355:24434   */\n    tag_525:\n        /* \"#utility.yul\":24394:24401   */\n      0x00\n        /* \"#utility.yul\":24423:24428   */\n      dup2\n        /* \"#utility.yul\":24412:24428   */\n      swap1\n      pop\n        /* \"#utility.yul\":24355:24434   */\n      swap2\n      swap1\n      pop\n      jump\t// out\n        /* \"#utility.yul\":24440:24616   */\n    tag_282:\n        /* \"#utility.yul\":24472:24473   */\n      0x00\n        /* \"#utility.yul\":24489:24509   */\n      tag_649\n        /* \"#utility.yul\":24507:24508   */\n      dup3\n        /* \"#utility.yul\":24489:24509   */\n      tag_517\n      jump\t// in\n    tag_649:\n        /* \"#utility.yul\":24484:24509   */\n      swap2\n      pop\n        /* \"#utility.yul\":24523:24543   */\n      tag_650\n        /* \"#utility.yul\":24541:24542   */\n      dup4\n        /* \"#utility.yul\":24523:24543   */\n      tag_517\n      jump\t// in\n    tag_650:\n        /* \"#utility.yul\":24518:24543   */\n      swap3\n      pop\n        /* \"#utility.yul\":24562:24563   */\n      dup3\n        /* \"#utility.yul\":24552:24587   */\n      tag_651\n      jumpi\n        /* \"#utility.yul\":24567:24585   */\n      tag_652\n      tag_606\n      jump\t// in\n    tag_652:\n        /* \"#utility.yul\":24552:24587   */\n    tag_651:\n        /* \"#utility.yul\":24608:24609   */\n      dup3\n        /* \"#utility.yul\":24605:24606   */\n      dup3\n        /* \"#utility.yul\":24601:24610   */\n      mod\n        /* \"#utility.yul\":24596:24610   */\n      swap1\n      pop\n        /* \"#utility.yul\":24440:24616   */\n      swap3\n      swap2\n      pop\n      pop\n      jump\t// out\n        /* \"#utility.yul\":24622:24802   */\n    tag_600:\n        /* \"#utility.yul\":24670:24747   */\n      0x4e487b7100000000000000000000000000000000000000000000000000000000\n        /* \"#utility.yul\":24667:24668   */\n      0x00\n        /* \"#utility.yul\":24660:24748   */\n      mstore\n        /* \"#utility.yul\":24767:24771   */\n      0x11\n        /* \"#utility.yul\":24764:24765   */\n      0x04\n        /* \"#utility.yul\":24757:24772   */\n      mstore\n        /* \"#utility.yul\":24791:24795   */\n      0x24\n        /* \"#utility.yul\":24788:24789   */\n      0x00\n        /* \"#utility.yul\":24781:24796   */\n      revert\n        /* \"#utility.yul\":24808:24988   */\n    tag_606:\n        /* \"#utility.yul\":24856:24933   */\n      0x4e487b7100000000000000000000000000000000000000000000000000000000\n        /* \"#utility.yul\":24853:24854   */\n      0x00\n        /* \"#utility.yul\":24846:24934   */\n      mstore\n        /* \"#utility.yul\":24953:24957   */\n      0x12\n        /* \"#utility.yul\":24950:24951   */\n      0x04\n        /* \"#utility.yul\":24943:24958   */\n      mstore\n        /* \"#utility.yul\":24977:24981   */\n      0x24\n        /* \"#utility.yul\":24974:24975   */\n      0x00\n        /* \"#utility.yul\":24967:24982   */\n      revert\n        /* \"#utility.yul\":24994:25174   */\n    tag_631:\n        /* \"#utility.yul\":25042:25119   */\n      0x4e487b7100000000000000000000000000000000000000000000000000000000\n        /* \"#utility.yul\":25039:25040   */\n      0x00\n        /* \"#utility.yul\":25032:25120   */\n      mstore\n        /* \"#utility.yul\":25139:25143   */\n      0x22\n        /* \"#utility.yul\":25136:25137   */\n      0x04\n        /* \"#utility.yul\":25129:25144   */\n      mstore\n        /* \"#utility.yul\":25163:25167   */\n      0x24\n        /* \"#utility.yul\":25160:25161   */\n      0x00\n        /* \"#utility.yul\":25153:25168   */\n      revert\n        /* \"#utility.yul\":25180:25360   */\n    tag_219:\n        /* \"#utility.yul\":25228:25305   */\n      0x4e487b7100000000000000000000000000000000000000000000000000000000\n        /* \"#utility.yul\":25225:25226   */\n      0x00\n        /* \"#utility.yul\":25218:25306   */\n      mstore\n        /* \"#utility.yul\":25325:25329   */\n      0x32\n        /* \"#utility.yul\":25322:25323   */\n      0x04\n        /* \"#utility.yul\":25315:25330   */\n      mstore\n        /* \"#utility.yul\":25349:25353   */\n      0x24\n        /* \"#utility.yul\":25346:25347   */\n      0x00\n        /* \"#utility.yul\":25339:25354   */\n      revert\n        /* \"#utility.yul\":25366:25546   */\n    tag_292:\n        /* \"#utility.yul\":25414:25491   */\n      0x4e487b7100000000000000000000000000000000000000000000000000000000\n        /* \"#utility.yul\":25411:25412   */\n      0x00\n        /* \"#utility.yul\":25404:25492   */\n      mstore\n        /* \"#utility.yul\":25511:25515   */\n      0x41\n        /* \"#utility.yul\":25508:25509   */\n      0x04\n        /* \"#utility.yul\":25501:25516   */\n      mstore\n        /* \"#utility.yul\":25535:25539   */\n      0x24\n        /* \"#utility.yul\":25532:25533   */\n      0x00\n        /* \"#utility.yul\":25525:25540   */\n      revert\n        /* \"#utility.yul\":25552:25735   */\n    tag_325:\n        /* \"#utility.yul\":25587:25590   */\n      0x00\n        /* \"#utility.yul\":25625:25626   */\n      0x03\n        /* \"#utility.yul\":25607:25623   */\n      returndatasize\n        /* \"#utility.yul\":25604:25627   */\n      gt\n        /* \"#utility.yul\":25601:25729   */\n      iszero\n      tag_659\n      jumpi\n        /* \"#utility.yul\":25663:25664   */\n      0x04\n        /* \"#utility.yul\":25660:25661   */\n      0x00\n        /* \"#utility.yul\":25657:25658   */\n      dup1\n        /* \"#utility.yul\":25642:25665   */\n      returndatacopy\n        /* \"#utility.yul\":25685:25719   */\n      tag_660\n        /* \"#utility.yul\":25716:25717   */\n      0x00\n        /* \"#utility.yul\":25710:25718   */\n      mload\n        /* \"#utility.yul\":25685:25719   */\n      tag_661\n      jump\t// in\n    tag_660:\n        /* \"#utility.yul\":25678:25719   */\n      swap1\n      pop\n        /* \"#utility.yul\":25601:25729   */\n    tag_659:\n        /* \"#utility.yul\":25552:25735   */\n      swap1\n      jump\t// out\n        /* \"#utility.yul\":25864:25981   */\n    tag_375:\n        /* \"#utility.yul\":25973:25974   */\n      0x00\n        /* \"#utility.yul\":25970:25971   */\n      dup1\n        /* \"#utility.yul\":25963:25975   */\n      revert\n        /* \"#utility.yul\":25987:26089   */\n    tag_438:\n        /* \"#utility.yul\":26028:26034   */\n      0x00\n        /* \"#utility.yul\":26079:26081   */\n      0x1f\n        /* \"#utility.yul\":26075:26082   */\n      not\n        /* \"#utility.yul\":26070:26072   */\n      0x1f\n        /* \"#utility.yul\":26063:26068   */\n      dup4\n        /* \"#utility.yul\":26059:26073   */\n      add\n        /* \"#utility.yul\":26055:26083   */\n      and\n        /* \"#utility.yul\":26045:26083   */\n      swap1\n      pop\n        /* \"#utility.yul\":25987:26089   */\n      swap2\n      swap1\n      pop\n      jump\t// out\n        /* \"#utility.yul\":26095:26189   */\n    tag_646:\n        /* \"#utility.yul\":26128:26136   */\n      0x00\n        /* \"#utility.yul\":26176:26181   */\n      dup2\n        /* \"#utility.yul\":26172:26174   */\n      0x60\n        /* \"#utility.yul\":26168:26182   */\n      shl\n        /* \"#utility.yul\":26147:26182   */\n      swap1\n      pop\n        /* \"#utility.yul\":26095:26189   */\n      swap2\n      swap1\n      pop\n      jump\t// out\n        /* \"#utility.yul\":26195:26301   */\n    tag_661:\n        /* \"#utility.yul\":26239:26247   */\n      0x00\n        /* \"#utility.yul\":26288:26293   */\n      dup2\n        /* \"#utility.yul\":26283:26286   */\n      0xe0\n        /* \"#utility.yul\":26279:26294   */\n      shr\n        /* \"#utility.yul\":26258:26294   */\n      swap1\n      pop\n        /* \"#utility.yul\":26195:26301   */\n      swap2\n      swap1\n      pop\n      jump\t// out\n        /* \"#utility.yul\":26307:26546   */\n    tag_449:\n        /* \"#utility.yul\":26447:26481   */\n      0x455243313135353a207472616e7366657220746f206e6f6e2045524331313535\n        /* \"#utility.yul\":26443:26444   */\n      0x00\n        /* \"#utility.yul\":26435:26441   */\n      dup3\n        /* \"#utility.yul\":26431:26445   */\n      add\n        /* \"#utility.yul\":26424:26482   */\n      mstore\n        /* \"#utility.yul\":26516:26538   */\n      0x526563656976657220696d706c656d656e746572000000000000000000000000\n        /* \"#utility.yul\":26511:26513   */\n      0x20\n        /* \"#utility.yul\":26503:26509   */\n      dup3\n        /* \"#utility.yul\":26499:26514   */\n      add\n        /* \"#utility.yul\":26492:26539   */\n      mstore\n        /* \"#utility.yul\":26307:26546   */\n      pop\n      jump\t// out\n        /* \"#utility.yul\":26552:26779   */\n    tag_454:\n        /* \"#utility.yul\":26692:26726   */\n      0x455243313135353a204552433131353552656365697665722072656a65637465\n        /* \"#utility.yul\":26688:26689   */\n      0x00\n        /* \"#utility.yul\":26680:26686   */\n      dup3\n        /* \"#utility.yul\":26676:26690   */\n      add\n        /* \"#utility.yul\":26669:26727   */\n      mstore\n        /* \"#utility.yul\":26761:26771   */\n      0x6420746f6b656e73000000000000000000000000000000000000000000000000\n        /* \"#utility.yul\":26756:26758   */\n      0x20\n        /* \"#utility.yul\":26748:26754   */\n      dup3\n        /* \"#utility.yul\":26744:26759   */\n      add\n        /* \"#utility.yul\":26737:26772   */\n      mstore\n        /* \"#utility.yul\":26552:26779   */\n      pop\n      jump\t// out\n        /* \"#utility.yul\":26785:26943   */\n    tag_459:\n        /* \"#utility.yul\":26925:26935   */\n      0x4469616d6f6e645f000000000000000000000000000000000000000000000000\n        /* \"#utility.yul\":26921:26922   */\n      0x00\n        /* \"#utility.yul\":26913:26919   */\n      dup3\n        /* \"#utility.yul\":26909:26923   */\n      add\n        /* \"#utility.yul\":26902:26936   */\n      mstore\n        /* \"#utility.yul\":26785:26943   */\n      pop\n      jump\t// out\n        /* \"#utility.yul\":26949:27104   */\n    tag_464:\n        /* \"#utility.yul\":27089:27096   */\n      0x476f6c645f000000000000000000000000000000000000000000000000000000\n        /* \"#utility.yul\":27085:27086   */\n      0x00\n        /* \"#utility.yul\":27077:27083   */\n      dup3\n        /* \"#utility.yul\":27073:27087   */\n      add\n        /* \"#utility.yul\":27066:27097   */\n      mstore\n        /* \"#utility.yul\":26949:27104   */\n      pop\n      jump\t// out\n        /* \"#utility.yul\":27110:27278   */\n    tag_469:\n        /* \"#utility.yul\":27250:27270   */\n      0x4e6f7420456e6f7567682042616c616e63650000000000000000000000000000\n        /* \"#utility.yul\":27246:27247   */\n      0x00\n        /* \"#utility.yul\":27238:27244   */\n      dup3\n        /* \"#utility.yul\":27234:27248   */\n      add\n        /* \"#utility.yul\":27227:27271   */\n      mstore\n        /* \"#utility.yul\":27110:27278   */\n      pop\n      jump\t// out\n        /* \"#utility.yul\":27284:27461   */\n    tag_474:\n        /* \"#utility.yul\":27424:27453   */\n      0x44726f707369746520697320616c72656164792052756e6e696e670000000000\n        /* \"#utility.yul\":27420:27421   */\n      0x00\n        /* \"#utility.yul\":27412:27418   */\n      dup3\n        /* \"#utility.yul\":27408:27422   */\n      add\n        /* \"#utility.yul\":27401:27454   */\n      mstore\n        /* \"#utility.yul\":27284:27461   */\n      pop\n      jump\t// out\n        /* \"#utility.yul\":27467:27644   */\n    tag_479:\n        /* \"#utility.yul\":27607:27636   */\n      0x44726f707369746520697320616c72656164792053746f707065640000000000\n        /* \"#utility.yul\":27603:27604   */\n      0x00\n        /* \"#utility.yul\":27595:27601   */\n      dup3\n        /* \"#utility.yul\":27591:27605   */\n      add\n        /* \"#utility.yul\":27584:27637   */\n      mstore\n        /* \"#utility.yul\":27467:27644   */\n      pop\n      jump\t// out\n        /* \"#utility.yul\":27650:27821   */\n    tag_484:\n        /* \"#utility.yul\":27790:27813   */\n      0x596f752063616e206d696e7420312d33204e4654730000000000000000000000\n        /* \"#utility.yul\":27786:27787   */\n      0x00\n        /* \"#utility.yul\":27778:27784   */\n      dup3\n        /* \"#utility.yul\":27774:27788   */\n      add\n        /* \"#utility.yul\":27767:27814   */\n      mstore\n        /* \"#utility.yul\":27650:27821   */\n      pop\n      jump\t// out\n        /* \"#utility.yul\":27827:28005   */\n    tag_489:\n        /* \"#utility.yul\":27967:27997   */\n      0x4f6e6c79204e46542d4553204f776e65722063616e2041636365737300000000\n        /* \"#utility.yul\":27963:27964   */\n      0x00\n        /* \"#utility.yul\":27955:27961   */\n      dup3\n        /* \"#utility.yul\":27951:27965   */\n      add\n        /* \"#utility.yul\":27944:27998   */\n      mstore\n        /* \"#utility.yul\":27827:28005   */\n      pop\n      jump\t// out\n        /* \"#utility.yul\":28011:28188   */\n    tag_494:\n        /* \"#utility.yul\":28151:28180   */\n      0x44726f7073697465206973206e6f74204f70656e6564205965742e0000000000\n        /* \"#utility.yul\":28147:28148   */\n      0x00\n        /* \"#utility.yul\":28139:28145   */\n      dup3\n        /* \"#utility.yul\":28135:28149   */\n      add\n        /* \"#utility.yul\":28128:28181   */\n      mstore\n        /* \"#utility.yul\":28011:28188   */\n      pop\n      jump\t// out\n        /* \"#utility.yul\":28194:28369   */\n    tag_499:\n        /* \"#utility.yul\":28334:28361   */\n      0x4d6178204d696e74696e67204c696d6974207265616368656400000000000000\n        /* \"#utility.yul\":28330:28331   */\n      0x00\n        /* \"#utility.yul\":28322:28328   */\n      dup3\n        /* \"#utility.yul\":28318:28332   */\n      add\n        /* \"#utility.yul\":28311:28362   */\n      mstore\n        /* \"#utility.yul\":28194:28369   */\n      pop\n      jump\t// out\n        /* \"#utility.yul\":28375:28532   */\n    tag_504:\n        /* \"#utility.yul\":28515:28524   */\n      0x53696c7665725f00000000000000000000000000000000000000000000000000\n        /* \"#utility.yul\":28511:28512   */\n      0x00\n        /* \"#utility.yul\":28503:28509   */\n      dup3\n        /* \"#utility.yul\":28499:28513   */\n      add\n        /* \"#utility.yul\":28492:28525   */\n      mstore\n        /* \"#utility.yul\":28375:28532   */\n      pop\n      jump\t// out\n        /* \"#utility.yul\":28538:28717   */\n    tag_509:\n        /* \"#utility.yul\":28678:28709   */\n      0x4572726f7221204e6f2042616c616e636520746f207769746864726177000000\n        /* \"#utility.yul\":28674:28675   */\n      0x00\n        /* \"#utility.yul\":28666:28672   */\n      dup3\n        /* \"#utility.yul\":28662:28676   */\n      add\n        /* \"#utility.yul\":28655:28710   */\n      mstore\n        /* \"#utility.yul\":28538:28717   */\n      pop\n      jump\t// out\n        /* \"#utility.yul\":28723:28943   */\n    tag_514:\n        /* \"#utility.yul\":28863:28897   */\n      0x455243313135353a206d696e7420746f20746865207a65726f20616464726573\n        /* \"#utility.yul\":28859:28860   */\n      0x00\n        /* \"#utility.yul\":28851:28857   */\n      dup3\n        /* \"#utility.yul\":28847:28861   */\n      add\n        /* \"#utility.yul\":28840:28898   */\n      mstore\n        /* \"#utility.yul\":28932:28935   */\n      0x7300000000000000000000000000000000000000000000000000000000000000\n        /* \"#utility.yul\":28927:28929   */\n      0x20\n        /* \"#utility.yul\":28919:28925   */\n      dup3\n        /* \"#utility.yul\":28915:28930   */\n      add\n        /* \"#utility.yul\":28908:28936   */\n      mstore\n        /* \"#utility.yul\":28723:28943   */\n      pop\n      jump\t// out\n        /* \"#utility.yul\":28949:29660   */\n    tag_327:\n        /* \"#utility.yul\":28988:28991   */\n      0x00\n        /* \"#utility.yul\":29026:29030   */\n      0x44\n        /* \"#utility.yul\":29008:29024   */\n      returndatasize\n        /* \"#utility.yul\":29005:29031   */\n      lt\n        /* \"#utility.yul\":29002:29041   */\n      iszero\n      tag_683\n      jumpi\n        /* \"#utility.yul\":29034:29039   */\n      jump(tag_682)\n        /* \"#utility.yul\":29002:29041   */\n    tag_683:\n        /* \"#utility.yul\":29063:29083   */\n      tag_684\n      tag_586\n      jump\t// in\n    tag_684:\n        /* \"#utility.yul\":29138:29139   */\n      0x04\n        /* \"#utility.yul\":29120:29136   */\n      returndatasize\n        /* \"#utility.yul\":29116:29140   */\n      sub\n        /* \"#utility.yul\":29113:29114   */\n      0x04\n        /* \"#utility.yul\":29107:29111   */\n      dup3\n        /* \"#utility.yul\":29092:29141   */\n      returndatacopy\n        /* \"#utility.yul\":29171:29175   */\n      dup1\n        /* \"#utility.yul\":29165:29176   */\n      mload\n        /* \"#utility.yul\":29270:29286   */\n      returndatasize\n        /* \"#utility.yul\":29263:29267   */\n      0x24\n        /* \"#utility.yul\":29255:29261   */\n      dup3\n        /* \"#utility.yul\":29251:29268   */\n      add\n        /* \"#utility.yul\":29248:29287   */\n      gt\n        /* \"#utility.yul\":29215:29233   */\n      0xffffffffffffffff\n        /* \"#utility.yul\":29207:29213   */\n      dup3\n        /* \"#utility.yul\":29204:29234   */\n      gt\n        /* \"#utility.yul\":29188:29301   */\n      or\n        /* \"#utility.yul\":29185:29331   */\n      iszero\n      tag_685\n      jumpi\n        /* \"#utility.yul\":29316:29321   */\n      pop\n      pop\n      jump(tag_682)\n        /* \"#utility.yul\":29185:29331   */\n    tag_685:\n        /* \"#utility.yul\":29362:29368   */\n      dup1\n        /* \"#utility.yul\":29356:29360   */\n      dup3\n        /* \"#utility.yul\":29352:29369   */\n      add\n        /* \"#utility.yul\":29398:29401   */\n      dup1\n        /* \"#utility.yul\":29392:29402   */\n      mload\n        /* \"#utility.yul\":29425:29443   */\n      0xffffffffffffffff\n        /* \"#utility.yul\":29417:29423   */\n      dup2\n        /* \"#utility.yul\":29414:29444   */\n      gt\n        /* \"#utility.yul\":29411:29454   */\n      iszero\n      tag_686\n      jumpi\n        /* \"#utility.yul\":29447:29452   */\n      pop\n      pop\n      pop\n      pop\n      jump(tag_682)\n        /* \"#utility.yul\":29411:29454   */\n    tag_686:\n        /* \"#utility.yul\":29495:29501   */\n      dup1\n        /* \"#utility.yul\":29488:29492   */\n      0x20\n        /* \"#utility.yul\":29483:29486   */\n      dup4\n        /* \"#utility.yul\":29479:29493   */\n      add\n        /* \"#utility.yul\":29475:29502   */\n      add\n        /* \"#utility.yul\":29554:29555   */\n      0x04\n        /* \"#utility.yul\":29536:29552   */\n      returndatasize\n        /* \"#utility.yul\":29532:29556   */\n      sub\n        /* \"#utility.yul\":29526:29530   */\n      dup6\n        /* \"#utility.yul\":29522:29557   */\n      add\n        /* \"#utility.yul\":29517:29520   */\n      dup2\n        /* \"#utility.yul\":29514:29558   */\n      gt\n        /* \"#utility.yul\":29511:29568   */\n      iszero\n      tag_687\n      jumpi\n        /* \"#utility.yul\":29561:29566   */\n      pop\n      pop\n      pop\n      pop\n      pop\n      jump(tag_682)\n        /* \"#utility.yul\":29511:29568   */\n    tag_687:\n        /* \"#utility.yul\":29578:29635   */\n      tag_688\n        /* \"#utility.yul\":29626:29632   */\n      dup3\n        /* \"#utility.yul\":29620:29624   */\n      0x20\n        /* \"#utility.yul\":29616:29633   */\n      add\n        /* \"#utility.yul\":29608:29614   */\n      dup6\n        /* \"#utility.yul\":29604:29634   */\n      add\n        /* \"#utility.yul\":29598:29602   */\n      dup7\n        /* \"#utility.yul\":29578:29635   */\n      tag_632\n      jump\t// in\n    tag_688:\n        /* \"#utility.yul\":29651:29654   */\n      dup3\n        /* \"#utility.yul\":29644:29654   */\n      swap6\n      pop\n        /* \"#utility.yul\":28992:29660   */\n      pop\n      pop\n      pop\n      pop\n      pop\n        /* \"#utility.yul\":28949:29660   */\n    tag_682:\n      swap1\n      jump\t// out\n        /* \"#utility.yul\":29666:29788   */\n    tag_359:\n        /* \"#utility.yul\":29739:29763   */\n      tag_690\n        /* \"#utility.yul\":29757:29762   */\n      dup2\n        /* \"#utility.yul\":29739:29763   */\n      tag_405\n      jump\t// in\n    tag_690:\n        /* \"#utility.yul\":29732:29737   */\n      dup2\n        /* \"#utility.yul\":29729:29764   */\n      eq\n        /* \"#utility.yul\":29719:29782   */\n      tag_691\n      jumpi\n        /* \"#utility.yul\":29778:29779   */\n      0x00\n        /* \"#utility.yul\":29775:29776   */\n      dup1\n        /* \"#utility.yul\":29768:29780   */\n      revert\n        /* \"#utility.yul\":29719:29782   */\n    tag_691:\n        /* \"#utility.yul\":29666:29788   */\n      pop\n      jump\t// out\n        /* \"#utility.yul\":29794:29932   */\n    tag_363:\n        /* \"#utility.yul\":29875:29907   */\n      tag_693\n        /* \"#utility.yul\":29901:29906   */\n      dup2\n        /* \"#utility.yul\":29875:29907   */\n      tag_401\n      jump\t// in\n    tag_693:\n        /* \"#utility.yul\":29868:29873   */\n      dup2\n        /* \"#utility.yul\":29865:29908   */\n      eq\n        /* \"#utility.yul\":29855:29926   */\n      tag_694\n      jumpi\n        /* \"#utility.yul\":29922:29923   */\n      0x00\n        /* \"#utility.yul\":29919:29920   */\n      dup1\n        /* \"#utility.yul\":29912:29924   */\n      revert\n        /* \"#utility.yul\":29855:29926   */\n    tag_694:\n        /* \"#utility.yul\":29794:29932   */\n      pop\n      jump\t// out\n        /* \"#utility.yul\":29938:30058   */\n    tag_367:\n        /* \"#utility.yul\":30010:30033   */\n      tag_696\n        /* \"#utility.yul\":30027:30032   */\n      dup2\n        /* \"#utility.yul\":30010:30033   */\n      tag_618\n      jump\t// in\n    tag_696:\n        /* \"#utility.yul\":30003:30008   */\n      dup2\n        /* \"#utility.yul\":30000:30034   */\n      eq\n        /* \"#utility.yul\":29990:30052   */\n      tag_697\n      jumpi\n        /* \"#utility.yul\":30048:30049   */\n      0x00\n        /* \"#utility.yul\":30045:30046   */\n      dup1\n        /* \"#utility.yul\":30038:30050   */\n      revert\n        /* \"#utility.yul\":29990:30052   */\n    tag_697:\n        /* \"#utility.yul\":29938:30058   */\n      pop\n      jump\t// out\n        /* \"#utility.yul\":30064:30186   */\n    tag_371:\n        /* \"#utility.yul\":30137:30161   */\n      tag_699\n        /* \"#utility.yul\":30155:30160   */\n      dup2\n        /* \"#utility.yul\":30137:30161   */\n      tag_517\n      jump\t// in\n    tag_699:\n        /* \"#utility.yul\":30130:30135   */\n      dup2\n        /* \"#utility.yul\":30127:30162   */\n      eq\n        /* \"#utility.yul\":30117:30180   */\n      tag_700\n      jumpi\n        /* \"#utility.yul\":30176:30177   */\n      0x00\n        /* \"#utility.yul\":30173:30174   */\n      dup1\n        /* \"#utility.yul\":30166:30178   */\n      revert\n        /* \"#utility.yul\":30117:30180   */\n    tag_700:\n        /* \"#utility.yul\":30064:30186   */\n      pop\n      jump\t// out\n\n    auxdata: 0xa26469706673582212207fa80ad5a19efe5e2c0d28d4bfeb65d905de133b173019e6126b883e97a958a164736f6c63430008070033\n}\n",
				"bytecode": {
					"linkReferences": {},
					"object": "608060405260405180602001604052806000815250600290805190602001906200002b929190620001e8565b50604051806102800160405280600060ff168152602001600160ff168152602001600160ff168152602001600260ff168152602001600260ff168152602001600260ff168152602001600260ff168152602001600260ff168152602001600260ff168152602001600260ff168152602001600260ff168152602001600260ff168152602001600260ff168152602001600260ff168152602001600260ff168152602001600260ff168152602001600260ff168152602001600260ff168152602001600260ff168152602001600260ff1681525060039060146200011092919062000279565b506001600c60006101000a81548160ff0219169083151502179055503480156200013957600080fd5b50604051620031613803806200316183398181016040528101906200015f9190620003b7565b80600d908051906020019062000177929190620001e8565b5033600c60016101000a81548173ffffffffffffffffffffffffffffffffffffffff021916908373ffffffffffffffffffffffffffffffffffffffff16021790555060006004819055506001600581905550600060078190555060006008819055506000600981905550506200058c565b828054620001f6906200049d565b90600052602060002090601f0160209004810192826200021a576000855562000266565b82601f106200023557805160ff191683800117855562000266565b8280016001018555821562000266579182015b828111156200026557825182559160200191906001019062000248565b5b5090506200027591906200031a565b5090565b826014601f01602090048101928215620003075791602002820160005b83821115620002d657835183826101000a81548160ff021916908360ff160217905550926020019260010160208160000104928301926001030262000296565b8015620003055782816101000a81549060ff0219169055600101602081600001049283019260010302620002d6565b505b5090506200031691906200031a565b5090565b5b80821115620003355760008160009055506001016200031b565b5090565b6000620003506200034a8462000431565b62000408565b9050828152602081018484840111156200036f576200036e6200056c565b5b6200037c84828562000467565b509392505050565b600082601f8301126200039c576200039b62000567565b5b8151620003ae84826020860162000339565b91505092915050565b600060208284031215620003d057620003cf62000576565b5b600082015167ffffffffffffffff811115620003f157620003f062000571565b5b620003ff8482850162000384565b91505092915050565b60006200041462000427565b9050620004228282620004d3565b919050565b6000604051905090565b600067ffffffffffffffff8211156200044f576200044e62000538565b5b6200045a826200057b565b9050602081019050919050565b60005b83811015620004875780820151818401526020810190506200046a565b8381111562000497576000848401525b50505050565b60006002820490506001821680620004b657607f821691505b60208210811415620004cd57620004cc62000509565b5b50919050565b620004de826200057b565b810181811067ffffffffffffffff821117156200050057620004ff62000538565b5b80604052505050565b7f4e487b7100000000000000000000000000000000000000000000000000000000600052602260045260246000fd5b7f4e487b7100000000000000000000000000000000000000000000000000000000600052604160045260246000fd5b600080fd5b600080fd5b600080fd5b600080fd5b6000601f19601f8301169050919050565b612bc5806200059c6000396000f3fe6080604052600436106100c25760003560e01c80633d65df701161007f578063aa90c72611610059578063aa90c72614610242578063b4a99a4e14610259578063eddd0d9c14610284578063fd6c3b1b146102ad576100c2565b80633d65df70146101b957806360daa851146101ea5780637a5caab314610217576100c2565b80630390c11c146100c75780630a67d2c7146100f25780631309a5631461010e578063154602591461013957806327a8a072146101505780633b6680591461018e575b600080fd5b3480156100d357600080fd5b506100dc6102ea565b6040516100e9919061231c565b60405180910390f35b61010c60048036038101906101079190611c4c565b61038b565b005b34801561011a57600080fd5b506101236104b5565b604051610130919061217f565b60405180910390f35b34801561014557600080fd5b5061014e6104c8565b005b34801561015c57600080fd5b5061017760048036038101906101729190611c79565b6105d2565b604051610185929190612337565b60405180910390f35b34801561019a57600080fd5b506101a361092a565b6040516101b0919061231c565b60405180910390f35b6101d360048036038101906101ce9190611c1f565b6109c9565b6040516101e1929190612337565b60405180910390f35b3480156101f657600080fd5b506101ff610c7c565b60405161020e93929190612390565b60405180910390f35b34801561022357600080fd5b5061022c610d82565b604051610239919061231c565b60405180910390f35b34801561024e57600080fd5b50610257610e79565b005b34801561026557600080fd5b5061026e610f83565b60405161027b91906120e8565b60405180910390f35b34801561029057600080fd5b506102ab60048036038101906102a69190611ce6565b610fa9565b005b3480156102b957600080fd5b506102d460048036038101906102cf9190611c1f565b6110a0565b6040516102e1919061215d565b60405180910390f35b6000600c60019054906101000a900473ffffffffffffffffffffffffffffffffffffffff1673ffffffffffffffffffffffffffffffffffffffff1661032d611190565b73ffffffffffffffffffffffffffffffffffffffff1614610383576040517f08c379a000000000000000000000000000000000000000000000000000000000815260040161037a9061227c565b60405180910390fd5b600454905090565b600c60019054906101000a900473ffffffffffffffffffffffffffffffffffffffff1673ffffffffffffffffffffffffffffffffffffffff166103cc611190565b73ffffffffffffffffffffffffffffffffffffffff1614610422576040517f08c379a00000000000000000000000000000000000000000000000000000000081526004016104199061227c565b60405180910390fd5b60004790506000811161046a576040517f08c379a0000000000000000000000000000000000000000000000000000000008152600401610461906122dc565b60405180910390fd5b8173ffffffffffffffffffffffffffffffffffffffff166108fc829081150290604051600060405180830381858888f193505050501580156104b0573d6000803e3d6000fd5b505050565b600c60009054906101000a900460ff1681565b600c60019054906101000a900473ffffffffffffffffffffffffffffffffffffffff1673ffffffffffffffffffffffffffffffffffffffff16610509611190565b73ffffffffffffffffffffffffffffffffffffffff161461055f576040517f08c379a00000000000000000000000000000000000000000000000000000000081526004016105569061227c565b60405180910390fd5b60011515600c60009054906101000a900460ff161515146105b5576040517f08c379a00000000000000000000000000000000000000000000000000000000081526004016105ac9061221c565b60405180910390fd5b6000600c60006101000a81548160ff021916908315150217905550565b60006060600c60019054906101000a900473ffffffffffffffffffffffffffffffffffffffff1673ffffffffffffffffffffffffffffffffffffffff16610617611190565b73ffffffffffffffffffffffffffffffffffffffff161461066d576040517f08c379a00000000000000000000000000000000000000000000000000000000081526004016106649061227c565b60405180910390fd5b60001515600c60009054906101000a900460ff161515146106c3576040517f08c379a00000000000000000000000000000000000000000000000000000000081526004016106ba9061229c565b60405180910390fd5b6004831080156106d35750600083115b610712576040517f08c379a00000000000000000000000000000000000000000000000000000000081526004016107099061225c565b60405180910390fd5b6103e860045410610758576040517f08c379a000000000000000000000000000000000000000000000000000000000815260040161074f906122bc565b60405180910390fd5b60008381101561092157600061076c611198565b9050610806868260055460028054610783906125a5565b80601f01602080910402602001604051908101604052809291908181526020018280546107af906125a5565b80156107fc5780601f106107d1576101008083540402835291602001916107fc565b820191906000526020600020905b8154815290600101906020018083116107df57829003601f168201915b505050505061148a565b6004600081548092919061081990612608565b9190505550600a60008773ffffffffffffffffffffffffffffffffffffffff1673ffffffffffffffffffffffffffffffffffffffff168152602001908152602001600020600001819080600181540180825580915050600190039060005260206000200160009091909190915055806002808054610896906125a5565b80601f01602080910402602001604051908101604052809291908181526020018280546108c2906125a5565b801561090f5780601f106108e45761010080835404028352916020019161090f565b820191906000526020600020905b8154815290600101906020018083116108f257829003601f168201915b50505050509050935093505050610923565b505b9250929050565b6000600c60019054906101000a900473ffffffffffffffffffffffffffffffffffffffff1673ffffffffffffffffffffffffffffffffffffffff1661096d611190565b73ffffffffffffffffffffffffffffffffffffffff16146109c3576040517f08c379a00000000000000000000000000000000000000000000000000000000081526004016109ba9061227c565b60405180910390fd5b47905090565b6000606060001515600c60009054906101000a900460ff16151514610a23576040517f08c379a0000000000000000000000000000000000000000000000000000000008152600401610a1a9061229c565b60405180910390fd5b6103e860045410610a69576040517f08c379a0000000000000000000000000000000000000000000000000000000008152600401610a60906122bc565b60405180910390fd5b6006543414610aad576040517f08c379a0000000000000000000000000000000000000000000000000000000008152600401610aa4906121fc565b60405180910390fd5b6000610ab7611198565b9050610b51848260055460028054610ace906125a5565b80601f0160208091040260200160405190810160405280929190818152602001828054610afa906125a5565b8015610b475780601f10610b1c57610100808354040283529160200191610b47565b820191906000526020600020905b815481529060010190602001808311610b2a57829003601f168201915b505050505061148a565b610b62610b5c611190565b34611620565b60046000815480929190610b7590612608565b9190505550600a60008573ffffffffffffffffffffffffffffffffffffffff1673ffffffffffffffffffffffffffffffffffffffff168152602001908152602001600020600001819080600181540180825580915050600190039060005260206000200160009091909190915055806002808054610bf2906125a5565b80601f0160208091040260200160405190810160405280929190818152602001828054610c1e906125a5565b8015610c6b5780601f10610c4057610100808354040283529160200191610c6b565b820191906000526020600020905b815481529060010190602001808311610c4e57829003601f168201915b505050505090509250925050915091565b6000806000600c60019054906101000a900473ffffffffffffffffffffffffffffffffffffffff1673ffffffffffffffffffffffffffffffffffffffff16610cc2611190565b73ffffffffffffffffffffffffffffffffffffffff1614610d18576040517f08c379a0000000000000000000000000000000000000000000000000000000008152600401610d0f9061227c565b60405180910390fd5b60001515600c60009054906101000a900460ff16151514610d6e576040517f08c379a0000000000000000000000000000000000000000000000000000000008152600401610d659061229c565b60405180910390fd5b600754600854600954925092509250909192565b6000600c60019054906101000a900473ffffffffffffffffffffffffffffffffffffffff1673ffffffffffffffffffffffffffffffffffffffff16610dc5611190565b73ffffffffffffffffffffffffffffffffffffffff1614610e1b576040517f08c379a0000000000000000000000000000000000000000000000000000000008152600401610e129061227c565b60405180910390fd5b60001515600c60009054906101000a900460ff16151514610e71576040517f08c379a0000000000000000000000000000000000000000000000000000000008152600401610e689061229c565b60405180910390fd5b600654905090565b600c60019054906101000a900473ffffffffffffffffffffffffffffffffffffffff1673ffffffffffffffffffffffffffffffffffffffff16610eba611190565b73ffffffffffffffffffffffffffffffffffffffff1614610f10576040517f08c379a0000000000000000000000000000000000000000000000000000000008152600401610f079061227c565b60405180910390fd5b60001515600c60009054906101000a900460ff16151514610f66576040517f08c379a0000000000000000000000000000000000000000000000000000000008152600401610f5d9061223c565b60405180910390fd5b6001600c60006101000a81548160ff021916908315150217905550565b600c60019054906101000a900473ffffffffffffffffffffffffffffffffffffffff1681565b600c60019054906101000a900473ffffffffffffffffffffffffffffffffffffffff1673ffffffffffffffffffffffffffffffffffffffff16610fea611190565b73ffffffffffffffffffffffffffffffffffffffff1614611040576040517f08c379a00000000000000000000000000000000000000000000000000000000081526004016110379061227c565b60405180910390fd5b60001515600c60009054906101000a900460ff16151514611096576040517f08c379a000000000000000000000000000000000000000000000000000000000815260040161108d9061229c565b60405180910390fd5b8060068190555050565b606060001515600c60009054906101000a900460ff161515146110f8576040517f08c379a00000000000000000000000000000000000000000000000000000000081526004016110ef9061229c565b60405180910390fd5b600a60008373ffffffffffffffffffffffffffffffffffffffff1673ffffffffffffffffffffffffffffffffffffffff16815260200190815260200160002060000180548060200260200160405190810160405280929190818152602001828054801561118457602002820191906000526020600020905b815481526020019060010190808311611170575b50505050509050919050565b600033905090565b6000801515600c60009054906101000a900460ff161515146111ef576040517f08c379a00000000000000000000000000000000000000000000000000000000081526004016111e69061229c565b60405180910390fd5b60006111f961167a565b90506000600382601481106112115761121061273d565b5b602091828204019190069054906101000a900460ff1660ff16905060008114801561123e57506032600754105b156112a5576007600081548092919061125690612608565b91905055506112666007546116be565b6040516020016112769190612056565b6040516020818303038152906040526002908051906020019061129a929190611a9b565b508092505050611487565b600181111580156112b857506064600854105b1561131f57600860008154809291906112d090612608565b91905055506112e06008546116be565b6040516020016112f09190612078565b60405160208183030381529060405260029080519060200190611314929190611a9b565b508092505050611487565b60028111158015611334575061035260095411155b156113b4576009600081548092919061134c90612608565b919050555061135c6009546116be565b60405160200161136c919061209a565b60405160208183030381529060405260029080519060200190611390929190611a9b565b600290805461139e906125a5565b6113a9929190611b21565b508092505050611487565b606460085410156114255760019050600860008154809291906113d690612608565b91905055506113e66008546116be565b6040516020016113f69190612078565b6040516020818303038152906040526002908051906020019061141a929190611a9b565b508092505050611487565b600090506007600081548092919061143c90612608565b919050555061144c6007546116be565b60405160200161145c9190612056565b60405160208183030381529060405260029080519060200190611480929190611a9b565b5080925050505b90565b600073ffffffffffffffffffffffffffffffffffffffff168473ffffffffffffffffffffffffffffffffffffffff1614156114fa576040517f08c379a00000000000000000000000000000000000000000000000000000000081526004016114f1906122fc565b60405180910390fd5b6000611504611190565b9050611525816000876115168861181f565b61151f8861181f565b87611899565b8260008086815260200190815260200160002060008773ffffffffffffffffffffffffffffffffffffffff1673ffffffffffffffffffffffffffffffffffffffff16815260200190815260200160002060008282546115849190612431565b925050819055508473ffffffffffffffffffffffffffffffffffffffff16600073ffffffffffffffffffffffffffffffffffffffff168273ffffffffffffffffffffffffffffffffffffffff167fc3d58168c5ae7397731d063d5bbf3d657854427343f4c083240f7aacaa2d0f628787604051611602929190612367565b60405180910390a4611619816000878787876118a1565b5050505050565b80600b60008473ffffffffffffffffffffffffffffffffffffffff1673ffffffffffffffffffffffffffffffffffffffff168152602001908152602001600020600082825461166f9190612431565b925050819055505050565b600080601442336040516020016116929291906120bc565b6040516020818303038152906040528051906020012060001c6116b5919061267f565b90508091505090565b60606000821415611706576040518060400160405280600181526020017f3000000000000000000000000000000000000000000000000000000000000000815250905061181a565b600082905060005b6000821461173857808061172190612608565b915050600a826117319190612487565b915061170e565b60008167ffffffffffffffff8111156117545761175361276c565b5b6040519080825280601f01601f1916602001820160405280156117865781602001600182028036833780820191505090505b5090505b600085146118135760018261179f91906124b8565b9150600a856117ae919061267f565b60306117ba9190612431565b60f81b8183815181106117d0576117cf61273d565b5b60200101907effffffffffffffffffffffffffffffffffffffffffffffffffffffffffffff1916908160001a905350600a8561180c9190612487565b945061178a565b8093505050505b919050565b60606000600167ffffffffffffffff81111561183e5761183d61276c565b5b60405190808252806020026020018201604052801561186c5781602001602082028036833780820191505090505b50905082816000815181106118845761188361273d565b5b60200260200101818152505080915050919050565b505050505050565b6118c08473ffffffffffffffffffffffffffffffffffffffff16611a88565b15611a80578373ffffffffffffffffffffffffffffffffffffffff1663ae89a24887878686866040518663ffffffff1660e01b8152600401611906959493929190612103565b602060405180830381600087803b15801561192057600080fd5b505af192505050801561195157506040513d601f19601f8201168201806040525081019061194e9190611cb9565b60015b6119f75761195d61279b565b806308c379a014156119ba5750611972612a9d565b8061197d57506119bc565b806040517f08c379a00000000000000000000000000000000000000000000000000000000081526004016119b1919061219a565b60405180910390fd5b505b6040517f08c379a00000000000000000000000000000000000000000000000000000000081526004016119ee906121bc565b60405180910390fd5b63ae89a24860e01b7bffffffffffffffffffffffffffffffffffffffffffffffffffffffff1916817bffffffffffffffffffffffffffffffffffffffffffffffffffffffff191614611a7e576040517f08c379a0000000000000000000000000000000000000000000000000000000008152600401611a75906121dc565b60405180910390fd5b505b505050505050565b600080823b905060008111915050919050565b828054611aa7906125a5565b90600052602060002090601f016020900481019282611ac95760008555611b10565b82601f10611ae257805160ff1916838001178555611b10565b82800160010185558215611b10579182015b82811115611b0f578251825591602001919060010190611af4565b5b509050611b1d9190611bae565b5090565b828054611b2d906125a5565b90600052602060002090601f016020900481019282611b4f5760008555611b9d565b82601f10611b605780548555611b9d565b82800160010185558215611b9d57600052602060002091601f016020900482015b82811115611b9c578254825591600101919060010190611b81565b5b509050611baa9190611bae565b5090565b5b80821115611bc7576000816000905550600101611baf565b5090565b600081359050611bda81612b33565b92915050565b600081359050611bef81612b4a565b92915050565b600081519050611c0481612b61565b92915050565b600081359050611c1981612b78565b92915050565b600060208284031215611c3557611c346127bd565b5b6000611c4384828501611bcb565b91505092915050565b600060208284031215611c6257611c616127bd565b5b6000611c7084828501611be0565b91505092915050565b60008060408385031215611c9057611c8f6127bd565b5b6000611c9e85828601611bcb565b9250506020611caf85828601611c0a565b9150509250929050565b600060208284031215611ccf57611cce6127bd565b5b6000611cdd84828501611bf5565b91505092915050565b600060208284031215611cfc57611cfb6127bd565b5b6000611d0a84828501611c0a565b91505092915050565b6000611d1f8383612021565b60208301905092915050565b611d34816124fe565b82525050565b611d43816124ec565b82525050565b611d5a611d55826124ec565b612651565b82525050565b6000611d6b826123e1565b611d758185612404565b9350611d80836123d1565b8060005b83811015611db1578151611d988882611d13565b9750611da3836123f7565b925050600181019050611d84565b5085935050505092915050565b611dc781612510565b82525050565b6000611dd8826123ec565b611de28185612415565b9350611df2818560208601612572565b611dfb816127c2565b840191505092915050565b6000611e11826123ec565b611e1b8185612426565b9350611e2b818560208601612572565b80840191505092915050565b6000611e44603483612415565b9150611e4f826127ed565b604082019050919050565b6000611e67602883612415565b9150611e728261283c565b604082019050919050565b6000611e8a600883612426565b9150611e958261288b565b600882019050919050565b6000611ead600583612426565b9150611eb8826128b4565b600582019050919050565b6000611ed0601283612415565b9150611edb826128dd565b602082019050919050565b6000611ef3601b83612415565b9150611efe82612906565b602082019050919050565b6000611f16601b83612415565b9150611f218261292f565b602082019050919050565b6000611f39601583612415565b9150611f4482612958565b602082019050919050565b6000611f5c601c83612415565b9150611f6782612981565b602082019050919050565b6000611f7f601b83612415565b9150611f8a826129aa565b602082019050919050565b6000611fa2601983612415565b9150611fad826129d3565b602082019050919050565b6000611fc5600783612426565b9150611fd0826129fc565b600782019050919050565b6000611fe8601d83612415565b9150611ff382612a25565b602082019050919050565b600061200b602183612415565b915061201682612a4e565b604082019050919050565b61202a81612568565b82525050565b61203981612568565b82525050565b61205061204b82612568565b612675565b82525050565b600061206182611e7d565b915061206d8284611e06565b915081905092915050565b600061208382611ea0565b915061208f8284611e06565b915081905092915050565b60006120a582611fb8565b91506120b18284611e06565b915081905092915050565b60006120c8828561203f565b6020820191506120d88284611d49565b6014820191508190509392505050565b60006020820190506120fd6000830184611d2b565b92915050565b600060a0820190506121186000830188611d3a565b6121256020830187611d3a565b6121326040830186612030565b61213f6060830185612030565b81810360808301526121518184611dcd565b90509695505050505050565b600060208201905081810360008301526121778184611d60565b905092915050565b60006020820190506121946000830184611dbe565b92915050565b600060208201905081810360008301526121b48184611dcd565b905092915050565b600060208201905081810360008301526121d581611e37565b9050919050565b600060208201905081810360008301526121f581611e5a565b9050919050565b6000602082019050818103600083015261221581611ec3565b9050919050565b6000602082019050818103600083015261223581611ee6565b9050919050565b6000602082019050818103600083015261225581611f09565b9050919050565b6000602082019050818103600083015261227581611f2c565b9050919050565b6000602082019050818103600083015261229581611f4f565b9050919050565b600060208201905081810360008301526122b581611f72565b9050919050565b600060208201905081810360008301526122d581611f95565b9050919050565b600060208201905081810360008301526122f581611fdb565b9050919050565b6000602082019050818103600083015261231581611ffe565b9050919050565b60006020820190506123316000830184612030565b92915050565b600060408201905061234c6000830185612030565b818103602083015261235e8184611dcd565b90509392505050565b600060408201905061237c6000830185612030565b6123896020830184612030565b9392505050565b60006060820190506123a56000830186612030565b6123b26020830185612030565b6123bf6040830184612030565b949350505050565b6000604051905090565b6000819050602082019050919050565b600081519050919050565b600081519050919050565b6000602082019050919050565b600082825260208201905092915050565b600082825260208201905092915050565b600081905092915050565b600061243c82612568565b915061244783612568565b9250827fffffffffffffffffffffffffffffffffffffffffffffffffffffffffffffffff0382111561247c5761247b6126b0565b5b828201905092915050565b600061249282612568565b915061249d83612568565b9250826124ad576124ac6126df565b5b828204905092915050565b60006124c382612568565b91506124ce83612568565b9250828210156124e1576124e06126b0565b5b828203905092915050565b60006124f782612548565b9050919050565b600061250982612548565b9050919050565b60008115159050919050565b60007fffffffff0000000000000000000000000000000000000000000000000000000082169050919050565b600073ffffffffffffffffffffffffffffffffffffffff82169050919050565b6000819050919050565b60005b83811015612590578082015181840152602081019050612575565b8381111561259f576000848401525b50505050565b600060028204905060018216806125bd57607f821691505b602082108114156125d1576125d061270e565b5b50919050565b6125e0826127c2565b810181811067ffffffffffffffff821117156125ff576125fe61276c565b5b80604052505050565b600061261382612568565b91507fffffffffffffffffffffffffffffffffffffffffffffffffffffffffffffffff821415612646576126456126b0565b5b600182019050919050565b600061265c82612663565b9050919050565b600061266e826127d3565b9050919050565b6000819050919050565b600061268a82612568565b915061269583612568565b9250826126a5576126a46126df565b5b828206905092915050565b7f4e487b7100000000000000000000000000000000000000000000000000000000600052601160045260246000fd5b7f4e487b7100000000000000000000000000000000000000000000000000000000600052601260045260246000fd5b7f4e487b7100000000000000000000000000000000000000000000000000000000600052602260045260246000fd5b7f4e487b7100000000000000000000000000000000000000000000000000000000600052603260045260246000fd5b7f4e487b7100000000000000000000000000000000000000000000000000000000600052604160045260246000fd5b600060033d11156127ba5760046000803e6127b76000516127e0565b90505b90565b600080fd5b6000601f19601f8301169050919050565b60008160601b9050919050565b60008160e01c9050919050565b7f455243313135353a207472616e7366657220746f206e6f6e204552433131353560008201527f526563656976657220696d706c656d656e746572000000000000000000000000602082015250565b7f455243313135353a204552433131353552656365697665722072656a6563746560008201527f6420746f6b656e73000000000000000000000000000000000000000000000000602082015250565b7f4469616d6f6e645f000000000000000000000000000000000000000000000000600082015250565b7f476f6c645f000000000000000000000000000000000000000000000000000000600082015250565b7f4e6f7420456e6f7567682042616c616e63650000000000000000000000000000600082015250565b7f44726f707369746520697320616c72656164792052756e6e696e670000000000600082015250565b7f44726f707369746520697320616c72656164792053746f707065640000000000600082015250565b7f596f752063616e206d696e7420312d33204e4654730000000000000000000000600082015250565b7f4f6e6c79204e46542d4553204f776e65722063616e2041636365737300000000600082015250565b7f44726f7073697465206973206e6f74204f70656e6564205965742e0000000000600082015250565b7f4d6178204d696e74696e67204c696d6974207265616368656400000000000000600082015250565b7f53696c7665725f00000000000000000000000000000000000000000000000000600082015250565b7f4572726f7221204e6f2042616c616e636520746f207769746864726177000000600082015250565b7f455243313135353a206d696e7420746f20746865207a65726f2061646472657360008201527f7300000000000000000000000000000000000000000000000000000000000000602082015250565b600060443d1015612aad57612b30565b612ab56123c7565b60043d036004823e80513d602482011167ffffffffffffffff82111715612add575050612b30565b808201805167ffffffffffffffff811115612afb5750505050612b30565b80602083010160043d038501811115612b18575050505050612b30565b612b27826020018501866125d7565b82955050505050505b90565b612b3c816124ec565b8114612b4757600080fd5b50565b612b53816124fe565b8114612b5e57600080fd5b50565b612b6a8161251c565b8114612b7557600080fd5b50565b612b8181612568565b8114612b8c57600080fd5b5056fea26469706673582212207fa80ad5a19efe5e2c0d28d4bfeb65d905de133b173019e6126b883e97a958a164736f6c63430008070033",
					"opcodes": "PUSH1 0x80 PUSH1 0x40 MSTORE PUSH1 0x40 MLOAD DUP1 PUSH1 0x20 ADD PUSH1 0x40 MSTORE DUP1 PUSH1 0x0 DUP2 MSTORE POP PUSH1 0x2 SWAP1 DUP1 MLOAD SWAP1 PUSH1 0x20 ADD SWAP1 PUSH3 0x2B SWAP3 SWAP2 SWAP1 PUSH3 0x1E8 JUMP JUMPDEST POP PUSH1 0x40 MLOAD DUP1 PUSH2 0x280 ADD PUSH1 0x40 MSTORE DUP1 PUSH1 0x0 PUSH1 0xFF AND DUP2 MSTORE PUSH1 0x20 ADD PUSH1 0x1 PUSH1 0xFF AND DUP2 MSTORE PUSH1 0x20 ADD PUSH1 0x1 PUSH1 0xFF AND DUP2 MSTORE PUSH1 0x20 ADD PUSH1 0x2 PUSH1 0xFF AND DUP2 MSTORE PUSH1 0x20 ADD PUSH1 0x2 PUSH1 0xFF AND DUP2 MSTORE PUSH1 0x20 ADD PUSH1 0x2 PUSH1 0xFF AND DUP2 MSTORE PUSH1 0x20 ADD PUSH1 0x2 PUSH1 0xFF AND DUP2 MSTORE PUSH1 0x20 ADD PUSH1 0x2 PUSH1 0xFF AND DUP2 MSTORE PUSH1 0x20 ADD PUSH1 0x2 PUSH1 0xFF AND DUP2 MSTORE PUSH1 0x20 ADD PUSH1 0x2 PUSH1 0xFF AND DUP2 MSTORE PUSH1 0x20 ADD PUSH1 0x2 PUSH1 0xFF AND DUP2 MSTORE PUSH1 0x20 ADD PUSH1 0x2 PUSH1 0xFF AND DUP2 MSTORE PUSH1 0x20 ADD PUSH1 0x2 PUSH1 0xFF AND DUP2 MSTORE PUSH1 0x20 ADD PUSH1 0x2 PUSH1 0xFF AND DUP2 MSTORE PUSH1 0x20 ADD PUSH1 0x2 PUSH1 0xFF AND DUP2 MSTORE PUSH1 0x20 ADD PUSH1 0x2 PUSH1 0xFF AND DUP2 MSTORE PUSH1 0x20 ADD PUSH1 0x2 PUSH1 0xFF AND DUP2 MSTORE PUSH1 0x20 ADD PUSH1 0x2 PUSH1 0xFF AND DUP2 MSTORE PUSH1 0x20 ADD PUSH1 0x2 PUSH1 0xFF AND DUP2 MSTORE PUSH1 0x20 ADD PUSH1 0x2 PUSH1 0xFF AND DUP2 MSTORE POP PUSH1 0x3 SWAP1 PUSH1 0x14 PUSH3 0x110 SWAP3 SWAP2 SWAP1 PUSH3 0x279 JUMP JUMPDEST POP PUSH1 0x1 PUSH1 0xC PUSH1 0x0 PUSH2 0x100 EXP DUP2 SLOAD DUP2 PUSH1 0xFF MUL NOT AND SWAP1 DUP4 ISZERO ISZERO MUL OR SWAP1 SSTORE POP CALLVALUE DUP1 ISZERO PUSH3 0x139 JUMPI PUSH1 0x0 DUP1 REVERT JUMPDEST POP PUSH1 0x40 MLOAD PUSH3 0x3161 CODESIZE SUB DUP1 PUSH3 0x3161 DUP4 CODECOPY DUP2 DUP2 ADD PUSH1 0x40 MSTORE DUP2 ADD SWAP1 PUSH3 0x15F SWAP2 SWAP1 PUSH3 0x3B7 JUMP JUMPDEST DUP1 PUSH1 0xD SWAP1 DUP1 MLOAD SWAP1 PUSH1 0x20 ADD SWAP1 PUSH3 0x177 SWAP3 SWAP2 SWAP1 PUSH3 0x1E8 JUMP JUMPDEST POP CALLER PUSH1 0xC PUSH1 0x1 PUSH2 0x100 EXP DUP2 SLOAD DUP2 PUSH20 0xFFFFFFFFFFFFFFFFFFFFFFFFFFFFFFFFFFFFFFFF MUL NOT AND SWAP1 DUP4 PUSH20 0xFFFFFFFFFFFFFFFFFFFFFFFFFFFFFFFFFFFFFFFF AND MUL OR SWAP1 SSTORE POP PUSH1 0x0 PUSH1 0x4 DUP2 SWAP1 SSTORE POP PUSH1 0x1 PUSH1 0x5 DUP2 SWAP1 SSTORE POP PUSH1 0x0 PUSH1 0x7 DUP2 SWAP1 SSTORE POP PUSH1 0x0 PUSH1 0x8 DUP2 SWAP1 SSTORE POP PUSH1 0x0 PUSH1 0x9 DUP2 SWAP1 SSTORE POP POP PUSH3 0x58C JUMP JUMPDEST DUP3 DUP1 SLOAD PUSH3 0x1F6 SWAP1 PUSH3 0x49D JUMP JUMPDEST SWAP1 PUSH1 0x0 MSTORE PUSH1 0x20 PUSH1 0x0 KECCAK256 SWAP1 PUSH1 0x1F ADD PUSH1 0x20 SWAP1 DIV DUP2 ADD SWAP3 DUP3 PUSH3 0x21A JUMPI PUSH1 0x0 DUP6 SSTORE PUSH3 0x266 JUMP JUMPDEST DUP3 PUSH1 0x1F LT PUSH3 0x235 JUMPI DUP1 MLOAD PUSH1 0xFF NOT AND DUP4 DUP1 ADD OR DUP6 SSTORE PUSH3 0x266 JUMP JUMPDEST DUP3 DUP1 ADD PUSH1 0x1 ADD DUP6 SSTORE DUP3 ISZERO PUSH3 0x266 JUMPI SWAP2 DUP3 ADD JUMPDEST DUP3 DUP2 GT ISZERO PUSH3 0x265 JUMPI DUP3 MLOAD DUP3 SSTORE SWAP2 PUSH1 0x20 ADD SWAP2 SWAP1 PUSH1 0x1 ADD SWAP1 PUSH3 0x248 JUMP JUMPDEST JUMPDEST POP SWAP1 POP PUSH3 0x275 SWAP2 SWAP1 PUSH3 0x31A JUMP JUMPDEST POP SWAP1 JUMP JUMPDEST DUP3 PUSH1 0x14 PUSH1 0x1F ADD PUSH1 0x20 SWAP1 DIV DUP2 ADD SWAP3 DUP3 ISZERO PUSH3 0x307 JUMPI SWAP2 PUSH1 0x20 MUL DUP3 ADD PUSH1 0x0 JUMPDEST DUP4 DUP3 GT ISZERO PUSH3 0x2D6 JUMPI DUP4 MLOAD DUP4 DUP3 PUSH2 0x100 EXP DUP2 SLOAD DUP2 PUSH1 0xFF MUL NOT AND SWAP1 DUP4 PUSH1 0xFF AND MUL OR SWAP1 SSTORE POP SWAP3 PUSH1 0x20 ADD SWAP3 PUSH1 0x1 ADD PUSH1 0x20 DUP2 PUSH1 0x0 ADD DIV SWAP3 DUP4 ADD SWAP3 PUSH1 0x1 SUB MUL PUSH3 0x296 JUMP JUMPDEST DUP1 ISZERO PUSH3 0x305 JUMPI DUP3 DUP2 PUSH2 0x100 EXP DUP2 SLOAD SWAP1 PUSH1 0xFF MUL NOT AND SWAP1 SSTORE PUSH1 0x1 ADD PUSH1 0x20 DUP2 PUSH1 0x0 ADD DIV SWAP3 DUP4 ADD SWAP3 PUSH1 0x1 SUB MUL PUSH3 0x2D6 JUMP JUMPDEST POP JUMPDEST POP SWAP1 POP PUSH3 0x316 SWAP2 SWAP1 PUSH3 0x31A JUMP JUMPDEST POP SWAP1 JUMP JUMPDEST JUMPDEST DUP1 DUP3 GT ISZERO PUSH3 0x335 JUMPI PUSH1 0x0 DUP2 PUSH1 0x0 SWAP1 SSTORE POP PUSH1 0x1 ADD PUSH3 0x31B JUMP JUMPDEST POP SWAP1 JUMP JUMPDEST PUSH1 0x0 PUSH3 0x350 PUSH3 0x34A DUP5 PUSH3 0x431 JUMP JUMPDEST PUSH3 0x408 JUMP JUMPDEST SWAP1 POP DUP3 DUP2 MSTORE PUSH1 0x20 DUP2 ADD DUP5 DUP5 DUP5 ADD GT ISZERO PUSH3 0x36F JUMPI PUSH3 0x36E PUSH3 0x56C JUMP JUMPDEST JUMPDEST PUSH3 0x37C DUP5 DUP3 DUP6 PUSH3 0x467 JUMP JUMPDEST POP SWAP4 SWAP3 POP POP POP JUMP JUMPDEST PUSH1 0x0 DUP3 PUSH1 0x1F DUP4 ADD SLT PUSH3 0x39C JUMPI PUSH3 0x39B PUSH3 0x567 JUMP JUMPDEST JUMPDEST DUP2 MLOAD PUSH3 0x3AE DUP5 DUP3 PUSH1 0x20 DUP7 ADD PUSH3 0x339 JUMP JUMPDEST SWAP2 POP POP SWAP3 SWAP2 POP POP JUMP JUMPDEST PUSH1 0x0 PUSH1 0x20 DUP3 DUP5 SUB SLT ISZERO PUSH3 0x3D0 JUMPI PUSH3 0x3CF PUSH3 0x576 JUMP JUMPDEST JUMPDEST PUSH1 0x0 DUP3 ADD MLOAD PUSH8 0xFFFFFFFFFFFFFFFF DUP2 GT ISZERO PUSH3 0x3F1 JUMPI PUSH3 0x3F0 PUSH3 0x571 JUMP JUMPDEST JUMPDEST PUSH3 0x3FF DUP5 DUP3 DUP6 ADD PUSH3 0x384 JUMP JUMPDEST SWAP2 POP POP SWAP3 SWAP2 POP POP JUMP JUMPDEST PUSH1 0x0 PUSH3 0x414 PUSH3 0x427 JUMP JUMPDEST SWAP1 POP PUSH3 0x422 DUP3 DUP3 PUSH3 0x4D3 JUMP JUMPDEST SWAP2 SWAP1 POP JUMP JUMPDEST PUSH1 0x0 PUSH1 0x40 MLOAD SWAP1 POP SWAP1 JUMP JUMPDEST PUSH1 0x0 PUSH8 0xFFFFFFFFFFFFFFFF DUP3 GT ISZERO PUSH3 0x44F JUMPI PUSH3 0x44E PUSH3 0x538 JUMP JUMPDEST JUMPDEST PUSH3 0x45A DUP3 PUSH3 0x57B JUMP JUMPDEST SWAP1 POP PUSH1 0x20 DUP2 ADD SWAP1 POP SWAP2 SWAP1 POP JUMP JUMPDEST PUSH1 0x0 JUMPDEST DUP4 DUP2 LT ISZERO PUSH3 0x487 JUMPI DUP1 DUP3 ADD MLOAD DUP2 DUP5 ADD MSTORE PUSH1 0x20 DUP2 ADD SWAP1 POP PUSH3 0x46A JUMP JUMPDEST DUP4 DUP2 GT ISZERO PUSH3 0x497 JUMPI PUSH1 0x0 DUP5 DUP5 ADD MSTORE JUMPDEST POP POP POP POP JUMP JUMPDEST PUSH1 0x0 PUSH1 0x2 DUP3 DIV SWAP1 POP PUSH1 0x1 DUP3 AND DUP1 PUSH3 0x4B6 JUMPI PUSH1 0x7F DUP3 AND SWAP2 POP JUMPDEST PUSH1 0x20 DUP3 LT DUP2 EQ ISZERO PUSH3 0x4CD JUMPI PUSH3 0x4CC PUSH3 0x509 JUMP JUMPDEST JUMPDEST POP SWAP2 SWAP1 POP JUMP JUMPDEST PUSH3 0x4DE DUP3 PUSH3 0x57B JUMP JUMPDEST DUP2 ADD DUP2 DUP2 LT PUSH8 0xFFFFFFFFFFFFFFFF DUP3 GT OR ISZERO PUSH3 0x500 JUMPI PUSH3 0x4FF PUSH3 0x538 JUMP JUMPDEST JUMPDEST DUP1 PUSH1 0x40 MSTORE POP POP POP JUMP JUMPDEST PUSH32 0x4E487B7100000000000000000000000000000000000000000000000000000000 PUSH1 0x0 MSTORE PUSH1 0x22 PUSH1 0x4 MSTORE PUSH1 0x24 PUSH1 0x0 REVERT JUMPDEST PUSH32 0x4E487B7100000000000000000000000000000000000000000000000000000000 PUSH1 0x0 MSTORE PUSH1 0x41 PUSH1 0x4 MSTORE PUSH1 0x24 PUSH1 0x0 REVERT JUMPDEST PUSH1 0x0 DUP1 REVERT JUMPDEST PUSH1 0x0 DUP1 REVERT JUMPDEST PUSH1 0x0 DUP1 REVERT JUMPDEST PUSH1 0x0 DUP1 REVERT JUMPDEST PUSH1 0x0 PUSH1 0x1F NOT PUSH1 0x1F DUP4 ADD AND SWAP1 POP SWAP2 SWAP1 POP JUMP JUMPDEST PUSH2 0x2BC5 DUP1 PUSH3 0x59C PUSH1 0x0 CODECOPY PUSH1 0x0 RETURN INVALID PUSH1 0x80 PUSH1 0x40 MSTORE PUSH1 0x4 CALLDATASIZE LT PUSH2 0xC2 JUMPI PUSH1 0x0 CALLDATALOAD PUSH1 0xE0 SHR DUP1 PUSH4 0x3D65DF70 GT PUSH2 0x7F JUMPI DUP1 PUSH4 0xAA90C726 GT PUSH2 0x59 JUMPI DUP1 PUSH4 0xAA90C726 EQ PUSH2 0x242 JUMPI DUP1 PUSH4 0xB4A99A4E EQ PUSH2 0x259 JUMPI DUP1 PUSH4 0xEDDD0D9C EQ PUSH2 0x284 JUMPI DUP1 PUSH4 0xFD6C3B1B EQ PUSH2 0x2AD JUMPI PUSH2 0xC2 JUMP JUMPDEST DUP1 PUSH4 0x3D65DF70 EQ PUSH2 0x1B9 JUMPI DUP1 PUSH4 0x60DAA851 EQ PUSH2 0x1EA JUMPI DUP1 PUSH4 0x7A5CAAB3 EQ PUSH2 0x217 JUMPI PUSH2 0xC2 JUMP JUMPDEST DUP1 PUSH4 0x390C11C EQ PUSH2 0xC7 JUMPI DUP1 PUSH4 0xA67D2C7 EQ PUSH2 0xF2 JUMPI DUP1 PUSH4 0x1309A563 EQ PUSH2 0x10E JUMPI DUP1 PUSH4 0x15460259 EQ PUSH2 0x139 JUMPI DUP1 PUSH4 0x27A8A072 EQ PUSH2 0x150 JUMPI DUP1 PUSH4 0x3B668059 EQ PUSH2 0x18E JUMPI JUMPDEST PUSH1 0x0 DUP1 REVERT JUMPDEST CALLVALUE DUP1 ISZERO PUSH2 0xD3 JUMPI PUSH1 0x0 DUP1 REVERT JUMPDEST POP PUSH2 0xDC PUSH2 0x2EA JUMP JUMPDEST PUSH1 0x40 MLOAD PUSH2 0xE9 SWAP2 SWAP1 PUSH2 0x231C JUMP JUMPDEST PUSH1 0x40 MLOAD DUP1 SWAP2 SUB SWAP1 RETURN JUMPDEST PUSH2 0x10C PUSH1 0x4 DUP1 CALLDATASIZE SUB DUP2 ADD SWAP1 PUSH2 0x107 SWAP2 SWAP1 PUSH2 0x1C4C JUMP JUMPDEST PUSH2 0x38B JUMP JUMPDEST STOP JUMPDEST CALLVALUE DUP1 ISZERO PUSH2 0x11A JUMPI PUSH1 0x0 DUP1 REVERT JUMPDEST POP PUSH2 0x123 PUSH2 0x4B5 JUMP JUMPDEST PUSH1 0x40 MLOAD PUSH2 0x130 SWAP2 SWAP1 PUSH2 0x217F JUMP JUMPDEST PUSH1 0x40 MLOAD DUP1 SWAP2 SUB SWAP1 RETURN JUMPDEST CALLVALUE DUP1 ISZERO PUSH2 0x145 JUMPI PUSH1 0x0 DUP1 REVERT JUMPDEST POP PUSH2 0x14E PUSH2 0x4C8 JUMP JUMPDEST STOP JUMPDEST CALLVALUE DUP1 ISZERO PUSH2 0x15C JUMPI PUSH1 0x0 DUP1 REVERT JUMPDEST POP PUSH2 0x177 PUSH1 0x4 DUP1 CALLDATASIZE SUB DUP2 ADD SWAP1 PUSH2 0x172 SWAP2 SWAP1 PUSH2 0x1C79 JUMP JUMPDEST PUSH2 0x5D2 JUMP JUMPDEST PUSH1 0x40 MLOAD PUSH2 0x185 SWAP3 SWAP2 SWAP1 PUSH2 0x2337 JUMP JUMPDEST PUSH1 0x40 MLOAD DUP1 SWAP2 SUB SWAP1 RETURN JUMPDEST CALLVALUE DUP1 ISZERO PUSH2 0x19A JUMPI PUSH1 0x0 DUP1 REVERT JUMPDEST POP PUSH2 0x1A3 PUSH2 0x92A JUMP JUMPDEST PUSH1 0x40 MLOAD PUSH2 0x1B0 SWAP2 SWAP1 PUSH2 0x231C JUMP JUMPDEST PUSH1 0x40 MLOAD DUP1 SWAP2 SUB SWAP1 RETURN JUMPDEST PUSH2 0x1D3 PUSH1 0x4 DUP1 CALLDATASIZE SUB DUP2 ADD SWAP1 PUSH2 0x1CE SWAP2 SWAP1 PUSH2 0x1C1F JUMP JUMPDEST PUSH2 0x9C9 JUMP JUMPDEST PUSH1 0x40 MLOAD PUSH2 0x1E1 SWAP3 SWAP2 SWAP1 PUSH2 0x2337 JUMP JUMPDEST PUSH1 0x40 MLOAD DUP1 SWAP2 SUB SWAP1 RETURN JUMPDEST CALLVALUE DUP1 ISZERO PUSH2 0x1F6 JUMPI PUSH1 0x0 DUP1 REVERT JUMPDEST POP PUSH2 0x1FF PUSH2 0xC7C JUMP JUMPDEST PUSH1 0x40 MLOAD PUSH2 0x20E SWAP4 SWAP3 SWAP2 SWAP1 PUSH2 0x2390 JUMP JUMPDEST PUSH1 0x40 MLOAD DUP1 SWAP2 SUB SWAP1 RETURN JUMPDEST CALLVALUE DUP1 ISZERO PUSH2 0x223 JUMPI PUSH1 0x0 DUP1 REVERT JUMPDEST POP PUSH2 0x22C PUSH2 0xD82 JUMP JUMPDEST PUSH1 0x40 MLOAD PUSH2 0x239 SWAP2 SWAP1 PUSH2 0x231C JUMP JUMPDEST PUSH1 0x40 MLOAD DUP1 SWAP2 SUB SWAP1 RETURN JUMPDEST CALLVALUE DUP1 ISZERO PUSH2 0x24E JUMPI PUSH1 0x0 DUP1 REVERT JUMPDEST POP PUSH2 0x257 PUSH2 0xE79 JUMP JUMPDEST STOP JUMPDEST CALLVALUE DUP1 ISZERO PUSH2 0x265 JUMPI PUSH1 0x0 DUP1 REVERT JUMPDEST POP PUSH2 0x26E PUSH2 0xF83 JUMP JUMPDEST PUSH1 0x40 MLOAD PUSH2 0x27B SWAP2 SWAP1 PUSH2 0x20E8 JUMP JUMPDEST PUSH1 0x40 MLOAD DUP1 SWAP2 SUB SWAP1 RETURN JUMPDEST CALLVALUE DUP1 ISZERO PUSH2 0x290 JUMPI PUSH1 0x0 DUP1 REVERT JUMPDEST POP PUSH2 0x2AB PUSH1 0x4 DUP1 CALLDATASIZE SUB DUP2 ADD SWAP1 PUSH2 0x2A6 SWAP2 SWAP1 PUSH2 0x1CE6 JUMP JUMPDEST PUSH2 0xFA9 JUMP JUMPDEST STOP JUMPDEST CALLVALUE DUP1 ISZERO PUSH2 0x2B9 JUMPI PUSH1 0x0 DUP1 REVERT JUMPDEST POP PUSH2 0x2D4 PUSH1 0x4 DUP1 CALLDATASIZE SUB DUP2 ADD SWAP1 PUSH2 0x2CF SWAP2 SWAP1 PUSH2 0x1C1F JUMP JUMPDEST PUSH2 0x10A0 JUMP JUMPDEST PUSH1 0x40 MLOAD PUSH2 0x2E1 SWAP2 SWAP1 PUSH2 0x215D JUMP JUMPDEST PUSH1 0x40 MLOAD DUP1 SWAP2 SUB SWAP1 RETURN JUMPDEST PUSH1 0x0 PUSH1 0xC PUSH1 0x1 SWAP1 SLOAD SWAP1 PUSH2 0x100 EXP SWAP1 DIV PUSH20 0xFFFFFFFFFFFFFFFFFFFFFFFFFFFFFFFFFFFFFFFF AND PUSH20 0xFFFFFFFFFFFFFFFFFFFFFFFFFFFFFFFFFFFFFFFF AND PUSH2 0x32D PUSH2 0x1190 JUMP JUMPDEST PUSH20 0xFFFFFFFFFFFFFFFFFFFFFFFFFFFFFFFFFFFFFFFF AND EQ PUSH2 0x383 JUMPI PUSH1 0x40 MLOAD PUSH32 0x8C379A000000000000000000000000000000000000000000000000000000000 DUP2 MSTORE PUSH1 0x4 ADD PUSH2 0x37A SWAP1 PUSH2 0x227C JUMP JUMPDEST PUSH1 0x40 MLOAD DUP1 SWAP2 SUB SWAP1 REVERT JUMPDEST PUSH1 0x4 SLOAD SWAP1 POP SWAP1 JUMP JUMPDEST PUSH1 0xC PUSH1 0x1 SWAP1 SLOAD SWAP1 PUSH2 0x100 EXP SWAP1 DIV PUSH20 0xFFFFFFFFFFFFFFFFFFFFFFFFFFFFFFFFFFFFFFFF AND PUSH20 0xFFFFFFFFFFFFFFFFFFFFFFFFFFFFFFFFFFFFFFFF AND PUSH2 0x3CC PUSH2 0x1190 JUMP JUMPDEST PUSH20 0xFFFFFFFFFFFFFFFFFFFFFFFFFFFFFFFFFFFFFFFF AND EQ PUSH2 0x422 JUMPI PUSH1 0x40 MLOAD PUSH32 0x8C379A000000000000000000000000000000000000000000000000000000000 DUP2 MSTORE PUSH1 0x4 ADD PUSH2 0x419 SWAP1 PUSH2 0x227C JUMP JUMPDEST PUSH1 0x40 MLOAD DUP1 SWAP2 SUB SWAP1 REVERT JUMPDEST PUSH1 0x0 SELFBALANCE SWAP1 POP PUSH1 0x0 DUP2 GT PUSH2 0x46A JUMPI PUSH1 0x40 MLOAD PUSH32 0x8C379A000000000000000000000000000000000000000000000000000000000 DUP2 MSTORE PUSH1 0x4 ADD PUSH2 0x461 SWAP1 PUSH2 0x22DC JUMP JUMPDEST PUSH1 0x40 MLOAD DUP1 SWAP2 SUB SWAP1 REVERT JUMPDEST DUP2 PUSH20 0xFFFFFFFFFFFFFFFFFFFFFFFFFFFFFFFFFFFFFFFF AND PUSH2 0x8FC DUP3 SWAP1 DUP2 ISZERO MUL SWAP1 PUSH1 0x40 MLOAD PUSH1 0x0 PUSH1 0x40 MLOAD DUP1 DUP4 SUB DUP2 DUP6 DUP9 DUP9 CALL SWAP4 POP POP POP POP ISZERO DUP1 ISZERO PUSH2 0x4B0 JUMPI RETURNDATASIZE PUSH1 0x0 DUP1 RETURNDATACOPY RETURNDATASIZE PUSH1 0x0 REVERT JUMPDEST POP POP POP JUMP JUMPDEST PUSH1 0xC PUSH1 0x0 SWAP1 SLOAD SWAP1 PUSH2 0x100 EXP SWAP1 DIV PUSH1 0xFF AND DUP2 JUMP JUMPDEST PUSH1 0xC PUSH1 0x1 SWAP1 SLOAD SWAP1 PUSH2 0x100 EXP SWAP1 DIV PUSH20 0xFFFFFFFFFFFFFFFFFFFFFFFFFFFFFFFFFFFFFFFF AND PUSH20 0xFFFFFFFFFFFFFFFFFFFFFFFFFFFFFFFFFFFFFFFF AND PUSH2 0x509 PUSH2 0x1190 JUMP JUMPDEST PUSH20 0xFFFFFFFFFFFFFFFFFFFFFFFFFFFFFFFFFFFFFFFF AND EQ PUSH2 0x55F JUMPI PUSH1 0x40 MLOAD PUSH32 0x8C379A000000000000000000000000000000000000000000000000000000000 DUP2 MSTORE PUSH1 0x4 ADD PUSH2 0x556 SWAP1 PUSH2 0x227C JUMP JUMPDEST PUSH1 0x40 MLOAD DUP1 SWAP2 SUB SWAP1 REVERT JUMPDEST PUSH1 0x1 ISZERO ISZERO PUSH1 0xC PUSH1 0x0 SWAP1 SLOAD SWAP1 PUSH2 0x100 EXP SWAP1 DIV PUSH1 0xFF AND ISZERO ISZERO EQ PUSH2 0x5B5 JUMPI PUSH1 0x40 MLOAD PUSH32 0x8C379A000000000000000000000000000000000000000000000000000000000 DUP2 MSTORE PUSH1 0x4 ADD PUSH2 0x5AC SWAP1 PUSH2 0x221C JUMP JUMPDEST PUSH1 0x40 MLOAD DUP1 SWAP2 SUB SWAP1 REVERT JUMPDEST PUSH1 0x0 PUSH1 0xC PUSH1 0x0 PUSH2 0x100 EXP DUP2 SLOAD DUP2 PUSH1 0xFF MUL NOT AND SWAP1 DUP4 ISZERO ISZERO MUL OR SWAP1 SSTORE POP JUMP JUMPDEST PUSH1 0x0 PUSH1 0x60 PUSH1 0xC PUSH1 0x1 SWAP1 SLOAD SWAP1 PUSH2 0x100 EXP SWAP1 DIV PUSH20 0xFFFFFFFFFFFFFFFFFFFFFFFFFFFFFFFFFFFFFFFF AND PUSH20 0xFFFFFFFFFFFFFFFFFFFFFFFFFFFFFFFFFFFFFFFF AND PUSH2 0x617 PUSH2 0x1190 JUMP JUMPDEST PUSH20 0xFFFFFFFFFFFFFFFFFFFFFFFFFFFFFFFFFFFFFFFF AND EQ PUSH2 0x66D JUMPI PUSH1 0x40 MLOAD PUSH32 0x8C379A000000000000000000000000000000000000000000000000000000000 DUP2 MSTORE PUSH1 0x4 ADD PUSH2 0x664 SWAP1 PUSH2 0x227C JUMP JUMPDEST PUSH1 0x40 MLOAD DUP1 SWAP2 SUB SWAP1 REVERT JUMPDEST PUSH1 0x0 ISZERO ISZERO PUSH1 0xC PUSH1 0x0 SWAP1 SLOAD SWAP1 PUSH2 0x100 EXP SWAP1 DIV PUSH1 0xFF AND ISZERO ISZERO EQ PUSH2 0x6C3 JUMPI PUSH1 0x40 MLOAD PUSH32 0x8C379A000000000000000000000000000000000000000000000000000000000 DUP2 MSTORE PUSH1 0x4 ADD PUSH2 0x6BA SWAP1 PUSH2 0x229C JUMP JUMPDEST PUSH1 0x40 MLOAD DUP1 SWAP2 SUB SWAP1 REVERT JUMPDEST PUSH1 0x4 DUP4 LT DUP1 ISZERO PUSH2 0x6D3 JUMPI POP PUSH1 0x0 DUP4 GT JUMPDEST PUSH2 0x712 JUMPI PUSH1 0x40 MLOAD PUSH32 0x8C379A000000000000000000000000000000000000000000000000000000000 DUP2 MSTORE PUSH1 0x4 ADD PUSH2 0x709 SWAP1 PUSH2 0x225C JUMP JUMPDEST PUSH1 0x40 MLOAD DUP1 SWAP2 SUB SWAP1 REVERT JUMPDEST PUSH2 0x3E8 PUSH1 0x4 SLOAD LT PUSH2 0x758 JUMPI PUSH1 0x40 MLOAD PUSH32 0x8C379A000000000000000000000000000000000000000000000000000000000 DUP2 MSTORE PUSH1 0x4 ADD PUSH2 0x74F SWAP1 PUSH2 0x22BC JUMP JUMPDEST PUSH1 0x40 MLOAD DUP1 SWAP2 SUB SWAP1 REVERT JUMPDEST PUSH1 0x0 DUP4 DUP2 LT ISZERO PUSH2 0x921 JUMPI PUSH1 0x0 PUSH2 0x76C PUSH2 0x1198 JUMP JUMPDEST SWAP1 POP PUSH2 0x806 DUP7 DUP3 PUSH1 0x5 SLOAD PUSH1 0x2 DUP1 SLOAD PUSH2 0x783 SWAP1 PUSH2 0x25A5 JUMP JUMPDEST DUP1 PUSH1 0x1F ADD PUSH1 0x20 DUP1 SWAP2 DIV MUL PUSH1 0x20 ADD PUSH1 0x40 MLOAD SWAP1 DUP2 ADD PUSH1 0x40 MSTORE DUP1 SWAP3 SWAP2 SWAP1 DUP2 DUP2 MSTORE PUSH1 0x20 ADD DUP3 DUP1 SLOAD PUSH2 0x7AF SWAP1 PUSH2 0x25A5 JUMP JUMPDEST DUP1 ISZERO PUSH2 0x7FC JUMPI DUP1 PUSH1 0x1F LT PUSH2 0x7D1 JUMPI PUSH2 0x100 DUP1 DUP4 SLOAD DIV MUL DUP4 MSTORE SWAP2 PUSH1 0x20 ADD SWAP2 PUSH2 0x7FC JUMP JUMPDEST DUP3 ADD SWAP2 SWAP1 PUSH1 0x0 MSTORE PUSH1 0x20 PUSH1 0x0 KECCAK256 SWAP1 JUMPDEST DUP2 SLOAD DUP2 MSTORE SWAP1 PUSH1 0x1 ADD SWAP1 PUSH1 0x20 ADD DUP1 DUP4 GT PUSH2 0x7DF JUMPI DUP3 SWAP1 SUB PUSH1 0x1F AND DUP3 ADD SWAP2 JUMPDEST POP POP POP POP POP PUSH2 0x148A JUMP JUMPDEST PUSH1 0x4 PUSH1 0x0 DUP2 SLOAD DUP1 SWAP3 SWAP2 SWAP1 PUSH2 0x819 SWAP1 PUSH2 0x2608 JUMP JUMPDEST SWAP2 SWAP1 POP SSTORE POP PUSH1 0xA PUSH1 0x0 DUP8 PUSH20 0xFFFFFFFFFFFFFFFFFFFFFFFFFFFFFFFFFFFFFFFF AND PUSH20 0xFFFFFFFFFFFFFFFFFFFFFFFFFFFFFFFFFFFFFFFF AND DUP2 MSTORE PUSH1 0x20 ADD SWAP1 DUP2 MSTORE PUSH1 0x20 ADD PUSH1 0x0 KECCAK256 PUSH1 0x0 ADD DUP2 SWAP1 DUP1 PUSH1 0x1 DUP2 SLOAD ADD DUP1 DUP3 SSTORE DUP1 SWAP2 POP POP PUSH1 0x1 SWAP1 SUB SWAP1 PUSH1 0x0 MSTORE PUSH1 0x20 PUSH1 0x0 KECCAK256 ADD PUSH1 0x0 SWAP1 SWAP2 SWAP1 SWAP2 SWAP1 SWAP2 POP SSTORE DUP1 PUSH1 0x2 DUP1 DUP1 SLOAD PUSH2 0x896 SWAP1 PUSH2 0x25A5 JUMP JUMPDEST DUP1 PUSH1 0x1F ADD PUSH1 0x20 DUP1 SWAP2 DIV MUL PUSH1 0x20 ADD PUSH1 0x40 MLOAD SWAP1 DUP2 ADD PUSH1 0x40 MSTORE DUP1 SWAP3 SWAP2 SWAP1 DUP2 DUP2 MSTORE PUSH1 0x20 ADD DUP3 DUP1 SLOAD PUSH2 0x8C2 SWAP1 PUSH2 0x25A5 JUMP JUMPDEST DUP1 ISZERO PUSH2 0x90F JUMPI DUP1 PUSH1 0x1F LT PUSH2 0x8E4 JUMPI PUSH2 0x100 DUP1 DUP4 SLOAD DIV MUL DUP4 MSTORE SWAP2 PUSH1 0x20 ADD SWAP2 PUSH2 0x90F JUMP JUMPDEST DUP3 ADD SWAP2 SWAP1 PUSH1 0x0 MSTORE PUSH1 0x20 PUSH1 0x0 KECCAK256 SWAP1 JUMPDEST DUP2 SLOAD DUP2 MSTORE SWAP1 PUSH1 0x1 ADD SWAP1 PUSH1 0x20 ADD DUP1 DUP4 GT PUSH2 0x8F2 JUMPI DUP3 SWAP1 SUB PUSH1 0x1F AND DUP3 ADD SWAP2 JUMPDEST POP POP POP POP POP SWAP1 POP SWAP4 POP SWAP4 POP POP POP PUSH2 0x923 JUMP JUMPDEST POP JUMPDEST SWAP3 POP SWAP3 SWAP1 POP JUMP JUMPDEST PUSH1 0x0 PUSH1 0xC PUSH1 0x1 SWAP1 SLOAD SWAP1 PUSH2 0x100 EXP SWAP1 DIV PUSH20 0xFFFFFFFFFFFFFFFFFFFFFFFFFFFFFFFFFFFFFFFF AND PUSH20 0xFFFFFFFFFFFFFFFFFFFFFFFFFFFFFFFFFFFFFFFF AND PUSH2 0x96D PUSH2 0x1190 JUMP JUMPDEST PUSH20 0xFFFFFFFFFFFFFFFFFFFFFFFFFFFFFFFFFFFFFFFF AND EQ PUSH2 0x9C3 JUMPI PUSH1 0x40 MLOAD PUSH32 0x8C379A000000000000000000000000000000000000000000000000000000000 DUP2 MSTORE PUSH1 0x4 ADD PUSH2 0x9BA SWAP1 PUSH2 0x227C JUMP JUMPDEST PUSH1 0x40 MLOAD DUP1 SWAP2 SUB SWAP1 REVERT JUMPDEST SELFBALANCE SWAP1 POP SWAP1 JUMP JUMPDEST PUSH1 0x0 PUSH1 0x60 PUSH1 0x0 ISZERO ISZERO PUSH1 0xC PUSH1 0x0 SWAP1 SLOAD SWAP1 PUSH2 0x100 EXP SWAP1 DIV PUSH1 0xFF AND ISZERO ISZERO EQ PUSH2 0xA23 JUMPI PUSH1 0x40 MLOAD PUSH32 0x8C379A000000000000000000000000000000000000000000000000000000000 DUP2 MSTORE PUSH1 0x4 ADD PUSH2 0xA1A SWAP1 PUSH2 0x229C JUMP JUMPDEST PUSH1 0x40 MLOAD DUP1 SWAP2 SUB SWAP1 REVERT JUMPDEST PUSH2 0x3E8 PUSH1 0x4 SLOAD LT PUSH2 0xA69 JUMPI PUSH1 0x40 MLOAD PUSH32 0x8C379A000000000000000000000000000000000000000000000000000000000 DUP2 MSTORE PUSH1 0x4 ADD PUSH2 0xA60 SWAP1 PUSH2 0x22BC JUMP JUMPDEST PUSH1 0x40 MLOAD DUP1 SWAP2 SUB SWAP1 REVERT JUMPDEST PUSH1 0x6 SLOAD CALLVALUE EQ PUSH2 0xAAD JUMPI PUSH1 0x40 MLOAD PUSH32 0x8C379A000000000000000000000000000000000000000000000000000000000 DUP2 MSTORE PUSH1 0x4 ADD PUSH2 0xAA4 SWAP1 PUSH2 0x21FC JUMP JUMPDEST PUSH1 0x40 MLOAD DUP1 SWAP2 SUB SWAP1 REVERT JUMPDEST PUSH1 0x0 PUSH2 0xAB7 PUSH2 0x1198 JUMP JUMPDEST SWAP1 POP PUSH2 0xB51 DUP5 DUP3 PUSH1 0x5 SLOAD PUSH1 0x2 DUP1 SLOAD PUSH2 0xACE SWAP1 PUSH2 0x25A5 JUMP JUMPDEST DUP1 PUSH1 0x1F ADD PUSH1 0x20 DUP1 SWAP2 DIV MUL PUSH1 0x20 ADD PUSH1 0x40 MLOAD SWAP1 DUP2 ADD PUSH1 0x40 MSTORE DUP1 SWAP3 SWAP2 SWAP1 DUP2 DUP2 MSTORE PUSH1 0x20 ADD DUP3 DUP1 SLOAD PUSH2 0xAFA SWAP1 PUSH2 0x25A5 JUMP JUMPDEST DUP1 ISZERO PUSH2 0xB47 JUMPI DUP1 PUSH1 0x1F LT PUSH2 0xB1C JUMPI PUSH2 0x100 DUP1 DUP4 SLOAD DIV MUL DUP4 MSTORE SWAP2 PUSH1 0x20 ADD SWAP2 PUSH2 0xB47 JUMP JUMPDEST DUP3 ADD SWAP2 SWAP1 PUSH1 0x0 MSTORE PUSH1 0x20 PUSH1 0x0 KECCAK256 SWAP1 JUMPDEST DUP2 SLOAD DUP2 MSTORE SWAP1 PUSH1 0x1 ADD SWAP1 PUSH1 0x20 ADD DUP1 DUP4 GT PUSH2 0xB2A JUMPI DUP3 SWAP1 SUB PUSH1 0x1F AND DUP3 ADD SWAP2 JUMPDEST POP POP POP POP POP PUSH2 0x148A JUMP JUMPDEST PUSH2 0xB62 PUSH2 0xB5C PUSH2 0x1190 JUMP JUMPDEST CALLVALUE PUSH2 0x1620 JUMP JUMPDEST PUSH1 0x4 PUSH1 0x0 DUP2 SLOAD DUP1 SWAP3 SWAP2 SWAP1 PUSH2 0xB75 SWAP1 PUSH2 0x2608 JUMP JUMPDEST SWAP2 SWAP1 POP SSTORE POP PUSH1 0xA PUSH1 0x0 DUP6 PUSH20 0xFFFFFFFFFFFFFFFFFFFFFFFFFFFFFFFFFFFFFFFF AND PUSH20 0xFFFFFFFFFFFFFFFFFFFFFFFFFFFFFFFFFFFFFFFF AND DUP2 MSTORE PUSH1 0x20 ADD SWAP1 DUP2 MSTORE PUSH1 0x20 ADD PUSH1 0x0 KECCAK256 PUSH1 0x0 ADD DUP2 SWAP1 DUP1 PUSH1 0x1 DUP2 SLOAD ADD DUP1 DUP3 SSTORE DUP1 SWAP2 POP POP PUSH1 0x1 SWAP1 SUB SWAP1 PUSH1 0x0 MSTORE PUSH1 0x20 PUSH1 0x0 KECCAK256 ADD PUSH1 0x0 SWAP1 SWAP2 SWAP1 SWAP2 SWAP1 SWAP2 POP SSTORE DUP1 PUSH1 0x2 DUP1 DUP1 SLOAD PUSH2 0xBF2 SWAP1 PUSH2 0x25A5 JUMP JUMPDEST DUP1 PUSH1 0x1F ADD PUSH1 0x20 DUP1 SWAP2 DIV MUL PUSH1 0x20 ADD PUSH1 0x40 MLOAD SWAP1 DUP2 ADD PUSH1 0x40 MSTORE DUP1 SWAP3 SWAP2 SWAP1 DUP2 DUP2 MSTORE PUSH1 0x20 ADD DUP3 DUP1 SLOAD PUSH2 0xC1E SWAP1 PUSH2 0x25A5 JUMP JUMPDEST DUP1 ISZERO PUSH2 0xC6B JUMPI DUP1 PUSH1 0x1F LT PUSH2 0xC40 JUMPI PUSH2 0x100 DUP1 DUP4 SLOAD DIV MUL DUP4 MSTORE SWAP2 PUSH1 0x20 ADD SWAP2 PUSH2 0xC6B JUMP JUMPDEST DUP3 ADD SWAP2 SWAP1 PUSH1 0x0 MSTORE PUSH1 0x20 PUSH1 0x0 KECCAK256 SWAP1 JUMPDEST DUP2 SLOAD DUP2 MSTORE SWAP1 PUSH1 0x1 ADD SWAP1 PUSH1 0x20 ADD DUP1 DUP4 GT PUSH2 0xC4E JUMPI DUP3 SWAP1 SUB PUSH1 0x1F AND DUP3 ADD SWAP2 JUMPDEST POP POP POP POP POP SWAP1 POP SWAP3 POP SWAP3 POP POP SWAP2 POP SWAP2 JUMP JUMPDEST PUSH1 0x0 DUP1 PUSH1 0x0 PUSH1 0xC PUSH1 0x1 SWAP1 SLOAD SWAP1 PUSH2 0x100 EXP SWAP1 DIV PUSH20 0xFFFFFFFFFFFFFFFFFFFFFFFFFFFFFFFFFFFFFFFF AND PUSH20 0xFFFFFFFFFFFFFFFFFFFFFFFFFFFFFFFFFFFFFFFF AND PUSH2 0xCC2 PUSH2 0x1190 JUMP JUMPDEST PUSH20 0xFFFFFFFFFFFFFFFFFFFFFFFFFFFFFFFFFFFFFFFF AND EQ PUSH2 0xD18 JUMPI PUSH1 0x40 MLOAD PUSH32 0x8C379A000000000000000000000000000000000000000000000000000000000 DUP2 MSTORE PUSH1 0x4 ADD PUSH2 0xD0F SWAP1 PUSH2 0x227C JUMP JUMPDEST PUSH1 0x40 MLOAD DUP1 SWAP2 SUB SWAP1 REVERT JUMPDEST PUSH1 0x0 ISZERO ISZERO PUSH1 0xC PUSH1 0x0 SWAP1 SLOAD SWAP1 PUSH2 0x100 EXP SWAP1 DIV PUSH1 0xFF AND ISZERO ISZERO EQ PUSH2 0xD6E JUMPI PUSH1 0x40 MLOAD PUSH32 0x8C379A000000000000000000000000000000000000000000000000000000000 DUP2 MSTORE PUSH1 0x4 ADD PUSH2 0xD65 SWAP1 PUSH2 0x229C JUMP JUMPDEST PUSH1 0x40 MLOAD DUP1 SWAP2 SUB SWAP1 REVERT JUMPDEST PUSH1 0x7 SLOAD PUSH1 0x8 SLOAD PUSH1 0x9 SLOAD SWAP3 POP SWAP3 POP SWAP3 POP SWAP1 SWAP2 SWAP3 JUMP JUMPDEST PUSH1 0x0 PUSH1 0xC PUSH1 0x1 SWAP1 SLOAD SWAP1 PUSH2 0x100 EXP SWAP1 DIV PUSH20 0xFFFFFFFFFFFFFFFFFFFFFFFFFFFFFFFFFFFFFFFF AND PUSH20 0xFFFFFFFFFFFFFFFFFFFFFFFFFFFFFFFFFFFFFFFF AND PUSH2 0xDC5 PUSH2 0x1190 JUMP JUMPDEST PUSH20 0xFFFFFFFFFFFFFFFFFFFFFFFFFFFFFFFFFFFFFFFF AND EQ PUSH2 0xE1B JUMPI PUSH1 0x40 MLOAD PUSH32 0x8C379A000000000000000000000000000000000000000000000000000000000 DUP2 MSTORE PUSH1 0x4 ADD PUSH2 0xE12 SWAP1 PUSH2 0x227C JUMP JUMPDEST PUSH1 0x40 MLOAD DUP1 SWAP2 SUB SWAP1 REVERT JUMPDEST PUSH1 0x0 ISZERO ISZERO PUSH1 0xC PUSH1 0x0 SWAP1 SLOAD SWAP1 PUSH2 0x100 EXP SWAP1 DIV PUSH1 0xFF AND ISZERO ISZERO EQ PUSH2 0xE71 JUMPI PUSH1 0x40 MLOAD PUSH32 0x8C379A000000000000000000000000000000000000000000000000000000000 DUP2 MSTORE PUSH1 0x4 ADD PUSH2 0xE68 SWAP1 PUSH2 0x229C JUMP JUMPDEST PUSH1 0x40 MLOAD DUP1 SWAP2 SUB SWAP1 REVERT JUMPDEST PUSH1 0x6 SLOAD SWAP1 POP SWAP1 JUMP JUMPDEST PUSH1 0xC PUSH1 0x1 SWAP1 SLOAD SWAP1 PUSH2 0x100 EXP SWAP1 DIV PUSH20 0xFFFFFFFFFFFFFFFFFFFFFFFFFFFFFFFFFFFFFFFF AND PUSH20 0xFFFFFFFFFFFFFFFFFFFFFFFFFFFFFFFFFFFFFFFF AND PUSH2 0xEBA PUSH2 0x1190 JUMP JUMPDEST PUSH20 0xFFFFFFFFFFFFFFFFFFFFFFFFFFFFFFFFFFFFFFFF AND EQ PUSH2 0xF10 JUMPI PUSH1 0x40 MLOAD PUSH32 0x8C379A000000000000000000000000000000000000000000000000000000000 DUP2 MSTORE PUSH1 0x4 ADD PUSH2 0xF07 SWAP1 PUSH2 0x227C JUMP JUMPDEST PUSH1 0x40 MLOAD DUP1 SWAP2 SUB SWAP1 REVERT JUMPDEST PUSH1 0x0 ISZERO ISZERO PUSH1 0xC PUSH1 0x0 SWAP1 SLOAD SWAP1 PUSH2 0x100 EXP SWAP1 DIV PUSH1 0xFF AND ISZERO ISZERO EQ PUSH2 0xF66 JUMPI PUSH1 0x40 MLOAD PUSH32 0x8C379A000000000000000000000000000000000000000000000000000000000 DUP2 MSTORE PUSH1 0x4 ADD PUSH2 0xF5D SWAP1 PUSH2 0x223C JUMP JUMPDEST PUSH1 0x40 MLOAD DUP1 SWAP2 SUB SWAP1 REVERT JUMPDEST PUSH1 0x1 PUSH1 0xC PUSH1 0x0 PUSH2 0x100 EXP DUP2 SLOAD DUP2 PUSH1 0xFF MUL NOT AND SWAP1 DUP4 ISZERO ISZERO MUL OR SWAP1 SSTORE POP JUMP JUMPDEST PUSH1 0xC PUSH1 0x1 SWAP1 SLOAD SWAP1 PUSH2 0x100 EXP SWAP1 DIV PUSH20 0xFFFFFFFFFFFFFFFFFFFFFFFFFFFFFFFFFFFFFFFF AND DUP2 JUMP JUMPDEST PUSH1 0xC PUSH1 0x1 SWAP1 SLOAD SWAP1 PUSH2 0x100 EXP SWAP1 DIV PUSH20 0xFFFFFFFFFFFFFFFFFFFFFFFFFFFFFFFFFFFFFFFF AND PUSH20 0xFFFFFFFFFFFFFFFFFFFFFFFFFFFFFFFFFFFFFFFF AND PUSH2 0xFEA PUSH2 0x1190 JUMP JUMPDEST PUSH20 0xFFFFFFFFFFFFFFFFFFFFFFFFFFFFFFFFFFFFFFFF AND EQ PUSH2 0x1040 JUMPI PUSH1 0x40 MLOAD PUSH32 0x8C379A000000000000000000000000000000000000000000000000000000000 DUP2 MSTORE PUSH1 0x4 ADD PUSH2 0x1037 SWAP1 PUSH2 0x227C JUMP JUMPDEST PUSH1 0x40 MLOAD DUP1 SWAP2 SUB SWAP1 REVERT JUMPDEST PUSH1 0x0 ISZERO ISZERO PUSH1 0xC PUSH1 0x0 SWAP1 SLOAD SWAP1 PUSH2 0x100 EXP SWAP1 DIV PUSH1 0xFF AND ISZERO ISZERO EQ PUSH2 0x1096 JUMPI PUSH1 0x40 MLOAD PUSH32 0x8C379A000000000000000000000000000000000000000000000000000000000 DUP2 MSTORE PUSH1 0x4 ADD PUSH2 0x108D SWAP1 PUSH2 0x229C JUMP JUMPDEST PUSH1 0x40 MLOAD DUP1 SWAP2 SUB SWAP1 REVERT JUMPDEST DUP1 PUSH1 0x6 DUP2 SWAP1 SSTORE POP POP JUMP JUMPDEST PUSH1 0x60 PUSH1 0x0 ISZERO ISZERO PUSH1 0xC PUSH1 0x0 SWAP1 SLOAD SWAP1 PUSH2 0x100 EXP SWAP1 DIV PUSH1 0xFF AND ISZERO ISZERO EQ PUSH2 0x10F8 JUMPI PUSH1 0x40 MLOAD PUSH32 0x8C379A000000000000000000000000000000000000000000000000000000000 DUP2 MSTORE PUSH1 0x4 ADD PUSH2 0x10EF SWAP1 PUSH2 0x229C JUMP JUMPDEST PUSH1 0x40 MLOAD DUP1 SWAP2 SUB SWAP1 REVERT JUMPDEST PUSH1 0xA PUSH1 0x0 DUP4 PUSH20 0xFFFFFFFFFFFFFFFFFFFFFFFFFFFFFFFFFFFFFFFF AND PUSH20 0xFFFFFFFFFFFFFFFFFFFFFFFFFFFFFFFFFFFFFFFF AND DUP2 MSTORE PUSH1 0x20 ADD SWAP1 DUP2 MSTORE PUSH1 0x20 ADD PUSH1 0x0 KECCAK256 PUSH1 0x0 ADD DUP1 SLOAD DUP1 PUSH1 0x20 MUL PUSH1 0x20 ADD PUSH1 0x40 MLOAD SWAP1 DUP2 ADD PUSH1 0x40 MSTORE DUP1 SWAP3 SWAP2 SWAP1 DUP2 DUP2 MSTORE PUSH1 0x20 ADD DUP3 DUP1 SLOAD DUP1 ISZERO PUSH2 0x1184 JUMPI PUSH1 0x20 MUL DUP3 ADD SWAP2 SWAP1 PUSH1 0x0 MSTORE PUSH1 0x20 PUSH1 0x0 KECCAK256 SWAP1 JUMPDEST DUP2 SLOAD DUP2 MSTORE PUSH1 0x20 ADD SWAP1 PUSH1 0x1 ADD SWAP1 DUP1 DUP4 GT PUSH2 0x1170 JUMPI JUMPDEST POP POP POP POP POP SWAP1 POP SWAP2 SWAP1 POP JUMP JUMPDEST PUSH1 0x0 CALLER SWAP1 POP SWAP1 JUMP JUMPDEST PUSH1 0x0 DUP1 ISZERO ISZERO PUSH1 0xC PUSH1 0x0 SWAP1 SLOAD SWAP1 PUSH2 0x100 EXP SWAP1 DIV PUSH1 0xFF AND ISZERO ISZERO EQ PUSH2 0x11EF JUMPI PUSH1 0x40 MLOAD PUSH32 0x8C379A000000000000000000000000000000000000000000000000000000000 DUP2 MSTORE PUSH1 0x4 ADD PUSH2 0x11E6 SWAP1 PUSH2 0x229C JUMP JUMPDEST PUSH1 0x40 MLOAD DUP1 SWAP2 SUB SWAP1 REVERT JUMPDEST PUSH1 0x0 PUSH2 0x11F9 PUSH2 0x167A JUMP JUMPDEST SWAP1 POP PUSH1 0x0 PUSH1 0x3 DUP3 PUSH1 0x14 DUP2 LT PUSH2 0x1211 JUMPI PUSH2 0x1210 PUSH2 0x273D JUMP JUMPDEST JUMPDEST PUSH1 0x20 SWAP2 DUP3 DUP3 DIV ADD SWAP2 SWAP1 MOD SWAP1 SLOAD SWAP1 PUSH2 0x100 EXP SWAP1 DIV PUSH1 0xFF AND PUSH1 0xFF AND SWAP1 POP PUSH1 0x0 DUP2 EQ DUP1 ISZERO PUSH2 0x123E JUMPI POP PUSH1 0x32 PUSH1 0x7 SLOAD LT JUMPDEST ISZERO PUSH2 0x12A5 JUMPI PUSH1 0x7 PUSH1 0x0 DUP2 SLOAD DUP1 SWAP3 SWAP2 SWAP1 PUSH2 0x1256 SWAP1 PUSH2 0x2608 JUMP JUMPDEST SWAP2 SWAP1 POP SSTORE POP PUSH2 0x1266 PUSH1 0x7 SLOAD PUSH2 0x16BE JUMP JUMPDEST PUSH1 0x40 MLOAD PUSH1 0x20 ADD PUSH2 0x1276 SWAP2 SWAP1 PUSH2 0x2056 JUMP JUMPDEST PUSH1 0x40 MLOAD PUSH1 0x20 DUP2 DUP4 SUB SUB DUP2 MSTORE SWAP1 PUSH1 0x40 MSTORE PUSH1 0x2 SWAP1 DUP1 MLOAD SWAP1 PUSH1 0x20 ADD SWAP1 PUSH2 0x129A SWAP3 SWAP2 SWAP1 PUSH2 0x1A9B JUMP JUMPDEST POP DUP1 SWAP3 POP POP POP PUSH2 0x1487 JUMP JUMPDEST PUSH1 0x1 DUP2 GT ISZERO DUP1 ISZERO PUSH2 0x12B8 JUMPI POP PUSH1 0x64 PUSH1 0x8 SLOAD LT JUMPDEST ISZERO PUSH2 0x131F JUMPI PUSH1 0x8 PUSH1 0x0 DUP2 SLOAD DUP1 SWAP3 SWAP2 SWAP1 PUSH2 0x12D0 SWAP1 PUSH2 0x2608 JUMP JUMPDEST SWAP2 SWAP1 POP SSTORE POP PUSH2 0x12E0 PUSH1 0x8 SLOAD PUSH2 0x16BE JUMP JUMPDEST PUSH1 0x40 MLOAD PUSH1 0x20 ADD PUSH2 0x12F0 SWAP2 SWAP1 PUSH2 0x2078 JUMP JUMPDEST PUSH1 0x40 MLOAD PUSH1 0x20 DUP2 DUP4 SUB SUB DUP2 MSTORE SWAP1 PUSH1 0x40 MSTORE PUSH1 0x2 SWAP1 DUP1 MLOAD SWAP1 PUSH1 0x20 ADD SWAP1 PUSH2 0x1314 SWAP3 SWAP2 SWAP1 PUSH2 0x1A9B JUMP JUMPDEST POP DUP1 SWAP3 POP POP POP PUSH2 0x1487 JUMP JUMPDEST PUSH1 0x2 DUP2 GT ISZERO DUP1 ISZERO PUSH2 0x1334 JUMPI POP PUSH2 0x352 PUSH1 0x9 SLOAD GT ISZERO JUMPDEST ISZERO PUSH2 0x13B4 JUMPI PUSH1 0x9 PUSH1 0x0 DUP2 SLOAD DUP1 SWAP3 SWAP2 SWAP1 PUSH2 0x134C SWAP1 PUSH2 0x2608 JUMP JUMPDEST SWAP2 SWAP1 POP SSTORE POP PUSH2 0x135C PUSH1 0x9 SLOAD PUSH2 0x16BE JUMP JUMPDEST PUSH1 0x40 MLOAD PUSH1 0x20 ADD PUSH2 0x136C SWAP2 SWAP1 PUSH2 0x209A JUMP JUMPDEST PUSH1 0x40 MLOAD PUSH1 0x20 DUP2 DUP4 SUB SUB DUP2 MSTORE SWAP1 PUSH1 0x40 MSTORE PUSH1 0x2 SWAP1 DUP1 MLOAD SWAP1 PUSH1 0x20 ADD SWAP1 PUSH2 0x1390 SWAP3 SWAP2 SWAP1 PUSH2 0x1A9B JUMP JUMPDEST PUSH1 0x2 SWAP1 DUP1 SLOAD PUSH2 0x139E SWAP1 PUSH2 0x25A5 JUMP JUMPDEST PUSH2 0x13A9 SWAP3 SWAP2 SWAP1 PUSH2 0x1B21 JUMP JUMPDEST POP DUP1 SWAP3 POP POP POP PUSH2 0x1487 JUMP JUMPDEST PUSH1 0x64 PUSH1 0x8 SLOAD LT ISZERO PUSH2 0x1425 JUMPI PUSH1 0x1 SWAP1 POP PUSH1 0x8 PUSH1 0x0 DUP2 SLOAD DUP1 SWAP3 SWAP2 SWAP1 PUSH2 0x13D6 SWAP1 PUSH2 0x2608 JUMP JUMPDEST SWAP2 SWAP1 POP SSTORE POP PUSH2 0x13E6 PUSH1 0x8 SLOAD PUSH2 0x16BE JUMP JUMPDEST PUSH1 0x40 MLOAD PUSH1 0x20 ADD PUSH2 0x13F6 SWAP2 SWAP1 PUSH2 0x2078 JUMP JUMPDEST PUSH1 0x40 MLOAD PUSH1 0x20 DUP2 DUP4 SUB SUB DUP2 MSTORE SWAP1 PUSH1 0x40 MSTORE PUSH1 0x2 SWAP1 DUP1 MLOAD SWAP1 PUSH1 0x20 ADD SWAP1 PUSH2 0x141A SWAP3 SWAP2 SWAP1 PUSH2 0x1A9B JUMP JUMPDEST POP DUP1 SWAP3 POP POP POP PUSH2 0x1487 JUMP JUMPDEST PUSH1 0x0 SWAP1 POP PUSH1 0x7 PUSH1 0x0 DUP2 SLOAD DUP1 SWAP3 SWAP2 SWAP1 PUSH2 0x143C SWAP1 PUSH2 0x2608 JUMP JUMPDEST SWAP2 SWAP1 POP SSTORE POP PUSH2 0x144C PUSH1 0x7 SLOAD PUSH2 0x16BE JUMP JUMPDEST PUSH1 0x40 MLOAD PUSH1 0x20 ADD PUSH2 0x145C SWAP2 SWAP1 PUSH2 0x2056 JUMP JUMPDEST PUSH1 0x40 MLOAD PUSH1 0x20 DUP2 DUP4 SUB SUB DUP2 MSTORE SWAP1 PUSH1 0x40 MSTORE PUSH1 0x2 SWAP1 DUP1 MLOAD SWAP1 PUSH1 0x20 ADD SWAP1 PUSH2 0x1480 SWAP3 SWAP2 SWAP1 PUSH2 0x1A9B JUMP JUMPDEST POP DUP1 SWAP3 POP POP POP JUMPDEST SWAP1 JUMP JUMPDEST PUSH1 0x0 PUSH20 0xFFFFFFFFFFFFFFFFFFFFFFFFFFFFFFFFFFFFFFFF AND DUP5 PUSH20 0xFFFFFFFFFFFFFFFFFFFFFFFFFFFFFFFFFFFFFFFF AND EQ ISZERO PUSH2 0x14FA JUMPI PUSH1 0x40 MLOAD PUSH32 0x8C379A000000000000000000000000000000000000000000000000000000000 DUP2 MSTORE PUSH1 0x4 ADD PUSH2 0x14F1 SWAP1 PUSH2 0x22FC JUMP JUMPDEST PUSH1 0x40 MLOAD DUP1 SWAP2 SUB SWAP1 REVERT JUMPDEST PUSH1 0x0 PUSH2 0x1504 PUSH2 0x1190 JUMP JUMPDEST SWAP1 POP PUSH2 0x1525 DUP2 PUSH1 0x0 DUP8 PUSH2 0x1516 DUP9 PUSH2 0x181F JUMP JUMPDEST PUSH2 0x151F DUP9 PUSH2 0x181F JUMP JUMPDEST DUP8 PUSH2 0x1899 JUMP JUMPDEST DUP3 PUSH1 0x0 DUP1 DUP7 DUP2 MSTORE PUSH1 0x20 ADD SWAP1 DUP2 MSTORE PUSH1 0x20 ADD PUSH1 0x0 KECCAK256 PUSH1 0x0 DUP8 PUSH20 0xFFFFFFFFFFFFFFFFFFFFFFFFFFFFFFFFFFFFFFFF AND PUSH20 0xFFFFFFFFFFFFFFFFFFFFFFFFFFFFFFFFFFFFFFFF AND DUP2 MSTORE PUSH1 0x20 ADD SWAP1 DUP2 MSTORE PUSH1 0x20 ADD PUSH1 0x0 KECCAK256 PUSH1 0x0 DUP3 DUP3 SLOAD PUSH2 0x1584 SWAP2 SWAP1 PUSH2 0x2431 JUMP JUMPDEST SWAP3 POP POP DUP2 SWAP1 SSTORE POP DUP5 PUSH20 0xFFFFFFFFFFFFFFFFFFFFFFFFFFFFFFFFFFFFFFFF AND PUSH1 0x0 PUSH20 0xFFFFFFFFFFFFFFFFFFFFFFFFFFFFFFFFFFFFFFFF AND DUP3 PUSH20 0xFFFFFFFFFFFFFFFFFFFFFFFFFFFFFFFFFFFFFFFF AND PUSH32 0xC3D58168C5AE7397731D063D5BBF3D657854427343F4C083240F7AACAA2D0F62 DUP8 DUP8 PUSH1 0x40 MLOAD PUSH2 0x1602 SWAP3 SWAP2 SWAP1 PUSH2 0x2367 JUMP JUMPDEST PUSH1 0x40 MLOAD DUP1 SWAP2 SUB SWAP1 LOG4 PUSH2 0x1619 DUP2 PUSH1 0x0 DUP8 DUP8 DUP8 DUP8 PUSH2 0x18A1 JUMP JUMPDEST POP POP POP POP POP JUMP JUMPDEST DUP1 PUSH1 0xB PUSH1 0x0 DUP5 PUSH20 0xFFFFFFFFFFFFFFFFFFFFFFFFFFFFFFFFFFFFFFFF AND PUSH20 0xFFFFFFFFFFFFFFFFFFFFFFFFFFFFFFFFFFFFFFFF AND DUP2 MSTORE PUSH1 0x20 ADD SWAP1 DUP2 MSTORE PUSH1 0x20 ADD PUSH1 0x0 KECCAK256 PUSH1 0x0 DUP3 DUP3 SLOAD PUSH2 0x166F SWAP2 SWAP1 PUSH2 0x2431 JUMP JUMPDEST SWAP3 POP POP DUP2 SWAP1 SSTORE POP POP POP JUMP JUMPDEST PUSH1 0x0 DUP1 PUSH1 0x14 TIMESTAMP CALLER PUSH1 0x40 MLOAD PUSH1 0x20 ADD PUSH2 0x1692 SWAP3 SWAP2 SWAP1 PUSH2 0x20BC JUMP JUMPDEST PUSH1 0x40 MLOAD PUSH1 0x20 DUP2 DUP4 SUB SUB DUP2 MSTORE SWAP1 PUSH1 0x40 MSTORE DUP1 MLOAD SWAP1 PUSH1 0x20 ADD KECCAK256 PUSH1 0x0 SHR PUSH2 0x16B5 SWAP2 SWAP1 PUSH2 0x267F JUMP JUMPDEST SWAP1 POP DUP1 SWAP2 POP POP SWAP1 JUMP JUMPDEST PUSH1 0x60 PUSH1 0x0 DUP3 EQ ISZERO PUSH2 0x1706 JUMPI PUSH1 0x40 MLOAD DUP1 PUSH1 0x40 ADD PUSH1 0x40 MSTORE DUP1 PUSH1 0x1 DUP2 MSTORE PUSH1 0x20 ADD PUSH32 0x3000000000000000000000000000000000000000000000000000000000000000 DUP2 MSTORE POP SWAP1 POP PUSH2 0x181A JUMP JUMPDEST PUSH1 0x0 DUP3 SWAP1 POP PUSH1 0x0 JUMPDEST PUSH1 0x0 DUP3 EQ PUSH2 0x1738 JUMPI DUP1 DUP1 PUSH2 0x1721 SWAP1 PUSH2 0x2608 JUMP JUMPDEST SWAP2 POP POP PUSH1 0xA DUP3 PUSH2 0x1731 SWAP2 SWAP1 PUSH2 0x2487 JUMP JUMPDEST SWAP2 POP PUSH2 0x170E JUMP JUMPDEST PUSH1 0x0 DUP2 PUSH8 0xFFFFFFFFFFFFFFFF DUP2 GT ISZERO PUSH2 0x1754 JUMPI PUSH2 0x1753 PUSH2 0x276C JUMP JUMPDEST JUMPDEST PUSH1 0x40 MLOAD SWAP1 DUP1 DUP3 MSTORE DUP1 PUSH1 0x1F ADD PUSH1 0x1F NOT AND PUSH1 0x20 ADD DUP3 ADD PUSH1 0x40 MSTORE DUP1 ISZERO PUSH2 0x1786 JUMPI DUP2 PUSH1 0x20 ADD PUSH1 0x1 DUP3 MUL DUP1 CALLDATASIZE DUP4 CALLDATACOPY DUP1 DUP3 ADD SWAP2 POP POP SWAP1 POP JUMPDEST POP SWAP1 POP JUMPDEST PUSH1 0x0 DUP6 EQ PUSH2 0x1813 JUMPI PUSH1 0x1 DUP3 PUSH2 0x179F SWAP2 SWAP1 PUSH2 0x24B8 JUMP JUMPDEST SWAP2 POP PUSH1 0xA DUP6 PUSH2 0x17AE SWAP2 SWAP1 PUSH2 0x267F JUMP JUMPDEST PUSH1 0x30 PUSH2 0x17BA SWAP2 SWAP1 PUSH2 0x2431 JUMP JUMPDEST PUSH1 0xF8 SHL DUP2 DUP4 DUP2 MLOAD DUP2 LT PUSH2 0x17D0 JUMPI PUSH2 0x17CF PUSH2 0x273D JUMP JUMPDEST JUMPDEST PUSH1 0x20 ADD ADD SWAP1 PUSH31 0xFFFFFFFFFFFFFFFFFFFFFFFFFFFFFFFFFFFFFFFFFFFFFFFFFFFFFFFFFFFFFF NOT AND SWAP1 DUP2 PUSH1 0x0 BYTE SWAP1 MSTORE8 POP PUSH1 0xA DUP6 PUSH2 0x180C SWAP2 SWAP1 PUSH2 0x2487 JUMP JUMPDEST SWAP5 POP PUSH2 0x178A JUMP JUMPDEST DUP1 SWAP4 POP POP POP POP JUMPDEST SWAP2 SWAP1 POP JUMP JUMPDEST PUSH1 0x60 PUSH1 0x0 PUSH1 0x1 PUSH8 0xFFFFFFFFFFFFFFFF DUP2 GT ISZERO PUSH2 0x183E JUMPI PUSH2 0x183D PUSH2 0x276C JUMP JUMPDEST JUMPDEST PUSH1 0x40 MLOAD SWAP1 DUP1 DUP3 MSTORE DUP1 PUSH1 0x20 MUL PUSH1 0x20 ADD DUP3 ADD PUSH1 0x40 MSTORE DUP1 ISZERO PUSH2 0x186C JUMPI DUP2 PUSH1 0x20 ADD PUSH1 0x20 DUP3 MUL DUP1 CALLDATASIZE DUP4 CALLDATACOPY DUP1 DUP3 ADD SWAP2 POP POP SWAP1 POP JUMPDEST POP SWAP1 POP DUP3 DUP2 PUSH1 0x0 DUP2 MLOAD DUP2 LT PUSH2 0x1884 JUMPI PUSH2 0x1883 PUSH2 0x273D JUMP JUMPDEST JUMPDEST PUSH1 0x20 MUL PUSH1 0x20 ADD ADD DUP2 DUP2 MSTORE POP POP DUP1 SWAP2 POP POP SWAP2 SWAP1 POP JUMP JUMPDEST POP POP POP POP POP POP JUMP JUMPDEST PUSH2 0x18C0 DUP5 PUSH20 0xFFFFFFFFFFFFFFFFFFFFFFFFFFFFFFFFFFFFFFFF AND PUSH2 0x1A88 JUMP JUMPDEST ISZERO PUSH2 0x1A80 JUMPI DUP4 PUSH20 0xFFFFFFFFFFFFFFFFFFFFFFFFFFFFFFFFFFFFFFFF AND PUSH4 0xAE89A248 DUP8 DUP8 DUP7 DUP7 DUP7 PUSH1 0x40 MLOAD DUP7 PUSH4 0xFFFFFFFF AND PUSH1 0xE0 SHL DUP2 MSTORE PUSH1 0x4 ADD PUSH2 0x1906 SWAP6 SWAP5 SWAP4 SWAP3 SWAP2 SWAP1 PUSH2 0x2103 JUMP JUMPDEST PUSH1 0x20 PUSH1 0x40 MLOAD DUP1 DUP4 SUB DUP2 PUSH1 0x0 DUP8 DUP1 EXTCODESIZE ISZERO DUP1 ISZERO PUSH2 0x1920 JUMPI PUSH1 0x0 DUP1 REVERT JUMPDEST POP GAS CALL SWAP3 POP POP POP DUP1 ISZERO PUSH2 0x1951 JUMPI POP PUSH1 0x40 MLOAD RETURNDATASIZE PUSH1 0x1F NOT PUSH1 0x1F DUP3 ADD AND DUP3 ADD DUP1 PUSH1 0x40 MSTORE POP DUP2 ADD SWAP1 PUSH2 0x194E SWAP2 SWAP1 PUSH2 0x1CB9 JUMP JUMPDEST PUSH1 0x1 JUMPDEST PUSH2 0x19F7 JUMPI PUSH2 0x195D PUSH2 0x279B JUMP JUMPDEST DUP1 PUSH4 0x8C379A0 EQ ISZERO PUSH2 0x19BA JUMPI POP PUSH2 0x1972 PUSH2 0x2A9D JUMP JUMPDEST DUP1 PUSH2 0x197D JUMPI POP PUSH2 0x19BC JUMP JUMPDEST DUP1 PUSH1 0x40 MLOAD PUSH32 0x8C379A000000000000000000000000000000000000000000000000000000000 DUP2 MSTORE PUSH1 0x4 ADD PUSH2 0x19B1 SWAP2 SWAP1 PUSH2 0x219A JUMP JUMPDEST PUSH1 0x40 MLOAD DUP1 SWAP2 SUB SWAP1 REVERT JUMPDEST POP JUMPDEST PUSH1 0x40 MLOAD PUSH32 0x8C379A000000000000000000000000000000000000000000000000000000000 DUP2 MSTORE PUSH1 0x4 ADD PUSH2 0x19EE SWAP1 PUSH2 0x21BC JUMP JUMPDEST PUSH1 0x40 MLOAD DUP1 SWAP2 SUB SWAP1 REVERT JUMPDEST PUSH4 0xAE89A248 PUSH1 0xE0 SHL PUSH28 0xFFFFFFFFFFFFFFFFFFFFFFFFFFFFFFFFFFFFFFFFFFFFFFFFFFFFFFFF NOT AND DUP2 PUSH28 0xFFFFFFFFFFFFFFFFFFFFFFFFFFFFFFFFFFFFFFFFFFFFFFFFFFFFFFFF NOT AND EQ PUSH2 0x1A7E JUMPI PUSH1 0x40 MLOAD PUSH32 0x8C379A000000000000000000000000000000000000000000000000000000000 DUP2 MSTORE PUSH1 0x4 ADD PUSH2 0x1A75 SWAP1 PUSH2 0x21DC JUMP JUMPDEST PUSH1 0x40 MLOAD DUP1 SWAP2 SUB SWAP1 REVERT JUMPDEST POP JUMPDEST POP POP POP POP POP POP JUMP JUMPDEST PUSH1 0x0 DUP1 DUP3 EXTCODESIZE SWAP1 POP PUSH1 0x0 DUP2 GT SWAP2 POP POP SWAP2 SWAP1 POP JUMP JUMPDEST DUP3 DUP1 SLOAD PUSH2 0x1AA7 SWAP1 PUSH2 0x25A5 JUMP JUMPDEST SWAP1 PUSH1 0x0 MSTORE PUSH1 0x20 PUSH1 0x0 KECCAK256 SWAP1 PUSH1 0x1F ADD PUSH1 0x20 SWAP1 DIV DUP2 ADD SWAP3 DUP3 PUSH2 0x1AC9 JUMPI PUSH1 0x0 DUP6 SSTORE PUSH2 0x1B10 JUMP JUMPDEST DUP3 PUSH1 0x1F LT PUSH2 0x1AE2 JUMPI DUP1 MLOAD PUSH1 0xFF NOT AND DUP4 DUP1 ADD OR DUP6 SSTORE PUSH2 0x1B10 JUMP JUMPDEST DUP3 DUP1 ADD PUSH1 0x1 ADD DUP6 SSTORE DUP3 ISZERO PUSH2 0x1B10 JUMPI SWAP2 DUP3 ADD JUMPDEST DUP3 DUP2 GT ISZERO PUSH2 0x1B0F JUMPI DUP3 MLOAD DUP3 SSTORE SWAP2 PUSH1 0x20 ADD SWAP2 SWAP1 PUSH1 0x1 ADD SWAP1 PUSH2 0x1AF4 JUMP JUMPDEST JUMPDEST POP SWAP1 POP PUSH2 0x1B1D SWAP2 SWAP1 PUSH2 0x1BAE JUMP JUMPDEST POP SWAP1 JUMP JUMPDEST DUP3 DUP1 SLOAD PUSH2 0x1B2D SWAP1 PUSH2 0x25A5 JUMP JUMPDEST SWAP1 PUSH1 0x0 MSTORE PUSH1 0x20 PUSH1 0x0 KECCAK256 SWAP1 PUSH1 0x1F ADD PUSH1 0x20 SWAP1 DIV DUP2 ADD SWAP3 DUP3 PUSH2 0x1B4F JUMPI PUSH1 0x0 DUP6 SSTORE PUSH2 0x1B9D JUMP JUMPDEST DUP3 PUSH1 0x1F LT PUSH2 0x1B60 JUMPI DUP1 SLOAD DUP6 SSTORE PUSH2 0x1B9D JUMP JUMPDEST DUP3 DUP1 ADD PUSH1 0x1 ADD DUP6 SSTORE DUP3 ISZERO PUSH2 0x1B9D JUMPI PUSH1 0x0 MSTORE PUSH1 0x20 PUSH1 0x0 KECCAK256 SWAP2 PUSH1 0x1F ADD PUSH1 0x20 SWAP1 DIV DUP3 ADD JUMPDEST DUP3 DUP2 GT ISZERO PUSH2 0x1B9C JUMPI DUP3 SLOAD DUP3 SSTORE SWAP2 PUSH1 0x1 ADD SWAP2 SWAP1 PUSH1 0x1 ADD SWAP1 PUSH2 0x1B81 JUMP JUMPDEST JUMPDEST POP SWAP1 POP PUSH2 0x1BAA SWAP2 SWAP1 PUSH2 0x1BAE JUMP JUMPDEST POP SWAP1 JUMP JUMPDEST JUMPDEST DUP1 DUP3 GT ISZERO PUSH2 0x1BC7 JUMPI PUSH1 0x0 DUP2 PUSH1 0x0 SWAP1 SSTORE POP PUSH1 0x1 ADD PUSH2 0x1BAF JUMP JUMPDEST POP SWAP1 JUMP JUMPDEST PUSH1 0x0 DUP2 CALLDATALOAD SWAP1 POP PUSH2 0x1BDA DUP2 PUSH2 0x2B33 JUMP JUMPDEST SWAP3 SWAP2 POP POP JUMP JUMPDEST PUSH1 0x0 DUP2 CALLDATALOAD SWAP1 POP PUSH2 0x1BEF DUP2 PUSH2 0x2B4A JUMP JUMPDEST SWAP3 SWAP2 POP POP JUMP JUMPDEST PUSH1 0x0 DUP2 MLOAD SWAP1 POP PUSH2 0x1C04 DUP2 PUSH2 0x2B61 JUMP JUMPDEST SWAP3 SWAP2 POP POP JUMP JUMPDEST PUSH1 0x0 DUP2 CALLDATALOAD SWAP1 POP PUSH2 0x1C19 DUP2 PUSH2 0x2B78 JUMP JUMPDEST SWAP3 SWAP2 POP POP JUMP JUMPDEST PUSH1 0x0 PUSH1 0x20 DUP3 DUP5 SUB SLT ISZERO PUSH2 0x1C35 JUMPI PUSH2 0x1C34 PUSH2 0x27BD JUMP JUMPDEST JUMPDEST PUSH1 0x0 PUSH2 0x1C43 DUP5 DUP3 DUP6 ADD PUSH2 0x1BCB JUMP JUMPDEST SWAP2 POP POP SWAP3 SWAP2 POP POP JUMP JUMPDEST PUSH1 0x0 PUSH1 0x20 DUP3 DUP5 SUB SLT ISZERO PUSH2 0x1C62 JUMPI PUSH2 0x1C61 PUSH2 0x27BD JUMP JUMPDEST JUMPDEST PUSH1 0x0 PUSH2 0x1C70 DUP5 DUP3 DUP6 ADD PUSH2 0x1BE0 JUMP JUMPDEST SWAP2 POP POP SWAP3 SWAP2 POP POP JUMP JUMPDEST PUSH1 0x0 DUP1 PUSH1 0x40 DUP4 DUP6 SUB SLT ISZERO PUSH2 0x1C90 JUMPI PUSH2 0x1C8F PUSH2 0x27BD JUMP JUMPDEST JUMPDEST PUSH1 0x0 PUSH2 0x1C9E DUP6 DUP3 DUP7 ADD PUSH2 0x1BCB JUMP JUMPDEST SWAP3 POP POP PUSH1 0x20 PUSH2 0x1CAF DUP6 DUP3 DUP7 ADD PUSH2 0x1C0A JUMP JUMPDEST SWAP2 POP POP SWAP3 POP SWAP3 SWAP1 POP JUMP JUMPDEST PUSH1 0x0 PUSH1 0x20 DUP3 DUP5 SUB SLT ISZERO PUSH2 0x1CCF JUMPI PUSH2 0x1CCE PUSH2 0x27BD JUMP JUMPDEST JUMPDEST PUSH1 0x0 PUSH2 0x1CDD DUP5 DUP3 DUP6 ADD PUSH2 0x1BF5 JUMP JUMPDEST SWAP2 POP POP SWAP3 SWAP2 POP POP JUMP JUMPDEST PUSH1 0x0 PUSH1 0x20 DUP3 DUP5 SUB SLT ISZERO PUSH2 0x1CFC JUMPI PUSH2 0x1CFB PUSH2 0x27BD JUMP JUMPDEST JUMPDEST PUSH1 0x0 PUSH2 0x1D0A DUP5 DUP3 DUP6 ADD PUSH2 0x1C0A JUMP JUMPDEST SWAP2 POP POP SWAP3 SWAP2 POP POP JUMP JUMPDEST PUSH1 0x0 PUSH2 0x1D1F DUP4 DUP4 PUSH2 0x2021 JUMP JUMPDEST PUSH1 0x20 DUP4 ADD SWAP1 POP SWAP3 SWAP2 POP POP JUMP JUMPDEST PUSH2 0x1D34 DUP2 PUSH2 0x24FE JUMP JUMPDEST DUP3 MSTORE POP POP JUMP JUMPDEST PUSH2 0x1D43 DUP2 PUSH2 0x24EC JUMP JUMPDEST DUP3 MSTORE POP POP JUMP JUMPDEST PUSH2 0x1D5A PUSH2 0x1D55 DUP3 PUSH2 0x24EC JUMP JUMPDEST PUSH2 0x2651 JUMP JUMPDEST DUP3 MSTORE POP POP JUMP JUMPDEST PUSH1 0x0 PUSH2 0x1D6B DUP3 PUSH2 0x23E1 JUMP JUMPDEST PUSH2 0x1D75 DUP2 DUP6 PUSH2 0x2404 JUMP JUMPDEST SWAP4 POP PUSH2 0x1D80 DUP4 PUSH2 0x23D1 JUMP JUMPDEST DUP1 PUSH1 0x0 JUMPDEST DUP4 DUP2 LT ISZERO PUSH2 0x1DB1 JUMPI DUP2 MLOAD PUSH2 0x1D98 DUP9 DUP3 PUSH2 0x1D13 JUMP JUMPDEST SWAP8 POP PUSH2 0x1DA3 DUP4 PUSH2 0x23F7 JUMP JUMPDEST SWAP3 POP POP PUSH1 0x1 DUP2 ADD SWAP1 POP PUSH2 0x1D84 JUMP JUMPDEST POP DUP6 SWAP4 POP POP POP POP SWAP3 SWAP2 POP POP JUMP JUMPDEST PUSH2 0x1DC7 DUP2 PUSH2 0x2510 JUMP JUMPDEST DUP3 MSTORE POP POP JUMP JUMPDEST PUSH1 0x0 PUSH2 0x1DD8 DUP3 PUSH2 0x23EC JUMP JUMPDEST PUSH2 0x1DE2 DUP2 DUP6 PUSH2 0x2415 JUMP JUMPDEST SWAP4 POP PUSH2 0x1DF2 DUP2 DUP6 PUSH1 0x20 DUP7 ADD PUSH2 0x2572 JUMP JUMPDEST PUSH2 0x1DFB DUP2 PUSH2 0x27C2 JUMP JUMPDEST DUP5 ADD SWAP2 POP POP SWAP3 SWAP2 POP POP JUMP JUMPDEST PUSH1 0x0 PUSH2 0x1E11 DUP3 PUSH2 0x23EC JUMP JUMPDEST PUSH2 0x1E1B DUP2 DUP6 PUSH2 0x2426 JUMP JUMPDEST SWAP4 POP PUSH2 0x1E2B DUP2 DUP6 PUSH1 0x20 DUP7 ADD PUSH2 0x2572 JUMP JUMPDEST DUP1 DUP5 ADD SWAP2 POP POP SWAP3 SWAP2 POP POP JUMP JUMPDEST PUSH1 0x0 PUSH2 0x1E44 PUSH1 0x34 DUP4 PUSH2 0x2415 JUMP JUMPDEST SWAP2 POP PUSH2 0x1E4F DUP3 PUSH2 0x27ED JUMP JUMPDEST PUSH1 0x40 DUP3 ADD SWAP1 POP SWAP2 SWAP1 POP JUMP JUMPDEST PUSH1 0x0 PUSH2 0x1E67 PUSH1 0x28 DUP4 PUSH2 0x2415 JUMP JUMPDEST SWAP2 POP PUSH2 0x1E72 DUP3 PUSH2 0x283C JUMP JUMPDEST PUSH1 0x40 DUP3 ADD SWAP1 POP SWAP2 SWAP1 POP JUMP JUMPDEST PUSH1 0x0 PUSH2 0x1E8A PUSH1 0x8 DUP4 PUSH2 0x2426 JUMP JUMPDEST SWAP2 POP PUSH2 0x1E95 DUP3 PUSH2 0x288B JUMP JUMPDEST PUSH1 0x8 DUP3 ADD SWAP1 POP SWAP2 SWAP1 POP JUMP JUMPDEST PUSH1 0x0 PUSH2 0x1EAD PUSH1 0x5 DUP4 PUSH2 0x2426 JUMP JUMPDEST SWAP2 POP PUSH2 0x1EB8 DUP3 PUSH2 0x28B4 JUMP JUMPDEST PUSH1 0x5 DUP3 ADD SWAP1 POP SWAP2 SWAP1 POP JUMP JUMPDEST PUSH1 0x0 PUSH2 0x1ED0 PUSH1 0x12 DUP4 PUSH2 0x2415 JUMP JUMPDEST SWAP2 POP PUSH2 0x1EDB DUP3 PUSH2 0x28DD JUMP JUMPDEST PUSH1 0x20 DUP3 ADD SWAP1 POP SWAP2 SWAP1 POP JUMP JUMPDEST PUSH1 0x0 PUSH2 0x1EF3 PUSH1 0x1B DUP4 PUSH2 0x2415 JUMP JUMPDEST SWAP2 POP PUSH2 0x1EFE DUP3 PUSH2 0x2906 JUMP JUMPDEST PUSH1 0x20 DUP3 ADD SWAP1 POP SWAP2 SWAP1 POP JUMP JUMPDEST PUSH1 0x0 PUSH2 0x1F16 PUSH1 0x1B DUP4 PUSH2 0x2415 JUMP JUMPDEST SWAP2 POP PUSH2 0x1F21 DUP3 PUSH2 0x292F JUMP JUMPDEST PUSH1 0x20 DUP3 ADD SWAP1 POP SWAP2 SWAP1 POP JUMP JUMPDEST PUSH1 0x0 PUSH2 0x1F39 PUSH1 0x15 DUP4 PUSH2 0x2415 JUMP JUMPDEST SWAP2 POP PUSH2 0x1F44 DUP3 PUSH2 0x2958 JUMP JUMPDEST PUSH1 0x20 DUP3 ADD SWAP1 POP SWAP2 SWAP1 POP JUMP JUMPDEST PUSH1 0x0 PUSH2 0x1F5C PUSH1 0x1C DUP4 PUSH2 0x2415 JUMP JUMPDEST SWAP2 POP PUSH2 0x1F67 DUP3 PUSH2 0x2981 JUMP JUMPDEST PUSH1 0x20 DUP3 ADD SWAP1 POP SWAP2 SWAP1 POP JUMP JUMPDEST PUSH1 0x0 PUSH2 0x1F7F PUSH1 0x1B DUP4 PUSH2 0x2415 JUMP JUMPDEST SWAP2 POP PUSH2 0x1F8A DUP3 PUSH2 0x29AA JUMP JUMPDEST PUSH1 0x20 DUP3 ADD SWAP1 POP SWAP2 SWAP1 POP JUMP JUMPDEST PUSH1 0x0 PUSH2 0x1FA2 PUSH1 0x19 DUP4 PUSH2 0x2415 JUMP JUMPDEST SWAP2 POP PUSH2 0x1FAD DUP3 PUSH2 0x29D3 JUMP JUMPDEST PUSH1 0x20 DUP3 ADD SWAP1 POP SWAP2 SWAP1 POP JUMP JUMPDEST PUSH1 0x0 PUSH2 0x1FC5 PUSH1 0x7 DUP4 PUSH2 0x2426 JUMP JUMPDEST SWAP2 POP PUSH2 0x1FD0 DUP3 PUSH2 0x29FC JUMP JUMPDEST PUSH1 0x7 DUP3 ADD SWAP1 POP SWAP2 SWAP1 POP JUMP JUMPDEST PUSH1 0x0 PUSH2 0x1FE8 PUSH1 0x1D DUP4 PUSH2 0x2415 JUMP JUMPDEST SWAP2 POP PUSH2 0x1FF3 DUP3 PUSH2 0x2A25 JUMP JUMPDEST PUSH1 0x20 DUP3 ADD SWAP1 POP SWAP2 SWAP1 POP JUMP JUMPDEST PUSH1 0x0 PUSH2 0x200B PUSH1 0x21 DUP4 PUSH2 0x2415 JUMP JUMPDEST SWAP2 POP PUSH2 0x2016 DUP3 PUSH2 0x2A4E JUMP JUMPDEST PUSH1 0x40 DUP3 ADD SWAP1 POP SWAP2 SWAP1 POP JUMP JUMPDEST PUSH2 0x202A DUP2 PUSH2 0x2568 JUMP JUMPDEST DUP3 MSTORE POP POP JUMP JUMPDEST PUSH2 0x2039 DUP2 PUSH2 0x2568 JUMP JUMPDEST DUP3 MSTORE POP POP JUMP JUMPDEST PUSH2 0x2050 PUSH2 0x204B DUP3 PUSH2 0x2568 JUMP JUMPDEST PUSH2 0x2675 JUMP JUMPDEST DUP3 MSTORE POP POP JUMP JUMPDEST PUSH1 0x0 PUSH2 0x2061 DUP3 PUSH2 0x1E7D JUMP JUMPDEST SWAP2 POP PUSH2 0x206D DUP3 DUP5 PUSH2 0x1E06 JUMP JUMPDEST SWAP2 POP DUP2 SWAP1 POP SWAP3 SWAP2 POP POP JUMP JUMPDEST PUSH1 0x0 PUSH2 0x2083 DUP3 PUSH2 0x1EA0 JUMP JUMPDEST SWAP2 POP PUSH2 0x208F DUP3 DUP5 PUSH2 0x1E06 JUMP JUMPDEST SWAP2 POP DUP2 SWAP1 POP SWAP3 SWAP2 POP POP JUMP JUMPDEST PUSH1 0x0 PUSH2 0x20A5 DUP3 PUSH2 0x1FB8 JUMP JUMPDEST SWAP2 POP PUSH2 0x20B1 DUP3 DUP5 PUSH2 0x1E06 JUMP JUMPDEST SWAP2 POP DUP2 SWAP1 POP SWAP3 SWAP2 POP POP JUMP JUMPDEST PUSH1 0x0 PUSH2 0x20C8 DUP3 DUP6 PUSH2 0x203F JUMP JUMPDEST PUSH1 0x20 DUP3 ADD SWAP2 POP PUSH2 0x20D8 DUP3 DUP5 PUSH2 0x1D49 JUMP JUMPDEST PUSH1 0x14 DUP3 ADD SWAP2 POP DUP2 SWAP1 POP SWAP4 SWAP3 POP POP POP JUMP JUMPDEST PUSH1 0x0 PUSH1 0x20 DUP3 ADD SWAP1 POP PUSH2 0x20FD PUSH1 0x0 DUP4 ADD DUP5 PUSH2 0x1D2B JUMP JUMPDEST SWAP3 SWAP2 POP POP JUMP JUMPDEST PUSH1 0x0 PUSH1 0xA0 DUP3 ADD SWAP1 POP PUSH2 0x2118 PUSH1 0x0 DUP4 ADD DUP9 PUSH2 0x1D3A JUMP JUMPDEST PUSH2 0x2125 PUSH1 0x20 DUP4 ADD DUP8 PUSH2 0x1D3A JUMP JUMPDEST PUSH2 0x2132 PUSH1 0x40 DUP4 ADD DUP7 PUSH2 0x2030 JUMP JUMPDEST PUSH2 0x213F PUSH1 0x60 DUP4 ADD DUP6 PUSH2 0x2030 JUMP JUMPDEST DUP2 DUP2 SUB PUSH1 0x80 DUP4 ADD MSTORE PUSH2 0x2151 DUP2 DUP5 PUSH2 0x1DCD JUMP JUMPDEST SWAP1 POP SWAP7 SWAP6 POP POP POP POP POP POP JUMP JUMPDEST PUSH1 0x0 PUSH1 0x20 DUP3 ADD SWAP1 POP DUP2 DUP2 SUB PUSH1 0x0 DUP4 ADD MSTORE PUSH2 0x2177 DUP2 DUP5 PUSH2 0x1D60 JUMP JUMPDEST SWAP1 POP SWAP3 SWAP2 POP POP JUMP JUMPDEST PUSH1 0x0 PUSH1 0x20 DUP3 ADD SWAP1 POP PUSH2 0x2194 PUSH1 0x0 DUP4 ADD DUP5 PUSH2 0x1DBE JUMP JUMPDEST SWAP3 SWAP2 POP POP JUMP JUMPDEST PUSH1 0x0 PUSH1 0x20 DUP3 ADD SWAP1 POP DUP2 DUP2 SUB PUSH1 0x0 DUP4 ADD MSTORE PUSH2 0x21B4 DUP2 DUP5 PUSH2 0x1DCD JUMP JUMPDEST SWAP1 POP SWAP3 SWAP2 POP POP JUMP JUMPDEST PUSH1 0x0 PUSH1 0x20 DUP3 ADD SWAP1 POP DUP2 DUP2 SUB PUSH1 0x0 DUP4 ADD MSTORE PUSH2 0x21D5 DUP2 PUSH2 0x1E37 JUMP JUMPDEST SWAP1 POP SWAP2 SWAP1 POP JUMP JUMPDEST PUSH1 0x0 PUSH1 0x20 DUP3 ADD SWAP1 POP DUP2 DUP2 SUB PUSH1 0x0 DUP4 ADD MSTORE PUSH2 0x21F5 DUP2 PUSH2 0x1E5A JUMP JUMPDEST SWAP1 POP SWAP2 SWAP1 POP JUMP JUMPDEST PUSH1 0x0 PUSH1 0x20 DUP3 ADD SWAP1 POP DUP2 DUP2 SUB PUSH1 0x0 DUP4 ADD MSTORE PUSH2 0x2215 DUP2 PUSH2 0x1EC3 JUMP JUMPDEST SWAP1 POP SWAP2 SWAP1 POP JUMP JUMPDEST PUSH1 0x0 PUSH1 0x20 DUP3 ADD SWAP1 POP DUP2 DUP2 SUB PUSH1 0x0 DUP4 ADD MSTORE PUSH2 0x2235 DUP2 PUSH2 0x1EE6 JUMP JUMPDEST SWAP1 POP SWAP2 SWAP1 POP JUMP JUMPDEST PUSH1 0x0 PUSH1 0x20 DUP3 ADD SWAP1 POP DUP2 DUP2 SUB PUSH1 0x0 DUP4 ADD MSTORE PUSH2 0x2255 DUP2 PUSH2 0x1F09 JUMP JUMPDEST SWAP1 POP SWAP2 SWAP1 POP JUMP JUMPDEST PUSH1 0x0 PUSH1 0x20 DUP3 ADD SWAP1 POP DUP2 DUP2 SUB PUSH1 0x0 DUP4 ADD MSTORE PUSH2 0x2275 DUP2 PUSH2 0x1F2C JUMP JUMPDEST SWAP1 POP SWAP2 SWAP1 POP JUMP JUMPDEST PUSH1 0x0 PUSH1 0x20 DUP3 ADD SWAP1 POP DUP2 DUP2 SUB PUSH1 0x0 DUP4 ADD MSTORE PUSH2 0x2295 DUP2 PUSH2 0x1F4F JUMP JUMPDEST SWAP1 POP SWAP2 SWAP1 POP JUMP JUMPDEST PUSH1 0x0 PUSH1 0x20 DUP3 ADD SWAP1 POP DUP2 DUP2 SUB PUSH1 0x0 DUP4 ADD MSTORE PUSH2 0x22B5 DUP2 PUSH2 0x1F72 JUMP JUMPDEST SWAP1 POP SWAP2 SWAP1 POP JUMP JUMPDEST PUSH1 0x0 PUSH1 0x20 DUP3 ADD SWAP1 POP DUP2 DUP2 SUB PUSH1 0x0 DUP4 ADD MSTORE PUSH2 0x22D5 DUP2 PUSH2 0x1F95 JUMP JUMPDEST SWAP1 POP SWAP2 SWAP1 POP JUMP JUMPDEST PUSH1 0x0 PUSH1 0x20 DUP3 ADD SWAP1 POP DUP2 DUP2 SUB PUSH1 0x0 DUP4 ADD MSTORE PUSH2 0x22F5 DUP2 PUSH2 0x1FDB JUMP JUMPDEST SWAP1 POP SWAP2 SWAP1 POP JUMP JUMPDEST PUSH1 0x0 PUSH1 0x20 DUP3 ADD SWAP1 POP DUP2 DUP2 SUB PUSH1 0x0 DUP4 ADD MSTORE PUSH2 0x2315 DUP2 PUSH2 0x1FFE JUMP JUMPDEST SWAP1 POP SWAP2 SWAP1 POP JUMP JUMPDEST PUSH1 0x0 PUSH1 0x20 DUP3 ADD SWAP1 POP PUSH2 0x2331 PUSH1 0x0 DUP4 ADD DUP5 PUSH2 0x2030 JUMP JUMPDEST SWAP3 SWAP2 POP POP JUMP JUMPDEST PUSH1 0x0 PUSH1 0x40 DUP3 ADD SWAP1 POP PUSH2 0x234C PUSH1 0x0 DUP4 ADD DUP6 PUSH2 0x2030 JUMP JUMPDEST DUP2 DUP2 SUB PUSH1 0x20 DUP4 ADD MSTORE PUSH2 0x235E DUP2 DUP5 PUSH2 0x1DCD JUMP JUMPDEST SWAP1 POP SWAP4 SWAP3 POP POP POP JUMP JUMPDEST PUSH1 0x0 PUSH1 0x40 DUP3 ADD SWAP1 POP PUSH2 0x237C PUSH1 0x0 DUP4 ADD DUP6 PUSH2 0x2030 JUMP JUMPDEST PUSH2 0x2389 PUSH1 0x20 DUP4 ADD DUP5 PUSH2 0x2030 JUMP JUMPDEST SWAP4 SWAP3 POP POP POP JUMP JUMPDEST PUSH1 0x0 PUSH1 0x60 DUP3 ADD SWAP1 POP PUSH2 0x23A5 PUSH1 0x0 DUP4 ADD DUP7 PUSH2 0x2030 JUMP JUMPDEST PUSH2 0x23B2 PUSH1 0x20 DUP4 ADD DUP6 PUSH2 0x2030 JUMP JUMPDEST PUSH2 0x23BF PUSH1 0x40 DUP4 ADD DUP5 PUSH2 0x2030 JUMP JUMPDEST SWAP5 SWAP4 POP POP POP POP JUMP JUMPDEST PUSH1 0x0 PUSH1 0x40 MLOAD SWAP1 POP SWAP1 JUMP JUMPDEST PUSH1 0x0 DUP2 SWAP1 POP PUSH1 0x20 DUP3 ADD SWAP1 POP SWAP2 SWAP1 POP JUMP JUMPDEST PUSH1 0x0 DUP2 MLOAD SWAP1 POP SWAP2 SWAP1 POP JUMP JUMPDEST PUSH1 0x0 DUP2 MLOAD SWAP1 POP SWAP2 SWAP1 POP JUMP JUMPDEST PUSH1 0x0 PUSH1 0x20 DUP3 ADD SWAP1 POP SWAP2 SWAP1 POP JUMP JUMPDEST PUSH1 0x0 DUP3 DUP3 MSTORE PUSH1 0x20 DUP3 ADD SWAP1 POP SWAP3 SWAP2 POP POP JUMP JUMPDEST PUSH1 0x0 DUP3 DUP3 MSTORE PUSH1 0x20 DUP3 ADD SWAP1 POP SWAP3 SWAP2 POP POP JUMP JUMPDEST PUSH1 0x0 DUP2 SWAP1 POP SWAP3 SWAP2 POP POP JUMP JUMPDEST PUSH1 0x0 PUSH2 0x243C DUP3 PUSH2 0x2568 JUMP JUMPDEST SWAP2 POP PUSH2 0x2447 DUP4 PUSH2 0x2568 JUMP JUMPDEST SWAP3 POP DUP3 PUSH32 0xFFFFFFFFFFFFFFFFFFFFFFFFFFFFFFFFFFFFFFFFFFFFFFFFFFFFFFFFFFFFFFFF SUB DUP3 GT ISZERO PUSH2 0x247C JUMPI PUSH2 0x247B PUSH2 0x26B0 JUMP JUMPDEST JUMPDEST DUP3 DUP3 ADD SWAP1 POP SWAP3 SWAP2 POP POP JUMP JUMPDEST PUSH1 0x0 PUSH2 0x2492 DUP3 PUSH2 0x2568 JUMP JUMPDEST SWAP2 POP PUSH2 0x249D DUP4 PUSH2 0x2568 JUMP JUMPDEST SWAP3 POP DUP3 PUSH2 0x24AD JUMPI PUSH2 0x24AC PUSH2 0x26DF JUMP JUMPDEST JUMPDEST DUP3 DUP3 DIV SWAP1 POP SWAP3 SWAP2 POP POP JUMP JUMPDEST PUSH1 0x0 PUSH2 0x24C3 DUP3 PUSH2 0x2568 JUMP JUMPDEST SWAP2 POP PUSH2 0x24CE DUP4 PUSH2 0x2568 JUMP JUMPDEST SWAP3 POP DUP3 DUP3 LT ISZERO PUSH2 0x24E1 JUMPI PUSH2 0x24E0 PUSH2 0x26B0 JUMP JUMPDEST JUMPDEST DUP3 DUP3 SUB SWAP1 POP SWAP3 SWAP2 POP POP JUMP JUMPDEST PUSH1 0x0 PUSH2 0x24F7 DUP3 PUSH2 0x2548 JUMP JUMPDEST SWAP1 POP SWAP2 SWAP1 POP JUMP JUMPDEST PUSH1 0x0 PUSH2 0x2509 DUP3 PUSH2 0x2548 JUMP JUMPDEST SWAP1 POP SWAP2 SWAP1 POP JUMP JUMPDEST PUSH1 0x0 DUP2 ISZERO ISZERO SWAP1 POP SWAP2 SWAP1 POP JUMP JUMPDEST PUSH1 0x0 PUSH32 0xFFFFFFFF00000000000000000000000000000000000000000000000000000000 DUP3 AND SWAP1 POP SWAP2 SWAP1 POP JUMP JUMPDEST PUSH1 0x0 PUSH20 0xFFFFFFFFFFFFFFFFFFFFFFFFFFFFFFFFFFFFFFFF DUP3 AND SWAP1 POP SWAP2 SWAP1 POP JUMP JUMPDEST PUSH1 0x0 DUP2 SWAP1 POP SWAP2 SWAP1 POP JUMP JUMPDEST PUSH1 0x0 JUMPDEST DUP4 DUP2 LT ISZERO PUSH2 0x2590 JUMPI DUP1 DUP3 ADD MLOAD DUP2 DUP5 ADD MSTORE PUSH1 0x20 DUP2 ADD SWAP1 POP PUSH2 0x2575 JUMP JUMPDEST DUP4 DUP2 GT ISZERO PUSH2 0x259F JUMPI PUSH1 0x0 DUP5 DUP5 ADD MSTORE JUMPDEST POP POP POP POP JUMP JUMPDEST PUSH1 0x0 PUSH1 0x2 DUP3 DIV SWAP1 POP PUSH1 0x1 DUP3 AND DUP1 PUSH2 0x25BD JUMPI PUSH1 0x7F DUP3 AND SWAP2 POP JUMPDEST PUSH1 0x20 DUP3 LT DUP2 EQ ISZERO PUSH2 0x25D1 JUMPI PUSH2 0x25D0 PUSH2 0x270E JUMP JUMPDEST JUMPDEST POP SWAP2 SWAP1 POP JUMP JUMPDEST PUSH2 0x25E0 DUP3 PUSH2 0x27C2 JUMP JUMPDEST DUP2 ADD DUP2 DUP2 LT PUSH8 0xFFFFFFFFFFFFFFFF DUP3 GT OR ISZERO PUSH2 0x25FF JUMPI PUSH2 0x25FE PUSH2 0x276C JUMP JUMPDEST JUMPDEST DUP1 PUSH1 0x40 MSTORE POP POP POP JUMP JUMPDEST PUSH1 0x0 PUSH2 0x2613 DUP3 PUSH2 0x2568 JUMP JUMPDEST SWAP2 POP PUSH32 0xFFFFFFFFFFFFFFFFFFFFFFFFFFFFFFFFFFFFFFFFFFFFFFFFFFFFFFFFFFFFFFFF DUP3 EQ ISZERO PUSH2 0x2646 JUMPI PUSH2 0x2645 PUSH2 0x26B0 JUMP JUMPDEST JUMPDEST PUSH1 0x1 DUP3 ADD SWAP1 POP SWAP2 SWAP1 POP JUMP JUMPDEST PUSH1 0x0 PUSH2 0x265C DUP3 PUSH2 0x2663 JUMP JUMPDEST SWAP1 POP SWAP2 SWAP1 POP JUMP JUMPDEST PUSH1 0x0 PUSH2 0x266E DUP3 PUSH2 0x27D3 JUMP JUMPDEST SWAP1 POP SWAP2 SWAP1 POP JUMP JUMPDEST PUSH1 0x0 DUP2 SWAP1 POP SWAP2 SWAP1 POP JUMP JUMPDEST PUSH1 0x0 PUSH2 0x268A DUP3 PUSH2 0x2568 JUMP JUMPDEST SWAP2 POP PUSH2 0x2695 DUP4 PUSH2 0x2568 JUMP JUMPDEST SWAP3 POP DUP3 PUSH2 0x26A5 JUMPI PUSH2 0x26A4 PUSH2 0x26DF JUMP JUMPDEST JUMPDEST DUP3 DUP3 MOD SWAP1 POP SWAP3 SWAP2 POP POP JUMP JUMPDEST PUSH32 0x4E487B7100000000000000000000000000000000000000000000000000000000 PUSH1 0x0 MSTORE PUSH1 0x11 PUSH1 0x4 MSTORE PUSH1 0x24 PUSH1 0x0 REVERT JUMPDEST PUSH32 0x4E487B7100000000000000000000000000000000000000000000000000000000 PUSH1 0x0 MSTORE PUSH1 0x12 PUSH1 0x4 MSTORE PUSH1 0x24 PUSH1 0x0 REVERT JUMPDEST PUSH32 0x4E487B7100000000000000000000000000000000000000000000000000000000 PUSH1 0x0 MSTORE PUSH1 0x22 PUSH1 0x4 MSTORE PUSH1 0x24 PUSH1 0x0 REVERT JUMPDEST PUSH32 0x4E487B7100000000000000000000000000000000000000000000000000000000 PUSH1 0x0 MSTORE PUSH1 0x32 PUSH1 0x4 MSTORE PUSH1 0x24 PUSH1 0x0 REVERT JUMPDEST PUSH32 0x4E487B7100000000000000000000000000000000000000000000000000000000 PUSH1 0x0 MSTORE PUSH1 0x41 PUSH1 0x4 MSTORE PUSH1 0x24 PUSH1 0x0 REVERT JUMPDEST PUSH1 0x0 PUSH1 0x3 RETURNDATASIZE GT ISZERO PUSH2 0x27BA JUMPI PUSH1 0x4 PUSH1 0x0 DUP1 RETURNDATACOPY PUSH2 0x27B7 PUSH1 0x0 MLOAD PUSH2 0x27E0 JUMP JUMPDEST SWAP1 POP JUMPDEST SWAP1 JUMP JUMPDEST PUSH1 0x0 DUP1 REVERT JUMPDEST PUSH1 0x0 PUSH1 0x1F NOT PUSH1 0x1F DUP4 ADD AND SWAP1 POP SWAP2 SWAP1 POP JUMP JUMPDEST PUSH1 0x0 DUP2 PUSH1 0x60 SHL SWAP1 POP SWAP2 SWAP1 POP JUMP JUMPDEST PUSH1 0x0 DUP2 PUSH1 0xE0 SHR SWAP1 POP SWAP2 SWAP1 POP JUMP JUMPDEST PUSH32 0x455243313135353A207472616E7366657220746F206E6F6E2045524331313535 PUSH1 0x0 DUP3 ADD MSTORE PUSH32 0x526563656976657220696D706C656D656E746572000000000000000000000000 PUSH1 0x20 DUP3 ADD MSTORE POP JUMP JUMPDEST PUSH32 0x455243313135353A204552433131353552656365697665722072656A65637465 PUSH1 0x0 DUP3 ADD MSTORE PUSH32 0x6420746F6B656E73000000000000000000000000000000000000000000000000 PUSH1 0x20 DUP3 ADD MSTORE POP JUMP JUMPDEST PUSH32 0x4469616D6F6E645F000000000000000000000000000000000000000000000000 PUSH1 0x0 DUP3 ADD MSTORE POP JUMP JUMPDEST PUSH32 0x476F6C645F000000000000000000000000000000000000000000000000000000 PUSH1 0x0 DUP3 ADD MSTORE POP JUMP JUMPDEST PUSH32 0x4E6F7420456E6F7567682042616C616E63650000000000000000000000000000 PUSH1 0x0 DUP3 ADD MSTORE POP JUMP JUMPDEST PUSH32 0x44726F707369746520697320616C72656164792052756E6E696E670000000000 PUSH1 0x0 DUP3 ADD MSTORE POP JUMP JUMPDEST PUSH32 0x44726F707369746520697320616C72656164792053746F707065640000000000 PUSH1 0x0 DUP3 ADD MSTORE POP JUMP JUMPDEST PUSH32 0x596F752063616E206D696E7420312D33204E4654730000000000000000000000 PUSH1 0x0 DUP3 ADD MSTORE POP JUMP JUMPDEST PUSH32 0x4F6E6C79204E46542D4553204F776E65722063616E2041636365737300000000 PUSH1 0x0 DUP3 ADD MSTORE POP JUMP JUMPDEST PUSH32 0x44726F7073697465206973206E6F74204F70656E6564205965742E0000000000 PUSH1 0x0 DUP3 ADD MSTORE POP JUMP JUMPDEST PUSH32 0x4D6178204D696E74696E67204C696D6974207265616368656400000000000000 PUSH1 0x0 DUP3 ADD MSTORE POP JUMP JUMPDEST PUSH32 0x53696C7665725F00000000000000000000000000000000000000000000000000 PUSH1 0x0 DUP3 ADD MSTORE POP JUMP JUMPDEST PUSH32 0x4572726F7221204E6F2042616C616E636520746F207769746864726177000000 PUSH1 0x0 DUP3 ADD MSTORE POP JUMP JUMPDEST PUSH32 0x455243313135353A206D696E7420746F20746865207A65726F20616464726573 PUSH1 0x0 DUP3 ADD MSTORE PUSH32 0x7300000000000000000000000000000000000000000000000000000000000000 PUSH1 0x20 DUP3 ADD MSTORE POP JUMP JUMPDEST PUSH1 0x0 PUSH1 0x44 RETURNDATASIZE LT ISZERO PUSH2 0x2AAD JUMPI PUSH2 0x2B30 JUMP JUMPDEST PUSH2 0x2AB5 PUSH2 0x23C7 JUMP JUMPDEST PUSH1 0x4 RETURNDATASIZE SUB PUSH1 0x4 DUP3 RETURNDATACOPY DUP1 MLOAD RETURNDATASIZE PUSH1 0x24 DUP3 ADD GT PUSH8 0xFFFFFFFFFFFFFFFF DUP3 GT OR ISZERO PUSH2 0x2ADD JUMPI POP POP PUSH2 0x2B30 JUMP JUMPDEST DUP1 DUP3 ADD DUP1 MLOAD PUSH8 0xFFFFFFFFFFFFFFFF DUP2 GT ISZERO PUSH2 0x2AFB JUMPI POP POP POP POP PUSH2 0x2B30 JUMP JUMPDEST DUP1 PUSH1 0x20 DUP4 ADD ADD PUSH1 0x4 RETURNDATASIZE SUB DUP6 ADD DUP2 GT ISZERO PUSH2 0x2B18 JUMPI POP POP POP POP POP PUSH2 0x2B30 JUMP JUMPDEST PUSH2 0x2B27 DUP3 PUSH1 0x20 ADD DUP6 ADD DUP7 PUSH2 0x25D7 JUMP JUMPDEST DUP3 SWAP6 POP POP POP POP POP POP JUMPDEST SWAP1 JUMP JUMPDEST PUSH2 0x2B3C DUP2 PUSH2 0x24EC JUMP JUMPDEST DUP2 EQ PUSH2 0x2B47 JUMPI PUSH1 0x0 DUP1 REVERT JUMPDEST POP JUMP JUMPDEST PUSH2 0x2B53 DUP2 PUSH2 0x24FE JUMP JUMPDEST DUP2 EQ PUSH2 0x2B5E JUMPI PUSH1 0x0 DUP1 REVERT JUMPDEST POP JUMP JUMPDEST PUSH2 0x2B6A DUP2 PUSH2 0x251C JUMP JUMPDEST DUP2 EQ PUSH2 0x2B75 JUMPI PUSH1 0x0 DUP1 REVERT JUMPDEST POP JUMP JUMPDEST PUSH2 0x2B81 DUP2 PUSH2 0x2568 JUMP JUMPDEST DUP2 EQ PUSH2 0x2B8C JUMPI PUSH1 0x0 DUP1 REVERT JUMPDEST POP JUMP INVALID LOG2 PUSH5 0x6970667358 0x22 SLT KECCAK256 PUSH32 0xA80AD5A19EFE5E2C0D28D4BFEB65D905DE133B173019E6126B883E97A958A164 PUSH20 0x6F6C634300080700330000000000000000000000 "
				},
				"gasEstimates": {
					"creation": {
						"codeDepositCost": "2241000",
						"executionCost": "infinite",
						"totalCost": "infinite"
					},
					"external": {
						"ContractBalance()": "2802",
						"CryptoRandomMint(address)": "infinite",
						"FiatRandomMint(address,uint256)": "infinite",
						"IsPaused()": "2516",
						"Owner()": "2608",
						"checkMintedCategoryWise()": "infinite",
						"checkTotalMinted()": "4693",
						"getMintFee()": "6930",
						"openDropsite()": "28904",
						"returnOwner(address)": "infinite",
						"setMintFee(uint256)": "27012",
						"stopDropsite()": "28859",
						"withDraw(address)": "infinite"
					},
					"internal": {
						"depositAmount(address,uint256)": "infinite",
						"random()": "infinite",
						"updateConditions()": "infinite"
					}
				},
				"methodIdentifiers": {
					"ContractBalance()": "3b668059",
					"CryptoRandomMint(address)": "3d65df70",
					"FiatRandomMint(address,uint256)": "27a8a072",
					"IsPaused()": "1309a563",
					"Owner()": "b4a99a4e",
					"checkMintedCategoryWise()": "60daa851",
					"checkTotalMinted()": "0390c11c",
					"getMintFee()": "7a5caab3",
					"openDropsite()": "15460259",
					"returnOwner(address)": "fd6c3b1b",
					"setMintFee(uint256)": "eddd0d9c",
					"stopDropsite()": "aa90c726",
					"withDraw(address)": "0a67d2c7"
				}
			},
			"userdoc": {
				"kind": "user",
				"methods": {},
				"version": 1
			}
		}
	}
}