{
	"NFTES_Drop.sol": {
		"NFTES_Drop": {
			"abi": [
				{
					"inputs": [
						{
							"internalType": "string",
							"name": "name",
							"type": "string"
						}
					],
					"stateMutability": "nonpayable",
					"type": "constructor"
				},
				{
					"anonymous": false,
					"inputs": [
						{
							"indexed": true,
							"internalType": "address",
							"name": "operator",
							"type": "address"
						},
						{
							"indexed": true,
							"internalType": "address",
							"name": "from",
							"type": "address"
						},
						{
							"indexed": true,
							"internalType": "address",
							"name": "to",
							"type": "address"
						},
						{
							"indexed": false,
							"internalType": "uint256",
							"name": "id",
							"type": "uint256"
						},
						{
							"indexed": false,
							"internalType": "uint256",
							"name": "value",
							"type": "uint256"
						}
					],
					"name": "TransferSingle",
					"type": "event"
				},
				{
					"inputs": [],
					"name": "Owner",
					"outputs": [
						{
							"internalType": "address payable",
							"name": "",
							"type": "address"
						}
					],
					"stateMutability": "view",
					"type": "function"
				},
				{
					"inputs": [
						{
							"internalType": "address",
							"name": "newOwnerAddr",
							"type": "address"
						}
					],
					"name": "changeOwner",
					"outputs": [],
					"stateMutability": "nonpayable",
					"type": "function"
				},
				{
					"inputs": [],
					"name": "checkMintedCategoryWise",
					"outputs": [
						{
							"internalType": "uint256",
							"name": "",
							"type": "uint256"
						},
						{
							"internalType": "uint256",
							"name": "",
							"type": "uint256"
						},
						{
							"internalType": "uint256",
							"name": "",
							"type": "uint256"
						}
					],
					"stateMutability": "view",
					"type": "function"
				},
				{
					"inputs": [],
					"name": "checkTotalMinted",
					"outputs": [
						{
							"internalType": "uint256",
							"name": "",
							"type": "uint256"
						}
					],
					"stateMutability": "view",
					"type": "function"
				},
				{
					"inputs": [],
					"name": "contractBalance",
					"outputs": [
						{
							"internalType": "uint256",
							"name": "",
							"type": "uint256"
						}
					],
					"stateMutability": "view",
					"type": "function"
				},
				{
					"inputs": [
						{
							"internalType": "address",
							"name": "user_addr",
							"type": "address"
						},
						{
							"internalType": "uint256",
							"name": "noOfMints",
							"type": "uint256"
						}
					],
					"name": "cryptoRandomMint",
					"outputs": [
						{
							"internalType": "uint256[]",
							"name": "",
							"type": "uint256[]"
						}
					],
					"stateMutability": "payable",
					"type": "function"
				},
				{
					"inputs": [
						{
							"internalType": "address",
							"name": "user_addr",
							"type": "address"
						},
						{
							"internalType": "uint256",
							"name": "noOfMints",
							"type": "uint256"
						}
					],
					"name": "fiatRandomMint",
					"outputs": [
						{
							"internalType": "uint256[]",
							"name": "",
							"type": "uint256[]"
						}
					],
					"stateMutability": "nonpayable",
					"type": "function"
				},
				{
					"inputs": [],
					"name": "getMintFee",
					"outputs": [
						{
							"internalType": "uint256",
							"name": "",
							"type": "uint256"
						}
					],
					"stateMutability": "view",
					"type": "function"
				},
				{
					"inputs": [],
					"name": "isPaused",
					"outputs": [
						{
							"internalType": "bool",
							"name": "",
							"type": "bool"
						}
					],
					"stateMutability": "view",
					"type": "function"
				},
				{
					"inputs": [],
					"name": "openDropsite",
					"outputs": [],
					"stateMutability": "nonpayable",
					"type": "function"
				},
				{
					"inputs": [
						{
							"internalType": "address",
							"name": "user_addr",
							"type": "address"
						}
					],
					"name": "randomMinting",
					"outputs": [
						{
							"internalType": "uint256",
							"name": "",
							"type": "uint256"
						},
						{
							"internalType": "string",
							"name": "",
							"type": "string"
						}
					],
					"stateMutability": "payable",
					"type": "function"
				},
				{
					"inputs": [
						{
							"internalType": "address",
							"name": "addr",
							"type": "address"
						}
					],
					"name": "returnOwner",
					"outputs": [
						{
							"internalType": "uint256[]",
							"name": "",
							"type": "uint256[]"
						}
					],
					"stateMutability": "view",
					"type": "function"
				},
				{
					"inputs": [
						{
							"internalType": "uint256",
							"name": "_mintFee",
							"type": "uint256"
						}
					],
					"name": "setMintFee",
					"outputs": [],
					"stateMutability": "nonpayable",
					"type": "function"
				},
				{
					"inputs": [],
					"name": "stopDropsite",
					"outputs": [],
					"stateMutability": "nonpayable",
					"type": "function"
				},
				{
					"inputs": [
						{
							"internalType": "address payable",
							"name": "to",
							"type": "address"
						}
					],
					"name": "withDraw",
					"outputs": [],
					"stateMutability": "payable",
					"type": "function"
				}
			],
			"devdoc": {
				"kind": "dev",
				"methods": {},
				"version": 1
			},
			"evm": {
				"assembly": "    /* \"NFTES_Drop.sol\":146:8316  contract NFTES_Drop is ERC1155_Drop {... */\n  mstore(0x40, 0x80)\n    /* \"NFTES_Drop.sol\":236:252  string data = \"\" */\n  mload(0x40)\n  dup1\n  0x20\n  add\n  0x40\n  mstore\n  dup1\n  0x00\n  dup2\n  mstore\n  pop\n  0x02\n  swap1\n  dup1\n  mload\n  swap1\n  0x20\n  add\n  swap1\n  tag_1\n  swap3\n  swap2\n  swap1\n  tag_2\n  jump\t// in\ntag_1:\n  pop\n    /* \"NFTES_Drop.sol\":435:686  uint8[20] private nums = [... */\n  mload(0x40)\n  dup1\n  0x0280\n  add\n  0x40\n  mstore\n  dup1\n    /* \"NFTES_Drop.sol\":470:471  0 */\n  0x00\n    /* \"NFTES_Drop.sol\":435:686  uint8[20] private nums = [... */\n  0xff\n  and\n  dup2\n  mstore\n  0x20\n  add\n    /* \"NFTES_Drop.sol\":481:482  1 */\n  0x01\n    /* \"NFTES_Drop.sol\":435:686  uint8[20] private nums = [... */\n  0xff\n  and\n  dup2\n  mstore\n  0x20\n  add\n    /* \"NFTES_Drop.sol\":492:493  1 */\n  0x01\n    /* \"NFTES_Drop.sol\":435:686  uint8[20] private nums = [... */\n  0xff\n  and\n  dup2\n  mstore\n  0x20\n  add\n    /* \"NFTES_Drop.sol\":503:504  2 */\n  0x02\n    /* \"NFTES_Drop.sol\":435:686  uint8[20] private nums = [... */\n  0xff\n  and\n  dup2\n  mstore\n  0x20\n  add\n    /* \"NFTES_Drop.sol\":514:515  2 */\n  0x02\n    /* \"NFTES_Drop.sol\":435:686  uint8[20] private nums = [... */\n  0xff\n  and\n  dup2\n  mstore\n  0x20\n  add\n    /* \"NFTES_Drop.sol\":525:526  2 */\n  0x02\n    /* \"NFTES_Drop.sol\":435:686  uint8[20] private nums = [... */\n  0xff\n  and\n  dup2\n  mstore\n  0x20\n  add\n    /* \"NFTES_Drop.sol\":536:537  2 */\n  0x02\n    /* \"NFTES_Drop.sol\":435:686  uint8[20] private nums = [... */\n  0xff\n  and\n  dup2\n  mstore\n  0x20\n  add\n    /* \"NFTES_Drop.sol\":547:548  2 */\n  0x02\n    /* \"NFTES_Drop.sol\":435:686  uint8[20] private nums = [... */\n  0xff\n  and\n  dup2\n  mstore\n  0x20\n  add\n    /* \"NFTES_Drop.sol\":558:559  2 */\n  0x02\n    /* \"NFTES_Drop.sol\":435:686  uint8[20] private nums = [... */\n  0xff\n  and\n  dup2\n  mstore\n  0x20\n  add\n    /* \"NFTES_Drop.sol\":569:570  2 */\n  0x02\n    /* \"NFTES_Drop.sol\":435:686  uint8[20] private nums = [... */\n  0xff\n  and\n  dup2\n  mstore\n  0x20\n  add\n    /* \"NFTES_Drop.sol\":580:581  2 */\n  0x02\n    /* \"NFTES_Drop.sol\":435:686  uint8[20] private nums = [... */\n  0xff\n  and\n  dup2\n  mstore\n  0x20\n  add\n    /* \"NFTES_Drop.sol\":591:592  2 */\n  0x02\n    /* \"NFTES_Drop.sol\":435:686  uint8[20] private nums = [... */\n  0xff\n  and\n  dup2\n  mstore\n  0x20\n  add\n    /* \"NFTES_Drop.sol\":602:603  2 */\n  0x02\n    /* \"NFTES_Drop.sol\":435:686  uint8[20] private nums = [... */\n  0xff\n  and\n  dup2\n  mstore\n  0x20\n  add\n    /* \"NFTES_Drop.sol\":613:614  2 */\n  0x02\n    /* \"NFTES_Drop.sol\":435:686  uint8[20] private nums = [... */\n  0xff\n  and\n  dup2\n  mstore\n  0x20\n  add\n    /* \"NFTES_Drop.sol\":624:625  2 */\n  0x02\n    /* \"NFTES_Drop.sol\":435:686  uint8[20] private nums = [... */\n  0xff\n  and\n  dup2\n  mstore\n  0x20\n  add\n    /* \"NFTES_Drop.sol\":635:636  2 */\n  0x02\n    /* \"NFTES_Drop.sol\":435:686  uint8[20] private nums = [... */\n  0xff\n  and\n  dup2\n  mstore\n  0x20\n  add\n    /* \"NFTES_Drop.sol\":646:647  2 */\n  0x02\n    /* \"NFTES_Drop.sol\":435:686  uint8[20] private nums = [... */\n  0xff\n  and\n  dup2\n  mstore\n  0x20\n  add\n    /* \"NFTES_Drop.sol\":657:658  2 */\n  0x02\n    /* \"NFTES_Drop.sol\":435:686  uint8[20] private nums = [... */\n  0xff\n  and\n  dup2\n  mstore\n  0x20\n  add\n    /* \"NFTES_Drop.sol\":668:669  2 */\n  0x02\n    /* \"NFTES_Drop.sol\":435:686  uint8[20] private nums = [... */\n  0xff\n  and\n  dup2\n  mstore\n  0x20\n  add\n    /* \"NFTES_Drop.sol\":679:680  2 */\n  0x02\n    /* \"NFTES_Drop.sol\":435:686  uint8[20] private nums = [... */\n  0xff\n  and\n  dup2\n  mstore\n  pop\n  0x03\n  swap1\n  0x14\n  tag_3\n  swap3\n  swap2\n  swap1\n  tag_4\n  jump\t// in\ntag_3:\n  pop\n    /* \"NFTES_Drop.sol\":1561:1565  true */\n  0x01\n    /* \"NFTES_Drop.sol\":1538:1565  bool public isPaused = true */\n  0x0c\n  exp(0x0100, 0x00)\n  dup2\n  sload\n  dup2\n  0xff\n  mul\n  not\n  and\n  swap1\n  dup4\n  iszero\n  iszero\n  mul\n  or\n  swap1\n  sstore\n  pop\n    /* \"NFTES_Drop.sol\":1632:1893  constructor(string memory name) {... */\n  callvalue\n  dup1\n  iszero\n  tag_5\n  jumpi\n  0x00\n  dup1\n  revert\ntag_5:\n  pop\n  mload(0x40)\n  sub(codesize, bytecodeSize)\n  dup1\n  bytecodeSize\n  dup4\n  codecopy\n  dup2\n  dup2\n  add\n  0x40\n  mstore\n  dup2\n  add\n  swap1\n  tag_6\n  swap2\n  swap1\n  tag_7\n  jump\t// in\ntag_6:\n    /* \"NFTES_Drop.sol\":1682:1686  name */\n  dup1\n    /* \"NFTES_Drop.sol\":1674:1679  _name */\n  0x0d\n    /* \"NFTES_Drop.sol\":1674:1686  _name = name */\n  swap1\n  dup1\n  mload\n  swap1\n  0x20\n  add\n  swap1\n  tag_10\n  swap3\n  swap2\n  swap1\n  tag_2\n  jump\t// in\ntag_10:\n  pop\n    /* \"NFTES_Drop.sol\":1712:1722  msg.sender */\n  caller\n    /* \"NFTES_Drop.sol\":1696:1701  Owner */\n  0x0c\n  0x01\n    /* \"NFTES_Drop.sol\":1696:1723  Owner = payable(msg.sender) */\n  0x0100\n  exp\n  dup2\n  sload\n  dup2\n  0xffffffffffffffffffffffffffffffffffffffff\n  mul\n  not\n  and\n  swap1\n  dup4\n  0xffffffffffffffffffffffffffffffffffffffff\n  and\n  mul\n  or\n  swap1\n  sstore\n  pop\n    /* \"NFTES_Drop.sol\":1752:1753  0 */\n  0x00\n    /* \"NFTES_Drop.sol\":1734:1749  totalNFTsMinted */\n  0x04\n    /* \"NFTES_Drop.sol\":1734:1753  totalNFTsMinted = 0 */\n  dup2\n  swap1\n  sstore\n  pop\n    /* \"NFTES_Drop.sol\":1797:1798  1 */\n  0x01\n    /* \"NFTES_Drop.sol\":1783:1794  numOfCopies */\n  0x05\n    /* \"NFTES_Drop.sol\":1783:1798  numOfCopies = 1 */\n  dup2\n  swap1\n  sstore\n  pop\n    /* \"NFTES_Drop.sol\":1847:1848  0 */\n  0x00\n    /* \"NFTES_Drop.sol\":1837:1844  Diamond */\n  0x07\n    /* \"NFTES_Drop.sol\":1837:1848  Diamond = 0 */\n  dup2\n  swap1\n  sstore\n  pop\n    /* \"NFTES_Drop.sol\":1865:1866  0 */\n  0x00\n    /* \"NFTES_Drop.sol\":1858:1862  Gold */\n  0x08\n    /* \"NFTES_Drop.sol\":1858:1866  Gold = 0 */\n  dup2\n  swap1\n  sstore\n  pop\n    /* \"NFTES_Drop.sol\":1885:1886  0 */\n  0x00\n    /* \"NFTES_Drop.sol\":1876:1882  Silver */\n  0x09\n    /* \"NFTES_Drop.sol\":1876:1886  Silver = 0 */\n  dup2\n  swap1\n  sstore\n  pop\n    /* \"NFTES_Drop.sol\":1632:1893  constructor(string memory name) {... */\n  pop\n    /* \"NFTES_Drop.sol\":146:8316  contract NFTES_Drop is ERC1155_Drop {... */\n  jump(tag_11)\ntag_2:\n  dup3\n  dup1\n  sload\n  tag_12\n  swap1\n  tag_13\n  jump\t// in\ntag_12:\n  swap1\n  0x00\n  mstore\n  keccak256(0x00, 0x20)\n  swap1\n  0x1f\n  add\n  0x20\n  swap1\n  div\n  dup2\n  add\n  swap3\n  dup3\n  tag_15\n  jumpi\n  0x00\n  dup6\n  sstore\n  jump(tag_14)\ntag_15:\n  dup3\n  0x1f\n  lt\n  tag_16\n  jumpi\n  dup1\n  mload\n  not(0xff)\n  and\n  dup4\n  dup1\n  add\n  or\n  dup6\n  sstore\n  jump(tag_14)\ntag_16:\n  dup3\n  dup1\n  add\n  0x01\n  add\n  dup6\n  sstore\n  dup3\n  iszero\n  tag_14\n  jumpi\n  swap2\n  dup3\n  add\ntag_17:\n  dup3\n  dup2\n  gt\n  iszero\n  tag_18\n  jumpi\n  dup3\n  mload\n  dup3\n  sstore\n  swap2\n  0x20\n  add\n  swap2\n  swap1\n  0x01\n  add\n  swap1\n  jump(tag_17)\ntag_18:\ntag_14:\n  pop\n  swap1\n  pop\n  tag_19\n  swap2\n  swap1\n  tag_20\n  jump\t// in\ntag_19:\n  pop\n  swap1\n  jump\t// out\ntag_4:\n  dup3\n  add(0x1f, 0x14)\n  0x20\n  swap1\n  div\n  dup2\n  add\n  swap3\n  dup3\n  iszero\n  tag_21\n  jumpi\n  swap2\n  0x20\n  mul\n  dup3\n  add\n  0x00\ntag_22:\n  dup4\n  dup3\n  gt\n  iszero\n  tag_23\n  jumpi\n  dup4\n  mload\n  dup4\n  dup3\n  0x0100\n  exp\n  dup2\n  sload\n  dup2\n  0xff\n  mul\n  not\n  and\n  swap1\n  dup4\n  0xff\n  and\n  mul\n  or\n  swap1\n  sstore\n  pop\n  swap3\n  0x20\n  add\n  swap3\n  0x01\n  add\n  0x20\n  dup2\n  0x00\n  add\n  div\n  swap3\n  dup4\n  add\n  swap3\n  0x01\n  sub\n  mul\n  jump(tag_22)\ntag_23:\n  dup1\n  iszero\n  tag_24\n  jumpi\n  dup3\n  dup2\n  0x0100\n  exp\n  dup2\n  sload\n  swap1\n  0xff\n  mul\n  not\n  and\n  swap1\n  sstore\n  0x01\n  add\n  0x20\n  dup2\n  0x00\n  add\n  div\n  swap3\n  dup4\n  add\n  swap3\n  0x01\n  sub\n  mul\n  jump(tag_23)\ntag_24:\n  pop\ntag_21:\n  pop\n  swap1\n  pop\n  tag_25\n  swap2\n  swap1\n  tag_20\n  jump\t// in\ntag_25:\n  pop\n  swap1\n  jump\t// out\ntag_20:\ntag_26:\n  dup1\n  dup3\n  gt\n  iszero\n  tag_27\n  jumpi\n  0x00\n  dup2\n  0x00\n  swap1\n  sstore\n  pop\n  0x01\n  add\n  jump(tag_26)\ntag_27:\n  pop\n  swap1\n  jump\t// out\n    /* \"#utility.yul\":7:428   */\ntag_29:\n    /* \"#utility.yul\":96:101   */\n  0x00\n    /* \"#utility.yul\":121:187   */\n  tag_31\n    /* \"#utility.yul\":137:186   */\n  tag_32\n    /* \"#utility.yul\":179:185   */\n  dup5\n    /* \"#utility.yul\":137:186   */\n  tag_33\n  jump\t// in\ntag_32:\n    /* \"#utility.yul\":121:187   */\n  tag_34\n  jump\t// in\ntag_31:\n    /* \"#utility.yul\":112:187   */\n  swap1\n  pop\n    /* \"#utility.yul\":210:216   */\n  dup3\n    /* \"#utility.yul\":203:208   */\n  dup2\n    /* \"#utility.yul\":196:217   */\n  mstore\n    /* \"#utility.yul\":248:252   */\n  0x20\n    /* \"#utility.yul\":241:246   */\n  dup2\n    /* \"#utility.yul\":237:253   */\n  add\n    /* \"#utility.yul\":286:289   */\n  dup5\n    /* \"#utility.yul\":277:283   */\n  dup5\n    /* \"#utility.yul\":272:275   */\n  dup5\n    /* \"#utility.yul\":268:284   */\n  add\n    /* \"#utility.yul\":265:290   */\n  gt\n    /* \"#utility.yul\":262:374   */\n  iszero\n  tag_35\n  jumpi\n    /* \"#utility.yul\":293:372   */\n  tag_36\n  tag_37\n  jump\t// in\ntag_36:\n    /* \"#utility.yul\":262:374   */\ntag_35:\n    /* \"#utility.yul\":383:422   */\n  tag_38\n    /* \"#utility.yul\":415:421   */\n  dup5\n    /* \"#utility.yul\":410:413   */\n  dup3\n    /* \"#utility.yul\":405:408   */\n  dup6\n    /* \"#utility.yul\":383:422   */\n  tag_39\n  jump\t// in\ntag_38:\n    /* \"#utility.yul\":102:428   */\n  pop\n    /* \"#utility.yul\":7:428   */\n  swap4\n  swap3\n  pop\n  pop\n  pop\n  jump\t// out\n    /* \"#utility.yul\":448:803   */\ntag_40:\n    /* \"#utility.yul\":515:520   */\n  0x00\n    /* \"#utility.yul\":564:567   */\n  dup3\n    /* \"#utility.yul\":557:561   */\n  0x1f\n    /* \"#utility.yul\":549:555   */\n  dup4\n    /* \"#utility.yul\":545:562   */\n  add\n    /* \"#utility.yul\":541:568   */\n  slt\n    /* \"#utility.yul\":531:653   */\n  tag_42\n  jumpi\n    /* \"#utility.yul\":572:651   */\n  tag_43\n  tag_44\n  jump\t// in\ntag_43:\n    /* \"#utility.yul\":531:653   */\ntag_42:\n    /* \"#utility.yul\":682:688   */\n  dup2\n    /* \"#utility.yul\":676:689   */\n  mload\n    /* \"#utility.yul\":707:797   */\n  tag_45\n    /* \"#utility.yul\":793:796   */\n  dup5\n    /* \"#utility.yul\":785:791   */\n  dup3\n    /* \"#utility.yul\":778:782   */\n  0x20\n    /* \"#utility.yul\":770:776   */\n  dup7\n    /* \"#utility.yul\":766:783   */\n  add\n    /* \"#utility.yul\":707:797   */\n  tag_29\n  jump\t// in\ntag_45:\n    /* \"#utility.yul\":698:797   */\n  swap2\n  pop\n    /* \"#utility.yul\":521:803   */\n  pop\n    /* \"#utility.yul\":448:803   */\n  swap3\n  swap2\n  pop\n  pop\n  jump\t// out\n    /* \"#utility.yul\":809:1333   */\ntag_7:\n    /* \"#utility.yul\":889:895   */\n  0x00\n    /* \"#utility.yul\":938:940   */\n  0x20\n    /* \"#utility.yul\":926:935   */\n  dup3\n    /* \"#utility.yul\":917:924   */\n  dup5\n    /* \"#utility.yul\":913:936   */\n  sub\n    /* \"#utility.yul\":909:941   */\n  slt\n    /* \"#utility.yul\":906:1025   */\n  iszero\n  tag_47\n  jumpi\n    /* \"#utility.yul\":944:1023   */\n  tag_48\n  tag_49\n  jump\t// in\ntag_48:\n    /* \"#utility.yul\":906:1025   */\ntag_47:\n    /* \"#utility.yul\":1085:1086   */\n  0x00\n    /* \"#utility.yul\":1074:1083   */\n  dup3\n    /* \"#utility.yul\":1070:1087   */\n  add\n    /* \"#utility.yul\":1064:1088   */\n  mload\n    /* \"#utility.yul\":1115:1133   */\n  0xffffffffffffffff\n    /* \"#utility.yul\":1107:1113   */\n  dup2\n    /* \"#utility.yul\":1104:1134   */\n  gt\n    /* \"#utility.yul\":1101:1218   */\n  iszero\n  tag_50\n  jumpi\n    /* \"#utility.yul\":1137:1216   */\n  tag_51\n  tag_52\n  jump\t// in\ntag_51:\n    /* \"#utility.yul\":1101:1218   */\ntag_50:\n    /* \"#utility.yul\":1242:1316   */\n  tag_53\n    /* \"#utility.yul\":1308:1315   */\n  dup5\n    /* \"#utility.yul\":1299:1305   */\n  dup3\n    /* \"#utility.yul\":1288:1297   */\n  dup6\n    /* \"#utility.yul\":1284:1306   */\n  add\n    /* \"#utility.yul\":1242:1316   */\n  tag_40\n  jump\t// in\ntag_53:\n    /* \"#utility.yul\":1232:1316   */\n  swap2\n  pop\n    /* \"#utility.yul\":1035:1326   */\n  pop\n    /* \"#utility.yul\":809:1333   */\n  swap3\n  swap2\n  pop\n  pop\n  jump\t// out\n    /* \"#utility.yul\":1339:1468   */\ntag_34:\n    /* \"#utility.yul\":1373:1379   */\n  0x00\n    /* \"#utility.yul\":1400:1420   */\n  tag_55\n  tag_56\n  jump\t// in\ntag_55:\n    /* \"#utility.yul\":1390:1420   */\n  swap1\n  pop\n    /* \"#utility.yul\":1429:1462   */\n  tag_57\n    /* \"#utility.yul\":1457:1461   */\n  dup3\n    /* \"#utility.yul\":1449:1455   */\n  dup3\n    /* \"#utility.yul\":1429:1462   */\n  tag_58\n  jump\t// in\ntag_57:\n    /* \"#utility.yul\":1339:1468   */\n  swap2\n  swap1\n  pop\n  jump\t// out\n    /* \"#utility.yul\":1474:1549   */\ntag_56:\n    /* \"#utility.yul\":1507:1513   */\n  0x00\n    /* \"#utility.yul\":1540:1542   */\n  0x40\n    /* \"#utility.yul\":1534:1543   */\n  mload\n    /* \"#utility.yul\":1524:1543   */\n  swap1\n  pop\n    /* \"#utility.yul\":1474:1549   */\n  swap1\n  jump\t// out\n    /* \"#utility.yul\":1555:1863   */\ntag_33:\n    /* \"#utility.yul\":1617:1621   */\n  0x00\n    /* \"#utility.yul\":1707:1725   */\n  0xffffffffffffffff\n    /* \"#utility.yul\":1699:1705   */\n  dup3\n    /* \"#utility.yul\":1696:1726   */\n  gt\n    /* \"#utility.yul\":1693:1749   */\n  iszero\n  tag_61\n  jumpi\n    /* \"#utility.yul\":1729:1747   */\n  tag_62\n  tag_63\n  jump\t// in\ntag_62:\n    /* \"#utility.yul\":1693:1749   */\ntag_61:\n    /* \"#utility.yul\":1767:1796   */\n  tag_64\n    /* \"#utility.yul\":1789:1795   */\n  dup3\n    /* \"#utility.yul\":1767:1796   */\n  tag_65\n  jump\t// in\ntag_64:\n    /* \"#utility.yul\":1759:1796   */\n  swap1\n  pop\n    /* \"#utility.yul\":1851:1855   */\n  0x20\n    /* \"#utility.yul\":1845:1849   */\n  dup2\n    /* \"#utility.yul\":1841:1856   */\n  add\n    /* \"#utility.yul\":1833:1856   */\n  swap1\n  pop\n    /* \"#utility.yul\":1555:1863   */\n  swap2\n  swap1\n  pop\n  jump\t// out\n    /* \"#utility.yul\":1869:2176   */\ntag_39:\n    /* \"#utility.yul\":1937:1938   */\n  0x00\n    /* \"#utility.yul\":1947:2060   */\ntag_67:\n    /* \"#utility.yul\":1961:1967   */\n  dup4\n    /* \"#utility.yul\":1958:1959   */\n  dup2\n    /* \"#utility.yul\":1955:1968   */\n  lt\n    /* \"#utility.yul\":1947:2060   */\n  iszero\n  tag_69\n  jumpi\n    /* \"#utility.yul\":2046:2047   */\n  dup1\n    /* \"#utility.yul\":2041:2044   */\n  dup3\n    /* \"#utility.yul\":2037:2048   */\n  add\n    /* \"#utility.yul\":2031:2049   */\n  mload\n    /* \"#utility.yul\":2027:2028   */\n  dup2\n    /* \"#utility.yul\":2022:2025   */\n  dup5\n    /* \"#utility.yul\":2018:2029   */\n  add\n    /* \"#utility.yul\":2011:2050   */\n  mstore\n    /* \"#utility.yul\":1983:1985   */\n  0x20\n    /* \"#utility.yul\":1980:1981   */\n  dup2\n    /* \"#utility.yul\":1976:1986   */\n  add\n    /* \"#utility.yul\":1971:1986   */\n  swap1\n  pop\n    /* \"#utility.yul\":1947:2060   */\n  jump(tag_67)\ntag_69:\n    /* \"#utility.yul\":2078:2084   */\n  dup4\n    /* \"#utility.yul\":2075:2076   */\n  dup2\n    /* \"#utility.yul\":2072:2085   */\n  gt\n    /* \"#utility.yul\":2069:2170   */\n  iszero\n  tag_70\n  jumpi\n    /* \"#utility.yul\":2158:2159   */\n  0x00\n    /* \"#utility.yul\":2149:2155   */\n  dup5\n    /* \"#utility.yul\":2144:2147   */\n  dup5\n    /* \"#utility.yul\":2140:2156   */\n  add\n    /* \"#utility.yul\":2133:2160   */\n  mstore\n    /* \"#utility.yul\":2069:2170   */\ntag_70:\n    /* \"#utility.yul\":1918:2176   */\n  pop\n    /* \"#utility.yul\":1869:2176   */\n  pop\n  pop\n  pop\n  jump\t// out\n    /* \"#utility.yul\":2182:2502   */\ntag_13:\n    /* \"#utility.yul\":2226:2232   */\n  0x00\n    /* \"#utility.yul\":2263:2264   */\n  0x02\n    /* \"#utility.yul\":2257:2261   */\n  dup3\n    /* \"#utility.yul\":2253:2265   */\n  div\n    /* \"#utility.yul\":2243:2265   */\n  swap1\n  pop\n    /* \"#utility.yul\":2310:2311   */\n  0x01\n    /* \"#utility.yul\":2304:2308   */\n  dup3\n    /* \"#utility.yul\":2300:2312   */\n  and\n    /* \"#utility.yul\":2331:2349   */\n  dup1\n    /* \"#utility.yul\":2321:2402   */\n  tag_72\n  jumpi\n    /* \"#utility.yul\":2387:2391   */\n  0x7f\n    /* \"#utility.yul\":2379:2385   */\n  dup3\n    /* \"#utility.yul\":2375:2392   */\n  and\n    /* \"#utility.yul\":2365:2392   */\n  swap2\n  pop\n    /* \"#utility.yul\":2321:2402   */\ntag_72:\n    /* \"#utility.yul\":2449:2451   */\n  0x20\n    /* \"#utility.yul\":2441:2447   */\n  dup3\n    /* \"#utility.yul\":2438:2452   */\n  lt\n    /* \"#utility.yul\":2418:2436   */\n  dup2\n    /* \"#utility.yul\":2415:2453   */\n  eq\n    /* \"#utility.yul\":2412:2496   */\n  iszero\n  tag_73\n  jumpi\n    /* \"#utility.yul\":2468:2486   */\n  tag_74\n  tag_75\n  jump\t// in\ntag_74:\n    /* \"#utility.yul\":2412:2496   */\ntag_73:\n    /* \"#utility.yul\":2233:2502   */\n  pop\n    /* \"#utility.yul\":2182:2502   */\n  swap2\n  swap1\n  pop\n  jump\t// out\n    /* \"#utility.yul\":2508:2789   */\ntag_58:\n    /* \"#utility.yul\":2591:2618   */\n  tag_77\n    /* \"#utility.yul\":2613:2617   */\n  dup3\n    /* \"#utility.yul\":2591:2618   */\n  tag_65\n  jump\t// in\ntag_77:\n    /* \"#utility.yul\":2583:2589   */\n  dup2\n    /* \"#utility.yul\":2579:2619   */\n  add\n    /* \"#utility.yul\":2721:2727   */\n  dup2\n    /* \"#utility.yul\":2709:2719   */\n  dup2\n    /* \"#utility.yul\":2706:2728   */\n  lt\n    /* \"#utility.yul\":2685:2703   */\n  0xffffffffffffffff\n    /* \"#utility.yul\":2673:2683   */\n  dup3\n    /* \"#utility.yul\":2670:2704   */\n  gt\n    /* \"#utility.yul\":2667:2729   */\n  or\n    /* \"#utility.yul\":2664:2752   */\n  iszero\n  tag_78\n  jumpi\n    /* \"#utility.yul\":2732:2750   */\n  tag_79\n  tag_63\n  jump\t// in\ntag_79:\n    /* \"#utility.yul\":2664:2752   */\ntag_78:\n    /* \"#utility.yul\":2772:2782   */\n  dup1\n    /* \"#utility.yul\":2768:2770   */\n  0x40\n    /* \"#utility.yul\":2761:2783   */\n  mstore\n    /* \"#utility.yul\":2551:2789   */\n  pop\n    /* \"#utility.yul\":2508:2789   */\n  pop\n  pop\n  jump\t// out\n    /* \"#utility.yul\":2795:2975   */\ntag_75:\n    /* \"#utility.yul\":2843:2920   */\n  0x4e487b7100000000000000000000000000000000000000000000000000000000\n    /* \"#utility.yul\":2840:2841   */\n  0x00\n    /* \"#utility.yul\":2833:2921   */\n  mstore\n    /* \"#utility.yul\":2940:2944   */\n  0x22\n    /* \"#utility.yul\":2937:2938   */\n  0x04\n    /* \"#utility.yul\":2930:2945   */\n  mstore\n    /* \"#utility.yul\":2964:2968   */\n  0x24\n    /* \"#utility.yul\":2961:2962   */\n  0x00\n    /* \"#utility.yul\":2954:2969   */\n  revert\n    /* \"#utility.yul\":2981:3161   */\ntag_63:\n    /* \"#utility.yul\":3029:3106   */\n  0x4e487b7100000000000000000000000000000000000000000000000000000000\n    /* \"#utility.yul\":3026:3027   */\n  0x00\n    /* \"#utility.yul\":3019:3107   */\n  mstore\n    /* \"#utility.yul\":3126:3130   */\n  0x41\n    /* \"#utility.yul\":3123:3124   */\n  0x04\n    /* \"#utility.yul\":3116:3131   */\n  mstore\n    /* \"#utility.yul\":3150:3154   */\n  0x24\n    /* \"#utility.yul\":3147:3148   */\n  0x00\n    /* \"#utility.yul\":3140:3155   */\n  revert\n    /* \"#utility.yul\":3167:3284   */\ntag_44:\n    /* \"#utility.yul\":3276:3277   */\n  0x00\n    /* \"#utility.yul\":3273:3274   */\n  dup1\n    /* \"#utility.yul\":3266:3278   */\n  revert\n    /* \"#utility.yul\":3290:3407   */\ntag_37:\n    /* \"#utility.yul\":3399:3400   */\n  0x00\n    /* \"#utility.yul\":3396:3397   */\n  dup1\n    /* \"#utility.yul\":3389:3401   */\n  revert\n    /* \"#utility.yul\":3413:3530   */\ntag_52:\n    /* \"#utility.yul\":3522:3523   */\n  0x00\n    /* \"#utility.yul\":3519:3520   */\n  dup1\n    /* \"#utility.yul\":3512:3524   */\n  revert\n    /* \"#utility.yul\":3536:3653   */\ntag_49:\n    /* \"#utility.yul\":3645:3646   */\n  0x00\n    /* \"#utility.yul\":3642:3643   */\n  dup1\n    /* \"#utility.yul\":3635:3647   */\n  revert\n    /* \"#utility.yul\":3659:3761   */\ntag_65:\n    /* \"#utility.yul\":3700:3706   */\n  0x00\n    /* \"#utility.yul\":3751:3753   */\n  0x1f\n    /* \"#utility.yul\":3747:3754   */\n  not\n    /* \"#utility.yul\":3742:3744   */\n  0x1f\n    /* \"#utility.yul\":3735:3740   */\n  dup4\n    /* \"#utility.yul\":3731:3745   */\n  add\n    /* \"#utility.yul\":3727:3755   */\n  and\n    /* \"#utility.yul\":3717:3755   */\n  swap1\n  pop\n    /* \"#utility.yul\":3659:3761   */\n  swap2\n  swap1\n  pop\n  jump\t// out\n    /* \"NFTES_Drop.sol\":146:8316  contract NFTES_Drop is ERC1155_Drop {... */\ntag_11:\n  dataSize(sub_0)\n  dup1\n  dataOffset(sub_0)\n  0x00\n  codecopy\n  0x00\n  return\nstop\n\nsub_0: assembly {\n        /* \"NFTES_Drop.sol\":146:8316  contract NFTES_Drop is ERC1155_Drop {... */\n      mstore(0x40, 0x80)\n      jumpi(tag_1, lt(calldatasize, 0x04))\n      shr(0xe0, calldataload(0x00))\n      dup1\n      0x7a5caab3\n      gt\n      tag_17\n      jumpi\n      dup1\n      0xb187bd26\n      gt\n      tag_18\n      jumpi\n      dup1\n      0xb187bd26\n      eq\n      tag_13\n      jumpi\n      dup1\n      0xb4a99a4e\n      eq\n      tag_14\n      jumpi\n      dup1\n      0xeddd0d9c\n      eq\n      tag_15\n      jumpi\n      dup1\n      0xfd6c3b1b\n      eq\n      tag_16\n      jumpi\n      jump(tag_1)\n    tag_18:\n      dup1\n      0x7a5caab3\n      eq\n      tag_9\n      jumpi\n      dup1\n      0x8b7afe2e\n      eq\n      tag_10\n      jumpi\n      dup1\n      0xa6f9dae1\n      eq\n      tag_11\n      jumpi\n      dup1\n      0xaa90c726\n      eq\n      tag_12\n      jumpi\n      jump(tag_1)\n    tag_17:\n      dup1\n      0x546fd992\n      gt\n      tag_19\n      jumpi\n      dup1\n      0x546fd992\n      eq\n      tag_5\n      jumpi\n      dup1\n      0x5b27d84e\n      eq\n      tag_6\n      jumpi\n      dup1\n      0x5e1f0556\n      eq\n      tag_7\n      jumpi\n      dup1\n      0x60daa851\n      eq\n      tag_8\n      jumpi\n      jump(tag_1)\n    tag_19:\n      dup1\n      0x0390c11c\n      eq\n      tag_2\n      jumpi\n      dup1\n      0x0a67d2c7\n      eq\n      tag_3\n      jumpi\n      dup1\n      0x15460259\n      eq\n      tag_4\n      jumpi\n    tag_1:\n      0x00\n      dup1\n      revert\n        /* \"NFTES_Drop.sol\":2918:3015  function checkTotalMinted() public view returns (uint256) {... */\n    tag_2:\n      callvalue\n      dup1\n      iszero\n      tag_20\n      jumpi\n      0x00\n      dup1\n      revert\n    tag_20:\n      pop\n      tag_21\n      tag_22\n      jump\t// in\n    tag_21:\n      mload(0x40)\n      tag_23\n      swap2\n      swap1\n      tag_24\n      jump\t// in\n    tag_23:\n      mload(0x40)\n      dup1\n      swap2\n      sub\n      swap1\n      return\n        /* \"NFTES_Drop.sol\":3396:3612  function withDraw(address payable to) public payable OnlyOwner {... */\n    tag_3:\n      tag_25\n      0x04\n      dup1\n      calldatasize\n      sub\n      dup2\n      add\n      swap1\n      tag_26\n      swap2\n      swap1\n      tag_27\n      jump\t// in\n    tag_26:\n      tag_28\n      jump\t// in\n    tag_25:\n      stop\n        /* \"NFTES_Drop.sol\":3167:3307  function openDropsite() public OnlyOwner {... */\n    tag_4:\n      callvalue\n      dup1\n      iszero\n      tag_29\n      jumpi\n      0x00\n      dup1\n      revert\n    tag_29:\n      pop\n      tag_30\n      tag_31\n      jump\t// in\n    tag_30:\n      stop\n        /* \"NFTES_Drop.sol\":6299:6821  function randomMinting(address user_addr)... */\n    tag_5:\n      tag_32\n      0x04\n      dup1\n      calldatasize\n      sub\n      dup2\n      add\n      swap1\n      tag_33\n      swap2\n      swap1\n      tag_34\n      jump\t// in\n    tag_33:\n      tag_35\n      jump\t// in\n    tag_32:\n      mload(0x40)\n      tag_36\n      swap3\n      swap2\n      swap1\n      tag_37\n      jump\t// in\n    tag_36:\n      mload(0x40)\n      dup1\n      swap2\n      sub\n      swap1\n      return\n        /* \"NFTES_Drop.sol\":7636:8314  function cryptoRandomMint(address user_addr, uint256 noOfMints)... */\n    tag_6:\n      tag_38\n      0x04\n      dup1\n      calldatasize\n      sub\n      dup2\n      add\n      swap1\n      tag_39\n      swap2\n      swap1\n      tag_40\n      jump\t// in\n    tag_39:\n      tag_41\n      jump\t// in\n    tag_38:\n      mload(0x40)\n      tag_42\n      swap2\n      swap1\n      tag_43\n      jump\t// in\n    tag_42:\n      mload(0x40)\n      dup1\n      swap2\n      sub\n      swap1\n      return\n        /* \"NFTES_Drop.sol\":6868:7421  function fiatRandomMint(address user_addr, uint256 noOfMints)... */\n    tag_7:\n      callvalue\n      dup1\n      iszero\n      tag_44\n      jumpi\n      0x00\n      dup1\n      revert\n    tag_44:\n      pop\n      tag_45\n      0x04\n      dup1\n      calldatasize\n      sub\n      dup2\n      add\n      swap1\n      tag_46\n      swap2\n      swap1\n      tag_40\n      jump\t// in\n    tag_46:\n      tag_47\n      jump\t// in\n    tag_45:\n      mload(0x40)\n      tag_48\n      swap2\n      swap1\n      tag_43\n      jump\t// in\n    tag_48:\n      mload(0x40)\n      dup1\n      swap2\n      sub\n      swap1\n      return\n        /* \"NFTES_Drop.sol\":2348:2598  function checkMintedCategoryWise()... */\n    tag_8:\n      callvalue\n      dup1\n      iszero\n      tag_49\n      jumpi\n      0x00\n      dup1\n      revert\n    tag_49:\n      pop\n      tag_50\n      tag_51\n      jump\t// in\n    tag_50:\n      mload(0x40)\n      tag_52\n      swap4\n      swap3\n      swap2\n      swap1\n      tag_53\n      jump\t// in\n    tag_52:\n      mload(0x40)\n      dup1\n      swap2\n      sub\n      swap1\n      return\n        /* \"NFTES_Drop.sol\":2721:2879  function getMintFee()... */\n    tag_9:\n      callvalue\n      dup1\n      iszero\n      tag_54\n      jumpi\n      0x00\n      dup1\n      revert\n    tag_54:\n      pop\n      tag_55\n      tag_56\n      jump\t// in\n    tag_55:\n      mload(0x40)\n      tag_57\n      swap2\n      swap1\n      tag_24\n      jump\t// in\n    tag_57:\n      mload(0x40)\n      dup1\n      swap2\n      sub\n      swap1\n      return\n        /* \"NFTES_Drop.sol\":3657:3769  function contractBalance() public view OnlyOwner returns (uint256) {... */\n    tag_10:\n      callvalue\n      dup1\n      iszero\n      tag_58\n      jumpi\n      0x00\n      dup1\n      revert\n    tag_58:\n      pop\n      tag_59\n      tag_60\n      jump\t// in\n    tag_59:\n      mload(0x40)\n      tag_61\n      swap2\n      swap1\n      tag_24\n      jump\t// in\n    tag_61:\n      mload(0x40)\n      dup1\n      swap2\n      sub\n      swap1\n      return\n        /* \"NFTES_Drop.sol\":1899:2053  function changeOwner(address newOwnerAddr)... */\n    tag_11:\n      callvalue\n      dup1\n      iszero\n      tag_62\n      jumpi\n      0x00\n      dup1\n      revert\n    tag_62:\n      pop\n      tag_63\n      0x04\n      dup1\n      calldatasize\n      sub\n      dup2\n      add\n      swap1\n      tag_64\n      swap2\n      swap1\n      tag_34\n      jump\t// in\n    tag_64:\n      tag_65\n      jump\t// in\n    tag_63:\n      stop\n        /* \"NFTES_Drop.sol\":3021:3161  function stopDropsite() public OnlyOwner {... */\n    tag_12:\n      callvalue\n      dup1\n      iszero\n      tag_66\n      jumpi\n      0x00\n      dup1\n      revert\n    tag_66:\n      pop\n      tag_67\n      tag_68\n      jump\t// in\n    tag_67:\n      stop\n        /* \"NFTES_Drop.sol\":1538:1565  bool public isPaused = true */\n    tag_13:\n      callvalue\n      dup1\n      iszero\n      tag_69\n      jumpi\n      0x00\n      dup1\n      revert\n    tag_69:\n      pop\n      tag_70\n      tag_71\n      jump\t// in\n    tag_70:\n      mload(0x40)\n      tag_72\n      swap2\n      swap1\n      tag_73\n      jump\t// in\n    tag_72:\n      mload(0x40)\n      dup1\n      swap2\n      sub\n      swap1\n      return\n        /* \"NFTES_Drop.sol\":1571:1599  address payable public Owner */\n    tag_14:\n      callvalue\n      dup1\n      iszero\n      tag_74\n      jumpi\n      0x00\n      dup1\n      revert\n    tag_74:\n      pop\n      tag_75\n      tag_76\n      jump\t// in\n    tag_75:\n      mload(0x40)\n      tag_77\n      swap2\n      swap1\n      tag_78\n      jump\t// in\n    tag_77:\n      mload(0x40)\n      dup1\n      swap2\n      sub\n      swap1\n      return\n        /* \"NFTES_Drop.sol\":2604:2715  function setMintFee(uint256 _mintFee) public OnlyOwner contractIsNotPaused {... */\n    tag_15:\n      callvalue\n      dup1\n      iszero\n      tag_79\n      jumpi\n      0x00\n      dup1\n      revert\n    tag_79:\n      pop\n      tag_80\n      0x04\n      dup1\n      calldatasize\n      sub\n      dup2\n      add\n      swap1\n      tag_81\n      swap2\n      swap1\n      tag_82\n      jump\t// in\n    tag_81:\n      tag_83\n      jump\t// in\n    tag_80:\n      stop\n        /* \"NFTES_Drop.sol\":2097:2295  function returnOwner(address addr)... */\n    tag_16:\n      callvalue\n      dup1\n      iszero\n      tag_84\n      jumpi\n      0x00\n      dup1\n      revert\n    tag_84:\n      pop\n      tag_85\n      0x04\n      dup1\n      calldatasize\n      sub\n      dup2\n      add\n      swap1\n      tag_86\n      swap2\n      swap1\n      tag_34\n      jump\t// in\n    tag_86:\n      tag_87\n      jump\t// in\n    tag_85:\n      mload(0x40)\n      tag_88\n      swap2\n      swap1\n      tag_43\n      jump\t// in\n    tag_88:\n      mload(0x40)\n      dup1\n      swap2\n      sub\n      swap1\n      return\n        /* \"NFTES_Drop.sol\":2918:3015  function checkTotalMinted() public view returns (uint256) {... */\n    tag_22:\n        /* \"NFTES_Drop.sol\":2967:2974  uint256 */\n      0x00\n        /* \"NFTES_Drop.sol\":2993:3008  totalNFTsMinted */\n      sload(0x04)\n        /* \"NFTES_Drop.sol\":2986:3008  return totalNFTsMinted */\n      swap1\n      pop\n        /* \"NFTES_Drop.sol\":2918:3015  function checkTotalMinted() public view returns (uint256) {... */\n      swap1\n      jump\t// out\n        /* \"NFTES_Drop.sol\":3396:3612  function withDraw(address payable to) public payable OnlyOwner {... */\n    tag_28:\n        /* \"NFTES_Drop.sol\":1196:1201  Owner */\n      0x0c\n      0x01\n      swap1\n      sload\n      swap1\n      0x0100\n      exp\n      swap1\n      div\n      0xffffffffffffffffffffffffffffffffffffffff\n      and\n        /* \"NFTES_Drop.sol\":1180:1201  _msgSender() == Owner */\n      0xffffffffffffffffffffffffffffffffffffffff\n      and\n        /* \"NFTES_Drop.sol\":1180:1192  _msgSender() */\n      tag_91\n        /* \"NFTES_Drop.sol\":1180:1190  _msgSender */\n      tag_92\n        /* \"NFTES_Drop.sol\":1180:1192  _msgSender() */\n      jump\t// in\n    tag_91:\n        /* \"NFTES_Drop.sol\":1180:1201  _msgSender() == Owner */\n      0xffffffffffffffffffffffffffffffffffffffff\n      and\n      eq\n        /* \"NFTES_Drop.sol\":1172:1234  require(_msgSender() == Owner, \"Only NFT-ES Owner can Access\") */\n      tag_93\n      jumpi\n      mload(0x40)\n      0x08c379a000000000000000000000000000000000000000000000000000000000\n      dup2\n      mstore\n      0x04\n      add\n      tag_94\n      swap1\n      tag_95\n      jump\t// in\n    tag_94:\n      mload(0x40)\n      dup1\n      swap2\n      sub\n      swap1\n      revert\n    tag_93:\n        /* \"NFTES_Drop.sol\":3469:3484  uint256 Balance */\n      0x00\n        /* \"NFTES_Drop.sol\":3487:3508  address(this).balance */\n      selfbalance\n        /* \"NFTES_Drop.sol\":3469:3508  uint256 Balance = address(this).balance */\n      swap1\n      pop\n        /* \"NFTES_Drop.sol\":3536:3541  0 wei */\n      0x00\n        /* \"NFTES_Drop.sol\":3526:3533  Balance */\n      dup2\n        /* \"NFTES_Drop.sol\":3526:3541  Balance > 0 wei */\n      gt\n        /* \"NFTES_Drop.sol\":3518:3575  require(Balance > 0 wei, \"Error! No Balance to withdraw\") */\n      tag_97\n      jumpi\n      mload(0x40)\n      0x08c379a000000000000000000000000000000000000000000000000000000000\n      dup2\n      mstore\n      0x04\n      add\n      tag_98\n      swap1\n      tag_99\n      jump\t// in\n    tag_98:\n      mload(0x40)\n      dup1\n      swap2\n      sub\n      swap1\n      revert\n    tag_97:\n        /* \"NFTES_Drop.sol\":3585:3587  to */\n      dup2\n        /* \"NFTES_Drop.sol\":3585:3596  to.transfer */\n      0xffffffffffffffffffffffffffffffffffffffff\n      and\n        /* \"NFTES_Drop.sol\":3585:3605  to.transfer(Balance) */\n      0x08fc\n        /* \"NFTES_Drop.sol\":3597:3604  Balance */\n      dup3\n        /* \"NFTES_Drop.sol\":3585:3605  to.transfer(Balance) */\n      swap1\n      dup2\n      iszero\n      mul\n      swap1\n      mload(0x40)\n      0x00\n      mload(0x40)\n      dup1\n      dup4\n      sub\n      dup2\n      dup6\n      dup9\n      dup9\n      call\n      swap4\n      pop\n      pop\n      pop\n      pop\n      iszero\n      dup1\n      iszero\n      tag_101\n      jumpi\n      returndatasize\n      0x00\n      dup1\n      returndatacopy\n      revert(0x00, returndatasize)\n    tag_101:\n      pop\n        /* \"NFTES_Drop.sol\":3459:3612  {... */\n      pop\n        /* \"NFTES_Drop.sol\":3396:3612  function withDraw(address payable to) public payable OnlyOwner {... */\n      pop\n      jump\t// out\n        /* \"NFTES_Drop.sol\":3167:3307  function openDropsite() public OnlyOwner {... */\n    tag_31:\n        /* \"NFTES_Drop.sol\":1196:1201  Owner */\n      0x0c\n      0x01\n      swap1\n      sload\n      swap1\n      0x0100\n      exp\n      swap1\n      div\n      0xffffffffffffffffffffffffffffffffffffffff\n      and\n        /* \"NFTES_Drop.sol\":1180:1201  _msgSender() == Owner */\n      0xffffffffffffffffffffffffffffffffffffffff\n      and\n        /* \"NFTES_Drop.sol\":1180:1192  _msgSender() */\n      tag_103\n        /* \"NFTES_Drop.sol\":1180:1190  _msgSender */\n      tag_92\n        /* \"NFTES_Drop.sol\":1180:1192  _msgSender() */\n      jump\t// in\n    tag_103:\n        /* \"NFTES_Drop.sol\":1180:1201  _msgSender() == Owner */\n      0xffffffffffffffffffffffffffffffffffffffff\n      and\n      eq\n        /* \"NFTES_Drop.sol\":1172:1234  require(_msgSender() == Owner, \"Only NFT-ES Owner can Access\") */\n      tag_104\n      jumpi\n      mload(0x40)\n      0x08c379a000000000000000000000000000000000000000000000000000000000\n      dup2\n      mstore\n      0x04\n      add\n      tag_105\n      swap1\n      tag_95\n      jump\t// in\n    tag_105:\n      mload(0x40)\n      dup1\n      swap2\n      sub\n      swap1\n      revert\n    tag_104:\n        /* \"NFTES_Drop.sol\":3238:3242  true */\n      0x01\n        /* \"NFTES_Drop.sol\":3226:3242  isPaused == true */\n      iszero\n      iszero\n        /* \"NFTES_Drop.sol\":3226:3234  isPaused */\n      0x0c\n      0x00\n      swap1\n      sload\n      swap1\n      0x0100\n      exp\n      swap1\n      div\n      0xff\n      and\n        /* \"NFTES_Drop.sol\":3226:3242  isPaused == true */\n      iszero\n      iszero\n      eq\n        /* \"NFTES_Drop.sol\":3218:3274  require(isPaused == true, \"Dropsite is already Running\") */\n      tag_107\n      jumpi\n      mload(0x40)\n      0x08c379a000000000000000000000000000000000000000000000000000000000\n      dup2\n      mstore\n      0x04\n      add\n      tag_108\n      swap1\n      tag_109\n      jump\t// in\n    tag_108:\n      mload(0x40)\n      dup1\n      swap2\n      sub\n      swap1\n      revert\n    tag_107:\n        /* \"NFTES_Drop.sol\":3295:3300  false */\n      0x00\n        /* \"NFTES_Drop.sol\":3284:3292  isPaused */\n      0x0c\n      0x00\n        /* \"NFTES_Drop.sol\":3284:3300  isPaused = false */\n      0x0100\n      exp\n      dup2\n      sload\n      dup2\n      0xff\n      mul\n      not\n      and\n      swap1\n      dup4\n      iszero\n      iszero\n      mul\n      or\n      swap1\n      sstore\n      pop\n        /* \"NFTES_Drop.sol\":3167:3307  function openDropsite() public OnlyOwner {... */\n      jump\t// out\n        /* \"NFTES_Drop.sol\":6299:6821  function randomMinting(address user_addr)... */\n    tag_35:\n        /* \"NFTES_Drop.sol\":6435:6442  uint256 */\n      0x00\n        /* \"NFTES_Drop.sol\":6444:6457  string memory */\n      0x60\n        /* \"NFTES_Drop.sol\":1196:1201  Owner */\n      0x0c\n      0x01\n      swap1\n      sload\n      swap1\n      0x0100\n      exp\n      swap1\n      div\n      0xffffffffffffffffffffffffffffffffffffffff\n      and\n        /* \"NFTES_Drop.sol\":1180:1201  _msgSender() == Owner */\n      0xffffffffffffffffffffffffffffffffffffffff\n      and\n        /* \"NFTES_Drop.sol\":1180:1192  _msgSender() */\n      tag_111\n        /* \"NFTES_Drop.sol\":1180:1190  _msgSender */\n      tag_92\n        /* \"NFTES_Drop.sol\":1180:1192  _msgSender() */\n      jump\t// in\n    tag_111:\n        /* \"NFTES_Drop.sol\":1180:1201  _msgSender() == Owner */\n      0xffffffffffffffffffffffffffffffffffffffff\n      and\n      eq\n        /* \"NFTES_Drop.sol\":1172:1234  require(_msgSender() == Owner, \"Only NFT-ES Owner can Access\") */\n      tag_112\n      jumpi\n      mload(0x40)\n      0x08c379a000000000000000000000000000000000000000000000000000000000\n      dup2\n      mstore\n      0x04\n      add\n      tag_113\n      swap1\n      tag_95\n      jump\t// in\n    tag_113:\n      mload(0x40)\n      dup1\n      swap2\n      sub\n      swap1\n      revert\n    tag_112:\n        /* \"NFTES_Drop.sol\":1361:1366  false */\n      0x00\n        /* \"NFTES_Drop.sol\":1349:1366  isPaused == false */\n      iszero\n      iszero\n        /* \"NFTES_Drop.sol\":1349:1357  isPaused */\n      0x0c\n      0x00\n      swap1\n      sload\n      swap1\n      0x0100\n      exp\n      swap1\n      div\n      0xff\n      and\n        /* \"NFTES_Drop.sol\":1349:1366  isPaused == false */\n      iszero\n      iszero\n      eq\n        /* \"NFTES_Drop.sol\":1341:1398  require(isPaused == false, \"Dropsite is not Opened Yet.\") */\n      tag_115\n      jumpi\n      mload(0x40)\n      0x08c379a000000000000000000000000000000000000000000000000000000000\n      dup2\n      mstore\n      0x04\n      add\n      tag_116\n      swap1\n      tag_117\n      jump\t// in\n    tag_116:\n      mload(0x40)\n      dup1\n      swap2\n      sub\n      swap1\n      revert\n    tag_115:\n        /* \"NFTES_Drop.sol\":6553:6566  uint256 index */\n      0x00\n        /* \"NFTES_Drop.sol\":6569:6577  random() */\n      tag_119\n        /* \"NFTES_Drop.sol\":6569:6575  random */\n      tag_120\n        /* \"NFTES_Drop.sol\":6569:6577  random() */\n      jump\t// in\n    tag_119:\n        /* \"NFTES_Drop.sol\":6553:6577  uint256 index = random() */\n      swap1\n      pop\n        /* \"NFTES_Drop.sol\":6587:6600  uint256 nftId */\n      0x00\n        /* \"NFTES_Drop.sol\":6603:6626  updateConditions(index) */\n      tag_121\n        /* \"NFTES_Drop.sol\":6620:6625  index */\n      dup3\n        /* \"NFTES_Drop.sol\":6603:6619  updateConditions */\n      tag_122\n        /* \"NFTES_Drop.sol\":6603:6626  updateConditions(index) */\n      jump\t// in\n    tag_121:\n        /* \"NFTES_Drop.sol\":6587:6626  uint256 nftId = updateConditions(index) */\n      swap1\n      pop\n        /* \"NFTES_Drop.sol\":6636:6678  _mint(user_addr, nftId, numOfCopies, data) */\n      tag_123\n        /* \"NFTES_Drop.sol\":6642:6651  user_addr */\n      dup6\n        /* \"NFTES_Drop.sol\":6653:6658  nftId */\n      dup3\n        /* \"NFTES_Drop.sol\":6660:6671  numOfCopies */\n      sload(0x05)\n        /* \"NFTES_Drop.sol\":6673:6677  data */\n      0x02\n        /* \"NFTES_Drop.sol\":6636:6678  _mint(user_addr, nftId, numOfCopies, data) */\n      dup1\n      sload\n      tag_124\n      swap1\n      tag_125\n      jump\t// in\n    tag_124:\n      dup1\n      0x1f\n      add\n      0x20\n      dup1\n      swap2\n      div\n      mul\n      0x20\n      add\n      mload(0x40)\n      swap1\n      dup2\n      add\n      0x40\n      mstore\n      dup1\n      swap3\n      swap2\n      swap1\n      dup2\n      dup2\n      mstore\n      0x20\n      add\n      dup3\n      dup1\n      sload\n      tag_126\n      swap1\n      tag_125\n      jump\t// in\n    tag_126:\n      dup1\n      iszero\n      tag_127\n      jumpi\n      dup1\n      0x1f\n      lt\n      tag_128\n      jumpi\n      0x0100\n      dup1\n      dup4\n      sload\n      div\n      mul\n      dup4\n      mstore\n      swap2\n      0x20\n      add\n      swap2\n      jump(tag_127)\n    tag_128:\n      dup3\n      add\n      swap2\n      swap1\n      0x00\n      mstore\n      keccak256(0x00, 0x20)\n      swap1\n    tag_129:\n      dup2\n      sload\n      dup2\n      mstore\n      swap1\n      0x01\n      add\n      swap1\n      0x20\n      add\n      dup1\n      dup4\n      gt\n      tag_129\n      jumpi\n      dup3\n      swap1\n      sub\n      0x1f\n      and\n      dup3\n      add\n      swap2\n    tag_127:\n      pop\n      pop\n      pop\n      pop\n      pop\n        /* \"NFTES_Drop.sol\":6636:6641  _mint */\n      tag_130\n        /* \"NFTES_Drop.sol\":6636:6678  _mint(user_addr, nftId, numOfCopies, data) */\n      jump\t// in\n    tag_123:\n        /* \"NFTES_Drop.sol\":6688:6703  totalNFTsMinted */\n      0x04\n      0x00\n        /* \"NFTES_Drop.sol\":6688:6705  totalNFTsMinted++ */\n      dup2\n      sload\n      dup1\n      swap3\n      swap2\n      swap1\n      tag_131\n      swap1\n      tag_132\n      jump\t// in\n    tag_131:\n      swap2\n      swap1\n      pop\n      sstore\n      pop\n        /* \"NFTES_Drop.sol\":6715:6733  dropsite_NFT_Owner */\n      0x0a\n        /* \"NFTES_Drop.sol\":6715:6744  dropsite_NFT_Owner[user_addr] */\n      0x00\n        /* \"NFTES_Drop.sol\":6734:6743  user_addr */\n      dup7\n        /* \"NFTES_Drop.sol\":6715:6744  dropsite_NFT_Owner[user_addr] */\n      0xffffffffffffffffffffffffffffffffffffffff\n      and\n      0xffffffffffffffffffffffffffffffffffffffff\n      and\n      dup2\n      mstore\n      0x20\n      add\n      swap1\n      dup2\n      mstore\n      0x20\n      add\n      0x00\n      keccak256\n        /* \"NFTES_Drop.sol\":6715:6764  dropsite_NFT_Owner[user_addr].owned_Dropsite_NFTs */\n      0x00\n      add\n        /* \"NFTES_Drop.sol\":6770:6775  nftId */\n      dup2\n        /* \"NFTES_Drop.sol\":6715:6776  dropsite_NFT_Owner[user_addr].owned_Dropsite_NFTs.push(nftId) */\n      swap1\n      dup1\n      0x01\n      dup2\n      sload\n      add\n      dup1\n      dup3\n      sstore\n      dup1\n      swap2\n      pop\n      pop\n      0x01\n      swap1\n      sub\n      swap1\n      0x00\n      mstore\n      keccak256(0x00, 0x20)\n      add\n      0x00\n      swap1\n      swap2\n      swap1\n      swap2\n      swap1\n      swap2\n      pop\n      sstore\n        /* \"NFTES_Drop.sol\":6794:6799  nftId */\n      dup1\n        /* \"NFTES_Drop.sol\":6808:6812  data */\n      0x02\n        /* \"NFTES_Drop.sol\":6786:6814  return (nftId, string(data)) */\n      dup1\n      dup1\n      sload\n      tag_134\n      swap1\n      tag_125\n      jump\t// in\n    tag_134:\n      dup1\n      0x1f\n      add\n      0x20\n      dup1\n      swap2\n      div\n      mul\n      0x20\n      add\n      mload(0x40)\n      swap1\n      dup2\n      add\n      0x40\n      mstore\n      dup1\n      swap3\n      swap2\n      swap1\n      dup2\n      dup2\n      mstore\n      0x20\n      add\n      dup3\n      dup1\n      sload\n      tag_135\n      swap1\n      tag_125\n      jump\t// in\n    tag_135:\n      dup1\n      iszero\n      tag_136\n      jumpi\n      dup1\n      0x1f\n      lt\n      tag_137\n      jumpi\n      0x0100\n      dup1\n      dup4\n      sload\n      div\n      mul\n      dup4\n      mstore\n      swap2\n      0x20\n      add\n      swap2\n      jump(tag_136)\n    tag_137:\n      dup3\n      add\n      swap2\n      swap1\n      0x00\n      mstore\n      keccak256(0x00, 0x20)\n      swap1\n    tag_138:\n      dup2\n      sload\n      dup2\n      mstore\n      swap1\n      0x01\n      add\n      swap1\n      0x20\n      add\n      dup1\n      dup4\n      gt\n      tag_138\n      jumpi\n      dup3\n      swap1\n      sub\n      0x1f\n      and\n      dup3\n      add\n      swap2\n    tag_136:\n      pop\n      pop\n      pop\n      pop\n      pop\n      swap1\n      pop\n      swap4\n      pop\n      swap4\n      pop\n      pop\n      pop\n        /* \"NFTES_Drop.sol\":6299:6821  function randomMinting(address user_addr)... */\n      swap2\n      pop\n      swap2\n      jump\t// out\n        /* \"NFTES_Drop.sol\":7636:8314  function cryptoRandomMint(address user_addr, uint256 noOfMints)... */\n    tag_41:\n        /* \"NFTES_Drop.sol\":7802:7818  uint256[] memory */\n      0x60\n        /* \"NFTES_Drop.sol\":1361:1366  false */\n      0x00\n        /* \"NFTES_Drop.sol\":1349:1366  isPaused == false */\n      iszero\n      iszero\n        /* \"NFTES_Drop.sol\":1349:1357  isPaused */\n      0x0c\n      0x00\n      swap1\n      sload\n      swap1\n      0x0100\n      exp\n      swap1\n      div\n      0xff\n      and\n        /* \"NFTES_Drop.sol\":1349:1366  isPaused == false */\n      iszero\n      iszero\n      eq\n        /* \"NFTES_Drop.sol\":1341:1398  require(isPaused == false, \"Dropsite is not Opened Yet.\") */\n      tag_140\n      jumpi\n      mload(0x40)\n      0x08c379a000000000000000000000000000000000000000000000000000000000\n      dup2\n      mstore\n      0x04\n      add\n      tag_141\n      swap1\n      tag_117\n      jump\t// in\n    tag_141:\n      mload(0x40)\n      dup1\n      swap2\n      sub\n      swap1\n      revert\n    tag_140:\n        /* \"NFTES_Drop.sol\":1478:1479  0 */\n      0x00\n        /* \"NFTES_Drop.sol\":1466:1474  mintFees */\n      sload(0x06)\n        /* \"NFTES_Drop.sol\":1466:1479  mintFees != 0 */\n      eq\n      iszero\n        /* \"NFTES_Drop.sol\":1458:1515  require(mintFees != 0, \"Owner Should set mint Fee First\") */\n      tag_143\n      jumpi\n      mload(0x40)\n      0x08c379a000000000000000000000000000000000000000000000000000000000\n      dup2\n      mstore\n      0x04\n      add\n      tag_144\n      swap1\n      tag_145\n      jump\t// in\n    tag_144:\n      mload(0x40)\n      dup1\n      swap2\n      sub\n      swap1\n      revert\n    tag_143:\n        /* \"NFTES_Drop.sol\":7854:7855  4 */\n      0x04\n        /* \"NFTES_Drop.sol\":7842:7851  noOfMints */\n      dup3\n        /* \"NFTES_Drop.sol\":7842:7855  noOfMints < 4 */\n      lt\n        /* \"NFTES_Drop.sol\":7842:7872  noOfMints < 4 && noOfMints > 0 */\n      dup1\n      iszero\n      tag_147\n      jumpi\n      pop\n        /* \"NFTES_Drop.sol\":7871:7872  0 */\n      0x00\n        /* \"NFTES_Drop.sol\":7859:7868  noOfMints */\n      dup3\n        /* \"NFTES_Drop.sol\":7859:7872  noOfMints > 0 */\n      gt\n        /* \"NFTES_Drop.sol\":7842:7872  noOfMints < 4 && noOfMints > 0 */\n    tag_147:\n        /* \"NFTES_Drop.sol\":7834:7898  require(noOfMints < 4 && noOfMints > 0, \"You can mint 1-3 NFTs\") */\n      tag_148\n      jumpi\n      mload(0x40)\n      0x08c379a000000000000000000000000000000000000000000000000000000000\n      dup2\n      mstore\n      0x04\n      add\n      tag_149\n      swap1\n      tag_150\n      jump\t// in\n    tag_149:\n      mload(0x40)\n      dup1\n      swap2\n      sub\n      swap1\n      revert\n    tag_148:\n        /* \"NFTES_Drop.sol\":7934:7938  1000 */\n      0x03e8\n        /* \"NFTES_Drop.sol\":7916:7931  totalNFTsMinted */\n      sload(0x04)\n        /* \"NFTES_Drop.sol\":7916:7938  totalNFTsMinted < 1000 */\n      lt\n        /* \"NFTES_Drop.sol\":7908:7968  require(totalNFTsMinted < 1000, \"Max Minting Limit reached\") */\n      tag_151\n      jumpi\n      mload(0x40)\n      0x08c379a000000000000000000000000000000000000000000000000000000000\n      dup2\n      mstore\n      0x04\n      add\n      tag_152\n      swap1\n      tag_153\n      jump\t// in\n    tag_152:\n      mload(0x40)\n      dup1\n      swap2\n      sub\n      swap1\n      revert\n    tag_151:\n        /* \"NFTES_Drop.sol\":7998:7999  0 */\n      0x00\n        /* \"NFTES_Drop.sol\":7986:7994  mintFees */\n      sload(0x06)\n        /* \"NFTES_Drop.sol\":7986:7999  mintFees != 0 */\n      eq\n      iszero\n        /* \"NFTES_Drop.sol\":7978:8020  require(mintFees != 0, \"Mint Fee Not Set\") */\n      tag_154\n      jumpi\n      mload(0x40)\n      0x08c379a000000000000000000000000000000000000000000000000000000000\n      dup2\n      mstore\n      0x04\n      add\n      tag_155\n      swap1\n      tag_156\n      jump\t// in\n    tag_155:\n      mload(0x40)\n      dup1\n      swap2\n      sub\n      swap1\n      revert\n    tag_154:\n        /* \"NFTES_Drop.sol\":8062:8071  noOfMints */\n      dup2\n        /* \"NFTES_Drop.sol\":8051:8059  mintFees */\n      sload(0x06)\n        /* \"NFTES_Drop.sol\":8051:8071  mintFees * noOfMints */\n      tag_157\n      swap2\n      swap1\n      tag_158\n      jump\t// in\n    tag_157:\n        /* \"NFTES_Drop.sol\":8038:8047  msg.value */\n      callvalue\n        /* \"NFTES_Drop.sol\":8038:8071  msg.value == mintFees * noOfMints */\n      eq\n        /* \"NFTES_Drop.sol\":8030:8094  require(msg.value == mintFees * noOfMints, \"Not Enough Balance\") */\n      tag_159\n      jumpi\n      mload(0x40)\n      0x08c379a000000000000000000000000000000000000000000000000000000000\n      dup2\n      mstore\n      0x04\n      add\n      tag_160\n      swap1\n      tag_161\n      jump\t// in\n    tag_160:\n      mload(0x40)\n      dup1\n      swap2\n      sub\n      swap1\n      revert\n    tag_159:\n        /* \"NFTES_Drop.sol\":8110:8119  uint256 i */\n      0x00\n        /* \"NFTES_Drop.sol\":8105:8194  for (uint256 i = 0; i < noOfMints; ++i) {... */\n    tag_162:\n        /* \"NFTES_Drop.sol\":8129:8138  noOfMints */\n      dup3\n        /* \"NFTES_Drop.sol\":8125:8126  i */\n      dup2\n        /* \"NFTES_Drop.sol\":8125:8138  i < noOfMints */\n      lt\n        /* \"NFTES_Drop.sol\":8105:8194  for (uint256 i = 0; i < noOfMints; ++i) {... */\n      iszero\n      tag_163\n      jumpi\n        /* \"NFTES_Drop.sol\":8159:8183  randomMinting(user_addr) */\n      tag_165\n        /* \"NFTES_Drop.sol\":8173:8182  user_addr */\n      dup5\n        /* \"NFTES_Drop.sol\":8159:8172  randomMinting */\n      tag_35\n        /* \"NFTES_Drop.sol\":8159:8183  randomMinting(user_addr) */\n      jump\t// in\n    tag_165:\n      pop\n      pop\n        /* \"NFTES_Drop.sol\":8140:8143  ++i */\n      dup1\n      tag_166\n      swap1\n      tag_132\n      jump\t// in\n    tag_166:\n      swap1\n      pop\n        /* \"NFTES_Drop.sol\":8105:8194  for (uint256 i = 0; i < noOfMints; ++i) {... */\n      jump(tag_162)\n    tag_163:\n      pop\n        /* \"NFTES_Drop.sol\":8203:8241  depositAmount(_msgSender(), msg.value) */\n      tag_167\n        /* \"NFTES_Drop.sol\":8217:8229  _msgSender() */\n      tag_168\n        /* \"NFTES_Drop.sol\":8217:8227  _msgSender */\n      tag_92\n        /* \"NFTES_Drop.sol\":8217:8229  _msgSender() */\n      jump\t// in\n    tag_168:\n        /* \"NFTES_Drop.sol\":8231:8240  msg.value */\n      callvalue\n        /* \"NFTES_Drop.sol\":8203:8216  depositAmount */\n      tag_169\n        /* \"NFTES_Drop.sol\":8203:8241  depositAmount(_msgSender(), msg.value) */\n      jump\t// in\n    tag_167:\n        /* \"NFTES_Drop.sol\":8258:8276  dropsite_NFT_Owner */\n      0x0a\n        /* \"NFTES_Drop.sol\":8258:8287  dropsite_NFT_Owner[user_addr] */\n      0x00\n        /* \"NFTES_Drop.sol\":8277:8286  user_addr */\n      dup5\n        /* \"NFTES_Drop.sol\":8258:8287  dropsite_NFT_Owner[user_addr] */\n      0xffffffffffffffffffffffffffffffffffffffff\n      and\n      0xffffffffffffffffffffffffffffffffffffffff\n      and\n      dup2\n      mstore\n      0x20\n      add\n      swap1\n      dup2\n      mstore\n      0x20\n      add\n      0x00\n      keccak256\n        /* \"NFTES_Drop.sol\":8258:8307  dropsite_NFT_Owner[user_addr].owned_Dropsite_NFTs */\n      0x00\n      add\n        /* \"NFTES_Drop.sol\":8251:8307  return dropsite_NFT_Owner[user_addr].owned_Dropsite_NFTs */\n      dup1\n      sload\n      dup1\n      0x20\n      mul\n      0x20\n      add\n      mload(0x40)\n      swap1\n      dup2\n      add\n      0x40\n      mstore\n      dup1\n      swap3\n      swap2\n      swap1\n      dup2\n      dup2\n      mstore\n      0x20\n      add\n      dup3\n      dup1\n      sload\n      dup1\n      iszero\n      tag_170\n      jumpi\n      0x20\n      mul\n      dup3\n      add\n      swap2\n      swap1\n      0x00\n      mstore\n      keccak256(0x00, 0x20)\n      swap1\n    tag_171:\n      dup2\n      sload\n      dup2\n      mstore\n      0x20\n      add\n      swap1\n      0x01\n      add\n      swap1\n      dup1\n      dup4\n      gt\n      tag_171\n      jumpi\n    tag_170:\n      pop\n      pop\n      pop\n      pop\n      pop\n      swap1\n      pop\n        /* \"NFTES_Drop.sol\":7636:8314  function cryptoRandomMint(address user_addr, uint256 noOfMints)... */\n      swap3\n      swap2\n      pop\n      pop\n      jump\t// out\n        /* \"NFTES_Drop.sol\":6868:7421  function fiatRandomMint(address user_addr, uint256 noOfMints)... */\n    tag_47:\n        /* \"NFTES_Drop.sol\":7032:7048  uint256[] memory */\n      0x60\n        /* \"NFTES_Drop.sol\":1196:1201  Owner */\n      0x0c\n      0x01\n      swap1\n      sload\n      swap1\n      0x0100\n      exp\n      swap1\n      div\n      0xffffffffffffffffffffffffffffffffffffffff\n      and\n        /* \"NFTES_Drop.sol\":1180:1201  _msgSender() == Owner */\n      0xffffffffffffffffffffffffffffffffffffffff\n      and\n        /* \"NFTES_Drop.sol\":1180:1192  _msgSender() */\n      tag_173\n        /* \"NFTES_Drop.sol\":1180:1190  _msgSender */\n      tag_92\n        /* \"NFTES_Drop.sol\":1180:1192  _msgSender() */\n      jump\t// in\n    tag_173:\n        /* \"NFTES_Drop.sol\":1180:1201  _msgSender() == Owner */\n      0xffffffffffffffffffffffffffffffffffffffff\n      and\n      eq\n        /* \"NFTES_Drop.sol\":1172:1234  require(_msgSender() == Owner, \"Only NFT-ES Owner can Access\") */\n      tag_174\n      jumpi\n      mload(0x40)\n      0x08c379a000000000000000000000000000000000000000000000000000000000\n      dup2\n      mstore\n      0x04\n      add\n      tag_175\n      swap1\n      tag_95\n      jump\t// in\n    tag_175:\n      mload(0x40)\n      dup1\n      swap2\n      sub\n      swap1\n      revert\n    tag_174:\n        /* \"NFTES_Drop.sol\":1361:1366  false */\n      0x00\n        /* \"NFTES_Drop.sol\":1349:1366  isPaused == false */\n      iszero\n      iszero\n        /* \"NFTES_Drop.sol\":1349:1357  isPaused */\n      0x0c\n      0x00\n      swap1\n      sload\n      swap1\n      0x0100\n      exp\n      swap1\n      div\n      0xff\n      and\n        /* \"NFTES_Drop.sol\":1349:1366  isPaused == false */\n      iszero\n      iszero\n      eq\n        /* \"NFTES_Drop.sol\":1341:1398  require(isPaused == false, \"Dropsite is not Opened Yet.\") */\n      tag_177\n      jumpi\n      mload(0x40)\n      0x08c379a000000000000000000000000000000000000000000000000000000000\n      dup2\n      mstore\n      0x04\n      add\n      tag_178\n      swap1\n      tag_117\n      jump\t// in\n    tag_178:\n      mload(0x40)\n      dup1\n      swap2\n      sub\n      swap1\n      revert\n    tag_177:\n        /* \"NFTES_Drop.sol\":1478:1479  0 */\n      0x00\n        /* \"NFTES_Drop.sol\":1466:1474  mintFees */\n      sload(0x06)\n        /* \"NFTES_Drop.sol\":1466:1479  mintFees != 0 */\n      eq\n      iszero\n        /* \"NFTES_Drop.sol\":1458:1515  require(mintFees != 0, \"Owner Should set mint Fee First\") */\n      tag_180\n      jumpi\n      mload(0x40)\n      0x08c379a000000000000000000000000000000000000000000000000000000000\n      dup2\n      mstore\n      0x04\n      add\n      tag_181\n      swap1\n      tag_145\n      jump\t// in\n    tag_181:\n      mload(0x40)\n      dup1\n      swap2\n      sub\n      swap1\n      revert\n    tag_180:\n        /* \"NFTES_Drop.sol\":7084:7085  4 */\n      0x04\n        /* \"NFTES_Drop.sol\":7072:7081  noOfMints */\n      dup3\n        /* \"NFTES_Drop.sol\":7072:7085  noOfMints < 4 */\n      lt\n        /* \"NFTES_Drop.sol\":7072:7102  noOfMints < 4 && noOfMints > 0 */\n      dup1\n      iszero\n      tag_183\n      jumpi\n      pop\n        /* \"NFTES_Drop.sol\":7101:7102  0 */\n      0x00\n        /* \"NFTES_Drop.sol\":7089:7098  noOfMints */\n      dup3\n        /* \"NFTES_Drop.sol\":7089:7102  noOfMints > 0 */\n      gt\n        /* \"NFTES_Drop.sol\":7072:7102  noOfMints < 4 && noOfMints > 0 */\n    tag_183:\n        /* \"NFTES_Drop.sol\":7064:7128  require(noOfMints < 4 && noOfMints > 0, \"You can mint 1-3 NFTs\") */\n      tag_184\n      jumpi\n      mload(0x40)\n      0x08c379a000000000000000000000000000000000000000000000000000000000\n      dup2\n      mstore\n      0x04\n      add\n      tag_185\n      swap1\n      tag_150\n      jump\t// in\n    tag_185:\n      mload(0x40)\n      dup1\n      swap2\n      sub\n      swap1\n      revert\n    tag_184:\n        /* \"NFTES_Drop.sol\":7164:7168  1000 */\n      0x03e8\n        /* \"NFTES_Drop.sol\":7146:7161  totalNFTsMinted */\n      sload(0x04)\n        /* \"NFTES_Drop.sol\":7146:7168  totalNFTsMinted < 1000 */\n      lt\n        /* \"NFTES_Drop.sol\":7138:7198  require(totalNFTsMinted < 1000, \"Max Minting Limit reached\") */\n      tag_186\n      jumpi\n      mload(0x40)\n      0x08c379a000000000000000000000000000000000000000000000000000000000\n      dup2\n      mstore\n      0x04\n      add\n      tag_187\n      swap1\n      tag_153\n      jump\t// in\n    tag_187:\n      mload(0x40)\n      dup1\n      swap2\n      sub\n      swap1\n      revert\n    tag_186:\n        /* \"NFTES_Drop.sol\":7228:7229  0 */\n      0x00\n        /* \"NFTES_Drop.sol\":7216:7224  mintFees */\n      sload(0x06)\n        /* \"NFTES_Drop.sol\":7216:7229  mintFees != 0 */\n      eq\n      iszero\n        /* \"NFTES_Drop.sol\":7208:7250  require(mintFees != 0, \"Mint Fee Not Set\") */\n      tag_188\n      jumpi\n      mload(0x40)\n      0x08c379a000000000000000000000000000000000000000000000000000000000\n      dup2\n      mstore\n      0x04\n      add\n      tag_189\n      swap1\n      tag_156\n      jump\t// in\n    tag_189:\n      mload(0x40)\n      dup1\n      swap2\n      sub\n      swap1\n      revert\n    tag_188:\n        /* \"NFTES_Drop.sol\":7265:7274  uint256 i */\n      0x00\n        /* \"NFTES_Drop.sol\":7260:7349  for (uint256 i = 0; i < noOfMints; i++) {... */\n    tag_190:\n        /* \"NFTES_Drop.sol\":7284:7293  noOfMints */\n      dup3\n        /* \"NFTES_Drop.sol\":7280:7281  i */\n      dup2\n        /* \"NFTES_Drop.sol\":7280:7293  i < noOfMints */\n      lt\n        /* \"NFTES_Drop.sol\":7260:7349  for (uint256 i = 0; i < noOfMints; i++) {... */\n      iszero\n      tag_191\n      jumpi\n        /* \"NFTES_Drop.sol\":7314:7338  randomMinting(user_addr) */\n      tag_193\n        /* \"NFTES_Drop.sol\":7328:7337  user_addr */\n      dup5\n        /* \"NFTES_Drop.sol\":7314:7327  randomMinting */\n      tag_35\n        /* \"NFTES_Drop.sol\":7314:7338  randomMinting(user_addr) */\n      jump\t// in\n    tag_193:\n      pop\n      pop\n        /* \"NFTES_Drop.sol\":7295:7298  i++ */\n      dup1\n      dup1\n      tag_194\n      swap1\n      tag_132\n      jump\t// in\n    tag_194:\n      swap2\n      pop\n      pop\n        /* \"NFTES_Drop.sol\":7260:7349  for (uint256 i = 0; i < noOfMints; i++) {... */\n      jump(tag_190)\n    tag_191:\n      pop\n        /* \"NFTES_Drop.sol\":7365:7383  dropsite_NFT_Owner */\n      0x0a\n        /* \"NFTES_Drop.sol\":7365:7394  dropsite_NFT_Owner[user_addr] */\n      0x00\n        /* \"NFTES_Drop.sol\":7384:7393  user_addr */\n      dup5\n        /* \"NFTES_Drop.sol\":7365:7394  dropsite_NFT_Owner[user_addr] */\n      0xffffffffffffffffffffffffffffffffffffffff\n      and\n      0xffffffffffffffffffffffffffffffffffffffff\n      and\n      dup2\n      mstore\n      0x20\n      add\n      swap1\n      dup2\n      mstore\n      0x20\n      add\n      0x00\n      keccak256\n        /* \"NFTES_Drop.sol\":7365:7414  dropsite_NFT_Owner[user_addr].owned_Dropsite_NFTs */\n      0x00\n      add\n        /* \"NFTES_Drop.sol\":7358:7414  return dropsite_NFT_Owner[user_addr].owned_Dropsite_NFTs */\n      dup1\n      sload\n      dup1\n      0x20\n      mul\n      0x20\n      add\n      mload(0x40)\n      swap1\n      dup2\n      add\n      0x40\n      mstore\n      dup1\n      swap3\n      swap2\n      swap1\n      dup2\n      dup2\n      mstore\n      0x20\n      add\n      dup3\n      dup1\n      sload\n      dup1\n      iszero\n      tag_195\n      jumpi\n      0x20\n      mul\n      dup3\n      add\n      swap2\n      swap1\n      0x00\n      mstore\n      keccak256(0x00, 0x20)\n      swap1\n    tag_196:\n      dup2\n      sload\n      dup2\n      mstore\n      0x20\n      add\n      swap1\n      0x01\n      add\n      swap1\n      dup1\n      dup4\n      gt\n      tag_196\n      jumpi\n    tag_195:\n      pop\n      pop\n      pop\n      pop\n      pop\n      swap1\n      pop\n        /* \"NFTES_Drop.sol\":6868:7421  function fiatRandomMint(address user_addr, uint256 noOfMints)... */\n      swap3\n      swap2\n      pop\n      pop\n      jump\t// out\n        /* \"NFTES_Drop.sol\":2348:2598  function checkMintedCategoryWise()... */\n    tag_51:\n        /* \"NFTES_Drop.sol\":2487:2494  uint256 */\n      0x00\n        /* \"NFTES_Drop.sol\":2508:2515  uint256 */\n      dup1\n        /* \"NFTES_Drop.sol\":2529:2536  uint256 */\n      0x00\n        /* \"NFTES_Drop.sol\":1196:1201  Owner */\n      0x0c\n      0x01\n      swap1\n      sload\n      swap1\n      0x0100\n      exp\n      swap1\n      div\n      0xffffffffffffffffffffffffffffffffffffffff\n      and\n        /* \"NFTES_Drop.sol\":1180:1201  _msgSender() == Owner */\n      0xffffffffffffffffffffffffffffffffffffffff\n      and\n        /* \"NFTES_Drop.sol\":1180:1192  _msgSender() */\n      tag_198\n        /* \"NFTES_Drop.sol\":1180:1190  _msgSender */\n      tag_92\n        /* \"NFTES_Drop.sol\":1180:1192  _msgSender() */\n      jump\t// in\n    tag_198:\n        /* \"NFTES_Drop.sol\":1180:1201  _msgSender() == Owner */\n      0xffffffffffffffffffffffffffffffffffffffff\n      and\n      eq\n        /* \"NFTES_Drop.sol\":1172:1234  require(_msgSender() == Owner, \"Only NFT-ES Owner can Access\") */\n      tag_199\n      jumpi\n      mload(0x40)\n      0x08c379a000000000000000000000000000000000000000000000000000000000\n      dup2\n      mstore\n      0x04\n      add\n      tag_200\n      swap1\n      tag_95\n      jump\t// in\n    tag_200:\n      mload(0x40)\n      dup1\n      swap2\n      sub\n      swap1\n      revert\n    tag_199:\n        /* \"NFTES_Drop.sol\":1361:1366  false */\n      0x00\n        /* \"NFTES_Drop.sol\":1349:1366  isPaused == false */\n      iszero\n      iszero\n        /* \"NFTES_Drop.sol\":1349:1357  isPaused */\n      0x0c\n      0x00\n      swap1\n      sload\n      swap1\n      0x0100\n      exp\n      swap1\n      div\n      0xff\n      and\n        /* \"NFTES_Drop.sol\":1349:1366  isPaused == false */\n      iszero\n      iszero\n      eq\n        /* \"NFTES_Drop.sol\":1341:1398  require(isPaused == false, \"Dropsite is not Opened Yet.\") */\n      tag_202\n      jumpi\n      mload(0x40)\n      0x08c379a000000000000000000000000000000000000000000000000000000000\n      dup2\n      mstore\n      0x04\n      add\n      tag_203\n      swap1\n      tag_117\n      jump\t// in\n    tag_203:\n      mload(0x40)\n      dup1\n      swap2\n      sub\n      swap1\n      revert\n    tag_202:\n        /* \"NFTES_Drop.sol\":2569:2576  Diamond */\n      sload(0x07)\n        /* \"NFTES_Drop.sol\":2578:2582  Gold */\n      sload(0x08)\n        /* \"NFTES_Drop.sol\":2584:2590  Silver */\n      sload(0x09)\n        /* \"NFTES_Drop.sol\":2561:2591  return (Diamond, Gold, Silver) */\n      swap3\n      pop\n      swap3\n      pop\n      swap3\n      pop\n        /* \"NFTES_Drop.sol\":2348:2598  function checkMintedCategoryWise()... */\n      swap1\n      swap2\n      swap3\n      jump\t// out\n        /* \"NFTES_Drop.sol\":2721:2879  function getMintFee()... */\n    tag_56:\n        /* \"NFTES_Drop.sol\":2834:2841  uint256 */\n      0x00\n        /* \"NFTES_Drop.sol\":1196:1201  Owner */\n      0x0c\n      0x01\n      swap1\n      sload\n      swap1\n      0x0100\n      exp\n      swap1\n      div\n      0xffffffffffffffffffffffffffffffffffffffff\n      and\n        /* \"NFTES_Drop.sol\":1180:1201  _msgSender() == Owner */\n      0xffffffffffffffffffffffffffffffffffffffff\n      and\n        /* \"NFTES_Drop.sol\":1180:1192  _msgSender() */\n      tag_206\n        /* \"NFTES_Drop.sol\":1180:1190  _msgSender */\n      tag_92\n        /* \"NFTES_Drop.sol\":1180:1192  _msgSender() */\n      jump\t// in\n    tag_206:\n        /* \"NFTES_Drop.sol\":1180:1201  _msgSender() == Owner */\n      0xffffffffffffffffffffffffffffffffffffffff\n      and\n      eq\n        /* \"NFTES_Drop.sol\":1172:1234  require(_msgSender() == Owner, \"Only NFT-ES Owner can Access\") */\n      tag_207\n      jumpi\n      mload(0x40)\n      0x08c379a000000000000000000000000000000000000000000000000000000000\n      dup2\n      mstore\n      0x04\n      add\n      tag_208\n      swap1\n      tag_95\n      jump\t// in\n    tag_208:\n      mload(0x40)\n      dup1\n      swap2\n      sub\n      swap1\n      revert\n    tag_207:\n        /* \"NFTES_Drop.sol\":1361:1366  false */\n      0x00\n        /* \"NFTES_Drop.sol\":1349:1366  isPaused == false */\n      iszero\n      iszero\n        /* \"NFTES_Drop.sol\":1349:1357  isPaused */\n      0x0c\n      0x00\n      swap1\n      sload\n      swap1\n      0x0100\n      exp\n      swap1\n      div\n      0xff\n      and\n        /* \"NFTES_Drop.sol\":1349:1366  isPaused == false */\n      iszero\n      iszero\n      eq\n        /* \"NFTES_Drop.sol\":1341:1398  require(isPaused == false, \"Dropsite is not Opened Yet.\") */\n      tag_210\n      jumpi\n      mload(0x40)\n      0x08c379a000000000000000000000000000000000000000000000000000000000\n      dup2\n      mstore\n      0x04\n      add\n      tag_211\n      swap1\n      tag_117\n      jump\t// in\n    tag_211:\n      mload(0x40)\n      dup1\n      swap2\n      sub\n      swap1\n      revert\n    tag_210:\n        /* \"NFTES_Drop.sol\":2864:2872  mintFees */\n      sload(0x06)\n        /* \"NFTES_Drop.sol\":2857:2872  return mintFees */\n      swap1\n      pop\n        /* \"NFTES_Drop.sol\":2721:2879  function getMintFee()... */\n      swap1\n      jump\t// out\n        /* \"NFTES_Drop.sol\":3657:3769  function contractBalance() public view OnlyOwner returns (uint256) {... */\n    tag_60:\n        /* \"NFTES_Drop.sol\":3715:3722  uint256 */\n      0x00\n        /* \"NFTES_Drop.sol\":1196:1201  Owner */\n      0x0c\n      0x01\n      swap1\n      sload\n      swap1\n      0x0100\n      exp\n      swap1\n      div\n      0xffffffffffffffffffffffffffffffffffffffff\n      and\n        /* \"NFTES_Drop.sol\":1180:1201  _msgSender() == Owner */\n      0xffffffffffffffffffffffffffffffffffffffff\n      and\n        /* \"NFTES_Drop.sol\":1180:1192  _msgSender() */\n      tag_214\n        /* \"NFTES_Drop.sol\":1180:1190  _msgSender */\n      tag_92\n        /* \"NFTES_Drop.sol\":1180:1192  _msgSender() */\n      jump\t// in\n    tag_214:\n        /* \"NFTES_Drop.sol\":1180:1201  _msgSender() == Owner */\n      0xffffffffffffffffffffffffffffffffffffffff\n      and\n      eq\n        /* \"NFTES_Drop.sol\":1172:1234  require(_msgSender() == Owner, \"Only NFT-ES Owner can Access\") */\n      tag_215\n      jumpi\n      mload(0x40)\n      0x08c379a000000000000000000000000000000000000000000000000000000000\n      dup2\n      mstore\n      0x04\n      add\n      tag_216\n      swap1\n      tag_95\n      jump\t// in\n    tag_216:\n      mload(0x40)\n      dup1\n      swap2\n      sub\n      swap1\n      revert\n    tag_215:\n        /* \"NFTES_Drop.sol\":3741:3762  address(this).balance */\n      selfbalance\n        /* \"NFTES_Drop.sol\":3734:3762  return address(this).balance */\n      swap1\n      pop\n        /* \"NFTES_Drop.sol\":3657:3769  function contractBalance() public view OnlyOwner returns (uint256) {... */\n      swap1\n      jump\t// out\n        /* \"NFTES_Drop.sol\":1899:2053  function changeOwner(address newOwnerAddr)... */\n    tag_65:\n        /* \"NFTES_Drop.sol\":1196:1201  Owner */\n      0x0c\n      0x01\n      swap1\n      sload\n      swap1\n      0x0100\n      exp\n      swap1\n      div\n      0xffffffffffffffffffffffffffffffffffffffff\n      and\n        /* \"NFTES_Drop.sol\":1180:1201  _msgSender() == Owner */\n      0xffffffffffffffffffffffffffffffffffffffff\n      and\n        /* \"NFTES_Drop.sol\":1180:1192  _msgSender() */\n      tag_219\n        /* \"NFTES_Drop.sol\":1180:1190  _msgSender */\n      tag_92\n        /* \"NFTES_Drop.sol\":1180:1192  _msgSender() */\n      jump\t// in\n    tag_219:\n        /* \"NFTES_Drop.sol\":1180:1201  _msgSender() == Owner */\n      0xffffffffffffffffffffffffffffffffffffffff\n      and\n      eq\n        /* \"NFTES_Drop.sol\":1172:1234  require(_msgSender() == Owner, \"Only NFT-ES Owner can Access\") */\n      tag_220\n      jumpi\n      mload(0x40)\n      0x08c379a000000000000000000000000000000000000000000000000000000000\n      dup2\n      mstore\n      0x04\n      add\n      tag_221\n      swap1\n      tag_95\n      jump\t// in\n    tag_221:\n      mload(0x40)\n      dup1\n      swap2\n      sub\n      swap1\n      revert\n    tag_220:\n        /* \"NFTES_Drop.sol\":1361:1366  false */\n      0x00\n        /* \"NFTES_Drop.sol\":1349:1366  isPaused == false */\n      iszero\n      iszero\n        /* \"NFTES_Drop.sol\":1349:1357  isPaused */\n      0x0c\n      0x00\n      swap1\n      sload\n      swap1\n      0x0100\n      exp\n      swap1\n      div\n      0xff\n      and\n        /* \"NFTES_Drop.sol\":1349:1366  isPaused == false */\n      iszero\n      iszero\n      eq\n        /* \"NFTES_Drop.sol\":1341:1398  require(isPaused == false, \"Dropsite is not Opened Yet.\") */\n      tag_223\n      jumpi\n      mload(0x40)\n      0x08c379a000000000000000000000000000000000000000000000000000000000\n      dup2\n      mstore\n      0x04\n      add\n      tag_224\n      swap1\n      tag_117\n      jump\t// in\n    tag_224:\n      mload(0x40)\n      dup1\n      swap2\n      sub\n      swap1\n      revert\n    tag_223:\n        /* \"NFTES_Drop.sol\":2033:2045  newOwnerAddr */\n      dup1\n        /* \"NFTES_Drop.sol\":2017:2022  Owner */\n      0x0c\n      0x01\n        /* \"NFTES_Drop.sol\":2017:2046  Owner = payable(newOwnerAddr) */\n      0x0100\n      exp\n      dup2\n      sload\n      dup2\n      0xffffffffffffffffffffffffffffffffffffffff\n      mul\n      not\n      and\n      swap1\n      dup4\n      0xffffffffffffffffffffffffffffffffffffffff\n      and\n      mul\n      or\n      swap1\n      sstore\n      pop\n        /* \"NFTES_Drop.sol\":1899:2053  function changeOwner(address newOwnerAddr)... */\n      pop\n      jump\t// out\n        /* \"NFTES_Drop.sol\":3021:3161  function stopDropsite() public OnlyOwner {... */\n    tag_68:\n        /* \"NFTES_Drop.sol\":1196:1201  Owner */\n      0x0c\n      0x01\n      swap1\n      sload\n      swap1\n      0x0100\n      exp\n      swap1\n      div\n      0xffffffffffffffffffffffffffffffffffffffff\n      and\n        /* \"NFTES_Drop.sol\":1180:1201  _msgSender() == Owner */\n      0xffffffffffffffffffffffffffffffffffffffff\n      and\n        /* \"NFTES_Drop.sol\":1180:1192  _msgSender() */\n      tag_227\n        /* \"NFTES_Drop.sol\":1180:1190  _msgSender */\n      tag_92\n        /* \"NFTES_Drop.sol\":1180:1192  _msgSender() */\n      jump\t// in\n    tag_227:\n        /* \"NFTES_Drop.sol\":1180:1201  _msgSender() == Owner */\n      0xffffffffffffffffffffffffffffffffffffffff\n      and\n      eq\n        /* \"NFTES_Drop.sol\":1172:1234  require(_msgSender() == Owner, \"Only NFT-ES Owner can Access\") */\n      tag_228\n      jumpi\n      mload(0x40)\n      0x08c379a000000000000000000000000000000000000000000000000000000000\n      dup2\n      mstore\n      0x04\n      add\n      tag_229\n      swap1\n      tag_95\n      jump\t// in\n    tag_229:\n      mload(0x40)\n      dup1\n      swap2\n      sub\n      swap1\n      revert\n    tag_228:\n        /* \"NFTES_Drop.sol\":3092:3097  false */\n      0x00\n        /* \"NFTES_Drop.sol\":3080:3097  isPaused == false */\n      iszero\n      iszero\n        /* \"NFTES_Drop.sol\":3080:3088  isPaused */\n      0x0c\n      0x00\n      swap1\n      sload\n      swap1\n      0x0100\n      exp\n      swap1\n      div\n      0xff\n      and\n        /* \"NFTES_Drop.sol\":3080:3097  isPaused == false */\n      iszero\n      iszero\n      eq\n        /* \"NFTES_Drop.sol\":3072:3129  require(isPaused == false, \"Dropsite is already Stopped\") */\n      tag_231\n      jumpi\n      mload(0x40)\n      0x08c379a000000000000000000000000000000000000000000000000000000000\n      dup2\n      mstore\n      0x04\n      add\n      tag_232\n      swap1\n      tag_233\n      jump\t// in\n    tag_232:\n      mload(0x40)\n      dup1\n      swap2\n      sub\n      swap1\n      revert\n    tag_231:\n        /* \"NFTES_Drop.sol\":3150:3154  true */\n      0x01\n        /* \"NFTES_Drop.sol\":3139:3147  isPaused */\n      0x0c\n      0x00\n        /* \"NFTES_Drop.sol\":3139:3154  isPaused = true */\n      0x0100\n      exp\n      dup2\n      sload\n      dup2\n      0xff\n      mul\n      not\n      and\n      swap1\n      dup4\n      iszero\n      iszero\n      mul\n      or\n      swap1\n      sstore\n      pop\n        /* \"NFTES_Drop.sol\":3021:3161  function stopDropsite() public OnlyOwner {... */\n      jump\t// out\n        /* \"NFTES_Drop.sol\":1538:1565  bool public isPaused = true */\n    tag_71:\n      0x0c\n      0x00\n      swap1\n      sload\n      swap1\n      0x0100\n      exp\n      swap1\n      div\n      0xff\n      and\n      dup2\n      jump\t// out\n        /* \"NFTES_Drop.sol\":1571:1599  address payable public Owner */\n    tag_76:\n      0x0c\n      0x01\n      swap1\n      sload\n      swap1\n      0x0100\n      exp\n      swap1\n      div\n      0xffffffffffffffffffffffffffffffffffffffff\n      and\n      dup2\n      jump\t// out\n        /* \"NFTES_Drop.sol\":2604:2715  function setMintFee(uint256 _mintFee) public OnlyOwner contractIsNotPaused {... */\n    tag_83:\n        /* \"NFTES_Drop.sol\":1196:1201  Owner */\n      0x0c\n      0x01\n      swap1\n      sload\n      swap1\n      0x0100\n      exp\n      swap1\n      div\n      0xffffffffffffffffffffffffffffffffffffffff\n      and\n        /* \"NFTES_Drop.sol\":1180:1201  _msgSender() == Owner */\n      0xffffffffffffffffffffffffffffffffffffffff\n      and\n        /* \"NFTES_Drop.sol\":1180:1192  _msgSender() */\n      tag_235\n        /* \"NFTES_Drop.sol\":1180:1190  _msgSender */\n      tag_92\n        /* \"NFTES_Drop.sol\":1180:1192  _msgSender() */\n      jump\t// in\n    tag_235:\n        /* \"NFTES_Drop.sol\":1180:1201  _msgSender() == Owner */\n      0xffffffffffffffffffffffffffffffffffffffff\n      and\n      eq\n        /* \"NFTES_Drop.sol\":1172:1234  require(_msgSender() == Owner, \"Only NFT-ES Owner can Access\") */\n      tag_236\n      jumpi\n      mload(0x40)\n      0x08c379a000000000000000000000000000000000000000000000000000000000\n      dup2\n      mstore\n      0x04\n      add\n      tag_237\n      swap1\n      tag_95\n      jump\t// in\n    tag_237:\n      mload(0x40)\n      dup1\n      swap2\n      sub\n      swap1\n      revert\n    tag_236:\n        /* \"NFTES_Drop.sol\":1361:1366  false */\n      0x00\n        /* \"NFTES_Drop.sol\":1349:1366  isPaused == false */\n      iszero\n      iszero\n        /* \"NFTES_Drop.sol\":1349:1357  isPaused */\n      0x0c\n      0x00\n      swap1\n      sload\n      swap1\n      0x0100\n      exp\n      swap1\n      div\n      0xff\n      and\n        /* \"NFTES_Drop.sol\":1349:1366  isPaused == false */\n      iszero\n      iszero\n      eq\n        /* \"NFTES_Drop.sol\":1341:1398  require(isPaused == false, \"Dropsite is not Opened Yet.\") */\n      tag_239\n      jumpi\n      mload(0x40)\n      0x08c379a000000000000000000000000000000000000000000000000000000000\n      dup2\n      mstore\n      0x04\n      add\n      tag_240\n      swap1\n      tag_117\n      jump\t// in\n    tag_240:\n      mload(0x40)\n      dup1\n      swap2\n      sub\n      swap1\n      revert\n    tag_239:\n        /* \"NFTES_Drop.sol\":2700:2708  _mintFee */\n      dup1\n        /* \"NFTES_Drop.sol\":2689:2697  mintFees */\n      0x06\n        /* \"NFTES_Drop.sol\":2689:2708  mintFees = _mintFee */\n      dup2\n      swap1\n      sstore\n      pop\n        /* \"NFTES_Drop.sol\":2604:2715  function setMintFee(uint256 _mintFee) public OnlyOwner contractIsNotPaused {... */\n      pop\n      jump\t// out\n        /* \"NFTES_Drop.sol\":2097:2295  function returnOwner(address addr)... */\n    tag_87:\n        /* \"NFTES_Drop.sol\":2205:2221  uint256[] memory */\n      0x60\n        /* \"NFTES_Drop.sol\":1361:1366  false */\n      0x00\n        /* \"NFTES_Drop.sol\":1349:1366  isPaused == false */\n      iszero\n      iszero\n        /* \"NFTES_Drop.sol\":1349:1357  isPaused */\n      0x0c\n      0x00\n      swap1\n      sload\n      swap1\n      0x0100\n      exp\n      swap1\n      div\n      0xff\n      and\n        /* \"NFTES_Drop.sol\":1349:1366  isPaused == false */\n      iszero\n      iszero\n      eq\n        /* \"NFTES_Drop.sol\":1341:1398  require(isPaused == false, \"Dropsite is not Opened Yet.\") */\n      tag_243\n      jumpi\n      mload(0x40)\n      0x08c379a000000000000000000000000000000000000000000000000000000000\n      dup2\n      mstore\n      0x04\n      add\n      tag_244\n      swap1\n      tag_117\n      jump\t// in\n    tag_244:\n      mload(0x40)\n      dup1\n      swap2\n      sub\n      swap1\n      revert\n    tag_243:\n        /* \"NFTES_Drop.sol\":2244:2262  dropsite_NFT_Owner */\n      0x0a\n        /* \"NFTES_Drop.sol\":2244:2268  dropsite_NFT_Owner[addr] */\n      0x00\n        /* \"NFTES_Drop.sol\":2263:2267  addr */\n      dup4\n        /* \"NFTES_Drop.sol\":2244:2268  dropsite_NFT_Owner[addr] */\n      0xffffffffffffffffffffffffffffffffffffffff\n      and\n      0xffffffffffffffffffffffffffffffffffffffff\n      and\n      dup2\n      mstore\n      0x20\n      add\n      swap1\n      dup2\n      mstore\n      0x20\n      add\n      0x00\n      keccak256\n        /* \"NFTES_Drop.sol\":2244:2288  dropsite_NFT_Owner[addr].owned_Dropsite_NFTs */\n      0x00\n      add\n        /* \"NFTES_Drop.sol\":2237:2288  return dropsite_NFT_Owner[addr].owned_Dropsite_NFTs */\n      dup1\n      sload\n      dup1\n      0x20\n      mul\n      0x20\n      add\n      mload(0x40)\n      swap1\n      dup2\n      add\n      0x40\n      mstore\n      dup1\n      swap3\n      swap2\n      swap1\n      dup2\n      dup2\n      mstore\n      0x20\n      add\n      dup3\n      dup1\n      sload\n      dup1\n      iszero\n      tag_246\n      jumpi\n      0x20\n      mul\n      dup3\n      add\n      swap2\n      swap1\n      0x00\n      mstore\n      keccak256(0x00, 0x20)\n      swap1\n    tag_247:\n      dup2\n      sload\n      dup2\n      mstore\n      0x20\n      add\n      swap1\n      0x01\n      add\n      swap1\n      dup1\n      dup4\n      gt\n      tag_247\n      jumpi\n    tag_246:\n      pop\n      pop\n      pop\n      pop\n      pop\n      swap1\n      pop\n        /* \"NFTES_Drop.sol\":2097:2295  function returnOwner(address addr)... */\n      swap2\n      swap1\n      pop\n      jump\t// out\n        /* \"Context.sol\":640:736  function _msgSender() internal view virtual returns (address) {... */\n    tag_92:\n        /* \"Context.sol\":693:700  address */\n      0x00\n        /* \"Context.sol\":719:729  msg.sender */\n      caller\n        /* \"Context.sol\":712:729  return msg.sender */\n      swap1\n      pop\n        /* \"Context.sol\":640:736  function _msgSender() internal view virtual returns (address) {... */\n      swap1\n      jump\t// out\n        /* \"NFTES_Drop.sol\":3880:4427  function random() internal view returns (uint256) {... */\n    tag_120:\n        /* \"NFTES_Drop.sol\":3921:3928  uint256 */\n      0x00\n        /* \"NFTES_Drop.sol\":4017:4037  uint256 randomnumber */\n      dup1\n        /* \"NFTES_Drop.sol\":4389:4391  20 */\n      0x14\n        /* \"NFTES_Drop.sol\":4277:4284  Diamond */\n      sload(0x07)\n        /* \"NFTES_Drop.sol\":4246:4250  Gold */\n      sload(0x08)\n        /* \"NFTES_Drop.sol\":4213:4219  Silver */\n      sload(0x09)\n        /* \"NFTES_Drop.sol\":4171:4186  totalNFTsMinted */\n      sload(0x04)\n        /* \"NFTES_Drop.sol\":4128:4143  block.timestamp */\n      timestamp\n        /* \"NFTES_Drop.sol\":4127:4186  (block.timestamp) +... */\n      tag_250\n      swap2\n      swap1\n      tag_251\n      jump\t// in\n    tag_250:\n        /* \"NFTES_Drop.sol\":4127:4219  (block.timestamp) +... */\n      tag_252\n      swap2\n      swap1\n      tag_251\n      jump\t// in\n    tag_252:\n        /* \"NFTES_Drop.sol\":4127:4250  (block.timestamp) +... */\n      tag_253\n      swap2\n      swap1\n      tag_251\n      jump\t// in\n    tag_253:\n        /* \"NFTES_Drop.sol\":4127:4284  (block.timestamp) +... */\n      tag_254\n      swap2\n      swap1\n      tag_251\n      jump\t// in\n    tag_254:\n        /* \"NFTES_Drop.sol\":4307:4317  msg.sender */\n      caller\n        /* \"NFTES_Drop.sol\":4339:4344  Owner */\n      0x0c\n      0x01\n      swap1\n      sload\n      swap1\n      0x0100\n      exp\n      swap1\n      div\n      0xffffffffffffffffffffffffffffffffffffffff\n      and\n        /* \"NFTES_Drop.sol\":4088:4362  abi.encodePacked(... */\n      add(0x20, mload(0x40))\n      tag_255\n      swap4\n      swap3\n      swap2\n      swap1\n      tag_256\n      jump\t// in\n    tag_255:\n      mload(0x40)\n      0x20\n      dup2\n      dup4\n      sub\n      sub\n      dup2\n      mstore\n      swap1\n      0x40\n      mstore\n        /* \"NFTES_Drop.sol\":4061:4376  keccak256(... */\n      dup1\n      mload\n      swap1\n      0x20\n      add\n      keccak256\n        /* \"NFTES_Drop.sol\":4040:4386  uint256(... */\n      0x00\n      shr\n        /* \"NFTES_Drop.sol\":4040:4391  uint256(... */\n      tag_257\n      swap2\n      swap1\n      tag_258\n      jump\t// in\n    tag_257:\n        /* \"NFTES_Drop.sol\":4017:4391  uint256 randomnumber = uint256(... */\n      swap1\n      pop\n        /* \"NFTES_Drop.sol\":4408:4420  randomnumber */\n      dup1\n        /* \"NFTES_Drop.sol\":4401:4420  return randomnumber */\n      swap2\n      pop\n      pop\n        /* \"NFTES_Drop.sol\":3880:4427  function random() internal view returns (uint256) {... */\n      swap1\n      jump\t// out\n        /* \"NFTES_Drop.sol\":4613:6293  function updateConditions(uint256 index)... */\n    tag_122:\n        /* \"NFTES_Drop.sol\":4716:4723  uint256 */\n      0x00\n        /* \"NFTES_Drop.sol\":1361:1366  false */\n      dup1\n        /* \"NFTES_Drop.sol\":1349:1366  isPaused == false */\n      iszero\n      iszero\n        /* \"NFTES_Drop.sol\":1349:1357  isPaused */\n      0x0c\n      0x00\n      swap1\n      sload\n      swap1\n      0x0100\n      exp\n      swap1\n      div\n      0xff\n      and\n        /* \"NFTES_Drop.sol\":1349:1366  isPaused == false */\n      iszero\n      iszero\n      eq\n        /* \"NFTES_Drop.sol\":1341:1398  require(isPaused == false, \"Dropsite is not Opened Yet.\") */\n      tag_260\n      jumpi\n      mload(0x40)\n      0x08c379a000000000000000000000000000000000000000000000000000000000\n      dup2\n      mstore\n      0x04\n      add\n      tag_261\n      swap1\n      tag_117\n      jump\t// in\n    tag_261:\n      mload(0x40)\n      dup1\n      swap2\n      sub\n      swap1\n      revert\n    tag_260:\n        /* \"NFTES_Drop.sol\":4739:4752  uint256 nftId */\n      0x00\n        /* \"NFTES_Drop.sol\":4755:4759  nums */\n      0x03\n        /* \"NFTES_Drop.sol\":4760:4765  index */\n      dup4\n        /* \"NFTES_Drop.sol\":4755:4766  nums[index] */\n      0x14\n      dup2\n      lt\n      tag_263\n      jumpi\n      tag_264\n      tag_265\n      jump\t// in\n    tag_264:\n    tag_263:\n      0x20\n      swap2\n      dup3\n      dup3\n      div\n      add\n      swap2\n      swap1\n      mod\n      swap1\n      sload\n      swap1\n      0x0100\n      exp\n      swap1\n      div\n      0xff\n      and\n        /* \"NFTES_Drop.sol\":4739:4766  uint256 nftId = nums[index] */\n      0xff\n      and\n      swap1\n      pop\n        /* \"NFTES_Drop.sol\":4861:4862  0 */\n      0x00\n        /* \"NFTES_Drop.sol\":4852:4857  nftId */\n      dup2\n        /* \"NFTES_Drop.sol\":4852:4862  nftId == 0 */\n      eq\n        /* \"NFTES_Drop.sol\":4852:4878  nftId == 0 && Diamond < 50 */\n      dup1\n      iszero\n      tag_267\n      jumpi\n      pop\n        /* \"NFTES_Drop.sol\":4876:4878  50 */\n      0x32\n        /* \"NFTES_Drop.sol\":4866:4873  Diamond */\n      sload(0x07)\n        /* \"NFTES_Drop.sol\":4866:4878  Diamond < 50 */\n      lt\n        /* \"NFTES_Drop.sol\":4852:4878  nftId == 0 && Diamond < 50 */\n    tag_267:\n        /* \"NFTES_Drop.sol\":4848:6287  if (nftId == 0 && Diamond < 50) {... */\n      iszero\n      tag_268\n      jumpi\n        /* \"NFTES_Drop.sol\":4894:4901  Diamond */\n      0x07\n      0x00\n        /* \"NFTES_Drop.sol\":4894:4903  Diamond++ */\n      dup2\n      sload\n      dup1\n      swap3\n      swap2\n      swap1\n      tag_269\n      swap1\n      tag_132\n      jump\t// in\n    tag_269:\n      swap2\n      swap1\n      pop\n      sstore\n      pop\n        /* \"NFTES_Drop.sol\":4977:5002  Strings.toString(Diamond) */\n      tag_270\n        /* \"NFTES_Drop.sol\":4994:5001  Diamond */\n      sload(0x07)\n        /* \"NFTES_Drop.sol\":4977:4993  Strings.toString */\n      tag_271\n        /* \"NFTES_Drop.sol\":4977:5002  Strings.toString(Diamond) */\n      jump\t// in\n    tag_270:\n        /* \"NFTES_Drop.sol\":4948:5003  abi.encodePacked(\"Diamond_\", Strings.toString(Diamond)) */\n      add(0x20, mload(0x40))\n      tag_272\n      swap2\n      swap1\n      tag_273\n      jump\t// in\n    tag_272:\n      mload(0x40)\n      0x20\n      dup2\n      dup4\n      sub\n      sub\n      dup2\n      mstore\n      swap1\n      0x40\n      mstore\n        /* \"NFTES_Drop.sol\":4917:4921  data */\n      0x02\n        /* \"NFTES_Drop.sol\":4917:5017  data = string(... */\n      swap1\n      dup1\n      mload\n      swap1\n      0x20\n      add\n      swap1\n      tag_274\n      swap3\n      swap2\n      swap1\n      tag_275\n      jump\t// in\n    tag_274:\n      pop\n        /* \"NFTES_Drop.sol\":5038:5043  nftId */\n      dup1\n        /* \"NFTES_Drop.sol\":5031:5043  return nftId */\n      swap2\n      pop\n      pop\n      jump(tag_262)\n        /* \"NFTES_Drop.sol\":4848:6287  if (nftId == 0 && Diamond < 50) {... */\n    tag_268:\n        /* \"NFTES_Drop.sol\":5171:5172  1 */\n      0x01\n        /* \"NFTES_Drop.sol\":5162:5167  nftId */\n      dup2\n        /* \"NFTES_Drop.sol\":5162:5172  nftId <= 1 */\n      gt\n      iszero\n        /* \"NFTES_Drop.sol\":5162:5186  nftId <= 1 && Gold < 100 */\n      dup1\n      iszero\n      tag_277\n      jumpi\n      pop\n        /* \"NFTES_Drop.sol\":5183:5186  100 */\n      0x64\n        /* \"NFTES_Drop.sol\":5176:5180  Gold */\n      sload(0x08)\n        /* \"NFTES_Drop.sol\":5176:5186  Gold < 100 */\n      lt\n        /* \"NFTES_Drop.sol\":5162:5186  nftId <= 1 && Gold < 100 */\n    tag_277:\n        /* \"NFTES_Drop.sol\":5158:6287  if (nftId <= 1 && Gold < 100) {... */\n      iszero\n      tag_278\n      jumpi\n        /* \"NFTES_Drop.sol\":5202:5206  Gold */\n      0x08\n      0x00\n        /* \"NFTES_Drop.sol\":5202:5208  Gold++ */\n      dup2\n      sload\n      dup1\n      swap3\n      swap2\n      swap1\n      tag_279\n      swap1\n      tag_132\n      jump\t// in\n    tag_279:\n      swap2\n      swap1\n      pop\n      sstore\n      pop\n        /* \"NFTES_Drop.sol\":5262:5284  Strings.toString(Gold) */\n      tag_280\n        /* \"NFTES_Drop.sol\":5279:5283  Gold */\n      sload(0x08)\n        /* \"NFTES_Drop.sol\":5262:5278  Strings.toString */\n      tag_271\n        /* \"NFTES_Drop.sol\":5262:5284  Strings.toString(Gold) */\n      jump\t// in\n    tag_280:\n        /* \"NFTES_Drop.sol\":5236:5285  abi.encodePacked(\"Gold_\", Strings.toString(Gold)) */\n      add(0x20, mload(0x40))\n      tag_281\n      swap2\n      swap1\n      tag_282\n      jump\t// in\n    tag_281:\n      mload(0x40)\n      0x20\n      dup2\n      dup4\n      sub\n      sub\n      dup2\n      mstore\n      swap1\n      0x40\n      mstore\n        /* \"NFTES_Drop.sol\":5222:5226  data */\n      0x02\n        /* \"NFTES_Drop.sol\":5222:5286  data = string(abi.encodePacked(\"Gold_\", Strings.toString(Gold))) */\n      swap1\n      dup1\n      mload\n      swap1\n      0x20\n      add\n      swap1\n      tag_283\n      swap3\n      swap2\n      swap1\n      tag_275\n      jump\t// in\n    tag_283:\n      pop\n        /* \"NFTES_Drop.sol\":5307:5312  nftId */\n      dup1\n        /* \"NFTES_Drop.sol\":5300:5312  return nftId */\n      swap2\n      pop\n      pop\n      jump(tag_262)\n        /* \"NFTES_Drop.sol\":5158:6287  if (nftId <= 1 && Gold < 100) {... */\n    tag_278:\n        /* \"NFTES_Drop.sol\":5446:5447  2 */\n      0x02\n        /* \"NFTES_Drop.sol\":5437:5442  nftId */\n      dup2\n        /* \"NFTES_Drop.sol\":5437:5447  nftId <= 2 */\n      gt\n      iszero\n        /* \"NFTES_Drop.sol\":5437:5464  nftId <= 2 && Silver <= 850 */\n      dup1\n      iszero\n      tag_285\n      jumpi\n      pop\n        /* \"NFTES_Drop.sol\":5461:5464  850 */\n      0x0352\n        /* \"NFTES_Drop.sol\":5451:5457  Silver */\n      sload(0x09)\n        /* \"NFTES_Drop.sol\":5451:5464  Silver <= 850 */\n      gt\n      iszero\n        /* \"NFTES_Drop.sol\":5437:5464  nftId <= 2 && Silver <= 850 */\n    tag_285:\n        /* \"NFTES_Drop.sol\":5433:6287  if (nftId <= 2 && Silver <= 850) {... */\n      iszero\n      tag_286\n      jumpi\n        /* \"NFTES_Drop.sol\":5480:5486  Silver */\n      0x09\n      0x00\n        /* \"NFTES_Drop.sol\":5480:5488  Silver++ */\n      dup2\n      sload\n      dup1\n      swap3\n      swap2\n      swap1\n      tag_287\n      swap1\n      tag_132\n      jump\t// in\n    tag_287:\n      swap2\n      swap1\n      pop\n      sstore\n      pop\n        /* \"NFTES_Drop.sol\":5568:5592  Strings.toString(Silver) */\n      tag_288\n        /* \"NFTES_Drop.sol\":5585:5591  Silver */\n      sload(0x09)\n        /* \"NFTES_Drop.sol\":5568:5584  Strings.toString */\n      tag_271\n        /* \"NFTES_Drop.sol\":5568:5592  Strings.toString(Silver) */\n      jump\t// in\n    tag_288:\n        /* \"NFTES_Drop.sol\":5540:5593  abi.encodePacked(\"Silver_\", Strings.toString(Silver)) */\n      add(0x20, mload(0x40))\n      tag_289\n      swap2\n      swap1\n      tag_290\n      jump\t// in\n    tag_289:\n      mload(0x40)\n      0x20\n      dup2\n      dup4\n      sub\n      sub\n      dup2\n      mstore\n      swap1\n      0x40\n      mstore\n        /* \"NFTES_Drop.sol\":5509:5513  data */\n      0x02\n        /* \"NFTES_Drop.sol\":5509:5607  data = string(... */\n      swap1\n      dup1\n      mload\n      swap1\n      0x20\n      add\n      swap1\n      tag_291\n      swap3\n      swap2\n      swap1\n      tag_275\n      jump\t// in\n    tag_291:\n        /* \"NFTES_Drop.sol\":5502:5506  data */\n      0x02\n        /* \"NFTES_Drop.sol\":5502:5607  data = data = string(... */\n      swap1\n      dup1\n      sload\n      tag_292\n      swap1\n      tag_125\n      jump\t// in\n    tag_292:\n      tag_293\n      swap3\n      swap2\n      swap1\n      tag_294\n      jump\t// in\n    tag_293:\n      pop\n        /* \"NFTES_Drop.sol\":5628:5633  nftId */\n      dup1\n        /* \"NFTES_Drop.sol\":5621:5633  return nftId */\n      swap2\n      pop\n      pop\n      jump(tag_262)\n        /* \"NFTES_Drop.sol\":5433:6287  if (nftId <= 2 && Silver <= 850) {... */\n    tag_286:\n        /* \"NFTES_Drop.sol\":5824:5827  100 */\n      0x64\n        /* \"NFTES_Drop.sol\":5817:5821  Gold */\n      sload(0x08)\n        /* \"NFTES_Drop.sol\":5817:5827  Gold < 100 */\n      lt\n        /* \"NFTES_Drop.sol\":5813:6277  if (Gold < 100) {... */\n      iszero\n      tag_296\n      jumpi\n        /* \"NFTES_Drop.sol\":5855:5856  1 */\n      0x01\n        /* \"NFTES_Drop.sol\":5847:5856  nftId = 1 */\n      swap1\n      pop\n        /* \"NFTES_Drop.sol\":5874:5878  Gold */\n      0x08\n      0x00\n        /* \"NFTES_Drop.sol\":5874:5880  Gold++ */\n      dup2\n      sload\n      dup1\n      swap3\n      swap2\n      swap1\n      tag_297\n      swap1\n      tag_132\n      jump\t// in\n    tag_297:\n      swap2\n      swap1\n      pop\n      sstore\n      pop\n        /* \"NFTES_Drop.sol\":5959:5981  Strings.toString(Gold) */\n      tag_298\n        /* \"NFTES_Drop.sol\":5976:5980  Gold */\n      sload(0x08)\n        /* \"NFTES_Drop.sol\":5959:5975  Strings.toString */\n      tag_271\n        /* \"NFTES_Drop.sol\":5959:5981  Strings.toString(Gold) */\n      jump\t// in\n    tag_298:\n        /* \"NFTES_Drop.sol\":5933:5982  abi.encodePacked(\"Gold_\", Strings.toString(Gold)) */\n      add(0x20, mload(0x40))\n      tag_299\n      swap2\n      swap1\n      tag_282\n      jump\t// in\n    tag_299:\n      mload(0x40)\n      0x20\n      dup2\n      dup4\n      sub\n      sub\n      dup2\n      mstore\n      swap1\n      0x40\n      mstore\n        /* \"NFTES_Drop.sol\":5898:5902  data */\n      0x02\n        /* \"NFTES_Drop.sol\":5898:6000  data = string(... */\n      swap1\n      dup1\n      mload\n      swap1\n      0x20\n      add\n      swap1\n      tag_300\n      swap3\n      swap2\n      swap1\n      tag_275\n      jump\t// in\n    tag_300:\n      pop\n        /* \"NFTES_Drop.sol\":6026:6031  nftId */\n      dup1\n        /* \"NFTES_Drop.sol\":6019:6031  return nftId */\n      swap2\n      pop\n      pop\n      jump(tag_262)\n        /* \"NFTES_Drop.sol\":5813:6277  if (Gold < 100) {... */\n    tag_296:\n        /* \"NFTES_Drop.sol\":6078:6079  0 */\n      0x00\n        /* \"NFTES_Drop.sol\":6070:6079  nftId = 0 */\n      swap1\n      pop\n        /* \"NFTES_Drop.sol\":6097:6104  Diamond */\n      0x07\n      0x00\n        /* \"NFTES_Drop.sol\":6097:6106  Diamond++ */\n      dup2\n      sload\n      dup1\n      swap3\n      swap2\n      swap1\n      tag_302\n      swap1\n      tag_132\n      jump\t// in\n    tag_302:\n      swap2\n      swap1\n      pop\n      sstore\n      pop\n        /* \"NFTES_Drop.sol\":6188:6213  Strings.toString(Diamond) */\n      tag_303\n        /* \"NFTES_Drop.sol\":6205:6212  Diamond */\n      sload(0x07)\n        /* \"NFTES_Drop.sol\":6188:6204  Strings.toString */\n      tag_271\n        /* \"NFTES_Drop.sol\":6188:6213  Strings.toString(Diamond) */\n      jump\t// in\n    tag_303:\n        /* \"NFTES_Drop.sol\":6159:6214  abi.encodePacked(\"Diamond_\", Strings.toString(Diamond)) */\n      add(0x20, mload(0x40))\n      tag_304\n      swap2\n      swap1\n      tag_273\n      jump\t// in\n    tag_304:\n      mload(0x40)\n      0x20\n      dup2\n      dup4\n      sub\n      sub\n      dup2\n      mstore\n      swap1\n      0x40\n      mstore\n        /* \"NFTES_Drop.sol\":6124:6128  data */\n      0x02\n        /* \"NFTES_Drop.sol\":6124:6232  data = string(... */\n      swap1\n      dup1\n      mload\n      swap1\n      0x20\n      add\n      swap1\n      tag_305\n      swap3\n      swap2\n      swap1\n      tag_275\n      jump\t// in\n    tag_305:\n      pop\n        /* \"NFTES_Drop.sol\":6257:6262  nftId */\n      dup1\n        /* \"NFTES_Drop.sol\":6250:6262  return nftId */\n      swap2\n      pop\n      pop\n        /* \"NFTES_Drop.sol\":1408:1409  _ */\n    tag_262:\n        /* \"NFTES_Drop.sol\":4613:6293  function updateConditions(uint256 index)... */\n      swap2\n      swap1\n      pop\n      jump\t// out\n        /* \"ERC1155_Drop.sol\":815:1367  function _mint(... */\n    tag_130:\n        /* \"ERC1155_Drop.sol\":977:978  0 */\n      0x00\n        /* \"ERC1155_Drop.sol\":963:979  to != address(0) */\n      0xffffffffffffffffffffffffffffffffffffffff\n      and\n        /* \"ERC1155_Drop.sol\":963:965  to */\n      dup5\n        /* \"ERC1155_Drop.sol\":963:979  to != address(0) */\n      0xffffffffffffffffffffffffffffffffffffffff\n      and\n      eq\n      iszero\n        /* \"ERC1155_Drop.sol\":955:1017  require(to != address(0), \"ERC1155: mint to the zero address\") */\n      tag_307\n      jumpi\n      mload(0x40)\n      0x08c379a000000000000000000000000000000000000000000000000000000000\n      dup2\n      mstore\n      0x04\n      add\n      tag_308\n      swap1\n      tag_309\n      jump\t// in\n    tag_308:\n      mload(0x40)\n      dup1\n      swap2\n      sub\n      swap1\n      revert\n    tag_307:\n        /* \"ERC1155_Drop.sol\":1028:1044  address operator */\n      0x00\n        /* \"ERC1155_Drop.sol\":1047:1059  _msgSender() */\n      tag_310\n        /* \"ERC1155_Drop.sol\":1047:1057  _msgSender */\n      tag_92\n        /* \"ERC1155_Drop.sol\":1047:1059  _msgSender() */\n      jump\t// in\n    tag_310:\n        /* \"ERC1155_Drop.sol\":1028:1059  address operator = _msgSender() */\n      swap1\n      pop\n        /* \"ERC1155_Drop.sol\":1070:1172  _beforeTokenTransfer(operator, address(0), to, _asSingletonArray(id), _asSingletonArray(amount), data) */\n      tag_311\n        /* \"ERC1155_Drop.sol\":1091:1099  operator */\n      dup2\n        /* \"ERC1155_Drop.sol\":1109:1110  0 */\n      0x00\n        /* \"ERC1155_Drop.sol\":1113:1115  to */\n      dup8\n        /* \"ERC1155_Drop.sol\":1117:1138  _asSingletonArray(id) */\n      tag_312\n        /* \"ERC1155_Drop.sol\":1135:1137  id */\n      dup9\n        /* \"ERC1155_Drop.sol\":1117:1134  _asSingletonArray */\n      tag_313\n        /* \"ERC1155_Drop.sol\":1117:1138  _asSingletonArray(id) */\n      jump\t// in\n    tag_312:\n        /* \"ERC1155_Drop.sol\":1140:1165  _asSingletonArray(amount) */\n      tag_314\n        /* \"ERC1155_Drop.sol\":1158:1164  amount */\n      dup9\n        /* \"ERC1155_Drop.sol\":1140:1157  _asSingletonArray */\n      tag_313\n        /* \"ERC1155_Drop.sol\":1140:1165  _asSingletonArray(amount) */\n      jump\t// in\n    tag_314:\n        /* \"ERC1155_Drop.sol\":1167:1171  data */\n      dup8\n        /* \"ERC1155_Drop.sol\":1070:1090  _beforeTokenTransfer */\n      tag_315\n        /* \"ERC1155_Drop.sol\":1070:1172  _beforeTokenTransfer(operator, address(0), to, _asSingletonArray(id), _asSingletonArray(amount), data) */\n      jump\t// in\n    tag_311:\n        /* \"ERC1155_Drop.sol\":1203:1209  amount */\n      dup3\n        /* \"ERC1155_Drop.sol\":1182:1191  _balances */\n      0x00\n        /* \"ERC1155_Drop.sol\":1182:1195  _balances[id] */\n      dup1\n        /* \"ERC1155_Drop.sol\":1192:1194  id */\n      dup7\n        /* \"ERC1155_Drop.sol\":1182:1195  _balances[id] */\n      dup2\n      mstore\n      0x20\n      add\n      swap1\n      dup2\n      mstore\n      0x20\n      add\n      0x00\n      keccak256\n        /* \"ERC1155_Drop.sol\":1182:1199  _balances[id][to] */\n      0x00\n        /* \"ERC1155_Drop.sol\":1196:1198  to */\n      dup8\n        /* \"ERC1155_Drop.sol\":1182:1199  _balances[id][to] */\n      0xffffffffffffffffffffffffffffffffffffffff\n      and\n      0xffffffffffffffffffffffffffffffffffffffff\n      and\n      dup2\n      mstore\n      0x20\n      add\n      swap1\n      dup2\n      mstore\n      0x20\n      add\n      0x00\n      keccak256\n      0x00\n        /* \"ERC1155_Drop.sol\":1182:1209  _balances[id][to] += amount */\n      dup3\n      dup3\n      sload\n      tag_316\n      swap2\n      swap1\n      tag_251\n      jump\t// in\n    tag_316:\n      swap3\n      pop\n      pop\n      dup2\n      swap1\n      sstore\n      pop\n        /* \"ERC1155_Drop.sol\":1261:1263  to */\n      dup5\n        /* \"ERC1155_Drop.sol\":1224:1276  TransferSingle(operator, address(0), to, id, amount) */\n      0xffffffffffffffffffffffffffffffffffffffff\n      and\n        /* \"ERC1155_Drop.sol\":1257:1258  0 */\n      0x00\n        /* \"ERC1155_Drop.sol\":1224:1276  TransferSingle(operator, address(0), to, id, amount) */\n      0xffffffffffffffffffffffffffffffffffffffff\n      and\n        /* \"ERC1155_Drop.sol\":1239:1247  operator */\n      dup3\n        /* \"ERC1155_Drop.sol\":1224:1276  TransferSingle(operator, address(0), to, id, amount) */\n      0xffffffffffffffffffffffffffffffffffffffff\n      and\n      0xc3d58168c5ae7397731d063d5bbf3d657854427343f4c083240f7aacaa2d0f62\n        /* \"ERC1155_Drop.sol\":1265:1267  id */\n      dup8\n        /* \"ERC1155_Drop.sol\":1269:1275  amount */\n      dup8\n        /* \"ERC1155_Drop.sol\":1224:1276  TransferSingle(operator, address(0), to, id, amount) */\n      mload(0x40)\n      tag_317\n      swap3\n      swap2\n      swap1\n      tag_318\n      jump\t// in\n    tag_317:\n      mload(0x40)\n      dup1\n      swap2\n      sub\n      swap1\n      log4\n        /* \"ERC1155_Drop.sol\":1286:1360  _doSafeTransferAcceptanceCheck(operator, address(0), to, id, amount, data) */\n      tag_319\n        /* \"ERC1155_Drop.sol\":1317:1325  operator */\n      dup2\n        /* \"ERC1155_Drop.sol\":1335:1336  0 */\n      0x00\n        /* \"ERC1155_Drop.sol\":1339:1341  to */\n      dup8\n        /* \"ERC1155_Drop.sol\":1343:1345  id */\n      dup8\n        /* \"ERC1155_Drop.sol\":1347:1353  amount */\n      dup8\n        /* \"ERC1155_Drop.sol\":1355:1359  data */\n      dup8\n        /* \"ERC1155_Drop.sol\":1286:1316  _doSafeTransferAcceptanceCheck */\n      tag_320\n        /* \"ERC1155_Drop.sol\":1286:1360  _doSafeTransferAcceptanceCheck(operator, address(0), to, id, amount, data) */\n      jump\t// in\n    tag_319:\n        /* \"ERC1155_Drop.sol\":945:1367  {... */\n      pop\n        /* \"ERC1155_Drop.sol\":815:1367  function _mint(... */\n      pop\n      pop\n      pop\n      pop\n      jump\t// out\n        /* \"NFTES_Drop.sol\":7464:7587  function depositAmount(address payee, uint256 amountToDeposit) internal {... */\n    tag_169:\n        /* \"NFTES_Drop.sol\":7565:7580  amountToDeposit */\n      dup1\n        /* \"NFTES_Drop.sol\":7546:7554  deposits */\n      0x0b\n        /* \"NFTES_Drop.sol\":7546:7561  deposits[payee] */\n      0x00\n        /* \"NFTES_Drop.sol\":7555:7560  payee */\n      dup5\n        /* \"NFTES_Drop.sol\":7546:7561  deposits[payee] */\n      0xffffffffffffffffffffffffffffffffffffffff\n      and\n      0xffffffffffffffffffffffffffffffffffffffff\n      and\n      dup2\n      mstore\n      0x20\n      add\n      swap1\n      dup2\n      mstore\n      0x20\n      add\n      0x00\n      keccak256\n      0x00\n        /* \"NFTES_Drop.sol\":7546:7580  deposits[payee] += amountToDeposit */\n      dup3\n      dup3\n      sload\n      tag_322\n      swap2\n      swap1\n      tag_251\n      jump\t// in\n    tag_322:\n      swap3\n      pop\n      pop\n      dup2\n      swap1\n      sstore\n      pop\n        /* \"NFTES_Drop.sol\":7464:7587  function depositAmount(address payee, uint256 amountToDeposit) internal {... */\n      pop\n      pop\n      jump\t// out\n        /* \"Strings.sol\":329:1032  function toString(uint256 value) internal pure returns (string memory) {... */\n    tag_271:\n        /* \"Strings.sol\":385:398  string memory */\n      0x60\n        /* \"Strings.sol\":611:612  0 */\n      0x00\n        /* \"Strings.sol\":602:607  value */\n      dup3\n        /* \"Strings.sol\":602:612  value == 0 */\n      eq\n        /* \"Strings.sol\":598:649  if (value == 0) {... */\n      iszero\n      tag_324\n      jumpi\n        /* \"Strings.sol\":628:638  return \"0\" */\n      mload(0x40)\n      dup1\n      0x40\n      add\n      0x40\n      mstore\n      dup1\n      0x01\n      dup2\n      mstore\n      0x20\n      add\n      0x3000000000000000000000000000000000000000000000000000000000000000\n      dup2\n      mstore\n      pop\n      swap1\n      pop\n      jump(tag_323)\n        /* \"Strings.sol\":598:649  if (value == 0) {... */\n    tag_324:\n        /* \"Strings.sol\":658:670  uint256 temp */\n      0x00\n        /* \"Strings.sol\":673:678  value */\n      dup3\n        /* \"Strings.sol\":658:678  uint256 temp = value */\n      swap1\n      pop\n        /* \"Strings.sol\":688:702  uint256 digits */\n      0x00\n        /* \"Strings.sol\":712:787  while (temp != 0) {... */\n    tag_325:\n        /* \"Strings.sol\":727:728  0 */\n      0x00\n        /* \"Strings.sol\":719:723  temp */\n      dup3\n        /* \"Strings.sol\":719:728  temp != 0 */\n      eq\n        /* \"Strings.sol\":712:787  while (temp != 0) {... */\n      tag_326\n      jumpi\n        /* \"Strings.sol\":744:752  digits++ */\n      dup1\n      dup1\n      tag_327\n      swap1\n      tag_132\n      jump\t// in\n    tag_327:\n      swap2\n      pop\n      pop\n        /* \"Strings.sol\":774:776  10 */\n      0x0a\n        /* \"Strings.sol\":766:776  temp /= 10 */\n      dup3\n      tag_328\n      swap2\n      swap1\n      tag_329\n      jump\t// in\n    tag_328:\n      swap2\n      pop\n        /* \"Strings.sol\":712:787  while (temp != 0) {... */\n      jump(tag_325)\n    tag_326:\n        /* \"Strings.sol\":796:815  bytes memory buffer */\n      0x00\n        /* \"Strings.sol\":828:834  digits */\n      dup2\n        /* \"Strings.sol\":818:835  new bytes(digits) */\n      0xffffffffffffffff\n      dup2\n      gt\n      iszero\n      tag_330\n      jumpi\n      tag_331\n      tag_332\n      jump\t// in\n    tag_331:\n    tag_330:\n      mload(0x40)\n      swap1\n      dup1\n      dup3\n      mstore\n      dup1\n      0x1f\n      add\n      not(0x1f)\n      and\n      0x20\n      add\n      dup3\n      add\n      0x40\n      mstore\n      dup1\n      iszero\n      tag_333\n      jumpi\n      dup2\n      0x20\n      add\n      0x01\n      dup3\n      mul\n      dup1\n      calldatasize\n      dup4\n      calldatacopy\n      dup1\n      dup3\n      add\n      swap2\n      pop\n      pop\n      swap1\n      pop\n    tag_333:\n      pop\n        /* \"Strings.sol\":796:835  bytes memory buffer = new bytes(digits) */\n      swap1\n      pop\n        /* \"Strings.sol\":845:995  while (value != 0) {... */\n    tag_334:\n        /* \"Strings.sol\":861:862  0 */\n      0x00\n        /* \"Strings.sol\":852:857  value */\n      dup6\n        /* \"Strings.sol\":852:862  value != 0 */\n      eq\n        /* \"Strings.sol\":845:995  while (value != 0) {... */\n      tag_335\n      jumpi\n        /* \"Strings.sol\":888:889  1 */\n      0x01\n        /* \"Strings.sol\":878:889  digits -= 1 */\n      dup3\n      tag_336\n      swap2\n      swap1\n      tag_337\n      jump\t// in\n    tag_336:\n      swap2\n      pop\n        /* \"Strings.sol\":954:956  10 */\n      0x0a\n        /* \"Strings.sol\":946:951  value */\n      dup6\n        /* \"Strings.sol\":946:956  value % 10 */\n      tag_338\n      swap2\n      swap1\n      tag_258\n      jump\t// in\n    tag_338:\n        /* \"Strings.sol\":933:935  48 */\n      0x30\n        /* \"Strings.sol\":933:957  48 + uint256(value % 10) */\n      tag_339\n      swap2\n      swap1\n      tag_251\n      jump\t// in\n    tag_339:\n        /* \"Strings.sol\":920:959  bytes1(uint8(48 + uint256(value % 10))) */\n      0xf8\n      shl\n        /* \"Strings.sol\":903:909  buffer */\n      dup2\n        /* \"Strings.sol\":910:916  digits */\n      dup4\n        /* \"Strings.sol\":903:917  buffer[digits] */\n      dup2\n      mload\n      dup2\n      lt\n      tag_340\n      jumpi\n      tag_341\n      tag_265\n      jump\t// in\n    tag_341:\n    tag_340:\n      0x20\n      add\n      add\n        /* \"Strings.sol\":903:959  buffer[digits] = bytes1(uint8(48 + uint256(value % 10))) */\n      swap1\n      not(0xffffffffffffffffffffffffffffffffffffffffffffffffffffffffffffff)\n      and\n      swap1\n      dup2\n      0x00\n      byte\n      swap1\n      mstore8\n      pop\n        /* \"Strings.sol\":982:984  10 */\n      0x0a\n        /* \"Strings.sol\":973:984  value /= 10 */\n      dup6\n      tag_342\n      swap2\n      swap1\n      tag_329\n      jump\t// in\n    tag_342:\n      swap5\n      pop\n        /* \"Strings.sol\":845:995  while (value != 0) {... */\n      jump(tag_334)\n    tag_335:\n        /* \"Strings.sol\":1018:1024  buffer */\n      dup1\n        /* \"Strings.sol\":1004:1025  return string(buffer) */\n      swap4\n      pop\n      pop\n      pop\n      pop\n        /* \"Strings.sol\":329:1032  function toString(uint256 value) internal pure returns (string memory) {... */\n    tag_323:\n      swap2\n      swap1\n      pop\n      jump\t// out\n        /* \"ERC1155_Drop.sol\":2327:2520  function _asSingletonArray(uint256 element) private pure returns (uint256[] memory) {... */\n    tag_313:\n        /* \"ERC1155_Drop.sol\":2393:2409  uint256[] memory */\n      0x60\n        /* \"ERC1155_Drop.sol\":2421:2443  uint256[] memory array */\n      0x00\n        /* \"ERC1155_Drop.sol\":2460:2461  1 */\n      0x01\n        /* \"ERC1155_Drop.sol\":2446:2462  new uint256[](1) */\n      0xffffffffffffffff\n      dup2\n      gt\n      iszero\n      tag_344\n      jumpi\n      tag_345\n      tag_332\n      jump\t// in\n    tag_345:\n    tag_344:\n      mload(0x40)\n      swap1\n      dup1\n      dup3\n      mstore\n      dup1\n      0x20\n      mul\n      0x20\n      add\n      dup3\n      add\n      0x40\n      mstore\n      dup1\n      iszero\n      tag_346\n      jumpi\n      dup2\n      0x20\n      add\n      0x20\n      dup3\n      mul\n      dup1\n      calldatasize\n      dup4\n      calldatacopy\n      dup1\n      dup3\n      add\n      swap2\n      pop\n      pop\n      swap1\n      pop\n    tag_346:\n      pop\n        /* \"ERC1155_Drop.sol\":2421:2462  uint256[] memory array = new uint256[](1) */\n      swap1\n      pop\n        /* \"ERC1155_Drop.sol\":2483:2490  element */\n      dup3\n        /* \"ERC1155_Drop.sol\":2472:2477  array */\n      dup2\n        /* \"ERC1155_Drop.sol\":2478:2479  0 */\n      0x00\n        /* \"ERC1155_Drop.sol\":2472:2480  array[0] */\n      dup2\n      mload\n      dup2\n      lt\n      tag_347\n      jumpi\n      tag_348\n      tag_265\n      jump\t// in\n    tag_348:\n    tag_347:\n      0x20\n      mul\n      0x20\n      add\n      add\n        /* \"ERC1155_Drop.sol\":2472:2490  array[0] = element */\n      dup2\n      dup2\n      mstore\n      pop\n      pop\n        /* \"ERC1155_Drop.sol\":2508:2513  array */\n      dup1\n        /* \"ERC1155_Drop.sol\":2501:2513  return array */\n      swap2\n      pop\n      pop\n        /* \"ERC1155_Drop.sol\":2327:2520  function _asSingletonArray(uint256 element) private pure returns (uint256[] memory) {... */\n      swap2\n      swap1\n      pop\n      jump\t// out\n        /* \"ERC1155_Drop.sol\":1374:1589  function _beforeTokenTransfer(... */\n    tag_315:\n      pop\n      pop\n      pop\n      pop\n      pop\n      pop\n      jump\t// out\n        /* \"ERC1155_Drop.sol\":1595:2321  function _doSafeTransferAcceptanceCheck(... */\n    tag_320:\n        /* \"ERC1155_Drop.sol\":1803:1818  to.isContract() */\n      tag_351\n        /* \"ERC1155_Drop.sol\":1803:1805  to */\n      dup5\n        /* \"ERC1155_Drop.sol\":1803:1816  to.isContract */\n      0xffffffffffffffffffffffffffffffffffffffff\n      and\n      tag_352\n        /* \"ERC1155_Drop.sol\":1803:1818  to.isContract() */\n      jump\t// in\n    tag_351:\n        /* \"ERC1155_Drop.sol\":1799:2315  if (to.isContract()) {... */\n      iszero\n      tag_353\n      jumpi\n        /* \"ERC1155_Drop.sol\":1855:1857  to */\n      dup4\n        /* \"ERC1155_Drop.sol\":1838:1876  IERC1155Receiver(to).onERC1155Received */\n      0xffffffffffffffffffffffffffffffffffffffff\n      and\n      0xae89a248\n        /* \"ERC1155_Drop.sol\":1877:1885  operator */\n      dup8\n        /* \"ERC1155_Drop.sol\":1887:1891  from */\n      dup8\n        /* \"ERC1155_Drop.sol\":1893:1895  id */\n      dup7\n        /* \"ERC1155_Drop.sol\":1897:1903  amount */\n      dup7\n        /* \"ERC1155_Drop.sol\":1905:1909  data */\n      dup7\n        /* \"ERC1155_Drop.sol\":1838:1910  IERC1155Receiver(to).onERC1155Received(operator, from, id, amount, data) */\n      mload(0x40)\n      dup7\n      0xffffffff\n      and\n      0xe0\n      shl\n      dup2\n      mstore\n      0x04\n      add\n      tag_354\n      swap6\n      swap5\n      swap4\n      swap3\n      swap2\n      swap1\n      tag_355\n      jump\t// in\n    tag_354:\n      0x20\n      mload(0x40)\n      dup1\n      dup4\n      sub\n      dup2\n      0x00\n      dup8\n      dup1\n      extcodesize\n      iszero\n      dup1\n      iszero\n      tag_356\n      jumpi\n      0x00\n      dup1\n      revert\n    tag_356:\n      pop\n      gas\n      call\n      swap3\n      pop\n      pop\n      pop\n      dup1\n      iszero\n      tag_357\n      jumpi\n      pop\n      mload(0x40)\n      returndatasize\n      not(0x1f)\n      0x1f\n      dup3\n      add\n      and\n      dup3\n      add\n      dup1\n      0x40\n      mstore\n      pop\n      dup2\n      add\n      swap1\n      tag_358\n      swap2\n      swap1\n      tag_359\n      jump\t// in\n    tag_358:\n      0x01\n    tag_357:\n        /* \"ERC1155_Drop.sol\":1834:2305  try IERC1155Receiver(to).onERC1155Received(operator, from, id, amount, data) returns (bytes4 response) {... */\n      tag_360\n      jumpi\n      tag_364\n      tag_365\n      jump\t// in\n    tag_364:\n      dup1\n      0x08c379a0\n      eq\n      iszero\n      tag_363\n      jumpi\n      pop\n      tag_366\n      tag_367\n      jump\t// in\n    tag_366:\n      dup1\n      tag_368\n      jumpi\n      pop\n      jump(tag_362)\n    tag_368:\n        /* \"ERC1155_Drop.sol\":2181:2187  reason */\n      dup1\n        /* \"ERC1155_Drop.sol\":2174:2188  revert(reason) */\n      mload(0x40)\n      0x08c379a000000000000000000000000000000000000000000000000000000000\n      dup2\n      mstore\n      0x04\n      add\n      tag_369\n      swap2\n      swap1\n      tag_370\n      jump\t// in\n    tag_369:\n      mload(0x40)\n      dup1\n      swap2\n      sub\n      swap1\n      revert\n        /* \"ERC1155_Drop.sol\":1834:2305  try IERC1155Receiver(to).onERC1155Received(operator, from, id, amount, data) returns (bytes4 response) {... */\n    tag_363:\n      pop\n    tag_362:\n        /* \"ERC1155_Drop.sol\":2228:2290  revert(\"ERC1155: transfer to non ERC1155Receiver implementer\") */\n      mload(0x40)\n      0x08c379a000000000000000000000000000000000000000000000000000000000\n      dup2\n      mstore\n      0x04\n      add\n      tag_371\n      swap1\n      tag_372\n      jump\t// in\n    tag_371:\n      mload(0x40)\n      dup1\n      swap2\n      sub\n      swap1\n      revert\n        /* \"ERC1155_Drop.sol\":1834:2305  try IERC1155Receiver(to).onERC1155Received(operator, from, id, amount, data) returns (bytes4 response) {... */\n    tag_360:\n        /* \"ERC1155_Drop.sol\":1971:2014  IERC1155Receiver.onERC1155Received.selector */\n      shl(0xe0, 0xae89a248)\n        /* \"ERC1155_Drop.sol\":1959:2014  response != IERC1155Receiver.onERC1155Received.selector */\n      not(0xffffffffffffffffffffffffffffffffffffffffffffffffffffffff)\n      and\n        /* \"ERC1155_Drop.sol\":1959:1967  response */\n      dup2\n        /* \"ERC1155_Drop.sol\":1959:2014  response != IERC1155Receiver.onERC1155Received.selector */\n      not(0xffffffffffffffffffffffffffffffffffffffffffffffffffffffff)\n      and\n      eq\n        /* \"ERC1155_Drop.sol\":1955:2107  if (response != IERC1155Receiver.onERC1155Received.selector) {... */\n      tag_374\n      jumpi\n        /* \"ERC1155_Drop.sol\":2038:2088  revert(\"ERC1155: ERC1155Receiver rejected tokens\") */\n      mload(0x40)\n      0x08c379a000000000000000000000000000000000000000000000000000000000\n      dup2\n      mstore\n      0x04\n      add\n      tag_375\n      swap1\n      tag_376\n      jump\t// in\n    tag_375:\n      mload(0x40)\n      dup1\n      swap2\n      sub\n      swap1\n      revert\n        /* \"ERC1155_Drop.sol\":1955:2107  if (response != IERC1155Receiver.onERC1155Received.selector) {... */\n    tag_374:\n        /* \"ERC1155_Drop.sol\":1911:2121  returns (bytes4 response) {... */\n      pop\n        /* \"ERC1155_Drop.sol\":1799:2315  if (to.isContract()) {... */\n    tag_353:\n        /* \"ERC1155_Drop.sol\":1595:2321  function _doSafeTransferAcceptanceCheck(... */\n      pop\n      pop\n      pop\n      pop\n      pop\n      pop\n      jump\t// out\n        /* \"Address.sol\":771:1148  function isContract(address account) internal view returns (bool) {... */\n    tag_352:\n        /* \"Address.sol\":831:835  bool */\n      0x00\n        /* \"Address.sol\":1034:1046  uint256 size */\n      dup1\n        /* \"Address.sol\":1099:1106  account */\n      dup3\n        /* \"Address.sol\":1087:1107  extcodesize(account) */\n      extcodesize\n        /* \"Address.sol\":1079:1107  size := extcodesize(account) */\n      swap1\n      pop\n        /* \"Address.sol\":1140:1141  0 */\n      0x00\n        /* \"Address.sol\":1133:1137  size */\n      dup2\n        /* \"Address.sol\":1133:1141  size > 0 */\n      gt\n        /* \"Address.sol\":1126:1141  return size > 0 */\n      swap2\n      pop\n      pop\n        /* \"Address.sol\":771:1148  function isContract(address account) internal view returns (bool) {... */\n      swap2\n      swap1\n      pop\n      jump\t// out\n    tag_275:\n      dup3\n      dup1\n      sload\n      tag_378\n      swap1\n      tag_125\n      jump\t// in\n    tag_378:\n      swap1\n      0x00\n      mstore\n      keccak256(0x00, 0x20)\n      swap1\n      0x1f\n      add\n      0x20\n      swap1\n      div\n      dup2\n      add\n      swap3\n      dup3\n      tag_380\n      jumpi\n      0x00\n      dup6\n      sstore\n      jump(tag_379)\n    tag_380:\n      dup3\n      0x1f\n      lt\n      tag_381\n      jumpi\n      dup1\n      mload\n      not(0xff)\n      and\n      dup4\n      dup1\n      add\n      or\n      dup6\n      sstore\n      jump(tag_379)\n    tag_381:\n      dup3\n      dup1\n      add\n      0x01\n      add\n      dup6\n      sstore\n      dup3\n      iszero\n      tag_379\n      jumpi\n      swap2\n      dup3\n      add\n    tag_382:\n      dup3\n      dup2\n      gt\n      iszero\n      tag_383\n      jumpi\n      dup3\n      mload\n      dup3\n      sstore\n      swap2\n      0x20\n      add\n      swap2\n      swap1\n      0x01\n      add\n      swap1\n      jump(tag_382)\n    tag_383:\n    tag_379:\n      pop\n      swap1\n      pop\n      tag_384\n      swap2\n      swap1\n      tag_385\n      jump\t// in\n    tag_384:\n      pop\n      swap1\n      jump\t// out\n    tag_294:\n      dup3\n      dup1\n      sload\n      tag_386\n      swap1\n      tag_125\n      jump\t// in\n    tag_386:\n      swap1\n      0x00\n      mstore\n      keccak256(0x00, 0x20)\n      swap1\n      0x1f\n      add\n      0x20\n      swap1\n      div\n      dup2\n      add\n      swap3\n      dup3\n      tag_388\n      jumpi\n      0x00\n      dup6\n      sstore\n      jump(tag_387)\n    tag_388:\n      dup3\n      0x1f\n      lt\n      tag_389\n      jumpi\n      dup1\n      sload\n      dup6\n      sstore\n      jump(tag_387)\n    tag_389:\n      dup3\n      dup1\n      add\n      0x01\n      add\n      dup6\n      sstore\n      dup3\n      iszero\n      tag_387\n      jumpi\n      0x00\n      mstore\n      keccak256(0x00, 0x20)\n      swap2\n      0x1f\n      add\n      0x20\n      swap1\n      div\n      dup3\n      add\n    tag_390:\n      dup3\n      dup2\n      gt\n      iszero\n      tag_391\n      jumpi\n      dup3\n      sload\n      dup3\n      sstore\n      swap2\n      0x01\n      add\n      swap2\n      swap1\n      0x01\n      add\n      swap1\n      jump(tag_390)\n    tag_391:\n    tag_387:\n      pop\n      swap1\n      pop\n      tag_392\n      swap2\n      swap1\n      tag_385\n      jump\t// in\n    tag_392:\n      pop\n      swap1\n      jump\t// out\n    tag_385:\n    tag_393:\n      dup1\n      dup3\n      gt\n      iszero\n      tag_394\n      jumpi\n      0x00\n      dup2\n      0x00\n      swap1\n      sstore\n      pop\n      0x01\n      add\n      jump(tag_393)\n    tag_394:\n      pop\n      swap1\n      jump\t// out\n        /* \"#utility.yul\":7:146   */\n    tag_396:\n        /* \"#utility.yul\":53:58   */\n      0x00\n        /* \"#utility.yul\":91:97   */\n      dup2\n        /* \"#utility.yul\":78:98   */\n      calldataload\n        /* \"#utility.yul\":69:98   */\n      swap1\n      pop\n        /* \"#utility.yul\":107:140   */\n      tag_398\n        /* \"#utility.yul\":134:139   */\n      dup2\n        /* \"#utility.yul\":107:140   */\n      tag_399\n      jump\t// in\n    tag_398:\n        /* \"#utility.yul\":7:146   */\n      swap3\n      swap2\n      pop\n      pop\n      jump\t// out\n        /* \"#utility.yul\":152:307   */\n    tag_400:\n        /* \"#utility.yul\":206:211   */\n      0x00\n        /* \"#utility.yul\":244:250   */\n      dup2\n        /* \"#utility.yul\":231:251   */\n      calldataload\n        /* \"#utility.yul\":222:251   */\n      swap1\n      pop\n        /* \"#utility.yul\":260:301   */\n      tag_402\n        /* \"#utility.yul\":295:300   */\n      dup2\n        /* \"#utility.yul\":260:301   */\n      tag_403\n      jump\t// in\n    tag_402:\n        /* \"#utility.yul\":152:307   */\n      swap3\n      swap2\n      pop\n      pop\n      jump\t// out\n        /* \"#utility.yul\":313:454   */\n    tag_404:\n        /* \"#utility.yul\":369:374   */\n      0x00\n        /* \"#utility.yul\":400:406   */\n      dup2\n        /* \"#utility.yul\":394:407   */\n      mload\n        /* \"#utility.yul\":385:407   */\n      swap1\n      pop\n        /* \"#utility.yul\":416:448   */\n      tag_406\n        /* \"#utility.yul\":442:447   */\n      dup2\n        /* \"#utility.yul\":416:448   */\n      tag_407\n      jump\t// in\n    tag_406:\n        /* \"#utility.yul\":313:454   */\n      swap3\n      swap2\n      pop\n      pop\n      jump\t// out\n        /* \"#utility.yul\":460:599   */\n    tag_408:\n        /* \"#utility.yul\":506:511   */\n      0x00\n        /* \"#utility.yul\":544:550   */\n      dup2\n        /* \"#utility.yul\":531:551   */\n      calldataload\n        /* \"#utility.yul\":522:551   */\n      swap1\n      pop\n        /* \"#utility.yul\":560:593   */\n      tag_410\n        /* \"#utility.yul\":587:592   */\n      dup2\n        /* \"#utility.yul\":560:593   */\n      tag_411\n      jump\t// in\n    tag_410:\n        /* \"#utility.yul\":460:599   */\n      swap3\n      swap2\n      pop\n      pop\n      jump\t// out\n        /* \"#utility.yul\":605:934   */\n    tag_34:\n        /* \"#utility.yul\":664:670   */\n      0x00\n        /* \"#utility.yul\":713:715   */\n      0x20\n        /* \"#utility.yul\":701:710   */\n      dup3\n        /* \"#utility.yul\":692:699   */\n      dup5\n        /* \"#utility.yul\":688:711   */\n      sub\n        /* \"#utility.yul\":684:716   */\n      slt\n        /* \"#utility.yul\":681:800   */\n      iszero\n      tag_413\n      jumpi\n        /* \"#utility.yul\":719:798   */\n      tag_414\n      tag_415\n      jump\t// in\n    tag_414:\n        /* \"#utility.yul\":681:800   */\n    tag_413:\n        /* \"#utility.yul\":839:840   */\n      0x00\n        /* \"#utility.yul\":864:917   */\n      tag_416\n        /* \"#utility.yul\":909:916   */\n      dup5\n        /* \"#utility.yul\":900:906   */\n      dup3\n        /* \"#utility.yul\":889:898   */\n      dup6\n        /* \"#utility.yul\":885:907   */\n      add\n        /* \"#utility.yul\":864:917   */\n      tag_396\n      jump\t// in\n    tag_416:\n        /* \"#utility.yul\":854:917   */\n      swap2\n      pop\n        /* \"#utility.yul\":810:927   */\n      pop\n        /* \"#utility.yul\":605:934   */\n      swap3\n      swap2\n      pop\n      pop\n      jump\t// out\n        /* \"#utility.yul\":940:1285   */\n    tag_27:\n        /* \"#utility.yul\":1007:1013   */\n      0x00\n        /* \"#utility.yul\":1056:1058   */\n      0x20\n        /* \"#utility.yul\":1044:1053   */\n      dup3\n        /* \"#utility.yul\":1035:1042   */\n      dup5\n        /* \"#utility.yul\":1031:1054   */\n      sub\n        /* \"#utility.yul\":1027:1059   */\n      slt\n        /* \"#utility.yul\":1024:1143   */\n      iszero\n      tag_418\n      jumpi\n        /* \"#utility.yul\":1062:1141   */\n      tag_419\n      tag_415\n      jump\t// in\n    tag_419:\n        /* \"#utility.yul\":1024:1143   */\n    tag_418:\n        /* \"#utility.yul\":1182:1183   */\n      0x00\n        /* \"#utility.yul\":1207:1268   */\n      tag_420\n        /* \"#utility.yul\":1260:1267   */\n      dup5\n        /* \"#utility.yul\":1251:1257   */\n      dup3\n        /* \"#utility.yul\":1240:1249   */\n      dup6\n        /* \"#utility.yul\":1236:1258   */\n      add\n        /* \"#utility.yul\":1207:1268   */\n      tag_400\n      jump\t// in\n    tag_420:\n        /* \"#utility.yul\":1197:1268   */\n      swap2\n      pop\n        /* \"#utility.yul\":1153:1278   */\n      pop\n        /* \"#utility.yul\":940:1285   */\n      swap3\n      swap2\n      pop\n      pop\n      jump\t// out\n        /* \"#utility.yul\":1291:1765   */\n    tag_40:\n        /* \"#utility.yul\":1359:1365   */\n      0x00\n        /* \"#utility.yul\":1367:1373   */\n      dup1\n        /* \"#utility.yul\":1416:1418   */\n      0x40\n        /* \"#utility.yul\":1404:1413   */\n      dup4\n        /* \"#utility.yul\":1395:1402   */\n      dup6\n        /* \"#utility.yul\":1391:1414   */\n      sub\n        /* \"#utility.yul\":1387:1419   */\n      slt\n        /* \"#utility.yul\":1384:1503   */\n      iszero\n      tag_422\n      jumpi\n        /* \"#utility.yul\":1422:1501   */\n      tag_423\n      tag_415\n      jump\t// in\n    tag_423:\n        /* \"#utility.yul\":1384:1503   */\n    tag_422:\n        /* \"#utility.yul\":1542:1543   */\n      0x00\n        /* \"#utility.yul\":1567:1620   */\n      tag_424\n        /* \"#utility.yul\":1612:1619   */\n      dup6\n        /* \"#utility.yul\":1603:1609   */\n      dup3\n        /* \"#utility.yul\":1592:1601   */\n      dup7\n        /* \"#utility.yul\":1588:1610   */\n      add\n        /* \"#utility.yul\":1567:1620   */\n      tag_396\n      jump\t// in\n    tag_424:\n        /* \"#utility.yul\":1557:1620   */\n      swap3\n      pop\n        /* \"#utility.yul\":1513:1630   */\n      pop\n        /* \"#utility.yul\":1669:1671   */\n      0x20\n        /* \"#utility.yul\":1695:1748   */\n      tag_425\n        /* \"#utility.yul\":1740:1747   */\n      dup6\n        /* \"#utility.yul\":1731:1737   */\n      dup3\n        /* \"#utility.yul\":1720:1729   */\n      dup7\n        /* \"#utility.yul\":1716:1738   */\n      add\n        /* \"#utility.yul\":1695:1748   */\n      tag_408\n      jump\t// in\n    tag_425:\n        /* \"#utility.yul\":1685:1748   */\n      swap2\n      pop\n        /* \"#utility.yul\":1640:1758   */\n      pop\n        /* \"#utility.yul\":1291:1765   */\n      swap3\n      pop\n      swap3\n      swap1\n      pop\n      jump\t// out\n        /* \"#utility.yul\":1771:2120   */\n    tag_359:\n        /* \"#utility.yul\":1840:1846   */\n      0x00\n        /* \"#utility.yul\":1889:1891   */\n      0x20\n        /* \"#utility.yul\":1877:1886   */\n      dup3\n        /* \"#utility.yul\":1868:1875   */\n      dup5\n        /* \"#utility.yul\":1864:1887   */\n      sub\n        /* \"#utility.yul\":1860:1892   */\n      slt\n        /* \"#utility.yul\":1857:1976   */\n      iszero\n      tag_427\n      jumpi\n        /* \"#utility.yul\":1895:1974   */\n      tag_428\n      tag_415\n      jump\t// in\n    tag_428:\n        /* \"#utility.yul\":1857:1976   */\n    tag_427:\n        /* \"#utility.yul\":2015:2016   */\n      0x00\n        /* \"#utility.yul\":2040:2103   */\n      tag_429\n        /* \"#utility.yul\":2095:2102   */\n      dup5\n        /* \"#utility.yul\":2086:2092   */\n      dup3\n        /* \"#utility.yul\":2075:2084   */\n      dup6\n        /* \"#utility.yul\":2071:2093   */\n      add\n        /* \"#utility.yul\":2040:2103   */\n      tag_404\n      jump\t// in\n    tag_429:\n        /* \"#utility.yul\":2030:2103   */\n      swap2\n      pop\n        /* \"#utility.yul\":1986:2113   */\n      pop\n        /* \"#utility.yul\":1771:2120   */\n      swap3\n      swap2\n      pop\n      pop\n      jump\t// out\n        /* \"#utility.yul\":2126:2455   */\n    tag_82:\n        /* \"#utility.yul\":2185:2191   */\n      0x00\n        /* \"#utility.yul\":2234:2236   */\n      0x20\n        /* \"#utility.yul\":2222:2231   */\n      dup3\n        /* \"#utility.yul\":2213:2220   */\n      dup5\n        /* \"#utility.yul\":2209:2232   */\n      sub\n        /* \"#utility.yul\":2205:2237   */\n      slt\n        /* \"#utility.yul\":2202:2321   */\n      iszero\n      tag_431\n      jumpi\n        /* \"#utility.yul\":2240:2319   */\n      tag_432\n      tag_415\n      jump\t// in\n    tag_432:\n        /* \"#utility.yul\":2202:2321   */\n    tag_431:\n        /* \"#utility.yul\":2360:2361   */\n      0x00\n        /* \"#utility.yul\":2385:2438   */\n      tag_433\n        /* \"#utility.yul\":2430:2437   */\n      dup5\n        /* \"#utility.yul\":2421:2427   */\n      dup3\n        /* \"#utility.yul\":2410:2419   */\n      dup6\n        /* \"#utility.yul\":2406:2428   */\n      add\n        /* \"#utility.yul\":2385:2438   */\n      tag_408\n      jump\t// in\n    tag_433:\n        /* \"#utility.yul\":2375:2438   */\n      swap2\n      pop\n        /* \"#utility.yul\":2331:2448   */\n      pop\n        /* \"#utility.yul\":2126:2455   */\n      swap3\n      swap2\n      pop\n      pop\n      jump\t// out\n        /* \"#utility.yul\":2461:2640   */\n    tag_434:\n        /* \"#utility.yul\":2530:2540   */\n      0x00\n        /* \"#utility.yul\":2551:2597   */\n      tag_436\n        /* \"#utility.yul\":2593:2596   */\n      dup4\n        /* \"#utility.yul\":2585:2591   */\n      dup4\n        /* \"#utility.yul\":2551:2597   */\n      tag_437\n      jump\t// in\n    tag_436:\n        /* \"#utility.yul\":2629:2633   */\n      0x20\n        /* \"#utility.yul\":2624:2627   */\n      dup4\n        /* \"#utility.yul\":2620:2634   */\n      add\n        /* \"#utility.yul\":2606:2634   */\n      swap1\n      pop\n        /* \"#utility.yul\":2461:2640   */\n      swap3\n      swap2\n      pop\n      pop\n      jump\t// out\n        /* \"#utility.yul\":2646:2788   */\n    tag_438:\n        /* \"#utility.yul\":2749:2781   */\n      tag_440\n        /* \"#utility.yul\":2775:2780   */\n      dup2\n        /* \"#utility.yul\":2749:2781   */\n      tag_441\n      jump\t// in\n    tag_440:\n        /* \"#utility.yul\":2744:2747   */\n      dup3\n        /* \"#utility.yul\":2737:2782   */\n      mstore\n        /* \"#utility.yul\":2646:2788   */\n      pop\n      pop\n      jump\t// out\n        /* \"#utility.yul\":2794:2983   */\n    tag_442:\n        /* \"#utility.yul\":2915:2976   */\n      tag_444\n        /* \"#utility.yul\":2943:2975   */\n      tag_445\n        /* \"#utility.yul\":2969:2974   */\n      dup3\n        /* \"#utility.yul\":2943:2975   */\n      tag_441\n      jump\t// in\n    tag_445:\n        /* \"#utility.yul\":2915:2976   */\n      tag_446\n      jump\t// in\n    tag_444:\n        /* \"#utility.yul\":2910:2913   */\n      dup3\n        /* \"#utility.yul\":2903:2977   */\n      mstore\n        /* \"#utility.yul\":2794:2983   */\n      pop\n      pop\n      jump\t// out\n        /* \"#utility.yul\":2989:3107   */\n    tag_447:\n        /* \"#utility.yul\":3076:3100   */\n      tag_449\n        /* \"#utility.yul\":3094:3099   */\n      dup2\n        /* \"#utility.yul\":3076:3100   */\n      tag_450\n      jump\t// in\n    tag_449:\n        /* \"#utility.yul\":3071:3074   */\n      dup3\n        /* \"#utility.yul\":3064:3101   */\n      mstore\n        /* \"#utility.yul\":2989:3107   */\n      pop\n      pop\n      jump\t// out\n        /* \"#utility.yul\":3113:3270   */\n    tag_451:\n        /* \"#utility.yul\":3218:3263   */\n      tag_453\n        /* \"#utility.yul\":3238:3262   */\n      tag_454\n        /* \"#utility.yul\":3256:3261   */\n      dup3\n        /* \"#utility.yul\":3238:3262   */\n      tag_450\n      jump\t// in\n    tag_454:\n        /* \"#utility.yul\":3218:3263   */\n      tag_455\n      jump\t// in\n    tag_453:\n        /* \"#utility.yul\":3213:3216   */\n      dup3\n        /* \"#utility.yul\":3206:3264   */\n      mstore\n        /* \"#utility.yul\":3113:3270   */\n      pop\n      pop\n      jump\t// out\n        /* \"#utility.yul\":3306:4038   */\n    tag_456:\n        /* \"#utility.yul\":3425:3428   */\n      0x00\n        /* \"#utility.yul\":3454:3508   */\n      tag_458\n        /* \"#utility.yul\":3502:3507   */\n      dup3\n        /* \"#utility.yul\":3454:3508   */\n      tag_459\n      jump\t// in\n    tag_458:\n        /* \"#utility.yul\":3524:3610   */\n      tag_460\n        /* \"#utility.yul\":3603:3609   */\n      dup2\n        /* \"#utility.yul\":3598:3601   */\n      dup6\n        /* \"#utility.yul\":3524:3610   */\n      tag_461\n      jump\t// in\n    tag_460:\n        /* \"#utility.yul\":3517:3610   */\n      swap4\n      pop\n        /* \"#utility.yul\":3634:3690   */\n      tag_462\n        /* \"#utility.yul\":3684:3689   */\n      dup4\n        /* \"#utility.yul\":3634:3690   */\n      tag_463\n      jump\t// in\n    tag_462:\n        /* \"#utility.yul\":3713:3720   */\n      dup1\n        /* \"#utility.yul\":3744:3745   */\n      0x00\n        /* \"#utility.yul\":3729:4013   */\n    tag_464:\n        /* \"#utility.yul\":3754:3760   */\n      dup4\n        /* \"#utility.yul\":3751:3752   */\n      dup2\n        /* \"#utility.yul\":3748:3761   */\n      lt\n        /* \"#utility.yul\":3729:4013   */\n      iszero\n      tag_466\n      jumpi\n        /* \"#utility.yul\":3830:3836   */\n      dup2\n        /* \"#utility.yul\":3824:3837   */\n      mload\n        /* \"#utility.yul\":3857:3920   */\n      tag_467\n        /* \"#utility.yul\":3916:3919   */\n      dup9\n        /* \"#utility.yul\":3901:3914   */\n      dup3\n        /* \"#utility.yul\":3857:3920   */\n      tag_434\n      jump\t// in\n    tag_467:\n        /* \"#utility.yul\":3850:3920   */\n      swap8\n      pop\n        /* \"#utility.yul\":3943:4003   */\n      tag_468\n        /* \"#utility.yul\":3996:4002   */\n      dup4\n        /* \"#utility.yul\":3943:4003   */\n      tag_469\n      jump\t// in\n    tag_468:\n        /* \"#utility.yul\":3933:4003   */\n      swap3\n      pop\n        /* \"#utility.yul\":3789:4013   */\n      pop\n        /* \"#utility.yul\":3776:3777   */\n      0x01\n        /* \"#utility.yul\":3773:3774   */\n      dup2\n        /* \"#utility.yul\":3769:3778   */\n      add\n        /* \"#utility.yul\":3764:3778   */\n      swap1\n      pop\n        /* \"#utility.yul\":3729:4013   */\n      jump(tag_464)\n    tag_466:\n        /* \"#utility.yul\":3733:3747   */\n      pop\n        /* \"#utility.yul\":4029:4032   */\n      dup6\n        /* \"#utility.yul\":4022:4032   */\n      swap4\n      pop\n        /* \"#utility.yul\":3430:4038   */\n      pop\n      pop\n      pop\n        /* \"#utility.yul\":3306:4038   */\n      swap3\n      swap2\n      pop\n      pop\n      jump\t// out\n        /* \"#utility.yul\":4044:4153   */\n    tag_470:\n        /* \"#utility.yul\":4125:4146   */\n      tag_472\n        /* \"#utility.yul\":4140:4145   */\n      dup2\n        /* \"#utility.yul\":4125:4146   */\n      tag_473\n      jump\t// in\n    tag_472:\n        /* \"#utility.yul\":4120:4123   */\n      dup3\n        /* \"#utility.yul\":4113:4147   */\n      mstore\n        /* \"#utility.yul\":4044:4153   */\n      pop\n      pop\n      jump\t// out\n        /* \"#utility.yul\":4159:4523   */\n    tag_474:\n        /* \"#utility.yul\":4247:4250   */\n      0x00\n        /* \"#utility.yul\":4275:4314   */\n      tag_476\n        /* \"#utility.yul\":4308:4313   */\n      dup3\n        /* \"#utility.yul\":4275:4314   */\n      tag_477\n      jump\t// in\n    tag_476:\n        /* \"#utility.yul\":4330:4401   */\n      tag_478\n        /* \"#utility.yul\":4394:4400   */\n      dup2\n        /* \"#utility.yul\":4389:4392   */\n      dup6\n        /* \"#utility.yul\":4330:4401   */\n      tag_479\n      jump\t// in\n    tag_478:\n        /* \"#utility.yul\":4323:4401   */\n      swap4\n      pop\n        /* \"#utility.yul\":4410:4462   */\n      tag_480\n        /* \"#utility.yul\":4455:4461   */\n      dup2\n        /* \"#utility.yul\":4450:4453   */\n      dup6\n        /* \"#utility.yul\":4443:4447   */\n      0x20\n        /* \"#utility.yul\":4436:4441   */\n      dup7\n        /* \"#utility.yul\":4432:4448   */\n      add\n        /* \"#utility.yul\":4410:4462   */\n      tag_481\n      jump\t// in\n    tag_480:\n        /* \"#utility.yul\":4487:4516   */\n      tag_482\n        /* \"#utility.yul\":4509:4515   */\n      dup2\n        /* \"#utility.yul\":4487:4516   */\n      tag_483\n      jump\t// in\n    tag_482:\n        /* \"#utility.yul\":4482:4485   */\n      dup5\n        /* \"#utility.yul\":4478:4517   */\n      add\n        /* \"#utility.yul\":4471:4517   */\n      swap2\n      pop\n        /* \"#utility.yul\":4251:4523   */\n      pop\n        /* \"#utility.yul\":4159:4523   */\n      swap3\n      swap2\n      pop\n      pop\n      jump\t// out\n        /* \"#utility.yul\":4529:4906   */\n    tag_484:\n        /* \"#utility.yul\":4635:4638   */\n      0x00\n        /* \"#utility.yul\":4663:4702   */\n      tag_486\n        /* \"#utility.yul\":4696:4701   */\n      dup3\n        /* \"#utility.yul\":4663:4702   */\n      tag_477\n      jump\t// in\n    tag_486:\n        /* \"#utility.yul\":4718:4807   */\n      tag_487\n        /* \"#utility.yul\":4800:4806   */\n      dup2\n        /* \"#utility.yul\":4795:4798   */\n      dup6\n        /* \"#utility.yul\":4718:4807   */\n      tag_488\n      jump\t// in\n    tag_487:\n        /* \"#utility.yul\":4711:4807   */\n      swap4\n      pop\n        /* \"#utility.yul\":4816:4868   */\n      tag_489\n        /* \"#utility.yul\":4861:4867   */\n      dup2\n        /* \"#utility.yul\":4856:4859   */\n      dup6\n        /* \"#utility.yul\":4849:4853   */\n      0x20\n        /* \"#utility.yul\":4842:4847   */\n      dup7\n        /* \"#utility.yul\":4838:4854   */\n      add\n        /* \"#utility.yul\":4816:4868   */\n      tag_481\n      jump\t// in\n    tag_489:\n        /* \"#utility.yul\":4893:4899   */\n      dup1\n        /* \"#utility.yul\":4888:4891   */\n      dup5\n        /* \"#utility.yul\":4884:4900   */\n      add\n        /* \"#utility.yul\":4877:4900   */\n      swap2\n      pop\n        /* \"#utility.yul\":4639:4906   */\n      pop\n        /* \"#utility.yul\":4529:4906   */\n      swap3\n      swap2\n      pop\n      pop\n      jump\t// out\n        /* \"#utility.yul\":4912:5278   */\n    tag_490:\n        /* \"#utility.yul\":5054:5057   */\n      0x00\n        /* \"#utility.yul\":5075:5142   */\n      tag_492\n        /* \"#utility.yul\":5139:5141   */\n      0x34\n        /* \"#utility.yul\":5134:5137   */\n      dup4\n        /* \"#utility.yul\":5075:5142   */\n      tag_479\n      jump\t// in\n    tag_492:\n        /* \"#utility.yul\":5068:5142   */\n      swap2\n      pop\n        /* \"#utility.yul\":5151:5244   */\n      tag_493\n        /* \"#utility.yul\":5240:5243   */\n      dup3\n        /* \"#utility.yul\":5151:5244   */\n      tag_494\n      jump\t// in\n    tag_493:\n        /* \"#utility.yul\":5269:5271   */\n      0x40\n        /* \"#utility.yul\":5264:5267   */\n      dup3\n        /* \"#utility.yul\":5260:5272   */\n      add\n        /* \"#utility.yul\":5253:5272   */\n      swap1\n      pop\n        /* \"#utility.yul\":4912:5278   */\n      swap2\n      swap1\n      pop\n      jump\t// out\n        /* \"#utility.yul\":5284:5650   */\n    tag_495:\n        /* \"#utility.yul\":5426:5429   */\n      0x00\n        /* \"#utility.yul\":5447:5514   */\n      tag_497\n        /* \"#utility.yul\":5511:5513   */\n      0x28\n        /* \"#utility.yul\":5506:5509   */\n      dup4\n        /* \"#utility.yul\":5447:5514   */\n      tag_479\n      jump\t// in\n    tag_497:\n        /* \"#utility.yul\":5440:5514   */\n      swap2\n      pop\n        /* \"#utility.yul\":5523:5616   */\n      tag_498\n        /* \"#utility.yul\":5612:5615   */\n      dup3\n        /* \"#utility.yul\":5523:5616   */\n      tag_499\n      jump\t// in\n    tag_498:\n        /* \"#utility.yul\":5641:5643   */\n      0x40\n        /* \"#utility.yul\":5636:5639   */\n      dup3\n        /* \"#utility.yul\":5632:5644   */\n      add\n        /* \"#utility.yul\":5625:5644   */\n      swap1\n      pop\n        /* \"#utility.yul\":5284:5650   */\n      swap2\n      swap1\n      pop\n      jump\t// out\n        /* \"#utility.yul\":5656:6056   */\n    tag_500:\n        /* \"#utility.yul\":5816:5819   */\n      0x00\n        /* \"#utility.yul\":5837:5921   */\n      tag_502\n        /* \"#utility.yul\":5919:5920   */\n      0x08\n        /* \"#utility.yul\":5914:5917   */\n      dup4\n        /* \"#utility.yul\":5837:5921   */\n      tag_488\n      jump\t// in\n    tag_502:\n        /* \"#utility.yul\":5830:5921   */\n      swap2\n      pop\n        /* \"#utility.yul\":5930:6023   */\n      tag_503\n        /* \"#utility.yul\":6019:6022   */\n      dup3\n        /* \"#utility.yul\":5930:6023   */\n      tag_504\n      jump\t// in\n    tag_503:\n        /* \"#utility.yul\":6048:6049   */\n      0x08\n        /* \"#utility.yul\":6043:6046   */\n      dup3\n        /* \"#utility.yul\":6039:6050   */\n      add\n        /* \"#utility.yul\":6032:6050   */\n      swap1\n      pop\n        /* \"#utility.yul\":5656:6056   */\n      swap2\n      swap1\n      pop\n      jump\t// out\n        /* \"#utility.yul\":6062:6428   */\n    tag_505:\n        /* \"#utility.yul\":6204:6207   */\n      0x00\n        /* \"#utility.yul\":6225:6292   */\n      tag_507\n        /* \"#utility.yul\":6289:6291   */\n      0x10\n        /* \"#utility.yul\":6284:6287   */\n      dup4\n        /* \"#utility.yul\":6225:6292   */\n      tag_479\n      jump\t// in\n    tag_507:\n        /* \"#utility.yul\":6218:6292   */\n      swap2\n      pop\n        /* \"#utility.yul\":6301:6394   */\n      tag_508\n        /* \"#utility.yul\":6390:6393   */\n      dup3\n        /* \"#utility.yul\":6301:6394   */\n      tag_509\n      jump\t// in\n    tag_508:\n        /* \"#utility.yul\":6419:6421   */\n      0x20\n        /* \"#utility.yul\":6414:6417   */\n      dup3\n        /* \"#utility.yul\":6410:6422   */\n      add\n        /* \"#utility.yul\":6403:6422   */\n      swap1\n      pop\n        /* \"#utility.yul\":6062:6428   */\n      swap2\n      swap1\n      pop\n      jump\t// out\n        /* \"#utility.yul\":6434:6834   */\n    tag_510:\n        /* \"#utility.yul\":6594:6597   */\n      0x00\n        /* \"#utility.yul\":6615:6699   */\n      tag_512\n        /* \"#utility.yul\":6697:6698   */\n      0x05\n        /* \"#utility.yul\":6692:6695   */\n      dup4\n        /* \"#utility.yul\":6615:6699   */\n      tag_488\n      jump\t// in\n    tag_512:\n        /* \"#utility.yul\":6608:6699   */\n      swap2\n      pop\n        /* \"#utility.yul\":6708:6801   */\n      tag_513\n        /* \"#utility.yul\":6797:6800   */\n      dup3\n        /* \"#utility.yul\":6708:6801   */\n      tag_514\n      jump\t// in\n    tag_513:\n        /* \"#utility.yul\":6826:6827   */\n      0x05\n        /* \"#utility.yul\":6821:6824   */\n      dup3\n        /* \"#utility.yul\":6817:6828   */\n      add\n        /* \"#utility.yul\":6810:6828   */\n      swap1\n      pop\n        /* \"#utility.yul\":6434:6834   */\n      swap2\n      swap1\n      pop\n      jump\t// out\n        /* \"#utility.yul\":6840:7206   */\n    tag_515:\n        /* \"#utility.yul\":6982:6985   */\n      0x00\n        /* \"#utility.yul\":7003:7070   */\n      tag_517\n        /* \"#utility.yul\":7067:7069   */\n      0x12\n        /* \"#utility.yul\":7062:7065   */\n      dup4\n        /* \"#utility.yul\":7003:7070   */\n      tag_479\n      jump\t// in\n    tag_517:\n        /* \"#utility.yul\":6996:7070   */\n      swap2\n      pop\n        /* \"#utility.yul\":7079:7172   */\n      tag_518\n        /* \"#utility.yul\":7168:7171   */\n      dup3\n        /* \"#utility.yul\":7079:7172   */\n      tag_519\n      jump\t// in\n    tag_518:\n        /* \"#utility.yul\":7197:7199   */\n      0x20\n        /* \"#utility.yul\":7192:7195   */\n      dup3\n        /* \"#utility.yul\":7188:7200   */\n      add\n        /* \"#utility.yul\":7181:7200   */\n      swap1\n      pop\n        /* \"#utility.yul\":6840:7206   */\n      swap2\n      swap1\n      pop\n      jump\t// out\n        /* \"#utility.yul\":7212:7578   */\n    tag_520:\n        /* \"#utility.yul\":7354:7357   */\n      0x00\n        /* \"#utility.yul\":7375:7442   */\n      tag_522\n        /* \"#utility.yul\":7439:7441   */\n      0x1b\n        /* \"#utility.yul\":7434:7437   */\n      dup4\n        /* \"#utility.yul\":7375:7442   */\n      tag_479\n      jump\t// in\n    tag_522:\n        /* \"#utility.yul\":7368:7442   */\n      swap2\n      pop\n        /* \"#utility.yul\":7451:7544   */\n      tag_523\n        /* \"#utility.yul\":7540:7543   */\n      dup3\n        /* \"#utility.yul\":7451:7544   */\n      tag_524\n      jump\t// in\n    tag_523:\n        /* \"#utility.yul\":7569:7571   */\n      0x20\n        /* \"#utility.yul\":7564:7567   */\n      dup3\n        /* \"#utility.yul\":7560:7572   */\n      add\n        /* \"#utility.yul\":7553:7572   */\n      swap1\n      pop\n        /* \"#utility.yul\":7212:7578   */\n      swap2\n      swap1\n      pop\n      jump\t// out\n        /* \"#utility.yul\":7584:7950   */\n    tag_525:\n        /* \"#utility.yul\":7726:7729   */\n      0x00\n        /* \"#utility.yul\":7747:7814   */\n      tag_527\n        /* \"#utility.yul\":7811:7813   */\n      0x1b\n        /* \"#utility.yul\":7806:7809   */\n      dup4\n        /* \"#utility.yul\":7747:7814   */\n      tag_479\n      jump\t// in\n    tag_527:\n        /* \"#utility.yul\":7740:7814   */\n      swap2\n      pop\n        /* \"#utility.yul\":7823:7916   */\n      tag_528\n        /* \"#utility.yul\":7912:7915   */\n      dup3\n        /* \"#utility.yul\":7823:7916   */\n      tag_529\n      jump\t// in\n    tag_528:\n        /* \"#utility.yul\":7941:7943   */\n      0x20\n        /* \"#utility.yul\":7936:7939   */\n      dup3\n        /* \"#utility.yul\":7932:7944   */\n      add\n        /* \"#utility.yul\":7925:7944   */\n      swap1\n      pop\n        /* \"#utility.yul\":7584:7950   */\n      swap2\n      swap1\n      pop\n      jump\t// out\n        /* \"#utility.yul\":7956:8322   */\n    tag_530:\n        /* \"#utility.yul\":8098:8101   */\n      0x00\n        /* \"#utility.yul\":8119:8186   */\n      tag_532\n        /* \"#utility.yul\":8183:8185   */\n      0x15\n        /* \"#utility.yul\":8178:8181   */\n      dup4\n        /* \"#utility.yul\":8119:8186   */\n      tag_479\n      jump\t// in\n    tag_532:\n        /* \"#utility.yul\":8112:8186   */\n      swap2\n      pop\n        /* \"#utility.yul\":8195:8288   */\n      tag_533\n        /* \"#utility.yul\":8284:8287   */\n      dup3\n        /* \"#utility.yul\":8195:8288   */\n      tag_534\n      jump\t// in\n    tag_533:\n        /* \"#utility.yul\":8313:8315   */\n      0x20\n        /* \"#utility.yul\":8308:8311   */\n      dup3\n        /* \"#utility.yul\":8304:8316   */\n      add\n        /* \"#utility.yul\":8297:8316   */\n      swap1\n      pop\n        /* \"#utility.yul\":7956:8322   */\n      swap2\n      swap1\n      pop\n      jump\t// out\n        /* \"#utility.yul\":8328:8694   */\n    tag_535:\n        /* \"#utility.yul\":8470:8473   */\n      0x00\n        /* \"#utility.yul\":8491:8558   */\n      tag_537\n        /* \"#utility.yul\":8555:8557   */\n      0x1c\n        /* \"#utility.yul\":8550:8553   */\n      dup4\n        /* \"#utility.yul\":8491:8558   */\n      tag_479\n      jump\t// in\n    tag_537:\n        /* \"#utility.yul\":8484:8558   */\n      swap2\n      pop\n        /* \"#utility.yul\":8567:8660   */\n      tag_538\n        /* \"#utility.yul\":8656:8659   */\n      dup3\n        /* \"#utility.yul\":8567:8660   */\n      tag_539\n      jump\t// in\n    tag_538:\n        /* \"#utility.yul\":8685:8687   */\n      0x20\n        /* \"#utility.yul\":8680:8683   */\n      dup3\n        /* \"#utility.yul\":8676:8688   */\n      add\n        /* \"#utility.yul\":8669:8688   */\n      swap1\n      pop\n        /* \"#utility.yul\":8328:8694   */\n      swap2\n      swap1\n      pop\n      jump\t// out\n        /* \"#utility.yul\":8700:9066   */\n    tag_540:\n        /* \"#utility.yul\":8842:8845   */\n      0x00\n        /* \"#utility.yul\":8863:8930   */\n      tag_542\n        /* \"#utility.yul\":8927:8929   */\n      0x1f\n        /* \"#utility.yul\":8922:8925   */\n      dup4\n        /* \"#utility.yul\":8863:8930   */\n      tag_479\n      jump\t// in\n    tag_542:\n        /* \"#utility.yul\":8856:8930   */\n      swap2\n      pop\n        /* \"#utility.yul\":8939:9032   */\n      tag_543\n        /* \"#utility.yul\":9028:9031   */\n      dup3\n        /* \"#utility.yul\":8939:9032   */\n      tag_544\n      jump\t// in\n    tag_543:\n        /* \"#utility.yul\":9057:9059   */\n      0x20\n        /* \"#utility.yul\":9052:9055   */\n      dup3\n        /* \"#utility.yul\":9048:9060   */\n      add\n        /* \"#utility.yul\":9041:9060   */\n      swap1\n      pop\n        /* \"#utility.yul\":8700:9066   */\n      swap2\n      swap1\n      pop\n      jump\t// out\n        /* \"#utility.yul\":9072:9438   */\n    tag_545:\n        /* \"#utility.yul\":9214:9217   */\n      0x00\n        /* \"#utility.yul\":9235:9302   */\n      tag_547\n        /* \"#utility.yul\":9299:9301   */\n      0x1b\n        /* \"#utility.yul\":9294:9297   */\n      dup4\n        /* \"#utility.yul\":9235:9302   */\n      tag_479\n      jump\t// in\n    tag_547:\n        /* \"#utility.yul\":9228:9302   */\n      swap2\n      pop\n        /* \"#utility.yul\":9311:9404   */\n      tag_548\n        /* \"#utility.yul\":9400:9403   */\n      dup3\n        /* \"#utility.yul\":9311:9404   */\n      tag_549\n      jump\t// in\n    tag_548:\n        /* \"#utility.yul\":9429:9431   */\n      0x20\n        /* \"#utility.yul\":9424:9427   */\n      dup3\n        /* \"#utility.yul\":9420:9432   */\n      add\n        /* \"#utility.yul\":9413:9432   */\n      swap1\n      pop\n        /* \"#utility.yul\":9072:9438   */\n      swap2\n      swap1\n      pop\n      jump\t// out\n        /* \"#utility.yul\":9444:9810   */\n    tag_550:\n        /* \"#utility.yul\":9586:9589   */\n      0x00\n        /* \"#utility.yul\":9607:9674   */\n      tag_552\n        /* \"#utility.yul\":9671:9673   */\n      0x19\n        /* \"#utility.yul\":9666:9669   */\n      dup4\n        /* \"#utility.yul\":9607:9674   */\n      tag_479\n      jump\t// in\n    tag_552:\n        /* \"#utility.yul\":9600:9674   */\n      swap2\n      pop\n        /* \"#utility.yul\":9683:9776   */\n      tag_553\n        /* \"#utility.yul\":9772:9775   */\n      dup3\n        /* \"#utility.yul\":9683:9776   */\n      tag_554\n      jump\t// in\n    tag_553:\n        /* \"#utility.yul\":9801:9803   */\n      0x20\n        /* \"#utility.yul\":9796:9799   */\n      dup3\n        /* \"#utility.yul\":9792:9804   */\n      add\n        /* \"#utility.yul\":9785:9804   */\n      swap1\n      pop\n        /* \"#utility.yul\":9444:9810   */\n      swap2\n      swap1\n      pop\n      jump\t// out\n        /* \"#utility.yul\":9816:10216   */\n    tag_555:\n        /* \"#utility.yul\":9976:9979   */\n      0x00\n        /* \"#utility.yul\":9997:10081   */\n      tag_557\n        /* \"#utility.yul\":10079:10080   */\n      0x07\n        /* \"#utility.yul\":10074:10077   */\n      dup4\n        /* \"#utility.yul\":9997:10081   */\n      tag_488\n      jump\t// in\n    tag_557:\n        /* \"#utility.yul\":9990:10081   */\n      swap2\n      pop\n        /* \"#utility.yul\":10090:10183   */\n      tag_558\n        /* \"#utility.yul\":10179:10182   */\n      dup3\n        /* \"#utility.yul\":10090:10183   */\n      tag_559\n      jump\t// in\n    tag_558:\n        /* \"#utility.yul\":10208:10209   */\n      0x07\n        /* \"#utility.yul\":10203:10206   */\n      dup3\n        /* \"#utility.yul\":10199:10210   */\n      add\n        /* \"#utility.yul\":10192:10210   */\n      swap1\n      pop\n        /* \"#utility.yul\":9816:10216   */\n      swap2\n      swap1\n      pop\n      jump\t// out\n        /* \"#utility.yul\":10222:10588   */\n    tag_560:\n        /* \"#utility.yul\":10364:10367   */\n      0x00\n        /* \"#utility.yul\":10385:10452   */\n      tag_562\n        /* \"#utility.yul\":10449:10451   */\n      0x1d\n        /* \"#utility.yul\":10444:10447   */\n      dup4\n        /* \"#utility.yul\":10385:10452   */\n      tag_479\n      jump\t// in\n    tag_562:\n        /* \"#utility.yul\":10378:10452   */\n      swap2\n      pop\n        /* \"#utility.yul\":10461:10554   */\n      tag_563\n        /* \"#utility.yul\":10550:10553   */\n      dup3\n        /* \"#utility.yul\":10461:10554   */\n      tag_564\n      jump\t// in\n    tag_563:\n        /* \"#utility.yul\":10579:10581   */\n      0x20\n        /* \"#utility.yul\":10574:10577   */\n      dup3\n        /* \"#utility.yul\":10570:10582   */\n      add\n        /* \"#utility.yul\":10563:10582   */\n      swap1\n      pop\n        /* \"#utility.yul\":10222:10588   */\n      swap2\n      swap1\n      pop\n      jump\t// out\n        /* \"#utility.yul\":10594:10960   */\n    tag_565:\n        /* \"#utility.yul\":10736:10739   */\n      0x00\n        /* \"#utility.yul\":10757:10824   */\n      tag_567\n        /* \"#utility.yul\":10821:10823   */\n      0x21\n        /* \"#utility.yul\":10816:10819   */\n      dup4\n        /* \"#utility.yul\":10757:10824   */\n      tag_479\n      jump\t// in\n    tag_567:\n        /* \"#utility.yul\":10750:10824   */\n      swap2\n      pop\n        /* \"#utility.yul\":10833:10926   */\n      tag_568\n        /* \"#utility.yul\":10922:10925   */\n      dup3\n        /* \"#utility.yul\":10833:10926   */\n      tag_569\n      jump\t// in\n    tag_568:\n        /* \"#utility.yul\":10951:10953   */\n      0x40\n        /* \"#utility.yul\":10946:10949   */\n      dup3\n        /* \"#utility.yul\":10942:10954   */\n      add\n        /* \"#utility.yul\":10935:10954   */\n      swap1\n      pop\n        /* \"#utility.yul\":10594:10960   */\n      swap2\n      swap1\n      pop\n      jump\t// out\n        /* \"#utility.yul\":10966:11074   */\n    tag_437:\n        /* \"#utility.yul\":11043:11067   */\n      tag_571\n        /* \"#utility.yul\":11061:11066   */\n      dup2\n        /* \"#utility.yul\":11043:11067   */\n      tag_572\n      jump\t// in\n    tag_571:\n        /* \"#utility.yul\":11038:11041   */\n      dup3\n        /* \"#utility.yul\":11031:11068   */\n      mstore\n        /* \"#utility.yul\":10966:11074   */\n      pop\n      pop\n      jump\t// out\n        /* \"#utility.yul\":11080:11198   */\n    tag_573:\n        /* \"#utility.yul\":11167:11191   */\n      tag_575\n        /* \"#utility.yul\":11185:11190   */\n      dup2\n        /* \"#utility.yul\":11167:11191   */\n      tag_572\n      jump\t// in\n    tag_575:\n        /* \"#utility.yul\":11162:11165   */\n      dup3\n        /* \"#utility.yul\":11155:11192   */\n      mstore\n        /* \"#utility.yul\":11080:11198   */\n      pop\n      pop\n      jump\t// out\n        /* \"#utility.yul\":11204:11361   */\n    tag_576:\n        /* \"#utility.yul\":11309:11354   */\n      tag_578\n        /* \"#utility.yul\":11329:11353   */\n      tag_579\n        /* \"#utility.yul\":11347:11352   */\n      dup3\n        /* \"#utility.yul\":11329:11353   */\n      tag_572\n      jump\t// in\n    tag_579:\n        /* \"#utility.yul\":11309:11354   */\n      tag_580\n      jump\t// in\n    tag_578:\n        /* \"#utility.yul\":11304:11307   */\n      dup3\n        /* \"#utility.yul\":11297:11355   */\n      mstore\n        /* \"#utility.yul\":11204:11361   */\n      pop\n      pop\n      jump\t// out\n        /* \"#utility.yul\":11367:11908   */\n    tag_273:\n        /* \"#utility.yul\":11600:11603   */\n      0x00\n        /* \"#utility.yul\":11622:11770   */\n      tag_582\n        /* \"#utility.yul\":11766:11769   */\n      dup3\n        /* \"#utility.yul\":11622:11770   */\n      tag_500\n      jump\t// in\n    tag_582:\n        /* \"#utility.yul\":11615:11770   */\n      swap2\n      pop\n        /* \"#utility.yul\":11787:11882   */\n      tag_583\n        /* \"#utility.yul\":11878:11881   */\n      dup3\n        /* \"#utility.yul\":11869:11875   */\n      dup5\n        /* \"#utility.yul\":11787:11882   */\n      tag_484\n      jump\t// in\n    tag_583:\n        /* \"#utility.yul\":11780:11882   */\n      swap2\n      pop\n        /* \"#utility.yul\":11899:11902   */\n      dup2\n        /* \"#utility.yul\":11892:11902   */\n      swap1\n      pop\n        /* \"#utility.yul\":11367:11908   */\n      swap3\n      swap2\n      pop\n      pop\n      jump\t// out\n        /* \"#utility.yul\":11914:12455   */\n    tag_282:\n        /* \"#utility.yul\":12147:12150   */\n      0x00\n        /* \"#utility.yul\":12169:12317   */\n      tag_585\n        /* \"#utility.yul\":12313:12316   */\n      dup3\n        /* \"#utility.yul\":12169:12317   */\n      tag_510\n      jump\t// in\n    tag_585:\n        /* \"#utility.yul\":12162:12317   */\n      swap2\n      pop\n        /* \"#utility.yul\":12334:12429   */\n      tag_586\n        /* \"#utility.yul\":12425:12428   */\n      dup3\n        /* \"#utility.yul\":12416:12422   */\n      dup5\n        /* \"#utility.yul\":12334:12429   */\n      tag_484\n      jump\t// in\n    tag_586:\n        /* \"#utility.yul\":12327:12429   */\n      swap2\n      pop\n        /* \"#utility.yul\":12446:12449   */\n      dup2\n        /* \"#utility.yul\":12439:12449   */\n      swap1\n      pop\n        /* \"#utility.yul\":11914:12455   */\n      swap3\n      swap2\n      pop\n      pop\n      jump\t// out\n        /* \"#utility.yul\":12461:13002   */\n    tag_290:\n        /* \"#utility.yul\":12694:12697   */\n      0x00\n        /* \"#utility.yul\":12716:12864   */\n      tag_588\n        /* \"#utility.yul\":12860:12863   */\n      dup3\n        /* \"#utility.yul\":12716:12864   */\n      tag_555\n      jump\t// in\n    tag_588:\n        /* \"#utility.yul\":12709:12864   */\n      swap2\n      pop\n        /* \"#utility.yul\":12881:12976   */\n      tag_589\n        /* \"#utility.yul\":12972:12975   */\n      dup3\n        /* \"#utility.yul\":12963:12969   */\n      dup5\n        /* \"#utility.yul\":12881:12976   */\n      tag_484\n      jump\t// in\n    tag_589:\n        /* \"#utility.yul\":12874:12976   */\n      swap2\n      pop\n        /* \"#utility.yul\":12993:12996   */\n      dup2\n        /* \"#utility.yul\":12986:12996   */\n      swap1\n      pop\n        /* \"#utility.yul\":12461:13002   */\n      swap3\n      swap2\n      pop\n      pop\n      jump\t// out\n        /* \"#utility.yul\":13008:13578   */\n    tag_256:\n        /* \"#utility.yul\":13192:13195   */\n      0x00\n        /* \"#utility.yul\":13207:13282   */\n      tag_591\n        /* \"#utility.yul\":13278:13281   */\n      dup3\n        /* \"#utility.yul\":13269:13275   */\n      dup7\n        /* \"#utility.yul\":13207:13282   */\n      tag_576\n      jump\t// in\n    tag_591:\n        /* \"#utility.yul\":13307:13309   */\n      0x20\n        /* \"#utility.yul\":13302:13305   */\n      dup3\n        /* \"#utility.yul\":13298:13310   */\n      add\n        /* \"#utility.yul\":13291:13310   */\n      swap2\n      pop\n        /* \"#utility.yul\":13320:13395   */\n      tag_592\n        /* \"#utility.yul\":13391:13394   */\n      dup3\n        /* \"#utility.yul\":13382:13388   */\n      dup6\n        /* \"#utility.yul\":13320:13395   */\n      tag_451\n      jump\t// in\n    tag_592:\n        /* \"#utility.yul\":13420:13422   */\n      0x14\n        /* \"#utility.yul\":13415:13418   */\n      dup3\n        /* \"#utility.yul\":13411:13423   */\n      add\n        /* \"#utility.yul\":13404:13423   */\n      swap2\n      pop\n        /* \"#utility.yul\":13433:13524   */\n      tag_593\n        /* \"#utility.yul\":13520:13523   */\n      dup3\n        /* \"#utility.yul\":13511:13517   */\n      dup5\n        /* \"#utility.yul\":13433:13524   */\n      tag_442\n      jump\t// in\n    tag_593:\n        /* \"#utility.yul\":13549:13551   */\n      0x14\n        /* \"#utility.yul\":13544:13547   */\n      dup3\n        /* \"#utility.yul\":13540:13552   */\n      add\n        /* \"#utility.yul\":13533:13552   */\n      swap2\n      pop\n        /* \"#utility.yul\":13569:13572   */\n      dup2\n        /* \"#utility.yul\":13562:13572   */\n      swap1\n      pop\n        /* \"#utility.yul\":13008:13578   */\n      swap5\n      swap4\n      pop\n      pop\n      pop\n      pop\n      jump\t// out\n        /* \"#utility.yul\":13584:13838   */\n    tag_78:\n        /* \"#utility.yul\":13693:13697   */\n      0x00\n        /* \"#utility.yul\":13731:13733   */\n      0x20\n        /* \"#utility.yul\":13720:13729   */\n      dup3\n        /* \"#utility.yul\":13716:13734   */\n      add\n        /* \"#utility.yul\":13708:13734   */\n      swap1\n      pop\n        /* \"#utility.yul\":13744:13831   */\n      tag_595\n        /* \"#utility.yul\":13828:13829   */\n      0x00\n        /* \"#utility.yul\":13817:13826   */\n      dup4\n        /* \"#utility.yul\":13813:13830   */\n      add\n        /* \"#utility.yul\":13804:13810   */\n      dup5\n        /* \"#utility.yul\":13744:13831   */\n      tag_438\n      jump\t// in\n    tag_595:\n        /* \"#utility.yul\":13584:13838   */\n      swap3\n      swap2\n      pop\n      pop\n      jump\t// out\n        /* \"#utility.yul\":13844:14599   */\n    tag_355:\n        /* \"#utility.yul\":14069:14073   */\n      0x00\n        /* \"#utility.yul\":14107:14110   */\n      0xa0\n        /* \"#utility.yul\":14096:14105   */\n      dup3\n        /* \"#utility.yul\":14092:14111   */\n      add\n        /* \"#utility.yul\":14084:14111   */\n      swap1\n      pop\n        /* \"#utility.yul\":14121:14192   */\n      tag_597\n        /* \"#utility.yul\":14189:14190   */\n      0x00\n        /* \"#utility.yul\":14178:14187   */\n      dup4\n        /* \"#utility.yul\":14174:14191   */\n      add\n        /* \"#utility.yul\":14165:14171   */\n      dup9\n        /* \"#utility.yul\":14121:14192   */\n      tag_447\n      jump\t// in\n    tag_597:\n        /* \"#utility.yul\":14202:14274   */\n      tag_598\n        /* \"#utility.yul\":14270:14272   */\n      0x20\n        /* \"#utility.yul\":14259:14268   */\n      dup4\n        /* \"#utility.yul\":14255:14273   */\n      add\n        /* \"#utility.yul\":14246:14252   */\n      dup8\n        /* \"#utility.yul\":14202:14274   */\n      tag_447\n      jump\t// in\n    tag_598:\n        /* \"#utility.yul\":14284:14356   */\n      tag_599\n        /* \"#utility.yul\":14352:14354   */\n      0x40\n        /* \"#utility.yul\":14341:14350   */\n      dup4\n        /* \"#utility.yul\":14337:14355   */\n      add\n        /* \"#utility.yul\":14328:14334   */\n      dup7\n        /* \"#utility.yul\":14284:14356   */\n      tag_573\n      jump\t// in\n    tag_599:\n        /* \"#utility.yul\":14366:14438   */\n      tag_600\n        /* \"#utility.yul\":14434:14436   */\n      0x60\n        /* \"#utility.yul\":14423:14432   */\n      dup4\n        /* \"#utility.yul\":14419:14437   */\n      add\n        /* \"#utility.yul\":14410:14416   */\n      dup6\n        /* \"#utility.yul\":14366:14438   */\n      tag_573\n      jump\t// in\n    tag_600:\n        /* \"#utility.yul\":14486:14495   */\n      dup2\n        /* \"#utility.yul\":14480:14484   */\n      dup2\n        /* \"#utility.yul\":14476:14496   */\n      sub\n        /* \"#utility.yul\":14470:14473   */\n      0x80\n        /* \"#utility.yul\":14459:14468   */\n      dup4\n        /* \"#utility.yul\":14455:14474   */\n      add\n        /* \"#utility.yul\":14448:14497   */\n      mstore\n        /* \"#utility.yul\":14514:14592   */\n      tag_601\n        /* \"#utility.yul\":14587:14591   */\n      dup2\n        /* \"#utility.yul\":14578:14584   */\n      dup5\n        /* \"#utility.yul\":14514:14592   */\n      tag_474\n      jump\t// in\n    tag_601:\n        /* \"#utility.yul\":14506:14592   */\n      swap1\n      pop\n        /* \"#utility.yul\":13844:14599   */\n      swap7\n      swap6\n      pop\n      pop\n      pop\n      pop\n      pop\n      pop\n      jump\t// out\n        /* \"#utility.yul\":14605:14978   */\n    tag_43:\n        /* \"#utility.yul\":14748:14752   */\n      0x00\n        /* \"#utility.yul\":14786:14788   */\n      0x20\n        /* \"#utility.yul\":14775:14784   */\n      dup3\n        /* \"#utility.yul\":14771:14789   */\n      add\n        /* \"#utility.yul\":14763:14789   */\n      swap1\n      pop\n        /* \"#utility.yul\":14835:14844   */\n      dup2\n        /* \"#utility.yul\":14829:14833   */\n      dup2\n        /* \"#utility.yul\":14825:14845   */\n      sub\n        /* \"#utility.yul\":14821:14822   */\n      0x00\n        /* \"#utility.yul\":14810:14819   */\n      dup4\n        /* \"#utility.yul\":14806:14823   */\n      add\n        /* \"#utility.yul\":14799:14846   */\n      mstore\n        /* \"#utility.yul\":14863:14971   */\n      tag_603\n        /* \"#utility.yul\":14966:14970   */\n      dup2\n        /* \"#utility.yul\":14957:14963   */\n      dup5\n        /* \"#utility.yul\":14863:14971   */\n      tag_456\n      jump\t// in\n    tag_603:\n        /* \"#utility.yul\":14855:14971   */\n      swap1\n      pop\n        /* \"#utility.yul\":14605:14978   */\n      swap3\n      swap2\n      pop\n      pop\n      jump\t// out\n        /* \"#utility.yul\":14984:15194   */\n    tag_73:\n        /* \"#utility.yul\":15071:15075   */\n      0x00\n        /* \"#utility.yul\":15109:15111   */\n      0x20\n        /* \"#utility.yul\":15098:15107   */\n      dup3\n        /* \"#utility.yul\":15094:15112   */\n      add\n        /* \"#utility.yul\":15086:15112   */\n      swap1\n      pop\n        /* \"#utility.yul\":15122:15187   */\n      tag_605\n        /* \"#utility.yul\":15184:15185   */\n      0x00\n        /* \"#utility.yul\":15173:15182   */\n      dup4\n        /* \"#utility.yul\":15169:15186   */\n      add\n        /* \"#utility.yul\":15160:15166   */\n      dup5\n        /* \"#utility.yul\":15122:15187   */\n      tag_470\n      jump\t// in\n    tag_605:\n        /* \"#utility.yul\":14984:15194   */\n      swap3\n      swap2\n      pop\n      pop\n      jump\t// out\n        /* \"#utility.yul\":15200:15513   */\n    tag_370:\n        /* \"#utility.yul\":15313:15317   */\n      0x00\n        /* \"#utility.yul\":15351:15353   */\n      0x20\n        /* \"#utility.yul\":15340:15349   */\n      dup3\n        /* \"#utility.yul\":15336:15354   */\n      add\n        /* \"#utility.yul\":15328:15354   */\n      swap1\n      pop\n        /* \"#utility.yul\":15400:15409   */\n      dup2\n        /* \"#utility.yul\":15394:15398   */\n      dup2\n        /* \"#utility.yul\":15390:15410   */\n      sub\n        /* \"#utility.yul\":15386:15387   */\n      0x00\n        /* \"#utility.yul\":15375:15384   */\n      dup4\n        /* \"#utility.yul\":15371:15388   */\n      add\n        /* \"#utility.yul\":15364:15411   */\n      mstore\n        /* \"#utility.yul\":15428:15506   */\n      tag_607\n        /* \"#utility.yul\":15501:15505   */\n      dup2\n        /* \"#utility.yul\":15492:15498   */\n      dup5\n        /* \"#utility.yul\":15428:15506   */\n      tag_474\n      jump\t// in\n    tag_607:\n        /* \"#utility.yul\":15420:15506   */\n      swap1\n      pop\n        /* \"#utility.yul\":15200:15513   */\n      swap3\n      swap2\n      pop\n      pop\n      jump\t// out\n        /* \"#utility.yul\":15519:15938   */\n    tag_372:\n        /* \"#utility.yul\":15685:15689   */\n      0x00\n        /* \"#utility.yul\":15723:15725   */\n      0x20\n        /* \"#utility.yul\":15712:15721   */\n      dup3\n        /* \"#utility.yul\":15708:15726   */\n      add\n        /* \"#utility.yul\":15700:15726   */\n      swap1\n      pop\n        /* \"#utility.yul\":15772:15781   */\n      dup2\n        /* \"#utility.yul\":15766:15770   */\n      dup2\n        /* \"#utility.yul\":15762:15782   */\n      sub\n        /* \"#utility.yul\":15758:15759   */\n      0x00\n        /* \"#utility.yul\":15747:15756   */\n      dup4\n        /* \"#utility.yul\":15743:15760   */\n      add\n        /* \"#utility.yul\":15736:15783   */\n      mstore\n        /* \"#utility.yul\":15800:15931   */\n      tag_609\n        /* \"#utility.yul\":15926:15930   */\n      dup2\n        /* \"#utility.yul\":15800:15931   */\n      tag_490\n      jump\t// in\n    tag_609:\n        /* \"#utility.yul\":15792:15931   */\n      swap1\n      pop\n        /* \"#utility.yul\":15519:15938   */\n      swap2\n      swap1\n      pop\n      jump\t// out\n        /* \"#utility.yul\":15944:16363   */\n    tag_376:\n        /* \"#utility.yul\":16110:16114   */\n      0x00\n        /* \"#utility.yul\":16148:16150   */\n      0x20\n        /* \"#utility.yul\":16137:16146   */\n      dup3\n        /* \"#utility.yul\":16133:16151   */\n      add\n        /* \"#utility.yul\":16125:16151   */\n      swap1\n      pop\n        /* \"#utility.yul\":16197:16206   */\n      dup2\n        /* \"#utility.yul\":16191:16195   */\n      dup2\n        /* \"#utility.yul\":16187:16207   */\n      sub\n        /* \"#utility.yul\":16183:16184   */\n      0x00\n        /* \"#utility.yul\":16172:16181   */\n      dup4\n        /* \"#utility.yul\":16168:16185   */\n      add\n        /* \"#utility.yul\":16161:16208   */\n      mstore\n        /* \"#utility.yul\":16225:16356   */\n      tag_611\n        /* \"#utility.yul\":16351:16355   */\n      dup2\n        /* \"#utility.yul\":16225:16356   */\n      tag_495\n      jump\t// in\n    tag_611:\n        /* \"#utility.yul\":16217:16356   */\n      swap1\n      pop\n        /* \"#utility.yul\":15944:16363   */\n      swap2\n      swap1\n      pop\n      jump\t// out\n        /* \"#utility.yul\":16369:16788   */\n    tag_156:\n        /* \"#utility.yul\":16535:16539   */\n      0x00\n        /* \"#utility.yul\":16573:16575   */\n      0x20\n        /* \"#utility.yul\":16562:16571   */\n      dup3\n        /* \"#utility.yul\":16558:16576   */\n      add\n        /* \"#utility.yul\":16550:16576   */\n      swap1\n      pop\n        /* \"#utility.yul\":16622:16631   */\n      dup2\n        /* \"#utility.yul\":16616:16620   */\n      dup2\n        /* \"#utility.yul\":16612:16632   */\n      sub\n        /* \"#utility.yul\":16608:16609   */\n      0x00\n        /* \"#utility.yul\":16597:16606   */\n      dup4\n        /* \"#utility.yul\":16593:16610   */\n      add\n        /* \"#utility.yul\":16586:16633   */\n      mstore\n        /* \"#utility.yul\":16650:16781   */\n      tag_613\n        /* \"#utility.yul\":16776:16780   */\n      dup2\n        /* \"#utility.yul\":16650:16781   */\n      tag_505\n      jump\t// in\n    tag_613:\n        /* \"#utility.yul\":16642:16781   */\n      swap1\n      pop\n        /* \"#utility.yul\":16369:16788   */\n      swap2\n      swap1\n      pop\n      jump\t// out\n        /* \"#utility.yul\":16794:17213   */\n    tag_161:\n        /* \"#utility.yul\":16960:16964   */\n      0x00\n        /* \"#utility.yul\":16998:17000   */\n      0x20\n        /* \"#utility.yul\":16987:16996   */\n      dup3\n        /* \"#utility.yul\":16983:17001   */\n      add\n        /* \"#utility.yul\":16975:17001   */\n      swap1\n      pop\n        /* \"#utility.yul\":17047:17056   */\n      dup2\n        /* \"#utility.yul\":17041:17045   */\n      dup2\n        /* \"#utility.yul\":17037:17057   */\n      sub\n        /* \"#utility.yul\":17033:17034   */\n      0x00\n        /* \"#utility.yul\":17022:17031   */\n      dup4\n        /* \"#utility.yul\":17018:17035   */\n      add\n        /* \"#utility.yul\":17011:17058   */\n      mstore\n        /* \"#utility.yul\":17075:17206   */\n      tag_615\n        /* \"#utility.yul\":17201:17205   */\n      dup2\n        /* \"#utility.yul\":17075:17206   */\n      tag_515\n      jump\t// in\n    tag_615:\n        /* \"#utility.yul\":17067:17206   */\n      swap1\n      pop\n        /* \"#utility.yul\":16794:17213   */\n      swap2\n      swap1\n      pop\n      jump\t// out\n        /* \"#utility.yul\":17219:17638   */\n    tag_109:\n        /* \"#utility.yul\":17385:17389   */\n      0x00\n        /* \"#utility.yul\":17423:17425   */\n      0x20\n        /* \"#utility.yul\":17412:17421   */\n      dup3\n        /* \"#utility.yul\":17408:17426   */\n      add\n        /* \"#utility.yul\":17400:17426   */\n      swap1\n      pop\n        /* \"#utility.yul\":17472:17481   */\n      dup2\n        /* \"#utility.yul\":17466:17470   */\n      dup2\n        /* \"#utility.yul\":17462:17482   */\n      sub\n        /* \"#utility.yul\":17458:17459   */\n      0x00\n        /* \"#utility.yul\":17447:17456   */\n      dup4\n        /* \"#utility.yul\":17443:17460   */\n      add\n        /* \"#utility.yul\":17436:17483   */\n      mstore\n        /* \"#utility.yul\":17500:17631   */\n      tag_617\n        /* \"#utility.yul\":17626:17630   */\n      dup2\n        /* \"#utility.yul\":17500:17631   */\n      tag_520\n      jump\t// in\n    tag_617:\n        /* \"#utility.yul\":17492:17631   */\n      swap1\n      pop\n        /* \"#utility.yul\":17219:17638   */\n      swap2\n      swap1\n      pop\n      jump\t// out\n        /* \"#utility.yul\":17644:18063   */\n    tag_233:\n        /* \"#utility.yul\":17810:17814   */\n      0x00\n        /* \"#utility.yul\":17848:17850   */\n      0x20\n        /* \"#utility.yul\":17837:17846   */\n      dup3\n        /* \"#utility.yul\":17833:17851   */\n      add\n        /* \"#utility.yul\":17825:17851   */\n      swap1\n      pop\n        /* \"#utility.yul\":17897:17906   */\n      dup2\n        /* \"#utility.yul\":17891:17895   */\n      dup2\n        /* \"#utility.yul\":17887:17907   */\n      sub\n        /* \"#utility.yul\":17883:17884   */\n      0x00\n        /* \"#utility.yul\":17872:17881   */\n      dup4\n        /* \"#utility.yul\":17868:17885   */\n      add\n        /* \"#utility.yul\":17861:17908   */\n      mstore\n        /* \"#utility.yul\":17925:18056   */\n      tag_619\n        /* \"#utility.yul\":18051:18055   */\n      dup2\n        /* \"#utility.yul\":17925:18056   */\n      tag_525\n      jump\t// in\n    tag_619:\n        /* \"#utility.yul\":17917:18056   */\n      swap1\n      pop\n        /* \"#utility.yul\":17644:18063   */\n      swap2\n      swap1\n      pop\n      jump\t// out\n        /* \"#utility.yul\":18069:18488   */\n    tag_150:\n        /* \"#utility.yul\":18235:18239   */\n      0x00\n        /* \"#utility.yul\":18273:18275   */\n      0x20\n        /* \"#utility.yul\":18262:18271   */\n      dup3\n        /* \"#utility.yul\":18258:18276   */\n      add\n        /* \"#utility.yul\":18250:18276   */\n      swap1\n      pop\n        /* \"#utility.yul\":18322:18331   */\n      dup2\n        /* \"#utility.yul\":18316:18320   */\n      dup2\n        /* \"#utility.yul\":18312:18332   */\n      sub\n        /* \"#utility.yul\":18308:18309   */\n      0x00\n        /* \"#utility.yul\":18297:18306   */\n      dup4\n        /* \"#utility.yul\":18293:18310   */\n      add\n        /* \"#utility.yul\":18286:18333   */\n      mstore\n        /* \"#utility.yul\":18350:18481   */\n      tag_621\n        /* \"#utility.yul\":18476:18480   */\n      dup2\n        /* \"#utility.yul\":18350:18481   */\n      tag_530\n      jump\t// in\n    tag_621:\n        /* \"#utility.yul\":18342:18481   */\n      swap1\n      pop\n        /* \"#utility.yul\":18069:18488   */\n      swap2\n      swap1\n      pop\n      jump\t// out\n        /* \"#utility.yul\":18494:18913   */\n    tag_95:\n        /* \"#utility.yul\":18660:18664   */\n      0x00\n        /* \"#utility.yul\":18698:18700   */\n      0x20\n        /* \"#utility.yul\":18687:18696   */\n      dup3\n        /* \"#utility.yul\":18683:18701   */\n      add\n        /* \"#utility.yul\":18675:18701   */\n      swap1\n      pop\n        /* \"#utility.yul\":18747:18756   */\n      dup2\n        /* \"#utility.yul\":18741:18745   */\n      dup2\n        /* \"#utility.yul\":18737:18757   */\n      sub\n        /* \"#utility.yul\":18733:18734   */\n      0x00\n        /* \"#utility.yul\":18722:18731   */\n      dup4\n        /* \"#utility.yul\":18718:18735   */\n      add\n        /* \"#utility.yul\":18711:18758   */\n      mstore\n        /* \"#utility.yul\":18775:18906   */\n      tag_623\n        /* \"#utility.yul\":18901:18905   */\n      dup2\n        /* \"#utility.yul\":18775:18906   */\n      tag_535\n      jump\t// in\n    tag_623:\n        /* \"#utility.yul\":18767:18906   */\n      swap1\n      pop\n        /* \"#utility.yul\":18494:18913   */\n      swap2\n      swap1\n      pop\n      jump\t// out\n        /* \"#utility.yul\":18919:19338   */\n    tag_145:\n        /* \"#utility.yul\":19085:19089   */\n      0x00\n        /* \"#utility.yul\":19123:19125   */\n      0x20\n        /* \"#utility.yul\":19112:19121   */\n      dup3\n        /* \"#utility.yul\":19108:19126   */\n      add\n        /* \"#utility.yul\":19100:19126   */\n      swap1\n      pop\n        /* \"#utility.yul\":19172:19181   */\n      dup2\n        /* \"#utility.yul\":19166:19170   */\n      dup2\n        /* \"#utility.yul\":19162:19182   */\n      sub\n        /* \"#utility.yul\":19158:19159   */\n      0x00\n        /* \"#utility.yul\":19147:19156   */\n      dup4\n        /* \"#utility.yul\":19143:19160   */\n      add\n        /* \"#utility.yul\":19136:19183   */\n      mstore\n        /* \"#utility.yul\":19200:19331   */\n      tag_625\n        /* \"#utility.yul\":19326:19330   */\n      dup2\n        /* \"#utility.yul\":19200:19331   */\n      tag_540\n      jump\t// in\n    tag_625:\n        /* \"#utility.yul\":19192:19331   */\n      swap1\n      pop\n        /* \"#utility.yul\":18919:19338   */\n      swap2\n      swap1\n      pop\n      jump\t// out\n        /* \"#utility.yul\":19344:19763   */\n    tag_117:\n        /* \"#utility.yul\":19510:19514   */\n      0x00\n        /* \"#utility.yul\":19548:19550   */\n      0x20\n        /* \"#utility.yul\":19537:19546   */\n      dup3\n        /* \"#utility.yul\":19533:19551   */\n      add\n        /* \"#utility.yul\":19525:19551   */\n      swap1\n      pop\n        /* \"#utility.yul\":19597:19606   */\n      dup2\n        /* \"#utility.yul\":19591:19595   */\n      dup2\n        /* \"#utility.yul\":19587:19607   */\n      sub\n        /* \"#utility.yul\":19583:19584   */\n      0x00\n        /* \"#utility.yul\":19572:19581   */\n      dup4\n        /* \"#utility.yul\":19568:19585   */\n      add\n        /* \"#utility.yul\":19561:19608   */\n      mstore\n        /* \"#utility.yul\":19625:19756   */\n      tag_627\n        /* \"#utility.yul\":19751:19755   */\n      dup2\n        /* \"#utility.yul\":19625:19756   */\n      tag_545\n      jump\t// in\n    tag_627:\n        /* \"#utility.yul\":19617:19756   */\n      swap1\n      pop\n        /* \"#utility.yul\":19344:19763   */\n      swap2\n      swap1\n      pop\n      jump\t// out\n        /* \"#utility.yul\":19769:20188   */\n    tag_153:\n        /* \"#utility.yul\":19935:19939   */\n      0x00\n        /* \"#utility.yul\":19973:19975   */\n      0x20\n        /* \"#utility.yul\":19962:19971   */\n      dup3\n        /* \"#utility.yul\":19958:19976   */\n      add\n        /* \"#utility.yul\":19950:19976   */\n      swap1\n      pop\n        /* \"#utility.yul\":20022:20031   */\n      dup2\n        /* \"#utility.yul\":20016:20020   */\n      dup2\n        /* \"#utility.yul\":20012:20032   */\n      sub\n        /* \"#utility.yul\":20008:20009   */\n      0x00\n        /* \"#utility.yul\":19997:20006   */\n      dup4\n        /* \"#utility.yul\":19993:20010   */\n      add\n        /* \"#utility.yul\":19986:20033   */\n      mstore\n        /* \"#utility.yul\":20050:20181   */\n      tag_629\n        /* \"#utility.yul\":20176:20180   */\n      dup2\n        /* \"#utility.yul\":20050:20181   */\n      tag_550\n      jump\t// in\n    tag_629:\n        /* \"#utility.yul\":20042:20181   */\n      swap1\n      pop\n        /* \"#utility.yul\":19769:20188   */\n      swap2\n      swap1\n      pop\n      jump\t// out\n        /* \"#utility.yul\":20194:20613   */\n    tag_99:\n        /* \"#utility.yul\":20360:20364   */\n      0x00\n        /* \"#utility.yul\":20398:20400   */\n      0x20\n        /* \"#utility.yul\":20387:20396   */\n      dup3\n        /* \"#utility.yul\":20383:20401   */\n      add\n        /* \"#utility.yul\":20375:20401   */\n      swap1\n      pop\n        /* \"#utility.yul\":20447:20456   */\n      dup2\n        /* \"#utility.yul\":20441:20445   */\n      dup2\n        /* \"#utility.yul\":20437:20457   */\n      sub\n        /* \"#utility.yul\":20433:20434   */\n      0x00\n        /* \"#utility.yul\":20422:20431   */\n      dup4\n        /* \"#utility.yul\":20418:20435   */\n      add\n        /* \"#utility.yul\":20411:20458   */\n      mstore\n        /* \"#utility.yul\":20475:20606   */\n      tag_631\n        /* \"#utility.yul\":20601:20605   */\n      dup2\n        /* \"#utility.yul\":20475:20606   */\n      tag_560\n      jump\t// in\n    tag_631:\n        /* \"#utility.yul\":20467:20606   */\n      swap1\n      pop\n        /* \"#utility.yul\":20194:20613   */\n      swap2\n      swap1\n      pop\n      jump\t// out\n        /* \"#utility.yul\":20619:21038   */\n    tag_309:\n        /* \"#utility.yul\":20785:20789   */\n      0x00\n        /* \"#utility.yul\":20823:20825   */\n      0x20\n        /* \"#utility.yul\":20812:20821   */\n      dup3\n        /* \"#utility.yul\":20808:20826   */\n      add\n        /* \"#utility.yul\":20800:20826   */\n      swap1\n      pop\n        /* \"#utility.yul\":20872:20881   */\n      dup2\n        /* \"#utility.yul\":20866:20870   */\n      dup2\n        /* \"#utility.yul\":20862:20882   */\n      sub\n        /* \"#utility.yul\":20858:20859   */\n      0x00\n        /* \"#utility.yul\":20847:20856   */\n      dup4\n        /* \"#utility.yul\":20843:20860   */\n      add\n        /* \"#utility.yul\":20836:20883   */\n      mstore\n        /* \"#utility.yul\":20900:21031   */\n      tag_633\n        /* \"#utility.yul\":21026:21030   */\n      dup2\n        /* \"#utility.yul\":20900:21031   */\n      tag_565\n      jump\t// in\n    tag_633:\n        /* \"#utility.yul\":20892:21031   */\n      swap1\n      pop\n        /* \"#utility.yul\":20619:21038   */\n      swap2\n      swap1\n      pop\n      jump\t// out\n        /* \"#utility.yul\":21044:21266   */\n    tag_24:\n        /* \"#utility.yul\":21137:21141   */\n      0x00\n        /* \"#utility.yul\":21175:21177   */\n      0x20\n        /* \"#utility.yul\":21164:21173   */\n      dup3\n        /* \"#utility.yul\":21160:21178   */\n      add\n        /* \"#utility.yul\":21152:21178   */\n      swap1\n      pop\n        /* \"#utility.yul\":21188:21259   */\n      tag_635\n        /* \"#utility.yul\":21256:21257   */\n      0x00\n        /* \"#utility.yul\":21245:21254   */\n      dup4\n        /* \"#utility.yul\":21241:21258   */\n      add\n        /* \"#utility.yul\":21232:21238   */\n      dup5\n        /* \"#utility.yul\":21188:21259   */\n      tag_573\n      jump\t// in\n    tag_635:\n        /* \"#utility.yul\":21044:21266   */\n      swap3\n      swap2\n      pop\n      pop\n      jump\t// out\n        /* \"#utility.yul\":21272:21695   */\n    tag_37:\n        /* \"#utility.yul\":21413:21417   */\n      0x00\n        /* \"#utility.yul\":21451:21453   */\n      0x40\n        /* \"#utility.yul\":21440:21449   */\n      dup3\n        /* \"#utility.yul\":21436:21454   */\n      add\n        /* \"#utility.yul\":21428:21454   */\n      swap1\n      pop\n        /* \"#utility.yul\":21464:21535   */\n      tag_637\n        /* \"#utility.yul\":21532:21533   */\n      0x00\n        /* \"#utility.yul\":21521:21530   */\n      dup4\n        /* \"#utility.yul\":21517:21534   */\n      add\n        /* \"#utility.yul\":21508:21514   */\n      dup6\n        /* \"#utility.yul\":21464:21535   */\n      tag_573\n      jump\t// in\n    tag_637:\n        /* \"#utility.yul\":21582:21591   */\n      dup2\n        /* \"#utility.yul\":21576:21580   */\n      dup2\n        /* \"#utility.yul\":21572:21592   */\n      sub\n        /* \"#utility.yul\":21567:21569   */\n      0x20\n        /* \"#utility.yul\":21556:21565   */\n      dup4\n        /* \"#utility.yul\":21552:21570   */\n      add\n        /* \"#utility.yul\":21545:21593   */\n      mstore\n        /* \"#utility.yul\":21610:21688   */\n      tag_638\n        /* \"#utility.yul\":21683:21687   */\n      dup2\n        /* \"#utility.yul\":21674:21680   */\n      dup5\n        /* \"#utility.yul\":21610:21688   */\n      tag_474\n      jump\t// in\n    tag_638:\n        /* \"#utility.yul\":21602:21688   */\n      swap1\n      pop\n        /* \"#utility.yul\":21272:21695   */\n      swap4\n      swap3\n      pop\n      pop\n      pop\n      jump\t// out\n        /* \"#utility.yul\":21701:22033   */\n    tag_318:\n        /* \"#utility.yul\":21822:21826   */\n      0x00\n        /* \"#utility.yul\":21860:21862   */\n      0x40\n        /* \"#utility.yul\":21849:21858   */\n      dup3\n        /* \"#utility.yul\":21845:21863   */\n      add\n        /* \"#utility.yul\":21837:21863   */\n      swap1\n      pop\n        /* \"#utility.yul\":21873:21944   */\n      tag_640\n        /* \"#utility.yul\":21941:21942   */\n      0x00\n        /* \"#utility.yul\":21930:21939   */\n      dup4\n        /* \"#utility.yul\":21926:21943   */\n      add\n        /* \"#utility.yul\":21917:21923   */\n      dup6\n        /* \"#utility.yul\":21873:21944   */\n      tag_573\n      jump\t// in\n    tag_640:\n        /* \"#utility.yul\":21954:22026   */\n      tag_641\n        /* \"#utility.yul\":22022:22024   */\n      0x20\n        /* \"#utility.yul\":22011:22020   */\n      dup4\n        /* \"#utility.yul\":22007:22025   */\n      add\n        /* \"#utility.yul\":21998:22004   */\n      dup5\n        /* \"#utility.yul\":21954:22026   */\n      tag_573\n      jump\t// in\n    tag_641:\n        /* \"#utility.yul\":21701:22033   */\n      swap4\n      swap3\n      pop\n      pop\n      pop\n      jump\t// out\n        /* \"#utility.yul\":22039:22481   */\n    tag_53:\n        /* \"#utility.yul\":22188:22192   */\n      0x00\n        /* \"#utility.yul\":22226:22228   */\n      0x60\n        /* \"#utility.yul\":22215:22224   */\n      dup3\n        /* \"#utility.yul\":22211:22229   */\n      add\n        /* \"#utility.yul\":22203:22229   */\n      swap1\n      pop\n        /* \"#utility.yul\":22239:22310   */\n      tag_643\n        /* \"#utility.yul\":22307:22308   */\n      0x00\n        /* \"#utility.yul\":22296:22305   */\n      dup4\n        /* \"#utility.yul\":22292:22309   */\n      add\n        /* \"#utility.yul\":22283:22289   */\n      dup7\n        /* \"#utility.yul\":22239:22310   */\n      tag_573\n      jump\t// in\n    tag_643:\n        /* \"#utility.yul\":22320:22392   */\n      tag_644\n        /* \"#utility.yul\":22388:22390   */\n      0x20\n        /* \"#utility.yul\":22377:22386   */\n      dup4\n        /* \"#utility.yul\":22373:22391   */\n      add\n        /* \"#utility.yul\":22364:22370   */\n      dup6\n        /* \"#utility.yul\":22320:22392   */\n      tag_573\n      jump\t// in\n    tag_644:\n        /* \"#utility.yul\":22402:22474   */\n      tag_645\n        /* \"#utility.yul\":22470:22472   */\n      0x40\n        /* \"#utility.yul\":22459:22468   */\n      dup4\n        /* \"#utility.yul\":22455:22473   */\n      add\n        /* \"#utility.yul\":22446:22452   */\n      dup5\n        /* \"#utility.yul\":22402:22474   */\n      tag_573\n      jump\t// in\n    tag_645:\n        /* \"#utility.yul\":22039:22481   */\n      swap5\n      swap4\n      pop\n      pop\n      pop\n      pop\n      jump\t// out\n        /* \"#utility.yul\":22487:22562   */\n    tag_646:\n        /* \"#utility.yul\":22520:22526   */\n      0x00\n        /* \"#utility.yul\":22553:22555   */\n      0x40\n        /* \"#utility.yul\":22547:22556   */\n      mload\n        /* \"#utility.yul\":22537:22556   */\n      swap1\n      pop\n        /* \"#utility.yul\":22487:22562   */\n      swap1\n      jump\t// out\n        /* \"#utility.yul\":22568:22700   */\n    tag_463:\n        /* \"#utility.yul\":22635:22639   */\n      0x00\n        /* \"#utility.yul\":22658:22661   */\n      dup2\n        /* \"#utility.yul\":22650:22661   */\n      swap1\n      pop\n        /* \"#utility.yul\":22688:22692   */\n      0x20\n        /* \"#utility.yul\":22683:22686   */\n      dup3\n        /* \"#utility.yul\":22679:22693   */\n      add\n        /* \"#utility.yul\":22671:22693   */\n      swap1\n      pop\n        /* \"#utility.yul\":22568:22700   */\n      swap2\n      swap1\n      pop\n      jump\t// out\n        /* \"#utility.yul\":22706:22820   */\n    tag_459:\n        /* \"#utility.yul\":22773:22779   */\n      0x00\n        /* \"#utility.yul\":22807:22812   */\n      dup2\n        /* \"#utility.yul\":22801:22813   */\n      mload\n        /* \"#utility.yul\":22791:22813   */\n      swap1\n      pop\n        /* \"#utility.yul\":22706:22820   */\n      swap2\n      swap1\n      pop\n      jump\t// out\n        /* \"#utility.yul\":22826:22925   */\n    tag_477:\n        /* \"#utility.yul\":22878:22884   */\n      0x00\n        /* \"#utility.yul\":22912:22917   */\n      dup2\n        /* \"#utility.yul\":22906:22918   */\n      mload\n        /* \"#utility.yul\":22896:22918   */\n      swap1\n      pop\n        /* \"#utility.yul\":22826:22925   */\n      swap2\n      swap1\n      pop\n      jump\t// out\n        /* \"#utility.yul\":22931:23044   */\n    tag_469:\n        /* \"#utility.yul\":23001:23005   */\n      0x00\n        /* \"#utility.yul\":23033:23037   */\n      0x20\n        /* \"#utility.yul\":23028:23031   */\n      dup3\n        /* \"#utility.yul\":23024:23038   */\n      add\n        /* \"#utility.yul\":23016:23038   */\n      swap1\n      pop\n        /* \"#utility.yul\":22931:23044   */\n      swap2\n      swap1\n      pop\n      jump\t// out\n        /* \"#utility.yul\":23050:23234   */\n    tag_461:\n        /* \"#utility.yul\":23149:23160   */\n      0x00\n        /* \"#utility.yul\":23183:23189   */\n      dup3\n        /* \"#utility.yul\":23178:23181   */\n      dup3\n        /* \"#utility.yul\":23171:23190   */\n      mstore\n        /* \"#utility.yul\":23223:23227   */\n      0x20\n        /* \"#utility.yul\":23218:23221   */\n      dup3\n        /* \"#utility.yul\":23214:23228   */\n      add\n        /* \"#utility.yul\":23199:23228   */\n      swap1\n      pop\n        /* \"#utility.yul\":23050:23234   */\n      swap3\n      swap2\n      pop\n      pop\n      jump\t// out\n        /* \"#utility.yul\":23240:23409   */\n    tag_479:\n        /* \"#utility.yul\":23324:23335   */\n      0x00\n        /* \"#utility.yul\":23358:23364   */\n      dup3\n        /* \"#utility.yul\":23353:23356   */\n      dup3\n        /* \"#utility.yul\":23346:23365   */\n      mstore\n        /* \"#utility.yul\":23398:23402   */\n      0x20\n        /* \"#utility.yul\":23393:23396   */\n      dup3\n        /* \"#utility.yul\":23389:23403   */\n      add\n        /* \"#utility.yul\":23374:23403   */\n      swap1\n      pop\n        /* \"#utility.yul\":23240:23409   */\n      swap3\n      swap2\n      pop\n      pop\n      jump\t// out\n        /* \"#utility.yul\":23415:23563   */\n    tag_488:\n        /* \"#utility.yul\":23517:23528   */\n      0x00\n        /* \"#utility.yul\":23554:23557   */\n      dup2\n        /* \"#utility.yul\":23539:23557   */\n      swap1\n      pop\n        /* \"#utility.yul\":23415:23563   */\n      swap3\n      swap2\n      pop\n      pop\n      jump\t// out\n        /* \"#utility.yul\":23569:23874   */\n    tag_251:\n        /* \"#utility.yul\":23609:23612   */\n      0x00\n        /* \"#utility.yul\":23628:23648   */\n      tag_656\n        /* \"#utility.yul\":23646:23647   */\n      dup3\n        /* \"#utility.yul\":23628:23648   */\n      tag_572\n      jump\t// in\n    tag_656:\n        /* \"#utility.yul\":23623:23648   */\n      swap2\n      pop\n        /* \"#utility.yul\":23662:23682   */\n      tag_657\n        /* \"#utility.yul\":23680:23681   */\n      dup4\n        /* \"#utility.yul\":23662:23682   */\n      tag_572\n      jump\t// in\n    tag_657:\n        /* \"#utility.yul\":23657:23682   */\n      swap3\n      pop\n        /* \"#utility.yul\":23816:23817   */\n      dup3\n        /* \"#utility.yul\":23748:23814   */\n      0xffffffffffffffffffffffffffffffffffffffffffffffffffffffffffffffff\n        /* \"#utility.yul\":23744:23818   */\n      sub\n        /* \"#utility.yul\":23741:23742   */\n      dup3\n        /* \"#utility.yul\":23738:23819   */\n      gt\n        /* \"#utility.yul\":23735:23842   */\n      iszero\n      tag_658\n      jumpi\n        /* \"#utility.yul\":23822:23840   */\n      tag_659\n      tag_660\n      jump\t// in\n    tag_659:\n        /* \"#utility.yul\":23735:23842   */\n    tag_658:\n        /* \"#utility.yul\":23866:23867   */\n      dup3\n        /* \"#utility.yul\":23863:23864   */\n      dup3\n        /* \"#utility.yul\":23859:23868   */\n      add\n        /* \"#utility.yul\":23852:23868   */\n      swap1\n      pop\n        /* \"#utility.yul\":23569:23874   */\n      swap3\n      swap2\n      pop\n      pop\n      jump\t// out\n        /* \"#utility.yul\":23880:24065   */\n    tag_329:\n        /* \"#utility.yul\":23920:23921   */\n      0x00\n        /* \"#utility.yul\":23937:23957   */\n      tag_662\n        /* \"#utility.yul\":23955:23956   */\n      dup3\n        /* \"#utility.yul\":23937:23957   */\n      tag_572\n      jump\t// in\n    tag_662:\n        /* \"#utility.yul\":23932:23957   */\n      swap2\n      pop\n        /* \"#utility.yul\":23971:23991   */\n      tag_663\n        /* \"#utility.yul\":23989:23990   */\n      dup4\n        /* \"#utility.yul\":23971:23991   */\n      tag_572\n      jump\t// in\n    tag_663:\n        /* \"#utility.yul\":23966:23991   */\n      swap3\n      pop\n        /* \"#utility.yul\":24010:24011   */\n      dup3\n        /* \"#utility.yul\":24000:24035   */\n      tag_664\n      jumpi\n        /* \"#utility.yul\":24015:24033   */\n      tag_665\n      tag_666\n      jump\t// in\n    tag_665:\n        /* \"#utility.yul\":24000:24035   */\n    tag_664:\n        /* \"#utility.yul\":24057:24058   */\n      dup3\n        /* \"#utility.yul\":24054:24055   */\n      dup3\n        /* \"#utility.yul\":24050:24059   */\n      div\n        /* \"#utility.yul\":24045:24059   */\n      swap1\n      pop\n        /* \"#utility.yul\":23880:24065   */\n      swap3\n      swap2\n      pop\n      pop\n      jump\t// out\n        /* \"#utility.yul\":24071:24419   */\n    tag_158:\n        /* \"#utility.yul\":24111:24118   */\n      0x00\n        /* \"#utility.yul\":24134:24154   */\n      tag_668\n        /* \"#utility.yul\":24152:24153   */\n      dup3\n        /* \"#utility.yul\":24134:24154   */\n      tag_572\n      jump\t// in\n    tag_668:\n        /* \"#utility.yul\":24129:24154   */\n      swap2\n      pop\n        /* \"#utility.yul\":24168:24188   */\n      tag_669\n        /* \"#utility.yul\":24186:24187   */\n      dup4\n        /* \"#utility.yul\":24168:24188   */\n      tag_572\n      jump\t// in\n    tag_669:\n        /* \"#utility.yul\":24163:24188   */\n      swap3\n      pop\n        /* \"#utility.yul\":24356:24357   */\n      dup2\n        /* \"#utility.yul\":24288:24354   */\n      0xffffffffffffffffffffffffffffffffffffffffffffffffffffffffffffffff\n        /* \"#utility.yul\":24284:24358   */\n      div\n        /* \"#utility.yul\":24281:24282   */\n      dup4\n        /* \"#utility.yul\":24278:24359   */\n      gt\n        /* \"#utility.yul\":24273:24274   */\n      dup3\n        /* \"#utility.yul\":24266:24275   */\n      iszero\n        /* \"#utility.yul\":24259:24276   */\n      iszero\n        /* \"#utility.yul\":24255:24360   */\n      and\n        /* \"#utility.yul\":24252:24383   */\n      iszero\n      tag_670\n      jumpi\n        /* \"#utility.yul\":24363:24381   */\n      tag_671\n      tag_660\n      jump\t// in\n    tag_671:\n        /* \"#utility.yul\":24252:24383   */\n    tag_670:\n        /* \"#utility.yul\":24411:24412   */\n      dup3\n        /* \"#utility.yul\":24408:24409   */\n      dup3\n        /* \"#utility.yul\":24404:24413   */\n      mul\n        /* \"#utility.yul\":24393:24413   */\n      swap1\n      pop\n        /* \"#utility.yul\":24071:24419   */\n      swap3\n      swap2\n      pop\n      pop\n      jump\t// out\n        /* \"#utility.yul\":24425:24616   */\n    tag_337:\n        /* \"#utility.yul\":24465:24469   */\n      0x00\n        /* \"#utility.yul\":24485:24505   */\n      tag_673\n        /* \"#utility.yul\":24503:24504   */\n      dup3\n        /* \"#utility.yul\":24485:24505   */\n      tag_572\n      jump\t// in\n    tag_673:\n        /* \"#utility.yul\":24480:24505   */\n      swap2\n      pop\n        /* \"#utility.yul\":24519:24539   */\n      tag_674\n        /* \"#utility.yul\":24537:24538   */\n      dup4\n        /* \"#utility.yul\":24519:24539   */\n      tag_572\n      jump\t// in\n    tag_674:\n        /* \"#utility.yul\":24514:24539   */\n      swap3\n      pop\n        /* \"#utility.yul\":24558:24559   */\n      dup3\n        /* \"#utility.yul\":24555:24556   */\n      dup3\n        /* \"#utility.yul\":24552:24560   */\n      lt\n        /* \"#utility.yul\":24549:24583   */\n      iszero\n      tag_675\n      jumpi\n        /* \"#utility.yul\":24563:24581   */\n      tag_676\n      tag_660\n      jump\t// in\n    tag_676:\n        /* \"#utility.yul\":24549:24583   */\n    tag_675:\n        /* \"#utility.yul\":24608:24609   */\n      dup3\n        /* \"#utility.yul\":24605:24606   */\n      dup3\n        /* \"#utility.yul\":24601:24610   */\n      sub\n        /* \"#utility.yul\":24593:24610   */\n      swap1\n      pop\n        /* \"#utility.yul\":24425:24616   */\n      swap3\n      swap2\n      pop\n      pop\n      jump\t// out\n        /* \"#utility.yul\":24622:24718   */\n    tag_450:\n        /* \"#utility.yul\":24659:24666   */\n      0x00\n        /* \"#utility.yul\":24688:24712   */\n      tag_678\n        /* \"#utility.yul\":24706:24711   */\n      dup3\n        /* \"#utility.yul\":24688:24712   */\n      tag_679\n      jump\t// in\n    tag_678:\n        /* \"#utility.yul\":24677:24712   */\n      swap1\n      pop\n        /* \"#utility.yul\":24622:24718   */\n      swap2\n      swap1\n      pop\n      jump\t// out\n        /* \"#utility.yul\":24724:24828   */\n    tag_441:\n        /* \"#utility.yul\":24769:24776   */\n      0x00\n        /* \"#utility.yul\":24798:24822   */\n      tag_681\n        /* \"#utility.yul\":24816:24821   */\n      dup3\n        /* \"#utility.yul\":24798:24822   */\n      tag_679\n      jump\t// in\n    tag_681:\n        /* \"#utility.yul\":24787:24822   */\n      swap1\n      pop\n        /* \"#utility.yul\":24724:24828   */\n      swap2\n      swap1\n      pop\n      jump\t// out\n        /* \"#utility.yul\":24834:24924   */\n    tag_473:\n        /* \"#utility.yul\":24868:24875   */\n      0x00\n        /* \"#utility.yul\":24911:24916   */\n      dup2\n        /* \"#utility.yul\":24904:24917   */\n      iszero\n        /* \"#utility.yul\":24897:24918   */\n      iszero\n        /* \"#utility.yul\":24886:24918   */\n      swap1\n      pop\n        /* \"#utility.yul\":24834:24924   */\n      swap2\n      swap1\n      pop\n      jump\t// out\n        /* \"#utility.yul\":24930:25079   */\n    tag_683:\n        /* \"#utility.yul\":24966:24973   */\n      0x00\n        /* \"#utility.yul\":25006:25072   */\n      0xffffffff00000000000000000000000000000000000000000000000000000000\n        /* \"#utility.yul\":24999:25004   */\n      dup3\n        /* \"#utility.yul\":24995:25073   */\n      and\n        /* \"#utility.yul\":24984:25073   */\n      swap1\n      pop\n        /* \"#utility.yul\":24930:25079   */\n      swap2\n      swap1\n      pop\n      jump\t// out\n        /* \"#utility.yul\":25085:25211   */\n    tag_679:\n        /* \"#utility.yul\":25122:25129   */\n      0x00\n        /* \"#utility.yul\":25162:25204   */\n      0xffffffffffffffffffffffffffffffffffffffff\n        /* \"#utility.yul\":25155:25160   */\n      dup3\n        /* \"#utility.yul\":25151:25205   */\n      and\n        /* \"#utility.yul\":25140:25205   */\n      swap1\n      pop\n        /* \"#utility.yul\":25085:25211   */\n      swap2\n      swap1\n      pop\n      jump\t// out\n        /* \"#utility.yul\":25217:25294   */\n    tag_572:\n        /* \"#utility.yul\":25254:25261   */\n      0x00\n        /* \"#utility.yul\":25283:25288   */\n      dup2\n        /* \"#utility.yul\":25272:25288   */\n      swap1\n      pop\n        /* \"#utility.yul\":25217:25294   */\n      swap2\n      swap1\n      pop\n      jump\t// out\n        /* \"#utility.yul\":25300:25607   */\n    tag_481:\n        /* \"#utility.yul\":25368:25369   */\n      0x00\n        /* \"#utility.yul\":25378:25491   */\n    tag_688:\n        /* \"#utility.yul\":25392:25398   */\n      dup4\n        /* \"#utility.yul\":25389:25390   */\n      dup2\n        /* \"#utility.yul\":25386:25399   */\n      lt\n        /* \"#utility.yul\":25378:25491   */\n      iszero\n      tag_690\n      jumpi\n        /* \"#utility.yul\":25477:25478   */\n      dup1\n        /* \"#utility.yul\":25472:25475   */\n      dup3\n        /* \"#utility.yul\":25468:25479   */\n      add\n        /* \"#utility.yul\":25462:25480   */\n      mload\n        /* \"#utility.yul\":25458:25459   */\n      dup2\n        /* \"#utility.yul\":25453:25456   */\n      dup5\n        /* \"#utility.yul\":25449:25460   */\n      add\n        /* \"#utility.yul\":25442:25481   */\n      mstore\n        /* \"#utility.yul\":25414:25416   */\n      0x20\n        /* \"#utility.yul\":25411:25412   */\n      dup2\n        /* \"#utility.yul\":25407:25417   */\n      add\n        /* \"#utility.yul\":25402:25417   */\n      swap1\n      pop\n        /* \"#utility.yul\":25378:25491   */\n      jump(tag_688)\n    tag_690:\n        /* \"#utility.yul\":25509:25515   */\n      dup4\n        /* \"#utility.yul\":25506:25507   */\n      dup2\n        /* \"#utility.yul\":25503:25516   */\n      gt\n        /* \"#utility.yul\":25500:25601   */\n      iszero\n      tag_691\n      jumpi\n        /* \"#utility.yul\":25589:25590   */\n      0x00\n        /* \"#utility.yul\":25580:25586   */\n      dup5\n        /* \"#utility.yul\":25575:25578   */\n      dup5\n        /* \"#utility.yul\":25571:25587   */\n      add\n        /* \"#utility.yul\":25564:25591   */\n      mstore\n        /* \"#utility.yul\":25500:25601   */\n    tag_691:\n        /* \"#utility.yul\":25349:25607   */\n      pop\n        /* \"#utility.yul\":25300:25607   */\n      pop\n      pop\n      pop\n      jump\t// out\n        /* \"#utility.yul\":25613:25933   */\n    tag_125:\n        /* \"#utility.yul\":25657:25663   */\n      0x00\n        /* \"#utility.yul\":25694:25695   */\n      0x02\n        /* \"#utility.yul\":25688:25692   */\n      dup3\n        /* \"#utility.yul\":25684:25696   */\n      div\n        /* \"#utility.yul\":25674:25696   */\n      swap1\n      pop\n        /* \"#utility.yul\":25741:25742   */\n      0x01\n        /* \"#utility.yul\":25735:25739   */\n      dup3\n        /* \"#utility.yul\":25731:25743   */\n      and\n        /* \"#utility.yul\":25762:25780   */\n      dup1\n        /* \"#utility.yul\":25752:25833   */\n      tag_693\n      jumpi\n        /* \"#utility.yul\":25818:25822   */\n      0x7f\n        /* \"#utility.yul\":25810:25816   */\n      dup3\n        /* \"#utility.yul\":25806:25823   */\n      and\n        /* \"#utility.yul\":25796:25823   */\n      swap2\n      pop\n        /* \"#utility.yul\":25752:25833   */\n    tag_693:\n        /* \"#utility.yul\":25880:25882   */\n      0x20\n        /* \"#utility.yul\":25872:25878   */\n      dup3\n        /* \"#utility.yul\":25869:25883   */\n      lt\n        /* \"#utility.yul\":25849:25867   */\n      dup2\n        /* \"#utility.yul\":25846:25884   */\n      eq\n        /* \"#utility.yul\":25843:25927   */\n      iszero\n      tag_694\n      jumpi\n        /* \"#utility.yul\":25899:25917   */\n      tag_695\n      tag_696\n      jump\t// in\n    tag_695:\n        /* \"#utility.yul\":25843:25927   */\n    tag_694:\n        /* \"#utility.yul\":25664:25933   */\n      pop\n        /* \"#utility.yul\":25613:25933   */\n      swap2\n      swap1\n      pop\n      jump\t// out\n        /* \"#utility.yul\":25939:26220   */\n    tag_697:\n        /* \"#utility.yul\":26022:26049   */\n      tag_699\n        /* \"#utility.yul\":26044:26048   */\n      dup3\n        /* \"#utility.yul\":26022:26049   */\n      tag_483\n      jump\t// in\n    tag_699:\n        /* \"#utility.yul\":26014:26020   */\n      dup2\n        /* \"#utility.yul\":26010:26050   */\n      add\n        /* \"#utility.yul\":26152:26158   */\n      dup2\n        /* \"#utility.yul\":26140:26150   */\n      dup2\n        /* \"#utility.yul\":26137:26159   */\n      lt\n        /* \"#utility.yul\":26116:26134   */\n      0xffffffffffffffff\n        /* \"#utility.yul\":26104:26114   */\n      dup3\n        /* \"#utility.yul\":26101:26135   */\n      gt\n        /* \"#utility.yul\":26098:26160   */\n      or\n        /* \"#utility.yul\":26095:26183   */\n      iszero\n      tag_700\n      jumpi\n        /* \"#utility.yul\":26163:26181   */\n      tag_701\n      tag_332\n      jump\t// in\n    tag_701:\n        /* \"#utility.yul\":26095:26183   */\n    tag_700:\n        /* \"#utility.yul\":26203:26213   */\n      dup1\n        /* \"#utility.yul\":26199:26201   */\n      0x40\n        /* \"#utility.yul\":26192:26214   */\n      mstore\n        /* \"#utility.yul\":25982:26220   */\n      pop\n        /* \"#utility.yul\":25939:26220   */\n      pop\n      pop\n      jump\t// out\n        /* \"#utility.yul\":26226:26459   */\n    tag_132:\n        /* \"#utility.yul\":26265:26268   */\n      0x00\n        /* \"#utility.yul\":26288:26312   */\n      tag_703\n        /* \"#utility.yul\":26306:26311   */\n      dup3\n        /* \"#utility.yul\":26288:26312   */\n      tag_572\n      jump\t// in\n    tag_703:\n        /* \"#utility.yul\":26279:26312   */\n      swap2\n      pop\n        /* \"#utility.yul\":26334:26400   */\n      0xffffffffffffffffffffffffffffffffffffffffffffffffffffffffffffffff\n        /* \"#utility.yul\":26327:26332   */\n      dup3\n        /* \"#utility.yul\":26324:26401   */\n      eq\n        /* \"#utility.yul\":26321:26424   */\n      iszero\n      tag_704\n      jumpi\n        /* \"#utility.yul\":26404:26422   */\n      tag_705\n      tag_660\n      jump\t// in\n    tag_705:\n        /* \"#utility.yul\":26321:26424   */\n    tag_704:\n        /* \"#utility.yul\":26451:26452   */\n      0x01\n        /* \"#utility.yul\":26444:26449   */\n      dup3\n        /* \"#utility.yul\":26440:26453   */\n      add\n        /* \"#utility.yul\":26433:26453   */\n      swap1\n      pop\n        /* \"#utility.yul\":26226:26459   */\n      swap2\n      swap1\n      pop\n      jump\t// out\n        /* \"#utility.yul\":26465:26565   */\n    tag_455:\n        /* \"#utility.yul\":26504:26511   */\n      0x00\n        /* \"#utility.yul\":26533:26559   */\n      tag_707\n        /* \"#utility.yul\":26553:26558   */\n      dup3\n        /* \"#utility.yul\":26533:26559   */\n      tag_708\n      jump\t// in\n    tag_707:\n        /* \"#utility.yul\":26522:26559   */\n      swap1\n      pop\n        /* \"#utility.yul\":26465:26565   */\n      swap2\n      swap1\n      pop\n      jump\t// out\n        /* \"#utility.yul\":26571:26679   */\n    tag_446:\n        /* \"#utility.yul\":26618:26625   */\n      0x00\n        /* \"#utility.yul\":26647:26673   */\n      tag_710\n        /* \"#utility.yul\":26667:26672   */\n      dup3\n        /* \"#utility.yul\":26647:26673   */\n      tag_708\n      jump\t// in\n    tag_710:\n        /* \"#utility.yul\":26636:26673   */\n      swap1\n      pop\n        /* \"#utility.yul\":26571:26679   */\n      swap2\n      swap1\n      pop\n      jump\t// out\n        /* \"#utility.yul\":26685:26779   */\n    tag_708:\n        /* \"#utility.yul\":26724:26731   */\n      0x00\n        /* \"#utility.yul\":26753:26773   */\n      tag_712\n        /* \"#utility.yul\":26767:26772   */\n      dup3\n        /* \"#utility.yul\":26753:26773   */\n      tag_713\n      jump\t// in\n    tag_712:\n        /* \"#utility.yul\":26742:26773   */\n      swap1\n      pop\n        /* \"#utility.yul\":26685:26779   */\n      swap2\n      swap1\n      pop\n      jump\t// out\n        /* \"#utility.yul\":26785:26864   */\n    tag_580:\n        /* \"#utility.yul\":26824:26831   */\n      0x00\n        /* \"#utility.yul\":26853:26858   */\n      dup2\n        /* \"#utility.yul\":26842:26858   */\n      swap1\n      pop\n        /* \"#utility.yul\":26785:26864   */\n      swap2\n      swap1\n      pop\n      jump\t// out\n        /* \"#utility.yul\":26870:27046   */\n    tag_258:\n        /* \"#utility.yul\":26902:26903   */\n      0x00\n        /* \"#utility.yul\":26919:26939   */\n      tag_716\n        /* \"#utility.yul\":26937:26938   */\n      dup3\n        /* \"#utility.yul\":26919:26939   */\n      tag_572\n      jump\t// in\n    tag_716:\n        /* \"#utility.yul\":26914:26939   */\n      swap2\n      pop\n        /* \"#utility.yul\":26953:26973   */\n      tag_717\n        /* \"#utility.yul\":26971:26972   */\n      dup4\n        /* \"#utility.yul\":26953:26973   */\n      tag_572\n      jump\t// in\n    tag_717:\n        /* \"#utility.yul\":26948:26973   */\n      swap3\n      pop\n        /* \"#utility.yul\":26992:26993   */\n      dup3\n        /* \"#utility.yul\":26982:27017   */\n      tag_718\n      jumpi\n        /* \"#utility.yul\":26997:27015   */\n      tag_719\n      tag_666\n      jump\t// in\n    tag_719:\n        /* \"#utility.yul\":26982:27017   */\n    tag_718:\n        /* \"#utility.yul\":27038:27039   */\n      dup3\n        /* \"#utility.yul\":27035:27036   */\n      dup3\n        /* \"#utility.yul\":27031:27040   */\n      mod\n        /* \"#utility.yul\":27026:27040   */\n      swap1\n      pop\n        /* \"#utility.yul\":26870:27046   */\n      swap3\n      swap2\n      pop\n      pop\n      jump\t// out\n        /* \"#utility.yul\":27052:27232   */\n    tag_660:\n        /* \"#utility.yul\":27100:27177   */\n      0x4e487b7100000000000000000000000000000000000000000000000000000000\n        /* \"#utility.yul\":27097:27098   */\n      0x00\n        /* \"#utility.yul\":27090:27178   */\n      mstore\n        /* \"#utility.yul\":27197:27201   */\n      0x11\n        /* \"#utility.yul\":27194:27195   */\n      0x04\n        /* \"#utility.yul\":27187:27202   */\n      mstore\n        /* \"#utility.yul\":27221:27225   */\n      0x24\n        /* \"#utility.yul\":27218:27219   */\n      0x00\n        /* \"#utility.yul\":27211:27226   */\n      revert\n        /* \"#utility.yul\":27238:27418   */\n    tag_666:\n        /* \"#utility.yul\":27286:27363   */\n      0x4e487b7100000000000000000000000000000000000000000000000000000000\n        /* \"#utility.yul\":27283:27284   */\n      0x00\n        /* \"#utility.yul\":27276:27364   */\n      mstore\n        /* \"#utility.yul\":27383:27387   */\n      0x12\n        /* \"#utility.yul\":27380:27381   */\n      0x04\n        /* \"#utility.yul\":27373:27388   */\n      mstore\n        /* \"#utility.yul\":27407:27411   */\n      0x24\n        /* \"#utility.yul\":27404:27405   */\n      0x00\n        /* \"#utility.yul\":27397:27412   */\n      revert\n        /* \"#utility.yul\":27424:27604   */\n    tag_696:\n        /* \"#utility.yul\":27472:27549   */\n      0x4e487b7100000000000000000000000000000000000000000000000000000000\n        /* \"#utility.yul\":27469:27470   */\n      0x00\n        /* \"#utility.yul\":27462:27550   */\n      mstore\n        /* \"#utility.yul\":27569:27573   */\n      0x22\n        /* \"#utility.yul\":27566:27567   */\n      0x04\n        /* \"#utility.yul\":27559:27574   */\n      mstore\n        /* \"#utility.yul\":27593:27597   */\n      0x24\n        /* \"#utility.yul\":27590:27591   */\n      0x00\n        /* \"#utility.yul\":27583:27598   */\n      revert\n        /* \"#utility.yul\":27610:27790   */\n    tag_265:\n        /* \"#utility.yul\":27658:27735   */\n      0x4e487b7100000000000000000000000000000000000000000000000000000000\n        /* \"#utility.yul\":27655:27656   */\n      0x00\n        /* \"#utility.yul\":27648:27736   */\n      mstore\n        /* \"#utility.yul\":27755:27759   */\n      0x32\n        /* \"#utility.yul\":27752:27753   */\n      0x04\n        /* \"#utility.yul\":27745:27760   */\n      mstore\n        /* \"#utility.yul\":27779:27783   */\n      0x24\n        /* \"#utility.yul\":27776:27777   */\n      0x00\n        /* \"#utility.yul\":27769:27784   */\n      revert\n        /* \"#utility.yul\":27796:27976   */\n    tag_332:\n        /* \"#utility.yul\":27844:27921   */\n      0x4e487b7100000000000000000000000000000000000000000000000000000000\n        /* \"#utility.yul\":27841:27842   */\n      0x00\n        /* \"#utility.yul\":27834:27922   */\n      mstore\n        /* \"#utility.yul\":27941:27945   */\n      0x41\n        /* \"#utility.yul\":27938:27939   */\n      0x04\n        /* \"#utility.yul\":27931:27946   */\n      mstore\n        /* \"#utility.yul\":27965:27969   */\n      0x24\n        /* \"#utility.yul\":27962:27963   */\n      0x00\n        /* \"#utility.yul\":27955:27970   */\n      revert\n        /* \"#utility.yul\":27982:28165   */\n    tag_365:\n        /* \"#utility.yul\":28017:28020   */\n      0x00\n        /* \"#utility.yul\":28055:28056   */\n      0x03\n        /* \"#utility.yul\":28037:28053   */\n      returndatasize\n        /* \"#utility.yul\":28034:28057   */\n      gt\n        /* \"#utility.yul\":28031:28159   */\n      iszero\n      tag_726\n      jumpi\n        /* \"#utility.yul\":28093:28094   */\n      0x04\n        /* \"#utility.yul\":28090:28091   */\n      0x00\n        /* \"#utility.yul\":28087:28088   */\n      dup1\n        /* \"#utility.yul\":28072:28095   */\n      returndatacopy\n        /* \"#utility.yul\":28115:28149   */\n      tag_727\n        /* \"#utility.yul\":28146:28147   */\n      0x00\n        /* \"#utility.yul\":28140:28148   */\n      mload\n        /* \"#utility.yul\":28115:28149   */\n      tag_728\n      jump\t// in\n    tag_727:\n        /* \"#utility.yul\":28108:28149   */\n      swap1\n      pop\n        /* \"#utility.yul\":28031:28159   */\n    tag_726:\n        /* \"#utility.yul\":27982:28165   */\n      swap1\n      jump\t// out\n        /* \"#utility.yul\":28294:28411   */\n    tag_415:\n        /* \"#utility.yul\":28403:28404   */\n      0x00\n        /* \"#utility.yul\":28400:28401   */\n      dup1\n        /* \"#utility.yul\":28393:28405   */\n      revert\n        /* \"#utility.yul\":28417:28519   */\n    tag_483:\n        /* \"#utility.yul\":28458:28464   */\n      0x00\n        /* \"#utility.yul\":28509:28511   */\n      0x1f\n        /* \"#utility.yul\":28505:28512   */\n      not\n        /* \"#utility.yul\":28500:28502   */\n      0x1f\n        /* \"#utility.yul\":28493:28498   */\n      dup4\n        /* \"#utility.yul\":28489:28503   */\n      add\n        /* \"#utility.yul\":28485:28513   */\n      and\n        /* \"#utility.yul\":28475:28513   */\n      swap1\n      pop\n        /* \"#utility.yul\":28417:28519   */\n      swap2\n      swap1\n      pop\n      jump\t// out\n        /* \"#utility.yul\":28525:28619   */\n    tag_713:\n        /* \"#utility.yul\":28558:28566   */\n      0x00\n        /* \"#utility.yul\":28606:28611   */\n      dup2\n        /* \"#utility.yul\":28602:28604   */\n      0x60\n        /* \"#utility.yul\":28598:28612   */\n      shl\n        /* \"#utility.yul\":28577:28612   */\n      swap1\n      pop\n        /* \"#utility.yul\":28525:28619   */\n      swap2\n      swap1\n      pop\n      jump\t// out\n        /* \"#utility.yul\":28625:28731   */\n    tag_728:\n        /* \"#utility.yul\":28669:28677   */\n      0x00\n        /* \"#utility.yul\":28718:28723   */\n      dup2\n        /* \"#utility.yul\":28713:28716   */\n      0xe0\n        /* \"#utility.yul\":28709:28724   */\n      shr\n        /* \"#utility.yul\":28688:28724   */\n      swap1\n      pop\n        /* \"#utility.yul\":28625:28731   */\n      swap2\n      swap1\n      pop\n      jump\t// out\n        /* \"#utility.yul\":28737:28976   */\n    tag_494:\n        /* \"#utility.yul\":28877:28911   */\n      0x455243313135353a207472616e7366657220746f206e6f6e2045524331313535\n        /* \"#utility.yul\":28873:28874   */\n      0x00\n        /* \"#utility.yul\":28865:28871   */\n      dup3\n        /* \"#utility.yul\":28861:28875   */\n      add\n        /* \"#utility.yul\":28854:28912   */\n      mstore\n        /* \"#utility.yul\":28946:28968   */\n      0x526563656976657220696d706c656d656e746572000000000000000000000000\n        /* \"#utility.yul\":28941:28943   */\n      0x20\n        /* \"#utility.yul\":28933:28939   */\n      dup3\n        /* \"#utility.yul\":28929:28944   */\n      add\n        /* \"#utility.yul\":28922:28969   */\n      mstore\n        /* \"#utility.yul\":28737:28976   */\n      pop\n      jump\t// out\n        /* \"#utility.yul\":28982:29209   */\n    tag_499:\n        /* \"#utility.yul\":29122:29156   */\n      0x455243313135353a204552433131353552656365697665722072656a65637465\n        /* \"#utility.yul\":29118:29119   */\n      0x00\n        /* \"#utility.yul\":29110:29116   */\n      dup3\n        /* \"#utility.yul\":29106:29120   */\n      add\n        /* \"#utility.yul\":29099:29157   */\n      mstore\n        /* \"#utility.yul\":29191:29201   */\n      0x6420746f6b656e73000000000000000000000000000000000000000000000000\n        /* \"#utility.yul\":29186:29188   */\n      0x20\n        /* \"#utility.yul\":29178:29184   */\n      dup3\n        /* \"#utility.yul\":29174:29189   */\n      add\n        /* \"#utility.yul\":29167:29202   */\n      mstore\n        /* \"#utility.yul\":28982:29209   */\n      pop\n      jump\t// out\n        /* \"#utility.yul\":29215:29373   */\n    tag_504:\n        /* \"#utility.yul\":29355:29365   */\n      0x4469616d6f6e645f000000000000000000000000000000000000000000000000\n        /* \"#utility.yul\":29351:29352   */\n      0x00\n        /* \"#utility.yul\":29343:29349   */\n      dup3\n        /* \"#utility.yul\":29339:29353   */\n      add\n        /* \"#utility.yul\":29332:29366   */\n      mstore\n        /* \"#utility.yul\":29215:29373   */\n      pop\n      jump\t// out\n        /* \"#utility.yul\":29379:29545   */\n    tag_509:\n        /* \"#utility.yul\":29519:29537   */\n      0x4d696e7420466565204e6f742053657400000000000000000000000000000000\n        /* \"#utility.yul\":29515:29516   */\n      0x00\n        /* \"#utility.yul\":29507:29513   */\n      dup3\n        /* \"#utility.yul\":29503:29517   */\n      add\n        /* \"#utility.yul\":29496:29538   */\n      mstore\n        /* \"#utility.yul\":29379:29545   */\n      pop\n      jump\t// out\n        /* \"#utility.yul\":29551:29706   */\n    tag_514:\n        /* \"#utility.yul\":29691:29698   */\n      0x476f6c645f000000000000000000000000000000000000000000000000000000\n        /* \"#utility.yul\":29687:29688   */\n      0x00\n        /* \"#utility.yul\":29679:29685   */\n      dup3\n        /* \"#utility.yul\":29675:29689   */\n      add\n        /* \"#utility.yul\":29668:29699   */\n      mstore\n        /* \"#utility.yul\":29551:29706   */\n      pop\n      jump\t// out\n        /* \"#utility.yul\":29712:29880   */\n    tag_519:\n        /* \"#utility.yul\":29852:29872   */\n      0x4e6f7420456e6f7567682042616c616e63650000000000000000000000000000\n        /* \"#utility.yul\":29848:29849   */\n      0x00\n        /* \"#utility.yul\":29840:29846   */\n      dup3\n        /* \"#utility.yul\":29836:29850   */\n      add\n        /* \"#utility.yul\":29829:29873   */\n      mstore\n        /* \"#utility.yul\":29712:29880   */\n      pop\n      jump\t// out\n        /* \"#utility.yul\":29886:30063   */\n    tag_524:\n        /* \"#utility.yul\":30026:30055   */\n      0x44726f707369746520697320616c72656164792052756e6e696e670000000000\n        /* \"#utility.yul\":30022:30023   */\n      0x00\n        /* \"#utility.yul\":30014:30020   */\n      dup3\n        /* \"#utility.yul\":30010:30024   */\n      add\n        /* \"#utility.yul\":30003:30056   */\n      mstore\n        /* \"#utility.yul\":29886:30063   */\n      pop\n      jump\t// out\n        /* \"#utility.yul\":30069:30246   */\n    tag_529:\n        /* \"#utility.yul\":30209:30238   */\n      0x44726f707369746520697320616c72656164792053746f707065640000000000\n        /* \"#utility.yul\":30205:30206   */\n      0x00\n        /* \"#utility.yul\":30197:30203   */\n      dup3\n        /* \"#utility.yul\":30193:30207   */\n      add\n        /* \"#utility.yul\":30186:30239   */\n      mstore\n        /* \"#utility.yul\":30069:30246   */\n      pop\n      jump\t// out\n        /* \"#utility.yul\":30252:30423   */\n    tag_534:\n        /* \"#utility.yul\":30392:30415   */\n      0x596f752063616e206d696e7420312d33204e4654730000000000000000000000\n        /* \"#utility.yul\":30388:30389   */\n      0x00\n        /* \"#utility.yul\":30380:30386   */\n      dup3\n        /* \"#utility.yul\":30376:30390   */\n      add\n        /* \"#utility.yul\":30369:30416   */\n      mstore\n        /* \"#utility.yul\":30252:30423   */\n      pop\n      jump\t// out\n        /* \"#utility.yul\":30429:30607   */\n    tag_539:\n        /* \"#utility.yul\":30569:30599   */\n      0x4f6e6c79204e46542d4553204f776e65722063616e2041636365737300000000\n        /* \"#utility.yul\":30565:30566   */\n      0x00\n        /* \"#utility.yul\":30557:30563   */\n      dup3\n        /* \"#utility.yul\":30553:30567   */\n      add\n        /* \"#utility.yul\":30546:30600   */\n      mstore\n        /* \"#utility.yul\":30429:30607   */\n      pop\n      jump\t// out\n        /* \"#utility.yul\":30613:30794   */\n    tag_544:\n        /* \"#utility.yul\":30753:30786   */\n      0x4f776e65722053686f756c6420736574206d696e742046656520466972737400\n        /* \"#utility.yul\":30749:30750   */\n      0x00\n        /* \"#utility.yul\":30741:30747   */\n      dup3\n        /* \"#utility.yul\":30737:30751   */\n      add\n        /* \"#utility.yul\":30730:30787   */\n      mstore\n        /* \"#utility.yul\":30613:30794   */\n      pop\n      jump\t// out\n        /* \"#utility.yul\":30800:30977   */\n    tag_549:\n        /* \"#utility.yul\":30940:30969   */\n      0x44726f7073697465206973206e6f74204f70656e6564205965742e0000000000\n        /* \"#utility.yul\":30936:30937   */\n      0x00\n        /* \"#utility.yul\":30928:30934   */\n      dup3\n        /* \"#utility.yul\":30924:30938   */\n      add\n        /* \"#utility.yul\":30917:30970   */\n      mstore\n        /* \"#utility.yul\":30800:30977   */\n      pop\n      jump\t// out\n        /* \"#utility.yul\":30983:31158   */\n    tag_554:\n        /* \"#utility.yul\":31123:31150   */\n      0x4d6178204d696e74696e67204c696d6974207265616368656400000000000000\n        /* \"#utility.yul\":31119:31120   */\n      0x00\n        /* \"#utility.yul\":31111:31117   */\n      dup3\n        /* \"#utility.yul\":31107:31121   */\n      add\n        /* \"#utility.yul\":31100:31151   */\n      mstore\n        /* \"#utility.yul\":30983:31158   */\n      pop\n      jump\t// out\n        /* \"#utility.yul\":31164:31321   */\n    tag_559:\n        /* \"#utility.yul\":31304:31313   */\n      0x53696c7665725f00000000000000000000000000000000000000000000000000\n        /* \"#utility.yul\":31300:31301   */\n      0x00\n        /* \"#utility.yul\":31292:31298   */\n      dup3\n        /* \"#utility.yul\":31288:31302   */\n      add\n        /* \"#utility.yul\":31281:31314   */\n      mstore\n        /* \"#utility.yul\":31164:31321   */\n      pop\n      jump\t// out\n        /* \"#utility.yul\":31327:31506   */\n    tag_564:\n        /* \"#utility.yul\":31467:31498   */\n      0x4572726f7221204e6f2042616c616e636520746f207769746864726177000000\n        /* \"#utility.yul\":31463:31464   */\n      0x00\n        /* \"#utility.yul\":31455:31461   */\n      dup3\n        /* \"#utility.yul\":31451:31465   */\n      add\n        /* \"#utility.yul\":31444:31499   */\n      mstore\n        /* \"#utility.yul\":31327:31506   */\n      pop\n      jump\t// out\n        /* \"#utility.yul\":31512:31732   */\n    tag_569:\n        /* \"#utility.yul\":31652:31686   */\n      0x455243313135353a206d696e7420746f20746865207a65726f20616464726573\n        /* \"#utility.yul\":31648:31649   */\n      0x00\n        /* \"#utility.yul\":31640:31646   */\n      dup3\n        /* \"#utility.yul\":31636:31650   */\n      add\n        /* \"#utility.yul\":31629:31687   */\n      mstore\n        /* \"#utility.yul\":31721:31724   */\n      0x7300000000000000000000000000000000000000000000000000000000000000\n        /* \"#utility.yul\":31716:31718   */\n      0x20\n        /* \"#utility.yul\":31708:31714   */\n      dup3\n        /* \"#utility.yul\":31704:31719   */\n      add\n        /* \"#utility.yul\":31697:31725   */\n      mstore\n        /* \"#utility.yul\":31512:31732   */\n      pop\n      jump\t// out\n        /* \"#utility.yul\":31738:32449   */\n    tag_367:\n        /* \"#utility.yul\":31777:31780   */\n      0x00\n        /* \"#utility.yul\":31815:31819   */\n      0x44\n        /* \"#utility.yul\":31797:31813   */\n      returndatasize\n        /* \"#utility.yul\":31794:31820   */\n      lt\n        /* \"#utility.yul\":31791:31830   */\n      iszero\n      tag_752\n      jumpi\n        /* \"#utility.yul\":31823:31828   */\n      jump(tag_751)\n        /* \"#utility.yul\":31791:31830   */\n    tag_752:\n        /* \"#utility.yul\":31852:31872   */\n      tag_753\n      tag_646\n      jump\t// in\n    tag_753:\n        /* \"#utility.yul\":31927:31928   */\n      0x04\n        /* \"#utility.yul\":31909:31925   */\n      returndatasize\n        /* \"#utility.yul\":31905:31929   */\n      sub\n        /* \"#utility.yul\":31902:31903   */\n      0x04\n        /* \"#utility.yul\":31896:31900   */\n      dup3\n        /* \"#utility.yul\":31881:31930   */\n      returndatacopy\n        /* \"#utility.yul\":31960:31964   */\n      dup1\n        /* \"#utility.yul\":31954:31965   */\n      mload\n        /* \"#utility.yul\":32059:32075   */\n      returndatasize\n        /* \"#utility.yul\":32052:32056   */\n      0x24\n        /* \"#utility.yul\":32044:32050   */\n      dup3\n        /* \"#utility.yul\":32040:32057   */\n      add\n        /* \"#utility.yul\":32037:32076   */\n      gt\n        /* \"#utility.yul\":32004:32022   */\n      0xffffffffffffffff\n        /* \"#utility.yul\":31996:32002   */\n      dup3\n        /* \"#utility.yul\":31993:32023   */\n      gt\n        /* \"#utility.yul\":31977:32090   */\n      or\n        /* \"#utility.yul\":31974:32120   */\n      iszero\n      tag_754\n      jumpi\n        /* \"#utility.yul\":32105:32110   */\n      pop\n      pop\n      jump(tag_751)\n        /* \"#utility.yul\":31974:32120   */\n    tag_754:\n        /* \"#utility.yul\":32151:32157   */\n      dup1\n        /* \"#utility.yul\":32145:32149   */\n      dup3\n        /* \"#utility.yul\":32141:32158   */\n      add\n        /* \"#utility.yul\":32187:32190   */\n      dup1\n        /* \"#utility.yul\":32181:32191   */\n      mload\n        /* \"#utility.yul\":32214:32232   */\n      0xffffffffffffffff\n        /* \"#utility.yul\":32206:32212   */\n      dup2\n        /* \"#utility.yul\":32203:32233   */\n      gt\n        /* \"#utility.yul\":32200:32243   */\n      iszero\n      tag_755\n      jumpi\n        /* \"#utility.yul\":32236:32241   */\n      pop\n      pop\n      pop\n      pop\n      jump(tag_751)\n        /* \"#utility.yul\":32200:32243   */\n    tag_755:\n        /* \"#utility.yul\":32284:32290   */\n      dup1\n        /* \"#utility.yul\":32277:32281   */\n      0x20\n        /* \"#utility.yul\":32272:32275   */\n      dup4\n        /* \"#utility.yul\":32268:32282   */\n      add\n        /* \"#utility.yul\":32264:32291   */\n      add\n        /* \"#utility.yul\":32343:32344   */\n      0x04\n        /* \"#utility.yul\":32325:32341   */\n      returndatasize\n        /* \"#utility.yul\":32321:32345   */\n      sub\n        /* \"#utility.yul\":32315:32319   */\n      dup6\n        /* \"#utility.yul\":32311:32346   */\n      add\n        /* \"#utility.yul\":32306:32309   */\n      dup2\n        /* \"#utility.yul\":32303:32347   */\n      gt\n        /* \"#utility.yul\":32300:32357   */\n      iszero\n      tag_756\n      jumpi\n        /* \"#utility.yul\":32350:32355   */\n      pop\n      pop\n      pop\n      pop\n      pop\n      jump(tag_751)\n        /* \"#utility.yul\":32300:32357   */\n    tag_756:\n        /* \"#utility.yul\":32367:32424   */\n      tag_757\n        /* \"#utility.yul\":32415:32421   */\n      dup3\n        /* \"#utility.yul\":32409:32413   */\n      0x20\n        /* \"#utility.yul\":32405:32422   */\n      add\n        /* \"#utility.yul\":32397:32403   */\n      dup6\n        /* \"#utility.yul\":32393:32423   */\n      add\n        /* \"#utility.yul\":32387:32391   */\n      dup7\n        /* \"#utility.yul\":32367:32424   */\n      tag_697\n      jump\t// in\n    tag_757:\n        /* \"#utility.yul\":32440:32443   */\n      dup3\n        /* \"#utility.yul\":32433:32443   */\n      swap6\n      pop\n        /* \"#utility.yul\":31781:32449   */\n      pop\n      pop\n      pop\n      pop\n      pop\n        /* \"#utility.yul\":31738:32449   */\n    tag_751:\n      swap1\n      jump\t// out\n        /* \"#utility.yul\":32455:32577   */\n    tag_399:\n        /* \"#utility.yul\":32528:32552   */\n      tag_759\n        /* \"#utility.yul\":32546:32551   */\n      dup2\n        /* \"#utility.yul\":32528:32552   */\n      tag_450\n      jump\t// in\n    tag_759:\n        /* \"#utility.yul\":32521:32526   */\n      dup2\n        /* \"#utility.yul\":32518:32553   */\n      eq\n        /* \"#utility.yul\":32508:32571   */\n      tag_760\n      jumpi\n        /* \"#utility.yul\":32567:32568   */\n      0x00\n        /* \"#utility.yul\":32564:32565   */\n      dup1\n        /* \"#utility.yul\":32557:32569   */\n      revert\n        /* \"#utility.yul\":32508:32571   */\n    tag_760:\n        /* \"#utility.yul\":32455:32577   */\n      pop\n      jump\t// out\n        /* \"#utility.yul\":32583:32721   */\n    tag_403:\n        /* \"#utility.yul\":32664:32696   */\n      tag_762\n        /* \"#utility.yul\":32690:32695   */\n      dup2\n        /* \"#utility.yul\":32664:32696   */\n      tag_441\n      jump\t// in\n    tag_762:\n        /* \"#utility.yul\":32657:32662   */\n      dup2\n        /* \"#utility.yul\":32654:32697   */\n      eq\n        /* \"#utility.yul\":32644:32715   */\n      tag_763\n      jumpi\n        /* \"#utility.yul\":32711:32712   */\n      0x00\n        /* \"#utility.yul\":32708:32709   */\n      dup1\n        /* \"#utility.yul\":32701:32713   */\n      revert\n        /* \"#utility.yul\":32644:32715   */\n    tag_763:\n        /* \"#utility.yul\":32583:32721   */\n      pop\n      jump\t// out\n        /* \"#utility.yul\":32727:32847   */\n    tag_407:\n        /* \"#utility.yul\":32799:32822   */\n      tag_765\n        /* \"#utility.yul\":32816:32821   */\n      dup2\n        /* \"#utility.yul\":32799:32822   */\n      tag_683\n      jump\t// in\n    tag_765:\n        /* \"#utility.yul\":32792:32797   */\n      dup2\n        /* \"#utility.yul\":32789:32823   */\n      eq\n        /* \"#utility.yul\":32779:32841   */\n      tag_766\n      jumpi\n        /* \"#utility.yul\":32837:32838   */\n      0x00\n        /* \"#utility.yul\":32834:32835   */\n      dup1\n        /* \"#utility.yul\":32827:32839   */\n      revert\n        /* \"#utility.yul\":32779:32841   */\n    tag_766:\n        /* \"#utility.yul\":32727:32847   */\n      pop\n      jump\t// out\n        /* \"#utility.yul\":32853:32975   */\n    tag_411:\n        /* \"#utility.yul\":32926:32950   */\n      tag_768\n        /* \"#utility.yul\":32944:32949   */\n      dup2\n        /* \"#utility.yul\":32926:32950   */\n      tag_572\n      jump\t// in\n    tag_768:\n        /* \"#utility.yul\":32919:32924   */\n      dup2\n        /* \"#utility.yul\":32916:32951   */\n      eq\n        /* \"#utility.yul\":32906:32969   */\n      tag_769\n      jumpi\n        /* \"#utility.yul\":32965:32966   */\n      0x00\n        /* \"#utility.yul\":32962:32963   */\n      dup1\n        /* \"#utility.yul\":32955:32967   */\n      revert\n        /* \"#utility.yul\":32906:32969   */\n    tag_769:\n        /* \"#utility.yul\":32853:32975   */\n      pop\n      jump\t// out\n\n    auxdata: 0xa264697066735822122057217ff2e5e9a3c0dd515f95e38cddf0a79809673fd6c82c392413abe0d8ca9f64736f6c63430008070033\n}\n",
				"bytecode": {
					"linkReferences": {},
					"object": "608060405260405180602001604052806000815250600290805190602001906200002b929190620001e8565b50604051806102800160405280600060ff168152602001600160ff168152602001600160ff168152602001600260ff168152602001600260ff168152602001600260ff168152602001600260ff168152602001600260ff168152602001600260ff168152602001600260ff168152602001600260ff168152602001600260ff168152602001600260ff168152602001600260ff168152602001600260ff168152602001600260ff168152602001600260ff168152602001600260ff168152602001600260ff168152602001600260ff1681525060039060146200011092919062000279565b506001600c60006101000a81548160ff0219169083151502179055503480156200013957600080fd5b506040516200364d3803806200364d83398181016040528101906200015f9190620003b7565b80600d908051906020019062000177929190620001e8565b5033600c60016101000a81548173ffffffffffffffffffffffffffffffffffffffff021916908373ffffffffffffffffffffffffffffffffffffffff16021790555060006004819055506001600581905550600060078190555060006008819055506000600981905550506200058c565b828054620001f6906200049d565b90600052602060002090601f0160209004810192826200021a576000855562000266565b82601f106200023557805160ff191683800117855562000266565b8280016001018555821562000266579182015b828111156200026557825182559160200191906001019062000248565b5b5090506200027591906200031a565b5090565b826014601f01602090048101928215620003075791602002820160005b83821115620002d657835183826101000a81548160ff021916908360ff160217905550926020019260010160208160000104928301926001030262000296565b8015620003055782816101000a81549060ff0219169055600101602081600001049283019260010302620002d6565b505b5090506200031691906200031a565b5090565b5b80821115620003355760008160009055506001016200031b565b5090565b6000620003506200034a8462000431565b62000408565b9050828152602081018484840111156200036f576200036e6200056c565b5b6200037c84828562000467565b509392505050565b600082601f8301126200039c576200039b62000567565b5b8151620003ae84826020860162000339565b91505092915050565b600060208284031215620003d057620003cf62000576565b5b600082015167ffffffffffffffff811115620003f157620003f062000571565b5b620003ff8482850162000384565b91505092915050565b60006200041462000427565b9050620004228282620004d3565b919050565b6000604051905090565b600067ffffffffffffffff8211156200044f576200044e62000538565b5b6200045a826200057b565b9050602081019050919050565b60005b83811015620004875780820151818401526020810190506200046a565b8381111562000497576000848401525b50505050565b60006002820490506001821680620004b657607f821691505b60208210811415620004cd57620004cc62000509565b5b50919050565b620004de826200057b565b810181811067ffffffffffffffff821117156200050057620004ff62000538565b5b80604052505050565b7f4e487b7100000000000000000000000000000000000000000000000000000000600052602260045260246000fd5b7f4e487b7100000000000000000000000000000000000000000000000000000000600052604160045260246000fd5b600080fd5b600080fd5b600080fd5b600080fd5b6000601f19601f8301169050919050565b6130b1806200059c6000396000f3fe6080604052600436106100e85760003560e01c80637a5caab31161008a578063b187bd2611610059578063b187bd26146102ac578063b4a99a4e146102d7578063eddd0d9c14610302578063fd6c3b1b1461032b576100e8565b80637a5caab3146102165780638b7afe2e14610241578063a6f9dae11461026c578063aa90c72614610295576100e8565b8063546fd992116100c6578063546fd9921461014b5780635b27d84e1461017c5780635e1f0556146101ac57806360daa851146101e9576100e8565b80630390c11c146100ed5780630a67d2c7146101185780631546025914610134575b600080fd5b3480156100f957600080fd5b50610102610368565b60405161010f919061274a565b60405180910390f35b610132600480360381019061012d9190611fcc565b610372565b005b34801561014057600080fd5b5061014961049c565b005b61016560048036038101906101609190611f9f565b6105a6565b604051610173929190612765565b60405180910390f35b61019660048036038101906101919190611ff9565b610863565b6040516101a3919061254b565b60405180910390f35b3480156101b857600080fd5b506101d360048036038101906101ce9190611ff9565b610afd565b6040516101e0919061254b565b60405180910390f35b3480156101f557600080fd5b506101fe610dd0565b60405161020d939291906127be565b60405180910390f35b34801561022257600080fd5b5061022b610ed6565b604051610238919061274a565b60405180910390f35b34801561024d57600080fd5b50610256610fcd565b604051610263919061274a565b60405180910390f35b34801561027857600080fd5b50610293600480360381019061028e9190611f9f565b61106c565b005b3480156102a157600080fd5b506102aa61119d565b005b3480156102b857600080fd5b506102c16112a7565b6040516102ce919061256d565b60405180910390f35b3480156102e357600080fd5b506102ec6112ba565b6040516102f991906124d6565b60405180910390f35b34801561030e57600080fd5b5061032960048036038101906103249190612066565b6112e0565b005b34801561033757600080fd5b50610352600480360381019061034d9190611f9f565b6113d7565b60405161035f919061254b565b60405180910390f35b6000600454905090565b600c60019054906101000a900473ffffffffffffffffffffffffffffffffffffffff1673ffffffffffffffffffffffffffffffffffffffff166103b36114c7565b73ffffffffffffffffffffffffffffffffffffffff1614610409576040517f08c379a00000000000000000000000000000000000000000000000000000000081526004016104009061268a565b60405180910390fd5b600047905060008111610451576040517f08c379a00000000000000000000000000000000000000000000000000000000081526004016104489061270a565b60405180910390fd5b8173ffffffffffffffffffffffffffffffffffffffff166108fc829081150290604051600060405180830381858888f19350505050158015610497573d6000803e3d6000fd5b505050565b600c60019054906101000a900473ffffffffffffffffffffffffffffffffffffffff1673ffffffffffffffffffffffffffffffffffffffff166104dd6114c7565b73ffffffffffffffffffffffffffffffffffffffff1614610533576040517f08c379a000000000000000000000000000000000000000000000000000000000815260040161052a9061268a565b60405180910390fd5b60011515600c60009054906101000a900460ff16151514610589576040517f08c379a00000000000000000000000000000000000000000000000000000000081526004016105809061262a565b60405180910390fd5b6000600c60006101000a81548160ff021916908315150217905550565b60006060600c60019054906101000a900473ffffffffffffffffffffffffffffffffffffffff1673ffffffffffffffffffffffffffffffffffffffff166105eb6114c7565b73ffffffffffffffffffffffffffffffffffffffff1614610641576040517f08c379a00000000000000000000000000000000000000000000000000000000081526004016106389061268a565b60405180910390fd5b60001515600c60009054906101000a900460ff16151514610697576040517f08c379a000000000000000000000000000000000000000000000000000000000815260040161068e906126ca565b60405180910390fd5b60006106a16114cf565b905060006106ae8261156b565b90506107488582600554600280546106c590612a2d565b80601f01602080910402602001604051908101604052809291908181526020018280546106f190612a2d565b801561073e5780601f106107135761010080835404028352916020019161073e565b820191906000526020600020905b81548152906001019060200180831161072157829003601f168201915b505050505061184e565b6004600081548092919061075b90612a90565b9190505550600a60008673ffffffffffffffffffffffffffffffffffffffff1673ffffffffffffffffffffffffffffffffffffffff1681526020019081526020016000206000018190806001815401808255809150506001900390600052602060002001600090919091909150558060028080546107d890612a2d565b80601f016020809104026020016040519081016040528092919081815260200182805461080490612a2d565b80156108515780601f1061082657610100808354040283529160200191610851565b820191906000526020600020905b81548152906001019060200180831161083457829003601f168201915b50505050509050935093505050915091565b606060001515600c60009054906101000a900460ff161515146108bb576040517f08c379a00000000000000000000000000000000000000000000000000000000081526004016108b2906126ca565b60405180910390fd5b60006006541415610901576040517f08c379a00000000000000000000000000000000000000000000000000000000081526004016108f8906126aa565b60405180910390fd5b6004821080156109115750600082115b610950576040517f08c379a00000000000000000000000000000000000000000000000000000000081526004016109479061266a565b60405180910390fd5b6103e860045410610996576040517f08c379a000000000000000000000000000000000000000000000000000000000815260040161098d906126ea565b60405180910390fd5b600060065414156109dc576040517f08c379a00000000000000000000000000000000000000000000000000000000081526004016109d3906125ea565b60405180910390fd5b816006546109ea91906128e6565b3414610a2b576040517f08c379a0000000000000000000000000000000000000000000000000000000008152600401610a229061260a565b60405180910390fd5b60005b82811015610a5257610a3f846105a6565b505080610a4b90612a90565b9050610a2e565b50610a64610a5e6114c7565b346119e4565b600a60008473ffffffffffffffffffffffffffffffffffffffff1673ffffffffffffffffffffffffffffffffffffffff168152602001908152602001600020600001805480602002602001604051908101604052809291908181526020018280548015610af057602002820191906000526020600020905b815481526020019060010190808311610adc575b5050505050905092915050565b6060600c60019054906101000a900473ffffffffffffffffffffffffffffffffffffffff1673ffffffffffffffffffffffffffffffffffffffff16610b406114c7565b73ffffffffffffffffffffffffffffffffffffffff1614610b96576040517f08c379a0000000000000000000000000000000000000000000000000000000008152600401610b8d9061268a565b60405180910390fd5b60001515600c60009054906101000a900460ff16151514610bec576040517f08c379a0000000000000000000000000000000000000000000000000000000008152600401610be3906126ca565b60405180910390fd5b60006006541415610c32576040517f08c379a0000000000000000000000000000000000000000000000000000000008152600401610c29906126aa565b60405180910390fd5b600482108015610c425750600082115b610c81576040517f08c379a0000000000000000000000000000000000000000000000000000000008152600401610c789061266a565b60405180910390fd5b6103e860045410610cc7576040517f08c379a0000000000000000000000000000000000000000000000000000000008152600401610cbe906126ea565b60405180910390fd5b60006006541415610d0d576040517f08c379a0000000000000000000000000000000000000000000000000000000008152600401610d04906125ea565b60405180910390fd5b60005b82811015610d3657610d21846105a6565b50508080610d2e90612a90565b915050610d10565b50600a60008473ffffffffffffffffffffffffffffffffffffffff1673ffffffffffffffffffffffffffffffffffffffff168152602001908152602001600020600001805480602002602001604051908101604052809291908181526020018280548015610dc357602002820191906000526020600020905b815481526020019060010190808311610daf575b5050505050905092915050565b6000806000600c60019054906101000a900473ffffffffffffffffffffffffffffffffffffffff1673ffffffffffffffffffffffffffffffffffffffff16610e166114c7565b73ffffffffffffffffffffffffffffffffffffffff1614610e6c576040517f08c379a0000000000000000000000000000000000000000000000000000000008152600401610e639061268a565b60405180910390fd5b60001515600c60009054906101000a900460ff16151514610ec2576040517f08c379a0000000000000000000000000000000000000000000000000000000008152600401610eb9906126ca565b60405180910390fd5b600754600854600954925092509250909192565b6000600c60019054906101000a900473ffffffffffffffffffffffffffffffffffffffff1673ffffffffffffffffffffffffffffffffffffffff16610f196114c7565b73ffffffffffffffffffffffffffffffffffffffff1614610f6f576040517f08c379a0000000000000000000000000000000000000000000000000000000008152600401610f669061268a565b60405180910390fd5b60001515600c60009054906101000a900460ff16151514610fc5576040517f08c379a0000000000000000000000000000000000000000000000000000000008152600401610fbc906126ca565b60405180910390fd5b600654905090565b6000600c60019054906101000a900473ffffffffffffffffffffffffffffffffffffffff1673ffffffffffffffffffffffffffffffffffffffff166110106114c7565b73ffffffffffffffffffffffffffffffffffffffff1614611066576040517f08c379a000000000000000000000000000000000000000000000000000000000815260040161105d9061268a565b60405180910390fd5b47905090565b600c60019054906101000a900473ffffffffffffffffffffffffffffffffffffffff1673ffffffffffffffffffffffffffffffffffffffff166110ad6114c7565b73ffffffffffffffffffffffffffffffffffffffff1614611103576040517f08c379a00000000000000000000000000000000000000000000000000000000081526004016110fa9061268a565b60405180910390fd5b60001515600c60009054906101000a900460ff16151514611159576040517f08c379a0000000000000000000000000000000000000000000000000000000008152600401611150906126ca565b60405180910390fd5b80600c60016101000a81548173ffffffffffffffffffffffffffffffffffffffff021916908373ffffffffffffffffffffffffffffffffffffffff16021790555050565b600c60019054906101000a900473ffffffffffffffffffffffffffffffffffffffff1673ffffffffffffffffffffffffffffffffffffffff166111de6114c7565b73ffffffffffffffffffffffffffffffffffffffff1614611234576040517f08c379a000000000000000000000000000000000000000000000000000000000815260040161122b9061268a565b60405180910390fd5b60001515600c60009054906101000a900460ff1615151461128a576040517f08c379a00000000000000000000000000000000000000000000000000000000081526004016112819061264a565b60405180910390fd5b6001600c60006101000a81548160ff021916908315150217905550565b600c60009054906101000a900460ff1681565b600c60019054906101000a900473ffffffffffffffffffffffffffffffffffffffff1681565b600c60019054906101000a900473ffffffffffffffffffffffffffffffffffffffff1673ffffffffffffffffffffffffffffffffffffffff166113216114c7565b73ffffffffffffffffffffffffffffffffffffffff1614611377576040517f08c379a000000000000000000000000000000000000000000000000000000000815260040161136e9061268a565b60405180910390fd5b60001515600c60009054906101000a900460ff161515146113cd576040517f08c379a00000000000000000000000000000000000000000000000000000000081526004016113c4906126ca565b60405180910390fd5b8060068190555050565b606060001515600c60009054906101000a900460ff1615151461142f576040517f08c379a0000000000000000000000000000000000000000000000000000000008152600401611426906126ca565b60405180910390fd5b600a60008373ffffffffffffffffffffffffffffffffffffffff1673ffffffffffffffffffffffffffffffffffffffff1681526020019081526020016000206000018054806020026020016040519081016040528092919081815260200182805480156114bb57602002820191906000526020600020905b8154815260200190600101908083116114a7575b50505050509050919050565b600033905090565b6000806014600754600854600954600454426114eb919061285f565b6114f5919061285f565b6114ff919061285f565b611509919061285f565b33600c60019054906101000a900473ffffffffffffffffffffffffffffffffffffffff1660405160200161153f93929190612499565b6040516020818303038152906040528051906020012060001c6115629190612b19565b90508091505090565b6000801515600c60009054906101000a900460ff161515146115c2576040517f08c379a00000000000000000000000000000000000000000000000000000000081526004016115b9906126ca565b60405180910390fd5b6000600383601481106115d8576115d7612bd7565b5b602091828204019190069054906101000a900460ff1660ff16905060008114801561160557506032600754105b1561166b576007600081548092919061161d90612a90565b919050555061162d600754611a3e565b60405160200161163d9190612433565b60405160208183030381529060405260029080519060200190611661929190611e1b565b5080915050611849565b6001811115801561167e57506064600854105b156116e4576008600081548092919061169690612a90565b91905055506116a6600854611a3e565b6040516020016116b69190612455565b604051602081830303815290604052600290805190602001906116da929190611e1b565b5080915050611849565b600281111580156116f9575061035260095411155b15611778576009600081548092919061171190612a90565b9190505550611721600954611a3e565b6040516020016117319190612477565b60405160208183030381529060405260029080519060200190611755929190611e1b565b600290805461176390612a2d565b61176e929190611ea1565b5080915050611849565b606460085410156117e857600190506008600081548092919061179a90612a90565b91905055506117aa600854611a3e565b6040516020016117ba9190612455565b604051602081830303815290604052600290805190602001906117de929190611e1b565b5080915050611849565b60009050600760008154809291906117ff90612a90565b919050555061180f600754611a3e565b60405160200161181f9190612433565b60405160208183030381529060405260029080519060200190611843929190611e1b565b50809150505b919050565b600073ffffffffffffffffffffffffffffffffffffffff168473ffffffffffffffffffffffffffffffffffffffff1614156118be576040517f08c379a00000000000000000000000000000000000000000000000000000000081526004016118b59061272a565b60405180910390fd5b60006118c86114c7565b90506118e9816000876118da88611b9f565b6118e388611b9f565b87611c19565b8260008086815260200190815260200160002060008773ffffffffffffffffffffffffffffffffffffffff1673ffffffffffffffffffffffffffffffffffffffff1681526020019081526020016000206000828254611948919061285f565b925050819055508473ffffffffffffffffffffffffffffffffffffffff16600073ffffffffffffffffffffffffffffffffffffffff168273ffffffffffffffffffffffffffffffffffffffff167fc3d58168c5ae7397731d063d5bbf3d657854427343f4c083240f7aacaa2d0f6287876040516119c6929190612795565b60405180910390a46119dd81600087878787611c21565b5050505050565b80600b60008473ffffffffffffffffffffffffffffffffffffffff1673ffffffffffffffffffffffffffffffffffffffff1681526020019081526020016000206000828254611a33919061285f565b925050819055505050565b60606000821415611a86576040518060400160405280600181526020017f30000000000000000000000000000000000000000000000000000000000000008152509050611b9a565b600082905060005b60008214611ab8578080611aa190612a90565b915050600a82611ab191906128b5565b9150611a8e565b60008167ffffffffffffffff811115611ad457611ad3612c06565b5b6040519080825280601f01601f191660200182016040528015611b065781602001600182028036833780820191505090505b5090505b60008514611b9357600182611b1f9190612940565b9150600a85611b2e9190612b19565b6030611b3a919061285f565b60f81b818381518110611b5057611b4f612bd7565b5b60200101907effffffffffffffffffffffffffffffffffffffffffffffffffffffffffffff1916908160001a905350600a85611b8c91906128b5565b9450611b0a565b8093505050505b919050565b60606000600167ffffffffffffffff811115611bbe57611bbd612c06565b5b604051908082528060200260200182016040528015611bec5781602001602082028036833780820191505090505b5090508281600081518110611c0457611c03612bd7565b5b60200260200101818152505080915050919050565b505050505050565b611c408473ffffffffffffffffffffffffffffffffffffffff16611e08565b15611e00578373ffffffffffffffffffffffffffffffffffffffff1663ae89a24887878686866040518663ffffffff1660e01b8152600401611c869594939291906124f1565b602060405180830381600087803b158015611ca057600080fd5b505af1925050508015611cd157506040513d601f19601f82011682018060405250810190611cce9190612039565b60015b611d7757611cdd612c35565b806308c379a01415611d3a5750611cf2612f89565b80611cfd5750611d3c565b806040517f08c379a0000000000000000000000000000000000000000000000000000000008152600401611d319190612588565b60405180910390fd5b505b6040517f08c379a0000000000000000000000000000000000000000000000000000000008152600401611d6e906125aa565b60405180910390fd5b63ae89a24860e01b7bffffffffffffffffffffffffffffffffffffffffffffffffffffffff1916817bffffffffffffffffffffffffffffffffffffffffffffffffffffffff191614611dfe576040517f08c379a0000000000000000000000000000000000000000000000000000000008152600401611df5906125ca565b60405180910390fd5b505b505050505050565b600080823b905060008111915050919050565b828054611e2790612a2d565b90600052602060002090601f016020900481019282611e495760008555611e90565b82601f10611e6257805160ff1916838001178555611e90565b82800160010185558215611e90579182015b82811115611e8f578251825591602001919060010190611e74565b5b509050611e9d9190611f2e565b5090565b828054611ead90612a2d565b90600052602060002090601f016020900481019282611ecf5760008555611f1d565b82601f10611ee05780548555611f1d565b82800160010185558215611f1d57600052602060002091601f016020900482015b82811115611f1c578254825591600101919060010190611f01565b5b509050611f2a9190611f2e565b5090565b5b80821115611f47576000816000905550600101611f2f565b5090565b600081359050611f5a8161301f565b92915050565b600081359050611f6f81613036565b92915050565b600081519050611f848161304d565b92915050565b600081359050611f9981613064565b92915050565b600060208284031215611fb557611fb4612c57565b5b6000611fc384828501611f4b565b91505092915050565b600060208284031215611fe257611fe1612c57565b5b6000611ff084828501611f60565b91505092915050565b600080604083850312156120105761200f612c57565b5b600061201e85828601611f4b565b925050602061202f85828601611f8a565b9150509250929050565b60006020828403121561204f5761204e612c57565b5b600061205d84828501611f75565b91505092915050565b60006020828403121561207c5761207b612c57565b5b600061208a84828501611f8a565b91505092915050565b600061209f83836123fe565b60208301905092915050565b6120b481612986565b82525050565b6120cb6120c682612986565b612aeb565b82525050565b6120da81612974565b82525050565b6120f16120ec82612974565b612ad9565b82525050565b60006121028261280f565b61210c8185612832565b9350612117836127ff565b8060005b8381101561214857815161212f8882612093565b975061213a83612825565b92505060018101905061211b565b5085935050505092915050565b61215e81612998565b82525050565b600061216f8261281a565b6121798185612843565b93506121898185602086016129fa565b61219281612c5c565b840191505092915050565b60006121a88261281a565b6121b28185612854565b93506121c28185602086016129fa565b80840191505092915050565b60006121db603483612843565b91506121e682612c87565b604082019050919050565b60006121fe602883612843565b915061220982612cd6565b604082019050919050565b6000612221600883612854565b915061222c82612d25565b600882019050919050565b6000612244601083612843565b915061224f82612d4e565b602082019050919050565b6000612267600583612854565b915061227282612d77565b600582019050919050565b600061228a601283612843565b915061229582612da0565b602082019050919050565b60006122ad601b83612843565b91506122b882612dc9565b602082019050919050565b60006122d0601b83612843565b91506122db82612df2565b602082019050919050565b60006122f3601583612843565b91506122fe82612e1b565b602082019050919050565b6000612316601c83612843565b915061232182612e44565b602082019050919050565b6000612339601f83612843565b915061234482612e6d565b602082019050919050565b600061235c601b83612843565b915061236782612e96565b602082019050919050565b600061237f601983612843565b915061238a82612ebf565b602082019050919050565b60006123a2600783612854565b91506123ad82612ee8565b600782019050919050565b60006123c5601d83612843565b91506123d082612f11565b602082019050919050565b60006123e8602183612843565b91506123f382612f3a565b604082019050919050565b612407816129f0565b82525050565b612416816129f0565b82525050565b61242d612428826129f0565b612b0f565b82525050565b600061243e82612214565b915061244a828461219d565b915081905092915050565b60006124608261225a565b915061246c828461219d565b915081905092915050565b600061248282612395565b915061248e828461219d565b915081905092915050565b60006124a5828661241c565b6020820191506124b582856120e0565b6014820191506124c582846120ba565b601482019150819050949350505050565b60006020820190506124eb60008301846120ab565b92915050565b600060a08201905061250660008301886120d1565b61251360208301876120d1565b612520604083018661240d565b61252d606083018561240d565b818103608083015261253f8184612164565b90509695505050505050565b6000602082019050818103600083015261256581846120f7565b905092915050565b60006020820190506125826000830184612155565b92915050565b600060208201905081810360008301526125a28184612164565b905092915050565b600060208201905081810360008301526125c3816121ce565b9050919050565b600060208201905081810360008301526125e3816121f1565b9050919050565b6000602082019050818103600083015261260381612237565b9050919050565b600060208201905081810360008301526126238161227d565b9050919050565b60006020820190508181036000830152612643816122a0565b9050919050565b60006020820190508181036000830152612663816122c3565b9050919050565b60006020820190508181036000830152612683816122e6565b9050919050565b600060208201905081810360008301526126a381612309565b9050919050565b600060208201905081810360008301526126c38161232c565b9050919050565b600060208201905081810360008301526126e38161234f565b9050919050565b6000602082019050818103600083015261270381612372565b9050919050565b60006020820190508181036000830152612723816123b8565b9050919050565b60006020820190508181036000830152612743816123db565b9050919050565b600060208201905061275f600083018461240d565b92915050565b600060408201905061277a600083018561240d565b818103602083015261278c8184612164565b90509392505050565b60006040820190506127aa600083018561240d565b6127b7602083018461240d565b9392505050565b60006060820190506127d3600083018661240d565b6127e0602083018561240d565b6127ed604083018461240d565b949350505050565b6000604051905090565b6000819050602082019050919050565b600081519050919050565b600081519050919050565b6000602082019050919050565b600082825260208201905092915050565b600082825260208201905092915050565b600081905092915050565b600061286a826129f0565b9150612875836129f0565b9250827fffffffffffffffffffffffffffffffffffffffffffffffffffffffffffffffff038211156128aa576128a9612b4a565b5b828201905092915050565b60006128c0826129f0565b91506128cb836129f0565b9250826128db576128da612b79565b5b828204905092915050565b60006128f1826129f0565b91506128fc836129f0565b9250817fffffffffffffffffffffffffffffffffffffffffffffffffffffffffffffffff048311821515161561293557612934612b4a565b5b828202905092915050565b600061294b826129f0565b9150612956836129f0565b92508282101561296957612968612b4a565b5b828203905092915050565b600061297f826129d0565b9050919050565b6000612991826129d0565b9050919050565b60008115159050919050565b60007fffffffff0000000000000000000000000000000000000000000000000000000082169050919050565b600073ffffffffffffffffffffffffffffffffffffffff82169050919050565b6000819050919050565b60005b83811015612a185780820151818401526020810190506129fd565b83811115612a27576000848401525b50505050565b60006002820490506001821680612a4557607f821691505b60208210811415612a5957612a58612ba8565b5b50919050565b612a6882612c5c565b810181811067ffffffffffffffff82111715612a8757612a86612c06565b5b80604052505050565b6000612a9b826129f0565b91507fffffffffffffffffffffffffffffffffffffffffffffffffffffffffffffffff821415612ace57612acd612b4a565b5b600182019050919050565b6000612ae482612afd565b9050919050565b6000612af682612afd565b9050919050565b6000612b0882612c6d565b9050919050565b6000819050919050565b6000612b24826129f0565b9150612b2f836129f0565b925082612b3f57612b3e612b79565b5b828206905092915050565b7f4e487b7100000000000000000000000000000000000000000000000000000000600052601160045260246000fd5b7f4e487b7100000000000000000000000000000000000000000000000000000000600052601260045260246000fd5b7f4e487b7100000000000000000000000000000000000000000000000000000000600052602260045260246000fd5b7f4e487b7100000000000000000000000000000000000000000000000000000000600052603260045260246000fd5b7f4e487b7100000000000000000000000000000000000000000000000000000000600052604160045260246000fd5b600060033d1115612c545760046000803e612c51600051612c7a565b90505b90565b600080fd5b6000601f19601f8301169050919050565b60008160601b9050919050565b60008160e01c9050919050565b7f455243313135353a207472616e7366657220746f206e6f6e204552433131353560008201527f526563656976657220696d706c656d656e746572000000000000000000000000602082015250565b7f455243313135353a204552433131353552656365697665722072656a6563746560008201527f6420746f6b656e73000000000000000000000000000000000000000000000000602082015250565b7f4469616d6f6e645f000000000000000000000000000000000000000000000000600082015250565b7f4d696e7420466565204e6f742053657400000000000000000000000000000000600082015250565b7f476f6c645f000000000000000000000000000000000000000000000000000000600082015250565b7f4e6f7420456e6f7567682042616c616e63650000000000000000000000000000600082015250565b7f44726f707369746520697320616c72656164792052756e6e696e670000000000600082015250565b7f44726f707369746520697320616c72656164792053746f707065640000000000600082015250565b7f596f752063616e206d696e7420312d33204e4654730000000000000000000000600082015250565b7f4f6e6c79204e46542d4553204f776e65722063616e2041636365737300000000600082015250565b7f4f776e65722053686f756c6420736574206d696e742046656520466972737400600082015250565b7f44726f7073697465206973206e6f74204f70656e6564205965742e0000000000600082015250565b7f4d6178204d696e74696e67204c696d6974207265616368656400000000000000600082015250565b7f53696c7665725f00000000000000000000000000000000000000000000000000600082015250565b7f4572726f7221204e6f2042616c616e636520746f207769746864726177000000600082015250565b7f455243313135353a206d696e7420746f20746865207a65726f2061646472657360008201527f7300000000000000000000000000000000000000000000000000000000000000602082015250565b600060443d1015612f995761301c565b612fa16127f5565b60043d036004823e80513d602482011167ffffffffffffffff82111715612fc957505061301c565b808201805167ffffffffffffffff811115612fe7575050505061301c565b80602083010160043d03850181111561300457505050505061301c565b61301382602001850186612a5f565b82955050505050505b90565b61302881612974565b811461303357600080fd5b50565b61303f81612986565b811461304a57600080fd5b50565b613056816129a4565b811461306157600080fd5b50565b61306d816129f0565b811461307857600080fd5b5056fea264697066735822122057217ff2e5e9a3c0dd515f95e38cddf0a79809673fd6c82c392413abe0d8ca9f64736f6c63430008070033",
					"opcodes": "PUSH1 0x80 PUSH1 0x40 MSTORE PUSH1 0x40 MLOAD DUP1 PUSH1 0x20 ADD PUSH1 0x40 MSTORE DUP1 PUSH1 0x0 DUP2 MSTORE POP PUSH1 0x2 SWAP1 DUP1 MLOAD SWAP1 PUSH1 0x20 ADD SWAP1 PUSH3 0x2B SWAP3 SWAP2 SWAP1 PUSH3 0x1E8 JUMP JUMPDEST POP PUSH1 0x40 MLOAD DUP1 PUSH2 0x280 ADD PUSH1 0x40 MSTORE DUP1 PUSH1 0x0 PUSH1 0xFF AND DUP2 MSTORE PUSH1 0x20 ADD PUSH1 0x1 PUSH1 0xFF AND DUP2 MSTORE PUSH1 0x20 ADD PUSH1 0x1 PUSH1 0xFF AND DUP2 MSTORE PUSH1 0x20 ADD PUSH1 0x2 PUSH1 0xFF AND DUP2 MSTORE PUSH1 0x20 ADD PUSH1 0x2 PUSH1 0xFF AND DUP2 MSTORE PUSH1 0x20 ADD PUSH1 0x2 PUSH1 0xFF AND DUP2 MSTORE PUSH1 0x20 ADD PUSH1 0x2 PUSH1 0xFF AND DUP2 MSTORE PUSH1 0x20 ADD PUSH1 0x2 PUSH1 0xFF AND DUP2 MSTORE PUSH1 0x20 ADD PUSH1 0x2 PUSH1 0xFF AND DUP2 MSTORE PUSH1 0x20 ADD PUSH1 0x2 PUSH1 0xFF AND DUP2 MSTORE PUSH1 0x20 ADD PUSH1 0x2 PUSH1 0xFF AND DUP2 MSTORE PUSH1 0x20 ADD PUSH1 0x2 PUSH1 0xFF AND DUP2 MSTORE PUSH1 0x20 ADD PUSH1 0x2 PUSH1 0xFF AND DUP2 MSTORE PUSH1 0x20 ADD PUSH1 0x2 PUSH1 0xFF AND DUP2 MSTORE PUSH1 0x20 ADD PUSH1 0x2 PUSH1 0xFF AND DUP2 MSTORE PUSH1 0x20 ADD PUSH1 0x2 PUSH1 0xFF AND DUP2 MSTORE PUSH1 0x20 ADD PUSH1 0x2 PUSH1 0xFF AND DUP2 MSTORE PUSH1 0x20 ADD PUSH1 0x2 PUSH1 0xFF AND DUP2 MSTORE PUSH1 0x20 ADD PUSH1 0x2 PUSH1 0xFF AND DUP2 MSTORE PUSH1 0x20 ADD PUSH1 0x2 PUSH1 0xFF AND DUP2 MSTORE POP PUSH1 0x3 SWAP1 PUSH1 0x14 PUSH3 0x110 SWAP3 SWAP2 SWAP1 PUSH3 0x279 JUMP JUMPDEST POP PUSH1 0x1 PUSH1 0xC PUSH1 0x0 PUSH2 0x100 EXP DUP2 SLOAD DUP2 PUSH1 0xFF MUL NOT AND SWAP1 DUP4 ISZERO ISZERO MUL OR SWAP1 SSTORE POP CALLVALUE DUP1 ISZERO PUSH3 0x139 JUMPI PUSH1 0x0 DUP1 REVERT JUMPDEST POP PUSH1 0x40 MLOAD PUSH3 0x364D CODESIZE SUB DUP1 PUSH3 0x364D DUP4 CODECOPY DUP2 DUP2 ADD PUSH1 0x40 MSTORE DUP2 ADD SWAP1 PUSH3 0x15F SWAP2 SWAP1 PUSH3 0x3B7 JUMP JUMPDEST DUP1 PUSH1 0xD SWAP1 DUP1 MLOAD SWAP1 PUSH1 0x20 ADD SWAP1 PUSH3 0x177 SWAP3 SWAP2 SWAP1 PUSH3 0x1E8 JUMP JUMPDEST POP CALLER PUSH1 0xC PUSH1 0x1 PUSH2 0x100 EXP DUP2 SLOAD DUP2 PUSH20 0xFFFFFFFFFFFFFFFFFFFFFFFFFFFFFFFFFFFFFFFF MUL NOT AND SWAP1 DUP4 PUSH20 0xFFFFFFFFFFFFFFFFFFFFFFFFFFFFFFFFFFFFFFFF AND MUL OR SWAP1 SSTORE POP PUSH1 0x0 PUSH1 0x4 DUP2 SWAP1 SSTORE POP PUSH1 0x1 PUSH1 0x5 DUP2 SWAP1 SSTORE POP PUSH1 0x0 PUSH1 0x7 DUP2 SWAP1 SSTORE POP PUSH1 0x0 PUSH1 0x8 DUP2 SWAP1 SSTORE POP PUSH1 0x0 PUSH1 0x9 DUP2 SWAP1 SSTORE POP POP PUSH3 0x58C JUMP JUMPDEST DUP3 DUP1 SLOAD PUSH3 0x1F6 SWAP1 PUSH3 0x49D JUMP JUMPDEST SWAP1 PUSH1 0x0 MSTORE PUSH1 0x20 PUSH1 0x0 KECCAK256 SWAP1 PUSH1 0x1F ADD PUSH1 0x20 SWAP1 DIV DUP2 ADD SWAP3 DUP3 PUSH3 0x21A JUMPI PUSH1 0x0 DUP6 SSTORE PUSH3 0x266 JUMP JUMPDEST DUP3 PUSH1 0x1F LT PUSH3 0x235 JUMPI DUP1 MLOAD PUSH1 0xFF NOT AND DUP4 DUP1 ADD OR DUP6 SSTORE PUSH3 0x266 JUMP JUMPDEST DUP3 DUP1 ADD PUSH1 0x1 ADD DUP6 SSTORE DUP3 ISZERO PUSH3 0x266 JUMPI SWAP2 DUP3 ADD JUMPDEST DUP3 DUP2 GT ISZERO PUSH3 0x265 JUMPI DUP3 MLOAD DUP3 SSTORE SWAP2 PUSH1 0x20 ADD SWAP2 SWAP1 PUSH1 0x1 ADD SWAP1 PUSH3 0x248 JUMP JUMPDEST JUMPDEST POP SWAP1 POP PUSH3 0x275 SWAP2 SWAP1 PUSH3 0x31A JUMP JUMPDEST POP SWAP1 JUMP JUMPDEST DUP3 PUSH1 0x14 PUSH1 0x1F ADD PUSH1 0x20 SWAP1 DIV DUP2 ADD SWAP3 DUP3 ISZERO PUSH3 0x307 JUMPI SWAP2 PUSH1 0x20 MUL DUP3 ADD PUSH1 0x0 JUMPDEST DUP4 DUP3 GT ISZERO PUSH3 0x2D6 JUMPI DUP4 MLOAD DUP4 DUP3 PUSH2 0x100 EXP DUP2 SLOAD DUP2 PUSH1 0xFF MUL NOT AND SWAP1 DUP4 PUSH1 0xFF AND MUL OR SWAP1 SSTORE POP SWAP3 PUSH1 0x20 ADD SWAP3 PUSH1 0x1 ADD PUSH1 0x20 DUP2 PUSH1 0x0 ADD DIV SWAP3 DUP4 ADD SWAP3 PUSH1 0x1 SUB MUL PUSH3 0x296 JUMP JUMPDEST DUP1 ISZERO PUSH3 0x305 JUMPI DUP3 DUP2 PUSH2 0x100 EXP DUP2 SLOAD SWAP1 PUSH1 0xFF MUL NOT AND SWAP1 SSTORE PUSH1 0x1 ADD PUSH1 0x20 DUP2 PUSH1 0x0 ADD DIV SWAP3 DUP4 ADD SWAP3 PUSH1 0x1 SUB MUL PUSH3 0x2D6 JUMP JUMPDEST POP JUMPDEST POP SWAP1 POP PUSH3 0x316 SWAP2 SWAP1 PUSH3 0x31A JUMP JUMPDEST POP SWAP1 JUMP JUMPDEST JUMPDEST DUP1 DUP3 GT ISZERO PUSH3 0x335 JUMPI PUSH1 0x0 DUP2 PUSH1 0x0 SWAP1 SSTORE POP PUSH1 0x1 ADD PUSH3 0x31B JUMP JUMPDEST POP SWAP1 JUMP JUMPDEST PUSH1 0x0 PUSH3 0x350 PUSH3 0x34A DUP5 PUSH3 0x431 JUMP JUMPDEST PUSH3 0x408 JUMP JUMPDEST SWAP1 POP DUP3 DUP2 MSTORE PUSH1 0x20 DUP2 ADD DUP5 DUP5 DUP5 ADD GT ISZERO PUSH3 0x36F JUMPI PUSH3 0x36E PUSH3 0x56C JUMP JUMPDEST JUMPDEST PUSH3 0x37C DUP5 DUP3 DUP6 PUSH3 0x467 JUMP JUMPDEST POP SWAP4 SWAP3 POP POP POP JUMP JUMPDEST PUSH1 0x0 DUP3 PUSH1 0x1F DUP4 ADD SLT PUSH3 0x39C JUMPI PUSH3 0x39B PUSH3 0x567 JUMP JUMPDEST JUMPDEST DUP2 MLOAD PUSH3 0x3AE DUP5 DUP3 PUSH1 0x20 DUP7 ADD PUSH3 0x339 JUMP JUMPDEST SWAP2 POP POP SWAP3 SWAP2 POP POP JUMP JUMPDEST PUSH1 0x0 PUSH1 0x20 DUP3 DUP5 SUB SLT ISZERO PUSH3 0x3D0 JUMPI PUSH3 0x3CF PUSH3 0x576 JUMP JUMPDEST JUMPDEST PUSH1 0x0 DUP3 ADD MLOAD PUSH8 0xFFFFFFFFFFFFFFFF DUP2 GT ISZERO PUSH3 0x3F1 JUMPI PUSH3 0x3F0 PUSH3 0x571 JUMP JUMPDEST JUMPDEST PUSH3 0x3FF DUP5 DUP3 DUP6 ADD PUSH3 0x384 JUMP JUMPDEST SWAP2 POP POP SWAP3 SWAP2 POP POP JUMP JUMPDEST PUSH1 0x0 PUSH3 0x414 PUSH3 0x427 JUMP JUMPDEST SWAP1 POP PUSH3 0x422 DUP3 DUP3 PUSH3 0x4D3 JUMP JUMPDEST SWAP2 SWAP1 POP JUMP JUMPDEST PUSH1 0x0 PUSH1 0x40 MLOAD SWAP1 POP SWAP1 JUMP JUMPDEST PUSH1 0x0 PUSH8 0xFFFFFFFFFFFFFFFF DUP3 GT ISZERO PUSH3 0x44F JUMPI PUSH3 0x44E PUSH3 0x538 JUMP JUMPDEST JUMPDEST PUSH3 0x45A DUP3 PUSH3 0x57B JUMP JUMPDEST SWAP1 POP PUSH1 0x20 DUP2 ADD SWAP1 POP SWAP2 SWAP1 POP JUMP JUMPDEST PUSH1 0x0 JUMPDEST DUP4 DUP2 LT ISZERO PUSH3 0x487 JUMPI DUP1 DUP3 ADD MLOAD DUP2 DUP5 ADD MSTORE PUSH1 0x20 DUP2 ADD SWAP1 POP PUSH3 0x46A JUMP JUMPDEST DUP4 DUP2 GT ISZERO PUSH3 0x497 JUMPI PUSH1 0x0 DUP5 DUP5 ADD MSTORE JUMPDEST POP POP POP POP JUMP JUMPDEST PUSH1 0x0 PUSH1 0x2 DUP3 DIV SWAP1 POP PUSH1 0x1 DUP3 AND DUP1 PUSH3 0x4B6 JUMPI PUSH1 0x7F DUP3 AND SWAP2 POP JUMPDEST PUSH1 0x20 DUP3 LT DUP2 EQ ISZERO PUSH3 0x4CD JUMPI PUSH3 0x4CC PUSH3 0x509 JUMP JUMPDEST JUMPDEST POP SWAP2 SWAP1 POP JUMP JUMPDEST PUSH3 0x4DE DUP3 PUSH3 0x57B JUMP JUMPDEST DUP2 ADD DUP2 DUP2 LT PUSH8 0xFFFFFFFFFFFFFFFF DUP3 GT OR ISZERO PUSH3 0x500 JUMPI PUSH3 0x4FF PUSH3 0x538 JUMP JUMPDEST JUMPDEST DUP1 PUSH1 0x40 MSTORE POP POP POP JUMP JUMPDEST PUSH32 0x4E487B7100000000000000000000000000000000000000000000000000000000 PUSH1 0x0 MSTORE PUSH1 0x22 PUSH1 0x4 MSTORE PUSH1 0x24 PUSH1 0x0 REVERT JUMPDEST PUSH32 0x4E487B7100000000000000000000000000000000000000000000000000000000 PUSH1 0x0 MSTORE PUSH1 0x41 PUSH1 0x4 MSTORE PUSH1 0x24 PUSH1 0x0 REVERT JUMPDEST PUSH1 0x0 DUP1 REVERT JUMPDEST PUSH1 0x0 DUP1 REVERT JUMPDEST PUSH1 0x0 DUP1 REVERT JUMPDEST PUSH1 0x0 DUP1 REVERT JUMPDEST PUSH1 0x0 PUSH1 0x1F NOT PUSH1 0x1F DUP4 ADD AND SWAP1 POP SWAP2 SWAP1 POP JUMP JUMPDEST PUSH2 0x30B1 DUP1 PUSH3 0x59C PUSH1 0x0 CODECOPY PUSH1 0x0 RETURN INVALID PUSH1 0x80 PUSH1 0x40 MSTORE PUSH1 0x4 CALLDATASIZE LT PUSH2 0xE8 JUMPI PUSH1 0x0 CALLDATALOAD PUSH1 0xE0 SHR DUP1 PUSH4 0x7A5CAAB3 GT PUSH2 0x8A JUMPI DUP1 PUSH4 0xB187BD26 GT PUSH2 0x59 JUMPI DUP1 PUSH4 0xB187BD26 EQ PUSH2 0x2AC JUMPI DUP1 PUSH4 0xB4A99A4E EQ PUSH2 0x2D7 JUMPI DUP1 PUSH4 0xEDDD0D9C EQ PUSH2 0x302 JUMPI DUP1 PUSH4 0xFD6C3B1B EQ PUSH2 0x32B JUMPI PUSH2 0xE8 JUMP JUMPDEST DUP1 PUSH4 0x7A5CAAB3 EQ PUSH2 0x216 JUMPI DUP1 PUSH4 0x8B7AFE2E EQ PUSH2 0x241 JUMPI DUP1 PUSH4 0xA6F9DAE1 EQ PUSH2 0x26C JUMPI DUP1 PUSH4 0xAA90C726 EQ PUSH2 0x295 JUMPI PUSH2 0xE8 JUMP JUMPDEST DUP1 PUSH4 0x546FD992 GT PUSH2 0xC6 JUMPI DUP1 PUSH4 0x546FD992 EQ PUSH2 0x14B JUMPI DUP1 PUSH4 0x5B27D84E EQ PUSH2 0x17C JUMPI DUP1 PUSH4 0x5E1F0556 EQ PUSH2 0x1AC JUMPI DUP1 PUSH4 0x60DAA851 EQ PUSH2 0x1E9 JUMPI PUSH2 0xE8 JUMP JUMPDEST DUP1 PUSH4 0x390C11C EQ PUSH2 0xED JUMPI DUP1 PUSH4 0xA67D2C7 EQ PUSH2 0x118 JUMPI DUP1 PUSH4 0x15460259 EQ PUSH2 0x134 JUMPI JUMPDEST PUSH1 0x0 DUP1 REVERT JUMPDEST CALLVALUE DUP1 ISZERO PUSH2 0xF9 JUMPI PUSH1 0x0 DUP1 REVERT JUMPDEST POP PUSH2 0x102 PUSH2 0x368 JUMP JUMPDEST PUSH1 0x40 MLOAD PUSH2 0x10F SWAP2 SWAP1 PUSH2 0x274A JUMP JUMPDEST PUSH1 0x40 MLOAD DUP1 SWAP2 SUB SWAP1 RETURN JUMPDEST PUSH2 0x132 PUSH1 0x4 DUP1 CALLDATASIZE SUB DUP2 ADD SWAP1 PUSH2 0x12D SWAP2 SWAP1 PUSH2 0x1FCC JUMP JUMPDEST PUSH2 0x372 JUMP JUMPDEST STOP JUMPDEST CALLVALUE DUP1 ISZERO PUSH2 0x140 JUMPI PUSH1 0x0 DUP1 REVERT JUMPDEST POP PUSH2 0x149 PUSH2 0x49C JUMP JUMPDEST STOP JUMPDEST PUSH2 0x165 PUSH1 0x4 DUP1 CALLDATASIZE SUB DUP2 ADD SWAP1 PUSH2 0x160 SWAP2 SWAP1 PUSH2 0x1F9F JUMP JUMPDEST PUSH2 0x5A6 JUMP JUMPDEST PUSH1 0x40 MLOAD PUSH2 0x173 SWAP3 SWAP2 SWAP1 PUSH2 0x2765 JUMP JUMPDEST PUSH1 0x40 MLOAD DUP1 SWAP2 SUB SWAP1 RETURN JUMPDEST PUSH2 0x196 PUSH1 0x4 DUP1 CALLDATASIZE SUB DUP2 ADD SWAP1 PUSH2 0x191 SWAP2 SWAP1 PUSH2 0x1FF9 JUMP JUMPDEST PUSH2 0x863 JUMP JUMPDEST PUSH1 0x40 MLOAD PUSH2 0x1A3 SWAP2 SWAP1 PUSH2 0x254B JUMP JUMPDEST PUSH1 0x40 MLOAD DUP1 SWAP2 SUB SWAP1 RETURN JUMPDEST CALLVALUE DUP1 ISZERO PUSH2 0x1B8 JUMPI PUSH1 0x0 DUP1 REVERT JUMPDEST POP PUSH2 0x1D3 PUSH1 0x4 DUP1 CALLDATASIZE SUB DUP2 ADD SWAP1 PUSH2 0x1CE SWAP2 SWAP1 PUSH2 0x1FF9 JUMP JUMPDEST PUSH2 0xAFD JUMP JUMPDEST PUSH1 0x40 MLOAD PUSH2 0x1E0 SWAP2 SWAP1 PUSH2 0x254B JUMP JUMPDEST PUSH1 0x40 MLOAD DUP1 SWAP2 SUB SWAP1 RETURN JUMPDEST CALLVALUE DUP1 ISZERO PUSH2 0x1F5 JUMPI PUSH1 0x0 DUP1 REVERT JUMPDEST POP PUSH2 0x1FE PUSH2 0xDD0 JUMP JUMPDEST PUSH1 0x40 MLOAD PUSH2 0x20D SWAP4 SWAP3 SWAP2 SWAP1 PUSH2 0x27BE JUMP JUMPDEST PUSH1 0x40 MLOAD DUP1 SWAP2 SUB SWAP1 RETURN JUMPDEST CALLVALUE DUP1 ISZERO PUSH2 0x222 JUMPI PUSH1 0x0 DUP1 REVERT JUMPDEST POP PUSH2 0x22B PUSH2 0xED6 JUMP JUMPDEST PUSH1 0x40 MLOAD PUSH2 0x238 SWAP2 SWAP1 PUSH2 0x274A JUMP JUMPDEST PUSH1 0x40 MLOAD DUP1 SWAP2 SUB SWAP1 RETURN JUMPDEST CALLVALUE DUP1 ISZERO PUSH2 0x24D JUMPI PUSH1 0x0 DUP1 REVERT JUMPDEST POP PUSH2 0x256 PUSH2 0xFCD JUMP JUMPDEST PUSH1 0x40 MLOAD PUSH2 0x263 SWAP2 SWAP1 PUSH2 0x274A JUMP JUMPDEST PUSH1 0x40 MLOAD DUP1 SWAP2 SUB SWAP1 RETURN JUMPDEST CALLVALUE DUP1 ISZERO PUSH2 0x278 JUMPI PUSH1 0x0 DUP1 REVERT JUMPDEST POP PUSH2 0x293 PUSH1 0x4 DUP1 CALLDATASIZE SUB DUP2 ADD SWAP1 PUSH2 0x28E SWAP2 SWAP1 PUSH2 0x1F9F JUMP JUMPDEST PUSH2 0x106C JUMP JUMPDEST STOP JUMPDEST CALLVALUE DUP1 ISZERO PUSH2 0x2A1 JUMPI PUSH1 0x0 DUP1 REVERT JUMPDEST POP PUSH2 0x2AA PUSH2 0x119D JUMP JUMPDEST STOP JUMPDEST CALLVALUE DUP1 ISZERO PUSH2 0x2B8 JUMPI PUSH1 0x0 DUP1 REVERT JUMPDEST POP PUSH2 0x2C1 PUSH2 0x12A7 JUMP JUMPDEST PUSH1 0x40 MLOAD PUSH2 0x2CE SWAP2 SWAP1 PUSH2 0x256D JUMP JUMPDEST PUSH1 0x40 MLOAD DUP1 SWAP2 SUB SWAP1 RETURN JUMPDEST CALLVALUE DUP1 ISZERO PUSH2 0x2E3 JUMPI PUSH1 0x0 DUP1 REVERT JUMPDEST POP PUSH2 0x2EC PUSH2 0x12BA JUMP JUMPDEST PUSH1 0x40 MLOAD PUSH2 0x2F9 SWAP2 SWAP1 PUSH2 0x24D6 JUMP JUMPDEST PUSH1 0x40 MLOAD DUP1 SWAP2 SUB SWAP1 RETURN JUMPDEST CALLVALUE DUP1 ISZERO PUSH2 0x30E JUMPI PUSH1 0x0 DUP1 REVERT JUMPDEST POP PUSH2 0x329 PUSH1 0x4 DUP1 CALLDATASIZE SUB DUP2 ADD SWAP1 PUSH2 0x324 SWAP2 SWAP1 PUSH2 0x2066 JUMP JUMPDEST PUSH2 0x12E0 JUMP JUMPDEST STOP JUMPDEST CALLVALUE DUP1 ISZERO PUSH2 0x337 JUMPI PUSH1 0x0 DUP1 REVERT JUMPDEST POP PUSH2 0x352 PUSH1 0x4 DUP1 CALLDATASIZE SUB DUP2 ADD SWAP1 PUSH2 0x34D SWAP2 SWAP1 PUSH2 0x1F9F JUMP JUMPDEST PUSH2 0x13D7 JUMP JUMPDEST PUSH1 0x40 MLOAD PUSH2 0x35F SWAP2 SWAP1 PUSH2 0x254B JUMP JUMPDEST PUSH1 0x40 MLOAD DUP1 SWAP2 SUB SWAP1 RETURN JUMPDEST PUSH1 0x0 PUSH1 0x4 SLOAD SWAP1 POP SWAP1 JUMP JUMPDEST PUSH1 0xC PUSH1 0x1 SWAP1 SLOAD SWAP1 PUSH2 0x100 EXP SWAP1 DIV PUSH20 0xFFFFFFFFFFFFFFFFFFFFFFFFFFFFFFFFFFFFFFFF AND PUSH20 0xFFFFFFFFFFFFFFFFFFFFFFFFFFFFFFFFFFFFFFFF AND PUSH2 0x3B3 PUSH2 0x14C7 JUMP JUMPDEST PUSH20 0xFFFFFFFFFFFFFFFFFFFFFFFFFFFFFFFFFFFFFFFF AND EQ PUSH2 0x409 JUMPI PUSH1 0x40 MLOAD PUSH32 0x8C379A000000000000000000000000000000000000000000000000000000000 DUP2 MSTORE PUSH1 0x4 ADD PUSH2 0x400 SWAP1 PUSH2 0x268A JUMP JUMPDEST PUSH1 0x40 MLOAD DUP1 SWAP2 SUB SWAP1 REVERT JUMPDEST PUSH1 0x0 SELFBALANCE SWAP1 POP PUSH1 0x0 DUP2 GT PUSH2 0x451 JUMPI PUSH1 0x40 MLOAD PUSH32 0x8C379A000000000000000000000000000000000000000000000000000000000 DUP2 MSTORE PUSH1 0x4 ADD PUSH2 0x448 SWAP1 PUSH2 0x270A JUMP JUMPDEST PUSH1 0x40 MLOAD DUP1 SWAP2 SUB SWAP1 REVERT JUMPDEST DUP2 PUSH20 0xFFFFFFFFFFFFFFFFFFFFFFFFFFFFFFFFFFFFFFFF AND PUSH2 0x8FC DUP3 SWAP1 DUP2 ISZERO MUL SWAP1 PUSH1 0x40 MLOAD PUSH1 0x0 PUSH1 0x40 MLOAD DUP1 DUP4 SUB DUP2 DUP6 DUP9 DUP9 CALL SWAP4 POP POP POP POP ISZERO DUP1 ISZERO PUSH2 0x497 JUMPI RETURNDATASIZE PUSH1 0x0 DUP1 RETURNDATACOPY RETURNDATASIZE PUSH1 0x0 REVERT JUMPDEST POP POP POP JUMP JUMPDEST PUSH1 0xC PUSH1 0x1 SWAP1 SLOAD SWAP1 PUSH2 0x100 EXP SWAP1 DIV PUSH20 0xFFFFFFFFFFFFFFFFFFFFFFFFFFFFFFFFFFFFFFFF AND PUSH20 0xFFFFFFFFFFFFFFFFFFFFFFFFFFFFFFFFFFFFFFFF AND PUSH2 0x4DD PUSH2 0x14C7 JUMP JUMPDEST PUSH20 0xFFFFFFFFFFFFFFFFFFFFFFFFFFFFFFFFFFFFFFFF AND EQ PUSH2 0x533 JUMPI PUSH1 0x40 MLOAD PUSH32 0x8C379A000000000000000000000000000000000000000000000000000000000 DUP2 MSTORE PUSH1 0x4 ADD PUSH2 0x52A SWAP1 PUSH2 0x268A JUMP JUMPDEST PUSH1 0x40 MLOAD DUP1 SWAP2 SUB SWAP1 REVERT JUMPDEST PUSH1 0x1 ISZERO ISZERO PUSH1 0xC PUSH1 0x0 SWAP1 SLOAD SWAP1 PUSH2 0x100 EXP SWAP1 DIV PUSH1 0xFF AND ISZERO ISZERO EQ PUSH2 0x589 JUMPI PUSH1 0x40 MLOAD PUSH32 0x8C379A000000000000000000000000000000000000000000000000000000000 DUP2 MSTORE PUSH1 0x4 ADD PUSH2 0x580 SWAP1 PUSH2 0x262A JUMP JUMPDEST PUSH1 0x40 MLOAD DUP1 SWAP2 SUB SWAP1 REVERT JUMPDEST PUSH1 0x0 PUSH1 0xC PUSH1 0x0 PUSH2 0x100 EXP DUP2 SLOAD DUP2 PUSH1 0xFF MUL NOT AND SWAP1 DUP4 ISZERO ISZERO MUL OR SWAP1 SSTORE POP JUMP JUMPDEST PUSH1 0x0 PUSH1 0x60 PUSH1 0xC PUSH1 0x1 SWAP1 SLOAD SWAP1 PUSH2 0x100 EXP SWAP1 DIV PUSH20 0xFFFFFFFFFFFFFFFFFFFFFFFFFFFFFFFFFFFFFFFF AND PUSH20 0xFFFFFFFFFFFFFFFFFFFFFFFFFFFFFFFFFFFFFFFF AND PUSH2 0x5EB PUSH2 0x14C7 JUMP JUMPDEST PUSH20 0xFFFFFFFFFFFFFFFFFFFFFFFFFFFFFFFFFFFFFFFF AND EQ PUSH2 0x641 JUMPI PUSH1 0x40 MLOAD PUSH32 0x8C379A000000000000000000000000000000000000000000000000000000000 DUP2 MSTORE PUSH1 0x4 ADD PUSH2 0x638 SWAP1 PUSH2 0x268A JUMP JUMPDEST PUSH1 0x40 MLOAD DUP1 SWAP2 SUB SWAP1 REVERT JUMPDEST PUSH1 0x0 ISZERO ISZERO PUSH1 0xC PUSH1 0x0 SWAP1 SLOAD SWAP1 PUSH2 0x100 EXP SWAP1 DIV PUSH1 0xFF AND ISZERO ISZERO EQ PUSH2 0x697 JUMPI PUSH1 0x40 MLOAD PUSH32 0x8C379A000000000000000000000000000000000000000000000000000000000 DUP2 MSTORE PUSH1 0x4 ADD PUSH2 0x68E SWAP1 PUSH2 0x26CA JUMP JUMPDEST PUSH1 0x40 MLOAD DUP1 SWAP2 SUB SWAP1 REVERT JUMPDEST PUSH1 0x0 PUSH2 0x6A1 PUSH2 0x14CF JUMP JUMPDEST SWAP1 POP PUSH1 0x0 PUSH2 0x6AE DUP3 PUSH2 0x156B JUMP JUMPDEST SWAP1 POP PUSH2 0x748 DUP6 DUP3 PUSH1 0x5 SLOAD PUSH1 0x2 DUP1 SLOAD PUSH2 0x6C5 SWAP1 PUSH2 0x2A2D JUMP JUMPDEST DUP1 PUSH1 0x1F ADD PUSH1 0x20 DUP1 SWAP2 DIV MUL PUSH1 0x20 ADD PUSH1 0x40 MLOAD SWAP1 DUP2 ADD PUSH1 0x40 MSTORE DUP1 SWAP3 SWAP2 SWAP1 DUP2 DUP2 MSTORE PUSH1 0x20 ADD DUP3 DUP1 SLOAD PUSH2 0x6F1 SWAP1 PUSH2 0x2A2D JUMP JUMPDEST DUP1 ISZERO PUSH2 0x73E JUMPI DUP1 PUSH1 0x1F LT PUSH2 0x713 JUMPI PUSH2 0x100 DUP1 DUP4 SLOAD DIV MUL DUP4 MSTORE SWAP2 PUSH1 0x20 ADD SWAP2 PUSH2 0x73E JUMP JUMPDEST DUP3 ADD SWAP2 SWAP1 PUSH1 0x0 MSTORE PUSH1 0x20 PUSH1 0x0 KECCAK256 SWAP1 JUMPDEST DUP2 SLOAD DUP2 MSTORE SWAP1 PUSH1 0x1 ADD SWAP1 PUSH1 0x20 ADD DUP1 DUP4 GT PUSH2 0x721 JUMPI DUP3 SWAP1 SUB PUSH1 0x1F AND DUP3 ADD SWAP2 JUMPDEST POP POP POP POP POP PUSH2 0x184E JUMP JUMPDEST PUSH1 0x4 PUSH1 0x0 DUP2 SLOAD DUP1 SWAP3 SWAP2 SWAP1 PUSH2 0x75B SWAP1 PUSH2 0x2A90 JUMP JUMPDEST SWAP2 SWAP1 POP SSTORE POP PUSH1 0xA PUSH1 0x0 DUP7 PUSH20 0xFFFFFFFFFFFFFFFFFFFFFFFFFFFFFFFFFFFFFFFF AND PUSH20 0xFFFFFFFFFFFFFFFFFFFFFFFFFFFFFFFFFFFFFFFF AND DUP2 MSTORE PUSH1 0x20 ADD SWAP1 DUP2 MSTORE PUSH1 0x20 ADD PUSH1 0x0 KECCAK256 PUSH1 0x0 ADD DUP2 SWAP1 DUP1 PUSH1 0x1 DUP2 SLOAD ADD DUP1 DUP3 SSTORE DUP1 SWAP2 POP POP PUSH1 0x1 SWAP1 SUB SWAP1 PUSH1 0x0 MSTORE PUSH1 0x20 PUSH1 0x0 KECCAK256 ADD PUSH1 0x0 SWAP1 SWAP2 SWAP1 SWAP2 SWAP1 SWAP2 POP SSTORE DUP1 PUSH1 0x2 DUP1 DUP1 SLOAD PUSH2 0x7D8 SWAP1 PUSH2 0x2A2D JUMP JUMPDEST DUP1 PUSH1 0x1F ADD PUSH1 0x20 DUP1 SWAP2 DIV MUL PUSH1 0x20 ADD PUSH1 0x40 MLOAD SWAP1 DUP2 ADD PUSH1 0x40 MSTORE DUP1 SWAP3 SWAP2 SWAP1 DUP2 DUP2 MSTORE PUSH1 0x20 ADD DUP3 DUP1 SLOAD PUSH2 0x804 SWAP1 PUSH2 0x2A2D JUMP JUMPDEST DUP1 ISZERO PUSH2 0x851 JUMPI DUP1 PUSH1 0x1F LT PUSH2 0x826 JUMPI PUSH2 0x100 DUP1 DUP4 SLOAD DIV MUL DUP4 MSTORE SWAP2 PUSH1 0x20 ADD SWAP2 PUSH2 0x851 JUMP JUMPDEST DUP3 ADD SWAP2 SWAP1 PUSH1 0x0 MSTORE PUSH1 0x20 PUSH1 0x0 KECCAK256 SWAP1 JUMPDEST DUP2 SLOAD DUP2 MSTORE SWAP1 PUSH1 0x1 ADD SWAP1 PUSH1 0x20 ADD DUP1 DUP4 GT PUSH2 0x834 JUMPI DUP3 SWAP1 SUB PUSH1 0x1F AND DUP3 ADD SWAP2 JUMPDEST POP POP POP POP POP SWAP1 POP SWAP4 POP SWAP4 POP POP POP SWAP2 POP SWAP2 JUMP JUMPDEST PUSH1 0x60 PUSH1 0x0 ISZERO ISZERO PUSH1 0xC PUSH1 0x0 SWAP1 SLOAD SWAP1 PUSH2 0x100 EXP SWAP1 DIV PUSH1 0xFF AND ISZERO ISZERO EQ PUSH2 0x8BB JUMPI PUSH1 0x40 MLOAD PUSH32 0x8C379A000000000000000000000000000000000000000000000000000000000 DUP2 MSTORE PUSH1 0x4 ADD PUSH2 0x8B2 SWAP1 PUSH2 0x26CA JUMP JUMPDEST PUSH1 0x40 MLOAD DUP1 SWAP2 SUB SWAP1 REVERT JUMPDEST PUSH1 0x0 PUSH1 0x6 SLOAD EQ ISZERO PUSH2 0x901 JUMPI PUSH1 0x40 MLOAD PUSH32 0x8C379A000000000000000000000000000000000000000000000000000000000 DUP2 MSTORE PUSH1 0x4 ADD PUSH2 0x8F8 SWAP1 PUSH2 0x26AA JUMP JUMPDEST PUSH1 0x40 MLOAD DUP1 SWAP2 SUB SWAP1 REVERT JUMPDEST PUSH1 0x4 DUP3 LT DUP1 ISZERO PUSH2 0x911 JUMPI POP PUSH1 0x0 DUP3 GT JUMPDEST PUSH2 0x950 JUMPI PUSH1 0x40 MLOAD PUSH32 0x8C379A000000000000000000000000000000000000000000000000000000000 DUP2 MSTORE PUSH1 0x4 ADD PUSH2 0x947 SWAP1 PUSH2 0x266A JUMP JUMPDEST PUSH1 0x40 MLOAD DUP1 SWAP2 SUB SWAP1 REVERT JUMPDEST PUSH2 0x3E8 PUSH1 0x4 SLOAD LT PUSH2 0x996 JUMPI PUSH1 0x40 MLOAD PUSH32 0x8C379A000000000000000000000000000000000000000000000000000000000 DUP2 MSTORE PUSH1 0x4 ADD PUSH2 0x98D SWAP1 PUSH2 0x26EA JUMP JUMPDEST PUSH1 0x40 MLOAD DUP1 SWAP2 SUB SWAP1 REVERT JUMPDEST PUSH1 0x0 PUSH1 0x6 SLOAD EQ ISZERO PUSH2 0x9DC JUMPI PUSH1 0x40 MLOAD PUSH32 0x8C379A000000000000000000000000000000000000000000000000000000000 DUP2 MSTORE PUSH1 0x4 ADD PUSH2 0x9D3 SWAP1 PUSH2 0x25EA JUMP JUMPDEST PUSH1 0x40 MLOAD DUP1 SWAP2 SUB SWAP1 REVERT JUMPDEST DUP2 PUSH1 0x6 SLOAD PUSH2 0x9EA SWAP2 SWAP1 PUSH2 0x28E6 JUMP JUMPDEST CALLVALUE EQ PUSH2 0xA2B JUMPI PUSH1 0x40 MLOAD PUSH32 0x8C379A000000000000000000000000000000000000000000000000000000000 DUP2 MSTORE PUSH1 0x4 ADD PUSH2 0xA22 SWAP1 PUSH2 0x260A JUMP JUMPDEST PUSH1 0x40 MLOAD DUP1 SWAP2 SUB SWAP1 REVERT JUMPDEST PUSH1 0x0 JUMPDEST DUP3 DUP2 LT ISZERO PUSH2 0xA52 JUMPI PUSH2 0xA3F DUP5 PUSH2 0x5A6 JUMP JUMPDEST POP POP DUP1 PUSH2 0xA4B SWAP1 PUSH2 0x2A90 JUMP JUMPDEST SWAP1 POP PUSH2 0xA2E JUMP JUMPDEST POP PUSH2 0xA64 PUSH2 0xA5E PUSH2 0x14C7 JUMP JUMPDEST CALLVALUE PUSH2 0x19E4 JUMP JUMPDEST PUSH1 0xA PUSH1 0x0 DUP5 PUSH20 0xFFFFFFFFFFFFFFFFFFFFFFFFFFFFFFFFFFFFFFFF AND PUSH20 0xFFFFFFFFFFFFFFFFFFFFFFFFFFFFFFFFFFFFFFFF AND DUP2 MSTORE PUSH1 0x20 ADD SWAP1 DUP2 MSTORE PUSH1 0x20 ADD PUSH1 0x0 KECCAK256 PUSH1 0x0 ADD DUP1 SLOAD DUP1 PUSH1 0x20 MUL PUSH1 0x20 ADD PUSH1 0x40 MLOAD SWAP1 DUP2 ADD PUSH1 0x40 MSTORE DUP1 SWAP3 SWAP2 SWAP1 DUP2 DUP2 MSTORE PUSH1 0x20 ADD DUP3 DUP1 SLOAD DUP1 ISZERO PUSH2 0xAF0 JUMPI PUSH1 0x20 MUL DUP3 ADD SWAP2 SWAP1 PUSH1 0x0 MSTORE PUSH1 0x20 PUSH1 0x0 KECCAK256 SWAP1 JUMPDEST DUP2 SLOAD DUP2 MSTORE PUSH1 0x20 ADD SWAP1 PUSH1 0x1 ADD SWAP1 DUP1 DUP4 GT PUSH2 0xADC JUMPI JUMPDEST POP POP POP POP POP SWAP1 POP SWAP3 SWAP2 POP POP JUMP JUMPDEST PUSH1 0x60 PUSH1 0xC PUSH1 0x1 SWAP1 SLOAD SWAP1 PUSH2 0x100 EXP SWAP1 DIV PUSH20 0xFFFFFFFFFFFFFFFFFFFFFFFFFFFFFFFFFFFFFFFF AND PUSH20 0xFFFFFFFFFFFFFFFFFFFFFFFFFFFFFFFFFFFFFFFF AND PUSH2 0xB40 PUSH2 0x14C7 JUMP JUMPDEST PUSH20 0xFFFFFFFFFFFFFFFFFFFFFFFFFFFFFFFFFFFFFFFF AND EQ PUSH2 0xB96 JUMPI PUSH1 0x40 MLOAD PUSH32 0x8C379A000000000000000000000000000000000000000000000000000000000 DUP2 MSTORE PUSH1 0x4 ADD PUSH2 0xB8D SWAP1 PUSH2 0x268A JUMP JUMPDEST PUSH1 0x40 MLOAD DUP1 SWAP2 SUB SWAP1 REVERT JUMPDEST PUSH1 0x0 ISZERO ISZERO PUSH1 0xC PUSH1 0x0 SWAP1 SLOAD SWAP1 PUSH2 0x100 EXP SWAP1 DIV PUSH1 0xFF AND ISZERO ISZERO EQ PUSH2 0xBEC JUMPI PUSH1 0x40 MLOAD PUSH32 0x8C379A000000000000000000000000000000000000000000000000000000000 DUP2 MSTORE PUSH1 0x4 ADD PUSH2 0xBE3 SWAP1 PUSH2 0x26CA JUMP JUMPDEST PUSH1 0x40 MLOAD DUP1 SWAP2 SUB SWAP1 REVERT JUMPDEST PUSH1 0x0 PUSH1 0x6 SLOAD EQ ISZERO PUSH2 0xC32 JUMPI PUSH1 0x40 MLOAD PUSH32 0x8C379A000000000000000000000000000000000000000000000000000000000 DUP2 MSTORE PUSH1 0x4 ADD PUSH2 0xC29 SWAP1 PUSH2 0x26AA JUMP JUMPDEST PUSH1 0x40 MLOAD DUP1 SWAP2 SUB SWAP1 REVERT JUMPDEST PUSH1 0x4 DUP3 LT DUP1 ISZERO PUSH2 0xC42 JUMPI POP PUSH1 0x0 DUP3 GT JUMPDEST PUSH2 0xC81 JUMPI PUSH1 0x40 MLOAD PUSH32 0x8C379A000000000000000000000000000000000000000000000000000000000 DUP2 MSTORE PUSH1 0x4 ADD PUSH2 0xC78 SWAP1 PUSH2 0x266A JUMP JUMPDEST PUSH1 0x40 MLOAD DUP1 SWAP2 SUB SWAP1 REVERT JUMPDEST PUSH2 0x3E8 PUSH1 0x4 SLOAD LT PUSH2 0xCC7 JUMPI PUSH1 0x40 MLOAD PUSH32 0x8C379A000000000000000000000000000000000000000000000000000000000 DUP2 MSTORE PUSH1 0x4 ADD PUSH2 0xCBE SWAP1 PUSH2 0x26EA JUMP JUMPDEST PUSH1 0x40 MLOAD DUP1 SWAP2 SUB SWAP1 REVERT JUMPDEST PUSH1 0x0 PUSH1 0x6 SLOAD EQ ISZERO PUSH2 0xD0D JUMPI PUSH1 0x40 MLOAD PUSH32 0x8C379A000000000000000000000000000000000000000000000000000000000 DUP2 MSTORE PUSH1 0x4 ADD PUSH2 0xD04 SWAP1 PUSH2 0x25EA JUMP JUMPDEST PUSH1 0x40 MLOAD DUP1 SWAP2 SUB SWAP1 REVERT JUMPDEST PUSH1 0x0 JUMPDEST DUP3 DUP2 LT ISZERO PUSH2 0xD36 JUMPI PUSH2 0xD21 DUP5 PUSH2 0x5A6 JUMP JUMPDEST POP POP DUP1 DUP1 PUSH2 0xD2E SWAP1 PUSH2 0x2A90 JUMP JUMPDEST SWAP2 POP POP PUSH2 0xD10 JUMP JUMPDEST POP PUSH1 0xA PUSH1 0x0 DUP5 PUSH20 0xFFFFFFFFFFFFFFFFFFFFFFFFFFFFFFFFFFFFFFFF AND PUSH20 0xFFFFFFFFFFFFFFFFFFFFFFFFFFFFFFFFFFFFFFFF AND DUP2 MSTORE PUSH1 0x20 ADD SWAP1 DUP2 MSTORE PUSH1 0x20 ADD PUSH1 0x0 KECCAK256 PUSH1 0x0 ADD DUP1 SLOAD DUP1 PUSH1 0x20 MUL PUSH1 0x20 ADD PUSH1 0x40 MLOAD SWAP1 DUP2 ADD PUSH1 0x40 MSTORE DUP1 SWAP3 SWAP2 SWAP1 DUP2 DUP2 MSTORE PUSH1 0x20 ADD DUP3 DUP1 SLOAD DUP1 ISZERO PUSH2 0xDC3 JUMPI PUSH1 0x20 MUL DUP3 ADD SWAP2 SWAP1 PUSH1 0x0 MSTORE PUSH1 0x20 PUSH1 0x0 KECCAK256 SWAP1 JUMPDEST DUP2 SLOAD DUP2 MSTORE PUSH1 0x20 ADD SWAP1 PUSH1 0x1 ADD SWAP1 DUP1 DUP4 GT PUSH2 0xDAF JUMPI JUMPDEST POP POP POP POP POP SWAP1 POP SWAP3 SWAP2 POP POP JUMP JUMPDEST PUSH1 0x0 DUP1 PUSH1 0x0 PUSH1 0xC PUSH1 0x1 SWAP1 SLOAD SWAP1 PUSH2 0x100 EXP SWAP1 DIV PUSH20 0xFFFFFFFFFFFFFFFFFFFFFFFFFFFFFFFFFFFFFFFF AND PUSH20 0xFFFFFFFFFFFFFFFFFFFFFFFFFFFFFFFFFFFFFFFF AND PUSH2 0xE16 PUSH2 0x14C7 JUMP JUMPDEST PUSH20 0xFFFFFFFFFFFFFFFFFFFFFFFFFFFFFFFFFFFFFFFF AND EQ PUSH2 0xE6C JUMPI PUSH1 0x40 MLOAD PUSH32 0x8C379A000000000000000000000000000000000000000000000000000000000 DUP2 MSTORE PUSH1 0x4 ADD PUSH2 0xE63 SWAP1 PUSH2 0x268A JUMP JUMPDEST PUSH1 0x40 MLOAD DUP1 SWAP2 SUB SWAP1 REVERT JUMPDEST PUSH1 0x0 ISZERO ISZERO PUSH1 0xC PUSH1 0x0 SWAP1 SLOAD SWAP1 PUSH2 0x100 EXP SWAP1 DIV PUSH1 0xFF AND ISZERO ISZERO EQ PUSH2 0xEC2 JUMPI PUSH1 0x40 MLOAD PUSH32 0x8C379A000000000000000000000000000000000000000000000000000000000 DUP2 MSTORE PUSH1 0x4 ADD PUSH2 0xEB9 SWAP1 PUSH2 0x26CA JUMP JUMPDEST PUSH1 0x40 MLOAD DUP1 SWAP2 SUB SWAP1 REVERT JUMPDEST PUSH1 0x7 SLOAD PUSH1 0x8 SLOAD PUSH1 0x9 SLOAD SWAP3 POP SWAP3 POP SWAP3 POP SWAP1 SWAP2 SWAP3 JUMP JUMPDEST PUSH1 0x0 PUSH1 0xC PUSH1 0x1 SWAP1 SLOAD SWAP1 PUSH2 0x100 EXP SWAP1 DIV PUSH20 0xFFFFFFFFFFFFFFFFFFFFFFFFFFFFFFFFFFFFFFFF AND PUSH20 0xFFFFFFFFFFFFFFFFFFFFFFFFFFFFFFFFFFFFFFFF AND PUSH2 0xF19 PUSH2 0x14C7 JUMP JUMPDEST PUSH20 0xFFFFFFFFFFFFFFFFFFFFFFFFFFFFFFFFFFFFFFFF AND EQ PUSH2 0xF6F JUMPI PUSH1 0x40 MLOAD PUSH32 0x8C379A000000000000000000000000000000000000000000000000000000000 DUP2 MSTORE PUSH1 0x4 ADD PUSH2 0xF66 SWAP1 PUSH2 0x268A JUMP JUMPDEST PUSH1 0x40 MLOAD DUP1 SWAP2 SUB SWAP1 REVERT JUMPDEST PUSH1 0x0 ISZERO ISZERO PUSH1 0xC PUSH1 0x0 SWAP1 SLOAD SWAP1 PUSH2 0x100 EXP SWAP1 DIV PUSH1 0xFF AND ISZERO ISZERO EQ PUSH2 0xFC5 JUMPI PUSH1 0x40 MLOAD PUSH32 0x8C379A000000000000000000000000000000000000000000000000000000000 DUP2 MSTORE PUSH1 0x4 ADD PUSH2 0xFBC SWAP1 PUSH2 0x26CA JUMP JUMPDEST PUSH1 0x40 MLOAD DUP1 SWAP2 SUB SWAP1 REVERT JUMPDEST PUSH1 0x6 SLOAD SWAP1 POP SWAP1 JUMP JUMPDEST PUSH1 0x0 PUSH1 0xC PUSH1 0x1 SWAP1 SLOAD SWAP1 PUSH2 0x100 EXP SWAP1 DIV PUSH20 0xFFFFFFFFFFFFFFFFFFFFFFFFFFFFFFFFFFFFFFFF AND PUSH20 0xFFFFFFFFFFFFFFFFFFFFFFFFFFFFFFFFFFFFFFFF AND PUSH2 0x1010 PUSH2 0x14C7 JUMP JUMPDEST PUSH20 0xFFFFFFFFFFFFFFFFFFFFFFFFFFFFFFFFFFFFFFFF AND EQ PUSH2 0x1066 JUMPI PUSH1 0x40 MLOAD PUSH32 0x8C379A000000000000000000000000000000000000000000000000000000000 DUP2 MSTORE PUSH1 0x4 ADD PUSH2 0x105D SWAP1 PUSH2 0x268A JUMP JUMPDEST PUSH1 0x40 MLOAD DUP1 SWAP2 SUB SWAP1 REVERT JUMPDEST SELFBALANCE SWAP1 POP SWAP1 JUMP JUMPDEST PUSH1 0xC PUSH1 0x1 SWAP1 SLOAD SWAP1 PUSH2 0x100 EXP SWAP1 DIV PUSH20 0xFFFFFFFFFFFFFFFFFFFFFFFFFFFFFFFFFFFFFFFF AND PUSH20 0xFFFFFFFFFFFFFFFFFFFFFFFFFFFFFFFFFFFFFFFF AND PUSH2 0x10AD PUSH2 0x14C7 JUMP JUMPDEST PUSH20 0xFFFFFFFFFFFFFFFFFFFFFFFFFFFFFFFFFFFFFFFF AND EQ PUSH2 0x1103 JUMPI PUSH1 0x40 MLOAD PUSH32 0x8C379A000000000000000000000000000000000000000000000000000000000 DUP2 MSTORE PUSH1 0x4 ADD PUSH2 0x10FA SWAP1 PUSH2 0x268A JUMP JUMPDEST PUSH1 0x40 MLOAD DUP1 SWAP2 SUB SWAP1 REVERT JUMPDEST PUSH1 0x0 ISZERO ISZERO PUSH1 0xC PUSH1 0x0 SWAP1 SLOAD SWAP1 PUSH2 0x100 EXP SWAP1 DIV PUSH1 0xFF AND ISZERO ISZERO EQ PUSH2 0x1159 JUMPI PUSH1 0x40 MLOAD PUSH32 0x8C379A000000000000000000000000000000000000000000000000000000000 DUP2 MSTORE PUSH1 0x4 ADD PUSH2 0x1150 SWAP1 PUSH2 0x26CA JUMP JUMPDEST PUSH1 0x40 MLOAD DUP1 SWAP2 SUB SWAP1 REVERT JUMPDEST DUP1 PUSH1 0xC PUSH1 0x1 PUSH2 0x100 EXP DUP2 SLOAD DUP2 PUSH20 0xFFFFFFFFFFFFFFFFFFFFFFFFFFFFFFFFFFFFFFFF MUL NOT AND SWAP1 DUP4 PUSH20 0xFFFFFFFFFFFFFFFFFFFFFFFFFFFFFFFFFFFFFFFF AND MUL OR SWAP1 SSTORE POP POP JUMP JUMPDEST PUSH1 0xC PUSH1 0x1 SWAP1 SLOAD SWAP1 PUSH2 0x100 EXP SWAP1 DIV PUSH20 0xFFFFFFFFFFFFFFFFFFFFFFFFFFFFFFFFFFFFFFFF AND PUSH20 0xFFFFFFFFFFFFFFFFFFFFFFFFFFFFFFFFFFFFFFFF AND PUSH2 0x11DE PUSH2 0x14C7 JUMP JUMPDEST PUSH20 0xFFFFFFFFFFFFFFFFFFFFFFFFFFFFFFFFFFFFFFFF AND EQ PUSH2 0x1234 JUMPI PUSH1 0x40 MLOAD PUSH32 0x8C379A000000000000000000000000000000000000000000000000000000000 DUP2 MSTORE PUSH1 0x4 ADD PUSH2 0x122B SWAP1 PUSH2 0x268A JUMP JUMPDEST PUSH1 0x40 MLOAD DUP1 SWAP2 SUB SWAP1 REVERT JUMPDEST PUSH1 0x0 ISZERO ISZERO PUSH1 0xC PUSH1 0x0 SWAP1 SLOAD SWAP1 PUSH2 0x100 EXP SWAP1 DIV PUSH1 0xFF AND ISZERO ISZERO EQ PUSH2 0x128A JUMPI PUSH1 0x40 MLOAD PUSH32 0x8C379A000000000000000000000000000000000000000000000000000000000 DUP2 MSTORE PUSH1 0x4 ADD PUSH2 0x1281 SWAP1 PUSH2 0x264A JUMP JUMPDEST PUSH1 0x40 MLOAD DUP1 SWAP2 SUB SWAP1 REVERT JUMPDEST PUSH1 0x1 PUSH1 0xC PUSH1 0x0 PUSH2 0x100 EXP DUP2 SLOAD DUP2 PUSH1 0xFF MUL NOT AND SWAP1 DUP4 ISZERO ISZERO MUL OR SWAP1 SSTORE POP JUMP JUMPDEST PUSH1 0xC PUSH1 0x0 SWAP1 SLOAD SWAP1 PUSH2 0x100 EXP SWAP1 DIV PUSH1 0xFF AND DUP2 JUMP JUMPDEST PUSH1 0xC PUSH1 0x1 SWAP1 SLOAD SWAP1 PUSH2 0x100 EXP SWAP1 DIV PUSH20 0xFFFFFFFFFFFFFFFFFFFFFFFFFFFFFFFFFFFFFFFF AND DUP2 JUMP JUMPDEST PUSH1 0xC PUSH1 0x1 SWAP1 SLOAD SWAP1 PUSH2 0x100 EXP SWAP1 DIV PUSH20 0xFFFFFFFFFFFFFFFFFFFFFFFFFFFFFFFFFFFFFFFF AND PUSH20 0xFFFFFFFFFFFFFFFFFFFFFFFFFFFFFFFFFFFFFFFF AND PUSH2 0x1321 PUSH2 0x14C7 JUMP JUMPDEST PUSH20 0xFFFFFFFFFFFFFFFFFFFFFFFFFFFFFFFFFFFFFFFF AND EQ PUSH2 0x1377 JUMPI PUSH1 0x40 MLOAD PUSH32 0x8C379A000000000000000000000000000000000000000000000000000000000 DUP2 MSTORE PUSH1 0x4 ADD PUSH2 0x136E SWAP1 PUSH2 0x268A JUMP JUMPDEST PUSH1 0x40 MLOAD DUP1 SWAP2 SUB SWAP1 REVERT JUMPDEST PUSH1 0x0 ISZERO ISZERO PUSH1 0xC PUSH1 0x0 SWAP1 SLOAD SWAP1 PUSH2 0x100 EXP SWAP1 DIV PUSH1 0xFF AND ISZERO ISZERO EQ PUSH2 0x13CD JUMPI PUSH1 0x40 MLOAD PUSH32 0x8C379A000000000000000000000000000000000000000000000000000000000 DUP2 MSTORE PUSH1 0x4 ADD PUSH2 0x13C4 SWAP1 PUSH2 0x26CA JUMP JUMPDEST PUSH1 0x40 MLOAD DUP1 SWAP2 SUB SWAP1 REVERT JUMPDEST DUP1 PUSH1 0x6 DUP2 SWAP1 SSTORE POP POP JUMP JUMPDEST PUSH1 0x60 PUSH1 0x0 ISZERO ISZERO PUSH1 0xC PUSH1 0x0 SWAP1 SLOAD SWAP1 PUSH2 0x100 EXP SWAP1 DIV PUSH1 0xFF AND ISZERO ISZERO EQ PUSH2 0x142F JUMPI PUSH1 0x40 MLOAD PUSH32 0x8C379A000000000000000000000000000000000000000000000000000000000 DUP2 MSTORE PUSH1 0x4 ADD PUSH2 0x1426 SWAP1 PUSH2 0x26CA JUMP JUMPDEST PUSH1 0x40 MLOAD DUP1 SWAP2 SUB SWAP1 REVERT JUMPDEST PUSH1 0xA PUSH1 0x0 DUP4 PUSH20 0xFFFFFFFFFFFFFFFFFFFFFFFFFFFFFFFFFFFFFFFF AND PUSH20 0xFFFFFFFFFFFFFFFFFFFFFFFFFFFFFFFFFFFFFFFF AND DUP2 MSTORE PUSH1 0x20 ADD SWAP1 DUP2 MSTORE PUSH1 0x20 ADD PUSH1 0x0 KECCAK256 PUSH1 0x0 ADD DUP1 SLOAD DUP1 PUSH1 0x20 MUL PUSH1 0x20 ADD PUSH1 0x40 MLOAD SWAP1 DUP2 ADD PUSH1 0x40 MSTORE DUP1 SWAP3 SWAP2 SWAP1 DUP2 DUP2 MSTORE PUSH1 0x20 ADD DUP3 DUP1 SLOAD DUP1 ISZERO PUSH2 0x14BB JUMPI PUSH1 0x20 MUL DUP3 ADD SWAP2 SWAP1 PUSH1 0x0 MSTORE PUSH1 0x20 PUSH1 0x0 KECCAK256 SWAP1 JUMPDEST DUP2 SLOAD DUP2 MSTORE PUSH1 0x20 ADD SWAP1 PUSH1 0x1 ADD SWAP1 DUP1 DUP4 GT PUSH2 0x14A7 JUMPI JUMPDEST POP POP POP POP POP SWAP1 POP SWAP2 SWAP1 POP JUMP JUMPDEST PUSH1 0x0 CALLER SWAP1 POP SWAP1 JUMP JUMPDEST PUSH1 0x0 DUP1 PUSH1 0x14 PUSH1 0x7 SLOAD PUSH1 0x8 SLOAD PUSH1 0x9 SLOAD PUSH1 0x4 SLOAD TIMESTAMP PUSH2 0x14EB SWAP2 SWAP1 PUSH2 0x285F JUMP JUMPDEST PUSH2 0x14F5 SWAP2 SWAP1 PUSH2 0x285F JUMP JUMPDEST PUSH2 0x14FF SWAP2 SWAP1 PUSH2 0x285F JUMP JUMPDEST PUSH2 0x1509 SWAP2 SWAP1 PUSH2 0x285F JUMP JUMPDEST CALLER PUSH1 0xC PUSH1 0x1 SWAP1 SLOAD SWAP1 PUSH2 0x100 EXP SWAP1 DIV PUSH20 0xFFFFFFFFFFFFFFFFFFFFFFFFFFFFFFFFFFFFFFFF AND PUSH1 0x40 MLOAD PUSH1 0x20 ADD PUSH2 0x153F SWAP4 SWAP3 SWAP2 SWAP1 PUSH2 0x2499 JUMP JUMPDEST PUSH1 0x40 MLOAD PUSH1 0x20 DUP2 DUP4 SUB SUB DUP2 MSTORE SWAP1 PUSH1 0x40 MSTORE DUP1 MLOAD SWAP1 PUSH1 0x20 ADD KECCAK256 PUSH1 0x0 SHR PUSH2 0x1562 SWAP2 SWAP1 PUSH2 0x2B19 JUMP JUMPDEST SWAP1 POP DUP1 SWAP2 POP POP SWAP1 JUMP JUMPDEST PUSH1 0x0 DUP1 ISZERO ISZERO PUSH1 0xC PUSH1 0x0 SWAP1 SLOAD SWAP1 PUSH2 0x100 EXP SWAP1 DIV PUSH1 0xFF AND ISZERO ISZERO EQ PUSH2 0x15C2 JUMPI PUSH1 0x40 MLOAD PUSH32 0x8C379A000000000000000000000000000000000000000000000000000000000 DUP2 MSTORE PUSH1 0x4 ADD PUSH2 0x15B9 SWAP1 PUSH2 0x26CA JUMP JUMPDEST PUSH1 0x40 MLOAD DUP1 SWAP2 SUB SWAP1 REVERT JUMPDEST PUSH1 0x0 PUSH1 0x3 DUP4 PUSH1 0x14 DUP2 LT PUSH2 0x15D8 JUMPI PUSH2 0x15D7 PUSH2 0x2BD7 JUMP JUMPDEST JUMPDEST PUSH1 0x20 SWAP2 DUP3 DUP3 DIV ADD SWAP2 SWAP1 MOD SWAP1 SLOAD SWAP1 PUSH2 0x100 EXP SWAP1 DIV PUSH1 0xFF AND PUSH1 0xFF AND SWAP1 POP PUSH1 0x0 DUP2 EQ DUP1 ISZERO PUSH2 0x1605 JUMPI POP PUSH1 0x32 PUSH1 0x7 SLOAD LT JUMPDEST ISZERO PUSH2 0x166B JUMPI PUSH1 0x7 PUSH1 0x0 DUP2 SLOAD DUP1 SWAP3 SWAP2 SWAP1 PUSH2 0x161D SWAP1 PUSH2 0x2A90 JUMP JUMPDEST SWAP2 SWAP1 POP SSTORE POP PUSH2 0x162D PUSH1 0x7 SLOAD PUSH2 0x1A3E JUMP JUMPDEST PUSH1 0x40 MLOAD PUSH1 0x20 ADD PUSH2 0x163D SWAP2 SWAP1 PUSH2 0x2433 JUMP JUMPDEST PUSH1 0x40 MLOAD PUSH1 0x20 DUP2 DUP4 SUB SUB DUP2 MSTORE SWAP1 PUSH1 0x40 MSTORE PUSH1 0x2 SWAP1 DUP1 MLOAD SWAP1 PUSH1 0x20 ADD SWAP1 PUSH2 0x1661 SWAP3 SWAP2 SWAP1 PUSH2 0x1E1B JUMP JUMPDEST POP DUP1 SWAP2 POP POP PUSH2 0x1849 JUMP JUMPDEST PUSH1 0x1 DUP2 GT ISZERO DUP1 ISZERO PUSH2 0x167E JUMPI POP PUSH1 0x64 PUSH1 0x8 SLOAD LT JUMPDEST ISZERO PUSH2 0x16E4 JUMPI PUSH1 0x8 PUSH1 0x0 DUP2 SLOAD DUP1 SWAP3 SWAP2 SWAP1 PUSH2 0x1696 SWAP1 PUSH2 0x2A90 JUMP JUMPDEST SWAP2 SWAP1 POP SSTORE POP PUSH2 0x16A6 PUSH1 0x8 SLOAD PUSH2 0x1A3E JUMP JUMPDEST PUSH1 0x40 MLOAD PUSH1 0x20 ADD PUSH2 0x16B6 SWAP2 SWAP1 PUSH2 0x2455 JUMP JUMPDEST PUSH1 0x40 MLOAD PUSH1 0x20 DUP2 DUP4 SUB SUB DUP2 MSTORE SWAP1 PUSH1 0x40 MSTORE PUSH1 0x2 SWAP1 DUP1 MLOAD SWAP1 PUSH1 0x20 ADD SWAP1 PUSH2 0x16DA SWAP3 SWAP2 SWAP1 PUSH2 0x1E1B JUMP JUMPDEST POP DUP1 SWAP2 POP POP PUSH2 0x1849 JUMP JUMPDEST PUSH1 0x2 DUP2 GT ISZERO DUP1 ISZERO PUSH2 0x16F9 JUMPI POP PUSH2 0x352 PUSH1 0x9 SLOAD GT ISZERO JUMPDEST ISZERO PUSH2 0x1778 JUMPI PUSH1 0x9 PUSH1 0x0 DUP2 SLOAD DUP1 SWAP3 SWAP2 SWAP1 PUSH2 0x1711 SWAP1 PUSH2 0x2A90 JUMP JUMPDEST SWAP2 SWAP1 POP SSTORE POP PUSH2 0x1721 PUSH1 0x9 SLOAD PUSH2 0x1A3E JUMP JUMPDEST PUSH1 0x40 MLOAD PUSH1 0x20 ADD PUSH2 0x1731 SWAP2 SWAP1 PUSH2 0x2477 JUMP JUMPDEST PUSH1 0x40 MLOAD PUSH1 0x20 DUP2 DUP4 SUB SUB DUP2 MSTORE SWAP1 PUSH1 0x40 MSTORE PUSH1 0x2 SWAP1 DUP1 MLOAD SWAP1 PUSH1 0x20 ADD SWAP1 PUSH2 0x1755 SWAP3 SWAP2 SWAP1 PUSH2 0x1E1B JUMP JUMPDEST PUSH1 0x2 SWAP1 DUP1 SLOAD PUSH2 0x1763 SWAP1 PUSH2 0x2A2D JUMP JUMPDEST PUSH2 0x176E SWAP3 SWAP2 SWAP1 PUSH2 0x1EA1 JUMP JUMPDEST POP DUP1 SWAP2 POP POP PUSH2 0x1849 JUMP JUMPDEST PUSH1 0x64 PUSH1 0x8 SLOAD LT ISZERO PUSH2 0x17E8 JUMPI PUSH1 0x1 SWAP1 POP PUSH1 0x8 PUSH1 0x0 DUP2 SLOAD DUP1 SWAP3 SWAP2 SWAP1 PUSH2 0x179A SWAP1 PUSH2 0x2A90 JUMP JUMPDEST SWAP2 SWAP1 POP SSTORE POP PUSH2 0x17AA PUSH1 0x8 SLOAD PUSH2 0x1A3E JUMP JUMPDEST PUSH1 0x40 MLOAD PUSH1 0x20 ADD PUSH2 0x17BA SWAP2 SWAP1 PUSH2 0x2455 JUMP JUMPDEST PUSH1 0x40 MLOAD PUSH1 0x20 DUP2 DUP4 SUB SUB DUP2 MSTORE SWAP1 PUSH1 0x40 MSTORE PUSH1 0x2 SWAP1 DUP1 MLOAD SWAP1 PUSH1 0x20 ADD SWAP1 PUSH2 0x17DE SWAP3 SWAP2 SWAP1 PUSH2 0x1E1B JUMP JUMPDEST POP DUP1 SWAP2 POP POP PUSH2 0x1849 JUMP JUMPDEST PUSH1 0x0 SWAP1 POP PUSH1 0x7 PUSH1 0x0 DUP2 SLOAD DUP1 SWAP3 SWAP2 SWAP1 PUSH2 0x17FF SWAP1 PUSH2 0x2A90 JUMP JUMPDEST SWAP2 SWAP1 POP SSTORE POP PUSH2 0x180F PUSH1 0x7 SLOAD PUSH2 0x1A3E JUMP JUMPDEST PUSH1 0x40 MLOAD PUSH1 0x20 ADD PUSH2 0x181F SWAP2 SWAP1 PUSH2 0x2433 JUMP JUMPDEST PUSH1 0x40 MLOAD PUSH1 0x20 DUP2 DUP4 SUB SUB DUP2 MSTORE SWAP1 PUSH1 0x40 MSTORE PUSH1 0x2 SWAP1 DUP1 MLOAD SWAP1 PUSH1 0x20 ADD SWAP1 PUSH2 0x1843 SWAP3 SWAP2 SWAP1 PUSH2 0x1E1B JUMP JUMPDEST POP DUP1 SWAP2 POP POP JUMPDEST SWAP2 SWAP1 POP JUMP JUMPDEST PUSH1 0x0 PUSH20 0xFFFFFFFFFFFFFFFFFFFFFFFFFFFFFFFFFFFFFFFF AND DUP5 PUSH20 0xFFFFFFFFFFFFFFFFFFFFFFFFFFFFFFFFFFFFFFFF AND EQ ISZERO PUSH2 0x18BE JUMPI PUSH1 0x40 MLOAD PUSH32 0x8C379A000000000000000000000000000000000000000000000000000000000 DUP2 MSTORE PUSH1 0x4 ADD PUSH2 0x18B5 SWAP1 PUSH2 0x272A JUMP JUMPDEST PUSH1 0x40 MLOAD DUP1 SWAP2 SUB SWAP1 REVERT JUMPDEST PUSH1 0x0 PUSH2 0x18C8 PUSH2 0x14C7 JUMP JUMPDEST SWAP1 POP PUSH2 0x18E9 DUP2 PUSH1 0x0 DUP8 PUSH2 0x18DA DUP9 PUSH2 0x1B9F JUMP JUMPDEST PUSH2 0x18E3 DUP9 PUSH2 0x1B9F JUMP JUMPDEST DUP8 PUSH2 0x1C19 JUMP JUMPDEST DUP3 PUSH1 0x0 DUP1 DUP7 DUP2 MSTORE PUSH1 0x20 ADD SWAP1 DUP2 MSTORE PUSH1 0x20 ADD PUSH1 0x0 KECCAK256 PUSH1 0x0 DUP8 PUSH20 0xFFFFFFFFFFFFFFFFFFFFFFFFFFFFFFFFFFFFFFFF AND PUSH20 0xFFFFFFFFFFFFFFFFFFFFFFFFFFFFFFFFFFFFFFFF AND DUP2 MSTORE PUSH1 0x20 ADD SWAP1 DUP2 MSTORE PUSH1 0x20 ADD PUSH1 0x0 KECCAK256 PUSH1 0x0 DUP3 DUP3 SLOAD PUSH2 0x1948 SWAP2 SWAP1 PUSH2 0x285F JUMP JUMPDEST SWAP3 POP POP DUP2 SWAP1 SSTORE POP DUP5 PUSH20 0xFFFFFFFFFFFFFFFFFFFFFFFFFFFFFFFFFFFFFFFF AND PUSH1 0x0 PUSH20 0xFFFFFFFFFFFFFFFFFFFFFFFFFFFFFFFFFFFFFFFF AND DUP3 PUSH20 0xFFFFFFFFFFFFFFFFFFFFFFFFFFFFFFFFFFFFFFFF AND PUSH32 0xC3D58168C5AE7397731D063D5BBF3D657854427343F4C083240F7AACAA2D0F62 DUP8 DUP8 PUSH1 0x40 MLOAD PUSH2 0x19C6 SWAP3 SWAP2 SWAP1 PUSH2 0x2795 JUMP JUMPDEST PUSH1 0x40 MLOAD DUP1 SWAP2 SUB SWAP1 LOG4 PUSH2 0x19DD DUP2 PUSH1 0x0 DUP8 DUP8 DUP8 DUP8 PUSH2 0x1C21 JUMP JUMPDEST POP POP POP POP POP JUMP JUMPDEST DUP1 PUSH1 0xB PUSH1 0x0 DUP5 PUSH20 0xFFFFFFFFFFFFFFFFFFFFFFFFFFFFFFFFFFFFFFFF AND PUSH20 0xFFFFFFFFFFFFFFFFFFFFFFFFFFFFFFFFFFFFFFFF AND DUP2 MSTORE PUSH1 0x20 ADD SWAP1 DUP2 MSTORE PUSH1 0x20 ADD PUSH1 0x0 KECCAK256 PUSH1 0x0 DUP3 DUP3 SLOAD PUSH2 0x1A33 SWAP2 SWAP1 PUSH2 0x285F JUMP JUMPDEST SWAP3 POP POP DUP2 SWAP1 SSTORE POP POP POP JUMP JUMPDEST PUSH1 0x60 PUSH1 0x0 DUP3 EQ ISZERO PUSH2 0x1A86 JUMPI PUSH1 0x40 MLOAD DUP1 PUSH1 0x40 ADD PUSH1 0x40 MSTORE DUP1 PUSH1 0x1 DUP2 MSTORE PUSH1 0x20 ADD PUSH32 0x3000000000000000000000000000000000000000000000000000000000000000 DUP2 MSTORE POP SWAP1 POP PUSH2 0x1B9A JUMP JUMPDEST PUSH1 0x0 DUP3 SWAP1 POP PUSH1 0x0 JUMPDEST PUSH1 0x0 DUP3 EQ PUSH2 0x1AB8 JUMPI DUP1 DUP1 PUSH2 0x1AA1 SWAP1 PUSH2 0x2A90 JUMP JUMPDEST SWAP2 POP POP PUSH1 0xA DUP3 PUSH2 0x1AB1 SWAP2 SWAP1 PUSH2 0x28B5 JUMP JUMPDEST SWAP2 POP PUSH2 0x1A8E JUMP JUMPDEST PUSH1 0x0 DUP2 PUSH8 0xFFFFFFFFFFFFFFFF DUP2 GT ISZERO PUSH2 0x1AD4 JUMPI PUSH2 0x1AD3 PUSH2 0x2C06 JUMP JUMPDEST JUMPDEST PUSH1 0x40 MLOAD SWAP1 DUP1 DUP3 MSTORE DUP1 PUSH1 0x1F ADD PUSH1 0x1F NOT AND PUSH1 0x20 ADD DUP3 ADD PUSH1 0x40 MSTORE DUP1 ISZERO PUSH2 0x1B06 JUMPI DUP2 PUSH1 0x20 ADD PUSH1 0x1 DUP3 MUL DUP1 CALLDATASIZE DUP4 CALLDATACOPY DUP1 DUP3 ADD SWAP2 POP POP SWAP1 POP JUMPDEST POP SWAP1 POP JUMPDEST PUSH1 0x0 DUP6 EQ PUSH2 0x1B93 JUMPI PUSH1 0x1 DUP3 PUSH2 0x1B1F SWAP2 SWAP1 PUSH2 0x2940 JUMP JUMPDEST SWAP2 POP PUSH1 0xA DUP6 PUSH2 0x1B2E SWAP2 SWAP1 PUSH2 0x2B19 JUMP JUMPDEST PUSH1 0x30 PUSH2 0x1B3A SWAP2 SWAP1 PUSH2 0x285F JUMP JUMPDEST PUSH1 0xF8 SHL DUP2 DUP4 DUP2 MLOAD DUP2 LT PUSH2 0x1B50 JUMPI PUSH2 0x1B4F PUSH2 0x2BD7 JUMP JUMPDEST JUMPDEST PUSH1 0x20 ADD ADD SWAP1 PUSH31 0xFFFFFFFFFFFFFFFFFFFFFFFFFFFFFFFFFFFFFFFFFFFFFFFFFFFFFFFFFFFFFF NOT AND SWAP1 DUP2 PUSH1 0x0 BYTE SWAP1 MSTORE8 POP PUSH1 0xA DUP6 PUSH2 0x1B8C SWAP2 SWAP1 PUSH2 0x28B5 JUMP JUMPDEST SWAP5 POP PUSH2 0x1B0A JUMP JUMPDEST DUP1 SWAP4 POP POP POP POP JUMPDEST SWAP2 SWAP1 POP JUMP JUMPDEST PUSH1 0x60 PUSH1 0x0 PUSH1 0x1 PUSH8 0xFFFFFFFFFFFFFFFF DUP2 GT ISZERO PUSH2 0x1BBE JUMPI PUSH2 0x1BBD PUSH2 0x2C06 JUMP JUMPDEST JUMPDEST PUSH1 0x40 MLOAD SWAP1 DUP1 DUP3 MSTORE DUP1 PUSH1 0x20 MUL PUSH1 0x20 ADD DUP3 ADD PUSH1 0x40 MSTORE DUP1 ISZERO PUSH2 0x1BEC JUMPI DUP2 PUSH1 0x20 ADD PUSH1 0x20 DUP3 MUL DUP1 CALLDATASIZE DUP4 CALLDATACOPY DUP1 DUP3 ADD SWAP2 POP POP SWAP1 POP JUMPDEST POP SWAP1 POP DUP3 DUP2 PUSH1 0x0 DUP2 MLOAD DUP2 LT PUSH2 0x1C04 JUMPI PUSH2 0x1C03 PUSH2 0x2BD7 JUMP JUMPDEST JUMPDEST PUSH1 0x20 MUL PUSH1 0x20 ADD ADD DUP2 DUP2 MSTORE POP POP DUP1 SWAP2 POP POP SWAP2 SWAP1 POP JUMP JUMPDEST POP POP POP POP POP POP JUMP JUMPDEST PUSH2 0x1C40 DUP5 PUSH20 0xFFFFFFFFFFFFFFFFFFFFFFFFFFFFFFFFFFFFFFFF AND PUSH2 0x1E08 JUMP JUMPDEST ISZERO PUSH2 0x1E00 JUMPI DUP4 PUSH20 0xFFFFFFFFFFFFFFFFFFFFFFFFFFFFFFFFFFFFFFFF AND PUSH4 0xAE89A248 DUP8 DUP8 DUP7 DUP7 DUP7 PUSH1 0x40 MLOAD DUP7 PUSH4 0xFFFFFFFF AND PUSH1 0xE0 SHL DUP2 MSTORE PUSH1 0x4 ADD PUSH2 0x1C86 SWAP6 SWAP5 SWAP4 SWAP3 SWAP2 SWAP1 PUSH2 0x24F1 JUMP JUMPDEST PUSH1 0x20 PUSH1 0x40 MLOAD DUP1 DUP4 SUB DUP2 PUSH1 0x0 DUP8 DUP1 EXTCODESIZE ISZERO DUP1 ISZERO PUSH2 0x1CA0 JUMPI PUSH1 0x0 DUP1 REVERT JUMPDEST POP GAS CALL SWAP3 POP POP POP DUP1 ISZERO PUSH2 0x1CD1 JUMPI POP PUSH1 0x40 MLOAD RETURNDATASIZE PUSH1 0x1F NOT PUSH1 0x1F DUP3 ADD AND DUP3 ADD DUP1 PUSH1 0x40 MSTORE POP DUP2 ADD SWAP1 PUSH2 0x1CCE SWAP2 SWAP1 PUSH2 0x2039 JUMP JUMPDEST PUSH1 0x1 JUMPDEST PUSH2 0x1D77 JUMPI PUSH2 0x1CDD PUSH2 0x2C35 JUMP JUMPDEST DUP1 PUSH4 0x8C379A0 EQ ISZERO PUSH2 0x1D3A JUMPI POP PUSH2 0x1CF2 PUSH2 0x2F89 JUMP JUMPDEST DUP1 PUSH2 0x1CFD JUMPI POP PUSH2 0x1D3C JUMP JUMPDEST DUP1 PUSH1 0x40 MLOAD PUSH32 0x8C379A000000000000000000000000000000000000000000000000000000000 DUP2 MSTORE PUSH1 0x4 ADD PUSH2 0x1D31 SWAP2 SWAP1 PUSH2 0x2588 JUMP JUMPDEST PUSH1 0x40 MLOAD DUP1 SWAP2 SUB SWAP1 REVERT JUMPDEST POP JUMPDEST PUSH1 0x40 MLOAD PUSH32 0x8C379A000000000000000000000000000000000000000000000000000000000 DUP2 MSTORE PUSH1 0x4 ADD PUSH2 0x1D6E SWAP1 PUSH2 0x25AA JUMP JUMPDEST PUSH1 0x40 MLOAD DUP1 SWAP2 SUB SWAP1 REVERT JUMPDEST PUSH4 0xAE89A248 PUSH1 0xE0 SHL PUSH28 0xFFFFFFFFFFFFFFFFFFFFFFFFFFFFFFFFFFFFFFFFFFFFFFFFFFFFFFFF NOT AND DUP2 PUSH28 0xFFFFFFFFFFFFFFFFFFFFFFFFFFFFFFFFFFFFFFFFFFFFFFFFFFFFFFFF NOT AND EQ PUSH2 0x1DFE JUMPI PUSH1 0x40 MLOAD PUSH32 0x8C379A000000000000000000000000000000000000000000000000000000000 DUP2 MSTORE PUSH1 0x4 ADD PUSH2 0x1DF5 SWAP1 PUSH2 0x25CA JUMP JUMPDEST PUSH1 0x40 MLOAD DUP1 SWAP2 SUB SWAP1 REVERT JUMPDEST POP JUMPDEST POP POP POP POP POP POP JUMP JUMPDEST PUSH1 0x0 DUP1 DUP3 EXTCODESIZE SWAP1 POP PUSH1 0x0 DUP2 GT SWAP2 POP POP SWAP2 SWAP1 POP JUMP JUMPDEST DUP3 DUP1 SLOAD PUSH2 0x1E27 SWAP1 PUSH2 0x2A2D JUMP JUMPDEST SWAP1 PUSH1 0x0 MSTORE PUSH1 0x20 PUSH1 0x0 KECCAK256 SWAP1 PUSH1 0x1F ADD PUSH1 0x20 SWAP1 DIV DUP2 ADD SWAP3 DUP3 PUSH2 0x1E49 JUMPI PUSH1 0x0 DUP6 SSTORE PUSH2 0x1E90 JUMP JUMPDEST DUP3 PUSH1 0x1F LT PUSH2 0x1E62 JUMPI DUP1 MLOAD PUSH1 0xFF NOT AND DUP4 DUP1 ADD OR DUP6 SSTORE PUSH2 0x1E90 JUMP JUMPDEST DUP3 DUP1 ADD PUSH1 0x1 ADD DUP6 SSTORE DUP3 ISZERO PUSH2 0x1E90 JUMPI SWAP2 DUP3 ADD JUMPDEST DUP3 DUP2 GT ISZERO PUSH2 0x1E8F JUMPI DUP3 MLOAD DUP3 SSTORE SWAP2 PUSH1 0x20 ADD SWAP2 SWAP1 PUSH1 0x1 ADD SWAP1 PUSH2 0x1E74 JUMP JUMPDEST JUMPDEST POP SWAP1 POP PUSH2 0x1E9D SWAP2 SWAP1 PUSH2 0x1F2E JUMP JUMPDEST POP SWAP1 JUMP JUMPDEST DUP3 DUP1 SLOAD PUSH2 0x1EAD SWAP1 PUSH2 0x2A2D JUMP JUMPDEST SWAP1 PUSH1 0x0 MSTORE PUSH1 0x20 PUSH1 0x0 KECCAK256 SWAP1 PUSH1 0x1F ADD PUSH1 0x20 SWAP1 DIV DUP2 ADD SWAP3 DUP3 PUSH2 0x1ECF JUMPI PUSH1 0x0 DUP6 SSTORE PUSH2 0x1F1D JUMP JUMPDEST DUP3 PUSH1 0x1F LT PUSH2 0x1EE0 JUMPI DUP1 SLOAD DUP6 SSTORE PUSH2 0x1F1D JUMP JUMPDEST DUP3 DUP1 ADD PUSH1 0x1 ADD DUP6 SSTORE DUP3 ISZERO PUSH2 0x1F1D JUMPI PUSH1 0x0 MSTORE PUSH1 0x20 PUSH1 0x0 KECCAK256 SWAP2 PUSH1 0x1F ADD PUSH1 0x20 SWAP1 DIV DUP3 ADD JUMPDEST DUP3 DUP2 GT ISZERO PUSH2 0x1F1C JUMPI DUP3 SLOAD DUP3 SSTORE SWAP2 PUSH1 0x1 ADD SWAP2 SWAP1 PUSH1 0x1 ADD SWAP1 PUSH2 0x1F01 JUMP JUMPDEST JUMPDEST POP SWAP1 POP PUSH2 0x1F2A SWAP2 SWAP1 PUSH2 0x1F2E JUMP JUMPDEST POP SWAP1 JUMP JUMPDEST JUMPDEST DUP1 DUP3 GT ISZERO PUSH2 0x1F47 JUMPI PUSH1 0x0 DUP2 PUSH1 0x0 SWAP1 SSTORE POP PUSH1 0x1 ADD PUSH2 0x1F2F JUMP JUMPDEST POP SWAP1 JUMP JUMPDEST PUSH1 0x0 DUP2 CALLDATALOAD SWAP1 POP PUSH2 0x1F5A DUP2 PUSH2 0x301F JUMP JUMPDEST SWAP3 SWAP2 POP POP JUMP JUMPDEST PUSH1 0x0 DUP2 CALLDATALOAD SWAP1 POP PUSH2 0x1F6F DUP2 PUSH2 0x3036 JUMP JUMPDEST SWAP3 SWAP2 POP POP JUMP JUMPDEST PUSH1 0x0 DUP2 MLOAD SWAP1 POP PUSH2 0x1F84 DUP2 PUSH2 0x304D JUMP JUMPDEST SWAP3 SWAP2 POP POP JUMP JUMPDEST PUSH1 0x0 DUP2 CALLDATALOAD SWAP1 POP PUSH2 0x1F99 DUP2 PUSH2 0x3064 JUMP JUMPDEST SWAP3 SWAP2 POP POP JUMP JUMPDEST PUSH1 0x0 PUSH1 0x20 DUP3 DUP5 SUB SLT ISZERO PUSH2 0x1FB5 JUMPI PUSH2 0x1FB4 PUSH2 0x2C57 JUMP JUMPDEST JUMPDEST PUSH1 0x0 PUSH2 0x1FC3 DUP5 DUP3 DUP6 ADD PUSH2 0x1F4B JUMP JUMPDEST SWAP2 POP POP SWAP3 SWAP2 POP POP JUMP JUMPDEST PUSH1 0x0 PUSH1 0x20 DUP3 DUP5 SUB SLT ISZERO PUSH2 0x1FE2 JUMPI PUSH2 0x1FE1 PUSH2 0x2C57 JUMP JUMPDEST JUMPDEST PUSH1 0x0 PUSH2 0x1FF0 DUP5 DUP3 DUP6 ADD PUSH2 0x1F60 JUMP JUMPDEST SWAP2 POP POP SWAP3 SWAP2 POP POP JUMP JUMPDEST PUSH1 0x0 DUP1 PUSH1 0x40 DUP4 DUP6 SUB SLT ISZERO PUSH2 0x2010 JUMPI PUSH2 0x200F PUSH2 0x2C57 JUMP JUMPDEST JUMPDEST PUSH1 0x0 PUSH2 0x201E DUP6 DUP3 DUP7 ADD PUSH2 0x1F4B JUMP JUMPDEST SWAP3 POP POP PUSH1 0x20 PUSH2 0x202F DUP6 DUP3 DUP7 ADD PUSH2 0x1F8A JUMP JUMPDEST SWAP2 POP POP SWAP3 POP SWAP3 SWAP1 POP JUMP JUMPDEST PUSH1 0x0 PUSH1 0x20 DUP3 DUP5 SUB SLT ISZERO PUSH2 0x204F JUMPI PUSH2 0x204E PUSH2 0x2C57 JUMP JUMPDEST JUMPDEST PUSH1 0x0 PUSH2 0x205D DUP5 DUP3 DUP6 ADD PUSH2 0x1F75 JUMP JUMPDEST SWAP2 POP POP SWAP3 SWAP2 POP POP JUMP JUMPDEST PUSH1 0x0 PUSH1 0x20 DUP3 DUP5 SUB SLT ISZERO PUSH2 0x207C JUMPI PUSH2 0x207B PUSH2 0x2C57 JUMP JUMPDEST JUMPDEST PUSH1 0x0 PUSH2 0x208A DUP5 DUP3 DUP6 ADD PUSH2 0x1F8A JUMP JUMPDEST SWAP2 POP POP SWAP3 SWAP2 POP POP JUMP JUMPDEST PUSH1 0x0 PUSH2 0x209F DUP4 DUP4 PUSH2 0x23FE JUMP JUMPDEST PUSH1 0x20 DUP4 ADD SWAP1 POP SWAP3 SWAP2 POP POP JUMP JUMPDEST PUSH2 0x20B4 DUP2 PUSH2 0x2986 JUMP JUMPDEST DUP3 MSTORE POP POP JUMP JUMPDEST PUSH2 0x20CB PUSH2 0x20C6 DUP3 PUSH2 0x2986 JUMP JUMPDEST PUSH2 0x2AEB JUMP JUMPDEST DUP3 MSTORE POP POP JUMP JUMPDEST PUSH2 0x20DA DUP2 PUSH2 0x2974 JUMP JUMPDEST DUP3 MSTORE POP POP JUMP JUMPDEST PUSH2 0x20F1 PUSH2 0x20EC DUP3 PUSH2 0x2974 JUMP JUMPDEST PUSH2 0x2AD9 JUMP JUMPDEST DUP3 MSTORE POP POP JUMP JUMPDEST PUSH1 0x0 PUSH2 0x2102 DUP3 PUSH2 0x280F JUMP JUMPDEST PUSH2 0x210C DUP2 DUP6 PUSH2 0x2832 JUMP JUMPDEST SWAP4 POP PUSH2 0x2117 DUP4 PUSH2 0x27FF JUMP JUMPDEST DUP1 PUSH1 0x0 JUMPDEST DUP4 DUP2 LT ISZERO PUSH2 0x2148 JUMPI DUP2 MLOAD PUSH2 0x212F DUP9 DUP3 PUSH2 0x2093 JUMP JUMPDEST SWAP8 POP PUSH2 0x213A DUP4 PUSH2 0x2825 JUMP JUMPDEST SWAP3 POP POP PUSH1 0x1 DUP2 ADD SWAP1 POP PUSH2 0x211B JUMP JUMPDEST POP DUP6 SWAP4 POP POP POP POP SWAP3 SWAP2 POP POP JUMP JUMPDEST PUSH2 0x215E DUP2 PUSH2 0x2998 JUMP JUMPDEST DUP3 MSTORE POP POP JUMP JUMPDEST PUSH1 0x0 PUSH2 0x216F DUP3 PUSH2 0x281A JUMP JUMPDEST PUSH2 0x2179 DUP2 DUP6 PUSH2 0x2843 JUMP JUMPDEST SWAP4 POP PUSH2 0x2189 DUP2 DUP6 PUSH1 0x20 DUP7 ADD PUSH2 0x29FA JUMP JUMPDEST PUSH2 0x2192 DUP2 PUSH2 0x2C5C JUMP JUMPDEST DUP5 ADD SWAP2 POP POP SWAP3 SWAP2 POP POP JUMP JUMPDEST PUSH1 0x0 PUSH2 0x21A8 DUP3 PUSH2 0x281A JUMP JUMPDEST PUSH2 0x21B2 DUP2 DUP6 PUSH2 0x2854 JUMP JUMPDEST SWAP4 POP PUSH2 0x21C2 DUP2 DUP6 PUSH1 0x20 DUP7 ADD PUSH2 0x29FA JUMP JUMPDEST DUP1 DUP5 ADD SWAP2 POP POP SWAP3 SWAP2 POP POP JUMP JUMPDEST PUSH1 0x0 PUSH2 0x21DB PUSH1 0x34 DUP4 PUSH2 0x2843 JUMP JUMPDEST SWAP2 POP PUSH2 0x21E6 DUP3 PUSH2 0x2C87 JUMP JUMPDEST PUSH1 0x40 DUP3 ADD SWAP1 POP SWAP2 SWAP1 POP JUMP JUMPDEST PUSH1 0x0 PUSH2 0x21FE PUSH1 0x28 DUP4 PUSH2 0x2843 JUMP JUMPDEST SWAP2 POP PUSH2 0x2209 DUP3 PUSH2 0x2CD6 JUMP JUMPDEST PUSH1 0x40 DUP3 ADD SWAP1 POP SWAP2 SWAP1 POP JUMP JUMPDEST PUSH1 0x0 PUSH2 0x2221 PUSH1 0x8 DUP4 PUSH2 0x2854 JUMP JUMPDEST SWAP2 POP PUSH2 0x222C DUP3 PUSH2 0x2D25 JUMP JUMPDEST PUSH1 0x8 DUP3 ADD SWAP1 POP SWAP2 SWAP1 POP JUMP JUMPDEST PUSH1 0x0 PUSH2 0x2244 PUSH1 0x10 DUP4 PUSH2 0x2843 JUMP JUMPDEST SWAP2 POP PUSH2 0x224F DUP3 PUSH2 0x2D4E JUMP JUMPDEST PUSH1 0x20 DUP3 ADD SWAP1 POP SWAP2 SWAP1 POP JUMP JUMPDEST PUSH1 0x0 PUSH2 0x2267 PUSH1 0x5 DUP4 PUSH2 0x2854 JUMP JUMPDEST SWAP2 POP PUSH2 0x2272 DUP3 PUSH2 0x2D77 JUMP JUMPDEST PUSH1 0x5 DUP3 ADD SWAP1 POP SWAP2 SWAP1 POP JUMP JUMPDEST PUSH1 0x0 PUSH2 0x228A PUSH1 0x12 DUP4 PUSH2 0x2843 JUMP JUMPDEST SWAP2 POP PUSH2 0x2295 DUP3 PUSH2 0x2DA0 JUMP JUMPDEST PUSH1 0x20 DUP3 ADD SWAP1 POP SWAP2 SWAP1 POP JUMP JUMPDEST PUSH1 0x0 PUSH2 0x22AD PUSH1 0x1B DUP4 PUSH2 0x2843 JUMP JUMPDEST SWAP2 POP PUSH2 0x22B8 DUP3 PUSH2 0x2DC9 JUMP JUMPDEST PUSH1 0x20 DUP3 ADD SWAP1 POP SWAP2 SWAP1 POP JUMP JUMPDEST PUSH1 0x0 PUSH2 0x22D0 PUSH1 0x1B DUP4 PUSH2 0x2843 JUMP JUMPDEST SWAP2 POP PUSH2 0x22DB DUP3 PUSH2 0x2DF2 JUMP JUMPDEST PUSH1 0x20 DUP3 ADD SWAP1 POP SWAP2 SWAP1 POP JUMP JUMPDEST PUSH1 0x0 PUSH2 0x22F3 PUSH1 0x15 DUP4 PUSH2 0x2843 JUMP JUMPDEST SWAP2 POP PUSH2 0x22FE DUP3 PUSH2 0x2E1B JUMP JUMPDEST PUSH1 0x20 DUP3 ADD SWAP1 POP SWAP2 SWAP1 POP JUMP JUMPDEST PUSH1 0x0 PUSH2 0x2316 PUSH1 0x1C DUP4 PUSH2 0x2843 JUMP JUMPDEST SWAP2 POP PUSH2 0x2321 DUP3 PUSH2 0x2E44 JUMP JUMPDEST PUSH1 0x20 DUP3 ADD SWAP1 POP SWAP2 SWAP1 POP JUMP JUMPDEST PUSH1 0x0 PUSH2 0x2339 PUSH1 0x1F DUP4 PUSH2 0x2843 JUMP JUMPDEST SWAP2 POP PUSH2 0x2344 DUP3 PUSH2 0x2E6D JUMP JUMPDEST PUSH1 0x20 DUP3 ADD SWAP1 POP SWAP2 SWAP1 POP JUMP JUMPDEST PUSH1 0x0 PUSH2 0x235C PUSH1 0x1B DUP4 PUSH2 0x2843 JUMP JUMPDEST SWAP2 POP PUSH2 0x2367 DUP3 PUSH2 0x2E96 JUMP JUMPDEST PUSH1 0x20 DUP3 ADD SWAP1 POP SWAP2 SWAP1 POP JUMP JUMPDEST PUSH1 0x0 PUSH2 0x237F PUSH1 0x19 DUP4 PUSH2 0x2843 JUMP JUMPDEST SWAP2 POP PUSH2 0x238A DUP3 PUSH2 0x2EBF JUMP JUMPDEST PUSH1 0x20 DUP3 ADD SWAP1 POP SWAP2 SWAP1 POP JUMP JUMPDEST PUSH1 0x0 PUSH2 0x23A2 PUSH1 0x7 DUP4 PUSH2 0x2854 JUMP JUMPDEST SWAP2 POP PUSH2 0x23AD DUP3 PUSH2 0x2EE8 JUMP JUMPDEST PUSH1 0x7 DUP3 ADD SWAP1 POP SWAP2 SWAP1 POP JUMP JUMPDEST PUSH1 0x0 PUSH2 0x23C5 PUSH1 0x1D DUP4 PUSH2 0x2843 JUMP JUMPDEST SWAP2 POP PUSH2 0x23D0 DUP3 PUSH2 0x2F11 JUMP JUMPDEST PUSH1 0x20 DUP3 ADD SWAP1 POP SWAP2 SWAP1 POP JUMP JUMPDEST PUSH1 0x0 PUSH2 0x23E8 PUSH1 0x21 DUP4 PUSH2 0x2843 JUMP JUMPDEST SWAP2 POP PUSH2 0x23F3 DUP3 PUSH2 0x2F3A JUMP JUMPDEST PUSH1 0x40 DUP3 ADD SWAP1 POP SWAP2 SWAP1 POP JUMP JUMPDEST PUSH2 0x2407 DUP2 PUSH2 0x29F0 JUMP JUMPDEST DUP3 MSTORE POP POP JUMP JUMPDEST PUSH2 0x2416 DUP2 PUSH2 0x29F0 JUMP JUMPDEST DUP3 MSTORE POP POP JUMP JUMPDEST PUSH2 0x242D PUSH2 0x2428 DUP3 PUSH2 0x29F0 JUMP JUMPDEST PUSH2 0x2B0F JUMP JUMPDEST DUP3 MSTORE POP POP JUMP JUMPDEST PUSH1 0x0 PUSH2 0x243E DUP3 PUSH2 0x2214 JUMP JUMPDEST SWAP2 POP PUSH2 0x244A DUP3 DUP5 PUSH2 0x219D JUMP JUMPDEST SWAP2 POP DUP2 SWAP1 POP SWAP3 SWAP2 POP POP JUMP JUMPDEST PUSH1 0x0 PUSH2 0x2460 DUP3 PUSH2 0x225A JUMP JUMPDEST SWAP2 POP PUSH2 0x246C DUP3 DUP5 PUSH2 0x219D JUMP JUMPDEST SWAP2 POP DUP2 SWAP1 POP SWAP3 SWAP2 POP POP JUMP JUMPDEST PUSH1 0x0 PUSH2 0x2482 DUP3 PUSH2 0x2395 JUMP JUMPDEST SWAP2 POP PUSH2 0x248E DUP3 DUP5 PUSH2 0x219D JUMP JUMPDEST SWAP2 POP DUP2 SWAP1 POP SWAP3 SWAP2 POP POP JUMP JUMPDEST PUSH1 0x0 PUSH2 0x24A5 DUP3 DUP7 PUSH2 0x241C JUMP JUMPDEST PUSH1 0x20 DUP3 ADD SWAP2 POP PUSH2 0x24B5 DUP3 DUP6 PUSH2 0x20E0 JUMP JUMPDEST PUSH1 0x14 DUP3 ADD SWAP2 POP PUSH2 0x24C5 DUP3 DUP5 PUSH2 0x20BA JUMP JUMPDEST PUSH1 0x14 DUP3 ADD SWAP2 POP DUP2 SWAP1 POP SWAP5 SWAP4 POP POP POP POP JUMP JUMPDEST PUSH1 0x0 PUSH1 0x20 DUP3 ADD SWAP1 POP PUSH2 0x24EB PUSH1 0x0 DUP4 ADD DUP5 PUSH2 0x20AB JUMP JUMPDEST SWAP3 SWAP2 POP POP JUMP JUMPDEST PUSH1 0x0 PUSH1 0xA0 DUP3 ADD SWAP1 POP PUSH2 0x2506 PUSH1 0x0 DUP4 ADD DUP9 PUSH2 0x20D1 JUMP JUMPDEST PUSH2 0x2513 PUSH1 0x20 DUP4 ADD DUP8 PUSH2 0x20D1 JUMP JUMPDEST PUSH2 0x2520 PUSH1 0x40 DUP4 ADD DUP7 PUSH2 0x240D JUMP JUMPDEST PUSH2 0x252D PUSH1 0x60 DUP4 ADD DUP6 PUSH2 0x240D JUMP JUMPDEST DUP2 DUP2 SUB PUSH1 0x80 DUP4 ADD MSTORE PUSH2 0x253F DUP2 DUP5 PUSH2 0x2164 JUMP JUMPDEST SWAP1 POP SWAP7 SWAP6 POP POP POP POP POP POP JUMP JUMPDEST PUSH1 0x0 PUSH1 0x20 DUP3 ADD SWAP1 POP DUP2 DUP2 SUB PUSH1 0x0 DUP4 ADD MSTORE PUSH2 0x2565 DUP2 DUP5 PUSH2 0x20F7 JUMP JUMPDEST SWAP1 POP SWAP3 SWAP2 POP POP JUMP JUMPDEST PUSH1 0x0 PUSH1 0x20 DUP3 ADD SWAP1 POP PUSH2 0x2582 PUSH1 0x0 DUP4 ADD DUP5 PUSH2 0x2155 JUMP JUMPDEST SWAP3 SWAP2 POP POP JUMP JUMPDEST PUSH1 0x0 PUSH1 0x20 DUP3 ADD SWAP1 POP DUP2 DUP2 SUB PUSH1 0x0 DUP4 ADD MSTORE PUSH2 0x25A2 DUP2 DUP5 PUSH2 0x2164 JUMP JUMPDEST SWAP1 POP SWAP3 SWAP2 POP POP JUMP JUMPDEST PUSH1 0x0 PUSH1 0x20 DUP3 ADD SWAP1 POP DUP2 DUP2 SUB PUSH1 0x0 DUP4 ADD MSTORE PUSH2 0x25C3 DUP2 PUSH2 0x21CE JUMP JUMPDEST SWAP1 POP SWAP2 SWAP1 POP JUMP JUMPDEST PUSH1 0x0 PUSH1 0x20 DUP3 ADD SWAP1 POP DUP2 DUP2 SUB PUSH1 0x0 DUP4 ADD MSTORE PUSH2 0x25E3 DUP2 PUSH2 0x21F1 JUMP JUMPDEST SWAP1 POP SWAP2 SWAP1 POP JUMP JUMPDEST PUSH1 0x0 PUSH1 0x20 DUP3 ADD SWAP1 POP DUP2 DUP2 SUB PUSH1 0x0 DUP4 ADD MSTORE PUSH2 0x2603 DUP2 PUSH2 0x2237 JUMP JUMPDEST SWAP1 POP SWAP2 SWAP1 POP JUMP JUMPDEST PUSH1 0x0 PUSH1 0x20 DUP3 ADD SWAP1 POP DUP2 DUP2 SUB PUSH1 0x0 DUP4 ADD MSTORE PUSH2 0x2623 DUP2 PUSH2 0x227D JUMP JUMPDEST SWAP1 POP SWAP2 SWAP1 POP JUMP JUMPDEST PUSH1 0x0 PUSH1 0x20 DUP3 ADD SWAP1 POP DUP2 DUP2 SUB PUSH1 0x0 DUP4 ADD MSTORE PUSH2 0x2643 DUP2 PUSH2 0x22A0 JUMP JUMPDEST SWAP1 POP SWAP2 SWAP1 POP JUMP JUMPDEST PUSH1 0x0 PUSH1 0x20 DUP3 ADD SWAP1 POP DUP2 DUP2 SUB PUSH1 0x0 DUP4 ADD MSTORE PUSH2 0x2663 DUP2 PUSH2 0x22C3 JUMP JUMPDEST SWAP1 POP SWAP2 SWAP1 POP JUMP JUMPDEST PUSH1 0x0 PUSH1 0x20 DUP3 ADD SWAP1 POP DUP2 DUP2 SUB PUSH1 0x0 DUP4 ADD MSTORE PUSH2 0x2683 DUP2 PUSH2 0x22E6 JUMP JUMPDEST SWAP1 POP SWAP2 SWAP1 POP JUMP JUMPDEST PUSH1 0x0 PUSH1 0x20 DUP3 ADD SWAP1 POP DUP2 DUP2 SUB PUSH1 0x0 DUP4 ADD MSTORE PUSH2 0x26A3 DUP2 PUSH2 0x2309 JUMP JUMPDEST SWAP1 POP SWAP2 SWAP1 POP JUMP JUMPDEST PUSH1 0x0 PUSH1 0x20 DUP3 ADD SWAP1 POP DUP2 DUP2 SUB PUSH1 0x0 DUP4 ADD MSTORE PUSH2 0x26C3 DUP2 PUSH2 0x232C JUMP JUMPDEST SWAP1 POP SWAP2 SWAP1 POP JUMP JUMPDEST PUSH1 0x0 PUSH1 0x20 DUP3 ADD SWAP1 POP DUP2 DUP2 SUB PUSH1 0x0 DUP4 ADD MSTORE PUSH2 0x26E3 DUP2 PUSH2 0x234F JUMP JUMPDEST SWAP1 POP SWAP2 SWAP1 POP JUMP JUMPDEST PUSH1 0x0 PUSH1 0x20 DUP3 ADD SWAP1 POP DUP2 DUP2 SUB PUSH1 0x0 DUP4 ADD MSTORE PUSH2 0x2703 DUP2 PUSH2 0x2372 JUMP JUMPDEST SWAP1 POP SWAP2 SWAP1 POP JUMP JUMPDEST PUSH1 0x0 PUSH1 0x20 DUP3 ADD SWAP1 POP DUP2 DUP2 SUB PUSH1 0x0 DUP4 ADD MSTORE PUSH2 0x2723 DUP2 PUSH2 0x23B8 JUMP JUMPDEST SWAP1 POP SWAP2 SWAP1 POP JUMP JUMPDEST PUSH1 0x0 PUSH1 0x20 DUP3 ADD SWAP1 POP DUP2 DUP2 SUB PUSH1 0x0 DUP4 ADD MSTORE PUSH2 0x2743 DUP2 PUSH2 0x23DB JUMP JUMPDEST SWAP1 POP SWAP2 SWAP1 POP JUMP JUMPDEST PUSH1 0x0 PUSH1 0x20 DUP3 ADD SWAP1 POP PUSH2 0x275F PUSH1 0x0 DUP4 ADD DUP5 PUSH2 0x240D JUMP JUMPDEST SWAP3 SWAP2 POP POP JUMP JUMPDEST PUSH1 0x0 PUSH1 0x40 DUP3 ADD SWAP1 POP PUSH2 0x277A PUSH1 0x0 DUP4 ADD DUP6 PUSH2 0x240D JUMP JUMPDEST DUP2 DUP2 SUB PUSH1 0x20 DUP4 ADD MSTORE PUSH2 0x278C DUP2 DUP5 PUSH2 0x2164 JUMP JUMPDEST SWAP1 POP SWAP4 SWAP3 POP POP POP JUMP JUMPDEST PUSH1 0x0 PUSH1 0x40 DUP3 ADD SWAP1 POP PUSH2 0x27AA PUSH1 0x0 DUP4 ADD DUP6 PUSH2 0x240D JUMP JUMPDEST PUSH2 0x27B7 PUSH1 0x20 DUP4 ADD DUP5 PUSH2 0x240D JUMP JUMPDEST SWAP4 SWAP3 POP POP POP JUMP JUMPDEST PUSH1 0x0 PUSH1 0x60 DUP3 ADD SWAP1 POP PUSH2 0x27D3 PUSH1 0x0 DUP4 ADD DUP7 PUSH2 0x240D JUMP JUMPDEST PUSH2 0x27E0 PUSH1 0x20 DUP4 ADD DUP6 PUSH2 0x240D JUMP JUMPDEST PUSH2 0x27ED PUSH1 0x40 DUP4 ADD DUP5 PUSH2 0x240D JUMP JUMPDEST SWAP5 SWAP4 POP POP POP POP JUMP JUMPDEST PUSH1 0x0 PUSH1 0x40 MLOAD SWAP1 POP SWAP1 JUMP JUMPDEST PUSH1 0x0 DUP2 SWAP1 POP PUSH1 0x20 DUP3 ADD SWAP1 POP SWAP2 SWAP1 POP JUMP JUMPDEST PUSH1 0x0 DUP2 MLOAD SWAP1 POP SWAP2 SWAP1 POP JUMP JUMPDEST PUSH1 0x0 DUP2 MLOAD SWAP1 POP SWAP2 SWAP1 POP JUMP JUMPDEST PUSH1 0x0 PUSH1 0x20 DUP3 ADD SWAP1 POP SWAP2 SWAP1 POP JUMP JUMPDEST PUSH1 0x0 DUP3 DUP3 MSTORE PUSH1 0x20 DUP3 ADD SWAP1 POP SWAP3 SWAP2 POP POP JUMP JUMPDEST PUSH1 0x0 DUP3 DUP3 MSTORE PUSH1 0x20 DUP3 ADD SWAP1 POP SWAP3 SWAP2 POP POP JUMP JUMPDEST PUSH1 0x0 DUP2 SWAP1 POP SWAP3 SWAP2 POP POP JUMP JUMPDEST PUSH1 0x0 PUSH2 0x286A DUP3 PUSH2 0x29F0 JUMP JUMPDEST SWAP2 POP PUSH2 0x2875 DUP4 PUSH2 0x29F0 JUMP JUMPDEST SWAP3 POP DUP3 PUSH32 0xFFFFFFFFFFFFFFFFFFFFFFFFFFFFFFFFFFFFFFFFFFFFFFFFFFFFFFFFFFFFFFFF SUB DUP3 GT ISZERO PUSH2 0x28AA JUMPI PUSH2 0x28A9 PUSH2 0x2B4A JUMP JUMPDEST JUMPDEST DUP3 DUP3 ADD SWAP1 POP SWAP3 SWAP2 POP POP JUMP JUMPDEST PUSH1 0x0 PUSH2 0x28C0 DUP3 PUSH2 0x29F0 JUMP JUMPDEST SWAP2 POP PUSH2 0x28CB DUP4 PUSH2 0x29F0 JUMP JUMPDEST SWAP3 POP DUP3 PUSH2 0x28DB JUMPI PUSH2 0x28DA PUSH2 0x2B79 JUMP JUMPDEST JUMPDEST DUP3 DUP3 DIV SWAP1 POP SWAP3 SWAP2 POP POP JUMP JUMPDEST PUSH1 0x0 PUSH2 0x28F1 DUP3 PUSH2 0x29F0 JUMP JUMPDEST SWAP2 POP PUSH2 0x28FC DUP4 PUSH2 0x29F0 JUMP JUMPDEST SWAP3 POP DUP2 PUSH32 0xFFFFFFFFFFFFFFFFFFFFFFFFFFFFFFFFFFFFFFFFFFFFFFFFFFFFFFFFFFFFFFFF DIV DUP4 GT DUP3 ISZERO ISZERO AND ISZERO PUSH2 0x2935 JUMPI PUSH2 0x2934 PUSH2 0x2B4A JUMP JUMPDEST JUMPDEST DUP3 DUP3 MUL SWAP1 POP SWAP3 SWAP2 POP POP JUMP JUMPDEST PUSH1 0x0 PUSH2 0x294B DUP3 PUSH2 0x29F0 JUMP JUMPDEST SWAP2 POP PUSH2 0x2956 DUP4 PUSH2 0x29F0 JUMP JUMPDEST SWAP3 POP DUP3 DUP3 LT ISZERO PUSH2 0x2969 JUMPI PUSH2 0x2968 PUSH2 0x2B4A JUMP JUMPDEST JUMPDEST DUP3 DUP3 SUB SWAP1 POP SWAP3 SWAP2 POP POP JUMP JUMPDEST PUSH1 0x0 PUSH2 0x297F DUP3 PUSH2 0x29D0 JUMP JUMPDEST SWAP1 POP SWAP2 SWAP1 POP JUMP JUMPDEST PUSH1 0x0 PUSH2 0x2991 DUP3 PUSH2 0x29D0 JUMP JUMPDEST SWAP1 POP SWAP2 SWAP1 POP JUMP JUMPDEST PUSH1 0x0 DUP2 ISZERO ISZERO SWAP1 POP SWAP2 SWAP1 POP JUMP JUMPDEST PUSH1 0x0 PUSH32 0xFFFFFFFF00000000000000000000000000000000000000000000000000000000 DUP3 AND SWAP1 POP SWAP2 SWAP1 POP JUMP JUMPDEST PUSH1 0x0 PUSH20 0xFFFFFFFFFFFFFFFFFFFFFFFFFFFFFFFFFFFFFFFF DUP3 AND SWAP1 POP SWAP2 SWAP1 POP JUMP JUMPDEST PUSH1 0x0 DUP2 SWAP1 POP SWAP2 SWAP1 POP JUMP JUMPDEST PUSH1 0x0 JUMPDEST DUP4 DUP2 LT ISZERO PUSH2 0x2A18 JUMPI DUP1 DUP3 ADD MLOAD DUP2 DUP5 ADD MSTORE PUSH1 0x20 DUP2 ADD SWAP1 POP PUSH2 0x29FD JUMP JUMPDEST DUP4 DUP2 GT ISZERO PUSH2 0x2A27 JUMPI PUSH1 0x0 DUP5 DUP5 ADD MSTORE JUMPDEST POP POP POP POP JUMP JUMPDEST PUSH1 0x0 PUSH1 0x2 DUP3 DIV SWAP1 POP PUSH1 0x1 DUP3 AND DUP1 PUSH2 0x2A45 JUMPI PUSH1 0x7F DUP3 AND SWAP2 POP JUMPDEST PUSH1 0x20 DUP3 LT DUP2 EQ ISZERO PUSH2 0x2A59 JUMPI PUSH2 0x2A58 PUSH2 0x2BA8 JUMP JUMPDEST JUMPDEST POP SWAP2 SWAP1 POP JUMP JUMPDEST PUSH2 0x2A68 DUP3 PUSH2 0x2C5C JUMP JUMPDEST DUP2 ADD DUP2 DUP2 LT PUSH8 0xFFFFFFFFFFFFFFFF DUP3 GT OR ISZERO PUSH2 0x2A87 JUMPI PUSH2 0x2A86 PUSH2 0x2C06 JUMP JUMPDEST JUMPDEST DUP1 PUSH1 0x40 MSTORE POP POP POP JUMP JUMPDEST PUSH1 0x0 PUSH2 0x2A9B DUP3 PUSH2 0x29F0 JUMP JUMPDEST SWAP2 POP PUSH32 0xFFFFFFFFFFFFFFFFFFFFFFFFFFFFFFFFFFFFFFFFFFFFFFFFFFFFFFFFFFFFFFFF DUP3 EQ ISZERO PUSH2 0x2ACE JUMPI PUSH2 0x2ACD PUSH2 0x2B4A JUMP JUMPDEST JUMPDEST PUSH1 0x1 DUP3 ADD SWAP1 POP SWAP2 SWAP1 POP JUMP JUMPDEST PUSH1 0x0 PUSH2 0x2AE4 DUP3 PUSH2 0x2AFD JUMP JUMPDEST SWAP1 POP SWAP2 SWAP1 POP JUMP JUMPDEST PUSH1 0x0 PUSH2 0x2AF6 DUP3 PUSH2 0x2AFD JUMP JUMPDEST SWAP1 POP SWAP2 SWAP1 POP JUMP JUMPDEST PUSH1 0x0 PUSH2 0x2B08 DUP3 PUSH2 0x2C6D JUMP JUMPDEST SWAP1 POP SWAP2 SWAP1 POP JUMP JUMPDEST PUSH1 0x0 DUP2 SWAP1 POP SWAP2 SWAP1 POP JUMP JUMPDEST PUSH1 0x0 PUSH2 0x2B24 DUP3 PUSH2 0x29F0 JUMP JUMPDEST SWAP2 POP PUSH2 0x2B2F DUP4 PUSH2 0x29F0 JUMP JUMPDEST SWAP3 POP DUP3 PUSH2 0x2B3F JUMPI PUSH2 0x2B3E PUSH2 0x2B79 JUMP JUMPDEST JUMPDEST DUP3 DUP3 MOD SWAP1 POP SWAP3 SWAP2 POP POP JUMP JUMPDEST PUSH32 0x4E487B7100000000000000000000000000000000000000000000000000000000 PUSH1 0x0 MSTORE PUSH1 0x11 PUSH1 0x4 MSTORE PUSH1 0x24 PUSH1 0x0 REVERT JUMPDEST PUSH32 0x4E487B7100000000000000000000000000000000000000000000000000000000 PUSH1 0x0 MSTORE PUSH1 0x12 PUSH1 0x4 MSTORE PUSH1 0x24 PUSH1 0x0 REVERT JUMPDEST PUSH32 0x4E487B7100000000000000000000000000000000000000000000000000000000 PUSH1 0x0 MSTORE PUSH1 0x22 PUSH1 0x4 MSTORE PUSH1 0x24 PUSH1 0x0 REVERT JUMPDEST PUSH32 0x4E487B7100000000000000000000000000000000000000000000000000000000 PUSH1 0x0 MSTORE PUSH1 0x32 PUSH1 0x4 MSTORE PUSH1 0x24 PUSH1 0x0 REVERT JUMPDEST PUSH32 0x4E487B7100000000000000000000000000000000000000000000000000000000 PUSH1 0x0 MSTORE PUSH1 0x41 PUSH1 0x4 MSTORE PUSH1 0x24 PUSH1 0x0 REVERT JUMPDEST PUSH1 0x0 PUSH1 0x3 RETURNDATASIZE GT ISZERO PUSH2 0x2C54 JUMPI PUSH1 0x4 PUSH1 0x0 DUP1 RETURNDATACOPY PUSH2 0x2C51 PUSH1 0x0 MLOAD PUSH2 0x2C7A JUMP JUMPDEST SWAP1 POP JUMPDEST SWAP1 JUMP JUMPDEST PUSH1 0x0 DUP1 REVERT JUMPDEST PUSH1 0x0 PUSH1 0x1F NOT PUSH1 0x1F DUP4 ADD AND SWAP1 POP SWAP2 SWAP1 POP JUMP JUMPDEST PUSH1 0x0 DUP2 PUSH1 0x60 SHL SWAP1 POP SWAP2 SWAP1 POP JUMP JUMPDEST PUSH1 0x0 DUP2 PUSH1 0xE0 SHR SWAP1 POP SWAP2 SWAP1 POP JUMP JUMPDEST PUSH32 0x455243313135353A207472616E7366657220746F206E6F6E2045524331313535 PUSH1 0x0 DUP3 ADD MSTORE PUSH32 0x526563656976657220696D706C656D656E746572000000000000000000000000 PUSH1 0x20 DUP3 ADD MSTORE POP JUMP JUMPDEST PUSH32 0x455243313135353A204552433131353552656365697665722072656A65637465 PUSH1 0x0 DUP3 ADD MSTORE PUSH32 0x6420746F6B656E73000000000000000000000000000000000000000000000000 PUSH1 0x20 DUP3 ADD MSTORE POP JUMP JUMPDEST PUSH32 0x4469616D6F6E645F000000000000000000000000000000000000000000000000 PUSH1 0x0 DUP3 ADD MSTORE POP JUMP JUMPDEST PUSH32 0x4D696E7420466565204E6F742053657400000000000000000000000000000000 PUSH1 0x0 DUP3 ADD MSTORE POP JUMP JUMPDEST PUSH32 0x476F6C645F000000000000000000000000000000000000000000000000000000 PUSH1 0x0 DUP3 ADD MSTORE POP JUMP JUMPDEST PUSH32 0x4E6F7420456E6F7567682042616C616E63650000000000000000000000000000 PUSH1 0x0 DUP3 ADD MSTORE POP JUMP JUMPDEST PUSH32 0x44726F707369746520697320616C72656164792052756E6E696E670000000000 PUSH1 0x0 DUP3 ADD MSTORE POP JUMP JUMPDEST PUSH32 0x44726F707369746520697320616C72656164792053746F707065640000000000 PUSH1 0x0 DUP3 ADD MSTORE POP JUMP JUMPDEST PUSH32 0x596F752063616E206D696E7420312D33204E4654730000000000000000000000 PUSH1 0x0 DUP3 ADD MSTORE POP JUMP JUMPDEST PUSH32 0x4F6E6C79204E46542D4553204F776E65722063616E2041636365737300000000 PUSH1 0x0 DUP3 ADD MSTORE POP JUMP JUMPDEST PUSH32 0x4F776E65722053686F756C6420736574206D696E742046656520466972737400 PUSH1 0x0 DUP3 ADD MSTORE POP JUMP JUMPDEST PUSH32 0x44726F7073697465206973206E6F74204F70656E6564205965742E0000000000 PUSH1 0x0 DUP3 ADD MSTORE POP JUMP JUMPDEST PUSH32 0x4D6178204D696E74696E67204C696D6974207265616368656400000000000000 PUSH1 0x0 DUP3 ADD MSTORE POP JUMP JUMPDEST PUSH32 0x53696C7665725F00000000000000000000000000000000000000000000000000 PUSH1 0x0 DUP3 ADD MSTORE POP JUMP JUMPDEST PUSH32 0x4572726F7221204E6F2042616C616E636520746F207769746864726177000000 PUSH1 0x0 DUP3 ADD MSTORE POP JUMP JUMPDEST PUSH32 0x455243313135353A206D696E7420746F20746865207A65726F20616464726573 PUSH1 0x0 DUP3 ADD MSTORE PUSH32 0x7300000000000000000000000000000000000000000000000000000000000000 PUSH1 0x20 DUP3 ADD MSTORE POP JUMP JUMPDEST PUSH1 0x0 PUSH1 0x44 RETURNDATASIZE LT ISZERO PUSH2 0x2F99 JUMPI PUSH2 0x301C JUMP JUMPDEST PUSH2 0x2FA1 PUSH2 0x27F5 JUMP JUMPDEST PUSH1 0x4 RETURNDATASIZE SUB PUSH1 0x4 DUP3 RETURNDATACOPY DUP1 MLOAD RETURNDATASIZE PUSH1 0x24 DUP3 ADD GT PUSH8 0xFFFFFFFFFFFFFFFF DUP3 GT OR ISZERO PUSH2 0x2FC9 JUMPI POP POP PUSH2 0x301C JUMP JUMPDEST DUP1 DUP3 ADD DUP1 MLOAD PUSH8 0xFFFFFFFFFFFFFFFF DUP2 GT ISZERO PUSH2 0x2FE7 JUMPI POP POP POP POP PUSH2 0x301C JUMP JUMPDEST DUP1 PUSH1 0x20 DUP4 ADD ADD PUSH1 0x4 RETURNDATASIZE SUB DUP6 ADD DUP2 GT ISZERO PUSH2 0x3004 JUMPI POP POP POP POP POP PUSH2 0x301C JUMP JUMPDEST PUSH2 0x3013 DUP3 PUSH1 0x20 ADD DUP6 ADD DUP7 PUSH2 0x2A5F JUMP JUMPDEST DUP3 SWAP6 POP POP POP POP POP POP JUMPDEST SWAP1 JUMP JUMPDEST PUSH2 0x3028 DUP2 PUSH2 0x2974 JUMP JUMPDEST DUP2 EQ PUSH2 0x3033 JUMPI PUSH1 0x0 DUP1 REVERT JUMPDEST POP JUMP JUMPDEST PUSH2 0x303F DUP2 PUSH2 0x2986 JUMP JUMPDEST DUP2 EQ PUSH2 0x304A JUMPI PUSH1 0x0 DUP1 REVERT JUMPDEST POP JUMP JUMPDEST PUSH2 0x3056 DUP2 PUSH2 0x29A4 JUMP JUMPDEST DUP2 EQ PUSH2 0x3061 JUMPI PUSH1 0x0 DUP1 REVERT JUMPDEST POP JUMP JUMPDEST PUSH2 0x306D DUP2 PUSH2 0x29F0 JUMP JUMPDEST DUP2 EQ PUSH2 0x3078 JUMPI PUSH1 0x0 DUP1 REVERT JUMPDEST POP JUMP INVALID LOG2 PUSH5 0x6970667358 0x22 SLT KECCAK256 JUMPI 0x21 PUSH32 0xF2E5E9A3C0DD515F95E38CDDF0A79809673FD6C82C392413ABE0D8CA9F64736F PUSH13 0x63430008070033000000000000 "
				},
				"gasEstimates": {
					"creation": {
						"codeDepositCost": "2493000",
						"executionCost": "infinite",
						"totalCost": "infinite"
					},
					"external": {
						"Owner()": "2608",
						"changeOwner(address)": "29265",
						"checkMintedCategoryWise()": "infinite",
						"checkTotalMinted()": "2461",
						"contractBalance()": "2736",
						"cryptoRandomMint(address,uint256)": "infinite",
						"fiatRandomMint(address,uint256)": "infinite",
						"getMintFee()": "6886",
						"isPaused()": "2493",
						"openDropsite()": "28905",
						"randomMinting(address)": "infinite",
						"returnOwner(address)": "infinite",
						"setMintFee(uint256)": "27012",
						"stopDropsite()": "28926",
						"withDraw(address)": "infinite"
					},
					"internal": {
						"depositAmount(address,uint256)": "infinite",
						"random()": "infinite",
						"updateConditions(uint256)": "infinite"
					}
				},
				"methodIdentifiers": {
					"Owner()": "b4a99a4e",
					"changeOwner(address)": "a6f9dae1",
					"checkMintedCategoryWise()": "60daa851",
					"checkTotalMinted()": "0390c11c",
					"contractBalance()": "8b7afe2e",
					"cryptoRandomMint(address,uint256)": "5b27d84e",
					"fiatRandomMint(address,uint256)": "5e1f0556",
					"getMintFee()": "7a5caab3",
					"isPaused()": "b187bd26",
					"openDropsite()": "15460259",
					"randomMinting(address)": "546fd992",
					"returnOwner(address)": "fd6c3b1b",
					"setMintFee(uint256)": "eddd0d9c",
					"stopDropsite()": "aa90c726",
					"withDraw(address)": "0a67d2c7"
				}
			},
			"storageLayout": {
				"storage": [
					{
						"astId": 339,
						"contract": "NFTES_Drop.sol:NFTES_Drop",
						"label": "_balances",
						"offset": 0,
						"slot": "0",
						"type": "t_mapping(t_uint256,t_mapping(t_address,t_uint256))"
					},
					{
						"astId": 345,
						"contract": "NFTES_Drop.sol:NFTES_Drop",
						"label": "_operatorApprovals",
						"offset": 0,
						"slot": "1",
						"type": "t_mapping(t_address,t_mapping(t_address,t_bool))"
					},
					{
						"astId": 626,
						"contract": "NFTES_Drop.sol:NFTES_Drop",
						"label": "data",
						"offset": 0,
						"slot": "2",
						"type": "t_string_storage"
					},
					{
						"astId": 651,
						"contract": "NFTES_Drop.sol:NFTES_Drop",
						"label": "nums",
						"offset": 0,
						"slot": "3",
						"type": "t_array(t_uint8)20_storage"
					},
					{
						"astId": 653,
						"contract": "NFTES_Drop.sol:NFTES_Drop",
						"label": "totalNFTsMinted",
						"offset": 0,
						"slot": "4",
						"type": "t_uint256"
					},
					{
						"astId": 655,
						"contract": "NFTES_Drop.sol:NFTES_Drop",
						"label": "numOfCopies",
						"offset": 0,
						"slot": "5",
						"type": "t_uint256"
					},
					{
						"astId": 657,
						"contract": "NFTES_Drop.sol:NFTES_Drop",
						"label": "mintFees",
						"offset": 0,
						"slot": "6",
						"type": "t_uint256"
					},
					{
						"astId": 659,
						"contract": "NFTES_Drop.sol:NFTES_Drop",
						"label": "Diamond",
						"offset": 0,
						"slot": "7",
						"type": "t_uint256"
					},
					{
						"astId": 661,
						"contract": "NFTES_Drop.sol:NFTES_Drop",
						"label": "Gold",
						"offset": 0,
						"slot": "8",
						"type": "t_uint256"
					},
					{
						"astId": 663,
						"contract": "NFTES_Drop.sol:NFTES_Drop",
						"label": "Silver",
						"offset": 0,
						"slot": "9",
						"type": "t_uint256"
					},
					{
						"astId": 672,
						"contract": "NFTES_Drop.sol:NFTES_Drop",
						"label": "dropsite_NFT_Owner",
						"offset": 0,
						"slot": "10",
						"type": "t_mapping(t_address,t_struct(nft_Owner)667_storage)"
					},
					{
						"astId": 676,
						"contract": "NFTES_Drop.sol:NFTES_Drop",
						"label": "deposits",
						"offset": 0,
						"slot": "11",
						"type": "t_mapping(t_address,t_uint256)"
					},
					{
						"astId": 713,
						"contract": "NFTES_Drop.sol:NFTES_Drop",
						"label": "isPaused",
						"offset": 0,
						"slot": "12",
						"type": "t_bool"
					},
					{
						"astId": 715,
						"contract": "NFTES_Drop.sol:NFTES_Drop",
						"label": "Owner",
						"offset": 1,
						"slot": "12",
						"type": "t_address_payable"
					},
					{
						"astId": 717,
						"contract": "NFTES_Drop.sol:NFTES_Drop",
						"label": "_name",
						"offset": 0,
						"slot": "13",
						"type": "t_string_storage"
					}
				],
				"types": {
					"t_address": {
						"encoding": "inplace",
						"label": "address",
						"numberOfBytes": "20"
					},
					"t_address_payable": {
						"encoding": "inplace",
						"label": "address payable",
						"numberOfBytes": "20"
					},
					"t_array(t_uint256)dyn_storage": {
						"base": "t_uint256",
						"encoding": "dynamic_array",
						"label": "uint256[]",
						"numberOfBytes": "32"
					},
					"t_array(t_uint8)20_storage": {
						"base": "t_uint8",
						"encoding": "inplace",
						"label": "uint8[20]",
						"numberOfBytes": "32"
					},
					"t_bool": {
						"encoding": "inplace",
						"label": "bool",
						"numberOfBytes": "1"
					},
					"t_mapping(t_address,t_bool)": {
						"encoding": "mapping",
						"key": "t_address",
						"label": "mapping(address => bool)",
						"numberOfBytes": "32",
						"value": "t_bool"
					},
					"t_mapping(t_address,t_mapping(t_address,t_bool))": {
						"encoding": "mapping",
						"key": "t_address",
						"label": "mapping(address => mapping(address => bool))",
						"numberOfBytes": "32",
						"value": "t_mapping(t_address,t_bool)"
					},
					"t_mapping(t_address,t_struct(nft_Owner)667_storage)": {
						"encoding": "mapping",
						"key": "t_address",
						"label": "mapping(address => struct NFTES_Drop.nft_Owner)",
						"numberOfBytes": "32",
						"value": "t_struct(nft_Owner)667_storage"
					},
					"t_mapping(t_address,t_uint256)": {
						"encoding": "mapping",
						"key": "t_address",
						"label": "mapping(address => uint256)",
						"numberOfBytes": "32",
						"value": "t_uint256"
					},
					"t_mapping(t_uint256,t_mapping(t_address,t_uint256))": {
						"encoding": "mapping",
						"key": "t_uint256",
						"label": "mapping(uint256 => mapping(address => uint256))",
						"numberOfBytes": "32",
						"value": "t_mapping(t_address,t_uint256)"
					},
					"t_string_storage": {
						"encoding": "bytes",
						"label": "string",
						"numberOfBytes": "32"
					},
					"t_struct(nft_Owner)667_storage": {
						"encoding": "inplace",
						"label": "struct NFTES_Drop.nft_Owner",
						"members": [
							{
								"astId": 666,
								"contract": "NFTES_Drop.sol:NFTES_Drop",
								"label": "owned_Dropsite_NFTs",
								"offset": 0,
								"slot": "0",
								"type": "t_array(t_uint256)dyn_storage"
							}
						],
						"numberOfBytes": "32"
					},
					"t_uint256": {
						"encoding": "inplace",
						"label": "uint256",
						"numberOfBytes": "32"
					},
					"t_uint8": {
						"encoding": "inplace",
						"label": "uint8",
						"numberOfBytes": "1"
					}
				}
			},
			"userdoc": {
				"kind": "user",
				"methods": {},
				"version": 1
			}
		}
	}
}