{
	"Dropsite.sol": {
		"Dropsite": {
			"abi": [
				{
					"inputs": [
						{
							"internalType": "string",
							"name": "name",
							"type": "string"
						}
					],
					"stateMutability": "nonpayable",
					"type": "constructor"
				},
				{
					"anonymous": false,
					"inputs": [
						{
							"indexed": true,
							"internalType": "address",
							"name": "operator",
							"type": "address"
						},
						{
							"indexed": true,
							"internalType": "address",
							"name": "from",
							"type": "address"
						},
						{
							"indexed": true,
							"internalType": "address",
							"name": "to",
							"type": "address"
						},
						{
							"indexed": false,
							"internalType": "uint256",
							"name": "id",
							"type": "uint256"
						},
						{
							"indexed": false,
							"internalType": "uint256",
							"name": "value",
							"type": "uint256"
						}
					],
					"name": "TransferSingle",
					"type": "event"
				},
				{
					"inputs": [],
					"name": "ContractBalance",
					"outputs": [
						{
							"internalType": "uint256",
							"name": "",
							"type": "uint256"
						}
					],
					"stateMutability": "view",
					"type": "function"
				},
				{
					"inputs": [
						{
							"internalType": "address",
							"name": "user_addr",
							"type": "address"
						}
					],
					"name": "CryptoRandomMint",
					"outputs": [
						{
							"internalType": "uint256",
							"name": "",
							"type": "uint256"
						},
						{
							"internalType": "string",
							"name": "",
							"type": "string"
						}
					],
					"stateMutability": "payable",
					"type": "function"
				},
				{
					"inputs": [
						{
							"internalType": "address",
							"name": "user_addr",
							"type": "address"
						}
					],
					"name": "FiatrandomMint",
					"outputs": [
						{
							"internalType": "uint256",
							"name": "",
							"type": "uint256"
						},
						{
							"internalType": "string",
							"name": "",
							"type": "string"
						}
					],
					"stateMutability": "nonpayable",
					"type": "function"
				},
				{
					"inputs": [],
					"name": "IsPaused",
					"outputs": [
						{
							"internalType": "bool",
							"name": "",
							"type": "bool"
						}
					],
					"stateMutability": "view",
					"type": "function"
				},
				{
					"inputs": [],
					"name": "Owner",
					"outputs": [
						{
							"internalType": "address payable",
							"name": "",
							"type": "address"
						}
					],
					"stateMutability": "view",
					"type": "function"
				},
				{
					"inputs": [],
					"name": "checkMintedCategoryWise",
					"outputs": [
						{
							"internalType": "uint256",
							"name": "",
							"type": "uint256"
						},
						{
							"internalType": "uint256",
							"name": "",
							"type": "uint256"
						},
						{
							"internalType": "uint256",
							"name": "",
							"type": "uint256"
						}
					],
					"stateMutability": "view",
					"type": "function"
				},
				{
					"inputs": [],
					"name": "checkTotalMinted",
					"outputs": [
						{
							"internalType": "uint256",
							"name": "",
							"type": "uint256"
						}
					],
					"stateMutability": "view",
					"type": "function"
				},
				{
					"inputs": [],
					"name": "openDropsite",
					"outputs": [],
					"stateMutability": "nonpayable",
					"type": "function"
				},
				{
					"inputs": [],
					"name": "stopDropsite",
					"outputs": [],
					"stateMutability": "nonpayable",
					"type": "function"
				},
				{
					"inputs": [
						{
							"internalType": "address payable",
							"name": "to",
							"type": "address"
						}
					],
					"name": "withDraw",
					"outputs": [],
					"stateMutability": "payable",
					"type": "function"
				}
			],
			"devdoc": {
				"kind": "dev",
				"methods": {},
				"version": 1
			},
			"evm": {
				"assembly": "    /* \"Dropsite.sol\":122:4821  contract Dropsite is ERC1155_Dropsite  { ... */\n  mstore(0x40, 0x80)\n    /* \"Dropsite.sol\":190:205  bytes  data =\"\" */\n  mload(0x40)\n  dup1\n  0x20\n  add\n  0x40\n  mstore\n  dup1\n  0x00\n  dup2\n  mstore\n  pop\n  0x02\n  swap1\n  dup1\n  mload\n  swap1\n  0x20\n  add\n  swap1\n  tag_1\n  swap3\n  swap2\n  swap1\n  tag_2\n  jump\t// in\ntag_1:\n  pop\n    /* \"Dropsite.sol\":844:848  true */\n  0x01\n    /* \"Dropsite.sol\":821:848  bool public IsPaused = true */\n  0x0b\n  exp(0x0100, 0x00)\n  dup2\n  sload\n  dup2\n  0xff\n  mul\n  not\n  and\n  swap1\n  dup4\n  iszero\n  iszero\n  mul\n  or\n  swap1\n  sstore\n  pop\n    /* \"Dropsite.sol\":920:1196  constructor (string memory name){... */\n  callvalue\n  dup1\n  iszero\n  tag_3\n  jumpi\n  0x00\n  dup1\n  revert\ntag_3:\n  pop\n  mload(0x40)\n  sub(codesize, bytecodeSize)\n  dup1\n  bytecodeSize\n  dup4\n  codecopy\n  dup2\n  dup2\n  add\n  0x40\n  mstore\n  dup2\n  add\n  swap1\n  tag_4\n  swap2\n  swap1\n  tag_5\n  jump\t// in\ntag_4:\n    /* \"Dropsite.sol\":970:974  name */\n  dup1\n    /* \"Dropsite.sol\":962:967  _name */\n  0x0c\n    /* \"Dropsite.sol\":962:974  _name = name */\n  swap1\n  dup1\n  mload\n  swap1\n  0x20\n  add\n  swap1\n  tag_8\n  swap3\n  swap2\n  swap1\n  tag_9\n  jump\t// in\ntag_8:\n  pop\n    /* \"Dropsite.sol\":1000:1010  msg.sender */\n  caller\n    /* \"Dropsite.sol\":984:989  Owner */\n  0x0b\n  0x01\n    /* \"Dropsite.sol\":984:1011  Owner = payable(msg.sender) */\n  0x0100\n  exp\n  dup2\n  sload\n  dup2\n  0xffffffffffffffffffffffffffffffffffffffff\n  mul\n  not\n  and\n  swap1\n  dup4\n  0xffffffffffffffffffffffffffffffffffffffff\n  and\n  mul\n  or\n  swap1\n  sstore\n  pop\n    /* \"Dropsite.sol\":1038:1039  0 */\n  0x00\n    /* \"Dropsite.sol\":1022:1037  TotalNFTsMinted */\n  0x03\n    /* \"Dropsite.sol\":1022:1039  TotalNFTsMinted=0 */\n  dup2\n  swap1\n  sstore\n  pop\n    /* \"Dropsite.sol\":1085:1086  1 */\n  0x01\n    /* \"Dropsite.sol\":1073:1084  numOfCopies */\n  0x04\n    /* \"Dropsite.sol\":1073:1086  numOfCopies=1 */\n  dup2\n  swap1\n  sstore\n  pop\n    /* \"Dropsite.sol\":1142:1143  0 */\n  0x00\n    /* \"Dropsite.sol\":1133:1141  Platinum */\n  0x05\n    /* \"Dropsite.sol\":1133:1143  Platinum=0 */\n  dup2\n  swap1\n  sstore\n  pop\n    /* \"Dropsite.sol\":1170:1171  0 */\n  0x00\n    /* \"Dropsite.sol\":1165:1169  Gold */\n  0x06\n    /* \"Dropsite.sol\":1165:1171  Gold=0 */\n  dup2\n  swap1\n  sstore\n  pop\n    /* \"Dropsite.sol\":1188:1189  0 */\n  0x00\n    /* \"Dropsite.sol\":1181:1187  Silver */\n  0x07\n    /* \"Dropsite.sol\":1181:1189  Silver=0 */\n  dup2\n  swap1\n  sstore\n  pop\n    /* \"Dropsite.sol\":920:1196  constructor (string memory name){... */\n  pop\n    /* \"Dropsite.sol\":122:4821  contract Dropsite is ERC1155_Dropsite  { ... */\n  jump(tag_10)\ntag_2:\n  dup3\n  dup1\n  sload\n  tag_11\n  swap1\n  tag_12\n  jump\t// in\ntag_11:\n  swap1\n  0x00\n  mstore\n  keccak256(0x00, 0x20)\n  swap1\n  0x1f\n  add\n  0x20\n  swap1\n  div\n  dup2\n  add\n  swap3\n  dup3\n  tag_14\n  jumpi\n  0x00\n  dup6\n  sstore\n  jump(tag_13)\ntag_14:\n  dup3\n  0x1f\n  lt\n  tag_15\n  jumpi\n  dup1\n  mload\n  not(0xff)\n  and\n  dup4\n  dup1\n  add\n  or\n  dup6\n  sstore\n  jump(tag_13)\ntag_15:\n  dup3\n  dup1\n  add\n  0x01\n  add\n  dup6\n  sstore\n  dup3\n  iszero\n  tag_13\n  jumpi\n  swap2\n  dup3\n  add\ntag_16:\n  dup3\n  dup2\n  gt\n  iszero\n  tag_17\n  jumpi\n  dup3\n  mload\n  dup3\n  sstore\n  swap2\n  0x20\n  add\n  swap2\n  swap1\n  0x01\n  add\n  swap1\n  jump(tag_16)\ntag_17:\ntag_13:\n  pop\n  swap1\n  pop\n  tag_18\n  swap2\n  swap1\n  tag_19\n  jump\t// in\ntag_18:\n  pop\n  swap1\n  jump\t// out\ntag_9:\n  dup3\n  dup1\n  sload\n  tag_20\n  swap1\n  tag_12\n  jump\t// in\ntag_20:\n  swap1\n  0x00\n  mstore\n  keccak256(0x00, 0x20)\n  swap1\n  0x1f\n  add\n  0x20\n  swap1\n  div\n  dup2\n  add\n  swap3\n  dup3\n  tag_22\n  jumpi\n  0x00\n  dup6\n  sstore\n  jump(tag_21)\ntag_22:\n  dup3\n  0x1f\n  lt\n  tag_23\n  jumpi\n  dup1\n  mload\n  not(0xff)\n  and\n  dup4\n  dup1\n  add\n  or\n  dup6\n  sstore\n  jump(tag_21)\ntag_23:\n  dup3\n  dup1\n  add\n  0x01\n  add\n  dup6\n  sstore\n  dup3\n  iszero\n  tag_21\n  jumpi\n  swap2\n  dup3\n  add\ntag_24:\n  dup3\n  dup2\n  gt\n  iszero\n  tag_25\n  jumpi\n  dup3\n  mload\n  dup3\n  sstore\n  swap2\n  0x20\n  add\n  swap2\n  swap1\n  0x01\n  add\n  swap1\n  jump(tag_24)\ntag_25:\ntag_21:\n  pop\n  swap1\n  pop\n  tag_26\n  swap2\n  swap1\n  tag_19\n  jump\t// in\ntag_26:\n  pop\n  swap1\n  jump\t// out\ntag_19:\ntag_27:\n  dup1\n  dup3\n  gt\n  iszero\n  tag_28\n  jumpi\n  0x00\n  dup2\n  0x00\n  swap1\n  sstore\n  pop\n  0x01\n  add\n  jump(tag_27)\ntag_28:\n  pop\n  swap1\n  jump\t// out\n    /* \"#utility.yul\":7:428   */\ntag_30:\n    /* \"#utility.yul\":96:101   */\n  0x00\n    /* \"#utility.yul\":121:187   */\n  tag_32\n    /* \"#utility.yul\":137:186   */\n  tag_33\n    /* \"#utility.yul\":179:185   */\n  dup5\n    /* \"#utility.yul\":137:186   */\n  tag_34\n  jump\t// in\ntag_33:\n    /* \"#utility.yul\":121:187   */\n  tag_35\n  jump\t// in\ntag_32:\n    /* \"#utility.yul\":112:187   */\n  swap1\n  pop\n    /* \"#utility.yul\":210:216   */\n  dup3\n    /* \"#utility.yul\":203:208   */\n  dup2\n    /* \"#utility.yul\":196:217   */\n  mstore\n    /* \"#utility.yul\":248:252   */\n  0x20\n    /* \"#utility.yul\":241:246   */\n  dup2\n    /* \"#utility.yul\":237:253   */\n  add\n    /* \"#utility.yul\":286:289   */\n  dup5\n    /* \"#utility.yul\":277:283   */\n  dup5\n    /* \"#utility.yul\":272:275   */\n  dup5\n    /* \"#utility.yul\":268:284   */\n  add\n    /* \"#utility.yul\":265:290   */\n  gt\n    /* \"#utility.yul\":262:374   */\n  iszero\n  tag_36\n  jumpi\n    /* \"#utility.yul\":293:372   */\n  tag_37\n  tag_38\n  jump\t// in\ntag_37:\n    /* \"#utility.yul\":262:374   */\ntag_36:\n    /* \"#utility.yul\":383:422   */\n  tag_39\n    /* \"#utility.yul\":415:421   */\n  dup5\n    /* \"#utility.yul\":410:413   */\n  dup3\n    /* \"#utility.yul\":405:408   */\n  dup6\n    /* \"#utility.yul\":383:422   */\n  tag_40\n  jump\t// in\ntag_39:\n    /* \"#utility.yul\":102:428   */\n  pop\n    /* \"#utility.yul\":7:428   */\n  swap4\n  swap3\n  pop\n  pop\n  pop\n  jump\t// out\n    /* \"#utility.yul\":448:803   */\ntag_41:\n    /* \"#utility.yul\":515:520   */\n  0x00\n    /* \"#utility.yul\":564:567   */\n  dup3\n    /* \"#utility.yul\":557:561   */\n  0x1f\n    /* \"#utility.yul\":549:555   */\n  dup4\n    /* \"#utility.yul\":545:562   */\n  add\n    /* \"#utility.yul\":541:568   */\n  slt\n    /* \"#utility.yul\":531:653   */\n  tag_43\n  jumpi\n    /* \"#utility.yul\":572:651   */\n  tag_44\n  tag_45\n  jump\t// in\ntag_44:\n    /* \"#utility.yul\":531:653   */\ntag_43:\n    /* \"#utility.yul\":682:688   */\n  dup2\n    /* \"#utility.yul\":676:689   */\n  mload\n    /* \"#utility.yul\":707:797   */\n  tag_46\n    /* \"#utility.yul\":793:796   */\n  dup5\n    /* \"#utility.yul\":785:791   */\n  dup3\n    /* \"#utility.yul\":778:782   */\n  0x20\n    /* \"#utility.yul\":770:776   */\n  dup7\n    /* \"#utility.yul\":766:783   */\n  add\n    /* \"#utility.yul\":707:797   */\n  tag_30\n  jump\t// in\ntag_46:\n    /* \"#utility.yul\":698:797   */\n  swap2\n  pop\n    /* \"#utility.yul\":521:803   */\n  pop\n    /* \"#utility.yul\":448:803   */\n  swap3\n  swap2\n  pop\n  pop\n  jump\t// out\n    /* \"#utility.yul\":809:1333   */\ntag_5:\n    /* \"#utility.yul\":889:895   */\n  0x00\n    /* \"#utility.yul\":938:940   */\n  0x20\n    /* \"#utility.yul\":926:935   */\n  dup3\n    /* \"#utility.yul\":917:924   */\n  dup5\n    /* \"#utility.yul\":913:936   */\n  sub\n    /* \"#utility.yul\":909:941   */\n  slt\n    /* \"#utility.yul\":906:1025   */\n  iszero\n  tag_48\n  jumpi\n    /* \"#utility.yul\":944:1023   */\n  tag_49\n  tag_50\n  jump\t// in\ntag_49:\n    /* \"#utility.yul\":906:1025   */\ntag_48:\n    /* \"#utility.yul\":1085:1086   */\n  0x00\n    /* \"#utility.yul\":1074:1083   */\n  dup3\n    /* \"#utility.yul\":1070:1087   */\n  add\n    /* \"#utility.yul\":1064:1088   */\n  mload\n    /* \"#utility.yul\":1115:1133   */\n  0xffffffffffffffff\n    /* \"#utility.yul\":1107:1113   */\n  dup2\n    /* \"#utility.yul\":1104:1134   */\n  gt\n    /* \"#utility.yul\":1101:1218   */\n  iszero\n  tag_51\n  jumpi\n    /* \"#utility.yul\":1137:1216   */\n  tag_52\n  tag_53\n  jump\t// in\ntag_52:\n    /* \"#utility.yul\":1101:1218   */\ntag_51:\n    /* \"#utility.yul\":1242:1316   */\n  tag_54\n    /* \"#utility.yul\":1308:1315   */\n  dup5\n    /* \"#utility.yul\":1299:1305   */\n  dup3\n    /* \"#utility.yul\":1288:1297   */\n  dup6\n    /* \"#utility.yul\":1284:1306   */\n  add\n    /* \"#utility.yul\":1242:1316   */\n  tag_41\n  jump\t// in\ntag_54:\n    /* \"#utility.yul\":1232:1316   */\n  swap2\n  pop\n    /* \"#utility.yul\":1035:1326   */\n  pop\n    /* \"#utility.yul\":809:1333   */\n  swap3\n  swap2\n  pop\n  pop\n  jump\t// out\n    /* \"#utility.yul\":1339:1468   */\ntag_35:\n    /* \"#utility.yul\":1373:1379   */\n  0x00\n    /* \"#utility.yul\":1400:1420   */\n  tag_56\n  tag_57\n  jump\t// in\ntag_56:\n    /* \"#utility.yul\":1390:1420   */\n  swap1\n  pop\n    /* \"#utility.yul\":1429:1462   */\n  tag_58\n    /* \"#utility.yul\":1457:1461   */\n  dup3\n    /* \"#utility.yul\":1449:1455   */\n  dup3\n    /* \"#utility.yul\":1429:1462   */\n  tag_59\n  jump\t// in\ntag_58:\n    /* \"#utility.yul\":1339:1468   */\n  swap2\n  swap1\n  pop\n  jump\t// out\n    /* \"#utility.yul\":1474:1549   */\ntag_57:\n    /* \"#utility.yul\":1507:1513   */\n  0x00\n    /* \"#utility.yul\":1540:1542   */\n  0x40\n    /* \"#utility.yul\":1534:1543   */\n  mload\n    /* \"#utility.yul\":1524:1543   */\n  swap1\n  pop\n    /* \"#utility.yul\":1474:1549   */\n  swap1\n  jump\t// out\n    /* \"#utility.yul\":1555:1863   */\ntag_34:\n    /* \"#utility.yul\":1617:1621   */\n  0x00\n    /* \"#utility.yul\":1707:1725   */\n  0xffffffffffffffff\n    /* \"#utility.yul\":1699:1705   */\n  dup3\n    /* \"#utility.yul\":1696:1726   */\n  gt\n    /* \"#utility.yul\":1693:1749   */\n  iszero\n  tag_62\n  jumpi\n    /* \"#utility.yul\":1729:1747   */\n  tag_63\n  tag_64\n  jump\t// in\ntag_63:\n    /* \"#utility.yul\":1693:1749   */\ntag_62:\n    /* \"#utility.yul\":1767:1796   */\n  tag_65\n    /* \"#utility.yul\":1789:1795   */\n  dup3\n    /* \"#utility.yul\":1767:1796   */\n  tag_66\n  jump\t// in\ntag_65:\n    /* \"#utility.yul\":1759:1796   */\n  swap1\n  pop\n    /* \"#utility.yul\":1851:1855   */\n  0x20\n    /* \"#utility.yul\":1845:1849   */\n  dup2\n    /* \"#utility.yul\":1841:1856   */\n  add\n    /* \"#utility.yul\":1833:1856   */\n  swap1\n  pop\n    /* \"#utility.yul\":1555:1863   */\n  swap2\n  swap1\n  pop\n  jump\t// out\n    /* \"#utility.yul\":1869:2176   */\ntag_40:\n    /* \"#utility.yul\":1937:1938   */\n  0x00\n    /* \"#utility.yul\":1947:2060   */\ntag_68:\n    /* \"#utility.yul\":1961:1967   */\n  dup4\n    /* \"#utility.yul\":1958:1959   */\n  dup2\n    /* \"#utility.yul\":1955:1968   */\n  lt\n    /* \"#utility.yul\":1947:2060   */\n  iszero\n  tag_70\n  jumpi\n    /* \"#utility.yul\":2046:2047   */\n  dup1\n    /* \"#utility.yul\":2041:2044   */\n  dup3\n    /* \"#utility.yul\":2037:2048   */\n  add\n    /* \"#utility.yul\":2031:2049   */\n  mload\n    /* \"#utility.yul\":2027:2028   */\n  dup2\n    /* \"#utility.yul\":2022:2025   */\n  dup5\n    /* \"#utility.yul\":2018:2029   */\n  add\n    /* \"#utility.yul\":2011:2050   */\n  mstore\n    /* \"#utility.yul\":1983:1985   */\n  0x20\n    /* \"#utility.yul\":1980:1981   */\n  dup2\n    /* \"#utility.yul\":1976:1986   */\n  add\n    /* \"#utility.yul\":1971:1986   */\n  swap1\n  pop\n    /* \"#utility.yul\":1947:2060   */\n  jump(tag_68)\ntag_70:\n    /* \"#utility.yul\":2078:2084   */\n  dup4\n    /* \"#utility.yul\":2075:2076   */\n  dup2\n    /* \"#utility.yul\":2072:2085   */\n  gt\n    /* \"#utility.yul\":2069:2170   */\n  iszero\n  tag_71\n  jumpi\n    /* \"#utility.yul\":2158:2159   */\n  0x00\n    /* \"#utility.yul\":2149:2155   */\n  dup5\n    /* \"#utility.yul\":2144:2147   */\n  dup5\n    /* \"#utility.yul\":2140:2156   */\n  add\n    /* \"#utility.yul\":2133:2160   */\n  mstore\n    /* \"#utility.yul\":2069:2170   */\ntag_71:\n    /* \"#utility.yul\":1918:2176   */\n  pop\n    /* \"#utility.yul\":1869:2176   */\n  pop\n  pop\n  pop\n  jump\t// out\n    /* \"#utility.yul\":2182:2502   */\ntag_12:\n    /* \"#utility.yul\":2226:2232   */\n  0x00\n    /* \"#utility.yul\":2263:2264   */\n  0x02\n    /* \"#utility.yul\":2257:2261   */\n  dup3\n    /* \"#utility.yul\":2253:2265   */\n  div\n    /* \"#utility.yul\":2243:2265   */\n  swap1\n  pop\n    /* \"#utility.yul\":2310:2311   */\n  0x01\n    /* \"#utility.yul\":2304:2308   */\n  dup3\n    /* \"#utility.yul\":2300:2312   */\n  and\n    /* \"#utility.yul\":2331:2349   */\n  dup1\n    /* \"#utility.yul\":2321:2402   */\n  tag_73\n  jumpi\n    /* \"#utility.yul\":2387:2391   */\n  0x7f\n    /* \"#utility.yul\":2379:2385   */\n  dup3\n    /* \"#utility.yul\":2375:2392   */\n  and\n    /* \"#utility.yul\":2365:2392   */\n  swap2\n  pop\n    /* \"#utility.yul\":2321:2402   */\ntag_73:\n    /* \"#utility.yul\":2449:2451   */\n  0x20\n    /* \"#utility.yul\":2441:2447   */\n  dup3\n    /* \"#utility.yul\":2438:2452   */\n  lt\n    /* \"#utility.yul\":2418:2436   */\n  dup2\n    /* \"#utility.yul\":2415:2453   */\n  eq\n    /* \"#utility.yul\":2412:2496   */\n  iszero\n  tag_74\n  jumpi\n    /* \"#utility.yul\":2468:2486   */\n  tag_75\n  tag_76\n  jump\t// in\ntag_75:\n    /* \"#utility.yul\":2412:2496   */\ntag_74:\n    /* \"#utility.yul\":2233:2502   */\n  pop\n    /* \"#utility.yul\":2182:2502   */\n  swap2\n  swap1\n  pop\n  jump\t// out\n    /* \"#utility.yul\":2508:2789   */\ntag_59:\n    /* \"#utility.yul\":2591:2618   */\n  tag_78\n    /* \"#utility.yul\":2613:2617   */\n  dup3\n    /* \"#utility.yul\":2591:2618   */\n  tag_66\n  jump\t// in\ntag_78:\n    /* \"#utility.yul\":2583:2589   */\n  dup2\n    /* \"#utility.yul\":2579:2619   */\n  add\n    /* \"#utility.yul\":2721:2727   */\n  dup2\n    /* \"#utility.yul\":2709:2719   */\n  dup2\n    /* \"#utility.yul\":2706:2728   */\n  lt\n    /* \"#utility.yul\":2685:2703   */\n  0xffffffffffffffff\n    /* \"#utility.yul\":2673:2683   */\n  dup3\n    /* \"#utility.yul\":2670:2704   */\n  gt\n    /* \"#utility.yul\":2667:2729   */\n  or\n    /* \"#utility.yul\":2664:2752   */\n  iszero\n  tag_79\n  jumpi\n    /* \"#utility.yul\":2732:2750   */\n  tag_80\n  tag_64\n  jump\t// in\ntag_80:\n    /* \"#utility.yul\":2664:2752   */\ntag_79:\n    /* \"#utility.yul\":2772:2782   */\n  dup1\n    /* \"#utility.yul\":2768:2770   */\n  0x40\n    /* \"#utility.yul\":2761:2783   */\n  mstore\n    /* \"#utility.yul\":2551:2789   */\n  pop\n    /* \"#utility.yul\":2508:2789   */\n  pop\n  pop\n  jump\t// out\n    /* \"#utility.yul\":2795:2975   */\ntag_76:\n    /* \"#utility.yul\":2843:2920   */\n  0x4e487b7100000000000000000000000000000000000000000000000000000000\n    /* \"#utility.yul\":2840:2841   */\n  0x00\n    /* \"#utility.yul\":2833:2921   */\n  mstore\n    /* \"#utility.yul\":2940:2944   */\n  0x22\n    /* \"#utility.yul\":2937:2938   */\n  0x04\n    /* \"#utility.yul\":2930:2945   */\n  mstore\n    /* \"#utility.yul\":2964:2968   */\n  0x24\n    /* \"#utility.yul\":2961:2962   */\n  0x00\n    /* \"#utility.yul\":2954:2969   */\n  revert\n    /* \"#utility.yul\":2981:3161   */\ntag_64:\n    /* \"#utility.yul\":3029:3106   */\n  0x4e487b7100000000000000000000000000000000000000000000000000000000\n    /* \"#utility.yul\":3026:3027   */\n  0x00\n    /* \"#utility.yul\":3019:3107   */\n  mstore\n    /* \"#utility.yul\":3126:3130   */\n  0x41\n    /* \"#utility.yul\":3123:3124   */\n  0x04\n    /* \"#utility.yul\":3116:3131   */\n  mstore\n    /* \"#utility.yul\":3150:3154   */\n  0x24\n    /* \"#utility.yul\":3147:3148   */\n  0x00\n    /* \"#utility.yul\":3140:3155   */\n  revert\n    /* \"#utility.yul\":3167:3284   */\ntag_45:\n    /* \"#utility.yul\":3276:3277   */\n  0x00\n    /* \"#utility.yul\":3273:3274   */\n  dup1\n    /* \"#utility.yul\":3266:3278   */\n  revert\n    /* \"#utility.yul\":3290:3407   */\ntag_38:\n    /* \"#utility.yul\":3399:3400   */\n  0x00\n    /* \"#utility.yul\":3396:3397   */\n  dup1\n    /* \"#utility.yul\":3389:3401   */\n  revert\n    /* \"#utility.yul\":3413:3530   */\ntag_53:\n    /* \"#utility.yul\":3522:3523   */\n  0x00\n    /* \"#utility.yul\":3519:3520   */\n  dup1\n    /* \"#utility.yul\":3512:3524   */\n  revert\n    /* \"#utility.yul\":3536:3653   */\ntag_50:\n    /* \"#utility.yul\":3645:3646   */\n  0x00\n    /* \"#utility.yul\":3642:3643   */\n  dup1\n    /* \"#utility.yul\":3635:3647   */\n  revert\n    /* \"#utility.yul\":3659:3761   */\ntag_66:\n    /* \"#utility.yul\":3700:3706   */\n  0x00\n    /* \"#utility.yul\":3751:3753   */\n  0x1f\n    /* \"#utility.yul\":3747:3754   */\n  not\n    /* \"#utility.yul\":3742:3744   */\n  0x1f\n    /* \"#utility.yul\":3735:3740   */\n  dup4\n    /* \"#utility.yul\":3731:3745   */\n  add\n    /* \"#utility.yul\":3727:3755   */\n  and\n    /* \"#utility.yul\":3717:3755   */\n  swap1\n  pop\n    /* \"#utility.yul\":3659:3761   */\n  swap2\n  swap1\n  pop\n  jump\t// out\n    /* \"Dropsite.sol\":122:4821  contract Dropsite is ERC1155_Dropsite  { ... */\ntag_10:\n  dataSize(sub_0)\n  dup1\n  dataOffset(sub_0)\n  0x00\n  codecopy\n  0x00\n  return\nstop\n\nsub_0: assembly {\n        /* \"Dropsite.sol\":122:4821  contract Dropsite is ERC1155_Dropsite  { ... */\n      mstore(0x40, 0x80)\n      jumpi(tag_1, lt(calldatasize, 0x04))\n      shr(0xe0, calldataload(0x00))\n      dup1\n      0x3d65df70\n      gt\n      tag_12\n      jumpi\n      dup1\n      0x3d65df70\n      eq\n      tag_7\n      jumpi\n      dup1\n      0x60daa851\n      eq\n      tag_8\n      jumpi\n      dup1\n      0xaa90c726\n      eq\n      tag_9\n      jumpi\n      dup1\n      0xb4a99a4e\n      eq\n      tag_10\n      jumpi\n      dup1\n      0xfd93d41c\n      eq\n      tag_11\n      jumpi\n      jump(tag_1)\n    tag_12:\n      dup1\n      0x0390c11c\n      eq\n      tag_2\n      jumpi\n      dup1\n      0x0a67d2c7\n      eq\n      tag_3\n      jumpi\n      dup1\n      0x1309a563\n      eq\n      tag_4\n      jumpi\n      dup1\n      0x15460259\n      eq\n      tag_5\n      jumpi\n      dup1\n      0x3b668059\n      eq\n      tag_6\n      jumpi\n    tag_1:\n      0x00\n      dup1\n      revert\n        /* \"Dropsite.sol\":1341:1445  function checkTotalMinted() public view OnlyOwner returns(uint){... */\n    tag_2:\n      callvalue\n      dup1\n      iszero\n      tag_13\n      jumpi\n      0x00\n      dup1\n      revert\n    tag_13:\n      pop\n      tag_14\n      tag_15\n      jump\t// in\n    tag_14:\n      mload(0x40)\n      tag_16\n      swap2\n      swap1\n      tag_17\n      jump\t// in\n    tag_16:\n      mload(0x40)\n      dup1\n      swap2\n      sub\n      swap1\n      return\n        /* \"Dropsite.sol\":1803:2017  function withDraw(address payable to) public payable OnlyOwner {... */\n    tag_3:\n      tag_18\n      0x04\n      dup1\n      calldatasize\n      sub\n      dup2\n      add\n      swap1\n      tag_19\n      swap2\n      swap1\n      tag_20\n      jump\t// in\n    tag_19:\n      tag_21\n      jump\t// in\n    tag_18:\n      stop\n        /* \"Dropsite.sol\":821:848  bool public IsPaused = true */\n    tag_4:\n      callvalue\n      dup1\n      iszero\n      tag_22\n      jumpi\n      0x00\n      dup1\n      revert\n    tag_22:\n      pop\n      tag_23\n      tag_24\n      jump\t// in\n    tag_23:\n      mload(0x40)\n      tag_25\n      swap2\n      swap1\n      tag_26\n      jump\t// in\n    tag_25:\n      mload(0x40)\n      dup1\n      swap2\n      sub\n      swap1\n      return\n        /* \"Dropsite.sol\":1593:1729  function openDropsite() public OnlyOwner {... */\n    tag_5:\n      callvalue\n      dup1\n      iszero\n      tag_27\n      jumpi\n      0x00\n      dup1\n      revert\n    tag_27:\n      pop\n      tag_28\n      tag_29\n      jump\t// in\n    tag_28:\n      stop\n        /* \"Dropsite.sol\":2070:2178  function ContractBalance() public view OnlyOwner returns (uint){... */\n    tag_6:\n      callvalue\n      dup1\n      iszero\n      tag_30\n      jumpi\n      0x00\n      dup1\n      revert\n    tag_30:\n      pop\n      tag_31\n      tag_32\n      jump\t// in\n    tag_31:\n      mload(0x40)\n      tag_33\n      swap2\n      swap1\n      tag_17\n      jump\t// in\n    tag_33:\n      mload(0x40)\n      dup1\n      swap2\n      sub\n      swap1\n      return\n        /* \"Dropsite.sol\":3599:4813  function CryptoRandomMint(address user_addr) OnlyOwner contractIsNotPaused public payable returns (uint,string memory) {... */\n    tag_7:\n      tag_34\n      0x04\n      dup1\n      calldatasize\n      sub\n      dup2\n      add\n      swap1\n      tag_35\n      swap2\n      swap1\n      tag_36\n      jump\t// in\n    tag_35:\n      tag_37\n      jump\t// in\n    tag_34:\n      mload(0x40)\n      tag_38\n      swap3\n      swap2\n      swap1\n      tag_39\n      jump\t// in\n    tag_38:\n      mload(0x40)\n      dup1\n      swap2\n      sub\n      swap1\n      return\n        /* \"Dropsite.sol\":1208:1336  function checkMintedCategoryWise() public view OnlyOwner returns(uint,uint,uint){... */\n    tag_8:\n      callvalue\n      dup1\n      iszero\n      tag_40\n      jumpi\n      0x00\n      dup1\n      revert\n    tag_40:\n      pop\n      tag_41\n      tag_42\n      jump\t// in\n    tag_41:\n      mload(0x40)\n      tag_43\n      swap4\n      swap3\n      swap2\n      swap1\n      tag_44\n      jump\t// in\n    tag_43:\n      mload(0x40)\n      dup1\n      swap2\n      sub\n      swap1\n      return\n        /* \"Dropsite.sol\":1451:1586  function stopDropsite() public OnlyOwner{... */\n    tag_9:\n      callvalue\n      dup1\n      iszero\n      tag_45\n      jumpi\n      0x00\n      dup1\n      revert\n    tag_45:\n      pop\n      tag_46\n      tag_47\n      jump\t// in\n    tag_46:\n      stop\n        /* \"Dropsite.sol\":854:883  address payable public  Owner */\n    tag_10:\n      callvalue\n      dup1\n      iszero\n      tag_48\n      jumpi\n      0x00\n      dup1\n      revert\n    tag_48:\n      pop\n      tag_49\n      tag_50\n      jump\t// in\n    tag_49:\n      mload(0x40)\n      tag_51\n      swap2\n      swap1\n      tag_52\n      jump\t// in\n    tag_51:\n      mload(0x40)\n      dup1\n      swap2\n      sub\n      swap1\n      return\n        /* \"Dropsite.sol\":2366:3452  function FiatrandomMint(address user_addr) OnlyOwner contractIsNotPaused public returns (uint,string memory) {... */\n    tag_11:\n      callvalue\n      dup1\n      iszero\n      tag_53\n      jumpi\n      0x00\n      dup1\n      revert\n    tag_53:\n      pop\n      tag_54\n      0x04\n      dup1\n      calldatasize\n      sub\n      dup2\n      add\n      swap1\n      tag_55\n      swap2\n      swap1\n      tag_36\n      jump\t// in\n    tag_55:\n      tag_56\n      jump\t// in\n    tag_54:\n      mload(0x40)\n      tag_57\n      swap3\n      swap2\n      swap1\n      tag_39\n      jump\t// in\n    tag_57:\n      mload(0x40)\n      dup1\n      swap2\n      sub\n      swap1\n      return\n        /* \"Dropsite.sol\":1341:1445  function checkTotalMinted() public view OnlyOwner returns(uint){... */\n    tag_15:\n        /* \"Dropsite.sol\":1399:1403  uint */\n      0x00\n        /* \"Dropsite.sol\":593:598  Owner */\n      0x0b\n      0x01\n      swap1\n      sload\n      swap1\n      0x0100\n      exp\n      swap1\n      div\n      0xffffffffffffffffffffffffffffffffffffffff\n      and\n        /* \"Dropsite.sol\":577:598  _msgSender() == Owner */\n      0xffffffffffffffffffffffffffffffffffffffff\n      and\n        /* \"Dropsite.sol\":577:589  _msgSender() */\n      tag_59\n        /* \"Dropsite.sol\":577:587  _msgSender */\n      tag_60\n        /* \"Dropsite.sol\":577:589  _msgSender() */\n      jump\t// in\n    tag_59:\n        /* \"Dropsite.sol\":577:598  _msgSender() == Owner */\n      0xffffffffffffffffffffffffffffffffffffffff\n      and\n      eq\n        /* \"Dropsite.sol\":569:631  require(_msgSender() == Owner, \"Only NFT-ES Owner can Access\") */\n      tag_61\n      jumpi\n      mload(0x40)\n      0x08c379a000000000000000000000000000000000000000000000000000000000\n      dup2\n      mstore\n      0x04\n      add\n      tag_62\n      swap1\n      tag_63\n      jump\t// in\n    tag_62:\n      mload(0x40)\n      dup1\n      swap2\n      sub\n      swap1\n      revert\n    tag_61:\n        /* \"Dropsite.sol\":1422:1437  TotalNFTsMinted */\n      sload(0x03)\n        /* \"Dropsite.sol\":1415:1437  return TotalNFTsMinted */\n      swap1\n      pop\n        /* \"Dropsite.sol\":1341:1445  function checkTotalMinted() public view OnlyOwner returns(uint){... */\n      swap1\n      jump\t// out\n        /* \"Dropsite.sol\":1803:2017  function withDraw(address payable to) public payable OnlyOwner {... */\n    tag_21:\n        /* \"Dropsite.sol\":593:598  Owner */\n      0x0b\n      0x01\n      swap1\n      sload\n      swap1\n      0x0100\n      exp\n      swap1\n      div\n      0xffffffffffffffffffffffffffffffffffffffff\n      and\n        /* \"Dropsite.sol\":577:598  _msgSender() == Owner */\n      0xffffffffffffffffffffffffffffffffffffffff\n      and\n        /* \"Dropsite.sol\":577:589  _msgSender() */\n      tag_66\n        /* \"Dropsite.sol\":577:587  _msgSender */\n      tag_60\n        /* \"Dropsite.sol\":577:589  _msgSender() */\n      jump\t// in\n    tag_66:\n        /* \"Dropsite.sol\":577:598  _msgSender() == Owner */\n      0xffffffffffffffffffffffffffffffffffffffff\n      and\n      eq\n        /* \"Dropsite.sol\":569:631  require(_msgSender() == Owner, \"Only NFT-ES Owner can Access\") */\n      tag_67\n      jumpi\n      mload(0x40)\n      0x08c379a000000000000000000000000000000000000000000000000000000000\n      dup2\n      mstore\n      0x04\n      add\n      tag_68\n      swap1\n      tag_63\n      jump\t// in\n    tag_68:\n      mload(0x40)\n      dup1\n      swap2\n      sub\n      swap1\n      revert\n    tag_67:\n        /* \"Dropsite.sol\":1876:1888  uint Balance */\n      0x00\n        /* \"Dropsite.sol\":1891:1912  address(this).balance */\n      selfbalance\n        /* \"Dropsite.sol\":1876:1912  uint Balance = address(this).balance */\n      swap1\n      pop\n        /* \"Dropsite.sol\":1940:1945  0 wei */\n      0x00\n        /* \"Dropsite.sol\":1930:1937  Balance */\n      dup2\n        /* \"Dropsite.sol\":1930:1945  Balance > 0 wei */\n      gt\n        /* \"Dropsite.sol\":1922:1979  require(Balance > 0 wei, \"Error! No Balance to withdraw\") */\n      tag_70\n      jumpi\n      mload(0x40)\n      0x08c379a000000000000000000000000000000000000000000000000000000000\n      dup2\n      mstore\n      0x04\n      add\n      tag_71\n      swap1\n      tag_72\n      jump\t// in\n    tag_71:\n      mload(0x40)\n      dup1\n      swap2\n      sub\n      swap1\n      revert\n    tag_70:\n        /* \"Dropsite.sol\":1990:1992  to */\n      dup2\n        /* \"Dropsite.sol\":1990:2001  to.transfer */\n      0xffffffffffffffffffffffffffffffffffffffff\n      and\n        /* \"Dropsite.sol\":1990:2010  to.transfer(Balance) */\n      0x08fc\n        /* \"Dropsite.sol\":2002:2009  Balance */\n      dup3\n        /* \"Dropsite.sol\":1990:2010  to.transfer(Balance) */\n      swap1\n      dup2\n      iszero\n      mul\n      swap1\n      mload(0x40)\n      0x00\n      mload(0x40)\n      dup1\n      dup4\n      sub\n      dup2\n      dup6\n      dup9\n      dup9\n      call\n      swap4\n      pop\n      pop\n      pop\n      pop\n      iszero\n      dup1\n      iszero\n      tag_74\n      jumpi\n      returndatasize\n      0x00\n      dup1\n      returndatacopy\n      revert(0x00, returndatasize)\n    tag_74:\n      pop\n        /* \"Dropsite.sol\":1866:2017  {... */\n      pop\n        /* \"Dropsite.sol\":1803:2017  function withDraw(address payable to) public payable OnlyOwner {... */\n      pop\n      jump\t// out\n        /* \"Dropsite.sol\":821:848  bool public IsPaused = true */\n    tag_24:\n      0x0b\n      0x00\n      swap1\n      sload\n      swap1\n      0x0100\n      exp\n      swap1\n      div\n      0xff\n      and\n      dup2\n      jump\t// out\n        /* \"Dropsite.sol\":1593:1729  function openDropsite() public OnlyOwner {... */\n    tag_29:\n        /* \"Dropsite.sol\":593:598  Owner */\n      0x0b\n      0x01\n      swap1\n      sload\n      swap1\n      0x0100\n      exp\n      swap1\n      div\n      0xffffffffffffffffffffffffffffffffffffffff\n      and\n        /* \"Dropsite.sol\":577:598  _msgSender() == Owner */\n      0xffffffffffffffffffffffffffffffffffffffff\n      and\n        /* \"Dropsite.sol\":577:589  _msgSender() */\n      tag_76\n        /* \"Dropsite.sol\":577:587  _msgSender */\n      tag_60\n        /* \"Dropsite.sol\":577:589  _msgSender() */\n      jump\t// in\n    tag_76:\n        /* \"Dropsite.sol\":577:598  _msgSender() == Owner */\n      0xffffffffffffffffffffffffffffffffffffffff\n      and\n      eq\n        /* \"Dropsite.sol\":569:631  require(_msgSender() == Owner, \"Only NFT-ES Owner can Access\") */\n      tag_77\n      jumpi\n      mload(0x40)\n      0x08c379a000000000000000000000000000000000000000000000000000000000\n      dup2\n      mstore\n      0x04\n      add\n      tag_78\n      swap1\n      tag_63\n      jump\t// in\n    tag_78:\n      mload(0x40)\n      dup1\n      swap2\n      sub\n      swap1\n      revert\n    tag_77:\n        /* \"Dropsite.sol\":1662:1666  true */\n      0x01\n        /* \"Dropsite.sol\":1652:1666  IsPaused==true */\n      iszero\n      iszero\n        /* \"Dropsite.sol\":1652:1660  IsPaused */\n      0x0b\n      0x00\n      swap1\n      sload\n      swap1\n      0x0100\n      exp\n      swap1\n      div\n      0xff\n      and\n        /* \"Dropsite.sol\":1652:1666  IsPaused==true */\n      iszero\n      iszero\n      eq\n        /* \"Dropsite.sol\":1644:1698  require(IsPaused==true, \"Dropsite is already Running\") */\n      tag_80\n      jumpi\n      mload(0x40)\n      0x08c379a000000000000000000000000000000000000000000000000000000000\n      dup2\n      mstore\n      0x04\n      add\n      tag_81\n      swap1\n      tag_82\n      jump\t// in\n    tag_81:\n      mload(0x40)\n      dup1\n      swap2\n      sub\n      swap1\n      revert\n    tag_80:\n        /* \"Dropsite.sol\":1717:1722  false */\n      0x00\n        /* \"Dropsite.sol\":1708:1716  IsPaused */\n      0x0b\n      0x00\n        /* \"Dropsite.sol\":1708:1722  IsPaused=false */\n      0x0100\n      exp\n      dup2\n      sload\n      dup2\n      0xff\n      mul\n      not\n      and\n      swap1\n      dup4\n      iszero\n      iszero\n      mul\n      or\n      swap1\n      sstore\n      pop\n        /* \"Dropsite.sol\":1593:1729  function openDropsite() public OnlyOwner {... */\n      jump\t// out\n        /* \"Dropsite.sol\":2070:2178  function ContractBalance() public view OnlyOwner returns (uint){... */\n    tag_32:\n        /* \"Dropsite.sol\":2128:2132  uint */\n      0x00\n        /* \"Dropsite.sol\":593:598  Owner */\n      0x0b\n      0x01\n      swap1\n      sload\n      swap1\n      0x0100\n      exp\n      swap1\n      div\n      0xffffffffffffffffffffffffffffffffffffffff\n      and\n        /* \"Dropsite.sol\":577:598  _msgSender() == Owner */\n      0xffffffffffffffffffffffffffffffffffffffff\n      and\n        /* \"Dropsite.sol\":577:589  _msgSender() */\n      tag_84\n        /* \"Dropsite.sol\":577:587  _msgSender */\n      tag_60\n        /* \"Dropsite.sol\":577:589  _msgSender() */\n      jump\t// in\n    tag_84:\n        /* \"Dropsite.sol\":577:598  _msgSender() == Owner */\n      0xffffffffffffffffffffffffffffffffffffffff\n      and\n      eq\n        /* \"Dropsite.sol\":569:631  require(_msgSender() == Owner, \"Only NFT-ES Owner can Access\") */\n      tag_85\n      jumpi\n      mload(0x40)\n      0x08c379a000000000000000000000000000000000000000000000000000000000\n      dup2\n      mstore\n      0x04\n      add\n      tag_86\n      swap1\n      tag_63\n      jump\t// in\n    tag_86:\n      mload(0x40)\n      dup1\n      swap2\n      sub\n      swap1\n      revert\n    tag_85:\n        /* \"Dropsite.sol\":2150:2171  address(this).balance */\n      selfbalance\n        /* \"Dropsite.sol\":2143:2171  return address(this).balance */\n      swap1\n      pop\n        /* \"Dropsite.sol\":2070:2178  function ContractBalance() public view OnlyOwner returns (uint){... */\n      swap1\n      jump\t// out\n        /* \"Dropsite.sol\":3599:4813  function CryptoRandomMint(address user_addr) OnlyOwner contractIsNotPaused public payable returns (uint,string memory) {... */\n    tag_37:\n        /* \"Dropsite.sol\":3698:3702  uint */\n      0x00\n        /* \"Dropsite.sol\":3703:3716  string memory */\n      0x60\n        /* \"Dropsite.sol\":593:598  Owner */\n      0x0b\n      0x01\n      swap1\n      sload\n      swap1\n      0x0100\n      exp\n      swap1\n      div\n      0xffffffffffffffffffffffffffffffffffffffff\n      and\n        /* \"Dropsite.sol\":577:598  _msgSender() == Owner */\n      0xffffffffffffffffffffffffffffffffffffffff\n      and\n        /* \"Dropsite.sol\":577:589  _msgSender() */\n      tag_89\n        /* \"Dropsite.sol\":577:587  _msgSender */\n      tag_60\n        /* \"Dropsite.sol\":577:589  _msgSender() */\n      jump\t// in\n    tag_89:\n        /* \"Dropsite.sol\":577:598  _msgSender() == Owner */\n      0xffffffffffffffffffffffffffffffffffffffff\n      and\n      eq\n        /* \"Dropsite.sol\":569:631  require(_msgSender() == Owner, \"Only NFT-ES Owner can Access\") */\n      tag_90\n      jumpi\n      mload(0x40)\n      0x08c379a000000000000000000000000000000000000000000000000000000000\n      dup2\n      mstore\n      0x04\n      add\n      tag_91\n      swap1\n      tag_63\n      jump\t// in\n    tag_91:\n      mload(0x40)\n      dup1\n      swap2\n      sub\n      swap1\n      revert\n    tag_90:\n        /* \"Dropsite.sol\":758:763  false */\n      0x00\n        /* \"Dropsite.sol\":746:763  IsPaused == false */\n      iszero\n      iszero\n        /* \"Dropsite.sol\":746:754  IsPaused */\n      0x0b\n      0x00\n      swap1\n      sload\n      swap1\n      0x0100\n      exp\n      swap1\n      div\n      0xff\n      and\n        /* \"Dropsite.sol\":746:763  IsPaused == false */\n      iszero\n      iszero\n      eq\n        /* \"Dropsite.sol\":737:796  require (IsPaused == false, \"Dropsite is not Opened Yet.\" ) */\n      tag_93\n      jumpi\n      mload(0x40)\n      0x08c379a000000000000000000000000000000000000000000000000000000000\n      dup2\n      mstore\n      0x04\n      add\n      tag_94\n      swap1\n      tag_95\n      jump\t// in\n    tag_94:\n      mload(0x40)\n      dup1\n      swap2\n      sub\n      swap1\n      revert\n    tag_93:\n        /* \"Dropsite.sol\":3749:3752  100 */\n      0x64\n        /* \"Dropsite.sol\":3733:3748  TotalNFTsMinted */\n      sload(0x03)\n        /* \"Dropsite.sol\":3733:3752  TotalNFTsMinted<100 */\n      lt\n        /* \"Dropsite.sol\":3725:3782  require(TotalNFTsMinted<100, \"Max Minting Limit reached\") */\n      tag_97\n      jumpi\n      mload(0x40)\n      0x08c379a000000000000000000000000000000000000000000000000000000000\n      dup2\n      mstore\n      0x04\n      add\n      tag_98\n      swap1\n      tag_99\n      jump\t// in\n    tag_98:\n      mload(0x40)\n      dup1\n      swap2\n      sub\n      swap1\n      revert\n    tag_97:\n        /* \"Dropsite.sol\":3811:3828  13000000000000000 */\n      0x2e2f6e5e148000\n        /* \"Dropsite.sol\":3797:3806  msg.value */\n      callvalue\n        /* \"Dropsite.sol\":3797:3829  msg.value == (13000000000000000) */\n      eq\n        /* \"Dropsite.sol\":3789:3852  require(msg.value == (13000000000000000), \"Not Enough Balance\") */\n      tag_100\n      jumpi\n      mload(0x40)\n      0x08c379a000000000000000000000000000000000000000000000000000000000\n      dup2\n      mstore\n      0x04\n      add\n      tag_101\n      swap1\n      tag_102\n      jump\t// in\n    tag_101:\n      mload(0x40)\n      dup1\n      swap2\n      sub\n      swap1\n      revert\n    tag_100:\n        /* \"Dropsite.sol\":3857:3867  uint nftId */\n      0x00\n        /* \"Dropsite.sol\":3870:3878  random() */\n      tag_103\n        /* \"Dropsite.sol\":3870:3876  random */\n      tag_104\n        /* \"Dropsite.sol\":3870:3878  random() */\n      jump\t// in\n    tag_103:\n        /* \"Dropsite.sol\":3857:3878  uint nftId = random() */\n      swap1\n      pop\n        /* \"Dropsite.sol\":3998:3999  0 */\n      0x00\n        /* \"Dropsite.sol\":3989:3994  nftId */\n      dup2\n        /* \"Dropsite.sol\":3989:3999  nftId == 0 */\n      eq\n        /* \"Dropsite.sol\":3989:4016  nftId == 0 && Platinum < 15 */\n      dup1\n      iszero\n      tag_105\n      jumpi\n      pop\n        /* \"Dropsite.sol\":4014:4016  15 */\n      0x0f\n        /* \"Dropsite.sol\":4003:4011  Platinum */\n      sload(0x05)\n        /* \"Dropsite.sol\":4003:4016  Platinum < 15 */\n      lt\n        /* \"Dropsite.sol\":3989:4016  nftId == 0 && Platinum < 15 */\n    tag_105:\n        /* \"Dropsite.sol\":3986:4410  if(nftId == 0 && Platinum < 15) {... */\n      iszero\n      tag_106\n      jumpi\n        /* \"Dropsite.sol\":4028:4045  data = \"Platinum\" */\n      mload(0x40)\n      dup1\n      0x40\n      add\n      0x40\n      mstore\n      dup1\n      0x08\n      dup2\n      mstore\n      0x20\n      add\n      0x506c6174696e756d000000000000000000000000000000000000000000000000\n      dup2\n      mstore\n      pop\n        /* \"Dropsite.sol\":4028:4032  data */\n      0x02\n        /* \"Dropsite.sol\":4028:4045  data = \"Platinum\" */\n      swap1\n      dup1\n      mload\n      swap1\n      0x20\n      add\n      swap1\n      tag_107\n      swap3\n      swap2\n      swap1\n      tag_108\n      jump\t// in\n    tag_107:\n      pop\n        /* \"Dropsite.sol\":4055:4063  Platinum */\n      0x05\n      0x00\n        /* \"Dropsite.sol\":4055:4065  Platinum++ */\n      dup2\n      sload\n      dup1\n      swap3\n      swap2\n      swap1\n      tag_109\n      swap1\n      tag_110\n      jump\t// in\n    tag_109:\n      swap2\n      swap1\n      pop\n      sstore\n      pop\n        /* \"Dropsite.sol\":3986:4410  if(nftId == 0 && Platinum < 15) {... */\n      jump(tag_111)\n    tag_106:\n        /* \"Dropsite.sol\":4166:4167  1 */\n      0x01\n        /* \"Dropsite.sol\":4157:4162  nftId */\n      dup2\n        /* \"Dropsite.sol\":4157:4167  nftId <= 1 */\n      gt\n      iszero\n        /* \"Dropsite.sol\":4157:4180  nftId <= 1 && Gold < 35 */\n      dup1\n      iszero\n      tag_112\n      jumpi\n      pop\n        /* \"Dropsite.sol\":4178:4180  35 */\n      0x23\n        /* \"Dropsite.sol\":4171:4175  Gold */\n      sload(0x06)\n        /* \"Dropsite.sol\":4171:4180  Gold < 35 */\n      lt\n        /* \"Dropsite.sol\":4157:4180  nftId <= 1 && Gold < 35 */\n    tag_112:\n        /* \"Dropsite.sol\":4154:4410  if(nftId <= 1 && Gold < 35) {... */\n      iszero\n      tag_113\n      jumpi\n        /* \"Dropsite.sol\":4192:4205  data = \"Gold\" */\n      mload(0x40)\n      dup1\n      0x40\n      add\n      0x40\n      mstore\n      dup1\n      0x04\n      dup2\n      mstore\n      0x20\n      add\n      0x476f6c6400000000000000000000000000000000000000000000000000000000\n      dup2\n      mstore\n      pop\n        /* \"Dropsite.sol\":4192:4196  data */\n      0x02\n        /* \"Dropsite.sol\":4192:4205  data = \"Gold\" */\n      swap1\n      dup1\n      mload\n      swap1\n      0x20\n      add\n      swap1\n      tag_114\n      swap3\n      swap2\n      swap1\n      tag_108\n      jump\t// in\n    tag_114:\n      pop\n        /* \"Dropsite.sol\":4215:4219  Gold */\n      0x06\n      0x00\n        /* \"Dropsite.sol\":4215:4221  Gold++ */\n      dup2\n      sload\n      dup1\n      swap3\n      swap2\n      swap1\n      tag_115\n      swap1\n      tag_110\n      jump\t// in\n    tag_115:\n      swap2\n      swap1\n      pop\n      sstore\n      pop\n        /* \"Dropsite.sol\":4154:4410  if(nftId <= 1 && Gold < 35) {... */\n      jump(tag_116)\n    tag_113:\n        /* \"Dropsite.sol\":4343:4344  2 */\n      0x02\n        /* \"Dropsite.sol\":4334:4339  nftId */\n      dup2\n        /* \"Dropsite.sol\":4334:4344  nftId <= 2 */\n      gt\n      iszero\n        /* \"Dropsite.sol\":4334:4360  nftId <= 2 && Silver <= 50 */\n      dup1\n      iszero\n      tag_117\n      jumpi\n      pop\n        /* \"Dropsite.sol\":4358:4360  50 */\n      0x32\n        /* \"Dropsite.sol\":4348:4354  Silver */\n      sload(0x07)\n        /* \"Dropsite.sol\":4348:4360  Silver <= 50 */\n      gt\n      iszero\n        /* \"Dropsite.sol\":4334:4360  nftId <= 2 && Silver <= 50 */\n    tag_117:\n        /* \"Dropsite.sol\":4331:4410  if(nftId <= 2 && Silver <= 50) {... */\n      iszero\n      tag_118\n      jumpi\n        /* \"Dropsite.sol\":4372:4385  data=\"Silver\" */\n      mload(0x40)\n      dup1\n      0x40\n      add\n      0x40\n      mstore\n      dup1\n      0x06\n      dup2\n      mstore\n      0x20\n      add\n      0x53696c7665720000000000000000000000000000000000000000000000000000\n      dup2\n      mstore\n      pop\n        /* \"Dropsite.sol\":4372:4376  data */\n      0x02\n        /* \"Dropsite.sol\":4372:4385  data=\"Silver\" */\n      swap1\n      dup1\n      mload\n      swap1\n      0x20\n      add\n      swap1\n      tag_119\n      swap3\n      swap2\n      swap1\n      tag_108\n      jump\t// in\n    tag_119:\n      pop\n        /* \"Dropsite.sol\":4395:4401  Silver */\n      0x07\n      0x00\n        /* \"Dropsite.sol\":4395:4403  Silver++ */\n      dup2\n      sload\n      dup1\n      swap3\n      swap2\n      swap1\n      tag_120\n      swap1\n      tag_110\n      jump\t// in\n    tag_120:\n      swap2\n      swap1\n      pop\n      sstore\n      pop\n        /* \"Dropsite.sol\":4331:4410  if(nftId <= 2 && Silver <= 50) {... */\n    tag_118:\n        /* \"Dropsite.sol\":4154:4410  if(nftId <= 1 && Gold < 35) {... */\n    tag_116:\n        /* \"Dropsite.sol\":3986:4410  if(nftId == 0 && Platinum < 15) {... */\n    tag_111:\n        /* \"Dropsite.sol\":4619:4661  _mint(user_addr, nftId, numOfCopies, data) */\n      tag_121\n        /* \"Dropsite.sol\":4625:4634  user_addr */\n      dup5\n        /* \"Dropsite.sol\":4636:4641  nftId */\n      dup3\n        /* \"Dropsite.sol\":4643:4654  numOfCopies */\n      sload(0x04)\n        /* \"Dropsite.sol\":4656:4660  data */\n      0x02\n        /* \"Dropsite.sol\":4619:4661  _mint(user_addr, nftId, numOfCopies, data) */\n      dup1\n      sload\n      tag_122\n      swap1\n      tag_123\n      jump\t// in\n    tag_122:\n      dup1\n      0x1f\n      add\n      0x20\n      dup1\n      swap2\n      div\n      mul\n      0x20\n      add\n      mload(0x40)\n      swap1\n      dup2\n      add\n      0x40\n      mstore\n      dup1\n      swap3\n      swap2\n      swap1\n      dup2\n      dup2\n      mstore\n      0x20\n      add\n      dup3\n      dup1\n      sload\n      tag_124\n      swap1\n      tag_123\n      jump\t// in\n    tag_124:\n      dup1\n      iszero\n      tag_125\n      jumpi\n      dup1\n      0x1f\n      lt\n      tag_126\n      jumpi\n      0x0100\n      dup1\n      dup4\n      sload\n      div\n      mul\n      dup4\n      mstore\n      swap2\n      0x20\n      add\n      swap2\n      jump(tag_125)\n    tag_126:\n      dup3\n      add\n      swap2\n      swap1\n      0x00\n      mstore\n      keccak256(0x00, 0x20)\n      swap1\n    tag_127:\n      dup2\n      sload\n      dup2\n      mstore\n      swap1\n      0x01\n      add\n      swap1\n      0x20\n      add\n      dup1\n      dup4\n      gt\n      tag_127\n      jumpi\n      dup3\n      swap1\n      sub\n      0x1f\n      and\n      dup3\n      add\n      swap2\n    tag_125:\n      pop\n      pop\n      pop\n      pop\n      pop\n        /* \"Dropsite.sol\":4619:4624  _mint */\n      tag_128\n        /* \"Dropsite.sol\":4619:4661  _mint(user_addr, nftId, numOfCopies, data) */\n      jump\t// in\n    tag_121:\n        /* \"Dropsite.sol\":4667:4709  depositBidAmmount(_msgSender(), msg.value) */\n      tag_129\n        /* \"Dropsite.sol\":4685:4697  _msgSender() */\n      tag_130\n        /* \"Dropsite.sol\":4685:4695  _msgSender */\n      tag_60\n        /* \"Dropsite.sol\":4685:4697  _msgSender() */\n      jump\t// in\n    tag_130:\n        /* \"Dropsite.sol\":4699:4708  msg.value */\n      callvalue\n        /* \"Dropsite.sol\":4667:4684  depositBidAmmount */\n      tag_131\n        /* \"Dropsite.sol\":4667:4709  depositBidAmmount(_msgSender(), msg.value) */\n      jump\t// in\n    tag_129:\n        /* \"Dropsite.sol\":4715:4730  TotalNFTsMinted */\n      0x03\n      0x00\n        /* \"Dropsite.sol\":4715:4732  TotalNFTsMinted++ */\n      dup2\n      sload\n      dup1\n      swap3\n      swap2\n      swap1\n      tag_132\n      swap1\n      tag_110\n      jump\t// in\n    tag_132:\n      swap2\n      swap1\n      pop\n      sstore\n      pop\n        /* \"Dropsite.sol\":4768:4773  nftId */\n      dup1\n        /* \"Dropsite.sol\":4738:4756  dropsite_NFT_Owner */\n      0x08\n        /* \"Dropsite.sol\":4738:4767  dropsite_NFT_Owner[user_addr] */\n      0x00\n        /* \"Dropsite.sol\":4757:4766  user_addr */\n      dup7\n        /* \"Dropsite.sol\":4738:4767  dropsite_NFT_Owner[user_addr] */\n      0xffffffffffffffffffffffffffffffffffffffff\n      and\n      0xffffffffffffffffffffffffffffffffffffffff\n      and\n      dup2\n      mstore\n      0x20\n      add\n      swap1\n      dup2\n      mstore\n      0x20\n      add\n      0x00\n      keccak256\n        /* \"Dropsite.sol\":4738:4773  dropsite_NFT_Owner[user_addr]=nftId */\n      dup2\n      swap1\n      sstore\n      pop\n        /* \"Dropsite.sol\":4787:4792  nftId */\n      dup1\n        /* \"Dropsite.sol\":4800:4804  data */\n      0x02\n        /* \"Dropsite.sol\":4779:4806  return (nftId,string(data)) */\n      dup1\n      dup1\n      sload\n      tag_133\n      swap1\n      tag_123\n      jump\t// in\n    tag_133:\n      dup1\n      0x1f\n      add\n      0x20\n      dup1\n      swap2\n      div\n      mul\n      0x20\n      add\n      mload(0x40)\n      swap1\n      dup2\n      add\n      0x40\n      mstore\n      dup1\n      swap3\n      swap2\n      swap1\n      dup2\n      dup2\n      mstore\n      0x20\n      add\n      dup3\n      dup1\n      sload\n      tag_134\n      swap1\n      tag_123\n      jump\t// in\n    tag_134:\n      dup1\n      iszero\n      tag_135\n      jumpi\n      dup1\n      0x1f\n      lt\n      tag_136\n      jumpi\n      0x0100\n      dup1\n      dup4\n      sload\n      div\n      mul\n      dup4\n      mstore\n      swap2\n      0x20\n      add\n      swap2\n      jump(tag_135)\n    tag_136:\n      dup3\n      add\n      swap2\n      swap1\n      0x00\n      mstore\n      keccak256(0x00, 0x20)\n      swap1\n    tag_137:\n      dup2\n      sload\n      dup2\n      mstore\n      swap1\n      0x01\n      add\n      swap1\n      0x20\n      add\n      dup1\n      dup4\n      gt\n      tag_137\n      jumpi\n      dup3\n      swap1\n      sub\n      0x1f\n      and\n      dup3\n      add\n      swap2\n    tag_135:\n      pop\n      pop\n      pop\n      pop\n      pop\n      swap1\n      pop\n      swap3\n      pop\n      swap3\n      pop\n      pop\n        /* \"Dropsite.sol\":3599:4813  function CryptoRandomMint(address user_addr) OnlyOwner contractIsNotPaused public payable returns (uint,string memory) {... */\n      swap2\n      pop\n      swap2\n      jump\t// out\n        /* \"Dropsite.sol\":1208:1336  function checkMintedCategoryWise() public view OnlyOwner returns(uint,uint,uint){... */\n    tag_42:\n        /* \"Dropsite.sol\":1273:1277  uint */\n      0x00\n        /* \"Dropsite.sol\":1278:1282  uint */\n      dup1\n        /* \"Dropsite.sol\":1283:1287  uint */\n      0x00\n        /* \"Dropsite.sol\":593:598  Owner */\n      0x0b\n      0x01\n      swap1\n      sload\n      swap1\n      0x0100\n      exp\n      swap1\n      div\n      0xffffffffffffffffffffffffffffffffffffffff\n      and\n        /* \"Dropsite.sol\":577:598  _msgSender() == Owner */\n      0xffffffffffffffffffffffffffffffffffffffff\n      and\n        /* \"Dropsite.sol\":577:589  _msgSender() */\n      tag_139\n        /* \"Dropsite.sol\":577:587  _msgSender */\n      tag_60\n        /* \"Dropsite.sol\":577:589  _msgSender() */\n      jump\t// in\n    tag_139:\n        /* \"Dropsite.sol\":577:598  _msgSender() == Owner */\n      0xffffffffffffffffffffffffffffffffffffffff\n      and\n      eq\n        /* \"Dropsite.sol\":569:631  require(_msgSender() == Owner, \"Only NFT-ES Owner can Access\") */\n      tag_140\n      jumpi\n      mload(0x40)\n      0x08c379a000000000000000000000000000000000000000000000000000000000\n      dup2\n      mstore\n      0x04\n      add\n      tag_141\n      swap1\n      tag_63\n      jump\t// in\n    tag_141:\n      mload(0x40)\n      dup1\n      swap2\n      sub\n      swap1\n      revert\n    tag_140:\n        /* \"Dropsite.sol\":1307:1315  Platinum */\n      sload(0x05)\n        /* \"Dropsite.sol\":1316:1320  Gold */\n      sload(0x06)\n        /* \"Dropsite.sol\":1321:1327  Silver */\n      sload(0x07)\n        /* \"Dropsite.sol\":1299:1328  return (Platinum,Gold,Silver) */\n      swap3\n      pop\n      swap3\n      pop\n      swap3\n      pop\n        /* \"Dropsite.sol\":1208:1336  function checkMintedCategoryWise() public view OnlyOwner returns(uint,uint,uint){... */\n      swap1\n      swap2\n      swap3\n      jump\t// out\n        /* \"Dropsite.sol\":1451:1586  function stopDropsite() public OnlyOwner{... */\n    tag_47:\n        /* \"Dropsite.sol\":593:598  Owner */\n      0x0b\n      0x01\n      swap1\n      sload\n      swap1\n      0x0100\n      exp\n      swap1\n      div\n      0xffffffffffffffffffffffffffffffffffffffff\n      and\n        /* \"Dropsite.sol\":577:598  _msgSender() == Owner */\n      0xffffffffffffffffffffffffffffffffffffffff\n      and\n        /* \"Dropsite.sol\":577:589  _msgSender() */\n      tag_144\n        /* \"Dropsite.sol\":577:587  _msgSender */\n      tag_60\n        /* \"Dropsite.sol\":577:589  _msgSender() */\n      jump\t// in\n    tag_144:\n        /* \"Dropsite.sol\":577:598  _msgSender() == Owner */\n      0xffffffffffffffffffffffffffffffffffffffff\n      and\n      eq\n        /* \"Dropsite.sol\":569:631  require(_msgSender() == Owner, \"Only NFT-ES Owner can Access\") */\n      tag_145\n      jumpi\n      mload(0x40)\n      0x08c379a000000000000000000000000000000000000000000000000000000000\n      dup2\n      mstore\n      0x04\n      add\n      tag_146\n      swap1\n      tag_63\n      jump\t// in\n    tag_146:\n      mload(0x40)\n      dup1\n      swap2\n      sub\n      swap1\n      revert\n    tag_145:\n        /* \"Dropsite.sol\":1519:1524  false */\n      0x00\n        /* \"Dropsite.sol\":1509:1524  IsPaused==false */\n      iszero\n      iszero\n        /* \"Dropsite.sol\":1509:1517  IsPaused */\n      0x0b\n      0x00\n      swap1\n      sload\n      swap1\n      0x0100\n      exp\n      swap1\n      div\n      0xff\n      and\n        /* \"Dropsite.sol\":1509:1524  IsPaused==false */\n      iszero\n      iszero\n      eq\n        /* \"Dropsite.sol\":1501:1556  require(IsPaused==false, \"Dropsite is already Stopped\") */\n      tag_148\n      jumpi\n      mload(0x40)\n      0x08c379a000000000000000000000000000000000000000000000000000000000\n      dup2\n      mstore\n      0x04\n      add\n      tag_149\n      swap1\n      tag_150\n      jump\t// in\n    tag_149:\n      mload(0x40)\n      dup1\n      swap2\n      sub\n      swap1\n      revert\n    tag_148:\n        /* \"Dropsite.sol\":1575:1579  true */\n      0x01\n        /* \"Dropsite.sol\":1566:1574  IsPaused */\n      0x0b\n      0x00\n        /* \"Dropsite.sol\":1566:1579  IsPaused=true */\n      0x0100\n      exp\n      dup2\n      sload\n      dup2\n      0xff\n      mul\n      not\n      and\n      swap1\n      dup4\n      iszero\n      iszero\n      mul\n      or\n      swap1\n      sstore\n      pop\n        /* \"Dropsite.sol\":1451:1586  function stopDropsite() public OnlyOwner{... */\n      jump\t// out\n        /* \"Dropsite.sol\":854:883  address payable public  Owner */\n    tag_50:\n      0x0b\n      0x01\n      swap1\n      sload\n      swap1\n      0x0100\n      exp\n      swap1\n      div\n      0xffffffffffffffffffffffffffffffffffffffff\n      and\n      dup2\n      jump\t// out\n        /* \"Dropsite.sol\":2366:3452  function FiatrandomMint(address user_addr) OnlyOwner contractIsNotPaused public returns (uint,string memory) {... */\n    tag_56:\n        /* \"Dropsite.sol\":2455:2459  uint */\n      0x00\n        /* \"Dropsite.sol\":2460:2473  string memory */\n      0x60\n        /* \"Dropsite.sol\":593:598  Owner */\n      0x0b\n      0x01\n      swap1\n      sload\n      swap1\n      0x0100\n      exp\n      swap1\n      div\n      0xffffffffffffffffffffffffffffffffffffffff\n      and\n        /* \"Dropsite.sol\":577:598  _msgSender() == Owner */\n      0xffffffffffffffffffffffffffffffffffffffff\n      and\n        /* \"Dropsite.sol\":577:589  _msgSender() */\n      tag_152\n        /* \"Dropsite.sol\":577:587  _msgSender */\n      tag_60\n        /* \"Dropsite.sol\":577:589  _msgSender() */\n      jump\t// in\n    tag_152:\n        /* \"Dropsite.sol\":577:598  _msgSender() == Owner */\n      0xffffffffffffffffffffffffffffffffffffffff\n      and\n      eq\n        /* \"Dropsite.sol\":569:631  require(_msgSender() == Owner, \"Only NFT-ES Owner can Access\") */\n      tag_153\n      jumpi\n      mload(0x40)\n      0x08c379a000000000000000000000000000000000000000000000000000000000\n      dup2\n      mstore\n      0x04\n      add\n      tag_154\n      swap1\n      tag_63\n      jump\t// in\n    tag_154:\n      mload(0x40)\n      dup1\n      swap2\n      sub\n      swap1\n      revert\n    tag_153:\n        /* \"Dropsite.sol\":758:763  false */\n      0x00\n        /* \"Dropsite.sol\":746:763  IsPaused == false */\n      iszero\n      iszero\n        /* \"Dropsite.sol\":746:754  IsPaused */\n      0x0b\n      0x00\n      swap1\n      sload\n      swap1\n      0x0100\n      exp\n      swap1\n      div\n      0xff\n      and\n        /* \"Dropsite.sol\":746:763  IsPaused == false */\n      iszero\n      iszero\n      eq\n        /* \"Dropsite.sol\":737:796  require (IsPaused == false, \"Dropsite is not Opened Yet.\" ) */\n      tag_156\n      jumpi\n      mload(0x40)\n      0x08c379a000000000000000000000000000000000000000000000000000000000\n      dup2\n      mstore\n      0x04\n      add\n      tag_157\n      swap1\n      tag_95\n      jump\t// in\n    tag_157:\n      mload(0x40)\n      dup1\n      swap2\n      sub\n      swap1\n      revert\n    tag_156:\n        /* \"Dropsite.sol\":2506:2509  100 */\n      0x64\n        /* \"Dropsite.sol\":2490:2505  TotalNFTsMinted */\n      sload(0x03)\n        /* \"Dropsite.sol\":2490:2509  TotalNFTsMinted<100 */\n      lt\n        /* \"Dropsite.sol\":2482:2539  require(TotalNFTsMinted<100, \"Max Minting Limit reached\") */\n      tag_159\n      jumpi\n      mload(0x40)\n      0x08c379a000000000000000000000000000000000000000000000000000000000\n      dup2\n      mstore\n      0x04\n      add\n      tag_160\n      swap1\n      tag_99\n      jump\t// in\n    tag_160:\n      mload(0x40)\n      dup1\n      swap2\n      sub\n      swap1\n      revert\n    tag_159:\n        /* \"Dropsite.sol\":2544:2554  uint nftId */\n      0x00\n        /* \"Dropsite.sol\":2557:2565  random() */\n      tag_161\n        /* \"Dropsite.sol\":2557:2563  random */\n      tag_104\n        /* \"Dropsite.sol\":2557:2565  random() */\n      jump\t// in\n    tag_161:\n        /* \"Dropsite.sol\":2544:2565  uint nftId = random() */\n      swap1\n      pop\n        /* \"Dropsite.sol\":2685:2686  0 */\n      0x00\n        /* \"Dropsite.sol\":2676:2681  nftId */\n      dup2\n        /* \"Dropsite.sol\":2676:2686  nftId == 0 */\n      eq\n        /* \"Dropsite.sol\":2676:2703  nftId == 0 && Platinum < 15 */\n      dup1\n      iszero\n      tag_162\n      jumpi\n      pop\n        /* \"Dropsite.sol\":2701:2703  15 */\n      0x0f\n        /* \"Dropsite.sol\":2690:2698  Platinum */\n      sload(0x05)\n        /* \"Dropsite.sol\":2690:2703  Platinum < 15 */\n      lt\n        /* \"Dropsite.sol\":2676:2703  nftId == 0 && Platinum < 15 */\n    tag_162:\n        /* \"Dropsite.sol\":2673:3097  if(nftId == 0 && Platinum < 15) {... */\n      iszero\n      tag_163\n      jumpi\n        /* \"Dropsite.sol\":2715:2732  data = \"Platinum\" */\n      mload(0x40)\n      dup1\n      0x40\n      add\n      0x40\n      mstore\n      dup1\n      0x08\n      dup2\n      mstore\n      0x20\n      add\n      0x506c6174696e756d000000000000000000000000000000000000000000000000\n      dup2\n      mstore\n      pop\n        /* \"Dropsite.sol\":2715:2719  data */\n      0x02\n        /* \"Dropsite.sol\":2715:2732  data = \"Platinum\" */\n      swap1\n      dup1\n      mload\n      swap1\n      0x20\n      add\n      swap1\n      tag_164\n      swap3\n      swap2\n      swap1\n      tag_108\n      jump\t// in\n    tag_164:\n      pop\n        /* \"Dropsite.sol\":2742:2750  Platinum */\n      0x05\n      0x00\n        /* \"Dropsite.sol\":2742:2752  Platinum++ */\n      dup2\n      sload\n      dup1\n      swap3\n      swap2\n      swap1\n      tag_165\n      swap1\n      tag_110\n      jump\t// in\n    tag_165:\n      swap2\n      swap1\n      pop\n      sstore\n      pop\n        /* \"Dropsite.sol\":2673:3097  if(nftId == 0 && Platinum < 15) {... */\n      jump(tag_166)\n    tag_163:\n        /* \"Dropsite.sol\":2853:2854  1 */\n      0x01\n        /* \"Dropsite.sol\":2844:2849  nftId */\n      dup2\n        /* \"Dropsite.sol\":2844:2854  nftId <= 1 */\n      gt\n      iszero\n        /* \"Dropsite.sol\":2844:2867  nftId <= 1 && Gold < 35 */\n      dup1\n      iszero\n      tag_167\n      jumpi\n      pop\n        /* \"Dropsite.sol\":2865:2867  35 */\n      0x23\n        /* \"Dropsite.sol\":2858:2862  Gold */\n      sload(0x06)\n        /* \"Dropsite.sol\":2858:2867  Gold < 35 */\n      lt\n        /* \"Dropsite.sol\":2844:2867  nftId <= 1 && Gold < 35 */\n    tag_167:\n        /* \"Dropsite.sol\":2841:3097  if(nftId <= 1 && Gold < 35) {... */\n      iszero\n      tag_168\n      jumpi\n        /* \"Dropsite.sol\":2879:2892  data = \"Gold\" */\n      mload(0x40)\n      dup1\n      0x40\n      add\n      0x40\n      mstore\n      dup1\n      0x04\n      dup2\n      mstore\n      0x20\n      add\n      0x476f6c6400000000000000000000000000000000000000000000000000000000\n      dup2\n      mstore\n      pop\n        /* \"Dropsite.sol\":2879:2883  data */\n      0x02\n        /* \"Dropsite.sol\":2879:2892  data = \"Gold\" */\n      swap1\n      dup1\n      mload\n      swap1\n      0x20\n      add\n      swap1\n      tag_169\n      swap3\n      swap2\n      swap1\n      tag_108\n      jump\t// in\n    tag_169:\n      pop\n        /* \"Dropsite.sol\":2902:2906  Gold */\n      0x06\n      0x00\n        /* \"Dropsite.sol\":2902:2908  Gold++ */\n      dup2\n      sload\n      dup1\n      swap3\n      swap2\n      swap1\n      tag_170\n      swap1\n      tag_110\n      jump\t// in\n    tag_170:\n      swap2\n      swap1\n      pop\n      sstore\n      pop\n        /* \"Dropsite.sol\":2841:3097  if(nftId <= 1 && Gold < 35) {... */\n      jump(tag_171)\n    tag_168:\n        /* \"Dropsite.sol\":3030:3031  2 */\n      0x02\n        /* \"Dropsite.sol\":3021:3026  nftId */\n      dup2\n        /* \"Dropsite.sol\":3021:3031  nftId <= 2 */\n      gt\n      iszero\n        /* \"Dropsite.sol\":3021:3047  nftId <= 2 && Silver <= 50 */\n      dup1\n      iszero\n      tag_172\n      jumpi\n      pop\n        /* \"Dropsite.sol\":3045:3047  50 */\n      0x32\n        /* \"Dropsite.sol\":3035:3041  Silver */\n      sload(0x07)\n        /* \"Dropsite.sol\":3035:3047  Silver <= 50 */\n      gt\n      iszero\n        /* \"Dropsite.sol\":3021:3047  nftId <= 2 && Silver <= 50 */\n    tag_172:\n        /* \"Dropsite.sol\":3018:3097  if(nftId <= 2 && Silver <= 50) {... */\n      iszero\n      tag_173\n      jumpi\n        /* \"Dropsite.sol\":3059:3072  data=\"Silver\" */\n      mload(0x40)\n      dup1\n      0x40\n      add\n      0x40\n      mstore\n      dup1\n      0x06\n      dup2\n      mstore\n      0x20\n      add\n      0x53696c7665720000000000000000000000000000000000000000000000000000\n      dup2\n      mstore\n      pop\n        /* \"Dropsite.sol\":3059:3063  data */\n      0x02\n        /* \"Dropsite.sol\":3059:3072  data=\"Silver\" */\n      swap1\n      dup1\n      mload\n      swap1\n      0x20\n      add\n      swap1\n      tag_174\n      swap3\n      swap2\n      swap1\n      tag_108\n      jump\t// in\n    tag_174:\n      pop\n        /* \"Dropsite.sol\":3082:3088  Silver */\n      0x07\n      0x00\n        /* \"Dropsite.sol\":3082:3090  Silver++ */\n      dup2\n      sload\n      dup1\n      swap3\n      swap2\n      swap1\n      tag_175\n      swap1\n      tag_110\n      jump\t// in\n    tag_175:\n      swap2\n      swap1\n      pop\n      sstore\n      pop\n        /* \"Dropsite.sol\":3018:3097  if(nftId <= 2 && Silver <= 50) {... */\n    tag_173:\n        /* \"Dropsite.sol\":2841:3097  if(nftId <= 1 && Gold < 35) {... */\n    tag_171:\n        /* \"Dropsite.sol\":2673:3097  if(nftId == 0 && Platinum < 15) {... */\n    tag_166:\n        /* \"Dropsite.sol\":3306:3348  _mint(user_addr, nftId, numOfCopies, data) */\n      tag_176\n        /* \"Dropsite.sol\":3312:3321  user_addr */\n      dup5\n        /* \"Dropsite.sol\":3323:3328  nftId */\n      dup3\n        /* \"Dropsite.sol\":3330:3341  numOfCopies */\n      sload(0x04)\n        /* \"Dropsite.sol\":3343:3347  data */\n      0x02\n        /* \"Dropsite.sol\":3306:3348  _mint(user_addr, nftId, numOfCopies, data) */\n      dup1\n      sload\n      tag_177\n      swap1\n      tag_123\n      jump\t// in\n    tag_177:\n      dup1\n      0x1f\n      add\n      0x20\n      dup1\n      swap2\n      div\n      mul\n      0x20\n      add\n      mload(0x40)\n      swap1\n      dup2\n      add\n      0x40\n      mstore\n      dup1\n      swap3\n      swap2\n      swap1\n      dup2\n      dup2\n      mstore\n      0x20\n      add\n      dup3\n      dup1\n      sload\n      tag_178\n      swap1\n      tag_123\n      jump\t// in\n    tag_178:\n      dup1\n      iszero\n      tag_179\n      jumpi\n      dup1\n      0x1f\n      lt\n      tag_180\n      jumpi\n      0x0100\n      dup1\n      dup4\n      sload\n      div\n      mul\n      dup4\n      mstore\n      swap2\n      0x20\n      add\n      swap2\n      jump(tag_179)\n    tag_180:\n      dup3\n      add\n      swap2\n      swap1\n      0x00\n      mstore\n      keccak256(0x00, 0x20)\n      swap1\n    tag_181:\n      dup2\n      sload\n      dup2\n      mstore\n      swap1\n      0x01\n      add\n      swap1\n      0x20\n      add\n      dup1\n      dup4\n      gt\n      tag_181\n      jumpi\n      dup3\n      swap1\n      sub\n      0x1f\n      and\n      dup3\n      add\n      swap2\n    tag_179:\n      pop\n      pop\n      pop\n      pop\n      pop\n        /* \"Dropsite.sol\":3306:3311  _mint */\n      tag_128\n        /* \"Dropsite.sol\":3306:3348  _mint(user_addr, nftId, numOfCopies, data) */\n      jump\t// in\n    tag_176:\n        /* \"Dropsite.sol\":3354:3369  TotalNFTsMinted */\n      0x03\n      0x00\n        /* \"Dropsite.sol\":3354:3371  TotalNFTsMinted++ */\n      dup2\n      sload\n      dup1\n      swap3\n      swap2\n      swap1\n      tag_182\n      swap1\n      tag_110\n      jump\t// in\n    tag_182:\n      swap2\n      swap1\n      pop\n      sstore\n      pop\n        /* \"Dropsite.sol\":3407:3412  nftId */\n      dup1\n        /* \"Dropsite.sol\":3377:3395  dropsite_NFT_Owner */\n      0x08\n        /* \"Dropsite.sol\":3377:3406  dropsite_NFT_Owner[user_addr] */\n      0x00\n        /* \"Dropsite.sol\":3396:3405  user_addr */\n      dup7\n        /* \"Dropsite.sol\":3377:3406  dropsite_NFT_Owner[user_addr] */\n      0xffffffffffffffffffffffffffffffffffffffff\n      and\n      0xffffffffffffffffffffffffffffffffffffffff\n      and\n      dup2\n      mstore\n      0x20\n      add\n      swap1\n      dup2\n      mstore\n      0x20\n      add\n      0x00\n      keccak256\n        /* \"Dropsite.sol\":3377:3412  dropsite_NFT_Owner[user_addr]=nftId */\n      dup2\n      swap1\n      sstore\n      pop\n        /* \"Dropsite.sol\":3426:3431  nftId */\n      dup1\n        /* \"Dropsite.sol\":3439:3443  data */\n      0x02\n        /* \"Dropsite.sol\":3418:3445  return (nftId,string(data)) */\n      dup1\n      dup1\n      sload\n      tag_183\n      swap1\n      tag_123\n      jump\t// in\n    tag_183:\n      dup1\n      0x1f\n      add\n      0x20\n      dup1\n      swap2\n      div\n      mul\n      0x20\n      add\n      mload(0x40)\n      swap1\n      dup2\n      add\n      0x40\n      mstore\n      dup1\n      swap3\n      swap2\n      swap1\n      dup2\n      dup2\n      mstore\n      0x20\n      add\n      dup3\n      dup1\n      sload\n      tag_184\n      swap1\n      tag_123\n      jump\t// in\n    tag_184:\n      dup1\n      iszero\n      tag_185\n      jumpi\n      dup1\n      0x1f\n      lt\n      tag_186\n      jumpi\n      0x0100\n      dup1\n      dup4\n      sload\n      div\n      mul\n      dup4\n      mstore\n      swap2\n      0x20\n      add\n      swap2\n      jump(tag_185)\n    tag_186:\n      dup3\n      add\n      swap2\n      swap1\n      0x00\n      mstore\n      keccak256(0x00, 0x20)\n      swap1\n    tag_187:\n      dup2\n      sload\n      dup2\n      mstore\n      swap1\n      0x01\n      add\n      swap1\n      0x20\n      add\n      dup1\n      dup4\n      gt\n      tag_187\n      jumpi\n      dup3\n      swap1\n      sub\n      0x1f\n      and\n      dup3\n      add\n      swap2\n    tag_185:\n      pop\n      pop\n      pop\n      pop\n      pop\n      swap1\n      pop\n      swap3\n      pop\n      swap3\n      pop\n      pop\n        /* \"Dropsite.sol\":2366:3452  function FiatrandomMint(address user_addr) OnlyOwner contractIsNotPaused public returns (uint,string memory) {... */\n      swap2\n      pop\n      swap2\n      jump\t// out\n        /* \"Context.sol\":640:736  function _msgSender() internal view virtual returns (address) {... */\n    tag_60:\n        /* \"Context.sol\":693:700  address */\n      0x00\n        /* \"Context.sol\":719:729  msg.sender */\n      caller\n        /* \"Context.sol\":712:729  return msg.sender */\n      swap1\n      pop\n        /* \"Context.sol\":640:736  function _msgSender() internal view virtual returns (address) {... */\n      swap1\n      jump\t// out\n        /* \"Dropsite.sol\":2184:2355  function random() internal view returns (uint) {... */\n    tag_104:\n        /* \"Dropsite.sol\":2225:2229  uint */\n      0x00\n        /* \"Dropsite.sol\":2237:2254  uint randomnumber */\n      dup1\n        /* \"Dropsite.sol\":2322:2323  3 */\n      0x03\n        /* \"Dropsite.sol\":2289:2304  block.timestamp */\n      timestamp\n        /* \"Dropsite.sol\":2306:2316  msg.sender */\n      caller\n        /* \"Dropsite.sol\":2272:2317  abi.encodePacked(block.timestamp, msg.sender) */\n      add(0x20, mload(0x40))\n      tag_190\n      swap3\n      swap2\n      swap1\n      tag_191\n      jump\t// in\n    tag_190:\n      mload(0x40)\n      0x20\n      dup2\n      dup4\n      sub\n      sub\n      dup2\n      mstore\n      swap1\n      0x40\n      mstore\n        /* \"Dropsite.sol\":2262:2318  keccak256(abi.encodePacked(block.timestamp, msg.sender)) */\n      dup1\n      mload\n      swap1\n      0x20\n      add\n      keccak256\n        /* \"Dropsite.sol\":2257:2319  uint(keccak256(abi.encodePacked(block.timestamp, msg.sender))) */\n      0x00\n      shr\n        /* \"Dropsite.sol\":2257:2323  uint(keccak256(abi.encodePacked(block.timestamp, msg.sender))) % 3 */\n      tag_192\n      swap2\n      swap1\n      tag_193\n      jump\t// in\n    tag_192:\n        /* \"Dropsite.sol\":2237:2323  uint randomnumber = uint(keccak256(abi.encodePacked(block.timestamp, msg.sender))) % 3 */\n      swap1\n      pop\n        /* \"Dropsite.sol\":2336:2348  randomnumber */\n      dup1\n        /* \"Dropsite.sol\":2329:2348  return randomnumber */\n      swap2\n      pop\n      pop\n        /* \"Dropsite.sol\":2184:2355  function random() internal view returns (uint) {... */\n      swap1\n      jump\t// out\n        /* \"ERC1155_Dropsite.sol\":835:1386  function _mint(... */\n    tag_128:\n        /* \"ERC1155_Dropsite.sol\":996:997  0 */\n      0x00\n        /* \"ERC1155_Dropsite.sol\":982:998  to != address(0) */\n      0xffffffffffffffffffffffffffffffffffffffff\n      and\n        /* \"ERC1155_Dropsite.sol\":982:984  to */\n      dup5\n        /* \"ERC1155_Dropsite.sol\":982:998  to != address(0) */\n      0xffffffffffffffffffffffffffffffffffffffff\n      and\n      eq\n      iszero\n        /* \"ERC1155_Dropsite.sol\":974:1036  require(to != address(0), \"ERC1155: mint to the zero address\") */\n      tag_195\n      jumpi\n      mload(0x40)\n      0x08c379a000000000000000000000000000000000000000000000000000000000\n      dup2\n      mstore\n      0x04\n      add\n      tag_196\n      swap1\n      tag_197\n      jump\t// in\n    tag_196:\n      mload(0x40)\n      dup1\n      swap2\n      sub\n      swap1\n      revert\n    tag_195:\n        /* \"ERC1155_Dropsite.sol\":1047:1063  address operator */\n      0x00\n        /* \"ERC1155_Dropsite.sol\":1066:1078  _msgSender() */\n      tag_198\n        /* \"ERC1155_Dropsite.sol\":1066:1076  _msgSender */\n      tag_60\n        /* \"ERC1155_Dropsite.sol\":1066:1078  _msgSender() */\n      jump\t// in\n    tag_198:\n        /* \"ERC1155_Dropsite.sol\":1047:1078  address operator = _msgSender() */\n      swap1\n      pop\n        /* \"ERC1155_Dropsite.sol\":1089:1191  _beforeTokenTransfer(operator, address(0), to, _asSingletonArray(id), _asSingletonArray(amount), data) */\n      tag_199\n        /* \"ERC1155_Dropsite.sol\":1110:1118  operator */\n      dup2\n        /* \"ERC1155_Dropsite.sol\":1128:1129  0 */\n      0x00\n        /* \"ERC1155_Dropsite.sol\":1132:1134  to */\n      dup8\n        /* \"ERC1155_Dropsite.sol\":1136:1157  _asSingletonArray(id) */\n      tag_200\n        /* \"ERC1155_Dropsite.sol\":1154:1156  id */\n      dup9\n        /* \"ERC1155_Dropsite.sol\":1136:1153  _asSingletonArray */\n      tag_201\n        /* \"ERC1155_Dropsite.sol\":1136:1157  _asSingletonArray(id) */\n      jump\t// in\n    tag_200:\n        /* \"ERC1155_Dropsite.sol\":1159:1184  _asSingletonArray(amount) */\n      tag_202\n        /* \"ERC1155_Dropsite.sol\":1177:1183  amount */\n      dup9\n        /* \"ERC1155_Dropsite.sol\":1159:1176  _asSingletonArray */\n      tag_201\n        /* \"ERC1155_Dropsite.sol\":1159:1184  _asSingletonArray(amount) */\n      jump\t// in\n    tag_202:\n        /* \"ERC1155_Dropsite.sol\":1186:1190  data */\n      dup8\n        /* \"ERC1155_Dropsite.sol\":1089:1109  _beforeTokenTransfer */\n      tag_203\n        /* \"ERC1155_Dropsite.sol\":1089:1191  _beforeTokenTransfer(operator, address(0), to, _asSingletonArray(id), _asSingletonArray(amount), data) */\n      jump\t// in\n    tag_199:\n        /* \"ERC1155_Dropsite.sol\":1222:1228  amount */\n      dup3\n        /* \"ERC1155_Dropsite.sol\":1201:1210  _balances */\n      0x00\n        /* \"ERC1155_Dropsite.sol\":1201:1214  _balances[id] */\n      dup1\n        /* \"ERC1155_Dropsite.sol\":1211:1213  id */\n      dup7\n        /* \"ERC1155_Dropsite.sol\":1201:1214  _balances[id] */\n      dup2\n      mstore\n      0x20\n      add\n      swap1\n      dup2\n      mstore\n      0x20\n      add\n      0x00\n      keccak256\n        /* \"ERC1155_Dropsite.sol\":1201:1218  _balances[id][to] */\n      0x00\n        /* \"ERC1155_Dropsite.sol\":1215:1217  to */\n      dup8\n        /* \"ERC1155_Dropsite.sol\":1201:1218  _balances[id][to] */\n      0xffffffffffffffffffffffffffffffffffffffff\n      and\n      0xffffffffffffffffffffffffffffffffffffffff\n      and\n      dup2\n      mstore\n      0x20\n      add\n      swap1\n      dup2\n      mstore\n      0x20\n      add\n      0x00\n      keccak256\n      0x00\n        /* \"ERC1155_Dropsite.sol\":1201:1228  _balances[id][to] += amount */\n      dup3\n      dup3\n      sload\n      tag_204\n      swap2\n      swap1\n      tag_205\n      jump\t// in\n    tag_204:\n      swap3\n      pop\n      pop\n      dup2\n      swap1\n      sstore\n      pop\n        /* \"ERC1155_Dropsite.sol\":1280:1282  to */\n      dup5\n        /* \"ERC1155_Dropsite.sol\":1243:1295  TransferSingle(operator, address(0), to, id, amount) */\n      0xffffffffffffffffffffffffffffffffffffffff\n      and\n        /* \"ERC1155_Dropsite.sol\":1276:1277  0 */\n      0x00\n        /* \"ERC1155_Dropsite.sol\":1243:1295  TransferSingle(operator, address(0), to, id, amount) */\n      0xffffffffffffffffffffffffffffffffffffffff\n      and\n        /* \"ERC1155_Dropsite.sol\":1258:1266  operator */\n      dup3\n        /* \"ERC1155_Dropsite.sol\":1243:1295  TransferSingle(operator, address(0), to, id, amount) */\n      0xffffffffffffffffffffffffffffffffffffffff\n      and\n      0xc3d58168c5ae7397731d063d5bbf3d657854427343f4c083240f7aacaa2d0f62\n        /* \"ERC1155_Dropsite.sol\":1284:1286  id */\n      dup8\n        /* \"ERC1155_Dropsite.sol\":1288:1294  amount */\n      dup8\n        /* \"ERC1155_Dropsite.sol\":1243:1295  TransferSingle(operator, address(0), to, id, amount) */\n      mload(0x40)\n      tag_206\n      swap3\n      swap2\n      swap1\n      tag_207\n      jump\t// in\n    tag_206:\n      mload(0x40)\n      dup1\n      swap2\n      sub\n      swap1\n      log4\n        /* \"ERC1155_Dropsite.sol\":1305:1379  _doSafeTransferAcceptanceCheck(operator, address(0), to, id, amount, data) */\n      tag_208\n        /* \"ERC1155_Dropsite.sol\":1336:1344  operator */\n      dup2\n        /* \"ERC1155_Dropsite.sol\":1354:1355  0 */\n      0x00\n        /* \"ERC1155_Dropsite.sol\":1358:1360  to */\n      dup8\n        /* \"ERC1155_Dropsite.sol\":1362:1364  id */\n      dup8\n        /* \"ERC1155_Dropsite.sol\":1366:1372  amount */\n      dup8\n        /* \"ERC1155_Dropsite.sol\":1374:1378  data */\n      dup8\n        /* \"ERC1155_Dropsite.sol\":1305:1335  _doSafeTransferAcceptanceCheck */\n      tag_209\n        /* \"ERC1155_Dropsite.sol\":1305:1379  _doSafeTransferAcceptanceCheck(operator, address(0), to, id, amount, data) */\n      jump\t// in\n    tag_208:\n        /* \"ERC1155_Dropsite.sol\":964:1386  {... */\n      pop\n        /* \"ERC1155_Dropsite.sol\":835:1386  function _mint(... */\n      pop\n      pop\n      pop\n      pop\n      jump\t// out\n        /* \"Dropsite.sol\":3462:3593  function depositBidAmmount(address payee,uint amountToDeposit) internal {... */\n    tag_131:\n        /* \"Dropsite.sol\":3571:3586  amountToDeposit */\n      dup1\n        /* \"Dropsite.sol\":3552:3560  deposits */\n      0x0a\n        /* \"Dropsite.sol\":3552:3567  deposits[payee] */\n      0x00\n        /* \"Dropsite.sol\":3561:3566  payee */\n      dup5\n        /* \"Dropsite.sol\":3552:3567  deposits[payee] */\n      0xffffffffffffffffffffffffffffffffffffffff\n      and\n      0xffffffffffffffffffffffffffffffffffffffff\n      and\n      dup2\n      mstore\n      0x20\n      add\n      swap1\n      dup2\n      mstore\n      0x20\n      add\n      0x00\n      keccak256\n      0x00\n        /* \"Dropsite.sol\":3552:3586  deposits[payee] += amountToDeposit */\n      dup3\n      dup3\n      sload\n      tag_211\n      swap2\n      swap1\n      tag_205\n      jump\t// in\n    tag_211:\n      swap3\n      pop\n      pop\n      dup2\n      swap1\n      sstore\n      pop\n        /* \"Dropsite.sol\":3462:3593  function depositBidAmmount(address payee,uint amountToDeposit) internal {... */\n      pop\n      pop\n      jump\t// out\n        /* \"ERC1155_Dropsite.sol\":2344:2537  function _asSingletonArray(uint256 element) private pure returns (uint256[] memory) {... */\n    tag_201:\n        /* \"ERC1155_Dropsite.sol\":2410:2426  uint256[] memory */\n      0x60\n        /* \"ERC1155_Dropsite.sol\":2438:2460  uint256[] memory array */\n      0x00\n        /* \"ERC1155_Dropsite.sol\":2477:2478  1 */\n      0x01\n        /* \"ERC1155_Dropsite.sol\":2463:2479  new uint256[](1) */\n      0xffffffffffffffff\n      dup2\n      gt\n      iszero\n      tag_213\n      jumpi\n      tag_214\n      tag_215\n      jump\t// in\n    tag_214:\n    tag_213:\n      mload(0x40)\n      swap1\n      dup1\n      dup3\n      mstore\n      dup1\n      0x20\n      mul\n      0x20\n      add\n      dup3\n      add\n      0x40\n      mstore\n      dup1\n      iszero\n      tag_216\n      jumpi\n      dup2\n      0x20\n      add\n      0x20\n      dup3\n      mul\n      dup1\n      calldatasize\n      dup4\n      calldatacopy\n      dup1\n      dup3\n      add\n      swap2\n      pop\n      pop\n      swap1\n      pop\n    tag_216:\n      pop\n        /* \"ERC1155_Dropsite.sol\":2438:2479  uint256[] memory array = new uint256[](1) */\n      swap1\n      pop\n        /* \"ERC1155_Dropsite.sol\":2500:2507  element */\n      dup3\n        /* \"ERC1155_Dropsite.sol\":2489:2494  array */\n      dup2\n        /* \"ERC1155_Dropsite.sol\":2495:2496  0 */\n      0x00\n        /* \"ERC1155_Dropsite.sol\":2489:2497  array[0] */\n      dup2\n      mload\n      dup2\n      lt\n      tag_217\n      jumpi\n      tag_218\n      tag_219\n      jump\t// in\n    tag_218:\n    tag_217:\n      0x20\n      mul\n      0x20\n      add\n      add\n        /* \"ERC1155_Dropsite.sol\":2489:2507  array[0] = element */\n      dup2\n      dup2\n      mstore\n      pop\n      pop\n        /* \"ERC1155_Dropsite.sol\":2525:2530  array */\n      dup1\n        /* \"ERC1155_Dropsite.sol\":2518:2530  return array */\n      swap2\n      pop\n      pop\n        /* \"ERC1155_Dropsite.sol\":2344:2537  function _asSingletonArray(uint256 element) private pure returns (uint256[] memory) {... */\n      swap2\n      swap1\n      pop\n      jump\t// out\n        /* \"ERC1155_Dropsite.sol\":1393:1607  function _beforeTokenTransfer(... */\n    tag_203:\n      pop\n      pop\n      pop\n      pop\n      pop\n      pop\n      jump\t// out\n        /* \"ERC1155_Dropsite.sol\":1613:2338  function _doSafeTransferAcceptanceCheck(... */\n    tag_209:\n        /* \"ERC1155_Dropsite.sol\":1820:1835  to.isContract() */\n      tag_222\n        /* \"ERC1155_Dropsite.sol\":1820:1822  to */\n      dup5\n        /* \"ERC1155_Dropsite.sol\":1820:1833  to.isContract */\n      0xffffffffffffffffffffffffffffffffffffffff\n      and\n      tag_223\n        /* \"ERC1155_Dropsite.sol\":1820:1835  to.isContract() */\n      jump\t// in\n    tag_222:\n        /* \"ERC1155_Dropsite.sol\":1816:2332  if (to.isContract()) {... */\n      iszero\n      tag_224\n      jumpi\n        /* \"ERC1155_Dropsite.sol\":1872:1874  to */\n      dup4\n        /* \"ERC1155_Dropsite.sol\":1855:1893  IERC1155Receiver(to).onERC1155Received */\n      0xffffffffffffffffffffffffffffffffffffffff\n      and\n      0xf23a6e61\n        /* \"ERC1155_Dropsite.sol\":1894:1902  operator */\n      dup8\n        /* \"ERC1155_Dropsite.sol\":1904:1908  from */\n      dup8\n        /* \"ERC1155_Dropsite.sol\":1910:1912  id */\n      dup7\n        /* \"ERC1155_Dropsite.sol\":1914:1920  amount */\n      dup7\n        /* \"ERC1155_Dropsite.sol\":1922:1926  data */\n      dup7\n        /* \"ERC1155_Dropsite.sol\":1855:1927  IERC1155Receiver(to).onERC1155Received(operator, from, id, amount, data) */\n      mload(0x40)\n      dup7\n      0xffffffff\n      and\n      0xe0\n      shl\n      dup2\n      mstore\n      0x04\n      add\n      tag_225\n      swap6\n      swap5\n      swap4\n      swap3\n      swap2\n      swap1\n      tag_226\n      jump\t// in\n    tag_225:\n      0x20\n      mload(0x40)\n      dup1\n      dup4\n      sub\n      dup2\n      0x00\n      dup8\n      dup1\n      extcodesize\n      iszero\n      dup1\n      iszero\n      tag_227\n      jumpi\n      0x00\n      dup1\n      revert\n    tag_227:\n      pop\n      gas\n      call\n      swap3\n      pop\n      pop\n      pop\n      dup1\n      iszero\n      tag_228\n      jumpi\n      pop\n      mload(0x40)\n      returndatasize\n      not(0x1f)\n      0x1f\n      dup3\n      add\n      and\n      dup3\n      add\n      dup1\n      0x40\n      mstore\n      pop\n      dup2\n      add\n      swap1\n      tag_229\n      swap2\n      swap1\n      tag_230\n      jump\t// in\n    tag_229:\n      0x01\n    tag_228:\n        /* \"ERC1155_Dropsite.sol\":1851:2322  try IERC1155Receiver(to).onERC1155Received(operator, from, id, amount, data) returns (bytes4 response) {... */\n      tag_231\n      jumpi\n      tag_235\n      tag_236\n      jump\t// in\n    tag_235:\n      dup1\n      0x08c379a0\n      eq\n      iszero\n      tag_234\n      jumpi\n      pop\n      tag_237\n      tag_238\n      jump\t// in\n    tag_237:\n      dup1\n      tag_239\n      jumpi\n      pop\n      jump(tag_233)\n    tag_239:\n        /* \"ERC1155_Dropsite.sol\":2198:2204  reason */\n      dup1\n        /* \"ERC1155_Dropsite.sol\":2191:2205  revert(reason) */\n      mload(0x40)\n      0x08c379a000000000000000000000000000000000000000000000000000000000\n      dup2\n      mstore\n      0x04\n      add\n      tag_240\n      swap2\n      swap1\n      tag_241\n      jump\t// in\n    tag_240:\n      mload(0x40)\n      dup1\n      swap2\n      sub\n      swap1\n      revert\n        /* \"ERC1155_Dropsite.sol\":1851:2322  try IERC1155Receiver(to).onERC1155Received(operator, from, id, amount, data) returns (bytes4 response) {... */\n    tag_234:\n      pop\n    tag_233:\n        /* \"ERC1155_Dropsite.sol\":2245:2307  revert(\"ERC1155: transfer to non ERC1155Receiver implementer\") */\n      mload(0x40)\n      0x08c379a000000000000000000000000000000000000000000000000000000000\n      dup2\n      mstore\n      0x04\n      add\n      tag_242\n      swap1\n      tag_243\n      jump\t// in\n    tag_242:\n      mload(0x40)\n      dup1\n      swap2\n      sub\n      swap1\n      revert\n        /* \"ERC1155_Dropsite.sol\":1851:2322  try IERC1155Receiver(to).onERC1155Received(operator, from, id, amount, data) returns (bytes4 response) {... */\n    tag_231:\n        /* \"ERC1155_Dropsite.sol\":1988:2031  IERC1155Receiver.onERC1155Received.selector */\n      shl(0xe0, 0xf23a6e61)\n        /* \"ERC1155_Dropsite.sol\":1976:2031  response != IERC1155Receiver.onERC1155Received.selector */\n      not(0xffffffffffffffffffffffffffffffffffffffffffffffffffffffff)\n      and\n        /* \"ERC1155_Dropsite.sol\":1976:1984  response */\n      dup2\n        /* \"ERC1155_Dropsite.sol\":1976:2031  response != IERC1155Receiver.onERC1155Received.selector */\n      not(0xffffffffffffffffffffffffffffffffffffffffffffffffffffffff)\n      and\n      eq\n        /* \"ERC1155_Dropsite.sol\":1972:2124  if (response != IERC1155Receiver.onERC1155Received.selector) {... */\n      tag_245\n      jumpi\n        /* \"ERC1155_Dropsite.sol\":2055:2105  revert(\"ERC1155: ERC1155Receiver rejected tokens\") */\n      mload(0x40)\n      0x08c379a000000000000000000000000000000000000000000000000000000000\n      dup2\n      mstore\n      0x04\n      add\n      tag_246\n      swap1\n      tag_247\n      jump\t// in\n    tag_246:\n      mload(0x40)\n      dup1\n      swap2\n      sub\n      swap1\n      revert\n        /* \"ERC1155_Dropsite.sol\":1972:2124  if (response != IERC1155Receiver.onERC1155Received.selector) {... */\n    tag_245:\n        /* \"ERC1155_Dropsite.sol\":1928:2138  returns (bytes4 response) {... */\n      pop\n        /* \"ERC1155_Dropsite.sol\":1816:2332  if (to.isContract()) {... */\n    tag_224:\n        /* \"ERC1155_Dropsite.sol\":1613:2338  function _doSafeTransferAcceptanceCheck(... */\n      pop\n      pop\n      pop\n      pop\n      pop\n      pop\n      jump\t// out\n        /* \"Address.sol\":771:1148  function isContract(address account) internal view returns (bool) {... */\n    tag_223:\n        /* \"Address.sol\":831:835  bool */\n      0x00\n        /* \"Address.sol\":1034:1046  uint256 size */\n      dup1\n        /* \"Address.sol\":1099:1106  account */\n      dup3\n        /* \"Address.sol\":1087:1107  extcodesize(account) */\n      extcodesize\n        /* \"Address.sol\":1079:1107  size := extcodesize(account) */\n      swap1\n      pop\n        /* \"Address.sol\":1140:1141  0 */\n      0x00\n        /* \"Address.sol\":1133:1137  size */\n      dup2\n        /* \"Address.sol\":1133:1141  size > 0 */\n      gt\n        /* \"Address.sol\":1126:1141  return size > 0 */\n      swap2\n      pop\n      pop\n        /* \"Address.sol\":771:1148  function isContract(address account) internal view returns (bool) {... */\n      swap2\n      swap1\n      pop\n      jump\t// out\n    tag_108:\n      dup3\n      dup1\n      sload\n      tag_249\n      swap1\n      tag_123\n      jump\t// in\n    tag_249:\n      swap1\n      0x00\n      mstore\n      keccak256(0x00, 0x20)\n      swap1\n      0x1f\n      add\n      0x20\n      swap1\n      div\n      dup2\n      add\n      swap3\n      dup3\n      tag_251\n      jumpi\n      0x00\n      dup6\n      sstore\n      jump(tag_250)\n    tag_251:\n      dup3\n      0x1f\n      lt\n      tag_252\n      jumpi\n      dup1\n      mload\n      not(0xff)\n      and\n      dup4\n      dup1\n      add\n      or\n      dup6\n      sstore\n      jump(tag_250)\n    tag_252:\n      dup3\n      dup1\n      add\n      0x01\n      add\n      dup6\n      sstore\n      dup3\n      iszero\n      tag_250\n      jumpi\n      swap2\n      dup3\n      add\n    tag_253:\n      dup3\n      dup2\n      gt\n      iszero\n      tag_254\n      jumpi\n      dup3\n      mload\n      dup3\n      sstore\n      swap2\n      0x20\n      add\n      swap2\n      swap1\n      0x01\n      add\n      swap1\n      jump(tag_253)\n    tag_254:\n    tag_250:\n      pop\n      swap1\n      pop\n      tag_255\n      swap2\n      swap1\n      tag_256\n      jump\t// in\n    tag_255:\n      pop\n      swap1\n      jump\t// out\n    tag_256:\n    tag_257:\n      dup1\n      dup3\n      gt\n      iszero\n      tag_258\n      jumpi\n      0x00\n      dup2\n      0x00\n      swap1\n      sstore\n      pop\n      0x01\n      add\n      jump(tag_257)\n    tag_258:\n      pop\n      swap1\n      jump\t// out\n        /* \"#utility.yul\":7:146   */\n    tag_260:\n        /* \"#utility.yul\":53:58   */\n      0x00\n        /* \"#utility.yul\":91:97   */\n      dup2\n        /* \"#utility.yul\":78:98   */\n      calldataload\n        /* \"#utility.yul\":69:98   */\n      swap1\n      pop\n        /* \"#utility.yul\":107:140   */\n      tag_262\n        /* \"#utility.yul\":134:139   */\n      dup2\n        /* \"#utility.yul\":107:140   */\n      tag_263\n      jump\t// in\n    tag_262:\n        /* \"#utility.yul\":7:146   */\n      swap3\n      swap2\n      pop\n      pop\n      jump\t// out\n        /* \"#utility.yul\":152:307   */\n    tag_264:\n        /* \"#utility.yul\":206:211   */\n      0x00\n        /* \"#utility.yul\":244:250   */\n      dup2\n        /* \"#utility.yul\":231:251   */\n      calldataload\n        /* \"#utility.yul\":222:251   */\n      swap1\n      pop\n        /* \"#utility.yul\":260:301   */\n      tag_266\n        /* \"#utility.yul\":295:300   */\n      dup2\n        /* \"#utility.yul\":260:301   */\n      tag_267\n      jump\t// in\n    tag_266:\n        /* \"#utility.yul\":152:307   */\n      swap3\n      swap2\n      pop\n      pop\n      jump\t// out\n        /* \"#utility.yul\":313:454   */\n    tag_268:\n        /* \"#utility.yul\":369:374   */\n      0x00\n        /* \"#utility.yul\":400:406   */\n      dup2\n        /* \"#utility.yul\":394:407   */\n      mload\n        /* \"#utility.yul\":385:407   */\n      swap1\n      pop\n        /* \"#utility.yul\":416:448   */\n      tag_270\n        /* \"#utility.yul\":442:447   */\n      dup2\n        /* \"#utility.yul\":416:448   */\n      tag_271\n      jump\t// in\n    tag_270:\n        /* \"#utility.yul\":313:454   */\n      swap3\n      swap2\n      pop\n      pop\n      jump\t// out\n        /* \"#utility.yul\":460:789   */\n    tag_36:\n        /* \"#utility.yul\":519:525   */\n      0x00\n        /* \"#utility.yul\":568:570   */\n      0x20\n        /* \"#utility.yul\":556:565   */\n      dup3\n        /* \"#utility.yul\":547:554   */\n      dup5\n        /* \"#utility.yul\":543:566   */\n      sub\n        /* \"#utility.yul\":539:571   */\n      slt\n        /* \"#utility.yul\":536:655   */\n      iszero\n      tag_273\n      jumpi\n        /* \"#utility.yul\":574:653   */\n      tag_274\n      tag_275\n      jump\t// in\n    tag_274:\n        /* \"#utility.yul\":536:655   */\n    tag_273:\n        /* \"#utility.yul\":694:695   */\n      0x00\n        /* \"#utility.yul\":719:772   */\n      tag_276\n        /* \"#utility.yul\":764:771   */\n      dup5\n        /* \"#utility.yul\":755:761   */\n      dup3\n        /* \"#utility.yul\":744:753   */\n      dup6\n        /* \"#utility.yul\":740:762   */\n      add\n        /* \"#utility.yul\":719:772   */\n      tag_260\n      jump\t// in\n    tag_276:\n        /* \"#utility.yul\":709:772   */\n      swap2\n      pop\n        /* \"#utility.yul\":665:782   */\n      pop\n        /* \"#utility.yul\":460:789   */\n      swap3\n      swap2\n      pop\n      pop\n      jump\t// out\n        /* \"#utility.yul\":795:1140   */\n    tag_20:\n        /* \"#utility.yul\":862:868   */\n      0x00\n        /* \"#utility.yul\":911:913   */\n      0x20\n        /* \"#utility.yul\":899:908   */\n      dup3\n        /* \"#utility.yul\":890:897   */\n      dup5\n        /* \"#utility.yul\":886:909   */\n      sub\n        /* \"#utility.yul\":882:914   */\n      slt\n        /* \"#utility.yul\":879:998   */\n      iszero\n      tag_278\n      jumpi\n        /* \"#utility.yul\":917:996   */\n      tag_279\n      tag_275\n      jump\t// in\n    tag_279:\n        /* \"#utility.yul\":879:998   */\n    tag_278:\n        /* \"#utility.yul\":1037:1038   */\n      0x00\n        /* \"#utility.yul\":1062:1123   */\n      tag_280\n        /* \"#utility.yul\":1115:1122   */\n      dup5\n        /* \"#utility.yul\":1106:1112   */\n      dup3\n        /* \"#utility.yul\":1095:1104   */\n      dup6\n        /* \"#utility.yul\":1091:1113   */\n      add\n        /* \"#utility.yul\":1062:1123   */\n      tag_264\n      jump\t// in\n    tag_280:\n        /* \"#utility.yul\":1052:1123   */\n      swap2\n      pop\n        /* \"#utility.yul\":1008:1133   */\n      pop\n        /* \"#utility.yul\":795:1140   */\n      swap3\n      swap2\n      pop\n      pop\n      jump\t// out\n        /* \"#utility.yul\":1146:1495   */\n    tag_230:\n        /* \"#utility.yul\":1215:1221   */\n      0x00\n        /* \"#utility.yul\":1264:1266   */\n      0x20\n        /* \"#utility.yul\":1252:1261   */\n      dup3\n        /* \"#utility.yul\":1243:1250   */\n      dup5\n        /* \"#utility.yul\":1239:1262   */\n      sub\n        /* \"#utility.yul\":1235:1267   */\n      slt\n        /* \"#utility.yul\":1232:1351   */\n      iszero\n      tag_282\n      jumpi\n        /* \"#utility.yul\":1270:1349   */\n      tag_283\n      tag_275\n      jump\t// in\n    tag_283:\n        /* \"#utility.yul\":1232:1351   */\n    tag_282:\n        /* \"#utility.yul\":1390:1391   */\n      0x00\n        /* \"#utility.yul\":1415:1478   */\n      tag_284\n        /* \"#utility.yul\":1470:1477   */\n      dup5\n        /* \"#utility.yul\":1461:1467   */\n      dup3\n        /* \"#utility.yul\":1450:1459   */\n      dup6\n        /* \"#utility.yul\":1446:1468   */\n      add\n        /* \"#utility.yul\":1415:1478   */\n      tag_268\n      jump\t// in\n    tag_284:\n        /* \"#utility.yul\":1405:1478   */\n      swap2\n      pop\n        /* \"#utility.yul\":1361:1488   */\n      pop\n        /* \"#utility.yul\":1146:1495   */\n      swap3\n      swap2\n      pop\n      pop\n      jump\t// out\n        /* \"#utility.yul\":1501:1643   */\n    tag_285:\n        /* \"#utility.yul\":1604:1636   */\n      tag_287\n        /* \"#utility.yul\":1630:1635   */\n      dup2\n        /* \"#utility.yul\":1604:1636   */\n      tag_288\n      jump\t// in\n    tag_287:\n        /* \"#utility.yul\":1599:1602   */\n      dup3\n        /* \"#utility.yul\":1592:1637   */\n      mstore\n        /* \"#utility.yul\":1501:1643   */\n      pop\n      pop\n      jump\t// out\n        /* \"#utility.yul\":1649:1767   */\n    tag_289:\n        /* \"#utility.yul\":1736:1760   */\n      tag_291\n        /* \"#utility.yul\":1754:1759   */\n      dup2\n        /* \"#utility.yul\":1736:1760   */\n      tag_292\n      jump\t// in\n    tag_291:\n        /* \"#utility.yul\":1731:1734   */\n      dup3\n        /* \"#utility.yul\":1724:1761   */\n      mstore\n        /* \"#utility.yul\":1649:1767   */\n      pop\n      pop\n      jump\t// out\n        /* \"#utility.yul\":1773:1930   */\n    tag_293:\n        /* \"#utility.yul\":1878:1923   */\n      tag_295\n        /* \"#utility.yul\":1898:1922   */\n      tag_296\n        /* \"#utility.yul\":1916:1921   */\n      dup3\n        /* \"#utility.yul\":1898:1922   */\n      tag_292\n      jump\t// in\n    tag_296:\n        /* \"#utility.yul\":1878:1923   */\n      tag_297\n      jump\t// in\n    tag_295:\n        /* \"#utility.yul\":1873:1876   */\n      dup3\n        /* \"#utility.yul\":1866:1924   */\n      mstore\n        /* \"#utility.yul\":1773:1930   */\n      pop\n      pop\n      jump\t// out\n        /* \"#utility.yul\":1936:2045   */\n    tag_298:\n        /* \"#utility.yul\":2017:2038   */\n      tag_300\n        /* \"#utility.yul\":2032:2037   */\n      dup2\n        /* \"#utility.yul\":2017:2038   */\n      tag_301\n      jump\t// in\n    tag_300:\n        /* \"#utility.yul\":2012:2015   */\n      dup3\n        /* \"#utility.yul\":2005:2039   */\n      mstore\n        /* \"#utility.yul\":1936:2045   */\n      pop\n      pop\n      jump\t// out\n        /* \"#utility.yul\":2051:2411   */\n    tag_302:\n        /* \"#utility.yul\":2137:2140   */\n      0x00\n        /* \"#utility.yul\":2165:2203   */\n      tag_304\n        /* \"#utility.yul\":2197:2202   */\n      dup3\n        /* \"#utility.yul\":2165:2203   */\n      tag_305\n      jump\t// in\n    tag_304:\n        /* \"#utility.yul\":2219:2289   */\n      tag_306\n        /* \"#utility.yul\":2282:2288   */\n      dup2\n        /* \"#utility.yul\":2277:2280   */\n      dup6\n        /* \"#utility.yul\":2219:2289   */\n      tag_307\n      jump\t// in\n    tag_306:\n        /* \"#utility.yul\":2212:2289   */\n      swap4\n      pop\n        /* \"#utility.yul\":2298:2350   */\n      tag_308\n        /* \"#utility.yul\":2343:2349   */\n      dup2\n        /* \"#utility.yul\":2338:2341   */\n      dup6\n        /* \"#utility.yul\":2331:2335   */\n      0x20\n        /* \"#utility.yul\":2324:2329   */\n      dup7\n        /* \"#utility.yul\":2320:2336   */\n      add\n        /* \"#utility.yul\":2298:2350   */\n      tag_309\n      jump\t// in\n    tag_308:\n        /* \"#utility.yul\":2375:2404   */\n      tag_310\n        /* \"#utility.yul\":2397:2403   */\n      dup2\n        /* \"#utility.yul\":2375:2404   */\n      tag_311\n      jump\t// in\n    tag_310:\n        /* \"#utility.yul\":2370:2373   */\n      dup5\n        /* \"#utility.yul\":2366:2405   */\n      add\n        /* \"#utility.yul\":2359:2405   */\n      swap2\n      pop\n        /* \"#utility.yul\":2141:2411   */\n      pop\n        /* \"#utility.yul\":2051:2411   */\n      swap3\n      swap2\n      pop\n      pop\n      jump\t// out\n        /* \"#utility.yul\":2417:2781   */\n    tag_312:\n        /* \"#utility.yul\":2505:2508   */\n      0x00\n        /* \"#utility.yul\":2533:2572   */\n      tag_314\n        /* \"#utility.yul\":2566:2571   */\n      dup3\n        /* \"#utility.yul\":2533:2572   */\n      tag_315\n      jump\t// in\n    tag_314:\n        /* \"#utility.yul\":2588:2659   */\n      tag_316\n        /* \"#utility.yul\":2652:2658   */\n      dup2\n        /* \"#utility.yul\":2647:2650   */\n      dup6\n        /* \"#utility.yul\":2588:2659   */\n      tag_317\n      jump\t// in\n    tag_316:\n        /* \"#utility.yul\":2581:2659   */\n      swap4\n      pop\n        /* \"#utility.yul\":2668:2720   */\n      tag_318\n        /* \"#utility.yul\":2713:2719   */\n      dup2\n        /* \"#utility.yul\":2708:2711   */\n      dup6\n        /* \"#utility.yul\":2701:2705   */\n      0x20\n        /* \"#utility.yul\":2694:2699   */\n      dup7\n        /* \"#utility.yul\":2690:2706   */\n      add\n        /* \"#utility.yul\":2668:2720   */\n      tag_309\n      jump\t// in\n    tag_318:\n        /* \"#utility.yul\":2745:2774   */\n      tag_319\n        /* \"#utility.yul\":2767:2773   */\n      dup2\n        /* \"#utility.yul\":2745:2774   */\n      tag_311\n      jump\t// in\n    tag_319:\n        /* \"#utility.yul\":2740:2743   */\n      dup5\n        /* \"#utility.yul\":2736:2775   */\n      add\n        /* \"#utility.yul\":2729:2775   */\n      swap2\n      pop\n        /* \"#utility.yul\":2509:2781   */\n      pop\n        /* \"#utility.yul\":2417:2781   */\n      swap3\n      swap2\n      pop\n      pop\n      jump\t// out\n        /* \"#utility.yul\":2787:3153   */\n    tag_320:\n        /* \"#utility.yul\":2929:2932   */\n      0x00\n        /* \"#utility.yul\":2950:3017   */\n      tag_322\n        /* \"#utility.yul\":3014:3016   */\n      0x34\n        /* \"#utility.yul\":3009:3012   */\n      dup4\n        /* \"#utility.yul\":2950:3017   */\n      tag_317\n      jump\t// in\n    tag_322:\n        /* \"#utility.yul\":2943:3017   */\n      swap2\n      pop\n        /* \"#utility.yul\":3026:3119   */\n      tag_323\n        /* \"#utility.yul\":3115:3118   */\n      dup3\n        /* \"#utility.yul\":3026:3119   */\n      tag_324\n      jump\t// in\n    tag_323:\n        /* \"#utility.yul\":3144:3146   */\n      0x40\n        /* \"#utility.yul\":3139:3142   */\n      dup3\n        /* \"#utility.yul\":3135:3147   */\n      add\n        /* \"#utility.yul\":3128:3147   */\n      swap1\n      pop\n        /* \"#utility.yul\":2787:3153   */\n      swap2\n      swap1\n      pop\n      jump\t// out\n        /* \"#utility.yul\":3159:3525   */\n    tag_325:\n        /* \"#utility.yul\":3301:3304   */\n      0x00\n        /* \"#utility.yul\":3322:3389   */\n      tag_327\n        /* \"#utility.yul\":3386:3388   */\n      0x28\n        /* \"#utility.yul\":3381:3384   */\n      dup4\n        /* \"#utility.yul\":3322:3389   */\n      tag_317\n      jump\t// in\n    tag_327:\n        /* \"#utility.yul\":3315:3389   */\n      swap2\n      pop\n        /* \"#utility.yul\":3398:3491   */\n      tag_328\n        /* \"#utility.yul\":3487:3490   */\n      dup3\n        /* \"#utility.yul\":3398:3491   */\n      tag_329\n      jump\t// in\n    tag_328:\n        /* \"#utility.yul\":3516:3518   */\n      0x40\n        /* \"#utility.yul\":3511:3514   */\n      dup3\n        /* \"#utility.yul\":3507:3519   */\n      add\n        /* \"#utility.yul\":3500:3519   */\n      swap1\n      pop\n        /* \"#utility.yul\":3159:3525   */\n      swap2\n      swap1\n      pop\n      jump\t// out\n        /* \"#utility.yul\":3531:3897   */\n    tag_330:\n        /* \"#utility.yul\":3673:3676   */\n      0x00\n        /* \"#utility.yul\":3694:3761   */\n      tag_332\n        /* \"#utility.yul\":3758:3760   */\n      0x12\n        /* \"#utility.yul\":3753:3756   */\n      dup4\n        /* \"#utility.yul\":3694:3761   */\n      tag_317\n      jump\t// in\n    tag_332:\n        /* \"#utility.yul\":3687:3761   */\n      swap2\n      pop\n        /* \"#utility.yul\":3770:3863   */\n      tag_333\n        /* \"#utility.yul\":3859:3862   */\n      dup3\n        /* \"#utility.yul\":3770:3863   */\n      tag_334\n      jump\t// in\n    tag_333:\n        /* \"#utility.yul\":3888:3890   */\n      0x20\n        /* \"#utility.yul\":3883:3886   */\n      dup3\n        /* \"#utility.yul\":3879:3891   */\n      add\n        /* \"#utility.yul\":3872:3891   */\n      swap1\n      pop\n        /* \"#utility.yul\":3531:3897   */\n      swap2\n      swap1\n      pop\n      jump\t// out\n        /* \"#utility.yul\":3903:4269   */\n    tag_335:\n        /* \"#utility.yul\":4045:4048   */\n      0x00\n        /* \"#utility.yul\":4066:4133   */\n      tag_337\n        /* \"#utility.yul\":4130:4132   */\n      0x1b\n        /* \"#utility.yul\":4125:4128   */\n      dup4\n        /* \"#utility.yul\":4066:4133   */\n      tag_317\n      jump\t// in\n    tag_337:\n        /* \"#utility.yul\":4059:4133   */\n      swap2\n      pop\n        /* \"#utility.yul\":4142:4235   */\n      tag_338\n        /* \"#utility.yul\":4231:4234   */\n      dup3\n        /* \"#utility.yul\":4142:4235   */\n      tag_339\n      jump\t// in\n    tag_338:\n        /* \"#utility.yul\":4260:4262   */\n      0x20\n        /* \"#utility.yul\":4255:4258   */\n      dup3\n        /* \"#utility.yul\":4251:4263   */\n      add\n        /* \"#utility.yul\":4244:4263   */\n      swap1\n      pop\n        /* \"#utility.yul\":3903:4269   */\n      swap2\n      swap1\n      pop\n      jump\t// out\n        /* \"#utility.yul\":4275:4641   */\n    tag_340:\n        /* \"#utility.yul\":4417:4420   */\n      0x00\n        /* \"#utility.yul\":4438:4505   */\n      tag_342\n        /* \"#utility.yul\":4502:4504   */\n      0x1b\n        /* \"#utility.yul\":4497:4500   */\n      dup4\n        /* \"#utility.yul\":4438:4505   */\n      tag_317\n      jump\t// in\n    tag_342:\n        /* \"#utility.yul\":4431:4505   */\n      swap2\n      pop\n        /* \"#utility.yul\":4514:4607   */\n      tag_343\n        /* \"#utility.yul\":4603:4606   */\n      dup3\n        /* \"#utility.yul\":4514:4607   */\n      tag_344\n      jump\t// in\n    tag_343:\n        /* \"#utility.yul\":4632:4634   */\n      0x20\n        /* \"#utility.yul\":4627:4630   */\n      dup3\n        /* \"#utility.yul\":4623:4635   */\n      add\n        /* \"#utility.yul\":4616:4635   */\n      swap1\n      pop\n        /* \"#utility.yul\":4275:4641   */\n      swap2\n      swap1\n      pop\n      jump\t// out\n        /* \"#utility.yul\":4647:5013   */\n    tag_345:\n        /* \"#utility.yul\":4789:4792   */\n      0x00\n        /* \"#utility.yul\":4810:4877   */\n      tag_347\n        /* \"#utility.yul\":4874:4876   */\n      0x1c\n        /* \"#utility.yul\":4869:4872   */\n      dup4\n        /* \"#utility.yul\":4810:4877   */\n      tag_317\n      jump\t// in\n    tag_347:\n        /* \"#utility.yul\":4803:4877   */\n      swap2\n      pop\n        /* \"#utility.yul\":4886:4979   */\n      tag_348\n        /* \"#utility.yul\":4975:4978   */\n      dup3\n        /* \"#utility.yul\":4886:4979   */\n      tag_349\n      jump\t// in\n    tag_348:\n        /* \"#utility.yul\":5004:5006   */\n      0x20\n        /* \"#utility.yul\":4999:5002   */\n      dup3\n        /* \"#utility.yul\":4995:5007   */\n      add\n        /* \"#utility.yul\":4988:5007   */\n      swap1\n      pop\n        /* \"#utility.yul\":4647:5013   */\n      swap2\n      swap1\n      pop\n      jump\t// out\n        /* \"#utility.yul\":5019:5385   */\n    tag_350:\n        /* \"#utility.yul\":5161:5164   */\n      0x00\n        /* \"#utility.yul\":5182:5249   */\n      tag_352\n        /* \"#utility.yul\":5246:5248   */\n      0x1b\n        /* \"#utility.yul\":5241:5244   */\n      dup4\n        /* \"#utility.yul\":5182:5249   */\n      tag_317\n      jump\t// in\n    tag_352:\n        /* \"#utility.yul\":5175:5249   */\n      swap2\n      pop\n        /* \"#utility.yul\":5258:5351   */\n      tag_353\n        /* \"#utility.yul\":5347:5350   */\n      dup3\n        /* \"#utility.yul\":5258:5351   */\n      tag_354\n      jump\t// in\n    tag_353:\n        /* \"#utility.yul\":5376:5378   */\n      0x20\n        /* \"#utility.yul\":5371:5374   */\n      dup3\n        /* \"#utility.yul\":5367:5379   */\n      add\n        /* \"#utility.yul\":5360:5379   */\n      swap1\n      pop\n        /* \"#utility.yul\":5019:5385   */\n      swap2\n      swap1\n      pop\n      jump\t// out\n        /* \"#utility.yul\":5391:5757   */\n    tag_355:\n        /* \"#utility.yul\":5533:5536   */\n      0x00\n        /* \"#utility.yul\":5554:5621   */\n      tag_357\n        /* \"#utility.yul\":5618:5620   */\n      0x19\n        /* \"#utility.yul\":5613:5616   */\n      dup4\n        /* \"#utility.yul\":5554:5621   */\n      tag_317\n      jump\t// in\n    tag_357:\n        /* \"#utility.yul\":5547:5621   */\n      swap2\n      pop\n        /* \"#utility.yul\":5630:5723   */\n      tag_358\n        /* \"#utility.yul\":5719:5722   */\n      dup3\n        /* \"#utility.yul\":5630:5723   */\n      tag_359\n      jump\t// in\n    tag_358:\n        /* \"#utility.yul\":5748:5750   */\n      0x20\n        /* \"#utility.yul\":5743:5746   */\n      dup3\n        /* \"#utility.yul\":5739:5751   */\n      add\n        /* \"#utility.yul\":5732:5751   */\n      swap1\n      pop\n        /* \"#utility.yul\":5391:5757   */\n      swap2\n      swap1\n      pop\n      jump\t// out\n        /* \"#utility.yul\":5763:6129   */\n    tag_360:\n        /* \"#utility.yul\":5905:5908   */\n      0x00\n        /* \"#utility.yul\":5926:5993   */\n      tag_362\n        /* \"#utility.yul\":5990:5992   */\n      0x1d\n        /* \"#utility.yul\":5985:5988   */\n      dup4\n        /* \"#utility.yul\":5926:5993   */\n      tag_317\n      jump\t// in\n    tag_362:\n        /* \"#utility.yul\":5919:5993   */\n      swap2\n      pop\n        /* \"#utility.yul\":6002:6095   */\n      tag_363\n        /* \"#utility.yul\":6091:6094   */\n      dup3\n        /* \"#utility.yul\":6002:6095   */\n      tag_364\n      jump\t// in\n    tag_363:\n        /* \"#utility.yul\":6120:6122   */\n      0x20\n        /* \"#utility.yul\":6115:6118   */\n      dup3\n        /* \"#utility.yul\":6111:6123   */\n      add\n        /* \"#utility.yul\":6104:6123   */\n      swap1\n      pop\n        /* \"#utility.yul\":5763:6129   */\n      swap2\n      swap1\n      pop\n      jump\t// out\n        /* \"#utility.yul\":6135:6501   */\n    tag_365:\n        /* \"#utility.yul\":6277:6280   */\n      0x00\n        /* \"#utility.yul\":6298:6365   */\n      tag_367\n        /* \"#utility.yul\":6362:6364   */\n      0x21\n        /* \"#utility.yul\":6357:6360   */\n      dup4\n        /* \"#utility.yul\":6298:6365   */\n      tag_317\n      jump\t// in\n    tag_367:\n        /* \"#utility.yul\":6291:6365   */\n      swap2\n      pop\n        /* \"#utility.yul\":6374:6467   */\n      tag_368\n        /* \"#utility.yul\":6463:6466   */\n      dup3\n        /* \"#utility.yul\":6374:6467   */\n      tag_369\n      jump\t// in\n    tag_368:\n        /* \"#utility.yul\":6492:6494   */\n      0x40\n        /* \"#utility.yul\":6487:6490   */\n      dup3\n        /* \"#utility.yul\":6483:6495   */\n      add\n        /* \"#utility.yul\":6476:6495   */\n      swap1\n      pop\n        /* \"#utility.yul\":6135:6501   */\n      swap2\n      swap1\n      pop\n      jump\t// out\n        /* \"#utility.yul\":6507:6625   */\n    tag_370:\n        /* \"#utility.yul\":6594:6618   */\n      tag_372\n        /* \"#utility.yul\":6612:6617   */\n      dup2\n        /* \"#utility.yul\":6594:6618   */\n      tag_373\n      jump\t// in\n    tag_372:\n        /* \"#utility.yul\":6589:6592   */\n      dup3\n        /* \"#utility.yul\":6582:6619   */\n      mstore\n        /* \"#utility.yul\":6507:6625   */\n      pop\n      pop\n      jump\t// out\n        /* \"#utility.yul\":6631:6788   */\n    tag_374:\n        /* \"#utility.yul\":6736:6781   */\n      tag_376\n        /* \"#utility.yul\":6756:6780   */\n      tag_377\n        /* \"#utility.yul\":6774:6779   */\n      dup3\n        /* \"#utility.yul\":6756:6780   */\n      tag_373\n      jump\t// in\n    tag_377:\n        /* \"#utility.yul\":6736:6781   */\n      tag_378\n      jump\t// in\n    tag_376:\n        /* \"#utility.yul\":6731:6734   */\n      dup3\n        /* \"#utility.yul\":6724:6782   */\n      mstore\n        /* \"#utility.yul\":6631:6788   */\n      pop\n      pop\n      jump\t// out\n        /* \"#utility.yul\":6794:7191   */\n    tag_191:\n        /* \"#utility.yul\":6934:6937   */\n      0x00\n        /* \"#utility.yul\":6949:7024   */\n      tag_380\n        /* \"#utility.yul\":7020:7023   */\n      dup3\n        /* \"#utility.yul\":7011:7017   */\n      dup6\n        /* \"#utility.yul\":6949:7024   */\n      tag_374\n      jump\t// in\n    tag_380:\n        /* \"#utility.yul\":7049:7051   */\n      0x20\n        /* \"#utility.yul\":7044:7047   */\n      dup3\n        /* \"#utility.yul\":7040:7052   */\n      add\n        /* \"#utility.yul\":7033:7052   */\n      swap2\n      pop\n        /* \"#utility.yul\":7062:7137   */\n      tag_381\n        /* \"#utility.yul\":7133:7136   */\n      dup3\n        /* \"#utility.yul\":7124:7130   */\n      dup5\n        /* \"#utility.yul\":7062:7137   */\n      tag_293\n      jump\t// in\n    tag_381:\n        /* \"#utility.yul\":7162:7164   */\n      0x14\n        /* \"#utility.yul\":7157:7160   */\n      dup3\n        /* \"#utility.yul\":7153:7165   */\n      add\n        /* \"#utility.yul\":7146:7165   */\n      swap2\n      pop\n        /* \"#utility.yul\":7182:7185   */\n      dup2\n        /* \"#utility.yul\":7175:7185   */\n      swap1\n      pop\n        /* \"#utility.yul\":6794:7191   */\n      swap4\n      swap3\n      pop\n      pop\n      pop\n      jump\t// out\n        /* \"#utility.yul\":7197:7451   */\n    tag_52:\n        /* \"#utility.yul\":7306:7310   */\n      0x00\n        /* \"#utility.yul\":7344:7346   */\n      0x20\n        /* \"#utility.yul\":7333:7342   */\n      dup3\n        /* \"#utility.yul\":7329:7347   */\n      add\n        /* \"#utility.yul\":7321:7347   */\n      swap1\n      pop\n        /* \"#utility.yul\":7357:7444   */\n      tag_383\n        /* \"#utility.yul\":7441:7442   */\n      0x00\n        /* \"#utility.yul\":7430:7439   */\n      dup4\n        /* \"#utility.yul\":7426:7443   */\n      add\n        /* \"#utility.yul\":7417:7423   */\n      dup5\n        /* \"#utility.yul\":7357:7444   */\n      tag_285\n      jump\t// in\n    tag_383:\n        /* \"#utility.yul\":7197:7451   */\n      swap3\n      swap2\n      pop\n      pop\n      jump\t// out\n        /* \"#utility.yul\":7457:8208   */\n    tag_226:\n        /* \"#utility.yul\":7680:7684   */\n      0x00\n        /* \"#utility.yul\":7718:7721   */\n      0xa0\n        /* \"#utility.yul\":7707:7716   */\n      dup3\n        /* \"#utility.yul\":7703:7722   */\n      add\n        /* \"#utility.yul\":7695:7722   */\n      swap1\n      pop\n        /* \"#utility.yul\":7732:7803   */\n      tag_385\n        /* \"#utility.yul\":7800:7801   */\n      0x00\n        /* \"#utility.yul\":7789:7798   */\n      dup4\n        /* \"#utility.yul\":7785:7802   */\n      add\n        /* \"#utility.yul\":7776:7782   */\n      dup9\n        /* \"#utility.yul\":7732:7803   */\n      tag_289\n      jump\t// in\n    tag_385:\n        /* \"#utility.yul\":7813:7885   */\n      tag_386\n        /* \"#utility.yul\":7881:7883   */\n      0x20\n        /* \"#utility.yul\":7870:7879   */\n      dup4\n        /* \"#utility.yul\":7866:7884   */\n      add\n        /* \"#utility.yul\":7857:7863   */\n      dup8\n        /* \"#utility.yul\":7813:7885   */\n      tag_289\n      jump\t// in\n    tag_386:\n        /* \"#utility.yul\":7895:7967   */\n      tag_387\n        /* \"#utility.yul\":7963:7965   */\n      0x40\n        /* \"#utility.yul\":7952:7961   */\n      dup4\n        /* \"#utility.yul\":7948:7966   */\n      add\n        /* \"#utility.yul\":7939:7945   */\n      dup7\n        /* \"#utility.yul\":7895:7967   */\n      tag_370\n      jump\t// in\n    tag_387:\n        /* \"#utility.yul\":7977:8049   */\n      tag_388\n        /* \"#utility.yul\":8045:8047   */\n      0x60\n        /* \"#utility.yul\":8034:8043   */\n      dup4\n        /* \"#utility.yul\":8030:8048   */\n      add\n        /* \"#utility.yul\":8021:8027   */\n      dup6\n        /* \"#utility.yul\":7977:8049   */\n      tag_370\n      jump\t// in\n    tag_388:\n        /* \"#utility.yul\":8097:8106   */\n      dup2\n        /* \"#utility.yul\":8091:8095   */\n      dup2\n        /* \"#utility.yul\":8087:8107   */\n      sub\n        /* \"#utility.yul\":8081:8084   */\n      0x80\n        /* \"#utility.yul\":8070:8079   */\n      dup4\n        /* \"#utility.yul\":8066:8085   */\n      add\n        /* \"#utility.yul\":8059:8108   */\n      mstore\n        /* \"#utility.yul\":8125:8201   */\n      tag_389\n        /* \"#utility.yul\":8196:8200   */\n      dup2\n        /* \"#utility.yul\":8187:8193   */\n      dup5\n        /* \"#utility.yul\":8125:8201   */\n      tag_302\n      jump\t// in\n    tag_389:\n        /* \"#utility.yul\":8117:8201   */\n      swap1\n      pop\n        /* \"#utility.yul\":7457:8208   */\n      swap7\n      swap6\n      pop\n      pop\n      pop\n      pop\n      pop\n      pop\n      jump\t// out\n        /* \"#utility.yul\":8214:8424   */\n    tag_26:\n        /* \"#utility.yul\":8301:8305   */\n      0x00\n        /* \"#utility.yul\":8339:8341   */\n      0x20\n        /* \"#utility.yul\":8328:8337   */\n      dup3\n        /* \"#utility.yul\":8324:8342   */\n      add\n        /* \"#utility.yul\":8316:8342   */\n      swap1\n      pop\n        /* \"#utility.yul\":8352:8417   */\n      tag_391\n        /* \"#utility.yul\":8414:8415   */\n      0x00\n        /* \"#utility.yul\":8403:8412   */\n      dup4\n        /* \"#utility.yul\":8399:8416   */\n      add\n        /* \"#utility.yul\":8390:8396   */\n      dup5\n        /* \"#utility.yul\":8352:8417   */\n      tag_298\n      jump\t// in\n    tag_391:\n        /* \"#utility.yul\":8214:8424   */\n      swap3\n      swap2\n      pop\n      pop\n      jump\t// out\n        /* \"#utility.yul\":8430:8743   */\n    tag_241:\n        /* \"#utility.yul\":8543:8547   */\n      0x00\n        /* \"#utility.yul\":8581:8583   */\n      0x20\n        /* \"#utility.yul\":8570:8579   */\n      dup3\n        /* \"#utility.yul\":8566:8584   */\n      add\n        /* \"#utility.yul\":8558:8584   */\n      swap1\n      pop\n        /* \"#utility.yul\":8630:8639   */\n      dup2\n        /* \"#utility.yul\":8624:8628   */\n      dup2\n        /* \"#utility.yul\":8620:8640   */\n      sub\n        /* \"#utility.yul\":8616:8617   */\n      0x00\n        /* \"#utility.yul\":8605:8614   */\n      dup4\n        /* \"#utility.yul\":8601:8618   */\n      add\n        /* \"#utility.yul\":8594:8641   */\n      mstore\n        /* \"#utility.yul\":8658:8736   */\n      tag_393\n        /* \"#utility.yul\":8731:8735   */\n      dup2\n        /* \"#utility.yul\":8722:8728   */\n      dup5\n        /* \"#utility.yul\":8658:8736   */\n      tag_312\n      jump\t// in\n    tag_393:\n        /* \"#utility.yul\":8650:8736   */\n      swap1\n      pop\n        /* \"#utility.yul\":8430:8743   */\n      swap3\n      swap2\n      pop\n      pop\n      jump\t// out\n        /* \"#utility.yul\":8749:9168   */\n    tag_243:\n        /* \"#utility.yul\":8915:8919   */\n      0x00\n        /* \"#utility.yul\":8953:8955   */\n      0x20\n        /* \"#utility.yul\":8942:8951   */\n      dup3\n        /* \"#utility.yul\":8938:8956   */\n      add\n        /* \"#utility.yul\":8930:8956   */\n      swap1\n      pop\n        /* \"#utility.yul\":9002:9011   */\n      dup2\n        /* \"#utility.yul\":8996:9000   */\n      dup2\n        /* \"#utility.yul\":8992:9012   */\n      sub\n        /* \"#utility.yul\":8988:8989   */\n      0x00\n        /* \"#utility.yul\":8977:8986   */\n      dup4\n        /* \"#utility.yul\":8973:8990   */\n      add\n        /* \"#utility.yul\":8966:9013   */\n      mstore\n        /* \"#utility.yul\":9030:9161   */\n      tag_395\n        /* \"#utility.yul\":9156:9160   */\n      dup2\n        /* \"#utility.yul\":9030:9161   */\n      tag_320\n      jump\t// in\n    tag_395:\n        /* \"#utility.yul\":9022:9161   */\n      swap1\n      pop\n        /* \"#utility.yul\":8749:9168   */\n      swap2\n      swap1\n      pop\n      jump\t// out\n        /* \"#utility.yul\":9174:9593   */\n    tag_247:\n        /* \"#utility.yul\":9340:9344   */\n      0x00\n        /* \"#utility.yul\":9378:9380   */\n      0x20\n        /* \"#utility.yul\":9367:9376   */\n      dup3\n        /* \"#utility.yul\":9363:9381   */\n      add\n        /* \"#utility.yul\":9355:9381   */\n      swap1\n      pop\n        /* \"#utility.yul\":9427:9436   */\n      dup2\n        /* \"#utility.yul\":9421:9425   */\n      dup2\n        /* \"#utility.yul\":9417:9437   */\n      sub\n        /* \"#utility.yul\":9413:9414   */\n      0x00\n        /* \"#utility.yul\":9402:9411   */\n      dup4\n        /* \"#utility.yul\":9398:9415   */\n      add\n        /* \"#utility.yul\":9391:9438   */\n      mstore\n        /* \"#utility.yul\":9455:9586   */\n      tag_397\n        /* \"#utility.yul\":9581:9585   */\n      dup2\n        /* \"#utility.yul\":9455:9586   */\n      tag_325\n      jump\t// in\n    tag_397:\n        /* \"#utility.yul\":9447:9586   */\n      swap1\n      pop\n        /* \"#utility.yul\":9174:9593   */\n      swap2\n      swap1\n      pop\n      jump\t// out\n        /* \"#utility.yul\":9599:10018   */\n    tag_102:\n        /* \"#utility.yul\":9765:9769   */\n      0x00\n        /* \"#utility.yul\":9803:9805   */\n      0x20\n        /* \"#utility.yul\":9792:9801   */\n      dup3\n        /* \"#utility.yul\":9788:9806   */\n      add\n        /* \"#utility.yul\":9780:9806   */\n      swap1\n      pop\n        /* \"#utility.yul\":9852:9861   */\n      dup2\n        /* \"#utility.yul\":9846:9850   */\n      dup2\n        /* \"#utility.yul\":9842:9862   */\n      sub\n        /* \"#utility.yul\":9838:9839   */\n      0x00\n        /* \"#utility.yul\":9827:9836   */\n      dup4\n        /* \"#utility.yul\":9823:9840   */\n      add\n        /* \"#utility.yul\":9816:9863   */\n      mstore\n        /* \"#utility.yul\":9880:10011   */\n      tag_399\n        /* \"#utility.yul\":10006:10010   */\n      dup2\n        /* \"#utility.yul\":9880:10011   */\n      tag_330\n      jump\t// in\n    tag_399:\n        /* \"#utility.yul\":9872:10011   */\n      swap1\n      pop\n        /* \"#utility.yul\":9599:10018   */\n      swap2\n      swap1\n      pop\n      jump\t// out\n        /* \"#utility.yul\":10024:10443   */\n    tag_82:\n        /* \"#utility.yul\":10190:10194   */\n      0x00\n        /* \"#utility.yul\":10228:10230   */\n      0x20\n        /* \"#utility.yul\":10217:10226   */\n      dup3\n        /* \"#utility.yul\":10213:10231   */\n      add\n        /* \"#utility.yul\":10205:10231   */\n      swap1\n      pop\n        /* \"#utility.yul\":10277:10286   */\n      dup2\n        /* \"#utility.yul\":10271:10275   */\n      dup2\n        /* \"#utility.yul\":10267:10287   */\n      sub\n        /* \"#utility.yul\":10263:10264   */\n      0x00\n        /* \"#utility.yul\":10252:10261   */\n      dup4\n        /* \"#utility.yul\":10248:10265   */\n      add\n        /* \"#utility.yul\":10241:10288   */\n      mstore\n        /* \"#utility.yul\":10305:10436   */\n      tag_401\n        /* \"#utility.yul\":10431:10435   */\n      dup2\n        /* \"#utility.yul\":10305:10436   */\n      tag_335\n      jump\t// in\n    tag_401:\n        /* \"#utility.yul\":10297:10436   */\n      swap1\n      pop\n        /* \"#utility.yul\":10024:10443   */\n      swap2\n      swap1\n      pop\n      jump\t// out\n        /* \"#utility.yul\":10449:10868   */\n    tag_150:\n        /* \"#utility.yul\":10615:10619   */\n      0x00\n        /* \"#utility.yul\":10653:10655   */\n      0x20\n        /* \"#utility.yul\":10642:10651   */\n      dup3\n        /* \"#utility.yul\":10638:10656   */\n      add\n        /* \"#utility.yul\":10630:10656   */\n      swap1\n      pop\n        /* \"#utility.yul\":10702:10711   */\n      dup2\n        /* \"#utility.yul\":10696:10700   */\n      dup2\n        /* \"#utility.yul\":10692:10712   */\n      sub\n        /* \"#utility.yul\":10688:10689   */\n      0x00\n        /* \"#utility.yul\":10677:10686   */\n      dup4\n        /* \"#utility.yul\":10673:10690   */\n      add\n        /* \"#utility.yul\":10666:10713   */\n      mstore\n        /* \"#utility.yul\":10730:10861   */\n      tag_403\n        /* \"#utility.yul\":10856:10860   */\n      dup2\n        /* \"#utility.yul\":10730:10861   */\n      tag_340\n      jump\t// in\n    tag_403:\n        /* \"#utility.yul\":10722:10861   */\n      swap1\n      pop\n        /* \"#utility.yul\":10449:10868   */\n      swap2\n      swap1\n      pop\n      jump\t// out\n        /* \"#utility.yul\":10874:11293   */\n    tag_63:\n        /* \"#utility.yul\":11040:11044   */\n      0x00\n        /* \"#utility.yul\":11078:11080   */\n      0x20\n        /* \"#utility.yul\":11067:11076   */\n      dup3\n        /* \"#utility.yul\":11063:11081   */\n      add\n        /* \"#utility.yul\":11055:11081   */\n      swap1\n      pop\n        /* \"#utility.yul\":11127:11136   */\n      dup2\n        /* \"#utility.yul\":11121:11125   */\n      dup2\n        /* \"#utility.yul\":11117:11137   */\n      sub\n        /* \"#utility.yul\":11113:11114   */\n      0x00\n        /* \"#utility.yul\":11102:11111   */\n      dup4\n        /* \"#utility.yul\":11098:11115   */\n      add\n        /* \"#utility.yul\":11091:11138   */\n      mstore\n        /* \"#utility.yul\":11155:11286   */\n      tag_405\n        /* \"#utility.yul\":11281:11285   */\n      dup2\n        /* \"#utility.yul\":11155:11286   */\n      tag_345\n      jump\t// in\n    tag_405:\n        /* \"#utility.yul\":11147:11286   */\n      swap1\n      pop\n        /* \"#utility.yul\":10874:11293   */\n      swap2\n      swap1\n      pop\n      jump\t// out\n        /* \"#utility.yul\":11299:11718   */\n    tag_95:\n        /* \"#utility.yul\":11465:11469   */\n      0x00\n        /* \"#utility.yul\":11503:11505   */\n      0x20\n        /* \"#utility.yul\":11492:11501   */\n      dup3\n        /* \"#utility.yul\":11488:11506   */\n      add\n        /* \"#utility.yul\":11480:11506   */\n      swap1\n      pop\n        /* \"#utility.yul\":11552:11561   */\n      dup2\n        /* \"#utility.yul\":11546:11550   */\n      dup2\n        /* \"#utility.yul\":11542:11562   */\n      sub\n        /* \"#utility.yul\":11538:11539   */\n      0x00\n        /* \"#utility.yul\":11527:11536   */\n      dup4\n        /* \"#utility.yul\":11523:11540   */\n      add\n        /* \"#utility.yul\":11516:11563   */\n      mstore\n        /* \"#utility.yul\":11580:11711   */\n      tag_407\n        /* \"#utility.yul\":11706:11710   */\n      dup2\n        /* \"#utility.yul\":11580:11711   */\n      tag_350\n      jump\t// in\n    tag_407:\n        /* \"#utility.yul\":11572:11711   */\n      swap1\n      pop\n        /* \"#utility.yul\":11299:11718   */\n      swap2\n      swap1\n      pop\n      jump\t// out\n        /* \"#utility.yul\":11724:12143   */\n    tag_99:\n        /* \"#utility.yul\":11890:11894   */\n      0x00\n        /* \"#utility.yul\":11928:11930   */\n      0x20\n        /* \"#utility.yul\":11917:11926   */\n      dup3\n        /* \"#utility.yul\":11913:11931   */\n      add\n        /* \"#utility.yul\":11905:11931   */\n      swap1\n      pop\n        /* \"#utility.yul\":11977:11986   */\n      dup2\n        /* \"#utility.yul\":11971:11975   */\n      dup2\n        /* \"#utility.yul\":11967:11987   */\n      sub\n        /* \"#utility.yul\":11963:11964   */\n      0x00\n        /* \"#utility.yul\":11952:11961   */\n      dup4\n        /* \"#utility.yul\":11948:11965   */\n      add\n        /* \"#utility.yul\":11941:11988   */\n      mstore\n        /* \"#utility.yul\":12005:12136   */\n      tag_409\n        /* \"#utility.yul\":12131:12135   */\n      dup2\n        /* \"#utility.yul\":12005:12136   */\n      tag_355\n      jump\t// in\n    tag_409:\n        /* \"#utility.yul\":11997:12136   */\n      swap1\n      pop\n        /* \"#utility.yul\":11724:12143   */\n      swap2\n      swap1\n      pop\n      jump\t// out\n        /* \"#utility.yul\":12149:12568   */\n    tag_72:\n        /* \"#utility.yul\":12315:12319   */\n      0x00\n        /* \"#utility.yul\":12353:12355   */\n      0x20\n        /* \"#utility.yul\":12342:12351   */\n      dup3\n        /* \"#utility.yul\":12338:12356   */\n      add\n        /* \"#utility.yul\":12330:12356   */\n      swap1\n      pop\n        /* \"#utility.yul\":12402:12411   */\n      dup2\n        /* \"#utility.yul\":12396:12400   */\n      dup2\n        /* \"#utility.yul\":12392:12412   */\n      sub\n        /* \"#utility.yul\":12388:12389   */\n      0x00\n        /* \"#utility.yul\":12377:12386   */\n      dup4\n        /* \"#utility.yul\":12373:12390   */\n      add\n        /* \"#utility.yul\":12366:12413   */\n      mstore\n        /* \"#utility.yul\":12430:12561   */\n      tag_411\n        /* \"#utility.yul\":12556:12560   */\n      dup2\n        /* \"#utility.yul\":12430:12561   */\n      tag_360\n      jump\t// in\n    tag_411:\n        /* \"#utility.yul\":12422:12561   */\n      swap1\n      pop\n        /* \"#utility.yul\":12149:12568   */\n      swap2\n      swap1\n      pop\n      jump\t// out\n        /* \"#utility.yul\":12574:12993   */\n    tag_197:\n        /* \"#utility.yul\":12740:12744   */\n      0x00\n        /* \"#utility.yul\":12778:12780   */\n      0x20\n        /* \"#utility.yul\":12767:12776   */\n      dup3\n        /* \"#utility.yul\":12763:12781   */\n      add\n        /* \"#utility.yul\":12755:12781   */\n      swap1\n      pop\n        /* \"#utility.yul\":12827:12836   */\n      dup2\n        /* \"#utility.yul\":12821:12825   */\n      dup2\n        /* \"#utility.yul\":12817:12837   */\n      sub\n        /* \"#utility.yul\":12813:12814   */\n      0x00\n        /* \"#utility.yul\":12802:12811   */\n      dup4\n        /* \"#utility.yul\":12798:12815   */\n      add\n        /* \"#utility.yul\":12791:12838   */\n      mstore\n        /* \"#utility.yul\":12855:12986   */\n      tag_413\n        /* \"#utility.yul\":12981:12985   */\n      dup2\n        /* \"#utility.yul\":12855:12986   */\n      tag_365\n      jump\t// in\n    tag_413:\n        /* \"#utility.yul\":12847:12986   */\n      swap1\n      pop\n        /* \"#utility.yul\":12574:12993   */\n      swap2\n      swap1\n      pop\n      jump\t// out\n        /* \"#utility.yul\":12999:13221   */\n    tag_17:\n        /* \"#utility.yul\":13092:13096   */\n      0x00\n        /* \"#utility.yul\":13130:13132   */\n      0x20\n        /* \"#utility.yul\":13119:13128   */\n      dup3\n        /* \"#utility.yul\":13115:13133   */\n      add\n        /* \"#utility.yul\":13107:13133   */\n      swap1\n      pop\n        /* \"#utility.yul\":13143:13214   */\n      tag_415\n        /* \"#utility.yul\":13211:13212   */\n      0x00\n        /* \"#utility.yul\":13200:13209   */\n      dup4\n        /* \"#utility.yul\":13196:13213   */\n      add\n        /* \"#utility.yul\":13187:13193   */\n      dup5\n        /* \"#utility.yul\":13143:13214   */\n      tag_370\n      jump\t// in\n    tag_415:\n        /* \"#utility.yul\":12999:13221   */\n      swap3\n      swap2\n      pop\n      pop\n      jump\t// out\n        /* \"#utility.yul\":13227:13650   */\n    tag_39:\n        /* \"#utility.yul\":13368:13372   */\n      0x00\n        /* \"#utility.yul\":13406:13408   */\n      0x40\n        /* \"#utility.yul\":13395:13404   */\n      dup3\n        /* \"#utility.yul\":13391:13409   */\n      add\n        /* \"#utility.yul\":13383:13409   */\n      swap1\n      pop\n        /* \"#utility.yul\":13419:13490   */\n      tag_417\n        /* \"#utility.yul\":13487:13488   */\n      0x00\n        /* \"#utility.yul\":13476:13485   */\n      dup4\n        /* \"#utility.yul\":13472:13489   */\n      add\n        /* \"#utility.yul\":13463:13469   */\n      dup6\n        /* \"#utility.yul\":13419:13490   */\n      tag_370\n      jump\t// in\n    tag_417:\n        /* \"#utility.yul\":13537:13546   */\n      dup2\n        /* \"#utility.yul\":13531:13535   */\n      dup2\n        /* \"#utility.yul\":13527:13547   */\n      sub\n        /* \"#utility.yul\":13522:13524   */\n      0x20\n        /* \"#utility.yul\":13511:13520   */\n      dup4\n        /* \"#utility.yul\":13507:13525   */\n      add\n        /* \"#utility.yul\":13500:13548   */\n      mstore\n        /* \"#utility.yul\":13565:13643   */\n      tag_418\n        /* \"#utility.yul\":13638:13642   */\n      dup2\n        /* \"#utility.yul\":13629:13635   */\n      dup5\n        /* \"#utility.yul\":13565:13643   */\n      tag_312\n      jump\t// in\n    tag_418:\n        /* \"#utility.yul\":13557:13643   */\n      swap1\n      pop\n        /* \"#utility.yul\":13227:13650   */\n      swap4\n      swap3\n      pop\n      pop\n      pop\n      jump\t// out\n        /* \"#utility.yul\":13656:13988   */\n    tag_207:\n        /* \"#utility.yul\":13777:13781   */\n      0x00\n        /* \"#utility.yul\":13815:13817   */\n      0x40\n        /* \"#utility.yul\":13804:13813   */\n      dup3\n        /* \"#utility.yul\":13800:13818   */\n      add\n        /* \"#utility.yul\":13792:13818   */\n      swap1\n      pop\n        /* \"#utility.yul\":13828:13899   */\n      tag_420\n        /* \"#utility.yul\":13896:13897   */\n      0x00\n        /* \"#utility.yul\":13885:13894   */\n      dup4\n        /* \"#utility.yul\":13881:13898   */\n      add\n        /* \"#utility.yul\":13872:13878   */\n      dup6\n        /* \"#utility.yul\":13828:13899   */\n      tag_370\n      jump\t// in\n    tag_420:\n        /* \"#utility.yul\":13909:13981   */\n      tag_421\n        /* \"#utility.yul\":13977:13979   */\n      0x20\n        /* \"#utility.yul\":13966:13975   */\n      dup4\n        /* \"#utility.yul\":13962:13980   */\n      add\n        /* \"#utility.yul\":13953:13959   */\n      dup5\n        /* \"#utility.yul\":13909:13981   */\n      tag_370\n      jump\t// in\n    tag_421:\n        /* \"#utility.yul\":13656:13988   */\n      swap4\n      swap3\n      pop\n      pop\n      pop\n      jump\t// out\n        /* \"#utility.yul\":13994:14436   */\n    tag_44:\n        /* \"#utility.yul\":14143:14147   */\n      0x00\n        /* \"#utility.yul\":14181:14183   */\n      0x60\n        /* \"#utility.yul\":14170:14179   */\n      dup3\n        /* \"#utility.yul\":14166:14184   */\n      add\n        /* \"#utility.yul\":14158:14184   */\n      swap1\n      pop\n        /* \"#utility.yul\":14194:14265   */\n      tag_423\n        /* \"#utility.yul\":14262:14263   */\n      0x00\n        /* \"#utility.yul\":14251:14260   */\n      dup4\n        /* \"#utility.yul\":14247:14264   */\n      add\n        /* \"#utility.yul\":14238:14244   */\n      dup7\n        /* \"#utility.yul\":14194:14265   */\n      tag_370\n      jump\t// in\n    tag_423:\n        /* \"#utility.yul\":14275:14347   */\n      tag_424\n        /* \"#utility.yul\":14343:14345   */\n      0x20\n        /* \"#utility.yul\":14332:14341   */\n      dup4\n        /* \"#utility.yul\":14328:14346   */\n      add\n        /* \"#utility.yul\":14319:14325   */\n      dup6\n        /* \"#utility.yul\":14275:14347   */\n      tag_370\n      jump\t// in\n    tag_424:\n        /* \"#utility.yul\":14357:14429   */\n      tag_425\n        /* \"#utility.yul\":14425:14427   */\n      0x40\n        /* \"#utility.yul\":14414:14423   */\n      dup4\n        /* \"#utility.yul\":14410:14428   */\n      add\n        /* \"#utility.yul\":14401:14407   */\n      dup5\n        /* \"#utility.yul\":14357:14429   */\n      tag_370\n      jump\t// in\n    tag_425:\n        /* \"#utility.yul\":13994:14436   */\n      swap5\n      swap4\n      pop\n      pop\n      pop\n      pop\n      jump\t// out\n        /* \"#utility.yul\":14442:14517   */\n    tag_426:\n        /* \"#utility.yul\":14475:14481   */\n      0x00\n        /* \"#utility.yul\":14508:14510   */\n      0x40\n        /* \"#utility.yul\":14502:14511   */\n      mload\n        /* \"#utility.yul\":14492:14511   */\n      swap1\n      pop\n        /* \"#utility.yul\":14442:14517   */\n      swap1\n      jump\t// out\n        /* \"#utility.yul\":14523:14621   */\n    tag_305:\n        /* \"#utility.yul\":14574:14580   */\n      0x00\n        /* \"#utility.yul\":14608:14613   */\n      dup2\n        /* \"#utility.yul\":14602:14614   */\n      mload\n        /* \"#utility.yul\":14592:14614   */\n      swap1\n      pop\n        /* \"#utility.yul\":14523:14621   */\n      swap2\n      swap1\n      pop\n      jump\t// out\n        /* \"#utility.yul\":14627:14726   */\n    tag_315:\n        /* \"#utility.yul\":14679:14685   */\n      0x00\n        /* \"#utility.yul\":14713:14718   */\n      dup2\n        /* \"#utility.yul\":14707:14719   */\n      mload\n        /* \"#utility.yul\":14697:14719   */\n      swap1\n      pop\n        /* \"#utility.yul\":14627:14726   */\n      swap2\n      swap1\n      pop\n      jump\t// out\n        /* \"#utility.yul\":14732:14900   */\n    tag_307:\n        /* \"#utility.yul\":14815:14826   */\n      0x00\n        /* \"#utility.yul\":14849:14855   */\n      dup3\n        /* \"#utility.yul\":14844:14847   */\n      dup3\n        /* \"#utility.yul\":14837:14856   */\n      mstore\n        /* \"#utility.yul\":14889:14893   */\n      0x20\n        /* \"#utility.yul\":14884:14887   */\n      dup3\n        /* \"#utility.yul\":14880:14894   */\n      add\n        /* \"#utility.yul\":14865:14894   */\n      swap1\n      pop\n        /* \"#utility.yul\":14732:14900   */\n      swap3\n      swap2\n      pop\n      pop\n      jump\t// out\n        /* \"#utility.yul\":14906:15075   */\n    tag_317:\n        /* \"#utility.yul\":14990:15001   */\n      0x00\n        /* \"#utility.yul\":15024:15030   */\n      dup3\n        /* \"#utility.yul\":15019:15022   */\n      dup3\n        /* \"#utility.yul\":15012:15031   */\n      mstore\n        /* \"#utility.yul\":15064:15068   */\n      0x20\n        /* \"#utility.yul\":15059:15062   */\n      dup3\n        /* \"#utility.yul\":15055:15069   */\n      add\n        /* \"#utility.yul\":15040:15069   */\n      swap1\n      pop\n        /* \"#utility.yul\":14906:15075   */\n      swap3\n      swap2\n      pop\n      pop\n      jump\t// out\n        /* \"#utility.yul\":15081:15386   */\n    tag_205:\n        /* \"#utility.yul\":15121:15124   */\n      0x00\n        /* \"#utility.yul\":15140:15160   */\n      tag_433\n        /* \"#utility.yul\":15158:15159   */\n      dup3\n        /* \"#utility.yul\":15140:15160   */\n      tag_373\n      jump\t// in\n    tag_433:\n        /* \"#utility.yul\":15135:15160   */\n      swap2\n      pop\n        /* \"#utility.yul\":15174:15194   */\n      tag_434\n        /* \"#utility.yul\":15192:15193   */\n      dup4\n        /* \"#utility.yul\":15174:15194   */\n      tag_373\n      jump\t// in\n    tag_434:\n        /* \"#utility.yul\":15169:15194   */\n      swap3\n      pop\n        /* \"#utility.yul\":15328:15329   */\n      dup3\n        /* \"#utility.yul\":15260:15326   */\n      0xffffffffffffffffffffffffffffffffffffffffffffffffffffffffffffffff\n        /* \"#utility.yul\":15256:15330   */\n      sub\n        /* \"#utility.yul\":15253:15254   */\n      dup3\n        /* \"#utility.yul\":15250:15331   */\n      gt\n        /* \"#utility.yul\":15247:15354   */\n      iszero\n      tag_435\n      jumpi\n        /* \"#utility.yul\":15334:15352   */\n      tag_436\n      tag_437\n      jump\t// in\n    tag_436:\n        /* \"#utility.yul\":15247:15354   */\n    tag_435:\n        /* \"#utility.yul\":15378:15379   */\n      dup3\n        /* \"#utility.yul\":15375:15376   */\n      dup3\n        /* \"#utility.yul\":15371:15380   */\n      add\n        /* \"#utility.yul\":15364:15380   */\n      swap1\n      pop\n        /* \"#utility.yul\":15081:15386   */\n      swap3\n      swap2\n      pop\n      pop\n      jump\t// out\n        /* \"#utility.yul\":15392:15488   */\n    tag_292:\n        /* \"#utility.yul\":15429:15436   */\n      0x00\n        /* \"#utility.yul\":15458:15482   */\n      tag_439\n        /* \"#utility.yul\":15476:15481   */\n      dup3\n        /* \"#utility.yul\":15458:15482   */\n      tag_440\n      jump\t// in\n    tag_439:\n        /* \"#utility.yul\":15447:15482   */\n      swap1\n      pop\n        /* \"#utility.yul\":15392:15488   */\n      swap2\n      swap1\n      pop\n      jump\t// out\n        /* \"#utility.yul\":15494:15598   */\n    tag_288:\n        /* \"#utility.yul\":15539:15546   */\n      0x00\n        /* \"#utility.yul\":15568:15592   */\n      tag_442\n        /* \"#utility.yul\":15586:15591   */\n      dup3\n        /* \"#utility.yul\":15568:15592   */\n      tag_440\n      jump\t// in\n    tag_442:\n        /* \"#utility.yul\":15557:15592   */\n      swap1\n      pop\n        /* \"#utility.yul\":15494:15598   */\n      swap2\n      swap1\n      pop\n      jump\t// out\n        /* \"#utility.yul\":15604:15694   */\n    tag_301:\n        /* \"#utility.yul\":15638:15645   */\n      0x00\n        /* \"#utility.yul\":15681:15686   */\n      dup2\n        /* \"#utility.yul\":15674:15687   */\n      iszero\n        /* \"#utility.yul\":15667:15688   */\n      iszero\n        /* \"#utility.yul\":15656:15688   */\n      swap1\n      pop\n        /* \"#utility.yul\":15604:15694   */\n      swap2\n      swap1\n      pop\n      jump\t// out\n        /* \"#utility.yul\":15700:15849   */\n    tag_444:\n        /* \"#utility.yul\":15736:15743   */\n      0x00\n        /* \"#utility.yul\":15776:15842   */\n      0xffffffff00000000000000000000000000000000000000000000000000000000\n        /* \"#utility.yul\":15769:15774   */\n      dup3\n        /* \"#utility.yul\":15765:15843   */\n      and\n        /* \"#utility.yul\":15754:15843   */\n      swap1\n      pop\n        /* \"#utility.yul\":15700:15849   */\n      swap2\n      swap1\n      pop\n      jump\t// out\n        /* \"#utility.yul\":15855:15981   */\n    tag_440:\n        /* \"#utility.yul\":15892:15899   */\n      0x00\n        /* \"#utility.yul\":15932:15974   */\n      0xffffffffffffffffffffffffffffffffffffffff\n        /* \"#utility.yul\":15925:15930   */\n      dup3\n        /* \"#utility.yul\":15921:15975   */\n      and\n        /* \"#utility.yul\":15910:15975   */\n      swap1\n      pop\n        /* \"#utility.yul\":15855:15981   */\n      swap2\n      swap1\n      pop\n      jump\t// out\n        /* \"#utility.yul\":15987:16064   */\n    tag_373:\n        /* \"#utility.yul\":16024:16031   */\n      0x00\n        /* \"#utility.yul\":16053:16058   */\n      dup2\n        /* \"#utility.yul\":16042:16058   */\n      swap1\n      pop\n        /* \"#utility.yul\":15987:16064   */\n      swap2\n      swap1\n      pop\n      jump\t// out\n        /* \"#utility.yul\":16070:16377   */\n    tag_309:\n        /* \"#utility.yul\":16138:16139   */\n      0x00\n        /* \"#utility.yul\":16148:16261   */\n    tag_449:\n        /* \"#utility.yul\":16162:16168   */\n      dup4\n        /* \"#utility.yul\":16159:16160   */\n      dup2\n        /* \"#utility.yul\":16156:16169   */\n      lt\n        /* \"#utility.yul\":16148:16261   */\n      iszero\n      tag_451\n      jumpi\n        /* \"#utility.yul\":16247:16248   */\n      dup1\n        /* \"#utility.yul\":16242:16245   */\n      dup3\n        /* \"#utility.yul\":16238:16249   */\n      add\n        /* \"#utility.yul\":16232:16250   */\n      mload\n        /* \"#utility.yul\":16228:16229   */\n      dup2\n        /* \"#utility.yul\":16223:16226   */\n      dup5\n        /* \"#utility.yul\":16219:16230   */\n      add\n        /* \"#utility.yul\":16212:16251   */\n      mstore\n        /* \"#utility.yul\":16184:16186   */\n      0x20\n        /* \"#utility.yul\":16181:16182   */\n      dup2\n        /* \"#utility.yul\":16177:16187   */\n      add\n        /* \"#utility.yul\":16172:16187   */\n      swap1\n      pop\n        /* \"#utility.yul\":16148:16261   */\n      jump(tag_449)\n    tag_451:\n        /* \"#utility.yul\":16279:16285   */\n      dup4\n        /* \"#utility.yul\":16276:16277   */\n      dup2\n        /* \"#utility.yul\":16273:16286   */\n      gt\n        /* \"#utility.yul\":16270:16371   */\n      iszero\n      tag_452\n      jumpi\n        /* \"#utility.yul\":16359:16360   */\n      0x00\n        /* \"#utility.yul\":16350:16356   */\n      dup5\n        /* \"#utility.yul\":16345:16348   */\n      dup5\n        /* \"#utility.yul\":16341:16357   */\n      add\n        /* \"#utility.yul\":16334:16361   */\n      mstore\n        /* \"#utility.yul\":16270:16371   */\n    tag_452:\n        /* \"#utility.yul\":16119:16377   */\n      pop\n        /* \"#utility.yul\":16070:16377   */\n      pop\n      pop\n      pop\n      jump\t// out\n        /* \"#utility.yul\":16383:16703   */\n    tag_123:\n        /* \"#utility.yul\":16427:16433   */\n      0x00\n        /* \"#utility.yul\":16464:16465   */\n      0x02\n        /* \"#utility.yul\":16458:16462   */\n      dup3\n        /* \"#utility.yul\":16454:16466   */\n      div\n        /* \"#utility.yul\":16444:16466   */\n      swap1\n      pop\n        /* \"#utility.yul\":16511:16512   */\n      0x01\n        /* \"#utility.yul\":16505:16509   */\n      dup3\n        /* \"#utility.yul\":16501:16513   */\n      and\n        /* \"#utility.yul\":16532:16550   */\n      dup1\n        /* \"#utility.yul\":16522:16603   */\n      tag_454\n      jumpi\n        /* \"#utility.yul\":16588:16592   */\n      0x7f\n        /* \"#utility.yul\":16580:16586   */\n      dup3\n        /* \"#utility.yul\":16576:16593   */\n      and\n        /* \"#utility.yul\":16566:16593   */\n      swap2\n      pop\n        /* \"#utility.yul\":16522:16603   */\n    tag_454:\n        /* \"#utility.yul\":16650:16652   */\n      0x20\n        /* \"#utility.yul\":16642:16648   */\n      dup3\n        /* \"#utility.yul\":16639:16653   */\n      lt\n        /* \"#utility.yul\":16619:16637   */\n      dup2\n        /* \"#utility.yul\":16616:16654   */\n      eq\n        /* \"#utility.yul\":16613:16697   */\n      iszero\n      tag_455\n      jumpi\n        /* \"#utility.yul\":16669:16687   */\n      tag_456\n      tag_457\n      jump\t// in\n    tag_456:\n        /* \"#utility.yul\":16613:16697   */\n    tag_455:\n        /* \"#utility.yul\":16434:16703   */\n      pop\n        /* \"#utility.yul\":16383:16703   */\n      swap2\n      swap1\n      pop\n      jump\t// out\n        /* \"#utility.yul\":16709:16990   */\n    tag_458:\n        /* \"#utility.yul\":16792:16819   */\n      tag_460\n        /* \"#utility.yul\":16814:16818   */\n      dup3\n        /* \"#utility.yul\":16792:16819   */\n      tag_311\n      jump\t// in\n    tag_460:\n        /* \"#utility.yul\":16784:16790   */\n      dup2\n        /* \"#utility.yul\":16780:16820   */\n      add\n        /* \"#utility.yul\":16922:16928   */\n      dup2\n        /* \"#utility.yul\":16910:16920   */\n      dup2\n        /* \"#utility.yul\":16907:16929   */\n      lt\n        /* \"#utility.yul\":16886:16904   */\n      0xffffffffffffffff\n        /* \"#utility.yul\":16874:16884   */\n      dup3\n        /* \"#utility.yul\":16871:16905   */\n      gt\n        /* \"#utility.yul\":16868:16930   */\n      or\n        /* \"#utility.yul\":16865:16953   */\n      iszero\n      tag_461\n      jumpi\n        /* \"#utility.yul\":16933:16951   */\n      tag_462\n      tag_215\n      jump\t// in\n    tag_462:\n        /* \"#utility.yul\":16865:16953   */\n    tag_461:\n        /* \"#utility.yul\":16973:16983   */\n      dup1\n        /* \"#utility.yul\":16969:16971   */\n      0x40\n        /* \"#utility.yul\":16962:16984   */\n      mstore\n        /* \"#utility.yul\":16752:16990   */\n      pop\n        /* \"#utility.yul\":16709:16990   */\n      pop\n      pop\n      jump\t// out\n        /* \"#utility.yul\":16996:17229   */\n    tag_110:\n        /* \"#utility.yul\":17035:17038   */\n      0x00\n        /* \"#utility.yul\":17058:17082   */\n      tag_464\n        /* \"#utility.yul\":17076:17081   */\n      dup3\n        /* \"#utility.yul\":17058:17082   */\n      tag_373\n      jump\t// in\n    tag_464:\n        /* \"#utility.yul\":17049:17082   */\n      swap2\n      pop\n        /* \"#utility.yul\":17104:17170   */\n      0xffffffffffffffffffffffffffffffffffffffffffffffffffffffffffffffff\n        /* \"#utility.yul\":17097:17102   */\n      dup3\n        /* \"#utility.yul\":17094:17171   */\n      eq\n        /* \"#utility.yul\":17091:17194   */\n      iszero\n      tag_465\n      jumpi\n        /* \"#utility.yul\":17174:17192   */\n      tag_466\n      tag_437\n      jump\t// in\n    tag_466:\n        /* \"#utility.yul\":17091:17194   */\n    tag_465:\n        /* \"#utility.yul\":17221:17222   */\n      0x01\n        /* \"#utility.yul\":17214:17219   */\n      dup3\n        /* \"#utility.yul\":17210:17223   */\n      add\n        /* \"#utility.yul\":17203:17223   */\n      swap1\n      pop\n        /* \"#utility.yul\":16996:17229   */\n      swap2\n      swap1\n      pop\n      jump\t// out\n        /* \"#utility.yul\":17235:17335   */\n    tag_297:\n        /* \"#utility.yul\":17274:17281   */\n      0x00\n        /* \"#utility.yul\":17303:17329   */\n      tag_468\n        /* \"#utility.yul\":17323:17328   */\n      dup3\n        /* \"#utility.yul\":17303:17329   */\n      tag_469\n      jump\t// in\n    tag_468:\n        /* \"#utility.yul\":17292:17329   */\n      swap1\n      pop\n        /* \"#utility.yul\":17235:17335   */\n      swap2\n      swap1\n      pop\n      jump\t// out\n        /* \"#utility.yul\":17341:17435   */\n    tag_469:\n        /* \"#utility.yul\":17380:17387   */\n      0x00\n        /* \"#utility.yul\":17409:17429   */\n      tag_471\n        /* \"#utility.yul\":17423:17428   */\n      dup3\n        /* \"#utility.yul\":17409:17429   */\n      tag_472\n      jump\t// in\n    tag_471:\n        /* \"#utility.yul\":17398:17429   */\n      swap1\n      pop\n        /* \"#utility.yul\":17341:17435   */\n      swap2\n      swap1\n      pop\n      jump\t// out\n        /* \"#utility.yul\":17441:17520   */\n    tag_378:\n        /* \"#utility.yul\":17480:17487   */\n      0x00\n        /* \"#utility.yul\":17509:17514   */\n      dup2\n        /* \"#utility.yul\":17498:17514   */\n      swap1\n      pop\n        /* \"#utility.yul\":17441:17520   */\n      swap2\n      swap1\n      pop\n      jump\t// out\n        /* \"#utility.yul\":17526:17702   */\n    tag_193:\n        /* \"#utility.yul\":17558:17559   */\n      0x00\n        /* \"#utility.yul\":17575:17595   */\n      tag_475\n        /* \"#utility.yul\":17593:17594   */\n      dup3\n        /* \"#utility.yul\":17575:17595   */\n      tag_373\n      jump\t// in\n    tag_475:\n        /* \"#utility.yul\":17570:17595   */\n      swap2\n      pop\n        /* \"#utility.yul\":17609:17629   */\n      tag_476\n        /* \"#utility.yul\":17627:17628   */\n      dup4\n        /* \"#utility.yul\":17609:17629   */\n      tag_373\n      jump\t// in\n    tag_476:\n        /* \"#utility.yul\":17604:17629   */\n      swap3\n      pop\n        /* \"#utility.yul\":17648:17649   */\n      dup3\n        /* \"#utility.yul\":17638:17673   */\n      tag_477\n      jumpi\n        /* \"#utility.yul\":17653:17671   */\n      tag_478\n      tag_479\n      jump\t// in\n    tag_478:\n        /* \"#utility.yul\":17638:17673   */\n    tag_477:\n        /* \"#utility.yul\":17694:17695   */\n      dup3\n        /* \"#utility.yul\":17691:17692   */\n      dup3\n        /* \"#utility.yul\":17687:17696   */\n      mod\n        /* \"#utility.yul\":17682:17696   */\n      swap1\n      pop\n        /* \"#utility.yul\":17526:17702   */\n      swap3\n      swap2\n      pop\n      pop\n      jump\t// out\n        /* \"#utility.yul\":17708:17888   */\n    tag_437:\n        /* \"#utility.yul\":17756:17833   */\n      0x4e487b7100000000000000000000000000000000000000000000000000000000\n        /* \"#utility.yul\":17753:17754   */\n      0x00\n        /* \"#utility.yul\":17746:17834   */\n      mstore\n        /* \"#utility.yul\":17853:17857   */\n      0x11\n        /* \"#utility.yul\":17850:17851   */\n      0x04\n        /* \"#utility.yul\":17843:17858   */\n      mstore\n        /* \"#utility.yul\":17877:17881   */\n      0x24\n        /* \"#utility.yul\":17874:17875   */\n      0x00\n        /* \"#utility.yul\":17867:17882   */\n      revert\n        /* \"#utility.yul\":17894:18074   */\n    tag_479:\n        /* \"#utility.yul\":17942:18019   */\n      0x4e487b7100000000000000000000000000000000000000000000000000000000\n        /* \"#utility.yul\":17939:17940   */\n      0x00\n        /* \"#utility.yul\":17932:18020   */\n      mstore\n        /* \"#utility.yul\":18039:18043   */\n      0x12\n        /* \"#utility.yul\":18036:18037   */\n      0x04\n        /* \"#utility.yul\":18029:18044   */\n      mstore\n        /* \"#utility.yul\":18063:18067   */\n      0x24\n        /* \"#utility.yul\":18060:18061   */\n      0x00\n        /* \"#utility.yul\":18053:18068   */\n      revert\n        /* \"#utility.yul\":18080:18260   */\n    tag_457:\n        /* \"#utility.yul\":18128:18205   */\n      0x4e487b7100000000000000000000000000000000000000000000000000000000\n        /* \"#utility.yul\":18125:18126   */\n      0x00\n        /* \"#utility.yul\":18118:18206   */\n      mstore\n        /* \"#utility.yul\":18225:18229   */\n      0x22\n        /* \"#utility.yul\":18222:18223   */\n      0x04\n        /* \"#utility.yul\":18215:18230   */\n      mstore\n        /* \"#utility.yul\":18249:18253   */\n      0x24\n        /* \"#utility.yul\":18246:18247   */\n      0x00\n        /* \"#utility.yul\":18239:18254   */\n      revert\n        /* \"#utility.yul\":18266:18446   */\n    tag_219:\n        /* \"#utility.yul\":18314:18391   */\n      0x4e487b7100000000000000000000000000000000000000000000000000000000\n        /* \"#utility.yul\":18311:18312   */\n      0x00\n        /* \"#utility.yul\":18304:18392   */\n      mstore\n        /* \"#utility.yul\":18411:18415   */\n      0x32\n        /* \"#utility.yul\":18408:18409   */\n      0x04\n        /* \"#utility.yul\":18401:18416   */\n      mstore\n        /* \"#utility.yul\":18435:18439   */\n      0x24\n        /* \"#utility.yul\":18432:18433   */\n      0x00\n        /* \"#utility.yul\":18425:18440   */\n      revert\n        /* \"#utility.yul\":18452:18632   */\n    tag_215:\n        /* \"#utility.yul\":18500:18577   */\n      0x4e487b7100000000000000000000000000000000000000000000000000000000\n        /* \"#utility.yul\":18497:18498   */\n      0x00\n        /* \"#utility.yul\":18490:18578   */\n      mstore\n        /* \"#utility.yul\":18597:18601   */\n      0x41\n        /* \"#utility.yul\":18594:18595   */\n      0x04\n        /* \"#utility.yul\":18587:18602   */\n      mstore\n        /* \"#utility.yul\":18621:18625   */\n      0x24\n        /* \"#utility.yul\":18618:18619   */\n      0x00\n        /* \"#utility.yul\":18611:18626   */\n      revert\n        /* \"#utility.yul\":18638:18821   */\n    tag_236:\n        /* \"#utility.yul\":18673:18676   */\n      0x00\n        /* \"#utility.yul\":18711:18712   */\n      0x03\n        /* \"#utility.yul\":18693:18709   */\n      returndatasize\n        /* \"#utility.yul\":18690:18713   */\n      gt\n        /* \"#utility.yul\":18687:18815   */\n      iszero\n      tag_486\n      jumpi\n        /* \"#utility.yul\":18749:18750   */\n      0x04\n        /* \"#utility.yul\":18746:18747   */\n      0x00\n        /* \"#utility.yul\":18743:18744   */\n      dup1\n        /* \"#utility.yul\":18728:18751   */\n      returndatacopy\n        /* \"#utility.yul\":18771:18805   */\n      tag_487\n        /* \"#utility.yul\":18802:18803   */\n      0x00\n        /* \"#utility.yul\":18796:18804   */\n      mload\n        /* \"#utility.yul\":18771:18805   */\n      tag_488\n      jump\t// in\n    tag_487:\n        /* \"#utility.yul\":18764:18805   */\n      swap1\n      pop\n        /* \"#utility.yul\":18687:18815   */\n    tag_486:\n        /* \"#utility.yul\":18638:18821   */\n      swap1\n      jump\t// out\n        /* \"#utility.yul\":18950:19067   */\n    tag_275:\n        /* \"#utility.yul\":19059:19060   */\n      0x00\n        /* \"#utility.yul\":19056:19057   */\n      dup1\n        /* \"#utility.yul\":19049:19061   */\n      revert\n        /* \"#utility.yul\":19073:19175   */\n    tag_311:\n        /* \"#utility.yul\":19114:19120   */\n      0x00\n        /* \"#utility.yul\":19165:19167   */\n      0x1f\n        /* \"#utility.yul\":19161:19168   */\n      not\n        /* \"#utility.yul\":19156:19158   */\n      0x1f\n        /* \"#utility.yul\":19149:19154   */\n      dup4\n        /* \"#utility.yul\":19145:19159   */\n      add\n        /* \"#utility.yul\":19141:19169   */\n      and\n        /* \"#utility.yul\":19131:19169   */\n      swap1\n      pop\n        /* \"#utility.yul\":19073:19175   */\n      swap2\n      swap1\n      pop\n      jump\t// out\n        /* \"#utility.yul\":19181:19275   */\n    tag_472:\n        /* \"#utility.yul\":19214:19222   */\n      0x00\n        /* \"#utility.yul\":19262:19267   */\n      dup2\n        /* \"#utility.yul\":19258:19260   */\n      0x60\n        /* \"#utility.yul\":19254:19268   */\n      shl\n        /* \"#utility.yul\":19233:19268   */\n      swap1\n      pop\n        /* \"#utility.yul\":19181:19275   */\n      swap2\n      swap1\n      pop\n      jump\t// out\n        /* \"#utility.yul\":19281:19387   */\n    tag_488:\n        /* \"#utility.yul\":19325:19333   */\n      0x00\n        /* \"#utility.yul\":19374:19379   */\n      dup2\n        /* \"#utility.yul\":19369:19372   */\n      0xe0\n        /* \"#utility.yul\":19365:19380   */\n      shr\n        /* \"#utility.yul\":19344:19380   */\n      swap1\n      pop\n        /* \"#utility.yul\":19281:19387   */\n      swap2\n      swap1\n      pop\n      jump\t// out\n        /* \"#utility.yul\":19393:19632   */\n    tag_324:\n        /* \"#utility.yul\":19533:19567   */\n      0x455243313135353a207472616e7366657220746f206e6f6e2045524331313535\n        /* \"#utility.yul\":19529:19530   */\n      0x00\n        /* \"#utility.yul\":19521:19527   */\n      dup3\n        /* \"#utility.yul\":19517:19531   */\n      add\n        /* \"#utility.yul\":19510:19568   */\n      mstore\n        /* \"#utility.yul\":19602:19624   */\n      0x526563656976657220696d706c656d656e746572000000000000000000000000\n        /* \"#utility.yul\":19597:19599   */\n      0x20\n        /* \"#utility.yul\":19589:19595   */\n      dup3\n        /* \"#utility.yul\":19585:19600   */\n      add\n        /* \"#utility.yul\":19578:19625   */\n      mstore\n        /* \"#utility.yul\":19393:19632   */\n      pop\n      jump\t// out\n        /* \"#utility.yul\":19638:19865   */\n    tag_329:\n        /* \"#utility.yul\":19778:19812   */\n      0x455243313135353a204552433131353552656365697665722072656a65637465\n        /* \"#utility.yul\":19774:19775   */\n      0x00\n        /* \"#utility.yul\":19766:19772   */\n      dup3\n        /* \"#utility.yul\":19762:19776   */\n      add\n        /* \"#utility.yul\":19755:19813   */\n      mstore\n        /* \"#utility.yul\":19847:19857   */\n      0x6420746f6b656e73000000000000000000000000000000000000000000000000\n        /* \"#utility.yul\":19842:19844   */\n      0x20\n        /* \"#utility.yul\":19834:19840   */\n      dup3\n        /* \"#utility.yul\":19830:19845   */\n      add\n        /* \"#utility.yul\":19823:19858   */\n      mstore\n        /* \"#utility.yul\":19638:19865   */\n      pop\n      jump\t// out\n        /* \"#utility.yul\":19871:20039   */\n    tag_334:\n        /* \"#utility.yul\":20011:20031   */\n      0x4e6f7420456e6f7567682042616c616e63650000000000000000000000000000\n        /* \"#utility.yul\":20007:20008   */\n      0x00\n        /* \"#utility.yul\":19999:20005   */\n      dup3\n        /* \"#utility.yul\":19995:20009   */\n      add\n        /* \"#utility.yul\":19988:20032   */\n      mstore\n        /* \"#utility.yul\":19871:20039   */\n      pop\n      jump\t// out\n        /* \"#utility.yul\":20045:20222   */\n    tag_339:\n        /* \"#utility.yul\":20185:20214   */\n      0x44726f707369746520697320616c72656164792052756e6e696e670000000000\n        /* \"#utility.yul\":20181:20182   */\n      0x00\n        /* \"#utility.yul\":20173:20179   */\n      dup3\n        /* \"#utility.yul\":20169:20183   */\n      add\n        /* \"#utility.yul\":20162:20215   */\n      mstore\n        /* \"#utility.yul\":20045:20222   */\n      pop\n      jump\t// out\n        /* \"#utility.yul\":20228:20405   */\n    tag_344:\n        /* \"#utility.yul\":20368:20397   */\n      0x44726f707369746520697320616c72656164792053746f707065640000000000\n        /* \"#utility.yul\":20364:20365   */\n      0x00\n        /* \"#utility.yul\":20356:20362   */\n      dup3\n        /* \"#utility.yul\":20352:20366   */\n      add\n        /* \"#utility.yul\":20345:20398   */\n      mstore\n        /* \"#utility.yul\":20228:20405   */\n      pop\n      jump\t// out\n        /* \"#utility.yul\":20411:20589   */\n    tag_349:\n        /* \"#utility.yul\":20551:20581   */\n      0x4f6e6c79204e46542d4553204f776e65722063616e2041636365737300000000\n        /* \"#utility.yul\":20547:20548   */\n      0x00\n        /* \"#utility.yul\":20539:20545   */\n      dup3\n        /* \"#utility.yul\":20535:20549   */\n      add\n        /* \"#utility.yul\":20528:20582   */\n      mstore\n        /* \"#utility.yul\":20411:20589   */\n      pop\n      jump\t// out\n        /* \"#utility.yul\":20595:20772   */\n    tag_354:\n        /* \"#utility.yul\":20735:20764   */\n      0x44726f7073697465206973206e6f74204f70656e6564205965742e0000000000\n        /* \"#utility.yul\":20731:20732   */\n      0x00\n        /* \"#utility.yul\":20723:20729   */\n      dup3\n        /* \"#utility.yul\":20719:20733   */\n      add\n        /* \"#utility.yul\":20712:20765   */\n      mstore\n        /* \"#utility.yul\":20595:20772   */\n      pop\n      jump\t// out\n        /* \"#utility.yul\":20778:20953   */\n    tag_359:\n        /* \"#utility.yul\":20918:20945   */\n      0x4d6178204d696e74696e67204c696d6974207265616368656400000000000000\n        /* \"#utility.yul\":20914:20915   */\n      0x00\n        /* \"#utility.yul\":20906:20912   */\n      dup3\n        /* \"#utility.yul\":20902:20916   */\n      add\n        /* \"#utility.yul\":20895:20946   */\n      mstore\n        /* \"#utility.yul\":20778:20953   */\n      pop\n      jump\t// out\n        /* \"#utility.yul\":20959:21138   */\n    tag_364:\n        /* \"#utility.yul\":21099:21130   */\n      0x4572726f7221204e6f2042616c616e636520746f207769746864726177000000\n        /* \"#utility.yul\":21095:21096   */\n      0x00\n        /* \"#utility.yul\":21087:21093   */\n      dup3\n        /* \"#utility.yul\":21083:21097   */\n      add\n        /* \"#utility.yul\":21076:21131   */\n      mstore\n        /* \"#utility.yul\":20959:21138   */\n      pop\n      jump\t// out\n        /* \"#utility.yul\":21144:21364   */\n    tag_369:\n        /* \"#utility.yul\":21284:21318   */\n      0x455243313135353a206d696e7420746f20746865207a65726f20616464726573\n        /* \"#utility.yul\":21280:21281   */\n      0x00\n        /* \"#utility.yul\":21272:21278   */\n      dup3\n        /* \"#utility.yul\":21268:21282   */\n      add\n        /* \"#utility.yul\":21261:21319   */\n      mstore\n        /* \"#utility.yul\":21353:21356   */\n      0x7300000000000000000000000000000000000000000000000000000000000000\n        /* \"#utility.yul\":21348:21350   */\n      0x20\n        /* \"#utility.yul\":21340:21346   */\n      dup3\n        /* \"#utility.yul\":21336:21351   */\n      add\n        /* \"#utility.yul\":21329:21357   */\n      mstore\n        /* \"#utility.yul\":21144:21364   */\n      pop\n      jump\t// out\n        /* \"#utility.yul\":21370:22081   */\n    tag_238:\n        /* \"#utility.yul\":21409:21412   */\n      0x00\n        /* \"#utility.yul\":21447:21451   */\n      0x44\n        /* \"#utility.yul\":21429:21445   */\n      returndatasize\n        /* \"#utility.yul\":21426:21452   */\n      lt\n        /* \"#utility.yul\":21423:21462   */\n      iszero\n      tag_506\n      jumpi\n        /* \"#utility.yul\":21455:21460   */\n      jump(tag_505)\n        /* \"#utility.yul\":21423:21462   */\n    tag_506:\n        /* \"#utility.yul\":21484:21504   */\n      tag_507\n      tag_426\n      jump\t// in\n    tag_507:\n        /* \"#utility.yul\":21559:21560   */\n      0x04\n        /* \"#utility.yul\":21541:21557   */\n      returndatasize\n        /* \"#utility.yul\":21537:21561   */\n      sub\n        /* \"#utility.yul\":21534:21535   */\n      0x04\n        /* \"#utility.yul\":21528:21532   */\n      dup3\n        /* \"#utility.yul\":21513:21562   */\n      returndatacopy\n        /* \"#utility.yul\":21592:21596   */\n      dup1\n        /* \"#utility.yul\":21586:21597   */\n      mload\n        /* \"#utility.yul\":21691:21707   */\n      returndatasize\n        /* \"#utility.yul\":21684:21688   */\n      0x24\n        /* \"#utility.yul\":21676:21682   */\n      dup3\n        /* \"#utility.yul\":21672:21689   */\n      add\n        /* \"#utility.yul\":21669:21708   */\n      gt\n        /* \"#utility.yul\":21636:21654   */\n      0xffffffffffffffff\n        /* \"#utility.yul\":21628:21634   */\n      dup3\n        /* \"#utility.yul\":21625:21655   */\n      gt\n        /* \"#utility.yul\":21609:21722   */\n      or\n        /* \"#utility.yul\":21606:21752   */\n      iszero\n      tag_508\n      jumpi\n        /* \"#utility.yul\":21737:21742   */\n      pop\n      pop\n      jump(tag_505)\n        /* \"#utility.yul\":21606:21752   */\n    tag_508:\n        /* \"#utility.yul\":21783:21789   */\n      dup1\n        /* \"#utility.yul\":21777:21781   */\n      dup3\n        /* \"#utility.yul\":21773:21790   */\n      add\n        /* \"#utility.yul\":21819:21822   */\n      dup1\n        /* \"#utility.yul\":21813:21823   */\n      mload\n        /* \"#utility.yul\":21846:21864   */\n      0xffffffffffffffff\n        /* \"#utility.yul\":21838:21844   */\n      dup2\n        /* \"#utility.yul\":21835:21865   */\n      gt\n        /* \"#utility.yul\":21832:21875   */\n      iszero\n      tag_509\n      jumpi\n        /* \"#utility.yul\":21868:21873   */\n      pop\n      pop\n      pop\n      pop\n      jump(tag_505)\n        /* \"#utility.yul\":21832:21875   */\n    tag_509:\n        /* \"#utility.yul\":21916:21922   */\n      dup1\n        /* \"#utility.yul\":21909:21913   */\n      0x20\n        /* \"#utility.yul\":21904:21907   */\n      dup4\n        /* \"#utility.yul\":21900:21914   */\n      add\n        /* \"#utility.yul\":21896:21923   */\n      add\n        /* \"#utility.yul\":21975:21976   */\n      0x04\n        /* \"#utility.yul\":21957:21973   */\n      returndatasize\n        /* \"#utility.yul\":21953:21977   */\n      sub\n        /* \"#utility.yul\":21947:21951   */\n      dup6\n        /* \"#utility.yul\":21943:21978   */\n      add\n        /* \"#utility.yul\":21938:21941   */\n      dup2\n        /* \"#utility.yul\":21935:21979   */\n      gt\n        /* \"#utility.yul\":21932:21989   */\n      iszero\n      tag_510\n      jumpi\n        /* \"#utility.yul\":21982:21987   */\n      pop\n      pop\n      pop\n      pop\n      pop\n      jump(tag_505)\n        /* \"#utility.yul\":21932:21989   */\n    tag_510:\n        /* \"#utility.yul\":21999:22056   */\n      tag_511\n        /* \"#utility.yul\":22047:22053   */\n      dup3\n        /* \"#utility.yul\":22041:22045   */\n      0x20\n        /* \"#utility.yul\":22037:22054   */\n      add\n        /* \"#utility.yul\":22029:22035   */\n      dup6\n        /* \"#utility.yul\":22025:22055   */\n      add\n        /* \"#utility.yul\":22019:22023   */\n      dup7\n        /* \"#utility.yul\":21999:22056   */\n      tag_458\n      jump\t// in\n    tag_511:\n        /* \"#utility.yul\":22072:22075   */\n      dup3\n        /* \"#utility.yul\":22065:22075   */\n      swap6\n      pop\n        /* \"#utility.yul\":21413:22081   */\n      pop\n      pop\n      pop\n      pop\n      pop\n        /* \"#utility.yul\":21370:22081   */\n    tag_505:\n      swap1\n      jump\t// out\n        /* \"#utility.yul\":22087:22209   */\n    tag_263:\n        /* \"#utility.yul\":22160:22184   */\n      tag_513\n        /* \"#utility.yul\":22178:22183   */\n      dup2\n        /* \"#utility.yul\":22160:22184   */\n      tag_292\n      jump\t// in\n    tag_513:\n        /* \"#utility.yul\":22153:22158   */\n      dup2\n        /* \"#utility.yul\":22150:22185   */\n      eq\n        /* \"#utility.yul\":22140:22203   */\n      tag_514\n      jumpi\n        /* \"#utility.yul\":22199:22200   */\n      0x00\n        /* \"#utility.yul\":22196:22197   */\n      dup1\n        /* \"#utility.yul\":22189:22201   */\n      revert\n        /* \"#utility.yul\":22140:22203   */\n    tag_514:\n        /* \"#utility.yul\":22087:22209   */\n      pop\n      jump\t// out\n        /* \"#utility.yul\":22215:22353   */\n    tag_267:\n        /* \"#utility.yul\":22296:22328   */\n      tag_516\n        /* \"#utility.yul\":22322:22327   */\n      dup2\n        /* \"#utility.yul\":22296:22328   */\n      tag_288\n      jump\t// in\n    tag_516:\n        /* \"#utility.yul\":22289:22294   */\n      dup2\n        /* \"#utility.yul\":22286:22329   */\n      eq\n        /* \"#utility.yul\":22276:22347   */\n      tag_517\n      jumpi\n        /* \"#utility.yul\":22343:22344   */\n      0x00\n        /* \"#utility.yul\":22340:22341   */\n      dup1\n        /* \"#utility.yul\":22333:22345   */\n      revert\n        /* \"#utility.yul\":22276:22347   */\n    tag_517:\n        /* \"#utility.yul\":22215:22353   */\n      pop\n      jump\t// out\n        /* \"#utility.yul\":22359:22479   */\n    tag_271:\n        /* \"#utility.yul\":22431:22454   */\n      tag_519\n        /* \"#utility.yul\":22448:22453   */\n      dup2\n        /* \"#utility.yul\":22431:22454   */\n      tag_444\n      jump\t// in\n    tag_519:\n        /* \"#utility.yul\":22424:22429   */\n      dup2\n        /* \"#utility.yul\":22421:22455   */\n      eq\n        /* \"#utility.yul\":22411:22473   */\n      tag_520\n      jumpi\n        /* \"#utility.yul\":22469:22470   */\n      0x00\n        /* \"#utility.yul\":22466:22467   */\n      dup1\n        /* \"#utility.yul\":22459:22471   */\n      revert\n        /* \"#utility.yul\":22411:22473   */\n    tag_520:\n        /* \"#utility.yul\":22359:22479   */\n      pop\n      jump\t// out\n\n    auxdata: 0xa2646970667358221220492aa64c076b947f9587619a39972213ffd58ad1667e6e027b4c2499d36f5c6464736f6c63430008070033\n}\n",
				"bytecode": {
					"linkReferences": {},
					"object": "608060405260405180602001604052806000815250600290805190602001906200002b92919062000103565b506001600b60006101000a81548160ff0219169083151502179055503480156200005457600080fd5b506040516200270a3803806200270a83398181016040528101906200007a9190620002c2565b80600c90805190602001906200009292919062000194565b5033600b60016101000a81548173ffffffffffffffffffffffffffffffffffffffff021916908373ffffffffffffffffffffffffffffffffffffffff160217905550600060038190555060016004819055506000600581905550600060068190555060006007819055505062000497565b8280546200011190620003a8565b90600052602060002090601f01602090048101928262000135576000855562000181565b82601f106200015057805160ff191683800117855562000181565b8280016001018555821562000181579182015b828111156200018057825182559160200191906001019062000163565b5b50905062000190919062000225565b5090565b828054620001a290620003a8565b90600052602060002090601f016020900481019282620001c6576000855562000212565b82601f10620001e157805160ff191683800117855562000212565b8280016001018555821562000212579182015b8281111562000211578251825591602001919060010190620001f4565b5b50905062000221919062000225565b5090565b5b808211156200024057600081600090555060010162000226565b5090565b60006200025b62000255846200033c565b62000313565b9050828152602081018484840111156200027a576200027962000477565b5b6200028784828562000372565b509392505050565b600082601f830112620002a757620002a662000472565b5b8151620002b984826020860162000244565b91505092915050565b600060208284031215620002db57620002da62000481565b5b600082015167ffffffffffffffff811115620002fc57620002fb6200047c565b5b6200030a848285016200028f565b91505092915050565b60006200031f62000332565b90506200032d8282620003de565b919050565b6000604051905090565b600067ffffffffffffffff8211156200035a576200035962000443565b5b620003658262000486565b9050602081019050919050565b60005b838110156200039257808201518184015260208101905062000375565b83811115620003a2576000848401525b50505050565b60006002820490506001821680620003c157607f821691505b60208210811415620003d857620003d762000414565b5b50919050565b620003e98262000486565b810181811067ffffffffffffffff821117156200040b576200040a62000443565b5b80604052505050565b7f4e487b7100000000000000000000000000000000000000000000000000000000600052602260045260246000fd5b7f4e487b7100000000000000000000000000000000000000000000000000000000600052604160045260246000fd5b600080fd5b600080fd5b600080fd5b600080fd5b6000601f19601f8301169050919050565b61226380620004a76000396000f3fe6080604052600436106100915760003560e01c80633d65df70116100595780633d65df701461014a57806360daa8511461017b578063aa90c726146101a8578063b4a99a4e146101bf578063fd93d41c146101ea57610091565b80630390c11c146100965780630a67d2c7146100c15780631309a563146100dd57806315460259146101085780633b6680591461011f575b600080fd5b3480156100a257600080fd5b506100ab610228565b6040516100b89190611b02565b60405180910390f35b6100db60048036038101906100d69190611650565b6102c9565b005b3480156100e957600080fd5b506100f26103f3565b6040516100ff9190611985565b60405180910390f35b34801561011457600080fd5b5061011d610406565b005b34801561012b57600080fd5b50610134610510565b6040516101419190611b02565b60405180910390f35b610164600480360381019061015f9190611623565b6105af565b604051610172929190611b1d565b60405180910390f35b34801561018757600080fd5b50610190610a59565b60405161019f93929190611b76565b60405180910390f35b3480156101b457600080fd5b506101bd610b09565b005b3480156101cb57600080fd5b506101d4610c13565b6040516101e19190611910565b60405180910390f35b3480156101f657600080fd5b50610211600480360381019061020c9190611623565b610c39565b60405161021f929190611b1d565b60405180910390f35b6000600b60019054906101000a900473ffffffffffffffffffffffffffffffffffffffff1673ffffffffffffffffffffffffffffffffffffffff1661026b611089565b73ffffffffffffffffffffffffffffffffffffffff16146102c1576040517f08c379a00000000000000000000000000000000000000000000000000000000081526004016102b890611a62565b60405180910390fd5b600354905090565b600b60019054906101000a900473ffffffffffffffffffffffffffffffffffffffff1673ffffffffffffffffffffffffffffffffffffffff1661030a611089565b73ffffffffffffffffffffffffffffffffffffffff1614610360576040517f08c379a000000000000000000000000000000000000000000000000000000000815260040161035790611a62565b60405180910390fd5b6000479050600081116103a8576040517f08c379a000000000000000000000000000000000000000000000000000000000815260040161039f90611ac2565b60405180910390fd5b8173ffffffffffffffffffffffffffffffffffffffff166108fc829081150290604051600060405180830381858888f193505050501580156103ee573d6000803e3d6000fd5b505050565b600b60009054906101000a900460ff1681565b600b60019054906101000a900473ffffffffffffffffffffffffffffffffffffffff1673ffffffffffffffffffffffffffffffffffffffff16610447611089565b73ffffffffffffffffffffffffffffffffffffffff161461049d576040517f08c379a000000000000000000000000000000000000000000000000000000000815260040161049490611a62565b60405180910390fd5b60011515600b60009054906101000a900460ff161515146104f3576040517f08c379a00000000000000000000000000000000000000000000000000000000081526004016104ea90611a22565b60405180910390fd5b6000600b60006101000a81548160ff021916908315150217905550565b6000600b60019054906101000a900473ffffffffffffffffffffffffffffffffffffffff1673ffffffffffffffffffffffffffffffffffffffff16610553611089565b73ffffffffffffffffffffffffffffffffffffffff16146105a9576040517f08c379a00000000000000000000000000000000000000000000000000000000081526004016105a090611a62565b60405180910390fd5b47905090565b60006060600b60019054906101000a900473ffffffffffffffffffffffffffffffffffffffff1673ffffffffffffffffffffffffffffffffffffffff166105f4611089565b73ffffffffffffffffffffffffffffffffffffffff161461064a576040517f08c379a000000000000000000000000000000000000000000000000000000000815260040161064190611a62565b60405180910390fd5b60001515600b60009054906101000a900460ff161515146106a0576040517f08c379a000000000000000000000000000000000000000000000000000000000815260040161069790611a82565b60405180910390fd5b6064600354106106e5576040517f08c379a00000000000000000000000000000000000000000000000000000000081526004016106dc90611aa2565b60405180910390fd5b662e2f6e5e148000341461072e576040517f08c379a000000000000000000000000000000000000000000000000000000000815260040161072590611a02565b60405180910390fd5b6000610738611091565b905060008114801561074c5750600f600554105b156107ba576040518060400160405280600881526020017f506c6174696e756d0000000000000000000000000000000000000000000000008152506002908051906020019061079c929190611541565b50600560008154809291906107b090611d61565b91905055506108bb565b600181111580156107cd57506023600654105b1561083b576040518060400160405280600481526020017f476f6c64000000000000000000000000000000000000000000000000000000008152506002908051906020019061081d929190611541565b506006600081548092919061083190611d61565b91905055506108ba565b6002811115801561084f5750603260075411155b156108b9576040518060400160405280600681526020017f53696c76657200000000000000000000000000000000000000000000000000008152506002908051906020019061089f929190611541565b50600760008154809291906108b390611d61565b91905055505b5b5b6109538482600454600280546108d090611cfe565b80601f01602080910402602001604051908101604052809291908181526020018280546108fc90611cfe565b80156109495780601f1061091e57610100808354040283529160200191610949565b820191906000526020600020905b81548152906001019060200180831161092c57829003601f168201915b50505050506110d5565b61096461095e611089565b3461126b565b6003600081548092919061097790611d61565b919050555080600860008673ffffffffffffffffffffffffffffffffffffffff1673ffffffffffffffffffffffffffffffffffffffff168152602001908152602001600020819055508060028080546109cf90611cfe565b80601f01602080910402602001604051908101604052809291908181526020018280546109fb90611cfe565b8015610a485780601f10610a1d57610100808354040283529160200191610a48565b820191906000526020600020905b815481529060010190602001808311610a2b57829003601f168201915b505050505090509250925050915091565b6000806000600b60019054906101000a900473ffffffffffffffffffffffffffffffffffffffff1673ffffffffffffffffffffffffffffffffffffffff16610a9f611089565b73ffffffffffffffffffffffffffffffffffffffff1614610af5576040517f08c379a0000000000000000000000000000000000000000000000000000000008152600401610aec90611a62565b60405180910390fd5b600554600654600754925092509250909192565b600b60019054906101000a900473ffffffffffffffffffffffffffffffffffffffff1673ffffffffffffffffffffffffffffffffffffffff16610b4a611089565b73ffffffffffffffffffffffffffffffffffffffff1614610ba0576040517f08c379a0000000000000000000000000000000000000000000000000000000008152600401610b9790611a62565b60405180910390fd5b60001515600b60009054906101000a900460ff16151514610bf6576040517f08c379a0000000000000000000000000000000000000000000000000000000008152600401610bed90611a42565b60405180910390fd5b6001600b60006101000a81548160ff021916908315150217905550565b600b60019054906101000a900473ffffffffffffffffffffffffffffffffffffffff1681565b60006060600b60019054906101000a900473ffffffffffffffffffffffffffffffffffffffff1673ffffffffffffffffffffffffffffffffffffffff16610c7e611089565b73ffffffffffffffffffffffffffffffffffffffff1614610cd4576040517f08c379a0000000000000000000000000000000000000000000000000000000008152600401610ccb90611a62565b60405180910390fd5b60001515600b60009054906101000a900460ff16151514610d2a576040517f08c379a0000000000000000000000000000000000000000000000000000000008152600401610d2190611a82565b60405180910390fd5b606460035410610d6f576040517f08c379a0000000000000000000000000000000000000000000000000000000008152600401610d6690611aa2565b60405180910390fd5b6000610d79611091565b9050600081148015610d8d5750600f600554105b15610dfb576040518060400160405280600881526020017f506c6174696e756d00000000000000000000000000000000000000000000000081525060029080519060200190610ddd929190611541565b5060056000815480929190610df190611d61565b9190505550610efc565b60018111158015610e0e57506023600654105b15610e7c576040518060400160405280600481526020017f476f6c640000000000000000000000000000000000000000000000000000000081525060029080519060200190610e5e929190611541565b5060066000815480929190610e7290611d61565b9190505550610efb565b60028111158015610e905750603260075411155b15610efa576040518060400160405280600681526020017f53696c766572000000000000000000000000000000000000000000000000000081525060029080519060200190610ee0929190611541565b5060076000815480929190610ef490611d61565b91905055505b5b5b610f94848260045460028054610f1190611cfe565b80601f0160208091040260200160405190810160405280929190818152602001828054610f3d90611cfe565b8015610f8a5780601f10610f5f57610100808354040283529160200191610f8a565b820191906000526020600020905b815481529060010190602001808311610f6d57829003601f168201915b50505050506110d5565b60036000815480929190610fa790611d61565b919050555080600860008673ffffffffffffffffffffffffffffffffffffffff1673ffffffffffffffffffffffffffffffffffffffff16815260200190815260200160002081905550806002808054610fff90611cfe565b80601f016020809104026020016040519081016040528092919081815260200182805461102b90611cfe565b80156110785780601f1061104d57610100808354040283529160200191611078565b820191906000526020600020905b81548152906001019060200180831161105b57829003601f168201915b505050505090509250925050915091565b600033905090565b600080600342336040516020016110a99291906118e4565b6040516020818303038152906040528051906020012060001c6110cc9190611dd8565b90508091505090565b600073ffffffffffffffffffffffffffffffffffffffff168473ffffffffffffffffffffffffffffffffffffffff161415611145576040517f08c379a000000000000000000000000000000000000000000000000000000000815260040161113c90611ae2565b60405180910390fd5b600061114f611089565b905061117081600087611161886112c5565b61116a886112c5565b8761133f565b8260008086815260200190815260200160002060008773ffffffffffffffffffffffffffffffffffffffff1673ffffffffffffffffffffffffffffffffffffffff16815260200190815260200160002060008282546111cf9190611bef565b925050819055508473ffffffffffffffffffffffffffffffffffffffff16600073ffffffffffffffffffffffffffffffffffffffff168273ffffffffffffffffffffffffffffffffffffffff167fc3d58168c5ae7397731d063d5bbf3d657854427343f4c083240f7aacaa2d0f62878760405161124d929190611b4d565b60405180910390a461126481600087878787611347565b5050505050565b80600a60008473ffffffffffffffffffffffffffffffffffffffff1673ffffffffffffffffffffffffffffffffffffffff16815260200190815260200160002060008282546112ba9190611bef565b925050819055505050565b60606000600167ffffffffffffffff8111156112e4576112e3611ec5565b5b6040519080825280602002602001820160405280156113125781602001602082028036833780820191505090505b509050828160008151811061132a57611329611e96565b5b60200260200101818152505080915050919050565b505050505050565b6113668473ffffffffffffffffffffffffffffffffffffffff1661152e565b15611526578373ffffffffffffffffffffffffffffffffffffffff1663f23a6e6187878686866040518663ffffffff1660e01b81526004016113ac95949392919061192b565b602060405180830381600087803b1580156113c657600080fd5b505af19250505080156113f757506040513d601f19601f820116820180604052508101906113f4919061167d565b60015b61149d57611403611ef4565b806308c379a014156114605750611418612152565b806114235750611462565b806040517f08c379a000000000000000000000000000000000000000000000000000000000815260040161145791906119a0565b60405180910390fd5b505b6040517f08c379a0000000000000000000000000000000000000000000000000000000008152600401611494906119c2565b60405180910390fd5b63f23a6e6160e01b7bffffffffffffffffffffffffffffffffffffffffffffffffffffffff1916817bffffffffffffffffffffffffffffffffffffffffffffffffffffffff191614611524576040517f08c379a000000000000000000000000000000000000000000000000000000000815260040161151b906119e2565b60405180910390fd5b505b505050505050565b600080823b905060008111915050919050565b82805461154d90611cfe565b90600052602060002090601f01602090048101928261156f57600085556115b6565b82601f1061158857805160ff19168380011785556115b6565b828001600101855582156115b6579182015b828111156115b557825182559160200191906001019061159a565b5b5090506115c391906115c7565b5090565b5b808211156115e05760008160009055506001016115c8565b5090565b6000813590506115f3816121e8565b92915050565b600081359050611608816121ff565b92915050565b60008151905061161d81612216565b92915050565b60006020828403121561163957611638611f16565b5b6000611647848285016115e4565b91505092915050565b60006020828403121561166657611665611f16565b5b6000611674848285016115f9565b91505092915050565b60006020828403121561169357611692611f16565b5b60006116a18482850161160e565b91505092915050565b6116b381611c57565b82525050565b6116c281611c45565b82525050565b6116d96116d482611c45565b611daa565b82525050565b6116e881611c69565b82525050565b60006116f982611bb7565b6117038185611bcd565b9350611713818560208601611ccb565b61171c81611f1b565b840191505092915050565b600061173282611bc2565b61173c8185611bde565b935061174c818560208601611ccb565b61175581611f1b565b840191505092915050565b600061176d603483611bde565b915061177882611f46565b604082019050919050565b6000611790602883611bde565b915061179b82611f95565b604082019050919050565b60006117b3601283611bde565b91506117be82611fe4565b602082019050919050565b60006117d6601b83611bde565b91506117e18261200d565b602082019050919050565b60006117f9601b83611bde565b915061180482612036565b602082019050919050565b600061181c601c83611bde565b91506118278261205f565b602082019050919050565b600061183f601b83611bde565b915061184a82612088565b602082019050919050565b6000611862601983611bde565b915061186d826120b1565b602082019050919050565b6000611885601d83611bde565b9150611890826120da565b602082019050919050565b60006118a8602183611bde565b91506118b382612103565b604082019050919050565b6118c781611cc1565b82525050565b6118de6118d982611cc1565b611dce565b82525050565b60006118f082856118cd565b60208201915061190082846116c8565b6014820191508190509392505050565b600060208201905061192560008301846116aa565b92915050565b600060a08201905061194060008301886116b9565b61194d60208301876116b9565b61195a60408301866118be565b61196760608301856118be565b818103608083015261197981846116ee565b90509695505050505050565b600060208201905061199a60008301846116df565b92915050565b600060208201905081810360008301526119ba8184611727565b905092915050565b600060208201905081810360008301526119db81611760565b9050919050565b600060208201905081810360008301526119fb81611783565b9050919050565b60006020820190508181036000830152611a1b816117a6565b9050919050565b60006020820190508181036000830152611a3b816117c9565b9050919050565b60006020820190508181036000830152611a5b816117ec565b9050919050565b60006020820190508181036000830152611a7b8161180f565b9050919050565b60006020820190508181036000830152611a9b81611832565b9050919050565b60006020820190508181036000830152611abb81611855565b9050919050565b60006020820190508181036000830152611adb81611878565b9050919050565b60006020820190508181036000830152611afb8161189b565b9050919050565b6000602082019050611b1760008301846118be565b92915050565b6000604082019050611b3260008301856118be565b8181036020830152611b448184611727565b90509392505050565b6000604082019050611b6260008301856118be565b611b6f60208301846118be565b9392505050565b6000606082019050611b8b60008301866118be565b611b9860208301856118be565b611ba560408301846118be565b949350505050565b6000604051905090565b600081519050919050565b600081519050919050565b600082825260208201905092915050565b600082825260208201905092915050565b6000611bfa82611cc1565b9150611c0583611cc1565b9250827fffffffffffffffffffffffffffffffffffffffffffffffffffffffffffffffff03821115611c3a57611c39611e09565b5b828201905092915050565b6000611c5082611ca1565b9050919050565b6000611c6282611ca1565b9050919050565b60008115159050919050565b60007fffffffff0000000000000000000000000000000000000000000000000000000082169050919050565b600073ffffffffffffffffffffffffffffffffffffffff82169050919050565b6000819050919050565b60005b83811015611ce9578082015181840152602081019050611cce565b83811115611cf8576000848401525b50505050565b60006002820490506001821680611d1657607f821691505b60208210811415611d2a57611d29611e67565b5b50919050565b611d3982611f1b565b810181811067ffffffffffffffff82111715611d5857611d57611ec5565b5b80604052505050565b6000611d6c82611cc1565b91507fffffffffffffffffffffffffffffffffffffffffffffffffffffffffffffffff821415611d9f57611d9e611e09565b5b600182019050919050565b6000611db582611dbc565b9050919050565b6000611dc782611f2c565b9050919050565b6000819050919050565b6000611de382611cc1565b9150611dee83611cc1565b925082611dfe57611dfd611e38565b5b828206905092915050565b7f4e487b7100000000000000000000000000000000000000000000000000000000600052601160045260246000fd5b7f4e487b7100000000000000000000000000000000000000000000000000000000600052601260045260246000fd5b7f4e487b7100000000000000000000000000000000000000000000000000000000600052602260045260246000fd5b7f4e487b7100000000000000000000000000000000000000000000000000000000600052603260045260246000fd5b7f4e487b7100000000000000000000000000000000000000000000000000000000600052604160045260246000fd5b600060033d1115611f135760046000803e611f10600051611f39565b90505b90565b600080fd5b6000601f19601f8301169050919050565b60008160601b9050919050565b60008160e01c9050919050565b7f455243313135353a207472616e7366657220746f206e6f6e204552433131353560008201527f526563656976657220696d706c656d656e746572000000000000000000000000602082015250565b7f455243313135353a204552433131353552656365697665722072656a6563746560008201527f6420746f6b656e73000000000000000000000000000000000000000000000000602082015250565b7f4e6f7420456e6f7567682042616c616e63650000000000000000000000000000600082015250565b7f44726f707369746520697320616c72656164792052756e6e696e670000000000600082015250565b7f44726f707369746520697320616c72656164792053746f707065640000000000600082015250565b7f4f6e6c79204e46542d4553204f776e65722063616e2041636365737300000000600082015250565b7f44726f7073697465206973206e6f74204f70656e6564205965742e0000000000600082015250565b7f4d6178204d696e74696e67204c696d6974207265616368656400000000000000600082015250565b7f4572726f7221204e6f2042616c616e636520746f207769746864726177000000600082015250565b7f455243313135353a206d696e7420746f20746865207a65726f2061646472657360008201527f7300000000000000000000000000000000000000000000000000000000000000602082015250565b600060443d1015612162576121e5565b61216a611bad565b60043d036004823e80513d602482011167ffffffffffffffff821117156121925750506121e5565b808201805167ffffffffffffffff8111156121b057505050506121e5565b80602083010160043d0385018111156121cd5750505050506121e5565b6121dc82602001850186611d30565b82955050505050505b90565b6121f181611c45565b81146121fc57600080fd5b50565b61220881611c57565b811461221357600080fd5b50565b61221f81611c75565b811461222a57600080fd5b5056fea2646970667358221220492aa64c076b947f9587619a39972213ffd58ad1667e6e027b4c2499d36f5c6464736f6c63430008070033",
					"opcodes": "PUSH1 0x80 PUSH1 0x40 MSTORE PUSH1 0x40 MLOAD DUP1 PUSH1 0x20 ADD PUSH1 0x40 MSTORE DUP1 PUSH1 0x0 DUP2 MSTORE POP PUSH1 0x2 SWAP1 DUP1 MLOAD SWAP1 PUSH1 0x20 ADD SWAP1 PUSH3 0x2B SWAP3 SWAP2 SWAP1 PUSH3 0x103 JUMP JUMPDEST POP PUSH1 0x1 PUSH1 0xB PUSH1 0x0 PUSH2 0x100 EXP DUP2 SLOAD DUP2 PUSH1 0xFF MUL NOT AND SWAP1 DUP4 ISZERO ISZERO MUL OR SWAP1 SSTORE POP CALLVALUE DUP1 ISZERO PUSH3 0x54 JUMPI PUSH1 0x0 DUP1 REVERT JUMPDEST POP PUSH1 0x40 MLOAD PUSH3 0x270A CODESIZE SUB DUP1 PUSH3 0x270A DUP4 CODECOPY DUP2 DUP2 ADD PUSH1 0x40 MSTORE DUP2 ADD SWAP1 PUSH3 0x7A SWAP2 SWAP1 PUSH3 0x2C2 JUMP JUMPDEST DUP1 PUSH1 0xC SWAP1 DUP1 MLOAD SWAP1 PUSH1 0x20 ADD SWAP1 PUSH3 0x92 SWAP3 SWAP2 SWAP1 PUSH3 0x194 JUMP JUMPDEST POP CALLER PUSH1 0xB PUSH1 0x1 PUSH2 0x100 EXP DUP2 SLOAD DUP2 PUSH20 0xFFFFFFFFFFFFFFFFFFFFFFFFFFFFFFFFFFFFFFFF MUL NOT AND SWAP1 DUP4 PUSH20 0xFFFFFFFFFFFFFFFFFFFFFFFFFFFFFFFFFFFFFFFF AND MUL OR SWAP1 SSTORE POP PUSH1 0x0 PUSH1 0x3 DUP2 SWAP1 SSTORE POP PUSH1 0x1 PUSH1 0x4 DUP2 SWAP1 SSTORE POP PUSH1 0x0 PUSH1 0x5 DUP2 SWAP1 SSTORE POP PUSH1 0x0 PUSH1 0x6 DUP2 SWAP1 SSTORE POP PUSH1 0x0 PUSH1 0x7 DUP2 SWAP1 SSTORE POP POP PUSH3 0x497 JUMP JUMPDEST DUP3 DUP1 SLOAD PUSH3 0x111 SWAP1 PUSH3 0x3A8 JUMP JUMPDEST SWAP1 PUSH1 0x0 MSTORE PUSH1 0x20 PUSH1 0x0 KECCAK256 SWAP1 PUSH1 0x1F ADD PUSH1 0x20 SWAP1 DIV DUP2 ADD SWAP3 DUP3 PUSH3 0x135 JUMPI PUSH1 0x0 DUP6 SSTORE PUSH3 0x181 JUMP JUMPDEST DUP3 PUSH1 0x1F LT PUSH3 0x150 JUMPI DUP1 MLOAD PUSH1 0xFF NOT AND DUP4 DUP1 ADD OR DUP6 SSTORE PUSH3 0x181 JUMP JUMPDEST DUP3 DUP1 ADD PUSH1 0x1 ADD DUP6 SSTORE DUP3 ISZERO PUSH3 0x181 JUMPI SWAP2 DUP3 ADD JUMPDEST DUP3 DUP2 GT ISZERO PUSH3 0x180 JUMPI DUP3 MLOAD DUP3 SSTORE SWAP2 PUSH1 0x20 ADD SWAP2 SWAP1 PUSH1 0x1 ADD SWAP1 PUSH3 0x163 JUMP JUMPDEST JUMPDEST POP SWAP1 POP PUSH3 0x190 SWAP2 SWAP1 PUSH3 0x225 JUMP JUMPDEST POP SWAP1 JUMP JUMPDEST DUP3 DUP1 SLOAD PUSH3 0x1A2 SWAP1 PUSH3 0x3A8 JUMP JUMPDEST SWAP1 PUSH1 0x0 MSTORE PUSH1 0x20 PUSH1 0x0 KECCAK256 SWAP1 PUSH1 0x1F ADD PUSH1 0x20 SWAP1 DIV DUP2 ADD SWAP3 DUP3 PUSH3 0x1C6 JUMPI PUSH1 0x0 DUP6 SSTORE PUSH3 0x212 JUMP JUMPDEST DUP3 PUSH1 0x1F LT PUSH3 0x1E1 JUMPI DUP1 MLOAD PUSH1 0xFF NOT AND DUP4 DUP1 ADD OR DUP6 SSTORE PUSH3 0x212 JUMP JUMPDEST DUP3 DUP1 ADD PUSH1 0x1 ADD DUP6 SSTORE DUP3 ISZERO PUSH3 0x212 JUMPI SWAP2 DUP3 ADD JUMPDEST DUP3 DUP2 GT ISZERO PUSH3 0x211 JUMPI DUP3 MLOAD DUP3 SSTORE SWAP2 PUSH1 0x20 ADD SWAP2 SWAP1 PUSH1 0x1 ADD SWAP1 PUSH3 0x1F4 JUMP JUMPDEST JUMPDEST POP SWAP1 POP PUSH3 0x221 SWAP2 SWAP1 PUSH3 0x225 JUMP JUMPDEST POP SWAP1 JUMP JUMPDEST JUMPDEST DUP1 DUP3 GT ISZERO PUSH3 0x240 JUMPI PUSH1 0x0 DUP2 PUSH1 0x0 SWAP1 SSTORE POP PUSH1 0x1 ADD PUSH3 0x226 JUMP JUMPDEST POP SWAP1 JUMP JUMPDEST PUSH1 0x0 PUSH3 0x25B PUSH3 0x255 DUP5 PUSH3 0x33C JUMP JUMPDEST PUSH3 0x313 JUMP JUMPDEST SWAP1 POP DUP3 DUP2 MSTORE PUSH1 0x20 DUP2 ADD DUP5 DUP5 DUP5 ADD GT ISZERO PUSH3 0x27A JUMPI PUSH3 0x279 PUSH3 0x477 JUMP JUMPDEST JUMPDEST PUSH3 0x287 DUP5 DUP3 DUP6 PUSH3 0x372 JUMP JUMPDEST POP SWAP4 SWAP3 POP POP POP JUMP JUMPDEST PUSH1 0x0 DUP3 PUSH1 0x1F DUP4 ADD SLT PUSH3 0x2A7 JUMPI PUSH3 0x2A6 PUSH3 0x472 JUMP JUMPDEST JUMPDEST DUP2 MLOAD PUSH3 0x2B9 DUP5 DUP3 PUSH1 0x20 DUP7 ADD PUSH3 0x244 JUMP JUMPDEST SWAP2 POP POP SWAP3 SWAP2 POP POP JUMP JUMPDEST PUSH1 0x0 PUSH1 0x20 DUP3 DUP5 SUB SLT ISZERO PUSH3 0x2DB JUMPI PUSH3 0x2DA PUSH3 0x481 JUMP JUMPDEST JUMPDEST PUSH1 0x0 DUP3 ADD MLOAD PUSH8 0xFFFFFFFFFFFFFFFF DUP2 GT ISZERO PUSH3 0x2FC JUMPI PUSH3 0x2FB PUSH3 0x47C JUMP JUMPDEST JUMPDEST PUSH3 0x30A DUP5 DUP3 DUP6 ADD PUSH3 0x28F JUMP JUMPDEST SWAP2 POP POP SWAP3 SWAP2 POP POP JUMP JUMPDEST PUSH1 0x0 PUSH3 0x31F PUSH3 0x332 JUMP JUMPDEST SWAP1 POP PUSH3 0x32D DUP3 DUP3 PUSH3 0x3DE JUMP JUMPDEST SWAP2 SWAP1 POP JUMP JUMPDEST PUSH1 0x0 PUSH1 0x40 MLOAD SWAP1 POP SWAP1 JUMP JUMPDEST PUSH1 0x0 PUSH8 0xFFFFFFFFFFFFFFFF DUP3 GT ISZERO PUSH3 0x35A JUMPI PUSH3 0x359 PUSH3 0x443 JUMP JUMPDEST JUMPDEST PUSH3 0x365 DUP3 PUSH3 0x486 JUMP JUMPDEST SWAP1 POP PUSH1 0x20 DUP2 ADD SWAP1 POP SWAP2 SWAP1 POP JUMP JUMPDEST PUSH1 0x0 JUMPDEST DUP4 DUP2 LT ISZERO PUSH3 0x392 JUMPI DUP1 DUP3 ADD MLOAD DUP2 DUP5 ADD MSTORE PUSH1 0x20 DUP2 ADD SWAP1 POP PUSH3 0x375 JUMP JUMPDEST DUP4 DUP2 GT ISZERO PUSH3 0x3A2 JUMPI PUSH1 0x0 DUP5 DUP5 ADD MSTORE JUMPDEST POP POP POP POP JUMP JUMPDEST PUSH1 0x0 PUSH1 0x2 DUP3 DIV SWAP1 POP PUSH1 0x1 DUP3 AND DUP1 PUSH3 0x3C1 JUMPI PUSH1 0x7F DUP3 AND SWAP2 POP JUMPDEST PUSH1 0x20 DUP3 LT DUP2 EQ ISZERO PUSH3 0x3D8 JUMPI PUSH3 0x3D7 PUSH3 0x414 JUMP JUMPDEST JUMPDEST POP SWAP2 SWAP1 POP JUMP JUMPDEST PUSH3 0x3E9 DUP3 PUSH3 0x486 JUMP JUMPDEST DUP2 ADD DUP2 DUP2 LT PUSH8 0xFFFFFFFFFFFFFFFF DUP3 GT OR ISZERO PUSH3 0x40B JUMPI PUSH3 0x40A PUSH3 0x443 JUMP JUMPDEST JUMPDEST DUP1 PUSH1 0x40 MSTORE POP POP POP JUMP JUMPDEST PUSH32 0x4E487B7100000000000000000000000000000000000000000000000000000000 PUSH1 0x0 MSTORE PUSH1 0x22 PUSH1 0x4 MSTORE PUSH1 0x24 PUSH1 0x0 REVERT JUMPDEST PUSH32 0x4E487B7100000000000000000000000000000000000000000000000000000000 PUSH1 0x0 MSTORE PUSH1 0x41 PUSH1 0x4 MSTORE PUSH1 0x24 PUSH1 0x0 REVERT JUMPDEST PUSH1 0x0 DUP1 REVERT JUMPDEST PUSH1 0x0 DUP1 REVERT JUMPDEST PUSH1 0x0 DUP1 REVERT JUMPDEST PUSH1 0x0 DUP1 REVERT JUMPDEST PUSH1 0x0 PUSH1 0x1F NOT PUSH1 0x1F DUP4 ADD AND SWAP1 POP SWAP2 SWAP1 POP JUMP JUMPDEST PUSH2 0x2263 DUP1 PUSH3 0x4A7 PUSH1 0x0 CODECOPY PUSH1 0x0 RETURN INVALID PUSH1 0x80 PUSH1 0x40 MSTORE PUSH1 0x4 CALLDATASIZE LT PUSH2 0x91 JUMPI PUSH1 0x0 CALLDATALOAD PUSH1 0xE0 SHR DUP1 PUSH4 0x3D65DF70 GT PUSH2 0x59 JUMPI DUP1 PUSH4 0x3D65DF70 EQ PUSH2 0x14A JUMPI DUP1 PUSH4 0x60DAA851 EQ PUSH2 0x17B JUMPI DUP1 PUSH4 0xAA90C726 EQ PUSH2 0x1A8 JUMPI DUP1 PUSH4 0xB4A99A4E EQ PUSH2 0x1BF JUMPI DUP1 PUSH4 0xFD93D41C EQ PUSH2 0x1EA JUMPI PUSH2 0x91 JUMP JUMPDEST DUP1 PUSH4 0x390C11C EQ PUSH2 0x96 JUMPI DUP1 PUSH4 0xA67D2C7 EQ PUSH2 0xC1 JUMPI DUP1 PUSH4 0x1309A563 EQ PUSH2 0xDD JUMPI DUP1 PUSH4 0x15460259 EQ PUSH2 0x108 JUMPI DUP1 PUSH4 0x3B668059 EQ PUSH2 0x11F JUMPI JUMPDEST PUSH1 0x0 DUP1 REVERT JUMPDEST CALLVALUE DUP1 ISZERO PUSH2 0xA2 JUMPI PUSH1 0x0 DUP1 REVERT JUMPDEST POP PUSH2 0xAB PUSH2 0x228 JUMP JUMPDEST PUSH1 0x40 MLOAD PUSH2 0xB8 SWAP2 SWAP1 PUSH2 0x1B02 JUMP JUMPDEST PUSH1 0x40 MLOAD DUP1 SWAP2 SUB SWAP1 RETURN JUMPDEST PUSH2 0xDB PUSH1 0x4 DUP1 CALLDATASIZE SUB DUP2 ADD SWAP1 PUSH2 0xD6 SWAP2 SWAP1 PUSH2 0x1650 JUMP JUMPDEST PUSH2 0x2C9 JUMP JUMPDEST STOP JUMPDEST CALLVALUE DUP1 ISZERO PUSH2 0xE9 JUMPI PUSH1 0x0 DUP1 REVERT JUMPDEST POP PUSH2 0xF2 PUSH2 0x3F3 JUMP JUMPDEST PUSH1 0x40 MLOAD PUSH2 0xFF SWAP2 SWAP1 PUSH2 0x1985 JUMP JUMPDEST PUSH1 0x40 MLOAD DUP1 SWAP2 SUB SWAP1 RETURN JUMPDEST CALLVALUE DUP1 ISZERO PUSH2 0x114 JUMPI PUSH1 0x0 DUP1 REVERT JUMPDEST POP PUSH2 0x11D PUSH2 0x406 JUMP JUMPDEST STOP JUMPDEST CALLVALUE DUP1 ISZERO PUSH2 0x12B JUMPI PUSH1 0x0 DUP1 REVERT JUMPDEST POP PUSH2 0x134 PUSH2 0x510 JUMP JUMPDEST PUSH1 0x40 MLOAD PUSH2 0x141 SWAP2 SWAP1 PUSH2 0x1B02 JUMP JUMPDEST PUSH1 0x40 MLOAD DUP1 SWAP2 SUB SWAP1 RETURN JUMPDEST PUSH2 0x164 PUSH1 0x4 DUP1 CALLDATASIZE SUB DUP2 ADD SWAP1 PUSH2 0x15F SWAP2 SWAP1 PUSH2 0x1623 JUMP JUMPDEST PUSH2 0x5AF JUMP JUMPDEST PUSH1 0x40 MLOAD PUSH2 0x172 SWAP3 SWAP2 SWAP1 PUSH2 0x1B1D JUMP JUMPDEST PUSH1 0x40 MLOAD DUP1 SWAP2 SUB SWAP1 RETURN JUMPDEST CALLVALUE DUP1 ISZERO PUSH2 0x187 JUMPI PUSH1 0x0 DUP1 REVERT JUMPDEST POP PUSH2 0x190 PUSH2 0xA59 JUMP JUMPDEST PUSH1 0x40 MLOAD PUSH2 0x19F SWAP4 SWAP3 SWAP2 SWAP1 PUSH2 0x1B76 JUMP JUMPDEST PUSH1 0x40 MLOAD DUP1 SWAP2 SUB SWAP1 RETURN JUMPDEST CALLVALUE DUP1 ISZERO PUSH2 0x1B4 JUMPI PUSH1 0x0 DUP1 REVERT JUMPDEST POP PUSH2 0x1BD PUSH2 0xB09 JUMP JUMPDEST STOP JUMPDEST CALLVALUE DUP1 ISZERO PUSH2 0x1CB JUMPI PUSH1 0x0 DUP1 REVERT JUMPDEST POP PUSH2 0x1D4 PUSH2 0xC13 JUMP JUMPDEST PUSH1 0x40 MLOAD PUSH2 0x1E1 SWAP2 SWAP1 PUSH2 0x1910 JUMP JUMPDEST PUSH1 0x40 MLOAD DUP1 SWAP2 SUB SWAP1 RETURN JUMPDEST CALLVALUE DUP1 ISZERO PUSH2 0x1F6 JUMPI PUSH1 0x0 DUP1 REVERT JUMPDEST POP PUSH2 0x211 PUSH1 0x4 DUP1 CALLDATASIZE SUB DUP2 ADD SWAP1 PUSH2 0x20C SWAP2 SWAP1 PUSH2 0x1623 JUMP JUMPDEST PUSH2 0xC39 JUMP JUMPDEST PUSH1 0x40 MLOAD PUSH2 0x21F SWAP3 SWAP2 SWAP1 PUSH2 0x1B1D JUMP JUMPDEST PUSH1 0x40 MLOAD DUP1 SWAP2 SUB SWAP1 RETURN JUMPDEST PUSH1 0x0 PUSH1 0xB PUSH1 0x1 SWAP1 SLOAD SWAP1 PUSH2 0x100 EXP SWAP1 DIV PUSH20 0xFFFFFFFFFFFFFFFFFFFFFFFFFFFFFFFFFFFFFFFF AND PUSH20 0xFFFFFFFFFFFFFFFFFFFFFFFFFFFFFFFFFFFFFFFF AND PUSH2 0x26B PUSH2 0x1089 JUMP JUMPDEST PUSH20 0xFFFFFFFFFFFFFFFFFFFFFFFFFFFFFFFFFFFFFFFF AND EQ PUSH2 0x2C1 JUMPI PUSH1 0x40 MLOAD PUSH32 0x8C379A000000000000000000000000000000000000000000000000000000000 DUP2 MSTORE PUSH1 0x4 ADD PUSH2 0x2B8 SWAP1 PUSH2 0x1A62 JUMP JUMPDEST PUSH1 0x40 MLOAD DUP1 SWAP2 SUB SWAP1 REVERT JUMPDEST PUSH1 0x3 SLOAD SWAP1 POP SWAP1 JUMP JUMPDEST PUSH1 0xB PUSH1 0x1 SWAP1 SLOAD SWAP1 PUSH2 0x100 EXP SWAP1 DIV PUSH20 0xFFFFFFFFFFFFFFFFFFFFFFFFFFFFFFFFFFFFFFFF AND PUSH20 0xFFFFFFFFFFFFFFFFFFFFFFFFFFFFFFFFFFFFFFFF AND PUSH2 0x30A PUSH2 0x1089 JUMP JUMPDEST PUSH20 0xFFFFFFFFFFFFFFFFFFFFFFFFFFFFFFFFFFFFFFFF AND EQ PUSH2 0x360 JUMPI PUSH1 0x40 MLOAD PUSH32 0x8C379A000000000000000000000000000000000000000000000000000000000 DUP2 MSTORE PUSH1 0x4 ADD PUSH2 0x357 SWAP1 PUSH2 0x1A62 JUMP JUMPDEST PUSH1 0x40 MLOAD DUP1 SWAP2 SUB SWAP1 REVERT JUMPDEST PUSH1 0x0 SELFBALANCE SWAP1 POP PUSH1 0x0 DUP2 GT PUSH2 0x3A8 JUMPI PUSH1 0x40 MLOAD PUSH32 0x8C379A000000000000000000000000000000000000000000000000000000000 DUP2 MSTORE PUSH1 0x4 ADD PUSH2 0x39F SWAP1 PUSH2 0x1AC2 JUMP JUMPDEST PUSH1 0x40 MLOAD DUP1 SWAP2 SUB SWAP1 REVERT JUMPDEST DUP2 PUSH20 0xFFFFFFFFFFFFFFFFFFFFFFFFFFFFFFFFFFFFFFFF AND PUSH2 0x8FC DUP3 SWAP1 DUP2 ISZERO MUL SWAP1 PUSH1 0x40 MLOAD PUSH1 0x0 PUSH1 0x40 MLOAD DUP1 DUP4 SUB DUP2 DUP6 DUP9 DUP9 CALL SWAP4 POP POP POP POP ISZERO DUP1 ISZERO PUSH2 0x3EE JUMPI RETURNDATASIZE PUSH1 0x0 DUP1 RETURNDATACOPY RETURNDATASIZE PUSH1 0x0 REVERT JUMPDEST POP POP POP JUMP JUMPDEST PUSH1 0xB PUSH1 0x0 SWAP1 SLOAD SWAP1 PUSH2 0x100 EXP SWAP1 DIV PUSH1 0xFF AND DUP2 JUMP JUMPDEST PUSH1 0xB PUSH1 0x1 SWAP1 SLOAD SWAP1 PUSH2 0x100 EXP SWAP1 DIV PUSH20 0xFFFFFFFFFFFFFFFFFFFFFFFFFFFFFFFFFFFFFFFF AND PUSH20 0xFFFFFFFFFFFFFFFFFFFFFFFFFFFFFFFFFFFFFFFF AND PUSH2 0x447 PUSH2 0x1089 JUMP JUMPDEST PUSH20 0xFFFFFFFFFFFFFFFFFFFFFFFFFFFFFFFFFFFFFFFF AND EQ PUSH2 0x49D JUMPI PUSH1 0x40 MLOAD PUSH32 0x8C379A000000000000000000000000000000000000000000000000000000000 DUP2 MSTORE PUSH1 0x4 ADD PUSH2 0x494 SWAP1 PUSH2 0x1A62 JUMP JUMPDEST PUSH1 0x40 MLOAD DUP1 SWAP2 SUB SWAP1 REVERT JUMPDEST PUSH1 0x1 ISZERO ISZERO PUSH1 0xB PUSH1 0x0 SWAP1 SLOAD SWAP1 PUSH2 0x100 EXP SWAP1 DIV PUSH1 0xFF AND ISZERO ISZERO EQ PUSH2 0x4F3 JUMPI PUSH1 0x40 MLOAD PUSH32 0x8C379A000000000000000000000000000000000000000000000000000000000 DUP2 MSTORE PUSH1 0x4 ADD PUSH2 0x4EA SWAP1 PUSH2 0x1A22 JUMP JUMPDEST PUSH1 0x40 MLOAD DUP1 SWAP2 SUB SWAP1 REVERT JUMPDEST PUSH1 0x0 PUSH1 0xB PUSH1 0x0 PUSH2 0x100 EXP DUP2 SLOAD DUP2 PUSH1 0xFF MUL NOT AND SWAP1 DUP4 ISZERO ISZERO MUL OR SWAP1 SSTORE POP JUMP JUMPDEST PUSH1 0x0 PUSH1 0xB PUSH1 0x1 SWAP1 SLOAD SWAP1 PUSH2 0x100 EXP SWAP1 DIV PUSH20 0xFFFFFFFFFFFFFFFFFFFFFFFFFFFFFFFFFFFFFFFF AND PUSH20 0xFFFFFFFFFFFFFFFFFFFFFFFFFFFFFFFFFFFFFFFF AND PUSH2 0x553 PUSH2 0x1089 JUMP JUMPDEST PUSH20 0xFFFFFFFFFFFFFFFFFFFFFFFFFFFFFFFFFFFFFFFF AND EQ PUSH2 0x5A9 JUMPI PUSH1 0x40 MLOAD PUSH32 0x8C379A000000000000000000000000000000000000000000000000000000000 DUP2 MSTORE PUSH1 0x4 ADD PUSH2 0x5A0 SWAP1 PUSH2 0x1A62 JUMP JUMPDEST PUSH1 0x40 MLOAD DUP1 SWAP2 SUB SWAP1 REVERT JUMPDEST SELFBALANCE SWAP1 POP SWAP1 JUMP JUMPDEST PUSH1 0x0 PUSH1 0x60 PUSH1 0xB PUSH1 0x1 SWAP1 SLOAD SWAP1 PUSH2 0x100 EXP SWAP1 DIV PUSH20 0xFFFFFFFFFFFFFFFFFFFFFFFFFFFFFFFFFFFFFFFF AND PUSH20 0xFFFFFFFFFFFFFFFFFFFFFFFFFFFFFFFFFFFFFFFF AND PUSH2 0x5F4 PUSH2 0x1089 JUMP JUMPDEST PUSH20 0xFFFFFFFFFFFFFFFFFFFFFFFFFFFFFFFFFFFFFFFF AND EQ PUSH2 0x64A JUMPI PUSH1 0x40 MLOAD PUSH32 0x8C379A000000000000000000000000000000000000000000000000000000000 DUP2 MSTORE PUSH1 0x4 ADD PUSH2 0x641 SWAP1 PUSH2 0x1A62 JUMP JUMPDEST PUSH1 0x40 MLOAD DUP1 SWAP2 SUB SWAP1 REVERT JUMPDEST PUSH1 0x0 ISZERO ISZERO PUSH1 0xB PUSH1 0x0 SWAP1 SLOAD SWAP1 PUSH2 0x100 EXP SWAP1 DIV PUSH1 0xFF AND ISZERO ISZERO EQ PUSH2 0x6A0 JUMPI PUSH1 0x40 MLOAD PUSH32 0x8C379A000000000000000000000000000000000000000000000000000000000 DUP2 MSTORE PUSH1 0x4 ADD PUSH2 0x697 SWAP1 PUSH2 0x1A82 JUMP JUMPDEST PUSH1 0x40 MLOAD DUP1 SWAP2 SUB SWAP1 REVERT JUMPDEST PUSH1 0x64 PUSH1 0x3 SLOAD LT PUSH2 0x6E5 JUMPI PUSH1 0x40 MLOAD PUSH32 0x8C379A000000000000000000000000000000000000000000000000000000000 DUP2 MSTORE PUSH1 0x4 ADD PUSH2 0x6DC SWAP1 PUSH2 0x1AA2 JUMP JUMPDEST PUSH1 0x40 MLOAD DUP1 SWAP2 SUB SWAP1 REVERT JUMPDEST PUSH7 0x2E2F6E5E148000 CALLVALUE EQ PUSH2 0x72E JUMPI PUSH1 0x40 MLOAD PUSH32 0x8C379A000000000000000000000000000000000000000000000000000000000 DUP2 MSTORE PUSH1 0x4 ADD PUSH2 0x725 SWAP1 PUSH2 0x1A02 JUMP JUMPDEST PUSH1 0x40 MLOAD DUP1 SWAP2 SUB SWAP1 REVERT JUMPDEST PUSH1 0x0 PUSH2 0x738 PUSH2 0x1091 JUMP JUMPDEST SWAP1 POP PUSH1 0x0 DUP2 EQ DUP1 ISZERO PUSH2 0x74C JUMPI POP PUSH1 0xF PUSH1 0x5 SLOAD LT JUMPDEST ISZERO PUSH2 0x7BA JUMPI PUSH1 0x40 MLOAD DUP1 PUSH1 0x40 ADD PUSH1 0x40 MSTORE DUP1 PUSH1 0x8 DUP2 MSTORE PUSH1 0x20 ADD PUSH32 0x506C6174696E756D000000000000000000000000000000000000000000000000 DUP2 MSTORE POP PUSH1 0x2 SWAP1 DUP1 MLOAD SWAP1 PUSH1 0x20 ADD SWAP1 PUSH2 0x79C SWAP3 SWAP2 SWAP1 PUSH2 0x1541 JUMP JUMPDEST POP PUSH1 0x5 PUSH1 0x0 DUP2 SLOAD DUP1 SWAP3 SWAP2 SWAP1 PUSH2 0x7B0 SWAP1 PUSH2 0x1D61 JUMP JUMPDEST SWAP2 SWAP1 POP SSTORE POP PUSH2 0x8BB JUMP JUMPDEST PUSH1 0x1 DUP2 GT ISZERO DUP1 ISZERO PUSH2 0x7CD JUMPI POP PUSH1 0x23 PUSH1 0x6 SLOAD LT JUMPDEST ISZERO PUSH2 0x83B JUMPI PUSH1 0x40 MLOAD DUP1 PUSH1 0x40 ADD PUSH1 0x40 MSTORE DUP1 PUSH1 0x4 DUP2 MSTORE PUSH1 0x20 ADD PUSH32 0x476F6C6400000000000000000000000000000000000000000000000000000000 DUP2 MSTORE POP PUSH1 0x2 SWAP1 DUP1 MLOAD SWAP1 PUSH1 0x20 ADD SWAP1 PUSH2 0x81D SWAP3 SWAP2 SWAP1 PUSH2 0x1541 JUMP JUMPDEST POP PUSH1 0x6 PUSH1 0x0 DUP2 SLOAD DUP1 SWAP3 SWAP2 SWAP1 PUSH2 0x831 SWAP1 PUSH2 0x1D61 JUMP JUMPDEST SWAP2 SWAP1 POP SSTORE POP PUSH2 0x8BA JUMP JUMPDEST PUSH1 0x2 DUP2 GT ISZERO DUP1 ISZERO PUSH2 0x84F JUMPI POP PUSH1 0x32 PUSH1 0x7 SLOAD GT ISZERO JUMPDEST ISZERO PUSH2 0x8B9 JUMPI PUSH1 0x40 MLOAD DUP1 PUSH1 0x40 ADD PUSH1 0x40 MSTORE DUP1 PUSH1 0x6 DUP2 MSTORE PUSH1 0x20 ADD PUSH32 0x53696C7665720000000000000000000000000000000000000000000000000000 DUP2 MSTORE POP PUSH1 0x2 SWAP1 DUP1 MLOAD SWAP1 PUSH1 0x20 ADD SWAP1 PUSH2 0x89F SWAP3 SWAP2 SWAP1 PUSH2 0x1541 JUMP JUMPDEST POP PUSH1 0x7 PUSH1 0x0 DUP2 SLOAD DUP1 SWAP3 SWAP2 SWAP1 PUSH2 0x8B3 SWAP1 PUSH2 0x1D61 JUMP JUMPDEST SWAP2 SWAP1 POP SSTORE POP JUMPDEST JUMPDEST JUMPDEST PUSH2 0x953 DUP5 DUP3 PUSH1 0x4 SLOAD PUSH1 0x2 DUP1 SLOAD PUSH2 0x8D0 SWAP1 PUSH2 0x1CFE JUMP JUMPDEST DUP1 PUSH1 0x1F ADD PUSH1 0x20 DUP1 SWAP2 DIV MUL PUSH1 0x20 ADD PUSH1 0x40 MLOAD SWAP1 DUP2 ADD PUSH1 0x40 MSTORE DUP1 SWAP3 SWAP2 SWAP1 DUP2 DUP2 MSTORE PUSH1 0x20 ADD DUP3 DUP1 SLOAD PUSH2 0x8FC SWAP1 PUSH2 0x1CFE JUMP JUMPDEST DUP1 ISZERO PUSH2 0x949 JUMPI DUP1 PUSH1 0x1F LT PUSH2 0x91E JUMPI PUSH2 0x100 DUP1 DUP4 SLOAD DIV MUL DUP4 MSTORE SWAP2 PUSH1 0x20 ADD SWAP2 PUSH2 0x949 JUMP JUMPDEST DUP3 ADD SWAP2 SWAP1 PUSH1 0x0 MSTORE PUSH1 0x20 PUSH1 0x0 KECCAK256 SWAP1 JUMPDEST DUP2 SLOAD DUP2 MSTORE SWAP1 PUSH1 0x1 ADD SWAP1 PUSH1 0x20 ADD DUP1 DUP4 GT PUSH2 0x92C JUMPI DUP3 SWAP1 SUB PUSH1 0x1F AND DUP3 ADD SWAP2 JUMPDEST POP POP POP POP POP PUSH2 0x10D5 JUMP JUMPDEST PUSH2 0x964 PUSH2 0x95E PUSH2 0x1089 JUMP JUMPDEST CALLVALUE PUSH2 0x126B JUMP JUMPDEST PUSH1 0x3 PUSH1 0x0 DUP2 SLOAD DUP1 SWAP3 SWAP2 SWAP1 PUSH2 0x977 SWAP1 PUSH2 0x1D61 JUMP JUMPDEST SWAP2 SWAP1 POP SSTORE POP DUP1 PUSH1 0x8 PUSH1 0x0 DUP7 PUSH20 0xFFFFFFFFFFFFFFFFFFFFFFFFFFFFFFFFFFFFFFFF AND PUSH20 0xFFFFFFFFFFFFFFFFFFFFFFFFFFFFFFFFFFFFFFFF AND DUP2 MSTORE PUSH1 0x20 ADD SWAP1 DUP2 MSTORE PUSH1 0x20 ADD PUSH1 0x0 KECCAK256 DUP2 SWAP1 SSTORE POP DUP1 PUSH1 0x2 DUP1 DUP1 SLOAD PUSH2 0x9CF SWAP1 PUSH2 0x1CFE JUMP JUMPDEST DUP1 PUSH1 0x1F ADD PUSH1 0x20 DUP1 SWAP2 DIV MUL PUSH1 0x20 ADD PUSH1 0x40 MLOAD SWAP1 DUP2 ADD PUSH1 0x40 MSTORE DUP1 SWAP3 SWAP2 SWAP1 DUP2 DUP2 MSTORE PUSH1 0x20 ADD DUP3 DUP1 SLOAD PUSH2 0x9FB SWAP1 PUSH2 0x1CFE JUMP JUMPDEST DUP1 ISZERO PUSH2 0xA48 JUMPI DUP1 PUSH1 0x1F LT PUSH2 0xA1D JUMPI PUSH2 0x100 DUP1 DUP4 SLOAD DIV MUL DUP4 MSTORE SWAP2 PUSH1 0x20 ADD SWAP2 PUSH2 0xA48 JUMP JUMPDEST DUP3 ADD SWAP2 SWAP1 PUSH1 0x0 MSTORE PUSH1 0x20 PUSH1 0x0 KECCAK256 SWAP1 JUMPDEST DUP2 SLOAD DUP2 MSTORE SWAP1 PUSH1 0x1 ADD SWAP1 PUSH1 0x20 ADD DUP1 DUP4 GT PUSH2 0xA2B JUMPI DUP3 SWAP1 SUB PUSH1 0x1F AND DUP3 ADD SWAP2 JUMPDEST POP POP POP POP POP SWAP1 POP SWAP3 POP SWAP3 POP POP SWAP2 POP SWAP2 JUMP JUMPDEST PUSH1 0x0 DUP1 PUSH1 0x0 PUSH1 0xB PUSH1 0x1 SWAP1 SLOAD SWAP1 PUSH2 0x100 EXP SWAP1 DIV PUSH20 0xFFFFFFFFFFFFFFFFFFFFFFFFFFFFFFFFFFFFFFFF AND PUSH20 0xFFFFFFFFFFFFFFFFFFFFFFFFFFFFFFFFFFFFFFFF AND PUSH2 0xA9F PUSH2 0x1089 JUMP JUMPDEST PUSH20 0xFFFFFFFFFFFFFFFFFFFFFFFFFFFFFFFFFFFFFFFF AND EQ PUSH2 0xAF5 JUMPI PUSH1 0x40 MLOAD PUSH32 0x8C379A000000000000000000000000000000000000000000000000000000000 DUP2 MSTORE PUSH1 0x4 ADD PUSH2 0xAEC SWAP1 PUSH2 0x1A62 JUMP JUMPDEST PUSH1 0x40 MLOAD DUP1 SWAP2 SUB SWAP1 REVERT JUMPDEST PUSH1 0x5 SLOAD PUSH1 0x6 SLOAD PUSH1 0x7 SLOAD SWAP3 POP SWAP3 POP SWAP3 POP SWAP1 SWAP2 SWAP3 JUMP JUMPDEST PUSH1 0xB PUSH1 0x1 SWAP1 SLOAD SWAP1 PUSH2 0x100 EXP SWAP1 DIV PUSH20 0xFFFFFFFFFFFFFFFFFFFFFFFFFFFFFFFFFFFFFFFF AND PUSH20 0xFFFFFFFFFFFFFFFFFFFFFFFFFFFFFFFFFFFFFFFF AND PUSH2 0xB4A PUSH2 0x1089 JUMP JUMPDEST PUSH20 0xFFFFFFFFFFFFFFFFFFFFFFFFFFFFFFFFFFFFFFFF AND EQ PUSH2 0xBA0 JUMPI PUSH1 0x40 MLOAD PUSH32 0x8C379A000000000000000000000000000000000000000000000000000000000 DUP2 MSTORE PUSH1 0x4 ADD PUSH2 0xB97 SWAP1 PUSH2 0x1A62 JUMP JUMPDEST PUSH1 0x40 MLOAD DUP1 SWAP2 SUB SWAP1 REVERT JUMPDEST PUSH1 0x0 ISZERO ISZERO PUSH1 0xB PUSH1 0x0 SWAP1 SLOAD SWAP1 PUSH2 0x100 EXP SWAP1 DIV PUSH1 0xFF AND ISZERO ISZERO EQ PUSH2 0xBF6 JUMPI PUSH1 0x40 MLOAD PUSH32 0x8C379A000000000000000000000000000000000000000000000000000000000 DUP2 MSTORE PUSH1 0x4 ADD PUSH2 0xBED SWAP1 PUSH2 0x1A42 JUMP JUMPDEST PUSH1 0x40 MLOAD DUP1 SWAP2 SUB SWAP1 REVERT JUMPDEST PUSH1 0x1 PUSH1 0xB PUSH1 0x0 PUSH2 0x100 EXP DUP2 SLOAD DUP2 PUSH1 0xFF MUL NOT AND SWAP1 DUP4 ISZERO ISZERO MUL OR SWAP1 SSTORE POP JUMP JUMPDEST PUSH1 0xB PUSH1 0x1 SWAP1 SLOAD SWAP1 PUSH2 0x100 EXP SWAP1 DIV PUSH20 0xFFFFFFFFFFFFFFFFFFFFFFFFFFFFFFFFFFFFFFFF AND DUP2 JUMP JUMPDEST PUSH1 0x0 PUSH1 0x60 PUSH1 0xB PUSH1 0x1 SWAP1 SLOAD SWAP1 PUSH2 0x100 EXP SWAP1 DIV PUSH20 0xFFFFFFFFFFFFFFFFFFFFFFFFFFFFFFFFFFFFFFFF AND PUSH20 0xFFFFFFFFFFFFFFFFFFFFFFFFFFFFFFFFFFFFFFFF AND PUSH2 0xC7E PUSH2 0x1089 JUMP JUMPDEST PUSH20 0xFFFFFFFFFFFFFFFFFFFFFFFFFFFFFFFFFFFFFFFF AND EQ PUSH2 0xCD4 JUMPI PUSH1 0x40 MLOAD PUSH32 0x8C379A000000000000000000000000000000000000000000000000000000000 DUP2 MSTORE PUSH1 0x4 ADD PUSH2 0xCCB SWAP1 PUSH2 0x1A62 JUMP JUMPDEST PUSH1 0x40 MLOAD DUP1 SWAP2 SUB SWAP1 REVERT JUMPDEST PUSH1 0x0 ISZERO ISZERO PUSH1 0xB PUSH1 0x0 SWAP1 SLOAD SWAP1 PUSH2 0x100 EXP SWAP1 DIV PUSH1 0xFF AND ISZERO ISZERO EQ PUSH2 0xD2A JUMPI PUSH1 0x40 MLOAD PUSH32 0x8C379A000000000000000000000000000000000000000000000000000000000 DUP2 MSTORE PUSH1 0x4 ADD PUSH2 0xD21 SWAP1 PUSH2 0x1A82 JUMP JUMPDEST PUSH1 0x40 MLOAD DUP1 SWAP2 SUB SWAP1 REVERT JUMPDEST PUSH1 0x64 PUSH1 0x3 SLOAD LT PUSH2 0xD6F JUMPI PUSH1 0x40 MLOAD PUSH32 0x8C379A000000000000000000000000000000000000000000000000000000000 DUP2 MSTORE PUSH1 0x4 ADD PUSH2 0xD66 SWAP1 PUSH2 0x1AA2 JUMP JUMPDEST PUSH1 0x40 MLOAD DUP1 SWAP2 SUB SWAP1 REVERT JUMPDEST PUSH1 0x0 PUSH2 0xD79 PUSH2 0x1091 JUMP JUMPDEST SWAP1 POP PUSH1 0x0 DUP2 EQ DUP1 ISZERO PUSH2 0xD8D JUMPI POP PUSH1 0xF PUSH1 0x5 SLOAD LT JUMPDEST ISZERO PUSH2 0xDFB JUMPI PUSH1 0x40 MLOAD DUP1 PUSH1 0x40 ADD PUSH1 0x40 MSTORE DUP1 PUSH1 0x8 DUP2 MSTORE PUSH1 0x20 ADD PUSH32 0x506C6174696E756D000000000000000000000000000000000000000000000000 DUP2 MSTORE POP PUSH1 0x2 SWAP1 DUP1 MLOAD SWAP1 PUSH1 0x20 ADD SWAP1 PUSH2 0xDDD SWAP3 SWAP2 SWAP1 PUSH2 0x1541 JUMP JUMPDEST POP PUSH1 0x5 PUSH1 0x0 DUP2 SLOAD DUP1 SWAP3 SWAP2 SWAP1 PUSH2 0xDF1 SWAP1 PUSH2 0x1D61 JUMP JUMPDEST SWAP2 SWAP1 POP SSTORE POP PUSH2 0xEFC JUMP JUMPDEST PUSH1 0x1 DUP2 GT ISZERO DUP1 ISZERO PUSH2 0xE0E JUMPI POP PUSH1 0x23 PUSH1 0x6 SLOAD LT JUMPDEST ISZERO PUSH2 0xE7C JUMPI PUSH1 0x40 MLOAD DUP1 PUSH1 0x40 ADD PUSH1 0x40 MSTORE DUP1 PUSH1 0x4 DUP2 MSTORE PUSH1 0x20 ADD PUSH32 0x476F6C6400000000000000000000000000000000000000000000000000000000 DUP2 MSTORE POP PUSH1 0x2 SWAP1 DUP1 MLOAD SWAP1 PUSH1 0x20 ADD SWAP1 PUSH2 0xE5E SWAP3 SWAP2 SWAP1 PUSH2 0x1541 JUMP JUMPDEST POP PUSH1 0x6 PUSH1 0x0 DUP2 SLOAD DUP1 SWAP3 SWAP2 SWAP1 PUSH2 0xE72 SWAP1 PUSH2 0x1D61 JUMP JUMPDEST SWAP2 SWAP1 POP SSTORE POP PUSH2 0xEFB JUMP JUMPDEST PUSH1 0x2 DUP2 GT ISZERO DUP1 ISZERO PUSH2 0xE90 JUMPI POP PUSH1 0x32 PUSH1 0x7 SLOAD GT ISZERO JUMPDEST ISZERO PUSH2 0xEFA JUMPI PUSH1 0x40 MLOAD DUP1 PUSH1 0x40 ADD PUSH1 0x40 MSTORE DUP1 PUSH1 0x6 DUP2 MSTORE PUSH1 0x20 ADD PUSH32 0x53696C7665720000000000000000000000000000000000000000000000000000 DUP2 MSTORE POP PUSH1 0x2 SWAP1 DUP1 MLOAD SWAP1 PUSH1 0x20 ADD SWAP1 PUSH2 0xEE0 SWAP3 SWAP2 SWAP1 PUSH2 0x1541 JUMP JUMPDEST POP PUSH1 0x7 PUSH1 0x0 DUP2 SLOAD DUP1 SWAP3 SWAP2 SWAP1 PUSH2 0xEF4 SWAP1 PUSH2 0x1D61 JUMP JUMPDEST SWAP2 SWAP1 POP SSTORE POP JUMPDEST JUMPDEST JUMPDEST PUSH2 0xF94 DUP5 DUP3 PUSH1 0x4 SLOAD PUSH1 0x2 DUP1 SLOAD PUSH2 0xF11 SWAP1 PUSH2 0x1CFE JUMP JUMPDEST DUP1 PUSH1 0x1F ADD PUSH1 0x20 DUP1 SWAP2 DIV MUL PUSH1 0x20 ADD PUSH1 0x40 MLOAD SWAP1 DUP2 ADD PUSH1 0x40 MSTORE DUP1 SWAP3 SWAP2 SWAP1 DUP2 DUP2 MSTORE PUSH1 0x20 ADD DUP3 DUP1 SLOAD PUSH2 0xF3D SWAP1 PUSH2 0x1CFE JUMP JUMPDEST DUP1 ISZERO PUSH2 0xF8A JUMPI DUP1 PUSH1 0x1F LT PUSH2 0xF5F JUMPI PUSH2 0x100 DUP1 DUP4 SLOAD DIV MUL DUP4 MSTORE SWAP2 PUSH1 0x20 ADD SWAP2 PUSH2 0xF8A JUMP JUMPDEST DUP3 ADD SWAP2 SWAP1 PUSH1 0x0 MSTORE PUSH1 0x20 PUSH1 0x0 KECCAK256 SWAP1 JUMPDEST DUP2 SLOAD DUP2 MSTORE SWAP1 PUSH1 0x1 ADD SWAP1 PUSH1 0x20 ADD DUP1 DUP4 GT PUSH2 0xF6D JUMPI DUP3 SWAP1 SUB PUSH1 0x1F AND DUP3 ADD SWAP2 JUMPDEST POP POP POP POP POP PUSH2 0x10D5 JUMP JUMPDEST PUSH1 0x3 PUSH1 0x0 DUP2 SLOAD DUP1 SWAP3 SWAP2 SWAP1 PUSH2 0xFA7 SWAP1 PUSH2 0x1D61 JUMP JUMPDEST SWAP2 SWAP1 POP SSTORE POP DUP1 PUSH1 0x8 PUSH1 0x0 DUP7 PUSH20 0xFFFFFFFFFFFFFFFFFFFFFFFFFFFFFFFFFFFFFFFF AND PUSH20 0xFFFFFFFFFFFFFFFFFFFFFFFFFFFFFFFFFFFFFFFF AND DUP2 MSTORE PUSH1 0x20 ADD SWAP1 DUP2 MSTORE PUSH1 0x20 ADD PUSH1 0x0 KECCAK256 DUP2 SWAP1 SSTORE POP DUP1 PUSH1 0x2 DUP1 DUP1 SLOAD PUSH2 0xFFF SWAP1 PUSH2 0x1CFE JUMP JUMPDEST DUP1 PUSH1 0x1F ADD PUSH1 0x20 DUP1 SWAP2 DIV MUL PUSH1 0x20 ADD PUSH1 0x40 MLOAD SWAP1 DUP2 ADD PUSH1 0x40 MSTORE DUP1 SWAP3 SWAP2 SWAP1 DUP2 DUP2 MSTORE PUSH1 0x20 ADD DUP3 DUP1 SLOAD PUSH2 0x102B SWAP1 PUSH2 0x1CFE JUMP JUMPDEST DUP1 ISZERO PUSH2 0x1078 JUMPI DUP1 PUSH1 0x1F LT PUSH2 0x104D JUMPI PUSH2 0x100 DUP1 DUP4 SLOAD DIV MUL DUP4 MSTORE SWAP2 PUSH1 0x20 ADD SWAP2 PUSH2 0x1078 JUMP JUMPDEST DUP3 ADD SWAP2 SWAP1 PUSH1 0x0 MSTORE PUSH1 0x20 PUSH1 0x0 KECCAK256 SWAP1 JUMPDEST DUP2 SLOAD DUP2 MSTORE SWAP1 PUSH1 0x1 ADD SWAP1 PUSH1 0x20 ADD DUP1 DUP4 GT PUSH2 0x105B JUMPI DUP3 SWAP1 SUB PUSH1 0x1F AND DUP3 ADD SWAP2 JUMPDEST POP POP POP POP POP SWAP1 POP SWAP3 POP SWAP3 POP POP SWAP2 POP SWAP2 JUMP JUMPDEST PUSH1 0x0 CALLER SWAP1 POP SWAP1 JUMP JUMPDEST PUSH1 0x0 DUP1 PUSH1 0x3 TIMESTAMP CALLER PUSH1 0x40 MLOAD PUSH1 0x20 ADD PUSH2 0x10A9 SWAP3 SWAP2 SWAP1 PUSH2 0x18E4 JUMP JUMPDEST PUSH1 0x40 MLOAD PUSH1 0x20 DUP2 DUP4 SUB SUB DUP2 MSTORE SWAP1 PUSH1 0x40 MSTORE DUP1 MLOAD SWAP1 PUSH1 0x20 ADD KECCAK256 PUSH1 0x0 SHR PUSH2 0x10CC SWAP2 SWAP1 PUSH2 0x1DD8 JUMP JUMPDEST SWAP1 POP DUP1 SWAP2 POP POP SWAP1 JUMP JUMPDEST PUSH1 0x0 PUSH20 0xFFFFFFFFFFFFFFFFFFFFFFFFFFFFFFFFFFFFFFFF AND DUP5 PUSH20 0xFFFFFFFFFFFFFFFFFFFFFFFFFFFFFFFFFFFFFFFF AND EQ ISZERO PUSH2 0x1145 JUMPI PUSH1 0x40 MLOAD PUSH32 0x8C379A000000000000000000000000000000000000000000000000000000000 DUP2 MSTORE PUSH1 0x4 ADD PUSH2 0x113C SWAP1 PUSH2 0x1AE2 JUMP JUMPDEST PUSH1 0x40 MLOAD DUP1 SWAP2 SUB SWAP1 REVERT JUMPDEST PUSH1 0x0 PUSH2 0x114F PUSH2 0x1089 JUMP JUMPDEST SWAP1 POP PUSH2 0x1170 DUP2 PUSH1 0x0 DUP8 PUSH2 0x1161 DUP9 PUSH2 0x12C5 JUMP JUMPDEST PUSH2 0x116A DUP9 PUSH2 0x12C5 JUMP JUMPDEST DUP8 PUSH2 0x133F JUMP JUMPDEST DUP3 PUSH1 0x0 DUP1 DUP7 DUP2 MSTORE PUSH1 0x20 ADD SWAP1 DUP2 MSTORE PUSH1 0x20 ADD PUSH1 0x0 KECCAK256 PUSH1 0x0 DUP8 PUSH20 0xFFFFFFFFFFFFFFFFFFFFFFFFFFFFFFFFFFFFFFFF AND PUSH20 0xFFFFFFFFFFFFFFFFFFFFFFFFFFFFFFFFFFFFFFFF AND DUP2 MSTORE PUSH1 0x20 ADD SWAP1 DUP2 MSTORE PUSH1 0x20 ADD PUSH1 0x0 KECCAK256 PUSH1 0x0 DUP3 DUP3 SLOAD PUSH2 0x11CF SWAP2 SWAP1 PUSH2 0x1BEF JUMP JUMPDEST SWAP3 POP POP DUP2 SWAP1 SSTORE POP DUP5 PUSH20 0xFFFFFFFFFFFFFFFFFFFFFFFFFFFFFFFFFFFFFFFF AND PUSH1 0x0 PUSH20 0xFFFFFFFFFFFFFFFFFFFFFFFFFFFFFFFFFFFFFFFF AND DUP3 PUSH20 0xFFFFFFFFFFFFFFFFFFFFFFFFFFFFFFFFFFFFFFFF AND PUSH32 0xC3D58168C5AE7397731D063D5BBF3D657854427343F4C083240F7AACAA2D0F62 DUP8 DUP8 PUSH1 0x40 MLOAD PUSH2 0x124D SWAP3 SWAP2 SWAP1 PUSH2 0x1B4D JUMP JUMPDEST PUSH1 0x40 MLOAD DUP1 SWAP2 SUB SWAP1 LOG4 PUSH2 0x1264 DUP2 PUSH1 0x0 DUP8 DUP8 DUP8 DUP8 PUSH2 0x1347 JUMP JUMPDEST POP POP POP POP POP JUMP JUMPDEST DUP1 PUSH1 0xA PUSH1 0x0 DUP5 PUSH20 0xFFFFFFFFFFFFFFFFFFFFFFFFFFFFFFFFFFFFFFFF AND PUSH20 0xFFFFFFFFFFFFFFFFFFFFFFFFFFFFFFFFFFFFFFFF AND DUP2 MSTORE PUSH1 0x20 ADD SWAP1 DUP2 MSTORE PUSH1 0x20 ADD PUSH1 0x0 KECCAK256 PUSH1 0x0 DUP3 DUP3 SLOAD PUSH2 0x12BA SWAP2 SWAP1 PUSH2 0x1BEF JUMP JUMPDEST SWAP3 POP POP DUP2 SWAP1 SSTORE POP POP POP JUMP JUMPDEST PUSH1 0x60 PUSH1 0x0 PUSH1 0x1 PUSH8 0xFFFFFFFFFFFFFFFF DUP2 GT ISZERO PUSH2 0x12E4 JUMPI PUSH2 0x12E3 PUSH2 0x1EC5 JUMP JUMPDEST JUMPDEST PUSH1 0x40 MLOAD SWAP1 DUP1 DUP3 MSTORE DUP1 PUSH1 0x20 MUL PUSH1 0x20 ADD DUP3 ADD PUSH1 0x40 MSTORE DUP1 ISZERO PUSH2 0x1312 JUMPI DUP2 PUSH1 0x20 ADD PUSH1 0x20 DUP3 MUL DUP1 CALLDATASIZE DUP4 CALLDATACOPY DUP1 DUP3 ADD SWAP2 POP POP SWAP1 POP JUMPDEST POP SWAP1 POP DUP3 DUP2 PUSH1 0x0 DUP2 MLOAD DUP2 LT PUSH2 0x132A JUMPI PUSH2 0x1329 PUSH2 0x1E96 JUMP JUMPDEST JUMPDEST PUSH1 0x20 MUL PUSH1 0x20 ADD ADD DUP2 DUP2 MSTORE POP POP DUP1 SWAP2 POP POP SWAP2 SWAP1 POP JUMP JUMPDEST POP POP POP POP POP POP JUMP JUMPDEST PUSH2 0x1366 DUP5 PUSH20 0xFFFFFFFFFFFFFFFFFFFFFFFFFFFFFFFFFFFFFFFF AND PUSH2 0x152E JUMP JUMPDEST ISZERO PUSH2 0x1526 JUMPI DUP4 PUSH20 0xFFFFFFFFFFFFFFFFFFFFFFFFFFFFFFFFFFFFFFFF AND PUSH4 0xF23A6E61 DUP8 DUP8 DUP7 DUP7 DUP7 PUSH1 0x40 MLOAD DUP7 PUSH4 0xFFFFFFFF AND PUSH1 0xE0 SHL DUP2 MSTORE PUSH1 0x4 ADD PUSH2 0x13AC SWAP6 SWAP5 SWAP4 SWAP3 SWAP2 SWAP1 PUSH2 0x192B JUMP JUMPDEST PUSH1 0x20 PUSH1 0x40 MLOAD DUP1 DUP4 SUB DUP2 PUSH1 0x0 DUP8 DUP1 EXTCODESIZE ISZERO DUP1 ISZERO PUSH2 0x13C6 JUMPI PUSH1 0x0 DUP1 REVERT JUMPDEST POP GAS CALL SWAP3 POP POP POP DUP1 ISZERO PUSH2 0x13F7 JUMPI POP PUSH1 0x40 MLOAD RETURNDATASIZE PUSH1 0x1F NOT PUSH1 0x1F DUP3 ADD AND DUP3 ADD DUP1 PUSH1 0x40 MSTORE POP DUP2 ADD SWAP1 PUSH2 0x13F4 SWAP2 SWAP1 PUSH2 0x167D JUMP JUMPDEST PUSH1 0x1 JUMPDEST PUSH2 0x149D JUMPI PUSH2 0x1403 PUSH2 0x1EF4 JUMP JUMPDEST DUP1 PUSH4 0x8C379A0 EQ ISZERO PUSH2 0x1460 JUMPI POP PUSH2 0x1418 PUSH2 0x2152 JUMP JUMPDEST DUP1 PUSH2 0x1423 JUMPI POP PUSH2 0x1462 JUMP JUMPDEST DUP1 PUSH1 0x40 MLOAD PUSH32 0x8C379A000000000000000000000000000000000000000000000000000000000 DUP2 MSTORE PUSH1 0x4 ADD PUSH2 0x1457 SWAP2 SWAP1 PUSH2 0x19A0 JUMP JUMPDEST PUSH1 0x40 MLOAD DUP1 SWAP2 SUB SWAP1 REVERT JUMPDEST POP JUMPDEST PUSH1 0x40 MLOAD PUSH32 0x8C379A000000000000000000000000000000000000000000000000000000000 DUP2 MSTORE PUSH1 0x4 ADD PUSH2 0x1494 SWAP1 PUSH2 0x19C2 JUMP JUMPDEST PUSH1 0x40 MLOAD DUP1 SWAP2 SUB SWAP1 REVERT JUMPDEST PUSH4 0xF23A6E61 PUSH1 0xE0 SHL PUSH28 0xFFFFFFFFFFFFFFFFFFFFFFFFFFFFFFFFFFFFFFFFFFFFFFFFFFFFFFFF NOT AND DUP2 PUSH28 0xFFFFFFFFFFFFFFFFFFFFFFFFFFFFFFFFFFFFFFFFFFFFFFFFFFFFFFFF NOT AND EQ PUSH2 0x1524 JUMPI PUSH1 0x40 MLOAD PUSH32 0x8C379A000000000000000000000000000000000000000000000000000000000 DUP2 MSTORE PUSH1 0x4 ADD PUSH2 0x151B SWAP1 PUSH2 0x19E2 JUMP JUMPDEST PUSH1 0x40 MLOAD DUP1 SWAP2 SUB SWAP1 REVERT JUMPDEST POP JUMPDEST POP POP POP POP POP POP JUMP JUMPDEST PUSH1 0x0 DUP1 DUP3 EXTCODESIZE SWAP1 POP PUSH1 0x0 DUP2 GT SWAP2 POP POP SWAP2 SWAP1 POP JUMP JUMPDEST DUP3 DUP1 SLOAD PUSH2 0x154D SWAP1 PUSH2 0x1CFE JUMP JUMPDEST SWAP1 PUSH1 0x0 MSTORE PUSH1 0x20 PUSH1 0x0 KECCAK256 SWAP1 PUSH1 0x1F ADD PUSH1 0x20 SWAP1 DIV DUP2 ADD SWAP3 DUP3 PUSH2 0x156F JUMPI PUSH1 0x0 DUP6 SSTORE PUSH2 0x15B6 JUMP JUMPDEST DUP3 PUSH1 0x1F LT PUSH2 0x1588 JUMPI DUP1 MLOAD PUSH1 0xFF NOT AND DUP4 DUP1 ADD OR DUP6 SSTORE PUSH2 0x15B6 JUMP JUMPDEST DUP3 DUP1 ADD PUSH1 0x1 ADD DUP6 SSTORE DUP3 ISZERO PUSH2 0x15B6 JUMPI SWAP2 DUP3 ADD JUMPDEST DUP3 DUP2 GT ISZERO PUSH2 0x15B5 JUMPI DUP3 MLOAD DUP3 SSTORE SWAP2 PUSH1 0x20 ADD SWAP2 SWAP1 PUSH1 0x1 ADD SWAP1 PUSH2 0x159A JUMP JUMPDEST JUMPDEST POP SWAP1 POP PUSH2 0x15C3 SWAP2 SWAP1 PUSH2 0x15C7 JUMP JUMPDEST POP SWAP1 JUMP JUMPDEST JUMPDEST DUP1 DUP3 GT ISZERO PUSH2 0x15E0 JUMPI PUSH1 0x0 DUP2 PUSH1 0x0 SWAP1 SSTORE POP PUSH1 0x1 ADD PUSH2 0x15C8 JUMP JUMPDEST POP SWAP1 JUMP JUMPDEST PUSH1 0x0 DUP2 CALLDATALOAD SWAP1 POP PUSH2 0x15F3 DUP2 PUSH2 0x21E8 JUMP JUMPDEST SWAP3 SWAP2 POP POP JUMP JUMPDEST PUSH1 0x0 DUP2 CALLDATALOAD SWAP1 POP PUSH2 0x1608 DUP2 PUSH2 0x21FF JUMP JUMPDEST SWAP3 SWAP2 POP POP JUMP JUMPDEST PUSH1 0x0 DUP2 MLOAD SWAP1 POP PUSH2 0x161D DUP2 PUSH2 0x2216 JUMP JUMPDEST SWAP3 SWAP2 POP POP JUMP JUMPDEST PUSH1 0x0 PUSH1 0x20 DUP3 DUP5 SUB SLT ISZERO PUSH2 0x1639 JUMPI PUSH2 0x1638 PUSH2 0x1F16 JUMP JUMPDEST JUMPDEST PUSH1 0x0 PUSH2 0x1647 DUP5 DUP3 DUP6 ADD PUSH2 0x15E4 JUMP JUMPDEST SWAP2 POP POP SWAP3 SWAP2 POP POP JUMP JUMPDEST PUSH1 0x0 PUSH1 0x20 DUP3 DUP5 SUB SLT ISZERO PUSH2 0x1666 JUMPI PUSH2 0x1665 PUSH2 0x1F16 JUMP JUMPDEST JUMPDEST PUSH1 0x0 PUSH2 0x1674 DUP5 DUP3 DUP6 ADD PUSH2 0x15F9 JUMP JUMPDEST SWAP2 POP POP SWAP3 SWAP2 POP POP JUMP JUMPDEST PUSH1 0x0 PUSH1 0x20 DUP3 DUP5 SUB SLT ISZERO PUSH2 0x1693 JUMPI PUSH2 0x1692 PUSH2 0x1F16 JUMP JUMPDEST JUMPDEST PUSH1 0x0 PUSH2 0x16A1 DUP5 DUP3 DUP6 ADD PUSH2 0x160E JUMP JUMPDEST SWAP2 POP POP SWAP3 SWAP2 POP POP JUMP JUMPDEST PUSH2 0x16B3 DUP2 PUSH2 0x1C57 JUMP JUMPDEST DUP3 MSTORE POP POP JUMP JUMPDEST PUSH2 0x16C2 DUP2 PUSH2 0x1C45 JUMP JUMPDEST DUP3 MSTORE POP POP JUMP JUMPDEST PUSH2 0x16D9 PUSH2 0x16D4 DUP3 PUSH2 0x1C45 JUMP JUMPDEST PUSH2 0x1DAA JUMP JUMPDEST DUP3 MSTORE POP POP JUMP JUMPDEST PUSH2 0x16E8 DUP2 PUSH2 0x1C69 JUMP JUMPDEST DUP3 MSTORE POP POP JUMP JUMPDEST PUSH1 0x0 PUSH2 0x16F9 DUP3 PUSH2 0x1BB7 JUMP JUMPDEST PUSH2 0x1703 DUP2 DUP6 PUSH2 0x1BCD JUMP JUMPDEST SWAP4 POP PUSH2 0x1713 DUP2 DUP6 PUSH1 0x20 DUP7 ADD PUSH2 0x1CCB JUMP JUMPDEST PUSH2 0x171C DUP2 PUSH2 0x1F1B JUMP JUMPDEST DUP5 ADD SWAP2 POP POP SWAP3 SWAP2 POP POP JUMP JUMPDEST PUSH1 0x0 PUSH2 0x1732 DUP3 PUSH2 0x1BC2 JUMP JUMPDEST PUSH2 0x173C DUP2 DUP6 PUSH2 0x1BDE JUMP JUMPDEST SWAP4 POP PUSH2 0x174C DUP2 DUP6 PUSH1 0x20 DUP7 ADD PUSH2 0x1CCB JUMP JUMPDEST PUSH2 0x1755 DUP2 PUSH2 0x1F1B JUMP JUMPDEST DUP5 ADD SWAP2 POP POP SWAP3 SWAP2 POP POP JUMP JUMPDEST PUSH1 0x0 PUSH2 0x176D PUSH1 0x34 DUP4 PUSH2 0x1BDE JUMP JUMPDEST SWAP2 POP PUSH2 0x1778 DUP3 PUSH2 0x1F46 JUMP JUMPDEST PUSH1 0x40 DUP3 ADD SWAP1 POP SWAP2 SWAP1 POP JUMP JUMPDEST PUSH1 0x0 PUSH2 0x1790 PUSH1 0x28 DUP4 PUSH2 0x1BDE JUMP JUMPDEST SWAP2 POP PUSH2 0x179B DUP3 PUSH2 0x1F95 JUMP JUMPDEST PUSH1 0x40 DUP3 ADD SWAP1 POP SWAP2 SWAP1 POP JUMP JUMPDEST PUSH1 0x0 PUSH2 0x17B3 PUSH1 0x12 DUP4 PUSH2 0x1BDE JUMP JUMPDEST SWAP2 POP PUSH2 0x17BE DUP3 PUSH2 0x1FE4 JUMP JUMPDEST PUSH1 0x20 DUP3 ADD SWAP1 POP SWAP2 SWAP1 POP JUMP JUMPDEST PUSH1 0x0 PUSH2 0x17D6 PUSH1 0x1B DUP4 PUSH2 0x1BDE JUMP JUMPDEST SWAP2 POP PUSH2 0x17E1 DUP3 PUSH2 0x200D JUMP JUMPDEST PUSH1 0x20 DUP3 ADD SWAP1 POP SWAP2 SWAP1 POP JUMP JUMPDEST PUSH1 0x0 PUSH2 0x17F9 PUSH1 0x1B DUP4 PUSH2 0x1BDE JUMP JUMPDEST SWAP2 POP PUSH2 0x1804 DUP3 PUSH2 0x2036 JUMP JUMPDEST PUSH1 0x20 DUP3 ADD SWAP1 POP SWAP2 SWAP1 POP JUMP JUMPDEST PUSH1 0x0 PUSH2 0x181C PUSH1 0x1C DUP4 PUSH2 0x1BDE JUMP JUMPDEST SWAP2 POP PUSH2 0x1827 DUP3 PUSH2 0x205F JUMP JUMPDEST PUSH1 0x20 DUP3 ADD SWAP1 POP SWAP2 SWAP1 POP JUMP JUMPDEST PUSH1 0x0 PUSH2 0x183F PUSH1 0x1B DUP4 PUSH2 0x1BDE JUMP JUMPDEST SWAP2 POP PUSH2 0x184A DUP3 PUSH2 0x2088 JUMP JUMPDEST PUSH1 0x20 DUP3 ADD SWAP1 POP SWAP2 SWAP1 POP JUMP JUMPDEST PUSH1 0x0 PUSH2 0x1862 PUSH1 0x19 DUP4 PUSH2 0x1BDE JUMP JUMPDEST SWAP2 POP PUSH2 0x186D DUP3 PUSH2 0x20B1 JUMP JUMPDEST PUSH1 0x20 DUP3 ADD SWAP1 POP SWAP2 SWAP1 POP JUMP JUMPDEST PUSH1 0x0 PUSH2 0x1885 PUSH1 0x1D DUP4 PUSH2 0x1BDE JUMP JUMPDEST SWAP2 POP PUSH2 0x1890 DUP3 PUSH2 0x20DA JUMP JUMPDEST PUSH1 0x20 DUP3 ADD SWAP1 POP SWAP2 SWAP1 POP JUMP JUMPDEST PUSH1 0x0 PUSH2 0x18A8 PUSH1 0x21 DUP4 PUSH2 0x1BDE JUMP JUMPDEST SWAP2 POP PUSH2 0x18B3 DUP3 PUSH2 0x2103 JUMP JUMPDEST PUSH1 0x40 DUP3 ADD SWAP1 POP SWAP2 SWAP1 POP JUMP JUMPDEST PUSH2 0x18C7 DUP2 PUSH2 0x1CC1 JUMP JUMPDEST DUP3 MSTORE POP POP JUMP JUMPDEST PUSH2 0x18DE PUSH2 0x18D9 DUP3 PUSH2 0x1CC1 JUMP JUMPDEST PUSH2 0x1DCE JUMP JUMPDEST DUP3 MSTORE POP POP JUMP JUMPDEST PUSH1 0x0 PUSH2 0x18F0 DUP3 DUP6 PUSH2 0x18CD JUMP JUMPDEST PUSH1 0x20 DUP3 ADD SWAP2 POP PUSH2 0x1900 DUP3 DUP5 PUSH2 0x16C8 JUMP JUMPDEST PUSH1 0x14 DUP3 ADD SWAP2 POP DUP2 SWAP1 POP SWAP4 SWAP3 POP POP POP JUMP JUMPDEST PUSH1 0x0 PUSH1 0x20 DUP3 ADD SWAP1 POP PUSH2 0x1925 PUSH1 0x0 DUP4 ADD DUP5 PUSH2 0x16AA JUMP JUMPDEST SWAP3 SWAP2 POP POP JUMP JUMPDEST PUSH1 0x0 PUSH1 0xA0 DUP3 ADD SWAP1 POP PUSH2 0x1940 PUSH1 0x0 DUP4 ADD DUP9 PUSH2 0x16B9 JUMP JUMPDEST PUSH2 0x194D PUSH1 0x20 DUP4 ADD DUP8 PUSH2 0x16B9 JUMP JUMPDEST PUSH2 0x195A PUSH1 0x40 DUP4 ADD DUP7 PUSH2 0x18BE JUMP JUMPDEST PUSH2 0x1967 PUSH1 0x60 DUP4 ADD DUP6 PUSH2 0x18BE JUMP JUMPDEST DUP2 DUP2 SUB PUSH1 0x80 DUP4 ADD MSTORE PUSH2 0x1979 DUP2 DUP5 PUSH2 0x16EE JUMP JUMPDEST SWAP1 POP SWAP7 SWAP6 POP POP POP POP POP POP JUMP JUMPDEST PUSH1 0x0 PUSH1 0x20 DUP3 ADD SWAP1 POP PUSH2 0x199A PUSH1 0x0 DUP4 ADD DUP5 PUSH2 0x16DF JUMP JUMPDEST SWAP3 SWAP2 POP POP JUMP JUMPDEST PUSH1 0x0 PUSH1 0x20 DUP3 ADD SWAP1 POP DUP2 DUP2 SUB PUSH1 0x0 DUP4 ADD MSTORE PUSH2 0x19BA DUP2 DUP5 PUSH2 0x1727 JUMP JUMPDEST SWAP1 POP SWAP3 SWAP2 POP POP JUMP JUMPDEST PUSH1 0x0 PUSH1 0x20 DUP3 ADD SWAP1 POP DUP2 DUP2 SUB PUSH1 0x0 DUP4 ADD MSTORE PUSH2 0x19DB DUP2 PUSH2 0x1760 JUMP JUMPDEST SWAP1 POP SWAP2 SWAP1 POP JUMP JUMPDEST PUSH1 0x0 PUSH1 0x20 DUP3 ADD SWAP1 POP DUP2 DUP2 SUB PUSH1 0x0 DUP4 ADD MSTORE PUSH2 0x19FB DUP2 PUSH2 0x1783 JUMP JUMPDEST SWAP1 POP SWAP2 SWAP1 POP JUMP JUMPDEST PUSH1 0x0 PUSH1 0x20 DUP3 ADD SWAP1 POP DUP2 DUP2 SUB PUSH1 0x0 DUP4 ADD MSTORE PUSH2 0x1A1B DUP2 PUSH2 0x17A6 JUMP JUMPDEST SWAP1 POP SWAP2 SWAP1 POP JUMP JUMPDEST PUSH1 0x0 PUSH1 0x20 DUP3 ADD SWAP1 POP DUP2 DUP2 SUB PUSH1 0x0 DUP4 ADD MSTORE PUSH2 0x1A3B DUP2 PUSH2 0x17C9 JUMP JUMPDEST SWAP1 POP SWAP2 SWAP1 POP JUMP JUMPDEST PUSH1 0x0 PUSH1 0x20 DUP3 ADD SWAP1 POP DUP2 DUP2 SUB PUSH1 0x0 DUP4 ADD MSTORE PUSH2 0x1A5B DUP2 PUSH2 0x17EC JUMP JUMPDEST SWAP1 POP SWAP2 SWAP1 POP JUMP JUMPDEST PUSH1 0x0 PUSH1 0x20 DUP3 ADD SWAP1 POP DUP2 DUP2 SUB PUSH1 0x0 DUP4 ADD MSTORE PUSH2 0x1A7B DUP2 PUSH2 0x180F JUMP JUMPDEST SWAP1 POP SWAP2 SWAP1 POP JUMP JUMPDEST PUSH1 0x0 PUSH1 0x20 DUP3 ADD SWAP1 POP DUP2 DUP2 SUB PUSH1 0x0 DUP4 ADD MSTORE PUSH2 0x1A9B DUP2 PUSH2 0x1832 JUMP JUMPDEST SWAP1 POP SWAP2 SWAP1 POP JUMP JUMPDEST PUSH1 0x0 PUSH1 0x20 DUP3 ADD SWAP1 POP DUP2 DUP2 SUB PUSH1 0x0 DUP4 ADD MSTORE PUSH2 0x1ABB DUP2 PUSH2 0x1855 JUMP JUMPDEST SWAP1 POP SWAP2 SWAP1 POP JUMP JUMPDEST PUSH1 0x0 PUSH1 0x20 DUP3 ADD SWAP1 POP DUP2 DUP2 SUB PUSH1 0x0 DUP4 ADD MSTORE PUSH2 0x1ADB DUP2 PUSH2 0x1878 JUMP JUMPDEST SWAP1 POP SWAP2 SWAP1 POP JUMP JUMPDEST PUSH1 0x0 PUSH1 0x20 DUP3 ADD SWAP1 POP DUP2 DUP2 SUB PUSH1 0x0 DUP4 ADD MSTORE PUSH2 0x1AFB DUP2 PUSH2 0x189B JUMP JUMPDEST SWAP1 POP SWAP2 SWAP1 POP JUMP JUMPDEST PUSH1 0x0 PUSH1 0x20 DUP3 ADD SWAP1 POP PUSH2 0x1B17 PUSH1 0x0 DUP4 ADD DUP5 PUSH2 0x18BE JUMP JUMPDEST SWAP3 SWAP2 POP POP JUMP JUMPDEST PUSH1 0x0 PUSH1 0x40 DUP3 ADD SWAP1 POP PUSH2 0x1B32 PUSH1 0x0 DUP4 ADD DUP6 PUSH2 0x18BE JUMP JUMPDEST DUP2 DUP2 SUB PUSH1 0x20 DUP4 ADD MSTORE PUSH2 0x1B44 DUP2 DUP5 PUSH2 0x1727 JUMP JUMPDEST SWAP1 POP SWAP4 SWAP3 POP POP POP JUMP JUMPDEST PUSH1 0x0 PUSH1 0x40 DUP3 ADD SWAP1 POP PUSH2 0x1B62 PUSH1 0x0 DUP4 ADD DUP6 PUSH2 0x18BE JUMP JUMPDEST PUSH2 0x1B6F PUSH1 0x20 DUP4 ADD DUP5 PUSH2 0x18BE JUMP JUMPDEST SWAP4 SWAP3 POP POP POP JUMP JUMPDEST PUSH1 0x0 PUSH1 0x60 DUP3 ADD SWAP1 POP PUSH2 0x1B8B PUSH1 0x0 DUP4 ADD DUP7 PUSH2 0x18BE JUMP JUMPDEST PUSH2 0x1B98 PUSH1 0x20 DUP4 ADD DUP6 PUSH2 0x18BE JUMP JUMPDEST PUSH2 0x1BA5 PUSH1 0x40 DUP4 ADD DUP5 PUSH2 0x18BE JUMP JUMPDEST SWAP5 SWAP4 POP POP POP POP JUMP JUMPDEST PUSH1 0x0 PUSH1 0x40 MLOAD SWAP1 POP SWAP1 JUMP JUMPDEST PUSH1 0x0 DUP2 MLOAD SWAP1 POP SWAP2 SWAP1 POP JUMP JUMPDEST PUSH1 0x0 DUP2 MLOAD SWAP1 POP SWAP2 SWAP1 POP JUMP JUMPDEST PUSH1 0x0 DUP3 DUP3 MSTORE PUSH1 0x20 DUP3 ADD SWAP1 POP SWAP3 SWAP2 POP POP JUMP JUMPDEST PUSH1 0x0 DUP3 DUP3 MSTORE PUSH1 0x20 DUP3 ADD SWAP1 POP SWAP3 SWAP2 POP POP JUMP JUMPDEST PUSH1 0x0 PUSH2 0x1BFA DUP3 PUSH2 0x1CC1 JUMP JUMPDEST SWAP2 POP PUSH2 0x1C05 DUP4 PUSH2 0x1CC1 JUMP JUMPDEST SWAP3 POP DUP3 PUSH32 0xFFFFFFFFFFFFFFFFFFFFFFFFFFFFFFFFFFFFFFFFFFFFFFFFFFFFFFFFFFFFFFFF SUB DUP3 GT ISZERO PUSH2 0x1C3A JUMPI PUSH2 0x1C39 PUSH2 0x1E09 JUMP JUMPDEST JUMPDEST DUP3 DUP3 ADD SWAP1 POP SWAP3 SWAP2 POP POP JUMP JUMPDEST PUSH1 0x0 PUSH2 0x1C50 DUP3 PUSH2 0x1CA1 JUMP JUMPDEST SWAP1 POP SWAP2 SWAP1 POP JUMP JUMPDEST PUSH1 0x0 PUSH2 0x1C62 DUP3 PUSH2 0x1CA1 JUMP JUMPDEST SWAP1 POP SWAP2 SWAP1 POP JUMP JUMPDEST PUSH1 0x0 DUP2 ISZERO ISZERO SWAP1 POP SWAP2 SWAP1 POP JUMP JUMPDEST PUSH1 0x0 PUSH32 0xFFFFFFFF00000000000000000000000000000000000000000000000000000000 DUP3 AND SWAP1 POP SWAP2 SWAP1 POP JUMP JUMPDEST PUSH1 0x0 PUSH20 0xFFFFFFFFFFFFFFFFFFFFFFFFFFFFFFFFFFFFFFFF DUP3 AND SWAP1 POP SWAP2 SWAP1 POP JUMP JUMPDEST PUSH1 0x0 DUP2 SWAP1 POP SWAP2 SWAP1 POP JUMP JUMPDEST PUSH1 0x0 JUMPDEST DUP4 DUP2 LT ISZERO PUSH2 0x1CE9 JUMPI DUP1 DUP3 ADD MLOAD DUP2 DUP5 ADD MSTORE PUSH1 0x20 DUP2 ADD SWAP1 POP PUSH2 0x1CCE JUMP JUMPDEST DUP4 DUP2 GT ISZERO PUSH2 0x1CF8 JUMPI PUSH1 0x0 DUP5 DUP5 ADD MSTORE JUMPDEST POP POP POP POP JUMP JUMPDEST PUSH1 0x0 PUSH1 0x2 DUP3 DIV SWAP1 POP PUSH1 0x1 DUP3 AND DUP1 PUSH2 0x1D16 JUMPI PUSH1 0x7F DUP3 AND SWAP2 POP JUMPDEST PUSH1 0x20 DUP3 LT DUP2 EQ ISZERO PUSH2 0x1D2A JUMPI PUSH2 0x1D29 PUSH2 0x1E67 JUMP JUMPDEST JUMPDEST POP SWAP2 SWAP1 POP JUMP JUMPDEST PUSH2 0x1D39 DUP3 PUSH2 0x1F1B JUMP JUMPDEST DUP2 ADD DUP2 DUP2 LT PUSH8 0xFFFFFFFFFFFFFFFF DUP3 GT OR ISZERO PUSH2 0x1D58 JUMPI PUSH2 0x1D57 PUSH2 0x1EC5 JUMP JUMPDEST JUMPDEST DUP1 PUSH1 0x40 MSTORE POP POP POP JUMP JUMPDEST PUSH1 0x0 PUSH2 0x1D6C DUP3 PUSH2 0x1CC1 JUMP JUMPDEST SWAP2 POP PUSH32 0xFFFFFFFFFFFFFFFFFFFFFFFFFFFFFFFFFFFFFFFFFFFFFFFFFFFFFFFFFFFFFFFF DUP3 EQ ISZERO PUSH2 0x1D9F JUMPI PUSH2 0x1D9E PUSH2 0x1E09 JUMP JUMPDEST JUMPDEST PUSH1 0x1 DUP3 ADD SWAP1 POP SWAP2 SWAP1 POP JUMP JUMPDEST PUSH1 0x0 PUSH2 0x1DB5 DUP3 PUSH2 0x1DBC JUMP JUMPDEST SWAP1 POP SWAP2 SWAP1 POP JUMP JUMPDEST PUSH1 0x0 PUSH2 0x1DC7 DUP3 PUSH2 0x1F2C JUMP JUMPDEST SWAP1 POP SWAP2 SWAP1 POP JUMP JUMPDEST PUSH1 0x0 DUP2 SWAP1 POP SWAP2 SWAP1 POP JUMP JUMPDEST PUSH1 0x0 PUSH2 0x1DE3 DUP3 PUSH2 0x1CC1 JUMP JUMPDEST SWAP2 POP PUSH2 0x1DEE DUP4 PUSH2 0x1CC1 JUMP JUMPDEST SWAP3 POP DUP3 PUSH2 0x1DFE JUMPI PUSH2 0x1DFD PUSH2 0x1E38 JUMP JUMPDEST JUMPDEST DUP3 DUP3 MOD SWAP1 POP SWAP3 SWAP2 POP POP JUMP JUMPDEST PUSH32 0x4E487B7100000000000000000000000000000000000000000000000000000000 PUSH1 0x0 MSTORE PUSH1 0x11 PUSH1 0x4 MSTORE PUSH1 0x24 PUSH1 0x0 REVERT JUMPDEST PUSH32 0x4E487B7100000000000000000000000000000000000000000000000000000000 PUSH1 0x0 MSTORE PUSH1 0x12 PUSH1 0x4 MSTORE PUSH1 0x24 PUSH1 0x0 REVERT JUMPDEST PUSH32 0x4E487B7100000000000000000000000000000000000000000000000000000000 PUSH1 0x0 MSTORE PUSH1 0x22 PUSH1 0x4 MSTORE PUSH1 0x24 PUSH1 0x0 REVERT JUMPDEST PUSH32 0x4E487B7100000000000000000000000000000000000000000000000000000000 PUSH1 0x0 MSTORE PUSH1 0x32 PUSH1 0x4 MSTORE PUSH1 0x24 PUSH1 0x0 REVERT JUMPDEST PUSH32 0x4E487B7100000000000000000000000000000000000000000000000000000000 PUSH1 0x0 MSTORE PUSH1 0x41 PUSH1 0x4 MSTORE PUSH1 0x24 PUSH1 0x0 REVERT JUMPDEST PUSH1 0x0 PUSH1 0x3 RETURNDATASIZE GT ISZERO PUSH2 0x1F13 JUMPI PUSH1 0x4 PUSH1 0x0 DUP1 RETURNDATACOPY PUSH2 0x1F10 PUSH1 0x0 MLOAD PUSH2 0x1F39 JUMP JUMPDEST SWAP1 POP JUMPDEST SWAP1 JUMP JUMPDEST PUSH1 0x0 DUP1 REVERT JUMPDEST PUSH1 0x0 PUSH1 0x1F NOT PUSH1 0x1F DUP4 ADD AND SWAP1 POP SWAP2 SWAP1 POP JUMP JUMPDEST PUSH1 0x0 DUP2 PUSH1 0x60 SHL SWAP1 POP SWAP2 SWAP1 POP JUMP JUMPDEST PUSH1 0x0 DUP2 PUSH1 0xE0 SHR SWAP1 POP SWAP2 SWAP1 POP JUMP JUMPDEST PUSH32 0x455243313135353A207472616E7366657220746F206E6F6E2045524331313535 PUSH1 0x0 DUP3 ADD MSTORE PUSH32 0x526563656976657220696D706C656D656E746572000000000000000000000000 PUSH1 0x20 DUP3 ADD MSTORE POP JUMP JUMPDEST PUSH32 0x455243313135353A204552433131353552656365697665722072656A65637465 PUSH1 0x0 DUP3 ADD MSTORE PUSH32 0x6420746F6B656E73000000000000000000000000000000000000000000000000 PUSH1 0x20 DUP3 ADD MSTORE POP JUMP JUMPDEST PUSH32 0x4E6F7420456E6F7567682042616C616E63650000000000000000000000000000 PUSH1 0x0 DUP3 ADD MSTORE POP JUMP JUMPDEST PUSH32 0x44726F707369746520697320616C72656164792052756E6E696E670000000000 PUSH1 0x0 DUP3 ADD MSTORE POP JUMP JUMPDEST PUSH32 0x44726F707369746520697320616C72656164792053746F707065640000000000 PUSH1 0x0 DUP3 ADD MSTORE POP JUMP JUMPDEST PUSH32 0x4F6E6C79204E46542D4553204F776E65722063616E2041636365737300000000 PUSH1 0x0 DUP3 ADD MSTORE POP JUMP JUMPDEST PUSH32 0x44726F7073697465206973206E6F74204F70656E6564205965742E0000000000 PUSH1 0x0 DUP3 ADD MSTORE POP JUMP JUMPDEST PUSH32 0x4D6178204D696E74696E67204C696D6974207265616368656400000000000000 PUSH1 0x0 DUP3 ADD MSTORE POP JUMP JUMPDEST PUSH32 0x4572726F7221204E6F2042616C616E636520746F207769746864726177000000 PUSH1 0x0 DUP3 ADD MSTORE POP JUMP JUMPDEST PUSH32 0x455243313135353A206D696E7420746F20746865207A65726F20616464726573 PUSH1 0x0 DUP3 ADD MSTORE PUSH32 0x7300000000000000000000000000000000000000000000000000000000000000 PUSH1 0x20 DUP3 ADD MSTORE POP JUMP JUMPDEST PUSH1 0x0 PUSH1 0x44 RETURNDATASIZE LT ISZERO PUSH2 0x2162 JUMPI PUSH2 0x21E5 JUMP JUMPDEST PUSH2 0x216A PUSH2 0x1BAD JUMP JUMPDEST PUSH1 0x4 RETURNDATASIZE SUB PUSH1 0x4 DUP3 RETURNDATACOPY DUP1 MLOAD RETURNDATASIZE PUSH1 0x24 DUP3 ADD GT PUSH8 0xFFFFFFFFFFFFFFFF DUP3 GT OR ISZERO PUSH2 0x2192 JUMPI POP POP PUSH2 0x21E5 JUMP JUMPDEST DUP1 DUP3 ADD DUP1 MLOAD PUSH8 0xFFFFFFFFFFFFFFFF DUP2 GT ISZERO PUSH2 0x21B0 JUMPI POP POP POP POP PUSH2 0x21E5 JUMP JUMPDEST DUP1 PUSH1 0x20 DUP4 ADD ADD PUSH1 0x4 RETURNDATASIZE SUB DUP6 ADD DUP2 GT ISZERO PUSH2 0x21CD JUMPI POP POP POP POP POP PUSH2 0x21E5 JUMP JUMPDEST PUSH2 0x21DC DUP3 PUSH1 0x20 ADD DUP6 ADD DUP7 PUSH2 0x1D30 JUMP JUMPDEST DUP3 SWAP6 POP POP POP POP POP POP JUMPDEST SWAP1 JUMP JUMPDEST PUSH2 0x21F1 DUP2 PUSH2 0x1C45 JUMP JUMPDEST DUP2 EQ PUSH2 0x21FC JUMPI PUSH1 0x0 DUP1 REVERT JUMPDEST POP JUMP JUMPDEST PUSH2 0x2208 DUP2 PUSH2 0x1C57 JUMP JUMPDEST DUP2 EQ PUSH2 0x2213 JUMPI PUSH1 0x0 DUP1 REVERT JUMPDEST POP JUMP JUMPDEST PUSH2 0x221F DUP2 PUSH2 0x1C75 JUMP JUMPDEST DUP2 EQ PUSH2 0x222A JUMPI PUSH1 0x0 DUP1 REVERT JUMPDEST POP JUMP INVALID LOG2 PUSH5 0x6970667358 0x22 SLT KECCAK256 0x49 0x2A 0xA6 0x4C SMOD PUSH12 0x947F9587619A39972213FFD5 DUP11 0xD1 PUSH7 0x7E6E027B4C2499 0xD3 PUSH16 0x5C6464736F6C63430008070033000000 "
				},
				"gasEstimates": {
					"creation": {
						"codeDepositCost": "1760600",
						"executionCost": "infinite",
						"totalCost": "infinite"
					},
					"external": {
						"ContractBalance()": "2780",
						"CryptoRandomMint(address)": "infinite",
						"FiatrandomMint(address)": "infinite",
						"IsPaused()": "2516",
						"Owner()": "2630",
						"checkMintedCategoryWise()": "infinite",
						"checkTotalMinted()": "4693",
						"openDropsite()": "28904",
						"stopDropsite()": "28881",
						"withDraw(address)": "infinite"
					},
					"internal": {
						"depositBidAmmount(address,uint256)": "infinite",
						"random()": "infinite"
					}
				},
				"methodIdentifiers": {
					"ContractBalance()": "3b668059",
					"CryptoRandomMint(address)": "3d65df70",
					"FiatrandomMint(address)": "fd93d41c",
					"IsPaused()": "1309a563",
					"Owner()": "b4a99a4e",
					"checkMintedCategoryWise()": "60daa851",
					"checkTotalMinted()": "0390c11c",
					"openDropsite()": "15460259",
					"stopDropsite()": "aa90c726",
					"withDraw(address)": "0a67d2c7"
				}
			},
			"userdoc": {
				"kind": "user",
				"methods": {},
				"version": 1
			}
		}
	}
}