{
	"Dropsite.sol": {
		"Dropsite": {
			"abi": [
				{
					"inputs": [
						{
							"internalType": "string",
							"name": "name",
							"type": "string"
						}
					],
					"stateMutability": "nonpayable",
					"type": "constructor"
				},
				{
					"anonymous": false,
					"inputs": [
						{
							"indexed": true,
							"internalType": "address",
							"name": "operator",
							"type": "address"
						},
						{
							"indexed": true,
							"internalType": "address",
							"name": "from",
							"type": "address"
						},
						{
							"indexed": true,
							"internalType": "address",
							"name": "to",
							"type": "address"
						},
						{
							"indexed": false,
							"internalType": "uint256",
							"name": "id",
							"type": "uint256"
						},
						{
							"indexed": false,
							"internalType": "uint256",
							"name": "value",
							"type": "uint256"
						}
					],
					"name": "TransferSingle",
					"type": "event"
				},
				{
					"inputs": [],
					"name": "ContractBalance",
					"outputs": [
						{
							"internalType": "uint256",
							"name": "",
							"type": "uint256"
						}
					],
					"stateMutability": "view",
					"type": "function"
				},
				{
					"inputs": [
						{
							"internalType": "address",
							"name": "user_addr",
							"type": "address"
						},
						{
							"internalType": "uint256",
							"name": "noOfMints",
							"type": "uint256"
						}
					],
					"name": "CryptoRandomMint",
					"outputs": [
						{
							"internalType": "uint256[]",
							"name": "",
							"type": "uint256[]"
						}
					],
					"stateMutability": "payable",
					"type": "function"
				},
				{
					"inputs": [
						{
							"internalType": "address",
							"name": "user_addr",
							"type": "address"
						},
						{
							"internalType": "uint256",
							"name": "noOfMints",
							"type": "uint256"
						}
					],
					"name": "FiatRandomMint",
					"outputs": [
						{
							"internalType": "uint256[]",
							"name": "",
							"type": "uint256[]"
						}
					],
					"stateMutability": "nonpayable",
					"type": "function"
				},
				{
					"inputs": [],
					"name": "IsPaused",
					"outputs": [
						{
							"internalType": "bool",
							"name": "",
							"type": "bool"
						}
					],
					"stateMutability": "view",
					"type": "function"
				},
				{
					"inputs": [],
					"name": "Owner",
					"outputs": [
						{
							"internalType": "address payable",
							"name": "",
							"type": "address"
						}
					],
					"stateMutability": "view",
					"type": "function"
				},
				{
					"inputs": [],
					"name": "checkMintedCategoryWise",
					"outputs": [
						{
							"internalType": "uint256",
							"name": "",
							"type": "uint256"
						},
						{
							"internalType": "uint256",
							"name": "",
							"type": "uint256"
						},
						{
							"internalType": "uint256",
							"name": "",
							"type": "uint256"
						}
					],
					"stateMutability": "view",
					"type": "function"
				},
				{
					"inputs": [],
					"name": "checkTotalMinted",
					"outputs": [
						{
							"internalType": "uint256",
							"name": "",
							"type": "uint256"
						}
					],
					"stateMutability": "view",
					"type": "function"
				},
				{
					"inputs": [],
					"name": "getMintFee",
					"outputs": [
						{
							"internalType": "uint256",
							"name": "",
							"type": "uint256"
						}
					],
					"stateMutability": "view",
					"type": "function"
				},
				{
					"inputs": [],
					"name": "openDropsite",
					"outputs": [],
					"stateMutability": "nonpayable",
					"type": "function"
				},
				{
					"inputs": [
						{
							"internalType": "address",
							"name": "user_addr",
							"type": "address"
						}
					],
					"name": "randomMinting",
					"outputs": [
						{
							"internalType": "uint256",
							"name": "",
							"type": "uint256"
						},
						{
							"internalType": "string",
							"name": "",
							"type": "string"
						}
					],
					"stateMutability": "payable",
					"type": "function"
				},
				{
					"inputs": [
						{
							"internalType": "address",
							"name": "addr",
							"type": "address"
						}
					],
					"name": "returnOwner",
					"outputs": [
						{
							"internalType": "uint256[]",
							"name": "",
							"type": "uint256[]"
						}
					],
					"stateMutability": "view",
					"type": "function"
				},
				{
					"inputs": [
						{
							"internalType": "uint256",
							"name": "_mintFee",
							"type": "uint256"
						}
					],
					"name": "setMintFee",
					"outputs": [],
					"stateMutability": "nonpayable",
					"type": "function"
				},
				{
					"inputs": [],
					"name": "stopDropsite",
					"outputs": [],
					"stateMutability": "nonpayable",
					"type": "function"
				},
				{
					"inputs": [
						{
							"internalType": "address payable",
							"name": "to",
							"type": "address"
						}
					],
					"name": "withDraw",
					"outputs": [],
					"stateMutability": "payable",
					"type": "function"
				}
			],
			"devdoc": {
				"kind": "dev",
				"methods": {},
				"version": 1
			},
			"evm": {
				"assembly": "    /* \"Dropsite.sol\":146:7064  contract Dropsite is ERC1155_Dropsite  { ... */\n  mstore(0x40, 0x80)\n    /* \"Dropsite.sol\":241:257  string  data =\"\" */\n  mload(0x40)\n  dup1\n  0x20\n  add\n  0x40\n  mstore\n  dup1\n  0x00\n  dup2\n  mstore\n  pop\n  0x02\n  swap1\n  dup1\n  mload\n  swap1\n  0x20\n  add\n  swap1\n  tag_1\n  swap3\n  swap2\n  swap1\n  tag_2\n  jump\t// in\ntag_1:\n  pop\n    /* \"Dropsite.sol\":440:506  uint8[20] private nums = [0,1,1,2,2,2,2,2,2,2,2,2,2,2,2,2,2,2,2,2] */\n  mload(0x40)\n  dup1\n  0x0280\n  add\n  0x40\n  mstore\n  dup1\n    /* \"Dropsite.sol\":466:467  0 */\n  0x00\n    /* \"Dropsite.sol\":440:506  uint8[20] private nums = [0,1,1,2,2,2,2,2,2,2,2,2,2,2,2,2,2,2,2,2] */\n  0xff\n  and\n  dup2\n  mstore\n  0x20\n  add\n    /* \"Dropsite.sol\":468:469  1 */\n  0x01\n    /* \"Dropsite.sol\":440:506  uint8[20] private nums = [0,1,1,2,2,2,2,2,2,2,2,2,2,2,2,2,2,2,2,2] */\n  0xff\n  and\n  dup2\n  mstore\n  0x20\n  add\n    /* \"Dropsite.sol\":470:471  1 */\n  0x01\n    /* \"Dropsite.sol\":440:506  uint8[20] private nums = [0,1,1,2,2,2,2,2,2,2,2,2,2,2,2,2,2,2,2,2] */\n  0xff\n  and\n  dup2\n  mstore\n  0x20\n  add\n    /* \"Dropsite.sol\":472:473  2 */\n  0x02\n    /* \"Dropsite.sol\":440:506  uint8[20] private nums = [0,1,1,2,2,2,2,2,2,2,2,2,2,2,2,2,2,2,2,2] */\n  0xff\n  and\n  dup2\n  mstore\n  0x20\n  add\n    /* \"Dropsite.sol\":474:475  2 */\n  0x02\n    /* \"Dropsite.sol\":440:506  uint8[20] private nums = [0,1,1,2,2,2,2,2,2,2,2,2,2,2,2,2,2,2,2,2] */\n  0xff\n  and\n  dup2\n  mstore\n  0x20\n  add\n    /* \"Dropsite.sol\":476:477  2 */\n  0x02\n    /* \"Dropsite.sol\":440:506  uint8[20] private nums = [0,1,1,2,2,2,2,2,2,2,2,2,2,2,2,2,2,2,2,2] */\n  0xff\n  and\n  dup2\n  mstore\n  0x20\n  add\n    /* \"Dropsite.sol\":478:479  2 */\n  0x02\n    /* \"Dropsite.sol\":440:506  uint8[20] private nums = [0,1,1,2,2,2,2,2,2,2,2,2,2,2,2,2,2,2,2,2] */\n  0xff\n  and\n  dup2\n  mstore\n  0x20\n  add\n    /* \"Dropsite.sol\":480:481  2 */\n  0x02\n    /* \"Dropsite.sol\":440:506  uint8[20] private nums = [0,1,1,2,2,2,2,2,2,2,2,2,2,2,2,2,2,2,2,2] */\n  0xff\n  and\n  dup2\n  mstore\n  0x20\n  add\n    /* \"Dropsite.sol\":482:483  2 */\n  0x02\n    /* \"Dropsite.sol\":440:506  uint8[20] private nums = [0,1,1,2,2,2,2,2,2,2,2,2,2,2,2,2,2,2,2,2] */\n  0xff\n  and\n  dup2\n  mstore\n  0x20\n  add\n    /* \"Dropsite.sol\":484:485  2 */\n  0x02\n    /* \"Dropsite.sol\":440:506  uint8[20] private nums = [0,1,1,2,2,2,2,2,2,2,2,2,2,2,2,2,2,2,2,2] */\n  0xff\n  and\n  dup2\n  mstore\n  0x20\n  add\n    /* \"Dropsite.sol\":486:487  2 */\n  0x02\n    /* \"Dropsite.sol\":440:506  uint8[20] private nums = [0,1,1,2,2,2,2,2,2,2,2,2,2,2,2,2,2,2,2,2] */\n  0xff\n  and\n  dup2\n  mstore\n  0x20\n  add\n    /* \"Dropsite.sol\":488:489  2 */\n  0x02\n    /* \"Dropsite.sol\":440:506  uint8[20] private nums = [0,1,1,2,2,2,2,2,2,2,2,2,2,2,2,2,2,2,2,2] */\n  0xff\n  and\n  dup2\n  mstore\n  0x20\n  add\n    /* \"Dropsite.sol\":490:491  2 */\n  0x02\n    /* \"Dropsite.sol\":440:506  uint8[20] private nums = [0,1,1,2,2,2,2,2,2,2,2,2,2,2,2,2,2,2,2,2] */\n  0xff\n  and\n  dup2\n  mstore\n  0x20\n  add\n    /* \"Dropsite.sol\":492:493  2 */\n  0x02\n    /* \"Dropsite.sol\":440:506  uint8[20] private nums = [0,1,1,2,2,2,2,2,2,2,2,2,2,2,2,2,2,2,2,2] */\n  0xff\n  and\n  dup2\n  mstore\n  0x20\n  add\n    /* \"Dropsite.sol\":494:495  2 */\n  0x02\n    /* \"Dropsite.sol\":440:506  uint8[20] private nums = [0,1,1,2,2,2,2,2,2,2,2,2,2,2,2,2,2,2,2,2] */\n  0xff\n  and\n  dup2\n  mstore\n  0x20\n  add\n    /* \"Dropsite.sol\":496:497  2 */\n  0x02\n    /* \"Dropsite.sol\":440:506  uint8[20] private nums = [0,1,1,2,2,2,2,2,2,2,2,2,2,2,2,2,2,2,2,2] */\n  0xff\n  and\n  dup2\n  mstore\n  0x20\n  add\n    /* \"Dropsite.sol\":498:499  2 */\n  0x02\n    /* \"Dropsite.sol\":440:506  uint8[20] private nums = [0,1,1,2,2,2,2,2,2,2,2,2,2,2,2,2,2,2,2,2] */\n  0xff\n  and\n  dup2\n  mstore\n  0x20\n  add\n    /* \"Dropsite.sol\":500:501  2 */\n  0x02\n    /* \"Dropsite.sol\":440:506  uint8[20] private nums = [0,1,1,2,2,2,2,2,2,2,2,2,2,2,2,2,2,2,2,2] */\n  0xff\n  and\n  dup2\n  mstore\n  0x20\n  add\n    /* \"Dropsite.sol\":502:503  2 */\n  0x02\n    /* \"Dropsite.sol\":440:506  uint8[20] private nums = [0,1,1,2,2,2,2,2,2,2,2,2,2,2,2,2,2,2,2,2] */\n  0xff\n  and\n  dup2\n  mstore\n  0x20\n  add\n    /* \"Dropsite.sol\":504:505  2 */\n  0x02\n    /* \"Dropsite.sol\":440:506  uint8[20] private nums = [0,1,1,2,2,2,2,2,2,2,2,2,2,2,2,2,2,2,2,2] */\n  0xff\n  and\n  dup2\n  mstore\n  pop\n  0x03\n  swap1\n  0x14\n  tag_3\n  swap3\n  swap2\n  swap1\n  tag_4\n  jump\t// in\ntag_3:\n  pop\n    /* \"Dropsite.sol\":1276:1280  true */\n  0x01\n    /* \"Dropsite.sol\":1253:1280  bool public IsPaused = true */\n  0x0c\n  exp(0x0100, 0x00)\n  dup2\n  sload\n  dup2\n  0xff\n  mul\n  not\n  and\n  swap1\n  dup4\n  iszero\n  iszero\n  mul\n  or\n  swap1\n  sstore\n  pop\n    /* \"Dropsite.sol\":1347:1622  constructor (string memory name){... */\n  callvalue\n  dup1\n  iszero\n  tag_5\n  jumpi\n  0x00\n  dup1\n  revert\ntag_5:\n  pop\n  mload(0x40)\n  sub(codesize, bytecodeSize)\n  dup1\n  bytecodeSize\n  dup4\n  codecopy\n  dup2\n  dup2\n  add\n  0x40\n  mstore\n  dup2\n  add\n  swap1\n  tag_6\n  swap2\n  swap1\n  tag_7\n  jump\t// in\ntag_6:\n    /* \"Dropsite.sol\":1397:1401  name */\n  dup1\n    /* \"Dropsite.sol\":1389:1394  _name */\n  0x0d\n    /* \"Dropsite.sol\":1389:1401  _name = name */\n  swap1\n  dup1\n  mload\n  swap1\n  0x20\n  add\n  swap1\n  tag_10\n  swap3\n  swap2\n  swap1\n  tag_2\n  jump\t// in\ntag_10:\n  pop\n    /* \"Dropsite.sol\":1427:1437  msg.sender */\n  caller\n    /* \"Dropsite.sol\":1411:1416  Owner */\n  0x0c\n  0x01\n    /* \"Dropsite.sol\":1411:1438  Owner = payable(msg.sender) */\n  0x0100\n  exp\n  dup2\n  sload\n  dup2\n  0xffffffffffffffffffffffffffffffffffffffff\n  mul\n  not\n  and\n  swap1\n  dup4\n  0xffffffffffffffffffffffffffffffffffffffff\n  and\n  mul\n  or\n  swap1\n  sstore\n  pop\n    /* \"Dropsite.sol\":1465:1466  0 */\n  0x00\n    /* \"Dropsite.sol\":1449:1464  TotalNFTsMinted */\n  0x04\n    /* \"Dropsite.sol\":1449:1466  TotalNFTsMinted=0 */\n  dup2\n  swap1\n  sstore\n  pop\n    /* \"Dropsite.sol\":1512:1513  1 */\n  0x01\n    /* \"Dropsite.sol\":1500:1511  numOfCopies */\n  0x05\n    /* \"Dropsite.sol\":1500:1513  numOfCopies=1 */\n  dup2\n  swap1\n  sstore\n  pop\n    /* \"Dropsite.sol\":1568:1569  0 */\n  0x00\n    /* \"Dropsite.sol\":1560:1567  Diamond */\n  0x07\n    /* \"Dropsite.sol\":1560:1569  Diamond=0 */\n  dup2\n  swap1\n  sstore\n  pop\n    /* \"Dropsite.sol\":1596:1597  0 */\n  0x00\n    /* \"Dropsite.sol\":1591:1595  Gold */\n  0x08\n    /* \"Dropsite.sol\":1591:1597  Gold=0 */\n  dup2\n  swap1\n  sstore\n  pop\n    /* \"Dropsite.sol\":1614:1615  0 */\n  0x00\n    /* \"Dropsite.sol\":1607:1613  Silver */\n  0x09\n    /* \"Dropsite.sol\":1607:1615  Silver=0 */\n  dup2\n  swap1\n  sstore\n  pop\n    /* \"Dropsite.sol\":1347:1622  constructor (string memory name){... */\n  pop\n    /* \"Dropsite.sol\":146:7064  contract Dropsite is ERC1155_Dropsite  { ... */\n  jump(tag_11)\ntag_2:\n  dup3\n  dup1\n  sload\n  tag_12\n  swap1\n  tag_13\n  jump\t// in\ntag_12:\n  swap1\n  0x00\n  mstore\n  keccak256(0x00, 0x20)\n  swap1\n  0x1f\n  add\n  0x20\n  swap1\n  div\n  dup2\n  add\n  swap3\n  dup3\n  tag_15\n  jumpi\n  0x00\n  dup6\n  sstore\n  jump(tag_14)\ntag_15:\n  dup3\n  0x1f\n  lt\n  tag_16\n  jumpi\n  dup1\n  mload\n  not(0xff)\n  and\n  dup4\n  dup1\n  add\n  or\n  dup6\n  sstore\n  jump(tag_14)\ntag_16:\n  dup3\n  dup1\n  add\n  0x01\n  add\n  dup6\n  sstore\n  dup3\n  iszero\n  tag_14\n  jumpi\n  swap2\n  dup3\n  add\ntag_17:\n  dup3\n  dup2\n  gt\n  iszero\n  tag_18\n  jumpi\n  dup3\n  mload\n  dup3\n  sstore\n  swap2\n  0x20\n  add\n  swap2\n  swap1\n  0x01\n  add\n  swap1\n  jump(tag_17)\ntag_18:\ntag_14:\n  pop\n  swap1\n  pop\n  tag_19\n  swap2\n  swap1\n  tag_20\n  jump\t// in\ntag_19:\n  pop\n  swap1\n  jump\t// out\ntag_4:\n  dup3\n  add(0x1f, 0x14)\n  0x20\n  swap1\n  div\n  dup2\n  add\n  swap3\n  dup3\n  iszero\n  tag_21\n  jumpi\n  swap2\n  0x20\n  mul\n  dup3\n  add\n  0x00\ntag_22:\n  dup4\n  dup3\n  gt\n  iszero\n  tag_23\n  jumpi\n  dup4\n  mload\n  dup4\n  dup3\n  0x0100\n  exp\n  dup2\n  sload\n  dup2\n  0xff\n  mul\n  not\n  and\n  swap1\n  dup4\n  0xff\n  and\n  mul\n  or\n  swap1\n  sstore\n  pop\n  swap3\n  0x20\n  add\n  swap3\n  0x01\n  add\n  0x20\n  dup2\n  0x00\n  add\n  div\n  swap3\n  dup4\n  add\n  swap3\n  0x01\n  sub\n  mul\n  jump(tag_22)\ntag_23:\n  dup1\n  iszero\n  tag_24\n  jumpi\n  dup3\n  dup2\n  0x0100\n  exp\n  dup2\n  sload\n  swap1\n  0xff\n  mul\n  not\n  and\n  swap1\n  sstore\n  0x01\n  add\n  0x20\n  dup2\n  0x00\n  add\n  div\n  swap3\n  dup4\n  add\n  swap3\n  0x01\n  sub\n  mul\n  jump(tag_23)\ntag_24:\n  pop\ntag_21:\n  pop\n  swap1\n  pop\n  tag_25\n  swap2\n  swap1\n  tag_20\n  jump\t// in\ntag_25:\n  pop\n  swap1\n  jump\t// out\ntag_20:\ntag_26:\n  dup1\n  dup3\n  gt\n  iszero\n  tag_27\n  jumpi\n  0x00\n  dup2\n  0x00\n  swap1\n  sstore\n  pop\n  0x01\n  add\n  jump(tag_26)\ntag_27:\n  pop\n  swap1\n  jump\t// out\n    /* \"#utility.yul\":7:428   */\ntag_29:\n    /* \"#utility.yul\":96:101   */\n  0x00\n    /* \"#utility.yul\":121:187   */\n  tag_31\n    /* \"#utility.yul\":137:186   */\n  tag_32\n    /* \"#utility.yul\":179:185   */\n  dup5\n    /* \"#utility.yul\":137:186   */\n  tag_33\n  jump\t// in\ntag_32:\n    /* \"#utility.yul\":121:187   */\n  tag_34\n  jump\t// in\ntag_31:\n    /* \"#utility.yul\":112:187   */\n  swap1\n  pop\n    /* \"#utility.yul\":210:216   */\n  dup3\n    /* \"#utility.yul\":203:208   */\n  dup2\n    /* \"#utility.yul\":196:217   */\n  mstore\n    /* \"#utility.yul\":248:252   */\n  0x20\n    /* \"#utility.yul\":241:246   */\n  dup2\n    /* \"#utility.yul\":237:253   */\n  add\n    /* \"#utility.yul\":286:289   */\n  dup5\n    /* \"#utility.yul\":277:283   */\n  dup5\n    /* \"#utility.yul\":272:275   */\n  dup5\n    /* \"#utility.yul\":268:284   */\n  add\n    /* \"#utility.yul\":265:290   */\n  gt\n    /* \"#utility.yul\":262:374   */\n  iszero\n  tag_35\n  jumpi\n    /* \"#utility.yul\":293:372   */\n  tag_36\n  tag_37\n  jump\t// in\ntag_36:\n    /* \"#utility.yul\":262:374   */\ntag_35:\n    /* \"#utility.yul\":383:422   */\n  tag_38\n    /* \"#utility.yul\":415:421   */\n  dup5\n    /* \"#utility.yul\":410:413   */\n  dup3\n    /* \"#utility.yul\":405:408   */\n  dup6\n    /* \"#utility.yul\":383:422   */\n  tag_39\n  jump\t// in\ntag_38:\n    /* \"#utility.yul\":102:428   */\n  pop\n    /* \"#utility.yul\":7:428   */\n  swap4\n  swap3\n  pop\n  pop\n  pop\n  jump\t// out\n    /* \"#utility.yul\":448:803   */\ntag_40:\n    /* \"#utility.yul\":515:520   */\n  0x00\n    /* \"#utility.yul\":564:567   */\n  dup3\n    /* \"#utility.yul\":557:561   */\n  0x1f\n    /* \"#utility.yul\":549:555   */\n  dup4\n    /* \"#utility.yul\":545:562   */\n  add\n    /* \"#utility.yul\":541:568   */\n  slt\n    /* \"#utility.yul\":531:653   */\n  tag_42\n  jumpi\n    /* \"#utility.yul\":572:651   */\n  tag_43\n  tag_44\n  jump\t// in\ntag_43:\n    /* \"#utility.yul\":531:653   */\ntag_42:\n    /* \"#utility.yul\":682:688   */\n  dup2\n    /* \"#utility.yul\":676:689   */\n  mload\n    /* \"#utility.yul\":707:797   */\n  tag_45\n    /* \"#utility.yul\":793:796   */\n  dup5\n    /* \"#utility.yul\":785:791   */\n  dup3\n    /* \"#utility.yul\":778:782   */\n  0x20\n    /* \"#utility.yul\":770:776   */\n  dup7\n    /* \"#utility.yul\":766:783   */\n  add\n    /* \"#utility.yul\":707:797   */\n  tag_29\n  jump\t// in\ntag_45:\n    /* \"#utility.yul\":698:797   */\n  swap2\n  pop\n    /* \"#utility.yul\":521:803   */\n  pop\n    /* \"#utility.yul\":448:803   */\n  swap3\n  swap2\n  pop\n  pop\n  jump\t// out\n    /* \"#utility.yul\":809:1333   */\ntag_7:\n    /* \"#utility.yul\":889:895   */\n  0x00\n    /* \"#utility.yul\":938:940   */\n  0x20\n    /* \"#utility.yul\":926:935   */\n  dup3\n    /* \"#utility.yul\":917:924   */\n  dup5\n    /* \"#utility.yul\":913:936   */\n  sub\n    /* \"#utility.yul\":909:941   */\n  slt\n    /* \"#utility.yul\":906:1025   */\n  iszero\n  tag_47\n  jumpi\n    /* \"#utility.yul\":944:1023   */\n  tag_48\n  tag_49\n  jump\t// in\ntag_48:\n    /* \"#utility.yul\":906:1025   */\ntag_47:\n    /* \"#utility.yul\":1085:1086   */\n  0x00\n    /* \"#utility.yul\":1074:1083   */\n  dup3\n    /* \"#utility.yul\":1070:1087   */\n  add\n    /* \"#utility.yul\":1064:1088   */\n  mload\n    /* \"#utility.yul\":1115:1133   */\n  0xffffffffffffffff\n    /* \"#utility.yul\":1107:1113   */\n  dup2\n    /* \"#utility.yul\":1104:1134   */\n  gt\n    /* \"#utility.yul\":1101:1218   */\n  iszero\n  tag_50\n  jumpi\n    /* \"#utility.yul\":1137:1216   */\n  tag_51\n  tag_52\n  jump\t// in\ntag_51:\n    /* \"#utility.yul\":1101:1218   */\ntag_50:\n    /* \"#utility.yul\":1242:1316   */\n  tag_53\n    /* \"#utility.yul\":1308:1315   */\n  dup5\n    /* \"#utility.yul\":1299:1305   */\n  dup3\n    /* \"#utility.yul\":1288:1297   */\n  dup6\n    /* \"#utility.yul\":1284:1306   */\n  add\n    /* \"#utility.yul\":1242:1316   */\n  tag_40\n  jump\t// in\ntag_53:\n    /* \"#utility.yul\":1232:1316   */\n  swap2\n  pop\n    /* \"#utility.yul\":1035:1326   */\n  pop\n    /* \"#utility.yul\":809:1333   */\n  swap3\n  swap2\n  pop\n  pop\n  jump\t// out\n    /* \"#utility.yul\":1339:1468   */\ntag_34:\n    /* \"#utility.yul\":1373:1379   */\n  0x00\n    /* \"#utility.yul\":1400:1420   */\n  tag_55\n  tag_56\n  jump\t// in\ntag_55:\n    /* \"#utility.yul\":1390:1420   */\n  swap1\n  pop\n    /* \"#utility.yul\":1429:1462   */\n  tag_57\n    /* \"#utility.yul\":1457:1461   */\n  dup3\n    /* \"#utility.yul\":1449:1455   */\n  dup3\n    /* \"#utility.yul\":1429:1462   */\n  tag_58\n  jump\t// in\ntag_57:\n    /* \"#utility.yul\":1339:1468   */\n  swap2\n  swap1\n  pop\n  jump\t// out\n    /* \"#utility.yul\":1474:1549   */\ntag_56:\n    /* \"#utility.yul\":1507:1513   */\n  0x00\n    /* \"#utility.yul\":1540:1542   */\n  0x40\n    /* \"#utility.yul\":1534:1543   */\n  mload\n    /* \"#utility.yul\":1524:1543   */\n  swap1\n  pop\n    /* \"#utility.yul\":1474:1549   */\n  swap1\n  jump\t// out\n    /* \"#utility.yul\":1555:1863   */\ntag_33:\n    /* \"#utility.yul\":1617:1621   */\n  0x00\n    /* \"#utility.yul\":1707:1725   */\n  0xffffffffffffffff\n    /* \"#utility.yul\":1699:1705   */\n  dup3\n    /* \"#utility.yul\":1696:1726   */\n  gt\n    /* \"#utility.yul\":1693:1749   */\n  iszero\n  tag_61\n  jumpi\n    /* \"#utility.yul\":1729:1747   */\n  tag_62\n  tag_63\n  jump\t// in\ntag_62:\n    /* \"#utility.yul\":1693:1749   */\ntag_61:\n    /* \"#utility.yul\":1767:1796   */\n  tag_64\n    /* \"#utility.yul\":1789:1795   */\n  dup3\n    /* \"#utility.yul\":1767:1796   */\n  tag_65\n  jump\t// in\ntag_64:\n    /* \"#utility.yul\":1759:1796   */\n  swap1\n  pop\n    /* \"#utility.yul\":1851:1855   */\n  0x20\n    /* \"#utility.yul\":1845:1849   */\n  dup2\n    /* \"#utility.yul\":1841:1856   */\n  add\n    /* \"#utility.yul\":1833:1856   */\n  swap1\n  pop\n    /* \"#utility.yul\":1555:1863   */\n  swap2\n  swap1\n  pop\n  jump\t// out\n    /* \"#utility.yul\":1869:2176   */\ntag_39:\n    /* \"#utility.yul\":1937:1938   */\n  0x00\n    /* \"#utility.yul\":1947:2060   */\ntag_67:\n    /* \"#utility.yul\":1961:1967   */\n  dup4\n    /* \"#utility.yul\":1958:1959   */\n  dup2\n    /* \"#utility.yul\":1955:1968   */\n  lt\n    /* \"#utility.yul\":1947:2060   */\n  iszero\n  tag_69\n  jumpi\n    /* \"#utility.yul\":2046:2047   */\n  dup1\n    /* \"#utility.yul\":2041:2044   */\n  dup3\n    /* \"#utility.yul\":2037:2048   */\n  add\n    /* \"#utility.yul\":2031:2049   */\n  mload\n    /* \"#utility.yul\":2027:2028   */\n  dup2\n    /* \"#utility.yul\":2022:2025   */\n  dup5\n    /* \"#utility.yul\":2018:2029   */\n  add\n    /* \"#utility.yul\":2011:2050   */\n  mstore\n    /* \"#utility.yul\":1983:1985   */\n  0x20\n    /* \"#utility.yul\":1980:1981   */\n  dup2\n    /* \"#utility.yul\":1976:1986   */\n  add\n    /* \"#utility.yul\":1971:1986   */\n  swap1\n  pop\n    /* \"#utility.yul\":1947:2060   */\n  jump(tag_67)\ntag_69:\n    /* \"#utility.yul\":2078:2084   */\n  dup4\n    /* \"#utility.yul\":2075:2076   */\n  dup2\n    /* \"#utility.yul\":2072:2085   */\n  gt\n    /* \"#utility.yul\":2069:2170   */\n  iszero\n  tag_70\n  jumpi\n    /* \"#utility.yul\":2158:2159   */\n  0x00\n    /* \"#utility.yul\":2149:2155   */\n  dup5\n    /* \"#utility.yul\":2144:2147   */\n  dup5\n    /* \"#utility.yul\":2140:2156   */\n  add\n    /* \"#utility.yul\":2133:2160   */\n  mstore\n    /* \"#utility.yul\":2069:2170   */\ntag_70:\n    /* \"#utility.yul\":1918:2176   */\n  pop\n    /* \"#utility.yul\":1869:2176   */\n  pop\n  pop\n  pop\n  jump\t// out\n    /* \"#utility.yul\":2182:2502   */\ntag_13:\n    /* \"#utility.yul\":2226:2232   */\n  0x00\n    /* \"#utility.yul\":2263:2264   */\n  0x02\n    /* \"#utility.yul\":2257:2261   */\n  dup3\n    /* \"#utility.yul\":2253:2265   */\n  div\n    /* \"#utility.yul\":2243:2265   */\n  swap1\n  pop\n    /* \"#utility.yul\":2310:2311   */\n  0x01\n    /* \"#utility.yul\":2304:2308   */\n  dup3\n    /* \"#utility.yul\":2300:2312   */\n  and\n    /* \"#utility.yul\":2331:2349   */\n  dup1\n    /* \"#utility.yul\":2321:2402   */\n  tag_72\n  jumpi\n    /* \"#utility.yul\":2387:2391   */\n  0x7f\n    /* \"#utility.yul\":2379:2385   */\n  dup3\n    /* \"#utility.yul\":2375:2392   */\n  and\n    /* \"#utility.yul\":2365:2392   */\n  swap2\n  pop\n    /* \"#utility.yul\":2321:2402   */\ntag_72:\n    /* \"#utility.yul\":2449:2451   */\n  0x20\n    /* \"#utility.yul\":2441:2447   */\n  dup3\n    /* \"#utility.yul\":2438:2452   */\n  lt\n    /* \"#utility.yul\":2418:2436   */\n  dup2\n    /* \"#utility.yul\":2415:2453   */\n  eq\n    /* \"#utility.yul\":2412:2496   */\n  iszero\n  tag_73\n  jumpi\n    /* \"#utility.yul\":2468:2486   */\n  tag_74\n  tag_75\n  jump\t// in\ntag_74:\n    /* \"#utility.yul\":2412:2496   */\ntag_73:\n    /* \"#utility.yul\":2233:2502   */\n  pop\n    /* \"#utility.yul\":2182:2502   */\n  swap2\n  swap1\n  pop\n  jump\t// out\n    /* \"#utility.yul\":2508:2789   */\ntag_58:\n    /* \"#utility.yul\":2591:2618   */\n  tag_77\n    /* \"#utility.yul\":2613:2617   */\n  dup3\n    /* \"#utility.yul\":2591:2618   */\n  tag_65\n  jump\t// in\ntag_77:\n    /* \"#utility.yul\":2583:2589   */\n  dup2\n    /* \"#utility.yul\":2579:2619   */\n  add\n    /* \"#utility.yul\":2721:2727   */\n  dup2\n    /* \"#utility.yul\":2709:2719   */\n  dup2\n    /* \"#utility.yul\":2706:2728   */\n  lt\n    /* \"#utility.yul\":2685:2703   */\n  0xffffffffffffffff\n    /* \"#utility.yul\":2673:2683   */\n  dup3\n    /* \"#utility.yul\":2670:2704   */\n  gt\n    /* \"#utility.yul\":2667:2729   */\n  or\n    /* \"#utility.yul\":2664:2752   */\n  iszero\n  tag_78\n  jumpi\n    /* \"#utility.yul\":2732:2750   */\n  tag_79\n  tag_63\n  jump\t// in\ntag_79:\n    /* \"#utility.yul\":2664:2752   */\ntag_78:\n    /* \"#utility.yul\":2772:2782   */\n  dup1\n    /* \"#utility.yul\":2768:2770   */\n  0x40\n    /* \"#utility.yul\":2761:2783   */\n  mstore\n    /* \"#utility.yul\":2551:2789   */\n  pop\n    /* \"#utility.yul\":2508:2789   */\n  pop\n  pop\n  jump\t// out\n    /* \"#utility.yul\":2795:2975   */\ntag_75:\n    /* \"#utility.yul\":2843:2920   */\n  0x4e487b7100000000000000000000000000000000000000000000000000000000\n    /* \"#utility.yul\":2840:2841   */\n  0x00\n    /* \"#utility.yul\":2833:2921   */\n  mstore\n    /* \"#utility.yul\":2940:2944   */\n  0x22\n    /* \"#utility.yul\":2937:2938   */\n  0x04\n    /* \"#utility.yul\":2930:2945   */\n  mstore\n    /* \"#utility.yul\":2964:2968   */\n  0x24\n    /* \"#utility.yul\":2961:2962   */\n  0x00\n    /* \"#utility.yul\":2954:2969   */\n  revert\n    /* \"#utility.yul\":2981:3161   */\ntag_63:\n    /* \"#utility.yul\":3029:3106   */\n  0x4e487b7100000000000000000000000000000000000000000000000000000000\n    /* \"#utility.yul\":3026:3027   */\n  0x00\n    /* \"#utility.yul\":3019:3107   */\n  mstore\n    /* \"#utility.yul\":3126:3130   */\n  0x41\n    /* \"#utility.yul\":3123:3124   */\n  0x04\n    /* \"#utility.yul\":3116:3131   */\n  mstore\n    /* \"#utility.yul\":3150:3154   */\n  0x24\n    /* \"#utility.yul\":3147:3148   */\n  0x00\n    /* \"#utility.yul\":3140:3155   */\n  revert\n    /* \"#utility.yul\":3167:3284   */\ntag_44:\n    /* \"#utility.yul\":3276:3277   */\n  0x00\n    /* \"#utility.yul\":3273:3274   */\n  dup1\n    /* \"#utility.yul\":3266:3278   */\n  revert\n    /* \"#utility.yul\":3290:3407   */\ntag_37:\n    /* \"#utility.yul\":3399:3400   */\n  0x00\n    /* \"#utility.yul\":3396:3397   */\n  dup1\n    /* \"#utility.yul\":3389:3401   */\n  revert\n    /* \"#utility.yul\":3413:3530   */\ntag_52:\n    /* \"#utility.yul\":3522:3523   */\n  0x00\n    /* \"#utility.yul\":3519:3520   */\n  dup1\n    /* \"#utility.yul\":3512:3524   */\n  revert\n    /* \"#utility.yul\":3536:3653   */\ntag_49:\n    /* \"#utility.yul\":3645:3646   */\n  0x00\n    /* \"#utility.yul\":3642:3643   */\n  dup1\n    /* \"#utility.yul\":3635:3647   */\n  revert\n    /* \"#utility.yul\":3659:3761   */\ntag_65:\n    /* \"#utility.yul\":3700:3706   */\n  0x00\n    /* \"#utility.yul\":3751:3753   */\n  0x1f\n    /* \"#utility.yul\":3747:3754   */\n  not\n    /* \"#utility.yul\":3742:3744   */\n  0x1f\n    /* \"#utility.yul\":3735:3740   */\n  dup4\n    /* \"#utility.yul\":3731:3745   */\n  add\n    /* \"#utility.yul\":3727:3755   */\n  and\n    /* \"#utility.yul\":3717:3755   */\n  swap1\n  pop\n    /* \"#utility.yul\":3659:3761   */\n  swap2\n  swap1\n  pop\n  jump\t// out\n    /* \"Dropsite.sol\":146:7064  contract Dropsite is ERC1155_Dropsite  { ... */\ntag_11:\n  dataSize(sub_0)\n  dup1\n  dataOffset(sub_0)\n  0x00\n  codecopy\n  0x00\n  return\nstop\n\nsub_0: assembly {\n        /* \"Dropsite.sol\":146:7064  contract Dropsite is ERC1155_Dropsite  { ... */\n      mstore(0x40, 0x80)\n      jumpi(tag_1, lt(calldatasize, 0x04))\n      shr(0xe0, calldataload(0x00))\n      dup1\n      0x59ba3124\n      gt\n      tag_16\n      jumpi\n      dup1\n      0xaa90c726\n      gt\n      tag_17\n      jumpi\n      dup1\n      0xaa90c726\n      eq\n      tag_12\n      jumpi\n      dup1\n      0xb4a99a4e\n      eq\n      tag_13\n      jumpi\n      dup1\n      0xeddd0d9c\n      eq\n      tag_14\n      jumpi\n      dup1\n      0xfd6c3b1b\n      eq\n      tag_15\n      jumpi\n      jump(tag_1)\n    tag_17:\n      dup1\n      0x59ba3124\n      eq\n      tag_9\n      jumpi\n      dup1\n      0x60daa851\n      eq\n      tag_10\n      jumpi\n      dup1\n      0x7a5caab3\n      eq\n      tag_11\n      jumpi\n      jump(tag_1)\n    tag_16:\n      dup1\n      0x15460259\n      gt\n      tag_18\n      jumpi\n      dup1\n      0x15460259\n      eq\n      tag_5\n      jumpi\n      dup1\n      0x27a8a072\n      eq\n      tag_6\n      jumpi\n      dup1\n      0x3b668059\n      eq\n      tag_7\n      jumpi\n      dup1\n      0x546fd992\n      eq\n      tag_8\n      jumpi\n      jump(tag_1)\n    tag_18:\n      dup1\n      0x0390c11c\n      eq\n      tag_2\n      jumpi\n      dup1\n      0x0a67d2c7\n      eq\n      tag_3\n      jumpi\n      dup1\n      0x1309a563\n      eq\n      tag_4\n      jumpi\n    tag_1:\n      0x00\n      dup1\n      revert\n        /* \"Dropsite.sol\":2314:2418  function checkTotalMinted() public view OnlyOwner returns(uint){... */\n    tag_2:\n      callvalue\n      dup1\n      iszero\n      tag_19\n      jumpi\n      0x00\n      dup1\n      revert\n    tag_19:\n      pop\n      tag_20\n      tag_21\n      jump\t// in\n    tag_20:\n      mload(0x40)\n      tag_22\n      swap2\n      swap1\n      tag_23\n      jump\t// in\n    tag_22:\n      mload(0x40)\n      dup1\n      swap2\n      sub\n      swap1\n      return\n        /* \"Dropsite.sol\":2797:3011  function withDraw(address payable to) public payable OnlyOwner {... */\n    tag_3:\n      tag_24\n      0x04\n      dup1\n      calldatasize\n      sub\n      dup2\n      add\n      swap1\n      tag_25\n      swap2\n      swap1\n      tag_26\n      jump\t// in\n    tag_25:\n      tag_27\n      jump\t// in\n    tag_24:\n      stop\n        /* \"Dropsite.sol\":1253:1280  bool public IsPaused = true */\n    tag_4:\n      callvalue\n      dup1\n      iszero\n      tag_28\n      jumpi\n      0x00\n      dup1\n      revert\n    tag_28:\n      pop\n      tag_29\n      tag_30\n      jump\t// in\n    tag_29:\n      mload(0x40)\n      tag_31\n      swap2\n      swap1\n      tag_32\n      jump\t// in\n    tag_31:\n      mload(0x40)\n      dup1\n      swap2\n      sub\n      swap1\n      return\n        /* \"Dropsite.sol\":2566:2702  function openDropsite() public OnlyOwner {... */\n    tag_5:\n      callvalue\n      dup1\n      iszero\n      tag_33\n      jumpi\n      0x00\n      dup1\n      revert\n    tag_33:\n      pop\n      tag_34\n      tag_35\n      jump\t// in\n    tag_34:\n      stop\n        /* \"Dropsite.sol\":5832:6271  function FiatRandomMint(address user_addr, uint noOfMints) OnlyOwner contractIsNotPaused public  returns (uint[] memory) {... */\n    tag_6:\n      callvalue\n      dup1\n      iszero\n      tag_36\n      jumpi\n      0x00\n      dup1\n      revert\n    tag_36:\n      pop\n      tag_37\n      0x04\n      dup1\n      calldatasize\n      sub\n      dup2\n      add\n      swap1\n      tag_38\n      swap2\n      swap1\n      tag_39\n      jump\t// in\n    tag_38:\n      tag_40\n      jump\t// in\n    tag_37:\n      mload(0x40)\n      tag_41\n      swap2\n      swap1\n      tag_42\n      jump\t// in\n    tag_41:\n      mload(0x40)\n      dup1\n      swap2\n      sub\n      swap1\n      return\n        /* \"Dropsite.sol\":3064:3172  function ContractBalance() public view OnlyOwner returns (uint){... */\n    tag_7:\n      callvalue\n      dup1\n      iszero\n      tag_43\n      jumpi\n      0x00\n      dup1\n      revert\n    tag_43:\n      pop\n      tag_44\n      tag_45\n      jump\t// in\n    tag_44:\n      mload(0x40)\n      tag_46\n      swap2\n      swap1\n      tag_23\n      jump\t// in\n    tag_46:\n      mload(0x40)\n      dup1\n      swap2\n      sub\n      swap1\n      return\n        /* \"Dropsite.sol\":5349:5785  function randomMinting(address user_addr) OnlyOwner contractIsNotPaused public payable returns (uint,string memory) {... */\n    tag_8:\n      tag_47\n      0x04\n      dup1\n      calldatasize\n      sub\n      dup2\n      add\n      swap1\n      tag_48\n      swap2\n      swap1\n      tag_49\n      jump\t// in\n    tag_48:\n      tag_50\n      jump\t// in\n    tag_47:\n      mload(0x40)\n      tag_51\n      swap3\n      swap2\n      swap1\n      tag_52\n      jump\t// in\n    tag_51:\n      mload(0x40)\n      dup1\n      swap2\n      sub\n      swap1\n      return\n        /* \"Dropsite.sol\":6489:7062  function CryptoRandomMint(address user_addr, uint noOfMints)  contractIsNotPaused public payable returns (uint[] memory) {... */\n    tag_9:\n      tag_53\n      0x04\n      dup1\n      calldatasize\n      sub\n      dup2\n      add\n      swap1\n      tag_54\n      swap2\n      swap1\n      tag_39\n      jump\t// in\n    tag_54:\n      tag_55\n      jump\t// in\n    tag_53:\n      mload(0x40)\n      tag_56\n      swap2\n      swap1\n      tag_42\n      jump\t// in\n    tag_56:\n      mload(0x40)\n      dup1\n      swap2\n      sub\n      swap1\n      return\n        /* \"Dropsite.sol\":1889:2036  function checkMintedCategoryWise() public view OnlyOwner contractIsNotPaused returns(uint,uint,uint){... */\n    tag_10:\n      callvalue\n      dup1\n      iszero\n      tag_57\n      jumpi\n      0x00\n      dup1\n      revert\n    tag_57:\n      pop\n      tag_58\n      tag_59\n      jump\t// in\n    tag_58:\n      mload(0x40)\n      tag_60\n      swap4\n      swap3\n      swap2\n      swap1\n      tag_61\n      jump\t// in\n    tag_60:\n      mload(0x40)\n      dup1\n      swap2\n      sub\n      swap1\n      return\n        /* \"Dropsite.sol\":2158:2269  function getMintFee() public view OnlyOwner contractIsNotPaused returns (uint) {... */\n    tag_11:\n      callvalue\n      dup1\n      iszero\n      tag_62\n      jumpi\n      0x00\n      dup1\n      revert\n    tag_62:\n      pop\n      tag_63\n      tag_64\n      jump\t// in\n    tag_63:\n      mload(0x40)\n      tag_65\n      swap2\n      swap1\n      tag_23\n      jump\t// in\n    tag_65:\n      mload(0x40)\n      dup1\n      swap2\n      sub\n      swap1\n      return\n        /* \"Dropsite.sol\":2424:2559  function stopDropsite() public OnlyOwner{... */\n    tag_12:\n      callvalue\n      dup1\n      iszero\n      tag_66\n      jumpi\n      0x00\n      dup1\n      revert\n    tag_66:\n      pop\n      tag_67\n      tag_68\n      jump\t// in\n    tag_67:\n      stop\n        /* \"Dropsite.sol\":1286:1315  address payable public  Owner */\n    tag_13:\n      callvalue\n      dup1\n      iszero\n      tag_69\n      jumpi\n      0x00\n      dup1\n      revert\n    tag_69:\n      pop\n      tag_70\n      tag_71\n      jump\t// in\n    tag_70:\n      mload(0x40)\n      tag_72\n      swap2\n      swap1\n      tag_73\n      jump\t// in\n    tag_72:\n      mload(0x40)\n      dup1\n      swap2\n      sub\n      swap1\n      return\n        /* \"Dropsite.sol\":2042:2148  function setMintFee(uint _mintFee) public OnlyOwner contractIsNotPaused {... */\n    tag_14:\n      callvalue\n      dup1\n      iszero\n      tag_74\n      jumpi\n      0x00\n      dup1\n      revert\n    tag_74:\n      pop\n      tag_75\n      0x04\n      dup1\n      calldatasize\n      sub\n      dup2\n      add\n      swap1\n      tag_76\n      swap2\n      swap1\n      tag_77\n      jump\t// in\n    tag_76:\n      tag_78\n      jump\t// in\n    tag_75:\n      stop\n        /* \"Dropsite.sol\":1670:1829  function returnOwner(address addr) public view contractIsNotPaused returns  (uint[] memory){... */\n    tag_15:\n      callvalue\n      dup1\n      iszero\n      tag_79\n      jumpi\n      0x00\n      dup1\n      revert\n    tag_79:\n      pop\n      tag_80\n      0x04\n      dup1\n      calldatasize\n      sub\n      dup2\n      add\n      swap1\n      tag_81\n      swap2\n      swap1\n      tag_49\n      jump\t// in\n    tag_81:\n      tag_82\n      jump\t// in\n    tag_80:\n      mload(0x40)\n      tag_83\n      swap2\n      swap1\n      tag_42\n      jump\t// in\n    tag_83:\n      mload(0x40)\n      dup1\n      swap2\n      sub\n      swap1\n      return\n        /* \"Dropsite.sol\":2314:2418  function checkTotalMinted() public view OnlyOwner returns(uint){... */\n    tag_21:\n        /* \"Dropsite.sol\":2372:2376  uint */\n      0x00\n        /* \"Dropsite.sol\":1025:1030  Owner */\n      0x0c\n      0x01\n      swap1\n      sload\n      swap1\n      0x0100\n      exp\n      swap1\n      div\n      0xffffffffffffffffffffffffffffffffffffffff\n      and\n        /* \"Dropsite.sol\":1009:1030  _msgSender() == Owner */\n      0xffffffffffffffffffffffffffffffffffffffff\n      and\n        /* \"Dropsite.sol\":1009:1021  _msgSender() */\n      tag_85\n        /* \"Dropsite.sol\":1009:1019  _msgSender */\n      tag_86\n        /* \"Dropsite.sol\":1009:1021  _msgSender() */\n      jump\t// in\n    tag_85:\n        /* \"Dropsite.sol\":1009:1030  _msgSender() == Owner */\n      0xffffffffffffffffffffffffffffffffffffffff\n      and\n      eq\n        /* \"Dropsite.sol\":1001:1063  require(_msgSender() == Owner, \"Only NFT-ES Owner can Access\") */\n      tag_87\n      jumpi\n      mload(0x40)\n      0x08c379a000000000000000000000000000000000000000000000000000000000\n      dup2\n      mstore\n      0x04\n      add\n      tag_88\n      swap1\n      tag_89\n      jump\t// in\n    tag_88:\n      mload(0x40)\n      dup1\n      swap2\n      sub\n      swap1\n      revert\n    tag_87:\n        /* \"Dropsite.sol\":2395:2410  TotalNFTsMinted */\n      sload(0x04)\n        /* \"Dropsite.sol\":2388:2410  return TotalNFTsMinted */\n      swap1\n      pop\n        /* \"Dropsite.sol\":2314:2418  function checkTotalMinted() public view OnlyOwner returns(uint){... */\n      swap1\n      jump\t// out\n        /* \"Dropsite.sol\":2797:3011  function withDraw(address payable to) public payable OnlyOwner {... */\n    tag_27:\n        /* \"Dropsite.sol\":1025:1030  Owner */\n      0x0c\n      0x01\n      swap1\n      sload\n      swap1\n      0x0100\n      exp\n      swap1\n      div\n      0xffffffffffffffffffffffffffffffffffffffff\n      and\n        /* \"Dropsite.sol\":1009:1030  _msgSender() == Owner */\n      0xffffffffffffffffffffffffffffffffffffffff\n      and\n        /* \"Dropsite.sol\":1009:1021  _msgSender() */\n      tag_92\n        /* \"Dropsite.sol\":1009:1019  _msgSender */\n      tag_86\n        /* \"Dropsite.sol\":1009:1021  _msgSender() */\n      jump\t// in\n    tag_92:\n        /* \"Dropsite.sol\":1009:1030  _msgSender() == Owner */\n      0xffffffffffffffffffffffffffffffffffffffff\n      and\n      eq\n        /* \"Dropsite.sol\":1001:1063  require(_msgSender() == Owner, \"Only NFT-ES Owner can Access\") */\n      tag_93\n      jumpi\n      mload(0x40)\n      0x08c379a000000000000000000000000000000000000000000000000000000000\n      dup2\n      mstore\n      0x04\n      add\n      tag_94\n      swap1\n      tag_89\n      jump\t// in\n    tag_94:\n      mload(0x40)\n      dup1\n      swap2\n      sub\n      swap1\n      revert\n    tag_93:\n        /* \"Dropsite.sol\":2870:2882  uint Balance */\n      0x00\n        /* \"Dropsite.sol\":2885:2906  address(this).balance */\n      selfbalance\n        /* \"Dropsite.sol\":2870:2906  uint Balance = address(this).balance */\n      swap1\n      pop\n        /* \"Dropsite.sol\":2934:2939  0 wei */\n      0x00\n        /* \"Dropsite.sol\":2924:2931  Balance */\n      dup2\n        /* \"Dropsite.sol\":2924:2939  Balance > 0 wei */\n      gt\n        /* \"Dropsite.sol\":2916:2973  require(Balance > 0 wei, \"Error! No Balance to withdraw\") */\n      tag_96\n      jumpi\n      mload(0x40)\n      0x08c379a000000000000000000000000000000000000000000000000000000000\n      dup2\n      mstore\n      0x04\n      add\n      tag_97\n      swap1\n      tag_98\n      jump\t// in\n    tag_97:\n      mload(0x40)\n      dup1\n      swap2\n      sub\n      swap1\n      revert\n    tag_96:\n        /* \"Dropsite.sol\":2984:2986  to */\n      dup2\n        /* \"Dropsite.sol\":2984:2995  to.transfer */\n      0xffffffffffffffffffffffffffffffffffffffff\n      and\n        /* \"Dropsite.sol\":2984:3004  to.transfer(Balance) */\n      0x08fc\n        /* \"Dropsite.sol\":2996:3003  Balance */\n      dup3\n        /* \"Dropsite.sol\":2984:3004  to.transfer(Balance) */\n      swap1\n      dup2\n      iszero\n      mul\n      swap1\n      mload(0x40)\n      0x00\n      mload(0x40)\n      dup1\n      dup4\n      sub\n      dup2\n      dup6\n      dup9\n      dup9\n      call\n      swap4\n      pop\n      pop\n      pop\n      pop\n      iszero\n      dup1\n      iszero\n      tag_100\n      jumpi\n      returndatasize\n      0x00\n      dup1\n      returndatacopy\n      revert(0x00, returndatasize)\n    tag_100:\n      pop\n        /* \"Dropsite.sol\":2860:3011  {... */\n      pop\n        /* \"Dropsite.sol\":2797:3011  function withDraw(address payable to) public payable OnlyOwner {... */\n      pop\n      jump\t// out\n        /* \"Dropsite.sol\":1253:1280  bool public IsPaused = true */\n    tag_30:\n      0x0c\n      0x00\n      swap1\n      sload\n      swap1\n      0x0100\n      exp\n      swap1\n      div\n      0xff\n      and\n      dup2\n      jump\t// out\n        /* \"Dropsite.sol\":2566:2702  function openDropsite() public OnlyOwner {... */\n    tag_35:\n        /* \"Dropsite.sol\":1025:1030  Owner */\n      0x0c\n      0x01\n      swap1\n      sload\n      swap1\n      0x0100\n      exp\n      swap1\n      div\n      0xffffffffffffffffffffffffffffffffffffffff\n      and\n        /* \"Dropsite.sol\":1009:1030  _msgSender() == Owner */\n      0xffffffffffffffffffffffffffffffffffffffff\n      and\n        /* \"Dropsite.sol\":1009:1021  _msgSender() */\n      tag_102\n        /* \"Dropsite.sol\":1009:1019  _msgSender */\n      tag_86\n        /* \"Dropsite.sol\":1009:1021  _msgSender() */\n      jump\t// in\n    tag_102:\n        /* \"Dropsite.sol\":1009:1030  _msgSender() == Owner */\n      0xffffffffffffffffffffffffffffffffffffffff\n      and\n      eq\n        /* \"Dropsite.sol\":1001:1063  require(_msgSender() == Owner, \"Only NFT-ES Owner can Access\") */\n      tag_103\n      jumpi\n      mload(0x40)\n      0x08c379a000000000000000000000000000000000000000000000000000000000\n      dup2\n      mstore\n      0x04\n      add\n      tag_104\n      swap1\n      tag_89\n      jump\t// in\n    tag_104:\n      mload(0x40)\n      dup1\n      swap2\n      sub\n      swap1\n      revert\n    tag_103:\n        /* \"Dropsite.sol\":2635:2639  true */\n      0x01\n        /* \"Dropsite.sol\":2625:2639  IsPaused==true */\n      iszero\n      iszero\n        /* \"Dropsite.sol\":2625:2633  IsPaused */\n      0x0c\n      0x00\n      swap1\n      sload\n      swap1\n      0x0100\n      exp\n      swap1\n      div\n      0xff\n      and\n        /* \"Dropsite.sol\":2625:2639  IsPaused==true */\n      iszero\n      iszero\n      eq\n        /* \"Dropsite.sol\":2617:2671  require(IsPaused==true, \"Dropsite is already Running\") */\n      tag_106\n      jumpi\n      mload(0x40)\n      0x08c379a000000000000000000000000000000000000000000000000000000000\n      dup2\n      mstore\n      0x04\n      add\n      tag_107\n      swap1\n      tag_108\n      jump\t// in\n    tag_107:\n      mload(0x40)\n      dup1\n      swap2\n      sub\n      swap1\n      revert\n    tag_106:\n        /* \"Dropsite.sol\":2690:2695  false */\n      0x00\n        /* \"Dropsite.sol\":2681:2689  IsPaused */\n      0x0c\n      0x00\n        /* \"Dropsite.sol\":2681:2695  IsPaused=false */\n      0x0100\n      exp\n      dup2\n      sload\n      dup2\n      0xff\n      mul\n      not\n      and\n      swap1\n      dup4\n      iszero\n      iszero\n      mul\n      or\n      swap1\n      sstore\n      pop\n        /* \"Dropsite.sol\":2566:2702  function openDropsite() public OnlyOwner {... */\n      jump\t// out\n        /* \"Dropsite.sol\":5832:6271  function FiatRandomMint(address user_addr, uint noOfMints) OnlyOwner contractIsNotPaused public  returns (uint[] memory) {... */\n    tag_40:\n        /* \"Dropsite.sol\":5938:5951  uint[] memory */\n      0x60\n        /* \"Dropsite.sol\":1025:1030  Owner */\n      0x0c\n      0x01\n      swap1\n      sload\n      swap1\n      0x0100\n      exp\n      swap1\n      div\n      0xffffffffffffffffffffffffffffffffffffffff\n      and\n        /* \"Dropsite.sol\":1009:1030  _msgSender() == Owner */\n      0xffffffffffffffffffffffffffffffffffffffff\n      and\n        /* \"Dropsite.sol\":1009:1021  _msgSender() */\n      tag_110\n        /* \"Dropsite.sol\":1009:1019  _msgSender */\n      tag_86\n        /* \"Dropsite.sol\":1009:1021  _msgSender() */\n      jump\t// in\n    tag_110:\n        /* \"Dropsite.sol\":1009:1030  _msgSender() == Owner */\n      0xffffffffffffffffffffffffffffffffffffffff\n      and\n      eq\n        /* \"Dropsite.sol\":1001:1063  require(_msgSender() == Owner, \"Only NFT-ES Owner can Access\") */\n      tag_111\n      jumpi\n      mload(0x40)\n      0x08c379a000000000000000000000000000000000000000000000000000000000\n      dup2\n      mstore\n      0x04\n      add\n      tag_112\n      swap1\n      tag_89\n      jump\t// in\n    tag_112:\n      mload(0x40)\n      dup1\n      swap2\n      sub\n      swap1\n      revert\n    tag_111:\n        /* \"Dropsite.sol\":1190:1195  false */\n      0x00\n        /* \"Dropsite.sol\":1178:1195  IsPaused == false */\n      iszero\n      iszero\n        /* \"Dropsite.sol\":1178:1186  IsPaused */\n      0x0c\n      0x00\n      swap1\n      sload\n      swap1\n      0x0100\n      exp\n      swap1\n      div\n      0xff\n      and\n        /* \"Dropsite.sol\":1178:1195  IsPaused == false */\n      iszero\n      iszero\n      eq\n        /* \"Dropsite.sol\":1169:1228  require (IsPaused == false, \"Dropsite is not Opened Yet.\" ) */\n      tag_114\n      jumpi\n      mload(0x40)\n      0x08c379a000000000000000000000000000000000000000000000000000000000\n      dup2\n      mstore\n      0x04\n      add\n      tag_115\n      swap1\n      tag_116\n      jump\t// in\n    tag_115:\n      mload(0x40)\n      dup1\n      swap2\n      sub\n      swap1\n      revert\n    tag_114:\n        /* \"Dropsite.sol\":5978:5979  4 */\n      0x04\n        /* \"Dropsite.sol\":5968:5977  noOfMints */\n      dup3\n        /* \"Dropsite.sol\":5968:5979  noOfMints<4 */\n      lt\n        /* \"Dropsite.sol\":5968:5994  noOfMints<4 && noOfMints>0 */\n      dup1\n      iszero\n      tag_118\n      jumpi\n      pop\n        /* \"Dropsite.sol\":5993:5994  0 */\n      0x00\n        /* \"Dropsite.sol\":5983:5992  noOfMints */\n      dup3\n        /* \"Dropsite.sol\":5983:5994  noOfMints>0 */\n      gt\n        /* \"Dropsite.sol\":5968:5994  noOfMints<4 && noOfMints>0 */\n    tag_118:\n        /* \"Dropsite.sol\":5960:6019  require(noOfMints<4 && noOfMints>0,\"You can mint 1-3 NFTs\") */\n      tag_119\n      jumpi\n      mload(0x40)\n      0x08c379a000000000000000000000000000000000000000000000000000000000\n      dup2\n      mstore\n      0x04\n      add\n      tag_120\n      swap1\n      tag_121\n      jump\t// in\n    tag_120:\n      mload(0x40)\n      dup1\n      swap2\n      sub\n      swap1\n      revert\n    tag_119:\n        /* \"Dropsite.sol\":6052:6056  1000 */\n      0x03e8\n        /* \"Dropsite.sol\":6036:6051  TotalNFTsMinted */\n      sload(0x04)\n        /* \"Dropsite.sol\":6036:6056  TotalNFTsMinted<1000 */\n      lt\n        /* \"Dropsite.sol\":6028:6086  require(TotalNFTsMinted<1000, \"Max Minting Limit reached\") */\n      tag_122\n      jumpi\n      mload(0x40)\n      0x08c379a000000000000000000000000000000000000000000000000000000000\n      dup2\n      mstore\n      0x04\n      add\n      tag_123\n      swap1\n      tag_124\n      jump\t// in\n    tag_123:\n      mload(0x40)\n      dup1\n      swap2\n      sub\n      swap1\n      revert\n    tag_122:\n        /* \"Dropsite.sol\":6100:6106  uint i */\n      0x00\n        /* \"Dropsite.sol\":6096:6199  for(uint i=0;i<noOfMints;i++){... */\n    tag_125:\n        /* \"Dropsite.sol\":6111:6120  noOfMints */\n      dup3\n        /* \"Dropsite.sol\":6109:6110  i */\n      dup2\n        /* \"Dropsite.sol\":6109:6120  i<noOfMints */\n      lt\n        /* \"Dropsite.sol\":6096:6199  for(uint i=0;i<noOfMints;i++){... */\n      iszero\n      tag_126\n      jumpi\n        /* \"Dropsite.sol\":6152:6176  randomMinting(user_addr) */\n      tag_128\n        /* \"Dropsite.sol\":6166:6175  user_addr */\n      dup5\n        /* \"Dropsite.sol\":6152:6165  randomMinting */\n      tag_50\n        /* \"Dropsite.sol\":6152:6176  randomMinting(user_addr) */\n      jump\t// in\n    tag_128:\n      pop\n      pop\n        /* \"Dropsite.sol\":6121:6124  i++ */\n      dup1\n      dup1\n      tag_129\n      swap1\n      tag_130\n      jump\t// in\n    tag_129:\n      swap2\n      pop\n      pop\n        /* \"Dropsite.sol\":6096:6199  for(uint i=0;i<noOfMints;i++){... */\n      jump(tag_125)\n    tag_126:\n      pop\n        /* \"Dropsite.sol\":6215:6233  dropsite_NFT_Owner */\n      0x0a\n        /* \"Dropsite.sol\":6215:6244  dropsite_NFT_Owner[user_addr] */\n      0x00\n        /* \"Dropsite.sol\":6234:6243  user_addr */\n      dup5\n        /* \"Dropsite.sol\":6215:6244  dropsite_NFT_Owner[user_addr] */\n      0xffffffffffffffffffffffffffffffffffffffff\n      and\n      0xffffffffffffffffffffffffffffffffffffffff\n      and\n      dup2\n      mstore\n      0x20\n      add\n      swap1\n      dup2\n      mstore\n      0x20\n      add\n      0x00\n      keccak256\n        /* \"Dropsite.sol\":6215:6264  dropsite_NFT_Owner[user_addr].owned_Dropsite_NFTs */\n      0x00\n      add\n        /* \"Dropsite.sol\":6208:6264  return dropsite_NFT_Owner[user_addr].owned_Dropsite_NFTs */\n      dup1\n      sload\n      dup1\n      0x20\n      mul\n      0x20\n      add\n      mload(0x40)\n      swap1\n      dup2\n      add\n      0x40\n      mstore\n      dup1\n      swap3\n      swap2\n      swap1\n      dup2\n      dup2\n      mstore\n      0x20\n      add\n      dup3\n      dup1\n      sload\n      dup1\n      iszero\n      tag_131\n      jumpi\n      0x20\n      mul\n      dup3\n      add\n      swap2\n      swap1\n      0x00\n      mstore\n      keccak256(0x00, 0x20)\n      swap1\n    tag_132:\n      dup2\n      sload\n      dup2\n      mstore\n      0x20\n      add\n      swap1\n      0x01\n      add\n      swap1\n      dup1\n      dup4\n      gt\n      tag_132\n      jumpi\n    tag_131:\n      pop\n      pop\n      pop\n      pop\n      pop\n      swap1\n      pop\n        /* \"Dropsite.sol\":5832:6271  function FiatRandomMint(address user_addr, uint noOfMints) OnlyOwner contractIsNotPaused public  returns (uint[] memory) {... */\n      swap3\n      swap2\n      pop\n      pop\n      jump\t// out\n        /* \"Dropsite.sol\":3064:3172  function ContractBalance() public view OnlyOwner returns (uint){... */\n    tag_45:\n        /* \"Dropsite.sol\":3122:3126  uint */\n      0x00\n        /* \"Dropsite.sol\":1025:1030  Owner */\n      0x0c\n      0x01\n      swap1\n      sload\n      swap1\n      0x0100\n      exp\n      swap1\n      div\n      0xffffffffffffffffffffffffffffffffffffffff\n      and\n        /* \"Dropsite.sol\":1009:1030  _msgSender() == Owner */\n      0xffffffffffffffffffffffffffffffffffffffff\n      and\n        /* \"Dropsite.sol\":1009:1021  _msgSender() */\n      tag_134\n        /* \"Dropsite.sol\":1009:1019  _msgSender */\n      tag_86\n        /* \"Dropsite.sol\":1009:1021  _msgSender() */\n      jump\t// in\n    tag_134:\n        /* \"Dropsite.sol\":1009:1030  _msgSender() == Owner */\n      0xffffffffffffffffffffffffffffffffffffffff\n      and\n      eq\n        /* \"Dropsite.sol\":1001:1063  require(_msgSender() == Owner, \"Only NFT-ES Owner can Access\") */\n      tag_135\n      jumpi\n      mload(0x40)\n      0x08c379a000000000000000000000000000000000000000000000000000000000\n      dup2\n      mstore\n      0x04\n      add\n      tag_136\n      swap1\n      tag_89\n      jump\t// in\n    tag_136:\n      mload(0x40)\n      dup1\n      swap2\n      sub\n      swap1\n      revert\n    tag_135:\n        /* \"Dropsite.sol\":3144:3165  address(this).balance */\n      selfbalance\n        /* \"Dropsite.sol\":3137:3165  return address(this).balance */\n      swap1\n      pop\n        /* \"Dropsite.sol\":3064:3172  function ContractBalance() public view OnlyOwner returns (uint){... */\n      swap1\n      jump\t// out\n        /* \"Dropsite.sol\":5349:5785  function randomMinting(address user_addr) OnlyOwner contractIsNotPaused public payable returns (uint,string memory) {... */\n    tag_50:\n        /* \"Dropsite.sol\":5445:5449  uint */\n      0x00\n        /* \"Dropsite.sol\":5450:5463  string memory */\n      0x60\n        /* \"Dropsite.sol\":1025:1030  Owner */\n      0x0c\n      0x01\n      swap1\n      sload\n      swap1\n      0x0100\n      exp\n      swap1\n      div\n      0xffffffffffffffffffffffffffffffffffffffff\n      and\n        /* \"Dropsite.sol\":1009:1030  _msgSender() == Owner */\n      0xffffffffffffffffffffffffffffffffffffffff\n      and\n        /* \"Dropsite.sol\":1009:1021  _msgSender() */\n      tag_139\n        /* \"Dropsite.sol\":1009:1019  _msgSender */\n      tag_86\n        /* \"Dropsite.sol\":1009:1021  _msgSender() */\n      jump\t// in\n    tag_139:\n        /* \"Dropsite.sol\":1009:1030  _msgSender() == Owner */\n      0xffffffffffffffffffffffffffffffffffffffff\n      and\n      eq\n        /* \"Dropsite.sol\":1001:1063  require(_msgSender() == Owner, \"Only NFT-ES Owner can Access\") */\n      tag_140\n      jumpi\n      mload(0x40)\n      0x08c379a000000000000000000000000000000000000000000000000000000000\n      dup2\n      mstore\n      0x04\n      add\n      tag_141\n      swap1\n      tag_89\n      jump\t// in\n    tag_141:\n      mload(0x40)\n      dup1\n      swap2\n      sub\n      swap1\n      revert\n    tag_140:\n        /* \"Dropsite.sol\":1190:1195  false */\n      0x00\n        /* \"Dropsite.sol\":1178:1195  IsPaused == false */\n      iszero\n      iszero\n        /* \"Dropsite.sol\":1178:1186  IsPaused */\n      0x0c\n      0x00\n      swap1\n      sload\n      swap1\n      0x0100\n      exp\n      swap1\n      div\n      0xff\n      and\n        /* \"Dropsite.sol\":1178:1195  IsPaused == false */\n      iszero\n      iszero\n      eq\n        /* \"Dropsite.sol\":1169:1228  require (IsPaused == false, \"Dropsite is not Opened Yet.\" ) */\n      tag_143\n      jumpi\n      mload(0x40)\n      0x08c379a000000000000000000000000000000000000000000000000000000000\n      dup2\n      mstore\n      0x04\n      add\n      tag_144\n      swap1\n      tag_116\n      jump\t// in\n    tag_144:\n      mload(0x40)\n      dup1\n      swap2\n      sub\n      swap1\n      revert\n    tag_143:\n        /* \"Dropsite.sol\":5548:5558  uint index */\n      0x00\n        /* \"Dropsite.sol\":5561:5569  random() */\n      tag_146\n        /* \"Dropsite.sol\":5561:5567  random */\n      tag_147\n        /* \"Dropsite.sol\":5561:5569  random() */\n      jump\t// in\n    tag_146:\n        /* \"Dropsite.sol\":5548:5569  uint index = random() */\n      swap1\n      pop\n        /* \"Dropsite.sol\":5575:5585  uint nftId */\n      0x00\n        /* \"Dropsite.sol\":5588:5611  updateConditions(index) */\n      tag_148\n        /* \"Dropsite.sol\":5605:5610  index */\n      dup3\n        /* \"Dropsite.sol\":5588:5604  updateConditions */\n      tag_149\n        /* \"Dropsite.sol\":5588:5611  updateConditions(index) */\n      jump\t// in\n    tag_148:\n        /* \"Dropsite.sol\":5575:5611  uint nftId = updateConditions(index) */\n      swap1\n      pop\n        /* \"Dropsite.sol\":5617:5659  _mint(user_addr, nftId, numOfCopies, data) */\n      tag_150\n        /* \"Dropsite.sol\":5623:5632  user_addr */\n      dup6\n        /* \"Dropsite.sol\":5634:5639  nftId */\n      dup3\n        /* \"Dropsite.sol\":5641:5652  numOfCopies */\n      sload(0x05)\n        /* \"Dropsite.sol\":5654:5658  data */\n      0x02\n        /* \"Dropsite.sol\":5617:5659  _mint(user_addr, nftId, numOfCopies, data) */\n      dup1\n      sload\n      tag_151\n      swap1\n      tag_152\n      jump\t// in\n    tag_151:\n      dup1\n      0x1f\n      add\n      0x20\n      dup1\n      swap2\n      div\n      mul\n      0x20\n      add\n      mload(0x40)\n      swap1\n      dup2\n      add\n      0x40\n      mstore\n      dup1\n      swap3\n      swap2\n      swap1\n      dup2\n      dup2\n      mstore\n      0x20\n      add\n      dup3\n      dup1\n      sload\n      tag_153\n      swap1\n      tag_152\n      jump\t// in\n    tag_153:\n      dup1\n      iszero\n      tag_154\n      jumpi\n      dup1\n      0x1f\n      lt\n      tag_155\n      jumpi\n      0x0100\n      dup1\n      dup4\n      sload\n      div\n      mul\n      dup4\n      mstore\n      swap2\n      0x20\n      add\n      swap2\n      jump(tag_154)\n    tag_155:\n      dup3\n      add\n      swap2\n      swap1\n      0x00\n      mstore\n      keccak256(0x00, 0x20)\n      swap1\n    tag_156:\n      dup2\n      sload\n      dup2\n      mstore\n      swap1\n      0x01\n      add\n      swap1\n      0x20\n      add\n      dup1\n      dup4\n      gt\n      tag_156\n      jumpi\n      dup3\n      swap1\n      sub\n      0x1f\n      and\n      dup3\n      add\n      swap2\n    tag_154:\n      pop\n      pop\n      pop\n      pop\n      pop\n        /* \"Dropsite.sol\":5617:5622  _mint */\n      tag_157\n        /* \"Dropsite.sol\":5617:5659  _mint(user_addr, nftId, numOfCopies, data) */\n      jump\t// in\n    tag_150:\n        /* \"Dropsite.sol\":5665:5680  TotalNFTsMinted */\n      0x04\n      0x00\n        /* \"Dropsite.sol\":5665:5682  TotalNFTsMinted++ */\n      dup2\n      sload\n      dup1\n      swap3\n      swap2\n      swap1\n      tag_158\n      swap1\n      tag_130\n      jump\t// in\n    tag_158:\n      swap2\n      swap1\n      pop\n      sstore\n      pop\n        /* \"Dropsite.sol\":5688:5706  dropsite_NFT_Owner */\n      0x0a\n        /* \"Dropsite.sol\":5688:5717  dropsite_NFT_Owner[user_addr] */\n      0x00\n        /* \"Dropsite.sol\":5707:5716  user_addr */\n      dup7\n        /* \"Dropsite.sol\":5688:5717  dropsite_NFT_Owner[user_addr] */\n      0xffffffffffffffffffffffffffffffffffffffff\n      and\n      0xffffffffffffffffffffffffffffffffffffffff\n      and\n      dup2\n      mstore\n      0x20\n      add\n      swap1\n      dup2\n      mstore\n      0x20\n      add\n      0x00\n      keccak256\n        /* \"Dropsite.sol\":5688:5737  dropsite_NFT_Owner[user_addr].owned_Dropsite_NFTs */\n      0x00\n      add\n        /* \"Dropsite.sol\":5743:5748  nftId */\n      dup2\n        /* \"Dropsite.sol\":5688:5749  dropsite_NFT_Owner[user_addr].owned_Dropsite_NFTs.push(nftId) */\n      swap1\n      dup1\n      0x01\n      dup2\n      sload\n      add\n      dup1\n      dup3\n      sstore\n      dup1\n      swap2\n      pop\n      pop\n      0x01\n      swap1\n      sub\n      swap1\n      0x00\n      mstore\n      keccak256(0x00, 0x20)\n      add\n      0x00\n      swap1\n      swap2\n      swap1\n      swap2\n      swap1\n      swap2\n      pop\n      sstore\n        /* \"Dropsite.sol\":5763:5768  nftId */\n      dup1\n        /* \"Dropsite.sol\":5776:5780  data */\n      0x02\n        /* \"Dropsite.sol\":5755:5782  return (nftId,string(data)) */\n      dup1\n      dup1\n      sload\n      tag_160\n      swap1\n      tag_152\n      jump\t// in\n    tag_160:\n      dup1\n      0x1f\n      add\n      0x20\n      dup1\n      swap2\n      div\n      mul\n      0x20\n      add\n      mload(0x40)\n      swap1\n      dup2\n      add\n      0x40\n      mstore\n      dup1\n      swap3\n      swap2\n      swap1\n      dup2\n      dup2\n      mstore\n      0x20\n      add\n      dup3\n      dup1\n      sload\n      tag_161\n      swap1\n      tag_152\n      jump\t// in\n    tag_161:\n      dup1\n      iszero\n      tag_162\n      jumpi\n      dup1\n      0x1f\n      lt\n      tag_163\n      jumpi\n      0x0100\n      dup1\n      dup4\n      sload\n      div\n      mul\n      dup4\n      mstore\n      swap2\n      0x20\n      add\n      swap2\n      jump(tag_162)\n    tag_163:\n      dup3\n      add\n      swap2\n      swap1\n      0x00\n      mstore\n      keccak256(0x00, 0x20)\n      swap1\n    tag_164:\n      dup2\n      sload\n      dup2\n      mstore\n      swap1\n      0x01\n      add\n      swap1\n      0x20\n      add\n      dup1\n      dup4\n      gt\n      tag_164\n      jumpi\n      dup3\n      swap1\n      sub\n      0x1f\n      and\n      dup3\n      add\n      swap2\n    tag_162:\n      pop\n      pop\n      pop\n      pop\n      pop\n      swap1\n      pop\n      swap4\n      pop\n      swap4\n      pop\n      pop\n      pop\n        /* \"Dropsite.sol\":5349:5785  function randomMinting(address user_addr) OnlyOwner contractIsNotPaused public payable returns (uint,string memory) {... */\n      swap2\n      pop\n      swap2\n      jump\t// out\n        /* \"Dropsite.sol\":6489:7062  function CryptoRandomMint(address user_addr, uint noOfMints)  contractIsNotPaused public payable returns (uint[] memory) {... */\n    tag_55:\n        /* \"Dropsite.sol\":6595:6608  uint[] memory */\n      0x60\n        /* \"Dropsite.sol\":1190:1195  false */\n      0x00\n        /* \"Dropsite.sol\":1178:1195  IsPaused == false */\n      iszero\n      iszero\n        /* \"Dropsite.sol\":1178:1186  IsPaused */\n      0x0c\n      0x00\n      swap1\n      sload\n      swap1\n      0x0100\n      exp\n      swap1\n      div\n      0xff\n      and\n        /* \"Dropsite.sol\":1178:1195  IsPaused == false */\n      iszero\n      iszero\n      eq\n        /* \"Dropsite.sol\":1169:1228  require (IsPaused == false, \"Dropsite is not Opened Yet.\" ) */\n      tag_166\n      jumpi\n      mload(0x40)\n      0x08c379a000000000000000000000000000000000000000000000000000000000\n      dup2\n      mstore\n      0x04\n      add\n      tag_167\n      swap1\n      tag_116\n      jump\t// in\n    tag_167:\n      mload(0x40)\n      dup1\n      swap2\n      sub\n      swap1\n      revert\n    tag_166:\n        /* \"Dropsite.sol\":6635:6636  4 */\n      0x04\n        /* \"Dropsite.sol\":6625:6634  noOfMints */\n      dup3\n        /* \"Dropsite.sol\":6625:6636  noOfMints<4 */\n      lt\n        /* \"Dropsite.sol\":6625:6651  noOfMints<4 && noOfMints>0 */\n      dup1\n      iszero\n      tag_169\n      jumpi\n      pop\n        /* \"Dropsite.sol\":6650:6651  0 */\n      0x00\n        /* \"Dropsite.sol\":6640:6649  noOfMints */\n      dup3\n        /* \"Dropsite.sol\":6640:6651  noOfMints>0 */\n      gt\n        /* \"Dropsite.sol\":6625:6651  noOfMints<4 && noOfMints>0 */\n    tag_169:\n        /* \"Dropsite.sol\":6617:6676  require(noOfMints<4 && noOfMints>0,\"You can mint 1-3 NFTs\") */\n      tag_170\n      jumpi\n      mload(0x40)\n      0x08c379a000000000000000000000000000000000000000000000000000000000\n      dup2\n      mstore\n      0x04\n      add\n      tag_171\n      swap1\n      tag_121\n      jump\t// in\n    tag_171:\n      mload(0x40)\n      dup1\n      swap2\n      sub\n      swap1\n      revert\n    tag_170:\n        /* \"Dropsite.sol\":6707:6711  1000 */\n      0x03e8\n        /* \"Dropsite.sol\":6691:6706  TotalNFTsMinted */\n      sload(0x04)\n        /* \"Dropsite.sol\":6691:6711  TotalNFTsMinted<1000 */\n      lt\n        /* \"Dropsite.sol\":6683:6741  require(TotalNFTsMinted<1000, \"Max Minting Limit reached\") */\n      tag_172\n      jumpi\n      mload(0x40)\n      0x08c379a000000000000000000000000000000000000000000000000000000000\n      dup2\n      mstore\n      0x04\n      add\n      tag_173\n      swap1\n      tag_124\n      jump\t// in\n    tag_173:\n      mload(0x40)\n      dup1\n      swap2\n      sub\n      swap1\n      revert\n    tag_172:\n        /* \"Dropsite.sol\":6778:6787  noOfMints */\n      dup2\n        /* \"Dropsite.sol\":6769:6777  mintFees */\n      sload(0x06)\n        /* \"Dropsite.sol\":6769:6787  mintFees*noOfMints */\n      tag_174\n      swap2\n      swap1\n      tag_175\n      jump\t// in\n    tag_174:\n        /* \"Dropsite.sol\":6756:6765  msg.value */\n      callvalue\n        /* \"Dropsite.sol\":6756:6787  msg.value == mintFees*noOfMints */\n      eq\n        /* \"Dropsite.sol\":6748:6810  require(msg.value == mintFees*noOfMints, \"Not Enough Balance\") */\n      tag_176\n      jumpi\n      mload(0x40)\n      0x08c379a000000000000000000000000000000000000000000000000000000000\n      dup2\n      mstore\n      0x04\n      add\n      tag_177\n      swap1\n      tag_178\n      jump\t// in\n    tag_177:\n      mload(0x40)\n      dup1\n      swap2\n      sub\n      swap1\n      revert\n    tag_176:\n        /* \"Dropsite.sol\":6830:6836  uint i */\n      0x00\n        /* \"Dropsite.sol\":6826:6940  for(uint i=0;i<noOfMints;++i){... */\n    tag_179:\n        /* \"Dropsite.sol\":6841:6850  noOfMints */\n      dup3\n        /* \"Dropsite.sol\":6839:6840  i */\n      dup2\n        /* \"Dropsite.sol\":6839:6850  i<noOfMints */\n      lt\n        /* \"Dropsite.sol\":6826:6940  for(uint i=0;i<noOfMints;++i){... */\n      iszero\n      tag_180\n      jumpi\n        /* \"Dropsite.sol\":6869:6879  uint index */\n      0x00\n        /* \"Dropsite.sol\":6882:6890  random() */\n      tag_182\n        /* \"Dropsite.sol\":6882:6888  random */\n      tag_147\n        /* \"Dropsite.sol\":6882:6890  random() */\n      jump\t// in\n    tag_182:\n        /* \"Dropsite.sol\":6869:6890  uint index = random() */\n      swap1\n      pop\n        /* \"Dropsite.sol\":6905:6929  randomMinting(user_addr) */\n      tag_183\n        /* \"Dropsite.sol\":6919:6928  user_addr */\n      dup6\n        /* \"Dropsite.sol\":6905:6918  randomMinting */\n      tag_50\n        /* \"Dropsite.sol\":6905:6929  randomMinting(user_addr) */\n      jump\t// in\n    tag_183:\n      pop\n      pop\n        /* \"Dropsite.sol\":6855:6940  {... */\n      pop\n        /* \"Dropsite.sol\":6851:6854  ++i */\n      dup1\n      tag_184\n      swap1\n      tag_130\n      jump\t// in\n    tag_184:\n      swap1\n      pop\n        /* \"Dropsite.sol\":6826:6940  for(uint i=0;i<noOfMints;++i){... */\n      jump(tag_179)\n    tag_180:\n      pop\n        /* \"Dropsite.sol\":6949:6987  depositAmount(_msgSender(), msg.value) */\n      tag_185\n        /* \"Dropsite.sol\":6963:6975  _msgSender() */\n      tag_186\n        /* \"Dropsite.sol\":6963:6973  _msgSender */\n      tag_86\n        /* \"Dropsite.sol\":6963:6975  _msgSender() */\n      jump\t// in\n    tag_186:\n        /* \"Dropsite.sol\":6977:6986  msg.value */\n      callvalue\n        /* \"Dropsite.sol\":6949:6962  depositAmount */\n      tag_187\n        /* \"Dropsite.sol\":6949:6987  depositAmount(_msgSender(), msg.value) */\n      jump\t// in\n    tag_185:\n        /* \"Dropsite.sol\":7004:7022  dropsite_NFT_Owner */\n      0x0a\n        /* \"Dropsite.sol\":7004:7033  dropsite_NFT_Owner[user_addr] */\n      0x00\n        /* \"Dropsite.sol\":7023:7032  user_addr */\n      dup5\n        /* \"Dropsite.sol\":7004:7033  dropsite_NFT_Owner[user_addr] */\n      0xffffffffffffffffffffffffffffffffffffffff\n      and\n      0xffffffffffffffffffffffffffffffffffffffff\n      and\n      dup2\n      mstore\n      0x20\n      add\n      swap1\n      dup2\n      mstore\n      0x20\n      add\n      0x00\n      keccak256\n        /* \"Dropsite.sol\":7004:7053  dropsite_NFT_Owner[user_addr].owned_Dropsite_NFTs */\n      0x00\n      add\n        /* \"Dropsite.sol\":6997:7053  return dropsite_NFT_Owner[user_addr].owned_Dropsite_NFTs */\n      dup1\n      sload\n      dup1\n      0x20\n      mul\n      0x20\n      add\n      mload(0x40)\n      swap1\n      dup2\n      add\n      0x40\n      mstore\n      dup1\n      swap3\n      swap2\n      swap1\n      dup2\n      dup2\n      mstore\n      0x20\n      add\n      dup3\n      dup1\n      sload\n      dup1\n      iszero\n      tag_188\n      jumpi\n      0x20\n      mul\n      dup3\n      add\n      swap2\n      swap1\n      0x00\n      mstore\n      keccak256(0x00, 0x20)\n      swap1\n    tag_189:\n      dup2\n      sload\n      dup2\n      mstore\n      0x20\n      add\n      swap1\n      0x01\n      add\n      swap1\n      dup1\n      dup4\n      gt\n      tag_189\n      jumpi\n    tag_188:\n      pop\n      pop\n      pop\n      pop\n      pop\n      swap1\n      pop\n        /* \"Dropsite.sol\":6489:7062  function CryptoRandomMint(address user_addr, uint noOfMints)  contractIsNotPaused public payable returns (uint[] memory) {... */\n      swap3\n      swap2\n      pop\n      pop\n      jump\t// out\n        /* \"Dropsite.sol\":1889:2036  function checkMintedCategoryWise() public view OnlyOwner contractIsNotPaused returns(uint,uint,uint){... */\n    tag_59:\n        /* \"Dropsite.sol\":1974:1978  uint */\n      0x00\n        /* \"Dropsite.sol\":1979:1983  uint */\n      dup1\n        /* \"Dropsite.sol\":1984:1988  uint */\n      0x00\n        /* \"Dropsite.sol\":1025:1030  Owner */\n      0x0c\n      0x01\n      swap1\n      sload\n      swap1\n      0x0100\n      exp\n      swap1\n      div\n      0xffffffffffffffffffffffffffffffffffffffff\n      and\n        /* \"Dropsite.sol\":1009:1030  _msgSender() == Owner */\n      0xffffffffffffffffffffffffffffffffffffffff\n      and\n        /* \"Dropsite.sol\":1009:1021  _msgSender() */\n      tag_191\n        /* \"Dropsite.sol\":1009:1019  _msgSender */\n      tag_86\n        /* \"Dropsite.sol\":1009:1021  _msgSender() */\n      jump\t// in\n    tag_191:\n        /* \"Dropsite.sol\":1009:1030  _msgSender() == Owner */\n      0xffffffffffffffffffffffffffffffffffffffff\n      and\n      eq\n        /* \"Dropsite.sol\":1001:1063  require(_msgSender() == Owner, \"Only NFT-ES Owner can Access\") */\n      tag_192\n      jumpi\n      mload(0x40)\n      0x08c379a000000000000000000000000000000000000000000000000000000000\n      dup2\n      mstore\n      0x04\n      add\n      tag_193\n      swap1\n      tag_89\n      jump\t// in\n    tag_193:\n      mload(0x40)\n      dup1\n      swap2\n      sub\n      swap1\n      revert\n    tag_192:\n        /* \"Dropsite.sol\":1190:1195  false */\n      0x00\n        /* \"Dropsite.sol\":1178:1195  IsPaused == false */\n      iszero\n      iszero\n        /* \"Dropsite.sol\":1178:1186  IsPaused */\n      0x0c\n      0x00\n      swap1\n      sload\n      swap1\n      0x0100\n      exp\n      swap1\n      div\n      0xff\n      and\n        /* \"Dropsite.sol\":1178:1195  IsPaused == false */\n      iszero\n      iszero\n      eq\n        /* \"Dropsite.sol\":1169:1228  require (IsPaused == false, \"Dropsite is not Opened Yet.\" ) */\n      tag_195\n      jumpi\n      mload(0x40)\n      0x08c379a000000000000000000000000000000000000000000000000000000000\n      dup2\n      mstore\n      0x04\n      add\n      tag_196\n      swap1\n      tag_116\n      jump\t// in\n    tag_196:\n      mload(0x40)\n      dup1\n      swap2\n      sub\n      swap1\n      revert\n    tag_195:\n        /* \"Dropsite.sol\":2008:2015  Diamond */\n      sload(0x07)\n        /* \"Dropsite.sol\":2016:2020  Gold */\n      sload(0x08)\n        /* \"Dropsite.sol\":2021:2027  Silver */\n      sload(0x09)\n        /* \"Dropsite.sol\":2000:2028  return (Diamond,Gold,Silver) */\n      swap3\n      pop\n      swap3\n      pop\n      swap3\n      pop\n        /* \"Dropsite.sol\":1889:2036  function checkMintedCategoryWise() public view OnlyOwner contractIsNotPaused returns(uint,uint,uint){... */\n      swap1\n      swap2\n      swap3\n      jump\t// out\n        /* \"Dropsite.sol\":2158:2269  function getMintFee() public view OnlyOwner contractIsNotPaused returns (uint) {... */\n    tag_64:\n        /* \"Dropsite.sol\":2231:2235  uint */\n      0x00\n        /* \"Dropsite.sol\":1025:1030  Owner */\n      0x0c\n      0x01\n      swap1\n      sload\n      swap1\n      0x0100\n      exp\n      swap1\n      div\n      0xffffffffffffffffffffffffffffffffffffffff\n      and\n        /* \"Dropsite.sol\":1009:1030  _msgSender() == Owner */\n      0xffffffffffffffffffffffffffffffffffffffff\n      and\n        /* \"Dropsite.sol\":1009:1021  _msgSender() */\n      tag_199\n        /* \"Dropsite.sol\":1009:1019  _msgSender */\n      tag_86\n        /* \"Dropsite.sol\":1009:1021  _msgSender() */\n      jump\t// in\n    tag_199:\n        /* \"Dropsite.sol\":1009:1030  _msgSender() == Owner */\n      0xffffffffffffffffffffffffffffffffffffffff\n      and\n      eq\n        /* \"Dropsite.sol\":1001:1063  require(_msgSender() == Owner, \"Only NFT-ES Owner can Access\") */\n      tag_200\n      jumpi\n      mload(0x40)\n      0x08c379a000000000000000000000000000000000000000000000000000000000\n      dup2\n      mstore\n      0x04\n      add\n      tag_201\n      swap1\n      tag_89\n      jump\t// in\n    tag_201:\n      mload(0x40)\n      dup1\n      swap2\n      sub\n      swap1\n      revert\n    tag_200:\n        /* \"Dropsite.sol\":1190:1195  false */\n      0x00\n        /* \"Dropsite.sol\":1178:1195  IsPaused == false */\n      iszero\n      iszero\n        /* \"Dropsite.sol\":1178:1186  IsPaused */\n      0x0c\n      0x00\n      swap1\n      sload\n      swap1\n      0x0100\n      exp\n      swap1\n      div\n      0xff\n      and\n        /* \"Dropsite.sol\":1178:1195  IsPaused == false */\n      iszero\n      iszero\n      eq\n        /* \"Dropsite.sol\":1169:1228  require (IsPaused == false, \"Dropsite is not Opened Yet.\" ) */\n      tag_203\n      jumpi\n      mload(0x40)\n      0x08c379a000000000000000000000000000000000000000000000000000000000\n      dup2\n      mstore\n      0x04\n      add\n      tag_204\n      swap1\n      tag_116\n      jump\t// in\n    tag_204:\n      mload(0x40)\n      dup1\n      swap2\n      sub\n      swap1\n      revert\n    tag_203:\n        /* \"Dropsite.sol\":2254:2262  mintFees */\n      sload(0x06)\n        /* \"Dropsite.sol\":2247:2262  return mintFees */\n      swap1\n      pop\n        /* \"Dropsite.sol\":2158:2269  function getMintFee() public view OnlyOwner contractIsNotPaused returns (uint) {... */\n      swap1\n      jump\t// out\n        /* \"Dropsite.sol\":2424:2559  function stopDropsite() public OnlyOwner{... */\n    tag_68:\n        /* \"Dropsite.sol\":1025:1030  Owner */\n      0x0c\n      0x01\n      swap1\n      sload\n      swap1\n      0x0100\n      exp\n      swap1\n      div\n      0xffffffffffffffffffffffffffffffffffffffff\n      and\n        /* \"Dropsite.sol\":1009:1030  _msgSender() == Owner */\n      0xffffffffffffffffffffffffffffffffffffffff\n      and\n        /* \"Dropsite.sol\":1009:1021  _msgSender() */\n      tag_207\n        /* \"Dropsite.sol\":1009:1019  _msgSender */\n      tag_86\n        /* \"Dropsite.sol\":1009:1021  _msgSender() */\n      jump\t// in\n    tag_207:\n        /* \"Dropsite.sol\":1009:1030  _msgSender() == Owner */\n      0xffffffffffffffffffffffffffffffffffffffff\n      and\n      eq\n        /* \"Dropsite.sol\":1001:1063  require(_msgSender() == Owner, \"Only NFT-ES Owner can Access\") */\n      tag_208\n      jumpi\n      mload(0x40)\n      0x08c379a000000000000000000000000000000000000000000000000000000000\n      dup2\n      mstore\n      0x04\n      add\n      tag_209\n      swap1\n      tag_89\n      jump\t// in\n    tag_209:\n      mload(0x40)\n      dup1\n      swap2\n      sub\n      swap1\n      revert\n    tag_208:\n        /* \"Dropsite.sol\":2492:2497  false */\n      0x00\n        /* \"Dropsite.sol\":2482:2497  IsPaused==false */\n      iszero\n      iszero\n        /* \"Dropsite.sol\":2482:2490  IsPaused */\n      0x0c\n      0x00\n      swap1\n      sload\n      swap1\n      0x0100\n      exp\n      swap1\n      div\n      0xff\n      and\n        /* \"Dropsite.sol\":2482:2497  IsPaused==false */\n      iszero\n      iszero\n      eq\n        /* \"Dropsite.sol\":2474:2529  require(IsPaused==false, \"Dropsite is already Stopped\") */\n      tag_211\n      jumpi\n      mload(0x40)\n      0x08c379a000000000000000000000000000000000000000000000000000000000\n      dup2\n      mstore\n      0x04\n      add\n      tag_212\n      swap1\n      tag_213\n      jump\t// in\n    tag_212:\n      mload(0x40)\n      dup1\n      swap2\n      sub\n      swap1\n      revert\n    tag_211:\n        /* \"Dropsite.sol\":2548:2552  true */\n      0x01\n        /* \"Dropsite.sol\":2539:2547  IsPaused */\n      0x0c\n      0x00\n        /* \"Dropsite.sol\":2539:2552  IsPaused=true */\n      0x0100\n      exp\n      dup2\n      sload\n      dup2\n      0xff\n      mul\n      not\n      and\n      swap1\n      dup4\n      iszero\n      iszero\n      mul\n      or\n      swap1\n      sstore\n      pop\n        /* \"Dropsite.sol\":2424:2559  function stopDropsite() public OnlyOwner{... */\n      jump\t// out\n        /* \"Dropsite.sol\":1286:1315  address payable public  Owner */\n    tag_71:\n      0x0c\n      0x01\n      swap1\n      sload\n      swap1\n      0x0100\n      exp\n      swap1\n      div\n      0xffffffffffffffffffffffffffffffffffffffff\n      and\n      dup2\n      jump\t// out\n        /* \"Dropsite.sol\":2042:2148  function setMintFee(uint _mintFee) public OnlyOwner contractIsNotPaused {... */\n    tag_78:\n        /* \"Dropsite.sol\":1025:1030  Owner */\n      0x0c\n      0x01\n      swap1\n      sload\n      swap1\n      0x0100\n      exp\n      swap1\n      div\n      0xffffffffffffffffffffffffffffffffffffffff\n      and\n        /* \"Dropsite.sol\":1009:1030  _msgSender() == Owner */\n      0xffffffffffffffffffffffffffffffffffffffff\n      and\n        /* \"Dropsite.sol\":1009:1021  _msgSender() */\n      tag_215\n        /* \"Dropsite.sol\":1009:1019  _msgSender */\n      tag_86\n        /* \"Dropsite.sol\":1009:1021  _msgSender() */\n      jump\t// in\n    tag_215:\n        /* \"Dropsite.sol\":1009:1030  _msgSender() == Owner */\n      0xffffffffffffffffffffffffffffffffffffffff\n      and\n      eq\n        /* \"Dropsite.sol\":1001:1063  require(_msgSender() == Owner, \"Only NFT-ES Owner can Access\") */\n      tag_216\n      jumpi\n      mload(0x40)\n      0x08c379a000000000000000000000000000000000000000000000000000000000\n      dup2\n      mstore\n      0x04\n      add\n      tag_217\n      swap1\n      tag_89\n      jump\t// in\n    tag_217:\n      mload(0x40)\n      dup1\n      swap2\n      sub\n      swap1\n      revert\n    tag_216:\n        /* \"Dropsite.sol\":1190:1195  false */\n      0x00\n        /* \"Dropsite.sol\":1178:1195  IsPaused == false */\n      iszero\n      iszero\n        /* \"Dropsite.sol\":1178:1186  IsPaused */\n      0x0c\n      0x00\n      swap1\n      sload\n      swap1\n      0x0100\n      exp\n      swap1\n      div\n      0xff\n      and\n        /* \"Dropsite.sol\":1178:1195  IsPaused == false */\n      iszero\n      iszero\n      eq\n        /* \"Dropsite.sol\":1169:1228  require (IsPaused == false, \"Dropsite is not Opened Yet.\" ) */\n      tag_219\n      jumpi\n      mload(0x40)\n      0x08c379a000000000000000000000000000000000000000000000000000000000\n      dup2\n      mstore\n      0x04\n      add\n      tag_220\n      swap1\n      tag_116\n      jump\t// in\n    tag_220:\n      mload(0x40)\n      dup1\n      swap2\n      sub\n      swap1\n      revert\n    tag_219:\n        /* \"Dropsite.sol\":2133:2141  _mintFee */\n      dup1\n        /* \"Dropsite.sol\":2124:2132  mintFees */\n      0x06\n        /* \"Dropsite.sol\":2124:2141  mintFees=_mintFee */\n      dup2\n      swap1\n      sstore\n      pop\n        /* \"Dropsite.sol\":2042:2148  function setMintFee(uint _mintFee) public OnlyOwner contractIsNotPaused {... */\n      pop\n      jump\t// out\n        /* \"Dropsite.sol\":1670:1829  function returnOwner(address addr) public view contractIsNotPaused returns  (uint[] memory){... */\n    tag_82:\n        /* \"Dropsite.sol\":1747:1760  uint[] memory */\n      0x60\n        /* \"Dropsite.sol\":1190:1195  false */\n      0x00\n        /* \"Dropsite.sol\":1178:1195  IsPaused == false */\n      iszero\n      iszero\n        /* \"Dropsite.sol\":1178:1186  IsPaused */\n      0x0c\n      0x00\n      swap1\n      sload\n      swap1\n      0x0100\n      exp\n      swap1\n      div\n      0xff\n      and\n        /* \"Dropsite.sol\":1178:1195  IsPaused == false */\n      iszero\n      iszero\n      eq\n        /* \"Dropsite.sol\":1169:1228  require (IsPaused == false, \"Dropsite is not Opened Yet.\" ) */\n      tag_223\n      jumpi\n      mload(0x40)\n      0x08c379a000000000000000000000000000000000000000000000000000000000\n      dup2\n      mstore\n      0x04\n      add\n      tag_224\n      swap1\n      tag_116\n      jump\t// in\n    tag_224:\n      mload(0x40)\n      dup1\n      swap2\n      sub\n      swap1\n      revert\n    tag_223:\n        /* \"Dropsite.sol\":1778:1796  dropsite_NFT_Owner */\n      0x0a\n        /* \"Dropsite.sol\":1778:1802  dropsite_NFT_Owner[addr] */\n      0x00\n        /* \"Dropsite.sol\":1797:1801  addr */\n      dup4\n        /* \"Dropsite.sol\":1778:1802  dropsite_NFT_Owner[addr] */\n      0xffffffffffffffffffffffffffffffffffffffff\n      and\n      0xffffffffffffffffffffffffffffffffffffffff\n      and\n      dup2\n      mstore\n      0x20\n      add\n      swap1\n      dup2\n      mstore\n      0x20\n      add\n      0x00\n      keccak256\n        /* \"Dropsite.sol\":1778:1822  dropsite_NFT_Owner[addr].owned_Dropsite_NFTs */\n      0x00\n      add\n        /* \"Dropsite.sol\":1771:1822  return dropsite_NFT_Owner[addr].owned_Dropsite_NFTs */\n      dup1\n      sload\n      dup1\n      0x20\n      mul\n      0x20\n      add\n      mload(0x40)\n      swap1\n      dup2\n      add\n      0x40\n      mstore\n      dup1\n      swap3\n      swap2\n      swap1\n      dup2\n      dup2\n      mstore\n      0x20\n      add\n      dup3\n      dup1\n      sload\n      dup1\n      iszero\n      tag_226\n      jumpi\n      0x20\n      mul\n      dup3\n      add\n      swap2\n      swap1\n      0x00\n      mstore\n      keccak256(0x00, 0x20)\n      swap1\n    tag_227:\n      dup2\n      sload\n      dup2\n      mstore\n      0x20\n      add\n      swap1\n      0x01\n      add\n      swap1\n      dup1\n      dup4\n      gt\n      tag_227\n      jumpi\n    tag_226:\n      pop\n      pop\n      pop\n      pop\n      pop\n      swap1\n      pop\n        /* \"Dropsite.sol\":1670:1829  function returnOwner(address addr) public view contractIsNotPaused returns  (uint[] memory){... */\n      swap2\n      swap1\n      pop\n      jump\t// out\n        /* \"Context.sol\":640:736  function _msgSender() internal view virtual returns (address) {... */\n    tag_86:\n        /* \"Context.sol\":693:700  address */\n      0x00\n        /* \"Context.sol\":719:729  msg.sender */\n      caller\n        /* \"Context.sol\":712:729  return msg.sender */\n      swap1\n      pop\n        /* \"Context.sol\":640:736  function _msgSender() internal view virtual returns (address) {... */\n      swap1\n      jump\t// out\n        /* \"Dropsite.sol\":3283:3580  function random() internal view returns (uint) {... */\n    tag_147:\n        /* \"Dropsite.sol\":3324:3328  uint */\n      0x00\n        /* \"Dropsite.sol\":3413:3430  uint randomnumber */\n      dup1\n        /* \"Dropsite.sol\":3546:3548  20 */\n      0x14\n        /* \"Dropsite.sol\":3513:3520  Diamond */\n      sload(0x07)\n        /* \"Dropsite.sol\":3508:3512  Gold */\n      sload(0x08)\n        /* \"Dropsite.sol\":3501:3507  Silver */\n      sload(0x09)\n        /* \"Dropsite.sol\":3485:3500  TotalNFTsMinted */\n      sload(0x04)\n        /* \"Dropsite.sol\":3468:3483  block.timestamp */\n      timestamp\n        /* \"Dropsite.sol\":3467:3500  (block.timestamp)+TotalNFTsMinted */\n      tag_230\n      swap2\n      swap1\n      tag_231\n      jump\t// in\n    tag_230:\n        /* \"Dropsite.sol\":3467:3507  (block.timestamp)+TotalNFTsMinted+Silver */\n      tag_232\n      swap2\n      swap1\n      tag_231\n      jump\t// in\n    tag_232:\n        /* \"Dropsite.sol\":3467:3512  (block.timestamp)+TotalNFTsMinted+Silver+Gold */\n      tag_233\n      swap2\n      swap1\n      tag_231\n      jump\t// in\n    tag_233:\n        /* \"Dropsite.sol\":3467:3520  (block.timestamp)+TotalNFTsMinted+Silver+Gold+Diamond */\n      tag_234\n      swap2\n      swap1\n      tag_231\n      jump\t// in\n    tag_234:\n        /* \"Dropsite.sol\":3523:3533  msg.sender */\n      caller\n        /* \"Dropsite.sol\":3535:3540  Owner */\n      0x0c\n      0x01\n      swap1\n      sload\n      swap1\n      0x0100\n      exp\n      swap1\n      div\n      0xffffffffffffffffffffffffffffffffffffffff\n      and\n        /* \"Dropsite.sol\":3448:3541  abi.encodePacked( ((block.timestamp)+TotalNFTsMinted+Silver+Gold+Diamond), msg.sender, Owner) */\n      add(0x20, mload(0x40))\n      tag_235\n      swap4\n      swap3\n      swap2\n      swap1\n      tag_236\n      jump\t// in\n    tag_235:\n      mload(0x40)\n      0x20\n      dup2\n      dup4\n      sub\n      sub\n      dup2\n      mstore\n      swap1\n      0x40\n      mstore\n        /* \"Dropsite.sol\":3438:3542  keccak256(abi.encodePacked( ((block.timestamp)+TotalNFTsMinted+Silver+Gold+Diamond), msg.sender, Owner)) */\n      dup1\n      mload\n      swap1\n      0x20\n      add\n      keccak256\n        /* \"Dropsite.sol\":3433:3543  uint(keccak256(abi.encodePacked( ((block.timestamp)+TotalNFTsMinted+Silver+Gold+Diamond), msg.sender, Owner))) */\n      0x00\n      shr\n        /* \"Dropsite.sol\":3433:3548  uint(keccak256(abi.encodePacked( ((block.timestamp)+TotalNFTsMinted+Silver+Gold+Diamond), msg.sender, Owner))) % 20 */\n      tag_237\n      swap2\n      swap1\n      tag_238\n      jump\t// in\n    tag_237:\n        /* \"Dropsite.sol\":3413:3548  uint randomnumber = uint(keccak256(abi.encodePacked( ((block.timestamp)+TotalNFTsMinted+Silver+Gold+Diamond), msg.sender, Owner))) % 20 */\n      swap1\n      pop\n        /* \"Dropsite.sol\":3561:3573  randomnumber */\n      dup1\n        /* \"Dropsite.sol\":3554:3573  return randomnumber */\n      swap2\n      pop\n      pop\n        /* \"Dropsite.sol\":3283:3580  function random() internal view returns (uint) {... */\n      swap1\n      jump\t// out\n        /* \"Dropsite.sol\":3765:5347  function updateConditions(uint index) internal contractIsNotPaused returns(uint) {... */\n    tag_149:\n        /* \"Dropsite.sol\":3840:3844  uint */\n      0x00\n        /* \"Dropsite.sol\":1190:1195  false */\n      dup1\n        /* \"Dropsite.sol\":1178:1195  IsPaused == false */\n      iszero\n      iszero\n        /* \"Dropsite.sol\":1178:1186  IsPaused */\n      0x0c\n      0x00\n      swap1\n      sload\n      swap1\n      0x0100\n      exp\n      swap1\n      div\n      0xff\n      and\n        /* \"Dropsite.sol\":1178:1195  IsPaused == false */\n      iszero\n      iszero\n      eq\n        /* \"Dropsite.sol\":1169:1228  require (IsPaused == false, \"Dropsite is not Opened Yet.\" ) */\n      tag_240\n      jumpi\n      mload(0x40)\n      0x08c379a000000000000000000000000000000000000000000000000000000000\n      dup2\n      mstore\n      0x04\n      add\n      tag_241\n      swap1\n      tag_116\n      jump\t// in\n    tag_241:\n      mload(0x40)\n      dup1\n      swap2\n      sub\n      swap1\n      revert\n    tag_240:\n        /* \"Dropsite.sol\":3856:3866  uint nftId */\n      0x00\n        /* \"Dropsite.sol\":3869:3873  nums */\n      0x03\n        /* \"Dropsite.sol\":3874:3879  index */\n      dup4\n        /* \"Dropsite.sol\":3869:3880  nums[index] */\n      0x14\n      dup2\n      lt\n      tag_243\n      jumpi\n      tag_244\n      tag_245\n      jump\t// in\n    tag_244:\n    tag_243:\n      0x20\n      swap2\n      dup3\n      dup3\n      div\n      add\n      swap2\n      swap1\n      mod\n      swap1\n      sload\n      swap1\n      0x0100\n      exp\n      swap1\n      div\n      0xff\n      and\n        /* \"Dropsite.sol\":3856:3880  uint nftId = nums[index] */\n      0xff\n      and\n      swap1\n      pop\n        /* \"Dropsite.sol\":3986:3987  0 */\n      0x00\n        /* \"Dropsite.sol\":3977:3982  nftId */\n      dup2\n        /* \"Dropsite.sol\":3977:3987  nftId == 0 */\n      eq\n        /* \"Dropsite.sol\":3977:4003  nftId == 0 && Diamond < 50 */\n      dup1\n      iszero\n      tag_247\n      jumpi\n      pop\n        /* \"Dropsite.sol\":4001:4003  50 */\n      0x32\n        /* \"Dropsite.sol\":3991:3998  Diamond */\n      sload(0x07)\n        /* \"Dropsite.sol\":3991:4003  Diamond < 50 */\n      lt\n        /* \"Dropsite.sol\":3977:4003  nftId == 0 && Diamond < 50 */\n    tag_247:\n        /* \"Dropsite.sol\":3974:5342  if(nftId == 0 && Diamond < 50) {... */\n      iszero\n      tag_248\n      jumpi\n        /* \"Dropsite.sol\":4020:4027  Diamond */\n      0x07\n      0x00\n        /* \"Dropsite.sol\":4020:4029  Diamond++ */\n      dup2\n      sload\n      dup1\n      swap3\n      swap2\n      swap1\n      tag_249\n      swap1\n      tag_130\n      jump\t// in\n    tag_249:\n      swap2\n      swap1\n      pop\n      sstore\n      pop\n        /* \"Dropsite.sol\":4085:4110  Strings.toString(Diamond) */\n      tag_250\n        /* \"Dropsite.sol\":4102:4109  Diamond */\n      sload(0x07)\n        /* \"Dropsite.sol\":4085:4101  Strings.toString */\n      tag_251\n        /* \"Dropsite.sol\":4085:4110  Strings.toString(Diamond) */\n      jump\t// in\n    tag_250:\n        /* \"Dropsite.sol\":4057:4111  abi.encodePacked(\"Diamond_\",Strings.toString(Diamond)) */\n      add(0x20, mload(0x40))\n      tag_252\n      swap2\n      swap1\n      tag_253\n      jump\t// in\n    tag_252:\n      mload(0x40)\n      0x20\n      dup2\n      dup4\n      sub\n      sub\n      dup2\n      mstore\n      swap1\n      0x40\n      mstore\n        /* \"Dropsite.sol\":4043:4047  data */\n      0x02\n        /* \"Dropsite.sol\":4043:4112  data = string(abi.encodePacked(\"Diamond_\",Strings.toString(Diamond))) */\n      swap1\n      dup1\n      mload\n      swap1\n      0x20\n      add\n      swap1\n      tag_254\n      swap3\n      swap2\n      swap1\n      tag_255\n      jump\t// in\n    tag_254:\n      pop\n        /* \"Dropsite.sol\":4146:4151  nftId */\n      dup1\n        /* \"Dropsite.sol\":4139:4151  return nftId */\n      swap2\n      pop\n      pop\n      jump(tag_242)\n        /* \"Dropsite.sol\":3974:5342  if(nftId == 0 && Diamond < 50) {... */\n    tag_248:\n        /* \"Dropsite.sol\":4275:4276  1 */\n      0x01\n        /* \"Dropsite.sol\":4266:4271  nftId */\n      dup2\n        /* \"Dropsite.sol\":4266:4276  nftId <= 1 */\n      gt\n      iszero\n        /* \"Dropsite.sol\":4266:4290  nftId <= 1 && Gold < 100 */\n      dup1\n      iszero\n      tag_257\n      jumpi\n      pop\n        /* \"Dropsite.sol\":4287:4290  100 */\n      0x64\n        /* \"Dropsite.sol\":4280:4284  Gold */\n      sload(0x08)\n        /* \"Dropsite.sol\":4280:4290  Gold < 100 */\n      lt\n        /* \"Dropsite.sol\":4266:4290  nftId <= 1 && Gold < 100 */\n    tag_257:\n        /* \"Dropsite.sol\":4263:5342  if(nftId <= 1 && Gold < 100) {... */\n      iszero\n      tag_258\n      jumpi\n        /* \"Dropsite.sol\":4306:4310  Gold */\n      0x08\n      0x00\n        /* \"Dropsite.sol\":4306:4312  Gold++ */\n      dup2\n      sload\n      dup1\n      swap3\n      swap2\n      swap1\n      tag_259\n      swap1\n      tag_130\n      jump\t// in\n    tag_259:\n      swap2\n      swap1\n      pop\n      sstore\n      pop\n        /* \"Dropsite.sol\":4365:4387  Strings.toString(Gold) */\n      tag_260\n        /* \"Dropsite.sol\":4382:4386  Gold */\n      sload(0x08)\n        /* \"Dropsite.sol\":4365:4381  Strings.toString */\n      tag_251\n        /* \"Dropsite.sol\":4365:4387  Strings.toString(Gold) */\n      jump\t// in\n    tag_260:\n        /* \"Dropsite.sol\":4340:4388  abi.encodePacked(\"Gold_\",Strings.toString(Gold)) */\n      add(0x20, mload(0x40))\n      tag_261\n      swap2\n      swap1\n      tag_262\n      jump\t// in\n    tag_261:\n      mload(0x40)\n      0x20\n      dup2\n      dup4\n      sub\n      sub\n      dup2\n      mstore\n      swap1\n      0x40\n      mstore\n        /* \"Dropsite.sol\":4326:4330  data */\n      0x02\n        /* \"Dropsite.sol\":4326:4389  data = string(abi.encodePacked(\"Gold_\",Strings.toString(Gold))) */\n      swap1\n      dup1\n      mload\n      swap1\n      0x20\n      add\n      swap1\n      tag_263\n      swap3\n      swap2\n      swap1\n      tag_255\n      jump\t// in\n    tag_263:\n      pop\n        /* \"Dropsite.sol\":4410:4415  nftId */\n      dup1\n        /* \"Dropsite.sol\":4403:4415  return nftId */\n      swap2\n      pop\n      pop\n      jump(tag_242)\n        /* \"Dropsite.sol\":4263:5342  if(nftId <= 1 && Gold < 100) {... */\n    tag_258:\n        /* \"Dropsite.sol\":4545:4546  2 */\n      0x02\n        /* \"Dropsite.sol\":4536:4541  nftId */\n      dup2\n        /* \"Dropsite.sol\":4536:4546  nftId <= 2 */\n      gt\n      iszero\n        /* \"Dropsite.sol\":4536:4563  nftId <= 2 && Silver <= 850 */\n      dup1\n      iszero\n      tag_265\n      jumpi\n      pop\n        /* \"Dropsite.sol\":4560:4563  850 */\n      0x0352\n        /* \"Dropsite.sol\":4550:4556  Silver */\n      sload(0x09)\n        /* \"Dropsite.sol\":4550:4563  Silver <= 850 */\n      gt\n      iszero\n        /* \"Dropsite.sol\":4536:4563  nftId <= 2 && Silver <= 850 */\n    tag_265:\n        /* \"Dropsite.sol\":4533:5342  if(nftId <= 2 && Silver <= 850) {... */\n      iszero\n      tag_266\n      jumpi\n        /* \"Dropsite.sol\":4579:4585  Silver */\n      0x09\n      0x00\n        /* \"Dropsite.sol\":4579:4587  Silver++ */\n      dup2\n      sload\n      dup1\n      swap3\n      swap2\n      swap1\n      tag_267\n      swap1\n      tag_130\n      jump\t// in\n    tag_267:\n      swap2\n      swap1\n      pop\n      sstore\n      pop\n        /* \"Dropsite.sol\":4647:4671  Strings.toString(Silver) */\n      tag_268\n        /* \"Dropsite.sol\":4664:4670  Silver */\n      sload(0x09)\n        /* \"Dropsite.sol\":4647:4663  Strings.toString */\n      tag_251\n        /* \"Dropsite.sol\":4647:4671  Strings.toString(Silver) */\n      jump\t// in\n    tag_268:\n        /* \"Dropsite.sol\":4620:4672  abi.encodePacked(\"Silver_\",Strings.toString(Silver)) */\n      add(0x20, mload(0x40))\n      tag_269\n      swap2\n      swap1\n      tag_270\n      jump\t// in\n    tag_269:\n      mload(0x40)\n      0x20\n      dup2\n      dup4\n      sub\n      sub\n      dup2\n      mstore\n      swap1\n      0x40\n      mstore\n        /* \"Dropsite.sol\":4606:4610  data */\n      0x02\n        /* \"Dropsite.sol\":4606:4673  data = string(abi.encodePacked(\"Silver_\",Strings.toString(Silver))) */\n      swap1\n      dup1\n      mload\n      swap1\n      0x20\n      add\n      swap1\n      tag_271\n      swap3\n      swap2\n      swap1\n      tag_255\n      jump\t// in\n    tag_271:\n        /* \"Dropsite.sol\":4601:4605  data */\n      0x02\n        /* \"Dropsite.sol\":4601:4673  data=data = string(abi.encodePacked(\"Silver_\",Strings.toString(Silver))) */\n      swap1\n      dup1\n      sload\n      tag_272\n      swap1\n      tag_152\n      jump\t// in\n    tag_272:\n      tag_273\n      swap3\n      swap2\n      swap1\n      tag_274\n      jump\t// in\n    tag_273:\n      pop\n        /* \"Dropsite.sol\":4707:4712  nftId */\n      dup1\n        /* \"Dropsite.sol\":4700:4712  return nftId */\n      swap2\n      pop\n      pop\n      jump(tag_242)\n        /* \"Dropsite.sol\":4533:5342  if(nftId <= 2 && Silver <= 850) {... */\n    tag_266:\n        /* \"Dropsite.sol\":4924:4927  100 */\n      0x64\n        /* \"Dropsite.sol\":4917:4921  Gold */\n      sload(0x08)\n        /* \"Dropsite.sol\":4917:4927  Gold < 100 */\n      lt\n        /* \"Dropsite.sol\":4914:5333  if(Gold < 100) {... */\n      iszero\n      tag_276\n      jumpi\n        /* \"Dropsite.sol\":4955:4956  1 */\n      0x01\n        /* \"Dropsite.sol\":4947:4956  nftId = 1 */\n      swap1\n      pop\n        /* \"Dropsite.sol\":4974:4978  Gold */\n      0x08\n      0x00\n        /* \"Dropsite.sol\":4974:4980  Gold++ */\n      dup2\n      sload\n      dup1\n      swap3\n      swap2\n      swap1\n      tag_277\n      swap1\n      tag_130\n      jump\t// in\n    tag_277:\n      swap2\n      swap1\n      pop\n      sstore\n      pop\n        /* \"Dropsite.sol\":5037:5059  Strings.toString(Gold) */\n      tag_278\n        /* \"Dropsite.sol\":5054:5058  Gold */\n      sload(0x08)\n        /* \"Dropsite.sol\":5037:5053  Strings.toString */\n      tag_251\n        /* \"Dropsite.sol\":5037:5059  Strings.toString(Gold) */\n      jump\t// in\n    tag_278:\n        /* \"Dropsite.sol\":5012:5060  abi.encodePacked(\"Gold_\",Strings.toString(Gold)) */\n      add(0x20, mload(0x40))\n      tag_279\n      swap2\n      swap1\n      tag_262\n      jump\t// in\n    tag_279:\n      mload(0x40)\n      0x20\n      dup2\n      dup4\n      sub\n      sub\n      dup2\n      mstore\n      swap1\n      0x40\n      mstore\n        /* \"Dropsite.sol\":4998:5002  data */\n      0x02\n        /* \"Dropsite.sol\":4998:5061  data = string(abi.encodePacked(\"Gold_\",Strings.toString(Gold))) */\n      swap1\n      dup1\n      mload\n      swap1\n      0x20\n      add\n      swap1\n      tag_280\n      swap3\n      swap2\n      swap1\n      tag_255\n      jump\t// in\n    tag_280:\n      pop\n        /* \"Dropsite.sol\":5104:5109  nftId */\n      dup1\n        /* \"Dropsite.sol\":5097:5109  return nftId */\n      swap2\n      pop\n      pop\n      jump(tag_242)\n        /* \"Dropsite.sol\":4914:5333  if(Gold < 100) {... */\n    tag_276:\n        /* \"Dropsite.sol\":5156:5157  0 */\n      0x00\n        /* \"Dropsite.sol\":5148:5157  nftId = 0 */\n      swap1\n      pop\n        /* \"Dropsite.sol\":5175:5182  Diamond */\n      0x07\n      0x00\n        /* \"Dropsite.sol\":5175:5184  Diamond++ */\n      dup2\n      sload\n      dup1\n      swap3\n      swap2\n      swap1\n      tag_282\n      swap1\n      tag_130\n      jump\t// in\n    tag_282:\n      swap2\n      swap1\n      pop\n      sstore\n      pop\n        /* \"Dropsite.sol\":5244:5269  Strings.toString(Diamond) */\n      tag_283\n        /* \"Dropsite.sol\":5261:5268  Diamond */\n      sload(0x07)\n        /* \"Dropsite.sol\":5244:5260  Strings.toString */\n      tag_251\n        /* \"Dropsite.sol\":5244:5269  Strings.toString(Diamond) */\n      jump\t// in\n    tag_283:\n        /* \"Dropsite.sol\":5216:5270  abi.encodePacked(\"Diamond_\",Strings.toString(Diamond)) */\n      add(0x20, mload(0x40))\n      tag_284\n      swap2\n      swap1\n      tag_253\n      jump\t// in\n    tag_284:\n      mload(0x40)\n      0x20\n      dup2\n      dup4\n      sub\n      sub\n      dup2\n      mstore\n      swap1\n      0x40\n      mstore\n        /* \"Dropsite.sol\":5202:5206  data */\n      0x02\n        /* \"Dropsite.sol\":5202:5271  data = string(abi.encodePacked(\"Diamond_\",Strings.toString(Diamond))) */\n      swap1\n      dup1\n      mload\n      swap1\n      0x20\n      add\n      swap1\n      tag_285\n      swap3\n      swap2\n      swap1\n      tag_255\n      jump\t// in\n    tag_285:\n      pop\n        /* \"Dropsite.sol\":5313:5318  nftId */\n      dup1\n        /* \"Dropsite.sol\":5306:5318  return nftId */\n      swap2\n      pop\n      pop\n        /* \"Dropsite.sol\":1238:1239  _ */\n    tag_242:\n        /* \"Dropsite.sol\":3765:5347  function updateConditions(uint index) internal contractIsNotPaused returns(uint) {... */\n      swap2\n      swap1\n      pop\n      jump\t// out\n        /* \"ERC1155_Dropsite.sol\":835:1387  function _mint(... */\n    tag_157:\n        /* \"ERC1155_Dropsite.sol\":997:998  0 */\n      0x00\n        /* \"ERC1155_Dropsite.sol\":983:999  to != address(0) */\n      0xffffffffffffffffffffffffffffffffffffffff\n      and\n        /* \"ERC1155_Dropsite.sol\":983:985  to */\n      dup5\n        /* \"ERC1155_Dropsite.sol\":983:999  to != address(0) */\n      0xffffffffffffffffffffffffffffffffffffffff\n      and\n      eq\n      iszero\n        /* \"ERC1155_Dropsite.sol\":975:1037  require(to != address(0), \"ERC1155: mint to the zero address\") */\n      tag_287\n      jumpi\n      mload(0x40)\n      0x08c379a000000000000000000000000000000000000000000000000000000000\n      dup2\n      mstore\n      0x04\n      add\n      tag_288\n      swap1\n      tag_289\n      jump\t// in\n    tag_288:\n      mload(0x40)\n      dup1\n      swap2\n      sub\n      swap1\n      revert\n    tag_287:\n        /* \"ERC1155_Dropsite.sol\":1048:1064  address operator */\n      0x00\n        /* \"ERC1155_Dropsite.sol\":1067:1079  _msgSender() */\n      tag_290\n        /* \"ERC1155_Dropsite.sol\":1067:1077  _msgSender */\n      tag_86\n        /* \"ERC1155_Dropsite.sol\":1067:1079  _msgSender() */\n      jump\t// in\n    tag_290:\n        /* \"ERC1155_Dropsite.sol\":1048:1079  address operator = _msgSender() */\n      swap1\n      pop\n        /* \"ERC1155_Dropsite.sol\":1090:1192  _beforeTokenTransfer(operator, address(0), to, _asSingletonArray(id), _asSingletonArray(amount), data) */\n      tag_291\n        /* \"ERC1155_Dropsite.sol\":1111:1119  operator */\n      dup2\n        /* \"ERC1155_Dropsite.sol\":1129:1130  0 */\n      0x00\n        /* \"ERC1155_Dropsite.sol\":1133:1135  to */\n      dup8\n        /* \"ERC1155_Dropsite.sol\":1137:1158  _asSingletonArray(id) */\n      tag_292\n        /* \"ERC1155_Dropsite.sol\":1155:1157  id */\n      dup9\n        /* \"ERC1155_Dropsite.sol\":1137:1154  _asSingletonArray */\n      tag_293\n        /* \"ERC1155_Dropsite.sol\":1137:1158  _asSingletonArray(id) */\n      jump\t// in\n    tag_292:\n        /* \"ERC1155_Dropsite.sol\":1160:1185  _asSingletonArray(amount) */\n      tag_294\n        /* \"ERC1155_Dropsite.sol\":1178:1184  amount */\n      dup9\n        /* \"ERC1155_Dropsite.sol\":1160:1177  _asSingletonArray */\n      tag_293\n        /* \"ERC1155_Dropsite.sol\":1160:1185  _asSingletonArray(amount) */\n      jump\t// in\n    tag_294:\n        /* \"ERC1155_Dropsite.sol\":1187:1191  data */\n      dup8\n        /* \"ERC1155_Dropsite.sol\":1090:1110  _beforeTokenTransfer */\n      tag_295\n        /* \"ERC1155_Dropsite.sol\":1090:1192  _beforeTokenTransfer(operator, address(0), to, _asSingletonArray(id), _asSingletonArray(amount), data) */\n      jump\t// in\n    tag_291:\n        /* \"ERC1155_Dropsite.sol\":1223:1229  amount */\n      dup3\n        /* \"ERC1155_Dropsite.sol\":1202:1211  _balances */\n      0x00\n        /* \"ERC1155_Dropsite.sol\":1202:1215  _balances[id] */\n      dup1\n        /* \"ERC1155_Dropsite.sol\":1212:1214  id */\n      dup7\n        /* \"ERC1155_Dropsite.sol\":1202:1215  _balances[id] */\n      dup2\n      mstore\n      0x20\n      add\n      swap1\n      dup2\n      mstore\n      0x20\n      add\n      0x00\n      keccak256\n        /* \"ERC1155_Dropsite.sol\":1202:1219  _balances[id][to] */\n      0x00\n        /* \"ERC1155_Dropsite.sol\":1216:1218  to */\n      dup8\n        /* \"ERC1155_Dropsite.sol\":1202:1219  _balances[id][to] */\n      0xffffffffffffffffffffffffffffffffffffffff\n      and\n      0xffffffffffffffffffffffffffffffffffffffff\n      and\n      dup2\n      mstore\n      0x20\n      add\n      swap1\n      dup2\n      mstore\n      0x20\n      add\n      0x00\n      keccak256\n      0x00\n        /* \"ERC1155_Dropsite.sol\":1202:1229  _balances[id][to] += amount */\n      dup3\n      dup3\n      sload\n      tag_296\n      swap2\n      swap1\n      tag_231\n      jump\t// in\n    tag_296:\n      swap3\n      pop\n      pop\n      dup2\n      swap1\n      sstore\n      pop\n        /* \"ERC1155_Dropsite.sol\":1281:1283  to */\n      dup5\n        /* \"ERC1155_Dropsite.sol\":1244:1296  TransferSingle(operator, address(0), to, id, amount) */\n      0xffffffffffffffffffffffffffffffffffffffff\n      and\n        /* \"ERC1155_Dropsite.sol\":1277:1278  0 */\n      0x00\n        /* \"ERC1155_Dropsite.sol\":1244:1296  TransferSingle(operator, address(0), to, id, amount) */\n      0xffffffffffffffffffffffffffffffffffffffff\n      and\n        /* \"ERC1155_Dropsite.sol\":1259:1267  operator */\n      dup3\n        /* \"ERC1155_Dropsite.sol\":1244:1296  TransferSingle(operator, address(0), to, id, amount) */\n      0xffffffffffffffffffffffffffffffffffffffff\n      and\n      0xc3d58168c5ae7397731d063d5bbf3d657854427343f4c083240f7aacaa2d0f62\n        /* \"ERC1155_Dropsite.sol\":1285:1287  id */\n      dup8\n        /* \"ERC1155_Dropsite.sol\":1289:1295  amount */\n      dup8\n        /* \"ERC1155_Dropsite.sol\":1244:1296  TransferSingle(operator, address(0), to, id, amount) */\n      mload(0x40)\n      tag_297\n      swap3\n      swap2\n      swap1\n      tag_298\n      jump\t// in\n    tag_297:\n      mload(0x40)\n      dup1\n      swap2\n      sub\n      swap1\n      log4\n        /* \"ERC1155_Dropsite.sol\":1306:1380  _doSafeTransferAcceptanceCheck(operator, address(0), to, id, amount, data) */\n      tag_299\n        /* \"ERC1155_Dropsite.sol\":1337:1345  operator */\n      dup2\n        /* \"ERC1155_Dropsite.sol\":1355:1356  0 */\n      0x00\n        /* \"ERC1155_Dropsite.sol\":1359:1361  to */\n      dup8\n        /* \"ERC1155_Dropsite.sol\":1363:1365  id */\n      dup8\n        /* \"ERC1155_Dropsite.sol\":1367:1373  amount */\n      dup8\n        /* \"ERC1155_Dropsite.sol\":1375:1379  data */\n      dup8\n        /* \"ERC1155_Dropsite.sol\":1306:1336  _doSafeTransferAcceptanceCheck */\n      tag_300\n        /* \"ERC1155_Dropsite.sol\":1306:1380  _doSafeTransferAcceptanceCheck(operator, address(0), to, id, amount, data) */\n      jump\t// in\n    tag_299:\n        /* \"ERC1155_Dropsite.sol\":965:1387  {... */\n      pop\n        /* \"ERC1155_Dropsite.sol\":835:1387  function _mint(... */\n      pop\n      pop\n      pop\n      pop\n      jump\t// out\n        /* \"Dropsite.sol\":6317:6436  function depositAmount(address payee,uint amountToDeposit) internal {... */\n    tag_187:\n        /* \"Dropsite.sol\":6414:6429  amountToDeposit */\n      dup1\n        /* \"Dropsite.sol\":6395:6403  deposits */\n      0x0b\n        /* \"Dropsite.sol\":6395:6410  deposits[payee] */\n      0x00\n        /* \"Dropsite.sol\":6404:6409  payee */\n      dup5\n        /* \"Dropsite.sol\":6395:6410  deposits[payee] */\n      0xffffffffffffffffffffffffffffffffffffffff\n      and\n      0xffffffffffffffffffffffffffffffffffffffff\n      and\n      dup2\n      mstore\n      0x20\n      add\n      swap1\n      dup2\n      mstore\n      0x20\n      add\n      0x00\n      keccak256\n      0x00\n        /* \"Dropsite.sol\":6395:6429  deposits[payee] += amountToDeposit */\n      dup3\n      dup3\n      sload\n      tag_302\n      swap2\n      swap1\n      tag_231\n      jump\t// in\n    tag_302:\n      swap3\n      pop\n      pop\n      dup2\n      swap1\n      sstore\n      pop\n        /* \"Dropsite.sol\":6317:6436  function depositAmount(address payee,uint amountToDeposit) internal {... */\n      pop\n      pop\n      jump\t// out\n        /* \"Strings.sol\":329:1032  function toString(uint256 value) internal pure returns (string memory) {... */\n    tag_251:\n        /* \"Strings.sol\":385:398  string memory */\n      0x60\n        /* \"Strings.sol\":611:612  0 */\n      0x00\n        /* \"Strings.sol\":602:607  value */\n      dup3\n        /* \"Strings.sol\":602:612  value == 0 */\n      eq\n        /* \"Strings.sol\":598:649  if (value == 0) {... */\n      iszero\n      tag_304\n      jumpi\n        /* \"Strings.sol\":628:638  return \"0\" */\n      mload(0x40)\n      dup1\n      0x40\n      add\n      0x40\n      mstore\n      dup1\n      0x01\n      dup2\n      mstore\n      0x20\n      add\n      0x3000000000000000000000000000000000000000000000000000000000000000\n      dup2\n      mstore\n      pop\n      swap1\n      pop\n      jump(tag_303)\n        /* \"Strings.sol\":598:649  if (value == 0) {... */\n    tag_304:\n        /* \"Strings.sol\":658:670  uint256 temp */\n      0x00\n        /* \"Strings.sol\":673:678  value */\n      dup3\n        /* \"Strings.sol\":658:678  uint256 temp = value */\n      swap1\n      pop\n        /* \"Strings.sol\":688:702  uint256 digits */\n      0x00\n        /* \"Strings.sol\":712:787  while (temp != 0) {... */\n    tag_305:\n        /* \"Strings.sol\":727:728  0 */\n      0x00\n        /* \"Strings.sol\":719:723  temp */\n      dup3\n        /* \"Strings.sol\":719:728  temp != 0 */\n      eq\n        /* \"Strings.sol\":712:787  while (temp != 0) {... */\n      tag_306\n      jumpi\n        /* \"Strings.sol\":744:752  digits++ */\n      dup1\n      dup1\n      tag_307\n      swap1\n      tag_130\n      jump\t// in\n    tag_307:\n      swap2\n      pop\n      pop\n        /* \"Strings.sol\":774:776  10 */\n      0x0a\n        /* \"Strings.sol\":766:776  temp /= 10 */\n      dup3\n      tag_308\n      swap2\n      swap1\n      tag_309\n      jump\t// in\n    tag_308:\n      swap2\n      pop\n        /* \"Strings.sol\":712:787  while (temp != 0) {... */\n      jump(tag_305)\n    tag_306:\n        /* \"Strings.sol\":796:815  bytes memory buffer */\n      0x00\n        /* \"Strings.sol\":828:834  digits */\n      dup2\n        /* \"Strings.sol\":818:835  new bytes(digits) */\n      0xffffffffffffffff\n      dup2\n      gt\n      iszero\n      tag_310\n      jumpi\n      tag_311\n      tag_312\n      jump\t// in\n    tag_311:\n    tag_310:\n      mload(0x40)\n      swap1\n      dup1\n      dup3\n      mstore\n      dup1\n      0x1f\n      add\n      not(0x1f)\n      and\n      0x20\n      add\n      dup3\n      add\n      0x40\n      mstore\n      dup1\n      iszero\n      tag_313\n      jumpi\n      dup2\n      0x20\n      add\n      0x01\n      dup3\n      mul\n      dup1\n      calldatasize\n      dup4\n      calldatacopy\n      dup1\n      dup3\n      add\n      swap2\n      pop\n      pop\n      swap1\n      pop\n    tag_313:\n      pop\n        /* \"Strings.sol\":796:835  bytes memory buffer = new bytes(digits) */\n      swap1\n      pop\n        /* \"Strings.sol\":845:995  while (value != 0) {... */\n    tag_314:\n        /* \"Strings.sol\":861:862  0 */\n      0x00\n        /* \"Strings.sol\":852:857  value */\n      dup6\n        /* \"Strings.sol\":852:862  value != 0 */\n      eq\n        /* \"Strings.sol\":845:995  while (value != 0) {... */\n      tag_315\n      jumpi\n        /* \"Strings.sol\":888:889  1 */\n      0x01\n        /* \"Strings.sol\":878:889  digits -= 1 */\n      dup3\n      tag_316\n      swap2\n      swap1\n      tag_317\n      jump\t// in\n    tag_316:\n      swap2\n      pop\n        /* \"Strings.sol\":954:956  10 */\n      0x0a\n        /* \"Strings.sol\":946:951  value */\n      dup6\n        /* \"Strings.sol\":946:956  value % 10 */\n      tag_318\n      swap2\n      swap1\n      tag_238\n      jump\t// in\n    tag_318:\n        /* \"Strings.sol\":933:935  48 */\n      0x30\n        /* \"Strings.sol\":933:957  48 + uint256(value % 10) */\n      tag_319\n      swap2\n      swap1\n      tag_231\n      jump\t// in\n    tag_319:\n        /* \"Strings.sol\":920:959  bytes1(uint8(48 + uint256(value % 10))) */\n      0xf8\n      shl\n        /* \"Strings.sol\":903:909  buffer */\n      dup2\n        /* \"Strings.sol\":910:916  digits */\n      dup4\n        /* \"Strings.sol\":903:917  buffer[digits] */\n      dup2\n      mload\n      dup2\n      lt\n      tag_320\n      jumpi\n      tag_321\n      tag_245\n      jump\t// in\n    tag_321:\n    tag_320:\n      0x20\n      add\n      add\n        /* \"Strings.sol\":903:959  buffer[digits] = bytes1(uint8(48 + uint256(value % 10))) */\n      swap1\n      not(0xffffffffffffffffffffffffffffffffffffffffffffffffffffffffffffff)\n      and\n      swap1\n      dup2\n      0x00\n      byte\n      swap1\n      mstore8\n      pop\n        /* \"Strings.sol\":982:984  10 */\n      0x0a\n        /* \"Strings.sol\":973:984  value /= 10 */\n      dup6\n      tag_322\n      swap2\n      swap1\n      tag_309\n      jump\t// in\n    tag_322:\n      swap5\n      pop\n        /* \"Strings.sol\":845:995  while (value != 0) {... */\n      jump(tag_314)\n    tag_315:\n        /* \"Strings.sol\":1018:1024  buffer */\n      dup1\n        /* \"Strings.sol\":1004:1025  return string(buffer) */\n      swap4\n      pop\n      pop\n      pop\n      pop\n        /* \"Strings.sol\":329:1032  function toString(uint256 value) internal pure returns (string memory) {... */\n    tag_303:\n      swap2\n      swap1\n      pop\n      jump\t// out\n        /* \"ERC1155_Dropsite.sol\":2347:2540  function _asSingletonArray(uint256 element) private pure returns (uint256[] memory) {... */\n    tag_293:\n        /* \"ERC1155_Dropsite.sol\":2413:2429  uint256[] memory */\n      0x60\n        /* \"ERC1155_Dropsite.sol\":2441:2463  uint256[] memory array */\n      0x00\n        /* \"ERC1155_Dropsite.sol\":2480:2481  1 */\n      0x01\n        /* \"ERC1155_Dropsite.sol\":2466:2482  new uint256[](1) */\n      0xffffffffffffffff\n      dup2\n      gt\n      iszero\n      tag_324\n      jumpi\n      tag_325\n      tag_312\n      jump\t// in\n    tag_325:\n    tag_324:\n      mload(0x40)\n      swap1\n      dup1\n      dup3\n      mstore\n      dup1\n      0x20\n      mul\n      0x20\n      add\n      dup3\n      add\n      0x40\n      mstore\n      dup1\n      iszero\n      tag_326\n      jumpi\n      dup2\n      0x20\n      add\n      0x20\n      dup3\n      mul\n      dup1\n      calldatasize\n      dup4\n      calldatacopy\n      dup1\n      dup3\n      add\n      swap2\n      pop\n      pop\n      swap1\n      pop\n    tag_326:\n      pop\n        /* \"ERC1155_Dropsite.sol\":2441:2482  uint256[] memory array = new uint256[](1) */\n      swap1\n      pop\n        /* \"ERC1155_Dropsite.sol\":2503:2510  element */\n      dup3\n        /* \"ERC1155_Dropsite.sol\":2492:2497  array */\n      dup2\n        /* \"ERC1155_Dropsite.sol\":2498:2499  0 */\n      0x00\n        /* \"ERC1155_Dropsite.sol\":2492:2500  array[0] */\n      dup2\n      mload\n      dup2\n      lt\n      tag_327\n      jumpi\n      tag_328\n      tag_245\n      jump\t// in\n    tag_328:\n    tag_327:\n      0x20\n      mul\n      0x20\n      add\n      add\n        /* \"ERC1155_Dropsite.sol\":2492:2510  array[0] = element */\n      dup2\n      dup2\n      mstore\n      pop\n      pop\n        /* \"ERC1155_Dropsite.sol\":2528:2533  array */\n      dup1\n        /* \"ERC1155_Dropsite.sol\":2521:2533  return array */\n      swap2\n      pop\n      pop\n        /* \"ERC1155_Dropsite.sol\":2347:2540  function _asSingletonArray(uint256 element) private pure returns (uint256[] memory) {... */\n      swap2\n      swap1\n      pop\n      jump\t// out\n        /* \"ERC1155_Dropsite.sol\":1394:1609  function _beforeTokenTransfer(... */\n    tag_295:\n      pop\n      pop\n      pop\n      pop\n      pop\n      pop\n      jump\t// out\n        /* \"ERC1155_Dropsite.sol\":1615:2341  function _doSafeTransferAcceptanceCheck(... */\n    tag_300:\n        /* \"ERC1155_Dropsite.sol\":1823:1838  to.isContract() */\n      tag_331\n        /* \"ERC1155_Dropsite.sol\":1823:1825  to */\n      dup5\n        /* \"ERC1155_Dropsite.sol\":1823:1836  to.isContract */\n      0xffffffffffffffffffffffffffffffffffffffff\n      and\n      tag_332\n        /* \"ERC1155_Dropsite.sol\":1823:1838  to.isContract() */\n      jump\t// in\n    tag_331:\n        /* \"ERC1155_Dropsite.sol\":1819:2335  if (to.isContract()) {... */\n      iszero\n      tag_333\n      jumpi\n        /* \"ERC1155_Dropsite.sol\":1875:1877  to */\n      dup4\n        /* \"ERC1155_Dropsite.sol\":1858:1896  IERC1155Receiver(to).onERC1155Received */\n      0xffffffffffffffffffffffffffffffffffffffff\n      and\n      0xae89a248\n        /* \"ERC1155_Dropsite.sol\":1897:1905  operator */\n      dup8\n        /* \"ERC1155_Dropsite.sol\":1907:1911  from */\n      dup8\n        /* \"ERC1155_Dropsite.sol\":1913:1915  id */\n      dup7\n        /* \"ERC1155_Dropsite.sol\":1917:1923  amount */\n      dup7\n        /* \"ERC1155_Dropsite.sol\":1925:1929  data */\n      dup7\n        /* \"ERC1155_Dropsite.sol\":1858:1930  IERC1155Receiver(to).onERC1155Received(operator, from, id, amount, data) */\n      mload(0x40)\n      dup7\n      0xffffffff\n      and\n      0xe0\n      shl\n      dup2\n      mstore\n      0x04\n      add\n      tag_334\n      swap6\n      swap5\n      swap4\n      swap3\n      swap2\n      swap1\n      tag_335\n      jump\t// in\n    tag_334:\n      0x20\n      mload(0x40)\n      dup1\n      dup4\n      sub\n      dup2\n      0x00\n      dup8\n      dup1\n      extcodesize\n      iszero\n      dup1\n      iszero\n      tag_336\n      jumpi\n      0x00\n      dup1\n      revert\n    tag_336:\n      pop\n      gas\n      call\n      swap3\n      pop\n      pop\n      pop\n      dup1\n      iszero\n      tag_337\n      jumpi\n      pop\n      mload(0x40)\n      returndatasize\n      not(0x1f)\n      0x1f\n      dup3\n      add\n      and\n      dup3\n      add\n      dup1\n      0x40\n      mstore\n      pop\n      dup2\n      add\n      swap1\n      tag_338\n      swap2\n      swap1\n      tag_339\n      jump\t// in\n    tag_338:\n      0x01\n    tag_337:\n        /* \"ERC1155_Dropsite.sol\":1854:2325  try IERC1155Receiver(to).onERC1155Received(operator, from, id, amount, data) returns (bytes4 response) {... */\n      tag_340\n      jumpi\n      tag_344\n      tag_345\n      jump\t// in\n    tag_344:\n      dup1\n      0x08c379a0\n      eq\n      iszero\n      tag_343\n      jumpi\n      pop\n      tag_346\n      tag_347\n      jump\t// in\n    tag_346:\n      dup1\n      tag_348\n      jumpi\n      pop\n      jump(tag_342)\n    tag_348:\n        /* \"ERC1155_Dropsite.sol\":2201:2207  reason */\n      dup1\n        /* \"ERC1155_Dropsite.sol\":2194:2208  revert(reason) */\n      mload(0x40)\n      0x08c379a000000000000000000000000000000000000000000000000000000000\n      dup2\n      mstore\n      0x04\n      add\n      tag_349\n      swap2\n      swap1\n      tag_350\n      jump\t// in\n    tag_349:\n      mload(0x40)\n      dup1\n      swap2\n      sub\n      swap1\n      revert\n        /* \"ERC1155_Dropsite.sol\":1854:2325  try IERC1155Receiver(to).onERC1155Received(operator, from, id, amount, data) returns (bytes4 response) {... */\n    tag_343:\n      pop\n    tag_342:\n        /* \"ERC1155_Dropsite.sol\":2248:2310  revert(\"ERC1155: transfer to non ERC1155Receiver implementer\") */\n      mload(0x40)\n      0x08c379a000000000000000000000000000000000000000000000000000000000\n      dup2\n      mstore\n      0x04\n      add\n      tag_351\n      swap1\n      tag_352\n      jump\t// in\n    tag_351:\n      mload(0x40)\n      dup1\n      swap2\n      sub\n      swap1\n      revert\n        /* \"ERC1155_Dropsite.sol\":1854:2325  try IERC1155Receiver(to).onERC1155Received(operator, from, id, amount, data) returns (bytes4 response) {... */\n    tag_340:\n        /* \"ERC1155_Dropsite.sol\":1991:2034  IERC1155Receiver.onERC1155Received.selector */\n      shl(0xe0, 0xae89a248)\n        /* \"ERC1155_Dropsite.sol\":1979:2034  response != IERC1155Receiver.onERC1155Received.selector */\n      not(0xffffffffffffffffffffffffffffffffffffffffffffffffffffffff)\n      and\n        /* \"ERC1155_Dropsite.sol\":1979:1987  response */\n      dup2\n        /* \"ERC1155_Dropsite.sol\":1979:2034  response != IERC1155Receiver.onERC1155Received.selector */\n      not(0xffffffffffffffffffffffffffffffffffffffffffffffffffffffff)\n      and\n      eq\n        /* \"ERC1155_Dropsite.sol\":1975:2127  if (response != IERC1155Receiver.onERC1155Received.selector) {... */\n      tag_354\n      jumpi\n        /* \"ERC1155_Dropsite.sol\":2058:2108  revert(\"ERC1155: ERC1155Receiver rejected tokens\") */\n      mload(0x40)\n      0x08c379a000000000000000000000000000000000000000000000000000000000\n      dup2\n      mstore\n      0x04\n      add\n      tag_355\n      swap1\n      tag_356\n      jump\t// in\n    tag_355:\n      mload(0x40)\n      dup1\n      swap2\n      sub\n      swap1\n      revert\n        /* \"ERC1155_Dropsite.sol\":1975:2127  if (response != IERC1155Receiver.onERC1155Received.selector) {... */\n    tag_354:\n        /* \"ERC1155_Dropsite.sol\":1931:2141  returns (bytes4 response) {... */\n      pop\n        /* \"ERC1155_Dropsite.sol\":1819:2335  if (to.isContract()) {... */\n    tag_333:\n        /* \"ERC1155_Dropsite.sol\":1615:2341  function _doSafeTransferAcceptanceCheck(... */\n      pop\n      pop\n      pop\n      pop\n      pop\n      pop\n      jump\t// out\n        /* \"Address.sol\":771:1148  function isContract(address account) internal view returns (bool) {... */\n    tag_332:\n        /* \"Address.sol\":831:835  bool */\n      0x00\n        /* \"Address.sol\":1034:1046  uint256 size */\n      dup1\n        /* \"Address.sol\":1099:1106  account */\n      dup3\n        /* \"Address.sol\":1087:1107  extcodesize(account) */\n      extcodesize\n        /* \"Address.sol\":1079:1107  size := extcodesize(account) */\n      swap1\n      pop\n        /* \"Address.sol\":1140:1141  0 */\n      0x00\n        /* \"Address.sol\":1133:1137  size */\n      dup2\n        /* \"Address.sol\":1133:1141  size > 0 */\n      gt\n        /* \"Address.sol\":1126:1141  return size > 0 */\n      swap2\n      pop\n      pop\n        /* \"Address.sol\":771:1148  function isContract(address account) internal view returns (bool) {... */\n      swap2\n      swap1\n      pop\n      jump\t// out\n    tag_255:\n      dup3\n      dup1\n      sload\n      tag_358\n      swap1\n      tag_152\n      jump\t// in\n    tag_358:\n      swap1\n      0x00\n      mstore\n      keccak256(0x00, 0x20)\n      swap1\n      0x1f\n      add\n      0x20\n      swap1\n      div\n      dup2\n      add\n      swap3\n      dup3\n      tag_360\n      jumpi\n      0x00\n      dup6\n      sstore\n      jump(tag_359)\n    tag_360:\n      dup3\n      0x1f\n      lt\n      tag_361\n      jumpi\n      dup1\n      mload\n      not(0xff)\n      and\n      dup4\n      dup1\n      add\n      or\n      dup6\n      sstore\n      jump(tag_359)\n    tag_361:\n      dup3\n      dup1\n      add\n      0x01\n      add\n      dup6\n      sstore\n      dup3\n      iszero\n      tag_359\n      jumpi\n      swap2\n      dup3\n      add\n    tag_362:\n      dup3\n      dup2\n      gt\n      iszero\n      tag_363\n      jumpi\n      dup3\n      mload\n      dup3\n      sstore\n      swap2\n      0x20\n      add\n      swap2\n      swap1\n      0x01\n      add\n      swap1\n      jump(tag_362)\n    tag_363:\n    tag_359:\n      pop\n      swap1\n      pop\n      tag_364\n      swap2\n      swap1\n      tag_365\n      jump\t// in\n    tag_364:\n      pop\n      swap1\n      jump\t// out\n    tag_274:\n      dup3\n      dup1\n      sload\n      tag_366\n      swap1\n      tag_152\n      jump\t// in\n    tag_366:\n      swap1\n      0x00\n      mstore\n      keccak256(0x00, 0x20)\n      swap1\n      0x1f\n      add\n      0x20\n      swap1\n      div\n      dup2\n      add\n      swap3\n      dup3\n      tag_368\n      jumpi\n      0x00\n      dup6\n      sstore\n      jump(tag_367)\n    tag_368:\n      dup3\n      0x1f\n      lt\n      tag_369\n      jumpi\n      dup1\n      sload\n      dup6\n      sstore\n      jump(tag_367)\n    tag_369:\n      dup3\n      dup1\n      add\n      0x01\n      add\n      dup6\n      sstore\n      dup3\n      iszero\n      tag_367\n      jumpi\n      0x00\n      mstore\n      keccak256(0x00, 0x20)\n      swap2\n      0x1f\n      add\n      0x20\n      swap1\n      div\n      dup3\n      add\n    tag_370:\n      dup3\n      dup2\n      gt\n      iszero\n      tag_371\n      jumpi\n      dup3\n      sload\n      dup3\n      sstore\n      swap2\n      0x01\n      add\n      swap2\n      swap1\n      0x01\n      add\n      swap1\n      jump(tag_370)\n    tag_371:\n    tag_367:\n      pop\n      swap1\n      pop\n      tag_372\n      swap2\n      swap1\n      tag_365\n      jump\t// in\n    tag_372:\n      pop\n      swap1\n      jump\t// out\n    tag_365:\n    tag_373:\n      dup1\n      dup3\n      gt\n      iszero\n      tag_374\n      jumpi\n      0x00\n      dup2\n      0x00\n      swap1\n      sstore\n      pop\n      0x01\n      add\n      jump(tag_373)\n    tag_374:\n      pop\n      swap1\n      jump\t// out\n        /* \"#utility.yul\":7:146   */\n    tag_376:\n        /* \"#utility.yul\":53:58   */\n      0x00\n        /* \"#utility.yul\":91:97   */\n      dup2\n        /* \"#utility.yul\":78:98   */\n      calldataload\n        /* \"#utility.yul\":69:98   */\n      swap1\n      pop\n        /* \"#utility.yul\":107:140   */\n      tag_378\n        /* \"#utility.yul\":134:139   */\n      dup2\n        /* \"#utility.yul\":107:140   */\n      tag_379\n      jump\t// in\n    tag_378:\n        /* \"#utility.yul\":7:146   */\n      swap3\n      swap2\n      pop\n      pop\n      jump\t// out\n        /* \"#utility.yul\":152:307   */\n    tag_380:\n        /* \"#utility.yul\":206:211   */\n      0x00\n        /* \"#utility.yul\":244:250   */\n      dup2\n        /* \"#utility.yul\":231:251   */\n      calldataload\n        /* \"#utility.yul\":222:251   */\n      swap1\n      pop\n        /* \"#utility.yul\":260:301   */\n      tag_382\n        /* \"#utility.yul\":295:300   */\n      dup2\n        /* \"#utility.yul\":260:301   */\n      tag_383\n      jump\t// in\n    tag_382:\n        /* \"#utility.yul\":152:307   */\n      swap3\n      swap2\n      pop\n      pop\n      jump\t// out\n        /* \"#utility.yul\":313:454   */\n    tag_384:\n        /* \"#utility.yul\":369:374   */\n      0x00\n        /* \"#utility.yul\":400:406   */\n      dup2\n        /* \"#utility.yul\":394:407   */\n      mload\n        /* \"#utility.yul\":385:407   */\n      swap1\n      pop\n        /* \"#utility.yul\":416:448   */\n      tag_386\n        /* \"#utility.yul\":442:447   */\n      dup2\n        /* \"#utility.yul\":416:448   */\n      tag_387\n      jump\t// in\n    tag_386:\n        /* \"#utility.yul\":313:454   */\n      swap3\n      swap2\n      pop\n      pop\n      jump\t// out\n        /* \"#utility.yul\":460:599   */\n    tag_388:\n        /* \"#utility.yul\":506:511   */\n      0x00\n        /* \"#utility.yul\":544:550   */\n      dup2\n        /* \"#utility.yul\":531:551   */\n      calldataload\n        /* \"#utility.yul\":522:551   */\n      swap1\n      pop\n        /* \"#utility.yul\":560:593   */\n      tag_390\n        /* \"#utility.yul\":587:592   */\n      dup2\n        /* \"#utility.yul\":560:593   */\n      tag_391\n      jump\t// in\n    tag_390:\n        /* \"#utility.yul\":460:599   */\n      swap3\n      swap2\n      pop\n      pop\n      jump\t// out\n        /* \"#utility.yul\":605:934   */\n    tag_49:\n        /* \"#utility.yul\":664:670   */\n      0x00\n        /* \"#utility.yul\":713:715   */\n      0x20\n        /* \"#utility.yul\":701:710   */\n      dup3\n        /* \"#utility.yul\":692:699   */\n      dup5\n        /* \"#utility.yul\":688:711   */\n      sub\n        /* \"#utility.yul\":684:716   */\n      slt\n        /* \"#utility.yul\":681:800   */\n      iszero\n      tag_393\n      jumpi\n        /* \"#utility.yul\":719:798   */\n      tag_394\n      tag_395\n      jump\t// in\n    tag_394:\n        /* \"#utility.yul\":681:800   */\n    tag_393:\n        /* \"#utility.yul\":839:840   */\n      0x00\n        /* \"#utility.yul\":864:917   */\n      tag_396\n        /* \"#utility.yul\":909:916   */\n      dup5\n        /* \"#utility.yul\":900:906   */\n      dup3\n        /* \"#utility.yul\":889:898   */\n      dup6\n        /* \"#utility.yul\":885:907   */\n      add\n        /* \"#utility.yul\":864:917   */\n      tag_376\n      jump\t// in\n    tag_396:\n        /* \"#utility.yul\":854:917   */\n      swap2\n      pop\n        /* \"#utility.yul\":810:927   */\n      pop\n        /* \"#utility.yul\":605:934   */\n      swap3\n      swap2\n      pop\n      pop\n      jump\t// out\n        /* \"#utility.yul\":940:1285   */\n    tag_26:\n        /* \"#utility.yul\":1007:1013   */\n      0x00\n        /* \"#utility.yul\":1056:1058   */\n      0x20\n        /* \"#utility.yul\":1044:1053   */\n      dup3\n        /* \"#utility.yul\":1035:1042   */\n      dup5\n        /* \"#utility.yul\":1031:1054   */\n      sub\n        /* \"#utility.yul\":1027:1059   */\n      slt\n        /* \"#utility.yul\":1024:1143   */\n      iszero\n      tag_398\n      jumpi\n        /* \"#utility.yul\":1062:1141   */\n      tag_399\n      tag_395\n      jump\t// in\n    tag_399:\n        /* \"#utility.yul\":1024:1143   */\n    tag_398:\n        /* \"#utility.yul\":1182:1183   */\n      0x00\n        /* \"#utility.yul\":1207:1268   */\n      tag_400\n        /* \"#utility.yul\":1260:1267   */\n      dup5\n        /* \"#utility.yul\":1251:1257   */\n      dup3\n        /* \"#utility.yul\":1240:1249   */\n      dup6\n        /* \"#utility.yul\":1236:1258   */\n      add\n        /* \"#utility.yul\":1207:1268   */\n      tag_380\n      jump\t// in\n    tag_400:\n        /* \"#utility.yul\":1197:1268   */\n      swap2\n      pop\n        /* \"#utility.yul\":1153:1278   */\n      pop\n        /* \"#utility.yul\":940:1285   */\n      swap3\n      swap2\n      pop\n      pop\n      jump\t// out\n        /* \"#utility.yul\":1291:1765   */\n    tag_39:\n        /* \"#utility.yul\":1359:1365   */\n      0x00\n        /* \"#utility.yul\":1367:1373   */\n      dup1\n        /* \"#utility.yul\":1416:1418   */\n      0x40\n        /* \"#utility.yul\":1404:1413   */\n      dup4\n        /* \"#utility.yul\":1395:1402   */\n      dup6\n        /* \"#utility.yul\":1391:1414   */\n      sub\n        /* \"#utility.yul\":1387:1419   */\n      slt\n        /* \"#utility.yul\":1384:1503   */\n      iszero\n      tag_402\n      jumpi\n        /* \"#utility.yul\":1422:1501   */\n      tag_403\n      tag_395\n      jump\t// in\n    tag_403:\n        /* \"#utility.yul\":1384:1503   */\n    tag_402:\n        /* \"#utility.yul\":1542:1543   */\n      0x00\n        /* \"#utility.yul\":1567:1620   */\n      tag_404\n        /* \"#utility.yul\":1612:1619   */\n      dup6\n        /* \"#utility.yul\":1603:1609   */\n      dup3\n        /* \"#utility.yul\":1592:1601   */\n      dup7\n        /* \"#utility.yul\":1588:1610   */\n      add\n        /* \"#utility.yul\":1567:1620   */\n      tag_376\n      jump\t// in\n    tag_404:\n        /* \"#utility.yul\":1557:1620   */\n      swap3\n      pop\n        /* \"#utility.yul\":1513:1630   */\n      pop\n        /* \"#utility.yul\":1669:1671   */\n      0x20\n        /* \"#utility.yul\":1695:1748   */\n      tag_405\n        /* \"#utility.yul\":1740:1747   */\n      dup6\n        /* \"#utility.yul\":1731:1737   */\n      dup3\n        /* \"#utility.yul\":1720:1729   */\n      dup7\n        /* \"#utility.yul\":1716:1738   */\n      add\n        /* \"#utility.yul\":1695:1748   */\n      tag_388\n      jump\t// in\n    tag_405:\n        /* \"#utility.yul\":1685:1748   */\n      swap2\n      pop\n        /* \"#utility.yul\":1640:1758   */\n      pop\n        /* \"#utility.yul\":1291:1765   */\n      swap3\n      pop\n      swap3\n      swap1\n      pop\n      jump\t// out\n        /* \"#utility.yul\":1771:2120   */\n    tag_339:\n        /* \"#utility.yul\":1840:1846   */\n      0x00\n        /* \"#utility.yul\":1889:1891   */\n      0x20\n        /* \"#utility.yul\":1877:1886   */\n      dup3\n        /* \"#utility.yul\":1868:1875   */\n      dup5\n        /* \"#utility.yul\":1864:1887   */\n      sub\n        /* \"#utility.yul\":1860:1892   */\n      slt\n        /* \"#utility.yul\":1857:1976   */\n      iszero\n      tag_407\n      jumpi\n        /* \"#utility.yul\":1895:1974   */\n      tag_408\n      tag_395\n      jump\t// in\n    tag_408:\n        /* \"#utility.yul\":1857:1976   */\n    tag_407:\n        /* \"#utility.yul\":2015:2016   */\n      0x00\n        /* \"#utility.yul\":2040:2103   */\n      tag_409\n        /* \"#utility.yul\":2095:2102   */\n      dup5\n        /* \"#utility.yul\":2086:2092   */\n      dup3\n        /* \"#utility.yul\":2075:2084   */\n      dup6\n        /* \"#utility.yul\":2071:2093   */\n      add\n        /* \"#utility.yul\":2040:2103   */\n      tag_384\n      jump\t// in\n    tag_409:\n        /* \"#utility.yul\":2030:2103   */\n      swap2\n      pop\n        /* \"#utility.yul\":1986:2113   */\n      pop\n        /* \"#utility.yul\":1771:2120   */\n      swap3\n      swap2\n      pop\n      pop\n      jump\t// out\n        /* \"#utility.yul\":2126:2455   */\n    tag_77:\n        /* \"#utility.yul\":2185:2191   */\n      0x00\n        /* \"#utility.yul\":2234:2236   */\n      0x20\n        /* \"#utility.yul\":2222:2231   */\n      dup3\n        /* \"#utility.yul\":2213:2220   */\n      dup5\n        /* \"#utility.yul\":2209:2232   */\n      sub\n        /* \"#utility.yul\":2205:2237   */\n      slt\n        /* \"#utility.yul\":2202:2321   */\n      iszero\n      tag_411\n      jumpi\n        /* \"#utility.yul\":2240:2319   */\n      tag_412\n      tag_395\n      jump\t// in\n    tag_412:\n        /* \"#utility.yul\":2202:2321   */\n    tag_411:\n        /* \"#utility.yul\":2360:2361   */\n      0x00\n        /* \"#utility.yul\":2385:2438   */\n      tag_413\n        /* \"#utility.yul\":2430:2437   */\n      dup5\n        /* \"#utility.yul\":2421:2427   */\n      dup3\n        /* \"#utility.yul\":2410:2419   */\n      dup6\n        /* \"#utility.yul\":2406:2428   */\n      add\n        /* \"#utility.yul\":2385:2438   */\n      tag_388\n      jump\t// in\n    tag_413:\n        /* \"#utility.yul\":2375:2438   */\n      swap2\n      pop\n        /* \"#utility.yul\":2331:2448   */\n      pop\n        /* \"#utility.yul\":2126:2455   */\n      swap3\n      swap2\n      pop\n      pop\n      jump\t// out\n        /* \"#utility.yul\":2461:2640   */\n    tag_414:\n        /* \"#utility.yul\":2530:2540   */\n      0x00\n        /* \"#utility.yul\":2551:2597   */\n      tag_416\n        /* \"#utility.yul\":2593:2596   */\n      dup4\n        /* \"#utility.yul\":2585:2591   */\n      dup4\n        /* \"#utility.yul\":2551:2597   */\n      tag_417\n      jump\t// in\n    tag_416:\n        /* \"#utility.yul\":2629:2633   */\n      0x20\n        /* \"#utility.yul\":2624:2627   */\n      dup4\n        /* \"#utility.yul\":2620:2634   */\n      add\n        /* \"#utility.yul\":2606:2634   */\n      swap1\n      pop\n        /* \"#utility.yul\":2461:2640   */\n      swap3\n      swap2\n      pop\n      pop\n      jump\t// out\n        /* \"#utility.yul\":2646:2788   */\n    tag_418:\n        /* \"#utility.yul\":2749:2781   */\n      tag_420\n        /* \"#utility.yul\":2775:2780   */\n      dup2\n        /* \"#utility.yul\":2749:2781   */\n      tag_421\n      jump\t// in\n    tag_420:\n        /* \"#utility.yul\":2744:2747   */\n      dup3\n        /* \"#utility.yul\":2737:2782   */\n      mstore\n        /* \"#utility.yul\":2646:2788   */\n      pop\n      pop\n      jump\t// out\n        /* \"#utility.yul\":2794:2983   */\n    tag_422:\n        /* \"#utility.yul\":2915:2976   */\n      tag_424\n        /* \"#utility.yul\":2943:2975   */\n      tag_425\n        /* \"#utility.yul\":2969:2974   */\n      dup3\n        /* \"#utility.yul\":2943:2975   */\n      tag_421\n      jump\t// in\n    tag_425:\n        /* \"#utility.yul\":2915:2976   */\n      tag_426\n      jump\t// in\n    tag_424:\n        /* \"#utility.yul\":2910:2913   */\n      dup3\n        /* \"#utility.yul\":2903:2977   */\n      mstore\n        /* \"#utility.yul\":2794:2983   */\n      pop\n      pop\n      jump\t// out\n        /* \"#utility.yul\":2989:3107   */\n    tag_427:\n        /* \"#utility.yul\":3076:3100   */\n      tag_429\n        /* \"#utility.yul\":3094:3099   */\n      dup2\n        /* \"#utility.yul\":3076:3100   */\n      tag_430\n      jump\t// in\n    tag_429:\n        /* \"#utility.yul\":3071:3074   */\n      dup3\n        /* \"#utility.yul\":3064:3101   */\n      mstore\n        /* \"#utility.yul\":2989:3107   */\n      pop\n      pop\n      jump\t// out\n        /* \"#utility.yul\":3113:3270   */\n    tag_431:\n        /* \"#utility.yul\":3218:3263   */\n      tag_433\n        /* \"#utility.yul\":3238:3262   */\n      tag_434\n        /* \"#utility.yul\":3256:3261   */\n      dup3\n        /* \"#utility.yul\":3238:3262   */\n      tag_430\n      jump\t// in\n    tag_434:\n        /* \"#utility.yul\":3218:3263   */\n      tag_435\n      jump\t// in\n    tag_433:\n        /* \"#utility.yul\":3213:3216   */\n      dup3\n        /* \"#utility.yul\":3206:3264   */\n      mstore\n        /* \"#utility.yul\":3113:3270   */\n      pop\n      pop\n      jump\t// out\n        /* \"#utility.yul\":3306:4038   */\n    tag_436:\n        /* \"#utility.yul\":3425:3428   */\n      0x00\n        /* \"#utility.yul\":3454:3508   */\n      tag_438\n        /* \"#utility.yul\":3502:3507   */\n      dup3\n        /* \"#utility.yul\":3454:3508   */\n      tag_439\n      jump\t// in\n    tag_438:\n        /* \"#utility.yul\":3524:3610   */\n      tag_440\n        /* \"#utility.yul\":3603:3609   */\n      dup2\n        /* \"#utility.yul\":3598:3601   */\n      dup6\n        /* \"#utility.yul\":3524:3610   */\n      tag_441\n      jump\t// in\n    tag_440:\n        /* \"#utility.yul\":3517:3610   */\n      swap4\n      pop\n        /* \"#utility.yul\":3634:3690   */\n      tag_442\n        /* \"#utility.yul\":3684:3689   */\n      dup4\n        /* \"#utility.yul\":3634:3690   */\n      tag_443\n      jump\t// in\n    tag_442:\n        /* \"#utility.yul\":3713:3720   */\n      dup1\n        /* \"#utility.yul\":3744:3745   */\n      0x00\n        /* \"#utility.yul\":3729:4013   */\n    tag_444:\n        /* \"#utility.yul\":3754:3760   */\n      dup4\n        /* \"#utility.yul\":3751:3752   */\n      dup2\n        /* \"#utility.yul\":3748:3761   */\n      lt\n        /* \"#utility.yul\":3729:4013   */\n      iszero\n      tag_446\n      jumpi\n        /* \"#utility.yul\":3830:3836   */\n      dup2\n        /* \"#utility.yul\":3824:3837   */\n      mload\n        /* \"#utility.yul\":3857:3920   */\n      tag_447\n        /* \"#utility.yul\":3916:3919   */\n      dup9\n        /* \"#utility.yul\":3901:3914   */\n      dup3\n        /* \"#utility.yul\":3857:3920   */\n      tag_414\n      jump\t// in\n    tag_447:\n        /* \"#utility.yul\":3850:3920   */\n      swap8\n      pop\n        /* \"#utility.yul\":3943:4003   */\n      tag_448\n        /* \"#utility.yul\":3996:4002   */\n      dup4\n        /* \"#utility.yul\":3943:4003   */\n      tag_449\n      jump\t// in\n    tag_448:\n        /* \"#utility.yul\":3933:4003   */\n      swap3\n      pop\n        /* \"#utility.yul\":3789:4013   */\n      pop\n        /* \"#utility.yul\":3776:3777   */\n      0x01\n        /* \"#utility.yul\":3773:3774   */\n      dup2\n        /* \"#utility.yul\":3769:3778   */\n      add\n        /* \"#utility.yul\":3764:3778   */\n      swap1\n      pop\n        /* \"#utility.yul\":3729:4013   */\n      jump(tag_444)\n    tag_446:\n        /* \"#utility.yul\":3733:3747   */\n      pop\n        /* \"#utility.yul\":4029:4032   */\n      dup6\n        /* \"#utility.yul\":4022:4032   */\n      swap4\n      pop\n        /* \"#utility.yul\":3430:4038   */\n      pop\n      pop\n      pop\n        /* \"#utility.yul\":3306:4038   */\n      swap3\n      swap2\n      pop\n      pop\n      jump\t// out\n        /* \"#utility.yul\":4044:4153   */\n    tag_450:\n        /* \"#utility.yul\":4125:4146   */\n      tag_452\n        /* \"#utility.yul\":4140:4145   */\n      dup2\n        /* \"#utility.yul\":4125:4146   */\n      tag_453\n      jump\t// in\n    tag_452:\n        /* \"#utility.yul\":4120:4123   */\n      dup3\n        /* \"#utility.yul\":4113:4147   */\n      mstore\n        /* \"#utility.yul\":4044:4153   */\n      pop\n      pop\n      jump\t// out\n        /* \"#utility.yul\":4159:4523   */\n    tag_454:\n        /* \"#utility.yul\":4247:4250   */\n      0x00\n        /* \"#utility.yul\":4275:4314   */\n      tag_456\n        /* \"#utility.yul\":4308:4313   */\n      dup3\n        /* \"#utility.yul\":4275:4314   */\n      tag_457\n      jump\t// in\n    tag_456:\n        /* \"#utility.yul\":4330:4401   */\n      tag_458\n        /* \"#utility.yul\":4394:4400   */\n      dup2\n        /* \"#utility.yul\":4389:4392   */\n      dup6\n        /* \"#utility.yul\":4330:4401   */\n      tag_459\n      jump\t// in\n    tag_458:\n        /* \"#utility.yul\":4323:4401   */\n      swap4\n      pop\n        /* \"#utility.yul\":4410:4462   */\n      tag_460\n        /* \"#utility.yul\":4455:4461   */\n      dup2\n        /* \"#utility.yul\":4450:4453   */\n      dup6\n        /* \"#utility.yul\":4443:4447   */\n      0x20\n        /* \"#utility.yul\":4436:4441   */\n      dup7\n        /* \"#utility.yul\":4432:4448   */\n      add\n        /* \"#utility.yul\":4410:4462   */\n      tag_461\n      jump\t// in\n    tag_460:\n        /* \"#utility.yul\":4487:4516   */\n      tag_462\n        /* \"#utility.yul\":4509:4515   */\n      dup2\n        /* \"#utility.yul\":4487:4516   */\n      tag_463\n      jump\t// in\n    tag_462:\n        /* \"#utility.yul\":4482:4485   */\n      dup5\n        /* \"#utility.yul\":4478:4517   */\n      add\n        /* \"#utility.yul\":4471:4517   */\n      swap2\n      pop\n        /* \"#utility.yul\":4251:4523   */\n      pop\n        /* \"#utility.yul\":4159:4523   */\n      swap3\n      swap2\n      pop\n      pop\n      jump\t// out\n        /* \"#utility.yul\":4529:4906   */\n    tag_464:\n        /* \"#utility.yul\":4635:4638   */\n      0x00\n        /* \"#utility.yul\":4663:4702   */\n      tag_466\n        /* \"#utility.yul\":4696:4701   */\n      dup3\n        /* \"#utility.yul\":4663:4702   */\n      tag_457\n      jump\t// in\n    tag_466:\n        /* \"#utility.yul\":4718:4807   */\n      tag_467\n        /* \"#utility.yul\":4800:4806   */\n      dup2\n        /* \"#utility.yul\":4795:4798   */\n      dup6\n        /* \"#utility.yul\":4718:4807   */\n      tag_468\n      jump\t// in\n    tag_467:\n        /* \"#utility.yul\":4711:4807   */\n      swap4\n      pop\n        /* \"#utility.yul\":4816:4868   */\n      tag_469\n        /* \"#utility.yul\":4861:4867   */\n      dup2\n        /* \"#utility.yul\":4856:4859   */\n      dup6\n        /* \"#utility.yul\":4849:4853   */\n      0x20\n        /* \"#utility.yul\":4842:4847   */\n      dup7\n        /* \"#utility.yul\":4838:4854   */\n      add\n        /* \"#utility.yul\":4816:4868   */\n      tag_461\n      jump\t// in\n    tag_469:\n        /* \"#utility.yul\":4893:4899   */\n      dup1\n        /* \"#utility.yul\":4888:4891   */\n      dup5\n        /* \"#utility.yul\":4884:4900   */\n      add\n        /* \"#utility.yul\":4877:4900   */\n      swap2\n      pop\n        /* \"#utility.yul\":4639:4906   */\n      pop\n        /* \"#utility.yul\":4529:4906   */\n      swap3\n      swap2\n      pop\n      pop\n      jump\t// out\n        /* \"#utility.yul\":4912:5278   */\n    tag_470:\n        /* \"#utility.yul\":5054:5057   */\n      0x00\n        /* \"#utility.yul\":5075:5142   */\n      tag_472\n        /* \"#utility.yul\":5139:5141   */\n      0x34\n        /* \"#utility.yul\":5134:5137   */\n      dup4\n        /* \"#utility.yul\":5075:5142   */\n      tag_459\n      jump\t// in\n    tag_472:\n        /* \"#utility.yul\":5068:5142   */\n      swap2\n      pop\n        /* \"#utility.yul\":5151:5244   */\n      tag_473\n        /* \"#utility.yul\":5240:5243   */\n      dup3\n        /* \"#utility.yul\":5151:5244   */\n      tag_474\n      jump\t// in\n    tag_473:\n        /* \"#utility.yul\":5269:5271   */\n      0x40\n        /* \"#utility.yul\":5264:5267   */\n      dup3\n        /* \"#utility.yul\":5260:5272   */\n      add\n        /* \"#utility.yul\":5253:5272   */\n      swap1\n      pop\n        /* \"#utility.yul\":4912:5278   */\n      swap2\n      swap1\n      pop\n      jump\t// out\n        /* \"#utility.yul\":5284:5650   */\n    tag_475:\n        /* \"#utility.yul\":5426:5429   */\n      0x00\n        /* \"#utility.yul\":5447:5514   */\n      tag_477\n        /* \"#utility.yul\":5511:5513   */\n      0x28\n        /* \"#utility.yul\":5506:5509   */\n      dup4\n        /* \"#utility.yul\":5447:5514   */\n      tag_459\n      jump\t// in\n    tag_477:\n        /* \"#utility.yul\":5440:5514   */\n      swap2\n      pop\n        /* \"#utility.yul\":5523:5616   */\n      tag_478\n        /* \"#utility.yul\":5612:5615   */\n      dup3\n        /* \"#utility.yul\":5523:5616   */\n      tag_479\n      jump\t// in\n    tag_478:\n        /* \"#utility.yul\":5641:5643   */\n      0x40\n        /* \"#utility.yul\":5636:5639   */\n      dup3\n        /* \"#utility.yul\":5632:5644   */\n      add\n        /* \"#utility.yul\":5625:5644   */\n      swap1\n      pop\n        /* \"#utility.yul\":5284:5650   */\n      swap2\n      swap1\n      pop\n      jump\t// out\n        /* \"#utility.yul\":5656:6056   */\n    tag_480:\n        /* \"#utility.yul\":5816:5819   */\n      0x00\n        /* \"#utility.yul\":5837:5921   */\n      tag_482\n        /* \"#utility.yul\":5919:5920   */\n      0x08\n        /* \"#utility.yul\":5914:5917   */\n      dup4\n        /* \"#utility.yul\":5837:5921   */\n      tag_468\n      jump\t// in\n    tag_482:\n        /* \"#utility.yul\":5830:5921   */\n      swap2\n      pop\n        /* \"#utility.yul\":5930:6023   */\n      tag_483\n        /* \"#utility.yul\":6019:6022   */\n      dup3\n        /* \"#utility.yul\":5930:6023   */\n      tag_484\n      jump\t// in\n    tag_483:\n        /* \"#utility.yul\":6048:6049   */\n      0x08\n        /* \"#utility.yul\":6043:6046   */\n      dup3\n        /* \"#utility.yul\":6039:6050   */\n      add\n        /* \"#utility.yul\":6032:6050   */\n      swap1\n      pop\n        /* \"#utility.yul\":5656:6056   */\n      swap2\n      swap1\n      pop\n      jump\t// out\n        /* \"#utility.yul\":6062:6462   */\n    tag_485:\n        /* \"#utility.yul\":6222:6225   */\n      0x00\n        /* \"#utility.yul\":6243:6327   */\n      tag_487\n        /* \"#utility.yul\":6325:6326   */\n      0x05\n        /* \"#utility.yul\":6320:6323   */\n      dup4\n        /* \"#utility.yul\":6243:6327   */\n      tag_468\n      jump\t// in\n    tag_487:\n        /* \"#utility.yul\":6236:6327   */\n      swap2\n      pop\n        /* \"#utility.yul\":6336:6429   */\n      tag_488\n        /* \"#utility.yul\":6425:6428   */\n      dup3\n        /* \"#utility.yul\":6336:6429   */\n      tag_489\n      jump\t// in\n    tag_488:\n        /* \"#utility.yul\":6454:6455   */\n      0x05\n        /* \"#utility.yul\":6449:6452   */\n      dup3\n        /* \"#utility.yul\":6445:6456   */\n      add\n        /* \"#utility.yul\":6438:6456   */\n      swap1\n      pop\n        /* \"#utility.yul\":6062:6462   */\n      swap2\n      swap1\n      pop\n      jump\t// out\n        /* \"#utility.yul\":6468:6834   */\n    tag_490:\n        /* \"#utility.yul\":6610:6613   */\n      0x00\n        /* \"#utility.yul\":6631:6698   */\n      tag_492\n        /* \"#utility.yul\":6695:6697   */\n      0x12\n        /* \"#utility.yul\":6690:6693   */\n      dup4\n        /* \"#utility.yul\":6631:6698   */\n      tag_459\n      jump\t// in\n    tag_492:\n        /* \"#utility.yul\":6624:6698   */\n      swap2\n      pop\n        /* \"#utility.yul\":6707:6800   */\n      tag_493\n        /* \"#utility.yul\":6796:6799   */\n      dup3\n        /* \"#utility.yul\":6707:6800   */\n      tag_494\n      jump\t// in\n    tag_493:\n        /* \"#utility.yul\":6825:6827   */\n      0x20\n        /* \"#utility.yul\":6820:6823   */\n      dup3\n        /* \"#utility.yul\":6816:6828   */\n      add\n        /* \"#utility.yul\":6809:6828   */\n      swap1\n      pop\n        /* \"#utility.yul\":6468:6834   */\n      swap2\n      swap1\n      pop\n      jump\t// out\n        /* \"#utility.yul\":6840:7206   */\n    tag_495:\n        /* \"#utility.yul\":6982:6985   */\n      0x00\n        /* \"#utility.yul\":7003:7070   */\n      tag_497\n        /* \"#utility.yul\":7067:7069   */\n      0x1b\n        /* \"#utility.yul\":7062:7065   */\n      dup4\n        /* \"#utility.yul\":7003:7070   */\n      tag_459\n      jump\t// in\n    tag_497:\n        /* \"#utility.yul\":6996:7070   */\n      swap2\n      pop\n        /* \"#utility.yul\":7079:7172   */\n      tag_498\n        /* \"#utility.yul\":7168:7171   */\n      dup3\n        /* \"#utility.yul\":7079:7172   */\n      tag_499\n      jump\t// in\n    tag_498:\n        /* \"#utility.yul\":7197:7199   */\n      0x20\n        /* \"#utility.yul\":7192:7195   */\n      dup3\n        /* \"#utility.yul\":7188:7200   */\n      add\n        /* \"#utility.yul\":7181:7200   */\n      swap1\n      pop\n        /* \"#utility.yul\":6840:7206   */\n      swap2\n      swap1\n      pop\n      jump\t// out\n        /* \"#utility.yul\":7212:7578   */\n    tag_500:\n        /* \"#utility.yul\":7354:7357   */\n      0x00\n        /* \"#utility.yul\":7375:7442   */\n      tag_502\n        /* \"#utility.yul\":7439:7441   */\n      0x1b\n        /* \"#utility.yul\":7434:7437   */\n      dup4\n        /* \"#utility.yul\":7375:7442   */\n      tag_459\n      jump\t// in\n    tag_502:\n        /* \"#utility.yul\":7368:7442   */\n      swap2\n      pop\n        /* \"#utility.yul\":7451:7544   */\n      tag_503\n        /* \"#utility.yul\":7540:7543   */\n      dup3\n        /* \"#utility.yul\":7451:7544   */\n      tag_504\n      jump\t// in\n    tag_503:\n        /* \"#utility.yul\":7569:7571   */\n      0x20\n        /* \"#utility.yul\":7564:7567   */\n      dup3\n        /* \"#utility.yul\":7560:7572   */\n      add\n        /* \"#utility.yul\":7553:7572   */\n      swap1\n      pop\n        /* \"#utility.yul\":7212:7578   */\n      swap2\n      swap1\n      pop\n      jump\t// out\n        /* \"#utility.yul\":7584:7950   */\n    tag_505:\n        /* \"#utility.yul\":7726:7729   */\n      0x00\n        /* \"#utility.yul\":7747:7814   */\n      tag_507\n        /* \"#utility.yul\":7811:7813   */\n      0x15\n        /* \"#utility.yul\":7806:7809   */\n      dup4\n        /* \"#utility.yul\":7747:7814   */\n      tag_459\n      jump\t// in\n    tag_507:\n        /* \"#utility.yul\":7740:7814   */\n      swap2\n      pop\n        /* \"#utility.yul\":7823:7916   */\n      tag_508\n        /* \"#utility.yul\":7912:7915   */\n      dup3\n        /* \"#utility.yul\":7823:7916   */\n      tag_509\n      jump\t// in\n    tag_508:\n        /* \"#utility.yul\":7941:7943   */\n      0x20\n        /* \"#utility.yul\":7936:7939   */\n      dup3\n        /* \"#utility.yul\":7932:7944   */\n      add\n        /* \"#utility.yul\":7925:7944   */\n      swap1\n      pop\n        /* \"#utility.yul\":7584:7950   */\n      swap2\n      swap1\n      pop\n      jump\t// out\n        /* \"#utility.yul\":7956:8322   */\n    tag_510:\n        /* \"#utility.yul\":8098:8101   */\n      0x00\n        /* \"#utility.yul\":8119:8186   */\n      tag_512\n        /* \"#utility.yul\":8183:8185   */\n      0x1c\n        /* \"#utility.yul\":8178:8181   */\n      dup4\n        /* \"#utility.yul\":8119:8186   */\n      tag_459\n      jump\t// in\n    tag_512:\n        /* \"#utility.yul\":8112:8186   */\n      swap2\n      pop\n        /* \"#utility.yul\":8195:8288   */\n      tag_513\n        /* \"#utility.yul\":8284:8287   */\n      dup3\n        /* \"#utility.yul\":8195:8288   */\n      tag_514\n      jump\t// in\n    tag_513:\n        /* \"#utility.yul\":8313:8315   */\n      0x20\n        /* \"#utility.yul\":8308:8311   */\n      dup3\n        /* \"#utility.yul\":8304:8316   */\n      add\n        /* \"#utility.yul\":8297:8316   */\n      swap1\n      pop\n        /* \"#utility.yul\":7956:8322   */\n      swap2\n      swap1\n      pop\n      jump\t// out\n        /* \"#utility.yul\":8328:8694   */\n    tag_515:\n        /* \"#utility.yul\":8470:8473   */\n      0x00\n        /* \"#utility.yul\":8491:8558   */\n      tag_517\n        /* \"#utility.yul\":8555:8557   */\n      0x1b\n        /* \"#utility.yul\":8550:8553   */\n      dup4\n        /* \"#utility.yul\":8491:8558   */\n      tag_459\n      jump\t// in\n    tag_517:\n        /* \"#utility.yul\":8484:8558   */\n      swap2\n      pop\n        /* \"#utility.yul\":8567:8660   */\n      tag_518\n        /* \"#utility.yul\":8656:8659   */\n      dup3\n        /* \"#utility.yul\":8567:8660   */\n      tag_519\n      jump\t// in\n    tag_518:\n        /* \"#utility.yul\":8685:8687   */\n      0x20\n        /* \"#utility.yul\":8680:8683   */\n      dup3\n        /* \"#utility.yul\":8676:8688   */\n      add\n        /* \"#utility.yul\":8669:8688   */\n      swap1\n      pop\n        /* \"#utility.yul\":8328:8694   */\n      swap2\n      swap1\n      pop\n      jump\t// out\n        /* \"#utility.yul\":8700:9066   */\n    tag_520:\n        /* \"#utility.yul\":8842:8845   */\n      0x00\n        /* \"#utility.yul\":8863:8930   */\n      tag_522\n        /* \"#utility.yul\":8927:8929   */\n      0x19\n        /* \"#utility.yul\":8922:8925   */\n      dup4\n        /* \"#utility.yul\":8863:8930   */\n      tag_459\n      jump\t// in\n    tag_522:\n        /* \"#utility.yul\":8856:8930   */\n      swap2\n      pop\n        /* \"#utility.yul\":8939:9032   */\n      tag_523\n        /* \"#utility.yul\":9028:9031   */\n      dup3\n        /* \"#utility.yul\":8939:9032   */\n      tag_524\n      jump\t// in\n    tag_523:\n        /* \"#utility.yul\":9057:9059   */\n      0x20\n        /* \"#utility.yul\":9052:9055   */\n      dup3\n        /* \"#utility.yul\":9048:9060   */\n      add\n        /* \"#utility.yul\":9041:9060   */\n      swap1\n      pop\n        /* \"#utility.yul\":8700:9066   */\n      swap2\n      swap1\n      pop\n      jump\t// out\n        /* \"#utility.yul\":9072:9472   */\n    tag_525:\n        /* \"#utility.yul\":9232:9235   */\n      0x00\n        /* \"#utility.yul\":9253:9337   */\n      tag_527\n        /* \"#utility.yul\":9335:9336   */\n      0x07\n        /* \"#utility.yul\":9330:9333   */\n      dup4\n        /* \"#utility.yul\":9253:9337   */\n      tag_468\n      jump\t// in\n    tag_527:\n        /* \"#utility.yul\":9246:9337   */\n      swap2\n      pop\n        /* \"#utility.yul\":9346:9439   */\n      tag_528\n        /* \"#utility.yul\":9435:9438   */\n      dup3\n        /* \"#utility.yul\":9346:9439   */\n      tag_529\n      jump\t// in\n    tag_528:\n        /* \"#utility.yul\":9464:9465   */\n      0x07\n        /* \"#utility.yul\":9459:9462   */\n      dup3\n        /* \"#utility.yul\":9455:9466   */\n      add\n        /* \"#utility.yul\":9448:9466   */\n      swap1\n      pop\n        /* \"#utility.yul\":9072:9472   */\n      swap2\n      swap1\n      pop\n      jump\t// out\n        /* \"#utility.yul\":9478:9844   */\n    tag_530:\n        /* \"#utility.yul\":9620:9623   */\n      0x00\n        /* \"#utility.yul\":9641:9708   */\n      tag_532\n        /* \"#utility.yul\":9705:9707   */\n      0x1d\n        /* \"#utility.yul\":9700:9703   */\n      dup4\n        /* \"#utility.yul\":9641:9708   */\n      tag_459\n      jump\t// in\n    tag_532:\n        /* \"#utility.yul\":9634:9708   */\n      swap2\n      pop\n        /* \"#utility.yul\":9717:9810   */\n      tag_533\n        /* \"#utility.yul\":9806:9809   */\n      dup3\n        /* \"#utility.yul\":9717:9810   */\n      tag_534\n      jump\t// in\n    tag_533:\n        /* \"#utility.yul\":9835:9837   */\n      0x20\n        /* \"#utility.yul\":9830:9833   */\n      dup3\n        /* \"#utility.yul\":9826:9838   */\n      add\n        /* \"#utility.yul\":9819:9838   */\n      swap1\n      pop\n        /* \"#utility.yul\":9478:9844   */\n      swap2\n      swap1\n      pop\n      jump\t// out\n        /* \"#utility.yul\":9850:10216   */\n    tag_535:\n        /* \"#utility.yul\":9992:9995   */\n      0x00\n        /* \"#utility.yul\":10013:10080   */\n      tag_537\n        /* \"#utility.yul\":10077:10079   */\n      0x21\n        /* \"#utility.yul\":10072:10075   */\n      dup4\n        /* \"#utility.yul\":10013:10080   */\n      tag_459\n      jump\t// in\n    tag_537:\n        /* \"#utility.yul\":10006:10080   */\n      swap2\n      pop\n        /* \"#utility.yul\":10089:10182   */\n      tag_538\n        /* \"#utility.yul\":10178:10181   */\n      dup3\n        /* \"#utility.yul\":10089:10182   */\n      tag_539\n      jump\t// in\n    tag_538:\n        /* \"#utility.yul\":10207:10209   */\n      0x40\n        /* \"#utility.yul\":10202:10205   */\n      dup3\n        /* \"#utility.yul\":10198:10210   */\n      add\n        /* \"#utility.yul\":10191:10210   */\n      swap1\n      pop\n        /* \"#utility.yul\":9850:10216   */\n      swap2\n      swap1\n      pop\n      jump\t// out\n        /* \"#utility.yul\":10222:10330   */\n    tag_417:\n        /* \"#utility.yul\":10299:10323   */\n      tag_541\n        /* \"#utility.yul\":10317:10322   */\n      dup2\n        /* \"#utility.yul\":10299:10323   */\n      tag_542\n      jump\t// in\n    tag_541:\n        /* \"#utility.yul\":10294:10297   */\n      dup3\n        /* \"#utility.yul\":10287:10324   */\n      mstore\n        /* \"#utility.yul\":10222:10330   */\n      pop\n      pop\n      jump\t// out\n        /* \"#utility.yul\":10336:10454   */\n    tag_543:\n        /* \"#utility.yul\":10423:10447   */\n      tag_545\n        /* \"#utility.yul\":10441:10446   */\n      dup2\n        /* \"#utility.yul\":10423:10447   */\n      tag_542\n      jump\t// in\n    tag_545:\n        /* \"#utility.yul\":10418:10421   */\n      dup3\n        /* \"#utility.yul\":10411:10448   */\n      mstore\n        /* \"#utility.yul\":10336:10454   */\n      pop\n      pop\n      jump\t// out\n        /* \"#utility.yul\":10460:10617   */\n    tag_546:\n        /* \"#utility.yul\":10565:10610   */\n      tag_548\n        /* \"#utility.yul\":10585:10609   */\n      tag_549\n        /* \"#utility.yul\":10603:10608   */\n      dup3\n        /* \"#utility.yul\":10585:10609   */\n      tag_542\n      jump\t// in\n    tag_549:\n        /* \"#utility.yul\":10565:10610   */\n      tag_550\n      jump\t// in\n    tag_548:\n        /* \"#utility.yul\":10560:10563   */\n      dup3\n        /* \"#utility.yul\":10553:10611   */\n      mstore\n        /* \"#utility.yul\":10460:10617   */\n      pop\n      pop\n      jump\t// out\n        /* \"#utility.yul\":10623:11164   */\n    tag_253:\n        /* \"#utility.yul\":10856:10859   */\n      0x00\n        /* \"#utility.yul\":10878:11026   */\n      tag_552\n        /* \"#utility.yul\":11022:11025   */\n      dup3\n        /* \"#utility.yul\":10878:11026   */\n      tag_480\n      jump\t// in\n    tag_552:\n        /* \"#utility.yul\":10871:11026   */\n      swap2\n      pop\n        /* \"#utility.yul\":11043:11138   */\n      tag_553\n        /* \"#utility.yul\":11134:11137   */\n      dup3\n        /* \"#utility.yul\":11125:11131   */\n      dup5\n        /* \"#utility.yul\":11043:11138   */\n      tag_464\n      jump\t// in\n    tag_553:\n        /* \"#utility.yul\":11036:11138   */\n      swap2\n      pop\n        /* \"#utility.yul\":11155:11158   */\n      dup2\n        /* \"#utility.yul\":11148:11158   */\n      swap1\n      pop\n        /* \"#utility.yul\":10623:11164   */\n      swap3\n      swap2\n      pop\n      pop\n      jump\t// out\n        /* \"#utility.yul\":11170:11711   */\n    tag_262:\n        /* \"#utility.yul\":11403:11406   */\n      0x00\n        /* \"#utility.yul\":11425:11573   */\n      tag_555\n        /* \"#utility.yul\":11569:11572   */\n      dup3\n        /* \"#utility.yul\":11425:11573   */\n      tag_485\n      jump\t// in\n    tag_555:\n        /* \"#utility.yul\":11418:11573   */\n      swap2\n      pop\n        /* \"#utility.yul\":11590:11685   */\n      tag_556\n        /* \"#utility.yul\":11681:11684   */\n      dup3\n        /* \"#utility.yul\":11672:11678   */\n      dup5\n        /* \"#utility.yul\":11590:11685   */\n      tag_464\n      jump\t// in\n    tag_556:\n        /* \"#utility.yul\":11583:11685   */\n      swap2\n      pop\n        /* \"#utility.yul\":11702:11705   */\n      dup2\n        /* \"#utility.yul\":11695:11705   */\n      swap1\n      pop\n        /* \"#utility.yul\":11170:11711   */\n      swap3\n      swap2\n      pop\n      pop\n      jump\t// out\n        /* \"#utility.yul\":11717:12258   */\n    tag_270:\n        /* \"#utility.yul\":11950:11953   */\n      0x00\n        /* \"#utility.yul\":11972:12120   */\n      tag_558\n        /* \"#utility.yul\":12116:12119   */\n      dup3\n        /* \"#utility.yul\":11972:12120   */\n      tag_525\n      jump\t// in\n    tag_558:\n        /* \"#utility.yul\":11965:12120   */\n      swap2\n      pop\n        /* \"#utility.yul\":12137:12232   */\n      tag_559\n        /* \"#utility.yul\":12228:12231   */\n      dup3\n        /* \"#utility.yul\":12219:12225   */\n      dup5\n        /* \"#utility.yul\":12137:12232   */\n      tag_464\n      jump\t// in\n    tag_559:\n        /* \"#utility.yul\":12130:12232   */\n      swap2\n      pop\n        /* \"#utility.yul\":12249:12252   */\n      dup2\n        /* \"#utility.yul\":12242:12252   */\n      swap1\n      pop\n        /* \"#utility.yul\":11717:12258   */\n      swap3\n      swap2\n      pop\n      pop\n      jump\t// out\n        /* \"#utility.yul\":12264:12834   */\n    tag_236:\n        /* \"#utility.yul\":12448:12451   */\n      0x00\n        /* \"#utility.yul\":12463:12538   */\n      tag_561\n        /* \"#utility.yul\":12534:12537   */\n      dup3\n        /* \"#utility.yul\":12525:12531   */\n      dup7\n        /* \"#utility.yul\":12463:12538   */\n      tag_546\n      jump\t// in\n    tag_561:\n        /* \"#utility.yul\":12563:12565   */\n      0x20\n        /* \"#utility.yul\":12558:12561   */\n      dup3\n        /* \"#utility.yul\":12554:12566   */\n      add\n        /* \"#utility.yul\":12547:12566   */\n      swap2\n      pop\n        /* \"#utility.yul\":12576:12651   */\n      tag_562\n        /* \"#utility.yul\":12647:12650   */\n      dup3\n        /* \"#utility.yul\":12638:12644   */\n      dup6\n        /* \"#utility.yul\":12576:12651   */\n      tag_431\n      jump\t// in\n    tag_562:\n        /* \"#utility.yul\":12676:12678   */\n      0x14\n        /* \"#utility.yul\":12671:12674   */\n      dup3\n        /* \"#utility.yul\":12667:12679   */\n      add\n        /* \"#utility.yul\":12660:12679   */\n      swap2\n      pop\n        /* \"#utility.yul\":12689:12780   */\n      tag_563\n        /* \"#utility.yul\":12776:12779   */\n      dup3\n        /* \"#utility.yul\":12767:12773   */\n      dup5\n        /* \"#utility.yul\":12689:12780   */\n      tag_422\n      jump\t// in\n    tag_563:\n        /* \"#utility.yul\":12805:12807   */\n      0x14\n        /* \"#utility.yul\":12800:12803   */\n      dup3\n        /* \"#utility.yul\":12796:12808   */\n      add\n        /* \"#utility.yul\":12789:12808   */\n      swap2\n      pop\n        /* \"#utility.yul\":12825:12828   */\n      dup2\n        /* \"#utility.yul\":12818:12828   */\n      swap1\n      pop\n        /* \"#utility.yul\":12264:12834   */\n      swap5\n      swap4\n      pop\n      pop\n      pop\n      pop\n      jump\t// out\n        /* \"#utility.yul\":12840:13094   */\n    tag_73:\n        /* \"#utility.yul\":12949:12953   */\n      0x00\n        /* \"#utility.yul\":12987:12989   */\n      0x20\n        /* \"#utility.yul\":12976:12985   */\n      dup3\n        /* \"#utility.yul\":12972:12990   */\n      add\n        /* \"#utility.yul\":12964:12990   */\n      swap1\n      pop\n        /* \"#utility.yul\":13000:13087   */\n      tag_565\n        /* \"#utility.yul\":13084:13085   */\n      0x00\n        /* \"#utility.yul\":13073:13082   */\n      dup4\n        /* \"#utility.yul\":13069:13086   */\n      add\n        /* \"#utility.yul\":13060:13066   */\n      dup5\n        /* \"#utility.yul\":13000:13087   */\n      tag_418\n      jump\t// in\n    tag_565:\n        /* \"#utility.yul\":12840:13094   */\n      swap3\n      swap2\n      pop\n      pop\n      jump\t// out\n        /* \"#utility.yul\":13100:13855   */\n    tag_335:\n        /* \"#utility.yul\":13325:13329   */\n      0x00\n        /* \"#utility.yul\":13363:13366   */\n      0xa0\n        /* \"#utility.yul\":13352:13361   */\n      dup3\n        /* \"#utility.yul\":13348:13367   */\n      add\n        /* \"#utility.yul\":13340:13367   */\n      swap1\n      pop\n        /* \"#utility.yul\":13377:13448   */\n      tag_567\n        /* \"#utility.yul\":13445:13446   */\n      0x00\n        /* \"#utility.yul\":13434:13443   */\n      dup4\n        /* \"#utility.yul\":13430:13447   */\n      add\n        /* \"#utility.yul\":13421:13427   */\n      dup9\n        /* \"#utility.yul\":13377:13448   */\n      tag_427\n      jump\t// in\n    tag_567:\n        /* \"#utility.yul\":13458:13530   */\n      tag_568\n        /* \"#utility.yul\":13526:13528   */\n      0x20\n        /* \"#utility.yul\":13515:13524   */\n      dup4\n        /* \"#utility.yul\":13511:13529   */\n      add\n        /* \"#utility.yul\":13502:13508   */\n      dup8\n        /* \"#utility.yul\":13458:13530   */\n      tag_427\n      jump\t// in\n    tag_568:\n        /* \"#utility.yul\":13540:13612   */\n      tag_569\n        /* \"#utility.yul\":13608:13610   */\n      0x40\n        /* \"#utility.yul\":13597:13606   */\n      dup4\n        /* \"#utility.yul\":13593:13611   */\n      add\n        /* \"#utility.yul\":13584:13590   */\n      dup7\n        /* \"#utility.yul\":13540:13612   */\n      tag_543\n      jump\t// in\n    tag_569:\n        /* \"#utility.yul\":13622:13694   */\n      tag_570\n        /* \"#utility.yul\":13690:13692   */\n      0x60\n        /* \"#utility.yul\":13679:13688   */\n      dup4\n        /* \"#utility.yul\":13675:13693   */\n      add\n        /* \"#utility.yul\":13666:13672   */\n      dup6\n        /* \"#utility.yul\":13622:13694   */\n      tag_543\n      jump\t// in\n    tag_570:\n        /* \"#utility.yul\":13742:13751   */\n      dup2\n        /* \"#utility.yul\":13736:13740   */\n      dup2\n        /* \"#utility.yul\":13732:13752   */\n      sub\n        /* \"#utility.yul\":13726:13729   */\n      0x80\n        /* \"#utility.yul\":13715:13724   */\n      dup4\n        /* \"#utility.yul\":13711:13730   */\n      add\n        /* \"#utility.yul\":13704:13753   */\n      mstore\n        /* \"#utility.yul\":13770:13848   */\n      tag_571\n        /* \"#utility.yul\":13843:13847   */\n      dup2\n        /* \"#utility.yul\":13834:13840   */\n      dup5\n        /* \"#utility.yul\":13770:13848   */\n      tag_454\n      jump\t// in\n    tag_571:\n        /* \"#utility.yul\":13762:13848   */\n      swap1\n      pop\n        /* \"#utility.yul\":13100:13855   */\n      swap7\n      swap6\n      pop\n      pop\n      pop\n      pop\n      pop\n      pop\n      jump\t// out\n        /* \"#utility.yul\":13861:14234   */\n    tag_42:\n        /* \"#utility.yul\":14004:14008   */\n      0x00\n        /* \"#utility.yul\":14042:14044   */\n      0x20\n        /* \"#utility.yul\":14031:14040   */\n      dup3\n        /* \"#utility.yul\":14027:14045   */\n      add\n        /* \"#utility.yul\":14019:14045   */\n      swap1\n      pop\n        /* \"#utility.yul\":14091:14100   */\n      dup2\n        /* \"#utility.yul\":14085:14089   */\n      dup2\n        /* \"#utility.yul\":14081:14101   */\n      sub\n        /* \"#utility.yul\":14077:14078   */\n      0x00\n        /* \"#utility.yul\":14066:14075   */\n      dup4\n        /* \"#utility.yul\":14062:14079   */\n      add\n        /* \"#utility.yul\":14055:14102   */\n      mstore\n        /* \"#utility.yul\":14119:14227   */\n      tag_573\n        /* \"#utility.yul\":14222:14226   */\n      dup2\n        /* \"#utility.yul\":14213:14219   */\n      dup5\n        /* \"#utility.yul\":14119:14227   */\n      tag_436\n      jump\t// in\n    tag_573:\n        /* \"#utility.yul\":14111:14227   */\n      swap1\n      pop\n        /* \"#utility.yul\":13861:14234   */\n      swap3\n      swap2\n      pop\n      pop\n      jump\t// out\n        /* \"#utility.yul\":14240:14450   */\n    tag_32:\n        /* \"#utility.yul\":14327:14331   */\n      0x00\n        /* \"#utility.yul\":14365:14367   */\n      0x20\n        /* \"#utility.yul\":14354:14363   */\n      dup3\n        /* \"#utility.yul\":14350:14368   */\n      add\n        /* \"#utility.yul\":14342:14368   */\n      swap1\n      pop\n        /* \"#utility.yul\":14378:14443   */\n      tag_575\n        /* \"#utility.yul\":14440:14441   */\n      0x00\n        /* \"#utility.yul\":14429:14438   */\n      dup4\n        /* \"#utility.yul\":14425:14442   */\n      add\n        /* \"#utility.yul\":14416:14422   */\n      dup5\n        /* \"#utility.yul\":14378:14443   */\n      tag_450\n      jump\t// in\n    tag_575:\n        /* \"#utility.yul\":14240:14450   */\n      swap3\n      swap2\n      pop\n      pop\n      jump\t// out\n        /* \"#utility.yul\":14456:14769   */\n    tag_350:\n        /* \"#utility.yul\":14569:14573   */\n      0x00\n        /* \"#utility.yul\":14607:14609   */\n      0x20\n        /* \"#utility.yul\":14596:14605   */\n      dup3\n        /* \"#utility.yul\":14592:14610   */\n      add\n        /* \"#utility.yul\":14584:14610   */\n      swap1\n      pop\n        /* \"#utility.yul\":14656:14665   */\n      dup2\n        /* \"#utility.yul\":14650:14654   */\n      dup2\n        /* \"#utility.yul\":14646:14666   */\n      sub\n        /* \"#utility.yul\":14642:14643   */\n      0x00\n        /* \"#utility.yul\":14631:14640   */\n      dup4\n        /* \"#utility.yul\":14627:14644   */\n      add\n        /* \"#utility.yul\":14620:14667   */\n      mstore\n        /* \"#utility.yul\":14684:14762   */\n      tag_577\n        /* \"#utility.yul\":14757:14761   */\n      dup2\n        /* \"#utility.yul\":14748:14754   */\n      dup5\n        /* \"#utility.yul\":14684:14762   */\n      tag_454\n      jump\t// in\n    tag_577:\n        /* \"#utility.yul\":14676:14762   */\n      swap1\n      pop\n        /* \"#utility.yul\":14456:14769   */\n      swap3\n      swap2\n      pop\n      pop\n      jump\t// out\n        /* \"#utility.yul\":14775:15194   */\n    tag_352:\n        /* \"#utility.yul\":14941:14945   */\n      0x00\n        /* \"#utility.yul\":14979:14981   */\n      0x20\n        /* \"#utility.yul\":14968:14977   */\n      dup3\n        /* \"#utility.yul\":14964:14982   */\n      add\n        /* \"#utility.yul\":14956:14982   */\n      swap1\n      pop\n        /* \"#utility.yul\":15028:15037   */\n      dup2\n        /* \"#utility.yul\":15022:15026   */\n      dup2\n        /* \"#utility.yul\":15018:15038   */\n      sub\n        /* \"#utility.yul\":15014:15015   */\n      0x00\n        /* \"#utility.yul\":15003:15012   */\n      dup4\n        /* \"#utility.yul\":14999:15016   */\n      add\n        /* \"#utility.yul\":14992:15039   */\n      mstore\n        /* \"#utility.yul\":15056:15187   */\n      tag_579\n        /* \"#utility.yul\":15182:15186   */\n      dup2\n        /* \"#utility.yul\":15056:15187   */\n      tag_470\n      jump\t// in\n    tag_579:\n        /* \"#utility.yul\":15048:15187   */\n      swap1\n      pop\n        /* \"#utility.yul\":14775:15194   */\n      swap2\n      swap1\n      pop\n      jump\t// out\n        /* \"#utility.yul\":15200:15619   */\n    tag_356:\n        /* \"#utility.yul\":15366:15370   */\n      0x00\n        /* \"#utility.yul\":15404:15406   */\n      0x20\n        /* \"#utility.yul\":15393:15402   */\n      dup3\n        /* \"#utility.yul\":15389:15407   */\n      add\n        /* \"#utility.yul\":15381:15407   */\n      swap1\n      pop\n        /* \"#utility.yul\":15453:15462   */\n      dup2\n        /* \"#utility.yul\":15447:15451   */\n      dup2\n        /* \"#utility.yul\":15443:15463   */\n      sub\n        /* \"#utility.yul\":15439:15440   */\n      0x00\n        /* \"#utility.yul\":15428:15437   */\n      dup4\n        /* \"#utility.yul\":15424:15441   */\n      add\n        /* \"#utility.yul\":15417:15464   */\n      mstore\n        /* \"#utility.yul\":15481:15612   */\n      tag_581\n        /* \"#utility.yul\":15607:15611   */\n      dup2\n        /* \"#utility.yul\":15481:15612   */\n      tag_475\n      jump\t// in\n    tag_581:\n        /* \"#utility.yul\":15473:15612   */\n      swap1\n      pop\n        /* \"#utility.yul\":15200:15619   */\n      swap2\n      swap1\n      pop\n      jump\t// out\n        /* \"#utility.yul\":15625:16044   */\n    tag_178:\n        /* \"#utility.yul\":15791:15795   */\n      0x00\n        /* \"#utility.yul\":15829:15831   */\n      0x20\n        /* \"#utility.yul\":15818:15827   */\n      dup3\n        /* \"#utility.yul\":15814:15832   */\n      add\n        /* \"#utility.yul\":15806:15832   */\n      swap1\n      pop\n        /* \"#utility.yul\":15878:15887   */\n      dup2\n        /* \"#utility.yul\":15872:15876   */\n      dup2\n        /* \"#utility.yul\":15868:15888   */\n      sub\n        /* \"#utility.yul\":15864:15865   */\n      0x00\n        /* \"#utility.yul\":15853:15862   */\n      dup4\n        /* \"#utility.yul\":15849:15866   */\n      add\n        /* \"#utility.yul\":15842:15889   */\n      mstore\n        /* \"#utility.yul\":15906:16037   */\n      tag_583\n        /* \"#utility.yul\":16032:16036   */\n      dup2\n        /* \"#utility.yul\":15906:16037   */\n      tag_490\n      jump\t// in\n    tag_583:\n        /* \"#utility.yul\":15898:16037   */\n      swap1\n      pop\n        /* \"#utility.yul\":15625:16044   */\n      swap2\n      swap1\n      pop\n      jump\t// out\n        /* \"#utility.yul\":16050:16469   */\n    tag_108:\n        /* \"#utility.yul\":16216:16220   */\n      0x00\n        /* \"#utility.yul\":16254:16256   */\n      0x20\n        /* \"#utility.yul\":16243:16252   */\n      dup3\n        /* \"#utility.yul\":16239:16257   */\n      add\n        /* \"#utility.yul\":16231:16257   */\n      swap1\n      pop\n        /* \"#utility.yul\":16303:16312   */\n      dup2\n        /* \"#utility.yul\":16297:16301   */\n      dup2\n        /* \"#utility.yul\":16293:16313   */\n      sub\n        /* \"#utility.yul\":16289:16290   */\n      0x00\n        /* \"#utility.yul\":16278:16287   */\n      dup4\n        /* \"#utility.yul\":16274:16291   */\n      add\n        /* \"#utility.yul\":16267:16314   */\n      mstore\n        /* \"#utility.yul\":16331:16462   */\n      tag_585\n        /* \"#utility.yul\":16457:16461   */\n      dup2\n        /* \"#utility.yul\":16331:16462   */\n      tag_495\n      jump\t// in\n    tag_585:\n        /* \"#utility.yul\":16323:16462   */\n      swap1\n      pop\n        /* \"#utility.yul\":16050:16469   */\n      swap2\n      swap1\n      pop\n      jump\t// out\n        /* \"#utility.yul\":16475:16894   */\n    tag_213:\n        /* \"#utility.yul\":16641:16645   */\n      0x00\n        /* \"#utility.yul\":16679:16681   */\n      0x20\n        /* \"#utility.yul\":16668:16677   */\n      dup3\n        /* \"#utility.yul\":16664:16682   */\n      add\n        /* \"#utility.yul\":16656:16682   */\n      swap1\n      pop\n        /* \"#utility.yul\":16728:16737   */\n      dup2\n        /* \"#utility.yul\":16722:16726   */\n      dup2\n        /* \"#utility.yul\":16718:16738   */\n      sub\n        /* \"#utility.yul\":16714:16715   */\n      0x00\n        /* \"#utility.yul\":16703:16712   */\n      dup4\n        /* \"#utility.yul\":16699:16716   */\n      add\n        /* \"#utility.yul\":16692:16739   */\n      mstore\n        /* \"#utility.yul\":16756:16887   */\n      tag_587\n        /* \"#utility.yul\":16882:16886   */\n      dup2\n        /* \"#utility.yul\":16756:16887   */\n      tag_500\n      jump\t// in\n    tag_587:\n        /* \"#utility.yul\":16748:16887   */\n      swap1\n      pop\n        /* \"#utility.yul\":16475:16894   */\n      swap2\n      swap1\n      pop\n      jump\t// out\n        /* \"#utility.yul\":16900:17319   */\n    tag_121:\n        /* \"#utility.yul\":17066:17070   */\n      0x00\n        /* \"#utility.yul\":17104:17106   */\n      0x20\n        /* \"#utility.yul\":17093:17102   */\n      dup3\n        /* \"#utility.yul\":17089:17107   */\n      add\n        /* \"#utility.yul\":17081:17107   */\n      swap1\n      pop\n        /* \"#utility.yul\":17153:17162   */\n      dup2\n        /* \"#utility.yul\":17147:17151   */\n      dup2\n        /* \"#utility.yul\":17143:17163   */\n      sub\n        /* \"#utility.yul\":17139:17140   */\n      0x00\n        /* \"#utility.yul\":17128:17137   */\n      dup4\n        /* \"#utility.yul\":17124:17141   */\n      add\n        /* \"#utility.yul\":17117:17164   */\n      mstore\n        /* \"#utility.yul\":17181:17312   */\n      tag_589\n        /* \"#utility.yul\":17307:17311   */\n      dup2\n        /* \"#utility.yul\":17181:17312   */\n      tag_505\n      jump\t// in\n    tag_589:\n        /* \"#utility.yul\":17173:17312   */\n      swap1\n      pop\n        /* \"#utility.yul\":16900:17319   */\n      swap2\n      swap1\n      pop\n      jump\t// out\n        /* \"#utility.yul\":17325:17744   */\n    tag_89:\n        /* \"#utility.yul\":17491:17495   */\n      0x00\n        /* \"#utility.yul\":17529:17531   */\n      0x20\n        /* \"#utility.yul\":17518:17527   */\n      dup3\n        /* \"#utility.yul\":17514:17532   */\n      add\n        /* \"#utility.yul\":17506:17532   */\n      swap1\n      pop\n        /* \"#utility.yul\":17578:17587   */\n      dup2\n        /* \"#utility.yul\":17572:17576   */\n      dup2\n        /* \"#utility.yul\":17568:17588   */\n      sub\n        /* \"#utility.yul\":17564:17565   */\n      0x00\n        /* \"#utility.yul\":17553:17562   */\n      dup4\n        /* \"#utility.yul\":17549:17566   */\n      add\n        /* \"#utility.yul\":17542:17589   */\n      mstore\n        /* \"#utility.yul\":17606:17737   */\n      tag_591\n        /* \"#utility.yul\":17732:17736   */\n      dup2\n        /* \"#utility.yul\":17606:17737   */\n      tag_510\n      jump\t// in\n    tag_591:\n        /* \"#utility.yul\":17598:17737   */\n      swap1\n      pop\n        /* \"#utility.yul\":17325:17744   */\n      swap2\n      swap1\n      pop\n      jump\t// out\n        /* \"#utility.yul\":17750:18169   */\n    tag_116:\n        /* \"#utility.yul\":17916:17920   */\n      0x00\n        /* \"#utility.yul\":17954:17956   */\n      0x20\n        /* \"#utility.yul\":17943:17952   */\n      dup3\n        /* \"#utility.yul\":17939:17957   */\n      add\n        /* \"#utility.yul\":17931:17957   */\n      swap1\n      pop\n        /* \"#utility.yul\":18003:18012   */\n      dup2\n        /* \"#utility.yul\":17997:18001   */\n      dup2\n        /* \"#utility.yul\":17993:18013   */\n      sub\n        /* \"#utility.yul\":17989:17990   */\n      0x00\n        /* \"#utility.yul\":17978:17987   */\n      dup4\n        /* \"#utility.yul\":17974:17991   */\n      add\n        /* \"#utility.yul\":17967:18014   */\n      mstore\n        /* \"#utility.yul\":18031:18162   */\n      tag_593\n        /* \"#utility.yul\":18157:18161   */\n      dup2\n        /* \"#utility.yul\":18031:18162   */\n      tag_515\n      jump\t// in\n    tag_593:\n        /* \"#utility.yul\":18023:18162   */\n      swap1\n      pop\n        /* \"#utility.yul\":17750:18169   */\n      swap2\n      swap1\n      pop\n      jump\t// out\n        /* \"#utility.yul\":18175:18594   */\n    tag_124:\n        /* \"#utility.yul\":18341:18345   */\n      0x00\n        /* \"#utility.yul\":18379:18381   */\n      0x20\n        /* \"#utility.yul\":18368:18377   */\n      dup3\n        /* \"#utility.yul\":18364:18382   */\n      add\n        /* \"#utility.yul\":18356:18382   */\n      swap1\n      pop\n        /* \"#utility.yul\":18428:18437   */\n      dup2\n        /* \"#utility.yul\":18422:18426   */\n      dup2\n        /* \"#utility.yul\":18418:18438   */\n      sub\n        /* \"#utility.yul\":18414:18415   */\n      0x00\n        /* \"#utility.yul\":18403:18412   */\n      dup4\n        /* \"#utility.yul\":18399:18416   */\n      add\n        /* \"#utility.yul\":18392:18439   */\n      mstore\n        /* \"#utility.yul\":18456:18587   */\n      tag_595\n        /* \"#utility.yul\":18582:18586   */\n      dup2\n        /* \"#utility.yul\":18456:18587   */\n      tag_520\n      jump\t// in\n    tag_595:\n        /* \"#utility.yul\":18448:18587   */\n      swap1\n      pop\n        /* \"#utility.yul\":18175:18594   */\n      swap2\n      swap1\n      pop\n      jump\t// out\n        /* \"#utility.yul\":18600:19019   */\n    tag_98:\n        /* \"#utility.yul\":18766:18770   */\n      0x00\n        /* \"#utility.yul\":18804:18806   */\n      0x20\n        /* \"#utility.yul\":18793:18802   */\n      dup3\n        /* \"#utility.yul\":18789:18807   */\n      add\n        /* \"#utility.yul\":18781:18807   */\n      swap1\n      pop\n        /* \"#utility.yul\":18853:18862   */\n      dup2\n        /* \"#utility.yul\":18847:18851   */\n      dup2\n        /* \"#utility.yul\":18843:18863   */\n      sub\n        /* \"#utility.yul\":18839:18840   */\n      0x00\n        /* \"#utility.yul\":18828:18837   */\n      dup4\n        /* \"#utility.yul\":18824:18841   */\n      add\n        /* \"#utility.yul\":18817:18864   */\n      mstore\n        /* \"#utility.yul\":18881:19012   */\n      tag_597\n        /* \"#utility.yul\":19007:19011   */\n      dup2\n        /* \"#utility.yul\":18881:19012   */\n      tag_530\n      jump\t// in\n    tag_597:\n        /* \"#utility.yul\":18873:19012   */\n      swap1\n      pop\n        /* \"#utility.yul\":18600:19019   */\n      swap2\n      swap1\n      pop\n      jump\t// out\n        /* \"#utility.yul\":19025:19444   */\n    tag_289:\n        /* \"#utility.yul\":19191:19195   */\n      0x00\n        /* \"#utility.yul\":19229:19231   */\n      0x20\n        /* \"#utility.yul\":19218:19227   */\n      dup3\n        /* \"#utility.yul\":19214:19232   */\n      add\n        /* \"#utility.yul\":19206:19232   */\n      swap1\n      pop\n        /* \"#utility.yul\":19278:19287   */\n      dup2\n        /* \"#utility.yul\":19272:19276   */\n      dup2\n        /* \"#utility.yul\":19268:19288   */\n      sub\n        /* \"#utility.yul\":19264:19265   */\n      0x00\n        /* \"#utility.yul\":19253:19262   */\n      dup4\n        /* \"#utility.yul\":19249:19266   */\n      add\n        /* \"#utility.yul\":19242:19289   */\n      mstore\n        /* \"#utility.yul\":19306:19437   */\n      tag_599\n        /* \"#utility.yul\":19432:19436   */\n      dup2\n        /* \"#utility.yul\":19306:19437   */\n      tag_535\n      jump\t// in\n    tag_599:\n        /* \"#utility.yul\":19298:19437   */\n      swap1\n      pop\n        /* \"#utility.yul\":19025:19444   */\n      swap2\n      swap1\n      pop\n      jump\t// out\n        /* \"#utility.yul\":19450:19672   */\n    tag_23:\n        /* \"#utility.yul\":19543:19547   */\n      0x00\n        /* \"#utility.yul\":19581:19583   */\n      0x20\n        /* \"#utility.yul\":19570:19579   */\n      dup3\n        /* \"#utility.yul\":19566:19584   */\n      add\n        /* \"#utility.yul\":19558:19584   */\n      swap1\n      pop\n        /* \"#utility.yul\":19594:19665   */\n      tag_601\n        /* \"#utility.yul\":19662:19663   */\n      0x00\n        /* \"#utility.yul\":19651:19660   */\n      dup4\n        /* \"#utility.yul\":19647:19664   */\n      add\n        /* \"#utility.yul\":19638:19644   */\n      dup5\n        /* \"#utility.yul\":19594:19665   */\n      tag_543\n      jump\t// in\n    tag_601:\n        /* \"#utility.yul\":19450:19672   */\n      swap3\n      swap2\n      pop\n      pop\n      jump\t// out\n        /* \"#utility.yul\":19678:20101   */\n    tag_52:\n        /* \"#utility.yul\":19819:19823   */\n      0x00\n        /* \"#utility.yul\":19857:19859   */\n      0x40\n        /* \"#utility.yul\":19846:19855   */\n      dup3\n        /* \"#utility.yul\":19842:19860   */\n      add\n        /* \"#utility.yul\":19834:19860   */\n      swap1\n      pop\n        /* \"#utility.yul\":19870:19941   */\n      tag_603\n        /* \"#utility.yul\":19938:19939   */\n      0x00\n        /* \"#utility.yul\":19927:19936   */\n      dup4\n        /* \"#utility.yul\":19923:19940   */\n      add\n        /* \"#utility.yul\":19914:19920   */\n      dup6\n        /* \"#utility.yul\":19870:19941   */\n      tag_543\n      jump\t// in\n    tag_603:\n        /* \"#utility.yul\":19988:19997   */\n      dup2\n        /* \"#utility.yul\":19982:19986   */\n      dup2\n        /* \"#utility.yul\":19978:19998   */\n      sub\n        /* \"#utility.yul\":19973:19975   */\n      0x20\n        /* \"#utility.yul\":19962:19971   */\n      dup4\n        /* \"#utility.yul\":19958:19976   */\n      add\n        /* \"#utility.yul\":19951:19999   */\n      mstore\n        /* \"#utility.yul\":20016:20094   */\n      tag_604\n        /* \"#utility.yul\":20089:20093   */\n      dup2\n        /* \"#utility.yul\":20080:20086   */\n      dup5\n        /* \"#utility.yul\":20016:20094   */\n      tag_454\n      jump\t// in\n    tag_604:\n        /* \"#utility.yul\":20008:20094   */\n      swap1\n      pop\n        /* \"#utility.yul\":19678:20101   */\n      swap4\n      swap3\n      pop\n      pop\n      pop\n      jump\t// out\n        /* \"#utility.yul\":20107:20439   */\n    tag_298:\n        /* \"#utility.yul\":20228:20232   */\n      0x00\n        /* \"#utility.yul\":20266:20268   */\n      0x40\n        /* \"#utility.yul\":20255:20264   */\n      dup3\n        /* \"#utility.yul\":20251:20269   */\n      add\n        /* \"#utility.yul\":20243:20269   */\n      swap1\n      pop\n        /* \"#utility.yul\":20279:20350   */\n      tag_606\n        /* \"#utility.yul\":20347:20348   */\n      0x00\n        /* \"#utility.yul\":20336:20345   */\n      dup4\n        /* \"#utility.yul\":20332:20349   */\n      add\n        /* \"#utility.yul\":20323:20329   */\n      dup6\n        /* \"#utility.yul\":20279:20350   */\n      tag_543\n      jump\t// in\n    tag_606:\n        /* \"#utility.yul\":20360:20432   */\n      tag_607\n        /* \"#utility.yul\":20428:20430   */\n      0x20\n        /* \"#utility.yul\":20417:20426   */\n      dup4\n        /* \"#utility.yul\":20413:20431   */\n      add\n        /* \"#utility.yul\":20404:20410   */\n      dup5\n        /* \"#utility.yul\":20360:20432   */\n      tag_543\n      jump\t// in\n    tag_607:\n        /* \"#utility.yul\":20107:20439   */\n      swap4\n      swap3\n      pop\n      pop\n      pop\n      jump\t// out\n        /* \"#utility.yul\":20445:20887   */\n    tag_61:\n        /* \"#utility.yul\":20594:20598   */\n      0x00\n        /* \"#utility.yul\":20632:20634   */\n      0x60\n        /* \"#utility.yul\":20621:20630   */\n      dup3\n        /* \"#utility.yul\":20617:20635   */\n      add\n        /* \"#utility.yul\":20609:20635   */\n      swap1\n      pop\n        /* \"#utility.yul\":20645:20716   */\n      tag_609\n        /* \"#utility.yul\":20713:20714   */\n      0x00\n        /* \"#utility.yul\":20702:20711   */\n      dup4\n        /* \"#utility.yul\":20698:20715   */\n      add\n        /* \"#utility.yul\":20689:20695   */\n      dup7\n        /* \"#utility.yul\":20645:20716   */\n      tag_543\n      jump\t// in\n    tag_609:\n        /* \"#utility.yul\":20726:20798   */\n      tag_610\n        /* \"#utility.yul\":20794:20796   */\n      0x20\n        /* \"#utility.yul\":20783:20792   */\n      dup4\n        /* \"#utility.yul\":20779:20797   */\n      add\n        /* \"#utility.yul\":20770:20776   */\n      dup6\n        /* \"#utility.yul\":20726:20798   */\n      tag_543\n      jump\t// in\n    tag_610:\n        /* \"#utility.yul\":20808:20880   */\n      tag_611\n        /* \"#utility.yul\":20876:20878   */\n      0x40\n        /* \"#utility.yul\":20865:20874   */\n      dup4\n        /* \"#utility.yul\":20861:20879   */\n      add\n        /* \"#utility.yul\":20852:20858   */\n      dup5\n        /* \"#utility.yul\":20808:20880   */\n      tag_543\n      jump\t// in\n    tag_611:\n        /* \"#utility.yul\":20445:20887   */\n      swap5\n      swap4\n      pop\n      pop\n      pop\n      pop\n      jump\t// out\n        /* \"#utility.yul\":20893:20968   */\n    tag_612:\n        /* \"#utility.yul\":20926:20932   */\n      0x00\n        /* \"#utility.yul\":20959:20961   */\n      0x40\n        /* \"#utility.yul\":20953:20962   */\n      mload\n        /* \"#utility.yul\":20943:20962   */\n      swap1\n      pop\n        /* \"#utility.yul\":20893:20968   */\n      swap1\n      jump\t// out\n        /* \"#utility.yul\":20974:21106   */\n    tag_443:\n        /* \"#utility.yul\":21041:21045   */\n      0x00\n        /* \"#utility.yul\":21064:21067   */\n      dup2\n        /* \"#utility.yul\":21056:21067   */\n      swap1\n      pop\n        /* \"#utility.yul\":21094:21098   */\n      0x20\n        /* \"#utility.yul\":21089:21092   */\n      dup3\n        /* \"#utility.yul\":21085:21099   */\n      add\n        /* \"#utility.yul\":21077:21099   */\n      swap1\n      pop\n        /* \"#utility.yul\":20974:21106   */\n      swap2\n      swap1\n      pop\n      jump\t// out\n        /* \"#utility.yul\":21112:21226   */\n    tag_439:\n        /* \"#utility.yul\":21179:21185   */\n      0x00\n        /* \"#utility.yul\":21213:21218   */\n      dup2\n        /* \"#utility.yul\":21207:21219   */\n      mload\n        /* \"#utility.yul\":21197:21219   */\n      swap1\n      pop\n        /* \"#utility.yul\":21112:21226   */\n      swap2\n      swap1\n      pop\n      jump\t// out\n        /* \"#utility.yul\":21232:21331   */\n    tag_457:\n        /* \"#utility.yul\":21284:21290   */\n      0x00\n        /* \"#utility.yul\":21318:21323   */\n      dup2\n        /* \"#utility.yul\":21312:21324   */\n      mload\n        /* \"#utility.yul\":21302:21324   */\n      swap1\n      pop\n        /* \"#utility.yul\":21232:21331   */\n      swap2\n      swap1\n      pop\n      jump\t// out\n        /* \"#utility.yul\":21337:21450   */\n    tag_449:\n        /* \"#utility.yul\":21407:21411   */\n      0x00\n        /* \"#utility.yul\":21439:21443   */\n      0x20\n        /* \"#utility.yul\":21434:21437   */\n      dup3\n        /* \"#utility.yul\":21430:21444   */\n      add\n        /* \"#utility.yul\":21422:21444   */\n      swap1\n      pop\n        /* \"#utility.yul\":21337:21450   */\n      swap2\n      swap1\n      pop\n      jump\t// out\n        /* \"#utility.yul\":21456:21640   */\n    tag_441:\n        /* \"#utility.yul\":21555:21566   */\n      0x00\n        /* \"#utility.yul\":21589:21595   */\n      dup3\n        /* \"#utility.yul\":21584:21587   */\n      dup3\n        /* \"#utility.yul\":21577:21596   */\n      mstore\n        /* \"#utility.yul\":21629:21633   */\n      0x20\n        /* \"#utility.yul\":21624:21627   */\n      dup3\n        /* \"#utility.yul\":21620:21634   */\n      add\n        /* \"#utility.yul\":21605:21634   */\n      swap1\n      pop\n        /* \"#utility.yul\":21456:21640   */\n      swap3\n      swap2\n      pop\n      pop\n      jump\t// out\n        /* \"#utility.yul\":21646:21815   */\n    tag_459:\n        /* \"#utility.yul\":21730:21741   */\n      0x00\n        /* \"#utility.yul\":21764:21770   */\n      dup3\n        /* \"#utility.yul\":21759:21762   */\n      dup3\n        /* \"#utility.yul\":21752:21771   */\n      mstore\n        /* \"#utility.yul\":21804:21808   */\n      0x20\n        /* \"#utility.yul\":21799:21802   */\n      dup3\n        /* \"#utility.yul\":21795:21809   */\n      add\n        /* \"#utility.yul\":21780:21809   */\n      swap1\n      pop\n        /* \"#utility.yul\":21646:21815   */\n      swap3\n      swap2\n      pop\n      pop\n      jump\t// out\n        /* \"#utility.yul\":21821:21969   */\n    tag_468:\n        /* \"#utility.yul\":21923:21934   */\n      0x00\n        /* \"#utility.yul\":21960:21963   */\n      dup2\n        /* \"#utility.yul\":21945:21963   */\n      swap1\n      pop\n        /* \"#utility.yul\":21821:21969   */\n      swap3\n      swap2\n      pop\n      pop\n      jump\t// out\n        /* \"#utility.yul\":21975:22280   */\n    tag_231:\n        /* \"#utility.yul\":22015:22018   */\n      0x00\n        /* \"#utility.yul\":22034:22054   */\n      tag_622\n        /* \"#utility.yul\":22052:22053   */\n      dup3\n        /* \"#utility.yul\":22034:22054   */\n      tag_542\n      jump\t// in\n    tag_622:\n        /* \"#utility.yul\":22029:22054   */\n      swap2\n      pop\n        /* \"#utility.yul\":22068:22088   */\n      tag_623\n        /* \"#utility.yul\":22086:22087   */\n      dup4\n        /* \"#utility.yul\":22068:22088   */\n      tag_542\n      jump\t// in\n    tag_623:\n        /* \"#utility.yul\":22063:22088   */\n      swap3\n      pop\n        /* \"#utility.yul\":22222:22223   */\n      dup3\n        /* \"#utility.yul\":22154:22220   */\n      0xffffffffffffffffffffffffffffffffffffffffffffffffffffffffffffffff\n        /* \"#utility.yul\":22150:22224   */\n      sub\n        /* \"#utility.yul\":22147:22148   */\n      dup3\n        /* \"#utility.yul\":22144:22225   */\n      gt\n        /* \"#utility.yul\":22141:22248   */\n      iszero\n      tag_624\n      jumpi\n        /* \"#utility.yul\":22228:22246   */\n      tag_625\n      tag_626\n      jump\t// in\n    tag_625:\n        /* \"#utility.yul\":22141:22248   */\n    tag_624:\n        /* \"#utility.yul\":22272:22273   */\n      dup3\n        /* \"#utility.yul\":22269:22270   */\n      dup3\n        /* \"#utility.yul\":22265:22274   */\n      add\n        /* \"#utility.yul\":22258:22274   */\n      swap1\n      pop\n        /* \"#utility.yul\":21975:22280   */\n      swap3\n      swap2\n      pop\n      pop\n      jump\t// out\n        /* \"#utility.yul\":22286:22471   */\n    tag_309:\n        /* \"#utility.yul\":22326:22327   */\n      0x00\n        /* \"#utility.yul\":22343:22363   */\n      tag_628\n        /* \"#utility.yul\":22361:22362   */\n      dup3\n        /* \"#utility.yul\":22343:22363   */\n      tag_542\n      jump\t// in\n    tag_628:\n        /* \"#utility.yul\":22338:22363   */\n      swap2\n      pop\n        /* \"#utility.yul\":22377:22397   */\n      tag_629\n        /* \"#utility.yul\":22395:22396   */\n      dup4\n        /* \"#utility.yul\":22377:22397   */\n      tag_542\n      jump\t// in\n    tag_629:\n        /* \"#utility.yul\":22372:22397   */\n      swap3\n      pop\n        /* \"#utility.yul\":22416:22417   */\n      dup3\n        /* \"#utility.yul\":22406:22441   */\n      tag_630\n      jumpi\n        /* \"#utility.yul\":22421:22439   */\n      tag_631\n      tag_632\n      jump\t// in\n    tag_631:\n        /* \"#utility.yul\":22406:22441   */\n    tag_630:\n        /* \"#utility.yul\":22463:22464   */\n      dup3\n        /* \"#utility.yul\":22460:22461   */\n      dup3\n        /* \"#utility.yul\":22456:22465   */\n      div\n        /* \"#utility.yul\":22451:22465   */\n      swap1\n      pop\n        /* \"#utility.yul\":22286:22471   */\n      swap3\n      swap2\n      pop\n      pop\n      jump\t// out\n        /* \"#utility.yul\":22477:22825   */\n    tag_175:\n        /* \"#utility.yul\":22517:22524   */\n      0x00\n        /* \"#utility.yul\":22540:22560   */\n      tag_634\n        /* \"#utility.yul\":22558:22559   */\n      dup3\n        /* \"#utility.yul\":22540:22560   */\n      tag_542\n      jump\t// in\n    tag_634:\n        /* \"#utility.yul\":22535:22560   */\n      swap2\n      pop\n        /* \"#utility.yul\":22574:22594   */\n      tag_635\n        /* \"#utility.yul\":22592:22593   */\n      dup4\n        /* \"#utility.yul\":22574:22594   */\n      tag_542\n      jump\t// in\n    tag_635:\n        /* \"#utility.yul\":22569:22594   */\n      swap3\n      pop\n        /* \"#utility.yul\":22762:22763   */\n      dup2\n        /* \"#utility.yul\":22694:22760   */\n      0xffffffffffffffffffffffffffffffffffffffffffffffffffffffffffffffff\n        /* \"#utility.yul\":22690:22764   */\n      div\n        /* \"#utility.yul\":22687:22688   */\n      dup4\n        /* \"#utility.yul\":22684:22765   */\n      gt\n        /* \"#utility.yul\":22679:22680   */\n      dup3\n        /* \"#utility.yul\":22672:22681   */\n      iszero\n        /* \"#utility.yul\":22665:22682   */\n      iszero\n        /* \"#utility.yul\":22661:22766   */\n      and\n        /* \"#utility.yul\":22658:22789   */\n      iszero\n      tag_636\n      jumpi\n        /* \"#utility.yul\":22769:22787   */\n      tag_637\n      tag_626\n      jump\t// in\n    tag_637:\n        /* \"#utility.yul\":22658:22789   */\n    tag_636:\n        /* \"#utility.yul\":22817:22818   */\n      dup3\n        /* \"#utility.yul\":22814:22815   */\n      dup3\n        /* \"#utility.yul\":22810:22819   */\n      mul\n        /* \"#utility.yul\":22799:22819   */\n      swap1\n      pop\n        /* \"#utility.yul\":22477:22825   */\n      swap3\n      swap2\n      pop\n      pop\n      jump\t// out\n        /* \"#utility.yul\":22831:23022   */\n    tag_317:\n        /* \"#utility.yul\":22871:22875   */\n      0x00\n        /* \"#utility.yul\":22891:22911   */\n      tag_639\n        /* \"#utility.yul\":22909:22910   */\n      dup3\n        /* \"#utility.yul\":22891:22911   */\n      tag_542\n      jump\t// in\n    tag_639:\n        /* \"#utility.yul\":22886:22911   */\n      swap2\n      pop\n        /* \"#utility.yul\":22925:22945   */\n      tag_640\n        /* \"#utility.yul\":22943:22944   */\n      dup4\n        /* \"#utility.yul\":22925:22945   */\n      tag_542\n      jump\t// in\n    tag_640:\n        /* \"#utility.yul\":22920:22945   */\n      swap3\n      pop\n        /* \"#utility.yul\":22964:22965   */\n      dup3\n        /* \"#utility.yul\":22961:22962   */\n      dup3\n        /* \"#utility.yul\":22958:22966   */\n      lt\n        /* \"#utility.yul\":22955:22989   */\n      iszero\n      tag_641\n      jumpi\n        /* \"#utility.yul\":22969:22987   */\n      tag_642\n      tag_626\n      jump\t// in\n    tag_642:\n        /* \"#utility.yul\":22955:22989   */\n    tag_641:\n        /* \"#utility.yul\":23014:23015   */\n      dup3\n        /* \"#utility.yul\":23011:23012   */\n      dup3\n        /* \"#utility.yul\":23007:23016   */\n      sub\n        /* \"#utility.yul\":22999:23016   */\n      swap1\n      pop\n        /* \"#utility.yul\":22831:23022   */\n      swap3\n      swap2\n      pop\n      pop\n      jump\t// out\n        /* \"#utility.yul\":23028:23124   */\n    tag_430:\n        /* \"#utility.yul\":23065:23072   */\n      0x00\n        /* \"#utility.yul\":23094:23118   */\n      tag_644\n        /* \"#utility.yul\":23112:23117   */\n      dup3\n        /* \"#utility.yul\":23094:23118   */\n      tag_645\n      jump\t// in\n    tag_644:\n        /* \"#utility.yul\":23083:23118   */\n      swap1\n      pop\n        /* \"#utility.yul\":23028:23124   */\n      swap2\n      swap1\n      pop\n      jump\t// out\n        /* \"#utility.yul\":23130:23234   */\n    tag_421:\n        /* \"#utility.yul\":23175:23182   */\n      0x00\n        /* \"#utility.yul\":23204:23228   */\n      tag_647\n        /* \"#utility.yul\":23222:23227   */\n      dup3\n        /* \"#utility.yul\":23204:23228   */\n      tag_645\n      jump\t// in\n    tag_647:\n        /* \"#utility.yul\":23193:23228   */\n      swap1\n      pop\n        /* \"#utility.yul\":23130:23234   */\n      swap2\n      swap1\n      pop\n      jump\t// out\n        /* \"#utility.yul\":23240:23330   */\n    tag_453:\n        /* \"#utility.yul\":23274:23281   */\n      0x00\n        /* \"#utility.yul\":23317:23322   */\n      dup2\n        /* \"#utility.yul\":23310:23323   */\n      iszero\n        /* \"#utility.yul\":23303:23324   */\n      iszero\n        /* \"#utility.yul\":23292:23324   */\n      swap1\n      pop\n        /* \"#utility.yul\":23240:23330   */\n      swap2\n      swap1\n      pop\n      jump\t// out\n        /* \"#utility.yul\":23336:23485   */\n    tag_649:\n        /* \"#utility.yul\":23372:23379   */\n      0x00\n        /* \"#utility.yul\":23412:23478   */\n      0xffffffff00000000000000000000000000000000000000000000000000000000\n        /* \"#utility.yul\":23405:23410   */\n      dup3\n        /* \"#utility.yul\":23401:23479   */\n      and\n        /* \"#utility.yul\":23390:23479   */\n      swap1\n      pop\n        /* \"#utility.yul\":23336:23485   */\n      swap2\n      swap1\n      pop\n      jump\t// out\n        /* \"#utility.yul\":23491:23617   */\n    tag_645:\n        /* \"#utility.yul\":23528:23535   */\n      0x00\n        /* \"#utility.yul\":23568:23610   */\n      0xffffffffffffffffffffffffffffffffffffffff\n        /* \"#utility.yul\":23561:23566   */\n      dup3\n        /* \"#utility.yul\":23557:23611   */\n      and\n        /* \"#utility.yul\":23546:23611   */\n      swap1\n      pop\n        /* \"#utility.yul\":23491:23617   */\n      swap2\n      swap1\n      pop\n      jump\t// out\n        /* \"#utility.yul\":23623:23700   */\n    tag_542:\n        /* \"#utility.yul\":23660:23667   */\n      0x00\n        /* \"#utility.yul\":23689:23694   */\n      dup2\n        /* \"#utility.yul\":23678:23694   */\n      swap1\n      pop\n        /* \"#utility.yul\":23623:23700   */\n      swap2\n      swap1\n      pop\n      jump\t// out\n        /* \"#utility.yul\":23706:24013   */\n    tag_461:\n        /* \"#utility.yul\":23774:23775   */\n      0x00\n        /* \"#utility.yul\":23784:23897   */\n    tag_654:\n        /* \"#utility.yul\":23798:23804   */\n      dup4\n        /* \"#utility.yul\":23795:23796   */\n      dup2\n        /* \"#utility.yul\":23792:23805   */\n      lt\n        /* \"#utility.yul\":23784:23897   */\n      iszero\n      tag_656\n      jumpi\n        /* \"#utility.yul\":23883:23884   */\n      dup1\n        /* \"#utility.yul\":23878:23881   */\n      dup3\n        /* \"#utility.yul\":23874:23885   */\n      add\n        /* \"#utility.yul\":23868:23886   */\n      mload\n        /* \"#utility.yul\":23864:23865   */\n      dup2\n        /* \"#utility.yul\":23859:23862   */\n      dup5\n        /* \"#utility.yul\":23855:23866   */\n      add\n        /* \"#utility.yul\":23848:23887   */\n      mstore\n        /* \"#utility.yul\":23820:23822   */\n      0x20\n        /* \"#utility.yul\":23817:23818   */\n      dup2\n        /* \"#utility.yul\":23813:23823   */\n      add\n        /* \"#utility.yul\":23808:23823   */\n      swap1\n      pop\n        /* \"#utility.yul\":23784:23897   */\n      jump(tag_654)\n    tag_656:\n        /* \"#utility.yul\":23915:23921   */\n      dup4\n        /* \"#utility.yul\":23912:23913   */\n      dup2\n        /* \"#utility.yul\":23909:23922   */\n      gt\n        /* \"#utility.yul\":23906:24007   */\n      iszero\n      tag_657\n      jumpi\n        /* \"#utility.yul\":23995:23996   */\n      0x00\n        /* \"#utility.yul\":23986:23992   */\n      dup5\n        /* \"#utility.yul\":23981:23984   */\n      dup5\n        /* \"#utility.yul\":23977:23993   */\n      add\n        /* \"#utility.yul\":23970:23997   */\n      mstore\n        /* \"#utility.yul\":23906:24007   */\n    tag_657:\n        /* \"#utility.yul\":23755:24013   */\n      pop\n        /* \"#utility.yul\":23706:24013   */\n      pop\n      pop\n      pop\n      jump\t// out\n        /* \"#utility.yul\":24019:24339   */\n    tag_152:\n        /* \"#utility.yul\":24063:24069   */\n      0x00\n        /* \"#utility.yul\":24100:24101   */\n      0x02\n        /* \"#utility.yul\":24094:24098   */\n      dup3\n        /* \"#utility.yul\":24090:24102   */\n      div\n        /* \"#utility.yul\":24080:24102   */\n      swap1\n      pop\n        /* \"#utility.yul\":24147:24148   */\n      0x01\n        /* \"#utility.yul\":24141:24145   */\n      dup3\n        /* \"#utility.yul\":24137:24149   */\n      and\n        /* \"#utility.yul\":24168:24186   */\n      dup1\n        /* \"#utility.yul\":24158:24239   */\n      tag_659\n      jumpi\n        /* \"#utility.yul\":24224:24228   */\n      0x7f\n        /* \"#utility.yul\":24216:24222   */\n      dup3\n        /* \"#utility.yul\":24212:24229   */\n      and\n        /* \"#utility.yul\":24202:24229   */\n      swap2\n      pop\n        /* \"#utility.yul\":24158:24239   */\n    tag_659:\n        /* \"#utility.yul\":24286:24288   */\n      0x20\n        /* \"#utility.yul\":24278:24284   */\n      dup3\n        /* \"#utility.yul\":24275:24289   */\n      lt\n        /* \"#utility.yul\":24255:24273   */\n      dup2\n        /* \"#utility.yul\":24252:24290   */\n      eq\n        /* \"#utility.yul\":24249:24333   */\n      iszero\n      tag_660\n      jumpi\n        /* \"#utility.yul\":24305:24323   */\n      tag_661\n      tag_662\n      jump\t// in\n    tag_661:\n        /* \"#utility.yul\":24249:24333   */\n    tag_660:\n        /* \"#utility.yul\":24070:24339   */\n      pop\n        /* \"#utility.yul\":24019:24339   */\n      swap2\n      swap1\n      pop\n      jump\t// out\n        /* \"#utility.yul\":24345:24626   */\n    tag_663:\n        /* \"#utility.yul\":24428:24455   */\n      tag_665\n        /* \"#utility.yul\":24450:24454   */\n      dup3\n        /* \"#utility.yul\":24428:24455   */\n      tag_463\n      jump\t// in\n    tag_665:\n        /* \"#utility.yul\":24420:24426   */\n      dup2\n        /* \"#utility.yul\":24416:24456   */\n      add\n        /* \"#utility.yul\":24558:24564   */\n      dup2\n        /* \"#utility.yul\":24546:24556   */\n      dup2\n        /* \"#utility.yul\":24543:24565   */\n      lt\n        /* \"#utility.yul\":24522:24540   */\n      0xffffffffffffffff\n        /* \"#utility.yul\":24510:24520   */\n      dup3\n        /* \"#utility.yul\":24507:24541   */\n      gt\n        /* \"#utility.yul\":24504:24566   */\n      or\n        /* \"#utility.yul\":24501:24589   */\n      iszero\n      tag_666\n      jumpi\n        /* \"#utility.yul\":24569:24587   */\n      tag_667\n      tag_312\n      jump\t// in\n    tag_667:\n        /* \"#utility.yul\":24501:24589   */\n    tag_666:\n        /* \"#utility.yul\":24609:24619   */\n      dup1\n        /* \"#utility.yul\":24605:24607   */\n      0x40\n        /* \"#utility.yul\":24598:24620   */\n      mstore\n        /* \"#utility.yul\":24388:24626   */\n      pop\n        /* \"#utility.yul\":24345:24626   */\n      pop\n      pop\n      jump\t// out\n        /* \"#utility.yul\":24632:24865   */\n    tag_130:\n        /* \"#utility.yul\":24671:24674   */\n      0x00\n        /* \"#utility.yul\":24694:24718   */\n      tag_669\n        /* \"#utility.yul\":24712:24717   */\n      dup3\n        /* \"#utility.yul\":24694:24718   */\n      tag_542\n      jump\t// in\n    tag_669:\n        /* \"#utility.yul\":24685:24718   */\n      swap2\n      pop\n        /* \"#utility.yul\":24740:24806   */\n      0xffffffffffffffffffffffffffffffffffffffffffffffffffffffffffffffff\n        /* \"#utility.yul\":24733:24738   */\n      dup3\n        /* \"#utility.yul\":24730:24807   */\n      eq\n        /* \"#utility.yul\":24727:24830   */\n      iszero\n      tag_670\n      jumpi\n        /* \"#utility.yul\":24810:24828   */\n      tag_671\n      tag_626\n      jump\t// in\n    tag_671:\n        /* \"#utility.yul\":24727:24830   */\n    tag_670:\n        /* \"#utility.yul\":24857:24858   */\n      0x01\n        /* \"#utility.yul\":24850:24855   */\n      dup3\n        /* \"#utility.yul\":24846:24859   */\n      add\n        /* \"#utility.yul\":24839:24859   */\n      swap1\n      pop\n        /* \"#utility.yul\":24632:24865   */\n      swap2\n      swap1\n      pop\n      jump\t// out\n        /* \"#utility.yul\":24871:24971   */\n    tag_435:\n        /* \"#utility.yul\":24910:24917   */\n      0x00\n        /* \"#utility.yul\":24939:24965   */\n      tag_673\n        /* \"#utility.yul\":24959:24964   */\n      dup3\n        /* \"#utility.yul\":24939:24965   */\n      tag_674\n      jump\t// in\n    tag_673:\n        /* \"#utility.yul\":24928:24965   */\n      swap1\n      pop\n        /* \"#utility.yul\":24871:24971   */\n      swap2\n      swap1\n      pop\n      jump\t// out\n        /* \"#utility.yul\":24977:25085   */\n    tag_426:\n        /* \"#utility.yul\":25024:25031   */\n      0x00\n        /* \"#utility.yul\":25053:25079   */\n      tag_676\n        /* \"#utility.yul\":25073:25078   */\n      dup3\n        /* \"#utility.yul\":25053:25079   */\n      tag_674\n      jump\t// in\n    tag_676:\n        /* \"#utility.yul\":25042:25079   */\n      swap1\n      pop\n        /* \"#utility.yul\":24977:25085   */\n      swap2\n      swap1\n      pop\n      jump\t// out\n        /* \"#utility.yul\":25091:25185   */\n    tag_674:\n        /* \"#utility.yul\":25130:25137   */\n      0x00\n        /* \"#utility.yul\":25159:25179   */\n      tag_678\n        /* \"#utility.yul\":25173:25178   */\n      dup3\n        /* \"#utility.yul\":25159:25179   */\n      tag_679\n      jump\t// in\n    tag_678:\n        /* \"#utility.yul\":25148:25179   */\n      swap1\n      pop\n        /* \"#utility.yul\":25091:25185   */\n      swap2\n      swap1\n      pop\n      jump\t// out\n        /* \"#utility.yul\":25191:25270   */\n    tag_550:\n        /* \"#utility.yul\":25230:25237   */\n      0x00\n        /* \"#utility.yul\":25259:25264   */\n      dup2\n        /* \"#utility.yul\":25248:25264   */\n      swap1\n      pop\n        /* \"#utility.yul\":25191:25270   */\n      swap2\n      swap1\n      pop\n      jump\t// out\n        /* \"#utility.yul\":25276:25452   */\n    tag_238:\n        /* \"#utility.yul\":25308:25309   */\n      0x00\n        /* \"#utility.yul\":25325:25345   */\n      tag_682\n        /* \"#utility.yul\":25343:25344   */\n      dup3\n        /* \"#utility.yul\":25325:25345   */\n      tag_542\n      jump\t// in\n    tag_682:\n        /* \"#utility.yul\":25320:25345   */\n      swap2\n      pop\n        /* \"#utility.yul\":25359:25379   */\n      tag_683\n        /* \"#utility.yul\":25377:25378   */\n      dup4\n        /* \"#utility.yul\":25359:25379   */\n      tag_542\n      jump\t// in\n    tag_683:\n        /* \"#utility.yul\":25354:25379   */\n      swap3\n      pop\n        /* \"#utility.yul\":25398:25399   */\n      dup3\n        /* \"#utility.yul\":25388:25423   */\n      tag_684\n      jumpi\n        /* \"#utility.yul\":25403:25421   */\n      tag_685\n      tag_632\n      jump\t// in\n    tag_685:\n        /* \"#utility.yul\":25388:25423   */\n    tag_684:\n        /* \"#utility.yul\":25444:25445   */\n      dup3\n        /* \"#utility.yul\":25441:25442   */\n      dup3\n        /* \"#utility.yul\":25437:25446   */\n      mod\n        /* \"#utility.yul\":25432:25446   */\n      swap1\n      pop\n        /* \"#utility.yul\":25276:25452   */\n      swap3\n      swap2\n      pop\n      pop\n      jump\t// out\n        /* \"#utility.yul\":25458:25638   */\n    tag_626:\n        /* \"#utility.yul\":25506:25583   */\n      0x4e487b7100000000000000000000000000000000000000000000000000000000\n        /* \"#utility.yul\":25503:25504   */\n      0x00\n        /* \"#utility.yul\":25496:25584   */\n      mstore\n        /* \"#utility.yul\":25603:25607   */\n      0x11\n        /* \"#utility.yul\":25600:25601   */\n      0x04\n        /* \"#utility.yul\":25593:25608   */\n      mstore\n        /* \"#utility.yul\":25627:25631   */\n      0x24\n        /* \"#utility.yul\":25624:25625   */\n      0x00\n        /* \"#utility.yul\":25617:25632   */\n      revert\n        /* \"#utility.yul\":25644:25824   */\n    tag_632:\n        /* \"#utility.yul\":25692:25769   */\n      0x4e487b7100000000000000000000000000000000000000000000000000000000\n        /* \"#utility.yul\":25689:25690   */\n      0x00\n        /* \"#utility.yul\":25682:25770   */\n      mstore\n        /* \"#utility.yul\":25789:25793   */\n      0x12\n        /* \"#utility.yul\":25786:25787   */\n      0x04\n        /* \"#utility.yul\":25779:25794   */\n      mstore\n        /* \"#utility.yul\":25813:25817   */\n      0x24\n        /* \"#utility.yul\":25810:25811   */\n      0x00\n        /* \"#utility.yul\":25803:25818   */\n      revert\n        /* \"#utility.yul\":25830:26010   */\n    tag_662:\n        /* \"#utility.yul\":25878:25955   */\n      0x4e487b7100000000000000000000000000000000000000000000000000000000\n        /* \"#utility.yul\":25875:25876   */\n      0x00\n        /* \"#utility.yul\":25868:25956   */\n      mstore\n        /* \"#utility.yul\":25975:25979   */\n      0x22\n        /* \"#utility.yul\":25972:25973   */\n      0x04\n        /* \"#utility.yul\":25965:25980   */\n      mstore\n        /* \"#utility.yul\":25999:26003   */\n      0x24\n        /* \"#utility.yul\":25996:25997   */\n      0x00\n        /* \"#utility.yul\":25989:26004   */\n      revert\n        /* \"#utility.yul\":26016:26196   */\n    tag_245:\n        /* \"#utility.yul\":26064:26141   */\n      0x4e487b7100000000000000000000000000000000000000000000000000000000\n        /* \"#utility.yul\":26061:26062   */\n      0x00\n        /* \"#utility.yul\":26054:26142   */\n      mstore\n        /* \"#utility.yul\":26161:26165   */\n      0x32\n        /* \"#utility.yul\":26158:26159   */\n      0x04\n        /* \"#utility.yul\":26151:26166   */\n      mstore\n        /* \"#utility.yul\":26185:26189   */\n      0x24\n        /* \"#utility.yul\":26182:26183   */\n      0x00\n        /* \"#utility.yul\":26175:26190   */\n      revert\n        /* \"#utility.yul\":26202:26382   */\n    tag_312:\n        /* \"#utility.yul\":26250:26327   */\n      0x4e487b7100000000000000000000000000000000000000000000000000000000\n        /* \"#utility.yul\":26247:26248   */\n      0x00\n        /* \"#utility.yul\":26240:26328   */\n      mstore\n        /* \"#utility.yul\":26347:26351   */\n      0x41\n        /* \"#utility.yul\":26344:26345   */\n      0x04\n        /* \"#utility.yul\":26337:26352   */\n      mstore\n        /* \"#utility.yul\":26371:26375   */\n      0x24\n        /* \"#utility.yul\":26368:26369   */\n      0x00\n        /* \"#utility.yul\":26361:26376   */\n      revert\n        /* \"#utility.yul\":26388:26571   */\n    tag_345:\n        /* \"#utility.yul\":26423:26426   */\n      0x00\n        /* \"#utility.yul\":26461:26462   */\n      0x03\n        /* \"#utility.yul\":26443:26459   */\n      returndatasize\n        /* \"#utility.yul\":26440:26463   */\n      gt\n        /* \"#utility.yul\":26437:26565   */\n      iszero\n      tag_692\n      jumpi\n        /* \"#utility.yul\":26499:26500   */\n      0x04\n        /* \"#utility.yul\":26496:26497   */\n      0x00\n        /* \"#utility.yul\":26493:26494   */\n      dup1\n        /* \"#utility.yul\":26478:26501   */\n      returndatacopy\n        /* \"#utility.yul\":26521:26555   */\n      tag_693\n        /* \"#utility.yul\":26552:26553   */\n      0x00\n        /* \"#utility.yul\":26546:26554   */\n      mload\n        /* \"#utility.yul\":26521:26555   */\n      tag_694\n      jump\t// in\n    tag_693:\n        /* \"#utility.yul\":26514:26555   */\n      swap1\n      pop\n        /* \"#utility.yul\":26437:26565   */\n    tag_692:\n        /* \"#utility.yul\":26388:26571   */\n      swap1\n      jump\t// out\n        /* \"#utility.yul\":26700:26817   */\n    tag_395:\n        /* \"#utility.yul\":26809:26810   */\n      0x00\n        /* \"#utility.yul\":26806:26807   */\n      dup1\n        /* \"#utility.yul\":26799:26811   */\n      revert\n        /* \"#utility.yul\":26823:26925   */\n    tag_463:\n        /* \"#utility.yul\":26864:26870   */\n      0x00\n        /* \"#utility.yul\":26915:26917   */\n      0x1f\n        /* \"#utility.yul\":26911:26918   */\n      not\n        /* \"#utility.yul\":26906:26908   */\n      0x1f\n        /* \"#utility.yul\":26899:26904   */\n      dup4\n        /* \"#utility.yul\":26895:26909   */\n      add\n        /* \"#utility.yul\":26891:26919   */\n      and\n        /* \"#utility.yul\":26881:26919   */\n      swap1\n      pop\n        /* \"#utility.yul\":26823:26925   */\n      swap2\n      swap1\n      pop\n      jump\t// out\n        /* \"#utility.yul\":26931:27025   */\n    tag_679:\n        /* \"#utility.yul\":26964:26972   */\n      0x00\n        /* \"#utility.yul\":27012:27017   */\n      dup2\n        /* \"#utility.yul\":27008:27010   */\n      0x60\n        /* \"#utility.yul\":27004:27018   */\n      shl\n        /* \"#utility.yul\":26983:27018   */\n      swap1\n      pop\n        /* \"#utility.yul\":26931:27025   */\n      swap2\n      swap1\n      pop\n      jump\t// out\n        /* \"#utility.yul\":27031:27137   */\n    tag_694:\n        /* \"#utility.yul\":27075:27083   */\n      0x00\n        /* \"#utility.yul\":27124:27129   */\n      dup2\n        /* \"#utility.yul\":27119:27122   */\n      0xe0\n        /* \"#utility.yul\":27115:27130   */\n      shr\n        /* \"#utility.yul\":27094:27130   */\n      swap1\n      pop\n        /* \"#utility.yul\":27031:27137   */\n      swap2\n      swap1\n      pop\n      jump\t// out\n        /* \"#utility.yul\":27143:27382   */\n    tag_474:\n        /* \"#utility.yul\":27283:27317   */\n      0x455243313135353a207472616e7366657220746f206e6f6e2045524331313535\n        /* \"#utility.yul\":27279:27280   */\n      0x00\n        /* \"#utility.yul\":27271:27277   */\n      dup3\n        /* \"#utility.yul\":27267:27281   */\n      add\n        /* \"#utility.yul\":27260:27318   */\n      mstore\n        /* \"#utility.yul\":27352:27374   */\n      0x526563656976657220696d706c656d656e746572000000000000000000000000\n        /* \"#utility.yul\":27347:27349   */\n      0x20\n        /* \"#utility.yul\":27339:27345   */\n      dup3\n        /* \"#utility.yul\":27335:27350   */\n      add\n        /* \"#utility.yul\":27328:27375   */\n      mstore\n        /* \"#utility.yul\":27143:27382   */\n      pop\n      jump\t// out\n        /* \"#utility.yul\":27388:27615   */\n    tag_479:\n        /* \"#utility.yul\":27528:27562   */\n      0x455243313135353a204552433131353552656365697665722072656a65637465\n        /* \"#utility.yul\":27524:27525   */\n      0x00\n        /* \"#utility.yul\":27516:27522   */\n      dup3\n        /* \"#utility.yul\":27512:27526   */\n      add\n        /* \"#utility.yul\":27505:27563   */\n      mstore\n        /* \"#utility.yul\":27597:27607   */\n      0x6420746f6b656e73000000000000000000000000000000000000000000000000\n        /* \"#utility.yul\":27592:27594   */\n      0x20\n        /* \"#utility.yul\":27584:27590   */\n      dup3\n        /* \"#utility.yul\":27580:27595   */\n      add\n        /* \"#utility.yul\":27573:27608   */\n      mstore\n        /* \"#utility.yul\":27388:27615   */\n      pop\n      jump\t// out\n        /* \"#utility.yul\":27621:27779   */\n    tag_484:\n        /* \"#utility.yul\":27761:27771   */\n      0x4469616d6f6e645f000000000000000000000000000000000000000000000000\n        /* \"#utility.yul\":27757:27758   */\n      0x00\n        /* \"#utility.yul\":27749:27755   */\n      dup3\n        /* \"#utility.yul\":27745:27759   */\n      add\n        /* \"#utility.yul\":27738:27772   */\n      mstore\n        /* \"#utility.yul\":27621:27779   */\n      pop\n      jump\t// out\n        /* \"#utility.yul\":27785:27940   */\n    tag_489:\n        /* \"#utility.yul\":27925:27932   */\n      0x476f6c645f000000000000000000000000000000000000000000000000000000\n        /* \"#utility.yul\":27921:27922   */\n      0x00\n        /* \"#utility.yul\":27913:27919   */\n      dup3\n        /* \"#utility.yul\":27909:27923   */\n      add\n        /* \"#utility.yul\":27902:27933   */\n      mstore\n        /* \"#utility.yul\":27785:27940   */\n      pop\n      jump\t// out\n        /* \"#utility.yul\":27946:28114   */\n    tag_494:\n        /* \"#utility.yul\":28086:28106   */\n      0x4e6f7420456e6f7567682042616c616e63650000000000000000000000000000\n        /* \"#utility.yul\":28082:28083   */\n      0x00\n        /* \"#utility.yul\":28074:28080   */\n      dup3\n        /* \"#utility.yul\":28070:28084   */\n      add\n        /* \"#utility.yul\":28063:28107   */\n      mstore\n        /* \"#utility.yul\":27946:28114   */\n      pop\n      jump\t// out\n        /* \"#utility.yul\":28120:28297   */\n    tag_499:\n        /* \"#utility.yul\":28260:28289   */\n      0x44726f707369746520697320616c72656164792052756e6e696e670000000000\n        /* \"#utility.yul\":28256:28257   */\n      0x00\n        /* \"#utility.yul\":28248:28254   */\n      dup3\n        /* \"#utility.yul\":28244:28258   */\n      add\n        /* \"#utility.yul\":28237:28290   */\n      mstore\n        /* \"#utility.yul\":28120:28297   */\n      pop\n      jump\t// out\n        /* \"#utility.yul\":28303:28480   */\n    tag_504:\n        /* \"#utility.yul\":28443:28472   */\n      0x44726f707369746520697320616c72656164792053746f707065640000000000\n        /* \"#utility.yul\":28439:28440   */\n      0x00\n        /* \"#utility.yul\":28431:28437   */\n      dup3\n        /* \"#utility.yul\":28427:28441   */\n      add\n        /* \"#utility.yul\":28420:28473   */\n      mstore\n        /* \"#utility.yul\":28303:28480   */\n      pop\n      jump\t// out\n        /* \"#utility.yul\":28486:28657   */\n    tag_509:\n        /* \"#utility.yul\":28626:28649   */\n      0x596f752063616e206d696e7420312d33204e4654730000000000000000000000\n        /* \"#utility.yul\":28622:28623   */\n      0x00\n        /* \"#utility.yul\":28614:28620   */\n      dup3\n        /* \"#utility.yul\":28610:28624   */\n      add\n        /* \"#utility.yul\":28603:28650   */\n      mstore\n        /* \"#utility.yul\":28486:28657   */\n      pop\n      jump\t// out\n        /* \"#utility.yul\":28663:28841   */\n    tag_514:\n        /* \"#utility.yul\":28803:28833   */\n      0x4f6e6c79204e46542d4553204f776e65722063616e2041636365737300000000\n        /* \"#utility.yul\":28799:28800   */\n      0x00\n        /* \"#utility.yul\":28791:28797   */\n      dup3\n        /* \"#utility.yul\":28787:28801   */\n      add\n        /* \"#utility.yul\":28780:28834   */\n      mstore\n        /* \"#utility.yul\":28663:28841   */\n      pop\n      jump\t// out\n        /* \"#utility.yul\":28847:29024   */\n    tag_519:\n        /* \"#utility.yul\":28987:29016   */\n      0x44726f7073697465206973206e6f74204f70656e6564205965742e0000000000\n        /* \"#utility.yul\":28983:28984   */\n      0x00\n        /* \"#utility.yul\":28975:28981   */\n      dup3\n        /* \"#utility.yul\":28971:28985   */\n      add\n        /* \"#utility.yul\":28964:29017   */\n      mstore\n        /* \"#utility.yul\":28847:29024   */\n      pop\n      jump\t// out\n        /* \"#utility.yul\":29030:29205   */\n    tag_524:\n        /* \"#utility.yul\":29170:29197   */\n      0x4d6178204d696e74696e67204c696d6974207265616368656400000000000000\n        /* \"#utility.yul\":29166:29167   */\n      0x00\n        /* \"#utility.yul\":29158:29164   */\n      dup3\n        /* \"#utility.yul\":29154:29168   */\n      add\n        /* \"#utility.yul\":29147:29198   */\n      mstore\n        /* \"#utility.yul\":29030:29205   */\n      pop\n      jump\t// out\n        /* \"#utility.yul\":29211:29368   */\n    tag_529:\n        /* \"#utility.yul\":29351:29360   */\n      0x53696c7665725f00000000000000000000000000000000000000000000000000\n        /* \"#utility.yul\":29347:29348   */\n      0x00\n        /* \"#utility.yul\":29339:29345   */\n      dup3\n        /* \"#utility.yul\":29335:29349   */\n      add\n        /* \"#utility.yul\":29328:29361   */\n      mstore\n        /* \"#utility.yul\":29211:29368   */\n      pop\n      jump\t// out\n        /* \"#utility.yul\":29374:29553   */\n    tag_534:\n        /* \"#utility.yul\":29514:29545   */\n      0x4572726f7221204e6f2042616c616e636520746f207769746864726177000000\n        /* \"#utility.yul\":29510:29511   */\n      0x00\n        /* \"#utility.yul\":29502:29508   */\n      dup3\n        /* \"#utility.yul\":29498:29512   */\n      add\n        /* \"#utility.yul\":29491:29546   */\n      mstore\n        /* \"#utility.yul\":29374:29553   */\n      pop\n      jump\t// out\n        /* \"#utility.yul\":29559:29779   */\n    tag_539:\n        /* \"#utility.yul\":29699:29733   */\n      0x455243313135353a206d696e7420746f20746865207a65726f20616464726573\n        /* \"#utility.yul\":29695:29696   */\n      0x00\n        /* \"#utility.yul\":29687:29693   */\n      dup3\n        /* \"#utility.yul\":29683:29697   */\n      add\n        /* \"#utility.yul\":29676:29734   */\n      mstore\n        /* \"#utility.yul\":29768:29771   */\n      0x7300000000000000000000000000000000000000000000000000000000000000\n        /* \"#utility.yul\":29763:29765   */\n      0x20\n        /* \"#utility.yul\":29755:29761   */\n      dup3\n        /* \"#utility.yul\":29751:29766   */\n      add\n        /* \"#utility.yul\":29744:29772   */\n      mstore\n        /* \"#utility.yul\":29559:29779   */\n      pop\n      jump\t// out\n        /* \"#utility.yul\":29785:30496   */\n    tag_347:\n        /* \"#utility.yul\":29824:29827   */\n      0x00\n        /* \"#utility.yul\":29862:29866   */\n      0x44\n        /* \"#utility.yul\":29844:29860   */\n      returndatasize\n        /* \"#utility.yul\":29841:29867   */\n      lt\n        /* \"#utility.yul\":29838:29877   */\n      iszero\n      tag_716\n      jumpi\n        /* \"#utility.yul\":29870:29875   */\n      jump(tag_715)\n        /* \"#utility.yul\":29838:29877   */\n    tag_716:\n        /* \"#utility.yul\":29899:29919   */\n      tag_717\n      tag_612\n      jump\t// in\n    tag_717:\n        /* \"#utility.yul\":29974:29975   */\n      0x04\n        /* \"#utility.yul\":29956:29972   */\n      returndatasize\n        /* \"#utility.yul\":29952:29976   */\n      sub\n        /* \"#utility.yul\":29949:29950   */\n      0x04\n        /* \"#utility.yul\":29943:29947   */\n      dup3\n        /* \"#utility.yul\":29928:29977   */\n      returndatacopy\n        /* \"#utility.yul\":30007:30011   */\n      dup1\n        /* \"#utility.yul\":30001:30012   */\n      mload\n        /* \"#utility.yul\":30106:30122   */\n      returndatasize\n        /* \"#utility.yul\":30099:30103   */\n      0x24\n        /* \"#utility.yul\":30091:30097   */\n      dup3\n        /* \"#utility.yul\":30087:30104   */\n      add\n        /* \"#utility.yul\":30084:30123   */\n      gt\n        /* \"#utility.yul\":30051:30069   */\n      0xffffffffffffffff\n        /* \"#utility.yul\":30043:30049   */\n      dup3\n        /* \"#utility.yul\":30040:30070   */\n      gt\n        /* \"#utility.yul\":30024:30137   */\n      or\n        /* \"#utility.yul\":30021:30167   */\n      iszero\n      tag_718\n      jumpi\n        /* \"#utility.yul\":30152:30157   */\n      pop\n      pop\n      jump(tag_715)\n        /* \"#utility.yul\":30021:30167   */\n    tag_718:\n        /* \"#utility.yul\":30198:30204   */\n      dup1\n        /* \"#utility.yul\":30192:30196   */\n      dup3\n        /* \"#utility.yul\":30188:30205   */\n      add\n        /* \"#utility.yul\":30234:30237   */\n      dup1\n        /* \"#utility.yul\":30228:30238   */\n      mload\n        /* \"#utility.yul\":30261:30279   */\n      0xffffffffffffffff\n        /* \"#utility.yul\":30253:30259   */\n      dup2\n        /* \"#utility.yul\":30250:30280   */\n      gt\n        /* \"#utility.yul\":30247:30290   */\n      iszero\n      tag_719\n      jumpi\n        /* \"#utility.yul\":30283:30288   */\n      pop\n      pop\n      pop\n      pop\n      jump(tag_715)\n        /* \"#utility.yul\":30247:30290   */\n    tag_719:\n        /* \"#utility.yul\":30331:30337   */\n      dup1\n        /* \"#utility.yul\":30324:30328   */\n      0x20\n        /* \"#utility.yul\":30319:30322   */\n      dup4\n        /* \"#utility.yul\":30315:30329   */\n      add\n        /* \"#utility.yul\":30311:30338   */\n      add\n        /* \"#utility.yul\":30390:30391   */\n      0x04\n        /* \"#utility.yul\":30372:30388   */\n      returndatasize\n        /* \"#utility.yul\":30368:30392   */\n      sub\n        /* \"#utility.yul\":30362:30366   */\n      dup6\n        /* \"#utility.yul\":30358:30393   */\n      add\n        /* \"#utility.yul\":30353:30356   */\n      dup2\n        /* \"#utility.yul\":30350:30394   */\n      gt\n        /* \"#utility.yul\":30347:30404   */\n      iszero\n      tag_720\n      jumpi\n        /* \"#utility.yul\":30397:30402   */\n      pop\n      pop\n      pop\n      pop\n      pop\n      jump(tag_715)\n        /* \"#utility.yul\":30347:30404   */\n    tag_720:\n        /* \"#utility.yul\":30414:30471   */\n      tag_721\n        /* \"#utility.yul\":30462:30468   */\n      dup3\n        /* \"#utility.yul\":30456:30460   */\n      0x20\n        /* \"#utility.yul\":30452:30469   */\n      add\n        /* \"#utility.yul\":30444:30450   */\n      dup6\n        /* \"#utility.yul\":30440:30470   */\n      add\n        /* \"#utility.yul\":30434:30438   */\n      dup7\n        /* \"#utility.yul\":30414:30471   */\n      tag_663\n      jump\t// in\n    tag_721:\n        /* \"#utility.yul\":30487:30490   */\n      dup3\n        /* \"#utility.yul\":30480:30490   */\n      swap6\n      pop\n        /* \"#utility.yul\":29828:30496   */\n      pop\n      pop\n      pop\n      pop\n      pop\n        /* \"#utility.yul\":29785:30496   */\n    tag_715:\n      swap1\n      jump\t// out\n        /* \"#utility.yul\":30502:30624   */\n    tag_379:\n        /* \"#utility.yul\":30575:30599   */\n      tag_723\n        /* \"#utility.yul\":30593:30598   */\n      dup2\n        /* \"#utility.yul\":30575:30599   */\n      tag_430\n      jump\t// in\n    tag_723:\n        /* \"#utility.yul\":30568:30573   */\n      dup2\n        /* \"#utility.yul\":30565:30600   */\n      eq\n        /* \"#utility.yul\":30555:30618   */\n      tag_724\n      jumpi\n        /* \"#utility.yul\":30614:30615   */\n      0x00\n        /* \"#utility.yul\":30611:30612   */\n      dup1\n        /* \"#utility.yul\":30604:30616   */\n      revert\n        /* \"#utility.yul\":30555:30618   */\n    tag_724:\n        /* \"#utility.yul\":30502:30624   */\n      pop\n      jump\t// out\n        /* \"#utility.yul\":30630:30768   */\n    tag_383:\n        /* \"#utility.yul\":30711:30743   */\n      tag_726\n        /* \"#utility.yul\":30737:30742   */\n      dup2\n        /* \"#utility.yul\":30711:30743   */\n      tag_421\n      jump\t// in\n    tag_726:\n        /* \"#utility.yul\":30704:30709   */\n      dup2\n        /* \"#utility.yul\":30701:30744   */\n      eq\n        /* \"#utility.yul\":30691:30762   */\n      tag_727\n      jumpi\n        /* \"#utility.yul\":30758:30759   */\n      0x00\n        /* \"#utility.yul\":30755:30756   */\n      dup1\n        /* \"#utility.yul\":30748:30760   */\n      revert\n        /* \"#utility.yul\":30691:30762   */\n    tag_727:\n        /* \"#utility.yul\":30630:30768   */\n      pop\n      jump\t// out\n        /* \"#utility.yul\":30774:30894   */\n    tag_387:\n        /* \"#utility.yul\":30846:30869   */\n      tag_729\n        /* \"#utility.yul\":30863:30868   */\n      dup2\n        /* \"#utility.yul\":30846:30869   */\n      tag_649\n      jump\t// in\n    tag_729:\n        /* \"#utility.yul\":30839:30844   */\n      dup2\n        /* \"#utility.yul\":30836:30870   */\n      eq\n        /* \"#utility.yul\":30826:30888   */\n      tag_730\n      jumpi\n        /* \"#utility.yul\":30884:30885   */\n      0x00\n        /* \"#utility.yul\":30881:30882   */\n      dup1\n        /* \"#utility.yul\":30874:30886   */\n      revert\n        /* \"#utility.yul\":30826:30888   */\n    tag_730:\n        /* \"#utility.yul\":30774:30894   */\n      pop\n      jump\t// out\n        /* \"#utility.yul\":30900:31022   */\n    tag_391:\n        /* \"#utility.yul\":30973:30997   */\n      tag_732\n        /* \"#utility.yul\":30991:30996   */\n      dup2\n        /* \"#utility.yul\":30973:30997   */\n      tag_542\n      jump\t// in\n    tag_732:\n        /* \"#utility.yul\":30966:30971   */\n      dup2\n        /* \"#utility.yul\":30963:30998   */\n      eq\n        /* \"#utility.yul\":30953:31016   */\n      tag_733\n      jumpi\n        /* \"#utility.yul\":31012:31013   */\n      0x00\n        /* \"#utility.yul\":31009:31010   */\n      dup1\n        /* \"#utility.yul\":31002:31014   */\n      revert\n        /* \"#utility.yul\":30953:31016   */\n    tag_733:\n        /* \"#utility.yul\":30900:31022   */\n      pop\n      jump\t// out\n\n    auxdata: 0xa26469706673582212208dac008f2cc630ec2b3506917d82d5460c39f0c0ba87504b466f297bedd6c10064736f6c63430008070033\n}\n",
				"bytecode": {
					"linkReferences": {},
					"object": "608060405260405180602001604052806000815250600290805190602001906200002b929190620001e8565b50604051806102800160405280600060ff168152602001600160ff168152602001600160ff168152602001600260ff168152602001600260ff168152602001600260ff168152602001600260ff168152602001600260ff168152602001600260ff168152602001600260ff168152602001600260ff168152602001600260ff168152602001600260ff168152602001600260ff168152602001600260ff168152602001600260ff168152602001600260ff168152602001600260ff168152602001600260ff168152602001600260ff1681525060039060146200011092919062000279565b506001600c60006101000a81548160ff0219169083151502179055503480156200013957600080fd5b506040516200339c3803806200339c83398181016040528101906200015f9190620003b7565b80600d908051906020019062000177929190620001e8565b5033600c60016101000a81548173ffffffffffffffffffffffffffffffffffffffff021916908373ffffffffffffffffffffffffffffffffffffffff16021790555060006004819055506001600581905550600060078190555060006008819055506000600981905550506200058c565b828054620001f6906200049d565b90600052602060002090601f0160209004810192826200021a576000855562000266565b82601f106200023557805160ff191683800117855562000266565b8280016001018555821562000266579182015b828111156200026557825182559160200191906001019062000248565b5b5090506200027591906200031a565b5090565b826014601f01602090048101928215620003075791602002820160005b83821115620002d657835183826101000a81548160ff021916908360ff160217905550926020019260010160208160000104928301926001030262000296565b8015620003055782816101000a81549060ff0219169055600101602081600001049283019260010302620002d6565b505b5090506200031691906200031a565b5090565b5b80821115620003355760008160009055506001016200031b565b5090565b6000620003506200034a8462000431565b62000408565b9050828152602081018484840111156200036f576200036e6200056c565b5b6200037c84828562000467565b509392505050565b600082601f8301126200039c576200039b62000567565b5b8151620003ae84826020860162000339565b91505092915050565b600060208284031215620003d057620003cf62000576565b5b600082015167ffffffffffffffff811115620003f157620003f062000571565b5b620003ff8482850162000384565b91505092915050565b60006200041462000427565b9050620004228282620004d3565b919050565b6000604051905090565b600067ffffffffffffffff8211156200044f576200044e62000538565b5b6200045a826200057b565b9050602081019050919050565b60005b83811015620004875780820151818401526020810190506200046a565b8381111562000497576000848401525b50505050565b60006002820490506001821680620004b657607f821691505b60208210811415620004cd57620004cc62000509565b5b50919050565b620004de826200057b565b810181811067ffffffffffffffff821117156200050057620004ff62000538565b5b80604052505050565b7f4e487b7100000000000000000000000000000000000000000000000000000000600052602260045260246000fd5b7f4e487b7100000000000000000000000000000000000000000000000000000000600052604160045260246000fd5b600080fd5b600080fd5b600080fd5b600080fd5b6000601f19601f8301169050919050565b612e00806200059c6000396000f3fe6080604052600436106100dd5760003560e01c806359ba31241161007f578063aa90c72611610059578063aa90c7261461028c578063b4a99a4e146102a3578063eddd0d9c146102ce578063fd6c3b1b146102f7576100dd565b806359ba31241461020457806360daa851146102345780637a5caab314610261576100dd565b806315460259116100bb578063154602591461015457806327a8a0721461016b5780633b668059146101a8578063546fd992146101d3576100dd565b80630390c11c146100e25780630a67d2c71461010d5780631309a56314610129575b600080fd5b3480156100ee57600080fd5b506100f7610334565b60405161010491906124eb565b60405180910390f35b61012760048036038101906101229190611df3565b6103d5565b005b34801561013557600080fd5b5061013e6104ff565b60405161014b919061234e565b60405180910390f35b34801561016057600080fd5b50610169610512565b005b34801561017757600080fd5b50610192600480360381019061018d9190611e20565b61061c565b60405161019f919061232c565b60405180910390f35b3480156101b457600080fd5b506101bd610863565b6040516101ca91906124eb565b60405180910390f35b6101ed60048036038101906101e89190611dc6565b610902565b6040516101fb929190612506565b60405180910390f35b61021e60048036038101906102199190611e20565b610bbf565b60405161022b919061232c565b60405180910390f35b34801561024057600080fd5b50610249610dda565b6040516102589392919061255f565b60405180910390f35b34801561026d57600080fd5b50610276610ee0565b60405161028391906124eb565b60405180910390f35b34801561029857600080fd5b506102a1610fd7565b005b3480156102af57600080fd5b506102b86110e1565b6040516102c591906122b7565b60405180910390f35b3480156102da57600080fd5b506102f560048036038101906102f09190611e8d565b611107565b005b34801561030357600080fd5b5061031e60048036038101906103199190611dc6565b6111fe565b60405161032b919061232c565b60405180910390f35b6000600c60019054906101000a900473ffffffffffffffffffffffffffffffffffffffff1673ffffffffffffffffffffffffffffffffffffffff166103776112ee565b73ffffffffffffffffffffffffffffffffffffffff16146103cd576040517f08c379a00000000000000000000000000000000000000000000000000000000081526004016103c49061244b565b60405180910390fd5b600454905090565b600c60019054906101000a900473ffffffffffffffffffffffffffffffffffffffff1673ffffffffffffffffffffffffffffffffffffffff166104166112ee565b73ffffffffffffffffffffffffffffffffffffffff161461046c576040517f08c379a00000000000000000000000000000000000000000000000000000000081526004016104639061244b565b60405180910390fd5b6000479050600081116104b4576040517f08c379a00000000000000000000000000000000000000000000000000000000081526004016104ab906124ab565b60405180910390fd5b8173ffffffffffffffffffffffffffffffffffffffff166108fc829081150290604051600060405180830381858888f193505050501580156104fa573d6000803e3d6000fd5b505050565b600c60009054906101000a900460ff1681565b600c60019054906101000a900473ffffffffffffffffffffffffffffffffffffffff1673ffffffffffffffffffffffffffffffffffffffff166105536112ee565b73ffffffffffffffffffffffffffffffffffffffff16146105a9576040517f08c379a00000000000000000000000000000000000000000000000000000000081526004016105a09061244b565b60405180910390fd5b60011515600c60009054906101000a900460ff161515146105ff576040517f08c379a00000000000000000000000000000000000000000000000000000000081526004016105f6906123eb565b60405180910390fd5b6000600c60006101000a81548160ff021916908315150217905550565b6060600c60019054906101000a900473ffffffffffffffffffffffffffffffffffffffff1673ffffffffffffffffffffffffffffffffffffffff1661065f6112ee565b73ffffffffffffffffffffffffffffffffffffffff16146106b5576040517f08c379a00000000000000000000000000000000000000000000000000000000081526004016106ac9061244b565b60405180910390fd5b60001515600c60009054906101000a900460ff1615151461070b576040517f08c379a00000000000000000000000000000000000000000000000000000000081526004016107029061246b565b60405180910390fd5b60048210801561071b5750600082115b61075a576040517f08c379a00000000000000000000000000000000000000000000000000000000081526004016107519061242b565b60405180910390fd5b6103e8600454106107a0576040517f08c379a00000000000000000000000000000000000000000000000000000000081526004016107979061248b565b60405180910390fd5b60005b828110156107c9576107b484610902565b505080806107c190612831565b9150506107a3565b50600a60008473ffffffffffffffffffffffffffffffffffffffff1673ffffffffffffffffffffffffffffffffffffffff16815260200190815260200160002060000180548060200260200160405190810160405280929190818152602001828054801561085657602002820191906000526020600020905b815481526020019060010190808311610842575b5050505050905092915050565b6000600c60019054906101000a900473ffffffffffffffffffffffffffffffffffffffff1673ffffffffffffffffffffffffffffffffffffffff166108a66112ee565b73ffffffffffffffffffffffffffffffffffffffff16146108fc576040517f08c379a00000000000000000000000000000000000000000000000000000000081526004016108f39061244b565b60405180910390fd5b47905090565b60006060600c60019054906101000a900473ffffffffffffffffffffffffffffffffffffffff1673ffffffffffffffffffffffffffffffffffffffff166109476112ee565b73ffffffffffffffffffffffffffffffffffffffff161461099d576040517f08c379a00000000000000000000000000000000000000000000000000000000081526004016109949061244b565b60405180910390fd5b60001515600c60009054906101000a900460ff161515146109f3576040517f08c379a00000000000000000000000000000000000000000000000000000000081526004016109ea9061246b565b60405180910390fd5b60006109fd6112f6565b90506000610a0a82611392565b9050610aa4858260055460028054610a21906127ce565b80601f0160208091040260200160405190810160405280929190818152602001828054610a4d906127ce565b8015610a9a5780601f10610a6f57610100808354040283529160200191610a9a565b820191906000526020600020905b815481529060010190602001808311610a7d57829003601f168201915b5050505050611675565b60046000815480929190610ab790612831565b9190505550600a60008673ffffffffffffffffffffffffffffffffffffffff1673ffffffffffffffffffffffffffffffffffffffff168152602001908152602001600020600001819080600181540180825580915050600190039060005260206000200160009091909190915055806002808054610b34906127ce565b80601f0160208091040260200160405190810160405280929190818152602001828054610b60906127ce565b8015610bad5780601f10610b8257610100808354040283529160200191610bad565b820191906000526020600020905b815481529060010190602001808311610b9057829003601f168201915b50505050509050935093505050915091565b606060001515600c60009054906101000a900460ff16151514610c17576040517f08c379a0000000000000000000000000000000000000000000000000000000008152600401610c0e9061246b565b60405180910390fd5b600482108015610c275750600082115b610c66576040517f08c379a0000000000000000000000000000000000000000000000000000000008152600401610c5d9061242b565b60405180910390fd5b6103e860045410610cac576040517f08c379a0000000000000000000000000000000000000000000000000000000008152600401610ca39061248b565b60405180910390fd5b81600654610cba9190612687565b3414610cfb576040517f08c379a0000000000000000000000000000000000000000000000000000000008152600401610cf2906123cb565b60405180910390fd5b60005b82811015610d2f576000610d106112f6565b9050610d1b85610902565b50505080610d2890612831565b9050610cfe565b50610d41610d3b6112ee565b3461180b565b600a60008473ffffffffffffffffffffffffffffffffffffffff1673ffffffffffffffffffffffffffffffffffffffff168152602001908152602001600020600001805480602002602001604051908101604052809291908181526020018280548015610dcd57602002820191906000526020600020905b815481526020019060010190808311610db9575b5050505050905092915050565b6000806000600c60019054906101000a900473ffffffffffffffffffffffffffffffffffffffff1673ffffffffffffffffffffffffffffffffffffffff16610e206112ee565b73ffffffffffffffffffffffffffffffffffffffff1614610e76576040517f08c379a0000000000000000000000000000000000000000000000000000000008152600401610e6d9061244b565b60405180910390fd5b60001515600c60009054906101000a900460ff16151514610ecc576040517f08c379a0000000000000000000000000000000000000000000000000000000008152600401610ec39061246b565b60405180910390fd5b600754600854600954925092509250909192565b6000600c60019054906101000a900473ffffffffffffffffffffffffffffffffffffffff1673ffffffffffffffffffffffffffffffffffffffff16610f236112ee565b73ffffffffffffffffffffffffffffffffffffffff1614610f79576040517f08c379a0000000000000000000000000000000000000000000000000000000008152600401610f709061244b565b60405180910390fd5b60001515600c60009054906101000a900460ff16151514610fcf576040517f08c379a0000000000000000000000000000000000000000000000000000000008152600401610fc69061246b565b60405180910390fd5b600654905090565b600c60019054906101000a900473ffffffffffffffffffffffffffffffffffffffff1673ffffffffffffffffffffffffffffffffffffffff166110186112ee565b73ffffffffffffffffffffffffffffffffffffffff161461106e576040517f08c379a00000000000000000000000000000000000000000000000000000000081526004016110659061244b565b60405180910390fd5b60001515600c60009054906101000a900460ff161515146110c4576040517f08c379a00000000000000000000000000000000000000000000000000000000081526004016110bb9061240b565b60405180910390fd5b6001600c60006101000a81548160ff021916908315150217905550565b600c60019054906101000a900473ffffffffffffffffffffffffffffffffffffffff1681565b600c60019054906101000a900473ffffffffffffffffffffffffffffffffffffffff1673ffffffffffffffffffffffffffffffffffffffff166111486112ee565b73ffffffffffffffffffffffffffffffffffffffff161461119e576040517f08c379a00000000000000000000000000000000000000000000000000000000081526004016111959061244b565b60405180910390fd5b60001515600c60009054906101000a900460ff161515146111f4576040517f08c379a00000000000000000000000000000000000000000000000000000000081526004016111eb9061246b565b60405180910390fd5b8060068190555050565b606060001515600c60009054906101000a900460ff16151514611256576040517f08c379a000000000000000000000000000000000000000000000000000000000815260040161124d9061246b565b60405180910390fd5b600a60008373ffffffffffffffffffffffffffffffffffffffff1673ffffffffffffffffffffffffffffffffffffffff1681526020019081526020016000206000018054806020026020016040519081016040528092919081815260200182805480156112e257602002820191906000526020600020905b8154815260200190600101908083116112ce575b50505050509050919050565b600033905090565b6000806014600754600854600954600454426113129190612600565b61131c9190612600565b6113269190612600565b6113309190612600565b33600c60019054906101000a900473ffffffffffffffffffffffffffffffffffffffff166040516020016113669392919061227a565b6040516020818303038152906040528051906020012060001c61138991906128ba565b90508091505090565b6000801515600c60009054906101000a900460ff161515146113e9576040517f08c379a00000000000000000000000000000000000000000000000000000000081526004016113e09061246b565b60405180910390fd5b6000600383601481106113ff576113fe612978565b5b602091828204019190069054906101000a900460ff1660ff16905060008114801561142c57506032600754105b15611492576007600081548092919061144490612831565b9190505550611454600754611865565b6040516020016114649190612214565b60405160208183030381529060405260029080519060200190611488929190611c42565b5080915050611670565b600181111580156114a557506064600854105b1561150b57600860008154809291906114bd90612831565b91905055506114cd600854611865565b6040516020016114dd9190612236565b60405160208183030381529060405260029080519060200190611501929190611c42565b5080915050611670565b60028111158015611520575061035260095411155b1561159f576009600081548092919061153890612831565b9190505550611548600954611865565b6040516020016115589190612258565b6040516020818303038152906040526002908051906020019061157c929190611c42565b600290805461158a906127ce565b611595929190611cc8565b5080915050611670565b6064600854101561160f5760019050600860008154809291906115c190612831565b91905055506115d1600854611865565b6040516020016115e19190612236565b60405160208183030381529060405260029080519060200190611605929190611c42565b5080915050611670565b600090506007600081548092919061162690612831565b9190505550611636600754611865565b6040516020016116469190612214565b6040516020818303038152906040526002908051906020019061166a929190611c42565b50809150505b919050565b600073ffffffffffffffffffffffffffffffffffffffff168473ffffffffffffffffffffffffffffffffffffffff1614156116e5576040517f08c379a00000000000000000000000000000000000000000000000000000000081526004016116dc906124cb565b60405180910390fd5b60006116ef6112ee565b905061171081600087611701886119c6565b61170a886119c6565b87611a40565b8260008086815260200190815260200160002060008773ffffffffffffffffffffffffffffffffffffffff1673ffffffffffffffffffffffffffffffffffffffff168152602001908152602001600020600082825461176f9190612600565b925050819055508473ffffffffffffffffffffffffffffffffffffffff16600073ffffffffffffffffffffffffffffffffffffffff168273ffffffffffffffffffffffffffffffffffffffff167fc3d58168c5ae7397731d063d5bbf3d657854427343f4c083240f7aacaa2d0f6287876040516117ed929190612536565b60405180910390a461180481600087878787611a48565b5050505050565b80600b60008473ffffffffffffffffffffffffffffffffffffffff1673ffffffffffffffffffffffffffffffffffffffff168152602001908152602001600020600082825461185a9190612600565b925050819055505050565b606060008214156118ad576040518060400160405280600181526020017f300000000000000000000000000000000000000000000000000000000000000081525090506119c1565b600082905060005b600082146118df5780806118c890612831565b915050600a826118d89190612656565b91506118b5565b60008167ffffffffffffffff8111156118fb576118fa6129a7565b5b6040519080825280601f01601f19166020018201604052801561192d5781602001600182028036833780820191505090505b5090505b600085146119ba5760018261194691906126e1565b9150600a8561195591906128ba565b60306119619190612600565b60f81b81838151811061197757611976612978565b5b60200101907effffffffffffffffffffffffffffffffffffffffffffffffffffffffffffff1916908160001a905350600a856119b39190612656565b9450611931565b8093505050505b919050565b60606000600167ffffffffffffffff8111156119e5576119e46129a7565b5b604051908082528060200260200182016040528015611a135781602001602082028036833780820191505090505b5090508281600081518110611a2b57611a2a612978565b5b60200260200101818152505080915050919050565b505050505050565b611a678473ffffffffffffffffffffffffffffffffffffffff16611c2f565b15611c27578373ffffffffffffffffffffffffffffffffffffffff1663ae89a24887878686866040518663ffffffff1660e01b8152600401611aad9594939291906122d2565b602060405180830381600087803b158015611ac757600080fd5b505af1925050508015611af857506040513d601f19601f82011682018060405250810190611af59190611e60565b60015b611b9e57611b046129d6565b806308c379a01415611b615750611b19612cd8565b80611b245750611b63565b806040517f08c379a0000000000000000000000000000000000000000000000000000000008152600401611b589190612369565b60405180910390fd5b505b6040517f08c379a0000000000000000000000000000000000000000000000000000000008152600401611b959061238b565b60405180910390fd5b63ae89a24860e01b7bffffffffffffffffffffffffffffffffffffffffffffffffffffffff1916817bffffffffffffffffffffffffffffffffffffffffffffffffffffffff191614611c25576040517f08c379a0000000000000000000000000000000000000000000000000000000008152600401611c1c906123ab565b60405180910390fd5b505b505050505050565b600080823b905060008111915050919050565b828054611c4e906127ce565b90600052602060002090601f016020900481019282611c705760008555611cb7565b82601f10611c8957805160ff1916838001178555611cb7565b82800160010185558215611cb7579182015b82811115611cb6578251825591602001919060010190611c9b565b5b509050611cc49190611d55565b5090565b828054611cd4906127ce565b90600052602060002090601f016020900481019282611cf65760008555611d44565b82601f10611d075780548555611d44565b82800160010185558215611d4457600052602060002091601f016020900482015b82811115611d43578254825591600101919060010190611d28565b5b509050611d519190611d55565b5090565b5b80821115611d6e576000816000905550600101611d56565b5090565b600081359050611d8181612d6e565b92915050565b600081359050611d9681612d85565b92915050565b600081519050611dab81612d9c565b92915050565b600081359050611dc081612db3565b92915050565b600060208284031215611ddc57611ddb6129f8565b5b6000611dea84828501611d72565b91505092915050565b600060208284031215611e0957611e086129f8565b5b6000611e1784828501611d87565b91505092915050565b60008060408385031215611e3757611e366129f8565b5b6000611e4585828601611d72565b9250506020611e5685828601611db1565b9150509250929050565b600060208284031215611e7657611e756129f8565b5b6000611e8484828501611d9c565b91505092915050565b600060208284031215611ea357611ea26129f8565b5b6000611eb184828501611db1565b91505092915050565b6000611ec683836121df565b60208301905092915050565b611edb81612727565b82525050565b611ef2611eed82612727565b61288c565b82525050565b611f0181612715565b82525050565b611f18611f1382612715565b61287a565b82525050565b6000611f29826125b0565b611f3381856125d3565b9350611f3e836125a0565b8060005b83811015611f6f578151611f568882611eba565b9750611f61836125c6565b925050600181019050611f42565b5085935050505092915050565b611f8581612739565b82525050565b6000611f96826125bb565b611fa081856125e4565b9350611fb081856020860161279b565b611fb9816129fd565b840191505092915050565b6000611fcf826125bb565b611fd981856125f5565b9350611fe981856020860161279b565b80840191505092915050565b60006120026034836125e4565b915061200d82612a28565b604082019050919050565b60006120256028836125e4565b915061203082612a77565b604082019050919050565b60006120486008836125f5565b915061205382612ac6565b600882019050919050565b600061206b6005836125f5565b915061207682612aef565b600582019050919050565b600061208e6012836125e4565b915061209982612b18565b602082019050919050565b60006120b1601b836125e4565b91506120bc82612b41565b602082019050919050565b60006120d4601b836125e4565b91506120df82612b6a565b602082019050919050565b60006120f76015836125e4565b915061210282612b93565b602082019050919050565b600061211a601c836125e4565b915061212582612bbc565b602082019050919050565b600061213d601b836125e4565b915061214882612be5565b602082019050919050565b60006121606019836125e4565b915061216b82612c0e565b602082019050919050565b60006121836007836125f5565b915061218e82612c37565b600782019050919050565b60006121a6601d836125e4565b91506121b182612c60565b602082019050919050565b60006121c96021836125e4565b91506121d482612c89565b604082019050919050565b6121e881612791565b82525050565b6121f781612791565b82525050565b61220e61220982612791565b6128b0565b82525050565b600061221f8261203b565b915061222b8284611fc4565b915081905092915050565b60006122418261205e565b915061224d8284611fc4565b915081905092915050565b600061226382612176565b915061226f8284611fc4565b915081905092915050565b600061228682866121fd565b6020820191506122968285611f07565b6014820191506122a68284611ee1565b601482019150819050949350505050565b60006020820190506122cc6000830184611ed2565b92915050565b600060a0820190506122e76000830188611ef8565b6122f46020830187611ef8565b61230160408301866121ee565b61230e60608301856121ee565b81810360808301526123208184611f8b565b90509695505050505050565b600060208201905081810360008301526123468184611f1e565b905092915050565b60006020820190506123636000830184611f7c565b92915050565b600060208201905081810360008301526123838184611f8b565b905092915050565b600060208201905081810360008301526123a481611ff5565b9050919050565b600060208201905081810360008301526123c481612018565b9050919050565b600060208201905081810360008301526123e481612081565b9050919050565b60006020820190508181036000830152612404816120a4565b9050919050565b60006020820190508181036000830152612424816120c7565b9050919050565b60006020820190508181036000830152612444816120ea565b9050919050565b600060208201905081810360008301526124648161210d565b9050919050565b6000602082019050818103600083015261248481612130565b9050919050565b600060208201905081810360008301526124a481612153565b9050919050565b600060208201905081810360008301526124c481612199565b9050919050565b600060208201905081810360008301526124e4816121bc565b9050919050565b600060208201905061250060008301846121ee565b92915050565b600060408201905061251b60008301856121ee565b818103602083015261252d8184611f8b565b90509392505050565b600060408201905061254b60008301856121ee565b61255860208301846121ee565b9392505050565b600060608201905061257460008301866121ee565b61258160208301856121ee565b61258e60408301846121ee565b949350505050565b6000604051905090565b6000819050602082019050919050565b600081519050919050565b600081519050919050565b6000602082019050919050565b600082825260208201905092915050565b600082825260208201905092915050565b600081905092915050565b600061260b82612791565b915061261683612791565b9250827fffffffffffffffffffffffffffffffffffffffffffffffffffffffffffffffff0382111561264b5761264a6128eb565b5b828201905092915050565b600061266182612791565b915061266c83612791565b92508261267c5761267b61291a565b5b828204905092915050565b600061269282612791565b915061269d83612791565b9250817fffffffffffffffffffffffffffffffffffffffffffffffffffffffffffffffff04831182151516156126d6576126d56128eb565b5b828202905092915050565b60006126ec82612791565b91506126f783612791565b92508282101561270a576127096128eb565b5b828203905092915050565b600061272082612771565b9050919050565b600061273282612771565b9050919050565b60008115159050919050565b60007fffffffff0000000000000000000000000000000000000000000000000000000082169050919050565b600073ffffffffffffffffffffffffffffffffffffffff82169050919050565b6000819050919050565b60005b838110156127b957808201518184015260208101905061279e565b838111156127c8576000848401525b50505050565b600060028204905060018216806127e657607f821691505b602082108114156127fa576127f9612949565b5b50919050565b612809826129fd565b810181811067ffffffffffffffff82111715612828576128276129a7565b5b80604052505050565b600061283c82612791565b91507fffffffffffffffffffffffffffffffffffffffffffffffffffffffffffffffff82141561286f5761286e6128eb565b5b600182019050919050565b60006128858261289e565b9050919050565b60006128978261289e565b9050919050565b60006128a982612a0e565b9050919050565b6000819050919050565b60006128c582612791565b91506128d083612791565b9250826128e0576128df61291a565b5b828206905092915050565b7f4e487b7100000000000000000000000000000000000000000000000000000000600052601160045260246000fd5b7f4e487b7100000000000000000000000000000000000000000000000000000000600052601260045260246000fd5b7f4e487b7100000000000000000000000000000000000000000000000000000000600052602260045260246000fd5b7f4e487b7100000000000000000000000000000000000000000000000000000000600052603260045260246000fd5b7f4e487b7100000000000000000000000000000000000000000000000000000000600052604160045260246000fd5b600060033d11156129f55760046000803e6129f2600051612a1b565b90505b90565b600080fd5b6000601f19601f8301169050919050565b60008160601b9050919050565b60008160e01c9050919050565b7f455243313135353a207472616e7366657220746f206e6f6e204552433131353560008201527f526563656976657220696d706c656d656e746572000000000000000000000000602082015250565b7f455243313135353a204552433131353552656365697665722072656a6563746560008201527f6420746f6b656e73000000000000000000000000000000000000000000000000602082015250565b7f4469616d6f6e645f000000000000000000000000000000000000000000000000600082015250565b7f476f6c645f000000000000000000000000000000000000000000000000000000600082015250565b7f4e6f7420456e6f7567682042616c616e63650000000000000000000000000000600082015250565b7f44726f707369746520697320616c72656164792052756e6e696e670000000000600082015250565b7f44726f707369746520697320616c72656164792053746f707065640000000000600082015250565b7f596f752063616e206d696e7420312d33204e4654730000000000000000000000600082015250565b7f4f6e6c79204e46542d4553204f776e65722063616e2041636365737300000000600082015250565b7f44726f7073697465206973206e6f74204f70656e6564205965742e0000000000600082015250565b7f4d6178204d696e74696e67204c696d6974207265616368656400000000000000600082015250565b7f53696c7665725f00000000000000000000000000000000000000000000000000600082015250565b7f4572726f7221204e6f2042616c616e636520746f207769746864726177000000600082015250565b7f455243313135353a206d696e7420746f20746865207a65726f2061646472657360008201527f7300000000000000000000000000000000000000000000000000000000000000602082015250565b600060443d1015612ce857612d6b565b612cf0612596565b60043d036004823e80513d602482011167ffffffffffffffff82111715612d18575050612d6b565b808201805167ffffffffffffffff811115612d365750505050612d6b565b80602083010160043d038501811115612d53575050505050612d6b565b612d6282602001850186612800565b82955050505050505b90565b612d7781612715565b8114612d8257600080fd5b50565b612d8e81612727565b8114612d9957600080fd5b50565b612da581612745565b8114612db057600080fd5b50565b612dbc81612791565b8114612dc757600080fd5b5056fea26469706673582212208dac008f2cc630ec2b3506917d82d5460c39f0c0ba87504b466f297bedd6c10064736f6c63430008070033",
					"opcodes": "PUSH1 0x80 PUSH1 0x40 MSTORE PUSH1 0x40 MLOAD DUP1 PUSH1 0x20 ADD PUSH1 0x40 MSTORE DUP1 PUSH1 0x0 DUP2 MSTORE POP PUSH1 0x2 SWAP1 DUP1 MLOAD SWAP1 PUSH1 0x20 ADD SWAP1 PUSH3 0x2B SWAP3 SWAP2 SWAP1 PUSH3 0x1E8 JUMP JUMPDEST POP PUSH1 0x40 MLOAD DUP1 PUSH2 0x280 ADD PUSH1 0x40 MSTORE DUP1 PUSH1 0x0 PUSH1 0xFF AND DUP2 MSTORE PUSH1 0x20 ADD PUSH1 0x1 PUSH1 0xFF AND DUP2 MSTORE PUSH1 0x20 ADD PUSH1 0x1 PUSH1 0xFF AND DUP2 MSTORE PUSH1 0x20 ADD PUSH1 0x2 PUSH1 0xFF AND DUP2 MSTORE PUSH1 0x20 ADD PUSH1 0x2 PUSH1 0xFF AND DUP2 MSTORE PUSH1 0x20 ADD PUSH1 0x2 PUSH1 0xFF AND DUP2 MSTORE PUSH1 0x20 ADD PUSH1 0x2 PUSH1 0xFF AND DUP2 MSTORE PUSH1 0x20 ADD PUSH1 0x2 PUSH1 0xFF AND DUP2 MSTORE PUSH1 0x20 ADD PUSH1 0x2 PUSH1 0xFF AND DUP2 MSTORE PUSH1 0x20 ADD PUSH1 0x2 PUSH1 0xFF AND DUP2 MSTORE PUSH1 0x20 ADD PUSH1 0x2 PUSH1 0xFF AND DUP2 MSTORE PUSH1 0x20 ADD PUSH1 0x2 PUSH1 0xFF AND DUP2 MSTORE PUSH1 0x20 ADD PUSH1 0x2 PUSH1 0xFF AND DUP2 MSTORE PUSH1 0x20 ADD PUSH1 0x2 PUSH1 0xFF AND DUP2 MSTORE PUSH1 0x20 ADD PUSH1 0x2 PUSH1 0xFF AND DUP2 MSTORE PUSH1 0x20 ADD PUSH1 0x2 PUSH1 0xFF AND DUP2 MSTORE PUSH1 0x20 ADD PUSH1 0x2 PUSH1 0xFF AND DUP2 MSTORE PUSH1 0x20 ADD PUSH1 0x2 PUSH1 0xFF AND DUP2 MSTORE PUSH1 0x20 ADD PUSH1 0x2 PUSH1 0xFF AND DUP2 MSTORE PUSH1 0x20 ADD PUSH1 0x2 PUSH1 0xFF AND DUP2 MSTORE POP PUSH1 0x3 SWAP1 PUSH1 0x14 PUSH3 0x110 SWAP3 SWAP2 SWAP1 PUSH3 0x279 JUMP JUMPDEST POP PUSH1 0x1 PUSH1 0xC PUSH1 0x0 PUSH2 0x100 EXP DUP2 SLOAD DUP2 PUSH1 0xFF MUL NOT AND SWAP1 DUP4 ISZERO ISZERO MUL OR SWAP1 SSTORE POP CALLVALUE DUP1 ISZERO PUSH3 0x139 JUMPI PUSH1 0x0 DUP1 REVERT JUMPDEST POP PUSH1 0x40 MLOAD PUSH3 0x339C CODESIZE SUB DUP1 PUSH3 0x339C DUP4 CODECOPY DUP2 DUP2 ADD PUSH1 0x40 MSTORE DUP2 ADD SWAP1 PUSH3 0x15F SWAP2 SWAP1 PUSH3 0x3B7 JUMP JUMPDEST DUP1 PUSH1 0xD SWAP1 DUP1 MLOAD SWAP1 PUSH1 0x20 ADD SWAP1 PUSH3 0x177 SWAP3 SWAP2 SWAP1 PUSH3 0x1E8 JUMP JUMPDEST POP CALLER PUSH1 0xC PUSH1 0x1 PUSH2 0x100 EXP DUP2 SLOAD DUP2 PUSH20 0xFFFFFFFFFFFFFFFFFFFFFFFFFFFFFFFFFFFFFFFF MUL NOT AND SWAP1 DUP4 PUSH20 0xFFFFFFFFFFFFFFFFFFFFFFFFFFFFFFFFFFFFFFFF AND MUL OR SWAP1 SSTORE POP PUSH1 0x0 PUSH1 0x4 DUP2 SWAP1 SSTORE POP PUSH1 0x1 PUSH1 0x5 DUP2 SWAP1 SSTORE POP PUSH1 0x0 PUSH1 0x7 DUP2 SWAP1 SSTORE POP PUSH1 0x0 PUSH1 0x8 DUP2 SWAP1 SSTORE POP PUSH1 0x0 PUSH1 0x9 DUP2 SWAP1 SSTORE POP POP PUSH3 0x58C JUMP JUMPDEST DUP3 DUP1 SLOAD PUSH3 0x1F6 SWAP1 PUSH3 0x49D JUMP JUMPDEST SWAP1 PUSH1 0x0 MSTORE PUSH1 0x20 PUSH1 0x0 KECCAK256 SWAP1 PUSH1 0x1F ADD PUSH1 0x20 SWAP1 DIV DUP2 ADD SWAP3 DUP3 PUSH3 0x21A JUMPI PUSH1 0x0 DUP6 SSTORE PUSH3 0x266 JUMP JUMPDEST DUP3 PUSH1 0x1F LT PUSH3 0x235 JUMPI DUP1 MLOAD PUSH1 0xFF NOT AND DUP4 DUP1 ADD OR DUP6 SSTORE PUSH3 0x266 JUMP JUMPDEST DUP3 DUP1 ADD PUSH1 0x1 ADD DUP6 SSTORE DUP3 ISZERO PUSH3 0x266 JUMPI SWAP2 DUP3 ADD JUMPDEST DUP3 DUP2 GT ISZERO PUSH3 0x265 JUMPI DUP3 MLOAD DUP3 SSTORE SWAP2 PUSH1 0x20 ADD SWAP2 SWAP1 PUSH1 0x1 ADD SWAP1 PUSH3 0x248 JUMP JUMPDEST JUMPDEST POP SWAP1 POP PUSH3 0x275 SWAP2 SWAP1 PUSH3 0x31A JUMP JUMPDEST POP SWAP1 JUMP JUMPDEST DUP3 PUSH1 0x14 PUSH1 0x1F ADD PUSH1 0x20 SWAP1 DIV DUP2 ADD SWAP3 DUP3 ISZERO PUSH3 0x307 JUMPI SWAP2 PUSH1 0x20 MUL DUP3 ADD PUSH1 0x0 JUMPDEST DUP4 DUP3 GT ISZERO PUSH3 0x2D6 JUMPI DUP4 MLOAD DUP4 DUP3 PUSH2 0x100 EXP DUP2 SLOAD DUP2 PUSH1 0xFF MUL NOT AND SWAP1 DUP4 PUSH1 0xFF AND MUL OR SWAP1 SSTORE POP SWAP3 PUSH1 0x20 ADD SWAP3 PUSH1 0x1 ADD PUSH1 0x20 DUP2 PUSH1 0x0 ADD DIV SWAP3 DUP4 ADD SWAP3 PUSH1 0x1 SUB MUL PUSH3 0x296 JUMP JUMPDEST DUP1 ISZERO PUSH3 0x305 JUMPI DUP3 DUP2 PUSH2 0x100 EXP DUP2 SLOAD SWAP1 PUSH1 0xFF MUL NOT AND SWAP1 SSTORE PUSH1 0x1 ADD PUSH1 0x20 DUP2 PUSH1 0x0 ADD DIV SWAP3 DUP4 ADD SWAP3 PUSH1 0x1 SUB MUL PUSH3 0x2D6 JUMP JUMPDEST POP JUMPDEST POP SWAP1 POP PUSH3 0x316 SWAP2 SWAP1 PUSH3 0x31A JUMP JUMPDEST POP SWAP1 JUMP JUMPDEST JUMPDEST DUP1 DUP3 GT ISZERO PUSH3 0x335 JUMPI PUSH1 0x0 DUP2 PUSH1 0x0 SWAP1 SSTORE POP PUSH1 0x1 ADD PUSH3 0x31B JUMP JUMPDEST POP SWAP1 JUMP JUMPDEST PUSH1 0x0 PUSH3 0x350 PUSH3 0x34A DUP5 PUSH3 0x431 JUMP JUMPDEST PUSH3 0x408 JUMP JUMPDEST SWAP1 POP DUP3 DUP2 MSTORE PUSH1 0x20 DUP2 ADD DUP5 DUP5 DUP5 ADD GT ISZERO PUSH3 0x36F JUMPI PUSH3 0x36E PUSH3 0x56C JUMP JUMPDEST JUMPDEST PUSH3 0x37C DUP5 DUP3 DUP6 PUSH3 0x467 JUMP JUMPDEST POP SWAP4 SWAP3 POP POP POP JUMP JUMPDEST PUSH1 0x0 DUP3 PUSH1 0x1F DUP4 ADD SLT PUSH3 0x39C JUMPI PUSH3 0x39B PUSH3 0x567 JUMP JUMPDEST JUMPDEST DUP2 MLOAD PUSH3 0x3AE DUP5 DUP3 PUSH1 0x20 DUP7 ADD PUSH3 0x339 JUMP JUMPDEST SWAP2 POP POP SWAP3 SWAP2 POP POP JUMP JUMPDEST PUSH1 0x0 PUSH1 0x20 DUP3 DUP5 SUB SLT ISZERO PUSH3 0x3D0 JUMPI PUSH3 0x3CF PUSH3 0x576 JUMP JUMPDEST JUMPDEST PUSH1 0x0 DUP3 ADD MLOAD PUSH8 0xFFFFFFFFFFFFFFFF DUP2 GT ISZERO PUSH3 0x3F1 JUMPI PUSH3 0x3F0 PUSH3 0x571 JUMP JUMPDEST JUMPDEST PUSH3 0x3FF DUP5 DUP3 DUP6 ADD PUSH3 0x384 JUMP JUMPDEST SWAP2 POP POP SWAP3 SWAP2 POP POP JUMP JUMPDEST PUSH1 0x0 PUSH3 0x414 PUSH3 0x427 JUMP JUMPDEST SWAP1 POP PUSH3 0x422 DUP3 DUP3 PUSH3 0x4D3 JUMP JUMPDEST SWAP2 SWAP1 POP JUMP JUMPDEST PUSH1 0x0 PUSH1 0x40 MLOAD SWAP1 POP SWAP1 JUMP JUMPDEST PUSH1 0x0 PUSH8 0xFFFFFFFFFFFFFFFF DUP3 GT ISZERO PUSH3 0x44F JUMPI PUSH3 0x44E PUSH3 0x538 JUMP JUMPDEST JUMPDEST PUSH3 0x45A DUP3 PUSH3 0x57B JUMP JUMPDEST SWAP1 POP PUSH1 0x20 DUP2 ADD SWAP1 POP SWAP2 SWAP1 POP JUMP JUMPDEST PUSH1 0x0 JUMPDEST DUP4 DUP2 LT ISZERO PUSH3 0x487 JUMPI DUP1 DUP3 ADD MLOAD DUP2 DUP5 ADD MSTORE PUSH1 0x20 DUP2 ADD SWAP1 POP PUSH3 0x46A JUMP JUMPDEST DUP4 DUP2 GT ISZERO PUSH3 0x497 JUMPI PUSH1 0x0 DUP5 DUP5 ADD MSTORE JUMPDEST POP POP POP POP JUMP JUMPDEST PUSH1 0x0 PUSH1 0x2 DUP3 DIV SWAP1 POP PUSH1 0x1 DUP3 AND DUP1 PUSH3 0x4B6 JUMPI PUSH1 0x7F DUP3 AND SWAP2 POP JUMPDEST PUSH1 0x20 DUP3 LT DUP2 EQ ISZERO PUSH3 0x4CD JUMPI PUSH3 0x4CC PUSH3 0x509 JUMP JUMPDEST JUMPDEST POP SWAP2 SWAP1 POP JUMP JUMPDEST PUSH3 0x4DE DUP3 PUSH3 0x57B JUMP JUMPDEST DUP2 ADD DUP2 DUP2 LT PUSH8 0xFFFFFFFFFFFFFFFF DUP3 GT OR ISZERO PUSH3 0x500 JUMPI PUSH3 0x4FF PUSH3 0x538 JUMP JUMPDEST JUMPDEST DUP1 PUSH1 0x40 MSTORE POP POP POP JUMP JUMPDEST PUSH32 0x4E487B7100000000000000000000000000000000000000000000000000000000 PUSH1 0x0 MSTORE PUSH1 0x22 PUSH1 0x4 MSTORE PUSH1 0x24 PUSH1 0x0 REVERT JUMPDEST PUSH32 0x4E487B7100000000000000000000000000000000000000000000000000000000 PUSH1 0x0 MSTORE PUSH1 0x41 PUSH1 0x4 MSTORE PUSH1 0x24 PUSH1 0x0 REVERT JUMPDEST PUSH1 0x0 DUP1 REVERT JUMPDEST PUSH1 0x0 DUP1 REVERT JUMPDEST PUSH1 0x0 DUP1 REVERT JUMPDEST PUSH1 0x0 DUP1 REVERT JUMPDEST PUSH1 0x0 PUSH1 0x1F NOT PUSH1 0x1F DUP4 ADD AND SWAP1 POP SWAP2 SWAP1 POP JUMP JUMPDEST PUSH2 0x2E00 DUP1 PUSH3 0x59C PUSH1 0x0 CODECOPY PUSH1 0x0 RETURN INVALID PUSH1 0x80 PUSH1 0x40 MSTORE PUSH1 0x4 CALLDATASIZE LT PUSH2 0xDD JUMPI PUSH1 0x0 CALLDATALOAD PUSH1 0xE0 SHR DUP1 PUSH4 0x59BA3124 GT PUSH2 0x7F JUMPI DUP1 PUSH4 0xAA90C726 GT PUSH2 0x59 JUMPI DUP1 PUSH4 0xAA90C726 EQ PUSH2 0x28C JUMPI DUP1 PUSH4 0xB4A99A4E EQ PUSH2 0x2A3 JUMPI DUP1 PUSH4 0xEDDD0D9C EQ PUSH2 0x2CE JUMPI DUP1 PUSH4 0xFD6C3B1B EQ PUSH2 0x2F7 JUMPI PUSH2 0xDD JUMP JUMPDEST DUP1 PUSH4 0x59BA3124 EQ PUSH2 0x204 JUMPI DUP1 PUSH4 0x60DAA851 EQ PUSH2 0x234 JUMPI DUP1 PUSH4 0x7A5CAAB3 EQ PUSH2 0x261 JUMPI PUSH2 0xDD JUMP JUMPDEST DUP1 PUSH4 0x15460259 GT PUSH2 0xBB JUMPI DUP1 PUSH4 0x15460259 EQ PUSH2 0x154 JUMPI DUP1 PUSH4 0x27A8A072 EQ PUSH2 0x16B JUMPI DUP1 PUSH4 0x3B668059 EQ PUSH2 0x1A8 JUMPI DUP1 PUSH4 0x546FD992 EQ PUSH2 0x1D3 JUMPI PUSH2 0xDD JUMP JUMPDEST DUP1 PUSH4 0x390C11C EQ PUSH2 0xE2 JUMPI DUP1 PUSH4 0xA67D2C7 EQ PUSH2 0x10D JUMPI DUP1 PUSH4 0x1309A563 EQ PUSH2 0x129 JUMPI JUMPDEST PUSH1 0x0 DUP1 REVERT JUMPDEST CALLVALUE DUP1 ISZERO PUSH2 0xEE JUMPI PUSH1 0x0 DUP1 REVERT JUMPDEST POP PUSH2 0xF7 PUSH2 0x334 JUMP JUMPDEST PUSH1 0x40 MLOAD PUSH2 0x104 SWAP2 SWAP1 PUSH2 0x24EB JUMP JUMPDEST PUSH1 0x40 MLOAD DUP1 SWAP2 SUB SWAP1 RETURN JUMPDEST PUSH2 0x127 PUSH1 0x4 DUP1 CALLDATASIZE SUB DUP2 ADD SWAP1 PUSH2 0x122 SWAP2 SWAP1 PUSH2 0x1DF3 JUMP JUMPDEST PUSH2 0x3D5 JUMP JUMPDEST STOP JUMPDEST CALLVALUE DUP1 ISZERO PUSH2 0x135 JUMPI PUSH1 0x0 DUP1 REVERT JUMPDEST POP PUSH2 0x13E PUSH2 0x4FF JUMP JUMPDEST PUSH1 0x40 MLOAD PUSH2 0x14B SWAP2 SWAP1 PUSH2 0x234E JUMP JUMPDEST PUSH1 0x40 MLOAD DUP1 SWAP2 SUB SWAP1 RETURN JUMPDEST CALLVALUE DUP1 ISZERO PUSH2 0x160 JUMPI PUSH1 0x0 DUP1 REVERT JUMPDEST POP PUSH2 0x169 PUSH2 0x512 JUMP JUMPDEST STOP JUMPDEST CALLVALUE DUP1 ISZERO PUSH2 0x177 JUMPI PUSH1 0x0 DUP1 REVERT JUMPDEST POP PUSH2 0x192 PUSH1 0x4 DUP1 CALLDATASIZE SUB DUP2 ADD SWAP1 PUSH2 0x18D SWAP2 SWAP1 PUSH2 0x1E20 JUMP JUMPDEST PUSH2 0x61C JUMP JUMPDEST PUSH1 0x40 MLOAD PUSH2 0x19F SWAP2 SWAP1 PUSH2 0x232C JUMP JUMPDEST PUSH1 0x40 MLOAD DUP1 SWAP2 SUB SWAP1 RETURN JUMPDEST CALLVALUE DUP1 ISZERO PUSH2 0x1B4 JUMPI PUSH1 0x0 DUP1 REVERT JUMPDEST POP PUSH2 0x1BD PUSH2 0x863 JUMP JUMPDEST PUSH1 0x40 MLOAD PUSH2 0x1CA SWAP2 SWAP1 PUSH2 0x24EB JUMP JUMPDEST PUSH1 0x40 MLOAD DUP1 SWAP2 SUB SWAP1 RETURN JUMPDEST PUSH2 0x1ED PUSH1 0x4 DUP1 CALLDATASIZE SUB DUP2 ADD SWAP1 PUSH2 0x1E8 SWAP2 SWAP1 PUSH2 0x1DC6 JUMP JUMPDEST PUSH2 0x902 JUMP JUMPDEST PUSH1 0x40 MLOAD PUSH2 0x1FB SWAP3 SWAP2 SWAP1 PUSH2 0x2506 JUMP JUMPDEST PUSH1 0x40 MLOAD DUP1 SWAP2 SUB SWAP1 RETURN JUMPDEST PUSH2 0x21E PUSH1 0x4 DUP1 CALLDATASIZE SUB DUP2 ADD SWAP1 PUSH2 0x219 SWAP2 SWAP1 PUSH2 0x1E20 JUMP JUMPDEST PUSH2 0xBBF JUMP JUMPDEST PUSH1 0x40 MLOAD PUSH2 0x22B SWAP2 SWAP1 PUSH2 0x232C JUMP JUMPDEST PUSH1 0x40 MLOAD DUP1 SWAP2 SUB SWAP1 RETURN JUMPDEST CALLVALUE DUP1 ISZERO PUSH2 0x240 JUMPI PUSH1 0x0 DUP1 REVERT JUMPDEST POP PUSH2 0x249 PUSH2 0xDDA JUMP JUMPDEST PUSH1 0x40 MLOAD PUSH2 0x258 SWAP4 SWAP3 SWAP2 SWAP1 PUSH2 0x255F JUMP JUMPDEST PUSH1 0x40 MLOAD DUP1 SWAP2 SUB SWAP1 RETURN JUMPDEST CALLVALUE DUP1 ISZERO PUSH2 0x26D JUMPI PUSH1 0x0 DUP1 REVERT JUMPDEST POP PUSH2 0x276 PUSH2 0xEE0 JUMP JUMPDEST PUSH1 0x40 MLOAD PUSH2 0x283 SWAP2 SWAP1 PUSH2 0x24EB JUMP JUMPDEST PUSH1 0x40 MLOAD DUP1 SWAP2 SUB SWAP1 RETURN JUMPDEST CALLVALUE DUP1 ISZERO PUSH2 0x298 JUMPI PUSH1 0x0 DUP1 REVERT JUMPDEST POP PUSH2 0x2A1 PUSH2 0xFD7 JUMP JUMPDEST STOP JUMPDEST CALLVALUE DUP1 ISZERO PUSH2 0x2AF JUMPI PUSH1 0x0 DUP1 REVERT JUMPDEST POP PUSH2 0x2B8 PUSH2 0x10E1 JUMP JUMPDEST PUSH1 0x40 MLOAD PUSH2 0x2C5 SWAP2 SWAP1 PUSH2 0x22B7 JUMP JUMPDEST PUSH1 0x40 MLOAD DUP1 SWAP2 SUB SWAP1 RETURN JUMPDEST CALLVALUE DUP1 ISZERO PUSH2 0x2DA JUMPI PUSH1 0x0 DUP1 REVERT JUMPDEST POP PUSH2 0x2F5 PUSH1 0x4 DUP1 CALLDATASIZE SUB DUP2 ADD SWAP1 PUSH2 0x2F0 SWAP2 SWAP1 PUSH2 0x1E8D JUMP JUMPDEST PUSH2 0x1107 JUMP JUMPDEST STOP JUMPDEST CALLVALUE DUP1 ISZERO PUSH2 0x303 JUMPI PUSH1 0x0 DUP1 REVERT JUMPDEST POP PUSH2 0x31E PUSH1 0x4 DUP1 CALLDATASIZE SUB DUP2 ADD SWAP1 PUSH2 0x319 SWAP2 SWAP1 PUSH2 0x1DC6 JUMP JUMPDEST PUSH2 0x11FE JUMP JUMPDEST PUSH1 0x40 MLOAD PUSH2 0x32B SWAP2 SWAP1 PUSH2 0x232C JUMP JUMPDEST PUSH1 0x40 MLOAD DUP1 SWAP2 SUB SWAP1 RETURN JUMPDEST PUSH1 0x0 PUSH1 0xC PUSH1 0x1 SWAP1 SLOAD SWAP1 PUSH2 0x100 EXP SWAP1 DIV PUSH20 0xFFFFFFFFFFFFFFFFFFFFFFFFFFFFFFFFFFFFFFFF AND PUSH20 0xFFFFFFFFFFFFFFFFFFFFFFFFFFFFFFFFFFFFFFFF AND PUSH2 0x377 PUSH2 0x12EE JUMP JUMPDEST PUSH20 0xFFFFFFFFFFFFFFFFFFFFFFFFFFFFFFFFFFFFFFFF AND EQ PUSH2 0x3CD JUMPI PUSH1 0x40 MLOAD PUSH32 0x8C379A000000000000000000000000000000000000000000000000000000000 DUP2 MSTORE PUSH1 0x4 ADD PUSH2 0x3C4 SWAP1 PUSH2 0x244B JUMP JUMPDEST PUSH1 0x40 MLOAD DUP1 SWAP2 SUB SWAP1 REVERT JUMPDEST PUSH1 0x4 SLOAD SWAP1 POP SWAP1 JUMP JUMPDEST PUSH1 0xC PUSH1 0x1 SWAP1 SLOAD SWAP1 PUSH2 0x100 EXP SWAP1 DIV PUSH20 0xFFFFFFFFFFFFFFFFFFFFFFFFFFFFFFFFFFFFFFFF AND PUSH20 0xFFFFFFFFFFFFFFFFFFFFFFFFFFFFFFFFFFFFFFFF AND PUSH2 0x416 PUSH2 0x12EE JUMP JUMPDEST PUSH20 0xFFFFFFFFFFFFFFFFFFFFFFFFFFFFFFFFFFFFFFFF AND EQ PUSH2 0x46C JUMPI PUSH1 0x40 MLOAD PUSH32 0x8C379A000000000000000000000000000000000000000000000000000000000 DUP2 MSTORE PUSH1 0x4 ADD PUSH2 0x463 SWAP1 PUSH2 0x244B JUMP JUMPDEST PUSH1 0x40 MLOAD DUP1 SWAP2 SUB SWAP1 REVERT JUMPDEST PUSH1 0x0 SELFBALANCE SWAP1 POP PUSH1 0x0 DUP2 GT PUSH2 0x4B4 JUMPI PUSH1 0x40 MLOAD PUSH32 0x8C379A000000000000000000000000000000000000000000000000000000000 DUP2 MSTORE PUSH1 0x4 ADD PUSH2 0x4AB SWAP1 PUSH2 0x24AB JUMP JUMPDEST PUSH1 0x40 MLOAD DUP1 SWAP2 SUB SWAP1 REVERT JUMPDEST DUP2 PUSH20 0xFFFFFFFFFFFFFFFFFFFFFFFFFFFFFFFFFFFFFFFF AND PUSH2 0x8FC DUP3 SWAP1 DUP2 ISZERO MUL SWAP1 PUSH1 0x40 MLOAD PUSH1 0x0 PUSH1 0x40 MLOAD DUP1 DUP4 SUB DUP2 DUP6 DUP9 DUP9 CALL SWAP4 POP POP POP POP ISZERO DUP1 ISZERO PUSH2 0x4FA JUMPI RETURNDATASIZE PUSH1 0x0 DUP1 RETURNDATACOPY RETURNDATASIZE PUSH1 0x0 REVERT JUMPDEST POP POP POP JUMP JUMPDEST PUSH1 0xC PUSH1 0x0 SWAP1 SLOAD SWAP1 PUSH2 0x100 EXP SWAP1 DIV PUSH1 0xFF AND DUP2 JUMP JUMPDEST PUSH1 0xC PUSH1 0x1 SWAP1 SLOAD SWAP1 PUSH2 0x100 EXP SWAP1 DIV PUSH20 0xFFFFFFFFFFFFFFFFFFFFFFFFFFFFFFFFFFFFFFFF AND PUSH20 0xFFFFFFFFFFFFFFFFFFFFFFFFFFFFFFFFFFFFFFFF AND PUSH2 0x553 PUSH2 0x12EE JUMP JUMPDEST PUSH20 0xFFFFFFFFFFFFFFFFFFFFFFFFFFFFFFFFFFFFFFFF AND EQ PUSH2 0x5A9 JUMPI PUSH1 0x40 MLOAD PUSH32 0x8C379A000000000000000000000000000000000000000000000000000000000 DUP2 MSTORE PUSH1 0x4 ADD PUSH2 0x5A0 SWAP1 PUSH2 0x244B JUMP JUMPDEST PUSH1 0x40 MLOAD DUP1 SWAP2 SUB SWAP1 REVERT JUMPDEST PUSH1 0x1 ISZERO ISZERO PUSH1 0xC PUSH1 0x0 SWAP1 SLOAD SWAP1 PUSH2 0x100 EXP SWAP1 DIV PUSH1 0xFF AND ISZERO ISZERO EQ PUSH2 0x5FF JUMPI PUSH1 0x40 MLOAD PUSH32 0x8C379A000000000000000000000000000000000000000000000000000000000 DUP2 MSTORE PUSH1 0x4 ADD PUSH2 0x5F6 SWAP1 PUSH2 0x23EB JUMP JUMPDEST PUSH1 0x40 MLOAD DUP1 SWAP2 SUB SWAP1 REVERT JUMPDEST PUSH1 0x0 PUSH1 0xC PUSH1 0x0 PUSH2 0x100 EXP DUP2 SLOAD DUP2 PUSH1 0xFF MUL NOT AND SWAP1 DUP4 ISZERO ISZERO MUL OR SWAP1 SSTORE POP JUMP JUMPDEST PUSH1 0x60 PUSH1 0xC PUSH1 0x1 SWAP1 SLOAD SWAP1 PUSH2 0x100 EXP SWAP1 DIV PUSH20 0xFFFFFFFFFFFFFFFFFFFFFFFFFFFFFFFFFFFFFFFF AND PUSH20 0xFFFFFFFFFFFFFFFFFFFFFFFFFFFFFFFFFFFFFFFF AND PUSH2 0x65F PUSH2 0x12EE JUMP JUMPDEST PUSH20 0xFFFFFFFFFFFFFFFFFFFFFFFFFFFFFFFFFFFFFFFF AND EQ PUSH2 0x6B5 JUMPI PUSH1 0x40 MLOAD PUSH32 0x8C379A000000000000000000000000000000000000000000000000000000000 DUP2 MSTORE PUSH1 0x4 ADD PUSH2 0x6AC SWAP1 PUSH2 0x244B JUMP JUMPDEST PUSH1 0x40 MLOAD DUP1 SWAP2 SUB SWAP1 REVERT JUMPDEST PUSH1 0x0 ISZERO ISZERO PUSH1 0xC PUSH1 0x0 SWAP1 SLOAD SWAP1 PUSH2 0x100 EXP SWAP1 DIV PUSH1 0xFF AND ISZERO ISZERO EQ PUSH2 0x70B JUMPI PUSH1 0x40 MLOAD PUSH32 0x8C379A000000000000000000000000000000000000000000000000000000000 DUP2 MSTORE PUSH1 0x4 ADD PUSH2 0x702 SWAP1 PUSH2 0x246B JUMP JUMPDEST PUSH1 0x40 MLOAD DUP1 SWAP2 SUB SWAP1 REVERT JUMPDEST PUSH1 0x4 DUP3 LT DUP1 ISZERO PUSH2 0x71B JUMPI POP PUSH1 0x0 DUP3 GT JUMPDEST PUSH2 0x75A JUMPI PUSH1 0x40 MLOAD PUSH32 0x8C379A000000000000000000000000000000000000000000000000000000000 DUP2 MSTORE PUSH1 0x4 ADD PUSH2 0x751 SWAP1 PUSH2 0x242B JUMP JUMPDEST PUSH1 0x40 MLOAD DUP1 SWAP2 SUB SWAP1 REVERT JUMPDEST PUSH2 0x3E8 PUSH1 0x4 SLOAD LT PUSH2 0x7A0 JUMPI PUSH1 0x40 MLOAD PUSH32 0x8C379A000000000000000000000000000000000000000000000000000000000 DUP2 MSTORE PUSH1 0x4 ADD PUSH2 0x797 SWAP1 PUSH2 0x248B JUMP JUMPDEST PUSH1 0x40 MLOAD DUP1 SWAP2 SUB SWAP1 REVERT JUMPDEST PUSH1 0x0 JUMPDEST DUP3 DUP2 LT ISZERO PUSH2 0x7C9 JUMPI PUSH2 0x7B4 DUP5 PUSH2 0x902 JUMP JUMPDEST POP POP DUP1 DUP1 PUSH2 0x7C1 SWAP1 PUSH2 0x2831 JUMP JUMPDEST SWAP2 POP POP PUSH2 0x7A3 JUMP JUMPDEST POP PUSH1 0xA PUSH1 0x0 DUP5 PUSH20 0xFFFFFFFFFFFFFFFFFFFFFFFFFFFFFFFFFFFFFFFF AND PUSH20 0xFFFFFFFFFFFFFFFFFFFFFFFFFFFFFFFFFFFFFFFF AND DUP2 MSTORE PUSH1 0x20 ADD SWAP1 DUP2 MSTORE PUSH1 0x20 ADD PUSH1 0x0 KECCAK256 PUSH1 0x0 ADD DUP1 SLOAD DUP1 PUSH1 0x20 MUL PUSH1 0x20 ADD PUSH1 0x40 MLOAD SWAP1 DUP2 ADD PUSH1 0x40 MSTORE DUP1 SWAP3 SWAP2 SWAP1 DUP2 DUP2 MSTORE PUSH1 0x20 ADD DUP3 DUP1 SLOAD DUP1 ISZERO PUSH2 0x856 JUMPI PUSH1 0x20 MUL DUP3 ADD SWAP2 SWAP1 PUSH1 0x0 MSTORE PUSH1 0x20 PUSH1 0x0 KECCAK256 SWAP1 JUMPDEST DUP2 SLOAD DUP2 MSTORE PUSH1 0x20 ADD SWAP1 PUSH1 0x1 ADD SWAP1 DUP1 DUP4 GT PUSH2 0x842 JUMPI JUMPDEST POP POP POP POP POP SWAP1 POP SWAP3 SWAP2 POP POP JUMP JUMPDEST PUSH1 0x0 PUSH1 0xC PUSH1 0x1 SWAP1 SLOAD SWAP1 PUSH2 0x100 EXP SWAP1 DIV PUSH20 0xFFFFFFFFFFFFFFFFFFFFFFFFFFFFFFFFFFFFFFFF AND PUSH20 0xFFFFFFFFFFFFFFFFFFFFFFFFFFFFFFFFFFFFFFFF AND PUSH2 0x8A6 PUSH2 0x12EE JUMP JUMPDEST PUSH20 0xFFFFFFFFFFFFFFFFFFFFFFFFFFFFFFFFFFFFFFFF AND EQ PUSH2 0x8FC JUMPI PUSH1 0x40 MLOAD PUSH32 0x8C379A000000000000000000000000000000000000000000000000000000000 DUP2 MSTORE PUSH1 0x4 ADD PUSH2 0x8F3 SWAP1 PUSH2 0x244B JUMP JUMPDEST PUSH1 0x40 MLOAD DUP1 SWAP2 SUB SWAP1 REVERT JUMPDEST SELFBALANCE SWAP1 POP SWAP1 JUMP JUMPDEST PUSH1 0x0 PUSH1 0x60 PUSH1 0xC PUSH1 0x1 SWAP1 SLOAD SWAP1 PUSH2 0x100 EXP SWAP1 DIV PUSH20 0xFFFFFFFFFFFFFFFFFFFFFFFFFFFFFFFFFFFFFFFF AND PUSH20 0xFFFFFFFFFFFFFFFFFFFFFFFFFFFFFFFFFFFFFFFF AND PUSH2 0x947 PUSH2 0x12EE JUMP JUMPDEST PUSH20 0xFFFFFFFFFFFFFFFFFFFFFFFFFFFFFFFFFFFFFFFF AND EQ PUSH2 0x99D JUMPI PUSH1 0x40 MLOAD PUSH32 0x8C379A000000000000000000000000000000000000000000000000000000000 DUP2 MSTORE PUSH1 0x4 ADD PUSH2 0x994 SWAP1 PUSH2 0x244B JUMP JUMPDEST PUSH1 0x40 MLOAD DUP1 SWAP2 SUB SWAP1 REVERT JUMPDEST PUSH1 0x0 ISZERO ISZERO PUSH1 0xC PUSH1 0x0 SWAP1 SLOAD SWAP1 PUSH2 0x100 EXP SWAP1 DIV PUSH1 0xFF AND ISZERO ISZERO EQ PUSH2 0x9F3 JUMPI PUSH1 0x40 MLOAD PUSH32 0x8C379A000000000000000000000000000000000000000000000000000000000 DUP2 MSTORE PUSH1 0x4 ADD PUSH2 0x9EA SWAP1 PUSH2 0x246B JUMP JUMPDEST PUSH1 0x40 MLOAD DUP1 SWAP2 SUB SWAP1 REVERT JUMPDEST PUSH1 0x0 PUSH2 0x9FD PUSH2 0x12F6 JUMP JUMPDEST SWAP1 POP PUSH1 0x0 PUSH2 0xA0A DUP3 PUSH2 0x1392 JUMP JUMPDEST SWAP1 POP PUSH2 0xAA4 DUP6 DUP3 PUSH1 0x5 SLOAD PUSH1 0x2 DUP1 SLOAD PUSH2 0xA21 SWAP1 PUSH2 0x27CE JUMP JUMPDEST DUP1 PUSH1 0x1F ADD PUSH1 0x20 DUP1 SWAP2 DIV MUL PUSH1 0x20 ADD PUSH1 0x40 MLOAD SWAP1 DUP2 ADD PUSH1 0x40 MSTORE DUP1 SWAP3 SWAP2 SWAP1 DUP2 DUP2 MSTORE PUSH1 0x20 ADD DUP3 DUP1 SLOAD PUSH2 0xA4D SWAP1 PUSH2 0x27CE JUMP JUMPDEST DUP1 ISZERO PUSH2 0xA9A JUMPI DUP1 PUSH1 0x1F LT PUSH2 0xA6F JUMPI PUSH2 0x100 DUP1 DUP4 SLOAD DIV MUL DUP4 MSTORE SWAP2 PUSH1 0x20 ADD SWAP2 PUSH2 0xA9A JUMP JUMPDEST DUP3 ADD SWAP2 SWAP1 PUSH1 0x0 MSTORE PUSH1 0x20 PUSH1 0x0 KECCAK256 SWAP1 JUMPDEST DUP2 SLOAD DUP2 MSTORE SWAP1 PUSH1 0x1 ADD SWAP1 PUSH1 0x20 ADD DUP1 DUP4 GT PUSH2 0xA7D JUMPI DUP3 SWAP1 SUB PUSH1 0x1F AND DUP3 ADD SWAP2 JUMPDEST POP POP POP POP POP PUSH2 0x1675 JUMP JUMPDEST PUSH1 0x4 PUSH1 0x0 DUP2 SLOAD DUP1 SWAP3 SWAP2 SWAP1 PUSH2 0xAB7 SWAP1 PUSH2 0x2831 JUMP JUMPDEST SWAP2 SWAP1 POP SSTORE POP PUSH1 0xA PUSH1 0x0 DUP7 PUSH20 0xFFFFFFFFFFFFFFFFFFFFFFFFFFFFFFFFFFFFFFFF AND PUSH20 0xFFFFFFFFFFFFFFFFFFFFFFFFFFFFFFFFFFFFFFFF AND DUP2 MSTORE PUSH1 0x20 ADD SWAP1 DUP2 MSTORE PUSH1 0x20 ADD PUSH1 0x0 KECCAK256 PUSH1 0x0 ADD DUP2 SWAP1 DUP1 PUSH1 0x1 DUP2 SLOAD ADD DUP1 DUP3 SSTORE DUP1 SWAP2 POP POP PUSH1 0x1 SWAP1 SUB SWAP1 PUSH1 0x0 MSTORE PUSH1 0x20 PUSH1 0x0 KECCAK256 ADD PUSH1 0x0 SWAP1 SWAP2 SWAP1 SWAP2 SWAP1 SWAP2 POP SSTORE DUP1 PUSH1 0x2 DUP1 DUP1 SLOAD PUSH2 0xB34 SWAP1 PUSH2 0x27CE JUMP JUMPDEST DUP1 PUSH1 0x1F ADD PUSH1 0x20 DUP1 SWAP2 DIV MUL PUSH1 0x20 ADD PUSH1 0x40 MLOAD SWAP1 DUP2 ADD PUSH1 0x40 MSTORE DUP1 SWAP3 SWAP2 SWAP1 DUP2 DUP2 MSTORE PUSH1 0x20 ADD DUP3 DUP1 SLOAD PUSH2 0xB60 SWAP1 PUSH2 0x27CE JUMP JUMPDEST DUP1 ISZERO PUSH2 0xBAD JUMPI DUP1 PUSH1 0x1F LT PUSH2 0xB82 JUMPI PUSH2 0x100 DUP1 DUP4 SLOAD DIV MUL DUP4 MSTORE SWAP2 PUSH1 0x20 ADD SWAP2 PUSH2 0xBAD JUMP JUMPDEST DUP3 ADD SWAP2 SWAP1 PUSH1 0x0 MSTORE PUSH1 0x20 PUSH1 0x0 KECCAK256 SWAP1 JUMPDEST DUP2 SLOAD DUP2 MSTORE SWAP1 PUSH1 0x1 ADD SWAP1 PUSH1 0x20 ADD DUP1 DUP4 GT PUSH2 0xB90 JUMPI DUP3 SWAP1 SUB PUSH1 0x1F AND DUP3 ADD SWAP2 JUMPDEST POP POP POP POP POP SWAP1 POP SWAP4 POP SWAP4 POP POP POP SWAP2 POP SWAP2 JUMP JUMPDEST PUSH1 0x60 PUSH1 0x0 ISZERO ISZERO PUSH1 0xC PUSH1 0x0 SWAP1 SLOAD SWAP1 PUSH2 0x100 EXP SWAP1 DIV PUSH1 0xFF AND ISZERO ISZERO EQ PUSH2 0xC17 JUMPI PUSH1 0x40 MLOAD PUSH32 0x8C379A000000000000000000000000000000000000000000000000000000000 DUP2 MSTORE PUSH1 0x4 ADD PUSH2 0xC0E SWAP1 PUSH2 0x246B JUMP JUMPDEST PUSH1 0x40 MLOAD DUP1 SWAP2 SUB SWAP1 REVERT JUMPDEST PUSH1 0x4 DUP3 LT DUP1 ISZERO PUSH2 0xC27 JUMPI POP PUSH1 0x0 DUP3 GT JUMPDEST PUSH2 0xC66 JUMPI PUSH1 0x40 MLOAD PUSH32 0x8C379A000000000000000000000000000000000000000000000000000000000 DUP2 MSTORE PUSH1 0x4 ADD PUSH2 0xC5D SWAP1 PUSH2 0x242B JUMP JUMPDEST PUSH1 0x40 MLOAD DUP1 SWAP2 SUB SWAP1 REVERT JUMPDEST PUSH2 0x3E8 PUSH1 0x4 SLOAD LT PUSH2 0xCAC JUMPI PUSH1 0x40 MLOAD PUSH32 0x8C379A000000000000000000000000000000000000000000000000000000000 DUP2 MSTORE PUSH1 0x4 ADD PUSH2 0xCA3 SWAP1 PUSH2 0x248B JUMP JUMPDEST PUSH1 0x40 MLOAD DUP1 SWAP2 SUB SWAP1 REVERT JUMPDEST DUP2 PUSH1 0x6 SLOAD PUSH2 0xCBA SWAP2 SWAP1 PUSH2 0x2687 JUMP JUMPDEST CALLVALUE EQ PUSH2 0xCFB JUMPI PUSH1 0x40 MLOAD PUSH32 0x8C379A000000000000000000000000000000000000000000000000000000000 DUP2 MSTORE PUSH1 0x4 ADD PUSH2 0xCF2 SWAP1 PUSH2 0x23CB JUMP JUMPDEST PUSH1 0x40 MLOAD DUP1 SWAP2 SUB SWAP1 REVERT JUMPDEST PUSH1 0x0 JUMPDEST DUP3 DUP2 LT ISZERO PUSH2 0xD2F JUMPI PUSH1 0x0 PUSH2 0xD10 PUSH2 0x12F6 JUMP JUMPDEST SWAP1 POP PUSH2 0xD1B DUP6 PUSH2 0x902 JUMP JUMPDEST POP POP POP DUP1 PUSH2 0xD28 SWAP1 PUSH2 0x2831 JUMP JUMPDEST SWAP1 POP PUSH2 0xCFE JUMP JUMPDEST POP PUSH2 0xD41 PUSH2 0xD3B PUSH2 0x12EE JUMP JUMPDEST CALLVALUE PUSH2 0x180B JUMP JUMPDEST PUSH1 0xA PUSH1 0x0 DUP5 PUSH20 0xFFFFFFFFFFFFFFFFFFFFFFFFFFFFFFFFFFFFFFFF AND PUSH20 0xFFFFFFFFFFFFFFFFFFFFFFFFFFFFFFFFFFFFFFFF AND DUP2 MSTORE PUSH1 0x20 ADD SWAP1 DUP2 MSTORE PUSH1 0x20 ADD PUSH1 0x0 KECCAK256 PUSH1 0x0 ADD DUP1 SLOAD DUP1 PUSH1 0x20 MUL PUSH1 0x20 ADD PUSH1 0x40 MLOAD SWAP1 DUP2 ADD PUSH1 0x40 MSTORE DUP1 SWAP3 SWAP2 SWAP1 DUP2 DUP2 MSTORE PUSH1 0x20 ADD DUP3 DUP1 SLOAD DUP1 ISZERO PUSH2 0xDCD JUMPI PUSH1 0x20 MUL DUP3 ADD SWAP2 SWAP1 PUSH1 0x0 MSTORE PUSH1 0x20 PUSH1 0x0 KECCAK256 SWAP1 JUMPDEST DUP2 SLOAD DUP2 MSTORE PUSH1 0x20 ADD SWAP1 PUSH1 0x1 ADD SWAP1 DUP1 DUP4 GT PUSH2 0xDB9 JUMPI JUMPDEST POP POP POP POP POP SWAP1 POP SWAP3 SWAP2 POP POP JUMP JUMPDEST PUSH1 0x0 DUP1 PUSH1 0x0 PUSH1 0xC PUSH1 0x1 SWAP1 SLOAD SWAP1 PUSH2 0x100 EXP SWAP1 DIV PUSH20 0xFFFFFFFFFFFFFFFFFFFFFFFFFFFFFFFFFFFFFFFF AND PUSH20 0xFFFFFFFFFFFFFFFFFFFFFFFFFFFFFFFFFFFFFFFF AND PUSH2 0xE20 PUSH2 0x12EE JUMP JUMPDEST PUSH20 0xFFFFFFFFFFFFFFFFFFFFFFFFFFFFFFFFFFFFFFFF AND EQ PUSH2 0xE76 JUMPI PUSH1 0x40 MLOAD PUSH32 0x8C379A000000000000000000000000000000000000000000000000000000000 DUP2 MSTORE PUSH1 0x4 ADD PUSH2 0xE6D SWAP1 PUSH2 0x244B JUMP JUMPDEST PUSH1 0x40 MLOAD DUP1 SWAP2 SUB SWAP1 REVERT JUMPDEST PUSH1 0x0 ISZERO ISZERO PUSH1 0xC PUSH1 0x0 SWAP1 SLOAD SWAP1 PUSH2 0x100 EXP SWAP1 DIV PUSH1 0xFF AND ISZERO ISZERO EQ PUSH2 0xECC JUMPI PUSH1 0x40 MLOAD PUSH32 0x8C379A000000000000000000000000000000000000000000000000000000000 DUP2 MSTORE PUSH1 0x4 ADD PUSH2 0xEC3 SWAP1 PUSH2 0x246B JUMP JUMPDEST PUSH1 0x40 MLOAD DUP1 SWAP2 SUB SWAP1 REVERT JUMPDEST PUSH1 0x7 SLOAD PUSH1 0x8 SLOAD PUSH1 0x9 SLOAD SWAP3 POP SWAP3 POP SWAP3 POP SWAP1 SWAP2 SWAP3 JUMP JUMPDEST PUSH1 0x0 PUSH1 0xC PUSH1 0x1 SWAP1 SLOAD SWAP1 PUSH2 0x100 EXP SWAP1 DIV PUSH20 0xFFFFFFFFFFFFFFFFFFFFFFFFFFFFFFFFFFFFFFFF AND PUSH20 0xFFFFFFFFFFFFFFFFFFFFFFFFFFFFFFFFFFFFFFFF AND PUSH2 0xF23 PUSH2 0x12EE JUMP JUMPDEST PUSH20 0xFFFFFFFFFFFFFFFFFFFFFFFFFFFFFFFFFFFFFFFF AND EQ PUSH2 0xF79 JUMPI PUSH1 0x40 MLOAD PUSH32 0x8C379A000000000000000000000000000000000000000000000000000000000 DUP2 MSTORE PUSH1 0x4 ADD PUSH2 0xF70 SWAP1 PUSH2 0x244B JUMP JUMPDEST PUSH1 0x40 MLOAD DUP1 SWAP2 SUB SWAP1 REVERT JUMPDEST PUSH1 0x0 ISZERO ISZERO PUSH1 0xC PUSH1 0x0 SWAP1 SLOAD SWAP1 PUSH2 0x100 EXP SWAP1 DIV PUSH1 0xFF AND ISZERO ISZERO EQ PUSH2 0xFCF JUMPI PUSH1 0x40 MLOAD PUSH32 0x8C379A000000000000000000000000000000000000000000000000000000000 DUP2 MSTORE PUSH1 0x4 ADD PUSH2 0xFC6 SWAP1 PUSH2 0x246B JUMP JUMPDEST PUSH1 0x40 MLOAD DUP1 SWAP2 SUB SWAP1 REVERT JUMPDEST PUSH1 0x6 SLOAD SWAP1 POP SWAP1 JUMP JUMPDEST PUSH1 0xC PUSH1 0x1 SWAP1 SLOAD SWAP1 PUSH2 0x100 EXP SWAP1 DIV PUSH20 0xFFFFFFFFFFFFFFFFFFFFFFFFFFFFFFFFFFFFFFFF AND PUSH20 0xFFFFFFFFFFFFFFFFFFFFFFFFFFFFFFFFFFFFFFFF AND PUSH2 0x1018 PUSH2 0x12EE JUMP JUMPDEST PUSH20 0xFFFFFFFFFFFFFFFFFFFFFFFFFFFFFFFFFFFFFFFF AND EQ PUSH2 0x106E JUMPI PUSH1 0x40 MLOAD PUSH32 0x8C379A000000000000000000000000000000000000000000000000000000000 DUP2 MSTORE PUSH1 0x4 ADD PUSH2 0x1065 SWAP1 PUSH2 0x244B JUMP JUMPDEST PUSH1 0x40 MLOAD DUP1 SWAP2 SUB SWAP1 REVERT JUMPDEST PUSH1 0x0 ISZERO ISZERO PUSH1 0xC PUSH1 0x0 SWAP1 SLOAD SWAP1 PUSH2 0x100 EXP SWAP1 DIV PUSH1 0xFF AND ISZERO ISZERO EQ PUSH2 0x10C4 JUMPI PUSH1 0x40 MLOAD PUSH32 0x8C379A000000000000000000000000000000000000000000000000000000000 DUP2 MSTORE PUSH1 0x4 ADD PUSH2 0x10BB SWAP1 PUSH2 0x240B JUMP JUMPDEST PUSH1 0x40 MLOAD DUP1 SWAP2 SUB SWAP1 REVERT JUMPDEST PUSH1 0x1 PUSH1 0xC PUSH1 0x0 PUSH2 0x100 EXP DUP2 SLOAD DUP2 PUSH1 0xFF MUL NOT AND SWAP1 DUP4 ISZERO ISZERO MUL OR SWAP1 SSTORE POP JUMP JUMPDEST PUSH1 0xC PUSH1 0x1 SWAP1 SLOAD SWAP1 PUSH2 0x100 EXP SWAP1 DIV PUSH20 0xFFFFFFFFFFFFFFFFFFFFFFFFFFFFFFFFFFFFFFFF AND DUP2 JUMP JUMPDEST PUSH1 0xC PUSH1 0x1 SWAP1 SLOAD SWAP1 PUSH2 0x100 EXP SWAP1 DIV PUSH20 0xFFFFFFFFFFFFFFFFFFFFFFFFFFFFFFFFFFFFFFFF AND PUSH20 0xFFFFFFFFFFFFFFFFFFFFFFFFFFFFFFFFFFFFFFFF AND PUSH2 0x1148 PUSH2 0x12EE JUMP JUMPDEST PUSH20 0xFFFFFFFFFFFFFFFFFFFFFFFFFFFFFFFFFFFFFFFF AND EQ PUSH2 0x119E JUMPI PUSH1 0x40 MLOAD PUSH32 0x8C379A000000000000000000000000000000000000000000000000000000000 DUP2 MSTORE PUSH1 0x4 ADD PUSH2 0x1195 SWAP1 PUSH2 0x244B JUMP JUMPDEST PUSH1 0x40 MLOAD DUP1 SWAP2 SUB SWAP1 REVERT JUMPDEST PUSH1 0x0 ISZERO ISZERO PUSH1 0xC PUSH1 0x0 SWAP1 SLOAD SWAP1 PUSH2 0x100 EXP SWAP1 DIV PUSH1 0xFF AND ISZERO ISZERO EQ PUSH2 0x11F4 JUMPI PUSH1 0x40 MLOAD PUSH32 0x8C379A000000000000000000000000000000000000000000000000000000000 DUP2 MSTORE PUSH1 0x4 ADD PUSH2 0x11EB SWAP1 PUSH2 0x246B JUMP JUMPDEST PUSH1 0x40 MLOAD DUP1 SWAP2 SUB SWAP1 REVERT JUMPDEST DUP1 PUSH1 0x6 DUP2 SWAP1 SSTORE POP POP JUMP JUMPDEST PUSH1 0x60 PUSH1 0x0 ISZERO ISZERO PUSH1 0xC PUSH1 0x0 SWAP1 SLOAD SWAP1 PUSH2 0x100 EXP SWAP1 DIV PUSH1 0xFF AND ISZERO ISZERO EQ PUSH2 0x1256 JUMPI PUSH1 0x40 MLOAD PUSH32 0x8C379A000000000000000000000000000000000000000000000000000000000 DUP2 MSTORE PUSH1 0x4 ADD PUSH2 0x124D SWAP1 PUSH2 0x246B JUMP JUMPDEST PUSH1 0x40 MLOAD DUP1 SWAP2 SUB SWAP1 REVERT JUMPDEST PUSH1 0xA PUSH1 0x0 DUP4 PUSH20 0xFFFFFFFFFFFFFFFFFFFFFFFFFFFFFFFFFFFFFFFF AND PUSH20 0xFFFFFFFFFFFFFFFFFFFFFFFFFFFFFFFFFFFFFFFF AND DUP2 MSTORE PUSH1 0x20 ADD SWAP1 DUP2 MSTORE PUSH1 0x20 ADD PUSH1 0x0 KECCAK256 PUSH1 0x0 ADD DUP1 SLOAD DUP1 PUSH1 0x20 MUL PUSH1 0x20 ADD PUSH1 0x40 MLOAD SWAP1 DUP2 ADD PUSH1 0x40 MSTORE DUP1 SWAP3 SWAP2 SWAP1 DUP2 DUP2 MSTORE PUSH1 0x20 ADD DUP3 DUP1 SLOAD DUP1 ISZERO PUSH2 0x12E2 JUMPI PUSH1 0x20 MUL DUP3 ADD SWAP2 SWAP1 PUSH1 0x0 MSTORE PUSH1 0x20 PUSH1 0x0 KECCAK256 SWAP1 JUMPDEST DUP2 SLOAD DUP2 MSTORE PUSH1 0x20 ADD SWAP1 PUSH1 0x1 ADD SWAP1 DUP1 DUP4 GT PUSH2 0x12CE JUMPI JUMPDEST POP POP POP POP POP SWAP1 POP SWAP2 SWAP1 POP JUMP JUMPDEST PUSH1 0x0 CALLER SWAP1 POP SWAP1 JUMP JUMPDEST PUSH1 0x0 DUP1 PUSH1 0x14 PUSH1 0x7 SLOAD PUSH1 0x8 SLOAD PUSH1 0x9 SLOAD PUSH1 0x4 SLOAD TIMESTAMP PUSH2 0x1312 SWAP2 SWAP1 PUSH2 0x2600 JUMP JUMPDEST PUSH2 0x131C SWAP2 SWAP1 PUSH2 0x2600 JUMP JUMPDEST PUSH2 0x1326 SWAP2 SWAP1 PUSH2 0x2600 JUMP JUMPDEST PUSH2 0x1330 SWAP2 SWAP1 PUSH2 0x2600 JUMP JUMPDEST CALLER PUSH1 0xC PUSH1 0x1 SWAP1 SLOAD SWAP1 PUSH2 0x100 EXP SWAP1 DIV PUSH20 0xFFFFFFFFFFFFFFFFFFFFFFFFFFFFFFFFFFFFFFFF AND PUSH1 0x40 MLOAD PUSH1 0x20 ADD PUSH2 0x1366 SWAP4 SWAP3 SWAP2 SWAP1 PUSH2 0x227A JUMP JUMPDEST PUSH1 0x40 MLOAD PUSH1 0x20 DUP2 DUP4 SUB SUB DUP2 MSTORE SWAP1 PUSH1 0x40 MSTORE DUP1 MLOAD SWAP1 PUSH1 0x20 ADD KECCAK256 PUSH1 0x0 SHR PUSH2 0x1389 SWAP2 SWAP1 PUSH2 0x28BA JUMP JUMPDEST SWAP1 POP DUP1 SWAP2 POP POP SWAP1 JUMP JUMPDEST PUSH1 0x0 DUP1 ISZERO ISZERO PUSH1 0xC PUSH1 0x0 SWAP1 SLOAD SWAP1 PUSH2 0x100 EXP SWAP1 DIV PUSH1 0xFF AND ISZERO ISZERO EQ PUSH2 0x13E9 JUMPI PUSH1 0x40 MLOAD PUSH32 0x8C379A000000000000000000000000000000000000000000000000000000000 DUP2 MSTORE PUSH1 0x4 ADD PUSH2 0x13E0 SWAP1 PUSH2 0x246B JUMP JUMPDEST PUSH1 0x40 MLOAD DUP1 SWAP2 SUB SWAP1 REVERT JUMPDEST PUSH1 0x0 PUSH1 0x3 DUP4 PUSH1 0x14 DUP2 LT PUSH2 0x13FF JUMPI PUSH2 0x13FE PUSH2 0x2978 JUMP JUMPDEST JUMPDEST PUSH1 0x20 SWAP2 DUP3 DUP3 DIV ADD SWAP2 SWAP1 MOD SWAP1 SLOAD SWAP1 PUSH2 0x100 EXP SWAP1 DIV PUSH1 0xFF AND PUSH1 0xFF AND SWAP1 POP PUSH1 0x0 DUP2 EQ DUP1 ISZERO PUSH2 0x142C JUMPI POP PUSH1 0x32 PUSH1 0x7 SLOAD LT JUMPDEST ISZERO PUSH2 0x1492 JUMPI PUSH1 0x7 PUSH1 0x0 DUP2 SLOAD DUP1 SWAP3 SWAP2 SWAP1 PUSH2 0x1444 SWAP1 PUSH2 0x2831 JUMP JUMPDEST SWAP2 SWAP1 POP SSTORE POP PUSH2 0x1454 PUSH1 0x7 SLOAD PUSH2 0x1865 JUMP JUMPDEST PUSH1 0x40 MLOAD PUSH1 0x20 ADD PUSH2 0x1464 SWAP2 SWAP1 PUSH2 0x2214 JUMP JUMPDEST PUSH1 0x40 MLOAD PUSH1 0x20 DUP2 DUP4 SUB SUB DUP2 MSTORE SWAP1 PUSH1 0x40 MSTORE PUSH1 0x2 SWAP1 DUP1 MLOAD SWAP1 PUSH1 0x20 ADD SWAP1 PUSH2 0x1488 SWAP3 SWAP2 SWAP1 PUSH2 0x1C42 JUMP JUMPDEST POP DUP1 SWAP2 POP POP PUSH2 0x1670 JUMP JUMPDEST PUSH1 0x1 DUP2 GT ISZERO DUP1 ISZERO PUSH2 0x14A5 JUMPI POP PUSH1 0x64 PUSH1 0x8 SLOAD LT JUMPDEST ISZERO PUSH2 0x150B JUMPI PUSH1 0x8 PUSH1 0x0 DUP2 SLOAD DUP1 SWAP3 SWAP2 SWAP1 PUSH2 0x14BD SWAP1 PUSH2 0x2831 JUMP JUMPDEST SWAP2 SWAP1 POP SSTORE POP PUSH2 0x14CD PUSH1 0x8 SLOAD PUSH2 0x1865 JUMP JUMPDEST PUSH1 0x40 MLOAD PUSH1 0x20 ADD PUSH2 0x14DD SWAP2 SWAP1 PUSH2 0x2236 JUMP JUMPDEST PUSH1 0x40 MLOAD PUSH1 0x20 DUP2 DUP4 SUB SUB DUP2 MSTORE SWAP1 PUSH1 0x40 MSTORE PUSH1 0x2 SWAP1 DUP1 MLOAD SWAP1 PUSH1 0x20 ADD SWAP1 PUSH2 0x1501 SWAP3 SWAP2 SWAP1 PUSH2 0x1C42 JUMP JUMPDEST POP DUP1 SWAP2 POP POP PUSH2 0x1670 JUMP JUMPDEST PUSH1 0x2 DUP2 GT ISZERO DUP1 ISZERO PUSH2 0x1520 JUMPI POP PUSH2 0x352 PUSH1 0x9 SLOAD GT ISZERO JUMPDEST ISZERO PUSH2 0x159F JUMPI PUSH1 0x9 PUSH1 0x0 DUP2 SLOAD DUP1 SWAP3 SWAP2 SWAP1 PUSH2 0x1538 SWAP1 PUSH2 0x2831 JUMP JUMPDEST SWAP2 SWAP1 POP SSTORE POP PUSH2 0x1548 PUSH1 0x9 SLOAD PUSH2 0x1865 JUMP JUMPDEST PUSH1 0x40 MLOAD PUSH1 0x20 ADD PUSH2 0x1558 SWAP2 SWAP1 PUSH2 0x2258 JUMP JUMPDEST PUSH1 0x40 MLOAD PUSH1 0x20 DUP2 DUP4 SUB SUB DUP2 MSTORE SWAP1 PUSH1 0x40 MSTORE PUSH1 0x2 SWAP1 DUP1 MLOAD SWAP1 PUSH1 0x20 ADD SWAP1 PUSH2 0x157C SWAP3 SWAP2 SWAP1 PUSH2 0x1C42 JUMP JUMPDEST PUSH1 0x2 SWAP1 DUP1 SLOAD PUSH2 0x158A SWAP1 PUSH2 0x27CE JUMP JUMPDEST PUSH2 0x1595 SWAP3 SWAP2 SWAP1 PUSH2 0x1CC8 JUMP JUMPDEST POP DUP1 SWAP2 POP POP PUSH2 0x1670 JUMP JUMPDEST PUSH1 0x64 PUSH1 0x8 SLOAD LT ISZERO PUSH2 0x160F JUMPI PUSH1 0x1 SWAP1 POP PUSH1 0x8 PUSH1 0x0 DUP2 SLOAD DUP1 SWAP3 SWAP2 SWAP1 PUSH2 0x15C1 SWAP1 PUSH2 0x2831 JUMP JUMPDEST SWAP2 SWAP1 POP SSTORE POP PUSH2 0x15D1 PUSH1 0x8 SLOAD PUSH2 0x1865 JUMP JUMPDEST PUSH1 0x40 MLOAD PUSH1 0x20 ADD PUSH2 0x15E1 SWAP2 SWAP1 PUSH2 0x2236 JUMP JUMPDEST PUSH1 0x40 MLOAD PUSH1 0x20 DUP2 DUP4 SUB SUB DUP2 MSTORE SWAP1 PUSH1 0x40 MSTORE PUSH1 0x2 SWAP1 DUP1 MLOAD SWAP1 PUSH1 0x20 ADD SWAP1 PUSH2 0x1605 SWAP3 SWAP2 SWAP1 PUSH2 0x1C42 JUMP JUMPDEST POP DUP1 SWAP2 POP POP PUSH2 0x1670 JUMP JUMPDEST PUSH1 0x0 SWAP1 POP PUSH1 0x7 PUSH1 0x0 DUP2 SLOAD DUP1 SWAP3 SWAP2 SWAP1 PUSH2 0x1626 SWAP1 PUSH2 0x2831 JUMP JUMPDEST SWAP2 SWAP1 POP SSTORE POP PUSH2 0x1636 PUSH1 0x7 SLOAD PUSH2 0x1865 JUMP JUMPDEST PUSH1 0x40 MLOAD PUSH1 0x20 ADD PUSH2 0x1646 SWAP2 SWAP1 PUSH2 0x2214 JUMP JUMPDEST PUSH1 0x40 MLOAD PUSH1 0x20 DUP2 DUP4 SUB SUB DUP2 MSTORE SWAP1 PUSH1 0x40 MSTORE PUSH1 0x2 SWAP1 DUP1 MLOAD SWAP1 PUSH1 0x20 ADD SWAP1 PUSH2 0x166A SWAP3 SWAP2 SWAP1 PUSH2 0x1C42 JUMP JUMPDEST POP DUP1 SWAP2 POP POP JUMPDEST SWAP2 SWAP1 POP JUMP JUMPDEST PUSH1 0x0 PUSH20 0xFFFFFFFFFFFFFFFFFFFFFFFFFFFFFFFFFFFFFFFF AND DUP5 PUSH20 0xFFFFFFFFFFFFFFFFFFFFFFFFFFFFFFFFFFFFFFFF AND EQ ISZERO PUSH2 0x16E5 JUMPI PUSH1 0x40 MLOAD PUSH32 0x8C379A000000000000000000000000000000000000000000000000000000000 DUP2 MSTORE PUSH1 0x4 ADD PUSH2 0x16DC SWAP1 PUSH2 0x24CB JUMP JUMPDEST PUSH1 0x40 MLOAD DUP1 SWAP2 SUB SWAP1 REVERT JUMPDEST PUSH1 0x0 PUSH2 0x16EF PUSH2 0x12EE JUMP JUMPDEST SWAP1 POP PUSH2 0x1710 DUP2 PUSH1 0x0 DUP8 PUSH2 0x1701 DUP9 PUSH2 0x19C6 JUMP JUMPDEST PUSH2 0x170A DUP9 PUSH2 0x19C6 JUMP JUMPDEST DUP8 PUSH2 0x1A40 JUMP JUMPDEST DUP3 PUSH1 0x0 DUP1 DUP7 DUP2 MSTORE PUSH1 0x20 ADD SWAP1 DUP2 MSTORE PUSH1 0x20 ADD PUSH1 0x0 KECCAK256 PUSH1 0x0 DUP8 PUSH20 0xFFFFFFFFFFFFFFFFFFFFFFFFFFFFFFFFFFFFFFFF AND PUSH20 0xFFFFFFFFFFFFFFFFFFFFFFFFFFFFFFFFFFFFFFFF AND DUP2 MSTORE PUSH1 0x20 ADD SWAP1 DUP2 MSTORE PUSH1 0x20 ADD PUSH1 0x0 KECCAK256 PUSH1 0x0 DUP3 DUP3 SLOAD PUSH2 0x176F SWAP2 SWAP1 PUSH2 0x2600 JUMP JUMPDEST SWAP3 POP POP DUP2 SWAP1 SSTORE POP DUP5 PUSH20 0xFFFFFFFFFFFFFFFFFFFFFFFFFFFFFFFFFFFFFFFF AND PUSH1 0x0 PUSH20 0xFFFFFFFFFFFFFFFFFFFFFFFFFFFFFFFFFFFFFFFF AND DUP3 PUSH20 0xFFFFFFFFFFFFFFFFFFFFFFFFFFFFFFFFFFFFFFFF AND PUSH32 0xC3D58168C5AE7397731D063D5BBF3D657854427343F4C083240F7AACAA2D0F62 DUP8 DUP8 PUSH1 0x40 MLOAD PUSH2 0x17ED SWAP3 SWAP2 SWAP1 PUSH2 0x2536 JUMP JUMPDEST PUSH1 0x40 MLOAD DUP1 SWAP2 SUB SWAP1 LOG4 PUSH2 0x1804 DUP2 PUSH1 0x0 DUP8 DUP8 DUP8 DUP8 PUSH2 0x1A48 JUMP JUMPDEST POP POP POP POP POP JUMP JUMPDEST DUP1 PUSH1 0xB PUSH1 0x0 DUP5 PUSH20 0xFFFFFFFFFFFFFFFFFFFFFFFFFFFFFFFFFFFFFFFF AND PUSH20 0xFFFFFFFFFFFFFFFFFFFFFFFFFFFFFFFFFFFFFFFF AND DUP2 MSTORE PUSH1 0x20 ADD SWAP1 DUP2 MSTORE PUSH1 0x20 ADD PUSH1 0x0 KECCAK256 PUSH1 0x0 DUP3 DUP3 SLOAD PUSH2 0x185A SWAP2 SWAP1 PUSH2 0x2600 JUMP JUMPDEST SWAP3 POP POP DUP2 SWAP1 SSTORE POP POP POP JUMP JUMPDEST PUSH1 0x60 PUSH1 0x0 DUP3 EQ ISZERO PUSH2 0x18AD JUMPI PUSH1 0x40 MLOAD DUP1 PUSH1 0x40 ADD PUSH1 0x40 MSTORE DUP1 PUSH1 0x1 DUP2 MSTORE PUSH1 0x20 ADD PUSH32 0x3000000000000000000000000000000000000000000000000000000000000000 DUP2 MSTORE POP SWAP1 POP PUSH2 0x19C1 JUMP JUMPDEST PUSH1 0x0 DUP3 SWAP1 POP PUSH1 0x0 JUMPDEST PUSH1 0x0 DUP3 EQ PUSH2 0x18DF JUMPI DUP1 DUP1 PUSH2 0x18C8 SWAP1 PUSH2 0x2831 JUMP JUMPDEST SWAP2 POP POP PUSH1 0xA DUP3 PUSH2 0x18D8 SWAP2 SWAP1 PUSH2 0x2656 JUMP JUMPDEST SWAP2 POP PUSH2 0x18B5 JUMP JUMPDEST PUSH1 0x0 DUP2 PUSH8 0xFFFFFFFFFFFFFFFF DUP2 GT ISZERO PUSH2 0x18FB JUMPI PUSH2 0x18FA PUSH2 0x29A7 JUMP JUMPDEST JUMPDEST PUSH1 0x40 MLOAD SWAP1 DUP1 DUP3 MSTORE DUP1 PUSH1 0x1F ADD PUSH1 0x1F NOT AND PUSH1 0x20 ADD DUP3 ADD PUSH1 0x40 MSTORE DUP1 ISZERO PUSH2 0x192D JUMPI DUP2 PUSH1 0x20 ADD PUSH1 0x1 DUP3 MUL DUP1 CALLDATASIZE DUP4 CALLDATACOPY DUP1 DUP3 ADD SWAP2 POP POP SWAP1 POP JUMPDEST POP SWAP1 POP JUMPDEST PUSH1 0x0 DUP6 EQ PUSH2 0x19BA JUMPI PUSH1 0x1 DUP3 PUSH2 0x1946 SWAP2 SWAP1 PUSH2 0x26E1 JUMP JUMPDEST SWAP2 POP PUSH1 0xA DUP6 PUSH2 0x1955 SWAP2 SWAP1 PUSH2 0x28BA JUMP JUMPDEST PUSH1 0x30 PUSH2 0x1961 SWAP2 SWAP1 PUSH2 0x2600 JUMP JUMPDEST PUSH1 0xF8 SHL DUP2 DUP4 DUP2 MLOAD DUP2 LT PUSH2 0x1977 JUMPI PUSH2 0x1976 PUSH2 0x2978 JUMP JUMPDEST JUMPDEST PUSH1 0x20 ADD ADD SWAP1 PUSH31 0xFFFFFFFFFFFFFFFFFFFFFFFFFFFFFFFFFFFFFFFFFFFFFFFFFFFFFFFFFFFFFF NOT AND SWAP1 DUP2 PUSH1 0x0 BYTE SWAP1 MSTORE8 POP PUSH1 0xA DUP6 PUSH2 0x19B3 SWAP2 SWAP1 PUSH2 0x2656 JUMP JUMPDEST SWAP5 POP PUSH2 0x1931 JUMP JUMPDEST DUP1 SWAP4 POP POP POP POP JUMPDEST SWAP2 SWAP1 POP JUMP JUMPDEST PUSH1 0x60 PUSH1 0x0 PUSH1 0x1 PUSH8 0xFFFFFFFFFFFFFFFF DUP2 GT ISZERO PUSH2 0x19E5 JUMPI PUSH2 0x19E4 PUSH2 0x29A7 JUMP JUMPDEST JUMPDEST PUSH1 0x40 MLOAD SWAP1 DUP1 DUP3 MSTORE DUP1 PUSH1 0x20 MUL PUSH1 0x20 ADD DUP3 ADD PUSH1 0x40 MSTORE DUP1 ISZERO PUSH2 0x1A13 JUMPI DUP2 PUSH1 0x20 ADD PUSH1 0x20 DUP3 MUL DUP1 CALLDATASIZE DUP4 CALLDATACOPY DUP1 DUP3 ADD SWAP2 POP POP SWAP1 POP JUMPDEST POP SWAP1 POP DUP3 DUP2 PUSH1 0x0 DUP2 MLOAD DUP2 LT PUSH2 0x1A2B JUMPI PUSH2 0x1A2A PUSH2 0x2978 JUMP JUMPDEST JUMPDEST PUSH1 0x20 MUL PUSH1 0x20 ADD ADD DUP2 DUP2 MSTORE POP POP DUP1 SWAP2 POP POP SWAP2 SWAP1 POP JUMP JUMPDEST POP POP POP POP POP POP JUMP JUMPDEST PUSH2 0x1A67 DUP5 PUSH20 0xFFFFFFFFFFFFFFFFFFFFFFFFFFFFFFFFFFFFFFFF AND PUSH2 0x1C2F JUMP JUMPDEST ISZERO PUSH2 0x1C27 JUMPI DUP4 PUSH20 0xFFFFFFFFFFFFFFFFFFFFFFFFFFFFFFFFFFFFFFFF AND PUSH4 0xAE89A248 DUP8 DUP8 DUP7 DUP7 DUP7 PUSH1 0x40 MLOAD DUP7 PUSH4 0xFFFFFFFF AND PUSH1 0xE0 SHL DUP2 MSTORE PUSH1 0x4 ADD PUSH2 0x1AAD SWAP6 SWAP5 SWAP4 SWAP3 SWAP2 SWAP1 PUSH2 0x22D2 JUMP JUMPDEST PUSH1 0x20 PUSH1 0x40 MLOAD DUP1 DUP4 SUB DUP2 PUSH1 0x0 DUP8 DUP1 EXTCODESIZE ISZERO DUP1 ISZERO PUSH2 0x1AC7 JUMPI PUSH1 0x0 DUP1 REVERT JUMPDEST POP GAS CALL SWAP3 POP POP POP DUP1 ISZERO PUSH2 0x1AF8 JUMPI POP PUSH1 0x40 MLOAD RETURNDATASIZE PUSH1 0x1F NOT PUSH1 0x1F DUP3 ADD AND DUP3 ADD DUP1 PUSH1 0x40 MSTORE POP DUP2 ADD SWAP1 PUSH2 0x1AF5 SWAP2 SWAP1 PUSH2 0x1E60 JUMP JUMPDEST PUSH1 0x1 JUMPDEST PUSH2 0x1B9E JUMPI PUSH2 0x1B04 PUSH2 0x29D6 JUMP JUMPDEST DUP1 PUSH4 0x8C379A0 EQ ISZERO PUSH2 0x1B61 JUMPI POP PUSH2 0x1B19 PUSH2 0x2CD8 JUMP JUMPDEST DUP1 PUSH2 0x1B24 JUMPI POP PUSH2 0x1B63 JUMP JUMPDEST DUP1 PUSH1 0x40 MLOAD PUSH32 0x8C379A000000000000000000000000000000000000000000000000000000000 DUP2 MSTORE PUSH1 0x4 ADD PUSH2 0x1B58 SWAP2 SWAP1 PUSH2 0x2369 JUMP JUMPDEST PUSH1 0x40 MLOAD DUP1 SWAP2 SUB SWAP1 REVERT JUMPDEST POP JUMPDEST PUSH1 0x40 MLOAD PUSH32 0x8C379A000000000000000000000000000000000000000000000000000000000 DUP2 MSTORE PUSH1 0x4 ADD PUSH2 0x1B95 SWAP1 PUSH2 0x238B JUMP JUMPDEST PUSH1 0x40 MLOAD DUP1 SWAP2 SUB SWAP1 REVERT JUMPDEST PUSH4 0xAE89A248 PUSH1 0xE0 SHL PUSH28 0xFFFFFFFFFFFFFFFFFFFFFFFFFFFFFFFFFFFFFFFFFFFFFFFFFFFFFFFF NOT AND DUP2 PUSH28 0xFFFFFFFFFFFFFFFFFFFFFFFFFFFFFFFFFFFFFFFFFFFFFFFFFFFFFFFF NOT AND EQ PUSH2 0x1C25 JUMPI PUSH1 0x40 MLOAD PUSH32 0x8C379A000000000000000000000000000000000000000000000000000000000 DUP2 MSTORE PUSH1 0x4 ADD PUSH2 0x1C1C SWAP1 PUSH2 0x23AB JUMP JUMPDEST PUSH1 0x40 MLOAD DUP1 SWAP2 SUB SWAP1 REVERT JUMPDEST POP JUMPDEST POP POP POP POP POP POP JUMP JUMPDEST PUSH1 0x0 DUP1 DUP3 EXTCODESIZE SWAP1 POP PUSH1 0x0 DUP2 GT SWAP2 POP POP SWAP2 SWAP1 POP JUMP JUMPDEST DUP3 DUP1 SLOAD PUSH2 0x1C4E SWAP1 PUSH2 0x27CE JUMP JUMPDEST SWAP1 PUSH1 0x0 MSTORE PUSH1 0x20 PUSH1 0x0 KECCAK256 SWAP1 PUSH1 0x1F ADD PUSH1 0x20 SWAP1 DIV DUP2 ADD SWAP3 DUP3 PUSH2 0x1C70 JUMPI PUSH1 0x0 DUP6 SSTORE PUSH2 0x1CB7 JUMP JUMPDEST DUP3 PUSH1 0x1F LT PUSH2 0x1C89 JUMPI DUP1 MLOAD PUSH1 0xFF NOT AND DUP4 DUP1 ADD OR DUP6 SSTORE PUSH2 0x1CB7 JUMP JUMPDEST DUP3 DUP1 ADD PUSH1 0x1 ADD DUP6 SSTORE DUP3 ISZERO PUSH2 0x1CB7 JUMPI SWAP2 DUP3 ADD JUMPDEST DUP3 DUP2 GT ISZERO PUSH2 0x1CB6 JUMPI DUP3 MLOAD DUP3 SSTORE SWAP2 PUSH1 0x20 ADD SWAP2 SWAP1 PUSH1 0x1 ADD SWAP1 PUSH2 0x1C9B JUMP JUMPDEST JUMPDEST POP SWAP1 POP PUSH2 0x1CC4 SWAP2 SWAP1 PUSH2 0x1D55 JUMP JUMPDEST POP SWAP1 JUMP JUMPDEST DUP3 DUP1 SLOAD PUSH2 0x1CD4 SWAP1 PUSH2 0x27CE JUMP JUMPDEST SWAP1 PUSH1 0x0 MSTORE PUSH1 0x20 PUSH1 0x0 KECCAK256 SWAP1 PUSH1 0x1F ADD PUSH1 0x20 SWAP1 DIV DUP2 ADD SWAP3 DUP3 PUSH2 0x1CF6 JUMPI PUSH1 0x0 DUP6 SSTORE PUSH2 0x1D44 JUMP JUMPDEST DUP3 PUSH1 0x1F LT PUSH2 0x1D07 JUMPI DUP1 SLOAD DUP6 SSTORE PUSH2 0x1D44 JUMP JUMPDEST DUP3 DUP1 ADD PUSH1 0x1 ADD DUP6 SSTORE DUP3 ISZERO PUSH2 0x1D44 JUMPI PUSH1 0x0 MSTORE PUSH1 0x20 PUSH1 0x0 KECCAK256 SWAP2 PUSH1 0x1F ADD PUSH1 0x20 SWAP1 DIV DUP3 ADD JUMPDEST DUP3 DUP2 GT ISZERO PUSH2 0x1D43 JUMPI DUP3 SLOAD DUP3 SSTORE SWAP2 PUSH1 0x1 ADD SWAP2 SWAP1 PUSH1 0x1 ADD SWAP1 PUSH2 0x1D28 JUMP JUMPDEST JUMPDEST POP SWAP1 POP PUSH2 0x1D51 SWAP2 SWAP1 PUSH2 0x1D55 JUMP JUMPDEST POP SWAP1 JUMP JUMPDEST JUMPDEST DUP1 DUP3 GT ISZERO PUSH2 0x1D6E JUMPI PUSH1 0x0 DUP2 PUSH1 0x0 SWAP1 SSTORE POP PUSH1 0x1 ADD PUSH2 0x1D56 JUMP JUMPDEST POP SWAP1 JUMP JUMPDEST PUSH1 0x0 DUP2 CALLDATALOAD SWAP1 POP PUSH2 0x1D81 DUP2 PUSH2 0x2D6E JUMP JUMPDEST SWAP3 SWAP2 POP POP JUMP JUMPDEST PUSH1 0x0 DUP2 CALLDATALOAD SWAP1 POP PUSH2 0x1D96 DUP2 PUSH2 0x2D85 JUMP JUMPDEST SWAP3 SWAP2 POP POP JUMP JUMPDEST PUSH1 0x0 DUP2 MLOAD SWAP1 POP PUSH2 0x1DAB DUP2 PUSH2 0x2D9C JUMP JUMPDEST SWAP3 SWAP2 POP POP JUMP JUMPDEST PUSH1 0x0 DUP2 CALLDATALOAD SWAP1 POP PUSH2 0x1DC0 DUP2 PUSH2 0x2DB3 JUMP JUMPDEST SWAP3 SWAP2 POP POP JUMP JUMPDEST PUSH1 0x0 PUSH1 0x20 DUP3 DUP5 SUB SLT ISZERO PUSH2 0x1DDC JUMPI PUSH2 0x1DDB PUSH2 0x29F8 JUMP JUMPDEST JUMPDEST PUSH1 0x0 PUSH2 0x1DEA DUP5 DUP3 DUP6 ADD PUSH2 0x1D72 JUMP JUMPDEST SWAP2 POP POP SWAP3 SWAP2 POP POP JUMP JUMPDEST PUSH1 0x0 PUSH1 0x20 DUP3 DUP5 SUB SLT ISZERO PUSH2 0x1E09 JUMPI PUSH2 0x1E08 PUSH2 0x29F8 JUMP JUMPDEST JUMPDEST PUSH1 0x0 PUSH2 0x1E17 DUP5 DUP3 DUP6 ADD PUSH2 0x1D87 JUMP JUMPDEST SWAP2 POP POP SWAP3 SWAP2 POP POP JUMP JUMPDEST PUSH1 0x0 DUP1 PUSH1 0x40 DUP4 DUP6 SUB SLT ISZERO PUSH2 0x1E37 JUMPI PUSH2 0x1E36 PUSH2 0x29F8 JUMP JUMPDEST JUMPDEST PUSH1 0x0 PUSH2 0x1E45 DUP6 DUP3 DUP7 ADD PUSH2 0x1D72 JUMP JUMPDEST SWAP3 POP POP PUSH1 0x20 PUSH2 0x1E56 DUP6 DUP3 DUP7 ADD PUSH2 0x1DB1 JUMP JUMPDEST SWAP2 POP POP SWAP3 POP SWAP3 SWAP1 POP JUMP JUMPDEST PUSH1 0x0 PUSH1 0x20 DUP3 DUP5 SUB SLT ISZERO PUSH2 0x1E76 JUMPI PUSH2 0x1E75 PUSH2 0x29F8 JUMP JUMPDEST JUMPDEST PUSH1 0x0 PUSH2 0x1E84 DUP5 DUP3 DUP6 ADD PUSH2 0x1D9C JUMP JUMPDEST SWAP2 POP POP SWAP3 SWAP2 POP POP JUMP JUMPDEST PUSH1 0x0 PUSH1 0x20 DUP3 DUP5 SUB SLT ISZERO PUSH2 0x1EA3 JUMPI PUSH2 0x1EA2 PUSH2 0x29F8 JUMP JUMPDEST JUMPDEST PUSH1 0x0 PUSH2 0x1EB1 DUP5 DUP3 DUP6 ADD PUSH2 0x1DB1 JUMP JUMPDEST SWAP2 POP POP SWAP3 SWAP2 POP POP JUMP JUMPDEST PUSH1 0x0 PUSH2 0x1EC6 DUP4 DUP4 PUSH2 0x21DF JUMP JUMPDEST PUSH1 0x20 DUP4 ADD SWAP1 POP SWAP3 SWAP2 POP POP JUMP JUMPDEST PUSH2 0x1EDB DUP2 PUSH2 0x2727 JUMP JUMPDEST DUP3 MSTORE POP POP JUMP JUMPDEST PUSH2 0x1EF2 PUSH2 0x1EED DUP3 PUSH2 0x2727 JUMP JUMPDEST PUSH2 0x288C JUMP JUMPDEST DUP3 MSTORE POP POP JUMP JUMPDEST PUSH2 0x1F01 DUP2 PUSH2 0x2715 JUMP JUMPDEST DUP3 MSTORE POP POP JUMP JUMPDEST PUSH2 0x1F18 PUSH2 0x1F13 DUP3 PUSH2 0x2715 JUMP JUMPDEST PUSH2 0x287A JUMP JUMPDEST DUP3 MSTORE POP POP JUMP JUMPDEST PUSH1 0x0 PUSH2 0x1F29 DUP3 PUSH2 0x25B0 JUMP JUMPDEST PUSH2 0x1F33 DUP2 DUP6 PUSH2 0x25D3 JUMP JUMPDEST SWAP4 POP PUSH2 0x1F3E DUP4 PUSH2 0x25A0 JUMP JUMPDEST DUP1 PUSH1 0x0 JUMPDEST DUP4 DUP2 LT ISZERO PUSH2 0x1F6F JUMPI DUP2 MLOAD PUSH2 0x1F56 DUP9 DUP3 PUSH2 0x1EBA JUMP JUMPDEST SWAP8 POP PUSH2 0x1F61 DUP4 PUSH2 0x25C6 JUMP JUMPDEST SWAP3 POP POP PUSH1 0x1 DUP2 ADD SWAP1 POP PUSH2 0x1F42 JUMP JUMPDEST POP DUP6 SWAP4 POP POP POP POP SWAP3 SWAP2 POP POP JUMP JUMPDEST PUSH2 0x1F85 DUP2 PUSH2 0x2739 JUMP JUMPDEST DUP3 MSTORE POP POP JUMP JUMPDEST PUSH1 0x0 PUSH2 0x1F96 DUP3 PUSH2 0x25BB JUMP JUMPDEST PUSH2 0x1FA0 DUP2 DUP6 PUSH2 0x25E4 JUMP JUMPDEST SWAP4 POP PUSH2 0x1FB0 DUP2 DUP6 PUSH1 0x20 DUP7 ADD PUSH2 0x279B JUMP JUMPDEST PUSH2 0x1FB9 DUP2 PUSH2 0x29FD JUMP JUMPDEST DUP5 ADD SWAP2 POP POP SWAP3 SWAP2 POP POP JUMP JUMPDEST PUSH1 0x0 PUSH2 0x1FCF DUP3 PUSH2 0x25BB JUMP JUMPDEST PUSH2 0x1FD9 DUP2 DUP6 PUSH2 0x25F5 JUMP JUMPDEST SWAP4 POP PUSH2 0x1FE9 DUP2 DUP6 PUSH1 0x20 DUP7 ADD PUSH2 0x279B JUMP JUMPDEST DUP1 DUP5 ADD SWAP2 POP POP SWAP3 SWAP2 POP POP JUMP JUMPDEST PUSH1 0x0 PUSH2 0x2002 PUSH1 0x34 DUP4 PUSH2 0x25E4 JUMP JUMPDEST SWAP2 POP PUSH2 0x200D DUP3 PUSH2 0x2A28 JUMP JUMPDEST PUSH1 0x40 DUP3 ADD SWAP1 POP SWAP2 SWAP1 POP JUMP JUMPDEST PUSH1 0x0 PUSH2 0x2025 PUSH1 0x28 DUP4 PUSH2 0x25E4 JUMP JUMPDEST SWAP2 POP PUSH2 0x2030 DUP3 PUSH2 0x2A77 JUMP JUMPDEST PUSH1 0x40 DUP3 ADD SWAP1 POP SWAP2 SWAP1 POP JUMP JUMPDEST PUSH1 0x0 PUSH2 0x2048 PUSH1 0x8 DUP4 PUSH2 0x25F5 JUMP JUMPDEST SWAP2 POP PUSH2 0x2053 DUP3 PUSH2 0x2AC6 JUMP JUMPDEST PUSH1 0x8 DUP3 ADD SWAP1 POP SWAP2 SWAP1 POP JUMP JUMPDEST PUSH1 0x0 PUSH2 0x206B PUSH1 0x5 DUP4 PUSH2 0x25F5 JUMP JUMPDEST SWAP2 POP PUSH2 0x2076 DUP3 PUSH2 0x2AEF JUMP JUMPDEST PUSH1 0x5 DUP3 ADD SWAP1 POP SWAP2 SWAP1 POP JUMP JUMPDEST PUSH1 0x0 PUSH2 0x208E PUSH1 0x12 DUP4 PUSH2 0x25E4 JUMP JUMPDEST SWAP2 POP PUSH2 0x2099 DUP3 PUSH2 0x2B18 JUMP JUMPDEST PUSH1 0x20 DUP3 ADD SWAP1 POP SWAP2 SWAP1 POP JUMP JUMPDEST PUSH1 0x0 PUSH2 0x20B1 PUSH1 0x1B DUP4 PUSH2 0x25E4 JUMP JUMPDEST SWAP2 POP PUSH2 0x20BC DUP3 PUSH2 0x2B41 JUMP JUMPDEST PUSH1 0x20 DUP3 ADD SWAP1 POP SWAP2 SWAP1 POP JUMP JUMPDEST PUSH1 0x0 PUSH2 0x20D4 PUSH1 0x1B DUP4 PUSH2 0x25E4 JUMP JUMPDEST SWAP2 POP PUSH2 0x20DF DUP3 PUSH2 0x2B6A JUMP JUMPDEST PUSH1 0x20 DUP3 ADD SWAP1 POP SWAP2 SWAP1 POP JUMP JUMPDEST PUSH1 0x0 PUSH2 0x20F7 PUSH1 0x15 DUP4 PUSH2 0x25E4 JUMP JUMPDEST SWAP2 POP PUSH2 0x2102 DUP3 PUSH2 0x2B93 JUMP JUMPDEST PUSH1 0x20 DUP3 ADD SWAP1 POP SWAP2 SWAP1 POP JUMP JUMPDEST PUSH1 0x0 PUSH2 0x211A PUSH1 0x1C DUP4 PUSH2 0x25E4 JUMP JUMPDEST SWAP2 POP PUSH2 0x2125 DUP3 PUSH2 0x2BBC JUMP JUMPDEST PUSH1 0x20 DUP3 ADD SWAP1 POP SWAP2 SWAP1 POP JUMP JUMPDEST PUSH1 0x0 PUSH2 0x213D PUSH1 0x1B DUP4 PUSH2 0x25E4 JUMP JUMPDEST SWAP2 POP PUSH2 0x2148 DUP3 PUSH2 0x2BE5 JUMP JUMPDEST PUSH1 0x20 DUP3 ADD SWAP1 POP SWAP2 SWAP1 POP JUMP JUMPDEST PUSH1 0x0 PUSH2 0x2160 PUSH1 0x19 DUP4 PUSH2 0x25E4 JUMP JUMPDEST SWAP2 POP PUSH2 0x216B DUP3 PUSH2 0x2C0E JUMP JUMPDEST PUSH1 0x20 DUP3 ADD SWAP1 POP SWAP2 SWAP1 POP JUMP JUMPDEST PUSH1 0x0 PUSH2 0x2183 PUSH1 0x7 DUP4 PUSH2 0x25F5 JUMP JUMPDEST SWAP2 POP PUSH2 0x218E DUP3 PUSH2 0x2C37 JUMP JUMPDEST PUSH1 0x7 DUP3 ADD SWAP1 POP SWAP2 SWAP1 POP JUMP JUMPDEST PUSH1 0x0 PUSH2 0x21A6 PUSH1 0x1D DUP4 PUSH2 0x25E4 JUMP JUMPDEST SWAP2 POP PUSH2 0x21B1 DUP3 PUSH2 0x2C60 JUMP JUMPDEST PUSH1 0x20 DUP3 ADD SWAP1 POP SWAP2 SWAP1 POP JUMP JUMPDEST PUSH1 0x0 PUSH2 0x21C9 PUSH1 0x21 DUP4 PUSH2 0x25E4 JUMP JUMPDEST SWAP2 POP PUSH2 0x21D4 DUP3 PUSH2 0x2C89 JUMP JUMPDEST PUSH1 0x40 DUP3 ADD SWAP1 POP SWAP2 SWAP1 POP JUMP JUMPDEST PUSH2 0x21E8 DUP2 PUSH2 0x2791 JUMP JUMPDEST DUP3 MSTORE POP POP JUMP JUMPDEST PUSH2 0x21F7 DUP2 PUSH2 0x2791 JUMP JUMPDEST DUP3 MSTORE POP POP JUMP JUMPDEST PUSH2 0x220E PUSH2 0x2209 DUP3 PUSH2 0x2791 JUMP JUMPDEST PUSH2 0x28B0 JUMP JUMPDEST DUP3 MSTORE POP POP JUMP JUMPDEST PUSH1 0x0 PUSH2 0x221F DUP3 PUSH2 0x203B JUMP JUMPDEST SWAP2 POP PUSH2 0x222B DUP3 DUP5 PUSH2 0x1FC4 JUMP JUMPDEST SWAP2 POP DUP2 SWAP1 POP SWAP3 SWAP2 POP POP JUMP JUMPDEST PUSH1 0x0 PUSH2 0x2241 DUP3 PUSH2 0x205E JUMP JUMPDEST SWAP2 POP PUSH2 0x224D DUP3 DUP5 PUSH2 0x1FC4 JUMP JUMPDEST SWAP2 POP DUP2 SWAP1 POP SWAP3 SWAP2 POP POP JUMP JUMPDEST PUSH1 0x0 PUSH2 0x2263 DUP3 PUSH2 0x2176 JUMP JUMPDEST SWAP2 POP PUSH2 0x226F DUP3 DUP5 PUSH2 0x1FC4 JUMP JUMPDEST SWAP2 POP DUP2 SWAP1 POP SWAP3 SWAP2 POP POP JUMP JUMPDEST PUSH1 0x0 PUSH2 0x2286 DUP3 DUP7 PUSH2 0x21FD JUMP JUMPDEST PUSH1 0x20 DUP3 ADD SWAP2 POP PUSH2 0x2296 DUP3 DUP6 PUSH2 0x1F07 JUMP JUMPDEST PUSH1 0x14 DUP3 ADD SWAP2 POP PUSH2 0x22A6 DUP3 DUP5 PUSH2 0x1EE1 JUMP JUMPDEST PUSH1 0x14 DUP3 ADD SWAP2 POP DUP2 SWAP1 POP SWAP5 SWAP4 POP POP POP POP JUMP JUMPDEST PUSH1 0x0 PUSH1 0x20 DUP3 ADD SWAP1 POP PUSH2 0x22CC PUSH1 0x0 DUP4 ADD DUP5 PUSH2 0x1ED2 JUMP JUMPDEST SWAP3 SWAP2 POP POP JUMP JUMPDEST PUSH1 0x0 PUSH1 0xA0 DUP3 ADD SWAP1 POP PUSH2 0x22E7 PUSH1 0x0 DUP4 ADD DUP9 PUSH2 0x1EF8 JUMP JUMPDEST PUSH2 0x22F4 PUSH1 0x20 DUP4 ADD DUP8 PUSH2 0x1EF8 JUMP JUMPDEST PUSH2 0x2301 PUSH1 0x40 DUP4 ADD DUP7 PUSH2 0x21EE JUMP JUMPDEST PUSH2 0x230E PUSH1 0x60 DUP4 ADD DUP6 PUSH2 0x21EE JUMP JUMPDEST DUP2 DUP2 SUB PUSH1 0x80 DUP4 ADD MSTORE PUSH2 0x2320 DUP2 DUP5 PUSH2 0x1F8B JUMP JUMPDEST SWAP1 POP SWAP7 SWAP6 POP POP POP POP POP POP JUMP JUMPDEST PUSH1 0x0 PUSH1 0x20 DUP3 ADD SWAP1 POP DUP2 DUP2 SUB PUSH1 0x0 DUP4 ADD MSTORE PUSH2 0x2346 DUP2 DUP5 PUSH2 0x1F1E JUMP JUMPDEST SWAP1 POP SWAP3 SWAP2 POP POP JUMP JUMPDEST PUSH1 0x0 PUSH1 0x20 DUP3 ADD SWAP1 POP PUSH2 0x2363 PUSH1 0x0 DUP4 ADD DUP5 PUSH2 0x1F7C JUMP JUMPDEST SWAP3 SWAP2 POP POP JUMP JUMPDEST PUSH1 0x0 PUSH1 0x20 DUP3 ADD SWAP1 POP DUP2 DUP2 SUB PUSH1 0x0 DUP4 ADD MSTORE PUSH2 0x2383 DUP2 DUP5 PUSH2 0x1F8B JUMP JUMPDEST SWAP1 POP SWAP3 SWAP2 POP POP JUMP JUMPDEST PUSH1 0x0 PUSH1 0x20 DUP3 ADD SWAP1 POP DUP2 DUP2 SUB PUSH1 0x0 DUP4 ADD MSTORE PUSH2 0x23A4 DUP2 PUSH2 0x1FF5 JUMP JUMPDEST SWAP1 POP SWAP2 SWAP1 POP JUMP JUMPDEST PUSH1 0x0 PUSH1 0x20 DUP3 ADD SWAP1 POP DUP2 DUP2 SUB PUSH1 0x0 DUP4 ADD MSTORE PUSH2 0x23C4 DUP2 PUSH2 0x2018 JUMP JUMPDEST SWAP1 POP SWAP2 SWAP1 POP JUMP JUMPDEST PUSH1 0x0 PUSH1 0x20 DUP3 ADD SWAP1 POP DUP2 DUP2 SUB PUSH1 0x0 DUP4 ADD MSTORE PUSH2 0x23E4 DUP2 PUSH2 0x2081 JUMP JUMPDEST SWAP1 POP SWAP2 SWAP1 POP JUMP JUMPDEST PUSH1 0x0 PUSH1 0x20 DUP3 ADD SWAP1 POP DUP2 DUP2 SUB PUSH1 0x0 DUP4 ADD MSTORE PUSH2 0x2404 DUP2 PUSH2 0x20A4 JUMP JUMPDEST SWAP1 POP SWAP2 SWAP1 POP JUMP JUMPDEST PUSH1 0x0 PUSH1 0x20 DUP3 ADD SWAP1 POP DUP2 DUP2 SUB PUSH1 0x0 DUP4 ADD MSTORE PUSH2 0x2424 DUP2 PUSH2 0x20C7 JUMP JUMPDEST SWAP1 POP SWAP2 SWAP1 POP JUMP JUMPDEST PUSH1 0x0 PUSH1 0x20 DUP3 ADD SWAP1 POP DUP2 DUP2 SUB PUSH1 0x0 DUP4 ADD MSTORE PUSH2 0x2444 DUP2 PUSH2 0x20EA JUMP JUMPDEST SWAP1 POP SWAP2 SWAP1 POP JUMP JUMPDEST PUSH1 0x0 PUSH1 0x20 DUP3 ADD SWAP1 POP DUP2 DUP2 SUB PUSH1 0x0 DUP4 ADD MSTORE PUSH2 0x2464 DUP2 PUSH2 0x210D JUMP JUMPDEST SWAP1 POP SWAP2 SWAP1 POP JUMP JUMPDEST PUSH1 0x0 PUSH1 0x20 DUP3 ADD SWAP1 POP DUP2 DUP2 SUB PUSH1 0x0 DUP4 ADD MSTORE PUSH2 0x2484 DUP2 PUSH2 0x2130 JUMP JUMPDEST SWAP1 POP SWAP2 SWAP1 POP JUMP JUMPDEST PUSH1 0x0 PUSH1 0x20 DUP3 ADD SWAP1 POP DUP2 DUP2 SUB PUSH1 0x0 DUP4 ADD MSTORE PUSH2 0x24A4 DUP2 PUSH2 0x2153 JUMP JUMPDEST SWAP1 POP SWAP2 SWAP1 POP JUMP JUMPDEST PUSH1 0x0 PUSH1 0x20 DUP3 ADD SWAP1 POP DUP2 DUP2 SUB PUSH1 0x0 DUP4 ADD MSTORE PUSH2 0x24C4 DUP2 PUSH2 0x2199 JUMP JUMPDEST SWAP1 POP SWAP2 SWAP1 POP JUMP JUMPDEST PUSH1 0x0 PUSH1 0x20 DUP3 ADD SWAP1 POP DUP2 DUP2 SUB PUSH1 0x0 DUP4 ADD MSTORE PUSH2 0x24E4 DUP2 PUSH2 0x21BC JUMP JUMPDEST SWAP1 POP SWAP2 SWAP1 POP JUMP JUMPDEST PUSH1 0x0 PUSH1 0x20 DUP3 ADD SWAP1 POP PUSH2 0x2500 PUSH1 0x0 DUP4 ADD DUP5 PUSH2 0x21EE JUMP JUMPDEST SWAP3 SWAP2 POP POP JUMP JUMPDEST PUSH1 0x0 PUSH1 0x40 DUP3 ADD SWAP1 POP PUSH2 0x251B PUSH1 0x0 DUP4 ADD DUP6 PUSH2 0x21EE JUMP JUMPDEST DUP2 DUP2 SUB PUSH1 0x20 DUP4 ADD MSTORE PUSH2 0x252D DUP2 DUP5 PUSH2 0x1F8B JUMP JUMPDEST SWAP1 POP SWAP4 SWAP3 POP POP POP JUMP JUMPDEST PUSH1 0x0 PUSH1 0x40 DUP3 ADD SWAP1 POP PUSH2 0x254B PUSH1 0x0 DUP4 ADD DUP6 PUSH2 0x21EE JUMP JUMPDEST PUSH2 0x2558 PUSH1 0x20 DUP4 ADD DUP5 PUSH2 0x21EE JUMP JUMPDEST SWAP4 SWAP3 POP POP POP JUMP JUMPDEST PUSH1 0x0 PUSH1 0x60 DUP3 ADD SWAP1 POP PUSH2 0x2574 PUSH1 0x0 DUP4 ADD DUP7 PUSH2 0x21EE JUMP JUMPDEST PUSH2 0x2581 PUSH1 0x20 DUP4 ADD DUP6 PUSH2 0x21EE JUMP JUMPDEST PUSH2 0x258E PUSH1 0x40 DUP4 ADD DUP5 PUSH2 0x21EE JUMP JUMPDEST SWAP5 SWAP4 POP POP POP POP JUMP JUMPDEST PUSH1 0x0 PUSH1 0x40 MLOAD SWAP1 POP SWAP1 JUMP JUMPDEST PUSH1 0x0 DUP2 SWAP1 POP PUSH1 0x20 DUP3 ADD SWAP1 POP SWAP2 SWAP1 POP JUMP JUMPDEST PUSH1 0x0 DUP2 MLOAD SWAP1 POP SWAP2 SWAP1 POP JUMP JUMPDEST PUSH1 0x0 DUP2 MLOAD SWAP1 POP SWAP2 SWAP1 POP JUMP JUMPDEST PUSH1 0x0 PUSH1 0x20 DUP3 ADD SWAP1 POP SWAP2 SWAP1 POP JUMP JUMPDEST PUSH1 0x0 DUP3 DUP3 MSTORE PUSH1 0x20 DUP3 ADD SWAP1 POP SWAP3 SWAP2 POP POP JUMP JUMPDEST PUSH1 0x0 DUP3 DUP3 MSTORE PUSH1 0x20 DUP3 ADD SWAP1 POP SWAP3 SWAP2 POP POP JUMP JUMPDEST PUSH1 0x0 DUP2 SWAP1 POP SWAP3 SWAP2 POP POP JUMP JUMPDEST PUSH1 0x0 PUSH2 0x260B DUP3 PUSH2 0x2791 JUMP JUMPDEST SWAP2 POP PUSH2 0x2616 DUP4 PUSH2 0x2791 JUMP JUMPDEST SWAP3 POP DUP3 PUSH32 0xFFFFFFFFFFFFFFFFFFFFFFFFFFFFFFFFFFFFFFFFFFFFFFFFFFFFFFFFFFFFFFFF SUB DUP3 GT ISZERO PUSH2 0x264B JUMPI PUSH2 0x264A PUSH2 0x28EB JUMP JUMPDEST JUMPDEST DUP3 DUP3 ADD SWAP1 POP SWAP3 SWAP2 POP POP JUMP JUMPDEST PUSH1 0x0 PUSH2 0x2661 DUP3 PUSH2 0x2791 JUMP JUMPDEST SWAP2 POP PUSH2 0x266C DUP4 PUSH2 0x2791 JUMP JUMPDEST SWAP3 POP DUP3 PUSH2 0x267C JUMPI PUSH2 0x267B PUSH2 0x291A JUMP JUMPDEST JUMPDEST DUP3 DUP3 DIV SWAP1 POP SWAP3 SWAP2 POP POP JUMP JUMPDEST PUSH1 0x0 PUSH2 0x2692 DUP3 PUSH2 0x2791 JUMP JUMPDEST SWAP2 POP PUSH2 0x269D DUP4 PUSH2 0x2791 JUMP JUMPDEST SWAP3 POP DUP2 PUSH32 0xFFFFFFFFFFFFFFFFFFFFFFFFFFFFFFFFFFFFFFFFFFFFFFFFFFFFFFFFFFFFFFFF DIV DUP4 GT DUP3 ISZERO ISZERO AND ISZERO PUSH2 0x26D6 JUMPI PUSH2 0x26D5 PUSH2 0x28EB JUMP JUMPDEST JUMPDEST DUP3 DUP3 MUL SWAP1 POP SWAP3 SWAP2 POP POP JUMP JUMPDEST PUSH1 0x0 PUSH2 0x26EC DUP3 PUSH2 0x2791 JUMP JUMPDEST SWAP2 POP PUSH2 0x26F7 DUP4 PUSH2 0x2791 JUMP JUMPDEST SWAP3 POP DUP3 DUP3 LT ISZERO PUSH2 0x270A JUMPI PUSH2 0x2709 PUSH2 0x28EB JUMP JUMPDEST JUMPDEST DUP3 DUP3 SUB SWAP1 POP SWAP3 SWAP2 POP POP JUMP JUMPDEST PUSH1 0x0 PUSH2 0x2720 DUP3 PUSH2 0x2771 JUMP JUMPDEST SWAP1 POP SWAP2 SWAP1 POP JUMP JUMPDEST PUSH1 0x0 PUSH2 0x2732 DUP3 PUSH2 0x2771 JUMP JUMPDEST SWAP1 POP SWAP2 SWAP1 POP JUMP JUMPDEST PUSH1 0x0 DUP2 ISZERO ISZERO SWAP1 POP SWAP2 SWAP1 POP JUMP JUMPDEST PUSH1 0x0 PUSH32 0xFFFFFFFF00000000000000000000000000000000000000000000000000000000 DUP3 AND SWAP1 POP SWAP2 SWAP1 POP JUMP JUMPDEST PUSH1 0x0 PUSH20 0xFFFFFFFFFFFFFFFFFFFFFFFFFFFFFFFFFFFFFFFF DUP3 AND SWAP1 POP SWAP2 SWAP1 POP JUMP JUMPDEST PUSH1 0x0 DUP2 SWAP1 POP SWAP2 SWAP1 POP JUMP JUMPDEST PUSH1 0x0 JUMPDEST DUP4 DUP2 LT ISZERO PUSH2 0x27B9 JUMPI DUP1 DUP3 ADD MLOAD DUP2 DUP5 ADD MSTORE PUSH1 0x20 DUP2 ADD SWAP1 POP PUSH2 0x279E JUMP JUMPDEST DUP4 DUP2 GT ISZERO PUSH2 0x27C8 JUMPI PUSH1 0x0 DUP5 DUP5 ADD MSTORE JUMPDEST POP POP POP POP JUMP JUMPDEST PUSH1 0x0 PUSH1 0x2 DUP3 DIV SWAP1 POP PUSH1 0x1 DUP3 AND DUP1 PUSH2 0x27E6 JUMPI PUSH1 0x7F DUP3 AND SWAP2 POP JUMPDEST PUSH1 0x20 DUP3 LT DUP2 EQ ISZERO PUSH2 0x27FA JUMPI PUSH2 0x27F9 PUSH2 0x2949 JUMP JUMPDEST JUMPDEST POP SWAP2 SWAP1 POP JUMP JUMPDEST PUSH2 0x2809 DUP3 PUSH2 0x29FD JUMP JUMPDEST DUP2 ADD DUP2 DUP2 LT PUSH8 0xFFFFFFFFFFFFFFFF DUP3 GT OR ISZERO PUSH2 0x2828 JUMPI PUSH2 0x2827 PUSH2 0x29A7 JUMP JUMPDEST JUMPDEST DUP1 PUSH1 0x40 MSTORE POP POP POP JUMP JUMPDEST PUSH1 0x0 PUSH2 0x283C DUP3 PUSH2 0x2791 JUMP JUMPDEST SWAP2 POP PUSH32 0xFFFFFFFFFFFFFFFFFFFFFFFFFFFFFFFFFFFFFFFFFFFFFFFFFFFFFFFFFFFFFFFF DUP3 EQ ISZERO PUSH2 0x286F JUMPI PUSH2 0x286E PUSH2 0x28EB JUMP JUMPDEST JUMPDEST PUSH1 0x1 DUP3 ADD SWAP1 POP SWAP2 SWAP1 POP JUMP JUMPDEST PUSH1 0x0 PUSH2 0x2885 DUP3 PUSH2 0x289E JUMP JUMPDEST SWAP1 POP SWAP2 SWAP1 POP JUMP JUMPDEST PUSH1 0x0 PUSH2 0x2897 DUP3 PUSH2 0x289E JUMP JUMPDEST SWAP1 POP SWAP2 SWAP1 POP JUMP JUMPDEST PUSH1 0x0 PUSH2 0x28A9 DUP3 PUSH2 0x2A0E JUMP JUMPDEST SWAP1 POP SWAP2 SWAP1 POP JUMP JUMPDEST PUSH1 0x0 DUP2 SWAP1 POP SWAP2 SWAP1 POP JUMP JUMPDEST PUSH1 0x0 PUSH2 0x28C5 DUP3 PUSH2 0x2791 JUMP JUMPDEST SWAP2 POP PUSH2 0x28D0 DUP4 PUSH2 0x2791 JUMP JUMPDEST SWAP3 POP DUP3 PUSH2 0x28E0 JUMPI PUSH2 0x28DF PUSH2 0x291A JUMP JUMPDEST JUMPDEST DUP3 DUP3 MOD SWAP1 POP SWAP3 SWAP2 POP POP JUMP JUMPDEST PUSH32 0x4E487B7100000000000000000000000000000000000000000000000000000000 PUSH1 0x0 MSTORE PUSH1 0x11 PUSH1 0x4 MSTORE PUSH1 0x24 PUSH1 0x0 REVERT JUMPDEST PUSH32 0x4E487B7100000000000000000000000000000000000000000000000000000000 PUSH1 0x0 MSTORE PUSH1 0x12 PUSH1 0x4 MSTORE PUSH1 0x24 PUSH1 0x0 REVERT JUMPDEST PUSH32 0x4E487B7100000000000000000000000000000000000000000000000000000000 PUSH1 0x0 MSTORE PUSH1 0x22 PUSH1 0x4 MSTORE PUSH1 0x24 PUSH1 0x0 REVERT JUMPDEST PUSH32 0x4E487B7100000000000000000000000000000000000000000000000000000000 PUSH1 0x0 MSTORE PUSH1 0x32 PUSH1 0x4 MSTORE PUSH1 0x24 PUSH1 0x0 REVERT JUMPDEST PUSH32 0x4E487B7100000000000000000000000000000000000000000000000000000000 PUSH1 0x0 MSTORE PUSH1 0x41 PUSH1 0x4 MSTORE PUSH1 0x24 PUSH1 0x0 REVERT JUMPDEST PUSH1 0x0 PUSH1 0x3 RETURNDATASIZE GT ISZERO PUSH2 0x29F5 JUMPI PUSH1 0x4 PUSH1 0x0 DUP1 RETURNDATACOPY PUSH2 0x29F2 PUSH1 0x0 MLOAD PUSH2 0x2A1B JUMP JUMPDEST SWAP1 POP JUMPDEST SWAP1 JUMP JUMPDEST PUSH1 0x0 DUP1 REVERT JUMPDEST PUSH1 0x0 PUSH1 0x1F NOT PUSH1 0x1F DUP4 ADD AND SWAP1 POP SWAP2 SWAP1 POP JUMP JUMPDEST PUSH1 0x0 DUP2 PUSH1 0x60 SHL SWAP1 POP SWAP2 SWAP1 POP JUMP JUMPDEST PUSH1 0x0 DUP2 PUSH1 0xE0 SHR SWAP1 POP SWAP2 SWAP1 POP JUMP JUMPDEST PUSH32 0x455243313135353A207472616E7366657220746F206E6F6E2045524331313535 PUSH1 0x0 DUP3 ADD MSTORE PUSH32 0x526563656976657220696D706C656D656E746572000000000000000000000000 PUSH1 0x20 DUP3 ADD MSTORE POP JUMP JUMPDEST PUSH32 0x455243313135353A204552433131353552656365697665722072656A65637465 PUSH1 0x0 DUP3 ADD MSTORE PUSH32 0x6420746F6B656E73000000000000000000000000000000000000000000000000 PUSH1 0x20 DUP3 ADD MSTORE POP JUMP JUMPDEST PUSH32 0x4469616D6F6E645F000000000000000000000000000000000000000000000000 PUSH1 0x0 DUP3 ADD MSTORE POP JUMP JUMPDEST PUSH32 0x476F6C645F000000000000000000000000000000000000000000000000000000 PUSH1 0x0 DUP3 ADD MSTORE POP JUMP JUMPDEST PUSH32 0x4E6F7420456E6F7567682042616C616E63650000000000000000000000000000 PUSH1 0x0 DUP3 ADD MSTORE POP JUMP JUMPDEST PUSH32 0x44726F707369746520697320616C72656164792052756E6E696E670000000000 PUSH1 0x0 DUP3 ADD MSTORE POP JUMP JUMPDEST PUSH32 0x44726F707369746520697320616C72656164792053746F707065640000000000 PUSH1 0x0 DUP3 ADD MSTORE POP JUMP JUMPDEST PUSH32 0x596F752063616E206D696E7420312D33204E4654730000000000000000000000 PUSH1 0x0 DUP3 ADD MSTORE POP JUMP JUMPDEST PUSH32 0x4F6E6C79204E46542D4553204F776E65722063616E2041636365737300000000 PUSH1 0x0 DUP3 ADD MSTORE POP JUMP JUMPDEST PUSH32 0x44726F7073697465206973206E6F74204F70656E6564205965742E0000000000 PUSH1 0x0 DUP3 ADD MSTORE POP JUMP JUMPDEST PUSH32 0x4D6178204D696E74696E67204C696D6974207265616368656400000000000000 PUSH1 0x0 DUP3 ADD MSTORE POP JUMP JUMPDEST PUSH32 0x53696C7665725F00000000000000000000000000000000000000000000000000 PUSH1 0x0 DUP3 ADD MSTORE POP JUMP JUMPDEST PUSH32 0x4572726F7221204E6F2042616C616E636520746F207769746864726177000000 PUSH1 0x0 DUP3 ADD MSTORE POP JUMP JUMPDEST PUSH32 0x455243313135353A206D696E7420746F20746865207A65726F20616464726573 PUSH1 0x0 DUP3 ADD MSTORE PUSH32 0x7300000000000000000000000000000000000000000000000000000000000000 PUSH1 0x20 DUP3 ADD MSTORE POP JUMP JUMPDEST PUSH1 0x0 PUSH1 0x44 RETURNDATASIZE LT ISZERO PUSH2 0x2CE8 JUMPI PUSH2 0x2D6B JUMP JUMPDEST PUSH2 0x2CF0 PUSH2 0x2596 JUMP JUMPDEST PUSH1 0x4 RETURNDATASIZE SUB PUSH1 0x4 DUP3 RETURNDATACOPY DUP1 MLOAD RETURNDATASIZE PUSH1 0x24 DUP3 ADD GT PUSH8 0xFFFFFFFFFFFFFFFF DUP3 GT OR ISZERO PUSH2 0x2D18 JUMPI POP POP PUSH2 0x2D6B JUMP JUMPDEST DUP1 DUP3 ADD DUP1 MLOAD PUSH8 0xFFFFFFFFFFFFFFFF DUP2 GT ISZERO PUSH2 0x2D36 JUMPI POP POP POP POP PUSH2 0x2D6B JUMP JUMPDEST DUP1 PUSH1 0x20 DUP4 ADD ADD PUSH1 0x4 RETURNDATASIZE SUB DUP6 ADD DUP2 GT ISZERO PUSH2 0x2D53 JUMPI POP POP POP POP POP PUSH2 0x2D6B JUMP JUMPDEST PUSH2 0x2D62 DUP3 PUSH1 0x20 ADD DUP6 ADD DUP7 PUSH2 0x2800 JUMP JUMPDEST DUP3 SWAP6 POP POP POP POP POP POP JUMPDEST SWAP1 JUMP JUMPDEST PUSH2 0x2D77 DUP2 PUSH2 0x2715 JUMP JUMPDEST DUP2 EQ PUSH2 0x2D82 JUMPI PUSH1 0x0 DUP1 REVERT JUMPDEST POP JUMP JUMPDEST PUSH2 0x2D8E DUP2 PUSH2 0x2727 JUMP JUMPDEST DUP2 EQ PUSH2 0x2D99 JUMPI PUSH1 0x0 DUP1 REVERT JUMPDEST POP JUMP JUMPDEST PUSH2 0x2DA5 DUP2 PUSH2 0x2745 JUMP JUMPDEST DUP2 EQ PUSH2 0x2DB0 JUMPI PUSH1 0x0 DUP1 REVERT JUMPDEST POP JUMP JUMPDEST PUSH2 0x2DBC DUP2 PUSH2 0x2791 JUMP JUMPDEST DUP2 EQ PUSH2 0x2DC7 JUMPI PUSH1 0x0 DUP1 REVERT JUMPDEST POP JUMP INVALID LOG2 PUSH5 0x6970667358 0x22 SLT KECCAK256 DUP14 0xAC STOP DUP16 0x2C 0xC6 ADDRESS 0xEC 0x2B CALLDATALOAD MOD SWAP2 PUSH30 0x82D5460C39F0C0BA87504B466F297BEDD6C10064736F6C63430008070033 "
				},
				"gasEstimates": {
					"creation": {
						"codeDepositCost": "2355200",
						"executionCost": "infinite",
						"totalCost": "infinite"
					},
					"external": {
						"ContractBalance()": "2758",
						"CryptoRandomMint(address,uint256)": "infinite",
						"FiatRandomMint(address,uint256)": "infinite",
						"IsPaused()": "2539",
						"Owner()": "2608",
						"checkMintedCategoryWise()": "infinite",
						"checkTotalMinted()": "4716",
						"getMintFee()": "6930",
						"openDropsite()": "28860",
						"randomMinting(address)": "infinite",
						"returnOwner(address)": "infinite",
						"setMintFee(uint256)": "27012",
						"stopDropsite()": "28859",
						"withDraw(address)": "infinite"
					},
					"internal": {
						"depositAmount(address,uint256)": "infinite",
						"random()": "infinite",
						"updateConditions(uint256)": "infinite"
					}
				},
				"methodIdentifiers": {
					"ContractBalance()": "3b668059",
					"CryptoRandomMint(address,uint256)": "59ba3124",
					"FiatRandomMint(address,uint256)": "27a8a072",
					"IsPaused()": "1309a563",
					"Owner()": "b4a99a4e",
					"checkMintedCategoryWise()": "60daa851",
					"checkTotalMinted()": "0390c11c",
					"getMintFee()": "7a5caab3",
					"openDropsite()": "15460259",
					"randomMinting(address)": "546fd992",
					"returnOwner(address)": "fd6c3b1b",
					"setMintFee(uint256)": "eddd0d9c",
					"stopDropsite()": "aa90c726",
					"withDraw(address)": "0a67d2c7"
				}
			},
			"userdoc": {
				"kind": "user",
				"methods": {},
				"version": 1
			}
		}
	}
}