{
	"NFTES_Drop.sol": {
		"NFTES_Drop": {
			"abi": [
				{
					"inputs": [
						{
							"internalType": "string",
							"name": "name",
							"type": "string"
						}
					],
					"stateMutability": "nonpayable",
					"type": "constructor"
				},
				{
					"anonymous": false,
					"inputs": [
						{
							"indexed": true,
							"internalType": "address",
							"name": "operator",
							"type": "address"
						},
						{
							"indexed": true,
							"internalType": "address",
							"name": "from",
							"type": "address"
						},
						{
							"indexed": true,
							"internalType": "address",
							"name": "to",
							"type": "address"
						},
						{
							"indexed": false,
							"internalType": "uint256",
							"name": "id",
							"type": "uint256"
						},
						{
							"indexed": false,
							"internalType": "uint256",
							"name": "value",
							"type": "uint256"
						}
					],
					"name": "TransferSingle",
					"type": "event"
				},
				{
					"inputs": [],
					"name": "ContractBalance",
					"outputs": [
						{
							"internalType": "uint256",
							"name": "",
							"type": "uint256"
						}
					],
					"stateMutability": "view",
					"type": "function"
				},
				{
					"inputs": [
						{
							"internalType": "address",
							"name": "user_addr",
							"type": "address"
						},
						{
							"internalType": "uint256",
							"name": "noOfMints",
							"type": "uint256"
						}
					],
					"name": "CryptoRandomMint",
					"outputs": [
						{
							"internalType": "uint256[]",
							"name": "",
							"type": "uint256[]"
						}
					],
					"stateMutability": "payable",
					"type": "function"
				},
				{
					"inputs": [
						{
							"internalType": "address",
							"name": "user_addr",
							"type": "address"
						},
						{
							"internalType": "uint256",
							"name": "noOfMints",
							"type": "uint256"
						}
					],
					"name": "FiatRandomMint",
					"outputs": [
						{
							"internalType": "uint256[]",
							"name": "",
							"type": "uint256[]"
						}
					],
					"stateMutability": "nonpayable",
					"type": "function"
				},
				{
					"inputs": [],
					"name": "Owner",
					"outputs": [
						{
							"internalType": "address payable",
							"name": "",
							"type": "address"
						}
					],
					"stateMutability": "view",
					"type": "function"
				},
				{
					"inputs": [],
					"name": "checkMintedCategoryWise",
					"outputs": [
						{
							"internalType": "uint256",
							"name": "",
							"type": "uint256"
						},
						{
							"internalType": "uint256",
							"name": "",
							"type": "uint256"
						},
						{
							"internalType": "uint256",
							"name": "",
							"type": "uint256"
						}
					],
					"stateMutability": "view",
					"type": "function"
				},
				{
					"inputs": [],
					"name": "checkTotalMinted",
					"outputs": [
						{
							"internalType": "uint256",
							"name": "",
							"type": "uint256"
						}
					],
					"stateMutability": "view",
					"type": "function"
				},
				{
					"inputs": [],
					"name": "getMintFee",
					"outputs": [
						{
							"internalType": "uint256",
							"name": "",
							"type": "uint256"
						}
					],
					"stateMutability": "view",
					"type": "function"
				},
				{
					"inputs": [],
					"name": "isPaused",
					"outputs": [
						{
							"internalType": "bool",
							"name": "",
							"type": "bool"
						}
					],
					"stateMutability": "view",
					"type": "function"
				},
				{
					"inputs": [],
					"name": "openDropsite",
					"outputs": [],
					"stateMutability": "nonpayable",
					"type": "function"
				},
				{
					"inputs": [
						{
							"internalType": "address",
							"name": "user_addr",
							"type": "address"
						}
					],
					"name": "randomMinting",
					"outputs": [
						{
							"internalType": "uint256",
							"name": "",
							"type": "uint256"
						},
						{
							"internalType": "string",
							"name": "",
							"type": "string"
						}
					],
					"stateMutability": "payable",
					"type": "function"
				},
				{
					"inputs": [
						{
							"internalType": "address",
							"name": "addr",
							"type": "address"
						}
					],
					"name": "returnOwner",
					"outputs": [
						{
							"internalType": "uint256[]",
							"name": "",
							"type": "uint256[]"
						}
					],
					"stateMutability": "view",
					"type": "function"
				},
				{
					"inputs": [
						{
							"internalType": "uint256",
							"name": "_mintFee",
							"type": "uint256"
						}
					],
					"name": "setMintFee",
					"outputs": [],
					"stateMutability": "nonpayable",
					"type": "function"
				},
				{
					"inputs": [],
					"name": "stopDropsite",
					"outputs": [],
					"stateMutability": "nonpayable",
					"type": "function"
				},
				{
					"inputs": [
						{
							"internalType": "address payable",
							"name": "to",
							"type": "address"
						}
					],
					"name": "withDraw",
					"outputs": [],
					"stateMutability": "payable",
					"type": "function"
				}
			],
			"devdoc": {
				"kind": "dev",
				"methods": {},
				"version": 1
			},
			"evm": {
				"assembly": "    /* \"NFTES_Drop.sol\":142:7996  contract NFTES_Drop is ERC1155_Drop {... */\n  mstore(0x40, 0x80)\n    /* \"NFTES_Drop.sol\":232:248  string data = \"\" */\n  mload(0x40)\n  dup1\n  0x20\n  add\n  0x40\n  mstore\n  dup1\n  0x00\n  dup2\n  mstore\n  pop\n  0x02\n  swap1\n  dup1\n  mload\n  swap1\n  0x20\n  add\n  swap1\n  tag_1\n  swap3\n  swap2\n  swap1\n  tag_2\n  jump\t// in\ntag_1:\n  pop\n    /* \"NFTES_Drop.sol\":431:682  uint8[20] private nums = [... */\n  mload(0x40)\n  dup1\n  0x0280\n  add\n  0x40\n  mstore\n  dup1\n    /* \"NFTES_Drop.sol\":466:467  0 */\n  0x00\n    /* \"NFTES_Drop.sol\":431:682  uint8[20] private nums = [... */\n  0xff\n  and\n  dup2\n  mstore\n  0x20\n  add\n    /* \"NFTES_Drop.sol\":477:478  1 */\n  0x01\n    /* \"NFTES_Drop.sol\":431:682  uint8[20] private nums = [... */\n  0xff\n  and\n  dup2\n  mstore\n  0x20\n  add\n    /* \"NFTES_Drop.sol\":488:489  1 */\n  0x01\n    /* \"NFTES_Drop.sol\":431:682  uint8[20] private nums = [... */\n  0xff\n  and\n  dup2\n  mstore\n  0x20\n  add\n    /* \"NFTES_Drop.sol\":499:500  2 */\n  0x02\n    /* \"NFTES_Drop.sol\":431:682  uint8[20] private nums = [... */\n  0xff\n  and\n  dup2\n  mstore\n  0x20\n  add\n    /* \"NFTES_Drop.sol\":510:511  2 */\n  0x02\n    /* \"NFTES_Drop.sol\":431:682  uint8[20] private nums = [... */\n  0xff\n  and\n  dup2\n  mstore\n  0x20\n  add\n    /* \"NFTES_Drop.sol\":521:522  2 */\n  0x02\n    /* \"NFTES_Drop.sol\":431:682  uint8[20] private nums = [... */\n  0xff\n  and\n  dup2\n  mstore\n  0x20\n  add\n    /* \"NFTES_Drop.sol\":532:533  2 */\n  0x02\n    /* \"NFTES_Drop.sol\":431:682  uint8[20] private nums = [... */\n  0xff\n  and\n  dup2\n  mstore\n  0x20\n  add\n    /* \"NFTES_Drop.sol\":543:544  2 */\n  0x02\n    /* \"NFTES_Drop.sol\":431:682  uint8[20] private nums = [... */\n  0xff\n  and\n  dup2\n  mstore\n  0x20\n  add\n    /* \"NFTES_Drop.sol\":554:555  2 */\n  0x02\n    /* \"NFTES_Drop.sol\":431:682  uint8[20] private nums = [... */\n  0xff\n  and\n  dup2\n  mstore\n  0x20\n  add\n    /* \"NFTES_Drop.sol\":565:566  2 */\n  0x02\n    /* \"NFTES_Drop.sol\":431:682  uint8[20] private nums = [... */\n  0xff\n  and\n  dup2\n  mstore\n  0x20\n  add\n    /* \"NFTES_Drop.sol\":576:577  2 */\n  0x02\n    /* \"NFTES_Drop.sol\":431:682  uint8[20] private nums = [... */\n  0xff\n  and\n  dup2\n  mstore\n  0x20\n  add\n    /* \"NFTES_Drop.sol\":587:588  2 */\n  0x02\n    /* \"NFTES_Drop.sol\":431:682  uint8[20] private nums = [... */\n  0xff\n  and\n  dup2\n  mstore\n  0x20\n  add\n    /* \"NFTES_Drop.sol\":598:599  2 */\n  0x02\n    /* \"NFTES_Drop.sol\":431:682  uint8[20] private nums = [... */\n  0xff\n  and\n  dup2\n  mstore\n  0x20\n  add\n    /* \"NFTES_Drop.sol\":609:610  2 */\n  0x02\n    /* \"NFTES_Drop.sol\":431:682  uint8[20] private nums = [... */\n  0xff\n  and\n  dup2\n  mstore\n  0x20\n  add\n    /* \"NFTES_Drop.sol\":620:621  2 */\n  0x02\n    /* \"NFTES_Drop.sol\":431:682  uint8[20] private nums = [... */\n  0xff\n  and\n  dup2\n  mstore\n  0x20\n  add\n    /* \"NFTES_Drop.sol\":631:632  2 */\n  0x02\n    /* \"NFTES_Drop.sol\":431:682  uint8[20] private nums = [... */\n  0xff\n  and\n  dup2\n  mstore\n  0x20\n  add\n    /* \"NFTES_Drop.sol\":642:643  2 */\n  0x02\n    /* \"NFTES_Drop.sol\":431:682  uint8[20] private nums = [... */\n  0xff\n  and\n  dup2\n  mstore\n  0x20\n  add\n    /* \"NFTES_Drop.sol\":653:654  2 */\n  0x02\n    /* \"NFTES_Drop.sol\":431:682  uint8[20] private nums = [... */\n  0xff\n  and\n  dup2\n  mstore\n  0x20\n  add\n    /* \"NFTES_Drop.sol\":664:665  2 */\n  0x02\n    /* \"NFTES_Drop.sol\":431:682  uint8[20] private nums = [... */\n  0xff\n  and\n  dup2\n  mstore\n  0x20\n  add\n    /* \"NFTES_Drop.sol\":675:676  2 */\n  0x02\n    /* \"NFTES_Drop.sol\":431:682  uint8[20] private nums = [... */\n  0xff\n  and\n  dup2\n  mstore\n  pop\n  0x03\n  swap1\n  0x14\n  tag_3\n  swap3\n  swap2\n  swap1\n  tag_4\n  jump\t// in\ntag_3:\n  pop\n    /* \"NFTES_Drop.sol\":1440:1444  true */\n  0x01\n    /* \"NFTES_Drop.sol\":1417:1444  bool public isPaused = true */\n  0x0c\n  exp(0x0100, 0x00)\n  dup2\n  sload\n  dup2\n  0xff\n  mul\n  not\n  and\n  swap1\n  dup4\n  iszero\n  iszero\n  mul\n  or\n  swap1\n  sstore\n  pop\n    /* \"NFTES_Drop.sol\":1511:1772  constructor(string memory name) {... */\n  callvalue\n  dup1\n  iszero\n  tag_5\n  jumpi\n  0x00\n  dup1\n  revert\ntag_5:\n  pop\n  mload(0x40)\n  sub(codesize, bytecodeSize)\n  dup1\n  bytecodeSize\n  dup4\n  codecopy\n  dup2\n  dup2\n  add\n  0x40\n  mstore\n  dup2\n  add\n  swap1\n  tag_6\n  swap2\n  swap1\n  tag_7\n  jump\t// in\ntag_6:\n    /* \"NFTES_Drop.sol\":1561:1565  name */\n  dup1\n    /* \"NFTES_Drop.sol\":1553:1558  _name */\n  0x0d\n    /* \"NFTES_Drop.sol\":1553:1565  _name = name */\n  swap1\n  dup1\n  mload\n  swap1\n  0x20\n  add\n  swap1\n  tag_10\n  swap3\n  swap2\n  swap1\n  tag_2\n  jump\t// in\ntag_10:\n  pop\n    /* \"NFTES_Drop.sol\":1591:1601  msg.sender */\n  caller\n    /* \"NFTES_Drop.sol\":1575:1580  Owner */\n  0x0c\n  0x01\n    /* \"NFTES_Drop.sol\":1575:1602  Owner = payable(msg.sender) */\n  0x0100\n  exp\n  dup2\n  sload\n  dup2\n  0xffffffffffffffffffffffffffffffffffffffff\n  mul\n  not\n  and\n  swap1\n  dup4\n  0xffffffffffffffffffffffffffffffffffffffff\n  and\n  mul\n  or\n  swap1\n  sstore\n  pop\n    /* \"NFTES_Drop.sol\":1631:1632  0 */\n  0x00\n    /* \"NFTES_Drop.sol\":1613:1628  totalNFTsMinted */\n  0x04\n    /* \"NFTES_Drop.sol\":1613:1632  totalNFTsMinted = 0 */\n  dup2\n  swap1\n  sstore\n  pop\n    /* \"NFTES_Drop.sol\":1676:1677  1 */\n  0x01\n    /* \"NFTES_Drop.sol\":1662:1673  numOfCopies */\n  0x05\n    /* \"NFTES_Drop.sol\":1662:1677  numOfCopies = 1 */\n  dup2\n  swap1\n  sstore\n  pop\n    /* \"NFTES_Drop.sol\":1726:1727  0 */\n  0x00\n    /* \"NFTES_Drop.sol\":1716:1723  Diamond */\n  0x07\n    /* \"NFTES_Drop.sol\":1716:1727  Diamond = 0 */\n  dup2\n  swap1\n  sstore\n  pop\n    /* \"NFTES_Drop.sol\":1744:1745  0 */\n  0x00\n    /* \"NFTES_Drop.sol\":1737:1741  Gold */\n  0x08\n    /* \"NFTES_Drop.sol\":1737:1745  Gold = 0 */\n  dup2\n  swap1\n  sstore\n  pop\n    /* \"NFTES_Drop.sol\":1764:1765  0 */\n  0x00\n    /* \"NFTES_Drop.sol\":1755:1761  Silver */\n  0x09\n    /* \"NFTES_Drop.sol\":1755:1765  Silver = 0 */\n  dup2\n  swap1\n  sstore\n  pop\n    /* \"NFTES_Drop.sol\":1511:1772  constructor(string memory name) {... */\n  pop\n    /* \"NFTES_Drop.sol\":142:7996  contract NFTES_Drop is ERC1155_Drop {... */\n  jump(tag_11)\ntag_2:\n  dup3\n  dup1\n  sload\n  tag_12\n  swap1\n  tag_13\n  jump\t// in\ntag_12:\n  swap1\n  0x00\n  mstore\n  keccak256(0x00, 0x20)\n  swap1\n  0x1f\n  add\n  0x20\n  swap1\n  div\n  dup2\n  add\n  swap3\n  dup3\n  tag_15\n  jumpi\n  0x00\n  dup6\n  sstore\n  jump(tag_14)\ntag_15:\n  dup3\n  0x1f\n  lt\n  tag_16\n  jumpi\n  dup1\n  mload\n  not(0xff)\n  and\n  dup4\n  dup1\n  add\n  or\n  dup6\n  sstore\n  jump(tag_14)\ntag_16:\n  dup3\n  dup1\n  add\n  0x01\n  add\n  dup6\n  sstore\n  dup3\n  iszero\n  tag_14\n  jumpi\n  swap2\n  dup3\n  add\ntag_17:\n  dup3\n  dup2\n  gt\n  iszero\n  tag_18\n  jumpi\n  dup3\n  mload\n  dup3\n  sstore\n  swap2\n  0x20\n  add\n  swap2\n  swap1\n  0x01\n  add\n  swap1\n  jump(tag_17)\ntag_18:\ntag_14:\n  pop\n  swap1\n  pop\n  tag_19\n  swap2\n  swap1\n  tag_20\n  jump\t// in\ntag_19:\n  pop\n  swap1\n  jump\t// out\ntag_4:\n  dup3\n  add(0x1f, 0x14)\n  0x20\n  swap1\n  div\n  dup2\n  add\n  swap3\n  dup3\n  iszero\n  tag_21\n  jumpi\n  swap2\n  0x20\n  mul\n  dup3\n  add\n  0x00\ntag_22:\n  dup4\n  dup3\n  gt\n  iszero\n  tag_23\n  jumpi\n  dup4\n  mload\n  dup4\n  dup3\n  0x0100\n  exp\n  dup2\n  sload\n  dup2\n  0xff\n  mul\n  not\n  and\n  swap1\n  dup4\n  0xff\n  and\n  mul\n  or\n  swap1\n  sstore\n  pop\n  swap3\n  0x20\n  add\n  swap3\n  0x01\n  add\n  0x20\n  dup2\n  0x00\n  add\n  div\n  swap3\n  dup4\n  add\n  swap3\n  0x01\n  sub\n  mul\n  jump(tag_22)\ntag_23:\n  dup1\n  iszero\n  tag_24\n  jumpi\n  dup3\n  dup2\n  0x0100\n  exp\n  dup2\n  sload\n  swap1\n  0xff\n  mul\n  not\n  and\n  swap1\n  sstore\n  0x01\n  add\n  0x20\n  dup2\n  0x00\n  add\n  div\n  swap3\n  dup4\n  add\n  swap3\n  0x01\n  sub\n  mul\n  jump(tag_23)\ntag_24:\n  pop\ntag_21:\n  pop\n  swap1\n  pop\n  tag_25\n  swap2\n  swap1\n  tag_20\n  jump\t// in\ntag_25:\n  pop\n  swap1\n  jump\t// out\ntag_20:\ntag_26:\n  dup1\n  dup3\n  gt\n  iszero\n  tag_27\n  jumpi\n  0x00\n  dup2\n  0x00\n  swap1\n  sstore\n  pop\n  0x01\n  add\n  jump(tag_26)\ntag_27:\n  pop\n  swap1\n  jump\t// out\n    /* \"#utility.yul\":7:428   */\ntag_29:\n    /* \"#utility.yul\":96:101   */\n  0x00\n    /* \"#utility.yul\":121:187   */\n  tag_31\n    /* \"#utility.yul\":137:186   */\n  tag_32\n    /* \"#utility.yul\":179:185   */\n  dup5\n    /* \"#utility.yul\":137:186   */\n  tag_33\n  jump\t// in\ntag_32:\n    /* \"#utility.yul\":121:187   */\n  tag_34\n  jump\t// in\ntag_31:\n    /* \"#utility.yul\":112:187   */\n  swap1\n  pop\n    /* \"#utility.yul\":210:216   */\n  dup3\n    /* \"#utility.yul\":203:208   */\n  dup2\n    /* \"#utility.yul\":196:217   */\n  mstore\n    /* \"#utility.yul\":248:252   */\n  0x20\n    /* \"#utility.yul\":241:246   */\n  dup2\n    /* \"#utility.yul\":237:253   */\n  add\n    /* \"#utility.yul\":286:289   */\n  dup5\n    /* \"#utility.yul\":277:283   */\n  dup5\n    /* \"#utility.yul\":272:275   */\n  dup5\n    /* \"#utility.yul\":268:284   */\n  add\n    /* \"#utility.yul\":265:290   */\n  gt\n    /* \"#utility.yul\":262:374   */\n  iszero\n  tag_35\n  jumpi\n    /* \"#utility.yul\":293:372   */\n  tag_36\n  tag_37\n  jump\t// in\ntag_36:\n    /* \"#utility.yul\":262:374   */\ntag_35:\n    /* \"#utility.yul\":383:422   */\n  tag_38\n    /* \"#utility.yul\":415:421   */\n  dup5\n    /* \"#utility.yul\":410:413   */\n  dup3\n    /* \"#utility.yul\":405:408   */\n  dup6\n    /* \"#utility.yul\":383:422   */\n  tag_39\n  jump\t// in\ntag_38:\n    /* \"#utility.yul\":102:428   */\n  pop\n    /* \"#utility.yul\":7:428   */\n  swap4\n  swap3\n  pop\n  pop\n  pop\n  jump\t// out\n    /* \"#utility.yul\":448:803   */\ntag_40:\n    /* \"#utility.yul\":515:520   */\n  0x00\n    /* \"#utility.yul\":564:567   */\n  dup3\n    /* \"#utility.yul\":557:561   */\n  0x1f\n    /* \"#utility.yul\":549:555   */\n  dup4\n    /* \"#utility.yul\":545:562   */\n  add\n    /* \"#utility.yul\":541:568   */\n  slt\n    /* \"#utility.yul\":531:653   */\n  tag_42\n  jumpi\n    /* \"#utility.yul\":572:651   */\n  tag_43\n  tag_44\n  jump\t// in\ntag_43:\n    /* \"#utility.yul\":531:653   */\ntag_42:\n    /* \"#utility.yul\":682:688   */\n  dup2\n    /* \"#utility.yul\":676:689   */\n  mload\n    /* \"#utility.yul\":707:797   */\n  tag_45\n    /* \"#utility.yul\":793:796   */\n  dup5\n    /* \"#utility.yul\":785:791   */\n  dup3\n    /* \"#utility.yul\":778:782   */\n  0x20\n    /* \"#utility.yul\":770:776   */\n  dup7\n    /* \"#utility.yul\":766:783   */\n  add\n    /* \"#utility.yul\":707:797   */\n  tag_29\n  jump\t// in\ntag_45:\n    /* \"#utility.yul\":698:797   */\n  swap2\n  pop\n    /* \"#utility.yul\":521:803   */\n  pop\n    /* \"#utility.yul\":448:803   */\n  swap3\n  swap2\n  pop\n  pop\n  jump\t// out\n    /* \"#utility.yul\":809:1333   */\ntag_7:\n    /* \"#utility.yul\":889:895   */\n  0x00\n    /* \"#utility.yul\":938:940   */\n  0x20\n    /* \"#utility.yul\":926:935   */\n  dup3\n    /* \"#utility.yul\":917:924   */\n  dup5\n    /* \"#utility.yul\":913:936   */\n  sub\n    /* \"#utility.yul\":909:941   */\n  slt\n    /* \"#utility.yul\":906:1025   */\n  iszero\n  tag_47\n  jumpi\n    /* \"#utility.yul\":944:1023   */\n  tag_48\n  tag_49\n  jump\t// in\ntag_48:\n    /* \"#utility.yul\":906:1025   */\ntag_47:\n    /* \"#utility.yul\":1085:1086   */\n  0x00\n    /* \"#utility.yul\":1074:1083   */\n  dup3\n    /* \"#utility.yul\":1070:1087   */\n  add\n    /* \"#utility.yul\":1064:1088   */\n  mload\n    /* \"#utility.yul\":1115:1133   */\n  0xffffffffffffffff\n    /* \"#utility.yul\":1107:1113   */\n  dup2\n    /* \"#utility.yul\":1104:1134   */\n  gt\n    /* \"#utility.yul\":1101:1218   */\n  iszero\n  tag_50\n  jumpi\n    /* \"#utility.yul\":1137:1216   */\n  tag_51\n  tag_52\n  jump\t// in\ntag_51:\n    /* \"#utility.yul\":1101:1218   */\ntag_50:\n    /* \"#utility.yul\":1242:1316   */\n  tag_53\n    /* \"#utility.yul\":1308:1315   */\n  dup5\n    /* \"#utility.yul\":1299:1305   */\n  dup3\n    /* \"#utility.yul\":1288:1297   */\n  dup6\n    /* \"#utility.yul\":1284:1306   */\n  add\n    /* \"#utility.yul\":1242:1316   */\n  tag_40\n  jump\t// in\ntag_53:\n    /* \"#utility.yul\":1232:1316   */\n  swap2\n  pop\n    /* \"#utility.yul\":1035:1326   */\n  pop\n    /* \"#utility.yul\":809:1333   */\n  swap3\n  swap2\n  pop\n  pop\n  jump\t// out\n    /* \"#utility.yul\":1339:1468   */\ntag_34:\n    /* \"#utility.yul\":1373:1379   */\n  0x00\n    /* \"#utility.yul\":1400:1420   */\n  tag_55\n  tag_56\n  jump\t// in\ntag_55:\n    /* \"#utility.yul\":1390:1420   */\n  swap1\n  pop\n    /* \"#utility.yul\":1429:1462   */\n  tag_57\n    /* \"#utility.yul\":1457:1461   */\n  dup3\n    /* \"#utility.yul\":1449:1455   */\n  dup3\n    /* \"#utility.yul\":1429:1462   */\n  tag_58\n  jump\t// in\ntag_57:\n    /* \"#utility.yul\":1339:1468   */\n  swap2\n  swap1\n  pop\n  jump\t// out\n    /* \"#utility.yul\":1474:1549   */\ntag_56:\n    /* \"#utility.yul\":1507:1513   */\n  0x00\n    /* \"#utility.yul\":1540:1542   */\n  0x40\n    /* \"#utility.yul\":1534:1543   */\n  mload\n    /* \"#utility.yul\":1524:1543   */\n  swap1\n  pop\n    /* \"#utility.yul\":1474:1549   */\n  swap1\n  jump\t// out\n    /* \"#utility.yul\":1555:1863   */\ntag_33:\n    /* \"#utility.yul\":1617:1621   */\n  0x00\n    /* \"#utility.yul\":1707:1725   */\n  0xffffffffffffffff\n    /* \"#utility.yul\":1699:1705   */\n  dup3\n    /* \"#utility.yul\":1696:1726   */\n  gt\n    /* \"#utility.yul\":1693:1749   */\n  iszero\n  tag_61\n  jumpi\n    /* \"#utility.yul\":1729:1747   */\n  tag_62\n  tag_63\n  jump\t// in\ntag_62:\n    /* \"#utility.yul\":1693:1749   */\ntag_61:\n    /* \"#utility.yul\":1767:1796   */\n  tag_64\n    /* \"#utility.yul\":1789:1795   */\n  dup3\n    /* \"#utility.yul\":1767:1796   */\n  tag_65\n  jump\t// in\ntag_64:\n    /* \"#utility.yul\":1759:1796   */\n  swap1\n  pop\n    /* \"#utility.yul\":1851:1855   */\n  0x20\n    /* \"#utility.yul\":1845:1849   */\n  dup2\n    /* \"#utility.yul\":1841:1856   */\n  add\n    /* \"#utility.yul\":1833:1856   */\n  swap1\n  pop\n    /* \"#utility.yul\":1555:1863   */\n  swap2\n  swap1\n  pop\n  jump\t// out\n    /* \"#utility.yul\":1869:2176   */\ntag_39:\n    /* \"#utility.yul\":1937:1938   */\n  0x00\n    /* \"#utility.yul\":1947:2060   */\ntag_67:\n    /* \"#utility.yul\":1961:1967   */\n  dup4\n    /* \"#utility.yul\":1958:1959   */\n  dup2\n    /* \"#utility.yul\":1955:1968   */\n  lt\n    /* \"#utility.yul\":1947:2060   */\n  iszero\n  tag_69\n  jumpi\n    /* \"#utility.yul\":2046:2047   */\n  dup1\n    /* \"#utility.yul\":2041:2044   */\n  dup3\n    /* \"#utility.yul\":2037:2048   */\n  add\n    /* \"#utility.yul\":2031:2049   */\n  mload\n    /* \"#utility.yul\":2027:2028   */\n  dup2\n    /* \"#utility.yul\":2022:2025   */\n  dup5\n    /* \"#utility.yul\":2018:2029   */\n  add\n    /* \"#utility.yul\":2011:2050   */\n  mstore\n    /* \"#utility.yul\":1983:1985   */\n  0x20\n    /* \"#utility.yul\":1980:1981   */\n  dup2\n    /* \"#utility.yul\":1976:1986   */\n  add\n    /* \"#utility.yul\":1971:1986   */\n  swap1\n  pop\n    /* \"#utility.yul\":1947:2060   */\n  jump(tag_67)\ntag_69:\n    /* \"#utility.yul\":2078:2084   */\n  dup4\n    /* \"#utility.yul\":2075:2076   */\n  dup2\n    /* \"#utility.yul\":2072:2085   */\n  gt\n    /* \"#utility.yul\":2069:2170   */\n  iszero\n  tag_70\n  jumpi\n    /* \"#utility.yul\":2158:2159   */\n  0x00\n    /* \"#utility.yul\":2149:2155   */\n  dup5\n    /* \"#utility.yul\":2144:2147   */\n  dup5\n    /* \"#utility.yul\":2140:2156   */\n  add\n    /* \"#utility.yul\":2133:2160   */\n  mstore\n    /* \"#utility.yul\":2069:2170   */\ntag_70:\n    /* \"#utility.yul\":1918:2176   */\n  pop\n    /* \"#utility.yul\":1869:2176   */\n  pop\n  pop\n  pop\n  jump\t// out\n    /* \"#utility.yul\":2182:2502   */\ntag_13:\n    /* \"#utility.yul\":2226:2232   */\n  0x00\n    /* \"#utility.yul\":2263:2264   */\n  0x02\n    /* \"#utility.yul\":2257:2261   */\n  dup3\n    /* \"#utility.yul\":2253:2265   */\n  div\n    /* \"#utility.yul\":2243:2265   */\n  swap1\n  pop\n    /* \"#utility.yul\":2310:2311   */\n  0x01\n    /* \"#utility.yul\":2304:2308   */\n  dup3\n    /* \"#utility.yul\":2300:2312   */\n  and\n    /* \"#utility.yul\":2331:2349   */\n  dup1\n    /* \"#utility.yul\":2321:2402   */\n  tag_72\n  jumpi\n    /* \"#utility.yul\":2387:2391   */\n  0x7f\n    /* \"#utility.yul\":2379:2385   */\n  dup3\n    /* \"#utility.yul\":2375:2392   */\n  and\n    /* \"#utility.yul\":2365:2392   */\n  swap2\n  pop\n    /* \"#utility.yul\":2321:2402   */\ntag_72:\n    /* \"#utility.yul\":2449:2451   */\n  0x20\n    /* \"#utility.yul\":2441:2447   */\n  dup3\n    /* \"#utility.yul\":2438:2452   */\n  lt\n    /* \"#utility.yul\":2418:2436   */\n  dup2\n    /* \"#utility.yul\":2415:2453   */\n  eq\n    /* \"#utility.yul\":2412:2496   */\n  iszero\n  tag_73\n  jumpi\n    /* \"#utility.yul\":2468:2486   */\n  tag_74\n  tag_75\n  jump\t// in\ntag_74:\n    /* \"#utility.yul\":2412:2496   */\ntag_73:\n    /* \"#utility.yul\":2233:2502   */\n  pop\n    /* \"#utility.yul\":2182:2502   */\n  swap2\n  swap1\n  pop\n  jump\t// out\n    /* \"#utility.yul\":2508:2789   */\ntag_58:\n    /* \"#utility.yul\":2591:2618   */\n  tag_77\n    /* \"#utility.yul\":2613:2617   */\n  dup3\n    /* \"#utility.yul\":2591:2618   */\n  tag_65\n  jump\t// in\ntag_77:\n    /* \"#utility.yul\":2583:2589   */\n  dup2\n    /* \"#utility.yul\":2579:2619   */\n  add\n    /* \"#utility.yul\":2721:2727   */\n  dup2\n    /* \"#utility.yul\":2709:2719   */\n  dup2\n    /* \"#utility.yul\":2706:2728   */\n  lt\n    /* \"#utility.yul\":2685:2703   */\n  0xffffffffffffffff\n    /* \"#utility.yul\":2673:2683   */\n  dup3\n    /* \"#utility.yul\":2670:2704   */\n  gt\n    /* \"#utility.yul\":2667:2729   */\n  or\n    /* \"#utility.yul\":2664:2752   */\n  iszero\n  tag_78\n  jumpi\n    /* \"#utility.yul\":2732:2750   */\n  tag_79\n  tag_63\n  jump\t// in\ntag_79:\n    /* \"#utility.yul\":2664:2752   */\ntag_78:\n    /* \"#utility.yul\":2772:2782   */\n  dup1\n    /* \"#utility.yul\":2768:2770   */\n  0x40\n    /* \"#utility.yul\":2761:2783   */\n  mstore\n    /* \"#utility.yul\":2551:2789   */\n  pop\n    /* \"#utility.yul\":2508:2789   */\n  pop\n  pop\n  jump\t// out\n    /* \"#utility.yul\":2795:2975   */\ntag_75:\n    /* \"#utility.yul\":2843:2920   */\n  0x4e487b7100000000000000000000000000000000000000000000000000000000\n    /* \"#utility.yul\":2840:2841   */\n  0x00\n    /* \"#utility.yul\":2833:2921   */\n  mstore\n    /* \"#utility.yul\":2940:2944   */\n  0x22\n    /* \"#utility.yul\":2937:2938   */\n  0x04\n    /* \"#utility.yul\":2930:2945   */\n  mstore\n    /* \"#utility.yul\":2964:2968   */\n  0x24\n    /* \"#utility.yul\":2961:2962   */\n  0x00\n    /* \"#utility.yul\":2954:2969   */\n  revert\n    /* \"#utility.yul\":2981:3161   */\ntag_63:\n    /* \"#utility.yul\":3029:3106   */\n  0x4e487b7100000000000000000000000000000000000000000000000000000000\n    /* \"#utility.yul\":3026:3027   */\n  0x00\n    /* \"#utility.yul\":3019:3107   */\n  mstore\n    /* \"#utility.yul\":3126:3130   */\n  0x41\n    /* \"#utility.yul\":3123:3124   */\n  0x04\n    /* \"#utility.yul\":3116:3131   */\n  mstore\n    /* \"#utility.yul\":3150:3154   */\n  0x24\n    /* \"#utility.yul\":3147:3148   */\n  0x00\n    /* \"#utility.yul\":3140:3155   */\n  revert\n    /* \"#utility.yul\":3167:3284   */\ntag_44:\n    /* \"#utility.yul\":3276:3277   */\n  0x00\n    /* \"#utility.yul\":3273:3274   */\n  dup1\n    /* \"#utility.yul\":3266:3278   */\n  revert\n    /* \"#utility.yul\":3290:3407   */\ntag_37:\n    /* \"#utility.yul\":3399:3400   */\n  0x00\n    /* \"#utility.yul\":3396:3397   */\n  dup1\n    /* \"#utility.yul\":3389:3401   */\n  revert\n    /* \"#utility.yul\":3413:3530   */\ntag_52:\n    /* \"#utility.yul\":3522:3523   */\n  0x00\n    /* \"#utility.yul\":3519:3520   */\n  dup1\n    /* \"#utility.yul\":3512:3524   */\n  revert\n    /* \"#utility.yul\":3536:3653   */\ntag_49:\n    /* \"#utility.yul\":3645:3646   */\n  0x00\n    /* \"#utility.yul\":3642:3643   */\n  dup1\n    /* \"#utility.yul\":3635:3647   */\n  revert\n    /* \"#utility.yul\":3659:3761   */\ntag_65:\n    /* \"#utility.yul\":3700:3706   */\n  0x00\n    /* \"#utility.yul\":3751:3753   */\n  0x1f\n    /* \"#utility.yul\":3747:3754   */\n  not\n    /* \"#utility.yul\":3742:3744   */\n  0x1f\n    /* \"#utility.yul\":3735:3740   */\n  dup4\n    /* \"#utility.yul\":3731:3745   */\n  add\n    /* \"#utility.yul\":3727:3755   */\n  and\n    /* \"#utility.yul\":3717:3755   */\n  swap1\n  pop\n    /* \"#utility.yul\":3659:3761   */\n  swap2\n  swap1\n  pop\n  jump\t// out\n    /* \"NFTES_Drop.sol\":142:7996  contract NFTES_Drop is ERC1155_Drop {... */\ntag_11:\n  dataSize(sub_0)\n  dup1\n  dataOffset(sub_0)\n  0x00\n  codecopy\n  0x00\n  return\nstop\n\nsub_0: assembly {\n        /* \"NFTES_Drop.sol\":142:7996  contract NFTES_Drop is ERC1155_Drop {... */\n      mstore(0x40, 0x80)\n      jumpi(tag_1, lt(calldatasize, 0x04))\n      shr(0xe0, calldataload(0x00))\n      dup1\n      0x60daa851\n      gt\n      tag_16\n      jumpi\n      dup1\n      0xb187bd26\n      gt\n      tag_17\n      jumpi\n      dup1\n      0xb187bd26\n      eq\n      tag_12\n      jumpi\n      dup1\n      0xb4a99a4e\n      eq\n      tag_13\n      jumpi\n      dup1\n      0xeddd0d9c\n      eq\n      tag_14\n      jumpi\n      dup1\n      0xfd6c3b1b\n      eq\n      tag_15\n      jumpi\n      jump(tag_1)\n    tag_17:\n      dup1\n      0x60daa851\n      eq\n      tag_9\n      jumpi\n      dup1\n      0x7a5caab3\n      eq\n      tag_10\n      jumpi\n      dup1\n      0xaa90c726\n      eq\n      tag_11\n      jumpi\n      jump(tag_1)\n    tag_16:\n      dup1\n      0x27a8a072\n      gt\n      tag_18\n      jumpi\n      dup1\n      0x27a8a072\n      eq\n      tag_5\n      jumpi\n      dup1\n      0x3b668059\n      eq\n      tag_6\n      jumpi\n      dup1\n      0x546fd992\n      eq\n      tag_7\n      jumpi\n      dup1\n      0x59ba3124\n      eq\n      tag_8\n      jumpi\n      jump(tag_1)\n    tag_18:\n      dup1\n      0x0390c11c\n      eq\n      tag_2\n      jumpi\n      dup1\n      0x0a67d2c7\n      eq\n      tag_3\n      jumpi\n      dup1\n      0x15460259\n      eq\n      tag_4\n      jumpi\n    tag_1:\n      0x00\n      dup1\n      revert\n        /* \"NFTES_Drop.sol\":2637:2744  function checkTotalMinted() public view OnlyOwner returns (uint256) {... */\n    tag_2:\n      callvalue\n      dup1\n      iszero\n      tag_19\n      jumpi\n      0x00\n      dup1\n      revert\n    tag_19:\n      pop\n      tag_20\n      tag_21\n      jump\t// in\n    tag_20:\n      mload(0x40)\n      tag_22\n      swap2\n      swap1\n      tag_23\n      jump\t// in\n    tag_22:\n      mload(0x40)\n      dup1\n      swap2\n      sub\n      swap1\n      return\n        /* \"NFTES_Drop.sol\":3125:3341  function withDraw(address payable to) public payable OnlyOwner {... */\n    tag_3:\n      tag_24\n      0x04\n      dup1\n      calldatasize\n      sub\n      dup2\n      add\n      swap1\n      tag_25\n      swap2\n      swap1\n      tag_26\n      jump\t// in\n    tag_25:\n      tag_27\n      jump\t// in\n    tag_24:\n      stop\n        /* \"NFTES_Drop.sol\":2896:3036  function openDropsite() public OnlyOwner {... */\n    tag_4:\n      callvalue\n      dup1\n      iszero\n      tag_28\n      jumpi\n      0x00\n      dup1\n      revert\n    tag_28:\n      pop\n      tag_29\n      tag_30\n      jump\t// in\n    tag_29:\n      stop\n        /* \"NFTES_Drop.sol\":6598:7127  function FiatRandomMint(address user_addr, uint256 noOfMints)... */\n    tag_5:\n      callvalue\n      dup1\n      iszero\n      tag_31\n      jumpi\n      0x00\n      dup1\n      revert\n    tag_31:\n      pop\n      tag_32\n      0x04\n      dup1\n      calldatasize\n      sub\n      dup2\n      add\n      swap1\n      tag_33\n      swap2\n      swap1\n      tag_34\n      jump\t// in\n    tag_33:\n      tag_35\n      jump\t// in\n    tag_32:\n      mload(0x40)\n      tag_36\n      swap2\n      swap1\n      tag_37\n      jump\t// in\n    tag_36:\n      mload(0x40)\n      dup1\n      swap2\n      sub\n      swap1\n      return\n        /* \"NFTES_Drop.sol\":3386:3498  function ContractBalance() public view OnlyOwner returns (uint256) {... */\n    tag_6:\n      callvalue\n      dup1\n      iszero\n      tag_38\n      jumpi\n      0x00\n      dup1\n      revert\n    tag_38:\n      pop\n      tag_39\n      tag_40\n      jump\t// in\n    tag_39:\n      mload(0x40)\n      tag_41\n      swap2\n      swap1\n      tag_23\n      jump\t// in\n    tag_41:\n      mload(0x40)\n      dup1\n      swap2\n      sub\n      swap1\n      return\n        /* \"NFTES_Drop.sol\":6029:6551  function randomMinting(address user_addr)... */\n    tag_7:\n      tag_42\n      0x04\n      dup1\n      calldatasize\n      sub\n      dup2\n      add\n      swap1\n      tag_43\n      swap2\n      swap1\n      tag_44\n      jump\t// in\n    tag_43:\n      tag_45\n      jump\t// in\n    tag_42:\n      mload(0x40)\n      tag_46\n      swap3\n      swap2\n      swap1\n      tag_47\n      jump\t// in\n    tag_46:\n      mload(0x40)\n      dup1\n      swap2\n      sub\n      swap1\n      return\n        /* \"NFTES_Drop.sol\":7342:7994  function CryptoRandomMint(address user_addr, uint256 noOfMints)... */\n    tag_8:\n      tag_48\n      0x04\n      dup1\n      calldatasize\n      sub\n      dup2\n      add\n      swap1\n      tag_49\n      swap2\n      swap1\n      tag_34\n      jump\t// in\n    tag_49:\n      tag_50\n      jump\t// in\n    tag_48:\n      mload(0x40)\n      tag_51\n      swap2\n      swap1\n      tag_37\n      jump\t// in\n    tag_51:\n      mload(0x40)\n      dup1\n      swap2\n      sub\n      swap1\n      return\n        /* \"NFTES_Drop.sol\":2067:2317  function checkMintedCategoryWise()... */\n    tag_9:\n      callvalue\n      dup1\n      iszero\n      tag_52\n      jumpi\n      0x00\n      dup1\n      revert\n    tag_52:\n      pop\n      tag_53\n      tag_54\n      jump\t// in\n    tag_53:\n      mload(0x40)\n      tag_55\n      swap4\n      swap3\n      swap2\n      swap1\n      tag_56\n      jump\t// in\n    tag_55:\n      mload(0x40)\n      dup1\n      swap2\n      sub\n      swap1\n      return\n        /* \"NFTES_Drop.sol\":2440:2598  function getMintFee()... */\n    tag_10:\n      callvalue\n      dup1\n      iszero\n      tag_57\n      jumpi\n      0x00\n      dup1\n      revert\n    tag_57:\n      pop\n      tag_58\n      tag_59\n      jump\t// in\n    tag_58:\n      mload(0x40)\n      tag_60\n      swap2\n      swap1\n      tag_23\n      jump\t// in\n    tag_60:\n      mload(0x40)\n      dup1\n      swap2\n      sub\n      swap1\n      return\n        /* \"NFTES_Drop.sol\":2750:2890  function stopDropsite() public OnlyOwner {... */\n    tag_11:\n      callvalue\n      dup1\n      iszero\n      tag_61\n      jumpi\n      0x00\n      dup1\n      revert\n    tag_61:\n      pop\n      tag_62\n      tag_63\n      jump\t// in\n    tag_62:\n      stop\n        /* \"NFTES_Drop.sol\":1417:1444  bool public isPaused = true */\n    tag_12:\n      callvalue\n      dup1\n      iszero\n      tag_64\n      jumpi\n      0x00\n      dup1\n      revert\n    tag_64:\n      pop\n      tag_65\n      tag_66\n      jump\t// in\n    tag_65:\n      mload(0x40)\n      tag_67\n      swap2\n      swap1\n      tag_68\n      jump\t// in\n    tag_67:\n      mload(0x40)\n      dup1\n      swap2\n      sub\n      swap1\n      return\n        /* \"NFTES_Drop.sol\":1450:1478  address payable public Owner */\n    tag_13:\n      callvalue\n      dup1\n      iszero\n      tag_69\n      jumpi\n      0x00\n      dup1\n      revert\n    tag_69:\n      pop\n      tag_70\n      tag_71\n      jump\t// in\n    tag_70:\n      mload(0x40)\n      tag_72\n      swap2\n      swap1\n      tag_73\n      jump\t// in\n    tag_72:\n      mload(0x40)\n      dup1\n      swap2\n      sub\n      swap1\n      return\n        /* \"NFTES_Drop.sol\":2323:2434  function setMintFee(uint256 _mintFee) public OnlyOwner contractIsNotPaused {... */\n    tag_14:\n      callvalue\n      dup1\n      iszero\n      tag_74\n      jumpi\n      0x00\n      dup1\n      revert\n    tag_74:\n      pop\n      tag_75\n      0x04\n      dup1\n      calldatasize\n      sub\n      dup2\n      add\n      swap1\n      tag_76\n      swap2\n      swap1\n      tag_77\n      jump\t// in\n    tag_76:\n      tag_78\n      jump\t// in\n    tag_75:\n      stop\n        /* \"NFTES_Drop.sol\":1816:2014  function returnOwner(address addr)... */\n    tag_15:\n      callvalue\n      dup1\n      iszero\n      tag_79\n      jumpi\n      0x00\n      dup1\n      revert\n    tag_79:\n      pop\n      tag_80\n      0x04\n      dup1\n      calldatasize\n      sub\n      dup2\n      add\n      swap1\n      tag_81\n      swap2\n      swap1\n      tag_44\n      jump\t// in\n    tag_81:\n      tag_82\n      jump\t// in\n    tag_80:\n      mload(0x40)\n      tag_83\n      swap2\n      swap1\n      tag_37\n      jump\t// in\n    tag_83:\n      mload(0x40)\n      dup1\n      swap2\n      sub\n      swap1\n      return\n        /* \"NFTES_Drop.sol\":2637:2744  function checkTotalMinted() public view OnlyOwner returns (uint256) {... */\n    tag_21:\n        /* \"NFTES_Drop.sol\":2696:2703  uint256 */\n      0x00\n        /* \"NFTES_Drop.sol\":1192:1197  Owner */\n      0x0c\n      0x01\n      swap1\n      sload\n      swap1\n      0x0100\n      exp\n      swap1\n      div\n      0xffffffffffffffffffffffffffffffffffffffff\n      and\n        /* \"NFTES_Drop.sol\":1176:1197  _msgSender() == Owner */\n      0xffffffffffffffffffffffffffffffffffffffff\n      and\n        /* \"NFTES_Drop.sol\":1176:1188  _msgSender() */\n      tag_85\n        /* \"NFTES_Drop.sol\":1176:1186  _msgSender */\n      tag_86\n        /* \"NFTES_Drop.sol\":1176:1188  _msgSender() */\n      jump\t// in\n    tag_85:\n        /* \"NFTES_Drop.sol\":1176:1197  _msgSender() == Owner */\n      0xffffffffffffffffffffffffffffffffffffffff\n      and\n      eq\n        /* \"NFTES_Drop.sol\":1168:1230  require(_msgSender() == Owner, \"Only NFT-ES Owner can Access\") */\n      tag_87\n      jumpi\n      mload(0x40)\n      0x08c379a000000000000000000000000000000000000000000000000000000000\n      dup2\n      mstore\n      0x04\n      add\n      tag_88\n      swap1\n      tag_89\n      jump\t// in\n    tag_88:\n      mload(0x40)\n      dup1\n      swap2\n      sub\n      swap1\n      revert\n    tag_87:\n        /* \"NFTES_Drop.sol\":2722:2737  totalNFTsMinted */\n      sload(0x04)\n        /* \"NFTES_Drop.sol\":2715:2737  return totalNFTsMinted */\n      swap1\n      pop\n        /* \"NFTES_Drop.sol\":2637:2744  function checkTotalMinted() public view OnlyOwner returns (uint256) {... */\n      swap1\n      jump\t// out\n        /* \"NFTES_Drop.sol\":3125:3341  function withDraw(address payable to) public payable OnlyOwner {... */\n    tag_27:\n        /* \"NFTES_Drop.sol\":1192:1197  Owner */\n      0x0c\n      0x01\n      swap1\n      sload\n      swap1\n      0x0100\n      exp\n      swap1\n      div\n      0xffffffffffffffffffffffffffffffffffffffff\n      and\n        /* \"NFTES_Drop.sol\":1176:1197  _msgSender() == Owner */\n      0xffffffffffffffffffffffffffffffffffffffff\n      and\n        /* \"NFTES_Drop.sol\":1176:1188  _msgSender() */\n      tag_92\n        /* \"NFTES_Drop.sol\":1176:1186  _msgSender */\n      tag_86\n        /* \"NFTES_Drop.sol\":1176:1188  _msgSender() */\n      jump\t// in\n    tag_92:\n        /* \"NFTES_Drop.sol\":1176:1197  _msgSender() == Owner */\n      0xffffffffffffffffffffffffffffffffffffffff\n      and\n      eq\n        /* \"NFTES_Drop.sol\":1168:1230  require(_msgSender() == Owner, \"Only NFT-ES Owner can Access\") */\n      tag_93\n      jumpi\n      mload(0x40)\n      0x08c379a000000000000000000000000000000000000000000000000000000000\n      dup2\n      mstore\n      0x04\n      add\n      tag_94\n      swap1\n      tag_89\n      jump\t// in\n    tag_94:\n      mload(0x40)\n      dup1\n      swap2\n      sub\n      swap1\n      revert\n    tag_93:\n        /* \"NFTES_Drop.sol\":3198:3213  uint256 Balance */\n      0x00\n        /* \"NFTES_Drop.sol\":3216:3237  address(this).balance */\n      selfbalance\n        /* \"NFTES_Drop.sol\":3198:3237  uint256 Balance = address(this).balance */\n      swap1\n      pop\n        /* \"NFTES_Drop.sol\":3265:3270  0 wei */\n      0x00\n        /* \"NFTES_Drop.sol\":3255:3262  Balance */\n      dup2\n        /* \"NFTES_Drop.sol\":3255:3270  Balance > 0 wei */\n      gt\n        /* \"NFTES_Drop.sol\":3247:3304  require(Balance > 0 wei, \"Error! No Balance to withdraw\") */\n      tag_96\n      jumpi\n      mload(0x40)\n      0x08c379a000000000000000000000000000000000000000000000000000000000\n      dup2\n      mstore\n      0x04\n      add\n      tag_97\n      swap1\n      tag_98\n      jump\t// in\n    tag_97:\n      mload(0x40)\n      dup1\n      swap2\n      sub\n      swap1\n      revert\n    tag_96:\n        /* \"NFTES_Drop.sol\":3314:3316  to */\n      dup2\n        /* \"NFTES_Drop.sol\":3314:3325  to.transfer */\n      0xffffffffffffffffffffffffffffffffffffffff\n      and\n        /* \"NFTES_Drop.sol\":3314:3334  to.transfer(Balance) */\n      0x08fc\n        /* \"NFTES_Drop.sol\":3326:3333  Balance */\n      dup3\n        /* \"NFTES_Drop.sol\":3314:3334  to.transfer(Balance) */\n      swap1\n      dup2\n      iszero\n      mul\n      swap1\n      mload(0x40)\n      0x00\n      mload(0x40)\n      dup1\n      dup4\n      sub\n      dup2\n      dup6\n      dup9\n      dup9\n      call\n      swap4\n      pop\n      pop\n      pop\n      pop\n      iszero\n      dup1\n      iszero\n      tag_100\n      jumpi\n      returndatasize\n      0x00\n      dup1\n      returndatacopy\n      revert(0x00, returndatasize)\n    tag_100:\n      pop\n        /* \"NFTES_Drop.sol\":3188:3341  {... */\n      pop\n        /* \"NFTES_Drop.sol\":3125:3341  function withDraw(address payable to) public payable OnlyOwner {... */\n      pop\n      jump\t// out\n        /* \"NFTES_Drop.sol\":2896:3036  function openDropsite() public OnlyOwner {... */\n    tag_30:\n        /* \"NFTES_Drop.sol\":1192:1197  Owner */\n      0x0c\n      0x01\n      swap1\n      sload\n      swap1\n      0x0100\n      exp\n      swap1\n      div\n      0xffffffffffffffffffffffffffffffffffffffff\n      and\n        /* \"NFTES_Drop.sol\":1176:1197  _msgSender() == Owner */\n      0xffffffffffffffffffffffffffffffffffffffff\n      and\n        /* \"NFTES_Drop.sol\":1176:1188  _msgSender() */\n      tag_102\n        /* \"NFTES_Drop.sol\":1176:1186  _msgSender */\n      tag_86\n        /* \"NFTES_Drop.sol\":1176:1188  _msgSender() */\n      jump\t// in\n    tag_102:\n        /* \"NFTES_Drop.sol\":1176:1197  _msgSender() == Owner */\n      0xffffffffffffffffffffffffffffffffffffffff\n      and\n      eq\n        /* \"NFTES_Drop.sol\":1168:1230  require(_msgSender() == Owner, \"Only NFT-ES Owner can Access\") */\n      tag_103\n      jumpi\n      mload(0x40)\n      0x08c379a000000000000000000000000000000000000000000000000000000000\n      dup2\n      mstore\n      0x04\n      add\n      tag_104\n      swap1\n      tag_89\n      jump\t// in\n    tag_104:\n      mload(0x40)\n      dup1\n      swap2\n      sub\n      swap1\n      revert\n    tag_103:\n        /* \"NFTES_Drop.sol\":2967:2971  true */\n      0x01\n        /* \"NFTES_Drop.sol\":2955:2971  isPaused == true */\n      iszero\n      iszero\n        /* \"NFTES_Drop.sol\":2955:2963  isPaused */\n      0x0c\n      0x00\n      swap1\n      sload\n      swap1\n      0x0100\n      exp\n      swap1\n      div\n      0xff\n      and\n        /* \"NFTES_Drop.sol\":2955:2971  isPaused == true */\n      iszero\n      iszero\n      eq\n        /* \"NFTES_Drop.sol\":2947:3003  require(isPaused == true, \"Dropsite is already Running\") */\n      tag_106\n      jumpi\n      mload(0x40)\n      0x08c379a000000000000000000000000000000000000000000000000000000000\n      dup2\n      mstore\n      0x04\n      add\n      tag_107\n      swap1\n      tag_108\n      jump\t// in\n    tag_107:\n      mload(0x40)\n      dup1\n      swap2\n      sub\n      swap1\n      revert\n    tag_106:\n        /* \"NFTES_Drop.sol\":3024:3029  false */\n      0x00\n        /* \"NFTES_Drop.sol\":3013:3021  isPaused */\n      0x0c\n      0x00\n        /* \"NFTES_Drop.sol\":3013:3029  isPaused = false */\n      0x0100\n      exp\n      dup2\n      sload\n      dup2\n      0xff\n      mul\n      not\n      and\n      swap1\n      dup4\n      iszero\n      iszero\n      mul\n      or\n      swap1\n      sstore\n      pop\n        /* \"NFTES_Drop.sol\":2896:3036  function openDropsite() public OnlyOwner {... */\n      jump\t// out\n        /* \"NFTES_Drop.sol\":6598:7127  function FiatRandomMint(address user_addr, uint256 noOfMints)... */\n    tag_35:\n        /* \"NFTES_Drop.sol\":6738:6754  uint256[] memory */\n      0x60\n        /* \"NFTES_Drop.sol\":1192:1197  Owner */\n      0x0c\n      0x01\n      swap1\n      sload\n      swap1\n      0x0100\n      exp\n      swap1\n      div\n      0xffffffffffffffffffffffffffffffffffffffff\n      and\n        /* \"NFTES_Drop.sol\":1176:1197  _msgSender() == Owner */\n      0xffffffffffffffffffffffffffffffffffffffff\n      and\n        /* \"NFTES_Drop.sol\":1176:1188  _msgSender() */\n      tag_110\n        /* \"NFTES_Drop.sol\":1176:1186  _msgSender */\n      tag_86\n        /* \"NFTES_Drop.sol\":1176:1188  _msgSender() */\n      jump\t// in\n    tag_110:\n        /* \"NFTES_Drop.sol\":1176:1197  _msgSender() == Owner */\n      0xffffffffffffffffffffffffffffffffffffffff\n      and\n      eq\n        /* \"NFTES_Drop.sol\":1168:1230  require(_msgSender() == Owner, \"Only NFT-ES Owner can Access\") */\n      tag_111\n      jumpi\n      mload(0x40)\n      0x08c379a000000000000000000000000000000000000000000000000000000000\n      dup2\n      mstore\n      0x04\n      add\n      tag_112\n      swap1\n      tag_89\n      jump\t// in\n    tag_112:\n      mload(0x40)\n      dup1\n      swap2\n      sub\n      swap1\n      revert\n    tag_111:\n        /* \"NFTES_Drop.sol\":1357:1362  false */\n      0x00\n        /* \"NFTES_Drop.sol\":1345:1362  isPaused == false */\n      iszero\n      iszero\n        /* \"NFTES_Drop.sol\":1345:1353  isPaused */\n      0x0c\n      0x00\n      swap1\n      sload\n      swap1\n      0x0100\n      exp\n      swap1\n      div\n      0xff\n      and\n        /* \"NFTES_Drop.sol\":1345:1362  isPaused == false */\n      iszero\n      iszero\n      eq\n        /* \"NFTES_Drop.sol\":1337:1394  require(isPaused == false, \"Dropsite is not Opened Yet.\") */\n      tag_114\n      jumpi\n      mload(0x40)\n      0x08c379a000000000000000000000000000000000000000000000000000000000\n      dup2\n      mstore\n      0x04\n      add\n      tag_115\n      swap1\n      tag_116\n      jump\t// in\n    tag_115:\n      mload(0x40)\n      dup1\n      swap2\n      sub\n      swap1\n      revert\n    tag_114:\n        /* \"NFTES_Drop.sol\":6790:6791  4 */\n      0x04\n        /* \"NFTES_Drop.sol\":6778:6787  noOfMints */\n      dup3\n        /* \"NFTES_Drop.sol\":6778:6791  noOfMints < 4 */\n      lt\n        /* \"NFTES_Drop.sol\":6778:6808  noOfMints < 4 && noOfMints > 0 */\n      dup1\n      iszero\n      tag_118\n      jumpi\n      pop\n        /* \"NFTES_Drop.sol\":6807:6808  0 */\n      0x00\n        /* \"NFTES_Drop.sol\":6795:6804  noOfMints */\n      dup3\n        /* \"NFTES_Drop.sol\":6795:6808  noOfMints > 0 */\n      gt\n        /* \"NFTES_Drop.sol\":6778:6808  noOfMints < 4 && noOfMints > 0 */\n    tag_118:\n        /* \"NFTES_Drop.sol\":6770:6834  require(noOfMints < 4 && noOfMints > 0, \"You can mint 1-3 NFTs\") */\n      tag_119\n      jumpi\n      mload(0x40)\n      0x08c379a000000000000000000000000000000000000000000000000000000000\n      dup2\n      mstore\n      0x04\n      add\n      tag_120\n      swap1\n      tag_121\n      jump\t// in\n    tag_120:\n      mload(0x40)\n      dup1\n      swap2\n      sub\n      swap1\n      revert\n    tag_119:\n        /* \"NFTES_Drop.sol\":6870:6874  1000 */\n      0x03e8\n        /* \"NFTES_Drop.sol\":6852:6867  totalNFTsMinted */\n      sload(0x04)\n        /* \"NFTES_Drop.sol\":6852:6874  totalNFTsMinted < 1000 */\n      lt\n        /* \"NFTES_Drop.sol\":6844:6904  require(totalNFTsMinted < 1000, \"Max Minting Limit reached\") */\n      tag_122\n      jumpi\n      mload(0x40)\n      0x08c379a000000000000000000000000000000000000000000000000000000000\n      dup2\n      mstore\n      0x04\n      add\n      tag_123\n      swap1\n      tag_124\n      jump\t// in\n    tag_123:\n      mload(0x40)\n      dup1\n      swap2\n      sub\n      swap1\n      revert\n    tag_122:\n        /* \"NFTES_Drop.sol\":6934:6935  0 */\n      0x00\n        /* \"NFTES_Drop.sol\":6922:6930  mintFees */\n      sload(0x06)\n        /* \"NFTES_Drop.sol\":6922:6935  mintFees != 0 */\n      eq\n      iszero\n        /* \"NFTES_Drop.sol\":6914:6956  require(mintFees != 0, \"Mint Fee Not Set\") */\n      tag_125\n      jumpi\n      mload(0x40)\n      0x08c379a000000000000000000000000000000000000000000000000000000000\n      dup2\n      mstore\n      0x04\n      add\n      tag_126\n      swap1\n      tag_127\n      jump\t// in\n    tag_126:\n      mload(0x40)\n      dup1\n      swap2\n      sub\n      swap1\n      revert\n    tag_125:\n        /* \"NFTES_Drop.sol\":6971:6980  uint256 i */\n      0x00\n        /* \"NFTES_Drop.sol\":6966:7055  for (uint256 i = 0; i < noOfMints; i++) {... */\n    tag_128:\n        /* \"NFTES_Drop.sol\":6990:6999  noOfMints */\n      dup3\n        /* \"NFTES_Drop.sol\":6986:6987  i */\n      dup2\n        /* \"NFTES_Drop.sol\":6986:6999  i < noOfMints */\n      lt\n        /* \"NFTES_Drop.sol\":6966:7055  for (uint256 i = 0; i < noOfMints; i++) {... */\n      iszero\n      tag_129\n      jumpi\n        /* \"NFTES_Drop.sol\":7020:7044  randomMinting(user_addr) */\n      tag_131\n        /* \"NFTES_Drop.sol\":7034:7043  user_addr */\n      dup5\n        /* \"NFTES_Drop.sol\":7020:7033  randomMinting */\n      tag_45\n        /* \"NFTES_Drop.sol\":7020:7044  randomMinting(user_addr) */\n      jump\t// in\n    tag_131:\n      pop\n      pop\n        /* \"NFTES_Drop.sol\":7001:7004  i++ */\n      dup1\n      dup1\n      tag_132\n      swap1\n      tag_133\n      jump\t// in\n    tag_132:\n      swap2\n      pop\n      pop\n        /* \"NFTES_Drop.sol\":6966:7055  for (uint256 i = 0; i < noOfMints; i++) {... */\n      jump(tag_128)\n    tag_129:\n      pop\n        /* \"NFTES_Drop.sol\":7071:7089  dropsite_NFT_Owner */\n      0x0a\n        /* \"NFTES_Drop.sol\":7071:7100  dropsite_NFT_Owner[user_addr] */\n      0x00\n        /* \"NFTES_Drop.sol\":7090:7099  user_addr */\n      dup5\n        /* \"NFTES_Drop.sol\":7071:7100  dropsite_NFT_Owner[user_addr] */\n      0xffffffffffffffffffffffffffffffffffffffff\n      and\n      0xffffffffffffffffffffffffffffffffffffffff\n      and\n      dup2\n      mstore\n      0x20\n      add\n      swap1\n      dup2\n      mstore\n      0x20\n      add\n      0x00\n      keccak256\n        /* \"NFTES_Drop.sol\":7071:7120  dropsite_NFT_Owner[user_addr].owned_Dropsite_NFTs */\n      0x00\n      add\n        /* \"NFTES_Drop.sol\":7064:7120  return dropsite_NFT_Owner[user_addr].owned_Dropsite_NFTs */\n      dup1\n      sload\n      dup1\n      0x20\n      mul\n      0x20\n      add\n      mload(0x40)\n      swap1\n      dup2\n      add\n      0x40\n      mstore\n      dup1\n      swap3\n      swap2\n      swap1\n      dup2\n      dup2\n      mstore\n      0x20\n      add\n      dup3\n      dup1\n      sload\n      dup1\n      iszero\n      tag_134\n      jumpi\n      0x20\n      mul\n      dup3\n      add\n      swap2\n      swap1\n      0x00\n      mstore\n      keccak256(0x00, 0x20)\n      swap1\n    tag_135:\n      dup2\n      sload\n      dup2\n      mstore\n      0x20\n      add\n      swap1\n      0x01\n      add\n      swap1\n      dup1\n      dup4\n      gt\n      tag_135\n      jumpi\n    tag_134:\n      pop\n      pop\n      pop\n      pop\n      pop\n      swap1\n      pop\n        /* \"NFTES_Drop.sol\":6598:7127  function FiatRandomMint(address user_addr, uint256 noOfMints)... */\n      swap3\n      swap2\n      pop\n      pop\n      jump\t// out\n        /* \"NFTES_Drop.sol\":3386:3498  function ContractBalance() public view OnlyOwner returns (uint256) {... */\n    tag_40:\n        /* \"NFTES_Drop.sol\":3444:3451  uint256 */\n      0x00\n        /* \"NFTES_Drop.sol\":1192:1197  Owner */\n      0x0c\n      0x01\n      swap1\n      sload\n      swap1\n      0x0100\n      exp\n      swap1\n      div\n      0xffffffffffffffffffffffffffffffffffffffff\n      and\n        /* \"NFTES_Drop.sol\":1176:1197  _msgSender() == Owner */\n      0xffffffffffffffffffffffffffffffffffffffff\n      and\n        /* \"NFTES_Drop.sol\":1176:1188  _msgSender() */\n      tag_137\n        /* \"NFTES_Drop.sol\":1176:1186  _msgSender */\n      tag_86\n        /* \"NFTES_Drop.sol\":1176:1188  _msgSender() */\n      jump\t// in\n    tag_137:\n        /* \"NFTES_Drop.sol\":1176:1197  _msgSender() == Owner */\n      0xffffffffffffffffffffffffffffffffffffffff\n      and\n      eq\n        /* \"NFTES_Drop.sol\":1168:1230  require(_msgSender() == Owner, \"Only NFT-ES Owner can Access\") */\n      tag_138\n      jumpi\n      mload(0x40)\n      0x08c379a000000000000000000000000000000000000000000000000000000000\n      dup2\n      mstore\n      0x04\n      add\n      tag_139\n      swap1\n      tag_89\n      jump\t// in\n    tag_139:\n      mload(0x40)\n      dup1\n      swap2\n      sub\n      swap1\n      revert\n    tag_138:\n        /* \"NFTES_Drop.sol\":3470:3491  address(this).balance */\n      selfbalance\n        /* \"NFTES_Drop.sol\":3463:3491  return address(this).balance */\n      swap1\n      pop\n        /* \"NFTES_Drop.sol\":3386:3498  function ContractBalance() public view OnlyOwner returns (uint256) {... */\n      swap1\n      jump\t// out\n        /* \"NFTES_Drop.sol\":6029:6551  function randomMinting(address user_addr)... */\n    tag_45:\n        /* \"NFTES_Drop.sol\":6165:6172  uint256 */\n      0x00\n        /* \"NFTES_Drop.sol\":6174:6187  string memory */\n      0x60\n        /* \"NFTES_Drop.sol\":1192:1197  Owner */\n      0x0c\n      0x01\n      swap1\n      sload\n      swap1\n      0x0100\n      exp\n      swap1\n      div\n      0xffffffffffffffffffffffffffffffffffffffff\n      and\n        /* \"NFTES_Drop.sol\":1176:1197  _msgSender() == Owner */\n      0xffffffffffffffffffffffffffffffffffffffff\n      and\n        /* \"NFTES_Drop.sol\":1176:1188  _msgSender() */\n      tag_142\n        /* \"NFTES_Drop.sol\":1176:1186  _msgSender */\n      tag_86\n        /* \"NFTES_Drop.sol\":1176:1188  _msgSender() */\n      jump\t// in\n    tag_142:\n        /* \"NFTES_Drop.sol\":1176:1197  _msgSender() == Owner */\n      0xffffffffffffffffffffffffffffffffffffffff\n      and\n      eq\n        /* \"NFTES_Drop.sol\":1168:1230  require(_msgSender() == Owner, \"Only NFT-ES Owner can Access\") */\n      tag_143\n      jumpi\n      mload(0x40)\n      0x08c379a000000000000000000000000000000000000000000000000000000000\n      dup2\n      mstore\n      0x04\n      add\n      tag_144\n      swap1\n      tag_89\n      jump\t// in\n    tag_144:\n      mload(0x40)\n      dup1\n      swap2\n      sub\n      swap1\n      revert\n    tag_143:\n        /* \"NFTES_Drop.sol\":1357:1362  false */\n      0x00\n        /* \"NFTES_Drop.sol\":1345:1362  isPaused == false */\n      iszero\n      iszero\n        /* \"NFTES_Drop.sol\":1345:1353  isPaused */\n      0x0c\n      0x00\n      swap1\n      sload\n      swap1\n      0x0100\n      exp\n      swap1\n      div\n      0xff\n      and\n        /* \"NFTES_Drop.sol\":1345:1362  isPaused == false */\n      iszero\n      iszero\n      eq\n        /* \"NFTES_Drop.sol\":1337:1394  require(isPaused == false, \"Dropsite is not Opened Yet.\") */\n      tag_146\n      jumpi\n      mload(0x40)\n      0x08c379a000000000000000000000000000000000000000000000000000000000\n      dup2\n      mstore\n      0x04\n      add\n      tag_147\n      swap1\n      tag_116\n      jump\t// in\n    tag_147:\n      mload(0x40)\n      dup1\n      swap2\n      sub\n      swap1\n      revert\n    tag_146:\n        /* \"NFTES_Drop.sol\":6283:6296  uint256 index */\n      0x00\n        /* \"NFTES_Drop.sol\":6299:6307  random() */\n      tag_149\n        /* \"NFTES_Drop.sol\":6299:6305  random */\n      tag_150\n        /* \"NFTES_Drop.sol\":6299:6307  random() */\n      jump\t// in\n    tag_149:\n        /* \"NFTES_Drop.sol\":6283:6307  uint256 index = random() */\n      swap1\n      pop\n        /* \"NFTES_Drop.sol\":6317:6330  uint256 nftId */\n      0x00\n        /* \"NFTES_Drop.sol\":6333:6356  updateConditions(index) */\n      tag_151\n        /* \"NFTES_Drop.sol\":6350:6355  index */\n      dup3\n        /* \"NFTES_Drop.sol\":6333:6349  updateConditions */\n      tag_152\n        /* \"NFTES_Drop.sol\":6333:6356  updateConditions(index) */\n      jump\t// in\n    tag_151:\n        /* \"NFTES_Drop.sol\":6317:6356  uint256 nftId = updateConditions(index) */\n      swap1\n      pop\n        /* \"NFTES_Drop.sol\":6366:6408  _mint(user_addr, nftId, numOfCopies, data) */\n      tag_153\n        /* \"NFTES_Drop.sol\":6372:6381  user_addr */\n      dup6\n        /* \"NFTES_Drop.sol\":6383:6388  nftId */\n      dup3\n        /* \"NFTES_Drop.sol\":6390:6401  numOfCopies */\n      sload(0x05)\n        /* \"NFTES_Drop.sol\":6403:6407  data */\n      0x02\n        /* \"NFTES_Drop.sol\":6366:6408  _mint(user_addr, nftId, numOfCopies, data) */\n      dup1\n      sload\n      tag_154\n      swap1\n      tag_155\n      jump\t// in\n    tag_154:\n      dup1\n      0x1f\n      add\n      0x20\n      dup1\n      swap2\n      div\n      mul\n      0x20\n      add\n      mload(0x40)\n      swap1\n      dup2\n      add\n      0x40\n      mstore\n      dup1\n      swap3\n      swap2\n      swap1\n      dup2\n      dup2\n      mstore\n      0x20\n      add\n      dup3\n      dup1\n      sload\n      tag_156\n      swap1\n      tag_155\n      jump\t// in\n    tag_156:\n      dup1\n      iszero\n      tag_157\n      jumpi\n      dup1\n      0x1f\n      lt\n      tag_158\n      jumpi\n      0x0100\n      dup1\n      dup4\n      sload\n      div\n      mul\n      dup4\n      mstore\n      swap2\n      0x20\n      add\n      swap2\n      jump(tag_157)\n    tag_158:\n      dup3\n      add\n      swap2\n      swap1\n      0x00\n      mstore\n      keccak256(0x00, 0x20)\n      swap1\n    tag_159:\n      dup2\n      sload\n      dup2\n      mstore\n      swap1\n      0x01\n      add\n      swap1\n      0x20\n      add\n      dup1\n      dup4\n      gt\n      tag_159\n      jumpi\n      dup3\n      swap1\n      sub\n      0x1f\n      and\n      dup3\n      add\n      swap2\n    tag_157:\n      pop\n      pop\n      pop\n      pop\n      pop\n        /* \"NFTES_Drop.sol\":6366:6371  _mint */\n      tag_160\n        /* \"NFTES_Drop.sol\":6366:6408  _mint(user_addr, nftId, numOfCopies, data) */\n      jump\t// in\n    tag_153:\n        /* \"NFTES_Drop.sol\":6418:6433  totalNFTsMinted */\n      0x04\n      0x00\n        /* \"NFTES_Drop.sol\":6418:6435  totalNFTsMinted++ */\n      dup2\n      sload\n      dup1\n      swap3\n      swap2\n      swap1\n      tag_161\n      swap1\n      tag_133\n      jump\t// in\n    tag_161:\n      swap2\n      swap1\n      pop\n      sstore\n      pop\n        /* \"NFTES_Drop.sol\":6445:6463  dropsite_NFT_Owner */\n      0x0a\n        /* \"NFTES_Drop.sol\":6445:6474  dropsite_NFT_Owner[user_addr] */\n      0x00\n        /* \"NFTES_Drop.sol\":6464:6473  user_addr */\n      dup7\n        /* \"NFTES_Drop.sol\":6445:6474  dropsite_NFT_Owner[user_addr] */\n      0xffffffffffffffffffffffffffffffffffffffff\n      and\n      0xffffffffffffffffffffffffffffffffffffffff\n      and\n      dup2\n      mstore\n      0x20\n      add\n      swap1\n      dup2\n      mstore\n      0x20\n      add\n      0x00\n      keccak256\n        /* \"NFTES_Drop.sol\":6445:6494  dropsite_NFT_Owner[user_addr].owned_Dropsite_NFTs */\n      0x00\n      add\n        /* \"NFTES_Drop.sol\":6500:6505  nftId */\n      dup2\n        /* \"NFTES_Drop.sol\":6445:6506  dropsite_NFT_Owner[user_addr].owned_Dropsite_NFTs.push(nftId) */\n      swap1\n      dup1\n      0x01\n      dup2\n      sload\n      add\n      dup1\n      dup3\n      sstore\n      dup1\n      swap2\n      pop\n      pop\n      0x01\n      swap1\n      sub\n      swap1\n      0x00\n      mstore\n      keccak256(0x00, 0x20)\n      add\n      0x00\n      swap1\n      swap2\n      swap1\n      swap2\n      swap1\n      swap2\n      pop\n      sstore\n        /* \"NFTES_Drop.sol\":6524:6529  nftId */\n      dup1\n        /* \"NFTES_Drop.sol\":6538:6542  data */\n      0x02\n        /* \"NFTES_Drop.sol\":6516:6544  return (nftId, string(data)) */\n      dup1\n      dup1\n      sload\n      tag_163\n      swap1\n      tag_155\n      jump\t// in\n    tag_163:\n      dup1\n      0x1f\n      add\n      0x20\n      dup1\n      swap2\n      div\n      mul\n      0x20\n      add\n      mload(0x40)\n      swap1\n      dup2\n      add\n      0x40\n      mstore\n      dup1\n      swap3\n      swap2\n      swap1\n      dup2\n      dup2\n      mstore\n      0x20\n      add\n      dup3\n      dup1\n      sload\n      tag_164\n      swap1\n      tag_155\n      jump\t// in\n    tag_164:\n      dup1\n      iszero\n      tag_165\n      jumpi\n      dup1\n      0x1f\n      lt\n      tag_166\n      jumpi\n      0x0100\n      dup1\n      dup4\n      sload\n      div\n      mul\n      dup4\n      mstore\n      swap2\n      0x20\n      add\n      swap2\n      jump(tag_165)\n    tag_166:\n      dup3\n      add\n      swap2\n      swap1\n      0x00\n      mstore\n      keccak256(0x00, 0x20)\n      swap1\n    tag_167:\n      dup2\n      sload\n      dup2\n      mstore\n      swap1\n      0x01\n      add\n      swap1\n      0x20\n      add\n      dup1\n      dup4\n      gt\n      tag_167\n      jumpi\n      dup3\n      swap1\n      sub\n      0x1f\n      and\n      dup3\n      add\n      swap2\n    tag_165:\n      pop\n      pop\n      pop\n      pop\n      pop\n      swap1\n      pop\n      swap4\n      pop\n      swap4\n      pop\n      pop\n      pop\n        /* \"NFTES_Drop.sol\":6029:6551  function randomMinting(address user_addr)... */\n      swap2\n      pop\n      swap2\n      jump\t// out\n        /* \"NFTES_Drop.sol\":7342:7994  function CryptoRandomMint(address user_addr, uint256 noOfMints)... */\n    tag_50:\n        /* \"NFTES_Drop.sol\":7482:7498  uint256[] memory */\n      0x60\n        /* \"NFTES_Drop.sol\":1357:1362  false */\n      0x00\n        /* \"NFTES_Drop.sol\":1345:1362  isPaused == false */\n      iszero\n      iszero\n        /* \"NFTES_Drop.sol\":1345:1353  isPaused */\n      0x0c\n      0x00\n      swap1\n      sload\n      swap1\n      0x0100\n      exp\n      swap1\n      div\n      0xff\n      and\n        /* \"NFTES_Drop.sol\":1345:1362  isPaused == false */\n      iszero\n      iszero\n      eq\n        /* \"NFTES_Drop.sol\":1337:1394  require(isPaused == false, \"Dropsite is not Opened Yet.\") */\n      tag_169\n      jumpi\n      mload(0x40)\n      0x08c379a000000000000000000000000000000000000000000000000000000000\n      dup2\n      mstore\n      0x04\n      add\n      tag_170\n      swap1\n      tag_116\n      jump\t// in\n    tag_170:\n      mload(0x40)\n      dup1\n      swap2\n      sub\n      swap1\n      revert\n    tag_169:\n        /* \"NFTES_Drop.sol\":7534:7535  4 */\n      0x04\n        /* \"NFTES_Drop.sol\":7522:7531  noOfMints */\n      dup3\n        /* \"NFTES_Drop.sol\":7522:7535  noOfMints < 4 */\n      lt\n        /* \"NFTES_Drop.sol\":7522:7552  noOfMints < 4 && noOfMints > 0 */\n      dup1\n      iszero\n      tag_172\n      jumpi\n      pop\n        /* \"NFTES_Drop.sol\":7551:7552  0 */\n      0x00\n        /* \"NFTES_Drop.sol\":7539:7548  noOfMints */\n      dup3\n        /* \"NFTES_Drop.sol\":7539:7552  noOfMints > 0 */\n      gt\n        /* \"NFTES_Drop.sol\":7522:7552  noOfMints < 4 && noOfMints > 0 */\n    tag_172:\n        /* \"NFTES_Drop.sol\":7514:7578  require(noOfMints < 4 && noOfMints > 0, \"You can mint 1-3 NFTs\") */\n      tag_173\n      jumpi\n      mload(0x40)\n      0x08c379a000000000000000000000000000000000000000000000000000000000\n      dup2\n      mstore\n      0x04\n      add\n      tag_174\n      swap1\n      tag_121\n      jump\t// in\n    tag_174:\n      mload(0x40)\n      dup1\n      swap2\n      sub\n      swap1\n      revert\n    tag_173:\n        /* \"NFTES_Drop.sol\":7614:7618  1000 */\n      0x03e8\n        /* \"NFTES_Drop.sol\":7596:7611  totalNFTsMinted */\n      sload(0x04)\n        /* \"NFTES_Drop.sol\":7596:7618  totalNFTsMinted < 1000 */\n      lt\n        /* \"NFTES_Drop.sol\":7588:7648  require(totalNFTsMinted < 1000, \"Max Minting Limit reached\") */\n      tag_175\n      jumpi\n      mload(0x40)\n      0x08c379a000000000000000000000000000000000000000000000000000000000\n      dup2\n      mstore\n      0x04\n      add\n      tag_176\n      swap1\n      tag_124\n      jump\t// in\n    tag_176:\n      mload(0x40)\n      dup1\n      swap2\n      sub\n      swap1\n      revert\n    tag_175:\n        /* \"NFTES_Drop.sol\":7678:7679  0 */\n      0x00\n        /* \"NFTES_Drop.sol\":7666:7674  mintFees */\n      sload(0x06)\n        /* \"NFTES_Drop.sol\":7666:7679  mintFees != 0 */\n      eq\n      iszero\n        /* \"NFTES_Drop.sol\":7658:7700  require(mintFees != 0, \"Mint Fee Not Set\") */\n      tag_177\n      jumpi\n      mload(0x40)\n      0x08c379a000000000000000000000000000000000000000000000000000000000\n      dup2\n      mstore\n      0x04\n      add\n      tag_178\n      swap1\n      tag_127\n      jump\t// in\n    tag_178:\n      mload(0x40)\n      dup1\n      swap2\n      sub\n      swap1\n      revert\n    tag_177:\n        /* \"NFTES_Drop.sol\":7742:7751  noOfMints */\n      dup2\n        /* \"NFTES_Drop.sol\":7731:7739  mintFees */\n      sload(0x06)\n        /* \"NFTES_Drop.sol\":7731:7751  mintFees * noOfMints */\n      tag_179\n      swap2\n      swap1\n      tag_180\n      jump\t// in\n    tag_179:\n        /* \"NFTES_Drop.sol\":7718:7727  msg.value */\n      callvalue\n        /* \"NFTES_Drop.sol\":7718:7751  msg.value == mintFees * noOfMints */\n      eq\n        /* \"NFTES_Drop.sol\":7710:7774  require(msg.value == mintFees * noOfMints, \"Not Enough Balance\") */\n      tag_181\n      jumpi\n      mload(0x40)\n      0x08c379a000000000000000000000000000000000000000000000000000000000\n      dup2\n      mstore\n      0x04\n      add\n      tag_182\n      swap1\n      tag_183\n      jump\t// in\n    tag_182:\n      mload(0x40)\n      dup1\n      swap2\n      sub\n      swap1\n      revert\n    tag_181:\n        /* \"NFTES_Drop.sol\":7790:7799  uint256 i */\n      0x00\n        /* \"NFTES_Drop.sol\":7785:7874  for (uint256 i = 0; i < noOfMints; ++i) {... */\n    tag_184:\n        /* \"NFTES_Drop.sol\":7809:7818  noOfMints */\n      dup3\n        /* \"NFTES_Drop.sol\":7805:7806  i */\n      dup2\n        /* \"NFTES_Drop.sol\":7805:7818  i < noOfMints */\n      lt\n        /* \"NFTES_Drop.sol\":7785:7874  for (uint256 i = 0; i < noOfMints; ++i) {... */\n      iszero\n      tag_185\n      jumpi\n        /* \"NFTES_Drop.sol\":7839:7863  randomMinting(user_addr) */\n      tag_187\n        /* \"NFTES_Drop.sol\":7853:7862  user_addr */\n      dup5\n        /* \"NFTES_Drop.sol\":7839:7852  randomMinting */\n      tag_45\n        /* \"NFTES_Drop.sol\":7839:7863  randomMinting(user_addr) */\n      jump\t// in\n    tag_187:\n      pop\n      pop\n        /* \"NFTES_Drop.sol\":7820:7823  ++i */\n      dup1\n      tag_188\n      swap1\n      tag_133\n      jump\t// in\n    tag_188:\n      swap1\n      pop\n        /* \"NFTES_Drop.sol\":7785:7874  for (uint256 i = 0; i < noOfMints; ++i) {... */\n      jump(tag_184)\n    tag_185:\n      pop\n        /* \"NFTES_Drop.sol\":7883:7921  depositAmount(_msgSender(), msg.value) */\n      tag_189\n        /* \"NFTES_Drop.sol\":7897:7909  _msgSender() */\n      tag_190\n        /* \"NFTES_Drop.sol\":7897:7907  _msgSender */\n      tag_86\n        /* \"NFTES_Drop.sol\":7897:7909  _msgSender() */\n      jump\t// in\n    tag_190:\n        /* \"NFTES_Drop.sol\":7911:7920  msg.value */\n      callvalue\n        /* \"NFTES_Drop.sol\":7883:7896  depositAmount */\n      tag_191\n        /* \"NFTES_Drop.sol\":7883:7921  depositAmount(_msgSender(), msg.value) */\n      jump\t// in\n    tag_189:\n        /* \"NFTES_Drop.sol\":7938:7956  dropsite_NFT_Owner */\n      0x0a\n        /* \"NFTES_Drop.sol\":7938:7967  dropsite_NFT_Owner[user_addr] */\n      0x00\n        /* \"NFTES_Drop.sol\":7957:7966  user_addr */\n      dup5\n        /* \"NFTES_Drop.sol\":7938:7967  dropsite_NFT_Owner[user_addr] */\n      0xffffffffffffffffffffffffffffffffffffffff\n      and\n      0xffffffffffffffffffffffffffffffffffffffff\n      and\n      dup2\n      mstore\n      0x20\n      add\n      swap1\n      dup2\n      mstore\n      0x20\n      add\n      0x00\n      keccak256\n        /* \"NFTES_Drop.sol\":7938:7987  dropsite_NFT_Owner[user_addr].owned_Dropsite_NFTs */\n      0x00\n      add\n        /* \"NFTES_Drop.sol\":7931:7987  return dropsite_NFT_Owner[user_addr].owned_Dropsite_NFTs */\n      dup1\n      sload\n      dup1\n      0x20\n      mul\n      0x20\n      add\n      mload(0x40)\n      swap1\n      dup2\n      add\n      0x40\n      mstore\n      dup1\n      swap3\n      swap2\n      swap1\n      dup2\n      dup2\n      mstore\n      0x20\n      add\n      dup3\n      dup1\n      sload\n      dup1\n      iszero\n      tag_192\n      jumpi\n      0x20\n      mul\n      dup3\n      add\n      swap2\n      swap1\n      0x00\n      mstore\n      keccak256(0x00, 0x20)\n      swap1\n    tag_193:\n      dup2\n      sload\n      dup2\n      mstore\n      0x20\n      add\n      swap1\n      0x01\n      add\n      swap1\n      dup1\n      dup4\n      gt\n      tag_193\n      jumpi\n    tag_192:\n      pop\n      pop\n      pop\n      pop\n      pop\n      swap1\n      pop\n        /* \"NFTES_Drop.sol\":7342:7994  function CryptoRandomMint(address user_addr, uint256 noOfMints)... */\n      swap3\n      swap2\n      pop\n      pop\n      jump\t// out\n        /* \"NFTES_Drop.sol\":2067:2317  function checkMintedCategoryWise()... */\n    tag_54:\n        /* \"NFTES_Drop.sol\":2206:2213  uint256 */\n      0x00\n        /* \"NFTES_Drop.sol\":2227:2234  uint256 */\n      dup1\n        /* \"NFTES_Drop.sol\":2248:2255  uint256 */\n      0x00\n        /* \"NFTES_Drop.sol\":1192:1197  Owner */\n      0x0c\n      0x01\n      swap1\n      sload\n      swap1\n      0x0100\n      exp\n      swap1\n      div\n      0xffffffffffffffffffffffffffffffffffffffff\n      and\n        /* \"NFTES_Drop.sol\":1176:1197  _msgSender() == Owner */\n      0xffffffffffffffffffffffffffffffffffffffff\n      and\n        /* \"NFTES_Drop.sol\":1176:1188  _msgSender() */\n      tag_195\n        /* \"NFTES_Drop.sol\":1176:1186  _msgSender */\n      tag_86\n        /* \"NFTES_Drop.sol\":1176:1188  _msgSender() */\n      jump\t// in\n    tag_195:\n        /* \"NFTES_Drop.sol\":1176:1197  _msgSender() == Owner */\n      0xffffffffffffffffffffffffffffffffffffffff\n      and\n      eq\n        /* \"NFTES_Drop.sol\":1168:1230  require(_msgSender() == Owner, \"Only NFT-ES Owner can Access\") */\n      tag_196\n      jumpi\n      mload(0x40)\n      0x08c379a000000000000000000000000000000000000000000000000000000000\n      dup2\n      mstore\n      0x04\n      add\n      tag_197\n      swap1\n      tag_89\n      jump\t// in\n    tag_197:\n      mload(0x40)\n      dup1\n      swap2\n      sub\n      swap1\n      revert\n    tag_196:\n        /* \"NFTES_Drop.sol\":1357:1362  false */\n      0x00\n        /* \"NFTES_Drop.sol\":1345:1362  isPaused == false */\n      iszero\n      iszero\n        /* \"NFTES_Drop.sol\":1345:1353  isPaused */\n      0x0c\n      0x00\n      swap1\n      sload\n      swap1\n      0x0100\n      exp\n      swap1\n      div\n      0xff\n      and\n        /* \"NFTES_Drop.sol\":1345:1362  isPaused == false */\n      iszero\n      iszero\n      eq\n        /* \"NFTES_Drop.sol\":1337:1394  require(isPaused == false, \"Dropsite is not Opened Yet.\") */\n      tag_199\n      jumpi\n      mload(0x40)\n      0x08c379a000000000000000000000000000000000000000000000000000000000\n      dup2\n      mstore\n      0x04\n      add\n      tag_200\n      swap1\n      tag_116\n      jump\t// in\n    tag_200:\n      mload(0x40)\n      dup1\n      swap2\n      sub\n      swap1\n      revert\n    tag_199:\n        /* \"NFTES_Drop.sol\":2288:2295  Diamond */\n      sload(0x07)\n        /* \"NFTES_Drop.sol\":2297:2301  Gold */\n      sload(0x08)\n        /* \"NFTES_Drop.sol\":2303:2309  Silver */\n      sload(0x09)\n        /* \"NFTES_Drop.sol\":2280:2310  return (Diamond, Gold, Silver) */\n      swap3\n      pop\n      swap3\n      pop\n      swap3\n      pop\n        /* \"NFTES_Drop.sol\":2067:2317  function checkMintedCategoryWise()... */\n      swap1\n      swap2\n      swap3\n      jump\t// out\n        /* \"NFTES_Drop.sol\":2440:2598  function getMintFee()... */\n    tag_59:\n        /* \"NFTES_Drop.sol\":2553:2560  uint256 */\n      0x00\n        /* \"NFTES_Drop.sol\":1192:1197  Owner */\n      0x0c\n      0x01\n      swap1\n      sload\n      swap1\n      0x0100\n      exp\n      swap1\n      div\n      0xffffffffffffffffffffffffffffffffffffffff\n      and\n        /* \"NFTES_Drop.sol\":1176:1197  _msgSender() == Owner */\n      0xffffffffffffffffffffffffffffffffffffffff\n      and\n        /* \"NFTES_Drop.sol\":1176:1188  _msgSender() */\n      tag_203\n        /* \"NFTES_Drop.sol\":1176:1186  _msgSender */\n      tag_86\n        /* \"NFTES_Drop.sol\":1176:1188  _msgSender() */\n      jump\t// in\n    tag_203:\n        /* \"NFTES_Drop.sol\":1176:1197  _msgSender() == Owner */\n      0xffffffffffffffffffffffffffffffffffffffff\n      and\n      eq\n        /* \"NFTES_Drop.sol\":1168:1230  require(_msgSender() == Owner, \"Only NFT-ES Owner can Access\") */\n      tag_204\n      jumpi\n      mload(0x40)\n      0x08c379a000000000000000000000000000000000000000000000000000000000\n      dup2\n      mstore\n      0x04\n      add\n      tag_205\n      swap1\n      tag_89\n      jump\t// in\n    tag_205:\n      mload(0x40)\n      dup1\n      swap2\n      sub\n      swap1\n      revert\n    tag_204:\n        /* \"NFTES_Drop.sol\":1357:1362  false */\n      0x00\n        /* \"NFTES_Drop.sol\":1345:1362  isPaused == false */\n      iszero\n      iszero\n        /* \"NFTES_Drop.sol\":1345:1353  isPaused */\n      0x0c\n      0x00\n      swap1\n      sload\n      swap1\n      0x0100\n      exp\n      swap1\n      div\n      0xff\n      and\n        /* \"NFTES_Drop.sol\":1345:1362  isPaused == false */\n      iszero\n      iszero\n      eq\n        /* \"NFTES_Drop.sol\":1337:1394  require(isPaused == false, \"Dropsite is not Opened Yet.\") */\n      tag_207\n      jumpi\n      mload(0x40)\n      0x08c379a000000000000000000000000000000000000000000000000000000000\n      dup2\n      mstore\n      0x04\n      add\n      tag_208\n      swap1\n      tag_116\n      jump\t// in\n    tag_208:\n      mload(0x40)\n      dup1\n      swap2\n      sub\n      swap1\n      revert\n    tag_207:\n        /* \"NFTES_Drop.sol\":2583:2591  mintFees */\n      sload(0x06)\n        /* \"NFTES_Drop.sol\":2576:2591  return mintFees */\n      swap1\n      pop\n        /* \"NFTES_Drop.sol\":2440:2598  function getMintFee()... */\n      swap1\n      jump\t// out\n        /* \"NFTES_Drop.sol\":2750:2890  function stopDropsite() public OnlyOwner {... */\n    tag_63:\n        /* \"NFTES_Drop.sol\":1192:1197  Owner */\n      0x0c\n      0x01\n      swap1\n      sload\n      swap1\n      0x0100\n      exp\n      swap1\n      div\n      0xffffffffffffffffffffffffffffffffffffffff\n      and\n        /* \"NFTES_Drop.sol\":1176:1197  _msgSender() == Owner */\n      0xffffffffffffffffffffffffffffffffffffffff\n      and\n        /* \"NFTES_Drop.sol\":1176:1188  _msgSender() */\n      tag_211\n        /* \"NFTES_Drop.sol\":1176:1186  _msgSender */\n      tag_86\n        /* \"NFTES_Drop.sol\":1176:1188  _msgSender() */\n      jump\t// in\n    tag_211:\n        /* \"NFTES_Drop.sol\":1176:1197  _msgSender() == Owner */\n      0xffffffffffffffffffffffffffffffffffffffff\n      and\n      eq\n        /* \"NFTES_Drop.sol\":1168:1230  require(_msgSender() == Owner, \"Only NFT-ES Owner can Access\") */\n      tag_212\n      jumpi\n      mload(0x40)\n      0x08c379a000000000000000000000000000000000000000000000000000000000\n      dup2\n      mstore\n      0x04\n      add\n      tag_213\n      swap1\n      tag_89\n      jump\t// in\n    tag_213:\n      mload(0x40)\n      dup1\n      swap2\n      sub\n      swap1\n      revert\n    tag_212:\n        /* \"NFTES_Drop.sol\":2821:2826  false */\n      0x00\n        /* \"NFTES_Drop.sol\":2809:2826  isPaused == false */\n      iszero\n      iszero\n        /* \"NFTES_Drop.sol\":2809:2817  isPaused */\n      0x0c\n      0x00\n      swap1\n      sload\n      swap1\n      0x0100\n      exp\n      swap1\n      div\n      0xff\n      and\n        /* \"NFTES_Drop.sol\":2809:2826  isPaused == false */\n      iszero\n      iszero\n      eq\n        /* \"NFTES_Drop.sol\":2801:2858  require(isPaused == false, \"Dropsite is already Stopped\") */\n      tag_215\n      jumpi\n      mload(0x40)\n      0x08c379a000000000000000000000000000000000000000000000000000000000\n      dup2\n      mstore\n      0x04\n      add\n      tag_216\n      swap1\n      tag_217\n      jump\t// in\n    tag_216:\n      mload(0x40)\n      dup1\n      swap2\n      sub\n      swap1\n      revert\n    tag_215:\n        /* \"NFTES_Drop.sol\":2879:2883  true */\n      0x01\n        /* \"NFTES_Drop.sol\":2868:2876  isPaused */\n      0x0c\n      0x00\n        /* \"NFTES_Drop.sol\":2868:2883  isPaused = true */\n      0x0100\n      exp\n      dup2\n      sload\n      dup2\n      0xff\n      mul\n      not\n      and\n      swap1\n      dup4\n      iszero\n      iszero\n      mul\n      or\n      swap1\n      sstore\n      pop\n        /* \"NFTES_Drop.sol\":2750:2890  function stopDropsite() public OnlyOwner {... */\n      jump\t// out\n        /* \"NFTES_Drop.sol\":1417:1444  bool public isPaused = true */\n    tag_66:\n      0x0c\n      0x00\n      swap1\n      sload\n      swap1\n      0x0100\n      exp\n      swap1\n      div\n      0xff\n      and\n      dup2\n      jump\t// out\n        /* \"NFTES_Drop.sol\":1450:1478  address payable public Owner */\n    tag_71:\n      0x0c\n      0x01\n      swap1\n      sload\n      swap1\n      0x0100\n      exp\n      swap1\n      div\n      0xffffffffffffffffffffffffffffffffffffffff\n      and\n      dup2\n      jump\t// out\n        /* \"NFTES_Drop.sol\":2323:2434  function setMintFee(uint256 _mintFee) public OnlyOwner contractIsNotPaused {... */\n    tag_78:\n        /* \"NFTES_Drop.sol\":1192:1197  Owner */\n      0x0c\n      0x01\n      swap1\n      sload\n      swap1\n      0x0100\n      exp\n      swap1\n      div\n      0xffffffffffffffffffffffffffffffffffffffff\n      and\n        /* \"NFTES_Drop.sol\":1176:1197  _msgSender() == Owner */\n      0xffffffffffffffffffffffffffffffffffffffff\n      and\n        /* \"NFTES_Drop.sol\":1176:1188  _msgSender() */\n      tag_219\n        /* \"NFTES_Drop.sol\":1176:1186  _msgSender */\n      tag_86\n        /* \"NFTES_Drop.sol\":1176:1188  _msgSender() */\n      jump\t// in\n    tag_219:\n        /* \"NFTES_Drop.sol\":1176:1197  _msgSender() == Owner */\n      0xffffffffffffffffffffffffffffffffffffffff\n      and\n      eq\n        /* \"NFTES_Drop.sol\":1168:1230  require(_msgSender() == Owner, \"Only NFT-ES Owner can Access\") */\n      tag_220\n      jumpi\n      mload(0x40)\n      0x08c379a000000000000000000000000000000000000000000000000000000000\n      dup2\n      mstore\n      0x04\n      add\n      tag_221\n      swap1\n      tag_89\n      jump\t// in\n    tag_221:\n      mload(0x40)\n      dup1\n      swap2\n      sub\n      swap1\n      revert\n    tag_220:\n        /* \"NFTES_Drop.sol\":1357:1362  false */\n      0x00\n        /* \"NFTES_Drop.sol\":1345:1362  isPaused == false */\n      iszero\n      iszero\n        /* \"NFTES_Drop.sol\":1345:1353  isPaused */\n      0x0c\n      0x00\n      swap1\n      sload\n      swap1\n      0x0100\n      exp\n      swap1\n      div\n      0xff\n      and\n        /* \"NFTES_Drop.sol\":1345:1362  isPaused == false */\n      iszero\n      iszero\n      eq\n        /* \"NFTES_Drop.sol\":1337:1394  require(isPaused == false, \"Dropsite is not Opened Yet.\") */\n      tag_223\n      jumpi\n      mload(0x40)\n      0x08c379a000000000000000000000000000000000000000000000000000000000\n      dup2\n      mstore\n      0x04\n      add\n      tag_224\n      swap1\n      tag_116\n      jump\t// in\n    tag_224:\n      mload(0x40)\n      dup1\n      swap2\n      sub\n      swap1\n      revert\n    tag_223:\n        /* \"NFTES_Drop.sol\":2419:2427  _mintFee */\n      dup1\n        /* \"NFTES_Drop.sol\":2408:2416  mintFees */\n      0x06\n        /* \"NFTES_Drop.sol\":2408:2427  mintFees = _mintFee */\n      dup2\n      swap1\n      sstore\n      pop\n        /* \"NFTES_Drop.sol\":2323:2434  function setMintFee(uint256 _mintFee) public OnlyOwner contractIsNotPaused {... */\n      pop\n      jump\t// out\n        /* \"NFTES_Drop.sol\":1816:2014  function returnOwner(address addr)... */\n    tag_82:\n        /* \"NFTES_Drop.sol\":1924:1940  uint256[] memory */\n      0x60\n        /* \"NFTES_Drop.sol\":1357:1362  false */\n      0x00\n        /* \"NFTES_Drop.sol\":1345:1362  isPaused == false */\n      iszero\n      iszero\n        /* \"NFTES_Drop.sol\":1345:1353  isPaused */\n      0x0c\n      0x00\n      swap1\n      sload\n      swap1\n      0x0100\n      exp\n      swap1\n      div\n      0xff\n      and\n        /* \"NFTES_Drop.sol\":1345:1362  isPaused == false */\n      iszero\n      iszero\n      eq\n        /* \"NFTES_Drop.sol\":1337:1394  require(isPaused == false, \"Dropsite is not Opened Yet.\") */\n      tag_227\n      jumpi\n      mload(0x40)\n      0x08c379a000000000000000000000000000000000000000000000000000000000\n      dup2\n      mstore\n      0x04\n      add\n      tag_228\n      swap1\n      tag_116\n      jump\t// in\n    tag_228:\n      mload(0x40)\n      dup1\n      swap2\n      sub\n      swap1\n      revert\n    tag_227:\n        /* \"NFTES_Drop.sol\":1963:1981  dropsite_NFT_Owner */\n      0x0a\n        /* \"NFTES_Drop.sol\":1963:1987  dropsite_NFT_Owner[addr] */\n      0x00\n        /* \"NFTES_Drop.sol\":1982:1986  addr */\n      dup4\n        /* \"NFTES_Drop.sol\":1963:1987  dropsite_NFT_Owner[addr] */\n      0xffffffffffffffffffffffffffffffffffffffff\n      and\n      0xffffffffffffffffffffffffffffffffffffffff\n      and\n      dup2\n      mstore\n      0x20\n      add\n      swap1\n      dup2\n      mstore\n      0x20\n      add\n      0x00\n      keccak256\n        /* \"NFTES_Drop.sol\":1963:2007  dropsite_NFT_Owner[addr].owned_Dropsite_NFTs */\n      0x00\n      add\n        /* \"NFTES_Drop.sol\":1956:2007  return dropsite_NFT_Owner[addr].owned_Dropsite_NFTs */\n      dup1\n      sload\n      dup1\n      0x20\n      mul\n      0x20\n      add\n      mload(0x40)\n      swap1\n      dup2\n      add\n      0x40\n      mstore\n      dup1\n      swap3\n      swap2\n      swap1\n      dup2\n      dup2\n      mstore\n      0x20\n      add\n      dup3\n      dup1\n      sload\n      dup1\n      iszero\n      tag_230\n      jumpi\n      0x20\n      mul\n      dup3\n      add\n      swap2\n      swap1\n      0x00\n      mstore\n      keccak256(0x00, 0x20)\n      swap1\n    tag_231:\n      dup2\n      sload\n      dup2\n      mstore\n      0x20\n      add\n      swap1\n      0x01\n      add\n      swap1\n      dup1\n      dup4\n      gt\n      tag_231\n      jumpi\n    tag_230:\n      pop\n      pop\n      pop\n      pop\n      pop\n      swap1\n      pop\n        /* \"NFTES_Drop.sol\":1816:2014  function returnOwner(address addr)... */\n      swap2\n      swap1\n      pop\n      jump\t// out\n        /* \"Context.sol\":640:736  function _msgSender() internal view virtual returns (address) {... */\n    tag_86:\n        /* \"Context.sol\":693:700  address */\n      0x00\n        /* \"Context.sol\":719:729  msg.sender */\n      caller\n        /* \"Context.sol\":712:729  return msg.sender */\n      swap1\n      pop\n        /* \"Context.sol\":640:736  function _msgSender() internal view virtual returns (address) {... */\n      swap1\n      jump\t// out\n        /* \"NFTES_Drop.sol\":3609:4156  function random() internal view returns (uint256) {... */\n    tag_150:\n        /* \"NFTES_Drop.sol\":3650:3657  uint256 */\n      0x00\n        /* \"NFTES_Drop.sol\":3746:3766  uint256 randomnumber */\n      dup1\n        /* \"NFTES_Drop.sol\":4118:4120  20 */\n      0x14\n        /* \"NFTES_Drop.sol\":4006:4013  Diamond */\n      sload(0x07)\n        /* \"NFTES_Drop.sol\":3975:3979  Gold */\n      sload(0x08)\n        /* \"NFTES_Drop.sol\":3942:3948  Silver */\n      sload(0x09)\n        /* \"NFTES_Drop.sol\":3900:3915  totalNFTsMinted */\n      sload(0x04)\n        /* \"NFTES_Drop.sol\":3857:3872  block.timestamp */\n      timestamp\n        /* \"NFTES_Drop.sol\":3856:3915  (block.timestamp) +... */\n      tag_234\n      swap2\n      swap1\n      tag_235\n      jump\t// in\n    tag_234:\n        /* \"NFTES_Drop.sol\":3856:3948  (block.timestamp) +... */\n      tag_236\n      swap2\n      swap1\n      tag_235\n      jump\t// in\n    tag_236:\n        /* \"NFTES_Drop.sol\":3856:3979  (block.timestamp) +... */\n      tag_237\n      swap2\n      swap1\n      tag_235\n      jump\t// in\n    tag_237:\n        /* \"NFTES_Drop.sol\":3856:4013  (block.timestamp) +... */\n      tag_238\n      swap2\n      swap1\n      tag_235\n      jump\t// in\n    tag_238:\n        /* \"NFTES_Drop.sol\":4036:4046  msg.sender */\n      caller\n        /* \"NFTES_Drop.sol\":4068:4073  Owner */\n      0x0c\n      0x01\n      swap1\n      sload\n      swap1\n      0x0100\n      exp\n      swap1\n      div\n      0xffffffffffffffffffffffffffffffffffffffff\n      and\n        /* \"NFTES_Drop.sol\":3817:4091  abi.encodePacked(... */\n      add(0x20, mload(0x40))\n      tag_239\n      swap4\n      swap3\n      swap2\n      swap1\n      tag_240\n      jump\t// in\n    tag_239:\n      mload(0x40)\n      0x20\n      dup2\n      dup4\n      sub\n      sub\n      dup2\n      mstore\n      swap1\n      0x40\n      mstore\n        /* \"NFTES_Drop.sol\":3790:4105  keccak256(... */\n      dup1\n      mload\n      swap1\n      0x20\n      add\n      keccak256\n        /* \"NFTES_Drop.sol\":3769:4115  uint256(... */\n      0x00\n      shr\n        /* \"NFTES_Drop.sol\":3769:4120  uint256(... */\n      tag_241\n      swap2\n      swap1\n      tag_242\n      jump\t// in\n    tag_241:\n        /* \"NFTES_Drop.sol\":3746:4120  uint256 randomnumber = uint256(... */\n      swap1\n      pop\n        /* \"NFTES_Drop.sol\":4137:4149  randomnumber */\n      dup1\n        /* \"NFTES_Drop.sol\":4130:4149  return randomnumber */\n      swap2\n      pop\n      pop\n        /* \"NFTES_Drop.sol\":3609:4156  function random() internal view returns (uint256) {... */\n      swap1\n      jump\t// out\n        /* \"NFTES_Drop.sol\":4342:6023  function updateConditions(uint256 index)... */\n    tag_152:\n        /* \"NFTES_Drop.sol\":4445:4452  uint256 */\n      0x00\n        /* \"NFTES_Drop.sol\":1357:1362  false */\n      dup1\n        /* \"NFTES_Drop.sol\":1345:1362  isPaused == false */\n      iszero\n      iszero\n        /* \"NFTES_Drop.sol\":1345:1353  isPaused */\n      0x0c\n      0x00\n      swap1\n      sload\n      swap1\n      0x0100\n      exp\n      swap1\n      div\n      0xff\n      and\n        /* \"NFTES_Drop.sol\":1345:1362  isPaused == false */\n      iszero\n      iszero\n      eq\n        /* \"NFTES_Drop.sol\":1337:1394  require(isPaused == false, \"Dropsite is not Opened Yet.\") */\n      tag_244\n      jumpi\n      mload(0x40)\n      0x08c379a000000000000000000000000000000000000000000000000000000000\n      dup2\n      mstore\n      0x04\n      add\n      tag_245\n      swap1\n      tag_116\n      jump\t// in\n    tag_245:\n      mload(0x40)\n      dup1\n      swap2\n      sub\n      swap1\n      revert\n    tag_244:\n        /* \"NFTES_Drop.sol\":4468:4481  uint256 nftId */\n      0x00\n        /* \"NFTES_Drop.sol\":4484:4488  nums */\n      0x03\n        /* \"NFTES_Drop.sol\":4489:4494  index */\n      dup4\n        /* \"NFTES_Drop.sol\":4484:4495  nums[index] */\n      0x14\n      dup2\n      lt\n      tag_247\n      jumpi\n      tag_248\n      tag_249\n      jump\t// in\n    tag_248:\n    tag_247:\n      0x20\n      swap2\n      dup3\n      dup3\n      div\n      add\n      swap2\n      swap1\n      mod\n      swap1\n      sload\n      swap1\n      0x0100\n      exp\n      swap1\n      div\n      0xff\n      and\n        /* \"NFTES_Drop.sol\":4468:4495  uint256 nftId = nums[index] */\n      0xff\n      and\n      swap1\n      pop\n        /* \"NFTES_Drop.sol\":4591:4592  0 */\n      0x00\n        /* \"NFTES_Drop.sol\":4582:4587  nftId */\n      dup2\n        /* \"NFTES_Drop.sol\":4582:4592  nftId == 0 */\n      eq\n        /* \"NFTES_Drop.sol\":4582:4608  nftId == 0 && Diamond < 50 */\n      dup1\n      iszero\n      tag_251\n      jumpi\n      pop\n        /* \"NFTES_Drop.sol\":4606:4608  50 */\n      0x32\n        /* \"NFTES_Drop.sol\":4596:4603  Diamond */\n      sload(0x07)\n        /* \"NFTES_Drop.sol\":4596:4608  Diamond < 50 */\n      lt\n        /* \"NFTES_Drop.sol\":4582:4608  nftId == 0 && Diamond < 50 */\n    tag_251:\n        /* \"NFTES_Drop.sol\":4578:6017  if (nftId == 0 && Diamond < 50) {... */\n      iszero\n      tag_252\n      jumpi\n        /* \"NFTES_Drop.sol\":4624:4631  Diamond */\n      0x07\n      0x00\n        /* \"NFTES_Drop.sol\":4624:4633  Diamond++ */\n      dup2\n      sload\n      dup1\n      swap3\n      swap2\n      swap1\n      tag_253\n      swap1\n      tag_133\n      jump\t// in\n    tag_253:\n      swap2\n      swap1\n      pop\n      sstore\n      pop\n        /* \"NFTES_Drop.sol\":4707:4732  Strings.toString(Diamond) */\n      tag_254\n        /* \"NFTES_Drop.sol\":4724:4731  Diamond */\n      sload(0x07)\n        /* \"NFTES_Drop.sol\":4707:4723  Strings.toString */\n      tag_255\n        /* \"NFTES_Drop.sol\":4707:4732  Strings.toString(Diamond) */\n      jump\t// in\n    tag_254:\n        /* \"NFTES_Drop.sol\":4678:4733  abi.encodePacked(\"Diamond_\", Strings.toString(Diamond)) */\n      add(0x20, mload(0x40))\n      tag_256\n      swap2\n      swap1\n      tag_257\n      jump\t// in\n    tag_256:\n      mload(0x40)\n      0x20\n      dup2\n      dup4\n      sub\n      sub\n      dup2\n      mstore\n      swap1\n      0x40\n      mstore\n        /* \"NFTES_Drop.sol\":4647:4651  data */\n      0x02\n        /* \"NFTES_Drop.sol\":4647:4747  data = string(... */\n      swap1\n      dup1\n      mload\n      swap1\n      0x20\n      add\n      swap1\n      tag_258\n      swap3\n      swap2\n      swap1\n      tag_259\n      jump\t// in\n    tag_258:\n      pop\n        /* \"NFTES_Drop.sol\":4768:4773  nftId */\n      dup1\n        /* \"NFTES_Drop.sol\":4761:4773  return nftId */\n      swap2\n      pop\n      pop\n      jump(tag_246)\n        /* \"NFTES_Drop.sol\":4578:6017  if (nftId == 0 && Diamond < 50) {... */\n    tag_252:\n        /* \"NFTES_Drop.sol\":4901:4902  1 */\n      0x01\n        /* \"NFTES_Drop.sol\":4892:4897  nftId */\n      dup2\n        /* \"NFTES_Drop.sol\":4892:4902  nftId <= 1 */\n      gt\n      iszero\n        /* \"NFTES_Drop.sol\":4892:4916  nftId <= 1 && Gold < 100 */\n      dup1\n      iszero\n      tag_261\n      jumpi\n      pop\n        /* \"NFTES_Drop.sol\":4913:4916  100 */\n      0x64\n        /* \"NFTES_Drop.sol\":4906:4910  Gold */\n      sload(0x08)\n        /* \"NFTES_Drop.sol\":4906:4916  Gold < 100 */\n      lt\n        /* \"NFTES_Drop.sol\":4892:4916  nftId <= 1 && Gold < 100 */\n    tag_261:\n        /* \"NFTES_Drop.sol\":4888:6017  if (nftId <= 1 && Gold < 100) {... */\n      iszero\n      tag_262\n      jumpi\n        /* \"NFTES_Drop.sol\":4932:4936  Gold */\n      0x08\n      0x00\n        /* \"NFTES_Drop.sol\":4932:4938  Gold++ */\n      dup2\n      sload\n      dup1\n      swap3\n      swap2\n      swap1\n      tag_263\n      swap1\n      tag_133\n      jump\t// in\n    tag_263:\n      swap2\n      swap1\n      pop\n      sstore\n      pop\n        /* \"NFTES_Drop.sol\":4992:5014  Strings.toString(Gold) */\n      tag_264\n        /* \"NFTES_Drop.sol\":5009:5013  Gold */\n      sload(0x08)\n        /* \"NFTES_Drop.sol\":4992:5008  Strings.toString */\n      tag_255\n        /* \"NFTES_Drop.sol\":4992:5014  Strings.toString(Gold) */\n      jump\t// in\n    tag_264:\n        /* \"NFTES_Drop.sol\":4966:5015  abi.encodePacked(\"Gold_\", Strings.toString(Gold)) */\n      add(0x20, mload(0x40))\n      tag_265\n      swap2\n      swap1\n      tag_266\n      jump\t// in\n    tag_265:\n      mload(0x40)\n      0x20\n      dup2\n      dup4\n      sub\n      sub\n      dup2\n      mstore\n      swap1\n      0x40\n      mstore\n        /* \"NFTES_Drop.sol\":4952:4956  data */\n      0x02\n        /* \"NFTES_Drop.sol\":4952:5016  data = string(abi.encodePacked(\"Gold_\", Strings.toString(Gold))) */\n      swap1\n      dup1\n      mload\n      swap1\n      0x20\n      add\n      swap1\n      tag_267\n      swap3\n      swap2\n      swap1\n      tag_259\n      jump\t// in\n    tag_267:\n      pop\n        /* \"NFTES_Drop.sol\":5037:5042  nftId */\n      dup1\n        /* \"NFTES_Drop.sol\":5030:5042  return nftId */\n      swap2\n      pop\n      pop\n      jump(tag_246)\n        /* \"NFTES_Drop.sol\":4888:6017  if (nftId <= 1 && Gold < 100) {... */\n    tag_262:\n        /* \"NFTES_Drop.sol\":5176:5177  2 */\n      0x02\n        /* \"NFTES_Drop.sol\":5167:5172  nftId */\n      dup2\n        /* \"NFTES_Drop.sol\":5167:5177  nftId <= 2 */\n      gt\n      iszero\n        /* \"NFTES_Drop.sol\":5167:5194  nftId <= 2 && Silver <= 850 */\n      dup1\n      iszero\n      tag_269\n      jumpi\n      pop\n        /* \"NFTES_Drop.sol\":5191:5194  850 */\n      0x0352\n        /* \"NFTES_Drop.sol\":5181:5187  Silver */\n      sload(0x09)\n        /* \"NFTES_Drop.sol\":5181:5194  Silver <= 850 */\n      gt\n      iszero\n        /* \"NFTES_Drop.sol\":5167:5194  nftId <= 2 && Silver <= 850 */\n    tag_269:\n        /* \"NFTES_Drop.sol\":5163:6017  if (nftId <= 2 && Silver <= 850) {... */\n      iszero\n      tag_270\n      jumpi\n        /* \"NFTES_Drop.sol\":5210:5216  Silver */\n      0x09\n      0x00\n        /* \"NFTES_Drop.sol\":5210:5218  Silver++ */\n      dup2\n      sload\n      dup1\n      swap3\n      swap2\n      swap1\n      tag_271\n      swap1\n      tag_133\n      jump\t// in\n    tag_271:\n      swap2\n      swap1\n      pop\n      sstore\n      pop\n        /* \"NFTES_Drop.sol\":5298:5322  Strings.toString(Silver) */\n      tag_272\n        /* \"NFTES_Drop.sol\":5315:5321  Silver */\n      sload(0x09)\n        /* \"NFTES_Drop.sol\":5298:5314  Strings.toString */\n      tag_255\n        /* \"NFTES_Drop.sol\":5298:5322  Strings.toString(Silver) */\n      jump\t// in\n    tag_272:\n        /* \"NFTES_Drop.sol\":5270:5323  abi.encodePacked(\"Silver_\", Strings.toString(Silver)) */\n      add(0x20, mload(0x40))\n      tag_273\n      swap2\n      swap1\n      tag_274\n      jump\t// in\n    tag_273:\n      mload(0x40)\n      0x20\n      dup2\n      dup4\n      sub\n      sub\n      dup2\n      mstore\n      swap1\n      0x40\n      mstore\n        /* \"NFTES_Drop.sol\":5239:5243  data */\n      0x02\n        /* \"NFTES_Drop.sol\":5239:5337  data = string(... */\n      swap1\n      dup1\n      mload\n      swap1\n      0x20\n      add\n      swap1\n      tag_275\n      swap3\n      swap2\n      swap1\n      tag_259\n      jump\t// in\n    tag_275:\n        /* \"NFTES_Drop.sol\":5232:5236  data */\n      0x02\n        /* \"NFTES_Drop.sol\":5232:5337  data = data = string(... */\n      swap1\n      dup1\n      sload\n      tag_276\n      swap1\n      tag_155\n      jump\t// in\n    tag_276:\n      tag_277\n      swap3\n      swap2\n      swap1\n      tag_278\n      jump\t// in\n    tag_277:\n      pop\n        /* \"NFTES_Drop.sol\":5358:5363  nftId */\n      dup1\n        /* \"NFTES_Drop.sol\":5351:5363  return nftId */\n      swap2\n      pop\n      pop\n      jump(tag_246)\n        /* \"NFTES_Drop.sol\":5163:6017  if (nftId <= 2 && Silver <= 850) {... */\n    tag_270:\n        /* \"NFTES_Drop.sol\":5554:5557  100 */\n      0x64\n        /* \"NFTES_Drop.sol\":5547:5551  Gold */\n      sload(0x08)\n        /* \"NFTES_Drop.sol\":5547:5557  Gold < 100 */\n      lt\n        /* \"NFTES_Drop.sol\":5543:6007  if (Gold < 100) {... */\n      iszero\n      tag_280\n      jumpi\n        /* \"NFTES_Drop.sol\":5585:5586  1 */\n      0x01\n        /* \"NFTES_Drop.sol\":5577:5586  nftId = 1 */\n      swap1\n      pop\n        /* \"NFTES_Drop.sol\":5604:5608  Gold */\n      0x08\n      0x00\n        /* \"NFTES_Drop.sol\":5604:5610  Gold++ */\n      dup2\n      sload\n      dup1\n      swap3\n      swap2\n      swap1\n      tag_281\n      swap1\n      tag_133\n      jump\t// in\n    tag_281:\n      swap2\n      swap1\n      pop\n      sstore\n      pop\n        /* \"NFTES_Drop.sol\":5689:5711  Strings.toString(Gold) */\n      tag_282\n        /* \"NFTES_Drop.sol\":5706:5710  Gold */\n      sload(0x08)\n        /* \"NFTES_Drop.sol\":5689:5705  Strings.toString */\n      tag_255\n        /* \"NFTES_Drop.sol\":5689:5711  Strings.toString(Gold) */\n      jump\t// in\n    tag_282:\n        /* \"NFTES_Drop.sol\":5663:5712  abi.encodePacked(\"Gold_\", Strings.toString(Gold)) */\n      add(0x20, mload(0x40))\n      tag_283\n      swap2\n      swap1\n      tag_266\n      jump\t// in\n    tag_283:\n      mload(0x40)\n      0x20\n      dup2\n      dup4\n      sub\n      sub\n      dup2\n      mstore\n      swap1\n      0x40\n      mstore\n        /* \"NFTES_Drop.sol\":5628:5632  data */\n      0x02\n        /* \"NFTES_Drop.sol\":5628:5730  data = string(... */\n      swap1\n      dup1\n      mload\n      swap1\n      0x20\n      add\n      swap1\n      tag_284\n      swap3\n      swap2\n      swap1\n      tag_259\n      jump\t// in\n    tag_284:\n      pop\n        /* \"NFTES_Drop.sol\":5756:5761  nftId */\n      dup1\n        /* \"NFTES_Drop.sol\":5749:5761  return nftId */\n      swap2\n      pop\n      pop\n      jump(tag_246)\n        /* \"NFTES_Drop.sol\":5543:6007  if (Gold < 100) {... */\n    tag_280:\n        /* \"NFTES_Drop.sol\":5808:5809  0 */\n      0x00\n        /* \"NFTES_Drop.sol\":5800:5809  nftId = 0 */\n      swap1\n      pop\n        /* \"NFTES_Drop.sol\":5827:5834  Diamond */\n      0x07\n      0x00\n        /* \"NFTES_Drop.sol\":5827:5836  Diamond++ */\n      dup2\n      sload\n      dup1\n      swap3\n      swap2\n      swap1\n      tag_286\n      swap1\n      tag_133\n      jump\t// in\n    tag_286:\n      swap2\n      swap1\n      pop\n      sstore\n      pop\n        /* \"NFTES_Drop.sol\":5918:5943  Strings.toString(Diamond) */\n      tag_287\n        /* \"NFTES_Drop.sol\":5935:5942  Diamond */\n      sload(0x07)\n        /* \"NFTES_Drop.sol\":5918:5934  Strings.toString */\n      tag_255\n        /* \"NFTES_Drop.sol\":5918:5943  Strings.toString(Diamond) */\n      jump\t// in\n    tag_287:\n        /* \"NFTES_Drop.sol\":5889:5944  abi.encodePacked(\"Diamond_\", Strings.toString(Diamond)) */\n      add(0x20, mload(0x40))\n      tag_288\n      swap2\n      swap1\n      tag_257\n      jump\t// in\n    tag_288:\n      mload(0x40)\n      0x20\n      dup2\n      dup4\n      sub\n      sub\n      dup2\n      mstore\n      swap1\n      0x40\n      mstore\n        /* \"NFTES_Drop.sol\":5854:5858  data */\n      0x02\n        /* \"NFTES_Drop.sol\":5854:5962  data = string(... */\n      swap1\n      dup1\n      mload\n      swap1\n      0x20\n      add\n      swap1\n      tag_289\n      swap3\n      swap2\n      swap1\n      tag_259\n      jump\t// in\n    tag_289:\n      pop\n        /* \"NFTES_Drop.sol\":5987:5992  nftId */\n      dup1\n        /* \"NFTES_Drop.sol\":5980:5992  return nftId */\n      swap2\n      pop\n      pop\n        /* \"NFTES_Drop.sol\":1404:1405  _ */\n    tag_246:\n        /* \"NFTES_Drop.sol\":4342:6023  function updateConditions(uint256 index)... */\n      swap2\n      swap1\n      pop\n      jump\t// out\n        /* \"ERC1155_Drop.sol\":815:1367  function _mint(... */\n    tag_160:\n        /* \"ERC1155_Drop.sol\":977:978  0 */\n      0x00\n        /* \"ERC1155_Drop.sol\":963:979  to != address(0) */\n      0xffffffffffffffffffffffffffffffffffffffff\n      and\n        /* \"ERC1155_Drop.sol\":963:965  to */\n      dup5\n        /* \"ERC1155_Drop.sol\":963:979  to != address(0) */\n      0xffffffffffffffffffffffffffffffffffffffff\n      and\n      eq\n      iszero\n        /* \"ERC1155_Drop.sol\":955:1017  require(to != address(0), \"ERC1155: mint to the zero address\") */\n      tag_291\n      jumpi\n      mload(0x40)\n      0x08c379a000000000000000000000000000000000000000000000000000000000\n      dup2\n      mstore\n      0x04\n      add\n      tag_292\n      swap1\n      tag_293\n      jump\t// in\n    tag_292:\n      mload(0x40)\n      dup1\n      swap2\n      sub\n      swap1\n      revert\n    tag_291:\n        /* \"ERC1155_Drop.sol\":1028:1044  address operator */\n      0x00\n        /* \"ERC1155_Drop.sol\":1047:1059  _msgSender() */\n      tag_294\n        /* \"ERC1155_Drop.sol\":1047:1057  _msgSender */\n      tag_86\n        /* \"ERC1155_Drop.sol\":1047:1059  _msgSender() */\n      jump\t// in\n    tag_294:\n        /* \"ERC1155_Drop.sol\":1028:1059  address operator = _msgSender() */\n      swap1\n      pop\n        /* \"ERC1155_Drop.sol\":1070:1172  _beforeTokenTransfer(operator, address(0), to, _asSingletonArray(id), _asSingletonArray(amount), data) */\n      tag_295\n        /* \"ERC1155_Drop.sol\":1091:1099  operator */\n      dup2\n        /* \"ERC1155_Drop.sol\":1109:1110  0 */\n      0x00\n        /* \"ERC1155_Drop.sol\":1113:1115  to */\n      dup8\n        /* \"ERC1155_Drop.sol\":1117:1138  _asSingletonArray(id) */\n      tag_296\n        /* \"ERC1155_Drop.sol\":1135:1137  id */\n      dup9\n        /* \"ERC1155_Drop.sol\":1117:1134  _asSingletonArray */\n      tag_297\n        /* \"ERC1155_Drop.sol\":1117:1138  _asSingletonArray(id) */\n      jump\t// in\n    tag_296:\n        /* \"ERC1155_Drop.sol\":1140:1165  _asSingletonArray(amount) */\n      tag_298\n        /* \"ERC1155_Drop.sol\":1158:1164  amount */\n      dup9\n        /* \"ERC1155_Drop.sol\":1140:1157  _asSingletonArray */\n      tag_297\n        /* \"ERC1155_Drop.sol\":1140:1165  _asSingletonArray(amount) */\n      jump\t// in\n    tag_298:\n        /* \"ERC1155_Drop.sol\":1167:1171  data */\n      dup8\n        /* \"ERC1155_Drop.sol\":1070:1090  _beforeTokenTransfer */\n      tag_299\n        /* \"ERC1155_Drop.sol\":1070:1172  _beforeTokenTransfer(operator, address(0), to, _asSingletonArray(id), _asSingletonArray(amount), data) */\n      jump\t// in\n    tag_295:\n        /* \"ERC1155_Drop.sol\":1203:1209  amount */\n      dup3\n        /* \"ERC1155_Drop.sol\":1182:1191  _balances */\n      0x00\n        /* \"ERC1155_Drop.sol\":1182:1195  _balances[id] */\n      dup1\n        /* \"ERC1155_Drop.sol\":1192:1194  id */\n      dup7\n        /* \"ERC1155_Drop.sol\":1182:1195  _balances[id] */\n      dup2\n      mstore\n      0x20\n      add\n      swap1\n      dup2\n      mstore\n      0x20\n      add\n      0x00\n      keccak256\n        /* \"ERC1155_Drop.sol\":1182:1199  _balances[id][to] */\n      0x00\n        /* \"ERC1155_Drop.sol\":1196:1198  to */\n      dup8\n        /* \"ERC1155_Drop.sol\":1182:1199  _balances[id][to] */\n      0xffffffffffffffffffffffffffffffffffffffff\n      and\n      0xffffffffffffffffffffffffffffffffffffffff\n      and\n      dup2\n      mstore\n      0x20\n      add\n      swap1\n      dup2\n      mstore\n      0x20\n      add\n      0x00\n      keccak256\n      0x00\n        /* \"ERC1155_Drop.sol\":1182:1209  _balances[id][to] += amount */\n      dup3\n      dup3\n      sload\n      tag_300\n      swap2\n      swap1\n      tag_235\n      jump\t// in\n    tag_300:\n      swap3\n      pop\n      pop\n      dup2\n      swap1\n      sstore\n      pop\n        /* \"ERC1155_Drop.sol\":1261:1263  to */\n      dup5\n        /* \"ERC1155_Drop.sol\":1224:1276  TransferSingle(operator, address(0), to, id, amount) */\n      0xffffffffffffffffffffffffffffffffffffffff\n      and\n        /* \"ERC1155_Drop.sol\":1257:1258  0 */\n      0x00\n        /* \"ERC1155_Drop.sol\":1224:1276  TransferSingle(operator, address(0), to, id, amount) */\n      0xffffffffffffffffffffffffffffffffffffffff\n      and\n        /* \"ERC1155_Drop.sol\":1239:1247  operator */\n      dup3\n        /* \"ERC1155_Drop.sol\":1224:1276  TransferSingle(operator, address(0), to, id, amount) */\n      0xffffffffffffffffffffffffffffffffffffffff\n      and\n      0xc3d58168c5ae7397731d063d5bbf3d657854427343f4c083240f7aacaa2d0f62\n        /* \"ERC1155_Drop.sol\":1265:1267  id */\n      dup8\n        /* \"ERC1155_Drop.sol\":1269:1275  amount */\n      dup8\n        /* \"ERC1155_Drop.sol\":1224:1276  TransferSingle(operator, address(0), to, id, amount) */\n      mload(0x40)\n      tag_301\n      swap3\n      swap2\n      swap1\n      tag_302\n      jump\t// in\n    tag_301:\n      mload(0x40)\n      dup1\n      swap2\n      sub\n      swap1\n      log4\n        /* \"ERC1155_Drop.sol\":1286:1360  _doSafeTransferAcceptanceCheck(operator, address(0), to, id, amount, data) */\n      tag_303\n        /* \"ERC1155_Drop.sol\":1317:1325  operator */\n      dup2\n        /* \"ERC1155_Drop.sol\":1335:1336  0 */\n      0x00\n        /* \"ERC1155_Drop.sol\":1339:1341  to */\n      dup8\n        /* \"ERC1155_Drop.sol\":1343:1345  id */\n      dup8\n        /* \"ERC1155_Drop.sol\":1347:1353  amount */\n      dup8\n        /* \"ERC1155_Drop.sol\":1355:1359  data */\n      dup8\n        /* \"ERC1155_Drop.sol\":1286:1316  _doSafeTransferAcceptanceCheck */\n      tag_304\n        /* \"ERC1155_Drop.sol\":1286:1360  _doSafeTransferAcceptanceCheck(operator, address(0), to, id, amount, data) */\n      jump\t// in\n    tag_303:\n        /* \"ERC1155_Drop.sol\":945:1367  {... */\n      pop\n        /* \"ERC1155_Drop.sol\":815:1367  function _mint(... */\n      pop\n      pop\n      pop\n      pop\n      jump\t// out\n        /* \"NFTES_Drop.sol\":7170:7293  function depositAmount(address payee, uint256 amountToDeposit) internal {... */\n    tag_191:\n        /* \"NFTES_Drop.sol\":7271:7286  amountToDeposit */\n      dup1\n        /* \"NFTES_Drop.sol\":7252:7260  deposits */\n      0x0b\n        /* \"NFTES_Drop.sol\":7252:7267  deposits[payee] */\n      0x00\n        /* \"NFTES_Drop.sol\":7261:7266  payee */\n      dup5\n        /* \"NFTES_Drop.sol\":7252:7267  deposits[payee] */\n      0xffffffffffffffffffffffffffffffffffffffff\n      and\n      0xffffffffffffffffffffffffffffffffffffffff\n      and\n      dup2\n      mstore\n      0x20\n      add\n      swap1\n      dup2\n      mstore\n      0x20\n      add\n      0x00\n      keccak256\n      0x00\n        /* \"NFTES_Drop.sol\":7252:7286  deposits[payee] += amountToDeposit */\n      dup3\n      dup3\n      sload\n      tag_306\n      swap2\n      swap1\n      tag_235\n      jump\t// in\n    tag_306:\n      swap3\n      pop\n      pop\n      dup2\n      swap1\n      sstore\n      pop\n        /* \"NFTES_Drop.sol\":7170:7293  function depositAmount(address payee, uint256 amountToDeposit) internal {... */\n      pop\n      pop\n      jump\t// out\n        /* \"Strings.sol\":329:1032  function toString(uint256 value) internal pure returns (string memory) {... */\n    tag_255:\n        /* \"Strings.sol\":385:398  string memory */\n      0x60\n        /* \"Strings.sol\":611:612  0 */\n      0x00\n        /* \"Strings.sol\":602:607  value */\n      dup3\n        /* \"Strings.sol\":602:612  value == 0 */\n      eq\n        /* \"Strings.sol\":598:649  if (value == 0) {... */\n      iszero\n      tag_308\n      jumpi\n        /* \"Strings.sol\":628:638  return \"0\" */\n      mload(0x40)\n      dup1\n      0x40\n      add\n      0x40\n      mstore\n      dup1\n      0x01\n      dup2\n      mstore\n      0x20\n      add\n      0x3000000000000000000000000000000000000000000000000000000000000000\n      dup2\n      mstore\n      pop\n      swap1\n      pop\n      jump(tag_307)\n        /* \"Strings.sol\":598:649  if (value == 0) {... */\n    tag_308:\n        /* \"Strings.sol\":658:670  uint256 temp */\n      0x00\n        /* \"Strings.sol\":673:678  value */\n      dup3\n        /* \"Strings.sol\":658:678  uint256 temp = value */\n      swap1\n      pop\n        /* \"Strings.sol\":688:702  uint256 digits */\n      0x00\n        /* \"Strings.sol\":712:787  while (temp != 0) {... */\n    tag_309:\n        /* \"Strings.sol\":727:728  0 */\n      0x00\n        /* \"Strings.sol\":719:723  temp */\n      dup3\n        /* \"Strings.sol\":719:728  temp != 0 */\n      eq\n        /* \"Strings.sol\":712:787  while (temp != 0) {... */\n      tag_310\n      jumpi\n        /* \"Strings.sol\":744:752  digits++ */\n      dup1\n      dup1\n      tag_311\n      swap1\n      tag_133\n      jump\t// in\n    tag_311:\n      swap2\n      pop\n      pop\n        /* \"Strings.sol\":774:776  10 */\n      0x0a\n        /* \"Strings.sol\":766:776  temp /= 10 */\n      dup3\n      tag_312\n      swap2\n      swap1\n      tag_313\n      jump\t// in\n    tag_312:\n      swap2\n      pop\n        /* \"Strings.sol\":712:787  while (temp != 0) {... */\n      jump(tag_309)\n    tag_310:\n        /* \"Strings.sol\":796:815  bytes memory buffer */\n      0x00\n        /* \"Strings.sol\":828:834  digits */\n      dup2\n        /* \"Strings.sol\":818:835  new bytes(digits) */\n      0xffffffffffffffff\n      dup2\n      gt\n      iszero\n      tag_314\n      jumpi\n      tag_315\n      tag_316\n      jump\t// in\n    tag_315:\n    tag_314:\n      mload(0x40)\n      swap1\n      dup1\n      dup3\n      mstore\n      dup1\n      0x1f\n      add\n      not(0x1f)\n      and\n      0x20\n      add\n      dup3\n      add\n      0x40\n      mstore\n      dup1\n      iszero\n      tag_317\n      jumpi\n      dup2\n      0x20\n      add\n      0x01\n      dup3\n      mul\n      dup1\n      calldatasize\n      dup4\n      calldatacopy\n      dup1\n      dup3\n      add\n      swap2\n      pop\n      pop\n      swap1\n      pop\n    tag_317:\n      pop\n        /* \"Strings.sol\":796:835  bytes memory buffer = new bytes(digits) */\n      swap1\n      pop\n        /* \"Strings.sol\":845:995  while (value != 0) {... */\n    tag_318:\n        /* \"Strings.sol\":861:862  0 */\n      0x00\n        /* \"Strings.sol\":852:857  value */\n      dup6\n        /* \"Strings.sol\":852:862  value != 0 */\n      eq\n        /* \"Strings.sol\":845:995  while (value != 0) {... */\n      tag_319\n      jumpi\n        /* \"Strings.sol\":888:889  1 */\n      0x01\n        /* \"Strings.sol\":878:889  digits -= 1 */\n      dup3\n      tag_320\n      swap2\n      swap1\n      tag_321\n      jump\t// in\n    tag_320:\n      swap2\n      pop\n        /* \"Strings.sol\":954:956  10 */\n      0x0a\n        /* \"Strings.sol\":946:951  value */\n      dup6\n        /* \"Strings.sol\":946:956  value % 10 */\n      tag_322\n      swap2\n      swap1\n      tag_242\n      jump\t// in\n    tag_322:\n        /* \"Strings.sol\":933:935  48 */\n      0x30\n        /* \"Strings.sol\":933:957  48 + uint256(value % 10) */\n      tag_323\n      swap2\n      swap1\n      tag_235\n      jump\t// in\n    tag_323:\n        /* \"Strings.sol\":920:959  bytes1(uint8(48 + uint256(value % 10))) */\n      0xf8\n      shl\n        /* \"Strings.sol\":903:909  buffer */\n      dup2\n        /* \"Strings.sol\":910:916  digits */\n      dup4\n        /* \"Strings.sol\":903:917  buffer[digits] */\n      dup2\n      mload\n      dup2\n      lt\n      tag_324\n      jumpi\n      tag_325\n      tag_249\n      jump\t// in\n    tag_325:\n    tag_324:\n      0x20\n      add\n      add\n        /* \"Strings.sol\":903:959  buffer[digits] = bytes1(uint8(48 + uint256(value % 10))) */\n      swap1\n      not(0xffffffffffffffffffffffffffffffffffffffffffffffffffffffffffffff)\n      and\n      swap1\n      dup2\n      0x00\n      byte\n      swap1\n      mstore8\n      pop\n        /* \"Strings.sol\":982:984  10 */\n      0x0a\n        /* \"Strings.sol\":973:984  value /= 10 */\n      dup6\n      tag_326\n      swap2\n      swap1\n      tag_313\n      jump\t// in\n    tag_326:\n      swap5\n      pop\n        /* \"Strings.sol\":845:995  while (value != 0) {... */\n      jump(tag_318)\n    tag_319:\n        /* \"Strings.sol\":1018:1024  buffer */\n      dup1\n        /* \"Strings.sol\":1004:1025  return string(buffer) */\n      swap4\n      pop\n      pop\n      pop\n      pop\n        /* \"Strings.sol\":329:1032  function toString(uint256 value) internal pure returns (string memory) {... */\n    tag_307:\n      swap2\n      swap1\n      pop\n      jump\t// out\n        /* \"ERC1155_Drop.sol\":2327:2520  function _asSingletonArray(uint256 element) private pure returns (uint256[] memory) {... */\n    tag_297:\n        /* \"ERC1155_Drop.sol\":2393:2409  uint256[] memory */\n      0x60\n        /* \"ERC1155_Drop.sol\":2421:2443  uint256[] memory array */\n      0x00\n        /* \"ERC1155_Drop.sol\":2460:2461  1 */\n      0x01\n        /* \"ERC1155_Drop.sol\":2446:2462  new uint256[](1) */\n      0xffffffffffffffff\n      dup2\n      gt\n      iszero\n      tag_328\n      jumpi\n      tag_329\n      tag_316\n      jump\t// in\n    tag_329:\n    tag_328:\n      mload(0x40)\n      swap1\n      dup1\n      dup3\n      mstore\n      dup1\n      0x20\n      mul\n      0x20\n      add\n      dup3\n      add\n      0x40\n      mstore\n      dup1\n      iszero\n      tag_330\n      jumpi\n      dup2\n      0x20\n      add\n      0x20\n      dup3\n      mul\n      dup1\n      calldatasize\n      dup4\n      calldatacopy\n      dup1\n      dup3\n      add\n      swap2\n      pop\n      pop\n      swap1\n      pop\n    tag_330:\n      pop\n        /* \"ERC1155_Drop.sol\":2421:2462  uint256[] memory array = new uint256[](1) */\n      swap1\n      pop\n        /* \"ERC1155_Drop.sol\":2483:2490  element */\n      dup3\n        /* \"ERC1155_Drop.sol\":2472:2477  array */\n      dup2\n        /* \"ERC1155_Drop.sol\":2478:2479  0 */\n      0x00\n        /* \"ERC1155_Drop.sol\":2472:2480  array[0] */\n      dup2\n      mload\n      dup2\n      lt\n      tag_331\n      jumpi\n      tag_332\n      tag_249\n      jump\t// in\n    tag_332:\n    tag_331:\n      0x20\n      mul\n      0x20\n      add\n      add\n        /* \"ERC1155_Drop.sol\":2472:2490  array[0] = element */\n      dup2\n      dup2\n      mstore\n      pop\n      pop\n        /* \"ERC1155_Drop.sol\":2508:2513  array */\n      dup1\n        /* \"ERC1155_Drop.sol\":2501:2513  return array */\n      swap2\n      pop\n      pop\n        /* \"ERC1155_Drop.sol\":2327:2520  function _asSingletonArray(uint256 element) private pure returns (uint256[] memory) {... */\n      swap2\n      swap1\n      pop\n      jump\t// out\n        /* \"ERC1155_Drop.sol\":1374:1589  function _beforeTokenTransfer(... */\n    tag_299:\n      pop\n      pop\n      pop\n      pop\n      pop\n      pop\n      jump\t// out\n        /* \"ERC1155_Drop.sol\":1595:2321  function _doSafeTransferAcceptanceCheck(... */\n    tag_304:\n        /* \"ERC1155_Drop.sol\":1803:1818  to.isContract() */\n      tag_335\n        /* \"ERC1155_Drop.sol\":1803:1805  to */\n      dup5\n        /* \"ERC1155_Drop.sol\":1803:1816  to.isContract */\n      0xffffffffffffffffffffffffffffffffffffffff\n      and\n      tag_336\n        /* \"ERC1155_Drop.sol\":1803:1818  to.isContract() */\n      jump\t// in\n    tag_335:\n        /* \"ERC1155_Drop.sol\":1799:2315  if (to.isContract()) {... */\n      iszero\n      tag_337\n      jumpi\n        /* \"ERC1155_Drop.sol\":1855:1857  to */\n      dup4\n        /* \"ERC1155_Drop.sol\":1838:1876  IERC1155Receiver(to).onERC1155Received */\n      0xffffffffffffffffffffffffffffffffffffffff\n      and\n      0xae89a248\n        /* \"ERC1155_Drop.sol\":1877:1885  operator */\n      dup8\n        /* \"ERC1155_Drop.sol\":1887:1891  from */\n      dup8\n        /* \"ERC1155_Drop.sol\":1893:1895  id */\n      dup7\n        /* \"ERC1155_Drop.sol\":1897:1903  amount */\n      dup7\n        /* \"ERC1155_Drop.sol\":1905:1909  data */\n      dup7\n        /* \"ERC1155_Drop.sol\":1838:1910  IERC1155Receiver(to).onERC1155Received(operator, from, id, amount, data) */\n      mload(0x40)\n      dup7\n      0xffffffff\n      and\n      0xe0\n      shl\n      dup2\n      mstore\n      0x04\n      add\n      tag_338\n      swap6\n      swap5\n      swap4\n      swap3\n      swap2\n      swap1\n      tag_339\n      jump\t// in\n    tag_338:\n      0x20\n      mload(0x40)\n      dup1\n      dup4\n      sub\n      dup2\n      0x00\n      dup8\n      dup1\n      extcodesize\n      iszero\n      dup1\n      iszero\n      tag_340\n      jumpi\n      0x00\n      dup1\n      revert\n    tag_340:\n      pop\n      gas\n      call\n      swap3\n      pop\n      pop\n      pop\n      dup1\n      iszero\n      tag_341\n      jumpi\n      pop\n      mload(0x40)\n      returndatasize\n      not(0x1f)\n      0x1f\n      dup3\n      add\n      and\n      dup3\n      add\n      dup1\n      0x40\n      mstore\n      pop\n      dup2\n      add\n      swap1\n      tag_342\n      swap2\n      swap1\n      tag_343\n      jump\t// in\n    tag_342:\n      0x01\n    tag_341:\n        /* \"ERC1155_Drop.sol\":1834:2305  try IERC1155Receiver(to).onERC1155Received(operator, from, id, amount, data) returns (bytes4 response) {... */\n      tag_344\n      jumpi\n      tag_348\n      tag_349\n      jump\t// in\n    tag_348:\n      dup1\n      0x08c379a0\n      eq\n      iszero\n      tag_347\n      jumpi\n      pop\n      tag_350\n      tag_351\n      jump\t// in\n    tag_350:\n      dup1\n      tag_352\n      jumpi\n      pop\n      jump(tag_346)\n    tag_352:\n        /* \"ERC1155_Drop.sol\":2181:2187  reason */\n      dup1\n        /* \"ERC1155_Drop.sol\":2174:2188  revert(reason) */\n      mload(0x40)\n      0x08c379a000000000000000000000000000000000000000000000000000000000\n      dup2\n      mstore\n      0x04\n      add\n      tag_353\n      swap2\n      swap1\n      tag_354\n      jump\t// in\n    tag_353:\n      mload(0x40)\n      dup1\n      swap2\n      sub\n      swap1\n      revert\n        /* \"ERC1155_Drop.sol\":1834:2305  try IERC1155Receiver(to).onERC1155Received(operator, from, id, amount, data) returns (bytes4 response) {... */\n    tag_347:\n      pop\n    tag_346:\n        /* \"ERC1155_Drop.sol\":2228:2290  revert(\"ERC1155: transfer to non ERC1155Receiver implementer\") */\n      mload(0x40)\n      0x08c379a000000000000000000000000000000000000000000000000000000000\n      dup2\n      mstore\n      0x04\n      add\n      tag_355\n      swap1\n      tag_356\n      jump\t// in\n    tag_355:\n      mload(0x40)\n      dup1\n      swap2\n      sub\n      swap1\n      revert\n        /* \"ERC1155_Drop.sol\":1834:2305  try IERC1155Receiver(to).onERC1155Received(operator, from, id, amount, data) returns (bytes4 response) {... */\n    tag_344:\n        /* \"ERC1155_Drop.sol\":1971:2014  IERC1155Receiver.onERC1155Received.selector */\n      shl(0xe0, 0xae89a248)\n        /* \"ERC1155_Drop.sol\":1959:2014  response != IERC1155Receiver.onERC1155Received.selector */\n      not(0xffffffffffffffffffffffffffffffffffffffffffffffffffffffff)\n      and\n        /* \"ERC1155_Drop.sol\":1959:1967  response */\n      dup2\n        /* \"ERC1155_Drop.sol\":1959:2014  response != IERC1155Receiver.onERC1155Received.selector */\n      not(0xffffffffffffffffffffffffffffffffffffffffffffffffffffffff)\n      and\n      eq\n        /* \"ERC1155_Drop.sol\":1955:2107  if (response != IERC1155Receiver.onERC1155Received.selector) {... */\n      tag_358\n      jumpi\n        /* \"ERC1155_Drop.sol\":2038:2088  revert(\"ERC1155: ERC1155Receiver rejected tokens\") */\n      mload(0x40)\n      0x08c379a000000000000000000000000000000000000000000000000000000000\n      dup2\n      mstore\n      0x04\n      add\n      tag_359\n      swap1\n      tag_360\n      jump\t// in\n    tag_359:\n      mload(0x40)\n      dup1\n      swap2\n      sub\n      swap1\n      revert\n        /* \"ERC1155_Drop.sol\":1955:2107  if (response != IERC1155Receiver.onERC1155Received.selector) {... */\n    tag_358:\n        /* \"ERC1155_Drop.sol\":1911:2121  returns (bytes4 response) {... */\n      pop\n        /* \"ERC1155_Drop.sol\":1799:2315  if (to.isContract()) {... */\n    tag_337:\n        /* \"ERC1155_Drop.sol\":1595:2321  function _doSafeTransferAcceptanceCheck(... */\n      pop\n      pop\n      pop\n      pop\n      pop\n      pop\n      jump\t// out\n        /* \"Address.sol\":771:1148  function isContract(address account) internal view returns (bool) {... */\n    tag_336:\n        /* \"Address.sol\":831:835  bool */\n      0x00\n        /* \"Address.sol\":1034:1046  uint256 size */\n      dup1\n        /* \"Address.sol\":1099:1106  account */\n      dup3\n        /* \"Address.sol\":1087:1107  extcodesize(account) */\n      extcodesize\n        /* \"Address.sol\":1079:1107  size := extcodesize(account) */\n      swap1\n      pop\n        /* \"Address.sol\":1140:1141  0 */\n      0x00\n        /* \"Address.sol\":1133:1137  size */\n      dup2\n        /* \"Address.sol\":1133:1141  size > 0 */\n      gt\n        /* \"Address.sol\":1126:1141  return size > 0 */\n      swap2\n      pop\n      pop\n        /* \"Address.sol\":771:1148  function isContract(address account) internal view returns (bool) {... */\n      swap2\n      swap1\n      pop\n      jump\t// out\n    tag_259:\n      dup3\n      dup1\n      sload\n      tag_362\n      swap1\n      tag_155\n      jump\t// in\n    tag_362:\n      swap1\n      0x00\n      mstore\n      keccak256(0x00, 0x20)\n      swap1\n      0x1f\n      add\n      0x20\n      swap1\n      div\n      dup2\n      add\n      swap3\n      dup3\n      tag_364\n      jumpi\n      0x00\n      dup6\n      sstore\n      jump(tag_363)\n    tag_364:\n      dup3\n      0x1f\n      lt\n      tag_365\n      jumpi\n      dup1\n      mload\n      not(0xff)\n      and\n      dup4\n      dup1\n      add\n      or\n      dup6\n      sstore\n      jump(tag_363)\n    tag_365:\n      dup3\n      dup1\n      add\n      0x01\n      add\n      dup6\n      sstore\n      dup3\n      iszero\n      tag_363\n      jumpi\n      swap2\n      dup3\n      add\n    tag_366:\n      dup3\n      dup2\n      gt\n      iszero\n      tag_367\n      jumpi\n      dup3\n      mload\n      dup3\n      sstore\n      swap2\n      0x20\n      add\n      swap2\n      swap1\n      0x01\n      add\n      swap1\n      jump(tag_366)\n    tag_367:\n    tag_363:\n      pop\n      swap1\n      pop\n      tag_368\n      swap2\n      swap1\n      tag_369\n      jump\t// in\n    tag_368:\n      pop\n      swap1\n      jump\t// out\n    tag_278:\n      dup3\n      dup1\n      sload\n      tag_370\n      swap1\n      tag_155\n      jump\t// in\n    tag_370:\n      swap1\n      0x00\n      mstore\n      keccak256(0x00, 0x20)\n      swap1\n      0x1f\n      add\n      0x20\n      swap1\n      div\n      dup2\n      add\n      swap3\n      dup3\n      tag_372\n      jumpi\n      0x00\n      dup6\n      sstore\n      jump(tag_371)\n    tag_372:\n      dup3\n      0x1f\n      lt\n      tag_373\n      jumpi\n      dup1\n      sload\n      dup6\n      sstore\n      jump(tag_371)\n    tag_373:\n      dup3\n      dup1\n      add\n      0x01\n      add\n      dup6\n      sstore\n      dup3\n      iszero\n      tag_371\n      jumpi\n      0x00\n      mstore\n      keccak256(0x00, 0x20)\n      swap2\n      0x1f\n      add\n      0x20\n      swap1\n      div\n      dup3\n      add\n    tag_374:\n      dup3\n      dup2\n      gt\n      iszero\n      tag_375\n      jumpi\n      dup3\n      sload\n      dup3\n      sstore\n      swap2\n      0x01\n      add\n      swap2\n      swap1\n      0x01\n      add\n      swap1\n      jump(tag_374)\n    tag_375:\n    tag_371:\n      pop\n      swap1\n      pop\n      tag_376\n      swap2\n      swap1\n      tag_369\n      jump\t// in\n    tag_376:\n      pop\n      swap1\n      jump\t// out\n    tag_369:\n    tag_377:\n      dup1\n      dup3\n      gt\n      iszero\n      tag_378\n      jumpi\n      0x00\n      dup2\n      0x00\n      swap1\n      sstore\n      pop\n      0x01\n      add\n      jump(tag_377)\n    tag_378:\n      pop\n      swap1\n      jump\t// out\n        /* \"#utility.yul\":7:146   */\n    tag_380:\n        /* \"#utility.yul\":53:58   */\n      0x00\n        /* \"#utility.yul\":91:97   */\n      dup2\n        /* \"#utility.yul\":78:98   */\n      calldataload\n        /* \"#utility.yul\":69:98   */\n      swap1\n      pop\n        /* \"#utility.yul\":107:140   */\n      tag_382\n        /* \"#utility.yul\":134:139   */\n      dup2\n        /* \"#utility.yul\":107:140   */\n      tag_383\n      jump\t// in\n    tag_382:\n        /* \"#utility.yul\":7:146   */\n      swap3\n      swap2\n      pop\n      pop\n      jump\t// out\n        /* \"#utility.yul\":152:307   */\n    tag_384:\n        /* \"#utility.yul\":206:211   */\n      0x00\n        /* \"#utility.yul\":244:250   */\n      dup2\n        /* \"#utility.yul\":231:251   */\n      calldataload\n        /* \"#utility.yul\":222:251   */\n      swap1\n      pop\n        /* \"#utility.yul\":260:301   */\n      tag_386\n        /* \"#utility.yul\":295:300   */\n      dup2\n        /* \"#utility.yul\":260:301   */\n      tag_387\n      jump\t// in\n    tag_386:\n        /* \"#utility.yul\":152:307   */\n      swap3\n      swap2\n      pop\n      pop\n      jump\t// out\n        /* \"#utility.yul\":313:454   */\n    tag_388:\n        /* \"#utility.yul\":369:374   */\n      0x00\n        /* \"#utility.yul\":400:406   */\n      dup2\n        /* \"#utility.yul\":394:407   */\n      mload\n        /* \"#utility.yul\":385:407   */\n      swap1\n      pop\n        /* \"#utility.yul\":416:448   */\n      tag_390\n        /* \"#utility.yul\":442:447   */\n      dup2\n        /* \"#utility.yul\":416:448   */\n      tag_391\n      jump\t// in\n    tag_390:\n        /* \"#utility.yul\":313:454   */\n      swap3\n      swap2\n      pop\n      pop\n      jump\t// out\n        /* \"#utility.yul\":460:599   */\n    tag_392:\n        /* \"#utility.yul\":506:511   */\n      0x00\n        /* \"#utility.yul\":544:550   */\n      dup2\n        /* \"#utility.yul\":531:551   */\n      calldataload\n        /* \"#utility.yul\":522:551   */\n      swap1\n      pop\n        /* \"#utility.yul\":560:593   */\n      tag_394\n        /* \"#utility.yul\":587:592   */\n      dup2\n        /* \"#utility.yul\":560:593   */\n      tag_395\n      jump\t// in\n    tag_394:\n        /* \"#utility.yul\":460:599   */\n      swap3\n      swap2\n      pop\n      pop\n      jump\t// out\n        /* \"#utility.yul\":605:934   */\n    tag_44:\n        /* \"#utility.yul\":664:670   */\n      0x00\n        /* \"#utility.yul\":713:715   */\n      0x20\n        /* \"#utility.yul\":701:710   */\n      dup3\n        /* \"#utility.yul\":692:699   */\n      dup5\n        /* \"#utility.yul\":688:711   */\n      sub\n        /* \"#utility.yul\":684:716   */\n      slt\n        /* \"#utility.yul\":681:800   */\n      iszero\n      tag_397\n      jumpi\n        /* \"#utility.yul\":719:798   */\n      tag_398\n      tag_399\n      jump\t// in\n    tag_398:\n        /* \"#utility.yul\":681:800   */\n    tag_397:\n        /* \"#utility.yul\":839:840   */\n      0x00\n        /* \"#utility.yul\":864:917   */\n      tag_400\n        /* \"#utility.yul\":909:916   */\n      dup5\n        /* \"#utility.yul\":900:906   */\n      dup3\n        /* \"#utility.yul\":889:898   */\n      dup6\n        /* \"#utility.yul\":885:907   */\n      add\n        /* \"#utility.yul\":864:917   */\n      tag_380\n      jump\t// in\n    tag_400:\n        /* \"#utility.yul\":854:917   */\n      swap2\n      pop\n        /* \"#utility.yul\":810:927   */\n      pop\n        /* \"#utility.yul\":605:934   */\n      swap3\n      swap2\n      pop\n      pop\n      jump\t// out\n        /* \"#utility.yul\":940:1285   */\n    tag_26:\n        /* \"#utility.yul\":1007:1013   */\n      0x00\n        /* \"#utility.yul\":1056:1058   */\n      0x20\n        /* \"#utility.yul\":1044:1053   */\n      dup3\n        /* \"#utility.yul\":1035:1042   */\n      dup5\n        /* \"#utility.yul\":1031:1054   */\n      sub\n        /* \"#utility.yul\":1027:1059   */\n      slt\n        /* \"#utility.yul\":1024:1143   */\n      iszero\n      tag_402\n      jumpi\n        /* \"#utility.yul\":1062:1141   */\n      tag_403\n      tag_399\n      jump\t// in\n    tag_403:\n        /* \"#utility.yul\":1024:1143   */\n    tag_402:\n        /* \"#utility.yul\":1182:1183   */\n      0x00\n        /* \"#utility.yul\":1207:1268   */\n      tag_404\n        /* \"#utility.yul\":1260:1267   */\n      dup5\n        /* \"#utility.yul\":1251:1257   */\n      dup3\n        /* \"#utility.yul\":1240:1249   */\n      dup6\n        /* \"#utility.yul\":1236:1258   */\n      add\n        /* \"#utility.yul\":1207:1268   */\n      tag_384\n      jump\t// in\n    tag_404:\n        /* \"#utility.yul\":1197:1268   */\n      swap2\n      pop\n        /* \"#utility.yul\":1153:1278   */\n      pop\n        /* \"#utility.yul\":940:1285   */\n      swap3\n      swap2\n      pop\n      pop\n      jump\t// out\n        /* \"#utility.yul\":1291:1765   */\n    tag_34:\n        /* \"#utility.yul\":1359:1365   */\n      0x00\n        /* \"#utility.yul\":1367:1373   */\n      dup1\n        /* \"#utility.yul\":1416:1418   */\n      0x40\n        /* \"#utility.yul\":1404:1413   */\n      dup4\n        /* \"#utility.yul\":1395:1402   */\n      dup6\n        /* \"#utility.yul\":1391:1414   */\n      sub\n        /* \"#utility.yul\":1387:1419   */\n      slt\n        /* \"#utility.yul\":1384:1503   */\n      iszero\n      tag_406\n      jumpi\n        /* \"#utility.yul\":1422:1501   */\n      tag_407\n      tag_399\n      jump\t// in\n    tag_407:\n        /* \"#utility.yul\":1384:1503   */\n    tag_406:\n        /* \"#utility.yul\":1542:1543   */\n      0x00\n        /* \"#utility.yul\":1567:1620   */\n      tag_408\n        /* \"#utility.yul\":1612:1619   */\n      dup6\n        /* \"#utility.yul\":1603:1609   */\n      dup3\n        /* \"#utility.yul\":1592:1601   */\n      dup7\n        /* \"#utility.yul\":1588:1610   */\n      add\n        /* \"#utility.yul\":1567:1620   */\n      tag_380\n      jump\t// in\n    tag_408:\n        /* \"#utility.yul\":1557:1620   */\n      swap3\n      pop\n        /* \"#utility.yul\":1513:1630   */\n      pop\n        /* \"#utility.yul\":1669:1671   */\n      0x20\n        /* \"#utility.yul\":1695:1748   */\n      tag_409\n        /* \"#utility.yul\":1740:1747   */\n      dup6\n        /* \"#utility.yul\":1731:1737   */\n      dup3\n        /* \"#utility.yul\":1720:1729   */\n      dup7\n        /* \"#utility.yul\":1716:1738   */\n      add\n        /* \"#utility.yul\":1695:1748   */\n      tag_392\n      jump\t// in\n    tag_409:\n        /* \"#utility.yul\":1685:1748   */\n      swap2\n      pop\n        /* \"#utility.yul\":1640:1758   */\n      pop\n        /* \"#utility.yul\":1291:1765   */\n      swap3\n      pop\n      swap3\n      swap1\n      pop\n      jump\t// out\n        /* \"#utility.yul\":1771:2120   */\n    tag_343:\n        /* \"#utility.yul\":1840:1846   */\n      0x00\n        /* \"#utility.yul\":1889:1891   */\n      0x20\n        /* \"#utility.yul\":1877:1886   */\n      dup3\n        /* \"#utility.yul\":1868:1875   */\n      dup5\n        /* \"#utility.yul\":1864:1887   */\n      sub\n        /* \"#utility.yul\":1860:1892   */\n      slt\n        /* \"#utility.yul\":1857:1976   */\n      iszero\n      tag_411\n      jumpi\n        /* \"#utility.yul\":1895:1974   */\n      tag_412\n      tag_399\n      jump\t// in\n    tag_412:\n        /* \"#utility.yul\":1857:1976   */\n    tag_411:\n        /* \"#utility.yul\":2015:2016   */\n      0x00\n        /* \"#utility.yul\":2040:2103   */\n      tag_413\n        /* \"#utility.yul\":2095:2102   */\n      dup5\n        /* \"#utility.yul\":2086:2092   */\n      dup3\n        /* \"#utility.yul\":2075:2084   */\n      dup6\n        /* \"#utility.yul\":2071:2093   */\n      add\n        /* \"#utility.yul\":2040:2103   */\n      tag_388\n      jump\t// in\n    tag_413:\n        /* \"#utility.yul\":2030:2103   */\n      swap2\n      pop\n        /* \"#utility.yul\":1986:2113   */\n      pop\n        /* \"#utility.yul\":1771:2120   */\n      swap3\n      swap2\n      pop\n      pop\n      jump\t// out\n        /* \"#utility.yul\":2126:2455   */\n    tag_77:\n        /* \"#utility.yul\":2185:2191   */\n      0x00\n        /* \"#utility.yul\":2234:2236   */\n      0x20\n        /* \"#utility.yul\":2222:2231   */\n      dup3\n        /* \"#utility.yul\":2213:2220   */\n      dup5\n        /* \"#utility.yul\":2209:2232   */\n      sub\n        /* \"#utility.yul\":2205:2237   */\n      slt\n        /* \"#utility.yul\":2202:2321   */\n      iszero\n      tag_415\n      jumpi\n        /* \"#utility.yul\":2240:2319   */\n      tag_416\n      tag_399\n      jump\t// in\n    tag_416:\n        /* \"#utility.yul\":2202:2321   */\n    tag_415:\n        /* \"#utility.yul\":2360:2361   */\n      0x00\n        /* \"#utility.yul\":2385:2438   */\n      tag_417\n        /* \"#utility.yul\":2430:2437   */\n      dup5\n        /* \"#utility.yul\":2421:2427   */\n      dup3\n        /* \"#utility.yul\":2410:2419   */\n      dup6\n        /* \"#utility.yul\":2406:2428   */\n      add\n        /* \"#utility.yul\":2385:2438   */\n      tag_392\n      jump\t// in\n    tag_417:\n        /* \"#utility.yul\":2375:2438   */\n      swap2\n      pop\n        /* \"#utility.yul\":2331:2448   */\n      pop\n        /* \"#utility.yul\":2126:2455   */\n      swap3\n      swap2\n      pop\n      pop\n      jump\t// out\n        /* \"#utility.yul\":2461:2640   */\n    tag_418:\n        /* \"#utility.yul\":2530:2540   */\n      0x00\n        /* \"#utility.yul\":2551:2597   */\n      tag_420\n        /* \"#utility.yul\":2593:2596   */\n      dup4\n        /* \"#utility.yul\":2585:2591   */\n      dup4\n        /* \"#utility.yul\":2551:2597   */\n      tag_421\n      jump\t// in\n    tag_420:\n        /* \"#utility.yul\":2629:2633   */\n      0x20\n        /* \"#utility.yul\":2624:2627   */\n      dup4\n        /* \"#utility.yul\":2620:2634   */\n      add\n        /* \"#utility.yul\":2606:2634   */\n      swap1\n      pop\n        /* \"#utility.yul\":2461:2640   */\n      swap3\n      swap2\n      pop\n      pop\n      jump\t// out\n        /* \"#utility.yul\":2646:2788   */\n    tag_422:\n        /* \"#utility.yul\":2749:2781   */\n      tag_424\n        /* \"#utility.yul\":2775:2780   */\n      dup2\n        /* \"#utility.yul\":2749:2781   */\n      tag_425\n      jump\t// in\n    tag_424:\n        /* \"#utility.yul\":2744:2747   */\n      dup3\n        /* \"#utility.yul\":2737:2782   */\n      mstore\n        /* \"#utility.yul\":2646:2788   */\n      pop\n      pop\n      jump\t// out\n        /* \"#utility.yul\":2794:2983   */\n    tag_426:\n        /* \"#utility.yul\":2915:2976   */\n      tag_428\n        /* \"#utility.yul\":2943:2975   */\n      tag_429\n        /* \"#utility.yul\":2969:2974   */\n      dup3\n        /* \"#utility.yul\":2943:2975   */\n      tag_425\n      jump\t// in\n    tag_429:\n        /* \"#utility.yul\":2915:2976   */\n      tag_430\n      jump\t// in\n    tag_428:\n        /* \"#utility.yul\":2910:2913   */\n      dup3\n        /* \"#utility.yul\":2903:2977   */\n      mstore\n        /* \"#utility.yul\":2794:2983   */\n      pop\n      pop\n      jump\t// out\n        /* \"#utility.yul\":2989:3107   */\n    tag_431:\n        /* \"#utility.yul\":3076:3100   */\n      tag_433\n        /* \"#utility.yul\":3094:3099   */\n      dup2\n        /* \"#utility.yul\":3076:3100   */\n      tag_434\n      jump\t// in\n    tag_433:\n        /* \"#utility.yul\":3071:3074   */\n      dup3\n        /* \"#utility.yul\":3064:3101   */\n      mstore\n        /* \"#utility.yul\":2989:3107   */\n      pop\n      pop\n      jump\t// out\n        /* \"#utility.yul\":3113:3270   */\n    tag_435:\n        /* \"#utility.yul\":3218:3263   */\n      tag_437\n        /* \"#utility.yul\":3238:3262   */\n      tag_438\n        /* \"#utility.yul\":3256:3261   */\n      dup3\n        /* \"#utility.yul\":3238:3262   */\n      tag_434\n      jump\t// in\n    tag_438:\n        /* \"#utility.yul\":3218:3263   */\n      tag_439\n      jump\t// in\n    tag_437:\n        /* \"#utility.yul\":3213:3216   */\n      dup3\n        /* \"#utility.yul\":3206:3264   */\n      mstore\n        /* \"#utility.yul\":3113:3270   */\n      pop\n      pop\n      jump\t// out\n        /* \"#utility.yul\":3306:4038   */\n    tag_440:\n        /* \"#utility.yul\":3425:3428   */\n      0x00\n        /* \"#utility.yul\":3454:3508   */\n      tag_442\n        /* \"#utility.yul\":3502:3507   */\n      dup3\n        /* \"#utility.yul\":3454:3508   */\n      tag_443\n      jump\t// in\n    tag_442:\n        /* \"#utility.yul\":3524:3610   */\n      tag_444\n        /* \"#utility.yul\":3603:3609   */\n      dup2\n        /* \"#utility.yul\":3598:3601   */\n      dup6\n        /* \"#utility.yul\":3524:3610   */\n      tag_445\n      jump\t// in\n    tag_444:\n        /* \"#utility.yul\":3517:3610   */\n      swap4\n      pop\n        /* \"#utility.yul\":3634:3690   */\n      tag_446\n        /* \"#utility.yul\":3684:3689   */\n      dup4\n        /* \"#utility.yul\":3634:3690   */\n      tag_447\n      jump\t// in\n    tag_446:\n        /* \"#utility.yul\":3713:3720   */\n      dup1\n        /* \"#utility.yul\":3744:3745   */\n      0x00\n        /* \"#utility.yul\":3729:4013   */\n    tag_448:\n        /* \"#utility.yul\":3754:3760   */\n      dup4\n        /* \"#utility.yul\":3751:3752   */\n      dup2\n        /* \"#utility.yul\":3748:3761   */\n      lt\n        /* \"#utility.yul\":3729:4013   */\n      iszero\n      tag_450\n      jumpi\n        /* \"#utility.yul\":3830:3836   */\n      dup2\n        /* \"#utility.yul\":3824:3837   */\n      mload\n        /* \"#utility.yul\":3857:3920   */\n      tag_451\n        /* \"#utility.yul\":3916:3919   */\n      dup9\n        /* \"#utility.yul\":3901:3914   */\n      dup3\n        /* \"#utility.yul\":3857:3920   */\n      tag_418\n      jump\t// in\n    tag_451:\n        /* \"#utility.yul\":3850:3920   */\n      swap8\n      pop\n        /* \"#utility.yul\":3943:4003   */\n      tag_452\n        /* \"#utility.yul\":3996:4002   */\n      dup4\n        /* \"#utility.yul\":3943:4003   */\n      tag_453\n      jump\t// in\n    tag_452:\n        /* \"#utility.yul\":3933:4003   */\n      swap3\n      pop\n        /* \"#utility.yul\":3789:4013   */\n      pop\n        /* \"#utility.yul\":3776:3777   */\n      0x01\n        /* \"#utility.yul\":3773:3774   */\n      dup2\n        /* \"#utility.yul\":3769:3778   */\n      add\n        /* \"#utility.yul\":3764:3778   */\n      swap1\n      pop\n        /* \"#utility.yul\":3729:4013   */\n      jump(tag_448)\n    tag_450:\n        /* \"#utility.yul\":3733:3747   */\n      pop\n        /* \"#utility.yul\":4029:4032   */\n      dup6\n        /* \"#utility.yul\":4022:4032   */\n      swap4\n      pop\n        /* \"#utility.yul\":3430:4038   */\n      pop\n      pop\n      pop\n        /* \"#utility.yul\":3306:4038   */\n      swap3\n      swap2\n      pop\n      pop\n      jump\t// out\n        /* \"#utility.yul\":4044:4153   */\n    tag_454:\n        /* \"#utility.yul\":4125:4146   */\n      tag_456\n        /* \"#utility.yul\":4140:4145   */\n      dup2\n        /* \"#utility.yul\":4125:4146   */\n      tag_457\n      jump\t// in\n    tag_456:\n        /* \"#utility.yul\":4120:4123   */\n      dup3\n        /* \"#utility.yul\":4113:4147   */\n      mstore\n        /* \"#utility.yul\":4044:4153   */\n      pop\n      pop\n      jump\t// out\n        /* \"#utility.yul\":4159:4523   */\n    tag_458:\n        /* \"#utility.yul\":4247:4250   */\n      0x00\n        /* \"#utility.yul\":4275:4314   */\n      tag_460\n        /* \"#utility.yul\":4308:4313   */\n      dup3\n        /* \"#utility.yul\":4275:4314   */\n      tag_461\n      jump\t// in\n    tag_460:\n        /* \"#utility.yul\":4330:4401   */\n      tag_462\n        /* \"#utility.yul\":4394:4400   */\n      dup2\n        /* \"#utility.yul\":4389:4392   */\n      dup6\n        /* \"#utility.yul\":4330:4401   */\n      tag_463\n      jump\t// in\n    tag_462:\n        /* \"#utility.yul\":4323:4401   */\n      swap4\n      pop\n        /* \"#utility.yul\":4410:4462   */\n      tag_464\n        /* \"#utility.yul\":4455:4461   */\n      dup2\n        /* \"#utility.yul\":4450:4453   */\n      dup6\n        /* \"#utility.yul\":4443:4447   */\n      0x20\n        /* \"#utility.yul\":4436:4441   */\n      dup7\n        /* \"#utility.yul\":4432:4448   */\n      add\n        /* \"#utility.yul\":4410:4462   */\n      tag_465\n      jump\t// in\n    tag_464:\n        /* \"#utility.yul\":4487:4516   */\n      tag_466\n        /* \"#utility.yul\":4509:4515   */\n      dup2\n        /* \"#utility.yul\":4487:4516   */\n      tag_467\n      jump\t// in\n    tag_466:\n        /* \"#utility.yul\":4482:4485   */\n      dup5\n        /* \"#utility.yul\":4478:4517   */\n      add\n        /* \"#utility.yul\":4471:4517   */\n      swap2\n      pop\n        /* \"#utility.yul\":4251:4523   */\n      pop\n        /* \"#utility.yul\":4159:4523   */\n      swap3\n      swap2\n      pop\n      pop\n      jump\t// out\n        /* \"#utility.yul\":4529:4906   */\n    tag_468:\n        /* \"#utility.yul\":4635:4638   */\n      0x00\n        /* \"#utility.yul\":4663:4702   */\n      tag_470\n        /* \"#utility.yul\":4696:4701   */\n      dup3\n        /* \"#utility.yul\":4663:4702   */\n      tag_461\n      jump\t// in\n    tag_470:\n        /* \"#utility.yul\":4718:4807   */\n      tag_471\n        /* \"#utility.yul\":4800:4806   */\n      dup2\n        /* \"#utility.yul\":4795:4798   */\n      dup6\n        /* \"#utility.yul\":4718:4807   */\n      tag_472\n      jump\t// in\n    tag_471:\n        /* \"#utility.yul\":4711:4807   */\n      swap4\n      pop\n        /* \"#utility.yul\":4816:4868   */\n      tag_473\n        /* \"#utility.yul\":4861:4867   */\n      dup2\n        /* \"#utility.yul\":4856:4859   */\n      dup6\n        /* \"#utility.yul\":4849:4853   */\n      0x20\n        /* \"#utility.yul\":4842:4847   */\n      dup7\n        /* \"#utility.yul\":4838:4854   */\n      add\n        /* \"#utility.yul\":4816:4868   */\n      tag_465\n      jump\t// in\n    tag_473:\n        /* \"#utility.yul\":4893:4899   */\n      dup1\n        /* \"#utility.yul\":4888:4891   */\n      dup5\n        /* \"#utility.yul\":4884:4900   */\n      add\n        /* \"#utility.yul\":4877:4900   */\n      swap2\n      pop\n        /* \"#utility.yul\":4639:4906   */\n      pop\n        /* \"#utility.yul\":4529:4906   */\n      swap3\n      swap2\n      pop\n      pop\n      jump\t// out\n        /* \"#utility.yul\":4912:5278   */\n    tag_474:\n        /* \"#utility.yul\":5054:5057   */\n      0x00\n        /* \"#utility.yul\":5075:5142   */\n      tag_476\n        /* \"#utility.yul\":5139:5141   */\n      0x34\n        /* \"#utility.yul\":5134:5137   */\n      dup4\n        /* \"#utility.yul\":5075:5142   */\n      tag_463\n      jump\t// in\n    tag_476:\n        /* \"#utility.yul\":5068:5142   */\n      swap2\n      pop\n        /* \"#utility.yul\":5151:5244   */\n      tag_477\n        /* \"#utility.yul\":5240:5243   */\n      dup3\n        /* \"#utility.yul\":5151:5244   */\n      tag_478\n      jump\t// in\n    tag_477:\n        /* \"#utility.yul\":5269:5271   */\n      0x40\n        /* \"#utility.yul\":5264:5267   */\n      dup3\n        /* \"#utility.yul\":5260:5272   */\n      add\n        /* \"#utility.yul\":5253:5272   */\n      swap1\n      pop\n        /* \"#utility.yul\":4912:5278   */\n      swap2\n      swap1\n      pop\n      jump\t// out\n        /* \"#utility.yul\":5284:5650   */\n    tag_479:\n        /* \"#utility.yul\":5426:5429   */\n      0x00\n        /* \"#utility.yul\":5447:5514   */\n      tag_481\n        /* \"#utility.yul\":5511:5513   */\n      0x28\n        /* \"#utility.yul\":5506:5509   */\n      dup4\n        /* \"#utility.yul\":5447:5514   */\n      tag_463\n      jump\t// in\n    tag_481:\n        /* \"#utility.yul\":5440:5514   */\n      swap2\n      pop\n        /* \"#utility.yul\":5523:5616   */\n      tag_482\n        /* \"#utility.yul\":5612:5615   */\n      dup3\n        /* \"#utility.yul\":5523:5616   */\n      tag_483\n      jump\t// in\n    tag_482:\n        /* \"#utility.yul\":5641:5643   */\n      0x40\n        /* \"#utility.yul\":5636:5639   */\n      dup3\n        /* \"#utility.yul\":5632:5644   */\n      add\n        /* \"#utility.yul\":5625:5644   */\n      swap1\n      pop\n        /* \"#utility.yul\":5284:5650   */\n      swap2\n      swap1\n      pop\n      jump\t// out\n        /* \"#utility.yul\":5656:6056   */\n    tag_484:\n        /* \"#utility.yul\":5816:5819   */\n      0x00\n        /* \"#utility.yul\":5837:5921   */\n      tag_486\n        /* \"#utility.yul\":5919:5920   */\n      0x08\n        /* \"#utility.yul\":5914:5917   */\n      dup4\n        /* \"#utility.yul\":5837:5921   */\n      tag_472\n      jump\t// in\n    tag_486:\n        /* \"#utility.yul\":5830:5921   */\n      swap2\n      pop\n        /* \"#utility.yul\":5930:6023   */\n      tag_487\n        /* \"#utility.yul\":6019:6022   */\n      dup3\n        /* \"#utility.yul\":5930:6023   */\n      tag_488\n      jump\t// in\n    tag_487:\n        /* \"#utility.yul\":6048:6049   */\n      0x08\n        /* \"#utility.yul\":6043:6046   */\n      dup3\n        /* \"#utility.yul\":6039:6050   */\n      add\n        /* \"#utility.yul\":6032:6050   */\n      swap1\n      pop\n        /* \"#utility.yul\":5656:6056   */\n      swap2\n      swap1\n      pop\n      jump\t// out\n        /* \"#utility.yul\":6062:6428   */\n    tag_489:\n        /* \"#utility.yul\":6204:6207   */\n      0x00\n        /* \"#utility.yul\":6225:6292   */\n      tag_491\n        /* \"#utility.yul\":6289:6291   */\n      0x10\n        /* \"#utility.yul\":6284:6287   */\n      dup4\n        /* \"#utility.yul\":6225:6292   */\n      tag_463\n      jump\t// in\n    tag_491:\n        /* \"#utility.yul\":6218:6292   */\n      swap2\n      pop\n        /* \"#utility.yul\":6301:6394   */\n      tag_492\n        /* \"#utility.yul\":6390:6393   */\n      dup3\n        /* \"#utility.yul\":6301:6394   */\n      tag_493\n      jump\t// in\n    tag_492:\n        /* \"#utility.yul\":6419:6421   */\n      0x20\n        /* \"#utility.yul\":6414:6417   */\n      dup3\n        /* \"#utility.yul\":6410:6422   */\n      add\n        /* \"#utility.yul\":6403:6422   */\n      swap1\n      pop\n        /* \"#utility.yul\":6062:6428   */\n      swap2\n      swap1\n      pop\n      jump\t// out\n        /* \"#utility.yul\":6434:6834   */\n    tag_494:\n        /* \"#utility.yul\":6594:6597   */\n      0x00\n        /* \"#utility.yul\":6615:6699   */\n      tag_496\n        /* \"#utility.yul\":6697:6698   */\n      0x05\n        /* \"#utility.yul\":6692:6695   */\n      dup4\n        /* \"#utility.yul\":6615:6699   */\n      tag_472\n      jump\t// in\n    tag_496:\n        /* \"#utility.yul\":6608:6699   */\n      swap2\n      pop\n        /* \"#utility.yul\":6708:6801   */\n      tag_497\n        /* \"#utility.yul\":6797:6800   */\n      dup3\n        /* \"#utility.yul\":6708:6801   */\n      tag_498\n      jump\t// in\n    tag_497:\n        /* \"#utility.yul\":6826:6827   */\n      0x05\n        /* \"#utility.yul\":6821:6824   */\n      dup3\n        /* \"#utility.yul\":6817:6828   */\n      add\n        /* \"#utility.yul\":6810:6828   */\n      swap1\n      pop\n        /* \"#utility.yul\":6434:6834   */\n      swap2\n      swap1\n      pop\n      jump\t// out\n        /* \"#utility.yul\":6840:7206   */\n    tag_499:\n        /* \"#utility.yul\":6982:6985   */\n      0x00\n        /* \"#utility.yul\":7003:7070   */\n      tag_501\n        /* \"#utility.yul\":7067:7069   */\n      0x12\n        /* \"#utility.yul\":7062:7065   */\n      dup4\n        /* \"#utility.yul\":7003:7070   */\n      tag_463\n      jump\t// in\n    tag_501:\n        /* \"#utility.yul\":6996:7070   */\n      swap2\n      pop\n        /* \"#utility.yul\":7079:7172   */\n      tag_502\n        /* \"#utility.yul\":7168:7171   */\n      dup3\n        /* \"#utility.yul\":7079:7172   */\n      tag_503\n      jump\t// in\n    tag_502:\n        /* \"#utility.yul\":7197:7199   */\n      0x20\n        /* \"#utility.yul\":7192:7195   */\n      dup3\n        /* \"#utility.yul\":7188:7200   */\n      add\n        /* \"#utility.yul\":7181:7200   */\n      swap1\n      pop\n        /* \"#utility.yul\":6840:7206   */\n      swap2\n      swap1\n      pop\n      jump\t// out\n        /* \"#utility.yul\":7212:7578   */\n    tag_504:\n        /* \"#utility.yul\":7354:7357   */\n      0x00\n        /* \"#utility.yul\":7375:7442   */\n      tag_506\n        /* \"#utility.yul\":7439:7441   */\n      0x1b\n        /* \"#utility.yul\":7434:7437   */\n      dup4\n        /* \"#utility.yul\":7375:7442   */\n      tag_463\n      jump\t// in\n    tag_506:\n        /* \"#utility.yul\":7368:7442   */\n      swap2\n      pop\n        /* \"#utility.yul\":7451:7544   */\n      tag_507\n        /* \"#utility.yul\":7540:7543   */\n      dup3\n        /* \"#utility.yul\":7451:7544   */\n      tag_508\n      jump\t// in\n    tag_507:\n        /* \"#utility.yul\":7569:7571   */\n      0x20\n        /* \"#utility.yul\":7564:7567   */\n      dup3\n        /* \"#utility.yul\":7560:7572   */\n      add\n        /* \"#utility.yul\":7553:7572   */\n      swap1\n      pop\n        /* \"#utility.yul\":7212:7578   */\n      swap2\n      swap1\n      pop\n      jump\t// out\n        /* \"#utility.yul\":7584:7950   */\n    tag_509:\n        /* \"#utility.yul\":7726:7729   */\n      0x00\n        /* \"#utility.yul\":7747:7814   */\n      tag_511\n        /* \"#utility.yul\":7811:7813   */\n      0x1b\n        /* \"#utility.yul\":7806:7809   */\n      dup4\n        /* \"#utility.yul\":7747:7814   */\n      tag_463\n      jump\t// in\n    tag_511:\n        /* \"#utility.yul\":7740:7814   */\n      swap2\n      pop\n        /* \"#utility.yul\":7823:7916   */\n      tag_512\n        /* \"#utility.yul\":7912:7915   */\n      dup3\n        /* \"#utility.yul\":7823:7916   */\n      tag_513\n      jump\t// in\n    tag_512:\n        /* \"#utility.yul\":7941:7943   */\n      0x20\n        /* \"#utility.yul\":7936:7939   */\n      dup3\n        /* \"#utility.yul\":7932:7944   */\n      add\n        /* \"#utility.yul\":7925:7944   */\n      swap1\n      pop\n        /* \"#utility.yul\":7584:7950   */\n      swap2\n      swap1\n      pop\n      jump\t// out\n        /* \"#utility.yul\":7956:8322   */\n    tag_514:\n        /* \"#utility.yul\":8098:8101   */\n      0x00\n        /* \"#utility.yul\":8119:8186   */\n      tag_516\n        /* \"#utility.yul\":8183:8185   */\n      0x15\n        /* \"#utility.yul\":8178:8181   */\n      dup4\n        /* \"#utility.yul\":8119:8186   */\n      tag_463\n      jump\t// in\n    tag_516:\n        /* \"#utility.yul\":8112:8186   */\n      swap2\n      pop\n        /* \"#utility.yul\":8195:8288   */\n      tag_517\n        /* \"#utility.yul\":8284:8287   */\n      dup3\n        /* \"#utility.yul\":8195:8288   */\n      tag_518\n      jump\t// in\n    tag_517:\n        /* \"#utility.yul\":8313:8315   */\n      0x20\n        /* \"#utility.yul\":8308:8311   */\n      dup3\n        /* \"#utility.yul\":8304:8316   */\n      add\n        /* \"#utility.yul\":8297:8316   */\n      swap1\n      pop\n        /* \"#utility.yul\":7956:8322   */\n      swap2\n      swap1\n      pop\n      jump\t// out\n        /* \"#utility.yul\":8328:8694   */\n    tag_519:\n        /* \"#utility.yul\":8470:8473   */\n      0x00\n        /* \"#utility.yul\":8491:8558   */\n      tag_521\n        /* \"#utility.yul\":8555:8557   */\n      0x1c\n        /* \"#utility.yul\":8550:8553   */\n      dup4\n        /* \"#utility.yul\":8491:8558   */\n      tag_463\n      jump\t// in\n    tag_521:\n        /* \"#utility.yul\":8484:8558   */\n      swap2\n      pop\n        /* \"#utility.yul\":8567:8660   */\n      tag_522\n        /* \"#utility.yul\":8656:8659   */\n      dup3\n        /* \"#utility.yul\":8567:8660   */\n      tag_523\n      jump\t// in\n    tag_522:\n        /* \"#utility.yul\":8685:8687   */\n      0x20\n        /* \"#utility.yul\":8680:8683   */\n      dup3\n        /* \"#utility.yul\":8676:8688   */\n      add\n        /* \"#utility.yul\":8669:8688   */\n      swap1\n      pop\n        /* \"#utility.yul\":8328:8694   */\n      swap2\n      swap1\n      pop\n      jump\t// out\n        /* \"#utility.yul\":8700:9066   */\n    tag_524:\n        /* \"#utility.yul\":8842:8845   */\n      0x00\n        /* \"#utility.yul\":8863:8930   */\n      tag_526\n        /* \"#utility.yul\":8927:8929   */\n      0x1b\n        /* \"#utility.yul\":8922:8925   */\n      dup4\n        /* \"#utility.yul\":8863:8930   */\n      tag_463\n      jump\t// in\n    tag_526:\n        /* \"#utility.yul\":8856:8930   */\n      swap2\n      pop\n        /* \"#utility.yul\":8939:9032   */\n      tag_527\n        /* \"#utility.yul\":9028:9031   */\n      dup3\n        /* \"#utility.yul\":8939:9032   */\n      tag_528\n      jump\t// in\n    tag_527:\n        /* \"#utility.yul\":9057:9059   */\n      0x20\n        /* \"#utility.yul\":9052:9055   */\n      dup3\n        /* \"#utility.yul\":9048:9060   */\n      add\n        /* \"#utility.yul\":9041:9060   */\n      swap1\n      pop\n        /* \"#utility.yul\":8700:9066   */\n      swap2\n      swap1\n      pop\n      jump\t// out\n        /* \"#utility.yul\":9072:9438   */\n    tag_529:\n        /* \"#utility.yul\":9214:9217   */\n      0x00\n        /* \"#utility.yul\":9235:9302   */\n      tag_531\n        /* \"#utility.yul\":9299:9301   */\n      0x19\n        /* \"#utility.yul\":9294:9297   */\n      dup4\n        /* \"#utility.yul\":9235:9302   */\n      tag_463\n      jump\t// in\n    tag_531:\n        /* \"#utility.yul\":9228:9302   */\n      swap2\n      pop\n        /* \"#utility.yul\":9311:9404   */\n      tag_532\n        /* \"#utility.yul\":9400:9403   */\n      dup3\n        /* \"#utility.yul\":9311:9404   */\n      tag_533\n      jump\t// in\n    tag_532:\n        /* \"#utility.yul\":9429:9431   */\n      0x20\n        /* \"#utility.yul\":9424:9427   */\n      dup3\n        /* \"#utility.yul\":9420:9432   */\n      add\n        /* \"#utility.yul\":9413:9432   */\n      swap1\n      pop\n        /* \"#utility.yul\":9072:9438   */\n      swap2\n      swap1\n      pop\n      jump\t// out\n        /* \"#utility.yul\":9444:9844   */\n    tag_534:\n        /* \"#utility.yul\":9604:9607   */\n      0x00\n        /* \"#utility.yul\":9625:9709   */\n      tag_536\n        /* \"#utility.yul\":9707:9708   */\n      0x07\n        /* \"#utility.yul\":9702:9705   */\n      dup4\n        /* \"#utility.yul\":9625:9709   */\n      tag_472\n      jump\t// in\n    tag_536:\n        /* \"#utility.yul\":9618:9709   */\n      swap2\n      pop\n        /* \"#utility.yul\":9718:9811   */\n      tag_537\n        /* \"#utility.yul\":9807:9810   */\n      dup3\n        /* \"#utility.yul\":9718:9811   */\n      tag_538\n      jump\t// in\n    tag_537:\n        /* \"#utility.yul\":9836:9837   */\n      0x07\n        /* \"#utility.yul\":9831:9834   */\n      dup3\n        /* \"#utility.yul\":9827:9838   */\n      add\n        /* \"#utility.yul\":9820:9838   */\n      swap1\n      pop\n        /* \"#utility.yul\":9444:9844   */\n      swap2\n      swap1\n      pop\n      jump\t// out\n        /* \"#utility.yul\":9850:10216   */\n    tag_539:\n        /* \"#utility.yul\":9992:9995   */\n      0x00\n        /* \"#utility.yul\":10013:10080   */\n      tag_541\n        /* \"#utility.yul\":10077:10079   */\n      0x1d\n        /* \"#utility.yul\":10072:10075   */\n      dup4\n        /* \"#utility.yul\":10013:10080   */\n      tag_463\n      jump\t// in\n    tag_541:\n        /* \"#utility.yul\":10006:10080   */\n      swap2\n      pop\n        /* \"#utility.yul\":10089:10182   */\n      tag_542\n        /* \"#utility.yul\":10178:10181   */\n      dup3\n        /* \"#utility.yul\":10089:10182   */\n      tag_543\n      jump\t// in\n    tag_542:\n        /* \"#utility.yul\":10207:10209   */\n      0x20\n        /* \"#utility.yul\":10202:10205   */\n      dup3\n        /* \"#utility.yul\":10198:10210   */\n      add\n        /* \"#utility.yul\":10191:10210   */\n      swap1\n      pop\n        /* \"#utility.yul\":9850:10216   */\n      swap2\n      swap1\n      pop\n      jump\t// out\n        /* \"#utility.yul\":10222:10588   */\n    tag_544:\n        /* \"#utility.yul\":10364:10367   */\n      0x00\n        /* \"#utility.yul\":10385:10452   */\n      tag_546\n        /* \"#utility.yul\":10449:10451   */\n      0x21\n        /* \"#utility.yul\":10444:10447   */\n      dup4\n        /* \"#utility.yul\":10385:10452   */\n      tag_463\n      jump\t// in\n    tag_546:\n        /* \"#utility.yul\":10378:10452   */\n      swap2\n      pop\n        /* \"#utility.yul\":10461:10554   */\n      tag_547\n        /* \"#utility.yul\":10550:10553   */\n      dup3\n        /* \"#utility.yul\":10461:10554   */\n      tag_548\n      jump\t// in\n    tag_547:\n        /* \"#utility.yul\":10579:10581   */\n      0x40\n        /* \"#utility.yul\":10574:10577   */\n      dup3\n        /* \"#utility.yul\":10570:10582   */\n      add\n        /* \"#utility.yul\":10563:10582   */\n      swap1\n      pop\n        /* \"#utility.yul\":10222:10588   */\n      swap2\n      swap1\n      pop\n      jump\t// out\n        /* \"#utility.yul\":10594:10702   */\n    tag_421:\n        /* \"#utility.yul\":10671:10695   */\n      tag_550\n        /* \"#utility.yul\":10689:10694   */\n      dup2\n        /* \"#utility.yul\":10671:10695   */\n      tag_551\n      jump\t// in\n    tag_550:\n        /* \"#utility.yul\":10666:10669   */\n      dup3\n        /* \"#utility.yul\":10659:10696   */\n      mstore\n        /* \"#utility.yul\":10594:10702   */\n      pop\n      pop\n      jump\t// out\n        /* \"#utility.yul\":10708:10826   */\n    tag_552:\n        /* \"#utility.yul\":10795:10819   */\n      tag_554\n        /* \"#utility.yul\":10813:10818   */\n      dup2\n        /* \"#utility.yul\":10795:10819   */\n      tag_551\n      jump\t// in\n    tag_554:\n        /* \"#utility.yul\":10790:10793   */\n      dup3\n        /* \"#utility.yul\":10783:10820   */\n      mstore\n        /* \"#utility.yul\":10708:10826   */\n      pop\n      pop\n      jump\t// out\n        /* \"#utility.yul\":10832:10989   */\n    tag_555:\n        /* \"#utility.yul\":10937:10982   */\n      tag_557\n        /* \"#utility.yul\":10957:10981   */\n      tag_558\n        /* \"#utility.yul\":10975:10980   */\n      dup3\n        /* \"#utility.yul\":10957:10981   */\n      tag_551\n      jump\t// in\n    tag_558:\n        /* \"#utility.yul\":10937:10982   */\n      tag_559\n      jump\t// in\n    tag_557:\n        /* \"#utility.yul\":10932:10935   */\n      dup3\n        /* \"#utility.yul\":10925:10983   */\n      mstore\n        /* \"#utility.yul\":10832:10989   */\n      pop\n      pop\n      jump\t// out\n        /* \"#utility.yul\":10995:11536   */\n    tag_257:\n        /* \"#utility.yul\":11228:11231   */\n      0x00\n        /* \"#utility.yul\":11250:11398   */\n      tag_561\n        /* \"#utility.yul\":11394:11397   */\n      dup3\n        /* \"#utility.yul\":11250:11398   */\n      tag_484\n      jump\t// in\n    tag_561:\n        /* \"#utility.yul\":11243:11398   */\n      swap2\n      pop\n        /* \"#utility.yul\":11415:11510   */\n      tag_562\n        /* \"#utility.yul\":11506:11509   */\n      dup3\n        /* \"#utility.yul\":11497:11503   */\n      dup5\n        /* \"#utility.yul\":11415:11510   */\n      tag_468\n      jump\t// in\n    tag_562:\n        /* \"#utility.yul\":11408:11510   */\n      swap2\n      pop\n        /* \"#utility.yul\":11527:11530   */\n      dup2\n        /* \"#utility.yul\":11520:11530   */\n      swap1\n      pop\n        /* \"#utility.yul\":10995:11536   */\n      swap3\n      swap2\n      pop\n      pop\n      jump\t// out\n        /* \"#utility.yul\":11542:12083   */\n    tag_266:\n        /* \"#utility.yul\":11775:11778   */\n      0x00\n        /* \"#utility.yul\":11797:11945   */\n      tag_564\n        /* \"#utility.yul\":11941:11944   */\n      dup3\n        /* \"#utility.yul\":11797:11945   */\n      tag_494\n      jump\t// in\n    tag_564:\n        /* \"#utility.yul\":11790:11945   */\n      swap2\n      pop\n        /* \"#utility.yul\":11962:12057   */\n      tag_565\n        /* \"#utility.yul\":12053:12056   */\n      dup3\n        /* \"#utility.yul\":12044:12050   */\n      dup5\n        /* \"#utility.yul\":11962:12057   */\n      tag_468\n      jump\t// in\n    tag_565:\n        /* \"#utility.yul\":11955:12057   */\n      swap2\n      pop\n        /* \"#utility.yul\":12074:12077   */\n      dup2\n        /* \"#utility.yul\":12067:12077   */\n      swap1\n      pop\n        /* \"#utility.yul\":11542:12083   */\n      swap3\n      swap2\n      pop\n      pop\n      jump\t// out\n        /* \"#utility.yul\":12089:12630   */\n    tag_274:\n        /* \"#utility.yul\":12322:12325   */\n      0x00\n        /* \"#utility.yul\":12344:12492   */\n      tag_567\n        /* \"#utility.yul\":12488:12491   */\n      dup3\n        /* \"#utility.yul\":12344:12492   */\n      tag_534\n      jump\t// in\n    tag_567:\n        /* \"#utility.yul\":12337:12492   */\n      swap2\n      pop\n        /* \"#utility.yul\":12509:12604   */\n      tag_568\n        /* \"#utility.yul\":12600:12603   */\n      dup3\n        /* \"#utility.yul\":12591:12597   */\n      dup5\n        /* \"#utility.yul\":12509:12604   */\n      tag_468\n      jump\t// in\n    tag_568:\n        /* \"#utility.yul\":12502:12604   */\n      swap2\n      pop\n        /* \"#utility.yul\":12621:12624   */\n      dup2\n        /* \"#utility.yul\":12614:12624   */\n      swap1\n      pop\n        /* \"#utility.yul\":12089:12630   */\n      swap3\n      swap2\n      pop\n      pop\n      jump\t// out\n        /* \"#utility.yul\":12636:13206   */\n    tag_240:\n        /* \"#utility.yul\":12820:12823   */\n      0x00\n        /* \"#utility.yul\":12835:12910   */\n      tag_570\n        /* \"#utility.yul\":12906:12909   */\n      dup3\n        /* \"#utility.yul\":12897:12903   */\n      dup7\n        /* \"#utility.yul\":12835:12910   */\n      tag_555\n      jump\t// in\n    tag_570:\n        /* \"#utility.yul\":12935:12937   */\n      0x20\n        /* \"#utility.yul\":12930:12933   */\n      dup3\n        /* \"#utility.yul\":12926:12938   */\n      add\n        /* \"#utility.yul\":12919:12938   */\n      swap2\n      pop\n        /* \"#utility.yul\":12948:13023   */\n      tag_571\n        /* \"#utility.yul\":13019:13022   */\n      dup3\n        /* \"#utility.yul\":13010:13016   */\n      dup6\n        /* \"#utility.yul\":12948:13023   */\n      tag_435\n      jump\t// in\n    tag_571:\n        /* \"#utility.yul\":13048:13050   */\n      0x14\n        /* \"#utility.yul\":13043:13046   */\n      dup3\n        /* \"#utility.yul\":13039:13051   */\n      add\n        /* \"#utility.yul\":13032:13051   */\n      swap2\n      pop\n        /* \"#utility.yul\":13061:13152   */\n      tag_572\n        /* \"#utility.yul\":13148:13151   */\n      dup3\n        /* \"#utility.yul\":13139:13145   */\n      dup5\n        /* \"#utility.yul\":13061:13152   */\n      tag_426\n      jump\t// in\n    tag_572:\n        /* \"#utility.yul\":13177:13179   */\n      0x14\n        /* \"#utility.yul\":13172:13175   */\n      dup3\n        /* \"#utility.yul\":13168:13180   */\n      add\n        /* \"#utility.yul\":13161:13180   */\n      swap2\n      pop\n        /* \"#utility.yul\":13197:13200   */\n      dup2\n        /* \"#utility.yul\":13190:13200   */\n      swap1\n      pop\n        /* \"#utility.yul\":12636:13206   */\n      swap5\n      swap4\n      pop\n      pop\n      pop\n      pop\n      jump\t// out\n        /* \"#utility.yul\":13212:13466   */\n    tag_73:\n        /* \"#utility.yul\":13321:13325   */\n      0x00\n        /* \"#utility.yul\":13359:13361   */\n      0x20\n        /* \"#utility.yul\":13348:13357   */\n      dup3\n        /* \"#utility.yul\":13344:13362   */\n      add\n        /* \"#utility.yul\":13336:13362   */\n      swap1\n      pop\n        /* \"#utility.yul\":13372:13459   */\n      tag_574\n        /* \"#utility.yul\":13456:13457   */\n      0x00\n        /* \"#utility.yul\":13445:13454   */\n      dup4\n        /* \"#utility.yul\":13441:13458   */\n      add\n        /* \"#utility.yul\":13432:13438   */\n      dup5\n        /* \"#utility.yul\":13372:13459   */\n      tag_422\n      jump\t// in\n    tag_574:\n        /* \"#utility.yul\":13212:13466   */\n      swap3\n      swap2\n      pop\n      pop\n      jump\t// out\n        /* \"#utility.yul\":13472:14227   */\n    tag_339:\n        /* \"#utility.yul\":13697:13701   */\n      0x00\n        /* \"#utility.yul\":13735:13738   */\n      0xa0\n        /* \"#utility.yul\":13724:13733   */\n      dup3\n        /* \"#utility.yul\":13720:13739   */\n      add\n        /* \"#utility.yul\":13712:13739   */\n      swap1\n      pop\n        /* \"#utility.yul\":13749:13820   */\n      tag_576\n        /* \"#utility.yul\":13817:13818   */\n      0x00\n        /* \"#utility.yul\":13806:13815   */\n      dup4\n        /* \"#utility.yul\":13802:13819   */\n      add\n        /* \"#utility.yul\":13793:13799   */\n      dup9\n        /* \"#utility.yul\":13749:13820   */\n      tag_431\n      jump\t// in\n    tag_576:\n        /* \"#utility.yul\":13830:13902   */\n      tag_577\n        /* \"#utility.yul\":13898:13900   */\n      0x20\n        /* \"#utility.yul\":13887:13896   */\n      dup4\n        /* \"#utility.yul\":13883:13901   */\n      add\n        /* \"#utility.yul\":13874:13880   */\n      dup8\n        /* \"#utility.yul\":13830:13902   */\n      tag_431\n      jump\t// in\n    tag_577:\n        /* \"#utility.yul\":13912:13984   */\n      tag_578\n        /* \"#utility.yul\":13980:13982   */\n      0x40\n        /* \"#utility.yul\":13969:13978   */\n      dup4\n        /* \"#utility.yul\":13965:13983   */\n      add\n        /* \"#utility.yul\":13956:13962   */\n      dup7\n        /* \"#utility.yul\":13912:13984   */\n      tag_552\n      jump\t// in\n    tag_578:\n        /* \"#utility.yul\":13994:14066   */\n      tag_579\n        /* \"#utility.yul\":14062:14064   */\n      0x60\n        /* \"#utility.yul\":14051:14060   */\n      dup4\n        /* \"#utility.yul\":14047:14065   */\n      add\n        /* \"#utility.yul\":14038:14044   */\n      dup6\n        /* \"#utility.yul\":13994:14066   */\n      tag_552\n      jump\t// in\n    tag_579:\n        /* \"#utility.yul\":14114:14123   */\n      dup2\n        /* \"#utility.yul\":14108:14112   */\n      dup2\n        /* \"#utility.yul\":14104:14124   */\n      sub\n        /* \"#utility.yul\":14098:14101   */\n      0x80\n        /* \"#utility.yul\":14087:14096   */\n      dup4\n        /* \"#utility.yul\":14083:14102   */\n      add\n        /* \"#utility.yul\":14076:14125   */\n      mstore\n        /* \"#utility.yul\":14142:14220   */\n      tag_580\n        /* \"#utility.yul\":14215:14219   */\n      dup2\n        /* \"#utility.yul\":14206:14212   */\n      dup5\n        /* \"#utility.yul\":14142:14220   */\n      tag_458\n      jump\t// in\n    tag_580:\n        /* \"#utility.yul\":14134:14220   */\n      swap1\n      pop\n        /* \"#utility.yul\":13472:14227   */\n      swap7\n      swap6\n      pop\n      pop\n      pop\n      pop\n      pop\n      pop\n      jump\t// out\n        /* \"#utility.yul\":14233:14606   */\n    tag_37:\n        /* \"#utility.yul\":14376:14380   */\n      0x00\n        /* \"#utility.yul\":14414:14416   */\n      0x20\n        /* \"#utility.yul\":14403:14412   */\n      dup3\n        /* \"#utility.yul\":14399:14417   */\n      add\n        /* \"#utility.yul\":14391:14417   */\n      swap1\n      pop\n        /* \"#utility.yul\":14463:14472   */\n      dup2\n        /* \"#utility.yul\":14457:14461   */\n      dup2\n        /* \"#utility.yul\":14453:14473   */\n      sub\n        /* \"#utility.yul\":14449:14450   */\n      0x00\n        /* \"#utility.yul\":14438:14447   */\n      dup4\n        /* \"#utility.yul\":14434:14451   */\n      add\n        /* \"#utility.yul\":14427:14474   */\n      mstore\n        /* \"#utility.yul\":14491:14599   */\n      tag_582\n        /* \"#utility.yul\":14594:14598   */\n      dup2\n        /* \"#utility.yul\":14585:14591   */\n      dup5\n        /* \"#utility.yul\":14491:14599   */\n      tag_440\n      jump\t// in\n    tag_582:\n        /* \"#utility.yul\":14483:14599   */\n      swap1\n      pop\n        /* \"#utility.yul\":14233:14606   */\n      swap3\n      swap2\n      pop\n      pop\n      jump\t// out\n        /* \"#utility.yul\":14612:14822   */\n    tag_68:\n        /* \"#utility.yul\":14699:14703   */\n      0x00\n        /* \"#utility.yul\":14737:14739   */\n      0x20\n        /* \"#utility.yul\":14726:14735   */\n      dup3\n        /* \"#utility.yul\":14722:14740   */\n      add\n        /* \"#utility.yul\":14714:14740   */\n      swap1\n      pop\n        /* \"#utility.yul\":14750:14815   */\n      tag_584\n        /* \"#utility.yul\":14812:14813   */\n      0x00\n        /* \"#utility.yul\":14801:14810   */\n      dup4\n        /* \"#utility.yul\":14797:14814   */\n      add\n        /* \"#utility.yul\":14788:14794   */\n      dup5\n        /* \"#utility.yul\":14750:14815   */\n      tag_454\n      jump\t// in\n    tag_584:\n        /* \"#utility.yul\":14612:14822   */\n      swap3\n      swap2\n      pop\n      pop\n      jump\t// out\n        /* \"#utility.yul\":14828:15141   */\n    tag_354:\n        /* \"#utility.yul\":14941:14945   */\n      0x00\n        /* \"#utility.yul\":14979:14981   */\n      0x20\n        /* \"#utility.yul\":14968:14977   */\n      dup3\n        /* \"#utility.yul\":14964:14982   */\n      add\n        /* \"#utility.yul\":14956:14982   */\n      swap1\n      pop\n        /* \"#utility.yul\":15028:15037   */\n      dup2\n        /* \"#utility.yul\":15022:15026   */\n      dup2\n        /* \"#utility.yul\":15018:15038   */\n      sub\n        /* \"#utility.yul\":15014:15015   */\n      0x00\n        /* \"#utility.yul\":15003:15012   */\n      dup4\n        /* \"#utility.yul\":14999:15016   */\n      add\n        /* \"#utility.yul\":14992:15039   */\n      mstore\n        /* \"#utility.yul\":15056:15134   */\n      tag_586\n        /* \"#utility.yul\":15129:15133   */\n      dup2\n        /* \"#utility.yul\":15120:15126   */\n      dup5\n        /* \"#utility.yul\":15056:15134   */\n      tag_458\n      jump\t// in\n    tag_586:\n        /* \"#utility.yul\":15048:15134   */\n      swap1\n      pop\n        /* \"#utility.yul\":14828:15141   */\n      swap3\n      swap2\n      pop\n      pop\n      jump\t// out\n        /* \"#utility.yul\":15147:15566   */\n    tag_356:\n        /* \"#utility.yul\":15313:15317   */\n      0x00\n        /* \"#utility.yul\":15351:15353   */\n      0x20\n        /* \"#utility.yul\":15340:15349   */\n      dup3\n        /* \"#utility.yul\":15336:15354   */\n      add\n        /* \"#utility.yul\":15328:15354   */\n      swap1\n      pop\n        /* \"#utility.yul\":15400:15409   */\n      dup2\n        /* \"#utility.yul\":15394:15398   */\n      dup2\n        /* \"#utility.yul\":15390:15410   */\n      sub\n        /* \"#utility.yul\":15386:15387   */\n      0x00\n        /* \"#utility.yul\":15375:15384   */\n      dup4\n        /* \"#utility.yul\":15371:15388   */\n      add\n        /* \"#utility.yul\":15364:15411   */\n      mstore\n        /* \"#utility.yul\":15428:15559   */\n      tag_588\n        /* \"#utility.yul\":15554:15558   */\n      dup2\n        /* \"#utility.yul\":15428:15559   */\n      tag_474\n      jump\t// in\n    tag_588:\n        /* \"#utility.yul\":15420:15559   */\n      swap1\n      pop\n        /* \"#utility.yul\":15147:15566   */\n      swap2\n      swap1\n      pop\n      jump\t// out\n        /* \"#utility.yul\":15572:15991   */\n    tag_360:\n        /* \"#utility.yul\":15738:15742   */\n      0x00\n        /* \"#utility.yul\":15776:15778   */\n      0x20\n        /* \"#utility.yul\":15765:15774   */\n      dup3\n        /* \"#utility.yul\":15761:15779   */\n      add\n        /* \"#utility.yul\":15753:15779   */\n      swap1\n      pop\n        /* \"#utility.yul\":15825:15834   */\n      dup2\n        /* \"#utility.yul\":15819:15823   */\n      dup2\n        /* \"#utility.yul\":15815:15835   */\n      sub\n        /* \"#utility.yul\":15811:15812   */\n      0x00\n        /* \"#utility.yul\":15800:15809   */\n      dup4\n        /* \"#utility.yul\":15796:15813   */\n      add\n        /* \"#utility.yul\":15789:15836   */\n      mstore\n        /* \"#utility.yul\":15853:15984   */\n      tag_590\n        /* \"#utility.yul\":15979:15983   */\n      dup2\n        /* \"#utility.yul\":15853:15984   */\n      tag_479\n      jump\t// in\n    tag_590:\n        /* \"#utility.yul\":15845:15984   */\n      swap1\n      pop\n        /* \"#utility.yul\":15572:15991   */\n      swap2\n      swap1\n      pop\n      jump\t// out\n        /* \"#utility.yul\":15997:16416   */\n    tag_127:\n        /* \"#utility.yul\":16163:16167   */\n      0x00\n        /* \"#utility.yul\":16201:16203   */\n      0x20\n        /* \"#utility.yul\":16190:16199   */\n      dup3\n        /* \"#utility.yul\":16186:16204   */\n      add\n        /* \"#utility.yul\":16178:16204   */\n      swap1\n      pop\n        /* \"#utility.yul\":16250:16259   */\n      dup2\n        /* \"#utility.yul\":16244:16248   */\n      dup2\n        /* \"#utility.yul\":16240:16260   */\n      sub\n        /* \"#utility.yul\":16236:16237   */\n      0x00\n        /* \"#utility.yul\":16225:16234   */\n      dup4\n        /* \"#utility.yul\":16221:16238   */\n      add\n        /* \"#utility.yul\":16214:16261   */\n      mstore\n        /* \"#utility.yul\":16278:16409   */\n      tag_592\n        /* \"#utility.yul\":16404:16408   */\n      dup2\n        /* \"#utility.yul\":16278:16409   */\n      tag_489\n      jump\t// in\n    tag_592:\n        /* \"#utility.yul\":16270:16409   */\n      swap1\n      pop\n        /* \"#utility.yul\":15997:16416   */\n      swap2\n      swap1\n      pop\n      jump\t// out\n        /* \"#utility.yul\":16422:16841   */\n    tag_183:\n        /* \"#utility.yul\":16588:16592   */\n      0x00\n        /* \"#utility.yul\":16626:16628   */\n      0x20\n        /* \"#utility.yul\":16615:16624   */\n      dup3\n        /* \"#utility.yul\":16611:16629   */\n      add\n        /* \"#utility.yul\":16603:16629   */\n      swap1\n      pop\n        /* \"#utility.yul\":16675:16684   */\n      dup2\n        /* \"#utility.yul\":16669:16673   */\n      dup2\n        /* \"#utility.yul\":16665:16685   */\n      sub\n        /* \"#utility.yul\":16661:16662   */\n      0x00\n        /* \"#utility.yul\":16650:16659   */\n      dup4\n        /* \"#utility.yul\":16646:16663   */\n      add\n        /* \"#utility.yul\":16639:16686   */\n      mstore\n        /* \"#utility.yul\":16703:16834   */\n      tag_594\n        /* \"#utility.yul\":16829:16833   */\n      dup2\n        /* \"#utility.yul\":16703:16834   */\n      tag_499\n      jump\t// in\n    tag_594:\n        /* \"#utility.yul\":16695:16834   */\n      swap1\n      pop\n        /* \"#utility.yul\":16422:16841   */\n      swap2\n      swap1\n      pop\n      jump\t// out\n        /* \"#utility.yul\":16847:17266   */\n    tag_108:\n        /* \"#utility.yul\":17013:17017   */\n      0x00\n        /* \"#utility.yul\":17051:17053   */\n      0x20\n        /* \"#utility.yul\":17040:17049   */\n      dup3\n        /* \"#utility.yul\":17036:17054   */\n      add\n        /* \"#utility.yul\":17028:17054   */\n      swap1\n      pop\n        /* \"#utility.yul\":17100:17109   */\n      dup2\n        /* \"#utility.yul\":17094:17098   */\n      dup2\n        /* \"#utility.yul\":17090:17110   */\n      sub\n        /* \"#utility.yul\":17086:17087   */\n      0x00\n        /* \"#utility.yul\":17075:17084   */\n      dup4\n        /* \"#utility.yul\":17071:17088   */\n      add\n        /* \"#utility.yul\":17064:17111   */\n      mstore\n        /* \"#utility.yul\":17128:17259   */\n      tag_596\n        /* \"#utility.yul\":17254:17258   */\n      dup2\n        /* \"#utility.yul\":17128:17259   */\n      tag_504\n      jump\t// in\n    tag_596:\n        /* \"#utility.yul\":17120:17259   */\n      swap1\n      pop\n        /* \"#utility.yul\":16847:17266   */\n      swap2\n      swap1\n      pop\n      jump\t// out\n        /* \"#utility.yul\":17272:17691   */\n    tag_217:\n        /* \"#utility.yul\":17438:17442   */\n      0x00\n        /* \"#utility.yul\":17476:17478   */\n      0x20\n        /* \"#utility.yul\":17465:17474   */\n      dup3\n        /* \"#utility.yul\":17461:17479   */\n      add\n        /* \"#utility.yul\":17453:17479   */\n      swap1\n      pop\n        /* \"#utility.yul\":17525:17534   */\n      dup2\n        /* \"#utility.yul\":17519:17523   */\n      dup2\n        /* \"#utility.yul\":17515:17535   */\n      sub\n        /* \"#utility.yul\":17511:17512   */\n      0x00\n        /* \"#utility.yul\":17500:17509   */\n      dup4\n        /* \"#utility.yul\":17496:17513   */\n      add\n        /* \"#utility.yul\":17489:17536   */\n      mstore\n        /* \"#utility.yul\":17553:17684   */\n      tag_598\n        /* \"#utility.yul\":17679:17683   */\n      dup2\n        /* \"#utility.yul\":17553:17684   */\n      tag_509\n      jump\t// in\n    tag_598:\n        /* \"#utility.yul\":17545:17684   */\n      swap1\n      pop\n        /* \"#utility.yul\":17272:17691   */\n      swap2\n      swap1\n      pop\n      jump\t// out\n        /* \"#utility.yul\":17697:18116   */\n    tag_121:\n        /* \"#utility.yul\":17863:17867   */\n      0x00\n        /* \"#utility.yul\":17901:17903   */\n      0x20\n        /* \"#utility.yul\":17890:17899   */\n      dup3\n        /* \"#utility.yul\":17886:17904   */\n      add\n        /* \"#utility.yul\":17878:17904   */\n      swap1\n      pop\n        /* \"#utility.yul\":17950:17959   */\n      dup2\n        /* \"#utility.yul\":17944:17948   */\n      dup2\n        /* \"#utility.yul\":17940:17960   */\n      sub\n        /* \"#utility.yul\":17936:17937   */\n      0x00\n        /* \"#utility.yul\":17925:17934   */\n      dup4\n        /* \"#utility.yul\":17921:17938   */\n      add\n        /* \"#utility.yul\":17914:17961   */\n      mstore\n        /* \"#utility.yul\":17978:18109   */\n      tag_600\n        /* \"#utility.yul\":18104:18108   */\n      dup2\n        /* \"#utility.yul\":17978:18109   */\n      tag_514\n      jump\t// in\n    tag_600:\n        /* \"#utility.yul\":17970:18109   */\n      swap1\n      pop\n        /* \"#utility.yul\":17697:18116   */\n      swap2\n      swap1\n      pop\n      jump\t// out\n        /* \"#utility.yul\":18122:18541   */\n    tag_89:\n        /* \"#utility.yul\":18288:18292   */\n      0x00\n        /* \"#utility.yul\":18326:18328   */\n      0x20\n        /* \"#utility.yul\":18315:18324   */\n      dup3\n        /* \"#utility.yul\":18311:18329   */\n      add\n        /* \"#utility.yul\":18303:18329   */\n      swap1\n      pop\n        /* \"#utility.yul\":18375:18384   */\n      dup2\n        /* \"#utility.yul\":18369:18373   */\n      dup2\n        /* \"#utility.yul\":18365:18385   */\n      sub\n        /* \"#utility.yul\":18361:18362   */\n      0x00\n        /* \"#utility.yul\":18350:18359   */\n      dup4\n        /* \"#utility.yul\":18346:18363   */\n      add\n        /* \"#utility.yul\":18339:18386   */\n      mstore\n        /* \"#utility.yul\":18403:18534   */\n      tag_602\n        /* \"#utility.yul\":18529:18533   */\n      dup2\n        /* \"#utility.yul\":18403:18534   */\n      tag_519\n      jump\t// in\n    tag_602:\n        /* \"#utility.yul\":18395:18534   */\n      swap1\n      pop\n        /* \"#utility.yul\":18122:18541   */\n      swap2\n      swap1\n      pop\n      jump\t// out\n        /* \"#utility.yul\":18547:18966   */\n    tag_116:\n        /* \"#utility.yul\":18713:18717   */\n      0x00\n        /* \"#utility.yul\":18751:18753   */\n      0x20\n        /* \"#utility.yul\":18740:18749   */\n      dup3\n        /* \"#utility.yul\":18736:18754   */\n      add\n        /* \"#utility.yul\":18728:18754   */\n      swap1\n      pop\n        /* \"#utility.yul\":18800:18809   */\n      dup2\n        /* \"#utility.yul\":18794:18798   */\n      dup2\n        /* \"#utility.yul\":18790:18810   */\n      sub\n        /* \"#utility.yul\":18786:18787   */\n      0x00\n        /* \"#utility.yul\":18775:18784   */\n      dup4\n        /* \"#utility.yul\":18771:18788   */\n      add\n        /* \"#utility.yul\":18764:18811   */\n      mstore\n        /* \"#utility.yul\":18828:18959   */\n      tag_604\n        /* \"#utility.yul\":18954:18958   */\n      dup2\n        /* \"#utility.yul\":18828:18959   */\n      tag_524\n      jump\t// in\n    tag_604:\n        /* \"#utility.yul\":18820:18959   */\n      swap1\n      pop\n        /* \"#utility.yul\":18547:18966   */\n      swap2\n      swap1\n      pop\n      jump\t// out\n        /* \"#utility.yul\":18972:19391   */\n    tag_124:\n        /* \"#utility.yul\":19138:19142   */\n      0x00\n        /* \"#utility.yul\":19176:19178   */\n      0x20\n        /* \"#utility.yul\":19165:19174   */\n      dup3\n        /* \"#utility.yul\":19161:19179   */\n      add\n        /* \"#utility.yul\":19153:19179   */\n      swap1\n      pop\n        /* \"#utility.yul\":19225:19234   */\n      dup2\n        /* \"#utility.yul\":19219:19223   */\n      dup2\n        /* \"#utility.yul\":19215:19235   */\n      sub\n        /* \"#utility.yul\":19211:19212   */\n      0x00\n        /* \"#utility.yul\":19200:19209   */\n      dup4\n        /* \"#utility.yul\":19196:19213   */\n      add\n        /* \"#utility.yul\":19189:19236   */\n      mstore\n        /* \"#utility.yul\":19253:19384   */\n      tag_606\n        /* \"#utility.yul\":19379:19383   */\n      dup2\n        /* \"#utility.yul\":19253:19384   */\n      tag_529\n      jump\t// in\n    tag_606:\n        /* \"#utility.yul\":19245:19384   */\n      swap1\n      pop\n        /* \"#utility.yul\":18972:19391   */\n      swap2\n      swap1\n      pop\n      jump\t// out\n        /* \"#utility.yul\":19397:19816   */\n    tag_98:\n        /* \"#utility.yul\":19563:19567   */\n      0x00\n        /* \"#utility.yul\":19601:19603   */\n      0x20\n        /* \"#utility.yul\":19590:19599   */\n      dup3\n        /* \"#utility.yul\":19586:19604   */\n      add\n        /* \"#utility.yul\":19578:19604   */\n      swap1\n      pop\n        /* \"#utility.yul\":19650:19659   */\n      dup2\n        /* \"#utility.yul\":19644:19648   */\n      dup2\n        /* \"#utility.yul\":19640:19660   */\n      sub\n        /* \"#utility.yul\":19636:19637   */\n      0x00\n        /* \"#utility.yul\":19625:19634   */\n      dup4\n        /* \"#utility.yul\":19621:19638   */\n      add\n        /* \"#utility.yul\":19614:19661   */\n      mstore\n        /* \"#utility.yul\":19678:19809   */\n      tag_608\n        /* \"#utility.yul\":19804:19808   */\n      dup2\n        /* \"#utility.yul\":19678:19809   */\n      tag_539\n      jump\t// in\n    tag_608:\n        /* \"#utility.yul\":19670:19809   */\n      swap1\n      pop\n        /* \"#utility.yul\":19397:19816   */\n      swap2\n      swap1\n      pop\n      jump\t// out\n        /* \"#utility.yul\":19822:20241   */\n    tag_293:\n        /* \"#utility.yul\":19988:19992   */\n      0x00\n        /* \"#utility.yul\":20026:20028   */\n      0x20\n        /* \"#utility.yul\":20015:20024   */\n      dup3\n        /* \"#utility.yul\":20011:20029   */\n      add\n        /* \"#utility.yul\":20003:20029   */\n      swap1\n      pop\n        /* \"#utility.yul\":20075:20084   */\n      dup2\n        /* \"#utility.yul\":20069:20073   */\n      dup2\n        /* \"#utility.yul\":20065:20085   */\n      sub\n        /* \"#utility.yul\":20061:20062   */\n      0x00\n        /* \"#utility.yul\":20050:20059   */\n      dup4\n        /* \"#utility.yul\":20046:20063   */\n      add\n        /* \"#utility.yul\":20039:20086   */\n      mstore\n        /* \"#utility.yul\":20103:20234   */\n      tag_610\n        /* \"#utility.yul\":20229:20233   */\n      dup2\n        /* \"#utility.yul\":20103:20234   */\n      tag_544\n      jump\t// in\n    tag_610:\n        /* \"#utility.yul\":20095:20234   */\n      swap1\n      pop\n        /* \"#utility.yul\":19822:20241   */\n      swap2\n      swap1\n      pop\n      jump\t// out\n        /* \"#utility.yul\":20247:20469   */\n    tag_23:\n        /* \"#utility.yul\":20340:20344   */\n      0x00\n        /* \"#utility.yul\":20378:20380   */\n      0x20\n        /* \"#utility.yul\":20367:20376   */\n      dup3\n        /* \"#utility.yul\":20363:20381   */\n      add\n        /* \"#utility.yul\":20355:20381   */\n      swap1\n      pop\n        /* \"#utility.yul\":20391:20462   */\n      tag_612\n        /* \"#utility.yul\":20459:20460   */\n      0x00\n        /* \"#utility.yul\":20448:20457   */\n      dup4\n        /* \"#utility.yul\":20444:20461   */\n      add\n        /* \"#utility.yul\":20435:20441   */\n      dup5\n        /* \"#utility.yul\":20391:20462   */\n      tag_552\n      jump\t// in\n    tag_612:\n        /* \"#utility.yul\":20247:20469   */\n      swap3\n      swap2\n      pop\n      pop\n      jump\t// out\n        /* \"#utility.yul\":20475:20898   */\n    tag_47:\n        /* \"#utility.yul\":20616:20620   */\n      0x00\n        /* \"#utility.yul\":20654:20656   */\n      0x40\n        /* \"#utility.yul\":20643:20652   */\n      dup3\n        /* \"#utility.yul\":20639:20657   */\n      add\n        /* \"#utility.yul\":20631:20657   */\n      swap1\n      pop\n        /* \"#utility.yul\":20667:20738   */\n      tag_614\n        /* \"#utility.yul\":20735:20736   */\n      0x00\n        /* \"#utility.yul\":20724:20733   */\n      dup4\n        /* \"#utility.yul\":20720:20737   */\n      add\n        /* \"#utility.yul\":20711:20717   */\n      dup6\n        /* \"#utility.yul\":20667:20738   */\n      tag_552\n      jump\t// in\n    tag_614:\n        /* \"#utility.yul\":20785:20794   */\n      dup2\n        /* \"#utility.yul\":20779:20783   */\n      dup2\n        /* \"#utility.yul\":20775:20795   */\n      sub\n        /* \"#utility.yul\":20770:20772   */\n      0x20\n        /* \"#utility.yul\":20759:20768   */\n      dup4\n        /* \"#utility.yul\":20755:20773   */\n      add\n        /* \"#utility.yul\":20748:20796   */\n      mstore\n        /* \"#utility.yul\":20813:20891   */\n      tag_615\n        /* \"#utility.yul\":20886:20890   */\n      dup2\n        /* \"#utility.yul\":20877:20883   */\n      dup5\n        /* \"#utility.yul\":20813:20891   */\n      tag_458\n      jump\t// in\n    tag_615:\n        /* \"#utility.yul\":20805:20891   */\n      swap1\n      pop\n        /* \"#utility.yul\":20475:20898   */\n      swap4\n      swap3\n      pop\n      pop\n      pop\n      jump\t// out\n        /* \"#utility.yul\":20904:21236   */\n    tag_302:\n        /* \"#utility.yul\":21025:21029   */\n      0x00\n        /* \"#utility.yul\":21063:21065   */\n      0x40\n        /* \"#utility.yul\":21052:21061   */\n      dup3\n        /* \"#utility.yul\":21048:21066   */\n      add\n        /* \"#utility.yul\":21040:21066   */\n      swap1\n      pop\n        /* \"#utility.yul\":21076:21147   */\n      tag_617\n        /* \"#utility.yul\":21144:21145   */\n      0x00\n        /* \"#utility.yul\":21133:21142   */\n      dup4\n        /* \"#utility.yul\":21129:21146   */\n      add\n        /* \"#utility.yul\":21120:21126   */\n      dup6\n        /* \"#utility.yul\":21076:21147   */\n      tag_552\n      jump\t// in\n    tag_617:\n        /* \"#utility.yul\":21157:21229   */\n      tag_618\n        /* \"#utility.yul\":21225:21227   */\n      0x20\n        /* \"#utility.yul\":21214:21223   */\n      dup4\n        /* \"#utility.yul\":21210:21228   */\n      add\n        /* \"#utility.yul\":21201:21207   */\n      dup5\n        /* \"#utility.yul\":21157:21229   */\n      tag_552\n      jump\t// in\n    tag_618:\n        /* \"#utility.yul\":20904:21236   */\n      swap4\n      swap3\n      pop\n      pop\n      pop\n      jump\t// out\n        /* \"#utility.yul\":21242:21684   */\n    tag_56:\n        /* \"#utility.yul\":21391:21395   */\n      0x00\n        /* \"#utility.yul\":21429:21431   */\n      0x60\n        /* \"#utility.yul\":21418:21427   */\n      dup3\n        /* \"#utility.yul\":21414:21432   */\n      add\n        /* \"#utility.yul\":21406:21432   */\n      swap1\n      pop\n        /* \"#utility.yul\":21442:21513   */\n      tag_620\n        /* \"#utility.yul\":21510:21511   */\n      0x00\n        /* \"#utility.yul\":21499:21508   */\n      dup4\n        /* \"#utility.yul\":21495:21512   */\n      add\n        /* \"#utility.yul\":21486:21492   */\n      dup7\n        /* \"#utility.yul\":21442:21513   */\n      tag_552\n      jump\t// in\n    tag_620:\n        /* \"#utility.yul\":21523:21595   */\n      tag_621\n        /* \"#utility.yul\":21591:21593   */\n      0x20\n        /* \"#utility.yul\":21580:21589   */\n      dup4\n        /* \"#utility.yul\":21576:21594   */\n      add\n        /* \"#utility.yul\":21567:21573   */\n      dup6\n        /* \"#utility.yul\":21523:21595   */\n      tag_552\n      jump\t// in\n    tag_621:\n        /* \"#utility.yul\":21605:21677   */\n      tag_622\n        /* \"#utility.yul\":21673:21675   */\n      0x40\n        /* \"#utility.yul\":21662:21671   */\n      dup4\n        /* \"#utility.yul\":21658:21676   */\n      add\n        /* \"#utility.yul\":21649:21655   */\n      dup5\n        /* \"#utility.yul\":21605:21677   */\n      tag_552\n      jump\t// in\n    tag_622:\n        /* \"#utility.yul\":21242:21684   */\n      swap5\n      swap4\n      pop\n      pop\n      pop\n      pop\n      jump\t// out\n        /* \"#utility.yul\":21690:21765   */\n    tag_623:\n        /* \"#utility.yul\":21723:21729   */\n      0x00\n        /* \"#utility.yul\":21756:21758   */\n      0x40\n        /* \"#utility.yul\":21750:21759   */\n      mload\n        /* \"#utility.yul\":21740:21759   */\n      swap1\n      pop\n        /* \"#utility.yul\":21690:21765   */\n      swap1\n      jump\t// out\n        /* \"#utility.yul\":21771:21903   */\n    tag_447:\n        /* \"#utility.yul\":21838:21842   */\n      0x00\n        /* \"#utility.yul\":21861:21864   */\n      dup2\n        /* \"#utility.yul\":21853:21864   */\n      swap1\n      pop\n        /* \"#utility.yul\":21891:21895   */\n      0x20\n        /* \"#utility.yul\":21886:21889   */\n      dup3\n        /* \"#utility.yul\":21882:21896   */\n      add\n        /* \"#utility.yul\":21874:21896   */\n      swap1\n      pop\n        /* \"#utility.yul\":21771:21903   */\n      swap2\n      swap1\n      pop\n      jump\t// out\n        /* \"#utility.yul\":21909:22023   */\n    tag_443:\n        /* \"#utility.yul\":21976:21982   */\n      0x00\n        /* \"#utility.yul\":22010:22015   */\n      dup2\n        /* \"#utility.yul\":22004:22016   */\n      mload\n        /* \"#utility.yul\":21994:22016   */\n      swap1\n      pop\n        /* \"#utility.yul\":21909:22023   */\n      swap2\n      swap1\n      pop\n      jump\t// out\n        /* \"#utility.yul\":22029:22128   */\n    tag_461:\n        /* \"#utility.yul\":22081:22087   */\n      0x00\n        /* \"#utility.yul\":22115:22120   */\n      dup2\n        /* \"#utility.yul\":22109:22121   */\n      mload\n        /* \"#utility.yul\":22099:22121   */\n      swap1\n      pop\n        /* \"#utility.yul\":22029:22128   */\n      swap2\n      swap1\n      pop\n      jump\t// out\n        /* \"#utility.yul\":22134:22247   */\n    tag_453:\n        /* \"#utility.yul\":22204:22208   */\n      0x00\n        /* \"#utility.yul\":22236:22240   */\n      0x20\n        /* \"#utility.yul\":22231:22234   */\n      dup3\n        /* \"#utility.yul\":22227:22241   */\n      add\n        /* \"#utility.yul\":22219:22241   */\n      swap1\n      pop\n        /* \"#utility.yul\":22134:22247   */\n      swap2\n      swap1\n      pop\n      jump\t// out\n        /* \"#utility.yul\":22253:22437   */\n    tag_445:\n        /* \"#utility.yul\":22352:22363   */\n      0x00\n        /* \"#utility.yul\":22386:22392   */\n      dup3\n        /* \"#utility.yul\":22381:22384   */\n      dup3\n        /* \"#utility.yul\":22374:22393   */\n      mstore\n        /* \"#utility.yul\":22426:22430   */\n      0x20\n        /* \"#utility.yul\":22421:22424   */\n      dup3\n        /* \"#utility.yul\":22417:22431   */\n      add\n        /* \"#utility.yul\":22402:22431   */\n      swap1\n      pop\n        /* \"#utility.yul\":22253:22437   */\n      swap3\n      swap2\n      pop\n      pop\n      jump\t// out\n        /* \"#utility.yul\":22443:22612   */\n    tag_463:\n        /* \"#utility.yul\":22527:22538   */\n      0x00\n        /* \"#utility.yul\":22561:22567   */\n      dup3\n        /* \"#utility.yul\":22556:22559   */\n      dup3\n        /* \"#utility.yul\":22549:22568   */\n      mstore\n        /* \"#utility.yul\":22601:22605   */\n      0x20\n        /* \"#utility.yul\":22596:22599   */\n      dup3\n        /* \"#utility.yul\":22592:22606   */\n      add\n        /* \"#utility.yul\":22577:22606   */\n      swap1\n      pop\n        /* \"#utility.yul\":22443:22612   */\n      swap3\n      swap2\n      pop\n      pop\n      jump\t// out\n        /* \"#utility.yul\":22618:22766   */\n    tag_472:\n        /* \"#utility.yul\":22720:22731   */\n      0x00\n        /* \"#utility.yul\":22757:22760   */\n      dup2\n        /* \"#utility.yul\":22742:22760   */\n      swap1\n      pop\n        /* \"#utility.yul\":22618:22766   */\n      swap3\n      swap2\n      pop\n      pop\n      jump\t// out\n        /* \"#utility.yul\":22772:23077   */\n    tag_235:\n        /* \"#utility.yul\":22812:22815   */\n      0x00\n        /* \"#utility.yul\":22831:22851   */\n      tag_633\n        /* \"#utility.yul\":22849:22850   */\n      dup3\n        /* \"#utility.yul\":22831:22851   */\n      tag_551\n      jump\t// in\n    tag_633:\n        /* \"#utility.yul\":22826:22851   */\n      swap2\n      pop\n        /* \"#utility.yul\":22865:22885   */\n      tag_634\n        /* \"#utility.yul\":22883:22884   */\n      dup4\n        /* \"#utility.yul\":22865:22885   */\n      tag_551\n      jump\t// in\n    tag_634:\n        /* \"#utility.yul\":22860:22885   */\n      swap3\n      pop\n        /* \"#utility.yul\":23019:23020   */\n      dup3\n        /* \"#utility.yul\":22951:23017   */\n      0xffffffffffffffffffffffffffffffffffffffffffffffffffffffffffffffff\n        /* \"#utility.yul\":22947:23021   */\n      sub\n        /* \"#utility.yul\":22944:22945   */\n      dup3\n        /* \"#utility.yul\":22941:23022   */\n      gt\n        /* \"#utility.yul\":22938:23045   */\n      iszero\n      tag_635\n      jumpi\n        /* \"#utility.yul\":23025:23043   */\n      tag_636\n      tag_637\n      jump\t// in\n    tag_636:\n        /* \"#utility.yul\":22938:23045   */\n    tag_635:\n        /* \"#utility.yul\":23069:23070   */\n      dup3\n        /* \"#utility.yul\":23066:23067   */\n      dup3\n        /* \"#utility.yul\":23062:23071   */\n      add\n        /* \"#utility.yul\":23055:23071   */\n      swap1\n      pop\n        /* \"#utility.yul\":22772:23077   */\n      swap3\n      swap2\n      pop\n      pop\n      jump\t// out\n        /* \"#utility.yul\":23083:23268   */\n    tag_313:\n        /* \"#utility.yul\":23123:23124   */\n      0x00\n        /* \"#utility.yul\":23140:23160   */\n      tag_639\n        /* \"#utility.yul\":23158:23159   */\n      dup3\n        /* \"#utility.yul\":23140:23160   */\n      tag_551\n      jump\t// in\n    tag_639:\n        /* \"#utility.yul\":23135:23160   */\n      swap2\n      pop\n        /* \"#utility.yul\":23174:23194   */\n      tag_640\n        /* \"#utility.yul\":23192:23193   */\n      dup4\n        /* \"#utility.yul\":23174:23194   */\n      tag_551\n      jump\t// in\n    tag_640:\n        /* \"#utility.yul\":23169:23194   */\n      swap3\n      pop\n        /* \"#utility.yul\":23213:23214   */\n      dup3\n        /* \"#utility.yul\":23203:23238   */\n      tag_641\n      jumpi\n        /* \"#utility.yul\":23218:23236   */\n      tag_642\n      tag_643\n      jump\t// in\n    tag_642:\n        /* \"#utility.yul\":23203:23238   */\n    tag_641:\n        /* \"#utility.yul\":23260:23261   */\n      dup3\n        /* \"#utility.yul\":23257:23258   */\n      dup3\n        /* \"#utility.yul\":23253:23262   */\n      div\n        /* \"#utility.yul\":23248:23262   */\n      swap1\n      pop\n        /* \"#utility.yul\":23083:23268   */\n      swap3\n      swap2\n      pop\n      pop\n      jump\t// out\n        /* \"#utility.yul\":23274:23622   */\n    tag_180:\n        /* \"#utility.yul\":23314:23321   */\n      0x00\n        /* \"#utility.yul\":23337:23357   */\n      tag_645\n        /* \"#utility.yul\":23355:23356   */\n      dup3\n        /* \"#utility.yul\":23337:23357   */\n      tag_551\n      jump\t// in\n    tag_645:\n        /* \"#utility.yul\":23332:23357   */\n      swap2\n      pop\n        /* \"#utility.yul\":23371:23391   */\n      tag_646\n        /* \"#utility.yul\":23389:23390   */\n      dup4\n        /* \"#utility.yul\":23371:23391   */\n      tag_551\n      jump\t// in\n    tag_646:\n        /* \"#utility.yul\":23366:23391   */\n      swap3\n      pop\n        /* \"#utility.yul\":23559:23560   */\n      dup2\n        /* \"#utility.yul\":23491:23557   */\n      0xffffffffffffffffffffffffffffffffffffffffffffffffffffffffffffffff\n        /* \"#utility.yul\":23487:23561   */\n      div\n        /* \"#utility.yul\":23484:23485   */\n      dup4\n        /* \"#utility.yul\":23481:23562   */\n      gt\n        /* \"#utility.yul\":23476:23477   */\n      dup3\n        /* \"#utility.yul\":23469:23478   */\n      iszero\n        /* \"#utility.yul\":23462:23479   */\n      iszero\n        /* \"#utility.yul\":23458:23563   */\n      and\n        /* \"#utility.yul\":23455:23586   */\n      iszero\n      tag_647\n      jumpi\n        /* \"#utility.yul\":23566:23584   */\n      tag_648\n      tag_637\n      jump\t// in\n    tag_648:\n        /* \"#utility.yul\":23455:23586   */\n    tag_647:\n        /* \"#utility.yul\":23614:23615   */\n      dup3\n        /* \"#utility.yul\":23611:23612   */\n      dup3\n        /* \"#utility.yul\":23607:23616   */\n      mul\n        /* \"#utility.yul\":23596:23616   */\n      swap1\n      pop\n        /* \"#utility.yul\":23274:23622   */\n      swap3\n      swap2\n      pop\n      pop\n      jump\t// out\n        /* \"#utility.yul\":23628:23819   */\n    tag_321:\n        /* \"#utility.yul\":23668:23672   */\n      0x00\n        /* \"#utility.yul\":23688:23708   */\n      tag_650\n        /* \"#utility.yul\":23706:23707   */\n      dup3\n        /* \"#utility.yul\":23688:23708   */\n      tag_551\n      jump\t// in\n    tag_650:\n        /* \"#utility.yul\":23683:23708   */\n      swap2\n      pop\n        /* \"#utility.yul\":23722:23742   */\n      tag_651\n        /* \"#utility.yul\":23740:23741   */\n      dup4\n        /* \"#utility.yul\":23722:23742   */\n      tag_551\n      jump\t// in\n    tag_651:\n        /* \"#utility.yul\":23717:23742   */\n      swap3\n      pop\n        /* \"#utility.yul\":23761:23762   */\n      dup3\n        /* \"#utility.yul\":23758:23759   */\n      dup3\n        /* \"#utility.yul\":23755:23763   */\n      lt\n        /* \"#utility.yul\":23752:23786   */\n      iszero\n      tag_652\n      jumpi\n        /* \"#utility.yul\":23766:23784   */\n      tag_653\n      tag_637\n      jump\t// in\n    tag_653:\n        /* \"#utility.yul\":23752:23786   */\n    tag_652:\n        /* \"#utility.yul\":23811:23812   */\n      dup3\n        /* \"#utility.yul\":23808:23809   */\n      dup3\n        /* \"#utility.yul\":23804:23813   */\n      sub\n        /* \"#utility.yul\":23796:23813   */\n      swap1\n      pop\n        /* \"#utility.yul\":23628:23819   */\n      swap3\n      swap2\n      pop\n      pop\n      jump\t// out\n        /* \"#utility.yul\":23825:23921   */\n    tag_434:\n        /* \"#utility.yul\":23862:23869   */\n      0x00\n        /* \"#utility.yul\":23891:23915   */\n      tag_655\n        /* \"#utility.yul\":23909:23914   */\n      dup3\n        /* \"#utility.yul\":23891:23915   */\n      tag_656\n      jump\t// in\n    tag_655:\n        /* \"#utility.yul\":23880:23915   */\n      swap1\n      pop\n        /* \"#utility.yul\":23825:23921   */\n      swap2\n      swap1\n      pop\n      jump\t// out\n        /* \"#utility.yul\":23927:24031   */\n    tag_425:\n        /* \"#utility.yul\":23972:23979   */\n      0x00\n        /* \"#utility.yul\":24001:24025   */\n      tag_658\n        /* \"#utility.yul\":24019:24024   */\n      dup3\n        /* \"#utility.yul\":24001:24025   */\n      tag_656\n      jump\t// in\n    tag_658:\n        /* \"#utility.yul\":23990:24025   */\n      swap1\n      pop\n        /* \"#utility.yul\":23927:24031   */\n      swap2\n      swap1\n      pop\n      jump\t// out\n        /* \"#utility.yul\":24037:24127   */\n    tag_457:\n        /* \"#utility.yul\":24071:24078   */\n      0x00\n        /* \"#utility.yul\":24114:24119   */\n      dup2\n        /* \"#utility.yul\":24107:24120   */\n      iszero\n        /* \"#utility.yul\":24100:24121   */\n      iszero\n        /* \"#utility.yul\":24089:24121   */\n      swap1\n      pop\n        /* \"#utility.yul\":24037:24127   */\n      swap2\n      swap1\n      pop\n      jump\t// out\n        /* \"#utility.yul\":24133:24282   */\n    tag_660:\n        /* \"#utility.yul\":24169:24176   */\n      0x00\n        /* \"#utility.yul\":24209:24275   */\n      0xffffffff00000000000000000000000000000000000000000000000000000000\n        /* \"#utility.yul\":24202:24207   */\n      dup3\n        /* \"#utility.yul\":24198:24276   */\n      and\n        /* \"#utility.yul\":24187:24276   */\n      swap1\n      pop\n        /* \"#utility.yul\":24133:24282   */\n      swap2\n      swap1\n      pop\n      jump\t// out\n        /* \"#utility.yul\":24288:24414   */\n    tag_656:\n        /* \"#utility.yul\":24325:24332   */\n      0x00\n        /* \"#utility.yul\":24365:24407   */\n      0xffffffffffffffffffffffffffffffffffffffff\n        /* \"#utility.yul\":24358:24363   */\n      dup3\n        /* \"#utility.yul\":24354:24408   */\n      and\n        /* \"#utility.yul\":24343:24408   */\n      swap1\n      pop\n        /* \"#utility.yul\":24288:24414   */\n      swap2\n      swap1\n      pop\n      jump\t// out\n        /* \"#utility.yul\":24420:24497   */\n    tag_551:\n        /* \"#utility.yul\":24457:24464   */\n      0x00\n        /* \"#utility.yul\":24486:24491   */\n      dup2\n        /* \"#utility.yul\":24475:24491   */\n      swap1\n      pop\n        /* \"#utility.yul\":24420:24497   */\n      swap2\n      swap1\n      pop\n      jump\t// out\n        /* \"#utility.yul\":24503:24810   */\n    tag_465:\n        /* \"#utility.yul\":24571:24572   */\n      0x00\n        /* \"#utility.yul\":24581:24694   */\n    tag_665:\n        /* \"#utility.yul\":24595:24601   */\n      dup4\n        /* \"#utility.yul\":24592:24593   */\n      dup2\n        /* \"#utility.yul\":24589:24602   */\n      lt\n        /* \"#utility.yul\":24581:24694   */\n      iszero\n      tag_667\n      jumpi\n        /* \"#utility.yul\":24680:24681   */\n      dup1\n        /* \"#utility.yul\":24675:24678   */\n      dup3\n        /* \"#utility.yul\":24671:24682   */\n      add\n        /* \"#utility.yul\":24665:24683   */\n      mload\n        /* \"#utility.yul\":24661:24662   */\n      dup2\n        /* \"#utility.yul\":24656:24659   */\n      dup5\n        /* \"#utility.yul\":24652:24663   */\n      add\n        /* \"#utility.yul\":24645:24684   */\n      mstore\n        /* \"#utility.yul\":24617:24619   */\n      0x20\n        /* \"#utility.yul\":24614:24615   */\n      dup2\n        /* \"#utility.yul\":24610:24620   */\n      add\n        /* \"#utility.yul\":24605:24620   */\n      swap1\n      pop\n        /* \"#utility.yul\":24581:24694   */\n      jump(tag_665)\n    tag_667:\n        /* \"#utility.yul\":24712:24718   */\n      dup4\n        /* \"#utility.yul\":24709:24710   */\n      dup2\n        /* \"#utility.yul\":24706:24719   */\n      gt\n        /* \"#utility.yul\":24703:24804   */\n      iszero\n      tag_668\n      jumpi\n        /* \"#utility.yul\":24792:24793   */\n      0x00\n        /* \"#utility.yul\":24783:24789   */\n      dup5\n        /* \"#utility.yul\":24778:24781   */\n      dup5\n        /* \"#utility.yul\":24774:24790   */\n      add\n        /* \"#utility.yul\":24767:24794   */\n      mstore\n        /* \"#utility.yul\":24703:24804   */\n    tag_668:\n        /* \"#utility.yul\":24552:24810   */\n      pop\n        /* \"#utility.yul\":24503:24810   */\n      pop\n      pop\n      pop\n      jump\t// out\n        /* \"#utility.yul\":24816:25136   */\n    tag_155:\n        /* \"#utility.yul\":24860:24866   */\n      0x00\n        /* \"#utility.yul\":24897:24898   */\n      0x02\n        /* \"#utility.yul\":24891:24895   */\n      dup3\n        /* \"#utility.yul\":24887:24899   */\n      div\n        /* \"#utility.yul\":24877:24899   */\n      swap1\n      pop\n        /* \"#utility.yul\":24944:24945   */\n      0x01\n        /* \"#utility.yul\":24938:24942   */\n      dup3\n        /* \"#utility.yul\":24934:24946   */\n      and\n        /* \"#utility.yul\":24965:24983   */\n      dup1\n        /* \"#utility.yul\":24955:25036   */\n      tag_670\n      jumpi\n        /* \"#utility.yul\":25021:25025   */\n      0x7f\n        /* \"#utility.yul\":25013:25019   */\n      dup3\n        /* \"#utility.yul\":25009:25026   */\n      and\n        /* \"#utility.yul\":24999:25026   */\n      swap2\n      pop\n        /* \"#utility.yul\":24955:25036   */\n    tag_670:\n        /* \"#utility.yul\":25083:25085   */\n      0x20\n        /* \"#utility.yul\":25075:25081   */\n      dup3\n        /* \"#utility.yul\":25072:25086   */\n      lt\n        /* \"#utility.yul\":25052:25070   */\n      dup2\n        /* \"#utility.yul\":25049:25087   */\n      eq\n        /* \"#utility.yul\":25046:25130   */\n      iszero\n      tag_671\n      jumpi\n        /* \"#utility.yul\":25102:25120   */\n      tag_672\n      tag_673\n      jump\t// in\n    tag_672:\n        /* \"#utility.yul\":25046:25130   */\n    tag_671:\n        /* \"#utility.yul\":24867:25136   */\n      pop\n        /* \"#utility.yul\":24816:25136   */\n      swap2\n      swap1\n      pop\n      jump\t// out\n        /* \"#utility.yul\":25142:25423   */\n    tag_674:\n        /* \"#utility.yul\":25225:25252   */\n      tag_676\n        /* \"#utility.yul\":25247:25251   */\n      dup3\n        /* \"#utility.yul\":25225:25252   */\n      tag_467\n      jump\t// in\n    tag_676:\n        /* \"#utility.yul\":25217:25223   */\n      dup2\n        /* \"#utility.yul\":25213:25253   */\n      add\n        /* \"#utility.yul\":25355:25361   */\n      dup2\n        /* \"#utility.yul\":25343:25353   */\n      dup2\n        /* \"#utility.yul\":25340:25362   */\n      lt\n        /* \"#utility.yul\":25319:25337   */\n      0xffffffffffffffff\n        /* \"#utility.yul\":25307:25317   */\n      dup3\n        /* \"#utility.yul\":25304:25338   */\n      gt\n        /* \"#utility.yul\":25301:25363   */\n      or\n        /* \"#utility.yul\":25298:25386   */\n      iszero\n      tag_677\n      jumpi\n        /* \"#utility.yul\":25366:25384   */\n      tag_678\n      tag_316\n      jump\t// in\n    tag_678:\n        /* \"#utility.yul\":25298:25386   */\n    tag_677:\n        /* \"#utility.yul\":25406:25416   */\n      dup1\n        /* \"#utility.yul\":25402:25404   */\n      0x40\n        /* \"#utility.yul\":25395:25417   */\n      mstore\n        /* \"#utility.yul\":25185:25423   */\n      pop\n        /* \"#utility.yul\":25142:25423   */\n      pop\n      pop\n      jump\t// out\n        /* \"#utility.yul\":25429:25662   */\n    tag_133:\n        /* \"#utility.yul\":25468:25471   */\n      0x00\n        /* \"#utility.yul\":25491:25515   */\n      tag_680\n        /* \"#utility.yul\":25509:25514   */\n      dup3\n        /* \"#utility.yul\":25491:25515   */\n      tag_551\n      jump\t// in\n    tag_680:\n        /* \"#utility.yul\":25482:25515   */\n      swap2\n      pop\n        /* \"#utility.yul\":25537:25603   */\n      0xffffffffffffffffffffffffffffffffffffffffffffffffffffffffffffffff\n        /* \"#utility.yul\":25530:25535   */\n      dup3\n        /* \"#utility.yul\":25527:25604   */\n      eq\n        /* \"#utility.yul\":25524:25627   */\n      iszero\n      tag_681\n      jumpi\n        /* \"#utility.yul\":25607:25625   */\n      tag_682\n      tag_637\n      jump\t// in\n    tag_682:\n        /* \"#utility.yul\":25524:25627   */\n    tag_681:\n        /* \"#utility.yul\":25654:25655   */\n      0x01\n        /* \"#utility.yul\":25647:25652   */\n      dup3\n        /* \"#utility.yul\":25643:25656   */\n      add\n        /* \"#utility.yul\":25636:25656   */\n      swap1\n      pop\n        /* \"#utility.yul\":25429:25662   */\n      swap2\n      swap1\n      pop\n      jump\t// out\n        /* \"#utility.yul\":25668:25768   */\n    tag_439:\n        /* \"#utility.yul\":25707:25714   */\n      0x00\n        /* \"#utility.yul\":25736:25762   */\n      tag_684\n        /* \"#utility.yul\":25756:25761   */\n      dup3\n        /* \"#utility.yul\":25736:25762   */\n      tag_685\n      jump\t// in\n    tag_684:\n        /* \"#utility.yul\":25725:25762   */\n      swap1\n      pop\n        /* \"#utility.yul\":25668:25768   */\n      swap2\n      swap1\n      pop\n      jump\t// out\n        /* \"#utility.yul\":25774:25882   */\n    tag_430:\n        /* \"#utility.yul\":25821:25828   */\n      0x00\n        /* \"#utility.yul\":25850:25876   */\n      tag_687\n        /* \"#utility.yul\":25870:25875   */\n      dup3\n        /* \"#utility.yul\":25850:25876   */\n      tag_685\n      jump\t// in\n    tag_687:\n        /* \"#utility.yul\":25839:25876   */\n      swap1\n      pop\n        /* \"#utility.yul\":25774:25882   */\n      swap2\n      swap1\n      pop\n      jump\t// out\n        /* \"#utility.yul\":25888:25982   */\n    tag_685:\n        /* \"#utility.yul\":25927:25934   */\n      0x00\n        /* \"#utility.yul\":25956:25976   */\n      tag_689\n        /* \"#utility.yul\":25970:25975   */\n      dup3\n        /* \"#utility.yul\":25956:25976   */\n      tag_690\n      jump\t// in\n    tag_689:\n        /* \"#utility.yul\":25945:25976   */\n      swap1\n      pop\n        /* \"#utility.yul\":25888:25982   */\n      swap2\n      swap1\n      pop\n      jump\t// out\n        /* \"#utility.yul\":25988:26067   */\n    tag_559:\n        /* \"#utility.yul\":26027:26034   */\n      0x00\n        /* \"#utility.yul\":26056:26061   */\n      dup2\n        /* \"#utility.yul\":26045:26061   */\n      swap1\n      pop\n        /* \"#utility.yul\":25988:26067   */\n      swap2\n      swap1\n      pop\n      jump\t// out\n        /* \"#utility.yul\":26073:26249   */\n    tag_242:\n        /* \"#utility.yul\":26105:26106   */\n      0x00\n        /* \"#utility.yul\":26122:26142   */\n      tag_693\n        /* \"#utility.yul\":26140:26141   */\n      dup3\n        /* \"#utility.yul\":26122:26142   */\n      tag_551\n      jump\t// in\n    tag_693:\n        /* \"#utility.yul\":26117:26142   */\n      swap2\n      pop\n        /* \"#utility.yul\":26156:26176   */\n      tag_694\n        /* \"#utility.yul\":26174:26175   */\n      dup4\n        /* \"#utility.yul\":26156:26176   */\n      tag_551\n      jump\t// in\n    tag_694:\n        /* \"#utility.yul\":26151:26176   */\n      swap3\n      pop\n        /* \"#utility.yul\":26195:26196   */\n      dup3\n        /* \"#utility.yul\":26185:26220   */\n      tag_695\n      jumpi\n        /* \"#utility.yul\":26200:26218   */\n      tag_696\n      tag_643\n      jump\t// in\n    tag_696:\n        /* \"#utility.yul\":26185:26220   */\n    tag_695:\n        /* \"#utility.yul\":26241:26242   */\n      dup3\n        /* \"#utility.yul\":26238:26239   */\n      dup3\n        /* \"#utility.yul\":26234:26243   */\n      mod\n        /* \"#utility.yul\":26229:26243   */\n      swap1\n      pop\n        /* \"#utility.yul\":26073:26249   */\n      swap3\n      swap2\n      pop\n      pop\n      jump\t// out\n        /* \"#utility.yul\":26255:26435   */\n    tag_637:\n        /* \"#utility.yul\":26303:26380   */\n      0x4e487b7100000000000000000000000000000000000000000000000000000000\n        /* \"#utility.yul\":26300:26301   */\n      0x00\n        /* \"#utility.yul\":26293:26381   */\n      mstore\n        /* \"#utility.yul\":26400:26404   */\n      0x11\n        /* \"#utility.yul\":26397:26398   */\n      0x04\n        /* \"#utility.yul\":26390:26405   */\n      mstore\n        /* \"#utility.yul\":26424:26428   */\n      0x24\n        /* \"#utility.yul\":26421:26422   */\n      0x00\n        /* \"#utility.yul\":26414:26429   */\n      revert\n        /* \"#utility.yul\":26441:26621   */\n    tag_643:\n        /* \"#utility.yul\":26489:26566   */\n      0x4e487b7100000000000000000000000000000000000000000000000000000000\n        /* \"#utility.yul\":26486:26487   */\n      0x00\n        /* \"#utility.yul\":26479:26567   */\n      mstore\n        /* \"#utility.yul\":26586:26590   */\n      0x12\n        /* \"#utility.yul\":26583:26584   */\n      0x04\n        /* \"#utility.yul\":26576:26591   */\n      mstore\n        /* \"#utility.yul\":26610:26614   */\n      0x24\n        /* \"#utility.yul\":26607:26608   */\n      0x00\n        /* \"#utility.yul\":26600:26615   */\n      revert\n        /* \"#utility.yul\":26627:26807   */\n    tag_673:\n        /* \"#utility.yul\":26675:26752   */\n      0x4e487b7100000000000000000000000000000000000000000000000000000000\n        /* \"#utility.yul\":26672:26673   */\n      0x00\n        /* \"#utility.yul\":26665:26753   */\n      mstore\n        /* \"#utility.yul\":26772:26776   */\n      0x22\n        /* \"#utility.yul\":26769:26770   */\n      0x04\n        /* \"#utility.yul\":26762:26777   */\n      mstore\n        /* \"#utility.yul\":26796:26800   */\n      0x24\n        /* \"#utility.yul\":26793:26794   */\n      0x00\n        /* \"#utility.yul\":26786:26801   */\n      revert\n        /* \"#utility.yul\":26813:26993   */\n    tag_249:\n        /* \"#utility.yul\":26861:26938   */\n      0x4e487b7100000000000000000000000000000000000000000000000000000000\n        /* \"#utility.yul\":26858:26859   */\n      0x00\n        /* \"#utility.yul\":26851:26939   */\n      mstore\n        /* \"#utility.yul\":26958:26962   */\n      0x32\n        /* \"#utility.yul\":26955:26956   */\n      0x04\n        /* \"#utility.yul\":26948:26963   */\n      mstore\n        /* \"#utility.yul\":26982:26986   */\n      0x24\n        /* \"#utility.yul\":26979:26980   */\n      0x00\n        /* \"#utility.yul\":26972:26987   */\n      revert\n        /* \"#utility.yul\":26999:27179   */\n    tag_316:\n        /* \"#utility.yul\":27047:27124   */\n      0x4e487b7100000000000000000000000000000000000000000000000000000000\n        /* \"#utility.yul\":27044:27045   */\n      0x00\n        /* \"#utility.yul\":27037:27125   */\n      mstore\n        /* \"#utility.yul\":27144:27148   */\n      0x41\n        /* \"#utility.yul\":27141:27142   */\n      0x04\n        /* \"#utility.yul\":27134:27149   */\n      mstore\n        /* \"#utility.yul\":27168:27172   */\n      0x24\n        /* \"#utility.yul\":27165:27166   */\n      0x00\n        /* \"#utility.yul\":27158:27173   */\n      revert\n        /* \"#utility.yul\":27185:27368   */\n    tag_349:\n        /* \"#utility.yul\":27220:27223   */\n      0x00\n        /* \"#utility.yul\":27258:27259   */\n      0x03\n        /* \"#utility.yul\":27240:27256   */\n      returndatasize\n        /* \"#utility.yul\":27237:27260   */\n      gt\n        /* \"#utility.yul\":27234:27362   */\n      iszero\n      tag_703\n      jumpi\n        /* \"#utility.yul\":27296:27297   */\n      0x04\n        /* \"#utility.yul\":27293:27294   */\n      0x00\n        /* \"#utility.yul\":27290:27291   */\n      dup1\n        /* \"#utility.yul\":27275:27298   */\n      returndatacopy\n        /* \"#utility.yul\":27318:27352   */\n      tag_704\n        /* \"#utility.yul\":27349:27350   */\n      0x00\n        /* \"#utility.yul\":27343:27351   */\n      mload\n        /* \"#utility.yul\":27318:27352   */\n      tag_705\n      jump\t// in\n    tag_704:\n        /* \"#utility.yul\":27311:27352   */\n      swap1\n      pop\n        /* \"#utility.yul\":27234:27362   */\n    tag_703:\n        /* \"#utility.yul\":27185:27368   */\n      swap1\n      jump\t// out\n        /* \"#utility.yul\":27497:27614   */\n    tag_399:\n        /* \"#utility.yul\":27606:27607   */\n      0x00\n        /* \"#utility.yul\":27603:27604   */\n      dup1\n        /* \"#utility.yul\":27596:27608   */\n      revert\n        /* \"#utility.yul\":27620:27722   */\n    tag_467:\n        /* \"#utility.yul\":27661:27667   */\n      0x00\n        /* \"#utility.yul\":27712:27714   */\n      0x1f\n        /* \"#utility.yul\":27708:27715   */\n      not\n        /* \"#utility.yul\":27703:27705   */\n      0x1f\n        /* \"#utility.yul\":27696:27701   */\n      dup4\n        /* \"#utility.yul\":27692:27706   */\n      add\n        /* \"#utility.yul\":27688:27716   */\n      and\n        /* \"#utility.yul\":27678:27716   */\n      swap1\n      pop\n        /* \"#utility.yul\":27620:27722   */\n      swap2\n      swap1\n      pop\n      jump\t// out\n        /* \"#utility.yul\":27728:27822   */\n    tag_690:\n        /* \"#utility.yul\":27761:27769   */\n      0x00\n        /* \"#utility.yul\":27809:27814   */\n      dup2\n        /* \"#utility.yul\":27805:27807   */\n      0x60\n        /* \"#utility.yul\":27801:27815   */\n      shl\n        /* \"#utility.yul\":27780:27815   */\n      swap1\n      pop\n        /* \"#utility.yul\":27728:27822   */\n      swap2\n      swap1\n      pop\n      jump\t// out\n        /* \"#utility.yul\":27828:27934   */\n    tag_705:\n        /* \"#utility.yul\":27872:27880   */\n      0x00\n        /* \"#utility.yul\":27921:27926   */\n      dup2\n        /* \"#utility.yul\":27916:27919   */\n      0xe0\n        /* \"#utility.yul\":27912:27927   */\n      shr\n        /* \"#utility.yul\":27891:27927   */\n      swap1\n      pop\n        /* \"#utility.yul\":27828:27934   */\n      swap2\n      swap1\n      pop\n      jump\t// out\n        /* \"#utility.yul\":27940:28179   */\n    tag_478:\n        /* \"#utility.yul\":28080:28114   */\n      0x455243313135353a207472616e7366657220746f206e6f6e2045524331313535\n        /* \"#utility.yul\":28076:28077   */\n      0x00\n        /* \"#utility.yul\":28068:28074   */\n      dup3\n        /* \"#utility.yul\":28064:28078   */\n      add\n        /* \"#utility.yul\":28057:28115   */\n      mstore\n        /* \"#utility.yul\":28149:28171   */\n      0x526563656976657220696d706c656d656e746572000000000000000000000000\n        /* \"#utility.yul\":28144:28146   */\n      0x20\n        /* \"#utility.yul\":28136:28142   */\n      dup3\n        /* \"#utility.yul\":28132:28147   */\n      add\n        /* \"#utility.yul\":28125:28172   */\n      mstore\n        /* \"#utility.yul\":27940:28179   */\n      pop\n      jump\t// out\n        /* \"#utility.yul\":28185:28412   */\n    tag_483:\n        /* \"#utility.yul\":28325:28359   */\n      0x455243313135353a204552433131353552656365697665722072656a65637465\n        /* \"#utility.yul\":28321:28322   */\n      0x00\n        /* \"#utility.yul\":28313:28319   */\n      dup3\n        /* \"#utility.yul\":28309:28323   */\n      add\n        /* \"#utility.yul\":28302:28360   */\n      mstore\n        /* \"#utility.yul\":28394:28404   */\n      0x6420746f6b656e73000000000000000000000000000000000000000000000000\n        /* \"#utility.yul\":28389:28391   */\n      0x20\n        /* \"#utility.yul\":28381:28387   */\n      dup3\n        /* \"#utility.yul\":28377:28392   */\n      add\n        /* \"#utility.yul\":28370:28405   */\n      mstore\n        /* \"#utility.yul\":28185:28412   */\n      pop\n      jump\t// out\n        /* \"#utility.yul\":28418:28576   */\n    tag_488:\n        /* \"#utility.yul\":28558:28568   */\n      0x4469616d6f6e645f000000000000000000000000000000000000000000000000\n        /* \"#utility.yul\":28554:28555   */\n      0x00\n        /* \"#utility.yul\":28546:28552   */\n      dup3\n        /* \"#utility.yul\":28542:28556   */\n      add\n        /* \"#utility.yul\":28535:28569   */\n      mstore\n        /* \"#utility.yul\":28418:28576   */\n      pop\n      jump\t// out\n        /* \"#utility.yul\":28582:28748   */\n    tag_493:\n        /* \"#utility.yul\":28722:28740   */\n      0x4d696e7420466565204e6f742053657400000000000000000000000000000000\n        /* \"#utility.yul\":28718:28719   */\n      0x00\n        /* \"#utility.yul\":28710:28716   */\n      dup3\n        /* \"#utility.yul\":28706:28720   */\n      add\n        /* \"#utility.yul\":28699:28741   */\n      mstore\n        /* \"#utility.yul\":28582:28748   */\n      pop\n      jump\t// out\n        /* \"#utility.yul\":28754:28909   */\n    tag_498:\n        /* \"#utility.yul\":28894:28901   */\n      0x476f6c645f000000000000000000000000000000000000000000000000000000\n        /* \"#utility.yul\":28890:28891   */\n      0x00\n        /* \"#utility.yul\":28882:28888   */\n      dup3\n        /* \"#utility.yul\":28878:28892   */\n      add\n        /* \"#utility.yul\":28871:28902   */\n      mstore\n        /* \"#utility.yul\":28754:28909   */\n      pop\n      jump\t// out\n        /* \"#utility.yul\":28915:29083   */\n    tag_503:\n        /* \"#utility.yul\":29055:29075   */\n      0x4e6f7420456e6f7567682042616c616e63650000000000000000000000000000\n        /* \"#utility.yul\":29051:29052   */\n      0x00\n        /* \"#utility.yul\":29043:29049   */\n      dup3\n        /* \"#utility.yul\":29039:29053   */\n      add\n        /* \"#utility.yul\":29032:29076   */\n      mstore\n        /* \"#utility.yul\":28915:29083   */\n      pop\n      jump\t// out\n        /* \"#utility.yul\":29089:29266   */\n    tag_508:\n        /* \"#utility.yul\":29229:29258   */\n      0x44726f707369746520697320616c72656164792052756e6e696e670000000000\n        /* \"#utility.yul\":29225:29226   */\n      0x00\n        /* \"#utility.yul\":29217:29223   */\n      dup3\n        /* \"#utility.yul\":29213:29227   */\n      add\n        /* \"#utility.yul\":29206:29259   */\n      mstore\n        /* \"#utility.yul\":29089:29266   */\n      pop\n      jump\t// out\n        /* \"#utility.yul\":29272:29449   */\n    tag_513:\n        /* \"#utility.yul\":29412:29441   */\n      0x44726f707369746520697320616c72656164792053746f707065640000000000\n        /* \"#utility.yul\":29408:29409   */\n      0x00\n        /* \"#utility.yul\":29400:29406   */\n      dup3\n        /* \"#utility.yul\":29396:29410   */\n      add\n        /* \"#utility.yul\":29389:29442   */\n      mstore\n        /* \"#utility.yul\":29272:29449   */\n      pop\n      jump\t// out\n        /* \"#utility.yul\":29455:29626   */\n    tag_518:\n        /* \"#utility.yul\":29595:29618   */\n      0x596f752063616e206d696e7420312d33204e4654730000000000000000000000\n        /* \"#utility.yul\":29591:29592   */\n      0x00\n        /* \"#utility.yul\":29583:29589   */\n      dup3\n        /* \"#utility.yul\":29579:29593   */\n      add\n        /* \"#utility.yul\":29572:29619   */\n      mstore\n        /* \"#utility.yul\":29455:29626   */\n      pop\n      jump\t// out\n        /* \"#utility.yul\":29632:29810   */\n    tag_523:\n        /* \"#utility.yul\":29772:29802   */\n      0x4f6e6c79204e46542d4553204f776e65722063616e2041636365737300000000\n        /* \"#utility.yul\":29768:29769   */\n      0x00\n        /* \"#utility.yul\":29760:29766   */\n      dup3\n        /* \"#utility.yul\":29756:29770   */\n      add\n        /* \"#utility.yul\":29749:29803   */\n      mstore\n        /* \"#utility.yul\":29632:29810   */\n      pop\n      jump\t// out\n        /* \"#utility.yul\":29816:29993   */\n    tag_528:\n        /* \"#utility.yul\":29956:29985   */\n      0x44726f7073697465206973206e6f74204f70656e6564205965742e0000000000\n        /* \"#utility.yul\":29952:29953   */\n      0x00\n        /* \"#utility.yul\":29944:29950   */\n      dup3\n        /* \"#utility.yul\":29940:29954   */\n      add\n        /* \"#utility.yul\":29933:29986   */\n      mstore\n        /* \"#utility.yul\":29816:29993   */\n      pop\n      jump\t// out\n        /* \"#utility.yul\":29999:30174   */\n    tag_533:\n        /* \"#utility.yul\":30139:30166   */\n      0x4d6178204d696e74696e67204c696d6974207265616368656400000000000000\n        /* \"#utility.yul\":30135:30136   */\n      0x00\n        /* \"#utility.yul\":30127:30133   */\n      dup3\n        /* \"#utility.yul\":30123:30137   */\n      add\n        /* \"#utility.yul\":30116:30167   */\n      mstore\n        /* \"#utility.yul\":29999:30174   */\n      pop\n      jump\t// out\n        /* \"#utility.yul\":30180:30337   */\n    tag_538:\n        /* \"#utility.yul\":30320:30329   */\n      0x53696c7665725f00000000000000000000000000000000000000000000000000\n        /* \"#utility.yul\":30316:30317   */\n      0x00\n        /* \"#utility.yul\":30308:30314   */\n      dup3\n        /* \"#utility.yul\":30304:30318   */\n      add\n        /* \"#utility.yul\":30297:30330   */\n      mstore\n        /* \"#utility.yul\":30180:30337   */\n      pop\n      jump\t// out\n        /* \"#utility.yul\":30343:30522   */\n    tag_543:\n        /* \"#utility.yul\":30483:30514   */\n      0x4572726f7221204e6f2042616c616e636520746f207769746864726177000000\n        /* \"#utility.yul\":30479:30480   */\n      0x00\n        /* \"#utility.yul\":30471:30477   */\n      dup3\n        /* \"#utility.yul\":30467:30481   */\n      add\n        /* \"#utility.yul\":30460:30515   */\n      mstore\n        /* \"#utility.yul\":30343:30522   */\n      pop\n      jump\t// out\n        /* \"#utility.yul\":30528:30748   */\n    tag_548:\n        /* \"#utility.yul\":30668:30702   */\n      0x455243313135353a206d696e7420746f20746865207a65726f20616464726573\n        /* \"#utility.yul\":30664:30665   */\n      0x00\n        /* \"#utility.yul\":30656:30662   */\n      dup3\n        /* \"#utility.yul\":30652:30666   */\n      add\n        /* \"#utility.yul\":30645:30703   */\n      mstore\n        /* \"#utility.yul\":30737:30740   */\n      0x7300000000000000000000000000000000000000000000000000000000000000\n        /* \"#utility.yul\":30732:30734   */\n      0x20\n        /* \"#utility.yul\":30724:30730   */\n      dup3\n        /* \"#utility.yul\":30720:30735   */\n      add\n        /* \"#utility.yul\":30713:30741   */\n      mstore\n        /* \"#utility.yul\":30528:30748   */\n      pop\n      jump\t// out\n        /* \"#utility.yul\":30754:31465   */\n    tag_351:\n        /* \"#utility.yul\":30793:30796   */\n      0x00\n        /* \"#utility.yul\":30831:30835   */\n      0x44\n        /* \"#utility.yul\":30813:30829   */\n      returndatasize\n        /* \"#utility.yul\":30810:30836   */\n      lt\n        /* \"#utility.yul\":30807:30846   */\n      iszero\n      tag_728\n      jumpi\n        /* \"#utility.yul\":30839:30844   */\n      jump(tag_727)\n        /* \"#utility.yul\":30807:30846   */\n    tag_728:\n        /* \"#utility.yul\":30868:30888   */\n      tag_729\n      tag_623\n      jump\t// in\n    tag_729:\n        /* \"#utility.yul\":30943:30944   */\n      0x04\n        /* \"#utility.yul\":30925:30941   */\n      returndatasize\n        /* \"#utility.yul\":30921:30945   */\n      sub\n        /* \"#utility.yul\":30918:30919   */\n      0x04\n        /* \"#utility.yul\":30912:30916   */\n      dup3\n        /* \"#utility.yul\":30897:30946   */\n      returndatacopy\n        /* \"#utility.yul\":30976:30980   */\n      dup1\n        /* \"#utility.yul\":30970:30981   */\n      mload\n        /* \"#utility.yul\":31075:31091   */\n      returndatasize\n        /* \"#utility.yul\":31068:31072   */\n      0x24\n        /* \"#utility.yul\":31060:31066   */\n      dup3\n        /* \"#utility.yul\":31056:31073   */\n      add\n        /* \"#utility.yul\":31053:31092   */\n      gt\n        /* \"#utility.yul\":31020:31038   */\n      0xffffffffffffffff\n        /* \"#utility.yul\":31012:31018   */\n      dup3\n        /* \"#utility.yul\":31009:31039   */\n      gt\n        /* \"#utility.yul\":30993:31106   */\n      or\n        /* \"#utility.yul\":30990:31136   */\n      iszero\n      tag_730\n      jumpi\n        /* \"#utility.yul\":31121:31126   */\n      pop\n      pop\n      jump(tag_727)\n        /* \"#utility.yul\":30990:31136   */\n    tag_730:\n        /* \"#utility.yul\":31167:31173   */\n      dup1\n        /* \"#utility.yul\":31161:31165   */\n      dup3\n        /* \"#utility.yul\":31157:31174   */\n      add\n        /* \"#utility.yul\":31203:31206   */\n      dup1\n        /* \"#utility.yul\":31197:31207   */\n      mload\n        /* \"#utility.yul\":31230:31248   */\n      0xffffffffffffffff\n        /* \"#utility.yul\":31222:31228   */\n      dup2\n        /* \"#utility.yul\":31219:31249   */\n      gt\n        /* \"#utility.yul\":31216:31259   */\n      iszero\n      tag_731\n      jumpi\n        /* \"#utility.yul\":31252:31257   */\n      pop\n      pop\n      pop\n      pop\n      jump(tag_727)\n        /* \"#utility.yul\":31216:31259   */\n    tag_731:\n        /* \"#utility.yul\":31300:31306   */\n      dup1\n        /* \"#utility.yul\":31293:31297   */\n      0x20\n        /* \"#utility.yul\":31288:31291   */\n      dup4\n        /* \"#utility.yul\":31284:31298   */\n      add\n        /* \"#utility.yul\":31280:31307   */\n      add\n        /* \"#utility.yul\":31359:31360   */\n      0x04\n        /* \"#utility.yul\":31341:31357   */\n      returndatasize\n        /* \"#utility.yul\":31337:31361   */\n      sub\n        /* \"#utility.yul\":31331:31335   */\n      dup6\n        /* \"#utility.yul\":31327:31362   */\n      add\n        /* \"#utility.yul\":31322:31325   */\n      dup2\n        /* \"#utility.yul\":31319:31363   */\n      gt\n        /* \"#utility.yul\":31316:31373   */\n      iszero\n      tag_732\n      jumpi\n        /* \"#utility.yul\":31366:31371   */\n      pop\n      pop\n      pop\n      pop\n      pop\n      jump(tag_727)\n        /* \"#utility.yul\":31316:31373   */\n    tag_732:\n        /* \"#utility.yul\":31383:31440   */\n      tag_733\n        /* \"#utility.yul\":31431:31437   */\n      dup3\n        /* \"#utility.yul\":31425:31429   */\n      0x20\n        /* \"#utility.yul\":31421:31438   */\n      add\n        /* \"#utility.yul\":31413:31419   */\n      dup6\n        /* \"#utility.yul\":31409:31439   */\n      add\n        /* \"#utility.yul\":31403:31407   */\n      dup7\n        /* \"#utility.yul\":31383:31440   */\n      tag_674\n      jump\t// in\n    tag_733:\n        /* \"#utility.yul\":31456:31459   */\n      dup3\n        /* \"#utility.yul\":31449:31459   */\n      swap6\n      pop\n        /* \"#utility.yul\":30797:31465   */\n      pop\n      pop\n      pop\n      pop\n      pop\n        /* \"#utility.yul\":30754:31465   */\n    tag_727:\n      swap1\n      jump\t// out\n        /* \"#utility.yul\":31471:31593   */\n    tag_383:\n        /* \"#utility.yul\":31544:31568   */\n      tag_735\n        /* \"#utility.yul\":31562:31567   */\n      dup2\n        /* \"#utility.yul\":31544:31568   */\n      tag_434\n      jump\t// in\n    tag_735:\n        /* \"#utility.yul\":31537:31542   */\n      dup2\n        /* \"#utility.yul\":31534:31569   */\n      eq\n        /* \"#utility.yul\":31524:31587   */\n      tag_736\n      jumpi\n        /* \"#utility.yul\":31583:31584   */\n      0x00\n        /* \"#utility.yul\":31580:31581   */\n      dup1\n        /* \"#utility.yul\":31573:31585   */\n      revert\n        /* \"#utility.yul\":31524:31587   */\n    tag_736:\n        /* \"#utility.yul\":31471:31593   */\n      pop\n      jump\t// out\n        /* \"#utility.yul\":31599:31737   */\n    tag_387:\n        /* \"#utility.yul\":31680:31712   */\n      tag_738\n        /* \"#utility.yul\":31706:31711   */\n      dup2\n        /* \"#utility.yul\":31680:31712   */\n      tag_425\n      jump\t// in\n    tag_738:\n        /* \"#utility.yul\":31673:31678   */\n      dup2\n        /* \"#utility.yul\":31670:31713   */\n      eq\n        /* \"#utility.yul\":31660:31731   */\n      tag_739\n      jumpi\n        /* \"#utility.yul\":31727:31728   */\n      0x00\n        /* \"#utility.yul\":31724:31725   */\n      dup1\n        /* \"#utility.yul\":31717:31729   */\n      revert\n        /* \"#utility.yul\":31660:31731   */\n    tag_739:\n        /* \"#utility.yul\":31599:31737   */\n      pop\n      jump\t// out\n        /* \"#utility.yul\":31743:31863   */\n    tag_391:\n        /* \"#utility.yul\":31815:31838   */\n      tag_741\n        /* \"#utility.yul\":31832:31837   */\n      dup2\n        /* \"#utility.yul\":31815:31838   */\n      tag_660\n      jump\t// in\n    tag_741:\n        /* \"#utility.yul\":31808:31813   */\n      dup2\n        /* \"#utility.yul\":31805:31839   */\n      eq\n        /* \"#utility.yul\":31795:31857   */\n      tag_742\n      jumpi\n        /* \"#utility.yul\":31853:31854   */\n      0x00\n        /* \"#utility.yul\":31850:31851   */\n      dup1\n        /* \"#utility.yul\":31843:31855   */\n      revert\n        /* \"#utility.yul\":31795:31857   */\n    tag_742:\n        /* \"#utility.yul\":31743:31863   */\n      pop\n      jump\t// out\n        /* \"#utility.yul\":31869:31991   */\n    tag_395:\n        /* \"#utility.yul\":31942:31966   */\n      tag_744\n        /* \"#utility.yul\":31960:31965   */\n      dup2\n        /* \"#utility.yul\":31942:31966   */\n      tag_551\n      jump\t// in\n    tag_744:\n        /* \"#utility.yul\":31935:31940   */\n      dup2\n        /* \"#utility.yul\":31932:31967   */\n      eq\n        /* \"#utility.yul\":31922:31985   */\n      tag_745\n      jumpi\n        /* \"#utility.yul\":31981:31982   */\n      0x00\n        /* \"#utility.yul\":31978:31979   */\n      dup1\n        /* \"#utility.yul\":31971:31983   */\n      revert\n        /* \"#utility.yul\":31922:31985   */\n    tag_745:\n        /* \"#utility.yul\":31869:31991   */\n      pop\n      jump\t// out\n\n    auxdata: 0xa2646970667358221220f53e4b2bbd8e2e67b30cc4d4c3912c776b73b409d66b260351f040aeb9807a4b64736f6c63430008070033\n}\n",
				"bytecode": {
					"linkReferences": {},
					"object": "608060405260405180602001604052806000815250600290805190602001906200002b929190620001e8565b50604051806102800160405280600060ff168152602001600160ff168152602001600160ff168152602001600260ff168152602001600260ff168152602001600260ff168152602001600260ff168152602001600260ff168152602001600260ff168152602001600260ff168152602001600260ff168152602001600260ff168152602001600260ff168152602001600260ff168152602001600260ff168152602001600260ff168152602001600260ff168152602001600260ff168152602001600260ff168152602001600260ff1681525060039060146200011092919062000279565b506001600c60006101000a81548160ff0219169083151502179055503480156200013957600080fd5b50604051620034873803806200348783398181016040528101906200015f9190620003b7565b80600d908051906020019062000177929190620001e8565b5033600c60016101000a81548173ffffffffffffffffffffffffffffffffffffffff021916908373ffffffffffffffffffffffffffffffffffffffff16021790555060006004819055506001600581905550600060078190555060006008819055506000600981905550506200058c565b828054620001f6906200049d565b90600052602060002090601f0160209004810192826200021a576000855562000266565b82601f106200023557805160ff191683800117855562000266565b8280016001018555821562000266579182015b828111156200026557825182559160200191906001019062000248565b5b5090506200027591906200031a565b5090565b826014601f01602090048101928215620003075791602002820160005b83821115620002d657835183826101000a81548160ff021916908360ff160217905550926020019260010160208160000104928301926001030262000296565b8015620003055782816101000a81549060ff0219169055600101602081600001049283019260010302620002d6565b505b5090506200031691906200031a565b5090565b5b80821115620003355760008160009055506001016200031b565b5090565b6000620003506200034a8462000431565b62000408565b9050828152602081018484840111156200036f576200036e6200056c565b5b6200037c84828562000467565b509392505050565b600082601f8301126200039c576200039b62000567565b5b8151620003ae84826020860162000339565b91505092915050565b600060208284031215620003d057620003cf62000576565b5b600082015167ffffffffffffffff811115620003f157620003f062000571565b5b620003ff8482850162000384565b91505092915050565b60006200041462000427565b9050620004228282620004d3565b919050565b6000604051905090565b600067ffffffffffffffff8211156200044f576200044e62000538565b5b6200045a826200057b565b9050602081019050919050565b60005b83811015620004875780820151818401526020810190506200046a565b8381111562000497576000848401525b50505050565b60006002820490506001821680620004b657607f821691505b60208210811415620004cd57620004cc62000509565b5b50919050565b620004de826200057b565b810181811067ffffffffffffffff821117156200050057620004ff62000538565b5b80604052505050565b7f4e487b7100000000000000000000000000000000000000000000000000000000600052602260045260246000fd5b7f4e487b7100000000000000000000000000000000000000000000000000000000600052604160045260246000fd5b600080fd5b600080fd5b600080fd5b600080fd5b6000601f19601f8301169050919050565b612eeb806200059c6000396000f3fe6080604052600436106100dd5760003560e01c806360daa8511161007f578063b187bd2611610059578063b187bd2614610278578063b4a99a4e146102a3578063eddd0d9c146102ce578063fd6c3b1b146102f7576100dd565b806360daa851146102095780637a5caab314610236578063aa90c72614610261576100dd565b806327a8a072116100bb57806327a8a072146101405780633b6680591461017d578063546fd992146101a857806359ba3124146101d9576100dd565b80630390c11c146100e25780630a67d2c71461010d5780631546025914610129575b600080fd5b3480156100ee57600080fd5b506100f7610334565b60405161010491906125ad565b60405180910390f35b61012760048036038101906101229190611e72565b6103d5565b005b34801561013557600080fd5b5061013e6104ff565b005b34801561014c57600080fd5b5061016760048036038101906101629190611e9f565b610609565b60405161017491906123ce565b60405180910390f35b34801561018957600080fd5b50610192610896565b60405161019f91906125ad565b60405180910390f35b6101c260048036038101906101bd9190611e45565b610935565b6040516101d09291906125c8565b60405180910390f35b6101f360048036038101906101ee9190611e9f565b610bf2565b60405161020091906123ce565b60405180910390f35b34801561021557600080fd5b5061021e610e46565b60405161022d93929190612621565b60405180910390f35b34801561024257600080fd5b5061024b610f4c565b60405161025891906125ad565b60405180910390f35b34801561026d57600080fd5b50610276611043565b005b34801561028457600080fd5b5061028d61114d565b60405161029a91906123f0565b60405180910390f35b3480156102af57600080fd5b506102b8611160565b6040516102c59190612359565b60405180910390f35b3480156102da57600080fd5b506102f560048036038101906102f09190611f0c565b611186565b005b34801561030357600080fd5b5061031e60048036038101906103199190611e45565b61127d565b60405161032b91906123ce565b60405180910390f35b6000600c60019054906101000a900473ffffffffffffffffffffffffffffffffffffffff1673ffffffffffffffffffffffffffffffffffffffff1661037761136d565b73ffffffffffffffffffffffffffffffffffffffff16146103cd576040517f08c379a00000000000000000000000000000000000000000000000000000000081526004016103c49061250d565b60405180910390fd5b600454905090565b600c60019054906101000a900473ffffffffffffffffffffffffffffffffffffffff1673ffffffffffffffffffffffffffffffffffffffff1661041661136d565b73ffffffffffffffffffffffffffffffffffffffff161461046c576040517f08c379a00000000000000000000000000000000000000000000000000000000081526004016104639061250d565b60405180910390fd5b6000479050600081116104b4576040517f08c379a00000000000000000000000000000000000000000000000000000000081526004016104ab9061256d565b60405180910390fd5b8173ffffffffffffffffffffffffffffffffffffffff166108fc829081150290604051600060405180830381858888f193505050501580156104fa573d6000803e3d6000fd5b505050565b600c60019054906101000a900473ffffffffffffffffffffffffffffffffffffffff1673ffffffffffffffffffffffffffffffffffffffff1661054061136d565b73ffffffffffffffffffffffffffffffffffffffff1614610596576040517f08c379a000000000000000000000000000000000000000000000000000000000815260040161058d9061250d565b60405180910390fd5b60011515600c60009054906101000a900460ff161515146105ec576040517f08c379a00000000000000000000000000000000000000000000000000000000081526004016105e3906124ad565b60405180910390fd5b6000600c60006101000a81548160ff021916908315150217905550565b6060600c60019054906101000a900473ffffffffffffffffffffffffffffffffffffffff1673ffffffffffffffffffffffffffffffffffffffff1661064c61136d565b73ffffffffffffffffffffffffffffffffffffffff16146106a2576040517f08c379a00000000000000000000000000000000000000000000000000000000081526004016106999061250d565b60405180910390fd5b60001515600c60009054906101000a900460ff161515146106f8576040517f08c379a00000000000000000000000000000000000000000000000000000000081526004016106ef9061252d565b60405180910390fd5b6004821080156107085750600082115b610747576040517f08c379a000000000000000000000000000000000000000000000000000000000815260040161073e906124ed565b60405180910390fd5b6103e86004541061078d576040517f08c379a00000000000000000000000000000000000000000000000000000000081526004016107849061254d565b60405180910390fd5b600060065414156107d3576040517f08c379a00000000000000000000000000000000000000000000000000000000081526004016107ca9061246d565b60405180910390fd5b60005b828110156107fc576107e784610935565b505080806107f4906128f3565b9150506107d6565b50600a60008473ffffffffffffffffffffffffffffffffffffffff1673ffffffffffffffffffffffffffffffffffffffff16815260200190815260200160002060000180548060200260200160405190810160405280929190818152602001828054801561088957602002820191906000526020600020905b815481526020019060010190808311610875575b5050505050905092915050565b6000600c60019054906101000a900473ffffffffffffffffffffffffffffffffffffffff1673ffffffffffffffffffffffffffffffffffffffff166108d961136d565b73ffffffffffffffffffffffffffffffffffffffff161461092f576040517f08c379a00000000000000000000000000000000000000000000000000000000081526004016109269061250d565b60405180910390fd5b47905090565b60006060600c60019054906101000a900473ffffffffffffffffffffffffffffffffffffffff1673ffffffffffffffffffffffffffffffffffffffff1661097a61136d565b73ffffffffffffffffffffffffffffffffffffffff16146109d0576040517f08c379a00000000000000000000000000000000000000000000000000000000081526004016109c79061250d565b60405180910390fd5b60001515600c60009054906101000a900460ff16151514610a26576040517f08c379a0000000000000000000000000000000000000000000000000000000008152600401610a1d9061252d565b60405180910390fd5b6000610a30611375565b90506000610a3d82611411565b9050610ad7858260055460028054610a5490612890565b80601f0160208091040260200160405190810160405280929190818152602001828054610a8090612890565b8015610acd5780601f10610aa257610100808354040283529160200191610acd565b820191906000526020600020905b815481529060010190602001808311610ab057829003601f168201915b50505050506116f4565b60046000815480929190610aea906128f3565b9190505550600a60008673ffffffffffffffffffffffffffffffffffffffff1673ffffffffffffffffffffffffffffffffffffffff168152602001908152602001600020600001819080600181540180825580915050600190039060005260206000200160009091909190915055806002808054610b6790612890565b80601f0160208091040260200160405190810160405280929190818152602001828054610b9390612890565b8015610be05780601f10610bb557610100808354040283529160200191610be0565b820191906000526020600020905b815481529060010190602001808311610bc357829003601f168201915b50505050509050935093505050915091565b606060001515600c60009054906101000a900460ff16151514610c4a576040517f08c379a0000000000000000000000000000000000000000000000000000000008152600401610c419061252d565b60405180910390fd5b600482108015610c5a5750600082115b610c99576040517f08c379a0000000000000000000000000000000000000000000000000000000008152600401610c90906124ed565b60405180910390fd5b6103e860045410610cdf576040517f08c379a0000000000000000000000000000000000000000000000000000000008152600401610cd69061254d565b60405180910390fd5b60006006541415610d25576040517f08c379a0000000000000000000000000000000000000000000000000000000008152600401610d1c9061246d565b60405180910390fd5b81600654610d339190612749565b3414610d74576040517f08c379a0000000000000000000000000000000000000000000000000000000008152600401610d6b9061248d565b60405180910390fd5b60005b82811015610d9b57610d8884610935565b505080610d94906128f3565b9050610d77565b50610dad610da761136d565b3461188a565b600a60008473ffffffffffffffffffffffffffffffffffffffff1673ffffffffffffffffffffffffffffffffffffffff168152602001908152602001600020600001805480602002602001604051908101604052809291908181526020018280548015610e3957602002820191906000526020600020905b815481526020019060010190808311610e25575b5050505050905092915050565b6000806000600c60019054906101000a900473ffffffffffffffffffffffffffffffffffffffff1673ffffffffffffffffffffffffffffffffffffffff16610e8c61136d565b73ffffffffffffffffffffffffffffffffffffffff1614610ee2576040517f08c379a0000000000000000000000000000000000000000000000000000000008152600401610ed99061250d565b60405180910390fd5b60001515600c60009054906101000a900460ff16151514610f38576040517f08c379a0000000000000000000000000000000000000000000000000000000008152600401610f2f9061252d565b60405180910390fd5b600754600854600954925092509250909192565b6000600c60019054906101000a900473ffffffffffffffffffffffffffffffffffffffff1673ffffffffffffffffffffffffffffffffffffffff16610f8f61136d565b73ffffffffffffffffffffffffffffffffffffffff1614610fe5576040517f08c379a0000000000000000000000000000000000000000000000000000000008152600401610fdc9061250d565b60405180910390fd5b60001515600c60009054906101000a900460ff1615151461103b576040517f08c379a00000000000000000000000000000000000000000000000000000000081526004016110329061252d565b60405180910390fd5b600654905090565b600c60019054906101000a900473ffffffffffffffffffffffffffffffffffffffff1673ffffffffffffffffffffffffffffffffffffffff1661108461136d565b73ffffffffffffffffffffffffffffffffffffffff16146110da576040517f08c379a00000000000000000000000000000000000000000000000000000000081526004016110d19061250d565b60405180910390fd5b60001515600c60009054906101000a900460ff16151514611130576040517f08c379a0000000000000000000000000000000000000000000000000000000008152600401611127906124cd565b60405180910390fd5b6001600c60006101000a81548160ff021916908315150217905550565b600c60009054906101000a900460ff1681565b600c60019054906101000a900473ffffffffffffffffffffffffffffffffffffffff1681565b600c60019054906101000a900473ffffffffffffffffffffffffffffffffffffffff1673ffffffffffffffffffffffffffffffffffffffff166111c761136d565b73ffffffffffffffffffffffffffffffffffffffff161461121d576040517f08c379a00000000000000000000000000000000000000000000000000000000081526004016112149061250d565b60405180910390fd5b60001515600c60009054906101000a900460ff16151514611273576040517f08c379a000000000000000000000000000000000000000000000000000000000815260040161126a9061252d565b60405180910390fd5b8060068190555050565b606060001515600c60009054906101000a900460ff161515146112d5576040517f08c379a00000000000000000000000000000000000000000000000000000000081526004016112cc9061252d565b60405180910390fd5b600a60008373ffffffffffffffffffffffffffffffffffffffff1673ffffffffffffffffffffffffffffffffffffffff16815260200190815260200160002060000180548060200260200160405190810160405280929190818152602001828054801561136157602002820191906000526020600020905b81548152602001906001019080831161134d575b50505050509050919050565b600033905090565b60008060146007546008546009546004544261139191906126c2565b61139b91906126c2565b6113a591906126c2565b6113af91906126c2565b33600c60019054906101000a900473ffffffffffffffffffffffffffffffffffffffff166040516020016113e59392919061231c565b6040516020818303038152906040528051906020012060001c611408919061297c565b90508091505090565b6000801515600c60009054906101000a900460ff16151514611468576040517f08c379a000000000000000000000000000000000000000000000000000000000815260040161145f9061252d565b60405180910390fd5b60006003836014811061147e5761147d612a3a565b5b602091828204019190069054906101000a900460ff1660ff1690506000811480156114ab57506032600754105b1561151157600760008154809291906114c3906128f3565b91905055506114d36007546118e4565b6040516020016114e391906122b6565b60405160208183030381529060405260029080519060200190611507929190611cc1565b50809150506116ef565b6001811115801561152457506064600854105b1561158a576008600081548092919061153c906128f3565b919050555061154c6008546118e4565b60405160200161155c91906122d8565b60405160208183030381529060405260029080519060200190611580929190611cc1565b50809150506116ef565b6002811115801561159f575061035260095411155b1561161e57600960008154809291906115b7906128f3565b91905055506115c76009546118e4565b6040516020016115d791906122fa565b604051602081830303815290604052600290805190602001906115fb929190611cc1565b600290805461160990612890565b611614929190611d47565b50809150506116ef565b6064600854101561168e576001905060086000815480929190611640906128f3565b91905055506116506008546118e4565b60405160200161166091906122d8565b60405160208183030381529060405260029080519060200190611684929190611cc1565b50809150506116ef565b60009050600760008154809291906116a5906128f3565b91905055506116b56007546118e4565b6040516020016116c591906122b6565b604051602081830303815290604052600290805190602001906116e9929190611cc1565b50809150505b919050565b600073ffffffffffffffffffffffffffffffffffffffff168473ffffffffffffffffffffffffffffffffffffffff161415611764576040517f08c379a000000000000000000000000000000000000000000000000000000000815260040161175b9061258d565b60405180910390fd5b600061176e61136d565b905061178f8160008761178088611a45565b61178988611a45565b87611abf565b8260008086815260200190815260200160002060008773ffffffffffffffffffffffffffffffffffffffff1673ffffffffffffffffffffffffffffffffffffffff16815260200190815260200160002060008282546117ee91906126c2565b925050819055508473ffffffffffffffffffffffffffffffffffffffff16600073ffffffffffffffffffffffffffffffffffffffff168273ffffffffffffffffffffffffffffffffffffffff167fc3d58168c5ae7397731d063d5bbf3d657854427343f4c083240f7aacaa2d0f62878760405161186c9291906125f8565b60405180910390a461188381600087878787611ac7565b5050505050565b80600b60008473ffffffffffffffffffffffffffffffffffffffff1673ffffffffffffffffffffffffffffffffffffffff16815260200190815260200160002060008282546118d991906126c2565b925050819055505050565b6060600082141561192c576040518060400160405280600181526020017f30000000000000000000000000000000000000000000000000000000000000008152509050611a40565b600082905060005b6000821461195e578080611947906128f3565b915050600a826119579190612718565b9150611934565b60008167ffffffffffffffff81111561197a57611979612a69565b5b6040519080825280601f01601f1916602001820160405280156119ac5781602001600182028036833780820191505090505b5090505b60008514611a39576001826119c591906127a3565b9150600a856119d4919061297c565b60306119e091906126c2565b60f81b8183815181106119f6576119f5612a3a565b5b60200101907effffffffffffffffffffffffffffffffffffffffffffffffffffffffffffff1916908160001a905350600a85611a329190612718565b94506119b0565b8093505050505b919050565b60606000600167ffffffffffffffff811115611a6457611a63612a69565b5b604051908082528060200260200182016040528015611a925781602001602082028036833780820191505090505b5090508281600081518110611aaa57611aa9612a3a565b5b60200260200101818152505080915050919050565b505050505050565b611ae68473ffffffffffffffffffffffffffffffffffffffff16611cae565b15611ca6578373ffffffffffffffffffffffffffffffffffffffff1663ae89a24887878686866040518663ffffffff1660e01b8152600401611b2c959493929190612374565b602060405180830381600087803b158015611b4657600080fd5b505af1925050508015611b7757506040513d601f19601f82011682018060405250810190611b749190611edf565b60015b611c1d57611b83612a98565b806308c379a01415611be05750611b98612dc3565b80611ba35750611be2565b806040517f08c379a0000000000000000000000000000000000000000000000000000000008152600401611bd7919061240b565b60405180910390fd5b505b6040517f08c379a0000000000000000000000000000000000000000000000000000000008152600401611c149061242d565b60405180910390fd5b63ae89a24860e01b7bffffffffffffffffffffffffffffffffffffffffffffffffffffffff1916817bffffffffffffffffffffffffffffffffffffffffffffffffffffffff191614611ca4576040517f08c379a0000000000000000000000000000000000000000000000000000000008152600401611c9b9061244d565b60405180910390fd5b505b505050505050565b600080823b905060008111915050919050565b828054611ccd90612890565b90600052602060002090601f016020900481019282611cef5760008555611d36565b82601f10611d0857805160ff1916838001178555611d36565b82800160010185558215611d36579182015b82811115611d35578251825591602001919060010190611d1a565b5b509050611d439190611dd4565b5090565b828054611d5390612890565b90600052602060002090601f016020900481019282611d755760008555611dc3565b82601f10611d865780548555611dc3565b82800160010185558215611dc357600052602060002091601f016020900482015b82811115611dc2578254825591600101919060010190611da7565b5b509050611dd09190611dd4565b5090565b5b80821115611ded576000816000905550600101611dd5565b5090565b600081359050611e0081612e59565b92915050565b600081359050611e1581612e70565b92915050565b600081519050611e2a81612e87565b92915050565b600081359050611e3f81612e9e565b92915050565b600060208284031215611e5b57611e5a612aba565b5b6000611e6984828501611df1565b91505092915050565b600060208284031215611e8857611e87612aba565b5b6000611e9684828501611e06565b91505092915050565b60008060408385031215611eb657611eb5612aba565b5b6000611ec485828601611df1565b9250506020611ed585828601611e30565b9150509250929050565b600060208284031215611ef557611ef4612aba565b5b6000611f0384828501611e1b565b91505092915050565b600060208284031215611f2257611f21612aba565b5b6000611f3084828501611e30565b91505092915050565b6000611f458383612281565b60208301905092915050565b611f5a816127e9565b82525050565b611f71611f6c826127e9565b61294e565b82525050565b611f80816127d7565b82525050565b611f97611f92826127d7565b61293c565b82525050565b6000611fa882612672565b611fb28185612695565b9350611fbd83612662565b8060005b83811015611fee578151611fd58882611f39565b9750611fe083612688565b925050600181019050611fc1565b5085935050505092915050565b612004816127fb565b82525050565b60006120158261267d565b61201f81856126a6565b935061202f81856020860161285d565b61203881612abf565b840191505092915050565b600061204e8261267d565b61205881856126b7565b935061206881856020860161285d565b80840191505092915050565b60006120816034836126a6565b915061208c82612aea565b604082019050919050565b60006120a46028836126a6565b91506120af82612b39565b604082019050919050565b60006120c76008836126b7565b91506120d282612b88565b600882019050919050565b60006120ea6010836126a6565b91506120f582612bb1565b602082019050919050565b600061210d6005836126b7565b915061211882612bda565b600582019050919050565b60006121306012836126a6565b915061213b82612c03565b602082019050919050565b6000612153601b836126a6565b915061215e82612c2c565b602082019050919050565b6000612176601b836126a6565b915061218182612c55565b602082019050919050565b60006121996015836126a6565b91506121a482612c7e565b602082019050919050565b60006121bc601c836126a6565b91506121c782612ca7565b602082019050919050565b60006121df601b836126a6565b91506121ea82612cd0565b602082019050919050565b60006122026019836126a6565b915061220d82612cf9565b602082019050919050565b60006122256007836126b7565b915061223082612d22565b600782019050919050565b6000612248601d836126a6565b915061225382612d4b565b602082019050919050565b600061226b6021836126a6565b915061227682612d74565b604082019050919050565b61228a81612853565b82525050565b61229981612853565b82525050565b6122b06122ab82612853565b612972565b82525050565b60006122c1826120ba565b91506122cd8284612043565b915081905092915050565b60006122e382612100565b91506122ef8284612043565b915081905092915050565b600061230582612218565b91506123118284612043565b915081905092915050565b6000612328828661229f565b6020820191506123388285611f86565b6014820191506123488284611f60565b601482019150819050949350505050565b600060208201905061236e6000830184611f51565b92915050565b600060a0820190506123896000830188611f77565b6123966020830187611f77565b6123a36040830186612290565b6123b06060830185612290565b81810360808301526123c2818461200a565b90509695505050505050565b600060208201905081810360008301526123e88184611f9d565b905092915050565b60006020820190506124056000830184611ffb565b92915050565b60006020820190508181036000830152612425818461200a565b905092915050565b6000602082019050818103600083015261244681612074565b9050919050565b6000602082019050818103600083015261246681612097565b9050919050565b60006020820190508181036000830152612486816120dd565b9050919050565b600060208201905081810360008301526124a681612123565b9050919050565b600060208201905081810360008301526124c681612146565b9050919050565b600060208201905081810360008301526124e681612169565b9050919050565b600060208201905081810360008301526125068161218c565b9050919050565b60006020820190508181036000830152612526816121af565b9050919050565b60006020820190508181036000830152612546816121d2565b9050919050565b60006020820190508181036000830152612566816121f5565b9050919050565b600060208201905081810360008301526125868161223b565b9050919050565b600060208201905081810360008301526125a68161225e565b9050919050565b60006020820190506125c26000830184612290565b92915050565b60006040820190506125dd6000830185612290565b81810360208301526125ef818461200a565b90509392505050565b600060408201905061260d6000830185612290565b61261a6020830184612290565b9392505050565b60006060820190506126366000830186612290565b6126436020830185612290565b6126506040830184612290565b949350505050565b6000604051905090565b6000819050602082019050919050565b600081519050919050565b600081519050919050565b6000602082019050919050565b600082825260208201905092915050565b600082825260208201905092915050565b600081905092915050565b60006126cd82612853565b91506126d883612853565b9250827fffffffffffffffffffffffffffffffffffffffffffffffffffffffffffffffff0382111561270d5761270c6129ad565b5b828201905092915050565b600061272382612853565b915061272e83612853565b92508261273e5761273d6129dc565b5b828204905092915050565b600061275482612853565b915061275f83612853565b9250817fffffffffffffffffffffffffffffffffffffffffffffffffffffffffffffffff0483118215151615612798576127976129ad565b5b828202905092915050565b60006127ae82612853565b91506127b983612853565b9250828210156127cc576127cb6129ad565b5b828203905092915050565b60006127e282612833565b9050919050565b60006127f482612833565b9050919050565b60008115159050919050565b60007fffffffff0000000000000000000000000000000000000000000000000000000082169050919050565b600073ffffffffffffffffffffffffffffffffffffffff82169050919050565b6000819050919050565b60005b8381101561287b578082015181840152602081019050612860565b8381111561288a576000848401525b50505050565b600060028204905060018216806128a857607f821691505b602082108114156128bc576128bb612a0b565b5b50919050565b6128cb82612abf565b810181811067ffffffffffffffff821117156128ea576128e9612a69565b5b80604052505050565b60006128fe82612853565b91507fffffffffffffffffffffffffffffffffffffffffffffffffffffffffffffffff821415612931576129306129ad565b5b600182019050919050565b600061294782612960565b9050919050565b600061295982612960565b9050919050565b600061296b82612ad0565b9050919050565b6000819050919050565b600061298782612853565b915061299283612853565b9250826129a2576129a16129dc565b5b828206905092915050565b7f4e487b7100000000000000000000000000000000000000000000000000000000600052601160045260246000fd5b7f4e487b7100000000000000000000000000000000000000000000000000000000600052601260045260246000fd5b7f4e487b7100000000000000000000000000000000000000000000000000000000600052602260045260246000fd5b7f4e487b7100000000000000000000000000000000000000000000000000000000600052603260045260246000fd5b7f4e487b7100000000000000000000000000000000000000000000000000000000600052604160045260246000fd5b600060033d1115612ab75760046000803e612ab4600051612add565b90505b90565b600080fd5b6000601f19601f8301169050919050565b60008160601b9050919050565b60008160e01c9050919050565b7f455243313135353a207472616e7366657220746f206e6f6e204552433131353560008201527f526563656976657220696d706c656d656e746572000000000000000000000000602082015250565b7f455243313135353a204552433131353552656365697665722072656a6563746560008201527f6420746f6b656e73000000000000000000000000000000000000000000000000602082015250565b7f4469616d6f6e645f000000000000000000000000000000000000000000000000600082015250565b7f4d696e7420466565204e6f742053657400000000000000000000000000000000600082015250565b7f476f6c645f000000000000000000000000000000000000000000000000000000600082015250565b7f4e6f7420456e6f7567682042616c616e63650000000000000000000000000000600082015250565b7f44726f707369746520697320616c72656164792052756e6e696e670000000000600082015250565b7f44726f707369746520697320616c72656164792053746f707065640000000000600082015250565b7f596f752063616e206d696e7420312d33204e4654730000000000000000000000600082015250565b7f4f6e6c79204e46542d4553204f776e65722063616e2041636365737300000000600082015250565b7f44726f7073697465206973206e6f74204f70656e6564205965742e0000000000600082015250565b7f4d6178204d696e74696e67204c696d6974207265616368656400000000000000600082015250565b7f53696c7665725f00000000000000000000000000000000000000000000000000600082015250565b7f4572726f7221204e6f2042616c616e636520746f207769746864726177000000600082015250565b7f455243313135353a206d696e7420746f20746865207a65726f2061646472657360008201527f7300000000000000000000000000000000000000000000000000000000000000602082015250565b600060443d1015612dd357612e56565b612ddb612658565b60043d036004823e80513d602482011167ffffffffffffffff82111715612e03575050612e56565b808201805167ffffffffffffffff811115612e215750505050612e56565b80602083010160043d038501811115612e3e575050505050612e56565b612e4d826020018501866128c2565b82955050505050505b90565b612e62816127d7565b8114612e6d57600080fd5b50565b612e79816127e9565b8114612e8457600080fd5b50565b612e9081612807565b8114612e9b57600080fd5b50565b612ea781612853565b8114612eb257600080fd5b5056fea2646970667358221220f53e4b2bbd8e2e67b30cc4d4c3912c776b73b409d66b260351f040aeb9807a4b64736f6c63430008070033",
					"opcodes": "PUSH1 0x80 PUSH1 0x40 MSTORE PUSH1 0x40 MLOAD DUP1 PUSH1 0x20 ADD PUSH1 0x40 MSTORE DUP1 PUSH1 0x0 DUP2 MSTORE POP PUSH1 0x2 SWAP1 DUP1 MLOAD SWAP1 PUSH1 0x20 ADD SWAP1 PUSH3 0x2B SWAP3 SWAP2 SWAP1 PUSH3 0x1E8 JUMP JUMPDEST POP PUSH1 0x40 MLOAD DUP1 PUSH2 0x280 ADD PUSH1 0x40 MSTORE DUP1 PUSH1 0x0 PUSH1 0xFF AND DUP2 MSTORE PUSH1 0x20 ADD PUSH1 0x1 PUSH1 0xFF AND DUP2 MSTORE PUSH1 0x20 ADD PUSH1 0x1 PUSH1 0xFF AND DUP2 MSTORE PUSH1 0x20 ADD PUSH1 0x2 PUSH1 0xFF AND DUP2 MSTORE PUSH1 0x20 ADD PUSH1 0x2 PUSH1 0xFF AND DUP2 MSTORE PUSH1 0x20 ADD PUSH1 0x2 PUSH1 0xFF AND DUP2 MSTORE PUSH1 0x20 ADD PUSH1 0x2 PUSH1 0xFF AND DUP2 MSTORE PUSH1 0x20 ADD PUSH1 0x2 PUSH1 0xFF AND DUP2 MSTORE PUSH1 0x20 ADD PUSH1 0x2 PUSH1 0xFF AND DUP2 MSTORE PUSH1 0x20 ADD PUSH1 0x2 PUSH1 0xFF AND DUP2 MSTORE PUSH1 0x20 ADD PUSH1 0x2 PUSH1 0xFF AND DUP2 MSTORE PUSH1 0x20 ADD PUSH1 0x2 PUSH1 0xFF AND DUP2 MSTORE PUSH1 0x20 ADD PUSH1 0x2 PUSH1 0xFF AND DUP2 MSTORE PUSH1 0x20 ADD PUSH1 0x2 PUSH1 0xFF AND DUP2 MSTORE PUSH1 0x20 ADD PUSH1 0x2 PUSH1 0xFF AND DUP2 MSTORE PUSH1 0x20 ADD PUSH1 0x2 PUSH1 0xFF AND DUP2 MSTORE PUSH1 0x20 ADD PUSH1 0x2 PUSH1 0xFF AND DUP2 MSTORE PUSH1 0x20 ADD PUSH1 0x2 PUSH1 0xFF AND DUP2 MSTORE PUSH1 0x20 ADD PUSH1 0x2 PUSH1 0xFF AND DUP2 MSTORE PUSH1 0x20 ADD PUSH1 0x2 PUSH1 0xFF AND DUP2 MSTORE POP PUSH1 0x3 SWAP1 PUSH1 0x14 PUSH3 0x110 SWAP3 SWAP2 SWAP1 PUSH3 0x279 JUMP JUMPDEST POP PUSH1 0x1 PUSH1 0xC PUSH1 0x0 PUSH2 0x100 EXP DUP2 SLOAD DUP2 PUSH1 0xFF MUL NOT AND SWAP1 DUP4 ISZERO ISZERO MUL OR SWAP1 SSTORE POP CALLVALUE DUP1 ISZERO PUSH3 0x139 JUMPI PUSH1 0x0 DUP1 REVERT JUMPDEST POP PUSH1 0x40 MLOAD PUSH3 0x3487 CODESIZE SUB DUP1 PUSH3 0x3487 DUP4 CODECOPY DUP2 DUP2 ADD PUSH1 0x40 MSTORE DUP2 ADD SWAP1 PUSH3 0x15F SWAP2 SWAP1 PUSH3 0x3B7 JUMP JUMPDEST DUP1 PUSH1 0xD SWAP1 DUP1 MLOAD SWAP1 PUSH1 0x20 ADD SWAP1 PUSH3 0x177 SWAP3 SWAP2 SWAP1 PUSH3 0x1E8 JUMP JUMPDEST POP CALLER PUSH1 0xC PUSH1 0x1 PUSH2 0x100 EXP DUP2 SLOAD DUP2 PUSH20 0xFFFFFFFFFFFFFFFFFFFFFFFFFFFFFFFFFFFFFFFF MUL NOT AND SWAP1 DUP4 PUSH20 0xFFFFFFFFFFFFFFFFFFFFFFFFFFFFFFFFFFFFFFFF AND MUL OR SWAP1 SSTORE POP PUSH1 0x0 PUSH1 0x4 DUP2 SWAP1 SSTORE POP PUSH1 0x1 PUSH1 0x5 DUP2 SWAP1 SSTORE POP PUSH1 0x0 PUSH1 0x7 DUP2 SWAP1 SSTORE POP PUSH1 0x0 PUSH1 0x8 DUP2 SWAP1 SSTORE POP PUSH1 0x0 PUSH1 0x9 DUP2 SWAP1 SSTORE POP POP PUSH3 0x58C JUMP JUMPDEST DUP3 DUP1 SLOAD PUSH3 0x1F6 SWAP1 PUSH3 0x49D JUMP JUMPDEST SWAP1 PUSH1 0x0 MSTORE PUSH1 0x20 PUSH1 0x0 KECCAK256 SWAP1 PUSH1 0x1F ADD PUSH1 0x20 SWAP1 DIV DUP2 ADD SWAP3 DUP3 PUSH3 0x21A JUMPI PUSH1 0x0 DUP6 SSTORE PUSH3 0x266 JUMP JUMPDEST DUP3 PUSH1 0x1F LT PUSH3 0x235 JUMPI DUP1 MLOAD PUSH1 0xFF NOT AND DUP4 DUP1 ADD OR DUP6 SSTORE PUSH3 0x266 JUMP JUMPDEST DUP3 DUP1 ADD PUSH1 0x1 ADD DUP6 SSTORE DUP3 ISZERO PUSH3 0x266 JUMPI SWAP2 DUP3 ADD JUMPDEST DUP3 DUP2 GT ISZERO PUSH3 0x265 JUMPI DUP3 MLOAD DUP3 SSTORE SWAP2 PUSH1 0x20 ADD SWAP2 SWAP1 PUSH1 0x1 ADD SWAP1 PUSH3 0x248 JUMP JUMPDEST JUMPDEST POP SWAP1 POP PUSH3 0x275 SWAP2 SWAP1 PUSH3 0x31A JUMP JUMPDEST POP SWAP1 JUMP JUMPDEST DUP3 PUSH1 0x14 PUSH1 0x1F ADD PUSH1 0x20 SWAP1 DIV DUP2 ADD SWAP3 DUP3 ISZERO PUSH3 0x307 JUMPI SWAP2 PUSH1 0x20 MUL DUP3 ADD PUSH1 0x0 JUMPDEST DUP4 DUP3 GT ISZERO PUSH3 0x2D6 JUMPI DUP4 MLOAD DUP4 DUP3 PUSH2 0x100 EXP DUP2 SLOAD DUP2 PUSH1 0xFF MUL NOT AND SWAP1 DUP4 PUSH1 0xFF AND MUL OR SWAP1 SSTORE POP SWAP3 PUSH1 0x20 ADD SWAP3 PUSH1 0x1 ADD PUSH1 0x20 DUP2 PUSH1 0x0 ADD DIV SWAP3 DUP4 ADD SWAP3 PUSH1 0x1 SUB MUL PUSH3 0x296 JUMP JUMPDEST DUP1 ISZERO PUSH3 0x305 JUMPI DUP3 DUP2 PUSH2 0x100 EXP DUP2 SLOAD SWAP1 PUSH1 0xFF MUL NOT AND SWAP1 SSTORE PUSH1 0x1 ADD PUSH1 0x20 DUP2 PUSH1 0x0 ADD DIV SWAP3 DUP4 ADD SWAP3 PUSH1 0x1 SUB MUL PUSH3 0x2D6 JUMP JUMPDEST POP JUMPDEST POP SWAP1 POP PUSH3 0x316 SWAP2 SWAP1 PUSH3 0x31A JUMP JUMPDEST POP SWAP1 JUMP JUMPDEST JUMPDEST DUP1 DUP3 GT ISZERO PUSH3 0x335 JUMPI PUSH1 0x0 DUP2 PUSH1 0x0 SWAP1 SSTORE POP PUSH1 0x1 ADD PUSH3 0x31B JUMP JUMPDEST POP SWAP1 JUMP JUMPDEST PUSH1 0x0 PUSH3 0x350 PUSH3 0x34A DUP5 PUSH3 0x431 JUMP JUMPDEST PUSH3 0x408 JUMP JUMPDEST SWAP1 POP DUP3 DUP2 MSTORE PUSH1 0x20 DUP2 ADD DUP5 DUP5 DUP5 ADD GT ISZERO PUSH3 0x36F JUMPI PUSH3 0x36E PUSH3 0x56C JUMP JUMPDEST JUMPDEST PUSH3 0x37C DUP5 DUP3 DUP6 PUSH3 0x467 JUMP JUMPDEST POP SWAP4 SWAP3 POP POP POP JUMP JUMPDEST PUSH1 0x0 DUP3 PUSH1 0x1F DUP4 ADD SLT PUSH3 0x39C JUMPI PUSH3 0x39B PUSH3 0x567 JUMP JUMPDEST JUMPDEST DUP2 MLOAD PUSH3 0x3AE DUP5 DUP3 PUSH1 0x20 DUP7 ADD PUSH3 0x339 JUMP JUMPDEST SWAP2 POP POP SWAP3 SWAP2 POP POP JUMP JUMPDEST PUSH1 0x0 PUSH1 0x20 DUP3 DUP5 SUB SLT ISZERO PUSH3 0x3D0 JUMPI PUSH3 0x3CF PUSH3 0x576 JUMP JUMPDEST JUMPDEST PUSH1 0x0 DUP3 ADD MLOAD PUSH8 0xFFFFFFFFFFFFFFFF DUP2 GT ISZERO PUSH3 0x3F1 JUMPI PUSH3 0x3F0 PUSH3 0x571 JUMP JUMPDEST JUMPDEST PUSH3 0x3FF DUP5 DUP3 DUP6 ADD PUSH3 0x384 JUMP JUMPDEST SWAP2 POP POP SWAP3 SWAP2 POP POP JUMP JUMPDEST PUSH1 0x0 PUSH3 0x414 PUSH3 0x427 JUMP JUMPDEST SWAP1 POP PUSH3 0x422 DUP3 DUP3 PUSH3 0x4D3 JUMP JUMPDEST SWAP2 SWAP1 POP JUMP JUMPDEST PUSH1 0x0 PUSH1 0x40 MLOAD SWAP1 POP SWAP1 JUMP JUMPDEST PUSH1 0x0 PUSH8 0xFFFFFFFFFFFFFFFF DUP3 GT ISZERO PUSH3 0x44F JUMPI PUSH3 0x44E PUSH3 0x538 JUMP JUMPDEST JUMPDEST PUSH3 0x45A DUP3 PUSH3 0x57B JUMP JUMPDEST SWAP1 POP PUSH1 0x20 DUP2 ADD SWAP1 POP SWAP2 SWAP1 POP JUMP JUMPDEST PUSH1 0x0 JUMPDEST DUP4 DUP2 LT ISZERO PUSH3 0x487 JUMPI DUP1 DUP3 ADD MLOAD DUP2 DUP5 ADD MSTORE PUSH1 0x20 DUP2 ADD SWAP1 POP PUSH3 0x46A JUMP JUMPDEST DUP4 DUP2 GT ISZERO PUSH3 0x497 JUMPI PUSH1 0x0 DUP5 DUP5 ADD MSTORE JUMPDEST POP POP POP POP JUMP JUMPDEST PUSH1 0x0 PUSH1 0x2 DUP3 DIV SWAP1 POP PUSH1 0x1 DUP3 AND DUP1 PUSH3 0x4B6 JUMPI PUSH1 0x7F DUP3 AND SWAP2 POP JUMPDEST PUSH1 0x20 DUP3 LT DUP2 EQ ISZERO PUSH3 0x4CD JUMPI PUSH3 0x4CC PUSH3 0x509 JUMP JUMPDEST JUMPDEST POP SWAP2 SWAP1 POP JUMP JUMPDEST PUSH3 0x4DE DUP3 PUSH3 0x57B JUMP JUMPDEST DUP2 ADD DUP2 DUP2 LT PUSH8 0xFFFFFFFFFFFFFFFF DUP3 GT OR ISZERO PUSH3 0x500 JUMPI PUSH3 0x4FF PUSH3 0x538 JUMP JUMPDEST JUMPDEST DUP1 PUSH1 0x40 MSTORE POP POP POP JUMP JUMPDEST PUSH32 0x4E487B7100000000000000000000000000000000000000000000000000000000 PUSH1 0x0 MSTORE PUSH1 0x22 PUSH1 0x4 MSTORE PUSH1 0x24 PUSH1 0x0 REVERT JUMPDEST PUSH32 0x4E487B7100000000000000000000000000000000000000000000000000000000 PUSH1 0x0 MSTORE PUSH1 0x41 PUSH1 0x4 MSTORE PUSH1 0x24 PUSH1 0x0 REVERT JUMPDEST PUSH1 0x0 DUP1 REVERT JUMPDEST PUSH1 0x0 DUP1 REVERT JUMPDEST PUSH1 0x0 DUP1 REVERT JUMPDEST PUSH1 0x0 DUP1 REVERT JUMPDEST PUSH1 0x0 PUSH1 0x1F NOT PUSH1 0x1F DUP4 ADD AND SWAP1 POP SWAP2 SWAP1 POP JUMP JUMPDEST PUSH2 0x2EEB DUP1 PUSH3 0x59C PUSH1 0x0 CODECOPY PUSH1 0x0 RETURN INVALID PUSH1 0x80 PUSH1 0x40 MSTORE PUSH1 0x4 CALLDATASIZE LT PUSH2 0xDD JUMPI PUSH1 0x0 CALLDATALOAD PUSH1 0xE0 SHR DUP1 PUSH4 0x60DAA851 GT PUSH2 0x7F JUMPI DUP1 PUSH4 0xB187BD26 GT PUSH2 0x59 JUMPI DUP1 PUSH4 0xB187BD26 EQ PUSH2 0x278 JUMPI DUP1 PUSH4 0xB4A99A4E EQ PUSH2 0x2A3 JUMPI DUP1 PUSH4 0xEDDD0D9C EQ PUSH2 0x2CE JUMPI DUP1 PUSH4 0xFD6C3B1B EQ PUSH2 0x2F7 JUMPI PUSH2 0xDD JUMP JUMPDEST DUP1 PUSH4 0x60DAA851 EQ PUSH2 0x209 JUMPI DUP1 PUSH4 0x7A5CAAB3 EQ PUSH2 0x236 JUMPI DUP1 PUSH4 0xAA90C726 EQ PUSH2 0x261 JUMPI PUSH2 0xDD JUMP JUMPDEST DUP1 PUSH4 0x27A8A072 GT PUSH2 0xBB JUMPI DUP1 PUSH4 0x27A8A072 EQ PUSH2 0x140 JUMPI DUP1 PUSH4 0x3B668059 EQ PUSH2 0x17D JUMPI DUP1 PUSH4 0x546FD992 EQ PUSH2 0x1A8 JUMPI DUP1 PUSH4 0x59BA3124 EQ PUSH2 0x1D9 JUMPI PUSH2 0xDD JUMP JUMPDEST DUP1 PUSH4 0x390C11C EQ PUSH2 0xE2 JUMPI DUP1 PUSH4 0xA67D2C7 EQ PUSH2 0x10D JUMPI DUP1 PUSH4 0x15460259 EQ PUSH2 0x129 JUMPI JUMPDEST PUSH1 0x0 DUP1 REVERT JUMPDEST CALLVALUE DUP1 ISZERO PUSH2 0xEE JUMPI PUSH1 0x0 DUP1 REVERT JUMPDEST POP PUSH2 0xF7 PUSH2 0x334 JUMP JUMPDEST PUSH1 0x40 MLOAD PUSH2 0x104 SWAP2 SWAP1 PUSH2 0x25AD JUMP JUMPDEST PUSH1 0x40 MLOAD DUP1 SWAP2 SUB SWAP1 RETURN JUMPDEST PUSH2 0x127 PUSH1 0x4 DUP1 CALLDATASIZE SUB DUP2 ADD SWAP1 PUSH2 0x122 SWAP2 SWAP1 PUSH2 0x1E72 JUMP JUMPDEST PUSH2 0x3D5 JUMP JUMPDEST STOP JUMPDEST CALLVALUE DUP1 ISZERO PUSH2 0x135 JUMPI PUSH1 0x0 DUP1 REVERT JUMPDEST POP PUSH2 0x13E PUSH2 0x4FF JUMP JUMPDEST STOP JUMPDEST CALLVALUE DUP1 ISZERO PUSH2 0x14C JUMPI PUSH1 0x0 DUP1 REVERT JUMPDEST POP PUSH2 0x167 PUSH1 0x4 DUP1 CALLDATASIZE SUB DUP2 ADD SWAP1 PUSH2 0x162 SWAP2 SWAP1 PUSH2 0x1E9F JUMP JUMPDEST PUSH2 0x609 JUMP JUMPDEST PUSH1 0x40 MLOAD PUSH2 0x174 SWAP2 SWAP1 PUSH2 0x23CE JUMP JUMPDEST PUSH1 0x40 MLOAD DUP1 SWAP2 SUB SWAP1 RETURN JUMPDEST CALLVALUE DUP1 ISZERO PUSH2 0x189 JUMPI PUSH1 0x0 DUP1 REVERT JUMPDEST POP PUSH2 0x192 PUSH2 0x896 JUMP JUMPDEST PUSH1 0x40 MLOAD PUSH2 0x19F SWAP2 SWAP1 PUSH2 0x25AD JUMP JUMPDEST PUSH1 0x40 MLOAD DUP1 SWAP2 SUB SWAP1 RETURN JUMPDEST PUSH2 0x1C2 PUSH1 0x4 DUP1 CALLDATASIZE SUB DUP2 ADD SWAP1 PUSH2 0x1BD SWAP2 SWAP1 PUSH2 0x1E45 JUMP JUMPDEST PUSH2 0x935 JUMP JUMPDEST PUSH1 0x40 MLOAD PUSH2 0x1D0 SWAP3 SWAP2 SWAP1 PUSH2 0x25C8 JUMP JUMPDEST PUSH1 0x40 MLOAD DUP1 SWAP2 SUB SWAP1 RETURN JUMPDEST PUSH2 0x1F3 PUSH1 0x4 DUP1 CALLDATASIZE SUB DUP2 ADD SWAP1 PUSH2 0x1EE SWAP2 SWAP1 PUSH2 0x1E9F JUMP JUMPDEST PUSH2 0xBF2 JUMP JUMPDEST PUSH1 0x40 MLOAD PUSH2 0x200 SWAP2 SWAP1 PUSH2 0x23CE JUMP JUMPDEST PUSH1 0x40 MLOAD DUP1 SWAP2 SUB SWAP1 RETURN JUMPDEST CALLVALUE DUP1 ISZERO PUSH2 0x215 JUMPI PUSH1 0x0 DUP1 REVERT JUMPDEST POP PUSH2 0x21E PUSH2 0xE46 JUMP JUMPDEST PUSH1 0x40 MLOAD PUSH2 0x22D SWAP4 SWAP3 SWAP2 SWAP1 PUSH2 0x2621 JUMP JUMPDEST PUSH1 0x40 MLOAD DUP1 SWAP2 SUB SWAP1 RETURN JUMPDEST CALLVALUE DUP1 ISZERO PUSH2 0x242 JUMPI PUSH1 0x0 DUP1 REVERT JUMPDEST POP PUSH2 0x24B PUSH2 0xF4C JUMP JUMPDEST PUSH1 0x40 MLOAD PUSH2 0x258 SWAP2 SWAP1 PUSH2 0x25AD JUMP JUMPDEST PUSH1 0x40 MLOAD DUP1 SWAP2 SUB SWAP1 RETURN JUMPDEST CALLVALUE DUP1 ISZERO PUSH2 0x26D JUMPI PUSH1 0x0 DUP1 REVERT JUMPDEST POP PUSH2 0x276 PUSH2 0x1043 JUMP JUMPDEST STOP JUMPDEST CALLVALUE DUP1 ISZERO PUSH2 0x284 JUMPI PUSH1 0x0 DUP1 REVERT JUMPDEST POP PUSH2 0x28D PUSH2 0x114D JUMP JUMPDEST PUSH1 0x40 MLOAD PUSH2 0x29A SWAP2 SWAP1 PUSH2 0x23F0 JUMP JUMPDEST PUSH1 0x40 MLOAD DUP1 SWAP2 SUB SWAP1 RETURN JUMPDEST CALLVALUE DUP1 ISZERO PUSH2 0x2AF JUMPI PUSH1 0x0 DUP1 REVERT JUMPDEST POP PUSH2 0x2B8 PUSH2 0x1160 JUMP JUMPDEST PUSH1 0x40 MLOAD PUSH2 0x2C5 SWAP2 SWAP1 PUSH2 0x2359 JUMP JUMPDEST PUSH1 0x40 MLOAD DUP1 SWAP2 SUB SWAP1 RETURN JUMPDEST CALLVALUE DUP1 ISZERO PUSH2 0x2DA JUMPI PUSH1 0x0 DUP1 REVERT JUMPDEST POP PUSH2 0x2F5 PUSH1 0x4 DUP1 CALLDATASIZE SUB DUP2 ADD SWAP1 PUSH2 0x2F0 SWAP2 SWAP1 PUSH2 0x1F0C JUMP JUMPDEST PUSH2 0x1186 JUMP JUMPDEST STOP JUMPDEST CALLVALUE DUP1 ISZERO PUSH2 0x303 JUMPI PUSH1 0x0 DUP1 REVERT JUMPDEST POP PUSH2 0x31E PUSH1 0x4 DUP1 CALLDATASIZE SUB DUP2 ADD SWAP1 PUSH2 0x319 SWAP2 SWAP1 PUSH2 0x1E45 JUMP JUMPDEST PUSH2 0x127D JUMP JUMPDEST PUSH1 0x40 MLOAD PUSH2 0x32B SWAP2 SWAP1 PUSH2 0x23CE JUMP JUMPDEST PUSH1 0x40 MLOAD DUP1 SWAP2 SUB SWAP1 RETURN JUMPDEST PUSH1 0x0 PUSH1 0xC PUSH1 0x1 SWAP1 SLOAD SWAP1 PUSH2 0x100 EXP SWAP1 DIV PUSH20 0xFFFFFFFFFFFFFFFFFFFFFFFFFFFFFFFFFFFFFFFF AND PUSH20 0xFFFFFFFFFFFFFFFFFFFFFFFFFFFFFFFFFFFFFFFF AND PUSH2 0x377 PUSH2 0x136D JUMP JUMPDEST PUSH20 0xFFFFFFFFFFFFFFFFFFFFFFFFFFFFFFFFFFFFFFFF AND EQ PUSH2 0x3CD JUMPI PUSH1 0x40 MLOAD PUSH32 0x8C379A000000000000000000000000000000000000000000000000000000000 DUP2 MSTORE PUSH1 0x4 ADD PUSH2 0x3C4 SWAP1 PUSH2 0x250D JUMP JUMPDEST PUSH1 0x40 MLOAD DUP1 SWAP2 SUB SWAP1 REVERT JUMPDEST PUSH1 0x4 SLOAD SWAP1 POP SWAP1 JUMP JUMPDEST PUSH1 0xC PUSH1 0x1 SWAP1 SLOAD SWAP1 PUSH2 0x100 EXP SWAP1 DIV PUSH20 0xFFFFFFFFFFFFFFFFFFFFFFFFFFFFFFFFFFFFFFFF AND PUSH20 0xFFFFFFFFFFFFFFFFFFFFFFFFFFFFFFFFFFFFFFFF AND PUSH2 0x416 PUSH2 0x136D JUMP JUMPDEST PUSH20 0xFFFFFFFFFFFFFFFFFFFFFFFFFFFFFFFFFFFFFFFF AND EQ PUSH2 0x46C JUMPI PUSH1 0x40 MLOAD PUSH32 0x8C379A000000000000000000000000000000000000000000000000000000000 DUP2 MSTORE PUSH1 0x4 ADD PUSH2 0x463 SWAP1 PUSH2 0x250D JUMP JUMPDEST PUSH1 0x40 MLOAD DUP1 SWAP2 SUB SWAP1 REVERT JUMPDEST PUSH1 0x0 SELFBALANCE SWAP1 POP PUSH1 0x0 DUP2 GT PUSH2 0x4B4 JUMPI PUSH1 0x40 MLOAD PUSH32 0x8C379A000000000000000000000000000000000000000000000000000000000 DUP2 MSTORE PUSH1 0x4 ADD PUSH2 0x4AB SWAP1 PUSH2 0x256D JUMP JUMPDEST PUSH1 0x40 MLOAD DUP1 SWAP2 SUB SWAP1 REVERT JUMPDEST DUP2 PUSH20 0xFFFFFFFFFFFFFFFFFFFFFFFFFFFFFFFFFFFFFFFF AND PUSH2 0x8FC DUP3 SWAP1 DUP2 ISZERO MUL SWAP1 PUSH1 0x40 MLOAD PUSH1 0x0 PUSH1 0x40 MLOAD DUP1 DUP4 SUB DUP2 DUP6 DUP9 DUP9 CALL SWAP4 POP POP POP POP ISZERO DUP1 ISZERO PUSH2 0x4FA JUMPI RETURNDATASIZE PUSH1 0x0 DUP1 RETURNDATACOPY RETURNDATASIZE PUSH1 0x0 REVERT JUMPDEST POP POP POP JUMP JUMPDEST PUSH1 0xC PUSH1 0x1 SWAP1 SLOAD SWAP1 PUSH2 0x100 EXP SWAP1 DIV PUSH20 0xFFFFFFFFFFFFFFFFFFFFFFFFFFFFFFFFFFFFFFFF AND PUSH20 0xFFFFFFFFFFFFFFFFFFFFFFFFFFFFFFFFFFFFFFFF AND PUSH2 0x540 PUSH2 0x136D JUMP JUMPDEST PUSH20 0xFFFFFFFFFFFFFFFFFFFFFFFFFFFFFFFFFFFFFFFF AND EQ PUSH2 0x596 JUMPI PUSH1 0x40 MLOAD PUSH32 0x8C379A000000000000000000000000000000000000000000000000000000000 DUP2 MSTORE PUSH1 0x4 ADD PUSH2 0x58D SWAP1 PUSH2 0x250D JUMP JUMPDEST PUSH1 0x40 MLOAD DUP1 SWAP2 SUB SWAP1 REVERT JUMPDEST PUSH1 0x1 ISZERO ISZERO PUSH1 0xC PUSH1 0x0 SWAP1 SLOAD SWAP1 PUSH2 0x100 EXP SWAP1 DIV PUSH1 0xFF AND ISZERO ISZERO EQ PUSH2 0x5EC JUMPI PUSH1 0x40 MLOAD PUSH32 0x8C379A000000000000000000000000000000000000000000000000000000000 DUP2 MSTORE PUSH1 0x4 ADD PUSH2 0x5E3 SWAP1 PUSH2 0x24AD JUMP JUMPDEST PUSH1 0x40 MLOAD DUP1 SWAP2 SUB SWAP1 REVERT JUMPDEST PUSH1 0x0 PUSH1 0xC PUSH1 0x0 PUSH2 0x100 EXP DUP2 SLOAD DUP2 PUSH1 0xFF MUL NOT AND SWAP1 DUP4 ISZERO ISZERO MUL OR SWAP1 SSTORE POP JUMP JUMPDEST PUSH1 0x60 PUSH1 0xC PUSH1 0x1 SWAP1 SLOAD SWAP1 PUSH2 0x100 EXP SWAP1 DIV PUSH20 0xFFFFFFFFFFFFFFFFFFFFFFFFFFFFFFFFFFFFFFFF AND PUSH20 0xFFFFFFFFFFFFFFFFFFFFFFFFFFFFFFFFFFFFFFFF AND PUSH2 0x64C PUSH2 0x136D JUMP JUMPDEST PUSH20 0xFFFFFFFFFFFFFFFFFFFFFFFFFFFFFFFFFFFFFFFF AND EQ PUSH2 0x6A2 JUMPI PUSH1 0x40 MLOAD PUSH32 0x8C379A000000000000000000000000000000000000000000000000000000000 DUP2 MSTORE PUSH1 0x4 ADD PUSH2 0x699 SWAP1 PUSH2 0x250D JUMP JUMPDEST PUSH1 0x40 MLOAD DUP1 SWAP2 SUB SWAP1 REVERT JUMPDEST PUSH1 0x0 ISZERO ISZERO PUSH1 0xC PUSH1 0x0 SWAP1 SLOAD SWAP1 PUSH2 0x100 EXP SWAP1 DIV PUSH1 0xFF AND ISZERO ISZERO EQ PUSH2 0x6F8 JUMPI PUSH1 0x40 MLOAD PUSH32 0x8C379A000000000000000000000000000000000000000000000000000000000 DUP2 MSTORE PUSH1 0x4 ADD PUSH2 0x6EF SWAP1 PUSH2 0x252D JUMP JUMPDEST PUSH1 0x40 MLOAD DUP1 SWAP2 SUB SWAP1 REVERT JUMPDEST PUSH1 0x4 DUP3 LT DUP1 ISZERO PUSH2 0x708 JUMPI POP PUSH1 0x0 DUP3 GT JUMPDEST PUSH2 0x747 JUMPI PUSH1 0x40 MLOAD PUSH32 0x8C379A000000000000000000000000000000000000000000000000000000000 DUP2 MSTORE PUSH1 0x4 ADD PUSH2 0x73E SWAP1 PUSH2 0x24ED JUMP JUMPDEST PUSH1 0x40 MLOAD DUP1 SWAP2 SUB SWAP1 REVERT JUMPDEST PUSH2 0x3E8 PUSH1 0x4 SLOAD LT PUSH2 0x78D JUMPI PUSH1 0x40 MLOAD PUSH32 0x8C379A000000000000000000000000000000000000000000000000000000000 DUP2 MSTORE PUSH1 0x4 ADD PUSH2 0x784 SWAP1 PUSH2 0x254D JUMP JUMPDEST PUSH1 0x40 MLOAD DUP1 SWAP2 SUB SWAP1 REVERT JUMPDEST PUSH1 0x0 PUSH1 0x6 SLOAD EQ ISZERO PUSH2 0x7D3 JUMPI PUSH1 0x40 MLOAD PUSH32 0x8C379A000000000000000000000000000000000000000000000000000000000 DUP2 MSTORE PUSH1 0x4 ADD PUSH2 0x7CA SWAP1 PUSH2 0x246D JUMP JUMPDEST PUSH1 0x40 MLOAD DUP1 SWAP2 SUB SWAP1 REVERT JUMPDEST PUSH1 0x0 JUMPDEST DUP3 DUP2 LT ISZERO PUSH2 0x7FC JUMPI PUSH2 0x7E7 DUP5 PUSH2 0x935 JUMP JUMPDEST POP POP DUP1 DUP1 PUSH2 0x7F4 SWAP1 PUSH2 0x28F3 JUMP JUMPDEST SWAP2 POP POP PUSH2 0x7D6 JUMP JUMPDEST POP PUSH1 0xA PUSH1 0x0 DUP5 PUSH20 0xFFFFFFFFFFFFFFFFFFFFFFFFFFFFFFFFFFFFFFFF AND PUSH20 0xFFFFFFFFFFFFFFFFFFFFFFFFFFFFFFFFFFFFFFFF AND DUP2 MSTORE PUSH1 0x20 ADD SWAP1 DUP2 MSTORE PUSH1 0x20 ADD PUSH1 0x0 KECCAK256 PUSH1 0x0 ADD DUP1 SLOAD DUP1 PUSH1 0x20 MUL PUSH1 0x20 ADD PUSH1 0x40 MLOAD SWAP1 DUP2 ADD PUSH1 0x40 MSTORE DUP1 SWAP3 SWAP2 SWAP1 DUP2 DUP2 MSTORE PUSH1 0x20 ADD DUP3 DUP1 SLOAD DUP1 ISZERO PUSH2 0x889 JUMPI PUSH1 0x20 MUL DUP3 ADD SWAP2 SWAP1 PUSH1 0x0 MSTORE PUSH1 0x20 PUSH1 0x0 KECCAK256 SWAP1 JUMPDEST DUP2 SLOAD DUP2 MSTORE PUSH1 0x20 ADD SWAP1 PUSH1 0x1 ADD SWAP1 DUP1 DUP4 GT PUSH2 0x875 JUMPI JUMPDEST POP POP POP POP POP SWAP1 POP SWAP3 SWAP2 POP POP JUMP JUMPDEST PUSH1 0x0 PUSH1 0xC PUSH1 0x1 SWAP1 SLOAD SWAP1 PUSH2 0x100 EXP SWAP1 DIV PUSH20 0xFFFFFFFFFFFFFFFFFFFFFFFFFFFFFFFFFFFFFFFF AND PUSH20 0xFFFFFFFFFFFFFFFFFFFFFFFFFFFFFFFFFFFFFFFF AND PUSH2 0x8D9 PUSH2 0x136D JUMP JUMPDEST PUSH20 0xFFFFFFFFFFFFFFFFFFFFFFFFFFFFFFFFFFFFFFFF AND EQ PUSH2 0x92F JUMPI PUSH1 0x40 MLOAD PUSH32 0x8C379A000000000000000000000000000000000000000000000000000000000 DUP2 MSTORE PUSH1 0x4 ADD PUSH2 0x926 SWAP1 PUSH2 0x250D JUMP JUMPDEST PUSH1 0x40 MLOAD DUP1 SWAP2 SUB SWAP1 REVERT JUMPDEST SELFBALANCE SWAP1 POP SWAP1 JUMP JUMPDEST PUSH1 0x0 PUSH1 0x60 PUSH1 0xC PUSH1 0x1 SWAP1 SLOAD SWAP1 PUSH2 0x100 EXP SWAP1 DIV PUSH20 0xFFFFFFFFFFFFFFFFFFFFFFFFFFFFFFFFFFFFFFFF AND PUSH20 0xFFFFFFFFFFFFFFFFFFFFFFFFFFFFFFFFFFFFFFFF AND PUSH2 0x97A PUSH2 0x136D JUMP JUMPDEST PUSH20 0xFFFFFFFFFFFFFFFFFFFFFFFFFFFFFFFFFFFFFFFF AND EQ PUSH2 0x9D0 JUMPI PUSH1 0x40 MLOAD PUSH32 0x8C379A000000000000000000000000000000000000000000000000000000000 DUP2 MSTORE PUSH1 0x4 ADD PUSH2 0x9C7 SWAP1 PUSH2 0x250D JUMP JUMPDEST PUSH1 0x40 MLOAD DUP1 SWAP2 SUB SWAP1 REVERT JUMPDEST PUSH1 0x0 ISZERO ISZERO PUSH1 0xC PUSH1 0x0 SWAP1 SLOAD SWAP1 PUSH2 0x100 EXP SWAP1 DIV PUSH1 0xFF AND ISZERO ISZERO EQ PUSH2 0xA26 JUMPI PUSH1 0x40 MLOAD PUSH32 0x8C379A000000000000000000000000000000000000000000000000000000000 DUP2 MSTORE PUSH1 0x4 ADD PUSH2 0xA1D SWAP1 PUSH2 0x252D JUMP JUMPDEST PUSH1 0x40 MLOAD DUP1 SWAP2 SUB SWAP1 REVERT JUMPDEST PUSH1 0x0 PUSH2 0xA30 PUSH2 0x1375 JUMP JUMPDEST SWAP1 POP PUSH1 0x0 PUSH2 0xA3D DUP3 PUSH2 0x1411 JUMP JUMPDEST SWAP1 POP PUSH2 0xAD7 DUP6 DUP3 PUSH1 0x5 SLOAD PUSH1 0x2 DUP1 SLOAD PUSH2 0xA54 SWAP1 PUSH2 0x2890 JUMP JUMPDEST DUP1 PUSH1 0x1F ADD PUSH1 0x20 DUP1 SWAP2 DIV MUL PUSH1 0x20 ADD PUSH1 0x40 MLOAD SWAP1 DUP2 ADD PUSH1 0x40 MSTORE DUP1 SWAP3 SWAP2 SWAP1 DUP2 DUP2 MSTORE PUSH1 0x20 ADD DUP3 DUP1 SLOAD PUSH2 0xA80 SWAP1 PUSH2 0x2890 JUMP JUMPDEST DUP1 ISZERO PUSH2 0xACD JUMPI DUP1 PUSH1 0x1F LT PUSH2 0xAA2 JUMPI PUSH2 0x100 DUP1 DUP4 SLOAD DIV MUL DUP4 MSTORE SWAP2 PUSH1 0x20 ADD SWAP2 PUSH2 0xACD JUMP JUMPDEST DUP3 ADD SWAP2 SWAP1 PUSH1 0x0 MSTORE PUSH1 0x20 PUSH1 0x0 KECCAK256 SWAP1 JUMPDEST DUP2 SLOAD DUP2 MSTORE SWAP1 PUSH1 0x1 ADD SWAP1 PUSH1 0x20 ADD DUP1 DUP4 GT PUSH2 0xAB0 JUMPI DUP3 SWAP1 SUB PUSH1 0x1F AND DUP3 ADD SWAP2 JUMPDEST POP POP POP POP POP PUSH2 0x16F4 JUMP JUMPDEST PUSH1 0x4 PUSH1 0x0 DUP2 SLOAD DUP1 SWAP3 SWAP2 SWAP1 PUSH2 0xAEA SWAP1 PUSH2 0x28F3 JUMP JUMPDEST SWAP2 SWAP1 POP SSTORE POP PUSH1 0xA PUSH1 0x0 DUP7 PUSH20 0xFFFFFFFFFFFFFFFFFFFFFFFFFFFFFFFFFFFFFFFF AND PUSH20 0xFFFFFFFFFFFFFFFFFFFFFFFFFFFFFFFFFFFFFFFF AND DUP2 MSTORE PUSH1 0x20 ADD SWAP1 DUP2 MSTORE PUSH1 0x20 ADD PUSH1 0x0 KECCAK256 PUSH1 0x0 ADD DUP2 SWAP1 DUP1 PUSH1 0x1 DUP2 SLOAD ADD DUP1 DUP3 SSTORE DUP1 SWAP2 POP POP PUSH1 0x1 SWAP1 SUB SWAP1 PUSH1 0x0 MSTORE PUSH1 0x20 PUSH1 0x0 KECCAK256 ADD PUSH1 0x0 SWAP1 SWAP2 SWAP1 SWAP2 SWAP1 SWAP2 POP SSTORE DUP1 PUSH1 0x2 DUP1 DUP1 SLOAD PUSH2 0xB67 SWAP1 PUSH2 0x2890 JUMP JUMPDEST DUP1 PUSH1 0x1F ADD PUSH1 0x20 DUP1 SWAP2 DIV MUL PUSH1 0x20 ADD PUSH1 0x40 MLOAD SWAP1 DUP2 ADD PUSH1 0x40 MSTORE DUP1 SWAP3 SWAP2 SWAP1 DUP2 DUP2 MSTORE PUSH1 0x20 ADD DUP3 DUP1 SLOAD PUSH2 0xB93 SWAP1 PUSH2 0x2890 JUMP JUMPDEST DUP1 ISZERO PUSH2 0xBE0 JUMPI DUP1 PUSH1 0x1F LT PUSH2 0xBB5 JUMPI PUSH2 0x100 DUP1 DUP4 SLOAD DIV MUL DUP4 MSTORE SWAP2 PUSH1 0x20 ADD SWAP2 PUSH2 0xBE0 JUMP JUMPDEST DUP3 ADD SWAP2 SWAP1 PUSH1 0x0 MSTORE PUSH1 0x20 PUSH1 0x0 KECCAK256 SWAP1 JUMPDEST DUP2 SLOAD DUP2 MSTORE SWAP1 PUSH1 0x1 ADD SWAP1 PUSH1 0x20 ADD DUP1 DUP4 GT PUSH2 0xBC3 JUMPI DUP3 SWAP1 SUB PUSH1 0x1F AND DUP3 ADD SWAP2 JUMPDEST POP POP POP POP POP SWAP1 POP SWAP4 POP SWAP4 POP POP POP SWAP2 POP SWAP2 JUMP JUMPDEST PUSH1 0x60 PUSH1 0x0 ISZERO ISZERO PUSH1 0xC PUSH1 0x0 SWAP1 SLOAD SWAP1 PUSH2 0x100 EXP SWAP1 DIV PUSH1 0xFF AND ISZERO ISZERO EQ PUSH2 0xC4A JUMPI PUSH1 0x40 MLOAD PUSH32 0x8C379A000000000000000000000000000000000000000000000000000000000 DUP2 MSTORE PUSH1 0x4 ADD PUSH2 0xC41 SWAP1 PUSH2 0x252D JUMP JUMPDEST PUSH1 0x40 MLOAD DUP1 SWAP2 SUB SWAP1 REVERT JUMPDEST PUSH1 0x4 DUP3 LT DUP1 ISZERO PUSH2 0xC5A JUMPI POP PUSH1 0x0 DUP3 GT JUMPDEST PUSH2 0xC99 JUMPI PUSH1 0x40 MLOAD PUSH32 0x8C379A000000000000000000000000000000000000000000000000000000000 DUP2 MSTORE PUSH1 0x4 ADD PUSH2 0xC90 SWAP1 PUSH2 0x24ED JUMP JUMPDEST PUSH1 0x40 MLOAD DUP1 SWAP2 SUB SWAP1 REVERT JUMPDEST PUSH2 0x3E8 PUSH1 0x4 SLOAD LT PUSH2 0xCDF JUMPI PUSH1 0x40 MLOAD PUSH32 0x8C379A000000000000000000000000000000000000000000000000000000000 DUP2 MSTORE PUSH1 0x4 ADD PUSH2 0xCD6 SWAP1 PUSH2 0x254D JUMP JUMPDEST PUSH1 0x40 MLOAD DUP1 SWAP2 SUB SWAP1 REVERT JUMPDEST PUSH1 0x0 PUSH1 0x6 SLOAD EQ ISZERO PUSH2 0xD25 JUMPI PUSH1 0x40 MLOAD PUSH32 0x8C379A000000000000000000000000000000000000000000000000000000000 DUP2 MSTORE PUSH1 0x4 ADD PUSH2 0xD1C SWAP1 PUSH2 0x246D JUMP JUMPDEST PUSH1 0x40 MLOAD DUP1 SWAP2 SUB SWAP1 REVERT JUMPDEST DUP2 PUSH1 0x6 SLOAD PUSH2 0xD33 SWAP2 SWAP1 PUSH2 0x2749 JUMP JUMPDEST CALLVALUE EQ PUSH2 0xD74 JUMPI PUSH1 0x40 MLOAD PUSH32 0x8C379A000000000000000000000000000000000000000000000000000000000 DUP2 MSTORE PUSH1 0x4 ADD PUSH2 0xD6B SWAP1 PUSH2 0x248D JUMP JUMPDEST PUSH1 0x40 MLOAD DUP1 SWAP2 SUB SWAP1 REVERT JUMPDEST PUSH1 0x0 JUMPDEST DUP3 DUP2 LT ISZERO PUSH2 0xD9B JUMPI PUSH2 0xD88 DUP5 PUSH2 0x935 JUMP JUMPDEST POP POP DUP1 PUSH2 0xD94 SWAP1 PUSH2 0x28F3 JUMP JUMPDEST SWAP1 POP PUSH2 0xD77 JUMP JUMPDEST POP PUSH2 0xDAD PUSH2 0xDA7 PUSH2 0x136D JUMP JUMPDEST CALLVALUE PUSH2 0x188A JUMP JUMPDEST PUSH1 0xA PUSH1 0x0 DUP5 PUSH20 0xFFFFFFFFFFFFFFFFFFFFFFFFFFFFFFFFFFFFFFFF AND PUSH20 0xFFFFFFFFFFFFFFFFFFFFFFFFFFFFFFFFFFFFFFFF AND DUP2 MSTORE PUSH1 0x20 ADD SWAP1 DUP2 MSTORE PUSH1 0x20 ADD PUSH1 0x0 KECCAK256 PUSH1 0x0 ADD DUP1 SLOAD DUP1 PUSH1 0x20 MUL PUSH1 0x20 ADD PUSH1 0x40 MLOAD SWAP1 DUP2 ADD PUSH1 0x40 MSTORE DUP1 SWAP3 SWAP2 SWAP1 DUP2 DUP2 MSTORE PUSH1 0x20 ADD DUP3 DUP1 SLOAD DUP1 ISZERO PUSH2 0xE39 JUMPI PUSH1 0x20 MUL DUP3 ADD SWAP2 SWAP1 PUSH1 0x0 MSTORE PUSH1 0x20 PUSH1 0x0 KECCAK256 SWAP1 JUMPDEST DUP2 SLOAD DUP2 MSTORE PUSH1 0x20 ADD SWAP1 PUSH1 0x1 ADD SWAP1 DUP1 DUP4 GT PUSH2 0xE25 JUMPI JUMPDEST POP POP POP POP POP SWAP1 POP SWAP3 SWAP2 POP POP JUMP JUMPDEST PUSH1 0x0 DUP1 PUSH1 0x0 PUSH1 0xC PUSH1 0x1 SWAP1 SLOAD SWAP1 PUSH2 0x100 EXP SWAP1 DIV PUSH20 0xFFFFFFFFFFFFFFFFFFFFFFFFFFFFFFFFFFFFFFFF AND PUSH20 0xFFFFFFFFFFFFFFFFFFFFFFFFFFFFFFFFFFFFFFFF AND PUSH2 0xE8C PUSH2 0x136D JUMP JUMPDEST PUSH20 0xFFFFFFFFFFFFFFFFFFFFFFFFFFFFFFFFFFFFFFFF AND EQ PUSH2 0xEE2 JUMPI PUSH1 0x40 MLOAD PUSH32 0x8C379A000000000000000000000000000000000000000000000000000000000 DUP2 MSTORE PUSH1 0x4 ADD PUSH2 0xED9 SWAP1 PUSH2 0x250D JUMP JUMPDEST PUSH1 0x40 MLOAD DUP1 SWAP2 SUB SWAP1 REVERT JUMPDEST PUSH1 0x0 ISZERO ISZERO PUSH1 0xC PUSH1 0x0 SWAP1 SLOAD SWAP1 PUSH2 0x100 EXP SWAP1 DIV PUSH1 0xFF AND ISZERO ISZERO EQ PUSH2 0xF38 JUMPI PUSH1 0x40 MLOAD PUSH32 0x8C379A000000000000000000000000000000000000000000000000000000000 DUP2 MSTORE PUSH1 0x4 ADD PUSH2 0xF2F SWAP1 PUSH2 0x252D JUMP JUMPDEST PUSH1 0x40 MLOAD DUP1 SWAP2 SUB SWAP1 REVERT JUMPDEST PUSH1 0x7 SLOAD PUSH1 0x8 SLOAD PUSH1 0x9 SLOAD SWAP3 POP SWAP3 POP SWAP3 POP SWAP1 SWAP2 SWAP3 JUMP JUMPDEST PUSH1 0x0 PUSH1 0xC PUSH1 0x1 SWAP1 SLOAD SWAP1 PUSH2 0x100 EXP SWAP1 DIV PUSH20 0xFFFFFFFFFFFFFFFFFFFFFFFFFFFFFFFFFFFFFFFF AND PUSH20 0xFFFFFFFFFFFFFFFFFFFFFFFFFFFFFFFFFFFFFFFF AND PUSH2 0xF8F PUSH2 0x136D JUMP JUMPDEST PUSH20 0xFFFFFFFFFFFFFFFFFFFFFFFFFFFFFFFFFFFFFFFF AND EQ PUSH2 0xFE5 JUMPI PUSH1 0x40 MLOAD PUSH32 0x8C379A000000000000000000000000000000000000000000000000000000000 DUP2 MSTORE PUSH1 0x4 ADD PUSH2 0xFDC SWAP1 PUSH2 0x250D JUMP JUMPDEST PUSH1 0x40 MLOAD DUP1 SWAP2 SUB SWAP1 REVERT JUMPDEST PUSH1 0x0 ISZERO ISZERO PUSH1 0xC PUSH1 0x0 SWAP1 SLOAD SWAP1 PUSH2 0x100 EXP SWAP1 DIV PUSH1 0xFF AND ISZERO ISZERO EQ PUSH2 0x103B JUMPI PUSH1 0x40 MLOAD PUSH32 0x8C379A000000000000000000000000000000000000000000000000000000000 DUP2 MSTORE PUSH1 0x4 ADD PUSH2 0x1032 SWAP1 PUSH2 0x252D JUMP JUMPDEST PUSH1 0x40 MLOAD DUP1 SWAP2 SUB SWAP1 REVERT JUMPDEST PUSH1 0x6 SLOAD SWAP1 POP SWAP1 JUMP JUMPDEST PUSH1 0xC PUSH1 0x1 SWAP1 SLOAD SWAP1 PUSH2 0x100 EXP SWAP1 DIV PUSH20 0xFFFFFFFFFFFFFFFFFFFFFFFFFFFFFFFFFFFFFFFF AND PUSH20 0xFFFFFFFFFFFFFFFFFFFFFFFFFFFFFFFFFFFFFFFF AND PUSH2 0x1084 PUSH2 0x136D JUMP JUMPDEST PUSH20 0xFFFFFFFFFFFFFFFFFFFFFFFFFFFFFFFFFFFFFFFF AND EQ PUSH2 0x10DA JUMPI PUSH1 0x40 MLOAD PUSH32 0x8C379A000000000000000000000000000000000000000000000000000000000 DUP2 MSTORE PUSH1 0x4 ADD PUSH2 0x10D1 SWAP1 PUSH2 0x250D JUMP JUMPDEST PUSH1 0x40 MLOAD DUP1 SWAP2 SUB SWAP1 REVERT JUMPDEST PUSH1 0x0 ISZERO ISZERO PUSH1 0xC PUSH1 0x0 SWAP1 SLOAD SWAP1 PUSH2 0x100 EXP SWAP1 DIV PUSH1 0xFF AND ISZERO ISZERO EQ PUSH2 0x1130 JUMPI PUSH1 0x40 MLOAD PUSH32 0x8C379A000000000000000000000000000000000000000000000000000000000 DUP2 MSTORE PUSH1 0x4 ADD PUSH2 0x1127 SWAP1 PUSH2 0x24CD JUMP JUMPDEST PUSH1 0x40 MLOAD DUP1 SWAP2 SUB SWAP1 REVERT JUMPDEST PUSH1 0x1 PUSH1 0xC PUSH1 0x0 PUSH2 0x100 EXP DUP2 SLOAD DUP2 PUSH1 0xFF MUL NOT AND SWAP1 DUP4 ISZERO ISZERO MUL OR SWAP1 SSTORE POP JUMP JUMPDEST PUSH1 0xC PUSH1 0x0 SWAP1 SLOAD SWAP1 PUSH2 0x100 EXP SWAP1 DIV PUSH1 0xFF AND DUP2 JUMP JUMPDEST PUSH1 0xC PUSH1 0x1 SWAP1 SLOAD SWAP1 PUSH2 0x100 EXP SWAP1 DIV PUSH20 0xFFFFFFFFFFFFFFFFFFFFFFFFFFFFFFFFFFFFFFFF AND DUP2 JUMP JUMPDEST PUSH1 0xC PUSH1 0x1 SWAP1 SLOAD SWAP1 PUSH2 0x100 EXP SWAP1 DIV PUSH20 0xFFFFFFFFFFFFFFFFFFFFFFFFFFFFFFFFFFFFFFFF AND PUSH20 0xFFFFFFFFFFFFFFFFFFFFFFFFFFFFFFFFFFFFFFFF AND PUSH2 0x11C7 PUSH2 0x136D JUMP JUMPDEST PUSH20 0xFFFFFFFFFFFFFFFFFFFFFFFFFFFFFFFFFFFFFFFF AND EQ PUSH2 0x121D JUMPI PUSH1 0x40 MLOAD PUSH32 0x8C379A000000000000000000000000000000000000000000000000000000000 DUP2 MSTORE PUSH1 0x4 ADD PUSH2 0x1214 SWAP1 PUSH2 0x250D JUMP JUMPDEST PUSH1 0x40 MLOAD DUP1 SWAP2 SUB SWAP1 REVERT JUMPDEST PUSH1 0x0 ISZERO ISZERO PUSH1 0xC PUSH1 0x0 SWAP1 SLOAD SWAP1 PUSH2 0x100 EXP SWAP1 DIV PUSH1 0xFF AND ISZERO ISZERO EQ PUSH2 0x1273 JUMPI PUSH1 0x40 MLOAD PUSH32 0x8C379A000000000000000000000000000000000000000000000000000000000 DUP2 MSTORE PUSH1 0x4 ADD PUSH2 0x126A SWAP1 PUSH2 0x252D JUMP JUMPDEST PUSH1 0x40 MLOAD DUP1 SWAP2 SUB SWAP1 REVERT JUMPDEST DUP1 PUSH1 0x6 DUP2 SWAP1 SSTORE POP POP JUMP JUMPDEST PUSH1 0x60 PUSH1 0x0 ISZERO ISZERO PUSH1 0xC PUSH1 0x0 SWAP1 SLOAD SWAP1 PUSH2 0x100 EXP SWAP1 DIV PUSH1 0xFF AND ISZERO ISZERO EQ PUSH2 0x12D5 JUMPI PUSH1 0x40 MLOAD PUSH32 0x8C379A000000000000000000000000000000000000000000000000000000000 DUP2 MSTORE PUSH1 0x4 ADD PUSH2 0x12CC SWAP1 PUSH2 0x252D JUMP JUMPDEST PUSH1 0x40 MLOAD DUP1 SWAP2 SUB SWAP1 REVERT JUMPDEST PUSH1 0xA PUSH1 0x0 DUP4 PUSH20 0xFFFFFFFFFFFFFFFFFFFFFFFFFFFFFFFFFFFFFFFF AND PUSH20 0xFFFFFFFFFFFFFFFFFFFFFFFFFFFFFFFFFFFFFFFF AND DUP2 MSTORE PUSH1 0x20 ADD SWAP1 DUP2 MSTORE PUSH1 0x20 ADD PUSH1 0x0 KECCAK256 PUSH1 0x0 ADD DUP1 SLOAD DUP1 PUSH1 0x20 MUL PUSH1 0x20 ADD PUSH1 0x40 MLOAD SWAP1 DUP2 ADD PUSH1 0x40 MSTORE DUP1 SWAP3 SWAP2 SWAP1 DUP2 DUP2 MSTORE PUSH1 0x20 ADD DUP3 DUP1 SLOAD DUP1 ISZERO PUSH2 0x1361 JUMPI PUSH1 0x20 MUL DUP3 ADD SWAP2 SWAP1 PUSH1 0x0 MSTORE PUSH1 0x20 PUSH1 0x0 KECCAK256 SWAP1 JUMPDEST DUP2 SLOAD DUP2 MSTORE PUSH1 0x20 ADD SWAP1 PUSH1 0x1 ADD SWAP1 DUP1 DUP4 GT PUSH2 0x134D JUMPI JUMPDEST POP POP POP POP POP SWAP1 POP SWAP2 SWAP1 POP JUMP JUMPDEST PUSH1 0x0 CALLER SWAP1 POP SWAP1 JUMP JUMPDEST PUSH1 0x0 DUP1 PUSH1 0x14 PUSH1 0x7 SLOAD PUSH1 0x8 SLOAD PUSH1 0x9 SLOAD PUSH1 0x4 SLOAD TIMESTAMP PUSH2 0x1391 SWAP2 SWAP1 PUSH2 0x26C2 JUMP JUMPDEST PUSH2 0x139B SWAP2 SWAP1 PUSH2 0x26C2 JUMP JUMPDEST PUSH2 0x13A5 SWAP2 SWAP1 PUSH2 0x26C2 JUMP JUMPDEST PUSH2 0x13AF SWAP2 SWAP1 PUSH2 0x26C2 JUMP JUMPDEST CALLER PUSH1 0xC PUSH1 0x1 SWAP1 SLOAD SWAP1 PUSH2 0x100 EXP SWAP1 DIV PUSH20 0xFFFFFFFFFFFFFFFFFFFFFFFFFFFFFFFFFFFFFFFF AND PUSH1 0x40 MLOAD PUSH1 0x20 ADD PUSH2 0x13E5 SWAP4 SWAP3 SWAP2 SWAP1 PUSH2 0x231C JUMP JUMPDEST PUSH1 0x40 MLOAD PUSH1 0x20 DUP2 DUP4 SUB SUB DUP2 MSTORE SWAP1 PUSH1 0x40 MSTORE DUP1 MLOAD SWAP1 PUSH1 0x20 ADD KECCAK256 PUSH1 0x0 SHR PUSH2 0x1408 SWAP2 SWAP1 PUSH2 0x297C JUMP JUMPDEST SWAP1 POP DUP1 SWAP2 POP POP SWAP1 JUMP JUMPDEST PUSH1 0x0 DUP1 ISZERO ISZERO PUSH1 0xC PUSH1 0x0 SWAP1 SLOAD SWAP1 PUSH2 0x100 EXP SWAP1 DIV PUSH1 0xFF AND ISZERO ISZERO EQ PUSH2 0x1468 JUMPI PUSH1 0x40 MLOAD PUSH32 0x8C379A000000000000000000000000000000000000000000000000000000000 DUP2 MSTORE PUSH1 0x4 ADD PUSH2 0x145F SWAP1 PUSH2 0x252D JUMP JUMPDEST PUSH1 0x40 MLOAD DUP1 SWAP2 SUB SWAP1 REVERT JUMPDEST PUSH1 0x0 PUSH1 0x3 DUP4 PUSH1 0x14 DUP2 LT PUSH2 0x147E JUMPI PUSH2 0x147D PUSH2 0x2A3A JUMP JUMPDEST JUMPDEST PUSH1 0x20 SWAP2 DUP3 DUP3 DIV ADD SWAP2 SWAP1 MOD SWAP1 SLOAD SWAP1 PUSH2 0x100 EXP SWAP1 DIV PUSH1 0xFF AND PUSH1 0xFF AND SWAP1 POP PUSH1 0x0 DUP2 EQ DUP1 ISZERO PUSH2 0x14AB JUMPI POP PUSH1 0x32 PUSH1 0x7 SLOAD LT JUMPDEST ISZERO PUSH2 0x1511 JUMPI PUSH1 0x7 PUSH1 0x0 DUP2 SLOAD DUP1 SWAP3 SWAP2 SWAP1 PUSH2 0x14C3 SWAP1 PUSH2 0x28F3 JUMP JUMPDEST SWAP2 SWAP1 POP SSTORE POP PUSH2 0x14D3 PUSH1 0x7 SLOAD PUSH2 0x18E4 JUMP JUMPDEST PUSH1 0x40 MLOAD PUSH1 0x20 ADD PUSH2 0x14E3 SWAP2 SWAP1 PUSH2 0x22B6 JUMP JUMPDEST PUSH1 0x40 MLOAD PUSH1 0x20 DUP2 DUP4 SUB SUB DUP2 MSTORE SWAP1 PUSH1 0x40 MSTORE PUSH1 0x2 SWAP1 DUP1 MLOAD SWAP1 PUSH1 0x20 ADD SWAP1 PUSH2 0x1507 SWAP3 SWAP2 SWAP1 PUSH2 0x1CC1 JUMP JUMPDEST POP DUP1 SWAP2 POP POP PUSH2 0x16EF JUMP JUMPDEST PUSH1 0x1 DUP2 GT ISZERO DUP1 ISZERO PUSH2 0x1524 JUMPI POP PUSH1 0x64 PUSH1 0x8 SLOAD LT JUMPDEST ISZERO PUSH2 0x158A JUMPI PUSH1 0x8 PUSH1 0x0 DUP2 SLOAD DUP1 SWAP3 SWAP2 SWAP1 PUSH2 0x153C SWAP1 PUSH2 0x28F3 JUMP JUMPDEST SWAP2 SWAP1 POP SSTORE POP PUSH2 0x154C PUSH1 0x8 SLOAD PUSH2 0x18E4 JUMP JUMPDEST PUSH1 0x40 MLOAD PUSH1 0x20 ADD PUSH2 0x155C SWAP2 SWAP1 PUSH2 0x22D8 JUMP JUMPDEST PUSH1 0x40 MLOAD PUSH1 0x20 DUP2 DUP4 SUB SUB DUP2 MSTORE SWAP1 PUSH1 0x40 MSTORE PUSH1 0x2 SWAP1 DUP1 MLOAD SWAP1 PUSH1 0x20 ADD SWAP1 PUSH2 0x1580 SWAP3 SWAP2 SWAP1 PUSH2 0x1CC1 JUMP JUMPDEST POP DUP1 SWAP2 POP POP PUSH2 0x16EF JUMP JUMPDEST PUSH1 0x2 DUP2 GT ISZERO DUP1 ISZERO PUSH2 0x159F JUMPI POP PUSH2 0x352 PUSH1 0x9 SLOAD GT ISZERO JUMPDEST ISZERO PUSH2 0x161E JUMPI PUSH1 0x9 PUSH1 0x0 DUP2 SLOAD DUP1 SWAP3 SWAP2 SWAP1 PUSH2 0x15B7 SWAP1 PUSH2 0x28F3 JUMP JUMPDEST SWAP2 SWAP1 POP SSTORE POP PUSH2 0x15C7 PUSH1 0x9 SLOAD PUSH2 0x18E4 JUMP JUMPDEST PUSH1 0x40 MLOAD PUSH1 0x20 ADD PUSH2 0x15D7 SWAP2 SWAP1 PUSH2 0x22FA JUMP JUMPDEST PUSH1 0x40 MLOAD PUSH1 0x20 DUP2 DUP4 SUB SUB DUP2 MSTORE SWAP1 PUSH1 0x40 MSTORE PUSH1 0x2 SWAP1 DUP1 MLOAD SWAP1 PUSH1 0x20 ADD SWAP1 PUSH2 0x15FB SWAP3 SWAP2 SWAP1 PUSH2 0x1CC1 JUMP JUMPDEST PUSH1 0x2 SWAP1 DUP1 SLOAD PUSH2 0x1609 SWAP1 PUSH2 0x2890 JUMP JUMPDEST PUSH2 0x1614 SWAP3 SWAP2 SWAP1 PUSH2 0x1D47 JUMP JUMPDEST POP DUP1 SWAP2 POP POP PUSH2 0x16EF JUMP JUMPDEST PUSH1 0x64 PUSH1 0x8 SLOAD LT ISZERO PUSH2 0x168E JUMPI PUSH1 0x1 SWAP1 POP PUSH1 0x8 PUSH1 0x0 DUP2 SLOAD DUP1 SWAP3 SWAP2 SWAP1 PUSH2 0x1640 SWAP1 PUSH2 0x28F3 JUMP JUMPDEST SWAP2 SWAP1 POP SSTORE POP PUSH2 0x1650 PUSH1 0x8 SLOAD PUSH2 0x18E4 JUMP JUMPDEST PUSH1 0x40 MLOAD PUSH1 0x20 ADD PUSH2 0x1660 SWAP2 SWAP1 PUSH2 0x22D8 JUMP JUMPDEST PUSH1 0x40 MLOAD PUSH1 0x20 DUP2 DUP4 SUB SUB DUP2 MSTORE SWAP1 PUSH1 0x40 MSTORE PUSH1 0x2 SWAP1 DUP1 MLOAD SWAP1 PUSH1 0x20 ADD SWAP1 PUSH2 0x1684 SWAP3 SWAP2 SWAP1 PUSH2 0x1CC1 JUMP JUMPDEST POP DUP1 SWAP2 POP POP PUSH2 0x16EF JUMP JUMPDEST PUSH1 0x0 SWAP1 POP PUSH1 0x7 PUSH1 0x0 DUP2 SLOAD DUP1 SWAP3 SWAP2 SWAP1 PUSH2 0x16A5 SWAP1 PUSH2 0x28F3 JUMP JUMPDEST SWAP2 SWAP1 POP SSTORE POP PUSH2 0x16B5 PUSH1 0x7 SLOAD PUSH2 0x18E4 JUMP JUMPDEST PUSH1 0x40 MLOAD PUSH1 0x20 ADD PUSH2 0x16C5 SWAP2 SWAP1 PUSH2 0x22B6 JUMP JUMPDEST PUSH1 0x40 MLOAD PUSH1 0x20 DUP2 DUP4 SUB SUB DUP2 MSTORE SWAP1 PUSH1 0x40 MSTORE PUSH1 0x2 SWAP1 DUP1 MLOAD SWAP1 PUSH1 0x20 ADD SWAP1 PUSH2 0x16E9 SWAP3 SWAP2 SWAP1 PUSH2 0x1CC1 JUMP JUMPDEST POP DUP1 SWAP2 POP POP JUMPDEST SWAP2 SWAP1 POP JUMP JUMPDEST PUSH1 0x0 PUSH20 0xFFFFFFFFFFFFFFFFFFFFFFFFFFFFFFFFFFFFFFFF AND DUP5 PUSH20 0xFFFFFFFFFFFFFFFFFFFFFFFFFFFFFFFFFFFFFFFF AND EQ ISZERO PUSH2 0x1764 JUMPI PUSH1 0x40 MLOAD PUSH32 0x8C379A000000000000000000000000000000000000000000000000000000000 DUP2 MSTORE PUSH1 0x4 ADD PUSH2 0x175B SWAP1 PUSH2 0x258D JUMP JUMPDEST PUSH1 0x40 MLOAD DUP1 SWAP2 SUB SWAP1 REVERT JUMPDEST PUSH1 0x0 PUSH2 0x176E PUSH2 0x136D JUMP JUMPDEST SWAP1 POP PUSH2 0x178F DUP2 PUSH1 0x0 DUP8 PUSH2 0x1780 DUP9 PUSH2 0x1A45 JUMP JUMPDEST PUSH2 0x1789 DUP9 PUSH2 0x1A45 JUMP JUMPDEST DUP8 PUSH2 0x1ABF JUMP JUMPDEST DUP3 PUSH1 0x0 DUP1 DUP7 DUP2 MSTORE PUSH1 0x20 ADD SWAP1 DUP2 MSTORE PUSH1 0x20 ADD PUSH1 0x0 KECCAK256 PUSH1 0x0 DUP8 PUSH20 0xFFFFFFFFFFFFFFFFFFFFFFFFFFFFFFFFFFFFFFFF AND PUSH20 0xFFFFFFFFFFFFFFFFFFFFFFFFFFFFFFFFFFFFFFFF AND DUP2 MSTORE PUSH1 0x20 ADD SWAP1 DUP2 MSTORE PUSH1 0x20 ADD PUSH1 0x0 KECCAK256 PUSH1 0x0 DUP3 DUP3 SLOAD PUSH2 0x17EE SWAP2 SWAP1 PUSH2 0x26C2 JUMP JUMPDEST SWAP3 POP POP DUP2 SWAP1 SSTORE POP DUP5 PUSH20 0xFFFFFFFFFFFFFFFFFFFFFFFFFFFFFFFFFFFFFFFF AND PUSH1 0x0 PUSH20 0xFFFFFFFFFFFFFFFFFFFFFFFFFFFFFFFFFFFFFFFF AND DUP3 PUSH20 0xFFFFFFFFFFFFFFFFFFFFFFFFFFFFFFFFFFFFFFFF AND PUSH32 0xC3D58168C5AE7397731D063D5BBF3D657854427343F4C083240F7AACAA2D0F62 DUP8 DUP8 PUSH1 0x40 MLOAD PUSH2 0x186C SWAP3 SWAP2 SWAP1 PUSH2 0x25F8 JUMP JUMPDEST PUSH1 0x40 MLOAD DUP1 SWAP2 SUB SWAP1 LOG4 PUSH2 0x1883 DUP2 PUSH1 0x0 DUP8 DUP8 DUP8 DUP8 PUSH2 0x1AC7 JUMP JUMPDEST POP POP POP POP POP JUMP JUMPDEST DUP1 PUSH1 0xB PUSH1 0x0 DUP5 PUSH20 0xFFFFFFFFFFFFFFFFFFFFFFFFFFFFFFFFFFFFFFFF AND PUSH20 0xFFFFFFFFFFFFFFFFFFFFFFFFFFFFFFFFFFFFFFFF AND DUP2 MSTORE PUSH1 0x20 ADD SWAP1 DUP2 MSTORE PUSH1 0x20 ADD PUSH1 0x0 KECCAK256 PUSH1 0x0 DUP3 DUP3 SLOAD PUSH2 0x18D9 SWAP2 SWAP1 PUSH2 0x26C2 JUMP JUMPDEST SWAP3 POP POP DUP2 SWAP1 SSTORE POP POP POP JUMP JUMPDEST PUSH1 0x60 PUSH1 0x0 DUP3 EQ ISZERO PUSH2 0x192C JUMPI PUSH1 0x40 MLOAD DUP1 PUSH1 0x40 ADD PUSH1 0x40 MSTORE DUP1 PUSH1 0x1 DUP2 MSTORE PUSH1 0x20 ADD PUSH32 0x3000000000000000000000000000000000000000000000000000000000000000 DUP2 MSTORE POP SWAP1 POP PUSH2 0x1A40 JUMP JUMPDEST PUSH1 0x0 DUP3 SWAP1 POP PUSH1 0x0 JUMPDEST PUSH1 0x0 DUP3 EQ PUSH2 0x195E JUMPI DUP1 DUP1 PUSH2 0x1947 SWAP1 PUSH2 0x28F3 JUMP JUMPDEST SWAP2 POP POP PUSH1 0xA DUP3 PUSH2 0x1957 SWAP2 SWAP1 PUSH2 0x2718 JUMP JUMPDEST SWAP2 POP PUSH2 0x1934 JUMP JUMPDEST PUSH1 0x0 DUP2 PUSH8 0xFFFFFFFFFFFFFFFF DUP2 GT ISZERO PUSH2 0x197A JUMPI PUSH2 0x1979 PUSH2 0x2A69 JUMP JUMPDEST JUMPDEST PUSH1 0x40 MLOAD SWAP1 DUP1 DUP3 MSTORE DUP1 PUSH1 0x1F ADD PUSH1 0x1F NOT AND PUSH1 0x20 ADD DUP3 ADD PUSH1 0x40 MSTORE DUP1 ISZERO PUSH2 0x19AC JUMPI DUP2 PUSH1 0x20 ADD PUSH1 0x1 DUP3 MUL DUP1 CALLDATASIZE DUP4 CALLDATACOPY DUP1 DUP3 ADD SWAP2 POP POP SWAP1 POP JUMPDEST POP SWAP1 POP JUMPDEST PUSH1 0x0 DUP6 EQ PUSH2 0x1A39 JUMPI PUSH1 0x1 DUP3 PUSH2 0x19C5 SWAP2 SWAP1 PUSH2 0x27A3 JUMP JUMPDEST SWAP2 POP PUSH1 0xA DUP6 PUSH2 0x19D4 SWAP2 SWAP1 PUSH2 0x297C JUMP JUMPDEST PUSH1 0x30 PUSH2 0x19E0 SWAP2 SWAP1 PUSH2 0x26C2 JUMP JUMPDEST PUSH1 0xF8 SHL DUP2 DUP4 DUP2 MLOAD DUP2 LT PUSH2 0x19F6 JUMPI PUSH2 0x19F5 PUSH2 0x2A3A JUMP JUMPDEST JUMPDEST PUSH1 0x20 ADD ADD SWAP1 PUSH31 0xFFFFFFFFFFFFFFFFFFFFFFFFFFFFFFFFFFFFFFFFFFFFFFFFFFFFFFFFFFFFFF NOT AND SWAP1 DUP2 PUSH1 0x0 BYTE SWAP1 MSTORE8 POP PUSH1 0xA DUP6 PUSH2 0x1A32 SWAP2 SWAP1 PUSH2 0x2718 JUMP JUMPDEST SWAP5 POP PUSH2 0x19B0 JUMP JUMPDEST DUP1 SWAP4 POP POP POP POP JUMPDEST SWAP2 SWAP1 POP JUMP JUMPDEST PUSH1 0x60 PUSH1 0x0 PUSH1 0x1 PUSH8 0xFFFFFFFFFFFFFFFF DUP2 GT ISZERO PUSH2 0x1A64 JUMPI PUSH2 0x1A63 PUSH2 0x2A69 JUMP JUMPDEST JUMPDEST PUSH1 0x40 MLOAD SWAP1 DUP1 DUP3 MSTORE DUP1 PUSH1 0x20 MUL PUSH1 0x20 ADD DUP3 ADD PUSH1 0x40 MSTORE DUP1 ISZERO PUSH2 0x1A92 JUMPI DUP2 PUSH1 0x20 ADD PUSH1 0x20 DUP3 MUL DUP1 CALLDATASIZE DUP4 CALLDATACOPY DUP1 DUP3 ADD SWAP2 POP POP SWAP1 POP JUMPDEST POP SWAP1 POP DUP3 DUP2 PUSH1 0x0 DUP2 MLOAD DUP2 LT PUSH2 0x1AAA JUMPI PUSH2 0x1AA9 PUSH2 0x2A3A JUMP JUMPDEST JUMPDEST PUSH1 0x20 MUL PUSH1 0x20 ADD ADD DUP2 DUP2 MSTORE POP POP DUP1 SWAP2 POP POP SWAP2 SWAP1 POP JUMP JUMPDEST POP POP POP POP POP POP JUMP JUMPDEST PUSH2 0x1AE6 DUP5 PUSH20 0xFFFFFFFFFFFFFFFFFFFFFFFFFFFFFFFFFFFFFFFF AND PUSH2 0x1CAE JUMP JUMPDEST ISZERO PUSH2 0x1CA6 JUMPI DUP4 PUSH20 0xFFFFFFFFFFFFFFFFFFFFFFFFFFFFFFFFFFFFFFFF AND PUSH4 0xAE89A248 DUP8 DUP8 DUP7 DUP7 DUP7 PUSH1 0x40 MLOAD DUP7 PUSH4 0xFFFFFFFF AND PUSH1 0xE0 SHL DUP2 MSTORE PUSH1 0x4 ADD PUSH2 0x1B2C SWAP6 SWAP5 SWAP4 SWAP3 SWAP2 SWAP1 PUSH2 0x2374 JUMP JUMPDEST PUSH1 0x20 PUSH1 0x40 MLOAD DUP1 DUP4 SUB DUP2 PUSH1 0x0 DUP8 DUP1 EXTCODESIZE ISZERO DUP1 ISZERO PUSH2 0x1B46 JUMPI PUSH1 0x0 DUP1 REVERT JUMPDEST POP GAS CALL SWAP3 POP POP POP DUP1 ISZERO PUSH2 0x1B77 JUMPI POP PUSH1 0x40 MLOAD RETURNDATASIZE PUSH1 0x1F NOT PUSH1 0x1F DUP3 ADD AND DUP3 ADD DUP1 PUSH1 0x40 MSTORE POP DUP2 ADD SWAP1 PUSH2 0x1B74 SWAP2 SWAP1 PUSH2 0x1EDF JUMP JUMPDEST PUSH1 0x1 JUMPDEST PUSH2 0x1C1D JUMPI PUSH2 0x1B83 PUSH2 0x2A98 JUMP JUMPDEST DUP1 PUSH4 0x8C379A0 EQ ISZERO PUSH2 0x1BE0 JUMPI POP PUSH2 0x1B98 PUSH2 0x2DC3 JUMP JUMPDEST DUP1 PUSH2 0x1BA3 JUMPI POP PUSH2 0x1BE2 JUMP JUMPDEST DUP1 PUSH1 0x40 MLOAD PUSH32 0x8C379A000000000000000000000000000000000000000000000000000000000 DUP2 MSTORE PUSH1 0x4 ADD PUSH2 0x1BD7 SWAP2 SWAP1 PUSH2 0x240B JUMP JUMPDEST PUSH1 0x40 MLOAD DUP1 SWAP2 SUB SWAP1 REVERT JUMPDEST POP JUMPDEST PUSH1 0x40 MLOAD PUSH32 0x8C379A000000000000000000000000000000000000000000000000000000000 DUP2 MSTORE PUSH1 0x4 ADD PUSH2 0x1C14 SWAP1 PUSH2 0x242D JUMP JUMPDEST PUSH1 0x40 MLOAD DUP1 SWAP2 SUB SWAP1 REVERT JUMPDEST PUSH4 0xAE89A248 PUSH1 0xE0 SHL PUSH28 0xFFFFFFFFFFFFFFFFFFFFFFFFFFFFFFFFFFFFFFFFFFFFFFFFFFFFFFFF NOT AND DUP2 PUSH28 0xFFFFFFFFFFFFFFFFFFFFFFFFFFFFFFFFFFFFFFFFFFFFFFFFFFFFFFFF NOT AND EQ PUSH2 0x1CA4 JUMPI PUSH1 0x40 MLOAD PUSH32 0x8C379A000000000000000000000000000000000000000000000000000000000 DUP2 MSTORE PUSH1 0x4 ADD PUSH2 0x1C9B SWAP1 PUSH2 0x244D JUMP JUMPDEST PUSH1 0x40 MLOAD DUP1 SWAP2 SUB SWAP1 REVERT JUMPDEST POP JUMPDEST POP POP POP POP POP POP JUMP JUMPDEST PUSH1 0x0 DUP1 DUP3 EXTCODESIZE SWAP1 POP PUSH1 0x0 DUP2 GT SWAP2 POP POP SWAP2 SWAP1 POP JUMP JUMPDEST DUP3 DUP1 SLOAD PUSH2 0x1CCD SWAP1 PUSH2 0x2890 JUMP JUMPDEST SWAP1 PUSH1 0x0 MSTORE PUSH1 0x20 PUSH1 0x0 KECCAK256 SWAP1 PUSH1 0x1F ADD PUSH1 0x20 SWAP1 DIV DUP2 ADD SWAP3 DUP3 PUSH2 0x1CEF JUMPI PUSH1 0x0 DUP6 SSTORE PUSH2 0x1D36 JUMP JUMPDEST DUP3 PUSH1 0x1F LT PUSH2 0x1D08 JUMPI DUP1 MLOAD PUSH1 0xFF NOT AND DUP4 DUP1 ADD OR DUP6 SSTORE PUSH2 0x1D36 JUMP JUMPDEST DUP3 DUP1 ADD PUSH1 0x1 ADD DUP6 SSTORE DUP3 ISZERO PUSH2 0x1D36 JUMPI SWAP2 DUP3 ADD JUMPDEST DUP3 DUP2 GT ISZERO PUSH2 0x1D35 JUMPI DUP3 MLOAD DUP3 SSTORE SWAP2 PUSH1 0x20 ADD SWAP2 SWAP1 PUSH1 0x1 ADD SWAP1 PUSH2 0x1D1A JUMP JUMPDEST JUMPDEST POP SWAP1 POP PUSH2 0x1D43 SWAP2 SWAP1 PUSH2 0x1DD4 JUMP JUMPDEST POP SWAP1 JUMP JUMPDEST DUP3 DUP1 SLOAD PUSH2 0x1D53 SWAP1 PUSH2 0x2890 JUMP JUMPDEST SWAP1 PUSH1 0x0 MSTORE PUSH1 0x20 PUSH1 0x0 KECCAK256 SWAP1 PUSH1 0x1F ADD PUSH1 0x20 SWAP1 DIV DUP2 ADD SWAP3 DUP3 PUSH2 0x1D75 JUMPI PUSH1 0x0 DUP6 SSTORE PUSH2 0x1DC3 JUMP JUMPDEST DUP3 PUSH1 0x1F LT PUSH2 0x1D86 JUMPI DUP1 SLOAD DUP6 SSTORE PUSH2 0x1DC3 JUMP JUMPDEST DUP3 DUP1 ADD PUSH1 0x1 ADD DUP6 SSTORE DUP3 ISZERO PUSH2 0x1DC3 JUMPI PUSH1 0x0 MSTORE PUSH1 0x20 PUSH1 0x0 KECCAK256 SWAP2 PUSH1 0x1F ADD PUSH1 0x20 SWAP1 DIV DUP3 ADD JUMPDEST DUP3 DUP2 GT ISZERO PUSH2 0x1DC2 JUMPI DUP3 SLOAD DUP3 SSTORE SWAP2 PUSH1 0x1 ADD SWAP2 SWAP1 PUSH1 0x1 ADD SWAP1 PUSH2 0x1DA7 JUMP JUMPDEST JUMPDEST POP SWAP1 POP PUSH2 0x1DD0 SWAP2 SWAP1 PUSH2 0x1DD4 JUMP JUMPDEST POP SWAP1 JUMP JUMPDEST JUMPDEST DUP1 DUP3 GT ISZERO PUSH2 0x1DED JUMPI PUSH1 0x0 DUP2 PUSH1 0x0 SWAP1 SSTORE POP PUSH1 0x1 ADD PUSH2 0x1DD5 JUMP JUMPDEST POP SWAP1 JUMP JUMPDEST PUSH1 0x0 DUP2 CALLDATALOAD SWAP1 POP PUSH2 0x1E00 DUP2 PUSH2 0x2E59 JUMP JUMPDEST SWAP3 SWAP2 POP POP JUMP JUMPDEST PUSH1 0x0 DUP2 CALLDATALOAD SWAP1 POP PUSH2 0x1E15 DUP2 PUSH2 0x2E70 JUMP JUMPDEST SWAP3 SWAP2 POP POP JUMP JUMPDEST PUSH1 0x0 DUP2 MLOAD SWAP1 POP PUSH2 0x1E2A DUP2 PUSH2 0x2E87 JUMP JUMPDEST SWAP3 SWAP2 POP POP JUMP JUMPDEST PUSH1 0x0 DUP2 CALLDATALOAD SWAP1 POP PUSH2 0x1E3F DUP2 PUSH2 0x2E9E JUMP JUMPDEST SWAP3 SWAP2 POP POP JUMP JUMPDEST PUSH1 0x0 PUSH1 0x20 DUP3 DUP5 SUB SLT ISZERO PUSH2 0x1E5B JUMPI PUSH2 0x1E5A PUSH2 0x2ABA JUMP JUMPDEST JUMPDEST PUSH1 0x0 PUSH2 0x1E69 DUP5 DUP3 DUP6 ADD PUSH2 0x1DF1 JUMP JUMPDEST SWAP2 POP POP SWAP3 SWAP2 POP POP JUMP JUMPDEST PUSH1 0x0 PUSH1 0x20 DUP3 DUP5 SUB SLT ISZERO PUSH2 0x1E88 JUMPI PUSH2 0x1E87 PUSH2 0x2ABA JUMP JUMPDEST JUMPDEST PUSH1 0x0 PUSH2 0x1E96 DUP5 DUP3 DUP6 ADD PUSH2 0x1E06 JUMP JUMPDEST SWAP2 POP POP SWAP3 SWAP2 POP POP JUMP JUMPDEST PUSH1 0x0 DUP1 PUSH1 0x40 DUP4 DUP6 SUB SLT ISZERO PUSH2 0x1EB6 JUMPI PUSH2 0x1EB5 PUSH2 0x2ABA JUMP JUMPDEST JUMPDEST PUSH1 0x0 PUSH2 0x1EC4 DUP6 DUP3 DUP7 ADD PUSH2 0x1DF1 JUMP JUMPDEST SWAP3 POP POP PUSH1 0x20 PUSH2 0x1ED5 DUP6 DUP3 DUP7 ADD PUSH2 0x1E30 JUMP JUMPDEST SWAP2 POP POP SWAP3 POP SWAP3 SWAP1 POP JUMP JUMPDEST PUSH1 0x0 PUSH1 0x20 DUP3 DUP5 SUB SLT ISZERO PUSH2 0x1EF5 JUMPI PUSH2 0x1EF4 PUSH2 0x2ABA JUMP JUMPDEST JUMPDEST PUSH1 0x0 PUSH2 0x1F03 DUP5 DUP3 DUP6 ADD PUSH2 0x1E1B JUMP JUMPDEST SWAP2 POP POP SWAP3 SWAP2 POP POP JUMP JUMPDEST PUSH1 0x0 PUSH1 0x20 DUP3 DUP5 SUB SLT ISZERO PUSH2 0x1F22 JUMPI PUSH2 0x1F21 PUSH2 0x2ABA JUMP JUMPDEST JUMPDEST PUSH1 0x0 PUSH2 0x1F30 DUP5 DUP3 DUP6 ADD PUSH2 0x1E30 JUMP JUMPDEST SWAP2 POP POP SWAP3 SWAP2 POP POP JUMP JUMPDEST PUSH1 0x0 PUSH2 0x1F45 DUP4 DUP4 PUSH2 0x2281 JUMP JUMPDEST PUSH1 0x20 DUP4 ADD SWAP1 POP SWAP3 SWAP2 POP POP JUMP JUMPDEST PUSH2 0x1F5A DUP2 PUSH2 0x27E9 JUMP JUMPDEST DUP3 MSTORE POP POP JUMP JUMPDEST PUSH2 0x1F71 PUSH2 0x1F6C DUP3 PUSH2 0x27E9 JUMP JUMPDEST PUSH2 0x294E JUMP JUMPDEST DUP3 MSTORE POP POP JUMP JUMPDEST PUSH2 0x1F80 DUP2 PUSH2 0x27D7 JUMP JUMPDEST DUP3 MSTORE POP POP JUMP JUMPDEST PUSH2 0x1F97 PUSH2 0x1F92 DUP3 PUSH2 0x27D7 JUMP JUMPDEST PUSH2 0x293C JUMP JUMPDEST DUP3 MSTORE POP POP JUMP JUMPDEST PUSH1 0x0 PUSH2 0x1FA8 DUP3 PUSH2 0x2672 JUMP JUMPDEST PUSH2 0x1FB2 DUP2 DUP6 PUSH2 0x2695 JUMP JUMPDEST SWAP4 POP PUSH2 0x1FBD DUP4 PUSH2 0x2662 JUMP JUMPDEST DUP1 PUSH1 0x0 JUMPDEST DUP4 DUP2 LT ISZERO PUSH2 0x1FEE JUMPI DUP2 MLOAD PUSH2 0x1FD5 DUP9 DUP3 PUSH2 0x1F39 JUMP JUMPDEST SWAP8 POP PUSH2 0x1FE0 DUP4 PUSH2 0x2688 JUMP JUMPDEST SWAP3 POP POP PUSH1 0x1 DUP2 ADD SWAP1 POP PUSH2 0x1FC1 JUMP JUMPDEST POP DUP6 SWAP4 POP POP POP POP SWAP3 SWAP2 POP POP JUMP JUMPDEST PUSH2 0x2004 DUP2 PUSH2 0x27FB JUMP JUMPDEST DUP3 MSTORE POP POP JUMP JUMPDEST PUSH1 0x0 PUSH2 0x2015 DUP3 PUSH2 0x267D JUMP JUMPDEST PUSH2 0x201F DUP2 DUP6 PUSH2 0x26A6 JUMP JUMPDEST SWAP4 POP PUSH2 0x202F DUP2 DUP6 PUSH1 0x20 DUP7 ADD PUSH2 0x285D JUMP JUMPDEST PUSH2 0x2038 DUP2 PUSH2 0x2ABF JUMP JUMPDEST DUP5 ADD SWAP2 POP POP SWAP3 SWAP2 POP POP JUMP JUMPDEST PUSH1 0x0 PUSH2 0x204E DUP3 PUSH2 0x267D JUMP JUMPDEST PUSH2 0x2058 DUP2 DUP6 PUSH2 0x26B7 JUMP JUMPDEST SWAP4 POP PUSH2 0x2068 DUP2 DUP6 PUSH1 0x20 DUP7 ADD PUSH2 0x285D JUMP JUMPDEST DUP1 DUP5 ADD SWAP2 POP POP SWAP3 SWAP2 POP POP JUMP JUMPDEST PUSH1 0x0 PUSH2 0x2081 PUSH1 0x34 DUP4 PUSH2 0x26A6 JUMP JUMPDEST SWAP2 POP PUSH2 0x208C DUP3 PUSH2 0x2AEA JUMP JUMPDEST PUSH1 0x40 DUP3 ADD SWAP1 POP SWAP2 SWAP1 POP JUMP JUMPDEST PUSH1 0x0 PUSH2 0x20A4 PUSH1 0x28 DUP4 PUSH2 0x26A6 JUMP JUMPDEST SWAP2 POP PUSH2 0x20AF DUP3 PUSH2 0x2B39 JUMP JUMPDEST PUSH1 0x40 DUP3 ADD SWAP1 POP SWAP2 SWAP1 POP JUMP JUMPDEST PUSH1 0x0 PUSH2 0x20C7 PUSH1 0x8 DUP4 PUSH2 0x26B7 JUMP JUMPDEST SWAP2 POP PUSH2 0x20D2 DUP3 PUSH2 0x2B88 JUMP JUMPDEST PUSH1 0x8 DUP3 ADD SWAP1 POP SWAP2 SWAP1 POP JUMP JUMPDEST PUSH1 0x0 PUSH2 0x20EA PUSH1 0x10 DUP4 PUSH2 0x26A6 JUMP JUMPDEST SWAP2 POP PUSH2 0x20F5 DUP3 PUSH2 0x2BB1 JUMP JUMPDEST PUSH1 0x20 DUP3 ADD SWAP1 POP SWAP2 SWAP1 POP JUMP JUMPDEST PUSH1 0x0 PUSH2 0x210D PUSH1 0x5 DUP4 PUSH2 0x26B7 JUMP JUMPDEST SWAP2 POP PUSH2 0x2118 DUP3 PUSH2 0x2BDA JUMP JUMPDEST PUSH1 0x5 DUP3 ADD SWAP1 POP SWAP2 SWAP1 POP JUMP JUMPDEST PUSH1 0x0 PUSH2 0x2130 PUSH1 0x12 DUP4 PUSH2 0x26A6 JUMP JUMPDEST SWAP2 POP PUSH2 0x213B DUP3 PUSH2 0x2C03 JUMP JUMPDEST PUSH1 0x20 DUP3 ADD SWAP1 POP SWAP2 SWAP1 POP JUMP JUMPDEST PUSH1 0x0 PUSH2 0x2153 PUSH1 0x1B DUP4 PUSH2 0x26A6 JUMP JUMPDEST SWAP2 POP PUSH2 0x215E DUP3 PUSH2 0x2C2C JUMP JUMPDEST PUSH1 0x20 DUP3 ADD SWAP1 POP SWAP2 SWAP1 POP JUMP JUMPDEST PUSH1 0x0 PUSH2 0x2176 PUSH1 0x1B DUP4 PUSH2 0x26A6 JUMP JUMPDEST SWAP2 POP PUSH2 0x2181 DUP3 PUSH2 0x2C55 JUMP JUMPDEST PUSH1 0x20 DUP3 ADD SWAP1 POP SWAP2 SWAP1 POP JUMP JUMPDEST PUSH1 0x0 PUSH2 0x2199 PUSH1 0x15 DUP4 PUSH2 0x26A6 JUMP JUMPDEST SWAP2 POP PUSH2 0x21A4 DUP3 PUSH2 0x2C7E JUMP JUMPDEST PUSH1 0x20 DUP3 ADD SWAP1 POP SWAP2 SWAP1 POP JUMP JUMPDEST PUSH1 0x0 PUSH2 0x21BC PUSH1 0x1C DUP4 PUSH2 0x26A6 JUMP JUMPDEST SWAP2 POP PUSH2 0x21C7 DUP3 PUSH2 0x2CA7 JUMP JUMPDEST PUSH1 0x20 DUP3 ADD SWAP1 POP SWAP2 SWAP1 POP JUMP JUMPDEST PUSH1 0x0 PUSH2 0x21DF PUSH1 0x1B DUP4 PUSH2 0x26A6 JUMP JUMPDEST SWAP2 POP PUSH2 0x21EA DUP3 PUSH2 0x2CD0 JUMP JUMPDEST PUSH1 0x20 DUP3 ADD SWAP1 POP SWAP2 SWAP1 POP JUMP JUMPDEST PUSH1 0x0 PUSH2 0x2202 PUSH1 0x19 DUP4 PUSH2 0x26A6 JUMP JUMPDEST SWAP2 POP PUSH2 0x220D DUP3 PUSH2 0x2CF9 JUMP JUMPDEST PUSH1 0x20 DUP3 ADD SWAP1 POP SWAP2 SWAP1 POP JUMP JUMPDEST PUSH1 0x0 PUSH2 0x2225 PUSH1 0x7 DUP4 PUSH2 0x26B7 JUMP JUMPDEST SWAP2 POP PUSH2 0x2230 DUP3 PUSH2 0x2D22 JUMP JUMPDEST PUSH1 0x7 DUP3 ADD SWAP1 POP SWAP2 SWAP1 POP JUMP JUMPDEST PUSH1 0x0 PUSH2 0x2248 PUSH1 0x1D DUP4 PUSH2 0x26A6 JUMP JUMPDEST SWAP2 POP PUSH2 0x2253 DUP3 PUSH2 0x2D4B JUMP JUMPDEST PUSH1 0x20 DUP3 ADD SWAP1 POP SWAP2 SWAP1 POP JUMP JUMPDEST PUSH1 0x0 PUSH2 0x226B PUSH1 0x21 DUP4 PUSH2 0x26A6 JUMP JUMPDEST SWAP2 POP PUSH2 0x2276 DUP3 PUSH2 0x2D74 JUMP JUMPDEST PUSH1 0x40 DUP3 ADD SWAP1 POP SWAP2 SWAP1 POP JUMP JUMPDEST PUSH2 0x228A DUP2 PUSH2 0x2853 JUMP JUMPDEST DUP3 MSTORE POP POP JUMP JUMPDEST PUSH2 0x2299 DUP2 PUSH2 0x2853 JUMP JUMPDEST DUP3 MSTORE POP POP JUMP JUMPDEST PUSH2 0x22B0 PUSH2 0x22AB DUP3 PUSH2 0x2853 JUMP JUMPDEST PUSH2 0x2972 JUMP JUMPDEST DUP3 MSTORE POP POP JUMP JUMPDEST PUSH1 0x0 PUSH2 0x22C1 DUP3 PUSH2 0x20BA JUMP JUMPDEST SWAP2 POP PUSH2 0x22CD DUP3 DUP5 PUSH2 0x2043 JUMP JUMPDEST SWAP2 POP DUP2 SWAP1 POP SWAP3 SWAP2 POP POP JUMP JUMPDEST PUSH1 0x0 PUSH2 0x22E3 DUP3 PUSH2 0x2100 JUMP JUMPDEST SWAP2 POP PUSH2 0x22EF DUP3 DUP5 PUSH2 0x2043 JUMP JUMPDEST SWAP2 POP DUP2 SWAP1 POP SWAP3 SWAP2 POP POP JUMP JUMPDEST PUSH1 0x0 PUSH2 0x2305 DUP3 PUSH2 0x2218 JUMP JUMPDEST SWAP2 POP PUSH2 0x2311 DUP3 DUP5 PUSH2 0x2043 JUMP JUMPDEST SWAP2 POP DUP2 SWAP1 POP SWAP3 SWAP2 POP POP JUMP JUMPDEST PUSH1 0x0 PUSH2 0x2328 DUP3 DUP7 PUSH2 0x229F JUMP JUMPDEST PUSH1 0x20 DUP3 ADD SWAP2 POP PUSH2 0x2338 DUP3 DUP6 PUSH2 0x1F86 JUMP JUMPDEST PUSH1 0x14 DUP3 ADD SWAP2 POP PUSH2 0x2348 DUP3 DUP5 PUSH2 0x1F60 JUMP JUMPDEST PUSH1 0x14 DUP3 ADD SWAP2 POP DUP2 SWAP1 POP SWAP5 SWAP4 POP POP POP POP JUMP JUMPDEST PUSH1 0x0 PUSH1 0x20 DUP3 ADD SWAP1 POP PUSH2 0x236E PUSH1 0x0 DUP4 ADD DUP5 PUSH2 0x1F51 JUMP JUMPDEST SWAP3 SWAP2 POP POP JUMP JUMPDEST PUSH1 0x0 PUSH1 0xA0 DUP3 ADD SWAP1 POP PUSH2 0x2389 PUSH1 0x0 DUP4 ADD DUP9 PUSH2 0x1F77 JUMP JUMPDEST PUSH2 0x2396 PUSH1 0x20 DUP4 ADD DUP8 PUSH2 0x1F77 JUMP JUMPDEST PUSH2 0x23A3 PUSH1 0x40 DUP4 ADD DUP7 PUSH2 0x2290 JUMP JUMPDEST PUSH2 0x23B0 PUSH1 0x60 DUP4 ADD DUP6 PUSH2 0x2290 JUMP JUMPDEST DUP2 DUP2 SUB PUSH1 0x80 DUP4 ADD MSTORE PUSH2 0x23C2 DUP2 DUP5 PUSH2 0x200A JUMP JUMPDEST SWAP1 POP SWAP7 SWAP6 POP POP POP POP POP POP JUMP JUMPDEST PUSH1 0x0 PUSH1 0x20 DUP3 ADD SWAP1 POP DUP2 DUP2 SUB PUSH1 0x0 DUP4 ADD MSTORE PUSH2 0x23E8 DUP2 DUP5 PUSH2 0x1F9D JUMP JUMPDEST SWAP1 POP SWAP3 SWAP2 POP POP JUMP JUMPDEST PUSH1 0x0 PUSH1 0x20 DUP3 ADD SWAP1 POP PUSH2 0x2405 PUSH1 0x0 DUP4 ADD DUP5 PUSH2 0x1FFB JUMP JUMPDEST SWAP3 SWAP2 POP POP JUMP JUMPDEST PUSH1 0x0 PUSH1 0x20 DUP3 ADD SWAP1 POP DUP2 DUP2 SUB PUSH1 0x0 DUP4 ADD MSTORE PUSH2 0x2425 DUP2 DUP5 PUSH2 0x200A JUMP JUMPDEST SWAP1 POP SWAP3 SWAP2 POP POP JUMP JUMPDEST PUSH1 0x0 PUSH1 0x20 DUP3 ADD SWAP1 POP DUP2 DUP2 SUB PUSH1 0x0 DUP4 ADD MSTORE PUSH2 0x2446 DUP2 PUSH2 0x2074 JUMP JUMPDEST SWAP1 POP SWAP2 SWAP1 POP JUMP JUMPDEST PUSH1 0x0 PUSH1 0x20 DUP3 ADD SWAP1 POP DUP2 DUP2 SUB PUSH1 0x0 DUP4 ADD MSTORE PUSH2 0x2466 DUP2 PUSH2 0x2097 JUMP JUMPDEST SWAP1 POP SWAP2 SWAP1 POP JUMP JUMPDEST PUSH1 0x0 PUSH1 0x20 DUP3 ADD SWAP1 POP DUP2 DUP2 SUB PUSH1 0x0 DUP4 ADD MSTORE PUSH2 0x2486 DUP2 PUSH2 0x20DD JUMP JUMPDEST SWAP1 POP SWAP2 SWAP1 POP JUMP JUMPDEST PUSH1 0x0 PUSH1 0x20 DUP3 ADD SWAP1 POP DUP2 DUP2 SUB PUSH1 0x0 DUP4 ADD MSTORE PUSH2 0x24A6 DUP2 PUSH2 0x2123 JUMP JUMPDEST SWAP1 POP SWAP2 SWAP1 POP JUMP JUMPDEST PUSH1 0x0 PUSH1 0x20 DUP3 ADD SWAP1 POP DUP2 DUP2 SUB PUSH1 0x0 DUP4 ADD MSTORE PUSH2 0x24C6 DUP2 PUSH2 0x2146 JUMP JUMPDEST SWAP1 POP SWAP2 SWAP1 POP JUMP JUMPDEST PUSH1 0x0 PUSH1 0x20 DUP3 ADD SWAP1 POP DUP2 DUP2 SUB PUSH1 0x0 DUP4 ADD MSTORE PUSH2 0x24E6 DUP2 PUSH2 0x2169 JUMP JUMPDEST SWAP1 POP SWAP2 SWAP1 POP JUMP JUMPDEST PUSH1 0x0 PUSH1 0x20 DUP3 ADD SWAP1 POP DUP2 DUP2 SUB PUSH1 0x0 DUP4 ADD MSTORE PUSH2 0x2506 DUP2 PUSH2 0x218C JUMP JUMPDEST SWAP1 POP SWAP2 SWAP1 POP JUMP JUMPDEST PUSH1 0x0 PUSH1 0x20 DUP3 ADD SWAP1 POP DUP2 DUP2 SUB PUSH1 0x0 DUP4 ADD MSTORE PUSH2 0x2526 DUP2 PUSH2 0x21AF JUMP JUMPDEST SWAP1 POP SWAP2 SWAP1 POP JUMP JUMPDEST PUSH1 0x0 PUSH1 0x20 DUP3 ADD SWAP1 POP DUP2 DUP2 SUB PUSH1 0x0 DUP4 ADD MSTORE PUSH2 0x2546 DUP2 PUSH2 0x21D2 JUMP JUMPDEST SWAP1 POP SWAP2 SWAP1 POP JUMP JUMPDEST PUSH1 0x0 PUSH1 0x20 DUP3 ADD SWAP1 POP DUP2 DUP2 SUB PUSH1 0x0 DUP4 ADD MSTORE PUSH2 0x2566 DUP2 PUSH2 0x21F5 JUMP JUMPDEST SWAP1 POP SWAP2 SWAP1 POP JUMP JUMPDEST PUSH1 0x0 PUSH1 0x20 DUP3 ADD SWAP1 POP DUP2 DUP2 SUB PUSH1 0x0 DUP4 ADD MSTORE PUSH2 0x2586 DUP2 PUSH2 0x223B JUMP JUMPDEST SWAP1 POP SWAP2 SWAP1 POP JUMP JUMPDEST PUSH1 0x0 PUSH1 0x20 DUP3 ADD SWAP1 POP DUP2 DUP2 SUB PUSH1 0x0 DUP4 ADD MSTORE PUSH2 0x25A6 DUP2 PUSH2 0x225E JUMP JUMPDEST SWAP1 POP SWAP2 SWAP1 POP JUMP JUMPDEST PUSH1 0x0 PUSH1 0x20 DUP3 ADD SWAP1 POP PUSH2 0x25C2 PUSH1 0x0 DUP4 ADD DUP5 PUSH2 0x2290 JUMP JUMPDEST SWAP3 SWAP2 POP POP JUMP JUMPDEST PUSH1 0x0 PUSH1 0x40 DUP3 ADD SWAP1 POP PUSH2 0x25DD PUSH1 0x0 DUP4 ADD DUP6 PUSH2 0x2290 JUMP JUMPDEST DUP2 DUP2 SUB PUSH1 0x20 DUP4 ADD MSTORE PUSH2 0x25EF DUP2 DUP5 PUSH2 0x200A JUMP JUMPDEST SWAP1 POP SWAP4 SWAP3 POP POP POP JUMP JUMPDEST PUSH1 0x0 PUSH1 0x40 DUP3 ADD SWAP1 POP PUSH2 0x260D PUSH1 0x0 DUP4 ADD DUP6 PUSH2 0x2290 JUMP JUMPDEST PUSH2 0x261A PUSH1 0x20 DUP4 ADD DUP5 PUSH2 0x2290 JUMP JUMPDEST SWAP4 SWAP3 POP POP POP JUMP JUMPDEST PUSH1 0x0 PUSH1 0x60 DUP3 ADD SWAP1 POP PUSH2 0x2636 PUSH1 0x0 DUP4 ADD DUP7 PUSH2 0x2290 JUMP JUMPDEST PUSH2 0x2643 PUSH1 0x20 DUP4 ADD DUP6 PUSH2 0x2290 JUMP JUMPDEST PUSH2 0x2650 PUSH1 0x40 DUP4 ADD DUP5 PUSH2 0x2290 JUMP JUMPDEST SWAP5 SWAP4 POP POP POP POP JUMP JUMPDEST PUSH1 0x0 PUSH1 0x40 MLOAD SWAP1 POP SWAP1 JUMP JUMPDEST PUSH1 0x0 DUP2 SWAP1 POP PUSH1 0x20 DUP3 ADD SWAP1 POP SWAP2 SWAP1 POP JUMP JUMPDEST PUSH1 0x0 DUP2 MLOAD SWAP1 POP SWAP2 SWAP1 POP JUMP JUMPDEST PUSH1 0x0 DUP2 MLOAD SWAP1 POP SWAP2 SWAP1 POP JUMP JUMPDEST PUSH1 0x0 PUSH1 0x20 DUP3 ADD SWAP1 POP SWAP2 SWAP1 POP JUMP JUMPDEST PUSH1 0x0 DUP3 DUP3 MSTORE PUSH1 0x20 DUP3 ADD SWAP1 POP SWAP3 SWAP2 POP POP JUMP JUMPDEST PUSH1 0x0 DUP3 DUP3 MSTORE PUSH1 0x20 DUP3 ADD SWAP1 POP SWAP3 SWAP2 POP POP JUMP JUMPDEST PUSH1 0x0 DUP2 SWAP1 POP SWAP3 SWAP2 POP POP JUMP JUMPDEST PUSH1 0x0 PUSH2 0x26CD DUP3 PUSH2 0x2853 JUMP JUMPDEST SWAP2 POP PUSH2 0x26D8 DUP4 PUSH2 0x2853 JUMP JUMPDEST SWAP3 POP DUP3 PUSH32 0xFFFFFFFFFFFFFFFFFFFFFFFFFFFFFFFFFFFFFFFFFFFFFFFFFFFFFFFFFFFFFFFF SUB DUP3 GT ISZERO PUSH2 0x270D JUMPI PUSH2 0x270C PUSH2 0x29AD JUMP JUMPDEST JUMPDEST DUP3 DUP3 ADD SWAP1 POP SWAP3 SWAP2 POP POP JUMP JUMPDEST PUSH1 0x0 PUSH2 0x2723 DUP3 PUSH2 0x2853 JUMP JUMPDEST SWAP2 POP PUSH2 0x272E DUP4 PUSH2 0x2853 JUMP JUMPDEST SWAP3 POP DUP3 PUSH2 0x273E JUMPI PUSH2 0x273D PUSH2 0x29DC JUMP JUMPDEST JUMPDEST DUP3 DUP3 DIV SWAP1 POP SWAP3 SWAP2 POP POP JUMP JUMPDEST PUSH1 0x0 PUSH2 0x2754 DUP3 PUSH2 0x2853 JUMP JUMPDEST SWAP2 POP PUSH2 0x275F DUP4 PUSH2 0x2853 JUMP JUMPDEST SWAP3 POP DUP2 PUSH32 0xFFFFFFFFFFFFFFFFFFFFFFFFFFFFFFFFFFFFFFFFFFFFFFFFFFFFFFFFFFFFFFFF DIV DUP4 GT DUP3 ISZERO ISZERO AND ISZERO PUSH2 0x2798 JUMPI PUSH2 0x2797 PUSH2 0x29AD JUMP JUMPDEST JUMPDEST DUP3 DUP3 MUL SWAP1 POP SWAP3 SWAP2 POP POP JUMP JUMPDEST PUSH1 0x0 PUSH2 0x27AE DUP3 PUSH2 0x2853 JUMP JUMPDEST SWAP2 POP PUSH2 0x27B9 DUP4 PUSH2 0x2853 JUMP JUMPDEST SWAP3 POP DUP3 DUP3 LT ISZERO PUSH2 0x27CC JUMPI PUSH2 0x27CB PUSH2 0x29AD JUMP JUMPDEST JUMPDEST DUP3 DUP3 SUB SWAP1 POP SWAP3 SWAP2 POP POP JUMP JUMPDEST PUSH1 0x0 PUSH2 0x27E2 DUP3 PUSH2 0x2833 JUMP JUMPDEST SWAP1 POP SWAP2 SWAP1 POP JUMP JUMPDEST PUSH1 0x0 PUSH2 0x27F4 DUP3 PUSH2 0x2833 JUMP JUMPDEST SWAP1 POP SWAP2 SWAP1 POP JUMP JUMPDEST PUSH1 0x0 DUP2 ISZERO ISZERO SWAP1 POP SWAP2 SWAP1 POP JUMP JUMPDEST PUSH1 0x0 PUSH32 0xFFFFFFFF00000000000000000000000000000000000000000000000000000000 DUP3 AND SWAP1 POP SWAP2 SWAP1 POP JUMP JUMPDEST PUSH1 0x0 PUSH20 0xFFFFFFFFFFFFFFFFFFFFFFFFFFFFFFFFFFFFFFFF DUP3 AND SWAP1 POP SWAP2 SWAP1 POP JUMP JUMPDEST PUSH1 0x0 DUP2 SWAP1 POP SWAP2 SWAP1 POP JUMP JUMPDEST PUSH1 0x0 JUMPDEST DUP4 DUP2 LT ISZERO PUSH2 0x287B JUMPI DUP1 DUP3 ADD MLOAD DUP2 DUP5 ADD MSTORE PUSH1 0x20 DUP2 ADD SWAP1 POP PUSH2 0x2860 JUMP JUMPDEST DUP4 DUP2 GT ISZERO PUSH2 0x288A JUMPI PUSH1 0x0 DUP5 DUP5 ADD MSTORE JUMPDEST POP POP POP POP JUMP JUMPDEST PUSH1 0x0 PUSH1 0x2 DUP3 DIV SWAP1 POP PUSH1 0x1 DUP3 AND DUP1 PUSH2 0x28A8 JUMPI PUSH1 0x7F DUP3 AND SWAP2 POP JUMPDEST PUSH1 0x20 DUP3 LT DUP2 EQ ISZERO PUSH2 0x28BC JUMPI PUSH2 0x28BB PUSH2 0x2A0B JUMP JUMPDEST JUMPDEST POP SWAP2 SWAP1 POP JUMP JUMPDEST PUSH2 0x28CB DUP3 PUSH2 0x2ABF JUMP JUMPDEST DUP2 ADD DUP2 DUP2 LT PUSH8 0xFFFFFFFFFFFFFFFF DUP3 GT OR ISZERO PUSH2 0x28EA JUMPI PUSH2 0x28E9 PUSH2 0x2A69 JUMP JUMPDEST JUMPDEST DUP1 PUSH1 0x40 MSTORE POP POP POP JUMP JUMPDEST PUSH1 0x0 PUSH2 0x28FE DUP3 PUSH2 0x2853 JUMP JUMPDEST SWAP2 POP PUSH32 0xFFFFFFFFFFFFFFFFFFFFFFFFFFFFFFFFFFFFFFFFFFFFFFFFFFFFFFFFFFFFFFFF DUP3 EQ ISZERO PUSH2 0x2931 JUMPI PUSH2 0x2930 PUSH2 0x29AD JUMP JUMPDEST JUMPDEST PUSH1 0x1 DUP3 ADD SWAP1 POP SWAP2 SWAP1 POP JUMP JUMPDEST PUSH1 0x0 PUSH2 0x2947 DUP3 PUSH2 0x2960 JUMP JUMPDEST SWAP1 POP SWAP2 SWAP1 POP JUMP JUMPDEST PUSH1 0x0 PUSH2 0x2959 DUP3 PUSH2 0x2960 JUMP JUMPDEST SWAP1 POP SWAP2 SWAP1 POP JUMP JUMPDEST PUSH1 0x0 PUSH2 0x296B DUP3 PUSH2 0x2AD0 JUMP JUMPDEST SWAP1 POP SWAP2 SWAP1 POP JUMP JUMPDEST PUSH1 0x0 DUP2 SWAP1 POP SWAP2 SWAP1 POP JUMP JUMPDEST PUSH1 0x0 PUSH2 0x2987 DUP3 PUSH2 0x2853 JUMP JUMPDEST SWAP2 POP PUSH2 0x2992 DUP4 PUSH2 0x2853 JUMP JUMPDEST SWAP3 POP DUP3 PUSH2 0x29A2 JUMPI PUSH2 0x29A1 PUSH2 0x29DC JUMP JUMPDEST JUMPDEST DUP3 DUP3 MOD SWAP1 POP SWAP3 SWAP2 POP POP JUMP JUMPDEST PUSH32 0x4E487B7100000000000000000000000000000000000000000000000000000000 PUSH1 0x0 MSTORE PUSH1 0x11 PUSH1 0x4 MSTORE PUSH1 0x24 PUSH1 0x0 REVERT JUMPDEST PUSH32 0x4E487B7100000000000000000000000000000000000000000000000000000000 PUSH1 0x0 MSTORE PUSH1 0x12 PUSH1 0x4 MSTORE PUSH1 0x24 PUSH1 0x0 REVERT JUMPDEST PUSH32 0x4E487B7100000000000000000000000000000000000000000000000000000000 PUSH1 0x0 MSTORE PUSH1 0x22 PUSH1 0x4 MSTORE PUSH1 0x24 PUSH1 0x0 REVERT JUMPDEST PUSH32 0x4E487B7100000000000000000000000000000000000000000000000000000000 PUSH1 0x0 MSTORE PUSH1 0x32 PUSH1 0x4 MSTORE PUSH1 0x24 PUSH1 0x0 REVERT JUMPDEST PUSH32 0x4E487B7100000000000000000000000000000000000000000000000000000000 PUSH1 0x0 MSTORE PUSH1 0x41 PUSH1 0x4 MSTORE PUSH1 0x24 PUSH1 0x0 REVERT JUMPDEST PUSH1 0x0 PUSH1 0x3 RETURNDATASIZE GT ISZERO PUSH2 0x2AB7 JUMPI PUSH1 0x4 PUSH1 0x0 DUP1 RETURNDATACOPY PUSH2 0x2AB4 PUSH1 0x0 MLOAD PUSH2 0x2ADD JUMP JUMPDEST SWAP1 POP JUMPDEST SWAP1 JUMP JUMPDEST PUSH1 0x0 DUP1 REVERT JUMPDEST PUSH1 0x0 PUSH1 0x1F NOT PUSH1 0x1F DUP4 ADD AND SWAP1 POP SWAP2 SWAP1 POP JUMP JUMPDEST PUSH1 0x0 DUP2 PUSH1 0x60 SHL SWAP1 POP SWAP2 SWAP1 POP JUMP JUMPDEST PUSH1 0x0 DUP2 PUSH1 0xE0 SHR SWAP1 POP SWAP2 SWAP1 POP JUMP JUMPDEST PUSH32 0x455243313135353A207472616E7366657220746F206E6F6E2045524331313535 PUSH1 0x0 DUP3 ADD MSTORE PUSH32 0x526563656976657220696D706C656D656E746572000000000000000000000000 PUSH1 0x20 DUP3 ADD MSTORE POP JUMP JUMPDEST PUSH32 0x455243313135353A204552433131353552656365697665722072656A65637465 PUSH1 0x0 DUP3 ADD MSTORE PUSH32 0x6420746F6B656E73000000000000000000000000000000000000000000000000 PUSH1 0x20 DUP3 ADD MSTORE POP JUMP JUMPDEST PUSH32 0x4469616D6F6E645F000000000000000000000000000000000000000000000000 PUSH1 0x0 DUP3 ADD MSTORE POP JUMP JUMPDEST PUSH32 0x4D696E7420466565204E6F742053657400000000000000000000000000000000 PUSH1 0x0 DUP3 ADD MSTORE POP JUMP JUMPDEST PUSH32 0x476F6C645F000000000000000000000000000000000000000000000000000000 PUSH1 0x0 DUP3 ADD MSTORE POP JUMP JUMPDEST PUSH32 0x4E6F7420456E6F7567682042616C616E63650000000000000000000000000000 PUSH1 0x0 DUP3 ADD MSTORE POP JUMP JUMPDEST PUSH32 0x44726F707369746520697320616C72656164792052756E6E696E670000000000 PUSH1 0x0 DUP3 ADD MSTORE POP JUMP JUMPDEST PUSH32 0x44726F707369746520697320616C72656164792053746F707065640000000000 PUSH1 0x0 DUP3 ADD MSTORE POP JUMP JUMPDEST PUSH32 0x596F752063616E206D696E7420312D33204E4654730000000000000000000000 PUSH1 0x0 DUP3 ADD MSTORE POP JUMP JUMPDEST PUSH32 0x4F6E6C79204E46542D4553204F776E65722063616E2041636365737300000000 PUSH1 0x0 DUP3 ADD MSTORE POP JUMP JUMPDEST PUSH32 0x44726F7073697465206973206E6F74204F70656E6564205965742E0000000000 PUSH1 0x0 DUP3 ADD MSTORE POP JUMP JUMPDEST PUSH32 0x4D6178204D696E74696E67204C696D6974207265616368656400000000000000 PUSH1 0x0 DUP3 ADD MSTORE POP JUMP JUMPDEST PUSH32 0x53696C7665725F00000000000000000000000000000000000000000000000000 PUSH1 0x0 DUP3 ADD MSTORE POP JUMP JUMPDEST PUSH32 0x4572726F7221204E6F2042616C616E636520746F207769746864726177000000 PUSH1 0x0 DUP3 ADD MSTORE POP JUMP JUMPDEST PUSH32 0x455243313135353A206D696E7420746F20746865207A65726F20616464726573 PUSH1 0x0 DUP3 ADD MSTORE PUSH32 0x7300000000000000000000000000000000000000000000000000000000000000 PUSH1 0x20 DUP3 ADD MSTORE POP JUMP JUMPDEST PUSH1 0x0 PUSH1 0x44 RETURNDATASIZE LT ISZERO PUSH2 0x2DD3 JUMPI PUSH2 0x2E56 JUMP JUMPDEST PUSH2 0x2DDB PUSH2 0x2658 JUMP JUMPDEST PUSH1 0x4 RETURNDATASIZE SUB PUSH1 0x4 DUP3 RETURNDATACOPY DUP1 MLOAD RETURNDATASIZE PUSH1 0x24 DUP3 ADD GT PUSH8 0xFFFFFFFFFFFFFFFF DUP3 GT OR ISZERO PUSH2 0x2E03 JUMPI POP POP PUSH2 0x2E56 JUMP JUMPDEST DUP1 DUP3 ADD DUP1 MLOAD PUSH8 0xFFFFFFFFFFFFFFFF DUP2 GT ISZERO PUSH2 0x2E21 JUMPI POP POP POP POP PUSH2 0x2E56 JUMP JUMPDEST DUP1 PUSH1 0x20 DUP4 ADD ADD PUSH1 0x4 RETURNDATASIZE SUB DUP6 ADD DUP2 GT ISZERO PUSH2 0x2E3E JUMPI POP POP POP POP POP PUSH2 0x2E56 JUMP JUMPDEST PUSH2 0x2E4D DUP3 PUSH1 0x20 ADD DUP6 ADD DUP7 PUSH2 0x28C2 JUMP JUMPDEST DUP3 SWAP6 POP POP POP POP POP POP JUMPDEST SWAP1 JUMP JUMPDEST PUSH2 0x2E62 DUP2 PUSH2 0x27D7 JUMP JUMPDEST DUP2 EQ PUSH2 0x2E6D JUMPI PUSH1 0x0 DUP1 REVERT JUMPDEST POP JUMP JUMPDEST PUSH2 0x2E79 DUP2 PUSH2 0x27E9 JUMP JUMPDEST DUP2 EQ PUSH2 0x2E84 JUMPI PUSH1 0x0 DUP1 REVERT JUMPDEST POP JUMP JUMPDEST PUSH2 0x2E90 DUP2 PUSH2 0x2807 JUMP JUMPDEST DUP2 EQ PUSH2 0x2E9B JUMPI PUSH1 0x0 DUP1 REVERT JUMPDEST POP JUMP JUMPDEST PUSH2 0x2EA7 DUP2 PUSH2 0x2853 JUMP JUMPDEST DUP2 EQ PUSH2 0x2EB2 JUMPI PUSH1 0x0 DUP1 REVERT JUMPDEST POP JUMP INVALID LOG2 PUSH5 0x6970667358 0x22 SLT KECCAK256 CREATE2 RETURNDATACOPY 0x4B 0x2B 0xBD DUP15 0x2E PUSH8 0xB30CC4D4C3912C77 PUSH12 0x73B409D66B260351F040AEB9 DUP1 PUSH27 0x4B64736F6C63430008070033000000000000000000000000000000 "
				},
				"gasEstimates": {
					"creation": {
						"codeDepositCost": "2402200",
						"executionCost": "infinite",
						"totalCost": "infinite"
					},
					"external": {
						"ContractBalance()": "2736",
						"CryptoRandomMint(address,uint256)": "infinite",
						"FiatRandomMint(address,uint256)": "infinite",
						"Owner()": "2608",
						"checkMintedCategoryWise()": "infinite",
						"checkTotalMinted()": "4716",
						"getMintFee()": "6908",
						"isPaused()": "2493",
						"openDropsite()": "28905",
						"randomMinting(address)": "infinite",
						"returnOwner(address)": "infinite",
						"setMintFee(uint256)": "27012",
						"stopDropsite()": "28904",
						"withDraw(address)": "infinite"
					},
					"internal": {
						"depositAmount(address,uint256)": "infinite",
						"random()": "infinite",
						"updateConditions(uint256)": "infinite"
					}
				},
				"methodIdentifiers": {
					"ContractBalance()": "3b668059",
					"CryptoRandomMint(address,uint256)": "59ba3124",
					"FiatRandomMint(address,uint256)": "27a8a072",
					"Owner()": "b4a99a4e",
					"checkMintedCategoryWise()": "60daa851",
					"checkTotalMinted()": "0390c11c",
					"getMintFee()": "7a5caab3",
					"isPaused()": "b187bd26",
					"openDropsite()": "15460259",
					"randomMinting(address)": "546fd992",
					"returnOwner(address)": "fd6c3b1b",
					"setMintFee(uint256)": "eddd0d9c",
					"stopDropsite()": "aa90c726",
					"withDraw(address)": "0a67d2c7"
				}
			},
			"userdoc": {
				"kind": "user",
				"methods": {},
				"version": 1
			}
		}
	}
}