{
	"RandomTest.sol": {
		"RandomTest": {
			"abi": [
				{
					"inputs": [
						{
							"internalType": "uint256",
							"name": "x",
							"type": "uint256"
						},
						{
							"internalType": "uint256",
							"name": "y",
							"type": "uint256"
						},
						{
							"internalType": "uint256",
							"name": "z",
							"type": "uint256"
						},
						{
							"internalType": "uint256",
							"name": "px",
							"type": "uint256"
						},
						{
							"internalType": "uint256",
							"name": "py",
							"type": "uint256"
						},
						{
							"internalType": "uint256",
							"name": "pz",
							"type": "uint256"
						}
					],
					"name": "random",
					"outputs": [
						{
							"internalType": "uint256",
							"name": "",
							"type": "uint256"
						}
					],
					"stateMutability": "pure",
					"type": "function"
				}
			],
			"devdoc": {
				"kind": "dev",
				"methods": {},
				"version": 1
			},
			"evm": {
				"assembly": "    /* \"RandomTest.sol\":54:713  contract RandomTest{... */\n  mstore(0x40, 0x80)\n  callvalue\n  dup1\n  iszero\n  tag_1\n  jumpi\n  0x00\n  dup1\n  revert\ntag_1:\n  pop\n  dataSize(sub_0)\n  dup1\n  dataOffset(sub_0)\n  0x00\n  codecopy\n  0x00\n  return\nstop\n\nsub_0: assembly {\n        /* \"RandomTest.sol\":54:713  contract RandomTest{... */\n      mstore(0x40, 0x80)\n      callvalue\n      dup1\n      iszero\n      tag_1\n      jumpi\n      0x00\n      dup1\n      revert\n    tag_1:\n      pop\n      jumpi(tag_2, lt(calldatasize, 0x04))\n      shr(0xe0, calldataload(0x00))\n      dup1\n      0xc1a5f169\n      eq\n      tag_3\n      jumpi\n    tag_2:\n      0x00\n      dup1\n      revert\n        /* \"RandomTest.sol\":79:711  function random(uint x, uint y, uint z, uint px, uint py, uint pz) public pure returns (uint)... */\n    tag_3:\n      tag_4\n      0x04\n      dup1\n      calldatasize\n      sub\n      dup2\n      add\n      swap1\n      tag_5\n      swap2\n      swap1\n      tag_6\n      jump\t// in\n    tag_5:\n      tag_7\n      jump\t// in\n    tag_4:\n      mload(0x40)\n      tag_8\n      swap2\n      swap1\n      tag_9\n      jump\t// in\n    tag_8:\n      mload(0x40)\n      dup1\n      swap2\n      sub\n      swap1\n      return\n    tag_7:\n        /* \"RandomTest.sol\":167:171  uint */\n      0x00\n        /* \"RandomTest.sol\":244:250  uint r */\n      dup1\n        /* \"RandomTest.sol\":253:254  0 */\n      0x00\n        /* \"RandomTest.sol\":244:254  uint r = 0 */\n      swap1\n      pop\n        /* \"RandomTest.sol\":346:348  px */\n      dup5\n        /* \"RandomTest.sol\":341:342  r */\n      dup2\n        /* \"RandomTest.sol\":341:348  r <= px */\n      gt\n        /* \"RandomTest.sol\":337:374  if (r <= px)... */\n      tag_11\n      jumpi\n        /* \"RandomTest.sol\":373:374  x */\n      dup8\n        /* \"RandomTest.sol\":366:374  return x */\n      swap2\n      pop\n      pop\n      jump(tag_10)\n        /* \"RandomTest.sol\":337:374  if (r <= px)... */\n    tag_11:\n        /* \"RandomTest.sol\":516:518  py */\n      dup4\n        /* \"RandomTest.sol\":513:515  px */\n      dup6\n        /* \"RandomTest.sol\":513:518  px+py */\n      tag_12\n      swap2\n      swap1\n      tag_13\n      jump\t// in\n    tag_12:\n        /* \"RandomTest.sol\":507:508  r */\n      dup2\n        /* \"RandomTest.sol\":507:519  r <= (px+py) */\n      gt\n        /* \"RandomTest.sol\":503:704  if (r <= (px+py))... */\n      tag_14\n      jumpi\n        /* \"RandomTest.sol\":544:545  y */\n      dup7\n        /* \"RandomTest.sol\":537:545  return y */\n      swap2\n      pop\n      pop\n      jump(tag_10)\n        /* \"RandomTest.sol\":503:704  if (r <= (px+py))... */\n    tag_14:\n        /* \"RandomTest.sol\":703:704  z */\n      dup6\n        /* \"RandomTest.sol\":696:704  return z */\n      swap2\n      pop\n      pop\n        /* \"RandomTest.sol\":79:711  function random(uint x, uint y, uint z, uint px, uint py, uint pz) public pure returns (uint)... */\n    tag_10:\n      swap7\n      swap6\n      pop\n      pop\n      pop\n      pop\n      pop\n      pop\n      jump\t// out\n        /* \"#utility.yul\":7:146   */\n    tag_17:\n        /* \"#utility.yul\":53:58   */\n      0x00\n        /* \"#utility.yul\":91:97   */\n      dup2\n        /* \"#utility.yul\":78:98   */\n      calldataload\n        /* \"#utility.yul\":69:98   */\n      swap1\n      pop\n        /* \"#utility.yul\":107:140   */\n      tag_19\n        /* \"#utility.yul\":134:139   */\n      dup2\n        /* \"#utility.yul\":107:140   */\n      tag_20\n      jump\t// in\n    tag_19:\n        /* \"#utility.yul\":7:146   */\n      swap3\n      swap2\n      pop\n      pop\n      jump\t// out\n        /* \"#utility.yul\":152:1209   */\n    tag_6:\n        /* \"#utility.yul\":256:262   */\n      0x00\n        /* \"#utility.yul\":264:270   */\n      dup1\n        /* \"#utility.yul\":272:278   */\n      0x00\n        /* \"#utility.yul\":280:286   */\n      dup1\n        /* \"#utility.yul\":288:294   */\n      0x00\n        /* \"#utility.yul\":296:302   */\n      dup1\n        /* \"#utility.yul\":345:348   */\n      0xc0\n        /* \"#utility.yul\":333:342   */\n      dup8\n        /* \"#utility.yul\":324:331   */\n      dup10\n        /* \"#utility.yul\":320:343   */\n      sub\n        /* \"#utility.yul\":316:349   */\n      slt\n        /* \"#utility.yul\":313:433   */\n      iszero\n      tag_22\n      jumpi\n        /* \"#utility.yul\":352:431   */\n      tag_23\n      tag_24\n      jump\t// in\n    tag_23:\n        /* \"#utility.yul\":313:433   */\n    tag_22:\n        /* \"#utility.yul\":472:473   */\n      0x00\n        /* \"#utility.yul\":497:550   */\n      tag_25\n        /* \"#utility.yul\":542:549   */\n      dup10\n        /* \"#utility.yul\":533:539   */\n      dup3\n        /* \"#utility.yul\":522:531   */\n      dup11\n        /* \"#utility.yul\":518:540   */\n      add\n        /* \"#utility.yul\":497:550   */\n      tag_17\n      jump\t// in\n    tag_25:\n        /* \"#utility.yul\":487:550   */\n      swap7\n      pop\n        /* \"#utility.yul\":443:560   */\n      pop\n        /* \"#utility.yul\":599:601   */\n      0x20\n        /* \"#utility.yul\":625:678   */\n      tag_26\n        /* \"#utility.yul\":670:677   */\n      dup10\n        /* \"#utility.yul\":661:667   */\n      dup3\n        /* \"#utility.yul\":650:659   */\n      dup11\n        /* \"#utility.yul\":646:668   */\n      add\n        /* \"#utility.yul\":625:678   */\n      tag_17\n      jump\t// in\n    tag_26:\n        /* \"#utility.yul\":615:678   */\n      swap6\n      pop\n        /* \"#utility.yul\":570:688   */\n      pop\n        /* \"#utility.yul\":727:729   */\n      0x40\n        /* \"#utility.yul\":753:806   */\n      tag_27\n        /* \"#utility.yul\":798:805   */\n      dup10\n        /* \"#utility.yul\":789:795   */\n      dup3\n        /* \"#utility.yul\":778:787   */\n      dup11\n        /* \"#utility.yul\":774:796   */\n      add\n        /* \"#utility.yul\":753:806   */\n      tag_17\n      jump\t// in\n    tag_27:\n        /* \"#utility.yul\":743:806   */\n      swap5\n      pop\n        /* \"#utility.yul\":698:816   */\n      pop\n        /* \"#utility.yul\":855:857   */\n      0x60\n        /* \"#utility.yul\":881:934   */\n      tag_28\n        /* \"#utility.yul\":926:933   */\n      dup10\n        /* \"#utility.yul\":917:923   */\n      dup3\n        /* \"#utility.yul\":906:915   */\n      dup11\n        /* \"#utility.yul\":902:924   */\n      add\n        /* \"#utility.yul\":881:934   */\n      tag_17\n      jump\t// in\n    tag_28:\n        /* \"#utility.yul\":871:934   */\n      swap4\n      pop\n        /* \"#utility.yul\":826:944   */\n      pop\n        /* \"#utility.yul\":983:986   */\n      0x80\n        /* \"#utility.yul\":1010:1063   */\n      tag_29\n        /* \"#utility.yul\":1055:1062   */\n      dup10\n        /* \"#utility.yul\":1046:1052   */\n      dup3\n        /* \"#utility.yul\":1035:1044   */\n      dup11\n        /* \"#utility.yul\":1031:1053   */\n      add\n        /* \"#utility.yul\":1010:1063   */\n      tag_17\n      jump\t// in\n    tag_29:\n        /* \"#utility.yul\":1000:1063   */\n      swap3\n      pop\n        /* \"#utility.yul\":954:1073   */\n      pop\n        /* \"#utility.yul\":1112:1115   */\n      0xa0\n        /* \"#utility.yul\":1139:1192   */\n      tag_30\n        /* \"#utility.yul\":1184:1191   */\n      dup10\n        /* \"#utility.yul\":1175:1181   */\n      dup3\n        /* \"#utility.yul\":1164:1173   */\n      dup11\n        /* \"#utility.yul\":1160:1182   */\n      add\n        /* \"#utility.yul\":1139:1192   */\n      tag_17\n      jump\t// in\n    tag_30:\n        /* \"#utility.yul\":1129:1192   */\n      swap2\n      pop\n        /* \"#utility.yul\":1083:1202   */\n      pop\n        /* \"#utility.yul\":152:1209   */\n      swap3\n      swap6\n      pop\n      swap3\n      swap6\n      pop\n      swap3\n      swap6\n      jump\t// out\n        /* \"#utility.yul\":1215:1333   */\n    tag_31:\n        /* \"#utility.yul\":1302:1326   */\n      tag_33\n        /* \"#utility.yul\":1320:1325   */\n      dup2\n        /* \"#utility.yul\":1302:1326   */\n      tag_34\n      jump\t// in\n    tag_33:\n        /* \"#utility.yul\":1297:1300   */\n      dup3\n        /* \"#utility.yul\":1290:1327   */\n      mstore\n        /* \"#utility.yul\":1215:1333   */\n      pop\n      pop\n      jump\t// out\n        /* \"#utility.yul\":1339:1561   */\n    tag_9:\n        /* \"#utility.yul\":1432:1436   */\n      0x00\n        /* \"#utility.yul\":1470:1472   */\n      0x20\n        /* \"#utility.yul\":1459:1468   */\n      dup3\n        /* \"#utility.yul\":1455:1473   */\n      add\n        /* \"#utility.yul\":1447:1473   */\n      swap1\n      pop\n        /* \"#utility.yul\":1483:1554   */\n      tag_36\n        /* \"#utility.yul\":1551:1552   */\n      0x00\n        /* \"#utility.yul\":1540:1549   */\n      dup4\n        /* \"#utility.yul\":1536:1553   */\n      add\n        /* \"#utility.yul\":1527:1533   */\n      dup5\n        /* \"#utility.yul\":1483:1554   */\n      tag_31\n      jump\t// in\n    tag_36:\n        /* \"#utility.yul\":1339:1561   */\n      swap3\n      swap2\n      pop\n      pop\n      jump\t// out\n        /* \"#utility.yul\":1648:1953   */\n    tag_13:\n        /* \"#utility.yul\":1688:1691   */\n      0x00\n        /* \"#utility.yul\":1707:1727   */\n      tag_40\n        /* \"#utility.yul\":1725:1726   */\n      dup3\n        /* \"#utility.yul\":1707:1727   */\n      tag_34\n      jump\t// in\n    tag_40:\n        /* \"#utility.yul\":1702:1727   */\n      swap2\n      pop\n        /* \"#utility.yul\":1741:1761   */\n      tag_41\n        /* \"#utility.yul\":1759:1760   */\n      dup4\n        /* \"#utility.yul\":1741:1761   */\n      tag_34\n      jump\t// in\n    tag_41:\n        /* \"#utility.yul\":1736:1761   */\n      swap3\n      pop\n        /* \"#utility.yul\":1895:1896   */\n      dup3\n        /* \"#utility.yul\":1827:1893   */\n      0xffffffffffffffffffffffffffffffffffffffffffffffffffffffffffffffff\n        /* \"#utility.yul\":1823:1897   */\n      sub\n        /* \"#utility.yul\":1820:1821   */\n      dup3\n        /* \"#utility.yul\":1817:1898   */\n      gt\n        /* \"#utility.yul\":1814:1921   */\n      iszero\n      tag_42\n      jumpi\n        /* \"#utility.yul\":1901:1919   */\n      tag_43\n      tag_44\n      jump\t// in\n    tag_43:\n        /* \"#utility.yul\":1814:1921   */\n    tag_42:\n        /* \"#utility.yul\":1945:1946   */\n      dup3\n        /* \"#utility.yul\":1942:1943   */\n      dup3\n        /* \"#utility.yul\":1938:1947   */\n      add\n        /* \"#utility.yul\":1931:1947   */\n      swap1\n      pop\n        /* \"#utility.yul\":1648:1953   */\n      swap3\n      swap2\n      pop\n      pop\n      jump\t// out\n        /* \"#utility.yul\":1959:2036   */\n    tag_34:\n        /* \"#utility.yul\":1996:2003   */\n      0x00\n        /* \"#utility.yul\":2025:2030   */\n      dup2\n        /* \"#utility.yul\":2014:2030   */\n      swap1\n      pop\n        /* \"#utility.yul\":1959:2036   */\n      swap2\n      swap1\n      pop\n      jump\t// out\n        /* \"#utility.yul\":2042:2222   */\n    tag_44:\n        /* \"#utility.yul\":2090:2167   */\n      0x4e487b7100000000000000000000000000000000000000000000000000000000\n        /* \"#utility.yul\":2087:2088   */\n      0x00\n        /* \"#utility.yul\":2080:2168   */\n      mstore\n        /* \"#utility.yul\":2187:2191   */\n      0x11\n        /* \"#utility.yul\":2184:2185   */\n      0x04\n        /* \"#utility.yul\":2177:2192   */\n      mstore\n        /* \"#utility.yul\":2211:2215   */\n      0x24\n        /* \"#utility.yul\":2208:2209   */\n      0x00\n        /* \"#utility.yul\":2201:2216   */\n      revert\n        /* \"#utility.yul\":2351:2468   */\n    tag_24:\n        /* \"#utility.yul\":2460:2461   */\n      0x00\n        /* \"#utility.yul\":2457:2458   */\n      dup1\n        /* \"#utility.yul\":2450:2462   */\n      revert\n        /* \"#utility.yul\":2474:2596   */\n    tag_20:\n        /* \"#utility.yul\":2547:2571   */\n      tag_51\n        /* \"#utility.yul\":2565:2570   */\n      dup2\n        /* \"#utility.yul\":2547:2571   */\n      tag_34\n      jump\t// in\n    tag_51:\n        /* \"#utility.yul\":2540:2545   */\n      dup2\n        /* \"#utility.yul\":2537:2572   */\n      eq\n        /* \"#utility.yul\":2527:2590   */\n      tag_52\n      jumpi\n        /* \"#utility.yul\":2586:2587   */\n      0x00\n        /* \"#utility.yul\":2583:2584   */\n      dup1\n        /* \"#utility.yul\":2576:2588   */\n      revert\n        /* \"#utility.yul\":2527:2590   */\n    tag_52:\n        /* \"#utility.yul\":2474:2596   */\n      pop\n      jump\t// out\n\n    auxdata: 0xa2646970667358221220dadb661ac02312d6ab7dbdc317f04f16d30d15d50868d953e40110a5b192faf864736f6c63430008070033\n}\n",
				"bytecode": {
					"linkReferences": {},
					"object": "608060405234801561001057600080fd5b5061024e806100206000396000f3fe608060405234801561001057600080fd5b506004361061002b5760003560e01c8063c1a5f16914610030575b600080fd5b61004a600480360381019061004591906100b6565b610060565b6040516100579190610152565b60405180910390f35b600080600090508481116100775787915050610097565b8385610083919061016d565b81116100925786915050610097565b859150505b9695505050505050565b6000813590506100b081610201565b92915050565b60008060008060008060c087890312156100d3576100d26101fc565b5b60006100e189828a016100a1565b96505060206100f289828a016100a1565b955050604061010389828a016100a1565b945050606061011489828a016100a1565b935050608061012589828a016100a1565b92505060a061013689828a016100a1565b9150509295509295509295565b61014c816101c3565b82525050565b60006020820190506101676000830184610143565b92915050565b6000610178826101c3565b9150610183836101c3565b9250827fffffffffffffffffffffffffffffffffffffffffffffffffffffffffffffffff038211156101b8576101b76101cd565b5b828201905092915050565b6000819050919050565b7f4e487b7100000000000000000000000000000000000000000000000000000000600052601160045260246000fd5b600080fd5b61020a816101c3565b811461021557600080fd5b5056fea2646970667358221220dadb661ac02312d6ab7dbdc317f04f16d30d15d50868d953e40110a5b192faf864736f6c63430008070033",
					"opcodes": "PUSH1 0x80 PUSH1 0x40 MSTORE CALLVALUE DUP1 ISZERO PUSH2 0x10 JUMPI PUSH1 0x0 DUP1 REVERT JUMPDEST POP PUSH2 0x24E DUP1 PUSH2 0x20 PUSH1 0x0 CODECOPY PUSH1 0x0 RETURN INVALID PUSH1 0x80 PUSH1 0x40 MSTORE CALLVALUE DUP1 ISZERO PUSH2 0x10 JUMPI PUSH1 0x0 DUP1 REVERT JUMPDEST POP PUSH1 0x4 CALLDATASIZE LT PUSH2 0x2B JUMPI PUSH1 0x0 CALLDATALOAD PUSH1 0xE0 SHR DUP1 PUSH4 0xC1A5F169 EQ PUSH2 0x30 JUMPI JUMPDEST PUSH1 0x0 DUP1 REVERT JUMPDEST PUSH2 0x4A PUSH1 0x4 DUP1 CALLDATASIZE SUB DUP2 ADD SWAP1 PUSH2 0x45 SWAP2 SWAP1 PUSH2 0xB6 JUMP JUMPDEST PUSH2 0x60 JUMP JUMPDEST PUSH1 0x40 MLOAD PUSH2 0x57 SWAP2 SWAP1 PUSH2 0x152 JUMP JUMPDEST PUSH1 0x40 MLOAD DUP1 SWAP2 SUB SWAP1 RETURN JUMPDEST PUSH1 0x0 DUP1 PUSH1 0x0 SWAP1 POP DUP5 DUP2 GT PUSH2 0x77 JUMPI DUP8 SWAP2 POP POP PUSH2 0x97 JUMP JUMPDEST DUP4 DUP6 PUSH2 0x83 SWAP2 SWAP1 PUSH2 0x16D JUMP JUMPDEST DUP2 GT PUSH2 0x92 JUMPI DUP7 SWAP2 POP POP PUSH2 0x97 JUMP JUMPDEST DUP6 SWAP2 POP POP JUMPDEST SWAP7 SWAP6 POP POP POP POP POP POP JUMP JUMPDEST PUSH1 0x0 DUP2 CALLDATALOAD SWAP1 POP PUSH2 0xB0 DUP2 PUSH2 0x201 JUMP JUMPDEST SWAP3 SWAP2 POP POP JUMP JUMPDEST PUSH1 0x0 DUP1 PUSH1 0x0 DUP1 PUSH1 0x0 DUP1 PUSH1 0xC0 DUP8 DUP10 SUB SLT ISZERO PUSH2 0xD3 JUMPI PUSH2 0xD2 PUSH2 0x1FC JUMP JUMPDEST JUMPDEST PUSH1 0x0 PUSH2 0xE1 DUP10 DUP3 DUP11 ADD PUSH2 0xA1 JUMP JUMPDEST SWAP7 POP POP PUSH1 0x20 PUSH2 0xF2 DUP10 DUP3 DUP11 ADD PUSH2 0xA1 JUMP JUMPDEST SWAP6 POP POP PUSH1 0x40 PUSH2 0x103 DUP10 DUP3 DUP11 ADD PUSH2 0xA1 JUMP JUMPDEST SWAP5 POP POP PUSH1 0x60 PUSH2 0x114 DUP10 DUP3 DUP11 ADD PUSH2 0xA1 JUMP JUMPDEST SWAP4 POP POP PUSH1 0x80 PUSH2 0x125 DUP10 DUP3 DUP11 ADD PUSH2 0xA1 JUMP JUMPDEST SWAP3 POP POP PUSH1 0xA0 PUSH2 0x136 DUP10 DUP3 DUP11 ADD PUSH2 0xA1 JUMP JUMPDEST SWAP2 POP POP SWAP3 SWAP6 POP SWAP3 SWAP6 POP SWAP3 SWAP6 JUMP JUMPDEST PUSH2 0x14C DUP2 PUSH2 0x1C3 JUMP JUMPDEST DUP3 MSTORE POP POP JUMP JUMPDEST PUSH1 0x0 PUSH1 0x20 DUP3 ADD SWAP1 POP PUSH2 0x167 PUSH1 0x0 DUP4 ADD DUP5 PUSH2 0x143 JUMP JUMPDEST SWAP3 SWAP2 POP POP JUMP JUMPDEST PUSH1 0x0 PUSH2 0x178 DUP3 PUSH2 0x1C3 JUMP JUMPDEST SWAP2 POP PUSH2 0x183 DUP4 PUSH2 0x1C3 JUMP JUMPDEST SWAP3 POP DUP3 PUSH32 0xFFFFFFFFFFFFFFFFFFFFFFFFFFFFFFFFFFFFFFFFFFFFFFFFFFFFFFFFFFFFFFFF SUB DUP3 GT ISZERO PUSH2 0x1B8 JUMPI PUSH2 0x1B7 PUSH2 0x1CD JUMP JUMPDEST JUMPDEST DUP3 DUP3 ADD SWAP1 POP SWAP3 SWAP2 POP POP JUMP JUMPDEST PUSH1 0x0 DUP2 SWAP1 POP SWAP2 SWAP1 POP JUMP JUMPDEST PUSH32 0x4E487B7100000000000000000000000000000000000000000000000000000000 PUSH1 0x0 MSTORE PUSH1 0x11 PUSH1 0x4 MSTORE PUSH1 0x24 PUSH1 0x0 REVERT JUMPDEST PUSH1 0x0 DUP1 REVERT JUMPDEST PUSH2 0x20A DUP2 PUSH2 0x1C3 JUMP JUMPDEST DUP2 EQ PUSH2 0x215 JUMPI PUSH1 0x0 DUP1 REVERT JUMPDEST POP JUMP INVALID LOG2 PUSH5 0x6970667358 0x22 SLT KECCAK256 0xDA 0xDB PUSH7 0x1AC02312D6AB7D 0xBD 0xC3 OR CREATE 0x4F AND 0xD3 0xD ISZERO 0xD5 ADDMOD PUSH9 0xD953E40110A5B192FA 0xF8 PUSH5 0x736F6C6343 STOP ADDMOD SMOD STOP CALLER "
				},
				"gasEstimates": {
					"creation": {
						"codeDepositCost": "118000",
						"executionCost": "165",
						"totalCost": "118165"
					},
					"external": {
						"random(uint256,uint256,uint256,uint256,uint256,uint256)": "infinite"
					}
				},
				"methodIdentifiers": {
					"random(uint256,uint256,uint256,uint256,uint256,uint256)": "c1a5f169"
				}
			},
			"userdoc": {
				"kind": "user",
				"methods": {},
				"version": 1
			}
		}
	}
}