{
	"Dropsite.sol": {
		"Dropsite": {
			"abi": [
				{
					"inputs": [
						{
							"internalType": "string",
							"name": "name",
							"type": "string"
						}
					],
					"stateMutability": "nonpayable",
					"type": "constructor"
				},
				{
					"anonymous": false,
					"inputs": [
						{
							"indexed": true,
							"internalType": "address",
							"name": "operator",
							"type": "address"
						},
						{
							"indexed": true,
							"internalType": "address",
							"name": "from",
							"type": "address"
						},
						{
							"indexed": true,
							"internalType": "address",
							"name": "to",
							"type": "address"
						},
						{
							"indexed": false,
							"internalType": "uint256",
							"name": "id",
							"type": "uint256"
						},
						{
							"indexed": false,
							"internalType": "uint256",
							"name": "value",
							"type": "uint256"
						}
					],
					"name": "TransferSingle",
					"type": "event"
				},
				{
					"inputs": [],
					"name": "ContractBalance",
					"outputs": [
						{
							"internalType": "uint256",
							"name": "",
							"type": "uint256"
						}
					],
					"stateMutability": "view",
					"type": "function"
				},
				{
					"inputs": [
						{
							"internalType": "address",
							"name": "user_addr",
							"type": "address"
						},
						{
							"internalType": "uint256",
							"name": "noOfMints",
							"type": "uint256"
						}
					],
					"name": "CryptoRandomMint",
					"outputs": [
						{
							"internalType": "uint256[]",
							"name": "",
							"type": "uint256[]"
						},
						{
							"internalType": "string[]",
							"name": "",
							"type": "string[]"
						}
					],
					"stateMutability": "payable",
					"type": "function"
				},
				{
					"inputs": [
						{
							"internalType": "address",
							"name": "user_addr",
							"type": "address"
						},
						{
							"internalType": "uint256",
							"name": "noOfMints",
							"type": "uint256"
						}
					],
					"name": "FiatRandomMint",
					"outputs": [
						{
							"internalType": "uint256[]",
							"name": "",
							"type": "uint256[]"
						},
						{
							"internalType": "string[]",
							"name": "",
							"type": "string[]"
						}
					],
					"stateMutability": "nonpayable",
					"type": "function"
				},
				{
					"inputs": [],
					"name": "IsPaused",
					"outputs": [
						{
							"internalType": "bool",
							"name": "",
							"type": "bool"
						}
					],
					"stateMutability": "view",
					"type": "function"
				},
				{
					"inputs": [],
					"name": "Owner",
					"outputs": [
						{
							"internalType": "address payable",
							"name": "",
							"type": "address"
						}
					],
					"stateMutability": "view",
					"type": "function"
				},
				{
					"inputs": [],
					"name": "checkMintedCategoryWise",
					"outputs": [
						{
							"internalType": "uint256",
							"name": "",
							"type": "uint256"
						},
						{
							"internalType": "uint256",
							"name": "",
							"type": "uint256"
						},
						{
							"internalType": "uint256",
							"name": "",
							"type": "uint256"
						}
					],
					"stateMutability": "view",
					"type": "function"
				},
				{
					"inputs": [],
					"name": "checkTotalMinted",
					"outputs": [
						{
							"internalType": "uint256",
							"name": "",
							"type": "uint256"
						}
					],
					"stateMutability": "view",
					"type": "function"
				},
				{
					"inputs": [],
					"name": "getMintFee",
					"outputs": [
						{
							"internalType": "uint256",
							"name": "",
							"type": "uint256"
						}
					],
					"stateMutability": "view",
					"type": "function"
				},
				{
					"inputs": [],
					"name": "openDropsite",
					"outputs": [],
					"stateMutability": "nonpayable",
					"type": "function"
				},
				{
					"inputs": [
						{
							"internalType": "address",
							"name": "addr",
							"type": "address"
						}
					],
					"name": "returnOwner",
					"outputs": [
						{
							"internalType": "uint256[]",
							"name": "",
							"type": "uint256[]"
						}
					],
					"stateMutability": "view",
					"type": "function"
				},
				{
					"inputs": [
						{
							"internalType": "uint256",
							"name": "_mintFee",
							"type": "uint256"
						}
					],
					"name": "setMintFee",
					"outputs": [],
					"stateMutability": "nonpayable",
					"type": "function"
				},
				{
					"inputs": [],
					"name": "stopDropsite",
					"outputs": [],
					"stateMutability": "nonpayable",
					"type": "function"
				},
				{
					"inputs": [
						{
							"internalType": "address payable",
							"name": "to",
							"type": "address"
						}
					],
					"name": "withDraw",
					"outputs": [],
					"stateMutability": "payable",
					"type": "function"
				}
			],
			"devdoc": {
				"kind": "dev",
				"methods": {},
				"version": 1
			},
			"evm": {
				"assembly": "    /* \"Dropsite.sol\":146:6863  contract Dropsite is ERC1155_Dropsite  { ... */\n  mstore(0x40, 0x80)\n    /* \"Dropsite.sol\":241:257  string  data =\"\" */\n  mload(0x40)\n  dup1\n  0x20\n  add\n  0x40\n  mstore\n  dup1\n  0x00\n  dup2\n  mstore\n  pop\n  0x02\n  swap1\n  dup1\n  mload\n  swap1\n  0x20\n  add\n  swap1\n  tag_1\n  swap3\n  swap2\n  swap1\n  tag_2\n  jump\t// in\ntag_1:\n  pop\n    /* \"Dropsite.sol\":440:506  uint8[20] private nums = [0,1,1,2,2,2,2,2,2,2,2,2,2,2,2,2,2,2,2,2] */\n  mload(0x40)\n  dup1\n  0x0280\n  add\n  0x40\n  mstore\n  dup1\n    /* \"Dropsite.sol\":466:467  0 */\n  0x00\n    /* \"Dropsite.sol\":440:506  uint8[20] private nums = [0,1,1,2,2,2,2,2,2,2,2,2,2,2,2,2,2,2,2,2] */\n  0xff\n  and\n  dup2\n  mstore\n  0x20\n  add\n    /* \"Dropsite.sol\":468:469  1 */\n  0x01\n    /* \"Dropsite.sol\":440:506  uint8[20] private nums = [0,1,1,2,2,2,2,2,2,2,2,2,2,2,2,2,2,2,2,2] */\n  0xff\n  and\n  dup2\n  mstore\n  0x20\n  add\n    /* \"Dropsite.sol\":470:471  1 */\n  0x01\n    /* \"Dropsite.sol\":440:506  uint8[20] private nums = [0,1,1,2,2,2,2,2,2,2,2,2,2,2,2,2,2,2,2,2] */\n  0xff\n  and\n  dup2\n  mstore\n  0x20\n  add\n    /* \"Dropsite.sol\":472:473  2 */\n  0x02\n    /* \"Dropsite.sol\":440:506  uint8[20] private nums = [0,1,1,2,2,2,2,2,2,2,2,2,2,2,2,2,2,2,2,2] */\n  0xff\n  and\n  dup2\n  mstore\n  0x20\n  add\n    /* \"Dropsite.sol\":474:475  2 */\n  0x02\n    /* \"Dropsite.sol\":440:506  uint8[20] private nums = [0,1,1,2,2,2,2,2,2,2,2,2,2,2,2,2,2,2,2,2] */\n  0xff\n  and\n  dup2\n  mstore\n  0x20\n  add\n    /* \"Dropsite.sol\":476:477  2 */\n  0x02\n    /* \"Dropsite.sol\":440:506  uint8[20] private nums = [0,1,1,2,2,2,2,2,2,2,2,2,2,2,2,2,2,2,2,2] */\n  0xff\n  and\n  dup2\n  mstore\n  0x20\n  add\n    /* \"Dropsite.sol\":478:479  2 */\n  0x02\n    /* \"Dropsite.sol\":440:506  uint8[20] private nums = [0,1,1,2,2,2,2,2,2,2,2,2,2,2,2,2,2,2,2,2] */\n  0xff\n  and\n  dup2\n  mstore\n  0x20\n  add\n    /* \"Dropsite.sol\":480:481  2 */\n  0x02\n    /* \"Dropsite.sol\":440:506  uint8[20] private nums = [0,1,1,2,2,2,2,2,2,2,2,2,2,2,2,2,2,2,2,2] */\n  0xff\n  and\n  dup2\n  mstore\n  0x20\n  add\n    /* \"Dropsite.sol\":482:483  2 */\n  0x02\n    /* \"Dropsite.sol\":440:506  uint8[20] private nums = [0,1,1,2,2,2,2,2,2,2,2,2,2,2,2,2,2,2,2,2] */\n  0xff\n  and\n  dup2\n  mstore\n  0x20\n  add\n    /* \"Dropsite.sol\":484:485  2 */\n  0x02\n    /* \"Dropsite.sol\":440:506  uint8[20] private nums = [0,1,1,2,2,2,2,2,2,2,2,2,2,2,2,2,2,2,2,2] */\n  0xff\n  and\n  dup2\n  mstore\n  0x20\n  add\n    /* \"Dropsite.sol\":486:487  2 */\n  0x02\n    /* \"Dropsite.sol\":440:506  uint8[20] private nums = [0,1,1,2,2,2,2,2,2,2,2,2,2,2,2,2,2,2,2,2] */\n  0xff\n  and\n  dup2\n  mstore\n  0x20\n  add\n    /* \"Dropsite.sol\":488:489  2 */\n  0x02\n    /* \"Dropsite.sol\":440:506  uint8[20] private nums = [0,1,1,2,2,2,2,2,2,2,2,2,2,2,2,2,2,2,2,2] */\n  0xff\n  and\n  dup2\n  mstore\n  0x20\n  add\n    /* \"Dropsite.sol\":490:491  2 */\n  0x02\n    /* \"Dropsite.sol\":440:506  uint8[20] private nums = [0,1,1,2,2,2,2,2,2,2,2,2,2,2,2,2,2,2,2,2] */\n  0xff\n  and\n  dup2\n  mstore\n  0x20\n  add\n    /* \"Dropsite.sol\":492:493  2 */\n  0x02\n    /* \"Dropsite.sol\":440:506  uint8[20] private nums = [0,1,1,2,2,2,2,2,2,2,2,2,2,2,2,2,2,2,2,2] */\n  0xff\n  and\n  dup2\n  mstore\n  0x20\n  add\n    /* \"Dropsite.sol\":494:495  2 */\n  0x02\n    /* \"Dropsite.sol\":440:506  uint8[20] private nums = [0,1,1,2,2,2,2,2,2,2,2,2,2,2,2,2,2,2,2,2] */\n  0xff\n  and\n  dup2\n  mstore\n  0x20\n  add\n    /* \"Dropsite.sol\":496:497  2 */\n  0x02\n    /* \"Dropsite.sol\":440:506  uint8[20] private nums = [0,1,1,2,2,2,2,2,2,2,2,2,2,2,2,2,2,2,2,2] */\n  0xff\n  and\n  dup2\n  mstore\n  0x20\n  add\n    /* \"Dropsite.sol\":498:499  2 */\n  0x02\n    /* \"Dropsite.sol\":440:506  uint8[20] private nums = [0,1,1,2,2,2,2,2,2,2,2,2,2,2,2,2,2,2,2,2] */\n  0xff\n  and\n  dup2\n  mstore\n  0x20\n  add\n    /* \"Dropsite.sol\":500:501  2 */\n  0x02\n    /* \"Dropsite.sol\":440:506  uint8[20] private nums = [0,1,1,2,2,2,2,2,2,2,2,2,2,2,2,2,2,2,2,2] */\n  0xff\n  and\n  dup2\n  mstore\n  0x20\n  add\n    /* \"Dropsite.sol\":502:503  2 */\n  0x02\n    /* \"Dropsite.sol\":440:506  uint8[20] private nums = [0,1,1,2,2,2,2,2,2,2,2,2,2,2,2,2,2,2,2,2] */\n  0xff\n  and\n  dup2\n  mstore\n  0x20\n  add\n    /* \"Dropsite.sol\":504:505  2 */\n  0x02\n    /* \"Dropsite.sol\":440:506  uint8[20] private nums = [0,1,1,2,2,2,2,2,2,2,2,2,2,2,2,2,2,2,2,2] */\n  0xff\n  and\n  dup2\n  mstore\n  pop\n  0x03\n  swap1\n  0x14\n  tag_3\n  swap3\n  swap2\n  swap1\n  tag_4\n  jump\t// in\ntag_3:\n  pop\n    /* \"Dropsite.sol\":1269:1273  true */\n  0x01\n    /* \"Dropsite.sol\":1246:1273  bool public IsPaused = true */\n  0x0c\n  exp(0x0100, 0x00)\n  dup2\n  sload\n  dup2\n  0xff\n  mul\n  not\n  and\n  swap1\n  dup4\n  iszero\n  iszero\n  mul\n  or\n  swap1\n  sstore\n  pop\n    /* \"Dropsite.sol\":1340:1615  constructor (string memory name){... */\n  callvalue\n  dup1\n  iszero\n  tag_5\n  jumpi\n  0x00\n  dup1\n  revert\ntag_5:\n  pop\n  mload(0x40)\n  sub(codesize, bytecodeSize)\n  dup1\n  bytecodeSize\n  dup4\n  codecopy\n  dup2\n  dup2\n  add\n  0x40\n  mstore\n  dup2\n  add\n  swap1\n  tag_6\n  swap2\n  swap1\n  tag_7\n  jump\t// in\ntag_6:\n    /* \"Dropsite.sol\":1390:1394  name */\n  dup1\n    /* \"Dropsite.sol\":1382:1387  _name */\n  0x0d\n    /* \"Dropsite.sol\":1382:1394  _name = name */\n  swap1\n  dup1\n  mload\n  swap1\n  0x20\n  add\n  swap1\n  tag_10\n  swap3\n  swap2\n  swap1\n  tag_2\n  jump\t// in\ntag_10:\n  pop\n    /* \"Dropsite.sol\":1420:1430  msg.sender */\n  caller\n    /* \"Dropsite.sol\":1404:1409  Owner */\n  0x0c\n  0x01\n    /* \"Dropsite.sol\":1404:1431  Owner = payable(msg.sender) */\n  0x0100\n  exp\n  dup2\n  sload\n  dup2\n  0xffffffffffffffffffffffffffffffffffffffff\n  mul\n  not\n  and\n  swap1\n  dup4\n  0xffffffffffffffffffffffffffffffffffffffff\n  and\n  mul\n  or\n  swap1\n  sstore\n  pop\n    /* \"Dropsite.sol\":1458:1459  0 */\n  0x00\n    /* \"Dropsite.sol\":1442:1457  TotalNFTsMinted */\n  0x04\n    /* \"Dropsite.sol\":1442:1459  TotalNFTsMinted=0 */\n  dup2\n  swap1\n  sstore\n  pop\n    /* \"Dropsite.sol\":1505:1506  1 */\n  0x01\n    /* \"Dropsite.sol\":1493:1504  numOfCopies */\n  0x05\n    /* \"Dropsite.sol\":1493:1506  numOfCopies=1 */\n  dup2\n  swap1\n  sstore\n  pop\n    /* \"Dropsite.sol\":1561:1562  0 */\n  0x00\n    /* \"Dropsite.sol\":1553:1560  Diamond */\n  0x07\n    /* \"Dropsite.sol\":1553:1562  Diamond=0 */\n  dup2\n  swap1\n  sstore\n  pop\n    /* \"Dropsite.sol\":1589:1590  0 */\n  0x00\n    /* \"Dropsite.sol\":1584:1588  Gold */\n  0x08\n    /* \"Dropsite.sol\":1584:1590  Gold=0 */\n  dup2\n  swap1\n  sstore\n  pop\n    /* \"Dropsite.sol\":1607:1608  0 */\n  0x00\n    /* \"Dropsite.sol\":1600:1606  Silver */\n  0x09\n    /* \"Dropsite.sol\":1600:1608  Silver=0 */\n  dup2\n  swap1\n  sstore\n  pop\n    /* \"Dropsite.sol\":1340:1615  constructor (string memory name){... */\n  pop\n    /* \"Dropsite.sol\":146:6863  contract Dropsite is ERC1155_Dropsite  { ... */\n  jump(tag_11)\ntag_2:\n  dup3\n  dup1\n  sload\n  tag_12\n  swap1\n  tag_13\n  jump\t// in\ntag_12:\n  swap1\n  0x00\n  mstore\n  keccak256(0x00, 0x20)\n  swap1\n  0x1f\n  add\n  0x20\n  swap1\n  div\n  dup2\n  add\n  swap3\n  dup3\n  tag_15\n  jumpi\n  0x00\n  dup6\n  sstore\n  jump(tag_14)\ntag_15:\n  dup3\n  0x1f\n  lt\n  tag_16\n  jumpi\n  dup1\n  mload\n  not(0xff)\n  and\n  dup4\n  dup1\n  add\n  or\n  dup6\n  sstore\n  jump(tag_14)\ntag_16:\n  dup3\n  dup1\n  add\n  0x01\n  add\n  dup6\n  sstore\n  dup3\n  iszero\n  tag_14\n  jumpi\n  swap2\n  dup3\n  add\ntag_17:\n  dup3\n  dup2\n  gt\n  iszero\n  tag_18\n  jumpi\n  dup3\n  mload\n  dup3\n  sstore\n  swap2\n  0x20\n  add\n  swap2\n  swap1\n  0x01\n  add\n  swap1\n  jump(tag_17)\ntag_18:\ntag_14:\n  pop\n  swap1\n  pop\n  tag_19\n  swap2\n  swap1\n  tag_20\n  jump\t// in\ntag_19:\n  pop\n  swap1\n  jump\t// out\ntag_4:\n  dup3\n  add(0x1f, 0x14)\n  0x20\n  swap1\n  div\n  dup2\n  add\n  swap3\n  dup3\n  iszero\n  tag_21\n  jumpi\n  swap2\n  0x20\n  mul\n  dup3\n  add\n  0x00\ntag_22:\n  dup4\n  dup3\n  gt\n  iszero\n  tag_23\n  jumpi\n  dup4\n  mload\n  dup4\n  dup3\n  0x0100\n  exp\n  dup2\n  sload\n  dup2\n  0xff\n  mul\n  not\n  and\n  swap1\n  dup4\n  0xff\n  and\n  mul\n  or\n  swap1\n  sstore\n  pop\n  swap3\n  0x20\n  add\n  swap3\n  0x01\n  add\n  0x20\n  dup2\n  0x00\n  add\n  div\n  swap3\n  dup4\n  add\n  swap3\n  0x01\n  sub\n  mul\n  jump(tag_22)\ntag_23:\n  dup1\n  iszero\n  tag_24\n  jumpi\n  dup3\n  dup2\n  0x0100\n  exp\n  dup2\n  sload\n  swap1\n  0xff\n  mul\n  not\n  and\n  swap1\n  sstore\n  0x01\n  add\n  0x20\n  dup2\n  0x00\n  add\n  div\n  swap3\n  dup4\n  add\n  swap3\n  0x01\n  sub\n  mul\n  jump(tag_23)\ntag_24:\n  pop\ntag_21:\n  pop\n  swap1\n  pop\n  tag_25\n  swap2\n  swap1\n  tag_20\n  jump\t// in\ntag_25:\n  pop\n  swap1\n  jump\t// out\ntag_20:\ntag_26:\n  dup1\n  dup3\n  gt\n  iszero\n  tag_27\n  jumpi\n  0x00\n  dup2\n  0x00\n  swap1\n  sstore\n  pop\n  0x01\n  add\n  jump(tag_26)\ntag_27:\n  pop\n  swap1\n  jump\t// out\n    /* \"#utility.yul\":7:428   */\ntag_29:\n    /* \"#utility.yul\":96:101   */\n  0x00\n    /* \"#utility.yul\":121:187   */\n  tag_31\n    /* \"#utility.yul\":137:186   */\n  tag_32\n    /* \"#utility.yul\":179:185   */\n  dup5\n    /* \"#utility.yul\":137:186   */\n  tag_33\n  jump\t// in\ntag_32:\n    /* \"#utility.yul\":121:187   */\n  tag_34\n  jump\t// in\ntag_31:\n    /* \"#utility.yul\":112:187   */\n  swap1\n  pop\n    /* \"#utility.yul\":210:216   */\n  dup3\n    /* \"#utility.yul\":203:208   */\n  dup2\n    /* \"#utility.yul\":196:217   */\n  mstore\n    /* \"#utility.yul\":248:252   */\n  0x20\n    /* \"#utility.yul\":241:246   */\n  dup2\n    /* \"#utility.yul\":237:253   */\n  add\n    /* \"#utility.yul\":286:289   */\n  dup5\n    /* \"#utility.yul\":277:283   */\n  dup5\n    /* \"#utility.yul\":272:275   */\n  dup5\n    /* \"#utility.yul\":268:284   */\n  add\n    /* \"#utility.yul\":265:290   */\n  gt\n    /* \"#utility.yul\":262:374   */\n  iszero\n  tag_35\n  jumpi\n    /* \"#utility.yul\":293:372   */\n  tag_36\n  tag_37\n  jump\t// in\ntag_36:\n    /* \"#utility.yul\":262:374   */\ntag_35:\n    /* \"#utility.yul\":383:422   */\n  tag_38\n    /* \"#utility.yul\":415:421   */\n  dup5\n    /* \"#utility.yul\":410:413   */\n  dup3\n    /* \"#utility.yul\":405:408   */\n  dup6\n    /* \"#utility.yul\":383:422   */\n  tag_39\n  jump\t// in\ntag_38:\n    /* \"#utility.yul\":102:428   */\n  pop\n    /* \"#utility.yul\":7:428   */\n  swap4\n  swap3\n  pop\n  pop\n  pop\n  jump\t// out\n    /* \"#utility.yul\":448:803   */\ntag_40:\n    /* \"#utility.yul\":515:520   */\n  0x00\n    /* \"#utility.yul\":564:567   */\n  dup3\n    /* \"#utility.yul\":557:561   */\n  0x1f\n    /* \"#utility.yul\":549:555   */\n  dup4\n    /* \"#utility.yul\":545:562   */\n  add\n    /* \"#utility.yul\":541:568   */\n  slt\n    /* \"#utility.yul\":531:653   */\n  tag_42\n  jumpi\n    /* \"#utility.yul\":572:651   */\n  tag_43\n  tag_44\n  jump\t// in\ntag_43:\n    /* \"#utility.yul\":531:653   */\ntag_42:\n    /* \"#utility.yul\":682:688   */\n  dup2\n    /* \"#utility.yul\":676:689   */\n  mload\n    /* \"#utility.yul\":707:797   */\n  tag_45\n    /* \"#utility.yul\":793:796   */\n  dup5\n    /* \"#utility.yul\":785:791   */\n  dup3\n    /* \"#utility.yul\":778:782   */\n  0x20\n    /* \"#utility.yul\":770:776   */\n  dup7\n    /* \"#utility.yul\":766:783   */\n  add\n    /* \"#utility.yul\":707:797   */\n  tag_29\n  jump\t// in\ntag_45:\n    /* \"#utility.yul\":698:797   */\n  swap2\n  pop\n    /* \"#utility.yul\":521:803   */\n  pop\n    /* \"#utility.yul\":448:803   */\n  swap3\n  swap2\n  pop\n  pop\n  jump\t// out\n    /* \"#utility.yul\":809:1333   */\ntag_7:\n    /* \"#utility.yul\":889:895   */\n  0x00\n    /* \"#utility.yul\":938:940   */\n  0x20\n    /* \"#utility.yul\":926:935   */\n  dup3\n    /* \"#utility.yul\":917:924   */\n  dup5\n    /* \"#utility.yul\":913:936   */\n  sub\n    /* \"#utility.yul\":909:941   */\n  slt\n    /* \"#utility.yul\":906:1025   */\n  iszero\n  tag_47\n  jumpi\n    /* \"#utility.yul\":944:1023   */\n  tag_48\n  tag_49\n  jump\t// in\ntag_48:\n    /* \"#utility.yul\":906:1025   */\ntag_47:\n    /* \"#utility.yul\":1085:1086   */\n  0x00\n    /* \"#utility.yul\":1074:1083   */\n  dup3\n    /* \"#utility.yul\":1070:1087   */\n  add\n    /* \"#utility.yul\":1064:1088   */\n  mload\n    /* \"#utility.yul\":1115:1133   */\n  0xffffffffffffffff\n    /* \"#utility.yul\":1107:1113   */\n  dup2\n    /* \"#utility.yul\":1104:1134   */\n  gt\n    /* \"#utility.yul\":1101:1218   */\n  iszero\n  tag_50\n  jumpi\n    /* \"#utility.yul\":1137:1216   */\n  tag_51\n  tag_52\n  jump\t// in\ntag_51:\n    /* \"#utility.yul\":1101:1218   */\ntag_50:\n    /* \"#utility.yul\":1242:1316   */\n  tag_53\n    /* \"#utility.yul\":1308:1315   */\n  dup5\n    /* \"#utility.yul\":1299:1305   */\n  dup3\n    /* \"#utility.yul\":1288:1297   */\n  dup6\n    /* \"#utility.yul\":1284:1306   */\n  add\n    /* \"#utility.yul\":1242:1316   */\n  tag_40\n  jump\t// in\ntag_53:\n    /* \"#utility.yul\":1232:1316   */\n  swap2\n  pop\n    /* \"#utility.yul\":1035:1326   */\n  pop\n    /* \"#utility.yul\":809:1333   */\n  swap3\n  swap2\n  pop\n  pop\n  jump\t// out\n    /* \"#utility.yul\":1339:1468   */\ntag_34:\n    /* \"#utility.yul\":1373:1379   */\n  0x00\n    /* \"#utility.yul\":1400:1420   */\n  tag_55\n  tag_56\n  jump\t// in\ntag_55:\n    /* \"#utility.yul\":1390:1420   */\n  swap1\n  pop\n    /* \"#utility.yul\":1429:1462   */\n  tag_57\n    /* \"#utility.yul\":1457:1461   */\n  dup3\n    /* \"#utility.yul\":1449:1455   */\n  dup3\n    /* \"#utility.yul\":1429:1462   */\n  tag_58\n  jump\t// in\ntag_57:\n    /* \"#utility.yul\":1339:1468   */\n  swap2\n  swap1\n  pop\n  jump\t// out\n    /* \"#utility.yul\":1474:1549   */\ntag_56:\n    /* \"#utility.yul\":1507:1513   */\n  0x00\n    /* \"#utility.yul\":1540:1542   */\n  0x40\n    /* \"#utility.yul\":1534:1543   */\n  mload\n    /* \"#utility.yul\":1524:1543   */\n  swap1\n  pop\n    /* \"#utility.yul\":1474:1549   */\n  swap1\n  jump\t// out\n    /* \"#utility.yul\":1555:1863   */\ntag_33:\n    /* \"#utility.yul\":1617:1621   */\n  0x00\n    /* \"#utility.yul\":1707:1725   */\n  0xffffffffffffffff\n    /* \"#utility.yul\":1699:1705   */\n  dup3\n    /* \"#utility.yul\":1696:1726   */\n  gt\n    /* \"#utility.yul\":1693:1749   */\n  iszero\n  tag_61\n  jumpi\n    /* \"#utility.yul\":1729:1747   */\n  tag_62\n  tag_63\n  jump\t// in\ntag_62:\n    /* \"#utility.yul\":1693:1749   */\ntag_61:\n    /* \"#utility.yul\":1767:1796   */\n  tag_64\n    /* \"#utility.yul\":1789:1795   */\n  dup3\n    /* \"#utility.yul\":1767:1796   */\n  tag_65\n  jump\t// in\ntag_64:\n    /* \"#utility.yul\":1759:1796   */\n  swap1\n  pop\n    /* \"#utility.yul\":1851:1855   */\n  0x20\n    /* \"#utility.yul\":1845:1849   */\n  dup2\n    /* \"#utility.yul\":1841:1856   */\n  add\n    /* \"#utility.yul\":1833:1856   */\n  swap1\n  pop\n    /* \"#utility.yul\":1555:1863   */\n  swap2\n  swap1\n  pop\n  jump\t// out\n    /* \"#utility.yul\":1869:2176   */\ntag_39:\n    /* \"#utility.yul\":1937:1938   */\n  0x00\n    /* \"#utility.yul\":1947:2060   */\ntag_67:\n    /* \"#utility.yul\":1961:1967   */\n  dup4\n    /* \"#utility.yul\":1958:1959   */\n  dup2\n    /* \"#utility.yul\":1955:1968   */\n  lt\n    /* \"#utility.yul\":1947:2060   */\n  iszero\n  tag_69\n  jumpi\n    /* \"#utility.yul\":2046:2047   */\n  dup1\n    /* \"#utility.yul\":2041:2044   */\n  dup3\n    /* \"#utility.yul\":2037:2048   */\n  add\n    /* \"#utility.yul\":2031:2049   */\n  mload\n    /* \"#utility.yul\":2027:2028   */\n  dup2\n    /* \"#utility.yul\":2022:2025   */\n  dup5\n    /* \"#utility.yul\":2018:2029   */\n  add\n    /* \"#utility.yul\":2011:2050   */\n  mstore\n    /* \"#utility.yul\":1983:1985   */\n  0x20\n    /* \"#utility.yul\":1980:1981   */\n  dup2\n    /* \"#utility.yul\":1976:1986   */\n  add\n    /* \"#utility.yul\":1971:1986   */\n  swap1\n  pop\n    /* \"#utility.yul\":1947:2060   */\n  jump(tag_67)\ntag_69:\n    /* \"#utility.yul\":2078:2084   */\n  dup4\n    /* \"#utility.yul\":2075:2076   */\n  dup2\n    /* \"#utility.yul\":2072:2085   */\n  gt\n    /* \"#utility.yul\":2069:2170   */\n  iszero\n  tag_70\n  jumpi\n    /* \"#utility.yul\":2158:2159   */\n  0x00\n    /* \"#utility.yul\":2149:2155   */\n  dup5\n    /* \"#utility.yul\":2144:2147   */\n  dup5\n    /* \"#utility.yul\":2140:2156   */\n  add\n    /* \"#utility.yul\":2133:2160   */\n  mstore\n    /* \"#utility.yul\":2069:2170   */\ntag_70:\n    /* \"#utility.yul\":1918:2176   */\n  pop\n    /* \"#utility.yul\":1869:2176   */\n  pop\n  pop\n  pop\n  jump\t// out\n    /* \"#utility.yul\":2182:2502   */\ntag_13:\n    /* \"#utility.yul\":2226:2232   */\n  0x00\n    /* \"#utility.yul\":2263:2264   */\n  0x02\n    /* \"#utility.yul\":2257:2261   */\n  dup3\n    /* \"#utility.yul\":2253:2265   */\n  div\n    /* \"#utility.yul\":2243:2265   */\n  swap1\n  pop\n    /* \"#utility.yul\":2310:2311   */\n  0x01\n    /* \"#utility.yul\":2304:2308   */\n  dup3\n    /* \"#utility.yul\":2300:2312   */\n  and\n    /* \"#utility.yul\":2331:2349   */\n  dup1\n    /* \"#utility.yul\":2321:2402   */\n  tag_72\n  jumpi\n    /* \"#utility.yul\":2387:2391   */\n  0x7f\n    /* \"#utility.yul\":2379:2385   */\n  dup3\n    /* \"#utility.yul\":2375:2392   */\n  and\n    /* \"#utility.yul\":2365:2392   */\n  swap2\n  pop\n    /* \"#utility.yul\":2321:2402   */\ntag_72:\n    /* \"#utility.yul\":2449:2451   */\n  0x20\n    /* \"#utility.yul\":2441:2447   */\n  dup3\n    /* \"#utility.yul\":2438:2452   */\n  lt\n    /* \"#utility.yul\":2418:2436   */\n  dup2\n    /* \"#utility.yul\":2415:2453   */\n  eq\n    /* \"#utility.yul\":2412:2496   */\n  iszero\n  tag_73\n  jumpi\n    /* \"#utility.yul\":2468:2486   */\n  tag_74\n  tag_75\n  jump\t// in\ntag_74:\n    /* \"#utility.yul\":2412:2496   */\ntag_73:\n    /* \"#utility.yul\":2233:2502   */\n  pop\n    /* \"#utility.yul\":2182:2502   */\n  swap2\n  swap1\n  pop\n  jump\t// out\n    /* \"#utility.yul\":2508:2789   */\ntag_58:\n    /* \"#utility.yul\":2591:2618   */\n  tag_77\n    /* \"#utility.yul\":2613:2617   */\n  dup3\n    /* \"#utility.yul\":2591:2618   */\n  tag_65\n  jump\t// in\ntag_77:\n    /* \"#utility.yul\":2583:2589   */\n  dup2\n    /* \"#utility.yul\":2579:2619   */\n  add\n    /* \"#utility.yul\":2721:2727   */\n  dup2\n    /* \"#utility.yul\":2709:2719   */\n  dup2\n    /* \"#utility.yul\":2706:2728   */\n  lt\n    /* \"#utility.yul\":2685:2703   */\n  0xffffffffffffffff\n    /* \"#utility.yul\":2673:2683   */\n  dup3\n    /* \"#utility.yul\":2670:2704   */\n  gt\n    /* \"#utility.yul\":2667:2729   */\n  or\n    /* \"#utility.yul\":2664:2752   */\n  iszero\n  tag_78\n  jumpi\n    /* \"#utility.yul\":2732:2750   */\n  tag_79\n  tag_63\n  jump\t// in\ntag_79:\n    /* \"#utility.yul\":2664:2752   */\ntag_78:\n    /* \"#utility.yul\":2772:2782   */\n  dup1\n    /* \"#utility.yul\":2768:2770   */\n  0x40\n    /* \"#utility.yul\":2761:2783   */\n  mstore\n    /* \"#utility.yul\":2551:2789   */\n  pop\n    /* \"#utility.yul\":2508:2789   */\n  pop\n  pop\n  jump\t// out\n    /* \"#utility.yul\":2795:2975   */\ntag_75:\n    /* \"#utility.yul\":2843:2920   */\n  0x4e487b7100000000000000000000000000000000000000000000000000000000\n    /* \"#utility.yul\":2840:2841   */\n  0x00\n    /* \"#utility.yul\":2833:2921   */\n  mstore\n    /* \"#utility.yul\":2940:2944   */\n  0x22\n    /* \"#utility.yul\":2937:2938   */\n  0x04\n    /* \"#utility.yul\":2930:2945   */\n  mstore\n    /* \"#utility.yul\":2964:2968   */\n  0x24\n    /* \"#utility.yul\":2961:2962   */\n  0x00\n    /* \"#utility.yul\":2954:2969   */\n  revert\n    /* \"#utility.yul\":2981:3161   */\ntag_63:\n    /* \"#utility.yul\":3029:3106   */\n  0x4e487b7100000000000000000000000000000000000000000000000000000000\n    /* \"#utility.yul\":3026:3027   */\n  0x00\n    /* \"#utility.yul\":3019:3107   */\n  mstore\n    /* \"#utility.yul\":3126:3130   */\n  0x41\n    /* \"#utility.yul\":3123:3124   */\n  0x04\n    /* \"#utility.yul\":3116:3131   */\n  mstore\n    /* \"#utility.yul\":3150:3154   */\n  0x24\n    /* \"#utility.yul\":3147:3148   */\n  0x00\n    /* \"#utility.yul\":3140:3155   */\n  revert\n    /* \"#utility.yul\":3167:3284   */\ntag_44:\n    /* \"#utility.yul\":3276:3277   */\n  0x00\n    /* \"#utility.yul\":3273:3274   */\n  dup1\n    /* \"#utility.yul\":3266:3278   */\n  revert\n    /* \"#utility.yul\":3290:3407   */\ntag_37:\n    /* \"#utility.yul\":3399:3400   */\n  0x00\n    /* \"#utility.yul\":3396:3397   */\n  dup1\n    /* \"#utility.yul\":3389:3401   */\n  revert\n    /* \"#utility.yul\":3413:3530   */\ntag_52:\n    /* \"#utility.yul\":3522:3523   */\n  0x00\n    /* \"#utility.yul\":3519:3520   */\n  dup1\n    /* \"#utility.yul\":3512:3524   */\n  revert\n    /* \"#utility.yul\":3536:3653   */\ntag_49:\n    /* \"#utility.yul\":3645:3646   */\n  0x00\n    /* \"#utility.yul\":3642:3643   */\n  dup1\n    /* \"#utility.yul\":3635:3647   */\n  revert\n    /* \"#utility.yul\":3659:3761   */\ntag_65:\n    /* \"#utility.yul\":3700:3706   */\n  0x00\n    /* \"#utility.yul\":3751:3753   */\n  0x1f\n    /* \"#utility.yul\":3747:3754   */\n  not\n    /* \"#utility.yul\":3742:3744   */\n  0x1f\n    /* \"#utility.yul\":3735:3740   */\n  dup4\n    /* \"#utility.yul\":3731:3745   */\n  add\n    /* \"#utility.yul\":3727:3755   */\n  and\n    /* \"#utility.yul\":3717:3755   */\n  swap1\n  pop\n    /* \"#utility.yul\":3659:3761   */\n  swap2\n  swap1\n  pop\n  jump\t// out\n    /* \"Dropsite.sol\":146:6863  contract Dropsite is ERC1155_Dropsite  { ... */\ntag_11:\n  dataSize(sub_0)\n  dup1\n  dataOffset(sub_0)\n  0x00\n  codecopy\n  0x00\n  return\nstop\n\nsub_0: assembly {\n        /* \"Dropsite.sol\":146:6863  contract Dropsite is ERC1155_Dropsite  { ... */\n      mstore(0x40, 0x80)\n      jumpi(tag_1, lt(calldatasize, 0x04))\n      shr(0xe0, calldataload(0x00))\n      dup1\n      0x59ba3124\n      gt\n      tag_15\n      jumpi\n      dup1\n      0xaa90c726\n      gt\n      tag_16\n      jumpi\n      dup1\n      0xaa90c726\n      eq\n      tag_11\n      jumpi\n      dup1\n      0xb4a99a4e\n      eq\n      tag_12\n      jumpi\n      dup1\n      0xeddd0d9c\n      eq\n      tag_13\n      jumpi\n      dup1\n      0xfd6c3b1b\n      eq\n      tag_14\n      jumpi\n      jump(tag_1)\n    tag_16:\n      dup1\n      0x59ba3124\n      eq\n      tag_8\n      jumpi\n      dup1\n      0x60daa851\n      eq\n      tag_9\n      jumpi\n      dup1\n      0x7a5caab3\n      eq\n      tag_10\n      jumpi\n      jump(tag_1)\n    tag_15:\n      dup1\n      0x0390c11c\n      eq\n      tag_2\n      jumpi\n      dup1\n      0x0a67d2c7\n      eq\n      tag_3\n      jumpi\n      dup1\n      0x1309a563\n      eq\n      tag_4\n      jumpi\n      dup1\n      0x15460259\n      eq\n      tag_5\n      jumpi\n      dup1\n      0x27a8a072\n      eq\n      tag_6\n      jumpi\n      dup1\n      0x3b668059\n      eq\n      tag_7\n      jumpi\n    tag_1:\n      0x00\n      dup1\n      revert\n        /* \"Dropsite.sol\":2307:2411  function checkTotalMinted() public view OnlyOwner returns(uint){... */\n    tag_2:\n      callvalue\n      dup1\n      iszero\n      tag_17\n      jumpi\n      0x00\n      dup1\n      revert\n    tag_17:\n      pop\n      tag_18\n      tag_19\n      jump\t// in\n    tag_18:\n      mload(0x40)\n      tag_20\n      swap2\n      swap1\n      tag_21\n      jump\t// in\n    tag_20:\n      mload(0x40)\n      dup1\n      swap2\n      sub\n      swap1\n      return\n        /* \"Dropsite.sol\":2790:3004  function withDraw(address payable to) public payable OnlyOwner {... */\n    tag_3:\n      tag_22\n      0x04\n      dup1\n      calldatasize\n      sub\n      dup2\n      add\n      swap1\n      tag_23\n      swap2\n      swap1\n      tag_24\n      jump\t// in\n    tag_23:\n      tag_25\n      jump\t// in\n    tag_22:\n      stop\n        /* \"Dropsite.sol\":1246:1273  bool public IsPaused = true */\n    tag_4:\n      callvalue\n      dup1\n      iszero\n      tag_26\n      jumpi\n      0x00\n      dup1\n      revert\n    tag_26:\n      pop\n      tag_27\n      tag_28\n      jump\t// in\n    tag_27:\n      mload(0x40)\n      tag_29\n      swap2\n      swap1\n      tag_30\n      jump\t// in\n    tag_29:\n      mload(0x40)\n      dup1\n      swap2\n      sub\n      swap1\n      return\n        /* \"Dropsite.sol\":2559:2695  function openDropsite() public OnlyOwner {... */\n    tag_5:\n      callvalue\n      dup1\n      iszero\n      tag_31\n      jumpi\n      0x00\n      dup1\n      revert\n    tag_31:\n      pop\n      tag_32\n      tag_33\n      jump\t// in\n    tag_32:\n      stop\n        /* \"Dropsite.sol\":5704:6085  function FiatRandomMint(address user_addr, uint noOfMints) OnlyOwner contractIsNotPaused public  returns (uint[] memory,string[] memory) {... */\n    tag_6:\n      callvalue\n      dup1\n      iszero\n      tag_34\n      jumpi\n      0x00\n      dup1\n      revert\n    tag_34:\n      pop\n      tag_35\n      0x04\n      dup1\n      calldatasize\n      sub\n      dup2\n      add\n      swap1\n      tag_36\n      swap2\n      swap1\n      tag_37\n      jump\t// in\n    tag_36:\n      tag_38\n      jump\t// in\n    tag_35:\n      mload(0x40)\n      tag_39\n      swap3\n      swap2\n      swap1\n      tag_40\n      jump\t// in\n    tag_39:\n      mload(0x40)\n      dup1\n      swap2\n      sub\n      swap1\n      return\n        /* \"Dropsite.sol\":3057:3165  function ContractBalance() public view OnlyOwner returns (uint){... */\n    tag_7:\n      callvalue\n      dup1\n      iszero\n      tag_41\n      jumpi\n      0x00\n      dup1\n      revert\n    tag_41:\n      pop\n      tag_42\n      tag_43\n      jump\t// in\n    tag_42:\n      mload(0x40)\n      tag_44\n      swap2\n      swap1\n      tag_21\n      jump\t// in\n    tag_44:\n      mload(0x40)\n      dup1\n      swap2\n      sub\n      swap1\n      return\n        /* \"Dropsite.sol\":6302:6861  function CryptoRandomMint(address user_addr, uint noOfMints)  contractIsNotPaused public payable returns (uint[] memory,string[] memory) {... */\n    tag_8:\n      tag_45\n      0x04\n      dup1\n      calldatasize\n      sub\n      dup2\n      add\n      swap1\n      tag_46\n      swap2\n      swap1\n      tag_37\n      jump\t// in\n    tag_46:\n      tag_47\n      jump\t// in\n    tag_45:\n      mload(0x40)\n      tag_48\n      swap3\n      swap2\n      swap1\n      tag_40\n      jump\t// in\n    tag_48:\n      mload(0x40)\n      dup1\n      swap2\n      sub\n      swap1\n      return\n        /* \"Dropsite.sol\":1882:2029  function checkMintedCategoryWise() public view OnlyOwner contractIsNotPaused returns(uint,uint,uint){... */\n    tag_9:\n      callvalue\n      dup1\n      iszero\n      tag_49\n      jumpi\n      0x00\n      dup1\n      revert\n    tag_49:\n      pop\n      tag_50\n      tag_51\n      jump\t// in\n    tag_50:\n      mload(0x40)\n      tag_52\n      swap4\n      swap3\n      swap2\n      swap1\n      tag_53\n      jump\t// in\n    tag_52:\n      mload(0x40)\n      dup1\n      swap2\n      sub\n      swap1\n      return\n        /* \"Dropsite.sol\":2151:2262  function getMintFee() public view OnlyOwner contractIsNotPaused returns (uint) {... */\n    tag_10:\n      callvalue\n      dup1\n      iszero\n      tag_54\n      jumpi\n      0x00\n      dup1\n      revert\n    tag_54:\n      pop\n      tag_55\n      tag_56\n      jump\t// in\n    tag_55:\n      mload(0x40)\n      tag_57\n      swap2\n      swap1\n      tag_21\n      jump\t// in\n    tag_57:\n      mload(0x40)\n      dup1\n      swap2\n      sub\n      swap1\n      return\n        /* \"Dropsite.sol\":2417:2552  function stopDropsite() public OnlyOwner{... */\n    tag_11:\n      callvalue\n      dup1\n      iszero\n      tag_58\n      jumpi\n      0x00\n      dup1\n      revert\n    tag_58:\n      pop\n      tag_59\n      tag_60\n      jump\t// in\n    tag_59:\n      stop\n        /* \"Dropsite.sol\":1279:1308  address payable public  Owner */\n    tag_12:\n      callvalue\n      dup1\n      iszero\n      tag_61\n      jumpi\n      0x00\n      dup1\n      revert\n    tag_61:\n      pop\n      tag_62\n      tag_63\n      jump\t// in\n    tag_62:\n      mload(0x40)\n      tag_64\n      swap2\n      swap1\n      tag_65\n      jump\t// in\n    tag_64:\n      mload(0x40)\n      dup1\n      swap2\n      sub\n      swap1\n      return\n        /* \"Dropsite.sol\":2035:2141  function setMintFee(uint _mintFee) public OnlyOwner contractIsNotPaused {... */\n    tag_13:\n      callvalue\n      dup1\n      iszero\n      tag_66\n      jumpi\n      0x00\n      dup1\n      revert\n    tag_66:\n      pop\n      tag_67\n      0x04\n      dup1\n      calldatasize\n      sub\n      dup2\n      add\n      swap1\n      tag_68\n      swap2\n      swap1\n      tag_69\n      jump\t// in\n    tag_68:\n      tag_70\n      jump\t// in\n    tag_67:\n      stop\n        /* \"Dropsite.sol\":1663:1822  function returnOwner(address addr) public view contractIsNotPaused returns  (uint[] memory){... */\n    tag_14:\n      callvalue\n      dup1\n      iszero\n      tag_71\n      jumpi\n      0x00\n      dup1\n      revert\n    tag_71:\n      pop\n      tag_72\n      0x04\n      dup1\n      calldatasize\n      sub\n      dup2\n      add\n      swap1\n      tag_73\n      swap2\n      swap1\n      tag_74\n      jump\t// in\n    tag_73:\n      tag_75\n      jump\t// in\n    tag_72:\n      mload(0x40)\n      tag_76\n      swap2\n      swap1\n      tag_77\n      jump\t// in\n    tag_76:\n      mload(0x40)\n      dup1\n      swap2\n      sub\n      swap1\n      return\n        /* \"Dropsite.sol\":2307:2411  function checkTotalMinted() public view OnlyOwner returns(uint){... */\n    tag_19:\n        /* \"Dropsite.sol\":2365:2369  uint */\n      0x00\n        /* \"Dropsite.sol\":1018:1023  Owner */\n      0x0c\n      0x01\n      swap1\n      sload\n      swap1\n      0x0100\n      exp\n      swap1\n      div\n      0xffffffffffffffffffffffffffffffffffffffff\n      and\n        /* \"Dropsite.sol\":1002:1023  _msgSender() == Owner */\n      0xffffffffffffffffffffffffffffffffffffffff\n      and\n        /* \"Dropsite.sol\":1002:1014  _msgSender() */\n      tag_79\n        /* \"Dropsite.sol\":1002:1012  _msgSender */\n      tag_80\n        /* \"Dropsite.sol\":1002:1014  _msgSender() */\n      jump\t// in\n    tag_79:\n        /* \"Dropsite.sol\":1002:1023  _msgSender() == Owner */\n      0xffffffffffffffffffffffffffffffffffffffff\n      and\n      eq\n        /* \"Dropsite.sol\":994:1056  require(_msgSender() == Owner, \"Only NFT-ES Owner can Access\") */\n      tag_81\n      jumpi\n      mload(0x40)\n      0x08c379a000000000000000000000000000000000000000000000000000000000\n      dup2\n      mstore\n      0x04\n      add\n      tag_82\n      swap1\n      tag_83\n      jump\t// in\n    tag_82:\n      mload(0x40)\n      dup1\n      swap2\n      sub\n      swap1\n      revert\n    tag_81:\n        /* \"Dropsite.sol\":2388:2403  TotalNFTsMinted */\n      sload(0x04)\n        /* \"Dropsite.sol\":2381:2403  return TotalNFTsMinted */\n      swap1\n      pop\n        /* \"Dropsite.sol\":2307:2411  function checkTotalMinted() public view OnlyOwner returns(uint){... */\n      swap1\n      jump\t// out\n        /* \"Dropsite.sol\":2790:3004  function withDraw(address payable to) public payable OnlyOwner {... */\n    tag_25:\n        /* \"Dropsite.sol\":1018:1023  Owner */\n      0x0c\n      0x01\n      swap1\n      sload\n      swap1\n      0x0100\n      exp\n      swap1\n      div\n      0xffffffffffffffffffffffffffffffffffffffff\n      and\n        /* \"Dropsite.sol\":1002:1023  _msgSender() == Owner */\n      0xffffffffffffffffffffffffffffffffffffffff\n      and\n        /* \"Dropsite.sol\":1002:1014  _msgSender() */\n      tag_86\n        /* \"Dropsite.sol\":1002:1012  _msgSender */\n      tag_80\n        /* \"Dropsite.sol\":1002:1014  _msgSender() */\n      jump\t// in\n    tag_86:\n        /* \"Dropsite.sol\":1002:1023  _msgSender() == Owner */\n      0xffffffffffffffffffffffffffffffffffffffff\n      and\n      eq\n        /* \"Dropsite.sol\":994:1056  require(_msgSender() == Owner, \"Only NFT-ES Owner can Access\") */\n      tag_87\n      jumpi\n      mload(0x40)\n      0x08c379a000000000000000000000000000000000000000000000000000000000\n      dup2\n      mstore\n      0x04\n      add\n      tag_88\n      swap1\n      tag_83\n      jump\t// in\n    tag_88:\n      mload(0x40)\n      dup1\n      swap2\n      sub\n      swap1\n      revert\n    tag_87:\n        /* \"Dropsite.sol\":2863:2875  uint Balance */\n      0x00\n        /* \"Dropsite.sol\":2878:2899  address(this).balance */\n      selfbalance\n        /* \"Dropsite.sol\":2863:2899  uint Balance = address(this).balance */\n      swap1\n      pop\n        /* \"Dropsite.sol\":2927:2932  0 wei */\n      0x00\n        /* \"Dropsite.sol\":2917:2924  Balance */\n      dup2\n        /* \"Dropsite.sol\":2917:2932  Balance > 0 wei */\n      gt\n        /* \"Dropsite.sol\":2909:2966  require(Balance > 0 wei, \"Error! No Balance to withdraw\") */\n      tag_90\n      jumpi\n      mload(0x40)\n      0x08c379a000000000000000000000000000000000000000000000000000000000\n      dup2\n      mstore\n      0x04\n      add\n      tag_91\n      swap1\n      tag_92\n      jump\t// in\n    tag_91:\n      mload(0x40)\n      dup1\n      swap2\n      sub\n      swap1\n      revert\n    tag_90:\n        /* \"Dropsite.sol\":2977:2979  to */\n      dup2\n        /* \"Dropsite.sol\":2977:2988  to.transfer */\n      0xffffffffffffffffffffffffffffffffffffffff\n      and\n        /* \"Dropsite.sol\":2977:2997  to.transfer(Balance) */\n      0x08fc\n        /* \"Dropsite.sol\":2989:2996  Balance */\n      dup3\n        /* \"Dropsite.sol\":2977:2997  to.transfer(Balance) */\n      swap1\n      dup2\n      iszero\n      mul\n      swap1\n      mload(0x40)\n      0x00\n      mload(0x40)\n      dup1\n      dup4\n      sub\n      dup2\n      dup6\n      dup9\n      dup9\n      call\n      swap4\n      pop\n      pop\n      pop\n      pop\n      iszero\n      dup1\n      iszero\n      tag_94\n      jumpi\n      returndatasize\n      0x00\n      dup1\n      returndatacopy\n      revert(0x00, returndatasize)\n    tag_94:\n      pop\n        /* \"Dropsite.sol\":2853:3004  {... */\n      pop\n        /* \"Dropsite.sol\":2790:3004  function withDraw(address payable to) public payable OnlyOwner {... */\n      pop\n      jump\t// out\n        /* \"Dropsite.sol\":1246:1273  bool public IsPaused = true */\n    tag_28:\n      0x0c\n      0x00\n      swap1\n      sload\n      swap1\n      0x0100\n      exp\n      swap1\n      div\n      0xff\n      and\n      dup2\n      jump\t// out\n        /* \"Dropsite.sol\":2559:2695  function openDropsite() public OnlyOwner {... */\n    tag_33:\n        /* \"Dropsite.sol\":1018:1023  Owner */\n      0x0c\n      0x01\n      swap1\n      sload\n      swap1\n      0x0100\n      exp\n      swap1\n      div\n      0xffffffffffffffffffffffffffffffffffffffff\n      and\n        /* \"Dropsite.sol\":1002:1023  _msgSender() == Owner */\n      0xffffffffffffffffffffffffffffffffffffffff\n      and\n        /* \"Dropsite.sol\":1002:1014  _msgSender() */\n      tag_96\n        /* \"Dropsite.sol\":1002:1012  _msgSender */\n      tag_80\n        /* \"Dropsite.sol\":1002:1014  _msgSender() */\n      jump\t// in\n    tag_96:\n        /* \"Dropsite.sol\":1002:1023  _msgSender() == Owner */\n      0xffffffffffffffffffffffffffffffffffffffff\n      and\n      eq\n        /* \"Dropsite.sol\":994:1056  require(_msgSender() == Owner, \"Only NFT-ES Owner can Access\") */\n      tag_97\n      jumpi\n      mload(0x40)\n      0x08c379a000000000000000000000000000000000000000000000000000000000\n      dup2\n      mstore\n      0x04\n      add\n      tag_98\n      swap1\n      tag_83\n      jump\t// in\n    tag_98:\n      mload(0x40)\n      dup1\n      swap2\n      sub\n      swap1\n      revert\n    tag_97:\n        /* \"Dropsite.sol\":2628:2632  true */\n      0x01\n        /* \"Dropsite.sol\":2618:2632  IsPaused==true */\n      iszero\n      iszero\n        /* \"Dropsite.sol\":2618:2626  IsPaused */\n      0x0c\n      0x00\n      swap1\n      sload\n      swap1\n      0x0100\n      exp\n      swap1\n      div\n      0xff\n      and\n        /* \"Dropsite.sol\":2618:2632  IsPaused==true */\n      iszero\n      iszero\n      eq\n        /* \"Dropsite.sol\":2610:2664  require(IsPaused==true, \"Dropsite is already Running\") */\n      tag_100\n      jumpi\n      mload(0x40)\n      0x08c379a000000000000000000000000000000000000000000000000000000000\n      dup2\n      mstore\n      0x04\n      add\n      tag_101\n      swap1\n      tag_102\n      jump\t// in\n    tag_101:\n      mload(0x40)\n      dup1\n      swap2\n      sub\n      swap1\n      revert\n    tag_100:\n        /* \"Dropsite.sol\":2683:2688  false */\n      0x00\n        /* \"Dropsite.sol\":2674:2682  IsPaused */\n      0x0c\n      0x00\n        /* \"Dropsite.sol\":2674:2688  IsPaused=false */\n      0x0100\n      exp\n      dup2\n      sload\n      dup2\n      0xff\n      mul\n      not\n      and\n      swap1\n      dup4\n      iszero\n      iszero\n      mul\n      or\n      swap1\n      sstore\n      pop\n        /* \"Dropsite.sol\":2559:2695  function openDropsite() public OnlyOwner {... */\n      jump\t// out\n        /* \"Dropsite.sol\":5704:6085  function FiatRandomMint(address user_addr, uint noOfMints) OnlyOwner contractIsNotPaused public  returns (uint[] memory,string[] memory) {... */\n    tag_38:\n        /* \"Dropsite.sol\":5810:5823  uint[] memory */\n      0x60\n        /* \"Dropsite.sol\":5824:5839  string[] memory */\n      dup1\n        /* \"Dropsite.sol\":1018:1023  Owner */\n      0x0c\n      0x01\n      swap1\n      sload\n      swap1\n      0x0100\n      exp\n      swap1\n      div\n      0xffffffffffffffffffffffffffffffffffffffff\n      and\n        /* \"Dropsite.sol\":1002:1023  _msgSender() == Owner */\n      0xffffffffffffffffffffffffffffffffffffffff\n      and\n        /* \"Dropsite.sol\":1002:1014  _msgSender() */\n      tag_104\n        /* \"Dropsite.sol\":1002:1012  _msgSender */\n      tag_80\n        /* \"Dropsite.sol\":1002:1014  _msgSender() */\n      jump\t// in\n    tag_104:\n        /* \"Dropsite.sol\":1002:1023  _msgSender() == Owner */\n      0xffffffffffffffffffffffffffffffffffffffff\n      and\n      eq\n        /* \"Dropsite.sol\":994:1056  require(_msgSender() == Owner, \"Only NFT-ES Owner can Access\") */\n      tag_105\n      jumpi\n      mload(0x40)\n      0x08c379a000000000000000000000000000000000000000000000000000000000\n      dup2\n      mstore\n      0x04\n      add\n      tag_106\n      swap1\n      tag_83\n      jump\t// in\n    tag_106:\n      mload(0x40)\n      dup1\n      swap2\n      sub\n      swap1\n      revert\n    tag_105:\n        /* \"Dropsite.sol\":1183:1188  false */\n      0x00\n        /* \"Dropsite.sol\":1171:1188  IsPaused == false */\n      iszero\n      iszero\n        /* \"Dropsite.sol\":1171:1179  IsPaused */\n      0x0c\n      0x00\n      swap1\n      sload\n      swap1\n      0x0100\n      exp\n      swap1\n      div\n      0xff\n      and\n        /* \"Dropsite.sol\":1171:1188  IsPaused == false */\n      iszero\n      iszero\n      eq\n        /* \"Dropsite.sol\":1162:1221  require (IsPaused == false, \"Dropsite is not Opened Yet.\" ) */\n      tag_108\n      jumpi\n      mload(0x40)\n      0x08c379a000000000000000000000000000000000000000000000000000000000\n      dup2\n      mstore\n      0x04\n      add\n      tag_109\n      swap1\n      tag_110\n      jump\t// in\n    tag_109:\n      mload(0x40)\n      dup1\n      swap2\n      sub\n      swap1\n      revert\n    tag_108:\n        /* \"Dropsite.sol\":5866:5867  4 */\n      0x04\n        /* \"Dropsite.sol\":5856:5865  noOfMints */\n      dup4\n        /* \"Dropsite.sol\":5856:5867  noOfMints<4 */\n      lt\n        /* \"Dropsite.sol\":5856:5882  noOfMints<4 && noOfMints>0 */\n      dup1\n      iszero\n      tag_112\n      jumpi\n      pop\n        /* \"Dropsite.sol\":5881:5882  0 */\n      0x00\n        /* \"Dropsite.sol\":5871:5880  noOfMints */\n      dup4\n        /* \"Dropsite.sol\":5871:5882  noOfMints>0 */\n      gt\n        /* \"Dropsite.sol\":5856:5882  noOfMints<4 && noOfMints>0 */\n    tag_112:\n        /* \"Dropsite.sol\":5848:5907  require(noOfMints<4 && noOfMints>0,\"You can mint 1-3 NFTs\") */\n      tag_113\n      jumpi\n      mload(0x40)\n      0x08c379a000000000000000000000000000000000000000000000000000000000\n      dup2\n      mstore\n      0x04\n      add\n      tag_114\n      swap1\n      tag_115\n      jump\t// in\n    tag_114:\n      mload(0x40)\n      dup1\n      swap2\n      sub\n      swap1\n      revert\n    tag_113:\n        /* \"Dropsite.sol\":5914:5929  uint[] memory x */\n      0x60\n        /* \"Dropsite.sol\":5937:5954  string[] memory y */\n      dup1\n        /* \"Dropsite.sol\":5968:5974  uint i */\n      0x00\n        /* \"Dropsite.sol\":5964:6057  for(uint i=0;i<noOfMints;++i){... */\n    tag_116:\n        /* \"Dropsite.sol\":5979:5988  noOfMints */\n      dup6\n        /* \"Dropsite.sol\":5977:5978  i */\n      dup2\n        /* \"Dropsite.sol\":5977:5988  i<noOfMints */\n      lt\n        /* \"Dropsite.sol\":5964:6057  for(uint i=0;i<noOfMints;++i){... */\n      iszero\n      tag_117\n      jumpi\n        /* \"Dropsite.sol\":6022:6046  randomMinting(user_addr) */\n      tag_119\n        /* \"Dropsite.sol\":6036:6045  user_addr */\n      dup8\n        /* \"Dropsite.sol\":6022:6035  randomMinting */\n      tag_120\n        /* \"Dropsite.sol\":6022:6046  randomMinting(user_addr) */\n      jump\t// in\n    tag_119:\n        /* \"Dropsite.sol\":6008:6009  x */\n      dup5\n        /* \"Dropsite.sol\":6010:6011  i */\n      dup4\n        /* \"Dropsite.sol\":6008:6012  x[i] */\n      dup2\n      mload\n      dup2\n      lt\n      tag_121\n      jumpi\n      tag_122\n      tag_123\n      jump\t// in\n    tag_122:\n    tag_121:\n      0x20\n      mul\n      0x20\n      add\n      add\n        /* \"Dropsite.sol\":6014:6015  y */\n      dup5\n        /* \"Dropsite.sol\":6016:6017  i */\n      dup5\n        /* \"Dropsite.sol\":6014:6018  y[i] */\n      dup2\n      mload\n      dup2\n      lt\n      tag_124\n      jumpi\n      tag_125\n      tag_123\n      jump\t// in\n    tag_125:\n    tag_124:\n      0x20\n      mul\n      0x20\n      add\n      add\n        /* \"Dropsite.sol\":6007:6046  (x[i], y[i]) = randomMinting(user_addr) */\n      dup3\n      swap1\n      mstore\n      dup3\n      dup2\n      mstore\n      pop\n      pop\n      pop\n        /* \"Dropsite.sol\":5989:5992  ++i */\n      dup1\n      tag_126\n      swap1\n      tag_127\n      jump\t// in\n    tag_126:\n      swap1\n      pop\n        /* \"Dropsite.sol\":5964:6057  for(uint i=0;i<noOfMints;++i){... */\n      jump(tag_116)\n    tag_117:\n      pop\n        /* \"Dropsite.sol\":6074:6075  x */\n      dup2\n        /* \"Dropsite.sol\":6076:6077  y */\n      dup2\n        /* \"Dropsite.sol\":6066:6078  return (x,y) */\n      swap4\n      pop\n      swap4\n      pop\n      pop\n      pop\n        /* \"Dropsite.sol\":5704:6085  function FiatRandomMint(address user_addr, uint noOfMints) OnlyOwner contractIsNotPaused public  returns (uint[] memory,string[] memory) {... */\n      swap3\n      pop\n      swap3\n      swap1\n      pop\n      jump\t// out\n        /* \"Dropsite.sol\":3057:3165  function ContractBalance() public view OnlyOwner returns (uint){... */\n    tag_43:\n        /* \"Dropsite.sol\":3115:3119  uint */\n      0x00\n        /* \"Dropsite.sol\":1018:1023  Owner */\n      0x0c\n      0x01\n      swap1\n      sload\n      swap1\n      0x0100\n      exp\n      swap1\n      div\n      0xffffffffffffffffffffffffffffffffffffffff\n      and\n        /* \"Dropsite.sol\":1002:1023  _msgSender() == Owner */\n      0xffffffffffffffffffffffffffffffffffffffff\n      and\n        /* \"Dropsite.sol\":1002:1014  _msgSender() */\n      tag_129\n        /* \"Dropsite.sol\":1002:1012  _msgSender */\n      tag_80\n        /* \"Dropsite.sol\":1002:1014  _msgSender() */\n      jump\t// in\n    tag_129:\n        /* \"Dropsite.sol\":1002:1023  _msgSender() == Owner */\n      0xffffffffffffffffffffffffffffffffffffffff\n      and\n      eq\n        /* \"Dropsite.sol\":994:1056  require(_msgSender() == Owner, \"Only NFT-ES Owner can Access\") */\n      tag_130\n      jumpi\n      mload(0x40)\n      0x08c379a000000000000000000000000000000000000000000000000000000000\n      dup2\n      mstore\n      0x04\n      add\n      tag_131\n      swap1\n      tag_83\n      jump\t// in\n    tag_131:\n      mload(0x40)\n      dup1\n      swap2\n      sub\n      swap1\n      revert\n    tag_130:\n        /* \"Dropsite.sol\":3137:3158  address(this).balance */\n      selfbalance\n        /* \"Dropsite.sol\":3130:3158  return address(this).balance */\n      swap1\n      pop\n        /* \"Dropsite.sol\":3057:3165  function ContractBalance() public view OnlyOwner returns (uint){... */\n      swap1\n      jump\t// out\n        /* \"Dropsite.sol\":6302:6861  function CryptoRandomMint(address user_addr, uint noOfMints)  contractIsNotPaused public payable returns (uint[] memory,string[] memory) {... */\n    tag_47:\n        /* \"Dropsite.sol\":6408:6421  uint[] memory */\n      0x60\n        /* \"Dropsite.sol\":6422:6437  string[] memory */\n      dup1\n        /* \"Dropsite.sol\":1183:1188  false */\n      0x00\n        /* \"Dropsite.sol\":1171:1188  IsPaused == false */\n      iszero\n      iszero\n        /* \"Dropsite.sol\":1171:1179  IsPaused */\n      0x0c\n      0x00\n      swap1\n      sload\n      swap1\n      0x0100\n      exp\n      swap1\n      div\n      0xff\n      and\n        /* \"Dropsite.sol\":1171:1188  IsPaused == false */\n      iszero\n      iszero\n      eq\n        /* \"Dropsite.sol\":1162:1221  require (IsPaused == false, \"Dropsite is not Opened Yet.\" ) */\n      tag_134\n      jumpi\n      mload(0x40)\n      0x08c379a000000000000000000000000000000000000000000000000000000000\n      dup2\n      mstore\n      0x04\n      add\n      tag_135\n      swap1\n      tag_110\n      jump\t// in\n    tag_135:\n      mload(0x40)\n      dup1\n      swap2\n      sub\n      swap1\n      revert\n    tag_134:\n        /* \"Dropsite.sol\":6470:6474  1000 */\n      0x03e8\n        /* \"Dropsite.sol\":6454:6469  TotalNFTsMinted */\n      sload(0x04)\n        /* \"Dropsite.sol\":6454:6474  TotalNFTsMinted<1000 */\n      lt\n        /* \"Dropsite.sol\":6446:6504  require(TotalNFTsMinted<1000, \"Max Minting Limit reached\") */\n      tag_137\n      jumpi\n      mload(0x40)\n      0x08c379a000000000000000000000000000000000000000000000000000000000\n      dup2\n      mstore\n      0x04\n      add\n      tag_138\n      swap1\n      tag_139\n      jump\t// in\n    tag_138:\n      mload(0x40)\n      dup1\n      swap2\n      sub\n      swap1\n      revert\n    tag_137:\n        /* \"Dropsite.sol\":6532:6540  mintFees */\n      sload(0x06)\n        /* \"Dropsite.sol\":6519:6528  msg.value */\n      callvalue\n        /* \"Dropsite.sol\":6519:6540  msg.value == mintFees */\n      eq\n        /* \"Dropsite.sol\":6511:6563  require(msg.value == mintFees, \"Not Enough Balance\") */\n      tag_140\n      jumpi\n      mload(0x40)\n      0x08c379a000000000000000000000000000000000000000000000000000000000\n      dup2\n      mstore\n      0x04\n      add\n      tag_141\n      swap1\n      tag_142\n      jump\t// in\n    tag_141:\n      mload(0x40)\n      dup1\n      swap2\n      sub\n      swap1\n      revert\n    tag_140:\n        /* \"Dropsite.sol\":6588:6589  4 */\n      0x04\n        /* \"Dropsite.sol\":6578:6587  noOfMints */\n      dup4\n        /* \"Dropsite.sol\":6578:6589  noOfMints<4 */\n      lt\n        /* \"Dropsite.sol\":6578:6604  noOfMints<4 && noOfMints>0 */\n      dup1\n      iszero\n      tag_143\n      jumpi\n      pop\n        /* \"Dropsite.sol\":6603:6604  0 */\n      0x00\n        /* \"Dropsite.sol\":6593:6602  noOfMints */\n      dup4\n        /* \"Dropsite.sol\":6593:6604  noOfMints>0 */\n      gt\n        /* \"Dropsite.sol\":6578:6604  noOfMints<4 && noOfMints>0 */\n    tag_143:\n        /* \"Dropsite.sol\":6570:6629  require(noOfMints<4 && noOfMints>0,\"You can mint 1-3 NFTs\") */\n      tag_144\n      jumpi\n      mload(0x40)\n      0x08c379a000000000000000000000000000000000000000000000000000000000\n      dup2\n      mstore\n      0x04\n      add\n      tag_145\n      swap1\n      tag_115\n      jump\t// in\n    tag_145:\n      mload(0x40)\n      dup1\n      swap2\n      sub\n      swap1\n      revert\n    tag_144:\n        /* \"Dropsite.sol\":6636:6651  uint[] memory x */\n      0x60\n        /* \"Dropsite.sol\":6659:6676  string[] memory y */\n      dup1\n        /* \"Dropsite.sol\":6690:6696  uint i */\n      0x00\n        /* \"Dropsite.sol\":6686:6779  for(uint i=0;i<noOfMints;++i){... */\n    tag_146:\n        /* \"Dropsite.sol\":6701:6710  noOfMints */\n      dup6\n        /* \"Dropsite.sol\":6699:6700  i */\n      dup2\n        /* \"Dropsite.sol\":6699:6710  i<noOfMints */\n      lt\n        /* \"Dropsite.sol\":6686:6779  for(uint i=0;i<noOfMints;++i){... */\n      iszero\n      tag_147\n      jumpi\n        /* \"Dropsite.sol\":6744:6768  randomMinting(user_addr) */\n      tag_149\n        /* \"Dropsite.sol\":6758:6767  user_addr */\n      dup8\n        /* \"Dropsite.sol\":6744:6757  randomMinting */\n      tag_120\n        /* \"Dropsite.sol\":6744:6768  randomMinting(user_addr) */\n      jump\t// in\n    tag_149:\n        /* \"Dropsite.sol\":6730:6731  x */\n      dup5\n        /* \"Dropsite.sol\":6732:6733  i */\n      dup4\n        /* \"Dropsite.sol\":6730:6734  x[i] */\n      dup2\n      mload\n      dup2\n      lt\n      tag_150\n      jumpi\n      tag_151\n      tag_123\n      jump\t// in\n    tag_151:\n    tag_150:\n      0x20\n      mul\n      0x20\n      add\n      add\n        /* \"Dropsite.sol\":6736:6737  y */\n      dup5\n        /* \"Dropsite.sol\":6738:6739  i */\n      dup5\n        /* \"Dropsite.sol\":6736:6740  y[i] */\n      dup2\n      mload\n      dup2\n      lt\n      tag_152\n      jumpi\n      tag_153\n      tag_123\n      jump\t// in\n    tag_153:\n    tag_152:\n      0x20\n      mul\n      0x20\n      add\n      add\n        /* \"Dropsite.sol\":6729:6768  (x[i], y[i]) = randomMinting(user_addr) */\n      dup3\n      swap1\n      mstore\n      dup3\n      dup2\n      mstore\n      pop\n      pop\n      pop\n        /* \"Dropsite.sol\":6711:6714  ++i */\n      dup1\n      tag_154\n      swap1\n      tag_127\n      jump\t// in\n    tag_154:\n      swap1\n      pop\n        /* \"Dropsite.sol\":6686:6779  for(uint i=0;i<noOfMints;++i){... */\n      jump(tag_146)\n    tag_147:\n      pop\n        /* \"Dropsite.sol\":6788:6826  depositAmount(_msgSender(), msg.value) */\n      tag_155\n        /* \"Dropsite.sol\":6802:6814  _msgSender() */\n      tag_156\n        /* \"Dropsite.sol\":6802:6812  _msgSender */\n      tag_80\n        /* \"Dropsite.sol\":6802:6814  _msgSender() */\n      jump\t// in\n    tag_156:\n        /* \"Dropsite.sol\":6816:6825  msg.value */\n      callvalue\n        /* \"Dropsite.sol\":6788:6801  depositAmount */\n      tag_157\n        /* \"Dropsite.sol\":6788:6826  depositAmount(_msgSender(), msg.value) */\n      jump\t// in\n    tag_155:\n        /* \"Dropsite.sol\":6844:6845  x */\n      dup2\n        /* \"Dropsite.sol\":6846:6847  y */\n      dup2\n        /* \"Dropsite.sol\":6836:6848  return (x,y) */\n      swap4\n      pop\n      swap4\n      pop\n      pop\n      pop\n        /* \"Dropsite.sol\":6302:6861  function CryptoRandomMint(address user_addr, uint noOfMints)  contractIsNotPaused public payable returns (uint[] memory,string[] memory) {... */\n      swap3\n      pop\n      swap3\n      swap1\n      pop\n      jump\t// out\n        /* \"Dropsite.sol\":1882:2029  function checkMintedCategoryWise() public view OnlyOwner contractIsNotPaused returns(uint,uint,uint){... */\n    tag_51:\n        /* \"Dropsite.sol\":1967:1971  uint */\n      0x00\n        /* \"Dropsite.sol\":1972:1976  uint */\n      dup1\n        /* \"Dropsite.sol\":1977:1981  uint */\n      0x00\n        /* \"Dropsite.sol\":1018:1023  Owner */\n      0x0c\n      0x01\n      swap1\n      sload\n      swap1\n      0x0100\n      exp\n      swap1\n      div\n      0xffffffffffffffffffffffffffffffffffffffff\n      and\n        /* \"Dropsite.sol\":1002:1023  _msgSender() == Owner */\n      0xffffffffffffffffffffffffffffffffffffffff\n      and\n        /* \"Dropsite.sol\":1002:1014  _msgSender() */\n      tag_159\n        /* \"Dropsite.sol\":1002:1012  _msgSender */\n      tag_80\n        /* \"Dropsite.sol\":1002:1014  _msgSender() */\n      jump\t// in\n    tag_159:\n        /* \"Dropsite.sol\":1002:1023  _msgSender() == Owner */\n      0xffffffffffffffffffffffffffffffffffffffff\n      and\n      eq\n        /* \"Dropsite.sol\":994:1056  require(_msgSender() == Owner, \"Only NFT-ES Owner can Access\") */\n      tag_160\n      jumpi\n      mload(0x40)\n      0x08c379a000000000000000000000000000000000000000000000000000000000\n      dup2\n      mstore\n      0x04\n      add\n      tag_161\n      swap1\n      tag_83\n      jump\t// in\n    tag_161:\n      mload(0x40)\n      dup1\n      swap2\n      sub\n      swap1\n      revert\n    tag_160:\n        /* \"Dropsite.sol\":1183:1188  false */\n      0x00\n        /* \"Dropsite.sol\":1171:1188  IsPaused == false */\n      iszero\n      iszero\n        /* \"Dropsite.sol\":1171:1179  IsPaused */\n      0x0c\n      0x00\n      swap1\n      sload\n      swap1\n      0x0100\n      exp\n      swap1\n      div\n      0xff\n      and\n        /* \"Dropsite.sol\":1171:1188  IsPaused == false */\n      iszero\n      iszero\n      eq\n        /* \"Dropsite.sol\":1162:1221  require (IsPaused == false, \"Dropsite is not Opened Yet.\" ) */\n      tag_163\n      jumpi\n      mload(0x40)\n      0x08c379a000000000000000000000000000000000000000000000000000000000\n      dup2\n      mstore\n      0x04\n      add\n      tag_164\n      swap1\n      tag_110\n      jump\t// in\n    tag_164:\n      mload(0x40)\n      dup1\n      swap2\n      sub\n      swap1\n      revert\n    tag_163:\n        /* \"Dropsite.sol\":2001:2008  Diamond */\n      sload(0x07)\n        /* \"Dropsite.sol\":2009:2013  Gold */\n      sload(0x08)\n        /* \"Dropsite.sol\":2014:2020  Silver */\n      sload(0x09)\n        /* \"Dropsite.sol\":1993:2021  return (Diamond,Gold,Silver) */\n      swap3\n      pop\n      swap3\n      pop\n      swap3\n      pop\n        /* \"Dropsite.sol\":1882:2029  function checkMintedCategoryWise() public view OnlyOwner contractIsNotPaused returns(uint,uint,uint){... */\n      swap1\n      swap2\n      swap3\n      jump\t// out\n        /* \"Dropsite.sol\":2151:2262  function getMintFee() public view OnlyOwner contractIsNotPaused returns (uint) {... */\n    tag_56:\n        /* \"Dropsite.sol\":2224:2228  uint */\n      0x00\n        /* \"Dropsite.sol\":1018:1023  Owner */\n      0x0c\n      0x01\n      swap1\n      sload\n      swap1\n      0x0100\n      exp\n      swap1\n      div\n      0xffffffffffffffffffffffffffffffffffffffff\n      and\n        /* \"Dropsite.sol\":1002:1023  _msgSender() == Owner */\n      0xffffffffffffffffffffffffffffffffffffffff\n      and\n        /* \"Dropsite.sol\":1002:1014  _msgSender() */\n      tag_167\n        /* \"Dropsite.sol\":1002:1012  _msgSender */\n      tag_80\n        /* \"Dropsite.sol\":1002:1014  _msgSender() */\n      jump\t// in\n    tag_167:\n        /* \"Dropsite.sol\":1002:1023  _msgSender() == Owner */\n      0xffffffffffffffffffffffffffffffffffffffff\n      and\n      eq\n        /* \"Dropsite.sol\":994:1056  require(_msgSender() == Owner, \"Only NFT-ES Owner can Access\") */\n      tag_168\n      jumpi\n      mload(0x40)\n      0x08c379a000000000000000000000000000000000000000000000000000000000\n      dup2\n      mstore\n      0x04\n      add\n      tag_169\n      swap1\n      tag_83\n      jump\t// in\n    tag_169:\n      mload(0x40)\n      dup1\n      swap2\n      sub\n      swap1\n      revert\n    tag_168:\n        /* \"Dropsite.sol\":1183:1188  false */\n      0x00\n        /* \"Dropsite.sol\":1171:1188  IsPaused == false */\n      iszero\n      iszero\n        /* \"Dropsite.sol\":1171:1179  IsPaused */\n      0x0c\n      0x00\n      swap1\n      sload\n      swap1\n      0x0100\n      exp\n      swap1\n      div\n      0xff\n      and\n        /* \"Dropsite.sol\":1171:1188  IsPaused == false */\n      iszero\n      iszero\n      eq\n        /* \"Dropsite.sol\":1162:1221  require (IsPaused == false, \"Dropsite is not Opened Yet.\" ) */\n      tag_171\n      jumpi\n      mload(0x40)\n      0x08c379a000000000000000000000000000000000000000000000000000000000\n      dup2\n      mstore\n      0x04\n      add\n      tag_172\n      swap1\n      tag_110\n      jump\t// in\n    tag_172:\n      mload(0x40)\n      dup1\n      swap2\n      sub\n      swap1\n      revert\n    tag_171:\n        /* \"Dropsite.sol\":2247:2255  mintFees */\n      sload(0x06)\n        /* \"Dropsite.sol\":2240:2255  return mintFees */\n      swap1\n      pop\n        /* \"Dropsite.sol\":2151:2262  function getMintFee() public view OnlyOwner contractIsNotPaused returns (uint) {... */\n      swap1\n      jump\t// out\n        /* \"Dropsite.sol\":2417:2552  function stopDropsite() public OnlyOwner{... */\n    tag_60:\n        /* \"Dropsite.sol\":1018:1023  Owner */\n      0x0c\n      0x01\n      swap1\n      sload\n      swap1\n      0x0100\n      exp\n      swap1\n      div\n      0xffffffffffffffffffffffffffffffffffffffff\n      and\n        /* \"Dropsite.sol\":1002:1023  _msgSender() == Owner */\n      0xffffffffffffffffffffffffffffffffffffffff\n      and\n        /* \"Dropsite.sol\":1002:1014  _msgSender() */\n      tag_175\n        /* \"Dropsite.sol\":1002:1012  _msgSender */\n      tag_80\n        /* \"Dropsite.sol\":1002:1014  _msgSender() */\n      jump\t// in\n    tag_175:\n        /* \"Dropsite.sol\":1002:1023  _msgSender() == Owner */\n      0xffffffffffffffffffffffffffffffffffffffff\n      and\n      eq\n        /* \"Dropsite.sol\":994:1056  require(_msgSender() == Owner, \"Only NFT-ES Owner can Access\") */\n      tag_176\n      jumpi\n      mload(0x40)\n      0x08c379a000000000000000000000000000000000000000000000000000000000\n      dup2\n      mstore\n      0x04\n      add\n      tag_177\n      swap1\n      tag_83\n      jump\t// in\n    tag_177:\n      mload(0x40)\n      dup1\n      swap2\n      sub\n      swap1\n      revert\n    tag_176:\n        /* \"Dropsite.sol\":2485:2490  false */\n      0x00\n        /* \"Dropsite.sol\":2475:2490  IsPaused==false */\n      iszero\n      iszero\n        /* \"Dropsite.sol\":2475:2483  IsPaused */\n      0x0c\n      0x00\n      swap1\n      sload\n      swap1\n      0x0100\n      exp\n      swap1\n      div\n      0xff\n      and\n        /* \"Dropsite.sol\":2475:2490  IsPaused==false */\n      iszero\n      iszero\n      eq\n        /* \"Dropsite.sol\":2467:2522  require(IsPaused==false, \"Dropsite is already Stopped\") */\n      tag_179\n      jumpi\n      mload(0x40)\n      0x08c379a000000000000000000000000000000000000000000000000000000000\n      dup2\n      mstore\n      0x04\n      add\n      tag_180\n      swap1\n      tag_181\n      jump\t// in\n    tag_180:\n      mload(0x40)\n      dup1\n      swap2\n      sub\n      swap1\n      revert\n    tag_179:\n        /* \"Dropsite.sol\":2541:2545  true */\n      0x01\n        /* \"Dropsite.sol\":2532:2540  IsPaused */\n      0x0c\n      0x00\n        /* \"Dropsite.sol\":2532:2545  IsPaused=true */\n      0x0100\n      exp\n      dup2\n      sload\n      dup2\n      0xff\n      mul\n      not\n      and\n      swap1\n      dup4\n      iszero\n      iszero\n      mul\n      or\n      swap1\n      sstore\n      pop\n        /* \"Dropsite.sol\":2417:2552  function stopDropsite() public OnlyOwner{... */\n      jump\t// out\n        /* \"Dropsite.sol\":1279:1308  address payable public  Owner */\n    tag_63:\n      0x0c\n      0x01\n      swap1\n      sload\n      swap1\n      0x0100\n      exp\n      swap1\n      div\n      0xffffffffffffffffffffffffffffffffffffffff\n      and\n      dup2\n      jump\t// out\n        /* \"Dropsite.sol\":2035:2141  function setMintFee(uint _mintFee) public OnlyOwner contractIsNotPaused {... */\n    tag_70:\n        /* \"Dropsite.sol\":1018:1023  Owner */\n      0x0c\n      0x01\n      swap1\n      sload\n      swap1\n      0x0100\n      exp\n      swap1\n      div\n      0xffffffffffffffffffffffffffffffffffffffff\n      and\n        /* \"Dropsite.sol\":1002:1023  _msgSender() == Owner */\n      0xffffffffffffffffffffffffffffffffffffffff\n      and\n        /* \"Dropsite.sol\":1002:1014  _msgSender() */\n      tag_183\n        /* \"Dropsite.sol\":1002:1012  _msgSender */\n      tag_80\n        /* \"Dropsite.sol\":1002:1014  _msgSender() */\n      jump\t// in\n    tag_183:\n        /* \"Dropsite.sol\":1002:1023  _msgSender() == Owner */\n      0xffffffffffffffffffffffffffffffffffffffff\n      and\n      eq\n        /* \"Dropsite.sol\":994:1056  require(_msgSender() == Owner, \"Only NFT-ES Owner can Access\") */\n      tag_184\n      jumpi\n      mload(0x40)\n      0x08c379a000000000000000000000000000000000000000000000000000000000\n      dup2\n      mstore\n      0x04\n      add\n      tag_185\n      swap1\n      tag_83\n      jump\t// in\n    tag_185:\n      mload(0x40)\n      dup1\n      swap2\n      sub\n      swap1\n      revert\n    tag_184:\n        /* \"Dropsite.sol\":1183:1188  false */\n      0x00\n        /* \"Dropsite.sol\":1171:1188  IsPaused == false */\n      iszero\n      iszero\n        /* \"Dropsite.sol\":1171:1179  IsPaused */\n      0x0c\n      0x00\n      swap1\n      sload\n      swap1\n      0x0100\n      exp\n      swap1\n      div\n      0xff\n      and\n        /* \"Dropsite.sol\":1171:1188  IsPaused == false */\n      iszero\n      iszero\n      eq\n        /* \"Dropsite.sol\":1162:1221  require (IsPaused == false, \"Dropsite is not Opened Yet.\" ) */\n      tag_187\n      jumpi\n      mload(0x40)\n      0x08c379a000000000000000000000000000000000000000000000000000000000\n      dup2\n      mstore\n      0x04\n      add\n      tag_188\n      swap1\n      tag_110\n      jump\t// in\n    tag_188:\n      mload(0x40)\n      dup1\n      swap2\n      sub\n      swap1\n      revert\n    tag_187:\n        /* \"Dropsite.sol\":2126:2134  _mintFee */\n      dup1\n        /* \"Dropsite.sol\":2117:2125  mintFees */\n      0x06\n        /* \"Dropsite.sol\":2117:2134  mintFees=_mintFee */\n      dup2\n      swap1\n      sstore\n      pop\n        /* \"Dropsite.sol\":2035:2141  function setMintFee(uint _mintFee) public OnlyOwner contractIsNotPaused {... */\n      pop\n      jump\t// out\n        /* \"Dropsite.sol\":1663:1822  function returnOwner(address addr) public view contractIsNotPaused returns  (uint[] memory){... */\n    tag_75:\n        /* \"Dropsite.sol\":1740:1753  uint[] memory */\n      0x60\n        /* \"Dropsite.sol\":1183:1188  false */\n      0x00\n        /* \"Dropsite.sol\":1171:1188  IsPaused == false */\n      iszero\n      iszero\n        /* \"Dropsite.sol\":1171:1179  IsPaused */\n      0x0c\n      0x00\n      swap1\n      sload\n      swap1\n      0x0100\n      exp\n      swap1\n      div\n      0xff\n      and\n        /* \"Dropsite.sol\":1171:1188  IsPaused == false */\n      iszero\n      iszero\n      eq\n        /* \"Dropsite.sol\":1162:1221  require (IsPaused == false, \"Dropsite is not Opened Yet.\" ) */\n      tag_191\n      jumpi\n      mload(0x40)\n      0x08c379a000000000000000000000000000000000000000000000000000000000\n      dup2\n      mstore\n      0x04\n      add\n      tag_192\n      swap1\n      tag_110\n      jump\t// in\n    tag_192:\n      mload(0x40)\n      dup1\n      swap2\n      sub\n      swap1\n      revert\n    tag_191:\n        /* \"Dropsite.sol\":1771:1789  dropsite_NFT_Owner */\n      0x0a\n        /* \"Dropsite.sol\":1771:1795  dropsite_NFT_Owner[addr] */\n      0x00\n        /* \"Dropsite.sol\":1790:1794  addr */\n      dup4\n        /* \"Dropsite.sol\":1771:1795  dropsite_NFT_Owner[addr] */\n      0xffffffffffffffffffffffffffffffffffffffff\n      and\n      0xffffffffffffffffffffffffffffffffffffffff\n      and\n      dup2\n      mstore\n      0x20\n      add\n      swap1\n      dup2\n      mstore\n      0x20\n      add\n      0x00\n      keccak256\n        /* \"Dropsite.sol\":1771:1815  dropsite_NFT_Owner[addr].owned_Dropsite_NFTs */\n      0x00\n      add\n        /* \"Dropsite.sol\":1764:1815  return dropsite_NFT_Owner[addr].owned_Dropsite_NFTs */\n      dup1\n      sload\n      dup1\n      0x20\n      mul\n      0x20\n      add\n      mload(0x40)\n      swap1\n      dup2\n      add\n      0x40\n      mstore\n      dup1\n      swap3\n      swap2\n      swap1\n      dup2\n      dup2\n      mstore\n      0x20\n      add\n      dup3\n      dup1\n      sload\n      dup1\n      iszero\n      tag_194\n      jumpi\n      0x20\n      mul\n      dup3\n      add\n      swap2\n      swap1\n      0x00\n      mstore\n      keccak256(0x00, 0x20)\n      swap1\n    tag_195:\n      dup2\n      sload\n      dup2\n      mstore\n      0x20\n      add\n      swap1\n      0x01\n      add\n      swap1\n      dup1\n      dup4\n      gt\n      tag_195\n      jumpi\n    tag_194:\n      pop\n      pop\n      pop\n      pop\n      pop\n      swap1\n      pop\n        /* \"Dropsite.sol\":1663:1822  function returnOwner(address addr) public view contractIsNotPaused returns  (uint[] memory){... */\n      swap2\n      swap1\n      pop\n      jump\t// out\n        /* \"Context.sol\":640:736  function _msgSender() internal view virtual returns (address) {... */\n    tag_80:\n        /* \"Context.sol\":693:700  address */\n      0x00\n        /* \"Context.sol\":719:729  msg.sender */\n      caller\n        /* \"Context.sol\":712:729  return msg.sender */\n      swap1\n      pop\n        /* \"Context.sol\":640:736  function _msgSender() internal view virtual returns (address) {... */\n      swap1\n      jump\t// out\n        /* \"Dropsite.sol\":5261:5658  function randomMinting(address user_addr) OnlyOwner contractIsNotPaused private returns (uint,string memory) {... */\n    tag_120:\n        /* \"Dropsite.sol\":5350:5354  uint */\n      0x00\n        /* \"Dropsite.sol\":5355:5368  string memory */\n      0x60\n        /* \"Dropsite.sol\":1018:1023  Owner */\n      0x0c\n      0x01\n      swap1\n      sload\n      swap1\n      0x0100\n      exp\n      swap1\n      div\n      0xffffffffffffffffffffffffffffffffffffffff\n      and\n        /* \"Dropsite.sol\":1002:1023  _msgSender() == Owner */\n      0xffffffffffffffffffffffffffffffffffffffff\n      and\n        /* \"Dropsite.sol\":1002:1014  _msgSender() */\n      tag_198\n        /* \"Dropsite.sol\":1002:1012  _msgSender */\n      tag_80\n        /* \"Dropsite.sol\":1002:1014  _msgSender() */\n      jump\t// in\n    tag_198:\n        /* \"Dropsite.sol\":1002:1023  _msgSender() == Owner */\n      0xffffffffffffffffffffffffffffffffffffffff\n      and\n      eq\n        /* \"Dropsite.sol\":994:1056  require(_msgSender() == Owner, \"Only NFT-ES Owner can Access\") */\n      tag_199\n      jumpi\n      mload(0x40)\n      0x08c379a000000000000000000000000000000000000000000000000000000000\n      dup2\n      mstore\n      0x04\n      add\n      tag_200\n      swap1\n      tag_83\n      jump\t// in\n    tag_200:\n      mload(0x40)\n      dup1\n      swap2\n      sub\n      swap1\n      revert\n    tag_199:\n        /* \"Dropsite.sol\":1183:1188  false */\n      0x00\n        /* \"Dropsite.sol\":1171:1188  IsPaused == false */\n      iszero\n      iszero\n        /* \"Dropsite.sol\":1171:1179  IsPaused */\n      0x0c\n      0x00\n      swap1\n      sload\n      swap1\n      0x0100\n      exp\n      swap1\n      div\n      0xff\n      and\n        /* \"Dropsite.sol\":1171:1188  IsPaused == false */\n      iszero\n      iszero\n      eq\n        /* \"Dropsite.sol\":1162:1221  require (IsPaused == false, \"Dropsite is not Opened Yet.\" ) */\n      tag_202\n      jumpi\n      mload(0x40)\n      0x08c379a000000000000000000000000000000000000000000000000000000000\n      dup2\n      mstore\n      0x04\n      add\n      tag_203\n      swap1\n      tag_110\n      jump\t// in\n    tag_203:\n      mload(0x40)\n      dup1\n      swap2\n      sub\n      swap1\n      revert\n    tag_202:\n        /* \"Dropsite.sol\":5453:5463  uint nftId */\n      0x00\n        /* \"Dropsite.sol\":5466:5484  updateConditions() */\n      tag_205\n        /* \"Dropsite.sol\":5466:5482  updateConditions */\n      tag_206\n        /* \"Dropsite.sol\":5466:5484  updateConditions() */\n      jump\t// in\n    tag_205:\n        /* \"Dropsite.sol\":5453:5484  uint nftId = updateConditions() */\n      swap1\n      pop\n        /* \"Dropsite.sol\":5490:5532  _mint(user_addr, nftId, numOfCopies, data) */\n      tag_207\n        /* \"Dropsite.sol\":5496:5505  user_addr */\n      dup5\n        /* \"Dropsite.sol\":5507:5512  nftId */\n      dup3\n        /* \"Dropsite.sol\":5514:5525  numOfCopies */\n      sload(0x05)\n        /* \"Dropsite.sol\":5527:5531  data */\n      0x02\n        /* \"Dropsite.sol\":5490:5532  _mint(user_addr, nftId, numOfCopies, data) */\n      dup1\n      sload\n      tag_208\n      swap1\n      tag_209\n      jump\t// in\n    tag_208:\n      dup1\n      0x1f\n      add\n      0x20\n      dup1\n      swap2\n      div\n      mul\n      0x20\n      add\n      mload(0x40)\n      swap1\n      dup2\n      add\n      0x40\n      mstore\n      dup1\n      swap3\n      swap2\n      swap1\n      dup2\n      dup2\n      mstore\n      0x20\n      add\n      dup3\n      dup1\n      sload\n      tag_210\n      swap1\n      tag_209\n      jump\t// in\n    tag_210:\n      dup1\n      iszero\n      tag_211\n      jumpi\n      dup1\n      0x1f\n      lt\n      tag_212\n      jumpi\n      0x0100\n      dup1\n      dup4\n      sload\n      div\n      mul\n      dup4\n      mstore\n      swap2\n      0x20\n      add\n      swap2\n      jump(tag_211)\n    tag_212:\n      dup3\n      add\n      swap2\n      swap1\n      0x00\n      mstore\n      keccak256(0x00, 0x20)\n      swap1\n    tag_213:\n      dup2\n      sload\n      dup2\n      mstore\n      swap1\n      0x01\n      add\n      swap1\n      0x20\n      add\n      dup1\n      dup4\n      gt\n      tag_213\n      jumpi\n      dup3\n      swap1\n      sub\n      0x1f\n      and\n      dup3\n      add\n      swap2\n    tag_211:\n      pop\n      pop\n      pop\n      pop\n      pop\n        /* \"Dropsite.sol\":5490:5495  _mint */\n      tag_214\n        /* \"Dropsite.sol\":5490:5532  _mint(user_addr, nftId, numOfCopies, data) */\n      jump\t// in\n    tag_207:\n        /* \"Dropsite.sol\":5538:5553  TotalNFTsMinted */\n      0x04\n      0x00\n        /* \"Dropsite.sol\":5538:5555  TotalNFTsMinted++ */\n      dup2\n      sload\n      dup1\n      swap3\n      swap2\n      swap1\n      tag_215\n      swap1\n      tag_127\n      jump\t// in\n    tag_215:\n      swap2\n      swap1\n      pop\n      sstore\n      pop\n        /* \"Dropsite.sol\":5561:5579  dropsite_NFT_Owner */\n      0x0a\n        /* \"Dropsite.sol\":5561:5590  dropsite_NFT_Owner[user_addr] */\n      0x00\n        /* \"Dropsite.sol\":5580:5589  user_addr */\n      dup6\n        /* \"Dropsite.sol\":5561:5590  dropsite_NFT_Owner[user_addr] */\n      0xffffffffffffffffffffffffffffffffffffffff\n      and\n      0xffffffffffffffffffffffffffffffffffffffff\n      and\n      dup2\n      mstore\n      0x20\n      add\n      swap1\n      dup2\n      mstore\n      0x20\n      add\n      0x00\n      keccak256\n        /* \"Dropsite.sol\":5561:5610  dropsite_NFT_Owner[user_addr].owned_Dropsite_NFTs */\n      0x00\n      add\n        /* \"Dropsite.sol\":5616:5621  nftId */\n      dup2\n        /* \"Dropsite.sol\":5561:5622  dropsite_NFT_Owner[user_addr].owned_Dropsite_NFTs.push(nftId) */\n      swap1\n      dup1\n      0x01\n      dup2\n      sload\n      add\n      dup1\n      dup3\n      sstore\n      dup1\n      swap2\n      pop\n      pop\n      0x01\n      swap1\n      sub\n      swap1\n      0x00\n      mstore\n      keccak256(0x00, 0x20)\n      add\n      0x00\n      swap1\n      swap2\n      swap1\n      swap2\n      swap1\n      swap2\n      pop\n      sstore\n        /* \"Dropsite.sol\":5636:5641  nftId */\n      dup1\n        /* \"Dropsite.sol\":5649:5653  data */\n      0x02\n        /* \"Dropsite.sol\":5628:5655  return (nftId,string(data)) */\n      dup1\n      dup1\n      sload\n      tag_217\n      swap1\n      tag_209\n      jump\t// in\n    tag_217:\n      dup1\n      0x1f\n      add\n      0x20\n      dup1\n      swap2\n      div\n      mul\n      0x20\n      add\n      mload(0x40)\n      swap1\n      dup2\n      add\n      0x40\n      mstore\n      dup1\n      swap3\n      swap2\n      swap1\n      dup2\n      dup2\n      mstore\n      0x20\n      add\n      dup3\n      dup1\n      sload\n      tag_218\n      swap1\n      tag_209\n      jump\t// in\n    tag_218:\n      dup1\n      iszero\n      tag_219\n      jumpi\n      dup1\n      0x1f\n      lt\n      tag_220\n      jumpi\n      0x0100\n      dup1\n      dup4\n      sload\n      div\n      mul\n      dup4\n      mstore\n      swap2\n      0x20\n      add\n      swap2\n      jump(tag_219)\n    tag_220:\n      dup3\n      add\n      swap2\n      swap1\n      0x00\n      mstore\n      keccak256(0x00, 0x20)\n      swap1\n    tag_221:\n      dup2\n      sload\n      dup2\n      mstore\n      swap1\n      0x01\n      add\n      swap1\n      0x20\n      add\n      dup1\n      dup4\n      gt\n      tag_221\n      jumpi\n      dup3\n      swap1\n      sub\n      0x1f\n      and\n      dup3\n      add\n      swap2\n    tag_219:\n      pop\n      pop\n      pop\n      pop\n      pop\n      swap1\n      pop\n      swap3\n      pop\n      swap3\n      pop\n      pop\n        /* \"Dropsite.sol\":5261:5658  function randomMinting(address user_addr) OnlyOwner contractIsNotPaused private returns (uint,string memory) {... */\n      swap2\n      pop\n      swap2\n      jump\t// out\n        /* \"Dropsite.sol\":6130:6249  function depositAmount(address payee,uint amountToDeposit) internal {... */\n    tag_157:\n        /* \"Dropsite.sol\":6227:6242  amountToDeposit */\n      dup1\n        /* \"Dropsite.sol\":6208:6216  deposits */\n      0x0b\n        /* \"Dropsite.sol\":6208:6223  deposits[payee] */\n      0x00\n        /* \"Dropsite.sol\":6217:6222  payee */\n      dup5\n        /* \"Dropsite.sol\":6208:6223  deposits[payee] */\n      0xffffffffffffffffffffffffffffffffffffffff\n      and\n      0xffffffffffffffffffffffffffffffffffffffff\n      and\n      dup2\n      mstore\n      0x20\n      add\n      swap1\n      dup2\n      mstore\n      0x20\n      add\n      0x00\n      keccak256\n      0x00\n        /* \"Dropsite.sol\":6208:6242  deposits[payee] += amountToDeposit */\n      dup3\n      dup3\n      sload\n      tag_223\n      swap2\n      swap1\n      tag_224\n      jump\t// in\n    tag_223:\n      swap3\n      pop\n      pop\n      dup2\n      swap1\n      sstore\n      pop\n        /* \"Dropsite.sol\":6130:6249  function depositAmount(address payee,uint amountToDeposit) internal {... */\n      pop\n      pop\n      jump\t// out\n        /* \"Dropsite.sol\":3657:5259  function updateConditions() internal contractIsNotPaused returns(uint) {... */\n    tag_206:\n        /* \"Dropsite.sol\":3722:3726  uint */\n      0x00\n        /* \"Dropsite.sol\":1183:1188  false */\n      dup1\n        /* \"Dropsite.sol\":1171:1188  IsPaused == false */\n      iszero\n      iszero\n        /* \"Dropsite.sol\":1171:1179  IsPaused */\n      0x0c\n      0x00\n      swap1\n      sload\n      swap1\n      0x0100\n      exp\n      swap1\n      div\n      0xff\n      and\n        /* \"Dropsite.sol\":1171:1188  IsPaused == false */\n      iszero\n      iszero\n      eq\n        /* \"Dropsite.sol\":1162:1221  require (IsPaused == false, \"Dropsite is not Opened Yet.\" ) */\n      tag_226\n      jumpi\n      mload(0x40)\n      0x08c379a000000000000000000000000000000000000000000000000000000000\n      dup2\n      mstore\n      0x04\n      add\n      tag_227\n      swap1\n      tag_110\n      jump\t// in\n    tag_227:\n      mload(0x40)\n      dup1\n      swap2\n      sub\n      swap1\n      revert\n    tag_226:\n        /* \"Dropsite.sol\":3737:3747  uint index */\n      0x00\n        /* \"Dropsite.sol\":3750:3758  random() */\n      tag_229\n        /* \"Dropsite.sol\":3750:3756  random */\n      tag_230\n        /* \"Dropsite.sol\":3750:3758  random() */\n      jump\t// in\n    tag_229:\n        /* \"Dropsite.sol\":3737:3758  uint index = random() */\n      swap1\n      pop\n        /* \"Dropsite.sol\":3768:3778  uint nftId */\n      0x00\n        /* \"Dropsite.sol\":3781:3785  nums */\n      0x03\n        /* \"Dropsite.sol\":3786:3791  index */\n      dup3\n        /* \"Dropsite.sol\":3781:3792  nums[index] */\n      0x14\n      dup2\n      lt\n      tag_231\n      jumpi\n      tag_232\n      tag_123\n      jump\t// in\n    tag_232:\n    tag_231:\n      0x20\n      swap2\n      dup3\n      dup3\n      div\n      add\n      swap2\n      swap1\n      mod\n      swap1\n      sload\n      swap1\n      0x0100\n      exp\n      swap1\n      div\n      0xff\n      and\n        /* \"Dropsite.sol\":3768:3792  uint nftId = nums[index] */\n      0xff\n      and\n      swap1\n      pop\n        /* \"Dropsite.sol\":3898:3899  0 */\n      0x00\n        /* \"Dropsite.sol\":3889:3894  nftId */\n      dup2\n        /* \"Dropsite.sol\":3889:3899  nftId == 0 */\n      eq\n        /* \"Dropsite.sol\":3889:3915  nftId == 0 && Diamond < 50 */\n      dup1\n      iszero\n      tag_234\n      jumpi\n      pop\n        /* \"Dropsite.sol\":3913:3915  50 */\n      0x32\n        /* \"Dropsite.sol\":3903:3910  Diamond */\n      sload(0x07)\n        /* \"Dropsite.sol\":3903:3915  Diamond < 50 */\n      lt\n        /* \"Dropsite.sol\":3889:3915  nftId == 0 && Diamond < 50 */\n    tag_234:\n        /* \"Dropsite.sol\":3886:5254  if(nftId == 0 && Diamond < 50) {... */\n      iszero\n      tag_235\n      jumpi\n        /* \"Dropsite.sol\":3932:3939  Diamond */\n      0x07\n      0x00\n        /* \"Dropsite.sol\":3932:3941  Diamond++ */\n      dup2\n      sload\n      dup1\n      swap3\n      swap2\n      swap1\n      tag_236\n      swap1\n      tag_127\n      jump\t// in\n    tag_236:\n      swap2\n      swap1\n      pop\n      sstore\n      pop\n        /* \"Dropsite.sol\":3997:4022  Strings.toString(Diamond) */\n      tag_237\n        /* \"Dropsite.sol\":4014:4021  Diamond */\n      sload(0x07)\n        /* \"Dropsite.sol\":3997:4013  Strings.toString */\n      tag_238\n        /* \"Dropsite.sol\":3997:4022  Strings.toString(Diamond) */\n      jump\t// in\n    tag_237:\n        /* \"Dropsite.sol\":3969:4023  abi.encodePacked(\"Diamond_\",Strings.toString(Diamond)) */\n      add(0x20, mload(0x40))\n      tag_239\n      swap2\n      swap1\n      tag_240\n      jump\t// in\n    tag_239:\n      mload(0x40)\n      0x20\n      dup2\n      dup4\n      sub\n      sub\n      dup2\n      mstore\n      swap1\n      0x40\n      mstore\n        /* \"Dropsite.sol\":3955:3959  data */\n      0x02\n        /* \"Dropsite.sol\":3955:4024  data = string(abi.encodePacked(\"Diamond_\",Strings.toString(Diamond))) */\n      swap1\n      dup1\n      mload\n      swap1\n      0x20\n      add\n      swap1\n      tag_241\n      swap3\n      swap2\n      swap1\n      tag_242\n      jump\t// in\n    tag_241:\n      pop\n        /* \"Dropsite.sol\":4058:4063  nftId */\n      dup1\n        /* \"Dropsite.sol\":4051:4063  return nftId */\n      swap3\n      pop\n      pop\n      pop\n      jump(tag_228)\n        /* \"Dropsite.sol\":3886:5254  if(nftId == 0 && Diamond < 50) {... */\n    tag_235:\n        /* \"Dropsite.sol\":4187:4188  1 */\n      0x01\n        /* \"Dropsite.sol\":4178:4183  nftId */\n      dup2\n        /* \"Dropsite.sol\":4178:4188  nftId <= 1 */\n      gt\n      iszero\n        /* \"Dropsite.sol\":4178:4202  nftId <= 1 && Gold < 100 */\n      dup1\n      iszero\n      tag_244\n      jumpi\n      pop\n        /* \"Dropsite.sol\":4199:4202  100 */\n      0x64\n        /* \"Dropsite.sol\":4192:4196  Gold */\n      sload(0x08)\n        /* \"Dropsite.sol\":4192:4202  Gold < 100 */\n      lt\n        /* \"Dropsite.sol\":4178:4202  nftId <= 1 && Gold < 100 */\n    tag_244:\n        /* \"Dropsite.sol\":4175:5254  if(nftId <= 1 && Gold < 100) {... */\n      iszero\n      tag_245\n      jumpi\n        /* \"Dropsite.sol\":4218:4222  Gold */\n      0x08\n      0x00\n        /* \"Dropsite.sol\":4218:4224  Gold++ */\n      dup2\n      sload\n      dup1\n      swap3\n      swap2\n      swap1\n      tag_246\n      swap1\n      tag_127\n      jump\t// in\n    tag_246:\n      swap2\n      swap1\n      pop\n      sstore\n      pop\n        /* \"Dropsite.sol\":4277:4299  Strings.toString(Gold) */\n      tag_247\n        /* \"Dropsite.sol\":4294:4298  Gold */\n      sload(0x08)\n        /* \"Dropsite.sol\":4277:4293  Strings.toString */\n      tag_238\n        /* \"Dropsite.sol\":4277:4299  Strings.toString(Gold) */\n      jump\t// in\n    tag_247:\n        /* \"Dropsite.sol\":4252:4300  abi.encodePacked(\"Gold_\",Strings.toString(Gold)) */\n      add(0x20, mload(0x40))\n      tag_248\n      swap2\n      swap1\n      tag_249\n      jump\t// in\n    tag_248:\n      mload(0x40)\n      0x20\n      dup2\n      dup4\n      sub\n      sub\n      dup2\n      mstore\n      swap1\n      0x40\n      mstore\n        /* \"Dropsite.sol\":4238:4242  data */\n      0x02\n        /* \"Dropsite.sol\":4238:4301  data = string(abi.encodePacked(\"Gold_\",Strings.toString(Gold))) */\n      swap1\n      dup1\n      mload\n      swap1\n      0x20\n      add\n      swap1\n      tag_250\n      swap3\n      swap2\n      swap1\n      tag_242\n      jump\t// in\n    tag_250:\n      pop\n        /* \"Dropsite.sol\":4322:4327  nftId */\n      dup1\n        /* \"Dropsite.sol\":4315:4327  return nftId */\n      swap3\n      pop\n      pop\n      pop\n      jump(tag_228)\n        /* \"Dropsite.sol\":4175:5254  if(nftId <= 1 && Gold < 100) {... */\n    tag_245:\n        /* \"Dropsite.sol\":4457:4458  2 */\n      0x02\n        /* \"Dropsite.sol\":4448:4453  nftId */\n      dup2\n        /* \"Dropsite.sol\":4448:4458  nftId <= 2 */\n      gt\n      iszero\n        /* \"Dropsite.sol\":4448:4475  nftId <= 2 && Silver <= 850 */\n      dup1\n      iszero\n      tag_252\n      jumpi\n      pop\n        /* \"Dropsite.sol\":4472:4475  850 */\n      0x0352\n        /* \"Dropsite.sol\":4462:4468  Silver */\n      sload(0x09)\n        /* \"Dropsite.sol\":4462:4475  Silver <= 850 */\n      gt\n      iszero\n        /* \"Dropsite.sol\":4448:4475  nftId <= 2 && Silver <= 850 */\n    tag_252:\n        /* \"Dropsite.sol\":4445:5254  if(nftId <= 2 && Silver <= 850) {... */\n      iszero\n      tag_253\n      jumpi\n        /* \"Dropsite.sol\":4491:4497  Silver */\n      0x09\n      0x00\n        /* \"Dropsite.sol\":4491:4499  Silver++ */\n      dup2\n      sload\n      dup1\n      swap3\n      swap2\n      swap1\n      tag_254\n      swap1\n      tag_127\n      jump\t// in\n    tag_254:\n      swap2\n      swap1\n      pop\n      sstore\n      pop\n        /* \"Dropsite.sol\":4559:4583  Strings.toString(Silver) */\n      tag_255\n        /* \"Dropsite.sol\":4576:4582  Silver */\n      sload(0x09)\n        /* \"Dropsite.sol\":4559:4575  Strings.toString */\n      tag_238\n        /* \"Dropsite.sol\":4559:4583  Strings.toString(Silver) */\n      jump\t// in\n    tag_255:\n        /* \"Dropsite.sol\":4532:4584  abi.encodePacked(\"Silver_\",Strings.toString(Silver)) */\n      add(0x20, mload(0x40))\n      tag_256\n      swap2\n      swap1\n      tag_257\n      jump\t// in\n    tag_256:\n      mload(0x40)\n      0x20\n      dup2\n      dup4\n      sub\n      sub\n      dup2\n      mstore\n      swap1\n      0x40\n      mstore\n        /* \"Dropsite.sol\":4518:4522  data */\n      0x02\n        /* \"Dropsite.sol\":4518:4585  data = string(abi.encodePacked(\"Silver_\",Strings.toString(Silver))) */\n      swap1\n      dup1\n      mload\n      swap1\n      0x20\n      add\n      swap1\n      tag_258\n      swap3\n      swap2\n      swap1\n      tag_242\n      jump\t// in\n    tag_258:\n        /* \"Dropsite.sol\":4513:4517  data */\n      0x02\n        /* \"Dropsite.sol\":4513:4585  data=data = string(abi.encodePacked(\"Silver_\",Strings.toString(Silver))) */\n      swap1\n      dup1\n      sload\n      tag_259\n      swap1\n      tag_209\n      jump\t// in\n    tag_259:\n      tag_260\n      swap3\n      swap2\n      swap1\n      tag_261\n      jump\t// in\n    tag_260:\n      pop\n        /* \"Dropsite.sol\":4619:4624  nftId */\n      dup1\n        /* \"Dropsite.sol\":4612:4624  return nftId */\n      swap3\n      pop\n      pop\n      pop\n      jump(tag_228)\n        /* \"Dropsite.sol\":4445:5254  if(nftId <= 2 && Silver <= 850) {... */\n    tag_253:\n        /* \"Dropsite.sol\":4836:4839  100 */\n      0x64\n        /* \"Dropsite.sol\":4829:4833  Gold */\n      sload(0x08)\n        /* \"Dropsite.sol\":4829:4839  Gold < 100 */\n      lt\n        /* \"Dropsite.sol\":4826:5245  if(Gold < 100) {... */\n      iszero\n      tag_263\n      jumpi\n        /* \"Dropsite.sol\":4867:4868  1 */\n      0x01\n        /* \"Dropsite.sol\":4859:4868  nftId = 1 */\n      swap1\n      pop\n        /* \"Dropsite.sol\":4886:4890  Gold */\n      0x08\n      0x00\n        /* \"Dropsite.sol\":4886:4892  Gold++ */\n      dup2\n      sload\n      dup1\n      swap3\n      swap2\n      swap1\n      tag_264\n      swap1\n      tag_127\n      jump\t// in\n    tag_264:\n      swap2\n      swap1\n      pop\n      sstore\n      pop\n        /* \"Dropsite.sol\":4949:4971  Strings.toString(Gold) */\n      tag_265\n        /* \"Dropsite.sol\":4966:4970  Gold */\n      sload(0x08)\n        /* \"Dropsite.sol\":4949:4965  Strings.toString */\n      tag_238\n        /* \"Dropsite.sol\":4949:4971  Strings.toString(Gold) */\n      jump\t// in\n    tag_265:\n        /* \"Dropsite.sol\":4924:4972  abi.encodePacked(\"Gold_\",Strings.toString(Gold)) */\n      add(0x20, mload(0x40))\n      tag_266\n      swap2\n      swap1\n      tag_249\n      jump\t// in\n    tag_266:\n      mload(0x40)\n      0x20\n      dup2\n      dup4\n      sub\n      sub\n      dup2\n      mstore\n      swap1\n      0x40\n      mstore\n        /* \"Dropsite.sol\":4910:4914  data */\n      0x02\n        /* \"Dropsite.sol\":4910:4973  data = string(abi.encodePacked(\"Gold_\",Strings.toString(Gold))) */\n      swap1\n      dup1\n      mload\n      swap1\n      0x20\n      add\n      swap1\n      tag_267\n      swap3\n      swap2\n      swap1\n      tag_242\n      jump\t// in\n    tag_267:\n      pop\n        /* \"Dropsite.sol\":5016:5021  nftId */\n      dup1\n        /* \"Dropsite.sol\":5009:5021  return nftId */\n      swap3\n      pop\n      pop\n      pop\n      jump(tag_228)\n        /* \"Dropsite.sol\":4826:5245  if(Gold < 100) {... */\n    tag_263:\n        /* \"Dropsite.sol\":5068:5069  0 */\n      0x00\n        /* \"Dropsite.sol\":5060:5069  nftId = 0 */\n      swap1\n      pop\n        /* \"Dropsite.sol\":5087:5094  Diamond */\n      0x07\n      0x00\n        /* \"Dropsite.sol\":5087:5096  Diamond++ */\n      dup2\n      sload\n      dup1\n      swap3\n      swap2\n      swap1\n      tag_269\n      swap1\n      tag_127\n      jump\t// in\n    tag_269:\n      swap2\n      swap1\n      pop\n      sstore\n      pop\n        /* \"Dropsite.sol\":5156:5181  Strings.toString(Diamond) */\n      tag_270\n        /* \"Dropsite.sol\":5173:5180  Diamond */\n      sload(0x07)\n        /* \"Dropsite.sol\":5156:5172  Strings.toString */\n      tag_238\n        /* \"Dropsite.sol\":5156:5181  Strings.toString(Diamond) */\n      jump\t// in\n    tag_270:\n        /* \"Dropsite.sol\":5128:5182  abi.encodePacked(\"Diamond_\",Strings.toString(Diamond)) */\n      add(0x20, mload(0x40))\n      tag_271\n      swap2\n      swap1\n      tag_240\n      jump\t// in\n    tag_271:\n      mload(0x40)\n      0x20\n      dup2\n      dup4\n      sub\n      sub\n      dup2\n      mstore\n      swap1\n      0x40\n      mstore\n        /* \"Dropsite.sol\":5114:5118  data */\n      0x02\n        /* \"Dropsite.sol\":5114:5183  data = string(abi.encodePacked(\"Diamond_\",Strings.toString(Diamond))) */\n      swap1\n      dup1\n      mload\n      swap1\n      0x20\n      add\n      swap1\n      tag_272\n      swap3\n      swap2\n      swap1\n      tag_242\n      jump\t// in\n    tag_272:\n      pop\n        /* \"Dropsite.sol\":5225:5230  nftId */\n      dup1\n        /* \"Dropsite.sol\":5218:5230  return nftId */\n      swap3\n      pop\n      pop\n      pop\n        /* \"Dropsite.sol\":1231:1232  _ */\n    tag_228:\n        /* \"Dropsite.sol\":3657:5259  function updateConditions() internal contractIsNotPaused returns(uint) {... */\n      swap1\n      jump\t// out\n        /* \"ERC1155_Dropsite.sol\":835:1387  function _mint(... */\n    tag_214:\n        /* \"ERC1155_Dropsite.sol\":997:998  0 */\n      0x00\n        /* \"ERC1155_Dropsite.sol\":983:999  to != address(0) */\n      0xffffffffffffffffffffffffffffffffffffffff\n      and\n        /* \"ERC1155_Dropsite.sol\":983:985  to */\n      dup5\n        /* \"ERC1155_Dropsite.sol\":983:999  to != address(0) */\n      0xffffffffffffffffffffffffffffffffffffffff\n      and\n      eq\n      iszero\n        /* \"ERC1155_Dropsite.sol\":975:1037  require(to != address(0), \"ERC1155: mint to the zero address\") */\n      tag_274\n      jumpi\n      mload(0x40)\n      0x08c379a000000000000000000000000000000000000000000000000000000000\n      dup2\n      mstore\n      0x04\n      add\n      tag_275\n      swap1\n      tag_276\n      jump\t// in\n    tag_275:\n      mload(0x40)\n      dup1\n      swap2\n      sub\n      swap1\n      revert\n    tag_274:\n        /* \"ERC1155_Dropsite.sol\":1048:1064  address operator */\n      0x00\n        /* \"ERC1155_Dropsite.sol\":1067:1079  _msgSender() */\n      tag_277\n        /* \"ERC1155_Dropsite.sol\":1067:1077  _msgSender */\n      tag_80\n        /* \"ERC1155_Dropsite.sol\":1067:1079  _msgSender() */\n      jump\t// in\n    tag_277:\n        /* \"ERC1155_Dropsite.sol\":1048:1079  address operator = _msgSender() */\n      swap1\n      pop\n        /* \"ERC1155_Dropsite.sol\":1090:1192  _beforeTokenTransfer(operator, address(0), to, _asSingletonArray(id), _asSingletonArray(amount), data) */\n      tag_278\n        /* \"ERC1155_Dropsite.sol\":1111:1119  operator */\n      dup2\n        /* \"ERC1155_Dropsite.sol\":1129:1130  0 */\n      0x00\n        /* \"ERC1155_Dropsite.sol\":1133:1135  to */\n      dup8\n        /* \"ERC1155_Dropsite.sol\":1137:1158  _asSingletonArray(id) */\n      tag_279\n        /* \"ERC1155_Dropsite.sol\":1155:1157  id */\n      dup9\n        /* \"ERC1155_Dropsite.sol\":1137:1154  _asSingletonArray */\n      tag_280\n        /* \"ERC1155_Dropsite.sol\":1137:1158  _asSingletonArray(id) */\n      jump\t// in\n    tag_279:\n        /* \"ERC1155_Dropsite.sol\":1160:1185  _asSingletonArray(amount) */\n      tag_281\n        /* \"ERC1155_Dropsite.sol\":1178:1184  amount */\n      dup9\n        /* \"ERC1155_Dropsite.sol\":1160:1177  _asSingletonArray */\n      tag_280\n        /* \"ERC1155_Dropsite.sol\":1160:1185  _asSingletonArray(amount) */\n      jump\t// in\n    tag_281:\n        /* \"ERC1155_Dropsite.sol\":1187:1191  data */\n      dup8\n        /* \"ERC1155_Dropsite.sol\":1090:1110  _beforeTokenTransfer */\n      tag_282\n        /* \"ERC1155_Dropsite.sol\":1090:1192  _beforeTokenTransfer(operator, address(0), to, _asSingletonArray(id), _asSingletonArray(amount), data) */\n      jump\t// in\n    tag_278:\n        /* \"ERC1155_Dropsite.sol\":1223:1229  amount */\n      dup3\n        /* \"ERC1155_Dropsite.sol\":1202:1211  _balances */\n      0x00\n        /* \"ERC1155_Dropsite.sol\":1202:1215  _balances[id] */\n      dup1\n        /* \"ERC1155_Dropsite.sol\":1212:1214  id */\n      dup7\n        /* \"ERC1155_Dropsite.sol\":1202:1215  _balances[id] */\n      dup2\n      mstore\n      0x20\n      add\n      swap1\n      dup2\n      mstore\n      0x20\n      add\n      0x00\n      keccak256\n        /* \"ERC1155_Dropsite.sol\":1202:1219  _balances[id][to] */\n      0x00\n        /* \"ERC1155_Dropsite.sol\":1216:1218  to */\n      dup8\n        /* \"ERC1155_Dropsite.sol\":1202:1219  _balances[id][to] */\n      0xffffffffffffffffffffffffffffffffffffffff\n      and\n      0xffffffffffffffffffffffffffffffffffffffff\n      and\n      dup2\n      mstore\n      0x20\n      add\n      swap1\n      dup2\n      mstore\n      0x20\n      add\n      0x00\n      keccak256\n      0x00\n        /* \"ERC1155_Dropsite.sol\":1202:1229  _balances[id][to] += amount */\n      dup3\n      dup3\n      sload\n      tag_283\n      swap2\n      swap1\n      tag_224\n      jump\t// in\n    tag_283:\n      swap3\n      pop\n      pop\n      dup2\n      swap1\n      sstore\n      pop\n        /* \"ERC1155_Dropsite.sol\":1281:1283  to */\n      dup5\n        /* \"ERC1155_Dropsite.sol\":1244:1296  TransferSingle(operator, address(0), to, id, amount) */\n      0xffffffffffffffffffffffffffffffffffffffff\n      and\n        /* \"ERC1155_Dropsite.sol\":1277:1278  0 */\n      0x00\n        /* \"ERC1155_Dropsite.sol\":1244:1296  TransferSingle(operator, address(0), to, id, amount) */\n      0xffffffffffffffffffffffffffffffffffffffff\n      and\n        /* \"ERC1155_Dropsite.sol\":1259:1267  operator */\n      dup3\n        /* \"ERC1155_Dropsite.sol\":1244:1296  TransferSingle(operator, address(0), to, id, amount) */\n      0xffffffffffffffffffffffffffffffffffffffff\n      and\n      0xc3d58168c5ae7397731d063d5bbf3d657854427343f4c083240f7aacaa2d0f62\n        /* \"ERC1155_Dropsite.sol\":1285:1287  id */\n      dup8\n        /* \"ERC1155_Dropsite.sol\":1289:1295  amount */\n      dup8\n        /* \"ERC1155_Dropsite.sol\":1244:1296  TransferSingle(operator, address(0), to, id, amount) */\n      mload(0x40)\n      tag_284\n      swap3\n      swap2\n      swap1\n      tag_285\n      jump\t// in\n    tag_284:\n      mload(0x40)\n      dup1\n      swap2\n      sub\n      swap1\n      log4\n        /* \"ERC1155_Dropsite.sol\":1306:1380  _doSafeTransferAcceptanceCheck(operator, address(0), to, id, amount, data) */\n      tag_286\n        /* \"ERC1155_Dropsite.sol\":1337:1345  operator */\n      dup2\n        /* \"ERC1155_Dropsite.sol\":1355:1356  0 */\n      0x00\n        /* \"ERC1155_Dropsite.sol\":1359:1361  to */\n      dup8\n        /* \"ERC1155_Dropsite.sol\":1363:1365  id */\n      dup8\n        /* \"ERC1155_Dropsite.sol\":1367:1373  amount */\n      dup8\n        /* \"ERC1155_Dropsite.sol\":1375:1379  data */\n      dup8\n        /* \"ERC1155_Dropsite.sol\":1306:1336  _doSafeTransferAcceptanceCheck */\n      tag_287\n        /* \"ERC1155_Dropsite.sol\":1306:1380  _doSafeTransferAcceptanceCheck(operator, address(0), to, id, amount, data) */\n      jump\t// in\n    tag_286:\n        /* \"ERC1155_Dropsite.sol\":965:1387  {... */\n      pop\n        /* \"ERC1155_Dropsite.sol\":835:1387  function _mint(... */\n      pop\n      pop\n      pop\n      pop\n      jump\t// out\n        /* \"Dropsite.sol\":3276:3472  function random() internal view returns (uint) {... */\n    tag_230:\n        /* \"Dropsite.sol\":3317:3321  uint */\n      0x00\n        /* \"Dropsite.sol\":3353:3370  uint randomnumber */\n      dup1\n        /* \"Dropsite.sol\":3438:3440  20 */\n      0x14\n        /* \"Dropsite.sol\":3405:3420  block.timestamp */\n      timestamp\n        /* \"Dropsite.sol\":3422:3432  msg.sender */\n      caller\n        /* \"Dropsite.sol\":3388:3433  abi.encodePacked(block.timestamp, msg.sender) */\n      add(0x20, mload(0x40))\n      tag_289\n      swap3\n      swap2\n      swap1\n      tag_290\n      jump\t// in\n    tag_289:\n      mload(0x40)\n      0x20\n      dup2\n      dup4\n      sub\n      sub\n      dup2\n      mstore\n      swap1\n      0x40\n      mstore\n        /* \"Dropsite.sol\":3378:3434  keccak256(abi.encodePacked(block.timestamp, msg.sender)) */\n      dup1\n      mload\n      swap1\n      0x20\n      add\n      keccak256\n        /* \"Dropsite.sol\":3373:3435  uint(keccak256(abi.encodePacked(block.timestamp, msg.sender))) */\n      0x00\n      shr\n        /* \"Dropsite.sol\":3373:3440  uint(keccak256(abi.encodePacked(block.timestamp, msg.sender))) % 20 */\n      tag_291\n      swap2\n      swap1\n      tag_292\n      jump\t// in\n    tag_291:\n        /* \"Dropsite.sol\":3353:3440  uint randomnumber = uint(keccak256(abi.encodePacked(block.timestamp, msg.sender))) % 20 */\n      swap1\n      pop\n        /* \"Dropsite.sol\":3453:3465  randomnumber */\n      dup1\n        /* \"Dropsite.sol\":3446:3465  return randomnumber */\n      swap2\n      pop\n      pop\n        /* \"Dropsite.sol\":3276:3472  function random() internal view returns (uint) {... */\n      swap1\n      jump\t// out\n        /* \"Strings.sol\":329:1032  function toString(uint256 value) internal pure returns (string memory) {... */\n    tag_238:\n        /* \"Strings.sol\":385:398  string memory */\n      0x60\n        /* \"Strings.sol\":611:612  0 */\n      0x00\n        /* \"Strings.sol\":602:607  value */\n      dup3\n        /* \"Strings.sol\":602:612  value == 0 */\n      eq\n        /* \"Strings.sol\":598:649  if (value == 0) {... */\n      iszero\n      tag_294\n      jumpi\n        /* \"Strings.sol\":628:638  return \"0\" */\n      mload(0x40)\n      dup1\n      0x40\n      add\n      0x40\n      mstore\n      dup1\n      0x01\n      dup2\n      mstore\n      0x20\n      add\n      0x3000000000000000000000000000000000000000000000000000000000000000\n      dup2\n      mstore\n      pop\n      swap1\n      pop\n      jump(tag_293)\n        /* \"Strings.sol\":598:649  if (value == 0) {... */\n    tag_294:\n        /* \"Strings.sol\":658:670  uint256 temp */\n      0x00\n        /* \"Strings.sol\":673:678  value */\n      dup3\n        /* \"Strings.sol\":658:678  uint256 temp = value */\n      swap1\n      pop\n        /* \"Strings.sol\":688:702  uint256 digits */\n      0x00\n        /* \"Strings.sol\":712:787  while (temp != 0) {... */\n    tag_295:\n        /* \"Strings.sol\":727:728  0 */\n      0x00\n        /* \"Strings.sol\":719:723  temp */\n      dup3\n        /* \"Strings.sol\":719:728  temp != 0 */\n      eq\n        /* \"Strings.sol\":712:787  while (temp != 0) {... */\n      tag_296\n      jumpi\n        /* \"Strings.sol\":744:752  digits++ */\n      dup1\n      dup1\n      tag_297\n      swap1\n      tag_127\n      jump\t// in\n    tag_297:\n      swap2\n      pop\n      pop\n        /* \"Strings.sol\":774:776  10 */\n      0x0a\n        /* \"Strings.sol\":766:776  temp /= 10 */\n      dup3\n      tag_298\n      swap2\n      swap1\n      tag_299\n      jump\t// in\n    tag_298:\n      swap2\n      pop\n        /* \"Strings.sol\":712:787  while (temp != 0) {... */\n      jump(tag_295)\n    tag_296:\n        /* \"Strings.sol\":796:815  bytes memory buffer */\n      0x00\n        /* \"Strings.sol\":828:834  digits */\n      dup2\n        /* \"Strings.sol\":818:835  new bytes(digits) */\n      0xffffffffffffffff\n      dup2\n      gt\n      iszero\n      tag_300\n      jumpi\n      tag_301\n      tag_302\n      jump\t// in\n    tag_301:\n    tag_300:\n      mload(0x40)\n      swap1\n      dup1\n      dup3\n      mstore\n      dup1\n      0x1f\n      add\n      not(0x1f)\n      and\n      0x20\n      add\n      dup3\n      add\n      0x40\n      mstore\n      dup1\n      iszero\n      tag_303\n      jumpi\n      dup2\n      0x20\n      add\n      0x01\n      dup3\n      mul\n      dup1\n      calldatasize\n      dup4\n      calldatacopy\n      dup1\n      dup3\n      add\n      swap2\n      pop\n      pop\n      swap1\n      pop\n    tag_303:\n      pop\n        /* \"Strings.sol\":796:835  bytes memory buffer = new bytes(digits) */\n      swap1\n      pop\n        /* \"Strings.sol\":845:995  while (value != 0) {... */\n    tag_304:\n        /* \"Strings.sol\":861:862  0 */\n      0x00\n        /* \"Strings.sol\":852:857  value */\n      dup6\n        /* \"Strings.sol\":852:862  value != 0 */\n      eq\n        /* \"Strings.sol\":845:995  while (value != 0) {... */\n      tag_305\n      jumpi\n        /* \"Strings.sol\":888:889  1 */\n      0x01\n        /* \"Strings.sol\":878:889  digits -= 1 */\n      dup3\n      tag_306\n      swap2\n      swap1\n      tag_307\n      jump\t// in\n    tag_306:\n      swap2\n      pop\n        /* \"Strings.sol\":954:956  10 */\n      0x0a\n        /* \"Strings.sol\":946:951  value */\n      dup6\n        /* \"Strings.sol\":946:956  value % 10 */\n      tag_308\n      swap2\n      swap1\n      tag_292\n      jump\t// in\n    tag_308:\n        /* \"Strings.sol\":933:935  48 */\n      0x30\n        /* \"Strings.sol\":933:957  48 + uint256(value % 10) */\n      tag_309\n      swap2\n      swap1\n      tag_224\n      jump\t// in\n    tag_309:\n        /* \"Strings.sol\":920:959  bytes1(uint8(48 + uint256(value % 10))) */\n      0xf8\n      shl\n        /* \"Strings.sol\":903:909  buffer */\n      dup2\n        /* \"Strings.sol\":910:916  digits */\n      dup4\n        /* \"Strings.sol\":903:917  buffer[digits] */\n      dup2\n      mload\n      dup2\n      lt\n      tag_310\n      jumpi\n      tag_311\n      tag_123\n      jump\t// in\n    tag_311:\n    tag_310:\n      0x20\n      add\n      add\n        /* \"Strings.sol\":903:959  buffer[digits] = bytes1(uint8(48 + uint256(value % 10))) */\n      swap1\n      not(0xffffffffffffffffffffffffffffffffffffffffffffffffffffffffffffff)\n      and\n      swap1\n      dup2\n      0x00\n      byte\n      swap1\n      mstore8\n      pop\n        /* \"Strings.sol\":982:984  10 */\n      0x0a\n        /* \"Strings.sol\":973:984  value /= 10 */\n      dup6\n      tag_312\n      swap2\n      swap1\n      tag_299\n      jump\t// in\n    tag_312:\n      swap5\n      pop\n        /* \"Strings.sol\":845:995  while (value != 0) {... */\n      jump(tag_304)\n    tag_305:\n        /* \"Strings.sol\":1018:1024  buffer */\n      dup1\n        /* \"Strings.sol\":1004:1025  return string(buffer) */\n      swap4\n      pop\n      pop\n      pop\n      pop\n        /* \"Strings.sol\":329:1032  function toString(uint256 value) internal pure returns (string memory) {... */\n    tag_293:\n      swap2\n      swap1\n      pop\n      jump\t// out\n        /* \"ERC1155_Dropsite.sol\":2347:2540  function _asSingletonArray(uint256 element) private pure returns (uint256[] memory) {... */\n    tag_280:\n        /* \"ERC1155_Dropsite.sol\":2413:2429  uint256[] memory */\n      0x60\n        /* \"ERC1155_Dropsite.sol\":2441:2463  uint256[] memory array */\n      0x00\n        /* \"ERC1155_Dropsite.sol\":2480:2481  1 */\n      0x01\n        /* \"ERC1155_Dropsite.sol\":2466:2482  new uint256[](1) */\n      0xffffffffffffffff\n      dup2\n      gt\n      iszero\n      tag_314\n      jumpi\n      tag_315\n      tag_302\n      jump\t// in\n    tag_315:\n    tag_314:\n      mload(0x40)\n      swap1\n      dup1\n      dup3\n      mstore\n      dup1\n      0x20\n      mul\n      0x20\n      add\n      dup3\n      add\n      0x40\n      mstore\n      dup1\n      iszero\n      tag_316\n      jumpi\n      dup2\n      0x20\n      add\n      0x20\n      dup3\n      mul\n      dup1\n      calldatasize\n      dup4\n      calldatacopy\n      dup1\n      dup3\n      add\n      swap2\n      pop\n      pop\n      swap1\n      pop\n    tag_316:\n      pop\n        /* \"ERC1155_Dropsite.sol\":2441:2482  uint256[] memory array = new uint256[](1) */\n      swap1\n      pop\n        /* \"ERC1155_Dropsite.sol\":2503:2510  element */\n      dup3\n        /* \"ERC1155_Dropsite.sol\":2492:2497  array */\n      dup2\n        /* \"ERC1155_Dropsite.sol\":2498:2499  0 */\n      0x00\n        /* \"ERC1155_Dropsite.sol\":2492:2500  array[0] */\n      dup2\n      mload\n      dup2\n      lt\n      tag_317\n      jumpi\n      tag_318\n      tag_123\n      jump\t// in\n    tag_318:\n    tag_317:\n      0x20\n      mul\n      0x20\n      add\n      add\n        /* \"ERC1155_Dropsite.sol\":2492:2510  array[0] = element */\n      dup2\n      dup2\n      mstore\n      pop\n      pop\n        /* \"ERC1155_Dropsite.sol\":2528:2533  array */\n      dup1\n        /* \"ERC1155_Dropsite.sol\":2521:2533  return array */\n      swap2\n      pop\n      pop\n        /* \"ERC1155_Dropsite.sol\":2347:2540  function _asSingletonArray(uint256 element) private pure returns (uint256[] memory) {... */\n      swap2\n      swap1\n      pop\n      jump\t// out\n        /* \"ERC1155_Dropsite.sol\":1394:1609  function _beforeTokenTransfer(... */\n    tag_282:\n      pop\n      pop\n      pop\n      pop\n      pop\n      pop\n      jump\t// out\n        /* \"ERC1155_Dropsite.sol\":1615:2341  function _doSafeTransferAcceptanceCheck(... */\n    tag_287:\n        /* \"ERC1155_Dropsite.sol\":1823:1838  to.isContract() */\n      tag_321\n        /* \"ERC1155_Dropsite.sol\":1823:1825  to */\n      dup5\n        /* \"ERC1155_Dropsite.sol\":1823:1836  to.isContract */\n      0xffffffffffffffffffffffffffffffffffffffff\n      and\n      tag_322\n        /* \"ERC1155_Dropsite.sol\":1823:1838  to.isContract() */\n      jump\t// in\n    tag_321:\n        /* \"ERC1155_Dropsite.sol\":1819:2335  if (to.isContract()) {... */\n      iszero\n      tag_323\n      jumpi\n        /* \"ERC1155_Dropsite.sol\":1875:1877  to */\n      dup4\n        /* \"ERC1155_Dropsite.sol\":1858:1896  IERC1155Receiver(to).onERC1155Received */\n      0xffffffffffffffffffffffffffffffffffffffff\n      and\n      0xae89a248\n        /* \"ERC1155_Dropsite.sol\":1897:1905  operator */\n      dup8\n        /* \"ERC1155_Dropsite.sol\":1907:1911  from */\n      dup8\n        /* \"ERC1155_Dropsite.sol\":1913:1915  id */\n      dup7\n        /* \"ERC1155_Dropsite.sol\":1917:1923  amount */\n      dup7\n        /* \"ERC1155_Dropsite.sol\":1925:1929  data */\n      dup7\n        /* \"ERC1155_Dropsite.sol\":1858:1930  IERC1155Receiver(to).onERC1155Received(operator, from, id, amount, data) */\n      mload(0x40)\n      dup7\n      0xffffffff\n      and\n      0xe0\n      shl\n      dup2\n      mstore\n      0x04\n      add\n      tag_324\n      swap6\n      swap5\n      swap4\n      swap3\n      swap2\n      swap1\n      tag_325\n      jump\t// in\n    tag_324:\n      0x20\n      mload(0x40)\n      dup1\n      dup4\n      sub\n      dup2\n      0x00\n      dup8\n      dup1\n      extcodesize\n      iszero\n      dup1\n      iszero\n      tag_326\n      jumpi\n      0x00\n      dup1\n      revert\n    tag_326:\n      pop\n      gas\n      call\n      swap3\n      pop\n      pop\n      pop\n      dup1\n      iszero\n      tag_327\n      jumpi\n      pop\n      mload(0x40)\n      returndatasize\n      not(0x1f)\n      0x1f\n      dup3\n      add\n      and\n      dup3\n      add\n      dup1\n      0x40\n      mstore\n      pop\n      dup2\n      add\n      swap1\n      tag_328\n      swap2\n      swap1\n      tag_329\n      jump\t// in\n    tag_328:\n      0x01\n    tag_327:\n        /* \"ERC1155_Dropsite.sol\":1854:2325  try IERC1155Receiver(to).onERC1155Received(operator, from, id, amount, data) returns (bytes4 response) {... */\n      tag_330\n      jumpi\n      tag_334\n      tag_335\n      jump\t// in\n    tag_334:\n      dup1\n      0x08c379a0\n      eq\n      iszero\n      tag_333\n      jumpi\n      pop\n      tag_336\n      tag_337\n      jump\t// in\n    tag_336:\n      dup1\n      tag_338\n      jumpi\n      pop\n      jump(tag_332)\n    tag_338:\n        /* \"ERC1155_Dropsite.sol\":2201:2207  reason */\n      dup1\n        /* \"ERC1155_Dropsite.sol\":2194:2208  revert(reason) */\n      mload(0x40)\n      0x08c379a000000000000000000000000000000000000000000000000000000000\n      dup2\n      mstore\n      0x04\n      add\n      tag_339\n      swap2\n      swap1\n      tag_340\n      jump\t// in\n    tag_339:\n      mload(0x40)\n      dup1\n      swap2\n      sub\n      swap1\n      revert\n        /* \"ERC1155_Dropsite.sol\":1854:2325  try IERC1155Receiver(to).onERC1155Received(operator, from, id, amount, data) returns (bytes4 response) {... */\n    tag_333:\n      pop\n    tag_332:\n        /* \"ERC1155_Dropsite.sol\":2248:2310  revert(\"ERC1155: transfer to non ERC1155Receiver implementer\") */\n      mload(0x40)\n      0x08c379a000000000000000000000000000000000000000000000000000000000\n      dup2\n      mstore\n      0x04\n      add\n      tag_341\n      swap1\n      tag_342\n      jump\t// in\n    tag_341:\n      mload(0x40)\n      dup1\n      swap2\n      sub\n      swap1\n      revert\n        /* \"ERC1155_Dropsite.sol\":1854:2325  try IERC1155Receiver(to).onERC1155Received(operator, from, id, amount, data) returns (bytes4 response) {... */\n    tag_330:\n        /* \"ERC1155_Dropsite.sol\":1991:2034  IERC1155Receiver.onERC1155Received.selector */\n      shl(0xe0, 0xae89a248)\n        /* \"ERC1155_Dropsite.sol\":1979:2034  response != IERC1155Receiver.onERC1155Received.selector */\n      not(0xffffffffffffffffffffffffffffffffffffffffffffffffffffffff)\n      and\n        /* \"ERC1155_Dropsite.sol\":1979:1987  response */\n      dup2\n        /* \"ERC1155_Dropsite.sol\":1979:2034  response != IERC1155Receiver.onERC1155Received.selector */\n      not(0xffffffffffffffffffffffffffffffffffffffffffffffffffffffff)\n      and\n      eq\n        /* \"ERC1155_Dropsite.sol\":1975:2127  if (response != IERC1155Receiver.onERC1155Received.selector) {... */\n      tag_344\n      jumpi\n        /* \"ERC1155_Dropsite.sol\":2058:2108  revert(\"ERC1155: ERC1155Receiver rejected tokens\") */\n      mload(0x40)\n      0x08c379a000000000000000000000000000000000000000000000000000000000\n      dup2\n      mstore\n      0x04\n      add\n      tag_345\n      swap1\n      tag_346\n      jump\t// in\n    tag_345:\n      mload(0x40)\n      dup1\n      swap2\n      sub\n      swap1\n      revert\n        /* \"ERC1155_Dropsite.sol\":1975:2127  if (response != IERC1155Receiver.onERC1155Received.selector) {... */\n    tag_344:\n        /* \"ERC1155_Dropsite.sol\":1931:2141  returns (bytes4 response) {... */\n      pop\n        /* \"ERC1155_Dropsite.sol\":1819:2335  if (to.isContract()) {... */\n    tag_323:\n        /* \"ERC1155_Dropsite.sol\":1615:2341  function _doSafeTransferAcceptanceCheck(... */\n      pop\n      pop\n      pop\n      pop\n      pop\n      pop\n      jump\t// out\n        /* \"Address.sol\":771:1148  function isContract(address account) internal view returns (bool) {... */\n    tag_322:\n        /* \"Address.sol\":831:835  bool */\n      0x00\n        /* \"Address.sol\":1034:1046  uint256 size */\n      dup1\n        /* \"Address.sol\":1099:1106  account */\n      dup3\n        /* \"Address.sol\":1087:1107  extcodesize(account) */\n      extcodesize\n        /* \"Address.sol\":1079:1107  size := extcodesize(account) */\n      swap1\n      pop\n        /* \"Address.sol\":1140:1141  0 */\n      0x00\n        /* \"Address.sol\":1133:1137  size */\n      dup2\n        /* \"Address.sol\":1133:1141  size > 0 */\n      gt\n        /* \"Address.sol\":1126:1141  return size > 0 */\n      swap2\n      pop\n      pop\n        /* \"Address.sol\":771:1148  function isContract(address account) internal view returns (bool) {... */\n      swap2\n      swap1\n      pop\n      jump\t// out\n    tag_242:\n      dup3\n      dup1\n      sload\n      tag_348\n      swap1\n      tag_209\n      jump\t// in\n    tag_348:\n      swap1\n      0x00\n      mstore\n      keccak256(0x00, 0x20)\n      swap1\n      0x1f\n      add\n      0x20\n      swap1\n      div\n      dup2\n      add\n      swap3\n      dup3\n      tag_350\n      jumpi\n      0x00\n      dup6\n      sstore\n      jump(tag_349)\n    tag_350:\n      dup3\n      0x1f\n      lt\n      tag_351\n      jumpi\n      dup1\n      mload\n      not(0xff)\n      and\n      dup4\n      dup1\n      add\n      or\n      dup6\n      sstore\n      jump(tag_349)\n    tag_351:\n      dup3\n      dup1\n      add\n      0x01\n      add\n      dup6\n      sstore\n      dup3\n      iszero\n      tag_349\n      jumpi\n      swap2\n      dup3\n      add\n    tag_352:\n      dup3\n      dup2\n      gt\n      iszero\n      tag_353\n      jumpi\n      dup3\n      mload\n      dup3\n      sstore\n      swap2\n      0x20\n      add\n      swap2\n      swap1\n      0x01\n      add\n      swap1\n      jump(tag_352)\n    tag_353:\n    tag_349:\n      pop\n      swap1\n      pop\n      tag_354\n      swap2\n      swap1\n      tag_355\n      jump\t// in\n    tag_354:\n      pop\n      swap1\n      jump\t// out\n    tag_261:\n      dup3\n      dup1\n      sload\n      tag_356\n      swap1\n      tag_209\n      jump\t// in\n    tag_356:\n      swap1\n      0x00\n      mstore\n      keccak256(0x00, 0x20)\n      swap1\n      0x1f\n      add\n      0x20\n      swap1\n      div\n      dup2\n      add\n      swap3\n      dup3\n      tag_358\n      jumpi\n      0x00\n      dup6\n      sstore\n      jump(tag_357)\n    tag_358:\n      dup3\n      0x1f\n      lt\n      tag_359\n      jumpi\n      dup1\n      sload\n      dup6\n      sstore\n      jump(tag_357)\n    tag_359:\n      dup3\n      dup1\n      add\n      0x01\n      add\n      dup6\n      sstore\n      dup3\n      iszero\n      tag_357\n      jumpi\n      0x00\n      mstore\n      keccak256(0x00, 0x20)\n      swap2\n      0x1f\n      add\n      0x20\n      swap1\n      div\n      dup3\n      add\n    tag_360:\n      dup3\n      dup2\n      gt\n      iszero\n      tag_361\n      jumpi\n      dup3\n      sload\n      dup3\n      sstore\n      swap2\n      0x01\n      add\n      swap2\n      swap1\n      0x01\n      add\n      swap1\n      jump(tag_360)\n    tag_361:\n    tag_357:\n      pop\n      swap1\n      pop\n      tag_362\n      swap2\n      swap1\n      tag_355\n      jump\t// in\n    tag_362:\n      pop\n      swap1\n      jump\t// out\n    tag_355:\n    tag_363:\n      dup1\n      dup3\n      gt\n      iszero\n      tag_364\n      jumpi\n      0x00\n      dup2\n      0x00\n      swap1\n      sstore\n      pop\n      0x01\n      add\n      jump(tag_363)\n    tag_364:\n      pop\n      swap1\n      jump\t// out\n        /* \"#utility.yul\":7:146   */\n    tag_366:\n        /* \"#utility.yul\":53:58   */\n      0x00\n        /* \"#utility.yul\":91:97   */\n      dup2\n        /* \"#utility.yul\":78:98   */\n      calldataload\n        /* \"#utility.yul\":69:98   */\n      swap1\n      pop\n        /* \"#utility.yul\":107:140   */\n      tag_368\n        /* \"#utility.yul\":134:139   */\n      dup2\n        /* \"#utility.yul\":107:140   */\n      tag_369\n      jump\t// in\n    tag_368:\n        /* \"#utility.yul\":7:146   */\n      swap3\n      swap2\n      pop\n      pop\n      jump\t// out\n        /* \"#utility.yul\":152:307   */\n    tag_370:\n        /* \"#utility.yul\":206:211   */\n      0x00\n        /* \"#utility.yul\":244:250   */\n      dup2\n        /* \"#utility.yul\":231:251   */\n      calldataload\n        /* \"#utility.yul\":222:251   */\n      swap1\n      pop\n        /* \"#utility.yul\":260:301   */\n      tag_372\n        /* \"#utility.yul\":295:300   */\n      dup2\n        /* \"#utility.yul\":260:301   */\n      tag_373\n      jump\t// in\n    tag_372:\n        /* \"#utility.yul\":152:307   */\n      swap3\n      swap2\n      pop\n      pop\n      jump\t// out\n        /* \"#utility.yul\":313:454   */\n    tag_374:\n        /* \"#utility.yul\":369:374   */\n      0x00\n        /* \"#utility.yul\":400:406   */\n      dup2\n        /* \"#utility.yul\":394:407   */\n      mload\n        /* \"#utility.yul\":385:407   */\n      swap1\n      pop\n        /* \"#utility.yul\":416:448   */\n      tag_376\n        /* \"#utility.yul\":442:447   */\n      dup2\n        /* \"#utility.yul\":416:448   */\n      tag_377\n      jump\t// in\n    tag_376:\n        /* \"#utility.yul\":313:454   */\n      swap3\n      swap2\n      pop\n      pop\n      jump\t// out\n        /* \"#utility.yul\":460:599   */\n    tag_378:\n        /* \"#utility.yul\":506:511   */\n      0x00\n        /* \"#utility.yul\":544:550   */\n      dup2\n        /* \"#utility.yul\":531:551   */\n      calldataload\n        /* \"#utility.yul\":522:551   */\n      swap1\n      pop\n        /* \"#utility.yul\":560:593   */\n      tag_380\n        /* \"#utility.yul\":587:592   */\n      dup2\n        /* \"#utility.yul\":560:593   */\n      tag_381\n      jump\t// in\n    tag_380:\n        /* \"#utility.yul\":460:599   */\n      swap3\n      swap2\n      pop\n      pop\n      jump\t// out\n        /* \"#utility.yul\":605:934   */\n    tag_74:\n        /* \"#utility.yul\":664:670   */\n      0x00\n        /* \"#utility.yul\":713:715   */\n      0x20\n        /* \"#utility.yul\":701:710   */\n      dup3\n        /* \"#utility.yul\":692:699   */\n      dup5\n        /* \"#utility.yul\":688:711   */\n      sub\n        /* \"#utility.yul\":684:716   */\n      slt\n        /* \"#utility.yul\":681:800   */\n      iszero\n      tag_383\n      jumpi\n        /* \"#utility.yul\":719:798   */\n      tag_384\n      tag_385\n      jump\t// in\n    tag_384:\n        /* \"#utility.yul\":681:800   */\n    tag_383:\n        /* \"#utility.yul\":839:840   */\n      0x00\n        /* \"#utility.yul\":864:917   */\n      tag_386\n        /* \"#utility.yul\":909:916   */\n      dup5\n        /* \"#utility.yul\":900:906   */\n      dup3\n        /* \"#utility.yul\":889:898   */\n      dup6\n        /* \"#utility.yul\":885:907   */\n      add\n        /* \"#utility.yul\":864:917   */\n      tag_366\n      jump\t// in\n    tag_386:\n        /* \"#utility.yul\":854:917   */\n      swap2\n      pop\n        /* \"#utility.yul\":810:927   */\n      pop\n        /* \"#utility.yul\":605:934   */\n      swap3\n      swap2\n      pop\n      pop\n      jump\t// out\n        /* \"#utility.yul\":940:1285   */\n    tag_24:\n        /* \"#utility.yul\":1007:1013   */\n      0x00\n        /* \"#utility.yul\":1056:1058   */\n      0x20\n        /* \"#utility.yul\":1044:1053   */\n      dup3\n        /* \"#utility.yul\":1035:1042   */\n      dup5\n        /* \"#utility.yul\":1031:1054   */\n      sub\n        /* \"#utility.yul\":1027:1059   */\n      slt\n        /* \"#utility.yul\":1024:1143   */\n      iszero\n      tag_388\n      jumpi\n        /* \"#utility.yul\":1062:1141   */\n      tag_389\n      tag_385\n      jump\t// in\n    tag_389:\n        /* \"#utility.yul\":1024:1143   */\n    tag_388:\n        /* \"#utility.yul\":1182:1183   */\n      0x00\n        /* \"#utility.yul\":1207:1268   */\n      tag_390\n        /* \"#utility.yul\":1260:1267   */\n      dup5\n        /* \"#utility.yul\":1251:1257   */\n      dup3\n        /* \"#utility.yul\":1240:1249   */\n      dup6\n        /* \"#utility.yul\":1236:1258   */\n      add\n        /* \"#utility.yul\":1207:1268   */\n      tag_370\n      jump\t// in\n    tag_390:\n        /* \"#utility.yul\":1197:1268   */\n      swap2\n      pop\n        /* \"#utility.yul\":1153:1278   */\n      pop\n        /* \"#utility.yul\":940:1285   */\n      swap3\n      swap2\n      pop\n      pop\n      jump\t// out\n        /* \"#utility.yul\":1291:1765   */\n    tag_37:\n        /* \"#utility.yul\":1359:1365   */\n      0x00\n        /* \"#utility.yul\":1367:1373   */\n      dup1\n        /* \"#utility.yul\":1416:1418   */\n      0x40\n        /* \"#utility.yul\":1404:1413   */\n      dup4\n        /* \"#utility.yul\":1395:1402   */\n      dup6\n        /* \"#utility.yul\":1391:1414   */\n      sub\n        /* \"#utility.yul\":1387:1419   */\n      slt\n        /* \"#utility.yul\":1384:1503   */\n      iszero\n      tag_392\n      jumpi\n        /* \"#utility.yul\":1422:1501   */\n      tag_393\n      tag_385\n      jump\t// in\n    tag_393:\n        /* \"#utility.yul\":1384:1503   */\n    tag_392:\n        /* \"#utility.yul\":1542:1543   */\n      0x00\n        /* \"#utility.yul\":1567:1620   */\n      tag_394\n        /* \"#utility.yul\":1612:1619   */\n      dup6\n        /* \"#utility.yul\":1603:1609   */\n      dup3\n        /* \"#utility.yul\":1592:1601   */\n      dup7\n        /* \"#utility.yul\":1588:1610   */\n      add\n        /* \"#utility.yul\":1567:1620   */\n      tag_366\n      jump\t// in\n    tag_394:\n        /* \"#utility.yul\":1557:1620   */\n      swap3\n      pop\n        /* \"#utility.yul\":1513:1630   */\n      pop\n        /* \"#utility.yul\":1669:1671   */\n      0x20\n        /* \"#utility.yul\":1695:1748   */\n      tag_395\n        /* \"#utility.yul\":1740:1747   */\n      dup6\n        /* \"#utility.yul\":1731:1737   */\n      dup3\n        /* \"#utility.yul\":1720:1729   */\n      dup7\n        /* \"#utility.yul\":1716:1738   */\n      add\n        /* \"#utility.yul\":1695:1748   */\n      tag_378\n      jump\t// in\n    tag_395:\n        /* \"#utility.yul\":1685:1748   */\n      swap2\n      pop\n        /* \"#utility.yul\":1640:1758   */\n      pop\n        /* \"#utility.yul\":1291:1765   */\n      swap3\n      pop\n      swap3\n      swap1\n      pop\n      jump\t// out\n        /* \"#utility.yul\":1771:2120   */\n    tag_329:\n        /* \"#utility.yul\":1840:1846   */\n      0x00\n        /* \"#utility.yul\":1889:1891   */\n      0x20\n        /* \"#utility.yul\":1877:1886   */\n      dup3\n        /* \"#utility.yul\":1868:1875   */\n      dup5\n        /* \"#utility.yul\":1864:1887   */\n      sub\n        /* \"#utility.yul\":1860:1892   */\n      slt\n        /* \"#utility.yul\":1857:1976   */\n      iszero\n      tag_397\n      jumpi\n        /* \"#utility.yul\":1895:1974   */\n      tag_398\n      tag_385\n      jump\t// in\n    tag_398:\n        /* \"#utility.yul\":1857:1976   */\n    tag_397:\n        /* \"#utility.yul\":2015:2016   */\n      0x00\n        /* \"#utility.yul\":2040:2103   */\n      tag_399\n        /* \"#utility.yul\":2095:2102   */\n      dup5\n        /* \"#utility.yul\":2086:2092   */\n      dup3\n        /* \"#utility.yul\":2075:2084   */\n      dup6\n        /* \"#utility.yul\":2071:2093   */\n      add\n        /* \"#utility.yul\":2040:2103   */\n      tag_374\n      jump\t// in\n    tag_399:\n        /* \"#utility.yul\":2030:2103   */\n      swap2\n      pop\n        /* \"#utility.yul\":1986:2113   */\n      pop\n        /* \"#utility.yul\":1771:2120   */\n      swap3\n      swap2\n      pop\n      pop\n      jump\t// out\n        /* \"#utility.yul\":2126:2455   */\n    tag_69:\n        /* \"#utility.yul\":2185:2191   */\n      0x00\n        /* \"#utility.yul\":2234:2236   */\n      0x20\n        /* \"#utility.yul\":2222:2231   */\n      dup3\n        /* \"#utility.yul\":2213:2220   */\n      dup5\n        /* \"#utility.yul\":2209:2232   */\n      sub\n        /* \"#utility.yul\":2205:2237   */\n      slt\n        /* \"#utility.yul\":2202:2321   */\n      iszero\n      tag_401\n      jumpi\n        /* \"#utility.yul\":2240:2319   */\n      tag_402\n      tag_385\n      jump\t// in\n    tag_402:\n        /* \"#utility.yul\":2202:2321   */\n    tag_401:\n        /* \"#utility.yul\":2360:2361   */\n      0x00\n        /* \"#utility.yul\":2385:2438   */\n      tag_403\n        /* \"#utility.yul\":2430:2437   */\n      dup5\n        /* \"#utility.yul\":2421:2427   */\n      dup3\n        /* \"#utility.yul\":2410:2419   */\n      dup6\n        /* \"#utility.yul\":2406:2428   */\n      add\n        /* \"#utility.yul\":2385:2438   */\n      tag_378\n      jump\t// in\n    tag_403:\n        /* \"#utility.yul\":2375:2438   */\n      swap2\n      pop\n        /* \"#utility.yul\":2331:2448   */\n      pop\n        /* \"#utility.yul\":2126:2455   */\n      swap3\n      swap2\n      pop\n      pop\n      jump\t// out\n        /* \"#utility.yul\":2461:2657   */\n    tag_404:\n        /* \"#utility.yul\":2550:2560   */\n      0x00\n        /* \"#utility.yul\":2585:2651   */\n      tag_406\n        /* \"#utility.yul\":2647:2650   */\n      dup4\n        /* \"#utility.yul\":2639:2645   */\n      dup4\n        /* \"#utility.yul\":2585:2651   */\n      tag_407\n      jump\t// in\n    tag_406:\n        /* \"#utility.yul\":2571:2651   */\n      swap1\n      pop\n        /* \"#utility.yul\":2461:2657   */\n      swap3\n      swap2\n      pop\n      pop\n      jump\t// out\n        /* \"#utility.yul\":2663:2842   */\n    tag_408:\n        /* \"#utility.yul\":2732:2742   */\n      0x00\n        /* \"#utility.yul\":2753:2799   */\n      tag_410\n        /* \"#utility.yul\":2795:2798   */\n      dup4\n        /* \"#utility.yul\":2787:2793   */\n      dup4\n        /* \"#utility.yul\":2753:2799   */\n      tag_411\n      jump\t// in\n    tag_410:\n        /* \"#utility.yul\":2831:2835   */\n      0x20\n        /* \"#utility.yul\":2826:2829   */\n      dup4\n        /* \"#utility.yul\":2822:2836   */\n      add\n        /* \"#utility.yul\":2808:2836   */\n      swap1\n      pop\n        /* \"#utility.yul\":2663:2842   */\n      swap3\n      swap2\n      pop\n      pop\n      jump\t// out\n        /* \"#utility.yul\":2848:2990   */\n    tag_412:\n        /* \"#utility.yul\":2951:2983   */\n      tag_414\n        /* \"#utility.yul\":2977:2982   */\n      dup2\n        /* \"#utility.yul\":2951:2983   */\n      tag_415\n      jump\t// in\n    tag_414:\n        /* \"#utility.yul\":2946:2949   */\n      dup3\n        /* \"#utility.yul\":2939:2984   */\n      mstore\n        /* \"#utility.yul\":2848:2990   */\n      pop\n      pop\n      jump\t// out\n        /* \"#utility.yul\":2996:3114   */\n    tag_416:\n        /* \"#utility.yul\":3083:3107   */\n      tag_418\n        /* \"#utility.yul\":3101:3106   */\n      dup2\n        /* \"#utility.yul\":3083:3107   */\n      tag_419\n      jump\t// in\n    tag_418:\n        /* \"#utility.yul\":3078:3081   */\n      dup3\n        /* \"#utility.yul\":3071:3108   */\n      mstore\n        /* \"#utility.yul\":2996:3114   */\n      pop\n      pop\n      jump\t// out\n        /* \"#utility.yul\":3120:3277   */\n    tag_420:\n        /* \"#utility.yul\":3225:3270   */\n      tag_422\n        /* \"#utility.yul\":3245:3269   */\n      tag_423\n        /* \"#utility.yul\":3263:3268   */\n      dup3\n        /* \"#utility.yul\":3245:3269   */\n      tag_419\n      jump\t// in\n    tag_423:\n        /* \"#utility.yul\":3225:3270   */\n      tag_424\n      jump\t// in\n    tag_422:\n        /* \"#utility.yul\":3220:3223   */\n      dup3\n        /* \"#utility.yul\":3213:3271   */\n      mstore\n        /* \"#utility.yul\":3120:3277   */\n      pop\n      pop\n      jump\t// out\n        /* \"#utility.yul\":3311:4302   */\n    tag_425:\n        /* \"#utility.yul\":3450:3453   */\n      0x00\n        /* \"#utility.yul\":3479:3543   */\n      tag_427\n        /* \"#utility.yul\":3537:3542   */\n      dup3\n        /* \"#utility.yul\":3479:3543   */\n      tag_428\n      jump\t// in\n    tag_427:\n        /* \"#utility.yul\":3559:3655   */\n      tag_429\n        /* \"#utility.yul\":3648:3654   */\n      dup2\n        /* \"#utility.yul\":3643:3646   */\n      dup6\n        /* \"#utility.yul\":3559:3655   */\n      tag_430\n      jump\t// in\n    tag_429:\n        /* \"#utility.yul\":3552:3655   */\n      swap4\n      pop\n        /* \"#utility.yul\":3681:3684   */\n      dup4\n        /* \"#utility.yul\":3726:3730   */\n      0x20\n        /* \"#utility.yul\":3718:3724   */\n      dup3\n        /* \"#utility.yul\":3714:3731   */\n      mul\n        /* \"#utility.yul\":3709:3712   */\n      dup6\n        /* \"#utility.yul\":3705:3732   */\n      add\n        /* \"#utility.yul\":3756:3822   */\n      tag_431\n        /* \"#utility.yul\":3816:3821   */\n      dup6\n        /* \"#utility.yul\":3756:3822   */\n      tag_432\n      jump\t// in\n    tag_431:\n        /* \"#utility.yul\":3845:3852   */\n      dup1\n        /* \"#utility.yul\":3876:3877   */\n      0x00\n        /* \"#utility.yul\":3861:4257   */\n    tag_433:\n        /* \"#utility.yul\":3886:3892   */\n      dup6\n        /* \"#utility.yul\":3883:3884   */\n      dup2\n        /* \"#utility.yul\":3880:3893   */\n      lt\n        /* \"#utility.yul\":3861:4257   */\n      iszero\n      tag_435\n      jumpi\n        /* \"#utility.yul\":3957:3966   */\n      dup5\n        /* \"#utility.yul\":3951:3955   */\n      dup5\n        /* \"#utility.yul\":3947:3967   */\n      sub\n        /* \"#utility.yul\":3942:3945   */\n      dup10\n        /* \"#utility.yul\":3935:3968   */\n      mstore\n        /* \"#utility.yul\":4008:4014   */\n      dup2\n        /* \"#utility.yul\":4002:4015   */\n      mload\n        /* \"#utility.yul\":4036:4120   */\n      tag_436\n        /* \"#utility.yul\":4115:4119   */\n      dup6\n        /* \"#utility.yul\":4100:4113   */\n      dup3\n        /* \"#utility.yul\":4036:4120   */\n      tag_404\n      jump\t// in\n    tag_436:\n        /* \"#utility.yul\":4028:4120   */\n      swap5\n      pop\n        /* \"#utility.yul\":4143:4213   */\n      tag_437\n        /* \"#utility.yul\":4206:4212   */\n      dup4\n        /* \"#utility.yul\":4143:4213   */\n      tag_438\n      jump\t// in\n    tag_437:\n        /* \"#utility.yul\":4133:4213   */\n      swap3\n      pop\n        /* \"#utility.yul\":4242:4246   */\n      0x20\n        /* \"#utility.yul\":4237:4240   */\n      dup11\n        /* \"#utility.yul\":4233:4247   */\n      add\n        /* \"#utility.yul\":4226:4247   */\n      swap10\n      pop\n        /* \"#utility.yul\":3921:4257   */\n      pop\n        /* \"#utility.yul\":3908:3909   */\n      0x01\n        /* \"#utility.yul\":3905:3906   */\n      dup2\n        /* \"#utility.yul\":3901:3910   */\n      add\n        /* \"#utility.yul\":3896:3910   */\n      swap1\n      pop\n        /* \"#utility.yul\":3861:4257   */\n      jump(tag_433)\n    tag_435:\n        /* \"#utility.yul\":3865:3879   */\n      pop\n        /* \"#utility.yul\":4273:4277   */\n      dup3\n        /* \"#utility.yul\":4266:4277   */\n      swap8\n      pop\n        /* \"#utility.yul\":4293:4296   */\n      dup8\n        /* \"#utility.yul\":4286:4296   */\n      swap6\n      pop\n        /* \"#utility.yul\":3455:4302   */\n      pop\n      pop\n      pop\n      pop\n      pop\n        /* \"#utility.yul\":3311:4302   */\n      swap3\n      swap2\n      pop\n      pop\n      jump\t// out\n        /* \"#utility.yul\":4338:5070   */\n    tag_439:\n        /* \"#utility.yul\":4457:4460   */\n      0x00\n        /* \"#utility.yul\":4486:4540   */\n      tag_441\n        /* \"#utility.yul\":4534:4539   */\n      dup3\n        /* \"#utility.yul\":4486:4540   */\n      tag_442\n      jump\t// in\n    tag_441:\n        /* \"#utility.yul\":4556:4642   */\n      tag_443\n        /* \"#utility.yul\":4635:4641   */\n      dup2\n        /* \"#utility.yul\":4630:4633   */\n      dup6\n        /* \"#utility.yul\":4556:4642   */\n      tag_444\n      jump\t// in\n    tag_443:\n        /* \"#utility.yul\":4549:4642   */\n      swap4\n      pop\n        /* \"#utility.yul\":4666:4722   */\n      tag_445\n        /* \"#utility.yul\":4716:4721   */\n      dup4\n        /* \"#utility.yul\":4666:4722   */\n      tag_446\n      jump\t// in\n    tag_445:\n        /* \"#utility.yul\":4745:4752   */\n      dup1\n        /* \"#utility.yul\":4776:4777   */\n      0x00\n        /* \"#utility.yul\":4761:5045   */\n    tag_447:\n        /* \"#utility.yul\":4786:4792   */\n      dup4\n        /* \"#utility.yul\":4783:4784   */\n      dup2\n        /* \"#utility.yul\":4780:4793   */\n      lt\n        /* \"#utility.yul\":4761:5045   */\n      iszero\n      tag_449\n      jumpi\n        /* \"#utility.yul\":4862:4868   */\n      dup2\n        /* \"#utility.yul\":4856:4869   */\n      mload\n        /* \"#utility.yul\":4889:4952   */\n      tag_450\n        /* \"#utility.yul\":4948:4951   */\n      dup9\n        /* \"#utility.yul\":4933:4946   */\n      dup3\n        /* \"#utility.yul\":4889:4952   */\n      tag_408\n      jump\t// in\n    tag_450:\n        /* \"#utility.yul\":4882:4952   */\n      swap8\n      pop\n        /* \"#utility.yul\":4975:5035   */\n      tag_451\n        /* \"#utility.yul\":5028:5034   */\n      dup4\n        /* \"#utility.yul\":4975:5035   */\n      tag_452\n      jump\t// in\n    tag_451:\n        /* \"#utility.yul\":4965:5035   */\n      swap3\n      pop\n        /* \"#utility.yul\":4821:5045   */\n      pop\n        /* \"#utility.yul\":4808:4809   */\n      0x01\n        /* \"#utility.yul\":4805:4806   */\n      dup2\n        /* \"#utility.yul\":4801:4810   */\n      add\n        /* \"#utility.yul\":4796:4810   */\n      swap1\n      pop\n        /* \"#utility.yul\":4761:5045   */\n      jump(tag_447)\n    tag_449:\n        /* \"#utility.yul\":4765:4779   */\n      pop\n        /* \"#utility.yul\":5061:5064   */\n      dup6\n        /* \"#utility.yul\":5054:5064   */\n      swap4\n      pop\n        /* \"#utility.yul\":4462:5070   */\n      pop\n      pop\n      pop\n        /* \"#utility.yul\":4338:5070   */\n      swap3\n      swap2\n      pop\n      pop\n      jump\t// out\n        /* \"#utility.yul\":5076:5185   */\n    tag_453:\n        /* \"#utility.yul\":5157:5178   */\n      tag_455\n        /* \"#utility.yul\":5172:5177   */\n      dup2\n        /* \"#utility.yul\":5157:5178   */\n      tag_456\n      jump\t// in\n    tag_455:\n        /* \"#utility.yul\":5152:5155   */\n      dup3\n        /* \"#utility.yul\":5145:5179   */\n      mstore\n        /* \"#utility.yul\":5076:5185   */\n      pop\n      pop\n      jump\t// out\n        /* \"#utility.yul\":5191:5535   */\n    tag_407:\n        /* \"#utility.yul\":5269:5272   */\n      0x00\n        /* \"#utility.yul\":5297:5336   */\n      tag_458\n        /* \"#utility.yul\":5330:5335   */\n      dup3\n        /* \"#utility.yul\":5297:5336   */\n      tag_459\n      jump\t// in\n    tag_458:\n        /* \"#utility.yul\":5352:5413   */\n      tag_460\n        /* \"#utility.yul\":5406:5412   */\n      dup2\n        /* \"#utility.yul\":5401:5404   */\n      dup6\n        /* \"#utility.yul\":5352:5413   */\n      tag_461\n      jump\t// in\n    tag_460:\n        /* \"#utility.yul\":5345:5413   */\n      swap4\n      pop\n        /* \"#utility.yul\":5422:5474   */\n      tag_462\n        /* \"#utility.yul\":5467:5473   */\n      dup2\n        /* \"#utility.yul\":5462:5465   */\n      dup6\n        /* \"#utility.yul\":5455:5459   */\n      0x20\n        /* \"#utility.yul\":5448:5453   */\n      dup7\n        /* \"#utility.yul\":5444:5460   */\n      add\n        /* \"#utility.yul\":5422:5474   */\n      tag_463\n      jump\t// in\n    tag_462:\n        /* \"#utility.yul\":5499:5528   */\n      tag_464\n        /* \"#utility.yul\":5521:5527   */\n      dup2\n        /* \"#utility.yul\":5499:5528   */\n      tag_465\n      jump\t// in\n    tag_464:\n        /* \"#utility.yul\":5494:5497   */\n      dup5\n        /* \"#utility.yul\":5490:5529   */\n      add\n        /* \"#utility.yul\":5483:5529   */\n      swap2\n      pop\n        /* \"#utility.yul\":5273:5535   */\n      pop\n        /* \"#utility.yul\":5191:5535   */\n      swap3\n      swap2\n      pop\n      pop\n      jump\t// out\n        /* \"#utility.yul\":5541:5905   */\n    tag_466:\n        /* \"#utility.yul\":5629:5632   */\n      0x00\n        /* \"#utility.yul\":5657:5696   */\n      tag_468\n        /* \"#utility.yul\":5690:5695   */\n      dup3\n        /* \"#utility.yul\":5657:5696   */\n      tag_459\n      jump\t// in\n    tag_468:\n        /* \"#utility.yul\":5712:5783   */\n      tag_469\n        /* \"#utility.yul\":5776:5782   */\n      dup2\n        /* \"#utility.yul\":5771:5774   */\n      dup6\n        /* \"#utility.yul\":5712:5783   */\n      tag_470\n      jump\t// in\n    tag_469:\n        /* \"#utility.yul\":5705:5783   */\n      swap4\n      pop\n        /* \"#utility.yul\":5792:5844   */\n      tag_471\n        /* \"#utility.yul\":5837:5843   */\n      dup2\n        /* \"#utility.yul\":5832:5835   */\n      dup6\n        /* \"#utility.yul\":5825:5829   */\n      0x20\n        /* \"#utility.yul\":5818:5823   */\n      dup7\n        /* \"#utility.yul\":5814:5830   */\n      add\n        /* \"#utility.yul\":5792:5844   */\n      tag_463\n      jump\t// in\n    tag_471:\n        /* \"#utility.yul\":5869:5898   */\n      tag_472\n        /* \"#utility.yul\":5891:5897   */\n      dup2\n        /* \"#utility.yul\":5869:5898   */\n      tag_465\n      jump\t// in\n    tag_472:\n        /* \"#utility.yul\":5864:5867   */\n      dup5\n        /* \"#utility.yul\":5860:5899   */\n      add\n        /* \"#utility.yul\":5853:5899   */\n      swap2\n      pop\n        /* \"#utility.yul\":5633:5905   */\n      pop\n        /* \"#utility.yul\":5541:5905   */\n      swap3\n      swap2\n      pop\n      pop\n      jump\t// out\n        /* \"#utility.yul\":5911:6288   */\n    tag_473:\n        /* \"#utility.yul\":6017:6020   */\n      0x00\n        /* \"#utility.yul\":6045:6084   */\n      tag_475\n        /* \"#utility.yul\":6078:6083   */\n      dup3\n        /* \"#utility.yul\":6045:6084   */\n      tag_459\n      jump\t// in\n    tag_475:\n        /* \"#utility.yul\":6100:6189   */\n      tag_476\n        /* \"#utility.yul\":6182:6188   */\n      dup2\n        /* \"#utility.yul\":6177:6180   */\n      dup6\n        /* \"#utility.yul\":6100:6189   */\n      tag_477\n      jump\t// in\n    tag_476:\n        /* \"#utility.yul\":6093:6189   */\n      swap4\n      pop\n        /* \"#utility.yul\":6198:6250   */\n      tag_478\n        /* \"#utility.yul\":6243:6249   */\n      dup2\n        /* \"#utility.yul\":6238:6241   */\n      dup6\n        /* \"#utility.yul\":6231:6235   */\n      0x20\n        /* \"#utility.yul\":6224:6229   */\n      dup7\n        /* \"#utility.yul\":6220:6236   */\n      add\n        /* \"#utility.yul\":6198:6250   */\n      tag_463\n      jump\t// in\n    tag_478:\n        /* \"#utility.yul\":6275:6281   */\n      dup1\n        /* \"#utility.yul\":6270:6273   */\n      dup5\n        /* \"#utility.yul\":6266:6282   */\n      add\n        /* \"#utility.yul\":6259:6282   */\n      swap2\n      pop\n        /* \"#utility.yul\":6021:6288   */\n      pop\n        /* \"#utility.yul\":5911:6288   */\n      swap3\n      swap2\n      pop\n      pop\n      jump\t// out\n        /* \"#utility.yul\":6294:6660   */\n    tag_479:\n        /* \"#utility.yul\":6436:6439   */\n      0x00\n        /* \"#utility.yul\":6457:6524   */\n      tag_481\n        /* \"#utility.yul\":6521:6523   */\n      0x34\n        /* \"#utility.yul\":6516:6519   */\n      dup4\n        /* \"#utility.yul\":6457:6524   */\n      tag_470\n      jump\t// in\n    tag_481:\n        /* \"#utility.yul\":6450:6524   */\n      swap2\n      pop\n        /* \"#utility.yul\":6533:6626   */\n      tag_482\n        /* \"#utility.yul\":6622:6625   */\n      dup3\n        /* \"#utility.yul\":6533:6626   */\n      tag_483\n      jump\t// in\n    tag_482:\n        /* \"#utility.yul\":6651:6653   */\n      0x40\n        /* \"#utility.yul\":6646:6649   */\n      dup3\n        /* \"#utility.yul\":6642:6654   */\n      add\n        /* \"#utility.yul\":6635:6654   */\n      swap1\n      pop\n        /* \"#utility.yul\":6294:6660   */\n      swap2\n      swap1\n      pop\n      jump\t// out\n        /* \"#utility.yul\":6666:7032   */\n    tag_484:\n        /* \"#utility.yul\":6808:6811   */\n      0x00\n        /* \"#utility.yul\":6829:6896   */\n      tag_486\n        /* \"#utility.yul\":6893:6895   */\n      0x28\n        /* \"#utility.yul\":6888:6891   */\n      dup4\n        /* \"#utility.yul\":6829:6896   */\n      tag_470\n      jump\t// in\n    tag_486:\n        /* \"#utility.yul\":6822:6896   */\n      swap2\n      pop\n        /* \"#utility.yul\":6905:6998   */\n      tag_487\n        /* \"#utility.yul\":6994:6997   */\n      dup3\n        /* \"#utility.yul\":6905:6998   */\n      tag_488\n      jump\t// in\n    tag_487:\n        /* \"#utility.yul\":7023:7025   */\n      0x40\n        /* \"#utility.yul\":7018:7021   */\n      dup3\n        /* \"#utility.yul\":7014:7026   */\n      add\n        /* \"#utility.yul\":7007:7026   */\n      swap1\n      pop\n        /* \"#utility.yul\":6666:7032   */\n      swap2\n      swap1\n      pop\n      jump\t// out\n        /* \"#utility.yul\":7038:7438   */\n    tag_489:\n        /* \"#utility.yul\":7198:7201   */\n      0x00\n        /* \"#utility.yul\":7219:7303   */\n      tag_491\n        /* \"#utility.yul\":7301:7302   */\n      0x08\n        /* \"#utility.yul\":7296:7299   */\n      dup4\n        /* \"#utility.yul\":7219:7303   */\n      tag_477\n      jump\t// in\n    tag_491:\n        /* \"#utility.yul\":7212:7303   */\n      swap2\n      pop\n        /* \"#utility.yul\":7312:7405   */\n      tag_492\n        /* \"#utility.yul\":7401:7404   */\n      dup3\n        /* \"#utility.yul\":7312:7405   */\n      tag_493\n      jump\t// in\n    tag_492:\n        /* \"#utility.yul\":7430:7431   */\n      0x08\n        /* \"#utility.yul\":7425:7428   */\n      dup3\n        /* \"#utility.yul\":7421:7432   */\n      add\n        /* \"#utility.yul\":7414:7432   */\n      swap1\n      pop\n        /* \"#utility.yul\":7038:7438   */\n      swap2\n      swap1\n      pop\n      jump\t// out\n        /* \"#utility.yul\":7444:7844   */\n    tag_494:\n        /* \"#utility.yul\":7604:7607   */\n      0x00\n        /* \"#utility.yul\":7625:7709   */\n      tag_496\n        /* \"#utility.yul\":7707:7708   */\n      0x05\n        /* \"#utility.yul\":7702:7705   */\n      dup4\n        /* \"#utility.yul\":7625:7709   */\n      tag_477\n      jump\t// in\n    tag_496:\n        /* \"#utility.yul\":7618:7709   */\n      swap2\n      pop\n        /* \"#utility.yul\":7718:7811   */\n      tag_497\n        /* \"#utility.yul\":7807:7810   */\n      dup3\n        /* \"#utility.yul\":7718:7811   */\n      tag_498\n      jump\t// in\n    tag_497:\n        /* \"#utility.yul\":7836:7837   */\n      0x05\n        /* \"#utility.yul\":7831:7834   */\n      dup3\n        /* \"#utility.yul\":7827:7838   */\n      add\n        /* \"#utility.yul\":7820:7838   */\n      swap1\n      pop\n        /* \"#utility.yul\":7444:7844   */\n      swap2\n      swap1\n      pop\n      jump\t// out\n        /* \"#utility.yul\":7850:8216   */\n    tag_499:\n        /* \"#utility.yul\":7992:7995   */\n      0x00\n        /* \"#utility.yul\":8013:8080   */\n      tag_501\n        /* \"#utility.yul\":8077:8079   */\n      0x12\n        /* \"#utility.yul\":8072:8075   */\n      dup4\n        /* \"#utility.yul\":8013:8080   */\n      tag_470\n      jump\t// in\n    tag_501:\n        /* \"#utility.yul\":8006:8080   */\n      swap2\n      pop\n        /* \"#utility.yul\":8089:8182   */\n      tag_502\n        /* \"#utility.yul\":8178:8181   */\n      dup3\n        /* \"#utility.yul\":8089:8182   */\n      tag_503\n      jump\t// in\n    tag_502:\n        /* \"#utility.yul\":8207:8209   */\n      0x20\n        /* \"#utility.yul\":8202:8205   */\n      dup3\n        /* \"#utility.yul\":8198:8210   */\n      add\n        /* \"#utility.yul\":8191:8210   */\n      swap1\n      pop\n        /* \"#utility.yul\":7850:8216   */\n      swap2\n      swap1\n      pop\n      jump\t// out\n        /* \"#utility.yul\":8222:8588   */\n    tag_504:\n        /* \"#utility.yul\":8364:8367   */\n      0x00\n        /* \"#utility.yul\":8385:8452   */\n      tag_506\n        /* \"#utility.yul\":8449:8451   */\n      0x1b\n        /* \"#utility.yul\":8444:8447   */\n      dup4\n        /* \"#utility.yul\":8385:8452   */\n      tag_470\n      jump\t// in\n    tag_506:\n        /* \"#utility.yul\":8378:8452   */\n      swap2\n      pop\n        /* \"#utility.yul\":8461:8554   */\n      tag_507\n        /* \"#utility.yul\":8550:8553   */\n      dup3\n        /* \"#utility.yul\":8461:8554   */\n      tag_508\n      jump\t// in\n    tag_507:\n        /* \"#utility.yul\":8579:8581   */\n      0x20\n        /* \"#utility.yul\":8574:8577   */\n      dup3\n        /* \"#utility.yul\":8570:8582   */\n      add\n        /* \"#utility.yul\":8563:8582   */\n      swap1\n      pop\n        /* \"#utility.yul\":8222:8588   */\n      swap2\n      swap1\n      pop\n      jump\t// out\n        /* \"#utility.yul\":8594:8960   */\n    tag_509:\n        /* \"#utility.yul\":8736:8739   */\n      0x00\n        /* \"#utility.yul\":8757:8824   */\n      tag_511\n        /* \"#utility.yul\":8821:8823   */\n      0x1b\n        /* \"#utility.yul\":8816:8819   */\n      dup4\n        /* \"#utility.yul\":8757:8824   */\n      tag_470\n      jump\t// in\n    tag_511:\n        /* \"#utility.yul\":8750:8824   */\n      swap2\n      pop\n        /* \"#utility.yul\":8833:8926   */\n      tag_512\n        /* \"#utility.yul\":8922:8925   */\n      dup3\n        /* \"#utility.yul\":8833:8926   */\n      tag_513\n      jump\t// in\n    tag_512:\n        /* \"#utility.yul\":8951:8953   */\n      0x20\n        /* \"#utility.yul\":8946:8949   */\n      dup3\n        /* \"#utility.yul\":8942:8954   */\n      add\n        /* \"#utility.yul\":8935:8954   */\n      swap1\n      pop\n        /* \"#utility.yul\":8594:8960   */\n      swap2\n      swap1\n      pop\n      jump\t// out\n        /* \"#utility.yul\":8966:9332   */\n    tag_514:\n        /* \"#utility.yul\":9108:9111   */\n      0x00\n        /* \"#utility.yul\":9129:9196   */\n      tag_516\n        /* \"#utility.yul\":9193:9195   */\n      0x15\n        /* \"#utility.yul\":9188:9191   */\n      dup4\n        /* \"#utility.yul\":9129:9196   */\n      tag_470\n      jump\t// in\n    tag_516:\n        /* \"#utility.yul\":9122:9196   */\n      swap2\n      pop\n        /* \"#utility.yul\":9205:9298   */\n      tag_517\n        /* \"#utility.yul\":9294:9297   */\n      dup3\n        /* \"#utility.yul\":9205:9298   */\n      tag_518\n      jump\t// in\n    tag_517:\n        /* \"#utility.yul\":9323:9325   */\n      0x20\n        /* \"#utility.yul\":9318:9321   */\n      dup3\n        /* \"#utility.yul\":9314:9326   */\n      add\n        /* \"#utility.yul\":9307:9326   */\n      swap1\n      pop\n        /* \"#utility.yul\":8966:9332   */\n      swap2\n      swap1\n      pop\n      jump\t// out\n        /* \"#utility.yul\":9338:9704   */\n    tag_519:\n        /* \"#utility.yul\":9480:9483   */\n      0x00\n        /* \"#utility.yul\":9501:9568   */\n      tag_521\n        /* \"#utility.yul\":9565:9567   */\n      0x1c\n        /* \"#utility.yul\":9560:9563   */\n      dup4\n        /* \"#utility.yul\":9501:9568   */\n      tag_470\n      jump\t// in\n    tag_521:\n        /* \"#utility.yul\":9494:9568   */\n      swap2\n      pop\n        /* \"#utility.yul\":9577:9670   */\n      tag_522\n        /* \"#utility.yul\":9666:9669   */\n      dup3\n        /* \"#utility.yul\":9577:9670   */\n      tag_523\n      jump\t// in\n    tag_522:\n        /* \"#utility.yul\":9695:9697   */\n      0x20\n        /* \"#utility.yul\":9690:9693   */\n      dup3\n        /* \"#utility.yul\":9686:9698   */\n      add\n        /* \"#utility.yul\":9679:9698   */\n      swap1\n      pop\n        /* \"#utility.yul\":9338:9704   */\n      swap2\n      swap1\n      pop\n      jump\t// out\n        /* \"#utility.yul\":9710:10076   */\n    tag_524:\n        /* \"#utility.yul\":9852:9855   */\n      0x00\n        /* \"#utility.yul\":9873:9940   */\n      tag_526\n        /* \"#utility.yul\":9937:9939   */\n      0x1b\n        /* \"#utility.yul\":9932:9935   */\n      dup4\n        /* \"#utility.yul\":9873:9940   */\n      tag_470\n      jump\t// in\n    tag_526:\n        /* \"#utility.yul\":9866:9940   */\n      swap2\n      pop\n        /* \"#utility.yul\":9949:10042   */\n      tag_527\n        /* \"#utility.yul\":10038:10041   */\n      dup3\n        /* \"#utility.yul\":9949:10042   */\n      tag_528\n      jump\t// in\n    tag_527:\n        /* \"#utility.yul\":10067:10069   */\n      0x20\n        /* \"#utility.yul\":10062:10065   */\n      dup3\n        /* \"#utility.yul\":10058:10070   */\n      add\n        /* \"#utility.yul\":10051:10070   */\n      swap1\n      pop\n        /* \"#utility.yul\":9710:10076   */\n      swap2\n      swap1\n      pop\n      jump\t// out\n        /* \"#utility.yul\":10082:10448   */\n    tag_529:\n        /* \"#utility.yul\":10224:10227   */\n      0x00\n        /* \"#utility.yul\":10245:10312   */\n      tag_531\n        /* \"#utility.yul\":10309:10311   */\n      0x19\n        /* \"#utility.yul\":10304:10307   */\n      dup4\n        /* \"#utility.yul\":10245:10312   */\n      tag_470\n      jump\t// in\n    tag_531:\n        /* \"#utility.yul\":10238:10312   */\n      swap2\n      pop\n        /* \"#utility.yul\":10321:10414   */\n      tag_532\n        /* \"#utility.yul\":10410:10413   */\n      dup3\n        /* \"#utility.yul\":10321:10414   */\n      tag_533\n      jump\t// in\n    tag_532:\n        /* \"#utility.yul\":10439:10441   */\n      0x20\n        /* \"#utility.yul\":10434:10437   */\n      dup3\n        /* \"#utility.yul\":10430:10442   */\n      add\n        /* \"#utility.yul\":10423:10442   */\n      swap1\n      pop\n        /* \"#utility.yul\":10082:10448   */\n      swap2\n      swap1\n      pop\n      jump\t// out\n        /* \"#utility.yul\":10454:10854   */\n    tag_534:\n        /* \"#utility.yul\":10614:10617   */\n      0x00\n        /* \"#utility.yul\":10635:10719   */\n      tag_536\n        /* \"#utility.yul\":10717:10718   */\n      0x07\n        /* \"#utility.yul\":10712:10715   */\n      dup4\n        /* \"#utility.yul\":10635:10719   */\n      tag_477\n      jump\t// in\n    tag_536:\n        /* \"#utility.yul\":10628:10719   */\n      swap2\n      pop\n        /* \"#utility.yul\":10728:10821   */\n      tag_537\n        /* \"#utility.yul\":10817:10820   */\n      dup3\n        /* \"#utility.yul\":10728:10821   */\n      tag_538\n      jump\t// in\n    tag_537:\n        /* \"#utility.yul\":10846:10847   */\n      0x07\n        /* \"#utility.yul\":10841:10844   */\n      dup3\n        /* \"#utility.yul\":10837:10848   */\n      add\n        /* \"#utility.yul\":10830:10848   */\n      swap1\n      pop\n        /* \"#utility.yul\":10454:10854   */\n      swap2\n      swap1\n      pop\n      jump\t// out\n        /* \"#utility.yul\":10860:11226   */\n    tag_539:\n        /* \"#utility.yul\":11002:11005   */\n      0x00\n        /* \"#utility.yul\":11023:11090   */\n      tag_541\n        /* \"#utility.yul\":11087:11089   */\n      0x1d\n        /* \"#utility.yul\":11082:11085   */\n      dup4\n        /* \"#utility.yul\":11023:11090   */\n      tag_470\n      jump\t// in\n    tag_541:\n        /* \"#utility.yul\":11016:11090   */\n      swap2\n      pop\n        /* \"#utility.yul\":11099:11192   */\n      tag_542\n        /* \"#utility.yul\":11188:11191   */\n      dup3\n        /* \"#utility.yul\":11099:11192   */\n      tag_543\n      jump\t// in\n    tag_542:\n        /* \"#utility.yul\":11217:11219   */\n      0x20\n        /* \"#utility.yul\":11212:11215   */\n      dup3\n        /* \"#utility.yul\":11208:11220   */\n      add\n        /* \"#utility.yul\":11201:11220   */\n      swap1\n      pop\n        /* \"#utility.yul\":10860:11226   */\n      swap2\n      swap1\n      pop\n      jump\t// out\n        /* \"#utility.yul\":11232:11598   */\n    tag_544:\n        /* \"#utility.yul\":11374:11377   */\n      0x00\n        /* \"#utility.yul\":11395:11462   */\n      tag_546\n        /* \"#utility.yul\":11459:11461   */\n      0x21\n        /* \"#utility.yul\":11454:11457   */\n      dup4\n        /* \"#utility.yul\":11395:11462   */\n      tag_470\n      jump\t// in\n    tag_546:\n        /* \"#utility.yul\":11388:11462   */\n      swap2\n      pop\n        /* \"#utility.yul\":11471:11564   */\n      tag_547\n        /* \"#utility.yul\":11560:11563   */\n      dup3\n        /* \"#utility.yul\":11471:11564   */\n      tag_548\n      jump\t// in\n    tag_547:\n        /* \"#utility.yul\":11589:11591   */\n      0x40\n        /* \"#utility.yul\":11584:11587   */\n      dup3\n        /* \"#utility.yul\":11580:11592   */\n      add\n        /* \"#utility.yul\":11573:11592   */\n      swap1\n      pop\n        /* \"#utility.yul\":11232:11598   */\n      swap2\n      swap1\n      pop\n      jump\t// out\n        /* \"#utility.yul\":11604:11712   */\n    tag_411:\n        /* \"#utility.yul\":11681:11705   */\n      tag_550\n        /* \"#utility.yul\":11699:11704   */\n      dup2\n        /* \"#utility.yul\":11681:11705   */\n      tag_551\n      jump\t// in\n    tag_550:\n        /* \"#utility.yul\":11676:11679   */\n      dup3\n        /* \"#utility.yul\":11669:11706   */\n      mstore\n        /* \"#utility.yul\":11604:11712   */\n      pop\n      pop\n      jump\t// out\n        /* \"#utility.yul\":11718:11836   */\n    tag_552:\n        /* \"#utility.yul\":11805:11829   */\n      tag_554\n        /* \"#utility.yul\":11823:11828   */\n      dup2\n        /* \"#utility.yul\":11805:11829   */\n      tag_551\n      jump\t// in\n    tag_554:\n        /* \"#utility.yul\":11800:11803   */\n      dup3\n        /* \"#utility.yul\":11793:11830   */\n      mstore\n        /* \"#utility.yul\":11718:11836   */\n      pop\n      pop\n      jump\t// out\n        /* \"#utility.yul\":11842:11999   */\n    tag_555:\n        /* \"#utility.yul\":11947:11992   */\n      tag_557\n        /* \"#utility.yul\":11967:11991   */\n      tag_558\n        /* \"#utility.yul\":11985:11990   */\n      dup3\n        /* \"#utility.yul\":11967:11991   */\n      tag_551\n      jump\t// in\n    tag_558:\n        /* \"#utility.yul\":11947:11992   */\n      tag_559\n      jump\t// in\n    tag_557:\n        /* \"#utility.yul\":11942:11945   */\n      dup3\n        /* \"#utility.yul\":11935:11993   */\n      mstore\n        /* \"#utility.yul\":11842:11999   */\n      pop\n      pop\n      jump\t// out\n        /* \"#utility.yul\":12005:12546   */\n    tag_240:\n        /* \"#utility.yul\":12238:12241   */\n      0x00\n        /* \"#utility.yul\":12260:12408   */\n      tag_561\n        /* \"#utility.yul\":12404:12407   */\n      dup3\n        /* \"#utility.yul\":12260:12408   */\n      tag_489\n      jump\t// in\n    tag_561:\n        /* \"#utility.yul\":12253:12408   */\n      swap2\n      pop\n        /* \"#utility.yul\":12425:12520   */\n      tag_562\n        /* \"#utility.yul\":12516:12519   */\n      dup3\n        /* \"#utility.yul\":12507:12513   */\n      dup5\n        /* \"#utility.yul\":12425:12520   */\n      tag_473\n      jump\t// in\n    tag_562:\n        /* \"#utility.yul\":12418:12520   */\n      swap2\n      pop\n        /* \"#utility.yul\":12537:12540   */\n      dup2\n        /* \"#utility.yul\":12530:12540   */\n      swap1\n      pop\n        /* \"#utility.yul\":12005:12546   */\n      swap3\n      swap2\n      pop\n      pop\n      jump\t// out\n        /* \"#utility.yul\":12552:13093   */\n    tag_249:\n        /* \"#utility.yul\":12785:12788   */\n      0x00\n        /* \"#utility.yul\":12807:12955   */\n      tag_564\n        /* \"#utility.yul\":12951:12954   */\n      dup3\n        /* \"#utility.yul\":12807:12955   */\n      tag_494\n      jump\t// in\n    tag_564:\n        /* \"#utility.yul\":12800:12955   */\n      swap2\n      pop\n        /* \"#utility.yul\":12972:13067   */\n      tag_565\n        /* \"#utility.yul\":13063:13066   */\n      dup3\n        /* \"#utility.yul\":13054:13060   */\n      dup5\n        /* \"#utility.yul\":12972:13067   */\n      tag_473\n      jump\t// in\n    tag_565:\n        /* \"#utility.yul\":12965:13067   */\n      swap2\n      pop\n        /* \"#utility.yul\":13084:13087   */\n      dup2\n        /* \"#utility.yul\":13077:13087   */\n      swap1\n      pop\n        /* \"#utility.yul\":12552:13093   */\n      swap3\n      swap2\n      pop\n      pop\n      jump\t// out\n        /* \"#utility.yul\":13099:13640   */\n    tag_257:\n        /* \"#utility.yul\":13332:13335   */\n      0x00\n        /* \"#utility.yul\":13354:13502   */\n      tag_567\n        /* \"#utility.yul\":13498:13501   */\n      dup3\n        /* \"#utility.yul\":13354:13502   */\n      tag_534\n      jump\t// in\n    tag_567:\n        /* \"#utility.yul\":13347:13502   */\n      swap2\n      pop\n        /* \"#utility.yul\":13519:13614   */\n      tag_568\n        /* \"#utility.yul\":13610:13613   */\n      dup3\n        /* \"#utility.yul\":13601:13607   */\n      dup5\n        /* \"#utility.yul\":13519:13614   */\n      tag_473\n      jump\t// in\n    tag_568:\n        /* \"#utility.yul\":13512:13614   */\n      swap2\n      pop\n        /* \"#utility.yul\":13631:13634   */\n      dup2\n        /* \"#utility.yul\":13624:13634   */\n      swap1\n      pop\n        /* \"#utility.yul\":13099:13640   */\n      swap3\n      swap2\n      pop\n      pop\n      jump\t// out\n        /* \"#utility.yul\":13646:14043   */\n    tag_290:\n        /* \"#utility.yul\":13786:13789   */\n      0x00\n        /* \"#utility.yul\":13801:13876   */\n      tag_570\n        /* \"#utility.yul\":13872:13875   */\n      dup3\n        /* \"#utility.yul\":13863:13869   */\n      dup6\n        /* \"#utility.yul\":13801:13876   */\n      tag_555\n      jump\t// in\n    tag_570:\n        /* \"#utility.yul\":13901:13903   */\n      0x20\n        /* \"#utility.yul\":13896:13899   */\n      dup3\n        /* \"#utility.yul\":13892:13904   */\n      add\n        /* \"#utility.yul\":13885:13904   */\n      swap2\n      pop\n        /* \"#utility.yul\":13914:13989   */\n      tag_571\n        /* \"#utility.yul\":13985:13988   */\n      dup3\n        /* \"#utility.yul\":13976:13982   */\n      dup5\n        /* \"#utility.yul\":13914:13989   */\n      tag_420\n      jump\t// in\n    tag_571:\n        /* \"#utility.yul\":14014:14016   */\n      0x14\n        /* \"#utility.yul\":14009:14012   */\n      dup3\n        /* \"#utility.yul\":14005:14017   */\n      add\n        /* \"#utility.yul\":13998:14017   */\n      swap2\n      pop\n        /* \"#utility.yul\":14034:14037   */\n      dup2\n        /* \"#utility.yul\":14027:14037   */\n      swap1\n      pop\n        /* \"#utility.yul\":13646:14043   */\n      swap4\n      swap3\n      pop\n      pop\n      pop\n      jump\t// out\n        /* \"#utility.yul\":14049:14303   */\n    tag_65:\n        /* \"#utility.yul\":14158:14162   */\n      0x00\n        /* \"#utility.yul\":14196:14198   */\n      0x20\n        /* \"#utility.yul\":14185:14194   */\n      dup3\n        /* \"#utility.yul\":14181:14199   */\n      add\n        /* \"#utility.yul\":14173:14199   */\n      swap1\n      pop\n        /* \"#utility.yul\":14209:14296   */\n      tag_573\n        /* \"#utility.yul\":14293:14294   */\n      0x00\n        /* \"#utility.yul\":14282:14291   */\n      dup4\n        /* \"#utility.yul\":14278:14295   */\n      add\n        /* \"#utility.yul\":14269:14275   */\n      dup5\n        /* \"#utility.yul\":14209:14296   */\n      tag_412\n      jump\t// in\n    tag_573:\n        /* \"#utility.yul\":14049:14303   */\n      swap3\n      swap2\n      pop\n      pop\n      jump\t// out\n        /* \"#utility.yul\":14309:15064   */\n    tag_325:\n        /* \"#utility.yul\":14534:14538   */\n      0x00\n        /* \"#utility.yul\":14572:14575   */\n      0xa0\n        /* \"#utility.yul\":14561:14570   */\n      dup3\n        /* \"#utility.yul\":14557:14576   */\n      add\n        /* \"#utility.yul\":14549:14576   */\n      swap1\n      pop\n        /* \"#utility.yul\":14586:14657   */\n      tag_575\n        /* \"#utility.yul\":14654:14655   */\n      0x00\n        /* \"#utility.yul\":14643:14652   */\n      dup4\n        /* \"#utility.yul\":14639:14656   */\n      add\n        /* \"#utility.yul\":14630:14636   */\n      dup9\n        /* \"#utility.yul\":14586:14657   */\n      tag_416\n      jump\t// in\n    tag_575:\n        /* \"#utility.yul\":14667:14739   */\n      tag_576\n        /* \"#utility.yul\":14735:14737   */\n      0x20\n        /* \"#utility.yul\":14724:14733   */\n      dup4\n        /* \"#utility.yul\":14720:14738   */\n      add\n        /* \"#utility.yul\":14711:14717   */\n      dup8\n        /* \"#utility.yul\":14667:14739   */\n      tag_416\n      jump\t// in\n    tag_576:\n        /* \"#utility.yul\":14749:14821   */\n      tag_577\n        /* \"#utility.yul\":14817:14819   */\n      0x40\n        /* \"#utility.yul\":14806:14815   */\n      dup4\n        /* \"#utility.yul\":14802:14820   */\n      add\n        /* \"#utility.yul\":14793:14799   */\n      dup7\n        /* \"#utility.yul\":14749:14821   */\n      tag_552\n      jump\t// in\n    tag_577:\n        /* \"#utility.yul\":14831:14903   */\n      tag_578\n        /* \"#utility.yul\":14899:14901   */\n      0x60\n        /* \"#utility.yul\":14888:14897   */\n      dup4\n        /* \"#utility.yul\":14884:14902   */\n      add\n        /* \"#utility.yul\":14875:14881   */\n      dup6\n        /* \"#utility.yul\":14831:14903   */\n      tag_552\n      jump\t// in\n    tag_578:\n        /* \"#utility.yul\":14951:14960   */\n      dup2\n        /* \"#utility.yul\":14945:14949   */\n      dup2\n        /* \"#utility.yul\":14941:14961   */\n      sub\n        /* \"#utility.yul\":14935:14938   */\n      0x80\n        /* \"#utility.yul\":14924:14933   */\n      dup4\n        /* \"#utility.yul\":14920:14939   */\n      add\n        /* \"#utility.yul\":14913:14962   */\n      mstore\n        /* \"#utility.yul\":14979:15057   */\n      tag_579\n        /* \"#utility.yul\":15052:15056   */\n      dup2\n        /* \"#utility.yul\":15043:15049   */\n      dup5\n        /* \"#utility.yul\":14979:15057   */\n      tag_466\n      jump\t// in\n    tag_579:\n        /* \"#utility.yul\":14971:15057   */\n      swap1\n      pop\n        /* \"#utility.yul\":14309:15064   */\n      swap7\n      swap6\n      pop\n      pop\n      pop\n      pop\n      pop\n      pop\n      jump\t// out\n        /* \"#utility.yul\":15070:15443   */\n    tag_77:\n        /* \"#utility.yul\":15213:15217   */\n      0x00\n        /* \"#utility.yul\":15251:15253   */\n      0x20\n        /* \"#utility.yul\":15240:15249   */\n      dup3\n        /* \"#utility.yul\":15236:15254   */\n      add\n        /* \"#utility.yul\":15228:15254   */\n      swap1\n      pop\n        /* \"#utility.yul\":15300:15309   */\n      dup2\n        /* \"#utility.yul\":15294:15298   */\n      dup2\n        /* \"#utility.yul\":15290:15310   */\n      sub\n        /* \"#utility.yul\":15286:15287   */\n      0x00\n        /* \"#utility.yul\":15275:15284   */\n      dup4\n        /* \"#utility.yul\":15271:15288   */\n      add\n        /* \"#utility.yul\":15264:15311   */\n      mstore\n        /* \"#utility.yul\":15328:15436   */\n      tag_581\n        /* \"#utility.yul\":15431:15435   */\n      dup2\n        /* \"#utility.yul\":15422:15428   */\n      dup5\n        /* \"#utility.yul\":15328:15436   */\n      tag_439\n      jump\t// in\n    tag_581:\n        /* \"#utility.yul\":15320:15436   */\n      swap1\n      pop\n        /* \"#utility.yul\":15070:15443   */\n      swap3\n      swap2\n      pop\n      pop\n      jump\t// out\n        /* \"#utility.yul\":15449:16123   */\n    tag_40:\n        /* \"#utility.yul\":15690:15694   */\n      0x00\n        /* \"#utility.yul\":15728:15730   */\n      0x40\n        /* \"#utility.yul\":15717:15726   */\n      dup3\n        /* \"#utility.yul\":15713:15731   */\n      add\n        /* \"#utility.yul\":15705:15731   */\n      swap1\n      pop\n        /* \"#utility.yul\":15777:15786   */\n      dup2\n        /* \"#utility.yul\":15771:15775   */\n      dup2\n        /* \"#utility.yul\":15767:15787   */\n      sub\n        /* \"#utility.yul\":15763:15764   */\n      0x00\n        /* \"#utility.yul\":15752:15761   */\n      dup4\n        /* \"#utility.yul\":15748:15765   */\n      add\n        /* \"#utility.yul\":15741:15788   */\n      mstore\n        /* \"#utility.yul\":15805:15913   */\n      tag_583\n        /* \"#utility.yul\":15908:15912   */\n      dup2\n        /* \"#utility.yul\":15899:15905   */\n      dup6\n        /* \"#utility.yul\":15805:15913   */\n      tag_439\n      jump\t// in\n    tag_583:\n        /* \"#utility.yul\":15797:15913   */\n      swap1\n      pop\n        /* \"#utility.yul\":15960:15969   */\n      dup2\n        /* \"#utility.yul\":15954:15958   */\n      dup2\n        /* \"#utility.yul\":15950:15970   */\n      sub\n        /* \"#utility.yul\":15945:15947   */\n      0x20\n        /* \"#utility.yul\":15934:15943   */\n      dup4\n        /* \"#utility.yul\":15930:15948   */\n      add\n        /* \"#utility.yul\":15923:15971   */\n      mstore\n        /* \"#utility.yul\":15988:16116   */\n      tag_584\n        /* \"#utility.yul\":16111:16115   */\n      dup2\n        /* \"#utility.yul\":16102:16108   */\n      dup5\n        /* \"#utility.yul\":15988:16116   */\n      tag_425\n      jump\t// in\n    tag_584:\n        /* \"#utility.yul\":15980:16116   */\n      swap1\n      pop\n        /* \"#utility.yul\":15449:16123   */\n      swap4\n      swap3\n      pop\n      pop\n      pop\n      jump\t// out\n        /* \"#utility.yul\":16129:16339   */\n    tag_30:\n        /* \"#utility.yul\":16216:16220   */\n      0x00\n        /* \"#utility.yul\":16254:16256   */\n      0x20\n        /* \"#utility.yul\":16243:16252   */\n      dup3\n        /* \"#utility.yul\":16239:16257   */\n      add\n        /* \"#utility.yul\":16231:16257   */\n      swap1\n      pop\n        /* \"#utility.yul\":16267:16332   */\n      tag_586\n        /* \"#utility.yul\":16329:16330   */\n      0x00\n        /* \"#utility.yul\":16318:16327   */\n      dup4\n        /* \"#utility.yul\":16314:16331   */\n      add\n        /* \"#utility.yul\":16305:16311   */\n      dup5\n        /* \"#utility.yul\":16267:16332   */\n      tag_453\n      jump\t// in\n    tag_586:\n        /* \"#utility.yul\":16129:16339   */\n      swap3\n      swap2\n      pop\n      pop\n      jump\t// out\n        /* \"#utility.yul\":16345:16658   */\n    tag_340:\n        /* \"#utility.yul\":16458:16462   */\n      0x00\n        /* \"#utility.yul\":16496:16498   */\n      0x20\n        /* \"#utility.yul\":16485:16494   */\n      dup3\n        /* \"#utility.yul\":16481:16499   */\n      add\n        /* \"#utility.yul\":16473:16499   */\n      swap1\n      pop\n        /* \"#utility.yul\":16545:16554   */\n      dup2\n        /* \"#utility.yul\":16539:16543   */\n      dup2\n        /* \"#utility.yul\":16535:16555   */\n      sub\n        /* \"#utility.yul\":16531:16532   */\n      0x00\n        /* \"#utility.yul\":16520:16529   */\n      dup4\n        /* \"#utility.yul\":16516:16533   */\n      add\n        /* \"#utility.yul\":16509:16556   */\n      mstore\n        /* \"#utility.yul\":16573:16651   */\n      tag_588\n        /* \"#utility.yul\":16646:16650   */\n      dup2\n        /* \"#utility.yul\":16637:16643   */\n      dup5\n        /* \"#utility.yul\":16573:16651   */\n      tag_466\n      jump\t// in\n    tag_588:\n        /* \"#utility.yul\":16565:16651   */\n      swap1\n      pop\n        /* \"#utility.yul\":16345:16658   */\n      swap3\n      swap2\n      pop\n      pop\n      jump\t// out\n        /* \"#utility.yul\":16664:17083   */\n    tag_342:\n        /* \"#utility.yul\":16830:16834   */\n      0x00\n        /* \"#utility.yul\":16868:16870   */\n      0x20\n        /* \"#utility.yul\":16857:16866   */\n      dup3\n        /* \"#utility.yul\":16853:16871   */\n      add\n        /* \"#utility.yul\":16845:16871   */\n      swap1\n      pop\n        /* \"#utility.yul\":16917:16926   */\n      dup2\n        /* \"#utility.yul\":16911:16915   */\n      dup2\n        /* \"#utility.yul\":16907:16927   */\n      sub\n        /* \"#utility.yul\":16903:16904   */\n      0x00\n        /* \"#utility.yul\":16892:16901   */\n      dup4\n        /* \"#utility.yul\":16888:16905   */\n      add\n        /* \"#utility.yul\":16881:16928   */\n      mstore\n        /* \"#utility.yul\":16945:17076   */\n      tag_590\n        /* \"#utility.yul\":17071:17075   */\n      dup2\n        /* \"#utility.yul\":16945:17076   */\n      tag_479\n      jump\t// in\n    tag_590:\n        /* \"#utility.yul\":16937:17076   */\n      swap1\n      pop\n        /* \"#utility.yul\":16664:17083   */\n      swap2\n      swap1\n      pop\n      jump\t// out\n        /* \"#utility.yul\":17089:17508   */\n    tag_346:\n        /* \"#utility.yul\":17255:17259   */\n      0x00\n        /* \"#utility.yul\":17293:17295   */\n      0x20\n        /* \"#utility.yul\":17282:17291   */\n      dup3\n        /* \"#utility.yul\":17278:17296   */\n      add\n        /* \"#utility.yul\":17270:17296   */\n      swap1\n      pop\n        /* \"#utility.yul\":17342:17351   */\n      dup2\n        /* \"#utility.yul\":17336:17340   */\n      dup2\n        /* \"#utility.yul\":17332:17352   */\n      sub\n        /* \"#utility.yul\":17328:17329   */\n      0x00\n        /* \"#utility.yul\":17317:17326   */\n      dup4\n        /* \"#utility.yul\":17313:17330   */\n      add\n        /* \"#utility.yul\":17306:17353   */\n      mstore\n        /* \"#utility.yul\":17370:17501   */\n      tag_592\n        /* \"#utility.yul\":17496:17500   */\n      dup2\n        /* \"#utility.yul\":17370:17501   */\n      tag_484\n      jump\t// in\n    tag_592:\n        /* \"#utility.yul\":17362:17501   */\n      swap1\n      pop\n        /* \"#utility.yul\":17089:17508   */\n      swap2\n      swap1\n      pop\n      jump\t// out\n        /* \"#utility.yul\":17514:17933   */\n    tag_142:\n        /* \"#utility.yul\":17680:17684   */\n      0x00\n        /* \"#utility.yul\":17718:17720   */\n      0x20\n        /* \"#utility.yul\":17707:17716   */\n      dup3\n        /* \"#utility.yul\":17703:17721   */\n      add\n        /* \"#utility.yul\":17695:17721   */\n      swap1\n      pop\n        /* \"#utility.yul\":17767:17776   */\n      dup2\n        /* \"#utility.yul\":17761:17765   */\n      dup2\n        /* \"#utility.yul\":17757:17777   */\n      sub\n        /* \"#utility.yul\":17753:17754   */\n      0x00\n        /* \"#utility.yul\":17742:17751   */\n      dup4\n        /* \"#utility.yul\":17738:17755   */\n      add\n        /* \"#utility.yul\":17731:17778   */\n      mstore\n        /* \"#utility.yul\":17795:17926   */\n      tag_594\n        /* \"#utility.yul\":17921:17925   */\n      dup2\n        /* \"#utility.yul\":17795:17926   */\n      tag_499\n      jump\t// in\n    tag_594:\n        /* \"#utility.yul\":17787:17926   */\n      swap1\n      pop\n        /* \"#utility.yul\":17514:17933   */\n      swap2\n      swap1\n      pop\n      jump\t// out\n        /* \"#utility.yul\":17939:18358   */\n    tag_102:\n        /* \"#utility.yul\":18105:18109   */\n      0x00\n        /* \"#utility.yul\":18143:18145   */\n      0x20\n        /* \"#utility.yul\":18132:18141   */\n      dup3\n        /* \"#utility.yul\":18128:18146   */\n      add\n        /* \"#utility.yul\":18120:18146   */\n      swap1\n      pop\n        /* \"#utility.yul\":18192:18201   */\n      dup2\n        /* \"#utility.yul\":18186:18190   */\n      dup2\n        /* \"#utility.yul\":18182:18202   */\n      sub\n        /* \"#utility.yul\":18178:18179   */\n      0x00\n        /* \"#utility.yul\":18167:18176   */\n      dup4\n        /* \"#utility.yul\":18163:18180   */\n      add\n        /* \"#utility.yul\":18156:18203   */\n      mstore\n        /* \"#utility.yul\":18220:18351   */\n      tag_596\n        /* \"#utility.yul\":18346:18350   */\n      dup2\n        /* \"#utility.yul\":18220:18351   */\n      tag_504\n      jump\t// in\n    tag_596:\n        /* \"#utility.yul\":18212:18351   */\n      swap1\n      pop\n        /* \"#utility.yul\":17939:18358   */\n      swap2\n      swap1\n      pop\n      jump\t// out\n        /* \"#utility.yul\":18364:18783   */\n    tag_181:\n        /* \"#utility.yul\":18530:18534   */\n      0x00\n        /* \"#utility.yul\":18568:18570   */\n      0x20\n        /* \"#utility.yul\":18557:18566   */\n      dup3\n        /* \"#utility.yul\":18553:18571   */\n      add\n        /* \"#utility.yul\":18545:18571   */\n      swap1\n      pop\n        /* \"#utility.yul\":18617:18626   */\n      dup2\n        /* \"#utility.yul\":18611:18615   */\n      dup2\n        /* \"#utility.yul\":18607:18627   */\n      sub\n        /* \"#utility.yul\":18603:18604   */\n      0x00\n        /* \"#utility.yul\":18592:18601   */\n      dup4\n        /* \"#utility.yul\":18588:18605   */\n      add\n        /* \"#utility.yul\":18581:18628   */\n      mstore\n        /* \"#utility.yul\":18645:18776   */\n      tag_598\n        /* \"#utility.yul\":18771:18775   */\n      dup2\n        /* \"#utility.yul\":18645:18776   */\n      tag_509\n      jump\t// in\n    tag_598:\n        /* \"#utility.yul\":18637:18776   */\n      swap1\n      pop\n        /* \"#utility.yul\":18364:18783   */\n      swap2\n      swap1\n      pop\n      jump\t// out\n        /* \"#utility.yul\":18789:19208   */\n    tag_115:\n        /* \"#utility.yul\":18955:18959   */\n      0x00\n        /* \"#utility.yul\":18993:18995   */\n      0x20\n        /* \"#utility.yul\":18982:18991   */\n      dup3\n        /* \"#utility.yul\":18978:18996   */\n      add\n        /* \"#utility.yul\":18970:18996   */\n      swap1\n      pop\n        /* \"#utility.yul\":19042:19051   */\n      dup2\n        /* \"#utility.yul\":19036:19040   */\n      dup2\n        /* \"#utility.yul\":19032:19052   */\n      sub\n        /* \"#utility.yul\":19028:19029   */\n      0x00\n        /* \"#utility.yul\":19017:19026   */\n      dup4\n        /* \"#utility.yul\":19013:19030   */\n      add\n        /* \"#utility.yul\":19006:19053   */\n      mstore\n        /* \"#utility.yul\":19070:19201   */\n      tag_600\n        /* \"#utility.yul\":19196:19200   */\n      dup2\n        /* \"#utility.yul\":19070:19201   */\n      tag_514\n      jump\t// in\n    tag_600:\n        /* \"#utility.yul\":19062:19201   */\n      swap1\n      pop\n        /* \"#utility.yul\":18789:19208   */\n      swap2\n      swap1\n      pop\n      jump\t// out\n        /* \"#utility.yul\":19214:19633   */\n    tag_83:\n        /* \"#utility.yul\":19380:19384   */\n      0x00\n        /* \"#utility.yul\":19418:19420   */\n      0x20\n        /* \"#utility.yul\":19407:19416   */\n      dup3\n        /* \"#utility.yul\":19403:19421   */\n      add\n        /* \"#utility.yul\":19395:19421   */\n      swap1\n      pop\n        /* \"#utility.yul\":19467:19476   */\n      dup2\n        /* \"#utility.yul\":19461:19465   */\n      dup2\n        /* \"#utility.yul\":19457:19477   */\n      sub\n        /* \"#utility.yul\":19453:19454   */\n      0x00\n        /* \"#utility.yul\":19442:19451   */\n      dup4\n        /* \"#utility.yul\":19438:19455   */\n      add\n        /* \"#utility.yul\":19431:19478   */\n      mstore\n        /* \"#utility.yul\":19495:19626   */\n      tag_602\n        /* \"#utility.yul\":19621:19625   */\n      dup2\n        /* \"#utility.yul\":19495:19626   */\n      tag_519\n      jump\t// in\n    tag_602:\n        /* \"#utility.yul\":19487:19626   */\n      swap1\n      pop\n        /* \"#utility.yul\":19214:19633   */\n      swap2\n      swap1\n      pop\n      jump\t// out\n        /* \"#utility.yul\":19639:20058   */\n    tag_110:\n        /* \"#utility.yul\":19805:19809   */\n      0x00\n        /* \"#utility.yul\":19843:19845   */\n      0x20\n        /* \"#utility.yul\":19832:19841   */\n      dup3\n        /* \"#utility.yul\":19828:19846   */\n      add\n        /* \"#utility.yul\":19820:19846   */\n      swap1\n      pop\n        /* \"#utility.yul\":19892:19901   */\n      dup2\n        /* \"#utility.yul\":19886:19890   */\n      dup2\n        /* \"#utility.yul\":19882:19902   */\n      sub\n        /* \"#utility.yul\":19878:19879   */\n      0x00\n        /* \"#utility.yul\":19867:19876   */\n      dup4\n        /* \"#utility.yul\":19863:19880   */\n      add\n        /* \"#utility.yul\":19856:19903   */\n      mstore\n        /* \"#utility.yul\":19920:20051   */\n      tag_604\n        /* \"#utility.yul\":20046:20050   */\n      dup2\n        /* \"#utility.yul\":19920:20051   */\n      tag_524\n      jump\t// in\n    tag_604:\n        /* \"#utility.yul\":19912:20051   */\n      swap1\n      pop\n        /* \"#utility.yul\":19639:20058   */\n      swap2\n      swap1\n      pop\n      jump\t// out\n        /* \"#utility.yul\":20064:20483   */\n    tag_139:\n        /* \"#utility.yul\":20230:20234   */\n      0x00\n        /* \"#utility.yul\":20268:20270   */\n      0x20\n        /* \"#utility.yul\":20257:20266   */\n      dup3\n        /* \"#utility.yul\":20253:20271   */\n      add\n        /* \"#utility.yul\":20245:20271   */\n      swap1\n      pop\n        /* \"#utility.yul\":20317:20326   */\n      dup2\n        /* \"#utility.yul\":20311:20315   */\n      dup2\n        /* \"#utility.yul\":20307:20327   */\n      sub\n        /* \"#utility.yul\":20303:20304   */\n      0x00\n        /* \"#utility.yul\":20292:20301   */\n      dup4\n        /* \"#utility.yul\":20288:20305   */\n      add\n        /* \"#utility.yul\":20281:20328   */\n      mstore\n        /* \"#utility.yul\":20345:20476   */\n      tag_606\n        /* \"#utility.yul\":20471:20475   */\n      dup2\n        /* \"#utility.yul\":20345:20476   */\n      tag_529\n      jump\t// in\n    tag_606:\n        /* \"#utility.yul\":20337:20476   */\n      swap1\n      pop\n        /* \"#utility.yul\":20064:20483   */\n      swap2\n      swap1\n      pop\n      jump\t// out\n        /* \"#utility.yul\":20489:20908   */\n    tag_92:\n        /* \"#utility.yul\":20655:20659   */\n      0x00\n        /* \"#utility.yul\":20693:20695   */\n      0x20\n        /* \"#utility.yul\":20682:20691   */\n      dup3\n        /* \"#utility.yul\":20678:20696   */\n      add\n        /* \"#utility.yul\":20670:20696   */\n      swap1\n      pop\n        /* \"#utility.yul\":20742:20751   */\n      dup2\n        /* \"#utility.yul\":20736:20740   */\n      dup2\n        /* \"#utility.yul\":20732:20752   */\n      sub\n        /* \"#utility.yul\":20728:20729   */\n      0x00\n        /* \"#utility.yul\":20717:20726   */\n      dup4\n        /* \"#utility.yul\":20713:20730   */\n      add\n        /* \"#utility.yul\":20706:20753   */\n      mstore\n        /* \"#utility.yul\":20770:20901   */\n      tag_608\n        /* \"#utility.yul\":20896:20900   */\n      dup2\n        /* \"#utility.yul\":20770:20901   */\n      tag_539\n      jump\t// in\n    tag_608:\n        /* \"#utility.yul\":20762:20901   */\n      swap1\n      pop\n        /* \"#utility.yul\":20489:20908   */\n      swap2\n      swap1\n      pop\n      jump\t// out\n        /* \"#utility.yul\":20914:21333   */\n    tag_276:\n        /* \"#utility.yul\":21080:21084   */\n      0x00\n        /* \"#utility.yul\":21118:21120   */\n      0x20\n        /* \"#utility.yul\":21107:21116   */\n      dup3\n        /* \"#utility.yul\":21103:21121   */\n      add\n        /* \"#utility.yul\":21095:21121   */\n      swap1\n      pop\n        /* \"#utility.yul\":21167:21176   */\n      dup2\n        /* \"#utility.yul\":21161:21165   */\n      dup2\n        /* \"#utility.yul\":21157:21177   */\n      sub\n        /* \"#utility.yul\":21153:21154   */\n      0x00\n        /* \"#utility.yul\":21142:21151   */\n      dup4\n        /* \"#utility.yul\":21138:21155   */\n      add\n        /* \"#utility.yul\":21131:21178   */\n      mstore\n        /* \"#utility.yul\":21195:21326   */\n      tag_610\n        /* \"#utility.yul\":21321:21325   */\n      dup2\n        /* \"#utility.yul\":21195:21326   */\n      tag_544\n      jump\t// in\n    tag_610:\n        /* \"#utility.yul\":21187:21326   */\n      swap1\n      pop\n        /* \"#utility.yul\":20914:21333   */\n      swap2\n      swap1\n      pop\n      jump\t// out\n        /* \"#utility.yul\":21339:21561   */\n    tag_21:\n        /* \"#utility.yul\":21432:21436   */\n      0x00\n        /* \"#utility.yul\":21470:21472   */\n      0x20\n        /* \"#utility.yul\":21459:21468   */\n      dup3\n        /* \"#utility.yul\":21455:21473   */\n      add\n        /* \"#utility.yul\":21447:21473   */\n      swap1\n      pop\n        /* \"#utility.yul\":21483:21554   */\n      tag_612\n        /* \"#utility.yul\":21551:21552   */\n      0x00\n        /* \"#utility.yul\":21540:21549   */\n      dup4\n        /* \"#utility.yul\":21536:21553   */\n      add\n        /* \"#utility.yul\":21527:21533   */\n      dup5\n        /* \"#utility.yul\":21483:21554   */\n      tag_552\n      jump\t// in\n    tag_612:\n        /* \"#utility.yul\":21339:21561   */\n      swap3\n      swap2\n      pop\n      pop\n      jump\t// out\n        /* \"#utility.yul\":21567:21899   */\n    tag_285:\n        /* \"#utility.yul\":21688:21692   */\n      0x00\n        /* \"#utility.yul\":21726:21728   */\n      0x40\n        /* \"#utility.yul\":21715:21724   */\n      dup3\n        /* \"#utility.yul\":21711:21729   */\n      add\n        /* \"#utility.yul\":21703:21729   */\n      swap1\n      pop\n        /* \"#utility.yul\":21739:21810   */\n      tag_614\n        /* \"#utility.yul\":21807:21808   */\n      0x00\n        /* \"#utility.yul\":21796:21805   */\n      dup4\n        /* \"#utility.yul\":21792:21809   */\n      add\n        /* \"#utility.yul\":21783:21789   */\n      dup6\n        /* \"#utility.yul\":21739:21810   */\n      tag_552\n      jump\t// in\n    tag_614:\n        /* \"#utility.yul\":21820:21892   */\n      tag_615\n        /* \"#utility.yul\":21888:21890   */\n      0x20\n        /* \"#utility.yul\":21877:21886   */\n      dup4\n        /* \"#utility.yul\":21873:21891   */\n      add\n        /* \"#utility.yul\":21864:21870   */\n      dup5\n        /* \"#utility.yul\":21820:21892   */\n      tag_552\n      jump\t// in\n    tag_615:\n        /* \"#utility.yul\":21567:21899   */\n      swap4\n      swap3\n      pop\n      pop\n      pop\n      jump\t// out\n        /* \"#utility.yul\":21905:22347   */\n    tag_53:\n        /* \"#utility.yul\":22054:22058   */\n      0x00\n        /* \"#utility.yul\":22092:22094   */\n      0x60\n        /* \"#utility.yul\":22081:22090   */\n      dup3\n        /* \"#utility.yul\":22077:22095   */\n      add\n        /* \"#utility.yul\":22069:22095   */\n      swap1\n      pop\n        /* \"#utility.yul\":22105:22176   */\n      tag_617\n        /* \"#utility.yul\":22173:22174   */\n      0x00\n        /* \"#utility.yul\":22162:22171   */\n      dup4\n        /* \"#utility.yul\":22158:22175   */\n      add\n        /* \"#utility.yul\":22149:22155   */\n      dup7\n        /* \"#utility.yul\":22105:22176   */\n      tag_552\n      jump\t// in\n    tag_617:\n        /* \"#utility.yul\":22186:22258   */\n      tag_618\n        /* \"#utility.yul\":22254:22256   */\n      0x20\n        /* \"#utility.yul\":22243:22252   */\n      dup4\n        /* \"#utility.yul\":22239:22257   */\n      add\n        /* \"#utility.yul\":22230:22236   */\n      dup6\n        /* \"#utility.yul\":22186:22258   */\n      tag_552\n      jump\t// in\n    tag_618:\n        /* \"#utility.yul\":22268:22340   */\n      tag_619\n        /* \"#utility.yul\":22336:22338   */\n      0x40\n        /* \"#utility.yul\":22325:22334   */\n      dup4\n        /* \"#utility.yul\":22321:22339   */\n      add\n        /* \"#utility.yul\":22312:22318   */\n      dup5\n        /* \"#utility.yul\":22268:22340   */\n      tag_552\n      jump\t// in\n    tag_619:\n        /* \"#utility.yul\":21905:22347   */\n      swap5\n      swap4\n      pop\n      pop\n      pop\n      pop\n      jump\t// out\n        /* \"#utility.yul\":22353:22428   */\n    tag_620:\n        /* \"#utility.yul\":22386:22392   */\n      0x00\n        /* \"#utility.yul\":22419:22421   */\n      0x40\n        /* \"#utility.yul\":22413:22422   */\n      mload\n        /* \"#utility.yul\":22403:22422   */\n      swap1\n      pop\n        /* \"#utility.yul\":22353:22428   */\n      swap1\n      jump\t// out\n        /* \"#utility.yul\":22434:22576   */\n    tag_432:\n        /* \"#utility.yul\":22511:22515   */\n      0x00\n        /* \"#utility.yul\":22534:22537   */\n      dup2\n        /* \"#utility.yul\":22526:22537   */\n      swap1\n      pop\n        /* \"#utility.yul\":22564:22568   */\n      0x20\n        /* \"#utility.yul\":22559:22562   */\n      dup3\n        /* \"#utility.yul\":22555:22569   */\n      add\n        /* \"#utility.yul\":22547:22569   */\n      swap1\n      pop\n        /* \"#utility.yul\":22434:22576   */\n      swap2\n      swap1\n      pop\n      jump\t// out\n        /* \"#utility.yul\":22582:22714   */\n    tag_446:\n        /* \"#utility.yul\":22649:22653   */\n      0x00\n        /* \"#utility.yul\":22672:22675   */\n      dup2\n        /* \"#utility.yul\":22664:22675   */\n      swap1\n      pop\n        /* \"#utility.yul\":22702:22706   */\n      0x20\n        /* \"#utility.yul\":22697:22700   */\n      dup3\n        /* \"#utility.yul\":22693:22707   */\n      add\n        /* \"#utility.yul\":22685:22707   */\n      swap1\n      pop\n        /* \"#utility.yul\":22582:22714   */\n      swap2\n      swap1\n      pop\n      jump\t// out\n        /* \"#utility.yul\":22720:22844   */\n    tag_428:\n        /* \"#utility.yul\":22797:22803   */\n      0x00\n        /* \"#utility.yul\":22831:22836   */\n      dup2\n        /* \"#utility.yul\":22825:22837   */\n      mload\n        /* \"#utility.yul\":22815:22837   */\n      swap1\n      pop\n        /* \"#utility.yul\":22720:22844   */\n      swap2\n      swap1\n      pop\n      jump\t// out\n        /* \"#utility.yul\":22850:22964   */\n    tag_442:\n        /* \"#utility.yul\":22917:22923   */\n      0x00\n        /* \"#utility.yul\":22951:22956   */\n      dup2\n        /* \"#utility.yul\":22945:22957   */\n      mload\n        /* \"#utility.yul\":22935:22957   */\n      swap1\n      pop\n        /* \"#utility.yul\":22850:22964   */\n      swap2\n      swap1\n      pop\n      jump\t// out\n        /* \"#utility.yul\":22970:23069   */\n    tag_459:\n        /* \"#utility.yul\":23022:23028   */\n      0x00\n        /* \"#utility.yul\":23056:23061   */\n      dup2\n        /* \"#utility.yul\":23050:23062   */\n      mload\n        /* \"#utility.yul\":23040:23062   */\n      swap1\n      pop\n        /* \"#utility.yul\":22970:23069   */\n      swap2\n      swap1\n      pop\n      jump\t// out\n        /* \"#utility.yul\":23075:23198   */\n    tag_438:\n        /* \"#utility.yul\":23155:23159   */\n      0x00\n        /* \"#utility.yul\":23187:23191   */\n      0x20\n        /* \"#utility.yul\":23182:23185   */\n      dup3\n        /* \"#utility.yul\":23178:23192   */\n      add\n        /* \"#utility.yul\":23170:23192   */\n      swap1\n      pop\n        /* \"#utility.yul\":23075:23198   */\n      swap2\n      swap1\n      pop\n      jump\t// out\n        /* \"#utility.yul\":23204:23317   */\n    tag_452:\n        /* \"#utility.yul\":23274:23278   */\n      0x00\n        /* \"#utility.yul\":23306:23310   */\n      0x20\n        /* \"#utility.yul\":23301:23304   */\n      dup3\n        /* \"#utility.yul\":23297:23311   */\n      add\n        /* \"#utility.yul\":23289:23311   */\n      swap1\n      pop\n        /* \"#utility.yul\":23204:23317   */\n      swap2\n      swap1\n      pop\n      jump\t// out\n        /* \"#utility.yul\":23323:23517   */\n    tag_430:\n        /* \"#utility.yul\":23432:23443   */\n      0x00\n        /* \"#utility.yul\":23466:23472   */\n      dup3\n        /* \"#utility.yul\":23461:23464   */\n      dup3\n        /* \"#utility.yul\":23454:23473   */\n      mstore\n        /* \"#utility.yul\":23506:23510   */\n      0x20\n        /* \"#utility.yul\":23501:23504   */\n      dup3\n        /* \"#utility.yul\":23497:23511   */\n      add\n        /* \"#utility.yul\":23482:23511   */\n      swap1\n      pop\n        /* \"#utility.yul\":23323:23517   */\n      swap3\n      swap2\n      pop\n      pop\n      jump\t// out\n        /* \"#utility.yul\":23523:23707   */\n    tag_444:\n        /* \"#utility.yul\":23622:23633   */\n      0x00\n        /* \"#utility.yul\":23656:23662   */\n      dup3\n        /* \"#utility.yul\":23651:23654   */\n      dup3\n        /* \"#utility.yul\":23644:23663   */\n      mstore\n        /* \"#utility.yul\":23696:23700   */\n      0x20\n        /* \"#utility.yul\":23691:23694   */\n      dup3\n        /* \"#utility.yul\":23687:23701   */\n      add\n        /* \"#utility.yul\":23672:23701   */\n      swap1\n      pop\n        /* \"#utility.yul\":23523:23707   */\n      swap3\n      swap2\n      pop\n      pop\n      jump\t// out\n        /* \"#utility.yul\":23713:23872   */\n    tag_461:\n        /* \"#utility.yul\":23787:23798   */\n      0x00\n        /* \"#utility.yul\":23821:23827   */\n      dup3\n        /* \"#utility.yul\":23816:23819   */\n      dup3\n        /* \"#utility.yul\":23809:23828   */\n      mstore\n        /* \"#utility.yul\":23861:23865   */\n      0x20\n        /* \"#utility.yul\":23856:23859   */\n      dup3\n        /* \"#utility.yul\":23852:23866   */\n      add\n        /* \"#utility.yul\":23837:23866   */\n      swap1\n      pop\n        /* \"#utility.yul\":23713:23872   */\n      swap3\n      swap2\n      pop\n      pop\n      jump\t// out\n        /* \"#utility.yul\":23878:24047   */\n    tag_470:\n        /* \"#utility.yul\":23962:23973   */\n      0x00\n        /* \"#utility.yul\":23996:24002   */\n      dup3\n        /* \"#utility.yul\":23991:23994   */\n      dup3\n        /* \"#utility.yul\":23984:24003   */\n      mstore\n        /* \"#utility.yul\":24036:24040   */\n      0x20\n        /* \"#utility.yul\":24031:24034   */\n      dup3\n        /* \"#utility.yul\":24027:24041   */\n      add\n        /* \"#utility.yul\":24012:24041   */\n      swap1\n      pop\n        /* \"#utility.yul\":23878:24047   */\n      swap3\n      swap2\n      pop\n      pop\n      jump\t// out\n        /* \"#utility.yul\":24053:24201   */\n    tag_477:\n        /* \"#utility.yul\":24155:24166   */\n      0x00\n        /* \"#utility.yul\":24192:24195   */\n      dup2\n        /* \"#utility.yul\":24177:24195   */\n      swap1\n      pop\n        /* \"#utility.yul\":24053:24201   */\n      swap3\n      swap2\n      pop\n      pop\n      jump\t// out\n        /* \"#utility.yul\":24207:24512   */\n    tag_224:\n        /* \"#utility.yul\":24247:24250   */\n      0x00\n        /* \"#utility.yul\":24266:24286   */\n      tag_635\n        /* \"#utility.yul\":24284:24285   */\n      dup3\n        /* \"#utility.yul\":24266:24286   */\n      tag_551\n      jump\t// in\n    tag_635:\n        /* \"#utility.yul\":24261:24286   */\n      swap2\n      pop\n        /* \"#utility.yul\":24300:24320   */\n      tag_636\n        /* \"#utility.yul\":24318:24319   */\n      dup4\n        /* \"#utility.yul\":24300:24320   */\n      tag_551\n      jump\t// in\n    tag_636:\n        /* \"#utility.yul\":24295:24320   */\n      swap3\n      pop\n        /* \"#utility.yul\":24454:24455   */\n      dup3\n        /* \"#utility.yul\":24386:24452   */\n      0xffffffffffffffffffffffffffffffffffffffffffffffffffffffffffffffff\n        /* \"#utility.yul\":24382:24456   */\n      sub\n        /* \"#utility.yul\":24379:24380   */\n      dup3\n        /* \"#utility.yul\":24376:24457   */\n      gt\n        /* \"#utility.yul\":24373:24480   */\n      iszero\n      tag_637\n      jumpi\n        /* \"#utility.yul\":24460:24478   */\n      tag_638\n      tag_639\n      jump\t// in\n    tag_638:\n        /* \"#utility.yul\":24373:24480   */\n    tag_637:\n        /* \"#utility.yul\":24504:24505   */\n      dup3\n        /* \"#utility.yul\":24501:24502   */\n      dup3\n        /* \"#utility.yul\":24497:24506   */\n      add\n        /* \"#utility.yul\":24490:24506   */\n      swap1\n      pop\n        /* \"#utility.yul\":24207:24512   */\n      swap3\n      swap2\n      pop\n      pop\n      jump\t// out\n        /* \"#utility.yul\":24518:24703   */\n    tag_299:\n        /* \"#utility.yul\":24558:24559   */\n      0x00\n        /* \"#utility.yul\":24575:24595   */\n      tag_641\n        /* \"#utility.yul\":24593:24594   */\n      dup3\n        /* \"#utility.yul\":24575:24595   */\n      tag_551\n      jump\t// in\n    tag_641:\n        /* \"#utility.yul\":24570:24595   */\n      swap2\n      pop\n        /* \"#utility.yul\":24609:24629   */\n      tag_642\n        /* \"#utility.yul\":24627:24628   */\n      dup4\n        /* \"#utility.yul\":24609:24629   */\n      tag_551\n      jump\t// in\n    tag_642:\n        /* \"#utility.yul\":24604:24629   */\n      swap3\n      pop\n        /* \"#utility.yul\":24648:24649   */\n      dup3\n        /* \"#utility.yul\":24638:24673   */\n      tag_643\n      jumpi\n        /* \"#utility.yul\":24653:24671   */\n      tag_644\n      tag_645\n      jump\t// in\n    tag_644:\n        /* \"#utility.yul\":24638:24673   */\n    tag_643:\n        /* \"#utility.yul\":24695:24696   */\n      dup3\n        /* \"#utility.yul\":24692:24693   */\n      dup3\n        /* \"#utility.yul\":24688:24697   */\n      div\n        /* \"#utility.yul\":24683:24697   */\n      swap1\n      pop\n        /* \"#utility.yul\":24518:24703   */\n      swap3\n      swap2\n      pop\n      pop\n      jump\t// out\n        /* \"#utility.yul\":24709:24900   */\n    tag_307:\n        /* \"#utility.yul\":24749:24753   */\n      0x00\n        /* \"#utility.yul\":24769:24789   */\n      tag_647\n        /* \"#utility.yul\":24787:24788   */\n      dup3\n        /* \"#utility.yul\":24769:24789   */\n      tag_551\n      jump\t// in\n    tag_647:\n        /* \"#utility.yul\":24764:24789   */\n      swap2\n      pop\n        /* \"#utility.yul\":24803:24823   */\n      tag_648\n        /* \"#utility.yul\":24821:24822   */\n      dup4\n        /* \"#utility.yul\":24803:24823   */\n      tag_551\n      jump\t// in\n    tag_648:\n        /* \"#utility.yul\":24798:24823   */\n      swap3\n      pop\n        /* \"#utility.yul\":24842:24843   */\n      dup3\n        /* \"#utility.yul\":24839:24840   */\n      dup3\n        /* \"#utility.yul\":24836:24844   */\n      lt\n        /* \"#utility.yul\":24833:24867   */\n      iszero\n      tag_649\n      jumpi\n        /* \"#utility.yul\":24847:24865   */\n      tag_650\n      tag_639\n      jump\t// in\n    tag_650:\n        /* \"#utility.yul\":24833:24867   */\n    tag_649:\n        /* \"#utility.yul\":24892:24893   */\n      dup3\n        /* \"#utility.yul\":24889:24890   */\n      dup3\n        /* \"#utility.yul\":24885:24894   */\n      sub\n        /* \"#utility.yul\":24877:24894   */\n      swap1\n      pop\n        /* \"#utility.yul\":24709:24900   */\n      swap3\n      swap2\n      pop\n      pop\n      jump\t// out\n        /* \"#utility.yul\":24906:25002   */\n    tag_419:\n        /* \"#utility.yul\":24943:24950   */\n      0x00\n        /* \"#utility.yul\":24972:24996   */\n      tag_652\n        /* \"#utility.yul\":24990:24995   */\n      dup3\n        /* \"#utility.yul\":24972:24996   */\n      tag_653\n      jump\t// in\n    tag_652:\n        /* \"#utility.yul\":24961:24996   */\n      swap1\n      pop\n        /* \"#utility.yul\":24906:25002   */\n      swap2\n      swap1\n      pop\n      jump\t// out\n        /* \"#utility.yul\":25008:25112   */\n    tag_415:\n        /* \"#utility.yul\":25053:25060   */\n      0x00\n        /* \"#utility.yul\":25082:25106   */\n      tag_655\n        /* \"#utility.yul\":25100:25105   */\n      dup3\n        /* \"#utility.yul\":25082:25106   */\n      tag_653\n      jump\t// in\n    tag_655:\n        /* \"#utility.yul\":25071:25106   */\n      swap1\n      pop\n        /* \"#utility.yul\":25008:25112   */\n      swap2\n      swap1\n      pop\n      jump\t// out\n        /* \"#utility.yul\":25118:25208   */\n    tag_456:\n        /* \"#utility.yul\":25152:25159   */\n      0x00\n        /* \"#utility.yul\":25195:25200   */\n      dup2\n        /* \"#utility.yul\":25188:25201   */\n      iszero\n        /* \"#utility.yul\":25181:25202   */\n      iszero\n        /* \"#utility.yul\":25170:25202   */\n      swap1\n      pop\n        /* \"#utility.yul\":25118:25208   */\n      swap2\n      swap1\n      pop\n      jump\t// out\n        /* \"#utility.yul\":25214:25363   */\n    tag_657:\n        /* \"#utility.yul\":25250:25257   */\n      0x00\n        /* \"#utility.yul\":25290:25356   */\n      0xffffffff00000000000000000000000000000000000000000000000000000000\n        /* \"#utility.yul\":25283:25288   */\n      dup3\n        /* \"#utility.yul\":25279:25357   */\n      and\n        /* \"#utility.yul\":25268:25357   */\n      swap1\n      pop\n        /* \"#utility.yul\":25214:25363   */\n      swap2\n      swap1\n      pop\n      jump\t// out\n        /* \"#utility.yul\":25369:25495   */\n    tag_653:\n        /* \"#utility.yul\":25406:25413   */\n      0x00\n        /* \"#utility.yul\":25446:25488   */\n      0xffffffffffffffffffffffffffffffffffffffff\n        /* \"#utility.yul\":25439:25444   */\n      dup3\n        /* \"#utility.yul\":25435:25489   */\n      and\n        /* \"#utility.yul\":25424:25489   */\n      swap1\n      pop\n        /* \"#utility.yul\":25369:25495   */\n      swap2\n      swap1\n      pop\n      jump\t// out\n        /* \"#utility.yul\":25501:25578   */\n    tag_551:\n        /* \"#utility.yul\":25538:25545   */\n      0x00\n        /* \"#utility.yul\":25567:25572   */\n      dup2\n        /* \"#utility.yul\":25556:25572   */\n      swap1\n      pop\n        /* \"#utility.yul\":25501:25578   */\n      swap2\n      swap1\n      pop\n      jump\t// out\n        /* \"#utility.yul\":25584:25891   */\n    tag_463:\n        /* \"#utility.yul\":25652:25653   */\n      0x00\n        /* \"#utility.yul\":25662:25775   */\n    tag_662:\n        /* \"#utility.yul\":25676:25682   */\n      dup4\n        /* \"#utility.yul\":25673:25674   */\n      dup2\n        /* \"#utility.yul\":25670:25683   */\n      lt\n        /* \"#utility.yul\":25662:25775   */\n      iszero\n      tag_664\n      jumpi\n        /* \"#utility.yul\":25761:25762   */\n      dup1\n        /* \"#utility.yul\":25756:25759   */\n      dup3\n        /* \"#utility.yul\":25752:25763   */\n      add\n        /* \"#utility.yul\":25746:25764   */\n      mload\n        /* \"#utility.yul\":25742:25743   */\n      dup2\n        /* \"#utility.yul\":25737:25740   */\n      dup5\n        /* \"#utility.yul\":25733:25744   */\n      add\n        /* \"#utility.yul\":25726:25765   */\n      mstore\n        /* \"#utility.yul\":25698:25700   */\n      0x20\n        /* \"#utility.yul\":25695:25696   */\n      dup2\n        /* \"#utility.yul\":25691:25701   */\n      add\n        /* \"#utility.yul\":25686:25701   */\n      swap1\n      pop\n        /* \"#utility.yul\":25662:25775   */\n      jump(tag_662)\n    tag_664:\n        /* \"#utility.yul\":25793:25799   */\n      dup4\n        /* \"#utility.yul\":25790:25791   */\n      dup2\n        /* \"#utility.yul\":25787:25800   */\n      gt\n        /* \"#utility.yul\":25784:25885   */\n      iszero\n      tag_665\n      jumpi\n        /* \"#utility.yul\":25873:25874   */\n      0x00\n        /* \"#utility.yul\":25864:25870   */\n      dup5\n        /* \"#utility.yul\":25859:25862   */\n      dup5\n        /* \"#utility.yul\":25855:25871   */\n      add\n        /* \"#utility.yul\":25848:25875   */\n      mstore\n        /* \"#utility.yul\":25784:25885   */\n    tag_665:\n        /* \"#utility.yul\":25633:25891   */\n      pop\n        /* \"#utility.yul\":25584:25891   */\n      pop\n      pop\n      pop\n      jump\t// out\n        /* \"#utility.yul\":25897:26217   */\n    tag_209:\n        /* \"#utility.yul\":25941:25947   */\n      0x00\n        /* \"#utility.yul\":25978:25979   */\n      0x02\n        /* \"#utility.yul\":25972:25976   */\n      dup3\n        /* \"#utility.yul\":25968:25980   */\n      div\n        /* \"#utility.yul\":25958:25980   */\n      swap1\n      pop\n        /* \"#utility.yul\":26025:26026   */\n      0x01\n        /* \"#utility.yul\":26019:26023   */\n      dup3\n        /* \"#utility.yul\":26015:26027   */\n      and\n        /* \"#utility.yul\":26046:26064   */\n      dup1\n        /* \"#utility.yul\":26036:26117   */\n      tag_667\n      jumpi\n        /* \"#utility.yul\":26102:26106   */\n      0x7f\n        /* \"#utility.yul\":26094:26100   */\n      dup3\n        /* \"#utility.yul\":26090:26107   */\n      and\n        /* \"#utility.yul\":26080:26107   */\n      swap2\n      pop\n        /* \"#utility.yul\":26036:26117   */\n    tag_667:\n        /* \"#utility.yul\":26164:26166   */\n      0x20\n        /* \"#utility.yul\":26156:26162   */\n      dup3\n        /* \"#utility.yul\":26153:26167   */\n      lt\n        /* \"#utility.yul\":26133:26151   */\n      dup2\n        /* \"#utility.yul\":26130:26168   */\n      eq\n        /* \"#utility.yul\":26127:26211   */\n      iszero\n      tag_668\n      jumpi\n        /* \"#utility.yul\":26183:26201   */\n      tag_669\n      tag_670\n      jump\t// in\n    tag_669:\n        /* \"#utility.yul\":26127:26211   */\n    tag_668:\n        /* \"#utility.yul\":25948:26217   */\n      pop\n        /* \"#utility.yul\":25897:26217   */\n      swap2\n      swap1\n      pop\n      jump\t// out\n        /* \"#utility.yul\":26223:26504   */\n    tag_671:\n        /* \"#utility.yul\":26306:26333   */\n      tag_673\n        /* \"#utility.yul\":26328:26332   */\n      dup3\n        /* \"#utility.yul\":26306:26333   */\n      tag_465\n      jump\t// in\n    tag_673:\n        /* \"#utility.yul\":26298:26304   */\n      dup2\n        /* \"#utility.yul\":26294:26334   */\n      add\n        /* \"#utility.yul\":26436:26442   */\n      dup2\n        /* \"#utility.yul\":26424:26434   */\n      dup2\n        /* \"#utility.yul\":26421:26443   */\n      lt\n        /* \"#utility.yul\":26400:26418   */\n      0xffffffffffffffff\n        /* \"#utility.yul\":26388:26398   */\n      dup3\n        /* \"#utility.yul\":26385:26419   */\n      gt\n        /* \"#utility.yul\":26382:26444   */\n      or\n        /* \"#utility.yul\":26379:26467   */\n      iszero\n      tag_674\n      jumpi\n        /* \"#utility.yul\":26447:26465   */\n      tag_675\n      tag_302\n      jump\t// in\n    tag_675:\n        /* \"#utility.yul\":26379:26467   */\n    tag_674:\n        /* \"#utility.yul\":26487:26497   */\n      dup1\n        /* \"#utility.yul\":26483:26485   */\n      0x40\n        /* \"#utility.yul\":26476:26498   */\n      mstore\n        /* \"#utility.yul\":26266:26504   */\n      pop\n        /* \"#utility.yul\":26223:26504   */\n      pop\n      pop\n      jump\t// out\n        /* \"#utility.yul\":26510:26743   */\n    tag_127:\n        /* \"#utility.yul\":26549:26552   */\n      0x00\n        /* \"#utility.yul\":26572:26596   */\n      tag_677\n        /* \"#utility.yul\":26590:26595   */\n      dup3\n        /* \"#utility.yul\":26572:26596   */\n      tag_551\n      jump\t// in\n    tag_677:\n        /* \"#utility.yul\":26563:26596   */\n      swap2\n      pop\n        /* \"#utility.yul\":26618:26684   */\n      0xffffffffffffffffffffffffffffffffffffffffffffffffffffffffffffffff\n        /* \"#utility.yul\":26611:26616   */\n      dup3\n        /* \"#utility.yul\":26608:26685   */\n      eq\n        /* \"#utility.yul\":26605:26708   */\n      iszero\n      tag_678\n      jumpi\n        /* \"#utility.yul\":26688:26706   */\n      tag_679\n      tag_639\n      jump\t// in\n    tag_679:\n        /* \"#utility.yul\":26605:26708   */\n    tag_678:\n        /* \"#utility.yul\":26735:26736   */\n      0x01\n        /* \"#utility.yul\":26728:26733   */\n      dup3\n        /* \"#utility.yul\":26724:26737   */\n      add\n        /* \"#utility.yul\":26717:26737   */\n      swap1\n      pop\n        /* \"#utility.yul\":26510:26743   */\n      swap2\n      swap1\n      pop\n      jump\t// out\n        /* \"#utility.yul\":26749:26849   */\n    tag_424:\n        /* \"#utility.yul\":26788:26795   */\n      0x00\n        /* \"#utility.yul\":26817:26843   */\n      tag_681\n        /* \"#utility.yul\":26837:26842   */\n      dup3\n        /* \"#utility.yul\":26817:26843   */\n      tag_682\n      jump\t// in\n    tag_681:\n        /* \"#utility.yul\":26806:26843   */\n      swap1\n      pop\n        /* \"#utility.yul\":26749:26849   */\n      swap2\n      swap1\n      pop\n      jump\t// out\n        /* \"#utility.yul\":26855:26949   */\n    tag_682:\n        /* \"#utility.yul\":26894:26901   */\n      0x00\n        /* \"#utility.yul\":26923:26943   */\n      tag_684\n        /* \"#utility.yul\":26937:26942   */\n      dup3\n        /* \"#utility.yul\":26923:26943   */\n      tag_685\n      jump\t// in\n    tag_684:\n        /* \"#utility.yul\":26912:26943   */\n      swap1\n      pop\n        /* \"#utility.yul\":26855:26949   */\n      swap2\n      swap1\n      pop\n      jump\t// out\n        /* \"#utility.yul\":26955:27034   */\n    tag_559:\n        /* \"#utility.yul\":26994:27001   */\n      0x00\n        /* \"#utility.yul\":27023:27028   */\n      dup2\n        /* \"#utility.yul\":27012:27028   */\n      swap1\n      pop\n        /* \"#utility.yul\":26955:27034   */\n      swap2\n      swap1\n      pop\n      jump\t// out\n        /* \"#utility.yul\":27040:27216   */\n    tag_292:\n        /* \"#utility.yul\":27072:27073   */\n      0x00\n        /* \"#utility.yul\":27089:27109   */\n      tag_688\n        /* \"#utility.yul\":27107:27108   */\n      dup3\n        /* \"#utility.yul\":27089:27109   */\n      tag_551\n      jump\t// in\n    tag_688:\n        /* \"#utility.yul\":27084:27109   */\n      swap2\n      pop\n        /* \"#utility.yul\":27123:27143   */\n      tag_689\n        /* \"#utility.yul\":27141:27142   */\n      dup4\n        /* \"#utility.yul\":27123:27143   */\n      tag_551\n      jump\t// in\n    tag_689:\n        /* \"#utility.yul\":27118:27143   */\n      swap3\n      pop\n        /* \"#utility.yul\":27162:27163   */\n      dup3\n        /* \"#utility.yul\":27152:27187   */\n      tag_690\n      jumpi\n        /* \"#utility.yul\":27167:27185   */\n      tag_691\n      tag_645\n      jump\t// in\n    tag_691:\n        /* \"#utility.yul\":27152:27187   */\n    tag_690:\n        /* \"#utility.yul\":27208:27209   */\n      dup3\n        /* \"#utility.yul\":27205:27206   */\n      dup3\n        /* \"#utility.yul\":27201:27210   */\n      mod\n        /* \"#utility.yul\":27196:27210   */\n      swap1\n      pop\n        /* \"#utility.yul\":27040:27216   */\n      swap3\n      swap2\n      pop\n      pop\n      jump\t// out\n        /* \"#utility.yul\":27222:27402   */\n    tag_639:\n        /* \"#utility.yul\":27270:27347   */\n      0x4e487b7100000000000000000000000000000000000000000000000000000000\n        /* \"#utility.yul\":27267:27268   */\n      0x00\n        /* \"#utility.yul\":27260:27348   */\n      mstore\n        /* \"#utility.yul\":27367:27371   */\n      0x11\n        /* \"#utility.yul\":27364:27365   */\n      0x04\n        /* \"#utility.yul\":27357:27372   */\n      mstore\n        /* \"#utility.yul\":27391:27395   */\n      0x24\n        /* \"#utility.yul\":27388:27389   */\n      0x00\n        /* \"#utility.yul\":27381:27396   */\n      revert\n        /* \"#utility.yul\":27408:27588   */\n    tag_645:\n        /* \"#utility.yul\":27456:27533   */\n      0x4e487b7100000000000000000000000000000000000000000000000000000000\n        /* \"#utility.yul\":27453:27454   */\n      0x00\n        /* \"#utility.yul\":27446:27534   */\n      mstore\n        /* \"#utility.yul\":27553:27557   */\n      0x12\n        /* \"#utility.yul\":27550:27551   */\n      0x04\n        /* \"#utility.yul\":27543:27558   */\n      mstore\n        /* \"#utility.yul\":27577:27581   */\n      0x24\n        /* \"#utility.yul\":27574:27575   */\n      0x00\n        /* \"#utility.yul\":27567:27582   */\n      revert\n        /* \"#utility.yul\":27594:27774   */\n    tag_670:\n        /* \"#utility.yul\":27642:27719   */\n      0x4e487b7100000000000000000000000000000000000000000000000000000000\n        /* \"#utility.yul\":27639:27640   */\n      0x00\n        /* \"#utility.yul\":27632:27720   */\n      mstore\n        /* \"#utility.yul\":27739:27743   */\n      0x22\n        /* \"#utility.yul\":27736:27737   */\n      0x04\n        /* \"#utility.yul\":27729:27744   */\n      mstore\n        /* \"#utility.yul\":27763:27767   */\n      0x24\n        /* \"#utility.yul\":27760:27761   */\n      0x00\n        /* \"#utility.yul\":27753:27768   */\n      revert\n        /* \"#utility.yul\":27780:27960   */\n    tag_123:\n        /* \"#utility.yul\":27828:27905   */\n      0x4e487b7100000000000000000000000000000000000000000000000000000000\n        /* \"#utility.yul\":27825:27826   */\n      0x00\n        /* \"#utility.yul\":27818:27906   */\n      mstore\n        /* \"#utility.yul\":27925:27929   */\n      0x32\n        /* \"#utility.yul\":27922:27923   */\n      0x04\n        /* \"#utility.yul\":27915:27930   */\n      mstore\n        /* \"#utility.yul\":27949:27953   */\n      0x24\n        /* \"#utility.yul\":27946:27947   */\n      0x00\n        /* \"#utility.yul\":27939:27954   */\n      revert\n        /* \"#utility.yul\":27966:28146   */\n    tag_302:\n        /* \"#utility.yul\":28014:28091   */\n      0x4e487b7100000000000000000000000000000000000000000000000000000000\n        /* \"#utility.yul\":28011:28012   */\n      0x00\n        /* \"#utility.yul\":28004:28092   */\n      mstore\n        /* \"#utility.yul\":28111:28115   */\n      0x41\n        /* \"#utility.yul\":28108:28109   */\n      0x04\n        /* \"#utility.yul\":28101:28116   */\n      mstore\n        /* \"#utility.yul\":28135:28139   */\n      0x24\n        /* \"#utility.yul\":28132:28133   */\n      0x00\n        /* \"#utility.yul\":28125:28140   */\n      revert\n        /* \"#utility.yul\":28152:28335   */\n    tag_335:\n        /* \"#utility.yul\":28187:28190   */\n      0x00\n        /* \"#utility.yul\":28225:28226   */\n      0x03\n        /* \"#utility.yul\":28207:28223   */\n      returndatasize\n        /* \"#utility.yul\":28204:28227   */\n      gt\n        /* \"#utility.yul\":28201:28329   */\n      iszero\n      tag_698\n      jumpi\n        /* \"#utility.yul\":28263:28264   */\n      0x04\n        /* \"#utility.yul\":28260:28261   */\n      0x00\n        /* \"#utility.yul\":28257:28258   */\n      dup1\n        /* \"#utility.yul\":28242:28265   */\n      returndatacopy\n        /* \"#utility.yul\":28285:28319   */\n      tag_699\n        /* \"#utility.yul\":28316:28317   */\n      0x00\n        /* \"#utility.yul\":28310:28318   */\n      mload\n        /* \"#utility.yul\":28285:28319   */\n      tag_700\n      jump\t// in\n    tag_699:\n        /* \"#utility.yul\":28278:28319   */\n      swap1\n      pop\n        /* \"#utility.yul\":28201:28329   */\n    tag_698:\n        /* \"#utility.yul\":28152:28335   */\n      swap1\n      jump\t// out\n        /* \"#utility.yul\":28464:28581   */\n    tag_385:\n        /* \"#utility.yul\":28573:28574   */\n      0x00\n        /* \"#utility.yul\":28570:28571   */\n      dup1\n        /* \"#utility.yul\":28563:28575   */\n      revert\n        /* \"#utility.yul\":28587:28689   */\n    tag_465:\n        /* \"#utility.yul\":28628:28634   */\n      0x00\n        /* \"#utility.yul\":28679:28681   */\n      0x1f\n        /* \"#utility.yul\":28675:28682   */\n      not\n        /* \"#utility.yul\":28670:28672   */\n      0x1f\n        /* \"#utility.yul\":28663:28668   */\n      dup4\n        /* \"#utility.yul\":28659:28673   */\n      add\n        /* \"#utility.yul\":28655:28683   */\n      and\n        /* \"#utility.yul\":28645:28683   */\n      swap1\n      pop\n        /* \"#utility.yul\":28587:28689   */\n      swap2\n      swap1\n      pop\n      jump\t// out\n        /* \"#utility.yul\":28695:28789   */\n    tag_685:\n        /* \"#utility.yul\":28728:28736   */\n      0x00\n        /* \"#utility.yul\":28776:28781   */\n      dup2\n        /* \"#utility.yul\":28772:28774   */\n      0x60\n        /* \"#utility.yul\":28768:28782   */\n      shl\n        /* \"#utility.yul\":28747:28782   */\n      swap1\n      pop\n        /* \"#utility.yul\":28695:28789   */\n      swap2\n      swap1\n      pop\n      jump\t// out\n        /* \"#utility.yul\":28795:28901   */\n    tag_700:\n        /* \"#utility.yul\":28839:28847   */\n      0x00\n        /* \"#utility.yul\":28888:28893   */\n      dup2\n        /* \"#utility.yul\":28883:28886   */\n      0xe0\n        /* \"#utility.yul\":28879:28894   */\n      shr\n        /* \"#utility.yul\":28858:28894   */\n      swap1\n      pop\n        /* \"#utility.yul\":28795:28901   */\n      swap2\n      swap1\n      pop\n      jump\t// out\n        /* \"#utility.yul\":28907:29146   */\n    tag_483:\n        /* \"#utility.yul\":29047:29081   */\n      0x455243313135353a207472616e7366657220746f206e6f6e2045524331313535\n        /* \"#utility.yul\":29043:29044   */\n      0x00\n        /* \"#utility.yul\":29035:29041   */\n      dup3\n        /* \"#utility.yul\":29031:29045   */\n      add\n        /* \"#utility.yul\":29024:29082   */\n      mstore\n        /* \"#utility.yul\":29116:29138   */\n      0x526563656976657220696d706c656d656e746572000000000000000000000000\n        /* \"#utility.yul\":29111:29113   */\n      0x20\n        /* \"#utility.yul\":29103:29109   */\n      dup3\n        /* \"#utility.yul\":29099:29114   */\n      add\n        /* \"#utility.yul\":29092:29139   */\n      mstore\n        /* \"#utility.yul\":28907:29146   */\n      pop\n      jump\t// out\n        /* \"#utility.yul\":29152:29379   */\n    tag_488:\n        /* \"#utility.yul\":29292:29326   */\n      0x455243313135353a204552433131353552656365697665722072656a65637465\n        /* \"#utility.yul\":29288:29289   */\n      0x00\n        /* \"#utility.yul\":29280:29286   */\n      dup3\n        /* \"#utility.yul\":29276:29290   */\n      add\n        /* \"#utility.yul\":29269:29327   */\n      mstore\n        /* \"#utility.yul\":29361:29371   */\n      0x6420746f6b656e73000000000000000000000000000000000000000000000000\n        /* \"#utility.yul\":29356:29358   */\n      0x20\n        /* \"#utility.yul\":29348:29354   */\n      dup3\n        /* \"#utility.yul\":29344:29359   */\n      add\n        /* \"#utility.yul\":29337:29372   */\n      mstore\n        /* \"#utility.yul\":29152:29379   */\n      pop\n      jump\t// out\n        /* \"#utility.yul\":29385:29543   */\n    tag_493:\n        /* \"#utility.yul\":29525:29535   */\n      0x4469616d6f6e645f000000000000000000000000000000000000000000000000\n        /* \"#utility.yul\":29521:29522   */\n      0x00\n        /* \"#utility.yul\":29513:29519   */\n      dup3\n        /* \"#utility.yul\":29509:29523   */\n      add\n        /* \"#utility.yul\":29502:29536   */\n      mstore\n        /* \"#utility.yul\":29385:29543   */\n      pop\n      jump\t// out\n        /* \"#utility.yul\":29549:29704   */\n    tag_498:\n        /* \"#utility.yul\":29689:29696   */\n      0x476f6c645f000000000000000000000000000000000000000000000000000000\n        /* \"#utility.yul\":29685:29686   */\n      0x00\n        /* \"#utility.yul\":29677:29683   */\n      dup3\n        /* \"#utility.yul\":29673:29687   */\n      add\n        /* \"#utility.yul\":29666:29697   */\n      mstore\n        /* \"#utility.yul\":29549:29704   */\n      pop\n      jump\t// out\n        /* \"#utility.yul\":29710:29878   */\n    tag_503:\n        /* \"#utility.yul\":29850:29870   */\n      0x4e6f7420456e6f7567682042616c616e63650000000000000000000000000000\n        /* \"#utility.yul\":29846:29847   */\n      0x00\n        /* \"#utility.yul\":29838:29844   */\n      dup3\n        /* \"#utility.yul\":29834:29848   */\n      add\n        /* \"#utility.yul\":29827:29871   */\n      mstore\n        /* \"#utility.yul\":29710:29878   */\n      pop\n      jump\t// out\n        /* \"#utility.yul\":29884:30061   */\n    tag_508:\n        /* \"#utility.yul\":30024:30053   */\n      0x44726f707369746520697320616c72656164792052756e6e696e670000000000\n        /* \"#utility.yul\":30020:30021   */\n      0x00\n        /* \"#utility.yul\":30012:30018   */\n      dup3\n        /* \"#utility.yul\":30008:30022   */\n      add\n        /* \"#utility.yul\":30001:30054   */\n      mstore\n        /* \"#utility.yul\":29884:30061   */\n      pop\n      jump\t// out\n        /* \"#utility.yul\":30067:30244   */\n    tag_513:\n        /* \"#utility.yul\":30207:30236   */\n      0x44726f707369746520697320616c72656164792053746f707065640000000000\n        /* \"#utility.yul\":30203:30204   */\n      0x00\n        /* \"#utility.yul\":30195:30201   */\n      dup3\n        /* \"#utility.yul\":30191:30205   */\n      add\n        /* \"#utility.yul\":30184:30237   */\n      mstore\n        /* \"#utility.yul\":30067:30244   */\n      pop\n      jump\t// out\n        /* \"#utility.yul\":30250:30421   */\n    tag_518:\n        /* \"#utility.yul\":30390:30413   */\n      0x596f752063616e206d696e7420312d33204e4654730000000000000000000000\n        /* \"#utility.yul\":30386:30387   */\n      0x00\n        /* \"#utility.yul\":30378:30384   */\n      dup3\n        /* \"#utility.yul\":30374:30388   */\n      add\n        /* \"#utility.yul\":30367:30414   */\n      mstore\n        /* \"#utility.yul\":30250:30421   */\n      pop\n      jump\t// out\n        /* \"#utility.yul\":30427:30605   */\n    tag_523:\n        /* \"#utility.yul\":30567:30597   */\n      0x4f6e6c79204e46542d4553204f776e65722063616e2041636365737300000000\n        /* \"#utility.yul\":30563:30564   */\n      0x00\n        /* \"#utility.yul\":30555:30561   */\n      dup3\n        /* \"#utility.yul\":30551:30565   */\n      add\n        /* \"#utility.yul\":30544:30598   */\n      mstore\n        /* \"#utility.yul\":30427:30605   */\n      pop\n      jump\t// out\n        /* \"#utility.yul\":30611:30788   */\n    tag_528:\n        /* \"#utility.yul\":30751:30780   */\n      0x44726f7073697465206973206e6f74204f70656e6564205965742e0000000000\n        /* \"#utility.yul\":30747:30748   */\n      0x00\n        /* \"#utility.yul\":30739:30745   */\n      dup3\n        /* \"#utility.yul\":30735:30749   */\n      add\n        /* \"#utility.yul\":30728:30781   */\n      mstore\n        /* \"#utility.yul\":30611:30788   */\n      pop\n      jump\t// out\n        /* \"#utility.yul\":30794:30969   */\n    tag_533:\n        /* \"#utility.yul\":30934:30961   */\n      0x4d6178204d696e74696e67204c696d6974207265616368656400000000000000\n        /* \"#utility.yul\":30930:30931   */\n      0x00\n        /* \"#utility.yul\":30922:30928   */\n      dup3\n        /* \"#utility.yul\":30918:30932   */\n      add\n        /* \"#utility.yul\":30911:30962   */\n      mstore\n        /* \"#utility.yul\":30794:30969   */\n      pop\n      jump\t// out\n        /* \"#utility.yul\":30975:31132   */\n    tag_538:\n        /* \"#utility.yul\":31115:31124   */\n      0x53696c7665725f00000000000000000000000000000000000000000000000000\n        /* \"#utility.yul\":31111:31112   */\n      0x00\n        /* \"#utility.yul\":31103:31109   */\n      dup3\n        /* \"#utility.yul\":31099:31113   */\n      add\n        /* \"#utility.yul\":31092:31125   */\n      mstore\n        /* \"#utility.yul\":30975:31132   */\n      pop\n      jump\t// out\n        /* \"#utility.yul\":31138:31317   */\n    tag_543:\n        /* \"#utility.yul\":31278:31309   */\n      0x4572726f7221204e6f2042616c616e636520746f207769746864726177000000\n        /* \"#utility.yul\":31274:31275   */\n      0x00\n        /* \"#utility.yul\":31266:31272   */\n      dup3\n        /* \"#utility.yul\":31262:31276   */\n      add\n        /* \"#utility.yul\":31255:31310   */\n      mstore\n        /* \"#utility.yul\":31138:31317   */\n      pop\n      jump\t// out\n        /* \"#utility.yul\":31323:31543   */\n    tag_548:\n        /* \"#utility.yul\":31463:31497   */\n      0x455243313135353a206d696e7420746f20746865207a65726f20616464726573\n        /* \"#utility.yul\":31459:31460   */\n      0x00\n        /* \"#utility.yul\":31451:31457   */\n      dup3\n        /* \"#utility.yul\":31447:31461   */\n      add\n        /* \"#utility.yul\":31440:31498   */\n      mstore\n        /* \"#utility.yul\":31532:31535   */\n      0x7300000000000000000000000000000000000000000000000000000000000000\n        /* \"#utility.yul\":31527:31529   */\n      0x20\n        /* \"#utility.yul\":31519:31525   */\n      dup3\n        /* \"#utility.yul\":31515:31530   */\n      add\n        /* \"#utility.yul\":31508:31536   */\n      mstore\n        /* \"#utility.yul\":31323:31543   */\n      pop\n      jump\t// out\n        /* \"#utility.yul\":31549:32260   */\n    tag_337:\n        /* \"#utility.yul\":31588:31591   */\n      0x00\n        /* \"#utility.yul\":31626:31630   */\n      0x44\n        /* \"#utility.yul\":31608:31624   */\n      returndatasize\n        /* \"#utility.yul\":31605:31631   */\n      lt\n        /* \"#utility.yul\":31602:31641   */\n      iszero\n      tag_722\n      jumpi\n        /* \"#utility.yul\":31634:31639   */\n      jump(tag_721)\n        /* \"#utility.yul\":31602:31641   */\n    tag_722:\n        /* \"#utility.yul\":31663:31683   */\n      tag_723\n      tag_620\n      jump\t// in\n    tag_723:\n        /* \"#utility.yul\":31738:31739   */\n      0x04\n        /* \"#utility.yul\":31720:31736   */\n      returndatasize\n        /* \"#utility.yul\":31716:31740   */\n      sub\n        /* \"#utility.yul\":31713:31714   */\n      0x04\n        /* \"#utility.yul\":31707:31711   */\n      dup3\n        /* \"#utility.yul\":31692:31741   */\n      returndatacopy\n        /* \"#utility.yul\":31771:31775   */\n      dup1\n        /* \"#utility.yul\":31765:31776   */\n      mload\n        /* \"#utility.yul\":31870:31886   */\n      returndatasize\n        /* \"#utility.yul\":31863:31867   */\n      0x24\n        /* \"#utility.yul\":31855:31861   */\n      dup3\n        /* \"#utility.yul\":31851:31868   */\n      add\n        /* \"#utility.yul\":31848:31887   */\n      gt\n        /* \"#utility.yul\":31815:31833   */\n      0xffffffffffffffff\n        /* \"#utility.yul\":31807:31813   */\n      dup3\n        /* \"#utility.yul\":31804:31834   */\n      gt\n        /* \"#utility.yul\":31788:31901   */\n      or\n        /* \"#utility.yul\":31785:31931   */\n      iszero\n      tag_724\n      jumpi\n        /* \"#utility.yul\":31916:31921   */\n      pop\n      pop\n      jump(tag_721)\n        /* \"#utility.yul\":31785:31931   */\n    tag_724:\n        /* \"#utility.yul\":31962:31968   */\n      dup1\n        /* \"#utility.yul\":31956:31960   */\n      dup3\n        /* \"#utility.yul\":31952:31969   */\n      add\n        /* \"#utility.yul\":31998:32001   */\n      dup1\n        /* \"#utility.yul\":31992:32002   */\n      mload\n        /* \"#utility.yul\":32025:32043   */\n      0xffffffffffffffff\n        /* \"#utility.yul\":32017:32023   */\n      dup2\n        /* \"#utility.yul\":32014:32044   */\n      gt\n        /* \"#utility.yul\":32011:32054   */\n      iszero\n      tag_725\n      jumpi\n        /* \"#utility.yul\":32047:32052   */\n      pop\n      pop\n      pop\n      pop\n      jump(tag_721)\n        /* \"#utility.yul\":32011:32054   */\n    tag_725:\n        /* \"#utility.yul\":32095:32101   */\n      dup1\n        /* \"#utility.yul\":32088:32092   */\n      0x20\n        /* \"#utility.yul\":32083:32086   */\n      dup4\n        /* \"#utility.yul\":32079:32093   */\n      add\n        /* \"#utility.yul\":32075:32102   */\n      add\n        /* \"#utility.yul\":32154:32155   */\n      0x04\n        /* \"#utility.yul\":32136:32152   */\n      returndatasize\n        /* \"#utility.yul\":32132:32156   */\n      sub\n        /* \"#utility.yul\":32126:32130   */\n      dup6\n        /* \"#utility.yul\":32122:32157   */\n      add\n        /* \"#utility.yul\":32117:32120   */\n      dup2\n        /* \"#utility.yul\":32114:32158   */\n      gt\n        /* \"#utility.yul\":32111:32168   */\n      iszero\n      tag_726\n      jumpi\n        /* \"#utility.yul\":32161:32166   */\n      pop\n      pop\n      pop\n      pop\n      pop\n      jump(tag_721)\n        /* \"#utility.yul\":32111:32168   */\n    tag_726:\n        /* \"#utility.yul\":32178:32235   */\n      tag_727\n        /* \"#utility.yul\":32226:32232   */\n      dup3\n        /* \"#utility.yul\":32220:32224   */\n      0x20\n        /* \"#utility.yul\":32216:32233   */\n      add\n        /* \"#utility.yul\":32208:32214   */\n      dup6\n        /* \"#utility.yul\":32204:32234   */\n      add\n        /* \"#utility.yul\":32198:32202   */\n      dup7\n        /* \"#utility.yul\":32178:32235   */\n      tag_671\n      jump\t// in\n    tag_727:\n        /* \"#utility.yul\":32251:32254   */\n      dup3\n        /* \"#utility.yul\":32244:32254   */\n      swap6\n      pop\n        /* \"#utility.yul\":31592:32260   */\n      pop\n      pop\n      pop\n      pop\n      pop\n        /* \"#utility.yul\":31549:32260   */\n    tag_721:\n      swap1\n      jump\t// out\n        /* \"#utility.yul\":32266:32388   */\n    tag_369:\n        /* \"#utility.yul\":32339:32363   */\n      tag_729\n        /* \"#utility.yul\":32357:32362   */\n      dup2\n        /* \"#utility.yul\":32339:32363   */\n      tag_419\n      jump\t// in\n    tag_729:\n        /* \"#utility.yul\":32332:32337   */\n      dup2\n        /* \"#utility.yul\":32329:32364   */\n      eq\n        /* \"#utility.yul\":32319:32382   */\n      tag_730\n      jumpi\n        /* \"#utility.yul\":32378:32379   */\n      0x00\n        /* \"#utility.yul\":32375:32376   */\n      dup1\n        /* \"#utility.yul\":32368:32380   */\n      revert\n        /* \"#utility.yul\":32319:32382   */\n    tag_730:\n        /* \"#utility.yul\":32266:32388   */\n      pop\n      jump\t// out\n        /* \"#utility.yul\":32394:32532   */\n    tag_373:\n        /* \"#utility.yul\":32475:32507   */\n      tag_732\n        /* \"#utility.yul\":32501:32506   */\n      dup2\n        /* \"#utility.yul\":32475:32507   */\n      tag_415\n      jump\t// in\n    tag_732:\n        /* \"#utility.yul\":32468:32473   */\n      dup2\n        /* \"#utility.yul\":32465:32508   */\n      eq\n        /* \"#utility.yul\":32455:32526   */\n      tag_733\n      jumpi\n        /* \"#utility.yul\":32522:32523   */\n      0x00\n        /* \"#utility.yul\":32519:32520   */\n      dup1\n        /* \"#utility.yul\":32512:32524   */\n      revert\n        /* \"#utility.yul\":32455:32526   */\n    tag_733:\n        /* \"#utility.yul\":32394:32532   */\n      pop\n      jump\t// out\n        /* \"#utility.yul\":32538:32658   */\n    tag_377:\n        /* \"#utility.yul\":32610:32633   */\n      tag_735\n        /* \"#utility.yul\":32627:32632   */\n      dup2\n        /* \"#utility.yul\":32610:32633   */\n      tag_657\n      jump\t// in\n    tag_735:\n        /* \"#utility.yul\":32603:32608   */\n      dup2\n        /* \"#utility.yul\":32600:32634   */\n      eq\n        /* \"#utility.yul\":32590:32652   */\n      tag_736\n      jumpi\n        /* \"#utility.yul\":32648:32649   */\n      0x00\n        /* \"#utility.yul\":32645:32646   */\n      dup1\n        /* \"#utility.yul\":32638:32650   */\n      revert\n        /* \"#utility.yul\":32590:32652   */\n    tag_736:\n        /* \"#utility.yul\":32538:32658   */\n      pop\n      jump\t// out\n        /* \"#utility.yul\":32664:32786   */\n    tag_381:\n        /* \"#utility.yul\":32737:32761   */\n      tag_738\n        /* \"#utility.yul\":32755:32760   */\n      dup2\n        /* \"#utility.yul\":32737:32761   */\n      tag_551\n      jump\t// in\n    tag_738:\n        /* \"#utility.yul\":32730:32735   */\n      dup2\n        /* \"#utility.yul\":32727:32762   */\n      eq\n        /* \"#utility.yul\":32717:32780   */\n      tag_739\n      jumpi\n        /* \"#utility.yul\":32776:32777   */\n      0x00\n        /* \"#utility.yul\":32773:32774   */\n      dup1\n        /* \"#utility.yul\":32766:32778   */\n      revert\n        /* \"#utility.yul\":32717:32780   */\n    tag_739:\n        /* \"#utility.yul\":32664:32786   */\n      pop\n      jump\t// out\n\n    auxdata: 0xa2646970667358221220230a1e84f36e3fdce24a0fc98b016b98173236bdacb0d6f040a74fd6348b6be964736f6c63430008070033\n}\n",
				"bytecode": {
					"linkReferences": {},
					"object": "608060405260405180602001604052806000815250600290805190602001906200002b929190620001e8565b50604051806102800160405280600060ff168152602001600160ff168152602001600160ff168152602001600260ff168152602001600260ff168152602001600260ff168152602001600260ff168152602001600260ff168152602001600260ff168152602001600260ff168152602001600260ff168152602001600260ff168152602001600260ff168152602001600260ff168152602001600260ff168152602001600260ff168152602001600260ff168152602001600260ff168152602001600260ff168152602001600260ff1681525060039060146200011092919062000279565b506001600c60006101000a81548160ff0219169083151502179055503480156200013957600080fd5b50604051620032843803806200328483398181016040528101906200015f9190620003b7565b80600d908051906020019062000177929190620001e8565b5033600c60016101000a81548173ffffffffffffffffffffffffffffffffffffffff021916908373ffffffffffffffffffffffffffffffffffffffff16021790555060006004819055506001600581905550600060078190555060006008819055506000600981905550506200058c565b828054620001f6906200049d565b90600052602060002090601f0160209004810192826200021a576000855562000266565b82601f106200023557805160ff191683800117855562000266565b8280016001018555821562000266579182015b828111156200026557825182559160200191906001019062000248565b5b5090506200027591906200031a565b5090565b826014601f01602090048101928215620003075791602002820160005b83821115620002d657835183826101000a81548160ff021916908360ff160217905550926020019260010160208160000104928301926001030262000296565b8015620003055782816101000a81549060ff0219169055600101602081600001049283019260010302620002d6565b505b5090506200031691906200031a565b5090565b5b80821115620003355760008160009055506001016200031b565b5090565b6000620003506200034a8462000431565b62000408565b9050828152602081018484840111156200036f576200036e6200056c565b5b6200037c84828562000467565b509392505050565b600082601f8301126200039c576200039b62000567565b5b8151620003ae84826020860162000339565b91505092915050565b600060208284031215620003d057620003cf62000576565b5b600082015167ffffffffffffffff811115620003f157620003f062000571565b5b620003ff8482850162000384565b91505092915050565b60006200041462000427565b9050620004228282620004d3565b919050565b6000604051905090565b600067ffffffffffffffff8211156200044f576200044e62000538565b5b6200045a826200057b565b9050602081019050919050565b60005b83811015620004875780820151818401526020810190506200046a565b8381111562000497576000848401525b50505050565b60006002820490506001821680620004b657607f821691505b60208210811415620004cd57620004cc62000509565b5b50919050565b620004de826200057b565b810181811067ffffffffffffffff821117156200050057620004ff62000538565b5b80604052505050565b7f4e487b7100000000000000000000000000000000000000000000000000000000600052602260045260246000fd5b7f4e487b7100000000000000000000000000000000000000000000000000000000600052604160045260246000fd5b600080fd5b600080fd5b600080fd5b600080fd5b6000601f19601f8301169050919050565b612ce8806200059c6000396000f3fe6080604052600436106100c25760003560e01c806359ba31241161007f578063aa90c72611610059578063aa90c72614610242578063b4a99a4e14610259578063eddd0d9c14610284578063fd6c3b1b146102ad576100c2565b806359ba3124146101b957806360daa851146101ea5780637a5caab314610217576100c2565b80630390c11c146100c75780630a67d2c7146100f25780631309a5631461010e578063154602591461013957806327a8a072146101505780633b6680591461018e575b600080fd5b3480156100d357600080fd5b506100dc6102ea565b6040516100e99190612425565b60405180910390f35b61010c60048036038101906101079190611c5c565b61038b565b005b34801561011a57600080fd5b506101236104b5565b6040516101309190612288565b60405180910390f35b34801561014557600080fd5b5061014e6104c8565b005b34801561015c57600080fd5b5061017760048036038101906101729190611c89565b6105d2565b604051610185929190612251565b60405180910390f35b34801561019a57600080fd5b506101a3610786565b6040516101b09190612425565b60405180910390f35b6101d360048036038101906101ce9190611c89565b610825565b6040516101e1929190612251565b60405180910390f35b3480156101f657600080fd5b506101ff6109dd565b60405161020e93929190612469565b60405180910390f35b34801561022357600080fd5b5061022c610ae3565b6040516102399190612425565b60405180910390f35b34801561024e57600080fd5b50610257610bda565b005b34801561026557600080fd5b5061026e610ce4565b60405161027b91906121ba565b60405180910390f35b34801561029057600080fd5b506102ab60048036038101906102a69190611cf6565b610d0a565b005b3480156102b957600080fd5b506102d460048036038101906102cf9190611c2f565b610e01565b6040516102e1919061222f565b60405180910390f35b6000600c60019054906101000a900473ffffffffffffffffffffffffffffffffffffffff1673ffffffffffffffffffffffffffffffffffffffff1661032d610ef1565b73ffffffffffffffffffffffffffffffffffffffff1614610383576040517f08c379a000000000000000000000000000000000000000000000000000000000815260040161037a90612385565b60405180910390fd5b600454905090565b600c60019054906101000a900473ffffffffffffffffffffffffffffffffffffffff1673ffffffffffffffffffffffffffffffffffffffff166103cc610ef1565b73ffffffffffffffffffffffffffffffffffffffff1614610422576040517f08c379a000000000000000000000000000000000000000000000000000000000815260040161041990612385565b60405180910390fd5b60004790506000811161046a576040517f08c379a0000000000000000000000000000000000000000000000000000000008152600401610461906123e5565b60405180910390fd5b8173ffffffffffffffffffffffffffffffffffffffff166108fc829081150290604051600060405180830381858888f193505050501580156104b0573d6000803e3d6000fd5b505050565b600c60009054906101000a900460ff1681565b600c60019054906101000a900473ffffffffffffffffffffffffffffffffffffffff1673ffffffffffffffffffffffffffffffffffffffff16610509610ef1565b73ffffffffffffffffffffffffffffffffffffffff161461055f576040517f08c379a000000000000000000000000000000000000000000000000000000000815260040161055690612385565b60405180910390fd5b60011515600c60009054906101000a900460ff161515146105b5576040517f08c379a00000000000000000000000000000000000000000000000000000000081526004016105ac90612325565b60405180910390fd5b6000600c60006101000a81548160ff021916908315150217905550565b606080600c60019054906101000a900473ffffffffffffffffffffffffffffffffffffffff1673ffffffffffffffffffffffffffffffffffffffff16610616610ef1565b73ffffffffffffffffffffffffffffffffffffffff161461066c576040517f08c379a000000000000000000000000000000000000000000000000000000000815260040161066390612385565b60405180910390fd5b60001515600c60009054906101000a900460ff161515146106c2576040517f08c379a00000000000000000000000000000000000000000000000000000000081526004016106b9906123a5565b60405180910390fd5b6004831080156106d25750600083115b610711576040517f08c379a000000000000000000000000000000000000000000000000000000000815260040161070890612365565b60405180910390fd5b60608060005b858110156107765761072887610ef9565b84838151811061073b5761073a612860565b5b6020026020010184848151811061075557610754612860565b5b602002602001018290528281525050508061076f9061272b565b9050610717565b5081819350935050509250929050565b6000600c60019054906101000a900473ffffffffffffffffffffffffffffffffffffffff1673ffffffffffffffffffffffffffffffffffffffff166107c9610ef1565b73ffffffffffffffffffffffffffffffffffffffff161461081f576040517f08c379a000000000000000000000000000000000000000000000000000000000815260040161081690612385565b60405180910390fd5b47905090565b60608060001515600c60009054906101000a900460ff1615151461087e576040517f08c379a0000000000000000000000000000000000000000000000000000000008152600401610875906123a5565b60405180910390fd5b6103e8600454106108c4576040517f08c379a00000000000000000000000000000000000000000000000000000000081526004016108bb906123c5565b60405180910390fd5b6006543414610908576040517f08c379a00000000000000000000000000000000000000000000000000000000081526004016108ff90612305565b60405180910390fd5b6004831080156109185750600083115b610957576040517f08c379a000000000000000000000000000000000000000000000000000000000815260040161094e90612365565b60405180910390fd5b60608060005b858110156109bc5761096e87610ef9565b84838151811061098157610980612860565b5b6020026020010184848151811061099b5761099a612860565b5b60200260200101829052828152505050806109b59061272b565b905061095d565b506109ce6109c8610ef1565b346111a8565b81819350935050509250929050565b6000806000600c60019054906101000a900473ffffffffffffffffffffffffffffffffffffffff1673ffffffffffffffffffffffffffffffffffffffff16610a23610ef1565b73ffffffffffffffffffffffffffffffffffffffff1614610a79576040517f08c379a0000000000000000000000000000000000000000000000000000000008152600401610a7090612385565b60405180910390fd5b60001515600c60009054906101000a900460ff16151514610acf576040517f08c379a0000000000000000000000000000000000000000000000000000000008152600401610ac6906123a5565b60405180910390fd5b600754600854600954925092509250909192565b6000600c60019054906101000a900473ffffffffffffffffffffffffffffffffffffffff1673ffffffffffffffffffffffffffffffffffffffff16610b26610ef1565b73ffffffffffffffffffffffffffffffffffffffff1614610b7c576040517f08c379a0000000000000000000000000000000000000000000000000000000008152600401610b7390612385565b60405180910390fd5b60001515600c60009054906101000a900460ff16151514610bd2576040517f08c379a0000000000000000000000000000000000000000000000000000000008152600401610bc9906123a5565b60405180910390fd5b600654905090565b600c60019054906101000a900473ffffffffffffffffffffffffffffffffffffffff1673ffffffffffffffffffffffffffffffffffffffff16610c1b610ef1565b73ffffffffffffffffffffffffffffffffffffffff1614610c71576040517f08c379a0000000000000000000000000000000000000000000000000000000008152600401610c6890612385565b60405180910390fd5b60001515600c60009054906101000a900460ff16151514610cc7576040517f08c379a0000000000000000000000000000000000000000000000000000000008152600401610cbe90612345565b60405180910390fd5b6001600c60006101000a81548160ff021916908315150217905550565b600c60019054906101000a900473ffffffffffffffffffffffffffffffffffffffff1681565b600c60019054906101000a900473ffffffffffffffffffffffffffffffffffffffff1673ffffffffffffffffffffffffffffffffffffffff16610d4b610ef1565b73ffffffffffffffffffffffffffffffffffffffff1614610da1576040517f08c379a0000000000000000000000000000000000000000000000000000000008152600401610d9890612385565b60405180910390fd5b60001515600c60009054906101000a900460ff16151514610df7576040517f08c379a0000000000000000000000000000000000000000000000000000000008152600401610dee906123a5565b60405180910390fd5b8060068190555050565b606060001515600c60009054906101000a900460ff16151514610e59576040517f08c379a0000000000000000000000000000000000000000000000000000000008152600401610e50906123a5565b60405180910390fd5b600a60008373ffffffffffffffffffffffffffffffffffffffff1673ffffffffffffffffffffffffffffffffffffffff168152602001908152602001600020600001805480602002602001604051908101604052809291908181526020018280548015610ee557602002820191906000526020600020905b815481526020019060010190808311610ed1575b50505050509050919050565b600033905090565b60006060600c60019054906101000a900473ffffffffffffffffffffffffffffffffffffffff1673ffffffffffffffffffffffffffffffffffffffff16610f3e610ef1565b73ffffffffffffffffffffffffffffffffffffffff1614610f94576040517f08c379a0000000000000000000000000000000000000000000000000000000008152600401610f8b90612385565b60405180910390fd5b60001515600c60009054906101000a900460ff16151514610fea576040517f08c379a0000000000000000000000000000000000000000000000000000000008152600401610fe1906123a5565b60405180910390fd5b6000610ff4611202565b905061108e84826005546002805461100b906126c8565b80601f0160208091040260200160405190810160405280929190818152602001828054611037906126c8565b80156110845780601f1061105957610100808354040283529160200191611084565b820191906000526020600020905b81548152906001019060200180831161106757829003601f168201915b50505050506114f4565b600460008154809291906110a19061272b565b9190505550600a60008573ffffffffffffffffffffffffffffffffffffffff1673ffffffffffffffffffffffffffffffffffffffff16815260200190815260200160002060000181908060018154018082558091505060019003906000526020600020016000909190919091505580600280805461111e906126c8565b80601f016020809104026020016040519081016040528092919081815260200182805461114a906126c8565b80156111975780601f1061116c57610100808354040283529160200191611197565b820191906000526020600020905b81548152906001019060200180831161117a57829003601f168201915b505050505090509250925050915091565b80600b60008473ffffffffffffffffffffffffffffffffffffffff1673ffffffffffffffffffffffffffffffffffffffff16815260200190815260200160002060008282546111f79190612554565b925050819055505050565b6000801515600c60009054906101000a900460ff16151514611259576040517f08c379a0000000000000000000000000000000000000000000000000000000008152600401611250906123a5565b60405180910390fd5b600061126361168a565b905060006003826014811061127b5761127a612860565b5b602091828204019190069054906101000a900460ff1660ff1690506000811480156112a857506032600754105b1561130f57600760008154809291906112c09061272b565b91905055506112d06007546116ce565b6040516020016112e09190612128565b60405160208183030381529060405260029080519060200190611304929190611aab565b5080925050506114f1565b6001811115801561132257506064600854105b15611389576008600081548092919061133a9061272b565b919050555061134a6008546116ce565b60405160200161135a919061214a565b6040516020818303038152906040526002908051906020019061137e929190611aab565b5080925050506114f1565b6002811115801561139e575061035260095411155b1561141e57600960008154809291906113b69061272b565b91905055506113c66009546116ce565b6040516020016113d6919061216c565b604051602081830303815290604052600290805190602001906113fa929190611aab565b6002908054611408906126c8565b611413929190611b31565b5080925050506114f1565b6064600854101561148f5760019050600860008154809291906114409061272b565b91905055506114506008546116ce565b604051602001611460919061214a565b60405160208183030381529060405260029080519060200190611484929190611aab565b5080925050506114f1565b60009050600760008154809291906114a69061272b565b91905055506114b66007546116ce565b6040516020016114c69190612128565b604051602081830303815290604052600290805190602001906114ea929190611aab565b5080925050505b90565b600073ffffffffffffffffffffffffffffffffffffffff168473ffffffffffffffffffffffffffffffffffffffff161415611564576040517f08c379a000000000000000000000000000000000000000000000000000000000815260040161155b90612405565b60405180910390fd5b600061156e610ef1565b905061158f816000876115808861182f565b6115898861182f565b876118a9565b8260008086815260200190815260200160002060008773ffffffffffffffffffffffffffffffffffffffff1673ffffffffffffffffffffffffffffffffffffffff16815260200190815260200160002060008282546115ee9190612554565b925050819055508473ffffffffffffffffffffffffffffffffffffffff16600073ffffffffffffffffffffffffffffffffffffffff168273ffffffffffffffffffffffffffffffffffffffff167fc3d58168c5ae7397731d063d5bbf3d657854427343f4c083240f7aacaa2d0f62878760405161166c929190612440565b60405180910390a4611683816000878787876118b1565b5050505050565b600080601442336040516020016116a292919061218e565b6040516020818303038152906040528051906020012060001c6116c591906127a2565b90508091505090565b60606000821415611716576040518060400160405280600181526020017f3000000000000000000000000000000000000000000000000000000000000000815250905061182a565b600082905060005b600082146117485780806117319061272b565b915050600a8261174191906125aa565b915061171e565b60008167ffffffffffffffff8111156117645761176361288f565b5b6040519080825280601f01601f1916602001820160405280156117965781602001600182028036833780820191505090505b5090505b60008514611823576001826117af91906125db565b9150600a856117be91906127a2565b60306117ca9190612554565b60f81b8183815181106117e0576117df612860565b5b60200101907effffffffffffffffffffffffffffffffffffffffffffffffffffffffffffff1916908160001a905350600a8561181c91906125aa565b945061179a565b8093505050505b919050565b60606000600167ffffffffffffffff81111561184e5761184d61288f565b5b60405190808252806020026020018201604052801561187c5781602001602082028036833780820191505090505b509050828160008151811061189457611893612860565b5b60200260200101818152505080915050919050565b505050505050565b6118d08473ffffffffffffffffffffffffffffffffffffffff16611a98565b15611a90578373ffffffffffffffffffffffffffffffffffffffff1663ae89a24887878686866040518663ffffffff1660e01b81526004016119169594939291906121d5565b602060405180830381600087803b15801561193057600080fd5b505af192505050801561196157506040513d601f19601f8201168201806040525081019061195e9190611cc9565b60015b611a075761196d6128be565b806308c379a014156119ca5750611982612bc0565b8061198d57506119cc565b806040517f08c379a00000000000000000000000000000000000000000000000000000000081526004016119c191906122a3565b60405180910390fd5b505b6040517f08c379a00000000000000000000000000000000000000000000000000000000081526004016119fe906122c5565b60405180910390fd5b63ae89a24860e01b7bffffffffffffffffffffffffffffffffffffffffffffffffffffffff1916817bffffffffffffffffffffffffffffffffffffffffffffffffffffffff191614611a8e576040517f08c379a0000000000000000000000000000000000000000000000000000000008152600401611a85906122e5565b60405180910390fd5b505b505050505050565b600080823b905060008111915050919050565b828054611ab7906126c8565b90600052602060002090601f016020900481019282611ad95760008555611b20565b82601f10611af257805160ff1916838001178555611b20565b82800160010185558215611b20579182015b82811115611b1f578251825591602001919060010190611b04565b5b509050611b2d9190611bbe565b5090565b828054611b3d906126c8565b90600052602060002090601f016020900481019282611b5f5760008555611bad565b82601f10611b705780548555611bad565b82800160010185558215611bad57600052602060002091601f016020900482015b82811115611bac578254825591600101919060010190611b91565b5b509050611bba9190611bbe565b5090565b5b80821115611bd7576000816000905550600101611bbf565b5090565b600081359050611bea81612c56565b92915050565b600081359050611bff81612c6d565b92915050565b600081519050611c1481612c84565b92915050565b600081359050611c2981612c9b565b92915050565b600060208284031215611c4557611c446128e0565b5b6000611c5384828501611bdb565b91505092915050565b600060208284031215611c7257611c716128e0565b5b6000611c8084828501611bf0565b91505092915050565b60008060408385031215611ca057611c9f6128e0565b5b6000611cae85828601611bdb565b9250506020611cbf85828601611c1a565b9150509250929050565b600060208284031215611cdf57611cde6128e0565b5b6000611ced84828501611c05565b91505092915050565b600060208284031215611d0c57611d0b6128e0565b5b6000611d1a84828501611c1a565b91505092915050565b6000611d2f8383611e66565b905092915050565b6000611d4383836120f3565b60208301905092915050565b611d5881612621565b82525050565b611d678161260f565b82525050565b611d7e611d798261260f565b612774565b82525050565b6000611d8f826124ca565b611d998185612505565b935083602082028501611dab856124aa565b8060005b85811015611de75784840389528151611dc88582611d23565b9450611dd3836124eb565b925060208a01995050600181019050611daf565b50829750879550505050505092915050565b6000611e04826124d5565b611e0e8185612516565b9350611e19836124ba565b8060005b83811015611e4a578151611e318882611d37565b9750611e3c836124f8565b925050600181019050611e1d565b5085935050505092915050565b611e6081612633565b82525050565b6000611e71826124e0565b611e7b8185612527565b9350611e8b818560208601612695565b611e94816128e5565b840191505092915050565b6000611eaa826124e0565b611eb48185612538565b9350611ec4818560208601612695565b611ecd816128e5565b840191505092915050565b6000611ee3826124e0565b611eed8185612549565b9350611efd818560208601612695565b80840191505092915050565b6000611f16603483612538565b9150611f2182612910565b604082019050919050565b6000611f39602883612538565b9150611f448261295f565b604082019050919050565b6000611f5c600883612549565b9150611f67826129ae565b600882019050919050565b6000611f7f600583612549565b9150611f8a826129d7565b600582019050919050565b6000611fa2601283612538565b9150611fad82612a00565b602082019050919050565b6000611fc5601b83612538565b9150611fd082612a29565b602082019050919050565b6000611fe8601b83612538565b9150611ff382612a52565b602082019050919050565b600061200b601583612538565b915061201682612a7b565b602082019050919050565b600061202e601c83612538565b915061203982612aa4565b602082019050919050565b6000612051601b83612538565b915061205c82612acd565b602082019050919050565b6000612074601983612538565b915061207f82612af6565b602082019050919050565b6000612097600783612549565b91506120a282612b1f565b600782019050919050565b60006120ba601d83612538565b91506120c582612b48565b602082019050919050565b60006120dd602183612538565b91506120e882612b71565b604082019050919050565b6120fc8161268b565b82525050565b61210b8161268b565b82525050565b61212261211d8261268b565b612798565b82525050565b600061213382611f4f565b915061213f8284611ed8565b915081905092915050565b600061215582611f72565b91506121618284611ed8565b915081905092915050565b60006121778261208a565b91506121838284611ed8565b915081905092915050565b600061219a8285612111565b6020820191506121aa8284611d6d565b6014820191508190509392505050565b60006020820190506121cf6000830184611d4f565b92915050565b600060a0820190506121ea6000830188611d5e565b6121f76020830187611d5e565b6122046040830186612102565b6122116060830185612102565b81810360808301526122238184611e9f565b90509695505050505050565b600060208201905081810360008301526122498184611df9565b905092915050565b6000604082019050818103600083015261226b8185611df9565b9050818103602083015261227f8184611d84565b90509392505050565b600060208201905061229d6000830184611e57565b92915050565b600060208201905081810360008301526122bd8184611e9f565b905092915050565b600060208201905081810360008301526122de81611f09565b9050919050565b600060208201905081810360008301526122fe81611f2c565b9050919050565b6000602082019050818103600083015261231e81611f95565b9050919050565b6000602082019050818103600083015261233e81611fb8565b9050919050565b6000602082019050818103600083015261235e81611fdb565b9050919050565b6000602082019050818103600083015261237e81611ffe565b9050919050565b6000602082019050818103600083015261239e81612021565b9050919050565b600060208201905081810360008301526123be81612044565b9050919050565b600060208201905081810360008301526123de81612067565b9050919050565b600060208201905081810360008301526123fe816120ad565b9050919050565b6000602082019050818103600083015261241e816120d0565b9050919050565b600060208201905061243a6000830184612102565b92915050565b60006040820190506124556000830185612102565b6124626020830184612102565b9392505050565b600060608201905061247e6000830186612102565b61248b6020830185612102565b6124986040830184612102565b949350505050565b6000604051905090565b6000819050602082019050919050565b6000819050602082019050919050565b600081519050919050565b600081519050919050565b600081519050919050565b6000602082019050919050565b6000602082019050919050565b600082825260208201905092915050565b600082825260208201905092915050565b600082825260208201905092915050565b600082825260208201905092915050565b600081905092915050565b600061255f8261268b565b915061256a8361268b565b9250827fffffffffffffffffffffffffffffffffffffffffffffffffffffffffffffffff0382111561259f5761259e6127d3565b5b828201905092915050565b60006125b58261268b565b91506125c08361268b565b9250826125d0576125cf612802565b5b828204905092915050565b60006125e68261268b565b91506125f18361268b565b925082821015612604576126036127d3565b5b828203905092915050565b600061261a8261266b565b9050919050565b600061262c8261266b565b9050919050565b60008115159050919050565b60007fffffffff0000000000000000000000000000000000000000000000000000000082169050919050565b600073ffffffffffffffffffffffffffffffffffffffff82169050919050565b6000819050919050565b60005b838110156126b3578082015181840152602081019050612698565b838111156126c2576000848401525b50505050565b600060028204905060018216806126e057607f821691505b602082108114156126f4576126f3612831565b5b50919050565b612703826128e5565b810181811067ffffffffffffffff821117156127225761272161288f565b5b80604052505050565b60006127368261268b565b91507fffffffffffffffffffffffffffffffffffffffffffffffffffffffffffffffff821415612769576127686127d3565b5b600182019050919050565b600061277f82612786565b9050919050565b6000612791826128f6565b9050919050565b6000819050919050565b60006127ad8261268b565b91506127b88361268b565b9250826127c8576127c7612802565b5b828206905092915050565b7f4e487b7100000000000000000000000000000000000000000000000000000000600052601160045260246000fd5b7f4e487b7100000000000000000000000000000000000000000000000000000000600052601260045260246000fd5b7f4e487b7100000000000000000000000000000000000000000000000000000000600052602260045260246000fd5b7f4e487b7100000000000000000000000000000000000000000000000000000000600052603260045260246000fd5b7f4e487b7100000000000000000000000000000000000000000000000000000000600052604160045260246000fd5b600060033d11156128dd5760046000803e6128da600051612903565b90505b90565b600080fd5b6000601f19601f8301169050919050565b60008160601b9050919050565b60008160e01c9050919050565b7f455243313135353a207472616e7366657220746f206e6f6e204552433131353560008201527f526563656976657220696d706c656d656e746572000000000000000000000000602082015250565b7f455243313135353a204552433131353552656365697665722072656a6563746560008201527f6420746f6b656e73000000000000000000000000000000000000000000000000602082015250565b7f4469616d6f6e645f000000000000000000000000000000000000000000000000600082015250565b7f476f6c645f000000000000000000000000000000000000000000000000000000600082015250565b7f4e6f7420456e6f7567682042616c616e63650000000000000000000000000000600082015250565b7f44726f707369746520697320616c72656164792052756e6e696e670000000000600082015250565b7f44726f707369746520697320616c72656164792053746f707065640000000000600082015250565b7f596f752063616e206d696e7420312d33204e4654730000000000000000000000600082015250565b7f4f6e6c79204e46542d4553204f776e65722063616e2041636365737300000000600082015250565b7f44726f7073697465206973206e6f74204f70656e6564205965742e0000000000600082015250565b7f4d6178204d696e74696e67204c696d6974207265616368656400000000000000600082015250565b7f53696c7665725f00000000000000000000000000000000000000000000000000600082015250565b7f4572726f7221204e6f2042616c616e636520746f207769746864726177000000600082015250565b7f455243313135353a206d696e7420746f20746865207a65726f2061646472657360008201527f7300000000000000000000000000000000000000000000000000000000000000602082015250565b600060443d1015612bd057612c53565b612bd86124a0565b60043d036004823e80513d602482011167ffffffffffffffff82111715612c00575050612c53565b808201805167ffffffffffffffff811115612c1e5750505050612c53565b80602083010160043d038501811115612c3b575050505050612c53565b612c4a826020018501866126fa565b82955050505050505b90565b612c5f8161260f565b8114612c6a57600080fd5b50565b612c7681612621565b8114612c8157600080fd5b50565b612c8d8161263f565b8114612c9857600080fd5b50565b612ca48161268b565b8114612caf57600080fd5b5056fea2646970667358221220230a1e84f36e3fdce24a0fc98b016b98173236bdacb0d6f040a74fd6348b6be964736f6c63430008070033",
					"opcodes": "PUSH1 0x80 PUSH1 0x40 MSTORE PUSH1 0x40 MLOAD DUP1 PUSH1 0x20 ADD PUSH1 0x40 MSTORE DUP1 PUSH1 0x0 DUP2 MSTORE POP PUSH1 0x2 SWAP1 DUP1 MLOAD SWAP1 PUSH1 0x20 ADD SWAP1 PUSH3 0x2B SWAP3 SWAP2 SWAP1 PUSH3 0x1E8 JUMP JUMPDEST POP PUSH1 0x40 MLOAD DUP1 PUSH2 0x280 ADD PUSH1 0x40 MSTORE DUP1 PUSH1 0x0 PUSH1 0xFF AND DUP2 MSTORE PUSH1 0x20 ADD PUSH1 0x1 PUSH1 0xFF AND DUP2 MSTORE PUSH1 0x20 ADD PUSH1 0x1 PUSH1 0xFF AND DUP2 MSTORE PUSH1 0x20 ADD PUSH1 0x2 PUSH1 0xFF AND DUP2 MSTORE PUSH1 0x20 ADD PUSH1 0x2 PUSH1 0xFF AND DUP2 MSTORE PUSH1 0x20 ADD PUSH1 0x2 PUSH1 0xFF AND DUP2 MSTORE PUSH1 0x20 ADD PUSH1 0x2 PUSH1 0xFF AND DUP2 MSTORE PUSH1 0x20 ADD PUSH1 0x2 PUSH1 0xFF AND DUP2 MSTORE PUSH1 0x20 ADD PUSH1 0x2 PUSH1 0xFF AND DUP2 MSTORE PUSH1 0x20 ADD PUSH1 0x2 PUSH1 0xFF AND DUP2 MSTORE PUSH1 0x20 ADD PUSH1 0x2 PUSH1 0xFF AND DUP2 MSTORE PUSH1 0x20 ADD PUSH1 0x2 PUSH1 0xFF AND DUP2 MSTORE PUSH1 0x20 ADD PUSH1 0x2 PUSH1 0xFF AND DUP2 MSTORE PUSH1 0x20 ADD PUSH1 0x2 PUSH1 0xFF AND DUP2 MSTORE PUSH1 0x20 ADD PUSH1 0x2 PUSH1 0xFF AND DUP2 MSTORE PUSH1 0x20 ADD PUSH1 0x2 PUSH1 0xFF AND DUP2 MSTORE PUSH1 0x20 ADD PUSH1 0x2 PUSH1 0xFF AND DUP2 MSTORE PUSH1 0x20 ADD PUSH1 0x2 PUSH1 0xFF AND DUP2 MSTORE PUSH1 0x20 ADD PUSH1 0x2 PUSH1 0xFF AND DUP2 MSTORE PUSH1 0x20 ADD PUSH1 0x2 PUSH1 0xFF AND DUP2 MSTORE POP PUSH1 0x3 SWAP1 PUSH1 0x14 PUSH3 0x110 SWAP3 SWAP2 SWAP1 PUSH3 0x279 JUMP JUMPDEST POP PUSH1 0x1 PUSH1 0xC PUSH1 0x0 PUSH2 0x100 EXP DUP2 SLOAD DUP2 PUSH1 0xFF MUL NOT AND SWAP1 DUP4 ISZERO ISZERO MUL OR SWAP1 SSTORE POP CALLVALUE DUP1 ISZERO PUSH3 0x139 JUMPI PUSH1 0x0 DUP1 REVERT JUMPDEST POP PUSH1 0x40 MLOAD PUSH3 0x3284 CODESIZE SUB DUP1 PUSH3 0x3284 DUP4 CODECOPY DUP2 DUP2 ADD PUSH1 0x40 MSTORE DUP2 ADD SWAP1 PUSH3 0x15F SWAP2 SWAP1 PUSH3 0x3B7 JUMP JUMPDEST DUP1 PUSH1 0xD SWAP1 DUP1 MLOAD SWAP1 PUSH1 0x20 ADD SWAP1 PUSH3 0x177 SWAP3 SWAP2 SWAP1 PUSH3 0x1E8 JUMP JUMPDEST POP CALLER PUSH1 0xC PUSH1 0x1 PUSH2 0x100 EXP DUP2 SLOAD DUP2 PUSH20 0xFFFFFFFFFFFFFFFFFFFFFFFFFFFFFFFFFFFFFFFF MUL NOT AND SWAP1 DUP4 PUSH20 0xFFFFFFFFFFFFFFFFFFFFFFFFFFFFFFFFFFFFFFFF AND MUL OR SWAP1 SSTORE POP PUSH1 0x0 PUSH1 0x4 DUP2 SWAP1 SSTORE POP PUSH1 0x1 PUSH1 0x5 DUP2 SWAP1 SSTORE POP PUSH1 0x0 PUSH1 0x7 DUP2 SWAP1 SSTORE POP PUSH1 0x0 PUSH1 0x8 DUP2 SWAP1 SSTORE POP PUSH1 0x0 PUSH1 0x9 DUP2 SWAP1 SSTORE POP POP PUSH3 0x58C JUMP JUMPDEST DUP3 DUP1 SLOAD PUSH3 0x1F6 SWAP1 PUSH3 0x49D JUMP JUMPDEST SWAP1 PUSH1 0x0 MSTORE PUSH1 0x20 PUSH1 0x0 KECCAK256 SWAP1 PUSH1 0x1F ADD PUSH1 0x20 SWAP1 DIV DUP2 ADD SWAP3 DUP3 PUSH3 0x21A JUMPI PUSH1 0x0 DUP6 SSTORE PUSH3 0x266 JUMP JUMPDEST DUP3 PUSH1 0x1F LT PUSH3 0x235 JUMPI DUP1 MLOAD PUSH1 0xFF NOT AND DUP4 DUP1 ADD OR DUP6 SSTORE PUSH3 0x266 JUMP JUMPDEST DUP3 DUP1 ADD PUSH1 0x1 ADD DUP6 SSTORE DUP3 ISZERO PUSH3 0x266 JUMPI SWAP2 DUP3 ADD JUMPDEST DUP3 DUP2 GT ISZERO PUSH3 0x265 JUMPI DUP3 MLOAD DUP3 SSTORE SWAP2 PUSH1 0x20 ADD SWAP2 SWAP1 PUSH1 0x1 ADD SWAP1 PUSH3 0x248 JUMP JUMPDEST JUMPDEST POP SWAP1 POP PUSH3 0x275 SWAP2 SWAP1 PUSH3 0x31A JUMP JUMPDEST POP SWAP1 JUMP JUMPDEST DUP3 PUSH1 0x14 PUSH1 0x1F ADD PUSH1 0x20 SWAP1 DIV DUP2 ADD SWAP3 DUP3 ISZERO PUSH3 0x307 JUMPI SWAP2 PUSH1 0x20 MUL DUP3 ADD PUSH1 0x0 JUMPDEST DUP4 DUP3 GT ISZERO PUSH3 0x2D6 JUMPI DUP4 MLOAD DUP4 DUP3 PUSH2 0x100 EXP DUP2 SLOAD DUP2 PUSH1 0xFF MUL NOT AND SWAP1 DUP4 PUSH1 0xFF AND MUL OR SWAP1 SSTORE POP SWAP3 PUSH1 0x20 ADD SWAP3 PUSH1 0x1 ADD PUSH1 0x20 DUP2 PUSH1 0x0 ADD DIV SWAP3 DUP4 ADD SWAP3 PUSH1 0x1 SUB MUL PUSH3 0x296 JUMP JUMPDEST DUP1 ISZERO PUSH3 0x305 JUMPI DUP3 DUP2 PUSH2 0x100 EXP DUP2 SLOAD SWAP1 PUSH1 0xFF MUL NOT AND SWAP1 SSTORE PUSH1 0x1 ADD PUSH1 0x20 DUP2 PUSH1 0x0 ADD DIV SWAP3 DUP4 ADD SWAP3 PUSH1 0x1 SUB MUL PUSH3 0x2D6 JUMP JUMPDEST POP JUMPDEST POP SWAP1 POP PUSH3 0x316 SWAP2 SWAP1 PUSH3 0x31A JUMP JUMPDEST POP SWAP1 JUMP JUMPDEST JUMPDEST DUP1 DUP3 GT ISZERO PUSH3 0x335 JUMPI PUSH1 0x0 DUP2 PUSH1 0x0 SWAP1 SSTORE POP PUSH1 0x1 ADD PUSH3 0x31B JUMP JUMPDEST POP SWAP1 JUMP JUMPDEST PUSH1 0x0 PUSH3 0x350 PUSH3 0x34A DUP5 PUSH3 0x431 JUMP JUMPDEST PUSH3 0x408 JUMP JUMPDEST SWAP1 POP DUP3 DUP2 MSTORE PUSH1 0x20 DUP2 ADD DUP5 DUP5 DUP5 ADD GT ISZERO PUSH3 0x36F JUMPI PUSH3 0x36E PUSH3 0x56C JUMP JUMPDEST JUMPDEST PUSH3 0x37C DUP5 DUP3 DUP6 PUSH3 0x467 JUMP JUMPDEST POP SWAP4 SWAP3 POP POP POP JUMP JUMPDEST PUSH1 0x0 DUP3 PUSH1 0x1F DUP4 ADD SLT PUSH3 0x39C JUMPI PUSH3 0x39B PUSH3 0x567 JUMP JUMPDEST JUMPDEST DUP2 MLOAD PUSH3 0x3AE DUP5 DUP3 PUSH1 0x20 DUP7 ADD PUSH3 0x339 JUMP JUMPDEST SWAP2 POP POP SWAP3 SWAP2 POP POP JUMP JUMPDEST PUSH1 0x0 PUSH1 0x20 DUP3 DUP5 SUB SLT ISZERO PUSH3 0x3D0 JUMPI PUSH3 0x3CF PUSH3 0x576 JUMP JUMPDEST JUMPDEST PUSH1 0x0 DUP3 ADD MLOAD PUSH8 0xFFFFFFFFFFFFFFFF DUP2 GT ISZERO PUSH3 0x3F1 JUMPI PUSH3 0x3F0 PUSH3 0x571 JUMP JUMPDEST JUMPDEST PUSH3 0x3FF DUP5 DUP3 DUP6 ADD PUSH3 0x384 JUMP JUMPDEST SWAP2 POP POP SWAP3 SWAP2 POP POP JUMP JUMPDEST PUSH1 0x0 PUSH3 0x414 PUSH3 0x427 JUMP JUMPDEST SWAP1 POP PUSH3 0x422 DUP3 DUP3 PUSH3 0x4D3 JUMP JUMPDEST SWAP2 SWAP1 POP JUMP JUMPDEST PUSH1 0x0 PUSH1 0x40 MLOAD SWAP1 POP SWAP1 JUMP JUMPDEST PUSH1 0x0 PUSH8 0xFFFFFFFFFFFFFFFF DUP3 GT ISZERO PUSH3 0x44F JUMPI PUSH3 0x44E PUSH3 0x538 JUMP JUMPDEST JUMPDEST PUSH3 0x45A DUP3 PUSH3 0x57B JUMP JUMPDEST SWAP1 POP PUSH1 0x20 DUP2 ADD SWAP1 POP SWAP2 SWAP1 POP JUMP JUMPDEST PUSH1 0x0 JUMPDEST DUP4 DUP2 LT ISZERO PUSH3 0x487 JUMPI DUP1 DUP3 ADD MLOAD DUP2 DUP5 ADD MSTORE PUSH1 0x20 DUP2 ADD SWAP1 POP PUSH3 0x46A JUMP JUMPDEST DUP4 DUP2 GT ISZERO PUSH3 0x497 JUMPI PUSH1 0x0 DUP5 DUP5 ADD MSTORE JUMPDEST POP POP POP POP JUMP JUMPDEST PUSH1 0x0 PUSH1 0x2 DUP3 DIV SWAP1 POP PUSH1 0x1 DUP3 AND DUP1 PUSH3 0x4B6 JUMPI PUSH1 0x7F DUP3 AND SWAP2 POP JUMPDEST PUSH1 0x20 DUP3 LT DUP2 EQ ISZERO PUSH3 0x4CD JUMPI PUSH3 0x4CC PUSH3 0x509 JUMP JUMPDEST JUMPDEST POP SWAP2 SWAP1 POP JUMP JUMPDEST PUSH3 0x4DE DUP3 PUSH3 0x57B JUMP JUMPDEST DUP2 ADD DUP2 DUP2 LT PUSH8 0xFFFFFFFFFFFFFFFF DUP3 GT OR ISZERO PUSH3 0x500 JUMPI PUSH3 0x4FF PUSH3 0x538 JUMP JUMPDEST JUMPDEST DUP1 PUSH1 0x40 MSTORE POP POP POP JUMP JUMPDEST PUSH32 0x4E487B7100000000000000000000000000000000000000000000000000000000 PUSH1 0x0 MSTORE PUSH1 0x22 PUSH1 0x4 MSTORE PUSH1 0x24 PUSH1 0x0 REVERT JUMPDEST PUSH32 0x4E487B7100000000000000000000000000000000000000000000000000000000 PUSH1 0x0 MSTORE PUSH1 0x41 PUSH1 0x4 MSTORE PUSH1 0x24 PUSH1 0x0 REVERT JUMPDEST PUSH1 0x0 DUP1 REVERT JUMPDEST PUSH1 0x0 DUP1 REVERT JUMPDEST PUSH1 0x0 DUP1 REVERT JUMPDEST PUSH1 0x0 DUP1 REVERT JUMPDEST PUSH1 0x0 PUSH1 0x1F NOT PUSH1 0x1F DUP4 ADD AND SWAP1 POP SWAP2 SWAP1 POP JUMP JUMPDEST PUSH2 0x2CE8 DUP1 PUSH3 0x59C PUSH1 0x0 CODECOPY PUSH1 0x0 RETURN INVALID PUSH1 0x80 PUSH1 0x40 MSTORE PUSH1 0x4 CALLDATASIZE LT PUSH2 0xC2 JUMPI PUSH1 0x0 CALLDATALOAD PUSH1 0xE0 SHR DUP1 PUSH4 0x59BA3124 GT PUSH2 0x7F JUMPI DUP1 PUSH4 0xAA90C726 GT PUSH2 0x59 JUMPI DUP1 PUSH4 0xAA90C726 EQ PUSH2 0x242 JUMPI DUP1 PUSH4 0xB4A99A4E EQ PUSH2 0x259 JUMPI DUP1 PUSH4 0xEDDD0D9C EQ PUSH2 0x284 JUMPI DUP1 PUSH4 0xFD6C3B1B EQ PUSH2 0x2AD JUMPI PUSH2 0xC2 JUMP JUMPDEST DUP1 PUSH4 0x59BA3124 EQ PUSH2 0x1B9 JUMPI DUP1 PUSH4 0x60DAA851 EQ PUSH2 0x1EA JUMPI DUP1 PUSH4 0x7A5CAAB3 EQ PUSH2 0x217 JUMPI PUSH2 0xC2 JUMP JUMPDEST DUP1 PUSH4 0x390C11C EQ PUSH2 0xC7 JUMPI DUP1 PUSH4 0xA67D2C7 EQ PUSH2 0xF2 JUMPI DUP1 PUSH4 0x1309A563 EQ PUSH2 0x10E JUMPI DUP1 PUSH4 0x15460259 EQ PUSH2 0x139 JUMPI DUP1 PUSH4 0x27A8A072 EQ PUSH2 0x150 JUMPI DUP1 PUSH4 0x3B668059 EQ PUSH2 0x18E JUMPI JUMPDEST PUSH1 0x0 DUP1 REVERT JUMPDEST CALLVALUE DUP1 ISZERO PUSH2 0xD3 JUMPI PUSH1 0x0 DUP1 REVERT JUMPDEST POP PUSH2 0xDC PUSH2 0x2EA JUMP JUMPDEST PUSH1 0x40 MLOAD PUSH2 0xE9 SWAP2 SWAP1 PUSH2 0x2425 JUMP JUMPDEST PUSH1 0x40 MLOAD DUP1 SWAP2 SUB SWAP1 RETURN JUMPDEST PUSH2 0x10C PUSH1 0x4 DUP1 CALLDATASIZE SUB DUP2 ADD SWAP1 PUSH2 0x107 SWAP2 SWAP1 PUSH2 0x1C5C JUMP JUMPDEST PUSH2 0x38B JUMP JUMPDEST STOP JUMPDEST CALLVALUE DUP1 ISZERO PUSH2 0x11A JUMPI PUSH1 0x0 DUP1 REVERT JUMPDEST POP PUSH2 0x123 PUSH2 0x4B5 JUMP JUMPDEST PUSH1 0x40 MLOAD PUSH2 0x130 SWAP2 SWAP1 PUSH2 0x2288 JUMP JUMPDEST PUSH1 0x40 MLOAD DUP1 SWAP2 SUB SWAP1 RETURN JUMPDEST CALLVALUE DUP1 ISZERO PUSH2 0x145 JUMPI PUSH1 0x0 DUP1 REVERT JUMPDEST POP PUSH2 0x14E PUSH2 0x4C8 JUMP JUMPDEST STOP JUMPDEST CALLVALUE DUP1 ISZERO PUSH2 0x15C JUMPI PUSH1 0x0 DUP1 REVERT JUMPDEST POP PUSH2 0x177 PUSH1 0x4 DUP1 CALLDATASIZE SUB DUP2 ADD SWAP1 PUSH2 0x172 SWAP2 SWAP1 PUSH2 0x1C89 JUMP JUMPDEST PUSH2 0x5D2 JUMP JUMPDEST PUSH1 0x40 MLOAD PUSH2 0x185 SWAP3 SWAP2 SWAP1 PUSH2 0x2251 JUMP JUMPDEST PUSH1 0x40 MLOAD DUP1 SWAP2 SUB SWAP1 RETURN JUMPDEST CALLVALUE DUP1 ISZERO PUSH2 0x19A JUMPI PUSH1 0x0 DUP1 REVERT JUMPDEST POP PUSH2 0x1A3 PUSH2 0x786 JUMP JUMPDEST PUSH1 0x40 MLOAD PUSH2 0x1B0 SWAP2 SWAP1 PUSH2 0x2425 JUMP JUMPDEST PUSH1 0x40 MLOAD DUP1 SWAP2 SUB SWAP1 RETURN JUMPDEST PUSH2 0x1D3 PUSH1 0x4 DUP1 CALLDATASIZE SUB DUP2 ADD SWAP1 PUSH2 0x1CE SWAP2 SWAP1 PUSH2 0x1C89 JUMP JUMPDEST PUSH2 0x825 JUMP JUMPDEST PUSH1 0x40 MLOAD PUSH2 0x1E1 SWAP3 SWAP2 SWAP1 PUSH2 0x2251 JUMP JUMPDEST PUSH1 0x40 MLOAD DUP1 SWAP2 SUB SWAP1 RETURN JUMPDEST CALLVALUE DUP1 ISZERO PUSH2 0x1F6 JUMPI PUSH1 0x0 DUP1 REVERT JUMPDEST POP PUSH2 0x1FF PUSH2 0x9DD JUMP JUMPDEST PUSH1 0x40 MLOAD PUSH2 0x20E SWAP4 SWAP3 SWAP2 SWAP1 PUSH2 0x2469 JUMP JUMPDEST PUSH1 0x40 MLOAD DUP1 SWAP2 SUB SWAP1 RETURN JUMPDEST CALLVALUE DUP1 ISZERO PUSH2 0x223 JUMPI PUSH1 0x0 DUP1 REVERT JUMPDEST POP PUSH2 0x22C PUSH2 0xAE3 JUMP JUMPDEST PUSH1 0x40 MLOAD PUSH2 0x239 SWAP2 SWAP1 PUSH2 0x2425 JUMP JUMPDEST PUSH1 0x40 MLOAD DUP1 SWAP2 SUB SWAP1 RETURN JUMPDEST CALLVALUE DUP1 ISZERO PUSH2 0x24E JUMPI PUSH1 0x0 DUP1 REVERT JUMPDEST POP PUSH2 0x257 PUSH2 0xBDA JUMP JUMPDEST STOP JUMPDEST CALLVALUE DUP1 ISZERO PUSH2 0x265 JUMPI PUSH1 0x0 DUP1 REVERT JUMPDEST POP PUSH2 0x26E PUSH2 0xCE4 JUMP JUMPDEST PUSH1 0x40 MLOAD PUSH2 0x27B SWAP2 SWAP1 PUSH2 0x21BA JUMP JUMPDEST PUSH1 0x40 MLOAD DUP1 SWAP2 SUB SWAP1 RETURN JUMPDEST CALLVALUE DUP1 ISZERO PUSH2 0x290 JUMPI PUSH1 0x0 DUP1 REVERT JUMPDEST POP PUSH2 0x2AB PUSH1 0x4 DUP1 CALLDATASIZE SUB DUP2 ADD SWAP1 PUSH2 0x2A6 SWAP2 SWAP1 PUSH2 0x1CF6 JUMP JUMPDEST PUSH2 0xD0A JUMP JUMPDEST STOP JUMPDEST CALLVALUE DUP1 ISZERO PUSH2 0x2B9 JUMPI PUSH1 0x0 DUP1 REVERT JUMPDEST POP PUSH2 0x2D4 PUSH1 0x4 DUP1 CALLDATASIZE SUB DUP2 ADD SWAP1 PUSH2 0x2CF SWAP2 SWAP1 PUSH2 0x1C2F JUMP JUMPDEST PUSH2 0xE01 JUMP JUMPDEST PUSH1 0x40 MLOAD PUSH2 0x2E1 SWAP2 SWAP1 PUSH2 0x222F JUMP JUMPDEST PUSH1 0x40 MLOAD DUP1 SWAP2 SUB SWAP1 RETURN JUMPDEST PUSH1 0x0 PUSH1 0xC PUSH1 0x1 SWAP1 SLOAD SWAP1 PUSH2 0x100 EXP SWAP1 DIV PUSH20 0xFFFFFFFFFFFFFFFFFFFFFFFFFFFFFFFFFFFFFFFF AND PUSH20 0xFFFFFFFFFFFFFFFFFFFFFFFFFFFFFFFFFFFFFFFF AND PUSH2 0x32D PUSH2 0xEF1 JUMP JUMPDEST PUSH20 0xFFFFFFFFFFFFFFFFFFFFFFFFFFFFFFFFFFFFFFFF AND EQ PUSH2 0x383 JUMPI PUSH1 0x40 MLOAD PUSH32 0x8C379A000000000000000000000000000000000000000000000000000000000 DUP2 MSTORE PUSH1 0x4 ADD PUSH2 0x37A SWAP1 PUSH2 0x2385 JUMP JUMPDEST PUSH1 0x40 MLOAD DUP1 SWAP2 SUB SWAP1 REVERT JUMPDEST PUSH1 0x4 SLOAD SWAP1 POP SWAP1 JUMP JUMPDEST PUSH1 0xC PUSH1 0x1 SWAP1 SLOAD SWAP1 PUSH2 0x100 EXP SWAP1 DIV PUSH20 0xFFFFFFFFFFFFFFFFFFFFFFFFFFFFFFFFFFFFFFFF AND PUSH20 0xFFFFFFFFFFFFFFFFFFFFFFFFFFFFFFFFFFFFFFFF AND PUSH2 0x3CC PUSH2 0xEF1 JUMP JUMPDEST PUSH20 0xFFFFFFFFFFFFFFFFFFFFFFFFFFFFFFFFFFFFFFFF AND EQ PUSH2 0x422 JUMPI PUSH1 0x40 MLOAD PUSH32 0x8C379A000000000000000000000000000000000000000000000000000000000 DUP2 MSTORE PUSH1 0x4 ADD PUSH2 0x419 SWAP1 PUSH2 0x2385 JUMP JUMPDEST PUSH1 0x40 MLOAD DUP1 SWAP2 SUB SWAP1 REVERT JUMPDEST PUSH1 0x0 SELFBALANCE SWAP1 POP PUSH1 0x0 DUP2 GT PUSH2 0x46A JUMPI PUSH1 0x40 MLOAD PUSH32 0x8C379A000000000000000000000000000000000000000000000000000000000 DUP2 MSTORE PUSH1 0x4 ADD PUSH2 0x461 SWAP1 PUSH2 0x23E5 JUMP JUMPDEST PUSH1 0x40 MLOAD DUP1 SWAP2 SUB SWAP1 REVERT JUMPDEST DUP2 PUSH20 0xFFFFFFFFFFFFFFFFFFFFFFFFFFFFFFFFFFFFFFFF AND PUSH2 0x8FC DUP3 SWAP1 DUP2 ISZERO MUL SWAP1 PUSH1 0x40 MLOAD PUSH1 0x0 PUSH1 0x40 MLOAD DUP1 DUP4 SUB DUP2 DUP6 DUP9 DUP9 CALL SWAP4 POP POP POP POP ISZERO DUP1 ISZERO PUSH2 0x4B0 JUMPI RETURNDATASIZE PUSH1 0x0 DUP1 RETURNDATACOPY RETURNDATASIZE PUSH1 0x0 REVERT JUMPDEST POP POP POP JUMP JUMPDEST PUSH1 0xC PUSH1 0x0 SWAP1 SLOAD SWAP1 PUSH2 0x100 EXP SWAP1 DIV PUSH1 0xFF AND DUP2 JUMP JUMPDEST PUSH1 0xC PUSH1 0x1 SWAP1 SLOAD SWAP1 PUSH2 0x100 EXP SWAP1 DIV PUSH20 0xFFFFFFFFFFFFFFFFFFFFFFFFFFFFFFFFFFFFFFFF AND PUSH20 0xFFFFFFFFFFFFFFFFFFFFFFFFFFFFFFFFFFFFFFFF AND PUSH2 0x509 PUSH2 0xEF1 JUMP JUMPDEST PUSH20 0xFFFFFFFFFFFFFFFFFFFFFFFFFFFFFFFFFFFFFFFF AND EQ PUSH2 0x55F JUMPI PUSH1 0x40 MLOAD PUSH32 0x8C379A000000000000000000000000000000000000000000000000000000000 DUP2 MSTORE PUSH1 0x4 ADD PUSH2 0x556 SWAP1 PUSH2 0x2385 JUMP JUMPDEST PUSH1 0x40 MLOAD DUP1 SWAP2 SUB SWAP1 REVERT JUMPDEST PUSH1 0x1 ISZERO ISZERO PUSH1 0xC PUSH1 0x0 SWAP1 SLOAD SWAP1 PUSH2 0x100 EXP SWAP1 DIV PUSH1 0xFF AND ISZERO ISZERO EQ PUSH2 0x5B5 JUMPI PUSH1 0x40 MLOAD PUSH32 0x8C379A000000000000000000000000000000000000000000000000000000000 DUP2 MSTORE PUSH1 0x4 ADD PUSH2 0x5AC SWAP1 PUSH2 0x2325 JUMP JUMPDEST PUSH1 0x40 MLOAD DUP1 SWAP2 SUB SWAP1 REVERT JUMPDEST PUSH1 0x0 PUSH1 0xC PUSH1 0x0 PUSH2 0x100 EXP DUP2 SLOAD DUP2 PUSH1 0xFF MUL NOT AND SWAP1 DUP4 ISZERO ISZERO MUL OR SWAP1 SSTORE POP JUMP JUMPDEST PUSH1 0x60 DUP1 PUSH1 0xC PUSH1 0x1 SWAP1 SLOAD SWAP1 PUSH2 0x100 EXP SWAP1 DIV PUSH20 0xFFFFFFFFFFFFFFFFFFFFFFFFFFFFFFFFFFFFFFFF AND PUSH20 0xFFFFFFFFFFFFFFFFFFFFFFFFFFFFFFFFFFFFFFFF AND PUSH2 0x616 PUSH2 0xEF1 JUMP JUMPDEST PUSH20 0xFFFFFFFFFFFFFFFFFFFFFFFFFFFFFFFFFFFFFFFF AND EQ PUSH2 0x66C JUMPI PUSH1 0x40 MLOAD PUSH32 0x8C379A000000000000000000000000000000000000000000000000000000000 DUP2 MSTORE PUSH1 0x4 ADD PUSH2 0x663 SWAP1 PUSH2 0x2385 JUMP JUMPDEST PUSH1 0x40 MLOAD DUP1 SWAP2 SUB SWAP1 REVERT JUMPDEST PUSH1 0x0 ISZERO ISZERO PUSH1 0xC PUSH1 0x0 SWAP1 SLOAD SWAP1 PUSH2 0x100 EXP SWAP1 DIV PUSH1 0xFF AND ISZERO ISZERO EQ PUSH2 0x6C2 JUMPI PUSH1 0x40 MLOAD PUSH32 0x8C379A000000000000000000000000000000000000000000000000000000000 DUP2 MSTORE PUSH1 0x4 ADD PUSH2 0x6B9 SWAP1 PUSH2 0x23A5 JUMP JUMPDEST PUSH1 0x40 MLOAD DUP1 SWAP2 SUB SWAP1 REVERT JUMPDEST PUSH1 0x4 DUP4 LT DUP1 ISZERO PUSH2 0x6D2 JUMPI POP PUSH1 0x0 DUP4 GT JUMPDEST PUSH2 0x711 JUMPI PUSH1 0x40 MLOAD PUSH32 0x8C379A000000000000000000000000000000000000000000000000000000000 DUP2 MSTORE PUSH1 0x4 ADD PUSH2 0x708 SWAP1 PUSH2 0x2365 JUMP JUMPDEST PUSH1 0x40 MLOAD DUP1 SWAP2 SUB SWAP1 REVERT JUMPDEST PUSH1 0x60 DUP1 PUSH1 0x0 JUMPDEST DUP6 DUP2 LT ISZERO PUSH2 0x776 JUMPI PUSH2 0x728 DUP8 PUSH2 0xEF9 JUMP JUMPDEST DUP5 DUP4 DUP2 MLOAD DUP2 LT PUSH2 0x73B JUMPI PUSH2 0x73A PUSH2 0x2860 JUMP JUMPDEST JUMPDEST PUSH1 0x20 MUL PUSH1 0x20 ADD ADD DUP5 DUP5 DUP2 MLOAD DUP2 LT PUSH2 0x755 JUMPI PUSH2 0x754 PUSH2 0x2860 JUMP JUMPDEST JUMPDEST PUSH1 0x20 MUL PUSH1 0x20 ADD ADD DUP3 SWAP1 MSTORE DUP3 DUP2 MSTORE POP POP POP DUP1 PUSH2 0x76F SWAP1 PUSH2 0x272B JUMP JUMPDEST SWAP1 POP PUSH2 0x717 JUMP JUMPDEST POP DUP2 DUP2 SWAP4 POP SWAP4 POP POP POP SWAP3 POP SWAP3 SWAP1 POP JUMP JUMPDEST PUSH1 0x0 PUSH1 0xC PUSH1 0x1 SWAP1 SLOAD SWAP1 PUSH2 0x100 EXP SWAP1 DIV PUSH20 0xFFFFFFFFFFFFFFFFFFFFFFFFFFFFFFFFFFFFFFFF AND PUSH20 0xFFFFFFFFFFFFFFFFFFFFFFFFFFFFFFFFFFFFFFFF AND PUSH2 0x7C9 PUSH2 0xEF1 JUMP JUMPDEST PUSH20 0xFFFFFFFFFFFFFFFFFFFFFFFFFFFFFFFFFFFFFFFF AND EQ PUSH2 0x81F JUMPI PUSH1 0x40 MLOAD PUSH32 0x8C379A000000000000000000000000000000000000000000000000000000000 DUP2 MSTORE PUSH1 0x4 ADD PUSH2 0x816 SWAP1 PUSH2 0x2385 JUMP JUMPDEST PUSH1 0x40 MLOAD DUP1 SWAP2 SUB SWAP1 REVERT JUMPDEST SELFBALANCE SWAP1 POP SWAP1 JUMP JUMPDEST PUSH1 0x60 DUP1 PUSH1 0x0 ISZERO ISZERO PUSH1 0xC PUSH1 0x0 SWAP1 SLOAD SWAP1 PUSH2 0x100 EXP SWAP1 DIV PUSH1 0xFF AND ISZERO ISZERO EQ PUSH2 0x87E JUMPI PUSH1 0x40 MLOAD PUSH32 0x8C379A000000000000000000000000000000000000000000000000000000000 DUP2 MSTORE PUSH1 0x4 ADD PUSH2 0x875 SWAP1 PUSH2 0x23A5 JUMP JUMPDEST PUSH1 0x40 MLOAD DUP1 SWAP2 SUB SWAP1 REVERT JUMPDEST PUSH2 0x3E8 PUSH1 0x4 SLOAD LT PUSH2 0x8C4 JUMPI PUSH1 0x40 MLOAD PUSH32 0x8C379A000000000000000000000000000000000000000000000000000000000 DUP2 MSTORE PUSH1 0x4 ADD PUSH2 0x8BB SWAP1 PUSH2 0x23C5 JUMP JUMPDEST PUSH1 0x40 MLOAD DUP1 SWAP2 SUB SWAP1 REVERT JUMPDEST PUSH1 0x6 SLOAD CALLVALUE EQ PUSH2 0x908 JUMPI PUSH1 0x40 MLOAD PUSH32 0x8C379A000000000000000000000000000000000000000000000000000000000 DUP2 MSTORE PUSH1 0x4 ADD PUSH2 0x8FF SWAP1 PUSH2 0x2305 JUMP JUMPDEST PUSH1 0x40 MLOAD DUP1 SWAP2 SUB SWAP1 REVERT JUMPDEST PUSH1 0x4 DUP4 LT DUP1 ISZERO PUSH2 0x918 JUMPI POP PUSH1 0x0 DUP4 GT JUMPDEST PUSH2 0x957 JUMPI PUSH1 0x40 MLOAD PUSH32 0x8C379A000000000000000000000000000000000000000000000000000000000 DUP2 MSTORE PUSH1 0x4 ADD PUSH2 0x94E SWAP1 PUSH2 0x2365 JUMP JUMPDEST PUSH1 0x40 MLOAD DUP1 SWAP2 SUB SWAP1 REVERT JUMPDEST PUSH1 0x60 DUP1 PUSH1 0x0 JUMPDEST DUP6 DUP2 LT ISZERO PUSH2 0x9BC JUMPI PUSH2 0x96E DUP8 PUSH2 0xEF9 JUMP JUMPDEST DUP5 DUP4 DUP2 MLOAD DUP2 LT PUSH2 0x981 JUMPI PUSH2 0x980 PUSH2 0x2860 JUMP JUMPDEST JUMPDEST PUSH1 0x20 MUL PUSH1 0x20 ADD ADD DUP5 DUP5 DUP2 MLOAD DUP2 LT PUSH2 0x99B JUMPI PUSH2 0x99A PUSH2 0x2860 JUMP JUMPDEST JUMPDEST PUSH1 0x20 MUL PUSH1 0x20 ADD ADD DUP3 SWAP1 MSTORE DUP3 DUP2 MSTORE POP POP POP DUP1 PUSH2 0x9B5 SWAP1 PUSH2 0x272B JUMP JUMPDEST SWAP1 POP PUSH2 0x95D JUMP JUMPDEST POP PUSH2 0x9CE PUSH2 0x9C8 PUSH2 0xEF1 JUMP JUMPDEST CALLVALUE PUSH2 0x11A8 JUMP JUMPDEST DUP2 DUP2 SWAP4 POP SWAP4 POP POP POP SWAP3 POP SWAP3 SWAP1 POP JUMP JUMPDEST PUSH1 0x0 DUP1 PUSH1 0x0 PUSH1 0xC PUSH1 0x1 SWAP1 SLOAD SWAP1 PUSH2 0x100 EXP SWAP1 DIV PUSH20 0xFFFFFFFFFFFFFFFFFFFFFFFFFFFFFFFFFFFFFFFF AND PUSH20 0xFFFFFFFFFFFFFFFFFFFFFFFFFFFFFFFFFFFFFFFF AND PUSH2 0xA23 PUSH2 0xEF1 JUMP JUMPDEST PUSH20 0xFFFFFFFFFFFFFFFFFFFFFFFFFFFFFFFFFFFFFFFF AND EQ PUSH2 0xA79 JUMPI PUSH1 0x40 MLOAD PUSH32 0x8C379A000000000000000000000000000000000000000000000000000000000 DUP2 MSTORE PUSH1 0x4 ADD PUSH2 0xA70 SWAP1 PUSH2 0x2385 JUMP JUMPDEST PUSH1 0x40 MLOAD DUP1 SWAP2 SUB SWAP1 REVERT JUMPDEST PUSH1 0x0 ISZERO ISZERO PUSH1 0xC PUSH1 0x0 SWAP1 SLOAD SWAP1 PUSH2 0x100 EXP SWAP1 DIV PUSH1 0xFF AND ISZERO ISZERO EQ PUSH2 0xACF JUMPI PUSH1 0x40 MLOAD PUSH32 0x8C379A000000000000000000000000000000000000000000000000000000000 DUP2 MSTORE PUSH1 0x4 ADD PUSH2 0xAC6 SWAP1 PUSH2 0x23A5 JUMP JUMPDEST PUSH1 0x40 MLOAD DUP1 SWAP2 SUB SWAP1 REVERT JUMPDEST PUSH1 0x7 SLOAD PUSH1 0x8 SLOAD PUSH1 0x9 SLOAD SWAP3 POP SWAP3 POP SWAP3 POP SWAP1 SWAP2 SWAP3 JUMP JUMPDEST PUSH1 0x0 PUSH1 0xC PUSH1 0x1 SWAP1 SLOAD SWAP1 PUSH2 0x100 EXP SWAP1 DIV PUSH20 0xFFFFFFFFFFFFFFFFFFFFFFFFFFFFFFFFFFFFFFFF AND PUSH20 0xFFFFFFFFFFFFFFFFFFFFFFFFFFFFFFFFFFFFFFFF AND PUSH2 0xB26 PUSH2 0xEF1 JUMP JUMPDEST PUSH20 0xFFFFFFFFFFFFFFFFFFFFFFFFFFFFFFFFFFFFFFFF AND EQ PUSH2 0xB7C JUMPI PUSH1 0x40 MLOAD PUSH32 0x8C379A000000000000000000000000000000000000000000000000000000000 DUP2 MSTORE PUSH1 0x4 ADD PUSH2 0xB73 SWAP1 PUSH2 0x2385 JUMP JUMPDEST PUSH1 0x40 MLOAD DUP1 SWAP2 SUB SWAP1 REVERT JUMPDEST PUSH1 0x0 ISZERO ISZERO PUSH1 0xC PUSH1 0x0 SWAP1 SLOAD SWAP1 PUSH2 0x100 EXP SWAP1 DIV PUSH1 0xFF AND ISZERO ISZERO EQ PUSH2 0xBD2 JUMPI PUSH1 0x40 MLOAD PUSH32 0x8C379A000000000000000000000000000000000000000000000000000000000 DUP2 MSTORE PUSH1 0x4 ADD PUSH2 0xBC9 SWAP1 PUSH2 0x23A5 JUMP JUMPDEST PUSH1 0x40 MLOAD DUP1 SWAP2 SUB SWAP1 REVERT JUMPDEST PUSH1 0x6 SLOAD SWAP1 POP SWAP1 JUMP JUMPDEST PUSH1 0xC PUSH1 0x1 SWAP1 SLOAD SWAP1 PUSH2 0x100 EXP SWAP1 DIV PUSH20 0xFFFFFFFFFFFFFFFFFFFFFFFFFFFFFFFFFFFFFFFF AND PUSH20 0xFFFFFFFFFFFFFFFFFFFFFFFFFFFFFFFFFFFFFFFF AND PUSH2 0xC1B PUSH2 0xEF1 JUMP JUMPDEST PUSH20 0xFFFFFFFFFFFFFFFFFFFFFFFFFFFFFFFFFFFFFFFF AND EQ PUSH2 0xC71 JUMPI PUSH1 0x40 MLOAD PUSH32 0x8C379A000000000000000000000000000000000000000000000000000000000 DUP2 MSTORE PUSH1 0x4 ADD PUSH2 0xC68 SWAP1 PUSH2 0x2385 JUMP JUMPDEST PUSH1 0x40 MLOAD DUP1 SWAP2 SUB SWAP1 REVERT JUMPDEST PUSH1 0x0 ISZERO ISZERO PUSH1 0xC PUSH1 0x0 SWAP1 SLOAD SWAP1 PUSH2 0x100 EXP SWAP1 DIV PUSH1 0xFF AND ISZERO ISZERO EQ PUSH2 0xCC7 JUMPI PUSH1 0x40 MLOAD PUSH32 0x8C379A000000000000000000000000000000000000000000000000000000000 DUP2 MSTORE PUSH1 0x4 ADD PUSH2 0xCBE SWAP1 PUSH2 0x2345 JUMP JUMPDEST PUSH1 0x40 MLOAD DUP1 SWAP2 SUB SWAP1 REVERT JUMPDEST PUSH1 0x1 PUSH1 0xC PUSH1 0x0 PUSH2 0x100 EXP DUP2 SLOAD DUP2 PUSH1 0xFF MUL NOT AND SWAP1 DUP4 ISZERO ISZERO MUL OR SWAP1 SSTORE POP JUMP JUMPDEST PUSH1 0xC PUSH1 0x1 SWAP1 SLOAD SWAP1 PUSH2 0x100 EXP SWAP1 DIV PUSH20 0xFFFFFFFFFFFFFFFFFFFFFFFFFFFFFFFFFFFFFFFF AND DUP2 JUMP JUMPDEST PUSH1 0xC PUSH1 0x1 SWAP1 SLOAD SWAP1 PUSH2 0x100 EXP SWAP1 DIV PUSH20 0xFFFFFFFFFFFFFFFFFFFFFFFFFFFFFFFFFFFFFFFF AND PUSH20 0xFFFFFFFFFFFFFFFFFFFFFFFFFFFFFFFFFFFFFFFF AND PUSH2 0xD4B PUSH2 0xEF1 JUMP JUMPDEST PUSH20 0xFFFFFFFFFFFFFFFFFFFFFFFFFFFFFFFFFFFFFFFF AND EQ PUSH2 0xDA1 JUMPI PUSH1 0x40 MLOAD PUSH32 0x8C379A000000000000000000000000000000000000000000000000000000000 DUP2 MSTORE PUSH1 0x4 ADD PUSH2 0xD98 SWAP1 PUSH2 0x2385 JUMP JUMPDEST PUSH1 0x40 MLOAD DUP1 SWAP2 SUB SWAP1 REVERT JUMPDEST PUSH1 0x0 ISZERO ISZERO PUSH1 0xC PUSH1 0x0 SWAP1 SLOAD SWAP1 PUSH2 0x100 EXP SWAP1 DIV PUSH1 0xFF AND ISZERO ISZERO EQ PUSH2 0xDF7 JUMPI PUSH1 0x40 MLOAD PUSH32 0x8C379A000000000000000000000000000000000000000000000000000000000 DUP2 MSTORE PUSH1 0x4 ADD PUSH2 0xDEE SWAP1 PUSH2 0x23A5 JUMP JUMPDEST PUSH1 0x40 MLOAD DUP1 SWAP2 SUB SWAP1 REVERT JUMPDEST DUP1 PUSH1 0x6 DUP2 SWAP1 SSTORE POP POP JUMP JUMPDEST PUSH1 0x60 PUSH1 0x0 ISZERO ISZERO PUSH1 0xC PUSH1 0x0 SWAP1 SLOAD SWAP1 PUSH2 0x100 EXP SWAP1 DIV PUSH1 0xFF AND ISZERO ISZERO EQ PUSH2 0xE59 JUMPI PUSH1 0x40 MLOAD PUSH32 0x8C379A000000000000000000000000000000000000000000000000000000000 DUP2 MSTORE PUSH1 0x4 ADD PUSH2 0xE50 SWAP1 PUSH2 0x23A5 JUMP JUMPDEST PUSH1 0x40 MLOAD DUP1 SWAP2 SUB SWAP1 REVERT JUMPDEST PUSH1 0xA PUSH1 0x0 DUP4 PUSH20 0xFFFFFFFFFFFFFFFFFFFFFFFFFFFFFFFFFFFFFFFF AND PUSH20 0xFFFFFFFFFFFFFFFFFFFFFFFFFFFFFFFFFFFFFFFF AND DUP2 MSTORE PUSH1 0x20 ADD SWAP1 DUP2 MSTORE PUSH1 0x20 ADD PUSH1 0x0 KECCAK256 PUSH1 0x0 ADD DUP1 SLOAD DUP1 PUSH1 0x20 MUL PUSH1 0x20 ADD PUSH1 0x40 MLOAD SWAP1 DUP2 ADD PUSH1 0x40 MSTORE DUP1 SWAP3 SWAP2 SWAP1 DUP2 DUP2 MSTORE PUSH1 0x20 ADD DUP3 DUP1 SLOAD DUP1 ISZERO PUSH2 0xEE5 JUMPI PUSH1 0x20 MUL DUP3 ADD SWAP2 SWAP1 PUSH1 0x0 MSTORE PUSH1 0x20 PUSH1 0x0 KECCAK256 SWAP1 JUMPDEST DUP2 SLOAD DUP2 MSTORE PUSH1 0x20 ADD SWAP1 PUSH1 0x1 ADD SWAP1 DUP1 DUP4 GT PUSH2 0xED1 JUMPI JUMPDEST POP POP POP POP POP SWAP1 POP SWAP2 SWAP1 POP JUMP JUMPDEST PUSH1 0x0 CALLER SWAP1 POP SWAP1 JUMP JUMPDEST PUSH1 0x0 PUSH1 0x60 PUSH1 0xC PUSH1 0x1 SWAP1 SLOAD SWAP1 PUSH2 0x100 EXP SWAP1 DIV PUSH20 0xFFFFFFFFFFFFFFFFFFFFFFFFFFFFFFFFFFFFFFFF AND PUSH20 0xFFFFFFFFFFFFFFFFFFFFFFFFFFFFFFFFFFFFFFFF AND PUSH2 0xF3E PUSH2 0xEF1 JUMP JUMPDEST PUSH20 0xFFFFFFFFFFFFFFFFFFFFFFFFFFFFFFFFFFFFFFFF AND EQ PUSH2 0xF94 JUMPI PUSH1 0x40 MLOAD PUSH32 0x8C379A000000000000000000000000000000000000000000000000000000000 DUP2 MSTORE PUSH1 0x4 ADD PUSH2 0xF8B SWAP1 PUSH2 0x2385 JUMP JUMPDEST PUSH1 0x40 MLOAD DUP1 SWAP2 SUB SWAP1 REVERT JUMPDEST PUSH1 0x0 ISZERO ISZERO PUSH1 0xC PUSH1 0x0 SWAP1 SLOAD SWAP1 PUSH2 0x100 EXP SWAP1 DIV PUSH1 0xFF AND ISZERO ISZERO EQ PUSH2 0xFEA JUMPI PUSH1 0x40 MLOAD PUSH32 0x8C379A000000000000000000000000000000000000000000000000000000000 DUP2 MSTORE PUSH1 0x4 ADD PUSH2 0xFE1 SWAP1 PUSH2 0x23A5 JUMP JUMPDEST PUSH1 0x40 MLOAD DUP1 SWAP2 SUB SWAP1 REVERT JUMPDEST PUSH1 0x0 PUSH2 0xFF4 PUSH2 0x1202 JUMP JUMPDEST SWAP1 POP PUSH2 0x108E DUP5 DUP3 PUSH1 0x5 SLOAD PUSH1 0x2 DUP1 SLOAD PUSH2 0x100B SWAP1 PUSH2 0x26C8 JUMP JUMPDEST DUP1 PUSH1 0x1F ADD PUSH1 0x20 DUP1 SWAP2 DIV MUL PUSH1 0x20 ADD PUSH1 0x40 MLOAD SWAP1 DUP2 ADD PUSH1 0x40 MSTORE DUP1 SWAP3 SWAP2 SWAP1 DUP2 DUP2 MSTORE PUSH1 0x20 ADD DUP3 DUP1 SLOAD PUSH2 0x1037 SWAP1 PUSH2 0x26C8 JUMP JUMPDEST DUP1 ISZERO PUSH2 0x1084 JUMPI DUP1 PUSH1 0x1F LT PUSH2 0x1059 JUMPI PUSH2 0x100 DUP1 DUP4 SLOAD DIV MUL DUP4 MSTORE SWAP2 PUSH1 0x20 ADD SWAP2 PUSH2 0x1084 JUMP JUMPDEST DUP3 ADD SWAP2 SWAP1 PUSH1 0x0 MSTORE PUSH1 0x20 PUSH1 0x0 KECCAK256 SWAP1 JUMPDEST DUP2 SLOAD DUP2 MSTORE SWAP1 PUSH1 0x1 ADD SWAP1 PUSH1 0x20 ADD DUP1 DUP4 GT PUSH2 0x1067 JUMPI DUP3 SWAP1 SUB PUSH1 0x1F AND DUP3 ADD SWAP2 JUMPDEST POP POP POP POP POP PUSH2 0x14F4 JUMP JUMPDEST PUSH1 0x4 PUSH1 0x0 DUP2 SLOAD DUP1 SWAP3 SWAP2 SWAP1 PUSH2 0x10A1 SWAP1 PUSH2 0x272B JUMP JUMPDEST SWAP2 SWAP1 POP SSTORE POP PUSH1 0xA PUSH1 0x0 DUP6 PUSH20 0xFFFFFFFFFFFFFFFFFFFFFFFFFFFFFFFFFFFFFFFF AND PUSH20 0xFFFFFFFFFFFFFFFFFFFFFFFFFFFFFFFFFFFFFFFF AND DUP2 MSTORE PUSH1 0x20 ADD SWAP1 DUP2 MSTORE PUSH1 0x20 ADD PUSH1 0x0 KECCAK256 PUSH1 0x0 ADD DUP2 SWAP1 DUP1 PUSH1 0x1 DUP2 SLOAD ADD DUP1 DUP3 SSTORE DUP1 SWAP2 POP POP PUSH1 0x1 SWAP1 SUB SWAP1 PUSH1 0x0 MSTORE PUSH1 0x20 PUSH1 0x0 KECCAK256 ADD PUSH1 0x0 SWAP1 SWAP2 SWAP1 SWAP2 SWAP1 SWAP2 POP SSTORE DUP1 PUSH1 0x2 DUP1 DUP1 SLOAD PUSH2 0x111E SWAP1 PUSH2 0x26C8 JUMP JUMPDEST DUP1 PUSH1 0x1F ADD PUSH1 0x20 DUP1 SWAP2 DIV MUL PUSH1 0x20 ADD PUSH1 0x40 MLOAD SWAP1 DUP2 ADD PUSH1 0x40 MSTORE DUP1 SWAP3 SWAP2 SWAP1 DUP2 DUP2 MSTORE PUSH1 0x20 ADD DUP3 DUP1 SLOAD PUSH2 0x114A SWAP1 PUSH2 0x26C8 JUMP JUMPDEST DUP1 ISZERO PUSH2 0x1197 JUMPI DUP1 PUSH1 0x1F LT PUSH2 0x116C JUMPI PUSH2 0x100 DUP1 DUP4 SLOAD DIV MUL DUP4 MSTORE SWAP2 PUSH1 0x20 ADD SWAP2 PUSH2 0x1197 JUMP JUMPDEST DUP3 ADD SWAP2 SWAP1 PUSH1 0x0 MSTORE PUSH1 0x20 PUSH1 0x0 KECCAK256 SWAP1 JUMPDEST DUP2 SLOAD DUP2 MSTORE SWAP1 PUSH1 0x1 ADD SWAP1 PUSH1 0x20 ADD DUP1 DUP4 GT PUSH2 0x117A JUMPI DUP3 SWAP1 SUB PUSH1 0x1F AND DUP3 ADD SWAP2 JUMPDEST POP POP POP POP POP SWAP1 POP SWAP3 POP SWAP3 POP POP SWAP2 POP SWAP2 JUMP JUMPDEST DUP1 PUSH1 0xB PUSH1 0x0 DUP5 PUSH20 0xFFFFFFFFFFFFFFFFFFFFFFFFFFFFFFFFFFFFFFFF AND PUSH20 0xFFFFFFFFFFFFFFFFFFFFFFFFFFFFFFFFFFFFFFFF AND DUP2 MSTORE PUSH1 0x20 ADD SWAP1 DUP2 MSTORE PUSH1 0x20 ADD PUSH1 0x0 KECCAK256 PUSH1 0x0 DUP3 DUP3 SLOAD PUSH2 0x11F7 SWAP2 SWAP1 PUSH2 0x2554 JUMP JUMPDEST SWAP3 POP POP DUP2 SWAP1 SSTORE POP POP POP JUMP JUMPDEST PUSH1 0x0 DUP1 ISZERO ISZERO PUSH1 0xC PUSH1 0x0 SWAP1 SLOAD SWAP1 PUSH2 0x100 EXP SWAP1 DIV PUSH1 0xFF AND ISZERO ISZERO EQ PUSH2 0x1259 JUMPI PUSH1 0x40 MLOAD PUSH32 0x8C379A000000000000000000000000000000000000000000000000000000000 DUP2 MSTORE PUSH1 0x4 ADD PUSH2 0x1250 SWAP1 PUSH2 0x23A5 JUMP JUMPDEST PUSH1 0x40 MLOAD DUP1 SWAP2 SUB SWAP1 REVERT JUMPDEST PUSH1 0x0 PUSH2 0x1263 PUSH2 0x168A JUMP JUMPDEST SWAP1 POP PUSH1 0x0 PUSH1 0x3 DUP3 PUSH1 0x14 DUP2 LT PUSH2 0x127B JUMPI PUSH2 0x127A PUSH2 0x2860 JUMP JUMPDEST JUMPDEST PUSH1 0x20 SWAP2 DUP3 DUP3 DIV ADD SWAP2 SWAP1 MOD SWAP1 SLOAD SWAP1 PUSH2 0x100 EXP SWAP1 DIV PUSH1 0xFF AND PUSH1 0xFF AND SWAP1 POP PUSH1 0x0 DUP2 EQ DUP1 ISZERO PUSH2 0x12A8 JUMPI POP PUSH1 0x32 PUSH1 0x7 SLOAD LT JUMPDEST ISZERO PUSH2 0x130F JUMPI PUSH1 0x7 PUSH1 0x0 DUP2 SLOAD DUP1 SWAP3 SWAP2 SWAP1 PUSH2 0x12C0 SWAP1 PUSH2 0x272B JUMP JUMPDEST SWAP2 SWAP1 POP SSTORE POP PUSH2 0x12D0 PUSH1 0x7 SLOAD PUSH2 0x16CE JUMP JUMPDEST PUSH1 0x40 MLOAD PUSH1 0x20 ADD PUSH2 0x12E0 SWAP2 SWAP1 PUSH2 0x2128 JUMP JUMPDEST PUSH1 0x40 MLOAD PUSH1 0x20 DUP2 DUP4 SUB SUB DUP2 MSTORE SWAP1 PUSH1 0x40 MSTORE PUSH1 0x2 SWAP1 DUP1 MLOAD SWAP1 PUSH1 0x20 ADD SWAP1 PUSH2 0x1304 SWAP3 SWAP2 SWAP1 PUSH2 0x1AAB JUMP JUMPDEST POP DUP1 SWAP3 POP POP POP PUSH2 0x14F1 JUMP JUMPDEST PUSH1 0x1 DUP2 GT ISZERO DUP1 ISZERO PUSH2 0x1322 JUMPI POP PUSH1 0x64 PUSH1 0x8 SLOAD LT JUMPDEST ISZERO PUSH2 0x1389 JUMPI PUSH1 0x8 PUSH1 0x0 DUP2 SLOAD DUP1 SWAP3 SWAP2 SWAP1 PUSH2 0x133A SWAP1 PUSH2 0x272B JUMP JUMPDEST SWAP2 SWAP1 POP SSTORE POP PUSH2 0x134A PUSH1 0x8 SLOAD PUSH2 0x16CE JUMP JUMPDEST PUSH1 0x40 MLOAD PUSH1 0x20 ADD PUSH2 0x135A SWAP2 SWAP1 PUSH2 0x214A JUMP JUMPDEST PUSH1 0x40 MLOAD PUSH1 0x20 DUP2 DUP4 SUB SUB DUP2 MSTORE SWAP1 PUSH1 0x40 MSTORE PUSH1 0x2 SWAP1 DUP1 MLOAD SWAP1 PUSH1 0x20 ADD SWAP1 PUSH2 0x137E SWAP3 SWAP2 SWAP1 PUSH2 0x1AAB JUMP JUMPDEST POP DUP1 SWAP3 POP POP POP PUSH2 0x14F1 JUMP JUMPDEST PUSH1 0x2 DUP2 GT ISZERO DUP1 ISZERO PUSH2 0x139E JUMPI POP PUSH2 0x352 PUSH1 0x9 SLOAD GT ISZERO JUMPDEST ISZERO PUSH2 0x141E JUMPI PUSH1 0x9 PUSH1 0x0 DUP2 SLOAD DUP1 SWAP3 SWAP2 SWAP1 PUSH2 0x13B6 SWAP1 PUSH2 0x272B JUMP JUMPDEST SWAP2 SWAP1 POP SSTORE POP PUSH2 0x13C6 PUSH1 0x9 SLOAD PUSH2 0x16CE JUMP JUMPDEST PUSH1 0x40 MLOAD PUSH1 0x20 ADD PUSH2 0x13D6 SWAP2 SWAP1 PUSH2 0x216C JUMP JUMPDEST PUSH1 0x40 MLOAD PUSH1 0x20 DUP2 DUP4 SUB SUB DUP2 MSTORE SWAP1 PUSH1 0x40 MSTORE PUSH1 0x2 SWAP1 DUP1 MLOAD SWAP1 PUSH1 0x20 ADD SWAP1 PUSH2 0x13FA SWAP3 SWAP2 SWAP1 PUSH2 0x1AAB JUMP JUMPDEST PUSH1 0x2 SWAP1 DUP1 SLOAD PUSH2 0x1408 SWAP1 PUSH2 0x26C8 JUMP JUMPDEST PUSH2 0x1413 SWAP3 SWAP2 SWAP1 PUSH2 0x1B31 JUMP JUMPDEST POP DUP1 SWAP3 POP POP POP PUSH2 0x14F1 JUMP JUMPDEST PUSH1 0x64 PUSH1 0x8 SLOAD LT ISZERO PUSH2 0x148F JUMPI PUSH1 0x1 SWAP1 POP PUSH1 0x8 PUSH1 0x0 DUP2 SLOAD DUP1 SWAP3 SWAP2 SWAP1 PUSH2 0x1440 SWAP1 PUSH2 0x272B JUMP JUMPDEST SWAP2 SWAP1 POP SSTORE POP PUSH2 0x1450 PUSH1 0x8 SLOAD PUSH2 0x16CE JUMP JUMPDEST PUSH1 0x40 MLOAD PUSH1 0x20 ADD PUSH2 0x1460 SWAP2 SWAP1 PUSH2 0x214A JUMP JUMPDEST PUSH1 0x40 MLOAD PUSH1 0x20 DUP2 DUP4 SUB SUB DUP2 MSTORE SWAP1 PUSH1 0x40 MSTORE PUSH1 0x2 SWAP1 DUP1 MLOAD SWAP1 PUSH1 0x20 ADD SWAP1 PUSH2 0x1484 SWAP3 SWAP2 SWAP1 PUSH2 0x1AAB JUMP JUMPDEST POP DUP1 SWAP3 POP POP POP PUSH2 0x14F1 JUMP JUMPDEST PUSH1 0x0 SWAP1 POP PUSH1 0x7 PUSH1 0x0 DUP2 SLOAD DUP1 SWAP3 SWAP2 SWAP1 PUSH2 0x14A6 SWAP1 PUSH2 0x272B JUMP JUMPDEST SWAP2 SWAP1 POP SSTORE POP PUSH2 0x14B6 PUSH1 0x7 SLOAD PUSH2 0x16CE JUMP JUMPDEST PUSH1 0x40 MLOAD PUSH1 0x20 ADD PUSH2 0x14C6 SWAP2 SWAP1 PUSH2 0x2128 JUMP JUMPDEST PUSH1 0x40 MLOAD PUSH1 0x20 DUP2 DUP4 SUB SUB DUP2 MSTORE SWAP1 PUSH1 0x40 MSTORE PUSH1 0x2 SWAP1 DUP1 MLOAD SWAP1 PUSH1 0x20 ADD SWAP1 PUSH2 0x14EA SWAP3 SWAP2 SWAP1 PUSH2 0x1AAB JUMP JUMPDEST POP DUP1 SWAP3 POP POP POP JUMPDEST SWAP1 JUMP JUMPDEST PUSH1 0x0 PUSH20 0xFFFFFFFFFFFFFFFFFFFFFFFFFFFFFFFFFFFFFFFF AND DUP5 PUSH20 0xFFFFFFFFFFFFFFFFFFFFFFFFFFFFFFFFFFFFFFFF AND EQ ISZERO PUSH2 0x1564 JUMPI PUSH1 0x40 MLOAD PUSH32 0x8C379A000000000000000000000000000000000000000000000000000000000 DUP2 MSTORE PUSH1 0x4 ADD PUSH2 0x155B SWAP1 PUSH2 0x2405 JUMP JUMPDEST PUSH1 0x40 MLOAD DUP1 SWAP2 SUB SWAP1 REVERT JUMPDEST PUSH1 0x0 PUSH2 0x156E PUSH2 0xEF1 JUMP JUMPDEST SWAP1 POP PUSH2 0x158F DUP2 PUSH1 0x0 DUP8 PUSH2 0x1580 DUP9 PUSH2 0x182F JUMP JUMPDEST PUSH2 0x1589 DUP9 PUSH2 0x182F JUMP JUMPDEST DUP8 PUSH2 0x18A9 JUMP JUMPDEST DUP3 PUSH1 0x0 DUP1 DUP7 DUP2 MSTORE PUSH1 0x20 ADD SWAP1 DUP2 MSTORE PUSH1 0x20 ADD PUSH1 0x0 KECCAK256 PUSH1 0x0 DUP8 PUSH20 0xFFFFFFFFFFFFFFFFFFFFFFFFFFFFFFFFFFFFFFFF AND PUSH20 0xFFFFFFFFFFFFFFFFFFFFFFFFFFFFFFFFFFFFFFFF AND DUP2 MSTORE PUSH1 0x20 ADD SWAP1 DUP2 MSTORE PUSH1 0x20 ADD PUSH1 0x0 KECCAK256 PUSH1 0x0 DUP3 DUP3 SLOAD PUSH2 0x15EE SWAP2 SWAP1 PUSH2 0x2554 JUMP JUMPDEST SWAP3 POP POP DUP2 SWAP1 SSTORE POP DUP5 PUSH20 0xFFFFFFFFFFFFFFFFFFFFFFFFFFFFFFFFFFFFFFFF AND PUSH1 0x0 PUSH20 0xFFFFFFFFFFFFFFFFFFFFFFFFFFFFFFFFFFFFFFFF AND DUP3 PUSH20 0xFFFFFFFFFFFFFFFFFFFFFFFFFFFFFFFFFFFFFFFF AND PUSH32 0xC3D58168C5AE7397731D063D5BBF3D657854427343F4C083240F7AACAA2D0F62 DUP8 DUP8 PUSH1 0x40 MLOAD PUSH2 0x166C SWAP3 SWAP2 SWAP1 PUSH2 0x2440 JUMP JUMPDEST PUSH1 0x40 MLOAD DUP1 SWAP2 SUB SWAP1 LOG4 PUSH2 0x1683 DUP2 PUSH1 0x0 DUP8 DUP8 DUP8 DUP8 PUSH2 0x18B1 JUMP JUMPDEST POP POP POP POP POP JUMP JUMPDEST PUSH1 0x0 DUP1 PUSH1 0x14 TIMESTAMP CALLER PUSH1 0x40 MLOAD PUSH1 0x20 ADD PUSH2 0x16A2 SWAP3 SWAP2 SWAP1 PUSH2 0x218E JUMP JUMPDEST PUSH1 0x40 MLOAD PUSH1 0x20 DUP2 DUP4 SUB SUB DUP2 MSTORE SWAP1 PUSH1 0x40 MSTORE DUP1 MLOAD SWAP1 PUSH1 0x20 ADD KECCAK256 PUSH1 0x0 SHR PUSH2 0x16C5 SWAP2 SWAP1 PUSH2 0x27A2 JUMP JUMPDEST SWAP1 POP DUP1 SWAP2 POP POP SWAP1 JUMP JUMPDEST PUSH1 0x60 PUSH1 0x0 DUP3 EQ ISZERO PUSH2 0x1716 JUMPI PUSH1 0x40 MLOAD DUP1 PUSH1 0x40 ADD PUSH1 0x40 MSTORE DUP1 PUSH1 0x1 DUP2 MSTORE PUSH1 0x20 ADD PUSH32 0x3000000000000000000000000000000000000000000000000000000000000000 DUP2 MSTORE POP SWAP1 POP PUSH2 0x182A JUMP JUMPDEST PUSH1 0x0 DUP3 SWAP1 POP PUSH1 0x0 JUMPDEST PUSH1 0x0 DUP3 EQ PUSH2 0x1748 JUMPI DUP1 DUP1 PUSH2 0x1731 SWAP1 PUSH2 0x272B JUMP JUMPDEST SWAP2 POP POP PUSH1 0xA DUP3 PUSH2 0x1741 SWAP2 SWAP1 PUSH2 0x25AA JUMP JUMPDEST SWAP2 POP PUSH2 0x171E JUMP JUMPDEST PUSH1 0x0 DUP2 PUSH8 0xFFFFFFFFFFFFFFFF DUP2 GT ISZERO PUSH2 0x1764 JUMPI PUSH2 0x1763 PUSH2 0x288F JUMP JUMPDEST JUMPDEST PUSH1 0x40 MLOAD SWAP1 DUP1 DUP3 MSTORE DUP1 PUSH1 0x1F ADD PUSH1 0x1F NOT AND PUSH1 0x20 ADD DUP3 ADD PUSH1 0x40 MSTORE DUP1 ISZERO PUSH2 0x1796 JUMPI DUP2 PUSH1 0x20 ADD PUSH1 0x1 DUP3 MUL DUP1 CALLDATASIZE DUP4 CALLDATACOPY DUP1 DUP3 ADD SWAP2 POP POP SWAP1 POP JUMPDEST POP SWAP1 POP JUMPDEST PUSH1 0x0 DUP6 EQ PUSH2 0x1823 JUMPI PUSH1 0x1 DUP3 PUSH2 0x17AF SWAP2 SWAP1 PUSH2 0x25DB JUMP JUMPDEST SWAP2 POP PUSH1 0xA DUP6 PUSH2 0x17BE SWAP2 SWAP1 PUSH2 0x27A2 JUMP JUMPDEST PUSH1 0x30 PUSH2 0x17CA SWAP2 SWAP1 PUSH2 0x2554 JUMP JUMPDEST PUSH1 0xF8 SHL DUP2 DUP4 DUP2 MLOAD DUP2 LT PUSH2 0x17E0 JUMPI PUSH2 0x17DF PUSH2 0x2860 JUMP JUMPDEST JUMPDEST PUSH1 0x20 ADD ADD SWAP1 PUSH31 0xFFFFFFFFFFFFFFFFFFFFFFFFFFFFFFFFFFFFFFFFFFFFFFFFFFFFFFFFFFFFFF NOT AND SWAP1 DUP2 PUSH1 0x0 BYTE SWAP1 MSTORE8 POP PUSH1 0xA DUP6 PUSH2 0x181C SWAP2 SWAP1 PUSH2 0x25AA JUMP JUMPDEST SWAP5 POP PUSH2 0x179A JUMP JUMPDEST DUP1 SWAP4 POP POP POP POP JUMPDEST SWAP2 SWAP1 POP JUMP JUMPDEST PUSH1 0x60 PUSH1 0x0 PUSH1 0x1 PUSH8 0xFFFFFFFFFFFFFFFF DUP2 GT ISZERO PUSH2 0x184E JUMPI PUSH2 0x184D PUSH2 0x288F JUMP JUMPDEST JUMPDEST PUSH1 0x40 MLOAD SWAP1 DUP1 DUP3 MSTORE DUP1 PUSH1 0x20 MUL PUSH1 0x20 ADD DUP3 ADD PUSH1 0x40 MSTORE DUP1 ISZERO PUSH2 0x187C JUMPI DUP2 PUSH1 0x20 ADD PUSH1 0x20 DUP3 MUL DUP1 CALLDATASIZE DUP4 CALLDATACOPY DUP1 DUP3 ADD SWAP2 POP POP SWAP1 POP JUMPDEST POP SWAP1 POP DUP3 DUP2 PUSH1 0x0 DUP2 MLOAD DUP2 LT PUSH2 0x1894 JUMPI PUSH2 0x1893 PUSH2 0x2860 JUMP JUMPDEST JUMPDEST PUSH1 0x20 MUL PUSH1 0x20 ADD ADD DUP2 DUP2 MSTORE POP POP DUP1 SWAP2 POP POP SWAP2 SWAP1 POP JUMP JUMPDEST POP POP POP POP POP POP JUMP JUMPDEST PUSH2 0x18D0 DUP5 PUSH20 0xFFFFFFFFFFFFFFFFFFFFFFFFFFFFFFFFFFFFFFFF AND PUSH2 0x1A98 JUMP JUMPDEST ISZERO PUSH2 0x1A90 JUMPI DUP4 PUSH20 0xFFFFFFFFFFFFFFFFFFFFFFFFFFFFFFFFFFFFFFFF AND PUSH4 0xAE89A248 DUP8 DUP8 DUP7 DUP7 DUP7 PUSH1 0x40 MLOAD DUP7 PUSH4 0xFFFFFFFF AND PUSH1 0xE0 SHL DUP2 MSTORE PUSH1 0x4 ADD PUSH2 0x1916 SWAP6 SWAP5 SWAP4 SWAP3 SWAP2 SWAP1 PUSH2 0x21D5 JUMP JUMPDEST PUSH1 0x20 PUSH1 0x40 MLOAD DUP1 DUP4 SUB DUP2 PUSH1 0x0 DUP8 DUP1 EXTCODESIZE ISZERO DUP1 ISZERO PUSH2 0x1930 JUMPI PUSH1 0x0 DUP1 REVERT JUMPDEST POP GAS CALL SWAP3 POP POP POP DUP1 ISZERO PUSH2 0x1961 JUMPI POP PUSH1 0x40 MLOAD RETURNDATASIZE PUSH1 0x1F NOT PUSH1 0x1F DUP3 ADD AND DUP3 ADD DUP1 PUSH1 0x40 MSTORE POP DUP2 ADD SWAP1 PUSH2 0x195E SWAP2 SWAP1 PUSH2 0x1CC9 JUMP JUMPDEST PUSH1 0x1 JUMPDEST PUSH2 0x1A07 JUMPI PUSH2 0x196D PUSH2 0x28BE JUMP JUMPDEST DUP1 PUSH4 0x8C379A0 EQ ISZERO PUSH2 0x19CA JUMPI POP PUSH2 0x1982 PUSH2 0x2BC0 JUMP JUMPDEST DUP1 PUSH2 0x198D JUMPI POP PUSH2 0x19CC JUMP JUMPDEST DUP1 PUSH1 0x40 MLOAD PUSH32 0x8C379A000000000000000000000000000000000000000000000000000000000 DUP2 MSTORE PUSH1 0x4 ADD PUSH2 0x19C1 SWAP2 SWAP1 PUSH2 0x22A3 JUMP JUMPDEST PUSH1 0x40 MLOAD DUP1 SWAP2 SUB SWAP1 REVERT JUMPDEST POP JUMPDEST PUSH1 0x40 MLOAD PUSH32 0x8C379A000000000000000000000000000000000000000000000000000000000 DUP2 MSTORE PUSH1 0x4 ADD PUSH2 0x19FE SWAP1 PUSH2 0x22C5 JUMP JUMPDEST PUSH1 0x40 MLOAD DUP1 SWAP2 SUB SWAP1 REVERT JUMPDEST PUSH4 0xAE89A248 PUSH1 0xE0 SHL PUSH28 0xFFFFFFFFFFFFFFFFFFFFFFFFFFFFFFFFFFFFFFFFFFFFFFFFFFFFFFFF NOT AND DUP2 PUSH28 0xFFFFFFFFFFFFFFFFFFFFFFFFFFFFFFFFFFFFFFFFFFFFFFFFFFFFFFFF NOT AND EQ PUSH2 0x1A8E JUMPI PUSH1 0x40 MLOAD PUSH32 0x8C379A000000000000000000000000000000000000000000000000000000000 DUP2 MSTORE PUSH1 0x4 ADD PUSH2 0x1A85 SWAP1 PUSH2 0x22E5 JUMP JUMPDEST PUSH1 0x40 MLOAD DUP1 SWAP2 SUB SWAP1 REVERT JUMPDEST POP JUMPDEST POP POP POP POP POP POP JUMP JUMPDEST PUSH1 0x0 DUP1 DUP3 EXTCODESIZE SWAP1 POP PUSH1 0x0 DUP2 GT SWAP2 POP POP SWAP2 SWAP1 POP JUMP JUMPDEST DUP3 DUP1 SLOAD PUSH2 0x1AB7 SWAP1 PUSH2 0x26C8 JUMP JUMPDEST SWAP1 PUSH1 0x0 MSTORE PUSH1 0x20 PUSH1 0x0 KECCAK256 SWAP1 PUSH1 0x1F ADD PUSH1 0x20 SWAP1 DIV DUP2 ADD SWAP3 DUP3 PUSH2 0x1AD9 JUMPI PUSH1 0x0 DUP6 SSTORE PUSH2 0x1B20 JUMP JUMPDEST DUP3 PUSH1 0x1F LT PUSH2 0x1AF2 JUMPI DUP1 MLOAD PUSH1 0xFF NOT AND DUP4 DUP1 ADD OR DUP6 SSTORE PUSH2 0x1B20 JUMP JUMPDEST DUP3 DUP1 ADD PUSH1 0x1 ADD DUP6 SSTORE DUP3 ISZERO PUSH2 0x1B20 JUMPI SWAP2 DUP3 ADD JUMPDEST DUP3 DUP2 GT ISZERO PUSH2 0x1B1F JUMPI DUP3 MLOAD DUP3 SSTORE SWAP2 PUSH1 0x20 ADD SWAP2 SWAP1 PUSH1 0x1 ADD SWAP1 PUSH2 0x1B04 JUMP JUMPDEST JUMPDEST POP SWAP1 POP PUSH2 0x1B2D SWAP2 SWAP1 PUSH2 0x1BBE JUMP JUMPDEST POP SWAP1 JUMP JUMPDEST DUP3 DUP1 SLOAD PUSH2 0x1B3D SWAP1 PUSH2 0x26C8 JUMP JUMPDEST SWAP1 PUSH1 0x0 MSTORE PUSH1 0x20 PUSH1 0x0 KECCAK256 SWAP1 PUSH1 0x1F ADD PUSH1 0x20 SWAP1 DIV DUP2 ADD SWAP3 DUP3 PUSH2 0x1B5F JUMPI PUSH1 0x0 DUP6 SSTORE PUSH2 0x1BAD JUMP JUMPDEST DUP3 PUSH1 0x1F LT PUSH2 0x1B70 JUMPI DUP1 SLOAD DUP6 SSTORE PUSH2 0x1BAD JUMP JUMPDEST DUP3 DUP1 ADD PUSH1 0x1 ADD DUP6 SSTORE DUP3 ISZERO PUSH2 0x1BAD JUMPI PUSH1 0x0 MSTORE PUSH1 0x20 PUSH1 0x0 KECCAK256 SWAP2 PUSH1 0x1F ADD PUSH1 0x20 SWAP1 DIV DUP3 ADD JUMPDEST DUP3 DUP2 GT ISZERO PUSH2 0x1BAC JUMPI DUP3 SLOAD DUP3 SSTORE SWAP2 PUSH1 0x1 ADD SWAP2 SWAP1 PUSH1 0x1 ADD SWAP1 PUSH2 0x1B91 JUMP JUMPDEST JUMPDEST POP SWAP1 POP PUSH2 0x1BBA SWAP2 SWAP1 PUSH2 0x1BBE JUMP JUMPDEST POP SWAP1 JUMP JUMPDEST JUMPDEST DUP1 DUP3 GT ISZERO PUSH2 0x1BD7 JUMPI PUSH1 0x0 DUP2 PUSH1 0x0 SWAP1 SSTORE POP PUSH1 0x1 ADD PUSH2 0x1BBF JUMP JUMPDEST POP SWAP1 JUMP JUMPDEST PUSH1 0x0 DUP2 CALLDATALOAD SWAP1 POP PUSH2 0x1BEA DUP2 PUSH2 0x2C56 JUMP JUMPDEST SWAP3 SWAP2 POP POP JUMP JUMPDEST PUSH1 0x0 DUP2 CALLDATALOAD SWAP1 POP PUSH2 0x1BFF DUP2 PUSH2 0x2C6D JUMP JUMPDEST SWAP3 SWAP2 POP POP JUMP JUMPDEST PUSH1 0x0 DUP2 MLOAD SWAP1 POP PUSH2 0x1C14 DUP2 PUSH2 0x2C84 JUMP JUMPDEST SWAP3 SWAP2 POP POP JUMP JUMPDEST PUSH1 0x0 DUP2 CALLDATALOAD SWAP1 POP PUSH2 0x1C29 DUP2 PUSH2 0x2C9B JUMP JUMPDEST SWAP3 SWAP2 POP POP JUMP JUMPDEST PUSH1 0x0 PUSH1 0x20 DUP3 DUP5 SUB SLT ISZERO PUSH2 0x1C45 JUMPI PUSH2 0x1C44 PUSH2 0x28E0 JUMP JUMPDEST JUMPDEST PUSH1 0x0 PUSH2 0x1C53 DUP5 DUP3 DUP6 ADD PUSH2 0x1BDB JUMP JUMPDEST SWAP2 POP POP SWAP3 SWAP2 POP POP JUMP JUMPDEST PUSH1 0x0 PUSH1 0x20 DUP3 DUP5 SUB SLT ISZERO PUSH2 0x1C72 JUMPI PUSH2 0x1C71 PUSH2 0x28E0 JUMP JUMPDEST JUMPDEST PUSH1 0x0 PUSH2 0x1C80 DUP5 DUP3 DUP6 ADD PUSH2 0x1BF0 JUMP JUMPDEST SWAP2 POP POP SWAP3 SWAP2 POP POP JUMP JUMPDEST PUSH1 0x0 DUP1 PUSH1 0x40 DUP4 DUP6 SUB SLT ISZERO PUSH2 0x1CA0 JUMPI PUSH2 0x1C9F PUSH2 0x28E0 JUMP JUMPDEST JUMPDEST PUSH1 0x0 PUSH2 0x1CAE DUP6 DUP3 DUP7 ADD PUSH2 0x1BDB JUMP JUMPDEST SWAP3 POP POP PUSH1 0x20 PUSH2 0x1CBF DUP6 DUP3 DUP7 ADD PUSH2 0x1C1A JUMP JUMPDEST SWAP2 POP POP SWAP3 POP SWAP3 SWAP1 POP JUMP JUMPDEST PUSH1 0x0 PUSH1 0x20 DUP3 DUP5 SUB SLT ISZERO PUSH2 0x1CDF JUMPI PUSH2 0x1CDE PUSH2 0x28E0 JUMP JUMPDEST JUMPDEST PUSH1 0x0 PUSH2 0x1CED DUP5 DUP3 DUP6 ADD PUSH2 0x1C05 JUMP JUMPDEST SWAP2 POP POP SWAP3 SWAP2 POP POP JUMP JUMPDEST PUSH1 0x0 PUSH1 0x20 DUP3 DUP5 SUB SLT ISZERO PUSH2 0x1D0C JUMPI PUSH2 0x1D0B PUSH2 0x28E0 JUMP JUMPDEST JUMPDEST PUSH1 0x0 PUSH2 0x1D1A DUP5 DUP3 DUP6 ADD PUSH2 0x1C1A JUMP JUMPDEST SWAP2 POP POP SWAP3 SWAP2 POP POP JUMP JUMPDEST PUSH1 0x0 PUSH2 0x1D2F DUP4 DUP4 PUSH2 0x1E66 JUMP JUMPDEST SWAP1 POP SWAP3 SWAP2 POP POP JUMP JUMPDEST PUSH1 0x0 PUSH2 0x1D43 DUP4 DUP4 PUSH2 0x20F3 JUMP JUMPDEST PUSH1 0x20 DUP4 ADD SWAP1 POP SWAP3 SWAP2 POP POP JUMP JUMPDEST PUSH2 0x1D58 DUP2 PUSH2 0x2621 JUMP JUMPDEST DUP3 MSTORE POP POP JUMP JUMPDEST PUSH2 0x1D67 DUP2 PUSH2 0x260F JUMP JUMPDEST DUP3 MSTORE POP POP JUMP JUMPDEST PUSH2 0x1D7E PUSH2 0x1D79 DUP3 PUSH2 0x260F JUMP JUMPDEST PUSH2 0x2774 JUMP JUMPDEST DUP3 MSTORE POP POP JUMP JUMPDEST PUSH1 0x0 PUSH2 0x1D8F DUP3 PUSH2 0x24CA JUMP JUMPDEST PUSH2 0x1D99 DUP2 DUP6 PUSH2 0x2505 JUMP JUMPDEST SWAP4 POP DUP4 PUSH1 0x20 DUP3 MUL DUP6 ADD PUSH2 0x1DAB DUP6 PUSH2 0x24AA JUMP JUMPDEST DUP1 PUSH1 0x0 JUMPDEST DUP6 DUP2 LT ISZERO PUSH2 0x1DE7 JUMPI DUP5 DUP5 SUB DUP10 MSTORE DUP2 MLOAD PUSH2 0x1DC8 DUP6 DUP3 PUSH2 0x1D23 JUMP JUMPDEST SWAP5 POP PUSH2 0x1DD3 DUP4 PUSH2 0x24EB JUMP JUMPDEST SWAP3 POP PUSH1 0x20 DUP11 ADD SWAP10 POP POP PUSH1 0x1 DUP2 ADD SWAP1 POP PUSH2 0x1DAF JUMP JUMPDEST POP DUP3 SWAP8 POP DUP8 SWAP6 POP POP POP POP POP POP SWAP3 SWAP2 POP POP JUMP JUMPDEST PUSH1 0x0 PUSH2 0x1E04 DUP3 PUSH2 0x24D5 JUMP JUMPDEST PUSH2 0x1E0E DUP2 DUP6 PUSH2 0x2516 JUMP JUMPDEST SWAP4 POP PUSH2 0x1E19 DUP4 PUSH2 0x24BA JUMP JUMPDEST DUP1 PUSH1 0x0 JUMPDEST DUP4 DUP2 LT ISZERO PUSH2 0x1E4A JUMPI DUP2 MLOAD PUSH2 0x1E31 DUP9 DUP3 PUSH2 0x1D37 JUMP JUMPDEST SWAP8 POP PUSH2 0x1E3C DUP4 PUSH2 0x24F8 JUMP JUMPDEST SWAP3 POP POP PUSH1 0x1 DUP2 ADD SWAP1 POP PUSH2 0x1E1D JUMP JUMPDEST POP DUP6 SWAP4 POP POP POP POP SWAP3 SWAP2 POP POP JUMP JUMPDEST PUSH2 0x1E60 DUP2 PUSH2 0x2633 JUMP JUMPDEST DUP3 MSTORE POP POP JUMP JUMPDEST PUSH1 0x0 PUSH2 0x1E71 DUP3 PUSH2 0x24E0 JUMP JUMPDEST PUSH2 0x1E7B DUP2 DUP6 PUSH2 0x2527 JUMP JUMPDEST SWAP4 POP PUSH2 0x1E8B DUP2 DUP6 PUSH1 0x20 DUP7 ADD PUSH2 0x2695 JUMP JUMPDEST PUSH2 0x1E94 DUP2 PUSH2 0x28E5 JUMP JUMPDEST DUP5 ADD SWAP2 POP POP SWAP3 SWAP2 POP POP JUMP JUMPDEST PUSH1 0x0 PUSH2 0x1EAA DUP3 PUSH2 0x24E0 JUMP JUMPDEST PUSH2 0x1EB4 DUP2 DUP6 PUSH2 0x2538 JUMP JUMPDEST SWAP4 POP PUSH2 0x1EC4 DUP2 DUP6 PUSH1 0x20 DUP7 ADD PUSH2 0x2695 JUMP JUMPDEST PUSH2 0x1ECD DUP2 PUSH2 0x28E5 JUMP JUMPDEST DUP5 ADD SWAP2 POP POP SWAP3 SWAP2 POP POP JUMP JUMPDEST PUSH1 0x0 PUSH2 0x1EE3 DUP3 PUSH2 0x24E0 JUMP JUMPDEST PUSH2 0x1EED DUP2 DUP6 PUSH2 0x2549 JUMP JUMPDEST SWAP4 POP PUSH2 0x1EFD DUP2 DUP6 PUSH1 0x20 DUP7 ADD PUSH2 0x2695 JUMP JUMPDEST DUP1 DUP5 ADD SWAP2 POP POP SWAP3 SWAP2 POP POP JUMP JUMPDEST PUSH1 0x0 PUSH2 0x1F16 PUSH1 0x34 DUP4 PUSH2 0x2538 JUMP JUMPDEST SWAP2 POP PUSH2 0x1F21 DUP3 PUSH2 0x2910 JUMP JUMPDEST PUSH1 0x40 DUP3 ADD SWAP1 POP SWAP2 SWAP1 POP JUMP JUMPDEST PUSH1 0x0 PUSH2 0x1F39 PUSH1 0x28 DUP4 PUSH2 0x2538 JUMP JUMPDEST SWAP2 POP PUSH2 0x1F44 DUP3 PUSH2 0x295F JUMP JUMPDEST PUSH1 0x40 DUP3 ADD SWAP1 POP SWAP2 SWAP1 POP JUMP JUMPDEST PUSH1 0x0 PUSH2 0x1F5C PUSH1 0x8 DUP4 PUSH2 0x2549 JUMP JUMPDEST SWAP2 POP PUSH2 0x1F67 DUP3 PUSH2 0x29AE JUMP JUMPDEST PUSH1 0x8 DUP3 ADD SWAP1 POP SWAP2 SWAP1 POP JUMP JUMPDEST PUSH1 0x0 PUSH2 0x1F7F PUSH1 0x5 DUP4 PUSH2 0x2549 JUMP JUMPDEST SWAP2 POP PUSH2 0x1F8A DUP3 PUSH2 0x29D7 JUMP JUMPDEST PUSH1 0x5 DUP3 ADD SWAP1 POP SWAP2 SWAP1 POP JUMP JUMPDEST PUSH1 0x0 PUSH2 0x1FA2 PUSH1 0x12 DUP4 PUSH2 0x2538 JUMP JUMPDEST SWAP2 POP PUSH2 0x1FAD DUP3 PUSH2 0x2A00 JUMP JUMPDEST PUSH1 0x20 DUP3 ADD SWAP1 POP SWAP2 SWAP1 POP JUMP JUMPDEST PUSH1 0x0 PUSH2 0x1FC5 PUSH1 0x1B DUP4 PUSH2 0x2538 JUMP JUMPDEST SWAP2 POP PUSH2 0x1FD0 DUP3 PUSH2 0x2A29 JUMP JUMPDEST PUSH1 0x20 DUP3 ADD SWAP1 POP SWAP2 SWAP1 POP JUMP JUMPDEST PUSH1 0x0 PUSH2 0x1FE8 PUSH1 0x1B DUP4 PUSH2 0x2538 JUMP JUMPDEST SWAP2 POP PUSH2 0x1FF3 DUP3 PUSH2 0x2A52 JUMP JUMPDEST PUSH1 0x20 DUP3 ADD SWAP1 POP SWAP2 SWAP1 POP JUMP JUMPDEST PUSH1 0x0 PUSH2 0x200B PUSH1 0x15 DUP4 PUSH2 0x2538 JUMP JUMPDEST SWAP2 POP PUSH2 0x2016 DUP3 PUSH2 0x2A7B JUMP JUMPDEST PUSH1 0x20 DUP3 ADD SWAP1 POP SWAP2 SWAP1 POP JUMP JUMPDEST PUSH1 0x0 PUSH2 0x202E PUSH1 0x1C DUP4 PUSH2 0x2538 JUMP JUMPDEST SWAP2 POP PUSH2 0x2039 DUP3 PUSH2 0x2AA4 JUMP JUMPDEST PUSH1 0x20 DUP3 ADD SWAP1 POP SWAP2 SWAP1 POP JUMP JUMPDEST PUSH1 0x0 PUSH2 0x2051 PUSH1 0x1B DUP4 PUSH2 0x2538 JUMP JUMPDEST SWAP2 POP PUSH2 0x205C DUP3 PUSH2 0x2ACD JUMP JUMPDEST PUSH1 0x20 DUP3 ADD SWAP1 POP SWAP2 SWAP1 POP JUMP JUMPDEST PUSH1 0x0 PUSH2 0x2074 PUSH1 0x19 DUP4 PUSH2 0x2538 JUMP JUMPDEST SWAP2 POP PUSH2 0x207F DUP3 PUSH2 0x2AF6 JUMP JUMPDEST PUSH1 0x20 DUP3 ADD SWAP1 POP SWAP2 SWAP1 POP JUMP JUMPDEST PUSH1 0x0 PUSH2 0x2097 PUSH1 0x7 DUP4 PUSH2 0x2549 JUMP JUMPDEST SWAP2 POP PUSH2 0x20A2 DUP3 PUSH2 0x2B1F JUMP JUMPDEST PUSH1 0x7 DUP3 ADD SWAP1 POP SWAP2 SWAP1 POP JUMP JUMPDEST PUSH1 0x0 PUSH2 0x20BA PUSH1 0x1D DUP4 PUSH2 0x2538 JUMP JUMPDEST SWAP2 POP PUSH2 0x20C5 DUP3 PUSH2 0x2B48 JUMP JUMPDEST PUSH1 0x20 DUP3 ADD SWAP1 POP SWAP2 SWAP1 POP JUMP JUMPDEST PUSH1 0x0 PUSH2 0x20DD PUSH1 0x21 DUP4 PUSH2 0x2538 JUMP JUMPDEST SWAP2 POP PUSH2 0x20E8 DUP3 PUSH2 0x2B71 JUMP JUMPDEST PUSH1 0x40 DUP3 ADD SWAP1 POP SWAP2 SWAP1 POP JUMP JUMPDEST PUSH2 0x20FC DUP2 PUSH2 0x268B JUMP JUMPDEST DUP3 MSTORE POP POP JUMP JUMPDEST PUSH2 0x210B DUP2 PUSH2 0x268B JUMP JUMPDEST DUP3 MSTORE POP POP JUMP JUMPDEST PUSH2 0x2122 PUSH2 0x211D DUP3 PUSH2 0x268B JUMP JUMPDEST PUSH2 0x2798 JUMP JUMPDEST DUP3 MSTORE POP POP JUMP JUMPDEST PUSH1 0x0 PUSH2 0x2133 DUP3 PUSH2 0x1F4F JUMP JUMPDEST SWAP2 POP PUSH2 0x213F DUP3 DUP5 PUSH2 0x1ED8 JUMP JUMPDEST SWAP2 POP DUP2 SWAP1 POP SWAP3 SWAP2 POP POP JUMP JUMPDEST PUSH1 0x0 PUSH2 0x2155 DUP3 PUSH2 0x1F72 JUMP JUMPDEST SWAP2 POP PUSH2 0x2161 DUP3 DUP5 PUSH2 0x1ED8 JUMP JUMPDEST SWAP2 POP DUP2 SWAP1 POP SWAP3 SWAP2 POP POP JUMP JUMPDEST PUSH1 0x0 PUSH2 0x2177 DUP3 PUSH2 0x208A JUMP JUMPDEST SWAP2 POP PUSH2 0x2183 DUP3 DUP5 PUSH2 0x1ED8 JUMP JUMPDEST SWAP2 POP DUP2 SWAP1 POP SWAP3 SWAP2 POP POP JUMP JUMPDEST PUSH1 0x0 PUSH2 0x219A DUP3 DUP6 PUSH2 0x2111 JUMP JUMPDEST PUSH1 0x20 DUP3 ADD SWAP2 POP PUSH2 0x21AA DUP3 DUP5 PUSH2 0x1D6D JUMP JUMPDEST PUSH1 0x14 DUP3 ADD SWAP2 POP DUP2 SWAP1 POP SWAP4 SWAP3 POP POP POP JUMP JUMPDEST PUSH1 0x0 PUSH1 0x20 DUP3 ADD SWAP1 POP PUSH2 0x21CF PUSH1 0x0 DUP4 ADD DUP5 PUSH2 0x1D4F JUMP JUMPDEST SWAP3 SWAP2 POP POP JUMP JUMPDEST PUSH1 0x0 PUSH1 0xA0 DUP3 ADD SWAP1 POP PUSH2 0x21EA PUSH1 0x0 DUP4 ADD DUP9 PUSH2 0x1D5E JUMP JUMPDEST PUSH2 0x21F7 PUSH1 0x20 DUP4 ADD DUP8 PUSH2 0x1D5E JUMP JUMPDEST PUSH2 0x2204 PUSH1 0x40 DUP4 ADD DUP7 PUSH2 0x2102 JUMP JUMPDEST PUSH2 0x2211 PUSH1 0x60 DUP4 ADD DUP6 PUSH2 0x2102 JUMP JUMPDEST DUP2 DUP2 SUB PUSH1 0x80 DUP4 ADD MSTORE PUSH2 0x2223 DUP2 DUP5 PUSH2 0x1E9F JUMP JUMPDEST SWAP1 POP SWAP7 SWAP6 POP POP POP POP POP POP JUMP JUMPDEST PUSH1 0x0 PUSH1 0x20 DUP3 ADD SWAP1 POP DUP2 DUP2 SUB PUSH1 0x0 DUP4 ADD MSTORE PUSH2 0x2249 DUP2 DUP5 PUSH2 0x1DF9 JUMP JUMPDEST SWAP1 POP SWAP3 SWAP2 POP POP JUMP JUMPDEST PUSH1 0x0 PUSH1 0x40 DUP3 ADD SWAP1 POP DUP2 DUP2 SUB PUSH1 0x0 DUP4 ADD MSTORE PUSH2 0x226B DUP2 DUP6 PUSH2 0x1DF9 JUMP JUMPDEST SWAP1 POP DUP2 DUP2 SUB PUSH1 0x20 DUP4 ADD MSTORE PUSH2 0x227F DUP2 DUP5 PUSH2 0x1D84 JUMP JUMPDEST SWAP1 POP SWAP4 SWAP3 POP POP POP JUMP JUMPDEST PUSH1 0x0 PUSH1 0x20 DUP3 ADD SWAP1 POP PUSH2 0x229D PUSH1 0x0 DUP4 ADD DUP5 PUSH2 0x1E57 JUMP JUMPDEST SWAP3 SWAP2 POP POP JUMP JUMPDEST PUSH1 0x0 PUSH1 0x20 DUP3 ADD SWAP1 POP DUP2 DUP2 SUB PUSH1 0x0 DUP4 ADD MSTORE PUSH2 0x22BD DUP2 DUP5 PUSH2 0x1E9F JUMP JUMPDEST SWAP1 POP SWAP3 SWAP2 POP POP JUMP JUMPDEST PUSH1 0x0 PUSH1 0x20 DUP3 ADD SWAP1 POP DUP2 DUP2 SUB PUSH1 0x0 DUP4 ADD MSTORE PUSH2 0x22DE DUP2 PUSH2 0x1F09 JUMP JUMPDEST SWAP1 POP SWAP2 SWAP1 POP JUMP JUMPDEST PUSH1 0x0 PUSH1 0x20 DUP3 ADD SWAP1 POP DUP2 DUP2 SUB PUSH1 0x0 DUP4 ADD MSTORE PUSH2 0x22FE DUP2 PUSH2 0x1F2C JUMP JUMPDEST SWAP1 POP SWAP2 SWAP1 POP JUMP JUMPDEST PUSH1 0x0 PUSH1 0x20 DUP3 ADD SWAP1 POP DUP2 DUP2 SUB PUSH1 0x0 DUP4 ADD MSTORE PUSH2 0x231E DUP2 PUSH2 0x1F95 JUMP JUMPDEST SWAP1 POP SWAP2 SWAP1 POP JUMP JUMPDEST PUSH1 0x0 PUSH1 0x20 DUP3 ADD SWAP1 POP DUP2 DUP2 SUB PUSH1 0x0 DUP4 ADD MSTORE PUSH2 0x233E DUP2 PUSH2 0x1FB8 JUMP JUMPDEST SWAP1 POP SWAP2 SWAP1 POP JUMP JUMPDEST PUSH1 0x0 PUSH1 0x20 DUP3 ADD SWAP1 POP DUP2 DUP2 SUB PUSH1 0x0 DUP4 ADD MSTORE PUSH2 0x235E DUP2 PUSH2 0x1FDB JUMP JUMPDEST SWAP1 POP SWAP2 SWAP1 POP JUMP JUMPDEST PUSH1 0x0 PUSH1 0x20 DUP3 ADD SWAP1 POP DUP2 DUP2 SUB PUSH1 0x0 DUP4 ADD MSTORE PUSH2 0x237E DUP2 PUSH2 0x1FFE JUMP JUMPDEST SWAP1 POP SWAP2 SWAP1 POP JUMP JUMPDEST PUSH1 0x0 PUSH1 0x20 DUP3 ADD SWAP1 POP DUP2 DUP2 SUB PUSH1 0x0 DUP4 ADD MSTORE PUSH2 0x239E DUP2 PUSH2 0x2021 JUMP JUMPDEST SWAP1 POP SWAP2 SWAP1 POP JUMP JUMPDEST PUSH1 0x0 PUSH1 0x20 DUP3 ADD SWAP1 POP DUP2 DUP2 SUB PUSH1 0x0 DUP4 ADD MSTORE PUSH2 0x23BE DUP2 PUSH2 0x2044 JUMP JUMPDEST SWAP1 POP SWAP2 SWAP1 POP JUMP JUMPDEST PUSH1 0x0 PUSH1 0x20 DUP3 ADD SWAP1 POP DUP2 DUP2 SUB PUSH1 0x0 DUP4 ADD MSTORE PUSH2 0x23DE DUP2 PUSH2 0x2067 JUMP JUMPDEST SWAP1 POP SWAP2 SWAP1 POP JUMP JUMPDEST PUSH1 0x0 PUSH1 0x20 DUP3 ADD SWAP1 POP DUP2 DUP2 SUB PUSH1 0x0 DUP4 ADD MSTORE PUSH2 0x23FE DUP2 PUSH2 0x20AD JUMP JUMPDEST SWAP1 POP SWAP2 SWAP1 POP JUMP JUMPDEST PUSH1 0x0 PUSH1 0x20 DUP3 ADD SWAP1 POP DUP2 DUP2 SUB PUSH1 0x0 DUP4 ADD MSTORE PUSH2 0x241E DUP2 PUSH2 0x20D0 JUMP JUMPDEST SWAP1 POP SWAP2 SWAP1 POP JUMP JUMPDEST PUSH1 0x0 PUSH1 0x20 DUP3 ADD SWAP1 POP PUSH2 0x243A PUSH1 0x0 DUP4 ADD DUP5 PUSH2 0x2102 JUMP JUMPDEST SWAP3 SWAP2 POP POP JUMP JUMPDEST PUSH1 0x0 PUSH1 0x40 DUP3 ADD SWAP1 POP PUSH2 0x2455 PUSH1 0x0 DUP4 ADD DUP6 PUSH2 0x2102 JUMP JUMPDEST PUSH2 0x2462 PUSH1 0x20 DUP4 ADD DUP5 PUSH2 0x2102 JUMP JUMPDEST SWAP4 SWAP3 POP POP POP JUMP JUMPDEST PUSH1 0x0 PUSH1 0x60 DUP3 ADD SWAP1 POP PUSH2 0x247E PUSH1 0x0 DUP4 ADD DUP7 PUSH2 0x2102 JUMP JUMPDEST PUSH2 0x248B PUSH1 0x20 DUP4 ADD DUP6 PUSH2 0x2102 JUMP JUMPDEST PUSH2 0x2498 PUSH1 0x40 DUP4 ADD DUP5 PUSH2 0x2102 JUMP JUMPDEST SWAP5 SWAP4 POP POP POP POP JUMP JUMPDEST PUSH1 0x0 PUSH1 0x40 MLOAD SWAP1 POP SWAP1 JUMP JUMPDEST PUSH1 0x0 DUP2 SWAP1 POP PUSH1 0x20 DUP3 ADD SWAP1 POP SWAP2 SWAP1 POP JUMP JUMPDEST PUSH1 0x0 DUP2 SWAP1 POP PUSH1 0x20 DUP3 ADD SWAP1 POP SWAP2 SWAP1 POP JUMP JUMPDEST PUSH1 0x0 DUP2 MLOAD SWAP1 POP SWAP2 SWAP1 POP JUMP JUMPDEST PUSH1 0x0 DUP2 MLOAD SWAP1 POP SWAP2 SWAP1 POP JUMP JUMPDEST PUSH1 0x0 DUP2 MLOAD SWAP1 POP SWAP2 SWAP1 POP JUMP JUMPDEST PUSH1 0x0 PUSH1 0x20 DUP3 ADD SWAP1 POP SWAP2 SWAP1 POP JUMP JUMPDEST PUSH1 0x0 PUSH1 0x20 DUP3 ADD SWAP1 POP SWAP2 SWAP1 POP JUMP JUMPDEST PUSH1 0x0 DUP3 DUP3 MSTORE PUSH1 0x20 DUP3 ADD SWAP1 POP SWAP3 SWAP2 POP POP JUMP JUMPDEST PUSH1 0x0 DUP3 DUP3 MSTORE PUSH1 0x20 DUP3 ADD SWAP1 POP SWAP3 SWAP2 POP POP JUMP JUMPDEST PUSH1 0x0 DUP3 DUP3 MSTORE PUSH1 0x20 DUP3 ADD SWAP1 POP SWAP3 SWAP2 POP POP JUMP JUMPDEST PUSH1 0x0 DUP3 DUP3 MSTORE PUSH1 0x20 DUP3 ADD SWAP1 POP SWAP3 SWAP2 POP POP JUMP JUMPDEST PUSH1 0x0 DUP2 SWAP1 POP SWAP3 SWAP2 POP POP JUMP JUMPDEST PUSH1 0x0 PUSH2 0x255F DUP3 PUSH2 0x268B JUMP JUMPDEST SWAP2 POP PUSH2 0x256A DUP4 PUSH2 0x268B JUMP JUMPDEST SWAP3 POP DUP3 PUSH32 0xFFFFFFFFFFFFFFFFFFFFFFFFFFFFFFFFFFFFFFFFFFFFFFFFFFFFFFFFFFFFFFFF SUB DUP3 GT ISZERO PUSH2 0x259F JUMPI PUSH2 0x259E PUSH2 0x27D3 JUMP JUMPDEST JUMPDEST DUP3 DUP3 ADD SWAP1 POP SWAP3 SWAP2 POP POP JUMP JUMPDEST PUSH1 0x0 PUSH2 0x25B5 DUP3 PUSH2 0x268B JUMP JUMPDEST SWAP2 POP PUSH2 0x25C0 DUP4 PUSH2 0x268B JUMP JUMPDEST SWAP3 POP DUP3 PUSH2 0x25D0 JUMPI PUSH2 0x25CF PUSH2 0x2802 JUMP JUMPDEST JUMPDEST DUP3 DUP3 DIV SWAP1 POP SWAP3 SWAP2 POP POP JUMP JUMPDEST PUSH1 0x0 PUSH2 0x25E6 DUP3 PUSH2 0x268B JUMP JUMPDEST SWAP2 POP PUSH2 0x25F1 DUP4 PUSH2 0x268B JUMP JUMPDEST SWAP3 POP DUP3 DUP3 LT ISZERO PUSH2 0x2604 JUMPI PUSH2 0x2603 PUSH2 0x27D3 JUMP JUMPDEST JUMPDEST DUP3 DUP3 SUB SWAP1 POP SWAP3 SWAP2 POP POP JUMP JUMPDEST PUSH1 0x0 PUSH2 0x261A DUP3 PUSH2 0x266B JUMP JUMPDEST SWAP1 POP SWAP2 SWAP1 POP JUMP JUMPDEST PUSH1 0x0 PUSH2 0x262C DUP3 PUSH2 0x266B JUMP JUMPDEST SWAP1 POP SWAP2 SWAP1 POP JUMP JUMPDEST PUSH1 0x0 DUP2 ISZERO ISZERO SWAP1 POP SWAP2 SWAP1 POP JUMP JUMPDEST PUSH1 0x0 PUSH32 0xFFFFFFFF00000000000000000000000000000000000000000000000000000000 DUP3 AND SWAP1 POP SWAP2 SWAP1 POP JUMP JUMPDEST PUSH1 0x0 PUSH20 0xFFFFFFFFFFFFFFFFFFFFFFFFFFFFFFFFFFFFFFFF DUP3 AND SWAP1 POP SWAP2 SWAP1 POP JUMP JUMPDEST PUSH1 0x0 DUP2 SWAP1 POP SWAP2 SWAP1 POP JUMP JUMPDEST PUSH1 0x0 JUMPDEST DUP4 DUP2 LT ISZERO PUSH2 0x26B3 JUMPI DUP1 DUP3 ADD MLOAD DUP2 DUP5 ADD MSTORE PUSH1 0x20 DUP2 ADD SWAP1 POP PUSH2 0x2698 JUMP JUMPDEST DUP4 DUP2 GT ISZERO PUSH2 0x26C2 JUMPI PUSH1 0x0 DUP5 DUP5 ADD MSTORE JUMPDEST POP POP POP POP JUMP JUMPDEST PUSH1 0x0 PUSH1 0x2 DUP3 DIV SWAP1 POP PUSH1 0x1 DUP3 AND DUP1 PUSH2 0x26E0 JUMPI PUSH1 0x7F DUP3 AND SWAP2 POP JUMPDEST PUSH1 0x20 DUP3 LT DUP2 EQ ISZERO PUSH2 0x26F4 JUMPI PUSH2 0x26F3 PUSH2 0x2831 JUMP JUMPDEST JUMPDEST POP SWAP2 SWAP1 POP JUMP JUMPDEST PUSH2 0x2703 DUP3 PUSH2 0x28E5 JUMP JUMPDEST DUP2 ADD DUP2 DUP2 LT PUSH8 0xFFFFFFFFFFFFFFFF DUP3 GT OR ISZERO PUSH2 0x2722 JUMPI PUSH2 0x2721 PUSH2 0x288F JUMP JUMPDEST JUMPDEST DUP1 PUSH1 0x40 MSTORE POP POP POP JUMP JUMPDEST PUSH1 0x0 PUSH2 0x2736 DUP3 PUSH2 0x268B JUMP JUMPDEST SWAP2 POP PUSH32 0xFFFFFFFFFFFFFFFFFFFFFFFFFFFFFFFFFFFFFFFFFFFFFFFFFFFFFFFFFFFFFFFF DUP3 EQ ISZERO PUSH2 0x2769 JUMPI PUSH2 0x2768 PUSH2 0x27D3 JUMP JUMPDEST JUMPDEST PUSH1 0x1 DUP3 ADD SWAP1 POP SWAP2 SWAP1 POP JUMP JUMPDEST PUSH1 0x0 PUSH2 0x277F DUP3 PUSH2 0x2786 JUMP JUMPDEST SWAP1 POP SWAP2 SWAP1 POP JUMP JUMPDEST PUSH1 0x0 PUSH2 0x2791 DUP3 PUSH2 0x28F6 JUMP JUMPDEST SWAP1 POP SWAP2 SWAP1 POP JUMP JUMPDEST PUSH1 0x0 DUP2 SWAP1 POP SWAP2 SWAP1 POP JUMP JUMPDEST PUSH1 0x0 PUSH2 0x27AD DUP3 PUSH2 0x268B JUMP JUMPDEST SWAP2 POP PUSH2 0x27B8 DUP4 PUSH2 0x268B JUMP JUMPDEST SWAP3 POP DUP3 PUSH2 0x27C8 JUMPI PUSH2 0x27C7 PUSH2 0x2802 JUMP JUMPDEST JUMPDEST DUP3 DUP3 MOD SWAP1 POP SWAP3 SWAP2 POP POP JUMP JUMPDEST PUSH32 0x4E487B7100000000000000000000000000000000000000000000000000000000 PUSH1 0x0 MSTORE PUSH1 0x11 PUSH1 0x4 MSTORE PUSH1 0x24 PUSH1 0x0 REVERT JUMPDEST PUSH32 0x4E487B7100000000000000000000000000000000000000000000000000000000 PUSH1 0x0 MSTORE PUSH1 0x12 PUSH1 0x4 MSTORE PUSH1 0x24 PUSH1 0x0 REVERT JUMPDEST PUSH32 0x4E487B7100000000000000000000000000000000000000000000000000000000 PUSH1 0x0 MSTORE PUSH1 0x22 PUSH1 0x4 MSTORE PUSH1 0x24 PUSH1 0x0 REVERT JUMPDEST PUSH32 0x4E487B7100000000000000000000000000000000000000000000000000000000 PUSH1 0x0 MSTORE PUSH1 0x32 PUSH1 0x4 MSTORE PUSH1 0x24 PUSH1 0x0 REVERT JUMPDEST PUSH32 0x4E487B7100000000000000000000000000000000000000000000000000000000 PUSH1 0x0 MSTORE PUSH1 0x41 PUSH1 0x4 MSTORE PUSH1 0x24 PUSH1 0x0 REVERT JUMPDEST PUSH1 0x0 PUSH1 0x3 RETURNDATASIZE GT ISZERO PUSH2 0x28DD JUMPI PUSH1 0x4 PUSH1 0x0 DUP1 RETURNDATACOPY PUSH2 0x28DA PUSH1 0x0 MLOAD PUSH2 0x2903 JUMP JUMPDEST SWAP1 POP JUMPDEST SWAP1 JUMP JUMPDEST PUSH1 0x0 DUP1 REVERT JUMPDEST PUSH1 0x0 PUSH1 0x1F NOT PUSH1 0x1F DUP4 ADD AND SWAP1 POP SWAP2 SWAP1 POP JUMP JUMPDEST PUSH1 0x0 DUP2 PUSH1 0x60 SHL SWAP1 POP SWAP2 SWAP1 POP JUMP JUMPDEST PUSH1 0x0 DUP2 PUSH1 0xE0 SHR SWAP1 POP SWAP2 SWAP1 POP JUMP JUMPDEST PUSH32 0x455243313135353A207472616E7366657220746F206E6F6E2045524331313535 PUSH1 0x0 DUP3 ADD MSTORE PUSH32 0x526563656976657220696D706C656D656E746572000000000000000000000000 PUSH1 0x20 DUP3 ADD MSTORE POP JUMP JUMPDEST PUSH32 0x455243313135353A204552433131353552656365697665722072656A65637465 PUSH1 0x0 DUP3 ADD MSTORE PUSH32 0x6420746F6B656E73000000000000000000000000000000000000000000000000 PUSH1 0x20 DUP3 ADD MSTORE POP JUMP JUMPDEST PUSH32 0x4469616D6F6E645F000000000000000000000000000000000000000000000000 PUSH1 0x0 DUP3 ADD MSTORE POP JUMP JUMPDEST PUSH32 0x476F6C645F000000000000000000000000000000000000000000000000000000 PUSH1 0x0 DUP3 ADD MSTORE POP JUMP JUMPDEST PUSH32 0x4E6F7420456E6F7567682042616C616E63650000000000000000000000000000 PUSH1 0x0 DUP3 ADD MSTORE POP JUMP JUMPDEST PUSH32 0x44726F707369746520697320616C72656164792052756E6E696E670000000000 PUSH1 0x0 DUP3 ADD MSTORE POP JUMP JUMPDEST PUSH32 0x44726F707369746520697320616C72656164792053746F707065640000000000 PUSH1 0x0 DUP3 ADD MSTORE POP JUMP JUMPDEST PUSH32 0x596F752063616E206D696E7420312D33204E4654730000000000000000000000 PUSH1 0x0 DUP3 ADD MSTORE POP JUMP JUMPDEST PUSH32 0x4F6E6C79204E46542D4553204F776E65722063616E2041636365737300000000 PUSH1 0x0 DUP3 ADD MSTORE POP JUMP JUMPDEST PUSH32 0x44726F7073697465206973206E6F74204F70656E6564205965742E0000000000 PUSH1 0x0 DUP3 ADD MSTORE POP JUMP JUMPDEST PUSH32 0x4D6178204D696E74696E67204C696D6974207265616368656400000000000000 PUSH1 0x0 DUP3 ADD MSTORE POP JUMP JUMPDEST PUSH32 0x53696C7665725F00000000000000000000000000000000000000000000000000 PUSH1 0x0 DUP3 ADD MSTORE POP JUMP JUMPDEST PUSH32 0x4572726F7221204E6F2042616C616E636520746F207769746864726177000000 PUSH1 0x0 DUP3 ADD MSTORE POP JUMP JUMPDEST PUSH32 0x455243313135353A206D696E7420746F20746865207A65726F20616464726573 PUSH1 0x0 DUP3 ADD MSTORE PUSH32 0x7300000000000000000000000000000000000000000000000000000000000000 PUSH1 0x20 DUP3 ADD MSTORE POP JUMP JUMPDEST PUSH1 0x0 PUSH1 0x44 RETURNDATASIZE LT ISZERO PUSH2 0x2BD0 JUMPI PUSH2 0x2C53 JUMP JUMPDEST PUSH2 0x2BD8 PUSH2 0x24A0 JUMP JUMPDEST PUSH1 0x4 RETURNDATASIZE SUB PUSH1 0x4 DUP3 RETURNDATACOPY DUP1 MLOAD RETURNDATASIZE PUSH1 0x24 DUP3 ADD GT PUSH8 0xFFFFFFFFFFFFFFFF DUP3 GT OR ISZERO PUSH2 0x2C00 JUMPI POP POP PUSH2 0x2C53 JUMP JUMPDEST DUP1 DUP3 ADD DUP1 MLOAD PUSH8 0xFFFFFFFFFFFFFFFF DUP2 GT ISZERO PUSH2 0x2C1E JUMPI POP POP POP POP PUSH2 0x2C53 JUMP JUMPDEST DUP1 PUSH1 0x20 DUP4 ADD ADD PUSH1 0x4 RETURNDATASIZE SUB DUP6 ADD DUP2 GT ISZERO PUSH2 0x2C3B JUMPI POP POP POP POP POP PUSH2 0x2C53 JUMP JUMPDEST PUSH2 0x2C4A DUP3 PUSH1 0x20 ADD DUP6 ADD DUP7 PUSH2 0x26FA JUMP JUMPDEST DUP3 SWAP6 POP POP POP POP POP POP JUMPDEST SWAP1 JUMP JUMPDEST PUSH2 0x2C5F DUP2 PUSH2 0x260F JUMP JUMPDEST DUP2 EQ PUSH2 0x2C6A JUMPI PUSH1 0x0 DUP1 REVERT JUMPDEST POP JUMP JUMPDEST PUSH2 0x2C76 DUP2 PUSH2 0x2621 JUMP JUMPDEST DUP2 EQ PUSH2 0x2C81 JUMPI PUSH1 0x0 DUP1 REVERT JUMPDEST POP JUMP JUMPDEST PUSH2 0x2C8D DUP2 PUSH2 0x263F JUMP JUMPDEST DUP2 EQ PUSH2 0x2C98 JUMPI PUSH1 0x0 DUP1 REVERT JUMPDEST POP JUMP JUMPDEST PUSH2 0x2CA4 DUP2 PUSH2 0x268B JUMP JUMPDEST DUP2 EQ PUSH2 0x2CAF JUMPI PUSH1 0x0 DUP1 REVERT JUMPDEST POP JUMP INVALID LOG2 PUSH5 0x6970667358 0x22 SLT KECCAK256 0x23 EXP 0x1E DUP5 RETURN PUSH15 0x3FDCE24A0FC98B016B98173236BDAC 0xB0 0xD6 CREATE BLOCKHASH 0xA7 0x4F 0xD6 CALLVALUE DUP12 PUSH12 0xE964736F6C63430008070033 "
				},
				"gasEstimates": {
					"creation": {
						"codeDepositCost": "2299200",
						"executionCost": "infinite",
						"totalCost": "infinite"
					},
					"external": {
						"ContractBalance()": "2802",
						"CryptoRandomMint(address,uint256)": "infinite",
						"FiatRandomMint(address,uint256)": "infinite",
						"IsPaused()": "2516",
						"Owner()": "2608",
						"checkMintedCategoryWise()": "infinite",
						"checkTotalMinted()": "4693",
						"getMintFee()": "6930",
						"openDropsite()": "28904",
						"returnOwner(address)": "infinite",
						"setMintFee(uint256)": "27012",
						"stopDropsite()": "28859",
						"withDraw(address)": "infinite"
					},
					"internal": {
						"depositAmount(address,uint256)": "infinite",
						"random()": "infinite",
						"randomMinting(address)": "infinite",
						"updateConditions()": "infinite"
					}
				},
				"methodIdentifiers": {
					"ContractBalance()": "3b668059",
					"CryptoRandomMint(address,uint256)": "59ba3124",
					"FiatRandomMint(address,uint256)": "27a8a072",
					"IsPaused()": "1309a563",
					"Owner()": "b4a99a4e",
					"checkMintedCategoryWise()": "60daa851",
					"checkTotalMinted()": "0390c11c",
					"getMintFee()": "7a5caab3",
					"openDropsite()": "15460259",
					"returnOwner(address)": "fd6c3b1b",
					"setMintFee(uint256)": "eddd0d9c",
					"stopDropsite()": "aa90c726",
					"withDraw(address)": "0a67d2c7"
				}
			},
			"userdoc": {
				"kind": "user",
				"methods": {},
				"version": 1
			}
		}
	}
}