{
	"NFTES_Drop_flat.sol": {
		"NFTES_Drop": {
			"abi": [
				{
					"inputs": [
						{
							"internalType": "string",
							"name": "name",
							"type": "string"
						}
					],
					"stateMutability": "nonpayable",
					"type": "constructor"
				},
				{
					"anonymous": false,
					"inputs": [
						{
							"indexed": true,
							"internalType": "address",
							"name": "operator",
							"type": "address"
						},
						{
							"indexed": true,
							"internalType": "address",
							"name": "from",
							"type": "address"
						},
						{
							"indexed": true,
							"internalType": "address",
							"name": "to",
							"type": "address"
						},
						{
							"indexed": false,
							"internalType": "uint256",
							"name": "id",
							"type": "uint256"
						},
						{
							"indexed": false,
							"internalType": "uint256",
							"name": "value",
							"type": "uint256"
						}
					],
					"name": "TransferSingle",
					"type": "event"
				},
				{
					"anonymous": false,
					"inputs": [
						{
							"indexed": true,
							"internalType": "address",
							"name": "addr",
							"type": "address"
						},
						{
							"indexed": false,
							"internalType": "string[]",
							"name": "ids",
							"type": "string[]"
						}
					],
					"name": "isMinted",
					"type": "event"
				},
				{
					"inputs": [],
					"name": "DIAMOND_ID",
					"outputs": [
						{
							"internalType": "uint256",
							"name": "",
							"type": "uint256"
						}
					],
					"stateMutability": "view",
					"type": "function"
				},
				{
					"inputs": [],
					"name": "Gold_ID",
					"outputs": [
						{
							"internalType": "uint256",
							"name": "",
							"type": "uint256"
						}
					],
					"stateMutability": "view",
					"type": "function"
				},
				{
					"inputs": [],
					"name": "Owner",
					"outputs": [
						{
							"internalType": "address payable",
							"name": "",
							"type": "address"
						}
					],
					"stateMutability": "view",
					"type": "function"
				},
				{
					"inputs": [],
					"name": "SILVER_ID",
					"outputs": [
						{
							"internalType": "uint256",
							"name": "",
							"type": "uint256"
						}
					],
					"stateMutability": "view",
					"type": "function"
				},
				{
					"inputs": [
						{
							"internalType": "address",
							"name": "newOwnerAddr",
							"type": "address"
						}
					],
					"name": "changeOwner",
					"outputs": [],
					"stateMutability": "nonpayable",
					"type": "function"
				},
				{
					"inputs": [],
					"name": "checkMintedCategoryWise",
					"outputs": [
						{
							"internalType": "uint256",
							"name": "",
							"type": "uint256"
						},
						{
							"internalType": "uint256",
							"name": "",
							"type": "uint256"
						},
						{
							"internalType": "uint256",
							"name": "",
							"type": "uint256"
						}
					],
					"stateMutability": "view",
					"type": "function"
				},
				{
					"inputs": [],
					"name": "checkTotalMinted",
					"outputs": [
						{
							"internalType": "uint256",
							"name": "",
							"type": "uint256"
						}
					],
					"stateMutability": "view",
					"type": "function"
				},
				{
					"inputs": [],
					"name": "contractBalance",
					"outputs": [
						{
							"internalType": "uint256",
							"name": "",
							"type": "uint256"
						}
					],
					"stateMutability": "view",
					"type": "function"
				},
				{
					"inputs": [
						{
							"internalType": "address",
							"name": "user_addr",
							"type": "address"
						},
						{
							"internalType": "uint256",
							"name": "noOfMints",
							"type": "uint256"
						}
					],
					"name": "cryptoRandomMint",
					"outputs": [
						{
							"internalType": "string[]",
							"name": "",
							"type": "string[]"
						}
					],
					"stateMutability": "payable",
					"type": "function"
				},
				{
					"inputs": [
						{
							"internalType": "address",
							"name": "user_addr",
							"type": "address"
						},
						{
							"internalType": "uint256",
							"name": "noOfMints",
							"type": "uint256"
						}
					],
					"name": "fiatRandomMint",
					"outputs": [
						{
							"internalType": "string[]",
							"name": "",
							"type": "string[]"
						}
					],
					"stateMutability": "nonpayable",
					"type": "function"
				},
				{
					"inputs": [],
					"name": "getMintFee",
					"outputs": [
						{
							"internalType": "uint256",
							"name": "",
							"type": "uint256"
						}
					],
					"stateMutability": "view",
					"type": "function"
				},
				{
					"inputs": [],
					"name": "isAdmin",
					"outputs": [
						{
							"internalType": "bool",
							"name": "",
							"type": "bool"
						}
					],
					"stateMutability": "view",
					"type": "function"
				},
				{
					"inputs": [],
					"name": "isPaused",
					"outputs": [
						{
							"internalType": "bool",
							"name": "",
							"type": "bool"
						}
					],
					"stateMutability": "view",
					"type": "function"
				},
				{
					"inputs": [],
					"name": "openDropsite",
					"outputs": [],
					"stateMutability": "nonpayable",
					"type": "function"
				},
				{
					"inputs": [
						{
							"internalType": "address",
							"name": "addr",
							"type": "address"
						}
					],
					"name": "returnNftsOwner",
					"outputs": [
						{
							"internalType": "uint256[]",
							"name": "",
							"type": "uint256[]"
						}
					],
					"stateMutability": "view",
					"type": "function"
				},
				{
					"inputs": [
						{
							"internalType": "uint256",
							"name": "_mintFee",
							"type": "uint256"
						}
					],
					"name": "setMintFee",
					"outputs": [],
					"stateMutability": "nonpayable",
					"type": "function"
				},
				{
					"inputs": [],
					"name": "stopDropsite",
					"outputs": [],
					"stateMutability": "nonpayable",
					"type": "function"
				},
				{
					"inputs": [
						{
							"internalType": "address payable",
							"name": "to",
							"type": "address"
						},
						{
							"internalType": "uint256",
							"name": "amount",
							"type": "uint256"
						}
					],
					"name": "withDraw",
					"outputs": [],
					"stateMutability": "nonpayable",
					"type": "function"
				}
			],
			"devdoc": {
				"kind": "dev",
				"methods": {},
				"version": 1
			},
			"evm": {
				"assembly": "    /* \"NFTES_Drop_flat.sol\":15472:24146  contract NFTES_Drop is ERC1155_Drop {... */\n  mstore(0x40, 0x80)\n    /* \"NFTES_Drop_flat.sol\":15562:15578  string data = \"\" */\n  mload(0x40)\n  dup1\n  0x20\n  add\n  0x40\n  mstore\n  dup1\n  0x00\n  dup2\n  mstore\n  pop\n  0x02\n  swap1\n  dup1\n  mload\n  swap1\n  0x20\n  add\n  swap1\n  tag_1\n  swap3\n  swap2\n  swap1\n  tag_2\n  jump\t// in\ntag_1:\n  pop\n    /* \"NFTES_Drop_flat.sol\":15830:15832  50 */\n  0x32\n    /* \"NFTES_Drop_flat.sol\":15806:15832  uint256 maxDiamondCount=50 */\n  0x09\n  sstore\n    /* \"NFTES_Drop_flat.sol\":15859:15862  100 */\n  0x64\n    /* \"NFTES_Drop_flat.sol\":15838:15862  uint256 maxGoldCount=100 */\n  0x0a\n  sstore\n    /* \"NFTES_Drop_flat.sol\":15891:15894  850 */\n  0x0352\n    /* \"NFTES_Drop_flat.sol\":15868:15894  uint256 maxSilverCount=850 */\n  0x0b\n  sstore\n    /* \"NFTES_Drop_flat.sol\":16627:16631  true */\n  0x01\n    /* \"NFTES_Drop_flat.sol\":16604:16631  bool public isPaused = true */\n  0x0e\n  exp(0x0100, 0x00)\n  dup2\n  sload\n  dup2\n  0xff\n  mul\n  not\n  and\n  swap1\n  dup4\n  iszero\n  iszero\n  mul\n  or\n  swap1\n  sstore\n  pop\n    /* \"NFTES_Drop_flat.sol\":16823:17141  constructor(string memory name) {... */\n  callvalue\n  dup1\n  iszero\n  tag_3\n  jumpi\n  0x00\n  dup1\n  revert\ntag_3:\n  pop\n  mload(0x40)\n  sub(codesize, bytecodeSize)\n  dup1\n  bytecodeSize\n  dup4\n  codecopy\n  dup2\n  dup2\n  add\n  0x40\n  mstore\n  dup2\n  add\n  swap1\n  tag_4\n  swap2\n  swap1\n  tag_5\n  jump\t// in\ntag_4:\n    /* \"NFTES_Drop_flat.sol\":16873:16877  name */\n  dup1\n    /* \"NFTES_Drop_flat.sol\":16865:16870  _name */\n  0x0f\n    /* \"NFTES_Drop_flat.sol\":16865:16877  _name = name */\n  swap1\n  dup1\n  mload\n  swap1\n  0x20\n  add\n  swap1\n  tag_8\n  swap3\n  swap2\n  swap1\n  tag_2\n  jump\t// in\ntag_8:\n  pop\n    /* \"NFTES_Drop_flat.sol\":16903:16913  msg.sender */\n  caller\n    /* \"NFTES_Drop_flat.sol\":16887:16892  Owner */\n  0x0e\n  0x01\n    /* \"NFTES_Drop_flat.sol\":16887:16914  Owner = payable(msg.sender) */\n  0x0100\n  exp\n  dup2\n  sload\n  dup2\n  0xffffffffffffffffffffffffffffffffffffffff\n  mul\n  not\n  and\n  swap1\n  dup4\n  0xffffffffffffffffffffffffffffffffffffffff\n  and\n  mul\n  or\n  swap1\n  sstore\n  pop\n    /* \"NFTES_Drop_flat.sol\":16943:16944  0 */\n  0x00\n    /* \"NFTES_Drop_flat.sol\":16925:16940  totalNFTsMinted */\n  0x03\n    /* \"NFTES_Drop_flat.sol\":16925:16944  totalNFTsMinted = 0 */\n  dup2\n  swap1\n  sstore\n  pop\n    /* \"NFTES_Drop_flat.sol\":16988:16989  1 */\n  0x01\n    /* \"NFTES_Drop_flat.sol\":16974:16985  numOfCopies */\n  0x04\n    /* \"NFTES_Drop_flat.sol\":16974:16989  numOfCopies = 1 */\n  dup2\n  swap1\n  sstore\n  pop\n    /* \"NFTES_Drop_flat.sol\":17095:17096  0 */\n  0x00\n    /* \"NFTES_Drop_flat.sol\":17085:17092  Diamond */\n  0x06\n    /* \"NFTES_Drop_flat.sol\":17085:17096  Diamond = 0 */\n  dup2\n  swap1\n  sstore\n  pop\n    /* \"NFTES_Drop_flat.sol\":17113:17114  0 */\n  0x00\n    /* \"NFTES_Drop_flat.sol\":17106:17110  Gold */\n  0x07\n    /* \"NFTES_Drop_flat.sol\":17106:17114  Gold = 0 */\n  dup2\n  swap1\n  sstore\n  pop\n    /* \"NFTES_Drop_flat.sol\":17133:17134  0 */\n  0x00\n    /* \"NFTES_Drop_flat.sol\":17124:17130  Silver */\n  0x08\n    /* \"NFTES_Drop_flat.sol\":17124:17134  Silver = 0 */\n  dup2\n  swap1\n  sstore\n  pop\n    /* \"NFTES_Drop_flat.sol\":16823:17141  constructor(string memory name) {... */\n  pop\n    /* \"NFTES_Drop_flat.sol\":15472:24146  contract NFTES_Drop is ERC1155_Drop {... */\n  jump(tag_9)\ntag_2:\n  dup3\n  dup1\n  sload\n  tag_10\n  swap1\n  tag_11\n  jump\t// in\ntag_10:\n  swap1\n  0x00\n  mstore\n  keccak256(0x00, 0x20)\n  swap1\n  0x1f\n  add\n  0x20\n  swap1\n  div\n  dup2\n  add\n  swap3\n  dup3\n  tag_13\n  jumpi\n  0x00\n  dup6\n  sstore\n  jump(tag_12)\ntag_13:\n  dup3\n  0x1f\n  lt\n  tag_14\n  jumpi\n  dup1\n  mload\n  not(0xff)\n  and\n  dup4\n  dup1\n  add\n  or\n  dup6\n  sstore\n  jump(tag_12)\ntag_14:\n  dup3\n  dup1\n  add\n  0x01\n  add\n  dup6\n  sstore\n  dup3\n  iszero\n  tag_12\n  jumpi\n  swap2\n  dup3\n  add\ntag_15:\n  dup3\n  dup2\n  gt\n  iszero\n  tag_16\n  jumpi\n  dup3\n  mload\n  dup3\n  sstore\n  swap2\n  0x20\n  add\n  swap2\n  swap1\n  0x01\n  add\n  swap1\n  jump(tag_15)\ntag_16:\ntag_12:\n  pop\n  swap1\n  pop\n  tag_17\n  swap2\n  swap1\n  tag_18\n  jump\t// in\ntag_17:\n  pop\n  swap1\n  jump\t// out\ntag_18:\ntag_19:\n  dup1\n  dup3\n  gt\n  iszero\n  tag_20\n  jumpi\n  0x00\n  dup2\n  0x00\n  swap1\n  sstore\n  pop\n  0x01\n  add\n  jump(tag_19)\ntag_20:\n  pop\n  swap1\n  jump\t// out\n    /* \"#utility.yul\":7:428   */\ntag_22:\n    /* \"#utility.yul\":96:101   */\n  0x00\n    /* \"#utility.yul\":121:187   */\n  tag_24\n    /* \"#utility.yul\":137:186   */\n  tag_25\n    /* \"#utility.yul\":179:185   */\n  dup5\n    /* \"#utility.yul\":137:186   */\n  tag_26\n  jump\t// in\ntag_25:\n    /* \"#utility.yul\":121:187   */\n  tag_27\n  jump\t// in\ntag_24:\n    /* \"#utility.yul\":112:187   */\n  swap1\n  pop\n    /* \"#utility.yul\":210:216   */\n  dup3\n    /* \"#utility.yul\":203:208   */\n  dup2\n    /* \"#utility.yul\":196:217   */\n  mstore\n    /* \"#utility.yul\":248:252   */\n  0x20\n    /* \"#utility.yul\":241:246   */\n  dup2\n    /* \"#utility.yul\":237:253   */\n  add\n    /* \"#utility.yul\":286:289   */\n  dup5\n    /* \"#utility.yul\":277:283   */\n  dup5\n    /* \"#utility.yul\":272:275   */\n  dup5\n    /* \"#utility.yul\":268:284   */\n  add\n    /* \"#utility.yul\":265:290   */\n  gt\n    /* \"#utility.yul\":262:374   */\n  iszero\n  tag_28\n  jumpi\n    /* \"#utility.yul\":293:372   */\n  tag_29\n  tag_30\n  jump\t// in\ntag_29:\n    /* \"#utility.yul\":262:374   */\ntag_28:\n    /* \"#utility.yul\":383:422   */\n  tag_31\n    /* \"#utility.yul\":415:421   */\n  dup5\n    /* \"#utility.yul\":410:413   */\n  dup3\n    /* \"#utility.yul\":405:408   */\n  dup6\n    /* \"#utility.yul\":383:422   */\n  tag_32\n  jump\t// in\ntag_31:\n    /* \"#utility.yul\":102:428   */\n  pop\n    /* \"#utility.yul\":7:428   */\n  swap4\n  swap3\n  pop\n  pop\n  pop\n  jump\t// out\n    /* \"#utility.yul\":448:803   */\ntag_33:\n    /* \"#utility.yul\":515:520   */\n  0x00\n    /* \"#utility.yul\":564:567   */\n  dup3\n    /* \"#utility.yul\":557:561   */\n  0x1f\n    /* \"#utility.yul\":549:555   */\n  dup4\n    /* \"#utility.yul\":545:562   */\n  add\n    /* \"#utility.yul\":541:568   */\n  slt\n    /* \"#utility.yul\":531:653   */\n  tag_35\n  jumpi\n    /* \"#utility.yul\":572:651   */\n  tag_36\n  tag_37\n  jump\t// in\ntag_36:\n    /* \"#utility.yul\":531:653   */\ntag_35:\n    /* \"#utility.yul\":682:688   */\n  dup2\n    /* \"#utility.yul\":676:689   */\n  mload\n    /* \"#utility.yul\":707:797   */\n  tag_38\n    /* \"#utility.yul\":793:796   */\n  dup5\n    /* \"#utility.yul\":785:791   */\n  dup3\n    /* \"#utility.yul\":778:782   */\n  0x20\n    /* \"#utility.yul\":770:776   */\n  dup7\n    /* \"#utility.yul\":766:783   */\n  add\n    /* \"#utility.yul\":707:797   */\n  tag_22\n  jump\t// in\ntag_38:\n    /* \"#utility.yul\":698:797   */\n  swap2\n  pop\n    /* \"#utility.yul\":521:803   */\n  pop\n    /* \"#utility.yul\":448:803   */\n  swap3\n  swap2\n  pop\n  pop\n  jump\t// out\n    /* \"#utility.yul\":809:1333   */\ntag_5:\n    /* \"#utility.yul\":889:895   */\n  0x00\n    /* \"#utility.yul\":938:940   */\n  0x20\n    /* \"#utility.yul\":926:935   */\n  dup3\n    /* \"#utility.yul\":917:924   */\n  dup5\n    /* \"#utility.yul\":913:936   */\n  sub\n    /* \"#utility.yul\":909:941   */\n  slt\n    /* \"#utility.yul\":906:1025   */\n  iszero\n  tag_40\n  jumpi\n    /* \"#utility.yul\":944:1023   */\n  tag_41\n  tag_42\n  jump\t// in\ntag_41:\n    /* \"#utility.yul\":906:1025   */\ntag_40:\n    /* \"#utility.yul\":1085:1086   */\n  0x00\n    /* \"#utility.yul\":1074:1083   */\n  dup3\n    /* \"#utility.yul\":1070:1087   */\n  add\n    /* \"#utility.yul\":1064:1088   */\n  mload\n    /* \"#utility.yul\":1115:1133   */\n  0xffffffffffffffff\n    /* \"#utility.yul\":1107:1113   */\n  dup2\n    /* \"#utility.yul\":1104:1134   */\n  gt\n    /* \"#utility.yul\":1101:1218   */\n  iszero\n  tag_43\n  jumpi\n    /* \"#utility.yul\":1137:1216   */\n  tag_44\n  tag_45\n  jump\t// in\ntag_44:\n    /* \"#utility.yul\":1101:1218   */\ntag_43:\n    /* \"#utility.yul\":1242:1316   */\n  tag_46\n    /* \"#utility.yul\":1308:1315   */\n  dup5\n    /* \"#utility.yul\":1299:1305   */\n  dup3\n    /* \"#utility.yul\":1288:1297   */\n  dup6\n    /* \"#utility.yul\":1284:1306   */\n  add\n    /* \"#utility.yul\":1242:1316   */\n  tag_33\n  jump\t// in\ntag_46:\n    /* \"#utility.yul\":1232:1316   */\n  swap2\n  pop\n    /* \"#utility.yul\":1035:1326   */\n  pop\n    /* \"#utility.yul\":809:1333   */\n  swap3\n  swap2\n  pop\n  pop\n  jump\t// out\n    /* \"#utility.yul\":1339:1468   */\ntag_27:\n    /* \"#utility.yul\":1373:1379   */\n  0x00\n    /* \"#utility.yul\":1400:1420   */\n  tag_48\n  tag_49\n  jump\t// in\ntag_48:\n    /* \"#utility.yul\":1390:1420   */\n  swap1\n  pop\n    /* \"#utility.yul\":1429:1462   */\n  tag_50\n    /* \"#utility.yul\":1457:1461   */\n  dup3\n    /* \"#utility.yul\":1449:1455   */\n  dup3\n    /* \"#utility.yul\":1429:1462   */\n  tag_51\n  jump\t// in\ntag_50:\n    /* \"#utility.yul\":1339:1468   */\n  swap2\n  swap1\n  pop\n  jump\t// out\n    /* \"#utility.yul\":1474:1549   */\ntag_49:\n    /* \"#utility.yul\":1507:1513   */\n  0x00\n    /* \"#utility.yul\":1540:1542   */\n  0x40\n    /* \"#utility.yul\":1534:1543   */\n  mload\n    /* \"#utility.yul\":1524:1543   */\n  swap1\n  pop\n    /* \"#utility.yul\":1474:1549   */\n  swap1\n  jump\t// out\n    /* \"#utility.yul\":1555:1863   */\ntag_26:\n    /* \"#utility.yul\":1617:1621   */\n  0x00\n    /* \"#utility.yul\":1707:1725   */\n  0xffffffffffffffff\n    /* \"#utility.yul\":1699:1705   */\n  dup3\n    /* \"#utility.yul\":1696:1726   */\n  gt\n    /* \"#utility.yul\":1693:1749   */\n  iszero\n  tag_54\n  jumpi\n    /* \"#utility.yul\":1729:1747   */\n  tag_55\n  tag_56\n  jump\t// in\ntag_55:\n    /* \"#utility.yul\":1693:1749   */\ntag_54:\n    /* \"#utility.yul\":1767:1796   */\n  tag_57\n    /* \"#utility.yul\":1789:1795   */\n  dup3\n    /* \"#utility.yul\":1767:1796   */\n  tag_58\n  jump\t// in\ntag_57:\n    /* \"#utility.yul\":1759:1796   */\n  swap1\n  pop\n    /* \"#utility.yul\":1851:1855   */\n  0x20\n    /* \"#utility.yul\":1845:1849   */\n  dup2\n    /* \"#utility.yul\":1841:1856   */\n  add\n    /* \"#utility.yul\":1833:1856   */\n  swap1\n  pop\n    /* \"#utility.yul\":1555:1863   */\n  swap2\n  swap1\n  pop\n  jump\t// out\n    /* \"#utility.yul\":1869:2176   */\ntag_32:\n    /* \"#utility.yul\":1937:1938   */\n  0x00\n    /* \"#utility.yul\":1947:2060   */\ntag_60:\n    /* \"#utility.yul\":1961:1967   */\n  dup4\n    /* \"#utility.yul\":1958:1959   */\n  dup2\n    /* \"#utility.yul\":1955:1968   */\n  lt\n    /* \"#utility.yul\":1947:2060   */\n  iszero\n  tag_62\n  jumpi\n    /* \"#utility.yul\":2046:2047   */\n  dup1\n    /* \"#utility.yul\":2041:2044   */\n  dup3\n    /* \"#utility.yul\":2037:2048   */\n  add\n    /* \"#utility.yul\":2031:2049   */\n  mload\n    /* \"#utility.yul\":2027:2028   */\n  dup2\n    /* \"#utility.yul\":2022:2025   */\n  dup5\n    /* \"#utility.yul\":2018:2029   */\n  add\n    /* \"#utility.yul\":2011:2050   */\n  mstore\n    /* \"#utility.yul\":1983:1985   */\n  0x20\n    /* \"#utility.yul\":1980:1981   */\n  dup2\n    /* \"#utility.yul\":1976:1986   */\n  add\n    /* \"#utility.yul\":1971:1986   */\n  swap1\n  pop\n    /* \"#utility.yul\":1947:2060   */\n  jump(tag_60)\ntag_62:\n    /* \"#utility.yul\":2078:2084   */\n  dup4\n    /* \"#utility.yul\":2075:2076   */\n  dup2\n    /* \"#utility.yul\":2072:2085   */\n  gt\n    /* \"#utility.yul\":2069:2170   */\n  iszero\n  tag_63\n  jumpi\n    /* \"#utility.yul\":2158:2159   */\n  0x00\n    /* \"#utility.yul\":2149:2155   */\n  dup5\n    /* \"#utility.yul\":2144:2147   */\n  dup5\n    /* \"#utility.yul\":2140:2156   */\n  add\n    /* \"#utility.yul\":2133:2160   */\n  mstore\n    /* \"#utility.yul\":2069:2170   */\ntag_63:\n    /* \"#utility.yul\":1918:2176   */\n  pop\n    /* \"#utility.yul\":1869:2176   */\n  pop\n  pop\n  pop\n  jump\t// out\n    /* \"#utility.yul\":2182:2502   */\ntag_11:\n    /* \"#utility.yul\":2226:2232   */\n  0x00\n    /* \"#utility.yul\":2263:2264   */\n  0x02\n    /* \"#utility.yul\":2257:2261   */\n  dup3\n    /* \"#utility.yul\":2253:2265   */\n  div\n    /* \"#utility.yul\":2243:2265   */\n  swap1\n  pop\n    /* \"#utility.yul\":2310:2311   */\n  0x01\n    /* \"#utility.yul\":2304:2308   */\n  dup3\n    /* \"#utility.yul\":2300:2312   */\n  and\n    /* \"#utility.yul\":2331:2349   */\n  dup1\n    /* \"#utility.yul\":2321:2402   */\n  tag_65\n  jumpi\n    /* \"#utility.yul\":2387:2391   */\n  0x7f\n    /* \"#utility.yul\":2379:2385   */\n  dup3\n    /* \"#utility.yul\":2375:2392   */\n  and\n    /* \"#utility.yul\":2365:2392   */\n  swap2\n  pop\n    /* \"#utility.yul\":2321:2402   */\ntag_65:\n    /* \"#utility.yul\":2449:2451   */\n  0x20\n    /* \"#utility.yul\":2441:2447   */\n  dup3\n    /* \"#utility.yul\":2438:2452   */\n  lt\n    /* \"#utility.yul\":2418:2436   */\n  dup2\n    /* \"#utility.yul\":2415:2453   */\n  eq\n    /* \"#utility.yul\":2412:2496   */\n  iszero\n  tag_66\n  jumpi\n    /* \"#utility.yul\":2468:2486   */\n  tag_67\n  tag_68\n  jump\t// in\ntag_67:\n    /* \"#utility.yul\":2412:2496   */\ntag_66:\n    /* \"#utility.yul\":2233:2502   */\n  pop\n    /* \"#utility.yul\":2182:2502   */\n  swap2\n  swap1\n  pop\n  jump\t// out\n    /* \"#utility.yul\":2508:2789   */\ntag_51:\n    /* \"#utility.yul\":2591:2618   */\n  tag_70\n    /* \"#utility.yul\":2613:2617   */\n  dup3\n    /* \"#utility.yul\":2591:2618   */\n  tag_58\n  jump\t// in\ntag_70:\n    /* \"#utility.yul\":2583:2589   */\n  dup2\n    /* \"#utility.yul\":2579:2619   */\n  add\n    /* \"#utility.yul\":2721:2727   */\n  dup2\n    /* \"#utility.yul\":2709:2719   */\n  dup2\n    /* \"#utility.yul\":2706:2728   */\n  lt\n    /* \"#utility.yul\":2685:2703   */\n  0xffffffffffffffff\n    /* \"#utility.yul\":2673:2683   */\n  dup3\n    /* \"#utility.yul\":2670:2704   */\n  gt\n    /* \"#utility.yul\":2667:2729   */\n  or\n    /* \"#utility.yul\":2664:2752   */\n  iszero\n  tag_71\n  jumpi\n    /* \"#utility.yul\":2732:2750   */\n  tag_72\n  tag_56\n  jump\t// in\ntag_72:\n    /* \"#utility.yul\":2664:2752   */\ntag_71:\n    /* \"#utility.yul\":2772:2782   */\n  dup1\n    /* \"#utility.yul\":2768:2770   */\n  0x40\n    /* \"#utility.yul\":2761:2783   */\n  mstore\n    /* \"#utility.yul\":2551:2789   */\n  pop\n    /* \"#utility.yul\":2508:2789   */\n  pop\n  pop\n  jump\t// out\n    /* \"#utility.yul\":2795:2975   */\ntag_68:\n    /* \"#utility.yul\":2843:2920   */\n  0x4e487b7100000000000000000000000000000000000000000000000000000000\n    /* \"#utility.yul\":2840:2841   */\n  0x00\n    /* \"#utility.yul\":2833:2921   */\n  mstore\n    /* \"#utility.yul\":2940:2944   */\n  0x22\n    /* \"#utility.yul\":2937:2938   */\n  0x04\n    /* \"#utility.yul\":2930:2945   */\n  mstore\n    /* \"#utility.yul\":2964:2968   */\n  0x24\n    /* \"#utility.yul\":2961:2962   */\n  0x00\n    /* \"#utility.yul\":2954:2969   */\n  revert\n    /* \"#utility.yul\":2981:3161   */\ntag_56:\n    /* \"#utility.yul\":3029:3106   */\n  0x4e487b7100000000000000000000000000000000000000000000000000000000\n    /* \"#utility.yul\":3026:3027   */\n  0x00\n    /* \"#utility.yul\":3019:3107   */\n  mstore\n    /* \"#utility.yul\":3126:3130   */\n  0x41\n    /* \"#utility.yul\":3123:3124   */\n  0x04\n    /* \"#utility.yul\":3116:3131   */\n  mstore\n    /* \"#utility.yul\":3150:3154   */\n  0x24\n    /* \"#utility.yul\":3147:3148   */\n  0x00\n    /* \"#utility.yul\":3140:3155   */\n  revert\n    /* \"#utility.yul\":3167:3284   */\ntag_37:\n    /* \"#utility.yul\":3276:3277   */\n  0x00\n    /* \"#utility.yul\":3273:3274   */\n  dup1\n    /* \"#utility.yul\":3266:3278   */\n  revert\n    /* \"#utility.yul\":3290:3407   */\ntag_30:\n    /* \"#utility.yul\":3399:3400   */\n  0x00\n    /* \"#utility.yul\":3396:3397   */\n  dup1\n    /* \"#utility.yul\":3389:3401   */\n  revert\n    /* \"#utility.yul\":3413:3530   */\ntag_45:\n    /* \"#utility.yul\":3522:3523   */\n  0x00\n    /* \"#utility.yul\":3519:3520   */\n  dup1\n    /* \"#utility.yul\":3512:3524   */\n  revert\n    /* \"#utility.yul\":3536:3653   */\ntag_42:\n    /* \"#utility.yul\":3645:3646   */\n  0x00\n    /* \"#utility.yul\":3642:3643   */\n  dup1\n    /* \"#utility.yul\":3635:3647   */\n  revert\n    /* \"#utility.yul\":3659:3761   */\ntag_58:\n    /* \"#utility.yul\":3700:3706   */\n  0x00\n    /* \"#utility.yul\":3751:3753   */\n  0x1f\n    /* \"#utility.yul\":3747:3754   */\n  not\n    /* \"#utility.yul\":3742:3744   */\n  0x1f\n    /* \"#utility.yul\":3735:3740   */\n  dup4\n    /* \"#utility.yul\":3731:3745   */\n  add\n    /* \"#utility.yul\":3727:3755   */\n  and\n    /* \"#utility.yul\":3717:3755   */\n  swap1\n  pop\n    /* \"#utility.yul\":3659:3761   */\n  swap2\n  swap1\n  pop\n  jump\t// out\n    /* \"NFTES_Drop_flat.sol\":15472:24146  contract NFTES_Drop is ERC1155_Drop {... */\ntag_9:\n  dataSize(sub_0)\n  dup1\n  dataOffset(sub_0)\n  0x00\n  codecopy\n  0x00\n  return\nstop\n\nsub_0: assembly {\n        /* \"NFTES_Drop_flat.sol\":15472:24146  contract NFTES_Drop is ERC1155_Drop {... */\n      mstore(0x40, 0x80)\n      jumpi(tag_1, lt(calldatasize, 0x04))\n      shr(0xe0, calldataload(0x00))\n      dup1\n      0x8b7afe2e\n      gt\n      tag_20\n      jumpi\n      dup1\n      0xb187bd26\n      gt\n      tag_21\n      jumpi\n      dup1\n      0xb187bd26\n      eq\n      tag_15\n      jumpi\n      dup1\n      0xb4a99a4e\n      eq\n      tag_16\n      jumpi\n      dup1\n      0xb6db75a0\n      eq\n      tag_17\n      jumpi\n      dup1\n      0xb84c185e\n      eq\n      tag_18\n      jumpi\n      dup1\n      0xeddd0d9c\n      eq\n      tag_19\n      jumpi\n      jump(tag_1)\n    tag_21:\n      dup1\n      0x8b7afe2e\n      eq\n      tag_11\n      jumpi\n      dup1\n      0xa56538e0\n      eq\n      tag_12\n      jumpi\n      dup1\n      0xa6f9dae1\n      eq\n      tag_13\n      jumpi\n      dup1\n      0xaa90c726\n      eq\n      tag_14\n      jumpi\n      jump(tag_1)\n    tag_20:\n      dup1\n      0x225011da\n      gt\n      tag_22\n      jumpi\n      dup1\n      0x225011da\n      eq\n      tag_6\n      jumpi\n      dup1\n      0x5b27d84e\n      eq\n      tag_7\n      jumpi\n      dup1\n      0x5e1f0556\n      eq\n      tag_8\n      jumpi\n      dup1\n      0x60daa851\n      eq\n      tag_9\n      jumpi\n      dup1\n      0x7a5caab3\n      eq\n      tag_10\n      jumpi\n      jump(tag_1)\n    tag_22:\n      dup1\n      0x0390c11c\n      eq\n      tag_2\n      jumpi\n      dup1\n      0x15460259\n      eq\n      tag_3\n      jumpi\n      dup1\n      0x17b612e6\n      eq\n      tag_4\n      jumpi\n      dup1\n      0x191e2e83\n      eq\n      tag_5\n      jumpi\n    tag_1:\n      0x00\n      dup1\n      revert\n        /* \"NFTES_Drop_flat.sol\":18284:18381  function checkTotalMinted() public view returns (uint256) {... */\n    tag_2:\n      callvalue\n      dup1\n      iszero\n      tag_23\n      jumpi\n      0x00\n      dup1\n      revert\n    tag_23:\n      pop\n      tag_24\n      tag_25\n      jump\t// in\n    tag_24:\n      mload(0x40)\n      tag_26\n      swap2\n      swap1\n      tag_27\n      jump\t// in\n    tag_26:\n      mload(0x40)\n      dup1\n      swap2\n      sub\n      swap1\n      return\n        /* \"NFTES_Drop_flat.sol\":18533:18673  function openDropsite() public OnlyOwner {... */\n    tag_3:\n      callvalue\n      dup1\n      iszero\n      tag_28\n      jumpi\n      0x00\n      dup1\n      revert\n    tag_28:\n      pop\n      tag_29\n      tag_30\n      jump\t// in\n    tag_29:\n      stop\n        /* \"NFTES_Drop_flat.sol\":16741:16774  uint public constant Gold_ID  = 1 */\n    tag_4:\n      callvalue\n      dup1\n      iszero\n      tag_31\n      jumpi\n      0x00\n      dup1\n      revert\n    tag_31:\n      pop\n      tag_32\n      tag_33\n      jump\t// in\n    tag_32:\n      mload(0x40)\n      tag_34\n      swap2\n      swap1\n      tag_27\n      jump\t// in\n    tag_34:\n      mload(0x40)\n      dup1\n      swap2\n      sub\n      swap1\n      return\n        /* \"NFTES_Drop_flat.sol\":18762:18980  function withDraw(address payable to, uint amount) public  OnlyOwner {... */\n    tag_5:\n      callvalue\n      dup1\n      iszero\n      tag_35\n      jumpi\n      0x00\n      dup1\n      revert\n    tag_35:\n      pop\n      tag_36\n      0x04\n      dup1\n      calldatasize\n      sub\n      dup2\n      add\n      swap1\n      tag_37\n      swap2\n      swap1\n      tag_38\n      jump\t// in\n    tag_37:\n      tag_39\n      jump\t// in\n    tag_36:\n      stop\n        /* \"NFTES_Drop_flat.sol\":17471:17673  function returnNftsOwner(address addr)... */\n    tag_6:\n      callvalue\n      dup1\n      iszero\n      tag_40\n      jumpi\n      0x00\n      dup1\n      revert\n    tag_40:\n      pop\n      tag_41\n      0x04\n      dup1\n      calldatasize\n      sub\n      dup2\n      add\n      swap1\n      tag_42\n      swap2\n      swap1\n      tag_43\n      jump\t// in\n    tag_42:\n      tag_44\n      jump\t// in\n    tag_41:\n      mload(0x40)\n      tag_45\n      swap2\n      swap1\n      tag_46\n      jump\t// in\n    tag_45:\n      mload(0x40)\n      dup1\n      swap2\n      sub\n      swap1\n      return\n        /* \"NFTES_Drop_flat.sol\":23155:24144  function cryptoRandomMint(address user_addr, uint256 noOfMints)... */\n    tag_7:\n      tag_47\n      0x04\n      dup1\n      calldatasize\n      sub\n      dup2\n      add\n      swap1\n      tag_48\n      swap2\n      swap1\n      tag_49\n      jump\t// in\n    tag_48:\n      tag_50\n      jump\t// in\n    tag_47:\n      mload(0x40)\n      tag_51\n      swap2\n      swap1\n      tag_52\n      jump\t// in\n    tag_51:\n      mload(0x40)\n      dup1\n      swap2\n      sub\n      swap1\n      return\n        /* \"NFTES_Drop_flat.sol\":22019:22888  function fiatRandomMint(address user_addr, uint256 noOfMints)... */\n    tag_8:\n      callvalue\n      dup1\n      iszero\n      tag_53\n      jumpi\n      0x00\n      dup1\n      revert\n    tag_53:\n      pop\n      tag_54\n      0x04\n      dup1\n      calldatasize\n      sub\n      dup2\n      add\n      swap1\n      tag_55\n      swap2\n      swap1\n      tag_49\n      jump\t// in\n    tag_55:\n      tag_56\n      jump\t// in\n    tag_54:\n      mload(0x40)\n      tag_57\n      swap2\n      swap1\n      tag_52\n      jump\t// in\n    tag_57:\n      mload(0x40)\n      dup1\n      swap2\n      sub\n      swap1\n      return\n        /* \"NFTES_Drop_flat.sol\":17726:17967  function checkMintedCategoryWise()... */\n    tag_9:\n      callvalue\n      dup1\n      iszero\n      tag_58\n      jumpi\n      0x00\n      dup1\n      revert\n    tag_58:\n      pop\n      tag_59\n      tag_60\n      jump\t// in\n    tag_59:\n      mload(0x40)\n      tag_61\n      swap4\n      swap3\n      swap2\n      swap1\n      tag_62\n      jump\t// in\n    tag_61:\n      mload(0x40)\n      dup1\n      swap2\n      sub\n      swap1\n      return\n        /* \"NFTES_Drop_flat.sol\":18133:18245  function getMintFee()... */\n    tag_10:\n      callvalue\n      dup1\n      iszero\n      tag_63\n      jumpi\n      0x00\n      dup1\n      revert\n    tag_63:\n      pop\n      tag_64\n      tag_65\n      jump\t// in\n    tag_64:\n      mload(0x40)\n      tag_66\n      swap2\n      swap1\n      tag_27\n      jump\t// in\n    tag_66:\n      mload(0x40)\n      dup1\n      swap2\n      sub\n      swap1\n      return\n        /* \"NFTES_Drop_flat.sol\":19025:19137  function contractBalance() public view OnlyOwner returns (uint256) {... */\n    tag_11:\n      callvalue\n      dup1\n      iszero\n      tag_67\n      jumpi\n      0x00\n      dup1\n      revert\n    tag_67:\n      pop\n      tag_68\n      tag_69\n      jump\t// in\n    tag_68:\n      mload(0x40)\n      tag_70\n      swap2\n      swap1\n      tag_27\n      jump\t// in\n    tag_70:\n      mload(0x40)\n      dup1\n      swap2\n      sub\n      swap1\n      return\n        /* \"NFTES_Drop_flat.sol\":16780:16815  uint public constant SILVER_ID  = 2 */\n    tag_12:\n      callvalue\n      dup1\n      iszero\n      tag_71\n      jumpi\n      0x00\n      dup1\n      revert\n    tag_71:\n      pop\n      tag_72\n      tag_73\n      jump\t// in\n    tag_72:\n      mload(0x40)\n      tag_74\n      swap2\n      swap1\n      tag_27\n      jump\t// in\n    tag_74:\n      mload(0x40)\n      dup1\n      swap2\n      sub\n      swap1\n      return\n        /* \"NFTES_Drop_flat.sol\":17273:17427  function changeOwner(address newOwnerAddr)... */\n    tag_13:\n      callvalue\n      dup1\n      iszero\n      tag_75\n      jumpi\n      0x00\n      dup1\n      revert\n    tag_75:\n      pop\n      tag_76\n      0x04\n      dup1\n      calldatasize\n      sub\n      dup2\n      add\n      swap1\n      tag_77\n      swap2\n      swap1\n      tag_43\n      jump\t// in\n    tag_77:\n      tag_78\n      jump\t// in\n    tag_76:\n      stop\n        /* \"NFTES_Drop_flat.sol\":18387:18527  function stopDropsite() public OnlyOwner {... */\n    tag_14:\n      callvalue\n      dup1\n      iszero\n      tag_79\n      jumpi\n      0x00\n      dup1\n      revert\n    tag_79:\n      pop\n      tag_80\n      tag_81\n      jump\t// in\n    tag_80:\n      stop\n        /* \"NFTES_Drop_flat.sol\":16604:16631  bool public isPaused = true */\n    tag_15:\n      callvalue\n      dup1\n      iszero\n      tag_82\n      jumpi\n      0x00\n      dup1\n      revert\n    tag_82:\n      pop\n      tag_83\n      tag_84\n      jump\t// in\n    tag_83:\n      mload(0x40)\n      tag_85\n      swap2\n      swap1\n      tag_86\n      jump\t// in\n    tag_85:\n      mload(0x40)\n      dup1\n      swap2\n      sub\n      swap1\n      return\n        /* \"NFTES_Drop_flat.sol\":16637:16665  address payable public Owner */\n    tag_16:\n      callvalue\n      dup1\n      iszero\n      tag_87\n      jumpi\n      0x00\n      dup1\n      revert\n    tag_87:\n      pop\n      tag_88\n      tag_89\n      jump\t// in\n    tag_88:\n      mload(0x40)\n      tag_90\n      swap2\n      swap1\n      tag_91\n      jump\t// in\n    tag_90:\n      mload(0x40)\n      dup1\n      swap2\n      sub\n      swap1\n      return\n        /* \"NFTES_Drop_flat.sol\":17146:17268  function isAdmin() public view returns (bool){... */\n    tag_17:\n      callvalue\n      dup1\n      iszero\n      tag_92\n      jumpi\n      0x00\n      dup1\n      revert\n    tag_92:\n      pop\n      tag_93\n      tag_94\n      jump\t// in\n    tag_93:\n      mload(0x40)\n      tag_95\n      swap2\n      swap1\n      tag_86\n      jump\t// in\n    tag_95:\n      mload(0x40)\n      dup1\n      swap2\n      sub\n      swap1\n      return\n        /* \"NFTES_Drop_flat.sol\":16698:16735  uint public constant DIAMOND_ID   = 0 */\n    tag_18:\n      callvalue\n      dup1\n      iszero\n      tag_96\n      jumpi\n      0x00\n      dup1\n      revert\n    tag_96:\n      pop\n      tag_97\n      tag_98\n      jump\t// in\n    tag_97:\n      mload(0x40)\n      tag_99\n      swap2\n      swap1\n      tag_27\n      jump\t// in\n    tag_99:\n      mload(0x40)\n      dup1\n      swap2\n      sub\n      swap1\n      return\n        /* \"NFTES_Drop_flat.sol\":18011:18100  function setMintFee(uint _mintFee) public OnlyOwner  {... */\n    tag_19:\n      callvalue\n      dup1\n      iszero\n      tag_100\n      jumpi\n      0x00\n      dup1\n      revert\n    tag_100:\n      pop\n      tag_101\n      0x04\n      dup1\n      calldatasize\n      sub\n      dup2\n      add\n      swap1\n      tag_102\n      swap2\n      swap1\n      tag_103\n      jump\t// in\n    tag_102:\n      tag_104\n      jump\t// in\n    tag_101:\n      stop\n        /* \"NFTES_Drop_flat.sol\":18284:18381  function checkTotalMinted() public view returns (uint256) {... */\n    tag_25:\n        /* \"NFTES_Drop_flat.sol\":18333:18340  uint256 */\n      0x00\n        /* \"NFTES_Drop_flat.sol\":18359:18374  totalNFTsMinted */\n      sload(0x03)\n        /* \"NFTES_Drop_flat.sol\":18352:18374  return totalNFTsMinted */\n      swap1\n      pop\n        /* \"NFTES_Drop_flat.sol\":18284:18381  function checkTotalMinted() public view returns (uint256) {... */\n      swap1\n      jump\t// out\n        /* \"NFTES_Drop_flat.sol\":18533:18673  function openDropsite() public OnlyOwner {... */\n    tag_30:\n        /* \"NFTES_Drop_flat.sol\":16262:16267  Owner */\n      0x0e\n      0x01\n      swap1\n      sload\n      swap1\n      0x0100\n      exp\n      swap1\n      div\n      0xffffffffffffffffffffffffffffffffffffffff\n      and\n        /* \"NFTES_Drop_flat.sol\":16246:16267  _msgSender() == Owner */\n      0xffffffffffffffffffffffffffffffffffffffff\n      and\n        /* \"NFTES_Drop_flat.sol\":16246:16258  _msgSender() */\n      tag_107\n        /* \"NFTES_Drop_flat.sol\":16246:16256  _msgSender */\n      tag_108\n        /* \"NFTES_Drop_flat.sol\":16246:16258  _msgSender() */\n      jump\t// in\n    tag_107:\n        /* \"NFTES_Drop_flat.sol\":16246:16267  _msgSender() == Owner */\n      0xffffffffffffffffffffffffffffffffffffffff\n      and\n      eq\n        /* \"NFTES_Drop_flat.sol\":16238:16300  require(_msgSender() == Owner, \"Only NFT-ES Owner can Access\") */\n      tag_109\n      jumpi\n      mload(0x40)\n      0x08c379a000000000000000000000000000000000000000000000000000000000\n      dup2\n      mstore\n      0x04\n      add\n      tag_110\n      swap1\n      tag_111\n      jump\t// in\n    tag_110:\n      mload(0x40)\n      dup1\n      swap2\n      sub\n      swap1\n      revert\n    tag_109:\n        /* \"NFTES_Drop_flat.sol\":18604:18608  true */\n      0x01\n        /* \"NFTES_Drop_flat.sol\":18592:18608  isPaused == true */\n      iszero\n      iszero\n        /* \"NFTES_Drop_flat.sol\":18592:18600  isPaused */\n      0x0e\n      0x00\n      swap1\n      sload\n      swap1\n      0x0100\n      exp\n      swap1\n      div\n      0xff\n      and\n        /* \"NFTES_Drop_flat.sol\":18592:18608  isPaused == true */\n      iszero\n      iszero\n      eq\n        /* \"NFTES_Drop_flat.sol\":18584:18640  require(isPaused == true, \"Dropsite is already Running\") */\n      tag_113\n      jumpi\n      mload(0x40)\n      0x08c379a000000000000000000000000000000000000000000000000000000000\n      dup2\n      mstore\n      0x04\n      add\n      tag_114\n      swap1\n      tag_115\n      jump\t// in\n    tag_114:\n      mload(0x40)\n      dup1\n      swap2\n      sub\n      swap1\n      revert\n    tag_113:\n        /* \"NFTES_Drop_flat.sol\":18661:18666  false */\n      0x00\n        /* \"NFTES_Drop_flat.sol\":18650:18658  isPaused */\n      0x0e\n      0x00\n        /* \"NFTES_Drop_flat.sol\":18650:18666  isPaused = false */\n      0x0100\n      exp\n      dup2\n      sload\n      dup2\n      0xff\n      mul\n      not\n      and\n      swap1\n      dup4\n      iszero\n      iszero\n      mul\n      or\n      swap1\n      sstore\n      pop\n        /* \"NFTES_Drop_flat.sol\":18533:18673  function openDropsite() public OnlyOwner {... */\n      jump\t// out\n        /* \"NFTES_Drop_flat.sol\":16741:16774  uint public constant Gold_ID  = 1 */\n    tag_33:\n        /* \"NFTES_Drop_flat.sol\":16773:16774  1 */\n      0x01\n        /* \"NFTES_Drop_flat.sol\":16741:16774  uint public constant Gold_ID  = 1 */\n      dup2\n      jump\t// out\n        /* \"NFTES_Drop_flat.sol\":18762:18980  function withDraw(address payable to, uint amount) public  OnlyOwner {... */\n    tag_39:\n        /* \"NFTES_Drop_flat.sol\":16262:16267  Owner */\n      0x0e\n      0x01\n      swap1\n      sload\n      swap1\n      0x0100\n      exp\n      swap1\n      div\n      0xffffffffffffffffffffffffffffffffffffffff\n      and\n        /* \"NFTES_Drop_flat.sol\":16246:16267  _msgSender() == Owner */\n      0xffffffffffffffffffffffffffffffffffffffff\n      and\n        /* \"NFTES_Drop_flat.sol\":16246:16258  _msgSender() */\n      tag_117\n        /* \"NFTES_Drop_flat.sol\":16246:16256  _msgSender */\n      tag_108\n        /* \"NFTES_Drop_flat.sol\":16246:16258  _msgSender() */\n      jump\t// in\n    tag_117:\n        /* \"NFTES_Drop_flat.sol\":16246:16267  _msgSender() == Owner */\n      0xffffffffffffffffffffffffffffffffffffffff\n      and\n      eq\n        /* \"NFTES_Drop_flat.sol\":16238:16300  require(_msgSender() == Owner, \"Only NFT-ES Owner can Access\") */\n      tag_118\n      jumpi\n      mload(0x40)\n      0x08c379a000000000000000000000000000000000000000000000000000000000\n      dup2\n      mstore\n      0x04\n      add\n      tag_119\n      swap1\n      tag_111\n      jump\t// in\n    tag_119:\n      mload(0x40)\n      dup1\n      swap2\n      sub\n      swap1\n      revert\n    tag_118:\n        /* \"NFTES_Drop_flat.sol\":18841:18856  uint256 Balance */\n      0x00\n        /* \"NFTES_Drop_flat.sol\":18859:18880  address(this).balance */\n      selfbalance\n        /* \"NFTES_Drop_flat.sol\":18841:18880  uint256 Balance = address(this).balance */\n      swap1\n      pop\n        /* \"NFTES_Drop_flat.sol\":18907:18914  Balance */\n      dup1\n        /* \"NFTES_Drop_flat.sol\":18898:18904  amount */\n      dup3\n        /* \"NFTES_Drop_flat.sol\":18898:18914  amount < Balance */\n      lt\n        /* \"NFTES_Drop_flat.sol\":18890:18944  require(amount < Balance, \"Error! Not Enough Balance\") */\n      tag_121\n      jumpi\n      mload(0x40)\n      0x08c379a000000000000000000000000000000000000000000000000000000000\n      dup2\n      mstore\n      0x04\n      add\n      tag_122\n      swap1\n      tag_123\n      jump\t// in\n    tag_122:\n      mload(0x40)\n      dup1\n      swap2\n      sub\n      swap1\n      revert\n    tag_121:\n        /* \"NFTES_Drop_flat.sol\":18954:18956  to */\n      dup3\n        /* \"NFTES_Drop_flat.sol\":18954:18965  to.transfer */\n      0xffffffffffffffffffffffffffffffffffffffff\n      and\n        /* \"NFTES_Drop_flat.sol\":18954:18973  to.transfer(amount) */\n      0x08fc\n        /* \"NFTES_Drop_flat.sol\":18966:18972  amount */\n      dup4\n        /* \"NFTES_Drop_flat.sol\":18954:18973  to.transfer(amount) */\n      swap1\n      dup2\n      iszero\n      mul\n      swap1\n      mload(0x40)\n      0x00\n      mload(0x40)\n      dup1\n      dup4\n      sub\n      dup2\n      dup6\n      dup9\n      dup9\n      call\n      swap4\n      pop\n      pop\n      pop\n      pop\n      iszero\n      dup1\n      iszero\n      tag_125\n      jumpi\n      returndatasize\n      0x00\n      dup1\n      returndatacopy\n      revert(0x00, returndatasize)\n    tag_125:\n      pop\n        /* \"NFTES_Drop_flat.sol\":18831:18980  {... */\n      pop\n        /* \"NFTES_Drop_flat.sol\":18762:18980  function withDraw(address payable to, uint amount) public  OnlyOwner {... */\n      pop\n      pop\n      jump\t// out\n        /* \"NFTES_Drop_flat.sol\":17471:17673  function returnNftsOwner(address addr)... */\n    tag_44:\n        /* \"NFTES_Drop_flat.sol\":17583:17599  uint256[] memory */\n      0x60\n        /* \"NFTES_Drop_flat.sol\":16427:16432  false */\n      0x00\n        /* \"NFTES_Drop_flat.sol\":16415:16432  isPaused == false */\n      iszero\n      iszero\n        /* \"NFTES_Drop_flat.sol\":16415:16423  isPaused */\n      0x0e\n      0x00\n      swap1\n      sload\n      swap1\n      0x0100\n      exp\n      swap1\n      div\n      0xff\n      and\n        /* \"NFTES_Drop_flat.sol\":16415:16432  isPaused == false */\n      iszero\n      iszero\n      eq\n        /* \"NFTES_Drop_flat.sol\":16407:16464  require(isPaused == false, \"Dropsite is not Opened Yet.\") */\n      tag_127\n      jumpi\n      mload(0x40)\n      0x08c379a000000000000000000000000000000000000000000000000000000000\n      dup2\n      mstore\n      0x04\n      add\n      tag_128\n      swap1\n      tag_129\n      jump\t// in\n    tag_128:\n      mload(0x40)\n      dup1\n      swap2\n      sub\n      swap1\n      revert\n    tag_127:\n        /* \"NFTES_Drop_flat.sol\":17622:17640  dropsite_NFT_Owner */\n      0x0c\n        /* \"NFTES_Drop_flat.sol\":17622:17646  dropsite_NFT_Owner[addr] */\n      0x00\n        /* \"NFTES_Drop_flat.sol\":17641:17645  addr */\n      dup4\n        /* \"NFTES_Drop_flat.sol\":17622:17646  dropsite_NFT_Owner[addr] */\n      0xffffffffffffffffffffffffffffffffffffffff\n      and\n      0xffffffffffffffffffffffffffffffffffffffff\n      and\n      dup2\n      mstore\n      0x20\n      add\n      swap1\n      dup2\n      mstore\n      0x20\n      add\n      0x00\n      keccak256\n        /* \"NFTES_Drop_flat.sol\":17622:17666  dropsite_NFT_Owner[addr].owned_Dropsite_NFTs */\n      0x00\n      add\n        /* \"NFTES_Drop_flat.sol\":17615:17666  return dropsite_NFT_Owner[addr].owned_Dropsite_NFTs */\n      dup1\n      sload\n      dup1\n      0x20\n      mul\n      0x20\n      add\n      mload(0x40)\n      swap1\n      dup2\n      add\n      0x40\n      mstore\n      dup1\n      swap3\n      swap2\n      swap1\n      dup2\n      dup2\n      mstore\n      0x20\n      add\n      dup3\n      dup1\n      sload\n      dup1\n      iszero\n      tag_131\n      jumpi\n      0x20\n      mul\n      dup3\n      add\n      swap2\n      swap1\n      0x00\n      mstore\n      keccak256(0x00, 0x20)\n      swap1\n    tag_132:\n      dup2\n      sload\n      dup2\n      mstore\n      0x20\n      add\n      swap1\n      0x01\n      add\n      swap1\n      dup1\n      dup4\n      gt\n      tag_132\n      jumpi\n    tag_131:\n      pop\n      pop\n      pop\n      pop\n      pop\n      swap1\n      pop\n        /* \"NFTES_Drop_flat.sol\":17471:17673  function returnNftsOwner(address addr)... */\n      swap2\n      swap1\n      pop\n      jump\t// out\n        /* \"NFTES_Drop_flat.sol\":23155:24144  function cryptoRandomMint(address user_addr, uint256 noOfMints)... */\n    tag_50:\n        /* \"NFTES_Drop_flat.sol\":23319:23334  string[] memory */\n      0x60\n        /* \"NFTES_Drop_flat.sol\":16427:16432  false */\n      0x00\n        /* \"NFTES_Drop_flat.sol\":16415:16432  isPaused == false */\n      iszero\n      iszero\n        /* \"NFTES_Drop_flat.sol\":16415:16423  isPaused */\n      0x0e\n      0x00\n      swap1\n      sload\n      swap1\n      0x0100\n      exp\n      swap1\n      div\n      0xff\n      and\n        /* \"NFTES_Drop_flat.sol\":16415:16432  isPaused == false */\n      iszero\n      iszero\n      eq\n        /* \"NFTES_Drop_flat.sol\":16407:16464  require(isPaused == false, \"Dropsite is not Opened Yet.\") */\n      tag_134\n      jumpi\n      mload(0x40)\n      0x08c379a000000000000000000000000000000000000000000000000000000000\n      dup2\n      mstore\n      0x04\n      add\n      tag_135\n      swap1\n      tag_129\n      jump\t// in\n    tag_135:\n      mload(0x40)\n      dup1\n      swap2\n      sub\n      swap1\n      revert\n    tag_134:\n        /* \"NFTES_Drop_flat.sol\":16544:16545  0 */\n      0x00\n        /* \"NFTES_Drop_flat.sol\":16532:16540  mintFees */\n      sload(0x05)\n        /* \"NFTES_Drop_flat.sol\":16532:16545  mintFees != 0 */\n      eq\n      iszero\n        /* \"NFTES_Drop_flat.sol\":16524:16581  require(mintFees != 0, \"Owner Should set mint Fee First\") */\n      tag_137\n      jumpi\n      mload(0x40)\n      0x08c379a000000000000000000000000000000000000000000000000000000000\n      dup2\n      mstore\n      0x04\n      add\n      tag_138\n      swap1\n      tag_139\n      jump\t// in\n    tag_138:\n      mload(0x40)\n      dup1\n      swap2\n      sub\n      swap1\n      revert\n    tag_137:\n        /* \"NFTES_Drop_flat.sol\":23370:23371  4 */\n      0x04\n        /* \"NFTES_Drop_flat.sol\":23358:23367  noOfMints */\n      dup3\n        /* \"NFTES_Drop_flat.sol\":23358:23371  noOfMints < 4 */\n      lt\n        /* \"NFTES_Drop_flat.sol\":23358:23388  noOfMints < 4 && noOfMints > 0 */\n      dup1\n      iszero\n      tag_141\n      jumpi\n      pop\n        /* \"NFTES_Drop_flat.sol\":23387:23388  0 */\n      0x00\n        /* \"NFTES_Drop_flat.sol\":23375:23384  noOfMints */\n      dup3\n        /* \"NFTES_Drop_flat.sol\":23375:23388  noOfMints > 0 */\n      gt\n        /* \"NFTES_Drop_flat.sol\":23358:23388  noOfMints < 4 && noOfMints > 0 */\n    tag_141:\n        /* \"NFTES_Drop_flat.sol\":23350:23414  require(noOfMints < 4 && noOfMints > 0, \"You can mint 1-3 NFTs\") */\n      tag_142\n      jumpi\n      mload(0x40)\n      0x08c379a000000000000000000000000000000000000000000000000000000000\n      dup2\n      mstore\n      0x04\n      add\n      tag_143\n      swap1\n      tag_144\n      jump\t// in\n    tag_143:\n      mload(0x40)\n      dup1\n      swap2\n      sub\n      swap1\n      revert\n    tag_142:\n        /* \"NFTES_Drop_flat.sol\":23450:23454  1000 */\n      0x03e8\n        /* \"NFTES_Drop_flat.sol\":23432:23447  totalNFTsMinted */\n      sload(0x03)\n        /* \"NFTES_Drop_flat.sol\":23432:23454  totalNFTsMinted < 1000 */\n      lt\n        /* \"NFTES_Drop_flat.sol\":23424:23484  require(totalNFTsMinted < 1000, \"Max Minting Limit reached\") */\n      tag_145\n      jumpi\n      mload(0x40)\n      0x08c379a000000000000000000000000000000000000000000000000000000000\n      dup2\n      mstore\n      0x04\n      add\n      tag_146\n      swap1\n      tag_147\n      jump\t// in\n    tag_146:\n      mload(0x40)\n      dup1\n      swap2\n      sub\n      swap1\n      revert\n    tag_145:\n        /* \"NFTES_Drop_flat.sol\":23514:23515  0 */\n      0x00\n        /* \"NFTES_Drop_flat.sol\":23502:23510  mintFees */\n      sload(0x05)\n        /* \"NFTES_Drop_flat.sol\":23502:23515  mintFees != 0 */\n      eq\n      iszero\n        /* \"NFTES_Drop_flat.sol\":23494:23536  require(mintFees != 0, \"Mint Fee Not Set\") */\n      tag_148\n      jumpi\n      mload(0x40)\n      0x08c379a000000000000000000000000000000000000000000000000000000000\n      dup2\n      mstore\n      0x04\n      add\n      tag_149\n      swap1\n      tag_150\n      jump\t// in\n    tag_149:\n      mload(0x40)\n      dup1\n      swap2\n      sub\n      swap1\n      revert\n    tag_148:\n        /* \"NFTES_Drop_flat.sol\":23578:23587  noOfMints */\n      dup2\n        /* \"NFTES_Drop_flat.sol\":23567:23575  mintFees */\n      sload(0x05)\n        /* \"NFTES_Drop_flat.sol\":23567:23587  mintFees * noOfMints */\n      tag_151\n      swap2\n      swap1\n      tag_152\n      jump\t// in\n    tag_151:\n        /* \"NFTES_Drop_flat.sol\":23554:23563  msg.value */\n      callvalue\n        /* \"NFTES_Drop_flat.sol\":23554:23587  msg.value == mintFees * noOfMints */\n      eq\n        /* \"NFTES_Drop_flat.sol\":23546:23610  require(msg.value == mintFees * noOfMints, \"Not Enough Balance\") */\n      tag_153\n      jumpi\n      mload(0x40)\n      0x08c379a000000000000000000000000000000000000000000000000000000000\n      dup2\n      mstore\n      0x04\n      add\n      tag_154\n      swap1\n      tag_155\n      jump\t// in\n    tag_154:\n      mload(0x40)\n      dup1\n      swap2\n      sub\n      swap1\n      revert\n    tag_153:\n        /* \"NFTES_Drop_flat.sol\":23620:23638  uint returnedNftID */\n      0x00\n        /* \"NFTES_Drop_flat.sol\":23648:23677  string memory returnedNftData */\n      0x60\n        /* \"NFTES_Drop_flat.sol\":23687:23719  string[] memory randomMintedNfts */\n      0x00\n        /* \"NFTES_Drop_flat.sol\":23735:23736  3 */\n      0x03\n        /* \"NFTES_Drop_flat.sol\":23722:23737  new string[](3) */\n      0xffffffffffffffff\n      dup2\n      gt\n      iszero\n      tag_156\n      jumpi\n      tag_157\n      tag_158\n      jump\t// in\n    tag_157:\n    tag_156:\n      mload(0x40)\n      swap1\n      dup1\n      dup3\n      mstore\n      dup1\n      0x20\n      mul\n      0x20\n      add\n      dup3\n      add\n      0x40\n      mstore\n      dup1\n      iszero\n      tag_159\n      jumpi\n      dup2\n      0x20\n      add\n    tag_160:\n      0x60\n      dup2\n      mstore\n      0x20\n      add\n      swap1\n      0x01\n      swap1\n      sub\n      swap1\n      dup2\n      tag_160\n      jumpi\n      swap1\n      pop\n    tag_159:\n      pop\n        /* \"NFTES_Drop_flat.sol\":23687:23737  string[] memory randomMintedNfts = new string[](3) */\n      swap1\n      pop\n        /* \"NFTES_Drop_flat.sol\":23752:23761  uint256 i */\n      0x00\n        /* \"NFTES_Drop_flat.sol\":23747:24005  for (uint256 i = 0; i < noOfMints; ++i) {... */\n    tag_161:\n        /* \"NFTES_Drop_flat.sol\":23771:23780  noOfMints */\n      dup6\n        /* \"NFTES_Drop_flat.sol\":23767:23768  i */\n      dup2\n        /* \"NFTES_Drop_flat.sol\":23767:23780  i < noOfMints */\n      lt\n        /* \"NFTES_Drop_flat.sol\":23747:24005  for (uint256 i = 0; i < noOfMints; ++i) {... */\n      iszero\n      tag_162\n      jumpi\n        /* \"NFTES_Drop_flat.sol\":23834:23858  randomMinting(user_addr) */\n      tag_164\n        /* \"NFTES_Drop_flat.sol\":23848:23857  user_addr */\n      dup8\n        /* \"NFTES_Drop_flat.sol\":23834:23847  randomMinting */\n      tag_165\n        /* \"NFTES_Drop_flat.sol\":23834:23858  randomMinting(user_addr) */\n      jump\t// in\n    tag_164:\n        /* \"NFTES_Drop_flat.sol\":23799:23858  (returnedNftID, returnedNftData) = randomMinting(user_addr) */\n      dup1\n      swap5\n      pop\n      dup2\n      swap6\n      pop\n      pop\n      pop\n        /* \"NFTES_Drop_flat.sol\":23940:23971  Strings.toString(returnedNftID) */\n      tag_166\n        /* \"NFTES_Drop_flat.sol\":23957:23970  returnedNftID */\n      dup5\n        /* \"NFTES_Drop_flat.sol\":23940:23956  Strings.toString */\n      tag_167\n        /* \"NFTES_Drop_flat.sol\":23940:23971  Strings.toString(returnedNftID) */\n      jump\t// in\n    tag_166:\n        /* \"NFTES_Drop_flat.sol\":23977:23992  returnedNftData */\n      dup4\n        /* \"NFTES_Drop_flat.sol\":23923:23993  abi.encodePacked(Strings.toString(returnedNftID),\"_\", returnedNftData) */\n      add(0x20, mload(0x40))\n      tag_168\n      swap3\n      swap2\n      swap1\n      tag_169\n      jump\t// in\n    tag_168:\n      mload(0x40)\n      0x20\n      dup2\n      dup4\n      sub\n      sub\n      dup2\n      mstore\n      swap1\n      0x40\n      mstore\n        /* \"NFTES_Drop_flat.sol\":23874:23890  randomMintedNfts */\n      dup3\n        /* \"NFTES_Drop_flat.sol\":23891:23892  i */\n      dup3\n        /* \"NFTES_Drop_flat.sol\":23874:23893  randomMintedNfts[i] */\n      dup2\n      mload\n      dup2\n      lt\n      tag_170\n      jumpi\n      tag_171\n      tag_172\n      jump\t// in\n    tag_171:\n    tag_170:\n      0x20\n      mul\n      0x20\n      add\n      add\n        /* \"NFTES_Drop_flat.sol\":23874:23994  randomMintedNfts[i]= ... */\n      dup2\n      swap1\n      mstore\n      pop\n        /* \"NFTES_Drop_flat.sol\":23782:23785  ++i */\n      dup1\n      tag_173\n      swap1\n      tag_174\n      jump\t// in\n    tag_173:\n      swap1\n      pop\n        /* \"NFTES_Drop_flat.sol\":23747:24005  for (uint256 i = 0; i < noOfMints; ++i) {... */\n      jump(tag_161)\n    tag_162:\n      pop\n        /* \"NFTES_Drop_flat.sol\":24014:24052  depositAmount(_msgSender(), msg.value) */\n      tag_175\n        /* \"NFTES_Drop_flat.sol\":24028:24040  _msgSender() */\n      tag_176\n        /* \"NFTES_Drop_flat.sol\":24028:24038  _msgSender */\n      tag_108\n        /* \"NFTES_Drop_flat.sol\":24028:24040  _msgSender() */\n      jump\t// in\n    tag_176:\n        /* \"NFTES_Drop_flat.sol\":24042:24051  msg.value */\n      callvalue\n        /* \"NFTES_Drop_flat.sol\":24014:24027  depositAmount */\n      tag_177\n        /* \"NFTES_Drop_flat.sol\":24014:24052  depositAmount(_msgSender(), msg.value) */\n      jump\t// in\n    tag_175:\n        /* \"NFTES_Drop_flat.sol\":24076:24085  user_addr */\n      dup6\n        /* \"NFTES_Drop_flat.sol\":24067:24104  isMinted(user_addr, randomMintedNfts) */\n      0xffffffffffffffffffffffffffffffffffffffff\n      and\n      0xb4a5369904dcc0d74d8fb8bbcdeb51f356f20c722499d42a6da95324e634c141\n        /* \"NFTES_Drop_flat.sol\":24087:24103  randomMintedNfts */\n      dup3\n        /* \"NFTES_Drop_flat.sol\":24067:24104  isMinted(user_addr, randomMintedNfts) */\n      mload(0x40)\n      tag_178\n      swap2\n      swap1\n      tag_52\n      jump\t// in\n    tag_178:\n      mload(0x40)\n      dup1\n      swap2\n      sub\n      swap1\n      log2\n        /* \"NFTES_Drop_flat.sol\":24121:24137  randomMintedNfts */\n      dup1\n        /* \"NFTES_Drop_flat.sol\":24114:24137  return randomMintedNfts */\n      swap4\n      pop\n      pop\n      pop\n      pop\n        /* \"NFTES_Drop_flat.sol\":23155:24144  function cryptoRandomMint(address user_addr, uint256 noOfMints)... */\n      swap3\n      swap2\n      pop\n      pop\n      jump\t// out\n        /* \"NFTES_Drop_flat.sol\":22019:22888  function fiatRandomMint(address user_addr, uint256 noOfMints)... */\n    tag_56:\n        /* \"NFTES_Drop_flat.sol\":22183:22198  string[] memory */\n      0x60\n        /* \"NFTES_Drop_flat.sol\":16262:16267  Owner */\n      0x0e\n      0x01\n      swap1\n      sload\n      swap1\n      0x0100\n      exp\n      swap1\n      div\n      0xffffffffffffffffffffffffffffffffffffffff\n      and\n        /* \"NFTES_Drop_flat.sol\":16246:16267  _msgSender() == Owner */\n      0xffffffffffffffffffffffffffffffffffffffff\n      and\n        /* \"NFTES_Drop_flat.sol\":16246:16258  _msgSender() */\n      tag_180\n        /* \"NFTES_Drop_flat.sol\":16246:16256  _msgSender */\n      tag_108\n        /* \"NFTES_Drop_flat.sol\":16246:16258  _msgSender() */\n      jump\t// in\n    tag_180:\n        /* \"NFTES_Drop_flat.sol\":16246:16267  _msgSender() == Owner */\n      0xffffffffffffffffffffffffffffffffffffffff\n      and\n      eq\n        /* \"NFTES_Drop_flat.sol\":16238:16300  require(_msgSender() == Owner, \"Only NFT-ES Owner can Access\") */\n      tag_181\n      jumpi\n      mload(0x40)\n      0x08c379a000000000000000000000000000000000000000000000000000000000\n      dup2\n      mstore\n      0x04\n      add\n      tag_182\n      swap1\n      tag_111\n      jump\t// in\n    tag_182:\n      mload(0x40)\n      dup1\n      swap2\n      sub\n      swap1\n      revert\n    tag_181:\n        /* \"NFTES_Drop_flat.sol\":16427:16432  false */\n      0x00\n        /* \"NFTES_Drop_flat.sol\":16415:16432  isPaused == false */\n      iszero\n      iszero\n        /* \"NFTES_Drop_flat.sol\":16415:16423  isPaused */\n      0x0e\n      0x00\n      swap1\n      sload\n      swap1\n      0x0100\n      exp\n      swap1\n      div\n      0xff\n      and\n        /* \"NFTES_Drop_flat.sol\":16415:16432  isPaused == false */\n      iszero\n      iszero\n      eq\n        /* \"NFTES_Drop_flat.sol\":16407:16464  require(isPaused == false, \"Dropsite is not Opened Yet.\") */\n      tag_184\n      jumpi\n      mload(0x40)\n      0x08c379a000000000000000000000000000000000000000000000000000000000\n      dup2\n      mstore\n      0x04\n      add\n      tag_185\n      swap1\n      tag_129\n      jump\t// in\n    tag_185:\n      mload(0x40)\n      dup1\n      swap2\n      sub\n      swap1\n      revert\n    tag_184:\n        /* \"NFTES_Drop_flat.sol\":16544:16545  0 */\n      0x00\n        /* \"NFTES_Drop_flat.sol\":16532:16540  mintFees */\n      sload(0x05)\n        /* \"NFTES_Drop_flat.sol\":16532:16545  mintFees != 0 */\n      eq\n      iszero\n        /* \"NFTES_Drop_flat.sol\":16524:16581  require(mintFees != 0, \"Owner Should set mint Fee First\") */\n      tag_187\n      jumpi\n      mload(0x40)\n      0x08c379a000000000000000000000000000000000000000000000000000000000\n      dup2\n      mstore\n      0x04\n      add\n      tag_188\n      swap1\n      tag_139\n      jump\t// in\n    tag_188:\n      mload(0x40)\n      dup1\n      swap2\n      sub\n      swap1\n      revert\n    tag_187:\n        /* \"NFTES_Drop_flat.sol\":22234:22235  4 */\n      0x04\n        /* \"NFTES_Drop_flat.sol\":22222:22231  noOfMints */\n      dup3\n        /* \"NFTES_Drop_flat.sol\":22222:22235  noOfMints < 4 */\n      lt\n        /* \"NFTES_Drop_flat.sol\":22222:22252  noOfMints < 4 && noOfMints > 0 */\n      dup1\n      iszero\n      tag_190\n      jumpi\n      pop\n        /* \"NFTES_Drop_flat.sol\":22251:22252  0 */\n      0x00\n        /* \"NFTES_Drop_flat.sol\":22239:22248  noOfMints */\n      dup3\n        /* \"NFTES_Drop_flat.sol\":22239:22252  noOfMints > 0 */\n      gt\n        /* \"NFTES_Drop_flat.sol\":22222:22252  noOfMints < 4 && noOfMints > 0 */\n    tag_190:\n        /* \"NFTES_Drop_flat.sol\":22214:22278  require(noOfMints < 4 && noOfMints > 0, \"You can mint 1-3 NFTs\") */\n      tag_191\n      jumpi\n      mload(0x40)\n      0x08c379a000000000000000000000000000000000000000000000000000000000\n      dup2\n      mstore\n      0x04\n      add\n      tag_192\n      swap1\n      tag_144\n      jump\t// in\n    tag_192:\n      mload(0x40)\n      dup1\n      swap2\n      sub\n      swap1\n      revert\n    tag_191:\n        /* \"NFTES_Drop_flat.sol\":22314:22318  1000 */\n      0x03e8\n        /* \"NFTES_Drop_flat.sol\":22296:22311  totalNFTsMinted */\n      sload(0x03)\n        /* \"NFTES_Drop_flat.sol\":22296:22318  totalNFTsMinted < 1000 */\n      lt\n        /* \"NFTES_Drop_flat.sol\":22288:22348  require(totalNFTsMinted < 1000, \"Max Minting Limit reached\") */\n      tag_193\n      jumpi\n      mload(0x40)\n      0x08c379a000000000000000000000000000000000000000000000000000000000\n      dup2\n      mstore\n      0x04\n      add\n      tag_194\n      swap1\n      tag_147\n      jump\t// in\n    tag_194:\n      mload(0x40)\n      dup1\n      swap2\n      sub\n      swap1\n      revert\n    tag_193:\n        /* \"NFTES_Drop_flat.sol\":22378:22379  0 */\n      0x00\n        /* \"NFTES_Drop_flat.sol\":22366:22374  mintFees */\n      sload(0x05)\n        /* \"NFTES_Drop_flat.sol\":22366:22379  mintFees != 0 */\n      eq\n      iszero\n        /* \"NFTES_Drop_flat.sol\":22358:22400  require(mintFees != 0, \"Mint Fee Not Set\") */\n      tag_195\n      jumpi\n      mload(0x40)\n      0x08c379a000000000000000000000000000000000000000000000000000000000\n      dup2\n      mstore\n      0x04\n      add\n      tag_196\n      swap1\n      tag_150\n      jump\t// in\n    tag_196:\n      mload(0x40)\n      dup1\n      swap2\n      sub\n      swap1\n      revert\n    tag_195:\n        /* \"NFTES_Drop_flat.sol\":22410:22428  uint returnedNftID */\n      0x00\n        /* \"NFTES_Drop_flat.sol\":22438:22467  string memory returnedNftData */\n      0x60\n        /* \"NFTES_Drop_flat.sol\":22477:22509  string[] memory randomMintedNfts */\n      0x00\n        /* \"NFTES_Drop_flat.sol\":22525:22526  3 */\n      0x03\n        /* \"NFTES_Drop_flat.sol\":22512:22527  new string[](3) */\n      0xffffffffffffffff\n      dup2\n      gt\n      iszero\n      tag_197\n      jumpi\n      tag_198\n      tag_158\n      jump\t// in\n    tag_198:\n    tag_197:\n      mload(0x40)\n      swap1\n      dup1\n      dup3\n      mstore\n      dup1\n      0x20\n      mul\n      0x20\n      add\n      dup3\n      add\n      0x40\n      mstore\n      dup1\n      iszero\n      tag_199\n      jumpi\n      dup2\n      0x20\n      add\n    tag_200:\n      0x60\n      dup2\n      mstore\n      0x20\n      add\n      swap1\n      0x01\n      swap1\n      sub\n      swap1\n      dup2\n      tag_200\n      jumpi\n      swap1\n      pop\n    tag_199:\n      pop\n        /* \"NFTES_Drop_flat.sol\":22477:22527  string[] memory randomMintedNfts = new string[](3) */\n      swap1\n      pop\n        /* \"NFTES_Drop_flat.sol\":22542:22551  uint256 i */\n      0x00\n        /* \"NFTES_Drop_flat.sol\":22537:22797  for (uint256 i = 0; i < noOfMints; i++) {... */\n    tag_201:\n        /* \"NFTES_Drop_flat.sol\":22561:22570  noOfMints */\n      dup6\n        /* \"NFTES_Drop_flat.sol\":22557:22558  i */\n      dup2\n        /* \"NFTES_Drop_flat.sol\":22557:22570  i < noOfMints */\n      lt\n        /* \"NFTES_Drop_flat.sol\":22537:22797  for (uint256 i = 0; i < noOfMints; i++) {... */\n      iszero\n      tag_202\n      jumpi\n        /* \"NFTES_Drop_flat.sol\":22626:22650  randomMinting(user_addr) */\n      tag_204\n        /* \"NFTES_Drop_flat.sol\":22640:22649  user_addr */\n      dup8\n        /* \"NFTES_Drop_flat.sol\":22626:22639  randomMinting */\n      tag_165\n        /* \"NFTES_Drop_flat.sol\":22626:22650  randomMinting(user_addr) */\n      jump\t// in\n    tag_204:\n        /* \"NFTES_Drop_flat.sol\":22591:22650  (returnedNftID, returnedNftData) = randomMinting(user_addr) */\n      dup1\n      swap5\n      pop\n      dup2\n      swap6\n      pop\n      pop\n      pop\n        /* \"NFTES_Drop_flat.sol\":22732:22763  Strings.toString(returnedNftID) */\n      tag_205\n        /* \"NFTES_Drop_flat.sol\":22749:22762  returnedNftID */\n      dup5\n        /* \"NFTES_Drop_flat.sol\":22732:22748  Strings.toString */\n      tag_167\n        /* \"NFTES_Drop_flat.sol\":22732:22763  Strings.toString(returnedNftID) */\n      jump\t// in\n    tag_205:\n        /* \"NFTES_Drop_flat.sol\":22769:22784  returnedNftData */\n      dup4\n        /* \"NFTES_Drop_flat.sol\":22715:22785  abi.encodePacked(Strings.toString(returnedNftID),\"_\", returnedNftData) */\n      add(0x20, mload(0x40))\n      tag_206\n      swap3\n      swap2\n      swap1\n      tag_169\n      jump\t// in\n    tag_206:\n      mload(0x40)\n      0x20\n      dup2\n      dup4\n      sub\n      sub\n      dup2\n      mstore\n      swap1\n      0x40\n      mstore\n        /* \"NFTES_Drop_flat.sol\":22666:22682  randomMintedNfts */\n      dup3\n        /* \"NFTES_Drop_flat.sol\":22683:22684  i */\n      dup3\n        /* \"NFTES_Drop_flat.sol\":22666:22685  randomMintedNfts[i] */\n      dup2\n      mload\n      dup2\n      lt\n      tag_207\n      jumpi\n      tag_208\n      tag_172\n      jump\t// in\n    tag_208:\n    tag_207:\n      0x20\n      mul\n      0x20\n      add\n      add\n        /* \"NFTES_Drop_flat.sol\":22666:22786  randomMintedNfts[i]= ... */\n      dup2\n      swap1\n      mstore\n      pop\n        /* \"NFTES_Drop_flat.sol\":22572:22575  i++ */\n      dup1\n      dup1\n      tag_209\n      swap1\n      tag_174\n      jump\t// in\n    tag_209:\n      swap2\n      pop\n      pop\n        /* \"NFTES_Drop_flat.sol\":22537:22797  for (uint256 i = 0; i < noOfMints; i++) {... */\n      jump(tag_201)\n    tag_202:\n      pop\n        /* \"NFTES_Drop_flat.sol\":22820:22829  user_addr */\n      dup6\n        /* \"NFTES_Drop_flat.sol\":22811:22848  isMinted(user_addr, randomMintedNfts) */\n      0xffffffffffffffffffffffffffffffffffffffff\n      and\n      0xb4a5369904dcc0d74d8fb8bbcdeb51f356f20c722499d42a6da95324e634c141\n        /* \"NFTES_Drop_flat.sol\":22831:22847  randomMintedNfts */\n      dup3\n        /* \"NFTES_Drop_flat.sol\":22811:22848  isMinted(user_addr, randomMintedNfts) */\n      mload(0x40)\n      tag_210\n      swap2\n      swap1\n      tag_52\n      jump\t// in\n    tag_210:\n      mload(0x40)\n      dup1\n      swap2\n      sub\n      swap1\n      log2\n        /* \"NFTES_Drop_flat.sol\":22865:22881  randomMintedNfts */\n      dup1\n        /* \"NFTES_Drop_flat.sol\":22858:22881  return randomMintedNfts */\n      swap4\n      pop\n      pop\n      pop\n      pop\n        /* \"NFTES_Drop_flat.sol\":22019:22888  function fiatRandomMint(address user_addr, uint256 noOfMints)... */\n      swap3\n      swap2\n      pop\n      pop\n      jump\t// out\n        /* \"NFTES_Drop_flat.sol\":17726:17967  function checkMintedCategoryWise()... */\n    tag_60:\n        /* \"NFTES_Drop_flat.sol\":17865:17869  uint */\n      0x00\n        /* \"NFTES_Drop_flat.sol\":17883:17887  uint */\n      dup1\n        /* \"NFTES_Drop_flat.sol\":17901:17905  uint */\n      0x00\n        /* \"NFTES_Drop_flat.sol\":16262:16267  Owner */\n      0x0e\n      0x01\n      swap1\n      sload\n      swap1\n      0x0100\n      exp\n      swap1\n      div\n      0xffffffffffffffffffffffffffffffffffffffff\n      and\n        /* \"NFTES_Drop_flat.sol\":16246:16267  _msgSender() == Owner */\n      0xffffffffffffffffffffffffffffffffffffffff\n      and\n        /* \"NFTES_Drop_flat.sol\":16246:16258  _msgSender() */\n      tag_212\n        /* \"NFTES_Drop_flat.sol\":16246:16256  _msgSender */\n      tag_108\n        /* \"NFTES_Drop_flat.sol\":16246:16258  _msgSender() */\n      jump\t// in\n    tag_212:\n        /* \"NFTES_Drop_flat.sol\":16246:16267  _msgSender() == Owner */\n      0xffffffffffffffffffffffffffffffffffffffff\n      and\n      eq\n        /* \"NFTES_Drop_flat.sol\":16238:16300  require(_msgSender() == Owner, \"Only NFT-ES Owner can Access\") */\n      tag_213\n      jumpi\n      mload(0x40)\n      0x08c379a000000000000000000000000000000000000000000000000000000000\n      dup2\n      mstore\n      0x04\n      add\n      tag_214\n      swap1\n      tag_111\n      jump\t// in\n    tag_214:\n      mload(0x40)\n      dup1\n      swap2\n      sub\n      swap1\n      revert\n    tag_213:\n        /* \"NFTES_Drop_flat.sol\":16427:16432  false */\n      0x00\n        /* \"NFTES_Drop_flat.sol\":16415:16432  isPaused == false */\n      iszero\n      iszero\n        /* \"NFTES_Drop_flat.sol\":16415:16423  isPaused */\n      0x0e\n      0x00\n      swap1\n      sload\n      swap1\n      0x0100\n      exp\n      swap1\n      div\n      0xff\n      and\n        /* \"NFTES_Drop_flat.sol\":16415:16432  isPaused == false */\n      iszero\n      iszero\n      eq\n        /* \"NFTES_Drop_flat.sol\":16407:16464  require(isPaused == false, \"Dropsite is not Opened Yet.\") */\n      tag_216\n      jumpi\n      mload(0x40)\n      0x08c379a000000000000000000000000000000000000000000000000000000000\n      dup2\n      mstore\n      0x04\n      add\n      tag_217\n      swap1\n      tag_129\n      jump\t// in\n    tag_217:\n      mload(0x40)\n      dup1\n      swap2\n      sub\n      swap1\n      revert\n    tag_216:\n        /* \"NFTES_Drop_flat.sol\":17938:17945  Diamond */\n      sload(0x06)\n        /* \"NFTES_Drop_flat.sol\":17947:17951  Gold */\n      sload(0x07)\n        /* \"NFTES_Drop_flat.sol\":17953:17959  Silver */\n      sload(0x08)\n        /* \"NFTES_Drop_flat.sol\":17930:17960  return (Diamond, Gold, Silver) */\n      swap3\n      pop\n      swap3\n      pop\n      swap3\n      pop\n        /* \"NFTES_Drop_flat.sol\":17726:17967  function checkMintedCategoryWise()... */\n      swap1\n      swap2\n      swap3\n      jump\t// out\n        /* \"NFTES_Drop_flat.sol\":18133:18245  function getMintFee()... */\n    tag_65:\n        /* \"NFTES_Drop_flat.sol\":18200:18207  uint256 */\n      0x00\n        /* \"NFTES_Drop_flat.sol\":18230:18238  mintFees */\n      sload(0x05)\n        /* \"NFTES_Drop_flat.sol\":18223:18238  return mintFees */\n      swap1\n      pop\n        /* \"NFTES_Drop_flat.sol\":18133:18245  function getMintFee()... */\n      swap1\n      jump\t// out\n        /* \"NFTES_Drop_flat.sol\":19025:19137  function contractBalance() public view OnlyOwner returns (uint256) {... */\n    tag_69:\n        /* \"NFTES_Drop_flat.sol\":19083:19090  uint256 */\n      0x00\n        /* \"NFTES_Drop_flat.sol\":16262:16267  Owner */\n      0x0e\n      0x01\n      swap1\n      sload\n      swap1\n      0x0100\n      exp\n      swap1\n      div\n      0xffffffffffffffffffffffffffffffffffffffff\n      and\n        /* \"NFTES_Drop_flat.sol\":16246:16267  _msgSender() == Owner */\n      0xffffffffffffffffffffffffffffffffffffffff\n      and\n        /* \"NFTES_Drop_flat.sol\":16246:16258  _msgSender() */\n      tag_221\n        /* \"NFTES_Drop_flat.sol\":16246:16256  _msgSender */\n      tag_108\n        /* \"NFTES_Drop_flat.sol\":16246:16258  _msgSender() */\n      jump\t// in\n    tag_221:\n        /* \"NFTES_Drop_flat.sol\":16246:16267  _msgSender() == Owner */\n      0xffffffffffffffffffffffffffffffffffffffff\n      and\n      eq\n        /* \"NFTES_Drop_flat.sol\":16238:16300  require(_msgSender() == Owner, \"Only NFT-ES Owner can Access\") */\n      tag_222\n      jumpi\n      mload(0x40)\n      0x08c379a000000000000000000000000000000000000000000000000000000000\n      dup2\n      mstore\n      0x04\n      add\n      tag_223\n      swap1\n      tag_111\n      jump\t// in\n    tag_223:\n      mload(0x40)\n      dup1\n      swap2\n      sub\n      swap1\n      revert\n    tag_222:\n        /* \"NFTES_Drop_flat.sol\":19109:19130  address(this).balance */\n      selfbalance\n        /* \"NFTES_Drop_flat.sol\":19102:19130  return address(this).balance */\n      swap1\n      pop\n        /* \"NFTES_Drop_flat.sol\":19025:19137  function contractBalance() public view OnlyOwner returns (uint256) {... */\n      swap1\n      jump\t// out\n        /* \"NFTES_Drop_flat.sol\":16780:16815  uint public constant SILVER_ID  = 2 */\n    tag_73:\n        /* \"NFTES_Drop_flat.sol\":16814:16815  2 */\n      0x02\n        /* \"NFTES_Drop_flat.sol\":16780:16815  uint public constant SILVER_ID  = 2 */\n      dup2\n      jump\t// out\n        /* \"NFTES_Drop_flat.sol\":17273:17427  function changeOwner(address newOwnerAddr)... */\n    tag_78:\n        /* \"NFTES_Drop_flat.sol\":16262:16267  Owner */\n      0x0e\n      0x01\n      swap1\n      sload\n      swap1\n      0x0100\n      exp\n      swap1\n      div\n      0xffffffffffffffffffffffffffffffffffffffff\n      and\n        /* \"NFTES_Drop_flat.sol\":16246:16267  _msgSender() == Owner */\n      0xffffffffffffffffffffffffffffffffffffffff\n      and\n        /* \"NFTES_Drop_flat.sol\":16246:16258  _msgSender() */\n      tag_226\n        /* \"NFTES_Drop_flat.sol\":16246:16256  _msgSender */\n      tag_108\n        /* \"NFTES_Drop_flat.sol\":16246:16258  _msgSender() */\n      jump\t// in\n    tag_226:\n        /* \"NFTES_Drop_flat.sol\":16246:16267  _msgSender() == Owner */\n      0xffffffffffffffffffffffffffffffffffffffff\n      and\n      eq\n        /* \"NFTES_Drop_flat.sol\":16238:16300  require(_msgSender() == Owner, \"Only NFT-ES Owner can Access\") */\n      tag_227\n      jumpi\n      mload(0x40)\n      0x08c379a000000000000000000000000000000000000000000000000000000000\n      dup2\n      mstore\n      0x04\n      add\n      tag_228\n      swap1\n      tag_111\n      jump\t// in\n    tag_228:\n      mload(0x40)\n      dup1\n      swap2\n      sub\n      swap1\n      revert\n    tag_227:\n        /* \"NFTES_Drop_flat.sol\":16427:16432  false */\n      0x00\n        /* \"NFTES_Drop_flat.sol\":16415:16432  isPaused == false */\n      iszero\n      iszero\n        /* \"NFTES_Drop_flat.sol\":16415:16423  isPaused */\n      0x0e\n      0x00\n      swap1\n      sload\n      swap1\n      0x0100\n      exp\n      swap1\n      div\n      0xff\n      and\n        /* \"NFTES_Drop_flat.sol\":16415:16432  isPaused == false */\n      iszero\n      iszero\n      eq\n        /* \"NFTES_Drop_flat.sol\":16407:16464  require(isPaused == false, \"Dropsite is not Opened Yet.\") */\n      tag_230\n      jumpi\n      mload(0x40)\n      0x08c379a000000000000000000000000000000000000000000000000000000000\n      dup2\n      mstore\n      0x04\n      add\n      tag_231\n      swap1\n      tag_129\n      jump\t// in\n    tag_231:\n      mload(0x40)\n      dup1\n      swap2\n      sub\n      swap1\n      revert\n    tag_230:\n        /* \"NFTES_Drop_flat.sol\":17407:17419  newOwnerAddr */\n      dup1\n        /* \"NFTES_Drop_flat.sol\":17391:17396  Owner */\n      0x0e\n      0x01\n        /* \"NFTES_Drop_flat.sol\":17391:17420  Owner = payable(newOwnerAddr) */\n      0x0100\n      exp\n      dup2\n      sload\n      dup2\n      0xffffffffffffffffffffffffffffffffffffffff\n      mul\n      not\n      and\n      swap1\n      dup4\n      0xffffffffffffffffffffffffffffffffffffffff\n      and\n      mul\n      or\n      swap1\n      sstore\n      pop\n        /* \"NFTES_Drop_flat.sol\":17273:17427  function changeOwner(address newOwnerAddr)... */\n      pop\n      jump\t// out\n        /* \"NFTES_Drop_flat.sol\":18387:18527  function stopDropsite() public OnlyOwner {... */\n    tag_81:\n        /* \"NFTES_Drop_flat.sol\":16262:16267  Owner */\n      0x0e\n      0x01\n      swap1\n      sload\n      swap1\n      0x0100\n      exp\n      swap1\n      div\n      0xffffffffffffffffffffffffffffffffffffffff\n      and\n        /* \"NFTES_Drop_flat.sol\":16246:16267  _msgSender() == Owner */\n      0xffffffffffffffffffffffffffffffffffffffff\n      and\n        /* \"NFTES_Drop_flat.sol\":16246:16258  _msgSender() */\n      tag_234\n        /* \"NFTES_Drop_flat.sol\":16246:16256  _msgSender */\n      tag_108\n        /* \"NFTES_Drop_flat.sol\":16246:16258  _msgSender() */\n      jump\t// in\n    tag_234:\n        /* \"NFTES_Drop_flat.sol\":16246:16267  _msgSender() == Owner */\n      0xffffffffffffffffffffffffffffffffffffffff\n      and\n      eq\n        /* \"NFTES_Drop_flat.sol\":16238:16300  require(_msgSender() == Owner, \"Only NFT-ES Owner can Access\") */\n      tag_235\n      jumpi\n      mload(0x40)\n      0x08c379a000000000000000000000000000000000000000000000000000000000\n      dup2\n      mstore\n      0x04\n      add\n      tag_236\n      swap1\n      tag_111\n      jump\t// in\n    tag_236:\n      mload(0x40)\n      dup1\n      swap2\n      sub\n      swap1\n      revert\n    tag_235:\n        /* \"NFTES_Drop_flat.sol\":18458:18463  false */\n      0x00\n        /* \"NFTES_Drop_flat.sol\":18446:18463  isPaused == false */\n      iszero\n      iszero\n        /* \"NFTES_Drop_flat.sol\":18446:18454  isPaused */\n      0x0e\n      0x00\n      swap1\n      sload\n      swap1\n      0x0100\n      exp\n      swap1\n      div\n      0xff\n      and\n        /* \"NFTES_Drop_flat.sol\":18446:18463  isPaused == false */\n      iszero\n      iszero\n      eq\n        /* \"NFTES_Drop_flat.sol\":18438:18495  require(isPaused == false, \"Dropsite is already Stopped\") */\n      tag_238\n      jumpi\n      mload(0x40)\n      0x08c379a000000000000000000000000000000000000000000000000000000000\n      dup2\n      mstore\n      0x04\n      add\n      tag_239\n      swap1\n      tag_240\n      jump\t// in\n    tag_239:\n      mload(0x40)\n      dup1\n      swap2\n      sub\n      swap1\n      revert\n    tag_238:\n        /* \"NFTES_Drop_flat.sol\":18516:18520  true */\n      0x01\n        /* \"NFTES_Drop_flat.sol\":18505:18513  isPaused */\n      0x0e\n      0x00\n        /* \"NFTES_Drop_flat.sol\":18505:18520  isPaused = true */\n      0x0100\n      exp\n      dup2\n      sload\n      dup2\n      0xff\n      mul\n      not\n      and\n      swap1\n      dup4\n      iszero\n      iszero\n      mul\n      or\n      swap1\n      sstore\n      pop\n        /* \"NFTES_Drop_flat.sol\":18387:18527  function stopDropsite() public OnlyOwner {... */\n      jump\t// out\n        /* \"NFTES_Drop_flat.sol\":16604:16631  bool public isPaused = true */\n    tag_84:\n      0x0e\n      0x00\n      swap1\n      sload\n      swap1\n      0x0100\n      exp\n      swap1\n      div\n      0xff\n      and\n      dup2\n      jump\t// out\n        /* \"NFTES_Drop_flat.sol\":16637:16665  address payable public Owner */\n    tag_89:\n      0x0e\n      0x01\n      swap1\n      sload\n      swap1\n      0x0100\n      exp\n      swap1\n      div\n      0xffffffffffffffffffffffffffffffffffffffff\n      and\n      dup2\n      jump\t// out\n        /* \"NFTES_Drop_flat.sol\":17146:17268  function isAdmin() public view returns (bool){... */\n    tag_94:\n        /* \"NFTES_Drop_flat.sol\":17186:17190  bool */\n      0x00\n        /* \"NFTES_Drop_flat.sol\":17216:17221  Owner */\n      0x0e\n      0x01\n      swap1\n      sload\n      swap1\n      0x0100\n      exp\n      swap1\n      div\n      0xffffffffffffffffffffffffffffffffffffffff\n      and\n        /* \"NFTES_Drop_flat.sol\":17204:17221  msg.sender==Owner */\n      0xffffffffffffffffffffffffffffffffffffffff\n      and\n        /* \"NFTES_Drop_flat.sol\":17204:17214  msg.sender */\n      caller\n        /* \"NFTES_Drop_flat.sol\":17204:17221  msg.sender==Owner */\n      0xffffffffffffffffffffffffffffffffffffffff\n      and\n      eq\n        /* \"NFTES_Drop_flat.sol\":17201:17261  if(msg.sender==Owner) return true;... */\n      iszero\n      tag_242\n      jumpi\n        /* \"NFTES_Drop_flat.sol\":17230:17234  true */\n      0x01\n        /* \"NFTES_Drop_flat.sol\":17223:17234  return true */\n      swap1\n      pop\n      jump(tag_241)\n        /* \"NFTES_Drop_flat.sol\":17201:17261  if(msg.sender==Owner) return true;... */\n    tag_242:\n        /* \"NFTES_Drop_flat.sol\":17256:17261  false */\n      0x00\n        /* \"NFTES_Drop_flat.sol\":17249:17261  return false */\n      swap1\n      pop\n        /* \"NFTES_Drop_flat.sol\":17146:17268  function isAdmin() public view returns (bool){... */\n    tag_241:\n      swap1\n      jump\t// out\n        /* \"NFTES_Drop_flat.sol\":16698:16735  uint public constant DIAMOND_ID   = 0 */\n    tag_98:\n        /* \"NFTES_Drop_flat.sol\":16734:16735  0 */\n      0x00\n        /* \"NFTES_Drop_flat.sol\":16698:16735  uint public constant DIAMOND_ID   = 0 */\n      dup2\n      jump\t// out\n        /* \"NFTES_Drop_flat.sol\":18011:18100  function setMintFee(uint _mintFee) public OnlyOwner  {... */\n    tag_104:\n        /* \"NFTES_Drop_flat.sol\":16262:16267  Owner */\n      0x0e\n      0x01\n      swap1\n      sload\n      swap1\n      0x0100\n      exp\n      swap1\n      div\n      0xffffffffffffffffffffffffffffffffffffffff\n      and\n        /* \"NFTES_Drop_flat.sol\":16246:16267  _msgSender() == Owner */\n      0xffffffffffffffffffffffffffffffffffffffff\n      and\n        /* \"NFTES_Drop_flat.sol\":16246:16258  _msgSender() */\n      tag_245\n        /* \"NFTES_Drop_flat.sol\":16246:16256  _msgSender */\n      tag_108\n        /* \"NFTES_Drop_flat.sol\":16246:16258  _msgSender() */\n      jump\t// in\n    tag_245:\n        /* \"NFTES_Drop_flat.sol\":16246:16267  _msgSender() == Owner */\n      0xffffffffffffffffffffffffffffffffffffffff\n      and\n      eq\n        /* \"NFTES_Drop_flat.sol\":16238:16300  require(_msgSender() == Owner, \"Only NFT-ES Owner can Access\") */\n      tag_246\n      jumpi\n      mload(0x40)\n      0x08c379a000000000000000000000000000000000000000000000000000000000\n      dup2\n      mstore\n      0x04\n      add\n      tag_247\n      swap1\n      tag_111\n      jump\t// in\n    tag_247:\n      mload(0x40)\n      dup1\n      swap2\n      sub\n      swap1\n      revert\n    tag_246:\n        /* \"NFTES_Drop_flat.sol\":18085:18093  _mintFee */\n      dup1\n        /* \"NFTES_Drop_flat.sol\":18074:18082  mintFees */\n      0x05\n        /* \"NFTES_Drop_flat.sol\":18074:18093  mintFees = _mintFee */\n      dup2\n      swap1\n      sstore\n      pop\n        /* \"NFTES_Drop_flat.sol\":18011:18100  function setMintFee(uint _mintFee) public OnlyOwner  {... */\n      pop\n      jump\t// out\n        /* \"NFTES_Drop_flat.sol\":2608:2704  function _msgSender() internal view virtual returns (address) {... */\n    tag_108:\n        /* \"NFTES_Drop_flat.sol\":2661:2668  address */\n      0x00\n        /* \"NFTES_Drop_flat.sol\":2687:2697  msg.sender */\n      caller\n        /* \"NFTES_Drop_flat.sol\":2680:2697  return msg.sender */\n      swap1\n      pop\n        /* \"NFTES_Drop_flat.sol\":2608:2704  function _msgSender() internal view virtual returns (address) {... */\n      swap1\n      jump\t// out\n        /* \"NFTES_Drop_flat.sol\":21490:21972  function randomMinting(address user_addr)... */\n    tag_165:\n        /* \"NFTES_Drop_flat.sol\":21594:21601  uint256 */\n      0x00\n        /* \"NFTES_Drop_flat.sol\":21603:21616  string memory */\n      0x60\n        /* \"NFTES_Drop_flat.sol\":16427:16432  false */\n      0x00\n        /* \"NFTES_Drop_flat.sol\":16415:16432  isPaused == false */\n      iszero\n      iszero\n        /* \"NFTES_Drop_flat.sol\":16415:16423  isPaused */\n      0x0e\n      0x00\n      swap1\n      sload\n      swap1\n      0x0100\n      exp\n      swap1\n      div\n      0xff\n      and\n        /* \"NFTES_Drop_flat.sol\":16415:16432  isPaused == false */\n      iszero\n      iszero\n      eq\n        /* \"NFTES_Drop_flat.sol\":16407:16464  require(isPaused == false, \"Dropsite is not Opened Yet.\") */\n      tag_251\n      jumpi\n      mload(0x40)\n      0x08c379a000000000000000000000000000000000000000000000000000000000\n      dup2\n      mstore\n      0x04\n      add\n      tag_252\n      swap1\n      tag_129\n      jump\t// in\n    tag_252:\n      mload(0x40)\n      dup1\n      swap2\n      sub\n      swap1\n      revert\n    tag_251:\n        /* \"NFTES_Drop_flat.sol\":21712:21725  uint256 index */\n      0x00\n        /* \"NFTES_Drop_flat.sol\":21728:21736  random() */\n      tag_254\n        /* \"NFTES_Drop_flat.sol\":21728:21734  random */\n      tag_255\n        /* \"NFTES_Drop_flat.sol\":21728:21736  random() */\n      jump\t// in\n    tag_254:\n        /* \"NFTES_Drop_flat.sol\":21712:21736  uint256 index = random() */\n      swap1\n      pop\n        /* \"NFTES_Drop_flat.sol\":21746:21759  uint256 nftId */\n      0x00\n        /* \"NFTES_Drop_flat.sol\":21762:21785  updateConditions(index) */\n      tag_256\n        /* \"NFTES_Drop_flat.sol\":21779:21784  index */\n      dup3\n        /* \"NFTES_Drop_flat.sol\":21762:21778  updateConditions */\n      tag_257\n        /* \"NFTES_Drop_flat.sol\":21762:21785  updateConditions(index) */\n      jump\t// in\n    tag_256:\n        /* \"NFTES_Drop_flat.sol\":21746:21785  uint256 nftId = updateConditions(index) */\n      swap1\n      pop\n        /* \"NFTES_Drop_flat.sol\":21795:21837  _mint(user_addr, nftId, numOfCopies, data) */\n      tag_258\n        /* \"NFTES_Drop_flat.sol\":21801:21810  user_addr */\n      dup6\n        /* \"NFTES_Drop_flat.sol\":21812:21817  nftId */\n      dup3\n        /* \"NFTES_Drop_flat.sol\":21819:21830  numOfCopies */\n      sload(0x04)\n        /* \"NFTES_Drop_flat.sol\":21832:21836  data */\n      0x02\n        /* \"NFTES_Drop_flat.sol\":21795:21837  _mint(user_addr, nftId, numOfCopies, data) */\n      dup1\n      sload\n      tag_259\n      swap1\n      tag_260\n      jump\t// in\n    tag_259:\n      dup1\n      0x1f\n      add\n      0x20\n      dup1\n      swap2\n      div\n      mul\n      0x20\n      add\n      mload(0x40)\n      swap1\n      dup2\n      add\n      0x40\n      mstore\n      dup1\n      swap3\n      swap2\n      swap1\n      dup2\n      dup2\n      mstore\n      0x20\n      add\n      dup3\n      dup1\n      sload\n      tag_261\n      swap1\n      tag_260\n      jump\t// in\n    tag_261:\n      dup1\n      iszero\n      tag_262\n      jumpi\n      dup1\n      0x1f\n      lt\n      tag_263\n      jumpi\n      0x0100\n      dup1\n      dup4\n      sload\n      div\n      mul\n      dup4\n      mstore\n      swap2\n      0x20\n      add\n      swap2\n      jump(tag_262)\n    tag_263:\n      dup3\n      add\n      swap2\n      swap1\n      0x00\n      mstore\n      keccak256(0x00, 0x20)\n      swap1\n    tag_264:\n      dup2\n      sload\n      dup2\n      mstore\n      swap1\n      0x01\n      add\n      swap1\n      0x20\n      add\n      dup1\n      dup4\n      gt\n      tag_264\n      jumpi\n      dup3\n      swap1\n      sub\n      0x1f\n      and\n      dup3\n      add\n      swap2\n    tag_262:\n      pop\n      pop\n      pop\n      pop\n      pop\n        /* \"NFTES_Drop_flat.sol\":21795:21800  _mint */\n      tag_265\n        /* \"NFTES_Drop_flat.sol\":21795:21837  _mint(user_addr, nftId, numOfCopies, data) */\n      jump\t// in\n    tag_258:\n        /* \"NFTES_Drop_flat.sol\":21847:21862  totalNFTsMinted */\n      0x03\n      0x00\n        /* \"NFTES_Drop_flat.sol\":21847:21864  totalNFTsMinted++ */\n      dup2\n      sload\n      dup1\n      swap3\n      swap2\n      swap1\n      tag_266\n      swap1\n      tag_174\n      jump\t// in\n    tag_266:\n      swap2\n      swap1\n      pop\n      sstore\n      pop\n        /* \"NFTES_Drop_flat.sol\":21874:21892  dropsite_NFT_Owner */\n      0x0c\n        /* \"NFTES_Drop_flat.sol\":21874:21903  dropsite_NFT_Owner[user_addr] */\n      0x00\n        /* \"NFTES_Drop_flat.sol\":21893:21902  user_addr */\n      dup7\n        /* \"NFTES_Drop_flat.sol\":21874:21903  dropsite_NFT_Owner[user_addr] */\n      0xffffffffffffffffffffffffffffffffffffffff\n      and\n      0xffffffffffffffffffffffffffffffffffffffff\n      and\n      dup2\n      mstore\n      0x20\n      add\n      swap1\n      dup2\n      mstore\n      0x20\n      add\n      0x00\n      keccak256\n        /* \"NFTES_Drop_flat.sol\":21874:21923  dropsite_NFT_Owner[user_addr].owned_Dropsite_NFTs */\n      0x00\n      add\n        /* \"NFTES_Drop_flat.sol\":21929:21934  nftId */\n      dup2\n        /* \"NFTES_Drop_flat.sol\":21874:21935  dropsite_NFT_Owner[user_addr].owned_Dropsite_NFTs.push(nftId) */\n      swap1\n      dup1\n      0x01\n      dup2\n      sload\n      add\n      dup1\n      dup3\n      sstore\n      dup1\n      swap2\n      pop\n      pop\n      0x01\n      swap1\n      sub\n      swap1\n      0x00\n      mstore\n      keccak256(0x00, 0x20)\n      add\n      0x00\n      swap1\n      swap2\n      swap1\n      swap2\n      swap1\n      swap2\n      pop\n      sstore\n        /* \"NFTES_Drop_flat.sol\":21953:21958  nftId */\n      dup1\n        /* \"NFTES_Drop_flat.sol\":21960:21964  data */\n      0x02\n        /* \"NFTES_Drop_flat.sol\":21945:21965  return (nftId, data) */\n      dup1\n      dup1\n      sload\n      tag_268\n      swap1\n      tag_260\n      jump\t// in\n    tag_268:\n      dup1\n      0x1f\n      add\n      0x20\n      dup1\n      swap2\n      div\n      mul\n      0x20\n      add\n      mload(0x40)\n      swap1\n      dup2\n      add\n      0x40\n      mstore\n      dup1\n      swap3\n      swap2\n      swap1\n      dup2\n      dup2\n      mstore\n      0x20\n      add\n      dup3\n      dup1\n      sload\n      tag_269\n      swap1\n      tag_260\n      jump\t// in\n    tag_269:\n      dup1\n      iszero\n      tag_270\n      jumpi\n      dup1\n      0x1f\n      lt\n      tag_271\n      jumpi\n      0x0100\n      dup1\n      dup4\n      sload\n      div\n      mul\n      dup4\n      mstore\n      swap2\n      0x20\n      add\n      swap2\n      jump(tag_270)\n    tag_271:\n      dup3\n      add\n      swap2\n      swap1\n      0x00\n      mstore\n      keccak256(0x00, 0x20)\n      swap1\n    tag_272:\n      dup2\n      sload\n      dup2\n      mstore\n      swap1\n      0x01\n      add\n      swap1\n      0x20\n      add\n      dup1\n      dup4\n      gt\n      tag_272\n      jumpi\n      dup3\n      swap1\n      sub\n      0x1f\n      and\n      dup3\n      add\n      swap2\n    tag_270:\n      pop\n      pop\n      pop\n      pop\n      pop\n      swap1\n      pop\n      swap4\n      pop\n      swap4\n      pop\n      pop\n      pop\n        /* \"NFTES_Drop_flat.sol\":21490:21972  function randomMinting(address user_addr)... */\n      swap2\n      pop\n      swap2\n      jump\t// out\n        /* \"NFTES_Drop_flat.sol\":273:976  function toString(uint256 value) internal pure returns (string memory) {... */\n    tag_167:\n        /* \"NFTES_Drop_flat.sol\":329:342  string memory */\n      0x60\n        /* \"NFTES_Drop_flat.sol\":555:556  0 */\n      0x00\n        /* \"NFTES_Drop_flat.sol\":546:551  value */\n      dup3\n        /* \"NFTES_Drop_flat.sol\":546:556  value == 0 */\n      eq\n        /* \"NFTES_Drop_flat.sol\":542:593  if (value == 0) {... */\n      iszero\n      tag_274\n      jumpi\n        /* \"NFTES_Drop_flat.sol\":572:582  return \"0\" */\n      mload(0x40)\n      dup1\n      0x40\n      add\n      0x40\n      mstore\n      dup1\n      0x01\n      dup2\n      mstore\n      0x20\n      add\n      0x3000000000000000000000000000000000000000000000000000000000000000\n      dup2\n      mstore\n      pop\n      swap1\n      pop\n      jump(tag_273)\n        /* \"NFTES_Drop_flat.sol\":542:593  if (value == 0) {... */\n    tag_274:\n        /* \"NFTES_Drop_flat.sol\":602:614  uint256 temp */\n      0x00\n        /* \"NFTES_Drop_flat.sol\":617:622  value */\n      dup3\n        /* \"NFTES_Drop_flat.sol\":602:622  uint256 temp = value */\n      swap1\n      pop\n        /* \"NFTES_Drop_flat.sol\":632:646  uint256 digits */\n      0x00\n        /* \"NFTES_Drop_flat.sol\":656:731  while (temp != 0) {... */\n    tag_275:\n        /* \"NFTES_Drop_flat.sol\":671:672  0 */\n      0x00\n        /* \"NFTES_Drop_flat.sol\":663:667  temp */\n      dup3\n        /* \"NFTES_Drop_flat.sol\":663:672  temp != 0 */\n      eq\n        /* \"NFTES_Drop_flat.sol\":656:731  while (temp != 0) {... */\n      tag_276\n      jumpi\n        /* \"NFTES_Drop_flat.sol\":688:696  digits++ */\n      dup1\n      dup1\n      tag_277\n      swap1\n      tag_174\n      jump\t// in\n    tag_277:\n      swap2\n      pop\n      pop\n        /* \"NFTES_Drop_flat.sol\":718:720  10 */\n      0x0a\n        /* \"NFTES_Drop_flat.sol\":710:720  temp /= 10 */\n      dup3\n      tag_278\n      swap2\n      swap1\n      tag_279\n      jump\t// in\n    tag_278:\n      swap2\n      pop\n        /* \"NFTES_Drop_flat.sol\":656:731  while (temp != 0) {... */\n      jump(tag_275)\n    tag_276:\n        /* \"NFTES_Drop_flat.sol\":740:759  bytes memory buffer */\n      0x00\n        /* \"NFTES_Drop_flat.sol\":772:778  digits */\n      dup2\n        /* \"NFTES_Drop_flat.sol\":762:779  new bytes(digits) */\n      0xffffffffffffffff\n      dup2\n      gt\n      iszero\n      tag_280\n      jumpi\n      tag_281\n      tag_158\n      jump\t// in\n    tag_281:\n    tag_280:\n      mload(0x40)\n      swap1\n      dup1\n      dup3\n      mstore\n      dup1\n      0x1f\n      add\n      not(0x1f)\n      and\n      0x20\n      add\n      dup3\n      add\n      0x40\n      mstore\n      dup1\n      iszero\n      tag_282\n      jumpi\n      dup2\n      0x20\n      add\n      0x01\n      dup3\n      mul\n      dup1\n      calldatasize\n      dup4\n      calldatacopy\n      dup1\n      dup3\n      add\n      swap2\n      pop\n      pop\n      swap1\n      pop\n    tag_282:\n      pop\n        /* \"NFTES_Drop_flat.sol\":740:779  bytes memory buffer = new bytes(digits) */\n      swap1\n      pop\n        /* \"NFTES_Drop_flat.sol\":789:939  while (value != 0) {... */\n    tag_283:\n        /* \"NFTES_Drop_flat.sol\":805:806  0 */\n      0x00\n        /* \"NFTES_Drop_flat.sol\":796:801  value */\n      dup6\n        /* \"NFTES_Drop_flat.sol\":796:806  value != 0 */\n      eq\n        /* \"NFTES_Drop_flat.sol\":789:939  while (value != 0) {... */\n      tag_284\n      jumpi\n        /* \"NFTES_Drop_flat.sol\":832:833  1 */\n      0x01\n        /* \"NFTES_Drop_flat.sol\":822:833  digits -= 1 */\n      dup3\n      tag_285\n      swap2\n      swap1\n      tag_286\n      jump\t// in\n    tag_285:\n      swap2\n      pop\n        /* \"NFTES_Drop_flat.sol\":898:900  10 */\n      0x0a\n        /* \"NFTES_Drop_flat.sol\":890:895  value */\n      dup6\n        /* \"NFTES_Drop_flat.sol\":890:900  value % 10 */\n      tag_287\n      swap2\n      swap1\n      tag_288\n      jump\t// in\n    tag_287:\n        /* \"NFTES_Drop_flat.sol\":877:879  48 */\n      0x30\n        /* \"NFTES_Drop_flat.sol\":877:901  48 + uint256(value % 10) */\n      tag_289\n      swap2\n      swap1\n      tag_290\n      jump\t// in\n    tag_289:\n        /* \"NFTES_Drop_flat.sol\":864:903  bytes1(uint8(48 + uint256(value % 10))) */\n      0xf8\n      shl\n        /* \"NFTES_Drop_flat.sol\":847:853  buffer */\n      dup2\n        /* \"NFTES_Drop_flat.sol\":854:860  digits */\n      dup4\n        /* \"NFTES_Drop_flat.sol\":847:861  buffer[digits] */\n      dup2\n      mload\n      dup2\n      lt\n      tag_291\n      jumpi\n      tag_292\n      tag_172\n      jump\t// in\n    tag_292:\n    tag_291:\n      0x20\n      add\n      add\n        /* \"NFTES_Drop_flat.sol\":847:903  buffer[digits] = bytes1(uint8(48 + uint256(value % 10))) */\n      swap1\n      not(0xffffffffffffffffffffffffffffffffffffffffffffffffffffffffffffff)\n      and\n      swap1\n      dup2\n      0x00\n      byte\n      swap1\n      mstore8\n      pop\n        /* \"NFTES_Drop_flat.sol\":926:928  10 */\n      0x0a\n        /* \"NFTES_Drop_flat.sol\":917:928  value /= 10 */\n      dup6\n      tag_293\n      swap2\n      swap1\n      tag_279\n      jump\t// in\n    tag_293:\n      swap5\n      pop\n        /* \"NFTES_Drop_flat.sol\":789:939  while (value != 0) {... */\n      jump(tag_283)\n    tag_284:\n        /* \"NFTES_Drop_flat.sol\":962:968  buffer */\n      dup1\n        /* \"NFTES_Drop_flat.sol\":948:969  return string(buffer) */\n      swap4\n      pop\n      pop\n      pop\n      pop\n        /* \"NFTES_Drop_flat.sol\":273:976  function toString(uint256 value) internal pure returns (string memory) {... */\n    tag_273:\n      swap2\n      swap1\n      pop\n      jump\t// out\n        /* \"NFTES_Drop_flat.sol\":22931:23054  function depositAmount(address payee, uint256 amountToDeposit) internal {... */\n    tag_177:\n        /* \"NFTES_Drop_flat.sol\":23032:23047  amountToDeposit */\n      dup1\n        /* \"NFTES_Drop_flat.sol\":23013:23021  deposits */\n      0x0d\n        /* \"NFTES_Drop_flat.sol\":23013:23028  deposits[payee] */\n      0x00\n        /* \"NFTES_Drop_flat.sol\":23022:23027  payee */\n      dup5\n        /* \"NFTES_Drop_flat.sol\":23013:23028  deposits[payee] */\n      0xffffffffffffffffffffffffffffffffffffffff\n      and\n      0xffffffffffffffffffffffffffffffffffffffff\n      and\n      dup2\n      mstore\n      0x20\n      add\n      swap1\n      dup2\n      mstore\n      0x20\n      add\n      0x00\n      keccak256\n      0x00\n        /* \"NFTES_Drop_flat.sol\":23013:23047  deposits[payee] += amountToDeposit */\n      dup3\n      dup3\n      sload\n      tag_295\n      swap2\n      swap1\n      tag_290\n      jump\t// in\n    tag_295:\n      swap3\n      pop\n      pop\n      dup2\n      swap1\n      sstore\n      pop\n        /* \"NFTES_Drop_flat.sol\":22931:23054  function depositAmount(address payee, uint256 amountToDeposit) internal {... */\n      pop\n      pop\n      jump\t// out\n        /* \"NFTES_Drop_flat.sol\":19248:19790  function random() internal view returns (uint256) {... */\n    tag_255:\n        /* \"NFTES_Drop_flat.sol\":19289:19296  uint256 */\n      0x00\n        /* \"NFTES_Drop_flat.sol\":19385:19405  uint256 randomnumber */\n      dup1\n        /* \"NFTES_Drop_flat.sol\":19645:19652  Diamond */\n      sload(0x06)\n        /* \"NFTES_Drop_flat.sol\":19614:19618  Gold */\n      sload(0x07)\n        /* \"NFTES_Drop_flat.sol\":19581:19587  Silver */\n      sload(0x08)\n        /* \"NFTES_Drop_flat.sol\":19539:19554  totalNFTsMinted */\n      sload(0x03)\n        /* \"NFTES_Drop_flat.sol\":19496:19511  block.timestamp */\n      timestamp\n        /* \"NFTES_Drop_flat.sol\":19495:19554  (block.timestamp) +... */\n      tag_297\n      swap2\n      swap1\n      tag_290\n      jump\t// in\n    tag_297:\n        /* \"NFTES_Drop_flat.sol\":19495:19587  (block.timestamp) +... */\n      tag_298\n      swap2\n      swap1\n      tag_290\n      jump\t// in\n    tag_298:\n        /* \"NFTES_Drop_flat.sol\":19495:19618  (block.timestamp) +... */\n      tag_299\n      swap2\n      swap1\n      tag_290\n      jump\t// in\n    tag_299:\n        /* \"NFTES_Drop_flat.sol\":19495:19652  (block.timestamp) +... */\n      tag_300\n      swap2\n      swap1\n      tag_290\n      jump\t// in\n    tag_300:\n        /* \"NFTES_Drop_flat.sol\":19675:19685  msg.sender */\n      caller\n        /* \"NFTES_Drop_flat.sol\":19707:19712  Owner */\n      0x0e\n      0x01\n      swap1\n      sload\n      swap1\n      0x0100\n      exp\n      swap1\n      div\n      0xffffffffffffffffffffffffffffffffffffffff\n      and\n        /* \"NFTES_Drop_flat.sol\":19456:19730  abi.encodePacked(... */\n      add(0x20, mload(0x40))\n      tag_301\n      swap4\n      swap3\n      swap2\n      swap1\n      tag_302\n      jump\t// in\n    tag_301:\n      mload(0x40)\n      0x20\n      dup2\n      dup4\n      sub\n      sub\n      dup2\n      mstore\n      swap1\n      0x40\n      mstore\n        /* \"NFTES_Drop_flat.sol\":19429:19744  keccak256(... */\n      dup1\n      mload\n      swap1\n      0x20\n      add\n      keccak256\n        /* \"NFTES_Drop_flat.sol\":19408:19754  uint256(... */\n      0x00\n      shr\n        /* \"NFTES_Drop_flat.sol\":19385:19754  uint256 randomnumber = uint256(... */\n      swap1\n      pop\n        /* \"NFTES_Drop_flat.sol\":19771:19783  randomnumber */\n      dup1\n        /* \"NFTES_Drop_flat.sol\":19764:19783  return randomnumber */\n      swap2\n      pop\n      pop\n        /* \"NFTES_Drop_flat.sol\":19248:19790  function random() internal view returns (uint256) {... */\n      swap1\n      jump\t// out\n        /* \"NFTES_Drop_flat.sol\":19842:21484  function updateConditions(uint256 index)... */\n    tag_257:\n        /* \"NFTES_Drop_flat.sol\":19945:19952  uint256 */\n      0x00\n        /* \"NFTES_Drop_flat.sol\":16427:16432  false */\n      dup1\n        /* \"NFTES_Drop_flat.sol\":16415:16432  isPaused == false */\n      iszero\n      iszero\n        /* \"NFTES_Drop_flat.sol\":16415:16423  isPaused */\n      0x0e\n      0x00\n      swap1\n      sload\n      swap1\n      0x0100\n      exp\n      swap1\n      div\n      0xff\n      and\n        /* \"NFTES_Drop_flat.sol\":16415:16432  isPaused == false */\n      iszero\n      iszero\n      eq\n        /* \"NFTES_Drop_flat.sol\":16407:16464  require(isPaused == false, \"Dropsite is not Opened Yet.\") */\n      tag_304\n      jumpi\n      mload(0x40)\n      0x08c379a000000000000000000000000000000000000000000000000000000000\n      dup2\n      mstore\n      0x04\n      add\n      tag_305\n      swap1\n      tag_129\n      jump\t// in\n    tag_305:\n      mload(0x40)\n      dup1\n      swap2\n      sub\n      swap1\n      revert\n    tag_304:\n        /* \"NFTES_Drop_flat.sol\":19968:19978  uint nftId */\n      0x00\n        /* \"NFTES_Drop_flat.sol\":20007:20008  1 */\n      0x01\n        /* \"NFTES_Drop_flat.sol\":20001:20003  20 */\n      0x14\n        /* \"NFTES_Drop_flat.sol\":19992:19997  index */\n      dup5\n        /* \"NFTES_Drop_flat.sol\":19991:20003  (index) % 20 */\n      tag_307\n      swap2\n      swap1\n      tag_288\n      jump\t// in\n    tag_307:\n        /* \"NFTES_Drop_flat.sol\":19991:20008  (index) % 20 == 1 */\n      eq\n        /* \"NFTES_Drop_flat.sol\":19991:20037  (index) % 20 == 1 && Diamond < maxDiamondCount */\n      dup1\n      iszero\n      tag_308\n      jumpi\n      pop\n        /* \"NFTES_Drop_flat.sol\":20022:20037  maxDiamondCount */\n      sload(0x09)\n        /* \"NFTES_Drop_flat.sol\":20012:20019  Diamond */\n      sload(0x06)\n        /* \"NFTES_Drop_flat.sol\":20012:20037  Diamond < maxDiamondCount */\n      lt\n        /* \"NFTES_Drop_flat.sol\":19991:20037  (index) % 20 == 1 && Diamond < maxDiamondCount */\n    tag_308:\n        /* \"NFTES_Drop_flat.sol\":19988:21478  if((index) % 20 == 1 && Diamond < maxDiamondCount){... */\n      iszero\n      tag_309\n      jumpi\n        /* \"NFTES_Drop_flat.sol\":20052:20059  Diamond */\n      0x06\n      0x00\n        /* \"NFTES_Drop_flat.sol\":20052:20061  Diamond++ */\n      dup2\n      sload\n      dup1\n      swap3\n      swap2\n      swap1\n      tag_310\n      swap1\n      tag_174\n      jump\t// in\n    tag_310:\n      swap2\n      swap1\n      pop\n      sstore\n      pop\n        /* \"NFTES_Drop_flat.sol\":20135:20160  Strings.toString(Diamond) */\n      tag_311\n        /* \"NFTES_Drop_flat.sol\":20152:20159  Diamond */\n      sload(0x06)\n        /* \"NFTES_Drop_flat.sol\":20135:20151  Strings.toString */\n      tag_167\n        /* \"NFTES_Drop_flat.sol\":20135:20160  Strings.toString(Diamond) */\n      jump\t// in\n    tag_311:\n        /* \"NFTES_Drop_flat.sol\":20106:20161  abi.encodePacked(\"Diamond_\", Strings.toString(Diamond)) */\n      add(0x20, mload(0x40))\n      tag_312\n      swap2\n      swap1\n      tag_313\n      jump\t// in\n    tag_312:\n      mload(0x40)\n      0x20\n      dup2\n      dup4\n      sub\n      sub\n      dup2\n      mstore\n      swap1\n      0x40\n      mstore\n        /* \"NFTES_Drop_flat.sol\":20075:20079  data */\n      0x02\n        /* \"NFTES_Drop_flat.sol\":20075:20175  data = string(... */\n      swap1\n      dup1\n      mload\n      swap1\n      0x20\n      add\n      swap1\n      tag_314\n      swap3\n      swap2\n      swap1\n      tag_315\n      jump\t// in\n    tag_314:\n      pop\n        /* \"NFTES_Drop_flat.sol\":20202:20203  0 */\n      0x00\n        /* \"NFTES_Drop_flat.sol\":20196:20203  nftId=0 */\n      swap1\n      pop\n      dup1\n        /* \"NFTES_Drop_flat.sol\":20189:20203  return nftId=0 */\n      swap2\n      pop\n      pop\n      jump(tag_306)\n        /* \"NFTES_Drop_flat.sol\":19988:21478  if((index) % 20 == 1 && Diamond < maxDiamondCount){... */\n    tag_309:\n        /* \"NFTES_Drop_flat.sol\":20332:20333  3 */\n      0x03\n        /* \"NFTES_Drop_flat.sol\":20326:20328  20 */\n      0x14\n        /* \"NFTES_Drop_flat.sol\":20317:20322  index */\n      dup5\n        /* \"NFTES_Drop_flat.sol\":20316:20328  (index) % 20 */\n      tag_317\n      swap2\n      swap1\n      tag_288\n      jump\t// in\n    tag_317:\n        /* \"NFTES_Drop_flat.sol\":20316:20333  (index) % 20 <= 3 */\n      gt\n      iszero\n        /* \"NFTES_Drop_flat.sol\":20316:20356  (index) % 20 <= 3 && Gold < maxGoldCount */\n      dup1\n      iszero\n      tag_318\n      jumpi\n      pop\n        /* \"NFTES_Drop_flat.sol\":20344:20356  maxGoldCount */\n      sload(0x0a)\n        /* \"NFTES_Drop_flat.sol\":20337:20341  Gold */\n      sload(0x07)\n        /* \"NFTES_Drop_flat.sol\":20337:20356  Gold < maxGoldCount */\n      lt\n        /* \"NFTES_Drop_flat.sol\":20316:20356  (index) % 20 <= 3 && Gold < maxGoldCount */\n    tag_318:\n        /* \"NFTES_Drop_flat.sol\":20312:21478  if ((index) % 20 <= 3 && Gold < maxGoldCount) {... */\n      iszero\n      tag_319\n      jumpi\n        /* \"NFTES_Drop_flat.sol\":20372:20376  Gold */\n      0x07\n      0x00\n        /* \"NFTES_Drop_flat.sol\":20372:20378  Gold++ */\n      dup2\n      sload\n      dup1\n      swap3\n      swap2\n      swap1\n      tag_320\n      swap1\n      tag_174\n      jump\t// in\n    tag_320:\n      swap2\n      swap1\n      pop\n      sstore\n      pop\n        /* \"NFTES_Drop_flat.sol\":20432:20454  Strings.toString(Gold) */\n      tag_321\n        /* \"NFTES_Drop_flat.sol\":20449:20453  Gold */\n      sload(0x07)\n        /* \"NFTES_Drop_flat.sol\":20432:20448  Strings.toString */\n      tag_167\n        /* \"NFTES_Drop_flat.sol\":20432:20454  Strings.toString(Gold) */\n      jump\t// in\n    tag_321:\n        /* \"NFTES_Drop_flat.sol\":20406:20455  abi.encodePacked(\"Gold_\", Strings.toString(Gold)) */\n      add(0x20, mload(0x40))\n      tag_322\n      swap2\n      swap1\n      tag_323\n      jump\t// in\n    tag_322:\n      mload(0x40)\n      0x20\n      dup2\n      dup4\n      sub\n      sub\n      dup2\n      mstore\n      swap1\n      0x40\n      mstore\n        /* \"NFTES_Drop_flat.sol\":20392:20396  data */\n      0x02\n        /* \"NFTES_Drop_flat.sol\":20392:20456  data = string(abi.encodePacked(\"Gold_\", Strings.toString(Gold))) */\n      swap1\n      dup1\n      mload\n      swap1\n      0x20\n      add\n      swap1\n      tag_324\n      swap3\n      swap2\n      swap1\n      tag_315\n      jump\t// in\n    tag_324:\n      pop\n        /* \"NFTES_Drop_flat.sol\":20483:20484  1 */\n      0x01\n        /* \"NFTES_Drop_flat.sol\":20477:20484  nftId=1 */\n      swap1\n      pop\n      dup1\n        /* \"NFTES_Drop_flat.sol\":20470:20484  return nftId=1 */\n      swap2\n      pop\n      pop\n      jump(tag_306)\n        /* \"NFTES_Drop_flat.sol\":20312:21478  if ((index) % 20 <= 3 && Gold < maxGoldCount) {... */\n    tag_319:\n        /* \"NFTES_Drop_flat.sol\":20624:20625  3 */\n      0x03\n        /* \"NFTES_Drop_flat.sol\":20619:20621  20 */\n      0x14\n        /* \"NFTES_Drop_flat.sol\":20610:20615  index */\n      dup5\n        /* \"NFTES_Drop_flat.sol\":20609:20621  (index) % 20 */\n      tag_326\n      swap2\n      swap1\n      tag_288\n      jump\t// in\n    tag_326:\n        /* \"NFTES_Drop_flat.sol\":20609:20625  (index) % 20 > 3 */\n      gt\n        /* \"NFTES_Drop_flat.sol\":20609:20652  (index) % 20 > 3 && Silver < maxSilverCount */\n      dup1\n      iszero\n      tag_327\n      jumpi\n      pop\n        /* \"NFTES_Drop_flat.sol\":20638:20652  maxSilverCount */\n      sload(0x0b)\n        /* \"NFTES_Drop_flat.sol\":20629:20635  Silver */\n      sload(0x08)\n        /* \"NFTES_Drop_flat.sol\":20629:20652  Silver < maxSilverCount */\n      lt\n        /* \"NFTES_Drop_flat.sol\":20609:20652  (index) % 20 > 3 && Silver < maxSilverCount */\n    tag_327:\n        /* \"NFTES_Drop_flat.sol\":20605:21478  if ((index) % 20 > 3 && Silver < maxSilverCount) {... */\n      iszero\n      tag_328\n      jumpi\n        /* \"NFTES_Drop_flat.sol\":20668:20674  Silver */\n      0x08\n      0x00\n        /* \"NFTES_Drop_flat.sol\":20668:20676  Silver++ */\n      dup2\n      sload\n      dup1\n      swap3\n      swap2\n      swap1\n      tag_329\n      swap1\n      tag_174\n      jump\t// in\n    tag_329:\n      swap2\n      swap1\n      pop\n      sstore\n      pop\n        /* \"NFTES_Drop_flat.sol\":20749:20773  Strings.toString(Silver) */\n      tag_330\n        /* \"NFTES_Drop_flat.sol\":20766:20772  Silver */\n      sload(0x08)\n        /* \"NFTES_Drop_flat.sol\":20749:20765  Strings.toString */\n      tag_167\n        /* \"NFTES_Drop_flat.sol\":20749:20773  Strings.toString(Silver) */\n      jump\t// in\n    tag_330:\n        /* \"NFTES_Drop_flat.sol\":20721:20774  abi.encodePacked(\"Silver_\", Strings.toString(Silver)) */\n      add(0x20, mload(0x40))\n      tag_331\n      swap2\n      swap1\n      tag_332\n      jump\t// in\n    tag_331:\n      mload(0x40)\n      0x20\n      dup2\n      dup4\n      sub\n      sub\n      dup2\n      mstore\n      swap1\n      0x40\n      mstore\n        /* \"NFTES_Drop_flat.sol\":20690:20694  data */\n      0x02\n        /* \"NFTES_Drop_flat.sol\":20690:20788  data = string(... */\n      swap1\n      dup1\n      mload\n      swap1\n      0x20\n      add\n      swap1\n      tag_333\n      swap3\n      swap2\n      swap1\n      tag_315\n      jump\t// in\n    tag_333:\n      pop\n        /* \"NFTES_Drop_flat.sol\":20815:20816  2 */\n      0x02\n        /* \"NFTES_Drop_flat.sol\":20809:20816  nftId=2 */\n      swap1\n      pop\n      dup1\n        /* \"NFTES_Drop_flat.sol\":20802:20816  return nftId=2 */\n      swap2\n      pop\n      pop\n      jump(tag_306)\n        /* \"NFTES_Drop_flat.sol\":20605:21478  if ((index) % 20 > 3 && Silver < maxSilverCount) {... */\n    tag_328:\n        /* \"NFTES_Drop_flat.sol\":21007:21019  maxGoldCount */\n      sload(0x0a)\n        /* \"NFTES_Drop_flat.sol\":21000:21004  Gold */\n      sload(0x07)\n        /* \"NFTES_Drop_flat.sol\":21000:21019  Gold < maxGoldCount */\n      lt\n        /* \"NFTES_Drop_flat.sol\":20996:21468  if (Gold < maxGoldCount) {... */\n      iszero\n      tag_335\n      jumpi\n        /* \"NFTES_Drop_flat.sol\":21047:21048  1 */\n      0x01\n        /* \"NFTES_Drop_flat.sol\":21039:21048  nftId = 1 */\n      swap1\n      pop\n        /* \"NFTES_Drop_flat.sol\":21066:21070  Gold */\n      0x07\n      0x00\n        /* \"NFTES_Drop_flat.sol\":21066:21072  Gold++ */\n      dup2\n      sload\n      dup1\n      swap3\n      swap2\n      swap1\n      tag_336\n      swap1\n      tag_174\n      jump\t// in\n    tag_336:\n      swap2\n      swap1\n      pop\n      sstore\n      pop\n        /* \"NFTES_Drop_flat.sol\":21151:21173  Strings.toString(Gold) */\n      tag_337\n        /* \"NFTES_Drop_flat.sol\":21168:21172  Gold */\n      sload(0x07)\n        /* \"NFTES_Drop_flat.sol\":21151:21167  Strings.toString */\n      tag_167\n        /* \"NFTES_Drop_flat.sol\":21151:21173  Strings.toString(Gold) */\n      jump\t// in\n    tag_337:\n        /* \"NFTES_Drop_flat.sol\":21125:21174  abi.encodePacked(\"Gold_\", Strings.toString(Gold)) */\n      add(0x20, mload(0x40))\n      tag_338\n      swap2\n      swap1\n      tag_323\n      jump\t// in\n    tag_338:\n      mload(0x40)\n      0x20\n      dup2\n      dup4\n      sub\n      sub\n      dup2\n      mstore\n      swap1\n      0x40\n      mstore\n        /* \"NFTES_Drop_flat.sol\":21090:21094  data */\n      0x02\n        /* \"NFTES_Drop_flat.sol\":21090:21192  data = string(... */\n      swap1\n      dup1\n      mload\n      swap1\n      0x20\n      add\n      swap1\n      tag_339\n      swap3\n      swap2\n      swap1\n      tag_315\n      jump\t// in\n    tag_339:\n      pop\n        /* \"NFTES_Drop_flat.sol\":21217:21222  nftId */\n      dup1\n        /* \"NFTES_Drop_flat.sol\":21210:21222  return nftId */\n      swap2\n      pop\n      pop\n      jump(tag_306)\n        /* \"NFTES_Drop_flat.sol\":20996:21468  if (Gold < maxGoldCount) {... */\n    tag_335:\n        /* \"NFTES_Drop_flat.sol\":21269:21270  0 */\n      0x00\n        /* \"NFTES_Drop_flat.sol\":21261:21270  nftId = 0 */\n      swap1\n      pop\n        /* \"NFTES_Drop_flat.sol\":21288:21295  Diamond */\n      0x06\n      0x00\n        /* \"NFTES_Drop_flat.sol\":21288:21297  Diamond++ */\n      dup2\n      sload\n      dup1\n      swap3\n      swap2\n      swap1\n      tag_341\n      swap1\n      tag_174\n      jump\t// in\n    tag_341:\n      swap2\n      swap1\n      pop\n      sstore\n      pop\n        /* \"NFTES_Drop_flat.sol\":21379:21404  Strings.toString(Diamond) */\n      tag_342\n        /* \"NFTES_Drop_flat.sol\":21396:21403  Diamond */\n      sload(0x06)\n        /* \"NFTES_Drop_flat.sol\":21379:21395  Strings.toString */\n      tag_167\n        /* \"NFTES_Drop_flat.sol\":21379:21404  Strings.toString(Diamond) */\n      jump\t// in\n    tag_342:\n        /* \"NFTES_Drop_flat.sol\":21350:21405  abi.encodePacked(\"Diamond_\", Strings.toString(Diamond)) */\n      add(0x20, mload(0x40))\n      tag_343\n      swap2\n      swap1\n      tag_313\n      jump\t// in\n    tag_343:\n      mload(0x40)\n      0x20\n      dup2\n      dup4\n      sub\n      sub\n      dup2\n      mstore\n      swap1\n      0x40\n      mstore\n        /* \"NFTES_Drop_flat.sol\":21315:21319  data */\n      0x02\n        /* \"NFTES_Drop_flat.sol\":21315:21423  data = string(... */\n      swap1\n      dup1\n      mload\n      swap1\n      0x20\n      add\n      swap1\n      tag_344\n      swap3\n      swap2\n      swap1\n      tag_315\n      jump\t// in\n    tag_344:\n      pop\n        /* \"NFTES_Drop_flat.sol\":21448:21453  nftId */\n      dup1\n        /* \"NFTES_Drop_flat.sol\":21441:21453  return nftId */\n      swap2\n      pop\n      pop\n        /* \"NFTES_Drop_flat.sol\":16474:16475  _ */\n    tag_306:\n        /* \"NFTES_Drop_flat.sol\":19842:21484  function updateConditions(uint256 index)... */\n      swap2\n      swap1\n      pop\n      jump\t// out\n        /* \"NFTES_Drop_flat.sol\":13711:14263  function _mint(... */\n    tag_265:\n        /* \"NFTES_Drop_flat.sol\":13873:13874  0 */\n      0x00\n        /* \"NFTES_Drop_flat.sol\":13859:13875  to != address(0) */\n      0xffffffffffffffffffffffffffffffffffffffff\n      and\n        /* \"NFTES_Drop_flat.sol\":13859:13861  to */\n      dup5\n        /* \"NFTES_Drop_flat.sol\":13859:13875  to != address(0) */\n      0xffffffffffffffffffffffffffffffffffffffff\n      and\n      eq\n      iszero\n        /* \"NFTES_Drop_flat.sol\":13851:13913  require(to != address(0), \"ERC1155: mint to the zero address\") */\n      tag_346\n      jumpi\n      mload(0x40)\n      0x08c379a000000000000000000000000000000000000000000000000000000000\n      dup2\n      mstore\n      0x04\n      add\n      tag_347\n      swap1\n      tag_348\n      jump\t// in\n    tag_347:\n      mload(0x40)\n      dup1\n      swap2\n      sub\n      swap1\n      revert\n    tag_346:\n        /* \"NFTES_Drop_flat.sol\":13924:13940  address operator */\n      0x00\n        /* \"NFTES_Drop_flat.sol\":13943:13955  _msgSender() */\n      tag_349\n        /* \"NFTES_Drop_flat.sol\":13943:13953  _msgSender */\n      tag_108\n        /* \"NFTES_Drop_flat.sol\":13943:13955  _msgSender() */\n      jump\t// in\n    tag_349:\n        /* \"NFTES_Drop_flat.sol\":13924:13955  address operator = _msgSender() */\n      swap1\n      pop\n        /* \"NFTES_Drop_flat.sol\":13966:14068  _beforeTokenTransfer(operator, address(0), to, _asSingletonArray(id), _asSingletonArray(amount), data) */\n      tag_350\n        /* \"NFTES_Drop_flat.sol\":13987:13995  operator */\n      dup2\n        /* \"NFTES_Drop_flat.sol\":14005:14006  0 */\n      0x00\n        /* \"NFTES_Drop_flat.sol\":14009:14011  to */\n      dup8\n        /* \"NFTES_Drop_flat.sol\":14013:14034  _asSingletonArray(id) */\n      tag_351\n        /* \"NFTES_Drop_flat.sol\":14031:14033  id */\n      dup9\n        /* \"NFTES_Drop_flat.sol\":14013:14030  _asSingletonArray */\n      tag_352\n        /* \"NFTES_Drop_flat.sol\":14013:14034  _asSingletonArray(id) */\n      jump\t// in\n    tag_351:\n        /* \"NFTES_Drop_flat.sol\":14036:14061  _asSingletonArray(amount) */\n      tag_353\n        /* \"NFTES_Drop_flat.sol\":14054:14060  amount */\n      dup9\n        /* \"NFTES_Drop_flat.sol\":14036:14053  _asSingletonArray */\n      tag_352\n        /* \"NFTES_Drop_flat.sol\":14036:14061  _asSingletonArray(amount) */\n      jump\t// in\n    tag_353:\n        /* \"NFTES_Drop_flat.sol\":14063:14067  data */\n      dup8\n        /* \"NFTES_Drop_flat.sol\":13966:13986  _beforeTokenTransfer */\n      tag_354\n        /* \"NFTES_Drop_flat.sol\":13966:14068  _beforeTokenTransfer(operator, address(0), to, _asSingletonArray(id), _asSingletonArray(amount), data) */\n      jump\t// in\n    tag_350:\n        /* \"NFTES_Drop_flat.sol\":14099:14105  amount */\n      dup3\n        /* \"NFTES_Drop_flat.sol\":14078:14087  _balances */\n      0x00\n        /* \"NFTES_Drop_flat.sol\":14078:14091  _balances[id] */\n      dup1\n        /* \"NFTES_Drop_flat.sol\":14088:14090  id */\n      dup7\n        /* \"NFTES_Drop_flat.sol\":14078:14091  _balances[id] */\n      dup2\n      mstore\n      0x20\n      add\n      swap1\n      dup2\n      mstore\n      0x20\n      add\n      0x00\n      keccak256\n        /* \"NFTES_Drop_flat.sol\":14078:14095  _balances[id][to] */\n      0x00\n        /* \"NFTES_Drop_flat.sol\":14092:14094  to */\n      dup8\n        /* \"NFTES_Drop_flat.sol\":14078:14095  _balances[id][to] */\n      0xffffffffffffffffffffffffffffffffffffffff\n      and\n      0xffffffffffffffffffffffffffffffffffffffff\n      and\n      dup2\n      mstore\n      0x20\n      add\n      swap1\n      dup2\n      mstore\n      0x20\n      add\n      0x00\n      keccak256\n      0x00\n        /* \"NFTES_Drop_flat.sol\":14078:14105  _balances[id][to] += amount */\n      dup3\n      dup3\n      sload\n      tag_355\n      swap2\n      swap1\n      tag_290\n      jump\t// in\n    tag_355:\n      swap3\n      pop\n      pop\n      dup2\n      swap1\n      sstore\n      pop\n        /* \"NFTES_Drop_flat.sol\":14157:14159  to */\n      dup5\n        /* \"NFTES_Drop_flat.sol\":14120:14172  TransferSingle(operator, address(0), to, id, amount) */\n      0xffffffffffffffffffffffffffffffffffffffff\n      and\n        /* \"NFTES_Drop_flat.sol\":14153:14154  0 */\n      0x00\n        /* \"NFTES_Drop_flat.sol\":14120:14172  TransferSingle(operator, address(0), to, id, amount) */\n      0xffffffffffffffffffffffffffffffffffffffff\n      and\n        /* \"NFTES_Drop_flat.sol\":14135:14143  operator */\n      dup3\n        /* \"NFTES_Drop_flat.sol\":14120:14172  TransferSingle(operator, address(0), to, id, amount) */\n      0xffffffffffffffffffffffffffffffffffffffff\n      and\n      0xc3d58168c5ae7397731d063d5bbf3d657854427343f4c083240f7aacaa2d0f62\n        /* \"NFTES_Drop_flat.sol\":14161:14163  id */\n      dup8\n        /* \"NFTES_Drop_flat.sol\":14165:14171  amount */\n      dup8\n        /* \"NFTES_Drop_flat.sol\":14120:14172  TransferSingle(operator, address(0), to, id, amount) */\n      mload(0x40)\n      tag_356\n      swap3\n      swap2\n      swap1\n      tag_357\n      jump\t// in\n    tag_356:\n      mload(0x40)\n      dup1\n      swap2\n      sub\n      swap1\n      log4\n        /* \"NFTES_Drop_flat.sol\":14182:14256  _doSafeTransferAcceptanceCheck(operator, address(0), to, id, amount, data) */\n      tag_358\n        /* \"NFTES_Drop_flat.sol\":14213:14221  operator */\n      dup2\n        /* \"NFTES_Drop_flat.sol\":14231:14232  0 */\n      0x00\n        /* \"NFTES_Drop_flat.sol\":14235:14237  to */\n      dup8\n        /* \"NFTES_Drop_flat.sol\":14239:14241  id */\n      dup8\n        /* \"NFTES_Drop_flat.sol\":14243:14249  amount */\n      dup8\n        /* \"NFTES_Drop_flat.sol\":14251:14255  data */\n      dup8\n        /* \"NFTES_Drop_flat.sol\":14182:14212  _doSafeTransferAcceptanceCheck */\n      tag_359\n        /* \"NFTES_Drop_flat.sol\":14182:14256  _doSafeTransferAcceptanceCheck(operator, address(0), to, id, amount, data) */\n      jump\t// in\n    tag_358:\n        /* \"NFTES_Drop_flat.sol\":13841:14263  {... */\n      pop\n        /* \"NFTES_Drop_flat.sol\":13711:14263  function _mint(... */\n      pop\n      pop\n      pop\n      pop\n      jump\t// out\n        /* \"NFTES_Drop_flat.sol\":15223:15416  function _asSingletonArray(uint256 element) private pure returns (uint256[] memory) {... */\n    tag_352:\n        /* \"NFTES_Drop_flat.sol\":15289:15305  uint256[] memory */\n      0x60\n        /* \"NFTES_Drop_flat.sol\":15317:15339  uint256[] memory array */\n      0x00\n        /* \"NFTES_Drop_flat.sol\":15356:15357  1 */\n      0x01\n        /* \"NFTES_Drop_flat.sol\":15342:15358  new uint256[](1) */\n      0xffffffffffffffff\n      dup2\n      gt\n      iszero\n      tag_361\n      jumpi\n      tag_362\n      tag_158\n      jump\t// in\n    tag_362:\n    tag_361:\n      mload(0x40)\n      swap1\n      dup1\n      dup3\n      mstore\n      dup1\n      0x20\n      mul\n      0x20\n      add\n      dup3\n      add\n      0x40\n      mstore\n      dup1\n      iszero\n      tag_363\n      jumpi\n      dup2\n      0x20\n      add\n      0x20\n      dup3\n      mul\n      dup1\n      calldatasize\n      dup4\n      calldatacopy\n      dup1\n      dup3\n      add\n      swap2\n      pop\n      pop\n      swap1\n      pop\n    tag_363:\n      pop\n        /* \"NFTES_Drop_flat.sol\":15317:15358  uint256[] memory array = new uint256[](1) */\n      swap1\n      pop\n        /* \"NFTES_Drop_flat.sol\":15379:15386  element */\n      dup3\n        /* \"NFTES_Drop_flat.sol\":15368:15373  array */\n      dup2\n        /* \"NFTES_Drop_flat.sol\":15374:15375  0 */\n      0x00\n        /* \"NFTES_Drop_flat.sol\":15368:15376  array[0] */\n      dup2\n      mload\n      dup2\n      lt\n      tag_364\n      jumpi\n      tag_365\n      tag_172\n      jump\t// in\n    tag_365:\n    tag_364:\n      0x20\n      mul\n      0x20\n      add\n      add\n        /* \"NFTES_Drop_flat.sol\":15368:15386  array[0] = element */\n      dup2\n      dup2\n      mstore\n      pop\n      pop\n        /* \"NFTES_Drop_flat.sol\":15404:15409  array */\n      dup1\n        /* \"NFTES_Drop_flat.sol\":15397:15409  return array */\n      swap2\n      pop\n      pop\n        /* \"NFTES_Drop_flat.sol\":15223:15416  function _asSingletonArray(uint256 element) private pure returns (uint256[] memory) {... */\n      swap2\n      swap1\n      pop\n      jump\t// out\n        /* \"NFTES_Drop_flat.sol\":14270:14485  function _beforeTokenTransfer(... */\n    tag_354:\n      pop\n      pop\n      pop\n      pop\n      pop\n      pop\n      jump\t// out\n        /* \"NFTES_Drop_flat.sol\":14491:15217  function _doSafeTransferAcceptanceCheck(... */\n    tag_359:\n        /* \"NFTES_Drop_flat.sol\":14699:14714  to.isContract() */\n      tag_368\n        /* \"NFTES_Drop_flat.sol\":14699:14701  to */\n      dup5\n        /* \"NFTES_Drop_flat.sol\":14699:14712  to.isContract */\n      0xffffffffffffffffffffffffffffffffffffffff\n      and\n      tag_369\n        /* \"NFTES_Drop_flat.sol\":14699:14714  to.isContract() */\n      jump\t// in\n    tag_368:\n        /* \"NFTES_Drop_flat.sol\":14695:15211  if (to.isContract()) {... */\n      iszero\n      tag_370\n      jumpi\n        /* \"NFTES_Drop_flat.sol\":14751:14753  to */\n      dup4\n        /* \"NFTES_Drop_flat.sol\":14734:14772  IERC1155Receiver(to).onERC1155Received */\n      0xffffffffffffffffffffffffffffffffffffffff\n      and\n      0xae89a248\n        /* \"NFTES_Drop_flat.sol\":14773:14781  operator */\n      dup8\n        /* \"NFTES_Drop_flat.sol\":14783:14787  from */\n      dup8\n        /* \"NFTES_Drop_flat.sol\":14789:14791  id */\n      dup7\n        /* \"NFTES_Drop_flat.sol\":14793:14799  amount */\n      dup7\n        /* \"NFTES_Drop_flat.sol\":14801:14805  data */\n      dup7\n        /* \"NFTES_Drop_flat.sol\":14734:14806  IERC1155Receiver(to).onERC1155Received(operator, from, id, amount, data) */\n      mload(0x40)\n      dup7\n      0xffffffff\n      and\n      0xe0\n      shl\n      dup2\n      mstore\n      0x04\n      add\n      tag_371\n      swap6\n      swap5\n      swap4\n      swap3\n      swap2\n      swap1\n      tag_372\n      jump\t// in\n    tag_371:\n      0x20\n      mload(0x40)\n      dup1\n      dup4\n      sub\n      dup2\n      0x00\n      dup8\n      dup1\n      extcodesize\n      iszero\n      dup1\n      iszero\n      tag_373\n      jumpi\n      0x00\n      dup1\n      revert\n    tag_373:\n      pop\n      gas\n      call\n      swap3\n      pop\n      pop\n      pop\n      dup1\n      iszero\n      tag_374\n      jumpi\n      pop\n      mload(0x40)\n      returndatasize\n      not(0x1f)\n      0x1f\n      dup3\n      add\n      and\n      dup3\n      add\n      dup1\n      0x40\n      mstore\n      pop\n      dup2\n      add\n      swap1\n      tag_375\n      swap2\n      swap1\n      tag_376\n      jump\t// in\n    tag_375:\n      0x01\n    tag_374:\n        /* \"NFTES_Drop_flat.sol\":14730:15201  try IERC1155Receiver(to).onERC1155Received(operator, from, id, amount, data) returns (bytes4 response) {... */\n      tag_377\n      jumpi\n      tag_381\n      tag_382\n      jump\t// in\n    tag_381:\n      dup1\n      0x08c379a0\n      eq\n      iszero\n      tag_380\n      jumpi\n      pop\n      tag_383\n      tag_384\n      jump\t// in\n    tag_383:\n      dup1\n      tag_385\n      jumpi\n      pop\n      jump(tag_379)\n    tag_385:\n        /* \"NFTES_Drop_flat.sol\":15077:15083  reason */\n      dup1\n        /* \"NFTES_Drop_flat.sol\":15070:15084  revert(reason) */\n      mload(0x40)\n      0x08c379a000000000000000000000000000000000000000000000000000000000\n      dup2\n      mstore\n      0x04\n      add\n      tag_386\n      swap2\n      swap1\n      tag_387\n      jump\t// in\n    tag_386:\n      mload(0x40)\n      dup1\n      swap2\n      sub\n      swap1\n      revert\n        /* \"NFTES_Drop_flat.sol\":14730:15201  try IERC1155Receiver(to).onERC1155Received(operator, from, id, amount, data) returns (bytes4 response) {... */\n    tag_380:\n      pop\n    tag_379:\n        /* \"NFTES_Drop_flat.sol\":15124:15186  revert(\"ERC1155: transfer to non ERC1155Receiver implementer\") */\n      mload(0x40)\n      0x08c379a000000000000000000000000000000000000000000000000000000000\n      dup2\n      mstore\n      0x04\n      add\n      tag_388\n      swap1\n      tag_389\n      jump\t// in\n    tag_388:\n      mload(0x40)\n      dup1\n      swap2\n      sub\n      swap1\n      revert\n        /* \"NFTES_Drop_flat.sol\":14730:15201  try IERC1155Receiver(to).onERC1155Received(operator, from, id, amount, data) returns (bytes4 response) {... */\n    tag_377:\n        /* \"NFTES_Drop_flat.sol\":14867:14910  IERC1155Receiver.onERC1155Received.selector */\n      shl(0xe0, 0xae89a248)\n        /* \"NFTES_Drop_flat.sol\":14855:14910  response != IERC1155Receiver.onERC1155Received.selector */\n      not(0xffffffffffffffffffffffffffffffffffffffffffffffffffffffff)\n      and\n        /* \"NFTES_Drop_flat.sol\":14855:14863  response */\n      dup2\n        /* \"NFTES_Drop_flat.sol\":14855:14910  response != IERC1155Receiver.onERC1155Received.selector */\n      not(0xffffffffffffffffffffffffffffffffffffffffffffffffffffffff)\n      and\n      eq\n        /* \"NFTES_Drop_flat.sol\":14851:15003  if (response != IERC1155Receiver.onERC1155Received.selector) {... */\n      tag_391\n      jumpi\n        /* \"NFTES_Drop_flat.sol\":14934:14984  revert(\"ERC1155: ERC1155Receiver rejected tokens\") */\n      mload(0x40)\n      0x08c379a000000000000000000000000000000000000000000000000000000000\n      dup2\n      mstore\n      0x04\n      add\n      tag_392\n      swap1\n      tag_393\n      jump\t// in\n    tag_392:\n      mload(0x40)\n      dup1\n      swap2\n      sub\n      swap1\n      revert\n        /* \"NFTES_Drop_flat.sol\":14851:15003  if (response != IERC1155Receiver.onERC1155Received.selector) {... */\n    tag_391:\n        /* \"NFTES_Drop_flat.sol\":14807:15017  returns (bytes4 response) {... */\n      pop\n        /* \"NFTES_Drop_flat.sol\":14695:15211  if (to.isContract()) {... */\n    tag_370:\n        /* \"NFTES_Drop_flat.sol\":14491:15217  function _doSafeTransferAcceptanceCheck(... */\n      pop\n      pop\n      pop\n      pop\n      pop\n      pop\n      jump\t// out\n        /* \"NFTES_Drop_flat.sol\":3574:3951  function isContract(address account) internal view returns (bool) {... */\n    tag_369:\n        /* \"NFTES_Drop_flat.sol\":3634:3638  bool */\n      0x00\n        /* \"NFTES_Drop_flat.sol\":3837:3849  uint256 size */\n      dup1\n        /* \"NFTES_Drop_flat.sol\":3902:3909  account */\n      dup3\n        /* \"NFTES_Drop_flat.sol\":3890:3910  extcodesize(account) */\n      extcodesize\n        /* \"NFTES_Drop_flat.sol\":3882:3910  size := extcodesize(account) */\n      swap1\n      pop\n        /* \"NFTES_Drop_flat.sol\":3943:3944  0 */\n      0x00\n        /* \"NFTES_Drop_flat.sol\":3936:3940  size */\n      dup2\n        /* \"NFTES_Drop_flat.sol\":3936:3944  size > 0 */\n      gt\n        /* \"NFTES_Drop_flat.sol\":3929:3944  return size > 0 */\n      swap2\n      pop\n      pop\n        /* \"NFTES_Drop_flat.sol\":3574:3951  function isContract(address account) internal view returns (bool) {... */\n      swap2\n      swap1\n      pop\n      jump\t// out\n    tag_315:\n      dup3\n      dup1\n      sload\n      tag_395\n      swap1\n      tag_260\n      jump\t// in\n    tag_395:\n      swap1\n      0x00\n      mstore\n      keccak256(0x00, 0x20)\n      swap1\n      0x1f\n      add\n      0x20\n      swap1\n      div\n      dup2\n      add\n      swap3\n      dup3\n      tag_397\n      jumpi\n      0x00\n      dup6\n      sstore\n      jump(tag_396)\n    tag_397:\n      dup3\n      0x1f\n      lt\n      tag_398\n      jumpi\n      dup1\n      mload\n      not(0xff)\n      and\n      dup4\n      dup1\n      add\n      or\n      dup6\n      sstore\n      jump(tag_396)\n    tag_398:\n      dup3\n      dup1\n      add\n      0x01\n      add\n      dup6\n      sstore\n      dup3\n      iszero\n      tag_396\n      jumpi\n      swap2\n      dup3\n      add\n    tag_399:\n      dup3\n      dup2\n      gt\n      iszero\n      tag_400\n      jumpi\n      dup3\n      mload\n      dup3\n      sstore\n      swap2\n      0x20\n      add\n      swap2\n      swap1\n      0x01\n      add\n      swap1\n      jump(tag_399)\n    tag_400:\n    tag_396:\n      pop\n      swap1\n      pop\n      tag_401\n      swap2\n      swap1\n      tag_402\n      jump\t// in\n    tag_401:\n      pop\n      swap1\n      jump\t// out\n    tag_402:\n    tag_403:\n      dup1\n      dup3\n      gt\n      iszero\n      tag_404\n      jumpi\n      0x00\n      dup2\n      0x00\n      swap1\n      sstore\n      pop\n      0x01\n      add\n      jump(tag_403)\n    tag_404:\n      pop\n      swap1\n      jump\t// out\n        /* \"#utility.yul\":7:146   */\n    tag_406:\n        /* \"#utility.yul\":53:58   */\n      0x00\n        /* \"#utility.yul\":91:97   */\n      dup2\n        /* \"#utility.yul\":78:98   */\n      calldataload\n        /* \"#utility.yul\":69:98   */\n      swap1\n      pop\n        /* \"#utility.yul\":107:140   */\n      tag_408\n        /* \"#utility.yul\":134:139   */\n      dup2\n        /* \"#utility.yul\":107:140   */\n      tag_409\n      jump\t// in\n    tag_408:\n        /* \"#utility.yul\":7:146   */\n      swap3\n      swap2\n      pop\n      pop\n      jump\t// out\n        /* \"#utility.yul\":152:307   */\n    tag_410:\n        /* \"#utility.yul\":206:211   */\n      0x00\n        /* \"#utility.yul\":244:250   */\n      dup2\n        /* \"#utility.yul\":231:251   */\n      calldataload\n        /* \"#utility.yul\":222:251   */\n      swap1\n      pop\n        /* \"#utility.yul\":260:301   */\n      tag_412\n        /* \"#utility.yul\":295:300   */\n      dup2\n        /* \"#utility.yul\":260:301   */\n      tag_413\n      jump\t// in\n    tag_412:\n        /* \"#utility.yul\":152:307   */\n      swap3\n      swap2\n      pop\n      pop\n      jump\t// out\n        /* \"#utility.yul\":313:454   */\n    tag_414:\n        /* \"#utility.yul\":369:374   */\n      0x00\n        /* \"#utility.yul\":400:406   */\n      dup2\n        /* \"#utility.yul\":394:407   */\n      mload\n        /* \"#utility.yul\":385:407   */\n      swap1\n      pop\n        /* \"#utility.yul\":416:448   */\n      tag_416\n        /* \"#utility.yul\":442:447   */\n      dup2\n        /* \"#utility.yul\":416:448   */\n      tag_417\n      jump\t// in\n    tag_416:\n        /* \"#utility.yul\":313:454   */\n      swap3\n      swap2\n      pop\n      pop\n      jump\t// out\n        /* \"#utility.yul\":460:599   */\n    tag_418:\n        /* \"#utility.yul\":506:511   */\n      0x00\n        /* \"#utility.yul\":544:550   */\n      dup2\n        /* \"#utility.yul\":531:551   */\n      calldataload\n        /* \"#utility.yul\":522:551   */\n      swap1\n      pop\n        /* \"#utility.yul\":560:593   */\n      tag_420\n        /* \"#utility.yul\":587:592   */\n      dup2\n        /* \"#utility.yul\":560:593   */\n      tag_421\n      jump\t// in\n    tag_420:\n        /* \"#utility.yul\":460:599   */\n      swap3\n      swap2\n      pop\n      pop\n      jump\t// out\n        /* \"#utility.yul\":605:934   */\n    tag_43:\n        /* \"#utility.yul\":664:670   */\n      0x00\n        /* \"#utility.yul\":713:715   */\n      0x20\n        /* \"#utility.yul\":701:710   */\n      dup3\n        /* \"#utility.yul\":692:699   */\n      dup5\n        /* \"#utility.yul\":688:711   */\n      sub\n        /* \"#utility.yul\":684:716   */\n      slt\n        /* \"#utility.yul\":681:800   */\n      iszero\n      tag_423\n      jumpi\n        /* \"#utility.yul\":719:798   */\n      tag_424\n      tag_425\n      jump\t// in\n    tag_424:\n        /* \"#utility.yul\":681:800   */\n    tag_423:\n        /* \"#utility.yul\":839:840   */\n      0x00\n        /* \"#utility.yul\":864:917   */\n      tag_426\n        /* \"#utility.yul\":909:916   */\n      dup5\n        /* \"#utility.yul\":900:906   */\n      dup3\n        /* \"#utility.yul\":889:898   */\n      dup6\n        /* \"#utility.yul\":885:907   */\n      add\n        /* \"#utility.yul\":864:917   */\n      tag_406\n      jump\t// in\n    tag_426:\n        /* \"#utility.yul\":854:917   */\n      swap2\n      pop\n        /* \"#utility.yul\":810:927   */\n      pop\n        /* \"#utility.yul\":605:934   */\n      swap3\n      swap2\n      pop\n      pop\n      jump\t// out\n        /* \"#utility.yul\":940:1430   */\n    tag_38:\n        /* \"#utility.yul\":1016:1022   */\n      0x00\n        /* \"#utility.yul\":1024:1030   */\n      dup1\n        /* \"#utility.yul\":1073:1075   */\n      0x40\n        /* \"#utility.yul\":1061:1070   */\n      dup4\n        /* \"#utility.yul\":1052:1059   */\n      dup6\n        /* \"#utility.yul\":1048:1071   */\n      sub\n        /* \"#utility.yul\":1044:1076   */\n      slt\n        /* \"#utility.yul\":1041:1160   */\n      iszero\n      tag_428\n      jumpi\n        /* \"#utility.yul\":1079:1158   */\n      tag_429\n      tag_425\n      jump\t// in\n    tag_429:\n        /* \"#utility.yul\":1041:1160   */\n    tag_428:\n        /* \"#utility.yul\":1199:1200   */\n      0x00\n        /* \"#utility.yul\":1224:1285   */\n      tag_430\n        /* \"#utility.yul\":1277:1284   */\n      dup6\n        /* \"#utility.yul\":1268:1274   */\n      dup3\n        /* \"#utility.yul\":1257:1266   */\n      dup7\n        /* \"#utility.yul\":1253:1275   */\n      add\n        /* \"#utility.yul\":1224:1285   */\n      tag_410\n      jump\t// in\n    tag_430:\n        /* \"#utility.yul\":1214:1285   */\n      swap3\n      pop\n        /* \"#utility.yul\":1170:1295   */\n      pop\n        /* \"#utility.yul\":1334:1336   */\n      0x20\n        /* \"#utility.yul\":1360:1413   */\n      tag_431\n        /* \"#utility.yul\":1405:1412   */\n      dup6\n        /* \"#utility.yul\":1396:1402   */\n      dup3\n        /* \"#utility.yul\":1385:1394   */\n      dup7\n        /* \"#utility.yul\":1381:1403   */\n      add\n        /* \"#utility.yul\":1360:1413   */\n      tag_418\n      jump\t// in\n    tag_431:\n        /* \"#utility.yul\":1350:1413   */\n      swap2\n      pop\n        /* \"#utility.yul\":1305:1423   */\n      pop\n        /* \"#utility.yul\":940:1430   */\n      swap3\n      pop\n      swap3\n      swap1\n      pop\n      jump\t// out\n        /* \"#utility.yul\":1436:1910   */\n    tag_49:\n        /* \"#utility.yul\":1504:1510   */\n      0x00\n        /* \"#utility.yul\":1512:1518   */\n      dup1\n        /* \"#utility.yul\":1561:1563   */\n      0x40\n        /* \"#utility.yul\":1549:1558   */\n      dup4\n        /* \"#utility.yul\":1540:1547   */\n      dup6\n        /* \"#utility.yul\":1536:1559   */\n      sub\n        /* \"#utility.yul\":1532:1564   */\n      slt\n        /* \"#utility.yul\":1529:1648   */\n      iszero\n      tag_433\n      jumpi\n        /* \"#utility.yul\":1567:1646   */\n      tag_434\n      tag_425\n      jump\t// in\n    tag_434:\n        /* \"#utility.yul\":1529:1648   */\n    tag_433:\n        /* \"#utility.yul\":1687:1688   */\n      0x00\n        /* \"#utility.yul\":1712:1765   */\n      tag_435\n        /* \"#utility.yul\":1757:1764   */\n      dup6\n        /* \"#utility.yul\":1748:1754   */\n      dup3\n        /* \"#utility.yul\":1737:1746   */\n      dup7\n        /* \"#utility.yul\":1733:1755   */\n      add\n        /* \"#utility.yul\":1712:1765   */\n      tag_406\n      jump\t// in\n    tag_435:\n        /* \"#utility.yul\":1702:1765   */\n      swap3\n      pop\n        /* \"#utility.yul\":1658:1775   */\n      pop\n        /* \"#utility.yul\":1814:1816   */\n      0x20\n        /* \"#utility.yul\":1840:1893   */\n      tag_436\n        /* \"#utility.yul\":1885:1892   */\n      dup6\n        /* \"#utility.yul\":1876:1882   */\n      dup3\n        /* \"#utility.yul\":1865:1874   */\n      dup7\n        /* \"#utility.yul\":1861:1883   */\n      add\n        /* \"#utility.yul\":1840:1893   */\n      tag_418\n      jump\t// in\n    tag_436:\n        /* \"#utility.yul\":1830:1893   */\n      swap2\n      pop\n        /* \"#utility.yul\":1785:1903   */\n      pop\n        /* \"#utility.yul\":1436:1910   */\n      swap3\n      pop\n      swap3\n      swap1\n      pop\n      jump\t// out\n        /* \"#utility.yul\":1916:2265   */\n    tag_376:\n        /* \"#utility.yul\":1985:1991   */\n      0x00\n        /* \"#utility.yul\":2034:2036   */\n      0x20\n        /* \"#utility.yul\":2022:2031   */\n      dup3\n        /* \"#utility.yul\":2013:2020   */\n      dup5\n        /* \"#utility.yul\":2009:2032   */\n      sub\n        /* \"#utility.yul\":2005:2037   */\n      slt\n        /* \"#utility.yul\":2002:2121   */\n      iszero\n      tag_438\n      jumpi\n        /* \"#utility.yul\":2040:2119   */\n      tag_439\n      tag_425\n      jump\t// in\n    tag_439:\n        /* \"#utility.yul\":2002:2121   */\n    tag_438:\n        /* \"#utility.yul\":2160:2161   */\n      0x00\n        /* \"#utility.yul\":2185:2248   */\n      tag_440\n        /* \"#utility.yul\":2240:2247   */\n      dup5\n        /* \"#utility.yul\":2231:2237   */\n      dup3\n        /* \"#utility.yul\":2220:2229   */\n      dup6\n        /* \"#utility.yul\":2216:2238   */\n      add\n        /* \"#utility.yul\":2185:2248   */\n      tag_414\n      jump\t// in\n    tag_440:\n        /* \"#utility.yul\":2175:2248   */\n      swap2\n      pop\n        /* \"#utility.yul\":2131:2258   */\n      pop\n        /* \"#utility.yul\":1916:2265   */\n      swap3\n      swap2\n      pop\n      pop\n      jump\t// out\n        /* \"#utility.yul\":2271:2600   */\n    tag_103:\n        /* \"#utility.yul\":2330:2336   */\n      0x00\n        /* \"#utility.yul\":2379:2381   */\n      0x20\n        /* \"#utility.yul\":2367:2376   */\n      dup3\n        /* \"#utility.yul\":2358:2365   */\n      dup5\n        /* \"#utility.yul\":2354:2377   */\n      sub\n        /* \"#utility.yul\":2350:2382   */\n      slt\n        /* \"#utility.yul\":2347:2466   */\n      iszero\n      tag_442\n      jumpi\n        /* \"#utility.yul\":2385:2464   */\n      tag_443\n      tag_425\n      jump\t// in\n    tag_443:\n        /* \"#utility.yul\":2347:2466   */\n    tag_442:\n        /* \"#utility.yul\":2505:2506   */\n      0x00\n        /* \"#utility.yul\":2530:2583   */\n      tag_444\n        /* \"#utility.yul\":2575:2582   */\n      dup5\n        /* \"#utility.yul\":2566:2572   */\n      dup3\n        /* \"#utility.yul\":2555:2564   */\n      dup6\n        /* \"#utility.yul\":2551:2573   */\n      add\n        /* \"#utility.yul\":2530:2583   */\n      tag_418\n      jump\t// in\n    tag_444:\n        /* \"#utility.yul\":2520:2583   */\n      swap2\n      pop\n        /* \"#utility.yul\":2476:2593   */\n      pop\n        /* \"#utility.yul\":2271:2600   */\n      swap3\n      swap2\n      pop\n      pop\n      jump\t// out\n        /* \"#utility.yul\":2606:2802   */\n    tag_445:\n        /* \"#utility.yul\":2695:2705   */\n      0x00\n        /* \"#utility.yul\":2730:2796   */\n      tag_447\n        /* \"#utility.yul\":2792:2795   */\n      dup4\n        /* \"#utility.yul\":2784:2790   */\n      dup4\n        /* \"#utility.yul\":2730:2796   */\n      tag_448\n      jump\t// in\n    tag_447:\n        /* \"#utility.yul\":2716:2796   */\n      swap1\n      pop\n        /* \"#utility.yul\":2606:2802   */\n      swap3\n      swap2\n      pop\n      pop\n      jump\t// out\n        /* \"#utility.yul\":2808:2987   */\n    tag_449:\n        /* \"#utility.yul\":2877:2887   */\n      0x00\n        /* \"#utility.yul\":2898:2944   */\n      tag_451\n        /* \"#utility.yul\":2940:2943   */\n      dup4\n        /* \"#utility.yul\":2932:2938   */\n      dup4\n        /* \"#utility.yul\":2898:2944   */\n      tag_452\n      jump\t// in\n    tag_451:\n        /* \"#utility.yul\":2976:2980   */\n      0x20\n        /* \"#utility.yul\":2971:2974   */\n      dup4\n        /* \"#utility.yul\":2967:2981   */\n      add\n        /* \"#utility.yul\":2953:2981   */\n      swap1\n      pop\n        /* \"#utility.yul\":2808:2987   */\n      swap3\n      swap2\n      pop\n      pop\n      jump\t// out\n        /* \"#utility.yul\":2993:3135   */\n    tag_453:\n        /* \"#utility.yul\":3096:3128   */\n      tag_455\n        /* \"#utility.yul\":3122:3127   */\n      dup2\n        /* \"#utility.yul\":3096:3128   */\n      tag_456\n      jump\t// in\n    tag_455:\n        /* \"#utility.yul\":3091:3094   */\n      dup3\n        /* \"#utility.yul\":3084:3129   */\n      mstore\n        /* \"#utility.yul\":2993:3135   */\n      pop\n      pop\n      jump\t// out\n        /* \"#utility.yul\":3141:3330   */\n    tag_457:\n        /* \"#utility.yul\":3262:3323   */\n      tag_459\n        /* \"#utility.yul\":3290:3322   */\n      tag_460\n        /* \"#utility.yul\":3316:3321   */\n      dup3\n        /* \"#utility.yul\":3290:3322   */\n      tag_456\n      jump\t// in\n    tag_460:\n        /* \"#utility.yul\":3262:3323   */\n      tag_461\n      jump\t// in\n    tag_459:\n        /* \"#utility.yul\":3257:3260   */\n      dup3\n        /* \"#utility.yul\":3250:3324   */\n      mstore\n        /* \"#utility.yul\":3141:3330   */\n      pop\n      pop\n      jump\t// out\n        /* \"#utility.yul\":3336:3454   */\n    tag_462:\n        /* \"#utility.yul\":3423:3447   */\n      tag_464\n        /* \"#utility.yul\":3441:3446   */\n      dup2\n        /* \"#utility.yul\":3423:3447   */\n      tag_465\n      jump\t// in\n    tag_464:\n        /* \"#utility.yul\":3418:3421   */\n      dup3\n        /* \"#utility.yul\":3411:3448   */\n      mstore\n        /* \"#utility.yul\":3336:3454   */\n      pop\n      pop\n      jump\t// out\n        /* \"#utility.yul\":3460:3617   */\n    tag_466:\n        /* \"#utility.yul\":3565:3610   */\n      tag_468\n        /* \"#utility.yul\":3585:3609   */\n      tag_469\n        /* \"#utility.yul\":3603:3608   */\n      dup3\n        /* \"#utility.yul\":3585:3609   */\n      tag_465\n      jump\t// in\n    tag_469:\n        /* \"#utility.yul\":3565:3610   */\n      tag_470\n      jump\t// in\n    tag_468:\n        /* \"#utility.yul\":3560:3563   */\n      dup3\n        /* \"#utility.yul\":3553:3611   */\n      mstore\n        /* \"#utility.yul\":3460:3617   */\n      pop\n      pop\n      jump\t// out\n        /* \"#utility.yul\":3651:4642   */\n    tag_471:\n        /* \"#utility.yul\":3790:3793   */\n      0x00\n        /* \"#utility.yul\":3819:3883   */\n      tag_473\n        /* \"#utility.yul\":3877:3882   */\n      dup3\n        /* \"#utility.yul\":3819:3883   */\n      tag_474\n      jump\t// in\n    tag_473:\n        /* \"#utility.yul\":3899:3995   */\n      tag_475\n        /* \"#utility.yul\":3988:3994   */\n      dup2\n        /* \"#utility.yul\":3983:3986   */\n      dup6\n        /* \"#utility.yul\":3899:3995   */\n      tag_476\n      jump\t// in\n    tag_475:\n        /* \"#utility.yul\":3892:3995   */\n      swap4\n      pop\n        /* \"#utility.yul\":4021:4024   */\n      dup4\n        /* \"#utility.yul\":4066:4070   */\n      0x20\n        /* \"#utility.yul\":4058:4064   */\n      dup3\n        /* \"#utility.yul\":4054:4071   */\n      mul\n        /* \"#utility.yul\":4049:4052   */\n      dup6\n        /* \"#utility.yul\":4045:4072   */\n      add\n        /* \"#utility.yul\":4096:4162   */\n      tag_477\n        /* \"#utility.yul\":4156:4161   */\n      dup6\n        /* \"#utility.yul\":4096:4162   */\n      tag_478\n      jump\t// in\n    tag_477:\n        /* \"#utility.yul\":4185:4192   */\n      dup1\n        /* \"#utility.yul\":4216:4217   */\n      0x00\n        /* \"#utility.yul\":4201:4597   */\n    tag_479:\n        /* \"#utility.yul\":4226:4232   */\n      dup6\n        /* \"#utility.yul\":4223:4224   */\n      dup2\n        /* \"#utility.yul\":4220:4233   */\n      lt\n        /* \"#utility.yul\":4201:4597   */\n      iszero\n      tag_481\n      jumpi\n        /* \"#utility.yul\":4297:4306   */\n      dup5\n        /* \"#utility.yul\":4291:4295   */\n      dup5\n        /* \"#utility.yul\":4287:4307   */\n      sub\n        /* \"#utility.yul\":4282:4285   */\n      dup10\n        /* \"#utility.yul\":4275:4308   */\n      mstore\n        /* \"#utility.yul\":4348:4354   */\n      dup2\n        /* \"#utility.yul\":4342:4355   */\n      mload\n        /* \"#utility.yul\":4376:4460   */\n      tag_482\n        /* \"#utility.yul\":4455:4459   */\n      dup6\n        /* \"#utility.yul\":4440:4453   */\n      dup3\n        /* \"#utility.yul\":4376:4460   */\n      tag_445\n      jump\t// in\n    tag_482:\n        /* \"#utility.yul\":4368:4460   */\n      swap5\n      pop\n        /* \"#utility.yul\":4483:4553   */\n      tag_483\n        /* \"#utility.yul\":4546:4552   */\n      dup4\n        /* \"#utility.yul\":4483:4553   */\n      tag_484\n      jump\t// in\n    tag_483:\n        /* \"#utility.yul\":4473:4553   */\n      swap3\n      pop\n        /* \"#utility.yul\":4582:4586   */\n      0x20\n        /* \"#utility.yul\":4577:4580   */\n      dup11\n        /* \"#utility.yul\":4573:4587   */\n      add\n        /* \"#utility.yul\":4566:4587   */\n      swap10\n      pop\n        /* \"#utility.yul\":4261:4597   */\n      pop\n        /* \"#utility.yul\":4248:4249   */\n      0x01\n        /* \"#utility.yul\":4245:4246   */\n      dup2\n        /* \"#utility.yul\":4241:4250   */\n      add\n        /* \"#utility.yul\":4236:4250   */\n      swap1\n      pop\n        /* \"#utility.yul\":4201:4597   */\n      jump(tag_479)\n    tag_481:\n        /* \"#utility.yul\":4205:4219   */\n      pop\n        /* \"#utility.yul\":4613:4617   */\n      dup3\n        /* \"#utility.yul\":4606:4617   */\n      swap8\n      pop\n        /* \"#utility.yul\":4633:4636   */\n      dup8\n        /* \"#utility.yul\":4626:4636   */\n      swap6\n      pop\n        /* \"#utility.yul\":3795:4642   */\n      pop\n      pop\n      pop\n      pop\n      pop\n        /* \"#utility.yul\":3651:4642   */\n      swap3\n      swap2\n      pop\n      pop\n      jump\t// out\n        /* \"#utility.yul\":4678:5410   */\n    tag_485:\n        /* \"#utility.yul\":4797:4800   */\n      0x00\n        /* \"#utility.yul\":4826:4880   */\n      tag_487\n        /* \"#utility.yul\":4874:4879   */\n      dup3\n        /* \"#utility.yul\":4826:4880   */\n      tag_488\n      jump\t// in\n    tag_487:\n        /* \"#utility.yul\":4896:4982   */\n      tag_489\n        /* \"#utility.yul\":4975:4981   */\n      dup2\n        /* \"#utility.yul\":4970:4973   */\n      dup6\n        /* \"#utility.yul\":4896:4982   */\n      tag_490\n      jump\t// in\n    tag_489:\n        /* \"#utility.yul\":4889:4982   */\n      swap4\n      pop\n        /* \"#utility.yul\":5006:5062   */\n      tag_491\n        /* \"#utility.yul\":5056:5061   */\n      dup4\n        /* \"#utility.yul\":5006:5062   */\n      tag_492\n      jump\t// in\n    tag_491:\n        /* \"#utility.yul\":5085:5092   */\n      dup1\n        /* \"#utility.yul\":5116:5117   */\n      0x00\n        /* \"#utility.yul\":5101:5385   */\n    tag_493:\n        /* \"#utility.yul\":5126:5132   */\n      dup4\n        /* \"#utility.yul\":5123:5124   */\n      dup2\n        /* \"#utility.yul\":5120:5133   */\n      lt\n        /* \"#utility.yul\":5101:5385   */\n      iszero\n      tag_495\n      jumpi\n        /* \"#utility.yul\":5202:5208   */\n      dup2\n        /* \"#utility.yul\":5196:5209   */\n      mload\n        /* \"#utility.yul\":5229:5292   */\n      tag_496\n        /* \"#utility.yul\":5288:5291   */\n      dup9\n        /* \"#utility.yul\":5273:5286   */\n      dup3\n        /* \"#utility.yul\":5229:5292   */\n      tag_449\n      jump\t// in\n    tag_496:\n        /* \"#utility.yul\":5222:5292   */\n      swap8\n      pop\n        /* \"#utility.yul\":5315:5375   */\n      tag_497\n        /* \"#utility.yul\":5368:5374   */\n      dup4\n        /* \"#utility.yul\":5315:5375   */\n      tag_498\n      jump\t// in\n    tag_497:\n        /* \"#utility.yul\":5305:5375   */\n      swap3\n      pop\n        /* \"#utility.yul\":5161:5385   */\n      pop\n        /* \"#utility.yul\":5148:5149   */\n      0x01\n        /* \"#utility.yul\":5145:5146   */\n      dup2\n        /* \"#utility.yul\":5141:5150   */\n      add\n        /* \"#utility.yul\":5136:5150   */\n      swap1\n      pop\n        /* \"#utility.yul\":5101:5385   */\n      jump(tag_493)\n    tag_495:\n        /* \"#utility.yul\":5105:5119   */\n      pop\n        /* \"#utility.yul\":5401:5404   */\n      dup6\n        /* \"#utility.yul\":5394:5404   */\n      swap4\n      pop\n        /* \"#utility.yul\":4802:5410   */\n      pop\n      pop\n      pop\n        /* \"#utility.yul\":4678:5410   */\n      swap3\n      swap2\n      pop\n      pop\n      jump\t// out\n        /* \"#utility.yul\":5416:5525   */\n    tag_499:\n        /* \"#utility.yul\":5497:5518   */\n      tag_501\n        /* \"#utility.yul\":5512:5517   */\n      dup2\n        /* \"#utility.yul\":5497:5518   */\n      tag_502\n      jump\t// in\n    tag_501:\n        /* \"#utility.yul\":5492:5495   */\n      dup3\n        /* \"#utility.yul\":5485:5519   */\n      mstore\n        /* \"#utility.yul\":5416:5525   */\n      pop\n      pop\n      jump\t// out\n        /* \"#utility.yul\":5531:5875   */\n    tag_448:\n        /* \"#utility.yul\":5609:5612   */\n      0x00\n        /* \"#utility.yul\":5637:5676   */\n      tag_504\n        /* \"#utility.yul\":5670:5675   */\n      dup3\n        /* \"#utility.yul\":5637:5676   */\n      tag_505\n      jump\t// in\n    tag_504:\n        /* \"#utility.yul\":5692:5753   */\n      tag_506\n        /* \"#utility.yul\":5746:5752   */\n      dup2\n        /* \"#utility.yul\":5741:5744   */\n      dup6\n        /* \"#utility.yul\":5692:5753   */\n      tag_507\n      jump\t// in\n    tag_506:\n        /* \"#utility.yul\":5685:5753   */\n      swap4\n      pop\n        /* \"#utility.yul\":5762:5814   */\n      tag_508\n        /* \"#utility.yul\":5807:5813   */\n      dup2\n        /* \"#utility.yul\":5802:5805   */\n      dup6\n        /* \"#utility.yul\":5795:5799   */\n      0x20\n        /* \"#utility.yul\":5788:5793   */\n      dup7\n        /* \"#utility.yul\":5784:5800   */\n      add\n        /* \"#utility.yul\":5762:5814   */\n      tag_509\n      jump\t// in\n    tag_508:\n        /* \"#utility.yul\":5839:5868   */\n      tag_510\n        /* \"#utility.yul\":5861:5867   */\n      dup2\n        /* \"#utility.yul\":5839:5868   */\n      tag_511\n      jump\t// in\n    tag_510:\n        /* \"#utility.yul\":5834:5837   */\n      dup5\n        /* \"#utility.yul\":5830:5869   */\n      add\n        /* \"#utility.yul\":5823:5869   */\n      swap2\n      pop\n        /* \"#utility.yul\":5613:5875   */\n      pop\n        /* \"#utility.yul\":5531:5875   */\n      swap3\n      swap2\n      pop\n      pop\n      jump\t// out\n        /* \"#utility.yul\":5881:6245   */\n    tag_512:\n        /* \"#utility.yul\":5969:5972   */\n      0x00\n        /* \"#utility.yul\":5997:6036   */\n      tag_514\n        /* \"#utility.yul\":6030:6035   */\n      dup3\n        /* \"#utility.yul\":5997:6036   */\n      tag_505\n      jump\t// in\n    tag_514:\n        /* \"#utility.yul\":6052:6123   */\n      tag_515\n        /* \"#utility.yul\":6116:6122   */\n      dup2\n        /* \"#utility.yul\":6111:6114   */\n      dup6\n        /* \"#utility.yul\":6052:6123   */\n      tag_516\n      jump\t// in\n    tag_515:\n        /* \"#utility.yul\":6045:6123   */\n      swap4\n      pop\n        /* \"#utility.yul\":6132:6184   */\n      tag_517\n        /* \"#utility.yul\":6177:6183   */\n      dup2\n        /* \"#utility.yul\":6172:6175   */\n      dup6\n        /* \"#utility.yul\":6165:6169   */\n      0x20\n        /* \"#utility.yul\":6158:6163   */\n      dup7\n        /* \"#utility.yul\":6154:6170   */\n      add\n        /* \"#utility.yul\":6132:6184   */\n      tag_509\n      jump\t// in\n    tag_517:\n        /* \"#utility.yul\":6209:6238   */\n      tag_518\n        /* \"#utility.yul\":6231:6237   */\n      dup2\n        /* \"#utility.yul\":6209:6238   */\n      tag_511\n      jump\t// in\n    tag_518:\n        /* \"#utility.yul\":6204:6207   */\n      dup5\n        /* \"#utility.yul\":6200:6239   */\n      add\n        /* \"#utility.yul\":6193:6239   */\n      swap2\n      pop\n        /* \"#utility.yul\":5973:6245   */\n      pop\n        /* \"#utility.yul\":5881:6245   */\n      swap3\n      swap2\n      pop\n      pop\n      jump\t// out\n        /* \"#utility.yul\":6251:6628   */\n    tag_519:\n        /* \"#utility.yul\":6357:6360   */\n      0x00\n        /* \"#utility.yul\":6385:6424   */\n      tag_521\n        /* \"#utility.yul\":6418:6423   */\n      dup3\n        /* \"#utility.yul\":6385:6424   */\n      tag_505\n      jump\t// in\n    tag_521:\n        /* \"#utility.yul\":6440:6529   */\n      tag_522\n        /* \"#utility.yul\":6522:6528   */\n      dup2\n        /* \"#utility.yul\":6517:6520   */\n      dup6\n        /* \"#utility.yul\":6440:6529   */\n      tag_523\n      jump\t// in\n    tag_522:\n        /* \"#utility.yul\":6433:6529   */\n      swap4\n      pop\n        /* \"#utility.yul\":6538:6590   */\n      tag_524\n        /* \"#utility.yul\":6583:6589   */\n      dup2\n        /* \"#utility.yul\":6578:6581   */\n      dup6\n        /* \"#utility.yul\":6571:6575   */\n      0x20\n        /* \"#utility.yul\":6564:6569   */\n      dup7\n        /* \"#utility.yul\":6560:6576   */\n      add\n        /* \"#utility.yul\":6538:6590   */\n      tag_509\n      jump\t// in\n    tag_524:\n        /* \"#utility.yul\":6615:6621   */\n      dup1\n        /* \"#utility.yul\":6610:6613   */\n      dup5\n        /* \"#utility.yul\":6606:6622   */\n      add\n        /* \"#utility.yul\":6599:6622   */\n      swap2\n      pop\n        /* \"#utility.yul\":6361:6628   */\n      pop\n        /* \"#utility.yul\":6251:6628   */\n      swap3\n      swap2\n      pop\n      pop\n      jump\t// out\n        /* \"#utility.yul\":6634:7000   */\n    tag_525:\n        /* \"#utility.yul\":6776:6779   */\n      0x00\n        /* \"#utility.yul\":6797:6864   */\n      tag_527\n        /* \"#utility.yul\":6861:6863   */\n      0x34\n        /* \"#utility.yul\":6856:6859   */\n      dup4\n        /* \"#utility.yul\":6797:6864   */\n      tag_516\n      jump\t// in\n    tag_527:\n        /* \"#utility.yul\":6790:6864   */\n      swap2\n      pop\n        /* \"#utility.yul\":6873:6966   */\n      tag_528\n        /* \"#utility.yul\":6962:6965   */\n      dup3\n        /* \"#utility.yul\":6873:6966   */\n      tag_529\n      jump\t// in\n    tag_528:\n        /* \"#utility.yul\":6991:6993   */\n      0x40\n        /* \"#utility.yul\":6986:6989   */\n      dup3\n        /* \"#utility.yul\":6982:6994   */\n      add\n        /* \"#utility.yul\":6975:6994   */\n      swap1\n      pop\n        /* \"#utility.yul\":6634:7000   */\n      swap2\n      swap1\n      pop\n      jump\t// out\n        /* \"#utility.yul\":7006:7372   */\n    tag_530:\n        /* \"#utility.yul\":7148:7151   */\n      0x00\n        /* \"#utility.yul\":7169:7236   */\n      tag_532\n        /* \"#utility.yul\":7233:7235   */\n      0x28\n        /* \"#utility.yul\":7228:7231   */\n      dup4\n        /* \"#utility.yul\":7169:7236   */\n      tag_516\n      jump\t// in\n    tag_532:\n        /* \"#utility.yul\":7162:7236   */\n      swap2\n      pop\n        /* \"#utility.yul\":7245:7338   */\n      tag_533\n        /* \"#utility.yul\":7334:7337   */\n      dup3\n        /* \"#utility.yul\":7245:7338   */\n      tag_534\n      jump\t// in\n    tag_533:\n        /* \"#utility.yul\":7363:7365   */\n      0x40\n        /* \"#utility.yul\":7358:7361   */\n      dup3\n        /* \"#utility.yul\":7354:7366   */\n      add\n        /* \"#utility.yul\":7347:7366   */\n      swap1\n      pop\n        /* \"#utility.yul\":7006:7372   */\n      swap2\n      swap1\n      pop\n      jump\t// out\n        /* \"#utility.yul\":7378:7744   */\n    tag_535:\n        /* \"#utility.yul\":7520:7523   */\n      0x00\n        /* \"#utility.yul\":7541:7608   */\n      tag_537\n        /* \"#utility.yul\":7605:7607   */\n      0x19\n        /* \"#utility.yul\":7600:7603   */\n      dup4\n        /* \"#utility.yul\":7541:7608   */\n      tag_516\n      jump\t// in\n    tag_537:\n        /* \"#utility.yul\":7534:7608   */\n      swap2\n      pop\n        /* \"#utility.yul\":7617:7710   */\n      tag_538\n        /* \"#utility.yul\":7706:7709   */\n      dup3\n        /* \"#utility.yul\":7617:7710   */\n      tag_539\n      jump\t// in\n    tag_538:\n        /* \"#utility.yul\":7735:7737   */\n      0x20\n        /* \"#utility.yul\":7730:7733   */\n      dup3\n        /* \"#utility.yul\":7726:7738   */\n      add\n        /* \"#utility.yul\":7719:7738   */\n      swap1\n      pop\n        /* \"#utility.yul\":7378:7744   */\n      swap2\n      swap1\n      pop\n      jump\t// out\n        /* \"#utility.yul\":7750:8150   */\n    tag_540:\n        /* \"#utility.yul\":7910:7913   */\n      0x00\n        /* \"#utility.yul\":7931:8015   */\n      tag_542\n        /* \"#utility.yul\":8013:8014   */\n      0x08\n        /* \"#utility.yul\":8008:8011   */\n      dup4\n        /* \"#utility.yul\":7931:8015   */\n      tag_523\n      jump\t// in\n    tag_542:\n        /* \"#utility.yul\":7924:8015   */\n      swap2\n      pop\n        /* \"#utility.yul\":8024:8117   */\n      tag_543\n        /* \"#utility.yul\":8113:8116   */\n      dup3\n        /* \"#utility.yul\":8024:8117   */\n      tag_544\n      jump\t// in\n    tag_543:\n        /* \"#utility.yul\":8142:8143   */\n      0x08\n        /* \"#utility.yul\":8137:8140   */\n      dup3\n        /* \"#utility.yul\":8133:8144   */\n      add\n        /* \"#utility.yul\":8126:8144   */\n      swap1\n      pop\n        /* \"#utility.yul\":7750:8150   */\n      swap2\n      swap1\n      pop\n      jump\t// out\n        /* \"#utility.yul\":8156:8522   */\n    tag_545:\n        /* \"#utility.yul\":8298:8301   */\n      0x00\n        /* \"#utility.yul\":8319:8386   */\n      tag_547\n        /* \"#utility.yul\":8383:8385   */\n      0x10\n        /* \"#utility.yul\":8378:8381   */\n      dup4\n        /* \"#utility.yul\":8319:8386   */\n      tag_516\n      jump\t// in\n    tag_547:\n        /* \"#utility.yul\":8312:8386   */\n      swap2\n      pop\n        /* \"#utility.yul\":8395:8488   */\n      tag_548\n        /* \"#utility.yul\":8484:8487   */\n      dup3\n        /* \"#utility.yul\":8395:8488   */\n      tag_549\n      jump\t// in\n    tag_548:\n        /* \"#utility.yul\":8513:8515   */\n      0x20\n        /* \"#utility.yul\":8508:8511   */\n      dup3\n        /* \"#utility.yul\":8504:8516   */\n      add\n        /* \"#utility.yul\":8497:8516   */\n      swap1\n      pop\n        /* \"#utility.yul\":8156:8522   */\n      swap2\n      swap1\n      pop\n      jump\t// out\n        /* \"#utility.yul\":8528:8928   */\n    tag_550:\n        /* \"#utility.yul\":8688:8691   */\n      0x00\n        /* \"#utility.yul\":8709:8793   */\n      tag_552\n        /* \"#utility.yul\":8791:8792   */\n      0x05\n        /* \"#utility.yul\":8786:8789   */\n      dup4\n        /* \"#utility.yul\":8709:8793   */\n      tag_523\n      jump\t// in\n    tag_552:\n        /* \"#utility.yul\":8702:8793   */\n      swap2\n      pop\n        /* \"#utility.yul\":8802:8895   */\n      tag_553\n        /* \"#utility.yul\":8891:8894   */\n      dup3\n        /* \"#utility.yul\":8802:8895   */\n      tag_554\n      jump\t// in\n    tag_553:\n        /* \"#utility.yul\":8920:8921   */\n      0x05\n        /* \"#utility.yul\":8915:8918   */\n      dup3\n        /* \"#utility.yul\":8911:8922   */\n      add\n        /* \"#utility.yul\":8904:8922   */\n      swap1\n      pop\n        /* \"#utility.yul\":8528:8928   */\n      swap2\n      swap1\n      pop\n      jump\t// out\n        /* \"#utility.yul\":8934:9300   */\n    tag_555:\n        /* \"#utility.yul\":9076:9079   */\n      0x00\n        /* \"#utility.yul\":9097:9164   */\n      tag_557\n        /* \"#utility.yul\":9161:9163   */\n      0x12\n        /* \"#utility.yul\":9156:9159   */\n      dup4\n        /* \"#utility.yul\":9097:9164   */\n      tag_516\n      jump\t// in\n    tag_557:\n        /* \"#utility.yul\":9090:9164   */\n      swap2\n      pop\n        /* \"#utility.yul\":9173:9266   */\n      tag_558\n        /* \"#utility.yul\":9262:9265   */\n      dup3\n        /* \"#utility.yul\":9173:9266   */\n      tag_559\n      jump\t// in\n    tag_558:\n        /* \"#utility.yul\":9291:9293   */\n      0x20\n        /* \"#utility.yul\":9286:9289   */\n      dup3\n        /* \"#utility.yul\":9282:9294   */\n      add\n        /* \"#utility.yul\":9275:9294   */\n      swap1\n      pop\n        /* \"#utility.yul\":8934:9300   */\n      swap2\n      swap1\n      pop\n      jump\t// out\n        /* \"#utility.yul\":9306:9672   */\n    tag_560:\n        /* \"#utility.yul\":9448:9451   */\n      0x00\n        /* \"#utility.yul\":9469:9536   */\n      tag_562\n        /* \"#utility.yul\":9533:9535   */\n      0x1b\n        /* \"#utility.yul\":9528:9531   */\n      dup4\n        /* \"#utility.yul\":9469:9536   */\n      tag_516\n      jump\t// in\n    tag_562:\n        /* \"#utility.yul\":9462:9536   */\n      swap2\n      pop\n        /* \"#utility.yul\":9545:9638   */\n      tag_563\n        /* \"#utility.yul\":9634:9637   */\n      dup3\n        /* \"#utility.yul\":9545:9638   */\n      tag_564\n      jump\t// in\n    tag_563:\n        /* \"#utility.yul\":9663:9665   */\n      0x20\n        /* \"#utility.yul\":9658:9661   */\n      dup3\n        /* \"#utility.yul\":9654:9666   */\n      add\n        /* \"#utility.yul\":9647:9666   */\n      swap1\n      pop\n        /* \"#utility.yul\":9306:9672   */\n      swap2\n      swap1\n      pop\n      jump\t// out\n        /* \"#utility.yul\":9678:10044   */\n    tag_565:\n        /* \"#utility.yul\":9820:9823   */\n      0x00\n        /* \"#utility.yul\":9841:9908   */\n      tag_567\n        /* \"#utility.yul\":9905:9907   */\n      0x1b\n        /* \"#utility.yul\":9900:9903   */\n      dup4\n        /* \"#utility.yul\":9841:9908   */\n      tag_516\n      jump\t// in\n    tag_567:\n        /* \"#utility.yul\":9834:9908   */\n      swap2\n      pop\n        /* \"#utility.yul\":9917:10010   */\n      tag_568\n        /* \"#utility.yul\":10006:10009   */\n      dup3\n        /* \"#utility.yul\":9917:10010   */\n      tag_569\n      jump\t// in\n    tag_568:\n        /* \"#utility.yul\":10035:10037   */\n      0x20\n        /* \"#utility.yul\":10030:10033   */\n      dup3\n        /* \"#utility.yul\":10026:10038   */\n      add\n        /* \"#utility.yul\":10019:10038   */\n      swap1\n      pop\n        /* \"#utility.yul\":9678:10044   */\n      swap2\n      swap1\n      pop\n      jump\t// out\n        /* \"#utility.yul\":10050:10416   */\n    tag_570:\n        /* \"#utility.yul\":10192:10195   */\n      0x00\n        /* \"#utility.yul\":10213:10280   */\n      tag_572\n        /* \"#utility.yul\":10277:10279   */\n      0x15\n        /* \"#utility.yul\":10272:10275   */\n      dup4\n        /* \"#utility.yul\":10213:10280   */\n      tag_516\n      jump\t// in\n    tag_572:\n        /* \"#utility.yul\":10206:10280   */\n      swap2\n      pop\n        /* \"#utility.yul\":10289:10382   */\n      tag_573\n        /* \"#utility.yul\":10378:10381   */\n      dup3\n        /* \"#utility.yul\":10289:10382   */\n      tag_574\n      jump\t// in\n    tag_573:\n        /* \"#utility.yul\":10407:10409   */\n      0x20\n        /* \"#utility.yul\":10402:10405   */\n      dup3\n        /* \"#utility.yul\":10398:10410   */\n      add\n        /* \"#utility.yul\":10391:10410   */\n      swap1\n      pop\n        /* \"#utility.yul\":10050:10416   */\n      swap2\n      swap1\n      pop\n      jump\t// out\n        /* \"#utility.yul\":10422:10788   */\n    tag_575:\n        /* \"#utility.yul\":10564:10567   */\n      0x00\n        /* \"#utility.yul\":10585:10652   */\n      tag_577\n        /* \"#utility.yul\":10649:10651   */\n      0x1c\n        /* \"#utility.yul\":10644:10647   */\n      dup4\n        /* \"#utility.yul\":10585:10652   */\n      tag_516\n      jump\t// in\n    tag_577:\n        /* \"#utility.yul\":10578:10652   */\n      swap2\n      pop\n        /* \"#utility.yul\":10661:10754   */\n      tag_578\n        /* \"#utility.yul\":10750:10753   */\n      dup3\n        /* \"#utility.yul\":10661:10754   */\n      tag_579\n      jump\t// in\n    tag_578:\n        /* \"#utility.yul\":10779:10781   */\n      0x20\n        /* \"#utility.yul\":10774:10777   */\n      dup3\n        /* \"#utility.yul\":10770:10782   */\n      add\n        /* \"#utility.yul\":10763:10782   */\n      swap1\n      pop\n        /* \"#utility.yul\":10422:10788   */\n      swap2\n      swap1\n      pop\n      jump\t// out\n        /* \"#utility.yul\":10794:11160   */\n    tag_580:\n        /* \"#utility.yul\":10936:10939   */\n      0x00\n        /* \"#utility.yul\":10957:11024   */\n      tag_582\n        /* \"#utility.yul\":11021:11023   */\n      0x1f\n        /* \"#utility.yul\":11016:11019   */\n      dup4\n        /* \"#utility.yul\":10957:11024   */\n      tag_516\n      jump\t// in\n    tag_582:\n        /* \"#utility.yul\":10950:11024   */\n      swap2\n      pop\n        /* \"#utility.yul\":11033:11126   */\n      tag_583\n        /* \"#utility.yul\":11122:11125   */\n      dup3\n        /* \"#utility.yul\":11033:11126   */\n      tag_584\n      jump\t// in\n    tag_583:\n        /* \"#utility.yul\":11151:11153   */\n      0x20\n        /* \"#utility.yul\":11146:11149   */\n      dup3\n        /* \"#utility.yul\":11142:11154   */\n      add\n        /* \"#utility.yul\":11135:11154   */\n      swap1\n      pop\n        /* \"#utility.yul\":10794:11160   */\n      swap2\n      swap1\n      pop\n      jump\t// out\n        /* \"#utility.yul\":11166:11532   */\n    tag_585:\n        /* \"#utility.yul\":11308:11311   */\n      0x00\n        /* \"#utility.yul\":11329:11396   */\n      tag_587\n        /* \"#utility.yul\":11393:11395   */\n      0x1b\n        /* \"#utility.yul\":11388:11391   */\n      dup4\n        /* \"#utility.yul\":11329:11396   */\n      tag_516\n      jump\t// in\n    tag_587:\n        /* \"#utility.yul\":11322:11396   */\n      swap2\n      pop\n        /* \"#utility.yul\":11405:11498   */\n      tag_588\n        /* \"#utility.yul\":11494:11497   */\n      dup3\n        /* \"#utility.yul\":11405:11498   */\n      tag_589\n      jump\t// in\n    tag_588:\n        /* \"#utility.yul\":11523:11525   */\n      0x20\n        /* \"#utility.yul\":11518:11521   */\n      dup3\n        /* \"#utility.yul\":11514:11526   */\n      add\n        /* \"#utility.yul\":11507:11526   */\n      swap1\n      pop\n        /* \"#utility.yul\":11166:11532   */\n      swap2\n      swap1\n      pop\n      jump\t// out\n        /* \"#utility.yul\":11538:11904   */\n    tag_590:\n        /* \"#utility.yul\":11680:11683   */\n      0x00\n        /* \"#utility.yul\":11701:11768   */\n      tag_592\n        /* \"#utility.yul\":11765:11767   */\n      0x19\n        /* \"#utility.yul\":11760:11763   */\n      dup4\n        /* \"#utility.yul\":11701:11768   */\n      tag_516\n      jump\t// in\n    tag_592:\n        /* \"#utility.yul\":11694:11768   */\n      swap2\n      pop\n        /* \"#utility.yul\":11777:11870   */\n      tag_593\n        /* \"#utility.yul\":11866:11869   */\n      dup3\n        /* \"#utility.yul\":11777:11870   */\n      tag_594\n      jump\t// in\n    tag_593:\n        /* \"#utility.yul\":11895:11897   */\n      0x20\n        /* \"#utility.yul\":11890:11893   */\n      dup3\n        /* \"#utility.yul\":11886:11898   */\n      add\n        /* \"#utility.yul\":11879:11898   */\n      swap1\n      pop\n        /* \"#utility.yul\":11538:11904   */\n      swap2\n      swap1\n      pop\n      jump\t// out\n        /* \"#utility.yul\":11910:12310   */\n    tag_595:\n        /* \"#utility.yul\":12070:12073   */\n      0x00\n        /* \"#utility.yul\":12091:12175   */\n      tag_597\n        /* \"#utility.yul\":12173:12174   */\n      0x01\n        /* \"#utility.yul\":12168:12171   */\n      dup4\n        /* \"#utility.yul\":12091:12175   */\n      tag_523\n      jump\t// in\n    tag_597:\n        /* \"#utility.yul\":12084:12175   */\n      swap2\n      pop\n        /* \"#utility.yul\":12184:12277   */\n      tag_598\n        /* \"#utility.yul\":12273:12276   */\n      dup3\n        /* \"#utility.yul\":12184:12277   */\n      tag_599\n      jump\t// in\n    tag_598:\n        /* \"#utility.yul\":12302:12303   */\n      0x01\n        /* \"#utility.yul\":12297:12300   */\n      dup3\n        /* \"#utility.yul\":12293:12304   */\n      add\n        /* \"#utility.yul\":12286:12304   */\n      swap1\n      pop\n        /* \"#utility.yul\":11910:12310   */\n      swap2\n      swap1\n      pop\n      jump\t// out\n        /* \"#utility.yul\":12316:12716   */\n    tag_600:\n        /* \"#utility.yul\":12476:12479   */\n      0x00\n        /* \"#utility.yul\":12497:12581   */\n      tag_602\n        /* \"#utility.yul\":12579:12580   */\n      0x07\n        /* \"#utility.yul\":12574:12577   */\n      dup4\n        /* \"#utility.yul\":12497:12581   */\n      tag_523\n      jump\t// in\n    tag_602:\n        /* \"#utility.yul\":12490:12581   */\n      swap2\n      pop\n        /* \"#utility.yul\":12590:12683   */\n      tag_603\n        /* \"#utility.yul\":12679:12682   */\n      dup3\n        /* \"#utility.yul\":12590:12683   */\n      tag_604\n      jump\t// in\n    tag_603:\n        /* \"#utility.yul\":12708:12709   */\n      0x07\n        /* \"#utility.yul\":12703:12706   */\n      dup3\n        /* \"#utility.yul\":12699:12710   */\n      add\n        /* \"#utility.yul\":12692:12710   */\n      swap1\n      pop\n        /* \"#utility.yul\":12316:12716   */\n      swap2\n      swap1\n      pop\n      jump\t// out\n        /* \"#utility.yul\":12722:13088   */\n    tag_605:\n        /* \"#utility.yul\":12864:12867   */\n      0x00\n        /* \"#utility.yul\":12885:12952   */\n      tag_607\n        /* \"#utility.yul\":12949:12951   */\n      0x21\n        /* \"#utility.yul\":12944:12947   */\n      dup4\n        /* \"#utility.yul\":12885:12952   */\n      tag_516\n      jump\t// in\n    tag_607:\n        /* \"#utility.yul\":12878:12952   */\n      swap2\n      pop\n        /* \"#utility.yul\":12961:13054   */\n      tag_608\n        /* \"#utility.yul\":13050:13053   */\n      dup3\n        /* \"#utility.yul\":12961:13054   */\n      tag_609\n      jump\t// in\n    tag_608:\n        /* \"#utility.yul\":13079:13081   */\n      0x40\n        /* \"#utility.yul\":13074:13077   */\n      dup3\n        /* \"#utility.yul\":13070:13082   */\n      add\n        /* \"#utility.yul\":13063:13082   */\n      swap1\n      pop\n        /* \"#utility.yul\":12722:13088   */\n      swap2\n      swap1\n      pop\n      jump\t// out\n        /* \"#utility.yul\":13094:13202   */\n    tag_452:\n        /* \"#utility.yul\":13171:13195   */\n      tag_611\n        /* \"#utility.yul\":13189:13194   */\n      dup2\n        /* \"#utility.yul\":13171:13195   */\n      tag_612\n      jump\t// in\n    tag_611:\n        /* \"#utility.yul\":13166:13169   */\n      dup3\n        /* \"#utility.yul\":13159:13196   */\n      mstore\n        /* \"#utility.yul\":13094:13202   */\n      pop\n      pop\n      jump\t// out\n        /* \"#utility.yul\":13208:13326   */\n    tag_613:\n        /* \"#utility.yul\":13295:13319   */\n      tag_615\n        /* \"#utility.yul\":13313:13318   */\n      dup2\n        /* \"#utility.yul\":13295:13319   */\n      tag_612\n      jump\t// in\n    tag_615:\n        /* \"#utility.yul\":13290:13293   */\n      dup3\n        /* \"#utility.yul\":13283:13320   */\n      mstore\n        /* \"#utility.yul\":13208:13326   */\n      pop\n      pop\n      jump\t// out\n        /* \"#utility.yul\":13332:13489   */\n    tag_616:\n        /* \"#utility.yul\":13437:13482   */\n      tag_618\n        /* \"#utility.yul\":13457:13481   */\n      tag_619\n        /* \"#utility.yul\":13475:13480   */\n      dup3\n        /* \"#utility.yul\":13457:13481   */\n      tag_612\n      jump\t// in\n    tag_619:\n        /* \"#utility.yul\":13437:13482   */\n      tag_620\n      jump\t// in\n    tag_618:\n        /* \"#utility.yul\":13432:13435   */\n      dup3\n        /* \"#utility.yul\":13425:13483   */\n      mstore\n        /* \"#utility.yul\":13332:13489   */\n      pop\n      pop\n      jump\t// out\n        /* \"#utility.yul\":13495:14196   */\n    tag_169:\n        /* \"#utility.yul\":13776:13779   */\n      0x00\n        /* \"#utility.yul\":13798:13893   */\n      tag_622\n        /* \"#utility.yul\":13889:13892   */\n      dup3\n        /* \"#utility.yul\":13880:13886   */\n      dup6\n        /* \"#utility.yul\":13798:13893   */\n      tag_519\n      jump\t// in\n    tag_622:\n        /* \"#utility.yul\":13791:13893   */\n      swap2\n      pop\n        /* \"#utility.yul\":13910:14058   */\n      tag_623\n        /* \"#utility.yul\":14054:14057   */\n      dup3\n        /* \"#utility.yul\":13910:14058   */\n      tag_595\n      jump\t// in\n    tag_623:\n        /* \"#utility.yul\":13903:14058   */\n      swap2\n      pop\n        /* \"#utility.yul\":14075:14170   */\n      tag_624\n        /* \"#utility.yul\":14166:14169   */\n      dup3\n        /* \"#utility.yul\":14157:14163   */\n      dup5\n        /* \"#utility.yul\":14075:14170   */\n      tag_519\n      jump\t// in\n    tag_624:\n        /* \"#utility.yul\":14068:14170   */\n      swap2\n      pop\n        /* \"#utility.yul\":14187:14190   */\n      dup2\n        /* \"#utility.yul\":14180:14190   */\n      swap1\n      pop\n        /* \"#utility.yul\":13495:14196   */\n      swap4\n      swap3\n      pop\n      pop\n      pop\n      jump\t// out\n        /* \"#utility.yul\":14202:14743   */\n    tag_313:\n        /* \"#utility.yul\":14435:14438   */\n      0x00\n        /* \"#utility.yul\":14457:14605   */\n      tag_626\n        /* \"#utility.yul\":14601:14604   */\n      dup3\n        /* \"#utility.yul\":14457:14605   */\n      tag_540\n      jump\t// in\n    tag_626:\n        /* \"#utility.yul\":14450:14605   */\n      swap2\n      pop\n        /* \"#utility.yul\":14622:14717   */\n      tag_627\n        /* \"#utility.yul\":14713:14716   */\n      dup3\n        /* \"#utility.yul\":14704:14710   */\n      dup5\n        /* \"#utility.yul\":14622:14717   */\n      tag_519\n      jump\t// in\n    tag_627:\n        /* \"#utility.yul\":14615:14717   */\n      swap2\n      pop\n        /* \"#utility.yul\":14734:14737   */\n      dup2\n        /* \"#utility.yul\":14727:14737   */\n      swap1\n      pop\n        /* \"#utility.yul\":14202:14743   */\n      swap3\n      swap2\n      pop\n      pop\n      jump\t// out\n        /* \"#utility.yul\":14749:15290   */\n    tag_323:\n        /* \"#utility.yul\":14982:14985   */\n      0x00\n        /* \"#utility.yul\":15004:15152   */\n      tag_629\n        /* \"#utility.yul\":15148:15151   */\n      dup3\n        /* \"#utility.yul\":15004:15152   */\n      tag_550\n      jump\t// in\n    tag_629:\n        /* \"#utility.yul\":14997:15152   */\n      swap2\n      pop\n        /* \"#utility.yul\":15169:15264   */\n      tag_630\n        /* \"#utility.yul\":15260:15263   */\n      dup3\n        /* \"#utility.yul\":15251:15257   */\n      dup5\n        /* \"#utility.yul\":15169:15264   */\n      tag_519\n      jump\t// in\n    tag_630:\n        /* \"#utility.yul\":15162:15264   */\n      swap2\n      pop\n        /* \"#utility.yul\":15281:15284   */\n      dup2\n        /* \"#utility.yul\":15274:15284   */\n      swap1\n      pop\n        /* \"#utility.yul\":14749:15290   */\n      swap3\n      swap2\n      pop\n      pop\n      jump\t// out\n        /* \"#utility.yul\":15296:15837   */\n    tag_332:\n        /* \"#utility.yul\":15529:15532   */\n      0x00\n        /* \"#utility.yul\":15551:15699   */\n      tag_632\n        /* \"#utility.yul\":15695:15698   */\n      dup3\n        /* \"#utility.yul\":15551:15699   */\n      tag_600\n      jump\t// in\n    tag_632:\n        /* \"#utility.yul\":15544:15699   */\n      swap2\n      pop\n        /* \"#utility.yul\":15716:15811   */\n      tag_633\n        /* \"#utility.yul\":15807:15810   */\n      dup3\n        /* \"#utility.yul\":15798:15804   */\n      dup5\n        /* \"#utility.yul\":15716:15811   */\n      tag_519\n      jump\t// in\n    tag_633:\n        /* \"#utility.yul\":15709:15811   */\n      swap2\n      pop\n        /* \"#utility.yul\":15828:15831   */\n      dup2\n        /* \"#utility.yul\":15821:15831   */\n      swap1\n      pop\n        /* \"#utility.yul\":15296:15837   */\n      swap3\n      swap2\n      pop\n      pop\n      jump\t// out\n        /* \"#utility.yul\":15843:16413   */\n    tag_302:\n        /* \"#utility.yul\":16027:16030   */\n      0x00\n        /* \"#utility.yul\":16042:16117   */\n      tag_635\n        /* \"#utility.yul\":16113:16116   */\n      dup3\n        /* \"#utility.yul\":16104:16110   */\n      dup7\n        /* \"#utility.yul\":16042:16117   */\n      tag_616\n      jump\t// in\n    tag_635:\n        /* \"#utility.yul\":16142:16144   */\n      0x20\n        /* \"#utility.yul\":16137:16140   */\n      dup3\n        /* \"#utility.yul\":16133:16145   */\n      add\n        /* \"#utility.yul\":16126:16145   */\n      swap2\n      pop\n        /* \"#utility.yul\":16155:16230   */\n      tag_636\n        /* \"#utility.yul\":16226:16229   */\n      dup3\n        /* \"#utility.yul\":16217:16223   */\n      dup6\n        /* \"#utility.yul\":16155:16230   */\n      tag_466\n      jump\t// in\n    tag_636:\n        /* \"#utility.yul\":16255:16257   */\n      0x14\n        /* \"#utility.yul\":16250:16253   */\n      dup3\n        /* \"#utility.yul\":16246:16258   */\n      add\n        /* \"#utility.yul\":16239:16258   */\n      swap2\n      pop\n        /* \"#utility.yul\":16268:16359   */\n      tag_637\n        /* \"#utility.yul\":16355:16358   */\n      dup3\n        /* \"#utility.yul\":16346:16352   */\n      dup5\n        /* \"#utility.yul\":16268:16359   */\n      tag_457\n      jump\t// in\n    tag_637:\n        /* \"#utility.yul\":16384:16386   */\n      0x14\n        /* \"#utility.yul\":16379:16382   */\n      dup3\n        /* \"#utility.yul\":16375:16387   */\n      add\n        /* \"#utility.yul\":16368:16387   */\n      swap2\n      pop\n        /* \"#utility.yul\":16404:16407   */\n      dup2\n        /* \"#utility.yul\":16397:16407   */\n      swap1\n      pop\n        /* \"#utility.yul\":15843:16413   */\n      swap5\n      swap4\n      pop\n      pop\n      pop\n      pop\n      jump\t// out\n        /* \"#utility.yul\":16419:16673   */\n    tag_91:\n        /* \"#utility.yul\":16528:16532   */\n      0x00\n        /* \"#utility.yul\":16566:16568   */\n      0x20\n        /* \"#utility.yul\":16555:16564   */\n      dup3\n        /* \"#utility.yul\":16551:16569   */\n      add\n        /* \"#utility.yul\":16543:16569   */\n      swap1\n      pop\n        /* \"#utility.yul\":16579:16666   */\n      tag_639\n        /* \"#utility.yul\":16663:16664   */\n      0x00\n        /* \"#utility.yul\":16652:16661   */\n      dup4\n        /* \"#utility.yul\":16648:16665   */\n      add\n        /* \"#utility.yul\":16639:16645   */\n      dup5\n        /* \"#utility.yul\":16579:16666   */\n      tag_453\n      jump\t// in\n    tag_639:\n        /* \"#utility.yul\":16419:16673   */\n      swap3\n      swap2\n      pop\n      pop\n      jump\t// out\n        /* \"#utility.yul\":16679:17434   */\n    tag_372:\n        /* \"#utility.yul\":16904:16908   */\n      0x00\n        /* \"#utility.yul\":16942:16945   */\n      0xa0\n        /* \"#utility.yul\":16931:16940   */\n      dup3\n        /* \"#utility.yul\":16927:16946   */\n      add\n        /* \"#utility.yul\":16919:16946   */\n      swap1\n      pop\n        /* \"#utility.yul\":16956:17027   */\n      tag_641\n        /* \"#utility.yul\":17024:17025   */\n      0x00\n        /* \"#utility.yul\":17013:17022   */\n      dup4\n        /* \"#utility.yul\":17009:17026   */\n      add\n        /* \"#utility.yul\":17000:17006   */\n      dup9\n        /* \"#utility.yul\":16956:17027   */\n      tag_462\n      jump\t// in\n    tag_641:\n        /* \"#utility.yul\":17037:17109   */\n      tag_642\n        /* \"#utility.yul\":17105:17107   */\n      0x20\n        /* \"#utility.yul\":17094:17103   */\n      dup4\n        /* \"#utility.yul\":17090:17108   */\n      add\n        /* \"#utility.yul\":17081:17087   */\n      dup8\n        /* \"#utility.yul\":17037:17109   */\n      tag_462\n      jump\t// in\n    tag_642:\n        /* \"#utility.yul\":17119:17191   */\n      tag_643\n        /* \"#utility.yul\":17187:17189   */\n      0x40\n        /* \"#utility.yul\":17176:17185   */\n      dup4\n        /* \"#utility.yul\":17172:17190   */\n      add\n        /* \"#utility.yul\":17163:17169   */\n      dup7\n        /* \"#utility.yul\":17119:17191   */\n      tag_613\n      jump\t// in\n    tag_643:\n        /* \"#utility.yul\":17201:17273   */\n      tag_644\n        /* \"#utility.yul\":17269:17271   */\n      0x60\n        /* \"#utility.yul\":17258:17267   */\n      dup4\n        /* \"#utility.yul\":17254:17272   */\n      add\n        /* \"#utility.yul\":17245:17251   */\n      dup6\n        /* \"#utility.yul\":17201:17273   */\n      tag_613\n      jump\t// in\n    tag_644:\n        /* \"#utility.yul\":17321:17330   */\n      dup2\n        /* \"#utility.yul\":17315:17319   */\n      dup2\n        /* \"#utility.yul\":17311:17331   */\n      sub\n        /* \"#utility.yul\":17305:17308   */\n      0x80\n        /* \"#utility.yul\":17294:17303   */\n      dup4\n        /* \"#utility.yul\":17290:17309   */\n      add\n        /* \"#utility.yul\":17283:17332   */\n      mstore\n        /* \"#utility.yul\":17349:17427   */\n      tag_645\n        /* \"#utility.yul\":17422:17426   */\n      dup2\n        /* \"#utility.yul\":17413:17419   */\n      dup5\n        /* \"#utility.yul\":17349:17427   */\n      tag_512\n      jump\t// in\n    tag_645:\n        /* \"#utility.yul\":17341:17427   */\n      swap1\n      pop\n        /* \"#utility.yul\":16679:17434   */\n      swap7\n      swap6\n      pop\n      pop\n      pop\n      pop\n      pop\n      pop\n      jump\t// out\n        /* \"#utility.yul\":17440:17853   */\n    tag_52:\n        /* \"#utility.yul\":17603:17607   */\n      0x00\n        /* \"#utility.yul\":17641:17643   */\n      0x20\n        /* \"#utility.yul\":17630:17639   */\n      dup3\n        /* \"#utility.yul\":17626:17644   */\n      add\n        /* \"#utility.yul\":17618:17644   */\n      swap1\n      pop\n        /* \"#utility.yul\":17690:17699   */\n      dup2\n        /* \"#utility.yul\":17684:17688   */\n      dup2\n        /* \"#utility.yul\":17680:17700   */\n      sub\n        /* \"#utility.yul\":17676:17677   */\n      0x00\n        /* \"#utility.yul\":17665:17674   */\n      dup4\n        /* \"#utility.yul\":17661:17678   */\n      add\n        /* \"#utility.yul\":17654:17701   */\n      mstore\n        /* \"#utility.yul\":17718:17846   */\n      tag_647\n        /* \"#utility.yul\":17841:17845   */\n      dup2\n        /* \"#utility.yul\":17832:17838   */\n      dup5\n        /* \"#utility.yul\":17718:17846   */\n      tag_471\n      jump\t// in\n    tag_647:\n        /* \"#utility.yul\":17710:17846   */\n      swap1\n      pop\n        /* \"#utility.yul\":17440:17853   */\n      swap3\n      swap2\n      pop\n      pop\n      jump\t// out\n        /* \"#utility.yul\":17859:18232   */\n    tag_46:\n        /* \"#utility.yul\":18002:18006   */\n      0x00\n        /* \"#utility.yul\":18040:18042   */\n      0x20\n        /* \"#utility.yul\":18029:18038   */\n      dup3\n        /* \"#utility.yul\":18025:18043   */\n      add\n        /* \"#utility.yul\":18017:18043   */\n      swap1\n      pop\n        /* \"#utility.yul\":18089:18098   */\n      dup2\n        /* \"#utility.yul\":18083:18087   */\n      dup2\n        /* \"#utility.yul\":18079:18099   */\n      sub\n        /* \"#utility.yul\":18075:18076   */\n      0x00\n        /* \"#utility.yul\":18064:18073   */\n      dup4\n        /* \"#utility.yul\":18060:18077   */\n      add\n        /* \"#utility.yul\":18053:18100   */\n      mstore\n        /* \"#utility.yul\":18117:18225   */\n      tag_649\n        /* \"#utility.yul\":18220:18224   */\n      dup2\n        /* \"#utility.yul\":18211:18217   */\n      dup5\n        /* \"#utility.yul\":18117:18225   */\n      tag_485\n      jump\t// in\n    tag_649:\n        /* \"#utility.yul\":18109:18225   */\n      swap1\n      pop\n        /* \"#utility.yul\":17859:18232   */\n      swap3\n      swap2\n      pop\n      pop\n      jump\t// out\n        /* \"#utility.yul\":18238:18448   */\n    tag_86:\n        /* \"#utility.yul\":18325:18329   */\n      0x00\n        /* \"#utility.yul\":18363:18365   */\n      0x20\n        /* \"#utility.yul\":18352:18361   */\n      dup3\n        /* \"#utility.yul\":18348:18366   */\n      add\n        /* \"#utility.yul\":18340:18366   */\n      swap1\n      pop\n        /* \"#utility.yul\":18376:18441   */\n      tag_651\n        /* \"#utility.yul\":18438:18439   */\n      0x00\n        /* \"#utility.yul\":18427:18436   */\n      dup4\n        /* \"#utility.yul\":18423:18440   */\n      add\n        /* \"#utility.yul\":18414:18420   */\n      dup5\n        /* \"#utility.yul\":18376:18441   */\n      tag_499\n      jump\t// in\n    tag_651:\n        /* \"#utility.yul\":18238:18448   */\n      swap3\n      swap2\n      pop\n      pop\n      jump\t// out\n        /* \"#utility.yul\":18454:18767   */\n    tag_387:\n        /* \"#utility.yul\":18567:18571   */\n      0x00\n        /* \"#utility.yul\":18605:18607   */\n      0x20\n        /* \"#utility.yul\":18594:18603   */\n      dup3\n        /* \"#utility.yul\":18590:18608   */\n      add\n        /* \"#utility.yul\":18582:18608   */\n      swap1\n      pop\n        /* \"#utility.yul\":18654:18663   */\n      dup2\n        /* \"#utility.yul\":18648:18652   */\n      dup2\n        /* \"#utility.yul\":18644:18664   */\n      sub\n        /* \"#utility.yul\":18640:18641   */\n      0x00\n        /* \"#utility.yul\":18629:18638   */\n      dup4\n        /* \"#utility.yul\":18625:18642   */\n      add\n        /* \"#utility.yul\":18618:18665   */\n      mstore\n        /* \"#utility.yul\":18682:18760   */\n      tag_653\n        /* \"#utility.yul\":18755:18759   */\n      dup2\n        /* \"#utility.yul\":18746:18752   */\n      dup5\n        /* \"#utility.yul\":18682:18760   */\n      tag_512\n      jump\t// in\n    tag_653:\n        /* \"#utility.yul\":18674:18760   */\n      swap1\n      pop\n        /* \"#utility.yul\":18454:18767   */\n      swap3\n      swap2\n      pop\n      pop\n      jump\t// out\n        /* \"#utility.yul\":18773:19192   */\n    tag_389:\n        /* \"#utility.yul\":18939:18943   */\n      0x00\n        /* \"#utility.yul\":18977:18979   */\n      0x20\n        /* \"#utility.yul\":18966:18975   */\n      dup3\n        /* \"#utility.yul\":18962:18980   */\n      add\n        /* \"#utility.yul\":18954:18980   */\n      swap1\n      pop\n        /* \"#utility.yul\":19026:19035   */\n      dup2\n        /* \"#utility.yul\":19020:19024   */\n      dup2\n        /* \"#utility.yul\":19016:19036   */\n      sub\n        /* \"#utility.yul\":19012:19013   */\n      0x00\n        /* \"#utility.yul\":19001:19010   */\n      dup4\n        /* \"#utility.yul\":18997:19014   */\n      add\n        /* \"#utility.yul\":18990:19037   */\n      mstore\n        /* \"#utility.yul\":19054:19185   */\n      tag_655\n        /* \"#utility.yul\":19180:19184   */\n      dup2\n        /* \"#utility.yul\":19054:19185   */\n      tag_525\n      jump\t// in\n    tag_655:\n        /* \"#utility.yul\":19046:19185   */\n      swap1\n      pop\n        /* \"#utility.yul\":18773:19192   */\n      swap2\n      swap1\n      pop\n      jump\t// out\n        /* \"#utility.yul\":19198:19617   */\n    tag_393:\n        /* \"#utility.yul\":19364:19368   */\n      0x00\n        /* \"#utility.yul\":19402:19404   */\n      0x20\n        /* \"#utility.yul\":19391:19400   */\n      dup3\n        /* \"#utility.yul\":19387:19405   */\n      add\n        /* \"#utility.yul\":19379:19405   */\n      swap1\n      pop\n        /* \"#utility.yul\":19451:19460   */\n      dup2\n        /* \"#utility.yul\":19445:19449   */\n      dup2\n        /* \"#utility.yul\":19441:19461   */\n      sub\n        /* \"#utility.yul\":19437:19438   */\n      0x00\n        /* \"#utility.yul\":19426:19435   */\n      dup4\n        /* \"#utility.yul\":19422:19439   */\n      add\n        /* \"#utility.yul\":19415:19462   */\n      mstore\n        /* \"#utility.yul\":19479:19610   */\n      tag_657\n        /* \"#utility.yul\":19605:19609   */\n      dup2\n        /* \"#utility.yul\":19479:19610   */\n      tag_530\n      jump\t// in\n    tag_657:\n        /* \"#utility.yul\":19471:19610   */\n      swap1\n      pop\n        /* \"#utility.yul\":19198:19617   */\n      swap2\n      swap1\n      pop\n      jump\t// out\n        /* \"#utility.yul\":19623:20042   */\n    tag_123:\n        /* \"#utility.yul\":19789:19793   */\n      0x00\n        /* \"#utility.yul\":19827:19829   */\n      0x20\n        /* \"#utility.yul\":19816:19825   */\n      dup3\n        /* \"#utility.yul\":19812:19830   */\n      add\n        /* \"#utility.yul\":19804:19830   */\n      swap1\n      pop\n        /* \"#utility.yul\":19876:19885   */\n      dup2\n        /* \"#utility.yul\":19870:19874   */\n      dup2\n        /* \"#utility.yul\":19866:19886   */\n      sub\n        /* \"#utility.yul\":19862:19863   */\n      0x00\n        /* \"#utility.yul\":19851:19860   */\n      dup4\n        /* \"#utility.yul\":19847:19864   */\n      add\n        /* \"#utility.yul\":19840:19887   */\n      mstore\n        /* \"#utility.yul\":19904:20035   */\n      tag_659\n        /* \"#utility.yul\":20030:20034   */\n      dup2\n        /* \"#utility.yul\":19904:20035   */\n      tag_535\n      jump\t// in\n    tag_659:\n        /* \"#utility.yul\":19896:20035   */\n      swap1\n      pop\n        /* \"#utility.yul\":19623:20042   */\n      swap2\n      swap1\n      pop\n      jump\t// out\n        /* \"#utility.yul\":20048:20467   */\n    tag_150:\n        /* \"#utility.yul\":20214:20218   */\n      0x00\n        /* \"#utility.yul\":20252:20254   */\n      0x20\n        /* \"#utility.yul\":20241:20250   */\n      dup3\n        /* \"#utility.yul\":20237:20255   */\n      add\n        /* \"#utility.yul\":20229:20255   */\n      swap1\n      pop\n        /* \"#utility.yul\":20301:20310   */\n      dup2\n        /* \"#utility.yul\":20295:20299   */\n      dup2\n        /* \"#utility.yul\":20291:20311   */\n      sub\n        /* \"#utility.yul\":20287:20288   */\n      0x00\n        /* \"#utility.yul\":20276:20285   */\n      dup4\n        /* \"#utility.yul\":20272:20289   */\n      add\n        /* \"#utility.yul\":20265:20312   */\n      mstore\n        /* \"#utility.yul\":20329:20460   */\n      tag_661\n        /* \"#utility.yul\":20455:20459   */\n      dup2\n        /* \"#utility.yul\":20329:20460   */\n      tag_545\n      jump\t// in\n    tag_661:\n        /* \"#utility.yul\":20321:20460   */\n      swap1\n      pop\n        /* \"#utility.yul\":20048:20467   */\n      swap2\n      swap1\n      pop\n      jump\t// out\n        /* \"#utility.yul\":20473:20892   */\n    tag_155:\n        /* \"#utility.yul\":20639:20643   */\n      0x00\n        /* \"#utility.yul\":20677:20679   */\n      0x20\n        /* \"#utility.yul\":20666:20675   */\n      dup3\n        /* \"#utility.yul\":20662:20680   */\n      add\n        /* \"#utility.yul\":20654:20680   */\n      swap1\n      pop\n        /* \"#utility.yul\":20726:20735   */\n      dup2\n        /* \"#utility.yul\":20720:20724   */\n      dup2\n        /* \"#utility.yul\":20716:20736   */\n      sub\n        /* \"#utility.yul\":20712:20713   */\n      0x00\n        /* \"#utility.yul\":20701:20710   */\n      dup4\n        /* \"#utility.yul\":20697:20714   */\n      add\n        /* \"#utility.yul\":20690:20737   */\n      mstore\n        /* \"#utility.yul\":20754:20885   */\n      tag_663\n        /* \"#utility.yul\":20880:20884   */\n      dup2\n        /* \"#utility.yul\":20754:20885   */\n      tag_555\n      jump\t// in\n    tag_663:\n        /* \"#utility.yul\":20746:20885   */\n      swap1\n      pop\n        /* \"#utility.yul\":20473:20892   */\n      swap2\n      swap1\n      pop\n      jump\t// out\n        /* \"#utility.yul\":20898:21317   */\n    tag_115:\n        /* \"#utility.yul\":21064:21068   */\n      0x00\n        /* \"#utility.yul\":21102:21104   */\n      0x20\n        /* \"#utility.yul\":21091:21100   */\n      dup3\n        /* \"#utility.yul\":21087:21105   */\n      add\n        /* \"#utility.yul\":21079:21105   */\n      swap1\n      pop\n        /* \"#utility.yul\":21151:21160   */\n      dup2\n        /* \"#utility.yul\":21145:21149   */\n      dup2\n        /* \"#utility.yul\":21141:21161   */\n      sub\n        /* \"#utility.yul\":21137:21138   */\n      0x00\n        /* \"#utility.yul\":21126:21135   */\n      dup4\n        /* \"#utility.yul\":21122:21139   */\n      add\n        /* \"#utility.yul\":21115:21162   */\n      mstore\n        /* \"#utility.yul\":21179:21310   */\n      tag_665\n        /* \"#utility.yul\":21305:21309   */\n      dup2\n        /* \"#utility.yul\":21179:21310   */\n      tag_560\n      jump\t// in\n    tag_665:\n        /* \"#utility.yul\":21171:21310   */\n      swap1\n      pop\n        /* \"#utility.yul\":20898:21317   */\n      swap2\n      swap1\n      pop\n      jump\t// out\n        /* \"#utility.yul\":21323:21742   */\n    tag_240:\n        /* \"#utility.yul\":21489:21493   */\n      0x00\n        /* \"#utility.yul\":21527:21529   */\n      0x20\n        /* \"#utility.yul\":21516:21525   */\n      dup3\n        /* \"#utility.yul\":21512:21530   */\n      add\n        /* \"#utility.yul\":21504:21530   */\n      swap1\n      pop\n        /* \"#utility.yul\":21576:21585   */\n      dup2\n        /* \"#utility.yul\":21570:21574   */\n      dup2\n        /* \"#utility.yul\":21566:21586   */\n      sub\n        /* \"#utility.yul\":21562:21563   */\n      0x00\n        /* \"#utility.yul\":21551:21560   */\n      dup4\n        /* \"#utility.yul\":21547:21564   */\n      add\n        /* \"#utility.yul\":21540:21587   */\n      mstore\n        /* \"#utility.yul\":21604:21735   */\n      tag_667\n        /* \"#utility.yul\":21730:21734   */\n      dup2\n        /* \"#utility.yul\":21604:21735   */\n      tag_565\n      jump\t// in\n    tag_667:\n        /* \"#utility.yul\":21596:21735   */\n      swap1\n      pop\n        /* \"#utility.yul\":21323:21742   */\n      swap2\n      swap1\n      pop\n      jump\t// out\n        /* \"#utility.yul\":21748:22167   */\n    tag_144:\n        /* \"#utility.yul\":21914:21918   */\n      0x00\n        /* \"#utility.yul\":21952:21954   */\n      0x20\n        /* \"#utility.yul\":21941:21950   */\n      dup3\n        /* \"#utility.yul\":21937:21955   */\n      add\n        /* \"#utility.yul\":21929:21955   */\n      swap1\n      pop\n        /* \"#utility.yul\":22001:22010   */\n      dup2\n        /* \"#utility.yul\":21995:21999   */\n      dup2\n        /* \"#utility.yul\":21991:22011   */\n      sub\n        /* \"#utility.yul\":21987:21988   */\n      0x00\n        /* \"#utility.yul\":21976:21985   */\n      dup4\n        /* \"#utility.yul\":21972:21989   */\n      add\n        /* \"#utility.yul\":21965:22012   */\n      mstore\n        /* \"#utility.yul\":22029:22160   */\n      tag_669\n        /* \"#utility.yul\":22155:22159   */\n      dup2\n        /* \"#utility.yul\":22029:22160   */\n      tag_570\n      jump\t// in\n    tag_669:\n        /* \"#utility.yul\":22021:22160   */\n      swap1\n      pop\n        /* \"#utility.yul\":21748:22167   */\n      swap2\n      swap1\n      pop\n      jump\t// out\n        /* \"#utility.yul\":22173:22592   */\n    tag_111:\n        /* \"#utility.yul\":22339:22343   */\n      0x00\n        /* \"#utility.yul\":22377:22379   */\n      0x20\n        /* \"#utility.yul\":22366:22375   */\n      dup3\n        /* \"#utility.yul\":22362:22380   */\n      add\n        /* \"#utility.yul\":22354:22380   */\n      swap1\n      pop\n        /* \"#utility.yul\":22426:22435   */\n      dup2\n        /* \"#utility.yul\":22420:22424   */\n      dup2\n        /* \"#utility.yul\":22416:22436   */\n      sub\n        /* \"#utility.yul\":22412:22413   */\n      0x00\n        /* \"#utility.yul\":22401:22410   */\n      dup4\n        /* \"#utility.yul\":22397:22414   */\n      add\n        /* \"#utility.yul\":22390:22437   */\n      mstore\n        /* \"#utility.yul\":22454:22585   */\n      tag_671\n        /* \"#utility.yul\":22580:22584   */\n      dup2\n        /* \"#utility.yul\":22454:22585   */\n      tag_575\n      jump\t// in\n    tag_671:\n        /* \"#utility.yul\":22446:22585   */\n      swap1\n      pop\n        /* \"#utility.yul\":22173:22592   */\n      swap2\n      swap1\n      pop\n      jump\t// out\n        /* \"#utility.yul\":22598:23017   */\n    tag_139:\n        /* \"#utility.yul\":22764:22768   */\n      0x00\n        /* \"#utility.yul\":22802:22804   */\n      0x20\n        /* \"#utility.yul\":22791:22800   */\n      dup3\n        /* \"#utility.yul\":22787:22805   */\n      add\n        /* \"#utility.yul\":22779:22805   */\n      swap1\n      pop\n        /* \"#utility.yul\":22851:22860   */\n      dup2\n        /* \"#utility.yul\":22845:22849   */\n      dup2\n        /* \"#utility.yul\":22841:22861   */\n      sub\n        /* \"#utility.yul\":22837:22838   */\n      0x00\n        /* \"#utility.yul\":22826:22835   */\n      dup4\n        /* \"#utility.yul\":22822:22839   */\n      add\n        /* \"#utility.yul\":22815:22862   */\n      mstore\n        /* \"#utility.yul\":22879:23010   */\n      tag_673\n        /* \"#utility.yul\":23005:23009   */\n      dup2\n        /* \"#utility.yul\":22879:23010   */\n      tag_580\n      jump\t// in\n    tag_673:\n        /* \"#utility.yul\":22871:23010   */\n      swap1\n      pop\n        /* \"#utility.yul\":22598:23017   */\n      swap2\n      swap1\n      pop\n      jump\t// out\n        /* \"#utility.yul\":23023:23442   */\n    tag_129:\n        /* \"#utility.yul\":23189:23193   */\n      0x00\n        /* \"#utility.yul\":23227:23229   */\n      0x20\n        /* \"#utility.yul\":23216:23225   */\n      dup3\n        /* \"#utility.yul\":23212:23230   */\n      add\n        /* \"#utility.yul\":23204:23230   */\n      swap1\n      pop\n        /* \"#utility.yul\":23276:23285   */\n      dup2\n        /* \"#utility.yul\":23270:23274   */\n      dup2\n        /* \"#utility.yul\":23266:23286   */\n      sub\n        /* \"#utility.yul\":23262:23263   */\n      0x00\n        /* \"#utility.yul\":23251:23260   */\n      dup4\n        /* \"#utility.yul\":23247:23264   */\n      add\n        /* \"#utility.yul\":23240:23287   */\n      mstore\n        /* \"#utility.yul\":23304:23435   */\n      tag_675\n        /* \"#utility.yul\":23430:23434   */\n      dup2\n        /* \"#utility.yul\":23304:23435   */\n      tag_585\n      jump\t// in\n    tag_675:\n        /* \"#utility.yul\":23296:23435   */\n      swap1\n      pop\n        /* \"#utility.yul\":23023:23442   */\n      swap2\n      swap1\n      pop\n      jump\t// out\n        /* \"#utility.yul\":23448:23867   */\n    tag_147:\n        /* \"#utility.yul\":23614:23618   */\n      0x00\n        /* \"#utility.yul\":23652:23654   */\n      0x20\n        /* \"#utility.yul\":23641:23650   */\n      dup3\n        /* \"#utility.yul\":23637:23655   */\n      add\n        /* \"#utility.yul\":23629:23655   */\n      swap1\n      pop\n        /* \"#utility.yul\":23701:23710   */\n      dup2\n        /* \"#utility.yul\":23695:23699   */\n      dup2\n        /* \"#utility.yul\":23691:23711   */\n      sub\n        /* \"#utility.yul\":23687:23688   */\n      0x00\n        /* \"#utility.yul\":23676:23685   */\n      dup4\n        /* \"#utility.yul\":23672:23689   */\n      add\n        /* \"#utility.yul\":23665:23712   */\n      mstore\n        /* \"#utility.yul\":23729:23860   */\n      tag_677\n        /* \"#utility.yul\":23855:23859   */\n      dup2\n        /* \"#utility.yul\":23729:23860   */\n      tag_590\n      jump\t// in\n    tag_677:\n        /* \"#utility.yul\":23721:23860   */\n      swap1\n      pop\n        /* \"#utility.yul\":23448:23867   */\n      swap2\n      swap1\n      pop\n      jump\t// out\n        /* \"#utility.yul\":23873:24292   */\n    tag_348:\n        /* \"#utility.yul\":24039:24043   */\n      0x00\n        /* \"#utility.yul\":24077:24079   */\n      0x20\n        /* \"#utility.yul\":24066:24075   */\n      dup3\n        /* \"#utility.yul\":24062:24080   */\n      add\n        /* \"#utility.yul\":24054:24080   */\n      swap1\n      pop\n        /* \"#utility.yul\":24126:24135   */\n      dup2\n        /* \"#utility.yul\":24120:24124   */\n      dup2\n        /* \"#utility.yul\":24116:24136   */\n      sub\n        /* \"#utility.yul\":24112:24113   */\n      0x00\n        /* \"#utility.yul\":24101:24110   */\n      dup4\n        /* \"#utility.yul\":24097:24114   */\n      add\n        /* \"#utility.yul\":24090:24137   */\n      mstore\n        /* \"#utility.yul\":24154:24285   */\n      tag_679\n        /* \"#utility.yul\":24280:24284   */\n      dup2\n        /* \"#utility.yul\":24154:24285   */\n      tag_605\n      jump\t// in\n    tag_679:\n        /* \"#utility.yul\":24146:24285   */\n      swap1\n      pop\n        /* \"#utility.yul\":23873:24292   */\n      swap2\n      swap1\n      pop\n      jump\t// out\n        /* \"#utility.yul\":24298:24520   */\n    tag_27:\n        /* \"#utility.yul\":24391:24395   */\n      0x00\n        /* \"#utility.yul\":24429:24431   */\n      0x20\n        /* \"#utility.yul\":24418:24427   */\n      dup3\n        /* \"#utility.yul\":24414:24432   */\n      add\n        /* \"#utility.yul\":24406:24432   */\n      swap1\n      pop\n        /* \"#utility.yul\":24442:24513   */\n      tag_681\n        /* \"#utility.yul\":24510:24511   */\n      0x00\n        /* \"#utility.yul\":24499:24508   */\n      dup4\n        /* \"#utility.yul\":24495:24512   */\n      add\n        /* \"#utility.yul\":24486:24492   */\n      dup5\n        /* \"#utility.yul\":24442:24513   */\n      tag_613\n      jump\t// in\n    tag_681:\n        /* \"#utility.yul\":24298:24520   */\n      swap3\n      swap2\n      pop\n      pop\n      jump\t// out\n        /* \"#utility.yul\":24526:24858   */\n    tag_357:\n        /* \"#utility.yul\":24647:24651   */\n      0x00\n        /* \"#utility.yul\":24685:24687   */\n      0x40\n        /* \"#utility.yul\":24674:24683   */\n      dup3\n        /* \"#utility.yul\":24670:24688   */\n      add\n        /* \"#utility.yul\":24662:24688   */\n      swap1\n      pop\n        /* \"#utility.yul\":24698:24769   */\n      tag_683\n        /* \"#utility.yul\":24766:24767   */\n      0x00\n        /* \"#utility.yul\":24755:24764   */\n      dup4\n        /* \"#utility.yul\":24751:24768   */\n      add\n        /* \"#utility.yul\":24742:24748   */\n      dup6\n        /* \"#utility.yul\":24698:24769   */\n      tag_613\n      jump\t// in\n    tag_683:\n        /* \"#utility.yul\":24779:24851   */\n      tag_684\n        /* \"#utility.yul\":24847:24849   */\n      0x20\n        /* \"#utility.yul\":24836:24845   */\n      dup4\n        /* \"#utility.yul\":24832:24850   */\n      add\n        /* \"#utility.yul\":24823:24829   */\n      dup5\n        /* \"#utility.yul\":24779:24851   */\n      tag_613\n      jump\t// in\n    tag_684:\n        /* \"#utility.yul\":24526:24858   */\n      swap4\n      swap3\n      pop\n      pop\n      pop\n      jump\t// out\n        /* \"#utility.yul\":24864:25306   */\n    tag_62:\n        /* \"#utility.yul\":25013:25017   */\n      0x00\n        /* \"#utility.yul\":25051:25053   */\n      0x60\n        /* \"#utility.yul\":25040:25049   */\n      dup3\n        /* \"#utility.yul\":25036:25054   */\n      add\n        /* \"#utility.yul\":25028:25054   */\n      swap1\n      pop\n        /* \"#utility.yul\":25064:25135   */\n      tag_686\n        /* \"#utility.yul\":25132:25133   */\n      0x00\n        /* \"#utility.yul\":25121:25130   */\n      dup4\n        /* \"#utility.yul\":25117:25134   */\n      add\n        /* \"#utility.yul\":25108:25114   */\n      dup7\n        /* \"#utility.yul\":25064:25135   */\n      tag_613\n      jump\t// in\n    tag_686:\n        /* \"#utility.yul\":25145:25217   */\n      tag_687\n        /* \"#utility.yul\":25213:25215   */\n      0x20\n        /* \"#utility.yul\":25202:25211   */\n      dup4\n        /* \"#utility.yul\":25198:25216   */\n      add\n        /* \"#utility.yul\":25189:25195   */\n      dup6\n        /* \"#utility.yul\":25145:25217   */\n      tag_613\n      jump\t// in\n    tag_687:\n        /* \"#utility.yul\":25227:25299   */\n      tag_688\n        /* \"#utility.yul\":25295:25297   */\n      0x40\n        /* \"#utility.yul\":25284:25293   */\n      dup4\n        /* \"#utility.yul\":25280:25298   */\n      add\n        /* \"#utility.yul\":25271:25277   */\n      dup5\n        /* \"#utility.yul\":25227:25299   */\n      tag_613\n      jump\t// in\n    tag_688:\n        /* \"#utility.yul\":24864:25306   */\n      swap5\n      swap4\n      pop\n      pop\n      pop\n      pop\n      jump\t// out\n        /* \"#utility.yul\":25312:25387   */\n    tag_689:\n        /* \"#utility.yul\":25345:25351   */\n      0x00\n        /* \"#utility.yul\":25378:25380   */\n      0x40\n        /* \"#utility.yul\":25372:25381   */\n      mload\n        /* \"#utility.yul\":25362:25381   */\n      swap1\n      pop\n        /* \"#utility.yul\":25312:25387   */\n      swap1\n      jump\t// out\n        /* \"#utility.yul\":25393:25535   */\n    tag_478:\n        /* \"#utility.yul\":25470:25474   */\n      0x00\n        /* \"#utility.yul\":25493:25496   */\n      dup2\n        /* \"#utility.yul\":25485:25496   */\n      swap1\n      pop\n        /* \"#utility.yul\":25523:25527   */\n      0x20\n        /* \"#utility.yul\":25518:25521   */\n      dup3\n        /* \"#utility.yul\":25514:25528   */\n      add\n        /* \"#utility.yul\":25506:25528   */\n      swap1\n      pop\n        /* \"#utility.yul\":25393:25535   */\n      swap2\n      swap1\n      pop\n      jump\t// out\n        /* \"#utility.yul\":25541:25673   */\n    tag_492:\n        /* \"#utility.yul\":25608:25612   */\n      0x00\n        /* \"#utility.yul\":25631:25634   */\n      dup2\n        /* \"#utility.yul\":25623:25634   */\n      swap1\n      pop\n        /* \"#utility.yul\":25661:25665   */\n      0x20\n        /* \"#utility.yul\":25656:25659   */\n      dup3\n        /* \"#utility.yul\":25652:25666   */\n      add\n        /* \"#utility.yul\":25644:25666   */\n      swap1\n      pop\n        /* \"#utility.yul\":25541:25673   */\n      swap2\n      swap1\n      pop\n      jump\t// out\n        /* \"#utility.yul\":25679:25803   */\n    tag_474:\n        /* \"#utility.yul\":25756:25762   */\n      0x00\n        /* \"#utility.yul\":25790:25795   */\n      dup2\n        /* \"#utility.yul\":25784:25796   */\n      mload\n        /* \"#utility.yul\":25774:25796   */\n      swap1\n      pop\n        /* \"#utility.yul\":25679:25803   */\n      swap2\n      swap1\n      pop\n      jump\t// out\n        /* \"#utility.yul\":25809:25923   */\n    tag_488:\n        /* \"#utility.yul\":25876:25882   */\n      0x00\n        /* \"#utility.yul\":25910:25915   */\n      dup2\n        /* \"#utility.yul\":25904:25916   */\n      mload\n        /* \"#utility.yul\":25894:25916   */\n      swap1\n      pop\n        /* \"#utility.yul\":25809:25923   */\n      swap2\n      swap1\n      pop\n      jump\t// out\n        /* \"#utility.yul\":25929:26028   */\n    tag_505:\n        /* \"#utility.yul\":25981:25987   */\n      0x00\n        /* \"#utility.yul\":26015:26020   */\n      dup2\n        /* \"#utility.yul\":26009:26021   */\n      mload\n        /* \"#utility.yul\":25999:26021   */\n      swap1\n      pop\n        /* \"#utility.yul\":25929:26028   */\n      swap2\n      swap1\n      pop\n      jump\t// out\n        /* \"#utility.yul\":26034:26157   */\n    tag_484:\n        /* \"#utility.yul\":26114:26118   */\n      0x00\n        /* \"#utility.yul\":26146:26150   */\n      0x20\n        /* \"#utility.yul\":26141:26144   */\n      dup3\n        /* \"#utility.yul\":26137:26151   */\n      add\n        /* \"#utility.yul\":26129:26151   */\n      swap1\n      pop\n        /* \"#utility.yul\":26034:26157   */\n      swap2\n      swap1\n      pop\n      jump\t// out\n        /* \"#utility.yul\":26163:26276   */\n    tag_498:\n        /* \"#utility.yul\":26233:26237   */\n      0x00\n        /* \"#utility.yul\":26265:26269   */\n      0x20\n        /* \"#utility.yul\":26260:26263   */\n      dup3\n        /* \"#utility.yul\":26256:26270   */\n      add\n        /* \"#utility.yul\":26248:26270   */\n      swap1\n      pop\n        /* \"#utility.yul\":26163:26276   */\n      swap2\n      swap1\n      pop\n      jump\t// out\n        /* \"#utility.yul\":26282:26476   */\n    tag_476:\n        /* \"#utility.yul\":26391:26402   */\n      0x00\n        /* \"#utility.yul\":26425:26431   */\n      dup3\n        /* \"#utility.yul\":26420:26423   */\n      dup3\n        /* \"#utility.yul\":26413:26432   */\n      mstore\n        /* \"#utility.yul\":26465:26469   */\n      0x20\n        /* \"#utility.yul\":26460:26463   */\n      dup3\n        /* \"#utility.yul\":26456:26470   */\n      add\n        /* \"#utility.yul\":26441:26470   */\n      swap1\n      pop\n        /* \"#utility.yul\":26282:26476   */\n      swap3\n      swap2\n      pop\n      pop\n      jump\t// out\n        /* \"#utility.yul\":26482:26666   */\n    tag_490:\n        /* \"#utility.yul\":26581:26592   */\n      0x00\n        /* \"#utility.yul\":26615:26621   */\n      dup3\n        /* \"#utility.yul\":26610:26613   */\n      dup3\n        /* \"#utility.yul\":26603:26622   */\n      mstore\n        /* \"#utility.yul\":26655:26659   */\n      0x20\n        /* \"#utility.yul\":26650:26653   */\n      dup3\n        /* \"#utility.yul\":26646:26660   */\n      add\n        /* \"#utility.yul\":26631:26660   */\n      swap1\n      pop\n        /* \"#utility.yul\":26482:26666   */\n      swap3\n      swap2\n      pop\n      pop\n      jump\t// out\n        /* \"#utility.yul\":26672:26831   */\n    tag_507:\n        /* \"#utility.yul\":26746:26757   */\n      0x00\n        /* \"#utility.yul\":26780:26786   */\n      dup3\n        /* \"#utility.yul\":26775:26778   */\n      dup3\n        /* \"#utility.yul\":26768:26787   */\n      mstore\n        /* \"#utility.yul\":26820:26824   */\n      0x20\n        /* \"#utility.yul\":26815:26818   */\n      dup3\n        /* \"#utility.yul\":26811:26825   */\n      add\n        /* \"#utility.yul\":26796:26825   */\n      swap1\n      pop\n        /* \"#utility.yul\":26672:26831   */\n      swap3\n      swap2\n      pop\n      pop\n      jump\t// out\n        /* \"#utility.yul\":26837:27006   */\n    tag_516:\n        /* \"#utility.yul\":26921:26932   */\n      0x00\n        /* \"#utility.yul\":26955:26961   */\n      dup3\n        /* \"#utility.yul\":26950:26953   */\n      dup3\n        /* \"#utility.yul\":26943:26962   */\n      mstore\n        /* \"#utility.yul\":26995:26999   */\n      0x20\n        /* \"#utility.yul\":26990:26993   */\n      dup3\n        /* \"#utility.yul\":26986:27000   */\n      add\n        /* \"#utility.yul\":26971:27000   */\n      swap1\n      pop\n        /* \"#utility.yul\":26837:27006   */\n      swap3\n      swap2\n      pop\n      pop\n      jump\t// out\n        /* \"#utility.yul\":27012:27160   */\n    tag_523:\n        /* \"#utility.yul\":27114:27125   */\n      0x00\n        /* \"#utility.yul\":27151:27154   */\n      dup2\n        /* \"#utility.yul\":27136:27154   */\n      swap1\n      pop\n        /* \"#utility.yul\":27012:27160   */\n      swap3\n      swap2\n      pop\n      pop\n      jump\t// out\n        /* \"#utility.yul\":27166:27471   */\n    tag_290:\n        /* \"#utility.yul\":27206:27209   */\n      0x00\n        /* \"#utility.yul\":27225:27245   */\n      tag_704\n        /* \"#utility.yul\":27243:27244   */\n      dup3\n        /* \"#utility.yul\":27225:27245   */\n      tag_612\n      jump\t// in\n    tag_704:\n        /* \"#utility.yul\":27220:27245   */\n      swap2\n      pop\n        /* \"#utility.yul\":27259:27279   */\n      tag_705\n        /* \"#utility.yul\":27277:27278   */\n      dup4\n        /* \"#utility.yul\":27259:27279   */\n      tag_612\n      jump\t// in\n    tag_705:\n        /* \"#utility.yul\":27254:27279   */\n      swap3\n      pop\n        /* \"#utility.yul\":27413:27414   */\n      dup3\n        /* \"#utility.yul\":27345:27411   */\n      0xffffffffffffffffffffffffffffffffffffffffffffffffffffffffffffffff\n        /* \"#utility.yul\":27341:27415   */\n      sub\n        /* \"#utility.yul\":27338:27339   */\n      dup3\n        /* \"#utility.yul\":27335:27416   */\n      gt\n        /* \"#utility.yul\":27332:27439   */\n      iszero\n      tag_706\n      jumpi\n        /* \"#utility.yul\":27419:27437   */\n      tag_707\n      tag_708\n      jump\t// in\n    tag_707:\n        /* \"#utility.yul\":27332:27439   */\n    tag_706:\n        /* \"#utility.yul\":27463:27464   */\n      dup3\n        /* \"#utility.yul\":27460:27461   */\n      dup3\n        /* \"#utility.yul\":27456:27465   */\n      add\n        /* \"#utility.yul\":27449:27465   */\n      swap1\n      pop\n        /* \"#utility.yul\":27166:27471   */\n      swap3\n      swap2\n      pop\n      pop\n      jump\t// out\n        /* \"#utility.yul\":27477:27662   */\n    tag_279:\n        /* \"#utility.yul\":27517:27518   */\n      0x00\n        /* \"#utility.yul\":27534:27554   */\n      tag_710\n        /* \"#utility.yul\":27552:27553   */\n      dup3\n        /* \"#utility.yul\":27534:27554   */\n      tag_612\n      jump\t// in\n    tag_710:\n        /* \"#utility.yul\":27529:27554   */\n      swap2\n      pop\n        /* \"#utility.yul\":27568:27588   */\n      tag_711\n        /* \"#utility.yul\":27586:27587   */\n      dup4\n        /* \"#utility.yul\":27568:27588   */\n      tag_612\n      jump\t// in\n    tag_711:\n        /* \"#utility.yul\":27563:27588   */\n      swap3\n      pop\n        /* \"#utility.yul\":27607:27608   */\n      dup3\n        /* \"#utility.yul\":27597:27632   */\n      tag_712\n      jumpi\n        /* \"#utility.yul\":27612:27630   */\n      tag_713\n      tag_714\n      jump\t// in\n    tag_713:\n        /* \"#utility.yul\":27597:27632   */\n    tag_712:\n        /* \"#utility.yul\":27654:27655   */\n      dup3\n        /* \"#utility.yul\":27651:27652   */\n      dup3\n        /* \"#utility.yul\":27647:27656   */\n      div\n        /* \"#utility.yul\":27642:27656   */\n      swap1\n      pop\n        /* \"#utility.yul\":27477:27662   */\n      swap3\n      swap2\n      pop\n      pop\n      jump\t// out\n        /* \"#utility.yul\":27668:28016   */\n    tag_152:\n        /* \"#utility.yul\":27708:27715   */\n      0x00\n        /* \"#utility.yul\":27731:27751   */\n      tag_716\n        /* \"#utility.yul\":27749:27750   */\n      dup3\n        /* \"#utility.yul\":27731:27751   */\n      tag_612\n      jump\t// in\n    tag_716:\n        /* \"#utility.yul\":27726:27751   */\n      swap2\n      pop\n        /* \"#utility.yul\":27765:27785   */\n      tag_717\n        /* \"#utility.yul\":27783:27784   */\n      dup4\n        /* \"#utility.yul\":27765:27785   */\n      tag_612\n      jump\t// in\n    tag_717:\n        /* \"#utility.yul\":27760:27785   */\n      swap3\n      pop\n        /* \"#utility.yul\":27953:27954   */\n      dup2\n        /* \"#utility.yul\":27885:27951   */\n      0xffffffffffffffffffffffffffffffffffffffffffffffffffffffffffffffff\n        /* \"#utility.yul\":27881:27955   */\n      div\n        /* \"#utility.yul\":27878:27879   */\n      dup4\n        /* \"#utility.yul\":27875:27956   */\n      gt\n        /* \"#utility.yul\":27870:27871   */\n      dup3\n        /* \"#utility.yul\":27863:27872   */\n      iszero\n        /* \"#utility.yul\":27856:27873   */\n      iszero\n        /* \"#utility.yul\":27852:27957   */\n      and\n        /* \"#utility.yul\":27849:27980   */\n      iszero\n      tag_718\n      jumpi\n        /* \"#utility.yul\":27960:27978   */\n      tag_719\n      tag_708\n      jump\t// in\n    tag_719:\n        /* \"#utility.yul\":27849:27980   */\n    tag_718:\n        /* \"#utility.yul\":28008:28009   */\n      dup3\n        /* \"#utility.yul\":28005:28006   */\n      dup3\n        /* \"#utility.yul\":28001:28010   */\n      mul\n        /* \"#utility.yul\":27990:28010   */\n      swap1\n      pop\n        /* \"#utility.yul\":27668:28016   */\n      swap3\n      swap2\n      pop\n      pop\n      jump\t// out\n        /* \"#utility.yul\":28022:28213   */\n    tag_286:\n        /* \"#utility.yul\":28062:28066   */\n      0x00\n        /* \"#utility.yul\":28082:28102   */\n      tag_721\n        /* \"#utility.yul\":28100:28101   */\n      dup3\n        /* \"#utility.yul\":28082:28102   */\n      tag_612\n      jump\t// in\n    tag_721:\n        /* \"#utility.yul\":28077:28102   */\n      swap2\n      pop\n        /* \"#utility.yul\":28116:28136   */\n      tag_722\n        /* \"#utility.yul\":28134:28135   */\n      dup4\n        /* \"#utility.yul\":28116:28136   */\n      tag_612\n      jump\t// in\n    tag_722:\n        /* \"#utility.yul\":28111:28136   */\n      swap3\n      pop\n        /* \"#utility.yul\":28155:28156   */\n      dup3\n        /* \"#utility.yul\":28152:28153   */\n      dup3\n        /* \"#utility.yul\":28149:28157   */\n      lt\n        /* \"#utility.yul\":28146:28180   */\n      iszero\n      tag_723\n      jumpi\n        /* \"#utility.yul\":28160:28178   */\n      tag_724\n      tag_708\n      jump\t// in\n    tag_724:\n        /* \"#utility.yul\":28146:28180   */\n    tag_723:\n        /* \"#utility.yul\":28205:28206   */\n      dup3\n        /* \"#utility.yul\":28202:28203   */\n      dup3\n        /* \"#utility.yul\":28198:28207   */\n      sub\n        /* \"#utility.yul\":28190:28207   */\n      swap1\n      pop\n        /* \"#utility.yul\":28022:28213   */\n      swap3\n      swap2\n      pop\n      pop\n      jump\t// out\n        /* \"#utility.yul\":28219:28315   */\n    tag_465:\n        /* \"#utility.yul\":28256:28263   */\n      0x00\n        /* \"#utility.yul\":28285:28309   */\n      tag_726\n        /* \"#utility.yul\":28303:28308   */\n      dup3\n        /* \"#utility.yul\":28285:28309   */\n      tag_727\n      jump\t// in\n    tag_726:\n        /* \"#utility.yul\":28274:28309   */\n      swap1\n      pop\n        /* \"#utility.yul\":28219:28315   */\n      swap2\n      swap1\n      pop\n      jump\t// out\n        /* \"#utility.yul\":28321:28425   */\n    tag_456:\n        /* \"#utility.yul\":28366:28373   */\n      0x00\n        /* \"#utility.yul\":28395:28419   */\n      tag_729\n        /* \"#utility.yul\":28413:28418   */\n      dup3\n        /* \"#utility.yul\":28395:28419   */\n      tag_727\n      jump\t// in\n    tag_729:\n        /* \"#utility.yul\":28384:28419   */\n      swap1\n      pop\n        /* \"#utility.yul\":28321:28425   */\n      swap2\n      swap1\n      pop\n      jump\t// out\n        /* \"#utility.yul\":28431:28521   */\n    tag_502:\n        /* \"#utility.yul\":28465:28472   */\n      0x00\n        /* \"#utility.yul\":28508:28513   */\n      dup2\n        /* \"#utility.yul\":28501:28514   */\n      iszero\n        /* \"#utility.yul\":28494:28515   */\n      iszero\n        /* \"#utility.yul\":28483:28515   */\n      swap1\n      pop\n        /* \"#utility.yul\":28431:28521   */\n      swap2\n      swap1\n      pop\n      jump\t// out\n        /* \"#utility.yul\":28527:28676   */\n    tag_731:\n        /* \"#utility.yul\":28563:28570   */\n      0x00\n        /* \"#utility.yul\":28603:28669   */\n      0xffffffff00000000000000000000000000000000000000000000000000000000\n        /* \"#utility.yul\":28596:28601   */\n      dup3\n        /* \"#utility.yul\":28592:28670   */\n      and\n        /* \"#utility.yul\":28581:28670   */\n      swap1\n      pop\n        /* \"#utility.yul\":28527:28676   */\n      swap2\n      swap1\n      pop\n      jump\t// out\n        /* \"#utility.yul\":28682:28808   */\n    tag_727:\n        /* \"#utility.yul\":28719:28726   */\n      0x00\n        /* \"#utility.yul\":28759:28801   */\n      0xffffffffffffffffffffffffffffffffffffffff\n        /* \"#utility.yul\":28752:28757   */\n      dup3\n        /* \"#utility.yul\":28748:28802   */\n      and\n        /* \"#utility.yul\":28737:28802   */\n      swap1\n      pop\n        /* \"#utility.yul\":28682:28808   */\n      swap2\n      swap1\n      pop\n      jump\t// out\n        /* \"#utility.yul\":28814:28891   */\n    tag_612:\n        /* \"#utility.yul\":28851:28858   */\n      0x00\n        /* \"#utility.yul\":28880:28885   */\n      dup2\n        /* \"#utility.yul\":28869:28885   */\n      swap1\n      pop\n        /* \"#utility.yul\":28814:28891   */\n      swap2\n      swap1\n      pop\n      jump\t// out\n        /* \"#utility.yul\":28897:29204   */\n    tag_509:\n        /* \"#utility.yul\":28965:28966   */\n      0x00\n        /* \"#utility.yul\":28975:29088   */\n    tag_736:\n        /* \"#utility.yul\":28989:28995   */\n      dup4\n        /* \"#utility.yul\":28986:28987   */\n      dup2\n        /* \"#utility.yul\":28983:28996   */\n      lt\n        /* \"#utility.yul\":28975:29088   */\n      iszero\n      tag_738\n      jumpi\n        /* \"#utility.yul\":29074:29075   */\n      dup1\n        /* \"#utility.yul\":29069:29072   */\n      dup3\n        /* \"#utility.yul\":29065:29076   */\n      add\n        /* \"#utility.yul\":29059:29077   */\n      mload\n        /* \"#utility.yul\":29055:29056   */\n      dup2\n        /* \"#utility.yul\":29050:29053   */\n      dup5\n        /* \"#utility.yul\":29046:29057   */\n      add\n        /* \"#utility.yul\":29039:29078   */\n      mstore\n        /* \"#utility.yul\":29011:29013   */\n      0x20\n        /* \"#utility.yul\":29008:29009   */\n      dup2\n        /* \"#utility.yul\":29004:29014   */\n      add\n        /* \"#utility.yul\":28999:29014   */\n      swap1\n      pop\n        /* \"#utility.yul\":28975:29088   */\n      jump(tag_736)\n    tag_738:\n        /* \"#utility.yul\":29106:29112   */\n      dup4\n        /* \"#utility.yul\":29103:29104   */\n      dup2\n        /* \"#utility.yul\":29100:29113   */\n      gt\n        /* \"#utility.yul\":29097:29198   */\n      iszero\n      tag_739\n      jumpi\n        /* \"#utility.yul\":29186:29187   */\n      0x00\n        /* \"#utility.yul\":29177:29183   */\n      dup5\n        /* \"#utility.yul\":29172:29175   */\n      dup5\n        /* \"#utility.yul\":29168:29184   */\n      add\n        /* \"#utility.yul\":29161:29188   */\n      mstore\n        /* \"#utility.yul\":29097:29198   */\n    tag_739:\n        /* \"#utility.yul\":28946:29204   */\n      pop\n        /* \"#utility.yul\":28897:29204   */\n      pop\n      pop\n      pop\n      jump\t// out\n        /* \"#utility.yul\":29210:29530   */\n    tag_260:\n        /* \"#utility.yul\":29254:29260   */\n      0x00\n        /* \"#utility.yul\":29291:29292   */\n      0x02\n        /* \"#utility.yul\":29285:29289   */\n      dup3\n        /* \"#utility.yul\":29281:29293   */\n      div\n        /* \"#utility.yul\":29271:29293   */\n      swap1\n      pop\n        /* \"#utility.yul\":29338:29339   */\n      0x01\n        /* \"#utility.yul\":29332:29336   */\n      dup3\n        /* \"#utility.yul\":29328:29340   */\n      and\n        /* \"#utility.yul\":29359:29377   */\n      dup1\n        /* \"#utility.yul\":29349:29430   */\n      tag_741\n      jumpi\n        /* \"#utility.yul\":29415:29419   */\n      0x7f\n        /* \"#utility.yul\":29407:29413   */\n      dup3\n        /* \"#utility.yul\":29403:29420   */\n      and\n        /* \"#utility.yul\":29393:29420   */\n      swap2\n      pop\n        /* \"#utility.yul\":29349:29430   */\n    tag_741:\n        /* \"#utility.yul\":29477:29479   */\n      0x20\n        /* \"#utility.yul\":29469:29475   */\n      dup3\n        /* \"#utility.yul\":29466:29480   */\n      lt\n        /* \"#utility.yul\":29446:29464   */\n      dup2\n        /* \"#utility.yul\":29443:29481   */\n      eq\n        /* \"#utility.yul\":29440:29524   */\n      iszero\n      tag_742\n      jumpi\n        /* \"#utility.yul\":29496:29514   */\n      tag_743\n      tag_744\n      jump\t// in\n    tag_743:\n        /* \"#utility.yul\":29440:29524   */\n    tag_742:\n        /* \"#utility.yul\":29261:29530   */\n      pop\n        /* \"#utility.yul\":29210:29530   */\n      swap2\n      swap1\n      pop\n      jump\t// out\n        /* \"#utility.yul\":29536:29817   */\n    tag_745:\n        /* \"#utility.yul\":29619:29646   */\n      tag_747\n        /* \"#utility.yul\":29641:29645   */\n      dup3\n        /* \"#utility.yul\":29619:29646   */\n      tag_511\n      jump\t// in\n    tag_747:\n        /* \"#utility.yul\":29611:29617   */\n      dup2\n        /* \"#utility.yul\":29607:29647   */\n      add\n        /* \"#utility.yul\":29749:29755   */\n      dup2\n        /* \"#utility.yul\":29737:29747   */\n      dup2\n        /* \"#utility.yul\":29734:29756   */\n      lt\n        /* \"#utility.yul\":29713:29731   */\n      0xffffffffffffffff\n        /* \"#utility.yul\":29701:29711   */\n      dup3\n        /* \"#utility.yul\":29698:29732   */\n      gt\n        /* \"#utility.yul\":29695:29757   */\n      or\n        /* \"#utility.yul\":29692:29780   */\n      iszero\n      tag_748\n      jumpi\n        /* \"#utility.yul\":29760:29778   */\n      tag_749\n      tag_158\n      jump\t// in\n    tag_749:\n        /* \"#utility.yul\":29692:29780   */\n    tag_748:\n        /* \"#utility.yul\":29800:29810   */\n      dup1\n        /* \"#utility.yul\":29796:29798   */\n      0x40\n        /* \"#utility.yul\":29789:29811   */\n      mstore\n        /* \"#utility.yul\":29579:29817   */\n      pop\n        /* \"#utility.yul\":29536:29817   */\n      pop\n      pop\n      jump\t// out\n        /* \"#utility.yul\":29823:30056   */\n    tag_174:\n        /* \"#utility.yul\":29862:29865   */\n      0x00\n        /* \"#utility.yul\":29885:29909   */\n      tag_751\n        /* \"#utility.yul\":29903:29908   */\n      dup3\n        /* \"#utility.yul\":29885:29909   */\n      tag_612\n      jump\t// in\n    tag_751:\n        /* \"#utility.yul\":29876:29909   */\n      swap2\n      pop\n        /* \"#utility.yul\":29931:29997   */\n      0xffffffffffffffffffffffffffffffffffffffffffffffffffffffffffffffff\n        /* \"#utility.yul\":29924:29929   */\n      dup3\n        /* \"#utility.yul\":29921:29998   */\n      eq\n        /* \"#utility.yul\":29918:30021   */\n      iszero\n      tag_752\n      jumpi\n        /* \"#utility.yul\":30001:30019   */\n      tag_753\n      tag_708\n      jump\t// in\n    tag_753:\n        /* \"#utility.yul\":29918:30021   */\n    tag_752:\n        /* \"#utility.yul\":30048:30049   */\n      0x01\n        /* \"#utility.yul\":30041:30046   */\n      dup3\n        /* \"#utility.yul\":30037:30050   */\n      add\n        /* \"#utility.yul\":30030:30050   */\n      swap1\n      pop\n        /* \"#utility.yul\":29823:30056   */\n      swap2\n      swap1\n      pop\n      jump\t// out\n        /* \"#utility.yul\":30062:30162   */\n    tag_470:\n        /* \"#utility.yul\":30101:30108   */\n      0x00\n        /* \"#utility.yul\":30130:30156   */\n      tag_755\n        /* \"#utility.yul\":30150:30155   */\n      dup3\n        /* \"#utility.yul\":30130:30156   */\n      tag_756\n      jump\t// in\n    tag_755:\n        /* \"#utility.yul\":30119:30156   */\n      swap1\n      pop\n        /* \"#utility.yul\":30062:30162   */\n      swap2\n      swap1\n      pop\n      jump\t// out\n        /* \"#utility.yul\":30168:30276   */\n    tag_461:\n        /* \"#utility.yul\":30215:30222   */\n      0x00\n        /* \"#utility.yul\":30244:30270   */\n      tag_758\n        /* \"#utility.yul\":30264:30269   */\n      dup3\n        /* \"#utility.yul\":30244:30270   */\n      tag_756\n      jump\t// in\n    tag_758:\n        /* \"#utility.yul\":30233:30270   */\n      swap1\n      pop\n        /* \"#utility.yul\":30168:30276   */\n      swap2\n      swap1\n      pop\n      jump\t// out\n        /* \"#utility.yul\":30282:30376   */\n    tag_756:\n        /* \"#utility.yul\":30321:30328   */\n      0x00\n        /* \"#utility.yul\":30350:30370   */\n      tag_760\n        /* \"#utility.yul\":30364:30369   */\n      dup3\n        /* \"#utility.yul\":30350:30370   */\n      tag_761\n      jump\t// in\n    tag_760:\n        /* \"#utility.yul\":30339:30370   */\n      swap1\n      pop\n        /* \"#utility.yul\":30282:30376   */\n      swap2\n      swap1\n      pop\n      jump\t// out\n        /* \"#utility.yul\":30382:30461   */\n    tag_620:\n        /* \"#utility.yul\":30421:30428   */\n      0x00\n        /* \"#utility.yul\":30450:30455   */\n      dup2\n        /* \"#utility.yul\":30439:30455   */\n      swap1\n      pop\n        /* \"#utility.yul\":30382:30461   */\n      swap2\n      swap1\n      pop\n      jump\t// out\n        /* \"#utility.yul\":30467:30643   */\n    tag_288:\n        /* \"#utility.yul\":30499:30500   */\n      0x00\n        /* \"#utility.yul\":30516:30536   */\n      tag_764\n        /* \"#utility.yul\":30534:30535   */\n      dup3\n        /* \"#utility.yul\":30516:30536   */\n      tag_612\n      jump\t// in\n    tag_764:\n        /* \"#utility.yul\":30511:30536   */\n      swap2\n      pop\n        /* \"#utility.yul\":30550:30570   */\n      tag_765\n        /* \"#utility.yul\":30568:30569   */\n      dup4\n        /* \"#utility.yul\":30550:30570   */\n      tag_612\n      jump\t// in\n    tag_765:\n        /* \"#utility.yul\":30545:30570   */\n      swap3\n      pop\n        /* \"#utility.yul\":30589:30590   */\n      dup3\n        /* \"#utility.yul\":30579:30614   */\n      tag_766\n      jumpi\n        /* \"#utility.yul\":30594:30612   */\n      tag_767\n      tag_714\n      jump\t// in\n    tag_767:\n        /* \"#utility.yul\":30579:30614   */\n    tag_766:\n        /* \"#utility.yul\":30635:30636   */\n      dup3\n        /* \"#utility.yul\":30632:30633   */\n      dup3\n        /* \"#utility.yul\":30628:30637   */\n      mod\n        /* \"#utility.yul\":30623:30637   */\n      swap1\n      pop\n        /* \"#utility.yul\":30467:30643   */\n      swap3\n      swap2\n      pop\n      pop\n      jump\t// out\n        /* \"#utility.yul\":30649:30829   */\n    tag_708:\n        /* \"#utility.yul\":30697:30774   */\n      0x4e487b7100000000000000000000000000000000000000000000000000000000\n        /* \"#utility.yul\":30694:30695   */\n      0x00\n        /* \"#utility.yul\":30687:30775   */\n      mstore\n        /* \"#utility.yul\":30794:30798   */\n      0x11\n        /* \"#utility.yul\":30791:30792   */\n      0x04\n        /* \"#utility.yul\":30784:30799   */\n      mstore\n        /* \"#utility.yul\":30818:30822   */\n      0x24\n        /* \"#utility.yul\":30815:30816   */\n      0x00\n        /* \"#utility.yul\":30808:30823   */\n      revert\n        /* \"#utility.yul\":30835:31015   */\n    tag_714:\n        /* \"#utility.yul\":30883:30960   */\n      0x4e487b7100000000000000000000000000000000000000000000000000000000\n        /* \"#utility.yul\":30880:30881   */\n      0x00\n        /* \"#utility.yul\":30873:30961   */\n      mstore\n        /* \"#utility.yul\":30980:30984   */\n      0x12\n        /* \"#utility.yul\":30977:30978   */\n      0x04\n        /* \"#utility.yul\":30970:30985   */\n      mstore\n        /* \"#utility.yul\":31004:31008   */\n      0x24\n        /* \"#utility.yul\":31001:31002   */\n      0x00\n        /* \"#utility.yul\":30994:31009   */\n      revert\n        /* \"#utility.yul\":31021:31201   */\n    tag_744:\n        /* \"#utility.yul\":31069:31146   */\n      0x4e487b7100000000000000000000000000000000000000000000000000000000\n        /* \"#utility.yul\":31066:31067   */\n      0x00\n        /* \"#utility.yul\":31059:31147   */\n      mstore\n        /* \"#utility.yul\":31166:31170   */\n      0x22\n        /* \"#utility.yul\":31163:31164   */\n      0x04\n        /* \"#utility.yul\":31156:31171   */\n      mstore\n        /* \"#utility.yul\":31190:31194   */\n      0x24\n        /* \"#utility.yul\":31187:31188   */\n      0x00\n        /* \"#utility.yul\":31180:31195   */\n      revert\n        /* \"#utility.yul\":31207:31387   */\n    tag_172:\n        /* \"#utility.yul\":31255:31332   */\n      0x4e487b7100000000000000000000000000000000000000000000000000000000\n        /* \"#utility.yul\":31252:31253   */\n      0x00\n        /* \"#utility.yul\":31245:31333   */\n      mstore\n        /* \"#utility.yul\":31352:31356   */\n      0x32\n        /* \"#utility.yul\":31349:31350   */\n      0x04\n        /* \"#utility.yul\":31342:31357   */\n      mstore\n        /* \"#utility.yul\":31376:31380   */\n      0x24\n        /* \"#utility.yul\":31373:31374   */\n      0x00\n        /* \"#utility.yul\":31366:31381   */\n      revert\n        /* \"#utility.yul\":31393:31573   */\n    tag_158:\n        /* \"#utility.yul\":31441:31518   */\n      0x4e487b7100000000000000000000000000000000000000000000000000000000\n        /* \"#utility.yul\":31438:31439   */\n      0x00\n        /* \"#utility.yul\":31431:31519   */\n      mstore\n        /* \"#utility.yul\":31538:31542   */\n      0x41\n        /* \"#utility.yul\":31535:31536   */\n      0x04\n        /* \"#utility.yul\":31528:31543   */\n      mstore\n        /* \"#utility.yul\":31562:31566   */\n      0x24\n        /* \"#utility.yul\":31559:31560   */\n      0x00\n        /* \"#utility.yul\":31552:31567   */\n      revert\n        /* \"#utility.yul\":31579:31762   */\n    tag_382:\n        /* \"#utility.yul\":31614:31617   */\n      0x00\n        /* \"#utility.yul\":31652:31653   */\n      0x03\n        /* \"#utility.yul\":31634:31650   */\n      returndatasize\n        /* \"#utility.yul\":31631:31654   */\n      gt\n        /* \"#utility.yul\":31628:31756   */\n      iszero\n      tag_774\n      jumpi\n        /* \"#utility.yul\":31690:31691   */\n      0x04\n        /* \"#utility.yul\":31687:31688   */\n      0x00\n        /* \"#utility.yul\":31684:31685   */\n      dup1\n        /* \"#utility.yul\":31669:31692   */\n      returndatacopy\n        /* \"#utility.yul\":31712:31746   */\n      tag_775\n        /* \"#utility.yul\":31743:31744   */\n      0x00\n        /* \"#utility.yul\":31737:31745   */\n      mload\n        /* \"#utility.yul\":31712:31746   */\n      tag_776\n      jump\t// in\n    tag_775:\n        /* \"#utility.yul\":31705:31746   */\n      swap1\n      pop\n        /* \"#utility.yul\":31628:31756   */\n    tag_774:\n        /* \"#utility.yul\":31579:31762   */\n      swap1\n      jump\t// out\n        /* \"#utility.yul\":31891:32008   */\n    tag_425:\n        /* \"#utility.yul\":32000:32001   */\n      0x00\n        /* \"#utility.yul\":31997:31998   */\n      dup1\n        /* \"#utility.yul\":31990:32002   */\n      revert\n        /* \"#utility.yul\":32014:32116   */\n    tag_511:\n        /* \"#utility.yul\":32055:32061   */\n      0x00\n        /* \"#utility.yul\":32106:32108   */\n      0x1f\n        /* \"#utility.yul\":32102:32109   */\n      not\n        /* \"#utility.yul\":32097:32099   */\n      0x1f\n        /* \"#utility.yul\":32090:32095   */\n      dup4\n        /* \"#utility.yul\":32086:32100   */\n      add\n        /* \"#utility.yul\":32082:32110   */\n      and\n        /* \"#utility.yul\":32072:32110   */\n      swap1\n      pop\n        /* \"#utility.yul\":32014:32116   */\n      swap2\n      swap1\n      pop\n      jump\t// out\n        /* \"#utility.yul\":32122:32216   */\n    tag_761:\n        /* \"#utility.yul\":32155:32163   */\n      0x00\n        /* \"#utility.yul\":32203:32208   */\n      dup2\n        /* \"#utility.yul\":32199:32201   */\n      0x60\n        /* \"#utility.yul\":32195:32209   */\n      shl\n        /* \"#utility.yul\":32174:32209   */\n      swap1\n      pop\n        /* \"#utility.yul\":32122:32216   */\n      swap2\n      swap1\n      pop\n      jump\t// out\n        /* \"#utility.yul\":32222:32328   */\n    tag_776:\n        /* \"#utility.yul\":32266:32274   */\n      0x00\n        /* \"#utility.yul\":32315:32320   */\n      dup2\n        /* \"#utility.yul\":32310:32313   */\n      0xe0\n        /* \"#utility.yul\":32306:32321   */\n      shr\n        /* \"#utility.yul\":32285:32321   */\n      swap1\n      pop\n        /* \"#utility.yul\":32222:32328   */\n      swap2\n      swap1\n      pop\n      jump\t// out\n        /* \"#utility.yul\":32334:32573   */\n    tag_529:\n        /* \"#utility.yul\":32474:32508   */\n      0x455243313135353a207472616e7366657220746f206e6f6e2045524331313535\n        /* \"#utility.yul\":32470:32471   */\n      0x00\n        /* \"#utility.yul\":32462:32468   */\n      dup3\n        /* \"#utility.yul\":32458:32472   */\n      add\n        /* \"#utility.yul\":32451:32509   */\n      mstore\n        /* \"#utility.yul\":32543:32565   */\n      0x526563656976657220696d706c656d656e746572000000000000000000000000\n        /* \"#utility.yul\":32538:32540   */\n      0x20\n        /* \"#utility.yul\":32530:32536   */\n      dup3\n        /* \"#utility.yul\":32526:32541   */\n      add\n        /* \"#utility.yul\":32519:32566   */\n      mstore\n        /* \"#utility.yul\":32334:32573   */\n      pop\n      jump\t// out\n        /* \"#utility.yul\":32579:32806   */\n    tag_534:\n        /* \"#utility.yul\":32719:32753   */\n      0x455243313135353a204552433131353552656365697665722072656a65637465\n        /* \"#utility.yul\":32715:32716   */\n      0x00\n        /* \"#utility.yul\":32707:32713   */\n      dup3\n        /* \"#utility.yul\":32703:32717   */\n      add\n        /* \"#utility.yul\":32696:32754   */\n      mstore\n        /* \"#utility.yul\":32788:32798   */\n      0x6420746f6b656e73000000000000000000000000000000000000000000000000\n        /* \"#utility.yul\":32783:32785   */\n      0x20\n        /* \"#utility.yul\":32775:32781   */\n      dup3\n        /* \"#utility.yul\":32771:32786   */\n      add\n        /* \"#utility.yul\":32764:32799   */\n      mstore\n        /* \"#utility.yul\":32579:32806   */\n      pop\n      jump\t// out\n        /* \"#utility.yul\":32812:32987   */\n    tag_539:\n        /* \"#utility.yul\":32952:32979   */\n      0x4572726f7221204e6f7420456e6f7567682042616c616e636500000000000000\n        /* \"#utility.yul\":32948:32949   */\n      0x00\n        /* \"#utility.yul\":32940:32946   */\n      dup3\n        /* \"#utility.yul\":32936:32950   */\n      add\n        /* \"#utility.yul\":32929:32980   */\n      mstore\n        /* \"#utility.yul\":32812:32987   */\n      pop\n      jump\t// out\n        /* \"#utility.yul\":32993:33151   */\n    tag_544:\n        /* \"#utility.yul\":33133:33143   */\n      0x4469616d6f6e645f000000000000000000000000000000000000000000000000\n        /* \"#utility.yul\":33129:33130   */\n      0x00\n        /* \"#utility.yul\":33121:33127   */\n      dup3\n        /* \"#utility.yul\":33117:33131   */\n      add\n        /* \"#utility.yul\":33110:33144   */\n      mstore\n        /* \"#utility.yul\":32993:33151   */\n      pop\n      jump\t// out\n        /* \"#utility.yul\":33157:33323   */\n    tag_549:\n        /* \"#utility.yul\":33297:33315   */\n      0x4d696e7420466565204e6f742053657400000000000000000000000000000000\n        /* \"#utility.yul\":33293:33294   */\n      0x00\n        /* \"#utility.yul\":33285:33291   */\n      dup3\n        /* \"#utility.yul\":33281:33295   */\n      add\n        /* \"#utility.yul\":33274:33316   */\n      mstore\n        /* \"#utility.yul\":33157:33323   */\n      pop\n      jump\t// out\n        /* \"#utility.yul\":33329:33484   */\n    tag_554:\n        /* \"#utility.yul\":33469:33476   */\n      0x476f6c645f000000000000000000000000000000000000000000000000000000\n        /* \"#utility.yul\":33465:33466   */\n      0x00\n        /* \"#utility.yul\":33457:33463   */\n      dup3\n        /* \"#utility.yul\":33453:33467   */\n      add\n        /* \"#utility.yul\":33446:33477   */\n      mstore\n        /* \"#utility.yul\":33329:33484   */\n      pop\n      jump\t// out\n        /* \"#utility.yul\":33490:33658   */\n    tag_559:\n        /* \"#utility.yul\":33630:33650   */\n      0x4e6f7420456e6f7567682042616c616e63650000000000000000000000000000\n        /* \"#utility.yul\":33626:33627   */\n      0x00\n        /* \"#utility.yul\":33618:33624   */\n      dup3\n        /* \"#utility.yul\":33614:33628   */\n      add\n        /* \"#utility.yul\":33607:33651   */\n      mstore\n        /* \"#utility.yul\":33490:33658   */\n      pop\n      jump\t// out\n        /* \"#utility.yul\":33664:33841   */\n    tag_564:\n        /* \"#utility.yul\":33804:33833   */\n      0x44726f707369746520697320616c72656164792052756e6e696e670000000000\n        /* \"#utility.yul\":33800:33801   */\n      0x00\n        /* \"#utility.yul\":33792:33798   */\n      dup3\n        /* \"#utility.yul\":33788:33802   */\n      add\n        /* \"#utility.yul\":33781:33834   */\n      mstore\n        /* \"#utility.yul\":33664:33841   */\n      pop\n      jump\t// out\n        /* \"#utility.yul\":33847:34024   */\n    tag_569:\n        /* \"#utility.yul\":33987:34016   */\n      0x44726f707369746520697320616c72656164792053746f707065640000000000\n        /* \"#utility.yul\":33983:33984   */\n      0x00\n        /* \"#utility.yul\":33975:33981   */\n      dup3\n        /* \"#utility.yul\":33971:33985   */\n      add\n        /* \"#utility.yul\":33964:34017   */\n      mstore\n        /* \"#utility.yul\":33847:34024   */\n      pop\n      jump\t// out\n        /* \"#utility.yul\":34030:34201   */\n    tag_574:\n        /* \"#utility.yul\":34170:34193   */\n      0x596f752063616e206d696e7420312d33204e4654730000000000000000000000\n        /* \"#utility.yul\":34166:34167   */\n      0x00\n        /* \"#utility.yul\":34158:34164   */\n      dup3\n        /* \"#utility.yul\":34154:34168   */\n      add\n        /* \"#utility.yul\":34147:34194   */\n      mstore\n        /* \"#utility.yul\":34030:34201   */\n      pop\n      jump\t// out\n        /* \"#utility.yul\":34207:34385   */\n    tag_579:\n        /* \"#utility.yul\":34347:34377   */\n      0x4f6e6c79204e46542d4553204f776e65722063616e2041636365737300000000\n        /* \"#utility.yul\":34343:34344   */\n      0x00\n        /* \"#utility.yul\":34335:34341   */\n      dup3\n        /* \"#utility.yul\":34331:34345   */\n      add\n        /* \"#utility.yul\":34324:34378   */\n      mstore\n        /* \"#utility.yul\":34207:34385   */\n      pop\n      jump\t// out\n        /* \"#utility.yul\":34391:34572   */\n    tag_584:\n        /* \"#utility.yul\":34531:34564   */\n      0x4f776e65722053686f756c6420736574206d696e742046656520466972737400\n        /* \"#utility.yul\":34527:34528   */\n      0x00\n        /* \"#utility.yul\":34519:34525   */\n      dup3\n        /* \"#utility.yul\":34515:34529   */\n      add\n        /* \"#utility.yul\":34508:34565   */\n      mstore\n        /* \"#utility.yul\":34391:34572   */\n      pop\n      jump\t// out\n        /* \"#utility.yul\":34578:34755   */\n    tag_589:\n        /* \"#utility.yul\":34718:34747   */\n      0x44726f7073697465206973206e6f74204f70656e6564205965742e0000000000\n        /* \"#utility.yul\":34714:34715   */\n      0x00\n        /* \"#utility.yul\":34706:34712   */\n      dup3\n        /* \"#utility.yul\":34702:34716   */\n      add\n        /* \"#utility.yul\":34695:34748   */\n      mstore\n        /* \"#utility.yul\":34578:34755   */\n      pop\n      jump\t// out\n        /* \"#utility.yul\":34761:34936   */\n    tag_594:\n        /* \"#utility.yul\":34901:34928   */\n      0x4d6178204d696e74696e67204c696d6974207265616368656400000000000000\n        /* \"#utility.yul\":34897:34898   */\n      0x00\n        /* \"#utility.yul\":34889:34895   */\n      dup3\n        /* \"#utility.yul\":34885:34899   */\n      add\n        /* \"#utility.yul\":34878:34929   */\n      mstore\n        /* \"#utility.yul\":34761:34936   */\n      pop\n      jump\t// out\n        /* \"#utility.yul\":34942:35093   */\n    tag_599:\n        /* \"#utility.yul\":35082:35085   */\n      0x5f00000000000000000000000000000000000000000000000000000000000000\n        /* \"#utility.yul\":35078:35079   */\n      0x00\n        /* \"#utility.yul\":35070:35076   */\n      dup3\n        /* \"#utility.yul\":35066:35080   */\n      add\n        /* \"#utility.yul\":35059:35086   */\n      mstore\n        /* \"#utility.yul\":34942:35093   */\n      pop\n      jump\t// out\n        /* \"#utility.yul\":35099:35256   */\n    tag_604:\n        /* \"#utility.yul\":35239:35248   */\n      0x53696c7665725f00000000000000000000000000000000000000000000000000\n        /* \"#utility.yul\":35235:35236   */\n      0x00\n        /* \"#utility.yul\":35227:35233   */\n      dup3\n        /* \"#utility.yul\":35223:35237   */\n      add\n        /* \"#utility.yul\":35216:35249   */\n      mstore\n        /* \"#utility.yul\":35099:35256   */\n      pop\n      jump\t// out\n        /* \"#utility.yul\":35262:35482   */\n    tag_609:\n        /* \"#utility.yul\":35402:35436   */\n      0x455243313135353a206d696e7420746f20746865207a65726f20616464726573\n        /* \"#utility.yul\":35398:35399   */\n      0x00\n        /* \"#utility.yul\":35390:35396   */\n      dup3\n        /* \"#utility.yul\":35386:35400   */\n      add\n        /* \"#utility.yul\":35379:35437   */\n      mstore\n        /* \"#utility.yul\":35471:35474   */\n      0x7300000000000000000000000000000000000000000000000000000000000000\n        /* \"#utility.yul\":35466:35468   */\n      0x20\n        /* \"#utility.yul\":35458:35464   */\n      dup3\n        /* \"#utility.yul\":35454:35469   */\n      add\n        /* \"#utility.yul\":35447:35475   */\n      mstore\n        /* \"#utility.yul\":35262:35482   */\n      pop\n      jump\t// out\n        /* \"#utility.yul\":35488:36199   */\n    tag_384:\n        /* \"#utility.yul\":35527:35530   */\n      0x00\n        /* \"#utility.yul\":35565:35569   */\n      0x44\n        /* \"#utility.yul\":35547:35563   */\n      returndatasize\n        /* \"#utility.yul\":35544:35570   */\n      lt\n        /* \"#utility.yul\":35541:35580   */\n      iszero\n      tag_801\n      jumpi\n        /* \"#utility.yul\":35573:35578   */\n      jump(tag_800)\n        /* \"#utility.yul\":35541:35580   */\n    tag_801:\n        /* \"#utility.yul\":35602:35622   */\n      tag_802\n      tag_689\n      jump\t// in\n    tag_802:\n        /* \"#utility.yul\":35677:35678   */\n      0x04\n        /* \"#utility.yul\":35659:35675   */\n      returndatasize\n        /* \"#utility.yul\":35655:35679   */\n      sub\n        /* \"#utility.yul\":35652:35653   */\n      0x04\n        /* \"#utility.yul\":35646:35650   */\n      dup3\n        /* \"#utility.yul\":35631:35680   */\n      returndatacopy\n        /* \"#utility.yul\":35710:35714   */\n      dup1\n        /* \"#utility.yul\":35704:35715   */\n      mload\n        /* \"#utility.yul\":35809:35825   */\n      returndatasize\n        /* \"#utility.yul\":35802:35806   */\n      0x24\n        /* \"#utility.yul\":35794:35800   */\n      dup3\n        /* \"#utility.yul\":35790:35807   */\n      add\n        /* \"#utility.yul\":35787:35826   */\n      gt\n        /* \"#utility.yul\":35754:35772   */\n      0xffffffffffffffff\n        /* \"#utility.yul\":35746:35752   */\n      dup3\n        /* \"#utility.yul\":35743:35773   */\n      gt\n        /* \"#utility.yul\":35727:35840   */\n      or\n        /* \"#utility.yul\":35724:35870   */\n      iszero\n      tag_803\n      jumpi\n        /* \"#utility.yul\":35855:35860   */\n      pop\n      pop\n      jump(tag_800)\n        /* \"#utility.yul\":35724:35870   */\n    tag_803:\n        /* \"#utility.yul\":35901:35907   */\n      dup1\n        /* \"#utility.yul\":35895:35899   */\n      dup3\n        /* \"#utility.yul\":35891:35908   */\n      add\n        /* \"#utility.yul\":35937:35940   */\n      dup1\n        /* \"#utility.yul\":35931:35941   */\n      mload\n        /* \"#utility.yul\":35964:35982   */\n      0xffffffffffffffff\n        /* \"#utility.yul\":35956:35962   */\n      dup2\n        /* \"#utility.yul\":35953:35983   */\n      gt\n        /* \"#utility.yul\":35950:35993   */\n      iszero\n      tag_804\n      jumpi\n        /* \"#utility.yul\":35986:35991   */\n      pop\n      pop\n      pop\n      pop\n      jump(tag_800)\n        /* \"#utility.yul\":35950:35993   */\n    tag_804:\n        /* \"#utility.yul\":36034:36040   */\n      dup1\n        /* \"#utility.yul\":36027:36031   */\n      0x20\n        /* \"#utility.yul\":36022:36025   */\n      dup4\n        /* \"#utility.yul\":36018:36032   */\n      add\n        /* \"#utility.yul\":36014:36041   */\n      add\n        /* \"#utility.yul\":36093:36094   */\n      0x04\n        /* \"#utility.yul\":36075:36091   */\n      returndatasize\n        /* \"#utility.yul\":36071:36095   */\n      sub\n        /* \"#utility.yul\":36065:36069   */\n      dup6\n        /* \"#utility.yul\":36061:36096   */\n      add\n        /* \"#utility.yul\":36056:36059   */\n      dup2\n        /* \"#utility.yul\":36053:36097   */\n      gt\n        /* \"#utility.yul\":36050:36107   */\n      iszero\n      tag_805\n      jumpi\n        /* \"#utility.yul\":36100:36105   */\n      pop\n      pop\n      pop\n      pop\n      pop\n      jump(tag_800)\n        /* \"#utility.yul\":36050:36107   */\n    tag_805:\n        /* \"#utility.yul\":36117:36174   */\n      tag_806\n        /* \"#utility.yul\":36165:36171   */\n      dup3\n        /* \"#utility.yul\":36159:36163   */\n      0x20\n        /* \"#utility.yul\":36155:36172   */\n      add\n        /* \"#utility.yul\":36147:36153   */\n      dup6\n        /* \"#utility.yul\":36143:36173   */\n      add\n        /* \"#utility.yul\":36137:36141   */\n      dup7\n        /* \"#utility.yul\":36117:36174   */\n      tag_745\n      jump\t// in\n    tag_806:\n        /* \"#utility.yul\":36190:36193   */\n      dup3\n        /* \"#utility.yul\":36183:36193   */\n      swap6\n      pop\n        /* \"#utility.yul\":35531:36199   */\n      pop\n      pop\n      pop\n      pop\n      pop\n        /* \"#utility.yul\":35488:36199   */\n    tag_800:\n      swap1\n      jump\t// out\n        /* \"#utility.yul\":36205:36327   */\n    tag_409:\n        /* \"#utility.yul\":36278:36302   */\n      tag_808\n        /* \"#utility.yul\":36296:36301   */\n      dup2\n        /* \"#utility.yul\":36278:36302   */\n      tag_465\n      jump\t// in\n    tag_808:\n        /* \"#utility.yul\":36271:36276   */\n      dup2\n        /* \"#utility.yul\":36268:36303   */\n      eq\n        /* \"#utility.yul\":36258:36321   */\n      tag_809\n      jumpi\n        /* \"#utility.yul\":36317:36318   */\n      0x00\n        /* \"#utility.yul\":36314:36315   */\n      dup1\n        /* \"#utility.yul\":36307:36319   */\n      revert\n        /* \"#utility.yul\":36258:36321   */\n    tag_809:\n        /* \"#utility.yul\":36205:36327   */\n      pop\n      jump\t// out\n        /* \"#utility.yul\":36333:36471   */\n    tag_413:\n        /* \"#utility.yul\":36414:36446   */\n      tag_811\n        /* \"#utility.yul\":36440:36445   */\n      dup2\n        /* \"#utility.yul\":36414:36446   */\n      tag_456\n      jump\t// in\n    tag_811:\n        /* \"#utility.yul\":36407:36412   */\n      dup2\n        /* \"#utility.yul\":36404:36447   */\n      eq\n        /* \"#utility.yul\":36394:36465   */\n      tag_812\n      jumpi\n        /* \"#utility.yul\":36461:36462   */\n      0x00\n        /* \"#utility.yul\":36458:36459   */\n      dup1\n        /* \"#utility.yul\":36451:36463   */\n      revert\n        /* \"#utility.yul\":36394:36465   */\n    tag_812:\n        /* \"#utility.yul\":36333:36471   */\n      pop\n      jump\t// out\n        /* \"#utility.yul\":36477:36597   */\n    tag_417:\n        /* \"#utility.yul\":36549:36572   */\n      tag_814\n        /* \"#utility.yul\":36566:36571   */\n      dup2\n        /* \"#utility.yul\":36549:36572   */\n      tag_731\n      jump\t// in\n    tag_814:\n        /* \"#utility.yul\":36542:36547   */\n      dup2\n        /* \"#utility.yul\":36539:36573   */\n      eq\n        /* \"#utility.yul\":36529:36591   */\n      tag_815\n      jumpi\n        /* \"#utility.yul\":36587:36588   */\n      0x00\n        /* \"#utility.yul\":36584:36585   */\n      dup1\n        /* \"#utility.yul\":36577:36589   */\n      revert\n        /* \"#utility.yul\":36529:36591   */\n    tag_815:\n        /* \"#utility.yul\":36477:36597   */\n      pop\n      jump\t// out\n        /* \"#utility.yul\":36603:36725   */\n    tag_421:\n        /* \"#utility.yul\":36676:36700   */\n      tag_817\n        /* \"#utility.yul\":36694:36699   */\n      dup2\n        /* \"#utility.yul\":36676:36700   */\n      tag_612\n      jump\t// in\n    tag_817:\n        /* \"#utility.yul\":36669:36674   */\n      dup2\n        /* \"#utility.yul\":36666:36701   */\n      eq\n        /* \"#utility.yul\":36656:36719   */\n      tag_818\n      jumpi\n        /* \"#utility.yul\":36715:36716   */\n      0x00\n        /* \"#utility.yul\":36712:36713   */\n      dup1\n        /* \"#utility.yul\":36705:36717   */\n      revert\n        /* \"#utility.yul\":36656:36719   */\n    tag_818:\n        /* \"#utility.yul\":36603:36725   */\n      pop\n      jump\t// out\n\n    auxdata: 0xa26469706673582212203b3d319938849050f9dc4d05e71360fb6bc671b5b96c15e019a8eb21c042c4f464736f6c63430008070033\n}\n",
				"bytecode": {
					"linkReferences": {},
					"object": "608060405260405180602001604052806000815250600290805190602001906200002b92919062000113565b5060326009556064600a55610352600b556001600e60006101000a81548160ff0219169083151502179055503480156200006457600080fd5b50604051620035c6380380620035c683398181016040528101906200008a919062000241565b80600f9080519060200190620000a292919062000113565b5033600e60016101000a81548173ffffffffffffffffffffffffffffffffffffffff021916908373ffffffffffffffffffffffffffffffffffffffff160217905550600060038190555060016004819055506000600681905550600060078190555060006008819055505062000416565b828054620001219062000327565b90600052602060002090601f01602090048101928262000145576000855562000191565b82601f106200016057805160ff191683800117855562000191565b8280016001018555821562000191579182015b828111156200019057825182559160200191906001019062000173565b5b509050620001a09190620001a4565b5090565b5b80821115620001bf576000816000905550600101620001a5565b5090565b6000620001da620001d484620002bb565b62000292565b905082815260208101848484011115620001f957620001f8620003f6565b5b62000206848285620002f1565b509392505050565b600082601f830112620002265762000225620003f1565b5b815162000238848260208601620001c3565b91505092915050565b6000602082840312156200025a576200025962000400565b5b600082015167ffffffffffffffff8111156200027b576200027a620003fb565b5b62000289848285016200020e565b91505092915050565b60006200029e620002b1565b9050620002ac82826200035d565b919050565b6000604051905090565b600067ffffffffffffffff821115620002d957620002d8620003c2565b5b620002e48262000405565b9050602081019050919050565b60005b8381101562000311578082015181840152602081019050620002f4565b8381111562000321576000848401525b50505050565b600060028204905060018216806200034057607f821691505b6020821081141562000357576200035662000393565b5b50919050565b620003688262000405565b810181811067ffffffffffffffff821117156200038a5762000389620003c2565b5b80604052505050565b7f4e487b7100000000000000000000000000000000000000000000000000000000600052602260045260246000fd5b7f4e487b7100000000000000000000000000000000000000000000000000000000600052604160045260246000fd5b600080fd5b600080fd5b600080fd5b600080fd5b6000601f19601f8301169050919050565b6131a080620004266000396000f3fe6080604052600436106101095760003560e01c80638b7afe2e11610095578063b187bd2611610064578063b187bd261461033c578063b4a99a4e14610367578063b6db75a014610392578063b84c185e146103bd578063eddd0d9c146103e857610109565b80638b7afe2e146102a6578063a56538e0146102d1578063a6f9dae1146102fc578063aa90c7261461032557610109565b8063225011da116100dc578063225011da146101a45780635b27d84e146101e15780635e1f05561461021157806360daa8511461024e5780637a5caab31461027b57610109565b80630390c11c1461010e578063154602591461013957806317b612e614610150578063191e2e831461017b575b600080fd5b34801561011a57600080fd5b50610123610411565b60405161013091906127f6565b60405180910390f35b34801561014557600080fd5b5061014e61041b565b005b34801561015c57600080fd5b50610165610525565b60405161017291906127f6565b60405180910390f35b34801561018757600080fd5b506101a2600480360381019061019d9190611f2f565b61052a565b005b3480156101b057600080fd5b506101cb60048036038101906101c69190611f02565b610654565b6040516101d891906125f7565b60405180910390f35b6101fb60048036038101906101f69190611f6f565b610744565b60405161020891906125d5565b60405180910390f35b34801561021d57600080fd5b5061023860048036038101906102339190611f6f565b610a44565b60405161024591906125d5565b60405180910390f35b34801561025a57600080fd5b50610263610d7d565b6040516102729392919061283a565b60405180910390f35b34801561028757600080fd5b50610290610e83565b60405161029d91906127f6565b60405180910390f35b3480156102b257600080fd5b506102bb610e8d565b6040516102c891906127f6565b60405180910390f35b3480156102dd57600080fd5b506102e6610f2c565b6040516102f391906127f6565b60405180910390f35b34801561030857600080fd5b50610323600480360381019061031e9190611f02565b610f31565b005b34801561033157600080fd5b5061033a611062565b005b34801561034857600080fd5b5061035161116c565b60405161035e9190612619565b60405180910390f35b34801561037357600080fd5b5061037c61117f565b6040516103899190612560565b60405180910390f35b34801561039e57600080fd5b506103a76111a5565b6040516103b49190612619565b60405180910390f35b3480156103c957600080fd5b506103d261120e565b6040516103df91906127f6565b60405180910390f35b3480156103f457600080fd5b5061040f600480360381019061040a9190611fdc565b611213565b005b6000600354905090565b600e60019054906101000a900473ffffffffffffffffffffffffffffffffffffffff1673ffffffffffffffffffffffffffffffffffffffff1661045c6112b4565b73ffffffffffffffffffffffffffffffffffffffff16146104b2576040517f08c379a00000000000000000000000000000000000000000000000000000000081526004016104a990612756565b60405180910390fd5b60011515600e60009054906101000a900460ff16151514610508576040517f08c379a00000000000000000000000000000000000000000000000000000000081526004016104ff906126f6565b60405180910390fd5b6000600e60006101000a81548160ff021916908315150217905550565b600181565b600e60019054906101000a900473ffffffffffffffffffffffffffffffffffffffff1673ffffffffffffffffffffffffffffffffffffffff1661056b6112b4565b73ffffffffffffffffffffffffffffffffffffffff16146105c1576040517f08c379a00000000000000000000000000000000000000000000000000000000081526004016105b890612756565b60405180910390fd5b6000479050808210610608576040517f08c379a00000000000000000000000000000000000000000000000000000000081526004016105ff90612696565b60405180910390fd5b8273ffffffffffffffffffffffffffffffffffffffff166108fc839081150290604051600060405180830381858888f1935050505015801561064e573d6000803e3d6000fd5b50505050565b606060001515600e60009054906101000a900460ff161515146106ac576040517f08c379a00000000000000000000000000000000000000000000000000000000081526004016106a390612796565b60405180910390fd5b600c60008373ffffffffffffffffffffffffffffffffffffffff1673ffffffffffffffffffffffffffffffffffffffff16815260200190815260200160002060000180548060200260200160405190810160405280929190818152602001828054801561073857602002820191906000526020600020905b815481526020019060010190808311610724575b50505050509050919050565b606060001515600e60009054906101000a900460ff1615151461079c576040517f08c379a000000000000000000000000000000000000000000000000000000000815260040161079390612796565b60405180910390fd5b600060055414156107e2576040517f08c379a00000000000000000000000000000000000000000000000000000000081526004016107d990612776565b60405180910390fd5b6004821080156107f25750600082115b610831576040517f08c379a000000000000000000000000000000000000000000000000000000000815260040161082890612736565b60405180910390fd5b6103e860035410610877576040517f08c379a000000000000000000000000000000000000000000000000000000000815260040161086e906127b6565b60405180910390fd5b600060055414156108bd576040517f08c379a00000000000000000000000000000000000000000000000000000000081526004016108b4906126b6565b60405180910390fd5b816005546108cb91906129ac565b341461090c576040517f08c379a0000000000000000000000000000000000000000000000000000000008152600401610903906126d6565b60405180910390fd5b600060606000600367ffffffffffffffff81111561092d5761092c612ccc565b5b60405190808252806020026020018201604052801561096057816020015b606081526020019060019003908161094b5790505b50905060005b858110156109d857610977876112bc565b8094508195505050610988846114e2565b8360405160200161099a92919061248e565b6040516020818303038152906040528282815181106109bc576109bb612c9d565b5b6020026020010181905250806109d190612b56565b9050610966565b506109ea6109e46112b4565b34611643565b8573ffffffffffffffffffffffffffffffffffffffff167fb4a5369904dcc0d74d8fb8bbcdeb51f356f20c722499d42a6da95324e634c14182604051610a3091906125d5565b60405180910390a280935050505092915050565b6060600e60019054906101000a900473ffffffffffffffffffffffffffffffffffffffff1673ffffffffffffffffffffffffffffffffffffffff16610a876112b4565b73ffffffffffffffffffffffffffffffffffffffff1614610add576040517f08c379a0000000000000000000000000000000000000000000000000000000008152600401610ad490612756565b60405180910390fd5b60001515600e60009054906101000a900460ff16151514610b33576040517f08c379a0000000000000000000000000000000000000000000000000000000008152600401610b2a90612796565b60405180910390fd5b60006005541415610b79576040517f08c379a0000000000000000000000000000000000000000000000000000000008152600401610b7090612776565b60405180910390fd5b600482108015610b895750600082115b610bc8576040517f08c379a0000000000000000000000000000000000000000000000000000000008152600401610bbf90612736565b60405180910390fd5b6103e860035410610c0e576040517f08c379a0000000000000000000000000000000000000000000000000000000008152600401610c05906127b6565b60405180910390fd5b60006005541415610c54576040517f08c379a0000000000000000000000000000000000000000000000000000000008152600401610c4b906126b6565b60405180910390fd5b600060606000600367ffffffffffffffff811115610c7557610c74612ccc565b5b604051908082528060200260200182016040528015610ca857816020015b6060815260200190600190039081610c935790505b50905060005b85811015610d2257610cbf876112bc565b8094508195505050610cd0846114e2565b83604051602001610ce292919061248e565b604051602081830303815290604052828281518110610d0457610d03612c9d565b5b60200260200101819052508080610d1a90612b56565b915050610cae565b508573ffffffffffffffffffffffffffffffffffffffff167fb4a5369904dcc0d74d8fb8bbcdeb51f356f20c722499d42a6da95324e634c14182604051610d6991906125d5565b60405180910390a280935050505092915050565b6000806000600e60019054906101000a900473ffffffffffffffffffffffffffffffffffffffff1673ffffffffffffffffffffffffffffffffffffffff16610dc36112b4565b73ffffffffffffffffffffffffffffffffffffffff1614610e19576040517f08c379a0000000000000000000000000000000000000000000000000000000008152600401610e1090612756565b60405180910390fd5b60001515600e60009054906101000a900460ff16151514610e6f576040517f08c379a0000000000000000000000000000000000000000000000000000000008152600401610e6690612796565b60405180910390fd5b600654600754600854925092509250909192565b6000600554905090565b6000600e60019054906101000a900473ffffffffffffffffffffffffffffffffffffffff1673ffffffffffffffffffffffffffffffffffffffff16610ed06112b4565b73ffffffffffffffffffffffffffffffffffffffff1614610f26576040517f08c379a0000000000000000000000000000000000000000000000000000000008152600401610f1d90612756565b60405180910390fd5b47905090565b600281565b600e60019054906101000a900473ffffffffffffffffffffffffffffffffffffffff1673ffffffffffffffffffffffffffffffffffffffff16610f726112b4565b73ffffffffffffffffffffffffffffffffffffffff1614610fc8576040517f08c379a0000000000000000000000000000000000000000000000000000000008152600401610fbf90612756565b60405180910390fd5b60001515600e60009054906101000a900460ff1615151461101e576040517f08c379a000000000000000000000000000000000000000000000000000000000815260040161101590612796565b60405180910390fd5b80600e60016101000a81548173ffffffffffffffffffffffffffffffffffffffff021916908373ffffffffffffffffffffffffffffffffffffffff16021790555050565b600e60019054906101000a900473ffffffffffffffffffffffffffffffffffffffff1673ffffffffffffffffffffffffffffffffffffffff166110a36112b4565b73ffffffffffffffffffffffffffffffffffffffff16146110f9576040517f08c379a00000000000000000000000000000000000000000000000000000000081526004016110f090612756565b60405180910390fd5b60001515600e60009054906101000a900460ff1615151461114f576040517f08c379a000000000000000000000000000000000000000000000000000000000815260040161114690612716565b60405180910390fd5b6001600e60006101000a81548160ff021916908315150217905550565b600e60009054906101000a900460ff1681565b600e60019054906101000a900473ffffffffffffffffffffffffffffffffffffffff1681565b6000600e60019054906101000a900473ffffffffffffffffffffffffffffffffffffffff1673ffffffffffffffffffffffffffffffffffffffff163373ffffffffffffffffffffffffffffffffffffffff161415611206576001905061120b565b600090505b90565b600081565b600e60019054906101000a900473ffffffffffffffffffffffffffffffffffffffff1673ffffffffffffffffffffffffffffffffffffffff166112546112b4565b73ffffffffffffffffffffffffffffffffffffffff16146112aa576040517f08c379a00000000000000000000000000000000000000000000000000000000081526004016112a190612756565b60405180910390fd5b8060058190555050565b600033905090565b6000606060001515600e60009054906101000a900460ff16151514611316576040517f08c379a000000000000000000000000000000000000000000000000000000000815260040161130d90612796565b60405180910390fd5b600061132061169d565b9050600061132d8261172d565b90506113c785826004546002805461134490612af3565b80601f016020809104026020016040519081016040528092919081815260200182805461137090612af3565b80156113bd5780601f10611392576101008083540402835291602001916113bd565b820191906000526020600020905b8154815290600101906020018083116113a057829003601f168201915b50505050506119f9565b600360008154809291906113da90612b56565b9190505550600c60008673ffffffffffffffffffffffffffffffffffffffff1673ffffffffffffffffffffffffffffffffffffffff16815260200190815260200160002060000181908060018154018082558091505060019003906000526020600020016000909190919091505580600280805461145790612af3565b80601f016020809104026020016040519081016040528092919081815260200182805461148390612af3565b80156114d05780601f106114a5576101008083540402835291602001916114d0565b820191906000526020600020905b8154815290600101906020018083116114b357829003601f168201915b50505050509050935093505050915091565b6060600082141561152a576040518060400160405280600181526020017f3000000000000000000000000000000000000000000000000000000000000000815250905061163e565b600082905060005b6000821461155c57808061154590612b56565b915050600a82611555919061297b565b9150611532565b60008167ffffffffffffffff81111561157857611577612ccc565b5b6040519080825280601f01601f1916602001820160405280156115aa5781602001600182028036833780820191505090505b5090505b60008514611637576001826115c39190612a06565b9150600a856115d29190612bdf565b60306115de9190612925565b60f81b8183815181106115f4576115f3612c9d565b5b60200101907effffffffffffffffffffffffffffffffffffffffffffffffffffffffffffff1916908160001a905350600a85611630919061297b565b94506115ae565b8093505050505b919050565b80600d60008473ffffffffffffffffffffffffffffffffffffffff1673ffffffffffffffffffffffffffffffffffffffff16815260200190815260200160002060008282546116929190612925565b925050819055505050565b600080600654600754600854600354426116b79190612925565b6116c19190612925565b6116cb9190612925565b6116d59190612925565b33600e60019054906101000a900473ffffffffffffffffffffffffffffffffffffffff1660405160200161170b93929190612523565b6040516020818303038152906040528051906020012060001c90508091505090565b6000801515600e60009054906101000a900460ff16151514611784576040517f08c379a000000000000000000000000000000000000000000000000000000000815260040161177b90612796565b60405180910390fd5b600060016014846117959190612bdf565b1480156117a55750600954600654105b1561180f57600660008154809291906117bd90612b56565b91905055506117cd6006546114e2565b6040516020016117dd91906124bd565b60405160208183030381529060405260029080519060200190611801929190611e0b565b5060009050809150506119f4565b600360148461181e9190612bdf565b1115801561182f5750600a54600754105b15611899576007600081548092919061184790612b56565b91905055506118576007546114e2565b60405160200161186791906124df565b6040516020818303038152906040526002908051906020019061188b929190611e0b565b5060019050809150506119f4565b60036014846118a89190612bdf565b1180156118b85750600b54600854105b1561192257600860008154809291906118d090612b56565b91905055506118e06008546114e2565b6040516020016118f09190612501565b60405160208183030381529060405260029080519060200190611914929190611e0b565b5060029050809150506119f4565b600a54600754101561199357600190506007600081548092919061194590612b56565b91905055506119556007546114e2565b60405160200161196591906124df565b60405160208183030381529060405260029080519060200190611989929190611e0b565b50809150506119f4565b60009050600660008154809291906119aa90612b56565b91905055506119ba6006546114e2565b6040516020016119ca91906124bd565b604051602081830303815290604052600290805190602001906119ee929190611e0b565b50809150505b919050565b600073ffffffffffffffffffffffffffffffffffffffff168473ffffffffffffffffffffffffffffffffffffffff161415611a69576040517f08c379a0000000000000000000000000000000000000000000000000000000008152600401611a60906127d6565b60405180910390fd5b6000611a736112b4565b9050611a9481600087611a8588611b8f565b611a8e88611b8f565b87611c09565b8260008086815260200190815260200160002060008773ffffffffffffffffffffffffffffffffffffffff1673ffffffffffffffffffffffffffffffffffffffff1681526020019081526020016000206000828254611af39190612925565b925050819055508473ffffffffffffffffffffffffffffffffffffffff16600073ffffffffffffffffffffffffffffffffffffffff168273ffffffffffffffffffffffffffffffffffffffff167fc3d58168c5ae7397731d063d5bbf3d657854427343f4c083240f7aacaa2d0f628787604051611b71929190612811565b60405180910390a4611b8881600087878787611c11565b5050505050565b60606000600167ffffffffffffffff811115611bae57611bad612ccc565b5b604051908082528060200260200182016040528015611bdc5781602001602082028036833780820191505090505b5090508281600081518110611bf457611bf3612c9d565b5b60200260200101818152505080915050919050565b505050505050565b611c308473ffffffffffffffffffffffffffffffffffffffff16611df8565b15611df0578373ffffffffffffffffffffffffffffffffffffffff1663ae89a24887878686866040518663ffffffff1660e01b8152600401611c7695949392919061257b565b602060405180830381600087803b158015611c9057600080fd5b505af1925050508015611cc157506040513d601f19601f82011682018060405250810190611cbe9190611faf565b60015b611d6757611ccd612cfb565b806308c379a01415611d2a5750611ce2613078565b80611ced5750611d2c565b806040517f08c379a0000000000000000000000000000000000000000000000000000000008152600401611d219190612634565b60405180910390fd5b505b6040517f08c379a0000000000000000000000000000000000000000000000000000000008152600401611d5e90612656565b60405180910390fd5b63ae89a24860e01b7bffffffffffffffffffffffffffffffffffffffffffffffffffffffff1916817bffffffffffffffffffffffffffffffffffffffffffffffffffffffff191614611dee576040517f08c379a0000000000000000000000000000000000000000000000000000000008152600401611de590612676565b60405180910390fd5b505b505050505050565b600080823b905060008111915050919050565b828054611e1790612af3565b90600052602060002090601f016020900481019282611e395760008555611e80565b82601f10611e5257805160ff1916838001178555611e80565b82800160010185558215611e80579182015b82811115611e7f578251825591602001919060010190611e64565b5b509050611e8d9190611e91565b5090565b5b80821115611eaa576000816000905550600101611e92565b5090565b600081359050611ebd8161310e565b92915050565b600081359050611ed281613125565b92915050565b600081519050611ee78161313c565b92915050565b600081359050611efc81613153565b92915050565b600060208284031215611f1857611f17612d1d565b5b6000611f2684828501611eae565b91505092915050565b60008060408385031215611f4657611f45612d1d565b5b6000611f5485828601611ec3565b9250506020611f6585828601611eed565b9150509250929050565b60008060408385031215611f8657611f85612d1d565b5b6000611f9485828601611eae565b9250506020611fa585828601611eed565b9150509250929050565b600060208284031215611fc557611fc4612d1d565b5b6000611fd384828501611ed8565b91505092915050565b600060208284031215611ff257611ff1612d1d565b5b600061200084828501611eed565b91505092915050565b60006120158383612163565b905092915050565b60006120298383612459565b60208301905092915050565b61203e81612a4c565b82525050565b61205561205082612a4c565b612bb1565b82525050565b61206481612a3a565b82525050565b61207b61207682612a3a565b612b9f565b82525050565b600061208c8261289b565b61209681856128d6565b9350836020820285016120a88561287b565b8060005b858110156120e457848403895281516120c58582612009565b94506120d0836128bc565b925060208a019950506001810190506120ac565b50829750879550505050505092915050565b6000612101826128a6565b61210b81856128e7565b93506121168361288b565b8060005b8381101561214757815161212e888261201d565b9750612139836128c9565b92505060018101905061211a565b5085935050505092915050565b61215d81612a5e565b82525050565b600061216e826128b1565b61217881856128f8565b9350612188818560208601612ac0565b61219181612d22565b840191505092915050565b60006121a7826128b1565b6121b18185612909565b93506121c1818560208601612ac0565b6121ca81612d22565b840191505092915050565b60006121e0826128b1565b6121ea818561291a565b93506121fa818560208601612ac0565b80840191505092915050565b6000612213603483612909565b915061221e82612d4d565b604082019050919050565b6000612236602883612909565b915061224182612d9c565b604082019050919050565b6000612259601983612909565b915061226482612deb565b602082019050919050565b600061227c60088361291a565b915061228782612e14565b600882019050919050565b600061229f601083612909565b91506122aa82612e3d565b602082019050919050565b60006122c260058361291a565b91506122cd82612e66565b600582019050919050565b60006122e5601283612909565b91506122f082612e8f565b602082019050919050565b6000612308601b83612909565b915061231382612eb8565b602082019050919050565b600061232b601b83612909565b915061233682612ee1565b602082019050919050565b600061234e601583612909565b915061235982612f0a565b602082019050919050565b6000612371601c83612909565b915061237c82612f33565b602082019050919050565b6000612394601f83612909565b915061239f82612f5c565b602082019050919050565b60006123b7601b83612909565b91506123c282612f85565b602082019050919050565b60006123da601983612909565b91506123e582612fae565b602082019050919050565b60006123fd60018361291a565b915061240882612fd7565b600182019050919050565b600061242060078361291a565b915061242b82613000565b600782019050919050565b6000612443602183612909565b915061244e82613029565b604082019050919050565b61246281612ab6565b82525050565b61247181612ab6565b82525050565b61248861248382612ab6565b612bd5565b82525050565b600061249a82856121d5565b91506124a5826123f0565b91506124b182846121d5565b91508190509392505050565b60006124c88261226f565b91506124d482846121d5565b915081905092915050565b60006124ea826122b5565b91506124f682846121d5565b915081905092915050565b600061250c82612413565b915061251882846121d5565b915081905092915050565b600061252f8286612477565b60208201915061253f828561206a565b60148201915061254f8284612044565b601482019150819050949350505050565b60006020820190506125756000830184612035565b92915050565b600060a082019050612590600083018861205b565b61259d602083018761205b565b6125aa6040830186612468565b6125b76060830185612468565b81810360808301526125c9818461219c565b90509695505050505050565b600060208201905081810360008301526125ef8184612081565b905092915050565b6000602082019050818103600083015261261181846120f6565b905092915050565b600060208201905061262e6000830184612154565b92915050565b6000602082019050818103600083015261264e818461219c565b905092915050565b6000602082019050818103600083015261266f81612206565b9050919050565b6000602082019050818103600083015261268f81612229565b9050919050565b600060208201905081810360008301526126af8161224c565b9050919050565b600060208201905081810360008301526126cf81612292565b9050919050565b600060208201905081810360008301526126ef816122d8565b9050919050565b6000602082019050818103600083015261270f816122fb565b9050919050565b6000602082019050818103600083015261272f8161231e565b9050919050565b6000602082019050818103600083015261274f81612341565b9050919050565b6000602082019050818103600083015261276f81612364565b9050919050565b6000602082019050818103600083015261278f81612387565b9050919050565b600060208201905081810360008301526127af816123aa565b9050919050565b600060208201905081810360008301526127cf816123cd565b9050919050565b600060208201905081810360008301526127ef81612436565b9050919050565b600060208201905061280b6000830184612468565b92915050565b60006040820190506128266000830185612468565b6128336020830184612468565b9392505050565b600060608201905061284f6000830186612468565b61285c6020830185612468565b6128696040830184612468565b949350505050565b6000604051905090565b6000819050602082019050919050565b6000819050602082019050919050565b600081519050919050565b600081519050919050565b600081519050919050565b6000602082019050919050565b6000602082019050919050565b600082825260208201905092915050565b600082825260208201905092915050565b600082825260208201905092915050565b600082825260208201905092915050565b600081905092915050565b600061293082612ab6565b915061293b83612ab6565b9250827fffffffffffffffffffffffffffffffffffffffffffffffffffffffffffffffff038211156129705761296f612c10565b5b828201905092915050565b600061298682612ab6565b915061299183612ab6565b9250826129a1576129a0612c3f565b5b828204905092915050565b60006129b782612ab6565b91506129c283612ab6565b9250817fffffffffffffffffffffffffffffffffffffffffffffffffffffffffffffffff04831182151516156129fb576129fa612c10565b5b828202905092915050565b6000612a1182612ab6565b9150612a1c83612ab6565b925082821015612a2f57612a2e612c10565b5b828203905092915050565b6000612a4582612a96565b9050919050565b6000612a5782612a96565b9050919050565b60008115159050919050565b60007fffffffff0000000000000000000000000000000000000000000000000000000082169050919050565b600073ffffffffffffffffffffffffffffffffffffffff82169050919050565b6000819050919050565b60005b83811015612ade578082015181840152602081019050612ac3565b83811115612aed576000848401525b50505050565b60006002820490506001821680612b0b57607f821691505b60208210811415612b1f57612b1e612c6e565b5b50919050565b612b2e82612d22565b810181811067ffffffffffffffff82111715612b4d57612b4c612ccc565b5b80604052505050565b6000612b6182612ab6565b91507fffffffffffffffffffffffffffffffffffffffffffffffffffffffffffffffff821415612b9457612b93612c10565b5b600182019050919050565b6000612baa82612bc3565b9050919050565b6000612bbc82612bc3565b9050919050565b6000612bce82612d33565b9050919050565b6000819050919050565b6000612bea82612ab6565b9150612bf583612ab6565b925082612c0557612c04612c3f565b5b828206905092915050565b7f4e487b7100000000000000000000000000000000000000000000000000000000600052601160045260246000fd5b7f4e487b7100000000000000000000000000000000000000000000000000000000600052601260045260246000fd5b7f4e487b7100000000000000000000000000000000000000000000000000000000600052602260045260246000fd5b7f4e487b7100000000000000000000000000000000000000000000000000000000600052603260045260246000fd5b7f4e487b7100000000000000000000000000000000000000000000000000000000600052604160045260246000fd5b600060033d1115612d1a5760046000803e612d17600051612d40565b90505b90565b600080fd5b6000601f19601f8301169050919050565b60008160601b9050919050565b60008160e01c9050919050565b7f455243313135353a207472616e7366657220746f206e6f6e204552433131353560008201527f526563656976657220696d706c656d656e746572000000000000000000000000602082015250565b7f455243313135353a204552433131353552656365697665722072656a6563746560008201527f6420746f6b656e73000000000000000000000000000000000000000000000000602082015250565b7f4572726f7221204e6f7420456e6f7567682042616c616e636500000000000000600082015250565b7f4469616d6f6e645f000000000000000000000000000000000000000000000000600082015250565b7f4d696e7420466565204e6f742053657400000000000000000000000000000000600082015250565b7f476f6c645f000000000000000000000000000000000000000000000000000000600082015250565b7f4e6f7420456e6f7567682042616c616e63650000000000000000000000000000600082015250565b7f44726f707369746520697320616c72656164792052756e6e696e670000000000600082015250565b7f44726f707369746520697320616c72656164792053746f707065640000000000600082015250565b7f596f752063616e206d696e7420312d33204e4654730000000000000000000000600082015250565b7f4f6e6c79204e46542d4553204f776e65722063616e2041636365737300000000600082015250565b7f4f776e65722053686f756c6420736574206d696e742046656520466972737400600082015250565b7f44726f7073697465206973206e6f74204f70656e6564205965742e0000000000600082015250565b7f4d6178204d696e74696e67204c696d6974207265616368656400000000000000600082015250565b7f5f00000000000000000000000000000000000000000000000000000000000000600082015250565b7f53696c7665725f00000000000000000000000000000000000000000000000000600082015250565b7f455243313135353a206d696e7420746f20746865207a65726f2061646472657360008201527f7300000000000000000000000000000000000000000000000000000000000000602082015250565b600060443d10156130885761310b565b613090612871565b60043d036004823e80513d602482011167ffffffffffffffff821117156130b857505061310b565b808201805167ffffffffffffffff8111156130d6575050505061310b565b80602083010160043d0385018111156130f357505050505061310b565b61310282602001850186612b25565b82955050505050505b90565b61311781612a3a565b811461312257600080fd5b50565b61312e81612a4c565b811461313957600080fd5b50565b61314581612a6a565b811461315057600080fd5b50565b61315c81612ab6565b811461316757600080fd5b5056fea26469706673582212203b3d319938849050f9dc4d05e71360fb6bc671b5b96c15e019a8eb21c042c4f464736f6c63430008070033",
					"opcodes": "PUSH1 0x80 PUSH1 0x40 MSTORE PUSH1 0x40 MLOAD DUP1 PUSH1 0x20 ADD PUSH1 0x40 MSTORE DUP1 PUSH1 0x0 DUP2 MSTORE POP PUSH1 0x2 SWAP1 DUP1 MLOAD SWAP1 PUSH1 0x20 ADD SWAP1 PUSH3 0x2B SWAP3 SWAP2 SWAP1 PUSH3 0x113 JUMP JUMPDEST POP PUSH1 0x32 PUSH1 0x9 SSTORE PUSH1 0x64 PUSH1 0xA SSTORE PUSH2 0x352 PUSH1 0xB SSTORE PUSH1 0x1 PUSH1 0xE PUSH1 0x0 PUSH2 0x100 EXP DUP2 SLOAD DUP2 PUSH1 0xFF MUL NOT AND SWAP1 DUP4 ISZERO ISZERO MUL OR SWAP1 SSTORE POP CALLVALUE DUP1 ISZERO PUSH3 0x64 JUMPI PUSH1 0x0 DUP1 REVERT JUMPDEST POP PUSH1 0x40 MLOAD PUSH3 0x35C6 CODESIZE SUB DUP1 PUSH3 0x35C6 DUP4 CODECOPY DUP2 DUP2 ADD PUSH1 0x40 MSTORE DUP2 ADD SWAP1 PUSH3 0x8A SWAP2 SWAP1 PUSH3 0x241 JUMP JUMPDEST DUP1 PUSH1 0xF SWAP1 DUP1 MLOAD SWAP1 PUSH1 0x20 ADD SWAP1 PUSH3 0xA2 SWAP3 SWAP2 SWAP1 PUSH3 0x113 JUMP JUMPDEST POP CALLER PUSH1 0xE PUSH1 0x1 PUSH2 0x100 EXP DUP2 SLOAD DUP2 PUSH20 0xFFFFFFFFFFFFFFFFFFFFFFFFFFFFFFFFFFFFFFFF MUL NOT AND SWAP1 DUP4 PUSH20 0xFFFFFFFFFFFFFFFFFFFFFFFFFFFFFFFFFFFFFFFF AND MUL OR SWAP1 SSTORE POP PUSH1 0x0 PUSH1 0x3 DUP2 SWAP1 SSTORE POP PUSH1 0x1 PUSH1 0x4 DUP2 SWAP1 SSTORE POP PUSH1 0x0 PUSH1 0x6 DUP2 SWAP1 SSTORE POP PUSH1 0x0 PUSH1 0x7 DUP2 SWAP1 SSTORE POP PUSH1 0x0 PUSH1 0x8 DUP2 SWAP1 SSTORE POP POP PUSH3 0x416 JUMP JUMPDEST DUP3 DUP1 SLOAD PUSH3 0x121 SWAP1 PUSH3 0x327 JUMP JUMPDEST SWAP1 PUSH1 0x0 MSTORE PUSH1 0x20 PUSH1 0x0 KECCAK256 SWAP1 PUSH1 0x1F ADD PUSH1 0x20 SWAP1 DIV DUP2 ADD SWAP3 DUP3 PUSH3 0x145 JUMPI PUSH1 0x0 DUP6 SSTORE PUSH3 0x191 JUMP JUMPDEST DUP3 PUSH1 0x1F LT PUSH3 0x160 JUMPI DUP1 MLOAD PUSH1 0xFF NOT AND DUP4 DUP1 ADD OR DUP6 SSTORE PUSH3 0x191 JUMP JUMPDEST DUP3 DUP1 ADD PUSH1 0x1 ADD DUP6 SSTORE DUP3 ISZERO PUSH3 0x191 JUMPI SWAP2 DUP3 ADD JUMPDEST DUP3 DUP2 GT ISZERO PUSH3 0x190 JUMPI DUP3 MLOAD DUP3 SSTORE SWAP2 PUSH1 0x20 ADD SWAP2 SWAP1 PUSH1 0x1 ADD SWAP1 PUSH3 0x173 JUMP JUMPDEST JUMPDEST POP SWAP1 POP PUSH3 0x1A0 SWAP2 SWAP1 PUSH3 0x1A4 JUMP JUMPDEST POP SWAP1 JUMP JUMPDEST JUMPDEST DUP1 DUP3 GT ISZERO PUSH3 0x1BF JUMPI PUSH1 0x0 DUP2 PUSH1 0x0 SWAP1 SSTORE POP PUSH1 0x1 ADD PUSH3 0x1A5 JUMP JUMPDEST POP SWAP1 JUMP JUMPDEST PUSH1 0x0 PUSH3 0x1DA PUSH3 0x1D4 DUP5 PUSH3 0x2BB JUMP JUMPDEST PUSH3 0x292 JUMP JUMPDEST SWAP1 POP DUP3 DUP2 MSTORE PUSH1 0x20 DUP2 ADD DUP5 DUP5 DUP5 ADD GT ISZERO PUSH3 0x1F9 JUMPI PUSH3 0x1F8 PUSH3 0x3F6 JUMP JUMPDEST JUMPDEST PUSH3 0x206 DUP5 DUP3 DUP6 PUSH3 0x2F1 JUMP JUMPDEST POP SWAP4 SWAP3 POP POP POP JUMP JUMPDEST PUSH1 0x0 DUP3 PUSH1 0x1F DUP4 ADD SLT PUSH3 0x226 JUMPI PUSH3 0x225 PUSH3 0x3F1 JUMP JUMPDEST JUMPDEST DUP2 MLOAD PUSH3 0x238 DUP5 DUP3 PUSH1 0x20 DUP7 ADD PUSH3 0x1C3 JUMP JUMPDEST SWAP2 POP POP SWAP3 SWAP2 POP POP JUMP JUMPDEST PUSH1 0x0 PUSH1 0x20 DUP3 DUP5 SUB SLT ISZERO PUSH3 0x25A JUMPI PUSH3 0x259 PUSH3 0x400 JUMP JUMPDEST JUMPDEST PUSH1 0x0 DUP3 ADD MLOAD PUSH8 0xFFFFFFFFFFFFFFFF DUP2 GT ISZERO PUSH3 0x27B JUMPI PUSH3 0x27A PUSH3 0x3FB JUMP JUMPDEST JUMPDEST PUSH3 0x289 DUP5 DUP3 DUP6 ADD PUSH3 0x20E JUMP JUMPDEST SWAP2 POP POP SWAP3 SWAP2 POP POP JUMP JUMPDEST PUSH1 0x0 PUSH3 0x29E PUSH3 0x2B1 JUMP JUMPDEST SWAP1 POP PUSH3 0x2AC DUP3 DUP3 PUSH3 0x35D JUMP JUMPDEST SWAP2 SWAP1 POP JUMP JUMPDEST PUSH1 0x0 PUSH1 0x40 MLOAD SWAP1 POP SWAP1 JUMP JUMPDEST PUSH1 0x0 PUSH8 0xFFFFFFFFFFFFFFFF DUP3 GT ISZERO PUSH3 0x2D9 JUMPI PUSH3 0x2D8 PUSH3 0x3C2 JUMP JUMPDEST JUMPDEST PUSH3 0x2E4 DUP3 PUSH3 0x405 JUMP JUMPDEST SWAP1 POP PUSH1 0x20 DUP2 ADD SWAP1 POP SWAP2 SWAP1 POP JUMP JUMPDEST PUSH1 0x0 JUMPDEST DUP4 DUP2 LT ISZERO PUSH3 0x311 JUMPI DUP1 DUP3 ADD MLOAD DUP2 DUP5 ADD MSTORE PUSH1 0x20 DUP2 ADD SWAP1 POP PUSH3 0x2F4 JUMP JUMPDEST DUP4 DUP2 GT ISZERO PUSH3 0x321 JUMPI PUSH1 0x0 DUP5 DUP5 ADD MSTORE JUMPDEST POP POP POP POP JUMP JUMPDEST PUSH1 0x0 PUSH1 0x2 DUP3 DIV SWAP1 POP PUSH1 0x1 DUP3 AND DUP1 PUSH3 0x340 JUMPI PUSH1 0x7F DUP3 AND SWAP2 POP JUMPDEST PUSH1 0x20 DUP3 LT DUP2 EQ ISZERO PUSH3 0x357 JUMPI PUSH3 0x356 PUSH3 0x393 JUMP JUMPDEST JUMPDEST POP SWAP2 SWAP1 POP JUMP JUMPDEST PUSH3 0x368 DUP3 PUSH3 0x405 JUMP JUMPDEST DUP2 ADD DUP2 DUP2 LT PUSH8 0xFFFFFFFFFFFFFFFF DUP3 GT OR ISZERO PUSH3 0x38A JUMPI PUSH3 0x389 PUSH3 0x3C2 JUMP JUMPDEST JUMPDEST DUP1 PUSH1 0x40 MSTORE POP POP POP JUMP JUMPDEST PUSH32 0x4E487B7100000000000000000000000000000000000000000000000000000000 PUSH1 0x0 MSTORE PUSH1 0x22 PUSH1 0x4 MSTORE PUSH1 0x24 PUSH1 0x0 REVERT JUMPDEST PUSH32 0x4E487B7100000000000000000000000000000000000000000000000000000000 PUSH1 0x0 MSTORE PUSH1 0x41 PUSH1 0x4 MSTORE PUSH1 0x24 PUSH1 0x0 REVERT JUMPDEST PUSH1 0x0 DUP1 REVERT JUMPDEST PUSH1 0x0 DUP1 REVERT JUMPDEST PUSH1 0x0 DUP1 REVERT JUMPDEST PUSH1 0x0 DUP1 REVERT JUMPDEST PUSH1 0x0 PUSH1 0x1F NOT PUSH1 0x1F DUP4 ADD AND SWAP1 POP SWAP2 SWAP1 POP JUMP JUMPDEST PUSH2 0x31A0 DUP1 PUSH3 0x426 PUSH1 0x0 CODECOPY PUSH1 0x0 RETURN INVALID PUSH1 0x80 PUSH1 0x40 MSTORE PUSH1 0x4 CALLDATASIZE LT PUSH2 0x109 JUMPI PUSH1 0x0 CALLDATALOAD PUSH1 0xE0 SHR DUP1 PUSH4 0x8B7AFE2E GT PUSH2 0x95 JUMPI DUP1 PUSH4 0xB187BD26 GT PUSH2 0x64 JUMPI DUP1 PUSH4 0xB187BD26 EQ PUSH2 0x33C JUMPI DUP1 PUSH4 0xB4A99A4E EQ PUSH2 0x367 JUMPI DUP1 PUSH4 0xB6DB75A0 EQ PUSH2 0x392 JUMPI DUP1 PUSH4 0xB84C185E EQ PUSH2 0x3BD JUMPI DUP1 PUSH4 0xEDDD0D9C EQ PUSH2 0x3E8 JUMPI PUSH2 0x109 JUMP JUMPDEST DUP1 PUSH4 0x8B7AFE2E EQ PUSH2 0x2A6 JUMPI DUP1 PUSH4 0xA56538E0 EQ PUSH2 0x2D1 JUMPI DUP1 PUSH4 0xA6F9DAE1 EQ PUSH2 0x2FC JUMPI DUP1 PUSH4 0xAA90C726 EQ PUSH2 0x325 JUMPI PUSH2 0x109 JUMP JUMPDEST DUP1 PUSH4 0x225011DA GT PUSH2 0xDC JUMPI DUP1 PUSH4 0x225011DA EQ PUSH2 0x1A4 JUMPI DUP1 PUSH4 0x5B27D84E EQ PUSH2 0x1E1 JUMPI DUP1 PUSH4 0x5E1F0556 EQ PUSH2 0x211 JUMPI DUP1 PUSH4 0x60DAA851 EQ PUSH2 0x24E JUMPI DUP1 PUSH4 0x7A5CAAB3 EQ PUSH2 0x27B JUMPI PUSH2 0x109 JUMP JUMPDEST DUP1 PUSH4 0x390C11C EQ PUSH2 0x10E JUMPI DUP1 PUSH4 0x15460259 EQ PUSH2 0x139 JUMPI DUP1 PUSH4 0x17B612E6 EQ PUSH2 0x150 JUMPI DUP1 PUSH4 0x191E2E83 EQ PUSH2 0x17B JUMPI JUMPDEST PUSH1 0x0 DUP1 REVERT JUMPDEST CALLVALUE DUP1 ISZERO PUSH2 0x11A JUMPI PUSH1 0x0 DUP1 REVERT JUMPDEST POP PUSH2 0x123 PUSH2 0x411 JUMP JUMPDEST PUSH1 0x40 MLOAD PUSH2 0x130 SWAP2 SWAP1 PUSH2 0x27F6 JUMP JUMPDEST PUSH1 0x40 MLOAD DUP1 SWAP2 SUB SWAP1 RETURN JUMPDEST CALLVALUE DUP1 ISZERO PUSH2 0x145 JUMPI PUSH1 0x0 DUP1 REVERT JUMPDEST POP PUSH2 0x14E PUSH2 0x41B JUMP JUMPDEST STOP JUMPDEST CALLVALUE DUP1 ISZERO PUSH2 0x15C JUMPI PUSH1 0x0 DUP1 REVERT JUMPDEST POP PUSH2 0x165 PUSH2 0x525 JUMP JUMPDEST PUSH1 0x40 MLOAD PUSH2 0x172 SWAP2 SWAP1 PUSH2 0x27F6 JUMP JUMPDEST PUSH1 0x40 MLOAD DUP1 SWAP2 SUB SWAP1 RETURN JUMPDEST CALLVALUE DUP1 ISZERO PUSH2 0x187 JUMPI PUSH1 0x0 DUP1 REVERT JUMPDEST POP PUSH2 0x1A2 PUSH1 0x4 DUP1 CALLDATASIZE SUB DUP2 ADD SWAP1 PUSH2 0x19D SWAP2 SWAP1 PUSH2 0x1F2F JUMP JUMPDEST PUSH2 0x52A JUMP JUMPDEST STOP JUMPDEST CALLVALUE DUP1 ISZERO PUSH2 0x1B0 JUMPI PUSH1 0x0 DUP1 REVERT JUMPDEST POP PUSH2 0x1CB PUSH1 0x4 DUP1 CALLDATASIZE SUB DUP2 ADD SWAP1 PUSH2 0x1C6 SWAP2 SWAP1 PUSH2 0x1F02 JUMP JUMPDEST PUSH2 0x654 JUMP JUMPDEST PUSH1 0x40 MLOAD PUSH2 0x1D8 SWAP2 SWAP1 PUSH2 0x25F7 JUMP JUMPDEST PUSH1 0x40 MLOAD DUP1 SWAP2 SUB SWAP1 RETURN JUMPDEST PUSH2 0x1FB PUSH1 0x4 DUP1 CALLDATASIZE SUB DUP2 ADD SWAP1 PUSH2 0x1F6 SWAP2 SWAP1 PUSH2 0x1F6F JUMP JUMPDEST PUSH2 0x744 JUMP JUMPDEST PUSH1 0x40 MLOAD PUSH2 0x208 SWAP2 SWAP1 PUSH2 0x25D5 JUMP JUMPDEST PUSH1 0x40 MLOAD DUP1 SWAP2 SUB SWAP1 RETURN JUMPDEST CALLVALUE DUP1 ISZERO PUSH2 0x21D JUMPI PUSH1 0x0 DUP1 REVERT JUMPDEST POP PUSH2 0x238 PUSH1 0x4 DUP1 CALLDATASIZE SUB DUP2 ADD SWAP1 PUSH2 0x233 SWAP2 SWAP1 PUSH2 0x1F6F JUMP JUMPDEST PUSH2 0xA44 JUMP JUMPDEST PUSH1 0x40 MLOAD PUSH2 0x245 SWAP2 SWAP1 PUSH2 0x25D5 JUMP JUMPDEST PUSH1 0x40 MLOAD DUP1 SWAP2 SUB SWAP1 RETURN JUMPDEST CALLVALUE DUP1 ISZERO PUSH2 0x25A JUMPI PUSH1 0x0 DUP1 REVERT JUMPDEST POP PUSH2 0x263 PUSH2 0xD7D JUMP JUMPDEST PUSH1 0x40 MLOAD PUSH2 0x272 SWAP4 SWAP3 SWAP2 SWAP1 PUSH2 0x283A JUMP JUMPDEST PUSH1 0x40 MLOAD DUP1 SWAP2 SUB SWAP1 RETURN JUMPDEST CALLVALUE DUP1 ISZERO PUSH2 0x287 JUMPI PUSH1 0x0 DUP1 REVERT JUMPDEST POP PUSH2 0x290 PUSH2 0xE83 JUMP JUMPDEST PUSH1 0x40 MLOAD PUSH2 0x29D SWAP2 SWAP1 PUSH2 0x27F6 JUMP JUMPDEST PUSH1 0x40 MLOAD DUP1 SWAP2 SUB SWAP1 RETURN JUMPDEST CALLVALUE DUP1 ISZERO PUSH2 0x2B2 JUMPI PUSH1 0x0 DUP1 REVERT JUMPDEST POP PUSH2 0x2BB PUSH2 0xE8D JUMP JUMPDEST PUSH1 0x40 MLOAD PUSH2 0x2C8 SWAP2 SWAP1 PUSH2 0x27F6 JUMP JUMPDEST PUSH1 0x40 MLOAD DUP1 SWAP2 SUB SWAP1 RETURN JUMPDEST CALLVALUE DUP1 ISZERO PUSH2 0x2DD JUMPI PUSH1 0x0 DUP1 REVERT JUMPDEST POP PUSH2 0x2E6 PUSH2 0xF2C JUMP JUMPDEST PUSH1 0x40 MLOAD PUSH2 0x2F3 SWAP2 SWAP1 PUSH2 0x27F6 JUMP JUMPDEST PUSH1 0x40 MLOAD DUP1 SWAP2 SUB SWAP1 RETURN JUMPDEST CALLVALUE DUP1 ISZERO PUSH2 0x308 JUMPI PUSH1 0x0 DUP1 REVERT JUMPDEST POP PUSH2 0x323 PUSH1 0x4 DUP1 CALLDATASIZE SUB DUP2 ADD SWAP1 PUSH2 0x31E SWAP2 SWAP1 PUSH2 0x1F02 JUMP JUMPDEST PUSH2 0xF31 JUMP JUMPDEST STOP JUMPDEST CALLVALUE DUP1 ISZERO PUSH2 0x331 JUMPI PUSH1 0x0 DUP1 REVERT JUMPDEST POP PUSH2 0x33A PUSH2 0x1062 JUMP JUMPDEST STOP JUMPDEST CALLVALUE DUP1 ISZERO PUSH2 0x348 JUMPI PUSH1 0x0 DUP1 REVERT JUMPDEST POP PUSH2 0x351 PUSH2 0x116C JUMP JUMPDEST PUSH1 0x40 MLOAD PUSH2 0x35E SWAP2 SWAP1 PUSH2 0x2619 JUMP JUMPDEST PUSH1 0x40 MLOAD DUP1 SWAP2 SUB SWAP1 RETURN JUMPDEST CALLVALUE DUP1 ISZERO PUSH2 0x373 JUMPI PUSH1 0x0 DUP1 REVERT JUMPDEST POP PUSH2 0x37C PUSH2 0x117F JUMP JUMPDEST PUSH1 0x40 MLOAD PUSH2 0x389 SWAP2 SWAP1 PUSH2 0x2560 JUMP JUMPDEST PUSH1 0x40 MLOAD DUP1 SWAP2 SUB SWAP1 RETURN JUMPDEST CALLVALUE DUP1 ISZERO PUSH2 0x39E JUMPI PUSH1 0x0 DUP1 REVERT JUMPDEST POP PUSH2 0x3A7 PUSH2 0x11A5 JUMP JUMPDEST PUSH1 0x40 MLOAD PUSH2 0x3B4 SWAP2 SWAP1 PUSH2 0x2619 JUMP JUMPDEST PUSH1 0x40 MLOAD DUP1 SWAP2 SUB SWAP1 RETURN JUMPDEST CALLVALUE DUP1 ISZERO PUSH2 0x3C9 JUMPI PUSH1 0x0 DUP1 REVERT JUMPDEST POP PUSH2 0x3D2 PUSH2 0x120E JUMP JUMPDEST PUSH1 0x40 MLOAD PUSH2 0x3DF SWAP2 SWAP1 PUSH2 0x27F6 JUMP JUMPDEST PUSH1 0x40 MLOAD DUP1 SWAP2 SUB SWAP1 RETURN JUMPDEST CALLVALUE DUP1 ISZERO PUSH2 0x3F4 JUMPI PUSH1 0x0 DUP1 REVERT JUMPDEST POP PUSH2 0x40F PUSH1 0x4 DUP1 CALLDATASIZE SUB DUP2 ADD SWAP1 PUSH2 0x40A SWAP2 SWAP1 PUSH2 0x1FDC JUMP JUMPDEST PUSH2 0x1213 JUMP JUMPDEST STOP JUMPDEST PUSH1 0x0 PUSH1 0x3 SLOAD SWAP1 POP SWAP1 JUMP JUMPDEST PUSH1 0xE PUSH1 0x1 SWAP1 SLOAD SWAP1 PUSH2 0x100 EXP SWAP1 DIV PUSH20 0xFFFFFFFFFFFFFFFFFFFFFFFFFFFFFFFFFFFFFFFF AND PUSH20 0xFFFFFFFFFFFFFFFFFFFFFFFFFFFFFFFFFFFFFFFF AND PUSH2 0x45C PUSH2 0x12B4 JUMP JUMPDEST PUSH20 0xFFFFFFFFFFFFFFFFFFFFFFFFFFFFFFFFFFFFFFFF AND EQ PUSH2 0x4B2 JUMPI PUSH1 0x40 MLOAD PUSH32 0x8C379A000000000000000000000000000000000000000000000000000000000 DUP2 MSTORE PUSH1 0x4 ADD PUSH2 0x4A9 SWAP1 PUSH2 0x2756 JUMP JUMPDEST PUSH1 0x40 MLOAD DUP1 SWAP2 SUB SWAP1 REVERT JUMPDEST PUSH1 0x1 ISZERO ISZERO PUSH1 0xE PUSH1 0x0 SWAP1 SLOAD SWAP1 PUSH2 0x100 EXP SWAP1 DIV PUSH1 0xFF AND ISZERO ISZERO EQ PUSH2 0x508 JUMPI PUSH1 0x40 MLOAD PUSH32 0x8C379A000000000000000000000000000000000000000000000000000000000 DUP2 MSTORE PUSH1 0x4 ADD PUSH2 0x4FF SWAP1 PUSH2 0x26F6 JUMP JUMPDEST PUSH1 0x40 MLOAD DUP1 SWAP2 SUB SWAP1 REVERT JUMPDEST PUSH1 0x0 PUSH1 0xE PUSH1 0x0 PUSH2 0x100 EXP DUP2 SLOAD DUP2 PUSH1 0xFF MUL NOT AND SWAP1 DUP4 ISZERO ISZERO MUL OR SWAP1 SSTORE POP JUMP JUMPDEST PUSH1 0x1 DUP2 JUMP JUMPDEST PUSH1 0xE PUSH1 0x1 SWAP1 SLOAD SWAP1 PUSH2 0x100 EXP SWAP1 DIV PUSH20 0xFFFFFFFFFFFFFFFFFFFFFFFFFFFFFFFFFFFFFFFF AND PUSH20 0xFFFFFFFFFFFFFFFFFFFFFFFFFFFFFFFFFFFFFFFF AND PUSH2 0x56B PUSH2 0x12B4 JUMP JUMPDEST PUSH20 0xFFFFFFFFFFFFFFFFFFFFFFFFFFFFFFFFFFFFFFFF AND EQ PUSH2 0x5C1 JUMPI PUSH1 0x40 MLOAD PUSH32 0x8C379A000000000000000000000000000000000000000000000000000000000 DUP2 MSTORE PUSH1 0x4 ADD PUSH2 0x5B8 SWAP1 PUSH2 0x2756 JUMP JUMPDEST PUSH1 0x40 MLOAD DUP1 SWAP2 SUB SWAP1 REVERT JUMPDEST PUSH1 0x0 SELFBALANCE SWAP1 POP DUP1 DUP3 LT PUSH2 0x608 JUMPI PUSH1 0x40 MLOAD PUSH32 0x8C379A000000000000000000000000000000000000000000000000000000000 DUP2 MSTORE PUSH1 0x4 ADD PUSH2 0x5FF SWAP1 PUSH2 0x2696 JUMP JUMPDEST PUSH1 0x40 MLOAD DUP1 SWAP2 SUB SWAP1 REVERT JUMPDEST DUP3 PUSH20 0xFFFFFFFFFFFFFFFFFFFFFFFFFFFFFFFFFFFFFFFF AND PUSH2 0x8FC DUP4 SWAP1 DUP2 ISZERO MUL SWAP1 PUSH1 0x40 MLOAD PUSH1 0x0 PUSH1 0x40 MLOAD DUP1 DUP4 SUB DUP2 DUP6 DUP9 DUP9 CALL SWAP4 POP POP POP POP ISZERO DUP1 ISZERO PUSH2 0x64E JUMPI RETURNDATASIZE PUSH1 0x0 DUP1 RETURNDATACOPY RETURNDATASIZE PUSH1 0x0 REVERT JUMPDEST POP POP POP POP JUMP JUMPDEST PUSH1 0x60 PUSH1 0x0 ISZERO ISZERO PUSH1 0xE PUSH1 0x0 SWAP1 SLOAD SWAP1 PUSH2 0x100 EXP SWAP1 DIV PUSH1 0xFF AND ISZERO ISZERO EQ PUSH2 0x6AC JUMPI PUSH1 0x40 MLOAD PUSH32 0x8C379A000000000000000000000000000000000000000000000000000000000 DUP2 MSTORE PUSH1 0x4 ADD PUSH2 0x6A3 SWAP1 PUSH2 0x2796 JUMP JUMPDEST PUSH1 0x40 MLOAD DUP1 SWAP2 SUB SWAP1 REVERT JUMPDEST PUSH1 0xC PUSH1 0x0 DUP4 PUSH20 0xFFFFFFFFFFFFFFFFFFFFFFFFFFFFFFFFFFFFFFFF AND PUSH20 0xFFFFFFFFFFFFFFFFFFFFFFFFFFFFFFFFFFFFFFFF AND DUP2 MSTORE PUSH1 0x20 ADD SWAP1 DUP2 MSTORE PUSH1 0x20 ADD PUSH1 0x0 KECCAK256 PUSH1 0x0 ADD DUP1 SLOAD DUP1 PUSH1 0x20 MUL PUSH1 0x20 ADD PUSH1 0x40 MLOAD SWAP1 DUP2 ADD PUSH1 0x40 MSTORE DUP1 SWAP3 SWAP2 SWAP1 DUP2 DUP2 MSTORE PUSH1 0x20 ADD DUP3 DUP1 SLOAD DUP1 ISZERO PUSH2 0x738 JUMPI PUSH1 0x20 MUL DUP3 ADD SWAP2 SWAP1 PUSH1 0x0 MSTORE PUSH1 0x20 PUSH1 0x0 KECCAK256 SWAP1 JUMPDEST DUP2 SLOAD DUP2 MSTORE PUSH1 0x20 ADD SWAP1 PUSH1 0x1 ADD SWAP1 DUP1 DUP4 GT PUSH2 0x724 JUMPI JUMPDEST POP POP POP POP POP SWAP1 POP SWAP2 SWAP1 POP JUMP JUMPDEST PUSH1 0x60 PUSH1 0x0 ISZERO ISZERO PUSH1 0xE PUSH1 0x0 SWAP1 SLOAD SWAP1 PUSH2 0x100 EXP SWAP1 DIV PUSH1 0xFF AND ISZERO ISZERO EQ PUSH2 0x79C JUMPI PUSH1 0x40 MLOAD PUSH32 0x8C379A000000000000000000000000000000000000000000000000000000000 DUP2 MSTORE PUSH1 0x4 ADD PUSH2 0x793 SWAP1 PUSH2 0x2796 JUMP JUMPDEST PUSH1 0x40 MLOAD DUP1 SWAP2 SUB SWAP1 REVERT JUMPDEST PUSH1 0x0 PUSH1 0x5 SLOAD EQ ISZERO PUSH2 0x7E2 JUMPI PUSH1 0x40 MLOAD PUSH32 0x8C379A000000000000000000000000000000000000000000000000000000000 DUP2 MSTORE PUSH1 0x4 ADD PUSH2 0x7D9 SWAP1 PUSH2 0x2776 JUMP JUMPDEST PUSH1 0x40 MLOAD DUP1 SWAP2 SUB SWAP1 REVERT JUMPDEST PUSH1 0x4 DUP3 LT DUP1 ISZERO PUSH2 0x7F2 JUMPI POP PUSH1 0x0 DUP3 GT JUMPDEST PUSH2 0x831 JUMPI PUSH1 0x40 MLOAD PUSH32 0x8C379A000000000000000000000000000000000000000000000000000000000 DUP2 MSTORE PUSH1 0x4 ADD PUSH2 0x828 SWAP1 PUSH2 0x2736 JUMP JUMPDEST PUSH1 0x40 MLOAD DUP1 SWAP2 SUB SWAP1 REVERT JUMPDEST PUSH2 0x3E8 PUSH1 0x3 SLOAD LT PUSH2 0x877 JUMPI PUSH1 0x40 MLOAD PUSH32 0x8C379A000000000000000000000000000000000000000000000000000000000 DUP2 MSTORE PUSH1 0x4 ADD PUSH2 0x86E SWAP1 PUSH2 0x27B6 JUMP JUMPDEST PUSH1 0x40 MLOAD DUP1 SWAP2 SUB SWAP1 REVERT JUMPDEST PUSH1 0x0 PUSH1 0x5 SLOAD EQ ISZERO PUSH2 0x8BD JUMPI PUSH1 0x40 MLOAD PUSH32 0x8C379A000000000000000000000000000000000000000000000000000000000 DUP2 MSTORE PUSH1 0x4 ADD PUSH2 0x8B4 SWAP1 PUSH2 0x26B6 JUMP JUMPDEST PUSH1 0x40 MLOAD DUP1 SWAP2 SUB SWAP1 REVERT JUMPDEST DUP2 PUSH1 0x5 SLOAD PUSH2 0x8CB SWAP2 SWAP1 PUSH2 0x29AC JUMP JUMPDEST CALLVALUE EQ PUSH2 0x90C JUMPI PUSH1 0x40 MLOAD PUSH32 0x8C379A000000000000000000000000000000000000000000000000000000000 DUP2 MSTORE PUSH1 0x4 ADD PUSH2 0x903 SWAP1 PUSH2 0x26D6 JUMP JUMPDEST PUSH1 0x40 MLOAD DUP1 SWAP2 SUB SWAP1 REVERT JUMPDEST PUSH1 0x0 PUSH1 0x60 PUSH1 0x0 PUSH1 0x3 PUSH8 0xFFFFFFFFFFFFFFFF DUP2 GT ISZERO PUSH2 0x92D JUMPI PUSH2 0x92C PUSH2 0x2CCC JUMP JUMPDEST JUMPDEST PUSH1 0x40 MLOAD SWAP1 DUP1 DUP3 MSTORE DUP1 PUSH1 0x20 MUL PUSH1 0x20 ADD DUP3 ADD PUSH1 0x40 MSTORE DUP1 ISZERO PUSH2 0x960 JUMPI DUP2 PUSH1 0x20 ADD JUMPDEST PUSH1 0x60 DUP2 MSTORE PUSH1 0x20 ADD SWAP1 PUSH1 0x1 SWAP1 SUB SWAP1 DUP2 PUSH2 0x94B JUMPI SWAP1 POP JUMPDEST POP SWAP1 POP PUSH1 0x0 JUMPDEST DUP6 DUP2 LT ISZERO PUSH2 0x9D8 JUMPI PUSH2 0x977 DUP8 PUSH2 0x12BC JUMP JUMPDEST DUP1 SWAP5 POP DUP2 SWAP6 POP POP POP PUSH2 0x988 DUP5 PUSH2 0x14E2 JUMP JUMPDEST DUP4 PUSH1 0x40 MLOAD PUSH1 0x20 ADD PUSH2 0x99A SWAP3 SWAP2 SWAP1 PUSH2 0x248E JUMP JUMPDEST PUSH1 0x40 MLOAD PUSH1 0x20 DUP2 DUP4 SUB SUB DUP2 MSTORE SWAP1 PUSH1 0x40 MSTORE DUP3 DUP3 DUP2 MLOAD DUP2 LT PUSH2 0x9BC JUMPI PUSH2 0x9BB PUSH2 0x2C9D JUMP JUMPDEST JUMPDEST PUSH1 0x20 MUL PUSH1 0x20 ADD ADD DUP2 SWAP1 MSTORE POP DUP1 PUSH2 0x9D1 SWAP1 PUSH2 0x2B56 JUMP JUMPDEST SWAP1 POP PUSH2 0x966 JUMP JUMPDEST POP PUSH2 0x9EA PUSH2 0x9E4 PUSH2 0x12B4 JUMP JUMPDEST CALLVALUE PUSH2 0x1643 JUMP JUMPDEST DUP6 PUSH20 0xFFFFFFFFFFFFFFFFFFFFFFFFFFFFFFFFFFFFFFFF AND PUSH32 0xB4A5369904DCC0D74D8FB8BBCDEB51F356F20C722499D42A6DA95324E634C141 DUP3 PUSH1 0x40 MLOAD PUSH2 0xA30 SWAP2 SWAP1 PUSH2 0x25D5 JUMP JUMPDEST PUSH1 0x40 MLOAD DUP1 SWAP2 SUB SWAP1 LOG2 DUP1 SWAP4 POP POP POP POP SWAP3 SWAP2 POP POP JUMP JUMPDEST PUSH1 0x60 PUSH1 0xE PUSH1 0x1 SWAP1 SLOAD SWAP1 PUSH2 0x100 EXP SWAP1 DIV PUSH20 0xFFFFFFFFFFFFFFFFFFFFFFFFFFFFFFFFFFFFFFFF AND PUSH20 0xFFFFFFFFFFFFFFFFFFFFFFFFFFFFFFFFFFFFFFFF AND PUSH2 0xA87 PUSH2 0x12B4 JUMP JUMPDEST PUSH20 0xFFFFFFFFFFFFFFFFFFFFFFFFFFFFFFFFFFFFFFFF AND EQ PUSH2 0xADD JUMPI PUSH1 0x40 MLOAD PUSH32 0x8C379A000000000000000000000000000000000000000000000000000000000 DUP2 MSTORE PUSH1 0x4 ADD PUSH2 0xAD4 SWAP1 PUSH2 0x2756 JUMP JUMPDEST PUSH1 0x40 MLOAD DUP1 SWAP2 SUB SWAP1 REVERT JUMPDEST PUSH1 0x0 ISZERO ISZERO PUSH1 0xE PUSH1 0x0 SWAP1 SLOAD SWAP1 PUSH2 0x100 EXP SWAP1 DIV PUSH1 0xFF AND ISZERO ISZERO EQ PUSH2 0xB33 JUMPI PUSH1 0x40 MLOAD PUSH32 0x8C379A000000000000000000000000000000000000000000000000000000000 DUP2 MSTORE PUSH1 0x4 ADD PUSH2 0xB2A SWAP1 PUSH2 0x2796 JUMP JUMPDEST PUSH1 0x40 MLOAD DUP1 SWAP2 SUB SWAP1 REVERT JUMPDEST PUSH1 0x0 PUSH1 0x5 SLOAD EQ ISZERO PUSH2 0xB79 JUMPI PUSH1 0x40 MLOAD PUSH32 0x8C379A000000000000000000000000000000000000000000000000000000000 DUP2 MSTORE PUSH1 0x4 ADD PUSH2 0xB70 SWAP1 PUSH2 0x2776 JUMP JUMPDEST PUSH1 0x40 MLOAD DUP1 SWAP2 SUB SWAP1 REVERT JUMPDEST PUSH1 0x4 DUP3 LT DUP1 ISZERO PUSH2 0xB89 JUMPI POP PUSH1 0x0 DUP3 GT JUMPDEST PUSH2 0xBC8 JUMPI PUSH1 0x40 MLOAD PUSH32 0x8C379A000000000000000000000000000000000000000000000000000000000 DUP2 MSTORE PUSH1 0x4 ADD PUSH2 0xBBF SWAP1 PUSH2 0x2736 JUMP JUMPDEST PUSH1 0x40 MLOAD DUP1 SWAP2 SUB SWAP1 REVERT JUMPDEST PUSH2 0x3E8 PUSH1 0x3 SLOAD LT PUSH2 0xC0E JUMPI PUSH1 0x40 MLOAD PUSH32 0x8C379A000000000000000000000000000000000000000000000000000000000 DUP2 MSTORE PUSH1 0x4 ADD PUSH2 0xC05 SWAP1 PUSH2 0x27B6 JUMP JUMPDEST PUSH1 0x40 MLOAD DUP1 SWAP2 SUB SWAP1 REVERT JUMPDEST PUSH1 0x0 PUSH1 0x5 SLOAD EQ ISZERO PUSH2 0xC54 JUMPI PUSH1 0x40 MLOAD PUSH32 0x8C379A000000000000000000000000000000000000000000000000000000000 DUP2 MSTORE PUSH1 0x4 ADD PUSH2 0xC4B SWAP1 PUSH2 0x26B6 JUMP JUMPDEST PUSH1 0x40 MLOAD DUP1 SWAP2 SUB SWAP1 REVERT JUMPDEST PUSH1 0x0 PUSH1 0x60 PUSH1 0x0 PUSH1 0x3 PUSH8 0xFFFFFFFFFFFFFFFF DUP2 GT ISZERO PUSH2 0xC75 JUMPI PUSH2 0xC74 PUSH2 0x2CCC JUMP JUMPDEST JUMPDEST PUSH1 0x40 MLOAD SWAP1 DUP1 DUP3 MSTORE DUP1 PUSH1 0x20 MUL PUSH1 0x20 ADD DUP3 ADD PUSH1 0x40 MSTORE DUP1 ISZERO PUSH2 0xCA8 JUMPI DUP2 PUSH1 0x20 ADD JUMPDEST PUSH1 0x60 DUP2 MSTORE PUSH1 0x20 ADD SWAP1 PUSH1 0x1 SWAP1 SUB SWAP1 DUP2 PUSH2 0xC93 JUMPI SWAP1 POP JUMPDEST POP SWAP1 POP PUSH1 0x0 JUMPDEST DUP6 DUP2 LT ISZERO PUSH2 0xD22 JUMPI PUSH2 0xCBF DUP8 PUSH2 0x12BC JUMP JUMPDEST DUP1 SWAP5 POP DUP2 SWAP6 POP POP POP PUSH2 0xCD0 DUP5 PUSH2 0x14E2 JUMP JUMPDEST DUP4 PUSH1 0x40 MLOAD PUSH1 0x20 ADD PUSH2 0xCE2 SWAP3 SWAP2 SWAP1 PUSH2 0x248E JUMP JUMPDEST PUSH1 0x40 MLOAD PUSH1 0x20 DUP2 DUP4 SUB SUB DUP2 MSTORE SWAP1 PUSH1 0x40 MSTORE DUP3 DUP3 DUP2 MLOAD DUP2 LT PUSH2 0xD04 JUMPI PUSH2 0xD03 PUSH2 0x2C9D JUMP JUMPDEST JUMPDEST PUSH1 0x20 MUL PUSH1 0x20 ADD ADD DUP2 SWAP1 MSTORE POP DUP1 DUP1 PUSH2 0xD1A SWAP1 PUSH2 0x2B56 JUMP JUMPDEST SWAP2 POP POP PUSH2 0xCAE JUMP JUMPDEST POP DUP6 PUSH20 0xFFFFFFFFFFFFFFFFFFFFFFFFFFFFFFFFFFFFFFFF AND PUSH32 0xB4A5369904DCC0D74D8FB8BBCDEB51F356F20C722499D42A6DA95324E634C141 DUP3 PUSH1 0x40 MLOAD PUSH2 0xD69 SWAP2 SWAP1 PUSH2 0x25D5 JUMP JUMPDEST PUSH1 0x40 MLOAD DUP1 SWAP2 SUB SWAP1 LOG2 DUP1 SWAP4 POP POP POP POP SWAP3 SWAP2 POP POP JUMP JUMPDEST PUSH1 0x0 DUP1 PUSH1 0x0 PUSH1 0xE PUSH1 0x1 SWAP1 SLOAD SWAP1 PUSH2 0x100 EXP SWAP1 DIV PUSH20 0xFFFFFFFFFFFFFFFFFFFFFFFFFFFFFFFFFFFFFFFF AND PUSH20 0xFFFFFFFFFFFFFFFFFFFFFFFFFFFFFFFFFFFFFFFF AND PUSH2 0xDC3 PUSH2 0x12B4 JUMP JUMPDEST PUSH20 0xFFFFFFFFFFFFFFFFFFFFFFFFFFFFFFFFFFFFFFFF AND EQ PUSH2 0xE19 JUMPI PUSH1 0x40 MLOAD PUSH32 0x8C379A000000000000000000000000000000000000000000000000000000000 DUP2 MSTORE PUSH1 0x4 ADD PUSH2 0xE10 SWAP1 PUSH2 0x2756 JUMP JUMPDEST PUSH1 0x40 MLOAD DUP1 SWAP2 SUB SWAP1 REVERT JUMPDEST PUSH1 0x0 ISZERO ISZERO PUSH1 0xE PUSH1 0x0 SWAP1 SLOAD SWAP1 PUSH2 0x100 EXP SWAP1 DIV PUSH1 0xFF AND ISZERO ISZERO EQ PUSH2 0xE6F JUMPI PUSH1 0x40 MLOAD PUSH32 0x8C379A000000000000000000000000000000000000000000000000000000000 DUP2 MSTORE PUSH1 0x4 ADD PUSH2 0xE66 SWAP1 PUSH2 0x2796 JUMP JUMPDEST PUSH1 0x40 MLOAD DUP1 SWAP2 SUB SWAP1 REVERT JUMPDEST PUSH1 0x6 SLOAD PUSH1 0x7 SLOAD PUSH1 0x8 SLOAD SWAP3 POP SWAP3 POP SWAP3 POP SWAP1 SWAP2 SWAP3 JUMP JUMPDEST PUSH1 0x0 PUSH1 0x5 SLOAD SWAP1 POP SWAP1 JUMP JUMPDEST PUSH1 0x0 PUSH1 0xE PUSH1 0x1 SWAP1 SLOAD SWAP1 PUSH2 0x100 EXP SWAP1 DIV PUSH20 0xFFFFFFFFFFFFFFFFFFFFFFFFFFFFFFFFFFFFFFFF AND PUSH20 0xFFFFFFFFFFFFFFFFFFFFFFFFFFFFFFFFFFFFFFFF AND PUSH2 0xED0 PUSH2 0x12B4 JUMP JUMPDEST PUSH20 0xFFFFFFFFFFFFFFFFFFFFFFFFFFFFFFFFFFFFFFFF AND EQ PUSH2 0xF26 JUMPI PUSH1 0x40 MLOAD PUSH32 0x8C379A000000000000000000000000000000000000000000000000000000000 DUP2 MSTORE PUSH1 0x4 ADD PUSH2 0xF1D SWAP1 PUSH2 0x2756 JUMP JUMPDEST PUSH1 0x40 MLOAD DUP1 SWAP2 SUB SWAP1 REVERT JUMPDEST SELFBALANCE SWAP1 POP SWAP1 JUMP JUMPDEST PUSH1 0x2 DUP2 JUMP JUMPDEST PUSH1 0xE PUSH1 0x1 SWAP1 SLOAD SWAP1 PUSH2 0x100 EXP SWAP1 DIV PUSH20 0xFFFFFFFFFFFFFFFFFFFFFFFFFFFFFFFFFFFFFFFF AND PUSH20 0xFFFFFFFFFFFFFFFFFFFFFFFFFFFFFFFFFFFFFFFF AND PUSH2 0xF72 PUSH2 0x12B4 JUMP JUMPDEST PUSH20 0xFFFFFFFFFFFFFFFFFFFFFFFFFFFFFFFFFFFFFFFF AND EQ PUSH2 0xFC8 JUMPI PUSH1 0x40 MLOAD PUSH32 0x8C379A000000000000000000000000000000000000000000000000000000000 DUP2 MSTORE PUSH1 0x4 ADD PUSH2 0xFBF SWAP1 PUSH2 0x2756 JUMP JUMPDEST PUSH1 0x40 MLOAD DUP1 SWAP2 SUB SWAP1 REVERT JUMPDEST PUSH1 0x0 ISZERO ISZERO PUSH1 0xE PUSH1 0x0 SWAP1 SLOAD SWAP1 PUSH2 0x100 EXP SWAP1 DIV PUSH1 0xFF AND ISZERO ISZERO EQ PUSH2 0x101E JUMPI PUSH1 0x40 MLOAD PUSH32 0x8C379A000000000000000000000000000000000000000000000000000000000 DUP2 MSTORE PUSH1 0x4 ADD PUSH2 0x1015 SWAP1 PUSH2 0x2796 JUMP JUMPDEST PUSH1 0x40 MLOAD DUP1 SWAP2 SUB SWAP1 REVERT JUMPDEST DUP1 PUSH1 0xE PUSH1 0x1 PUSH2 0x100 EXP DUP2 SLOAD DUP2 PUSH20 0xFFFFFFFFFFFFFFFFFFFFFFFFFFFFFFFFFFFFFFFF MUL NOT AND SWAP1 DUP4 PUSH20 0xFFFFFFFFFFFFFFFFFFFFFFFFFFFFFFFFFFFFFFFF AND MUL OR SWAP1 SSTORE POP POP JUMP JUMPDEST PUSH1 0xE PUSH1 0x1 SWAP1 SLOAD SWAP1 PUSH2 0x100 EXP SWAP1 DIV PUSH20 0xFFFFFFFFFFFFFFFFFFFFFFFFFFFFFFFFFFFFFFFF AND PUSH20 0xFFFFFFFFFFFFFFFFFFFFFFFFFFFFFFFFFFFFFFFF AND PUSH2 0x10A3 PUSH2 0x12B4 JUMP JUMPDEST PUSH20 0xFFFFFFFFFFFFFFFFFFFFFFFFFFFFFFFFFFFFFFFF AND EQ PUSH2 0x10F9 JUMPI PUSH1 0x40 MLOAD PUSH32 0x8C379A000000000000000000000000000000000000000000000000000000000 DUP2 MSTORE PUSH1 0x4 ADD PUSH2 0x10F0 SWAP1 PUSH2 0x2756 JUMP JUMPDEST PUSH1 0x40 MLOAD DUP1 SWAP2 SUB SWAP1 REVERT JUMPDEST PUSH1 0x0 ISZERO ISZERO PUSH1 0xE PUSH1 0x0 SWAP1 SLOAD SWAP1 PUSH2 0x100 EXP SWAP1 DIV PUSH1 0xFF AND ISZERO ISZERO EQ PUSH2 0x114F JUMPI PUSH1 0x40 MLOAD PUSH32 0x8C379A000000000000000000000000000000000000000000000000000000000 DUP2 MSTORE PUSH1 0x4 ADD PUSH2 0x1146 SWAP1 PUSH2 0x2716 JUMP JUMPDEST PUSH1 0x40 MLOAD DUP1 SWAP2 SUB SWAP1 REVERT JUMPDEST PUSH1 0x1 PUSH1 0xE PUSH1 0x0 PUSH2 0x100 EXP DUP2 SLOAD DUP2 PUSH1 0xFF MUL NOT AND SWAP1 DUP4 ISZERO ISZERO MUL OR SWAP1 SSTORE POP JUMP JUMPDEST PUSH1 0xE PUSH1 0x0 SWAP1 SLOAD SWAP1 PUSH2 0x100 EXP SWAP1 DIV PUSH1 0xFF AND DUP2 JUMP JUMPDEST PUSH1 0xE PUSH1 0x1 SWAP1 SLOAD SWAP1 PUSH2 0x100 EXP SWAP1 DIV PUSH20 0xFFFFFFFFFFFFFFFFFFFFFFFFFFFFFFFFFFFFFFFF AND DUP2 JUMP JUMPDEST PUSH1 0x0 PUSH1 0xE PUSH1 0x1 SWAP1 SLOAD SWAP1 PUSH2 0x100 EXP SWAP1 DIV PUSH20 0xFFFFFFFFFFFFFFFFFFFFFFFFFFFFFFFFFFFFFFFF AND PUSH20 0xFFFFFFFFFFFFFFFFFFFFFFFFFFFFFFFFFFFFFFFF AND CALLER PUSH20 0xFFFFFFFFFFFFFFFFFFFFFFFFFFFFFFFFFFFFFFFF AND EQ ISZERO PUSH2 0x1206 JUMPI PUSH1 0x1 SWAP1 POP PUSH2 0x120B JUMP JUMPDEST PUSH1 0x0 SWAP1 POP JUMPDEST SWAP1 JUMP JUMPDEST PUSH1 0x0 DUP2 JUMP JUMPDEST PUSH1 0xE PUSH1 0x1 SWAP1 SLOAD SWAP1 PUSH2 0x100 EXP SWAP1 DIV PUSH20 0xFFFFFFFFFFFFFFFFFFFFFFFFFFFFFFFFFFFFFFFF AND PUSH20 0xFFFFFFFFFFFFFFFFFFFFFFFFFFFFFFFFFFFFFFFF AND PUSH2 0x1254 PUSH2 0x12B4 JUMP JUMPDEST PUSH20 0xFFFFFFFFFFFFFFFFFFFFFFFFFFFFFFFFFFFFFFFF AND EQ PUSH2 0x12AA JUMPI PUSH1 0x40 MLOAD PUSH32 0x8C379A000000000000000000000000000000000000000000000000000000000 DUP2 MSTORE PUSH1 0x4 ADD PUSH2 0x12A1 SWAP1 PUSH2 0x2756 JUMP JUMPDEST PUSH1 0x40 MLOAD DUP1 SWAP2 SUB SWAP1 REVERT JUMPDEST DUP1 PUSH1 0x5 DUP2 SWAP1 SSTORE POP POP JUMP JUMPDEST PUSH1 0x0 CALLER SWAP1 POP SWAP1 JUMP JUMPDEST PUSH1 0x0 PUSH1 0x60 PUSH1 0x0 ISZERO ISZERO PUSH1 0xE PUSH1 0x0 SWAP1 SLOAD SWAP1 PUSH2 0x100 EXP SWAP1 DIV PUSH1 0xFF AND ISZERO ISZERO EQ PUSH2 0x1316 JUMPI PUSH1 0x40 MLOAD PUSH32 0x8C379A000000000000000000000000000000000000000000000000000000000 DUP2 MSTORE PUSH1 0x4 ADD PUSH2 0x130D SWAP1 PUSH2 0x2796 JUMP JUMPDEST PUSH1 0x40 MLOAD DUP1 SWAP2 SUB SWAP1 REVERT JUMPDEST PUSH1 0x0 PUSH2 0x1320 PUSH2 0x169D JUMP JUMPDEST SWAP1 POP PUSH1 0x0 PUSH2 0x132D DUP3 PUSH2 0x172D JUMP JUMPDEST SWAP1 POP PUSH2 0x13C7 DUP6 DUP3 PUSH1 0x4 SLOAD PUSH1 0x2 DUP1 SLOAD PUSH2 0x1344 SWAP1 PUSH2 0x2AF3 JUMP JUMPDEST DUP1 PUSH1 0x1F ADD PUSH1 0x20 DUP1 SWAP2 DIV MUL PUSH1 0x20 ADD PUSH1 0x40 MLOAD SWAP1 DUP2 ADD PUSH1 0x40 MSTORE DUP1 SWAP3 SWAP2 SWAP1 DUP2 DUP2 MSTORE PUSH1 0x20 ADD DUP3 DUP1 SLOAD PUSH2 0x1370 SWAP1 PUSH2 0x2AF3 JUMP JUMPDEST DUP1 ISZERO PUSH2 0x13BD JUMPI DUP1 PUSH1 0x1F LT PUSH2 0x1392 JUMPI PUSH2 0x100 DUP1 DUP4 SLOAD DIV MUL DUP4 MSTORE SWAP2 PUSH1 0x20 ADD SWAP2 PUSH2 0x13BD JUMP JUMPDEST DUP3 ADD SWAP2 SWAP1 PUSH1 0x0 MSTORE PUSH1 0x20 PUSH1 0x0 KECCAK256 SWAP1 JUMPDEST DUP2 SLOAD DUP2 MSTORE SWAP1 PUSH1 0x1 ADD SWAP1 PUSH1 0x20 ADD DUP1 DUP4 GT PUSH2 0x13A0 JUMPI DUP3 SWAP1 SUB PUSH1 0x1F AND DUP3 ADD SWAP2 JUMPDEST POP POP POP POP POP PUSH2 0x19F9 JUMP JUMPDEST PUSH1 0x3 PUSH1 0x0 DUP2 SLOAD DUP1 SWAP3 SWAP2 SWAP1 PUSH2 0x13DA SWAP1 PUSH2 0x2B56 JUMP JUMPDEST SWAP2 SWAP1 POP SSTORE POP PUSH1 0xC PUSH1 0x0 DUP7 PUSH20 0xFFFFFFFFFFFFFFFFFFFFFFFFFFFFFFFFFFFFFFFF AND PUSH20 0xFFFFFFFFFFFFFFFFFFFFFFFFFFFFFFFFFFFFFFFF AND DUP2 MSTORE PUSH1 0x20 ADD SWAP1 DUP2 MSTORE PUSH1 0x20 ADD PUSH1 0x0 KECCAK256 PUSH1 0x0 ADD DUP2 SWAP1 DUP1 PUSH1 0x1 DUP2 SLOAD ADD DUP1 DUP3 SSTORE DUP1 SWAP2 POP POP PUSH1 0x1 SWAP1 SUB SWAP1 PUSH1 0x0 MSTORE PUSH1 0x20 PUSH1 0x0 KECCAK256 ADD PUSH1 0x0 SWAP1 SWAP2 SWAP1 SWAP2 SWAP1 SWAP2 POP SSTORE DUP1 PUSH1 0x2 DUP1 DUP1 SLOAD PUSH2 0x1457 SWAP1 PUSH2 0x2AF3 JUMP JUMPDEST DUP1 PUSH1 0x1F ADD PUSH1 0x20 DUP1 SWAP2 DIV MUL PUSH1 0x20 ADD PUSH1 0x40 MLOAD SWAP1 DUP2 ADD PUSH1 0x40 MSTORE DUP1 SWAP3 SWAP2 SWAP1 DUP2 DUP2 MSTORE PUSH1 0x20 ADD DUP3 DUP1 SLOAD PUSH2 0x1483 SWAP1 PUSH2 0x2AF3 JUMP JUMPDEST DUP1 ISZERO PUSH2 0x14D0 JUMPI DUP1 PUSH1 0x1F LT PUSH2 0x14A5 JUMPI PUSH2 0x100 DUP1 DUP4 SLOAD DIV MUL DUP4 MSTORE SWAP2 PUSH1 0x20 ADD SWAP2 PUSH2 0x14D0 JUMP JUMPDEST DUP3 ADD SWAP2 SWAP1 PUSH1 0x0 MSTORE PUSH1 0x20 PUSH1 0x0 KECCAK256 SWAP1 JUMPDEST DUP2 SLOAD DUP2 MSTORE SWAP1 PUSH1 0x1 ADD SWAP1 PUSH1 0x20 ADD DUP1 DUP4 GT PUSH2 0x14B3 JUMPI DUP3 SWAP1 SUB PUSH1 0x1F AND DUP3 ADD SWAP2 JUMPDEST POP POP POP POP POP SWAP1 POP SWAP4 POP SWAP4 POP POP POP SWAP2 POP SWAP2 JUMP JUMPDEST PUSH1 0x60 PUSH1 0x0 DUP3 EQ ISZERO PUSH2 0x152A JUMPI PUSH1 0x40 MLOAD DUP1 PUSH1 0x40 ADD PUSH1 0x40 MSTORE DUP1 PUSH1 0x1 DUP2 MSTORE PUSH1 0x20 ADD PUSH32 0x3000000000000000000000000000000000000000000000000000000000000000 DUP2 MSTORE POP SWAP1 POP PUSH2 0x163E JUMP JUMPDEST PUSH1 0x0 DUP3 SWAP1 POP PUSH1 0x0 JUMPDEST PUSH1 0x0 DUP3 EQ PUSH2 0x155C JUMPI DUP1 DUP1 PUSH2 0x1545 SWAP1 PUSH2 0x2B56 JUMP JUMPDEST SWAP2 POP POP PUSH1 0xA DUP3 PUSH2 0x1555 SWAP2 SWAP1 PUSH2 0x297B JUMP JUMPDEST SWAP2 POP PUSH2 0x1532 JUMP JUMPDEST PUSH1 0x0 DUP2 PUSH8 0xFFFFFFFFFFFFFFFF DUP2 GT ISZERO PUSH2 0x1578 JUMPI PUSH2 0x1577 PUSH2 0x2CCC JUMP JUMPDEST JUMPDEST PUSH1 0x40 MLOAD SWAP1 DUP1 DUP3 MSTORE DUP1 PUSH1 0x1F ADD PUSH1 0x1F NOT AND PUSH1 0x20 ADD DUP3 ADD PUSH1 0x40 MSTORE DUP1 ISZERO PUSH2 0x15AA JUMPI DUP2 PUSH1 0x20 ADD PUSH1 0x1 DUP3 MUL DUP1 CALLDATASIZE DUP4 CALLDATACOPY DUP1 DUP3 ADD SWAP2 POP POP SWAP1 POP JUMPDEST POP SWAP1 POP JUMPDEST PUSH1 0x0 DUP6 EQ PUSH2 0x1637 JUMPI PUSH1 0x1 DUP3 PUSH2 0x15C3 SWAP2 SWAP1 PUSH2 0x2A06 JUMP JUMPDEST SWAP2 POP PUSH1 0xA DUP6 PUSH2 0x15D2 SWAP2 SWAP1 PUSH2 0x2BDF JUMP JUMPDEST PUSH1 0x30 PUSH2 0x15DE SWAP2 SWAP1 PUSH2 0x2925 JUMP JUMPDEST PUSH1 0xF8 SHL DUP2 DUP4 DUP2 MLOAD DUP2 LT PUSH2 0x15F4 JUMPI PUSH2 0x15F3 PUSH2 0x2C9D JUMP JUMPDEST JUMPDEST PUSH1 0x20 ADD ADD SWAP1 PUSH31 0xFFFFFFFFFFFFFFFFFFFFFFFFFFFFFFFFFFFFFFFFFFFFFFFFFFFFFFFFFFFFFF NOT AND SWAP1 DUP2 PUSH1 0x0 BYTE SWAP1 MSTORE8 POP PUSH1 0xA DUP6 PUSH2 0x1630 SWAP2 SWAP1 PUSH2 0x297B JUMP JUMPDEST SWAP5 POP PUSH2 0x15AE JUMP JUMPDEST DUP1 SWAP4 POP POP POP POP JUMPDEST SWAP2 SWAP1 POP JUMP JUMPDEST DUP1 PUSH1 0xD PUSH1 0x0 DUP5 PUSH20 0xFFFFFFFFFFFFFFFFFFFFFFFFFFFFFFFFFFFFFFFF AND PUSH20 0xFFFFFFFFFFFFFFFFFFFFFFFFFFFFFFFFFFFFFFFF AND DUP2 MSTORE PUSH1 0x20 ADD SWAP1 DUP2 MSTORE PUSH1 0x20 ADD PUSH1 0x0 KECCAK256 PUSH1 0x0 DUP3 DUP3 SLOAD PUSH2 0x1692 SWAP2 SWAP1 PUSH2 0x2925 JUMP JUMPDEST SWAP3 POP POP DUP2 SWAP1 SSTORE POP POP POP JUMP JUMPDEST PUSH1 0x0 DUP1 PUSH1 0x6 SLOAD PUSH1 0x7 SLOAD PUSH1 0x8 SLOAD PUSH1 0x3 SLOAD TIMESTAMP PUSH2 0x16B7 SWAP2 SWAP1 PUSH2 0x2925 JUMP JUMPDEST PUSH2 0x16C1 SWAP2 SWAP1 PUSH2 0x2925 JUMP JUMPDEST PUSH2 0x16CB SWAP2 SWAP1 PUSH2 0x2925 JUMP JUMPDEST PUSH2 0x16D5 SWAP2 SWAP1 PUSH2 0x2925 JUMP JUMPDEST CALLER PUSH1 0xE PUSH1 0x1 SWAP1 SLOAD SWAP1 PUSH2 0x100 EXP SWAP1 DIV PUSH20 0xFFFFFFFFFFFFFFFFFFFFFFFFFFFFFFFFFFFFFFFF AND PUSH1 0x40 MLOAD PUSH1 0x20 ADD PUSH2 0x170B SWAP4 SWAP3 SWAP2 SWAP1 PUSH2 0x2523 JUMP JUMPDEST PUSH1 0x40 MLOAD PUSH1 0x20 DUP2 DUP4 SUB SUB DUP2 MSTORE SWAP1 PUSH1 0x40 MSTORE DUP1 MLOAD SWAP1 PUSH1 0x20 ADD KECCAK256 PUSH1 0x0 SHR SWAP1 POP DUP1 SWAP2 POP POP SWAP1 JUMP JUMPDEST PUSH1 0x0 DUP1 ISZERO ISZERO PUSH1 0xE PUSH1 0x0 SWAP1 SLOAD SWAP1 PUSH2 0x100 EXP SWAP1 DIV PUSH1 0xFF AND ISZERO ISZERO EQ PUSH2 0x1784 JUMPI PUSH1 0x40 MLOAD PUSH32 0x8C379A000000000000000000000000000000000000000000000000000000000 DUP2 MSTORE PUSH1 0x4 ADD PUSH2 0x177B SWAP1 PUSH2 0x2796 JUMP JUMPDEST PUSH1 0x40 MLOAD DUP1 SWAP2 SUB SWAP1 REVERT JUMPDEST PUSH1 0x0 PUSH1 0x1 PUSH1 0x14 DUP5 PUSH2 0x1795 SWAP2 SWAP1 PUSH2 0x2BDF JUMP JUMPDEST EQ DUP1 ISZERO PUSH2 0x17A5 JUMPI POP PUSH1 0x9 SLOAD PUSH1 0x6 SLOAD LT JUMPDEST ISZERO PUSH2 0x180F JUMPI PUSH1 0x6 PUSH1 0x0 DUP2 SLOAD DUP1 SWAP3 SWAP2 SWAP1 PUSH2 0x17BD SWAP1 PUSH2 0x2B56 JUMP JUMPDEST SWAP2 SWAP1 POP SSTORE POP PUSH2 0x17CD PUSH1 0x6 SLOAD PUSH2 0x14E2 JUMP JUMPDEST PUSH1 0x40 MLOAD PUSH1 0x20 ADD PUSH2 0x17DD SWAP2 SWAP1 PUSH2 0x24BD JUMP JUMPDEST PUSH1 0x40 MLOAD PUSH1 0x20 DUP2 DUP4 SUB SUB DUP2 MSTORE SWAP1 PUSH1 0x40 MSTORE PUSH1 0x2 SWAP1 DUP1 MLOAD SWAP1 PUSH1 0x20 ADD SWAP1 PUSH2 0x1801 SWAP3 SWAP2 SWAP1 PUSH2 0x1E0B JUMP JUMPDEST POP PUSH1 0x0 SWAP1 POP DUP1 SWAP2 POP POP PUSH2 0x19F4 JUMP JUMPDEST PUSH1 0x3 PUSH1 0x14 DUP5 PUSH2 0x181E SWAP2 SWAP1 PUSH2 0x2BDF JUMP JUMPDEST GT ISZERO DUP1 ISZERO PUSH2 0x182F JUMPI POP PUSH1 0xA SLOAD PUSH1 0x7 SLOAD LT JUMPDEST ISZERO PUSH2 0x1899 JUMPI PUSH1 0x7 PUSH1 0x0 DUP2 SLOAD DUP1 SWAP3 SWAP2 SWAP1 PUSH2 0x1847 SWAP1 PUSH2 0x2B56 JUMP JUMPDEST SWAP2 SWAP1 POP SSTORE POP PUSH2 0x1857 PUSH1 0x7 SLOAD PUSH2 0x14E2 JUMP JUMPDEST PUSH1 0x40 MLOAD PUSH1 0x20 ADD PUSH2 0x1867 SWAP2 SWAP1 PUSH2 0x24DF JUMP JUMPDEST PUSH1 0x40 MLOAD PUSH1 0x20 DUP2 DUP4 SUB SUB DUP2 MSTORE SWAP1 PUSH1 0x40 MSTORE PUSH1 0x2 SWAP1 DUP1 MLOAD SWAP1 PUSH1 0x20 ADD SWAP1 PUSH2 0x188B SWAP3 SWAP2 SWAP1 PUSH2 0x1E0B JUMP JUMPDEST POP PUSH1 0x1 SWAP1 POP DUP1 SWAP2 POP POP PUSH2 0x19F4 JUMP JUMPDEST PUSH1 0x3 PUSH1 0x14 DUP5 PUSH2 0x18A8 SWAP2 SWAP1 PUSH2 0x2BDF JUMP JUMPDEST GT DUP1 ISZERO PUSH2 0x18B8 JUMPI POP PUSH1 0xB SLOAD PUSH1 0x8 SLOAD LT JUMPDEST ISZERO PUSH2 0x1922 JUMPI PUSH1 0x8 PUSH1 0x0 DUP2 SLOAD DUP1 SWAP3 SWAP2 SWAP1 PUSH2 0x18D0 SWAP1 PUSH2 0x2B56 JUMP JUMPDEST SWAP2 SWAP1 POP SSTORE POP PUSH2 0x18E0 PUSH1 0x8 SLOAD PUSH2 0x14E2 JUMP JUMPDEST PUSH1 0x40 MLOAD PUSH1 0x20 ADD PUSH2 0x18F0 SWAP2 SWAP1 PUSH2 0x2501 JUMP JUMPDEST PUSH1 0x40 MLOAD PUSH1 0x20 DUP2 DUP4 SUB SUB DUP2 MSTORE SWAP1 PUSH1 0x40 MSTORE PUSH1 0x2 SWAP1 DUP1 MLOAD SWAP1 PUSH1 0x20 ADD SWAP1 PUSH2 0x1914 SWAP3 SWAP2 SWAP1 PUSH2 0x1E0B JUMP JUMPDEST POP PUSH1 0x2 SWAP1 POP DUP1 SWAP2 POP POP PUSH2 0x19F4 JUMP JUMPDEST PUSH1 0xA SLOAD PUSH1 0x7 SLOAD LT ISZERO PUSH2 0x1993 JUMPI PUSH1 0x1 SWAP1 POP PUSH1 0x7 PUSH1 0x0 DUP2 SLOAD DUP1 SWAP3 SWAP2 SWAP1 PUSH2 0x1945 SWAP1 PUSH2 0x2B56 JUMP JUMPDEST SWAP2 SWAP1 POP SSTORE POP PUSH2 0x1955 PUSH1 0x7 SLOAD PUSH2 0x14E2 JUMP JUMPDEST PUSH1 0x40 MLOAD PUSH1 0x20 ADD PUSH2 0x1965 SWAP2 SWAP1 PUSH2 0x24DF JUMP JUMPDEST PUSH1 0x40 MLOAD PUSH1 0x20 DUP2 DUP4 SUB SUB DUP2 MSTORE SWAP1 PUSH1 0x40 MSTORE PUSH1 0x2 SWAP1 DUP1 MLOAD SWAP1 PUSH1 0x20 ADD SWAP1 PUSH2 0x1989 SWAP3 SWAP2 SWAP1 PUSH2 0x1E0B JUMP JUMPDEST POP DUP1 SWAP2 POP POP PUSH2 0x19F4 JUMP JUMPDEST PUSH1 0x0 SWAP1 POP PUSH1 0x6 PUSH1 0x0 DUP2 SLOAD DUP1 SWAP3 SWAP2 SWAP1 PUSH2 0x19AA SWAP1 PUSH2 0x2B56 JUMP JUMPDEST SWAP2 SWAP1 POP SSTORE POP PUSH2 0x19BA PUSH1 0x6 SLOAD PUSH2 0x14E2 JUMP JUMPDEST PUSH1 0x40 MLOAD PUSH1 0x20 ADD PUSH2 0x19CA SWAP2 SWAP1 PUSH2 0x24BD JUMP JUMPDEST PUSH1 0x40 MLOAD PUSH1 0x20 DUP2 DUP4 SUB SUB DUP2 MSTORE SWAP1 PUSH1 0x40 MSTORE PUSH1 0x2 SWAP1 DUP1 MLOAD SWAP1 PUSH1 0x20 ADD SWAP1 PUSH2 0x19EE SWAP3 SWAP2 SWAP1 PUSH2 0x1E0B JUMP JUMPDEST POP DUP1 SWAP2 POP POP JUMPDEST SWAP2 SWAP1 POP JUMP JUMPDEST PUSH1 0x0 PUSH20 0xFFFFFFFFFFFFFFFFFFFFFFFFFFFFFFFFFFFFFFFF AND DUP5 PUSH20 0xFFFFFFFFFFFFFFFFFFFFFFFFFFFFFFFFFFFFFFFF AND EQ ISZERO PUSH2 0x1A69 JUMPI PUSH1 0x40 MLOAD PUSH32 0x8C379A000000000000000000000000000000000000000000000000000000000 DUP2 MSTORE PUSH1 0x4 ADD PUSH2 0x1A60 SWAP1 PUSH2 0x27D6 JUMP JUMPDEST PUSH1 0x40 MLOAD DUP1 SWAP2 SUB SWAP1 REVERT JUMPDEST PUSH1 0x0 PUSH2 0x1A73 PUSH2 0x12B4 JUMP JUMPDEST SWAP1 POP PUSH2 0x1A94 DUP2 PUSH1 0x0 DUP8 PUSH2 0x1A85 DUP9 PUSH2 0x1B8F JUMP JUMPDEST PUSH2 0x1A8E DUP9 PUSH2 0x1B8F JUMP JUMPDEST DUP8 PUSH2 0x1C09 JUMP JUMPDEST DUP3 PUSH1 0x0 DUP1 DUP7 DUP2 MSTORE PUSH1 0x20 ADD SWAP1 DUP2 MSTORE PUSH1 0x20 ADD PUSH1 0x0 KECCAK256 PUSH1 0x0 DUP8 PUSH20 0xFFFFFFFFFFFFFFFFFFFFFFFFFFFFFFFFFFFFFFFF AND PUSH20 0xFFFFFFFFFFFFFFFFFFFFFFFFFFFFFFFFFFFFFFFF AND DUP2 MSTORE PUSH1 0x20 ADD SWAP1 DUP2 MSTORE PUSH1 0x20 ADD PUSH1 0x0 KECCAK256 PUSH1 0x0 DUP3 DUP3 SLOAD PUSH2 0x1AF3 SWAP2 SWAP1 PUSH2 0x2925 JUMP JUMPDEST SWAP3 POP POP DUP2 SWAP1 SSTORE POP DUP5 PUSH20 0xFFFFFFFFFFFFFFFFFFFFFFFFFFFFFFFFFFFFFFFF AND PUSH1 0x0 PUSH20 0xFFFFFFFFFFFFFFFFFFFFFFFFFFFFFFFFFFFFFFFF AND DUP3 PUSH20 0xFFFFFFFFFFFFFFFFFFFFFFFFFFFFFFFFFFFFFFFF AND PUSH32 0xC3D58168C5AE7397731D063D5BBF3D657854427343F4C083240F7AACAA2D0F62 DUP8 DUP8 PUSH1 0x40 MLOAD PUSH2 0x1B71 SWAP3 SWAP2 SWAP1 PUSH2 0x2811 JUMP JUMPDEST PUSH1 0x40 MLOAD DUP1 SWAP2 SUB SWAP1 LOG4 PUSH2 0x1B88 DUP2 PUSH1 0x0 DUP8 DUP8 DUP8 DUP8 PUSH2 0x1C11 JUMP JUMPDEST POP POP POP POP POP JUMP JUMPDEST PUSH1 0x60 PUSH1 0x0 PUSH1 0x1 PUSH8 0xFFFFFFFFFFFFFFFF DUP2 GT ISZERO PUSH2 0x1BAE JUMPI PUSH2 0x1BAD PUSH2 0x2CCC JUMP JUMPDEST JUMPDEST PUSH1 0x40 MLOAD SWAP1 DUP1 DUP3 MSTORE DUP1 PUSH1 0x20 MUL PUSH1 0x20 ADD DUP3 ADD PUSH1 0x40 MSTORE DUP1 ISZERO PUSH2 0x1BDC JUMPI DUP2 PUSH1 0x20 ADD PUSH1 0x20 DUP3 MUL DUP1 CALLDATASIZE DUP4 CALLDATACOPY DUP1 DUP3 ADD SWAP2 POP POP SWAP1 POP JUMPDEST POP SWAP1 POP DUP3 DUP2 PUSH1 0x0 DUP2 MLOAD DUP2 LT PUSH2 0x1BF4 JUMPI PUSH2 0x1BF3 PUSH2 0x2C9D JUMP JUMPDEST JUMPDEST PUSH1 0x20 MUL PUSH1 0x20 ADD ADD DUP2 DUP2 MSTORE POP POP DUP1 SWAP2 POP POP SWAP2 SWAP1 POP JUMP JUMPDEST POP POP POP POP POP POP JUMP JUMPDEST PUSH2 0x1C30 DUP5 PUSH20 0xFFFFFFFFFFFFFFFFFFFFFFFFFFFFFFFFFFFFFFFF AND PUSH2 0x1DF8 JUMP JUMPDEST ISZERO PUSH2 0x1DF0 JUMPI DUP4 PUSH20 0xFFFFFFFFFFFFFFFFFFFFFFFFFFFFFFFFFFFFFFFF AND PUSH4 0xAE89A248 DUP8 DUP8 DUP7 DUP7 DUP7 PUSH1 0x40 MLOAD DUP7 PUSH4 0xFFFFFFFF AND PUSH1 0xE0 SHL DUP2 MSTORE PUSH1 0x4 ADD PUSH2 0x1C76 SWAP6 SWAP5 SWAP4 SWAP3 SWAP2 SWAP1 PUSH2 0x257B JUMP JUMPDEST PUSH1 0x20 PUSH1 0x40 MLOAD DUP1 DUP4 SUB DUP2 PUSH1 0x0 DUP8 DUP1 EXTCODESIZE ISZERO DUP1 ISZERO PUSH2 0x1C90 JUMPI PUSH1 0x0 DUP1 REVERT JUMPDEST POP GAS CALL SWAP3 POP POP POP DUP1 ISZERO PUSH2 0x1CC1 JUMPI POP PUSH1 0x40 MLOAD RETURNDATASIZE PUSH1 0x1F NOT PUSH1 0x1F DUP3 ADD AND DUP3 ADD DUP1 PUSH1 0x40 MSTORE POP DUP2 ADD SWAP1 PUSH2 0x1CBE SWAP2 SWAP1 PUSH2 0x1FAF JUMP JUMPDEST PUSH1 0x1 JUMPDEST PUSH2 0x1D67 JUMPI PUSH2 0x1CCD PUSH2 0x2CFB JUMP JUMPDEST DUP1 PUSH4 0x8C379A0 EQ ISZERO PUSH2 0x1D2A JUMPI POP PUSH2 0x1CE2 PUSH2 0x3078 JUMP JUMPDEST DUP1 PUSH2 0x1CED JUMPI POP PUSH2 0x1D2C JUMP JUMPDEST DUP1 PUSH1 0x40 MLOAD PUSH32 0x8C379A000000000000000000000000000000000000000000000000000000000 DUP2 MSTORE PUSH1 0x4 ADD PUSH2 0x1D21 SWAP2 SWAP1 PUSH2 0x2634 JUMP JUMPDEST PUSH1 0x40 MLOAD DUP1 SWAP2 SUB SWAP1 REVERT JUMPDEST POP JUMPDEST PUSH1 0x40 MLOAD PUSH32 0x8C379A000000000000000000000000000000000000000000000000000000000 DUP2 MSTORE PUSH1 0x4 ADD PUSH2 0x1D5E SWAP1 PUSH2 0x2656 JUMP JUMPDEST PUSH1 0x40 MLOAD DUP1 SWAP2 SUB SWAP1 REVERT JUMPDEST PUSH4 0xAE89A248 PUSH1 0xE0 SHL PUSH28 0xFFFFFFFFFFFFFFFFFFFFFFFFFFFFFFFFFFFFFFFFFFFFFFFFFFFFFFFF NOT AND DUP2 PUSH28 0xFFFFFFFFFFFFFFFFFFFFFFFFFFFFFFFFFFFFFFFFFFFFFFFFFFFFFFFF NOT AND EQ PUSH2 0x1DEE JUMPI PUSH1 0x40 MLOAD PUSH32 0x8C379A000000000000000000000000000000000000000000000000000000000 DUP2 MSTORE PUSH1 0x4 ADD PUSH2 0x1DE5 SWAP1 PUSH2 0x2676 JUMP JUMPDEST PUSH1 0x40 MLOAD DUP1 SWAP2 SUB SWAP1 REVERT JUMPDEST POP JUMPDEST POP POP POP POP POP POP JUMP JUMPDEST PUSH1 0x0 DUP1 DUP3 EXTCODESIZE SWAP1 POP PUSH1 0x0 DUP2 GT SWAP2 POP POP SWAP2 SWAP1 POP JUMP JUMPDEST DUP3 DUP1 SLOAD PUSH2 0x1E17 SWAP1 PUSH2 0x2AF3 JUMP JUMPDEST SWAP1 PUSH1 0x0 MSTORE PUSH1 0x20 PUSH1 0x0 KECCAK256 SWAP1 PUSH1 0x1F ADD PUSH1 0x20 SWAP1 DIV DUP2 ADD SWAP3 DUP3 PUSH2 0x1E39 JUMPI PUSH1 0x0 DUP6 SSTORE PUSH2 0x1E80 JUMP JUMPDEST DUP3 PUSH1 0x1F LT PUSH2 0x1E52 JUMPI DUP1 MLOAD PUSH1 0xFF NOT AND DUP4 DUP1 ADD OR DUP6 SSTORE PUSH2 0x1E80 JUMP JUMPDEST DUP3 DUP1 ADD PUSH1 0x1 ADD DUP6 SSTORE DUP3 ISZERO PUSH2 0x1E80 JUMPI SWAP2 DUP3 ADD JUMPDEST DUP3 DUP2 GT ISZERO PUSH2 0x1E7F JUMPI DUP3 MLOAD DUP3 SSTORE SWAP2 PUSH1 0x20 ADD SWAP2 SWAP1 PUSH1 0x1 ADD SWAP1 PUSH2 0x1E64 JUMP JUMPDEST JUMPDEST POP SWAP1 POP PUSH2 0x1E8D SWAP2 SWAP1 PUSH2 0x1E91 JUMP JUMPDEST POP SWAP1 JUMP JUMPDEST JUMPDEST DUP1 DUP3 GT ISZERO PUSH2 0x1EAA JUMPI PUSH1 0x0 DUP2 PUSH1 0x0 SWAP1 SSTORE POP PUSH1 0x1 ADD PUSH2 0x1E92 JUMP JUMPDEST POP SWAP1 JUMP JUMPDEST PUSH1 0x0 DUP2 CALLDATALOAD SWAP1 POP PUSH2 0x1EBD DUP2 PUSH2 0x310E JUMP JUMPDEST SWAP3 SWAP2 POP POP JUMP JUMPDEST PUSH1 0x0 DUP2 CALLDATALOAD SWAP1 POP PUSH2 0x1ED2 DUP2 PUSH2 0x3125 JUMP JUMPDEST SWAP3 SWAP2 POP POP JUMP JUMPDEST PUSH1 0x0 DUP2 MLOAD SWAP1 POP PUSH2 0x1EE7 DUP2 PUSH2 0x313C JUMP JUMPDEST SWAP3 SWAP2 POP POP JUMP JUMPDEST PUSH1 0x0 DUP2 CALLDATALOAD SWAP1 POP PUSH2 0x1EFC DUP2 PUSH2 0x3153 JUMP JUMPDEST SWAP3 SWAP2 POP POP JUMP JUMPDEST PUSH1 0x0 PUSH1 0x20 DUP3 DUP5 SUB SLT ISZERO PUSH2 0x1F18 JUMPI PUSH2 0x1F17 PUSH2 0x2D1D JUMP JUMPDEST JUMPDEST PUSH1 0x0 PUSH2 0x1F26 DUP5 DUP3 DUP6 ADD PUSH2 0x1EAE JUMP JUMPDEST SWAP2 POP POP SWAP3 SWAP2 POP POP JUMP JUMPDEST PUSH1 0x0 DUP1 PUSH1 0x40 DUP4 DUP6 SUB SLT ISZERO PUSH2 0x1F46 JUMPI PUSH2 0x1F45 PUSH2 0x2D1D JUMP JUMPDEST JUMPDEST PUSH1 0x0 PUSH2 0x1F54 DUP6 DUP3 DUP7 ADD PUSH2 0x1EC3 JUMP JUMPDEST SWAP3 POP POP PUSH1 0x20 PUSH2 0x1F65 DUP6 DUP3 DUP7 ADD PUSH2 0x1EED JUMP JUMPDEST SWAP2 POP POP SWAP3 POP SWAP3 SWAP1 POP JUMP JUMPDEST PUSH1 0x0 DUP1 PUSH1 0x40 DUP4 DUP6 SUB SLT ISZERO PUSH2 0x1F86 JUMPI PUSH2 0x1F85 PUSH2 0x2D1D JUMP JUMPDEST JUMPDEST PUSH1 0x0 PUSH2 0x1F94 DUP6 DUP3 DUP7 ADD PUSH2 0x1EAE JUMP JUMPDEST SWAP3 POP POP PUSH1 0x20 PUSH2 0x1FA5 DUP6 DUP3 DUP7 ADD PUSH2 0x1EED JUMP JUMPDEST SWAP2 POP POP SWAP3 POP SWAP3 SWAP1 POP JUMP JUMPDEST PUSH1 0x0 PUSH1 0x20 DUP3 DUP5 SUB SLT ISZERO PUSH2 0x1FC5 JUMPI PUSH2 0x1FC4 PUSH2 0x2D1D JUMP JUMPDEST JUMPDEST PUSH1 0x0 PUSH2 0x1FD3 DUP5 DUP3 DUP6 ADD PUSH2 0x1ED8 JUMP JUMPDEST SWAP2 POP POP SWAP3 SWAP2 POP POP JUMP JUMPDEST PUSH1 0x0 PUSH1 0x20 DUP3 DUP5 SUB SLT ISZERO PUSH2 0x1FF2 JUMPI PUSH2 0x1FF1 PUSH2 0x2D1D JUMP JUMPDEST JUMPDEST PUSH1 0x0 PUSH2 0x2000 DUP5 DUP3 DUP6 ADD PUSH2 0x1EED JUMP JUMPDEST SWAP2 POP POP SWAP3 SWAP2 POP POP JUMP JUMPDEST PUSH1 0x0 PUSH2 0x2015 DUP4 DUP4 PUSH2 0x2163 JUMP JUMPDEST SWAP1 POP SWAP3 SWAP2 POP POP JUMP JUMPDEST PUSH1 0x0 PUSH2 0x2029 DUP4 DUP4 PUSH2 0x2459 JUMP JUMPDEST PUSH1 0x20 DUP4 ADD SWAP1 POP SWAP3 SWAP2 POP POP JUMP JUMPDEST PUSH2 0x203E DUP2 PUSH2 0x2A4C JUMP JUMPDEST DUP3 MSTORE POP POP JUMP JUMPDEST PUSH2 0x2055 PUSH2 0x2050 DUP3 PUSH2 0x2A4C JUMP JUMPDEST PUSH2 0x2BB1 JUMP JUMPDEST DUP3 MSTORE POP POP JUMP JUMPDEST PUSH2 0x2064 DUP2 PUSH2 0x2A3A JUMP JUMPDEST DUP3 MSTORE POP POP JUMP JUMPDEST PUSH2 0x207B PUSH2 0x2076 DUP3 PUSH2 0x2A3A JUMP JUMPDEST PUSH2 0x2B9F JUMP JUMPDEST DUP3 MSTORE POP POP JUMP JUMPDEST PUSH1 0x0 PUSH2 0x208C DUP3 PUSH2 0x289B JUMP JUMPDEST PUSH2 0x2096 DUP2 DUP6 PUSH2 0x28D6 JUMP JUMPDEST SWAP4 POP DUP4 PUSH1 0x20 DUP3 MUL DUP6 ADD PUSH2 0x20A8 DUP6 PUSH2 0x287B JUMP JUMPDEST DUP1 PUSH1 0x0 JUMPDEST DUP6 DUP2 LT ISZERO PUSH2 0x20E4 JUMPI DUP5 DUP5 SUB DUP10 MSTORE DUP2 MLOAD PUSH2 0x20C5 DUP6 DUP3 PUSH2 0x2009 JUMP JUMPDEST SWAP5 POP PUSH2 0x20D0 DUP4 PUSH2 0x28BC JUMP JUMPDEST SWAP3 POP PUSH1 0x20 DUP11 ADD SWAP10 POP POP PUSH1 0x1 DUP2 ADD SWAP1 POP PUSH2 0x20AC JUMP JUMPDEST POP DUP3 SWAP8 POP DUP8 SWAP6 POP POP POP POP POP POP SWAP3 SWAP2 POP POP JUMP JUMPDEST PUSH1 0x0 PUSH2 0x2101 DUP3 PUSH2 0x28A6 JUMP JUMPDEST PUSH2 0x210B DUP2 DUP6 PUSH2 0x28E7 JUMP JUMPDEST SWAP4 POP PUSH2 0x2116 DUP4 PUSH2 0x288B JUMP JUMPDEST DUP1 PUSH1 0x0 JUMPDEST DUP4 DUP2 LT ISZERO PUSH2 0x2147 JUMPI DUP2 MLOAD PUSH2 0x212E DUP9 DUP3 PUSH2 0x201D JUMP JUMPDEST SWAP8 POP PUSH2 0x2139 DUP4 PUSH2 0x28C9 JUMP JUMPDEST SWAP3 POP POP PUSH1 0x1 DUP2 ADD SWAP1 POP PUSH2 0x211A JUMP JUMPDEST POP DUP6 SWAP4 POP POP POP POP SWAP3 SWAP2 POP POP JUMP JUMPDEST PUSH2 0x215D DUP2 PUSH2 0x2A5E JUMP JUMPDEST DUP3 MSTORE POP POP JUMP JUMPDEST PUSH1 0x0 PUSH2 0x216E DUP3 PUSH2 0x28B1 JUMP JUMPDEST PUSH2 0x2178 DUP2 DUP6 PUSH2 0x28F8 JUMP JUMPDEST SWAP4 POP PUSH2 0x2188 DUP2 DUP6 PUSH1 0x20 DUP7 ADD PUSH2 0x2AC0 JUMP JUMPDEST PUSH2 0x2191 DUP2 PUSH2 0x2D22 JUMP JUMPDEST DUP5 ADD SWAP2 POP POP SWAP3 SWAP2 POP POP JUMP JUMPDEST PUSH1 0x0 PUSH2 0x21A7 DUP3 PUSH2 0x28B1 JUMP JUMPDEST PUSH2 0x21B1 DUP2 DUP6 PUSH2 0x2909 JUMP JUMPDEST SWAP4 POP PUSH2 0x21C1 DUP2 DUP6 PUSH1 0x20 DUP7 ADD PUSH2 0x2AC0 JUMP JUMPDEST PUSH2 0x21CA DUP2 PUSH2 0x2D22 JUMP JUMPDEST DUP5 ADD SWAP2 POP POP SWAP3 SWAP2 POP POP JUMP JUMPDEST PUSH1 0x0 PUSH2 0x21E0 DUP3 PUSH2 0x28B1 JUMP JUMPDEST PUSH2 0x21EA DUP2 DUP6 PUSH2 0x291A JUMP JUMPDEST SWAP4 POP PUSH2 0x21FA DUP2 DUP6 PUSH1 0x20 DUP7 ADD PUSH2 0x2AC0 JUMP JUMPDEST DUP1 DUP5 ADD SWAP2 POP POP SWAP3 SWAP2 POP POP JUMP JUMPDEST PUSH1 0x0 PUSH2 0x2213 PUSH1 0x34 DUP4 PUSH2 0x2909 JUMP JUMPDEST SWAP2 POP PUSH2 0x221E DUP3 PUSH2 0x2D4D JUMP JUMPDEST PUSH1 0x40 DUP3 ADD SWAP1 POP SWAP2 SWAP1 POP JUMP JUMPDEST PUSH1 0x0 PUSH2 0x2236 PUSH1 0x28 DUP4 PUSH2 0x2909 JUMP JUMPDEST SWAP2 POP PUSH2 0x2241 DUP3 PUSH2 0x2D9C JUMP JUMPDEST PUSH1 0x40 DUP3 ADD SWAP1 POP SWAP2 SWAP1 POP JUMP JUMPDEST PUSH1 0x0 PUSH2 0x2259 PUSH1 0x19 DUP4 PUSH2 0x2909 JUMP JUMPDEST SWAP2 POP PUSH2 0x2264 DUP3 PUSH2 0x2DEB JUMP JUMPDEST PUSH1 0x20 DUP3 ADD SWAP1 POP SWAP2 SWAP1 POP JUMP JUMPDEST PUSH1 0x0 PUSH2 0x227C PUSH1 0x8 DUP4 PUSH2 0x291A JUMP JUMPDEST SWAP2 POP PUSH2 0x2287 DUP3 PUSH2 0x2E14 JUMP JUMPDEST PUSH1 0x8 DUP3 ADD SWAP1 POP SWAP2 SWAP1 POP JUMP JUMPDEST PUSH1 0x0 PUSH2 0x229F PUSH1 0x10 DUP4 PUSH2 0x2909 JUMP JUMPDEST SWAP2 POP PUSH2 0x22AA DUP3 PUSH2 0x2E3D JUMP JUMPDEST PUSH1 0x20 DUP3 ADD SWAP1 POP SWAP2 SWAP1 POP JUMP JUMPDEST PUSH1 0x0 PUSH2 0x22C2 PUSH1 0x5 DUP4 PUSH2 0x291A JUMP JUMPDEST SWAP2 POP PUSH2 0x22CD DUP3 PUSH2 0x2E66 JUMP JUMPDEST PUSH1 0x5 DUP3 ADD SWAP1 POP SWAP2 SWAP1 POP JUMP JUMPDEST PUSH1 0x0 PUSH2 0x22E5 PUSH1 0x12 DUP4 PUSH2 0x2909 JUMP JUMPDEST SWAP2 POP PUSH2 0x22F0 DUP3 PUSH2 0x2E8F JUMP JUMPDEST PUSH1 0x20 DUP3 ADD SWAP1 POP SWAP2 SWAP1 POP JUMP JUMPDEST PUSH1 0x0 PUSH2 0x2308 PUSH1 0x1B DUP4 PUSH2 0x2909 JUMP JUMPDEST SWAP2 POP PUSH2 0x2313 DUP3 PUSH2 0x2EB8 JUMP JUMPDEST PUSH1 0x20 DUP3 ADD SWAP1 POP SWAP2 SWAP1 POP JUMP JUMPDEST PUSH1 0x0 PUSH2 0x232B PUSH1 0x1B DUP4 PUSH2 0x2909 JUMP JUMPDEST SWAP2 POP PUSH2 0x2336 DUP3 PUSH2 0x2EE1 JUMP JUMPDEST PUSH1 0x20 DUP3 ADD SWAP1 POP SWAP2 SWAP1 POP JUMP JUMPDEST PUSH1 0x0 PUSH2 0x234E PUSH1 0x15 DUP4 PUSH2 0x2909 JUMP JUMPDEST SWAP2 POP PUSH2 0x2359 DUP3 PUSH2 0x2F0A JUMP JUMPDEST PUSH1 0x20 DUP3 ADD SWAP1 POP SWAP2 SWAP1 POP JUMP JUMPDEST PUSH1 0x0 PUSH2 0x2371 PUSH1 0x1C DUP4 PUSH2 0x2909 JUMP JUMPDEST SWAP2 POP PUSH2 0x237C DUP3 PUSH2 0x2F33 JUMP JUMPDEST PUSH1 0x20 DUP3 ADD SWAP1 POP SWAP2 SWAP1 POP JUMP JUMPDEST PUSH1 0x0 PUSH2 0x2394 PUSH1 0x1F DUP4 PUSH2 0x2909 JUMP JUMPDEST SWAP2 POP PUSH2 0x239F DUP3 PUSH2 0x2F5C JUMP JUMPDEST PUSH1 0x20 DUP3 ADD SWAP1 POP SWAP2 SWAP1 POP JUMP JUMPDEST PUSH1 0x0 PUSH2 0x23B7 PUSH1 0x1B DUP4 PUSH2 0x2909 JUMP JUMPDEST SWAP2 POP PUSH2 0x23C2 DUP3 PUSH2 0x2F85 JUMP JUMPDEST PUSH1 0x20 DUP3 ADD SWAP1 POP SWAP2 SWAP1 POP JUMP JUMPDEST PUSH1 0x0 PUSH2 0x23DA PUSH1 0x19 DUP4 PUSH2 0x2909 JUMP JUMPDEST SWAP2 POP PUSH2 0x23E5 DUP3 PUSH2 0x2FAE JUMP JUMPDEST PUSH1 0x20 DUP3 ADD SWAP1 POP SWAP2 SWAP1 POP JUMP JUMPDEST PUSH1 0x0 PUSH2 0x23FD PUSH1 0x1 DUP4 PUSH2 0x291A JUMP JUMPDEST SWAP2 POP PUSH2 0x2408 DUP3 PUSH2 0x2FD7 JUMP JUMPDEST PUSH1 0x1 DUP3 ADD SWAP1 POP SWAP2 SWAP1 POP JUMP JUMPDEST PUSH1 0x0 PUSH2 0x2420 PUSH1 0x7 DUP4 PUSH2 0x291A JUMP JUMPDEST SWAP2 POP PUSH2 0x242B DUP3 PUSH2 0x3000 JUMP JUMPDEST PUSH1 0x7 DUP3 ADD SWAP1 POP SWAP2 SWAP1 POP JUMP JUMPDEST PUSH1 0x0 PUSH2 0x2443 PUSH1 0x21 DUP4 PUSH2 0x2909 JUMP JUMPDEST SWAP2 POP PUSH2 0x244E DUP3 PUSH2 0x3029 JUMP JUMPDEST PUSH1 0x40 DUP3 ADD SWAP1 POP SWAP2 SWAP1 POP JUMP JUMPDEST PUSH2 0x2462 DUP2 PUSH2 0x2AB6 JUMP JUMPDEST DUP3 MSTORE POP POP JUMP JUMPDEST PUSH2 0x2471 DUP2 PUSH2 0x2AB6 JUMP JUMPDEST DUP3 MSTORE POP POP JUMP JUMPDEST PUSH2 0x2488 PUSH2 0x2483 DUP3 PUSH2 0x2AB6 JUMP JUMPDEST PUSH2 0x2BD5 JUMP JUMPDEST DUP3 MSTORE POP POP JUMP JUMPDEST PUSH1 0x0 PUSH2 0x249A DUP3 DUP6 PUSH2 0x21D5 JUMP JUMPDEST SWAP2 POP PUSH2 0x24A5 DUP3 PUSH2 0x23F0 JUMP JUMPDEST SWAP2 POP PUSH2 0x24B1 DUP3 DUP5 PUSH2 0x21D5 JUMP JUMPDEST SWAP2 POP DUP2 SWAP1 POP SWAP4 SWAP3 POP POP POP JUMP JUMPDEST PUSH1 0x0 PUSH2 0x24C8 DUP3 PUSH2 0x226F JUMP JUMPDEST SWAP2 POP PUSH2 0x24D4 DUP3 DUP5 PUSH2 0x21D5 JUMP JUMPDEST SWAP2 POP DUP2 SWAP1 POP SWAP3 SWAP2 POP POP JUMP JUMPDEST PUSH1 0x0 PUSH2 0x24EA DUP3 PUSH2 0x22B5 JUMP JUMPDEST SWAP2 POP PUSH2 0x24F6 DUP3 DUP5 PUSH2 0x21D5 JUMP JUMPDEST SWAP2 POP DUP2 SWAP1 POP SWAP3 SWAP2 POP POP JUMP JUMPDEST PUSH1 0x0 PUSH2 0x250C DUP3 PUSH2 0x2413 JUMP JUMPDEST SWAP2 POP PUSH2 0x2518 DUP3 DUP5 PUSH2 0x21D5 JUMP JUMPDEST SWAP2 POP DUP2 SWAP1 POP SWAP3 SWAP2 POP POP JUMP JUMPDEST PUSH1 0x0 PUSH2 0x252F DUP3 DUP7 PUSH2 0x2477 JUMP JUMPDEST PUSH1 0x20 DUP3 ADD SWAP2 POP PUSH2 0x253F DUP3 DUP6 PUSH2 0x206A JUMP JUMPDEST PUSH1 0x14 DUP3 ADD SWAP2 POP PUSH2 0x254F DUP3 DUP5 PUSH2 0x2044 JUMP JUMPDEST PUSH1 0x14 DUP3 ADD SWAP2 POP DUP2 SWAP1 POP SWAP5 SWAP4 POP POP POP POP JUMP JUMPDEST PUSH1 0x0 PUSH1 0x20 DUP3 ADD SWAP1 POP PUSH2 0x2575 PUSH1 0x0 DUP4 ADD DUP5 PUSH2 0x2035 JUMP JUMPDEST SWAP3 SWAP2 POP POP JUMP JUMPDEST PUSH1 0x0 PUSH1 0xA0 DUP3 ADD SWAP1 POP PUSH2 0x2590 PUSH1 0x0 DUP4 ADD DUP9 PUSH2 0x205B JUMP JUMPDEST PUSH2 0x259D PUSH1 0x20 DUP4 ADD DUP8 PUSH2 0x205B JUMP JUMPDEST PUSH2 0x25AA PUSH1 0x40 DUP4 ADD DUP7 PUSH2 0x2468 JUMP JUMPDEST PUSH2 0x25B7 PUSH1 0x60 DUP4 ADD DUP6 PUSH2 0x2468 JUMP JUMPDEST DUP2 DUP2 SUB PUSH1 0x80 DUP4 ADD MSTORE PUSH2 0x25C9 DUP2 DUP5 PUSH2 0x219C JUMP JUMPDEST SWAP1 POP SWAP7 SWAP6 POP POP POP POP POP POP JUMP JUMPDEST PUSH1 0x0 PUSH1 0x20 DUP3 ADD SWAP1 POP DUP2 DUP2 SUB PUSH1 0x0 DUP4 ADD MSTORE PUSH2 0x25EF DUP2 DUP5 PUSH2 0x2081 JUMP JUMPDEST SWAP1 POP SWAP3 SWAP2 POP POP JUMP JUMPDEST PUSH1 0x0 PUSH1 0x20 DUP3 ADD SWAP1 POP DUP2 DUP2 SUB PUSH1 0x0 DUP4 ADD MSTORE PUSH2 0x2611 DUP2 DUP5 PUSH2 0x20F6 JUMP JUMPDEST SWAP1 POP SWAP3 SWAP2 POP POP JUMP JUMPDEST PUSH1 0x0 PUSH1 0x20 DUP3 ADD SWAP1 POP PUSH2 0x262E PUSH1 0x0 DUP4 ADD DUP5 PUSH2 0x2154 JUMP JUMPDEST SWAP3 SWAP2 POP POP JUMP JUMPDEST PUSH1 0x0 PUSH1 0x20 DUP3 ADD SWAP1 POP DUP2 DUP2 SUB PUSH1 0x0 DUP4 ADD MSTORE PUSH2 0x264E DUP2 DUP5 PUSH2 0x219C JUMP JUMPDEST SWAP1 POP SWAP3 SWAP2 POP POP JUMP JUMPDEST PUSH1 0x0 PUSH1 0x20 DUP3 ADD SWAP1 POP DUP2 DUP2 SUB PUSH1 0x0 DUP4 ADD MSTORE PUSH2 0x266F DUP2 PUSH2 0x2206 JUMP JUMPDEST SWAP1 POP SWAP2 SWAP1 POP JUMP JUMPDEST PUSH1 0x0 PUSH1 0x20 DUP3 ADD SWAP1 POP DUP2 DUP2 SUB PUSH1 0x0 DUP4 ADD MSTORE PUSH2 0x268F DUP2 PUSH2 0x2229 JUMP JUMPDEST SWAP1 POP SWAP2 SWAP1 POP JUMP JUMPDEST PUSH1 0x0 PUSH1 0x20 DUP3 ADD SWAP1 POP DUP2 DUP2 SUB PUSH1 0x0 DUP4 ADD MSTORE PUSH2 0x26AF DUP2 PUSH2 0x224C JUMP JUMPDEST SWAP1 POP SWAP2 SWAP1 POP JUMP JUMPDEST PUSH1 0x0 PUSH1 0x20 DUP3 ADD SWAP1 POP DUP2 DUP2 SUB PUSH1 0x0 DUP4 ADD MSTORE PUSH2 0x26CF DUP2 PUSH2 0x2292 JUMP JUMPDEST SWAP1 POP SWAP2 SWAP1 POP JUMP JUMPDEST PUSH1 0x0 PUSH1 0x20 DUP3 ADD SWAP1 POP DUP2 DUP2 SUB PUSH1 0x0 DUP4 ADD MSTORE PUSH2 0x26EF DUP2 PUSH2 0x22D8 JUMP JUMPDEST SWAP1 POP SWAP2 SWAP1 POP JUMP JUMPDEST PUSH1 0x0 PUSH1 0x20 DUP3 ADD SWAP1 POP DUP2 DUP2 SUB PUSH1 0x0 DUP4 ADD MSTORE PUSH2 0x270F DUP2 PUSH2 0x22FB JUMP JUMPDEST SWAP1 POP SWAP2 SWAP1 POP JUMP JUMPDEST PUSH1 0x0 PUSH1 0x20 DUP3 ADD SWAP1 POP DUP2 DUP2 SUB PUSH1 0x0 DUP4 ADD MSTORE PUSH2 0x272F DUP2 PUSH2 0x231E JUMP JUMPDEST SWAP1 POP SWAP2 SWAP1 POP JUMP JUMPDEST PUSH1 0x0 PUSH1 0x20 DUP3 ADD SWAP1 POP DUP2 DUP2 SUB PUSH1 0x0 DUP4 ADD MSTORE PUSH2 0x274F DUP2 PUSH2 0x2341 JUMP JUMPDEST SWAP1 POP SWAP2 SWAP1 POP JUMP JUMPDEST PUSH1 0x0 PUSH1 0x20 DUP3 ADD SWAP1 POP DUP2 DUP2 SUB PUSH1 0x0 DUP4 ADD MSTORE PUSH2 0x276F DUP2 PUSH2 0x2364 JUMP JUMPDEST SWAP1 POP SWAP2 SWAP1 POP JUMP JUMPDEST PUSH1 0x0 PUSH1 0x20 DUP3 ADD SWAP1 POP DUP2 DUP2 SUB PUSH1 0x0 DUP4 ADD MSTORE PUSH2 0x278F DUP2 PUSH2 0x2387 JUMP JUMPDEST SWAP1 POP SWAP2 SWAP1 POP JUMP JUMPDEST PUSH1 0x0 PUSH1 0x20 DUP3 ADD SWAP1 POP DUP2 DUP2 SUB PUSH1 0x0 DUP4 ADD MSTORE PUSH2 0x27AF DUP2 PUSH2 0x23AA JUMP JUMPDEST SWAP1 POP SWAP2 SWAP1 POP JUMP JUMPDEST PUSH1 0x0 PUSH1 0x20 DUP3 ADD SWAP1 POP DUP2 DUP2 SUB PUSH1 0x0 DUP4 ADD MSTORE PUSH2 0x27CF DUP2 PUSH2 0x23CD JUMP JUMPDEST SWAP1 POP SWAP2 SWAP1 POP JUMP JUMPDEST PUSH1 0x0 PUSH1 0x20 DUP3 ADD SWAP1 POP DUP2 DUP2 SUB PUSH1 0x0 DUP4 ADD MSTORE PUSH2 0x27EF DUP2 PUSH2 0x2436 JUMP JUMPDEST SWAP1 POP SWAP2 SWAP1 POP JUMP JUMPDEST PUSH1 0x0 PUSH1 0x20 DUP3 ADD SWAP1 POP PUSH2 0x280B PUSH1 0x0 DUP4 ADD DUP5 PUSH2 0x2468 JUMP JUMPDEST SWAP3 SWAP2 POP POP JUMP JUMPDEST PUSH1 0x0 PUSH1 0x40 DUP3 ADD SWAP1 POP PUSH2 0x2826 PUSH1 0x0 DUP4 ADD DUP6 PUSH2 0x2468 JUMP JUMPDEST PUSH2 0x2833 PUSH1 0x20 DUP4 ADD DUP5 PUSH2 0x2468 JUMP JUMPDEST SWAP4 SWAP3 POP POP POP JUMP JUMPDEST PUSH1 0x0 PUSH1 0x60 DUP3 ADD SWAP1 POP PUSH2 0x284F PUSH1 0x0 DUP4 ADD DUP7 PUSH2 0x2468 JUMP JUMPDEST PUSH2 0x285C PUSH1 0x20 DUP4 ADD DUP6 PUSH2 0x2468 JUMP JUMPDEST PUSH2 0x2869 PUSH1 0x40 DUP4 ADD DUP5 PUSH2 0x2468 JUMP JUMPDEST SWAP5 SWAP4 POP POP POP POP JUMP JUMPDEST PUSH1 0x0 PUSH1 0x40 MLOAD SWAP1 POP SWAP1 JUMP JUMPDEST PUSH1 0x0 DUP2 SWAP1 POP PUSH1 0x20 DUP3 ADD SWAP1 POP SWAP2 SWAP1 POP JUMP JUMPDEST PUSH1 0x0 DUP2 SWAP1 POP PUSH1 0x20 DUP3 ADD SWAP1 POP SWAP2 SWAP1 POP JUMP JUMPDEST PUSH1 0x0 DUP2 MLOAD SWAP1 POP SWAP2 SWAP1 POP JUMP JUMPDEST PUSH1 0x0 DUP2 MLOAD SWAP1 POP SWAP2 SWAP1 POP JUMP JUMPDEST PUSH1 0x0 DUP2 MLOAD SWAP1 POP SWAP2 SWAP1 POP JUMP JUMPDEST PUSH1 0x0 PUSH1 0x20 DUP3 ADD SWAP1 POP SWAP2 SWAP1 POP JUMP JUMPDEST PUSH1 0x0 PUSH1 0x20 DUP3 ADD SWAP1 POP SWAP2 SWAP1 POP JUMP JUMPDEST PUSH1 0x0 DUP3 DUP3 MSTORE PUSH1 0x20 DUP3 ADD SWAP1 POP SWAP3 SWAP2 POP POP JUMP JUMPDEST PUSH1 0x0 DUP3 DUP3 MSTORE PUSH1 0x20 DUP3 ADD SWAP1 POP SWAP3 SWAP2 POP POP JUMP JUMPDEST PUSH1 0x0 DUP3 DUP3 MSTORE PUSH1 0x20 DUP3 ADD SWAP1 POP SWAP3 SWAP2 POP POP JUMP JUMPDEST PUSH1 0x0 DUP3 DUP3 MSTORE PUSH1 0x20 DUP3 ADD SWAP1 POP SWAP3 SWAP2 POP POP JUMP JUMPDEST PUSH1 0x0 DUP2 SWAP1 POP SWAP3 SWAP2 POP POP JUMP JUMPDEST PUSH1 0x0 PUSH2 0x2930 DUP3 PUSH2 0x2AB6 JUMP JUMPDEST SWAP2 POP PUSH2 0x293B DUP4 PUSH2 0x2AB6 JUMP JUMPDEST SWAP3 POP DUP3 PUSH32 0xFFFFFFFFFFFFFFFFFFFFFFFFFFFFFFFFFFFFFFFFFFFFFFFFFFFFFFFFFFFFFFFF SUB DUP3 GT ISZERO PUSH2 0x2970 JUMPI PUSH2 0x296F PUSH2 0x2C10 JUMP JUMPDEST JUMPDEST DUP3 DUP3 ADD SWAP1 POP SWAP3 SWAP2 POP POP JUMP JUMPDEST PUSH1 0x0 PUSH2 0x2986 DUP3 PUSH2 0x2AB6 JUMP JUMPDEST SWAP2 POP PUSH2 0x2991 DUP4 PUSH2 0x2AB6 JUMP JUMPDEST SWAP3 POP DUP3 PUSH2 0x29A1 JUMPI PUSH2 0x29A0 PUSH2 0x2C3F JUMP JUMPDEST JUMPDEST DUP3 DUP3 DIV SWAP1 POP SWAP3 SWAP2 POP POP JUMP JUMPDEST PUSH1 0x0 PUSH2 0x29B7 DUP3 PUSH2 0x2AB6 JUMP JUMPDEST SWAP2 POP PUSH2 0x29C2 DUP4 PUSH2 0x2AB6 JUMP JUMPDEST SWAP3 POP DUP2 PUSH32 0xFFFFFFFFFFFFFFFFFFFFFFFFFFFFFFFFFFFFFFFFFFFFFFFFFFFFFFFFFFFFFFFF DIV DUP4 GT DUP3 ISZERO ISZERO AND ISZERO PUSH2 0x29FB JUMPI PUSH2 0x29FA PUSH2 0x2C10 JUMP JUMPDEST JUMPDEST DUP3 DUP3 MUL SWAP1 POP SWAP3 SWAP2 POP POP JUMP JUMPDEST PUSH1 0x0 PUSH2 0x2A11 DUP3 PUSH2 0x2AB6 JUMP JUMPDEST SWAP2 POP PUSH2 0x2A1C DUP4 PUSH2 0x2AB6 JUMP JUMPDEST SWAP3 POP DUP3 DUP3 LT ISZERO PUSH2 0x2A2F JUMPI PUSH2 0x2A2E PUSH2 0x2C10 JUMP JUMPDEST JUMPDEST DUP3 DUP3 SUB SWAP1 POP SWAP3 SWAP2 POP POP JUMP JUMPDEST PUSH1 0x0 PUSH2 0x2A45 DUP3 PUSH2 0x2A96 JUMP JUMPDEST SWAP1 POP SWAP2 SWAP1 POP JUMP JUMPDEST PUSH1 0x0 PUSH2 0x2A57 DUP3 PUSH2 0x2A96 JUMP JUMPDEST SWAP1 POP SWAP2 SWAP1 POP JUMP JUMPDEST PUSH1 0x0 DUP2 ISZERO ISZERO SWAP1 POP SWAP2 SWAP1 POP JUMP JUMPDEST PUSH1 0x0 PUSH32 0xFFFFFFFF00000000000000000000000000000000000000000000000000000000 DUP3 AND SWAP1 POP SWAP2 SWAP1 POP JUMP JUMPDEST PUSH1 0x0 PUSH20 0xFFFFFFFFFFFFFFFFFFFFFFFFFFFFFFFFFFFFFFFF DUP3 AND SWAP1 POP SWAP2 SWAP1 POP JUMP JUMPDEST PUSH1 0x0 DUP2 SWAP1 POP SWAP2 SWAP1 POP JUMP JUMPDEST PUSH1 0x0 JUMPDEST DUP4 DUP2 LT ISZERO PUSH2 0x2ADE JUMPI DUP1 DUP3 ADD MLOAD DUP2 DUP5 ADD MSTORE PUSH1 0x20 DUP2 ADD SWAP1 POP PUSH2 0x2AC3 JUMP JUMPDEST DUP4 DUP2 GT ISZERO PUSH2 0x2AED JUMPI PUSH1 0x0 DUP5 DUP5 ADD MSTORE JUMPDEST POP POP POP POP JUMP JUMPDEST PUSH1 0x0 PUSH1 0x2 DUP3 DIV SWAP1 POP PUSH1 0x1 DUP3 AND DUP1 PUSH2 0x2B0B JUMPI PUSH1 0x7F DUP3 AND SWAP2 POP JUMPDEST PUSH1 0x20 DUP3 LT DUP2 EQ ISZERO PUSH2 0x2B1F JUMPI PUSH2 0x2B1E PUSH2 0x2C6E JUMP JUMPDEST JUMPDEST POP SWAP2 SWAP1 POP JUMP JUMPDEST PUSH2 0x2B2E DUP3 PUSH2 0x2D22 JUMP JUMPDEST DUP2 ADD DUP2 DUP2 LT PUSH8 0xFFFFFFFFFFFFFFFF DUP3 GT OR ISZERO PUSH2 0x2B4D JUMPI PUSH2 0x2B4C PUSH2 0x2CCC JUMP JUMPDEST JUMPDEST DUP1 PUSH1 0x40 MSTORE POP POP POP JUMP JUMPDEST PUSH1 0x0 PUSH2 0x2B61 DUP3 PUSH2 0x2AB6 JUMP JUMPDEST SWAP2 POP PUSH32 0xFFFFFFFFFFFFFFFFFFFFFFFFFFFFFFFFFFFFFFFFFFFFFFFFFFFFFFFFFFFFFFFF DUP3 EQ ISZERO PUSH2 0x2B94 JUMPI PUSH2 0x2B93 PUSH2 0x2C10 JUMP JUMPDEST JUMPDEST PUSH1 0x1 DUP3 ADD SWAP1 POP SWAP2 SWAP1 POP JUMP JUMPDEST PUSH1 0x0 PUSH2 0x2BAA DUP3 PUSH2 0x2BC3 JUMP JUMPDEST SWAP1 POP SWAP2 SWAP1 POP JUMP JUMPDEST PUSH1 0x0 PUSH2 0x2BBC DUP3 PUSH2 0x2BC3 JUMP JUMPDEST SWAP1 POP SWAP2 SWAP1 POP JUMP JUMPDEST PUSH1 0x0 PUSH2 0x2BCE DUP3 PUSH2 0x2D33 JUMP JUMPDEST SWAP1 POP SWAP2 SWAP1 POP JUMP JUMPDEST PUSH1 0x0 DUP2 SWAP1 POP SWAP2 SWAP1 POP JUMP JUMPDEST PUSH1 0x0 PUSH2 0x2BEA DUP3 PUSH2 0x2AB6 JUMP JUMPDEST SWAP2 POP PUSH2 0x2BF5 DUP4 PUSH2 0x2AB6 JUMP JUMPDEST SWAP3 POP DUP3 PUSH2 0x2C05 JUMPI PUSH2 0x2C04 PUSH2 0x2C3F JUMP JUMPDEST JUMPDEST DUP3 DUP3 MOD SWAP1 POP SWAP3 SWAP2 POP POP JUMP JUMPDEST PUSH32 0x4E487B7100000000000000000000000000000000000000000000000000000000 PUSH1 0x0 MSTORE PUSH1 0x11 PUSH1 0x4 MSTORE PUSH1 0x24 PUSH1 0x0 REVERT JUMPDEST PUSH32 0x4E487B7100000000000000000000000000000000000000000000000000000000 PUSH1 0x0 MSTORE PUSH1 0x12 PUSH1 0x4 MSTORE PUSH1 0x24 PUSH1 0x0 REVERT JUMPDEST PUSH32 0x4E487B7100000000000000000000000000000000000000000000000000000000 PUSH1 0x0 MSTORE PUSH1 0x22 PUSH1 0x4 MSTORE PUSH1 0x24 PUSH1 0x0 REVERT JUMPDEST PUSH32 0x4E487B7100000000000000000000000000000000000000000000000000000000 PUSH1 0x0 MSTORE PUSH1 0x32 PUSH1 0x4 MSTORE PUSH1 0x24 PUSH1 0x0 REVERT JUMPDEST PUSH32 0x4E487B7100000000000000000000000000000000000000000000000000000000 PUSH1 0x0 MSTORE PUSH1 0x41 PUSH1 0x4 MSTORE PUSH1 0x24 PUSH1 0x0 REVERT JUMPDEST PUSH1 0x0 PUSH1 0x3 RETURNDATASIZE GT ISZERO PUSH2 0x2D1A JUMPI PUSH1 0x4 PUSH1 0x0 DUP1 RETURNDATACOPY PUSH2 0x2D17 PUSH1 0x0 MLOAD PUSH2 0x2D40 JUMP JUMPDEST SWAP1 POP JUMPDEST SWAP1 JUMP JUMPDEST PUSH1 0x0 DUP1 REVERT JUMPDEST PUSH1 0x0 PUSH1 0x1F NOT PUSH1 0x1F DUP4 ADD AND SWAP1 POP SWAP2 SWAP1 POP JUMP JUMPDEST PUSH1 0x0 DUP2 PUSH1 0x60 SHL SWAP1 POP SWAP2 SWAP1 POP JUMP JUMPDEST PUSH1 0x0 DUP2 PUSH1 0xE0 SHR SWAP1 POP SWAP2 SWAP1 POP JUMP JUMPDEST PUSH32 0x455243313135353A207472616E7366657220746F206E6F6E2045524331313535 PUSH1 0x0 DUP3 ADD MSTORE PUSH32 0x526563656976657220696D706C656D656E746572000000000000000000000000 PUSH1 0x20 DUP3 ADD MSTORE POP JUMP JUMPDEST PUSH32 0x455243313135353A204552433131353552656365697665722072656A65637465 PUSH1 0x0 DUP3 ADD MSTORE PUSH32 0x6420746F6B656E73000000000000000000000000000000000000000000000000 PUSH1 0x20 DUP3 ADD MSTORE POP JUMP JUMPDEST PUSH32 0x4572726F7221204E6F7420456E6F7567682042616C616E636500000000000000 PUSH1 0x0 DUP3 ADD MSTORE POP JUMP JUMPDEST PUSH32 0x4469616D6F6E645F000000000000000000000000000000000000000000000000 PUSH1 0x0 DUP3 ADD MSTORE POP JUMP JUMPDEST PUSH32 0x4D696E7420466565204E6F742053657400000000000000000000000000000000 PUSH1 0x0 DUP3 ADD MSTORE POP JUMP JUMPDEST PUSH32 0x476F6C645F000000000000000000000000000000000000000000000000000000 PUSH1 0x0 DUP3 ADD MSTORE POP JUMP JUMPDEST PUSH32 0x4E6F7420456E6F7567682042616C616E63650000000000000000000000000000 PUSH1 0x0 DUP3 ADD MSTORE POP JUMP JUMPDEST PUSH32 0x44726F707369746520697320616C72656164792052756E6E696E670000000000 PUSH1 0x0 DUP3 ADD MSTORE POP JUMP JUMPDEST PUSH32 0x44726F707369746520697320616C72656164792053746F707065640000000000 PUSH1 0x0 DUP3 ADD MSTORE POP JUMP JUMPDEST PUSH32 0x596F752063616E206D696E7420312D33204E4654730000000000000000000000 PUSH1 0x0 DUP3 ADD MSTORE POP JUMP JUMPDEST PUSH32 0x4F6E6C79204E46542D4553204F776E65722063616E2041636365737300000000 PUSH1 0x0 DUP3 ADD MSTORE POP JUMP JUMPDEST PUSH32 0x4F776E65722053686F756C6420736574206D696E742046656520466972737400 PUSH1 0x0 DUP3 ADD MSTORE POP JUMP JUMPDEST PUSH32 0x44726F7073697465206973206E6F74204F70656E6564205965742E0000000000 PUSH1 0x0 DUP3 ADD MSTORE POP JUMP JUMPDEST PUSH32 0x4D6178204D696E74696E67204C696D6974207265616368656400000000000000 PUSH1 0x0 DUP3 ADD MSTORE POP JUMP JUMPDEST PUSH32 0x5F00000000000000000000000000000000000000000000000000000000000000 PUSH1 0x0 DUP3 ADD MSTORE POP JUMP JUMPDEST PUSH32 0x53696C7665725F00000000000000000000000000000000000000000000000000 PUSH1 0x0 DUP3 ADD MSTORE POP JUMP JUMPDEST PUSH32 0x455243313135353A206D696E7420746F20746865207A65726F20616464726573 PUSH1 0x0 DUP3 ADD MSTORE PUSH32 0x7300000000000000000000000000000000000000000000000000000000000000 PUSH1 0x20 DUP3 ADD MSTORE POP JUMP JUMPDEST PUSH1 0x0 PUSH1 0x44 RETURNDATASIZE LT ISZERO PUSH2 0x3088 JUMPI PUSH2 0x310B JUMP JUMPDEST PUSH2 0x3090 PUSH2 0x2871 JUMP JUMPDEST PUSH1 0x4 RETURNDATASIZE SUB PUSH1 0x4 DUP3 RETURNDATACOPY DUP1 MLOAD RETURNDATASIZE PUSH1 0x24 DUP3 ADD GT PUSH8 0xFFFFFFFFFFFFFFFF DUP3 GT OR ISZERO PUSH2 0x30B8 JUMPI POP POP PUSH2 0x310B JUMP JUMPDEST DUP1 DUP3 ADD DUP1 MLOAD PUSH8 0xFFFFFFFFFFFFFFFF DUP2 GT ISZERO PUSH2 0x30D6 JUMPI POP POP POP POP PUSH2 0x310B JUMP JUMPDEST DUP1 PUSH1 0x20 DUP4 ADD ADD PUSH1 0x4 RETURNDATASIZE SUB DUP6 ADD DUP2 GT ISZERO PUSH2 0x30F3 JUMPI POP POP POP POP POP PUSH2 0x310B JUMP JUMPDEST PUSH2 0x3102 DUP3 PUSH1 0x20 ADD DUP6 ADD DUP7 PUSH2 0x2B25 JUMP JUMPDEST DUP3 SWAP6 POP POP POP POP POP POP JUMPDEST SWAP1 JUMP JUMPDEST PUSH2 0x3117 DUP2 PUSH2 0x2A3A JUMP JUMPDEST DUP2 EQ PUSH2 0x3122 JUMPI PUSH1 0x0 DUP1 REVERT JUMPDEST POP JUMP JUMPDEST PUSH2 0x312E DUP2 PUSH2 0x2A4C JUMP JUMPDEST DUP2 EQ PUSH2 0x3139 JUMPI PUSH1 0x0 DUP1 REVERT JUMPDEST POP JUMP JUMPDEST PUSH2 0x3145 DUP2 PUSH2 0x2A6A JUMP JUMPDEST DUP2 EQ PUSH2 0x3150 JUMPI PUSH1 0x0 DUP1 REVERT JUMPDEST POP JUMP JUMPDEST PUSH2 0x315C DUP2 PUSH2 0x2AB6 JUMP JUMPDEST DUP2 EQ PUSH2 0x3167 JUMPI PUSH1 0x0 DUP1 REVERT JUMPDEST POP JUMP INVALID LOG2 PUSH5 0x6970667358 0x22 SLT KECCAK256 EXTCODESIZE RETURNDATASIZE BALANCE SWAP10 CODESIZE DUP5 SWAP1 POP 0xF9 0xDC 0x4D SDIV 0xE7 SGT PUSH1 0xFB PUSH12 0xC671B5B96C15E019A8EB21C0 TIMESTAMP 0xC4 DELEGATECALL PUSH5 0x736F6C6343 STOP ADDMOD SMOD STOP CALLER "
				},
				"gasEstimates": {
					"creation": {
						"codeDepositCost": "2540800",
						"executionCost": "infinite",
						"totalCost": "infinite"
					},
					"external": {
						"DIAMOND_ID()": "417",
						"Gold_ID()": "397",
						"Owner()": "2608",
						"SILVER_ID()": "374",
						"changeOwner(address)": "29265",
						"checkMintedCategoryWise()": "infinite",
						"checkTotalMinted()": "2461",
						"contractBalance()": "2714",
						"cryptoRandomMint(address,uint256)": "infinite",
						"fiatRandomMint(address,uint256)": "infinite",
						"getMintFee()": "2548",
						"isAdmin()": "2643",
						"isPaused()": "2493",
						"openDropsite()": "28883",
						"returnNftsOwner(address)": "infinite",
						"setMintFee(uint256)": "24885",
						"stopDropsite()": "28926",
						"withDraw(address,uint256)": "infinite"
					},
					"internal": {
						"checkTokenURIs(uint256)": "infinite",
						"depositAmount(address,uint256)": "infinite",
						"random()": "infinite",
						"randomMinting(address)": "infinite",
						"updateConditions(uint256)": "infinite"
					}
				},
				"methodIdentifiers": {
					"DIAMOND_ID()": "b84c185e",
					"Gold_ID()": "17b612e6",
					"Owner()": "b4a99a4e",
					"SILVER_ID()": "a56538e0",
					"changeOwner(address)": "a6f9dae1",
					"checkMintedCategoryWise()": "60daa851",
					"checkTotalMinted()": "0390c11c",
					"contractBalance()": "8b7afe2e",
					"cryptoRandomMint(address,uint256)": "5b27d84e",
					"fiatRandomMint(address,uint256)": "5e1f0556",
					"getMintFee()": "7a5caab3",
					"isAdmin()": "b6db75a0",
					"isPaused()": "b187bd26",
					"openDropsite()": "15460259",
					"returnNftsOwner(address)": "225011da",
					"setMintFee(uint256)": "eddd0d9c",
					"stopDropsite()": "aa90c726",
					"withDraw(address,uint256)": "191e2e83"
				}
			},
			"storageLayout": {
				"storage": [
					{
						"astId": 611,
						"contract": "NFTES_Drop_flat.sol:NFTES_Drop",
						"label": "_balances",
						"offset": 0,
						"slot": "0",
						"type": "t_mapping(t_uint256,t_mapping(t_address,t_uint256))"
					},
					{
						"astId": 617,
						"contract": "NFTES_Drop_flat.sol:NFTES_Drop",
						"label": "_operatorApprovals",
						"offset": 0,
						"slot": "1",
						"type": "t_mapping(t_address,t_mapping(t_address,t_bool))"
					},
					{
						"astId": 807,
						"contract": "NFTES_Drop_flat.sol:NFTES_Drop",
						"label": "data",
						"offset": 0,
						"slot": "2",
						"type": "t_string_storage"
					},
					{
						"astId": 809,
						"contract": "NFTES_Drop_flat.sol:NFTES_Drop",
						"label": "totalNFTsMinted",
						"offset": 0,
						"slot": "3",
						"type": "t_uint256"
					},
					{
						"astId": 811,
						"contract": "NFTES_Drop_flat.sol:NFTES_Drop",
						"label": "numOfCopies",
						"offset": 0,
						"slot": "4",
						"type": "t_uint256"
					},
					{
						"astId": 813,
						"contract": "NFTES_Drop_flat.sol:NFTES_Drop",
						"label": "mintFees",
						"offset": 0,
						"slot": "5",
						"type": "t_uint256"
					},
					{
						"astId": 815,
						"contract": "NFTES_Drop_flat.sol:NFTES_Drop",
						"label": "Diamond",
						"offset": 0,
						"slot": "6",
						"type": "t_uint256"
					},
					{
						"astId": 817,
						"contract": "NFTES_Drop_flat.sol:NFTES_Drop",
						"label": "Gold",
						"offset": 0,
						"slot": "7",
						"type": "t_uint256"
					},
					{
						"astId": 819,
						"contract": "NFTES_Drop_flat.sol:NFTES_Drop",
						"label": "Silver",
						"offset": 0,
						"slot": "8",
						"type": "t_uint256"
					},
					{
						"astId": 822,
						"contract": "NFTES_Drop_flat.sol:NFTES_Drop",
						"label": "maxDiamondCount",
						"offset": 0,
						"slot": "9",
						"type": "t_uint256"
					},
					{
						"astId": 825,
						"contract": "NFTES_Drop_flat.sol:NFTES_Drop",
						"label": "maxGoldCount",
						"offset": 0,
						"slot": "10",
						"type": "t_uint256"
					},
					{
						"astId": 828,
						"contract": "NFTES_Drop_flat.sol:NFTES_Drop",
						"label": "maxSilverCount",
						"offset": 0,
						"slot": "11",
						"type": "t_uint256"
					},
					{
						"astId": 844,
						"contract": "NFTES_Drop_flat.sol:NFTES_Drop",
						"label": "dropsite_NFT_Owner",
						"offset": 0,
						"slot": "12",
						"type": "t_mapping(t_address,t_struct(nft_Owner)839_storage)"
					},
					{
						"astId": 848,
						"contract": "NFTES_Drop_flat.sol:NFTES_Drop",
						"label": "deposits",
						"offset": 0,
						"slot": "13",
						"type": "t_mapping(t_address,t_uint256)"
					},
					{
						"astId": 885,
						"contract": "NFTES_Drop_flat.sol:NFTES_Drop",
						"label": "isPaused",
						"offset": 0,
						"slot": "14",
						"type": "t_bool"
					},
					{
						"astId": 887,
						"contract": "NFTES_Drop_flat.sol:NFTES_Drop",
						"label": "Owner",
						"offset": 1,
						"slot": "14",
						"type": "t_address_payable"
					},
					{
						"astId": 889,
						"contract": "NFTES_Drop_flat.sol:NFTES_Drop",
						"label": "_name",
						"offset": 0,
						"slot": "15",
						"type": "t_string_storage"
					}
				],
				"types": {
					"t_address": {
						"encoding": "inplace",
						"label": "address",
						"numberOfBytes": "20"
					},
					"t_address_payable": {
						"encoding": "inplace",
						"label": "address payable",
						"numberOfBytes": "20"
					},
					"t_array(t_uint256)dyn_storage": {
						"base": "t_uint256",
						"encoding": "dynamic_array",
						"label": "uint256[]",
						"numberOfBytes": "32"
					},
					"t_bool": {
						"encoding": "inplace",
						"label": "bool",
						"numberOfBytes": "1"
					},
					"t_mapping(t_address,t_bool)": {
						"encoding": "mapping",
						"key": "t_address",
						"label": "mapping(address => bool)",
						"numberOfBytes": "32",
						"value": "t_bool"
					},
					"t_mapping(t_address,t_mapping(t_address,t_bool))": {
						"encoding": "mapping",
						"key": "t_address",
						"label": "mapping(address => mapping(address => bool))",
						"numberOfBytes": "32",
						"value": "t_mapping(t_address,t_bool)"
					},
					"t_mapping(t_address,t_struct(nft_Owner)839_storage)": {
						"encoding": "mapping",
						"key": "t_address",
						"label": "mapping(address => struct NFTES_Drop.nft_Owner)",
						"numberOfBytes": "32",
						"value": "t_struct(nft_Owner)839_storage"
					},
					"t_mapping(t_address,t_uint256)": {
						"encoding": "mapping",
						"key": "t_address",
						"label": "mapping(address => uint256)",
						"numberOfBytes": "32",
						"value": "t_uint256"
					},
					"t_mapping(t_uint256,t_mapping(t_address,t_uint256))": {
						"encoding": "mapping",
						"key": "t_uint256",
						"label": "mapping(uint256 => mapping(address => uint256))",
						"numberOfBytes": "32",
						"value": "t_mapping(t_address,t_uint256)"
					},
					"t_string_storage": {
						"encoding": "bytes",
						"label": "string",
						"numberOfBytes": "32"
					},
					"t_struct(nft_Owner)839_storage": {
						"encoding": "inplace",
						"label": "struct NFTES_Drop.nft_Owner",
						"members": [
							{
								"astId": 838,
								"contract": "NFTES_Drop_flat.sol:NFTES_Drop",
								"label": "owned_Dropsite_NFTs",
								"offset": 0,
								"slot": "0",
								"type": "t_array(t_uint256)dyn_storage"
							}
						],
						"numberOfBytes": "32"
					},
					"t_uint256": {
						"encoding": "inplace",
						"label": "uint256",
						"numberOfBytes": "32"
					}
				}
			},
			"userdoc": {
				"kind": "user",
				"methods": {},
				"version": 1
			}
		}
	}
}