{
	"RandomTest.sol": {
		"RandomTest": {
			"abi": [
				{
					"inputs": [
						{
							"internalType": "uint256",
							"name": "x",
							"type": "uint256"
						},
						{
							"internalType": "uint256",
							"name": "y",
							"type": "uint256"
						},
						{
							"internalType": "uint256",
							"name": "z",
							"type": "uint256"
						},
						{
							"internalType": "uint256",
							"name": "px",
							"type": "uint256"
						},
						{
							"internalType": "uint256",
							"name": "py",
							"type": "uint256"
						},
						{
							"internalType": "uint256",
							"name": "pz",
							"type": "uint256"
						}
					],
					"name": "randomTest",
					"outputs": [
						{
							"internalType": "uint256",
							"name": "",
							"type": "uint256"
						}
					],
					"stateMutability": "view",
					"type": "function"
				}
			],
			"devdoc": {
				"kind": "dev",
				"methods": {},
				"version": 1
			},
			"evm": {
				"assembly": "    /* \"RandomTest.sol\":54:931  contract RandomTest{... */\n  mstore(0x40, 0x80)\n  callvalue\n  dup1\n  iszero\n  tag_1\n  jumpi\n  0x00\n  dup1\n  revert\ntag_1:\n  pop\n  dataSize(sub_0)\n  dup1\n  dataOffset(sub_0)\n  0x00\n  codecopy\n  0x00\n  return\nstop\n\nsub_0: assembly {\n        /* \"RandomTest.sol\":54:931  contract RandomTest{... */\n      mstore(0x40, 0x80)\n      callvalue\n      dup1\n      iszero\n      tag_1\n      jumpi\n      0x00\n      dup1\n      revert\n    tag_1:\n      pop\n      jumpi(tag_2, lt(calldatasize, 0x04))\n      shr(0xe0, calldataload(0x00))\n      dup1\n      0x262233ea\n      eq\n      tag_3\n      jumpi\n    tag_2:\n      0x00\n      dup1\n      revert\n        /* \"RandomTest.sol\":79:722  function randomTest(uint x, uint y, uint z, uint px, uint py, uint pz) public view returns (uint)... */\n    tag_3:\n      tag_4\n      0x04\n      dup1\n      calldatasize\n      sub\n      dup2\n      add\n      swap1\n      tag_5\n      swap2\n      swap1\n      tag_6\n      jump\t// in\n    tag_5:\n      tag_7\n      jump\t// in\n    tag_4:\n      mload(0x40)\n      tag_8\n      swap2\n      swap1\n      tag_9\n      jump\t// in\n    tag_8:\n      mload(0x40)\n      dup1\n      swap2\n      sub\n      swap1\n      return\n    tag_7:\n        /* \"RandomTest.sol\":171:175  uint */\n      0x00\n        /* \"RandomTest.sol\":248:254  uint r */\n      dup1\n        /* \"RandomTest.sol\":257:265  random() */\n      tag_11\n        /* \"RandomTest.sol\":257:263  random */\n      tag_12\n        /* \"RandomTest.sol\":257:265  random() */\n      jump\t// in\n    tag_11:\n        /* \"RandomTest.sol\":248:265  uint r = random() */\n      swap1\n      pop\n        /* \"RandomTest.sol\":357:359  px */\n      dup5\n        /* \"RandomTest.sol\":352:353  r */\n      dup2\n        /* \"RandomTest.sol\":352:359  r <= px */\n      gt\n        /* \"RandomTest.sol\":348:385  if (r <= px)... */\n      tag_13\n      jumpi\n        /* \"RandomTest.sol\":384:385  x */\n      dup8\n        /* \"RandomTest.sol\":377:385  return x */\n      swap2\n      pop\n      pop\n      jump(tag_10)\n        /* \"RandomTest.sol\":348:385  if (r <= px)... */\n    tag_13:\n        /* \"RandomTest.sol\":527:529  py */\n      dup4\n        /* \"RandomTest.sol\":524:526  px */\n      dup6\n        /* \"RandomTest.sol\":524:529  px+py */\n      tag_14\n      swap2\n      swap1\n      tag_15\n      jump\t// in\n    tag_14:\n        /* \"RandomTest.sol\":518:519  r */\n      dup2\n        /* \"RandomTest.sol\":518:530  r <= (px+py) */\n      gt\n        /* \"RandomTest.sol\":514:715  if (r <= (px+py))... */\n      tag_16\n      jumpi\n        /* \"RandomTest.sol\":555:556  y */\n      dup7\n        /* \"RandomTest.sol\":548:556  return y */\n      swap2\n      pop\n      pop\n      jump(tag_10)\n        /* \"RandomTest.sol\":514:715  if (r <= (px+py))... */\n    tag_16:\n        /* \"RandomTest.sol\":714:715  z */\n      dup6\n        /* \"RandomTest.sol\":707:715  return z */\n      swap2\n      pop\n      pop\n        /* \"RandomTest.sol\":79:722  function randomTest(uint x, uint y, uint z, uint px, uint py, uint pz) public view returns (uint)... */\n    tag_10:\n      swap7\n      swap6\n      pop\n      pop\n      pop\n      pop\n      pop\n      pop\n      jump\t// out\n        /* \"RandomTest.sol\":728:928  function random() internal view returns (uint) {... */\n    tag_12:\n        /* \"RandomTest.sol\":769:773  uint */\n      0x00\n        /* \"RandomTest.sol\":810:827  uint randomnumber */\n      dup1\n        /* \"RandomTest.sol\":895:896  3 */\n      0x03\n        /* \"RandomTest.sol\":862:877  block.timestamp */\n      timestamp\n        /* \"RandomTest.sol\":879:889  msg.sender */\n      caller\n        /* \"RandomTest.sol\":845:890  abi.encodePacked(block.timestamp, msg.sender) */\n      add(0x20, mload(0x40))\n      tag_19\n      swap3\n      swap2\n      swap1\n      tag_20\n      jump\t// in\n    tag_19:\n      mload(0x40)\n      0x20\n      dup2\n      dup4\n      sub\n      sub\n      dup2\n      mstore\n      swap1\n      0x40\n      mstore\n        /* \"RandomTest.sol\":835:891  keccak256(abi.encodePacked(block.timestamp, msg.sender)) */\n      dup1\n      mload\n      swap1\n      0x20\n      add\n      keccak256\n        /* \"RandomTest.sol\":830:892  uint(keccak256(abi.encodePacked(block.timestamp, msg.sender))) */\n      0x00\n      shr\n        /* \"RandomTest.sol\":830:896  uint(keccak256(abi.encodePacked(block.timestamp, msg.sender))) % 3 */\n      tag_21\n      swap2\n      swap1\n      tag_22\n      jump\t// in\n    tag_21:\n        /* \"RandomTest.sol\":810:896  uint randomnumber = uint(keccak256(abi.encodePacked(block.timestamp, msg.sender))) % 3 */\n      swap1\n      pop\n        /* \"RandomTest.sol\":909:921  randomnumber */\n      dup1\n        /* \"RandomTest.sol\":902:921  return randomnumber */\n      swap2\n      pop\n      pop\n        /* \"RandomTest.sol\":728:928  function random() internal view returns (uint) {... */\n      swap1\n      jump\t// out\n        /* \"#utility.yul\":7:146   */\n    tag_24:\n        /* \"#utility.yul\":53:58   */\n      0x00\n        /* \"#utility.yul\":91:97   */\n      dup2\n        /* \"#utility.yul\":78:98   */\n      calldataload\n        /* \"#utility.yul\":69:98   */\n      swap1\n      pop\n        /* \"#utility.yul\":107:140   */\n      tag_26\n        /* \"#utility.yul\":134:139   */\n      dup2\n        /* \"#utility.yul\":107:140   */\n      tag_27\n      jump\t// in\n    tag_26:\n        /* \"#utility.yul\":7:146   */\n      swap3\n      swap2\n      pop\n      pop\n      jump\t// out\n        /* \"#utility.yul\":152:1209   */\n    tag_6:\n        /* \"#utility.yul\":256:262   */\n      0x00\n        /* \"#utility.yul\":264:270   */\n      dup1\n        /* \"#utility.yul\":272:278   */\n      0x00\n        /* \"#utility.yul\":280:286   */\n      dup1\n        /* \"#utility.yul\":288:294   */\n      0x00\n        /* \"#utility.yul\":296:302   */\n      dup1\n        /* \"#utility.yul\":345:348   */\n      0xc0\n        /* \"#utility.yul\":333:342   */\n      dup8\n        /* \"#utility.yul\":324:331   */\n      dup10\n        /* \"#utility.yul\":320:343   */\n      sub\n        /* \"#utility.yul\":316:349   */\n      slt\n        /* \"#utility.yul\":313:433   */\n      iszero\n      tag_29\n      jumpi\n        /* \"#utility.yul\":352:431   */\n      tag_30\n      tag_31\n      jump\t// in\n    tag_30:\n        /* \"#utility.yul\":313:433   */\n    tag_29:\n        /* \"#utility.yul\":472:473   */\n      0x00\n        /* \"#utility.yul\":497:550   */\n      tag_32\n        /* \"#utility.yul\":542:549   */\n      dup10\n        /* \"#utility.yul\":533:539   */\n      dup3\n        /* \"#utility.yul\":522:531   */\n      dup11\n        /* \"#utility.yul\":518:540   */\n      add\n        /* \"#utility.yul\":497:550   */\n      tag_24\n      jump\t// in\n    tag_32:\n        /* \"#utility.yul\":487:550   */\n      swap7\n      pop\n        /* \"#utility.yul\":443:560   */\n      pop\n        /* \"#utility.yul\":599:601   */\n      0x20\n        /* \"#utility.yul\":625:678   */\n      tag_33\n        /* \"#utility.yul\":670:677   */\n      dup10\n        /* \"#utility.yul\":661:667   */\n      dup3\n        /* \"#utility.yul\":650:659   */\n      dup11\n        /* \"#utility.yul\":646:668   */\n      add\n        /* \"#utility.yul\":625:678   */\n      tag_24\n      jump\t// in\n    tag_33:\n        /* \"#utility.yul\":615:678   */\n      swap6\n      pop\n        /* \"#utility.yul\":570:688   */\n      pop\n        /* \"#utility.yul\":727:729   */\n      0x40\n        /* \"#utility.yul\":753:806   */\n      tag_34\n        /* \"#utility.yul\":798:805   */\n      dup10\n        /* \"#utility.yul\":789:795   */\n      dup3\n        /* \"#utility.yul\":778:787   */\n      dup11\n        /* \"#utility.yul\":774:796   */\n      add\n        /* \"#utility.yul\":753:806   */\n      tag_24\n      jump\t// in\n    tag_34:\n        /* \"#utility.yul\":743:806   */\n      swap5\n      pop\n        /* \"#utility.yul\":698:816   */\n      pop\n        /* \"#utility.yul\":855:857   */\n      0x60\n        /* \"#utility.yul\":881:934   */\n      tag_35\n        /* \"#utility.yul\":926:933   */\n      dup10\n        /* \"#utility.yul\":917:923   */\n      dup3\n        /* \"#utility.yul\":906:915   */\n      dup11\n        /* \"#utility.yul\":902:924   */\n      add\n        /* \"#utility.yul\":881:934   */\n      tag_24\n      jump\t// in\n    tag_35:\n        /* \"#utility.yul\":871:934   */\n      swap4\n      pop\n        /* \"#utility.yul\":826:944   */\n      pop\n        /* \"#utility.yul\":983:986   */\n      0x80\n        /* \"#utility.yul\":1010:1063   */\n      tag_36\n        /* \"#utility.yul\":1055:1062   */\n      dup10\n        /* \"#utility.yul\":1046:1052   */\n      dup3\n        /* \"#utility.yul\":1035:1044   */\n      dup11\n        /* \"#utility.yul\":1031:1053   */\n      add\n        /* \"#utility.yul\":1010:1063   */\n      tag_24\n      jump\t// in\n    tag_36:\n        /* \"#utility.yul\":1000:1063   */\n      swap3\n      pop\n        /* \"#utility.yul\":954:1073   */\n      pop\n        /* \"#utility.yul\":1112:1115   */\n      0xa0\n        /* \"#utility.yul\":1139:1192   */\n      tag_37\n        /* \"#utility.yul\":1184:1191   */\n      dup10\n        /* \"#utility.yul\":1175:1181   */\n      dup3\n        /* \"#utility.yul\":1164:1173   */\n      dup11\n        /* \"#utility.yul\":1160:1182   */\n      add\n        /* \"#utility.yul\":1139:1192   */\n      tag_24\n      jump\t// in\n    tag_37:\n        /* \"#utility.yul\":1129:1192   */\n      swap2\n      pop\n        /* \"#utility.yul\":1083:1202   */\n      pop\n        /* \"#utility.yul\":152:1209   */\n      swap3\n      swap6\n      pop\n      swap3\n      swap6\n      pop\n      swap3\n      swap6\n      jump\t// out\n        /* \"#utility.yul\":1215:1372   */\n    tag_38:\n        /* \"#utility.yul\":1320:1365   */\n      tag_40\n        /* \"#utility.yul\":1340:1364   */\n      tag_41\n        /* \"#utility.yul\":1358:1363   */\n      dup3\n        /* \"#utility.yul\":1340:1364   */\n      tag_42\n      jump\t// in\n    tag_41:\n        /* \"#utility.yul\":1320:1365   */\n      tag_43\n      jump\t// in\n    tag_40:\n        /* \"#utility.yul\":1315:1318   */\n      dup3\n        /* \"#utility.yul\":1308:1366   */\n      mstore\n        /* \"#utility.yul\":1215:1372   */\n      pop\n      pop\n      jump\t// out\n        /* \"#utility.yul\":1378:1496   */\n    tag_44:\n        /* \"#utility.yul\":1465:1489   */\n      tag_46\n        /* \"#utility.yul\":1483:1488   */\n      dup2\n        /* \"#utility.yul\":1465:1489   */\n      tag_47\n      jump\t// in\n    tag_46:\n        /* \"#utility.yul\":1460:1463   */\n      dup3\n        /* \"#utility.yul\":1453:1490   */\n      mstore\n        /* \"#utility.yul\":1378:1496   */\n      pop\n      pop\n      jump\t// out\n        /* \"#utility.yul\":1502:1659   */\n    tag_48:\n        /* \"#utility.yul\":1607:1652   */\n      tag_50\n        /* \"#utility.yul\":1627:1651   */\n      tag_51\n        /* \"#utility.yul\":1645:1650   */\n      dup3\n        /* \"#utility.yul\":1627:1651   */\n      tag_47\n      jump\t// in\n    tag_51:\n        /* \"#utility.yul\":1607:1652   */\n      tag_52\n      jump\t// in\n    tag_50:\n        /* \"#utility.yul\":1602:1605   */\n      dup3\n        /* \"#utility.yul\":1595:1653   */\n      mstore\n        /* \"#utility.yul\":1502:1659   */\n      pop\n      pop\n      jump\t// out\n        /* \"#utility.yul\":1665:2062   */\n    tag_20:\n        /* \"#utility.yul\":1805:1808   */\n      0x00\n        /* \"#utility.yul\":1820:1895   */\n      tag_54\n        /* \"#utility.yul\":1891:1894   */\n      dup3\n        /* \"#utility.yul\":1882:1888   */\n      dup6\n        /* \"#utility.yul\":1820:1895   */\n      tag_48\n      jump\t// in\n    tag_54:\n        /* \"#utility.yul\":1920:1922   */\n      0x20\n        /* \"#utility.yul\":1915:1918   */\n      dup3\n        /* \"#utility.yul\":1911:1923   */\n      add\n        /* \"#utility.yul\":1904:1923   */\n      swap2\n      pop\n        /* \"#utility.yul\":1933:2008   */\n      tag_55\n        /* \"#utility.yul\":2004:2007   */\n      dup3\n        /* \"#utility.yul\":1995:2001   */\n      dup5\n        /* \"#utility.yul\":1933:2008   */\n      tag_38\n      jump\t// in\n    tag_55:\n        /* \"#utility.yul\":2033:2035   */\n      0x14\n        /* \"#utility.yul\":2028:2031   */\n      dup3\n        /* \"#utility.yul\":2024:2036   */\n      add\n        /* \"#utility.yul\":2017:2036   */\n      swap2\n      pop\n        /* \"#utility.yul\":2053:2056   */\n      dup2\n        /* \"#utility.yul\":2046:2056   */\n      swap1\n      pop\n        /* \"#utility.yul\":1665:2062   */\n      swap4\n      swap3\n      pop\n      pop\n      pop\n      jump\t// out\n        /* \"#utility.yul\":2068:2290   */\n    tag_9:\n        /* \"#utility.yul\":2161:2165   */\n      0x00\n        /* \"#utility.yul\":2199:2201   */\n      0x20\n        /* \"#utility.yul\":2188:2197   */\n      dup3\n        /* \"#utility.yul\":2184:2202   */\n      add\n        /* \"#utility.yul\":2176:2202   */\n      swap1\n      pop\n        /* \"#utility.yul\":2212:2283   */\n      tag_57\n        /* \"#utility.yul\":2280:2281   */\n      0x00\n        /* \"#utility.yul\":2269:2278   */\n      dup4\n        /* \"#utility.yul\":2265:2282   */\n      add\n        /* \"#utility.yul\":2256:2262   */\n      dup5\n        /* \"#utility.yul\":2212:2283   */\n      tag_44\n      jump\t// in\n    tag_57:\n        /* \"#utility.yul\":2068:2290   */\n      swap3\n      swap2\n      pop\n      pop\n      jump\t// out\n        /* \"#utility.yul\":2377:2682   */\n    tag_15:\n        /* \"#utility.yul\":2417:2420   */\n      0x00\n        /* \"#utility.yul\":2436:2456   */\n      tag_61\n        /* \"#utility.yul\":2454:2455   */\n      dup3\n        /* \"#utility.yul\":2436:2456   */\n      tag_47\n      jump\t// in\n    tag_61:\n        /* \"#utility.yul\":2431:2456   */\n      swap2\n      pop\n        /* \"#utility.yul\":2470:2490   */\n      tag_62\n        /* \"#utility.yul\":2488:2489   */\n      dup4\n        /* \"#utility.yul\":2470:2490   */\n      tag_47\n      jump\t// in\n    tag_62:\n        /* \"#utility.yul\":2465:2490   */\n      swap3\n      pop\n        /* \"#utility.yul\":2624:2625   */\n      dup3\n        /* \"#utility.yul\":2556:2622   */\n      0xffffffffffffffffffffffffffffffffffffffffffffffffffffffffffffffff\n        /* \"#utility.yul\":2552:2626   */\n      sub\n        /* \"#utility.yul\":2549:2550   */\n      dup3\n        /* \"#utility.yul\":2546:2627   */\n      gt\n        /* \"#utility.yul\":2543:2650   */\n      iszero\n      tag_63\n      jumpi\n        /* \"#utility.yul\":2630:2648   */\n      tag_64\n      tag_65\n      jump\t// in\n    tag_64:\n        /* \"#utility.yul\":2543:2650   */\n    tag_63:\n        /* \"#utility.yul\":2674:2675   */\n      dup3\n        /* \"#utility.yul\":2671:2672   */\n      dup3\n        /* \"#utility.yul\":2667:2676   */\n      add\n        /* \"#utility.yul\":2660:2676   */\n      swap1\n      pop\n        /* \"#utility.yul\":2377:2682   */\n      swap3\n      swap2\n      pop\n      pop\n      jump\t// out\n        /* \"#utility.yul\":2688:2784   */\n    tag_42:\n        /* \"#utility.yul\":2725:2732   */\n      0x00\n        /* \"#utility.yul\":2754:2778   */\n      tag_67\n        /* \"#utility.yul\":2772:2777   */\n      dup3\n        /* \"#utility.yul\":2754:2778   */\n      tag_68\n      jump\t// in\n    tag_67:\n        /* \"#utility.yul\":2743:2778   */\n      swap1\n      pop\n        /* \"#utility.yul\":2688:2784   */\n      swap2\n      swap1\n      pop\n      jump\t// out\n        /* \"#utility.yul\":2790:2916   */\n    tag_68:\n        /* \"#utility.yul\":2827:2834   */\n      0x00\n        /* \"#utility.yul\":2867:2909   */\n      0xffffffffffffffffffffffffffffffffffffffff\n        /* \"#utility.yul\":2860:2865   */\n      dup3\n        /* \"#utility.yul\":2856:2910   */\n      and\n        /* \"#utility.yul\":2845:2910   */\n      swap1\n      pop\n        /* \"#utility.yul\":2790:2916   */\n      swap2\n      swap1\n      pop\n      jump\t// out\n        /* \"#utility.yul\":2922:2999   */\n    tag_47:\n        /* \"#utility.yul\":2959:2966   */\n      0x00\n        /* \"#utility.yul\":2988:2993   */\n      dup2\n        /* \"#utility.yul\":2977:2993   */\n      swap1\n      pop\n        /* \"#utility.yul\":2922:2999   */\n      swap2\n      swap1\n      pop\n      jump\t// out\n        /* \"#utility.yul\":3005:3105   */\n    tag_43:\n        /* \"#utility.yul\":3044:3051   */\n      0x00\n        /* \"#utility.yul\":3073:3099   */\n      tag_72\n        /* \"#utility.yul\":3093:3098   */\n      dup3\n        /* \"#utility.yul\":3073:3099   */\n      tag_73\n      jump\t// in\n    tag_72:\n        /* \"#utility.yul\":3062:3099   */\n      swap1\n      pop\n        /* \"#utility.yul\":3005:3105   */\n      swap2\n      swap1\n      pop\n      jump\t// out\n        /* \"#utility.yul\":3111:3205   */\n    tag_73:\n        /* \"#utility.yul\":3150:3157   */\n      0x00\n        /* \"#utility.yul\":3179:3199   */\n      tag_75\n        /* \"#utility.yul\":3193:3198   */\n      dup3\n        /* \"#utility.yul\":3179:3199   */\n      tag_76\n      jump\t// in\n    tag_75:\n        /* \"#utility.yul\":3168:3199   */\n      swap1\n      pop\n        /* \"#utility.yul\":3111:3205   */\n      swap2\n      swap1\n      pop\n      jump\t// out\n        /* \"#utility.yul\":3211:3290   */\n    tag_52:\n        /* \"#utility.yul\":3250:3257   */\n      0x00\n        /* \"#utility.yul\":3279:3284   */\n      dup2\n        /* \"#utility.yul\":3268:3284   */\n      swap1\n      pop\n        /* \"#utility.yul\":3211:3290   */\n      swap2\n      swap1\n      pop\n      jump\t// out\n        /* \"#utility.yul\":3296:3472   */\n    tag_22:\n        /* \"#utility.yul\":3328:3329   */\n      0x00\n        /* \"#utility.yul\":3345:3365   */\n      tag_79\n        /* \"#utility.yul\":3363:3364   */\n      dup3\n        /* \"#utility.yul\":3345:3365   */\n      tag_47\n      jump\t// in\n    tag_79:\n        /* \"#utility.yul\":3340:3365   */\n      swap2\n      pop\n        /* \"#utility.yul\":3379:3399   */\n      tag_80\n        /* \"#utility.yul\":3397:3398   */\n      dup4\n        /* \"#utility.yul\":3379:3399   */\n      tag_47\n      jump\t// in\n    tag_80:\n        /* \"#utility.yul\":3374:3399   */\n      swap3\n      pop\n        /* \"#utility.yul\":3418:3419   */\n      dup3\n        /* \"#utility.yul\":3408:3443   */\n      tag_81\n      jumpi\n        /* \"#utility.yul\":3423:3441   */\n      tag_82\n      tag_83\n      jump\t// in\n    tag_82:\n        /* \"#utility.yul\":3408:3443   */\n    tag_81:\n        /* \"#utility.yul\":3464:3465   */\n      dup3\n        /* \"#utility.yul\":3461:3462   */\n      dup3\n        /* \"#utility.yul\":3457:3466   */\n      mod\n        /* \"#utility.yul\":3452:3466   */\n      swap1\n      pop\n        /* \"#utility.yul\":3296:3472   */\n      swap3\n      swap2\n      pop\n      pop\n      jump\t// out\n        /* \"#utility.yul\":3478:3658   */\n    tag_65:\n        /* \"#utility.yul\":3526:3603   */\n      0x4e487b7100000000000000000000000000000000000000000000000000000000\n        /* \"#utility.yul\":3523:3524   */\n      0x00\n        /* \"#utility.yul\":3516:3604   */\n      mstore\n        /* \"#utility.yul\":3623:3627   */\n      0x11\n        /* \"#utility.yul\":3620:3621   */\n      0x04\n        /* \"#utility.yul\":3613:3628   */\n      mstore\n        /* \"#utility.yul\":3647:3651   */\n      0x24\n        /* \"#utility.yul\":3644:3645   */\n      0x00\n        /* \"#utility.yul\":3637:3652   */\n      revert\n        /* \"#utility.yul\":3664:3844   */\n    tag_83:\n        /* \"#utility.yul\":3712:3789   */\n      0x4e487b7100000000000000000000000000000000000000000000000000000000\n        /* \"#utility.yul\":3709:3710   */\n      0x00\n        /* \"#utility.yul\":3702:3790   */\n      mstore\n        /* \"#utility.yul\":3809:3813   */\n      0x12\n        /* \"#utility.yul\":3806:3807   */\n      0x04\n        /* \"#utility.yul\":3799:3814   */\n      mstore\n        /* \"#utility.yul\":3833:3837   */\n      0x24\n        /* \"#utility.yul\":3830:3831   */\n      0x00\n        /* \"#utility.yul\":3823:3838   */\n      revert\n        /* \"#utility.yul\":3973:4090   */\n    tag_31:\n        /* \"#utility.yul\":4082:4083   */\n      0x00\n        /* \"#utility.yul\":4079:4080   */\n      dup1\n        /* \"#utility.yul\":4072:4084   */\n      revert\n        /* \"#utility.yul\":4096:4190   */\n    tag_76:\n        /* \"#utility.yul\":4129:4137   */\n      0x00\n        /* \"#utility.yul\":4177:4182   */\n      dup2\n        /* \"#utility.yul\":4173:4175   */\n      0x60\n        /* \"#utility.yul\":4169:4183   */\n      shl\n        /* \"#utility.yul\":4148:4183   */\n      swap1\n      pop\n        /* \"#utility.yul\":4096:4190   */\n      swap2\n      swap1\n      pop\n      jump\t// out\n        /* \"#utility.yul\":4196:4318   */\n    tag_27:\n        /* \"#utility.yul\":4269:4293   */\n      tag_91\n        /* \"#utility.yul\":4287:4292   */\n      dup2\n        /* \"#utility.yul\":4269:4293   */\n      tag_47\n      jump\t// in\n    tag_91:\n        /* \"#utility.yul\":4262:4267   */\n      dup2\n        /* \"#utility.yul\":4259:4294   */\n      eq\n        /* \"#utility.yul\":4249:4312   */\n      tag_92\n      jumpi\n        /* \"#utility.yul\":4308:4309   */\n      0x00\n        /* \"#utility.yul\":4305:4306   */\n      dup1\n        /* \"#utility.yul\":4298:4310   */\n      revert\n        /* \"#utility.yul\":4249:4312   */\n    tag_92:\n        /* \"#utility.yul\":4196:4318   */\n      pop\n      jump\t// out\n\n    auxdata: 0xa26469706673582212202bfb1e1367b143dce52a3c211c3f74e52c7484c685127a8d09355d1283599e0a64736f6c63430008070033\n}\n",
				"bytecode": {
					"linkReferences": {},
					"object": "608060405234801561001057600080fd5b506103bf806100206000396000f3fe608060405234801561001057600080fd5b506004361061002b5760003560e01c8063262233ea14610030575b600080fd5b61004a60048036038101906100459190610100565b610060565b60405161005791906101f6565b60405180910390f35b60008061006b6100a7565b905084811161007d578791505061009d565b83856100899190610211565b8111610098578691505061009d565b859150505b9695505050505050565b600080600342336040516020016100bf9291906101ca565b6040516020818303038152906040528051906020012060001c6100e291906102d1565b90508091505090565b6000813590506100fa81610372565b92915050565b60008060008060008060c0878903121561011d5761011c610360565b5b600061012b89828a016100eb565b965050602061013c89828a016100eb565b955050604061014d89828a016100eb565b945050606061015e89828a016100eb565b935050608061016f89828a016100eb565b92505060a061018089828a016100eb565b9150509295509295509295565b61019e61019982610267565b6102a3565b82525050565b6101ad81610299565b82525050565b6101c46101bf82610299565b6102c7565b82525050565b60006101d682856101b3565b6020820191506101e6828461018d565b6014820191508190509392505050565b600060208201905061020b60008301846101a4565b92915050565b600061021c82610299565b915061022783610299565b9250827fffffffffffffffffffffffffffffffffffffffffffffffffffffffffffffffff0382111561025c5761025b610302565b5b828201905092915050565b600061027282610279565b9050919050565b600073ffffffffffffffffffffffffffffffffffffffff82169050919050565b6000819050919050565b60006102ae826102b5565b9050919050565b60006102c082610365565b9050919050565b6000819050919050565b60006102dc82610299565b91506102e783610299565b9250826102f7576102f6610331565b5b828206905092915050565b7f4e487b7100000000000000000000000000000000000000000000000000000000600052601160045260246000fd5b7f4e487b7100000000000000000000000000000000000000000000000000000000600052601260045260246000fd5b600080fd5b60008160601b9050919050565b61037b81610299565b811461038657600080fd5b5056fea26469706673582212202bfb1e1367b143dce52a3c211c3f74e52c7484c685127a8d09355d1283599e0a64736f6c63430008070033",
					"opcodes": "PUSH1 0x80 PUSH1 0x40 MSTORE CALLVALUE DUP1 ISZERO PUSH2 0x10 JUMPI PUSH1 0x0 DUP1 REVERT JUMPDEST POP PUSH2 0x3BF DUP1 PUSH2 0x20 PUSH1 0x0 CODECOPY PUSH1 0x0 RETURN INVALID PUSH1 0x80 PUSH1 0x40 MSTORE CALLVALUE DUP1 ISZERO PUSH2 0x10 JUMPI PUSH1 0x0 DUP1 REVERT JUMPDEST POP PUSH1 0x4 CALLDATASIZE LT PUSH2 0x2B JUMPI PUSH1 0x0 CALLDATALOAD PUSH1 0xE0 SHR DUP1 PUSH4 0x262233EA EQ PUSH2 0x30 JUMPI JUMPDEST PUSH1 0x0 DUP1 REVERT JUMPDEST PUSH2 0x4A PUSH1 0x4 DUP1 CALLDATASIZE SUB DUP2 ADD SWAP1 PUSH2 0x45 SWAP2 SWAP1 PUSH2 0x100 JUMP JUMPDEST PUSH2 0x60 JUMP JUMPDEST PUSH1 0x40 MLOAD PUSH2 0x57 SWAP2 SWAP1 PUSH2 0x1F6 JUMP JUMPDEST PUSH1 0x40 MLOAD DUP1 SWAP2 SUB SWAP1 RETURN JUMPDEST PUSH1 0x0 DUP1 PUSH2 0x6B PUSH2 0xA7 JUMP JUMPDEST SWAP1 POP DUP5 DUP2 GT PUSH2 0x7D JUMPI DUP8 SWAP2 POP POP PUSH2 0x9D JUMP JUMPDEST DUP4 DUP6 PUSH2 0x89 SWAP2 SWAP1 PUSH2 0x211 JUMP JUMPDEST DUP2 GT PUSH2 0x98 JUMPI DUP7 SWAP2 POP POP PUSH2 0x9D JUMP JUMPDEST DUP6 SWAP2 POP POP JUMPDEST SWAP7 SWAP6 POP POP POP POP POP POP JUMP JUMPDEST PUSH1 0x0 DUP1 PUSH1 0x3 TIMESTAMP CALLER PUSH1 0x40 MLOAD PUSH1 0x20 ADD PUSH2 0xBF SWAP3 SWAP2 SWAP1 PUSH2 0x1CA JUMP JUMPDEST PUSH1 0x40 MLOAD PUSH1 0x20 DUP2 DUP4 SUB SUB DUP2 MSTORE SWAP1 PUSH1 0x40 MSTORE DUP1 MLOAD SWAP1 PUSH1 0x20 ADD KECCAK256 PUSH1 0x0 SHR PUSH2 0xE2 SWAP2 SWAP1 PUSH2 0x2D1 JUMP JUMPDEST SWAP1 POP DUP1 SWAP2 POP POP SWAP1 JUMP JUMPDEST PUSH1 0x0 DUP2 CALLDATALOAD SWAP1 POP PUSH2 0xFA DUP2 PUSH2 0x372 JUMP JUMPDEST SWAP3 SWAP2 POP POP JUMP JUMPDEST PUSH1 0x0 DUP1 PUSH1 0x0 DUP1 PUSH1 0x0 DUP1 PUSH1 0xC0 DUP8 DUP10 SUB SLT ISZERO PUSH2 0x11D JUMPI PUSH2 0x11C PUSH2 0x360 JUMP JUMPDEST JUMPDEST PUSH1 0x0 PUSH2 0x12B DUP10 DUP3 DUP11 ADD PUSH2 0xEB JUMP JUMPDEST SWAP7 POP POP PUSH1 0x20 PUSH2 0x13C DUP10 DUP3 DUP11 ADD PUSH2 0xEB JUMP JUMPDEST SWAP6 POP POP PUSH1 0x40 PUSH2 0x14D DUP10 DUP3 DUP11 ADD PUSH2 0xEB JUMP JUMPDEST SWAP5 POP POP PUSH1 0x60 PUSH2 0x15E DUP10 DUP3 DUP11 ADD PUSH2 0xEB JUMP JUMPDEST SWAP4 POP POP PUSH1 0x80 PUSH2 0x16F DUP10 DUP3 DUP11 ADD PUSH2 0xEB JUMP JUMPDEST SWAP3 POP POP PUSH1 0xA0 PUSH2 0x180 DUP10 DUP3 DUP11 ADD PUSH2 0xEB JUMP JUMPDEST SWAP2 POP POP SWAP3 SWAP6 POP SWAP3 SWAP6 POP SWAP3 SWAP6 JUMP JUMPDEST PUSH2 0x19E PUSH2 0x199 DUP3 PUSH2 0x267 JUMP JUMPDEST PUSH2 0x2A3 JUMP JUMPDEST DUP3 MSTORE POP POP JUMP JUMPDEST PUSH2 0x1AD DUP2 PUSH2 0x299 JUMP JUMPDEST DUP3 MSTORE POP POP JUMP JUMPDEST PUSH2 0x1C4 PUSH2 0x1BF DUP3 PUSH2 0x299 JUMP JUMPDEST PUSH2 0x2C7 JUMP JUMPDEST DUP3 MSTORE POP POP JUMP JUMPDEST PUSH1 0x0 PUSH2 0x1D6 DUP3 DUP6 PUSH2 0x1B3 JUMP JUMPDEST PUSH1 0x20 DUP3 ADD SWAP2 POP PUSH2 0x1E6 DUP3 DUP5 PUSH2 0x18D JUMP JUMPDEST PUSH1 0x14 DUP3 ADD SWAP2 POP DUP2 SWAP1 POP SWAP4 SWAP3 POP POP POP JUMP JUMPDEST PUSH1 0x0 PUSH1 0x20 DUP3 ADD SWAP1 POP PUSH2 0x20B PUSH1 0x0 DUP4 ADD DUP5 PUSH2 0x1A4 JUMP JUMPDEST SWAP3 SWAP2 POP POP JUMP JUMPDEST PUSH1 0x0 PUSH2 0x21C DUP3 PUSH2 0x299 JUMP JUMPDEST SWAP2 POP PUSH2 0x227 DUP4 PUSH2 0x299 JUMP JUMPDEST SWAP3 POP DUP3 PUSH32 0xFFFFFFFFFFFFFFFFFFFFFFFFFFFFFFFFFFFFFFFFFFFFFFFFFFFFFFFFFFFFFFFF SUB DUP3 GT ISZERO PUSH2 0x25C JUMPI PUSH2 0x25B PUSH2 0x302 JUMP JUMPDEST JUMPDEST DUP3 DUP3 ADD SWAP1 POP SWAP3 SWAP2 POP POP JUMP JUMPDEST PUSH1 0x0 PUSH2 0x272 DUP3 PUSH2 0x279 JUMP JUMPDEST SWAP1 POP SWAP2 SWAP1 POP JUMP JUMPDEST PUSH1 0x0 PUSH20 0xFFFFFFFFFFFFFFFFFFFFFFFFFFFFFFFFFFFFFFFF DUP3 AND SWAP1 POP SWAP2 SWAP1 POP JUMP JUMPDEST PUSH1 0x0 DUP2 SWAP1 POP SWAP2 SWAP1 POP JUMP JUMPDEST PUSH1 0x0 PUSH2 0x2AE DUP3 PUSH2 0x2B5 JUMP JUMPDEST SWAP1 POP SWAP2 SWAP1 POP JUMP JUMPDEST PUSH1 0x0 PUSH2 0x2C0 DUP3 PUSH2 0x365 JUMP JUMPDEST SWAP1 POP SWAP2 SWAP1 POP JUMP JUMPDEST PUSH1 0x0 DUP2 SWAP1 POP SWAP2 SWAP1 POP JUMP JUMPDEST PUSH1 0x0 PUSH2 0x2DC DUP3 PUSH2 0x299 JUMP JUMPDEST SWAP2 POP PUSH2 0x2E7 DUP4 PUSH2 0x299 JUMP JUMPDEST SWAP3 POP DUP3 PUSH2 0x2F7 JUMPI PUSH2 0x2F6 PUSH2 0x331 JUMP JUMPDEST JUMPDEST DUP3 DUP3 MOD SWAP1 POP SWAP3 SWAP2 POP POP JUMP JUMPDEST PUSH32 0x4E487B7100000000000000000000000000000000000000000000000000000000 PUSH1 0x0 MSTORE PUSH1 0x11 PUSH1 0x4 MSTORE PUSH1 0x24 PUSH1 0x0 REVERT JUMPDEST PUSH32 0x4E487B7100000000000000000000000000000000000000000000000000000000 PUSH1 0x0 MSTORE PUSH1 0x12 PUSH1 0x4 MSTORE PUSH1 0x24 PUSH1 0x0 REVERT JUMPDEST PUSH1 0x0 DUP1 REVERT JUMPDEST PUSH1 0x0 DUP2 PUSH1 0x60 SHL SWAP1 POP SWAP2 SWAP1 POP JUMP JUMPDEST PUSH2 0x37B DUP2 PUSH2 0x299 JUMP JUMPDEST DUP2 EQ PUSH2 0x386 JUMPI PUSH1 0x0 DUP1 REVERT JUMPDEST POP JUMP INVALID LOG2 PUSH5 0x6970667358 0x22 SLT KECCAK256 0x2B 0xFB 0x1E SGT PUSH8 0xB143DCE52A3C211C EXTCODEHASH PUSH21 0xE52C7484C685127A8D09355D1283599E0A64736F6C PUSH4 0x43000807 STOP CALLER "
				},
				"gasEstimates": {
					"creation": {
						"codeDepositCost": "191800",
						"executionCost": "232",
						"totalCost": "192032"
					},
					"external": {
						"randomTest(uint256,uint256,uint256,uint256,uint256,uint256)": "infinite"
					},
					"internal": {
						"random()": "infinite"
					}
				},
				"methodIdentifiers": {
					"randomTest(uint256,uint256,uint256,uint256,uint256,uint256)": "262233ea"
				}
			},
			"userdoc": {
				"kind": "user",
				"methods": {},
				"version": 1
			}
		}
	}
}