{
	"Dropsite.sol": {
		"Dropsite": {
			"abi": [
				{
					"inputs": [
						{
							"internalType": "string",
							"name": "name",
							"type": "string"
						}
					],
					"stateMutability": "nonpayable",
					"type": "constructor"
				},
				{
					"anonymous": false,
					"inputs": [
						{
							"indexed": true,
							"internalType": "address",
							"name": "operator",
							"type": "address"
						},
						{
							"indexed": true,
							"internalType": "address",
							"name": "from",
							"type": "address"
						},
						{
							"indexed": true,
							"internalType": "address",
							"name": "to",
							"type": "address"
						},
						{
							"indexed": false,
							"internalType": "uint256",
							"name": "id",
							"type": "uint256"
						},
						{
							"indexed": false,
							"internalType": "uint256",
							"name": "value",
							"type": "uint256"
						}
					],
					"name": "TransferSingle",
					"type": "event"
				},
				{
					"inputs": [],
					"name": "ContractBalance",
					"outputs": [
						{
							"internalType": "uint256",
							"name": "",
							"type": "uint256"
						}
					],
					"stateMutability": "view",
					"type": "function"
				},
				{
					"inputs": [
						{
							"internalType": "address",
							"name": "user_addr",
							"type": "address"
						}
					],
					"name": "CryptoRandomMint",
					"outputs": [
						{
							"internalType": "uint256",
							"name": "",
							"type": "uint256"
						},
						{
							"internalType": "string",
							"name": "",
							"type": "string"
						}
					],
					"stateMutability": "payable",
					"type": "function"
				},
				{
					"inputs": [
						{
							"internalType": "address",
							"name": "user_addr",
							"type": "address"
						}
					],
					"name": "FiatRandomMint",
					"outputs": [
						{
							"internalType": "uint256",
							"name": "",
							"type": "uint256"
						},
						{
							"internalType": "string",
							"name": "",
							"type": "string"
						}
					],
					"stateMutability": "nonpayable",
					"type": "function"
				},
				{
					"inputs": [],
					"name": "IsPaused",
					"outputs": [
						{
							"internalType": "bool",
							"name": "",
							"type": "bool"
						}
					],
					"stateMutability": "view",
					"type": "function"
				},
				{
					"inputs": [],
					"name": "Owner",
					"outputs": [
						{
							"internalType": "address payable",
							"name": "",
							"type": "address"
						}
					],
					"stateMutability": "view",
					"type": "function"
				},
				{
					"inputs": [],
					"name": "checkMintedCategoryWise",
					"outputs": [
						{
							"internalType": "uint256",
							"name": "",
							"type": "uint256"
						},
						{
							"internalType": "uint256",
							"name": "",
							"type": "uint256"
						},
						{
							"internalType": "uint256",
							"name": "",
							"type": "uint256"
						}
					],
					"stateMutability": "view",
					"type": "function"
				},
				{
					"inputs": [],
					"name": "checkTotalMinted",
					"outputs": [
						{
							"internalType": "uint256",
							"name": "",
							"type": "uint256"
						}
					],
					"stateMutability": "view",
					"type": "function"
				},
				{
					"inputs": [],
					"name": "getMintFee",
					"outputs": [
						{
							"internalType": "uint256",
							"name": "",
							"type": "uint256"
						}
					],
					"stateMutability": "view",
					"type": "function"
				},
				{
					"inputs": [],
					"name": "openDropsite",
					"outputs": [],
					"stateMutability": "nonpayable",
					"type": "function"
				},
				{
					"inputs": [
						{
							"internalType": "address",
							"name": "addr",
							"type": "address"
						}
					],
					"name": "returnOwner",
					"outputs": [
						{
							"internalType": "uint256[]",
							"name": "",
							"type": "uint256[]"
						}
					],
					"stateMutability": "view",
					"type": "function"
				},
				{
					"inputs": [
						{
							"internalType": "uint256",
							"name": "_mintFee",
							"type": "uint256"
						}
					],
					"name": "setMintFee",
					"outputs": [],
					"stateMutability": "nonpayable",
					"type": "function"
				},
				{
					"inputs": [],
					"name": "stopDropsite",
					"outputs": [],
					"stateMutability": "nonpayable",
					"type": "function"
				},
				{
					"inputs": [
						{
							"internalType": "address payable",
							"name": "to",
							"type": "address"
						}
					],
					"name": "withDraw",
					"outputs": [],
					"stateMutability": "payable",
					"type": "function"
				}
			],
			"devdoc": {
				"kind": "dev",
				"methods": {},
				"version": 1
			},
			"evm": {
				"assembly": "    /* \"Dropsite.sol\":241:257  string  data =\"\" */\n  0xa0\n    /* \"Dropsite.sol\":146:6516  contract Dropsite is ERC1155_Dropsite  { ... */\n  0x40\n    /* \"Dropsite.sol\":241:257  string  data =\"\" */\n  dup2\n  swap1\n  mstore\n  0x00\n    /* \"Dropsite.sol\":146:6516  contract Dropsite is ERC1155_Dropsite  { ... */\n  0x80\n    /* \"Dropsite.sol\":241:257  string  data =\"\" */\n  dup2\n  swap1\n  mstore\n  tag_1\n  swap2\n  0x02\n  swap2\n  tag_2\n  jump\t// in\ntag_1:\n  pop\n    /* \"Dropsite.sol\":440:506  uint8[20] private nums = [0,1,1,2,2,2,2,2,2,2,2,2,2,2,2,2,2,2,2,2] */\n  0x40\n  dup1\n  mload\n  0x0280\n  dup2\n  add\n  dup3\n  mstore\n  0x00\n  dup2\n  mstore\n    /* \"Dropsite.sol\":468:469  1 */\n  0x01\n    /* \"Dropsite.sol\":440:506  uint8[20] private nums = [0,1,1,2,2,2,2,2,2,2,2,2,2,2,2,2,2,2,2,2] */\n  0x20\n  dup3\n  add\n  dup2\n  swap1\n  mstore\n  swap2\n  dup2\n  add\n  swap2\n  swap1\n  swap2\n  mstore\n    /* \"Dropsite.sol\":472:473  2 */\n  0x02\n    /* \"Dropsite.sol\":440:506  uint8[20] private nums = [0,1,1,2,2,2,2,2,2,2,2,2,2,2,2,2,2,2,2,2] */\n  0x60\n  dup3\n  add\n  dup2\n  swap1\n  mstore\n  0x80\n  dup3\n  add\n  dup2\n  swap1\n  mstore\n  0xa0\n  dup3\n  add\n  dup2\n  swap1\n  mstore\n  0xc0\n  dup3\n  add\n  dup2\n  swap1\n  mstore\n  0xe0\n  dup3\n  add\n  dup2\n  swap1\n  mstore\n  0x0100\n  dup3\n  add\n  dup2\n  swap1\n  mstore\n  0x0120\n  dup3\n  add\n  dup2\n  swap1\n  mstore\n  0x0140\n  dup3\n  add\n  dup2\n  swap1\n  mstore\n  0x0160\n  dup3\n  add\n  dup2\n  swap1\n  mstore\n  0x0180\n  dup3\n  add\n  dup2\n  swap1\n  mstore\n  0x01a0\n  dup3\n  add\n  dup2\n  swap1\n  mstore\n  0x01c0\n  dup3\n  add\n  dup2\n  swap1\n  mstore\n  0x01e0\n  dup3\n  add\n  dup2\n  swap1\n  mstore\n  0x0200\n  dup3\n  add\n  dup2\n  swap1\n  mstore\n  0x0220\n  dup3\n  add\n  dup2\n  swap1\n  mstore\n  0x0240\n  dup3\n  add\n  dup2\n  swap1\n  mstore\n  0x0260\n  dup3\n  add\n  mstore\n  tag_3\n  swap1\n  0x03\n  swap1\n  0x14\n  tag_4\n  jump\t// in\ntag_3:\n  pop\n    /* \"Dropsite.sol\":1246:1273  bool public IsPaused = true */\n  0x0c\n  dup1\n  sload\n  not(0xff)\n  and\n    /* \"Dropsite.sol\":1269:1273  true */\n  0x01\n    /* \"Dropsite.sol\":1246:1273  bool public IsPaused = true */\n  or\n  swap1\n  sstore\n    /* \"Dropsite.sol\":1340:1615  constructor (string memory name){... */\n  callvalue\n  dup1\n  iszero\n  tag_5\n  jumpi\n  0x00\n  dup1\n  revert\ntag_5:\n  pop\n  mload(0x40)\n  sub(codesize, bytecodeSize)\n  dup1\n  bytecodeSize\n  dup4\n  codecopy\n  dup2\n  add\n  0x40\n  dup2\n  swap1\n  mstore\n  tag_6\n  swap2\n  tag_7\n  jump\t// in\ntag_6:\n    /* \"Dropsite.sol\":1382:1394  _name = name */\n  dup1\n  mload\n  tag_10\n  swap1\n    /* \"Dropsite.sol\":1382:1387  _name */\n  0x0d\n  swap1\n    /* \"Dropsite.sol\":1382:1394  _name = name */\n  0x20\n  dup5\n  add\n  swap1\n  tag_2\n  jump\t// in\ntag_10:\n  pop\n  pop\n    /* \"Dropsite.sol\":1404:1409  Owner */\n  0x0c\n    /* \"Dropsite.sol\":1404:1431  Owner = payable(msg.sender) */\n  dup1\n  sload\n  not(sub(shl(0xa8, 0x01), 0x0100))\n  and\n    /* \"Dropsite.sol\":1420:1430  msg.sender */\n  caller\n    /* \"Dropsite.sol\":1404:1431  Owner = payable(msg.sender) */\n  0x0100\n  mul\n  or\n  swap1\n  sstore\n  0x00\n    /* \"Dropsite.sol\":1442:1457  TotalNFTsMinted */\n  0x04\n    /* \"Dropsite.sol\":1442:1459  TotalNFTsMinted=0 */\n  dup2\n  swap1\n  sstore\n  0x01\n    /* \"Dropsite.sol\":1493:1504  numOfCopies */\n  0x05\n    /* \"Dropsite.sol\":1493:1506  numOfCopies=1 */\n  sstore\n  0x07\n    /* \"Dropsite.sol\":1553:1562  Diamond=0 */\n  dup2\n  swap1\n  sstore\n  0x08\n    /* \"Dropsite.sol\":1584:1590  Gold=0 */\n  dup2\n  swap1\n  sstore\n    /* \"Dropsite.sol\":1600:1606  Silver */\n  0x09\n    /* \"Dropsite.sol\":1600:1608  Silver=0 */\n  sstore\n    /* \"Dropsite.sol\":146:6516  contract Dropsite is ERC1155_Dropsite  { ... */\n  jump(tag_28)\ntag_2:\n  dup3\n  dup1\n  sload\n  tag_12\n  swap1\n  tag_13\n  jump\t// in\ntag_12:\n  swap1\n  0x00\n  mstore\n  keccak256(0x00, 0x20)\n  swap1\n  0x1f\n  add\n  0x20\n  swap1\n  div\n  dup2\n  add\n  swap3\n  dup3\n  tag_15\n  jumpi\n  0x00\n  dup6\n  sstore\n  jump(tag_18)\ntag_15:\n  dup3\n  0x1f\n  lt\n  tag_16\n  jumpi\n  dup1\n  mload\n  not(0xff)\n  and\n  dup4\n  dup1\n  add\n  or\n  dup6\n  sstore\n  jump(tag_18)\ntag_16:\n  dup3\n  dup1\n  add\n  0x01\n  add\n  dup6\n  sstore\n  dup3\n  iszero\n  tag_18\n  jumpi\n  swap2\n  dup3\n  add\ntag_17:\n  dup3\n  dup2\n  gt\n  iszero\n  tag_18\n  jumpi\n  dup3\n  mload\n  dup3\n  sstore\n  swap2\n  0x20\n  add\n  swap2\n  swap1\n  0x01\n  add\n  swap1\n  jump(tag_17)\ntag_18:\n  pop\n  tag_19\n  swap3\n  swap2\n  pop\n  tag_20\n  jump\t// in\ntag_19:\n  pop\n  swap1\n  jump\t// out\ntag_4:\n  0x01\n  dup4\n  add\n  swap2\n  dup4\n  swap1\n  dup3\n  iszero\n  tag_18\n  jumpi\n  swap2\n  0x20\n  mul\n  dup3\n  add\n  0x00\ntag_22:\n  dup4\n  dup3\n  gt\n  iszero\n  tag_23\n  jumpi\n  dup4\n  mload\n  dup4\n  dup3\n  0x0100\n  exp\n  dup2\n  sload\n  dup2\n  0xff\n  mul\n  not\n  and\n  swap1\n  dup4\n  0xff\n  and\n  mul\n  or\n  swap1\n  sstore\n  pop\n  swap3\n  0x20\n  add\n  swap3\n  0x01\n  add\n  0x20\n  dup2\n  0x00\n  add\n  div\n  swap3\n  dup4\n  add\n  swap3\n  0x01\n  sub\n  mul\n  jump(tag_22)\ntag_23:\n  dup1\n  iszero\n  tag_24\n  jumpi\n  dup3\n  dup2\n  0x0100\n  exp\n  dup2\n  sload\n  swap1\n  0xff\n  mul\n  not\n  and\n  swap1\n  sstore\n  0x01\n  add\n  0x20\n  dup2\n  0x00\n  add\n  div\n  swap3\n  dup4\n  add\n  swap3\n  0x01\n  sub\n  mul\n  jump(tag_23)\ntag_24:\n  pop\n  pop\n  tag_19\n  swap3\n  swap2\n  pop\ntag_20:\ntag_26:\n  dup1\n  dup3\n  gt\n  iszero\n  tag_19\n  jumpi\n  0x00\n  dup2\n  sstore\n  0x01\n  add\n  jump(tag_26)\n    /* \"#utility.yul\":14:1101   */\ntag_7:\n    /* \"#utility.yul\":94:100   */\n  0x00\n    /* \"#utility.yul\":125:127   */\n  0x20\n    /* \"#utility.yul\":168:170   */\n  dup1\n    /* \"#utility.yul\":156:165   */\n  dup4\n    /* \"#utility.yul\":147:154   */\n  dup6\n    /* \"#utility.yul\":143:166   */\n  sub\n    /* \"#utility.yul\":139:171   */\n  slt\n    /* \"#utility.yul\":136:188   */\n  iszero\n  tag_30\n  jumpi\n    /* \"#utility.yul\":184:185   */\n  0x00\n    /* \"#utility.yul\":181:182   */\n  dup1\n    /* \"#utility.yul\":174:186   */\n  revert\n    /* \"#utility.yul\":136:188   */\ntag_30:\n    /* \"#utility.yul\":211:227   */\n  dup3\n  mload\n  sub(shl(0x40, 0x01), 0x01)\n    /* \"#utility.yul\":276:290   */\n  dup1\n  dup3\n  gt\n    /* \"#utility.yul\":273:307   */\n  iszero\n  tag_31\n  jumpi\n    /* \"#utility.yul\":303:304   */\n  0x00\n    /* \"#utility.yul\":300:301   */\n  dup1\n    /* \"#utility.yul\":293:305   */\n  revert\n    /* \"#utility.yul\":273:307   */\ntag_31:\n    /* \"#utility.yul\":341:347   */\n  dup2\n    /* \"#utility.yul\":330:339   */\n  dup6\n    /* \"#utility.yul\":326:348   */\n  add\n    /* \"#utility.yul\":316:348   */\n  swap2\n  pop\n    /* \"#utility.yul\":386:393   */\n  dup6\n    /* \"#utility.yul\":379:383   */\n  0x1f\n    /* \"#utility.yul\":375:377   */\n  dup4\n    /* \"#utility.yul\":371:384   */\n  add\n    /* \"#utility.yul\":367:394   */\n  slt\n    /* \"#utility.yul\":357:412   */\n  tag_32\n  jumpi\n    /* \"#utility.yul\":408:409   */\n  0x00\n    /* \"#utility.yul\":405:406   */\n  dup1\n    /* \"#utility.yul\":398:410   */\n  revert\n    /* \"#utility.yul\":357:412   */\ntag_32:\n    /* \"#utility.yul\":437:439   */\n  dup2\n    /* \"#utility.yul\":431:440   */\n  mload\n    /* \"#utility.yul\":459:461   */\n  dup2\n    /* \"#utility.yul\":455:457   */\n  dup2\n    /* \"#utility.yul\":452:462   */\n  gt\n    /* \"#utility.yul\":449:485   */\n  iszero\n  tag_34\n  jumpi\n    /* \"#utility.yul\":465:483   */\n  tag_34\n  tag_35\n  jump\t// in\ntag_34:\n    /* \"#utility.yul\":540:542   */\n  0x40\n    /* \"#utility.yul\":534:543   */\n  mload\n    /* \"#utility.yul\":508:510   */\n  0x1f\n    /* \"#utility.yul\":594:607   */\n  dup3\n  add\n  not(0x1f)\n    /* \"#utility.yul\":590:612   */\n  swap1\n  dup2\n  and\n    /* \"#utility.yul\":614:616   */\n  0x3f\n    /* \"#utility.yul\":586:617   */\n  add\n    /* \"#utility.yul\":582:622   */\n  and\n    /* \"#utility.yul\":570:623   */\n  dup2\n  add\n  swap1\n    /* \"#utility.yul\":638:656   */\n  dup4\n  dup3\n  gt\n    /* \"#utility.yul\":658:680   */\n  dup2\n  dup4\n  lt\n    /* \"#utility.yul\":635:681   */\n  or\n    /* \"#utility.yul\":632:704   */\n  iszero\n  tag_37\n  jumpi\n    /* \"#utility.yul\":684:702   */\n  tag_37\n  tag_35\n  jump\t// in\ntag_37:\n    /* \"#utility.yul\":724:734   */\n  dup2\n    /* \"#utility.yul\":720:722   */\n  0x40\n    /* \"#utility.yul\":713:735   */\n  mstore\n    /* \"#utility.yul\":759:761   */\n  dup3\n    /* \"#utility.yul\":751:757   */\n  dup2\n    /* \"#utility.yul\":744:762   */\n  mstore\n    /* \"#utility.yul\":799:806   */\n  dup9\n    /* \"#utility.yul\":794:796   */\n  dup7\n    /* \"#utility.yul\":789:791   */\n  dup5\n    /* \"#utility.yul\":785:787   */\n  dup8\n    /* \"#utility.yul\":781:792   */\n  add\n    /* \"#utility.yul\":777:797   */\n  add\n    /* \"#utility.yul\":774:807   */\n  gt\n    /* \"#utility.yul\":771:824   */\n  iszero\n  tag_38\n  jumpi\n    /* \"#utility.yul\":820:821   */\n  0x00\n    /* \"#utility.yul\":817:818   */\n  dup1\n    /* \"#utility.yul\":810:822   */\n  revert\n    /* \"#utility.yul\":771:824   */\ntag_38:\n    /* \"#utility.yul\":842:843   */\n  0x00\n    /* \"#utility.yul\":833:843   */\n  swap4\n  pop\n    /* \"#utility.yul\":852:981   */\ntag_39:\n    /* \"#utility.yul\":866:868   */\n  dup3\n    /* \"#utility.yul\":863:864   */\n  dup5\n    /* \"#utility.yul\":860:869   */\n  lt\n    /* \"#utility.yul\":852:981   */\n  iszero\n  tag_41\n  jumpi\n    /* \"#utility.yul\":954:964   */\n  dup5\n  dup5\n  add\n    /* \"#utility.yul\":950:969   */\n  dup7\n  add\n    /* \"#utility.yul\":944:970   */\n  mload\n    /* \"#utility.yul\":923:937   */\n  dup2\n  dup6\n  add\n    /* \"#utility.yul\":919:942   */\n  dup8\n  add\n    /* \"#utility.yul\":912:971   */\n  mstore\n    /* \"#utility.yul\":877:887   */\n  swap3\n  dup6\n  add\n  swap3\n    /* \"#utility.yul\":852:981   */\n  jump(tag_39)\ntag_41:\n    /* \"#utility.yul\":999:1001   */\n  dup3\n    /* \"#utility.yul\":996:997   */\n  dup5\n    /* \"#utility.yul\":993:1002   */\n  gt\n    /* \"#utility.yul\":990:1070   */\n  iszero\n  tag_42\n  jumpi\n    /* \"#utility.yul\":1058:1059   */\n  0x00\n    /* \"#utility.yul\":1053:1055   */\n  dup7\n    /* \"#utility.yul\":1048:1050   */\n  dup5\n    /* \"#utility.yul\":1040:1046   */\n  dup4\n    /* \"#utility.yul\":1036:1051   */\n  add\n    /* \"#utility.yul\":1032:1056   */\n  add\n    /* \"#utility.yul\":1025:1060   */\n  mstore\n    /* \"#utility.yul\":990:1070   */\ntag_42:\n    /* \"#utility.yul\":1089:1095   */\n  swap9\n    /* \"#utility.yul\":14:1101   */\n  swap8\n  pop\n  pop\n  pop\n  pop\n  pop\n  pop\n  pop\n  pop\n  jump\t// out\n    /* \"#utility.yul\":1106:1486   */\ntag_13:\n    /* \"#utility.yul\":1185:1186   */\n  0x01\n    /* \"#utility.yul\":1181:1193   */\n  dup2\n  dup2\n  shr\n  swap1\n    /* \"#utility.yul\":1228:1240   */\n  dup3\n  and\n  dup1\n    /* \"#utility.yul\":1249:1310   */\n  tag_44\n  jumpi\n    /* \"#utility.yul\":1303:1307   */\n  0x7f\n    /* \"#utility.yul\":1295:1301   */\n  dup3\n    /* \"#utility.yul\":1291:1308   */\n  and\n    /* \"#utility.yul\":1281:1308   */\n  swap2\n  pop\n    /* \"#utility.yul\":1249:1310   */\ntag_44:\n    /* \"#utility.yul\":1356:1358   */\n  0x20\n    /* \"#utility.yul\":1348:1354   */\n  dup3\n    /* \"#utility.yul\":1345:1359   */\n  lt\n    /* \"#utility.yul\":1325:1343   */\n  dup2\n    /* \"#utility.yul\":1322:1360   */\n  eq\n    /* \"#utility.yul\":1319:1480   */\n  iszero\n  tag_45\n  jumpi\n    /* \"#utility.yul\":1402:1412   */\n  0x4e487b71\n    /* \"#utility.yul\":1397:1400   */\n  0xe0\n    /* \"#utility.yul\":1393:1413   */\n  shl\n    /* \"#utility.yul\":1390:1391   */\n  0x00\n    /* \"#utility.yul\":1383:1414   */\n  mstore\n    /* \"#utility.yul\":1437:1441   */\n  0x22\n    /* \"#utility.yul\":1434:1435   */\n  0x04\n    /* \"#utility.yul\":1427:1442   */\n  mstore\n    /* \"#utility.yul\":1465:1469   */\n  0x24\n    /* \"#utility.yul\":1462:1463   */\n  0x00\n    /* \"#utility.yul\":1455:1470   */\n  revert\n    /* \"#utility.yul\":1319:1480   */\ntag_45:\n  pop\n    /* \"#utility.yul\":1106:1486   */\n  swap2\n  swap1\n  pop\n  jump\t// out\n    /* \"#utility.yul\":1491:1618   */\ntag_35:\n    /* \"#utility.yul\":1552:1562   */\n  0x4e487b71\n    /* \"#utility.yul\":1547:1550   */\n  0xe0\n    /* \"#utility.yul\":1543:1563   */\n  shl\n    /* \"#utility.yul\":1540:1541   */\n  0x00\n    /* \"#utility.yul\":1533:1564   */\n  mstore\n    /* \"#utility.yul\":1583:1587   */\n  0x41\n    /* \"#utility.yul\":1580:1581   */\n  0x04\n    /* \"#utility.yul\":1573:1588   */\n  mstore\n    /* \"#utility.yul\":1607:1611   */\n  0x24\n    /* \"#utility.yul\":1604:1605   */\n  0x00\n    /* \"#utility.yul\":1597:1612   */\n  revert\n    /* \"#utility.yul\":1491:1618   */\ntag_28:\n    /* \"Dropsite.sol\":146:6516  contract Dropsite is ERC1155_Dropsite  { ... */\n  dataSize(sub_0)\n  dup1\n  dataOffset(sub_0)\n  0x00\n  codecopy\n  0x00\n  return\nstop\n\nsub_0: assembly {\n        /* \"Dropsite.sol\":146:6516  contract Dropsite is ERC1155_Dropsite  { ... */\n      mstore(0x40, 0x80)\n      jumpi(tag_1, lt(calldatasize, 0x04))\n      shr(0xe0, calldataload(0x00))\n      dup1\n      0x3d65df70\n      gt\n      tag_15\n      jumpi\n      dup1\n      0xaa90c726\n      gt\n      tag_16\n      jumpi\n      dup1\n      0xaa90c726\n      eq\n      tag_11\n      jumpi\n      dup1\n      0xb4a99a4e\n      eq\n      tag_12\n      jumpi\n      dup1\n      0xeddd0d9c\n      eq\n      tag_13\n      jumpi\n      dup1\n      0xfd6c3b1b\n      eq\n      tag_14\n      jumpi\n      0x00\n      dup1\n      revert\n    tag_16:\n      dup1\n      0x3d65df70\n      eq\n      tag_8\n      jumpi\n      dup1\n      0x60daa851\n      eq\n      tag_9\n      jumpi\n      dup1\n      0x7a5caab3\n      eq\n      tag_10\n      jumpi\n      0x00\n      dup1\n      revert\n    tag_15:\n      dup1\n      0x0390c11c\n      eq\n      tag_2\n      jumpi\n      dup1\n      0x0a67d2c7\n      eq\n      tag_3\n      jumpi\n      dup1\n      0x1309a563\n      eq\n      tag_4\n      jumpi\n      dup1\n      0x15460259\n      eq\n      tag_5\n      jumpi\n      dup1\n      0x32b61b4c\n      eq\n      tag_6\n      jumpi\n      dup1\n      0x3b668059\n      eq\n      tag_7\n      jumpi\n    tag_1:\n      0x00\n      dup1\n      revert\n        /* \"Dropsite.sol\":2307:2411  function checkTotalMinted() public view OnlyOwner returns(uint){... */\n    tag_2:\n      callvalue\n      dup1\n      iszero\n      tag_17\n      jumpi\n      0x00\n      dup1\n      revert\n    tag_17:\n      pop\n      tag_18\n      tag_19\n      jump\t// in\n    tag_18:\n      mload(0x40)\n        /* \"#utility.yul\":8562:8587   */\n      swap1\n      dup2\n      mstore\n        /* \"#utility.yul\":8550:8552   */\n      0x20\n        /* \"#utility.yul\":8535:8553   */\n      add\n        /* \"Dropsite.sol\":2307:2411  function checkTotalMinted() public view OnlyOwner returns(uint){... */\n    tag_20:\n      mload(0x40)\n      dup1\n      swap2\n      sub\n      swap1\n      return\n        /* \"Dropsite.sol\":2790:3004  function withDraw(address payable to) public payable OnlyOwner {... */\n    tag_3:\n      tag_22\n      tag_23\n      calldatasize\n      0x04\n      tag_37\n      jump\t// in\n    tag_23:\n      tag_25\n      jump\t// in\n    tag_22:\n      stop\n        /* \"Dropsite.sol\":1246:1273  bool public IsPaused = true */\n    tag_4:\n      callvalue\n      dup1\n      iszero\n      tag_26\n      jumpi\n      0x00\n      dup1\n      revert\n    tag_26:\n      pop\n      sload(0x0c)\n      tag_27\n      swap1\n      0xff\n      and\n      dup2\n      jump\n    tag_27:\n      mload(0x40)\n        /* \"#utility.yul\":4448:4462   */\n      swap1\n      iszero\n        /* \"#utility.yul\":4441:4463   */\n      iszero\n        /* \"#utility.yul\":4423:4464   */\n      dup2\n      mstore\n        /* \"#utility.yul\":4411:4413   */\n      0x20\n        /* \"#utility.yul\":4396:4414   */\n      add\n        /* \"Dropsite.sol\":1246:1273  bool public IsPaused = true */\n      tag_20\n        /* \"#utility.yul\":4283:4470   */\n      jump\n        /* \"Dropsite.sol\":2559:2695  function openDropsite() public OnlyOwner {... */\n    tag_5:\n      callvalue\n      dup1\n      iszero\n      tag_31\n      jumpi\n      0x00\n      dup1\n      revert\n    tag_31:\n      pop\n      tag_22\n      tag_33\n      jump\t// in\n        /* \"Dropsite.sol\":5283:5729  function FiatRandomMint(address user_addr) OnlyOwner contractIsNotPaused public returns (uint,string memory) {... */\n    tag_6:\n      callvalue\n      dup1\n      iszero\n      tag_34\n      jumpi\n      0x00\n      dup1\n      revert\n    tag_34:\n      pop\n      tag_35\n      tag_36\n      calldatasize\n      0x04\n      tag_37\n      jump\t// in\n    tag_36:\n      tag_38\n      jump\t// in\n    tag_35:\n      mload(0x40)\n      tag_20\n      swap3\n      swap2\n      swap1\n      tag_40\n      jump\t// in\n        /* \"Dropsite.sol\":3057:3165  function ContractBalance() public view OnlyOwner returns (uint){... */\n    tag_7:\n      callvalue\n      dup1\n      iszero\n      tag_41\n      jumpi\n      0x00\n      dup1\n      revert\n    tag_41:\n      pop\n      tag_18\n      tag_43\n      jump\t// in\n        /* \"Dropsite.sol\":5946:6514  function CryptoRandomMint(address user_addr)  contractIsNotPaused public payable returns (uint,string memory) {... */\n    tag_8:\n      tag_35\n      tag_46\n      calldatasize\n      0x04\n      tag_37\n      jump\t// in\n    tag_46:\n      tag_47\n      jump\t// in\n        /* \"Dropsite.sol\":1882:2029  function checkMintedCategoryWise() public view OnlyOwner contractIsNotPaused returns(uint,uint,uint){... */\n    tag_9:\n      callvalue\n      dup1\n      iszero\n      tag_49\n      jumpi\n      0x00\n      dup1\n      revert\n    tag_49:\n      pop\n      tag_50\n      tag_51\n      jump\t// in\n    tag_50:\n      0x40\n      dup1\n      mload\n        /* \"#utility.yul\":9349:9374   */\n      swap4\n      dup5\n      mstore\n        /* \"#utility.yul\":9405:9407   */\n      0x20\n        /* \"#utility.yul\":9390:9408   */\n      dup5\n      add\n        /* \"#utility.yul\":9383:9417   */\n      swap3\n      swap1\n      swap3\n      mstore\n        /* \"#utility.yul\":9433:9451   */\n      swap1\n      dup3\n      add\n        /* \"#utility.yul\":9426:9460   */\n      mstore\n        /* \"#utility.yul\":9337:9339   */\n      0x60\n        /* \"#utility.yul\":9322:9340   */\n      add\n        /* \"Dropsite.sol\":1882:2029  function checkMintedCategoryWise() public view OnlyOwner contractIsNotPaused returns(uint,uint,uint){... */\n      tag_20\n        /* \"#utility.yul\":9147:9466   */\n      jump\n        /* \"Dropsite.sol\":2151:2262  function getMintFee() public view OnlyOwner contractIsNotPaused returns (uint) {... */\n    tag_10:\n      callvalue\n      dup1\n      iszero\n      tag_54\n      jumpi\n      0x00\n      dup1\n      revert\n    tag_54:\n      pop\n      tag_18\n      tag_56\n      jump\t// in\n        /* \"Dropsite.sol\":2417:2552  function stopDropsite() public OnlyOwner{... */\n    tag_11:\n      callvalue\n      dup1\n      iszero\n      tag_58\n      jumpi\n      0x00\n      dup1\n      revert\n    tag_58:\n      pop\n      tag_22\n      tag_60\n      jump\t// in\n        /* \"Dropsite.sol\":1279:1308  address payable public  Owner */\n    tag_12:\n      callvalue\n      dup1\n      iszero\n      tag_61\n      jumpi\n      0x00\n      dup1\n      revert\n    tag_61:\n      pop\n      sload(0x0c)\n      tag_62\n      swap1\n      0x0100\n      swap1\n      div\n      sub(shl(0xa0, 0x01), 0x01)\n      and\n      dup2\n      jump\n    tag_62:\n      mload(0x40)\n      sub(shl(0xa0, 0x01), 0x01)\n        /* \"#utility.yul\":3034:3066   */\n      swap1\n      swap2\n      and\n        /* \"#utility.yul\":3016:3067   */\n      dup2\n      mstore\n        /* \"#utility.yul\":3004:3006   */\n      0x20\n        /* \"#utility.yul\":2989:3007   */\n      add\n        /* \"Dropsite.sol\":1279:1308  address payable public  Owner */\n      tag_20\n        /* \"#utility.yul\":2854:3073   */\n      jump\n        /* \"Dropsite.sol\":2035:2141  function setMintFee(uint _mintFee) public OnlyOwner contractIsNotPaused {... */\n    tag_13:\n      callvalue\n      dup1\n      iszero\n      tag_66\n      jumpi\n      0x00\n      dup1\n      revert\n    tag_66:\n      pop\n      tag_22\n      tag_68\n      calldatasize\n      0x04\n      tag_69\n      jump\t// in\n    tag_68:\n      tag_70\n      jump\t// in\n        /* \"Dropsite.sol\":1663:1822  function returnOwner(address addr) public view contractIsNotPaused returns  (uint[] memory){... */\n    tag_14:\n      callvalue\n      dup1\n      iszero\n      tag_71\n      jumpi\n      0x00\n      dup1\n      revert\n    tag_71:\n      pop\n      tag_72\n      tag_73\n      calldatasize\n      0x04\n      tag_37\n      jump\t// in\n    tag_73:\n      tag_74\n      jump\t// in\n    tag_72:\n      mload(0x40)\n      tag_20\n      swap2\n      swap1\n      tag_76\n      jump\t// in\n        /* \"Dropsite.sol\":2307:2411  function checkTotalMinted() public view OnlyOwner returns(uint){... */\n    tag_19:\n        /* \"Dropsite.sol\":1018:1023  Owner */\n      sload(0x0c)\n        /* \"Dropsite.sol\":2365:2369  uint */\n      0x00\n      swap1\n        /* \"Dropsite.sol\":1018:1023  Owner */\n      0x0100\n      swap1\n      div\n      sub(shl(0xa0, 0x01), 0x01)\n      and\n        /* \"Context.sol\":719:729  msg.sender */\n      caller\n      sub(shl(0xa0, 0x01), 0x01)\n        /* \"Dropsite.sol\":1002:1023  _msgSender() == Owner */\n      and\n      eq\n        /* \"Dropsite.sol\":994:1056  require(_msgSender() == Owner, \"Only NFT-ES Owner can Access\") */\n      tag_80\n      jumpi\n      mload(0x40)\n      shl(0xe5, 0x461bcd)\n      dup2\n      mstore\n      0x04\n      add\n      tag_81\n      swap1\n      tag_82\n      jump\t// in\n    tag_81:\n      mload(0x40)\n      dup1\n      swap2\n      sub\n      swap1\n      revert\n    tag_80:\n      pop\n        /* \"Dropsite.sol\":2388:2403  TotalNFTsMinted */\n      sload(0x04)\n        /* \"Dropsite.sol\":1066:1067  _ */\n    tag_83:\n        /* \"Dropsite.sol\":2307:2411  function checkTotalMinted() public view OnlyOwner returns(uint){... */\n      swap1\n      jump\t// out\n        /* \"Dropsite.sol\":2790:3004  function withDraw(address payable to) public payable OnlyOwner {... */\n    tag_25:\n        /* \"Dropsite.sol\":1018:1023  Owner */\n      sload(0x0c)\n      0x0100\n      swap1\n      div\n      sub(shl(0xa0, 0x01), 0x01)\n      and\n        /* \"Context.sol\":719:729  msg.sender */\n      caller\n      sub(shl(0xa0, 0x01), 0x01)\n        /* \"Dropsite.sol\":1002:1023  _msgSender() == Owner */\n      and\n      eq\n        /* \"Dropsite.sol\":994:1056  require(_msgSender() == Owner, \"Only NFT-ES Owner can Access\") */\n      tag_86\n      jumpi\n      mload(0x40)\n      shl(0xe5, 0x461bcd)\n      dup2\n      mstore\n      0x04\n      add\n      tag_81\n      swap1\n      tag_82\n      jump\t// in\n    tag_86:\n        /* \"Dropsite.sol\":2878:2899  address(this).balance */\n      selfbalance\n        /* \"Dropsite.sol\":2917:2932  Balance > 0 wei */\n      dup1\n        /* \"Dropsite.sol\":2909:2966  require(Balance > 0 wei, \"Error! No Balance to withdraw\") */\n      tag_89\n      jumpi\n      mload(0x40)\n      shl(0xe5, 0x461bcd)\n      dup2\n      mstore\n        /* \"#utility.yul\":7858:7860   */\n      0x20\n        /* \"Dropsite.sol\":2909:2966  require(Balance > 0 wei, \"Error! No Balance to withdraw\") */\n      0x04\n      dup3\n      add\n        /* \"#utility.yul\":7840:7861   */\n      mstore\n        /* \"#utility.yul\":7897:7899   */\n      0x1d\n        /* \"#utility.yul\":7877:7895   */\n      0x24\n      dup3\n      add\n        /* \"#utility.yul\":7870:7900   */\n      mstore\n        /* \"#utility.yul\":7936:7967   */\n      0x4572726f7221204e6f2042616c616e636520746f207769746864726177000000\n        /* \"#utility.yul\":7916:7934   */\n      0x44\n      dup3\n      add\n        /* \"#utility.yul\":7909:7968   */\n      mstore\n        /* \"#utility.yul\":7985:8003   */\n      0x64\n      add\n        /* \"Dropsite.sol\":2909:2966  require(Balance > 0 wei, \"Error! No Balance to withdraw\") */\n      tag_81\n        /* \"#utility.yul\":7656:8009   */\n      jump\n        /* \"Dropsite.sol\":2909:2966  require(Balance > 0 wei, \"Error! No Balance to withdraw\") */\n    tag_89:\n        /* \"Dropsite.sol\":2977:2997  to.transfer(Balance) */\n      mload(0x40)\n      sub(shl(0xa0, 0x01), 0x01)\n        /* \"Dropsite.sol\":2977:2988  to.transfer */\n      dup4\n      and\n      swap1\n        /* \"Dropsite.sol\":2977:2997  to.transfer(Balance) */\n      dup3\n      iszero\n      0x08fc\n      mul\n      swap1\n        /* \"Dropsite.sol\":2989:2996  Balance */\n      dup4\n      swap1\n        /* \"Dropsite.sol\":2977:2997  to.transfer(Balance) */\n      0x00\n      dup2\n      dup2\n      dup2\n        /* \"Dropsite.sol\":2989:2996  Balance */\n      dup6\n        /* \"Dropsite.sol\":2977:2988  to.transfer */\n      dup9\n        /* \"Dropsite.sol\":2977:2997  to.transfer(Balance) */\n      dup9\n      call\n      swap4\n      pop\n      pop\n      pop\n      pop\n      iszero\n      dup1\n      iszero\n      tag_93\n      jumpi\n      returndatasize\n      0x00\n      dup1\n      returndatacopy\n      revert(0x00, returndatasize)\n    tag_93:\n      pop\n        /* \"Dropsite.sol\":2853:3004  {... */\n      pop\n        /* \"Dropsite.sol\":2790:3004  function withDraw(address payable to) public payable OnlyOwner {... */\n      pop\n      jump\t// out\n        /* \"Dropsite.sol\":2559:2695  function openDropsite() public OnlyOwner {... */\n    tag_33:\n        /* \"Dropsite.sol\":1018:1023  Owner */\n      sload(0x0c)\n      0x0100\n      swap1\n      div\n      sub(shl(0xa0, 0x01), 0x01)\n      and\n        /* \"Context.sol\":719:729  msg.sender */\n      caller\n      sub(shl(0xa0, 0x01), 0x01)\n        /* \"Dropsite.sol\":1002:1023  _msgSender() == Owner */\n      and\n      eq\n        /* \"Dropsite.sol\":994:1056  require(_msgSender() == Owner, \"Only NFT-ES Owner can Access\") */\n      tag_96\n      jumpi\n      mload(0x40)\n      shl(0xe5, 0x461bcd)\n      dup2\n      mstore\n      0x04\n      add\n      tag_81\n      swap1\n      tag_82\n      jump\t// in\n    tag_96:\n        /* \"Dropsite.sol\":2618:2626  IsPaused */\n      and(0xff, sload(0x0c))\n        /* \"Dropsite.sol\":2618:2632  IsPaused==true */\n      iszero\n      iszero\n        /* \"Dropsite.sol\":2618:2626  IsPaused */\n      0x01\n        /* \"Dropsite.sol\":2618:2632  IsPaused==true */\n      eq\n        /* \"Dropsite.sol\":2610:2664  require(IsPaused==true, \"Dropsite is already Running\") */\n      tag_99\n      jumpi\n      mload(0x40)\n      shl(0xe5, 0x461bcd)\n      dup2\n      mstore\n        /* \"#utility.yul\":6079:6081   */\n      0x20\n        /* \"Dropsite.sol\":2610:2664  require(IsPaused==true, \"Dropsite is already Running\") */\n      0x04\n      dup3\n      add\n        /* \"#utility.yul\":6061:6082   */\n      mstore\n        /* \"#utility.yul\":6118:6120   */\n      0x1b\n        /* \"#utility.yul\":6098:6116   */\n      0x24\n      dup3\n      add\n        /* \"#utility.yul\":6091:6121   */\n      mstore\n        /* \"#utility.yul\":6157:6186   */\n      0x44726f707369746520697320616c72656164792052756e6e696e670000000000\n        /* \"#utility.yul\":6137:6155   */\n      0x44\n      dup3\n      add\n        /* \"#utility.yul\":6130:6187   */\n      mstore\n        /* \"#utility.yul\":6204:6222   */\n      0x64\n      add\n        /* \"Dropsite.sol\":2610:2664  require(IsPaused==true, \"Dropsite is already Running\") */\n      tag_81\n        /* \"#utility.yul\":5877:6228   */\n      jump\n        /* \"Dropsite.sol\":2610:2664  require(IsPaused==true, \"Dropsite is already Running\") */\n    tag_99:\n        /* \"Dropsite.sol\":2674:2682  IsPaused */\n      0x0c\n        /* \"Dropsite.sol\":2674:2688  IsPaused=false */\n      dup1\n      sload\n      not(0xff)\n      and\n      swap1\n      sstore\n        /* \"Dropsite.sol\":2559:2695  function openDropsite() public OnlyOwner {... */\n      jump\t// out\n        /* \"Dropsite.sol\":5283:5729  function FiatRandomMint(address user_addr) OnlyOwner contractIsNotPaused public returns (uint,string memory) {... */\n    tag_38:\n        /* \"Dropsite.sol\":1018:1023  Owner */\n      sload(0x0c)\n        /* \"Dropsite.sol\":5372:5376  uint */\n      0x00\n      swap1\n        /* \"Dropsite.sol\":5377:5390  string memory */\n      0x60\n      swap1\n        /* \"Dropsite.sol\":1018:1023  Owner */\n      0x0100\n      swap1\n      div\n      sub(shl(0xa0, 0x01), 0x01)\n      and\n        /* \"Context.sol\":719:729  msg.sender */\n      caller\n      sub(shl(0xa0, 0x01), 0x01)\n        /* \"Dropsite.sol\":1002:1023  _msgSender() == Owner */\n      and\n      eq\n        /* \"Dropsite.sol\":994:1056  require(_msgSender() == Owner, \"Only NFT-ES Owner can Access\") */\n      tag_104\n      jumpi\n      mload(0x40)\n      shl(0xe5, 0x461bcd)\n      dup2\n      mstore\n      0x04\n      add\n      tag_81\n      swap1\n      tag_82\n      jump\t// in\n    tag_104:\n        /* \"Dropsite.sol\":1171:1179  IsPaused */\n      and(0xff, sload(0x0c))\n        /* \"Dropsite.sol\":1171:1188  IsPaused == false */\n      iszero\n        /* \"Dropsite.sol\":1162:1221  require (IsPaused == false, \"Dropsite is not Opened Yet.\" ) */\n      tag_107\n      jumpi\n      mload(0x40)\n      shl(0xe5, 0x461bcd)\n      dup2\n      mstore\n      0x04\n      add\n      tag_81\n      swap1\n      tag_109\n      jump\t// in\n    tag_107:\n        /* \"Dropsite.sol\":5423:5427  1000 */\n      0x03e8\n        /* \"Dropsite.sol\":5407:5422  TotalNFTsMinted */\n      sload(0x04)\n        /* \"Dropsite.sol\":5407:5427  TotalNFTsMinted<1000 */\n      lt\n        /* \"Dropsite.sol\":5399:5457  require(TotalNFTsMinted<1000, \"Max Minting Limit reached\") */\n      tag_111\n      jumpi\n      mload(0x40)\n      shl(0xe5, 0x461bcd)\n      dup2\n      mstore\n        /* \"#utility.yul\":7504:7506   */\n      0x20\n        /* \"Dropsite.sol\":5399:5457  require(TotalNFTsMinted<1000, \"Max Minting Limit reached\") */\n      0x04\n      dup3\n      add\n        /* \"#utility.yul\":7486:7507   */\n      mstore\n        /* \"#utility.yul\":7543:7545   */\n      0x19\n        /* \"#utility.yul\":7523:7541   */\n      0x24\n      dup3\n      add\n        /* \"#utility.yul\":7516:7546   */\n      mstore\n      shl(0x3a, 0x13585e08135a5b9d1a5b99c8131a5b5a5d081c995858da1959)\n        /* \"#utility.yul\":7562:7580   */\n      0x44\n      dup3\n      add\n        /* \"#utility.yul\":7555:7610   */\n      mstore\n        /* \"#utility.yul\":7627:7645   */\n      0x64\n      add\n        /* \"Dropsite.sol\":5399:5457  require(TotalNFTsMinted<1000, \"Max Minting Limit reached\") */\n      tag_81\n        /* \"#utility.yul\":7302:7651   */\n      jump\n        /* \"Dropsite.sol\":5399:5457  require(TotalNFTsMinted<1000, \"Max Minting Limit reached\") */\n    tag_111:\n        /* \"Dropsite.sol\":5520:5530  uint nftId */\n      0x00\n        /* \"Dropsite.sol\":5533:5551  updateConditions() */\n      tag_114\n        /* \"Dropsite.sol\":5533:5549  updateConditions */\n      tag_115\n        /* \"Dropsite.sol\":5533:5551  updateConditions() */\n      jump\t// in\n    tag_114:\n        /* \"Dropsite.sol\":5520:5551  uint nftId = updateConditions() */\n      swap1\n      pop\n        /* \"Dropsite.sol\":5557:5599  _mint(user_addr, nftId, numOfCopies, data) */\n      tag_116\n        /* \"Dropsite.sol\":5563:5572  user_addr */\n      dup5\n        /* \"Dropsite.sol\":5574:5579  nftId */\n      dup3\n        /* \"Dropsite.sol\":5581:5592  numOfCopies */\n      sload(0x05)\n        /* \"Dropsite.sol\":5594:5598  data */\n      0x02\n        /* \"Dropsite.sol\":5557:5599  _mint(user_addr, nftId, numOfCopies, data) */\n      dup1\n      sload\n      tag_117\n      swap1\n      tag_118\n      jump\t// in\n    tag_117:\n      dup1\n      0x1f\n      add\n      0x20\n      dup1\n      swap2\n      div\n      mul\n      0x20\n      add\n      mload(0x40)\n      swap1\n      dup2\n      add\n      0x40\n      mstore\n      dup1\n      swap3\n      swap2\n      swap1\n      dup2\n      dup2\n      mstore\n      0x20\n      add\n      dup3\n      dup1\n      sload\n      tag_119\n      swap1\n      tag_118\n      jump\t// in\n    tag_119:\n      dup1\n      iszero\n      tag_120\n      jumpi\n      dup1\n      0x1f\n      lt\n      tag_121\n      jumpi\n      0x0100\n      dup1\n      dup4\n      sload\n      div\n      mul\n      dup4\n      mstore\n      swap2\n      0x20\n      add\n      swap2\n      jump(tag_120)\n    tag_121:\n      dup3\n      add\n      swap2\n      swap1\n      0x00\n      mstore\n      keccak256(0x00, 0x20)\n      swap1\n    tag_122:\n      dup2\n      sload\n      dup2\n      mstore\n      swap1\n      0x01\n      add\n      swap1\n      0x20\n      add\n      dup1\n      dup4\n      gt\n      tag_122\n      jumpi\n      dup3\n      swap1\n      sub\n      0x1f\n      and\n      dup3\n      add\n      swap2\n    tag_120:\n      pop\n      pop\n      pop\n      pop\n      pop\n        /* \"Dropsite.sol\":5557:5562  _mint */\n      tag_123\n        /* \"Dropsite.sol\":5557:5599  _mint(user_addr, nftId, numOfCopies, data) */\n      jump\t// in\n    tag_116:\n        /* \"Dropsite.sol\":5605:5620  TotalNFTsMinted */\n      0x04\n        /* \"Dropsite.sol\":5605:5622  TotalNFTsMinted++ */\n      dup1\n      sload\n      swap1\n        /* \"Dropsite.sol\":5605:5620  TotalNFTsMinted */\n      0x00\n        /* \"Dropsite.sol\":5605:5622  TotalNFTsMinted++ */\n      tag_124\n      dup4\n      tag_125\n      jump\t// in\n    tag_124:\n      swap1\n      swap2\n      sstore\n      pop\n      pop\n      sub(shl(0xa0, 0x01), 0x01)\n        /* \"Dropsite.sol\":5628:5657  dropsite_NFT_Owner[user_addr] */\n      dup5\n      and\n      0x00\n      swap1\n      dup2\n      mstore\n        /* \"Dropsite.sol\":5628:5646  dropsite_NFT_Owner */\n      0x0a\n        /* \"Dropsite.sol\":5628:5657  dropsite_NFT_Owner[user_addr] */\n      0x20\n      swap1\n      dup2\n      mstore\n      0x40\n      dup3\n      keccak256\n        /* \"Dropsite.sol\":5628:5689  dropsite_NFT_Owner[user_addr].owned_Dropsite_NFTs.push(nftId) */\n      dup1\n      sload\n      0x01\n      dup2\n      add\n      dup3\n      sstore\n      swap1\n      dup4\n      mstore\n      swap2\n      keccak256\n      add\n      dup2\n      swap1\n      sstore\n        /* \"Dropsite.sol\":5716:5720  data */\n      0x02\n        /* \"Dropsite.sol\":5695:5722  return (nftId,string(data)) */\n      dup1\n      sload\n        /* \"Dropsite.sol\":5683:5688  nftId */\n      dup3\n      swap2\n        /* \"Dropsite.sol\":5716:5720  data */\n      swap1\n      dup2\n      swap1\n        /* \"Dropsite.sol\":5695:5722  return (nftId,string(data)) */\n      tag_127\n      swap1\n      tag_118\n      jump\t// in\n    tag_127:\n      dup1\n      0x1f\n      add\n      0x20\n      dup1\n      swap2\n      div\n      mul\n      0x20\n      add\n      mload(0x40)\n      swap1\n      dup2\n      add\n      0x40\n      mstore\n      dup1\n      swap3\n      swap2\n      swap1\n      dup2\n      dup2\n      mstore\n      0x20\n      add\n      dup3\n      dup1\n      sload\n      tag_128\n      swap1\n      tag_118\n      jump\t// in\n    tag_128:\n      dup1\n      iszero\n      tag_129\n      jumpi\n      dup1\n      0x1f\n      lt\n      tag_130\n      jumpi\n      0x0100\n      dup1\n      dup4\n      sload\n      div\n      mul\n      dup4\n      mstore\n      swap2\n      0x20\n      add\n      swap2\n      jump(tag_129)\n    tag_130:\n      dup3\n      add\n      swap2\n      swap1\n      0x00\n      mstore\n      keccak256(0x00, 0x20)\n      swap1\n    tag_131:\n      dup2\n      sload\n      dup2\n      mstore\n      swap1\n      0x01\n      add\n      swap1\n      0x20\n      add\n      dup1\n      dup4\n      gt\n      tag_131\n      jumpi\n      dup3\n      swap1\n      sub\n      0x1f\n      and\n      dup3\n      add\n      swap2\n    tag_129:\n      pop\n      pop\n      pop\n      pop\n      pop\n      swap1\n      pop\n      swap3\n      pop\n      swap3\n      pop\n      pop\n        /* \"Dropsite.sol\":5283:5729  function FiatRandomMint(address user_addr) OnlyOwner contractIsNotPaused public returns (uint,string memory) {... */\n      swap2\n      pop\n      swap2\n      jump\t// out\n        /* \"Dropsite.sol\":3057:3165  function ContractBalance() public view OnlyOwner returns (uint){... */\n    tag_43:\n        /* \"Dropsite.sol\":1018:1023  Owner */\n      sload(0x0c)\n        /* \"Dropsite.sol\":3115:3119  uint */\n      0x00\n      swap1\n        /* \"Dropsite.sol\":1018:1023  Owner */\n      0x0100\n      swap1\n      div\n      sub(shl(0xa0, 0x01), 0x01)\n      and\n        /* \"Context.sol\":719:729  msg.sender */\n      caller\n      sub(shl(0xa0, 0x01), 0x01)\n        /* \"Dropsite.sol\":1002:1023  _msgSender() == Owner */\n      and\n      eq\n        /* \"Dropsite.sol\":994:1056  require(_msgSender() == Owner, \"Only NFT-ES Owner can Access\") */\n      tag_134\n      jumpi\n      mload(0x40)\n      shl(0xe5, 0x461bcd)\n      dup2\n      mstore\n      0x04\n      add\n      tag_81\n      swap1\n      tag_82\n      jump\t// in\n    tag_134:\n      pop\n        /* \"Dropsite.sol\":3137:3158  address(this).balance */\n      selfbalance\n        /* \"Dropsite.sol\":3057:3165  function ContractBalance() public view OnlyOwner returns (uint){... */\n      swap1\n      jump\t// out\n        /* \"Dropsite.sol\":5946:6514  function CryptoRandomMint(address user_addr)  contractIsNotPaused public payable returns (uint,string memory) {... */\n    tag_47:\n        /* \"Dropsite.sol\":1171:1179  IsPaused */\n      sload(0x0c)\n        /* \"Dropsite.sol\":6036:6040  uint */\n      0x00\n      swap1\n        /* \"Dropsite.sol\":6041:6054  string memory */\n      0x60\n      swap1\n        /* \"Dropsite.sol\":1171:1179  IsPaused */\n      0xff\n      and\n        /* \"Dropsite.sol\":1171:1188  IsPaused == false */\n      iszero\n        /* \"Dropsite.sol\":1162:1221  require (IsPaused == false, \"Dropsite is not Opened Yet.\" ) */\n      tag_138\n      jumpi\n      mload(0x40)\n      shl(0xe5, 0x461bcd)\n      dup2\n      mstore\n      0x04\n      add\n      tag_81\n      swap1\n      tag_109\n      jump\t// in\n    tag_138:\n        /* \"Dropsite.sol\":6087:6091  1000 */\n      0x03e8\n        /* \"Dropsite.sol\":6071:6086  TotalNFTsMinted */\n      sload(0x04)\n        /* \"Dropsite.sol\":6071:6091  TotalNFTsMinted<1000 */\n      lt\n        /* \"Dropsite.sol\":6063:6121  require(TotalNFTsMinted<1000, \"Max Minting Limit reached\") */\n      tag_141\n      jumpi\n      mload(0x40)\n      shl(0xe5, 0x461bcd)\n      dup2\n      mstore\n        /* \"#utility.yul\":7504:7506   */\n      0x20\n        /* \"Dropsite.sol\":6063:6121  require(TotalNFTsMinted<1000, \"Max Minting Limit reached\") */\n      0x04\n      dup3\n      add\n        /* \"#utility.yul\":7486:7507   */\n      mstore\n        /* \"#utility.yul\":7543:7545   */\n      0x19\n        /* \"#utility.yul\":7523:7541   */\n      0x24\n      dup3\n      add\n        /* \"#utility.yul\":7516:7546   */\n      mstore\n      shl(0x3a, 0x13585e08135a5b9d1a5b99c8131a5b5a5d081c995858da1959)\n        /* \"#utility.yul\":7562:7580   */\n      0x44\n      dup3\n      add\n        /* \"#utility.yul\":7555:7610   */\n      mstore\n        /* \"#utility.yul\":7627:7645   */\n      0x64\n      add\n        /* \"Dropsite.sol\":6063:6121  require(TotalNFTsMinted<1000, \"Max Minting Limit reached\") */\n      tag_81\n        /* \"#utility.yul\":7302:7651   */\n      jump\n        /* \"Dropsite.sol\":6063:6121  require(TotalNFTsMinted<1000, \"Max Minting Limit reached\") */\n    tag_141:\n        /* \"Dropsite.sol\":6149:6157  mintFees */\n      sload(0x06)\n        /* \"Dropsite.sol\":6136:6145  msg.value */\n      callvalue\n        /* \"Dropsite.sol\":6136:6157  msg.value == mintFees */\n      eq\n        /* \"Dropsite.sol\":6128:6180  require(msg.value == mintFees, \"Not Enough Balance\") */\n      tag_143\n      jumpi\n      mload(0x40)\n      shl(0xe5, 0x461bcd)\n      dup2\n      mstore\n        /* \"#utility.yul\":5732:5734   */\n      0x20\n        /* \"Dropsite.sol\":6128:6180  require(msg.value == mintFees, \"Not Enough Balance\") */\n      0x04\n      dup3\n      add\n        /* \"#utility.yul\":5714:5735   */\n      mstore\n        /* \"#utility.yul\":5771:5773   */\n      0x12\n        /* \"#utility.yul\":5751:5769   */\n      0x24\n      dup3\n      add\n        /* \"#utility.yul\":5744:5774   */\n      mstore\n      shl(0x70, 0x4e6f7420456e6f7567682042616c616e6365)\n        /* \"#utility.yul\":5790:5808   */\n      0x44\n      dup3\n      add\n        /* \"#utility.yul\":5783:5831   */\n      mstore\n        /* \"#utility.yul\":5848:5866   */\n      0x64\n      add\n        /* \"Dropsite.sol\":6128:6180  require(msg.value == mintFees, \"Not Enough Balance\") */\n      tag_81\n        /* \"#utility.yul\":5530:5872   */\n      jump\n        /* \"Dropsite.sol\":6128:6180  require(msg.value == mintFees, \"Not Enough Balance\") */\n    tag_143:\n        /* \"Dropsite.sol\":6261:6271  uint nftId */\n      0x00\n        /* \"Dropsite.sol\":6274:6292  updateConditions() */\n      tag_146\n        /* \"Dropsite.sol\":6274:6290  updateConditions */\n      tag_115\n        /* \"Dropsite.sol\":6274:6292  updateConditions() */\n      jump\t// in\n    tag_146:\n        /* \"Dropsite.sol\":6261:6292  uint nftId = updateConditions() */\n      swap1\n      pop\n        /* \"Dropsite.sol\":6298:6340  _mint(user_addr, nftId, numOfCopies, data) */\n      tag_147\n        /* \"Dropsite.sol\":6304:6313  user_addr */\n      dup5\n        /* \"Dropsite.sol\":6315:6320  nftId */\n      dup3\n        /* \"Dropsite.sol\":6322:6333  numOfCopies */\n      sload(0x05)\n        /* \"Dropsite.sol\":6335:6339  data */\n      0x02\n        /* \"Dropsite.sol\":6298:6340  _mint(user_addr, nftId, numOfCopies, data) */\n      dup1\n      sload\n      tag_117\n      swap1\n      tag_118\n      jump\t// in\n    tag_147:\n        /* \"Dropsite.sol\":6346:6384  depositAmount(_msgSender(), msg.value) */\n      tag_116\n        /* \"Context.sol\":719:729  msg.sender */\n      caller\n        /* \"Dropsite.sol\":6374:6383  msg.value */\n      callvalue\n        /* \"Dropsite.sol\":6346:6359  depositAmount */\n      tag_155\n        /* \"Dropsite.sol\":6346:6384  depositAmount(_msgSender(), msg.value) */\n      jump\t// in\n        /* \"Dropsite.sol\":1882:2029  function checkMintedCategoryWise() public view OnlyOwner contractIsNotPaused returns(uint,uint,uint){... */\n    tag_51:\n        /* \"Dropsite.sol\":1018:1023  Owner */\n      sload(0x0c)\n        /* \"Dropsite.sol\":1967:1971  uint */\n      0x00\n      swap1\n      dup2\n      swap1\n      dup2\n      swap1\n        /* \"Dropsite.sol\":1018:1023  Owner */\n      0x0100\n      swap1\n      div\n      sub(shl(0xa0, 0x01), 0x01)\n      and\n        /* \"Context.sol\":719:729  msg.sender */\n      caller\n      sub(shl(0xa0, 0x01), 0x01)\n        /* \"Dropsite.sol\":1002:1023  _msgSender() == Owner */\n      and\n      eq\n        /* \"Dropsite.sol\":994:1056  require(_msgSender() == Owner, \"Only NFT-ES Owner can Access\") */\n      tag_165\n      jumpi\n      mload(0x40)\n      shl(0xe5, 0x461bcd)\n      dup2\n      mstore\n      0x04\n      add\n      tag_81\n      swap1\n      tag_82\n      jump\t// in\n    tag_165:\n        /* \"Dropsite.sol\":1171:1179  IsPaused */\n      and(0xff, sload(0x0c))\n        /* \"Dropsite.sol\":1171:1188  IsPaused == false */\n      iszero\n        /* \"Dropsite.sol\":1162:1221  require (IsPaused == false, \"Dropsite is not Opened Yet.\" ) */\n      tag_168\n      jumpi\n      mload(0x40)\n      shl(0xe5, 0x461bcd)\n      dup2\n      mstore\n      0x04\n      add\n      tag_81\n      swap1\n      tag_109\n      jump\t// in\n    tag_168:\n      pop\n      pop\n        /* \"Dropsite.sol\":2001:2008  Diamond */\n      sload(0x07)\n        /* \"Dropsite.sol\":2009:2013  Gold */\n      sload(0x08)\n        /* \"Dropsite.sol\":2014:2020  Silver */\n      sload(0x09)\n        /* \"Dropsite.sol\":2001:2008  Diamond */\n      swap2\n      swap4\n        /* \"Dropsite.sol\":2009:2013  Gold */\n      swap1\n      swap3\n      pop\n        /* \"Dropsite.sol\":1882:2029  function checkMintedCategoryWise() public view OnlyOwner contractIsNotPaused returns(uint,uint,uint){... */\n      jump\t// out\n        /* \"Dropsite.sol\":2151:2262  function getMintFee() public view OnlyOwner contractIsNotPaused returns (uint) {... */\n    tag_56:\n        /* \"Dropsite.sol\":1018:1023  Owner */\n      sload(0x0c)\n        /* \"Dropsite.sol\":2224:2228  uint */\n      0x00\n      swap1\n        /* \"Dropsite.sol\":1018:1023  Owner */\n      0x0100\n      swap1\n      div\n      sub(shl(0xa0, 0x01), 0x01)\n      and\n        /* \"Context.sol\":719:729  msg.sender */\n      caller\n      sub(shl(0xa0, 0x01), 0x01)\n        /* \"Dropsite.sol\":1002:1023  _msgSender() == Owner */\n      and\n      eq\n        /* \"Dropsite.sol\":994:1056  require(_msgSender() == Owner, \"Only NFT-ES Owner can Access\") */\n      tag_173\n      jumpi\n      mload(0x40)\n      shl(0xe5, 0x461bcd)\n      dup2\n      mstore\n      0x04\n      add\n      tag_81\n      swap1\n      tag_82\n      jump\t// in\n    tag_173:\n        /* \"Dropsite.sol\":1171:1179  IsPaused */\n      and(0xff, sload(0x0c))\n        /* \"Dropsite.sol\":1171:1188  IsPaused == false */\n      iszero\n        /* \"Dropsite.sol\":1162:1221  require (IsPaused == false, \"Dropsite is not Opened Yet.\" ) */\n      tag_176\n      jumpi\n      mload(0x40)\n      shl(0xe5, 0x461bcd)\n      dup2\n      mstore\n      0x04\n      add\n      tag_81\n      swap1\n      tag_109\n      jump\t// in\n    tag_176:\n      pop\n        /* \"Dropsite.sol\":2247:2255  mintFees */\n      sload(0x06)\n        /* \"Dropsite.sol\":2151:2262  function getMintFee() public view OnlyOwner contractIsNotPaused returns (uint) {... */\n      swap1\n      jump\t// out\n        /* \"Dropsite.sol\":2417:2552  function stopDropsite() public OnlyOwner{... */\n    tag_60:\n        /* \"Dropsite.sol\":1018:1023  Owner */\n      sload(0x0c)\n      0x0100\n      swap1\n      div\n      sub(shl(0xa0, 0x01), 0x01)\n      and\n        /* \"Context.sol\":719:729  msg.sender */\n      caller\n      sub(shl(0xa0, 0x01), 0x01)\n        /* \"Dropsite.sol\":1002:1023  _msgSender() == Owner */\n      and\n      eq\n        /* \"Dropsite.sol\":994:1056  require(_msgSender() == Owner, \"Only NFT-ES Owner can Access\") */\n      tag_181\n      jumpi\n      mload(0x40)\n      shl(0xe5, 0x461bcd)\n      dup2\n      mstore\n      0x04\n      add\n      tag_81\n      swap1\n      tag_82\n      jump\t// in\n    tag_181:\n        /* \"Dropsite.sol\":2475:2483  IsPaused */\n      and(0xff, sload(0x0c))\n        /* \"Dropsite.sol\":2475:2490  IsPaused==false */\n      iszero\n        /* \"Dropsite.sol\":2467:2522  require(IsPaused==false, \"Dropsite is already Stopped\") */\n      tag_184\n      jumpi\n      mload(0x40)\n      shl(0xe5, 0x461bcd)\n      dup2\n      mstore\n        /* \"#utility.yul\":6435:6437   */\n      0x20\n        /* \"Dropsite.sol\":2467:2522  require(IsPaused==false, \"Dropsite is already Stopped\") */\n      0x04\n      dup3\n      add\n        /* \"#utility.yul\":6417:6438   */\n      mstore\n        /* \"#utility.yul\":6474:6476   */\n      0x1b\n        /* \"#utility.yul\":6454:6472   */\n      0x24\n      dup3\n      add\n        /* \"#utility.yul\":6447:6477   */\n      mstore\n        /* \"#utility.yul\":6513:6542   */\n      0x44726f707369746520697320616c72656164792053746f707065640000000000\n        /* \"#utility.yul\":6493:6511   */\n      0x44\n      dup3\n      add\n        /* \"#utility.yul\":6486:6543   */\n      mstore\n        /* \"#utility.yul\":6560:6578   */\n      0x64\n      add\n        /* \"Dropsite.sol\":2467:2522  require(IsPaused==false, \"Dropsite is already Stopped\") */\n      tag_81\n        /* \"#utility.yul\":6233:6584   */\n      jump\n        /* \"Dropsite.sol\":2467:2522  require(IsPaused==false, \"Dropsite is already Stopped\") */\n    tag_184:\n        /* \"Dropsite.sol\":2532:2540  IsPaused */\n      0x0c\n        /* \"Dropsite.sol\":2532:2545  IsPaused=true */\n      dup1\n      sload\n      not(0xff)\n      and\n        /* \"Dropsite.sol\":2541:2545  true */\n      0x01\n        /* \"Dropsite.sol\":2532:2545  IsPaused=true */\n      or\n      swap1\n      sstore\n        /* \"Dropsite.sol\":2417:2552  function stopDropsite() public OnlyOwner{... */\n      jump\t// out\n        /* \"Dropsite.sol\":2035:2141  function setMintFee(uint _mintFee) public OnlyOwner contractIsNotPaused {... */\n    tag_70:\n        /* \"Dropsite.sol\":1018:1023  Owner */\n      sload(0x0c)\n      0x0100\n      swap1\n      div\n      sub(shl(0xa0, 0x01), 0x01)\n      and\n        /* \"Context.sol\":719:729  msg.sender */\n      caller\n      sub(shl(0xa0, 0x01), 0x01)\n        /* \"Dropsite.sol\":1002:1023  _msgSender() == Owner */\n      and\n      eq\n        /* \"Dropsite.sol\":994:1056  require(_msgSender() == Owner, \"Only NFT-ES Owner can Access\") */\n      tag_189\n      jumpi\n      mload(0x40)\n      shl(0xe5, 0x461bcd)\n      dup2\n      mstore\n      0x04\n      add\n      tag_81\n      swap1\n      tag_82\n      jump\t// in\n    tag_189:\n        /* \"Dropsite.sol\":1171:1179  IsPaused */\n      and(0xff, sload(0x0c))\n        /* \"Dropsite.sol\":1171:1188  IsPaused == false */\n      iszero\n        /* \"Dropsite.sol\":1162:1221  require (IsPaused == false, \"Dropsite is not Opened Yet.\" ) */\n      tag_192\n      jumpi\n      mload(0x40)\n      shl(0xe5, 0x461bcd)\n      dup2\n      mstore\n      0x04\n      add\n      tag_81\n      swap1\n      tag_109\n      jump\t// in\n    tag_192:\n        /* \"Dropsite.sol\":2117:2125  mintFees */\n      0x06\n        /* \"Dropsite.sol\":2117:2134  mintFees=_mintFee */\n      sstore\n        /* \"Dropsite.sol\":2035:2141  function setMintFee(uint _mintFee) public OnlyOwner contractIsNotPaused {... */\n      jump\t// out\n        /* \"Dropsite.sol\":1663:1822  function returnOwner(address addr) public view contractIsNotPaused returns  (uint[] memory){... */\n    tag_74:\n        /* \"Dropsite.sol\":1171:1179  IsPaused */\n      sload(0x0c)\n        /* \"Dropsite.sol\":1740:1753  uint[] memory */\n      0x60\n      swap1\n        /* \"Dropsite.sol\":1171:1179  IsPaused */\n      0xff\n      and\n        /* \"Dropsite.sol\":1171:1188  IsPaused == false */\n      iszero\n        /* \"Dropsite.sol\":1162:1221  require (IsPaused == false, \"Dropsite is not Opened Yet.\" ) */\n      tag_196\n      jumpi\n      mload(0x40)\n      shl(0xe5, 0x461bcd)\n      dup2\n      mstore\n      0x04\n      add\n      tag_81\n      swap1\n      tag_109\n      jump\t// in\n    tag_196:\n      sub(shl(0xa0, 0x01), 0x01)\n        /* \"Dropsite.sol\":1771:1795  dropsite_NFT_Owner[addr] */\n      dup3\n      and\n      0x00\n      swap1\n      dup2\n      mstore\n        /* \"Dropsite.sol\":1771:1789  dropsite_NFT_Owner */\n      0x0a\n        /* \"Dropsite.sol\":1771:1795  dropsite_NFT_Owner[addr] */\n      0x20\n      swap1\n      dup2\n      mstore\n      0x40\n      swap2\n      dup3\n      swap1\n      keccak256\n        /* \"Dropsite.sol\":1764:1815  return dropsite_NFT_Owner[addr].owned_Dropsite_NFTs */\n      dup1\n      sload\n      dup4\n      mload\n      dup2\n      dup5\n      mul\n      dup2\n      add\n      dup5\n      add\n      swap1\n      swap5\n      mstore\n      dup1\n      dup5\n      mstore\n        /* \"Dropsite.sol\":1771:1795  dropsite_NFT_Owner[addr] */\n      swap1\n      swap2\n        /* \"Dropsite.sol\":1764:1815  return dropsite_NFT_Owner[addr].owned_Dropsite_NFTs */\n      dup4\n      add\n        /* \"Dropsite.sol\":1771:1795  dropsite_NFT_Owner[addr] */\n      dup3\n        /* \"Dropsite.sol\":1764:1815  return dropsite_NFT_Owner[addr].owned_Dropsite_NFTs */\n      dup3\n      dup1\n      iszero\n      tag_199\n      jumpi\n      0x20\n      mul\n      dup3\n      add\n      swap2\n      swap1\n      0x00\n      mstore\n      keccak256(0x00, 0x20)\n      swap1\n    tag_200:\n      dup2\n      sload\n      dup2\n      mstore\n      0x20\n      add\n      swap1\n      0x01\n      add\n      swap1\n      dup1\n      dup4\n      gt\n      tag_200\n      jumpi\n    tag_199:\n      pop\n      pop\n      pop\n      pop\n      pop\n      swap1\n      pop\n        /* \"Dropsite.sol\":1663:1822  function returnOwner(address addr) public view contractIsNotPaused returns  (uint[] memory){... */\n      swap2\n      swap1\n      pop\n      jump\t// out\n        /* \"Dropsite.sol\":3634:5236  function updateConditions() internal contractIsNotPaused returns(uint) {... */\n    tag_115:\n        /* \"Dropsite.sol\":1171:1179  IsPaused */\n      sload(0x0c)\n        /* \"Dropsite.sol\":3699:3703  uint */\n      0x00\n      swap1\n        /* \"Dropsite.sol\":1171:1179  IsPaused */\n      0xff\n      and\n        /* \"Dropsite.sol\":1171:1188  IsPaused == false */\n      iszero\n        /* \"Dropsite.sol\":1162:1221  require (IsPaused == false, \"Dropsite is not Opened Yet.\" ) */\n      tag_203\n      jumpi\n      mload(0x40)\n      shl(0xe5, 0x461bcd)\n      dup2\n      mstore\n      0x04\n      add\n      tag_81\n      swap1\n      tag_109\n      jump\t// in\n    tag_203:\n        /* \"Dropsite.sol\":3714:3724  uint index */\n      0x00\n        /* \"Dropsite.sol\":3727:3735  random() */\n      tag_206\n        /* \"Dropsite.sol\":3727:3733  random */\n      tag_207\n        /* \"Dropsite.sol\":3727:3735  random() */\n      jump\t// in\n    tag_206:\n        /* \"Dropsite.sol\":3714:3735  uint index = random() */\n      swap1\n      pop\n        /* \"Dropsite.sol\":3745:3755  uint nftId */\n      0x00\n        /* \"Dropsite.sol\":3758:3762  nums */\n      0x03\n        /* \"Dropsite.sol\":3763:3768  index */\n      dup3\n        /* \"Dropsite.sol\":3758:3769  nums[index] */\n      0x14\n      dup2\n      lt\n      tag_209\n      jumpi\n      tag_209\n      tag_210\n      jump\t// in\n    tag_209:\n      0x20\n      dup2\n      div\n      swap1\n      swap2\n      add\n      sload\n      0xff\n      0x1f\n      swap1\n      swap3\n      and\n      0x0100\n      exp\n      swap1\n      div\n      and\n      swap1\n      pop\n        /* \"Dropsite.sol\":3866:3876  nftId == 0 */\n      dup1\n      iszero\n        /* \"Dropsite.sol\":3866:3892  nftId == 0 && Diamond < 50 */\n      dup1\n      iszero\n      tag_212\n      jumpi\n      pop\n        /* \"Dropsite.sol\":3890:3892  50 */\n      0x32\n        /* \"Dropsite.sol\":3880:3887  Diamond */\n      sload(0x07)\n        /* \"Dropsite.sol\":3880:3892  Diamond < 50 */\n      lt\n        /* \"Dropsite.sol\":3866:3892  nftId == 0 && Diamond < 50 */\n    tag_212:\n        /* \"Dropsite.sol\":3863:5231  if(nftId == 0 && Diamond < 50) {... */\n      iszero\n      tag_213\n      jumpi\n        /* \"Dropsite.sol\":3909:3916  Diamond */\n      0x07\n        /* \"Dropsite.sol\":3909:3918  Diamond++ */\n      dup1\n      sload\n      swap1\n        /* \"Dropsite.sol\":3909:3916  Diamond */\n      0x00\n        /* \"Dropsite.sol\":3909:3918  Diamond++ */\n      tag_214\n      dup4\n      tag_125\n      jump\t// in\n    tag_214:\n      swap2\n      swap1\n      pop\n      sstore\n      pop\n        /* \"Dropsite.sol\":3974:3999  Strings.toString(Diamond) */\n      tag_215\n        /* \"Dropsite.sol\":3991:3998  Diamond */\n      sload(0x07)\n        /* \"Dropsite.sol\":3974:3990  Strings.toString */\n      tag_216\n        /* \"Dropsite.sol\":3974:3999  Strings.toString(Diamond) */\n      jump\t// in\n    tag_215:\n        /* \"Dropsite.sol\":3946:4000  abi.encodePacked(\"Diamond_\",Strings.toString(Diamond)) */\n      add(0x20, mload(0x40))\n      tag_217\n      swap2\n      swap1\n      tag_218\n      jump\t// in\n    tag_217:\n      mload(0x40)\n      0x20\n      dup2\n      dup4\n      sub\n      sub\n      dup2\n      mstore\n      swap1\n      0x40\n      mstore\n        /* \"Dropsite.sol\":3932:3936  data */\n      0x02\n        /* \"Dropsite.sol\":3932:4001  data = string(abi.encodePacked(\"Diamond_\",Strings.toString(Diamond))) */\n      swap1\n      dup1\n      mload\n      swap1\n      0x20\n      add\n      swap1\n      tag_219\n      swap3\n      swap2\n      swap1\n      tag_220\n      jump\t// in\n    tag_219:\n      pop\n        /* \"Dropsite.sol\":4035:4040  nftId */\n      swap2\n      pop\n        /* \"Dropsite.sol\":4028:4040  return nftId */\n      tag_83\n      swap1\n      pop\n      jump\n        /* \"Dropsite.sol\":3863:5231  if(nftId == 0 && Diamond < 50) {... */\n    tag_213:\n        /* \"Dropsite.sol\":4164:4165  1 */\n      0x01\n        /* \"Dropsite.sol\":4155:4160  nftId */\n      dup2\n        /* \"Dropsite.sol\":4155:4165  nftId <= 1 */\n      gt\n      iszero\n        /* \"Dropsite.sol\":4155:4179  nftId <= 1 && Gold < 100 */\n      dup1\n      iszero\n      tag_222\n      jumpi\n      pop\n        /* \"Dropsite.sol\":4176:4179  100 */\n      0x64\n        /* \"Dropsite.sol\":4169:4173  Gold */\n      sload(0x08)\n        /* \"Dropsite.sol\":4169:4179  Gold < 100 */\n      lt\n        /* \"Dropsite.sol\":4155:4179  nftId <= 1 && Gold < 100 */\n    tag_222:\n        /* \"Dropsite.sol\":4152:5231  if(nftId <= 1 && Gold < 100) {... */\n      iszero\n      tag_223\n      jumpi\n        /* \"Dropsite.sol\":4195:4199  Gold */\n      0x08\n        /* \"Dropsite.sol\":4195:4201  Gold++ */\n      dup1\n      sload\n      swap1\n        /* \"Dropsite.sol\":4195:4199  Gold */\n      0x00\n        /* \"Dropsite.sol\":4195:4201  Gold++ */\n      tag_224\n      dup4\n      tag_125\n      jump\t// in\n    tag_224:\n      swap2\n      swap1\n      pop\n      sstore\n      pop\n        /* \"Dropsite.sol\":4254:4276  Strings.toString(Gold) */\n      tag_225\n        /* \"Dropsite.sol\":4271:4275  Gold */\n      sload(0x08)\n        /* \"Dropsite.sol\":4254:4270  Strings.toString */\n      tag_216\n        /* \"Dropsite.sol\":4254:4276  Strings.toString(Gold) */\n      jump\t// in\n    tag_225:\n        /* \"Dropsite.sol\":4229:4277  abi.encodePacked(\"Gold_\",Strings.toString(Gold)) */\n      add(0x20, mload(0x40))\n      tag_217\n      swap2\n      swap1\n      tag_227\n      jump\t// in\n        /* \"Dropsite.sol\":4152:5231  if(nftId <= 1 && Gold < 100) {... */\n    tag_223:\n        /* \"Dropsite.sol\":4434:4435  2 */\n      0x02\n        /* \"Dropsite.sol\":4425:4430  nftId */\n      dup2\n        /* \"Dropsite.sol\":4425:4435  nftId <= 2 */\n      gt\n      iszero\n        /* \"Dropsite.sol\":4425:4452  nftId <= 2 && Silver <= 850 */\n      dup1\n      iszero\n      tag_230\n      jumpi\n      pop\n        /* \"Dropsite.sol\":4449:4452  850 */\n      0x0352\n        /* \"Dropsite.sol\":4439:4445  Silver */\n      sload(0x09)\n        /* \"Dropsite.sol\":4439:4452  Silver <= 850 */\n      gt\n      iszero\n        /* \"Dropsite.sol\":4425:4452  nftId <= 2 && Silver <= 850 */\n    tag_230:\n        /* \"Dropsite.sol\":4422:5231  if(nftId <= 2 && Silver <= 850) {... */\n      iszero\n      tag_231\n      jumpi\n        /* \"Dropsite.sol\":4468:4474  Silver */\n      0x09\n        /* \"Dropsite.sol\":4468:4476  Silver++ */\n      dup1\n      sload\n      swap1\n        /* \"Dropsite.sol\":4468:4474  Silver */\n      0x00\n        /* \"Dropsite.sol\":4468:4476  Silver++ */\n      tag_232\n      dup4\n      tag_125\n      jump\t// in\n    tag_232:\n      swap2\n      swap1\n      pop\n      sstore\n      pop\n        /* \"Dropsite.sol\":4536:4560  Strings.toString(Silver) */\n      tag_233\n        /* \"Dropsite.sol\":4553:4559  Silver */\n      sload(0x09)\n        /* \"Dropsite.sol\":4536:4552  Strings.toString */\n      tag_216\n        /* \"Dropsite.sol\":4536:4560  Strings.toString(Silver) */\n      jump\t// in\n    tag_233:\n        /* \"Dropsite.sol\":4509:4561  abi.encodePacked(\"Silver_\",Strings.toString(Silver)) */\n      add(0x20, mload(0x40))\n      tag_234\n      swap2\n      swap1\n      tag_235\n      jump\t// in\n    tag_234:\n      mload(0x40)\n      0x20\n      dup2\n      dup4\n      sub\n      sub\n      dup2\n      mstore\n      swap1\n      0x40\n      mstore\n        /* \"Dropsite.sol\":4495:4499  data */\n      0x02\n        /* \"Dropsite.sol\":4495:4562  data = string(abi.encodePacked(\"Silver_\",Strings.toString(Silver))) */\n      swap1\n      dup1\n      mload\n      swap1\n      0x20\n      add\n      swap1\n      tag_236\n      swap3\n      swap2\n      swap1\n      tag_220\n      jump\t// in\n    tag_236:\n        /* \"Dropsite.sol\":4490:4494  data */\n      0x02\n        /* \"Dropsite.sol\":4490:4562  data=data = string(abi.encodePacked(\"Silver_\",Strings.toString(Silver))) */\n      swap1\n      dup1\n      sload\n      tag_237\n      swap1\n      tag_118\n      jump\t// in\n    tag_237:\n      tag_219\n      swap3\n      swap2\n      swap1\n      tag_239\n      jump\t// in\n        /* \"Dropsite.sol\":4422:5231  if(nftId <= 2 && Silver <= 850) {... */\n    tag_231:\n        /* \"Dropsite.sol\":4813:4816  100 */\n      0x64\n        /* \"Dropsite.sol\":4806:4810  Gold */\n      sload(0x08)\n        /* \"Dropsite.sol\":4806:4816  Gold < 100 */\n      lt\n        /* \"Dropsite.sol\":4803:5222  if(Gold < 100) {... */\n      iszero\n      tag_241\n      jumpi\n      pop\n        /* \"Dropsite.sol\":4863:4867  Gold */\n      0x08\n        /* \"Dropsite.sol\":4863:4869  Gold++ */\n      dup1\n      sload\n        /* \"Dropsite.sol\":4844:4845  1 */\n      0x01\n      swap2\n        /* \"Dropsite.sol\":4863:4867  Gold */\n      0x00\n        /* \"Dropsite.sol\":4863:4869  Gold++ */\n      tag_224\n      dup4\n      tag_125\n      jump\t// in\n        /* \"Dropsite.sol\":4803:5222  if(Gold < 100) {... */\n    tag_241:\n      pop\n        /* \"Dropsite.sol\":5064:5071  Diamond */\n      0x07\n        /* \"Dropsite.sol\":5064:5073  Diamond++ */\n      dup1\n      sload\n        /* \"Dropsite.sol\":5045:5046  0 */\n      0x00\n      swap2\n      dup3\n        /* \"Dropsite.sol\":5064:5073  Diamond++ */\n      tag_214\n      dup4\n      tag_125\n      jump\t// in\n        /* \"ERC1155_Dropsite.sol\":835:1387  function _mint(... */\n    tag_123:\n      sub(shl(0xa0, 0x01), 0x01)\n        /* \"ERC1155_Dropsite.sol\":983:999  to != address(0) */\n      dup5\n      and\n        /* \"ERC1155_Dropsite.sol\":975:1037  require(to != address(0), \"ERC1155: mint to the zero address\") */\n      tag_252\n      jumpi\n      mload(0x40)\n      shl(0xe5, 0x461bcd)\n      dup2\n      mstore\n        /* \"#utility.yul\":8216:8218   */\n      0x20\n        /* \"ERC1155_Dropsite.sol\":975:1037  require(to != address(0), \"ERC1155: mint to the zero address\") */\n      0x04\n      dup3\n      add\n        /* \"#utility.yul\":8198:8219   */\n      mstore\n        /* \"#utility.yul\":8255:8257   */\n      0x21\n        /* \"#utility.yul\":8235:8253   */\n      0x24\n      dup3\n      add\n        /* \"#utility.yul\":8228:8258   */\n      mstore\n        /* \"#utility.yul\":8294:8328   */\n      0x455243313135353a206d696e7420746f20746865207a65726f20616464726573\n        /* \"#utility.yul\":8274:8292   */\n      0x44\n      dup3\n      add\n        /* \"#utility.yul\":8267:8329   */\n      mstore\n      shl(0xf8, 0x73)\n        /* \"#utility.yul\":8345:8363   */\n      0x64\n      dup3\n      add\n        /* \"#utility.yul\":8338:8369   */\n      mstore\n        /* \"#utility.yul\":8386:8405   */\n      0x84\n      add\n        /* \"ERC1155_Dropsite.sol\":975:1037  require(to != address(0), \"ERC1155: mint to the zero address\") */\n      tag_81\n        /* \"#utility.yul\":8014:8411   */\n      jump\n        /* \"ERC1155_Dropsite.sol\":975:1037  require(to != address(0), \"ERC1155: mint to the zero address\") */\n    tag_252:\n        /* \"Context.sol\":719:729  msg.sender */\n      caller\n        /* \"ERC1155_Dropsite.sol\":1090:1192  _beforeTokenTransfer(operator, address(0), to, _asSingletonArray(id), _asSingletonArray(amount), data) */\n      tag_256\n        /* \"Context.sol\":719:729  msg.sender */\n      dup2\n        /* \"ERC1155_Dropsite.sol\":1048:1064  address operator */\n      0x00\n        /* \"ERC1155_Dropsite.sol\":1133:1135  to */\n      dup8\n        /* \"ERC1155_Dropsite.sol\":1137:1158  _asSingletonArray(id) */\n      tag_257\n        /* \"ERC1155_Dropsite.sol\":1155:1157  id */\n      dup9\n        /* \"ERC1155_Dropsite.sol\":1137:1154  _asSingletonArray */\n      tag_258\n        /* \"ERC1155_Dropsite.sol\":1137:1158  _asSingletonArray(id) */\n      jump\t// in\n    tag_257:\n        /* \"ERC1155_Dropsite.sol\":1160:1185  _asSingletonArray(amount) */\n      tag_259\n        /* \"ERC1155_Dropsite.sol\":1178:1184  amount */\n      dup9\n        /* \"ERC1155_Dropsite.sol\":1160:1177  _asSingletonArray */\n      tag_258\n        /* \"ERC1155_Dropsite.sol\":1160:1185  _asSingletonArray(amount) */\n      jump\t// in\n    tag_259:\n        /* \"ERC1155_Dropsite.sol\":1394:1609  function _beforeTokenTransfer(... */\n      pop\n      pop\n      pop\n      pop\n      pop\n      jump\n        /* \"ERC1155_Dropsite.sol\":1090:1192  _beforeTokenTransfer(operator, address(0), to, _asSingletonArray(id), _asSingletonArray(amount), data) */\n    tag_256:\n        /* \"ERC1155_Dropsite.sol\":1202:1211  _balances */\n      0x00\n        /* \"ERC1155_Dropsite.sol\":1202:1215  _balances[id] */\n      dup5\n      dup2\n      mstore\n      0x20\n      dup2\n      dup2\n      mstore\n      0x40\n      dup1\n      dup4\n      keccak256\n      sub(shl(0xa0, 0x01), 0x01)\n        /* \"ERC1155_Dropsite.sol\":1202:1219  _balances[id][to] */\n      dup10\n      and\n      dup5\n      mstore\n      swap1\n      swap2\n      mstore\n      dup2\n      keccak256\n        /* \"ERC1155_Dropsite.sol\":1202:1229  _balances[id][to] += amount */\n      dup1\n      sload\n        /* \"ERC1155_Dropsite.sol\":1223:1229  amount */\n      dup6\n      swap3\n        /* \"ERC1155_Dropsite.sol\":1202:1211  _balances */\n      swap1\n        /* \"ERC1155_Dropsite.sol\":1202:1229  _balances[id][to] += amount */\n      tag_261\n      swap1\n        /* \"ERC1155_Dropsite.sol\":1223:1229  amount */\n      dup5\n      swap1\n        /* \"ERC1155_Dropsite.sol\":1202:1229  _balances[id][to] += amount */\n      tag_262\n      jump\t// in\n    tag_261:\n      swap1\n      swap2\n      sstore\n      pop\n      pop\n        /* \"ERC1155_Dropsite.sol\":1244:1296  TransferSingle(operator, address(0), to, id, amount) */\n      0x40\n      dup1\n      mload\n        /* \"#utility.yul\":9068:9093   */\n      dup6\n      dup2\n      mstore\n        /* \"#utility.yul\":9124:9126   */\n      0x20\n        /* \"#utility.yul\":9109:9127   */\n      dup2\n      add\n        /* \"#utility.yul\":9102:9136   */\n      dup6\n      swap1\n      mstore\n      sub(shl(0xa0, 0x01), 0x01)\n        /* \"ERC1155_Dropsite.sol\":1244:1296  TransferSingle(operator, address(0), to, id, amount) */\n      dup1\n      dup9\n      and\n      swap3\n        /* \"ERC1155_Dropsite.sol\":1277:1278  0 */\n      0x00\n      swap3\n        /* \"ERC1155_Dropsite.sol\":1244:1296  TransferSingle(operator, address(0), to, id, amount) */\n      swap2\n      dup6\n      and\n      swap2\n      0xc3d58168c5ae7397731d063d5bbf3d657854427343f4c083240f7aacaa2d0f62\n      swap2\n        /* \"#utility.yul\":9041:9059   */\n      add\n        /* \"ERC1155_Dropsite.sol\":1244:1296  TransferSingle(operator, address(0), to, id, amount) */\n      mload(0x40)\n      dup1\n      swap2\n      sub\n      swap1\n      log4\n        /* \"ERC1155_Dropsite.sol\":1306:1380  _doSafeTransferAcceptanceCheck(operator, address(0), to, id, amount, data) */\n      tag_259\n        /* \"ERC1155_Dropsite.sol\":1337:1345  operator */\n      dup2\n        /* \"ERC1155_Dropsite.sol\":1355:1356  0 */\n      0x00\n        /* \"ERC1155_Dropsite.sol\":1359:1361  to */\n      dup8\n        /* \"ERC1155_Dropsite.sol\":1363:1365  id */\n      dup8\n        /* \"ERC1155_Dropsite.sol\":1367:1373  amount */\n      dup8\n        /* \"ERC1155_Dropsite.sol\":1375:1379  data */\n      dup8\n        /* \"ERC1155_Dropsite.sol\":1306:1336  _doSafeTransferAcceptanceCheck */\n      tag_266\n        /* \"ERC1155_Dropsite.sol\":1306:1380  _doSafeTransferAcceptanceCheck(operator, address(0), to, id, amount, data) */\n      jump\t// in\n        /* \"Dropsite.sol\":5774:5893  function depositAmount(address payee,uint amountToDeposit) internal {... */\n    tag_155:\n      sub(shl(0xa0, 0x01), 0x01)\n        /* \"Dropsite.sol\":5852:5867  deposits[payee] */\n      dup3\n      and\n      0x00\n      swap1\n      dup2\n      mstore\n        /* \"Dropsite.sol\":5852:5860  deposits */\n      0x0b\n        /* \"Dropsite.sol\":5852:5867  deposits[payee] */\n      0x20\n      mstore\n      0x40\n      dup2\n      keccak256\n        /* \"Dropsite.sol\":5852:5886  deposits[payee] += amountToDeposit */\n      dup1\n      sload\n        /* \"Dropsite.sol\":5871:5886  amountToDeposit */\n      dup4\n      swap3\n        /* \"Dropsite.sol\":5852:5867  deposits[payee] */\n      swap1\n        /* \"Dropsite.sol\":5852:5886  deposits[payee] += amountToDeposit */\n      tag_268\n      swap1\n        /* \"Dropsite.sol\":5871:5886  amountToDeposit */\n      dup5\n      swap1\n        /* \"Dropsite.sol\":5852:5886  deposits[payee] += amountToDeposit */\n      tag_262\n      jump\t// in\n    tag_268:\n      swap1\n      swap2\n      sstore\n      pop\n      pop\n      pop\n      pop\n        /* \"Dropsite.sol\":5774:5893  function depositAmount(address payee,uint amountToDeposit) internal {... */\n      jump\t// out\n        /* \"Dropsite.sol\":3253:3449  function random() internal view returns (uint) {... */\n    tag_207:\n        /* \"Dropsite.sol\":3294:3298  uint */\n      0x00\n        /* \"Dropsite.sol\":3330:3347  uint randomnumber */\n      dup1\n        /* \"Dropsite.sol\":3415:3417  20 */\n      0x14\n        /* \"Dropsite.sol\":3382:3397  block.timestamp */\n      timestamp\n        /* \"Dropsite.sol\":3399:3409  msg.sender */\n      caller\n        /* \"Dropsite.sol\":3365:3410  abi.encodePacked(block.timestamp, msg.sender) */\n      add(0x20, mload(0x40))\n      tag_270\n      swap3\n      swap2\n      swap1\n        /* \"#utility.yul\":2712:2731   */\n      swap2\n      dup3\n      mstore\n        /* \"#utility.yul\":2769:2771   */\n      0x60\n        /* \"#utility.yul\":2765:2780   */\n      shl\n      not(0xffffffffffffffffffffffff)\n        /* \"#utility.yul\":2761:2814   */\n      and\n        /* \"#utility.yul\":2756:2758   */\n      0x20\n        /* \"#utility.yul\":2747:2759   */\n      dup3\n      add\n        /* \"#utility.yul\":2740:2815   */\n      mstore\n        /* \"#utility.yul\":2840:2842   */\n      0x34\n        /* \"#utility.yul\":2831:2843   */\n      add\n      swap1\n        /* \"#utility.yul\":2555:2849   */\n      jump\n        /* \"Dropsite.sol\":3365:3410  abi.encodePacked(block.timestamp, msg.sender) */\n    tag_270:\n      mload(0x40)\n      0x20\n      dup2\n      dup4\n      sub\n      sub\n      dup2\n      mstore\n      swap1\n      0x40\n      mstore\n        /* \"Dropsite.sol\":3355:3411  keccak256(abi.encodePacked(block.timestamp, msg.sender)) */\n      dup1\n      mload\n      swap1\n      0x20\n      add\n      keccak256\n        /* \"Dropsite.sol\":3350:3412  uint(keccak256(abi.encodePacked(block.timestamp, msg.sender))) */\n      0x00\n      shr\n        /* \"Dropsite.sol\":3350:3417  uint(keccak256(abi.encodePacked(block.timestamp, msg.sender))) % 20 */\n      tag_272\n      swap2\n      swap1\n      tag_273\n      jump\t// in\n    tag_272:\n        /* \"Dropsite.sol\":3330:3417  uint randomnumber = uint(keccak256(abi.encodePacked(block.timestamp, msg.sender))) % 20 */\n      swap3\n        /* \"Dropsite.sol\":3253:3449  function random() internal view returns (uint) {... */\n      swap2\n      pop\n      pop\n      jump\t// out\n        /* \"Strings.sol\":329:1032  function toString(uint256 value) internal pure returns (string memory) {... */\n    tag_216:\n        /* \"Strings.sol\":385:398  string memory */\n      0x60\n        /* \"Strings.sol\":602:612  value == 0 */\n      dup2\n        /* \"Strings.sol\":598:649  if (value == 0) {... */\n      tag_275\n      jumpi\n      pop\n      pop\n        /* \"Strings.sol\":628:638  return \"0\" */\n      0x40\n      dup1\n      mload\n      dup1\n      dup3\n      add\n      swap1\n      swap2\n      mstore\n      0x01\n      dup2\n      mstore\n      shl(0xfc, 0x03)\n      0x20\n      dup3\n      add\n      mstore\n      swap1\n        /* \"Strings.sol\":329:1032  function toString(uint256 value) internal pure returns (string memory) {... */\n      jump\t// out\n        /* \"Strings.sol\":598:649  if (value == 0) {... */\n    tag_275:\n        /* \"Strings.sol\":673:678  value */\n      dup2\n        /* \"Strings.sol\":658:670  uint256 temp */\n      0x00\n        /* \"Strings.sol\":712:787  while (temp != 0) {... */\n    tag_276:\n        /* \"Strings.sol\":719:728  temp != 0 */\n      dup2\n      iszero\n        /* \"Strings.sol\":712:787  while (temp != 0) {... */\n      tag_277\n      jumpi\n        /* \"Strings.sol\":744:752  digits++ */\n      dup1\n      tag_278\n      dup2\n      tag_125\n      jump\t// in\n    tag_278:\n      swap2\n      pop\n        /* \"Strings.sol\":766:776  temp /= 10 */\n      tag_279\n      swap1\n      pop\n        /* \"Strings.sol\":774:776  10 */\n      0x0a\n        /* \"Strings.sol\":766:776  temp /= 10 */\n      dup4\n      tag_280\n      jump\t// in\n    tag_279:\n      swap2\n      pop\n        /* \"Strings.sol\":712:787  while (temp != 0) {... */\n      jump(tag_276)\n    tag_277:\n        /* \"Strings.sol\":796:815  bytes memory buffer */\n      0x00\n        /* \"Strings.sol\":828:834  digits */\n      dup2\n        /* \"Strings.sol\":818:835  new bytes(digits) */\n      0xffffffffffffffff\n      dup2\n      gt\n      iszero\n      tag_282\n      jumpi\n      tag_282\n      tag_283\n      jump\t// in\n    tag_282:\n      mload(0x40)\n      swap1\n      dup1\n      dup3\n      mstore\n      dup1\n      0x1f\n      add\n      not(0x1f)\n      and\n      0x20\n      add\n      dup3\n      add\n      0x40\n      mstore\n      dup1\n      iszero\n      tag_284\n      jumpi\n      0x20\n      dup3\n      add\n      dup2\n      dup1\n      calldatasize\n      dup4\n      calldatacopy\n      add\n      swap1\n      pop\n    tag_284:\n      pop\n        /* \"Strings.sol\":796:835  bytes memory buffer = new bytes(digits) */\n      swap1\n      pop\n        /* \"Strings.sol\":845:995  while (value != 0) {... */\n    tag_285:\n        /* \"Strings.sol\":852:862  value != 0 */\n      dup5\n      iszero\n        /* \"Strings.sol\":845:995  while (value != 0) {... */\n      tag_286\n      jumpi\n        /* \"Strings.sol\":878:889  digits -= 1 */\n      tag_287\n        /* \"Strings.sol\":888:889  1 */\n      0x01\n        /* \"Strings.sol\":878:889  digits -= 1 */\n      dup4\n      tag_288\n      jump\t// in\n    tag_287:\n      swap2\n      pop\n        /* \"Strings.sol\":946:956  value % 10 */\n      tag_289\n        /* \"Strings.sol\":954:956  10 */\n      0x0a\n        /* \"Strings.sol\":946:951  value */\n      dup7\n        /* \"Strings.sol\":946:956  value % 10 */\n      tag_273\n      jump\t// in\n    tag_289:\n        /* \"Strings.sol\":933:957  48 + uint256(value % 10) */\n      tag_290\n      swap1\n        /* \"Strings.sol\":933:935  48 */\n      0x30\n        /* \"Strings.sol\":933:957  48 + uint256(value % 10) */\n      tag_262\n      jump\t// in\n    tag_290:\n        /* \"Strings.sol\":920:959  bytes1(uint8(48 + uint256(value % 10))) */\n      0xf8\n      shl\n        /* \"Strings.sol\":903:909  buffer */\n      dup2\n        /* \"Strings.sol\":910:916  digits */\n      dup4\n        /* \"Strings.sol\":903:917  buffer[digits] */\n      dup2\n      mload\n      dup2\n      lt\n      tag_292\n      jumpi\n      tag_292\n      tag_210\n      jump\t// in\n    tag_292:\n      0x20\n      add\n      add\n        /* \"Strings.sol\":903:959  buffer[digits] = bytes1(uint8(48 + uint256(value % 10))) */\n      swap1\n      not(sub(shl(0xf8, 0x01), 0x01))\n      and\n      swap1\n      dup2\n      0x00\n      byte\n      swap1\n      mstore8\n      pop\n        /* \"Strings.sol\":973:984  value /= 10 */\n      tag_293\n        /* \"Strings.sol\":982:984  10 */\n      0x0a\n        /* \"Strings.sol\":973:984  value /= 10 */\n      dup7\n      tag_280\n      jump\t// in\n    tag_293:\n      swap5\n      pop\n        /* \"Strings.sol\":845:995  while (value != 0) {... */\n      jump(tag_285)\n    tag_286:\n        /* \"Strings.sol\":1018:1024  buffer */\n      swap5\n        /* \"Strings.sol\":329:1032  function toString(uint256 value) internal pure returns (string memory) {... */\n      swap4\n      pop\n      pop\n      pop\n      pop\n      jump\t// out\n        /* \"ERC1155_Dropsite.sol\":2347:2540  function _asSingletonArray(uint256 element) private pure returns (uint256[] memory) {... */\n    tag_258:\n        /* \"ERC1155_Dropsite.sol\":2466:2482  new uint256[](1) */\n      0x40\n      dup1\n      mload\n        /* \"ERC1155_Dropsite.sol\":2480:2481  1 */\n      0x01\n        /* \"ERC1155_Dropsite.sol\":2466:2482  new uint256[](1) */\n      dup1\n      dup3\n      mstore\n      dup2\n      dup4\n      add\n      swap1\n      swap3\n      mstore\n        /* \"ERC1155_Dropsite.sol\":2413:2429  uint256[] memory */\n      0x60\n      swap2\n        /* \"ERC1155_Dropsite.sol\":2441:2463  uint256[] memory array */\n      0x00\n      swap2\n        /* \"ERC1155_Dropsite.sol\":2466:2482  new uint256[](1) */\n      swap1\n      0x20\n      dup1\n      dup4\n      add\n      swap1\n      dup1\n      calldatasize\n      dup4\n      calldatacopy\n      add\n      swap1\n      pop\n      pop\n        /* \"ERC1155_Dropsite.sol\":2441:2482  uint256[] memory array = new uint256[](1) */\n      swap1\n      pop\n        /* \"ERC1155_Dropsite.sol\":2503:2510  element */\n      dup3\n        /* \"ERC1155_Dropsite.sol\":2492:2497  array */\n      dup2\n        /* \"ERC1155_Dropsite.sol\":2498:2499  0 */\n      0x00\n        /* \"ERC1155_Dropsite.sol\":2492:2500  array[0] */\n      dup2\n      mload\n      dup2\n      lt\n      tag_299\n      jumpi\n      tag_299\n      tag_210\n      jump\t// in\n    tag_299:\n      0x20\n      swap1\n      dup2\n      mul\n      swap2\n      swap1\n      swap2\n      add\n      add\n        /* \"ERC1155_Dropsite.sol\":2492:2510  array[0] = element */\n      mstore\n        /* \"ERC1155_Dropsite.sol\":2528:2533  array */\n      swap3\n        /* \"ERC1155_Dropsite.sol\":2347:2540  function _asSingletonArray(uint256 element) private pure returns (uint256[] memory) {... */\n      swap2\n      pop\n      pop\n      jump\t// out\n        /* \"ERC1155_Dropsite.sol\":1394:1609  function _beforeTokenTransfer(... */\n    tag_260:\n      pop\n      pop\n      pop\n      pop\n      pop\n      pop\n      jump\t// out\n        /* \"ERC1155_Dropsite.sol\":1615:2341  function _doSafeTransferAcceptanceCheck(... */\n    tag_266:\n      sub(shl(0xa0, 0x01), 0x01)\n        /* \"ERC1155_Dropsite.sol\":1823:1836  to.isContract */\n      dup5\n      and\n        /* \"Address.sol\":1087:1107  extcodesize(account) */\n      extcodesize\n        /* \"Address.sol\":1133:1141  size > 0 */\n      iszero\n        /* \"ERC1155_Dropsite.sol\":1819:2335  if (to.isContract()) {... */\n      tag_260\n      jumpi\n        /* \"ERC1155_Dropsite.sol\":1858:1930  IERC1155Receiver(to).onERC1155Received(operator, from, id, amount, data) */\n      mload(0x40)\n      shl(0xe3, 0x15d13449)\n      dup2\n      mstore\n      sub(shl(0xa0, 0x01), 0x01)\n        /* \"ERC1155_Dropsite.sol\":1858:1896  IERC1155Receiver(to).onERC1155Received */\n      dup6\n      and\n      swap1\n      0xae89a248\n      swap1\n        /* \"ERC1155_Dropsite.sol\":1858:1930  IERC1155Receiver(to).onERC1155Received(operator, from, id, amount, data) */\n      tag_305\n      swap1\n        /* \"ERC1155_Dropsite.sol\":1897:1905  operator */\n      dup10\n      swap1\n        /* \"ERC1155_Dropsite.sol\":1907:1911  from */\n      dup10\n      swap1\n        /* \"ERC1155_Dropsite.sol\":1913:1915  id */\n      dup9\n      swap1\n        /* \"ERC1155_Dropsite.sol\":1917:1923  amount */\n      dup9\n      swap1\n        /* \"ERC1155_Dropsite.sol\":1925:1929  data */\n      dup9\n      swap1\n        /* \"ERC1155_Dropsite.sol\":1858:1930  IERC1155Receiver(to).onERC1155Received(operator, from, id, amount, data) */\n      0x04\n      add\n      tag_306\n      jump\t// in\n    tag_305:\n      0x20\n      mload(0x40)\n      dup1\n      dup4\n      sub\n      dup2\n      0x00\n      dup8\n      dup1\n      extcodesize\n      iszero\n      dup1\n      iszero\n      tag_307\n      jumpi\n      0x00\n      dup1\n      revert\n    tag_307:\n      pop\n      gas\n      call\n      swap3\n      pop\n      pop\n      pop\n      dup1\n      iszero\n      tag_308\n      jumpi\n      pop\n      0x40\n      dup1\n      mload\n      0x1f\n      returndatasize\n      swap1\n      dup2\n      add\n      not(0x1f)\n      and\n      dup3\n      add\n      swap1\n      swap3\n      mstore\n      tag_309\n      swap2\n      dup2\n      add\n      swap1\n      tag_310\n      jump\t// in\n    tag_309:\n      0x01\n    tag_308:\n        /* \"ERC1155_Dropsite.sol\":1854:2325  try IERC1155Receiver(to).onERC1155Received(operator, from, id, amount, data) returns (bytes4 response) {... */\n      tag_311\n      jumpi\n      tag_315\n      tag_316\n      jump\t// in\n    tag_315:\n      dup1\n      0x08c379a0\n      eq\n      iszero\n      tag_314\n      jumpi\n      pop\n      tag_317\n      tag_318\n      jump\t// in\n    tag_317:\n      dup1\n      tag_319\n      jumpi\n      pop\n      jump(tag_313)\n    tag_319:\n        /* \"ERC1155_Dropsite.sol\":2201:2207  reason */\n      dup1\n        /* \"ERC1155_Dropsite.sol\":2194:2208  revert(reason) */\n      mload(0x40)\n      shl(0xe5, 0x461bcd)\n      dup2\n      mstore\n      0x04\n      add\n      tag_81\n      swap2\n      swap1\n      tag_321\n      jump\t// in\n        /* \"ERC1155_Dropsite.sol\":1854:2325  try IERC1155Receiver(to).onERC1155Received(operator, from, id, amount, data) returns (bytes4 response) {... */\n    tag_314:\n      pop\n    tag_313:\n        /* \"ERC1155_Dropsite.sol\":2248:2310  revert(\"ERC1155: transfer to non ERC1155Receiver implementer\") */\n      mload(0x40)\n      shl(0xe5, 0x461bcd)\n      dup2\n      mstore\n        /* \"#utility.yul\":4902:4904   */\n      0x20\n        /* \"ERC1155_Dropsite.sol\":2248:2310  revert(\"ERC1155: transfer to non ERC1155Receiver implementer\") */\n      0x04\n      dup3\n      add\n        /* \"#utility.yul\":4884:4905   */\n      mstore\n        /* \"#utility.yul\":4941:4943   */\n      0x34\n        /* \"#utility.yul\":4921:4939   */\n      0x24\n      dup3\n      add\n        /* \"#utility.yul\":4914:4944   */\n      mstore\n        /* \"#utility.yul\":4980:5014   */\n      0x455243313135353a207472616e7366657220746f206e6f6e2045524331313535\n        /* \"#utility.yul\":4960:4978   */\n      0x44\n      dup3\n      add\n        /* \"#utility.yul\":4953:5015   */\n      mstore\n      shl(0x61, 0x2932b1b2b4bb32b91034b6b83632b6b2b73a32b9)\n        /* \"#utility.yul\":5031:5049   */\n      0x64\n      dup3\n      add\n        /* \"#utility.yul\":5024:5074   */\n      mstore\n        /* \"#utility.yul\":5091:5110   */\n      0x84\n      add\n        /* \"ERC1155_Dropsite.sol\":2248:2310  revert(\"ERC1155: transfer to non ERC1155Receiver implementer\") */\n      tag_81\n        /* \"#utility.yul\":4700:5116   */\n      jump\n        /* \"ERC1155_Dropsite.sol\":1854:2325  try IERC1155Receiver(to).onERC1155Received(operator, from, id, amount, data) returns (bytes4 response) {... */\n    tag_311:\n      not(sub(shl(0xe0, 0x01), 0x01))\n        /* \"ERC1155_Dropsite.sol\":1979:2034  response != IERC1155Receiver.onERC1155Received.selector */\n      dup2\n      and\n      shl(0xe3, 0x15d13449)\n      eq\n        /* \"ERC1155_Dropsite.sol\":1975:2127  if (response != IERC1155Receiver.onERC1155Received.selector) {... */\n      tag_325\n      jumpi\n        /* \"ERC1155_Dropsite.sol\":2058:2108  revert(\"ERC1155: ERC1155Receiver rejected tokens\") */\n      mload(0x40)\n      shl(0xe5, 0x461bcd)\n      dup2\n      mstore\n        /* \"#utility.yul\":5323:5325   */\n      0x20\n        /* \"ERC1155_Dropsite.sol\":2058:2108  revert(\"ERC1155: ERC1155Receiver rejected tokens\") */\n      0x04\n      dup3\n      add\n        /* \"#utility.yul\":5305:5326   */\n      mstore\n        /* \"#utility.yul\":5362:5364   */\n      0x28\n        /* \"#utility.yul\":5342:5360   */\n      0x24\n      dup3\n      add\n        /* \"#utility.yul\":5335:5365   */\n      mstore\n        /* \"#utility.yul\":5401:5435   */\n      0x455243313135353a204552433131353552656365697665722072656a65637465\n        /* \"#utility.yul\":5381:5399   */\n      0x44\n      dup3\n      add\n        /* \"#utility.yul\":5374:5436   */\n      mstore\n      shl(0xc0, 0x6420746f6b656e73)\n        /* \"#utility.yul\":5452:5470   */\n      0x64\n      dup3\n      add\n        /* \"#utility.yul\":5445:5483   */\n      mstore\n        /* \"#utility.yul\":5500:5519   */\n      0x84\n      add\n        /* \"ERC1155_Dropsite.sol\":2058:2108  revert(\"ERC1155: ERC1155Receiver rejected tokens\") */\n      tag_81\n        /* \"#utility.yul\":5121:5525   */\n      jump\n        /* \"ERC1155_Dropsite.sol\":1975:2127  if (response != IERC1155Receiver.onERC1155Received.selector) {... */\n    tag_325:\n        /* \"ERC1155_Dropsite.sol\":1931:2141  returns (bytes4 response) {... */\n      pop\n        /* \"ERC1155_Dropsite.sol\":1615:2341  function _doSafeTransferAcceptanceCheck(... */\n      pop\n      pop\n      pop\n      pop\n      pop\n      pop\n      jump\t// out\n    tag_220:\n      dup3\n      dup1\n      sload\n      tag_329\n      swap1\n      tag_118\n      jump\t// in\n    tag_329:\n      swap1\n      0x00\n      mstore\n      keccak256(0x00, 0x20)\n      swap1\n      0x1f\n      add\n      0x20\n      swap1\n      div\n      dup2\n      add\n      swap3\n      dup3\n      tag_331\n      jumpi\n      0x00\n      dup6\n      sstore\n      jump(tag_334)\n    tag_331:\n      dup3\n      0x1f\n      lt\n      tag_332\n      jumpi\n      dup1\n      mload\n      not(0xff)\n      and\n      dup4\n      dup1\n      add\n      or\n      dup6\n      sstore\n      jump(tag_334)\n    tag_332:\n      dup3\n      dup1\n      add\n      0x01\n      add\n      dup6\n      sstore\n      dup3\n      iszero\n      tag_334\n      jumpi\n      swap2\n      dup3\n      add\n    tag_333:\n      dup3\n      dup2\n      gt\n      iszero\n      tag_334\n      jumpi\n      dup3\n      mload\n      dup3\n      sstore\n      swap2\n      0x20\n      add\n      swap2\n      swap1\n      0x01\n      add\n      swap1\n      jump(tag_333)\n    tag_334:\n      pop\n      tag_335\n      swap3\n      swap2\n      pop\n      tag_336\n      jump\t// in\n    tag_335:\n      pop\n      swap1\n      jump\t// out\n    tag_239:\n      dup3\n      dup1\n      sload\n      tag_337\n      swap1\n      tag_118\n      jump\t// in\n    tag_337:\n      swap1\n      0x00\n      mstore\n      keccak256(0x00, 0x20)\n      swap1\n      0x1f\n      add\n      0x20\n      swap1\n      div\n      dup2\n      add\n      swap3\n      dup3\n      tag_339\n      jumpi\n      0x00\n      dup6\n      sstore\n      jump(tag_334)\n    tag_339:\n      dup3\n      0x1f\n      lt\n      tag_340\n      jumpi\n      dup1\n      sload\n      dup6\n      sstore\n      jump(tag_334)\n    tag_340:\n      dup3\n      dup1\n      add\n      0x01\n      add\n      dup6\n      sstore\n      dup3\n      iszero\n      tag_334\n      jumpi\n      0x00\n      mstore\n      keccak256(0x00, 0x20)\n      swap2\n      0x1f\n      add\n      0x20\n      swap1\n      div\n      dup3\n      add\n    tag_341:\n      dup3\n      dup2\n      gt\n      iszero\n      tag_334\n      jumpi\n      dup3\n      sload\n      dup3\n      sstore\n      swap2\n      0x01\n      add\n      swap2\n      swap1\n      0x01\n      add\n      swap1\n      jump(tag_341)\n    tag_336:\n    tag_344:\n      dup1\n      dup3\n      gt\n      iszero\n      tag_335\n      jumpi\n      0x00\n      dup2\n      sstore\n      0x01\n      add\n      jump(tag_344)\n        /* \"#utility.yul\":14:261   */\n    tag_37:\n        /* \"#utility.yul\":73:79   */\n      0x00\n        /* \"#utility.yul\":126:128   */\n      0x20\n        /* \"#utility.yul\":114:123   */\n      dup3\n        /* \"#utility.yul\":105:112   */\n      dup5\n        /* \"#utility.yul\":101:124   */\n      sub\n        /* \"#utility.yul\":97:129   */\n      slt\n        /* \"#utility.yul\":94:146   */\n      iszero\n      tag_348\n      jumpi\n        /* \"#utility.yul\":142:143   */\n      0x00\n        /* \"#utility.yul\":139:140   */\n      dup1\n        /* \"#utility.yul\":132:144   */\n      revert\n        /* \"#utility.yul\":94:146   */\n    tag_348:\n        /* \"#utility.yul\":181:190   */\n      dup2\n        /* \"#utility.yul\":168:191   */\n      calldataload\n        /* \"#utility.yul\":200:231   */\n      tag_349\n        /* \"#utility.yul\":225:230   */\n      dup2\n        /* \"#utility.yul\":200:231   */\n      tag_350\n      jump\t// in\n    tag_349:\n        /* \"#utility.yul\":250:255   */\n      swap4\n        /* \"#utility.yul\":14:261   */\n      swap3\n      pop\n      pop\n      pop\n      jump\t// out\n        /* \"#utility.yul\":526:816   */\n    tag_310:\n        /* \"#utility.yul\":595:601   */\n      0x00\n        /* \"#utility.yul\":648:650   */\n      0x20\n        /* \"#utility.yul\":636:645   */\n      dup3\n        /* \"#utility.yul\":627:634   */\n      dup5\n        /* \"#utility.yul\":623:646   */\n      sub\n        /* \"#utility.yul\":619:651   */\n      slt\n        /* \"#utility.yul\":616:668   */\n      iszero\n      tag_355\n      jumpi\n        /* \"#utility.yul\":664:665   */\n      0x00\n        /* \"#utility.yul\":661:662   */\n      dup1\n        /* \"#utility.yul\":654:666   */\n      revert\n        /* \"#utility.yul\":616:668   */\n    tag_355:\n        /* \"#utility.yul\":690:706   */\n      dup2\n      mload\n      not(sub(shl(0xe0, 0x01), 0x01))\n        /* \"#utility.yul\":735:767   */\n      dup2\n      and\n        /* \"#utility.yul\":725:768   */\n      dup2\n      eq\n        /* \"#utility.yul\":715:786   */\n      tag_349\n      jumpi\n        /* \"#utility.yul\":782:783   */\n      0x00\n        /* \"#utility.yul\":779:780   */\n      dup1\n        /* \"#utility.yul\":772:784   */\n      revert\n        /* \"#utility.yul\":821:1001   */\n    tag_69:\n        /* \"#utility.yul\":880:886   */\n      0x00\n        /* \"#utility.yul\":933:935   */\n      0x20\n        /* \"#utility.yul\":921:930   */\n      dup3\n        /* \"#utility.yul\":912:919   */\n      dup5\n        /* \"#utility.yul\":908:931   */\n      sub\n        /* \"#utility.yul\":904:936   */\n      slt\n        /* \"#utility.yul\":901:953   */\n      iszero\n      tag_358\n      jumpi\n        /* \"#utility.yul\":949:950   */\n      0x00\n        /* \"#utility.yul\":946:947   */\n      dup1\n        /* \"#utility.yul\":939:951   */\n      revert\n        /* \"#utility.yul\":901:953   */\n    tag_358:\n      pop\n        /* \"#utility.yul\":972:995   */\n      calldataload\n      swap2\n        /* \"#utility.yul\":821:1001   */\n      swap1\n      pop\n      jump\t// out\n        /* \"#utility.yul\":1006:1264   */\n    tag_359:\n        /* \"#utility.yul\":1048:1051   */\n      0x00\n        /* \"#utility.yul\":1086:1091   */\n      dup2\n        /* \"#utility.yul\":1080:1092   */\n      mload\n        /* \"#utility.yul\":1113:1119   */\n      dup1\n        /* \"#utility.yul\":1108:1111   */\n      dup5\n        /* \"#utility.yul\":1101:1120   */\n      mstore\n        /* \"#utility.yul\":1129:1192   */\n      tag_361\n        /* \"#utility.yul\":1185:1191   */\n      dup2\n        /* \"#utility.yul\":1178:1182   */\n      0x20\n        /* \"#utility.yul\":1173:1176   */\n      dup7\n        /* \"#utility.yul\":1169:1183   */\n      add\n        /* \"#utility.yul\":1162:1166   */\n      0x20\n        /* \"#utility.yul\":1155:1160   */\n      dup7\n        /* \"#utility.yul\":1151:1167   */\n      add\n        /* \"#utility.yul\":1129:1192   */\n      tag_362\n      jump\t// in\n    tag_361:\n        /* \"#utility.yul\":1246:1248   */\n      0x1f\n        /* \"#utility.yul\":1225:1240   */\n      add\n      not(0x1f)\n        /* \"#utility.yul\":1221:1250   */\n      and\n        /* \"#utility.yul\":1212:1251   */\n      swap3\n      swap1\n      swap3\n      add\n        /* \"#utility.yul\":1253:1257   */\n      0x20\n        /* \"#utility.yul\":1208:1258   */\n      add\n      swap3\n        /* \"#utility.yul\":1006:1264   */\n      swap2\n      pop\n      pop\n      jump\t// out\n        /* \"#utility.yul\":1269:1694   */\n    tag_218:\n      shl(0xc0, 0x4469616d6f6e645f)\n        /* \"#utility.yul\":1526:1529   */\n      dup2\n        /* \"#utility.yul\":1519:1542   */\n      mstore\n        /* \"#utility.yul\":1501:1504   */\n      0x00\n        /* \"#utility.yul\":1571:1577   */\n      dup3\n        /* \"#utility.yul\":1565:1578   */\n      mload\n        /* \"#utility.yul\":1587:1648   */\n      tag_364\n        /* \"#utility.yul\":1641:1647   */\n      dup2\n        /* \"#utility.yul\":1637:1638   */\n      0x08\n        /* \"#utility.yul\":1632:1635   */\n      dup6\n        /* \"#utility.yul\":1628:1639   */\n      add\n        /* \"#utility.yul\":1621:1625   */\n      0x20\n        /* \"#utility.yul\":1613:1619   */\n      dup8\n        /* \"#utility.yul\":1609:1626   */\n      add\n        /* \"#utility.yul\":1587:1648   */\n      tag_362\n      jump\t// in\n    tag_364:\n        /* \"#utility.yul\":1668:1684   */\n      swap2\n      swap1\n      swap2\n      add\n        /* \"#utility.yul\":1686:1687   */\n      0x08\n        /* \"#utility.yul\":1664:1688   */\n      add\n      swap3\n        /* \"#utility.yul\":1269:1694   */\n      swap2\n      pop\n      pop\n      jump\t// out\n        /* \"#utility.yul\":1699:2121   */\n    tag_227:\n      shl(0xd8, 0x476f6c645f)\n        /* \"#utility.yul\":1956:1959   */\n      dup2\n        /* \"#utility.yul\":1949:1969   */\n      mstore\n        /* \"#utility.yul\":1931:1934   */\n      0x00\n        /* \"#utility.yul\":1998:2004   */\n      dup3\n        /* \"#utility.yul\":1992:2005   */\n      mload\n        /* \"#utility.yul\":2014:2075   */\n      tag_366\n        /* \"#utility.yul\":2068:2074   */\n      dup2\n        /* \"#utility.yul\":2064:2065   */\n      0x05\n        /* \"#utility.yul\":2059:2062   */\n      dup6\n        /* \"#utility.yul\":2055:2066   */\n      add\n        /* \"#utility.yul\":2048:2052   */\n      0x20\n        /* \"#utility.yul\":2040:2046   */\n      dup8\n        /* \"#utility.yul\":2036:2053   */\n      add\n        /* \"#utility.yul\":2014:2075   */\n      tag_362\n      jump\t// in\n    tag_366:\n        /* \"#utility.yul\":2095:2111   */\n      swap2\n      swap1\n      swap2\n      add\n        /* \"#utility.yul\":2113:2114   */\n      0x05\n        /* \"#utility.yul\":2091:2115   */\n      add\n      swap3\n        /* \"#utility.yul\":1699:2121   */\n      swap2\n      pop\n      pop\n      jump\t// out\n        /* \"#utility.yul\":2126:2550   */\n    tag_235:\n      shl(0xc8, 0x53696c7665725f)\n        /* \"#utility.yul\":2383:2386   */\n      dup2\n        /* \"#utility.yul\":2376:2398   */\n      mstore\n        /* \"#utility.yul\":2358:2361   */\n      0x00\n        /* \"#utility.yul\":2427:2433   */\n      dup3\n        /* \"#utility.yul\":2421:2434   */\n      mload\n        /* \"#utility.yul\":2443:2504   */\n      tag_368\n        /* \"#utility.yul\":2497:2503   */\n      dup2\n        /* \"#utility.yul\":2493:2494   */\n      0x07\n        /* \"#utility.yul\":2488:2491   */\n      dup6\n        /* \"#utility.yul\":2484:2495   */\n      add\n        /* \"#utility.yul\":2477:2481   */\n      0x20\n        /* \"#utility.yul\":2469:2475   */\n      dup8\n        /* \"#utility.yul\":2465:2482   */\n      add\n        /* \"#utility.yul\":2443:2504   */\n      tag_362\n      jump\t// in\n    tag_368:\n        /* \"#utility.yul\":2524:2540   */\n      swap2\n      swap1\n      swap2\n      add\n        /* \"#utility.yul\":2542:2543   */\n      0x07\n        /* \"#utility.yul\":2520:2544   */\n      add\n      swap3\n        /* \"#utility.yul\":2126:2550   */\n      swap2\n      pop\n      pop\n      jump\t// out\n        /* \"#utility.yul\":3078:3641   */\n    tag_306:\n      sub(shl(0xa0, 0x01), 0x01)\n        /* \"#utility.yul\":3377:3392   */\n      dup7\n      dup2\n      and\n        /* \"#utility.yul\":3359:3393   */\n      dup3\n      mstore\n        /* \"#utility.yul\":3429:3444   */\n      dup6\n      and\n        /* \"#utility.yul\":3424:3426   */\n      0x20\n        /* \"#utility.yul\":3409:3427   */\n      dup3\n      add\n        /* \"#utility.yul\":3402:3445   */\n      mstore\n        /* \"#utility.yul\":3476:3478   */\n      0x40\n        /* \"#utility.yul\":3461:3479   */\n      dup2\n      add\n        /* \"#utility.yul\":3454:3488   */\n      dup5\n      swap1\n      mstore\n        /* \"#utility.yul\":3519:3521   */\n      0x60\n        /* \"#utility.yul\":3504:3522   */\n      dup2\n      add\n        /* \"#utility.yul\":3497:3531   */\n      dup4\n      swap1\n      mstore\n        /* \"#utility.yul\":3339:3342   */\n      0xa0\n        /* \"#utility.yul\":3562:3565   */\n      0x80\n        /* \"#utility.yul\":3547:3566   */\n      dup3\n      add\n        /* \"#utility.yul\":3540:3572   */\n      dup2\n      swap1\n      mstore\n        /* \"#utility.yul\":3302:3306   */\n      0x00\n      swap1\n        /* \"#utility.yul\":3589:3635   */\n      tag_372\n      swap1\n        /* \"#utility.yul\":3615:3634   */\n      dup4\n      add\n        /* \"#utility.yul\":3607:3613   */\n      dup5\n        /* \"#utility.yul\":3589:3635   */\n      tag_359\n      jump\t// in\n    tag_372:\n        /* \"#utility.yul\":3581:3635   */\n      swap8\n        /* \"#utility.yul\":3078:3641   */\n      swap7\n      pop\n      pop\n      pop\n      pop\n      pop\n      pop\n      pop\n      jump\t// out\n        /* \"#utility.yul\":3646:4278   */\n    tag_76:\n        /* \"#utility.yul\":3817:3819   */\n      0x20\n        /* \"#utility.yul\":3869:3890   */\n      dup1\n      dup3\n      mstore\n        /* \"#utility.yul\":3939:3952   */\n      dup3\n      mload\n        /* \"#utility.yul\":3842:3860   */\n      dup3\n      dup3\n      add\n        /* \"#utility.yul\":3961:3983   */\n      dup2\n      swap1\n      mstore\n        /* \"#utility.yul\":3788:3792   */\n      0x00\n      swap2\n        /* \"#utility.yul\":3817:3819   */\n      swap1\n        /* \"#utility.yul\":4040:4055   */\n      dup5\n      dup3\n      add\n      swap1\n        /* \"#utility.yul\":4014:4016   */\n      0x40\n        /* \"#utility.yul\":3999:4017   */\n      dup6\n      add\n      swap1\n        /* \"#utility.yul\":3788:3792   */\n      dup5\n        /* \"#utility.yul\":4083:4252   */\n    tag_374:\n        /* \"#utility.yul\":4097:4103   */\n      dup2\n        /* \"#utility.yul\":4094:4095   */\n      dup2\n        /* \"#utility.yul\":4091:4104   */\n      lt\n        /* \"#utility.yul\":4083:4252   */\n      iszero\n      tag_376\n      jumpi\n        /* \"#utility.yul\":4158:4171   */\n      dup4\n      mload\n        /* \"#utility.yul\":4146:4172   */\n      dup4\n      mstore\n        /* \"#utility.yul\":4227:4242   */\n      swap3\n      dup5\n      add\n      swap3\n        /* \"#utility.yul\":4192:4204   */\n      swap2\n      dup5\n      add\n      swap2\n        /* \"#utility.yul\":4119:4120   */\n      0x01\n        /* \"#utility.yul\":4112:4121   */\n      add\n        /* \"#utility.yul\":4083:4252   */\n      jump(tag_374)\n    tag_376:\n      pop\n        /* \"#utility.yul\":4269:4272   */\n      swap1\n      swap7\n        /* \"#utility.yul\":3646:4278   */\n      swap6\n      pop\n      pop\n      pop\n      pop\n      pop\n      pop\n      jump\t// out\n        /* \"#utility.yul\":4475:4695   */\n    tag_321:\n        /* \"#utility.yul\":4624:4626   */\n      0x20\n        /* \"#utility.yul\":4613:4622   */\n      dup2\n        /* \"#utility.yul\":4606:4627   */\n      mstore\n        /* \"#utility.yul\":4587:4591   */\n      0x00\n        /* \"#utility.yul\":4644:4689   */\n      tag_349\n        /* \"#utility.yul\":4685:4687   */\n      0x20\n        /* \"#utility.yul\":4674:4683   */\n      dup4\n        /* \"#utility.yul\":4670:4688   */\n      add\n        /* \"#utility.yul\":4662:4668   */\n      dup5\n        /* \"#utility.yul\":4644:4689   */\n      tag_359\n      jump\t// in\n        /* \"#utility.yul\":6589:6941   */\n    tag_82:\n        /* \"#utility.yul\":6791:6793   */\n      0x20\n        /* \"#utility.yul\":6773:6794   */\n      dup1\n      dup3\n      mstore\n        /* \"#utility.yul\":6830:6832   */\n      0x1c\n        /* \"#utility.yul\":6810:6828   */\n      swap1\n      dup3\n      add\n        /* \"#utility.yul\":6803:6833   */\n      mstore\n        /* \"#utility.yul\":6869:6899   */\n      0x4f6e6c79204e46542d4553204f776e65722063616e2041636365737300000000\n        /* \"#utility.yul\":6864:6866   */\n      0x40\n        /* \"#utility.yul\":6849:6867   */\n      dup3\n      add\n        /* \"#utility.yul\":6842:6900   */\n      mstore\n        /* \"#utility.yul\":6932:6934   */\n      0x60\n        /* \"#utility.yul\":6917:6935   */\n      add\n      swap1\n        /* \"#utility.yul\":6589:6941   */\n      jump\t// out\n        /* \"#utility.yul\":6946:7297   */\n    tag_109:\n        /* \"#utility.yul\":7148:7150   */\n      0x20\n        /* \"#utility.yul\":7130:7151   */\n      dup1\n      dup3\n      mstore\n        /* \"#utility.yul\":7187:7189   */\n      0x1b\n        /* \"#utility.yul\":7167:7185   */\n      swap1\n      dup3\n      add\n        /* \"#utility.yul\":7160:7190   */\n      mstore\n        /* \"#utility.yul\":7226:7255   */\n      0x44726f7073697465206973206e6f74204f70656e6564205965742e0000000000\n        /* \"#utility.yul\":7221:7223   */\n      0x40\n        /* \"#utility.yul\":7206:7224   */\n      dup3\n      add\n        /* \"#utility.yul\":7199:7256   */\n      mstore\n        /* \"#utility.yul\":7288:7290   */\n      0x60\n        /* \"#utility.yul\":7273:7291   */\n      add\n      swap1\n        /* \"#utility.yul\":6946:7297   */\n      jump\t// out\n        /* \"#utility.yul\":8598:8889   */\n    tag_40:\n        /* \"#utility.yul\":8775:8781   */\n      dup3\n        /* \"#utility.yul\":8764:8773   */\n      dup2\n        /* \"#utility.yul\":8757:8782   */\n      mstore\n        /* \"#utility.yul\":8818:8820   */\n      0x40\n        /* \"#utility.yul\":8813:8815   */\n      0x20\n        /* \"#utility.yul\":8802:8811   */\n      dup3\n        /* \"#utility.yul\":8798:8816   */\n      add\n        /* \"#utility.yul\":8791:8821   */\n      mstore\n        /* \"#utility.yul\":8738:8742   */\n      0x00\n        /* \"#utility.yul\":8838:8883   */\n      tag_286\n        /* \"#utility.yul\":8879:8881   */\n      0x40\n        /* \"#utility.yul\":8868:8877   */\n      dup4\n        /* \"#utility.yul\":8864:8882   */\n      add\n        /* \"#utility.yul\":8856:8862   */\n      dup5\n        /* \"#utility.yul\":8838:8883   */\n      tag_359\n      jump\t// in\n        /* \"#utility.yul\":9471:9599   */\n    tag_262:\n        /* \"#utility.yul\":9511:9514   */\n      0x00\n        /* \"#utility.yul\":9542:9543   */\n      dup3\n        /* \"#utility.yul\":9538:9544   */\n      not\n        /* \"#utility.yul\":9535:9536   */\n      dup3\n        /* \"#utility.yul\":9532:9545   */\n      gt\n        /* \"#utility.yul\":9529:9568   */\n      iszero\n      tag_397\n      jumpi\n        /* \"#utility.yul\":9548:9566   */\n      tag_397\n      tag_398\n      jump\t// in\n    tag_397:\n      pop\n        /* \"#utility.yul\":9584:9593   */\n      add\n      swap1\n        /* \"#utility.yul\":9471:9599   */\n      jump\t// out\n        /* \"#utility.yul\":9604:9724   */\n    tag_280:\n        /* \"#utility.yul\":9644:9645   */\n      0x00\n        /* \"#utility.yul\":9670:9671   */\n      dup3\n        /* \"#utility.yul\":9660:9695   */\n      tag_401\n      jumpi\n        /* \"#utility.yul\":9675:9693   */\n      tag_401\n      tag_402\n      jump\t// in\n    tag_401:\n      pop\n        /* \"#utility.yul\":9709:9718   */\n      div\n      swap1\n        /* \"#utility.yul\":9604:9724   */\n      jump\t// out\n        /* \"#utility.yul\":9729:9854   */\n    tag_288:\n        /* \"#utility.yul\":9769:9773   */\n      0x00\n        /* \"#utility.yul\":9797:9798   */\n      dup3\n        /* \"#utility.yul\":9794:9795   */\n      dup3\n        /* \"#utility.yul\":9791:9799   */\n      lt\n        /* \"#utility.yul\":9788:9822   */\n      iszero\n      tag_405\n      jumpi\n        /* \"#utility.yul\":9802:9820   */\n      tag_405\n      tag_398\n      jump\t// in\n    tag_405:\n      pop\n        /* \"#utility.yul\":9839:9848   */\n      sub\n      swap1\n        /* \"#utility.yul\":9729:9854   */\n      jump\t// out\n        /* \"#utility.yul\":9859:10117   */\n    tag_362:\n        /* \"#utility.yul\":9931:9932   */\n      0x00\n        /* \"#utility.yul\":9941:10054   */\n    tag_407:\n        /* \"#utility.yul\":9955:9961   */\n      dup4\n        /* \"#utility.yul\":9952:9953   */\n      dup2\n        /* \"#utility.yul\":9949:9962   */\n      lt\n        /* \"#utility.yul\":9941:10054   */\n      iszero\n      tag_409\n      jumpi\n        /* \"#utility.yul\":10031:10042   */\n      dup2\n      dup2\n      add\n        /* \"#utility.yul\":10025:10043   */\n      mload\n        /* \"#utility.yul\":10012:10023   */\n      dup4\n      dup3\n      add\n        /* \"#utility.yul\":10005:10044   */\n      mstore\n        /* \"#utility.yul\":9977:9979   */\n      0x20\n        /* \"#utility.yul\":9970:9980   */\n      add\n        /* \"#utility.yul\":9941:10054   */\n      jump(tag_407)\n    tag_409:\n        /* \"#utility.yul\":10072:10078   */\n      dup4\n        /* \"#utility.yul\":10069:10070   */\n      dup2\n        /* \"#utility.yul\":10066:10079   */\n      gt\n        /* \"#utility.yul\":10063:10111   */\n      iszero\n      tag_410\n      jumpi\n        /* \"#utility.yul\":10107:10108   */\n      0x00\n        /* \"#utility.yul\":10098:10104   */\n      dup5\n        /* \"#utility.yul\":10093:10096   */\n      dup5\n        /* \"#utility.yul\":10089:10105   */\n      add\n        /* \"#utility.yul\":10082:10109   */\n      mstore\n        /* \"#utility.yul\":10063:10111   */\n    tag_410:\n      pop\n        /* \"#utility.yul\":9859:10117   */\n      pop\n      pop\n      pop\n      jump\t// out\n        /* \"#utility.yul\":10122:10502   */\n    tag_118:\n        /* \"#utility.yul\":10201:10202   */\n      0x01\n        /* \"#utility.yul\":10197:10209   */\n      dup2\n      dup2\n      shr\n      swap1\n        /* \"#utility.yul\":10244:10256   */\n      dup3\n      and\n      dup1\n        /* \"#utility.yul\":10265:10326   */\n      tag_412\n      jumpi\n        /* \"#utility.yul\":10319:10323   */\n      0x7f\n        /* \"#utility.yul\":10311:10317   */\n      dup3\n        /* \"#utility.yul\":10307:10324   */\n      and\n        /* \"#utility.yul\":10297:10324   */\n      swap2\n      pop\n        /* \"#utility.yul\":10265:10326   */\n    tag_412:\n        /* \"#utility.yul\":10372:10374   */\n      0x20\n        /* \"#utility.yul\":10364:10370   */\n      dup3\n        /* \"#utility.yul\":10361:10375   */\n      lt\n        /* \"#utility.yul\":10341:10359   */\n      dup2\n        /* \"#utility.yul\":10338:10376   */\n      eq\n        /* \"#utility.yul\":10335:10496   */\n      iszero\n      tag_413\n      jumpi\n        /* \"#utility.yul\":10418:10428   */\n      0x4e487b71\n        /* \"#utility.yul\":10413:10416   */\n      0xe0\n        /* \"#utility.yul\":10409:10429   */\n      shl\n        /* \"#utility.yul\":10406:10407   */\n      0x00\n        /* \"#utility.yul\":10399:10430   */\n      mstore\n        /* \"#utility.yul\":10453:10457   */\n      0x22\n        /* \"#utility.yul\":10450:10451   */\n      0x04\n        /* \"#utility.yul\":10443:10458   */\n      mstore\n        /* \"#utility.yul\":10481:10485   */\n      0x24\n        /* \"#utility.yul\":10478:10479   */\n      0x00\n        /* \"#utility.yul\":10471:10486   */\n      revert\n        /* \"#utility.yul\":10335:10496   */\n    tag_413:\n      pop\n        /* \"#utility.yul\":10122:10502   */\n      swap2\n      swap1\n      pop\n      jump\t// out\n        /* \"#utility.yul\":10507:10853   */\n    tag_414:\n        /* \"#utility.yul\":10617:10619   */\n      0x1f\n        /* \"#utility.yul\":10598:10611   */\n      dup3\n      add\n      not(0x1f)\n        /* \"#utility.yul\":10594:10621   */\n      and\n        /* \"#utility.yul\":10582:10622   */\n      dup2\n      add\n        /* \"#utility.yul\":10652:10670   */\n      0xffffffffffffffff\n        /* \"#utility.yul\":10637:10671   */\n      dup2\n      gt\n        /* \"#utility.yul\":10673:10695   */\n      dup3\n      dup3\n      lt\n        /* \"#utility.yul\":10634:10696   */\n      or\n        /* \"#utility.yul\":10631:10816   */\n      iszero\n      tag_416\n      jumpi\n        /* \"#utility.yul\":10738:10748   */\n      0x4e487b71\n        /* \"#utility.yul\":10733:10736   */\n      0xe0\n        /* \"#utility.yul\":10729:10749   */\n      shl\n        /* \"#utility.yul\":10726:10727   */\n      0x00\n        /* \"#utility.yul\":10719:10750   */\n      mstore\n        /* \"#utility.yul\":10773:10777   */\n      0x41\n        /* \"#utility.yul\":10770:10771   */\n      0x04\n        /* \"#utility.yul\":10763:10778   */\n      mstore\n        /* \"#utility.yul\":10801:10805   */\n      0x24\n        /* \"#utility.yul\":10798:10799   */\n      0x00\n        /* \"#utility.yul\":10791:10806   */\n      revert\n        /* \"#utility.yul\":10631:10816   */\n    tag_416:\n        /* \"#utility.yul\":10832:10834   */\n      0x40\n        /* \"#utility.yul\":10825:10847   */\n      mstore\n      pop\n      pop\n        /* \"#utility.yul\":10507:10853   */\n      jump\t// out\n        /* \"#utility.yul\":10858:10993   */\n    tag_125:\n        /* \"#utility.yul\":10897:10900   */\n      0x00\n      not(0x00)\n        /* \"#utility.yul\":10918:10935   */\n      dup3\n      eq\n        /* \"#utility.yul\":10915:10958   */\n      iszero\n      tag_419\n      jumpi\n        /* \"#utility.yul\":10938:10956   */\n      tag_419\n      tag_398\n      jump\t// in\n    tag_419:\n      pop\n        /* \"#utility.yul\":10985:10986   */\n      0x01\n        /* \"#utility.yul\":10974:10987   */\n      add\n      swap1\n        /* \"#utility.yul\":10858:10993   */\n      jump\t// out\n        /* \"#utility.yul\":10998:11110   */\n    tag_273:\n        /* \"#utility.yul\":11030:11031   */\n      0x00\n        /* \"#utility.yul\":11056:11057   */\n      dup3\n        /* \"#utility.yul\":11046:11081   */\n      tag_422\n      jumpi\n        /* \"#utility.yul\":11061:11079   */\n      tag_422\n      tag_402\n      jump\t// in\n    tag_422:\n      pop\n        /* \"#utility.yul\":11095:11104   */\n      mod\n      swap1\n        /* \"#utility.yul\":10998:11110   */\n      jump\t// out\n        /* \"#utility.yul\":11115:11242   */\n    tag_398:\n        /* \"#utility.yul\":11176:11186   */\n      0x4e487b71\n        /* \"#utility.yul\":11171:11174   */\n      0xe0\n        /* \"#utility.yul\":11167:11187   */\n      shl\n        /* \"#utility.yul\":11164:11165   */\n      0x00\n        /* \"#utility.yul\":11157:11188   */\n      mstore\n        /* \"#utility.yul\":11207:11211   */\n      0x11\n        /* \"#utility.yul\":11204:11205   */\n      0x04\n        /* \"#utility.yul\":11197:11212   */\n      mstore\n        /* \"#utility.yul\":11231:11235   */\n      0x24\n        /* \"#utility.yul\":11228:11229   */\n      0x00\n        /* \"#utility.yul\":11221:11236   */\n      revert\n        /* \"#utility.yul\":11247:11374   */\n    tag_402:\n        /* \"#utility.yul\":11308:11318   */\n      0x4e487b71\n        /* \"#utility.yul\":11303:11306   */\n      0xe0\n        /* \"#utility.yul\":11299:11319   */\n      shl\n        /* \"#utility.yul\":11296:11297   */\n      0x00\n        /* \"#utility.yul\":11289:11320   */\n      mstore\n        /* \"#utility.yul\":11339:11343   */\n      0x12\n        /* \"#utility.yul\":11336:11337   */\n      0x04\n        /* \"#utility.yul\":11329:11344   */\n      mstore\n        /* \"#utility.yul\":11363:11367   */\n      0x24\n        /* \"#utility.yul\":11360:11361   */\n      0x00\n        /* \"#utility.yul\":11353:11368   */\n      revert\n        /* \"#utility.yul\":11379:11506   */\n    tag_210:\n        /* \"#utility.yul\":11440:11450   */\n      0x4e487b71\n        /* \"#utility.yul\":11435:11438   */\n      0xe0\n        /* \"#utility.yul\":11431:11451   */\n      shl\n        /* \"#utility.yul\":11428:11429   */\n      0x00\n        /* \"#utility.yul\":11421:11452   */\n      mstore\n        /* \"#utility.yul\":11471:11475   */\n      0x32\n        /* \"#utility.yul\":11468:11469   */\n      0x04\n        /* \"#utility.yul\":11461:11476   */\n      mstore\n        /* \"#utility.yul\":11495:11499   */\n      0x24\n        /* \"#utility.yul\":11492:11493   */\n      0x00\n        /* \"#utility.yul\":11485:11500   */\n      revert\n        /* \"#utility.yul\":11511:11638   */\n    tag_283:\n        /* \"#utility.yul\":11572:11582   */\n      0x4e487b71\n        /* \"#utility.yul\":11567:11570   */\n      0xe0\n        /* \"#utility.yul\":11563:11583   */\n      shl\n        /* \"#utility.yul\":11560:11561   */\n      0x00\n        /* \"#utility.yul\":11553:11584   */\n      mstore\n        /* \"#utility.yul\":11603:11607   */\n      0x41\n        /* \"#utility.yul\":11600:11601   */\n      0x04\n        /* \"#utility.yul\":11593:11608   */\n      mstore\n        /* \"#utility.yul\":11627:11631   */\n      0x24\n        /* \"#utility.yul\":11624:11625   */\n      0x00\n        /* \"#utility.yul\":11617:11632   */\n      revert\n        /* \"#utility.yul\":11643:11822   */\n    tag_316:\n        /* \"#utility.yul\":11678:11681   */\n      0x00\n        /* \"#utility.yul\":11720:11721   */\n      0x03\n        /* \"#utility.yul\":11702:11718   */\n      returndatasize\n        /* \"#utility.yul\":11699:11722   */\n      gt\n        /* \"#utility.yul\":11696:11816   */\n      iszero\n      tag_83\n      jumpi\n        /* \"#utility.yul\":11766:11767   */\n      0x04\n        /* \"#utility.yul\":11763:11764   */\n      0x00\n        /* \"#utility.yul\":11760:11761   */\n      dup1\n        /* \"#utility.yul\":11745:11768   */\n      returndatacopy\n      pop\n        /* \"#utility.yul\":11803:11804   */\n      0x00\n        /* \"#utility.yul\":11797:11805   */\n      mload\n        /* \"#utility.yul\":11792:11795   */\n      0xe0\n        /* \"#utility.yul\":11788:11806   */\n      shr\n        /* \"#utility.yul\":11643:11822   */\n      swap1\n      jump\t// out\n        /* \"#utility.yul\":11827:12498   */\n    tag_318:\n        /* \"#utility.yul\":11866:11869   */\n      0x00\n        /* \"#utility.yul\":11908:11912   */\n      0x44\n        /* \"#utility.yul\":11890:11906   */\n      returndatasize\n        /* \"#utility.yul\":11887:11913   */\n      lt\n        /* \"#utility.yul\":11884:11923   */\n      iszero\n      tag_430\n      jumpi\n        /* \"#utility.yul\":11827:12498   */\n      swap1\n      jump\t// out\n        /* \"#utility.yul\":11884:11923   */\n    tag_430:\n        /* \"#utility.yul\":11950:11952   */\n      0x40\n        /* \"#utility.yul\":11944:11953   */\n      mload\n      not(0x03)\n        /* \"#utility.yul\":12015:12031   */\n      returndatasize\n        /* \"#utility.yul\":12011:12036   */\n      dup2\n      add\n        /* \"#utility.yul\":12008:12009   */\n      0x04\n        /* \"#utility.yul\":11944:11953   */\n      dup4\n        /* \"#utility.yul\":11987:12037   */\n      returndatacopy\n        /* \"#utility.yul\":12066:12070   */\n      dup2\n        /* \"#utility.yul\":12060:12071   */\n      mload\n        /* \"#utility.yul\":12090:12106   */\n      returndatasize\n        /* \"#utility.yul\":12125:12143   */\n      0xffffffffffffffff\n        /* \"#utility.yul\":12196:12198   */\n      dup2\n        /* \"#utility.yul\":12189:12193   */\n      0x24\n        /* \"#utility.yul\":12181:12187   */\n      dup5\n        /* \"#utility.yul\":12177:12194   */\n      add\n        /* \"#utility.yul\":12174:12199   */\n      gt\n        /* \"#utility.yul\":12169:12171   */\n      dup2\n        /* \"#utility.yul\":12161:12167   */\n      dup5\n        /* \"#utility.yul\":12158:12172   */\n      gt\n        /* \"#utility.yul\":12155:12200   */\n      or\n        /* \"#utility.yul\":12152:12210   */\n      iszero\n      tag_431\n      jumpi\n        /* \"#utility.yul\":12203:12208   */\n      pop\n      pop\n      pop\n      pop\n      pop\n        /* \"#utility.yul\":11827:12498   */\n      swap1\n      jump\t// out\n        /* \"#utility.yul\":12152:12210   */\n    tag_431:\n        /* \"#utility.yul\":12240:12246   */\n      dup3\n        /* \"#utility.yul\":12234:12238   */\n      dup6\n        /* \"#utility.yul\":12230:12247   */\n      add\n        /* \"#utility.yul\":12219:12247   */\n      swap2\n      pop\n        /* \"#utility.yul\":12276:12279   */\n      dup2\n        /* \"#utility.yul\":12270:12280   */\n      mload\n        /* \"#utility.yul\":12303:12305   */\n      dup2\n        /* \"#utility.yul\":12295:12301   */\n      dup2\n        /* \"#utility.yul\":12292:12306   */\n      gt\n        /* \"#utility.yul\":12289:12316   */\n      iszero\n      tag_432\n      jumpi\n        /* \"#utility.yul\":12309:12314   */\n      pop\n      pop\n      pop\n      pop\n      pop\n      pop\n        /* \"#utility.yul\":11827:12498   */\n      swap1\n      jump\t// out\n        /* \"#utility.yul\":12289:12316   */\n    tag_432:\n        /* \"#utility.yul\":12393:12395   */\n      dup5\n        /* \"#utility.yul\":12374:12390   */\n      returndatasize\n        /* \"#utility.yul\":12368:12372   */\n      dup8\n        /* \"#utility.yul\":12364:12391   */\n      add\n        /* \"#utility.yul\":12360:12396   */\n      add\n        /* \"#utility.yul\":12353:12357   */\n      0x20\n        /* \"#utility.yul\":12344:12350   */\n      dup3\n        /* \"#utility.yul\":12339:12342   */\n      dup6\n        /* \"#utility.yul\":12335:12351   */\n      add\n        /* \"#utility.yul\":12331:12358   */\n      add\n        /* \"#utility.yul\":12328:12397   */\n      gt\n        /* \"#utility.yul\":12325:12407   */\n      iszero\n      tag_433\n      jumpi\n        /* \"#utility.yul\":12400:12405   */\n      pop\n      pop\n      pop\n      pop\n      pop\n      pop\n        /* \"#utility.yul\":11827:12498   */\n      swap1\n      jump\t// out\n        /* \"#utility.yul\":12325:12407   */\n    tag_433:\n        /* \"#utility.yul\":12416:12473   */\n      tag_434\n        /* \"#utility.yul\":12467:12471   */\n      0x20\n        /* \"#utility.yul\":12458:12464   */\n      dup3\n        /* \"#utility.yul\":12450:12456   */\n      dup7\n        /* \"#utility.yul\":12446:12465   */\n      add\n        /* \"#utility.yul\":12442:12472   */\n      add\n        /* \"#utility.yul\":12436:12440   */\n      dup8\n        /* \"#utility.yul\":12416:12473   */\n      tag_414\n      jump\t// in\n    tag_434:\n      pop\n        /* \"#utility.yul\":12489:12492   */\n      swap1\n      swap6\n        /* \"#utility.yul\":11827:12498   */\n      swap5\n      pop\n      pop\n      pop\n      pop\n      pop\n      jump\t// out\n        /* \"#utility.yul\":12503:12634   */\n    tag_350:\n      sub(shl(0xa0, 0x01), 0x01)\n        /* \"#utility.yul\":12578:12609   */\n      dup2\n      and\n        /* \"#utility.yul\":12568:12610   */\n      dup2\n      eq\n        /* \"#utility.yul\":12558:12628   */\n      tag_436\n      jumpi\n        /* \"#utility.yul\":12624:12625   */\n      0x00\n        /* \"#utility.yul\":12621:12622   */\n      dup1\n        /* \"#utility.yul\":12614:12626   */\n      revert\n        /* \"#utility.yul\":12558:12628   */\n    tag_436:\n        /* \"#utility.yul\":12503:12634   */\n      pop\n      jump\t// out\n\n    auxdata: 0xa264697066735822122048e651f02ceaa8d9713c03c46abcb651a9cc5f0e702125d2a68d419486fe5f3a64736f6c63430008070033\n}\n",
				"bytecode": {
					"linkReferences": {},
					"object": "60a06040819052600060808190526200001b9160029162000159565b50604080516102808101825260008152600160208201819052918101919091526002606082018190526080820181905260a0820181905260c0820181905260e08201819052610100820181905261012082018190526101408201819052610160820181905261018082018190526101a082018190526101c082018190526101e08201819052610200820181905261022082018190526102408201819052610260820152620000ce906003906014620001e8565b50600c805460ff19166001179055348015620000e957600080fd5b50604051620019e5380380620019e58339810160408190526200010c916200028f565b80516200012190600d90602084019062000159565b5050600c8054610100600160a81b031916336101000217905560006004819055600160055560078190556008819055600955620003be565b82805462000167906200036b565b90600052602060002090601f0160209004810192826200018b5760008555620001d6565b82601f10620001a657805160ff1916838001178555620001d6565b82800160010185558215620001d6579182015b82811115620001d6578251825591602001919060010190620001b9565b50620001e492915062000278565b5090565b600183019183908215620001d65791602002820160005b838211156200023f57835183826101000a81548160ff021916908360ff1602179055509260200192600101602081600001049283019260010302620001ff565b80156200026e5782816101000a81549060ff02191690556001016020816000010492830192600103026200023f565b5050620001e49291505b5b80821115620001e4576000815560010162000279565b60006020808385031215620002a357600080fd5b82516001600160401b0380821115620002bb57600080fd5b818501915085601f830112620002d057600080fd5b815181811115620002e557620002e5620003a8565b604051601f8201601f19908116603f01168101908382118183101715620003105762000310620003a8565b8160405282815288868487010111156200032957600080fd5b600093505b828410156200034d57848401860151818501870152928501926200032e565b828411156200035f5760008684830101525b98975050505050505050565b600181811c908216806200038057607f821691505b60208210811415620003a257634e487b7160e01b600052602260045260246000fd5b50919050565b634e487b7160e01b600052604160045260246000fd5b61161780620003ce6000396000f3fe6080604052600436106100c25760003560e01c80633d65df701161007f578063aa90c72611610059578063aa90c726146101de578063b4a99a4e146101f3578063eddd0d9c14610230578063fd6c3b1b1461025057600080fd5b80633d65df701461018657806360daa851146101995780637a5caab3146101c957600080fd5b80630390c11c146100c75780630a67d2c7146100ef5780631309a56314610104578063154602591461012e57806332b61b4c146101435780633b66805914610171575b600080fd5b3480156100d357600080fd5b506100dc61027d565b6040519081526020015b60405180910390f35b6101026100fd366004611172565b6102c9565b005b34801561011057600080fd5b50600c5461011e9060ff1681565b60405190151581526020016100e6565b34801561013a57600080fd5b5061010261038a565b34801561014f57600080fd5b5061016361015e366004611172565b610425565b6040516100e692919061139b565b34801561017d57600080fd5b506100dc610655565b610163610194366004611172565b610695565b3480156101a557600080fd5b506101ae61077e565b604080519384526020840192909252908201526060016100e6565b3480156101d557600080fd5b506100dc6107f2565b3480156101ea57600080fd5b50610102610857565b3480156101ff57600080fd5b50600c546102189061010090046001600160a01b031681565b6040516001600160a01b0390911681526020016100e6565b34801561023c57600080fd5b5061010261024b3660046111c0565b6108f1565b34801561025c57600080fd5b5061027061026b366004611172565b610951565b6040516100e691906112d6565b600c5460009061010090046001600160a01b0316336001600160a01b0316146102c15760405162461bcd60e51b81526004016102b89061132d565b60405180910390fd5b506004545b90565b600c5461010090046001600160a01b0316336001600160a01b0316146103015760405162461bcd60e51b81526004016102b89061132d565b478061034f5760405162461bcd60e51b815260206004820152601d60248201527f4572726f7221204e6f2042616c616e636520746f20776974686472617700000060448201526064016102b8565b6040516001600160a01b0383169082156108fc029083906000818181858888f19350505050158015610385573d6000803e3d6000fd5b505050565b600c5461010090046001600160a01b0316336001600160a01b0316146103c25760405162461bcd60e51b81526004016102b89061132d565b600c5460ff1615156001146104195760405162461bcd60e51b815260206004820152601b60248201527f44726f707369746520697320616c72656164792052756e6e696e67000000000060448201526064016102b8565b600c805460ff19169055565b600c5460009060609061010090046001600160a01b0316336001600160a01b0316146104635760405162461bcd60e51b81526004016102b89061132d565b600c5460ff16156104865760405162461bcd60e51b81526004016102b890611364565b6103e8600454106104d55760405162461bcd60e51b815260206004820152601960248201527813585e08135a5b9d1a5b99c8131a5b5a5d081c995858da1959603a1b60448201526064016102b8565b60006104df6109e1565b90506105798482600554600280546104f690611427565b80601f016020809104026020016040519081016040528092919081815260200182805461052290611427565b801561056f5780601f106105445761010080835404028352916020019161056f565b820191906000526020600020905b81548152906001019060200180831161055257829003601f168201915b5050505050610bb2565b600480549060006105898361149d565b90915550506001600160a01b0384166000908152600a60209081526040822080546001810182559083529120018190556002805482919081906105cb90611427565b80601f01602080910402602001604051908101604052809291908181526020018280546105f790611427565b80156106445780601f1061061957610100808354040283529160200191610644565b820191906000526020600020905b81548152906001019060200180831161062757829003601f168201915b505050505090509250925050915091565b600c5460009061010090046001600160a01b0316336001600160a01b0316146106905760405162461bcd60e51b81526004016102b89061132d565b504790565b600c5460009060609060ff16156106be5760405162461bcd60e51b81526004016102b890611364565b6103e86004541061070d5760405162461bcd60e51b815260206004820152601960248201527813585e08135a5b9d1a5b99c8131a5b5a5d081c995858da1959603a1b60448201526064016102b8565b60065434146107535760405162461bcd60e51b81526020600482015260126024820152714e6f7420456e6f7567682042616c616e636560701b60448201526064016102b8565b600061075d6109e1565b90506107748482600554600280546104f690611427565b6105793334610cc3565b600c546000908190819061010090046001600160a01b0316336001600160a01b0316146107bd5760405162461bcd60e51b81526004016102b89061132d565b600c5460ff16156107e05760405162461bcd60e51b81526004016102b890611364565b50506007546008546009549193909250565b600c5460009061010090046001600160a01b0316336001600160a01b03161461082d5760405162461bcd60e51b81526004016102b89061132d565b600c5460ff16156108505760405162461bcd60e51b81526004016102b890611364565b5060065490565b600c5461010090046001600160a01b0316336001600160a01b03161461088f5760405162461bcd60e51b81526004016102b89061132d565b600c5460ff16156108e25760405162461bcd60e51b815260206004820152601b60248201527f44726f707369746520697320616c72656164792053746f70706564000000000060448201526064016102b8565b600c805460ff19166001179055565b600c5461010090046001600160a01b0316336001600160a01b0316146109295760405162461bcd60e51b81526004016102b89061132d565b600c5460ff161561094c5760405162461bcd60e51b81526004016102b890611364565b600655565b600c5460609060ff16156109775760405162461bcd60e51b81526004016102b890611364565b6001600160a01b0382166000908152600a6020908152604091829020805483518184028101840190945280845290918301828280156109d557602002820191906000526020600020905b8154815260200190600101908083116109c1575b50505050509050919050565b600c5460009060ff1615610a075760405162461bcd60e51b81526004016102b890611364565b6000610a11610cf4565b9050600060038260148110610a2857610a286114f8565b602081049091015460ff601f9092166101000a900416905080158015610a5057506032600754105b15610ab35760078054906000610a658361149d565b9190505550610a75600754610d50565b604051602001610a859190611205565b60405160208183030381529060405260029080519060200190610aa992919061105e565b5091506102c69050565b60018111158015610ac657506064600854105b15610afb5760088054906000610adb8361149d565b9190505550610aeb600854610d50565b604051602001610a859190611235565b60028111158015610b10575061035260095411155b15610b825760098054906000610b258361149d565b9190505550610b35600954610d50565b604051602001610b459190611262565b60405160208183030381529060405260029080519060200190610b6992919061105e565b6002908054610b7790611427565b610aa99291906110e2565b60646008541015610ba05750600880546001916000610adb8361149d565b506007805460009182610a658361149d565b6001600160a01b038416610c125760405162461bcd60e51b815260206004820152602160248201527f455243313135353a206d696e7420746f20746865207a65726f206164647265736044820152607360f81b60648201526084016102b8565b33610c3381600087610c2388610e56565b610c2c88610e56565b5050505050565b6000848152602081815260408083206001600160a01b038916845290915281208054859290610c639084906113b4565b909155505060408051858152602081018590526001600160a01b0380881692600092918516917fc3d58168c5ae7397731d063d5bbf3d657854427343f4c083240f7aacaa2d0f62910160405180910390a4610c2c81600087878787610ea9565b6001600160a01b0382166000908152600b602052604081208054839290610ceb9084906113b4565b90915550505050565b60008060144233604051602001610d2792919091825260601b6bffffffffffffffffffffffff1916602082015260340190565b6040516020818303038152906040528051906020012060001c610d4a91906114b8565b92915050565b606081610d745750506040805180820190915260018152600360fc1b602082015290565b8160005b8115610d9e5780610d888161149d565b9150610d979050600a836113cc565b9150610d78565b60008167ffffffffffffffff811115610db957610db961150e565b6040519080825280601f01601f191660200182016040528015610de3576020820181803683370190505b5090505b8415610e4e57610df86001836113e0565b9150610e05600a866114b8565b610e109060306113b4565b60f81b818381518110610e2557610e256114f8565b60200101906001600160f81b031916908160001a905350610e47600a866113cc565b9450610de7565b949350505050565b60408051600180825281830190925260609160009190602080830190803683370190505090508281600081518110610e9057610e906114f8565b602090810291909101015292915050565b505050505050565b6001600160a01b0384163b15610ea1576040516315d1344960e31b81526001600160a01b0385169063ae89a24890610eed9089908990889088908890600401611291565b602060405180830381600087803b158015610f0757600080fd5b505af1925050508015610f37575060408051601f3d908101601f19168201909252610f3491810190611196565b60015b610fe457610f43611524565b806308c379a01415610f7d5750610f5861153f565b80610f635750610f7f565b8060405162461bcd60e51b81526004016102b8919061131a565b505b60405162461bcd60e51b815260206004820152603460248201527f455243313135353a207472616e7366657220746f206e6f6e20455243313135356044820152732932b1b2b4bb32b91034b6b83632b6b2b73a32b960611b60648201526084016102b8565b6001600160e01b031981166315d1344960e31b146110555760405162461bcd60e51b815260206004820152602860248201527f455243313135353a204552433131353552656365697665722072656a656374656044820152676420746f6b656e7360c01b60648201526084016102b8565b50505050505050565b82805461106a90611427565b90600052602060002090601f01602090048101928261108c57600085556110d2565b82601f106110a557805160ff19168380011785556110d2565b828001600101855582156110d2579182015b828111156110d25782518255916020019190600101906110b7565b506110de92915061115d565b5090565b8280546110ee90611427565b90600052602060002090601f01602090048101928261111057600085556110d2565b82601f1061112157805485556110d2565b828001600101855582156110d257600052602060002091601f016020900482015b828111156110d2578254825591600101919060010190611142565b5b808211156110de576000815560010161115e565b60006020828403121561118457600080fd5b813561118f816115c9565b9392505050565b6000602082840312156111a857600080fd5b81516001600160e01b03198116811461118f57600080fd5b6000602082840312156111d257600080fd5b5035919050565b600081518084526111f18160208601602086016113f7565b601f01601f19169290920160200192915050565b674469616d6f6e645f60c01b8152600082516112288160088501602087016113f7565b9190910160080192915050565b64476f6c645f60d81b8152600082516112558160058501602087016113f7565b9190910160050192915050565b6653696c7665725f60c81b8152600082516112848160078501602087016113f7565b9190910160070192915050565b6001600160a01b03868116825285166020820152604081018490526060810183905260a0608082018190526000906112cb908301846111d9565b979650505050505050565b6020808252825182820181905260009190848201906040850190845b8181101561130e578351835292840192918401916001016112f2565b50909695505050505050565b60208152600061118f60208301846111d9565b6020808252601c908201527f4f6e6c79204e46542d4553204f776e65722063616e2041636365737300000000604082015260600190565b6020808252601b908201527f44726f7073697465206973206e6f74204f70656e6564205965742e0000000000604082015260600190565b828152604060208201526000610e4e60408301846111d9565b600082198211156113c7576113c76114cc565b500190565b6000826113db576113db6114e2565b500490565b6000828210156113f2576113f26114cc565b500390565b60005b838110156114125781810151838201526020016113fa565b83811115611421576000848401525b50505050565b600181811c9082168061143b57607f821691505b6020821081141561145c57634e487b7160e01b600052602260045260246000fd5b50919050565b601f8201601f1916810167ffffffffffffffff8111828210171561149657634e487b7160e01b600052604160045260246000fd5b6040525050565b60006000198214156114b1576114b16114cc565b5060010190565b6000826114c7576114c76114e2565b500690565b634e487b7160e01b600052601160045260246000fd5b634e487b7160e01b600052601260045260246000fd5b634e487b7160e01b600052603260045260246000fd5b634e487b7160e01b600052604160045260246000fd5b600060033d11156102c65760046000803e5060005160e01c90565b600060443d101561154d5790565b6040516003193d81016004833e81513d67ffffffffffffffff816024840111818411171561157d57505050505090565b82850191508151818111156115955750505050505090565b843d87010160208285010111156115af5750505050505090565b6115be60208286010187611462565b509095945050505050565b6001600160a01b03811681146115de57600080fd5b5056fea264697066735822122048e651f02ceaa8d9713c03c46abcb651a9cc5f0e702125d2a68d419486fe5f3a64736f6c63430008070033",
					"opcodes": "PUSH1 0xA0 PUSH1 0x40 DUP2 SWAP1 MSTORE PUSH1 0x0 PUSH1 0x80 DUP2 SWAP1 MSTORE PUSH3 0x1B SWAP2 PUSH1 0x2 SWAP2 PUSH3 0x159 JUMP JUMPDEST POP PUSH1 0x40 DUP1 MLOAD PUSH2 0x280 DUP2 ADD DUP3 MSTORE PUSH1 0x0 DUP2 MSTORE PUSH1 0x1 PUSH1 0x20 DUP3 ADD DUP2 SWAP1 MSTORE SWAP2 DUP2 ADD SWAP2 SWAP1 SWAP2 MSTORE PUSH1 0x2 PUSH1 0x60 DUP3 ADD DUP2 SWAP1 MSTORE PUSH1 0x80 DUP3 ADD DUP2 SWAP1 MSTORE PUSH1 0xA0 DUP3 ADD DUP2 SWAP1 MSTORE PUSH1 0xC0 DUP3 ADD DUP2 SWAP1 MSTORE PUSH1 0xE0 DUP3 ADD DUP2 SWAP1 MSTORE PUSH2 0x100 DUP3 ADD DUP2 SWAP1 MSTORE PUSH2 0x120 DUP3 ADD DUP2 SWAP1 MSTORE PUSH2 0x140 DUP3 ADD DUP2 SWAP1 MSTORE PUSH2 0x160 DUP3 ADD DUP2 SWAP1 MSTORE PUSH2 0x180 DUP3 ADD DUP2 SWAP1 MSTORE PUSH2 0x1A0 DUP3 ADD DUP2 SWAP1 MSTORE PUSH2 0x1C0 DUP3 ADD DUP2 SWAP1 MSTORE PUSH2 0x1E0 DUP3 ADD DUP2 SWAP1 MSTORE PUSH2 0x200 DUP3 ADD DUP2 SWAP1 MSTORE PUSH2 0x220 DUP3 ADD DUP2 SWAP1 MSTORE PUSH2 0x240 DUP3 ADD DUP2 SWAP1 MSTORE PUSH2 0x260 DUP3 ADD MSTORE PUSH3 0xCE SWAP1 PUSH1 0x3 SWAP1 PUSH1 0x14 PUSH3 0x1E8 JUMP JUMPDEST POP PUSH1 0xC DUP1 SLOAD PUSH1 0xFF NOT AND PUSH1 0x1 OR SWAP1 SSTORE CALLVALUE DUP1 ISZERO PUSH3 0xE9 JUMPI PUSH1 0x0 DUP1 REVERT JUMPDEST POP PUSH1 0x40 MLOAD PUSH3 0x19E5 CODESIZE SUB DUP1 PUSH3 0x19E5 DUP4 CODECOPY DUP2 ADD PUSH1 0x40 DUP2 SWAP1 MSTORE PUSH3 0x10C SWAP2 PUSH3 0x28F JUMP JUMPDEST DUP1 MLOAD PUSH3 0x121 SWAP1 PUSH1 0xD SWAP1 PUSH1 0x20 DUP5 ADD SWAP1 PUSH3 0x159 JUMP JUMPDEST POP POP PUSH1 0xC DUP1 SLOAD PUSH2 0x100 PUSH1 0x1 PUSH1 0xA8 SHL SUB NOT AND CALLER PUSH2 0x100 MUL OR SWAP1 SSTORE PUSH1 0x0 PUSH1 0x4 DUP2 SWAP1 SSTORE PUSH1 0x1 PUSH1 0x5 SSTORE PUSH1 0x7 DUP2 SWAP1 SSTORE PUSH1 0x8 DUP2 SWAP1 SSTORE PUSH1 0x9 SSTORE PUSH3 0x3BE JUMP JUMPDEST DUP3 DUP1 SLOAD PUSH3 0x167 SWAP1 PUSH3 0x36B JUMP JUMPDEST SWAP1 PUSH1 0x0 MSTORE PUSH1 0x20 PUSH1 0x0 KECCAK256 SWAP1 PUSH1 0x1F ADD PUSH1 0x20 SWAP1 DIV DUP2 ADD SWAP3 DUP3 PUSH3 0x18B JUMPI PUSH1 0x0 DUP6 SSTORE PUSH3 0x1D6 JUMP JUMPDEST DUP3 PUSH1 0x1F LT PUSH3 0x1A6 JUMPI DUP1 MLOAD PUSH1 0xFF NOT AND DUP4 DUP1 ADD OR DUP6 SSTORE PUSH3 0x1D6 JUMP JUMPDEST DUP3 DUP1 ADD PUSH1 0x1 ADD DUP6 SSTORE DUP3 ISZERO PUSH3 0x1D6 JUMPI SWAP2 DUP3 ADD JUMPDEST DUP3 DUP2 GT ISZERO PUSH3 0x1D6 JUMPI DUP3 MLOAD DUP3 SSTORE SWAP2 PUSH1 0x20 ADD SWAP2 SWAP1 PUSH1 0x1 ADD SWAP1 PUSH3 0x1B9 JUMP JUMPDEST POP PUSH3 0x1E4 SWAP3 SWAP2 POP PUSH3 0x278 JUMP JUMPDEST POP SWAP1 JUMP JUMPDEST PUSH1 0x1 DUP4 ADD SWAP2 DUP4 SWAP1 DUP3 ISZERO PUSH3 0x1D6 JUMPI SWAP2 PUSH1 0x20 MUL DUP3 ADD PUSH1 0x0 JUMPDEST DUP4 DUP3 GT ISZERO PUSH3 0x23F JUMPI DUP4 MLOAD DUP4 DUP3 PUSH2 0x100 EXP DUP2 SLOAD DUP2 PUSH1 0xFF MUL NOT AND SWAP1 DUP4 PUSH1 0xFF AND MUL OR SWAP1 SSTORE POP SWAP3 PUSH1 0x20 ADD SWAP3 PUSH1 0x1 ADD PUSH1 0x20 DUP2 PUSH1 0x0 ADD DIV SWAP3 DUP4 ADD SWAP3 PUSH1 0x1 SUB MUL PUSH3 0x1FF JUMP JUMPDEST DUP1 ISZERO PUSH3 0x26E JUMPI DUP3 DUP2 PUSH2 0x100 EXP DUP2 SLOAD SWAP1 PUSH1 0xFF MUL NOT AND SWAP1 SSTORE PUSH1 0x1 ADD PUSH1 0x20 DUP2 PUSH1 0x0 ADD DIV SWAP3 DUP4 ADD SWAP3 PUSH1 0x1 SUB MUL PUSH3 0x23F JUMP JUMPDEST POP POP PUSH3 0x1E4 SWAP3 SWAP2 POP JUMPDEST JUMPDEST DUP1 DUP3 GT ISZERO PUSH3 0x1E4 JUMPI PUSH1 0x0 DUP2 SSTORE PUSH1 0x1 ADD PUSH3 0x279 JUMP JUMPDEST PUSH1 0x0 PUSH1 0x20 DUP1 DUP4 DUP6 SUB SLT ISZERO PUSH3 0x2A3 JUMPI PUSH1 0x0 DUP1 REVERT JUMPDEST DUP3 MLOAD PUSH1 0x1 PUSH1 0x1 PUSH1 0x40 SHL SUB DUP1 DUP3 GT ISZERO PUSH3 0x2BB JUMPI PUSH1 0x0 DUP1 REVERT JUMPDEST DUP2 DUP6 ADD SWAP2 POP DUP6 PUSH1 0x1F DUP4 ADD SLT PUSH3 0x2D0 JUMPI PUSH1 0x0 DUP1 REVERT JUMPDEST DUP2 MLOAD DUP2 DUP2 GT ISZERO PUSH3 0x2E5 JUMPI PUSH3 0x2E5 PUSH3 0x3A8 JUMP JUMPDEST PUSH1 0x40 MLOAD PUSH1 0x1F DUP3 ADD PUSH1 0x1F NOT SWAP1 DUP2 AND PUSH1 0x3F ADD AND DUP2 ADD SWAP1 DUP4 DUP3 GT DUP2 DUP4 LT OR ISZERO PUSH3 0x310 JUMPI PUSH3 0x310 PUSH3 0x3A8 JUMP JUMPDEST DUP2 PUSH1 0x40 MSTORE DUP3 DUP2 MSTORE DUP9 DUP7 DUP5 DUP8 ADD ADD GT ISZERO PUSH3 0x329 JUMPI PUSH1 0x0 DUP1 REVERT JUMPDEST PUSH1 0x0 SWAP4 POP JUMPDEST DUP3 DUP5 LT ISZERO PUSH3 0x34D JUMPI DUP5 DUP5 ADD DUP7 ADD MLOAD DUP2 DUP6 ADD DUP8 ADD MSTORE SWAP3 DUP6 ADD SWAP3 PUSH3 0x32E JUMP JUMPDEST DUP3 DUP5 GT ISZERO PUSH3 0x35F JUMPI PUSH1 0x0 DUP7 DUP5 DUP4 ADD ADD MSTORE JUMPDEST SWAP9 SWAP8 POP POP POP POP POP POP POP POP JUMP JUMPDEST PUSH1 0x1 DUP2 DUP2 SHR SWAP1 DUP3 AND DUP1 PUSH3 0x380 JUMPI PUSH1 0x7F DUP3 AND SWAP2 POP JUMPDEST PUSH1 0x20 DUP3 LT DUP2 EQ ISZERO PUSH3 0x3A2 JUMPI PUSH4 0x4E487B71 PUSH1 0xE0 SHL PUSH1 0x0 MSTORE PUSH1 0x22 PUSH1 0x4 MSTORE PUSH1 0x24 PUSH1 0x0 REVERT JUMPDEST POP SWAP2 SWAP1 POP JUMP JUMPDEST PUSH4 0x4E487B71 PUSH1 0xE0 SHL PUSH1 0x0 MSTORE PUSH1 0x41 PUSH1 0x4 MSTORE PUSH1 0x24 PUSH1 0x0 REVERT JUMPDEST PUSH2 0x1617 DUP1 PUSH3 0x3CE PUSH1 0x0 CODECOPY PUSH1 0x0 RETURN INVALID PUSH1 0x80 PUSH1 0x40 MSTORE PUSH1 0x4 CALLDATASIZE LT PUSH2 0xC2 JUMPI PUSH1 0x0 CALLDATALOAD PUSH1 0xE0 SHR DUP1 PUSH4 0x3D65DF70 GT PUSH2 0x7F JUMPI DUP1 PUSH4 0xAA90C726 GT PUSH2 0x59 JUMPI DUP1 PUSH4 0xAA90C726 EQ PUSH2 0x1DE JUMPI DUP1 PUSH4 0xB4A99A4E EQ PUSH2 0x1F3 JUMPI DUP1 PUSH4 0xEDDD0D9C EQ PUSH2 0x230 JUMPI DUP1 PUSH4 0xFD6C3B1B EQ PUSH2 0x250 JUMPI PUSH1 0x0 DUP1 REVERT JUMPDEST DUP1 PUSH4 0x3D65DF70 EQ PUSH2 0x186 JUMPI DUP1 PUSH4 0x60DAA851 EQ PUSH2 0x199 JUMPI DUP1 PUSH4 0x7A5CAAB3 EQ PUSH2 0x1C9 JUMPI PUSH1 0x0 DUP1 REVERT JUMPDEST DUP1 PUSH4 0x390C11C EQ PUSH2 0xC7 JUMPI DUP1 PUSH4 0xA67D2C7 EQ PUSH2 0xEF JUMPI DUP1 PUSH4 0x1309A563 EQ PUSH2 0x104 JUMPI DUP1 PUSH4 0x15460259 EQ PUSH2 0x12E JUMPI DUP1 PUSH4 0x32B61B4C EQ PUSH2 0x143 JUMPI DUP1 PUSH4 0x3B668059 EQ PUSH2 0x171 JUMPI JUMPDEST PUSH1 0x0 DUP1 REVERT JUMPDEST CALLVALUE DUP1 ISZERO PUSH2 0xD3 JUMPI PUSH1 0x0 DUP1 REVERT JUMPDEST POP PUSH2 0xDC PUSH2 0x27D JUMP JUMPDEST PUSH1 0x40 MLOAD SWAP1 DUP2 MSTORE PUSH1 0x20 ADD JUMPDEST PUSH1 0x40 MLOAD DUP1 SWAP2 SUB SWAP1 RETURN JUMPDEST PUSH2 0x102 PUSH2 0xFD CALLDATASIZE PUSH1 0x4 PUSH2 0x1172 JUMP JUMPDEST PUSH2 0x2C9 JUMP JUMPDEST STOP JUMPDEST CALLVALUE DUP1 ISZERO PUSH2 0x110 JUMPI PUSH1 0x0 DUP1 REVERT JUMPDEST POP PUSH1 0xC SLOAD PUSH2 0x11E SWAP1 PUSH1 0xFF AND DUP2 JUMP JUMPDEST PUSH1 0x40 MLOAD SWAP1 ISZERO ISZERO DUP2 MSTORE PUSH1 0x20 ADD PUSH2 0xE6 JUMP JUMPDEST CALLVALUE DUP1 ISZERO PUSH2 0x13A JUMPI PUSH1 0x0 DUP1 REVERT JUMPDEST POP PUSH2 0x102 PUSH2 0x38A JUMP JUMPDEST CALLVALUE DUP1 ISZERO PUSH2 0x14F JUMPI PUSH1 0x0 DUP1 REVERT JUMPDEST POP PUSH2 0x163 PUSH2 0x15E CALLDATASIZE PUSH1 0x4 PUSH2 0x1172 JUMP JUMPDEST PUSH2 0x425 JUMP JUMPDEST PUSH1 0x40 MLOAD PUSH2 0xE6 SWAP3 SWAP2 SWAP1 PUSH2 0x139B JUMP JUMPDEST CALLVALUE DUP1 ISZERO PUSH2 0x17D JUMPI PUSH1 0x0 DUP1 REVERT JUMPDEST POP PUSH2 0xDC PUSH2 0x655 JUMP JUMPDEST PUSH2 0x163 PUSH2 0x194 CALLDATASIZE PUSH1 0x4 PUSH2 0x1172 JUMP JUMPDEST PUSH2 0x695 JUMP JUMPDEST CALLVALUE DUP1 ISZERO PUSH2 0x1A5 JUMPI PUSH1 0x0 DUP1 REVERT JUMPDEST POP PUSH2 0x1AE PUSH2 0x77E JUMP JUMPDEST PUSH1 0x40 DUP1 MLOAD SWAP4 DUP5 MSTORE PUSH1 0x20 DUP5 ADD SWAP3 SWAP1 SWAP3 MSTORE SWAP1 DUP3 ADD MSTORE PUSH1 0x60 ADD PUSH2 0xE6 JUMP JUMPDEST CALLVALUE DUP1 ISZERO PUSH2 0x1D5 JUMPI PUSH1 0x0 DUP1 REVERT JUMPDEST POP PUSH2 0xDC PUSH2 0x7F2 JUMP JUMPDEST CALLVALUE DUP1 ISZERO PUSH2 0x1EA JUMPI PUSH1 0x0 DUP1 REVERT JUMPDEST POP PUSH2 0x102 PUSH2 0x857 JUMP JUMPDEST CALLVALUE DUP1 ISZERO PUSH2 0x1FF JUMPI PUSH1 0x0 DUP1 REVERT JUMPDEST POP PUSH1 0xC SLOAD PUSH2 0x218 SWAP1 PUSH2 0x100 SWAP1 DIV PUSH1 0x1 PUSH1 0x1 PUSH1 0xA0 SHL SUB AND DUP2 JUMP JUMPDEST PUSH1 0x40 MLOAD PUSH1 0x1 PUSH1 0x1 PUSH1 0xA0 SHL SUB SWAP1 SWAP2 AND DUP2 MSTORE PUSH1 0x20 ADD PUSH2 0xE6 JUMP JUMPDEST CALLVALUE DUP1 ISZERO PUSH2 0x23C JUMPI PUSH1 0x0 DUP1 REVERT JUMPDEST POP PUSH2 0x102 PUSH2 0x24B CALLDATASIZE PUSH1 0x4 PUSH2 0x11C0 JUMP JUMPDEST PUSH2 0x8F1 JUMP JUMPDEST CALLVALUE DUP1 ISZERO PUSH2 0x25C JUMPI PUSH1 0x0 DUP1 REVERT JUMPDEST POP PUSH2 0x270 PUSH2 0x26B CALLDATASIZE PUSH1 0x4 PUSH2 0x1172 JUMP JUMPDEST PUSH2 0x951 JUMP JUMPDEST PUSH1 0x40 MLOAD PUSH2 0xE6 SWAP2 SWAP1 PUSH2 0x12D6 JUMP JUMPDEST PUSH1 0xC SLOAD PUSH1 0x0 SWAP1 PUSH2 0x100 SWAP1 DIV PUSH1 0x1 PUSH1 0x1 PUSH1 0xA0 SHL SUB AND CALLER PUSH1 0x1 PUSH1 0x1 PUSH1 0xA0 SHL SUB AND EQ PUSH2 0x2C1 JUMPI PUSH1 0x40 MLOAD PUSH3 0x461BCD PUSH1 0xE5 SHL DUP2 MSTORE PUSH1 0x4 ADD PUSH2 0x2B8 SWAP1 PUSH2 0x132D JUMP JUMPDEST PUSH1 0x40 MLOAD DUP1 SWAP2 SUB SWAP1 REVERT JUMPDEST POP PUSH1 0x4 SLOAD JUMPDEST SWAP1 JUMP JUMPDEST PUSH1 0xC SLOAD PUSH2 0x100 SWAP1 DIV PUSH1 0x1 PUSH1 0x1 PUSH1 0xA0 SHL SUB AND CALLER PUSH1 0x1 PUSH1 0x1 PUSH1 0xA0 SHL SUB AND EQ PUSH2 0x301 JUMPI PUSH1 0x40 MLOAD PUSH3 0x461BCD PUSH1 0xE5 SHL DUP2 MSTORE PUSH1 0x4 ADD PUSH2 0x2B8 SWAP1 PUSH2 0x132D JUMP JUMPDEST SELFBALANCE DUP1 PUSH2 0x34F JUMPI PUSH1 0x40 MLOAD PUSH3 0x461BCD PUSH1 0xE5 SHL DUP2 MSTORE PUSH1 0x20 PUSH1 0x4 DUP3 ADD MSTORE PUSH1 0x1D PUSH1 0x24 DUP3 ADD MSTORE PUSH32 0x4572726F7221204E6F2042616C616E636520746F207769746864726177000000 PUSH1 0x44 DUP3 ADD MSTORE PUSH1 0x64 ADD PUSH2 0x2B8 JUMP JUMPDEST PUSH1 0x40 MLOAD PUSH1 0x1 PUSH1 0x1 PUSH1 0xA0 SHL SUB DUP4 AND SWAP1 DUP3 ISZERO PUSH2 0x8FC MUL SWAP1 DUP4 SWAP1 PUSH1 0x0 DUP2 DUP2 DUP2 DUP6 DUP9 DUP9 CALL SWAP4 POP POP POP POP ISZERO DUP1 ISZERO PUSH2 0x385 JUMPI RETURNDATASIZE PUSH1 0x0 DUP1 RETURNDATACOPY RETURNDATASIZE PUSH1 0x0 REVERT JUMPDEST POP POP POP JUMP JUMPDEST PUSH1 0xC SLOAD PUSH2 0x100 SWAP1 DIV PUSH1 0x1 PUSH1 0x1 PUSH1 0xA0 SHL SUB AND CALLER PUSH1 0x1 PUSH1 0x1 PUSH1 0xA0 SHL SUB AND EQ PUSH2 0x3C2 JUMPI PUSH1 0x40 MLOAD PUSH3 0x461BCD PUSH1 0xE5 SHL DUP2 MSTORE PUSH1 0x4 ADD PUSH2 0x2B8 SWAP1 PUSH2 0x132D JUMP JUMPDEST PUSH1 0xC SLOAD PUSH1 0xFF AND ISZERO ISZERO PUSH1 0x1 EQ PUSH2 0x419 JUMPI PUSH1 0x40 MLOAD PUSH3 0x461BCD PUSH1 0xE5 SHL DUP2 MSTORE PUSH1 0x20 PUSH1 0x4 DUP3 ADD MSTORE PUSH1 0x1B PUSH1 0x24 DUP3 ADD MSTORE PUSH32 0x44726F707369746520697320616C72656164792052756E6E696E670000000000 PUSH1 0x44 DUP3 ADD MSTORE PUSH1 0x64 ADD PUSH2 0x2B8 JUMP JUMPDEST PUSH1 0xC DUP1 SLOAD PUSH1 0xFF NOT AND SWAP1 SSTORE JUMP JUMPDEST PUSH1 0xC SLOAD PUSH1 0x0 SWAP1 PUSH1 0x60 SWAP1 PUSH2 0x100 SWAP1 DIV PUSH1 0x1 PUSH1 0x1 PUSH1 0xA0 SHL SUB AND CALLER PUSH1 0x1 PUSH1 0x1 PUSH1 0xA0 SHL SUB AND EQ PUSH2 0x463 JUMPI PUSH1 0x40 MLOAD PUSH3 0x461BCD PUSH1 0xE5 SHL DUP2 MSTORE PUSH1 0x4 ADD PUSH2 0x2B8 SWAP1 PUSH2 0x132D JUMP JUMPDEST PUSH1 0xC SLOAD PUSH1 0xFF AND ISZERO PUSH2 0x486 JUMPI PUSH1 0x40 MLOAD PUSH3 0x461BCD PUSH1 0xE5 SHL DUP2 MSTORE PUSH1 0x4 ADD PUSH2 0x2B8 SWAP1 PUSH2 0x1364 JUMP JUMPDEST PUSH2 0x3E8 PUSH1 0x4 SLOAD LT PUSH2 0x4D5 JUMPI PUSH1 0x40 MLOAD PUSH3 0x461BCD PUSH1 0xE5 SHL DUP2 MSTORE PUSH1 0x20 PUSH1 0x4 DUP3 ADD MSTORE PUSH1 0x19 PUSH1 0x24 DUP3 ADD MSTORE PUSH25 0x13585E08135A5B9D1A5B99C8131A5B5A5D081C995858DA1959 PUSH1 0x3A SHL PUSH1 0x44 DUP3 ADD MSTORE PUSH1 0x64 ADD PUSH2 0x2B8 JUMP JUMPDEST PUSH1 0x0 PUSH2 0x4DF PUSH2 0x9E1 JUMP JUMPDEST SWAP1 POP PUSH2 0x579 DUP5 DUP3 PUSH1 0x5 SLOAD PUSH1 0x2 DUP1 SLOAD PUSH2 0x4F6 SWAP1 PUSH2 0x1427 JUMP JUMPDEST DUP1 PUSH1 0x1F ADD PUSH1 0x20 DUP1 SWAP2 DIV MUL PUSH1 0x20 ADD PUSH1 0x40 MLOAD SWAP1 DUP2 ADD PUSH1 0x40 MSTORE DUP1 SWAP3 SWAP2 SWAP1 DUP2 DUP2 MSTORE PUSH1 0x20 ADD DUP3 DUP1 SLOAD PUSH2 0x522 SWAP1 PUSH2 0x1427 JUMP JUMPDEST DUP1 ISZERO PUSH2 0x56F JUMPI DUP1 PUSH1 0x1F LT PUSH2 0x544 JUMPI PUSH2 0x100 DUP1 DUP4 SLOAD DIV MUL DUP4 MSTORE SWAP2 PUSH1 0x20 ADD SWAP2 PUSH2 0x56F JUMP JUMPDEST DUP3 ADD SWAP2 SWAP1 PUSH1 0x0 MSTORE PUSH1 0x20 PUSH1 0x0 KECCAK256 SWAP1 JUMPDEST DUP2 SLOAD DUP2 MSTORE SWAP1 PUSH1 0x1 ADD SWAP1 PUSH1 0x20 ADD DUP1 DUP4 GT PUSH2 0x552 JUMPI DUP3 SWAP1 SUB PUSH1 0x1F AND DUP3 ADD SWAP2 JUMPDEST POP POP POP POP POP PUSH2 0xBB2 JUMP JUMPDEST PUSH1 0x4 DUP1 SLOAD SWAP1 PUSH1 0x0 PUSH2 0x589 DUP4 PUSH2 0x149D JUMP JUMPDEST SWAP1 SWAP2 SSTORE POP POP PUSH1 0x1 PUSH1 0x1 PUSH1 0xA0 SHL SUB DUP5 AND PUSH1 0x0 SWAP1 DUP2 MSTORE PUSH1 0xA PUSH1 0x20 SWAP1 DUP2 MSTORE PUSH1 0x40 DUP3 KECCAK256 DUP1 SLOAD PUSH1 0x1 DUP2 ADD DUP3 SSTORE SWAP1 DUP4 MSTORE SWAP2 KECCAK256 ADD DUP2 SWAP1 SSTORE PUSH1 0x2 DUP1 SLOAD DUP3 SWAP2 SWAP1 DUP2 SWAP1 PUSH2 0x5CB SWAP1 PUSH2 0x1427 JUMP JUMPDEST DUP1 PUSH1 0x1F ADD PUSH1 0x20 DUP1 SWAP2 DIV MUL PUSH1 0x20 ADD PUSH1 0x40 MLOAD SWAP1 DUP2 ADD PUSH1 0x40 MSTORE DUP1 SWAP3 SWAP2 SWAP1 DUP2 DUP2 MSTORE PUSH1 0x20 ADD DUP3 DUP1 SLOAD PUSH2 0x5F7 SWAP1 PUSH2 0x1427 JUMP JUMPDEST DUP1 ISZERO PUSH2 0x644 JUMPI DUP1 PUSH1 0x1F LT PUSH2 0x619 JUMPI PUSH2 0x100 DUP1 DUP4 SLOAD DIV MUL DUP4 MSTORE SWAP2 PUSH1 0x20 ADD SWAP2 PUSH2 0x644 JUMP JUMPDEST DUP3 ADD SWAP2 SWAP1 PUSH1 0x0 MSTORE PUSH1 0x20 PUSH1 0x0 KECCAK256 SWAP1 JUMPDEST DUP2 SLOAD DUP2 MSTORE SWAP1 PUSH1 0x1 ADD SWAP1 PUSH1 0x20 ADD DUP1 DUP4 GT PUSH2 0x627 JUMPI DUP3 SWAP1 SUB PUSH1 0x1F AND DUP3 ADD SWAP2 JUMPDEST POP POP POP POP POP SWAP1 POP SWAP3 POP SWAP3 POP POP SWAP2 POP SWAP2 JUMP JUMPDEST PUSH1 0xC SLOAD PUSH1 0x0 SWAP1 PUSH2 0x100 SWAP1 DIV PUSH1 0x1 PUSH1 0x1 PUSH1 0xA0 SHL SUB AND CALLER PUSH1 0x1 PUSH1 0x1 PUSH1 0xA0 SHL SUB AND EQ PUSH2 0x690 JUMPI PUSH1 0x40 MLOAD PUSH3 0x461BCD PUSH1 0xE5 SHL DUP2 MSTORE PUSH1 0x4 ADD PUSH2 0x2B8 SWAP1 PUSH2 0x132D JUMP JUMPDEST POP SELFBALANCE SWAP1 JUMP JUMPDEST PUSH1 0xC SLOAD PUSH1 0x0 SWAP1 PUSH1 0x60 SWAP1 PUSH1 0xFF AND ISZERO PUSH2 0x6BE JUMPI PUSH1 0x40 MLOAD PUSH3 0x461BCD PUSH1 0xE5 SHL DUP2 MSTORE PUSH1 0x4 ADD PUSH2 0x2B8 SWAP1 PUSH2 0x1364 JUMP JUMPDEST PUSH2 0x3E8 PUSH1 0x4 SLOAD LT PUSH2 0x70D JUMPI PUSH1 0x40 MLOAD PUSH3 0x461BCD PUSH1 0xE5 SHL DUP2 MSTORE PUSH1 0x20 PUSH1 0x4 DUP3 ADD MSTORE PUSH1 0x19 PUSH1 0x24 DUP3 ADD MSTORE PUSH25 0x13585E08135A5B9D1A5B99C8131A5B5A5D081C995858DA1959 PUSH1 0x3A SHL PUSH1 0x44 DUP3 ADD MSTORE PUSH1 0x64 ADD PUSH2 0x2B8 JUMP JUMPDEST PUSH1 0x6 SLOAD CALLVALUE EQ PUSH2 0x753 JUMPI PUSH1 0x40 MLOAD PUSH3 0x461BCD PUSH1 0xE5 SHL DUP2 MSTORE PUSH1 0x20 PUSH1 0x4 DUP3 ADD MSTORE PUSH1 0x12 PUSH1 0x24 DUP3 ADD MSTORE PUSH18 0x4E6F7420456E6F7567682042616C616E6365 PUSH1 0x70 SHL PUSH1 0x44 DUP3 ADD MSTORE PUSH1 0x64 ADD PUSH2 0x2B8 JUMP JUMPDEST PUSH1 0x0 PUSH2 0x75D PUSH2 0x9E1 JUMP JUMPDEST SWAP1 POP PUSH2 0x774 DUP5 DUP3 PUSH1 0x5 SLOAD PUSH1 0x2 DUP1 SLOAD PUSH2 0x4F6 SWAP1 PUSH2 0x1427 JUMP JUMPDEST PUSH2 0x579 CALLER CALLVALUE PUSH2 0xCC3 JUMP JUMPDEST PUSH1 0xC SLOAD PUSH1 0x0 SWAP1 DUP2 SWAP1 DUP2 SWAP1 PUSH2 0x100 SWAP1 DIV PUSH1 0x1 PUSH1 0x1 PUSH1 0xA0 SHL SUB AND CALLER PUSH1 0x1 PUSH1 0x1 PUSH1 0xA0 SHL SUB AND EQ PUSH2 0x7BD JUMPI PUSH1 0x40 MLOAD PUSH3 0x461BCD PUSH1 0xE5 SHL DUP2 MSTORE PUSH1 0x4 ADD PUSH2 0x2B8 SWAP1 PUSH2 0x132D JUMP JUMPDEST PUSH1 0xC SLOAD PUSH1 0xFF AND ISZERO PUSH2 0x7E0 JUMPI PUSH1 0x40 MLOAD PUSH3 0x461BCD PUSH1 0xE5 SHL DUP2 MSTORE PUSH1 0x4 ADD PUSH2 0x2B8 SWAP1 PUSH2 0x1364 JUMP JUMPDEST POP POP PUSH1 0x7 SLOAD PUSH1 0x8 SLOAD PUSH1 0x9 SLOAD SWAP2 SWAP4 SWAP1 SWAP3 POP JUMP JUMPDEST PUSH1 0xC SLOAD PUSH1 0x0 SWAP1 PUSH2 0x100 SWAP1 DIV PUSH1 0x1 PUSH1 0x1 PUSH1 0xA0 SHL SUB AND CALLER PUSH1 0x1 PUSH1 0x1 PUSH1 0xA0 SHL SUB AND EQ PUSH2 0x82D JUMPI PUSH1 0x40 MLOAD PUSH3 0x461BCD PUSH1 0xE5 SHL DUP2 MSTORE PUSH1 0x4 ADD PUSH2 0x2B8 SWAP1 PUSH2 0x132D JUMP JUMPDEST PUSH1 0xC SLOAD PUSH1 0xFF AND ISZERO PUSH2 0x850 JUMPI PUSH1 0x40 MLOAD PUSH3 0x461BCD PUSH1 0xE5 SHL DUP2 MSTORE PUSH1 0x4 ADD PUSH2 0x2B8 SWAP1 PUSH2 0x1364 JUMP JUMPDEST POP PUSH1 0x6 SLOAD SWAP1 JUMP JUMPDEST PUSH1 0xC SLOAD PUSH2 0x100 SWAP1 DIV PUSH1 0x1 PUSH1 0x1 PUSH1 0xA0 SHL SUB AND CALLER PUSH1 0x1 PUSH1 0x1 PUSH1 0xA0 SHL SUB AND EQ PUSH2 0x88F JUMPI PUSH1 0x40 MLOAD PUSH3 0x461BCD PUSH1 0xE5 SHL DUP2 MSTORE PUSH1 0x4 ADD PUSH2 0x2B8 SWAP1 PUSH2 0x132D JUMP JUMPDEST PUSH1 0xC SLOAD PUSH1 0xFF AND ISZERO PUSH2 0x8E2 JUMPI PUSH1 0x40 MLOAD PUSH3 0x461BCD PUSH1 0xE5 SHL DUP2 MSTORE PUSH1 0x20 PUSH1 0x4 DUP3 ADD MSTORE PUSH1 0x1B PUSH1 0x24 DUP3 ADD MSTORE PUSH32 0x44726F707369746520697320616C72656164792053746F707065640000000000 PUSH1 0x44 DUP3 ADD MSTORE PUSH1 0x64 ADD PUSH2 0x2B8 JUMP JUMPDEST PUSH1 0xC DUP1 SLOAD PUSH1 0xFF NOT AND PUSH1 0x1 OR SWAP1 SSTORE JUMP JUMPDEST PUSH1 0xC SLOAD PUSH2 0x100 SWAP1 DIV PUSH1 0x1 PUSH1 0x1 PUSH1 0xA0 SHL SUB AND CALLER PUSH1 0x1 PUSH1 0x1 PUSH1 0xA0 SHL SUB AND EQ PUSH2 0x929 JUMPI PUSH1 0x40 MLOAD PUSH3 0x461BCD PUSH1 0xE5 SHL DUP2 MSTORE PUSH1 0x4 ADD PUSH2 0x2B8 SWAP1 PUSH2 0x132D JUMP JUMPDEST PUSH1 0xC SLOAD PUSH1 0xFF AND ISZERO PUSH2 0x94C JUMPI PUSH1 0x40 MLOAD PUSH3 0x461BCD PUSH1 0xE5 SHL DUP2 MSTORE PUSH1 0x4 ADD PUSH2 0x2B8 SWAP1 PUSH2 0x1364 JUMP JUMPDEST PUSH1 0x6 SSTORE JUMP JUMPDEST PUSH1 0xC SLOAD PUSH1 0x60 SWAP1 PUSH1 0xFF AND ISZERO PUSH2 0x977 JUMPI PUSH1 0x40 MLOAD PUSH3 0x461BCD PUSH1 0xE5 SHL DUP2 MSTORE PUSH1 0x4 ADD PUSH2 0x2B8 SWAP1 PUSH2 0x1364 JUMP JUMPDEST PUSH1 0x1 PUSH1 0x1 PUSH1 0xA0 SHL SUB DUP3 AND PUSH1 0x0 SWAP1 DUP2 MSTORE PUSH1 0xA PUSH1 0x20 SWAP1 DUP2 MSTORE PUSH1 0x40 SWAP2 DUP3 SWAP1 KECCAK256 DUP1 SLOAD DUP4 MLOAD DUP2 DUP5 MUL DUP2 ADD DUP5 ADD SWAP1 SWAP5 MSTORE DUP1 DUP5 MSTORE SWAP1 SWAP2 DUP4 ADD DUP3 DUP3 DUP1 ISZERO PUSH2 0x9D5 JUMPI PUSH1 0x20 MUL DUP3 ADD SWAP2 SWAP1 PUSH1 0x0 MSTORE PUSH1 0x20 PUSH1 0x0 KECCAK256 SWAP1 JUMPDEST DUP2 SLOAD DUP2 MSTORE PUSH1 0x20 ADD SWAP1 PUSH1 0x1 ADD SWAP1 DUP1 DUP4 GT PUSH2 0x9C1 JUMPI JUMPDEST POP POP POP POP POP SWAP1 POP SWAP2 SWAP1 POP JUMP JUMPDEST PUSH1 0xC SLOAD PUSH1 0x0 SWAP1 PUSH1 0xFF AND ISZERO PUSH2 0xA07 JUMPI PUSH1 0x40 MLOAD PUSH3 0x461BCD PUSH1 0xE5 SHL DUP2 MSTORE PUSH1 0x4 ADD PUSH2 0x2B8 SWAP1 PUSH2 0x1364 JUMP JUMPDEST PUSH1 0x0 PUSH2 0xA11 PUSH2 0xCF4 JUMP JUMPDEST SWAP1 POP PUSH1 0x0 PUSH1 0x3 DUP3 PUSH1 0x14 DUP2 LT PUSH2 0xA28 JUMPI PUSH2 0xA28 PUSH2 0x14F8 JUMP JUMPDEST PUSH1 0x20 DUP2 DIV SWAP1 SWAP2 ADD SLOAD PUSH1 0xFF PUSH1 0x1F SWAP1 SWAP3 AND PUSH2 0x100 EXP SWAP1 DIV AND SWAP1 POP DUP1 ISZERO DUP1 ISZERO PUSH2 0xA50 JUMPI POP PUSH1 0x32 PUSH1 0x7 SLOAD LT JUMPDEST ISZERO PUSH2 0xAB3 JUMPI PUSH1 0x7 DUP1 SLOAD SWAP1 PUSH1 0x0 PUSH2 0xA65 DUP4 PUSH2 0x149D JUMP JUMPDEST SWAP2 SWAP1 POP SSTORE POP PUSH2 0xA75 PUSH1 0x7 SLOAD PUSH2 0xD50 JUMP JUMPDEST PUSH1 0x40 MLOAD PUSH1 0x20 ADD PUSH2 0xA85 SWAP2 SWAP1 PUSH2 0x1205 JUMP JUMPDEST PUSH1 0x40 MLOAD PUSH1 0x20 DUP2 DUP4 SUB SUB DUP2 MSTORE SWAP1 PUSH1 0x40 MSTORE PUSH1 0x2 SWAP1 DUP1 MLOAD SWAP1 PUSH1 0x20 ADD SWAP1 PUSH2 0xAA9 SWAP3 SWAP2 SWAP1 PUSH2 0x105E JUMP JUMPDEST POP SWAP2 POP PUSH2 0x2C6 SWAP1 POP JUMP JUMPDEST PUSH1 0x1 DUP2 GT ISZERO DUP1 ISZERO PUSH2 0xAC6 JUMPI POP PUSH1 0x64 PUSH1 0x8 SLOAD LT JUMPDEST ISZERO PUSH2 0xAFB JUMPI PUSH1 0x8 DUP1 SLOAD SWAP1 PUSH1 0x0 PUSH2 0xADB DUP4 PUSH2 0x149D JUMP JUMPDEST SWAP2 SWAP1 POP SSTORE POP PUSH2 0xAEB PUSH1 0x8 SLOAD PUSH2 0xD50 JUMP JUMPDEST PUSH1 0x40 MLOAD PUSH1 0x20 ADD PUSH2 0xA85 SWAP2 SWAP1 PUSH2 0x1235 JUMP JUMPDEST PUSH1 0x2 DUP2 GT ISZERO DUP1 ISZERO PUSH2 0xB10 JUMPI POP PUSH2 0x352 PUSH1 0x9 SLOAD GT ISZERO JUMPDEST ISZERO PUSH2 0xB82 JUMPI PUSH1 0x9 DUP1 SLOAD SWAP1 PUSH1 0x0 PUSH2 0xB25 DUP4 PUSH2 0x149D JUMP JUMPDEST SWAP2 SWAP1 POP SSTORE POP PUSH2 0xB35 PUSH1 0x9 SLOAD PUSH2 0xD50 JUMP JUMPDEST PUSH1 0x40 MLOAD PUSH1 0x20 ADD PUSH2 0xB45 SWAP2 SWAP1 PUSH2 0x1262 JUMP JUMPDEST PUSH1 0x40 MLOAD PUSH1 0x20 DUP2 DUP4 SUB SUB DUP2 MSTORE SWAP1 PUSH1 0x40 MSTORE PUSH1 0x2 SWAP1 DUP1 MLOAD SWAP1 PUSH1 0x20 ADD SWAP1 PUSH2 0xB69 SWAP3 SWAP2 SWAP1 PUSH2 0x105E JUMP JUMPDEST PUSH1 0x2 SWAP1 DUP1 SLOAD PUSH2 0xB77 SWAP1 PUSH2 0x1427 JUMP JUMPDEST PUSH2 0xAA9 SWAP3 SWAP2 SWAP1 PUSH2 0x10E2 JUMP JUMPDEST PUSH1 0x64 PUSH1 0x8 SLOAD LT ISZERO PUSH2 0xBA0 JUMPI POP PUSH1 0x8 DUP1 SLOAD PUSH1 0x1 SWAP2 PUSH1 0x0 PUSH2 0xADB DUP4 PUSH2 0x149D JUMP JUMPDEST POP PUSH1 0x7 DUP1 SLOAD PUSH1 0x0 SWAP2 DUP3 PUSH2 0xA65 DUP4 PUSH2 0x149D JUMP JUMPDEST PUSH1 0x1 PUSH1 0x1 PUSH1 0xA0 SHL SUB DUP5 AND PUSH2 0xC12 JUMPI PUSH1 0x40 MLOAD PUSH3 0x461BCD PUSH1 0xE5 SHL DUP2 MSTORE PUSH1 0x20 PUSH1 0x4 DUP3 ADD MSTORE PUSH1 0x21 PUSH1 0x24 DUP3 ADD MSTORE PUSH32 0x455243313135353A206D696E7420746F20746865207A65726F20616464726573 PUSH1 0x44 DUP3 ADD MSTORE PUSH1 0x73 PUSH1 0xF8 SHL PUSH1 0x64 DUP3 ADD MSTORE PUSH1 0x84 ADD PUSH2 0x2B8 JUMP JUMPDEST CALLER PUSH2 0xC33 DUP2 PUSH1 0x0 DUP8 PUSH2 0xC23 DUP9 PUSH2 0xE56 JUMP JUMPDEST PUSH2 0xC2C DUP9 PUSH2 0xE56 JUMP JUMPDEST POP POP POP POP POP JUMP JUMPDEST PUSH1 0x0 DUP5 DUP2 MSTORE PUSH1 0x20 DUP2 DUP2 MSTORE PUSH1 0x40 DUP1 DUP4 KECCAK256 PUSH1 0x1 PUSH1 0x1 PUSH1 0xA0 SHL SUB DUP10 AND DUP5 MSTORE SWAP1 SWAP2 MSTORE DUP2 KECCAK256 DUP1 SLOAD DUP6 SWAP3 SWAP1 PUSH2 0xC63 SWAP1 DUP5 SWAP1 PUSH2 0x13B4 JUMP JUMPDEST SWAP1 SWAP2 SSTORE POP POP PUSH1 0x40 DUP1 MLOAD DUP6 DUP2 MSTORE PUSH1 0x20 DUP2 ADD DUP6 SWAP1 MSTORE PUSH1 0x1 PUSH1 0x1 PUSH1 0xA0 SHL SUB DUP1 DUP9 AND SWAP3 PUSH1 0x0 SWAP3 SWAP2 DUP6 AND SWAP2 PUSH32 0xC3D58168C5AE7397731D063D5BBF3D657854427343F4C083240F7AACAA2D0F62 SWAP2 ADD PUSH1 0x40 MLOAD DUP1 SWAP2 SUB SWAP1 LOG4 PUSH2 0xC2C DUP2 PUSH1 0x0 DUP8 DUP8 DUP8 DUP8 PUSH2 0xEA9 JUMP JUMPDEST PUSH1 0x1 PUSH1 0x1 PUSH1 0xA0 SHL SUB DUP3 AND PUSH1 0x0 SWAP1 DUP2 MSTORE PUSH1 0xB PUSH1 0x20 MSTORE PUSH1 0x40 DUP2 KECCAK256 DUP1 SLOAD DUP4 SWAP3 SWAP1 PUSH2 0xCEB SWAP1 DUP5 SWAP1 PUSH2 0x13B4 JUMP JUMPDEST SWAP1 SWAP2 SSTORE POP POP POP POP JUMP JUMPDEST PUSH1 0x0 DUP1 PUSH1 0x14 TIMESTAMP CALLER PUSH1 0x40 MLOAD PUSH1 0x20 ADD PUSH2 0xD27 SWAP3 SWAP2 SWAP1 SWAP2 DUP3 MSTORE PUSH1 0x60 SHL PUSH12 0xFFFFFFFFFFFFFFFFFFFFFFFF NOT AND PUSH1 0x20 DUP3 ADD MSTORE PUSH1 0x34 ADD SWAP1 JUMP JUMPDEST PUSH1 0x40 MLOAD PUSH1 0x20 DUP2 DUP4 SUB SUB DUP2 MSTORE SWAP1 PUSH1 0x40 MSTORE DUP1 MLOAD SWAP1 PUSH1 0x20 ADD KECCAK256 PUSH1 0x0 SHR PUSH2 0xD4A SWAP2 SWAP1 PUSH2 0x14B8 JUMP JUMPDEST SWAP3 SWAP2 POP POP JUMP JUMPDEST PUSH1 0x60 DUP2 PUSH2 0xD74 JUMPI POP POP PUSH1 0x40 DUP1 MLOAD DUP1 DUP3 ADD SWAP1 SWAP2 MSTORE PUSH1 0x1 DUP2 MSTORE PUSH1 0x3 PUSH1 0xFC SHL PUSH1 0x20 DUP3 ADD MSTORE SWAP1 JUMP JUMPDEST DUP2 PUSH1 0x0 JUMPDEST DUP2 ISZERO PUSH2 0xD9E JUMPI DUP1 PUSH2 0xD88 DUP2 PUSH2 0x149D JUMP JUMPDEST SWAP2 POP PUSH2 0xD97 SWAP1 POP PUSH1 0xA DUP4 PUSH2 0x13CC JUMP JUMPDEST SWAP2 POP PUSH2 0xD78 JUMP JUMPDEST PUSH1 0x0 DUP2 PUSH8 0xFFFFFFFFFFFFFFFF DUP2 GT ISZERO PUSH2 0xDB9 JUMPI PUSH2 0xDB9 PUSH2 0x150E JUMP JUMPDEST PUSH1 0x40 MLOAD SWAP1 DUP1 DUP3 MSTORE DUP1 PUSH1 0x1F ADD PUSH1 0x1F NOT AND PUSH1 0x20 ADD DUP3 ADD PUSH1 0x40 MSTORE DUP1 ISZERO PUSH2 0xDE3 JUMPI PUSH1 0x20 DUP3 ADD DUP2 DUP1 CALLDATASIZE DUP4 CALLDATACOPY ADD SWAP1 POP JUMPDEST POP SWAP1 POP JUMPDEST DUP5 ISZERO PUSH2 0xE4E JUMPI PUSH2 0xDF8 PUSH1 0x1 DUP4 PUSH2 0x13E0 JUMP JUMPDEST SWAP2 POP PUSH2 0xE05 PUSH1 0xA DUP7 PUSH2 0x14B8 JUMP JUMPDEST PUSH2 0xE10 SWAP1 PUSH1 0x30 PUSH2 0x13B4 JUMP JUMPDEST PUSH1 0xF8 SHL DUP2 DUP4 DUP2 MLOAD DUP2 LT PUSH2 0xE25 JUMPI PUSH2 0xE25 PUSH2 0x14F8 JUMP JUMPDEST PUSH1 0x20 ADD ADD SWAP1 PUSH1 0x1 PUSH1 0x1 PUSH1 0xF8 SHL SUB NOT AND SWAP1 DUP2 PUSH1 0x0 BYTE SWAP1 MSTORE8 POP PUSH2 0xE47 PUSH1 0xA DUP7 PUSH2 0x13CC JUMP JUMPDEST SWAP5 POP PUSH2 0xDE7 JUMP JUMPDEST SWAP5 SWAP4 POP POP POP POP JUMP JUMPDEST PUSH1 0x40 DUP1 MLOAD PUSH1 0x1 DUP1 DUP3 MSTORE DUP2 DUP4 ADD SWAP1 SWAP3 MSTORE PUSH1 0x60 SWAP2 PUSH1 0x0 SWAP2 SWAP1 PUSH1 0x20 DUP1 DUP4 ADD SWAP1 DUP1 CALLDATASIZE DUP4 CALLDATACOPY ADD SWAP1 POP POP SWAP1 POP DUP3 DUP2 PUSH1 0x0 DUP2 MLOAD DUP2 LT PUSH2 0xE90 JUMPI PUSH2 0xE90 PUSH2 0x14F8 JUMP JUMPDEST PUSH1 0x20 SWAP1 DUP2 MUL SWAP2 SWAP1 SWAP2 ADD ADD MSTORE SWAP3 SWAP2 POP POP JUMP JUMPDEST POP POP POP POP POP POP JUMP JUMPDEST PUSH1 0x1 PUSH1 0x1 PUSH1 0xA0 SHL SUB DUP5 AND EXTCODESIZE ISZERO PUSH2 0xEA1 JUMPI PUSH1 0x40 MLOAD PUSH4 0x15D13449 PUSH1 0xE3 SHL DUP2 MSTORE PUSH1 0x1 PUSH1 0x1 PUSH1 0xA0 SHL SUB DUP6 AND SWAP1 PUSH4 0xAE89A248 SWAP1 PUSH2 0xEED SWAP1 DUP10 SWAP1 DUP10 SWAP1 DUP9 SWAP1 DUP9 SWAP1 DUP9 SWAP1 PUSH1 0x4 ADD PUSH2 0x1291 JUMP JUMPDEST PUSH1 0x20 PUSH1 0x40 MLOAD DUP1 DUP4 SUB DUP2 PUSH1 0x0 DUP8 DUP1 EXTCODESIZE ISZERO DUP1 ISZERO PUSH2 0xF07 JUMPI PUSH1 0x0 DUP1 REVERT JUMPDEST POP GAS CALL SWAP3 POP POP POP DUP1 ISZERO PUSH2 0xF37 JUMPI POP PUSH1 0x40 DUP1 MLOAD PUSH1 0x1F RETURNDATASIZE SWAP1 DUP2 ADD PUSH1 0x1F NOT AND DUP3 ADD SWAP1 SWAP3 MSTORE PUSH2 0xF34 SWAP2 DUP2 ADD SWAP1 PUSH2 0x1196 JUMP JUMPDEST PUSH1 0x1 JUMPDEST PUSH2 0xFE4 JUMPI PUSH2 0xF43 PUSH2 0x1524 JUMP JUMPDEST DUP1 PUSH4 0x8C379A0 EQ ISZERO PUSH2 0xF7D JUMPI POP PUSH2 0xF58 PUSH2 0x153F JUMP JUMPDEST DUP1 PUSH2 0xF63 JUMPI POP PUSH2 0xF7F JUMP JUMPDEST DUP1 PUSH1 0x40 MLOAD PUSH3 0x461BCD PUSH1 0xE5 SHL DUP2 MSTORE PUSH1 0x4 ADD PUSH2 0x2B8 SWAP2 SWAP1 PUSH2 0x131A JUMP JUMPDEST POP JUMPDEST PUSH1 0x40 MLOAD PUSH3 0x461BCD PUSH1 0xE5 SHL DUP2 MSTORE PUSH1 0x20 PUSH1 0x4 DUP3 ADD MSTORE PUSH1 0x34 PUSH1 0x24 DUP3 ADD MSTORE PUSH32 0x455243313135353A207472616E7366657220746F206E6F6E2045524331313535 PUSH1 0x44 DUP3 ADD MSTORE PUSH20 0x2932B1B2B4BB32B91034B6B83632B6B2B73A32B9 PUSH1 0x61 SHL PUSH1 0x64 DUP3 ADD MSTORE PUSH1 0x84 ADD PUSH2 0x2B8 JUMP JUMPDEST PUSH1 0x1 PUSH1 0x1 PUSH1 0xE0 SHL SUB NOT DUP2 AND PUSH4 0x15D13449 PUSH1 0xE3 SHL EQ PUSH2 0x1055 JUMPI PUSH1 0x40 MLOAD PUSH3 0x461BCD PUSH1 0xE5 SHL DUP2 MSTORE PUSH1 0x20 PUSH1 0x4 DUP3 ADD MSTORE PUSH1 0x28 PUSH1 0x24 DUP3 ADD MSTORE PUSH32 0x455243313135353A204552433131353552656365697665722072656A65637465 PUSH1 0x44 DUP3 ADD MSTORE PUSH8 0x6420746F6B656E73 PUSH1 0xC0 SHL PUSH1 0x64 DUP3 ADD MSTORE PUSH1 0x84 ADD PUSH2 0x2B8 JUMP JUMPDEST POP POP POP POP POP POP POP JUMP JUMPDEST DUP3 DUP1 SLOAD PUSH2 0x106A SWAP1 PUSH2 0x1427 JUMP JUMPDEST SWAP1 PUSH1 0x0 MSTORE PUSH1 0x20 PUSH1 0x0 KECCAK256 SWAP1 PUSH1 0x1F ADD PUSH1 0x20 SWAP1 DIV DUP2 ADD SWAP3 DUP3 PUSH2 0x108C JUMPI PUSH1 0x0 DUP6 SSTORE PUSH2 0x10D2 JUMP JUMPDEST DUP3 PUSH1 0x1F LT PUSH2 0x10A5 JUMPI DUP1 MLOAD PUSH1 0xFF NOT AND DUP4 DUP1 ADD OR DUP6 SSTORE PUSH2 0x10D2 JUMP JUMPDEST DUP3 DUP1 ADD PUSH1 0x1 ADD DUP6 SSTORE DUP3 ISZERO PUSH2 0x10D2 JUMPI SWAP2 DUP3 ADD JUMPDEST DUP3 DUP2 GT ISZERO PUSH2 0x10D2 JUMPI DUP3 MLOAD DUP3 SSTORE SWAP2 PUSH1 0x20 ADD SWAP2 SWAP1 PUSH1 0x1 ADD SWAP1 PUSH2 0x10B7 JUMP JUMPDEST POP PUSH2 0x10DE SWAP3 SWAP2 POP PUSH2 0x115D JUMP JUMPDEST POP SWAP1 JUMP JUMPDEST DUP3 DUP1 SLOAD PUSH2 0x10EE SWAP1 PUSH2 0x1427 JUMP JUMPDEST SWAP1 PUSH1 0x0 MSTORE PUSH1 0x20 PUSH1 0x0 KECCAK256 SWAP1 PUSH1 0x1F ADD PUSH1 0x20 SWAP1 DIV DUP2 ADD SWAP3 DUP3 PUSH2 0x1110 JUMPI PUSH1 0x0 DUP6 SSTORE PUSH2 0x10D2 JUMP JUMPDEST DUP3 PUSH1 0x1F LT PUSH2 0x1121 JUMPI DUP1 SLOAD DUP6 SSTORE PUSH2 0x10D2 JUMP JUMPDEST DUP3 DUP1 ADD PUSH1 0x1 ADD DUP6 SSTORE DUP3 ISZERO PUSH2 0x10D2 JUMPI PUSH1 0x0 MSTORE PUSH1 0x20 PUSH1 0x0 KECCAK256 SWAP2 PUSH1 0x1F ADD PUSH1 0x20 SWAP1 DIV DUP3 ADD JUMPDEST DUP3 DUP2 GT ISZERO PUSH2 0x10D2 JUMPI DUP3 SLOAD DUP3 SSTORE SWAP2 PUSH1 0x1 ADD SWAP2 SWAP1 PUSH1 0x1 ADD SWAP1 PUSH2 0x1142 JUMP JUMPDEST JUMPDEST DUP1 DUP3 GT ISZERO PUSH2 0x10DE JUMPI PUSH1 0x0 DUP2 SSTORE PUSH1 0x1 ADD PUSH2 0x115E JUMP JUMPDEST PUSH1 0x0 PUSH1 0x20 DUP3 DUP5 SUB SLT ISZERO PUSH2 0x1184 JUMPI PUSH1 0x0 DUP1 REVERT JUMPDEST DUP2 CALLDATALOAD PUSH2 0x118F DUP2 PUSH2 0x15C9 JUMP JUMPDEST SWAP4 SWAP3 POP POP POP JUMP JUMPDEST PUSH1 0x0 PUSH1 0x20 DUP3 DUP5 SUB SLT ISZERO PUSH2 0x11A8 JUMPI PUSH1 0x0 DUP1 REVERT JUMPDEST DUP2 MLOAD PUSH1 0x1 PUSH1 0x1 PUSH1 0xE0 SHL SUB NOT DUP2 AND DUP2 EQ PUSH2 0x118F JUMPI PUSH1 0x0 DUP1 REVERT JUMPDEST PUSH1 0x0 PUSH1 0x20 DUP3 DUP5 SUB SLT ISZERO PUSH2 0x11D2 JUMPI PUSH1 0x0 DUP1 REVERT JUMPDEST POP CALLDATALOAD SWAP2 SWAP1 POP JUMP JUMPDEST PUSH1 0x0 DUP2 MLOAD DUP1 DUP5 MSTORE PUSH2 0x11F1 DUP2 PUSH1 0x20 DUP7 ADD PUSH1 0x20 DUP7 ADD PUSH2 0x13F7 JUMP JUMPDEST PUSH1 0x1F ADD PUSH1 0x1F NOT AND SWAP3 SWAP1 SWAP3 ADD PUSH1 0x20 ADD SWAP3 SWAP2 POP POP JUMP JUMPDEST PUSH8 0x4469616D6F6E645F PUSH1 0xC0 SHL DUP2 MSTORE PUSH1 0x0 DUP3 MLOAD PUSH2 0x1228 DUP2 PUSH1 0x8 DUP6 ADD PUSH1 0x20 DUP8 ADD PUSH2 0x13F7 JUMP JUMPDEST SWAP2 SWAP1 SWAP2 ADD PUSH1 0x8 ADD SWAP3 SWAP2 POP POP JUMP JUMPDEST PUSH5 0x476F6C645F PUSH1 0xD8 SHL DUP2 MSTORE PUSH1 0x0 DUP3 MLOAD PUSH2 0x1255 DUP2 PUSH1 0x5 DUP6 ADD PUSH1 0x20 DUP8 ADD PUSH2 0x13F7 JUMP JUMPDEST SWAP2 SWAP1 SWAP2 ADD PUSH1 0x5 ADD SWAP3 SWAP2 POP POP JUMP JUMPDEST PUSH7 0x53696C7665725F PUSH1 0xC8 SHL DUP2 MSTORE PUSH1 0x0 DUP3 MLOAD PUSH2 0x1284 DUP2 PUSH1 0x7 DUP6 ADD PUSH1 0x20 DUP8 ADD PUSH2 0x13F7 JUMP JUMPDEST SWAP2 SWAP1 SWAP2 ADD PUSH1 0x7 ADD SWAP3 SWAP2 POP POP JUMP JUMPDEST PUSH1 0x1 PUSH1 0x1 PUSH1 0xA0 SHL SUB DUP7 DUP2 AND DUP3 MSTORE DUP6 AND PUSH1 0x20 DUP3 ADD MSTORE PUSH1 0x40 DUP2 ADD DUP5 SWAP1 MSTORE PUSH1 0x60 DUP2 ADD DUP4 SWAP1 MSTORE PUSH1 0xA0 PUSH1 0x80 DUP3 ADD DUP2 SWAP1 MSTORE PUSH1 0x0 SWAP1 PUSH2 0x12CB SWAP1 DUP4 ADD DUP5 PUSH2 0x11D9 JUMP JUMPDEST SWAP8 SWAP7 POP POP POP POP POP POP POP JUMP JUMPDEST PUSH1 0x20 DUP1 DUP3 MSTORE DUP3 MLOAD DUP3 DUP3 ADD DUP2 SWAP1 MSTORE PUSH1 0x0 SWAP2 SWAP1 DUP5 DUP3 ADD SWAP1 PUSH1 0x40 DUP6 ADD SWAP1 DUP5 JUMPDEST DUP2 DUP2 LT ISZERO PUSH2 0x130E JUMPI DUP4 MLOAD DUP4 MSTORE SWAP3 DUP5 ADD SWAP3 SWAP2 DUP5 ADD SWAP2 PUSH1 0x1 ADD PUSH2 0x12F2 JUMP JUMPDEST POP SWAP1 SWAP7 SWAP6 POP POP POP POP POP POP JUMP JUMPDEST PUSH1 0x20 DUP2 MSTORE PUSH1 0x0 PUSH2 0x118F PUSH1 0x20 DUP4 ADD DUP5 PUSH2 0x11D9 JUMP JUMPDEST PUSH1 0x20 DUP1 DUP3 MSTORE PUSH1 0x1C SWAP1 DUP3 ADD MSTORE PUSH32 0x4F6E6C79204E46542D4553204F776E65722063616E2041636365737300000000 PUSH1 0x40 DUP3 ADD MSTORE PUSH1 0x60 ADD SWAP1 JUMP JUMPDEST PUSH1 0x20 DUP1 DUP3 MSTORE PUSH1 0x1B SWAP1 DUP3 ADD MSTORE PUSH32 0x44726F7073697465206973206E6F74204F70656E6564205965742E0000000000 PUSH1 0x40 DUP3 ADD MSTORE PUSH1 0x60 ADD SWAP1 JUMP JUMPDEST DUP3 DUP2 MSTORE PUSH1 0x40 PUSH1 0x20 DUP3 ADD MSTORE PUSH1 0x0 PUSH2 0xE4E PUSH1 0x40 DUP4 ADD DUP5 PUSH2 0x11D9 JUMP JUMPDEST PUSH1 0x0 DUP3 NOT DUP3 GT ISZERO PUSH2 0x13C7 JUMPI PUSH2 0x13C7 PUSH2 0x14CC JUMP JUMPDEST POP ADD SWAP1 JUMP JUMPDEST PUSH1 0x0 DUP3 PUSH2 0x13DB JUMPI PUSH2 0x13DB PUSH2 0x14E2 JUMP JUMPDEST POP DIV SWAP1 JUMP JUMPDEST PUSH1 0x0 DUP3 DUP3 LT ISZERO PUSH2 0x13F2 JUMPI PUSH2 0x13F2 PUSH2 0x14CC JUMP JUMPDEST POP SUB SWAP1 JUMP JUMPDEST PUSH1 0x0 JUMPDEST DUP4 DUP2 LT ISZERO PUSH2 0x1412 JUMPI DUP2 DUP2 ADD MLOAD DUP4 DUP3 ADD MSTORE PUSH1 0x20 ADD PUSH2 0x13FA JUMP JUMPDEST DUP4 DUP2 GT ISZERO PUSH2 0x1421 JUMPI PUSH1 0x0 DUP5 DUP5 ADD MSTORE JUMPDEST POP POP POP POP JUMP JUMPDEST PUSH1 0x1 DUP2 DUP2 SHR SWAP1 DUP3 AND DUP1 PUSH2 0x143B JUMPI PUSH1 0x7F DUP3 AND SWAP2 POP JUMPDEST PUSH1 0x20 DUP3 LT DUP2 EQ ISZERO PUSH2 0x145C JUMPI PUSH4 0x4E487B71 PUSH1 0xE0 SHL PUSH1 0x0 MSTORE PUSH1 0x22 PUSH1 0x4 MSTORE PUSH1 0x24 PUSH1 0x0 REVERT JUMPDEST POP SWAP2 SWAP1 POP JUMP JUMPDEST PUSH1 0x1F DUP3 ADD PUSH1 0x1F NOT AND DUP2 ADD PUSH8 0xFFFFFFFFFFFFFFFF DUP2 GT DUP3 DUP3 LT OR ISZERO PUSH2 0x1496 JUMPI PUSH4 0x4E487B71 PUSH1 0xE0 SHL PUSH1 0x0 MSTORE PUSH1 0x41 PUSH1 0x4 MSTORE PUSH1 0x24 PUSH1 0x0 REVERT JUMPDEST PUSH1 0x40 MSTORE POP POP JUMP JUMPDEST PUSH1 0x0 PUSH1 0x0 NOT DUP3 EQ ISZERO PUSH2 0x14B1 JUMPI PUSH2 0x14B1 PUSH2 0x14CC JUMP JUMPDEST POP PUSH1 0x1 ADD SWAP1 JUMP JUMPDEST PUSH1 0x0 DUP3 PUSH2 0x14C7 JUMPI PUSH2 0x14C7 PUSH2 0x14E2 JUMP JUMPDEST POP MOD SWAP1 JUMP JUMPDEST PUSH4 0x4E487B71 PUSH1 0xE0 SHL PUSH1 0x0 MSTORE PUSH1 0x11 PUSH1 0x4 MSTORE PUSH1 0x24 PUSH1 0x0 REVERT JUMPDEST PUSH4 0x4E487B71 PUSH1 0xE0 SHL PUSH1 0x0 MSTORE PUSH1 0x12 PUSH1 0x4 MSTORE PUSH1 0x24 PUSH1 0x0 REVERT JUMPDEST PUSH4 0x4E487B71 PUSH1 0xE0 SHL PUSH1 0x0 MSTORE PUSH1 0x32 PUSH1 0x4 MSTORE PUSH1 0x24 PUSH1 0x0 REVERT JUMPDEST PUSH4 0x4E487B71 PUSH1 0xE0 SHL PUSH1 0x0 MSTORE PUSH1 0x41 PUSH1 0x4 MSTORE PUSH1 0x24 PUSH1 0x0 REVERT JUMPDEST PUSH1 0x0 PUSH1 0x3 RETURNDATASIZE GT ISZERO PUSH2 0x2C6 JUMPI PUSH1 0x4 PUSH1 0x0 DUP1 RETURNDATACOPY POP PUSH1 0x0 MLOAD PUSH1 0xE0 SHR SWAP1 JUMP JUMPDEST PUSH1 0x0 PUSH1 0x44 RETURNDATASIZE LT ISZERO PUSH2 0x154D JUMPI SWAP1 JUMP JUMPDEST PUSH1 0x40 MLOAD PUSH1 0x3 NOT RETURNDATASIZE DUP2 ADD PUSH1 0x4 DUP4 RETURNDATACOPY DUP2 MLOAD RETURNDATASIZE PUSH8 0xFFFFFFFFFFFFFFFF DUP2 PUSH1 0x24 DUP5 ADD GT DUP2 DUP5 GT OR ISZERO PUSH2 0x157D JUMPI POP POP POP POP POP SWAP1 JUMP JUMPDEST DUP3 DUP6 ADD SWAP2 POP DUP2 MLOAD DUP2 DUP2 GT ISZERO PUSH2 0x1595 JUMPI POP POP POP POP POP POP SWAP1 JUMP JUMPDEST DUP5 RETURNDATASIZE DUP8 ADD ADD PUSH1 0x20 DUP3 DUP6 ADD ADD GT ISZERO PUSH2 0x15AF JUMPI POP POP POP POP POP POP SWAP1 JUMP JUMPDEST PUSH2 0x15BE PUSH1 0x20 DUP3 DUP7 ADD ADD DUP8 PUSH2 0x1462 JUMP JUMPDEST POP SWAP1 SWAP6 SWAP5 POP POP POP POP POP JUMP JUMPDEST PUSH1 0x1 PUSH1 0x1 PUSH1 0xA0 SHL SUB DUP2 AND DUP2 EQ PUSH2 0x15DE JUMPI PUSH1 0x0 DUP1 REVERT JUMPDEST POP JUMP INVALID LOG2 PUSH5 0x6970667358 0x22 SLT KECCAK256 BASEFEE 0xE6 MLOAD CREATE 0x2C 0xEA 0xA8 0xD9 PUSH18 0x3C03C46ABCB651A9CC5F0E702125D2A68D41 SWAP5 DUP7 INVALID 0x5F GASPRICE PUSH5 0x736F6C6343 STOP ADDMOD SMOD STOP CALLER "
				},
				"gasEstimates": {
					"creation": {
						"codeDepositCost": "1131000",
						"executionCost": "infinite",
						"totalCost": "infinite"
					},
					"external": {
						"ContractBalance()": "2558",
						"CryptoRandomMint(address)": "infinite",
						"FiatRandomMint(address)": "infinite",
						"IsPaused()": "2355",
						"Owner()": "2392",
						"checkMintedCategoryWise()": "10928",
						"checkTotalMinted()": "4475",
						"getMintFee()": "6666",
						"openDropsite()": "28733",
						"returnOwner(address)": "infinite",
						"setMintFee(uint256)": "26685",
						"stopDropsite()": "28685",
						"withDraw(address)": "infinite"
					},
					"internal": {
						"depositAmount(address,uint256)": "24404",
						"random()": "infinite",
						"updateConditions()": "infinite"
					}
				},
				"methodIdentifiers": {
					"ContractBalance()": "3b668059",
					"CryptoRandomMint(address)": "3d65df70",
					"FiatRandomMint(address)": "32b61b4c",
					"IsPaused()": "1309a563",
					"Owner()": "b4a99a4e",
					"checkMintedCategoryWise()": "60daa851",
					"checkTotalMinted()": "0390c11c",
					"getMintFee()": "7a5caab3",
					"openDropsite()": "15460259",
					"returnOwner(address)": "fd6c3b1b",
					"setMintFee(uint256)": "eddd0d9c",
					"stopDropsite()": "aa90c726",
					"withDraw(address)": "0a67d2c7"
				}
			},
			"userdoc": {
				"kind": "user",
				"methods": {},
				"version": 1
			}
		}
	}
}