{
	"RandomTest.sol": {
		"RandomTest": {
			"abi": [
				{
					"inputs": [
						{
							"internalType": "uint256",
							"name": "x",
							"type": "uint256"
						},
						{
							"internalType": "uint256",
							"name": "y",
							"type": "uint256"
						},
						{
							"internalType": "uint256",
							"name": "z",
							"type": "uint256"
						},
						{
							"internalType": "uint256",
							"name": "px",
							"type": "uint256"
						},
						{
							"internalType": "uint256",
							"name": "py",
							"type": "uint256"
						}
					],
					"name": "randomTest",
					"outputs": [
						{
							"internalType": "uint256",
							"name": "",
							"type": "uint256"
						}
					],
					"stateMutability": "view",
					"type": "function"
				}
			],
			"devdoc": {
				"kind": "dev",
				"methods": {},
				"version": 1
			},
			"evm": {
				"assembly": "    /* \"RandomTest.sol\":54:952  contract RandomTest{... */\n  mstore(0x40, 0x80)\n  callvalue\n  dup1\n  iszero\n  tag_1\n  jumpi\n  0x00\n  dup1\n  revert\ntag_1:\n  pop\n  dataSize(sub_0)\n  dup1\n  dataOffset(sub_0)\n  0x00\n  codecopy\n  0x00\n  return\nstop\n\nsub_0: assembly {\n        /* \"RandomTest.sol\":54:952  contract RandomTest{... */\n      mstore(0x40, 0x80)\n      callvalue\n      dup1\n      iszero\n      tag_1\n      jumpi\n      0x00\n      dup1\n      revert\n    tag_1:\n      pop\n      jumpi(tag_2, lt(calldatasize, 0x04))\n      shr(0xe0, calldataload(0x00))\n      dup1\n      0x55c7b2a0\n      eq\n      tag_3\n      jumpi\n    tag_2:\n      0x00\n      dup1\n      revert\n        /* \"RandomTest.sol\":79:743  function randomTest(uint x, uint y, uint z, uint px, uint py) public view returns (uint)... */\n    tag_3:\n      tag_4\n      0x04\n      dup1\n      calldatasize\n      sub\n      dup2\n      add\n      swap1\n      tag_5\n      swap2\n      swap1\n      tag_6\n      jump\t// in\n    tag_5:\n      tag_7\n      jump\t// in\n    tag_4:\n      mload(0x40)\n      tag_8\n      swap2\n      swap1\n      tag_9\n      jump\t// in\n    tag_8:\n      mload(0x40)\n      dup1\n      swap2\n      sub\n      swap1\n      return\n    tag_7:\n        /* \"RandomTest.sol\":162:166  uint */\n      0x00\n        /* \"RandomTest.sol\":239:245  uint r */\n      dup1\n        /* \"RandomTest.sol\":248:256  random() */\n      tag_11\n        /* \"RandomTest.sol\":248:254  random */\n      tag_12\n        /* \"RandomTest.sol\":248:256  random() */\n      jump\t// in\n    tag_11:\n        /* \"RandomTest.sol\":239:256  uint r = random() */\n      swap1\n      pop\n        /* \"RandomTest.sol\":352:355  100 */\n      0x64\n        /* \"RandomTest.sol\":349:351  px */\n      dup5\n        /* \"RandomTest.sol\":349:355  px/100 */\n      tag_13\n      swap2\n      swap1\n      tag_14\n      jump\t// in\n    tag_13:\n        /* \"RandomTest.sol\":343:344  r */\n      dup2\n        /* \"RandomTest.sol\":343:356  r <= (px/100) */\n      gt\n        /* \"RandomTest.sol\":339:382  if (r <= (px/100))... */\n      tag_15\n      jumpi\n        /* \"RandomTest.sol\":381:382  x */\n      dup7\n        /* \"RandomTest.sol\":374:382  return x */\n      swap2\n      pop\n      pop\n      jump(tag_10)\n        /* \"RandomTest.sol\":339:382  if (r <= (px/100))... */\n    tag_15:\n        /* \"RandomTest.sol\":528:531  100 */\n      0x64\n        /* \"RandomTest.sol\":524:526  py */\n      dup4\n        /* \"RandomTest.sol\":521:523  px */\n      dup6\n        /* \"RandomTest.sol\":521:526  px+py */\n      tag_16\n      swap2\n      swap1\n      tag_17\n      jump\t// in\n    tag_16:\n        /* \"RandomTest.sol\":520:531  (px+py)/100 */\n      tag_18\n      swap2\n      swap1\n      tag_14\n      jump\t// in\n    tag_18:\n        /* \"RandomTest.sol\":515:516  r */\n      dup2\n        /* \"RandomTest.sol\":515:531  r <= (px+py)/100 */\n      gt\n        /* \"RandomTest.sol\":511:736  if (r <= (px+py)/100)... */\n      tag_19\n      jumpi\n        /* \"RandomTest.sol\":556:557  y */\n      dup6\n        /* \"RandomTest.sol\":549:557  return y */\n      swap2\n      pop\n      pop\n      jump(tag_10)\n        /* \"RandomTest.sol\":511:736  if (r <= (px+py)/100)... */\n    tag_19:\n        /* \"RandomTest.sol\":707:710  100 */\n      0x64\n        /* \"RandomTest.sol\":703:705  py */\n      dup4\n        /* \"RandomTest.sol\":700:702  px */\n      dup6\n        /* \"RandomTest.sol\":700:705  px+py */\n      tag_21\n      swap2\n      swap1\n      tag_17\n      jump\t// in\n    tag_21:\n        /* \"RandomTest.sol\":699:710  (px+py)/100 */\n      tag_22\n      swap2\n      swap1\n      tag_14\n      jump\t// in\n    tag_22:\n        /* \"RandomTest.sol\":695:696  r */\n      dup2\n        /* \"RandomTest.sol\":695:710  r > (px+py)/100 */\n      gt\n        /* \"RandomTest.sol\":692:736  if(r > (px+py)/100)... */\n      iszero\n      tag_23\n      jumpi\n        /* \"RandomTest.sol\":735:736  z */\n      dup5\n        /* \"RandomTest.sol\":728:736  return z */\n      swap2\n      pop\n      pop\n      jump(tag_10)\n        /* \"RandomTest.sol\":692:736  if(r > (px+py)/100)... */\n    tag_23:\n        /* \"RandomTest.sol\":172:743  {      ... */\n      pop\n        /* \"RandomTest.sol\":79:743  function randomTest(uint x, uint y, uint z, uint px, uint py) public view returns (uint)... */\n    tag_10:\n      swap6\n      swap5\n      pop\n      pop\n      pop\n      pop\n      pop\n      jump\t// out\n        /* \"RandomTest.sol\":749:949  function random() internal view returns (uint) {... */\n    tag_12:\n        /* \"RandomTest.sol\":790:794  uint */\n      0x00\n        /* \"RandomTest.sol\":831:848  uint randomnumber */\n      dup1\n        /* \"RandomTest.sol\":916:917  3 */\n      0x03\n        /* \"RandomTest.sol\":883:898  block.timestamp */\n      timestamp\n        /* \"RandomTest.sol\":900:910  msg.sender */\n      caller\n        /* \"RandomTest.sol\":866:911  abi.encodePacked(block.timestamp, msg.sender) */\n      add(0x20, mload(0x40))\n      tag_25\n      swap3\n      swap2\n      swap1\n      tag_26\n      jump\t// in\n    tag_25:\n      mload(0x40)\n      0x20\n      dup2\n      dup4\n      sub\n      sub\n      dup2\n      mstore\n      swap1\n      0x40\n      mstore\n        /* \"RandomTest.sol\":856:912  keccak256(abi.encodePacked(block.timestamp, msg.sender)) */\n      dup1\n      mload\n      swap1\n      0x20\n      add\n      keccak256\n        /* \"RandomTest.sol\":851:913  uint(keccak256(abi.encodePacked(block.timestamp, msg.sender))) */\n      0x00\n      shr\n        /* \"RandomTest.sol\":851:917  uint(keccak256(abi.encodePacked(block.timestamp, msg.sender))) % 3 */\n      tag_27\n      swap2\n      swap1\n      tag_28\n      jump\t// in\n    tag_27:\n        /* \"RandomTest.sol\":831:917  uint randomnumber = uint(keccak256(abi.encodePacked(block.timestamp, msg.sender))) % 3 */\n      swap1\n      pop\n        /* \"RandomTest.sol\":930:942  randomnumber */\n      dup1\n        /* \"RandomTest.sol\":923:942  return randomnumber */\n      swap2\n      pop\n      pop\n        /* \"RandomTest.sol\":749:949  function random() internal view returns (uint) {... */\n      swap1\n      jump\t// out\n        /* \"#utility.yul\":7:146   */\n    tag_30:\n        /* \"#utility.yul\":53:58   */\n      0x00\n        /* \"#utility.yul\":91:97   */\n      dup2\n        /* \"#utility.yul\":78:98   */\n      calldataload\n        /* \"#utility.yul\":69:98   */\n      swap1\n      pop\n        /* \"#utility.yul\":107:140   */\n      tag_32\n        /* \"#utility.yul\":134:139   */\n      dup2\n        /* \"#utility.yul\":107:140   */\n      tag_33\n      jump\t// in\n    tag_32:\n        /* \"#utility.yul\":7:146   */\n      swap3\n      swap2\n      pop\n      pop\n      jump\t// out\n        /* \"#utility.yul\":152:1063   */\n    tag_6:\n        /* \"#utility.yul\":247:253   */\n      0x00\n        /* \"#utility.yul\":255:261   */\n      dup1\n        /* \"#utility.yul\":263:269   */\n      0x00\n        /* \"#utility.yul\":271:277   */\n      dup1\n        /* \"#utility.yul\":279:285   */\n      0x00\n        /* \"#utility.yul\":328:331   */\n      0xa0\n        /* \"#utility.yul\":316:325   */\n      dup7\n        /* \"#utility.yul\":307:314   */\n      dup9\n        /* \"#utility.yul\":303:326   */\n      sub\n        /* \"#utility.yul\":299:332   */\n      slt\n        /* \"#utility.yul\":296:416   */\n      iszero\n      tag_35\n      jumpi\n        /* \"#utility.yul\":335:414   */\n      tag_36\n      tag_37\n      jump\t// in\n    tag_36:\n        /* \"#utility.yul\":296:416   */\n    tag_35:\n        /* \"#utility.yul\":455:456   */\n      0x00\n        /* \"#utility.yul\":480:533   */\n      tag_38\n        /* \"#utility.yul\":525:532   */\n      dup9\n        /* \"#utility.yul\":516:522   */\n      dup3\n        /* \"#utility.yul\":505:514   */\n      dup10\n        /* \"#utility.yul\":501:523   */\n      add\n        /* \"#utility.yul\":480:533   */\n      tag_30\n      jump\t// in\n    tag_38:\n        /* \"#utility.yul\":470:533   */\n      swap6\n      pop\n        /* \"#utility.yul\":426:543   */\n      pop\n        /* \"#utility.yul\":582:584   */\n      0x20\n        /* \"#utility.yul\":608:661   */\n      tag_39\n        /* \"#utility.yul\":653:660   */\n      dup9\n        /* \"#utility.yul\":644:650   */\n      dup3\n        /* \"#utility.yul\":633:642   */\n      dup10\n        /* \"#utility.yul\":629:651   */\n      add\n        /* \"#utility.yul\":608:661   */\n      tag_30\n      jump\t// in\n    tag_39:\n        /* \"#utility.yul\":598:661   */\n      swap5\n      pop\n        /* \"#utility.yul\":553:671   */\n      pop\n        /* \"#utility.yul\":710:712   */\n      0x40\n        /* \"#utility.yul\":736:789   */\n      tag_40\n        /* \"#utility.yul\":781:788   */\n      dup9\n        /* \"#utility.yul\":772:778   */\n      dup3\n        /* \"#utility.yul\":761:770   */\n      dup10\n        /* \"#utility.yul\":757:779   */\n      add\n        /* \"#utility.yul\":736:789   */\n      tag_30\n      jump\t// in\n    tag_40:\n        /* \"#utility.yul\":726:789   */\n      swap4\n      pop\n        /* \"#utility.yul\":681:799   */\n      pop\n        /* \"#utility.yul\":838:840   */\n      0x60\n        /* \"#utility.yul\":864:917   */\n      tag_41\n        /* \"#utility.yul\":909:916   */\n      dup9\n        /* \"#utility.yul\":900:906   */\n      dup3\n        /* \"#utility.yul\":889:898   */\n      dup10\n        /* \"#utility.yul\":885:907   */\n      add\n        /* \"#utility.yul\":864:917   */\n      tag_30\n      jump\t// in\n    tag_41:\n        /* \"#utility.yul\":854:917   */\n      swap3\n      pop\n        /* \"#utility.yul\":809:927   */\n      pop\n        /* \"#utility.yul\":966:969   */\n      0x80\n        /* \"#utility.yul\":993:1046   */\n      tag_42\n        /* \"#utility.yul\":1038:1045   */\n      dup9\n        /* \"#utility.yul\":1029:1035   */\n      dup3\n        /* \"#utility.yul\":1018:1027   */\n      dup10\n        /* \"#utility.yul\":1014:1036   */\n      add\n        /* \"#utility.yul\":993:1046   */\n      tag_30\n      jump\t// in\n    tag_42:\n        /* \"#utility.yul\":983:1046   */\n      swap2\n      pop\n        /* \"#utility.yul\":937:1056   */\n      pop\n        /* \"#utility.yul\":152:1063   */\n      swap3\n      swap6\n      pop\n      swap3\n      swap6\n      swap1\n      swap4\n      pop\n      jump\t// out\n        /* \"#utility.yul\":1069:1226   */\n    tag_43:\n        /* \"#utility.yul\":1174:1219   */\n      tag_45\n        /* \"#utility.yul\":1194:1218   */\n      tag_46\n        /* \"#utility.yul\":1212:1217   */\n      dup3\n        /* \"#utility.yul\":1194:1218   */\n      tag_47\n      jump\t// in\n    tag_46:\n        /* \"#utility.yul\":1174:1219   */\n      tag_48\n      jump\t// in\n    tag_45:\n        /* \"#utility.yul\":1169:1172   */\n      dup3\n        /* \"#utility.yul\":1162:1220   */\n      mstore\n        /* \"#utility.yul\":1069:1226   */\n      pop\n      pop\n      jump\t// out\n        /* \"#utility.yul\":1232:1350   */\n    tag_49:\n        /* \"#utility.yul\":1319:1343   */\n      tag_51\n        /* \"#utility.yul\":1337:1342   */\n      dup2\n        /* \"#utility.yul\":1319:1343   */\n      tag_52\n      jump\t// in\n    tag_51:\n        /* \"#utility.yul\":1314:1317   */\n      dup3\n        /* \"#utility.yul\":1307:1344   */\n      mstore\n        /* \"#utility.yul\":1232:1350   */\n      pop\n      pop\n      jump\t// out\n        /* \"#utility.yul\":1356:1513   */\n    tag_53:\n        /* \"#utility.yul\":1461:1506   */\n      tag_55\n        /* \"#utility.yul\":1481:1505   */\n      tag_56\n        /* \"#utility.yul\":1499:1504   */\n      dup3\n        /* \"#utility.yul\":1481:1505   */\n      tag_52\n      jump\t// in\n    tag_56:\n        /* \"#utility.yul\":1461:1506   */\n      tag_57\n      jump\t// in\n    tag_55:\n        /* \"#utility.yul\":1456:1459   */\n      dup3\n        /* \"#utility.yul\":1449:1507   */\n      mstore\n        /* \"#utility.yul\":1356:1513   */\n      pop\n      pop\n      jump\t// out\n        /* \"#utility.yul\":1519:1916   */\n    tag_26:\n        /* \"#utility.yul\":1659:1662   */\n      0x00\n        /* \"#utility.yul\":1674:1749   */\n      tag_59\n        /* \"#utility.yul\":1745:1748   */\n      dup3\n        /* \"#utility.yul\":1736:1742   */\n      dup6\n        /* \"#utility.yul\":1674:1749   */\n      tag_53\n      jump\t// in\n    tag_59:\n        /* \"#utility.yul\":1774:1776   */\n      0x20\n        /* \"#utility.yul\":1769:1772   */\n      dup3\n        /* \"#utility.yul\":1765:1777   */\n      add\n        /* \"#utility.yul\":1758:1777   */\n      swap2\n      pop\n        /* \"#utility.yul\":1787:1862   */\n      tag_60\n        /* \"#utility.yul\":1858:1861   */\n      dup3\n        /* \"#utility.yul\":1849:1855   */\n      dup5\n        /* \"#utility.yul\":1787:1862   */\n      tag_43\n      jump\t// in\n    tag_60:\n        /* \"#utility.yul\":1887:1889   */\n      0x14\n        /* \"#utility.yul\":1882:1885   */\n      dup3\n        /* \"#utility.yul\":1878:1890   */\n      add\n        /* \"#utility.yul\":1871:1890   */\n      swap2\n      pop\n        /* \"#utility.yul\":1907:1910   */\n      dup2\n        /* \"#utility.yul\":1900:1910   */\n      swap1\n      pop\n        /* \"#utility.yul\":1519:1916   */\n      swap4\n      swap3\n      pop\n      pop\n      pop\n      jump\t// out\n        /* \"#utility.yul\":1922:2144   */\n    tag_9:\n        /* \"#utility.yul\":2015:2019   */\n      0x00\n        /* \"#utility.yul\":2053:2055   */\n      0x20\n        /* \"#utility.yul\":2042:2051   */\n      dup3\n        /* \"#utility.yul\":2038:2056   */\n      add\n        /* \"#utility.yul\":2030:2056   */\n      swap1\n      pop\n        /* \"#utility.yul\":2066:2137   */\n      tag_62\n        /* \"#utility.yul\":2134:2135   */\n      0x00\n        /* \"#utility.yul\":2123:2132   */\n      dup4\n        /* \"#utility.yul\":2119:2136   */\n      add\n        /* \"#utility.yul\":2110:2116   */\n      dup5\n        /* \"#utility.yul\":2066:2137   */\n      tag_49\n      jump\t// in\n    tag_62:\n        /* \"#utility.yul\":1922:2144   */\n      swap3\n      swap2\n      pop\n      pop\n      jump\t// out\n        /* \"#utility.yul\":2231:2536   */\n    tag_17:\n        /* \"#utility.yul\":2271:2274   */\n      0x00\n        /* \"#utility.yul\":2290:2310   */\n      tag_66\n        /* \"#utility.yul\":2308:2309   */\n      dup3\n        /* \"#utility.yul\":2290:2310   */\n      tag_52\n      jump\t// in\n    tag_66:\n        /* \"#utility.yul\":2285:2310   */\n      swap2\n      pop\n        /* \"#utility.yul\":2324:2344   */\n      tag_67\n        /* \"#utility.yul\":2342:2343   */\n      dup4\n        /* \"#utility.yul\":2324:2344   */\n      tag_52\n      jump\t// in\n    tag_67:\n        /* \"#utility.yul\":2319:2344   */\n      swap3\n      pop\n        /* \"#utility.yul\":2478:2479   */\n      dup3\n        /* \"#utility.yul\":2410:2476   */\n      0xffffffffffffffffffffffffffffffffffffffffffffffffffffffffffffffff\n        /* \"#utility.yul\":2406:2480   */\n      sub\n        /* \"#utility.yul\":2403:2404   */\n      dup3\n        /* \"#utility.yul\":2400:2481   */\n      gt\n        /* \"#utility.yul\":2397:2504   */\n      iszero\n      tag_68\n      jumpi\n        /* \"#utility.yul\":2484:2502   */\n      tag_69\n      tag_70\n      jump\t// in\n    tag_69:\n        /* \"#utility.yul\":2397:2504   */\n    tag_68:\n        /* \"#utility.yul\":2528:2529   */\n      dup3\n        /* \"#utility.yul\":2525:2526   */\n      dup3\n        /* \"#utility.yul\":2521:2530   */\n      add\n        /* \"#utility.yul\":2514:2530   */\n      swap1\n      pop\n        /* \"#utility.yul\":2231:2536   */\n      swap3\n      swap2\n      pop\n      pop\n      jump\t// out\n        /* \"#utility.yul\":2542:2727   */\n    tag_14:\n        /* \"#utility.yul\":2582:2583   */\n      0x00\n        /* \"#utility.yul\":2599:2619   */\n      tag_72\n        /* \"#utility.yul\":2617:2618   */\n      dup3\n        /* \"#utility.yul\":2599:2619   */\n      tag_52\n      jump\t// in\n    tag_72:\n        /* \"#utility.yul\":2594:2619   */\n      swap2\n      pop\n        /* \"#utility.yul\":2633:2653   */\n      tag_73\n        /* \"#utility.yul\":2651:2652   */\n      dup4\n        /* \"#utility.yul\":2633:2653   */\n      tag_52\n      jump\t// in\n    tag_73:\n        /* \"#utility.yul\":2628:2653   */\n      swap3\n      pop\n        /* \"#utility.yul\":2672:2673   */\n      dup3\n        /* \"#utility.yul\":2662:2697   */\n      tag_74\n      jumpi\n        /* \"#utility.yul\":2677:2695   */\n      tag_75\n      tag_76\n      jump\t// in\n    tag_75:\n        /* \"#utility.yul\":2662:2697   */\n    tag_74:\n        /* \"#utility.yul\":2719:2720   */\n      dup3\n        /* \"#utility.yul\":2716:2717   */\n      dup3\n        /* \"#utility.yul\":2712:2721   */\n      div\n        /* \"#utility.yul\":2707:2721   */\n      swap1\n      pop\n        /* \"#utility.yul\":2542:2727   */\n      swap3\n      swap2\n      pop\n      pop\n      jump\t// out\n        /* \"#utility.yul\":2733:2829   */\n    tag_47:\n        /* \"#utility.yul\":2770:2777   */\n      0x00\n        /* \"#utility.yul\":2799:2823   */\n      tag_78\n        /* \"#utility.yul\":2817:2822   */\n      dup3\n        /* \"#utility.yul\":2799:2823   */\n      tag_79\n      jump\t// in\n    tag_78:\n        /* \"#utility.yul\":2788:2823   */\n      swap1\n      pop\n        /* \"#utility.yul\":2733:2829   */\n      swap2\n      swap1\n      pop\n      jump\t// out\n        /* \"#utility.yul\":2835:2961   */\n    tag_79:\n        /* \"#utility.yul\":2872:2879   */\n      0x00\n        /* \"#utility.yul\":2912:2954   */\n      0xffffffffffffffffffffffffffffffffffffffff\n        /* \"#utility.yul\":2905:2910   */\n      dup3\n        /* \"#utility.yul\":2901:2955   */\n      and\n        /* \"#utility.yul\":2890:2955   */\n      swap1\n      pop\n        /* \"#utility.yul\":2835:2961   */\n      swap2\n      swap1\n      pop\n      jump\t// out\n        /* \"#utility.yul\":2967:3044   */\n    tag_52:\n        /* \"#utility.yul\":3004:3011   */\n      0x00\n        /* \"#utility.yul\":3033:3038   */\n      dup2\n        /* \"#utility.yul\":3022:3038   */\n      swap1\n      pop\n        /* \"#utility.yul\":2967:3044   */\n      swap2\n      swap1\n      pop\n      jump\t// out\n        /* \"#utility.yul\":3050:3150   */\n    tag_48:\n        /* \"#utility.yul\":3089:3096   */\n      0x00\n        /* \"#utility.yul\":3118:3144   */\n      tag_83\n        /* \"#utility.yul\":3138:3143   */\n      dup3\n        /* \"#utility.yul\":3118:3144   */\n      tag_84\n      jump\t// in\n    tag_83:\n        /* \"#utility.yul\":3107:3144   */\n      swap1\n      pop\n        /* \"#utility.yul\":3050:3150   */\n      swap2\n      swap1\n      pop\n      jump\t// out\n        /* \"#utility.yul\":3156:3250   */\n    tag_84:\n        /* \"#utility.yul\":3195:3202   */\n      0x00\n        /* \"#utility.yul\":3224:3244   */\n      tag_86\n        /* \"#utility.yul\":3238:3243   */\n      dup3\n        /* \"#utility.yul\":3224:3244   */\n      tag_87\n      jump\t// in\n    tag_86:\n        /* \"#utility.yul\":3213:3244   */\n      swap1\n      pop\n        /* \"#utility.yul\":3156:3250   */\n      swap2\n      swap1\n      pop\n      jump\t// out\n        /* \"#utility.yul\":3256:3335   */\n    tag_57:\n        /* \"#utility.yul\":3295:3302   */\n      0x00\n        /* \"#utility.yul\":3324:3329   */\n      dup2\n        /* \"#utility.yul\":3313:3329   */\n      swap1\n      pop\n        /* \"#utility.yul\":3256:3335   */\n      swap2\n      swap1\n      pop\n      jump\t// out\n        /* \"#utility.yul\":3341:3517   */\n    tag_28:\n        /* \"#utility.yul\":3373:3374   */\n      0x00\n        /* \"#utility.yul\":3390:3410   */\n      tag_90\n        /* \"#utility.yul\":3408:3409   */\n      dup3\n        /* \"#utility.yul\":3390:3410   */\n      tag_52\n      jump\t// in\n    tag_90:\n        /* \"#utility.yul\":3385:3410   */\n      swap2\n      pop\n        /* \"#utility.yul\":3424:3444   */\n      tag_91\n        /* \"#utility.yul\":3442:3443   */\n      dup4\n        /* \"#utility.yul\":3424:3444   */\n      tag_52\n      jump\t// in\n    tag_91:\n        /* \"#utility.yul\":3419:3444   */\n      swap3\n      pop\n        /* \"#utility.yul\":3463:3464   */\n      dup3\n        /* \"#utility.yul\":3453:3488   */\n      tag_92\n      jumpi\n        /* \"#utility.yul\":3468:3486   */\n      tag_93\n      tag_76\n      jump\t// in\n    tag_93:\n        /* \"#utility.yul\":3453:3488   */\n    tag_92:\n        /* \"#utility.yul\":3509:3510   */\n      dup3\n        /* \"#utility.yul\":3506:3507   */\n      dup3\n        /* \"#utility.yul\":3502:3511   */\n      mod\n        /* \"#utility.yul\":3497:3511   */\n      swap1\n      pop\n        /* \"#utility.yul\":3341:3517   */\n      swap3\n      swap2\n      pop\n      pop\n      jump\t// out\n        /* \"#utility.yul\":3523:3703   */\n    tag_70:\n        /* \"#utility.yul\":3571:3648   */\n      0x4e487b7100000000000000000000000000000000000000000000000000000000\n        /* \"#utility.yul\":3568:3569   */\n      0x00\n        /* \"#utility.yul\":3561:3649   */\n      mstore\n        /* \"#utility.yul\":3668:3672   */\n      0x11\n        /* \"#utility.yul\":3665:3666   */\n      0x04\n        /* \"#utility.yul\":3658:3673   */\n      mstore\n        /* \"#utility.yul\":3692:3696   */\n      0x24\n        /* \"#utility.yul\":3689:3690   */\n      0x00\n        /* \"#utility.yul\":3682:3697   */\n      revert\n        /* \"#utility.yul\":3709:3889   */\n    tag_76:\n        /* \"#utility.yul\":3757:3834   */\n      0x4e487b7100000000000000000000000000000000000000000000000000000000\n        /* \"#utility.yul\":3754:3755   */\n      0x00\n        /* \"#utility.yul\":3747:3835   */\n      mstore\n        /* \"#utility.yul\":3854:3858   */\n      0x12\n        /* \"#utility.yul\":3851:3852   */\n      0x04\n        /* \"#utility.yul\":3844:3859   */\n      mstore\n        /* \"#utility.yul\":3878:3882   */\n      0x24\n        /* \"#utility.yul\":3875:3876   */\n      0x00\n        /* \"#utility.yul\":3868:3883   */\n      revert\n        /* \"#utility.yul\":4018:4135   */\n    tag_37:\n        /* \"#utility.yul\":4127:4128   */\n      0x00\n        /* \"#utility.yul\":4124:4125   */\n      dup1\n        /* \"#utility.yul\":4117:4129   */\n      revert\n        /* \"#utility.yul\":4141:4235   */\n    tag_87:\n        /* \"#utility.yul\":4174:4182   */\n      0x00\n        /* \"#utility.yul\":4222:4227   */\n      dup2\n        /* \"#utility.yul\":4218:4220   */\n      0x60\n        /* \"#utility.yul\":4214:4228   */\n      shl\n        /* \"#utility.yul\":4193:4228   */\n      swap1\n      pop\n        /* \"#utility.yul\":4141:4235   */\n      swap2\n      swap1\n      pop\n      jump\t// out\n        /* \"#utility.yul\":4241:4363   */\n    tag_33:\n        /* \"#utility.yul\":4314:4338   */\n      tag_101\n        /* \"#utility.yul\":4332:4337   */\n      dup2\n        /* \"#utility.yul\":4314:4338   */\n      tag_52\n      jump\t// in\n    tag_101:\n        /* \"#utility.yul\":4307:4312   */\n      dup2\n        /* \"#utility.yul\":4304:4339   */\n      eq\n        /* \"#utility.yul\":4294:4357   */\n      tag_102\n      jumpi\n        /* \"#utility.yul\":4353:4354   */\n      0x00\n        /* \"#utility.yul\":4350:4351   */\n      dup1\n        /* \"#utility.yul\":4343:4355   */\n      revert\n        /* \"#utility.yul\":4294:4357   */\n    tag_102:\n        /* \"#utility.yul\":4241:4363   */\n      pop\n      jump\t// out\n\n    auxdata: 0xa264697066735822122047e59b6e81a1477e2bb34fc12bb032c50b42f64ef33c8ab085b91609f0a0c2d164736f6c63430008070033\n}\n",
				"bytecode": {
					"linkReferences": {},
					"object": "608060405234801561001057600080fd5b5061041a806100206000396000f3fe608060405234801561001057600080fd5b506004361061002b5760003560e01c806355c7b2a014610030575b600080fd5b61004a6004803603810190610045919061013c565b610060565b6040516100579190610220565b60405180910390f35b60008061006b6100e3565b905060648461007a9190610291565b811161008957869150506100da565b60648385610097919061023b565b6100a19190610291565b81116100b057859150506100da565b606483856100be919061023b565b6100c89190610291565b8111156100d857849150506100da565b505b95945050505050565b600080600342336040516020016100fb9291906101f4565b6040516020818303038152906040528051906020012060001c61011e919061032c565b90508091505090565b600081359050610136816103cd565b92915050565b600080600080600060a08688031215610158576101576103bb565b5b600061016688828901610127565b955050602061017788828901610127565b945050604061018888828901610127565b935050606061019988828901610127565b92505060806101aa88828901610127565b9150509295509295909350565b6101c86101c3826102c2565b6102fe565b82525050565b6101d7816102f4565b82525050565b6101ee6101e9826102f4565b610322565b82525050565b600061020082856101dd565b60208201915061021082846101b7565b6014820191508190509392505050565b600060208201905061023560008301846101ce565b92915050565b6000610246826102f4565b9150610251836102f4565b9250827fffffffffffffffffffffffffffffffffffffffffffffffffffffffffffffffff038211156102865761028561035d565b5b828201905092915050565b600061029c826102f4565b91506102a7836102f4565b9250826102b7576102b661038c565b5b828204905092915050565b60006102cd826102d4565b9050919050565b600073ffffffffffffffffffffffffffffffffffffffff82169050919050565b6000819050919050565b600061030982610310565b9050919050565b600061031b826103c0565b9050919050565b6000819050919050565b6000610337826102f4565b9150610342836102f4565b9250826103525761035161038c565b5b828206905092915050565b7f4e487b7100000000000000000000000000000000000000000000000000000000600052601160045260246000fd5b7f4e487b7100000000000000000000000000000000000000000000000000000000600052601260045260246000fd5b600080fd5b60008160601b9050919050565b6103d6816102f4565b81146103e157600080fd5b5056fea264697066735822122047e59b6e81a1477e2bb34fc12bb032c50b42f64ef33c8ab085b91609f0a0c2d164736f6c63430008070033",
					"opcodes": "PUSH1 0x80 PUSH1 0x40 MSTORE CALLVALUE DUP1 ISZERO PUSH2 0x10 JUMPI PUSH1 0x0 DUP1 REVERT JUMPDEST POP PUSH2 0x41A DUP1 PUSH2 0x20 PUSH1 0x0 CODECOPY PUSH1 0x0 RETURN INVALID PUSH1 0x80 PUSH1 0x40 MSTORE CALLVALUE DUP1 ISZERO PUSH2 0x10 JUMPI PUSH1 0x0 DUP1 REVERT JUMPDEST POP PUSH1 0x4 CALLDATASIZE LT PUSH2 0x2B JUMPI PUSH1 0x0 CALLDATALOAD PUSH1 0xE0 SHR DUP1 PUSH4 0x55C7B2A0 EQ PUSH2 0x30 JUMPI JUMPDEST PUSH1 0x0 DUP1 REVERT JUMPDEST PUSH2 0x4A PUSH1 0x4 DUP1 CALLDATASIZE SUB DUP2 ADD SWAP1 PUSH2 0x45 SWAP2 SWAP1 PUSH2 0x13C JUMP JUMPDEST PUSH2 0x60 JUMP JUMPDEST PUSH1 0x40 MLOAD PUSH2 0x57 SWAP2 SWAP1 PUSH2 0x220 JUMP JUMPDEST PUSH1 0x40 MLOAD DUP1 SWAP2 SUB SWAP1 RETURN JUMPDEST PUSH1 0x0 DUP1 PUSH2 0x6B PUSH2 0xE3 JUMP JUMPDEST SWAP1 POP PUSH1 0x64 DUP5 PUSH2 0x7A SWAP2 SWAP1 PUSH2 0x291 JUMP JUMPDEST DUP2 GT PUSH2 0x89 JUMPI DUP7 SWAP2 POP POP PUSH2 0xDA JUMP JUMPDEST PUSH1 0x64 DUP4 DUP6 PUSH2 0x97 SWAP2 SWAP1 PUSH2 0x23B JUMP JUMPDEST PUSH2 0xA1 SWAP2 SWAP1 PUSH2 0x291 JUMP JUMPDEST DUP2 GT PUSH2 0xB0 JUMPI DUP6 SWAP2 POP POP PUSH2 0xDA JUMP JUMPDEST PUSH1 0x64 DUP4 DUP6 PUSH2 0xBE SWAP2 SWAP1 PUSH2 0x23B JUMP JUMPDEST PUSH2 0xC8 SWAP2 SWAP1 PUSH2 0x291 JUMP JUMPDEST DUP2 GT ISZERO PUSH2 0xD8 JUMPI DUP5 SWAP2 POP POP PUSH2 0xDA JUMP JUMPDEST POP JUMPDEST SWAP6 SWAP5 POP POP POP POP POP JUMP JUMPDEST PUSH1 0x0 DUP1 PUSH1 0x3 TIMESTAMP CALLER PUSH1 0x40 MLOAD PUSH1 0x20 ADD PUSH2 0xFB SWAP3 SWAP2 SWAP1 PUSH2 0x1F4 JUMP JUMPDEST PUSH1 0x40 MLOAD PUSH1 0x20 DUP2 DUP4 SUB SUB DUP2 MSTORE SWAP1 PUSH1 0x40 MSTORE DUP1 MLOAD SWAP1 PUSH1 0x20 ADD KECCAK256 PUSH1 0x0 SHR PUSH2 0x11E SWAP2 SWAP1 PUSH2 0x32C JUMP JUMPDEST SWAP1 POP DUP1 SWAP2 POP POP SWAP1 JUMP JUMPDEST PUSH1 0x0 DUP2 CALLDATALOAD SWAP1 POP PUSH2 0x136 DUP2 PUSH2 0x3CD JUMP JUMPDEST SWAP3 SWAP2 POP POP JUMP JUMPDEST PUSH1 0x0 DUP1 PUSH1 0x0 DUP1 PUSH1 0x0 PUSH1 0xA0 DUP7 DUP9 SUB SLT ISZERO PUSH2 0x158 JUMPI PUSH2 0x157 PUSH2 0x3BB JUMP JUMPDEST JUMPDEST PUSH1 0x0 PUSH2 0x166 DUP9 DUP3 DUP10 ADD PUSH2 0x127 JUMP JUMPDEST SWAP6 POP POP PUSH1 0x20 PUSH2 0x177 DUP9 DUP3 DUP10 ADD PUSH2 0x127 JUMP JUMPDEST SWAP5 POP POP PUSH1 0x40 PUSH2 0x188 DUP9 DUP3 DUP10 ADD PUSH2 0x127 JUMP JUMPDEST SWAP4 POP POP PUSH1 0x60 PUSH2 0x199 DUP9 DUP3 DUP10 ADD PUSH2 0x127 JUMP JUMPDEST SWAP3 POP POP PUSH1 0x80 PUSH2 0x1AA DUP9 DUP3 DUP10 ADD PUSH2 0x127 JUMP JUMPDEST SWAP2 POP POP SWAP3 SWAP6 POP SWAP3 SWAP6 SWAP1 SWAP4 POP JUMP JUMPDEST PUSH2 0x1C8 PUSH2 0x1C3 DUP3 PUSH2 0x2C2 JUMP JUMPDEST PUSH2 0x2FE JUMP JUMPDEST DUP3 MSTORE POP POP JUMP JUMPDEST PUSH2 0x1D7 DUP2 PUSH2 0x2F4 JUMP JUMPDEST DUP3 MSTORE POP POP JUMP JUMPDEST PUSH2 0x1EE PUSH2 0x1E9 DUP3 PUSH2 0x2F4 JUMP JUMPDEST PUSH2 0x322 JUMP JUMPDEST DUP3 MSTORE POP POP JUMP JUMPDEST PUSH1 0x0 PUSH2 0x200 DUP3 DUP6 PUSH2 0x1DD JUMP JUMPDEST PUSH1 0x20 DUP3 ADD SWAP2 POP PUSH2 0x210 DUP3 DUP5 PUSH2 0x1B7 JUMP JUMPDEST PUSH1 0x14 DUP3 ADD SWAP2 POP DUP2 SWAP1 POP SWAP4 SWAP3 POP POP POP JUMP JUMPDEST PUSH1 0x0 PUSH1 0x20 DUP3 ADD SWAP1 POP PUSH2 0x235 PUSH1 0x0 DUP4 ADD DUP5 PUSH2 0x1CE JUMP JUMPDEST SWAP3 SWAP2 POP POP JUMP JUMPDEST PUSH1 0x0 PUSH2 0x246 DUP3 PUSH2 0x2F4 JUMP JUMPDEST SWAP2 POP PUSH2 0x251 DUP4 PUSH2 0x2F4 JUMP JUMPDEST SWAP3 POP DUP3 PUSH32 0xFFFFFFFFFFFFFFFFFFFFFFFFFFFFFFFFFFFFFFFFFFFFFFFFFFFFFFFFFFFFFFFF SUB DUP3 GT ISZERO PUSH2 0x286 JUMPI PUSH2 0x285 PUSH2 0x35D JUMP JUMPDEST JUMPDEST DUP3 DUP3 ADD SWAP1 POP SWAP3 SWAP2 POP POP JUMP JUMPDEST PUSH1 0x0 PUSH2 0x29C DUP3 PUSH2 0x2F4 JUMP JUMPDEST SWAP2 POP PUSH2 0x2A7 DUP4 PUSH2 0x2F4 JUMP JUMPDEST SWAP3 POP DUP3 PUSH2 0x2B7 JUMPI PUSH2 0x2B6 PUSH2 0x38C JUMP JUMPDEST JUMPDEST DUP3 DUP3 DIV SWAP1 POP SWAP3 SWAP2 POP POP JUMP JUMPDEST PUSH1 0x0 PUSH2 0x2CD DUP3 PUSH2 0x2D4 JUMP JUMPDEST SWAP1 POP SWAP2 SWAP1 POP JUMP JUMPDEST PUSH1 0x0 PUSH20 0xFFFFFFFFFFFFFFFFFFFFFFFFFFFFFFFFFFFFFFFF DUP3 AND SWAP1 POP SWAP2 SWAP1 POP JUMP JUMPDEST PUSH1 0x0 DUP2 SWAP1 POP SWAP2 SWAP1 POP JUMP JUMPDEST PUSH1 0x0 PUSH2 0x309 DUP3 PUSH2 0x310 JUMP JUMPDEST SWAP1 POP SWAP2 SWAP1 POP JUMP JUMPDEST PUSH1 0x0 PUSH2 0x31B DUP3 PUSH2 0x3C0 JUMP JUMPDEST SWAP1 POP SWAP2 SWAP1 POP JUMP JUMPDEST PUSH1 0x0 DUP2 SWAP1 POP SWAP2 SWAP1 POP JUMP JUMPDEST PUSH1 0x0 PUSH2 0x337 DUP3 PUSH2 0x2F4 JUMP JUMPDEST SWAP2 POP PUSH2 0x342 DUP4 PUSH2 0x2F4 JUMP JUMPDEST SWAP3 POP DUP3 PUSH2 0x352 JUMPI PUSH2 0x351 PUSH2 0x38C JUMP JUMPDEST JUMPDEST DUP3 DUP3 MOD SWAP1 POP SWAP3 SWAP2 POP POP JUMP JUMPDEST PUSH32 0x4E487B7100000000000000000000000000000000000000000000000000000000 PUSH1 0x0 MSTORE PUSH1 0x11 PUSH1 0x4 MSTORE PUSH1 0x24 PUSH1 0x0 REVERT JUMPDEST PUSH32 0x4E487B7100000000000000000000000000000000000000000000000000000000 PUSH1 0x0 MSTORE PUSH1 0x12 PUSH1 0x4 MSTORE PUSH1 0x24 PUSH1 0x0 REVERT JUMPDEST PUSH1 0x0 DUP1 REVERT JUMPDEST PUSH1 0x0 DUP2 PUSH1 0x60 SHL SWAP1 POP SWAP2 SWAP1 POP JUMP JUMPDEST PUSH2 0x3D6 DUP2 PUSH2 0x2F4 JUMP JUMPDEST DUP2 EQ PUSH2 0x3E1 JUMPI PUSH1 0x0 DUP1 REVERT JUMPDEST POP JUMP INVALID LOG2 PUSH5 0x6970667358 0x22 SLT KECCAK256 SELFBALANCE 0xE5 SWAP12 PUSH15 0x81A1477E2BB34FC12BB032C50B42F6 0x4E RETURN EXTCODECOPY DUP11 0xB0 DUP6 0xB9 AND MULMOD CREATE LOG0 0xC2 0xD1 PUSH5 0x736F6C6343 STOP ADDMOD SMOD STOP CALLER "
				},
				"gasEstimates": {
					"creation": {
						"codeDepositCost": "210000",
						"executionCost": "251",
						"totalCost": "210251"
					},
					"external": {
						"randomTest(uint256,uint256,uint256,uint256,uint256)": "infinite"
					},
					"internal": {
						"random()": "infinite"
					}
				},
				"methodIdentifiers": {
					"randomTest(uint256,uint256,uint256,uint256,uint256)": "55c7b2a0"
				}
			},
			"userdoc": {
				"kind": "user",
				"methods": {},
				"version": 1
			}
		}
	}
}