{
	"Dropsite.sol": {
		"Dropsite": {
			"abi": [
				{
					"inputs": [
						{
							"internalType": "string",
							"name": "name",
							"type": "string"
						}
					],
					"stateMutability": "nonpayable",
					"type": "constructor"
				},
				{
					"anonymous": false,
					"inputs": [
						{
							"indexed": true,
							"internalType": "address",
							"name": "operator",
							"type": "address"
						},
						{
							"indexed": true,
							"internalType": "address",
							"name": "from",
							"type": "address"
						},
						{
							"indexed": true,
							"internalType": "address",
							"name": "to",
							"type": "address"
						},
						{
							"indexed": false,
							"internalType": "uint256",
							"name": "id",
							"type": "uint256"
						},
						{
							"indexed": false,
							"internalType": "uint256",
							"name": "value",
							"type": "uint256"
						}
					],
					"name": "TransferSingle",
					"type": "event"
				},
				{
					"inputs": [],
					"name": "ContractBalance",
					"outputs": [
						{
							"internalType": "uint256",
							"name": "",
							"type": "uint256"
						}
					],
					"stateMutability": "view",
					"type": "function"
				},
				{
					"inputs": [
						{
							"internalType": "address",
							"name": "user_addr",
							"type": "address"
						}
					],
					"name": "CryptoRandomMint",
					"outputs": [
						{
							"internalType": "uint256[]",
							"name": "",
							"type": "uint256[]"
						},
						{
							"internalType": "string",
							"name": "",
							"type": "string"
						}
					],
					"stateMutability": "payable",
					"type": "function"
				},
				{
					"inputs": [
						{
							"internalType": "address",
							"name": "user_addr",
							"type": "address"
						},
						{
							"internalType": "uint256",
							"name": "noOfMints",
							"type": "uint256"
						}
					],
					"name": "FiatRandomMint",
					"outputs": [
						{
							"internalType": "uint256[]",
							"name": "",
							"type": "uint256[]"
						},
						{
							"internalType": "string[]",
							"name": "",
							"type": "string[]"
						}
					],
					"stateMutability": "nonpayable",
					"type": "function"
				},
				{
					"inputs": [],
					"name": "IsPaused",
					"outputs": [
						{
							"internalType": "bool",
							"name": "",
							"type": "bool"
						}
					],
					"stateMutability": "view",
					"type": "function"
				},
				{
					"inputs": [],
					"name": "Owner",
					"outputs": [
						{
							"internalType": "address payable",
							"name": "",
							"type": "address"
						}
					],
					"stateMutability": "view",
					"type": "function"
				},
				{
					"inputs": [],
					"name": "checkMintedCategoryWise",
					"outputs": [
						{
							"internalType": "uint256",
							"name": "",
							"type": "uint256"
						},
						{
							"internalType": "uint256",
							"name": "",
							"type": "uint256"
						},
						{
							"internalType": "uint256",
							"name": "",
							"type": "uint256"
						}
					],
					"stateMutability": "view",
					"type": "function"
				},
				{
					"inputs": [],
					"name": "checkTotalMinted",
					"outputs": [
						{
							"internalType": "uint256",
							"name": "",
							"type": "uint256"
						}
					],
					"stateMutability": "view",
					"type": "function"
				},
				{
					"inputs": [],
					"name": "getMintFee",
					"outputs": [
						{
							"internalType": "uint256",
							"name": "",
							"type": "uint256"
						}
					],
					"stateMutability": "view",
					"type": "function"
				},
				{
					"inputs": [],
					"name": "openDropsite",
					"outputs": [],
					"stateMutability": "nonpayable",
					"type": "function"
				},
				{
					"inputs": [
						{
							"internalType": "address",
							"name": "user_addr",
							"type": "address"
						}
					],
					"name": "randomMinting",
					"outputs": [
						{
							"internalType": "uint256",
							"name": "",
							"type": "uint256"
						},
						{
							"internalType": "string",
							"name": "",
							"type": "string"
						}
					],
					"stateMutability": "nonpayable",
					"type": "function"
				},
				{
					"inputs": [
						{
							"internalType": "address",
							"name": "addr",
							"type": "address"
						}
					],
					"name": "returnOwner",
					"outputs": [
						{
							"internalType": "uint256[]",
							"name": "",
							"type": "uint256[]"
						}
					],
					"stateMutability": "view",
					"type": "function"
				},
				{
					"inputs": [
						{
							"internalType": "uint256",
							"name": "_mintFee",
							"type": "uint256"
						}
					],
					"name": "setMintFee",
					"outputs": [],
					"stateMutability": "nonpayable",
					"type": "function"
				},
				{
					"inputs": [],
					"name": "stopDropsite",
					"outputs": [],
					"stateMutability": "nonpayable",
					"type": "function"
				},
				{
					"inputs": [
						{
							"internalType": "address payable",
							"name": "to",
							"type": "address"
						}
					],
					"name": "withDraw",
					"outputs": [],
					"stateMutability": "payable",
					"type": "function"
				}
			],
			"devdoc": {
				"kind": "dev",
				"methods": {},
				"version": 1
			},
			"evm": {
				"assembly": "    /* \"Dropsite.sol\":146:6600  contract Dropsite is ERC1155_Dropsite  { ... */\n  mstore(0x40, 0x80)\n    /* \"Dropsite.sol\":241:257  string  data =\"\" */\n  mload(0x40)\n  dup1\n  0x20\n  add\n  0x40\n  mstore\n  dup1\n  0x00\n  dup2\n  mstore\n  pop\n  0x02\n  swap1\n  dup1\n  mload\n  swap1\n  0x20\n  add\n  swap1\n  tag_1\n  swap3\n  swap2\n  swap1\n  tag_2\n  jump\t// in\ntag_1:\n  pop\n    /* \"Dropsite.sol\":440:506  uint8[20] private nums = [0,1,1,2,2,2,2,2,2,2,2,2,2,2,2,2,2,2,2,2] */\n  mload(0x40)\n  dup1\n  0x0280\n  add\n  0x40\n  mstore\n  dup1\n    /* \"Dropsite.sol\":466:467  0 */\n  0x00\n    /* \"Dropsite.sol\":440:506  uint8[20] private nums = [0,1,1,2,2,2,2,2,2,2,2,2,2,2,2,2,2,2,2,2] */\n  0xff\n  and\n  dup2\n  mstore\n  0x20\n  add\n    /* \"Dropsite.sol\":468:469  1 */\n  0x01\n    /* \"Dropsite.sol\":440:506  uint8[20] private nums = [0,1,1,2,2,2,2,2,2,2,2,2,2,2,2,2,2,2,2,2] */\n  0xff\n  and\n  dup2\n  mstore\n  0x20\n  add\n    /* \"Dropsite.sol\":470:471  1 */\n  0x01\n    /* \"Dropsite.sol\":440:506  uint8[20] private nums = [0,1,1,2,2,2,2,2,2,2,2,2,2,2,2,2,2,2,2,2] */\n  0xff\n  and\n  dup2\n  mstore\n  0x20\n  add\n    /* \"Dropsite.sol\":472:473  2 */\n  0x02\n    /* \"Dropsite.sol\":440:506  uint8[20] private nums = [0,1,1,2,2,2,2,2,2,2,2,2,2,2,2,2,2,2,2,2] */\n  0xff\n  and\n  dup2\n  mstore\n  0x20\n  add\n    /* \"Dropsite.sol\":474:475  2 */\n  0x02\n    /* \"Dropsite.sol\":440:506  uint8[20] private nums = [0,1,1,2,2,2,2,2,2,2,2,2,2,2,2,2,2,2,2,2] */\n  0xff\n  and\n  dup2\n  mstore\n  0x20\n  add\n    /* \"Dropsite.sol\":476:477  2 */\n  0x02\n    /* \"Dropsite.sol\":440:506  uint8[20] private nums = [0,1,1,2,2,2,2,2,2,2,2,2,2,2,2,2,2,2,2,2] */\n  0xff\n  and\n  dup2\n  mstore\n  0x20\n  add\n    /* \"Dropsite.sol\":478:479  2 */\n  0x02\n    /* \"Dropsite.sol\":440:506  uint8[20] private nums = [0,1,1,2,2,2,2,2,2,2,2,2,2,2,2,2,2,2,2,2] */\n  0xff\n  and\n  dup2\n  mstore\n  0x20\n  add\n    /* \"Dropsite.sol\":480:481  2 */\n  0x02\n    /* \"Dropsite.sol\":440:506  uint8[20] private nums = [0,1,1,2,2,2,2,2,2,2,2,2,2,2,2,2,2,2,2,2] */\n  0xff\n  and\n  dup2\n  mstore\n  0x20\n  add\n    /* \"Dropsite.sol\":482:483  2 */\n  0x02\n    /* \"Dropsite.sol\":440:506  uint8[20] private nums = [0,1,1,2,2,2,2,2,2,2,2,2,2,2,2,2,2,2,2,2] */\n  0xff\n  and\n  dup2\n  mstore\n  0x20\n  add\n    /* \"Dropsite.sol\":484:485  2 */\n  0x02\n    /* \"Dropsite.sol\":440:506  uint8[20] private nums = [0,1,1,2,2,2,2,2,2,2,2,2,2,2,2,2,2,2,2,2] */\n  0xff\n  and\n  dup2\n  mstore\n  0x20\n  add\n    /* \"Dropsite.sol\":486:487  2 */\n  0x02\n    /* \"Dropsite.sol\":440:506  uint8[20] private nums = [0,1,1,2,2,2,2,2,2,2,2,2,2,2,2,2,2,2,2,2] */\n  0xff\n  and\n  dup2\n  mstore\n  0x20\n  add\n    /* \"Dropsite.sol\":488:489  2 */\n  0x02\n    /* \"Dropsite.sol\":440:506  uint8[20] private nums = [0,1,1,2,2,2,2,2,2,2,2,2,2,2,2,2,2,2,2,2] */\n  0xff\n  and\n  dup2\n  mstore\n  0x20\n  add\n    /* \"Dropsite.sol\":490:491  2 */\n  0x02\n    /* \"Dropsite.sol\":440:506  uint8[20] private nums = [0,1,1,2,2,2,2,2,2,2,2,2,2,2,2,2,2,2,2,2] */\n  0xff\n  and\n  dup2\n  mstore\n  0x20\n  add\n    /* \"Dropsite.sol\":492:493  2 */\n  0x02\n    /* \"Dropsite.sol\":440:506  uint8[20] private nums = [0,1,1,2,2,2,2,2,2,2,2,2,2,2,2,2,2,2,2,2] */\n  0xff\n  and\n  dup2\n  mstore\n  0x20\n  add\n    /* \"Dropsite.sol\":494:495  2 */\n  0x02\n    /* \"Dropsite.sol\":440:506  uint8[20] private nums = [0,1,1,2,2,2,2,2,2,2,2,2,2,2,2,2,2,2,2,2] */\n  0xff\n  and\n  dup2\n  mstore\n  0x20\n  add\n    /* \"Dropsite.sol\":496:497  2 */\n  0x02\n    /* \"Dropsite.sol\":440:506  uint8[20] private nums = [0,1,1,2,2,2,2,2,2,2,2,2,2,2,2,2,2,2,2,2] */\n  0xff\n  and\n  dup2\n  mstore\n  0x20\n  add\n    /* \"Dropsite.sol\":498:499  2 */\n  0x02\n    /* \"Dropsite.sol\":440:506  uint8[20] private nums = [0,1,1,2,2,2,2,2,2,2,2,2,2,2,2,2,2,2,2,2] */\n  0xff\n  and\n  dup2\n  mstore\n  0x20\n  add\n    /* \"Dropsite.sol\":500:501  2 */\n  0x02\n    /* \"Dropsite.sol\":440:506  uint8[20] private nums = [0,1,1,2,2,2,2,2,2,2,2,2,2,2,2,2,2,2,2,2] */\n  0xff\n  and\n  dup2\n  mstore\n  0x20\n  add\n    /* \"Dropsite.sol\":502:503  2 */\n  0x02\n    /* \"Dropsite.sol\":440:506  uint8[20] private nums = [0,1,1,2,2,2,2,2,2,2,2,2,2,2,2,2,2,2,2,2] */\n  0xff\n  and\n  dup2\n  mstore\n  0x20\n  add\n    /* \"Dropsite.sol\":504:505  2 */\n  0x02\n    /* \"Dropsite.sol\":440:506  uint8[20] private nums = [0,1,1,2,2,2,2,2,2,2,2,2,2,2,2,2,2,2,2,2] */\n  0xff\n  and\n  dup2\n  mstore\n  pop\n  0x03\n  swap1\n  0x14\n  tag_3\n  swap3\n  swap2\n  swap1\n  tag_4\n  jump\t// in\ntag_3:\n  pop\n    /* \"Dropsite.sol\":1269:1273  true */\n  0x01\n    /* \"Dropsite.sol\":1246:1273  bool public IsPaused = true */\n  0x0c\n  exp(0x0100, 0x00)\n  dup2\n  sload\n  dup2\n  0xff\n  mul\n  not\n  and\n  swap1\n  dup4\n  iszero\n  iszero\n  mul\n  or\n  swap1\n  sstore\n  pop\n    /* \"Dropsite.sol\":1340:1615  constructor (string memory name){... */\n  callvalue\n  dup1\n  iszero\n  tag_5\n  jumpi\n  0x00\n  dup1\n  revert\ntag_5:\n  pop\n  mload(0x40)\n  sub(codesize, bytecodeSize)\n  dup1\n  bytecodeSize\n  dup4\n  codecopy\n  dup2\n  dup2\n  add\n  0x40\n  mstore\n  dup2\n  add\n  swap1\n  tag_6\n  swap2\n  swap1\n  tag_7\n  jump\t// in\ntag_6:\n    /* \"Dropsite.sol\":1390:1394  name */\n  dup1\n    /* \"Dropsite.sol\":1382:1387  _name */\n  0x0d\n    /* \"Dropsite.sol\":1382:1394  _name = name */\n  swap1\n  dup1\n  mload\n  swap1\n  0x20\n  add\n  swap1\n  tag_10\n  swap3\n  swap2\n  swap1\n  tag_2\n  jump\t// in\ntag_10:\n  pop\n    /* \"Dropsite.sol\":1420:1430  msg.sender */\n  caller\n    /* \"Dropsite.sol\":1404:1409  Owner */\n  0x0c\n  0x01\n    /* \"Dropsite.sol\":1404:1431  Owner = payable(msg.sender) */\n  0x0100\n  exp\n  dup2\n  sload\n  dup2\n  0xffffffffffffffffffffffffffffffffffffffff\n  mul\n  not\n  and\n  swap1\n  dup4\n  0xffffffffffffffffffffffffffffffffffffffff\n  and\n  mul\n  or\n  swap1\n  sstore\n  pop\n    /* \"Dropsite.sol\":1458:1459  0 */\n  0x00\n    /* \"Dropsite.sol\":1442:1457  TotalNFTsMinted */\n  0x04\n    /* \"Dropsite.sol\":1442:1459  TotalNFTsMinted=0 */\n  dup2\n  swap1\n  sstore\n  pop\n    /* \"Dropsite.sol\":1505:1506  1 */\n  0x01\n    /* \"Dropsite.sol\":1493:1504  numOfCopies */\n  0x05\n    /* \"Dropsite.sol\":1493:1506  numOfCopies=1 */\n  dup2\n  swap1\n  sstore\n  pop\n    /* \"Dropsite.sol\":1561:1562  0 */\n  0x00\n    /* \"Dropsite.sol\":1553:1560  Diamond */\n  0x07\n    /* \"Dropsite.sol\":1553:1562  Diamond=0 */\n  dup2\n  swap1\n  sstore\n  pop\n    /* \"Dropsite.sol\":1589:1590  0 */\n  0x00\n    /* \"Dropsite.sol\":1584:1588  Gold */\n  0x08\n    /* \"Dropsite.sol\":1584:1590  Gold=0 */\n  dup2\n  swap1\n  sstore\n  pop\n    /* \"Dropsite.sol\":1607:1608  0 */\n  0x00\n    /* \"Dropsite.sol\":1600:1606  Silver */\n  0x09\n    /* \"Dropsite.sol\":1600:1608  Silver=0 */\n  dup2\n  swap1\n  sstore\n  pop\n    /* \"Dropsite.sol\":1340:1615  constructor (string memory name){... */\n  pop\n    /* \"Dropsite.sol\":146:6600  contract Dropsite is ERC1155_Dropsite  { ... */\n  jump(tag_11)\ntag_2:\n  dup3\n  dup1\n  sload\n  tag_12\n  swap1\n  tag_13\n  jump\t// in\ntag_12:\n  swap1\n  0x00\n  mstore\n  keccak256(0x00, 0x20)\n  swap1\n  0x1f\n  add\n  0x20\n  swap1\n  div\n  dup2\n  add\n  swap3\n  dup3\n  tag_15\n  jumpi\n  0x00\n  dup6\n  sstore\n  jump(tag_14)\ntag_15:\n  dup3\n  0x1f\n  lt\n  tag_16\n  jumpi\n  dup1\n  mload\n  not(0xff)\n  and\n  dup4\n  dup1\n  add\n  or\n  dup6\n  sstore\n  jump(tag_14)\ntag_16:\n  dup3\n  dup1\n  add\n  0x01\n  add\n  dup6\n  sstore\n  dup3\n  iszero\n  tag_14\n  jumpi\n  swap2\n  dup3\n  add\ntag_17:\n  dup3\n  dup2\n  gt\n  iszero\n  tag_18\n  jumpi\n  dup3\n  mload\n  dup3\n  sstore\n  swap2\n  0x20\n  add\n  swap2\n  swap1\n  0x01\n  add\n  swap1\n  jump(tag_17)\ntag_18:\ntag_14:\n  pop\n  swap1\n  pop\n  tag_19\n  swap2\n  swap1\n  tag_20\n  jump\t// in\ntag_19:\n  pop\n  swap1\n  jump\t// out\ntag_4:\n  dup3\n  add(0x1f, 0x14)\n  0x20\n  swap1\n  div\n  dup2\n  add\n  swap3\n  dup3\n  iszero\n  tag_21\n  jumpi\n  swap2\n  0x20\n  mul\n  dup3\n  add\n  0x00\ntag_22:\n  dup4\n  dup3\n  gt\n  iszero\n  tag_23\n  jumpi\n  dup4\n  mload\n  dup4\n  dup3\n  0x0100\n  exp\n  dup2\n  sload\n  dup2\n  0xff\n  mul\n  not\n  and\n  swap1\n  dup4\n  0xff\n  and\n  mul\n  or\n  swap1\n  sstore\n  pop\n  swap3\n  0x20\n  add\n  swap3\n  0x01\n  add\n  0x20\n  dup2\n  0x00\n  add\n  div\n  swap3\n  dup4\n  add\n  swap3\n  0x01\n  sub\n  mul\n  jump(tag_22)\ntag_23:\n  dup1\n  iszero\n  tag_24\n  jumpi\n  dup3\n  dup2\n  0x0100\n  exp\n  dup2\n  sload\n  swap1\n  0xff\n  mul\n  not\n  and\n  swap1\n  sstore\n  0x01\n  add\n  0x20\n  dup2\n  0x00\n  add\n  div\n  swap3\n  dup4\n  add\n  swap3\n  0x01\n  sub\n  mul\n  jump(tag_23)\ntag_24:\n  pop\ntag_21:\n  pop\n  swap1\n  pop\n  tag_25\n  swap2\n  swap1\n  tag_20\n  jump\t// in\ntag_25:\n  pop\n  swap1\n  jump\t// out\ntag_20:\ntag_26:\n  dup1\n  dup3\n  gt\n  iszero\n  tag_27\n  jumpi\n  0x00\n  dup2\n  0x00\n  swap1\n  sstore\n  pop\n  0x01\n  add\n  jump(tag_26)\ntag_27:\n  pop\n  swap1\n  jump\t// out\n    /* \"#utility.yul\":7:428   */\ntag_29:\n    /* \"#utility.yul\":96:101   */\n  0x00\n    /* \"#utility.yul\":121:187   */\n  tag_31\n    /* \"#utility.yul\":137:186   */\n  tag_32\n    /* \"#utility.yul\":179:185   */\n  dup5\n    /* \"#utility.yul\":137:186   */\n  tag_33\n  jump\t// in\ntag_32:\n    /* \"#utility.yul\":121:187   */\n  tag_34\n  jump\t// in\ntag_31:\n    /* \"#utility.yul\":112:187   */\n  swap1\n  pop\n    /* \"#utility.yul\":210:216   */\n  dup3\n    /* \"#utility.yul\":203:208   */\n  dup2\n    /* \"#utility.yul\":196:217   */\n  mstore\n    /* \"#utility.yul\":248:252   */\n  0x20\n    /* \"#utility.yul\":241:246   */\n  dup2\n    /* \"#utility.yul\":237:253   */\n  add\n    /* \"#utility.yul\":286:289   */\n  dup5\n    /* \"#utility.yul\":277:283   */\n  dup5\n    /* \"#utility.yul\":272:275   */\n  dup5\n    /* \"#utility.yul\":268:284   */\n  add\n    /* \"#utility.yul\":265:290   */\n  gt\n    /* \"#utility.yul\":262:374   */\n  iszero\n  tag_35\n  jumpi\n    /* \"#utility.yul\":293:372   */\n  tag_36\n  tag_37\n  jump\t// in\ntag_36:\n    /* \"#utility.yul\":262:374   */\ntag_35:\n    /* \"#utility.yul\":383:422   */\n  tag_38\n    /* \"#utility.yul\":415:421   */\n  dup5\n    /* \"#utility.yul\":410:413   */\n  dup3\n    /* \"#utility.yul\":405:408   */\n  dup6\n    /* \"#utility.yul\":383:422   */\n  tag_39\n  jump\t// in\ntag_38:\n    /* \"#utility.yul\":102:428   */\n  pop\n    /* \"#utility.yul\":7:428   */\n  swap4\n  swap3\n  pop\n  pop\n  pop\n  jump\t// out\n    /* \"#utility.yul\":448:803   */\ntag_40:\n    /* \"#utility.yul\":515:520   */\n  0x00\n    /* \"#utility.yul\":564:567   */\n  dup3\n    /* \"#utility.yul\":557:561   */\n  0x1f\n    /* \"#utility.yul\":549:555   */\n  dup4\n    /* \"#utility.yul\":545:562   */\n  add\n    /* \"#utility.yul\":541:568   */\n  slt\n    /* \"#utility.yul\":531:653   */\n  tag_42\n  jumpi\n    /* \"#utility.yul\":572:651   */\n  tag_43\n  tag_44\n  jump\t// in\ntag_43:\n    /* \"#utility.yul\":531:653   */\ntag_42:\n    /* \"#utility.yul\":682:688   */\n  dup2\n    /* \"#utility.yul\":676:689   */\n  mload\n    /* \"#utility.yul\":707:797   */\n  tag_45\n    /* \"#utility.yul\":793:796   */\n  dup5\n    /* \"#utility.yul\":785:791   */\n  dup3\n    /* \"#utility.yul\":778:782   */\n  0x20\n    /* \"#utility.yul\":770:776   */\n  dup7\n    /* \"#utility.yul\":766:783   */\n  add\n    /* \"#utility.yul\":707:797   */\n  tag_29\n  jump\t// in\ntag_45:\n    /* \"#utility.yul\":698:797   */\n  swap2\n  pop\n    /* \"#utility.yul\":521:803   */\n  pop\n    /* \"#utility.yul\":448:803   */\n  swap3\n  swap2\n  pop\n  pop\n  jump\t// out\n    /* \"#utility.yul\":809:1333   */\ntag_7:\n    /* \"#utility.yul\":889:895   */\n  0x00\n    /* \"#utility.yul\":938:940   */\n  0x20\n    /* \"#utility.yul\":926:935   */\n  dup3\n    /* \"#utility.yul\":917:924   */\n  dup5\n    /* \"#utility.yul\":913:936   */\n  sub\n    /* \"#utility.yul\":909:941   */\n  slt\n    /* \"#utility.yul\":906:1025   */\n  iszero\n  tag_47\n  jumpi\n    /* \"#utility.yul\":944:1023   */\n  tag_48\n  tag_49\n  jump\t// in\ntag_48:\n    /* \"#utility.yul\":906:1025   */\ntag_47:\n    /* \"#utility.yul\":1085:1086   */\n  0x00\n    /* \"#utility.yul\":1074:1083   */\n  dup3\n    /* \"#utility.yul\":1070:1087   */\n  add\n    /* \"#utility.yul\":1064:1088   */\n  mload\n    /* \"#utility.yul\":1115:1133   */\n  0xffffffffffffffff\n    /* \"#utility.yul\":1107:1113   */\n  dup2\n    /* \"#utility.yul\":1104:1134   */\n  gt\n    /* \"#utility.yul\":1101:1218   */\n  iszero\n  tag_50\n  jumpi\n    /* \"#utility.yul\":1137:1216   */\n  tag_51\n  tag_52\n  jump\t// in\ntag_51:\n    /* \"#utility.yul\":1101:1218   */\ntag_50:\n    /* \"#utility.yul\":1242:1316   */\n  tag_53\n    /* \"#utility.yul\":1308:1315   */\n  dup5\n    /* \"#utility.yul\":1299:1305   */\n  dup3\n    /* \"#utility.yul\":1288:1297   */\n  dup6\n    /* \"#utility.yul\":1284:1306   */\n  add\n    /* \"#utility.yul\":1242:1316   */\n  tag_40\n  jump\t// in\ntag_53:\n    /* \"#utility.yul\":1232:1316   */\n  swap2\n  pop\n    /* \"#utility.yul\":1035:1326   */\n  pop\n    /* \"#utility.yul\":809:1333   */\n  swap3\n  swap2\n  pop\n  pop\n  jump\t// out\n    /* \"#utility.yul\":1339:1468   */\ntag_34:\n    /* \"#utility.yul\":1373:1379   */\n  0x00\n    /* \"#utility.yul\":1400:1420   */\n  tag_55\n  tag_56\n  jump\t// in\ntag_55:\n    /* \"#utility.yul\":1390:1420   */\n  swap1\n  pop\n    /* \"#utility.yul\":1429:1462   */\n  tag_57\n    /* \"#utility.yul\":1457:1461   */\n  dup3\n    /* \"#utility.yul\":1449:1455   */\n  dup3\n    /* \"#utility.yul\":1429:1462   */\n  tag_58\n  jump\t// in\ntag_57:\n    /* \"#utility.yul\":1339:1468   */\n  swap2\n  swap1\n  pop\n  jump\t// out\n    /* \"#utility.yul\":1474:1549   */\ntag_56:\n    /* \"#utility.yul\":1507:1513   */\n  0x00\n    /* \"#utility.yul\":1540:1542   */\n  0x40\n    /* \"#utility.yul\":1534:1543   */\n  mload\n    /* \"#utility.yul\":1524:1543   */\n  swap1\n  pop\n    /* \"#utility.yul\":1474:1549   */\n  swap1\n  jump\t// out\n    /* \"#utility.yul\":1555:1863   */\ntag_33:\n    /* \"#utility.yul\":1617:1621   */\n  0x00\n    /* \"#utility.yul\":1707:1725   */\n  0xffffffffffffffff\n    /* \"#utility.yul\":1699:1705   */\n  dup3\n    /* \"#utility.yul\":1696:1726   */\n  gt\n    /* \"#utility.yul\":1693:1749   */\n  iszero\n  tag_61\n  jumpi\n    /* \"#utility.yul\":1729:1747   */\n  tag_62\n  tag_63\n  jump\t// in\ntag_62:\n    /* \"#utility.yul\":1693:1749   */\ntag_61:\n    /* \"#utility.yul\":1767:1796   */\n  tag_64\n    /* \"#utility.yul\":1789:1795   */\n  dup3\n    /* \"#utility.yul\":1767:1796   */\n  tag_65\n  jump\t// in\ntag_64:\n    /* \"#utility.yul\":1759:1796   */\n  swap1\n  pop\n    /* \"#utility.yul\":1851:1855   */\n  0x20\n    /* \"#utility.yul\":1845:1849   */\n  dup2\n    /* \"#utility.yul\":1841:1856   */\n  add\n    /* \"#utility.yul\":1833:1856   */\n  swap1\n  pop\n    /* \"#utility.yul\":1555:1863   */\n  swap2\n  swap1\n  pop\n  jump\t// out\n    /* \"#utility.yul\":1869:2176   */\ntag_39:\n    /* \"#utility.yul\":1937:1938   */\n  0x00\n    /* \"#utility.yul\":1947:2060   */\ntag_67:\n    /* \"#utility.yul\":1961:1967   */\n  dup4\n    /* \"#utility.yul\":1958:1959   */\n  dup2\n    /* \"#utility.yul\":1955:1968   */\n  lt\n    /* \"#utility.yul\":1947:2060   */\n  iszero\n  tag_69\n  jumpi\n    /* \"#utility.yul\":2046:2047   */\n  dup1\n    /* \"#utility.yul\":2041:2044   */\n  dup3\n    /* \"#utility.yul\":2037:2048   */\n  add\n    /* \"#utility.yul\":2031:2049   */\n  mload\n    /* \"#utility.yul\":2027:2028   */\n  dup2\n    /* \"#utility.yul\":2022:2025   */\n  dup5\n    /* \"#utility.yul\":2018:2029   */\n  add\n    /* \"#utility.yul\":2011:2050   */\n  mstore\n    /* \"#utility.yul\":1983:1985   */\n  0x20\n    /* \"#utility.yul\":1980:1981   */\n  dup2\n    /* \"#utility.yul\":1976:1986   */\n  add\n    /* \"#utility.yul\":1971:1986   */\n  swap1\n  pop\n    /* \"#utility.yul\":1947:2060   */\n  jump(tag_67)\ntag_69:\n    /* \"#utility.yul\":2078:2084   */\n  dup4\n    /* \"#utility.yul\":2075:2076   */\n  dup2\n    /* \"#utility.yul\":2072:2085   */\n  gt\n    /* \"#utility.yul\":2069:2170   */\n  iszero\n  tag_70\n  jumpi\n    /* \"#utility.yul\":2158:2159   */\n  0x00\n    /* \"#utility.yul\":2149:2155   */\n  dup5\n    /* \"#utility.yul\":2144:2147   */\n  dup5\n    /* \"#utility.yul\":2140:2156   */\n  add\n    /* \"#utility.yul\":2133:2160   */\n  mstore\n    /* \"#utility.yul\":2069:2170   */\ntag_70:\n    /* \"#utility.yul\":1918:2176   */\n  pop\n    /* \"#utility.yul\":1869:2176   */\n  pop\n  pop\n  pop\n  jump\t// out\n    /* \"#utility.yul\":2182:2502   */\ntag_13:\n    /* \"#utility.yul\":2226:2232   */\n  0x00\n    /* \"#utility.yul\":2263:2264   */\n  0x02\n    /* \"#utility.yul\":2257:2261   */\n  dup3\n    /* \"#utility.yul\":2253:2265   */\n  div\n    /* \"#utility.yul\":2243:2265   */\n  swap1\n  pop\n    /* \"#utility.yul\":2310:2311   */\n  0x01\n    /* \"#utility.yul\":2304:2308   */\n  dup3\n    /* \"#utility.yul\":2300:2312   */\n  and\n    /* \"#utility.yul\":2331:2349   */\n  dup1\n    /* \"#utility.yul\":2321:2402   */\n  tag_72\n  jumpi\n    /* \"#utility.yul\":2387:2391   */\n  0x7f\n    /* \"#utility.yul\":2379:2385   */\n  dup3\n    /* \"#utility.yul\":2375:2392   */\n  and\n    /* \"#utility.yul\":2365:2392   */\n  swap2\n  pop\n    /* \"#utility.yul\":2321:2402   */\ntag_72:\n    /* \"#utility.yul\":2449:2451   */\n  0x20\n    /* \"#utility.yul\":2441:2447   */\n  dup3\n    /* \"#utility.yul\":2438:2452   */\n  lt\n    /* \"#utility.yul\":2418:2436   */\n  dup2\n    /* \"#utility.yul\":2415:2453   */\n  eq\n    /* \"#utility.yul\":2412:2496   */\n  iszero\n  tag_73\n  jumpi\n    /* \"#utility.yul\":2468:2486   */\n  tag_74\n  tag_75\n  jump\t// in\ntag_74:\n    /* \"#utility.yul\":2412:2496   */\ntag_73:\n    /* \"#utility.yul\":2233:2502   */\n  pop\n    /* \"#utility.yul\":2182:2502   */\n  swap2\n  swap1\n  pop\n  jump\t// out\n    /* \"#utility.yul\":2508:2789   */\ntag_58:\n    /* \"#utility.yul\":2591:2618   */\n  tag_77\n    /* \"#utility.yul\":2613:2617   */\n  dup3\n    /* \"#utility.yul\":2591:2618   */\n  tag_65\n  jump\t// in\ntag_77:\n    /* \"#utility.yul\":2583:2589   */\n  dup2\n    /* \"#utility.yul\":2579:2619   */\n  add\n    /* \"#utility.yul\":2721:2727   */\n  dup2\n    /* \"#utility.yul\":2709:2719   */\n  dup2\n    /* \"#utility.yul\":2706:2728   */\n  lt\n    /* \"#utility.yul\":2685:2703   */\n  0xffffffffffffffff\n    /* \"#utility.yul\":2673:2683   */\n  dup3\n    /* \"#utility.yul\":2670:2704   */\n  gt\n    /* \"#utility.yul\":2667:2729   */\n  or\n    /* \"#utility.yul\":2664:2752   */\n  iszero\n  tag_78\n  jumpi\n    /* \"#utility.yul\":2732:2750   */\n  tag_79\n  tag_63\n  jump\t// in\ntag_79:\n    /* \"#utility.yul\":2664:2752   */\ntag_78:\n    /* \"#utility.yul\":2772:2782   */\n  dup1\n    /* \"#utility.yul\":2768:2770   */\n  0x40\n    /* \"#utility.yul\":2761:2783   */\n  mstore\n    /* \"#utility.yul\":2551:2789   */\n  pop\n    /* \"#utility.yul\":2508:2789   */\n  pop\n  pop\n  jump\t// out\n    /* \"#utility.yul\":2795:2975   */\ntag_75:\n    /* \"#utility.yul\":2843:2920   */\n  0x4e487b7100000000000000000000000000000000000000000000000000000000\n    /* \"#utility.yul\":2840:2841   */\n  0x00\n    /* \"#utility.yul\":2833:2921   */\n  mstore\n    /* \"#utility.yul\":2940:2944   */\n  0x22\n    /* \"#utility.yul\":2937:2938   */\n  0x04\n    /* \"#utility.yul\":2930:2945   */\n  mstore\n    /* \"#utility.yul\":2964:2968   */\n  0x24\n    /* \"#utility.yul\":2961:2962   */\n  0x00\n    /* \"#utility.yul\":2954:2969   */\n  revert\n    /* \"#utility.yul\":2981:3161   */\ntag_63:\n    /* \"#utility.yul\":3029:3106   */\n  0x4e487b7100000000000000000000000000000000000000000000000000000000\n    /* \"#utility.yul\":3026:3027   */\n  0x00\n    /* \"#utility.yul\":3019:3107   */\n  mstore\n    /* \"#utility.yul\":3126:3130   */\n  0x41\n    /* \"#utility.yul\":3123:3124   */\n  0x04\n    /* \"#utility.yul\":3116:3131   */\n  mstore\n    /* \"#utility.yul\":3150:3154   */\n  0x24\n    /* \"#utility.yul\":3147:3148   */\n  0x00\n    /* \"#utility.yul\":3140:3155   */\n  revert\n    /* \"#utility.yul\":3167:3284   */\ntag_44:\n    /* \"#utility.yul\":3276:3277   */\n  0x00\n    /* \"#utility.yul\":3273:3274   */\n  dup1\n    /* \"#utility.yul\":3266:3278   */\n  revert\n    /* \"#utility.yul\":3290:3407   */\ntag_37:\n    /* \"#utility.yul\":3399:3400   */\n  0x00\n    /* \"#utility.yul\":3396:3397   */\n  dup1\n    /* \"#utility.yul\":3389:3401   */\n  revert\n    /* \"#utility.yul\":3413:3530   */\ntag_52:\n    /* \"#utility.yul\":3522:3523   */\n  0x00\n    /* \"#utility.yul\":3519:3520   */\n  dup1\n    /* \"#utility.yul\":3512:3524   */\n  revert\n    /* \"#utility.yul\":3536:3653   */\ntag_49:\n    /* \"#utility.yul\":3645:3646   */\n  0x00\n    /* \"#utility.yul\":3642:3643   */\n  dup1\n    /* \"#utility.yul\":3635:3647   */\n  revert\n    /* \"#utility.yul\":3659:3761   */\ntag_65:\n    /* \"#utility.yul\":3700:3706   */\n  0x00\n    /* \"#utility.yul\":3751:3753   */\n  0x1f\n    /* \"#utility.yul\":3747:3754   */\n  not\n    /* \"#utility.yul\":3742:3744   */\n  0x1f\n    /* \"#utility.yul\":3735:3740   */\n  dup4\n    /* \"#utility.yul\":3731:3745   */\n  add\n    /* \"#utility.yul\":3727:3755   */\n  and\n    /* \"#utility.yul\":3717:3755   */\n  swap1\n  pop\n    /* \"#utility.yul\":3659:3761   */\n  swap2\n  swap1\n  pop\n  jump\t// out\n    /* \"Dropsite.sol\":146:6600  contract Dropsite is ERC1155_Dropsite  { ... */\ntag_11:\n  dataSize(sub_0)\n  dup1\n  dataOffset(sub_0)\n  0x00\n  codecopy\n  0x00\n  return\nstop\n\nsub_0: assembly {\n        /* \"Dropsite.sol\":146:6600  contract Dropsite is ERC1155_Dropsite  { ... */\n      mstore(0x40, 0x80)\n      jumpi(tag_1, lt(calldatasize, 0x04))\n      shr(0xe0, calldataload(0x00))\n      dup1\n      0x546fd992\n      gt\n      tag_16\n      jumpi\n      dup1\n      0xaa90c726\n      gt\n      tag_17\n      jumpi\n      dup1\n      0xaa90c726\n      eq\n      tag_12\n      jumpi\n      dup1\n      0xb4a99a4e\n      eq\n      tag_13\n      jumpi\n      dup1\n      0xeddd0d9c\n      eq\n      tag_14\n      jumpi\n      dup1\n      0xfd6c3b1b\n      eq\n      tag_15\n      jumpi\n      jump(tag_1)\n    tag_17:\n      dup1\n      0x546fd992\n      eq\n      tag_9\n      jumpi\n      dup1\n      0x60daa851\n      eq\n      tag_10\n      jumpi\n      dup1\n      0x7a5caab3\n      eq\n      tag_11\n      jumpi\n      jump(tag_1)\n    tag_16:\n      dup1\n      0x15460259\n      gt\n      tag_18\n      jumpi\n      dup1\n      0x15460259\n      eq\n      tag_5\n      jumpi\n      dup1\n      0x27a8a072\n      eq\n      tag_6\n      jumpi\n      dup1\n      0x3b668059\n      eq\n      tag_7\n      jumpi\n      dup1\n      0x3d65df70\n      eq\n      tag_8\n      jumpi\n      jump(tag_1)\n    tag_18:\n      dup1\n      0x0390c11c\n      eq\n      tag_2\n      jumpi\n      dup1\n      0x0a67d2c7\n      eq\n      tag_3\n      jumpi\n      dup1\n      0x1309a563\n      eq\n      tag_4\n      jumpi\n    tag_1:\n      0x00\n      dup1\n      revert\n        /* \"Dropsite.sol\":2307:2411  function checkTotalMinted() public view OnlyOwner returns(uint){... */\n    tag_2:\n      callvalue\n      dup1\n      iszero\n      tag_19\n      jumpi\n      0x00\n      dup1\n      revert\n    tag_19:\n      pop\n      tag_20\n      tag_21\n      jump\t// in\n    tag_20:\n      mload(0x40)\n      tag_22\n      swap2\n      swap1\n      tag_23\n      jump\t// in\n    tag_22:\n      mload(0x40)\n      dup1\n      swap2\n      sub\n      swap1\n      return\n        /* \"Dropsite.sol\":2790:3004  function withDraw(address payable to) public payable OnlyOwner {... */\n    tag_3:\n      tag_24\n      0x04\n      dup1\n      calldatasize\n      sub\n      dup2\n      add\n      swap1\n      tag_25\n      swap2\n      swap1\n      tag_26\n      jump\t// in\n    tag_25:\n      tag_27\n      jump\t// in\n    tag_24:\n      stop\n        /* \"Dropsite.sol\":1246:1273  bool public IsPaused = true */\n    tag_4:\n      callvalue\n      dup1\n      iszero\n      tag_28\n      jumpi\n      0x00\n      dup1\n      revert\n    tag_28:\n      pop\n      tag_29\n      tag_30\n      jump\t// in\n    tag_29:\n      mload(0x40)\n      tag_31\n      swap2\n      swap1\n      tag_32\n      jump\t// in\n    tag_31:\n      mload(0x40)\n      dup1\n      swap2\n      sub\n      swap1\n      return\n        /* \"Dropsite.sol\":2559:2695  function openDropsite() public OnlyOwner {... */\n    tag_5:\n      callvalue\n      dup1\n      iszero\n      tag_33\n      jumpi\n      0x00\n      dup1\n      revert\n    tag_33:\n      pop\n      tag_34\n      tag_35\n      jump\t// in\n    tag_34:\n      stop\n        /* \"Dropsite.sol\":5703:6084  function FiatRandomMint(address user_addr, uint noOfMints) OnlyOwner contractIsNotPaused public  returns (uint[] memory,string[] memory) {... */\n    tag_6:\n      callvalue\n      dup1\n      iszero\n      tag_36\n      jumpi\n      0x00\n      dup1\n      revert\n    tag_36:\n      pop\n      tag_37\n      0x04\n      dup1\n      calldatasize\n      sub\n      dup2\n      add\n      swap1\n      tag_38\n      swap2\n      swap1\n      tag_39\n      jump\t// in\n    tag_38:\n      tag_40\n      jump\t// in\n    tag_37:\n      mload(0x40)\n      tag_41\n      swap3\n      swap2\n      swap1\n      tag_42\n      jump\t// in\n    tag_41:\n      mload(0x40)\n      dup1\n      swap2\n      sub\n      swap1\n      return\n        /* \"Dropsite.sol\":3057:3165  function ContractBalance() public view OnlyOwner returns (uint){... */\n    tag_7:\n      callvalue\n      dup1\n      iszero\n      tag_43\n      jumpi\n      0x00\n      dup1\n      revert\n    tag_43:\n      pop\n      tag_44\n      tag_45\n      jump\t// in\n    tag_44:\n      mload(0x40)\n      tag_46\n      swap2\n      swap1\n      tag_23\n      jump\t// in\n    tag_46:\n      mload(0x40)\n      dup1\n      swap2\n      sub\n      swap1\n      return\n        /* \"Dropsite.sol\":6301:6598  function CryptoRandomMint(address user_addr)  contractIsNotPaused public payable returns (uint[] memory,string memory) {... */\n    tag_8:\n      tag_47\n      0x04\n      dup1\n      calldatasize\n      sub\n      dup2\n      add\n      swap1\n      tag_48\n      swap2\n      swap1\n      tag_49\n      jump\t// in\n    tag_48:\n      tag_50\n      jump\t// in\n    tag_47:\n      mload(0x40)\n      tag_51\n      swap3\n      swap2\n      swap1\n      tag_52\n      jump\t// in\n    tag_51:\n      mload(0x40)\n      dup1\n      swap2\n      sub\n      swap1\n      return\n        /* \"Dropsite.sol\":5261:5657  function randomMinting(address user_addr) OnlyOwner contractIsNotPaused public returns (uint,string memory) {... */\n    tag_9:\n      callvalue\n      dup1\n      iszero\n      tag_53\n      jumpi\n      0x00\n      dup1\n      revert\n    tag_53:\n      pop\n      tag_54\n      0x04\n      dup1\n      calldatasize\n      sub\n      dup2\n      add\n      swap1\n      tag_55\n      swap2\n      swap1\n      tag_49\n      jump\t// in\n    tag_55:\n      tag_56\n      jump\t// in\n    tag_54:\n      mload(0x40)\n      tag_57\n      swap3\n      swap2\n      swap1\n      tag_58\n      jump\t// in\n    tag_57:\n      mload(0x40)\n      dup1\n      swap2\n      sub\n      swap1\n      return\n        /* \"Dropsite.sol\":1882:2029  function checkMintedCategoryWise() public view OnlyOwner contractIsNotPaused returns(uint,uint,uint){... */\n    tag_10:\n      callvalue\n      dup1\n      iszero\n      tag_59\n      jumpi\n      0x00\n      dup1\n      revert\n    tag_59:\n      pop\n      tag_60\n      tag_61\n      jump\t// in\n    tag_60:\n      mload(0x40)\n      tag_62\n      swap4\n      swap3\n      swap2\n      swap1\n      tag_63\n      jump\t// in\n    tag_62:\n      mload(0x40)\n      dup1\n      swap2\n      sub\n      swap1\n      return\n        /* \"Dropsite.sol\":2151:2262  function getMintFee() public view OnlyOwner contractIsNotPaused returns (uint) {... */\n    tag_11:\n      callvalue\n      dup1\n      iszero\n      tag_64\n      jumpi\n      0x00\n      dup1\n      revert\n    tag_64:\n      pop\n      tag_65\n      tag_66\n      jump\t// in\n    tag_65:\n      mload(0x40)\n      tag_67\n      swap2\n      swap1\n      tag_23\n      jump\t// in\n    tag_67:\n      mload(0x40)\n      dup1\n      swap2\n      sub\n      swap1\n      return\n        /* \"Dropsite.sol\":2417:2552  function stopDropsite() public OnlyOwner{... */\n    tag_12:\n      callvalue\n      dup1\n      iszero\n      tag_68\n      jumpi\n      0x00\n      dup1\n      revert\n    tag_68:\n      pop\n      tag_69\n      tag_70\n      jump\t// in\n    tag_69:\n      stop\n        /* \"Dropsite.sol\":1279:1308  address payable public  Owner */\n    tag_13:\n      callvalue\n      dup1\n      iszero\n      tag_71\n      jumpi\n      0x00\n      dup1\n      revert\n    tag_71:\n      pop\n      tag_72\n      tag_73\n      jump\t// in\n    tag_72:\n      mload(0x40)\n      tag_74\n      swap2\n      swap1\n      tag_75\n      jump\t// in\n    tag_74:\n      mload(0x40)\n      dup1\n      swap2\n      sub\n      swap1\n      return\n        /* \"Dropsite.sol\":2035:2141  function setMintFee(uint _mintFee) public OnlyOwner contractIsNotPaused {... */\n    tag_14:\n      callvalue\n      dup1\n      iszero\n      tag_76\n      jumpi\n      0x00\n      dup1\n      revert\n    tag_76:\n      pop\n      tag_77\n      0x04\n      dup1\n      calldatasize\n      sub\n      dup2\n      add\n      swap1\n      tag_78\n      swap2\n      swap1\n      tag_79\n      jump\t// in\n    tag_78:\n      tag_80\n      jump\t// in\n    tag_77:\n      stop\n        /* \"Dropsite.sol\":1663:1822  function returnOwner(address addr) public view contractIsNotPaused returns  (uint[] memory){... */\n    tag_15:\n      callvalue\n      dup1\n      iszero\n      tag_81\n      jumpi\n      0x00\n      dup1\n      revert\n    tag_81:\n      pop\n      tag_82\n      0x04\n      dup1\n      calldatasize\n      sub\n      dup2\n      add\n      swap1\n      tag_83\n      swap2\n      swap1\n      tag_49\n      jump\t// in\n    tag_83:\n      tag_84\n      jump\t// in\n    tag_82:\n      mload(0x40)\n      tag_85\n      swap2\n      swap1\n      tag_86\n      jump\t// in\n    tag_85:\n      mload(0x40)\n      dup1\n      swap2\n      sub\n      swap1\n      return\n        /* \"Dropsite.sol\":2307:2411  function checkTotalMinted() public view OnlyOwner returns(uint){... */\n    tag_21:\n        /* \"Dropsite.sol\":2365:2369  uint */\n      0x00\n        /* \"Dropsite.sol\":1018:1023  Owner */\n      0x0c\n      0x01\n      swap1\n      sload\n      swap1\n      0x0100\n      exp\n      swap1\n      div\n      0xffffffffffffffffffffffffffffffffffffffff\n      and\n        /* \"Dropsite.sol\":1002:1023  _msgSender() == Owner */\n      0xffffffffffffffffffffffffffffffffffffffff\n      and\n        /* \"Dropsite.sol\":1002:1014  _msgSender() */\n      tag_88\n        /* \"Dropsite.sol\":1002:1012  _msgSender */\n      tag_89\n        /* \"Dropsite.sol\":1002:1014  _msgSender() */\n      jump\t// in\n    tag_88:\n        /* \"Dropsite.sol\":1002:1023  _msgSender() == Owner */\n      0xffffffffffffffffffffffffffffffffffffffff\n      and\n      eq\n        /* \"Dropsite.sol\":994:1056  require(_msgSender() == Owner, \"Only NFT-ES Owner can Access\") */\n      tag_90\n      jumpi\n      mload(0x40)\n      0x08c379a000000000000000000000000000000000000000000000000000000000\n      dup2\n      mstore\n      0x04\n      add\n      tag_91\n      swap1\n      tag_92\n      jump\t// in\n    tag_91:\n      mload(0x40)\n      dup1\n      swap2\n      sub\n      swap1\n      revert\n    tag_90:\n        /* \"Dropsite.sol\":2388:2403  TotalNFTsMinted */\n      sload(0x04)\n        /* \"Dropsite.sol\":2381:2403  return TotalNFTsMinted */\n      swap1\n      pop\n        /* \"Dropsite.sol\":2307:2411  function checkTotalMinted() public view OnlyOwner returns(uint){... */\n      swap1\n      jump\t// out\n        /* \"Dropsite.sol\":2790:3004  function withDraw(address payable to) public payable OnlyOwner {... */\n    tag_27:\n        /* \"Dropsite.sol\":1018:1023  Owner */\n      0x0c\n      0x01\n      swap1\n      sload\n      swap1\n      0x0100\n      exp\n      swap1\n      div\n      0xffffffffffffffffffffffffffffffffffffffff\n      and\n        /* \"Dropsite.sol\":1002:1023  _msgSender() == Owner */\n      0xffffffffffffffffffffffffffffffffffffffff\n      and\n        /* \"Dropsite.sol\":1002:1014  _msgSender() */\n      tag_95\n        /* \"Dropsite.sol\":1002:1012  _msgSender */\n      tag_89\n        /* \"Dropsite.sol\":1002:1014  _msgSender() */\n      jump\t// in\n    tag_95:\n        /* \"Dropsite.sol\":1002:1023  _msgSender() == Owner */\n      0xffffffffffffffffffffffffffffffffffffffff\n      and\n      eq\n        /* \"Dropsite.sol\":994:1056  require(_msgSender() == Owner, \"Only NFT-ES Owner can Access\") */\n      tag_96\n      jumpi\n      mload(0x40)\n      0x08c379a000000000000000000000000000000000000000000000000000000000\n      dup2\n      mstore\n      0x04\n      add\n      tag_97\n      swap1\n      tag_92\n      jump\t// in\n    tag_97:\n      mload(0x40)\n      dup1\n      swap2\n      sub\n      swap1\n      revert\n    tag_96:\n        /* \"Dropsite.sol\":2863:2875  uint Balance */\n      0x00\n        /* \"Dropsite.sol\":2878:2899  address(this).balance */\n      selfbalance\n        /* \"Dropsite.sol\":2863:2899  uint Balance = address(this).balance */\n      swap1\n      pop\n        /* \"Dropsite.sol\":2927:2932  0 wei */\n      0x00\n        /* \"Dropsite.sol\":2917:2924  Balance */\n      dup2\n        /* \"Dropsite.sol\":2917:2932  Balance > 0 wei */\n      gt\n        /* \"Dropsite.sol\":2909:2966  require(Balance > 0 wei, \"Error! No Balance to withdraw\") */\n      tag_99\n      jumpi\n      mload(0x40)\n      0x08c379a000000000000000000000000000000000000000000000000000000000\n      dup2\n      mstore\n      0x04\n      add\n      tag_100\n      swap1\n      tag_101\n      jump\t// in\n    tag_100:\n      mload(0x40)\n      dup1\n      swap2\n      sub\n      swap1\n      revert\n    tag_99:\n        /* \"Dropsite.sol\":2977:2979  to */\n      dup2\n        /* \"Dropsite.sol\":2977:2988  to.transfer */\n      0xffffffffffffffffffffffffffffffffffffffff\n      and\n        /* \"Dropsite.sol\":2977:2997  to.transfer(Balance) */\n      0x08fc\n        /* \"Dropsite.sol\":2989:2996  Balance */\n      dup3\n        /* \"Dropsite.sol\":2977:2997  to.transfer(Balance) */\n      swap1\n      dup2\n      iszero\n      mul\n      swap1\n      mload(0x40)\n      0x00\n      mload(0x40)\n      dup1\n      dup4\n      sub\n      dup2\n      dup6\n      dup9\n      dup9\n      call\n      swap4\n      pop\n      pop\n      pop\n      pop\n      iszero\n      dup1\n      iszero\n      tag_103\n      jumpi\n      returndatasize\n      0x00\n      dup1\n      returndatacopy\n      revert(0x00, returndatasize)\n    tag_103:\n      pop\n        /* \"Dropsite.sol\":2853:3004  {... */\n      pop\n        /* \"Dropsite.sol\":2790:3004  function withDraw(address payable to) public payable OnlyOwner {... */\n      pop\n      jump\t// out\n        /* \"Dropsite.sol\":1246:1273  bool public IsPaused = true */\n    tag_30:\n      0x0c\n      0x00\n      swap1\n      sload\n      swap1\n      0x0100\n      exp\n      swap1\n      div\n      0xff\n      and\n      dup2\n      jump\t// out\n        /* \"Dropsite.sol\":2559:2695  function openDropsite() public OnlyOwner {... */\n    tag_35:\n        /* \"Dropsite.sol\":1018:1023  Owner */\n      0x0c\n      0x01\n      swap1\n      sload\n      swap1\n      0x0100\n      exp\n      swap1\n      div\n      0xffffffffffffffffffffffffffffffffffffffff\n      and\n        /* \"Dropsite.sol\":1002:1023  _msgSender() == Owner */\n      0xffffffffffffffffffffffffffffffffffffffff\n      and\n        /* \"Dropsite.sol\":1002:1014  _msgSender() */\n      tag_105\n        /* \"Dropsite.sol\":1002:1012  _msgSender */\n      tag_89\n        /* \"Dropsite.sol\":1002:1014  _msgSender() */\n      jump\t// in\n    tag_105:\n        /* \"Dropsite.sol\":1002:1023  _msgSender() == Owner */\n      0xffffffffffffffffffffffffffffffffffffffff\n      and\n      eq\n        /* \"Dropsite.sol\":994:1056  require(_msgSender() == Owner, \"Only NFT-ES Owner can Access\") */\n      tag_106\n      jumpi\n      mload(0x40)\n      0x08c379a000000000000000000000000000000000000000000000000000000000\n      dup2\n      mstore\n      0x04\n      add\n      tag_107\n      swap1\n      tag_92\n      jump\t// in\n    tag_107:\n      mload(0x40)\n      dup1\n      swap2\n      sub\n      swap1\n      revert\n    tag_106:\n        /* \"Dropsite.sol\":2628:2632  true */\n      0x01\n        /* \"Dropsite.sol\":2618:2632  IsPaused==true */\n      iszero\n      iszero\n        /* \"Dropsite.sol\":2618:2626  IsPaused */\n      0x0c\n      0x00\n      swap1\n      sload\n      swap1\n      0x0100\n      exp\n      swap1\n      div\n      0xff\n      and\n        /* \"Dropsite.sol\":2618:2632  IsPaused==true */\n      iszero\n      iszero\n      eq\n        /* \"Dropsite.sol\":2610:2664  require(IsPaused==true, \"Dropsite is already Running\") */\n      tag_109\n      jumpi\n      mload(0x40)\n      0x08c379a000000000000000000000000000000000000000000000000000000000\n      dup2\n      mstore\n      0x04\n      add\n      tag_110\n      swap1\n      tag_111\n      jump\t// in\n    tag_110:\n      mload(0x40)\n      dup1\n      swap2\n      sub\n      swap1\n      revert\n    tag_109:\n        /* \"Dropsite.sol\":2683:2688  false */\n      0x00\n        /* \"Dropsite.sol\":2674:2682  IsPaused */\n      0x0c\n      0x00\n        /* \"Dropsite.sol\":2674:2688  IsPaused=false */\n      0x0100\n      exp\n      dup2\n      sload\n      dup2\n      0xff\n      mul\n      not\n      and\n      swap1\n      dup4\n      iszero\n      iszero\n      mul\n      or\n      swap1\n      sstore\n      pop\n        /* \"Dropsite.sol\":2559:2695  function openDropsite() public OnlyOwner {... */\n      jump\t// out\n        /* \"Dropsite.sol\":5703:6084  function FiatRandomMint(address user_addr, uint noOfMints) OnlyOwner contractIsNotPaused public  returns (uint[] memory,string[] memory) {... */\n    tag_40:\n        /* \"Dropsite.sol\":5809:5822  uint[] memory */\n      0x60\n        /* \"Dropsite.sol\":5823:5838  string[] memory */\n      dup1\n        /* \"Dropsite.sol\":1018:1023  Owner */\n      0x0c\n      0x01\n      swap1\n      sload\n      swap1\n      0x0100\n      exp\n      swap1\n      div\n      0xffffffffffffffffffffffffffffffffffffffff\n      and\n        /* \"Dropsite.sol\":1002:1023  _msgSender() == Owner */\n      0xffffffffffffffffffffffffffffffffffffffff\n      and\n        /* \"Dropsite.sol\":1002:1014  _msgSender() */\n      tag_113\n        /* \"Dropsite.sol\":1002:1012  _msgSender */\n      tag_89\n        /* \"Dropsite.sol\":1002:1014  _msgSender() */\n      jump\t// in\n    tag_113:\n        /* \"Dropsite.sol\":1002:1023  _msgSender() == Owner */\n      0xffffffffffffffffffffffffffffffffffffffff\n      and\n      eq\n        /* \"Dropsite.sol\":994:1056  require(_msgSender() == Owner, \"Only NFT-ES Owner can Access\") */\n      tag_114\n      jumpi\n      mload(0x40)\n      0x08c379a000000000000000000000000000000000000000000000000000000000\n      dup2\n      mstore\n      0x04\n      add\n      tag_115\n      swap1\n      tag_92\n      jump\t// in\n    tag_115:\n      mload(0x40)\n      dup1\n      swap2\n      sub\n      swap1\n      revert\n    tag_114:\n        /* \"Dropsite.sol\":1183:1188  false */\n      0x00\n        /* \"Dropsite.sol\":1171:1188  IsPaused == false */\n      iszero\n      iszero\n        /* \"Dropsite.sol\":1171:1179  IsPaused */\n      0x0c\n      0x00\n      swap1\n      sload\n      swap1\n      0x0100\n      exp\n      swap1\n      div\n      0xff\n      and\n        /* \"Dropsite.sol\":1171:1188  IsPaused == false */\n      iszero\n      iszero\n      eq\n        /* \"Dropsite.sol\":1162:1221  require (IsPaused == false, \"Dropsite is not Opened Yet.\" ) */\n      tag_117\n      jumpi\n      mload(0x40)\n      0x08c379a000000000000000000000000000000000000000000000000000000000\n      dup2\n      mstore\n      0x04\n      add\n      tag_118\n      swap1\n      tag_119\n      jump\t// in\n    tag_118:\n      mload(0x40)\n      dup1\n      swap2\n      sub\n      swap1\n      revert\n    tag_117:\n        /* \"Dropsite.sol\":5865:5866  4 */\n      0x04\n        /* \"Dropsite.sol\":5855:5864  noOfMints */\n      dup4\n        /* \"Dropsite.sol\":5855:5866  noOfMints<4 */\n      lt\n        /* \"Dropsite.sol\":5855:5881  noOfMints<4 && noOfMints>0 */\n      dup1\n      iszero\n      tag_121\n      jumpi\n      pop\n        /* \"Dropsite.sol\":5880:5881  0 */\n      0x00\n        /* \"Dropsite.sol\":5870:5879  noOfMints */\n      dup4\n        /* \"Dropsite.sol\":5870:5881  noOfMints>0 */\n      gt\n        /* \"Dropsite.sol\":5855:5881  noOfMints<4 && noOfMints>0 */\n    tag_121:\n        /* \"Dropsite.sol\":5847:5906  require(noOfMints<4 && noOfMints>0,\"You can mint 1-3 NFTs\") */\n      tag_122\n      jumpi\n      mload(0x40)\n      0x08c379a000000000000000000000000000000000000000000000000000000000\n      dup2\n      mstore\n      0x04\n      add\n      tag_123\n      swap1\n      tag_124\n      jump\t// in\n    tag_123:\n      mload(0x40)\n      dup1\n      swap2\n      sub\n      swap1\n      revert\n    tag_122:\n        /* \"Dropsite.sol\":5913:5928  uint[] memory x */\n      0x60\n        /* \"Dropsite.sol\":5936:5953  string[] memory y */\n      dup1\n        /* \"Dropsite.sol\":5967:5973  uint i */\n      0x00\n        /* \"Dropsite.sol\":5963:6056  for(uint i=0;i<noOfMints;++i){... */\n    tag_125:\n        /* \"Dropsite.sol\":5978:5987  noOfMints */\n      dup6\n        /* \"Dropsite.sol\":5976:5977  i */\n      dup2\n        /* \"Dropsite.sol\":5976:5987  i<noOfMints */\n      lt\n        /* \"Dropsite.sol\":5963:6056  for(uint i=0;i<noOfMints;++i){... */\n      iszero\n      tag_126\n      jumpi\n        /* \"Dropsite.sol\":6021:6045  randomMinting(user_addr) */\n      tag_128\n        /* \"Dropsite.sol\":6035:6044  user_addr */\n      dup8\n        /* \"Dropsite.sol\":6021:6034  randomMinting */\n      tag_56\n        /* \"Dropsite.sol\":6021:6045  randomMinting(user_addr) */\n      jump\t// in\n    tag_128:\n        /* \"Dropsite.sol\":6007:6008  x */\n      dup5\n        /* \"Dropsite.sol\":6009:6010  i */\n      dup4\n        /* \"Dropsite.sol\":6007:6011  x[i] */\n      dup2\n      mload\n      dup2\n      lt\n      tag_129\n      jumpi\n      tag_130\n      tag_131\n      jump\t// in\n    tag_130:\n    tag_129:\n      0x20\n      mul\n      0x20\n      add\n      add\n        /* \"Dropsite.sol\":6013:6014  y */\n      dup5\n        /* \"Dropsite.sol\":6015:6016  i */\n      dup5\n        /* \"Dropsite.sol\":6013:6017  y[i] */\n      dup2\n      mload\n      dup2\n      lt\n      tag_132\n      jumpi\n      tag_133\n      tag_131\n      jump\t// in\n    tag_133:\n    tag_132:\n      0x20\n      mul\n      0x20\n      add\n      add\n        /* \"Dropsite.sol\":6006:6045  (x[i], y[i]) = randomMinting(user_addr) */\n      dup3\n      swap1\n      mstore\n      dup3\n      dup2\n      mstore\n      pop\n      pop\n      pop\n        /* \"Dropsite.sol\":5988:5991  ++i */\n      dup1\n      tag_134\n      swap1\n      tag_135\n      jump\t// in\n    tag_134:\n      swap1\n      pop\n        /* \"Dropsite.sol\":5963:6056  for(uint i=0;i<noOfMints;++i){... */\n      jump(tag_125)\n    tag_126:\n      pop\n        /* \"Dropsite.sol\":6073:6074  x */\n      dup2\n        /* \"Dropsite.sol\":6075:6076  y */\n      dup2\n        /* \"Dropsite.sol\":6065:6077  return (x,y) */\n      swap4\n      pop\n      swap4\n      pop\n      pop\n      pop\n        /* \"Dropsite.sol\":5703:6084  function FiatRandomMint(address user_addr, uint noOfMints) OnlyOwner contractIsNotPaused public  returns (uint[] memory,string[] memory) {... */\n      swap3\n      pop\n      swap3\n      swap1\n      pop\n      jump\t// out\n        /* \"Dropsite.sol\":3057:3165  function ContractBalance() public view OnlyOwner returns (uint){... */\n    tag_45:\n        /* \"Dropsite.sol\":3115:3119  uint */\n      0x00\n        /* \"Dropsite.sol\":1018:1023  Owner */\n      0x0c\n      0x01\n      swap1\n      sload\n      swap1\n      0x0100\n      exp\n      swap1\n      div\n      0xffffffffffffffffffffffffffffffffffffffff\n      and\n        /* \"Dropsite.sol\":1002:1023  _msgSender() == Owner */\n      0xffffffffffffffffffffffffffffffffffffffff\n      and\n        /* \"Dropsite.sol\":1002:1014  _msgSender() */\n      tag_137\n        /* \"Dropsite.sol\":1002:1012  _msgSender */\n      tag_89\n        /* \"Dropsite.sol\":1002:1014  _msgSender() */\n      jump\t// in\n    tag_137:\n        /* \"Dropsite.sol\":1002:1023  _msgSender() == Owner */\n      0xffffffffffffffffffffffffffffffffffffffff\n      and\n      eq\n        /* \"Dropsite.sol\":994:1056  require(_msgSender() == Owner, \"Only NFT-ES Owner can Access\") */\n      tag_138\n      jumpi\n      mload(0x40)\n      0x08c379a000000000000000000000000000000000000000000000000000000000\n      dup2\n      mstore\n      0x04\n      add\n      tag_139\n      swap1\n      tag_92\n      jump\t// in\n    tag_139:\n      mload(0x40)\n      dup1\n      swap2\n      sub\n      swap1\n      revert\n    tag_138:\n        /* \"Dropsite.sol\":3137:3158  address(this).balance */\n      selfbalance\n        /* \"Dropsite.sol\":3130:3158  return address(this).balance */\n      swap1\n      pop\n        /* \"Dropsite.sol\":3057:3165  function ContractBalance() public view OnlyOwner returns (uint){... */\n      swap1\n      jump\t// out\n        /* \"Dropsite.sol\":6301:6598  function CryptoRandomMint(address user_addr)  contractIsNotPaused public payable returns (uint[] memory,string memory) {... */\n    tag_50:\n        /* \"Dropsite.sol\":6391:6404  uint[] memory */\n      0x60\n        /* \"Dropsite.sol\":6405:6418  string memory */\n      dup1\n        /* \"Dropsite.sol\":1183:1188  false */\n      0x00\n        /* \"Dropsite.sol\":1171:1188  IsPaused == false */\n      iszero\n      iszero\n        /* \"Dropsite.sol\":1171:1179  IsPaused */\n      0x0c\n      0x00\n      swap1\n      sload\n      swap1\n      0x0100\n      exp\n      swap1\n      div\n      0xff\n      and\n        /* \"Dropsite.sol\":1171:1188  IsPaused == false */\n      iszero\n      iszero\n      eq\n        /* \"Dropsite.sol\":1162:1221  require (IsPaused == false, \"Dropsite is not Opened Yet.\" ) */\n      tag_142\n      jumpi\n      mload(0x40)\n      0x08c379a000000000000000000000000000000000000000000000000000000000\n      dup2\n      mstore\n      0x04\n      add\n      tag_143\n      swap1\n      tag_119\n      jump\t// in\n    tag_143:\n      mload(0x40)\n      dup1\n      swap2\n      sub\n      swap1\n      revert\n    tag_142:\n        /* \"Dropsite.sol\":6451:6455  1000 */\n      0x03e8\n        /* \"Dropsite.sol\":6435:6450  TotalNFTsMinted */\n      sload(0x04)\n        /* \"Dropsite.sol\":6435:6455  TotalNFTsMinted<1000 */\n      lt\n        /* \"Dropsite.sol\":6427:6485  require(TotalNFTsMinted<1000, \"Max Minting Limit reached\") */\n      tag_145\n      jumpi\n      mload(0x40)\n      0x08c379a000000000000000000000000000000000000000000000000000000000\n      dup2\n      mstore\n      0x04\n      add\n      tag_146\n      swap1\n      tag_147\n      jump\t// in\n    tag_146:\n      mload(0x40)\n      dup1\n      swap2\n      sub\n      swap1\n      revert\n    tag_145:\n        /* \"Dropsite.sol\":6513:6521  mintFees */\n      sload(0x06)\n        /* \"Dropsite.sol\":6500:6509  msg.value */\n      callvalue\n        /* \"Dropsite.sol\":6500:6521  msg.value == mintFees */\n      eq\n        /* \"Dropsite.sol\":6492:6544  require(msg.value == mintFees, \"Not Enough Balance\") */\n      tag_148\n      jumpi\n      mload(0x40)\n      0x08c379a000000000000000000000000000000000000000000000000000000000\n      dup2\n      mstore\n      0x04\n      add\n      tag_149\n      swap1\n      tag_150\n      jump\t// in\n    tag_149:\n      mload(0x40)\n      dup1\n      swap2\n      sub\n      swap1\n      revert\n    tag_148:\n        /* \"Dropsite.sol\":6551:6589  depositAmount(_msgSender(), msg.value) */\n      tag_151\n        /* \"Dropsite.sol\":6565:6577  _msgSender() */\n      tag_152\n        /* \"Dropsite.sol\":6565:6575  _msgSender */\n      tag_89\n        /* \"Dropsite.sol\":6565:6577  _msgSender() */\n      jump\t// in\n    tag_152:\n        /* \"Dropsite.sol\":6579:6588  msg.value */\n      callvalue\n        /* \"Dropsite.sol\":6551:6564  depositAmount */\n      tag_153\n        /* \"Dropsite.sol\":6551:6589  depositAmount(_msgSender(), msg.value) */\n      jump\t// in\n    tag_151:\n        /* \"Dropsite.sol\":6301:6598  function CryptoRandomMint(address user_addr)  contractIsNotPaused public payable returns (uint[] memory,string memory) {... */\n      swap2\n      pop\n      swap2\n      jump\t// out\n        /* \"Dropsite.sol\":5261:5657  function randomMinting(address user_addr) OnlyOwner contractIsNotPaused public returns (uint,string memory) {... */\n    tag_56:\n        /* \"Dropsite.sol\":5349:5353  uint */\n      0x00\n        /* \"Dropsite.sol\":5354:5367  string memory */\n      0x60\n        /* \"Dropsite.sol\":1018:1023  Owner */\n      0x0c\n      0x01\n      swap1\n      sload\n      swap1\n      0x0100\n      exp\n      swap1\n      div\n      0xffffffffffffffffffffffffffffffffffffffff\n      and\n        /* \"Dropsite.sol\":1002:1023  _msgSender() == Owner */\n      0xffffffffffffffffffffffffffffffffffffffff\n      and\n        /* \"Dropsite.sol\":1002:1014  _msgSender() */\n      tag_155\n        /* \"Dropsite.sol\":1002:1012  _msgSender */\n      tag_89\n        /* \"Dropsite.sol\":1002:1014  _msgSender() */\n      jump\t// in\n    tag_155:\n        /* \"Dropsite.sol\":1002:1023  _msgSender() == Owner */\n      0xffffffffffffffffffffffffffffffffffffffff\n      and\n      eq\n        /* \"Dropsite.sol\":994:1056  require(_msgSender() == Owner, \"Only NFT-ES Owner can Access\") */\n      tag_156\n      jumpi\n      mload(0x40)\n      0x08c379a000000000000000000000000000000000000000000000000000000000\n      dup2\n      mstore\n      0x04\n      add\n      tag_157\n      swap1\n      tag_92\n      jump\t// in\n    tag_157:\n      mload(0x40)\n      dup1\n      swap2\n      sub\n      swap1\n      revert\n    tag_156:\n        /* \"Dropsite.sol\":1183:1188  false */\n      0x00\n        /* \"Dropsite.sol\":1171:1188  IsPaused == false */\n      iszero\n      iszero\n        /* \"Dropsite.sol\":1171:1179  IsPaused */\n      0x0c\n      0x00\n      swap1\n      sload\n      swap1\n      0x0100\n      exp\n      swap1\n      div\n      0xff\n      and\n        /* \"Dropsite.sol\":1171:1188  IsPaused == false */\n      iszero\n      iszero\n      eq\n        /* \"Dropsite.sol\":1162:1221  require (IsPaused == false, \"Dropsite is not Opened Yet.\" ) */\n      tag_159\n      jumpi\n      mload(0x40)\n      0x08c379a000000000000000000000000000000000000000000000000000000000\n      dup2\n      mstore\n      0x04\n      add\n      tag_160\n      swap1\n      tag_119\n      jump\t// in\n    tag_160:\n      mload(0x40)\n      dup1\n      swap2\n      sub\n      swap1\n      revert\n    tag_159:\n        /* \"Dropsite.sol\":5452:5462  uint nftId */\n      0x00\n        /* \"Dropsite.sol\":5465:5483  updateConditions() */\n      tag_162\n        /* \"Dropsite.sol\":5465:5481  updateConditions */\n      tag_163\n        /* \"Dropsite.sol\":5465:5483  updateConditions() */\n      jump\t// in\n    tag_162:\n        /* \"Dropsite.sol\":5452:5483  uint nftId = updateConditions() */\n      swap1\n      pop\n        /* \"Dropsite.sol\":5489:5531  _mint(user_addr, nftId, numOfCopies, data) */\n      tag_164\n        /* \"Dropsite.sol\":5495:5504  user_addr */\n      dup5\n        /* \"Dropsite.sol\":5506:5511  nftId */\n      dup3\n        /* \"Dropsite.sol\":5513:5524  numOfCopies */\n      sload(0x05)\n        /* \"Dropsite.sol\":5526:5530  data */\n      0x02\n        /* \"Dropsite.sol\":5489:5531  _mint(user_addr, nftId, numOfCopies, data) */\n      dup1\n      sload\n      tag_165\n      swap1\n      tag_166\n      jump\t// in\n    tag_165:\n      dup1\n      0x1f\n      add\n      0x20\n      dup1\n      swap2\n      div\n      mul\n      0x20\n      add\n      mload(0x40)\n      swap1\n      dup2\n      add\n      0x40\n      mstore\n      dup1\n      swap3\n      swap2\n      swap1\n      dup2\n      dup2\n      mstore\n      0x20\n      add\n      dup3\n      dup1\n      sload\n      tag_167\n      swap1\n      tag_166\n      jump\t// in\n    tag_167:\n      dup1\n      iszero\n      tag_168\n      jumpi\n      dup1\n      0x1f\n      lt\n      tag_169\n      jumpi\n      0x0100\n      dup1\n      dup4\n      sload\n      div\n      mul\n      dup4\n      mstore\n      swap2\n      0x20\n      add\n      swap2\n      jump(tag_168)\n    tag_169:\n      dup3\n      add\n      swap2\n      swap1\n      0x00\n      mstore\n      keccak256(0x00, 0x20)\n      swap1\n    tag_170:\n      dup2\n      sload\n      dup2\n      mstore\n      swap1\n      0x01\n      add\n      swap1\n      0x20\n      add\n      dup1\n      dup4\n      gt\n      tag_170\n      jumpi\n      dup3\n      swap1\n      sub\n      0x1f\n      and\n      dup3\n      add\n      swap2\n    tag_168:\n      pop\n      pop\n      pop\n      pop\n      pop\n        /* \"Dropsite.sol\":5489:5494  _mint */\n      tag_171\n        /* \"Dropsite.sol\":5489:5531  _mint(user_addr, nftId, numOfCopies, data) */\n      jump\t// in\n    tag_164:\n        /* \"Dropsite.sol\":5537:5552  TotalNFTsMinted */\n      0x04\n      0x00\n        /* \"Dropsite.sol\":5537:5554  TotalNFTsMinted++ */\n      dup2\n      sload\n      dup1\n      swap3\n      swap2\n      swap1\n      tag_172\n      swap1\n      tag_135\n      jump\t// in\n    tag_172:\n      swap2\n      swap1\n      pop\n      sstore\n      pop\n        /* \"Dropsite.sol\":5560:5578  dropsite_NFT_Owner */\n      0x0a\n        /* \"Dropsite.sol\":5560:5589  dropsite_NFT_Owner[user_addr] */\n      0x00\n        /* \"Dropsite.sol\":5579:5588  user_addr */\n      dup6\n        /* \"Dropsite.sol\":5560:5589  dropsite_NFT_Owner[user_addr] */\n      0xffffffffffffffffffffffffffffffffffffffff\n      and\n      0xffffffffffffffffffffffffffffffffffffffff\n      and\n      dup2\n      mstore\n      0x20\n      add\n      swap1\n      dup2\n      mstore\n      0x20\n      add\n      0x00\n      keccak256\n        /* \"Dropsite.sol\":5560:5609  dropsite_NFT_Owner[user_addr].owned_Dropsite_NFTs */\n      0x00\n      add\n        /* \"Dropsite.sol\":5615:5620  nftId */\n      dup2\n        /* \"Dropsite.sol\":5560:5621  dropsite_NFT_Owner[user_addr].owned_Dropsite_NFTs.push(nftId) */\n      swap1\n      dup1\n      0x01\n      dup2\n      sload\n      add\n      dup1\n      dup3\n      sstore\n      dup1\n      swap2\n      pop\n      pop\n      0x01\n      swap1\n      sub\n      swap1\n      0x00\n      mstore\n      keccak256(0x00, 0x20)\n      add\n      0x00\n      swap1\n      swap2\n      swap1\n      swap2\n      swap1\n      swap2\n      pop\n      sstore\n        /* \"Dropsite.sol\":5635:5640  nftId */\n      dup1\n        /* \"Dropsite.sol\":5648:5652  data */\n      0x02\n        /* \"Dropsite.sol\":5627:5654  return (nftId,string(data)) */\n      dup1\n      dup1\n      sload\n      tag_174\n      swap1\n      tag_166\n      jump\t// in\n    tag_174:\n      dup1\n      0x1f\n      add\n      0x20\n      dup1\n      swap2\n      div\n      mul\n      0x20\n      add\n      mload(0x40)\n      swap1\n      dup2\n      add\n      0x40\n      mstore\n      dup1\n      swap3\n      swap2\n      swap1\n      dup2\n      dup2\n      mstore\n      0x20\n      add\n      dup3\n      dup1\n      sload\n      tag_175\n      swap1\n      tag_166\n      jump\t// in\n    tag_175:\n      dup1\n      iszero\n      tag_176\n      jumpi\n      dup1\n      0x1f\n      lt\n      tag_177\n      jumpi\n      0x0100\n      dup1\n      dup4\n      sload\n      div\n      mul\n      dup4\n      mstore\n      swap2\n      0x20\n      add\n      swap2\n      jump(tag_176)\n    tag_177:\n      dup3\n      add\n      swap2\n      swap1\n      0x00\n      mstore\n      keccak256(0x00, 0x20)\n      swap1\n    tag_178:\n      dup2\n      sload\n      dup2\n      mstore\n      swap1\n      0x01\n      add\n      swap1\n      0x20\n      add\n      dup1\n      dup4\n      gt\n      tag_178\n      jumpi\n      dup3\n      swap1\n      sub\n      0x1f\n      and\n      dup3\n      add\n      swap2\n    tag_176:\n      pop\n      pop\n      pop\n      pop\n      pop\n      swap1\n      pop\n      swap3\n      pop\n      swap3\n      pop\n      pop\n        /* \"Dropsite.sol\":5261:5657  function randomMinting(address user_addr) OnlyOwner contractIsNotPaused public returns (uint,string memory) {... */\n      swap2\n      pop\n      swap2\n      jump\t// out\n        /* \"Dropsite.sol\":1882:2029  function checkMintedCategoryWise() public view OnlyOwner contractIsNotPaused returns(uint,uint,uint){... */\n    tag_61:\n        /* \"Dropsite.sol\":1967:1971  uint */\n      0x00\n        /* \"Dropsite.sol\":1972:1976  uint */\n      dup1\n        /* \"Dropsite.sol\":1977:1981  uint */\n      0x00\n        /* \"Dropsite.sol\":1018:1023  Owner */\n      0x0c\n      0x01\n      swap1\n      sload\n      swap1\n      0x0100\n      exp\n      swap1\n      div\n      0xffffffffffffffffffffffffffffffffffffffff\n      and\n        /* \"Dropsite.sol\":1002:1023  _msgSender() == Owner */\n      0xffffffffffffffffffffffffffffffffffffffff\n      and\n        /* \"Dropsite.sol\":1002:1014  _msgSender() */\n      tag_180\n        /* \"Dropsite.sol\":1002:1012  _msgSender */\n      tag_89\n        /* \"Dropsite.sol\":1002:1014  _msgSender() */\n      jump\t// in\n    tag_180:\n        /* \"Dropsite.sol\":1002:1023  _msgSender() == Owner */\n      0xffffffffffffffffffffffffffffffffffffffff\n      and\n      eq\n        /* \"Dropsite.sol\":994:1056  require(_msgSender() == Owner, \"Only NFT-ES Owner can Access\") */\n      tag_181\n      jumpi\n      mload(0x40)\n      0x08c379a000000000000000000000000000000000000000000000000000000000\n      dup2\n      mstore\n      0x04\n      add\n      tag_182\n      swap1\n      tag_92\n      jump\t// in\n    tag_182:\n      mload(0x40)\n      dup1\n      swap2\n      sub\n      swap1\n      revert\n    tag_181:\n        /* \"Dropsite.sol\":1183:1188  false */\n      0x00\n        /* \"Dropsite.sol\":1171:1188  IsPaused == false */\n      iszero\n      iszero\n        /* \"Dropsite.sol\":1171:1179  IsPaused */\n      0x0c\n      0x00\n      swap1\n      sload\n      swap1\n      0x0100\n      exp\n      swap1\n      div\n      0xff\n      and\n        /* \"Dropsite.sol\":1171:1188  IsPaused == false */\n      iszero\n      iszero\n      eq\n        /* \"Dropsite.sol\":1162:1221  require (IsPaused == false, \"Dropsite is not Opened Yet.\" ) */\n      tag_184\n      jumpi\n      mload(0x40)\n      0x08c379a000000000000000000000000000000000000000000000000000000000\n      dup2\n      mstore\n      0x04\n      add\n      tag_185\n      swap1\n      tag_119\n      jump\t// in\n    tag_185:\n      mload(0x40)\n      dup1\n      swap2\n      sub\n      swap1\n      revert\n    tag_184:\n        /* \"Dropsite.sol\":2001:2008  Diamond */\n      sload(0x07)\n        /* \"Dropsite.sol\":2009:2013  Gold */\n      sload(0x08)\n        /* \"Dropsite.sol\":2014:2020  Silver */\n      sload(0x09)\n        /* \"Dropsite.sol\":1993:2021  return (Diamond,Gold,Silver) */\n      swap3\n      pop\n      swap3\n      pop\n      swap3\n      pop\n        /* \"Dropsite.sol\":1882:2029  function checkMintedCategoryWise() public view OnlyOwner contractIsNotPaused returns(uint,uint,uint){... */\n      swap1\n      swap2\n      swap3\n      jump\t// out\n        /* \"Dropsite.sol\":2151:2262  function getMintFee() public view OnlyOwner contractIsNotPaused returns (uint) {... */\n    tag_66:\n        /* \"Dropsite.sol\":2224:2228  uint */\n      0x00\n        /* \"Dropsite.sol\":1018:1023  Owner */\n      0x0c\n      0x01\n      swap1\n      sload\n      swap1\n      0x0100\n      exp\n      swap1\n      div\n      0xffffffffffffffffffffffffffffffffffffffff\n      and\n        /* \"Dropsite.sol\":1002:1023  _msgSender() == Owner */\n      0xffffffffffffffffffffffffffffffffffffffff\n      and\n        /* \"Dropsite.sol\":1002:1014  _msgSender() */\n      tag_188\n        /* \"Dropsite.sol\":1002:1012  _msgSender */\n      tag_89\n        /* \"Dropsite.sol\":1002:1014  _msgSender() */\n      jump\t// in\n    tag_188:\n        /* \"Dropsite.sol\":1002:1023  _msgSender() == Owner */\n      0xffffffffffffffffffffffffffffffffffffffff\n      and\n      eq\n        /* \"Dropsite.sol\":994:1056  require(_msgSender() == Owner, \"Only NFT-ES Owner can Access\") */\n      tag_189\n      jumpi\n      mload(0x40)\n      0x08c379a000000000000000000000000000000000000000000000000000000000\n      dup2\n      mstore\n      0x04\n      add\n      tag_190\n      swap1\n      tag_92\n      jump\t// in\n    tag_190:\n      mload(0x40)\n      dup1\n      swap2\n      sub\n      swap1\n      revert\n    tag_189:\n        /* \"Dropsite.sol\":1183:1188  false */\n      0x00\n        /* \"Dropsite.sol\":1171:1188  IsPaused == false */\n      iszero\n      iszero\n        /* \"Dropsite.sol\":1171:1179  IsPaused */\n      0x0c\n      0x00\n      swap1\n      sload\n      swap1\n      0x0100\n      exp\n      swap1\n      div\n      0xff\n      and\n        /* \"Dropsite.sol\":1171:1188  IsPaused == false */\n      iszero\n      iszero\n      eq\n        /* \"Dropsite.sol\":1162:1221  require (IsPaused == false, \"Dropsite is not Opened Yet.\" ) */\n      tag_192\n      jumpi\n      mload(0x40)\n      0x08c379a000000000000000000000000000000000000000000000000000000000\n      dup2\n      mstore\n      0x04\n      add\n      tag_193\n      swap1\n      tag_119\n      jump\t// in\n    tag_193:\n      mload(0x40)\n      dup1\n      swap2\n      sub\n      swap1\n      revert\n    tag_192:\n        /* \"Dropsite.sol\":2247:2255  mintFees */\n      sload(0x06)\n        /* \"Dropsite.sol\":2240:2255  return mintFees */\n      swap1\n      pop\n        /* \"Dropsite.sol\":2151:2262  function getMintFee() public view OnlyOwner contractIsNotPaused returns (uint) {... */\n      swap1\n      jump\t// out\n        /* \"Dropsite.sol\":2417:2552  function stopDropsite() public OnlyOwner{... */\n    tag_70:\n        /* \"Dropsite.sol\":1018:1023  Owner */\n      0x0c\n      0x01\n      swap1\n      sload\n      swap1\n      0x0100\n      exp\n      swap1\n      div\n      0xffffffffffffffffffffffffffffffffffffffff\n      and\n        /* \"Dropsite.sol\":1002:1023  _msgSender() == Owner */\n      0xffffffffffffffffffffffffffffffffffffffff\n      and\n        /* \"Dropsite.sol\":1002:1014  _msgSender() */\n      tag_196\n        /* \"Dropsite.sol\":1002:1012  _msgSender */\n      tag_89\n        /* \"Dropsite.sol\":1002:1014  _msgSender() */\n      jump\t// in\n    tag_196:\n        /* \"Dropsite.sol\":1002:1023  _msgSender() == Owner */\n      0xffffffffffffffffffffffffffffffffffffffff\n      and\n      eq\n        /* \"Dropsite.sol\":994:1056  require(_msgSender() == Owner, \"Only NFT-ES Owner can Access\") */\n      tag_197\n      jumpi\n      mload(0x40)\n      0x08c379a000000000000000000000000000000000000000000000000000000000\n      dup2\n      mstore\n      0x04\n      add\n      tag_198\n      swap1\n      tag_92\n      jump\t// in\n    tag_198:\n      mload(0x40)\n      dup1\n      swap2\n      sub\n      swap1\n      revert\n    tag_197:\n        /* \"Dropsite.sol\":2485:2490  false */\n      0x00\n        /* \"Dropsite.sol\":2475:2490  IsPaused==false */\n      iszero\n      iszero\n        /* \"Dropsite.sol\":2475:2483  IsPaused */\n      0x0c\n      0x00\n      swap1\n      sload\n      swap1\n      0x0100\n      exp\n      swap1\n      div\n      0xff\n      and\n        /* \"Dropsite.sol\":2475:2490  IsPaused==false */\n      iszero\n      iszero\n      eq\n        /* \"Dropsite.sol\":2467:2522  require(IsPaused==false, \"Dropsite is already Stopped\") */\n      tag_200\n      jumpi\n      mload(0x40)\n      0x08c379a000000000000000000000000000000000000000000000000000000000\n      dup2\n      mstore\n      0x04\n      add\n      tag_201\n      swap1\n      tag_202\n      jump\t// in\n    tag_201:\n      mload(0x40)\n      dup1\n      swap2\n      sub\n      swap1\n      revert\n    tag_200:\n        /* \"Dropsite.sol\":2541:2545  true */\n      0x01\n        /* \"Dropsite.sol\":2532:2540  IsPaused */\n      0x0c\n      0x00\n        /* \"Dropsite.sol\":2532:2545  IsPaused=true */\n      0x0100\n      exp\n      dup2\n      sload\n      dup2\n      0xff\n      mul\n      not\n      and\n      swap1\n      dup4\n      iszero\n      iszero\n      mul\n      or\n      swap1\n      sstore\n      pop\n        /* \"Dropsite.sol\":2417:2552  function stopDropsite() public OnlyOwner{... */\n      jump\t// out\n        /* \"Dropsite.sol\":1279:1308  address payable public  Owner */\n    tag_73:\n      0x0c\n      0x01\n      swap1\n      sload\n      swap1\n      0x0100\n      exp\n      swap1\n      div\n      0xffffffffffffffffffffffffffffffffffffffff\n      and\n      dup2\n      jump\t// out\n        /* \"Dropsite.sol\":2035:2141  function setMintFee(uint _mintFee) public OnlyOwner contractIsNotPaused {... */\n    tag_80:\n        /* \"Dropsite.sol\":1018:1023  Owner */\n      0x0c\n      0x01\n      swap1\n      sload\n      swap1\n      0x0100\n      exp\n      swap1\n      div\n      0xffffffffffffffffffffffffffffffffffffffff\n      and\n        /* \"Dropsite.sol\":1002:1023  _msgSender() == Owner */\n      0xffffffffffffffffffffffffffffffffffffffff\n      and\n        /* \"Dropsite.sol\":1002:1014  _msgSender() */\n      tag_204\n        /* \"Dropsite.sol\":1002:1012  _msgSender */\n      tag_89\n        /* \"Dropsite.sol\":1002:1014  _msgSender() */\n      jump\t// in\n    tag_204:\n        /* \"Dropsite.sol\":1002:1023  _msgSender() == Owner */\n      0xffffffffffffffffffffffffffffffffffffffff\n      and\n      eq\n        /* \"Dropsite.sol\":994:1056  require(_msgSender() == Owner, \"Only NFT-ES Owner can Access\") */\n      tag_205\n      jumpi\n      mload(0x40)\n      0x08c379a000000000000000000000000000000000000000000000000000000000\n      dup2\n      mstore\n      0x04\n      add\n      tag_206\n      swap1\n      tag_92\n      jump\t// in\n    tag_206:\n      mload(0x40)\n      dup1\n      swap2\n      sub\n      swap1\n      revert\n    tag_205:\n        /* \"Dropsite.sol\":1183:1188  false */\n      0x00\n        /* \"Dropsite.sol\":1171:1188  IsPaused == false */\n      iszero\n      iszero\n        /* \"Dropsite.sol\":1171:1179  IsPaused */\n      0x0c\n      0x00\n      swap1\n      sload\n      swap1\n      0x0100\n      exp\n      swap1\n      div\n      0xff\n      and\n        /* \"Dropsite.sol\":1171:1188  IsPaused == false */\n      iszero\n      iszero\n      eq\n        /* \"Dropsite.sol\":1162:1221  require (IsPaused == false, \"Dropsite is not Opened Yet.\" ) */\n      tag_208\n      jumpi\n      mload(0x40)\n      0x08c379a000000000000000000000000000000000000000000000000000000000\n      dup2\n      mstore\n      0x04\n      add\n      tag_209\n      swap1\n      tag_119\n      jump\t// in\n    tag_209:\n      mload(0x40)\n      dup1\n      swap2\n      sub\n      swap1\n      revert\n    tag_208:\n        /* \"Dropsite.sol\":2126:2134  _mintFee */\n      dup1\n        /* \"Dropsite.sol\":2117:2125  mintFees */\n      0x06\n        /* \"Dropsite.sol\":2117:2134  mintFees=_mintFee */\n      dup2\n      swap1\n      sstore\n      pop\n        /* \"Dropsite.sol\":2035:2141  function setMintFee(uint _mintFee) public OnlyOwner contractIsNotPaused {... */\n      pop\n      jump\t// out\n        /* \"Dropsite.sol\":1663:1822  function returnOwner(address addr) public view contractIsNotPaused returns  (uint[] memory){... */\n    tag_84:\n        /* \"Dropsite.sol\":1740:1753  uint[] memory */\n      0x60\n        /* \"Dropsite.sol\":1183:1188  false */\n      0x00\n        /* \"Dropsite.sol\":1171:1188  IsPaused == false */\n      iszero\n      iszero\n        /* \"Dropsite.sol\":1171:1179  IsPaused */\n      0x0c\n      0x00\n      swap1\n      sload\n      swap1\n      0x0100\n      exp\n      swap1\n      div\n      0xff\n      and\n        /* \"Dropsite.sol\":1171:1188  IsPaused == false */\n      iszero\n      iszero\n      eq\n        /* \"Dropsite.sol\":1162:1221  require (IsPaused == false, \"Dropsite is not Opened Yet.\" ) */\n      tag_212\n      jumpi\n      mload(0x40)\n      0x08c379a000000000000000000000000000000000000000000000000000000000\n      dup2\n      mstore\n      0x04\n      add\n      tag_213\n      swap1\n      tag_119\n      jump\t// in\n    tag_213:\n      mload(0x40)\n      dup1\n      swap2\n      sub\n      swap1\n      revert\n    tag_212:\n        /* \"Dropsite.sol\":1771:1789  dropsite_NFT_Owner */\n      0x0a\n        /* \"Dropsite.sol\":1771:1795  dropsite_NFT_Owner[addr] */\n      0x00\n        /* \"Dropsite.sol\":1790:1794  addr */\n      dup4\n        /* \"Dropsite.sol\":1771:1795  dropsite_NFT_Owner[addr] */\n      0xffffffffffffffffffffffffffffffffffffffff\n      and\n      0xffffffffffffffffffffffffffffffffffffffff\n      and\n      dup2\n      mstore\n      0x20\n      add\n      swap1\n      dup2\n      mstore\n      0x20\n      add\n      0x00\n      keccak256\n        /* \"Dropsite.sol\":1771:1815  dropsite_NFT_Owner[addr].owned_Dropsite_NFTs */\n      0x00\n      add\n        /* \"Dropsite.sol\":1764:1815  return dropsite_NFT_Owner[addr].owned_Dropsite_NFTs */\n      dup1\n      sload\n      dup1\n      0x20\n      mul\n      0x20\n      add\n      mload(0x40)\n      swap1\n      dup2\n      add\n      0x40\n      mstore\n      dup1\n      swap3\n      swap2\n      swap1\n      dup2\n      dup2\n      mstore\n      0x20\n      add\n      dup3\n      dup1\n      sload\n      dup1\n      iszero\n      tag_215\n      jumpi\n      0x20\n      mul\n      dup3\n      add\n      swap2\n      swap1\n      0x00\n      mstore\n      keccak256(0x00, 0x20)\n      swap1\n    tag_216:\n      dup2\n      sload\n      dup2\n      mstore\n      0x20\n      add\n      swap1\n      0x01\n      add\n      swap1\n      dup1\n      dup4\n      gt\n      tag_216\n      jumpi\n    tag_215:\n      pop\n      pop\n      pop\n      pop\n      pop\n      swap1\n      pop\n        /* \"Dropsite.sol\":1663:1822  function returnOwner(address addr) public view contractIsNotPaused returns  (uint[] memory){... */\n      swap2\n      swap1\n      pop\n      jump\t// out\n        /* \"Context.sol\":640:736  function _msgSender() internal view virtual returns (address) {... */\n    tag_89:\n        /* \"Context.sol\":693:700  address */\n      0x00\n        /* \"Context.sol\":719:729  msg.sender */\n      caller\n        /* \"Context.sol\":712:729  return msg.sender */\n      swap1\n      pop\n        /* \"Context.sol\":640:736  function _msgSender() internal view virtual returns (address) {... */\n      swap1\n      jump\t// out\n        /* \"Dropsite.sol\":6129:6248  function depositAmount(address payee,uint amountToDeposit) internal {... */\n    tag_153:\n        /* \"Dropsite.sol\":6226:6241  amountToDeposit */\n      dup1\n        /* \"Dropsite.sol\":6207:6215  deposits */\n      0x0b\n        /* \"Dropsite.sol\":6207:6222  deposits[payee] */\n      0x00\n        /* \"Dropsite.sol\":6216:6221  payee */\n      dup5\n        /* \"Dropsite.sol\":6207:6222  deposits[payee] */\n      0xffffffffffffffffffffffffffffffffffffffff\n      and\n      0xffffffffffffffffffffffffffffffffffffffff\n      and\n      dup2\n      mstore\n      0x20\n      add\n      swap1\n      dup2\n      mstore\n      0x20\n      add\n      0x00\n      keccak256\n      0x00\n        /* \"Dropsite.sol\":6207:6241  deposits[payee] += amountToDeposit */\n      dup3\n      dup3\n      sload\n      tag_219\n      swap2\n      swap1\n      tag_220\n      jump\t// in\n    tag_219:\n      swap3\n      pop\n      pop\n      dup2\n      swap1\n      sstore\n      pop\n        /* \"Dropsite.sol\":6129:6248  function depositAmount(address payee,uint amountToDeposit) internal {... */\n      pop\n      pop\n      jump\t// out\n        /* \"Dropsite.sol\":3657:5259  function updateConditions() internal contractIsNotPaused returns(uint) {... */\n    tag_163:\n        /* \"Dropsite.sol\":3722:3726  uint */\n      0x00\n        /* \"Dropsite.sol\":1183:1188  false */\n      dup1\n        /* \"Dropsite.sol\":1171:1188  IsPaused == false */\n      iszero\n      iszero\n        /* \"Dropsite.sol\":1171:1179  IsPaused */\n      0x0c\n      0x00\n      swap1\n      sload\n      swap1\n      0x0100\n      exp\n      swap1\n      div\n      0xff\n      and\n        /* \"Dropsite.sol\":1171:1188  IsPaused == false */\n      iszero\n      iszero\n      eq\n        /* \"Dropsite.sol\":1162:1221  require (IsPaused == false, \"Dropsite is not Opened Yet.\" ) */\n      tag_222\n      jumpi\n      mload(0x40)\n      0x08c379a000000000000000000000000000000000000000000000000000000000\n      dup2\n      mstore\n      0x04\n      add\n      tag_223\n      swap1\n      tag_119\n      jump\t// in\n    tag_223:\n      mload(0x40)\n      dup1\n      swap2\n      sub\n      swap1\n      revert\n    tag_222:\n        /* \"Dropsite.sol\":3737:3747  uint index */\n      0x00\n        /* \"Dropsite.sol\":3750:3758  random() */\n      tag_225\n        /* \"Dropsite.sol\":3750:3756  random */\n      tag_226\n        /* \"Dropsite.sol\":3750:3758  random() */\n      jump\t// in\n    tag_225:\n        /* \"Dropsite.sol\":3737:3758  uint index = random() */\n      swap1\n      pop\n        /* \"Dropsite.sol\":3768:3778  uint nftId */\n      0x00\n        /* \"Dropsite.sol\":3781:3785  nums */\n      0x03\n        /* \"Dropsite.sol\":3786:3791  index */\n      dup3\n        /* \"Dropsite.sol\":3781:3792  nums[index] */\n      0x14\n      dup2\n      lt\n      tag_227\n      jumpi\n      tag_228\n      tag_131\n      jump\t// in\n    tag_228:\n    tag_227:\n      0x20\n      swap2\n      dup3\n      dup3\n      div\n      add\n      swap2\n      swap1\n      mod\n      swap1\n      sload\n      swap1\n      0x0100\n      exp\n      swap1\n      div\n      0xff\n      and\n        /* \"Dropsite.sol\":3768:3792  uint nftId = nums[index] */\n      0xff\n      and\n      swap1\n      pop\n        /* \"Dropsite.sol\":3898:3899  0 */\n      0x00\n        /* \"Dropsite.sol\":3889:3894  nftId */\n      dup2\n        /* \"Dropsite.sol\":3889:3899  nftId == 0 */\n      eq\n        /* \"Dropsite.sol\":3889:3915  nftId == 0 && Diamond < 50 */\n      dup1\n      iszero\n      tag_230\n      jumpi\n      pop\n        /* \"Dropsite.sol\":3913:3915  50 */\n      0x32\n        /* \"Dropsite.sol\":3903:3910  Diamond */\n      sload(0x07)\n        /* \"Dropsite.sol\":3903:3915  Diamond < 50 */\n      lt\n        /* \"Dropsite.sol\":3889:3915  nftId == 0 && Diamond < 50 */\n    tag_230:\n        /* \"Dropsite.sol\":3886:5254  if(nftId == 0 && Diamond < 50) {... */\n      iszero\n      tag_231\n      jumpi\n        /* \"Dropsite.sol\":3932:3939  Diamond */\n      0x07\n      0x00\n        /* \"Dropsite.sol\":3932:3941  Diamond++ */\n      dup2\n      sload\n      dup1\n      swap3\n      swap2\n      swap1\n      tag_232\n      swap1\n      tag_135\n      jump\t// in\n    tag_232:\n      swap2\n      swap1\n      pop\n      sstore\n      pop\n        /* \"Dropsite.sol\":3997:4022  Strings.toString(Diamond) */\n      tag_233\n        /* \"Dropsite.sol\":4014:4021  Diamond */\n      sload(0x07)\n        /* \"Dropsite.sol\":3997:4013  Strings.toString */\n      tag_234\n        /* \"Dropsite.sol\":3997:4022  Strings.toString(Diamond) */\n      jump\t// in\n    tag_233:\n        /* \"Dropsite.sol\":3969:4023  abi.encodePacked(\"Diamond_\",Strings.toString(Diamond)) */\n      add(0x20, mload(0x40))\n      tag_235\n      swap2\n      swap1\n      tag_236\n      jump\t// in\n    tag_235:\n      mload(0x40)\n      0x20\n      dup2\n      dup4\n      sub\n      sub\n      dup2\n      mstore\n      swap1\n      0x40\n      mstore\n        /* \"Dropsite.sol\":3955:3959  data */\n      0x02\n        /* \"Dropsite.sol\":3955:4024  data = string(abi.encodePacked(\"Diamond_\",Strings.toString(Diamond))) */\n      swap1\n      dup1\n      mload\n      swap1\n      0x20\n      add\n      swap1\n      tag_237\n      swap3\n      swap2\n      swap1\n      tag_238\n      jump\t// in\n    tag_237:\n      pop\n        /* \"Dropsite.sol\":4058:4063  nftId */\n      dup1\n        /* \"Dropsite.sol\":4051:4063  return nftId */\n      swap3\n      pop\n      pop\n      pop\n      jump(tag_224)\n        /* \"Dropsite.sol\":3886:5254  if(nftId == 0 && Diamond < 50) {... */\n    tag_231:\n        /* \"Dropsite.sol\":4187:4188  1 */\n      0x01\n        /* \"Dropsite.sol\":4178:4183  nftId */\n      dup2\n        /* \"Dropsite.sol\":4178:4188  nftId <= 1 */\n      gt\n      iszero\n        /* \"Dropsite.sol\":4178:4202  nftId <= 1 && Gold < 100 */\n      dup1\n      iszero\n      tag_240\n      jumpi\n      pop\n        /* \"Dropsite.sol\":4199:4202  100 */\n      0x64\n        /* \"Dropsite.sol\":4192:4196  Gold */\n      sload(0x08)\n        /* \"Dropsite.sol\":4192:4202  Gold < 100 */\n      lt\n        /* \"Dropsite.sol\":4178:4202  nftId <= 1 && Gold < 100 */\n    tag_240:\n        /* \"Dropsite.sol\":4175:5254  if(nftId <= 1 && Gold < 100) {... */\n      iszero\n      tag_241\n      jumpi\n        /* \"Dropsite.sol\":4218:4222  Gold */\n      0x08\n      0x00\n        /* \"Dropsite.sol\":4218:4224  Gold++ */\n      dup2\n      sload\n      dup1\n      swap3\n      swap2\n      swap1\n      tag_242\n      swap1\n      tag_135\n      jump\t// in\n    tag_242:\n      swap2\n      swap1\n      pop\n      sstore\n      pop\n        /* \"Dropsite.sol\":4277:4299  Strings.toString(Gold) */\n      tag_243\n        /* \"Dropsite.sol\":4294:4298  Gold */\n      sload(0x08)\n        /* \"Dropsite.sol\":4277:4293  Strings.toString */\n      tag_234\n        /* \"Dropsite.sol\":4277:4299  Strings.toString(Gold) */\n      jump\t// in\n    tag_243:\n        /* \"Dropsite.sol\":4252:4300  abi.encodePacked(\"Gold_\",Strings.toString(Gold)) */\n      add(0x20, mload(0x40))\n      tag_244\n      swap2\n      swap1\n      tag_245\n      jump\t// in\n    tag_244:\n      mload(0x40)\n      0x20\n      dup2\n      dup4\n      sub\n      sub\n      dup2\n      mstore\n      swap1\n      0x40\n      mstore\n        /* \"Dropsite.sol\":4238:4242  data */\n      0x02\n        /* \"Dropsite.sol\":4238:4301  data = string(abi.encodePacked(\"Gold_\",Strings.toString(Gold))) */\n      swap1\n      dup1\n      mload\n      swap1\n      0x20\n      add\n      swap1\n      tag_246\n      swap3\n      swap2\n      swap1\n      tag_238\n      jump\t// in\n    tag_246:\n      pop\n        /* \"Dropsite.sol\":4322:4327  nftId */\n      dup1\n        /* \"Dropsite.sol\":4315:4327  return nftId */\n      swap3\n      pop\n      pop\n      pop\n      jump(tag_224)\n        /* \"Dropsite.sol\":4175:5254  if(nftId <= 1 && Gold < 100) {... */\n    tag_241:\n        /* \"Dropsite.sol\":4457:4458  2 */\n      0x02\n        /* \"Dropsite.sol\":4448:4453  nftId */\n      dup2\n        /* \"Dropsite.sol\":4448:4458  nftId <= 2 */\n      gt\n      iszero\n        /* \"Dropsite.sol\":4448:4475  nftId <= 2 && Silver <= 850 */\n      dup1\n      iszero\n      tag_248\n      jumpi\n      pop\n        /* \"Dropsite.sol\":4472:4475  850 */\n      0x0352\n        /* \"Dropsite.sol\":4462:4468  Silver */\n      sload(0x09)\n        /* \"Dropsite.sol\":4462:4475  Silver <= 850 */\n      gt\n      iszero\n        /* \"Dropsite.sol\":4448:4475  nftId <= 2 && Silver <= 850 */\n    tag_248:\n        /* \"Dropsite.sol\":4445:5254  if(nftId <= 2 && Silver <= 850) {... */\n      iszero\n      tag_249\n      jumpi\n        /* \"Dropsite.sol\":4491:4497  Silver */\n      0x09\n      0x00\n        /* \"Dropsite.sol\":4491:4499  Silver++ */\n      dup2\n      sload\n      dup1\n      swap3\n      swap2\n      swap1\n      tag_250\n      swap1\n      tag_135\n      jump\t// in\n    tag_250:\n      swap2\n      swap1\n      pop\n      sstore\n      pop\n        /* \"Dropsite.sol\":4559:4583  Strings.toString(Silver) */\n      tag_251\n        /* \"Dropsite.sol\":4576:4582  Silver */\n      sload(0x09)\n        /* \"Dropsite.sol\":4559:4575  Strings.toString */\n      tag_234\n        /* \"Dropsite.sol\":4559:4583  Strings.toString(Silver) */\n      jump\t// in\n    tag_251:\n        /* \"Dropsite.sol\":4532:4584  abi.encodePacked(\"Silver_\",Strings.toString(Silver)) */\n      add(0x20, mload(0x40))\n      tag_252\n      swap2\n      swap1\n      tag_253\n      jump\t// in\n    tag_252:\n      mload(0x40)\n      0x20\n      dup2\n      dup4\n      sub\n      sub\n      dup2\n      mstore\n      swap1\n      0x40\n      mstore\n        /* \"Dropsite.sol\":4518:4522  data */\n      0x02\n        /* \"Dropsite.sol\":4518:4585  data = string(abi.encodePacked(\"Silver_\",Strings.toString(Silver))) */\n      swap1\n      dup1\n      mload\n      swap1\n      0x20\n      add\n      swap1\n      tag_254\n      swap3\n      swap2\n      swap1\n      tag_238\n      jump\t// in\n    tag_254:\n        /* \"Dropsite.sol\":4513:4517  data */\n      0x02\n        /* \"Dropsite.sol\":4513:4585  data=data = string(abi.encodePacked(\"Silver_\",Strings.toString(Silver))) */\n      swap1\n      dup1\n      sload\n      tag_255\n      swap1\n      tag_166\n      jump\t// in\n    tag_255:\n      tag_256\n      swap3\n      swap2\n      swap1\n      tag_257\n      jump\t// in\n    tag_256:\n      pop\n        /* \"Dropsite.sol\":4619:4624  nftId */\n      dup1\n        /* \"Dropsite.sol\":4612:4624  return nftId */\n      swap3\n      pop\n      pop\n      pop\n      jump(tag_224)\n        /* \"Dropsite.sol\":4445:5254  if(nftId <= 2 && Silver <= 850) {... */\n    tag_249:\n        /* \"Dropsite.sol\":4836:4839  100 */\n      0x64\n        /* \"Dropsite.sol\":4829:4833  Gold */\n      sload(0x08)\n        /* \"Dropsite.sol\":4829:4839  Gold < 100 */\n      lt\n        /* \"Dropsite.sol\":4826:5245  if(Gold < 100) {... */\n      iszero\n      tag_259\n      jumpi\n        /* \"Dropsite.sol\":4867:4868  1 */\n      0x01\n        /* \"Dropsite.sol\":4859:4868  nftId = 1 */\n      swap1\n      pop\n        /* \"Dropsite.sol\":4886:4890  Gold */\n      0x08\n      0x00\n        /* \"Dropsite.sol\":4886:4892  Gold++ */\n      dup2\n      sload\n      dup1\n      swap3\n      swap2\n      swap1\n      tag_260\n      swap1\n      tag_135\n      jump\t// in\n    tag_260:\n      swap2\n      swap1\n      pop\n      sstore\n      pop\n        /* \"Dropsite.sol\":4949:4971  Strings.toString(Gold) */\n      tag_261\n        /* \"Dropsite.sol\":4966:4970  Gold */\n      sload(0x08)\n        /* \"Dropsite.sol\":4949:4965  Strings.toString */\n      tag_234\n        /* \"Dropsite.sol\":4949:4971  Strings.toString(Gold) */\n      jump\t// in\n    tag_261:\n        /* \"Dropsite.sol\":4924:4972  abi.encodePacked(\"Gold_\",Strings.toString(Gold)) */\n      add(0x20, mload(0x40))\n      tag_262\n      swap2\n      swap1\n      tag_245\n      jump\t// in\n    tag_262:\n      mload(0x40)\n      0x20\n      dup2\n      dup4\n      sub\n      sub\n      dup2\n      mstore\n      swap1\n      0x40\n      mstore\n        /* \"Dropsite.sol\":4910:4914  data */\n      0x02\n        /* \"Dropsite.sol\":4910:4973  data = string(abi.encodePacked(\"Gold_\",Strings.toString(Gold))) */\n      swap1\n      dup1\n      mload\n      swap1\n      0x20\n      add\n      swap1\n      tag_263\n      swap3\n      swap2\n      swap1\n      tag_238\n      jump\t// in\n    tag_263:\n      pop\n        /* \"Dropsite.sol\":5016:5021  nftId */\n      dup1\n        /* \"Dropsite.sol\":5009:5021  return nftId */\n      swap3\n      pop\n      pop\n      pop\n      jump(tag_224)\n        /* \"Dropsite.sol\":4826:5245  if(Gold < 100) {... */\n    tag_259:\n        /* \"Dropsite.sol\":5068:5069  0 */\n      0x00\n        /* \"Dropsite.sol\":5060:5069  nftId = 0 */\n      swap1\n      pop\n        /* \"Dropsite.sol\":5087:5094  Diamond */\n      0x07\n      0x00\n        /* \"Dropsite.sol\":5087:5096  Diamond++ */\n      dup2\n      sload\n      dup1\n      swap3\n      swap2\n      swap1\n      tag_265\n      swap1\n      tag_135\n      jump\t// in\n    tag_265:\n      swap2\n      swap1\n      pop\n      sstore\n      pop\n        /* \"Dropsite.sol\":5156:5181  Strings.toString(Diamond) */\n      tag_266\n        /* \"Dropsite.sol\":5173:5180  Diamond */\n      sload(0x07)\n        /* \"Dropsite.sol\":5156:5172  Strings.toString */\n      tag_234\n        /* \"Dropsite.sol\":5156:5181  Strings.toString(Diamond) */\n      jump\t// in\n    tag_266:\n        /* \"Dropsite.sol\":5128:5182  abi.encodePacked(\"Diamond_\",Strings.toString(Diamond)) */\n      add(0x20, mload(0x40))\n      tag_267\n      swap2\n      swap1\n      tag_236\n      jump\t// in\n    tag_267:\n      mload(0x40)\n      0x20\n      dup2\n      dup4\n      sub\n      sub\n      dup2\n      mstore\n      swap1\n      0x40\n      mstore\n        /* \"Dropsite.sol\":5114:5118  data */\n      0x02\n        /* \"Dropsite.sol\":5114:5183  data = string(abi.encodePacked(\"Diamond_\",Strings.toString(Diamond))) */\n      swap1\n      dup1\n      mload\n      swap1\n      0x20\n      add\n      swap1\n      tag_268\n      swap3\n      swap2\n      swap1\n      tag_238\n      jump\t// in\n    tag_268:\n      pop\n        /* \"Dropsite.sol\":5225:5230  nftId */\n      dup1\n        /* \"Dropsite.sol\":5218:5230  return nftId */\n      swap3\n      pop\n      pop\n      pop\n        /* \"Dropsite.sol\":1231:1232  _ */\n    tag_224:\n        /* \"Dropsite.sol\":3657:5259  function updateConditions() internal contractIsNotPaused returns(uint) {... */\n      swap1\n      jump\t// out\n        /* \"ERC1155_Dropsite.sol\":835:1387  function _mint(... */\n    tag_171:\n        /* \"ERC1155_Dropsite.sol\":997:998  0 */\n      0x00\n        /* \"ERC1155_Dropsite.sol\":983:999  to != address(0) */\n      0xffffffffffffffffffffffffffffffffffffffff\n      and\n        /* \"ERC1155_Dropsite.sol\":983:985  to */\n      dup5\n        /* \"ERC1155_Dropsite.sol\":983:999  to != address(0) */\n      0xffffffffffffffffffffffffffffffffffffffff\n      and\n      eq\n      iszero\n        /* \"ERC1155_Dropsite.sol\":975:1037  require(to != address(0), \"ERC1155: mint to the zero address\") */\n      tag_270\n      jumpi\n      mload(0x40)\n      0x08c379a000000000000000000000000000000000000000000000000000000000\n      dup2\n      mstore\n      0x04\n      add\n      tag_271\n      swap1\n      tag_272\n      jump\t// in\n    tag_271:\n      mload(0x40)\n      dup1\n      swap2\n      sub\n      swap1\n      revert\n    tag_270:\n        /* \"ERC1155_Dropsite.sol\":1048:1064  address operator */\n      0x00\n        /* \"ERC1155_Dropsite.sol\":1067:1079  _msgSender() */\n      tag_273\n        /* \"ERC1155_Dropsite.sol\":1067:1077  _msgSender */\n      tag_89\n        /* \"ERC1155_Dropsite.sol\":1067:1079  _msgSender() */\n      jump\t// in\n    tag_273:\n        /* \"ERC1155_Dropsite.sol\":1048:1079  address operator = _msgSender() */\n      swap1\n      pop\n        /* \"ERC1155_Dropsite.sol\":1090:1192  _beforeTokenTransfer(operator, address(0), to, _asSingletonArray(id), _asSingletonArray(amount), data) */\n      tag_274\n        /* \"ERC1155_Dropsite.sol\":1111:1119  operator */\n      dup2\n        /* \"ERC1155_Dropsite.sol\":1129:1130  0 */\n      0x00\n        /* \"ERC1155_Dropsite.sol\":1133:1135  to */\n      dup8\n        /* \"ERC1155_Dropsite.sol\":1137:1158  _asSingletonArray(id) */\n      tag_275\n        /* \"ERC1155_Dropsite.sol\":1155:1157  id */\n      dup9\n        /* \"ERC1155_Dropsite.sol\":1137:1154  _asSingletonArray */\n      tag_276\n        /* \"ERC1155_Dropsite.sol\":1137:1158  _asSingletonArray(id) */\n      jump\t// in\n    tag_275:\n        /* \"ERC1155_Dropsite.sol\":1160:1185  _asSingletonArray(amount) */\n      tag_277\n        /* \"ERC1155_Dropsite.sol\":1178:1184  amount */\n      dup9\n        /* \"ERC1155_Dropsite.sol\":1160:1177  _asSingletonArray */\n      tag_276\n        /* \"ERC1155_Dropsite.sol\":1160:1185  _asSingletonArray(amount) */\n      jump\t// in\n    tag_277:\n        /* \"ERC1155_Dropsite.sol\":1187:1191  data */\n      dup8\n        /* \"ERC1155_Dropsite.sol\":1090:1110  _beforeTokenTransfer */\n      tag_278\n        /* \"ERC1155_Dropsite.sol\":1090:1192  _beforeTokenTransfer(operator, address(0), to, _asSingletonArray(id), _asSingletonArray(amount), data) */\n      jump\t// in\n    tag_274:\n        /* \"ERC1155_Dropsite.sol\":1223:1229  amount */\n      dup3\n        /* \"ERC1155_Dropsite.sol\":1202:1211  _balances */\n      0x00\n        /* \"ERC1155_Dropsite.sol\":1202:1215  _balances[id] */\n      dup1\n        /* \"ERC1155_Dropsite.sol\":1212:1214  id */\n      dup7\n        /* \"ERC1155_Dropsite.sol\":1202:1215  _balances[id] */\n      dup2\n      mstore\n      0x20\n      add\n      swap1\n      dup2\n      mstore\n      0x20\n      add\n      0x00\n      keccak256\n        /* \"ERC1155_Dropsite.sol\":1202:1219  _balances[id][to] */\n      0x00\n        /* \"ERC1155_Dropsite.sol\":1216:1218  to */\n      dup8\n        /* \"ERC1155_Dropsite.sol\":1202:1219  _balances[id][to] */\n      0xffffffffffffffffffffffffffffffffffffffff\n      and\n      0xffffffffffffffffffffffffffffffffffffffff\n      and\n      dup2\n      mstore\n      0x20\n      add\n      swap1\n      dup2\n      mstore\n      0x20\n      add\n      0x00\n      keccak256\n      0x00\n        /* \"ERC1155_Dropsite.sol\":1202:1229  _balances[id][to] += amount */\n      dup3\n      dup3\n      sload\n      tag_279\n      swap2\n      swap1\n      tag_220\n      jump\t// in\n    tag_279:\n      swap3\n      pop\n      pop\n      dup2\n      swap1\n      sstore\n      pop\n        /* \"ERC1155_Dropsite.sol\":1281:1283  to */\n      dup5\n        /* \"ERC1155_Dropsite.sol\":1244:1296  TransferSingle(operator, address(0), to, id, amount) */\n      0xffffffffffffffffffffffffffffffffffffffff\n      and\n        /* \"ERC1155_Dropsite.sol\":1277:1278  0 */\n      0x00\n        /* \"ERC1155_Dropsite.sol\":1244:1296  TransferSingle(operator, address(0), to, id, amount) */\n      0xffffffffffffffffffffffffffffffffffffffff\n      and\n        /* \"ERC1155_Dropsite.sol\":1259:1267  operator */\n      dup3\n        /* \"ERC1155_Dropsite.sol\":1244:1296  TransferSingle(operator, address(0), to, id, amount) */\n      0xffffffffffffffffffffffffffffffffffffffff\n      and\n      0xc3d58168c5ae7397731d063d5bbf3d657854427343f4c083240f7aacaa2d0f62\n        /* \"ERC1155_Dropsite.sol\":1285:1287  id */\n      dup8\n        /* \"ERC1155_Dropsite.sol\":1289:1295  amount */\n      dup8\n        /* \"ERC1155_Dropsite.sol\":1244:1296  TransferSingle(operator, address(0), to, id, amount) */\n      mload(0x40)\n      tag_280\n      swap3\n      swap2\n      swap1\n      tag_281\n      jump\t// in\n    tag_280:\n      mload(0x40)\n      dup1\n      swap2\n      sub\n      swap1\n      log4\n        /* \"ERC1155_Dropsite.sol\":1306:1380  _doSafeTransferAcceptanceCheck(operator, address(0), to, id, amount, data) */\n      tag_282\n        /* \"ERC1155_Dropsite.sol\":1337:1345  operator */\n      dup2\n        /* \"ERC1155_Dropsite.sol\":1355:1356  0 */\n      0x00\n        /* \"ERC1155_Dropsite.sol\":1359:1361  to */\n      dup8\n        /* \"ERC1155_Dropsite.sol\":1363:1365  id */\n      dup8\n        /* \"ERC1155_Dropsite.sol\":1367:1373  amount */\n      dup8\n        /* \"ERC1155_Dropsite.sol\":1375:1379  data */\n      dup8\n        /* \"ERC1155_Dropsite.sol\":1306:1336  _doSafeTransferAcceptanceCheck */\n      tag_283\n        /* \"ERC1155_Dropsite.sol\":1306:1380  _doSafeTransferAcceptanceCheck(operator, address(0), to, id, amount, data) */\n      jump\t// in\n    tag_282:\n        /* \"ERC1155_Dropsite.sol\":965:1387  {... */\n      pop\n        /* \"ERC1155_Dropsite.sol\":835:1387  function _mint(... */\n      pop\n      pop\n      pop\n      pop\n      jump\t// out\n        /* \"Dropsite.sol\":3276:3472  function random() internal view returns (uint) {... */\n    tag_226:\n        /* \"Dropsite.sol\":3317:3321  uint */\n      0x00\n        /* \"Dropsite.sol\":3353:3370  uint randomnumber */\n      dup1\n        /* \"Dropsite.sol\":3438:3440  20 */\n      0x14\n        /* \"Dropsite.sol\":3405:3420  block.timestamp */\n      timestamp\n        /* \"Dropsite.sol\":3422:3432  msg.sender */\n      caller\n        /* \"Dropsite.sol\":3388:3433  abi.encodePacked(block.timestamp, msg.sender) */\n      add(0x20, mload(0x40))\n      tag_285\n      swap3\n      swap2\n      swap1\n      tag_286\n      jump\t// in\n    tag_285:\n      mload(0x40)\n      0x20\n      dup2\n      dup4\n      sub\n      sub\n      dup2\n      mstore\n      swap1\n      0x40\n      mstore\n        /* \"Dropsite.sol\":3378:3434  keccak256(abi.encodePacked(block.timestamp, msg.sender)) */\n      dup1\n      mload\n      swap1\n      0x20\n      add\n      keccak256\n        /* \"Dropsite.sol\":3373:3435  uint(keccak256(abi.encodePacked(block.timestamp, msg.sender))) */\n      0x00\n      shr\n        /* \"Dropsite.sol\":3373:3440  uint(keccak256(abi.encodePacked(block.timestamp, msg.sender))) % 20 */\n      tag_287\n      swap2\n      swap1\n      tag_288\n      jump\t// in\n    tag_287:\n        /* \"Dropsite.sol\":3353:3440  uint randomnumber = uint(keccak256(abi.encodePacked(block.timestamp, msg.sender))) % 20 */\n      swap1\n      pop\n        /* \"Dropsite.sol\":3453:3465  randomnumber */\n      dup1\n        /* \"Dropsite.sol\":3446:3465  return randomnumber */\n      swap2\n      pop\n      pop\n        /* \"Dropsite.sol\":3276:3472  function random() internal view returns (uint) {... */\n      swap1\n      jump\t// out\n        /* \"Strings.sol\":329:1032  function toString(uint256 value) internal pure returns (string memory) {... */\n    tag_234:\n        /* \"Strings.sol\":385:398  string memory */\n      0x60\n        /* \"Strings.sol\":611:612  0 */\n      0x00\n        /* \"Strings.sol\":602:607  value */\n      dup3\n        /* \"Strings.sol\":602:612  value == 0 */\n      eq\n        /* \"Strings.sol\":598:649  if (value == 0) {... */\n      iszero\n      tag_290\n      jumpi\n        /* \"Strings.sol\":628:638  return \"0\" */\n      mload(0x40)\n      dup1\n      0x40\n      add\n      0x40\n      mstore\n      dup1\n      0x01\n      dup2\n      mstore\n      0x20\n      add\n      0x3000000000000000000000000000000000000000000000000000000000000000\n      dup2\n      mstore\n      pop\n      swap1\n      pop\n      jump(tag_289)\n        /* \"Strings.sol\":598:649  if (value == 0) {... */\n    tag_290:\n        /* \"Strings.sol\":658:670  uint256 temp */\n      0x00\n        /* \"Strings.sol\":673:678  value */\n      dup3\n        /* \"Strings.sol\":658:678  uint256 temp = value */\n      swap1\n      pop\n        /* \"Strings.sol\":688:702  uint256 digits */\n      0x00\n        /* \"Strings.sol\":712:787  while (temp != 0) {... */\n    tag_291:\n        /* \"Strings.sol\":727:728  0 */\n      0x00\n        /* \"Strings.sol\":719:723  temp */\n      dup3\n        /* \"Strings.sol\":719:728  temp != 0 */\n      eq\n        /* \"Strings.sol\":712:787  while (temp != 0) {... */\n      tag_292\n      jumpi\n        /* \"Strings.sol\":744:752  digits++ */\n      dup1\n      dup1\n      tag_293\n      swap1\n      tag_135\n      jump\t// in\n    tag_293:\n      swap2\n      pop\n      pop\n        /* \"Strings.sol\":774:776  10 */\n      0x0a\n        /* \"Strings.sol\":766:776  temp /= 10 */\n      dup3\n      tag_294\n      swap2\n      swap1\n      tag_295\n      jump\t// in\n    tag_294:\n      swap2\n      pop\n        /* \"Strings.sol\":712:787  while (temp != 0) {... */\n      jump(tag_291)\n    tag_292:\n        /* \"Strings.sol\":796:815  bytes memory buffer */\n      0x00\n        /* \"Strings.sol\":828:834  digits */\n      dup2\n        /* \"Strings.sol\":818:835  new bytes(digits) */\n      0xffffffffffffffff\n      dup2\n      gt\n      iszero\n      tag_296\n      jumpi\n      tag_297\n      tag_298\n      jump\t// in\n    tag_297:\n    tag_296:\n      mload(0x40)\n      swap1\n      dup1\n      dup3\n      mstore\n      dup1\n      0x1f\n      add\n      not(0x1f)\n      and\n      0x20\n      add\n      dup3\n      add\n      0x40\n      mstore\n      dup1\n      iszero\n      tag_299\n      jumpi\n      dup2\n      0x20\n      add\n      0x01\n      dup3\n      mul\n      dup1\n      calldatasize\n      dup4\n      calldatacopy\n      dup1\n      dup3\n      add\n      swap2\n      pop\n      pop\n      swap1\n      pop\n    tag_299:\n      pop\n        /* \"Strings.sol\":796:835  bytes memory buffer = new bytes(digits) */\n      swap1\n      pop\n        /* \"Strings.sol\":845:995  while (value != 0) {... */\n    tag_300:\n        /* \"Strings.sol\":861:862  0 */\n      0x00\n        /* \"Strings.sol\":852:857  value */\n      dup6\n        /* \"Strings.sol\":852:862  value != 0 */\n      eq\n        /* \"Strings.sol\":845:995  while (value != 0) {... */\n      tag_301\n      jumpi\n        /* \"Strings.sol\":888:889  1 */\n      0x01\n        /* \"Strings.sol\":878:889  digits -= 1 */\n      dup3\n      tag_302\n      swap2\n      swap1\n      tag_303\n      jump\t// in\n    tag_302:\n      swap2\n      pop\n        /* \"Strings.sol\":954:956  10 */\n      0x0a\n        /* \"Strings.sol\":946:951  value */\n      dup6\n        /* \"Strings.sol\":946:956  value % 10 */\n      tag_304\n      swap2\n      swap1\n      tag_288\n      jump\t// in\n    tag_304:\n        /* \"Strings.sol\":933:935  48 */\n      0x30\n        /* \"Strings.sol\":933:957  48 + uint256(value % 10) */\n      tag_305\n      swap2\n      swap1\n      tag_220\n      jump\t// in\n    tag_305:\n        /* \"Strings.sol\":920:959  bytes1(uint8(48 + uint256(value % 10))) */\n      0xf8\n      shl\n        /* \"Strings.sol\":903:909  buffer */\n      dup2\n        /* \"Strings.sol\":910:916  digits */\n      dup4\n        /* \"Strings.sol\":903:917  buffer[digits] */\n      dup2\n      mload\n      dup2\n      lt\n      tag_306\n      jumpi\n      tag_307\n      tag_131\n      jump\t// in\n    tag_307:\n    tag_306:\n      0x20\n      add\n      add\n        /* \"Strings.sol\":903:959  buffer[digits] = bytes1(uint8(48 + uint256(value % 10))) */\n      swap1\n      not(0xffffffffffffffffffffffffffffffffffffffffffffffffffffffffffffff)\n      and\n      swap1\n      dup2\n      0x00\n      byte\n      swap1\n      mstore8\n      pop\n        /* \"Strings.sol\":982:984  10 */\n      0x0a\n        /* \"Strings.sol\":973:984  value /= 10 */\n      dup6\n      tag_308\n      swap2\n      swap1\n      tag_295\n      jump\t// in\n    tag_308:\n      swap5\n      pop\n        /* \"Strings.sol\":845:995  while (value != 0) {... */\n      jump(tag_300)\n    tag_301:\n        /* \"Strings.sol\":1018:1024  buffer */\n      dup1\n        /* \"Strings.sol\":1004:1025  return string(buffer) */\n      swap4\n      pop\n      pop\n      pop\n      pop\n        /* \"Strings.sol\":329:1032  function toString(uint256 value) internal pure returns (string memory) {... */\n    tag_289:\n      swap2\n      swap1\n      pop\n      jump\t// out\n        /* \"ERC1155_Dropsite.sol\":2347:2540  function _asSingletonArray(uint256 element) private pure returns (uint256[] memory) {... */\n    tag_276:\n        /* \"ERC1155_Dropsite.sol\":2413:2429  uint256[] memory */\n      0x60\n        /* \"ERC1155_Dropsite.sol\":2441:2463  uint256[] memory array */\n      0x00\n        /* \"ERC1155_Dropsite.sol\":2480:2481  1 */\n      0x01\n        /* \"ERC1155_Dropsite.sol\":2466:2482  new uint256[](1) */\n      0xffffffffffffffff\n      dup2\n      gt\n      iszero\n      tag_310\n      jumpi\n      tag_311\n      tag_298\n      jump\t// in\n    tag_311:\n    tag_310:\n      mload(0x40)\n      swap1\n      dup1\n      dup3\n      mstore\n      dup1\n      0x20\n      mul\n      0x20\n      add\n      dup3\n      add\n      0x40\n      mstore\n      dup1\n      iszero\n      tag_312\n      jumpi\n      dup2\n      0x20\n      add\n      0x20\n      dup3\n      mul\n      dup1\n      calldatasize\n      dup4\n      calldatacopy\n      dup1\n      dup3\n      add\n      swap2\n      pop\n      pop\n      swap1\n      pop\n    tag_312:\n      pop\n        /* \"ERC1155_Dropsite.sol\":2441:2482  uint256[] memory array = new uint256[](1) */\n      swap1\n      pop\n        /* \"ERC1155_Dropsite.sol\":2503:2510  element */\n      dup3\n        /* \"ERC1155_Dropsite.sol\":2492:2497  array */\n      dup2\n        /* \"ERC1155_Dropsite.sol\":2498:2499  0 */\n      0x00\n        /* \"ERC1155_Dropsite.sol\":2492:2500  array[0] */\n      dup2\n      mload\n      dup2\n      lt\n      tag_313\n      jumpi\n      tag_314\n      tag_131\n      jump\t// in\n    tag_314:\n    tag_313:\n      0x20\n      mul\n      0x20\n      add\n      add\n        /* \"ERC1155_Dropsite.sol\":2492:2510  array[0] = element */\n      dup2\n      dup2\n      mstore\n      pop\n      pop\n        /* \"ERC1155_Dropsite.sol\":2528:2533  array */\n      dup1\n        /* \"ERC1155_Dropsite.sol\":2521:2533  return array */\n      swap2\n      pop\n      pop\n        /* \"ERC1155_Dropsite.sol\":2347:2540  function _asSingletonArray(uint256 element) private pure returns (uint256[] memory) {... */\n      swap2\n      swap1\n      pop\n      jump\t// out\n        /* \"ERC1155_Dropsite.sol\":1394:1609  function _beforeTokenTransfer(... */\n    tag_278:\n      pop\n      pop\n      pop\n      pop\n      pop\n      pop\n      jump\t// out\n        /* \"ERC1155_Dropsite.sol\":1615:2341  function _doSafeTransferAcceptanceCheck(... */\n    tag_283:\n        /* \"ERC1155_Dropsite.sol\":1823:1838  to.isContract() */\n      tag_317\n        /* \"ERC1155_Dropsite.sol\":1823:1825  to */\n      dup5\n        /* \"ERC1155_Dropsite.sol\":1823:1836  to.isContract */\n      0xffffffffffffffffffffffffffffffffffffffff\n      and\n      tag_318\n        /* \"ERC1155_Dropsite.sol\":1823:1838  to.isContract() */\n      jump\t// in\n    tag_317:\n        /* \"ERC1155_Dropsite.sol\":1819:2335  if (to.isContract()) {... */\n      iszero\n      tag_319\n      jumpi\n        /* \"ERC1155_Dropsite.sol\":1875:1877  to */\n      dup4\n        /* \"ERC1155_Dropsite.sol\":1858:1896  IERC1155Receiver(to).onERC1155Received */\n      0xffffffffffffffffffffffffffffffffffffffff\n      and\n      0xae89a248\n        /* \"ERC1155_Dropsite.sol\":1897:1905  operator */\n      dup8\n        /* \"ERC1155_Dropsite.sol\":1907:1911  from */\n      dup8\n        /* \"ERC1155_Dropsite.sol\":1913:1915  id */\n      dup7\n        /* \"ERC1155_Dropsite.sol\":1917:1923  amount */\n      dup7\n        /* \"ERC1155_Dropsite.sol\":1925:1929  data */\n      dup7\n        /* \"ERC1155_Dropsite.sol\":1858:1930  IERC1155Receiver(to).onERC1155Received(operator, from, id, amount, data) */\n      mload(0x40)\n      dup7\n      0xffffffff\n      and\n      0xe0\n      shl\n      dup2\n      mstore\n      0x04\n      add\n      tag_320\n      swap6\n      swap5\n      swap4\n      swap3\n      swap2\n      swap1\n      tag_321\n      jump\t// in\n    tag_320:\n      0x20\n      mload(0x40)\n      dup1\n      dup4\n      sub\n      dup2\n      0x00\n      dup8\n      dup1\n      extcodesize\n      iszero\n      dup1\n      iszero\n      tag_322\n      jumpi\n      0x00\n      dup1\n      revert\n    tag_322:\n      pop\n      gas\n      call\n      swap3\n      pop\n      pop\n      pop\n      dup1\n      iszero\n      tag_323\n      jumpi\n      pop\n      mload(0x40)\n      returndatasize\n      not(0x1f)\n      0x1f\n      dup3\n      add\n      and\n      dup3\n      add\n      dup1\n      0x40\n      mstore\n      pop\n      dup2\n      add\n      swap1\n      tag_324\n      swap2\n      swap1\n      tag_325\n      jump\t// in\n    tag_324:\n      0x01\n    tag_323:\n        /* \"ERC1155_Dropsite.sol\":1854:2325  try IERC1155Receiver(to).onERC1155Received(operator, from, id, amount, data) returns (bytes4 response) {... */\n      tag_326\n      jumpi\n      tag_330\n      tag_331\n      jump\t// in\n    tag_330:\n      dup1\n      0x08c379a0\n      eq\n      iszero\n      tag_329\n      jumpi\n      pop\n      tag_332\n      tag_333\n      jump\t// in\n    tag_332:\n      dup1\n      tag_334\n      jumpi\n      pop\n      jump(tag_328)\n    tag_334:\n        /* \"ERC1155_Dropsite.sol\":2201:2207  reason */\n      dup1\n        /* \"ERC1155_Dropsite.sol\":2194:2208  revert(reason) */\n      mload(0x40)\n      0x08c379a000000000000000000000000000000000000000000000000000000000\n      dup2\n      mstore\n      0x04\n      add\n      tag_335\n      swap2\n      swap1\n      tag_336\n      jump\t// in\n    tag_335:\n      mload(0x40)\n      dup1\n      swap2\n      sub\n      swap1\n      revert\n        /* \"ERC1155_Dropsite.sol\":1854:2325  try IERC1155Receiver(to).onERC1155Received(operator, from, id, amount, data) returns (bytes4 response) {... */\n    tag_329:\n      pop\n    tag_328:\n        /* \"ERC1155_Dropsite.sol\":2248:2310  revert(\"ERC1155: transfer to non ERC1155Receiver implementer\") */\n      mload(0x40)\n      0x08c379a000000000000000000000000000000000000000000000000000000000\n      dup2\n      mstore\n      0x04\n      add\n      tag_337\n      swap1\n      tag_338\n      jump\t// in\n    tag_337:\n      mload(0x40)\n      dup1\n      swap2\n      sub\n      swap1\n      revert\n        /* \"ERC1155_Dropsite.sol\":1854:2325  try IERC1155Receiver(to).onERC1155Received(operator, from, id, amount, data) returns (bytes4 response) {... */\n    tag_326:\n        /* \"ERC1155_Dropsite.sol\":1991:2034  IERC1155Receiver.onERC1155Received.selector */\n      shl(0xe0, 0xae89a248)\n        /* \"ERC1155_Dropsite.sol\":1979:2034  response != IERC1155Receiver.onERC1155Received.selector */\n      not(0xffffffffffffffffffffffffffffffffffffffffffffffffffffffff)\n      and\n        /* \"ERC1155_Dropsite.sol\":1979:1987  response */\n      dup2\n        /* \"ERC1155_Dropsite.sol\":1979:2034  response != IERC1155Receiver.onERC1155Received.selector */\n      not(0xffffffffffffffffffffffffffffffffffffffffffffffffffffffff)\n      and\n      eq\n        /* \"ERC1155_Dropsite.sol\":1975:2127  if (response != IERC1155Receiver.onERC1155Received.selector) {... */\n      tag_340\n      jumpi\n        /* \"ERC1155_Dropsite.sol\":2058:2108  revert(\"ERC1155: ERC1155Receiver rejected tokens\") */\n      mload(0x40)\n      0x08c379a000000000000000000000000000000000000000000000000000000000\n      dup2\n      mstore\n      0x04\n      add\n      tag_341\n      swap1\n      tag_342\n      jump\t// in\n    tag_341:\n      mload(0x40)\n      dup1\n      swap2\n      sub\n      swap1\n      revert\n        /* \"ERC1155_Dropsite.sol\":1975:2127  if (response != IERC1155Receiver.onERC1155Received.selector) {... */\n    tag_340:\n        /* \"ERC1155_Dropsite.sol\":1931:2141  returns (bytes4 response) {... */\n      pop\n        /* \"ERC1155_Dropsite.sol\":1819:2335  if (to.isContract()) {... */\n    tag_319:\n        /* \"ERC1155_Dropsite.sol\":1615:2341  function _doSafeTransferAcceptanceCheck(... */\n      pop\n      pop\n      pop\n      pop\n      pop\n      pop\n      jump\t// out\n        /* \"Address.sol\":771:1148  function isContract(address account) internal view returns (bool) {... */\n    tag_318:\n        /* \"Address.sol\":831:835  bool */\n      0x00\n        /* \"Address.sol\":1034:1046  uint256 size */\n      dup1\n        /* \"Address.sol\":1099:1106  account */\n      dup3\n        /* \"Address.sol\":1087:1107  extcodesize(account) */\n      extcodesize\n        /* \"Address.sol\":1079:1107  size := extcodesize(account) */\n      swap1\n      pop\n        /* \"Address.sol\":1140:1141  0 */\n      0x00\n        /* \"Address.sol\":1133:1137  size */\n      dup2\n        /* \"Address.sol\":1133:1141  size > 0 */\n      gt\n        /* \"Address.sol\":1126:1141  return size > 0 */\n      swap2\n      pop\n      pop\n        /* \"Address.sol\":771:1148  function isContract(address account) internal view returns (bool) {... */\n      swap2\n      swap1\n      pop\n      jump\t// out\n    tag_238:\n      dup3\n      dup1\n      sload\n      tag_344\n      swap1\n      tag_166\n      jump\t// in\n    tag_344:\n      swap1\n      0x00\n      mstore\n      keccak256(0x00, 0x20)\n      swap1\n      0x1f\n      add\n      0x20\n      swap1\n      div\n      dup2\n      add\n      swap3\n      dup3\n      tag_346\n      jumpi\n      0x00\n      dup6\n      sstore\n      jump(tag_345)\n    tag_346:\n      dup3\n      0x1f\n      lt\n      tag_347\n      jumpi\n      dup1\n      mload\n      not(0xff)\n      and\n      dup4\n      dup1\n      add\n      or\n      dup6\n      sstore\n      jump(tag_345)\n    tag_347:\n      dup3\n      dup1\n      add\n      0x01\n      add\n      dup6\n      sstore\n      dup3\n      iszero\n      tag_345\n      jumpi\n      swap2\n      dup3\n      add\n    tag_348:\n      dup3\n      dup2\n      gt\n      iszero\n      tag_349\n      jumpi\n      dup3\n      mload\n      dup3\n      sstore\n      swap2\n      0x20\n      add\n      swap2\n      swap1\n      0x01\n      add\n      swap1\n      jump(tag_348)\n    tag_349:\n    tag_345:\n      pop\n      swap1\n      pop\n      tag_350\n      swap2\n      swap1\n      tag_351\n      jump\t// in\n    tag_350:\n      pop\n      swap1\n      jump\t// out\n    tag_257:\n      dup3\n      dup1\n      sload\n      tag_352\n      swap1\n      tag_166\n      jump\t// in\n    tag_352:\n      swap1\n      0x00\n      mstore\n      keccak256(0x00, 0x20)\n      swap1\n      0x1f\n      add\n      0x20\n      swap1\n      div\n      dup2\n      add\n      swap3\n      dup3\n      tag_354\n      jumpi\n      0x00\n      dup6\n      sstore\n      jump(tag_353)\n    tag_354:\n      dup3\n      0x1f\n      lt\n      tag_355\n      jumpi\n      dup1\n      sload\n      dup6\n      sstore\n      jump(tag_353)\n    tag_355:\n      dup3\n      dup1\n      add\n      0x01\n      add\n      dup6\n      sstore\n      dup3\n      iszero\n      tag_353\n      jumpi\n      0x00\n      mstore\n      keccak256(0x00, 0x20)\n      swap2\n      0x1f\n      add\n      0x20\n      swap1\n      div\n      dup3\n      add\n    tag_356:\n      dup3\n      dup2\n      gt\n      iszero\n      tag_357\n      jumpi\n      dup3\n      sload\n      dup3\n      sstore\n      swap2\n      0x01\n      add\n      swap2\n      swap1\n      0x01\n      add\n      swap1\n      jump(tag_356)\n    tag_357:\n    tag_353:\n      pop\n      swap1\n      pop\n      tag_358\n      swap2\n      swap1\n      tag_351\n      jump\t// in\n    tag_358:\n      pop\n      swap1\n      jump\t// out\n    tag_351:\n    tag_359:\n      dup1\n      dup3\n      gt\n      iszero\n      tag_360\n      jumpi\n      0x00\n      dup2\n      0x00\n      swap1\n      sstore\n      pop\n      0x01\n      add\n      jump(tag_359)\n    tag_360:\n      pop\n      swap1\n      jump\t// out\n        /* \"#utility.yul\":7:146   */\n    tag_362:\n        /* \"#utility.yul\":53:58   */\n      0x00\n        /* \"#utility.yul\":91:97   */\n      dup2\n        /* \"#utility.yul\":78:98   */\n      calldataload\n        /* \"#utility.yul\":69:98   */\n      swap1\n      pop\n        /* \"#utility.yul\":107:140   */\n      tag_364\n        /* \"#utility.yul\":134:139   */\n      dup2\n        /* \"#utility.yul\":107:140   */\n      tag_365\n      jump\t// in\n    tag_364:\n        /* \"#utility.yul\":7:146   */\n      swap3\n      swap2\n      pop\n      pop\n      jump\t// out\n        /* \"#utility.yul\":152:307   */\n    tag_366:\n        /* \"#utility.yul\":206:211   */\n      0x00\n        /* \"#utility.yul\":244:250   */\n      dup2\n        /* \"#utility.yul\":231:251   */\n      calldataload\n        /* \"#utility.yul\":222:251   */\n      swap1\n      pop\n        /* \"#utility.yul\":260:301   */\n      tag_368\n        /* \"#utility.yul\":295:300   */\n      dup2\n        /* \"#utility.yul\":260:301   */\n      tag_369\n      jump\t// in\n    tag_368:\n        /* \"#utility.yul\":152:307   */\n      swap3\n      swap2\n      pop\n      pop\n      jump\t// out\n        /* \"#utility.yul\":313:454   */\n    tag_370:\n        /* \"#utility.yul\":369:374   */\n      0x00\n        /* \"#utility.yul\":400:406   */\n      dup2\n        /* \"#utility.yul\":394:407   */\n      mload\n        /* \"#utility.yul\":385:407   */\n      swap1\n      pop\n        /* \"#utility.yul\":416:448   */\n      tag_372\n        /* \"#utility.yul\":442:447   */\n      dup2\n        /* \"#utility.yul\":416:448   */\n      tag_373\n      jump\t// in\n    tag_372:\n        /* \"#utility.yul\":313:454   */\n      swap3\n      swap2\n      pop\n      pop\n      jump\t// out\n        /* \"#utility.yul\":460:599   */\n    tag_374:\n        /* \"#utility.yul\":506:511   */\n      0x00\n        /* \"#utility.yul\":544:550   */\n      dup2\n        /* \"#utility.yul\":531:551   */\n      calldataload\n        /* \"#utility.yul\":522:551   */\n      swap1\n      pop\n        /* \"#utility.yul\":560:593   */\n      tag_376\n        /* \"#utility.yul\":587:592   */\n      dup2\n        /* \"#utility.yul\":560:593   */\n      tag_377\n      jump\t// in\n    tag_376:\n        /* \"#utility.yul\":460:599   */\n      swap3\n      swap2\n      pop\n      pop\n      jump\t// out\n        /* \"#utility.yul\":605:934   */\n    tag_49:\n        /* \"#utility.yul\":664:670   */\n      0x00\n        /* \"#utility.yul\":713:715   */\n      0x20\n        /* \"#utility.yul\":701:710   */\n      dup3\n        /* \"#utility.yul\":692:699   */\n      dup5\n        /* \"#utility.yul\":688:711   */\n      sub\n        /* \"#utility.yul\":684:716   */\n      slt\n        /* \"#utility.yul\":681:800   */\n      iszero\n      tag_379\n      jumpi\n        /* \"#utility.yul\":719:798   */\n      tag_380\n      tag_381\n      jump\t// in\n    tag_380:\n        /* \"#utility.yul\":681:800   */\n    tag_379:\n        /* \"#utility.yul\":839:840   */\n      0x00\n        /* \"#utility.yul\":864:917   */\n      tag_382\n        /* \"#utility.yul\":909:916   */\n      dup5\n        /* \"#utility.yul\":900:906   */\n      dup3\n        /* \"#utility.yul\":889:898   */\n      dup6\n        /* \"#utility.yul\":885:907   */\n      add\n        /* \"#utility.yul\":864:917   */\n      tag_362\n      jump\t// in\n    tag_382:\n        /* \"#utility.yul\":854:917   */\n      swap2\n      pop\n        /* \"#utility.yul\":810:927   */\n      pop\n        /* \"#utility.yul\":605:934   */\n      swap3\n      swap2\n      pop\n      pop\n      jump\t// out\n        /* \"#utility.yul\":940:1285   */\n    tag_26:\n        /* \"#utility.yul\":1007:1013   */\n      0x00\n        /* \"#utility.yul\":1056:1058   */\n      0x20\n        /* \"#utility.yul\":1044:1053   */\n      dup3\n        /* \"#utility.yul\":1035:1042   */\n      dup5\n        /* \"#utility.yul\":1031:1054   */\n      sub\n        /* \"#utility.yul\":1027:1059   */\n      slt\n        /* \"#utility.yul\":1024:1143   */\n      iszero\n      tag_384\n      jumpi\n        /* \"#utility.yul\":1062:1141   */\n      tag_385\n      tag_381\n      jump\t// in\n    tag_385:\n        /* \"#utility.yul\":1024:1143   */\n    tag_384:\n        /* \"#utility.yul\":1182:1183   */\n      0x00\n        /* \"#utility.yul\":1207:1268   */\n      tag_386\n        /* \"#utility.yul\":1260:1267   */\n      dup5\n        /* \"#utility.yul\":1251:1257   */\n      dup3\n        /* \"#utility.yul\":1240:1249   */\n      dup6\n        /* \"#utility.yul\":1236:1258   */\n      add\n        /* \"#utility.yul\":1207:1268   */\n      tag_366\n      jump\t// in\n    tag_386:\n        /* \"#utility.yul\":1197:1268   */\n      swap2\n      pop\n        /* \"#utility.yul\":1153:1278   */\n      pop\n        /* \"#utility.yul\":940:1285   */\n      swap3\n      swap2\n      pop\n      pop\n      jump\t// out\n        /* \"#utility.yul\":1291:1765   */\n    tag_39:\n        /* \"#utility.yul\":1359:1365   */\n      0x00\n        /* \"#utility.yul\":1367:1373   */\n      dup1\n        /* \"#utility.yul\":1416:1418   */\n      0x40\n        /* \"#utility.yul\":1404:1413   */\n      dup4\n        /* \"#utility.yul\":1395:1402   */\n      dup6\n        /* \"#utility.yul\":1391:1414   */\n      sub\n        /* \"#utility.yul\":1387:1419   */\n      slt\n        /* \"#utility.yul\":1384:1503   */\n      iszero\n      tag_388\n      jumpi\n        /* \"#utility.yul\":1422:1501   */\n      tag_389\n      tag_381\n      jump\t// in\n    tag_389:\n        /* \"#utility.yul\":1384:1503   */\n    tag_388:\n        /* \"#utility.yul\":1542:1543   */\n      0x00\n        /* \"#utility.yul\":1567:1620   */\n      tag_390\n        /* \"#utility.yul\":1612:1619   */\n      dup6\n        /* \"#utility.yul\":1603:1609   */\n      dup3\n        /* \"#utility.yul\":1592:1601   */\n      dup7\n        /* \"#utility.yul\":1588:1610   */\n      add\n        /* \"#utility.yul\":1567:1620   */\n      tag_362\n      jump\t// in\n    tag_390:\n        /* \"#utility.yul\":1557:1620   */\n      swap3\n      pop\n        /* \"#utility.yul\":1513:1630   */\n      pop\n        /* \"#utility.yul\":1669:1671   */\n      0x20\n        /* \"#utility.yul\":1695:1748   */\n      tag_391\n        /* \"#utility.yul\":1740:1747   */\n      dup6\n        /* \"#utility.yul\":1731:1737   */\n      dup3\n        /* \"#utility.yul\":1720:1729   */\n      dup7\n        /* \"#utility.yul\":1716:1738   */\n      add\n        /* \"#utility.yul\":1695:1748   */\n      tag_374\n      jump\t// in\n    tag_391:\n        /* \"#utility.yul\":1685:1748   */\n      swap2\n      pop\n        /* \"#utility.yul\":1640:1758   */\n      pop\n        /* \"#utility.yul\":1291:1765   */\n      swap3\n      pop\n      swap3\n      swap1\n      pop\n      jump\t// out\n        /* \"#utility.yul\":1771:2120   */\n    tag_325:\n        /* \"#utility.yul\":1840:1846   */\n      0x00\n        /* \"#utility.yul\":1889:1891   */\n      0x20\n        /* \"#utility.yul\":1877:1886   */\n      dup3\n        /* \"#utility.yul\":1868:1875   */\n      dup5\n        /* \"#utility.yul\":1864:1887   */\n      sub\n        /* \"#utility.yul\":1860:1892   */\n      slt\n        /* \"#utility.yul\":1857:1976   */\n      iszero\n      tag_393\n      jumpi\n        /* \"#utility.yul\":1895:1974   */\n      tag_394\n      tag_381\n      jump\t// in\n    tag_394:\n        /* \"#utility.yul\":1857:1976   */\n    tag_393:\n        /* \"#utility.yul\":2015:2016   */\n      0x00\n        /* \"#utility.yul\":2040:2103   */\n      tag_395\n        /* \"#utility.yul\":2095:2102   */\n      dup5\n        /* \"#utility.yul\":2086:2092   */\n      dup3\n        /* \"#utility.yul\":2075:2084   */\n      dup6\n        /* \"#utility.yul\":2071:2093   */\n      add\n        /* \"#utility.yul\":2040:2103   */\n      tag_370\n      jump\t// in\n    tag_395:\n        /* \"#utility.yul\":2030:2103   */\n      swap2\n      pop\n        /* \"#utility.yul\":1986:2113   */\n      pop\n        /* \"#utility.yul\":1771:2120   */\n      swap3\n      swap2\n      pop\n      pop\n      jump\t// out\n        /* \"#utility.yul\":2126:2455   */\n    tag_79:\n        /* \"#utility.yul\":2185:2191   */\n      0x00\n        /* \"#utility.yul\":2234:2236   */\n      0x20\n        /* \"#utility.yul\":2222:2231   */\n      dup3\n        /* \"#utility.yul\":2213:2220   */\n      dup5\n        /* \"#utility.yul\":2209:2232   */\n      sub\n        /* \"#utility.yul\":2205:2237   */\n      slt\n        /* \"#utility.yul\":2202:2321   */\n      iszero\n      tag_397\n      jumpi\n        /* \"#utility.yul\":2240:2319   */\n      tag_398\n      tag_381\n      jump\t// in\n    tag_398:\n        /* \"#utility.yul\":2202:2321   */\n    tag_397:\n        /* \"#utility.yul\":2360:2361   */\n      0x00\n        /* \"#utility.yul\":2385:2438   */\n      tag_399\n        /* \"#utility.yul\":2430:2437   */\n      dup5\n        /* \"#utility.yul\":2421:2427   */\n      dup3\n        /* \"#utility.yul\":2410:2419   */\n      dup6\n        /* \"#utility.yul\":2406:2428   */\n      add\n        /* \"#utility.yul\":2385:2438   */\n      tag_374\n      jump\t// in\n    tag_399:\n        /* \"#utility.yul\":2375:2438   */\n      swap2\n      pop\n        /* \"#utility.yul\":2331:2448   */\n      pop\n        /* \"#utility.yul\":2126:2455   */\n      swap3\n      swap2\n      pop\n      pop\n      jump\t// out\n        /* \"#utility.yul\":2461:2657   */\n    tag_400:\n        /* \"#utility.yul\":2550:2560   */\n      0x00\n        /* \"#utility.yul\":2585:2651   */\n      tag_402\n        /* \"#utility.yul\":2647:2650   */\n      dup4\n        /* \"#utility.yul\":2639:2645   */\n      dup4\n        /* \"#utility.yul\":2585:2651   */\n      tag_403\n      jump\t// in\n    tag_402:\n        /* \"#utility.yul\":2571:2651   */\n      swap1\n      pop\n        /* \"#utility.yul\":2461:2657   */\n      swap3\n      swap2\n      pop\n      pop\n      jump\t// out\n        /* \"#utility.yul\":2663:2842   */\n    tag_404:\n        /* \"#utility.yul\":2732:2742   */\n      0x00\n        /* \"#utility.yul\":2753:2799   */\n      tag_406\n        /* \"#utility.yul\":2795:2798   */\n      dup4\n        /* \"#utility.yul\":2787:2793   */\n      dup4\n        /* \"#utility.yul\":2753:2799   */\n      tag_407\n      jump\t// in\n    tag_406:\n        /* \"#utility.yul\":2831:2835   */\n      0x20\n        /* \"#utility.yul\":2826:2829   */\n      dup4\n        /* \"#utility.yul\":2822:2836   */\n      add\n        /* \"#utility.yul\":2808:2836   */\n      swap1\n      pop\n        /* \"#utility.yul\":2663:2842   */\n      swap3\n      swap2\n      pop\n      pop\n      jump\t// out\n        /* \"#utility.yul\":2848:2990   */\n    tag_408:\n        /* \"#utility.yul\":2951:2983   */\n      tag_410\n        /* \"#utility.yul\":2977:2982   */\n      dup2\n        /* \"#utility.yul\":2951:2983   */\n      tag_411\n      jump\t// in\n    tag_410:\n        /* \"#utility.yul\":2946:2949   */\n      dup3\n        /* \"#utility.yul\":2939:2984   */\n      mstore\n        /* \"#utility.yul\":2848:2990   */\n      pop\n      pop\n      jump\t// out\n        /* \"#utility.yul\":2996:3114   */\n    tag_412:\n        /* \"#utility.yul\":3083:3107   */\n      tag_414\n        /* \"#utility.yul\":3101:3106   */\n      dup2\n        /* \"#utility.yul\":3083:3107   */\n      tag_415\n      jump\t// in\n    tag_414:\n        /* \"#utility.yul\":3078:3081   */\n      dup3\n        /* \"#utility.yul\":3071:3108   */\n      mstore\n        /* \"#utility.yul\":2996:3114   */\n      pop\n      pop\n      jump\t// out\n        /* \"#utility.yul\":3120:3277   */\n    tag_416:\n        /* \"#utility.yul\":3225:3270   */\n      tag_418\n        /* \"#utility.yul\":3245:3269   */\n      tag_419\n        /* \"#utility.yul\":3263:3268   */\n      dup3\n        /* \"#utility.yul\":3245:3269   */\n      tag_415\n      jump\t// in\n    tag_419:\n        /* \"#utility.yul\":3225:3270   */\n      tag_420\n      jump\t// in\n    tag_418:\n        /* \"#utility.yul\":3220:3223   */\n      dup3\n        /* \"#utility.yul\":3213:3271   */\n      mstore\n        /* \"#utility.yul\":3120:3277   */\n      pop\n      pop\n      jump\t// out\n        /* \"#utility.yul\":3311:4302   */\n    tag_421:\n        /* \"#utility.yul\":3450:3453   */\n      0x00\n        /* \"#utility.yul\":3479:3543   */\n      tag_423\n        /* \"#utility.yul\":3537:3542   */\n      dup3\n        /* \"#utility.yul\":3479:3543   */\n      tag_424\n      jump\t// in\n    tag_423:\n        /* \"#utility.yul\":3559:3655   */\n      tag_425\n        /* \"#utility.yul\":3648:3654   */\n      dup2\n        /* \"#utility.yul\":3643:3646   */\n      dup6\n        /* \"#utility.yul\":3559:3655   */\n      tag_426\n      jump\t// in\n    tag_425:\n        /* \"#utility.yul\":3552:3655   */\n      swap4\n      pop\n        /* \"#utility.yul\":3681:3684   */\n      dup4\n        /* \"#utility.yul\":3726:3730   */\n      0x20\n        /* \"#utility.yul\":3718:3724   */\n      dup3\n        /* \"#utility.yul\":3714:3731   */\n      mul\n        /* \"#utility.yul\":3709:3712   */\n      dup6\n        /* \"#utility.yul\":3705:3732   */\n      add\n        /* \"#utility.yul\":3756:3822   */\n      tag_427\n        /* \"#utility.yul\":3816:3821   */\n      dup6\n        /* \"#utility.yul\":3756:3822   */\n      tag_428\n      jump\t// in\n    tag_427:\n        /* \"#utility.yul\":3845:3852   */\n      dup1\n        /* \"#utility.yul\":3876:3877   */\n      0x00\n        /* \"#utility.yul\":3861:4257   */\n    tag_429:\n        /* \"#utility.yul\":3886:3892   */\n      dup6\n        /* \"#utility.yul\":3883:3884   */\n      dup2\n        /* \"#utility.yul\":3880:3893   */\n      lt\n        /* \"#utility.yul\":3861:4257   */\n      iszero\n      tag_431\n      jumpi\n        /* \"#utility.yul\":3957:3966   */\n      dup5\n        /* \"#utility.yul\":3951:3955   */\n      dup5\n        /* \"#utility.yul\":3947:3967   */\n      sub\n        /* \"#utility.yul\":3942:3945   */\n      dup10\n        /* \"#utility.yul\":3935:3968   */\n      mstore\n        /* \"#utility.yul\":4008:4014   */\n      dup2\n        /* \"#utility.yul\":4002:4015   */\n      mload\n        /* \"#utility.yul\":4036:4120   */\n      tag_432\n        /* \"#utility.yul\":4115:4119   */\n      dup6\n        /* \"#utility.yul\":4100:4113   */\n      dup3\n        /* \"#utility.yul\":4036:4120   */\n      tag_400\n      jump\t// in\n    tag_432:\n        /* \"#utility.yul\":4028:4120   */\n      swap5\n      pop\n        /* \"#utility.yul\":4143:4213   */\n      tag_433\n        /* \"#utility.yul\":4206:4212   */\n      dup4\n        /* \"#utility.yul\":4143:4213   */\n      tag_434\n      jump\t// in\n    tag_433:\n        /* \"#utility.yul\":4133:4213   */\n      swap3\n      pop\n        /* \"#utility.yul\":4242:4246   */\n      0x20\n        /* \"#utility.yul\":4237:4240   */\n      dup11\n        /* \"#utility.yul\":4233:4247   */\n      add\n        /* \"#utility.yul\":4226:4247   */\n      swap10\n      pop\n        /* \"#utility.yul\":3921:4257   */\n      pop\n        /* \"#utility.yul\":3908:3909   */\n      0x01\n        /* \"#utility.yul\":3905:3906   */\n      dup2\n        /* \"#utility.yul\":3901:3910   */\n      add\n        /* \"#utility.yul\":3896:3910   */\n      swap1\n      pop\n        /* \"#utility.yul\":3861:4257   */\n      jump(tag_429)\n    tag_431:\n        /* \"#utility.yul\":3865:3879   */\n      pop\n        /* \"#utility.yul\":4273:4277   */\n      dup3\n        /* \"#utility.yul\":4266:4277   */\n      swap8\n      pop\n        /* \"#utility.yul\":4293:4296   */\n      dup8\n        /* \"#utility.yul\":4286:4296   */\n      swap6\n      pop\n        /* \"#utility.yul\":3455:4302   */\n      pop\n      pop\n      pop\n      pop\n      pop\n        /* \"#utility.yul\":3311:4302   */\n      swap3\n      swap2\n      pop\n      pop\n      jump\t// out\n        /* \"#utility.yul\":4338:5070   */\n    tag_435:\n        /* \"#utility.yul\":4457:4460   */\n      0x00\n        /* \"#utility.yul\":4486:4540   */\n      tag_437\n        /* \"#utility.yul\":4534:4539   */\n      dup3\n        /* \"#utility.yul\":4486:4540   */\n      tag_438\n      jump\t// in\n    tag_437:\n        /* \"#utility.yul\":4556:4642   */\n      tag_439\n        /* \"#utility.yul\":4635:4641   */\n      dup2\n        /* \"#utility.yul\":4630:4633   */\n      dup6\n        /* \"#utility.yul\":4556:4642   */\n      tag_440\n      jump\t// in\n    tag_439:\n        /* \"#utility.yul\":4549:4642   */\n      swap4\n      pop\n        /* \"#utility.yul\":4666:4722   */\n      tag_441\n        /* \"#utility.yul\":4716:4721   */\n      dup4\n        /* \"#utility.yul\":4666:4722   */\n      tag_442\n      jump\t// in\n    tag_441:\n        /* \"#utility.yul\":4745:4752   */\n      dup1\n        /* \"#utility.yul\":4776:4777   */\n      0x00\n        /* \"#utility.yul\":4761:5045   */\n    tag_443:\n        /* \"#utility.yul\":4786:4792   */\n      dup4\n        /* \"#utility.yul\":4783:4784   */\n      dup2\n        /* \"#utility.yul\":4780:4793   */\n      lt\n        /* \"#utility.yul\":4761:5045   */\n      iszero\n      tag_445\n      jumpi\n        /* \"#utility.yul\":4862:4868   */\n      dup2\n        /* \"#utility.yul\":4856:4869   */\n      mload\n        /* \"#utility.yul\":4889:4952   */\n      tag_446\n        /* \"#utility.yul\":4948:4951   */\n      dup9\n        /* \"#utility.yul\":4933:4946   */\n      dup3\n        /* \"#utility.yul\":4889:4952   */\n      tag_404\n      jump\t// in\n    tag_446:\n        /* \"#utility.yul\":4882:4952   */\n      swap8\n      pop\n        /* \"#utility.yul\":4975:5035   */\n      tag_447\n        /* \"#utility.yul\":5028:5034   */\n      dup4\n        /* \"#utility.yul\":4975:5035   */\n      tag_448\n      jump\t// in\n    tag_447:\n        /* \"#utility.yul\":4965:5035   */\n      swap3\n      pop\n        /* \"#utility.yul\":4821:5045   */\n      pop\n        /* \"#utility.yul\":4808:4809   */\n      0x01\n        /* \"#utility.yul\":4805:4806   */\n      dup2\n        /* \"#utility.yul\":4801:4810   */\n      add\n        /* \"#utility.yul\":4796:4810   */\n      swap1\n      pop\n        /* \"#utility.yul\":4761:5045   */\n      jump(tag_443)\n    tag_445:\n        /* \"#utility.yul\":4765:4779   */\n      pop\n        /* \"#utility.yul\":5061:5064   */\n      dup6\n        /* \"#utility.yul\":5054:5064   */\n      swap4\n      pop\n        /* \"#utility.yul\":4462:5070   */\n      pop\n      pop\n      pop\n        /* \"#utility.yul\":4338:5070   */\n      swap3\n      swap2\n      pop\n      pop\n      jump\t// out\n        /* \"#utility.yul\":5076:5185   */\n    tag_449:\n        /* \"#utility.yul\":5157:5178   */\n      tag_451\n        /* \"#utility.yul\":5172:5177   */\n      dup2\n        /* \"#utility.yul\":5157:5178   */\n      tag_452\n      jump\t// in\n    tag_451:\n        /* \"#utility.yul\":5152:5155   */\n      dup3\n        /* \"#utility.yul\":5145:5179   */\n      mstore\n        /* \"#utility.yul\":5076:5185   */\n      pop\n      pop\n      jump\t// out\n        /* \"#utility.yul\":5191:5535   */\n    tag_403:\n        /* \"#utility.yul\":5269:5272   */\n      0x00\n        /* \"#utility.yul\":5297:5336   */\n      tag_454\n        /* \"#utility.yul\":5330:5335   */\n      dup3\n        /* \"#utility.yul\":5297:5336   */\n      tag_455\n      jump\t// in\n    tag_454:\n        /* \"#utility.yul\":5352:5413   */\n      tag_456\n        /* \"#utility.yul\":5406:5412   */\n      dup2\n        /* \"#utility.yul\":5401:5404   */\n      dup6\n        /* \"#utility.yul\":5352:5413   */\n      tag_457\n      jump\t// in\n    tag_456:\n        /* \"#utility.yul\":5345:5413   */\n      swap4\n      pop\n        /* \"#utility.yul\":5422:5474   */\n      tag_458\n        /* \"#utility.yul\":5467:5473   */\n      dup2\n        /* \"#utility.yul\":5462:5465   */\n      dup6\n        /* \"#utility.yul\":5455:5459   */\n      0x20\n        /* \"#utility.yul\":5448:5453   */\n      dup7\n        /* \"#utility.yul\":5444:5460   */\n      add\n        /* \"#utility.yul\":5422:5474   */\n      tag_459\n      jump\t// in\n    tag_458:\n        /* \"#utility.yul\":5499:5528   */\n      tag_460\n        /* \"#utility.yul\":5521:5527   */\n      dup2\n        /* \"#utility.yul\":5499:5528   */\n      tag_461\n      jump\t// in\n    tag_460:\n        /* \"#utility.yul\":5494:5497   */\n      dup5\n        /* \"#utility.yul\":5490:5529   */\n      add\n        /* \"#utility.yul\":5483:5529   */\n      swap2\n      pop\n        /* \"#utility.yul\":5273:5535   */\n      pop\n        /* \"#utility.yul\":5191:5535   */\n      swap3\n      swap2\n      pop\n      pop\n      jump\t// out\n        /* \"#utility.yul\":5541:5905   */\n    tag_462:\n        /* \"#utility.yul\":5629:5632   */\n      0x00\n        /* \"#utility.yul\":5657:5696   */\n      tag_464\n        /* \"#utility.yul\":5690:5695   */\n      dup3\n        /* \"#utility.yul\":5657:5696   */\n      tag_455\n      jump\t// in\n    tag_464:\n        /* \"#utility.yul\":5712:5783   */\n      tag_465\n        /* \"#utility.yul\":5776:5782   */\n      dup2\n        /* \"#utility.yul\":5771:5774   */\n      dup6\n        /* \"#utility.yul\":5712:5783   */\n      tag_466\n      jump\t// in\n    tag_465:\n        /* \"#utility.yul\":5705:5783   */\n      swap4\n      pop\n        /* \"#utility.yul\":5792:5844   */\n      tag_467\n        /* \"#utility.yul\":5837:5843   */\n      dup2\n        /* \"#utility.yul\":5832:5835   */\n      dup6\n        /* \"#utility.yul\":5825:5829   */\n      0x20\n        /* \"#utility.yul\":5818:5823   */\n      dup7\n        /* \"#utility.yul\":5814:5830   */\n      add\n        /* \"#utility.yul\":5792:5844   */\n      tag_459\n      jump\t// in\n    tag_467:\n        /* \"#utility.yul\":5869:5898   */\n      tag_468\n        /* \"#utility.yul\":5891:5897   */\n      dup2\n        /* \"#utility.yul\":5869:5898   */\n      tag_461\n      jump\t// in\n    tag_468:\n        /* \"#utility.yul\":5864:5867   */\n      dup5\n        /* \"#utility.yul\":5860:5899   */\n      add\n        /* \"#utility.yul\":5853:5899   */\n      swap2\n      pop\n        /* \"#utility.yul\":5633:5905   */\n      pop\n        /* \"#utility.yul\":5541:5905   */\n      swap3\n      swap2\n      pop\n      pop\n      jump\t// out\n        /* \"#utility.yul\":5911:6288   */\n    tag_469:\n        /* \"#utility.yul\":6017:6020   */\n      0x00\n        /* \"#utility.yul\":6045:6084   */\n      tag_471\n        /* \"#utility.yul\":6078:6083   */\n      dup3\n        /* \"#utility.yul\":6045:6084   */\n      tag_455\n      jump\t// in\n    tag_471:\n        /* \"#utility.yul\":6100:6189   */\n      tag_472\n        /* \"#utility.yul\":6182:6188   */\n      dup2\n        /* \"#utility.yul\":6177:6180   */\n      dup6\n        /* \"#utility.yul\":6100:6189   */\n      tag_473\n      jump\t// in\n    tag_472:\n        /* \"#utility.yul\":6093:6189   */\n      swap4\n      pop\n        /* \"#utility.yul\":6198:6250   */\n      tag_474\n        /* \"#utility.yul\":6243:6249   */\n      dup2\n        /* \"#utility.yul\":6238:6241   */\n      dup6\n        /* \"#utility.yul\":6231:6235   */\n      0x20\n        /* \"#utility.yul\":6224:6229   */\n      dup7\n        /* \"#utility.yul\":6220:6236   */\n      add\n        /* \"#utility.yul\":6198:6250   */\n      tag_459\n      jump\t// in\n    tag_474:\n        /* \"#utility.yul\":6275:6281   */\n      dup1\n        /* \"#utility.yul\":6270:6273   */\n      dup5\n        /* \"#utility.yul\":6266:6282   */\n      add\n        /* \"#utility.yul\":6259:6282   */\n      swap2\n      pop\n        /* \"#utility.yul\":6021:6288   */\n      pop\n        /* \"#utility.yul\":5911:6288   */\n      swap3\n      swap2\n      pop\n      pop\n      jump\t// out\n        /* \"#utility.yul\":6294:6660   */\n    tag_475:\n        /* \"#utility.yul\":6436:6439   */\n      0x00\n        /* \"#utility.yul\":6457:6524   */\n      tag_477\n        /* \"#utility.yul\":6521:6523   */\n      0x34\n        /* \"#utility.yul\":6516:6519   */\n      dup4\n        /* \"#utility.yul\":6457:6524   */\n      tag_466\n      jump\t// in\n    tag_477:\n        /* \"#utility.yul\":6450:6524   */\n      swap2\n      pop\n        /* \"#utility.yul\":6533:6626   */\n      tag_478\n        /* \"#utility.yul\":6622:6625   */\n      dup3\n        /* \"#utility.yul\":6533:6626   */\n      tag_479\n      jump\t// in\n    tag_478:\n        /* \"#utility.yul\":6651:6653   */\n      0x40\n        /* \"#utility.yul\":6646:6649   */\n      dup3\n        /* \"#utility.yul\":6642:6654   */\n      add\n        /* \"#utility.yul\":6635:6654   */\n      swap1\n      pop\n        /* \"#utility.yul\":6294:6660   */\n      swap2\n      swap1\n      pop\n      jump\t// out\n        /* \"#utility.yul\":6666:7032   */\n    tag_480:\n        /* \"#utility.yul\":6808:6811   */\n      0x00\n        /* \"#utility.yul\":6829:6896   */\n      tag_482\n        /* \"#utility.yul\":6893:6895   */\n      0x28\n        /* \"#utility.yul\":6888:6891   */\n      dup4\n        /* \"#utility.yul\":6829:6896   */\n      tag_466\n      jump\t// in\n    tag_482:\n        /* \"#utility.yul\":6822:6896   */\n      swap2\n      pop\n        /* \"#utility.yul\":6905:6998   */\n      tag_483\n        /* \"#utility.yul\":6994:6997   */\n      dup3\n        /* \"#utility.yul\":6905:6998   */\n      tag_484\n      jump\t// in\n    tag_483:\n        /* \"#utility.yul\":7023:7025   */\n      0x40\n        /* \"#utility.yul\":7018:7021   */\n      dup3\n        /* \"#utility.yul\":7014:7026   */\n      add\n        /* \"#utility.yul\":7007:7026   */\n      swap1\n      pop\n        /* \"#utility.yul\":6666:7032   */\n      swap2\n      swap1\n      pop\n      jump\t// out\n        /* \"#utility.yul\":7038:7438   */\n    tag_485:\n        /* \"#utility.yul\":7198:7201   */\n      0x00\n        /* \"#utility.yul\":7219:7303   */\n      tag_487\n        /* \"#utility.yul\":7301:7302   */\n      0x08\n        /* \"#utility.yul\":7296:7299   */\n      dup4\n        /* \"#utility.yul\":7219:7303   */\n      tag_473\n      jump\t// in\n    tag_487:\n        /* \"#utility.yul\":7212:7303   */\n      swap2\n      pop\n        /* \"#utility.yul\":7312:7405   */\n      tag_488\n        /* \"#utility.yul\":7401:7404   */\n      dup3\n        /* \"#utility.yul\":7312:7405   */\n      tag_489\n      jump\t// in\n    tag_488:\n        /* \"#utility.yul\":7430:7431   */\n      0x08\n        /* \"#utility.yul\":7425:7428   */\n      dup3\n        /* \"#utility.yul\":7421:7432   */\n      add\n        /* \"#utility.yul\":7414:7432   */\n      swap1\n      pop\n        /* \"#utility.yul\":7038:7438   */\n      swap2\n      swap1\n      pop\n      jump\t// out\n        /* \"#utility.yul\":7444:7844   */\n    tag_490:\n        /* \"#utility.yul\":7604:7607   */\n      0x00\n        /* \"#utility.yul\":7625:7709   */\n      tag_492\n        /* \"#utility.yul\":7707:7708   */\n      0x05\n        /* \"#utility.yul\":7702:7705   */\n      dup4\n        /* \"#utility.yul\":7625:7709   */\n      tag_473\n      jump\t// in\n    tag_492:\n        /* \"#utility.yul\":7618:7709   */\n      swap2\n      pop\n        /* \"#utility.yul\":7718:7811   */\n      tag_493\n        /* \"#utility.yul\":7807:7810   */\n      dup3\n        /* \"#utility.yul\":7718:7811   */\n      tag_494\n      jump\t// in\n    tag_493:\n        /* \"#utility.yul\":7836:7837   */\n      0x05\n        /* \"#utility.yul\":7831:7834   */\n      dup3\n        /* \"#utility.yul\":7827:7838   */\n      add\n        /* \"#utility.yul\":7820:7838   */\n      swap1\n      pop\n        /* \"#utility.yul\":7444:7844   */\n      swap2\n      swap1\n      pop\n      jump\t// out\n        /* \"#utility.yul\":7850:8216   */\n    tag_495:\n        /* \"#utility.yul\":7992:7995   */\n      0x00\n        /* \"#utility.yul\":8013:8080   */\n      tag_497\n        /* \"#utility.yul\":8077:8079   */\n      0x12\n        /* \"#utility.yul\":8072:8075   */\n      dup4\n        /* \"#utility.yul\":8013:8080   */\n      tag_466\n      jump\t// in\n    tag_497:\n        /* \"#utility.yul\":8006:8080   */\n      swap2\n      pop\n        /* \"#utility.yul\":8089:8182   */\n      tag_498\n        /* \"#utility.yul\":8178:8181   */\n      dup3\n        /* \"#utility.yul\":8089:8182   */\n      tag_499\n      jump\t// in\n    tag_498:\n        /* \"#utility.yul\":8207:8209   */\n      0x20\n        /* \"#utility.yul\":8202:8205   */\n      dup3\n        /* \"#utility.yul\":8198:8210   */\n      add\n        /* \"#utility.yul\":8191:8210   */\n      swap1\n      pop\n        /* \"#utility.yul\":7850:8216   */\n      swap2\n      swap1\n      pop\n      jump\t// out\n        /* \"#utility.yul\":8222:8588   */\n    tag_500:\n        /* \"#utility.yul\":8364:8367   */\n      0x00\n        /* \"#utility.yul\":8385:8452   */\n      tag_502\n        /* \"#utility.yul\":8449:8451   */\n      0x1b\n        /* \"#utility.yul\":8444:8447   */\n      dup4\n        /* \"#utility.yul\":8385:8452   */\n      tag_466\n      jump\t// in\n    tag_502:\n        /* \"#utility.yul\":8378:8452   */\n      swap2\n      pop\n        /* \"#utility.yul\":8461:8554   */\n      tag_503\n        /* \"#utility.yul\":8550:8553   */\n      dup3\n        /* \"#utility.yul\":8461:8554   */\n      tag_504\n      jump\t// in\n    tag_503:\n        /* \"#utility.yul\":8579:8581   */\n      0x20\n        /* \"#utility.yul\":8574:8577   */\n      dup3\n        /* \"#utility.yul\":8570:8582   */\n      add\n        /* \"#utility.yul\":8563:8582   */\n      swap1\n      pop\n        /* \"#utility.yul\":8222:8588   */\n      swap2\n      swap1\n      pop\n      jump\t// out\n        /* \"#utility.yul\":8594:8960   */\n    tag_505:\n        /* \"#utility.yul\":8736:8739   */\n      0x00\n        /* \"#utility.yul\":8757:8824   */\n      tag_507\n        /* \"#utility.yul\":8821:8823   */\n      0x1b\n        /* \"#utility.yul\":8816:8819   */\n      dup4\n        /* \"#utility.yul\":8757:8824   */\n      tag_466\n      jump\t// in\n    tag_507:\n        /* \"#utility.yul\":8750:8824   */\n      swap2\n      pop\n        /* \"#utility.yul\":8833:8926   */\n      tag_508\n        /* \"#utility.yul\":8922:8925   */\n      dup3\n        /* \"#utility.yul\":8833:8926   */\n      tag_509\n      jump\t// in\n    tag_508:\n        /* \"#utility.yul\":8951:8953   */\n      0x20\n        /* \"#utility.yul\":8946:8949   */\n      dup3\n        /* \"#utility.yul\":8942:8954   */\n      add\n        /* \"#utility.yul\":8935:8954   */\n      swap1\n      pop\n        /* \"#utility.yul\":8594:8960   */\n      swap2\n      swap1\n      pop\n      jump\t// out\n        /* \"#utility.yul\":8966:9332   */\n    tag_510:\n        /* \"#utility.yul\":9108:9111   */\n      0x00\n        /* \"#utility.yul\":9129:9196   */\n      tag_512\n        /* \"#utility.yul\":9193:9195   */\n      0x15\n        /* \"#utility.yul\":9188:9191   */\n      dup4\n        /* \"#utility.yul\":9129:9196   */\n      tag_466\n      jump\t// in\n    tag_512:\n        /* \"#utility.yul\":9122:9196   */\n      swap2\n      pop\n        /* \"#utility.yul\":9205:9298   */\n      tag_513\n        /* \"#utility.yul\":9294:9297   */\n      dup3\n        /* \"#utility.yul\":9205:9298   */\n      tag_514\n      jump\t// in\n    tag_513:\n        /* \"#utility.yul\":9323:9325   */\n      0x20\n        /* \"#utility.yul\":9318:9321   */\n      dup3\n        /* \"#utility.yul\":9314:9326   */\n      add\n        /* \"#utility.yul\":9307:9326   */\n      swap1\n      pop\n        /* \"#utility.yul\":8966:9332   */\n      swap2\n      swap1\n      pop\n      jump\t// out\n        /* \"#utility.yul\":9338:9704   */\n    tag_515:\n        /* \"#utility.yul\":9480:9483   */\n      0x00\n        /* \"#utility.yul\":9501:9568   */\n      tag_517\n        /* \"#utility.yul\":9565:9567   */\n      0x1c\n        /* \"#utility.yul\":9560:9563   */\n      dup4\n        /* \"#utility.yul\":9501:9568   */\n      tag_466\n      jump\t// in\n    tag_517:\n        /* \"#utility.yul\":9494:9568   */\n      swap2\n      pop\n        /* \"#utility.yul\":9577:9670   */\n      tag_518\n        /* \"#utility.yul\":9666:9669   */\n      dup3\n        /* \"#utility.yul\":9577:9670   */\n      tag_519\n      jump\t// in\n    tag_518:\n        /* \"#utility.yul\":9695:9697   */\n      0x20\n        /* \"#utility.yul\":9690:9693   */\n      dup3\n        /* \"#utility.yul\":9686:9698   */\n      add\n        /* \"#utility.yul\":9679:9698   */\n      swap1\n      pop\n        /* \"#utility.yul\":9338:9704   */\n      swap2\n      swap1\n      pop\n      jump\t// out\n        /* \"#utility.yul\":9710:10076   */\n    tag_520:\n        /* \"#utility.yul\":9852:9855   */\n      0x00\n        /* \"#utility.yul\":9873:9940   */\n      tag_522\n        /* \"#utility.yul\":9937:9939   */\n      0x1b\n        /* \"#utility.yul\":9932:9935   */\n      dup4\n        /* \"#utility.yul\":9873:9940   */\n      tag_466\n      jump\t// in\n    tag_522:\n        /* \"#utility.yul\":9866:9940   */\n      swap2\n      pop\n        /* \"#utility.yul\":9949:10042   */\n      tag_523\n        /* \"#utility.yul\":10038:10041   */\n      dup3\n        /* \"#utility.yul\":9949:10042   */\n      tag_524\n      jump\t// in\n    tag_523:\n        /* \"#utility.yul\":10067:10069   */\n      0x20\n        /* \"#utility.yul\":10062:10065   */\n      dup3\n        /* \"#utility.yul\":10058:10070   */\n      add\n        /* \"#utility.yul\":10051:10070   */\n      swap1\n      pop\n        /* \"#utility.yul\":9710:10076   */\n      swap2\n      swap1\n      pop\n      jump\t// out\n        /* \"#utility.yul\":10082:10448   */\n    tag_525:\n        /* \"#utility.yul\":10224:10227   */\n      0x00\n        /* \"#utility.yul\":10245:10312   */\n      tag_527\n        /* \"#utility.yul\":10309:10311   */\n      0x19\n        /* \"#utility.yul\":10304:10307   */\n      dup4\n        /* \"#utility.yul\":10245:10312   */\n      tag_466\n      jump\t// in\n    tag_527:\n        /* \"#utility.yul\":10238:10312   */\n      swap2\n      pop\n        /* \"#utility.yul\":10321:10414   */\n      tag_528\n        /* \"#utility.yul\":10410:10413   */\n      dup3\n        /* \"#utility.yul\":10321:10414   */\n      tag_529\n      jump\t// in\n    tag_528:\n        /* \"#utility.yul\":10439:10441   */\n      0x20\n        /* \"#utility.yul\":10434:10437   */\n      dup3\n        /* \"#utility.yul\":10430:10442   */\n      add\n        /* \"#utility.yul\":10423:10442   */\n      swap1\n      pop\n        /* \"#utility.yul\":10082:10448   */\n      swap2\n      swap1\n      pop\n      jump\t// out\n        /* \"#utility.yul\":10454:10854   */\n    tag_530:\n        /* \"#utility.yul\":10614:10617   */\n      0x00\n        /* \"#utility.yul\":10635:10719   */\n      tag_532\n        /* \"#utility.yul\":10717:10718   */\n      0x07\n        /* \"#utility.yul\":10712:10715   */\n      dup4\n        /* \"#utility.yul\":10635:10719   */\n      tag_473\n      jump\t// in\n    tag_532:\n        /* \"#utility.yul\":10628:10719   */\n      swap2\n      pop\n        /* \"#utility.yul\":10728:10821   */\n      tag_533\n        /* \"#utility.yul\":10817:10820   */\n      dup3\n        /* \"#utility.yul\":10728:10821   */\n      tag_534\n      jump\t// in\n    tag_533:\n        /* \"#utility.yul\":10846:10847   */\n      0x07\n        /* \"#utility.yul\":10841:10844   */\n      dup3\n        /* \"#utility.yul\":10837:10848   */\n      add\n        /* \"#utility.yul\":10830:10848   */\n      swap1\n      pop\n        /* \"#utility.yul\":10454:10854   */\n      swap2\n      swap1\n      pop\n      jump\t// out\n        /* \"#utility.yul\":10860:11226   */\n    tag_535:\n        /* \"#utility.yul\":11002:11005   */\n      0x00\n        /* \"#utility.yul\":11023:11090   */\n      tag_537\n        /* \"#utility.yul\":11087:11089   */\n      0x1d\n        /* \"#utility.yul\":11082:11085   */\n      dup4\n        /* \"#utility.yul\":11023:11090   */\n      tag_466\n      jump\t// in\n    tag_537:\n        /* \"#utility.yul\":11016:11090   */\n      swap2\n      pop\n        /* \"#utility.yul\":11099:11192   */\n      tag_538\n        /* \"#utility.yul\":11188:11191   */\n      dup3\n        /* \"#utility.yul\":11099:11192   */\n      tag_539\n      jump\t// in\n    tag_538:\n        /* \"#utility.yul\":11217:11219   */\n      0x20\n        /* \"#utility.yul\":11212:11215   */\n      dup3\n        /* \"#utility.yul\":11208:11220   */\n      add\n        /* \"#utility.yul\":11201:11220   */\n      swap1\n      pop\n        /* \"#utility.yul\":10860:11226   */\n      swap2\n      swap1\n      pop\n      jump\t// out\n        /* \"#utility.yul\":11232:11598   */\n    tag_540:\n        /* \"#utility.yul\":11374:11377   */\n      0x00\n        /* \"#utility.yul\":11395:11462   */\n      tag_542\n        /* \"#utility.yul\":11459:11461   */\n      0x21\n        /* \"#utility.yul\":11454:11457   */\n      dup4\n        /* \"#utility.yul\":11395:11462   */\n      tag_466\n      jump\t// in\n    tag_542:\n        /* \"#utility.yul\":11388:11462   */\n      swap2\n      pop\n        /* \"#utility.yul\":11471:11564   */\n      tag_543\n        /* \"#utility.yul\":11560:11563   */\n      dup3\n        /* \"#utility.yul\":11471:11564   */\n      tag_544\n      jump\t// in\n    tag_543:\n        /* \"#utility.yul\":11589:11591   */\n      0x40\n        /* \"#utility.yul\":11584:11587   */\n      dup3\n        /* \"#utility.yul\":11580:11592   */\n      add\n        /* \"#utility.yul\":11573:11592   */\n      swap1\n      pop\n        /* \"#utility.yul\":11232:11598   */\n      swap2\n      swap1\n      pop\n      jump\t// out\n        /* \"#utility.yul\":11604:11712   */\n    tag_407:\n        /* \"#utility.yul\":11681:11705   */\n      tag_546\n        /* \"#utility.yul\":11699:11704   */\n      dup2\n        /* \"#utility.yul\":11681:11705   */\n      tag_547\n      jump\t// in\n    tag_546:\n        /* \"#utility.yul\":11676:11679   */\n      dup3\n        /* \"#utility.yul\":11669:11706   */\n      mstore\n        /* \"#utility.yul\":11604:11712   */\n      pop\n      pop\n      jump\t// out\n        /* \"#utility.yul\":11718:11836   */\n    tag_548:\n        /* \"#utility.yul\":11805:11829   */\n      tag_550\n        /* \"#utility.yul\":11823:11828   */\n      dup2\n        /* \"#utility.yul\":11805:11829   */\n      tag_547\n      jump\t// in\n    tag_550:\n        /* \"#utility.yul\":11800:11803   */\n      dup3\n        /* \"#utility.yul\":11793:11830   */\n      mstore\n        /* \"#utility.yul\":11718:11836   */\n      pop\n      pop\n      jump\t// out\n        /* \"#utility.yul\":11842:11999   */\n    tag_551:\n        /* \"#utility.yul\":11947:11992   */\n      tag_553\n        /* \"#utility.yul\":11967:11991   */\n      tag_554\n        /* \"#utility.yul\":11985:11990   */\n      dup3\n        /* \"#utility.yul\":11967:11991   */\n      tag_547\n      jump\t// in\n    tag_554:\n        /* \"#utility.yul\":11947:11992   */\n      tag_555\n      jump\t// in\n    tag_553:\n        /* \"#utility.yul\":11942:11945   */\n      dup3\n        /* \"#utility.yul\":11935:11993   */\n      mstore\n        /* \"#utility.yul\":11842:11999   */\n      pop\n      pop\n      jump\t// out\n        /* \"#utility.yul\":12005:12546   */\n    tag_236:\n        /* \"#utility.yul\":12238:12241   */\n      0x00\n        /* \"#utility.yul\":12260:12408   */\n      tag_557\n        /* \"#utility.yul\":12404:12407   */\n      dup3\n        /* \"#utility.yul\":12260:12408   */\n      tag_485\n      jump\t// in\n    tag_557:\n        /* \"#utility.yul\":12253:12408   */\n      swap2\n      pop\n        /* \"#utility.yul\":12425:12520   */\n      tag_558\n        /* \"#utility.yul\":12516:12519   */\n      dup3\n        /* \"#utility.yul\":12507:12513   */\n      dup5\n        /* \"#utility.yul\":12425:12520   */\n      tag_469\n      jump\t// in\n    tag_558:\n        /* \"#utility.yul\":12418:12520   */\n      swap2\n      pop\n        /* \"#utility.yul\":12537:12540   */\n      dup2\n        /* \"#utility.yul\":12530:12540   */\n      swap1\n      pop\n        /* \"#utility.yul\":12005:12546   */\n      swap3\n      swap2\n      pop\n      pop\n      jump\t// out\n        /* \"#utility.yul\":12552:13093   */\n    tag_245:\n        /* \"#utility.yul\":12785:12788   */\n      0x00\n        /* \"#utility.yul\":12807:12955   */\n      tag_560\n        /* \"#utility.yul\":12951:12954   */\n      dup3\n        /* \"#utility.yul\":12807:12955   */\n      tag_490\n      jump\t// in\n    tag_560:\n        /* \"#utility.yul\":12800:12955   */\n      swap2\n      pop\n        /* \"#utility.yul\":12972:13067   */\n      tag_561\n        /* \"#utility.yul\":13063:13066   */\n      dup3\n        /* \"#utility.yul\":13054:13060   */\n      dup5\n        /* \"#utility.yul\":12972:13067   */\n      tag_469\n      jump\t// in\n    tag_561:\n        /* \"#utility.yul\":12965:13067   */\n      swap2\n      pop\n        /* \"#utility.yul\":13084:13087   */\n      dup2\n        /* \"#utility.yul\":13077:13087   */\n      swap1\n      pop\n        /* \"#utility.yul\":12552:13093   */\n      swap3\n      swap2\n      pop\n      pop\n      jump\t// out\n        /* \"#utility.yul\":13099:13640   */\n    tag_253:\n        /* \"#utility.yul\":13332:13335   */\n      0x00\n        /* \"#utility.yul\":13354:13502   */\n      tag_563\n        /* \"#utility.yul\":13498:13501   */\n      dup3\n        /* \"#utility.yul\":13354:13502   */\n      tag_530\n      jump\t// in\n    tag_563:\n        /* \"#utility.yul\":13347:13502   */\n      swap2\n      pop\n        /* \"#utility.yul\":13519:13614   */\n      tag_564\n        /* \"#utility.yul\":13610:13613   */\n      dup3\n        /* \"#utility.yul\":13601:13607   */\n      dup5\n        /* \"#utility.yul\":13519:13614   */\n      tag_469\n      jump\t// in\n    tag_564:\n        /* \"#utility.yul\":13512:13614   */\n      swap2\n      pop\n        /* \"#utility.yul\":13631:13634   */\n      dup2\n        /* \"#utility.yul\":13624:13634   */\n      swap1\n      pop\n        /* \"#utility.yul\":13099:13640   */\n      swap3\n      swap2\n      pop\n      pop\n      jump\t// out\n        /* \"#utility.yul\":13646:14043   */\n    tag_286:\n        /* \"#utility.yul\":13786:13789   */\n      0x00\n        /* \"#utility.yul\":13801:13876   */\n      tag_566\n        /* \"#utility.yul\":13872:13875   */\n      dup3\n        /* \"#utility.yul\":13863:13869   */\n      dup6\n        /* \"#utility.yul\":13801:13876   */\n      tag_551\n      jump\t// in\n    tag_566:\n        /* \"#utility.yul\":13901:13903   */\n      0x20\n        /* \"#utility.yul\":13896:13899   */\n      dup3\n        /* \"#utility.yul\":13892:13904   */\n      add\n        /* \"#utility.yul\":13885:13904   */\n      swap2\n      pop\n        /* \"#utility.yul\":13914:13989   */\n      tag_567\n        /* \"#utility.yul\":13985:13988   */\n      dup3\n        /* \"#utility.yul\":13976:13982   */\n      dup5\n        /* \"#utility.yul\":13914:13989   */\n      tag_416\n      jump\t// in\n    tag_567:\n        /* \"#utility.yul\":14014:14016   */\n      0x14\n        /* \"#utility.yul\":14009:14012   */\n      dup3\n        /* \"#utility.yul\":14005:14017   */\n      add\n        /* \"#utility.yul\":13998:14017   */\n      swap2\n      pop\n        /* \"#utility.yul\":14034:14037   */\n      dup2\n        /* \"#utility.yul\":14027:14037   */\n      swap1\n      pop\n        /* \"#utility.yul\":13646:14043   */\n      swap4\n      swap3\n      pop\n      pop\n      pop\n      jump\t// out\n        /* \"#utility.yul\":14049:14303   */\n    tag_75:\n        /* \"#utility.yul\":14158:14162   */\n      0x00\n        /* \"#utility.yul\":14196:14198   */\n      0x20\n        /* \"#utility.yul\":14185:14194   */\n      dup3\n        /* \"#utility.yul\":14181:14199   */\n      add\n        /* \"#utility.yul\":14173:14199   */\n      swap1\n      pop\n        /* \"#utility.yul\":14209:14296   */\n      tag_569\n        /* \"#utility.yul\":14293:14294   */\n      0x00\n        /* \"#utility.yul\":14282:14291   */\n      dup4\n        /* \"#utility.yul\":14278:14295   */\n      add\n        /* \"#utility.yul\":14269:14275   */\n      dup5\n        /* \"#utility.yul\":14209:14296   */\n      tag_408\n      jump\t// in\n    tag_569:\n        /* \"#utility.yul\":14049:14303   */\n      swap3\n      swap2\n      pop\n      pop\n      jump\t// out\n        /* \"#utility.yul\":14309:15064   */\n    tag_321:\n        /* \"#utility.yul\":14534:14538   */\n      0x00\n        /* \"#utility.yul\":14572:14575   */\n      0xa0\n        /* \"#utility.yul\":14561:14570   */\n      dup3\n        /* \"#utility.yul\":14557:14576   */\n      add\n        /* \"#utility.yul\":14549:14576   */\n      swap1\n      pop\n        /* \"#utility.yul\":14586:14657   */\n      tag_571\n        /* \"#utility.yul\":14654:14655   */\n      0x00\n        /* \"#utility.yul\":14643:14652   */\n      dup4\n        /* \"#utility.yul\":14639:14656   */\n      add\n        /* \"#utility.yul\":14630:14636   */\n      dup9\n        /* \"#utility.yul\":14586:14657   */\n      tag_412\n      jump\t// in\n    tag_571:\n        /* \"#utility.yul\":14667:14739   */\n      tag_572\n        /* \"#utility.yul\":14735:14737   */\n      0x20\n        /* \"#utility.yul\":14724:14733   */\n      dup4\n        /* \"#utility.yul\":14720:14738   */\n      add\n        /* \"#utility.yul\":14711:14717   */\n      dup8\n        /* \"#utility.yul\":14667:14739   */\n      tag_412\n      jump\t// in\n    tag_572:\n        /* \"#utility.yul\":14749:14821   */\n      tag_573\n        /* \"#utility.yul\":14817:14819   */\n      0x40\n        /* \"#utility.yul\":14806:14815   */\n      dup4\n        /* \"#utility.yul\":14802:14820   */\n      add\n        /* \"#utility.yul\":14793:14799   */\n      dup7\n        /* \"#utility.yul\":14749:14821   */\n      tag_548\n      jump\t// in\n    tag_573:\n        /* \"#utility.yul\":14831:14903   */\n      tag_574\n        /* \"#utility.yul\":14899:14901   */\n      0x60\n        /* \"#utility.yul\":14888:14897   */\n      dup4\n        /* \"#utility.yul\":14884:14902   */\n      add\n        /* \"#utility.yul\":14875:14881   */\n      dup6\n        /* \"#utility.yul\":14831:14903   */\n      tag_548\n      jump\t// in\n    tag_574:\n        /* \"#utility.yul\":14951:14960   */\n      dup2\n        /* \"#utility.yul\":14945:14949   */\n      dup2\n        /* \"#utility.yul\":14941:14961   */\n      sub\n        /* \"#utility.yul\":14935:14938   */\n      0x80\n        /* \"#utility.yul\":14924:14933   */\n      dup4\n        /* \"#utility.yul\":14920:14939   */\n      add\n        /* \"#utility.yul\":14913:14962   */\n      mstore\n        /* \"#utility.yul\":14979:15057   */\n      tag_575\n        /* \"#utility.yul\":15052:15056   */\n      dup2\n        /* \"#utility.yul\":15043:15049   */\n      dup5\n        /* \"#utility.yul\":14979:15057   */\n      tag_462\n      jump\t// in\n    tag_575:\n        /* \"#utility.yul\":14971:15057   */\n      swap1\n      pop\n        /* \"#utility.yul\":14309:15064   */\n      swap7\n      swap6\n      pop\n      pop\n      pop\n      pop\n      pop\n      pop\n      jump\t// out\n        /* \"#utility.yul\":15070:15443   */\n    tag_86:\n        /* \"#utility.yul\":15213:15217   */\n      0x00\n        /* \"#utility.yul\":15251:15253   */\n      0x20\n        /* \"#utility.yul\":15240:15249   */\n      dup3\n        /* \"#utility.yul\":15236:15254   */\n      add\n        /* \"#utility.yul\":15228:15254   */\n      swap1\n      pop\n        /* \"#utility.yul\":15300:15309   */\n      dup2\n        /* \"#utility.yul\":15294:15298   */\n      dup2\n        /* \"#utility.yul\":15290:15310   */\n      sub\n        /* \"#utility.yul\":15286:15287   */\n      0x00\n        /* \"#utility.yul\":15275:15284   */\n      dup4\n        /* \"#utility.yul\":15271:15288   */\n      add\n        /* \"#utility.yul\":15264:15311   */\n      mstore\n        /* \"#utility.yul\":15328:15436   */\n      tag_577\n        /* \"#utility.yul\":15431:15435   */\n      dup2\n        /* \"#utility.yul\":15422:15428   */\n      dup5\n        /* \"#utility.yul\":15328:15436   */\n      tag_435\n      jump\t// in\n    tag_577:\n        /* \"#utility.yul\":15320:15436   */\n      swap1\n      pop\n        /* \"#utility.yul\":15070:15443   */\n      swap3\n      swap2\n      pop\n      pop\n      jump\t// out\n        /* \"#utility.yul\":15449:16123   */\n    tag_42:\n        /* \"#utility.yul\":15690:15694   */\n      0x00\n        /* \"#utility.yul\":15728:15730   */\n      0x40\n        /* \"#utility.yul\":15717:15726   */\n      dup3\n        /* \"#utility.yul\":15713:15731   */\n      add\n        /* \"#utility.yul\":15705:15731   */\n      swap1\n      pop\n        /* \"#utility.yul\":15777:15786   */\n      dup2\n        /* \"#utility.yul\":15771:15775   */\n      dup2\n        /* \"#utility.yul\":15767:15787   */\n      sub\n        /* \"#utility.yul\":15763:15764   */\n      0x00\n        /* \"#utility.yul\":15752:15761   */\n      dup4\n        /* \"#utility.yul\":15748:15765   */\n      add\n        /* \"#utility.yul\":15741:15788   */\n      mstore\n        /* \"#utility.yul\":15805:15913   */\n      tag_579\n        /* \"#utility.yul\":15908:15912   */\n      dup2\n        /* \"#utility.yul\":15899:15905   */\n      dup6\n        /* \"#utility.yul\":15805:15913   */\n      tag_435\n      jump\t// in\n    tag_579:\n        /* \"#utility.yul\":15797:15913   */\n      swap1\n      pop\n        /* \"#utility.yul\":15960:15969   */\n      dup2\n        /* \"#utility.yul\":15954:15958   */\n      dup2\n        /* \"#utility.yul\":15950:15970   */\n      sub\n        /* \"#utility.yul\":15945:15947   */\n      0x20\n        /* \"#utility.yul\":15934:15943   */\n      dup4\n        /* \"#utility.yul\":15930:15948   */\n      add\n        /* \"#utility.yul\":15923:15971   */\n      mstore\n        /* \"#utility.yul\":15988:16116   */\n      tag_580\n        /* \"#utility.yul\":16111:16115   */\n      dup2\n        /* \"#utility.yul\":16102:16108   */\n      dup5\n        /* \"#utility.yul\":15988:16116   */\n      tag_421\n      jump\t// in\n    tag_580:\n        /* \"#utility.yul\":15980:16116   */\n      swap1\n      pop\n        /* \"#utility.yul\":15449:16123   */\n      swap4\n      swap3\n      pop\n      pop\n      pop\n      jump\t// out\n        /* \"#utility.yul\":16129:16703   */\n    tag_52:\n        /* \"#utility.yul\":16320:16324   */\n      0x00\n        /* \"#utility.yul\":16358:16360   */\n      0x40\n        /* \"#utility.yul\":16347:16356   */\n      dup3\n        /* \"#utility.yul\":16343:16361   */\n      add\n        /* \"#utility.yul\":16335:16361   */\n      swap1\n      pop\n        /* \"#utility.yul\":16407:16416   */\n      dup2\n        /* \"#utility.yul\":16401:16405   */\n      dup2\n        /* \"#utility.yul\":16397:16417   */\n      sub\n        /* \"#utility.yul\":16393:16394   */\n      0x00\n        /* \"#utility.yul\":16382:16391   */\n      dup4\n        /* \"#utility.yul\":16378:16395   */\n      add\n        /* \"#utility.yul\":16371:16418   */\n      mstore\n        /* \"#utility.yul\":16435:16543   */\n      tag_582\n        /* \"#utility.yul\":16538:16542   */\n      dup2\n        /* \"#utility.yul\":16529:16535   */\n      dup6\n        /* \"#utility.yul\":16435:16543   */\n      tag_435\n      jump\t// in\n    tag_582:\n        /* \"#utility.yul\":16427:16543   */\n      swap1\n      pop\n        /* \"#utility.yul\":16590:16599   */\n      dup2\n        /* \"#utility.yul\":16584:16588   */\n      dup2\n        /* \"#utility.yul\":16580:16600   */\n      sub\n        /* \"#utility.yul\":16575:16577   */\n      0x20\n        /* \"#utility.yul\":16564:16573   */\n      dup4\n        /* \"#utility.yul\":16560:16578   */\n      add\n        /* \"#utility.yul\":16553:16601   */\n      mstore\n        /* \"#utility.yul\":16618:16696   */\n      tag_583\n        /* \"#utility.yul\":16691:16695   */\n      dup2\n        /* \"#utility.yul\":16682:16688   */\n      dup5\n        /* \"#utility.yul\":16618:16696   */\n      tag_462\n      jump\t// in\n    tag_583:\n        /* \"#utility.yul\":16610:16696   */\n      swap1\n      pop\n        /* \"#utility.yul\":16129:16703   */\n      swap4\n      swap3\n      pop\n      pop\n      pop\n      jump\t// out\n        /* \"#utility.yul\":16709:16919   */\n    tag_32:\n        /* \"#utility.yul\":16796:16800   */\n      0x00\n        /* \"#utility.yul\":16834:16836   */\n      0x20\n        /* \"#utility.yul\":16823:16832   */\n      dup3\n        /* \"#utility.yul\":16819:16837   */\n      add\n        /* \"#utility.yul\":16811:16837   */\n      swap1\n      pop\n        /* \"#utility.yul\":16847:16912   */\n      tag_585\n        /* \"#utility.yul\":16909:16910   */\n      0x00\n        /* \"#utility.yul\":16898:16907   */\n      dup4\n        /* \"#utility.yul\":16894:16911   */\n      add\n        /* \"#utility.yul\":16885:16891   */\n      dup5\n        /* \"#utility.yul\":16847:16912   */\n      tag_449\n      jump\t// in\n    tag_585:\n        /* \"#utility.yul\":16709:16919   */\n      swap3\n      swap2\n      pop\n      pop\n      jump\t// out\n        /* \"#utility.yul\":16925:17238   */\n    tag_336:\n        /* \"#utility.yul\":17038:17042   */\n      0x00\n        /* \"#utility.yul\":17076:17078   */\n      0x20\n        /* \"#utility.yul\":17065:17074   */\n      dup3\n        /* \"#utility.yul\":17061:17079   */\n      add\n        /* \"#utility.yul\":17053:17079   */\n      swap1\n      pop\n        /* \"#utility.yul\":17125:17134   */\n      dup2\n        /* \"#utility.yul\":17119:17123   */\n      dup2\n        /* \"#utility.yul\":17115:17135   */\n      sub\n        /* \"#utility.yul\":17111:17112   */\n      0x00\n        /* \"#utility.yul\":17100:17109   */\n      dup4\n        /* \"#utility.yul\":17096:17113   */\n      add\n        /* \"#utility.yul\":17089:17136   */\n      mstore\n        /* \"#utility.yul\":17153:17231   */\n      tag_587\n        /* \"#utility.yul\":17226:17230   */\n      dup2\n        /* \"#utility.yul\":17217:17223   */\n      dup5\n        /* \"#utility.yul\":17153:17231   */\n      tag_462\n      jump\t// in\n    tag_587:\n        /* \"#utility.yul\":17145:17231   */\n      swap1\n      pop\n        /* \"#utility.yul\":16925:17238   */\n      swap3\n      swap2\n      pop\n      pop\n      jump\t// out\n        /* \"#utility.yul\":17244:17663   */\n    tag_338:\n        /* \"#utility.yul\":17410:17414   */\n      0x00\n        /* \"#utility.yul\":17448:17450   */\n      0x20\n        /* \"#utility.yul\":17437:17446   */\n      dup3\n        /* \"#utility.yul\":17433:17451   */\n      add\n        /* \"#utility.yul\":17425:17451   */\n      swap1\n      pop\n        /* \"#utility.yul\":17497:17506   */\n      dup2\n        /* \"#utility.yul\":17491:17495   */\n      dup2\n        /* \"#utility.yul\":17487:17507   */\n      sub\n        /* \"#utility.yul\":17483:17484   */\n      0x00\n        /* \"#utility.yul\":17472:17481   */\n      dup4\n        /* \"#utility.yul\":17468:17485   */\n      add\n        /* \"#utility.yul\":17461:17508   */\n      mstore\n        /* \"#utility.yul\":17525:17656   */\n      tag_589\n        /* \"#utility.yul\":17651:17655   */\n      dup2\n        /* \"#utility.yul\":17525:17656   */\n      tag_475\n      jump\t// in\n    tag_589:\n        /* \"#utility.yul\":17517:17656   */\n      swap1\n      pop\n        /* \"#utility.yul\":17244:17663   */\n      swap2\n      swap1\n      pop\n      jump\t// out\n        /* \"#utility.yul\":17669:18088   */\n    tag_342:\n        /* \"#utility.yul\":17835:17839   */\n      0x00\n        /* \"#utility.yul\":17873:17875   */\n      0x20\n        /* \"#utility.yul\":17862:17871   */\n      dup3\n        /* \"#utility.yul\":17858:17876   */\n      add\n        /* \"#utility.yul\":17850:17876   */\n      swap1\n      pop\n        /* \"#utility.yul\":17922:17931   */\n      dup2\n        /* \"#utility.yul\":17916:17920   */\n      dup2\n        /* \"#utility.yul\":17912:17932   */\n      sub\n        /* \"#utility.yul\":17908:17909   */\n      0x00\n        /* \"#utility.yul\":17897:17906   */\n      dup4\n        /* \"#utility.yul\":17893:17910   */\n      add\n        /* \"#utility.yul\":17886:17933   */\n      mstore\n        /* \"#utility.yul\":17950:18081   */\n      tag_591\n        /* \"#utility.yul\":18076:18080   */\n      dup2\n        /* \"#utility.yul\":17950:18081   */\n      tag_480\n      jump\t// in\n    tag_591:\n        /* \"#utility.yul\":17942:18081   */\n      swap1\n      pop\n        /* \"#utility.yul\":17669:18088   */\n      swap2\n      swap1\n      pop\n      jump\t// out\n        /* \"#utility.yul\":18094:18513   */\n    tag_150:\n        /* \"#utility.yul\":18260:18264   */\n      0x00\n        /* \"#utility.yul\":18298:18300   */\n      0x20\n        /* \"#utility.yul\":18287:18296   */\n      dup3\n        /* \"#utility.yul\":18283:18301   */\n      add\n        /* \"#utility.yul\":18275:18301   */\n      swap1\n      pop\n        /* \"#utility.yul\":18347:18356   */\n      dup2\n        /* \"#utility.yul\":18341:18345   */\n      dup2\n        /* \"#utility.yul\":18337:18357   */\n      sub\n        /* \"#utility.yul\":18333:18334   */\n      0x00\n        /* \"#utility.yul\":18322:18331   */\n      dup4\n        /* \"#utility.yul\":18318:18335   */\n      add\n        /* \"#utility.yul\":18311:18358   */\n      mstore\n        /* \"#utility.yul\":18375:18506   */\n      tag_593\n        /* \"#utility.yul\":18501:18505   */\n      dup2\n        /* \"#utility.yul\":18375:18506   */\n      tag_495\n      jump\t// in\n    tag_593:\n        /* \"#utility.yul\":18367:18506   */\n      swap1\n      pop\n        /* \"#utility.yul\":18094:18513   */\n      swap2\n      swap1\n      pop\n      jump\t// out\n        /* \"#utility.yul\":18519:18938   */\n    tag_111:\n        /* \"#utility.yul\":18685:18689   */\n      0x00\n        /* \"#utility.yul\":18723:18725   */\n      0x20\n        /* \"#utility.yul\":18712:18721   */\n      dup3\n        /* \"#utility.yul\":18708:18726   */\n      add\n        /* \"#utility.yul\":18700:18726   */\n      swap1\n      pop\n        /* \"#utility.yul\":18772:18781   */\n      dup2\n        /* \"#utility.yul\":18766:18770   */\n      dup2\n        /* \"#utility.yul\":18762:18782   */\n      sub\n        /* \"#utility.yul\":18758:18759   */\n      0x00\n        /* \"#utility.yul\":18747:18756   */\n      dup4\n        /* \"#utility.yul\":18743:18760   */\n      add\n        /* \"#utility.yul\":18736:18783   */\n      mstore\n        /* \"#utility.yul\":18800:18931   */\n      tag_595\n        /* \"#utility.yul\":18926:18930   */\n      dup2\n        /* \"#utility.yul\":18800:18931   */\n      tag_500\n      jump\t// in\n    tag_595:\n        /* \"#utility.yul\":18792:18931   */\n      swap1\n      pop\n        /* \"#utility.yul\":18519:18938   */\n      swap2\n      swap1\n      pop\n      jump\t// out\n        /* \"#utility.yul\":18944:19363   */\n    tag_202:\n        /* \"#utility.yul\":19110:19114   */\n      0x00\n        /* \"#utility.yul\":19148:19150   */\n      0x20\n        /* \"#utility.yul\":19137:19146   */\n      dup3\n        /* \"#utility.yul\":19133:19151   */\n      add\n        /* \"#utility.yul\":19125:19151   */\n      swap1\n      pop\n        /* \"#utility.yul\":19197:19206   */\n      dup2\n        /* \"#utility.yul\":19191:19195   */\n      dup2\n        /* \"#utility.yul\":19187:19207   */\n      sub\n        /* \"#utility.yul\":19183:19184   */\n      0x00\n        /* \"#utility.yul\":19172:19181   */\n      dup4\n        /* \"#utility.yul\":19168:19185   */\n      add\n        /* \"#utility.yul\":19161:19208   */\n      mstore\n        /* \"#utility.yul\":19225:19356   */\n      tag_597\n        /* \"#utility.yul\":19351:19355   */\n      dup2\n        /* \"#utility.yul\":19225:19356   */\n      tag_505\n      jump\t// in\n    tag_597:\n        /* \"#utility.yul\":19217:19356   */\n      swap1\n      pop\n        /* \"#utility.yul\":18944:19363   */\n      swap2\n      swap1\n      pop\n      jump\t// out\n        /* \"#utility.yul\":19369:19788   */\n    tag_124:\n        /* \"#utility.yul\":19535:19539   */\n      0x00\n        /* \"#utility.yul\":19573:19575   */\n      0x20\n        /* \"#utility.yul\":19562:19571   */\n      dup3\n        /* \"#utility.yul\":19558:19576   */\n      add\n        /* \"#utility.yul\":19550:19576   */\n      swap1\n      pop\n        /* \"#utility.yul\":19622:19631   */\n      dup2\n        /* \"#utility.yul\":19616:19620   */\n      dup2\n        /* \"#utility.yul\":19612:19632   */\n      sub\n        /* \"#utility.yul\":19608:19609   */\n      0x00\n        /* \"#utility.yul\":19597:19606   */\n      dup4\n        /* \"#utility.yul\":19593:19610   */\n      add\n        /* \"#utility.yul\":19586:19633   */\n      mstore\n        /* \"#utility.yul\":19650:19781   */\n      tag_599\n        /* \"#utility.yul\":19776:19780   */\n      dup2\n        /* \"#utility.yul\":19650:19781   */\n      tag_510\n      jump\t// in\n    tag_599:\n        /* \"#utility.yul\":19642:19781   */\n      swap1\n      pop\n        /* \"#utility.yul\":19369:19788   */\n      swap2\n      swap1\n      pop\n      jump\t// out\n        /* \"#utility.yul\":19794:20213   */\n    tag_92:\n        /* \"#utility.yul\":19960:19964   */\n      0x00\n        /* \"#utility.yul\":19998:20000   */\n      0x20\n        /* \"#utility.yul\":19987:19996   */\n      dup3\n        /* \"#utility.yul\":19983:20001   */\n      add\n        /* \"#utility.yul\":19975:20001   */\n      swap1\n      pop\n        /* \"#utility.yul\":20047:20056   */\n      dup2\n        /* \"#utility.yul\":20041:20045   */\n      dup2\n        /* \"#utility.yul\":20037:20057   */\n      sub\n        /* \"#utility.yul\":20033:20034   */\n      0x00\n        /* \"#utility.yul\":20022:20031   */\n      dup4\n        /* \"#utility.yul\":20018:20035   */\n      add\n        /* \"#utility.yul\":20011:20058   */\n      mstore\n        /* \"#utility.yul\":20075:20206   */\n      tag_601\n        /* \"#utility.yul\":20201:20205   */\n      dup2\n        /* \"#utility.yul\":20075:20206   */\n      tag_515\n      jump\t// in\n    tag_601:\n        /* \"#utility.yul\":20067:20206   */\n      swap1\n      pop\n        /* \"#utility.yul\":19794:20213   */\n      swap2\n      swap1\n      pop\n      jump\t// out\n        /* \"#utility.yul\":20219:20638   */\n    tag_119:\n        /* \"#utility.yul\":20385:20389   */\n      0x00\n        /* \"#utility.yul\":20423:20425   */\n      0x20\n        /* \"#utility.yul\":20412:20421   */\n      dup3\n        /* \"#utility.yul\":20408:20426   */\n      add\n        /* \"#utility.yul\":20400:20426   */\n      swap1\n      pop\n        /* \"#utility.yul\":20472:20481   */\n      dup2\n        /* \"#utility.yul\":20466:20470   */\n      dup2\n        /* \"#utility.yul\":20462:20482   */\n      sub\n        /* \"#utility.yul\":20458:20459   */\n      0x00\n        /* \"#utility.yul\":20447:20456   */\n      dup4\n        /* \"#utility.yul\":20443:20460   */\n      add\n        /* \"#utility.yul\":20436:20483   */\n      mstore\n        /* \"#utility.yul\":20500:20631   */\n      tag_603\n        /* \"#utility.yul\":20626:20630   */\n      dup2\n        /* \"#utility.yul\":20500:20631   */\n      tag_520\n      jump\t// in\n    tag_603:\n        /* \"#utility.yul\":20492:20631   */\n      swap1\n      pop\n        /* \"#utility.yul\":20219:20638   */\n      swap2\n      swap1\n      pop\n      jump\t// out\n        /* \"#utility.yul\":20644:21063   */\n    tag_147:\n        /* \"#utility.yul\":20810:20814   */\n      0x00\n        /* \"#utility.yul\":20848:20850   */\n      0x20\n        /* \"#utility.yul\":20837:20846   */\n      dup3\n        /* \"#utility.yul\":20833:20851   */\n      add\n        /* \"#utility.yul\":20825:20851   */\n      swap1\n      pop\n        /* \"#utility.yul\":20897:20906   */\n      dup2\n        /* \"#utility.yul\":20891:20895   */\n      dup2\n        /* \"#utility.yul\":20887:20907   */\n      sub\n        /* \"#utility.yul\":20883:20884   */\n      0x00\n        /* \"#utility.yul\":20872:20881   */\n      dup4\n        /* \"#utility.yul\":20868:20885   */\n      add\n        /* \"#utility.yul\":20861:20908   */\n      mstore\n        /* \"#utility.yul\":20925:21056   */\n      tag_605\n        /* \"#utility.yul\":21051:21055   */\n      dup2\n        /* \"#utility.yul\":20925:21056   */\n      tag_525\n      jump\t// in\n    tag_605:\n        /* \"#utility.yul\":20917:21056   */\n      swap1\n      pop\n        /* \"#utility.yul\":20644:21063   */\n      swap2\n      swap1\n      pop\n      jump\t// out\n        /* \"#utility.yul\":21069:21488   */\n    tag_101:\n        /* \"#utility.yul\":21235:21239   */\n      0x00\n        /* \"#utility.yul\":21273:21275   */\n      0x20\n        /* \"#utility.yul\":21262:21271   */\n      dup3\n        /* \"#utility.yul\":21258:21276   */\n      add\n        /* \"#utility.yul\":21250:21276   */\n      swap1\n      pop\n        /* \"#utility.yul\":21322:21331   */\n      dup2\n        /* \"#utility.yul\":21316:21320   */\n      dup2\n        /* \"#utility.yul\":21312:21332   */\n      sub\n        /* \"#utility.yul\":21308:21309   */\n      0x00\n        /* \"#utility.yul\":21297:21306   */\n      dup4\n        /* \"#utility.yul\":21293:21310   */\n      add\n        /* \"#utility.yul\":21286:21333   */\n      mstore\n        /* \"#utility.yul\":21350:21481   */\n      tag_607\n        /* \"#utility.yul\":21476:21480   */\n      dup2\n        /* \"#utility.yul\":21350:21481   */\n      tag_535\n      jump\t// in\n    tag_607:\n        /* \"#utility.yul\":21342:21481   */\n      swap1\n      pop\n        /* \"#utility.yul\":21069:21488   */\n      swap2\n      swap1\n      pop\n      jump\t// out\n        /* \"#utility.yul\":21494:21913   */\n    tag_272:\n        /* \"#utility.yul\":21660:21664   */\n      0x00\n        /* \"#utility.yul\":21698:21700   */\n      0x20\n        /* \"#utility.yul\":21687:21696   */\n      dup3\n        /* \"#utility.yul\":21683:21701   */\n      add\n        /* \"#utility.yul\":21675:21701   */\n      swap1\n      pop\n        /* \"#utility.yul\":21747:21756   */\n      dup2\n        /* \"#utility.yul\":21741:21745   */\n      dup2\n        /* \"#utility.yul\":21737:21757   */\n      sub\n        /* \"#utility.yul\":21733:21734   */\n      0x00\n        /* \"#utility.yul\":21722:21731   */\n      dup4\n        /* \"#utility.yul\":21718:21735   */\n      add\n        /* \"#utility.yul\":21711:21758   */\n      mstore\n        /* \"#utility.yul\":21775:21906   */\n      tag_609\n        /* \"#utility.yul\":21901:21905   */\n      dup2\n        /* \"#utility.yul\":21775:21906   */\n      tag_540\n      jump\t// in\n    tag_609:\n        /* \"#utility.yul\":21767:21906   */\n      swap1\n      pop\n        /* \"#utility.yul\":21494:21913   */\n      swap2\n      swap1\n      pop\n      jump\t// out\n        /* \"#utility.yul\":21919:22141   */\n    tag_23:\n        /* \"#utility.yul\":22012:22016   */\n      0x00\n        /* \"#utility.yul\":22050:22052   */\n      0x20\n        /* \"#utility.yul\":22039:22048   */\n      dup3\n        /* \"#utility.yul\":22035:22053   */\n      add\n        /* \"#utility.yul\":22027:22053   */\n      swap1\n      pop\n        /* \"#utility.yul\":22063:22134   */\n      tag_611\n        /* \"#utility.yul\":22131:22132   */\n      0x00\n        /* \"#utility.yul\":22120:22129   */\n      dup4\n        /* \"#utility.yul\":22116:22133   */\n      add\n        /* \"#utility.yul\":22107:22113   */\n      dup5\n        /* \"#utility.yul\":22063:22134   */\n      tag_548\n      jump\t// in\n    tag_611:\n        /* \"#utility.yul\":21919:22141   */\n      swap3\n      swap2\n      pop\n      pop\n      jump\t// out\n        /* \"#utility.yul\":22147:22570   */\n    tag_58:\n        /* \"#utility.yul\":22288:22292   */\n      0x00\n        /* \"#utility.yul\":22326:22328   */\n      0x40\n        /* \"#utility.yul\":22315:22324   */\n      dup3\n        /* \"#utility.yul\":22311:22329   */\n      add\n        /* \"#utility.yul\":22303:22329   */\n      swap1\n      pop\n        /* \"#utility.yul\":22339:22410   */\n      tag_613\n        /* \"#utility.yul\":22407:22408   */\n      0x00\n        /* \"#utility.yul\":22396:22405   */\n      dup4\n        /* \"#utility.yul\":22392:22409   */\n      add\n        /* \"#utility.yul\":22383:22389   */\n      dup6\n        /* \"#utility.yul\":22339:22410   */\n      tag_548\n      jump\t// in\n    tag_613:\n        /* \"#utility.yul\":22457:22466   */\n      dup2\n        /* \"#utility.yul\":22451:22455   */\n      dup2\n        /* \"#utility.yul\":22447:22467   */\n      sub\n        /* \"#utility.yul\":22442:22444   */\n      0x20\n        /* \"#utility.yul\":22431:22440   */\n      dup4\n        /* \"#utility.yul\":22427:22445   */\n      add\n        /* \"#utility.yul\":22420:22468   */\n      mstore\n        /* \"#utility.yul\":22485:22563   */\n      tag_614\n        /* \"#utility.yul\":22558:22562   */\n      dup2\n        /* \"#utility.yul\":22549:22555   */\n      dup5\n        /* \"#utility.yul\":22485:22563   */\n      tag_462\n      jump\t// in\n    tag_614:\n        /* \"#utility.yul\":22477:22563   */\n      swap1\n      pop\n        /* \"#utility.yul\":22147:22570   */\n      swap4\n      swap3\n      pop\n      pop\n      pop\n      jump\t// out\n        /* \"#utility.yul\":22576:22908   */\n    tag_281:\n        /* \"#utility.yul\":22697:22701   */\n      0x00\n        /* \"#utility.yul\":22735:22737   */\n      0x40\n        /* \"#utility.yul\":22724:22733   */\n      dup3\n        /* \"#utility.yul\":22720:22738   */\n      add\n        /* \"#utility.yul\":22712:22738   */\n      swap1\n      pop\n        /* \"#utility.yul\":22748:22819   */\n      tag_616\n        /* \"#utility.yul\":22816:22817   */\n      0x00\n        /* \"#utility.yul\":22805:22814   */\n      dup4\n        /* \"#utility.yul\":22801:22818   */\n      add\n        /* \"#utility.yul\":22792:22798   */\n      dup6\n        /* \"#utility.yul\":22748:22819   */\n      tag_548\n      jump\t// in\n    tag_616:\n        /* \"#utility.yul\":22829:22901   */\n      tag_617\n        /* \"#utility.yul\":22897:22899   */\n      0x20\n        /* \"#utility.yul\":22886:22895   */\n      dup4\n        /* \"#utility.yul\":22882:22900   */\n      add\n        /* \"#utility.yul\":22873:22879   */\n      dup5\n        /* \"#utility.yul\":22829:22901   */\n      tag_548\n      jump\t// in\n    tag_617:\n        /* \"#utility.yul\":22576:22908   */\n      swap4\n      swap3\n      pop\n      pop\n      pop\n      jump\t// out\n        /* \"#utility.yul\":22914:23356   */\n    tag_63:\n        /* \"#utility.yul\":23063:23067   */\n      0x00\n        /* \"#utility.yul\":23101:23103   */\n      0x60\n        /* \"#utility.yul\":23090:23099   */\n      dup3\n        /* \"#utility.yul\":23086:23104   */\n      add\n        /* \"#utility.yul\":23078:23104   */\n      swap1\n      pop\n        /* \"#utility.yul\":23114:23185   */\n      tag_619\n        /* \"#utility.yul\":23182:23183   */\n      0x00\n        /* \"#utility.yul\":23171:23180   */\n      dup4\n        /* \"#utility.yul\":23167:23184   */\n      add\n        /* \"#utility.yul\":23158:23164   */\n      dup7\n        /* \"#utility.yul\":23114:23185   */\n      tag_548\n      jump\t// in\n    tag_619:\n        /* \"#utility.yul\":23195:23267   */\n      tag_620\n        /* \"#utility.yul\":23263:23265   */\n      0x20\n        /* \"#utility.yul\":23252:23261   */\n      dup4\n        /* \"#utility.yul\":23248:23266   */\n      add\n        /* \"#utility.yul\":23239:23245   */\n      dup6\n        /* \"#utility.yul\":23195:23267   */\n      tag_548\n      jump\t// in\n    tag_620:\n        /* \"#utility.yul\":23277:23349   */\n      tag_621\n        /* \"#utility.yul\":23345:23347   */\n      0x40\n        /* \"#utility.yul\":23334:23343   */\n      dup4\n        /* \"#utility.yul\":23330:23348   */\n      add\n        /* \"#utility.yul\":23321:23327   */\n      dup5\n        /* \"#utility.yul\":23277:23349   */\n      tag_548\n      jump\t// in\n    tag_621:\n        /* \"#utility.yul\":22914:23356   */\n      swap5\n      swap4\n      pop\n      pop\n      pop\n      pop\n      jump\t// out\n        /* \"#utility.yul\":23362:23437   */\n    tag_622:\n        /* \"#utility.yul\":23395:23401   */\n      0x00\n        /* \"#utility.yul\":23428:23430   */\n      0x40\n        /* \"#utility.yul\":23422:23431   */\n      mload\n        /* \"#utility.yul\":23412:23431   */\n      swap1\n      pop\n        /* \"#utility.yul\":23362:23437   */\n      swap1\n      jump\t// out\n        /* \"#utility.yul\":23443:23585   */\n    tag_428:\n        /* \"#utility.yul\":23520:23524   */\n      0x00\n        /* \"#utility.yul\":23543:23546   */\n      dup2\n        /* \"#utility.yul\":23535:23546   */\n      swap1\n      pop\n        /* \"#utility.yul\":23573:23577   */\n      0x20\n        /* \"#utility.yul\":23568:23571   */\n      dup3\n        /* \"#utility.yul\":23564:23578   */\n      add\n        /* \"#utility.yul\":23556:23578   */\n      swap1\n      pop\n        /* \"#utility.yul\":23443:23585   */\n      swap2\n      swap1\n      pop\n      jump\t// out\n        /* \"#utility.yul\":23591:23723   */\n    tag_442:\n        /* \"#utility.yul\":23658:23662   */\n      0x00\n        /* \"#utility.yul\":23681:23684   */\n      dup2\n        /* \"#utility.yul\":23673:23684   */\n      swap1\n      pop\n        /* \"#utility.yul\":23711:23715   */\n      0x20\n        /* \"#utility.yul\":23706:23709   */\n      dup3\n        /* \"#utility.yul\":23702:23716   */\n      add\n        /* \"#utility.yul\":23694:23716   */\n      swap1\n      pop\n        /* \"#utility.yul\":23591:23723   */\n      swap2\n      swap1\n      pop\n      jump\t// out\n        /* \"#utility.yul\":23729:23853   */\n    tag_424:\n        /* \"#utility.yul\":23806:23812   */\n      0x00\n        /* \"#utility.yul\":23840:23845   */\n      dup2\n        /* \"#utility.yul\":23834:23846   */\n      mload\n        /* \"#utility.yul\":23824:23846   */\n      swap1\n      pop\n        /* \"#utility.yul\":23729:23853   */\n      swap2\n      swap1\n      pop\n      jump\t// out\n        /* \"#utility.yul\":23859:23973   */\n    tag_438:\n        /* \"#utility.yul\":23926:23932   */\n      0x00\n        /* \"#utility.yul\":23960:23965   */\n      dup2\n        /* \"#utility.yul\":23954:23966   */\n      mload\n        /* \"#utility.yul\":23944:23966   */\n      swap1\n      pop\n        /* \"#utility.yul\":23859:23973   */\n      swap2\n      swap1\n      pop\n      jump\t// out\n        /* \"#utility.yul\":23979:24078   */\n    tag_455:\n        /* \"#utility.yul\":24031:24037   */\n      0x00\n        /* \"#utility.yul\":24065:24070   */\n      dup2\n        /* \"#utility.yul\":24059:24071   */\n      mload\n        /* \"#utility.yul\":24049:24071   */\n      swap1\n      pop\n        /* \"#utility.yul\":23979:24078   */\n      swap2\n      swap1\n      pop\n      jump\t// out\n        /* \"#utility.yul\":24084:24207   */\n    tag_434:\n        /* \"#utility.yul\":24164:24168   */\n      0x00\n        /* \"#utility.yul\":24196:24200   */\n      0x20\n        /* \"#utility.yul\":24191:24194   */\n      dup3\n        /* \"#utility.yul\":24187:24201   */\n      add\n        /* \"#utility.yul\":24179:24201   */\n      swap1\n      pop\n        /* \"#utility.yul\":24084:24207   */\n      swap2\n      swap1\n      pop\n      jump\t// out\n        /* \"#utility.yul\":24213:24326   */\n    tag_448:\n        /* \"#utility.yul\":24283:24287   */\n      0x00\n        /* \"#utility.yul\":24315:24319   */\n      0x20\n        /* \"#utility.yul\":24310:24313   */\n      dup3\n        /* \"#utility.yul\":24306:24320   */\n      add\n        /* \"#utility.yul\":24298:24320   */\n      swap1\n      pop\n        /* \"#utility.yul\":24213:24326   */\n      swap2\n      swap1\n      pop\n      jump\t// out\n        /* \"#utility.yul\":24332:24526   */\n    tag_426:\n        /* \"#utility.yul\":24441:24452   */\n      0x00\n        /* \"#utility.yul\":24475:24481   */\n      dup3\n        /* \"#utility.yul\":24470:24473   */\n      dup3\n        /* \"#utility.yul\":24463:24482   */\n      mstore\n        /* \"#utility.yul\":24515:24519   */\n      0x20\n        /* \"#utility.yul\":24510:24513   */\n      dup3\n        /* \"#utility.yul\":24506:24520   */\n      add\n        /* \"#utility.yul\":24491:24520   */\n      swap1\n      pop\n        /* \"#utility.yul\":24332:24526   */\n      swap3\n      swap2\n      pop\n      pop\n      jump\t// out\n        /* \"#utility.yul\":24532:24716   */\n    tag_440:\n        /* \"#utility.yul\":24631:24642   */\n      0x00\n        /* \"#utility.yul\":24665:24671   */\n      dup3\n        /* \"#utility.yul\":24660:24663   */\n      dup3\n        /* \"#utility.yul\":24653:24672   */\n      mstore\n        /* \"#utility.yul\":24705:24709   */\n      0x20\n        /* \"#utility.yul\":24700:24703   */\n      dup3\n        /* \"#utility.yul\":24696:24710   */\n      add\n        /* \"#utility.yul\":24681:24710   */\n      swap1\n      pop\n        /* \"#utility.yul\":24532:24716   */\n      swap3\n      swap2\n      pop\n      pop\n      jump\t// out\n        /* \"#utility.yul\":24722:24881   */\n    tag_457:\n        /* \"#utility.yul\":24796:24807   */\n      0x00\n        /* \"#utility.yul\":24830:24836   */\n      dup3\n        /* \"#utility.yul\":24825:24828   */\n      dup3\n        /* \"#utility.yul\":24818:24837   */\n      mstore\n        /* \"#utility.yul\":24870:24874   */\n      0x20\n        /* \"#utility.yul\":24865:24868   */\n      dup3\n        /* \"#utility.yul\":24861:24875   */\n      add\n        /* \"#utility.yul\":24846:24875   */\n      swap1\n      pop\n        /* \"#utility.yul\":24722:24881   */\n      swap3\n      swap2\n      pop\n      pop\n      jump\t// out\n        /* \"#utility.yul\":24887:25056   */\n    tag_466:\n        /* \"#utility.yul\":24971:24982   */\n      0x00\n        /* \"#utility.yul\":25005:25011   */\n      dup3\n        /* \"#utility.yul\":25000:25003   */\n      dup3\n        /* \"#utility.yul\":24993:25012   */\n      mstore\n        /* \"#utility.yul\":25045:25049   */\n      0x20\n        /* \"#utility.yul\":25040:25043   */\n      dup3\n        /* \"#utility.yul\":25036:25050   */\n      add\n        /* \"#utility.yul\":25021:25050   */\n      swap1\n      pop\n        /* \"#utility.yul\":24887:25056   */\n      swap3\n      swap2\n      pop\n      pop\n      jump\t// out\n        /* \"#utility.yul\":25062:25210   */\n    tag_473:\n        /* \"#utility.yul\":25164:25175   */\n      0x00\n        /* \"#utility.yul\":25201:25204   */\n      dup2\n        /* \"#utility.yul\":25186:25204   */\n      swap1\n      pop\n        /* \"#utility.yul\":25062:25210   */\n      swap3\n      swap2\n      pop\n      pop\n      jump\t// out\n        /* \"#utility.yul\":25216:25521   */\n    tag_220:\n        /* \"#utility.yul\":25256:25259   */\n      0x00\n        /* \"#utility.yul\":25275:25295   */\n      tag_637\n        /* \"#utility.yul\":25293:25294   */\n      dup3\n        /* \"#utility.yul\":25275:25295   */\n      tag_547\n      jump\t// in\n    tag_637:\n        /* \"#utility.yul\":25270:25295   */\n      swap2\n      pop\n        /* \"#utility.yul\":25309:25329   */\n      tag_638\n        /* \"#utility.yul\":25327:25328   */\n      dup4\n        /* \"#utility.yul\":25309:25329   */\n      tag_547\n      jump\t// in\n    tag_638:\n        /* \"#utility.yul\":25304:25329   */\n      swap3\n      pop\n        /* \"#utility.yul\":25463:25464   */\n      dup3\n        /* \"#utility.yul\":25395:25461   */\n      0xffffffffffffffffffffffffffffffffffffffffffffffffffffffffffffffff\n        /* \"#utility.yul\":25391:25465   */\n      sub\n        /* \"#utility.yul\":25388:25389   */\n      dup3\n        /* \"#utility.yul\":25385:25466   */\n      gt\n        /* \"#utility.yul\":25382:25489   */\n      iszero\n      tag_639\n      jumpi\n        /* \"#utility.yul\":25469:25487   */\n      tag_640\n      tag_641\n      jump\t// in\n    tag_640:\n        /* \"#utility.yul\":25382:25489   */\n    tag_639:\n        /* \"#utility.yul\":25513:25514   */\n      dup3\n        /* \"#utility.yul\":25510:25511   */\n      dup3\n        /* \"#utility.yul\":25506:25515   */\n      add\n        /* \"#utility.yul\":25499:25515   */\n      swap1\n      pop\n        /* \"#utility.yul\":25216:25521   */\n      swap3\n      swap2\n      pop\n      pop\n      jump\t// out\n        /* \"#utility.yul\":25527:25712   */\n    tag_295:\n        /* \"#utility.yul\":25567:25568   */\n      0x00\n        /* \"#utility.yul\":25584:25604   */\n      tag_643\n        /* \"#utility.yul\":25602:25603   */\n      dup3\n        /* \"#utility.yul\":25584:25604   */\n      tag_547\n      jump\t// in\n    tag_643:\n        /* \"#utility.yul\":25579:25604   */\n      swap2\n      pop\n        /* \"#utility.yul\":25618:25638   */\n      tag_644\n        /* \"#utility.yul\":25636:25637   */\n      dup4\n        /* \"#utility.yul\":25618:25638   */\n      tag_547\n      jump\t// in\n    tag_644:\n        /* \"#utility.yul\":25613:25638   */\n      swap3\n      pop\n        /* \"#utility.yul\":25657:25658   */\n      dup3\n        /* \"#utility.yul\":25647:25682   */\n      tag_645\n      jumpi\n        /* \"#utility.yul\":25662:25680   */\n      tag_646\n      tag_647\n      jump\t// in\n    tag_646:\n        /* \"#utility.yul\":25647:25682   */\n    tag_645:\n        /* \"#utility.yul\":25704:25705   */\n      dup3\n        /* \"#utility.yul\":25701:25702   */\n      dup3\n        /* \"#utility.yul\":25697:25706   */\n      div\n        /* \"#utility.yul\":25692:25706   */\n      swap1\n      pop\n        /* \"#utility.yul\":25527:25712   */\n      swap3\n      swap2\n      pop\n      pop\n      jump\t// out\n        /* \"#utility.yul\":25718:25909   */\n    tag_303:\n        /* \"#utility.yul\":25758:25762   */\n      0x00\n        /* \"#utility.yul\":25778:25798   */\n      tag_649\n        /* \"#utility.yul\":25796:25797   */\n      dup3\n        /* \"#utility.yul\":25778:25798   */\n      tag_547\n      jump\t// in\n    tag_649:\n        /* \"#utility.yul\":25773:25798   */\n      swap2\n      pop\n        /* \"#utility.yul\":25812:25832   */\n      tag_650\n        /* \"#utility.yul\":25830:25831   */\n      dup4\n        /* \"#utility.yul\":25812:25832   */\n      tag_547\n      jump\t// in\n    tag_650:\n        /* \"#utility.yul\":25807:25832   */\n      swap3\n      pop\n        /* \"#utility.yul\":25851:25852   */\n      dup3\n        /* \"#utility.yul\":25848:25849   */\n      dup3\n        /* \"#utility.yul\":25845:25853   */\n      lt\n        /* \"#utility.yul\":25842:25876   */\n      iszero\n      tag_651\n      jumpi\n        /* \"#utility.yul\":25856:25874   */\n      tag_652\n      tag_641\n      jump\t// in\n    tag_652:\n        /* \"#utility.yul\":25842:25876   */\n    tag_651:\n        /* \"#utility.yul\":25901:25902   */\n      dup3\n        /* \"#utility.yul\":25898:25899   */\n      dup3\n        /* \"#utility.yul\":25894:25903   */\n      sub\n        /* \"#utility.yul\":25886:25903   */\n      swap1\n      pop\n        /* \"#utility.yul\":25718:25909   */\n      swap3\n      swap2\n      pop\n      pop\n      jump\t// out\n        /* \"#utility.yul\":25915:26011   */\n    tag_415:\n        /* \"#utility.yul\":25952:25959   */\n      0x00\n        /* \"#utility.yul\":25981:26005   */\n      tag_654\n        /* \"#utility.yul\":25999:26004   */\n      dup3\n        /* \"#utility.yul\":25981:26005   */\n      tag_655\n      jump\t// in\n    tag_654:\n        /* \"#utility.yul\":25970:26005   */\n      swap1\n      pop\n        /* \"#utility.yul\":25915:26011   */\n      swap2\n      swap1\n      pop\n      jump\t// out\n        /* \"#utility.yul\":26017:26121   */\n    tag_411:\n        /* \"#utility.yul\":26062:26069   */\n      0x00\n        /* \"#utility.yul\":26091:26115   */\n      tag_657\n        /* \"#utility.yul\":26109:26114   */\n      dup3\n        /* \"#utility.yul\":26091:26115   */\n      tag_655\n      jump\t// in\n    tag_657:\n        /* \"#utility.yul\":26080:26115   */\n      swap1\n      pop\n        /* \"#utility.yul\":26017:26121   */\n      swap2\n      swap1\n      pop\n      jump\t// out\n        /* \"#utility.yul\":26127:26217   */\n    tag_452:\n        /* \"#utility.yul\":26161:26168   */\n      0x00\n        /* \"#utility.yul\":26204:26209   */\n      dup2\n        /* \"#utility.yul\":26197:26210   */\n      iszero\n        /* \"#utility.yul\":26190:26211   */\n      iszero\n        /* \"#utility.yul\":26179:26211   */\n      swap1\n      pop\n        /* \"#utility.yul\":26127:26217   */\n      swap2\n      swap1\n      pop\n      jump\t// out\n        /* \"#utility.yul\":26223:26372   */\n    tag_659:\n        /* \"#utility.yul\":26259:26266   */\n      0x00\n        /* \"#utility.yul\":26299:26365   */\n      0xffffffff00000000000000000000000000000000000000000000000000000000\n        /* \"#utility.yul\":26292:26297   */\n      dup3\n        /* \"#utility.yul\":26288:26366   */\n      and\n        /* \"#utility.yul\":26277:26366   */\n      swap1\n      pop\n        /* \"#utility.yul\":26223:26372   */\n      swap2\n      swap1\n      pop\n      jump\t// out\n        /* \"#utility.yul\":26378:26504   */\n    tag_655:\n        /* \"#utility.yul\":26415:26422   */\n      0x00\n        /* \"#utility.yul\":26455:26497   */\n      0xffffffffffffffffffffffffffffffffffffffff\n        /* \"#utility.yul\":26448:26453   */\n      dup3\n        /* \"#utility.yul\":26444:26498   */\n      and\n        /* \"#utility.yul\":26433:26498   */\n      swap1\n      pop\n        /* \"#utility.yul\":26378:26504   */\n      swap2\n      swap1\n      pop\n      jump\t// out\n        /* \"#utility.yul\":26510:26587   */\n    tag_547:\n        /* \"#utility.yul\":26547:26554   */\n      0x00\n        /* \"#utility.yul\":26576:26581   */\n      dup2\n        /* \"#utility.yul\":26565:26581   */\n      swap1\n      pop\n        /* \"#utility.yul\":26510:26587   */\n      swap2\n      swap1\n      pop\n      jump\t// out\n        /* \"#utility.yul\":26593:26900   */\n    tag_459:\n        /* \"#utility.yul\":26661:26662   */\n      0x00\n        /* \"#utility.yul\":26671:26784   */\n    tag_664:\n        /* \"#utility.yul\":26685:26691   */\n      dup4\n        /* \"#utility.yul\":26682:26683   */\n      dup2\n        /* \"#utility.yul\":26679:26692   */\n      lt\n        /* \"#utility.yul\":26671:26784   */\n      iszero\n      tag_666\n      jumpi\n        /* \"#utility.yul\":26770:26771   */\n      dup1\n        /* \"#utility.yul\":26765:26768   */\n      dup3\n        /* \"#utility.yul\":26761:26772   */\n      add\n        /* \"#utility.yul\":26755:26773   */\n      mload\n        /* \"#utility.yul\":26751:26752   */\n      dup2\n        /* \"#utility.yul\":26746:26749   */\n      dup5\n        /* \"#utility.yul\":26742:26753   */\n      add\n        /* \"#utility.yul\":26735:26774   */\n      mstore\n        /* \"#utility.yul\":26707:26709   */\n      0x20\n        /* \"#utility.yul\":26704:26705   */\n      dup2\n        /* \"#utility.yul\":26700:26710   */\n      add\n        /* \"#utility.yul\":26695:26710   */\n      swap1\n      pop\n        /* \"#utility.yul\":26671:26784   */\n      jump(tag_664)\n    tag_666:\n        /* \"#utility.yul\":26802:26808   */\n      dup4\n        /* \"#utility.yul\":26799:26800   */\n      dup2\n        /* \"#utility.yul\":26796:26809   */\n      gt\n        /* \"#utility.yul\":26793:26894   */\n      iszero\n      tag_667\n      jumpi\n        /* \"#utility.yul\":26882:26883   */\n      0x00\n        /* \"#utility.yul\":26873:26879   */\n      dup5\n        /* \"#utility.yul\":26868:26871   */\n      dup5\n        /* \"#utility.yul\":26864:26880   */\n      add\n        /* \"#utility.yul\":26857:26884   */\n      mstore\n        /* \"#utility.yul\":26793:26894   */\n    tag_667:\n        /* \"#utility.yul\":26642:26900   */\n      pop\n        /* \"#utility.yul\":26593:26900   */\n      pop\n      pop\n      pop\n      jump\t// out\n        /* \"#utility.yul\":26906:27226   */\n    tag_166:\n        /* \"#utility.yul\":26950:26956   */\n      0x00\n        /* \"#utility.yul\":26987:26988   */\n      0x02\n        /* \"#utility.yul\":26981:26985   */\n      dup3\n        /* \"#utility.yul\":26977:26989   */\n      div\n        /* \"#utility.yul\":26967:26989   */\n      swap1\n      pop\n        /* \"#utility.yul\":27034:27035   */\n      0x01\n        /* \"#utility.yul\":27028:27032   */\n      dup3\n        /* \"#utility.yul\":27024:27036   */\n      and\n        /* \"#utility.yul\":27055:27073   */\n      dup1\n        /* \"#utility.yul\":27045:27126   */\n      tag_669\n      jumpi\n        /* \"#utility.yul\":27111:27115   */\n      0x7f\n        /* \"#utility.yul\":27103:27109   */\n      dup3\n        /* \"#utility.yul\":27099:27116   */\n      and\n        /* \"#utility.yul\":27089:27116   */\n      swap2\n      pop\n        /* \"#utility.yul\":27045:27126   */\n    tag_669:\n        /* \"#utility.yul\":27173:27175   */\n      0x20\n        /* \"#utility.yul\":27165:27171   */\n      dup3\n        /* \"#utility.yul\":27162:27176   */\n      lt\n        /* \"#utility.yul\":27142:27160   */\n      dup2\n        /* \"#utility.yul\":27139:27177   */\n      eq\n        /* \"#utility.yul\":27136:27220   */\n      iszero\n      tag_670\n      jumpi\n        /* \"#utility.yul\":27192:27210   */\n      tag_671\n      tag_672\n      jump\t// in\n    tag_671:\n        /* \"#utility.yul\":27136:27220   */\n    tag_670:\n        /* \"#utility.yul\":26957:27226   */\n      pop\n        /* \"#utility.yul\":26906:27226   */\n      swap2\n      swap1\n      pop\n      jump\t// out\n        /* \"#utility.yul\":27232:27513   */\n    tag_673:\n        /* \"#utility.yul\":27315:27342   */\n      tag_675\n        /* \"#utility.yul\":27337:27341   */\n      dup3\n        /* \"#utility.yul\":27315:27342   */\n      tag_461\n      jump\t// in\n    tag_675:\n        /* \"#utility.yul\":27307:27313   */\n      dup2\n        /* \"#utility.yul\":27303:27343   */\n      add\n        /* \"#utility.yul\":27445:27451   */\n      dup2\n        /* \"#utility.yul\":27433:27443   */\n      dup2\n        /* \"#utility.yul\":27430:27452   */\n      lt\n        /* \"#utility.yul\":27409:27427   */\n      0xffffffffffffffff\n        /* \"#utility.yul\":27397:27407   */\n      dup3\n        /* \"#utility.yul\":27394:27428   */\n      gt\n        /* \"#utility.yul\":27391:27453   */\n      or\n        /* \"#utility.yul\":27388:27476   */\n      iszero\n      tag_676\n      jumpi\n        /* \"#utility.yul\":27456:27474   */\n      tag_677\n      tag_298\n      jump\t// in\n    tag_677:\n        /* \"#utility.yul\":27388:27476   */\n    tag_676:\n        /* \"#utility.yul\":27496:27506   */\n      dup1\n        /* \"#utility.yul\":27492:27494   */\n      0x40\n        /* \"#utility.yul\":27485:27507   */\n      mstore\n        /* \"#utility.yul\":27275:27513   */\n      pop\n        /* \"#utility.yul\":27232:27513   */\n      pop\n      pop\n      jump\t// out\n        /* \"#utility.yul\":27519:27752   */\n    tag_135:\n        /* \"#utility.yul\":27558:27561   */\n      0x00\n        /* \"#utility.yul\":27581:27605   */\n      tag_679\n        /* \"#utility.yul\":27599:27604   */\n      dup3\n        /* \"#utility.yul\":27581:27605   */\n      tag_547\n      jump\t// in\n    tag_679:\n        /* \"#utility.yul\":27572:27605   */\n      swap2\n      pop\n        /* \"#utility.yul\":27627:27693   */\n      0xffffffffffffffffffffffffffffffffffffffffffffffffffffffffffffffff\n        /* \"#utility.yul\":27620:27625   */\n      dup3\n        /* \"#utility.yul\":27617:27694   */\n      eq\n        /* \"#utility.yul\":27614:27717   */\n      iszero\n      tag_680\n      jumpi\n        /* \"#utility.yul\":27697:27715   */\n      tag_681\n      tag_641\n      jump\t// in\n    tag_681:\n        /* \"#utility.yul\":27614:27717   */\n    tag_680:\n        /* \"#utility.yul\":27744:27745   */\n      0x01\n        /* \"#utility.yul\":27737:27742   */\n      dup3\n        /* \"#utility.yul\":27733:27746   */\n      add\n        /* \"#utility.yul\":27726:27746   */\n      swap1\n      pop\n        /* \"#utility.yul\":27519:27752   */\n      swap2\n      swap1\n      pop\n      jump\t// out\n        /* \"#utility.yul\":27758:27858   */\n    tag_420:\n        /* \"#utility.yul\":27797:27804   */\n      0x00\n        /* \"#utility.yul\":27826:27852   */\n      tag_683\n        /* \"#utility.yul\":27846:27851   */\n      dup3\n        /* \"#utility.yul\":27826:27852   */\n      tag_684\n      jump\t// in\n    tag_683:\n        /* \"#utility.yul\":27815:27852   */\n      swap1\n      pop\n        /* \"#utility.yul\":27758:27858   */\n      swap2\n      swap1\n      pop\n      jump\t// out\n        /* \"#utility.yul\":27864:27958   */\n    tag_684:\n        /* \"#utility.yul\":27903:27910   */\n      0x00\n        /* \"#utility.yul\":27932:27952   */\n      tag_686\n        /* \"#utility.yul\":27946:27951   */\n      dup3\n        /* \"#utility.yul\":27932:27952   */\n      tag_687\n      jump\t// in\n    tag_686:\n        /* \"#utility.yul\":27921:27952   */\n      swap1\n      pop\n        /* \"#utility.yul\":27864:27958   */\n      swap2\n      swap1\n      pop\n      jump\t// out\n        /* \"#utility.yul\":27964:28043   */\n    tag_555:\n        /* \"#utility.yul\":28003:28010   */\n      0x00\n        /* \"#utility.yul\":28032:28037   */\n      dup2\n        /* \"#utility.yul\":28021:28037   */\n      swap1\n      pop\n        /* \"#utility.yul\":27964:28043   */\n      swap2\n      swap1\n      pop\n      jump\t// out\n        /* \"#utility.yul\":28049:28225   */\n    tag_288:\n        /* \"#utility.yul\":28081:28082   */\n      0x00\n        /* \"#utility.yul\":28098:28118   */\n      tag_690\n        /* \"#utility.yul\":28116:28117   */\n      dup3\n        /* \"#utility.yul\":28098:28118   */\n      tag_547\n      jump\t// in\n    tag_690:\n        /* \"#utility.yul\":28093:28118   */\n      swap2\n      pop\n        /* \"#utility.yul\":28132:28152   */\n      tag_691\n        /* \"#utility.yul\":28150:28151   */\n      dup4\n        /* \"#utility.yul\":28132:28152   */\n      tag_547\n      jump\t// in\n    tag_691:\n        /* \"#utility.yul\":28127:28152   */\n      swap3\n      pop\n        /* \"#utility.yul\":28171:28172   */\n      dup3\n        /* \"#utility.yul\":28161:28196   */\n      tag_692\n      jumpi\n        /* \"#utility.yul\":28176:28194   */\n      tag_693\n      tag_647\n      jump\t// in\n    tag_693:\n        /* \"#utility.yul\":28161:28196   */\n    tag_692:\n        /* \"#utility.yul\":28217:28218   */\n      dup3\n        /* \"#utility.yul\":28214:28215   */\n      dup3\n        /* \"#utility.yul\":28210:28219   */\n      mod\n        /* \"#utility.yul\":28205:28219   */\n      swap1\n      pop\n        /* \"#utility.yul\":28049:28225   */\n      swap3\n      swap2\n      pop\n      pop\n      jump\t// out\n        /* \"#utility.yul\":28231:28411   */\n    tag_641:\n        /* \"#utility.yul\":28279:28356   */\n      0x4e487b7100000000000000000000000000000000000000000000000000000000\n        /* \"#utility.yul\":28276:28277   */\n      0x00\n        /* \"#utility.yul\":28269:28357   */\n      mstore\n        /* \"#utility.yul\":28376:28380   */\n      0x11\n        /* \"#utility.yul\":28373:28374   */\n      0x04\n        /* \"#utility.yul\":28366:28381   */\n      mstore\n        /* \"#utility.yul\":28400:28404   */\n      0x24\n        /* \"#utility.yul\":28397:28398   */\n      0x00\n        /* \"#utility.yul\":28390:28405   */\n      revert\n        /* \"#utility.yul\":28417:28597   */\n    tag_647:\n        /* \"#utility.yul\":28465:28542   */\n      0x4e487b7100000000000000000000000000000000000000000000000000000000\n        /* \"#utility.yul\":28462:28463   */\n      0x00\n        /* \"#utility.yul\":28455:28543   */\n      mstore\n        /* \"#utility.yul\":28562:28566   */\n      0x12\n        /* \"#utility.yul\":28559:28560   */\n      0x04\n        /* \"#utility.yul\":28552:28567   */\n      mstore\n        /* \"#utility.yul\":28586:28590   */\n      0x24\n        /* \"#utility.yul\":28583:28584   */\n      0x00\n        /* \"#utility.yul\":28576:28591   */\n      revert\n        /* \"#utility.yul\":28603:28783   */\n    tag_672:\n        /* \"#utility.yul\":28651:28728   */\n      0x4e487b7100000000000000000000000000000000000000000000000000000000\n        /* \"#utility.yul\":28648:28649   */\n      0x00\n        /* \"#utility.yul\":28641:28729   */\n      mstore\n        /* \"#utility.yul\":28748:28752   */\n      0x22\n        /* \"#utility.yul\":28745:28746   */\n      0x04\n        /* \"#utility.yul\":28738:28753   */\n      mstore\n        /* \"#utility.yul\":28772:28776   */\n      0x24\n        /* \"#utility.yul\":28769:28770   */\n      0x00\n        /* \"#utility.yul\":28762:28777   */\n      revert\n        /* \"#utility.yul\":28789:28969   */\n    tag_131:\n        /* \"#utility.yul\":28837:28914   */\n      0x4e487b7100000000000000000000000000000000000000000000000000000000\n        /* \"#utility.yul\":28834:28835   */\n      0x00\n        /* \"#utility.yul\":28827:28915   */\n      mstore\n        /* \"#utility.yul\":28934:28938   */\n      0x32\n        /* \"#utility.yul\":28931:28932   */\n      0x04\n        /* \"#utility.yul\":28924:28939   */\n      mstore\n        /* \"#utility.yul\":28958:28962   */\n      0x24\n        /* \"#utility.yul\":28955:28956   */\n      0x00\n        /* \"#utility.yul\":28948:28963   */\n      revert\n        /* \"#utility.yul\":28975:29155   */\n    tag_298:\n        /* \"#utility.yul\":29023:29100   */\n      0x4e487b7100000000000000000000000000000000000000000000000000000000\n        /* \"#utility.yul\":29020:29021   */\n      0x00\n        /* \"#utility.yul\":29013:29101   */\n      mstore\n        /* \"#utility.yul\":29120:29124   */\n      0x41\n        /* \"#utility.yul\":29117:29118   */\n      0x04\n        /* \"#utility.yul\":29110:29125   */\n      mstore\n        /* \"#utility.yul\":29144:29148   */\n      0x24\n        /* \"#utility.yul\":29141:29142   */\n      0x00\n        /* \"#utility.yul\":29134:29149   */\n      revert\n        /* \"#utility.yul\":29161:29344   */\n    tag_331:\n        /* \"#utility.yul\":29196:29199   */\n      0x00\n        /* \"#utility.yul\":29234:29235   */\n      0x03\n        /* \"#utility.yul\":29216:29232   */\n      returndatasize\n        /* \"#utility.yul\":29213:29236   */\n      gt\n        /* \"#utility.yul\":29210:29338   */\n      iszero\n      tag_700\n      jumpi\n        /* \"#utility.yul\":29272:29273   */\n      0x04\n        /* \"#utility.yul\":29269:29270   */\n      0x00\n        /* \"#utility.yul\":29266:29267   */\n      dup1\n        /* \"#utility.yul\":29251:29274   */\n      returndatacopy\n        /* \"#utility.yul\":29294:29328   */\n      tag_701\n        /* \"#utility.yul\":29325:29326   */\n      0x00\n        /* \"#utility.yul\":29319:29327   */\n      mload\n        /* \"#utility.yul\":29294:29328   */\n      tag_702\n      jump\t// in\n    tag_701:\n        /* \"#utility.yul\":29287:29328   */\n      swap1\n      pop\n        /* \"#utility.yul\":29210:29338   */\n    tag_700:\n        /* \"#utility.yul\":29161:29344   */\n      swap1\n      jump\t// out\n        /* \"#utility.yul\":29473:29590   */\n    tag_381:\n        /* \"#utility.yul\":29582:29583   */\n      0x00\n        /* \"#utility.yul\":29579:29580   */\n      dup1\n        /* \"#utility.yul\":29572:29584   */\n      revert\n        /* \"#utility.yul\":29596:29698   */\n    tag_461:\n        /* \"#utility.yul\":29637:29643   */\n      0x00\n        /* \"#utility.yul\":29688:29690   */\n      0x1f\n        /* \"#utility.yul\":29684:29691   */\n      not\n        /* \"#utility.yul\":29679:29681   */\n      0x1f\n        /* \"#utility.yul\":29672:29677   */\n      dup4\n        /* \"#utility.yul\":29668:29682   */\n      add\n        /* \"#utility.yul\":29664:29692   */\n      and\n        /* \"#utility.yul\":29654:29692   */\n      swap1\n      pop\n        /* \"#utility.yul\":29596:29698   */\n      swap2\n      swap1\n      pop\n      jump\t// out\n        /* \"#utility.yul\":29704:29798   */\n    tag_687:\n        /* \"#utility.yul\":29737:29745   */\n      0x00\n        /* \"#utility.yul\":29785:29790   */\n      dup2\n        /* \"#utility.yul\":29781:29783   */\n      0x60\n        /* \"#utility.yul\":29777:29791   */\n      shl\n        /* \"#utility.yul\":29756:29791   */\n      swap1\n      pop\n        /* \"#utility.yul\":29704:29798   */\n      swap2\n      swap1\n      pop\n      jump\t// out\n        /* \"#utility.yul\":29804:29910   */\n    tag_702:\n        /* \"#utility.yul\":29848:29856   */\n      0x00\n        /* \"#utility.yul\":29897:29902   */\n      dup2\n        /* \"#utility.yul\":29892:29895   */\n      0xe0\n        /* \"#utility.yul\":29888:29903   */\n      shr\n        /* \"#utility.yul\":29867:29903   */\n      swap1\n      pop\n        /* \"#utility.yul\":29804:29910   */\n      swap2\n      swap1\n      pop\n      jump\t// out\n        /* \"#utility.yul\":29916:30155   */\n    tag_479:\n        /* \"#utility.yul\":30056:30090   */\n      0x455243313135353a207472616e7366657220746f206e6f6e2045524331313535\n        /* \"#utility.yul\":30052:30053   */\n      0x00\n        /* \"#utility.yul\":30044:30050   */\n      dup3\n        /* \"#utility.yul\":30040:30054   */\n      add\n        /* \"#utility.yul\":30033:30091   */\n      mstore\n        /* \"#utility.yul\":30125:30147   */\n      0x526563656976657220696d706c656d656e746572000000000000000000000000\n        /* \"#utility.yul\":30120:30122   */\n      0x20\n        /* \"#utility.yul\":30112:30118   */\n      dup3\n        /* \"#utility.yul\":30108:30123   */\n      add\n        /* \"#utility.yul\":30101:30148   */\n      mstore\n        /* \"#utility.yul\":29916:30155   */\n      pop\n      jump\t// out\n        /* \"#utility.yul\":30161:30388   */\n    tag_484:\n        /* \"#utility.yul\":30301:30335   */\n      0x455243313135353a204552433131353552656365697665722072656a65637465\n        /* \"#utility.yul\":30297:30298   */\n      0x00\n        /* \"#utility.yul\":30289:30295   */\n      dup3\n        /* \"#utility.yul\":30285:30299   */\n      add\n        /* \"#utility.yul\":30278:30336   */\n      mstore\n        /* \"#utility.yul\":30370:30380   */\n      0x6420746f6b656e73000000000000000000000000000000000000000000000000\n        /* \"#utility.yul\":30365:30367   */\n      0x20\n        /* \"#utility.yul\":30357:30363   */\n      dup3\n        /* \"#utility.yul\":30353:30368   */\n      add\n        /* \"#utility.yul\":30346:30381   */\n      mstore\n        /* \"#utility.yul\":30161:30388   */\n      pop\n      jump\t// out\n        /* \"#utility.yul\":30394:30552   */\n    tag_489:\n        /* \"#utility.yul\":30534:30544   */\n      0x4469616d6f6e645f000000000000000000000000000000000000000000000000\n        /* \"#utility.yul\":30530:30531   */\n      0x00\n        /* \"#utility.yul\":30522:30528   */\n      dup3\n        /* \"#utility.yul\":30518:30532   */\n      add\n        /* \"#utility.yul\":30511:30545   */\n      mstore\n        /* \"#utility.yul\":30394:30552   */\n      pop\n      jump\t// out\n        /* \"#utility.yul\":30558:30713   */\n    tag_494:\n        /* \"#utility.yul\":30698:30705   */\n      0x476f6c645f000000000000000000000000000000000000000000000000000000\n        /* \"#utility.yul\":30694:30695   */\n      0x00\n        /* \"#utility.yul\":30686:30692   */\n      dup3\n        /* \"#utility.yul\":30682:30696   */\n      add\n        /* \"#utility.yul\":30675:30706   */\n      mstore\n        /* \"#utility.yul\":30558:30713   */\n      pop\n      jump\t// out\n        /* \"#utility.yul\":30719:30887   */\n    tag_499:\n        /* \"#utility.yul\":30859:30879   */\n      0x4e6f7420456e6f7567682042616c616e63650000000000000000000000000000\n        /* \"#utility.yul\":30855:30856   */\n      0x00\n        /* \"#utility.yul\":30847:30853   */\n      dup3\n        /* \"#utility.yul\":30843:30857   */\n      add\n        /* \"#utility.yul\":30836:30880   */\n      mstore\n        /* \"#utility.yul\":30719:30887   */\n      pop\n      jump\t// out\n        /* \"#utility.yul\":30893:31070   */\n    tag_504:\n        /* \"#utility.yul\":31033:31062   */\n      0x44726f707369746520697320616c72656164792052756e6e696e670000000000\n        /* \"#utility.yul\":31029:31030   */\n      0x00\n        /* \"#utility.yul\":31021:31027   */\n      dup3\n        /* \"#utility.yul\":31017:31031   */\n      add\n        /* \"#utility.yul\":31010:31063   */\n      mstore\n        /* \"#utility.yul\":30893:31070   */\n      pop\n      jump\t// out\n        /* \"#utility.yul\":31076:31253   */\n    tag_509:\n        /* \"#utility.yul\":31216:31245   */\n      0x44726f707369746520697320616c72656164792053746f707065640000000000\n        /* \"#utility.yul\":31212:31213   */\n      0x00\n        /* \"#utility.yul\":31204:31210   */\n      dup3\n        /* \"#utility.yul\":31200:31214   */\n      add\n        /* \"#utility.yul\":31193:31246   */\n      mstore\n        /* \"#utility.yul\":31076:31253   */\n      pop\n      jump\t// out\n        /* \"#utility.yul\":31259:31430   */\n    tag_514:\n        /* \"#utility.yul\":31399:31422   */\n      0x596f752063616e206d696e7420312d33204e4654730000000000000000000000\n        /* \"#utility.yul\":31395:31396   */\n      0x00\n        /* \"#utility.yul\":31387:31393   */\n      dup3\n        /* \"#utility.yul\":31383:31397   */\n      add\n        /* \"#utility.yul\":31376:31423   */\n      mstore\n        /* \"#utility.yul\":31259:31430   */\n      pop\n      jump\t// out\n        /* \"#utility.yul\":31436:31614   */\n    tag_519:\n        /* \"#utility.yul\":31576:31606   */\n      0x4f6e6c79204e46542d4553204f776e65722063616e2041636365737300000000\n        /* \"#utility.yul\":31572:31573   */\n      0x00\n        /* \"#utility.yul\":31564:31570   */\n      dup3\n        /* \"#utility.yul\":31560:31574   */\n      add\n        /* \"#utility.yul\":31553:31607   */\n      mstore\n        /* \"#utility.yul\":31436:31614   */\n      pop\n      jump\t// out\n        /* \"#utility.yul\":31620:31797   */\n    tag_524:\n        /* \"#utility.yul\":31760:31789   */\n      0x44726f7073697465206973206e6f74204f70656e6564205965742e0000000000\n        /* \"#utility.yul\":31756:31757   */\n      0x00\n        /* \"#utility.yul\":31748:31754   */\n      dup3\n        /* \"#utility.yul\":31744:31758   */\n      add\n        /* \"#utility.yul\":31737:31790   */\n      mstore\n        /* \"#utility.yul\":31620:31797   */\n      pop\n      jump\t// out\n        /* \"#utility.yul\":31803:31978   */\n    tag_529:\n        /* \"#utility.yul\":31943:31970   */\n      0x4d6178204d696e74696e67204c696d6974207265616368656400000000000000\n        /* \"#utility.yul\":31939:31940   */\n      0x00\n        /* \"#utility.yul\":31931:31937   */\n      dup3\n        /* \"#utility.yul\":31927:31941   */\n      add\n        /* \"#utility.yul\":31920:31971   */\n      mstore\n        /* \"#utility.yul\":31803:31978   */\n      pop\n      jump\t// out\n        /* \"#utility.yul\":31984:32141   */\n    tag_534:\n        /* \"#utility.yul\":32124:32133   */\n      0x53696c7665725f00000000000000000000000000000000000000000000000000\n        /* \"#utility.yul\":32120:32121   */\n      0x00\n        /* \"#utility.yul\":32112:32118   */\n      dup3\n        /* \"#utility.yul\":32108:32122   */\n      add\n        /* \"#utility.yul\":32101:32134   */\n      mstore\n        /* \"#utility.yul\":31984:32141   */\n      pop\n      jump\t// out\n        /* \"#utility.yul\":32147:32326   */\n    tag_539:\n        /* \"#utility.yul\":32287:32318   */\n      0x4572726f7221204e6f2042616c616e636520746f207769746864726177000000\n        /* \"#utility.yul\":32283:32284   */\n      0x00\n        /* \"#utility.yul\":32275:32281   */\n      dup3\n        /* \"#utility.yul\":32271:32285   */\n      add\n        /* \"#utility.yul\":32264:32319   */\n      mstore\n        /* \"#utility.yul\":32147:32326   */\n      pop\n      jump\t// out\n        /* \"#utility.yul\":32332:32552   */\n    tag_544:\n        /* \"#utility.yul\":32472:32506   */\n      0x455243313135353a206d696e7420746f20746865207a65726f20616464726573\n        /* \"#utility.yul\":32468:32469   */\n      0x00\n        /* \"#utility.yul\":32460:32466   */\n      dup3\n        /* \"#utility.yul\":32456:32470   */\n      add\n        /* \"#utility.yul\":32449:32507   */\n      mstore\n        /* \"#utility.yul\":32541:32544   */\n      0x7300000000000000000000000000000000000000000000000000000000000000\n        /* \"#utility.yul\":32536:32538   */\n      0x20\n        /* \"#utility.yul\":32528:32534   */\n      dup3\n        /* \"#utility.yul\":32524:32539   */\n      add\n        /* \"#utility.yul\":32517:32545   */\n      mstore\n        /* \"#utility.yul\":32332:32552   */\n      pop\n      jump\t// out\n        /* \"#utility.yul\":32558:33269   */\n    tag_333:\n        /* \"#utility.yul\":32597:32600   */\n      0x00\n        /* \"#utility.yul\":32635:32639   */\n      0x44\n        /* \"#utility.yul\":32617:32633   */\n      returndatasize\n        /* \"#utility.yul\":32614:32640   */\n      lt\n        /* \"#utility.yul\":32611:32650   */\n      iszero\n      tag_724\n      jumpi\n        /* \"#utility.yul\":32643:32648   */\n      jump(tag_723)\n        /* \"#utility.yul\":32611:32650   */\n    tag_724:\n        /* \"#utility.yul\":32672:32692   */\n      tag_725\n      tag_622\n      jump\t// in\n    tag_725:\n        /* \"#utility.yul\":32747:32748   */\n      0x04\n        /* \"#utility.yul\":32729:32745   */\n      returndatasize\n        /* \"#utility.yul\":32725:32749   */\n      sub\n        /* \"#utility.yul\":32722:32723   */\n      0x04\n        /* \"#utility.yul\":32716:32720   */\n      dup3\n        /* \"#utility.yul\":32701:32750   */\n      returndatacopy\n        /* \"#utility.yul\":32780:32784   */\n      dup1\n        /* \"#utility.yul\":32774:32785   */\n      mload\n        /* \"#utility.yul\":32879:32895   */\n      returndatasize\n        /* \"#utility.yul\":32872:32876   */\n      0x24\n        /* \"#utility.yul\":32864:32870   */\n      dup3\n        /* \"#utility.yul\":32860:32877   */\n      add\n        /* \"#utility.yul\":32857:32896   */\n      gt\n        /* \"#utility.yul\":32824:32842   */\n      0xffffffffffffffff\n        /* \"#utility.yul\":32816:32822   */\n      dup3\n        /* \"#utility.yul\":32813:32843   */\n      gt\n        /* \"#utility.yul\":32797:32910   */\n      or\n        /* \"#utility.yul\":32794:32940   */\n      iszero\n      tag_726\n      jumpi\n        /* \"#utility.yul\":32925:32930   */\n      pop\n      pop\n      jump(tag_723)\n        /* \"#utility.yul\":32794:32940   */\n    tag_726:\n        /* \"#utility.yul\":32971:32977   */\n      dup1\n        /* \"#utility.yul\":32965:32969   */\n      dup3\n        /* \"#utility.yul\":32961:32978   */\n      add\n        /* \"#utility.yul\":33007:33010   */\n      dup1\n        /* \"#utility.yul\":33001:33011   */\n      mload\n        /* \"#utility.yul\":33034:33052   */\n      0xffffffffffffffff\n        /* \"#utility.yul\":33026:33032   */\n      dup2\n        /* \"#utility.yul\":33023:33053   */\n      gt\n        /* \"#utility.yul\":33020:33063   */\n      iszero\n      tag_727\n      jumpi\n        /* \"#utility.yul\":33056:33061   */\n      pop\n      pop\n      pop\n      pop\n      jump(tag_723)\n        /* \"#utility.yul\":33020:33063   */\n    tag_727:\n        /* \"#utility.yul\":33104:33110   */\n      dup1\n        /* \"#utility.yul\":33097:33101   */\n      0x20\n        /* \"#utility.yul\":33092:33095   */\n      dup4\n        /* \"#utility.yul\":33088:33102   */\n      add\n        /* \"#utility.yul\":33084:33111   */\n      add\n        /* \"#utility.yul\":33163:33164   */\n      0x04\n        /* \"#utility.yul\":33145:33161   */\n      returndatasize\n        /* \"#utility.yul\":33141:33165   */\n      sub\n        /* \"#utility.yul\":33135:33139   */\n      dup6\n        /* \"#utility.yul\":33131:33166   */\n      add\n        /* \"#utility.yul\":33126:33129   */\n      dup2\n        /* \"#utility.yul\":33123:33167   */\n      gt\n        /* \"#utility.yul\":33120:33177   */\n      iszero\n      tag_728\n      jumpi\n        /* \"#utility.yul\":33170:33175   */\n      pop\n      pop\n      pop\n      pop\n      pop\n      jump(tag_723)\n        /* \"#utility.yul\":33120:33177   */\n    tag_728:\n        /* \"#utility.yul\":33187:33244   */\n      tag_729\n        /* \"#utility.yul\":33235:33241   */\n      dup3\n        /* \"#utility.yul\":33229:33233   */\n      0x20\n        /* \"#utility.yul\":33225:33242   */\n      add\n        /* \"#utility.yul\":33217:33223   */\n      dup6\n        /* \"#utility.yul\":33213:33243   */\n      add\n        /* \"#utility.yul\":33207:33211   */\n      dup7\n        /* \"#utility.yul\":33187:33244   */\n      tag_673\n      jump\t// in\n    tag_729:\n        /* \"#utility.yul\":33260:33263   */\n      dup3\n        /* \"#utility.yul\":33253:33263   */\n      swap6\n      pop\n        /* \"#utility.yul\":32601:33269   */\n      pop\n      pop\n      pop\n      pop\n      pop\n        /* \"#utility.yul\":32558:33269   */\n    tag_723:\n      swap1\n      jump\t// out\n        /* \"#utility.yul\":33275:33397   */\n    tag_365:\n        /* \"#utility.yul\":33348:33372   */\n      tag_731\n        /* \"#utility.yul\":33366:33371   */\n      dup2\n        /* \"#utility.yul\":33348:33372   */\n      tag_415\n      jump\t// in\n    tag_731:\n        /* \"#utility.yul\":33341:33346   */\n      dup2\n        /* \"#utility.yul\":33338:33373   */\n      eq\n        /* \"#utility.yul\":33328:33391   */\n      tag_732\n      jumpi\n        /* \"#utility.yul\":33387:33388   */\n      0x00\n        /* \"#utility.yul\":33384:33385   */\n      dup1\n        /* \"#utility.yul\":33377:33389   */\n      revert\n        /* \"#utility.yul\":33328:33391   */\n    tag_732:\n        /* \"#utility.yul\":33275:33397   */\n      pop\n      jump\t// out\n        /* \"#utility.yul\":33403:33541   */\n    tag_369:\n        /* \"#utility.yul\":33484:33516   */\n      tag_734\n        /* \"#utility.yul\":33510:33515   */\n      dup2\n        /* \"#utility.yul\":33484:33516   */\n      tag_411\n      jump\t// in\n    tag_734:\n        /* \"#utility.yul\":33477:33482   */\n      dup2\n        /* \"#utility.yul\":33474:33517   */\n      eq\n        /* \"#utility.yul\":33464:33535   */\n      tag_735\n      jumpi\n        /* \"#utility.yul\":33531:33532   */\n      0x00\n        /* \"#utility.yul\":33528:33529   */\n      dup1\n        /* \"#utility.yul\":33521:33533   */\n      revert\n        /* \"#utility.yul\":33464:33535   */\n    tag_735:\n        /* \"#utility.yul\":33403:33541   */\n      pop\n      jump\t// out\n        /* \"#utility.yul\":33547:33667   */\n    tag_373:\n        /* \"#utility.yul\":33619:33642   */\n      tag_737\n        /* \"#utility.yul\":33636:33641   */\n      dup2\n        /* \"#utility.yul\":33619:33642   */\n      tag_659\n      jump\t// in\n    tag_737:\n        /* \"#utility.yul\":33612:33617   */\n      dup2\n        /* \"#utility.yul\":33609:33643   */\n      eq\n        /* \"#utility.yul\":33599:33661   */\n      tag_738\n      jumpi\n        /* \"#utility.yul\":33657:33658   */\n      0x00\n        /* \"#utility.yul\":33654:33655   */\n      dup1\n        /* \"#utility.yul\":33647:33659   */\n      revert\n        /* \"#utility.yul\":33599:33661   */\n    tag_738:\n        /* \"#utility.yul\":33547:33667   */\n      pop\n      jump\t// out\n        /* \"#utility.yul\":33673:33795   */\n    tag_377:\n        /* \"#utility.yul\":33746:33770   */\n      tag_740\n        /* \"#utility.yul\":33764:33769   */\n      dup2\n        /* \"#utility.yul\":33746:33770   */\n      tag_547\n      jump\t// in\n    tag_740:\n        /* \"#utility.yul\":33739:33744   */\n      dup2\n        /* \"#utility.yul\":33736:33771   */\n      eq\n        /* \"#utility.yul\":33726:33789   */\n      tag_741\n      jumpi\n        /* \"#utility.yul\":33785:33786   */\n      0x00\n        /* \"#utility.yul\":33782:33783   */\n      dup1\n        /* \"#utility.yul\":33775:33787   */\n      revert\n        /* \"#utility.yul\":33726:33789   */\n    tag_741:\n        /* \"#utility.yul\":33673:33795   */\n      pop\n      jump\t// out\n\n    auxdata: 0xa264697066735822122064baa639690ae1d377b455c436083c3120cba09d8680e4bed46bac95241f1ada64736f6c63430008070033\n}\n",
				"bytecode": {
					"linkReferences": {},
					"object": "608060405260405180602001604052806000815250600290805190602001906200002b929190620001e8565b50604051806102800160405280600060ff168152602001600160ff168152602001600160ff168152602001600260ff168152602001600260ff168152602001600260ff168152602001600260ff168152602001600260ff168152602001600260ff168152602001600260ff168152602001600260ff168152602001600260ff168152602001600260ff168152602001600260ff168152602001600260ff168152602001600260ff168152602001600260ff168152602001600260ff168152602001600260ff168152602001600260ff1681525060039060146200011092919062000279565b506001600c60006101000a81548160ff0219169083151502179055503480156200013957600080fd5b50604051620032853803806200328583398181016040528101906200015f9190620003b7565b80600d908051906020019062000177929190620001e8565b5033600c60016101000a81548173ffffffffffffffffffffffffffffffffffffffff021916908373ffffffffffffffffffffffffffffffffffffffff16021790555060006004819055506001600581905550600060078190555060006008819055506000600981905550506200058c565b828054620001f6906200049d565b90600052602060002090601f0160209004810192826200021a576000855562000266565b82601f106200023557805160ff191683800117855562000266565b8280016001018555821562000266579182015b828111156200026557825182559160200191906001019062000248565b5b5090506200027591906200031a565b5090565b826014601f01602090048101928215620003075791602002820160005b83821115620002d657835183826101000a81548160ff021916908360ff160217905550926020019260010160208160000104928301926001030262000296565b8015620003055782816101000a81549060ff0219169055600101602081600001049283019260010302620002d6565b505b5090506200031691906200031a565b5090565b5b80821115620003355760008160009055506001016200031b565b5090565b6000620003506200034a8462000431565b62000408565b9050828152602081018484840111156200036f576200036e6200056c565b5b6200037c84828562000467565b509392505050565b600082601f8301126200039c576200039b62000567565b5b8151620003ae84826020860162000339565b91505092915050565b600060208284031215620003d057620003cf62000576565b5b600082015167ffffffffffffffff811115620003f157620003f062000571565b5b620003ff8482850162000384565b91505092915050565b60006200041462000427565b9050620004228282620004d3565b919050565b6000604051905090565b600067ffffffffffffffff8211156200044f576200044e62000538565b5b6200045a826200057b565b9050602081019050919050565b60005b83811015620004875780820151818401526020810190506200046a565b8381111562000497576000848401525b50505050565b60006002820490506001821680620004b657607f821691505b60208210811415620004cd57620004cc62000509565b5b50919050565b620004de826200057b565b810181811067ffffffffffffffff821117156200050057620004ff62000538565b5b80604052505050565b7f4e487b7100000000000000000000000000000000000000000000000000000000600052602260045260246000fd5b7f4e487b7100000000000000000000000000000000000000000000000000000000600052604160045260246000fd5b600080fd5b600080fd5b600080fd5b600080fd5b6000601f19601f8301169050919050565b612ce9806200059c6000396000f3fe6080604052600436106100dd5760003560e01c8063546fd9921161007f578063aa90c72611610059578063aa90c7261461029b578063b4a99a4e146102b2578063eddd0d9c146102dd578063fd6c3b1b14610306576100dd565b8063546fd9921461020557806360daa851146102435780637a5caab314610270576100dd565b806315460259116100bb578063154602591461015457806327a8a0721461016b5780633b668059146101a95780633d65df70146101d4576100dd565b80630390c11c146100e25780630a67d2c71461010d5780631309a56314610129575b600080fd5b3480156100ee57600080fd5b506100f7610343565b60405161010491906123f6565b60405180910390f35b61012760048036038101906101229190611bf6565b6103e4565b005b34801561013557600080fd5b5061013e61050e565b60405161014b9190612259565b60405180910390f35b34801561016057600080fd5b50610169610521565b005b34801561017757600080fd5b50610192600480360381019061018d9190611c23565b61062b565b6040516101a09291906121eb565b60405180910390f35b3480156101b557600080fd5b506101be6107df565b6040516101cb91906123f6565b60405180910390f35b6101ee60048036038101906101e99190611bc9565b61087e565b6040516101fc929190612222565b60405180910390f35b34801561021157600080fd5b5061022c60048036038101906102279190611bc9565b610977565b60405161023a929190612411565b60405180910390f35b34801561024f57600080fd5b50610258610c26565b6040516102679392919061246a565b60405180910390f35b34801561027c57600080fd5b50610285610d2c565b60405161029291906123f6565b60405180910390f35b3480156102a757600080fd5b506102b0610e23565b005b3480156102be57600080fd5b506102c7610f2d565b6040516102d49190612154565b60405180910390f35b3480156102e957600080fd5b5061030460048036038101906102ff9190611c90565b610f53565b005b34801561031257600080fd5b5061032d60048036038101906103289190611bc9565b61104a565b60405161033a91906121c9565b60405180910390f35b6000600c60019054906101000a900473ffffffffffffffffffffffffffffffffffffffff1673ffffffffffffffffffffffffffffffffffffffff1661038661113a565b73ffffffffffffffffffffffffffffffffffffffff16146103dc576040517f08c379a00000000000000000000000000000000000000000000000000000000081526004016103d390612356565b60405180910390fd5b600454905090565b600c60019054906101000a900473ffffffffffffffffffffffffffffffffffffffff1673ffffffffffffffffffffffffffffffffffffffff1661042561113a565b73ffffffffffffffffffffffffffffffffffffffff161461047b576040517f08c379a000000000000000000000000000000000000000000000000000000000815260040161047290612356565b60405180910390fd5b6000479050600081116104c3576040517f08c379a00000000000000000000000000000000000000000000000000000000081526004016104ba906123b6565b60405180910390fd5b8173ffffffffffffffffffffffffffffffffffffffff166108fc829081150290604051600060405180830381858888f19350505050158015610509573d6000803e3d6000fd5b505050565b600c60009054906101000a900460ff1681565b600c60019054906101000a900473ffffffffffffffffffffffffffffffffffffffff1673ffffffffffffffffffffffffffffffffffffffff1661056261113a565b73ffffffffffffffffffffffffffffffffffffffff16146105b8576040517f08c379a00000000000000000000000000000000000000000000000000000000081526004016105af90612356565b60405180910390fd5b60011515600c60009054906101000a900460ff1615151461060e576040517f08c379a0000000000000000000000000000000000000000000000000000000008152600401610605906122f6565b60405180910390fd5b6000600c60006101000a81548160ff021916908315150217905550565b606080600c60019054906101000a900473ffffffffffffffffffffffffffffffffffffffff1673ffffffffffffffffffffffffffffffffffffffff1661066f61113a565b73ffffffffffffffffffffffffffffffffffffffff16146106c5576040517f08c379a00000000000000000000000000000000000000000000000000000000081526004016106bc90612356565b60405180910390fd5b60001515600c60009054906101000a900460ff1615151461071b576040517f08c379a000000000000000000000000000000000000000000000000000000000815260040161071290612376565b60405180910390fd5b60048310801561072b5750600083115b61076a576040517f08c379a000000000000000000000000000000000000000000000000000000000815260040161076190612336565b60405180910390fd5b60608060005b858110156107cf5761078187610977565b84838151811061079457610793612861565b5b602002602001018484815181106107ae576107ad612861565b5b60200260200101829052828152505050806107c89061272c565b9050610770565b5081819350935050509250929050565b6000600c60019054906101000a900473ffffffffffffffffffffffffffffffffffffffff1673ffffffffffffffffffffffffffffffffffffffff1661082261113a565b73ffffffffffffffffffffffffffffffffffffffff1614610878576040517f08c379a000000000000000000000000000000000000000000000000000000000815260040161086f90612356565b60405180910390fd5b47905090565b60608060001515600c60009054906101000a900460ff161515146108d7576040517f08c379a00000000000000000000000000000000000000000000000000000000081526004016108ce90612376565b60405180910390fd5b6103e86004541061091d576040517f08c379a000000000000000000000000000000000000000000000000000000000815260040161091490612396565b60405180910390fd5b6006543414610961576040517f08c379a0000000000000000000000000000000000000000000000000000000008152600401610958906122d6565b60405180910390fd5b61097261096c61113a565b34611142565b915091565b60006060600c60019054906101000a900473ffffffffffffffffffffffffffffffffffffffff1673ffffffffffffffffffffffffffffffffffffffff166109bc61113a565b73ffffffffffffffffffffffffffffffffffffffff1614610a12576040517f08c379a0000000000000000000000000000000000000000000000000000000008152600401610a0990612356565b60405180910390fd5b60001515600c60009054906101000a900460ff16151514610a68576040517f08c379a0000000000000000000000000000000000000000000000000000000008152600401610a5f90612376565b60405180910390fd5b6000610a7261119c565b9050610b0c848260055460028054610a89906126c9565b80601f0160208091040260200160405190810160405280929190818152602001828054610ab5906126c9565b8015610b025780601f10610ad757610100808354040283529160200191610b02565b820191906000526020600020905b815481529060010190602001808311610ae557829003601f168201915b505050505061148e565b60046000815480929190610b1f9061272c565b9190505550600a60008573ffffffffffffffffffffffffffffffffffffffff1673ffffffffffffffffffffffffffffffffffffffff168152602001908152602001600020600001819080600181540180825580915050600190039060005260206000200160009091909190915055806002808054610b9c906126c9565b80601f0160208091040260200160405190810160405280929190818152602001828054610bc8906126c9565b8015610c155780601f10610bea57610100808354040283529160200191610c15565b820191906000526020600020905b815481529060010190602001808311610bf857829003601f168201915b505050505090509250925050915091565b6000806000600c60019054906101000a900473ffffffffffffffffffffffffffffffffffffffff1673ffffffffffffffffffffffffffffffffffffffff16610c6c61113a565b73ffffffffffffffffffffffffffffffffffffffff1614610cc2576040517f08c379a0000000000000000000000000000000000000000000000000000000008152600401610cb990612356565b60405180910390fd5b60001515600c60009054906101000a900460ff16151514610d18576040517f08c379a0000000000000000000000000000000000000000000000000000000008152600401610d0f90612376565b60405180910390fd5b600754600854600954925092509250909192565b6000600c60019054906101000a900473ffffffffffffffffffffffffffffffffffffffff1673ffffffffffffffffffffffffffffffffffffffff16610d6f61113a565b73ffffffffffffffffffffffffffffffffffffffff1614610dc5576040517f08c379a0000000000000000000000000000000000000000000000000000000008152600401610dbc90612356565b60405180910390fd5b60001515600c60009054906101000a900460ff16151514610e1b576040517f08c379a0000000000000000000000000000000000000000000000000000000008152600401610e1290612376565b60405180910390fd5b600654905090565b600c60019054906101000a900473ffffffffffffffffffffffffffffffffffffffff1673ffffffffffffffffffffffffffffffffffffffff16610e6461113a565b73ffffffffffffffffffffffffffffffffffffffff1614610eba576040517f08c379a0000000000000000000000000000000000000000000000000000000008152600401610eb190612356565b60405180910390fd5b60001515600c60009054906101000a900460ff16151514610f10576040517f08c379a0000000000000000000000000000000000000000000000000000000008152600401610f0790612316565b60405180910390fd5b6001600c60006101000a81548160ff021916908315150217905550565b600c60019054906101000a900473ffffffffffffffffffffffffffffffffffffffff1681565b600c60019054906101000a900473ffffffffffffffffffffffffffffffffffffffff1673ffffffffffffffffffffffffffffffffffffffff16610f9461113a565b73ffffffffffffffffffffffffffffffffffffffff1614610fea576040517f08c379a0000000000000000000000000000000000000000000000000000000008152600401610fe190612356565b60405180910390fd5b60001515600c60009054906101000a900460ff16151514611040576040517f08c379a000000000000000000000000000000000000000000000000000000000815260040161103790612376565b60405180910390fd5b8060068190555050565b606060001515600c60009054906101000a900460ff161515146110a2576040517f08c379a000000000000000000000000000000000000000000000000000000000815260040161109990612376565b60405180910390fd5b600a60008373ffffffffffffffffffffffffffffffffffffffff1673ffffffffffffffffffffffffffffffffffffffff16815260200190815260200160002060000180548060200260200160405190810160405280929190818152602001828054801561112e57602002820191906000526020600020905b81548152602001906001019080831161111a575b50505050509050919050565b600033905090565b80600b60008473ffffffffffffffffffffffffffffffffffffffff1673ffffffffffffffffffffffffffffffffffffffff16815260200190815260200160002060008282546111919190612555565b925050819055505050565b6000801515600c60009054906101000a900460ff161515146111f3576040517f08c379a00000000000000000000000000000000000000000000000000000000081526004016111ea90612376565b60405180910390fd5b60006111fd611624565b905060006003826014811061121557611214612861565b5b602091828204019190069054906101000a900460ff1660ff16905060008114801561124257506032600754105b156112a9576007600081548092919061125a9061272c565b919050555061126a600754611668565b60405160200161127a91906120c2565b6040516020818303038152906040526002908051906020019061129e929190611a45565b50809250505061148b565b600181111580156112bc57506064600854105b1561132357600860008154809291906112d49061272c565b91905055506112e4600854611668565b6040516020016112f491906120e4565b60405160208183030381529060405260029080519060200190611318929190611a45565b50809250505061148b565b60028111158015611338575061035260095411155b156113b857600960008154809291906113509061272c565b9190505550611360600954611668565b6040516020016113709190612106565b60405160208183030381529060405260029080519060200190611394929190611a45565b60029080546113a2906126c9565b6113ad929190611acb565b50809250505061148b565b606460085410156114295760019050600860008154809291906113da9061272c565b91905055506113ea600854611668565b6040516020016113fa91906120e4565b6040516020818303038152906040526002908051906020019061141e929190611a45565b50809250505061148b565b60009050600760008154809291906114409061272c565b9190505550611450600754611668565b60405160200161146091906120c2565b60405160208183030381529060405260029080519060200190611484929190611a45565b5080925050505b90565b600073ffffffffffffffffffffffffffffffffffffffff168473ffffffffffffffffffffffffffffffffffffffff1614156114fe576040517f08c379a00000000000000000000000000000000000000000000000000000000081526004016114f5906123d6565b60405180910390fd5b600061150861113a565b90506115298160008761151a886117c9565b611523886117c9565b87611843565b8260008086815260200190815260200160002060008773ffffffffffffffffffffffffffffffffffffffff1673ffffffffffffffffffffffffffffffffffffffff16815260200190815260200160002060008282546115889190612555565b925050819055508473ffffffffffffffffffffffffffffffffffffffff16600073ffffffffffffffffffffffffffffffffffffffff168273ffffffffffffffffffffffffffffffffffffffff167fc3d58168c5ae7397731d063d5bbf3d657854427343f4c083240f7aacaa2d0f628787604051611606929190612441565b60405180910390a461161d8160008787878761184b565b5050505050565b6000806014423360405160200161163c929190612128565b6040516020818303038152906040528051906020012060001c61165f91906127a3565b90508091505090565b606060008214156116b0576040518060400160405280600181526020017f300000000000000000000000000000000000000000000000000000000000000081525090506117c4565b600082905060005b600082146116e25780806116cb9061272c565b915050600a826116db91906125ab565b91506116b8565b60008167ffffffffffffffff8111156116fe576116fd612890565b5b6040519080825280601f01601f1916602001820160405280156117305781602001600182028036833780820191505090505b5090505b600085146117bd5760018261174991906125dc565b9150600a8561175891906127a3565b60306117649190612555565b60f81b81838151811061177a57611779612861565b5b60200101907effffffffffffffffffffffffffffffffffffffffffffffffffffffffffffff1916908160001a905350600a856117b691906125ab565b9450611734565b8093505050505b919050565b60606000600167ffffffffffffffff8111156117e8576117e7612890565b5b6040519080825280602002602001820160405280156118165781602001602082028036833780820191505090505b509050828160008151811061182e5761182d612861565b5b60200260200101818152505080915050919050565b505050505050565b61186a8473ffffffffffffffffffffffffffffffffffffffff16611a32565b15611a2a578373ffffffffffffffffffffffffffffffffffffffff1663ae89a24887878686866040518663ffffffff1660e01b81526004016118b095949392919061216f565b602060405180830381600087803b1580156118ca57600080fd5b505af19250505080156118fb57506040513d601f19601f820116820180604052508101906118f89190611c63565b60015b6119a1576119076128bf565b806308c379a01415611964575061191c612bc1565b806119275750611966565b806040517f08c379a000000000000000000000000000000000000000000000000000000000815260040161195b9190612274565b60405180910390fd5b505b6040517f08c379a000000000000000000000000000000000000000000000000000000000815260040161199890612296565b60405180910390fd5b63ae89a24860e01b7bffffffffffffffffffffffffffffffffffffffffffffffffffffffff1916817bffffffffffffffffffffffffffffffffffffffffffffffffffffffff191614611a28576040517f08c379a0000000000000000000000000000000000000000000000000000000008152600401611a1f906122b6565b60405180910390fd5b505b505050505050565b600080823b905060008111915050919050565b828054611a51906126c9565b90600052602060002090601f016020900481019282611a735760008555611aba565b82601f10611a8c57805160ff1916838001178555611aba565b82800160010185558215611aba579182015b82811115611ab9578251825591602001919060010190611a9e565b5b509050611ac79190611b58565b5090565b828054611ad7906126c9565b90600052602060002090601f016020900481019282611af95760008555611b47565b82601f10611b0a5780548555611b47565b82800160010185558215611b4757600052602060002091601f016020900482015b82811115611b46578254825591600101919060010190611b2b565b5b509050611b549190611b58565b5090565b5b80821115611b71576000816000905550600101611b59565b5090565b600081359050611b8481612c57565b92915050565b600081359050611b9981612c6e565b92915050565b600081519050611bae81612c85565b92915050565b600081359050611bc381612c9c565b92915050565b600060208284031215611bdf57611bde6128e1565b5b6000611bed84828501611b75565b91505092915050565b600060208284031215611c0c57611c0b6128e1565b5b6000611c1a84828501611b8a565b91505092915050565b60008060408385031215611c3a57611c396128e1565b5b6000611c4885828601611b75565b9250506020611c5985828601611bb4565b9150509250929050565b600060208284031215611c7957611c786128e1565b5b6000611c8784828501611b9f565b91505092915050565b600060208284031215611ca657611ca56128e1565b5b6000611cb484828501611bb4565b91505092915050565b6000611cc98383611e00565b905092915050565b6000611cdd838361208d565b60208301905092915050565b611cf281612622565b82525050565b611d0181612610565b82525050565b611d18611d1382612610565b612775565b82525050565b6000611d29826124cb565b611d338185612506565b935083602082028501611d45856124ab565b8060005b85811015611d815784840389528151611d628582611cbd565b9450611d6d836124ec565b925060208a01995050600181019050611d49565b50829750879550505050505092915050565b6000611d9e826124d6565b611da88185612517565b9350611db3836124bb565b8060005b83811015611de4578151611dcb8882611cd1565b9750611dd6836124f9565b925050600181019050611db7565b5085935050505092915050565b611dfa81612634565b82525050565b6000611e0b826124e1565b611e158185612528565b9350611e25818560208601612696565b611e2e816128e6565b840191505092915050565b6000611e44826124e1565b611e4e8185612539565b9350611e5e818560208601612696565b611e67816128e6565b840191505092915050565b6000611e7d826124e1565b611e87818561254a565b9350611e97818560208601612696565b80840191505092915050565b6000611eb0603483612539565b9150611ebb82612911565b604082019050919050565b6000611ed3602883612539565b9150611ede82612960565b604082019050919050565b6000611ef660088361254a565b9150611f01826129af565b600882019050919050565b6000611f1960058361254a565b9150611f24826129d8565b600582019050919050565b6000611f3c601283612539565b9150611f4782612a01565b602082019050919050565b6000611f5f601b83612539565b9150611f6a82612a2a565b602082019050919050565b6000611f82601b83612539565b9150611f8d82612a53565b602082019050919050565b6000611fa5601583612539565b9150611fb082612a7c565b602082019050919050565b6000611fc8601c83612539565b9150611fd382612aa5565b602082019050919050565b6000611feb601b83612539565b9150611ff682612ace565b602082019050919050565b600061200e601983612539565b915061201982612af7565b602082019050919050565b600061203160078361254a565b915061203c82612b20565b600782019050919050565b6000612054601d83612539565b915061205f82612b49565b602082019050919050565b6000612077602183612539565b915061208282612b72565b604082019050919050565b6120968161268c565b82525050565b6120a58161268c565b82525050565b6120bc6120b78261268c565b612799565b82525050565b60006120cd82611ee9565b91506120d98284611e72565b915081905092915050565b60006120ef82611f0c565b91506120fb8284611e72565b915081905092915050565b600061211182612024565b915061211d8284611e72565b915081905092915050565b600061213482856120ab565b6020820191506121448284611d07565b6014820191508190509392505050565b60006020820190506121696000830184611ce9565b92915050565b600060a0820190506121846000830188611cf8565b6121916020830187611cf8565b61219e604083018661209c565b6121ab606083018561209c565b81810360808301526121bd8184611e39565b90509695505050505050565b600060208201905081810360008301526121e38184611d93565b905092915050565b600060408201905081810360008301526122058185611d93565b905081810360208301526122198184611d1e565b90509392505050565b6000604082019050818103600083015261223c8185611d93565b905081810360208301526122508184611e39565b90509392505050565b600060208201905061226e6000830184611df1565b92915050565b6000602082019050818103600083015261228e8184611e39565b905092915050565b600060208201905081810360008301526122af81611ea3565b9050919050565b600060208201905081810360008301526122cf81611ec6565b9050919050565b600060208201905081810360008301526122ef81611f2f565b9050919050565b6000602082019050818103600083015261230f81611f52565b9050919050565b6000602082019050818103600083015261232f81611f75565b9050919050565b6000602082019050818103600083015261234f81611f98565b9050919050565b6000602082019050818103600083015261236f81611fbb565b9050919050565b6000602082019050818103600083015261238f81611fde565b9050919050565b600060208201905081810360008301526123af81612001565b9050919050565b600060208201905081810360008301526123cf81612047565b9050919050565b600060208201905081810360008301526123ef8161206a565b9050919050565b600060208201905061240b600083018461209c565b92915050565b6000604082019050612426600083018561209c565b81810360208301526124388184611e39565b90509392505050565b6000604082019050612456600083018561209c565b612463602083018461209c565b9392505050565b600060608201905061247f600083018661209c565b61248c602083018561209c565b612499604083018461209c565b949350505050565b6000604051905090565b6000819050602082019050919050565b6000819050602082019050919050565b600081519050919050565b600081519050919050565b600081519050919050565b6000602082019050919050565b6000602082019050919050565b600082825260208201905092915050565b600082825260208201905092915050565b600082825260208201905092915050565b600082825260208201905092915050565b600081905092915050565b60006125608261268c565b915061256b8361268c565b9250827fffffffffffffffffffffffffffffffffffffffffffffffffffffffffffffffff038211156125a05761259f6127d4565b5b828201905092915050565b60006125b68261268c565b91506125c18361268c565b9250826125d1576125d0612803565b5b828204905092915050565b60006125e78261268c565b91506125f28361268c565b925082821015612605576126046127d4565b5b828203905092915050565b600061261b8261266c565b9050919050565b600061262d8261266c565b9050919050565b60008115159050919050565b60007fffffffff0000000000000000000000000000000000000000000000000000000082169050919050565b600073ffffffffffffffffffffffffffffffffffffffff82169050919050565b6000819050919050565b60005b838110156126b4578082015181840152602081019050612699565b838111156126c3576000848401525b50505050565b600060028204905060018216806126e157607f821691505b602082108114156126f5576126f4612832565b5b50919050565b612704826128e6565b810181811067ffffffffffffffff8211171561272357612722612890565b5b80604052505050565b60006127378261268c565b91507fffffffffffffffffffffffffffffffffffffffffffffffffffffffffffffffff82141561276a576127696127d4565b5b600182019050919050565b600061278082612787565b9050919050565b6000612792826128f7565b9050919050565b6000819050919050565b60006127ae8261268c565b91506127b98361268c565b9250826127c9576127c8612803565b5b828206905092915050565b7f4e487b7100000000000000000000000000000000000000000000000000000000600052601160045260246000fd5b7f4e487b7100000000000000000000000000000000000000000000000000000000600052601260045260246000fd5b7f4e487b7100000000000000000000000000000000000000000000000000000000600052602260045260246000fd5b7f4e487b7100000000000000000000000000000000000000000000000000000000600052603260045260246000fd5b7f4e487b7100000000000000000000000000000000000000000000000000000000600052604160045260246000fd5b600060033d11156128de5760046000803e6128db600051612904565b90505b90565b600080fd5b6000601f19601f8301169050919050565b60008160601b9050919050565b60008160e01c9050919050565b7f455243313135353a207472616e7366657220746f206e6f6e204552433131353560008201527f526563656976657220696d706c656d656e746572000000000000000000000000602082015250565b7f455243313135353a204552433131353552656365697665722072656a6563746560008201527f6420746f6b656e73000000000000000000000000000000000000000000000000602082015250565b7f4469616d6f6e645f000000000000000000000000000000000000000000000000600082015250565b7f476f6c645f000000000000000000000000000000000000000000000000000000600082015250565b7f4e6f7420456e6f7567682042616c616e63650000000000000000000000000000600082015250565b7f44726f707369746520697320616c72656164792052756e6e696e670000000000600082015250565b7f44726f707369746520697320616c72656164792053746f707065640000000000600082015250565b7f596f752063616e206d696e7420312d33204e4654730000000000000000000000600082015250565b7f4f6e6c79204e46542d4553204f776e65722063616e2041636365737300000000600082015250565b7f44726f7073697465206973206e6f74204f70656e6564205965742e0000000000600082015250565b7f4d6178204d696e74696e67204c696d6974207265616368656400000000000000600082015250565b7f53696c7665725f00000000000000000000000000000000000000000000000000600082015250565b7f4572726f7221204e6f2042616c616e636520746f207769746864726177000000600082015250565b7f455243313135353a206d696e7420746f20746865207a65726f2061646472657360008201527f7300000000000000000000000000000000000000000000000000000000000000602082015250565b600060443d1015612bd157612c54565b612bd96124a1565b60043d036004823e80513d602482011167ffffffffffffffff82111715612c01575050612c54565b808201805167ffffffffffffffff811115612c1f5750505050612c54565b80602083010160043d038501811115612c3c575050505050612c54565b612c4b826020018501866126fb565b82955050505050505b90565b612c6081612610565b8114612c6b57600080fd5b50565b612c7781612622565b8114612c8257600080fd5b50565b612c8e81612640565b8114612c9957600080fd5b50565b612ca58161268c565b8114612cb057600080fd5b5056fea264697066735822122064baa639690ae1d377b455c436083c3120cba09d8680e4bed46bac95241f1ada64736f6c63430008070033",
					"opcodes": "PUSH1 0x80 PUSH1 0x40 MSTORE PUSH1 0x40 MLOAD DUP1 PUSH1 0x20 ADD PUSH1 0x40 MSTORE DUP1 PUSH1 0x0 DUP2 MSTORE POP PUSH1 0x2 SWAP1 DUP1 MLOAD SWAP1 PUSH1 0x20 ADD SWAP1 PUSH3 0x2B SWAP3 SWAP2 SWAP1 PUSH3 0x1E8 JUMP JUMPDEST POP PUSH1 0x40 MLOAD DUP1 PUSH2 0x280 ADD PUSH1 0x40 MSTORE DUP1 PUSH1 0x0 PUSH1 0xFF AND DUP2 MSTORE PUSH1 0x20 ADD PUSH1 0x1 PUSH1 0xFF AND DUP2 MSTORE PUSH1 0x20 ADD PUSH1 0x1 PUSH1 0xFF AND DUP2 MSTORE PUSH1 0x20 ADD PUSH1 0x2 PUSH1 0xFF AND DUP2 MSTORE PUSH1 0x20 ADD PUSH1 0x2 PUSH1 0xFF AND DUP2 MSTORE PUSH1 0x20 ADD PUSH1 0x2 PUSH1 0xFF AND DUP2 MSTORE PUSH1 0x20 ADD PUSH1 0x2 PUSH1 0xFF AND DUP2 MSTORE PUSH1 0x20 ADD PUSH1 0x2 PUSH1 0xFF AND DUP2 MSTORE PUSH1 0x20 ADD PUSH1 0x2 PUSH1 0xFF AND DUP2 MSTORE PUSH1 0x20 ADD PUSH1 0x2 PUSH1 0xFF AND DUP2 MSTORE PUSH1 0x20 ADD PUSH1 0x2 PUSH1 0xFF AND DUP2 MSTORE PUSH1 0x20 ADD PUSH1 0x2 PUSH1 0xFF AND DUP2 MSTORE PUSH1 0x20 ADD PUSH1 0x2 PUSH1 0xFF AND DUP2 MSTORE PUSH1 0x20 ADD PUSH1 0x2 PUSH1 0xFF AND DUP2 MSTORE PUSH1 0x20 ADD PUSH1 0x2 PUSH1 0xFF AND DUP2 MSTORE PUSH1 0x20 ADD PUSH1 0x2 PUSH1 0xFF AND DUP2 MSTORE PUSH1 0x20 ADD PUSH1 0x2 PUSH1 0xFF AND DUP2 MSTORE PUSH1 0x20 ADD PUSH1 0x2 PUSH1 0xFF AND DUP2 MSTORE PUSH1 0x20 ADD PUSH1 0x2 PUSH1 0xFF AND DUP2 MSTORE PUSH1 0x20 ADD PUSH1 0x2 PUSH1 0xFF AND DUP2 MSTORE POP PUSH1 0x3 SWAP1 PUSH1 0x14 PUSH3 0x110 SWAP3 SWAP2 SWAP1 PUSH3 0x279 JUMP JUMPDEST POP PUSH1 0x1 PUSH1 0xC PUSH1 0x0 PUSH2 0x100 EXP DUP2 SLOAD DUP2 PUSH1 0xFF MUL NOT AND SWAP1 DUP4 ISZERO ISZERO MUL OR SWAP1 SSTORE POP CALLVALUE DUP1 ISZERO PUSH3 0x139 JUMPI PUSH1 0x0 DUP1 REVERT JUMPDEST POP PUSH1 0x40 MLOAD PUSH3 0x3285 CODESIZE SUB DUP1 PUSH3 0x3285 DUP4 CODECOPY DUP2 DUP2 ADD PUSH1 0x40 MSTORE DUP2 ADD SWAP1 PUSH3 0x15F SWAP2 SWAP1 PUSH3 0x3B7 JUMP JUMPDEST DUP1 PUSH1 0xD SWAP1 DUP1 MLOAD SWAP1 PUSH1 0x20 ADD SWAP1 PUSH3 0x177 SWAP3 SWAP2 SWAP1 PUSH3 0x1E8 JUMP JUMPDEST POP CALLER PUSH1 0xC PUSH1 0x1 PUSH2 0x100 EXP DUP2 SLOAD DUP2 PUSH20 0xFFFFFFFFFFFFFFFFFFFFFFFFFFFFFFFFFFFFFFFF MUL NOT AND SWAP1 DUP4 PUSH20 0xFFFFFFFFFFFFFFFFFFFFFFFFFFFFFFFFFFFFFFFF AND MUL OR SWAP1 SSTORE POP PUSH1 0x0 PUSH1 0x4 DUP2 SWAP1 SSTORE POP PUSH1 0x1 PUSH1 0x5 DUP2 SWAP1 SSTORE POP PUSH1 0x0 PUSH1 0x7 DUP2 SWAP1 SSTORE POP PUSH1 0x0 PUSH1 0x8 DUP2 SWAP1 SSTORE POP PUSH1 0x0 PUSH1 0x9 DUP2 SWAP1 SSTORE POP POP PUSH3 0x58C JUMP JUMPDEST DUP3 DUP1 SLOAD PUSH3 0x1F6 SWAP1 PUSH3 0x49D JUMP JUMPDEST SWAP1 PUSH1 0x0 MSTORE PUSH1 0x20 PUSH1 0x0 KECCAK256 SWAP1 PUSH1 0x1F ADD PUSH1 0x20 SWAP1 DIV DUP2 ADD SWAP3 DUP3 PUSH3 0x21A JUMPI PUSH1 0x0 DUP6 SSTORE PUSH3 0x266 JUMP JUMPDEST DUP3 PUSH1 0x1F LT PUSH3 0x235 JUMPI DUP1 MLOAD PUSH1 0xFF NOT AND DUP4 DUP1 ADD OR DUP6 SSTORE PUSH3 0x266 JUMP JUMPDEST DUP3 DUP1 ADD PUSH1 0x1 ADD DUP6 SSTORE DUP3 ISZERO PUSH3 0x266 JUMPI SWAP2 DUP3 ADD JUMPDEST DUP3 DUP2 GT ISZERO PUSH3 0x265 JUMPI DUP3 MLOAD DUP3 SSTORE SWAP2 PUSH1 0x20 ADD SWAP2 SWAP1 PUSH1 0x1 ADD SWAP1 PUSH3 0x248 JUMP JUMPDEST JUMPDEST POP SWAP1 POP PUSH3 0x275 SWAP2 SWAP1 PUSH3 0x31A JUMP JUMPDEST POP SWAP1 JUMP JUMPDEST DUP3 PUSH1 0x14 PUSH1 0x1F ADD PUSH1 0x20 SWAP1 DIV DUP2 ADD SWAP3 DUP3 ISZERO PUSH3 0x307 JUMPI SWAP2 PUSH1 0x20 MUL DUP3 ADD PUSH1 0x0 JUMPDEST DUP4 DUP3 GT ISZERO PUSH3 0x2D6 JUMPI DUP4 MLOAD DUP4 DUP3 PUSH2 0x100 EXP DUP2 SLOAD DUP2 PUSH1 0xFF MUL NOT AND SWAP1 DUP4 PUSH1 0xFF AND MUL OR SWAP1 SSTORE POP SWAP3 PUSH1 0x20 ADD SWAP3 PUSH1 0x1 ADD PUSH1 0x20 DUP2 PUSH1 0x0 ADD DIV SWAP3 DUP4 ADD SWAP3 PUSH1 0x1 SUB MUL PUSH3 0x296 JUMP JUMPDEST DUP1 ISZERO PUSH3 0x305 JUMPI DUP3 DUP2 PUSH2 0x100 EXP DUP2 SLOAD SWAP1 PUSH1 0xFF MUL NOT AND SWAP1 SSTORE PUSH1 0x1 ADD PUSH1 0x20 DUP2 PUSH1 0x0 ADD DIV SWAP3 DUP4 ADD SWAP3 PUSH1 0x1 SUB MUL PUSH3 0x2D6 JUMP JUMPDEST POP JUMPDEST POP SWAP1 POP PUSH3 0x316 SWAP2 SWAP1 PUSH3 0x31A JUMP JUMPDEST POP SWAP1 JUMP JUMPDEST JUMPDEST DUP1 DUP3 GT ISZERO PUSH3 0x335 JUMPI PUSH1 0x0 DUP2 PUSH1 0x0 SWAP1 SSTORE POP PUSH1 0x1 ADD PUSH3 0x31B JUMP JUMPDEST POP SWAP1 JUMP JUMPDEST PUSH1 0x0 PUSH3 0x350 PUSH3 0x34A DUP5 PUSH3 0x431 JUMP JUMPDEST PUSH3 0x408 JUMP JUMPDEST SWAP1 POP DUP3 DUP2 MSTORE PUSH1 0x20 DUP2 ADD DUP5 DUP5 DUP5 ADD GT ISZERO PUSH3 0x36F JUMPI PUSH3 0x36E PUSH3 0x56C JUMP JUMPDEST JUMPDEST PUSH3 0x37C DUP5 DUP3 DUP6 PUSH3 0x467 JUMP JUMPDEST POP SWAP4 SWAP3 POP POP POP JUMP JUMPDEST PUSH1 0x0 DUP3 PUSH1 0x1F DUP4 ADD SLT PUSH3 0x39C JUMPI PUSH3 0x39B PUSH3 0x567 JUMP JUMPDEST JUMPDEST DUP2 MLOAD PUSH3 0x3AE DUP5 DUP3 PUSH1 0x20 DUP7 ADD PUSH3 0x339 JUMP JUMPDEST SWAP2 POP POP SWAP3 SWAP2 POP POP JUMP JUMPDEST PUSH1 0x0 PUSH1 0x20 DUP3 DUP5 SUB SLT ISZERO PUSH3 0x3D0 JUMPI PUSH3 0x3CF PUSH3 0x576 JUMP JUMPDEST JUMPDEST PUSH1 0x0 DUP3 ADD MLOAD PUSH8 0xFFFFFFFFFFFFFFFF DUP2 GT ISZERO PUSH3 0x3F1 JUMPI PUSH3 0x3F0 PUSH3 0x571 JUMP JUMPDEST JUMPDEST PUSH3 0x3FF DUP5 DUP3 DUP6 ADD PUSH3 0x384 JUMP JUMPDEST SWAP2 POP POP SWAP3 SWAP2 POP POP JUMP JUMPDEST PUSH1 0x0 PUSH3 0x414 PUSH3 0x427 JUMP JUMPDEST SWAP1 POP PUSH3 0x422 DUP3 DUP3 PUSH3 0x4D3 JUMP JUMPDEST SWAP2 SWAP1 POP JUMP JUMPDEST PUSH1 0x0 PUSH1 0x40 MLOAD SWAP1 POP SWAP1 JUMP JUMPDEST PUSH1 0x0 PUSH8 0xFFFFFFFFFFFFFFFF DUP3 GT ISZERO PUSH3 0x44F JUMPI PUSH3 0x44E PUSH3 0x538 JUMP JUMPDEST JUMPDEST PUSH3 0x45A DUP3 PUSH3 0x57B JUMP JUMPDEST SWAP1 POP PUSH1 0x20 DUP2 ADD SWAP1 POP SWAP2 SWAP1 POP JUMP JUMPDEST PUSH1 0x0 JUMPDEST DUP4 DUP2 LT ISZERO PUSH3 0x487 JUMPI DUP1 DUP3 ADD MLOAD DUP2 DUP5 ADD MSTORE PUSH1 0x20 DUP2 ADD SWAP1 POP PUSH3 0x46A JUMP JUMPDEST DUP4 DUP2 GT ISZERO PUSH3 0x497 JUMPI PUSH1 0x0 DUP5 DUP5 ADD MSTORE JUMPDEST POP POP POP POP JUMP JUMPDEST PUSH1 0x0 PUSH1 0x2 DUP3 DIV SWAP1 POP PUSH1 0x1 DUP3 AND DUP1 PUSH3 0x4B6 JUMPI PUSH1 0x7F DUP3 AND SWAP2 POP JUMPDEST PUSH1 0x20 DUP3 LT DUP2 EQ ISZERO PUSH3 0x4CD JUMPI PUSH3 0x4CC PUSH3 0x509 JUMP JUMPDEST JUMPDEST POP SWAP2 SWAP1 POP JUMP JUMPDEST PUSH3 0x4DE DUP3 PUSH3 0x57B JUMP JUMPDEST DUP2 ADD DUP2 DUP2 LT PUSH8 0xFFFFFFFFFFFFFFFF DUP3 GT OR ISZERO PUSH3 0x500 JUMPI PUSH3 0x4FF PUSH3 0x538 JUMP JUMPDEST JUMPDEST DUP1 PUSH1 0x40 MSTORE POP POP POP JUMP JUMPDEST PUSH32 0x4E487B7100000000000000000000000000000000000000000000000000000000 PUSH1 0x0 MSTORE PUSH1 0x22 PUSH1 0x4 MSTORE PUSH1 0x24 PUSH1 0x0 REVERT JUMPDEST PUSH32 0x4E487B7100000000000000000000000000000000000000000000000000000000 PUSH1 0x0 MSTORE PUSH1 0x41 PUSH1 0x4 MSTORE PUSH1 0x24 PUSH1 0x0 REVERT JUMPDEST PUSH1 0x0 DUP1 REVERT JUMPDEST PUSH1 0x0 DUP1 REVERT JUMPDEST PUSH1 0x0 DUP1 REVERT JUMPDEST PUSH1 0x0 DUP1 REVERT JUMPDEST PUSH1 0x0 PUSH1 0x1F NOT PUSH1 0x1F DUP4 ADD AND SWAP1 POP SWAP2 SWAP1 POP JUMP JUMPDEST PUSH2 0x2CE9 DUP1 PUSH3 0x59C PUSH1 0x0 CODECOPY PUSH1 0x0 RETURN INVALID PUSH1 0x80 PUSH1 0x40 MSTORE PUSH1 0x4 CALLDATASIZE LT PUSH2 0xDD JUMPI PUSH1 0x0 CALLDATALOAD PUSH1 0xE0 SHR DUP1 PUSH4 0x546FD992 GT PUSH2 0x7F JUMPI DUP1 PUSH4 0xAA90C726 GT PUSH2 0x59 JUMPI DUP1 PUSH4 0xAA90C726 EQ PUSH2 0x29B JUMPI DUP1 PUSH4 0xB4A99A4E EQ PUSH2 0x2B2 JUMPI DUP1 PUSH4 0xEDDD0D9C EQ PUSH2 0x2DD JUMPI DUP1 PUSH4 0xFD6C3B1B EQ PUSH2 0x306 JUMPI PUSH2 0xDD JUMP JUMPDEST DUP1 PUSH4 0x546FD992 EQ PUSH2 0x205 JUMPI DUP1 PUSH4 0x60DAA851 EQ PUSH2 0x243 JUMPI DUP1 PUSH4 0x7A5CAAB3 EQ PUSH2 0x270 JUMPI PUSH2 0xDD JUMP JUMPDEST DUP1 PUSH4 0x15460259 GT PUSH2 0xBB JUMPI DUP1 PUSH4 0x15460259 EQ PUSH2 0x154 JUMPI DUP1 PUSH4 0x27A8A072 EQ PUSH2 0x16B JUMPI DUP1 PUSH4 0x3B668059 EQ PUSH2 0x1A9 JUMPI DUP1 PUSH4 0x3D65DF70 EQ PUSH2 0x1D4 JUMPI PUSH2 0xDD JUMP JUMPDEST DUP1 PUSH4 0x390C11C EQ PUSH2 0xE2 JUMPI DUP1 PUSH4 0xA67D2C7 EQ PUSH2 0x10D JUMPI DUP1 PUSH4 0x1309A563 EQ PUSH2 0x129 JUMPI JUMPDEST PUSH1 0x0 DUP1 REVERT JUMPDEST CALLVALUE DUP1 ISZERO PUSH2 0xEE JUMPI PUSH1 0x0 DUP1 REVERT JUMPDEST POP PUSH2 0xF7 PUSH2 0x343 JUMP JUMPDEST PUSH1 0x40 MLOAD PUSH2 0x104 SWAP2 SWAP1 PUSH2 0x23F6 JUMP JUMPDEST PUSH1 0x40 MLOAD DUP1 SWAP2 SUB SWAP1 RETURN JUMPDEST PUSH2 0x127 PUSH1 0x4 DUP1 CALLDATASIZE SUB DUP2 ADD SWAP1 PUSH2 0x122 SWAP2 SWAP1 PUSH2 0x1BF6 JUMP JUMPDEST PUSH2 0x3E4 JUMP JUMPDEST STOP JUMPDEST CALLVALUE DUP1 ISZERO PUSH2 0x135 JUMPI PUSH1 0x0 DUP1 REVERT JUMPDEST POP PUSH2 0x13E PUSH2 0x50E JUMP JUMPDEST PUSH1 0x40 MLOAD PUSH2 0x14B SWAP2 SWAP1 PUSH2 0x2259 JUMP JUMPDEST PUSH1 0x40 MLOAD DUP1 SWAP2 SUB SWAP1 RETURN JUMPDEST CALLVALUE DUP1 ISZERO PUSH2 0x160 JUMPI PUSH1 0x0 DUP1 REVERT JUMPDEST POP PUSH2 0x169 PUSH2 0x521 JUMP JUMPDEST STOP JUMPDEST CALLVALUE DUP1 ISZERO PUSH2 0x177 JUMPI PUSH1 0x0 DUP1 REVERT JUMPDEST POP PUSH2 0x192 PUSH1 0x4 DUP1 CALLDATASIZE SUB DUP2 ADD SWAP1 PUSH2 0x18D SWAP2 SWAP1 PUSH2 0x1C23 JUMP JUMPDEST PUSH2 0x62B JUMP JUMPDEST PUSH1 0x40 MLOAD PUSH2 0x1A0 SWAP3 SWAP2 SWAP1 PUSH2 0x21EB JUMP JUMPDEST PUSH1 0x40 MLOAD DUP1 SWAP2 SUB SWAP1 RETURN JUMPDEST CALLVALUE DUP1 ISZERO PUSH2 0x1B5 JUMPI PUSH1 0x0 DUP1 REVERT JUMPDEST POP PUSH2 0x1BE PUSH2 0x7DF JUMP JUMPDEST PUSH1 0x40 MLOAD PUSH2 0x1CB SWAP2 SWAP1 PUSH2 0x23F6 JUMP JUMPDEST PUSH1 0x40 MLOAD DUP1 SWAP2 SUB SWAP1 RETURN JUMPDEST PUSH2 0x1EE PUSH1 0x4 DUP1 CALLDATASIZE SUB DUP2 ADD SWAP1 PUSH2 0x1E9 SWAP2 SWAP1 PUSH2 0x1BC9 JUMP JUMPDEST PUSH2 0x87E JUMP JUMPDEST PUSH1 0x40 MLOAD PUSH2 0x1FC SWAP3 SWAP2 SWAP1 PUSH2 0x2222 JUMP JUMPDEST PUSH1 0x40 MLOAD DUP1 SWAP2 SUB SWAP1 RETURN JUMPDEST CALLVALUE DUP1 ISZERO PUSH2 0x211 JUMPI PUSH1 0x0 DUP1 REVERT JUMPDEST POP PUSH2 0x22C PUSH1 0x4 DUP1 CALLDATASIZE SUB DUP2 ADD SWAP1 PUSH2 0x227 SWAP2 SWAP1 PUSH2 0x1BC9 JUMP JUMPDEST PUSH2 0x977 JUMP JUMPDEST PUSH1 0x40 MLOAD PUSH2 0x23A SWAP3 SWAP2 SWAP1 PUSH2 0x2411 JUMP JUMPDEST PUSH1 0x40 MLOAD DUP1 SWAP2 SUB SWAP1 RETURN JUMPDEST CALLVALUE DUP1 ISZERO PUSH2 0x24F JUMPI PUSH1 0x0 DUP1 REVERT JUMPDEST POP PUSH2 0x258 PUSH2 0xC26 JUMP JUMPDEST PUSH1 0x40 MLOAD PUSH2 0x267 SWAP4 SWAP3 SWAP2 SWAP1 PUSH2 0x246A JUMP JUMPDEST PUSH1 0x40 MLOAD DUP1 SWAP2 SUB SWAP1 RETURN JUMPDEST CALLVALUE DUP1 ISZERO PUSH2 0x27C JUMPI PUSH1 0x0 DUP1 REVERT JUMPDEST POP PUSH2 0x285 PUSH2 0xD2C JUMP JUMPDEST PUSH1 0x40 MLOAD PUSH2 0x292 SWAP2 SWAP1 PUSH2 0x23F6 JUMP JUMPDEST PUSH1 0x40 MLOAD DUP1 SWAP2 SUB SWAP1 RETURN JUMPDEST CALLVALUE DUP1 ISZERO PUSH2 0x2A7 JUMPI PUSH1 0x0 DUP1 REVERT JUMPDEST POP PUSH2 0x2B0 PUSH2 0xE23 JUMP JUMPDEST STOP JUMPDEST CALLVALUE DUP1 ISZERO PUSH2 0x2BE JUMPI PUSH1 0x0 DUP1 REVERT JUMPDEST POP PUSH2 0x2C7 PUSH2 0xF2D JUMP JUMPDEST PUSH1 0x40 MLOAD PUSH2 0x2D4 SWAP2 SWAP1 PUSH2 0x2154 JUMP JUMPDEST PUSH1 0x40 MLOAD DUP1 SWAP2 SUB SWAP1 RETURN JUMPDEST CALLVALUE DUP1 ISZERO PUSH2 0x2E9 JUMPI PUSH1 0x0 DUP1 REVERT JUMPDEST POP PUSH2 0x304 PUSH1 0x4 DUP1 CALLDATASIZE SUB DUP2 ADD SWAP1 PUSH2 0x2FF SWAP2 SWAP1 PUSH2 0x1C90 JUMP JUMPDEST PUSH2 0xF53 JUMP JUMPDEST STOP JUMPDEST CALLVALUE DUP1 ISZERO PUSH2 0x312 JUMPI PUSH1 0x0 DUP1 REVERT JUMPDEST POP PUSH2 0x32D PUSH1 0x4 DUP1 CALLDATASIZE SUB DUP2 ADD SWAP1 PUSH2 0x328 SWAP2 SWAP1 PUSH2 0x1BC9 JUMP JUMPDEST PUSH2 0x104A JUMP JUMPDEST PUSH1 0x40 MLOAD PUSH2 0x33A SWAP2 SWAP1 PUSH2 0x21C9 JUMP JUMPDEST PUSH1 0x40 MLOAD DUP1 SWAP2 SUB SWAP1 RETURN JUMPDEST PUSH1 0x0 PUSH1 0xC PUSH1 0x1 SWAP1 SLOAD SWAP1 PUSH2 0x100 EXP SWAP1 DIV PUSH20 0xFFFFFFFFFFFFFFFFFFFFFFFFFFFFFFFFFFFFFFFF AND PUSH20 0xFFFFFFFFFFFFFFFFFFFFFFFFFFFFFFFFFFFFFFFF AND PUSH2 0x386 PUSH2 0x113A JUMP JUMPDEST PUSH20 0xFFFFFFFFFFFFFFFFFFFFFFFFFFFFFFFFFFFFFFFF AND EQ PUSH2 0x3DC JUMPI PUSH1 0x40 MLOAD PUSH32 0x8C379A000000000000000000000000000000000000000000000000000000000 DUP2 MSTORE PUSH1 0x4 ADD PUSH2 0x3D3 SWAP1 PUSH2 0x2356 JUMP JUMPDEST PUSH1 0x40 MLOAD DUP1 SWAP2 SUB SWAP1 REVERT JUMPDEST PUSH1 0x4 SLOAD SWAP1 POP SWAP1 JUMP JUMPDEST PUSH1 0xC PUSH1 0x1 SWAP1 SLOAD SWAP1 PUSH2 0x100 EXP SWAP1 DIV PUSH20 0xFFFFFFFFFFFFFFFFFFFFFFFFFFFFFFFFFFFFFFFF AND PUSH20 0xFFFFFFFFFFFFFFFFFFFFFFFFFFFFFFFFFFFFFFFF AND PUSH2 0x425 PUSH2 0x113A JUMP JUMPDEST PUSH20 0xFFFFFFFFFFFFFFFFFFFFFFFFFFFFFFFFFFFFFFFF AND EQ PUSH2 0x47B JUMPI PUSH1 0x40 MLOAD PUSH32 0x8C379A000000000000000000000000000000000000000000000000000000000 DUP2 MSTORE PUSH1 0x4 ADD PUSH2 0x472 SWAP1 PUSH2 0x2356 JUMP JUMPDEST PUSH1 0x40 MLOAD DUP1 SWAP2 SUB SWAP1 REVERT JUMPDEST PUSH1 0x0 SELFBALANCE SWAP1 POP PUSH1 0x0 DUP2 GT PUSH2 0x4C3 JUMPI PUSH1 0x40 MLOAD PUSH32 0x8C379A000000000000000000000000000000000000000000000000000000000 DUP2 MSTORE PUSH1 0x4 ADD PUSH2 0x4BA SWAP1 PUSH2 0x23B6 JUMP JUMPDEST PUSH1 0x40 MLOAD DUP1 SWAP2 SUB SWAP1 REVERT JUMPDEST DUP2 PUSH20 0xFFFFFFFFFFFFFFFFFFFFFFFFFFFFFFFFFFFFFFFF AND PUSH2 0x8FC DUP3 SWAP1 DUP2 ISZERO MUL SWAP1 PUSH1 0x40 MLOAD PUSH1 0x0 PUSH1 0x40 MLOAD DUP1 DUP4 SUB DUP2 DUP6 DUP9 DUP9 CALL SWAP4 POP POP POP POP ISZERO DUP1 ISZERO PUSH2 0x509 JUMPI RETURNDATASIZE PUSH1 0x0 DUP1 RETURNDATACOPY RETURNDATASIZE PUSH1 0x0 REVERT JUMPDEST POP POP POP JUMP JUMPDEST PUSH1 0xC PUSH1 0x0 SWAP1 SLOAD SWAP1 PUSH2 0x100 EXP SWAP1 DIV PUSH1 0xFF AND DUP2 JUMP JUMPDEST PUSH1 0xC PUSH1 0x1 SWAP1 SLOAD SWAP1 PUSH2 0x100 EXP SWAP1 DIV PUSH20 0xFFFFFFFFFFFFFFFFFFFFFFFFFFFFFFFFFFFFFFFF AND PUSH20 0xFFFFFFFFFFFFFFFFFFFFFFFFFFFFFFFFFFFFFFFF AND PUSH2 0x562 PUSH2 0x113A JUMP JUMPDEST PUSH20 0xFFFFFFFFFFFFFFFFFFFFFFFFFFFFFFFFFFFFFFFF AND EQ PUSH2 0x5B8 JUMPI PUSH1 0x40 MLOAD PUSH32 0x8C379A000000000000000000000000000000000000000000000000000000000 DUP2 MSTORE PUSH1 0x4 ADD PUSH2 0x5AF SWAP1 PUSH2 0x2356 JUMP JUMPDEST PUSH1 0x40 MLOAD DUP1 SWAP2 SUB SWAP1 REVERT JUMPDEST PUSH1 0x1 ISZERO ISZERO PUSH1 0xC PUSH1 0x0 SWAP1 SLOAD SWAP1 PUSH2 0x100 EXP SWAP1 DIV PUSH1 0xFF AND ISZERO ISZERO EQ PUSH2 0x60E JUMPI PUSH1 0x40 MLOAD PUSH32 0x8C379A000000000000000000000000000000000000000000000000000000000 DUP2 MSTORE PUSH1 0x4 ADD PUSH2 0x605 SWAP1 PUSH2 0x22F6 JUMP JUMPDEST PUSH1 0x40 MLOAD DUP1 SWAP2 SUB SWAP1 REVERT JUMPDEST PUSH1 0x0 PUSH1 0xC PUSH1 0x0 PUSH2 0x100 EXP DUP2 SLOAD DUP2 PUSH1 0xFF MUL NOT AND SWAP1 DUP4 ISZERO ISZERO MUL OR SWAP1 SSTORE POP JUMP JUMPDEST PUSH1 0x60 DUP1 PUSH1 0xC PUSH1 0x1 SWAP1 SLOAD SWAP1 PUSH2 0x100 EXP SWAP1 DIV PUSH20 0xFFFFFFFFFFFFFFFFFFFFFFFFFFFFFFFFFFFFFFFF AND PUSH20 0xFFFFFFFFFFFFFFFFFFFFFFFFFFFFFFFFFFFFFFFF AND PUSH2 0x66F PUSH2 0x113A JUMP JUMPDEST PUSH20 0xFFFFFFFFFFFFFFFFFFFFFFFFFFFFFFFFFFFFFFFF AND EQ PUSH2 0x6C5 JUMPI PUSH1 0x40 MLOAD PUSH32 0x8C379A000000000000000000000000000000000000000000000000000000000 DUP2 MSTORE PUSH1 0x4 ADD PUSH2 0x6BC SWAP1 PUSH2 0x2356 JUMP JUMPDEST PUSH1 0x40 MLOAD DUP1 SWAP2 SUB SWAP1 REVERT JUMPDEST PUSH1 0x0 ISZERO ISZERO PUSH1 0xC PUSH1 0x0 SWAP1 SLOAD SWAP1 PUSH2 0x100 EXP SWAP1 DIV PUSH1 0xFF AND ISZERO ISZERO EQ PUSH2 0x71B JUMPI PUSH1 0x40 MLOAD PUSH32 0x8C379A000000000000000000000000000000000000000000000000000000000 DUP2 MSTORE PUSH1 0x4 ADD PUSH2 0x712 SWAP1 PUSH2 0x2376 JUMP JUMPDEST PUSH1 0x40 MLOAD DUP1 SWAP2 SUB SWAP1 REVERT JUMPDEST PUSH1 0x4 DUP4 LT DUP1 ISZERO PUSH2 0x72B JUMPI POP PUSH1 0x0 DUP4 GT JUMPDEST PUSH2 0x76A JUMPI PUSH1 0x40 MLOAD PUSH32 0x8C379A000000000000000000000000000000000000000000000000000000000 DUP2 MSTORE PUSH1 0x4 ADD PUSH2 0x761 SWAP1 PUSH2 0x2336 JUMP JUMPDEST PUSH1 0x40 MLOAD DUP1 SWAP2 SUB SWAP1 REVERT JUMPDEST PUSH1 0x60 DUP1 PUSH1 0x0 JUMPDEST DUP6 DUP2 LT ISZERO PUSH2 0x7CF JUMPI PUSH2 0x781 DUP8 PUSH2 0x977 JUMP JUMPDEST DUP5 DUP4 DUP2 MLOAD DUP2 LT PUSH2 0x794 JUMPI PUSH2 0x793 PUSH2 0x2861 JUMP JUMPDEST JUMPDEST PUSH1 0x20 MUL PUSH1 0x20 ADD ADD DUP5 DUP5 DUP2 MLOAD DUP2 LT PUSH2 0x7AE JUMPI PUSH2 0x7AD PUSH2 0x2861 JUMP JUMPDEST JUMPDEST PUSH1 0x20 MUL PUSH1 0x20 ADD ADD DUP3 SWAP1 MSTORE DUP3 DUP2 MSTORE POP POP POP DUP1 PUSH2 0x7C8 SWAP1 PUSH2 0x272C JUMP JUMPDEST SWAP1 POP PUSH2 0x770 JUMP JUMPDEST POP DUP2 DUP2 SWAP4 POP SWAP4 POP POP POP SWAP3 POP SWAP3 SWAP1 POP JUMP JUMPDEST PUSH1 0x0 PUSH1 0xC PUSH1 0x1 SWAP1 SLOAD SWAP1 PUSH2 0x100 EXP SWAP1 DIV PUSH20 0xFFFFFFFFFFFFFFFFFFFFFFFFFFFFFFFFFFFFFFFF AND PUSH20 0xFFFFFFFFFFFFFFFFFFFFFFFFFFFFFFFFFFFFFFFF AND PUSH2 0x822 PUSH2 0x113A JUMP JUMPDEST PUSH20 0xFFFFFFFFFFFFFFFFFFFFFFFFFFFFFFFFFFFFFFFF AND EQ PUSH2 0x878 JUMPI PUSH1 0x40 MLOAD PUSH32 0x8C379A000000000000000000000000000000000000000000000000000000000 DUP2 MSTORE PUSH1 0x4 ADD PUSH2 0x86F SWAP1 PUSH2 0x2356 JUMP JUMPDEST PUSH1 0x40 MLOAD DUP1 SWAP2 SUB SWAP1 REVERT JUMPDEST SELFBALANCE SWAP1 POP SWAP1 JUMP JUMPDEST PUSH1 0x60 DUP1 PUSH1 0x0 ISZERO ISZERO PUSH1 0xC PUSH1 0x0 SWAP1 SLOAD SWAP1 PUSH2 0x100 EXP SWAP1 DIV PUSH1 0xFF AND ISZERO ISZERO EQ PUSH2 0x8D7 JUMPI PUSH1 0x40 MLOAD PUSH32 0x8C379A000000000000000000000000000000000000000000000000000000000 DUP2 MSTORE PUSH1 0x4 ADD PUSH2 0x8CE SWAP1 PUSH2 0x2376 JUMP JUMPDEST PUSH1 0x40 MLOAD DUP1 SWAP2 SUB SWAP1 REVERT JUMPDEST PUSH2 0x3E8 PUSH1 0x4 SLOAD LT PUSH2 0x91D JUMPI PUSH1 0x40 MLOAD PUSH32 0x8C379A000000000000000000000000000000000000000000000000000000000 DUP2 MSTORE PUSH1 0x4 ADD PUSH2 0x914 SWAP1 PUSH2 0x2396 JUMP JUMPDEST PUSH1 0x40 MLOAD DUP1 SWAP2 SUB SWAP1 REVERT JUMPDEST PUSH1 0x6 SLOAD CALLVALUE EQ PUSH2 0x961 JUMPI PUSH1 0x40 MLOAD PUSH32 0x8C379A000000000000000000000000000000000000000000000000000000000 DUP2 MSTORE PUSH1 0x4 ADD PUSH2 0x958 SWAP1 PUSH2 0x22D6 JUMP JUMPDEST PUSH1 0x40 MLOAD DUP1 SWAP2 SUB SWAP1 REVERT JUMPDEST PUSH2 0x972 PUSH2 0x96C PUSH2 0x113A JUMP JUMPDEST CALLVALUE PUSH2 0x1142 JUMP JUMPDEST SWAP2 POP SWAP2 JUMP JUMPDEST PUSH1 0x0 PUSH1 0x60 PUSH1 0xC PUSH1 0x1 SWAP1 SLOAD SWAP1 PUSH2 0x100 EXP SWAP1 DIV PUSH20 0xFFFFFFFFFFFFFFFFFFFFFFFFFFFFFFFFFFFFFFFF AND PUSH20 0xFFFFFFFFFFFFFFFFFFFFFFFFFFFFFFFFFFFFFFFF AND PUSH2 0x9BC PUSH2 0x113A JUMP JUMPDEST PUSH20 0xFFFFFFFFFFFFFFFFFFFFFFFFFFFFFFFFFFFFFFFF AND EQ PUSH2 0xA12 JUMPI PUSH1 0x40 MLOAD PUSH32 0x8C379A000000000000000000000000000000000000000000000000000000000 DUP2 MSTORE PUSH1 0x4 ADD PUSH2 0xA09 SWAP1 PUSH2 0x2356 JUMP JUMPDEST PUSH1 0x40 MLOAD DUP1 SWAP2 SUB SWAP1 REVERT JUMPDEST PUSH1 0x0 ISZERO ISZERO PUSH1 0xC PUSH1 0x0 SWAP1 SLOAD SWAP1 PUSH2 0x100 EXP SWAP1 DIV PUSH1 0xFF AND ISZERO ISZERO EQ PUSH2 0xA68 JUMPI PUSH1 0x40 MLOAD PUSH32 0x8C379A000000000000000000000000000000000000000000000000000000000 DUP2 MSTORE PUSH1 0x4 ADD PUSH2 0xA5F SWAP1 PUSH2 0x2376 JUMP JUMPDEST PUSH1 0x40 MLOAD DUP1 SWAP2 SUB SWAP1 REVERT JUMPDEST PUSH1 0x0 PUSH2 0xA72 PUSH2 0x119C JUMP JUMPDEST SWAP1 POP PUSH2 0xB0C DUP5 DUP3 PUSH1 0x5 SLOAD PUSH1 0x2 DUP1 SLOAD PUSH2 0xA89 SWAP1 PUSH2 0x26C9 JUMP JUMPDEST DUP1 PUSH1 0x1F ADD PUSH1 0x20 DUP1 SWAP2 DIV MUL PUSH1 0x20 ADD PUSH1 0x40 MLOAD SWAP1 DUP2 ADD PUSH1 0x40 MSTORE DUP1 SWAP3 SWAP2 SWAP1 DUP2 DUP2 MSTORE PUSH1 0x20 ADD DUP3 DUP1 SLOAD PUSH2 0xAB5 SWAP1 PUSH2 0x26C9 JUMP JUMPDEST DUP1 ISZERO PUSH2 0xB02 JUMPI DUP1 PUSH1 0x1F LT PUSH2 0xAD7 JUMPI PUSH2 0x100 DUP1 DUP4 SLOAD DIV MUL DUP4 MSTORE SWAP2 PUSH1 0x20 ADD SWAP2 PUSH2 0xB02 JUMP JUMPDEST DUP3 ADD SWAP2 SWAP1 PUSH1 0x0 MSTORE PUSH1 0x20 PUSH1 0x0 KECCAK256 SWAP1 JUMPDEST DUP2 SLOAD DUP2 MSTORE SWAP1 PUSH1 0x1 ADD SWAP1 PUSH1 0x20 ADD DUP1 DUP4 GT PUSH2 0xAE5 JUMPI DUP3 SWAP1 SUB PUSH1 0x1F AND DUP3 ADD SWAP2 JUMPDEST POP POP POP POP POP PUSH2 0x148E JUMP JUMPDEST PUSH1 0x4 PUSH1 0x0 DUP2 SLOAD DUP1 SWAP3 SWAP2 SWAP1 PUSH2 0xB1F SWAP1 PUSH2 0x272C JUMP JUMPDEST SWAP2 SWAP1 POP SSTORE POP PUSH1 0xA PUSH1 0x0 DUP6 PUSH20 0xFFFFFFFFFFFFFFFFFFFFFFFFFFFFFFFFFFFFFFFF AND PUSH20 0xFFFFFFFFFFFFFFFFFFFFFFFFFFFFFFFFFFFFFFFF AND DUP2 MSTORE PUSH1 0x20 ADD SWAP1 DUP2 MSTORE PUSH1 0x20 ADD PUSH1 0x0 KECCAK256 PUSH1 0x0 ADD DUP2 SWAP1 DUP1 PUSH1 0x1 DUP2 SLOAD ADD DUP1 DUP3 SSTORE DUP1 SWAP2 POP POP PUSH1 0x1 SWAP1 SUB SWAP1 PUSH1 0x0 MSTORE PUSH1 0x20 PUSH1 0x0 KECCAK256 ADD PUSH1 0x0 SWAP1 SWAP2 SWAP1 SWAP2 SWAP1 SWAP2 POP SSTORE DUP1 PUSH1 0x2 DUP1 DUP1 SLOAD PUSH2 0xB9C SWAP1 PUSH2 0x26C9 JUMP JUMPDEST DUP1 PUSH1 0x1F ADD PUSH1 0x20 DUP1 SWAP2 DIV MUL PUSH1 0x20 ADD PUSH1 0x40 MLOAD SWAP1 DUP2 ADD PUSH1 0x40 MSTORE DUP1 SWAP3 SWAP2 SWAP1 DUP2 DUP2 MSTORE PUSH1 0x20 ADD DUP3 DUP1 SLOAD PUSH2 0xBC8 SWAP1 PUSH2 0x26C9 JUMP JUMPDEST DUP1 ISZERO PUSH2 0xC15 JUMPI DUP1 PUSH1 0x1F LT PUSH2 0xBEA JUMPI PUSH2 0x100 DUP1 DUP4 SLOAD DIV MUL DUP4 MSTORE SWAP2 PUSH1 0x20 ADD SWAP2 PUSH2 0xC15 JUMP JUMPDEST DUP3 ADD SWAP2 SWAP1 PUSH1 0x0 MSTORE PUSH1 0x20 PUSH1 0x0 KECCAK256 SWAP1 JUMPDEST DUP2 SLOAD DUP2 MSTORE SWAP1 PUSH1 0x1 ADD SWAP1 PUSH1 0x20 ADD DUP1 DUP4 GT PUSH2 0xBF8 JUMPI DUP3 SWAP1 SUB PUSH1 0x1F AND DUP3 ADD SWAP2 JUMPDEST POP POP POP POP POP SWAP1 POP SWAP3 POP SWAP3 POP POP SWAP2 POP SWAP2 JUMP JUMPDEST PUSH1 0x0 DUP1 PUSH1 0x0 PUSH1 0xC PUSH1 0x1 SWAP1 SLOAD SWAP1 PUSH2 0x100 EXP SWAP1 DIV PUSH20 0xFFFFFFFFFFFFFFFFFFFFFFFFFFFFFFFFFFFFFFFF AND PUSH20 0xFFFFFFFFFFFFFFFFFFFFFFFFFFFFFFFFFFFFFFFF AND PUSH2 0xC6C PUSH2 0x113A JUMP JUMPDEST PUSH20 0xFFFFFFFFFFFFFFFFFFFFFFFFFFFFFFFFFFFFFFFF AND EQ PUSH2 0xCC2 JUMPI PUSH1 0x40 MLOAD PUSH32 0x8C379A000000000000000000000000000000000000000000000000000000000 DUP2 MSTORE PUSH1 0x4 ADD PUSH2 0xCB9 SWAP1 PUSH2 0x2356 JUMP JUMPDEST PUSH1 0x40 MLOAD DUP1 SWAP2 SUB SWAP1 REVERT JUMPDEST PUSH1 0x0 ISZERO ISZERO PUSH1 0xC PUSH1 0x0 SWAP1 SLOAD SWAP1 PUSH2 0x100 EXP SWAP1 DIV PUSH1 0xFF AND ISZERO ISZERO EQ PUSH2 0xD18 JUMPI PUSH1 0x40 MLOAD PUSH32 0x8C379A000000000000000000000000000000000000000000000000000000000 DUP2 MSTORE PUSH1 0x4 ADD PUSH2 0xD0F SWAP1 PUSH2 0x2376 JUMP JUMPDEST PUSH1 0x40 MLOAD DUP1 SWAP2 SUB SWAP1 REVERT JUMPDEST PUSH1 0x7 SLOAD PUSH1 0x8 SLOAD PUSH1 0x9 SLOAD SWAP3 POP SWAP3 POP SWAP3 POP SWAP1 SWAP2 SWAP3 JUMP JUMPDEST PUSH1 0x0 PUSH1 0xC PUSH1 0x1 SWAP1 SLOAD SWAP1 PUSH2 0x100 EXP SWAP1 DIV PUSH20 0xFFFFFFFFFFFFFFFFFFFFFFFFFFFFFFFFFFFFFFFF AND PUSH20 0xFFFFFFFFFFFFFFFFFFFFFFFFFFFFFFFFFFFFFFFF AND PUSH2 0xD6F PUSH2 0x113A JUMP JUMPDEST PUSH20 0xFFFFFFFFFFFFFFFFFFFFFFFFFFFFFFFFFFFFFFFF AND EQ PUSH2 0xDC5 JUMPI PUSH1 0x40 MLOAD PUSH32 0x8C379A000000000000000000000000000000000000000000000000000000000 DUP2 MSTORE PUSH1 0x4 ADD PUSH2 0xDBC SWAP1 PUSH2 0x2356 JUMP JUMPDEST PUSH1 0x40 MLOAD DUP1 SWAP2 SUB SWAP1 REVERT JUMPDEST PUSH1 0x0 ISZERO ISZERO PUSH1 0xC PUSH1 0x0 SWAP1 SLOAD SWAP1 PUSH2 0x100 EXP SWAP1 DIV PUSH1 0xFF AND ISZERO ISZERO EQ PUSH2 0xE1B JUMPI PUSH1 0x40 MLOAD PUSH32 0x8C379A000000000000000000000000000000000000000000000000000000000 DUP2 MSTORE PUSH1 0x4 ADD PUSH2 0xE12 SWAP1 PUSH2 0x2376 JUMP JUMPDEST PUSH1 0x40 MLOAD DUP1 SWAP2 SUB SWAP1 REVERT JUMPDEST PUSH1 0x6 SLOAD SWAP1 POP SWAP1 JUMP JUMPDEST PUSH1 0xC PUSH1 0x1 SWAP1 SLOAD SWAP1 PUSH2 0x100 EXP SWAP1 DIV PUSH20 0xFFFFFFFFFFFFFFFFFFFFFFFFFFFFFFFFFFFFFFFF AND PUSH20 0xFFFFFFFFFFFFFFFFFFFFFFFFFFFFFFFFFFFFFFFF AND PUSH2 0xE64 PUSH2 0x113A JUMP JUMPDEST PUSH20 0xFFFFFFFFFFFFFFFFFFFFFFFFFFFFFFFFFFFFFFFF AND EQ PUSH2 0xEBA JUMPI PUSH1 0x40 MLOAD PUSH32 0x8C379A000000000000000000000000000000000000000000000000000000000 DUP2 MSTORE PUSH1 0x4 ADD PUSH2 0xEB1 SWAP1 PUSH2 0x2356 JUMP JUMPDEST PUSH1 0x40 MLOAD DUP1 SWAP2 SUB SWAP1 REVERT JUMPDEST PUSH1 0x0 ISZERO ISZERO PUSH1 0xC PUSH1 0x0 SWAP1 SLOAD SWAP1 PUSH2 0x100 EXP SWAP1 DIV PUSH1 0xFF AND ISZERO ISZERO EQ PUSH2 0xF10 JUMPI PUSH1 0x40 MLOAD PUSH32 0x8C379A000000000000000000000000000000000000000000000000000000000 DUP2 MSTORE PUSH1 0x4 ADD PUSH2 0xF07 SWAP1 PUSH2 0x2316 JUMP JUMPDEST PUSH1 0x40 MLOAD DUP1 SWAP2 SUB SWAP1 REVERT JUMPDEST PUSH1 0x1 PUSH1 0xC PUSH1 0x0 PUSH2 0x100 EXP DUP2 SLOAD DUP2 PUSH1 0xFF MUL NOT AND SWAP1 DUP4 ISZERO ISZERO MUL OR SWAP1 SSTORE POP JUMP JUMPDEST PUSH1 0xC PUSH1 0x1 SWAP1 SLOAD SWAP1 PUSH2 0x100 EXP SWAP1 DIV PUSH20 0xFFFFFFFFFFFFFFFFFFFFFFFFFFFFFFFFFFFFFFFF AND DUP2 JUMP JUMPDEST PUSH1 0xC PUSH1 0x1 SWAP1 SLOAD SWAP1 PUSH2 0x100 EXP SWAP1 DIV PUSH20 0xFFFFFFFFFFFFFFFFFFFFFFFFFFFFFFFFFFFFFFFF AND PUSH20 0xFFFFFFFFFFFFFFFFFFFFFFFFFFFFFFFFFFFFFFFF AND PUSH2 0xF94 PUSH2 0x113A JUMP JUMPDEST PUSH20 0xFFFFFFFFFFFFFFFFFFFFFFFFFFFFFFFFFFFFFFFF AND EQ PUSH2 0xFEA JUMPI PUSH1 0x40 MLOAD PUSH32 0x8C379A000000000000000000000000000000000000000000000000000000000 DUP2 MSTORE PUSH1 0x4 ADD PUSH2 0xFE1 SWAP1 PUSH2 0x2356 JUMP JUMPDEST PUSH1 0x40 MLOAD DUP1 SWAP2 SUB SWAP1 REVERT JUMPDEST PUSH1 0x0 ISZERO ISZERO PUSH1 0xC PUSH1 0x0 SWAP1 SLOAD SWAP1 PUSH2 0x100 EXP SWAP1 DIV PUSH1 0xFF AND ISZERO ISZERO EQ PUSH2 0x1040 JUMPI PUSH1 0x40 MLOAD PUSH32 0x8C379A000000000000000000000000000000000000000000000000000000000 DUP2 MSTORE PUSH1 0x4 ADD PUSH2 0x1037 SWAP1 PUSH2 0x2376 JUMP JUMPDEST PUSH1 0x40 MLOAD DUP1 SWAP2 SUB SWAP1 REVERT JUMPDEST DUP1 PUSH1 0x6 DUP2 SWAP1 SSTORE POP POP JUMP JUMPDEST PUSH1 0x60 PUSH1 0x0 ISZERO ISZERO PUSH1 0xC PUSH1 0x0 SWAP1 SLOAD SWAP1 PUSH2 0x100 EXP SWAP1 DIV PUSH1 0xFF AND ISZERO ISZERO EQ PUSH2 0x10A2 JUMPI PUSH1 0x40 MLOAD PUSH32 0x8C379A000000000000000000000000000000000000000000000000000000000 DUP2 MSTORE PUSH1 0x4 ADD PUSH2 0x1099 SWAP1 PUSH2 0x2376 JUMP JUMPDEST PUSH1 0x40 MLOAD DUP1 SWAP2 SUB SWAP1 REVERT JUMPDEST PUSH1 0xA PUSH1 0x0 DUP4 PUSH20 0xFFFFFFFFFFFFFFFFFFFFFFFFFFFFFFFFFFFFFFFF AND PUSH20 0xFFFFFFFFFFFFFFFFFFFFFFFFFFFFFFFFFFFFFFFF AND DUP2 MSTORE PUSH1 0x20 ADD SWAP1 DUP2 MSTORE PUSH1 0x20 ADD PUSH1 0x0 KECCAK256 PUSH1 0x0 ADD DUP1 SLOAD DUP1 PUSH1 0x20 MUL PUSH1 0x20 ADD PUSH1 0x40 MLOAD SWAP1 DUP2 ADD PUSH1 0x40 MSTORE DUP1 SWAP3 SWAP2 SWAP1 DUP2 DUP2 MSTORE PUSH1 0x20 ADD DUP3 DUP1 SLOAD DUP1 ISZERO PUSH2 0x112E JUMPI PUSH1 0x20 MUL DUP3 ADD SWAP2 SWAP1 PUSH1 0x0 MSTORE PUSH1 0x20 PUSH1 0x0 KECCAK256 SWAP1 JUMPDEST DUP2 SLOAD DUP2 MSTORE PUSH1 0x20 ADD SWAP1 PUSH1 0x1 ADD SWAP1 DUP1 DUP4 GT PUSH2 0x111A JUMPI JUMPDEST POP POP POP POP POP SWAP1 POP SWAP2 SWAP1 POP JUMP JUMPDEST PUSH1 0x0 CALLER SWAP1 POP SWAP1 JUMP JUMPDEST DUP1 PUSH1 0xB PUSH1 0x0 DUP5 PUSH20 0xFFFFFFFFFFFFFFFFFFFFFFFFFFFFFFFFFFFFFFFF AND PUSH20 0xFFFFFFFFFFFFFFFFFFFFFFFFFFFFFFFFFFFFFFFF AND DUP2 MSTORE PUSH1 0x20 ADD SWAP1 DUP2 MSTORE PUSH1 0x20 ADD PUSH1 0x0 KECCAK256 PUSH1 0x0 DUP3 DUP3 SLOAD PUSH2 0x1191 SWAP2 SWAP1 PUSH2 0x2555 JUMP JUMPDEST SWAP3 POP POP DUP2 SWAP1 SSTORE POP POP POP JUMP JUMPDEST PUSH1 0x0 DUP1 ISZERO ISZERO PUSH1 0xC PUSH1 0x0 SWAP1 SLOAD SWAP1 PUSH2 0x100 EXP SWAP1 DIV PUSH1 0xFF AND ISZERO ISZERO EQ PUSH2 0x11F3 JUMPI PUSH1 0x40 MLOAD PUSH32 0x8C379A000000000000000000000000000000000000000000000000000000000 DUP2 MSTORE PUSH1 0x4 ADD PUSH2 0x11EA SWAP1 PUSH2 0x2376 JUMP JUMPDEST PUSH1 0x40 MLOAD DUP1 SWAP2 SUB SWAP1 REVERT JUMPDEST PUSH1 0x0 PUSH2 0x11FD PUSH2 0x1624 JUMP JUMPDEST SWAP1 POP PUSH1 0x0 PUSH1 0x3 DUP3 PUSH1 0x14 DUP2 LT PUSH2 0x1215 JUMPI PUSH2 0x1214 PUSH2 0x2861 JUMP JUMPDEST JUMPDEST PUSH1 0x20 SWAP2 DUP3 DUP3 DIV ADD SWAP2 SWAP1 MOD SWAP1 SLOAD SWAP1 PUSH2 0x100 EXP SWAP1 DIV PUSH1 0xFF AND PUSH1 0xFF AND SWAP1 POP PUSH1 0x0 DUP2 EQ DUP1 ISZERO PUSH2 0x1242 JUMPI POP PUSH1 0x32 PUSH1 0x7 SLOAD LT JUMPDEST ISZERO PUSH2 0x12A9 JUMPI PUSH1 0x7 PUSH1 0x0 DUP2 SLOAD DUP1 SWAP3 SWAP2 SWAP1 PUSH2 0x125A SWAP1 PUSH2 0x272C JUMP JUMPDEST SWAP2 SWAP1 POP SSTORE POP PUSH2 0x126A PUSH1 0x7 SLOAD PUSH2 0x1668 JUMP JUMPDEST PUSH1 0x40 MLOAD PUSH1 0x20 ADD PUSH2 0x127A SWAP2 SWAP1 PUSH2 0x20C2 JUMP JUMPDEST PUSH1 0x40 MLOAD PUSH1 0x20 DUP2 DUP4 SUB SUB DUP2 MSTORE SWAP1 PUSH1 0x40 MSTORE PUSH1 0x2 SWAP1 DUP1 MLOAD SWAP1 PUSH1 0x20 ADD SWAP1 PUSH2 0x129E SWAP3 SWAP2 SWAP1 PUSH2 0x1A45 JUMP JUMPDEST POP DUP1 SWAP3 POP POP POP PUSH2 0x148B JUMP JUMPDEST PUSH1 0x1 DUP2 GT ISZERO DUP1 ISZERO PUSH2 0x12BC JUMPI POP PUSH1 0x64 PUSH1 0x8 SLOAD LT JUMPDEST ISZERO PUSH2 0x1323 JUMPI PUSH1 0x8 PUSH1 0x0 DUP2 SLOAD DUP1 SWAP3 SWAP2 SWAP1 PUSH2 0x12D4 SWAP1 PUSH2 0x272C JUMP JUMPDEST SWAP2 SWAP1 POP SSTORE POP PUSH2 0x12E4 PUSH1 0x8 SLOAD PUSH2 0x1668 JUMP JUMPDEST PUSH1 0x40 MLOAD PUSH1 0x20 ADD PUSH2 0x12F4 SWAP2 SWAP1 PUSH2 0x20E4 JUMP JUMPDEST PUSH1 0x40 MLOAD PUSH1 0x20 DUP2 DUP4 SUB SUB DUP2 MSTORE SWAP1 PUSH1 0x40 MSTORE PUSH1 0x2 SWAP1 DUP1 MLOAD SWAP1 PUSH1 0x20 ADD SWAP1 PUSH2 0x1318 SWAP3 SWAP2 SWAP1 PUSH2 0x1A45 JUMP JUMPDEST POP DUP1 SWAP3 POP POP POP PUSH2 0x148B JUMP JUMPDEST PUSH1 0x2 DUP2 GT ISZERO DUP1 ISZERO PUSH2 0x1338 JUMPI POP PUSH2 0x352 PUSH1 0x9 SLOAD GT ISZERO JUMPDEST ISZERO PUSH2 0x13B8 JUMPI PUSH1 0x9 PUSH1 0x0 DUP2 SLOAD DUP1 SWAP3 SWAP2 SWAP1 PUSH2 0x1350 SWAP1 PUSH2 0x272C JUMP JUMPDEST SWAP2 SWAP1 POP SSTORE POP PUSH2 0x1360 PUSH1 0x9 SLOAD PUSH2 0x1668 JUMP JUMPDEST PUSH1 0x40 MLOAD PUSH1 0x20 ADD PUSH2 0x1370 SWAP2 SWAP1 PUSH2 0x2106 JUMP JUMPDEST PUSH1 0x40 MLOAD PUSH1 0x20 DUP2 DUP4 SUB SUB DUP2 MSTORE SWAP1 PUSH1 0x40 MSTORE PUSH1 0x2 SWAP1 DUP1 MLOAD SWAP1 PUSH1 0x20 ADD SWAP1 PUSH2 0x1394 SWAP3 SWAP2 SWAP1 PUSH2 0x1A45 JUMP JUMPDEST PUSH1 0x2 SWAP1 DUP1 SLOAD PUSH2 0x13A2 SWAP1 PUSH2 0x26C9 JUMP JUMPDEST PUSH2 0x13AD SWAP3 SWAP2 SWAP1 PUSH2 0x1ACB JUMP JUMPDEST POP DUP1 SWAP3 POP POP POP PUSH2 0x148B JUMP JUMPDEST PUSH1 0x64 PUSH1 0x8 SLOAD LT ISZERO PUSH2 0x1429 JUMPI PUSH1 0x1 SWAP1 POP PUSH1 0x8 PUSH1 0x0 DUP2 SLOAD DUP1 SWAP3 SWAP2 SWAP1 PUSH2 0x13DA SWAP1 PUSH2 0x272C JUMP JUMPDEST SWAP2 SWAP1 POP SSTORE POP PUSH2 0x13EA PUSH1 0x8 SLOAD PUSH2 0x1668 JUMP JUMPDEST PUSH1 0x40 MLOAD PUSH1 0x20 ADD PUSH2 0x13FA SWAP2 SWAP1 PUSH2 0x20E4 JUMP JUMPDEST PUSH1 0x40 MLOAD PUSH1 0x20 DUP2 DUP4 SUB SUB DUP2 MSTORE SWAP1 PUSH1 0x40 MSTORE PUSH1 0x2 SWAP1 DUP1 MLOAD SWAP1 PUSH1 0x20 ADD SWAP1 PUSH2 0x141E SWAP3 SWAP2 SWAP1 PUSH2 0x1A45 JUMP JUMPDEST POP DUP1 SWAP3 POP POP POP PUSH2 0x148B JUMP JUMPDEST PUSH1 0x0 SWAP1 POP PUSH1 0x7 PUSH1 0x0 DUP2 SLOAD DUP1 SWAP3 SWAP2 SWAP1 PUSH2 0x1440 SWAP1 PUSH2 0x272C JUMP JUMPDEST SWAP2 SWAP1 POP SSTORE POP PUSH2 0x1450 PUSH1 0x7 SLOAD PUSH2 0x1668 JUMP JUMPDEST PUSH1 0x40 MLOAD PUSH1 0x20 ADD PUSH2 0x1460 SWAP2 SWAP1 PUSH2 0x20C2 JUMP JUMPDEST PUSH1 0x40 MLOAD PUSH1 0x20 DUP2 DUP4 SUB SUB DUP2 MSTORE SWAP1 PUSH1 0x40 MSTORE PUSH1 0x2 SWAP1 DUP1 MLOAD SWAP1 PUSH1 0x20 ADD SWAP1 PUSH2 0x1484 SWAP3 SWAP2 SWAP1 PUSH2 0x1A45 JUMP JUMPDEST POP DUP1 SWAP3 POP POP POP JUMPDEST SWAP1 JUMP JUMPDEST PUSH1 0x0 PUSH20 0xFFFFFFFFFFFFFFFFFFFFFFFFFFFFFFFFFFFFFFFF AND DUP5 PUSH20 0xFFFFFFFFFFFFFFFFFFFFFFFFFFFFFFFFFFFFFFFF AND EQ ISZERO PUSH2 0x14FE JUMPI PUSH1 0x40 MLOAD PUSH32 0x8C379A000000000000000000000000000000000000000000000000000000000 DUP2 MSTORE PUSH1 0x4 ADD PUSH2 0x14F5 SWAP1 PUSH2 0x23D6 JUMP JUMPDEST PUSH1 0x40 MLOAD DUP1 SWAP2 SUB SWAP1 REVERT JUMPDEST PUSH1 0x0 PUSH2 0x1508 PUSH2 0x113A JUMP JUMPDEST SWAP1 POP PUSH2 0x1529 DUP2 PUSH1 0x0 DUP8 PUSH2 0x151A DUP9 PUSH2 0x17C9 JUMP JUMPDEST PUSH2 0x1523 DUP9 PUSH2 0x17C9 JUMP JUMPDEST DUP8 PUSH2 0x1843 JUMP JUMPDEST DUP3 PUSH1 0x0 DUP1 DUP7 DUP2 MSTORE PUSH1 0x20 ADD SWAP1 DUP2 MSTORE PUSH1 0x20 ADD PUSH1 0x0 KECCAK256 PUSH1 0x0 DUP8 PUSH20 0xFFFFFFFFFFFFFFFFFFFFFFFFFFFFFFFFFFFFFFFF AND PUSH20 0xFFFFFFFFFFFFFFFFFFFFFFFFFFFFFFFFFFFFFFFF AND DUP2 MSTORE PUSH1 0x20 ADD SWAP1 DUP2 MSTORE PUSH1 0x20 ADD PUSH1 0x0 KECCAK256 PUSH1 0x0 DUP3 DUP3 SLOAD PUSH2 0x1588 SWAP2 SWAP1 PUSH2 0x2555 JUMP JUMPDEST SWAP3 POP POP DUP2 SWAP1 SSTORE POP DUP5 PUSH20 0xFFFFFFFFFFFFFFFFFFFFFFFFFFFFFFFFFFFFFFFF AND PUSH1 0x0 PUSH20 0xFFFFFFFFFFFFFFFFFFFFFFFFFFFFFFFFFFFFFFFF AND DUP3 PUSH20 0xFFFFFFFFFFFFFFFFFFFFFFFFFFFFFFFFFFFFFFFF AND PUSH32 0xC3D58168C5AE7397731D063D5BBF3D657854427343F4C083240F7AACAA2D0F62 DUP8 DUP8 PUSH1 0x40 MLOAD PUSH2 0x1606 SWAP3 SWAP2 SWAP1 PUSH2 0x2441 JUMP JUMPDEST PUSH1 0x40 MLOAD DUP1 SWAP2 SUB SWAP1 LOG4 PUSH2 0x161D DUP2 PUSH1 0x0 DUP8 DUP8 DUP8 DUP8 PUSH2 0x184B JUMP JUMPDEST POP POP POP POP POP JUMP JUMPDEST PUSH1 0x0 DUP1 PUSH1 0x14 TIMESTAMP CALLER PUSH1 0x40 MLOAD PUSH1 0x20 ADD PUSH2 0x163C SWAP3 SWAP2 SWAP1 PUSH2 0x2128 JUMP JUMPDEST PUSH1 0x40 MLOAD PUSH1 0x20 DUP2 DUP4 SUB SUB DUP2 MSTORE SWAP1 PUSH1 0x40 MSTORE DUP1 MLOAD SWAP1 PUSH1 0x20 ADD KECCAK256 PUSH1 0x0 SHR PUSH2 0x165F SWAP2 SWAP1 PUSH2 0x27A3 JUMP JUMPDEST SWAP1 POP DUP1 SWAP2 POP POP SWAP1 JUMP JUMPDEST PUSH1 0x60 PUSH1 0x0 DUP3 EQ ISZERO PUSH2 0x16B0 JUMPI PUSH1 0x40 MLOAD DUP1 PUSH1 0x40 ADD PUSH1 0x40 MSTORE DUP1 PUSH1 0x1 DUP2 MSTORE PUSH1 0x20 ADD PUSH32 0x3000000000000000000000000000000000000000000000000000000000000000 DUP2 MSTORE POP SWAP1 POP PUSH2 0x17C4 JUMP JUMPDEST PUSH1 0x0 DUP3 SWAP1 POP PUSH1 0x0 JUMPDEST PUSH1 0x0 DUP3 EQ PUSH2 0x16E2 JUMPI DUP1 DUP1 PUSH2 0x16CB SWAP1 PUSH2 0x272C JUMP JUMPDEST SWAP2 POP POP PUSH1 0xA DUP3 PUSH2 0x16DB SWAP2 SWAP1 PUSH2 0x25AB JUMP JUMPDEST SWAP2 POP PUSH2 0x16B8 JUMP JUMPDEST PUSH1 0x0 DUP2 PUSH8 0xFFFFFFFFFFFFFFFF DUP2 GT ISZERO PUSH2 0x16FE JUMPI PUSH2 0x16FD PUSH2 0x2890 JUMP JUMPDEST JUMPDEST PUSH1 0x40 MLOAD SWAP1 DUP1 DUP3 MSTORE DUP1 PUSH1 0x1F ADD PUSH1 0x1F NOT AND PUSH1 0x20 ADD DUP3 ADD PUSH1 0x40 MSTORE DUP1 ISZERO PUSH2 0x1730 JUMPI DUP2 PUSH1 0x20 ADD PUSH1 0x1 DUP3 MUL DUP1 CALLDATASIZE DUP4 CALLDATACOPY DUP1 DUP3 ADD SWAP2 POP POP SWAP1 POP JUMPDEST POP SWAP1 POP JUMPDEST PUSH1 0x0 DUP6 EQ PUSH2 0x17BD JUMPI PUSH1 0x1 DUP3 PUSH2 0x1749 SWAP2 SWAP1 PUSH2 0x25DC JUMP JUMPDEST SWAP2 POP PUSH1 0xA DUP6 PUSH2 0x1758 SWAP2 SWAP1 PUSH2 0x27A3 JUMP JUMPDEST PUSH1 0x30 PUSH2 0x1764 SWAP2 SWAP1 PUSH2 0x2555 JUMP JUMPDEST PUSH1 0xF8 SHL DUP2 DUP4 DUP2 MLOAD DUP2 LT PUSH2 0x177A JUMPI PUSH2 0x1779 PUSH2 0x2861 JUMP JUMPDEST JUMPDEST PUSH1 0x20 ADD ADD SWAP1 PUSH31 0xFFFFFFFFFFFFFFFFFFFFFFFFFFFFFFFFFFFFFFFFFFFFFFFFFFFFFFFFFFFFFF NOT AND SWAP1 DUP2 PUSH1 0x0 BYTE SWAP1 MSTORE8 POP PUSH1 0xA DUP6 PUSH2 0x17B6 SWAP2 SWAP1 PUSH2 0x25AB JUMP JUMPDEST SWAP5 POP PUSH2 0x1734 JUMP JUMPDEST DUP1 SWAP4 POP POP POP POP JUMPDEST SWAP2 SWAP1 POP JUMP JUMPDEST PUSH1 0x60 PUSH1 0x0 PUSH1 0x1 PUSH8 0xFFFFFFFFFFFFFFFF DUP2 GT ISZERO PUSH2 0x17E8 JUMPI PUSH2 0x17E7 PUSH2 0x2890 JUMP JUMPDEST JUMPDEST PUSH1 0x40 MLOAD SWAP1 DUP1 DUP3 MSTORE DUP1 PUSH1 0x20 MUL PUSH1 0x20 ADD DUP3 ADD PUSH1 0x40 MSTORE DUP1 ISZERO PUSH2 0x1816 JUMPI DUP2 PUSH1 0x20 ADD PUSH1 0x20 DUP3 MUL DUP1 CALLDATASIZE DUP4 CALLDATACOPY DUP1 DUP3 ADD SWAP2 POP POP SWAP1 POP JUMPDEST POP SWAP1 POP DUP3 DUP2 PUSH1 0x0 DUP2 MLOAD DUP2 LT PUSH2 0x182E JUMPI PUSH2 0x182D PUSH2 0x2861 JUMP JUMPDEST JUMPDEST PUSH1 0x20 MUL PUSH1 0x20 ADD ADD DUP2 DUP2 MSTORE POP POP DUP1 SWAP2 POP POP SWAP2 SWAP1 POP JUMP JUMPDEST POP POP POP POP POP POP JUMP JUMPDEST PUSH2 0x186A DUP5 PUSH20 0xFFFFFFFFFFFFFFFFFFFFFFFFFFFFFFFFFFFFFFFF AND PUSH2 0x1A32 JUMP JUMPDEST ISZERO PUSH2 0x1A2A JUMPI DUP4 PUSH20 0xFFFFFFFFFFFFFFFFFFFFFFFFFFFFFFFFFFFFFFFF AND PUSH4 0xAE89A248 DUP8 DUP8 DUP7 DUP7 DUP7 PUSH1 0x40 MLOAD DUP7 PUSH4 0xFFFFFFFF AND PUSH1 0xE0 SHL DUP2 MSTORE PUSH1 0x4 ADD PUSH2 0x18B0 SWAP6 SWAP5 SWAP4 SWAP3 SWAP2 SWAP1 PUSH2 0x216F JUMP JUMPDEST PUSH1 0x20 PUSH1 0x40 MLOAD DUP1 DUP4 SUB DUP2 PUSH1 0x0 DUP8 DUP1 EXTCODESIZE ISZERO DUP1 ISZERO PUSH2 0x18CA JUMPI PUSH1 0x0 DUP1 REVERT JUMPDEST POP GAS CALL SWAP3 POP POP POP DUP1 ISZERO PUSH2 0x18FB JUMPI POP PUSH1 0x40 MLOAD RETURNDATASIZE PUSH1 0x1F NOT PUSH1 0x1F DUP3 ADD AND DUP3 ADD DUP1 PUSH1 0x40 MSTORE POP DUP2 ADD SWAP1 PUSH2 0x18F8 SWAP2 SWAP1 PUSH2 0x1C63 JUMP JUMPDEST PUSH1 0x1 JUMPDEST PUSH2 0x19A1 JUMPI PUSH2 0x1907 PUSH2 0x28BF JUMP JUMPDEST DUP1 PUSH4 0x8C379A0 EQ ISZERO PUSH2 0x1964 JUMPI POP PUSH2 0x191C PUSH2 0x2BC1 JUMP JUMPDEST DUP1 PUSH2 0x1927 JUMPI POP PUSH2 0x1966 JUMP JUMPDEST DUP1 PUSH1 0x40 MLOAD PUSH32 0x8C379A000000000000000000000000000000000000000000000000000000000 DUP2 MSTORE PUSH1 0x4 ADD PUSH2 0x195B SWAP2 SWAP1 PUSH2 0x2274 JUMP JUMPDEST PUSH1 0x40 MLOAD DUP1 SWAP2 SUB SWAP1 REVERT JUMPDEST POP JUMPDEST PUSH1 0x40 MLOAD PUSH32 0x8C379A000000000000000000000000000000000000000000000000000000000 DUP2 MSTORE PUSH1 0x4 ADD PUSH2 0x1998 SWAP1 PUSH2 0x2296 JUMP JUMPDEST PUSH1 0x40 MLOAD DUP1 SWAP2 SUB SWAP1 REVERT JUMPDEST PUSH4 0xAE89A248 PUSH1 0xE0 SHL PUSH28 0xFFFFFFFFFFFFFFFFFFFFFFFFFFFFFFFFFFFFFFFFFFFFFFFFFFFFFFFF NOT AND DUP2 PUSH28 0xFFFFFFFFFFFFFFFFFFFFFFFFFFFFFFFFFFFFFFFFFFFFFFFFFFFFFFFF NOT AND EQ PUSH2 0x1A28 JUMPI PUSH1 0x40 MLOAD PUSH32 0x8C379A000000000000000000000000000000000000000000000000000000000 DUP2 MSTORE PUSH1 0x4 ADD PUSH2 0x1A1F SWAP1 PUSH2 0x22B6 JUMP JUMPDEST PUSH1 0x40 MLOAD DUP1 SWAP2 SUB SWAP1 REVERT JUMPDEST POP JUMPDEST POP POP POP POP POP POP JUMP JUMPDEST PUSH1 0x0 DUP1 DUP3 EXTCODESIZE SWAP1 POP PUSH1 0x0 DUP2 GT SWAP2 POP POP SWAP2 SWAP1 POP JUMP JUMPDEST DUP3 DUP1 SLOAD PUSH2 0x1A51 SWAP1 PUSH2 0x26C9 JUMP JUMPDEST SWAP1 PUSH1 0x0 MSTORE PUSH1 0x20 PUSH1 0x0 KECCAK256 SWAP1 PUSH1 0x1F ADD PUSH1 0x20 SWAP1 DIV DUP2 ADD SWAP3 DUP3 PUSH2 0x1A73 JUMPI PUSH1 0x0 DUP6 SSTORE PUSH2 0x1ABA JUMP JUMPDEST DUP3 PUSH1 0x1F LT PUSH2 0x1A8C JUMPI DUP1 MLOAD PUSH1 0xFF NOT AND DUP4 DUP1 ADD OR DUP6 SSTORE PUSH2 0x1ABA JUMP JUMPDEST DUP3 DUP1 ADD PUSH1 0x1 ADD DUP6 SSTORE DUP3 ISZERO PUSH2 0x1ABA JUMPI SWAP2 DUP3 ADD JUMPDEST DUP3 DUP2 GT ISZERO PUSH2 0x1AB9 JUMPI DUP3 MLOAD DUP3 SSTORE SWAP2 PUSH1 0x20 ADD SWAP2 SWAP1 PUSH1 0x1 ADD SWAP1 PUSH2 0x1A9E JUMP JUMPDEST JUMPDEST POP SWAP1 POP PUSH2 0x1AC7 SWAP2 SWAP1 PUSH2 0x1B58 JUMP JUMPDEST POP SWAP1 JUMP JUMPDEST DUP3 DUP1 SLOAD PUSH2 0x1AD7 SWAP1 PUSH2 0x26C9 JUMP JUMPDEST SWAP1 PUSH1 0x0 MSTORE PUSH1 0x20 PUSH1 0x0 KECCAK256 SWAP1 PUSH1 0x1F ADD PUSH1 0x20 SWAP1 DIV DUP2 ADD SWAP3 DUP3 PUSH2 0x1AF9 JUMPI PUSH1 0x0 DUP6 SSTORE PUSH2 0x1B47 JUMP JUMPDEST DUP3 PUSH1 0x1F LT PUSH2 0x1B0A JUMPI DUP1 SLOAD DUP6 SSTORE PUSH2 0x1B47 JUMP JUMPDEST DUP3 DUP1 ADD PUSH1 0x1 ADD DUP6 SSTORE DUP3 ISZERO PUSH2 0x1B47 JUMPI PUSH1 0x0 MSTORE PUSH1 0x20 PUSH1 0x0 KECCAK256 SWAP2 PUSH1 0x1F ADD PUSH1 0x20 SWAP1 DIV DUP3 ADD JUMPDEST DUP3 DUP2 GT ISZERO PUSH2 0x1B46 JUMPI DUP3 SLOAD DUP3 SSTORE SWAP2 PUSH1 0x1 ADD SWAP2 SWAP1 PUSH1 0x1 ADD SWAP1 PUSH2 0x1B2B JUMP JUMPDEST JUMPDEST POP SWAP1 POP PUSH2 0x1B54 SWAP2 SWAP1 PUSH2 0x1B58 JUMP JUMPDEST POP SWAP1 JUMP JUMPDEST JUMPDEST DUP1 DUP3 GT ISZERO PUSH2 0x1B71 JUMPI PUSH1 0x0 DUP2 PUSH1 0x0 SWAP1 SSTORE POP PUSH1 0x1 ADD PUSH2 0x1B59 JUMP JUMPDEST POP SWAP1 JUMP JUMPDEST PUSH1 0x0 DUP2 CALLDATALOAD SWAP1 POP PUSH2 0x1B84 DUP2 PUSH2 0x2C57 JUMP JUMPDEST SWAP3 SWAP2 POP POP JUMP JUMPDEST PUSH1 0x0 DUP2 CALLDATALOAD SWAP1 POP PUSH2 0x1B99 DUP2 PUSH2 0x2C6E JUMP JUMPDEST SWAP3 SWAP2 POP POP JUMP JUMPDEST PUSH1 0x0 DUP2 MLOAD SWAP1 POP PUSH2 0x1BAE DUP2 PUSH2 0x2C85 JUMP JUMPDEST SWAP3 SWAP2 POP POP JUMP JUMPDEST PUSH1 0x0 DUP2 CALLDATALOAD SWAP1 POP PUSH2 0x1BC3 DUP2 PUSH2 0x2C9C JUMP JUMPDEST SWAP3 SWAP2 POP POP JUMP JUMPDEST PUSH1 0x0 PUSH1 0x20 DUP3 DUP5 SUB SLT ISZERO PUSH2 0x1BDF JUMPI PUSH2 0x1BDE PUSH2 0x28E1 JUMP JUMPDEST JUMPDEST PUSH1 0x0 PUSH2 0x1BED DUP5 DUP3 DUP6 ADD PUSH2 0x1B75 JUMP JUMPDEST SWAP2 POP POP SWAP3 SWAP2 POP POP JUMP JUMPDEST PUSH1 0x0 PUSH1 0x20 DUP3 DUP5 SUB SLT ISZERO PUSH2 0x1C0C JUMPI PUSH2 0x1C0B PUSH2 0x28E1 JUMP JUMPDEST JUMPDEST PUSH1 0x0 PUSH2 0x1C1A DUP5 DUP3 DUP6 ADD PUSH2 0x1B8A JUMP JUMPDEST SWAP2 POP POP SWAP3 SWAP2 POP POP JUMP JUMPDEST PUSH1 0x0 DUP1 PUSH1 0x40 DUP4 DUP6 SUB SLT ISZERO PUSH2 0x1C3A JUMPI PUSH2 0x1C39 PUSH2 0x28E1 JUMP JUMPDEST JUMPDEST PUSH1 0x0 PUSH2 0x1C48 DUP6 DUP3 DUP7 ADD PUSH2 0x1B75 JUMP JUMPDEST SWAP3 POP POP PUSH1 0x20 PUSH2 0x1C59 DUP6 DUP3 DUP7 ADD PUSH2 0x1BB4 JUMP JUMPDEST SWAP2 POP POP SWAP3 POP SWAP3 SWAP1 POP JUMP JUMPDEST PUSH1 0x0 PUSH1 0x20 DUP3 DUP5 SUB SLT ISZERO PUSH2 0x1C79 JUMPI PUSH2 0x1C78 PUSH2 0x28E1 JUMP JUMPDEST JUMPDEST PUSH1 0x0 PUSH2 0x1C87 DUP5 DUP3 DUP6 ADD PUSH2 0x1B9F JUMP JUMPDEST SWAP2 POP POP SWAP3 SWAP2 POP POP JUMP JUMPDEST PUSH1 0x0 PUSH1 0x20 DUP3 DUP5 SUB SLT ISZERO PUSH2 0x1CA6 JUMPI PUSH2 0x1CA5 PUSH2 0x28E1 JUMP JUMPDEST JUMPDEST PUSH1 0x0 PUSH2 0x1CB4 DUP5 DUP3 DUP6 ADD PUSH2 0x1BB4 JUMP JUMPDEST SWAP2 POP POP SWAP3 SWAP2 POP POP JUMP JUMPDEST PUSH1 0x0 PUSH2 0x1CC9 DUP4 DUP4 PUSH2 0x1E00 JUMP JUMPDEST SWAP1 POP SWAP3 SWAP2 POP POP JUMP JUMPDEST PUSH1 0x0 PUSH2 0x1CDD DUP4 DUP4 PUSH2 0x208D JUMP JUMPDEST PUSH1 0x20 DUP4 ADD SWAP1 POP SWAP3 SWAP2 POP POP JUMP JUMPDEST PUSH2 0x1CF2 DUP2 PUSH2 0x2622 JUMP JUMPDEST DUP3 MSTORE POP POP JUMP JUMPDEST PUSH2 0x1D01 DUP2 PUSH2 0x2610 JUMP JUMPDEST DUP3 MSTORE POP POP JUMP JUMPDEST PUSH2 0x1D18 PUSH2 0x1D13 DUP3 PUSH2 0x2610 JUMP JUMPDEST PUSH2 0x2775 JUMP JUMPDEST DUP3 MSTORE POP POP JUMP JUMPDEST PUSH1 0x0 PUSH2 0x1D29 DUP3 PUSH2 0x24CB JUMP JUMPDEST PUSH2 0x1D33 DUP2 DUP6 PUSH2 0x2506 JUMP JUMPDEST SWAP4 POP DUP4 PUSH1 0x20 DUP3 MUL DUP6 ADD PUSH2 0x1D45 DUP6 PUSH2 0x24AB JUMP JUMPDEST DUP1 PUSH1 0x0 JUMPDEST DUP6 DUP2 LT ISZERO PUSH2 0x1D81 JUMPI DUP5 DUP5 SUB DUP10 MSTORE DUP2 MLOAD PUSH2 0x1D62 DUP6 DUP3 PUSH2 0x1CBD JUMP JUMPDEST SWAP5 POP PUSH2 0x1D6D DUP4 PUSH2 0x24EC JUMP JUMPDEST SWAP3 POP PUSH1 0x20 DUP11 ADD SWAP10 POP POP PUSH1 0x1 DUP2 ADD SWAP1 POP PUSH2 0x1D49 JUMP JUMPDEST POP DUP3 SWAP8 POP DUP8 SWAP6 POP POP POP POP POP POP SWAP3 SWAP2 POP POP JUMP JUMPDEST PUSH1 0x0 PUSH2 0x1D9E DUP3 PUSH2 0x24D6 JUMP JUMPDEST PUSH2 0x1DA8 DUP2 DUP6 PUSH2 0x2517 JUMP JUMPDEST SWAP4 POP PUSH2 0x1DB3 DUP4 PUSH2 0x24BB JUMP JUMPDEST DUP1 PUSH1 0x0 JUMPDEST DUP4 DUP2 LT ISZERO PUSH2 0x1DE4 JUMPI DUP2 MLOAD PUSH2 0x1DCB DUP9 DUP3 PUSH2 0x1CD1 JUMP JUMPDEST SWAP8 POP PUSH2 0x1DD6 DUP4 PUSH2 0x24F9 JUMP JUMPDEST SWAP3 POP POP PUSH1 0x1 DUP2 ADD SWAP1 POP PUSH2 0x1DB7 JUMP JUMPDEST POP DUP6 SWAP4 POP POP POP POP SWAP3 SWAP2 POP POP JUMP JUMPDEST PUSH2 0x1DFA DUP2 PUSH2 0x2634 JUMP JUMPDEST DUP3 MSTORE POP POP JUMP JUMPDEST PUSH1 0x0 PUSH2 0x1E0B DUP3 PUSH2 0x24E1 JUMP JUMPDEST PUSH2 0x1E15 DUP2 DUP6 PUSH2 0x2528 JUMP JUMPDEST SWAP4 POP PUSH2 0x1E25 DUP2 DUP6 PUSH1 0x20 DUP7 ADD PUSH2 0x2696 JUMP JUMPDEST PUSH2 0x1E2E DUP2 PUSH2 0x28E6 JUMP JUMPDEST DUP5 ADD SWAP2 POP POP SWAP3 SWAP2 POP POP JUMP JUMPDEST PUSH1 0x0 PUSH2 0x1E44 DUP3 PUSH2 0x24E1 JUMP JUMPDEST PUSH2 0x1E4E DUP2 DUP6 PUSH2 0x2539 JUMP JUMPDEST SWAP4 POP PUSH2 0x1E5E DUP2 DUP6 PUSH1 0x20 DUP7 ADD PUSH2 0x2696 JUMP JUMPDEST PUSH2 0x1E67 DUP2 PUSH2 0x28E6 JUMP JUMPDEST DUP5 ADD SWAP2 POP POP SWAP3 SWAP2 POP POP JUMP JUMPDEST PUSH1 0x0 PUSH2 0x1E7D DUP3 PUSH2 0x24E1 JUMP JUMPDEST PUSH2 0x1E87 DUP2 DUP6 PUSH2 0x254A JUMP JUMPDEST SWAP4 POP PUSH2 0x1E97 DUP2 DUP6 PUSH1 0x20 DUP7 ADD PUSH2 0x2696 JUMP JUMPDEST DUP1 DUP5 ADD SWAP2 POP POP SWAP3 SWAP2 POP POP JUMP JUMPDEST PUSH1 0x0 PUSH2 0x1EB0 PUSH1 0x34 DUP4 PUSH2 0x2539 JUMP JUMPDEST SWAP2 POP PUSH2 0x1EBB DUP3 PUSH2 0x2911 JUMP JUMPDEST PUSH1 0x40 DUP3 ADD SWAP1 POP SWAP2 SWAP1 POP JUMP JUMPDEST PUSH1 0x0 PUSH2 0x1ED3 PUSH1 0x28 DUP4 PUSH2 0x2539 JUMP JUMPDEST SWAP2 POP PUSH2 0x1EDE DUP3 PUSH2 0x2960 JUMP JUMPDEST PUSH1 0x40 DUP3 ADD SWAP1 POP SWAP2 SWAP1 POP JUMP JUMPDEST PUSH1 0x0 PUSH2 0x1EF6 PUSH1 0x8 DUP4 PUSH2 0x254A JUMP JUMPDEST SWAP2 POP PUSH2 0x1F01 DUP3 PUSH2 0x29AF JUMP JUMPDEST PUSH1 0x8 DUP3 ADD SWAP1 POP SWAP2 SWAP1 POP JUMP JUMPDEST PUSH1 0x0 PUSH2 0x1F19 PUSH1 0x5 DUP4 PUSH2 0x254A JUMP JUMPDEST SWAP2 POP PUSH2 0x1F24 DUP3 PUSH2 0x29D8 JUMP JUMPDEST PUSH1 0x5 DUP3 ADD SWAP1 POP SWAP2 SWAP1 POP JUMP JUMPDEST PUSH1 0x0 PUSH2 0x1F3C PUSH1 0x12 DUP4 PUSH2 0x2539 JUMP JUMPDEST SWAP2 POP PUSH2 0x1F47 DUP3 PUSH2 0x2A01 JUMP JUMPDEST PUSH1 0x20 DUP3 ADD SWAP1 POP SWAP2 SWAP1 POP JUMP JUMPDEST PUSH1 0x0 PUSH2 0x1F5F PUSH1 0x1B DUP4 PUSH2 0x2539 JUMP JUMPDEST SWAP2 POP PUSH2 0x1F6A DUP3 PUSH2 0x2A2A JUMP JUMPDEST PUSH1 0x20 DUP3 ADD SWAP1 POP SWAP2 SWAP1 POP JUMP JUMPDEST PUSH1 0x0 PUSH2 0x1F82 PUSH1 0x1B DUP4 PUSH2 0x2539 JUMP JUMPDEST SWAP2 POP PUSH2 0x1F8D DUP3 PUSH2 0x2A53 JUMP JUMPDEST PUSH1 0x20 DUP3 ADD SWAP1 POP SWAP2 SWAP1 POP JUMP JUMPDEST PUSH1 0x0 PUSH2 0x1FA5 PUSH1 0x15 DUP4 PUSH2 0x2539 JUMP JUMPDEST SWAP2 POP PUSH2 0x1FB0 DUP3 PUSH2 0x2A7C JUMP JUMPDEST PUSH1 0x20 DUP3 ADD SWAP1 POP SWAP2 SWAP1 POP JUMP JUMPDEST PUSH1 0x0 PUSH2 0x1FC8 PUSH1 0x1C DUP4 PUSH2 0x2539 JUMP JUMPDEST SWAP2 POP PUSH2 0x1FD3 DUP3 PUSH2 0x2AA5 JUMP JUMPDEST PUSH1 0x20 DUP3 ADD SWAP1 POP SWAP2 SWAP1 POP JUMP JUMPDEST PUSH1 0x0 PUSH2 0x1FEB PUSH1 0x1B DUP4 PUSH2 0x2539 JUMP JUMPDEST SWAP2 POP PUSH2 0x1FF6 DUP3 PUSH2 0x2ACE JUMP JUMPDEST PUSH1 0x20 DUP3 ADD SWAP1 POP SWAP2 SWAP1 POP JUMP JUMPDEST PUSH1 0x0 PUSH2 0x200E PUSH1 0x19 DUP4 PUSH2 0x2539 JUMP JUMPDEST SWAP2 POP PUSH2 0x2019 DUP3 PUSH2 0x2AF7 JUMP JUMPDEST PUSH1 0x20 DUP3 ADD SWAP1 POP SWAP2 SWAP1 POP JUMP JUMPDEST PUSH1 0x0 PUSH2 0x2031 PUSH1 0x7 DUP4 PUSH2 0x254A JUMP JUMPDEST SWAP2 POP PUSH2 0x203C DUP3 PUSH2 0x2B20 JUMP JUMPDEST PUSH1 0x7 DUP3 ADD SWAP1 POP SWAP2 SWAP1 POP JUMP JUMPDEST PUSH1 0x0 PUSH2 0x2054 PUSH1 0x1D DUP4 PUSH2 0x2539 JUMP JUMPDEST SWAP2 POP PUSH2 0x205F DUP3 PUSH2 0x2B49 JUMP JUMPDEST PUSH1 0x20 DUP3 ADD SWAP1 POP SWAP2 SWAP1 POP JUMP JUMPDEST PUSH1 0x0 PUSH2 0x2077 PUSH1 0x21 DUP4 PUSH2 0x2539 JUMP JUMPDEST SWAP2 POP PUSH2 0x2082 DUP3 PUSH2 0x2B72 JUMP JUMPDEST PUSH1 0x40 DUP3 ADD SWAP1 POP SWAP2 SWAP1 POP JUMP JUMPDEST PUSH2 0x2096 DUP2 PUSH2 0x268C JUMP JUMPDEST DUP3 MSTORE POP POP JUMP JUMPDEST PUSH2 0x20A5 DUP2 PUSH2 0x268C JUMP JUMPDEST DUP3 MSTORE POP POP JUMP JUMPDEST PUSH2 0x20BC PUSH2 0x20B7 DUP3 PUSH2 0x268C JUMP JUMPDEST PUSH2 0x2799 JUMP JUMPDEST DUP3 MSTORE POP POP JUMP JUMPDEST PUSH1 0x0 PUSH2 0x20CD DUP3 PUSH2 0x1EE9 JUMP JUMPDEST SWAP2 POP PUSH2 0x20D9 DUP3 DUP5 PUSH2 0x1E72 JUMP JUMPDEST SWAP2 POP DUP2 SWAP1 POP SWAP3 SWAP2 POP POP JUMP JUMPDEST PUSH1 0x0 PUSH2 0x20EF DUP3 PUSH2 0x1F0C JUMP JUMPDEST SWAP2 POP PUSH2 0x20FB DUP3 DUP5 PUSH2 0x1E72 JUMP JUMPDEST SWAP2 POP DUP2 SWAP1 POP SWAP3 SWAP2 POP POP JUMP JUMPDEST PUSH1 0x0 PUSH2 0x2111 DUP3 PUSH2 0x2024 JUMP JUMPDEST SWAP2 POP PUSH2 0x211D DUP3 DUP5 PUSH2 0x1E72 JUMP JUMPDEST SWAP2 POP DUP2 SWAP1 POP SWAP3 SWAP2 POP POP JUMP JUMPDEST PUSH1 0x0 PUSH2 0x2134 DUP3 DUP6 PUSH2 0x20AB JUMP JUMPDEST PUSH1 0x20 DUP3 ADD SWAP2 POP PUSH2 0x2144 DUP3 DUP5 PUSH2 0x1D07 JUMP JUMPDEST PUSH1 0x14 DUP3 ADD SWAP2 POP DUP2 SWAP1 POP SWAP4 SWAP3 POP POP POP JUMP JUMPDEST PUSH1 0x0 PUSH1 0x20 DUP3 ADD SWAP1 POP PUSH2 0x2169 PUSH1 0x0 DUP4 ADD DUP5 PUSH2 0x1CE9 JUMP JUMPDEST SWAP3 SWAP2 POP POP JUMP JUMPDEST PUSH1 0x0 PUSH1 0xA0 DUP3 ADD SWAP1 POP PUSH2 0x2184 PUSH1 0x0 DUP4 ADD DUP9 PUSH2 0x1CF8 JUMP JUMPDEST PUSH2 0x2191 PUSH1 0x20 DUP4 ADD DUP8 PUSH2 0x1CF8 JUMP JUMPDEST PUSH2 0x219E PUSH1 0x40 DUP4 ADD DUP7 PUSH2 0x209C JUMP JUMPDEST PUSH2 0x21AB PUSH1 0x60 DUP4 ADD DUP6 PUSH2 0x209C JUMP JUMPDEST DUP2 DUP2 SUB PUSH1 0x80 DUP4 ADD MSTORE PUSH2 0x21BD DUP2 DUP5 PUSH2 0x1E39 JUMP JUMPDEST SWAP1 POP SWAP7 SWAP6 POP POP POP POP POP POP JUMP JUMPDEST PUSH1 0x0 PUSH1 0x20 DUP3 ADD SWAP1 POP DUP2 DUP2 SUB PUSH1 0x0 DUP4 ADD MSTORE PUSH2 0x21E3 DUP2 DUP5 PUSH2 0x1D93 JUMP JUMPDEST SWAP1 POP SWAP3 SWAP2 POP POP JUMP JUMPDEST PUSH1 0x0 PUSH1 0x40 DUP3 ADD SWAP1 POP DUP2 DUP2 SUB PUSH1 0x0 DUP4 ADD MSTORE PUSH2 0x2205 DUP2 DUP6 PUSH2 0x1D93 JUMP JUMPDEST SWAP1 POP DUP2 DUP2 SUB PUSH1 0x20 DUP4 ADD MSTORE PUSH2 0x2219 DUP2 DUP5 PUSH2 0x1D1E JUMP JUMPDEST SWAP1 POP SWAP4 SWAP3 POP POP POP JUMP JUMPDEST PUSH1 0x0 PUSH1 0x40 DUP3 ADD SWAP1 POP DUP2 DUP2 SUB PUSH1 0x0 DUP4 ADD MSTORE PUSH2 0x223C DUP2 DUP6 PUSH2 0x1D93 JUMP JUMPDEST SWAP1 POP DUP2 DUP2 SUB PUSH1 0x20 DUP4 ADD MSTORE PUSH2 0x2250 DUP2 DUP5 PUSH2 0x1E39 JUMP JUMPDEST SWAP1 POP SWAP4 SWAP3 POP POP POP JUMP JUMPDEST PUSH1 0x0 PUSH1 0x20 DUP3 ADD SWAP1 POP PUSH2 0x226E PUSH1 0x0 DUP4 ADD DUP5 PUSH2 0x1DF1 JUMP JUMPDEST SWAP3 SWAP2 POP POP JUMP JUMPDEST PUSH1 0x0 PUSH1 0x20 DUP3 ADD SWAP1 POP DUP2 DUP2 SUB PUSH1 0x0 DUP4 ADD MSTORE PUSH2 0x228E DUP2 DUP5 PUSH2 0x1E39 JUMP JUMPDEST SWAP1 POP SWAP3 SWAP2 POP POP JUMP JUMPDEST PUSH1 0x0 PUSH1 0x20 DUP3 ADD SWAP1 POP DUP2 DUP2 SUB PUSH1 0x0 DUP4 ADD MSTORE PUSH2 0x22AF DUP2 PUSH2 0x1EA3 JUMP JUMPDEST SWAP1 POP SWAP2 SWAP1 POP JUMP JUMPDEST PUSH1 0x0 PUSH1 0x20 DUP3 ADD SWAP1 POP DUP2 DUP2 SUB PUSH1 0x0 DUP4 ADD MSTORE PUSH2 0x22CF DUP2 PUSH2 0x1EC6 JUMP JUMPDEST SWAP1 POP SWAP2 SWAP1 POP JUMP JUMPDEST PUSH1 0x0 PUSH1 0x20 DUP3 ADD SWAP1 POP DUP2 DUP2 SUB PUSH1 0x0 DUP4 ADD MSTORE PUSH2 0x22EF DUP2 PUSH2 0x1F2F JUMP JUMPDEST SWAP1 POP SWAP2 SWAP1 POP JUMP JUMPDEST PUSH1 0x0 PUSH1 0x20 DUP3 ADD SWAP1 POP DUP2 DUP2 SUB PUSH1 0x0 DUP4 ADD MSTORE PUSH2 0x230F DUP2 PUSH2 0x1F52 JUMP JUMPDEST SWAP1 POP SWAP2 SWAP1 POP JUMP JUMPDEST PUSH1 0x0 PUSH1 0x20 DUP3 ADD SWAP1 POP DUP2 DUP2 SUB PUSH1 0x0 DUP4 ADD MSTORE PUSH2 0x232F DUP2 PUSH2 0x1F75 JUMP JUMPDEST SWAP1 POP SWAP2 SWAP1 POP JUMP JUMPDEST PUSH1 0x0 PUSH1 0x20 DUP3 ADD SWAP1 POP DUP2 DUP2 SUB PUSH1 0x0 DUP4 ADD MSTORE PUSH2 0x234F DUP2 PUSH2 0x1F98 JUMP JUMPDEST SWAP1 POP SWAP2 SWAP1 POP JUMP JUMPDEST PUSH1 0x0 PUSH1 0x20 DUP3 ADD SWAP1 POP DUP2 DUP2 SUB PUSH1 0x0 DUP4 ADD MSTORE PUSH2 0x236F DUP2 PUSH2 0x1FBB JUMP JUMPDEST SWAP1 POP SWAP2 SWAP1 POP JUMP JUMPDEST PUSH1 0x0 PUSH1 0x20 DUP3 ADD SWAP1 POP DUP2 DUP2 SUB PUSH1 0x0 DUP4 ADD MSTORE PUSH2 0x238F DUP2 PUSH2 0x1FDE JUMP JUMPDEST SWAP1 POP SWAP2 SWAP1 POP JUMP JUMPDEST PUSH1 0x0 PUSH1 0x20 DUP3 ADD SWAP1 POP DUP2 DUP2 SUB PUSH1 0x0 DUP4 ADD MSTORE PUSH2 0x23AF DUP2 PUSH2 0x2001 JUMP JUMPDEST SWAP1 POP SWAP2 SWAP1 POP JUMP JUMPDEST PUSH1 0x0 PUSH1 0x20 DUP3 ADD SWAP1 POP DUP2 DUP2 SUB PUSH1 0x0 DUP4 ADD MSTORE PUSH2 0x23CF DUP2 PUSH2 0x2047 JUMP JUMPDEST SWAP1 POP SWAP2 SWAP1 POP JUMP JUMPDEST PUSH1 0x0 PUSH1 0x20 DUP3 ADD SWAP1 POP DUP2 DUP2 SUB PUSH1 0x0 DUP4 ADD MSTORE PUSH2 0x23EF DUP2 PUSH2 0x206A JUMP JUMPDEST SWAP1 POP SWAP2 SWAP1 POP JUMP JUMPDEST PUSH1 0x0 PUSH1 0x20 DUP3 ADD SWAP1 POP PUSH2 0x240B PUSH1 0x0 DUP4 ADD DUP5 PUSH2 0x209C JUMP JUMPDEST SWAP3 SWAP2 POP POP JUMP JUMPDEST PUSH1 0x0 PUSH1 0x40 DUP3 ADD SWAP1 POP PUSH2 0x2426 PUSH1 0x0 DUP4 ADD DUP6 PUSH2 0x209C JUMP JUMPDEST DUP2 DUP2 SUB PUSH1 0x20 DUP4 ADD MSTORE PUSH2 0x2438 DUP2 DUP5 PUSH2 0x1E39 JUMP JUMPDEST SWAP1 POP SWAP4 SWAP3 POP POP POP JUMP JUMPDEST PUSH1 0x0 PUSH1 0x40 DUP3 ADD SWAP1 POP PUSH2 0x2456 PUSH1 0x0 DUP4 ADD DUP6 PUSH2 0x209C JUMP JUMPDEST PUSH2 0x2463 PUSH1 0x20 DUP4 ADD DUP5 PUSH2 0x209C JUMP JUMPDEST SWAP4 SWAP3 POP POP POP JUMP JUMPDEST PUSH1 0x0 PUSH1 0x60 DUP3 ADD SWAP1 POP PUSH2 0x247F PUSH1 0x0 DUP4 ADD DUP7 PUSH2 0x209C JUMP JUMPDEST PUSH2 0x248C PUSH1 0x20 DUP4 ADD DUP6 PUSH2 0x209C JUMP JUMPDEST PUSH2 0x2499 PUSH1 0x40 DUP4 ADD DUP5 PUSH2 0x209C JUMP JUMPDEST SWAP5 SWAP4 POP POP POP POP JUMP JUMPDEST PUSH1 0x0 PUSH1 0x40 MLOAD SWAP1 POP SWAP1 JUMP JUMPDEST PUSH1 0x0 DUP2 SWAP1 POP PUSH1 0x20 DUP3 ADD SWAP1 POP SWAP2 SWAP1 POP JUMP JUMPDEST PUSH1 0x0 DUP2 SWAP1 POP PUSH1 0x20 DUP3 ADD SWAP1 POP SWAP2 SWAP1 POP JUMP JUMPDEST PUSH1 0x0 DUP2 MLOAD SWAP1 POP SWAP2 SWAP1 POP JUMP JUMPDEST PUSH1 0x0 DUP2 MLOAD SWAP1 POP SWAP2 SWAP1 POP JUMP JUMPDEST PUSH1 0x0 DUP2 MLOAD SWAP1 POP SWAP2 SWAP1 POP JUMP JUMPDEST PUSH1 0x0 PUSH1 0x20 DUP3 ADD SWAP1 POP SWAP2 SWAP1 POP JUMP JUMPDEST PUSH1 0x0 PUSH1 0x20 DUP3 ADD SWAP1 POP SWAP2 SWAP1 POP JUMP JUMPDEST PUSH1 0x0 DUP3 DUP3 MSTORE PUSH1 0x20 DUP3 ADD SWAP1 POP SWAP3 SWAP2 POP POP JUMP JUMPDEST PUSH1 0x0 DUP3 DUP3 MSTORE PUSH1 0x20 DUP3 ADD SWAP1 POP SWAP3 SWAP2 POP POP JUMP JUMPDEST PUSH1 0x0 DUP3 DUP3 MSTORE PUSH1 0x20 DUP3 ADD SWAP1 POP SWAP3 SWAP2 POP POP JUMP JUMPDEST PUSH1 0x0 DUP3 DUP3 MSTORE PUSH1 0x20 DUP3 ADD SWAP1 POP SWAP3 SWAP2 POP POP JUMP JUMPDEST PUSH1 0x0 DUP2 SWAP1 POP SWAP3 SWAP2 POP POP JUMP JUMPDEST PUSH1 0x0 PUSH2 0x2560 DUP3 PUSH2 0x268C JUMP JUMPDEST SWAP2 POP PUSH2 0x256B DUP4 PUSH2 0x268C JUMP JUMPDEST SWAP3 POP DUP3 PUSH32 0xFFFFFFFFFFFFFFFFFFFFFFFFFFFFFFFFFFFFFFFFFFFFFFFFFFFFFFFFFFFFFFFF SUB DUP3 GT ISZERO PUSH2 0x25A0 JUMPI PUSH2 0x259F PUSH2 0x27D4 JUMP JUMPDEST JUMPDEST DUP3 DUP3 ADD SWAP1 POP SWAP3 SWAP2 POP POP JUMP JUMPDEST PUSH1 0x0 PUSH2 0x25B6 DUP3 PUSH2 0x268C JUMP JUMPDEST SWAP2 POP PUSH2 0x25C1 DUP4 PUSH2 0x268C JUMP JUMPDEST SWAP3 POP DUP3 PUSH2 0x25D1 JUMPI PUSH2 0x25D0 PUSH2 0x2803 JUMP JUMPDEST JUMPDEST DUP3 DUP3 DIV SWAP1 POP SWAP3 SWAP2 POP POP JUMP JUMPDEST PUSH1 0x0 PUSH2 0x25E7 DUP3 PUSH2 0x268C JUMP JUMPDEST SWAP2 POP PUSH2 0x25F2 DUP4 PUSH2 0x268C JUMP JUMPDEST SWAP3 POP DUP3 DUP3 LT ISZERO PUSH2 0x2605 JUMPI PUSH2 0x2604 PUSH2 0x27D4 JUMP JUMPDEST JUMPDEST DUP3 DUP3 SUB SWAP1 POP SWAP3 SWAP2 POP POP JUMP JUMPDEST PUSH1 0x0 PUSH2 0x261B DUP3 PUSH2 0x266C JUMP JUMPDEST SWAP1 POP SWAP2 SWAP1 POP JUMP JUMPDEST PUSH1 0x0 PUSH2 0x262D DUP3 PUSH2 0x266C JUMP JUMPDEST SWAP1 POP SWAP2 SWAP1 POP JUMP JUMPDEST PUSH1 0x0 DUP2 ISZERO ISZERO SWAP1 POP SWAP2 SWAP1 POP JUMP JUMPDEST PUSH1 0x0 PUSH32 0xFFFFFFFF00000000000000000000000000000000000000000000000000000000 DUP3 AND SWAP1 POP SWAP2 SWAP1 POP JUMP JUMPDEST PUSH1 0x0 PUSH20 0xFFFFFFFFFFFFFFFFFFFFFFFFFFFFFFFFFFFFFFFF DUP3 AND SWAP1 POP SWAP2 SWAP1 POP JUMP JUMPDEST PUSH1 0x0 DUP2 SWAP1 POP SWAP2 SWAP1 POP JUMP JUMPDEST PUSH1 0x0 JUMPDEST DUP4 DUP2 LT ISZERO PUSH2 0x26B4 JUMPI DUP1 DUP3 ADD MLOAD DUP2 DUP5 ADD MSTORE PUSH1 0x20 DUP2 ADD SWAP1 POP PUSH2 0x2699 JUMP JUMPDEST DUP4 DUP2 GT ISZERO PUSH2 0x26C3 JUMPI PUSH1 0x0 DUP5 DUP5 ADD MSTORE JUMPDEST POP POP POP POP JUMP JUMPDEST PUSH1 0x0 PUSH1 0x2 DUP3 DIV SWAP1 POP PUSH1 0x1 DUP3 AND DUP1 PUSH2 0x26E1 JUMPI PUSH1 0x7F DUP3 AND SWAP2 POP JUMPDEST PUSH1 0x20 DUP3 LT DUP2 EQ ISZERO PUSH2 0x26F5 JUMPI PUSH2 0x26F4 PUSH2 0x2832 JUMP JUMPDEST JUMPDEST POP SWAP2 SWAP1 POP JUMP JUMPDEST PUSH2 0x2704 DUP3 PUSH2 0x28E6 JUMP JUMPDEST DUP2 ADD DUP2 DUP2 LT PUSH8 0xFFFFFFFFFFFFFFFF DUP3 GT OR ISZERO PUSH2 0x2723 JUMPI PUSH2 0x2722 PUSH2 0x2890 JUMP JUMPDEST JUMPDEST DUP1 PUSH1 0x40 MSTORE POP POP POP JUMP JUMPDEST PUSH1 0x0 PUSH2 0x2737 DUP3 PUSH2 0x268C JUMP JUMPDEST SWAP2 POP PUSH32 0xFFFFFFFFFFFFFFFFFFFFFFFFFFFFFFFFFFFFFFFFFFFFFFFFFFFFFFFFFFFFFFFF DUP3 EQ ISZERO PUSH2 0x276A JUMPI PUSH2 0x2769 PUSH2 0x27D4 JUMP JUMPDEST JUMPDEST PUSH1 0x1 DUP3 ADD SWAP1 POP SWAP2 SWAP1 POP JUMP JUMPDEST PUSH1 0x0 PUSH2 0x2780 DUP3 PUSH2 0x2787 JUMP JUMPDEST SWAP1 POP SWAP2 SWAP1 POP JUMP JUMPDEST PUSH1 0x0 PUSH2 0x2792 DUP3 PUSH2 0x28F7 JUMP JUMPDEST SWAP1 POP SWAP2 SWAP1 POP JUMP JUMPDEST PUSH1 0x0 DUP2 SWAP1 POP SWAP2 SWAP1 POP JUMP JUMPDEST PUSH1 0x0 PUSH2 0x27AE DUP3 PUSH2 0x268C JUMP JUMPDEST SWAP2 POP PUSH2 0x27B9 DUP4 PUSH2 0x268C JUMP JUMPDEST SWAP3 POP DUP3 PUSH2 0x27C9 JUMPI PUSH2 0x27C8 PUSH2 0x2803 JUMP JUMPDEST JUMPDEST DUP3 DUP3 MOD SWAP1 POP SWAP3 SWAP2 POP POP JUMP JUMPDEST PUSH32 0x4E487B7100000000000000000000000000000000000000000000000000000000 PUSH1 0x0 MSTORE PUSH1 0x11 PUSH1 0x4 MSTORE PUSH1 0x24 PUSH1 0x0 REVERT JUMPDEST PUSH32 0x4E487B7100000000000000000000000000000000000000000000000000000000 PUSH1 0x0 MSTORE PUSH1 0x12 PUSH1 0x4 MSTORE PUSH1 0x24 PUSH1 0x0 REVERT JUMPDEST PUSH32 0x4E487B7100000000000000000000000000000000000000000000000000000000 PUSH1 0x0 MSTORE PUSH1 0x22 PUSH1 0x4 MSTORE PUSH1 0x24 PUSH1 0x0 REVERT JUMPDEST PUSH32 0x4E487B7100000000000000000000000000000000000000000000000000000000 PUSH1 0x0 MSTORE PUSH1 0x32 PUSH1 0x4 MSTORE PUSH1 0x24 PUSH1 0x0 REVERT JUMPDEST PUSH32 0x4E487B7100000000000000000000000000000000000000000000000000000000 PUSH1 0x0 MSTORE PUSH1 0x41 PUSH1 0x4 MSTORE PUSH1 0x24 PUSH1 0x0 REVERT JUMPDEST PUSH1 0x0 PUSH1 0x3 RETURNDATASIZE GT ISZERO PUSH2 0x28DE JUMPI PUSH1 0x4 PUSH1 0x0 DUP1 RETURNDATACOPY PUSH2 0x28DB PUSH1 0x0 MLOAD PUSH2 0x2904 JUMP JUMPDEST SWAP1 POP JUMPDEST SWAP1 JUMP JUMPDEST PUSH1 0x0 DUP1 REVERT JUMPDEST PUSH1 0x0 PUSH1 0x1F NOT PUSH1 0x1F DUP4 ADD AND SWAP1 POP SWAP2 SWAP1 POP JUMP JUMPDEST PUSH1 0x0 DUP2 PUSH1 0x60 SHL SWAP1 POP SWAP2 SWAP1 POP JUMP JUMPDEST PUSH1 0x0 DUP2 PUSH1 0xE0 SHR SWAP1 POP SWAP2 SWAP1 POP JUMP JUMPDEST PUSH32 0x455243313135353A207472616E7366657220746F206E6F6E2045524331313535 PUSH1 0x0 DUP3 ADD MSTORE PUSH32 0x526563656976657220696D706C656D656E746572000000000000000000000000 PUSH1 0x20 DUP3 ADD MSTORE POP JUMP JUMPDEST PUSH32 0x455243313135353A204552433131353552656365697665722072656A65637465 PUSH1 0x0 DUP3 ADD MSTORE PUSH32 0x6420746F6B656E73000000000000000000000000000000000000000000000000 PUSH1 0x20 DUP3 ADD MSTORE POP JUMP JUMPDEST PUSH32 0x4469616D6F6E645F000000000000000000000000000000000000000000000000 PUSH1 0x0 DUP3 ADD MSTORE POP JUMP JUMPDEST PUSH32 0x476F6C645F000000000000000000000000000000000000000000000000000000 PUSH1 0x0 DUP3 ADD MSTORE POP JUMP JUMPDEST PUSH32 0x4E6F7420456E6F7567682042616C616E63650000000000000000000000000000 PUSH1 0x0 DUP3 ADD MSTORE POP JUMP JUMPDEST PUSH32 0x44726F707369746520697320616C72656164792052756E6E696E670000000000 PUSH1 0x0 DUP3 ADD MSTORE POP JUMP JUMPDEST PUSH32 0x44726F707369746520697320616C72656164792053746F707065640000000000 PUSH1 0x0 DUP3 ADD MSTORE POP JUMP JUMPDEST PUSH32 0x596F752063616E206D696E7420312D33204E4654730000000000000000000000 PUSH1 0x0 DUP3 ADD MSTORE POP JUMP JUMPDEST PUSH32 0x4F6E6C79204E46542D4553204F776E65722063616E2041636365737300000000 PUSH1 0x0 DUP3 ADD MSTORE POP JUMP JUMPDEST PUSH32 0x44726F7073697465206973206E6F74204F70656E6564205965742E0000000000 PUSH1 0x0 DUP3 ADD MSTORE POP JUMP JUMPDEST PUSH32 0x4D6178204D696E74696E67204C696D6974207265616368656400000000000000 PUSH1 0x0 DUP3 ADD MSTORE POP JUMP JUMPDEST PUSH32 0x53696C7665725F00000000000000000000000000000000000000000000000000 PUSH1 0x0 DUP3 ADD MSTORE POP JUMP JUMPDEST PUSH32 0x4572726F7221204E6F2042616C616E636520746F207769746864726177000000 PUSH1 0x0 DUP3 ADD MSTORE POP JUMP JUMPDEST PUSH32 0x455243313135353A206D696E7420746F20746865207A65726F20616464726573 PUSH1 0x0 DUP3 ADD MSTORE PUSH32 0x7300000000000000000000000000000000000000000000000000000000000000 PUSH1 0x20 DUP3 ADD MSTORE POP JUMP JUMPDEST PUSH1 0x0 PUSH1 0x44 RETURNDATASIZE LT ISZERO PUSH2 0x2BD1 JUMPI PUSH2 0x2C54 JUMP JUMPDEST PUSH2 0x2BD9 PUSH2 0x24A1 JUMP JUMPDEST PUSH1 0x4 RETURNDATASIZE SUB PUSH1 0x4 DUP3 RETURNDATACOPY DUP1 MLOAD RETURNDATASIZE PUSH1 0x24 DUP3 ADD GT PUSH8 0xFFFFFFFFFFFFFFFF DUP3 GT OR ISZERO PUSH2 0x2C01 JUMPI POP POP PUSH2 0x2C54 JUMP JUMPDEST DUP1 DUP3 ADD DUP1 MLOAD PUSH8 0xFFFFFFFFFFFFFFFF DUP2 GT ISZERO PUSH2 0x2C1F JUMPI POP POP POP POP PUSH2 0x2C54 JUMP JUMPDEST DUP1 PUSH1 0x20 DUP4 ADD ADD PUSH1 0x4 RETURNDATASIZE SUB DUP6 ADD DUP2 GT ISZERO PUSH2 0x2C3C JUMPI POP POP POP POP POP PUSH2 0x2C54 JUMP JUMPDEST PUSH2 0x2C4B DUP3 PUSH1 0x20 ADD DUP6 ADD DUP7 PUSH2 0x26FB JUMP JUMPDEST DUP3 SWAP6 POP POP POP POP POP POP JUMPDEST SWAP1 JUMP JUMPDEST PUSH2 0x2C60 DUP2 PUSH2 0x2610 JUMP JUMPDEST DUP2 EQ PUSH2 0x2C6B JUMPI PUSH1 0x0 DUP1 REVERT JUMPDEST POP JUMP JUMPDEST PUSH2 0x2C77 DUP2 PUSH2 0x2622 JUMP JUMPDEST DUP2 EQ PUSH2 0x2C82 JUMPI PUSH1 0x0 DUP1 REVERT JUMPDEST POP JUMP JUMPDEST PUSH2 0x2C8E DUP2 PUSH2 0x2640 JUMP JUMPDEST DUP2 EQ PUSH2 0x2C99 JUMPI PUSH1 0x0 DUP1 REVERT JUMPDEST POP JUMP JUMPDEST PUSH2 0x2CA5 DUP2 PUSH2 0x268C JUMP JUMPDEST DUP2 EQ PUSH2 0x2CB0 JUMPI PUSH1 0x0 DUP1 REVERT JUMPDEST POP JUMP INVALID LOG2 PUSH5 0x6970667358 0x22 SLT KECCAK256 PUSH5 0xBAA639690A 0xE1 0xD3 PUSH24 0xB455C436083C3120CBA09D8680E4BED46BAC95241F1ADA64 PUSH20 0x6F6C634300080700330000000000000000000000 "
				},
				"gasEstimates": {
					"creation": {
						"codeDepositCost": "2299400",
						"executionCost": "infinite",
						"totalCost": "infinite"
					},
					"external": {
						"ContractBalance()": "2758",
						"CryptoRandomMint(address)": "infinite",
						"FiatRandomMint(address,uint256)": "infinite",
						"IsPaused()": "2539",
						"Owner()": "2608",
						"checkMintedCategoryWise()": "infinite",
						"checkTotalMinted()": "4716",
						"getMintFee()": "6930",
						"openDropsite()": "28860",
						"randomMinting(address)": "infinite",
						"returnOwner(address)": "infinite",
						"setMintFee(uint256)": "27012",
						"stopDropsite()": "28859",
						"withDraw(address)": "infinite"
					},
					"internal": {
						"depositAmount(address,uint256)": "infinite",
						"random()": "infinite",
						"updateConditions()": "infinite"
					}
				},
				"methodIdentifiers": {
					"ContractBalance()": "3b668059",
					"CryptoRandomMint(address)": "3d65df70",
					"FiatRandomMint(address,uint256)": "27a8a072",
					"IsPaused()": "1309a563",
					"Owner()": "b4a99a4e",
					"checkMintedCategoryWise()": "60daa851",
					"checkTotalMinted()": "0390c11c",
					"getMintFee()": "7a5caab3",
					"openDropsite()": "15460259",
					"randomMinting(address)": "546fd992",
					"returnOwner(address)": "fd6c3b1b",
					"setMintFee(uint256)": "eddd0d9c",
					"stopDropsite()": "aa90c726",
					"withDraw(address)": "0a67d2c7"
				}
			},
			"userdoc": {
				"kind": "user",
				"methods": {},
				"version": 1
			}
		}
	}
}