{
	"Dropsite.sol": {
		"Dropsite": {
			"abi": [
				{
					"inputs": [
						{
							"internalType": "string",
							"name": "name",
							"type": "string"
						}
					],
					"stateMutability": "nonpayable",
					"type": "constructor"
				},
				{
					"anonymous": false,
					"inputs": [
						{
							"indexed": true,
							"internalType": "address",
							"name": "operator",
							"type": "address"
						},
						{
							"indexed": true,
							"internalType": "address",
							"name": "from",
							"type": "address"
						},
						{
							"indexed": true,
							"internalType": "address",
							"name": "to",
							"type": "address"
						},
						{
							"indexed": false,
							"internalType": "uint256",
							"name": "id",
							"type": "uint256"
						},
						{
							"indexed": false,
							"internalType": "uint256",
							"name": "value",
							"type": "uint256"
						}
					],
					"name": "TransferSingle",
					"type": "event"
				},
				{
					"inputs": [],
					"name": "IsPaused",
					"outputs": [
						{
							"internalType": "bool",
							"name": "",
							"type": "bool"
						}
					],
					"stateMutability": "view",
					"type": "function"
				},
				{
					"inputs": [],
					"name": "Owner",
					"outputs": [
						{
							"internalType": "address payable",
							"name": "",
							"type": "address"
						}
					],
					"stateMutability": "view",
					"type": "function"
				},
				{
					"inputs": [],
					"name": "checkMintedCategoryWise",
					"outputs": [
						{
							"internalType": "uint256",
							"name": "",
							"type": "uint256"
						},
						{
							"internalType": "uint256",
							"name": "",
							"type": "uint256"
						},
						{
							"internalType": "uint256",
							"name": "",
							"type": "uint256"
						}
					],
					"stateMutability": "view",
					"type": "function"
				},
				{
					"inputs": [],
					"name": "openDropsite",
					"outputs": [],
					"stateMutability": "nonpayable",
					"type": "function"
				},
				{
					"inputs": [
						{
							"internalType": "address",
							"name": "user_addr",
							"type": "address"
						}
					],
					"name": "randomMint",
					"outputs": [
						{
							"internalType": "uint256",
							"name": "",
							"type": "uint256"
						},
						{
							"internalType": "string",
							"name": "",
							"type": "string"
						}
					],
					"stateMutability": "nonpayable",
					"type": "function"
				},
				{
					"inputs": [],
					"name": "stopDropsite",
					"outputs": [],
					"stateMutability": "nonpayable",
					"type": "function"
				}
			],
			"devdoc": {
				"kind": "dev",
				"methods": {},
				"version": 1
			},
			"evm": {
				"assembly": "    /* \"Dropsite.sol\":122:2862  contract Dropsite is ERC1155_Dropsite  { ... */\n  mstore(0x40, 0x80)\n    /* \"Dropsite.sol\":190:205  bytes  data =\"\" */\n  mload(0x40)\n  dup1\n  0x20\n  add\n  0x40\n  mstore\n  dup1\n  0x00\n  dup2\n  mstore\n  pop\n  0x02\n  swap1\n  dup1\n  mload\n  swap1\n  0x20\n  add\n  swap1\n  tag_1\n  swap3\n  swap2\n  swap1\n  tag_2\n  jump\t// in\ntag_1:\n  pop\n    /* \"Dropsite.sol\":799:803  true */\n  0x01\n    /* \"Dropsite.sol\":776:803  bool public IsPaused = true */\n  0x0a\n  exp(0x0100, 0x00)\n  dup2\n  sload\n  dup2\n  0xff\n  mul\n  not\n  and\n  swap1\n  dup4\n  iszero\n  iszero\n  mul\n  or\n  swap1\n  sstore\n  pop\n    /* \"Dropsite.sol\":875:1151  constructor (string memory name){... */\n  callvalue\n  dup1\n  iszero\n  tag_3\n  jumpi\n  0x00\n  dup1\n  revert\ntag_3:\n  pop\n  mload(0x40)\n  sub(codesize, bytecodeSize)\n  dup1\n  bytecodeSize\n  dup4\n  codecopy\n  dup2\n  dup2\n  add\n  0x40\n  mstore\n  dup2\n  add\n  swap1\n  tag_4\n  swap2\n  swap1\n  tag_5\n  jump\t// in\ntag_4:\n    /* \"Dropsite.sol\":925:929  name */\n  dup1\n    /* \"Dropsite.sol\":917:922  _name */\n  0x0b\n    /* \"Dropsite.sol\":917:929  _name = name */\n  swap1\n  dup1\n  mload\n  swap1\n  0x20\n  add\n  swap1\n  tag_8\n  swap3\n  swap2\n  swap1\n  tag_9\n  jump\t// in\ntag_8:\n  pop\n    /* \"Dropsite.sol\":955:965  msg.sender */\n  caller\n    /* \"Dropsite.sol\":939:944  Owner */\n  0x0a\n  0x01\n    /* \"Dropsite.sol\":939:966  Owner = payable(msg.sender) */\n  0x0100\n  exp\n  dup2\n  sload\n  dup2\n  0xffffffffffffffffffffffffffffffffffffffff\n  mul\n  not\n  and\n  swap1\n  dup4\n  0xffffffffffffffffffffffffffffffffffffffff\n  and\n  mul\n  or\n  swap1\n  sstore\n  pop\n    /* \"Dropsite.sol\":993:994  0 */\n  0x00\n    /* \"Dropsite.sol\":977:992  TotalNFTsMinted */\n  0x03\n    /* \"Dropsite.sol\":977:994  TotalNFTsMinted=0 */\n  dup2\n  swap1\n  sstore\n  pop\n    /* \"Dropsite.sol\":1040:1041  1 */\n  0x01\n    /* \"Dropsite.sol\":1028:1039  numOfCopies */\n  0x04\n    /* \"Dropsite.sol\":1028:1041  numOfCopies=1 */\n  dup2\n  swap1\n  sstore\n  pop\n    /* \"Dropsite.sol\":1097:1098  0 */\n  0x00\n    /* \"Dropsite.sol\":1088:1096  Platinum */\n  0x05\n    /* \"Dropsite.sol\":1088:1098  Platinum=0 */\n  dup2\n  swap1\n  sstore\n  pop\n    /* \"Dropsite.sol\":1125:1126  0 */\n  0x00\n    /* \"Dropsite.sol\":1120:1124  Gold */\n  0x06\n    /* \"Dropsite.sol\":1120:1126  Gold=0 */\n  dup2\n  swap1\n  sstore\n  pop\n    /* \"Dropsite.sol\":1143:1144  0 */\n  0x00\n    /* \"Dropsite.sol\":1136:1142  Silver */\n  0x07\n    /* \"Dropsite.sol\":1136:1144  Silver=0 */\n  dup2\n  swap1\n  sstore\n  pop\n    /* \"Dropsite.sol\":875:1151  constructor (string memory name){... */\n  pop\n    /* \"Dropsite.sol\":122:2862  contract Dropsite is ERC1155_Dropsite  { ... */\n  jump(tag_10)\ntag_2:\n  dup3\n  dup1\n  sload\n  tag_11\n  swap1\n  tag_12\n  jump\t// in\ntag_11:\n  swap1\n  0x00\n  mstore\n  keccak256(0x00, 0x20)\n  swap1\n  0x1f\n  add\n  0x20\n  swap1\n  div\n  dup2\n  add\n  swap3\n  dup3\n  tag_14\n  jumpi\n  0x00\n  dup6\n  sstore\n  jump(tag_13)\ntag_14:\n  dup3\n  0x1f\n  lt\n  tag_15\n  jumpi\n  dup1\n  mload\n  not(0xff)\n  and\n  dup4\n  dup1\n  add\n  or\n  dup6\n  sstore\n  jump(tag_13)\ntag_15:\n  dup3\n  dup1\n  add\n  0x01\n  add\n  dup6\n  sstore\n  dup3\n  iszero\n  tag_13\n  jumpi\n  swap2\n  dup3\n  add\ntag_16:\n  dup3\n  dup2\n  gt\n  iszero\n  tag_17\n  jumpi\n  dup3\n  mload\n  dup3\n  sstore\n  swap2\n  0x20\n  add\n  swap2\n  swap1\n  0x01\n  add\n  swap1\n  jump(tag_16)\ntag_17:\ntag_13:\n  pop\n  swap1\n  pop\n  tag_18\n  swap2\n  swap1\n  tag_19\n  jump\t// in\ntag_18:\n  pop\n  swap1\n  jump\t// out\ntag_9:\n  dup3\n  dup1\n  sload\n  tag_20\n  swap1\n  tag_12\n  jump\t// in\ntag_20:\n  swap1\n  0x00\n  mstore\n  keccak256(0x00, 0x20)\n  swap1\n  0x1f\n  add\n  0x20\n  swap1\n  div\n  dup2\n  add\n  swap3\n  dup3\n  tag_22\n  jumpi\n  0x00\n  dup6\n  sstore\n  jump(tag_21)\ntag_22:\n  dup3\n  0x1f\n  lt\n  tag_23\n  jumpi\n  dup1\n  mload\n  not(0xff)\n  and\n  dup4\n  dup1\n  add\n  or\n  dup6\n  sstore\n  jump(tag_21)\ntag_23:\n  dup3\n  dup1\n  add\n  0x01\n  add\n  dup6\n  sstore\n  dup3\n  iszero\n  tag_21\n  jumpi\n  swap2\n  dup3\n  add\ntag_24:\n  dup3\n  dup2\n  gt\n  iszero\n  tag_25\n  jumpi\n  dup3\n  mload\n  dup3\n  sstore\n  swap2\n  0x20\n  add\n  swap2\n  swap1\n  0x01\n  add\n  swap1\n  jump(tag_24)\ntag_25:\ntag_21:\n  pop\n  swap1\n  pop\n  tag_26\n  swap2\n  swap1\n  tag_19\n  jump\t// in\ntag_26:\n  pop\n  swap1\n  jump\t// out\ntag_19:\ntag_27:\n  dup1\n  dup3\n  gt\n  iszero\n  tag_28\n  jumpi\n  0x00\n  dup2\n  0x00\n  swap1\n  sstore\n  pop\n  0x01\n  add\n  jump(tag_27)\ntag_28:\n  pop\n  swap1\n  jump\t// out\n    /* \"#utility.yul\":7:428   */\ntag_30:\n    /* \"#utility.yul\":96:101   */\n  0x00\n    /* \"#utility.yul\":121:187   */\n  tag_32\n    /* \"#utility.yul\":137:186   */\n  tag_33\n    /* \"#utility.yul\":179:185   */\n  dup5\n    /* \"#utility.yul\":137:186   */\n  tag_34\n  jump\t// in\ntag_33:\n    /* \"#utility.yul\":121:187   */\n  tag_35\n  jump\t// in\ntag_32:\n    /* \"#utility.yul\":112:187   */\n  swap1\n  pop\n    /* \"#utility.yul\":210:216   */\n  dup3\n    /* \"#utility.yul\":203:208   */\n  dup2\n    /* \"#utility.yul\":196:217   */\n  mstore\n    /* \"#utility.yul\":248:252   */\n  0x20\n    /* \"#utility.yul\":241:246   */\n  dup2\n    /* \"#utility.yul\":237:253   */\n  add\n    /* \"#utility.yul\":286:289   */\n  dup5\n    /* \"#utility.yul\":277:283   */\n  dup5\n    /* \"#utility.yul\":272:275   */\n  dup5\n    /* \"#utility.yul\":268:284   */\n  add\n    /* \"#utility.yul\":265:290   */\n  gt\n    /* \"#utility.yul\":262:374   */\n  iszero\n  tag_36\n  jumpi\n    /* \"#utility.yul\":293:372   */\n  tag_37\n  tag_38\n  jump\t// in\ntag_37:\n    /* \"#utility.yul\":262:374   */\ntag_36:\n    /* \"#utility.yul\":383:422   */\n  tag_39\n    /* \"#utility.yul\":415:421   */\n  dup5\n    /* \"#utility.yul\":410:413   */\n  dup3\n    /* \"#utility.yul\":405:408   */\n  dup6\n    /* \"#utility.yul\":383:422   */\n  tag_40\n  jump\t// in\ntag_39:\n    /* \"#utility.yul\":102:428   */\n  pop\n    /* \"#utility.yul\":7:428   */\n  swap4\n  swap3\n  pop\n  pop\n  pop\n  jump\t// out\n    /* \"#utility.yul\":448:803   */\ntag_41:\n    /* \"#utility.yul\":515:520   */\n  0x00\n    /* \"#utility.yul\":564:567   */\n  dup3\n    /* \"#utility.yul\":557:561   */\n  0x1f\n    /* \"#utility.yul\":549:555   */\n  dup4\n    /* \"#utility.yul\":545:562   */\n  add\n    /* \"#utility.yul\":541:568   */\n  slt\n    /* \"#utility.yul\":531:653   */\n  tag_43\n  jumpi\n    /* \"#utility.yul\":572:651   */\n  tag_44\n  tag_45\n  jump\t// in\ntag_44:\n    /* \"#utility.yul\":531:653   */\ntag_43:\n    /* \"#utility.yul\":682:688   */\n  dup2\n    /* \"#utility.yul\":676:689   */\n  mload\n    /* \"#utility.yul\":707:797   */\n  tag_46\n    /* \"#utility.yul\":793:796   */\n  dup5\n    /* \"#utility.yul\":785:791   */\n  dup3\n    /* \"#utility.yul\":778:782   */\n  0x20\n    /* \"#utility.yul\":770:776   */\n  dup7\n    /* \"#utility.yul\":766:783   */\n  add\n    /* \"#utility.yul\":707:797   */\n  tag_30\n  jump\t// in\ntag_46:\n    /* \"#utility.yul\":698:797   */\n  swap2\n  pop\n    /* \"#utility.yul\":521:803   */\n  pop\n    /* \"#utility.yul\":448:803   */\n  swap3\n  swap2\n  pop\n  pop\n  jump\t// out\n    /* \"#utility.yul\":809:1333   */\ntag_5:\n    /* \"#utility.yul\":889:895   */\n  0x00\n    /* \"#utility.yul\":938:940   */\n  0x20\n    /* \"#utility.yul\":926:935   */\n  dup3\n    /* \"#utility.yul\":917:924   */\n  dup5\n    /* \"#utility.yul\":913:936   */\n  sub\n    /* \"#utility.yul\":909:941   */\n  slt\n    /* \"#utility.yul\":906:1025   */\n  iszero\n  tag_48\n  jumpi\n    /* \"#utility.yul\":944:1023   */\n  tag_49\n  tag_50\n  jump\t// in\ntag_49:\n    /* \"#utility.yul\":906:1025   */\ntag_48:\n    /* \"#utility.yul\":1085:1086   */\n  0x00\n    /* \"#utility.yul\":1074:1083   */\n  dup3\n    /* \"#utility.yul\":1070:1087   */\n  add\n    /* \"#utility.yul\":1064:1088   */\n  mload\n    /* \"#utility.yul\":1115:1133   */\n  0xffffffffffffffff\n    /* \"#utility.yul\":1107:1113   */\n  dup2\n    /* \"#utility.yul\":1104:1134   */\n  gt\n    /* \"#utility.yul\":1101:1218   */\n  iszero\n  tag_51\n  jumpi\n    /* \"#utility.yul\":1137:1216   */\n  tag_52\n  tag_53\n  jump\t// in\ntag_52:\n    /* \"#utility.yul\":1101:1218   */\ntag_51:\n    /* \"#utility.yul\":1242:1316   */\n  tag_54\n    /* \"#utility.yul\":1308:1315   */\n  dup5\n    /* \"#utility.yul\":1299:1305   */\n  dup3\n    /* \"#utility.yul\":1288:1297   */\n  dup6\n    /* \"#utility.yul\":1284:1306   */\n  add\n    /* \"#utility.yul\":1242:1316   */\n  tag_41\n  jump\t// in\ntag_54:\n    /* \"#utility.yul\":1232:1316   */\n  swap2\n  pop\n    /* \"#utility.yul\":1035:1326   */\n  pop\n    /* \"#utility.yul\":809:1333   */\n  swap3\n  swap2\n  pop\n  pop\n  jump\t// out\n    /* \"#utility.yul\":1339:1468   */\ntag_35:\n    /* \"#utility.yul\":1373:1379   */\n  0x00\n    /* \"#utility.yul\":1400:1420   */\n  tag_56\n  tag_57\n  jump\t// in\ntag_56:\n    /* \"#utility.yul\":1390:1420   */\n  swap1\n  pop\n    /* \"#utility.yul\":1429:1462   */\n  tag_58\n    /* \"#utility.yul\":1457:1461   */\n  dup3\n    /* \"#utility.yul\":1449:1455   */\n  dup3\n    /* \"#utility.yul\":1429:1462   */\n  tag_59\n  jump\t// in\ntag_58:\n    /* \"#utility.yul\":1339:1468   */\n  swap2\n  swap1\n  pop\n  jump\t// out\n    /* \"#utility.yul\":1474:1549   */\ntag_57:\n    /* \"#utility.yul\":1507:1513   */\n  0x00\n    /* \"#utility.yul\":1540:1542   */\n  0x40\n    /* \"#utility.yul\":1534:1543   */\n  mload\n    /* \"#utility.yul\":1524:1543   */\n  swap1\n  pop\n    /* \"#utility.yul\":1474:1549   */\n  swap1\n  jump\t// out\n    /* \"#utility.yul\":1555:1863   */\ntag_34:\n    /* \"#utility.yul\":1617:1621   */\n  0x00\n    /* \"#utility.yul\":1707:1725   */\n  0xffffffffffffffff\n    /* \"#utility.yul\":1699:1705   */\n  dup3\n    /* \"#utility.yul\":1696:1726   */\n  gt\n    /* \"#utility.yul\":1693:1749   */\n  iszero\n  tag_62\n  jumpi\n    /* \"#utility.yul\":1729:1747   */\n  tag_63\n  tag_64\n  jump\t// in\ntag_63:\n    /* \"#utility.yul\":1693:1749   */\ntag_62:\n    /* \"#utility.yul\":1767:1796   */\n  tag_65\n    /* \"#utility.yul\":1789:1795   */\n  dup3\n    /* \"#utility.yul\":1767:1796   */\n  tag_66\n  jump\t// in\ntag_65:\n    /* \"#utility.yul\":1759:1796   */\n  swap1\n  pop\n    /* \"#utility.yul\":1851:1855   */\n  0x20\n    /* \"#utility.yul\":1845:1849   */\n  dup2\n    /* \"#utility.yul\":1841:1856   */\n  add\n    /* \"#utility.yul\":1833:1856   */\n  swap1\n  pop\n    /* \"#utility.yul\":1555:1863   */\n  swap2\n  swap1\n  pop\n  jump\t// out\n    /* \"#utility.yul\":1869:2176   */\ntag_40:\n    /* \"#utility.yul\":1937:1938   */\n  0x00\n    /* \"#utility.yul\":1947:2060   */\ntag_68:\n    /* \"#utility.yul\":1961:1967   */\n  dup4\n    /* \"#utility.yul\":1958:1959   */\n  dup2\n    /* \"#utility.yul\":1955:1968   */\n  lt\n    /* \"#utility.yul\":1947:2060   */\n  iszero\n  tag_70\n  jumpi\n    /* \"#utility.yul\":2046:2047   */\n  dup1\n    /* \"#utility.yul\":2041:2044   */\n  dup3\n    /* \"#utility.yul\":2037:2048   */\n  add\n    /* \"#utility.yul\":2031:2049   */\n  mload\n    /* \"#utility.yul\":2027:2028   */\n  dup2\n    /* \"#utility.yul\":2022:2025   */\n  dup5\n    /* \"#utility.yul\":2018:2029   */\n  add\n    /* \"#utility.yul\":2011:2050   */\n  mstore\n    /* \"#utility.yul\":1983:1985   */\n  0x20\n    /* \"#utility.yul\":1980:1981   */\n  dup2\n    /* \"#utility.yul\":1976:1986   */\n  add\n    /* \"#utility.yul\":1971:1986   */\n  swap1\n  pop\n    /* \"#utility.yul\":1947:2060   */\n  jump(tag_68)\ntag_70:\n    /* \"#utility.yul\":2078:2084   */\n  dup4\n    /* \"#utility.yul\":2075:2076   */\n  dup2\n    /* \"#utility.yul\":2072:2085   */\n  gt\n    /* \"#utility.yul\":2069:2170   */\n  iszero\n  tag_71\n  jumpi\n    /* \"#utility.yul\":2158:2159   */\n  0x00\n    /* \"#utility.yul\":2149:2155   */\n  dup5\n    /* \"#utility.yul\":2144:2147   */\n  dup5\n    /* \"#utility.yul\":2140:2156   */\n  add\n    /* \"#utility.yul\":2133:2160   */\n  mstore\n    /* \"#utility.yul\":2069:2170   */\ntag_71:\n    /* \"#utility.yul\":1918:2176   */\n  pop\n    /* \"#utility.yul\":1869:2176   */\n  pop\n  pop\n  pop\n  jump\t// out\n    /* \"#utility.yul\":2182:2502   */\ntag_12:\n    /* \"#utility.yul\":2226:2232   */\n  0x00\n    /* \"#utility.yul\":2263:2264   */\n  0x02\n    /* \"#utility.yul\":2257:2261   */\n  dup3\n    /* \"#utility.yul\":2253:2265   */\n  div\n    /* \"#utility.yul\":2243:2265   */\n  swap1\n  pop\n    /* \"#utility.yul\":2310:2311   */\n  0x01\n    /* \"#utility.yul\":2304:2308   */\n  dup3\n    /* \"#utility.yul\":2300:2312   */\n  and\n    /* \"#utility.yul\":2331:2349   */\n  dup1\n    /* \"#utility.yul\":2321:2402   */\n  tag_73\n  jumpi\n    /* \"#utility.yul\":2387:2391   */\n  0x7f\n    /* \"#utility.yul\":2379:2385   */\n  dup3\n    /* \"#utility.yul\":2375:2392   */\n  and\n    /* \"#utility.yul\":2365:2392   */\n  swap2\n  pop\n    /* \"#utility.yul\":2321:2402   */\ntag_73:\n    /* \"#utility.yul\":2449:2451   */\n  0x20\n    /* \"#utility.yul\":2441:2447   */\n  dup3\n    /* \"#utility.yul\":2438:2452   */\n  lt\n    /* \"#utility.yul\":2418:2436   */\n  dup2\n    /* \"#utility.yul\":2415:2453   */\n  eq\n    /* \"#utility.yul\":2412:2496   */\n  iszero\n  tag_74\n  jumpi\n    /* \"#utility.yul\":2468:2486   */\n  tag_75\n  tag_76\n  jump\t// in\ntag_75:\n    /* \"#utility.yul\":2412:2496   */\ntag_74:\n    /* \"#utility.yul\":2233:2502   */\n  pop\n    /* \"#utility.yul\":2182:2502   */\n  swap2\n  swap1\n  pop\n  jump\t// out\n    /* \"#utility.yul\":2508:2789   */\ntag_59:\n    /* \"#utility.yul\":2591:2618   */\n  tag_78\n    /* \"#utility.yul\":2613:2617   */\n  dup3\n    /* \"#utility.yul\":2591:2618   */\n  tag_66\n  jump\t// in\ntag_78:\n    /* \"#utility.yul\":2583:2589   */\n  dup2\n    /* \"#utility.yul\":2579:2619   */\n  add\n    /* \"#utility.yul\":2721:2727   */\n  dup2\n    /* \"#utility.yul\":2709:2719   */\n  dup2\n    /* \"#utility.yul\":2706:2728   */\n  lt\n    /* \"#utility.yul\":2685:2703   */\n  0xffffffffffffffff\n    /* \"#utility.yul\":2673:2683   */\n  dup3\n    /* \"#utility.yul\":2670:2704   */\n  gt\n    /* \"#utility.yul\":2667:2729   */\n  or\n    /* \"#utility.yul\":2664:2752   */\n  iszero\n  tag_79\n  jumpi\n    /* \"#utility.yul\":2732:2750   */\n  tag_80\n  tag_64\n  jump\t// in\ntag_80:\n    /* \"#utility.yul\":2664:2752   */\ntag_79:\n    /* \"#utility.yul\":2772:2782   */\n  dup1\n    /* \"#utility.yul\":2768:2770   */\n  0x40\n    /* \"#utility.yul\":2761:2783   */\n  mstore\n    /* \"#utility.yul\":2551:2789   */\n  pop\n    /* \"#utility.yul\":2508:2789   */\n  pop\n  pop\n  jump\t// out\n    /* \"#utility.yul\":2795:2975   */\ntag_76:\n    /* \"#utility.yul\":2843:2920   */\n  0x4e487b7100000000000000000000000000000000000000000000000000000000\n    /* \"#utility.yul\":2840:2841   */\n  0x00\n    /* \"#utility.yul\":2833:2921   */\n  mstore\n    /* \"#utility.yul\":2940:2944   */\n  0x22\n    /* \"#utility.yul\":2937:2938   */\n  0x04\n    /* \"#utility.yul\":2930:2945   */\n  mstore\n    /* \"#utility.yul\":2964:2968   */\n  0x24\n    /* \"#utility.yul\":2961:2962   */\n  0x00\n    /* \"#utility.yul\":2954:2969   */\n  revert\n    /* \"#utility.yul\":2981:3161   */\ntag_64:\n    /* \"#utility.yul\":3029:3106   */\n  0x4e487b7100000000000000000000000000000000000000000000000000000000\n    /* \"#utility.yul\":3026:3027   */\n  0x00\n    /* \"#utility.yul\":3019:3107   */\n  mstore\n    /* \"#utility.yul\":3126:3130   */\n  0x41\n    /* \"#utility.yul\":3123:3124   */\n  0x04\n    /* \"#utility.yul\":3116:3131   */\n  mstore\n    /* \"#utility.yul\":3150:3154   */\n  0x24\n    /* \"#utility.yul\":3147:3148   */\n  0x00\n    /* \"#utility.yul\":3140:3155   */\n  revert\n    /* \"#utility.yul\":3167:3284   */\ntag_45:\n    /* \"#utility.yul\":3276:3277   */\n  0x00\n    /* \"#utility.yul\":3273:3274   */\n  dup1\n    /* \"#utility.yul\":3266:3278   */\n  revert\n    /* \"#utility.yul\":3290:3407   */\ntag_38:\n    /* \"#utility.yul\":3399:3400   */\n  0x00\n    /* \"#utility.yul\":3396:3397   */\n  dup1\n    /* \"#utility.yul\":3389:3401   */\n  revert\n    /* \"#utility.yul\":3413:3530   */\ntag_53:\n    /* \"#utility.yul\":3522:3523   */\n  0x00\n    /* \"#utility.yul\":3519:3520   */\n  dup1\n    /* \"#utility.yul\":3512:3524   */\n  revert\n    /* \"#utility.yul\":3536:3653   */\ntag_50:\n    /* \"#utility.yul\":3645:3646   */\n  0x00\n    /* \"#utility.yul\":3642:3643   */\n  dup1\n    /* \"#utility.yul\":3635:3647   */\n  revert\n    /* \"#utility.yul\":3659:3761   */\ntag_66:\n    /* \"#utility.yul\":3700:3706   */\n  0x00\n    /* \"#utility.yul\":3751:3753   */\n  0x1f\n    /* \"#utility.yul\":3747:3754   */\n  not\n    /* \"#utility.yul\":3742:3744   */\n  0x1f\n    /* \"#utility.yul\":3735:3740   */\n  dup4\n    /* \"#utility.yul\":3731:3745   */\n  add\n    /* \"#utility.yul\":3727:3755   */\n  and\n    /* \"#utility.yul\":3717:3755   */\n  swap1\n  pop\n    /* \"#utility.yul\":3659:3761   */\n  swap2\n  swap1\n  pop\n  jump\t// out\n    /* \"Dropsite.sol\":122:2862  contract Dropsite is ERC1155_Dropsite  { ... */\ntag_10:\n  dataSize(sub_0)\n  dup1\n  dataOffset(sub_0)\n  0x00\n  codecopy\n  0x00\n  return\nstop\n\nsub_0: assembly {\n        /* \"Dropsite.sol\":122:2862  contract Dropsite is ERC1155_Dropsite  { ... */\n      mstore(0x40, 0x80)\n      callvalue\n      dup1\n      iszero\n      tag_1\n      jumpi\n      0x00\n      dup1\n      revert\n    tag_1:\n      pop\n      jumpi(tag_2, lt(calldatasize, 0x04))\n      shr(0xe0, calldataload(0x00))\n      dup1\n      0x1309a563\n      eq\n      tag_3\n      jumpi\n      dup1\n      0x15460259\n      eq\n      tag_4\n      jumpi\n      dup1\n      0x60daa851\n      eq\n      tag_5\n      jumpi\n      dup1\n      0x97e96e86\n      eq\n      tag_6\n      jumpi\n      dup1\n      0xaa90c726\n      eq\n      tag_7\n      jumpi\n      dup1\n      0xb4a99a4e\n      eq\n      tag_8\n      jumpi\n    tag_2:\n      0x00\n      dup1\n      revert\n        /* \"Dropsite.sol\":776:803  bool public IsPaused = true */\n    tag_3:\n      tag_9\n      tag_10\n      jump\t// in\n    tag_9:\n      mload(0x40)\n      tag_11\n      swap2\n      swap1\n      tag_12\n      jump\t// in\n    tag_11:\n      mload(0x40)\n      dup1\n      swap2\n      sub\n      swap1\n      return\n        /* \"Dropsite.sol\":1440:1576  function openDropsite() public OnlyOwner {... */\n    tag_4:\n      tag_13\n      tag_14\n      jump\t// in\n    tag_13:\n      stop\n        /* \"Dropsite.sol\":1163:1291  function checkMintedCategoryWise() public view OnlyOwner returns(uint,uint,uint){... */\n    tag_5:\n      tag_15\n      tag_16\n      jump\t// in\n    tag_15:\n      mload(0x40)\n      tag_17\n      swap4\n      swap3\n      swap2\n      swap1\n      tag_18\n      jump\t// in\n    tag_17:\n      mload(0x40)\n      dup1\n      swap2\n      sub\n      swap1\n      return\n        /* \"Dropsite.sol\":1768:2854  function randomMint(address user_addr) OnlyOwner contractIsNotPaused public returns (uint,string memory) {... */\n    tag_6:\n      tag_19\n      0x04\n      dup1\n      calldatasize\n      sub\n      dup2\n      add\n      swap1\n      tag_20\n      swap2\n      swap1\n      tag_21\n      jump\t// in\n    tag_20:\n      tag_22\n      jump\t// in\n    tag_19:\n      mload(0x40)\n      tag_23\n      swap3\n      swap2\n      swap1\n      tag_24\n      jump\t// in\n    tag_23:\n      mload(0x40)\n      dup1\n      swap2\n      sub\n      swap1\n      return\n        /* \"Dropsite.sol\":1298:1433  function stopDropsite() public OnlyOwner{... */\n    tag_7:\n      tag_25\n      tag_26\n      jump\t// in\n    tag_25:\n      stop\n        /* \"Dropsite.sol\":809:838  address payable public  Owner */\n    tag_8:\n      tag_27\n      tag_28\n      jump\t// in\n    tag_27:\n      mload(0x40)\n      tag_29\n      swap2\n      swap1\n      tag_30\n      jump\t// in\n    tag_29:\n      mload(0x40)\n      dup1\n      swap2\n      sub\n      swap1\n      return\n        /* \"Dropsite.sol\":776:803  bool public IsPaused = true */\n    tag_10:\n      0x0a\n      0x00\n      swap1\n      sload\n      swap1\n      0x0100\n      exp\n      swap1\n      div\n      0xff\n      and\n      dup2\n      jump\t// out\n        /* \"Dropsite.sol\":1440:1576  function openDropsite() public OnlyOwner {... */\n    tag_14:\n        /* \"Dropsite.sol\":552:557  Owner */\n      0x0a\n      0x01\n      swap1\n      sload\n      swap1\n      0x0100\n      exp\n      swap1\n      div\n      0xffffffffffffffffffffffffffffffffffffffff\n      and\n        /* \"Dropsite.sol\":536:557  _msgSender() == Owner */\n      0xffffffffffffffffffffffffffffffffffffffff\n      and\n        /* \"Dropsite.sol\":536:548  _msgSender() */\n      tag_32\n        /* \"Dropsite.sol\":536:546  _msgSender */\n      tag_33\n        /* \"Dropsite.sol\":536:548  _msgSender() */\n      jump\t// in\n    tag_32:\n        /* \"Dropsite.sol\":536:557  _msgSender() == Owner */\n      0xffffffffffffffffffffffffffffffffffffffff\n      and\n      eq\n        /* \"Dropsite.sol\":528:586  require(_msgSender() == Owner, \"OnyxNft Owner can Access\") */\n      tag_34\n      jumpi\n      mload(0x40)\n      0x08c379a000000000000000000000000000000000000000000000000000000000\n      dup2\n      mstore\n      0x04\n      add\n      tag_35\n      swap1\n      tag_36\n      jump\t// in\n    tag_35:\n      mload(0x40)\n      dup1\n      swap2\n      sub\n      swap1\n      revert\n    tag_34:\n        /* \"Dropsite.sol\":1509:1513  true */\n      0x01\n        /* \"Dropsite.sol\":1499:1513  IsPaused==true */\n      iszero\n      iszero\n        /* \"Dropsite.sol\":1499:1507  IsPaused */\n      0x0a\n      0x00\n      swap1\n      sload\n      swap1\n      0x0100\n      exp\n      swap1\n      div\n      0xff\n      and\n        /* \"Dropsite.sol\":1499:1513  IsPaused==true */\n      iszero\n      iszero\n      eq\n        /* \"Dropsite.sol\":1491:1545  require(IsPaused==true, \"Dropsite is already Running\") */\n      tag_38\n      jumpi\n      mload(0x40)\n      0x08c379a000000000000000000000000000000000000000000000000000000000\n      dup2\n      mstore\n      0x04\n      add\n      tag_39\n      swap1\n      tag_40\n      jump\t// in\n    tag_39:\n      mload(0x40)\n      dup1\n      swap2\n      sub\n      swap1\n      revert\n    tag_38:\n        /* \"Dropsite.sol\":1564:1569  false */\n      0x00\n        /* \"Dropsite.sol\":1555:1563  IsPaused */\n      0x0a\n      0x00\n        /* \"Dropsite.sol\":1555:1569  IsPaused=false */\n      0x0100\n      exp\n      dup2\n      sload\n      dup2\n      0xff\n      mul\n      not\n      and\n      swap1\n      dup4\n      iszero\n      iszero\n      mul\n      or\n      swap1\n      sstore\n      pop\n        /* \"Dropsite.sol\":1440:1576  function openDropsite() public OnlyOwner {... */\n      jump\t// out\n        /* \"Dropsite.sol\":1163:1291  function checkMintedCategoryWise() public view OnlyOwner returns(uint,uint,uint){... */\n    tag_16:\n        /* \"Dropsite.sol\":1228:1232  uint */\n      0x00\n        /* \"Dropsite.sol\":1233:1237  uint */\n      dup1\n        /* \"Dropsite.sol\":1238:1242  uint */\n      0x00\n        /* \"Dropsite.sol\":552:557  Owner */\n      0x0a\n      0x01\n      swap1\n      sload\n      swap1\n      0x0100\n      exp\n      swap1\n      div\n      0xffffffffffffffffffffffffffffffffffffffff\n      and\n        /* \"Dropsite.sol\":536:557  _msgSender() == Owner */\n      0xffffffffffffffffffffffffffffffffffffffff\n      and\n        /* \"Dropsite.sol\":536:548  _msgSender() */\n      tag_42\n        /* \"Dropsite.sol\":536:546  _msgSender */\n      tag_33\n        /* \"Dropsite.sol\":536:548  _msgSender() */\n      jump\t// in\n    tag_42:\n        /* \"Dropsite.sol\":536:557  _msgSender() == Owner */\n      0xffffffffffffffffffffffffffffffffffffffff\n      and\n      eq\n        /* \"Dropsite.sol\":528:586  require(_msgSender() == Owner, \"OnyxNft Owner can Access\") */\n      tag_43\n      jumpi\n      mload(0x40)\n      0x08c379a000000000000000000000000000000000000000000000000000000000\n      dup2\n      mstore\n      0x04\n      add\n      tag_44\n      swap1\n      tag_36\n      jump\t// in\n    tag_44:\n      mload(0x40)\n      dup1\n      swap2\n      sub\n      swap1\n      revert\n    tag_43:\n        /* \"Dropsite.sol\":1262:1270  Platinum */\n      sload(0x05)\n        /* \"Dropsite.sol\":1271:1275  Gold */\n      sload(0x06)\n        /* \"Dropsite.sol\":1276:1282  Silver */\n      sload(0x07)\n        /* \"Dropsite.sol\":1254:1283  return (Platinum,Gold,Silver) */\n      swap3\n      pop\n      swap3\n      pop\n      swap3\n      pop\n        /* \"Dropsite.sol\":1163:1291  function checkMintedCategoryWise() public view OnlyOwner returns(uint,uint,uint){... */\n      swap1\n      swap2\n      swap3\n      jump\t// out\n        /* \"Dropsite.sol\":1768:2854  function randomMint(address user_addr) OnlyOwner contractIsNotPaused public returns (uint,string memory) {... */\n    tag_22:\n        /* \"Dropsite.sol\":1853:1857  uint */\n      0x00\n        /* \"Dropsite.sol\":1858:1871  string memory */\n      0x60\n        /* \"Dropsite.sol\":552:557  Owner */\n      0x0a\n      0x01\n      swap1\n      sload\n      swap1\n      0x0100\n      exp\n      swap1\n      div\n      0xffffffffffffffffffffffffffffffffffffffff\n      and\n        /* \"Dropsite.sol\":536:557  _msgSender() == Owner */\n      0xffffffffffffffffffffffffffffffffffffffff\n      and\n        /* \"Dropsite.sol\":536:548  _msgSender() */\n      tag_47\n        /* \"Dropsite.sol\":536:546  _msgSender */\n      tag_33\n        /* \"Dropsite.sol\":536:548  _msgSender() */\n      jump\t// in\n    tag_47:\n        /* \"Dropsite.sol\":536:557  _msgSender() == Owner */\n      0xffffffffffffffffffffffffffffffffffffffff\n      and\n      eq\n        /* \"Dropsite.sol\":528:586  require(_msgSender() == Owner, \"OnyxNft Owner can Access\") */\n      tag_48\n      jumpi\n      mload(0x40)\n      0x08c379a000000000000000000000000000000000000000000000000000000000\n      dup2\n      mstore\n      0x04\n      add\n      tag_49\n      swap1\n      tag_36\n      jump\t// in\n    tag_49:\n      mload(0x40)\n      dup1\n      swap2\n      sub\n      swap1\n      revert\n    tag_48:\n        /* \"Dropsite.sol\":713:718  false */\n      0x00\n        /* \"Dropsite.sol\":701:718  IsPaused == false */\n      iszero\n      iszero\n        /* \"Dropsite.sol\":701:709  IsPaused */\n      0x0a\n      0x00\n      swap1\n      sload\n      swap1\n      0x0100\n      exp\n      swap1\n      div\n      0xff\n      and\n        /* \"Dropsite.sol\":701:718  IsPaused == false */\n      iszero\n      iszero\n      eq\n        /* \"Dropsite.sol\":692:751  require (IsPaused == false, \"Dropsite is not Opened Yet.\" ) */\n      tag_51\n      jumpi\n      mload(0x40)\n      0x08c379a000000000000000000000000000000000000000000000000000000000\n      dup2\n      mstore\n      0x04\n      add\n      tag_52\n      swap1\n      tag_53\n      jump\t// in\n    tag_52:\n      mload(0x40)\n      dup1\n      swap2\n      sub\n      swap1\n      revert\n    tag_51:\n        /* \"Dropsite.sol\":1904:1908  1000 */\n      0x03e8\n        /* \"Dropsite.sol\":1888:1903  TotalNFTsMinted */\n      sload(0x03)\n        /* \"Dropsite.sol\":1888:1908  TotalNFTsMinted<1000 */\n      lt\n        /* \"Dropsite.sol\":1880:1938  require(TotalNFTsMinted<1000, \"Max Minting Limit reached\") */\n      tag_55\n      jumpi\n      mload(0x40)\n      0x08c379a000000000000000000000000000000000000000000000000000000000\n      dup2\n      mstore\n      0x04\n      add\n      tag_56\n      swap1\n      tag_57\n      jump\t// in\n    tag_56:\n      mload(0x40)\n      dup1\n      swap2\n      sub\n      swap1\n      revert\n    tag_55:\n        /* \"Dropsite.sol\":1943:1953  uint nftId */\n      0x00\n        /* \"Dropsite.sol\":1956:1964  random() */\n      tag_58\n        /* \"Dropsite.sol\":1956:1962  random */\n      tag_59\n        /* \"Dropsite.sol\":1956:1964  random() */\n      jump\t// in\n    tag_58:\n        /* \"Dropsite.sol\":1943:1964  uint nftId = random() */\n      swap1\n      pop\n        /* \"Dropsite.sol\":2084:2085  0 */\n      0x00\n        /* \"Dropsite.sol\":2075:2080  nftId */\n      dup2\n        /* \"Dropsite.sol\":2075:2085  nftId == 0 */\n      eq\n        /* \"Dropsite.sol\":2075:2103  nftId == 0 && Platinum < 150 */\n      dup1\n      iszero\n      tag_60\n      jumpi\n      pop\n        /* \"Dropsite.sol\":2100:2103  150 */\n      0x96\n        /* \"Dropsite.sol\":2089:2097  Platinum */\n      sload(0x05)\n        /* \"Dropsite.sol\":2089:2103  Platinum < 150 */\n      lt\n        /* \"Dropsite.sol\":2075:2103  nftId == 0 && Platinum < 150 */\n    tag_60:\n        /* \"Dropsite.sol\":2072:2499  if(nftId == 0 && Platinum < 150) {... */\n      iszero\n      tag_61\n      jumpi\n        /* \"Dropsite.sol\":2115:2132  data = \"Platinum\" */\n      mload(0x40)\n      dup1\n      0x40\n      add\n      0x40\n      mstore\n      dup1\n      0x08\n      dup2\n      mstore\n      0x20\n      add\n      0x506c6174696e756d000000000000000000000000000000000000000000000000\n      dup2\n      mstore\n      pop\n        /* \"Dropsite.sol\":2115:2119  data */\n      0x02\n        /* \"Dropsite.sol\":2115:2132  data = \"Platinum\" */\n      swap1\n      dup1\n      mload\n      swap1\n      0x20\n      add\n      swap1\n      tag_62\n      swap3\n      swap2\n      swap1\n      tag_63\n      jump\t// in\n    tag_62:\n      pop\n        /* \"Dropsite.sol\":2142:2150  Platinum */\n      0x05\n      0x00\n        /* \"Dropsite.sol\":2142:2152  Platinum++ */\n      dup2\n      sload\n      dup1\n      swap3\n      swap2\n      swap1\n      tag_64\n      swap1\n      tag_65\n      jump\t// in\n    tag_64:\n      swap2\n      swap1\n      pop\n      sstore\n      pop\n        /* \"Dropsite.sol\":2072:2499  if(nftId == 0 && Platinum < 150) {... */\n      jump(tag_66)\n    tag_61:\n        /* \"Dropsite.sol\":2253:2254  1 */\n      0x01\n        /* \"Dropsite.sol\":2244:2249  nftId */\n      dup2\n        /* \"Dropsite.sol\":2244:2254  nftId <= 1 */\n      gt\n      iszero\n        /* \"Dropsite.sol\":2244:2268  nftId <= 1 && Gold < 350 */\n      dup1\n      iszero\n      tag_67\n      jumpi\n      pop\n        /* \"Dropsite.sol\":2265:2268  350 */\n      0x015e\n        /* \"Dropsite.sol\":2258:2262  Gold */\n      sload(0x06)\n        /* \"Dropsite.sol\":2258:2268  Gold < 350 */\n      lt\n        /* \"Dropsite.sol\":2244:2268  nftId <= 1 && Gold < 350 */\n    tag_67:\n        /* \"Dropsite.sol\":2241:2499  if(nftId <= 1 && Gold < 350) {... */\n      iszero\n      tag_68\n      jumpi\n        /* \"Dropsite.sol\":2280:2293  data = \"Gold\" */\n      mload(0x40)\n      dup1\n      0x40\n      add\n      0x40\n      mstore\n      dup1\n      0x04\n      dup2\n      mstore\n      0x20\n      add\n      0x476f6c6400000000000000000000000000000000000000000000000000000000\n      dup2\n      mstore\n      pop\n        /* \"Dropsite.sol\":2280:2284  data */\n      0x02\n        /* \"Dropsite.sol\":2280:2293  data = \"Gold\" */\n      swap1\n      dup1\n      mload\n      swap1\n      0x20\n      add\n      swap1\n      tag_69\n      swap3\n      swap2\n      swap1\n      tag_63\n      jump\t// in\n    tag_69:\n      pop\n        /* \"Dropsite.sol\":2303:2307  Gold */\n      0x06\n      0x00\n        /* \"Dropsite.sol\":2303:2309  Gold++ */\n      dup2\n      sload\n      dup1\n      swap3\n      swap2\n      swap1\n      tag_70\n      swap1\n      tag_65\n      jump\t// in\n    tag_70:\n      swap2\n      swap1\n      pop\n      sstore\n      pop\n        /* \"Dropsite.sol\":2241:2499  if(nftId <= 1 && Gold < 350) {... */\n      jump(tag_71)\n    tag_68:\n        /* \"Dropsite.sol\":2431:2432  2 */\n      0x02\n        /* \"Dropsite.sol\":2422:2427  nftId */\n      dup2\n        /* \"Dropsite.sol\":2422:2432  nftId <= 2 */\n      gt\n      iszero\n        /* \"Dropsite.sol\":2422:2449  nftId <= 2 && Silver <= 500 */\n      dup1\n      iszero\n      tag_72\n      jumpi\n      pop\n        /* \"Dropsite.sol\":2446:2449  500 */\n      0x01f4\n        /* \"Dropsite.sol\":2436:2442  Silver */\n      sload(0x07)\n        /* \"Dropsite.sol\":2436:2449  Silver <= 500 */\n      gt\n      iszero\n        /* \"Dropsite.sol\":2422:2449  nftId <= 2 && Silver <= 500 */\n    tag_72:\n        /* \"Dropsite.sol\":2419:2499  if(nftId <= 2 && Silver <= 500) {... */\n      iszero\n      tag_73\n      jumpi\n        /* \"Dropsite.sol\":2461:2474  data=\"Silver\" */\n      mload(0x40)\n      dup1\n      0x40\n      add\n      0x40\n      mstore\n      dup1\n      0x06\n      dup2\n      mstore\n      0x20\n      add\n      0x53696c7665720000000000000000000000000000000000000000000000000000\n      dup2\n      mstore\n      pop\n        /* \"Dropsite.sol\":2461:2465  data */\n      0x02\n        /* \"Dropsite.sol\":2461:2474  data=\"Silver\" */\n      swap1\n      dup1\n      mload\n      swap1\n      0x20\n      add\n      swap1\n      tag_74\n      swap3\n      swap2\n      swap1\n      tag_63\n      jump\t// in\n    tag_74:\n      pop\n        /* \"Dropsite.sol\":2484:2490  Silver */\n      0x07\n      0x00\n        /* \"Dropsite.sol\":2484:2492  Silver++ */\n      dup2\n      sload\n      dup1\n      swap3\n      swap2\n      swap1\n      tag_75\n      swap1\n      tag_65\n      jump\t// in\n    tag_75:\n      swap2\n      swap1\n      pop\n      sstore\n      pop\n        /* \"Dropsite.sol\":2419:2499  if(nftId <= 2 && Silver <= 500) {... */\n    tag_73:\n        /* \"Dropsite.sol\":2241:2499  if(nftId <= 1 && Gold < 350) {... */\n    tag_71:\n        /* \"Dropsite.sol\":2072:2499  if(nftId == 0 && Platinum < 150) {... */\n    tag_66:\n        /* \"Dropsite.sol\":2708:2750  _mint(user_addr, nftId, numOfCopies, data) */\n      tag_76\n        /* \"Dropsite.sol\":2714:2723  user_addr */\n      dup5\n        /* \"Dropsite.sol\":2725:2730  nftId */\n      dup3\n        /* \"Dropsite.sol\":2732:2743  numOfCopies */\n      sload(0x04)\n        /* \"Dropsite.sol\":2745:2749  data */\n      0x02\n        /* \"Dropsite.sol\":2708:2750  _mint(user_addr, nftId, numOfCopies, data) */\n      dup1\n      sload\n      tag_77\n      swap1\n      tag_78\n      jump\t// in\n    tag_77:\n      dup1\n      0x1f\n      add\n      0x20\n      dup1\n      swap2\n      div\n      mul\n      0x20\n      add\n      mload(0x40)\n      swap1\n      dup2\n      add\n      0x40\n      mstore\n      dup1\n      swap3\n      swap2\n      swap1\n      dup2\n      dup2\n      mstore\n      0x20\n      add\n      dup3\n      dup1\n      sload\n      tag_79\n      swap1\n      tag_78\n      jump\t// in\n    tag_79:\n      dup1\n      iszero\n      tag_80\n      jumpi\n      dup1\n      0x1f\n      lt\n      tag_81\n      jumpi\n      0x0100\n      dup1\n      dup4\n      sload\n      div\n      mul\n      dup4\n      mstore\n      swap2\n      0x20\n      add\n      swap2\n      jump(tag_80)\n    tag_81:\n      dup3\n      add\n      swap2\n      swap1\n      0x00\n      mstore\n      keccak256(0x00, 0x20)\n      swap1\n    tag_82:\n      dup2\n      sload\n      dup2\n      mstore\n      swap1\n      0x01\n      add\n      swap1\n      0x20\n      add\n      dup1\n      dup4\n      gt\n      tag_82\n      jumpi\n      dup3\n      swap1\n      sub\n      0x1f\n      and\n      dup3\n      add\n      swap2\n    tag_80:\n      pop\n      pop\n      pop\n      pop\n      pop\n        /* \"Dropsite.sol\":2708:2713  _mint */\n      tag_83\n        /* \"Dropsite.sol\":2708:2750  _mint(user_addr, nftId, numOfCopies, data) */\n      jump\t// in\n    tag_76:\n        /* \"Dropsite.sol\":2756:2771  TotalNFTsMinted */\n      0x03\n      0x00\n        /* \"Dropsite.sol\":2756:2773  TotalNFTsMinted++ */\n      dup2\n      sload\n      dup1\n      swap3\n      swap2\n      swap1\n      tag_84\n      swap1\n      tag_65\n      jump\t// in\n    tag_84:\n      swap2\n      swap1\n      pop\n      sstore\n      pop\n        /* \"Dropsite.sol\":2809:2814  nftId */\n      dup1\n        /* \"Dropsite.sol\":2779:2797  dropsite_NFT_Owner */\n      0x08\n        /* \"Dropsite.sol\":2779:2808  dropsite_NFT_Owner[user_addr] */\n      0x00\n        /* \"Dropsite.sol\":2798:2807  user_addr */\n      dup7\n        /* \"Dropsite.sol\":2779:2808  dropsite_NFT_Owner[user_addr] */\n      0xffffffffffffffffffffffffffffffffffffffff\n      and\n      0xffffffffffffffffffffffffffffffffffffffff\n      and\n      dup2\n      mstore\n      0x20\n      add\n      swap1\n      dup2\n      mstore\n      0x20\n      add\n      0x00\n      keccak256\n        /* \"Dropsite.sol\":2779:2814  dropsite_NFT_Owner[user_addr]=nftId */\n      dup2\n      swap1\n      sstore\n      pop\n        /* \"Dropsite.sol\":2828:2833  nftId */\n      dup1\n        /* \"Dropsite.sol\":2841:2845  data */\n      0x02\n        /* \"Dropsite.sol\":2820:2847  return (nftId,string(data)) */\n      dup1\n      dup1\n      sload\n      tag_85\n      swap1\n      tag_78\n      jump\t// in\n    tag_85:\n      dup1\n      0x1f\n      add\n      0x20\n      dup1\n      swap2\n      div\n      mul\n      0x20\n      add\n      mload(0x40)\n      swap1\n      dup2\n      add\n      0x40\n      mstore\n      dup1\n      swap3\n      swap2\n      swap1\n      dup2\n      dup2\n      mstore\n      0x20\n      add\n      dup3\n      dup1\n      sload\n      tag_86\n      swap1\n      tag_78\n      jump\t// in\n    tag_86:\n      dup1\n      iszero\n      tag_87\n      jumpi\n      dup1\n      0x1f\n      lt\n      tag_88\n      jumpi\n      0x0100\n      dup1\n      dup4\n      sload\n      div\n      mul\n      dup4\n      mstore\n      swap2\n      0x20\n      add\n      swap2\n      jump(tag_87)\n    tag_88:\n      dup3\n      add\n      swap2\n      swap1\n      0x00\n      mstore\n      keccak256(0x00, 0x20)\n      swap1\n    tag_89:\n      dup2\n      sload\n      dup2\n      mstore\n      swap1\n      0x01\n      add\n      swap1\n      0x20\n      add\n      dup1\n      dup4\n      gt\n      tag_89\n      jumpi\n      dup3\n      swap1\n      sub\n      0x1f\n      and\n      dup3\n      add\n      swap2\n    tag_87:\n      pop\n      pop\n      pop\n      pop\n      pop\n      swap1\n      pop\n      swap3\n      pop\n      swap3\n      pop\n      pop\n        /* \"Dropsite.sol\":1768:2854  function randomMint(address user_addr) OnlyOwner contractIsNotPaused public returns (uint,string memory) {... */\n      swap2\n      pop\n      swap2\n      jump\t// out\n        /* \"Dropsite.sol\":1298:1433  function stopDropsite() public OnlyOwner{... */\n    tag_26:\n        /* \"Dropsite.sol\":552:557  Owner */\n      0x0a\n      0x01\n      swap1\n      sload\n      swap1\n      0x0100\n      exp\n      swap1\n      div\n      0xffffffffffffffffffffffffffffffffffffffff\n      and\n        /* \"Dropsite.sol\":536:557  _msgSender() == Owner */\n      0xffffffffffffffffffffffffffffffffffffffff\n      and\n        /* \"Dropsite.sol\":536:548  _msgSender() */\n      tag_91\n        /* \"Dropsite.sol\":536:546  _msgSender */\n      tag_33\n        /* \"Dropsite.sol\":536:548  _msgSender() */\n      jump\t// in\n    tag_91:\n        /* \"Dropsite.sol\":536:557  _msgSender() == Owner */\n      0xffffffffffffffffffffffffffffffffffffffff\n      and\n      eq\n        /* \"Dropsite.sol\":528:586  require(_msgSender() == Owner, \"OnyxNft Owner can Access\") */\n      tag_92\n      jumpi\n      mload(0x40)\n      0x08c379a000000000000000000000000000000000000000000000000000000000\n      dup2\n      mstore\n      0x04\n      add\n      tag_93\n      swap1\n      tag_36\n      jump\t// in\n    tag_93:\n      mload(0x40)\n      dup1\n      swap2\n      sub\n      swap1\n      revert\n    tag_92:\n        /* \"Dropsite.sol\":1366:1371  false */\n      0x00\n        /* \"Dropsite.sol\":1356:1371  IsPaused==false */\n      iszero\n      iszero\n        /* \"Dropsite.sol\":1356:1364  IsPaused */\n      0x0a\n      0x00\n      swap1\n      sload\n      swap1\n      0x0100\n      exp\n      swap1\n      div\n      0xff\n      and\n        /* \"Dropsite.sol\":1356:1371  IsPaused==false */\n      iszero\n      iszero\n      eq\n        /* \"Dropsite.sol\":1348:1403  require(IsPaused==false, \"Dropsite is already Stopped\") */\n      tag_95\n      jumpi\n      mload(0x40)\n      0x08c379a000000000000000000000000000000000000000000000000000000000\n      dup2\n      mstore\n      0x04\n      add\n      tag_96\n      swap1\n      tag_97\n      jump\t// in\n    tag_96:\n      mload(0x40)\n      dup1\n      swap2\n      sub\n      swap1\n      revert\n    tag_95:\n        /* \"Dropsite.sol\":1422:1426  true */\n      0x01\n        /* \"Dropsite.sol\":1413:1421  IsPaused */\n      0x0a\n      0x00\n        /* \"Dropsite.sol\":1413:1426  IsPaused=true */\n      0x0100\n      exp\n      dup2\n      sload\n      dup2\n      0xff\n      mul\n      not\n      and\n      swap1\n      dup4\n      iszero\n      iszero\n      mul\n      or\n      swap1\n      sstore\n      pop\n        /* \"Dropsite.sol\":1298:1433  function stopDropsite() public OnlyOwner{... */\n      jump\t// out\n        /* \"Dropsite.sol\":809:838  address payable public  Owner */\n    tag_28:\n      0x0a\n      0x01\n      swap1\n      sload\n      swap1\n      0x0100\n      exp\n      swap1\n      div\n      0xffffffffffffffffffffffffffffffffffffffff\n      and\n      dup2\n      jump\t// out\n        /* \"Context.sol\":640:736  function _msgSender() internal view virtual returns (address) {... */\n    tag_33:\n        /* \"Context.sol\":693:700  address */\n      0x00\n        /* \"Context.sol\":719:729  msg.sender */\n      caller\n        /* \"Context.sol\":712:729  return msg.sender */\n      swap1\n      pop\n        /* \"Context.sol\":640:736  function _msgSender() internal view virtual returns (address) {... */\n      swap1\n      jump\t// out\n        /* \"Dropsite.sol\":1586:1757  function random() internal view returns (uint) {... */\n    tag_59:\n        /* \"Dropsite.sol\":1627:1631  uint */\n      0x00\n        /* \"Dropsite.sol\":1639:1656  uint randomnumber */\n      dup1\n        /* \"Dropsite.sol\":1724:1725  3 */\n      0x03\n        /* \"Dropsite.sol\":1691:1706  block.timestamp */\n      timestamp\n        /* \"Dropsite.sol\":1708:1718  msg.sender */\n      caller\n        /* \"Dropsite.sol\":1674:1719  abi.encodePacked(block.timestamp, msg.sender) */\n      add(0x20, mload(0x40))\n      tag_100\n      swap3\n      swap2\n      swap1\n      tag_101\n      jump\t// in\n    tag_100:\n      mload(0x40)\n      0x20\n      dup2\n      dup4\n      sub\n      sub\n      dup2\n      mstore\n      swap1\n      0x40\n      mstore\n        /* \"Dropsite.sol\":1664:1720  keccak256(abi.encodePacked(block.timestamp, msg.sender)) */\n      dup1\n      mload\n      swap1\n      0x20\n      add\n      keccak256\n        /* \"Dropsite.sol\":1659:1721  uint(keccak256(abi.encodePacked(block.timestamp, msg.sender))) */\n      0x00\n      shr\n        /* \"Dropsite.sol\":1659:1725  uint(keccak256(abi.encodePacked(block.timestamp, msg.sender))) % 3 */\n      tag_102\n      swap2\n      swap1\n      tag_103\n      jump\t// in\n    tag_102:\n        /* \"Dropsite.sol\":1639:1725  uint randomnumber = uint(keccak256(abi.encodePacked(block.timestamp, msg.sender))) % 3 */\n      swap1\n      pop\n        /* \"Dropsite.sol\":1738:1750  randomnumber */\n      dup1\n        /* \"Dropsite.sol\":1731:1750  return randomnumber */\n      swap2\n      pop\n      pop\n        /* \"Dropsite.sol\":1586:1757  function random() internal view returns (uint) {... */\n      swap1\n      jump\t// out\n        /* \"ERC1155_Dropsite.sol\":835:1386  function _mint(... */\n    tag_83:\n        /* \"ERC1155_Dropsite.sol\":996:997  0 */\n      0x00\n        /* \"ERC1155_Dropsite.sol\":982:998  to != address(0) */\n      0xffffffffffffffffffffffffffffffffffffffff\n      and\n        /* \"ERC1155_Dropsite.sol\":982:984  to */\n      dup5\n        /* \"ERC1155_Dropsite.sol\":982:998  to != address(0) */\n      0xffffffffffffffffffffffffffffffffffffffff\n      and\n      eq\n      iszero\n        /* \"ERC1155_Dropsite.sol\":974:1036  require(to != address(0), \"ERC1155: mint to the zero address\") */\n      tag_105\n      jumpi\n      mload(0x40)\n      0x08c379a000000000000000000000000000000000000000000000000000000000\n      dup2\n      mstore\n      0x04\n      add\n      tag_106\n      swap1\n      tag_107\n      jump\t// in\n    tag_106:\n      mload(0x40)\n      dup1\n      swap2\n      sub\n      swap1\n      revert\n    tag_105:\n        /* \"ERC1155_Dropsite.sol\":1047:1063  address operator */\n      0x00\n        /* \"ERC1155_Dropsite.sol\":1066:1078  _msgSender() */\n      tag_108\n        /* \"ERC1155_Dropsite.sol\":1066:1076  _msgSender */\n      tag_33\n        /* \"ERC1155_Dropsite.sol\":1066:1078  _msgSender() */\n      jump\t// in\n    tag_108:\n        /* \"ERC1155_Dropsite.sol\":1047:1078  address operator = _msgSender() */\n      swap1\n      pop\n        /* \"ERC1155_Dropsite.sol\":1089:1191  _beforeTokenTransfer(operator, address(0), to, _asSingletonArray(id), _asSingletonArray(amount), data) */\n      tag_109\n        /* \"ERC1155_Dropsite.sol\":1110:1118  operator */\n      dup2\n        /* \"ERC1155_Dropsite.sol\":1128:1129  0 */\n      0x00\n        /* \"ERC1155_Dropsite.sol\":1132:1134  to */\n      dup8\n        /* \"ERC1155_Dropsite.sol\":1136:1157  _asSingletonArray(id) */\n      tag_110\n        /* \"ERC1155_Dropsite.sol\":1154:1156  id */\n      dup9\n        /* \"ERC1155_Dropsite.sol\":1136:1153  _asSingletonArray */\n      tag_111\n        /* \"ERC1155_Dropsite.sol\":1136:1157  _asSingletonArray(id) */\n      jump\t// in\n    tag_110:\n        /* \"ERC1155_Dropsite.sol\":1159:1184  _asSingletonArray(amount) */\n      tag_112\n        /* \"ERC1155_Dropsite.sol\":1177:1183  amount */\n      dup9\n        /* \"ERC1155_Dropsite.sol\":1159:1176  _asSingletonArray */\n      tag_111\n        /* \"ERC1155_Dropsite.sol\":1159:1184  _asSingletonArray(amount) */\n      jump\t// in\n    tag_112:\n        /* \"ERC1155_Dropsite.sol\":1186:1190  data */\n      dup8\n        /* \"ERC1155_Dropsite.sol\":1089:1109  _beforeTokenTransfer */\n      tag_113\n        /* \"ERC1155_Dropsite.sol\":1089:1191  _beforeTokenTransfer(operator, address(0), to, _asSingletonArray(id), _asSingletonArray(amount), data) */\n      jump\t// in\n    tag_109:\n        /* \"ERC1155_Dropsite.sol\":1222:1228  amount */\n      dup3\n        /* \"ERC1155_Dropsite.sol\":1201:1210  _balances */\n      0x00\n        /* \"ERC1155_Dropsite.sol\":1201:1214  _balances[id] */\n      dup1\n        /* \"ERC1155_Dropsite.sol\":1211:1213  id */\n      dup7\n        /* \"ERC1155_Dropsite.sol\":1201:1214  _balances[id] */\n      dup2\n      mstore\n      0x20\n      add\n      swap1\n      dup2\n      mstore\n      0x20\n      add\n      0x00\n      keccak256\n        /* \"ERC1155_Dropsite.sol\":1201:1218  _balances[id][to] */\n      0x00\n        /* \"ERC1155_Dropsite.sol\":1215:1217  to */\n      dup8\n        /* \"ERC1155_Dropsite.sol\":1201:1218  _balances[id][to] */\n      0xffffffffffffffffffffffffffffffffffffffff\n      and\n      0xffffffffffffffffffffffffffffffffffffffff\n      and\n      dup2\n      mstore\n      0x20\n      add\n      swap1\n      dup2\n      mstore\n      0x20\n      add\n      0x00\n      keccak256\n      0x00\n        /* \"ERC1155_Dropsite.sol\":1201:1228  _balances[id][to] += amount */\n      dup3\n      dup3\n      sload\n      tag_114\n      swap2\n      swap1\n      tag_115\n      jump\t// in\n    tag_114:\n      swap3\n      pop\n      pop\n      dup2\n      swap1\n      sstore\n      pop\n        /* \"ERC1155_Dropsite.sol\":1280:1282  to */\n      dup5\n        /* \"ERC1155_Dropsite.sol\":1243:1295  TransferSingle(operator, address(0), to, id, amount) */\n      0xffffffffffffffffffffffffffffffffffffffff\n      and\n        /* \"ERC1155_Dropsite.sol\":1276:1277  0 */\n      0x00\n        /* \"ERC1155_Dropsite.sol\":1243:1295  TransferSingle(operator, address(0), to, id, amount) */\n      0xffffffffffffffffffffffffffffffffffffffff\n      and\n        /* \"ERC1155_Dropsite.sol\":1258:1266  operator */\n      dup3\n        /* \"ERC1155_Dropsite.sol\":1243:1295  TransferSingle(operator, address(0), to, id, amount) */\n      0xffffffffffffffffffffffffffffffffffffffff\n      and\n      0xc3d58168c5ae7397731d063d5bbf3d657854427343f4c083240f7aacaa2d0f62\n        /* \"ERC1155_Dropsite.sol\":1284:1286  id */\n      dup8\n        /* \"ERC1155_Dropsite.sol\":1288:1294  amount */\n      dup8\n        /* \"ERC1155_Dropsite.sol\":1243:1295  TransferSingle(operator, address(0), to, id, amount) */\n      mload(0x40)\n      tag_116\n      swap3\n      swap2\n      swap1\n      tag_117\n      jump\t// in\n    tag_116:\n      mload(0x40)\n      dup1\n      swap2\n      sub\n      swap1\n      log4\n        /* \"ERC1155_Dropsite.sol\":1305:1379  _doSafeTransferAcceptanceCheck(operator, address(0), to, id, amount, data) */\n      tag_118\n        /* \"ERC1155_Dropsite.sol\":1336:1344  operator */\n      dup2\n        /* \"ERC1155_Dropsite.sol\":1354:1355  0 */\n      0x00\n        /* \"ERC1155_Dropsite.sol\":1358:1360  to */\n      dup8\n        /* \"ERC1155_Dropsite.sol\":1362:1364  id */\n      dup8\n        /* \"ERC1155_Dropsite.sol\":1366:1372  amount */\n      dup8\n        /* \"ERC1155_Dropsite.sol\":1374:1378  data */\n      dup8\n        /* \"ERC1155_Dropsite.sol\":1305:1335  _doSafeTransferAcceptanceCheck */\n      tag_119\n        /* \"ERC1155_Dropsite.sol\":1305:1379  _doSafeTransferAcceptanceCheck(operator, address(0), to, id, amount, data) */\n      jump\t// in\n    tag_118:\n        /* \"ERC1155_Dropsite.sol\":964:1386  {... */\n      pop\n        /* \"ERC1155_Dropsite.sol\":835:1386  function _mint(... */\n      pop\n      pop\n      pop\n      pop\n      jump\t// out\n        /* \"ERC1155_Dropsite.sol\":2344:2537  function _asSingletonArray(uint256 element) private pure returns (uint256[] memory) {... */\n    tag_111:\n        /* \"ERC1155_Dropsite.sol\":2410:2426  uint256[] memory */\n      0x60\n        /* \"ERC1155_Dropsite.sol\":2438:2460  uint256[] memory array */\n      0x00\n        /* \"ERC1155_Dropsite.sol\":2477:2478  1 */\n      0x01\n        /* \"ERC1155_Dropsite.sol\":2463:2479  new uint256[](1) */\n      0xffffffffffffffff\n      dup2\n      gt\n      iszero\n      tag_121\n      jumpi\n      tag_122\n      tag_123\n      jump\t// in\n    tag_122:\n    tag_121:\n      mload(0x40)\n      swap1\n      dup1\n      dup3\n      mstore\n      dup1\n      0x20\n      mul\n      0x20\n      add\n      dup3\n      add\n      0x40\n      mstore\n      dup1\n      iszero\n      tag_124\n      jumpi\n      dup2\n      0x20\n      add\n      0x20\n      dup3\n      mul\n      dup1\n      calldatasize\n      dup4\n      calldatacopy\n      dup1\n      dup3\n      add\n      swap2\n      pop\n      pop\n      swap1\n      pop\n    tag_124:\n      pop\n        /* \"ERC1155_Dropsite.sol\":2438:2479  uint256[] memory array = new uint256[](1) */\n      swap1\n      pop\n        /* \"ERC1155_Dropsite.sol\":2500:2507  element */\n      dup3\n        /* \"ERC1155_Dropsite.sol\":2489:2494  array */\n      dup2\n        /* \"ERC1155_Dropsite.sol\":2495:2496  0 */\n      0x00\n        /* \"ERC1155_Dropsite.sol\":2489:2497  array[0] */\n      dup2\n      mload\n      dup2\n      lt\n      tag_125\n      jumpi\n      tag_126\n      tag_127\n      jump\t// in\n    tag_126:\n    tag_125:\n      0x20\n      mul\n      0x20\n      add\n      add\n        /* \"ERC1155_Dropsite.sol\":2489:2507  array[0] = element */\n      dup2\n      dup2\n      mstore\n      pop\n      pop\n        /* \"ERC1155_Dropsite.sol\":2525:2530  array */\n      dup1\n        /* \"ERC1155_Dropsite.sol\":2518:2530  return array */\n      swap2\n      pop\n      pop\n        /* \"ERC1155_Dropsite.sol\":2344:2537  function _asSingletonArray(uint256 element) private pure returns (uint256[] memory) {... */\n      swap2\n      swap1\n      pop\n      jump\t// out\n        /* \"ERC1155_Dropsite.sol\":1393:1607  function _beforeTokenTransfer(... */\n    tag_113:\n      pop\n      pop\n      pop\n      pop\n      pop\n      pop\n      jump\t// out\n        /* \"ERC1155_Dropsite.sol\":1613:2338  function _doSafeTransferAcceptanceCheck(... */\n    tag_119:\n        /* \"ERC1155_Dropsite.sol\":1820:1835  to.isContract() */\n      tag_130\n        /* \"ERC1155_Dropsite.sol\":1820:1822  to */\n      dup5\n        /* \"ERC1155_Dropsite.sol\":1820:1833  to.isContract */\n      0xffffffffffffffffffffffffffffffffffffffff\n      and\n      tag_131\n        /* \"ERC1155_Dropsite.sol\":1820:1835  to.isContract() */\n      jump\t// in\n    tag_130:\n        /* \"ERC1155_Dropsite.sol\":1816:2332  if (to.isContract()) {... */\n      iszero\n      tag_132\n      jumpi\n        /* \"ERC1155_Dropsite.sol\":1872:1874  to */\n      dup4\n        /* \"ERC1155_Dropsite.sol\":1855:1893  IERC1155Receiver(to).onERC1155Received */\n      0xffffffffffffffffffffffffffffffffffffffff\n      and\n      0xf23a6e61\n        /* \"ERC1155_Dropsite.sol\":1894:1902  operator */\n      dup8\n        /* \"ERC1155_Dropsite.sol\":1904:1908  from */\n      dup8\n        /* \"ERC1155_Dropsite.sol\":1910:1912  id */\n      dup7\n        /* \"ERC1155_Dropsite.sol\":1914:1920  amount */\n      dup7\n        /* \"ERC1155_Dropsite.sol\":1922:1926  data */\n      dup7\n        /* \"ERC1155_Dropsite.sol\":1855:1927  IERC1155Receiver(to).onERC1155Received(operator, from, id, amount, data) */\n      mload(0x40)\n      dup7\n      0xffffffff\n      and\n      0xe0\n      shl\n      dup2\n      mstore\n      0x04\n      add\n      tag_133\n      swap6\n      swap5\n      swap4\n      swap3\n      swap2\n      swap1\n      tag_134\n      jump\t// in\n    tag_133:\n      0x20\n      mload(0x40)\n      dup1\n      dup4\n      sub\n      dup2\n      0x00\n      dup8\n      dup1\n      extcodesize\n      iszero\n      dup1\n      iszero\n      tag_135\n      jumpi\n      0x00\n      dup1\n      revert\n    tag_135:\n      pop\n      gas\n      call\n      swap3\n      pop\n      pop\n      pop\n      dup1\n      iszero\n      tag_136\n      jumpi\n      pop\n      mload(0x40)\n      returndatasize\n      not(0x1f)\n      0x1f\n      dup3\n      add\n      and\n      dup3\n      add\n      dup1\n      0x40\n      mstore\n      pop\n      dup2\n      add\n      swap1\n      tag_137\n      swap2\n      swap1\n      tag_138\n      jump\t// in\n    tag_137:\n      0x01\n    tag_136:\n        /* \"ERC1155_Dropsite.sol\":1851:2322  try IERC1155Receiver(to).onERC1155Received(operator, from, id, amount, data) returns (bytes4 response) {... */\n      tag_139\n      jumpi\n      tag_143\n      tag_144\n      jump\t// in\n    tag_143:\n      dup1\n      0x08c379a0\n      eq\n      iszero\n      tag_142\n      jumpi\n      pop\n      tag_145\n      tag_146\n      jump\t// in\n    tag_145:\n      dup1\n      tag_147\n      jumpi\n      pop\n      jump(tag_141)\n    tag_147:\n        /* \"ERC1155_Dropsite.sol\":2198:2204  reason */\n      dup1\n        /* \"ERC1155_Dropsite.sol\":2191:2205  revert(reason) */\n      mload(0x40)\n      0x08c379a000000000000000000000000000000000000000000000000000000000\n      dup2\n      mstore\n      0x04\n      add\n      tag_148\n      swap2\n      swap1\n      tag_149\n      jump\t// in\n    tag_148:\n      mload(0x40)\n      dup1\n      swap2\n      sub\n      swap1\n      revert\n        /* \"ERC1155_Dropsite.sol\":1851:2322  try IERC1155Receiver(to).onERC1155Received(operator, from, id, amount, data) returns (bytes4 response) {... */\n    tag_142:\n      pop\n    tag_141:\n        /* \"ERC1155_Dropsite.sol\":2245:2307  revert(\"ERC1155: transfer to non ERC1155Receiver implementer\") */\n      mload(0x40)\n      0x08c379a000000000000000000000000000000000000000000000000000000000\n      dup2\n      mstore\n      0x04\n      add\n      tag_150\n      swap1\n      tag_151\n      jump\t// in\n    tag_150:\n      mload(0x40)\n      dup1\n      swap2\n      sub\n      swap1\n      revert\n        /* \"ERC1155_Dropsite.sol\":1851:2322  try IERC1155Receiver(to).onERC1155Received(operator, from, id, amount, data) returns (bytes4 response) {... */\n    tag_139:\n        /* \"ERC1155_Dropsite.sol\":1988:2031  IERC1155Receiver.onERC1155Received.selector */\n      shl(0xe0, 0xf23a6e61)\n        /* \"ERC1155_Dropsite.sol\":1976:2031  response != IERC1155Receiver.onERC1155Received.selector */\n      not(0xffffffffffffffffffffffffffffffffffffffffffffffffffffffff)\n      and\n        /* \"ERC1155_Dropsite.sol\":1976:1984  response */\n      dup2\n        /* \"ERC1155_Dropsite.sol\":1976:2031  response != IERC1155Receiver.onERC1155Received.selector */\n      not(0xffffffffffffffffffffffffffffffffffffffffffffffffffffffff)\n      and\n      eq\n        /* \"ERC1155_Dropsite.sol\":1972:2124  if (response != IERC1155Receiver.onERC1155Received.selector) {... */\n      tag_153\n      jumpi\n        /* \"ERC1155_Dropsite.sol\":2055:2105  revert(\"ERC1155: ERC1155Receiver rejected tokens\") */\n      mload(0x40)\n      0x08c379a000000000000000000000000000000000000000000000000000000000\n      dup2\n      mstore\n      0x04\n      add\n      tag_154\n      swap1\n      tag_155\n      jump\t// in\n    tag_154:\n      mload(0x40)\n      dup1\n      swap2\n      sub\n      swap1\n      revert\n        /* \"ERC1155_Dropsite.sol\":1972:2124  if (response != IERC1155Receiver.onERC1155Received.selector) {... */\n    tag_153:\n        /* \"ERC1155_Dropsite.sol\":1928:2138  returns (bytes4 response) {... */\n      pop\n        /* \"ERC1155_Dropsite.sol\":1816:2332  if (to.isContract()) {... */\n    tag_132:\n        /* \"ERC1155_Dropsite.sol\":1613:2338  function _doSafeTransferAcceptanceCheck(... */\n      pop\n      pop\n      pop\n      pop\n      pop\n      pop\n      jump\t// out\n        /* \"Address.sol\":771:1148  function isContract(address account) internal view returns (bool) {... */\n    tag_131:\n        /* \"Address.sol\":831:835  bool */\n      0x00\n        /* \"Address.sol\":1034:1046  uint256 size */\n      dup1\n        /* \"Address.sol\":1099:1106  account */\n      dup3\n        /* \"Address.sol\":1087:1107  extcodesize(account) */\n      extcodesize\n        /* \"Address.sol\":1079:1107  size := extcodesize(account) */\n      swap1\n      pop\n        /* \"Address.sol\":1140:1141  0 */\n      0x00\n        /* \"Address.sol\":1133:1137  size */\n      dup2\n        /* \"Address.sol\":1133:1141  size > 0 */\n      gt\n        /* \"Address.sol\":1126:1141  return size > 0 */\n      swap2\n      pop\n      pop\n        /* \"Address.sol\":771:1148  function isContract(address account) internal view returns (bool) {... */\n      swap2\n      swap1\n      pop\n      jump\t// out\n    tag_63:\n      dup3\n      dup1\n      sload\n      tag_157\n      swap1\n      tag_78\n      jump\t// in\n    tag_157:\n      swap1\n      0x00\n      mstore\n      keccak256(0x00, 0x20)\n      swap1\n      0x1f\n      add\n      0x20\n      swap1\n      div\n      dup2\n      add\n      swap3\n      dup3\n      tag_159\n      jumpi\n      0x00\n      dup6\n      sstore\n      jump(tag_158)\n    tag_159:\n      dup3\n      0x1f\n      lt\n      tag_160\n      jumpi\n      dup1\n      mload\n      not(0xff)\n      and\n      dup4\n      dup1\n      add\n      or\n      dup6\n      sstore\n      jump(tag_158)\n    tag_160:\n      dup3\n      dup1\n      add\n      0x01\n      add\n      dup6\n      sstore\n      dup3\n      iszero\n      tag_158\n      jumpi\n      swap2\n      dup3\n      add\n    tag_161:\n      dup3\n      dup2\n      gt\n      iszero\n      tag_162\n      jumpi\n      dup3\n      mload\n      dup3\n      sstore\n      swap2\n      0x20\n      add\n      swap2\n      swap1\n      0x01\n      add\n      swap1\n      jump(tag_161)\n    tag_162:\n    tag_158:\n      pop\n      swap1\n      pop\n      tag_163\n      swap2\n      swap1\n      tag_164\n      jump\t// in\n    tag_163:\n      pop\n      swap1\n      jump\t// out\n    tag_164:\n    tag_165:\n      dup1\n      dup3\n      gt\n      iszero\n      tag_166\n      jumpi\n      0x00\n      dup2\n      0x00\n      swap1\n      sstore\n      pop\n      0x01\n      add\n      jump(tag_165)\n    tag_166:\n      pop\n      swap1\n      jump\t// out\n        /* \"#utility.yul\":7:146   */\n    tag_168:\n        /* \"#utility.yul\":53:58   */\n      0x00\n        /* \"#utility.yul\":91:97   */\n      dup2\n        /* \"#utility.yul\":78:98   */\n      calldataload\n        /* \"#utility.yul\":69:98   */\n      swap1\n      pop\n        /* \"#utility.yul\":107:140   */\n      tag_170\n        /* \"#utility.yul\":134:139   */\n      dup2\n        /* \"#utility.yul\":107:140   */\n      tag_171\n      jump\t// in\n    tag_170:\n        /* \"#utility.yul\":7:146   */\n      swap3\n      swap2\n      pop\n      pop\n      jump\t// out\n        /* \"#utility.yul\":152:293   */\n    tag_172:\n        /* \"#utility.yul\":208:213   */\n      0x00\n        /* \"#utility.yul\":239:245   */\n      dup2\n        /* \"#utility.yul\":233:246   */\n      mload\n        /* \"#utility.yul\":224:246   */\n      swap1\n      pop\n        /* \"#utility.yul\":255:287   */\n      tag_174\n        /* \"#utility.yul\":281:286   */\n      dup2\n        /* \"#utility.yul\":255:287   */\n      tag_175\n      jump\t// in\n    tag_174:\n        /* \"#utility.yul\":152:293   */\n      swap3\n      swap2\n      pop\n      pop\n      jump\t// out\n        /* \"#utility.yul\":299:628   */\n    tag_21:\n        /* \"#utility.yul\":358:364   */\n      0x00\n        /* \"#utility.yul\":407:409   */\n      0x20\n        /* \"#utility.yul\":395:404   */\n      dup3\n        /* \"#utility.yul\":386:393   */\n      dup5\n        /* \"#utility.yul\":382:405   */\n      sub\n        /* \"#utility.yul\":378:410   */\n      slt\n        /* \"#utility.yul\":375:494   */\n      iszero\n      tag_177\n      jumpi\n        /* \"#utility.yul\":413:492   */\n      tag_178\n      tag_179\n      jump\t// in\n    tag_178:\n        /* \"#utility.yul\":375:494   */\n    tag_177:\n        /* \"#utility.yul\":533:534   */\n      0x00\n        /* \"#utility.yul\":558:611   */\n      tag_180\n        /* \"#utility.yul\":603:610   */\n      dup5\n        /* \"#utility.yul\":594:600   */\n      dup3\n        /* \"#utility.yul\":583:592   */\n      dup6\n        /* \"#utility.yul\":579:601   */\n      add\n        /* \"#utility.yul\":558:611   */\n      tag_168\n      jump\t// in\n    tag_180:\n        /* \"#utility.yul\":548:611   */\n      swap2\n      pop\n        /* \"#utility.yul\":504:621   */\n      pop\n        /* \"#utility.yul\":299:628   */\n      swap3\n      swap2\n      pop\n      pop\n      jump\t// out\n        /* \"#utility.yul\":634:983   */\n    tag_138:\n        /* \"#utility.yul\":703:709   */\n      0x00\n        /* \"#utility.yul\":752:754   */\n      0x20\n        /* \"#utility.yul\":740:749   */\n      dup3\n        /* \"#utility.yul\":731:738   */\n      dup5\n        /* \"#utility.yul\":727:750   */\n      sub\n        /* \"#utility.yul\":723:755   */\n      slt\n        /* \"#utility.yul\":720:839   */\n      iszero\n      tag_182\n      jumpi\n        /* \"#utility.yul\":758:837   */\n      tag_183\n      tag_179\n      jump\t// in\n    tag_183:\n        /* \"#utility.yul\":720:839   */\n    tag_182:\n        /* \"#utility.yul\":878:879   */\n      0x00\n        /* \"#utility.yul\":903:966   */\n      tag_184\n        /* \"#utility.yul\":958:965   */\n      dup5\n        /* \"#utility.yul\":949:955   */\n      dup3\n        /* \"#utility.yul\":938:947   */\n      dup6\n        /* \"#utility.yul\":934:956   */\n      add\n        /* \"#utility.yul\":903:966   */\n      tag_172\n      jump\t// in\n    tag_184:\n        /* \"#utility.yul\":893:966   */\n      swap2\n      pop\n        /* \"#utility.yul\":849:976   */\n      pop\n        /* \"#utility.yul\":634:983   */\n      swap3\n      swap2\n      pop\n      pop\n      jump\t// out\n        /* \"#utility.yul\":989:1131   */\n    tag_185:\n        /* \"#utility.yul\":1092:1124   */\n      tag_187\n        /* \"#utility.yul\":1118:1123   */\n      dup2\n        /* \"#utility.yul\":1092:1124   */\n      tag_188\n      jump\t// in\n    tag_187:\n        /* \"#utility.yul\":1087:1090   */\n      dup3\n        /* \"#utility.yul\":1080:1125   */\n      mstore\n        /* \"#utility.yul\":989:1131   */\n      pop\n      pop\n      jump\t// out\n        /* \"#utility.yul\":1137:1255   */\n    tag_189:\n        /* \"#utility.yul\":1224:1248   */\n      tag_191\n        /* \"#utility.yul\":1242:1247   */\n      dup2\n        /* \"#utility.yul\":1224:1248   */\n      tag_192\n      jump\t// in\n    tag_191:\n        /* \"#utility.yul\":1219:1222   */\n      dup3\n        /* \"#utility.yul\":1212:1249   */\n      mstore\n        /* \"#utility.yul\":1137:1255   */\n      pop\n      pop\n      jump\t// out\n        /* \"#utility.yul\":1261:1418   */\n    tag_193:\n        /* \"#utility.yul\":1366:1411   */\n      tag_195\n        /* \"#utility.yul\":1386:1410   */\n      tag_196\n        /* \"#utility.yul\":1404:1409   */\n      dup3\n        /* \"#utility.yul\":1386:1410   */\n      tag_192\n      jump\t// in\n    tag_196:\n        /* \"#utility.yul\":1366:1411   */\n      tag_197\n      jump\t// in\n    tag_195:\n        /* \"#utility.yul\":1361:1364   */\n      dup3\n        /* \"#utility.yul\":1354:1412   */\n      mstore\n        /* \"#utility.yul\":1261:1418   */\n      pop\n      pop\n      jump\t// out\n        /* \"#utility.yul\":1424:1533   */\n    tag_198:\n        /* \"#utility.yul\":1505:1526   */\n      tag_200\n        /* \"#utility.yul\":1520:1525   */\n      dup2\n        /* \"#utility.yul\":1505:1526   */\n      tag_201\n      jump\t// in\n    tag_200:\n        /* \"#utility.yul\":1500:1503   */\n      dup3\n        /* \"#utility.yul\":1493:1527   */\n      mstore\n        /* \"#utility.yul\":1424:1533   */\n      pop\n      pop\n      jump\t// out\n        /* \"#utility.yul\":1539:1899   */\n    tag_202:\n        /* \"#utility.yul\":1625:1628   */\n      0x00\n        /* \"#utility.yul\":1653:1691   */\n      tag_204\n        /* \"#utility.yul\":1685:1690   */\n      dup3\n        /* \"#utility.yul\":1653:1691   */\n      tag_205\n      jump\t// in\n    tag_204:\n        /* \"#utility.yul\":1707:1777   */\n      tag_206\n        /* \"#utility.yul\":1770:1776   */\n      dup2\n        /* \"#utility.yul\":1765:1768   */\n      dup6\n        /* \"#utility.yul\":1707:1777   */\n      tag_207\n      jump\t// in\n    tag_206:\n        /* \"#utility.yul\":1700:1777   */\n      swap4\n      pop\n        /* \"#utility.yul\":1786:1838   */\n      tag_208\n        /* \"#utility.yul\":1831:1837   */\n      dup2\n        /* \"#utility.yul\":1826:1829   */\n      dup6\n        /* \"#utility.yul\":1819:1823   */\n      0x20\n        /* \"#utility.yul\":1812:1817   */\n      dup7\n        /* \"#utility.yul\":1808:1824   */\n      add\n        /* \"#utility.yul\":1786:1838   */\n      tag_209\n      jump\t// in\n    tag_208:\n        /* \"#utility.yul\":1863:1892   */\n      tag_210\n        /* \"#utility.yul\":1885:1891   */\n      dup2\n        /* \"#utility.yul\":1863:1892   */\n      tag_211\n      jump\t// in\n    tag_210:\n        /* \"#utility.yul\":1858:1861   */\n      dup5\n        /* \"#utility.yul\":1854:1893   */\n      add\n        /* \"#utility.yul\":1847:1893   */\n      swap2\n      pop\n        /* \"#utility.yul\":1629:1899   */\n      pop\n        /* \"#utility.yul\":1539:1899   */\n      swap3\n      swap2\n      pop\n      pop\n      jump\t// out\n        /* \"#utility.yul\":1905:2269   */\n    tag_212:\n        /* \"#utility.yul\":1993:1996   */\n      0x00\n        /* \"#utility.yul\":2021:2060   */\n      tag_214\n        /* \"#utility.yul\":2054:2059   */\n      dup3\n        /* \"#utility.yul\":2021:2060   */\n      tag_215\n      jump\t// in\n    tag_214:\n        /* \"#utility.yul\":2076:2147   */\n      tag_216\n        /* \"#utility.yul\":2140:2146   */\n      dup2\n        /* \"#utility.yul\":2135:2138   */\n      dup6\n        /* \"#utility.yul\":2076:2147   */\n      tag_217\n      jump\t// in\n    tag_216:\n        /* \"#utility.yul\":2069:2147   */\n      swap4\n      pop\n        /* \"#utility.yul\":2156:2208   */\n      tag_218\n        /* \"#utility.yul\":2201:2207   */\n      dup2\n        /* \"#utility.yul\":2196:2199   */\n      dup6\n        /* \"#utility.yul\":2189:2193   */\n      0x20\n        /* \"#utility.yul\":2182:2187   */\n      dup7\n        /* \"#utility.yul\":2178:2194   */\n      add\n        /* \"#utility.yul\":2156:2208   */\n      tag_209\n      jump\t// in\n    tag_218:\n        /* \"#utility.yul\":2233:2262   */\n      tag_219\n        /* \"#utility.yul\":2255:2261   */\n      dup2\n        /* \"#utility.yul\":2233:2262   */\n      tag_211\n      jump\t// in\n    tag_219:\n        /* \"#utility.yul\":2228:2231   */\n      dup5\n        /* \"#utility.yul\":2224:2263   */\n      add\n        /* \"#utility.yul\":2217:2263   */\n      swap2\n      pop\n        /* \"#utility.yul\":1997:2269   */\n      pop\n        /* \"#utility.yul\":1905:2269   */\n      swap3\n      swap2\n      pop\n      pop\n      jump\t// out\n        /* \"#utility.yul\":2275:2641   */\n    tag_220:\n        /* \"#utility.yul\":2417:2420   */\n      0x00\n        /* \"#utility.yul\":2438:2505   */\n      tag_222\n        /* \"#utility.yul\":2502:2504   */\n      0x34\n        /* \"#utility.yul\":2497:2500   */\n      dup4\n        /* \"#utility.yul\":2438:2505   */\n      tag_217\n      jump\t// in\n    tag_222:\n        /* \"#utility.yul\":2431:2505   */\n      swap2\n      pop\n        /* \"#utility.yul\":2514:2607   */\n      tag_223\n        /* \"#utility.yul\":2603:2606   */\n      dup3\n        /* \"#utility.yul\":2514:2607   */\n      tag_224\n      jump\t// in\n    tag_223:\n        /* \"#utility.yul\":2632:2634   */\n      0x40\n        /* \"#utility.yul\":2627:2630   */\n      dup3\n        /* \"#utility.yul\":2623:2635   */\n      add\n        /* \"#utility.yul\":2616:2635   */\n      swap1\n      pop\n        /* \"#utility.yul\":2275:2641   */\n      swap2\n      swap1\n      pop\n      jump\t// out\n        /* \"#utility.yul\":2647:3013   */\n    tag_225:\n        /* \"#utility.yul\":2789:2792   */\n      0x00\n        /* \"#utility.yul\":2810:2877   */\n      tag_227\n        /* \"#utility.yul\":2874:2876   */\n      0x28\n        /* \"#utility.yul\":2869:2872   */\n      dup4\n        /* \"#utility.yul\":2810:2877   */\n      tag_217\n      jump\t// in\n    tag_227:\n        /* \"#utility.yul\":2803:2877   */\n      swap2\n      pop\n        /* \"#utility.yul\":2886:2979   */\n      tag_228\n        /* \"#utility.yul\":2975:2978   */\n      dup3\n        /* \"#utility.yul\":2886:2979   */\n      tag_229\n      jump\t// in\n    tag_228:\n        /* \"#utility.yul\":3004:3006   */\n      0x40\n        /* \"#utility.yul\":2999:3002   */\n      dup3\n        /* \"#utility.yul\":2995:3007   */\n      add\n        /* \"#utility.yul\":2988:3007   */\n      swap1\n      pop\n        /* \"#utility.yul\":2647:3013   */\n      swap2\n      swap1\n      pop\n      jump\t// out\n        /* \"#utility.yul\":3019:3385   */\n    tag_230:\n        /* \"#utility.yul\":3161:3164   */\n      0x00\n        /* \"#utility.yul\":3182:3249   */\n      tag_232\n        /* \"#utility.yul\":3246:3248   */\n      0x1b\n        /* \"#utility.yul\":3241:3244   */\n      dup4\n        /* \"#utility.yul\":3182:3249   */\n      tag_217\n      jump\t// in\n    tag_232:\n        /* \"#utility.yul\":3175:3249   */\n      swap2\n      pop\n        /* \"#utility.yul\":3258:3351   */\n      tag_233\n        /* \"#utility.yul\":3347:3350   */\n      dup3\n        /* \"#utility.yul\":3258:3351   */\n      tag_234\n      jump\t// in\n    tag_233:\n        /* \"#utility.yul\":3376:3378   */\n      0x20\n        /* \"#utility.yul\":3371:3374   */\n      dup3\n        /* \"#utility.yul\":3367:3379   */\n      add\n        /* \"#utility.yul\":3360:3379   */\n      swap1\n      pop\n        /* \"#utility.yul\":3019:3385   */\n      swap2\n      swap1\n      pop\n      jump\t// out\n        /* \"#utility.yul\":3391:3757   */\n    tag_235:\n        /* \"#utility.yul\":3533:3536   */\n      0x00\n        /* \"#utility.yul\":3554:3621   */\n      tag_237\n        /* \"#utility.yul\":3618:3620   */\n      0x1b\n        /* \"#utility.yul\":3613:3616   */\n      dup4\n        /* \"#utility.yul\":3554:3621   */\n      tag_217\n      jump\t// in\n    tag_237:\n        /* \"#utility.yul\":3547:3621   */\n      swap2\n      pop\n        /* \"#utility.yul\":3630:3723   */\n      tag_238\n        /* \"#utility.yul\":3719:3722   */\n      dup3\n        /* \"#utility.yul\":3630:3723   */\n      tag_239\n      jump\t// in\n    tag_238:\n        /* \"#utility.yul\":3748:3750   */\n      0x20\n        /* \"#utility.yul\":3743:3746   */\n      dup3\n        /* \"#utility.yul\":3739:3751   */\n      add\n        /* \"#utility.yul\":3732:3751   */\n      swap1\n      pop\n        /* \"#utility.yul\":3391:3757   */\n      swap2\n      swap1\n      pop\n      jump\t// out\n        /* \"#utility.yul\":3763:4129   */\n    tag_240:\n        /* \"#utility.yul\":3905:3908   */\n      0x00\n        /* \"#utility.yul\":3926:3993   */\n      tag_242\n        /* \"#utility.yul\":3990:3992   */\n      0x18\n        /* \"#utility.yul\":3985:3988   */\n      dup4\n        /* \"#utility.yul\":3926:3993   */\n      tag_217\n      jump\t// in\n    tag_242:\n        /* \"#utility.yul\":3919:3993   */\n      swap2\n      pop\n        /* \"#utility.yul\":4002:4095   */\n      tag_243\n        /* \"#utility.yul\":4091:4094   */\n      dup3\n        /* \"#utility.yul\":4002:4095   */\n      tag_244\n      jump\t// in\n    tag_243:\n        /* \"#utility.yul\":4120:4122   */\n      0x20\n        /* \"#utility.yul\":4115:4118   */\n      dup3\n        /* \"#utility.yul\":4111:4123   */\n      add\n        /* \"#utility.yul\":4104:4123   */\n      swap1\n      pop\n        /* \"#utility.yul\":3763:4129   */\n      swap2\n      swap1\n      pop\n      jump\t// out\n        /* \"#utility.yul\":4135:4501   */\n    tag_245:\n        /* \"#utility.yul\":4277:4280   */\n      0x00\n        /* \"#utility.yul\":4298:4365   */\n      tag_247\n        /* \"#utility.yul\":4362:4364   */\n      0x1b\n        /* \"#utility.yul\":4357:4360   */\n      dup4\n        /* \"#utility.yul\":4298:4365   */\n      tag_217\n      jump\t// in\n    tag_247:\n        /* \"#utility.yul\":4291:4365   */\n      swap2\n      pop\n        /* \"#utility.yul\":4374:4467   */\n      tag_248\n        /* \"#utility.yul\":4463:4466   */\n      dup3\n        /* \"#utility.yul\":4374:4467   */\n      tag_249\n      jump\t// in\n    tag_248:\n        /* \"#utility.yul\":4492:4494   */\n      0x20\n        /* \"#utility.yul\":4487:4490   */\n      dup3\n        /* \"#utility.yul\":4483:4495   */\n      add\n        /* \"#utility.yul\":4476:4495   */\n      swap1\n      pop\n        /* \"#utility.yul\":4135:4501   */\n      swap2\n      swap1\n      pop\n      jump\t// out\n        /* \"#utility.yul\":4507:4873   */\n    tag_250:\n        /* \"#utility.yul\":4649:4652   */\n      0x00\n        /* \"#utility.yul\":4670:4737   */\n      tag_252\n        /* \"#utility.yul\":4734:4736   */\n      0x19\n        /* \"#utility.yul\":4729:4732   */\n      dup4\n        /* \"#utility.yul\":4670:4737   */\n      tag_217\n      jump\t// in\n    tag_252:\n        /* \"#utility.yul\":4663:4737   */\n      swap2\n      pop\n        /* \"#utility.yul\":4746:4839   */\n      tag_253\n        /* \"#utility.yul\":4835:4838   */\n      dup3\n        /* \"#utility.yul\":4746:4839   */\n      tag_254\n      jump\t// in\n    tag_253:\n        /* \"#utility.yul\":4864:4866   */\n      0x20\n        /* \"#utility.yul\":4859:4862   */\n      dup3\n        /* \"#utility.yul\":4855:4867   */\n      add\n        /* \"#utility.yul\":4848:4867   */\n      swap1\n      pop\n        /* \"#utility.yul\":4507:4873   */\n      swap2\n      swap1\n      pop\n      jump\t// out\n        /* \"#utility.yul\":4879:5245   */\n    tag_255:\n        /* \"#utility.yul\":5021:5024   */\n      0x00\n        /* \"#utility.yul\":5042:5109   */\n      tag_257\n        /* \"#utility.yul\":5106:5108   */\n      0x21\n        /* \"#utility.yul\":5101:5104   */\n      dup4\n        /* \"#utility.yul\":5042:5109   */\n      tag_217\n      jump\t// in\n    tag_257:\n        /* \"#utility.yul\":5035:5109   */\n      swap2\n      pop\n        /* \"#utility.yul\":5118:5211   */\n      tag_258\n        /* \"#utility.yul\":5207:5210   */\n      dup3\n        /* \"#utility.yul\":5118:5211   */\n      tag_259\n      jump\t// in\n    tag_258:\n        /* \"#utility.yul\":5236:5238   */\n      0x40\n        /* \"#utility.yul\":5231:5234   */\n      dup3\n        /* \"#utility.yul\":5227:5239   */\n      add\n        /* \"#utility.yul\":5220:5239   */\n      swap1\n      pop\n        /* \"#utility.yul\":4879:5245   */\n      swap2\n      swap1\n      pop\n      jump\t// out\n        /* \"#utility.yul\":5251:5369   */\n    tag_260:\n        /* \"#utility.yul\":5338:5362   */\n      tag_262\n        /* \"#utility.yul\":5356:5361   */\n      dup2\n        /* \"#utility.yul\":5338:5362   */\n      tag_263\n      jump\t// in\n    tag_262:\n        /* \"#utility.yul\":5333:5336   */\n      dup3\n        /* \"#utility.yul\":5326:5363   */\n      mstore\n        /* \"#utility.yul\":5251:5369   */\n      pop\n      pop\n      jump\t// out\n        /* \"#utility.yul\":5375:5532   */\n    tag_264:\n        /* \"#utility.yul\":5480:5525   */\n      tag_266\n        /* \"#utility.yul\":5500:5524   */\n      tag_267\n        /* \"#utility.yul\":5518:5523   */\n      dup3\n        /* \"#utility.yul\":5500:5524   */\n      tag_263\n      jump\t// in\n    tag_267:\n        /* \"#utility.yul\":5480:5525   */\n      tag_268\n      jump\t// in\n    tag_266:\n        /* \"#utility.yul\":5475:5478   */\n      dup3\n        /* \"#utility.yul\":5468:5526   */\n      mstore\n        /* \"#utility.yul\":5375:5532   */\n      pop\n      pop\n      jump\t// out\n        /* \"#utility.yul\":5538:5935   */\n    tag_101:\n        /* \"#utility.yul\":5678:5681   */\n      0x00\n        /* \"#utility.yul\":5693:5768   */\n      tag_270\n        /* \"#utility.yul\":5764:5767   */\n      dup3\n        /* \"#utility.yul\":5755:5761   */\n      dup6\n        /* \"#utility.yul\":5693:5768   */\n      tag_264\n      jump\t// in\n    tag_270:\n        /* \"#utility.yul\":5793:5795   */\n      0x20\n        /* \"#utility.yul\":5788:5791   */\n      dup3\n        /* \"#utility.yul\":5784:5796   */\n      add\n        /* \"#utility.yul\":5777:5796   */\n      swap2\n      pop\n        /* \"#utility.yul\":5806:5881   */\n      tag_271\n        /* \"#utility.yul\":5877:5880   */\n      dup3\n        /* \"#utility.yul\":5868:5874   */\n      dup5\n        /* \"#utility.yul\":5806:5881   */\n      tag_193\n      jump\t// in\n    tag_271:\n        /* \"#utility.yul\":5906:5908   */\n      0x14\n        /* \"#utility.yul\":5901:5904   */\n      dup3\n        /* \"#utility.yul\":5897:5909   */\n      add\n        /* \"#utility.yul\":5890:5909   */\n      swap2\n      pop\n        /* \"#utility.yul\":5926:5929   */\n      dup2\n        /* \"#utility.yul\":5919:5929   */\n      swap1\n      pop\n        /* \"#utility.yul\":5538:5935   */\n      swap4\n      swap3\n      pop\n      pop\n      pop\n      jump\t// out\n        /* \"#utility.yul\":5941:6195   */\n    tag_30:\n        /* \"#utility.yul\":6050:6054   */\n      0x00\n        /* \"#utility.yul\":6088:6090   */\n      0x20\n        /* \"#utility.yul\":6077:6086   */\n      dup3\n        /* \"#utility.yul\":6073:6091   */\n      add\n        /* \"#utility.yul\":6065:6091   */\n      swap1\n      pop\n        /* \"#utility.yul\":6101:6188   */\n      tag_273\n        /* \"#utility.yul\":6185:6186   */\n      0x00\n        /* \"#utility.yul\":6174:6183   */\n      dup4\n        /* \"#utility.yul\":6170:6187   */\n      add\n        /* \"#utility.yul\":6161:6167   */\n      dup5\n        /* \"#utility.yul\":6101:6188   */\n      tag_185\n      jump\t// in\n    tag_273:\n        /* \"#utility.yul\":5941:6195   */\n      swap3\n      swap2\n      pop\n      pop\n      jump\t// out\n        /* \"#utility.yul\":6201:6952   */\n    tag_134:\n        /* \"#utility.yul\":6424:6428   */\n      0x00\n        /* \"#utility.yul\":6462:6465   */\n      0xa0\n        /* \"#utility.yul\":6451:6460   */\n      dup3\n        /* \"#utility.yul\":6447:6466   */\n      add\n        /* \"#utility.yul\":6439:6466   */\n      swap1\n      pop\n        /* \"#utility.yul\":6476:6547   */\n      tag_275\n        /* \"#utility.yul\":6544:6545   */\n      0x00\n        /* \"#utility.yul\":6533:6542   */\n      dup4\n        /* \"#utility.yul\":6529:6546   */\n      add\n        /* \"#utility.yul\":6520:6526   */\n      dup9\n        /* \"#utility.yul\":6476:6547   */\n      tag_189\n      jump\t// in\n    tag_275:\n        /* \"#utility.yul\":6557:6629   */\n      tag_276\n        /* \"#utility.yul\":6625:6627   */\n      0x20\n        /* \"#utility.yul\":6614:6623   */\n      dup4\n        /* \"#utility.yul\":6610:6628   */\n      add\n        /* \"#utility.yul\":6601:6607   */\n      dup8\n        /* \"#utility.yul\":6557:6629   */\n      tag_189\n      jump\t// in\n    tag_276:\n        /* \"#utility.yul\":6639:6711   */\n      tag_277\n        /* \"#utility.yul\":6707:6709   */\n      0x40\n        /* \"#utility.yul\":6696:6705   */\n      dup4\n        /* \"#utility.yul\":6692:6710   */\n      add\n        /* \"#utility.yul\":6683:6689   */\n      dup7\n        /* \"#utility.yul\":6639:6711   */\n      tag_260\n      jump\t// in\n    tag_277:\n        /* \"#utility.yul\":6721:6793   */\n      tag_278\n        /* \"#utility.yul\":6789:6791   */\n      0x60\n        /* \"#utility.yul\":6778:6787   */\n      dup4\n        /* \"#utility.yul\":6774:6792   */\n      add\n        /* \"#utility.yul\":6765:6771   */\n      dup6\n        /* \"#utility.yul\":6721:6793   */\n      tag_260\n      jump\t// in\n    tag_278:\n        /* \"#utility.yul\":6841:6850   */\n      dup2\n        /* \"#utility.yul\":6835:6839   */\n      dup2\n        /* \"#utility.yul\":6831:6851   */\n      sub\n        /* \"#utility.yul\":6825:6828   */\n      0x80\n        /* \"#utility.yul\":6814:6823   */\n      dup4\n        /* \"#utility.yul\":6810:6829   */\n      add\n        /* \"#utility.yul\":6803:6852   */\n      mstore\n        /* \"#utility.yul\":6869:6945   */\n      tag_279\n        /* \"#utility.yul\":6940:6944   */\n      dup2\n        /* \"#utility.yul\":6931:6937   */\n      dup5\n        /* \"#utility.yul\":6869:6945   */\n      tag_202\n      jump\t// in\n    tag_279:\n        /* \"#utility.yul\":6861:6945   */\n      swap1\n      pop\n        /* \"#utility.yul\":6201:6952   */\n      swap7\n      swap6\n      pop\n      pop\n      pop\n      pop\n      pop\n      pop\n      jump\t// out\n        /* \"#utility.yul\":6958:7168   */\n    tag_12:\n        /* \"#utility.yul\":7045:7049   */\n      0x00\n        /* \"#utility.yul\":7083:7085   */\n      0x20\n        /* \"#utility.yul\":7072:7081   */\n      dup3\n        /* \"#utility.yul\":7068:7086   */\n      add\n        /* \"#utility.yul\":7060:7086   */\n      swap1\n      pop\n        /* \"#utility.yul\":7096:7161   */\n      tag_281\n        /* \"#utility.yul\":7158:7159   */\n      0x00\n        /* \"#utility.yul\":7147:7156   */\n      dup4\n        /* \"#utility.yul\":7143:7160   */\n      add\n        /* \"#utility.yul\":7134:7140   */\n      dup5\n        /* \"#utility.yul\":7096:7161   */\n      tag_198\n      jump\t// in\n    tag_281:\n        /* \"#utility.yul\":6958:7168   */\n      swap3\n      swap2\n      pop\n      pop\n      jump\t// out\n        /* \"#utility.yul\":7174:7487   */\n    tag_149:\n        /* \"#utility.yul\":7287:7291   */\n      0x00\n        /* \"#utility.yul\":7325:7327   */\n      0x20\n        /* \"#utility.yul\":7314:7323   */\n      dup3\n        /* \"#utility.yul\":7310:7328   */\n      add\n        /* \"#utility.yul\":7302:7328   */\n      swap1\n      pop\n        /* \"#utility.yul\":7374:7383   */\n      dup2\n        /* \"#utility.yul\":7368:7372   */\n      dup2\n        /* \"#utility.yul\":7364:7384   */\n      sub\n        /* \"#utility.yul\":7360:7361   */\n      0x00\n        /* \"#utility.yul\":7349:7358   */\n      dup4\n        /* \"#utility.yul\":7345:7362   */\n      add\n        /* \"#utility.yul\":7338:7385   */\n      mstore\n        /* \"#utility.yul\":7402:7480   */\n      tag_283\n        /* \"#utility.yul\":7475:7479   */\n      dup2\n        /* \"#utility.yul\":7466:7472   */\n      dup5\n        /* \"#utility.yul\":7402:7480   */\n      tag_212\n      jump\t// in\n    tag_283:\n        /* \"#utility.yul\":7394:7480   */\n      swap1\n      pop\n        /* \"#utility.yul\":7174:7487   */\n      swap3\n      swap2\n      pop\n      pop\n      jump\t// out\n        /* \"#utility.yul\":7493:7912   */\n    tag_151:\n        /* \"#utility.yul\":7659:7663   */\n      0x00\n        /* \"#utility.yul\":7697:7699   */\n      0x20\n        /* \"#utility.yul\":7686:7695   */\n      dup3\n        /* \"#utility.yul\":7682:7700   */\n      add\n        /* \"#utility.yul\":7674:7700   */\n      swap1\n      pop\n        /* \"#utility.yul\":7746:7755   */\n      dup2\n        /* \"#utility.yul\":7740:7744   */\n      dup2\n        /* \"#utility.yul\":7736:7756   */\n      sub\n        /* \"#utility.yul\":7732:7733   */\n      0x00\n        /* \"#utility.yul\":7721:7730   */\n      dup4\n        /* \"#utility.yul\":7717:7734   */\n      add\n        /* \"#utility.yul\":7710:7757   */\n      mstore\n        /* \"#utility.yul\":7774:7905   */\n      tag_285\n        /* \"#utility.yul\":7900:7904   */\n      dup2\n        /* \"#utility.yul\":7774:7905   */\n      tag_220\n      jump\t// in\n    tag_285:\n        /* \"#utility.yul\":7766:7905   */\n      swap1\n      pop\n        /* \"#utility.yul\":7493:7912   */\n      swap2\n      swap1\n      pop\n      jump\t// out\n        /* \"#utility.yul\":7918:8337   */\n    tag_155:\n        /* \"#utility.yul\":8084:8088   */\n      0x00\n        /* \"#utility.yul\":8122:8124   */\n      0x20\n        /* \"#utility.yul\":8111:8120   */\n      dup3\n        /* \"#utility.yul\":8107:8125   */\n      add\n        /* \"#utility.yul\":8099:8125   */\n      swap1\n      pop\n        /* \"#utility.yul\":8171:8180   */\n      dup2\n        /* \"#utility.yul\":8165:8169   */\n      dup2\n        /* \"#utility.yul\":8161:8181   */\n      sub\n        /* \"#utility.yul\":8157:8158   */\n      0x00\n        /* \"#utility.yul\":8146:8155   */\n      dup4\n        /* \"#utility.yul\":8142:8159   */\n      add\n        /* \"#utility.yul\":8135:8182   */\n      mstore\n        /* \"#utility.yul\":8199:8330   */\n      tag_287\n        /* \"#utility.yul\":8325:8329   */\n      dup2\n        /* \"#utility.yul\":8199:8330   */\n      tag_225\n      jump\t// in\n    tag_287:\n        /* \"#utility.yul\":8191:8330   */\n      swap1\n      pop\n        /* \"#utility.yul\":7918:8337   */\n      swap2\n      swap1\n      pop\n      jump\t// out\n        /* \"#utility.yul\":8343:8762   */\n    tag_40:\n        /* \"#utility.yul\":8509:8513   */\n      0x00\n        /* \"#utility.yul\":8547:8549   */\n      0x20\n        /* \"#utility.yul\":8536:8545   */\n      dup3\n        /* \"#utility.yul\":8532:8550   */\n      add\n        /* \"#utility.yul\":8524:8550   */\n      swap1\n      pop\n        /* \"#utility.yul\":8596:8605   */\n      dup2\n        /* \"#utility.yul\":8590:8594   */\n      dup2\n        /* \"#utility.yul\":8586:8606   */\n      sub\n        /* \"#utility.yul\":8582:8583   */\n      0x00\n        /* \"#utility.yul\":8571:8580   */\n      dup4\n        /* \"#utility.yul\":8567:8584   */\n      add\n        /* \"#utility.yul\":8560:8607   */\n      mstore\n        /* \"#utility.yul\":8624:8755   */\n      tag_289\n        /* \"#utility.yul\":8750:8754   */\n      dup2\n        /* \"#utility.yul\":8624:8755   */\n      tag_230\n      jump\t// in\n    tag_289:\n        /* \"#utility.yul\":8616:8755   */\n      swap1\n      pop\n        /* \"#utility.yul\":8343:8762   */\n      swap2\n      swap1\n      pop\n      jump\t// out\n        /* \"#utility.yul\":8768:9187   */\n    tag_97:\n        /* \"#utility.yul\":8934:8938   */\n      0x00\n        /* \"#utility.yul\":8972:8974   */\n      0x20\n        /* \"#utility.yul\":8961:8970   */\n      dup3\n        /* \"#utility.yul\":8957:8975   */\n      add\n        /* \"#utility.yul\":8949:8975   */\n      swap1\n      pop\n        /* \"#utility.yul\":9021:9030   */\n      dup2\n        /* \"#utility.yul\":9015:9019   */\n      dup2\n        /* \"#utility.yul\":9011:9031   */\n      sub\n        /* \"#utility.yul\":9007:9008   */\n      0x00\n        /* \"#utility.yul\":8996:9005   */\n      dup4\n        /* \"#utility.yul\":8992:9009   */\n      add\n        /* \"#utility.yul\":8985:9032   */\n      mstore\n        /* \"#utility.yul\":9049:9180   */\n      tag_291\n        /* \"#utility.yul\":9175:9179   */\n      dup2\n        /* \"#utility.yul\":9049:9180   */\n      tag_235\n      jump\t// in\n    tag_291:\n        /* \"#utility.yul\":9041:9180   */\n      swap1\n      pop\n        /* \"#utility.yul\":8768:9187   */\n      swap2\n      swap1\n      pop\n      jump\t// out\n        /* \"#utility.yul\":9193:9612   */\n    tag_36:\n        /* \"#utility.yul\":9359:9363   */\n      0x00\n        /* \"#utility.yul\":9397:9399   */\n      0x20\n        /* \"#utility.yul\":9386:9395   */\n      dup3\n        /* \"#utility.yul\":9382:9400   */\n      add\n        /* \"#utility.yul\":9374:9400   */\n      swap1\n      pop\n        /* \"#utility.yul\":9446:9455   */\n      dup2\n        /* \"#utility.yul\":9440:9444   */\n      dup2\n        /* \"#utility.yul\":9436:9456   */\n      sub\n        /* \"#utility.yul\":9432:9433   */\n      0x00\n        /* \"#utility.yul\":9421:9430   */\n      dup4\n        /* \"#utility.yul\":9417:9434   */\n      add\n        /* \"#utility.yul\":9410:9457   */\n      mstore\n        /* \"#utility.yul\":9474:9605   */\n      tag_293\n        /* \"#utility.yul\":9600:9604   */\n      dup2\n        /* \"#utility.yul\":9474:9605   */\n      tag_240\n      jump\t// in\n    tag_293:\n        /* \"#utility.yul\":9466:9605   */\n      swap1\n      pop\n        /* \"#utility.yul\":9193:9612   */\n      swap2\n      swap1\n      pop\n      jump\t// out\n        /* \"#utility.yul\":9618:10037   */\n    tag_53:\n        /* \"#utility.yul\":9784:9788   */\n      0x00\n        /* \"#utility.yul\":9822:9824   */\n      0x20\n        /* \"#utility.yul\":9811:9820   */\n      dup3\n        /* \"#utility.yul\":9807:9825   */\n      add\n        /* \"#utility.yul\":9799:9825   */\n      swap1\n      pop\n        /* \"#utility.yul\":9871:9880   */\n      dup2\n        /* \"#utility.yul\":9865:9869   */\n      dup2\n        /* \"#utility.yul\":9861:9881   */\n      sub\n        /* \"#utility.yul\":9857:9858   */\n      0x00\n        /* \"#utility.yul\":9846:9855   */\n      dup4\n        /* \"#utility.yul\":9842:9859   */\n      add\n        /* \"#utility.yul\":9835:9882   */\n      mstore\n        /* \"#utility.yul\":9899:10030   */\n      tag_295\n        /* \"#utility.yul\":10025:10029   */\n      dup2\n        /* \"#utility.yul\":9899:10030   */\n      tag_245\n      jump\t// in\n    tag_295:\n        /* \"#utility.yul\":9891:10030   */\n      swap1\n      pop\n        /* \"#utility.yul\":9618:10037   */\n      swap2\n      swap1\n      pop\n      jump\t// out\n        /* \"#utility.yul\":10043:10462   */\n    tag_57:\n        /* \"#utility.yul\":10209:10213   */\n      0x00\n        /* \"#utility.yul\":10247:10249   */\n      0x20\n        /* \"#utility.yul\":10236:10245   */\n      dup3\n        /* \"#utility.yul\":10232:10250   */\n      add\n        /* \"#utility.yul\":10224:10250   */\n      swap1\n      pop\n        /* \"#utility.yul\":10296:10305   */\n      dup2\n        /* \"#utility.yul\":10290:10294   */\n      dup2\n        /* \"#utility.yul\":10286:10306   */\n      sub\n        /* \"#utility.yul\":10282:10283   */\n      0x00\n        /* \"#utility.yul\":10271:10280   */\n      dup4\n        /* \"#utility.yul\":10267:10284   */\n      add\n        /* \"#utility.yul\":10260:10307   */\n      mstore\n        /* \"#utility.yul\":10324:10455   */\n      tag_297\n        /* \"#utility.yul\":10450:10454   */\n      dup2\n        /* \"#utility.yul\":10324:10455   */\n      tag_250\n      jump\t// in\n    tag_297:\n        /* \"#utility.yul\":10316:10455   */\n      swap1\n      pop\n        /* \"#utility.yul\":10043:10462   */\n      swap2\n      swap1\n      pop\n      jump\t// out\n        /* \"#utility.yul\":10468:10887   */\n    tag_107:\n        /* \"#utility.yul\":10634:10638   */\n      0x00\n        /* \"#utility.yul\":10672:10674   */\n      0x20\n        /* \"#utility.yul\":10661:10670   */\n      dup3\n        /* \"#utility.yul\":10657:10675   */\n      add\n        /* \"#utility.yul\":10649:10675   */\n      swap1\n      pop\n        /* \"#utility.yul\":10721:10730   */\n      dup2\n        /* \"#utility.yul\":10715:10719   */\n      dup2\n        /* \"#utility.yul\":10711:10731   */\n      sub\n        /* \"#utility.yul\":10707:10708   */\n      0x00\n        /* \"#utility.yul\":10696:10705   */\n      dup4\n        /* \"#utility.yul\":10692:10709   */\n      add\n        /* \"#utility.yul\":10685:10732   */\n      mstore\n        /* \"#utility.yul\":10749:10880   */\n      tag_299\n        /* \"#utility.yul\":10875:10879   */\n      dup2\n        /* \"#utility.yul\":10749:10880   */\n      tag_255\n      jump\t// in\n    tag_299:\n        /* \"#utility.yul\":10741:10880   */\n      swap1\n      pop\n        /* \"#utility.yul\":10468:10887   */\n      swap2\n      swap1\n      pop\n      jump\t// out\n        /* \"#utility.yul\":10893:11316   */\n    tag_24:\n        /* \"#utility.yul\":11034:11038   */\n      0x00\n        /* \"#utility.yul\":11072:11074   */\n      0x40\n        /* \"#utility.yul\":11061:11070   */\n      dup3\n        /* \"#utility.yul\":11057:11075   */\n      add\n        /* \"#utility.yul\":11049:11075   */\n      swap1\n      pop\n        /* \"#utility.yul\":11085:11156   */\n      tag_301\n        /* \"#utility.yul\":11153:11154   */\n      0x00\n        /* \"#utility.yul\":11142:11151   */\n      dup4\n        /* \"#utility.yul\":11138:11155   */\n      add\n        /* \"#utility.yul\":11129:11135   */\n      dup6\n        /* \"#utility.yul\":11085:11156   */\n      tag_260\n      jump\t// in\n    tag_301:\n        /* \"#utility.yul\":11203:11212   */\n      dup2\n        /* \"#utility.yul\":11197:11201   */\n      dup2\n        /* \"#utility.yul\":11193:11213   */\n      sub\n        /* \"#utility.yul\":11188:11190   */\n      0x20\n        /* \"#utility.yul\":11177:11186   */\n      dup4\n        /* \"#utility.yul\":11173:11191   */\n      add\n        /* \"#utility.yul\":11166:11214   */\n      mstore\n        /* \"#utility.yul\":11231:11309   */\n      tag_302\n        /* \"#utility.yul\":11304:11308   */\n      dup2\n        /* \"#utility.yul\":11295:11301   */\n      dup5\n        /* \"#utility.yul\":11231:11309   */\n      tag_212\n      jump\t// in\n    tag_302:\n        /* \"#utility.yul\":11223:11309   */\n      swap1\n      pop\n        /* \"#utility.yul\":10893:11316   */\n      swap4\n      swap3\n      pop\n      pop\n      pop\n      jump\t// out\n        /* \"#utility.yul\":11322:11654   */\n    tag_117:\n        /* \"#utility.yul\":11443:11447   */\n      0x00\n        /* \"#utility.yul\":11481:11483   */\n      0x40\n        /* \"#utility.yul\":11470:11479   */\n      dup3\n        /* \"#utility.yul\":11466:11484   */\n      add\n        /* \"#utility.yul\":11458:11484   */\n      swap1\n      pop\n        /* \"#utility.yul\":11494:11565   */\n      tag_304\n        /* \"#utility.yul\":11562:11563   */\n      0x00\n        /* \"#utility.yul\":11551:11560   */\n      dup4\n        /* \"#utility.yul\":11547:11564   */\n      add\n        /* \"#utility.yul\":11538:11544   */\n      dup6\n        /* \"#utility.yul\":11494:11565   */\n      tag_260\n      jump\t// in\n    tag_304:\n        /* \"#utility.yul\":11575:11647   */\n      tag_305\n        /* \"#utility.yul\":11643:11645   */\n      0x20\n        /* \"#utility.yul\":11632:11641   */\n      dup4\n        /* \"#utility.yul\":11628:11646   */\n      add\n        /* \"#utility.yul\":11619:11625   */\n      dup5\n        /* \"#utility.yul\":11575:11647   */\n      tag_260\n      jump\t// in\n    tag_305:\n        /* \"#utility.yul\":11322:11654   */\n      swap4\n      swap3\n      pop\n      pop\n      pop\n      jump\t// out\n        /* \"#utility.yul\":11660:12102   */\n    tag_18:\n        /* \"#utility.yul\":11809:11813   */\n      0x00\n        /* \"#utility.yul\":11847:11849   */\n      0x60\n        /* \"#utility.yul\":11836:11845   */\n      dup3\n        /* \"#utility.yul\":11832:11850   */\n      add\n        /* \"#utility.yul\":11824:11850   */\n      swap1\n      pop\n        /* \"#utility.yul\":11860:11931   */\n      tag_307\n        /* \"#utility.yul\":11928:11929   */\n      0x00\n        /* \"#utility.yul\":11917:11926   */\n      dup4\n        /* \"#utility.yul\":11913:11930   */\n      add\n        /* \"#utility.yul\":11904:11910   */\n      dup7\n        /* \"#utility.yul\":11860:11931   */\n      tag_260\n      jump\t// in\n    tag_307:\n        /* \"#utility.yul\":11941:12013   */\n      tag_308\n        /* \"#utility.yul\":12009:12011   */\n      0x20\n        /* \"#utility.yul\":11998:12007   */\n      dup4\n        /* \"#utility.yul\":11994:12012   */\n      add\n        /* \"#utility.yul\":11985:11991   */\n      dup6\n        /* \"#utility.yul\":11941:12013   */\n      tag_260\n      jump\t// in\n    tag_308:\n        /* \"#utility.yul\":12023:12095   */\n      tag_309\n        /* \"#utility.yul\":12091:12093   */\n      0x40\n        /* \"#utility.yul\":12080:12089   */\n      dup4\n        /* \"#utility.yul\":12076:12094   */\n      add\n        /* \"#utility.yul\":12067:12073   */\n      dup5\n        /* \"#utility.yul\":12023:12095   */\n      tag_260\n      jump\t// in\n    tag_309:\n        /* \"#utility.yul\":11660:12102   */\n      swap5\n      swap4\n      pop\n      pop\n      pop\n      pop\n      jump\t// out\n        /* \"#utility.yul\":12108:12183   */\n    tag_310:\n        /* \"#utility.yul\":12141:12147   */\n      0x00\n        /* \"#utility.yul\":12174:12176   */\n      0x40\n        /* \"#utility.yul\":12168:12177   */\n      mload\n        /* \"#utility.yul\":12158:12177   */\n      swap1\n      pop\n        /* \"#utility.yul\":12108:12183   */\n      swap1\n      jump\t// out\n        /* \"#utility.yul\":12189:12287   */\n    tag_205:\n        /* \"#utility.yul\":12240:12246   */\n      0x00\n        /* \"#utility.yul\":12274:12279   */\n      dup2\n        /* \"#utility.yul\":12268:12280   */\n      mload\n        /* \"#utility.yul\":12258:12280   */\n      swap1\n      pop\n        /* \"#utility.yul\":12189:12287   */\n      swap2\n      swap1\n      pop\n      jump\t// out\n        /* \"#utility.yul\":12293:12392   */\n    tag_215:\n        /* \"#utility.yul\":12345:12351   */\n      0x00\n        /* \"#utility.yul\":12379:12384   */\n      dup2\n        /* \"#utility.yul\":12373:12385   */\n      mload\n        /* \"#utility.yul\":12363:12385   */\n      swap1\n      pop\n        /* \"#utility.yul\":12293:12392   */\n      swap2\n      swap1\n      pop\n      jump\t// out\n        /* \"#utility.yul\":12398:12566   */\n    tag_207:\n        /* \"#utility.yul\":12481:12492   */\n      0x00\n        /* \"#utility.yul\":12515:12521   */\n      dup3\n        /* \"#utility.yul\":12510:12513   */\n      dup3\n        /* \"#utility.yul\":12503:12522   */\n      mstore\n        /* \"#utility.yul\":12555:12559   */\n      0x20\n        /* \"#utility.yul\":12550:12553   */\n      dup3\n        /* \"#utility.yul\":12546:12560   */\n      add\n        /* \"#utility.yul\":12531:12560   */\n      swap1\n      pop\n        /* \"#utility.yul\":12398:12566   */\n      swap3\n      swap2\n      pop\n      pop\n      jump\t// out\n        /* \"#utility.yul\":12572:12741   */\n    tag_217:\n        /* \"#utility.yul\":12656:12667   */\n      0x00\n        /* \"#utility.yul\":12690:12696   */\n      dup3\n        /* \"#utility.yul\":12685:12688   */\n      dup3\n        /* \"#utility.yul\":12678:12697   */\n      mstore\n        /* \"#utility.yul\":12730:12734   */\n      0x20\n        /* \"#utility.yul\":12725:12728   */\n      dup3\n        /* \"#utility.yul\":12721:12735   */\n      add\n        /* \"#utility.yul\":12706:12735   */\n      swap1\n      pop\n        /* \"#utility.yul\":12572:12741   */\n      swap3\n      swap2\n      pop\n      pop\n      jump\t// out\n        /* \"#utility.yul\":12747:13052   */\n    tag_115:\n        /* \"#utility.yul\":12787:12790   */\n      0x00\n        /* \"#utility.yul\":12806:12826   */\n      tag_317\n        /* \"#utility.yul\":12824:12825   */\n      dup3\n        /* \"#utility.yul\":12806:12826   */\n      tag_263\n      jump\t// in\n    tag_317:\n        /* \"#utility.yul\":12801:12826   */\n      swap2\n      pop\n        /* \"#utility.yul\":12840:12860   */\n      tag_318\n        /* \"#utility.yul\":12858:12859   */\n      dup4\n        /* \"#utility.yul\":12840:12860   */\n      tag_263\n      jump\t// in\n    tag_318:\n        /* \"#utility.yul\":12835:12860   */\n      swap3\n      pop\n        /* \"#utility.yul\":12994:12995   */\n      dup3\n        /* \"#utility.yul\":12926:12992   */\n      0xffffffffffffffffffffffffffffffffffffffffffffffffffffffffffffffff\n        /* \"#utility.yul\":12922:12996   */\n      sub\n        /* \"#utility.yul\":12919:12920   */\n      dup3\n        /* \"#utility.yul\":12916:12997   */\n      gt\n        /* \"#utility.yul\":12913:13020   */\n      iszero\n      tag_319\n      jumpi\n        /* \"#utility.yul\":13000:13018   */\n      tag_320\n      tag_321\n      jump\t// in\n    tag_320:\n        /* \"#utility.yul\":12913:13020   */\n    tag_319:\n        /* \"#utility.yul\":13044:13045   */\n      dup3\n        /* \"#utility.yul\":13041:13042   */\n      dup3\n        /* \"#utility.yul\":13037:13046   */\n      add\n        /* \"#utility.yul\":13030:13046   */\n      swap1\n      pop\n        /* \"#utility.yul\":12747:13052   */\n      swap3\n      swap2\n      pop\n      pop\n      jump\t// out\n        /* \"#utility.yul\":13058:13154   */\n    tag_192:\n        /* \"#utility.yul\":13095:13102   */\n      0x00\n        /* \"#utility.yul\":13124:13148   */\n      tag_323\n        /* \"#utility.yul\":13142:13147   */\n      dup3\n        /* \"#utility.yul\":13124:13148   */\n      tag_324\n      jump\t// in\n    tag_323:\n        /* \"#utility.yul\":13113:13148   */\n      swap1\n      pop\n        /* \"#utility.yul\":13058:13154   */\n      swap2\n      swap1\n      pop\n      jump\t// out\n        /* \"#utility.yul\":13160:13264   */\n    tag_188:\n        /* \"#utility.yul\":13205:13212   */\n      0x00\n        /* \"#utility.yul\":13234:13258   */\n      tag_326\n        /* \"#utility.yul\":13252:13257   */\n      dup3\n        /* \"#utility.yul\":13234:13258   */\n      tag_324\n      jump\t// in\n    tag_326:\n        /* \"#utility.yul\":13223:13258   */\n      swap1\n      pop\n        /* \"#utility.yul\":13160:13264   */\n      swap2\n      swap1\n      pop\n      jump\t// out\n        /* \"#utility.yul\":13270:13360   */\n    tag_201:\n        /* \"#utility.yul\":13304:13311   */\n      0x00\n        /* \"#utility.yul\":13347:13352   */\n      dup2\n        /* \"#utility.yul\":13340:13353   */\n      iszero\n        /* \"#utility.yul\":13333:13354   */\n      iszero\n        /* \"#utility.yul\":13322:13354   */\n      swap1\n      pop\n        /* \"#utility.yul\":13270:13360   */\n      swap2\n      swap1\n      pop\n      jump\t// out\n        /* \"#utility.yul\":13366:13515   */\n    tag_328:\n        /* \"#utility.yul\":13402:13409   */\n      0x00\n        /* \"#utility.yul\":13442:13508   */\n      0xffffffff00000000000000000000000000000000000000000000000000000000\n        /* \"#utility.yul\":13435:13440   */\n      dup3\n        /* \"#utility.yul\":13431:13509   */\n      and\n        /* \"#utility.yul\":13420:13509   */\n      swap1\n      pop\n        /* \"#utility.yul\":13366:13515   */\n      swap2\n      swap1\n      pop\n      jump\t// out\n        /* \"#utility.yul\":13521:13647   */\n    tag_324:\n        /* \"#utility.yul\":13558:13565   */\n      0x00\n        /* \"#utility.yul\":13598:13640   */\n      0xffffffffffffffffffffffffffffffffffffffff\n        /* \"#utility.yul\":13591:13596   */\n      dup3\n        /* \"#utility.yul\":13587:13641   */\n      and\n        /* \"#utility.yul\":13576:13641   */\n      swap1\n      pop\n        /* \"#utility.yul\":13521:13647   */\n      swap2\n      swap1\n      pop\n      jump\t// out\n        /* \"#utility.yul\":13653:13730   */\n    tag_263:\n        /* \"#utility.yul\":13690:13697   */\n      0x00\n        /* \"#utility.yul\":13719:13724   */\n      dup2\n        /* \"#utility.yul\":13708:13724   */\n      swap1\n      pop\n        /* \"#utility.yul\":13653:13730   */\n      swap2\n      swap1\n      pop\n      jump\t// out\n        /* \"#utility.yul\":13736:14043   */\n    tag_209:\n        /* \"#utility.yul\":13804:13805   */\n      0x00\n        /* \"#utility.yul\":13814:13927   */\n    tag_333:\n        /* \"#utility.yul\":13828:13834   */\n      dup4\n        /* \"#utility.yul\":13825:13826   */\n      dup2\n        /* \"#utility.yul\":13822:13835   */\n      lt\n        /* \"#utility.yul\":13814:13927   */\n      iszero\n      tag_335\n      jumpi\n        /* \"#utility.yul\":13913:13914   */\n      dup1\n        /* \"#utility.yul\":13908:13911   */\n      dup3\n        /* \"#utility.yul\":13904:13915   */\n      add\n        /* \"#utility.yul\":13898:13916   */\n      mload\n        /* \"#utility.yul\":13894:13895   */\n      dup2\n        /* \"#utility.yul\":13889:13892   */\n      dup5\n        /* \"#utility.yul\":13885:13896   */\n      add\n        /* \"#utility.yul\":13878:13917   */\n      mstore\n        /* \"#utility.yul\":13850:13852   */\n      0x20\n        /* \"#utility.yul\":13847:13848   */\n      dup2\n        /* \"#utility.yul\":13843:13853   */\n      add\n        /* \"#utility.yul\":13838:13853   */\n      swap1\n      pop\n        /* \"#utility.yul\":13814:13927   */\n      jump(tag_333)\n    tag_335:\n        /* \"#utility.yul\":13945:13951   */\n      dup4\n        /* \"#utility.yul\":13942:13943   */\n      dup2\n        /* \"#utility.yul\":13939:13952   */\n      gt\n        /* \"#utility.yul\":13936:14037   */\n      iszero\n      tag_336\n      jumpi\n        /* \"#utility.yul\":14025:14026   */\n      0x00\n        /* \"#utility.yul\":14016:14022   */\n      dup5\n        /* \"#utility.yul\":14011:14014   */\n      dup5\n        /* \"#utility.yul\":14007:14023   */\n      add\n        /* \"#utility.yul\":14000:14027   */\n      mstore\n        /* \"#utility.yul\":13936:14037   */\n    tag_336:\n        /* \"#utility.yul\":13785:14043   */\n      pop\n        /* \"#utility.yul\":13736:14043   */\n      pop\n      pop\n      pop\n      jump\t// out\n        /* \"#utility.yul\":14049:14369   */\n    tag_78:\n        /* \"#utility.yul\":14093:14099   */\n      0x00\n        /* \"#utility.yul\":14130:14131   */\n      0x02\n        /* \"#utility.yul\":14124:14128   */\n      dup3\n        /* \"#utility.yul\":14120:14132   */\n      div\n        /* \"#utility.yul\":14110:14132   */\n      swap1\n      pop\n        /* \"#utility.yul\":14177:14178   */\n      0x01\n        /* \"#utility.yul\":14171:14175   */\n      dup3\n        /* \"#utility.yul\":14167:14179   */\n      and\n        /* \"#utility.yul\":14198:14216   */\n      dup1\n        /* \"#utility.yul\":14188:14269   */\n      tag_338\n      jumpi\n        /* \"#utility.yul\":14254:14258   */\n      0x7f\n        /* \"#utility.yul\":14246:14252   */\n      dup3\n        /* \"#utility.yul\":14242:14259   */\n      and\n        /* \"#utility.yul\":14232:14259   */\n      swap2\n      pop\n        /* \"#utility.yul\":14188:14269   */\n    tag_338:\n        /* \"#utility.yul\":14316:14318   */\n      0x20\n        /* \"#utility.yul\":14308:14314   */\n      dup3\n        /* \"#utility.yul\":14305:14319   */\n      lt\n        /* \"#utility.yul\":14285:14303   */\n      dup2\n        /* \"#utility.yul\":14282:14320   */\n      eq\n        /* \"#utility.yul\":14279:14363   */\n      iszero\n      tag_339\n      jumpi\n        /* \"#utility.yul\":14335:14353   */\n      tag_340\n      tag_341\n      jump\t// in\n    tag_340:\n        /* \"#utility.yul\":14279:14363   */\n    tag_339:\n        /* \"#utility.yul\":14100:14369   */\n      pop\n        /* \"#utility.yul\":14049:14369   */\n      swap2\n      swap1\n      pop\n      jump\t// out\n        /* \"#utility.yul\":14375:14656   */\n    tag_342:\n        /* \"#utility.yul\":14458:14485   */\n      tag_344\n        /* \"#utility.yul\":14480:14484   */\n      dup3\n        /* \"#utility.yul\":14458:14485   */\n      tag_211\n      jump\t// in\n    tag_344:\n        /* \"#utility.yul\":14450:14456   */\n      dup2\n        /* \"#utility.yul\":14446:14486   */\n      add\n        /* \"#utility.yul\":14588:14594   */\n      dup2\n        /* \"#utility.yul\":14576:14586   */\n      dup2\n        /* \"#utility.yul\":14573:14595   */\n      lt\n        /* \"#utility.yul\":14552:14570   */\n      0xffffffffffffffff\n        /* \"#utility.yul\":14540:14550   */\n      dup3\n        /* \"#utility.yul\":14537:14571   */\n      gt\n        /* \"#utility.yul\":14534:14596   */\n      or\n        /* \"#utility.yul\":14531:14619   */\n      iszero\n      tag_345\n      jumpi\n        /* \"#utility.yul\":14599:14617   */\n      tag_346\n      tag_123\n      jump\t// in\n    tag_346:\n        /* \"#utility.yul\":14531:14619   */\n    tag_345:\n        /* \"#utility.yul\":14639:14649   */\n      dup1\n        /* \"#utility.yul\":14635:14637   */\n      0x40\n        /* \"#utility.yul\":14628:14650   */\n      mstore\n        /* \"#utility.yul\":14418:14656   */\n      pop\n        /* \"#utility.yul\":14375:14656   */\n      pop\n      pop\n      jump\t// out\n        /* \"#utility.yul\":14662:14895   */\n    tag_65:\n        /* \"#utility.yul\":14701:14704   */\n      0x00\n        /* \"#utility.yul\":14724:14748   */\n      tag_348\n        /* \"#utility.yul\":14742:14747   */\n      dup3\n        /* \"#utility.yul\":14724:14748   */\n      tag_263\n      jump\t// in\n    tag_348:\n        /* \"#utility.yul\":14715:14748   */\n      swap2\n      pop\n        /* \"#utility.yul\":14770:14836   */\n      0xffffffffffffffffffffffffffffffffffffffffffffffffffffffffffffffff\n        /* \"#utility.yul\":14763:14768   */\n      dup3\n        /* \"#utility.yul\":14760:14837   */\n      eq\n        /* \"#utility.yul\":14757:14860   */\n      iszero\n      tag_349\n      jumpi\n        /* \"#utility.yul\":14840:14858   */\n      tag_350\n      tag_321\n      jump\t// in\n    tag_350:\n        /* \"#utility.yul\":14757:14860   */\n    tag_349:\n        /* \"#utility.yul\":14887:14888   */\n      0x01\n        /* \"#utility.yul\":14880:14885   */\n      dup3\n        /* \"#utility.yul\":14876:14889   */\n      add\n        /* \"#utility.yul\":14869:14889   */\n      swap1\n      pop\n        /* \"#utility.yul\":14662:14895   */\n      swap2\n      swap1\n      pop\n      jump\t// out\n        /* \"#utility.yul\":14901:15001   */\n    tag_197:\n        /* \"#utility.yul\":14940:14947   */\n      0x00\n        /* \"#utility.yul\":14969:14995   */\n      tag_352\n        /* \"#utility.yul\":14989:14994   */\n      dup3\n        /* \"#utility.yul\":14969:14995   */\n      tag_353\n      jump\t// in\n    tag_352:\n        /* \"#utility.yul\":14958:14995   */\n      swap1\n      pop\n        /* \"#utility.yul\":14901:15001   */\n      swap2\n      swap1\n      pop\n      jump\t// out\n        /* \"#utility.yul\":15007:15101   */\n    tag_353:\n        /* \"#utility.yul\":15046:15053   */\n      0x00\n        /* \"#utility.yul\":15075:15095   */\n      tag_355\n        /* \"#utility.yul\":15089:15094   */\n      dup3\n        /* \"#utility.yul\":15075:15095   */\n      tag_356\n      jump\t// in\n    tag_355:\n        /* \"#utility.yul\":15064:15095   */\n      swap1\n      pop\n        /* \"#utility.yul\":15007:15101   */\n      swap2\n      swap1\n      pop\n      jump\t// out\n        /* \"#utility.yul\":15107:15186   */\n    tag_268:\n        /* \"#utility.yul\":15146:15153   */\n      0x00\n        /* \"#utility.yul\":15175:15180   */\n      dup2\n        /* \"#utility.yul\":15164:15180   */\n      swap1\n      pop\n        /* \"#utility.yul\":15107:15186   */\n      swap2\n      swap1\n      pop\n      jump\t// out\n        /* \"#utility.yul\":15192:15368   */\n    tag_103:\n        /* \"#utility.yul\":15224:15225   */\n      0x00\n        /* \"#utility.yul\":15241:15261   */\n      tag_359\n        /* \"#utility.yul\":15259:15260   */\n      dup3\n        /* \"#utility.yul\":15241:15261   */\n      tag_263\n      jump\t// in\n    tag_359:\n        /* \"#utility.yul\":15236:15261   */\n      swap2\n      pop\n        /* \"#utility.yul\":15275:15295   */\n      tag_360\n        /* \"#utility.yul\":15293:15294   */\n      dup4\n        /* \"#utility.yul\":15275:15295   */\n      tag_263\n      jump\t// in\n    tag_360:\n        /* \"#utility.yul\":15270:15295   */\n      swap3\n      pop\n        /* \"#utility.yul\":15314:15315   */\n      dup3\n        /* \"#utility.yul\":15304:15339   */\n      tag_361\n      jumpi\n        /* \"#utility.yul\":15319:15337   */\n      tag_362\n      tag_363\n      jump\t// in\n    tag_362:\n        /* \"#utility.yul\":15304:15339   */\n    tag_361:\n        /* \"#utility.yul\":15360:15361   */\n      dup3\n        /* \"#utility.yul\":15357:15358   */\n      dup3\n        /* \"#utility.yul\":15353:15362   */\n      mod\n        /* \"#utility.yul\":15348:15362   */\n      swap1\n      pop\n        /* \"#utility.yul\":15192:15368   */\n      swap3\n      swap2\n      pop\n      pop\n      jump\t// out\n        /* \"#utility.yul\":15374:15554   */\n    tag_321:\n        /* \"#utility.yul\":15422:15499   */\n      0x4e487b7100000000000000000000000000000000000000000000000000000000\n        /* \"#utility.yul\":15419:15420   */\n      0x00\n        /* \"#utility.yul\":15412:15500   */\n      mstore\n        /* \"#utility.yul\":15519:15523   */\n      0x11\n        /* \"#utility.yul\":15516:15517   */\n      0x04\n        /* \"#utility.yul\":15509:15524   */\n      mstore\n        /* \"#utility.yul\":15543:15547   */\n      0x24\n        /* \"#utility.yul\":15540:15541   */\n      0x00\n        /* \"#utility.yul\":15533:15548   */\n      revert\n        /* \"#utility.yul\":15560:15740   */\n    tag_363:\n        /* \"#utility.yul\":15608:15685   */\n      0x4e487b7100000000000000000000000000000000000000000000000000000000\n        /* \"#utility.yul\":15605:15606   */\n      0x00\n        /* \"#utility.yul\":15598:15686   */\n      mstore\n        /* \"#utility.yul\":15705:15709   */\n      0x12\n        /* \"#utility.yul\":15702:15703   */\n      0x04\n        /* \"#utility.yul\":15695:15710   */\n      mstore\n        /* \"#utility.yul\":15729:15733   */\n      0x24\n        /* \"#utility.yul\":15726:15727   */\n      0x00\n        /* \"#utility.yul\":15719:15734   */\n      revert\n        /* \"#utility.yul\":15746:15926   */\n    tag_341:\n        /* \"#utility.yul\":15794:15871   */\n      0x4e487b7100000000000000000000000000000000000000000000000000000000\n        /* \"#utility.yul\":15791:15792   */\n      0x00\n        /* \"#utility.yul\":15784:15872   */\n      mstore\n        /* \"#utility.yul\":15891:15895   */\n      0x22\n        /* \"#utility.yul\":15888:15889   */\n      0x04\n        /* \"#utility.yul\":15881:15896   */\n      mstore\n        /* \"#utility.yul\":15915:15919   */\n      0x24\n        /* \"#utility.yul\":15912:15913   */\n      0x00\n        /* \"#utility.yul\":15905:15920   */\n      revert\n        /* \"#utility.yul\":15932:16112   */\n    tag_127:\n        /* \"#utility.yul\":15980:16057   */\n      0x4e487b7100000000000000000000000000000000000000000000000000000000\n        /* \"#utility.yul\":15977:15978   */\n      0x00\n        /* \"#utility.yul\":15970:16058   */\n      mstore\n        /* \"#utility.yul\":16077:16081   */\n      0x32\n        /* \"#utility.yul\":16074:16075   */\n      0x04\n        /* \"#utility.yul\":16067:16082   */\n      mstore\n        /* \"#utility.yul\":16101:16105   */\n      0x24\n        /* \"#utility.yul\":16098:16099   */\n      0x00\n        /* \"#utility.yul\":16091:16106   */\n      revert\n        /* \"#utility.yul\":16118:16298   */\n    tag_123:\n        /* \"#utility.yul\":16166:16243   */\n      0x4e487b7100000000000000000000000000000000000000000000000000000000\n        /* \"#utility.yul\":16163:16164   */\n      0x00\n        /* \"#utility.yul\":16156:16244   */\n      mstore\n        /* \"#utility.yul\":16263:16267   */\n      0x41\n        /* \"#utility.yul\":16260:16261   */\n      0x04\n        /* \"#utility.yul\":16253:16268   */\n      mstore\n        /* \"#utility.yul\":16287:16291   */\n      0x24\n        /* \"#utility.yul\":16284:16285   */\n      0x00\n        /* \"#utility.yul\":16277:16292   */\n      revert\n        /* \"#utility.yul\":16304:16487   */\n    tag_144:\n        /* \"#utility.yul\":16339:16342   */\n      0x00\n        /* \"#utility.yul\":16377:16378   */\n      0x03\n        /* \"#utility.yul\":16359:16375   */\n      returndatasize\n        /* \"#utility.yul\":16356:16379   */\n      gt\n        /* \"#utility.yul\":16353:16481   */\n      iszero\n      tag_370\n      jumpi\n        /* \"#utility.yul\":16415:16416   */\n      0x04\n        /* \"#utility.yul\":16412:16413   */\n      0x00\n        /* \"#utility.yul\":16409:16410   */\n      dup1\n        /* \"#utility.yul\":16394:16417   */\n      returndatacopy\n        /* \"#utility.yul\":16437:16471   */\n      tag_371\n        /* \"#utility.yul\":16468:16469   */\n      0x00\n        /* \"#utility.yul\":16462:16470   */\n      mload\n        /* \"#utility.yul\":16437:16471   */\n      tag_372\n      jump\t// in\n    tag_371:\n        /* \"#utility.yul\":16430:16471   */\n      swap1\n      pop\n        /* \"#utility.yul\":16353:16481   */\n    tag_370:\n        /* \"#utility.yul\":16304:16487   */\n      swap1\n      jump\t// out\n        /* \"#utility.yul\":16616:16733   */\n    tag_179:\n        /* \"#utility.yul\":16725:16726   */\n      0x00\n        /* \"#utility.yul\":16722:16723   */\n      dup1\n        /* \"#utility.yul\":16715:16727   */\n      revert\n        /* \"#utility.yul\":16739:16841   */\n    tag_211:\n        /* \"#utility.yul\":16780:16786   */\n      0x00\n        /* \"#utility.yul\":16831:16833   */\n      0x1f\n        /* \"#utility.yul\":16827:16834   */\n      not\n        /* \"#utility.yul\":16822:16824   */\n      0x1f\n        /* \"#utility.yul\":16815:16820   */\n      dup4\n        /* \"#utility.yul\":16811:16825   */\n      add\n        /* \"#utility.yul\":16807:16835   */\n      and\n        /* \"#utility.yul\":16797:16835   */\n      swap1\n      pop\n        /* \"#utility.yul\":16739:16841   */\n      swap2\n      swap1\n      pop\n      jump\t// out\n        /* \"#utility.yul\":16847:16941   */\n    tag_356:\n        /* \"#utility.yul\":16880:16888   */\n      0x00\n        /* \"#utility.yul\":16928:16933   */\n      dup2\n        /* \"#utility.yul\":16924:16926   */\n      0x60\n        /* \"#utility.yul\":16920:16934   */\n      shl\n        /* \"#utility.yul\":16899:16934   */\n      swap1\n      pop\n        /* \"#utility.yul\":16847:16941   */\n      swap2\n      swap1\n      pop\n      jump\t// out\n        /* \"#utility.yul\":16947:17053   */\n    tag_372:\n        /* \"#utility.yul\":16991:16999   */\n      0x00\n        /* \"#utility.yul\":17040:17045   */\n      dup2\n        /* \"#utility.yul\":17035:17038   */\n      0xe0\n        /* \"#utility.yul\":17031:17046   */\n      shr\n        /* \"#utility.yul\":17010:17046   */\n      swap1\n      pop\n        /* \"#utility.yul\":16947:17053   */\n      swap2\n      swap1\n      pop\n      jump\t// out\n        /* \"#utility.yul\":17059:17298   */\n    tag_224:\n        /* \"#utility.yul\":17199:17233   */\n      0x455243313135353a207472616e7366657220746f206e6f6e2045524331313535\n        /* \"#utility.yul\":17195:17196   */\n      0x00\n        /* \"#utility.yul\":17187:17193   */\n      dup3\n        /* \"#utility.yul\":17183:17197   */\n      add\n        /* \"#utility.yul\":17176:17234   */\n      mstore\n        /* \"#utility.yul\":17268:17290   */\n      0x526563656976657220696d706c656d656e746572000000000000000000000000\n        /* \"#utility.yul\":17263:17265   */\n      0x20\n        /* \"#utility.yul\":17255:17261   */\n      dup3\n        /* \"#utility.yul\":17251:17266   */\n      add\n        /* \"#utility.yul\":17244:17291   */\n      mstore\n        /* \"#utility.yul\":17059:17298   */\n      pop\n      jump\t// out\n        /* \"#utility.yul\":17304:17531   */\n    tag_229:\n        /* \"#utility.yul\":17444:17478   */\n      0x455243313135353a204552433131353552656365697665722072656a65637465\n        /* \"#utility.yul\":17440:17441   */\n      0x00\n        /* \"#utility.yul\":17432:17438   */\n      dup3\n        /* \"#utility.yul\":17428:17442   */\n      add\n        /* \"#utility.yul\":17421:17479   */\n      mstore\n        /* \"#utility.yul\":17513:17523   */\n      0x6420746f6b656e73000000000000000000000000000000000000000000000000\n        /* \"#utility.yul\":17508:17510   */\n      0x20\n        /* \"#utility.yul\":17500:17506   */\n      dup3\n        /* \"#utility.yul\":17496:17511   */\n      add\n        /* \"#utility.yul\":17489:17524   */\n      mstore\n        /* \"#utility.yul\":17304:17531   */\n      pop\n      jump\t// out\n        /* \"#utility.yul\":17537:17714   */\n    tag_234:\n        /* \"#utility.yul\":17677:17706   */\n      0x44726f707369746520697320616c72656164792052756e6e696e670000000000\n        /* \"#utility.yul\":17673:17674   */\n      0x00\n        /* \"#utility.yul\":17665:17671   */\n      dup3\n        /* \"#utility.yul\":17661:17675   */\n      add\n        /* \"#utility.yul\":17654:17707   */\n      mstore\n        /* \"#utility.yul\":17537:17714   */\n      pop\n      jump\t// out\n        /* \"#utility.yul\":17720:17897   */\n    tag_239:\n        /* \"#utility.yul\":17860:17889   */\n      0x44726f707369746520697320616c72656164792053746f707065640000000000\n        /* \"#utility.yul\":17856:17857   */\n      0x00\n        /* \"#utility.yul\":17848:17854   */\n      dup3\n        /* \"#utility.yul\":17844:17858   */\n      add\n        /* \"#utility.yul\":17837:17890   */\n      mstore\n        /* \"#utility.yul\":17720:17897   */\n      pop\n      jump\t// out\n        /* \"#utility.yul\":17903:18077   */\n    tag_244:\n        /* \"#utility.yul\":18043:18069   */\n      0x4f6e79784e6674204f776e65722063616e204163636573730000000000000000\n        /* \"#utility.yul\":18039:18040   */\n      0x00\n        /* \"#utility.yul\":18031:18037   */\n      dup3\n        /* \"#utility.yul\":18027:18041   */\n      add\n        /* \"#utility.yul\":18020:18070   */\n      mstore\n        /* \"#utility.yul\":17903:18077   */\n      pop\n      jump\t// out\n        /* \"#utility.yul\":18083:18260   */\n    tag_249:\n        /* \"#utility.yul\":18223:18252   */\n      0x44726f7073697465206973206e6f74204f70656e6564205965742e0000000000\n        /* \"#utility.yul\":18219:18220   */\n      0x00\n        /* \"#utility.yul\":18211:18217   */\n      dup3\n        /* \"#utility.yul\":18207:18221   */\n      add\n        /* \"#utility.yul\":18200:18253   */\n      mstore\n        /* \"#utility.yul\":18083:18260   */\n      pop\n      jump\t// out\n        /* \"#utility.yul\":18266:18441   */\n    tag_254:\n        /* \"#utility.yul\":18406:18433   */\n      0x4d6178204d696e74696e67204c696d6974207265616368656400000000000000\n        /* \"#utility.yul\":18402:18403   */\n      0x00\n        /* \"#utility.yul\":18394:18400   */\n      dup3\n        /* \"#utility.yul\":18390:18404   */\n      add\n        /* \"#utility.yul\":18383:18434   */\n      mstore\n        /* \"#utility.yul\":18266:18441   */\n      pop\n      jump\t// out\n        /* \"#utility.yul\":18447:18667   */\n    tag_259:\n        /* \"#utility.yul\":18587:18621   */\n      0x455243313135353a206d696e7420746f20746865207a65726f20616464726573\n        /* \"#utility.yul\":18583:18584   */\n      0x00\n        /* \"#utility.yul\":18575:18581   */\n      dup3\n        /* \"#utility.yul\":18571:18585   */\n      add\n        /* \"#utility.yul\":18564:18622   */\n      mstore\n        /* \"#utility.yul\":18656:18659   */\n      0x7300000000000000000000000000000000000000000000000000000000000000\n        /* \"#utility.yul\":18651:18653   */\n      0x20\n        /* \"#utility.yul\":18643:18649   */\n      dup3\n        /* \"#utility.yul\":18639:18654   */\n      add\n        /* \"#utility.yul\":18632:18660   */\n      mstore\n        /* \"#utility.yul\":18447:18667   */\n      pop\n      jump\t// out\n        /* \"#utility.yul\":18673:19384   */\n    tag_146:\n        /* \"#utility.yul\":18712:18715   */\n      0x00\n        /* \"#utility.yul\":18750:18754   */\n      0x44\n        /* \"#utility.yul\":18732:18748   */\n      returndatasize\n        /* \"#utility.yul\":18729:18755   */\n      lt\n        /* \"#utility.yul\":18726:18765   */\n      iszero\n      tag_388\n      jumpi\n        /* \"#utility.yul\":18758:18763   */\n      jump(tag_387)\n        /* \"#utility.yul\":18726:18765   */\n    tag_388:\n        /* \"#utility.yul\":18787:18807   */\n      tag_389\n      tag_310\n      jump\t// in\n    tag_389:\n        /* \"#utility.yul\":18862:18863   */\n      0x04\n        /* \"#utility.yul\":18844:18860   */\n      returndatasize\n        /* \"#utility.yul\":18840:18864   */\n      sub\n        /* \"#utility.yul\":18837:18838   */\n      0x04\n        /* \"#utility.yul\":18831:18835   */\n      dup3\n        /* \"#utility.yul\":18816:18865   */\n      returndatacopy\n        /* \"#utility.yul\":18895:18899   */\n      dup1\n        /* \"#utility.yul\":18889:18900   */\n      mload\n        /* \"#utility.yul\":18994:19010   */\n      returndatasize\n        /* \"#utility.yul\":18987:18991   */\n      0x24\n        /* \"#utility.yul\":18979:18985   */\n      dup3\n        /* \"#utility.yul\":18975:18992   */\n      add\n        /* \"#utility.yul\":18972:19011   */\n      gt\n        /* \"#utility.yul\":18939:18957   */\n      0xffffffffffffffff\n        /* \"#utility.yul\":18931:18937   */\n      dup3\n        /* \"#utility.yul\":18928:18958   */\n      gt\n        /* \"#utility.yul\":18912:19025   */\n      or\n        /* \"#utility.yul\":18909:19055   */\n      iszero\n      tag_390\n      jumpi\n        /* \"#utility.yul\":19040:19045   */\n      pop\n      pop\n      jump(tag_387)\n        /* \"#utility.yul\":18909:19055   */\n    tag_390:\n        /* \"#utility.yul\":19086:19092   */\n      dup1\n        /* \"#utility.yul\":19080:19084   */\n      dup3\n        /* \"#utility.yul\":19076:19093   */\n      add\n        /* \"#utility.yul\":19122:19125   */\n      dup1\n        /* \"#utility.yul\":19116:19126   */\n      mload\n        /* \"#utility.yul\":19149:19167   */\n      0xffffffffffffffff\n        /* \"#utility.yul\":19141:19147   */\n      dup2\n        /* \"#utility.yul\":19138:19168   */\n      gt\n        /* \"#utility.yul\":19135:19178   */\n      iszero\n      tag_391\n      jumpi\n        /* \"#utility.yul\":19171:19176   */\n      pop\n      pop\n      pop\n      pop\n      jump(tag_387)\n        /* \"#utility.yul\":19135:19178   */\n    tag_391:\n        /* \"#utility.yul\":19219:19225   */\n      dup1\n        /* \"#utility.yul\":19212:19216   */\n      0x20\n        /* \"#utility.yul\":19207:19210   */\n      dup4\n        /* \"#utility.yul\":19203:19217   */\n      add\n        /* \"#utility.yul\":19199:19226   */\n      add\n        /* \"#utility.yul\":19278:19279   */\n      0x04\n        /* \"#utility.yul\":19260:19276   */\n      returndatasize\n        /* \"#utility.yul\":19256:19280   */\n      sub\n        /* \"#utility.yul\":19250:19254   */\n      dup6\n        /* \"#utility.yul\":19246:19281   */\n      add\n        /* \"#utility.yul\":19241:19244   */\n      dup2\n        /* \"#utility.yul\":19238:19282   */\n      gt\n        /* \"#utility.yul\":19235:19292   */\n      iszero\n      tag_392\n      jumpi\n        /* \"#utility.yul\":19285:19290   */\n      pop\n      pop\n      pop\n      pop\n      pop\n      jump(tag_387)\n        /* \"#utility.yul\":19235:19292   */\n    tag_392:\n        /* \"#utility.yul\":19302:19359   */\n      tag_393\n        /* \"#utility.yul\":19350:19356   */\n      dup3\n        /* \"#utility.yul\":19344:19348   */\n      0x20\n        /* \"#utility.yul\":19340:19357   */\n      add\n        /* \"#utility.yul\":19332:19338   */\n      dup6\n        /* \"#utility.yul\":19328:19358   */\n      add\n        /* \"#utility.yul\":19322:19326   */\n      dup7\n        /* \"#utility.yul\":19302:19359   */\n      tag_342\n      jump\t// in\n    tag_393:\n        /* \"#utility.yul\":19375:19378   */\n      dup3\n        /* \"#utility.yul\":19368:19378   */\n      swap6\n      pop\n        /* \"#utility.yul\":18716:19384   */\n      pop\n      pop\n      pop\n      pop\n      pop\n        /* \"#utility.yul\":18673:19384   */\n    tag_387:\n      swap1\n      jump\t// out\n        /* \"#utility.yul\":19390:19512   */\n    tag_171:\n        /* \"#utility.yul\":19463:19487   */\n      tag_395\n        /* \"#utility.yul\":19481:19486   */\n      dup2\n        /* \"#utility.yul\":19463:19487   */\n      tag_192\n      jump\t// in\n    tag_395:\n        /* \"#utility.yul\":19456:19461   */\n      dup2\n        /* \"#utility.yul\":19453:19488   */\n      eq\n        /* \"#utility.yul\":19443:19506   */\n      tag_396\n      jumpi\n        /* \"#utility.yul\":19502:19503   */\n      0x00\n        /* \"#utility.yul\":19499:19500   */\n      dup1\n        /* \"#utility.yul\":19492:19504   */\n      revert\n        /* \"#utility.yul\":19443:19506   */\n    tag_396:\n        /* \"#utility.yul\":19390:19512   */\n      pop\n      jump\t// out\n        /* \"#utility.yul\":19518:19638   */\n    tag_175:\n        /* \"#utility.yul\":19590:19613   */\n      tag_398\n        /* \"#utility.yul\":19607:19612   */\n      dup2\n        /* \"#utility.yul\":19590:19613   */\n      tag_328\n      jump\t// in\n    tag_398:\n        /* \"#utility.yul\":19583:19588   */\n      dup2\n        /* \"#utility.yul\":19580:19614   */\n      eq\n        /* \"#utility.yul\":19570:19632   */\n      tag_399\n      jumpi\n        /* \"#utility.yul\":19628:19629   */\n      0x00\n        /* \"#utility.yul\":19625:19626   */\n      dup1\n        /* \"#utility.yul\":19618:19630   */\n      revert\n        /* \"#utility.yul\":19570:19632   */\n    tag_399:\n        /* \"#utility.yul\":19518:19638   */\n      pop\n      jump\t// out\n\n    auxdata: 0xa2646970667358221220b99a7e42f300e0e82bd51f820672b2ef2036c449365e842671b04b704de48a0c64736f6c63430008070033\n}\n",
				"bytecode": {
					"linkReferences": {},
					"object": "608060405260405180602001604052806000815250600290805190602001906200002b92919062000103565b506001600a60006101000a81548160ff0219169083151502179055503480156200005457600080fd5b5060405162001d3338038062001d3383398181016040528101906200007a9190620002c2565b80600b90805190602001906200009292919062000194565b5033600a60016101000a81548173ffffffffffffffffffffffffffffffffffffffff021916908373ffffffffffffffffffffffffffffffffffffffff160217905550600060038190555060016004819055506000600581905550600060068190555060006007819055505062000497565b8280546200011190620003a8565b90600052602060002090601f01602090048101928262000135576000855562000181565b82601f106200015057805160ff191683800117855562000181565b8280016001018555821562000181579182015b828111156200018057825182559160200191906001019062000163565b5b50905062000190919062000225565b5090565b828054620001a290620003a8565b90600052602060002090601f016020900481019282620001c6576000855562000212565b82601f10620001e157805160ff191683800117855562000212565b8280016001018555821562000212579182015b8281111562000211578251825591602001919060010190620001f4565b5b50905062000221919062000225565b5090565b5b808211156200024057600081600090555060010162000226565b5090565b60006200025b62000255846200033c565b62000313565b9050828152602081018484840111156200027a576200027962000477565b5b6200028784828562000372565b509392505050565b600082601f830112620002a757620002a662000472565b5b8151620002b984826020860162000244565b91505092915050565b600060208284031215620002db57620002da62000481565b5b600082015167ffffffffffffffff811115620002fc57620002fb6200047c565b5b6200030a848285016200028f565b91505092915050565b60006200031f62000332565b90506200032d8282620003de565b919050565b6000604051905090565b600067ffffffffffffffff8211156200035a576200035962000443565b5b620003658262000486565b9050602081019050919050565b60005b838110156200039257808201518184015260208101905062000375565b83811115620003a2576000848401525b50505050565b60006002820490506001821680620003c157607f821691505b60208210811415620003d857620003d762000414565b5b50919050565b620003e98262000486565b810181811067ffffffffffffffff821117156200040b576200040a62000443565b5b80604052505050565b7f4e487b7100000000000000000000000000000000000000000000000000000000600052602260045260246000fd5b7f4e487b7100000000000000000000000000000000000000000000000000000000600052604160045260246000fd5b600080fd5b600080fd5b600080fd5b600080fd5b6000601f19601f8301169050919050565b61188c80620004a76000396000f3fe608060405234801561001057600080fd5b50600436106100625760003560e01c80631309a56314610067578063154602591461008557806360daa8511461008f57806397e96e86146100af578063aa90c726146100e0578063b4a99a4e146100ea575b600080fd5b61006f610108565b60405161007c9190611072565b60405180910390f35b61008d61011b565b005b610097610225565b6040516100a693929190611208565b60405180910390f35b6100c960048036038101906100c49190610d83565b6102d5565b6040516100d79291906111af565b60405180910390f35b6100e8610728565b005b6100f2610832565b6040516100ff9190610ffd565b60405180910390f35b600a60009054906101000a900460ff1681565b600a60019054906101000a900473ffffffffffffffffffffffffffffffffffffffff1673ffffffffffffffffffffffffffffffffffffffff1661015c610858565b73ffffffffffffffffffffffffffffffffffffffff16146101b2576040517f08c379a00000000000000000000000000000000000000000000000000000000081526004016101a99061112f565b60405180910390fd5b60011515600a60009054906101000a900460ff16151514610208576040517f08c379a00000000000000000000000000000000000000000000000000000000081526004016101ff906110ef565b60405180910390fd5b6000600a60006101000a81548160ff021916908315150217905550565b6000806000600a60019054906101000a900473ffffffffffffffffffffffffffffffffffffffff1673ffffffffffffffffffffffffffffffffffffffff1661026b610858565b73ffffffffffffffffffffffffffffffffffffffff16146102c1576040517f08c379a00000000000000000000000000000000000000000000000000000000081526004016102b89061112f565b60405180910390fd5b600554600654600754925092509250909192565b60006060600a60019054906101000a900473ffffffffffffffffffffffffffffffffffffffff1673ffffffffffffffffffffffffffffffffffffffff1661031a610858565b73ffffffffffffffffffffffffffffffffffffffff1614610370576040517f08c379a00000000000000000000000000000000000000000000000000000000081526004016103679061112f565b60405180910390fd5b60001515600a60009054906101000a900460ff161515146103c6576040517f08c379a00000000000000000000000000000000000000000000000000000000081526004016103bd9061114f565b60405180910390fd5b6103e86003541061040c576040517f08c379a00000000000000000000000000000000000000000000000000000000081526004016104039061116f565b60405180910390fd5b6000610416610860565b905060008114801561042a57506096600554105b15610498576040518060400160405280600881526020017f506c6174696e756d0000000000000000000000000000000000000000000000008152506002908051906020019061047a929190610cb6565b506005600081548092919061048e906113f3565b919050555061059b565b600181111580156104ac575061015e600654105b1561051a576040518060400160405280600481526020017f476f6c6400000000000000000000000000000000000000000000000000000000815250600290805190602001906104fc929190610cb6565b5060066000815480929190610510906113f3565b919050555061059a565b6002811115801561052f57506101f460075411155b15610599576040518060400160405280600681526020017f53696c76657200000000000000000000000000000000000000000000000000008152506002908051906020019061057f929190610cb6565b5060076000815480929190610593906113f3565b91905055505b5b5b6106338482600454600280546105b090611390565b80601f01602080910402602001604051908101604052809291908181526020018280546105dc90611390565b80156106295780601f106105fe57610100808354040283529160200191610629565b820191906000526020600020905b81548152906001019060200180831161060c57829003601f168201915b50505050506108a4565b60036000815480929190610646906113f3565b919050555080600860008673ffffffffffffffffffffffffffffffffffffffff1673ffffffffffffffffffffffffffffffffffffffff1681526020019081526020016000208190555080600280805461069e90611390565b80601f01602080910402602001604051908101604052809291908181526020018280546106ca90611390565b80156107175780601f106106ec57610100808354040283529160200191610717565b820191906000526020600020905b8154815290600101906020018083116106fa57829003601f168201915b505050505090509250925050915091565b600a60019054906101000a900473ffffffffffffffffffffffffffffffffffffffff1673ffffffffffffffffffffffffffffffffffffffff16610769610858565b73ffffffffffffffffffffffffffffffffffffffff16146107bf576040517f08c379a00000000000000000000000000000000000000000000000000000000081526004016107b69061112f565b60405180910390fd5b60001515600a60009054906101000a900460ff16151514610815576040517f08c379a000000000000000000000000000000000000000000000000000000000815260040161080c9061110f565b60405180910390fd5b6001600a60006101000a81548160ff021916908315150217905550565b600a60019054906101000a900473ffffffffffffffffffffffffffffffffffffffff1681565b600033905090565b60008060034233604051602001610878929190610fd1565b6040516020818303038152906040528051906020012060001c61089b919061146a565b90508091505090565b600073ffffffffffffffffffffffffffffffffffffffff168473ffffffffffffffffffffffffffffffffffffffff161415610914576040517f08c379a000000000000000000000000000000000000000000000000000000000815260040161090b9061118f565b60405180910390fd5b600061091e610858565b905061093f8160008761093088610a3a565b61093988610a3a565b87610ab4565b8260008086815260200190815260200160002060008773ffffffffffffffffffffffffffffffffffffffff1673ffffffffffffffffffffffffffffffffffffffff168152602001908152602001600020600082825461099e9190611281565b925050819055508473ffffffffffffffffffffffffffffffffffffffff16600073ffffffffffffffffffffffffffffffffffffffff168273ffffffffffffffffffffffffffffffffffffffff167fc3d58168c5ae7397731d063d5bbf3d657854427343f4c083240f7aacaa2d0f628787604051610a1c9291906111df565b60405180910390a4610a3381600087878787610abc565b5050505050565b60606000600167ffffffffffffffff811115610a5957610a58611557565b5b604051908082528060200260200182016040528015610a875781602001602082028036833780820191505090505b5090508281600081518110610a9f57610a9e611528565b5b60200260200101818152505080915050919050565b505050505050565b610adb8473ffffffffffffffffffffffffffffffffffffffff16610ca3565b15610c9b578373ffffffffffffffffffffffffffffffffffffffff1663f23a6e6187878686866040518663ffffffff1660e01b8152600401610b21959493929190611018565b602060405180830381600087803b158015610b3b57600080fd5b505af1925050508015610b6c57506040513d601f19601f82011682018060405250810190610b699190610db0565b60015b610c1257610b78611586565b806308c379a01415610bd55750610b8d611792565b80610b985750610bd7565b806040517f08c379a0000000000000000000000000000000000000000000000000000000008152600401610bcc919061108d565b60405180910390fd5b505b6040517f08c379a0000000000000000000000000000000000000000000000000000000008152600401610c09906110af565b60405180910390fd5b63f23a6e6160e01b7bffffffffffffffffffffffffffffffffffffffffffffffffffffffff1916817bffffffffffffffffffffffffffffffffffffffffffffffffffffffff191614610c99576040517f08c379a0000000000000000000000000000000000000000000000000000000008152600401610c90906110cf565b60405180910390fd5b505b505050505050565b600080823b905060008111915050919050565b828054610cc290611390565b90600052602060002090601f016020900481019282610ce45760008555610d2b565b82601f10610cfd57805160ff1916838001178555610d2b565b82800160010185558215610d2b579182015b82811115610d2a578251825591602001919060010190610d0f565b5b509050610d389190610d3c565b5090565b5b80821115610d55576000816000905550600101610d3d565b5090565b600081359050610d6881611828565b92915050565b600081519050610d7d8161183f565b92915050565b600060208284031215610d9957610d986115a8565b5b6000610da784828501610d59565b91505092915050565b600060208284031215610dc657610dc56115a8565b5b6000610dd484828501610d6e565b91505092915050565b610de6816112e9565b82525050565b610df5816112d7565b82525050565b610e0c610e07826112d7565b61143c565b82525050565b610e1b816112fb565b82525050565b6000610e2c82611249565b610e36818561125f565b9350610e4681856020860161135d565b610e4f816115ad565b840191505092915050565b6000610e6582611254565b610e6f8185611270565b9350610e7f81856020860161135d565b610e88816115ad565b840191505092915050565b6000610ea0603483611270565b9150610eab826115d8565b604082019050919050565b6000610ec3602883611270565b9150610ece82611627565b604082019050919050565b6000610ee6601b83611270565b9150610ef182611676565b602082019050919050565b6000610f09601b83611270565b9150610f148261169f565b602082019050919050565b6000610f2c601883611270565b9150610f37826116c8565b602082019050919050565b6000610f4f601b83611270565b9150610f5a826116f1565b602082019050919050565b6000610f72601983611270565b9150610f7d8261171a565b602082019050919050565b6000610f95602183611270565b9150610fa082611743565b604082019050919050565b610fb481611353565b82525050565b610fcb610fc682611353565b611460565b82525050565b6000610fdd8285610fba565b602082019150610fed8284610dfb565b6014820191508190509392505050565b60006020820190506110126000830184610ddd565b92915050565b600060a08201905061102d6000830188610dec565b61103a6020830187610dec565b6110476040830186610fab565b6110546060830185610fab565b81810360808301526110668184610e21565b90509695505050505050565b60006020820190506110876000830184610e12565b92915050565b600060208201905081810360008301526110a78184610e5a565b905092915050565b600060208201905081810360008301526110c881610e93565b9050919050565b600060208201905081810360008301526110e881610eb6565b9050919050565b6000602082019050818103600083015261110881610ed9565b9050919050565b6000602082019050818103600083015261112881610efc565b9050919050565b6000602082019050818103600083015261114881610f1f565b9050919050565b6000602082019050818103600083015261116881610f42565b9050919050565b6000602082019050818103600083015261118881610f65565b9050919050565b600060208201905081810360008301526111a881610f88565b9050919050565b60006040820190506111c46000830185610fab565b81810360208301526111d68184610e5a565b90509392505050565b60006040820190506111f46000830185610fab565b6112016020830184610fab565b9392505050565b600060608201905061121d6000830186610fab565b61122a6020830185610fab565b6112376040830184610fab565b949350505050565b6000604051905090565b600081519050919050565b600081519050919050565b600082825260208201905092915050565b600082825260208201905092915050565b600061128c82611353565b915061129783611353565b9250827fffffffffffffffffffffffffffffffffffffffffffffffffffffffffffffffff038211156112cc576112cb61149b565b5b828201905092915050565b60006112e282611333565b9050919050565b60006112f482611333565b9050919050565b60008115159050919050565b60007fffffffff0000000000000000000000000000000000000000000000000000000082169050919050565b600073ffffffffffffffffffffffffffffffffffffffff82169050919050565b6000819050919050565b60005b8381101561137b578082015181840152602081019050611360565b8381111561138a576000848401525b50505050565b600060028204905060018216806113a857607f821691505b602082108114156113bc576113bb6114f9565b5b50919050565b6113cb826115ad565b810181811067ffffffffffffffff821117156113ea576113e9611557565b5b80604052505050565b60006113fe82611353565b91507fffffffffffffffffffffffffffffffffffffffffffffffffffffffffffffffff8214156114315761143061149b565b5b600182019050919050565b60006114478261144e565b9050919050565b6000611459826115be565b9050919050565b6000819050919050565b600061147582611353565b915061148083611353565b9250826114905761148f6114ca565b5b828206905092915050565b7f4e487b7100000000000000000000000000000000000000000000000000000000600052601160045260246000fd5b7f4e487b7100000000000000000000000000000000000000000000000000000000600052601260045260246000fd5b7f4e487b7100000000000000000000000000000000000000000000000000000000600052602260045260246000fd5b7f4e487b7100000000000000000000000000000000000000000000000000000000600052603260045260246000fd5b7f4e487b7100000000000000000000000000000000000000000000000000000000600052604160045260246000fd5b600060033d11156115a55760046000803e6115a26000516115cb565b90505b90565b600080fd5b6000601f19601f8301169050919050565b60008160601b9050919050565b60008160e01c9050919050565b7f455243313135353a207472616e7366657220746f206e6f6e204552433131353560008201527f526563656976657220696d706c656d656e746572000000000000000000000000602082015250565b7f455243313135353a204552433131353552656365697665722072656a6563746560008201527f6420746f6b656e73000000000000000000000000000000000000000000000000602082015250565b7f44726f707369746520697320616c72656164792052756e6e696e670000000000600082015250565b7f44726f707369746520697320616c72656164792053746f707065640000000000600082015250565b7f4f6e79784e6674204f776e65722063616e204163636573730000000000000000600082015250565b7f44726f7073697465206973206e6f74204f70656e6564205965742e0000000000600082015250565b7f4d6178204d696e74696e67204c696d6974207265616368656400000000000000600082015250565b7f455243313135353a206d696e7420746f20746865207a65726f2061646472657360008201527f7300000000000000000000000000000000000000000000000000000000000000602082015250565b600060443d10156117a257611825565b6117aa61123f565b60043d036004823e80513d602482011167ffffffffffffffff821117156117d2575050611825565b808201805167ffffffffffffffff8111156117f05750505050611825565b80602083010160043d03850181111561180d575050505050611825565b61181c826020018501866113c2565b82955050505050505b90565b611831816112d7565b811461183c57600080fd5b50565b61184881611307565b811461185357600080fd5b5056fea2646970667358221220b99a7e42f300e0e82bd51f820672b2ef2036c449365e842671b04b704de48a0c64736f6c63430008070033",
					"opcodes": "PUSH1 0x80 PUSH1 0x40 MSTORE PUSH1 0x40 MLOAD DUP1 PUSH1 0x20 ADD PUSH1 0x40 MSTORE DUP1 PUSH1 0x0 DUP2 MSTORE POP PUSH1 0x2 SWAP1 DUP1 MLOAD SWAP1 PUSH1 0x20 ADD SWAP1 PUSH3 0x2B SWAP3 SWAP2 SWAP1 PUSH3 0x103 JUMP JUMPDEST POP PUSH1 0x1 PUSH1 0xA PUSH1 0x0 PUSH2 0x100 EXP DUP2 SLOAD DUP2 PUSH1 0xFF MUL NOT AND SWAP1 DUP4 ISZERO ISZERO MUL OR SWAP1 SSTORE POP CALLVALUE DUP1 ISZERO PUSH3 0x54 JUMPI PUSH1 0x0 DUP1 REVERT JUMPDEST POP PUSH1 0x40 MLOAD PUSH3 0x1D33 CODESIZE SUB DUP1 PUSH3 0x1D33 DUP4 CODECOPY DUP2 DUP2 ADD PUSH1 0x40 MSTORE DUP2 ADD SWAP1 PUSH3 0x7A SWAP2 SWAP1 PUSH3 0x2C2 JUMP JUMPDEST DUP1 PUSH1 0xB SWAP1 DUP1 MLOAD SWAP1 PUSH1 0x20 ADD SWAP1 PUSH3 0x92 SWAP3 SWAP2 SWAP1 PUSH3 0x194 JUMP JUMPDEST POP CALLER PUSH1 0xA PUSH1 0x1 PUSH2 0x100 EXP DUP2 SLOAD DUP2 PUSH20 0xFFFFFFFFFFFFFFFFFFFFFFFFFFFFFFFFFFFFFFFF MUL NOT AND SWAP1 DUP4 PUSH20 0xFFFFFFFFFFFFFFFFFFFFFFFFFFFFFFFFFFFFFFFF AND MUL OR SWAP1 SSTORE POP PUSH1 0x0 PUSH1 0x3 DUP2 SWAP1 SSTORE POP PUSH1 0x1 PUSH1 0x4 DUP2 SWAP1 SSTORE POP PUSH1 0x0 PUSH1 0x5 DUP2 SWAP1 SSTORE POP PUSH1 0x0 PUSH1 0x6 DUP2 SWAP1 SSTORE POP PUSH1 0x0 PUSH1 0x7 DUP2 SWAP1 SSTORE POP POP PUSH3 0x497 JUMP JUMPDEST DUP3 DUP1 SLOAD PUSH3 0x111 SWAP1 PUSH3 0x3A8 JUMP JUMPDEST SWAP1 PUSH1 0x0 MSTORE PUSH1 0x20 PUSH1 0x0 KECCAK256 SWAP1 PUSH1 0x1F ADD PUSH1 0x20 SWAP1 DIV DUP2 ADD SWAP3 DUP3 PUSH3 0x135 JUMPI PUSH1 0x0 DUP6 SSTORE PUSH3 0x181 JUMP JUMPDEST DUP3 PUSH1 0x1F LT PUSH3 0x150 JUMPI DUP1 MLOAD PUSH1 0xFF NOT AND DUP4 DUP1 ADD OR DUP6 SSTORE PUSH3 0x181 JUMP JUMPDEST DUP3 DUP1 ADD PUSH1 0x1 ADD DUP6 SSTORE DUP3 ISZERO PUSH3 0x181 JUMPI SWAP2 DUP3 ADD JUMPDEST DUP3 DUP2 GT ISZERO PUSH3 0x180 JUMPI DUP3 MLOAD DUP3 SSTORE SWAP2 PUSH1 0x20 ADD SWAP2 SWAP1 PUSH1 0x1 ADD SWAP1 PUSH3 0x163 JUMP JUMPDEST JUMPDEST POP SWAP1 POP PUSH3 0x190 SWAP2 SWAP1 PUSH3 0x225 JUMP JUMPDEST POP SWAP1 JUMP JUMPDEST DUP3 DUP1 SLOAD PUSH3 0x1A2 SWAP1 PUSH3 0x3A8 JUMP JUMPDEST SWAP1 PUSH1 0x0 MSTORE PUSH1 0x20 PUSH1 0x0 KECCAK256 SWAP1 PUSH1 0x1F ADD PUSH1 0x20 SWAP1 DIV DUP2 ADD SWAP3 DUP3 PUSH3 0x1C6 JUMPI PUSH1 0x0 DUP6 SSTORE PUSH3 0x212 JUMP JUMPDEST DUP3 PUSH1 0x1F LT PUSH3 0x1E1 JUMPI DUP1 MLOAD PUSH1 0xFF NOT AND DUP4 DUP1 ADD OR DUP6 SSTORE PUSH3 0x212 JUMP JUMPDEST DUP3 DUP1 ADD PUSH1 0x1 ADD DUP6 SSTORE DUP3 ISZERO PUSH3 0x212 JUMPI SWAP2 DUP3 ADD JUMPDEST DUP3 DUP2 GT ISZERO PUSH3 0x211 JUMPI DUP3 MLOAD DUP3 SSTORE SWAP2 PUSH1 0x20 ADD SWAP2 SWAP1 PUSH1 0x1 ADD SWAP1 PUSH3 0x1F4 JUMP JUMPDEST JUMPDEST POP SWAP1 POP PUSH3 0x221 SWAP2 SWAP1 PUSH3 0x225 JUMP JUMPDEST POP SWAP1 JUMP JUMPDEST JUMPDEST DUP1 DUP3 GT ISZERO PUSH3 0x240 JUMPI PUSH1 0x0 DUP2 PUSH1 0x0 SWAP1 SSTORE POP PUSH1 0x1 ADD PUSH3 0x226 JUMP JUMPDEST POP SWAP1 JUMP JUMPDEST PUSH1 0x0 PUSH3 0x25B PUSH3 0x255 DUP5 PUSH3 0x33C JUMP JUMPDEST PUSH3 0x313 JUMP JUMPDEST SWAP1 POP DUP3 DUP2 MSTORE PUSH1 0x20 DUP2 ADD DUP5 DUP5 DUP5 ADD GT ISZERO PUSH3 0x27A JUMPI PUSH3 0x279 PUSH3 0x477 JUMP JUMPDEST JUMPDEST PUSH3 0x287 DUP5 DUP3 DUP6 PUSH3 0x372 JUMP JUMPDEST POP SWAP4 SWAP3 POP POP POP JUMP JUMPDEST PUSH1 0x0 DUP3 PUSH1 0x1F DUP4 ADD SLT PUSH3 0x2A7 JUMPI PUSH3 0x2A6 PUSH3 0x472 JUMP JUMPDEST JUMPDEST DUP2 MLOAD PUSH3 0x2B9 DUP5 DUP3 PUSH1 0x20 DUP7 ADD PUSH3 0x244 JUMP JUMPDEST SWAP2 POP POP SWAP3 SWAP2 POP POP JUMP JUMPDEST PUSH1 0x0 PUSH1 0x20 DUP3 DUP5 SUB SLT ISZERO PUSH3 0x2DB JUMPI PUSH3 0x2DA PUSH3 0x481 JUMP JUMPDEST JUMPDEST PUSH1 0x0 DUP3 ADD MLOAD PUSH8 0xFFFFFFFFFFFFFFFF DUP2 GT ISZERO PUSH3 0x2FC JUMPI PUSH3 0x2FB PUSH3 0x47C JUMP JUMPDEST JUMPDEST PUSH3 0x30A DUP5 DUP3 DUP6 ADD PUSH3 0x28F JUMP JUMPDEST SWAP2 POP POP SWAP3 SWAP2 POP POP JUMP JUMPDEST PUSH1 0x0 PUSH3 0x31F PUSH3 0x332 JUMP JUMPDEST SWAP1 POP PUSH3 0x32D DUP3 DUP3 PUSH3 0x3DE JUMP JUMPDEST SWAP2 SWAP1 POP JUMP JUMPDEST PUSH1 0x0 PUSH1 0x40 MLOAD SWAP1 POP SWAP1 JUMP JUMPDEST PUSH1 0x0 PUSH8 0xFFFFFFFFFFFFFFFF DUP3 GT ISZERO PUSH3 0x35A JUMPI PUSH3 0x359 PUSH3 0x443 JUMP JUMPDEST JUMPDEST PUSH3 0x365 DUP3 PUSH3 0x486 JUMP JUMPDEST SWAP1 POP PUSH1 0x20 DUP2 ADD SWAP1 POP SWAP2 SWAP1 POP JUMP JUMPDEST PUSH1 0x0 JUMPDEST DUP4 DUP2 LT ISZERO PUSH3 0x392 JUMPI DUP1 DUP3 ADD MLOAD DUP2 DUP5 ADD MSTORE PUSH1 0x20 DUP2 ADD SWAP1 POP PUSH3 0x375 JUMP JUMPDEST DUP4 DUP2 GT ISZERO PUSH3 0x3A2 JUMPI PUSH1 0x0 DUP5 DUP5 ADD MSTORE JUMPDEST POP POP POP POP JUMP JUMPDEST PUSH1 0x0 PUSH1 0x2 DUP3 DIV SWAP1 POP PUSH1 0x1 DUP3 AND DUP1 PUSH3 0x3C1 JUMPI PUSH1 0x7F DUP3 AND SWAP2 POP JUMPDEST PUSH1 0x20 DUP3 LT DUP2 EQ ISZERO PUSH3 0x3D8 JUMPI PUSH3 0x3D7 PUSH3 0x414 JUMP JUMPDEST JUMPDEST POP SWAP2 SWAP1 POP JUMP JUMPDEST PUSH3 0x3E9 DUP3 PUSH3 0x486 JUMP JUMPDEST DUP2 ADD DUP2 DUP2 LT PUSH8 0xFFFFFFFFFFFFFFFF DUP3 GT OR ISZERO PUSH3 0x40B JUMPI PUSH3 0x40A PUSH3 0x443 JUMP JUMPDEST JUMPDEST DUP1 PUSH1 0x40 MSTORE POP POP POP JUMP JUMPDEST PUSH32 0x4E487B7100000000000000000000000000000000000000000000000000000000 PUSH1 0x0 MSTORE PUSH1 0x22 PUSH1 0x4 MSTORE PUSH1 0x24 PUSH1 0x0 REVERT JUMPDEST PUSH32 0x4E487B7100000000000000000000000000000000000000000000000000000000 PUSH1 0x0 MSTORE PUSH1 0x41 PUSH1 0x4 MSTORE PUSH1 0x24 PUSH1 0x0 REVERT JUMPDEST PUSH1 0x0 DUP1 REVERT JUMPDEST PUSH1 0x0 DUP1 REVERT JUMPDEST PUSH1 0x0 DUP1 REVERT JUMPDEST PUSH1 0x0 DUP1 REVERT JUMPDEST PUSH1 0x0 PUSH1 0x1F NOT PUSH1 0x1F DUP4 ADD AND SWAP1 POP SWAP2 SWAP1 POP JUMP JUMPDEST PUSH2 0x188C DUP1 PUSH3 0x4A7 PUSH1 0x0 CODECOPY PUSH1 0x0 RETURN INVALID PUSH1 0x80 PUSH1 0x40 MSTORE CALLVALUE DUP1 ISZERO PUSH2 0x10 JUMPI PUSH1 0x0 DUP1 REVERT JUMPDEST POP PUSH1 0x4 CALLDATASIZE LT PUSH2 0x62 JUMPI PUSH1 0x0 CALLDATALOAD PUSH1 0xE0 SHR DUP1 PUSH4 0x1309A563 EQ PUSH2 0x67 JUMPI DUP1 PUSH4 0x15460259 EQ PUSH2 0x85 JUMPI DUP1 PUSH4 0x60DAA851 EQ PUSH2 0x8F JUMPI DUP1 PUSH4 0x97E96E86 EQ PUSH2 0xAF JUMPI DUP1 PUSH4 0xAA90C726 EQ PUSH2 0xE0 JUMPI DUP1 PUSH4 0xB4A99A4E EQ PUSH2 0xEA JUMPI JUMPDEST PUSH1 0x0 DUP1 REVERT JUMPDEST PUSH2 0x6F PUSH2 0x108 JUMP JUMPDEST PUSH1 0x40 MLOAD PUSH2 0x7C SWAP2 SWAP1 PUSH2 0x1072 JUMP JUMPDEST PUSH1 0x40 MLOAD DUP1 SWAP2 SUB SWAP1 RETURN JUMPDEST PUSH2 0x8D PUSH2 0x11B JUMP JUMPDEST STOP JUMPDEST PUSH2 0x97 PUSH2 0x225 JUMP JUMPDEST PUSH1 0x40 MLOAD PUSH2 0xA6 SWAP4 SWAP3 SWAP2 SWAP1 PUSH2 0x1208 JUMP JUMPDEST PUSH1 0x40 MLOAD DUP1 SWAP2 SUB SWAP1 RETURN JUMPDEST PUSH2 0xC9 PUSH1 0x4 DUP1 CALLDATASIZE SUB DUP2 ADD SWAP1 PUSH2 0xC4 SWAP2 SWAP1 PUSH2 0xD83 JUMP JUMPDEST PUSH2 0x2D5 JUMP JUMPDEST PUSH1 0x40 MLOAD PUSH2 0xD7 SWAP3 SWAP2 SWAP1 PUSH2 0x11AF JUMP JUMPDEST PUSH1 0x40 MLOAD DUP1 SWAP2 SUB SWAP1 RETURN JUMPDEST PUSH2 0xE8 PUSH2 0x728 JUMP JUMPDEST STOP JUMPDEST PUSH2 0xF2 PUSH2 0x832 JUMP JUMPDEST PUSH1 0x40 MLOAD PUSH2 0xFF SWAP2 SWAP1 PUSH2 0xFFD JUMP JUMPDEST PUSH1 0x40 MLOAD DUP1 SWAP2 SUB SWAP1 RETURN JUMPDEST PUSH1 0xA PUSH1 0x0 SWAP1 SLOAD SWAP1 PUSH2 0x100 EXP SWAP1 DIV PUSH1 0xFF AND DUP2 JUMP JUMPDEST PUSH1 0xA PUSH1 0x1 SWAP1 SLOAD SWAP1 PUSH2 0x100 EXP SWAP1 DIV PUSH20 0xFFFFFFFFFFFFFFFFFFFFFFFFFFFFFFFFFFFFFFFF AND PUSH20 0xFFFFFFFFFFFFFFFFFFFFFFFFFFFFFFFFFFFFFFFF AND PUSH2 0x15C PUSH2 0x858 JUMP JUMPDEST PUSH20 0xFFFFFFFFFFFFFFFFFFFFFFFFFFFFFFFFFFFFFFFF AND EQ PUSH2 0x1B2 JUMPI PUSH1 0x40 MLOAD PUSH32 0x8C379A000000000000000000000000000000000000000000000000000000000 DUP2 MSTORE PUSH1 0x4 ADD PUSH2 0x1A9 SWAP1 PUSH2 0x112F JUMP JUMPDEST PUSH1 0x40 MLOAD DUP1 SWAP2 SUB SWAP1 REVERT JUMPDEST PUSH1 0x1 ISZERO ISZERO PUSH1 0xA PUSH1 0x0 SWAP1 SLOAD SWAP1 PUSH2 0x100 EXP SWAP1 DIV PUSH1 0xFF AND ISZERO ISZERO EQ PUSH2 0x208 JUMPI PUSH1 0x40 MLOAD PUSH32 0x8C379A000000000000000000000000000000000000000000000000000000000 DUP2 MSTORE PUSH1 0x4 ADD PUSH2 0x1FF SWAP1 PUSH2 0x10EF JUMP JUMPDEST PUSH1 0x40 MLOAD DUP1 SWAP2 SUB SWAP1 REVERT JUMPDEST PUSH1 0x0 PUSH1 0xA PUSH1 0x0 PUSH2 0x100 EXP DUP2 SLOAD DUP2 PUSH1 0xFF MUL NOT AND SWAP1 DUP4 ISZERO ISZERO MUL OR SWAP1 SSTORE POP JUMP JUMPDEST PUSH1 0x0 DUP1 PUSH1 0x0 PUSH1 0xA PUSH1 0x1 SWAP1 SLOAD SWAP1 PUSH2 0x100 EXP SWAP1 DIV PUSH20 0xFFFFFFFFFFFFFFFFFFFFFFFFFFFFFFFFFFFFFFFF AND PUSH20 0xFFFFFFFFFFFFFFFFFFFFFFFFFFFFFFFFFFFFFFFF AND PUSH2 0x26B PUSH2 0x858 JUMP JUMPDEST PUSH20 0xFFFFFFFFFFFFFFFFFFFFFFFFFFFFFFFFFFFFFFFF AND EQ PUSH2 0x2C1 JUMPI PUSH1 0x40 MLOAD PUSH32 0x8C379A000000000000000000000000000000000000000000000000000000000 DUP2 MSTORE PUSH1 0x4 ADD PUSH2 0x2B8 SWAP1 PUSH2 0x112F JUMP JUMPDEST PUSH1 0x40 MLOAD DUP1 SWAP2 SUB SWAP1 REVERT JUMPDEST PUSH1 0x5 SLOAD PUSH1 0x6 SLOAD PUSH1 0x7 SLOAD SWAP3 POP SWAP3 POP SWAP3 POP SWAP1 SWAP2 SWAP3 JUMP JUMPDEST PUSH1 0x0 PUSH1 0x60 PUSH1 0xA PUSH1 0x1 SWAP1 SLOAD SWAP1 PUSH2 0x100 EXP SWAP1 DIV PUSH20 0xFFFFFFFFFFFFFFFFFFFFFFFFFFFFFFFFFFFFFFFF AND PUSH20 0xFFFFFFFFFFFFFFFFFFFFFFFFFFFFFFFFFFFFFFFF AND PUSH2 0x31A PUSH2 0x858 JUMP JUMPDEST PUSH20 0xFFFFFFFFFFFFFFFFFFFFFFFFFFFFFFFFFFFFFFFF AND EQ PUSH2 0x370 JUMPI PUSH1 0x40 MLOAD PUSH32 0x8C379A000000000000000000000000000000000000000000000000000000000 DUP2 MSTORE PUSH1 0x4 ADD PUSH2 0x367 SWAP1 PUSH2 0x112F JUMP JUMPDEST PUSH1 0x40 MLOAD DUP1 SWAP2 SUB SWAP1 REVERT JUMPDEST PUSH1 0x0 ISZERO ISZERO PUSH1 0xA PUSH1 0x0 SWAP1 SLOAD SWAP1 PUSH2 0x100 EXP SWAP1 DIV PUSH1 0xFF AND ISZERO ISZERO EQ PUSH2 0x3C6 JUMPI PUSH1 0x40 MLOAD PUSH32 0x8C379A000000000000000000000000000000000000000000000000000000000 DUP2 MSTORE PUSH1 0x4 ADD PUSH2 0x3BD SWAP1 PUSH2 0x114F JUMP JUMPDEST PUSH1 0x40 MLOAD DUP1 SWAP2 SUB SWAP1 REVERT JUMPDEST PUSH2 0x3E8 PUSH1 0x3 SLOAD LT PUSH2 0x40C JUMPI PUSH1 0x40 MLOAD PUSH32 0x8C379A000000000000000000000000000000000000000000000000000000000 DUP2 MSTORE PUSH1 0x4 ADD PUSH2 0x403 SWAP1 PUSH2 0x116F JUMP JUMPDEST PUSH1 0x40 MLOAD DUP1 SWAP2 SUB SWAP1 REVERT JUMPDEST PUSH1 0x0 PUSH2 0x416 PUSH2 0x860 JUMP JUMPDEST SWAP1 POP PUSH1 0x0 DUP2 EQ DUP1 ISZERO PUSH2 0x42A JUMPI POP PUSH1 0x96 PUSH1 0x5 SLOAD LT JUMPDEST ISZERO PUSH2 0x498 JUMPI PUSH1 0x40 MLOAD DUP1 PUSH1 0x40 ADD PUSH1 0x40 MSTORE DUP1 PUSH1 0x8 DUP2 MSTORE PUSH1 0x20 ADD PUSH32 0x506C6174696E756D000000000000000000000000000000000000000000000000 DUP2 MSTORE POP PUSH1 0x2 SWAP1 DUP1 MLOAD SWAP1 PUSH1 0x20 ADD SWAP1 PUSH2 0x47A SWAP3 SWAP2 SWAP1 PUSH2 0xCB6 JUMP JUMPDEST POP PUSH1 0x5 PUSH1 0x0 DUP2 SLOAD DUP1 SWAP3 SWAP2 SWAP1 PUSH2 0x48E SWAP1 PUSH2 0x13F3 JUMP JUMPDEST SWAP2 SWAP1 POP SSTORE POP PUSH2 0x59B JUMP JUMPDEST PUSH1 0x1 DUP2 GT ISZERO DUP1 ISZERO PUSH2 0x4AC JUMPI POP PUSH2 0x15E PUSH1 0x6 SLOAD LT JUMPDEST ISZERO PUSH2 0x51A JUMPI PUSH1 0x40 MLOAD DUP1 PUSH1 0x40 ADD PUSH1 0x40 MSTORE DUP1 PUSH1 0x4 DUP2 MSTORE PUSH1 0x20 ADD PUSH32 0x476F6C6400000000000000000000000000000000000000000000000000000000 DUP2 MSTORE POP PUSH1 0x2 SWAP1 DUP1 MLOAD SWAP1 PUSH1 0x20 ADD SWAP1 PUSH2 0x4FC SWAP3 SWAP2 SWAP1 PUSH2 0xCB6 JUMP JUMPDEST POP PUSH1 0x6 PUSH1 0x0 DUP2 SLOAD DUP1 SWAP3 SWAP2 SWAP1 PUSH2 0x510 SWAP1 PUSH2 0x13F3 JUMP JUMPDEST SWAP2 SWAP1 POP SSTORE POP PUSH2 0x59A JUMP JUMPDEST PUSH1 0x2 DUP2 GT ISZERO DUP1 ISZERO PUSH2 0x52F JUMPI POP PUSH2 0x1F4 PUSH1 0x7 SLOAD GT ISZERO JUMPDEST ISZERO PUSH2 0x599 JUMPI PUSH1 0x40 MLOAD DUP1 PUSH1 0x40 ADD PUSH1 0x40 MSTORE DUP1 PUSH1 0x6 DUP2 MSTORE PUSH1 0x20 ADD PUSH32 0x53696C7665720000000000000000000000000000000000000000000000000000 DUP2 MSTORE POP PUSH1 0x2 SWAP1 DUP1 MLOAD SWAP1 PUSH1 0x20 ADD SWAP1 PUSH2 0x57F SWAP3 SWAP2 SWAP1 PUSH2 0xCB6 JUMP JUMPDEST POP PUSH1 0x7 PUSH1 0x0 DUP2 SLOAD DUP1 SWAP3 SWAP2 SWAP1 PUSH2 0x593 SWAP1 PUSH2 0x13F3 JUMP JUMPDEST SWAP2 SWAP1 POP SSTORE POP JUMPDEST JUMPDEST JUMPDEST PUSH2 0x633 DUP5 DUP3 PUSH1 0x4 SLOAD PUSH1 0x2 DUP1 SLOAD PUSH2 0x5B0 SWAP1 PUSH2 0x1390 JUMP JUMPDEST DUP1 PUSH1 0x1F ADD PUSH1 0x20 DUP1 SWAP2 DIV MUL PUSH1 0x20 ADD PUSH1 0x40 MLOAD SWAP1 DUP2 ADD PUSH1 0x40 MSTORE DUP1 SWAP3 SWAP2 SWAP1 DUP2 DUP2 MSTORE PUSH1 0x20 ADD DUP3 DUP1 SLOAD PUSH2 0x5DC SWAP1 PUSH2 0x1390 JUMP JUMPDEST DUP1 ISZERO PUSH2 0x629 JUMPI DUP1 PUSH1 0x1F LT PUSH2 0x5FE JUMPI PUSH2 0x100 DUP1 DUP4 SLOAD DIV MUL DUP4 MSTORE SWAP2 PUSH1 0x20 ADD SWAP2 PUSH2 0x629 JUMP JUMPDEST DUP3 ADD SWAP2 SWAP1 PUSH1 0x0 MSTORE PUSH1 0x20 PUSH1 0x0 KECCAK256 SWAP1 JUMPDEST DUP2 SLOAD DUP2 MSTORE SWAP1 PUSH1 0x1 ADD SWAP1 PUSH1 0x20 ADD DUP1 DUP4 GT PUSH2 0x60C JUMPI DUP3 SWAP1 SUB PUSH1 0x1F AND DUP3 ADD SWAP2 JUMPDEST POP POP POP POP POP PUSH2 0x8A4 JUMP JUMPDEST PUSH1 0x3 PUSH1 0x0 DUP2 SLOAD DUP1 SWAP3 SWAP2 SWAP1 PUSH2 0x646 SWAP1 PUSH2 0x13F3 JUMP JUMPDEST SWAP2 SWAP1 POP SSTORE POP DUP1 PUSH1 0x8 PUSH1 0x0 DUP7 PUSH20 0xFFFFFFFFFFFFFFFFFFFFFFFFFFFFFFFFFFFFFFFF AND PUSH20 0xFFFFFFFFFFFFFFFFFFFFFFFFFFFFFFFFFFFFFFFF AND DUP2 MSTORE PUSH1 0x20 ADD SWAP1 DUP2 MSTORE PUSH1 0x20 ADD PUSH1 0x0 KECCAK256 DUP2 SWAP1 SSTORE POP DUP1 PUSH1 0x2 DUP1 DUP1 SLOAD PUSH2 0x69E SWAP1 PUSH2 0x1390 JUMP JUMPDEST DUP1 PUSH1 0x1F ADD PUSH1 0x20 DUP1 SWAP2 DIV MUL PUSH1 0x20 ADD PUSH1 0x40 MLOAD SWAP1 DUP2 ADD PUSH1 0x40 MSTORE DUP1 SWAP3 SWAP2 SWAP1 DUP2 DUP2 MSTORE PUSH1 0x20 ADD DUP3 DUP1 SLOAD PUSH2 0x6CA SWAP1 PUSH2 0x1390 JUMP JUMPDEST DUP1 ISZERO PUSH2 0x717 JUMPI DUP1 PUSH1 0x1F LT PUSH2 0x6EC JUMPI PUSH2 0x100 DUP1 DUP4 SLOAD DIV MUL DUP4 MSTORE SWAP2 PUSH1 0x20 ADD SWAP2 PUSH2 0x717 JUMP JUMPDEST DUP3 ADD SWAP2 SWAP1 PUSH1 0x0 MSTORE PUSH1 0x20 PUSH1 0x0 KECCAK256 SWAP1 JUMPDEST DUP2 SLOAD DUP2 MSTORE SWAP1 PUSH1 0x1 ADD SWAP1 PUSH1 0x20 ADD DUP1 DUP4 GT PUSH2 0x6FA JUMPI DUP3 SWAP1 SUB PUSH1 0x1F AND DUP3 ADD SWAP2 JUMPDEST POP POP POP POP POP SWAP1 POP SWAP3 POP SWAP3 POP POP SWAP2 POP SWAP2 JUMP JUMPDEST PUSH1 0xA PUSH1 0x1 SWAP1 SLOAD SWAP1 PUSH2 0x100 EXP SWAP1 DIV PUSH20 0xFFFFFFFFFFFFFFFFFFFFFFFFFFFFFFFFFFFFFFFF AND PUSH20 0xFFFFFFFFFFFFFFFFFFFFFFFFFFFFFFFFFFFFFFFF AND PUSH2 0x769 PUSH2 0x858 JUMP JUMPDEST PUSH20 0xFFFFFFFFFFFFFFFFFFFFFFFFFFFFFFFFFFFFFFFF AND EQ PUSH2 0x7BF JUMPI PUSH1 0x40 MLOAD PUSH32 0x8C379A000000000000000000000000000000000000000000000000000000000 DUP2 MSTORE PUSH1 0x4 ADD PUSH2 0x7B6 SWAP1 PUSH2 0x112F JUMP JUMPDEST PUSH1 0x40 MLOAD DUP1 SWAP2 SUB SWAP1 REVERT JUMPDEST PUSH1 0x0 ISZERO ISZERO PUSH1 0xA PUSH1 0x0 SWAP1 SLOAD SWAP1 PUSH2 0x100 EXP SWAP1 DIV PUSH1 0xFF AND ISZERO ISZERO EQ PUSH2 0x815 JUMPI PUSH1 0x40 MLOAD PUSH32 0x8C379A000000000000000000000000000000000000000000000000000000000 DUP2 MSTORE PUSH1 0x4 ADD PUSH2 0x80C SWAP1 PUSH2 0x110F JUMP JUMPDEST PUSH1 0x40 MLOAD DUP1 SWAP2 SUB SWAP1 REVERT JUMPDEST PUSH1 0x1 PUSH1 0xA PUSH1 0x0 PUSH2 0x100 EXP DUP2 SLOAD DUP2 PUSH1 0xFF MUL NOT AND SWAP1 DUP4 ISZERO ISZERO MUL OR SWAP1 SSTORE POP JUMP JUMPDEST PUSH1 0xA PUSH1 0x1 SWAP1 SLOAD SWAP1 PUSH2 0x100 EXP SWAP1 DIV PUSH20 0xFFFFFFFFFFFFFFFFFFFFFFFFFFFFFFFFFFFFFFFF AND DUP2 JUMP JUMPDEST PUSH1 0x0 CALLER SWAP1 POP SWAP1 JUMP JUMPDEST PUSH1 0x0 DUP1 PUSH1 0x3 TIMESTAMP CALLER PUSH1 0x40 MLOAD PUSH1 0x20 ADD PUSH2 0x878 SWAP3 SWAP2 SWAP1 PUSH2 0xFD1 JUMP JUMPDEST PUSH1 0x40 MLOAD PUSH1 0x20 DUP2 DUP4 SUB SUB DUP2 MSTORE SWAP1 PUSH1 0x40 MSTORE DUP1 MLOAD SWAP1 PUSH1 0x20 ADD KECCAK256 PUSH1 0x0 SHR PUSH2 0x89B SWAP2 SWAP1 PUSH2 0x146A JUMP JUMPDEST SWAP1 POP DUP1 SWAP2 POP POP SWAP1 JUMP JUMPDEST PUSH1 0x0 PUSH20 0xFFFFFFFFFFFFFFFFFFFFFFFFFFFFFFFFFFFFFFFF AND DUP5 PUSH20 0xFFFFFFFFFFFFFFFFFFFFFFFFFFFFFFFFFFFFFFFF AND EQ ISZERO PUSH2 0x914 JUMPI PUSH1 0x40 MLOAD PUSH32 0x8C379A000000000000000000000000000000000000000000000000000000000 DUP2 MSTORE PUSH1 0x4 ADD PUSH2 0x90B SWAP1 PUSH2 0x118F JUMP JUMPDEST PUSH1 0x40 MLOAD DUP1 SWAP2 SUB SWAP1 REVERT JUMPDEST PUSH1 0x0 PUSH2 0x91E PUSH2 0x858 JUMP JUMPDEST SWAP1 POP PUSH2 0x93F DUP2 PUSH1 0x0 DUP8 PUSH2 0x930 DUP9 PUSH2 0xA3A JUMP JUMPDEST PUSH2 0x939 DUP9 PUSH2 0xA3A JUMP JUMPDEST DUP8 PUSH2 0xAB4 JUMP JUMPDEST DUP3 PUSH1 0x0 DUP1 DUP7 DUP2 MSTORE PUSH1 0x20 ADD SWAP1 DUP2 MSTORE PUSH1 0x20 ADD PUSH1 0x0 KECCAK256 PUSH1 0x0 DUP8 PUSH20 0xFFFFFFFFFFFFFFFFFFFFFFFFFFFFFFFFFFFFFFFF AND PUSH20 0xFFFFFFFFFFFFFFFFFFFFFFFFFFFFFFFFFFFFFFFF AND DUP2 MSTORE PUSH1 0x20 ADD SWAP1 DUP2 MSTORE PUSH1 0x20 ADD PUSH1 0x0 KECCAK256 PUSH1 0x0 DUP3 DUP3 SLOAD PUSH2 0x99E SWAP2 SWAP1 PUSH2 0x1281 JUMP JUMPDEST SWAP3 POP POP DUP2 SWAP1 SSTORE POP DUP5 PUSH20 0xFFFFFFFFFFFFFFFFFFFFFFFFFFFFFFFFFFFFFFFF AND PUSH1 0x0 PUSH20 0xFFFFFFFFFFFFFFFFFFFFFFFFFFFFFFFFFFFFFFFF AND DUP3 PUSH20 0xFFFFFFFFFFFFFFFFFFFFFFFFFFFFFFFFFFFFFFFF AND PUSH32 0xC3D58168C5AE7397731D063D5BBF3D657854427343F4C083240F7AACAA2D0F62 DUP8 DUP8 PUSH1 0x40 MLOAD PUSH2 0xA1C SWAP3 SWAP2 SWAP1 PUSH2 0x11DF JUMP JUMPDEST PUSH1 0x40 MLOAD DUP1 SWAP2 SUB SWAP1 LOG4 PUSH2 0xA33 DUP2 PUSH1 0x0 DUP8 DUP8 DUP8 DUP8 PUSH2 0xABC JUMP JUMPDEST POP POP POP POP POP JUMP JUMPDEST PUSH1 0x60 PUSH1 0x0 PUSH1 0x1 PUSH8 0xFFFFFFFFFFFFFFFF DUP2 GT ISZERO PUSH2 0xA59 JUMPI PUSH2 0xA58 PUSH2 0x1557 JUMP JUMPDEST JUMPDEST PUSH1 0x40 MLOAD SWAP1 DUP1 DUP3 MSTORE DUP1 PUSH1 0x20 MUL PUSH1 0x20 ADD DUP3 ADD PUSH1 0x40 MSTORE DUP1 ISZERO PUSH2 0xA87 JUMPI DUP2 PUSH1 0x20 ADD PUSH1 0x20 DUP3 MUL DUP1 CALLDATASIZE DUP4 CALLDATACOPY DUP1 DUP3 ADD SWAP2 POP POP SWAP1 POP JUMPDEST POP SWAP1 POP DUP3 DUP2 PUSH1 0x0 DUP2 MLOAD DUP2 LT PUSH2 0xA9F JUMPI PUSH2 0xA9E PUSH2 0x1528 JUMP JUMPDEST JUMPDEST PUSH1 0x20 MUL PUSH1 0x20 ADD ADD DUP2 DUP2 MSTORE POP POP DUP1 SWAP2 POP POP SWAP2 SWAP1 POP JUMP JUMPDEST POP POP POP POP POP POP JUMP JUMPDEST PUSH2 0xADB DUP5 PUSH20 0xFFFFFFFFFFFFFFFFFFFFFFFFFFFFFFFFFFFFFFFF AND PUSH2 0xCA3 JUMP JUMPDEST ISZERO PUSH2 0xC9B JUMPI DUP4 PUSH20 0xFFFFFFFFFFFFFFFFFFFFFFFFFFFFFFFFFFFFFFFF AND PUSH4 0xF23A6E61 DUP8 DUP8 DUP7 DUP7 DUP7 PUSH1 0x40 MLOAD DUP7 PUSH4 0xFFFFFFFF AND PUSH1 0xE0 SHL DUP2 MSTORE PUSH1 0x4 ADD PUSH2 0xB21 SWAP6 SWAP5 SWAP4 SWAP3 SWAP2 SWAP1 PUSH2 0x1018 JUMP JUMPDEST PUSH1 0x20 PUSH1 0x40 MLOAD DUP1 DUP4 SUB DUP2 PUSH1 0x0 DUP8 DUP1 EXTCODESIZE ISZERO DUP1 ISZERO PUSH2 0xB3B JUMPI PUSH1 0x0 DUP1 REVERT JUMPDEST POP GAS CALL SWAP3 POP POP POP DUP1 ISZERO PUSH2 0xB6C JUMPI POP PUSH1 0x40 MLOAD RETURNDATASIZE PUSH1 0x1F NOT PUSH1 0x1F DUP3 ADD AND DUP3 ADD DUP1 PUSH1 0x40 MSTORE POP DUP2 ADD SWAP1 PUSH2 0xB69 SWAP2 SWAP1 PUSH2 0xDB0 JUMP JUMPDEST PUSH1 0x1 JUMPDEST PUSH2 0xC12 JUMPI PUSH2 0xB78 PUSH2 0x1586 JUMP JUMPDEST DUP1 PUSH4 0x8C379A0 EQ ISZERO PUSH2 0xBD5 JUMPI POP PUSH2 0xB8D PUSH2 0x1792 JUMP JUMPDEST DUP1 PUSH2 0xB98 JUMPI POP PUSH2 0xBD7 JUMP JUMPDEST DUP1 PUSH1 0x40 MLOAD PUSH32 0x8C379A000000000000000000000000000000000000000000000000000000000 DUP2 MSTORE PUSH1 0x4 ADD PUSH2 0xBCC SWAP2 SWAP1 PUSH2 0x108D JUMP JUMPDEST PUSH1 0x40 MLOAD DUP1 SWAP2 SUB SWAP1 REVERT JUMPDEST POP JUMPDEST PUSH1 0x40 MLOAD PUSH32 0x8C379A000000000000000000000000000000000000000000000000000000000 DUP2 MSTORE PUSH1 0x4 ADD PUSH2 0xC09 SWAP1 PUSH2 0x10AF JUMP JUMPDEST PUSH1 0x40 MLOAD DUP1 SWAP2 SUB SWAP1 REVERT JUMPDEST PUSH4 0xF23A6E61 PUSH1 0xE0 SHL PUSH28 0xFFFFFFFFFFFFFFFFFFFFFFFFFFFFFFFFFFFFFFFFFFFFFFFFFFFFFFFF NOT AND DUP2 PUSH28 0xFFFFFFFFFFFFFFFFFFFFFFFFFFFFFFFFFFFFFFFFFFFFFFFFFFFFFFFF NOT AND EQ PUSH2 0xC99 JUMPI PUSH1 0x40 MLOAD PUSH32 0x8C379A000000000000000000000000000000000000000000000000000000000 DUP2 MSTORE PUSH1 0x4 ADD PUSH2 0xC90 SWAP1 PUSH2 0x10CF JUMP JUMPDEST PUSH1 0x40 MLOAD DUP1 SWAP2 SUB SWAP1 REVERT JUMPDEST POP JUMPDEST POP POP POP POP POP POP JUMP JUMPDEST PUSH1 0x0 DUP1 DUP3 EXTCODESIZE SWAP1 POP PUSH1 0x0 DUP2 GT SWAP2 POP POP SWAP2 SWAP1 POP JUMP JUMPDEST DUP3 DUP1 SLOAD PUSH2 0xCC2 SWAP1 PUSH2 0x1390 JUMP JUMPDEST SWAP1 PUSH1 0x0 MSTORE PUSH1 0x20 PUSH1 0x0 KECCAK256 SWAP1 PUSH1 0x1F ADD PUSH1 0x20 SWAP1 DIV DUP2 ADD SWAP3 DUP3 PUSH2 0xCE4 JUMPI PUSH1 0x0 DUP6 SSTORE PUSH2 0xD2B JUMP JUMPDEST DUP3 PUSH1 0x1F LT PUSH2 0xCFD JUMPI DUP1 MLOAD PUSH1 0xFF NOT AND DUP4 DUP1 ADD OR DUP6 SSTORE PUSH2 0xD2B JUMP JUMPDEST DUP3 DUP1 ADD PUSH1 0x1 ADD DUP6 SSTORE DUP3 ISZERO PUSH2 0xD2B JUMPI SWAP2 DUP3 ADD JUMPDEST DUP3 DUP2 GT ISZERO PUSH2 0xD2A JUMPI DUP3 MLOAD DUP3 SSTORE SWAP2 PUSH1 0x20 ADD SWAP2 SWAP1 PUSH1 0x1 ADD SWAP1 PUSH2 0xD0F JUMP JUMPDEST JUMPDEST POP SWAP1 POP PUSH2 0xD38 SWAP2 SWAP1 PUSH2 0xD3C JUMP JUMPDEST POP SWAP1 JUMP JUMPDEST JUMPDEST DUP1 DUP3 GT ISZERO PUSH2 0xD55 JUMPI PUSH1 0x0 DUP2 PUSH1 0x0 SWAP1 SSTORE POP PUSH1 0x1 ADD PUSH2 0xD3D JUMP JUMPDEST POP SWAP1 JUMP JUMPDEST PUSH1 0x0 DUP2 CALLDATALOAD SWAP1 POP PUSH2 0xD68 DUP2 PUSH2 0x1828 JUMP JUMPDEST SWAP3 SWAP2 POP POP JUMP JUMPDEST PUSH1 0x0 DUP2 MLOAD SWAP1 POP PUSH2 0xD7D DUP2 PUSH2 0x183F JUMP JUMPDEST SWAP3 SWAP2 POP POP JUMP JUMPDEST PUSH1 0x0 PUSH1 0x20 DUP3 DUP5 SUB SLT ISZERO PUSH2 0xD99 JUMPI PUSH2 0xD98 PUSH2 0x15A8 JUMP JUMPDEST JUMPDEST PUSH1 0x0 PUSH2 0xDA7 DUP5 DUP3 DUP6 ADD PUSH2 0xD59 JUMP JUMPDEST SWAP2 POP POP SWAP3 SWAP2 POP POP JUMP JUMPDEST PUSH1 0x0 PUSH1 0x20 DUP3 DUP5 SUB SLT ISZERO PUSH2 0xDC6 JUMPI PUSH2 0xDC5 PUSH2 0x15A8 JUMP JUMPDEST JUMPDEST PUSH1 0x0 PUSH2 0xDD4 DUP5 DUP3 DUP6 ADD PUSH2 0xD6E JUMP JUMPDEST SWAP2 POP POP SWAP3 SWAP2 POP POP JUMP JUMPDEST PUSH2 0xDE6 DUP2 PUSH2 0x12E9 JUMP JUMPDEST DUP3 MSTORE POP POP JUMP JUMPDEST PUSH2 0xDF5 DUP2 PUSH2 0x12D7 JUMP JUMPDEST DUP3 MSTORE POP POP JUMP JUMPDEST PUSH2 0xE0C PUSH2 0xE07 DUP3 PUSH2 0x12D7 JUMP JUMPDEST PUSH2 0x143C JUMP JUMPDEST DUP3 MSTORE POP POP JUMP JUMPDEST PUSH2 0xE1B DUP2 PUSH2 0x12FB JUMP JUMPDEST DUP3 MSTORE POP POP JUMP JUMPDEST PUSH1 0x0 PUSH2 0xE2C DUP3 PUSH2 0x1249 JUMP JUMPDEST PUSH2 0xE36 DUP2 DUP6 PUSH2 0x125F JUMP JUMPDEST SWAP4 POP PUSH2 0xE46 DUP2 DUP6 PUSH1 0x20 DUP7 ADD PUSH2 0x135D JUMP JUMPDEST PUSH2 0xE4F DUP2 PUSH2 0x15AD JUMP JUMPDEST DUP5 ADD SWAP2 POP POP SWAP3 SWAP2 POP POP JUMP JUMPDEST PUSH1 0x0 PUSH2 0xE65 DUP3 PUSH2 0x1254 JUMP JUMPDEST PUSH2 0xE6F DUP2 DUP6 PUSH2 0x1270 JUMP JUMPDEST SWAP4 POP PUSH2 0xE7F DUP2 DUP6 PUSH1 0x20 DUP7 ADD PUSH2 0x135D JUMP JUMPDEST PUSH2 0xE88 DUP2 PUSH2 0x15AD JUMP JUMPDEST DUP5 ADD SWAP2 POP POP SWAP3 SWAP2 POP POP JUMP JUMPDEST PUSH1 0x0 PUSH2 0xEA0 PUSH1 0x34 DUP4 PUSH2 0x1270 JUMP JUMPDEST SWAP2 POP PUSH2 0xEAB DUP3 PUSH2 0x15D8 JUMP JUMPDEST PUSH1 0x40 DUP3 ADD SWAP1 POP SWAP2 SWAP1 POP JUMP JUMPDEST PUSH1 0x0 PUSH2 0xEC3 PUSH1 0x28 DUP4 PUSH2 0x1270 JUMP JUMPDEST SWAP2 POP PUSH2 0xECE DUP3 PUSH2 0x1627 JUMP JUMPDEST PUSH1 0x40 DUP3 ADD SWAP1 POP SWAP2 SWAP1 POP JUMP JUMPDEST PUSH1 0x0 PUSH2 0xEE6 PUSH1 0x1B DUP4 PUSH2 0x1270 JUMP JUMPDEST SWAP2 POP PUSH2 0xEF1 DUP3 PUSH2 0x1676 JUMP JUMPDEST PUSH1 0x20 DUP3 ADD SWAP1 POP SWAP2 SWAP1 POP JUMP JUMPDEST PUSH1 0x0 PUSH2 0xF09 PUSH1 0x1B DUP4 PUSH2 0x1270 JUMP JUMPDEST SWAP2 POP PUSH2 0xF14 DUP3 PUSH2 0x169F JUMP JUMPDEST PUSH1 0x20 DUP3 ADD SWAP1 POP SWAP2 SWAP1 POP JUMP JUMPDEST PUSH1 0x0 PUSH2 0xF2C PUSH1 0x18 DUP4 PUSH2 0x1270 JUMP JUMPDEST SWAP2 POP PUSH2 0xF37 DUP3 PUSH2 0x16C8 JUMP JUMPDEST PUSH1 0x20 DUP3 ADD SWAP1 POP SWAP2 SWAP1 POP JUMP JUMPDEST PUSH1 0x0 PUSH2 0xF4F PUSH1 0x1B DUP4 PUSH2 0x1270 JUMP JUMPDEST SWAP2 POP PUSH2 0xF5A DUP3 PUSH2 0x16F1 JUMP JUMPDEST PUSH1 0x20 DUP3 ADD SWAP1 POP SWAP2 SWAP1 POP JUMP JUMPDEST PUSH1 0x0 PUSH2 0xF72 PUSH1 0x19 DUP4 PUSH2 0x1270 JUMP JUMPDEST SWAP2 POP PUSH2 0xF7D DUP3 PUSH2 0x171A JUMP JUMPDEST PUSH1 0x20 DUP3 ADD SWAP1 POP SWAP2 SWAP1 POP JUMP JUMPDEST PUSH1 0x0 PUSH2 0xF95 PUSH1 0x21 DUP4 PUSH2 0x1270 JUMP JUMPDEST SWAP2 POP PUSH2 0xFA0 DUP3 PUSH2 0x1743 JUMP JUMPDEST PUSH1 0x40 DUP3 ADD SWAP1 POP SWAP2 SWAP1 POP JUMP JUMPDEST PUSH2 0xFB4 DUP2 PUSH2 0x1353 JUMP JUMPDEST DUP3 MSTORE POP POP JUMP JUMPDEST PUSH2 0xFCB PUSH2 0xFC6 DUP3 PUSH2 0x1353 JUMP JUMPDEST PUSH2 0x1460 JUMP JUMPDEST DUP3 MSTORE POP POP JUMP JUMPDEST PUSH1 0x0 PUSH2 0xFDD DUP3 DUP6 PUSH2 0xFBA JUMP JUMPDEST PUSH1 0x20 DUP3 ADD SWAP2 POP PUSH2 0xFED DUP3 DUP5 PUSH2 0xDFB JUMP JUMPDEST PUSH1 0x14 DUP3 ADD SWAP2 POP DUP2 SWAP1 POP SWAP4 SWAP3 POP POP POP JUMP JUMPDEST PUSH1 0x0 PUSH1 0x20 DUP3 ADD SWAP1 POP PUSH2 0x1012 PUSH1 0x0 DUP4 ADD DUP5 PUSH2 0xDDD JUMP JUMPDEST SWAP3 SWAP2 POP POP JUMP JUMPDEST PUSH1 0x0 PUSH1 0xA0 DUP3 ADD SWAP1 POP PUSH2 0x102D PUSH1 0x0 DUP4 ADD DUP9 PUSH2 0xDEC JUMP JUMPDEST PUSH2 0x103A PUSH1 0x20 DUP4 ADD DUP8 PUSH2 0xDEC JUMP JUMPDEST PUSH2 0x1047 PUSH1 0x40 DUP4 ADD DUP7 PUSH2 0xFAB JUMP JUMPDEST PUSH2 0x1054 PUSH1 0x60 DUP4 ADD DUP6 PUSH2 0xFAB JUMP JUMPDEST DUP2 DUP2 SUB PUSH1 0x80 DUP4 ADD MSTORE PUSH2 0x1066 DUP2 DUP5 PUSH2 0xE21 JUMP JUMPDEST SWAP1 POP SWAP7 SWAP6 POP POP POP POP POP POP JUMP JUMPDEST PUSH1 0x0 PUSH1 0x20 DUP3 ADD SWAP1 POP PUSH2 0x1087 PUSH1 0x0 DUP4 ADD DUP5 PUSH2 0xE12 JUMP JUMPDEST SWAP3 SWAP2 POP POP JUMP JUMPDEST PUSH1 0x0 PUSH1 0x20 DUP3 ADD SWAP1 POP DUP2 DUP2 SUB PUSH1 0x0 DUP4 ADD MSTORE PUSH2 0x10A7 DUP2 DUP5 PUSH2 0xE5A JUMP JUMPDEST SWAP1 POP SWAP3 SWAP2 POP POP JUMP JUMPDEST PUSH1 0x0 PUSH1 0x20 DUP3 ADD SWAP1 POP DUP2 DUP2 SUB PUSH1 0x0 DUP4 ADD MSTORE PUSH2 0x10C8 DUP2 PUSH2 0xE93 JUMP JUMPDEST SWAP1 POP SWAP2 SWAP1 POP JUMP JUMPDEST PUSH1 0x0 PUSH1 0x20 DUP3 ADD SWAP1 POP DUP2 DUP2 SUB PUSH1 0x0 DUP4 ADD MSTORE PUSH2 0x10E8 DUP2 PUSH2 0xEB6 JUMP JUMPDEST SWAP1 POP SWAP2 SWAP1 POP JUMP JUMPDEST PUSH1 0x0 PUSH1 0x20 DUP3 ADD SWAP1 POP DUP2 DUP2 SUB PUSH1 0x0 DUP4 ADD MSTORE PUSH2 0x1108 DUP2 PUSH2 0xED9 JUMP JUMPDEST SWAP1 POP SWAP2 SWAP1 POP JUMP JUMPDEST PUSH1 0x0 PUSH1 0x20 DUP3 ADD SWAP1 POP DUP2 DUP2 SUB PUSH1 0x0 DUP4 ADD MSTORE PUSH2 0x1128 DUP2 PUSH2 0xEFC JUMP JUMPDEST SWAP1 POP SWAP2 SWAP1 POP JUMP JUMPDEST PUSH1 0x0 PUSH1 0x20 DUP3 ADD SWAP1 POP DUP2 DUP2 SUB PUSH1 0x0 DUP4 ADD MSTORE PUSH2 0x1148 DUP2 PUSH2 0xF1F JUMP JUMPDEST SWAP1 POP SWAP2 SWAP1 POP JUMP JUMPDEST PUSH1 0x0 PUSH1 0x20 DUP3 ADD SWAP1 POP DUP2 DUP2 SUB PUSH1 0x0 DUP4 ADD MSTORE PUSH2 0x1168 DUP2 PUSH2 0xF42 JUMP JUMPDEST SWAP1 POP SWAP2 SWAP1 POP JUMP JUMPDEST PUSH1 0x0 PUSH1 0x20 DUP3 ADD SWAP1 POP DUP2 DUP2 SUB PUSH1 0x0 DUP4 ADD MSTORE PUSH2 0x1188 DUP2 PUSH2 0xF65 JUMP JUMPDEST SWAP1 POP SWAP2 SWAP1 POP JUMP JUMPDEST PUSH1 0x0 PUSH1 0x20 DUP3 ADD SWAP1 POP DUP2 DUP2 SUB PUSH1 0x0 DUP4 ADD MSTORE PUSH2 0x11A8 DUP2 PUSH2 0xF88 JUMP JUMPDEST SWAP1 POP SWAP2 SWAP1 POP JUMP JUMPDEST PUSH1 0x0 PUSH1 0x40 DUP3 ADD SWAP1 POP PUSH2 0x11C4 PUSH1 0x0 DUP4 ADD DUP6 PUSH2 0xFAB JUMP JUMPDEST DUP2 DUP2 SUB PUSH1 0x20 DUP4 ADD MSTORE PUSH2 0x11D6 DUP2 DUP5 PUSH2 0xE5A JUMP JUMPDEST SWAP1 POP SWAP4 SWAP3 POP POP POP JUMP JUMPDEST PUSH1 0x0 PUSH1 0x40 DUP3 ADD SWAP1 POP PUSH2 0x11F4 PUSH1 0x0 DUP4 ADD DUP6 PUSH2 0xFAB JUMP JUMPDEST PUSH2 0x1201 PUSH1 0x20 DUP4 ADD DUP5 PUSH2 0xFAB JUMP JUMPDEST SWAP4 SWAP3 POP POP POP JUMP JUMPDEST PUSH1 0x0 PUSH1 0x60 DUP3 ADD SWAP1 POP PUSH2 0x121D PUSH1 0x0 DUP4 ADD DUP7 PUSH2 0xFAB JUMP JUMPDEST PUSH2 0x122A PUSH1 0x20 DUP4 ADD DUP6 PUSH2 0xFAB JUMP JUMPDEST PUSH2 0x1237 PUSH1 0x40 DUP4 ADD DUP5 PUSH2 0xFAB JUMP JUMPDEST SWAP5 SWAP4 POP POP POP POP JUMP JUMPDEST PUSH1 0x0 PUSH1 0x40 MLOAD SWAP1 POP SWAP1 JUMP JUMPDEST PUSH1 0x0 DUP2 MLOAD SWAP1 POP SWAP2 SWAP1 POP JUMP JUMPDEST PUSH1 0x0 DUP2 MLOAD SWAP1 POP SWAP2 SWAP1 POP JUMP JUMPDEST PUSH1 0x0 DUP3 DUP3 MSTORE PUSH1 0x20 DUP3 ADD SWAP1 POP SWAP3 SWAP2 POP POP JUMP JUMPDEST PUSH1 0x0 DUP3 DUP3 MSTORE PUSH1 0x20 DUP3 ADD SWAP1 POP SWAP3 SWAP2 POP POP JUMP JUMPDEST PUSH1 0x0 PUSH2 0x128C DUP3 PUSH2 0x1353 JUMP JUMPDEST SWAP2 POP PUSH2 0x1297 DUP4 PUSH2 0x1353 JUMP JUMPDEST SWAP3 POP DUP3 PUSH32 0xFFFFFFFFFFFFFFFFFFFFFFFFFFFFFFFFFFFFFFFFFFFFFFFFFFFFFFFFFFFFFFFF SUB DUP3 GT ISZERO PUSH2 0x12CC JUMPI PUSH2 0x12CB PUSH2 0x149B JUMP JUMPDEST JUMPDEST DUP3 DUP3 ADD SWAP1 POP SWAP3 SWAP2 POP POP JUMP JUMPDEST PUSH1 0x0 PUSH2 0x12E2 DUP3 PUSH2 0x1333 JUMP JUMPDEST SWAP1 POP SWAP2 SWAP1 POP JUMP JUMPDEST PUSH1 0x0 PUSH2 0x12F4 DUP3 PUSH2 0x1333 JUMP JUMPDEST SWAP1 POP SWAP2 SWAP1 POP JUMP JUMPDEST PUSH1 0x0 DUP2 ISZERO ISZERO SWAP1 POP SWAP2 SWAP1 POP JUMP JUMPDEST PUSH1 0x0 PUSH32 0xFFFFFFFF00000000000000000000000000000000000000000000000000000000 DUP3 AND SWAP1 POP SWAP2 SWAP1 POP JUMP JUMPDEST PUSH1 0x0 PUSH20 0xFFFFFFFFFFFFFFFFFFFFFFFFFFFFFFFFFFFFFFFF DUP3 AND SWAP1 POP SWAP2 SWAP1 POP JUMP JUMPDEST PUSH1 0x0 DUP2 SWAP1 POP SWAP2 SWAP1 POP JUMP JUMPDEST PUSH1 0x0 JUMPDEST DUP4 DUP2 LT ISZERO PUSH2 0x137B JUMPI DUP1 DUP3 ADD MLOAD DUP2 DUP5 ADD MSTORE PUSH1 0x20 DUP2 ADD SWAP1 POP PUSH2 0x1360 JUMP JUMPDEST DUP4 DUP2 GT ISZERO PUSH2 0x138A JUMPI PUSH1 0x0 DUP5 DUP5 ADD MSTORE JUMPDEST POP POP POP POP JUMP JUMPDEST PUSH1 0x0 PUSH1 0x2 DUP3 DIV SWAP1 POP PUSH1 0x1 DUP3 AND DUP1 PUSH2 0x13A8 JUMPI PUSH1 0x7F DUP3 AND SWAP2 POP JUMPDEST PUSH1 0x20 DUP3 LT DUP2 EQ ISZERO PUSH2 0x13BC JUMPI PUSH2 0x13BB PUSH2 0x14F9 JUMP JUMPDEST JUMPDEST POP SWAP2 SWAP1 POP JUMP JUMPDEST PUSH2 0x13CB DUP3 PUSH2 0x15AD JUMP JUMPDEST DUP2 ADD DUP2 DUP2 LT PUSH8 0xFFFFFFFFFFFFFFFF DUP3 GT OR ISZERO PUSH2 0x13EA JUMPI PUSH2 0x13E9 PUSH2 0x1557 JUMP JUMPDEST JUMPDEST DUP1 PUSH1 0x40 MSTORE POP POP POP JUMP JUMPDEST PUSH1 0x0 PUSH2 0x13FE DUP3 PUSH2 0x1353 JUMP JUMPDEST SWAP2 POP PUSH32 0xFFFFFFFFFFFFFFFFFFFFFFFFFFFFFFFFFFFFFFFFFFFFFFFFFFFFFFFFFFFFFFFF DUP3 EQ ISZERO PUSH2 0x1431 JUMPI PUSH2 0x1430 PUSH2 0x149B JUMP JUMPDEST JUMPDEST PUSH1 0x1 DUP3 ADD SWAP1 POP SWAP2 SWAP1 POP JUMP JUMPDEST PUSH1 0x0 PUSH2 0x1447 DUP3 PUSH2 0x144E JUMP JUMPDEST SWAP1 POP SWAP2 SWAP1 POP JUMP JUMPDEST PUSH1 0x0 PUSH2 0x1459 DUP3 PUSH2 0x15BE JUMP JUMPDEST SWAP1 POP SWAP2 SWAP1 POP JUMP JUMPDEST PUSH1 0x0 DUP2 SWAP1 POP SWAP2 SWAP1 POP JUMP JUMPDEST PUSH1 0x0 PUSH2 0x1475 DUP3 PUSH2 0x1353 JUMP JUMPDEST SWAP2 POP PUSH2 0x1480 DUP4 PUSH2 0x1353 JUMP JUMPDEST SWAP3 POP DUP3 PUSH2 0x1490 JUMPI PUSH2 0x148F PUSH2 0x14CA JUMP JUMPDEST JUMPDEST DUP3 DUP3 MOD SWAP1 POP SWAP3 SWAP2 POP POP JUMP JUMPDEST PUSH32 0x4E487B7100000000000000000000000000000000000000000000000000000000 PUSH1 0x0 MSTORE PUSH1 0x11 PUSH1 0x4 MSTORE PUSH1 0x24 PUSH1 0x0 REVERT JUMPDEST PUSH32 0x4E487B7100000000000000000000000000000000000000000000000000000000 PUSH1 0x0 MSTORE PUSH1 0x12 PUSH1 0x4 MSTORE PUSH1 0x24 PUSH1 0x0 REVERT JUMPDEST PUSH32 0x4E487B7100000000000000000000000000000000000000000000000000000000 PUSH1 0x0 MSTORE PUSH1 0x22 PUSH1 0x4 MSTORE PUSH1 0x24 PUSH1 0x0 REVERT JUMPDEST PUSH32 0x4E487B7100000000000000000000000000000000000000000000000000000000 PUSH1 0x0 MSTORE PUSH1 0x32 PUSH1 0x4 MSTORE PUSH1 0x24 PUSH1 0x0 REVERT JUMPDEST PUSH32 0x4E487B7100000000000000000000000000000000000000000000000000000000 PUSH1 0x0 MSTORE PUSH1 0x41 PUSH1 0x4 MSTORE PUSH1 0x24 PUSH1 0x0 REVERT JUMPDEST PUSH1 0x0 PUSH1 0x3 RETURNDATASIZE GT ISZERO PUSH2 0x15A5 JUMPI PUSH1 0x4 PUSH1 0x0 DUP1 RETURNDATACOPY PUSH2 0x15A2 PUSH1 0x0 MLOAD PUSH2 0x15CB JUMP JUMPDEST SWAP1 POP JUMPDEST SWAP1 JUMP JUMPDEST PUSH1 0x0 DUP1 REVERT JUMPDEST PUSH1 0x0 PUSH1 0x1F NOT PUSH1 0x1F DUP4 ADD AND SWAP1 POP SWAP2 SWAP1 POP JUMP JUMPDEST PUSH1 0x0 DUP2 PUSH1 0x60 SHL SWAP1 POP SWAP2 SWAP1 POP JUMP JUMPDEST PUSH1 0x0 DUP2 PUSH1 0xE0 SHR SWAP1 POP SWAP2 SWAP1 POP JUMP JUMPDEST PUSH32 0x455243313135353A207472616E7366657220746F206E6F6E2045524331313535 PUSH1 0x0 DUP3 ADD MSTORE PUSH32 0x526563656976657220696D706C656D656E746572000000000000000000000000 PUSH1 0x20 DUP3 ADD MSTORE POP JUMP JUMPDEST PUSH32 0x455243313135353A204552433131353552656365697665722072656A65637465 PUSH1 0x0 DUP3 ADD MSTORE PUSH32 0x6420746F6B656E73000000000000000000000000000000000000000000000000 PUSH1 0x20 DUP3 ADD MSTORE POP JUMP JUMPDEST PUSH32 0x44726F707369746520697320616C72656164792052756E6E696E670000000000 PUSH1 0x0 DUP3 ADD MSTORE POP JUMP JUMPDEST PUSH32 0x44726F707369746520697320616C72656164792053746F707065640000000000 PUSH1 0x0 DUP3 ADD MSTORE POP JUMP JUMPDEST PUSH32 0x4F6E79784E6674204F776E65722063616E204163636573730000000000000000 PUSH1 0x0 DUP3 ADD MSTORE POP JUMP JUMPDEST PUSH32 0x44726F7073697465206973206E6F74204F70656E6564205965742E0000000000 PUSH1 0x0 DUP3 ADD MSTORE POP JUMP JUMPDEST PUSH32 0x4D6178204D696E74696E67204C696D6974207265616368656400000000000000 PUSH1 0x0 DUP3 ADD MSTORE POP JUMP JUMPDEST PUSH32 0x455243313135353A206D696E7420746F20746865207A65726F20616464726573 PUSH1 0x0 DUP3 ADD MSTORE PUSH32 0x7300000000000000000000000000000000000000000000000000000000000000 PUSH1 0x20 DUP3 ADD MSTORE POP JUMP JUMPDEST PUSH1 0x0 PUSH1 0x44 RETURNDATASIZE LT ISZERO PUSH2 0x17A2 JUMPI PUSH2 0x1825 JUMP JUMPDEST PUSH2 0x17AA PUSH2 0x123F JUMP JUMPDEST PUSH1 0x4 RETURNDATASIZE SUB PUSH1 0x4 DUP3 RETURNDATACOPY DUP1 MLOAD RETURNDATASIZE PUSH1 0x24 DUP3 ADD GT PUSH8 0xFFFFFFFFFFFFFFFF DUP3 GT OR ISZERO PUSH2 0x17D2 JUMPI POP POP PUSH2 0x1825 JUMP JUMPDEST DUP1 DUP3 ADD DUP1 MLOAD PUSH8 0xFFFFFFFFFFFFFFFF DUP2 GT ISZERO PUSH2 0x17F0 JUMPI POP POP POP POP PUSH2 0x1825 JUMP JUMPDEST DUP1 PUSH1 0x20 DUP4 ADD ADD PUSH1 0x4 RETURNDATASIZE SUB DUP6 ADD DUP2 GT ISZERO PUSH2 0x180D JUMPI POP POP POP POP POP PUSH2 0x1825 JUMP JUMPDEST PUSH2 0x181C DUP3 PUSH1 0x20 ADD DUP6 ADD DUP7 PUSH2 0x13C2 JUMP JUMPDEST DUP3 SWAP6 POP POP POP POP POP POP JUMPDEST SWAP1 JUMP JUMPDEST PUSH2 0x1831 DUP2 PUSH2 0x12D7 JUMP JUMPDEST DUP2 EQ PUSH2 0x183C JUMPI PUSH1 0x0 DUP1 REVERT JUMPDEST POP JUMP JUMPDEST PUSH2 0x1848 DUP2 PUSH2 0x1307 JUMP JUMPDEST DUP2 EQ PUSH2 0x1853 JUMPI PUSH1 0x0 DUP1 REVERT JUMPDEST POP JUMP INVALID LOG2 PUSH5 0x6970667358 0x22 SLT KECCAK256 0xB9 SWAP11 PUSH31 0x42F300E0E82BD51F820672B2EF2036C449365E842671B04B704DE48A0C6473 PUSH16 0x6C634300080700330000000000000000 "
				},
				"gasEstimates": {
					"creation": {
						"codeDepositCost": "1256800",
						"executionCost": "infinite",
						"totalCost": "infinite"
					},
					"external": {
						"IsPaused()": "2449",
						"Owner()": "2652",
						"checkMintedCategoryWise()": "infinite",
						"openDropsite()": "28837",
						"randomMint(address)": "infinite",
						"stopDropsite()": "28903"
					},
					"internal": {
						"random()": "infinite"
					}
				},
				"methodIdentifiers": {
					"IsPaused()": "1309a563",
					"Owner()": "b4a99a4e",
					"checkMintedCategoryWise()": "60daa851",
					"openDropsite()": "15460259",
					"randomMint(address)": "97e96e86",
					"stopDropsite()": "aa90c726"
				}
			},
			"userdoc": {
				"kind": "user",
				"methods": {},
				"version": 1
			}
		}
	}
}