{
	"RandomTest.sol": {
		"RandomTest": {
			"abi": [
				{
					"inputs": [
						{
							"internalType": "uint256",
							"name": "x",
							"type": "uint256"
						},
						{
							"internalType": "uint256",
							"name": "y",
							"type": "uint256"
						},
						{
							"internalType": "uint256",
							"name": "z",
							"type": "uint256"
						},
						{
							"internalType": "uint256",
							"name": "px",
							"type": "uint256"
						},
						{
							"internalType": "uint256",
							"name": "py",
							"type": "uint256"
						}
					],
					"name": "randomTest",
					"outputs": [
						{
							"internalType": "uint256",
							"name": "",
							"type": "uint256"
						}
					],
					"stateMutability": "view",
					"type": "function"
				}
			],
			"devdoc": {
				"kind": "dev",
				"methods": {},
				"version": 1
			},
			"evm": {
				"assembly": "    /* \"RandomTest.sol\":54:922  contract RandomTest{... */\n  mstore(0x40, 0x80)\n  callvalue\n  dup1\n  iszero\n  tag_1\n  jumpi\n  0x00\n  dup1\n  revert\ntag_1:\n  pop\n  dataSize(sub_0)\n  dup1\n  dataOffset(sub_0)\n  0x00\n  codecopy\n  0x00\n  return\nstop\n\nsub_0: assembly {\n        /* \"RandomTest.sol\":54:922  contract RandomTest{... */\n      mstore(0x40, 0x80)\n      callvalue\n      dup1\n      iszero\n      tag_1\n      jumpi\n      0x00\n      dup1\n      revert\n    tag_1:\n      pop\n      jumpi(tag_2, lt(calldatasize, 0x04))\n      shr(0xe0, calldataload(0x00))\n      dup1\n      0x55c7b2a0\n      eq\n      tag_3\n      jumpi\n    tag_2:\n      0x00\n      dup1\n      revert\n        /* \"RandomTest.sol\":79:713  function randomTest(uint x, uint y, uint z, uint px, uint py) public view returns (uint)... */\n    tag_3:\n      tag_4\n      0x04\n      dup1\n      calldatasize\n      sub\n      dup2\n      add\n      swap1\n      tag_5\n      swap2\n      swap1\n      tag_6\n      jump\t// in\n    tag_5:\n      tag_7\n      jump\t// in\n    tag_4:\n      mload(0x40)\n      tag_8\n      swap2\n      swap1\n      tag_9\n      jump\t// in\n    tag_8:\n      mload(0x40)\n      dup1\n      swap2\n      sub\n      swap1\n      return\n    tag_7:\n        /* \"RandomTest.sol\":162:166  uint */\n      0x00\n        /* \"RandomTest.sol\":239:245  uint r */\n      dup1\n        /* \"RandomTest.sol\":248:256  random() */\n      tag_11\n        /* \"RandomTest.sol\":248:254  random */\n      tag_12\n        /* \"RandomTest.sol\":248:256  random() */\n      jump\t// in\n    tag_11:\n        /* \"RandomTest.sol\":239:256  uint r = random() */\n      swap1\n      pop\n        /* \"RandomTest.sol\":348:350  px */\n      dup4\n        /* \"RandomTest.sol\":343:344  r */\n      dup2\n        /* \"RandomTest.sol\":343:350  r <= px */\n      gt\n        /* \"RandomTest.sol\":339:376  if (r <= px)... */\n      tag_13\n      jumpi\n        /* \"RandomTest.sol\":375:376  x */\n      dup7\n        /* \"RandomTest.sol\":368:376  return x */\n      swap2\n      pop\n      pop\n      jump(tag_10)\n        /* \"RandomTest.sol\":339:376  if (r <= px)... */\n    tag_13:\n        /* \"RandomTest.sol\":518:520  py */\n      dup3\n        /* \"RandomTest.sol\":515:517  px */\n      dup5\n        /* \"RandomTest.sol\":515:520  px+py */\n      tag_14\n      swap2\n      swap1\n      tag_15\n      jump\t// in\n    tag_14:\n        /* \"RandomTest.sol\":509:510  r */\n      dup2\n        /* \"RandomTest.sol\":509:521  r <= (px+py) */\n      gt\n        /* \"RandomTest.sol\":505:706  if (r <= (px+py))... */\n      tag_16\n      jumpi\n        /* \"RandomTest.sol\":546:547  y */\n      dup6\n        /* \"RandomTest.sol\":539:547  return y */\n      swap2\n      pop\n      pop\n      jump(tag_10)\n        /* \"RandomTest.sol\":505:706  if (r <= (px+py))... */\n    tag_16:\n        /* \"RandomTest.sol\":705:706  z */\n      dup5\n        /* \"RandomTest.sol\":698:706  return z */\n      swap2\n      pop\n      pop\n        /* \"RandomTest.sol\":79:713  function randomTest(uint x, uint y, uint z, uint px, uint py) public view returns (uint)... */\n    tag_10:\n      swap6\n      swap5\n      pop\n      pop\n      pop\n      pop\n      pop\n      jump\t// out\n        /* \"RandomTest.sol\":719:919  function random() internal view returns (uint) {... */\n    tag_12:\n        /* \"RandomTest.sol\":760:764  uint */\n      0x00\n        /* \"RandomTest.sol\":801:818  uint randomnumber */\n      dup1\n        /* \"RandomTest.sol\":886:887  3 */\n      0x03\n        /* \"RandomTest.sol\":853:868  block.timestamp */\n      timestamp\n        /* \"RandomTest.sol\":870:880  msg.sender */\n      caller\n        /* \"RandomTest.sol\":836:881  abi.encodePacked(block.timestamp, msg.sender) */\n      add(0x20, mload(0x40))\n      tag_19\n      swap3\n      swap2\n      swap1\n      tag_20\n      jump\t// in\n    tag_19:\n      mload(0x40)\n      0x20\n      dup2\n      dup4\n      sub\n      sub\n      dup2\n      mstore\n      swap1\n      0x40\n      mstore\n        /* \"RandomTest.sol\":826:882  keccak256(abi.encodePacked(block.timestamp, msg.sender)) */\n      dup1\n      mload\n      swap1\n      0x20\n      add\n      keccak256\n        /* \"RandomTest.sol\":821:883  uint(keccak256(abi.encodePacked(block.timestamp, msg.sender))) */\n      0x00\n      shr\n        /* \"RandomTest.sol\":821:887  uint(keccak256(abi.encodePacked(block.timestamp, msg.sender))) % 3 */\n      tag_21\n      swap2\n      swap1\n      tag_22\n      jump\t// in\n    tag_21:\n        /* \"RandomTest.sol\":801:887  uint randomnumber = uint(keccak256(abi.encodePacked(block.timestamp, msg.sender))) % 3 */\n      swap1\n      pop\n        /* \"RandomTest.sol\":900:912  randomnumber */\n      dup1\n        /* \"RandomTest.sol\":893:912  return randomnumber */\n      swap2\n      pop\n      pop\n        /* \"RandomTest.sol\":719:919  function random() internal view returns (uint) {... */\n      swap1\n      jump\t// out\n        /* \"#utility.yul\":7:146   */\n    tag_24:\n        /* \"#utility.yul\":53:58   */\n      0x00\n        /* \"#utility.yul\":91:97   */\n      dup2\n        /* \"#utility.yul\":78:98   */\n      calldataload\n        /* \"#utility.yul\":69:98   */\n      swap1\n      pop\n        /* \"#utility.yul\":107:140   */\n      tag_26\n        /* \"#utility.yul\":134:139   */\n      dup2\n        /* \"#utility.yul\":107:140   */\n      tag_27\n      jump\t// in\n    tag_26:\n        /* \"#utility.yul\":7:146   */\n      swap3\n      swap2\n      pop\n      pop\n      jump\t// out\n        /* \"#utility.yul\":152:1063   */\n    tag_6:\n        /* \"#utility.yul\":247:253   */\n      0x00\n        /* \"#utility.yul\":255:261   */\n      dup1\n        /* \"#utility.yul\":263:269   */\n      0x00\n        /* \"#utility.yul\":271:277   */\n      dup1\n        /* \"#utility.yul\":279:285   */\n      0x00\n        /* \"#utility.yul\":328:331   */\n      0xa0\n        /* \"#utility.yul\":316:325   */\n      dup7\n        /* \"#utility.yul\":307:314   */\n      dup9\n        /* \"#utility.yul\":303:326   */\n      sub\n        /* \"#utility.yul\":299:332   */\n      slt\n        /* \"#utility.yul\":296:416   */\n      iszero\n      tag_29\n      jumpi\n        /* \"#utility.yul\":335:414   */\n      tag_30\n      tag_31\n      jump\t// in\n    tag_30:\n        /* \"#utility.yul\":296:416   */\n    tag_29:\n        /* \"#utility.yul\":455:456   */\n      0x00\n        /* \"#utility.yul\":480:533   */\n      tag_32\n        /* \"#utility.yul\":525:532   */\n      dup9\n        /* \"#utility.yul\":516:522   */\n      dup3\n        /* \"#utility.yul\":505:514   */\n      dup10\n        /* \"#utility.yul\":501:523   */\n      add\n        /* \"#utility.yul\":480:533   */\n      tag_24\n      jump\t// in\n    tag_32:\n        /* \"#utility.yul\":470:533   */\n      swap6\n      pop\n        /* \"#utility.yul\":426:543   */\n      pop\n        /* \"#utility.yul\":582:584   */\n      0x20\n        /* \"#utility.yul\":608:661   */\n      tag_33\n        /* \"#utility.yul\":653:660   */\n      dup9\n        /* \"#utility.yul\":644:650   */\n      dup3\n        /* \"#utility.yul\":633:642   */\n      dup10\n        /* \"#utility.yul\":629:651   */\n      add\n        /* \"#utility.yul\":608:661   */\n      tag_24\n      jump\t// in\n    tag_33:\n        /* \"#utility.yul\":598:661   */\n      swap5\n      pop\n        /* \"#utility.yul\":553:671   */\n      pop\n        /* \"#utility.yul\":710:712   */\n      0x40\n        /* \"#utility.yul\":736:789   */\n      tag_34\n        /* \"#utility.yul\":781:788   */\n      dup9\n        /* \"#utility.yul\":772:778   */\n      dup3\n        /* \"#utility.yul\":761:770   */\n      dup10\n        /* \"#utility.yul\":757:779   */\n      add\n        /* \"#utility.yul\":736:789   */\n      tag_24\n      jump\t// in\n    tag_34:\n        /* \"#utility.yul\":726:789   */\n      swap4\n      pop\n        /* \"#utility.yul\":681:799   */\n      pop\n        /* \"#utility.yul\":838:840   */\n      0x60\n        /* \"#utility.yul\":864:917   */\n      tag_35\n        /* \"#utility.yul\":909:916   */\n      dup9\n        /* \"#utility.yul\":900:906   */\n      dup3\n        /* \"#utility.yul\":889:898   */\n      dup10\n        /* \"#utility.yul\":885:907   */\n      add\n        /* \"#utility.yul\":864:917   */\n      tag_24\n      jump\t// in\n    tag_35:\n        /* \"#utility.yul\":854:917   */\n      swap3\n      pop\n        /* \"#utility.yul\":809:927   */\n      pop\n        /* \"#utility.yul\":966:969   */\n      0x80\n        /* \"#utility.yul\":993:1046   */\n      tag_36\n        /* \"#utility.yul\":1038:1045   */\n      dup9\n        /* \"#utility.yul\":1029:1035   */\n      dup3\n        /* \"#utility.yul\":1018:1027   */\n      dup10\n        /* \"#utility.yul\":1014:1036   */\n      add\n        /* \"#utility.yul\":993:1046   */\n      tag_24\n      jump\t// in\n    tag_36:\n        /* \"#utility.yul\":983:1046   */\n      swap2\n      pop\n        /* \"#utility.yul\":937:1056   */\n      pop\n        /* \"#utility.yul\":152:1063   */\n      swap3\n      swap6\n      pop\n      swap3\n      swap6\n      swap1\n      swap4\n      pop\n      jump\t// out\n        /* \"#utility.yul\":1069:1226   */\n    tag_37:\n        /* \"#utility.yul\":1174:1219   */\n      tag_39\n        /* \"#utility.yul\":1194:1218   */\n      tag_40\n        /* \"#utility.yul\":1212:1217   */\n      dup3\n        /* \"#utility.yul\":1194:1218   */\n      tag_41\n      jump\t// in\n    tag_40:\n        /* \"#utility.yul\":1174:1219   */\n      tag_42\n      jump\t// in\n    tag_39:\n        /* \"#utility.yul\":1169:1172   */\n      dup3\n        /* \"#utility.yul\":1162:1220   */\n      mstore\n        /* \"#utility.yul\":1069:1226   */\n      pop\n      pop\n      jump\t// out\n        /* \"#utility.yul\":1232:1350   */\n    tag_43:\n        /* \"#utility.yul\":1319:1343   */\n      tag_45\n        /* \"#utility.yul\":1337:1342   */\n      dup2\n        /* \"#utility.yul\":1319:1343   */\n      tag_46\n      jump\t// in\n    tag_45:\n        /* \"#utility.yul\":1314:1317   */\n      dup3\n        /* \"#utility.yul\":1307:1344   */\n      mstore\n        /* \"#utility.yul\":1232:1350   */\n      pop\n      pop\n      jump\t// out\n        /* \"#utility.yul\":1356:1513   */\n    tag_47:\n        /* \"#utility.yul\":1461:1506   */\n      tag_49\n        /* \"#utility.yul\":1481:1505   */\n      tag_50\n        /* \"#utility.yul\":1499:1504   */\n      dup3\n        /* \"#utility.yul\":1481:1505   */\n      tag_46\n      jump\t// in\n    tag_50:\n        /* \"#utility.yul\":1461:1506   */\n      tag_51\n      jump\t// in\n    tag_49:\n        /* \"#utility.yul\":1456:1459   */\n      dup3\n        /* \"#utility.yul\":1449:1507   */\n      mstore\n        /* \"#utility.yul\":1356:1513   */\n      pop\n      pop\n      jump\t// out\n        /* \"#utility.yul\":1519:1916   */\n    tag_20:\n        /* \"#utility.yul\":1659:1662   */\n      0x00\n        /* \"#utility.yul\":1674:1749   */\n      tag_53\n        /* \"#utility.yul\":1745:1748   */\n      dup3\n        /* \"#utility.yul\":1736:1742   */\n      dup6\n        /* \"#utility.yul\":1674:1749   */\n      tag_47\n      jump\t// in\n    tag_53:\n        /* \"#utility.yul\":1774:1776   */\n      0x20\n        /* \"#utility.yul\":1769:1772   */\n      dup3\n        /* \"#utility.yul\":1765:1777   */\n      add\n        /* \"#utility.yul\":1758:1777   */\n      swap2\n      pop\n        /* \"#utility.yul\":1787:1862   */\n      tag_54\n        /* \"#utility.yul\":1858:1861   */\n      dup3\n        /* \"#utility.yul\":1849:1855   */\n      dup5\n        /* \"#utility.yul\":1787:1862   */\n      tag_37\n      jump\t// in\n    tag_54:\n        /* \"#utility.yul\":1887:1889   */\n      0x14\n        /* \"#utility.yul\":1882:1885   */\n      dup3\n        /* \"#utility.yul\":1878:1890   */\n      add\n        /* \"#utility.yul\":1871:1890   */\n      swap2\n      pop\n        /* \"#utility.yul\":1907:1910   */\n      dup2\n        /* \"#utility.yul\":1900:1910   */\n      swap1\n      pop\n        /* \"#utility.yul\":1519:1916   */\n      swap4\n      swap3\n      pop\n      pop\n      pop\n      jump\t// out\n        /* \"#utility.yul\":1922:2144   */\n    tag_9:\n        /* \"#utility.yul\":2015:2019   */\n      0x00\n        /* \"#utility.yul\":2053:2055   */\n      0x20\n        /* \"#utility.yul\":2042:2051   */\n      dup3\n        /* \"#utility.yul\":2038:2056   */\n      add\n        /* \"#utility.yul\":2030:2056   */\n      swap1\n      pop\n        /* \"#utility.yul\":2066:2137   */\n      tag_56\n        /* \"#utility.yul\":2134:2135   */\n      0x00\n        /* \"#utility.yul\":2123:2132   */\n      dup4\n        /* \"#utility.yul\":2119:2136   */\n      add\n        /* \"#utility.yul\":2110:2116   */\n      dup5\n        /* \"#utility.yul\":2066:2137   */\n      tag_43\n      jump\t// in\n    tag_56:\n        /* \"#utility.yul\":1922:2144   */\n      swap3\n      swap2\n      pop\n      pop\n      jump\t// out\n        /* \"#utility.yul\":2231:2536   */\n    tag_15:\n        /* \"#utility.yul\":2271:2274   */\n      0x00\n        /* \"#utility.yul\":2290:2310   */\n      tag_60\n        /* \"#utility.yul\":2308:2309   */\n      dup3\n        /* \"#utility.yul\":2290:2310   */\n      tag_46\n      jump\t// in\n    tag_60:\n        /* \"#utility.yul\":2285:2310   */\n      swap2\n      pop\n        /* \"#utility.yul\":2324:2344   */\n      tag_61\n        /* \"#utility.yul\":2342:2343   */\n      dup4\n        /* \"#utility.yul\":2324:2344   */\n      tag_46\n      jump\t// in\n    tag_61:\n        /* \"#utility.yul\":2319:2344   */\n      swap3\n      pop\n        /* \"#utility.yul\":2478:2479   */\n      dup3\n        /* \"#utility.yul\":2410:2476   */\n      0xffffffffffffffffffffffffffffffffffffffffffffffffffffffffffffffff\n        /* \"#utility.yul\":2406:2480   */\n      sub\n        /* \"#utility.yul\":2403:2404   */\n      dup3\n        /* \"#utility.yul\":2400:2481   */\n      gt\n        /* \"#utility.yul\":2397:2504   */\n      iszero\n      tag_62\n      jumpi\n        /* \"#utility.yul\":2484:2502   */\n      tag_63\n      tag_64\n      jump\t// in\n    tag_63:\n        /* \"#utility.yul\":2397:2504   */\n    tag_62:\n        /* \"#utility.yul\":2528:2529   */\n      dup3\n        /* \"#utility.yul\":2525:2526   */\n      dup3\n        /* \"#utility.yul\":2521:2530   */\n      add\n        /* \"#utility.yul\":2514:2530   */\n      swap1\n      pop\n        /* \"#utility.yul\":2231:2536   */\n      swap3\n      swap2\n      pop\n      pop\n      jump\t// out\n        /* \"#utility.yul\":2542:2638   */\n    tag_41:\n        /* \"#utility.yul\":2579:2586   */\n      0x00\n        /* \"#utility.yul\":2608:2632   */\n      tag_66\n        /* \"#utility.yul\":2626:2631   */\n      dup3\n        /* \"#utility.yul\":2608:2632   */\n      tag_67\n      jump\t// in\n    tag_66:\n        /* \"#utility.yul\":2597:2632   */\n      swap1\n      pop\n        /* \"#utility.yul\":2542:2638   */\n      swap2\n      swap1\n      pop\n      jump\t// out\n        /* \"#utility.yul\":2644:2770   */\n    tag_67:\n        /* \"#utility.yul\":2681:2688   */\n      0x00\n        /* \"#utility.yul\":2721:2763   */\n      0xffffffffffffffffffffffffffffffffffffffff\n        /* \"#utility.yul\":2714:2719   */\n      dup3\n        /* \"#utility.yul\":2710:2764   */\n      and\n        /* \"#utility.yul\":2699:2764   */\n      swap1\n      pop\n        /* \"#utility.yul\":2644:2770   */\n      swap2\n      swap1\n      pop\n      jump\t// out\n        /* \"#utility.yul\":2776:2853   */\n    tag_46:\n        /* \"#utility.yul\":2813:2820   */\n      0x00\n        /* \"#utility.yul\":2842:2847   */\n      dup2\n        /* \"#utility.yul\":2831:2847   */\n      swap1\n      pop\n        /* \"#utility.yul\":2776:2853   */\n      swap2\n      swap1\n      pop\n      jump\t// out\n        /* \"#utility.yul\":2859:2959   */\n    tag_42:\n        /* \"#utility.yul\":2898:2905   */\n      0x00\n        /* \"#utility.yul\":2927:2953   */\n      tag_71\n        /* \"#utility.yul\":2947:2952   */\n      dup3\n        /* \"#utility.yul\":2927:2953   */\n      tag_72\n      jump\t// in\n    tag_71:\n        /* \"#utility.yul\":2916:2953   */\n      swap1\n      pop\n        /* \"#utility.yul\":2859:2959   */\n      swap2\n      swap1\n      pop\n      jump\t// out\n        /* \"#utility.yul\":2965:3059   */\n    tag_72:\n        /* \"#utility.yul\":3004:3011   */\n      0x00\n        /* \"#utility.yul\":3033:3053   */\n      tag_74\n        /* \"#utility.yul\":3047:3052   */\n      dup3\n        /* \"#utility.yul\":3033:3053   */\n      tag_75\n      jump\t// in\n    tag_74:\n        /* \"#utility.yul\":3022:3053   */\n      swap1\n      pop\n        /* \"#utility.yul\":2965:3059   */\n      swap2\n      swap1\n      pop\n      jump\t// out\n        /* \"#utility.yul\":3065:3144   */\n    tag_51:\n        /* \"#utility.yul\":3104:3111   */\n      0x00\n        /* \"#utility.yul\":3133:3138   */\n      dup2\n        /* \"#utility.yul\":3122:3138   */\n      swap1\n      pop\n        /* \"#utility.yul\":3065:3144   */\n      swap2\n      swap1\n      pop\n      jump\t// out\n        /* \"#utility.yul\":3150:3326   */\n    tag_22:\n        /* \"#utility.yul\":3182:3183   */\n      0x00\n        /* \"#utility.yul\":3199:3219   */\n      tag_78\n        /* \"#utility.yul\":3217:3218   */\n      dup3\n        /* \"#utility.yul\":3199:3219   */\n      tag_46\n      jump\t// in\n    tag_78:\n        /* \"#utility.yul\":3194:3219   */\n      swap2\n      pop\n        /* \"#utility.yul\":3233:3253   */\n      tag_79\n        /* \"#utility.yul\":3251:3252   */\n      dup4\n        /* \"#utility.yul\":3233:3253   */\n      tag_46\n      jump\t// in\n    tag_79:\n        /* \"#utility.yul\":3228:3253   */\n      swap3\n      pop\n        /* \"#utility.yul\":3272:3273   */\n      dup3\n        /* \"#utility.yul\":3262:3297   */\n      tag_80\n      jumpi\n        /* \"#utility.yul\":3277:3295   */\n      tag_81\n      tag_82\n      jump\t// in\n    tag_81:\n        /* \"#utility.yul\":3262:3297   */\n    tag_80:\n        /* \"#utility.yul\":3318:3319   */\n      dup3\n        /* \"#utility.yul\":3315:3316   */\n      dup3\n        /* \"#utility.yul\":3311:3320   */\n      mod\n        /* \"#utility.yul\":3306:3320   */\n      swap1\n      pop\n        /* \"#utility.yul\":3150:3326   */\n      swap3\n      swap2\n      pop\n      pop\n      jump\t// out\n        /* \"#utility.yul\":3332:3512   */\n    tag_64:\n        /* \"#utility.yul\":3380:3457   */\n      0x4e487b7100000000000000000000000000000000000000000000000000000000\n        /* \"#utility.yul\":3377:3378   */\n      0x00\n        /* \"#utility.yul\":3370:3458   */\n      mstore\n        /* \"#utility.yul\":3477:3481   */\n      0x11\n        /* \"#utility.yul\":3474:3475   */\n      0x04\n        /* \"#utility.yul\":3467:3482   */\n      mstore\n        /* \"#utility.yul\":3501:3505   */\n      0x24\n        /* \"#utility.yul\":3498:3499   */\n      0x00\n        /* \"#utility.yul\":3491:3506   */\n      revert\n        /* \"#utility.yul\":3518:3698   */\n    tag_82:\n        /* \"#utility.yul\":3566:3643   */\n      0x4e487b7100000000000000000000000000000000000000000000000000000000\n        /* \"#utility.yul\":3563:3564   */\n      0x00\n        /* \"#utility.yul\":3556:3644   */\n      mstore\n        /* \"#utility.yul\":3663:3667   */\n      0x12\n        /* \"#utility.yul\":3660:3661   */\n      0x04\n        /* \"#utility.yul\":3653:3668   */\n      mstore\n        /* \"#utility.yul\":3687:3691   */\n      0x24\n        /* \"#utility.yul\":3684:3685   */\n      0x00\n        /* \"#utility.yul\":3677:3692   */\n      revert\n        /* \"#utility.yul\":3827:3944   */\n    tag_31:\n        /* \"#utility.yul\":3936:3937   */\n      0x00\n        /* \"#utility.yul\":3933:3934   */\n      dup1\n        /* \"#utility.yul\":3926:3938   */\n      revert\n        /* \"#utility.yul\":3950:4044   */\n    tag_75:\n        /* \"#utility.yul\":3983:3991   */\n      0x00\n        /* \"#utility.yul\":4031:4036   */\n      dup2\n        /* \"#utility.yul\":4027:4029   */\n      0x60\n        /* \"#utility.yul\":4023:4037   */\n      shl\n        /* \"#utility.yul\":4002:4037   */\n      swap1\n      pop\n        /* \"#utility.yul\":3950:4044   */\n      swap2\n      swap1\n      pop\n      jump\t// out\n        /* \"#utility.yul\":4050:4172   */\n    tag_27:\n        /* \"#utility.yul\":4123:4147   */\n      tag_90\n        /* \"#utility.yul\":4141:4146   */\n      dup2\n        /* \"#utility.yul\":4123:4147   */\n      tag_46\n      jump\t// in\n    tag_90:\n        /* \"#utility.yul\":4116:4121   */\n      dup2\n        /* \"#utility.yul\":4113:4148   */\n      eq\n        /* \"#utility.yul\":4103:4166   */\n      tag_91\n      jumpi\n        /* \"#utility.yul\":4162:4163   */\n      0x00\n        /* \"#utility.yul\":4159:4160   */\n      dup1\n        /* \"#utility.yul\":4152:4164   */\n      revert\n        /* \"#utility.yul\":4103:4166   */\n    tag_91:\n        /* \"#utility.yul\":4050:4172   */\n      pop\n      jump\t// out\n\n    auxdata: 0xa2646970667358221220c5edfaba890036e14eb28488f81a7c210c4fa003f1954095217ed2e5768492e664736f6c63430008070033\n}\n",
				"bytecode": {
					"linkReferences": {},
					"object": "608060405234801561001057600080fd5b506103ac806100206000396000f3fe608060405234801561001057600080fd5b506004361061002b5760003560e01c806355c7b2a014610030575b600080fd5b61004a600480360381019061004591906100ff565b610060565b60405161005791906101e3565b60405180910390f35b60008061006b6100a6565b905083811161007d578691505061009d565b828461008991906101fe565b8111610098578591505061009d565b849150505b95945050505050565b600080600342336040516020016100be9291906101b7565b6040516020818303038152906040528051906020012060001c6100e191906102be565b90508091505090565b6000813590506100f98161035f565b92915050565b600080600080600060a0868803121561011b5761011a61034d565b5b6000610129888289016100ea565b955050602061013a888289016100ea565b945050604061014b888289016100ea565b935050606061015c888289016100ea565b925050608061016d888289016100ea565b9150509295509295909350565b61018b61018682610254565b610290565b82525050565b61019a81610286565b82525050565b6101b16101ac82610286565b6102b4565b82525050565b60006101c382856101a0565b6020820191506101d3828461017a565b6014820191508190509392505050565b60006020820190506101f86000830184610191565b92915050565b600061020982610286565b915061021483610286565b9250827fffffffffffffffffffffffffffffffffffffffffffffffffffffffffffffffff03821115610249576102486102ef565b5b828201905092915050565b600061025f82610266565b9050919050565b600073ffffffffffffffffffffffffffffffffffffffff82169050919050565b6000819050919050565b600061029b826102a2565b9050919050565b60006102ad82610352565b9050919050565b6000819050919050565b60006102c982610286565b91506102d483610286565b9250826102e4576102e361031e565b5b828206905092915050565b7f4e487b7100000000000000000000000000000000000000000000000000000000600052601160045260246000fd5b7f4e487b7100000000000000000000000000000000000000000000000000000000600052601260045260246000fd5b600080fd5b60008160601b9050919050565b61036881610286565b811461037357600080fd5b5056fea2646970667358221220c5edfaba890036e14eb28488f81a7c210c4fa003f1954095217ed2e5768492e664736f6c63430008070033",
					"opcodes": "PUSH1 0x80 PUSH1 0x40 MSTORE CALLVALUE DUP1 ISZERO PUSH2 0x10 JUMPI PUSH1 0x0 DUP1 REVERT JUMPDEST POP PUSH2 0x3AC DUP1 PUSH2 0x20 PUSH1 0x0 CODECOPY PUSH1 0x0 RETURN INVALID PUSH1 0x80 PUSH1 0x40 MSTORE CALLVALUE DUP1 ISZERO PUSH2 0x10 JUMPI PUSH1 0x0 DUP1 REVERT JUMPDEST POP PUSH1 0x4 CALLDATASIZE LT PUSH2 0x2B JUMPI PUSH1 0x0 CALLDATALOAD PUSH1 0xE0 SHR DUP1 PUSH4 0x55C7B2A0 EQ PUSH2 0x30 JUMPI JUMPDEST PUSH1 0x0 DUP1 REVERT JUMPDEST PUSH2 0x4A PUSH1 0x4 DUP1 CALLDATASIZE SUB DUP2 ADD SWAP1 PUSH2 0x45 SWAP2 SWAP1 PUSH2 0xFF JUMP JUMPDEST PUSH2 0x60 JUMP JUMPDEST PUSH1 0x40 MLOAD PUSH2 0x57 SWAP2 SWAP1 PUSH2 0x1E3 JUMP JUMPDEST PUSH1 0x40 MLOAD DUP1 SWAP2 SUB SWAP1 RETURN JUMPDEST PUSH1 0x0 DUP1 PUSH2 0x6B PUSH2 0xA6 JUMP JUMPDEST SWAP1 POP DUP4 DUP2 GT PUSH2 0x7D JUMPI DUP7 SWAP2 POP POP PUSH2 0x9D JUMP JUMPDEST DUP3 DUP5 PUSH2 0x89 SWAP2 SWAP1 PUSH2 0x1FE JUMP JUMPDEST DUP2 GT PUSH2 0x98 JUMPI DUP6 SWAP2 POP POP PUSH2 0x9D JUMP JUMPDEST DUP5 SWAP2 POP POP JUMPDEST SWAP6 SWAP5 POP POP POP POP POP JUMP JUMPDEST PUSH1 0x0 DUP1 PUSH1 0x3 TIMESTAMP CALLER PUSH1 0x40 MLOAD PUSH1 0x20 ADD PUSH2 0xBE SWAP3 SWAP2 SWAP1 PUSH2 0x1B7 JUMP JUMPDEST PUSH1 0x40 MLOAD PUSH1 0x20 DUP2 DUP4 SUB SUB DUP2 MSTORE SWAP1 PUSH1 0x40 MSTORE DUP1 MLOAD SWAP1 PUSH1 0x20 ADD KECCAK256 PUSH1 0x0 SHR PUSH2 0xE1 SWAP2 SWAP1 PUSH2 0x2BE JUMP JUMPDEST SWAP1 POP DUP1 SWAP2 POP POP SWAP1 JUMP JUMPDEST PUSH1 0x0 DUP2 CALLDATALOAD SWAP1 POP PUSH2 0xF9 DUP2 PUSH2 0x35F JUMP JUMPDEST SWAP3 SWAP2 POP POP JUMP JUMPDEST PUSH1 0x0 DUP1 PUSH1 0x0 DUP1 PUSH1 0x0 PUSH1 0xA0 DUP7 DUP9 SUB SLT ISZERO PUSH2 0x11B JUMPI PUSH2 0x11A PUSH2 0x34D JUMP JUMPDEST JUMPDEST PUSH1 0x0 PUSH2 0x129 DUP9 DUP3 DUP10 ADD PUSH2 0xEA JUMP JUMPDEST SWAP6 POP POP PUSH1 0x20 PUSH2 0x13A DUP9 DUP3 DUP10 ADD PUSH2 0xEA JUMP JUMPDEST SWAP5 POP POP PUSH1 0x40 PUSH2 0x14B DUP9 DUP3 DUP10 ADD PUSH2 0xEA JUMP JUMPDEST SWAP4 POP POP PUSH1 0x60 PUSH2 0x15C DUP9 DUP3 DUP10 ADD PUSH2 0xEA JUMP JUMPDEST SWAP3 POP POP PUSH1 0x80 PUSH2 0x16D DUP9 DUP3 DUP10 ADD PUSH2 0xEA JUMP JUMPDEST SWAP2 POP POP SWAP3 SWAP6 POP SWAP3 SWAP6 SWAP1 SWAP4 POP JUMP JUMPDEST PUSH2 0x18B PUSH2 0x186 DUP3 PUSH2 0x254 JUMP JUMPDEST PUSH2 0x290 JUMP JUMPDEST DUP3 MSTORE POP POP JUMP JUMPDEST PUSH2 0x19A DUP2 PUSH2 0x286 JUMP JUMPDEST DUP3 MSTORE POP POP JUMP JUMPDEST PUSH2 0x1B1 PUSH2 0x1AC DUP3 PUSH2 0x286 JUMP JUMPDEST PUSH2 0x2B4 JUMP JUMPDEST DUP3 MSTORE POP POP JUMP JUMPDEST PUSH1 0x0 PUSH2 0x1C3 DUP3 DUP6 PUSH2 0x1A0 JUMP JUMPDEST PUSH1 0x20 DUP3 ADD SWAP2 POP PUSH2 0x1D3 DUP3 DUP5 PUSH2 0x17A JUMP JUMPDEST PUSH1 0x14 DUP3 ADD SWAP2 POP DUP2 SWAP1 POP SWAP4 SWAP3 POP POP POP JUMP JUMPDEST PUSH1 0x0 PUSH1 0x20 DUP3 ADD SWAP1 POP PUSH2 0x1F8 PUSH1 0x0 DUP4 ADD DUP5 PUSH2 0x191 JUMP JUMPDEST SWAP3 SWAP2 POP POP JUMP JUMPDEST PUSH1 0x0 PUSH2 0x209 DUP3 PUSH2 0x286 JUMP JUMPDEST SWAP2 POP PUSH2 0x214 DUP4 PUSH2 0x286 JUMP JUMPDEST SWAP3 POP DUP3 PUSH32 0xFFFFFFFFFFFFFFFFFFFFFFFFFFFFFFFFFFFFFFFFFFFFFFFFFFFFFFFFFFFFFFFF SUB DUP3 GT ISZERO PUSH2 0x249 JUMPI PUSH2 0x248 PUSH2 0x2EF JUMP JUMPDEST JUMPDEST DUP3 DUP3 ADD SWAP1 POP SWAP3 SWAP2 POP POP JUMP JUMPDEST PUSH1 0x0 PUSH2 0x25F DUP3 PUSH2 0x266 JUMP JUMPDEST SWAP1 POP SWAP2 SWAP1 POP JUMP JUMPDEST PUSH1 0x0 PUSH20 0xFFFFFFFFFFFFFFFFFFFFFFFFFFFFFFFFFFFFFFFF DUP3 AND SWAP1 POP SWAP2 SWAP1 POP JUMP JUMPDEST PUSH1 0x0 DUP2 SWAP1 POP SWAP2 SWAP1 POP JUMP JUMPDEST PUSH1 0x0 PUSH2 0x29B DUP3 PUSH2 0x2A2 JUMP JUMPDEST SWAP1 POP SWAP2 SWAP1 POP JUMP JUMPDEST PUSH1 0x0 PUSH2 0x2AD DUP3 PUSH2 0x352 JUMP JUMPDEST SWAP1 POP SWAP2 SWAP1 POP JUMP JUMPDEST PUSH1 0x0 DUP2 SWAP1 POP SWAP2 SWAP1 POP JUMP JUMPDEST PUSH1 0x0 PUSH2 0x2C9 DUP3 PUSH2 0x286 JUMP JUMPDEST SWAP2 POP PUSH2 0x2D4 DUP4 PUSH2 0x286 JUMP JUMPDEST SWAP3 POP DUP3 PUSH2 0x2E4 JUMPI PUSH2 0x2E3 PUSH2 0x31E JUMP JUMPDEST JUMPDEST DUP3 DUP3 MOD SWAP1 POP SWAP3 SWAP2 POP POP JUMP JUMPDEST PUSH32 0x4E487B7100000000000000000000000000000000000000000000000000000000 PUSH1 0x0 MSTORE PUSH1 0x11 PUSH1 0x4 MSTORE PUSH1 0x24 PUSH1 0x0 REVERT JUMPDEST PUSH32 0x4E487B7100000000000000000000000000000000000000000000000000000000 PUSH1 0x0 MSTORE PUSH1 0x12 PUSH1 0x4 MSTORE PUSH1 0x24 PUSH1 0x0 REVERT JUMPDEST PUSH1 0x0 DUP1 REVERT JUMPDEST PUSH1 0x0 DUP2 PUSH1 0x60 SHL SWAP1 POP SWAP2 SWAP1 POP JUMP JUMPDEST PUSH2 0x368 DUP2 PUSH2 0x286 JUMP JUMPDEST DUP2 EQ PUSH2 0x373 JUMPI PUSH1 0x0 DUP1 REVERT JUMPDEST POP JUMP INVALID LOG2 PUSH5 0x6970667358 0x22 SLT KECCAK256 0xC5 0xED STATICCALL 0xBA DUP10 STOP CALLDATASIZE 0xE1 0x4E 0xB2 DUP5 DUP9 0xF8 BYTE PUSH29 0x210C4FA003F1954095217ED2E5768492E664736F6C6343000807003300 "
				},
				"gasEstimates": {
					"creation": {
						"codeDepositCost": "188000",
						"executionCost": "232",
						"totalCost": "188232"
					},
					"external": {
						"randomTest(uint256,uint256,uint256,uint256,uint256)": "infinite"
					},
					"internal": {
						"random()": "infinite"
					}
				},
				"methodIdentifiers": {
					"randomTest(uint256,uint256,uint256,uint256,uint256)": "55c7b2a0"
				}
			},
			"userdoc": {
				"kind": "user",
				"methods": {},
				"version": 1
			}
		}
	}
}