{
	"NFTES_Drop_flat.sol": {
		"NFTES_Drop": {
			"abi": [
				{
					"inputs": [
						{
							"internalType": "string",
							"name": "name",
							"type": "string"
						}
					],
					"stateMutability": "nonpayable",
					"type": "constructor"
				},
				{
					"anonymous": false,
					"inputs": [
						{
							"indexed": true,
							"internalType": "address",
							"name": "operator",
							"type": "address"
						},
						{
							"indexed": true,
							"internalType": "address",
							"name": "from",
							"type": "address"
						},
						{
							"indexed": true,
							"internalType": "address",
							"name": "to",
							"type": "address"
						},
						{
							"indexed": false,
							"internalType": "uint256",
							"name": "id",
							"type": "uint256"
						},
						{
							"indexed": false,
							"internalType": "uint256",
							"name": "value",
							"type": "uint256"
						}
					],
					"name": "TransferSingle",
					"type": "event"
				},
				{
					"inputs": [],
					"name": "Owner",
					"outputs": [
						{
							"internalType": "address payable",
							"name": "",
							"type": "address"
						}
					],
					"stateMutability": "view",
					"type": "function"
				},
				{
					"inputs": [
						{
							"internalType": "address",
							"name": "newOwnerAddr",
							"type": "address"
						}
					],
					"name": "changeOwner",
					"outputs": [],
					"stateMutability": "nonpayable",
					"type": "function"
				},
				{
					"inputs": [],
					"name": "checkMintedCategoryWise",
					"outputs": [
						{
							"internalType": "uint256",
							"name": "",
							"type": "uint256"
						},
						{
							"internalType": "uint256",
							"name": "",
							"type": "uint256"
						},
						{
							"internalType": "uint256",
							"name": "",
							"type": "uint256"
						}
					],
					"stateMutability": "view",
					"type": "function"
				},
				{
					"inputs": [],
					"name": "checkTotalMinted",
					"outputs": [
						{
							"internalType": "uint256",
							"name": "",
							"type": "uint256"
						}
					],
					"stateMutability": "view",
					"type": "function"
				},
				{
					"inputs": [],
					"name": "contractBalance",
					"outputs": [
						{
							"internalType": "uint256",
							"name": "",
							"type": "uint256"
						}
					],
					"stateMutability": "view",
					"type": "function"
				},
				{
					"inputs": [
						{
							"internalType": "address",
							"name": "user_addr",
							"type": "address"
						},
						{
							"internalType": "uint256",
							"name": "noOfMints",
							"type": "uint256"
						}
					],
					"name": "cryptoRandomMint",
					"outputs": [
						{
							"internalType": "uint256[]",
							"name": "",
							"type": "uint256[]"
						}
					],
					"stateMutability": "payable",
					"type": "function"
				},
				{
					"inputs": [
						{
							"internalType": "address",
							"name": "user_addr",
							"type": "address"
						},
						{
							"internalType": "uint256",
							"name": "noOfMints",
							"type": "uint256"
						}
					],
					"name": "fiatRandomMint",
					"outputs": [
						{
							"internalType": "bytes32[]",
							"name": "",
							"type": "bytes32[]"
						}
					],
					"stateMutability": "nonpayable",
					"type": "function"
				},
				{
					"inputs": [],
					"name": "getMintFee",
					"outputs": [
						{
							"internalType": "uint256",
							"name": "",
							"type": "uint256"
						}
					],
					"stateMutability": "view",
					"type": "function"
				},
				{
					"inputs": [],
					"name": "isAdmin",
					"outputs": [
						{
							"internalType": "bool",
							"name": "",
							"type": "bool"
						}
					],
					"stateMutability": "view",
					"type": "function"
				},
				{
					"inputs": [],
					"name": "isPaused",
					"outputs": [
						{
							"internalType": "bool",
							"name": "",
							"type": "bool"
						}
					],
					"stateMutability": "view",
					"type": "function"
				},
				{
					"inputs": [],
					"name": "openDropsite",
					"outputs": [],
					"stateMutability": "nonpayable",
					"type": "function"
				},
				{
					"inputs": [
						{
							"internalType": "address",
							"name": "addr",
							"type": "address"
						}
					],
					"name": "returnNftsOwner",
					"outputs": [
						{
							"internalType": "uint256[]",
							"name": "",
							"type": "uint256[]"
						}
					],
					"stateMutability": "view",
					"type": "function"
				},
				{
					"inputs": [
						{
							"internalType": "uint256",
							"name": "_mintFee",
							"type": "uint256"
						}
					],
					"name": "setMintFee",
					"outputs": [],
					"stateMutability": "nonpayable",
					"type": "function"
				},
				{
					"inputs": [],
					"name": "stopDropsite",
					"outputs": [],
					"stateMutability": "nonpayable",
					"type": "function"
				},
				{
					"inputs": [
						{
							"internalType": "address payable",
							"name": "to",
							"type": "address"
						},
						{
							"internalType": "uint256",
							"name": "amount",
							"type": "uint256"
						}
					],
					"name": "withDraw",
					"outputs": [],
					"stateMutability": "nonpayable",
					"type": "function"
				}
			],
			"devdoc": {
				"kind": "dev",
				"methods": {},
				"version": 1
			},
			"evm": {
				"assembly": "    /* \"NFTES_Drop_flat.sol\":15472:23801  contract NFTES_Drop is ERC1155_Drop {... */\n  mstore(0x40, 0x80)\n    /* \"NFTES_Drop_flat.sol\":15562:15578  string data = \"\" */\n  mload(0x40)\n  dup1\n  0x20\n  add\n  0x40\n  mstore\n  dup1\n  0x00\n  dup2\n  mstore\n  pop\n  0x02\n  swap1\n  dup1\n  mload\n  swap1\n  0x20\n  add\n  swap1\n  tag_1\n  swap3\n  swap2\n  swap1\n  tag_2\n  jump\t// in\ntag_1:\n  pop\n    /* \"NFTES_Drop_flat.sol\":15830:15832  50 */\n  0x32\n    /* \"NFTES_Drop_flat.sol\":15806:15832  uint256 maxDiamondCount=50 */\n  0x09\n  sstore\n    /* \"NFTES_Drop_flat.sol\":15859:15862  100 */\n  0x64\n    /* \"NFTES_Drop_flat.sol\":15838:15862  uint256 maxGoldCount=100 */\n  0x0a\n  sstore\n    /* \"NFTES_Drop_flat.sol\":15891:15894  850 */\n  0x0352\n    /* \"NFTES_Drop_flat.sol\":15868:15894  uint256 maxSilverCount=850 */\n  0x0b\n  sstore\n    /* \"NFTES_Drop_flat.sol\":16570:16574  true */\n  0x01\n    /* \"NFTES_Drop_flat.sol\":16547:16574  bool public isPaused = true */\n  0x0e\n  exp(0x0100, 0x00)\n  dup2\n  sload\n  dup2\n  0xff\n  mul\n  not\n  and\n  swap1\n  dup4\n  iszero\n  iszero\n  mul\n  or\n  swap1\n  sstore\n  pop\n    /* \"NFTES_Drop_flat.sol\":16641:16959  constructor(string memory name) {... */\n  callvalue\n  dup1\n  iszero\n  tag_3\n  jumpi\n  0x00\n  dup1\n  revert\ntag_3:\n  pop\n  mload(0x40)\n  sub(codesize, bytecodeSize)\n  dup1\n  bytecodeSize\n  dup4\n  codecopy\n  dup2\n  dup2\n  add\n  0x40\n  mstore\n  dup2\n  add\n  swap1\n  tag_4\n  swap2\n  swap1\n  tag_5\n  jump\t// in\ntag_4:\n    /* \"NFTES_Drop_flat.sol\":16691:16695  name */\n  dup1\n    /* \"NFTES_Drop_flat.sol\":16683:16688  _name */\n  0x0f\n    /* \"NFTES_Drop_flat.sol\":16683:16695  _name = name */\n  swap1\n  dup1\n  mload\n  swap1\n  0x20\n  add\n  swap1\n  tag_8\n  swap3\n  swap2\n  swap1\n  tag_2\n  jump\t// in\ntag_8:\n  pop\n    /* \"NFTES_Drop_flat.sol\":16721:16731  msg.sender */\n  caller\n    /* \"NFTES_Drop_flat.sol\":16705:16710  Owner */\n  0x0e\n  0x01\n    /* \"NFTES_Drop_flat.sol\":16705:16732  Owner = payable(msg.sender) */\n  0x0100\n  exp\n  dup2\n  sload\n  dup2\n  0xffffffffffffffffffffffffffffffffffffffff\n  mul\n  not\n  and\n  swap1\n  dup4\n  0xffffffffffffffffffffffffffffffffffffffff\n  and\n  mul\n  or\n  swap1\n  sstore\n  pop\n    /* \"NFTES_Drop_flat.sol\":16761:16762  0 */\n  0x00\n    /* \"NFTES_Drop_flat.sol\":16743:16758  totalNFTsMinted */\n  0x03\n    /* \"NFTES_Drop_flat.sol\":16743:16762  totalNFTsMinted = 0 */\n  dup2\n  swap1\n  sstore\n  pop\n    /* \"NFTES_Drop_flat.sol\":16806:16807  1 */\n  0x01\n    /* \"NFTES_Drop_flat.sol\":16792:16803  numOfCopies */\n  0x04\n    /* \"NFTES_Drop_flat.sol\":16792:16807  numOfCopies = 1 */\n  dup2\n  swap1\n  sstore\n  pop\n    /* \"NFTES_Drop_flat.sol\":16913:16914  0 */\n  0x00\n    /* \"NFTES_Drop_flat.sol\":16903:16910  Diamond */\n  0x06\n    /* \"NFTES_Drop_flat.sol\":16903:16914  Diamond = 0 */\n  dup2\n  swap1\n  sstore\n  pop\n    /* \"NFTES_Drop_flat.sol\":16931:16932  0 */\n  0x00\n    /* \"NFTES_Drop_flat.sol\":16924:16928  Gold */\n  0x07\n    /* \"NFTES_Drop_flat.sol\":16924:16932  Gold = 0 */\n  dup2\n  swap1\n  sstore\n  pop\n    /* \"NFTES_Drop_flat.sol\":16951:16952  0 */\n  0x00\n    /* \"NFTES_Drop_flat.sol\":16942:16948  Silver */\n  0x08\n    /* \"NFTES_Drop_flat.sol\":16942:16952  Silver = 0 */\n  dup2\n  swap1\n  sstore\n  pop\n    /* \"NFTES_Drop_flat.sol\":16641:16959  constructor(string memory name) {... */\n  pop\n    /* \"NFTES_Drop_flat.sol\":15472:23801  contract NFTES_Drop is ERC1155_Drop {... */\n  jump(tag_9)\ntag_2:\n  dup3\n  dup1\n  sload\n  tag_10\n  swap1\n  tag_11\n  jump\t// in\ntag_10:\n  swap1\n  0x00\n  mstore\n  keccak256(0x00, 0x20)\n  swap1\n  0x1f\n  add\n  0x20\n  swap1\n  div\n  dup2\n  add\n  swap3\n  dup3\n  tag_13\n  jumpi\n  0x00\n  dup6\n  sstore\n  jump(tag_12)\ntag_13:\n  dup3\n  0x1f\n  lt\n  tag_14\n  jumpi\n  dup1\n  mload\n  not(0xff)\n  and\n  dup4\n  dup1\n  add\n  or\n  dup6\n  sstore\n  jump(tag_12)\ntag_14:\n  dup3\n  dup1\n  add\n  0x01\n  add\n  dup6\n  sstore\n  dup3\n  iszero\n  tag_12\n  jumpi\n  swap2\n  dup3\n  add\ntag_15:\n  dup3\n  dup2\n  gt\n  iszero\n  tag_16\n  jumpi\n  dup3\n  mload\n  dup3\n  sstore\n  swap2\n  0x20\n  add\n  swap2\n  swap1\n  0x01\n  add\n  swap1\n  jump(tag_15)\ntag_16:\ntag_12:\n  pop\n  swap1\n  pop\n  tag_17\n  swap2\n  swap1\n  tag_18\n  jump\t// in\ntag_17:\n  pop\n  swap1\n  jump\t// out\ntag_18:\ntag_19:\n  dup1\n  dup3\n  gt\n  iszero\n  tag_20\n  jumpi\n  0x00\n  dup2\n  0x00\n  swap1\n  sstore\n  pop\n  0x01\n  add\n  jump(tag_19)\ntag_20:\n  pop\n  swap1\n  jump\t// out\n    /* \"#utility.yul\":7:428   */\ntag_22:\n    /* \"#utility.yul\":96:101   */\n  0x00\n    /* \"#utility.yul\":121:187   */\n  tag_24\n    /* \"#utility.yul\":137:186   */\n  tag_25\n    /* \"#utility.yul\":179:185   */\n  dup5\n    /* \"#utility.yul\":137:186   */\n  tag_26\n  jump\t// in\ntag_25:\n    /* \"#utility.yul\":121:187   */\n  tag_27\n  jump\t// in\ntag_24:\n    /* \"#utility.yul\":112:187   */\n  swap1\n  pop\n    /* \"#utility.yul\":210:216   */\n  dup3\n    /* \"#utility.yul\":203:208   */\n  dup2\n    /* \"#utility.yul\":196:217   */\n  mstore\n    /* \"#utility.yul\":248:252   */\n  0x20\n    /* \"#utility.yul\":241:246   */\n  dup2\n    /* \"#utility.yul\":237:253   */\n  add\n    /* \"#utility.yul\":286:289   */\n  dup5\n    /* \"#utility.yul\":277:283   */\n  dup5\n    /* \"#utility.yul\":272:275   */\n  dup5\n    /* \"#utility.yul\":268:284   */\n  add\n    /* \"#utility.yul\":265:290   */\n  gt\n    /* \"#utility.yul\":262:374   */\n  iszero\n  tag_28\n  jumpi\n    /* \"#utility.yul\":293:372   */\n  tag_29\n  tag_30\n  jump\t// in\ntag_29:\n    /* \"#utility.yul\":262:374   */\ntag_28:\n    /* \"#utility.yul\":383:422   */\n  tag_31\n    /* \"#utility.yul\":415:421   */\n  dup5\n    /* \"#utility.yul\":410:413   */\n  dup3\n    /* \"#utility.yul\":405:408   */\n  dup6\n    /* \"#utility.yul\":383:422   */\n  tag_32\n  jump\t// in\ntag_31:\n    /* \"#utility.yul\":102:428   */\n  pop\n    /* \"#utility.yul\":7:428   */\n  swap4\n  swap3\n  pop\n  pop\n  pop\n  jump\t// out\n    /* \"#utility.yul\":448:803   */\ntag_33:\n    /* \"#utility.yul\":515:520   */\n  0x00\n    /* \"#utility.yul\":564:567   */\n  dup3\n    /* \"#utility.yul\":557:561   */\n  0x1f\n    /* \"#utility.yul\":549:555   */\n  dup4\n    /* \"#utility.yul\":545:562   */\n  add\n    /* \"#utility.yul\":541:568   */\n  slt\n    /* \"#utility.yul\":531:653   */\n  tag_35\n  jumpi\n    /* \"#utility.yul\":572:651   */\n  tag_36\n  tag_37\n  jump\t// in\ntag_36:\n    /* \"#utility.yul\":531:653   */\ntag_35:\n    /* \"#utility.yul\":682:688   */\n  dup2\n    /* \"#utility.yul\":676:689   */\n  mload\n    /* \"#utility.yul\":707:797   */\n  tag_38\n    /* \"#utility.yul\":793:796   */\n  dup5\n    /* \"#utility.yul\":785:791   */\n  dup3\n    /* \"#utility.yul\":778:782   */\n  0x20\n    /* \"#utility.yul\":770:776   */\n  dup7\n    /* \"#utility.yul\":766:783   */\n  add\n    /* \"#utility.yul\":707:797   */\n  tag_22\n  jump\t// in\ntag_38:\n    /* \"#utility.yul\":698:797   */\n  swap2\n  pop\n    /* \"#utility.yul\":521:803   */\n  pop\n    /* \"#utility.yul\":448:803   */\n  swap3\n  swap2\n  pop\n  pop\n  jump\t// out\n    /* \"#utility.yul\":809:1333   */\ntag_5:\n    /* \"#utility.yul\":889:895   */\n  0x00\n    /* \"#utility.yul\":938:940   */\n  0x20\n    /* \"#utility.yul\":926:935   */\n  dup3\n    /* \"#utility.yul\":917:924   */\n  dup5\n    /* \"#utility.yul\":913:936   */\n  sub\n    /* \"#utility.yul\":909:941   */\n  slt\n    /* \"#utility.yul\":906:1025   */\n  iszero\n  tag_40\n  jumpi\n    /* \"#utility.yul\":944:1023   */\n  tag_41\n  tag_42\n  jump\t// in\ntag_41:\n    /* \"#utility.yul\":906:1025   */\ntag_40:\n    /* \"#utility.yul\":1085:1086   */\n  0x00\n    /* \"#utility.yul\":1074:1083   */\n  dup3\n    /* \"#utility.yul\":1070:1087   */\n  add\n    /* \"#utility.yul\":1064:1088   */\n  mload\n    /* \"#utility.yul\":1115:1133   */\n  0xffffffffffffffff\n    /* \"#utility.yul\":1107:1113   */\n  dup2\n    /* \"#utility.yul\":1104:1134   */\n  gt\n    /* \"#utility.yul\":1101:1218   */\n  iszero\n  tag_43\n  jumpi\n    /* \"#utility.yul\":1137:1216   */\n  tag_44\n  tag_45\n  jump\t// in\ntag_44:\n    /* \"#utility.yul\":1101:1218   */\ntag_43:\n    /* \"#utility.yul\":1242:1316   */\n  tag_46\n    /* \"#utility.yul\":1308:1315   */\n  dup5\n    /* \"#utility.yul\":1299:1305   */\n  dup3\n    /* \"#utility.yul\":1288:1297   */\n  dup6\n    /* \"#utility.yul\":1284:1306   */\n  add\n    /* \"#utility.yul\":1242:1316   */\n  tag_33\n  jump\t// in\ntag_46:\n    /* \"#utility.yul\":1232:1316   */\n  swap2\n  pop\n    /* \"#utility.yul\":1035:1326   */\n  pop\n    /* \"#utility.yul\":809:1333   */\n  swap3\n  swap2\n  pop\n  pop\n  jump\t// out\n    /* \"#utility.yul\":1339:1468   */\ntag_27:\n    /* \"#utility.yul\":1373:1379   */\n  0x00\n    /* \"#utility.yul\":1400:1420   */\n  tag_48\n  tag_49\n  jump\t// in\ntag_48:\n    /* \"#utility.yul\":1390:1420   */\n  swap1\n  pop\n    /* \"#utility.yul\":1429:1462   */\n  tag_50\n    /* \"#utility.yul\":1457:1461   */\n  dup3\n    /* \"#utility.yul\":1449:1455   */\n  dup3\n    /* \"#utility.yul\":1429:1462   */\n  tag_51\n  jump\t// in\ntag_50:\n    /* \"#utility.yul\":1339:1468   */\n  swap2\n  swap1\n  pop\n  jump\t// out\n    /* \"#utility.yul\":1474:1549   */\ntag_49:\n    /* \"#utility.yul\":1507:1513   */\n  0x00\n    /* \"#utility.yul\":1540:1542   */\n  0x40\n    /* \"#utility.yul\":1534:1543   */\n  mload\n    /* \"#utility.yul\":1524:1543   */\n  swap1\n  pop\n    /* \"#utility.yul\":1474:1549   */\n  swap1\n  jump\t// out\n    /* \"#utility.yul\":1555:1863   */\ntag_26:\n    /* \"#utility.yul\":1617:1621   */\n  0x00\n    /* \"#utility.yul\":1707:1725   */\n  0xffffffffffffffff\n    /* \"#utility.yul\":1699:1705   */\n  dup3\n    /* \"#utility.yul\":1696:1726   */\n  gt\n    /* \"#utility.yul\":1693:1749   */\n  iszero\n  tag_54\n  jumpi\n    /* \"#utility.yul\":1729:1747   */\n  tag_55\n  tag_56\n  jump\t// in\ntag_55:\n    /* \"#utility.yul\":1693:1749   */\ntag_54:\n    /* \"#utility.yul\":1767:1796   */\n  tag_57\n    /* \"#utility.yul\":1789:1795   */\n  dup3\n    /* \"#utility.yul\":1767:1796   */\n  tag_58\n  jump\t// in\ntag_57:\n    /* \"#utility.yul\":1759:1796   */\n  swap1\n  pop\n    /* \"#utility.yul\":1851:1855   */\n  0x20\n    /* \"#utility.yul\":1845:1849   */\n  dup2\n    /* \"#utility.yul\":1841:1856   */\n  add\n    /* \"#utility.yul\":1833:1856   */\n  swap1\n  pop\n    /* \"#utility.yul\":1555:1863   */\n  swap2\n  swap1\n  pop\n  jump\t// out\n    /* \"#utility.yul\":1869:2176   */\ntag_32:\n    /* \"#utility.yul\":1937:1938   */\n  0x00\n    /* \"#utility.yul\":1947:2060   */\ntag_60:\n    /* \"#utility.yul\":1961:1967   */\n  dup4\n    /* \"#utility.yul\":1958:1959   */\n  dup2\n    /* \"#utility.yul\":1955:1968   */\n  lt\n    /* \"#utility.yul\":1947:2060   */\n  iszero\n  tag_62\n  jumpi\n    /* \"#utility.yul\":2046:2047   */\n  dup1\n    /* \"#utility.yul\":2041:2044   */\n  dup3\n    /* \"#utility.yul\":2037:2048   */\n  add\n    /* \"#utility.yul\":2031:2049   */\n  mload\n    /* \"#utility.yul\":2027:2028   */\n  dup2\n    /* \"#utility.yul\":2022:2025   */\n  dup5\n    /* \"#utility.yul\":2018:2029   */\n  add\n    /* \"#utility.yul\":2011:2050   */\n  mstore\n    /* \"#utility.yul\":1983:1985   */\n  0x20\n    /* \"#utility.yul\":1980:1981   */\n  dup2\n    /* \"#utility.yul\":1976:1986   */\n  add\n    /* \"#utility.yul\":1971:1986   */\n  swap1\n  pop\n    /* \"#utility.yul\":1947:2060   */\n  jump(tag_60)\ntag_62:\n    /* \"#utility.yul\":2078:2084   */\n  dup4\n    /* \"#utility.yul\":2075:2076   */\n  dup2\n    /* \"#utility.yul\":2072:2085   */\n  gt\n    /* \"#utility.yul\":2069:2170   */\n  iszero\n  tag_63\n  jumpi\n    /* \"#utility.yul\":2158:2159   */\n  0x00\n    /* \"#utility.yul\":2149:2155   */\n  dup5\n    /* \"#utility.yul\":2144:2147   */\n  dup5\n    /* \"#utility.yul\":2140:2156   */\n  add\n    /* \"#utility.yul\":2133:2160   */\n  mstore\n    /* \"#utility.yul\":2069:2170   */\ntag_63:\n    /* \"#utility.yul\":1918:2176   */\n  pop\n    /* \"#utility.yul\":1869:2176   */\n  pop\n  pop\n  pop\n  jump\t// out\n    /* \"#utility.yul\":2182:2502   */\ntag_11:\n    /* \"#utility.yul\":2226:2232   */\n  0x00\n    /* \"#utility.yul\":2263:2264   */\n  0x02\n    /* \"#utility.yul\":2257:2261   */\n  dup3\n    /* \"#utility.yul\":2253:2265   */\n  div\n    /* \"#utility.yul\":2243:2265   */\n  swap1\n  pop\n    /* \"#utility.yul\":2310:2311   */\n  0x01\n    /* \"#utility.yul\":2304:2308   */\n  dup3\n    /* \"#utility.yul\":2300:2312   */\n  and\n    /* \"#utility.yul\":2331:2349   */\n  dup1\n    /* \"#utility.yul\":2321:2402   */\n  tag_65\n  jumpi\n    /* \"#utility.yul\":2387:2391   */\n  0x7f\n    /* \"#utility.yul\":2379:2385   */\n  dup3\n    /* \"#utility.yul\":2375:2392   */\n  and\n    /* \"#utility.yul\":2365:2392   */\n  swap2\n  pop\n    /* \"#utility.yul\":2321:2402   */\ntag_65:\n    /* \"#utility.yul\":2449:2451   */\n  0x20\n    /* \"#utility.yul\":2441:2447   */\n  dup3\n    /* \"#utility.yul\":2438:2452   */\n  lt\n    /* \"#utility.yul\":2418:2436   */\n  dup2\n    /* \"#utility.yul\":2415:2453   */\n  eq\n    /* \"#utility.yul\":2412:2496   */\n  iszero\n  tag_66\n  jumpi\n    /* \"#utility.yul\":2468:2486   */\n  tag_67\n  tag_68\n  jump\t// in\ntag_67:\n    /* \"#utility.yul\":2412:2496   */\ntag_66:\n    /* \"#utility.yul\":2233:2502   */\n  pop\n    /* \"#utility.yul\":2182:2502   */\n  swap2\n  swap1\n  pop\n  jump\t// out\n    /* \"#utility.yul\":2508:2789   */\ntag_51:\n    /* \"#utility.yul\":2591:2618   */\n  tag_70\n    /* \"#utility.yul\":2613:2617   */\n  dup3\n    /* \"#utility.yul\":2591:2618   */\n  tag_58\n  jump\t// in\ntag_70:\n    /* \"#utility.yul\":2583:2589   */\n  dup2\n    /* \"#utility.yul\":2579:2619   */\n  add\n    /* \"#utility.yul\":2721:2727   */\n  dup2\n    /* \"#utility.yul\":2709:2719   */\n  dup2\n    /* \"#utility.yul\":2706:2728   */\n  lt\n    /* \"#utility.yul\":2685:2703   */\n  0xffffffffffffffff\n    /* \"#utility.yul\":2673:2683   */\n  dup3\n    /* \"#utility.yul\":2670:2704   */\n  gt\n    /* \"#utility.yul\":2667:2729   */\n  or\n    /* \"#utility.yul\":2664:2752   */\n  iszero\n  tag_71\n  jumpi\n    /* \"#utility.yul\":2732:2750   */\n  tag_72\n  tag_56\n  jump\t// in\ntag_72:\n    /* \"#utility.yul\":2664:2752   */\ntag_71:\n    /* \"#utility.yul\":2772:2782   */\n  dup1\n    /* \"#utility.yul\":2768:2770   */\n  0x40\n    /* \"#utility.yul\":2761:2783   */\n  mstore\n    /* \"#utility.yul\":2551:2789   */\n  pop\n    /* \"#utility.yul\":2508:2789   */\n  pop\n  pop\n  jump\t// out\n    /* \"#utility.yul\":2795:2975   */\ntag_68:\n    /* \"#utility.yul\":2843:2920   */\n  0x4e487b7100000000000000000000000000000000000000000000000000000000\n    /* \"#utility.yul\":2840:2841   */\n  0x00\n    /* \"#utility.yul\":2833:2921   */\n  mstore\n    /* \"#utility.yul\":2940:2944   */\n  0x22\n    /* \"#utility.yul\":2937:2938   */\n  0x04\n    /* \"#utility.yul\":2930:2945   */\n  mstore\n    /* \"#utility.yul\":2964:2968   */\n  0x24\n    /* \"#utility.yul\":2961:2962   */\n  0x00\n    /* \"#utility.yul\":2954:2969   */\n  revert\n    /* \"#utility.yul\":2981:3161   */\ntag_56:\n    /* \"#utility.yul\":3029:3106   */\n  0x4e487b7100000000000000000000000000000000000000000000000000000000\n    /* \"#utility.yul\":3026:3027   */\n  0x00\n    /* \"#utility.yul\":3019:3107   */\n  mstore\n    /* \"#utility.yul\":3126:3130   */\n  0x41\n    /* \"#utility.yul\":3123:3124   */\n  0x04\n    /* \"#utility.yul\":3116:3131   */\n  mstore\n    /* \"#utility.yul\":3150:3154   */\n  0x24\n    /* \"#utility.yul\":3147:3148   */\n  0x00\n    /* \"#utility.yul\":3140:3155   */\n  revert\n    /* \"#utility.yul\":3167:3284   */\ntag_37:\n    /* \"#utility.yul\":3276:3277   */\n  0x00\n    /* \"#utility.yul\":3273:3274   */\n  dup1\n    /* \"#utility.yul\":3266:3278   */\n  revert\n    /* \"#utility.yul\":3290:3407   */\ntag_30:\n    /* \"#utility.yul\":3399:3400   */\n  0x00\n    /* \"#utility.yul\":3396:3397   */\n  dup1\n    /* \"#utility.yul\":3389:3401   */\n  revert\n    /* \"#utility.yul\":3413:3530   */\ntag_45:\n    /* \"#utility.yul\":3522:3523   */\n  0x00\n    /* \"#utility.yul\":3519:3520   */\n  dup1\n    /* \"#utility.yul\":3512:3524   */\n  revert\n    /* \"#utility.yul\":3536:3653   */\ntag_42:\n    /* \"#utility.yul\":3645:3646   */\n  0x00\n    /* \"#utility.yul\":3642:3643   */\n  dup1\n    /* \"#utility.yul\":3635:3647   */\n  revert\n    /* \"#utility.yul\":3659:3761   */\ntag_58:\n    /* \"#utility.yul\":3700:3706   */\n  0x00\n    /* \"#utility.yul\":3751:3753   */\n  0x1f\n    /* \"#utility.yul\":3747:3754   */\n  not\n    /* \"#utility.yul\":3742:3744   */\n  0x1f\n    /* \"#utility.yul\":3735:3740   */\n  dup4\n    /* \"#utility.yul\":3731:3745   */\n  add\n    /* \"#utility.yul\":3727:3755   */\n  and\n    /* \"#utility.yul\":3717:3755   */\n  swap1\n  pop\n    /* \"#utility.yul\":3659:3761   */\n  swap2\n  swap1\n  pop\n  jump\t// out\n    /* \"NFTES_Drop_flat.sol\":15472:23801  contract NFTES_Drop is ERC1155_Drop {... */\ntag_9:\n  dataSize(sub_0)\n  dup1\n  dataOffset(sub_0)\n  0x00\n  codecopy\n  0x00\n  return\nstop\n\nsub_0: assembly {\n        /* \"NFTES_Drop_flat.sol\":15472:23801  contract NFTES_Drop is ERC1155_Drop {... */\n      mstore(0x40, 0x80)\n      jumpi(tag_1, lt(calldatasize, 0x04))\n      shr(0xe0, calldataload(0x00))\n      dup1\n      0x7a5caab3\n      gt\n      tag_17\n      jumpi\n      dup1\n      0xb187bd26\n      gt\n      tag_18\n      jumpi\n      dup1\n      0xb187bd26\n      eq\n      tag_13\n      jumpi\n      dup1\n      0xb4a99a4e\n      eq\n      tag_14\n      jumpi\n      dup1\n      0xb6db75a0\n      eq\n      tag_15\n      jumpi\n      dup1\n      0xeddd0d9c\n      eq\n      tag_16\n      jumpi\n      jump(tag_1)\n    tag_18:\n      dup1\n      0x7a5caab3\n      eq\n      tag_9\n      jumpi\n      dup1\n      0x8b7afe2e\n      eq\n      tag_10\n      jumpi\n      dup1\n      0xa6f9dae1\n      eq\n      tag_11\n      jumpi\n      dup1\n      0xaa90c726\n      eq\n      tag_12\n      jumpi\n      jump(tag_1)\n    tag_17:\n      dup1\n      0x225011da\n      gt\n      tag_19\n      jumpi\n      dup1\n      0x225011da\n      eq\n      tag_5\n      jumpi\n      dup1\n      0x5b27d84e\n      eq\n      tag_6\n      jumpi\n      dup1\n      0x5e1f0556\n      eq\n      tag_7\n      jumpi\n      dup1\n      0x60daa851\n      eq\n      tag_8\n      jumpi\n      jump(tag_1)\n    tag_19:\n      dup1\n      0x0390c11c\n      eq\n      tag_2\n      jumpi\n      dup1\n      0x15460259\n      eq\n      tag_3\n      jumpi\n      dup1\n      0x191e2e83\n      eq\n      tag_4\n      jumpi\n    tag_1:\n      0x00\n      dup1\n      revert\n        /* \"NFTES_Drop_flat.sol\":18102:18199  function checkTotalMinted() public view returns (uint256) {... */\n    tag_2:\n      callvalue\n      dup1\n      iszero\n      tag_20\n      jumpi\n      0x00\n      dup1\n      revert\n    tag_20:\n      pop\n      tag_21\n      tag_22\n      jump\t// in\n    tag_21:\n      mload(0x40)\n      tag_23\n      swap2\n      swap1\n      tag_24\n      jump\t// in\n    tag_23:\n      mload(0x40)\n      dup1\n      swap2\n      sub\n      swap1\n      return\n        /* \"NFTES_Drop_flat.sol\":18351:18491  function openDropsite() public OnlyOwner {... */\n    tag_3:\n      callvalue\n      dup1\n      iszero\n      tag_25\n      jumpi\n      0x00\n      dup1\n      revert\n    tag_25:\n      pop\n      tag_26\n      tag_27\n      jump\t// in\n    tag_26:\n      stop\n        /* \"NFTES_Drop_flat.sol\":18580:18798  function withDraw(address payable to, uint amount) public  OnlyOwner {... */\n    tag_4:\n      callvalue\n      dup1\n      iszero\n      tag_28\n      jumpi\n      0x00\n      dup1\n      revert\n    tag_28:\n      pop\n      tag_29\n      0x04\n      dup1\n      calldatasize\n      sub\n      dup2\n      add\n      swap1\n      tag_30\n      swap2\n      swap1\n      tag_31\n      jump\t// in\n    tag_30:\n      tag_32\n      jump\t// in\n    tag_29:\n      stop\n        /* \"NFTES_Drop_flat.sol\":17289:17491  function returnNftsOwner(address addr)... */\n    tag_5:\n      callvalue\n      dup1\n      iszero\n      tag_33\n      jumpi\n      0x00\n      dup1\n      revert\n    tag_33:\n      pop\n      tag_34\n      0x04\n      dup1\n      calldatasize\n      sub\n      dup2\n      add\n      swap1\n      tag_35\n      swap2\n      swap1\n      tag_36\n      jump\t// in\n    tag_35:\n      tag_37\n      jump\t// in\n    tag_34:\n      mload(0x40)\n      tag_38\n      swap2\n      swap1\n      tag_39\n      jump\t// in\n    tag_38:\n      mload(0x40)\n      dup1\n      swap2\n      sub\n      swap1\n      return\n        /* \"NFTES_Drop_flat.sol\":22850:23799  function cryptoRandomMint(address user_addr, uint256 noOfMints)... */\n    tag_6:\n      tag_40\n      0x04\n      dup1\n      calldatasize\n      sub\n      dup2\n      add\n      swap1\n      tag_41\n      swap2\n      swap1\n      tag_42\n      jump\t// in\n    tag_41:\n      tag_43\n      jump\t// in\n    tag_40:\n      mload(0x40)\n      tag_44\n      swap2\n      swap1\n      tag_39\n      jump\t// in\n    tag_44:\n      mload(0x40)\n      dup1\n      swap2\n      sub\n      swap1\n      return\n        /* \"NFTES_Drop_flat.sol\":21837:22635  function fiatRandomMint(address user_addr, uint256 noOfMints)... */\n    tag_7:\n      callvalue\n      dup1\n      iszero\n      tag_45\n      jumpi\n      0x00\n      dup1\n      revert\n    tag_45:\n      pop\n      tag_46\n      0x04\n      dup1\n      calldatasize\n      sub\n      dup2\n      add\n      swap1\n      tag_47\n      swap2\n      swap1\n      tag_42\n      jump\t// in\n    tag_47:\n      tag_48\n      jump\t// in\n    tag_46:\n      mload(0x40)\n      tag_49\n      swap2\n      swap1\n      tag_50\n      jump\t// in\n    tag_49:\n      mload(0x40)\n      dup1\n      swap2\n      sub\n      swap1\n      return\n        /* \"NFTES_Drop_flat.sol\":17544:17785  function checkMintedCategoryWise()... */\n    tag_8:\n      callvalue\n      dup1\n      iszero\n      tag_51\n      jumpi\n      0x00\n      dup1\n      revert\n    tag_51:\n      pop\n      tag_52\n      tag_53\n      jump\t// in\n    tag_52:\n      mload(0x40)\n      tag_54\n      swap4\n      swap3\n      swap2\n      swap1\n      tag_55\n      jump\t// in\n    tag_54:\n      mload(0x40)\n      dup1\n      swap2\n      sub\n      swap1\n      return\n        /* \"NFTES_Drop_flat.sol\":17951:18063  function getMintFee()... */\n    tag_9:\n      callvalue\n      dup1\n      iszero\n      tag_56\n      jumpi\n      0x00\n      dup1\n      revert\n    tag_56:\n      pop\n      tag_57\n      tag_58\n      jump\t// in\n    tag_57:\n      mload(0x40)\n      tag_59\n      swap2\n      swap1\n      tag_24\n      jump\t// in\n    tag_59:\n      mload(0x40)\n      dup1\n      swap2\n      sub\n      swap1\n      return\n        /* \"NFTES_Drop_flat.sol\":18843:18955  function contractBalance() public view OnlyOwner returns (uint256) {... */\n    tag_10:\n      callvalue\n      dup1\n      iszero\n      tag_60\n      jumpi\n      0x00\n      dup1\n      revert\n    tag_60:\n      pop\n      tag_61\n      tag_62\n      jump\t// in\n    tag_61:\n      mload(0x40)\n      tag_63\n      swap2\n      swap1\n      tag_24\n      jump\t// in\n    tag_63:\n      mload(0x40)\n      dup1\n      swap2\n      sub\n      swap1\n      return\n        /* \"NFTES_Drop_flat.sol\":17091:17245  function changeOwner(address newOwnerAddr)... */\n    tag_11:\n      callvalue\n      dup1\n      iszero\n      tag_64\n      jumpi\n      0x00\n      dup1\n      revert\n    tag_64:\n      pop\n      tag_65\n      0x04\n      dup1\n      calldatasize\n      sub\n      dup2\n      add\n      swap1\n      tag_66\n      swap2\n      swap1\n      tag_36\n      jump\t// in\n    tag_66:\n      tag_67\n      jump\t// in\n    tag_65:\n      stop\n        /* \"NFTES_Drop_flat.sol\":18205:18345  function stopDropsite() public OnlyOwner {... */\n    tag_12:\n      callvalue\n      dup1\n      iszero\n      tag_68\n      jumpi\n      0x00\n      dup1\n      revert\n    tag_68:\n      pop\n      tag_69\n      tag_70\n      jump\t// in\n    tag_69:\n      stop\n        /* \"NFTES_Drop_flat.sol\":16547:16574  bool public isPaused = true */\n    tag_13:\n      callvalue\n      dup1\n      iszero\n      tag_71\n      jumpi\n      0x00\n      dup1\n      revert\n    tag_71:\n      pop\n      tag_72\n      tag_73\n      jump\t// in\n    tag_72:\n      mload(0x40)\n      tag_74\n      swap2\n      swap1\n      tag_75\n      jump\t// in\n    tag_74:\n      mload(0x40)\n      dup1\n      swap2\n      sub\n      swap1\n      return\n        /* \"NFTES_Drop_flat.sol\":16580:16608  address payable public Owner */\n    tag_14:\n      callvalue\n      dup1\n      iszero\n      tag_76\n      jumpi\n      0x00\n      dup1\n      revert\n    tag_76:\n      pop\n      tag_77\n      tag_78\n      jump\t// in\n    tag_77:\n      mload(0x40)\n      tag_79\n      swap2\n      swap1\n      tag_80\n      jump\t// in\n    tag_79:\n      mload(0x40)\n      dup1\n      swap2\n      sub\n      swap1\n      return\n        /* \"NFTES_Drop_flat.sol\":16964:17086  function isAdmin() public view returns (bool){... */\n    tag_15:\n      callvalue\n      dup1\n      iszero\n      tag_81\n      jumpi\n      0x00\n      dup1\n      revert\n    tag_81:\n      pop\n      tag_82\n      tag_83\n      jump\t// in\n    tag_82:\n      mload(0x40)\n      tag_84\n      swap2\n      swap1\n      tag_75\n      jump\t// in\n    tag_84:\n      mload(0x40)\n      dup1\n      swap2\n      sub\n      swap1\n      return\n        /* \"NFTES_Drop_flat.sol\":17829:17918  function setMintFee(uint _mintFee) public OnlyOwner  {... */\n    tag_16:\n      callvalue\n      dup1\n      iszero\n      tag_85\n      jumpi\n      0x00\n      dup1\n      revert\n    tag_85:\n      pop\n      tag_86\n      0x04\n      dup1\n      calldatasize\n      sub\n      dup2\n      add\n      swap1\n      tag_87\n      swap2\n      swap1\n      tag_88\n      jump\t// in\n    tag_87:\n      tag_89\n      jump\t// in\n    tag_86:\n      stop\n        /* \"NFTES_Drop_flat.sol\":18102:18199  function checkTotalMinted() public view returns (uint256) {... */\n    tag_22:\n        /* \"NFTES_Drop_flat.sol\":18151:18158  uint256 */\n      0x00\n        /* \"NFTES_Drop_flat.sol\":18177:18192  totalNFTsMinted */\n      sload(0x03)\n        /* \"NFTES_Drop_flat.sol\":18170:18192  return totalNFTsMinted */\n      swap1\n      pop\n        /* \"NFTES_Drop_flat.sol\":18102:18199  function checkTotalMinted() public view returns (uint256) {... */\n      swap1\n      jump\t// out\n        /* \"NFTES_Drop_flat.sol\":18351:18491  function openDropsite() public OnlyOwner {... */\n    tag_27:\n        /* \"NFTES_Drop_flat.sol\":16205:16210  Owner */\n      0x0e\n      0x01\n      swap1\n      sload\n      swap1\n      0x0100\n      exp\n      swap1\n      div\n      0xffffffffffffffffffffffffffffffffffffffff\n      and\n        /* \"NFTES_Drop_flat.sol\":16189:16210  _msgSender() == Owner */\n      0xffffffffffffffffffffffffffffffffffffffff\n      and\n        /* \"NFTES_Drop_flat.sol\":16189:16201  _msgSender() */\n      tag_92\n        /* \"NFTES_Drop_flat.sol\":16189:16199  _msgSender */\n      tag_93\n        /* \"NFTES_Drop_flat.sol\":16189:16201  _msgSender() */\n      jump\t// in\n    tag_92:\n        /* \"NFTES_Drop_flat.sol\":16189:16210  _msgSender() == Owner */\n      0xffffffffffffffffffffffffffffffffffffffff\n      and\n      eq\n        /* \"NFTES_Drop_flat.sol\":16181:16243  require(_msgSender() == Owner, \"Only NFT-ES Owner can Access\") */\n      tag_94\n      jumpi\n      mload(0x40)\n      0x08c379a000000000000000000000000000000000000000000000000000000000\n      dup2\n      mstore\n      0x04\n      add\n      tag_95\n      swap1\n      tag_96\n      jump\t// in\n    tag_95:\n      mload(0x40)\n      dup1\n      swap2\n      sub\n      swap1\n      revert\n    tag_94:\n        /* \"NFTES_Drop_flat.sol\":18422:18426  true */\n      0x01\n        /* \"NFTES_Drop_flat.sol\":18410:18426  isPaused == true */\n      iszero\n      iszero\n        /* \"NFTES_Drop_flat.sol\":18410:18418  isPaused */\n      0x0e\n      0x00\n      swap1\n      sload\n      swap1\n      0x0100\n      exp\n      swap1\n      div\n      0xff\n      and\n        /* \"NFTES_Drop_flat.sol\":18410:18426  isPaused == true */\n      iszero\n      iszero\n      eq\n        /* \"NFTES_Drop_flat.sol\":18402:18458  require(isPaused == true, \"Dropsite is already Running\") */\n      tag_98\n      jumpi\n      mload(0x40)\n      0x08c379a000000000000000000000000000000000000000000000000000000000\n      dup2\n      mstore\n      0x04\n      add\n      tag_99\n      swap1\n      tag_100\n      jump\t// in\n    tag_99:\n      mload(0x40)\n      dup1\n      swap2\n      sub\n      swap1\n      revert\n    tag_98:\n        /* \"NFTES_Drop_flat.sol\":18479:18484  false */\n      0x00\n        /* \"NFTES_Drop_flat.sol\":18468:18476  isPaused */\n      0x0e\n      0x00\n        /* \"NFTES_Drop_flat.sol\":18468:18484  isPaused = false */\n      0x0100\n      exp\n      dup2\n      sload\n      dup2\n      0xff\n      mul\n      not\n      and\n      swap1\n      dup4\n      iszero\n      iszero\n      mul\n      or\n      swap1\n      sstore\n      pop\n        /* \"NFTES_Drop_flat.sol\":18351:18491  function openDropsite() public OnlyOwner {... */\n      jump\t// out\n        /* \"NFTES_Drop_flat.sol\":18580:18798  function withDraw(address payable to, uint amount) public  OnlyOwner {... */\n    tag_32:\n        /* \"NFTES_Drop_flat.sol\":16205:16210  Owner */\n      0x0e\n      0x01\n      swap1\n      sload\n      swap1\n      0x0100\n      exp\n      swap1\n      div\n      0xffffffffffffffffffffffffffffffffffffffff\n      and\n        /* \"NFTES_Drop_flat.sol\":16189:16210  _msgSender() == Owner */\n      0xffffffffffffffffffffffffffffffffffffffff\n      and\n        /* \"NFTES_Drop_flat.sol\":16189:16201  _msgSender() */\n      tag_102\n        /* \"NFTES_Drop_flat.sol\":16189:16199  _msgSender */\n      tag_93\n        /* \"NFTES_Drop_flat.sol\":16189:16201  _msgSender() */\n      jump\t// in\n    tag_102:\n        /* \"NFTES_Drop_flat.sol\":16189:16210  _msgSender() == Owner */\n      0xffffffffffffffffffffffffffffffffffffffff\n      and\n      eq\n        /* \"NFTES_Drop_flat.sol\":16181:16243  require(_msgSender() == Owner, \"Only NFT-ES Owner can Access\") */\n      tag_103\n      jumpi\n      mload(0x40)\n      0x08c379a000000000000000000000000000000000000000000000000000000000\n      dup2\n      mstore\n      0x04\n      add\n      tag_104\n      swap1\n      tag_96\n      jump\t// in\n    tag_104:\n      mload(0x40)\n      dup1\n      swap2\n      sub\n      swap1\n      revert\n    tag_103:\n        /* \"NFTES_Drop_flat.sol\":18659:18674  uint256 Balance */\n      0x00\n        /* \"NFTES_Drop_flat.sol\":18677:18698  address(this).balance */\n      selfbalance\n        /* \"NFTES_Drop_flat.sol\":18659:18698  uint256 Balance = address(this).balance */\n      swap1\n      pop\n        /* \"NFTES_Drop_flat.sol\":18725:18732  Balance */\n      dup1\n        /* \"NFTES_Drop_flat.sol\":18716:18722  amount */\n      dup3\n        /* \"NFTES_Drop_flat.sol\":18716:18732  amount < Balance */\n      lt\n        /* \"NFTES_Drop_flat.sol\":18708:18762  require(amount < Balance, \"Error! Not Enough Balance\") */\n      tag_106\n      jumpi\n      mload(0x40)\n      0x08c379a000000000000000000000000000000000000000000000000000000000\n      dup2\n      mstore\n      0x04\n      add\n      tag_107\n      swap1\n      tag_108\n      jump\t// in\n    tag_107:\n      mload(0x40)\n      dup1\n      swap2\n      sub\n      swap1\n      revert\n    tag_106:\n        /* \"NFTES_Drop_flat.sol\":18772:18774  to */\n      dup3\n        /* \"NFTES_Drop_flat.sol\":18772:18783  to.transfer */\n      0xffffffffffffffffffffffffffffffffffffffff\n      and\n        /* \"NFTES_Drop_flat.sol\":18772:18791  to.transfer(amount) */\n      0x08fc\n        /* \"NFTES_Drop_flat.sol\":18784:18790  amount */\n      dup4\n        /* \"NFTES_Drop_flat.sol\":18772:18791  to.transfer(amount) */\n      swap1\n      dup2\n      iszero\n      mul\n      swap1\n      mload(0x40)\n      0x00\n      mload(0x40)\n      dup1\n      dup4\n      sub\n      dup2\n      dup6\n      dup9\n      dup9\n      call\n      swap4\n      pop\n      pop\n      pop\n      pop\n      iszero\n      dup1\n      iszero\n      tag_110\n      jumpi\n      returndatasize\n      0x00\n      dup1\n      returndatacopy\n      revert(0x00, returndatasize)\n    tag_110:\n      pop\n        /* \"NFTES_Drop_flat.sol\":18649:18798  {... */\n      pop\n        /* \"NFTES_Drop_flat.sol\":18580:18798  function withDraw(address payable to, uint amount) public  OnlyOwner {... */\n      pop\n      pop\n      jump\t// out\n        /* \"NFTES_Drop_flat.sol\":17289:17491  function returnNftsOwner(address addr)... */\n    tag_37:\n        /* \"NFTES_Drop_flat.sol\":17401:17417  uint256[] memory */\n      0x60\n        /* \"NFTES_Drop_flat.sol\":16370:16375  false */\n      0x00\n        /* \"NFTES_Drop_flat.sol\":16358:16375  isPaused == false */\n      iszero\n      iszero\n        /* \"NFTES_Drop_flat.sol\":16358:16366  isPaused */\n      0x0e\n      0x00\n      swap1\n      sload\n      swap1\n      0x0100\n      exp\n      swap1\n      div\n      0xff\n      and\n        /* \"NFTES_Drop_flat.sol\":16358:16375  isPaused == false */\n      iszero\n      iszero\n      eq\n        /* \"NFTES_Drop_flat.sol\":16350:16407  require(isPaused == false, \"Dropsite is not Opened Yet.\") */\n      tag_112\n      jumpi\n      mload(0x40)\n      0x08c379a000000000000000000000000000000000000000000000000000000000\n      dup2\n      mstore\n      0x04\n      add\n      tag_113\n      swap1\n      tag_114\n      jump\t// in\n    tag_113:\n      mload(0x40)\n      dup1\n      swap2\n      sub\n      swap1\n      revert\n    tag_112:\n        /* \"NFTES_Drop_flat.sol\":17440:17458  dropsite_NFT_Owner */\n      0x0c\n        /* \"NFTES_Drop_flat.sol\":17440:17464  dropsite_NFT_Owner[addr] */\n      0x00\n        /* \"NFTES_Drop_flat.sol\":17459:17463  addr */\n      dup4\n        /* \"NFTES_Drop_flat.sol\":17440:17464  dropsite_NFT_Owner[addr] */\n      0xffffffffffffffffffffffffffffffffffffffff\n      and\n      0xffffffffffffffffffffffffffffffffffffffff\n      and\n      dup2\n      mstore\n      0x20\n      add\n      swap1\n      dup2\n      mstore\n      0x20\n      add\n      0x00\n      keccak256\n        /* \"NFTES_Drop_flat.sol\":17440:17484  dropsite_NFT_Owner[addr].owned_Dropsite_NFTs */\n      0x00\n      add\n        /* \"NFTES_Drop_flat.sol\":17433:17484  return dropsite_NFT_Owner[addr].owned_Dropsite_NFTs */\n      dup1\n      sload\n      dup1\n      0x20\n      mul\n      0x20\n      add\n      mload(0x40)\n      swap1\n      dup2\n      add\n      0x40\n      mstore\n      dup1\n      swap3\n      swap2\n      swap1\n      dup2\n      dup2\n      mstore\n      0x20\n      add\n      dup3\n      dup1\n      sload\n      dup1\n      iszero\n      tag_116\n      jumpi\n      0x20\n      mul\n      dup3\n      add\n      swap2\n      swap1\n      0x00\n      mstore\n      keccak256(0x00, 0x20)\n      swap1\n    tag_117:\n      dup2\n      sload\n      dup2\n      mstore\n      0x20\n      add\n      swap1\n      0x01\n      add\n      swap1\n      dup1\n      dup4\n      gt\n      tag_117\n      jumpi\n    tag_116:\n      pop\n      pop\n      pop\n      pop\n      pop\n      swap1\n      pop\n        /* \"NFTES_Drop_flat.sol\":17289:17491  function returnNftsOwner(address addr)... */\n      swap2\n      swap1\n      pop\n      jump\t// out\n        /* \"NFTES_Drop_flat.sol\":22850:23799  function cryptoRandomMint(address user_addr, uint256 noOfMints)... */\n    tag_43:\n        /* \"NFTES_Drop_flat.sol\":23014:23030  uint256[] memory */\n      0x60\n        /* \"NFTES_Drop_flat.sol\":16370:16375  false */\n      0x00\n        /* \"NFTES_Drop_flat.sol\":16358:16375  isPaused == false */\n      iszero\n      iszero\n        /* \"NFTES_Drop_flat.sol\":16358:16366  isPaused */\n      0x0e\n      0x00\n      swap1\n      sload\n      swap1\n      0x0100\n      exp\n      swap1\n      div\n      0xff\n      and\n        /* \"NFTES_Drop_flat.sol\":16358:16375  isPaused == false */\n      iszero\n      iszero\n      eq\n        /* \"NFTES_Drop_flat.sol\":16350:16407  require(isPaused == false, \"Dropsite is not Opened Yet.\") */\n      tag_119\n      jumpi\n      mload(0x40)\n      0x08c379a000000000000000000000000000000000000000000000000000000000\n      dup2\n      mstore\n      0x04\n      add\n      tag_120\n      swap1\n      tag_114\n      jump\t// in\n    tag_120:\n      mload(0x40)\n      dup1\n      swap2\n      sub\n      swap1\n      revert\n    tag_119:\n        /* \"NFTES_Drop_flat.sol\":16487:16488  0 */\n      0x00\n        /* \"NFTES_Drop_flat.sol\":16475:16483  mintFees */\n      sload(0x05)\n        /* \"NFTES_Drop_flat.sol\":16475:16488  mintFees != 0 */\n      eq\n      iszero\n        /* \"NFTES_Drop_flat.sol\":16467:16524  require(mintFees != 0, \"Owner Should set mint Fee First\") */\n      tag_122\n      jumpi\n      mload(0x40)\n      0x08c379a000000000000000000000000000000000000000000000000000000000\n      dup2\n      mstore\n      0x04\n      add\n      tag_123\n      swap1\n      tag_124\n      jump\t// in\n    tag_123:\n      mload(0x40)\n      dup1\n      swap2\n      sub\n      swap1\n      revert\n    tag_122:\n        /* \"NFTES_Drop_flat.sol\":23066:23067  4 */\n      0x04\n        /* \"NFTES_Drop_flat.sol\":23054:23063  noOfMints */\n      dup3\n        /* \"NFTES_Drop_flat.sol\":23054:23067  noOfMints < 4 */\n      lt\n        /* \"NFTES_Drop_flat.sol\":23054:23084  noOfMints < 4 && noOfMints > 0 */\n      dup1\n      iszero\n      tag_126\n      jumpi\n      pop\n        /* \"NFTES_Drop_flat.sol\":23083:23084  0 */\n      0x00\n        /* \"NFTES_Drop_flat.sol\":23071:23080  noOfMints */\n      dup3\n        /* \"NFTES_Drop_flat.sol\":23071:23084  noOfMints > 0 */\n      gt\n        /* \"NFTES_Drop_flat.sol\":23054:23084  noOfMints < 4 && noOfMints > 0 */\n    tag_126:\n        /* \"NFTES_Drop_flat.sol\":23046:23110  require(noOfMints < 4 && noOfMints > 0, \"You can mint 1-3 NFTs\") */\n      tag_127\n      jumpi\n      mload(0x40)\n      0x08c379a000000000000000000000000000000000000000000000000000000000\n      dup2\n      mstore\n      0x04\n      add\n      tag_128\n      swap1\n      tag_129\n      jump\t// in\n    tag_128:\n      mload(0x40)\n      dup1\n      swap2\n      sub\n      swap1\n      revert\n    tag_127:\n        /* \"NFTES_Drop_flat.sol\":23146:23150  1000 */\n      0x03e8\n        /* \"NFTES_Drop_flat.sol\":23128:23143  totalNFTsMinted */\n      sload(0x03)\n        /* \"NFTES_Drop_flat.sol\":23128:23150  totalNFTsMinted < 1000 */\n      lt\n        /* \"NFTES_Drop_flat.sol\":23120:23180  require(totalNFTsMinted < 1000, \"Max Minting Limit reached\") */\n      tag_130\n      jumpi\n      mload(0x40)\n      0x08c379a000000000000000000000000000000000000000000000000000000000\n      dup2\n      mstore\n      0x04\n      add\n      tag_131\n      swap1\n      tag_132\n      jump\t// in\n    tag_131:\n      mload(0x40)\n      dup1\n      swap2\n      sub\n      swap1\n      revert\n    tag_130:\n        /* \"NFTES_Drop_flat.sol\":23210:23211  0 */\n      0x00\n        /* \"NFTES_Drop_flat.sol\":23198:23206  mintFees */\n      sload(0x05)\n        /* \"NFTES_Drop_flat.sol\":23198:23211  mintFees != 0 */\n      eq\n      iszero\n        /* \"NFTES_Drop_flat.sol\":23190:23232  require(mintFees != 0, \"Mint Fee Not Set\") */\n      tag_133\n      jumpi\n      mload(0x40)\n      0x08c379a000000000000000000000000000000000000000000000000000000000\n      dup2\n      mstore\n      0x04\n      add\n      tag_134\n      swap1\n      tag_135\n      jump\t// in\n    tag_134:\n      mload(0x40)\n      dup1\n      swap2\n      sub\n      swap1\n      revert\n    tag_133:\n        /* \"NFTES_Drop_flat.sol\":23274:23283  noOfMints */\n      dup2\n        /* \"NFTES_Drop_flat.sol\":23263:23271  mintFees */\n      sload(0x05)\n        /* \"NFTES_Drop_flat.sol\":23263:23283  mintFees * noOfMints */\n      tag_136\n      swap2\n      swap1\n      tag_137\n      jump\t// in\n    tag_136:\n        /* \"NFTES_Drop_flat.sol\":23250:23259  msg.value */\n      callvalue\n        /* \"NFTES_Drop_flat.sol\":23250:23283  msg.value == mintFees * noOfMints */\n      eq\n        /* \"NFTES_Drop_flat.sol\":23242:23306  require(msg.value == mintFees * noOfMints, \"Not Enough Balance\") */\n      tag_138\n      jumpi\n      mload(0x40)\n      0x08c379a000000000000000000000000000000000000000000000000000000000\n      dup2\n      mstore\n      0x04\n      add\n      tag_139\n      swap1\n      tag_140\n      jump\t// in\n    tag_139:\n      mload(0x40)\n      dup1\n      swap2\n      sub\n      swap1\n      revert\n    tag_138:\n        /* \"NFTES_Drop_flat.sol\":23316:23334  uint returnedNftID */\n      0x00\n        /* \"NFTES_Drop_flat.sol\":23344:23373  string memory returnedNftData */\n      0x60\n        /* \"NFTES_Drop_flat.sol\":23383:23415  string[] memory randomMintedNfts */\n      dup1\n        /* \"NFTES_Drop_flat.sol\":23430:23439  uint256 i */\n      0x00\n        /* \"NFTES_Drop_flat.sol\":23425:23679  for (uint256 i = 0; i < noOfMints; ++i) {... */\n    tag_141:\n        /* \"NFTES_Drop_flat.sol\":23449:23458  noOfMints */\n      dup6\n        /* \"NFTES_Drop_flat.sol\":23445:23446  i */\n      dup2\n        /* \"NFTES_Drop_flat.sol\":23445:23458  i < noOfMints */\n      lt\n        /* \"NFTES_Drop_flat.sol\":23425:23679  for (uint256 i = 0; i < noOfMints; ++i) {... */\n      iszero\n      tag_142\n      jumpi\n        /* \"NFTES_Drop_flat.sol\":23512:23536  randomMinting(user_addr) */\n      tag_144\n        /* \"NFTES_Drop_flat.sol\":23526:23535  user_addr */\n      dup8\n        /* \"NFTES_Drop_flat.sol\":23512:23525  randomMinting */\n      tag_145\n        /* \"NFTES_Drop_flat.sol\":23512:23536  randomMinting(user_addr) */\n      jump\t// in\n    tag_144:\n        /* \"NFTES_Drop_flat.sol\":23477:23536  (returnedNftID, returnedNftData) = randomMinting(user_addr) */\n      dup1\n      swap5\n      pop\n      dup2\n      swap6\n      pop\n      pop\n      pop\n        /* \"NFTES_Drop_flat.sol\":23618:23649  Strings.toString(returnedNftID) */\n      tag_146\n        /* \"NFTES_Drop_flat.sol\":23635:23648  returnedNftID */\n      dup5\n        /* \"NFTES_Drop_flat.sol\":23618:23634  Strings.toString */\n      tag_147\n        /* \"NFTES_Drop_flat.sol\":23618:23649  Strings.toString(returnedNftID) */\n      jump\t// in\n    tag_146:\n        /* \"NFTES_Drop_flat.sol\":23651:23666  returnedNftData */\n      dup4\n        /* \"NFTES_Drop_flat.sol\":23601:23667  abi.encodePacked(Strings.toString(returnedNftID), returnedNftData) */\n      add(0x20, mload(0x40))\n      tag_148\n      swap3\n      swap2\n      swap1\n      tag_149\n      jump\t// in\n    tag_148:\n      mload(0x40)\n      0x20\n      dup2\n      dup4\n      sub\n      sub\n      dup2\n      mstore\n      swap1\n      0x40\n      mstore\n        /* \"NFTES_Drop_flat.sol\":23552:23568  randomMintedNfts */\n      dup3\n        /* \"NFTES_Drop_flat.sol\":23569:23570  i */\n      dup3\n        /* \"NFTES_Drop_flat.sol\":23552:23571  randomMintedNfts[i] */\n      dup2\n      mload\n      dup2\n      lt\n      tag_150\n      jumpi\n      tag_151\n      tag_152\n      jump\t// in\n    tag_151:\n    tag_150:\n      0x20\n      mul\n      0x20\n      add\n      add\n        /* \"NFTES_Drop_flat.sol\":23552:23668  randomMintedNfts[i]= ... */\n      dup2\n      swap1\n      mstore\n      pop\n        /* \"NFTES_Drop_flat.sol\":23460:23463  ++i */\n      dup1\n      tag_153\n      swap1\n      tag_154\n      jump\t// in\n    tag_153:\n      swap1\n      pop\n        /* \"NFTES_Drop_flat.sol\":23425:23679  for (uint256 i = 0; i < noOfMints; ++i) {... */\n      jump(tag_141)\n    tag_142:\n      pop\n        /* \"NFTES_Drop_flat.sol\":23688:23726  depositAmount(_msgSender(), msg.value) */\n      tag_155\n        /* \"NFTES_Drop_flat.sol\":23702:23714  _msgSender() */\n      tag_156\n        /* \"NFTES_Drop_flat.sol\":23702:23712  _msgSender */\n      tag_93\n        /* \"NFTES_Drop_flat.sol\":23702:23714  _msgSender() */\n      jump\t// in\n    tag_156:\n        /* \"NFTES_Drop_flat.sol\":23716:23725  msg.value */\n      callvalue\n        /* \"NFTES_Drop_flat.sol\":23688:23701  depositAmount */\n      tag_157\n        /* \"NFTES_Drop_flat.sol\":23688:23726  depositAmount(_msgSender(), msg.value) */\n      jump\t// in\n    tag_155:\n        /* \"NFTES_Drop_flat.sol\":23743:23761  dropsite_NFT_Owner */\n      0x0c\n        /* \"NFTES_Drop_flat.sol\":23743:23772  dropsite_NFT_Owner[user_addr] */\n      0x00\n        /* \"NFTES_Drop_flat.sol\":23762:23771  user_addr */\n      dup8\n        /* \"NFTES_Drop_flat.sol\":23743:23772  dropsite_NFT_Owner[user_addr] */\n      0xffffffffffffffffffffffffffffffffffffffff\n      and\n      0xffffffffffffffffffffffffffffffffffffffff\n      and\n      dup2\n      mstore\n      0x20\n      add\n      swap1\n      dup2\n      mstore\n      0x20\n      add\n      0x00\n      keccak256\n        /* \"NFTES_Drop_flat.sol\":23743:23792  dropsite_NFT_Owner[user_addr].owned_Dropsite_NFTs */\n      0x00\n      add\n        /* \"NFTES_Drop_flat.sol\":23736:23792  return dropsite_NFT_Owner[user_addr].owned_Dropsite_NFTs */\n      dup1\n      sload\n      dup1\n      0x20\n      mul\n      0x20\n      add\n      mload(0x40)\n      swap1\n      dup2\n      add\n      0x40\n      mstore\n      dup1\n      swap3\n      swap2\n      swap1\n      dup2\n      dup2\n      mstore\n      0x20\n      add\n      dup3\n      dup1\n      sload\n      dup1\n      iszero\n      tag_158\n      jumpi\n      0x20\n      mul\n      dup3\n      add\n      swap2\n      swap1\n      0x00\n      mstore\n      keccak256(0x00, 0x20)\n      swap1\n    tag_159:\n      dup2\n      sload\n      dup2\n      mstore\n      0x20\n      add\n      swap1\n      0x01\n      add\n      swap1\n      dup1\n      dup4\n      gt\n      tag_159\n      jumpi\n    tag_158:\n      pop\n      pop\n      pop\n      pop\n      pop\n      swap4\n      pop\n      pop\n      pop\n      pop\n        /* \"NFTES_Drop_flat.sol\":22850:23799  function cryptoRandomMint(address user_addr, uint256 noOfMints)... */\n      swap3\n      swap2\n      pop\n      pop\n      jump\t// out\n        /* \"NFTES_Drop_flat.sol\":21837:22635  function fiatRandomMint(address user_addr, uint256 noOfMints)... */\n    tag_48:\n        /* \"NFTES_Drop_flat.sol\":22001:22017  bytes32[] memory */\n      0x60\n        /* \"NFTES_Drop_flat.sol\":16205:16210  Owner */\n      0x0e\n      0x01\n      swap1\n      sload\n      swap1\n      0x0100\n      exp\n      swap1\n      div\n      0xffffffffffffffffffffffffffffffffffffffff\n      and\n        /* \"NFTES_Drop_flat.sol\":16189:16210  _msgSender() == Owner */\n      0xffffffffffffffffffffffffffffffffffffffff\n      and\n        /* \"NFTES_Drop_flat.sol\":16189:16201  _msgSender() */\n      tag_161\n        /* \"NFTES_Drop_flat.sol\":16189:16199  _msgSender */\n      tag_93\n        /* \"NFTES_Drop_flat.sol\":16189:16201  _msgSender() */\n      jump\t// in\n    tag_161:\n        /* \"NFTES_Drop_flat.sol\":16189:16210  _msgSender() == Owner */\n      0xffffffffffffffffffffffffffffffffffffffff\n      and\n      eq\n        /* \"NFTES_Drop_flat.sol\":16181:16243  require(_msgSender() == Owner, \"Only NFT-ES Owner can Access\") */\n      tag_162\n      jumpi\n      mload(0x40)\n      0x08c379a000000000000000000000000000000000000000000000000000000000\n      dup2\n      mstore\n      0x04\n      add\n      tag_163\n      swap1\n      tag_96\n      jump\t// in\n    tag_163:\n      mload(0x40)\n      dup1\n      swap2\n      sub\n      swap1\n      revert\n    tag_162:\n        /* \"NFTES_Drop_flat.sol\":16370:16375  false */\n      0x00\n        /* \"NFTES_Drop_flat.sol\":16358:16375  isPaused == false */\n      iszero\n      iszero\n        /* \"NFTES_Drop_flat.sol\":16358:16366  isPaused */\n      0x0e\n      0x00\n      swap1\n      sload\n      swap1\n      0x0100\n      exp\n      swap1\n      div\n      0xff\n      and\n        /* \"NFTES_Drop_flat.sol\":16358:16375  isPaused == false */\n      iszero\n      iszero\n      eq\n        /* \"NFTES_Drop_flat.sol\":16350:16407  require(isPaused == false, \"Dropsite is not Opened Yet.\") */\n      tag_165\n      jumpi\n      mload(0x40)\n      0x08c379a000000000000000000000000000000000000000000000000000000000\n      dup2\n      mstore\n      0x04\n      add\n      tag_166\n      swap1\n      tag_114\n      jump\t// in\n    tag_166:\n      mload(0x40)\n      dup1\n      swap2\n      sub\n      swap1\n      revert\n    tag_165:\n        /* \"NFTES_Drop_flat.sol\":16487:16488  0 */\n      0x00\n        /* \"NFTES_Drop_flat.sol\":16475:16483  mintFees */\n      sload(0x05)\n        /* \"NFTES_Drop_flat.sol\":16475:16488  mintFees != 0 */\n      eq\n      iszero\n        /* \"NFTES_Drop_flat.sol\":16467:16524  require(mintFees != 0, \"Owner Should set mint Fee First\") */\n      tag_168\n      jumpi\n      mload(0x40)\n      0x08c379a000000000000000000000000000000000000000000000000000000000\n      dup2\n      mstore\n      0x04\n      add\n      tag_169\n      swap1\n      tag_124\n      jump\t// in\n    tag_169:\n      mload(0x40)\n      dup1\n      swap2\n      sub\n      swap1\n      revert\n    tag_168:\n        /* \"NFTES_Drop_flat.sol\":22053:22054  4 */\n      0x04\n        /* \"NFTES_Drop_flat.sol\":22041:22050  noOfMints */\n      dup3\n        /* \"NFTES_Drop_flat.sol\":22041:22054  noOfMints < 4 */\n      lt\n        /* \"NFTES_Drop_flat.sol\":22041:22071  noOfMints < 4 && noOfMints > 0 */\n      dup1\n      iszero\n      tag_171\n      jumpi\n      pop\n        /* \"NFTES_Drop_flat.sol\":22070:22071  0 */\n      0x00\n        /* \"NFTES_Drop_flat.sol\":22058:22067  noOfMints */\n      dup3\n        /* \"NFTES_Drop_flat.sol\":22058:22071  noOfMints > 0 */\n      gt\n        /* \"NFTES_Drop_flat.sol\":22041:22071  noOfMints < 4 && noOfMints > 0 */\n    tag_171:\n        /* \"NFTES_Drop_flat.sol\":22033:22097  require(noOfMints < 4 && noOfMints > 0, \"You can mint 1-3 NFTs\") */\n      tag_172\n      jumpi\n      mload(0x40)\n      0x08c379a000000000000000000000000000000000000000000000000000000000\n      dup2\n      mstore\n      0x04\n      add\n      tag_173\n      swap1\n      tag_129\n      jump\t// in\n    tag_173:\n      mload(0x40)\n      dup1\n      swap2\n      sub\n      swap1\n      revert\n    tag_172:\n        /* \"NFTES_Drop_flat.sol\":22133:22137  1000 */\n      0x03e8\n        /* \"NFTES_Drop_flat.sol\":22115:22130  totalNFTsMinted */\n      sload(0x03)\n        /* \"NFTES_Drop_flat.sol\":22115:22137  totalNFTsMinted < 1000 */\n      lt\n        /* \"NFTES_Drop_flat.sol\":22107:22167  require(totalNFTsMinted < 1000, \"Max Minting Limit reached\") */\n      tag_174\n      jumpi\n      mload(0x40)\n      0x08c379a000000000000000000000000000000000000000000000000000000000\n      dup2\n      mstore\n      0x04\n      add\n      tag_175\n      swap1\n      tag_132\n      jump\t// in\n    tag_175:\n      mload(0x40)\n      dup1\n      swap2\n      sub\n      swap1\n      revert\n    tag_174:\n        /* \"NFTES_Drop_flat.sol\":22197:22198  0 */\n      0x00\n        /* \"NFTES_Drop_flat.sol\":22185:22193  mintFees */\n      sload(0x05)\n        /* \"NFTES_Drop_flat.sol\":22185:22198  mintFees != 0 */\n      eq\n      iszero\n        /* \"NFTES_Drop_flat.sol\":22177:22219  require(mintFees != 0, \"Mint Fee Not Set\") */\n      tag_176\n      jumpi\n      mload(0x40)\n      0x08c379a000000000000000000000000000000000000000000000000000000000\n      dup2\n      mstore\n      0x04\n      add\n      tag_177\n      swap1\n      tag_135\n      jump\t// in\n    tag_177:\n      mload(0x40)\n      dup1\n      swap2\n      sub\n      swap1\n      revert\n    tag_176:\n        /* \"NFTES_Drop_flat.sol\":22229:22247  uint returnedNftID */\n      0x00\n        /* \"NFTES_Drop_flat.sol\":22257:22286  string memory returnedNftData */\n      0x60\n        /* \"NFTES_Drop_flat.sol\":22296:22329  bytes32[] memory randomMintedNfts */\n      dup1\n        /* \"NFTES_Drop_flat.sol\":22344:22353  uint256 i */\n      0x00\n        /* \"NFTES_Drop_flat.sol\":22339:22596  for (uint256 i = 0; i < noOfMints; i++) {... */\n    tag_178:\n        /* \"NFTES_Drop_flat.sol\":22363:22372  noOfMints */\n      dup6\n        /* \"NFTES_Drop_flat.sol\":22359:22360  i */\n      dup2\n        /* \"NFTES_Drop_flat.sol\":22359:22372  i < noOfMints */\n      lt\n        /* \"NFTES_Drop_flat.sol\":22339:22596  for (uint256 i = 0; i < noOfMints; i++) {... */\n      iszero\n      tag_179\n      jumpi\n        /* \"NFTES_Drop_flat.sol\":22428:22452  randomMinting(user_addr) */\n      tag_181\n        /* \"NFTES_Drop_flat.sol\":22442:22451  user_addr */\n      dup8\n        /* \"NFTES_Drop_flat.sol\":22428:22441  randomMinting */\n      tag_145\n        /* \"NFTES_Drop_flat.sol\":22428:22452  randomMinting(user_addr) */\n      jump\t// in\n    tag_181:\n        /* \"NFTES_Drop_flat.sol\":22393:22452  (returnedNftID, returnedNftData) = randomMinting(user_addr) */\n      dup1\n      swap5\n      pop\n      dup2\n      swap6\n      pop\n      pop\n      pop\n        /* \"NFTES_Drop_flat.sol\":22535:22566  Strings.toString(returnedNftID) */\n      tag_182\n        /* \"NFTES_Drop_flat.sol\":22552:22565  returnedNftID */\n      dup5\n        /* \"NFTES_Drop_flat.sol\":22535:22551  Strings.toString */\n      tag_147\n        /* \"NFTES_Drop_flat.sol\":22535:22566  Strings.toString(returnedNftID) */\n      jump\t// in\n    tag_182:\n        /* \"NFTES_Drop_flat.sol\":22568:22583  returnedNftData */\n      dup4\n        /* \"NFTES_Drop_flat.sol\":22518:22584  abi.encodePacked(Strings.toString(returnedNftID), returnedNftData) */\n      add(0x20, mload(0x40))\n      tag_183\n      swap3\n      swap2\n      swap1\n      tag_149\n      jump\t// in\n    tag_183:\n      mload(0x40)\n      0x20\n      dup2\n      dup4\n      sub\n      sub\n      dup2\n      mstore\n      swap1\n      0x40\n      mstore\n        /* \"NFTES_Drop_flat.sol\":22510:22585  bytes32(abi.encodePacked(Strings.toString(returnedNftID), returnedNftData)) */\n      tag_184\n      swap1\n      tag_185\n      jump\t// in\n    tag_184:\n        /* \"NFTES_Drop_flat.sol\":22468:22484  randomMintedNfts */\n      dup3\n        /* \"NFTES_Drop_flat.sol\":22485:22486  i */\n      dup3\n        /* \"NFTES_Drop_flat.sol\":22468:22487  randomMintedNfts[i] */\n      dup2\n      mload\n      dup2\n      lt\n      tag_186\n      jumpi\n      tag_187\n      tag_152\n      jump\t// in\n    tag_187:\n    tag_186:\n      0x20\n      mul\n      0x20\n      add\n      add\n        /* \"NFTES_Drop_flat.sol\":22468:22585  randomMintedNfts[i]= ... */\n      dup2\n      dup2\n      mstore\n      pop\n      pop\n        /* \"NFTES_Drop_flat.sol\":22374:22377  i++ */\n      dup1\n      dup1\n      tag_188\n      swap1\n      tag_154\n      jump\t// in\n    tag_188:\n      swap2\n      pop\n      pop\n        /* \"NFTES_Drop_flat.sol\":22339:22596  for (uint256 i = 0; i < noOfMints; i++) {... */\n      jump(tag_178)\n    tag_179:\n      pop\n        /* \"NFTES_Drop_flat.sol\":22612:22628  randomMintedNfts */\n      dup1\n        /* \"NFTES_Drop_flat.sol\":22605:22628  return randomMintedNfts */\n      swap4\n      pop\n      pop\n      pop\n      pop\n        /* \"NFTES_Drop_flat.sol\":21837:22635  function fiatRandomMint(address user_addr, uint256 noOfMints)... */\n      swap3\n      swap2\n      pop\n      pop\n      jump\t// out\n        /* \"NFTES_Drop_flat.sol\":17544:17785  function checkMintedCategoryWise()... */\n    tag_53:\n        /* \"NFTES_Drop_flat.sol\":17683:17687  uint */\n      0x00\n        /* \"NFTES_Drop_flat.sol\":17701:17705  uint */\n      dup1\n        /* \"NFTES_Drop_flat.sol\":17719:17723  uint */\n      0x00\n        /* \"NFTES_Drop_flat.sol\":16205:16210  Owner */\n      0x0e\n      0x01\n      swap1\n      sload\n      swap1\n      0x0100\n      exp\n      swap1\n      div\n      0xffffffffffffffffffffffffffffffffffffffff\n      and\n        /* \"NFTES_Drop_flat.sol\":16189:16210  _msgSender() == Owner */\n      0xffffffffffffffffffffffffffffffffffffffff\n      and\n        /* \"NFTES_Drop_flat.sol\":16189:16201  _msgSender() */\n      tag_190\n        /* \"NFTES_Drop_flat.sol\":16189:16199  _msgSender */\n      tag_93\n        /* \"NFTES_Drop_flat.sol\":16189:16201  _msgSender() */\n      jump\t// in\n    tag_190:\n        /* \"NFTES_Drop_flat.sol\":16189:16210  _msgSender() == Owner */\n      0xffffffffffffffffffffffffffffffffffffffff\n      and\n      eq\n        /* \"NFTES_Drop_flat.sol\":16181:16243  require(_msgSender() == Owner, \"Only NFT-ES Owner can Access\") */\n      tag_191\n      jumpi\n      mload(0x40)\n      0x08c379a000000000000000000000000000000000000000000000000000000000\n      dup2\n      mstore\n      0x04\n      add\n      tag_192\n      swap1\n      tag_96\n      jump\t// in\n    tag_192:\n      mload(0x40)\n      dup1\n      swap2\n      sub\n      swap1\n      revert\n    tag_191:\n        /* \"NFTES_Drop_flat.sol\":16370:16375  false */\n      0x00\n        /* \"NFTES_Drop_flat.sol\":16358:16375  isPaused == false */\n      iszero\n      iszero\n        /* \"NFTES_Drop_flat.sol\":16358:16366  isPaused */\n      0x0e\n      0x00\n      swap1\n      sload\n      swap1\n      0x0100\n      exp\n      swap1\n      div\n      0xff\n      and\n        /* \"NFTES_Drop_flat.sol\":16358:16375  isPaused == false */\n      iszero\n      iszero\n      eq\n        /* \"NFTES_Drop_flat.sol\":16350:16407  require(isPaused == false, \"Dropsite is not Opened Yet.\") */\n      tag_194\n      jumpi\n      mload(0x40)\n      0x08c379a000000000000000000000000000000000000000000000000000000000\n      dup2\n      mstore\n      0x04\n      add\n      tag_195\n      swap1\n      tag_114\n      jump\t// in\n    tag_195:\n      mload(0x40)\n      dup1\n      swap2\n      sub\n      swap1\n      revert\n    tag_194:\n        /* \"NFTES_Drop_flat.sol\":17756:17763  Diamond */\n      sload(0x06)\n        /* \"NFTES_Drop_flat.sol\":17765:17769  Gold */\n      sload(0x07)\n        /* \"NFTES_Drop_flat.sol\":17771:17777  Silver */\n      sload(0x08)\n        /* \"NFTES_Drop_flat.sol\":17748:17778  return (Diamond, Gold, Silver) */\n      swap3\n      pop\n      swap3\n      pop\n      swap3\n      pop\n        /* \"NFTES_Drop_flat.sol\":17544:17785  function checkMintedCategoryWise()... */\n      swap1\n      swap2\n      swap3\n      jump\t// out\n        /* \"NFTES_Drop_flat.sol\":17951:18063  function getMintFee()... */\n    tag_58:\n        /* \"NFTES_Drop_flat.sol\":18018:18025  uint256 */\n      0x00\n        /* \"NFTES_Drop_flat.sol\":18048:18056  mintFees */\n      sload(0x05)\n        /* \"NFTES_Drop_flat.sol\":18041:18056  return mintFees */\n      swap1\n      pop\n        /* \"NFTES_Drop_flat.sol\":17951:18063  function getMintFee()... */\n      swap1\n      jump\t// out\n        /* \"NFTES_Drop_flat.sol\":18843:18955  function contractBalance() public view OnlyOwner returns (uint256) {... */\n    tag_62:\n        /* \"NFTES_Drop_flat.sol\":18901:18908  uint256 */\n      0x00\n        /* \"NFTES_Drop_flat.sol\":16205:16210  Owner */\n      0x0e\n      0x01\n      swap1\n      sload\n      swap1\n      0x0100\n      exp\n      swap1\n      div\n      0xffffffffffffffffffffffffffffffffffffffff\n      and\n        /* \"NFTES_Drop_flat.sol\":16189:16210  _msgSender() == Owner */\n      0xffffffffffffffffffffffffffffffffffffffff\n      and\n        /* \"NFTES_Drop_flat.sol\":16189:16201  _msgSender() */\n      tag_199\n        /* \"NFTES_Drop_flat.sol\":16189:16199  _msgSender */\n      tag_93\n        /* \"NFTES_Drop_flat.sol\":16189:16201  _msgSender() */\n      jump\t// in\n    tag_199:\n        /* \"NFTES_Drop_flat.sol\":16189:16210  _msgSender() == Owner */\n      0xffffffffffffffffffffffffffffffffffffffff\n      and\n      eq\n        /* \"NFTES_Drop_flat.sol\":16181:16243  require(_msgSender() == Owner, \"Only NFT-ES Owner can Access\") */\n      tag_200\n      jumpi\n      mload(0x40)\n      0x08c379a000000000000000000000000000000000000000000000000000000000\n      dup2\n      mstore\n      0x04\n      add\n      tag_201\n      swap1\n      tag_96\n      jump\t// in\n    tag_201:\n      mload(0x40)\n      dup1\n      swap2\n      sub\n      swap1\n      revert\n    tag_200:\n        /* \"NFTES_Drop_flat.sol\":18927:18948  address(this).balance */\n      selfbalance\n        /* \"NFTES_Drop_flat.sol\":18920:18948  return address(this).balance */\n      swap1\n      pop\n        /* \"NFTES_Drop_flat.sol\":18843:18955  function contractBalance() public view OnlyOwner returns (uint256) {... */\n      swap1\n      jump\t// out\n        /* \"NFTES_Drop_flat.sol\":17091:17245  function changeOwner(address newOwnerAddr)... */\n    tag_67:\n        /* \"NFTES_Drop_flat.sol\":16205:16210  Owner */\n      0x0e\n      0x01\n      swap1\n      sload\n      swap1\n      0x0100\n      exp\n      swap1\n      div\n      0xffffffffffffffffffffffffffffffffffffffff\n      and\n        /* \"NFTES_Drop_flat.sol\":16189:16210  _msgSender() == Owner */\n      0xffffffffffffffffffffffffffffffffffffffff\n      and\n        /* \"NFTES_Drop_flat.sol\":16189:16201  _msgSender() */\n      tag_204\n        /* \"NFTES_Drop_flat.sol\":16189:16199  _msgSender */\n      tag_93\n        /* \"NFTES_Drop_flat.sol\":16189:16201  _msgSender() */\n      jump\t// in\n    tag_204:\n        /* \"NFTES_Drop_flat.sol\":16189:16210  _msgSender() == Owner */\n      0xffffffffffffffffffffffffffffffffffffffff\n      and\n      eq\n        /* \"NFTES_Drop_flat.sol\":16181:16243  require(_msgSender() == Owner, \"Only NFT-ES Owner can Access\") */\n      tag_205\n      jumpi\n      mload(0x40)\n      0x08c379a000000000000000000000000000000000000000000000000000000000\n      dup2\n      mstore\n      0x04\n      add\n      tag_206\n      swap1\n      tag_96\n      jump\t// in\n    tag_206:\n      mload(0x40)\n      dup1\n      swap2\n      sub\n      swap1\n      revert\n    tag_205:\n        /* \"NFTES_Drop_flat.sol\":16370:16375  false */\n      0x00\n        /* \"NFTES_Drop_flat.sol\":16358:16375  isPaused == false */\n      iszero\n      iszero\n        /* \"NFTES_Drop_flat.sol\":16358:16366  isPaused */\n      0x0e\n      0x00\n      swap1\n      sload\n      swap1\n      0x0100\n      exp\n      swap1\n      div\n      0xff\n      and\n        /* \"NFTES_Drop_flat.sol\":16358:16375  isPaused == false */\n      iszero\n      iszero\n      eq\n        /* \"NFTES_Drop_flat.sol\":16350:16407  require(isPaused == false, \"Dropsite is not Opened Yet.\") */\n      tag_208\n      jumpi\n      mload(0x40)\n      0x08c379a000000000000000000000000000000000000000000000000000000000\n      dup2\n      mstore\n      0x04\n      add\n      tag_209\n      swap1\n      tag_114\n      jump\t// in\n    tag_209:\n      mload(0x40)\n      dup1\n      swap2\n      sub\n      swap1\n      revert\n    tag_208:\n        /* \"NFTES_Drop_flat.sol\":17225:17237  newOwnerAddr */\n      dup1\n        /* \"NFTES_Drop_flat.sol\":17209:17214  Owner */\n      0x0e\n      0x01\n        /* \"NFTES_Drop_flat.sol\":17209:17238  Owner = payable(newOwnerAddr) */\n      0x0100\n      exp\n      dup2\n      sload\n      dup2\n      0xffffffffffffffffffffffffffffffffffffffff\n      mul\n      not\n      and\n      swap1\n      dup4\n      0xffffffffffffffffffffffffffffffffffffffff\n      and\n      mul\n      or\n      swap1\n      sstore\n      pop\n        /* \"NFTES_Drop_flat.sol\":17091:17245  function changeOwner(address newOwnerAddr)... */\n      pop\n      jump\t// out\n        /* \"NFTES_Drop_flat.sol\":18205:18345  function stopDropsite() public OnlyOwner {... */\n    tag_70:\n        /* \"NFTES_Drop_flat.sol\":16205:16210  Owner */\n      0x0e\n      0x01\n      swap1\n      sload\n      swap1\n      0x0100\n      exp\n      swap1\n      div\n      0xffffffffffffffffffffffffffffffffffffffff\n      and\n        /* \"NFTES_Drop_flat.sol\":16189:16210  _msgSender() == Owner */\n      0xffffffffffffffffffffffffffffffffffffffff\n      and\n        /* \"NFTES_Drop_flat.sol\":16189:16201  _msgSender() */\n      tag_212\n        /* \"NFTES_Drop_flat.sol\":16189:16199  _msgSender */\n      tag_93\n        /* \"NFTES_Drop_flat.sol\":16189:16201  _msgSender() */\n      jump\t// in\n    tag_212:\n        /* \"NFTES_Drop_flat.sol\":16189:16210  _msgSender() == Owner */\n      0xffffffffffffffffffffffffffffffffffffffff\n      and\n      eq\n        /* \"NFTES_Drop_flat.sol\":16181:16243  require(_msgSender() == Owner, \"Only NFT-ES Owner can Access\") */\n      tag_213\n      jumpi\n      mload(0x40)\n      0x08c379a000000000000000000000000000000000000000000000000000000000\n      dup2\n      mstore\n      0x04\n      add\n      tag_214\n      swap1\n      tag_96\n      jump\t// in\n    tag_214:\n      mload(0x40)\n      dup1\n      swap2\n      sub\n      swap1\n      revert\n    tag_213:\n        /* \"NFTES_Drop_flat.sol\":18276:18281  false */\n      0x00\n        /* \"NFTES_Drop_flat.sol\":18264:18281  isPaused == false */\n      iszero\n      iszero\n        /* \"NFTES_Drop_flat.sol\":18264:18272  isPaused */\n      0x0e\n      0x00\n      swap1\n      sload\n      swap1\n      0x0100\n      exp\n      swap1\n      div\n      0xff\n      and\n        /* \"NFTES_Drop_flat.sol\":18264:18281  isPaused == false */\n      iszero\n      iszero\n      eq\n        /* \"NFTES_Drop_flat.sol\":18256:18313  require(isPaused == false, \"Dropsite is already Stopped\") */\n      tag_216\n      jumpi\n      mload(0x40)\n      0x08c379a000000000000000000000000000000000000000000000000000000000\n      dup2\n      mstore\n      0x04\n      add\n      tag_217\n      swap1\n      tag_218\n      jump\t// in\n    tag_217:\n      mload(0x40)\n      dup1\n      swap2\n      sub\n      swap1\n      revert\n    tag_216:\n        /* \"NFTES_Drop_flat.sol\":18334:18338  true */\n      0x01\n        /* \"NFTES_Drop_flat.sol\":18323:18331  isPaused */\n      0x0e\n      0x00\n        /* \"NFTES_Drop_flat.sol\":18323:18338  isPaused = true */\n      0x0100\n      exp\n      dup2\n      sload\n      dup2\n      0xff\n      mul\n      not\n      and\n      swap1\n      dup4\n      iszero\n      iszero\n      mul\n      or\n      swap1\n      sstore\n      pop\n        /* \"NFTES_Drop_flat.sol\":18205:18345  function stopDropsite() public OnlyOwner {... */\n      jump\t// out\n        /* \"NFTES_Drop_flat.sol\":16547:16574  bool public isPaused = true */\n    tag_73:\n      0x0e\n      0x00\n      swap1\n      sload\n      swap1\n      0x0100\n      exp\n      swap1\n      div\n      0xff\n      and\n      dup2\n      jump\t// out\n        /* \"NFTES_Drop_flat.sol\":16580:16608  address payable public Owner */\n    tag_78:\n      0x0e\n      0x01\n      swap1\n      sload\n      swap1\n      0x0100\n      exp\n      swap1\n      div\n      0xffffffffffffffffffffffffffffffffffffffff\n      and\n      dup2\n      jump\t// out\n        /* \"NFTES_Drop_flat.sol\":16964:17086  function isAdmin() public view returns (bool){... */\n    tag_83:\n        /* \"NFTES_Drop_flat.sol\":17004:17008  bool */\n      0x00\n        /* \"NFTES_Drop_flat.sol\":17034:17039  Owner */\n      0x0e\n      0x01\n      swap1\n      sload\n      swap1\n      0x0100\n      exp\n      swap1\n      div\n      0xffffffffffffffffffffffffffffffffffffffff\n      and\n        /* \"NFTES_Drop_flat.sol\":17022:17039  msg.sender==Owner */\n      0xffffffffffffffffffffffffffffffffffffffff\n      and\n        /* \"NFTES_Drop_flat.sol\":17022:17032  msg.sender */\n      caller\n        /* \"NFTES_Drop_flat.sol\":17022:17039  msg.sender==Owner */\n      0xffffffffffffffffffffffffffffffffffffffff\n      and\n      eq\n        /* \"NFTES_Drop_flat.sol\":17019:17079  if(msg.sender==Owner) return true;... */\n      iszero\n      tag_220\n      jumpi\n        /* \"NFTES_Drop_flat.sol\":17048:17052  true */\n      0x01\n        /* \"NFTES_Drop_flat.sol\":17041:17052  return true */\n      swap1\n      pop\n      jump(tag_219)\n        /* \"NFTES_Drop_flat.sol\":17019:17079  if(msg.sender==Owner) return true;... */\n    tag_220:\n        /* \"NFTES_Drop_flat.sol\":17074:17079  false */\n      0x00\n        /* \"NFTES_Drop_flat.sol\":17067:17079  return false */\n      swap1\n      pop\n        /* \"NFTES_Drop_flat.sol\":16964:17086  function isAdmin() public view returns (bool){... */\n    tag_219:\n      swap1\n      jump\t// out\n        /* \"NFTES_Drop_flat.sol\":17829:17918  function setMintFee(uint _mintFee) public OnlyOwner  {... */\n    tag_89:\n        /* \"NFTES_Drop_flat.sol\":16205:16210  Owner */\n      0x0e\n      0x01\n      swap1\n      sload\n      swap1\n      0x0100\n      exp\n      swap1\n      div\n      0xffffffffffffffffffffffffffffffffffffffff\n      and\n        /* \"NFTES_Drop_flat.sol\":16189:16210  _msgSender() == Owner */\n      0xffffffffffffffffffffffffffffffffffffffff\n      and\n        /* \"NFTES_Drop_flat.sol\":16189:16201  _msgSender() */\n      tag_223\n        /* \"NFTES_Drop_flat.sol\":16189:16199  _msgSender */\n      tag_93\n        /* \"NFTES_Drop_flat.sol\":16189:16201  _msgSender() */\n      jump\t// in\n    tag_223:\n        /* \"NFTES_Drop_flat.sol\":16189:16210  _msgSender() == Owner */\n      0xffffffffffffffffffffffffffffffffffffffff\n      and\n      eq\n        /* \"NFTES_Drop_flat.sol\":16181:16243  require(_msgSender() == Owner, \"Only NFT-ES Owner can Access\") */\n      tag_224\n      jumpi\n      mload(0x40)\n      0x08c379a000000000000000000000000000000000000000000000000000000000\n      dup2\n      mstore\n      0x04\n      add\n      tag_225\n      swap1\n      tag_96\n      jump\t// in\n    tag_225:\n      mload(0x40)\n      dup1\n      swap2\n      sub\n      swap1\n      revert\n    tag_224:\n        /* \"NFTES_Drop_flat.sol\":17903:17911  _mintFee */\n      dup1\n        /* \"NFTES_Drop_flat.sol\":17892:17900  mintFees */\n      0x05\n        /* \"NFTES_Drop_flat.sol\":17892:17911  mintFees = _mintFee */\n      dup2\n      swap1\n      sstore\n      pop\n        /* \"NFTES_Drop_flat.sol\":17829:17918  function setMintFee(uint _mintFee) public OnlyOwner  {... */\n      pop\n      jump\t// out\n        /* \"NFTES_Drop_flat.sol\":2608:2704  function _msgSender() internal view virtual returns (address) {... */\n    tag_93:\n        /* \"NFTES_Drop_flat.sol\":2661:2668  address */\n      0x00\n        /* \"NFTES_Drop_flat.sol\":2687:2697  msg.sender */\n      caller\n        /* \"NFTES_Drop_flat.sol\":2680:2697  return msg.sender */\n      swap1\n      pop\n        /* \"NFTES_Drop_flat.sol\":2608:2704  function _msgSender() internal view virtual returns (address) {... */\n      swap1\n      jump\t// out\n        /* \"NFTES_Drop_flat.sol\":21308:21790  function randomMinting(address user_addr)... */\n    tag_145:\n        /* \"NFTES_Drop_flat.sol\":21412:21419  uint256 */\n      0x00\n        /* \"NFTES_Drop_flat.sol\":21421:21434  string memory */\n      0x60\n        /* \"NFTES_Drop_flat.sol\":16370:16375  false */\n      0x00\n        /* \"NFTES_Drop_flat.sol\":16358:16375  isPaused == false */\n      iszero\n      iszero\n        /* \"NFTES_Drop_flat.sol\":16358:16366  isPaused */\n      0x0e\n      0x00\n      swap1\n      sload\n      swap1\n      0x0100\n      exp\n      swap1\n      div\n      0xff\n      and\n        /* \"NFTES_Drop_flat.sol\":16358:16375  isPaused == false */\n      iszero\n      iszero\n      eq\n        /* \"NFTES_Drop_flat.sol\":16350:16407  require(isPaused == false, \"Dropsite is not Opened Yet.\") */\n      tag_229\n      jumpi\n      mload(0x40)\n      0x08c379a000000000000000000000000000000000000000000000000000000000\n      dup2\n      mstore\n      0x04\n      add\n      tag_230\n      swap1\n      tag_114\n      jump\t// in\n    tag_230:\n      mload(0x40)\n      dup1\n      swap2\n      sub\n      swap1\n      revert\n    tag_229:\n        /* \"NFTES_Drop_flat.sol\":21530:21543  uint256 index */\n      0x00\n        /* \"NFTES_Drop_flat.sol\":21546:21554  random() */\n      tag_232\n        /* \"NFTES_Drop_flat.sol\":21546:21552  random */\n      tag_233\n        /* \"NFTES_Drop_flat.sol\":21546:21554  random() */\n      jump\t// in\n    tag_232:\n        /* \"NFTES_Drop_flat.sol\":21530:21554  uint256 index = random() */\n      swap1\n      pop\n        /* \"NFTES_Drop_flat.sol\":21564:21577  uint256 nftId */\n      0x00\n        /* \"NFTES_Drop_flat.sol\":21580:21603  updateConditions(index) */\n      tag_234\n        /* \"NFTES_Drop_flat.sol\":21597:21602  index */\n      dup3\n        /* \"NFTES_Drop_flat.sol\":21580:21596  updateConditions */\n      tag_235\n        /* \"NFTES_Drop_flat.sol\":21580:21603  updateConditions(index) */\n      jump\t// in\n    tag_234:\n        /* \"NFTES_Drop_flat.sol\":21564:21603  uint256 nftId = updateConditions(index) */\n      swap1\n      pop\n        /* \"NFTES_Drop_flat.sol\":21613:21655  _mint(user_addr, nftId, numOfCopies, data) */\n      tag_236\n        /* \"NFTES_Drop_flat.sol\":21619:21628  user_addr */\n      dup6\n        /* \"NFTES_Drop_flat.sol\":21630:21635  nftId */\n      dup3\n        /* \"NFTES_Drop_flat.sol\":21637:21648  numOfCopies */\n      sload(0x04)\n        /* \"NFTES_Drop_flat.sol\":21650:21654  data */\n      0x02\n        /* \"NFTES_Drop_flat.sol\":21613:21655  _mint(user_addr, nftId, numOfCopies, data) */\n      dup1\n      sload\n      tag_237\n      swap1\n      tag_238\n      jump\t// in\n    tag_237:\n      dup1\n      0x1f\n      add\n      0x20\n      dup1\n      swap2\n      div\n      mul\n      0x20\n      add\n      mload(0x40)\n      swap1\n      dup2\n      add\n      0x40\n      mstore\n      dup1\n      swap3\n      swap2\n      swap1\n      dup2\n      dup2\n      mstore\n      0x20\n      add\n      dup3\n      dup1\n      sload\n      tag_239\n      swap1\n      tag_238\n      jump\t// in\n    tag_239:\n      dup1\n      iszero\n      tag_240\n      jumpi\n      dup1\n      0x1f\n      lt\n      tag_241\n      jumpi\n      0x0100\n      dup1\n      dup4\n      sload\n      div\n      mul\n      dup4\n      mstore\n      swap2\n      0x20\n      add\n      swap2\n      jump(tag_240)\n    tag_241:\n      dup3\n      add\n      swap2\n      swap1\n      0x00\n      mstore\n      keccak256(0x00, 0x20)\n      swap1\n    tag_242:\n      dup2\n      sload\n      dup2\n      mstore\n      swap1\n      0x01\n      add\n      swap1\n      0x20\n      add\n      dup1\n      dup4\n      gt\n      tag_242\n      jumpi\n      dup3\n      swap1\n      sub\n      0x1f\n      and\n      dup3\n      add\n      swap2\n    tag_240:\n      pop\n      pop\n      pop\n      pop\n      pop\n        /* \"NFTES_Drop_flat.sol\":21613:21618  _mint */\n      tag_243\n        /* \"NFTES_Drop_flat.sol\":21613:21655  _mint(user_addr, nftId, numOfCopies, data) */\n      jump\t// in\n    tag_236:\n        /* \"NFTES_Drop_flat.sol\":21665:21680  totalNFTsMinted */\n      0x03\n      0x00\n        /* \"NFTES_Drop_flat.sol\":21665:21682  totalNFTsMinted++ */\n      dup2\n      sload\n      dup1\n      swap3\n      swap2\n      swap1\n      tag_244\n      swap1\n      tag_154\n      jump\t// in\n    tag_244:\n      swap2\n      swap1\n      pop\n      sstore\n      pop\n        /* \"NFTES_Drop_flat.sol\":21692:21710  dropsite_NFT_Owner */\n      0x0c\n        /* \"NFTES_Drop_flat.sol\":21692:21721  dropsite_NFT_Owner[user_addr] */\n      0x00\n        /* \"NFTES_Drop_flat.sol\":21711:21720  user_addr */\n      dup7\n        /* \"NFTES_Drop_flat.sol\":21692:21721  dropsite_NFT_Owner[user_addr] */\n      0xffffffffffffffffffffffffffffffffffffffff\n      and\n      0xffffffffffffffffffffffffffffffffffffffff\n      and\n      dup2\n      mstore\n      0x20\n      add\n      swap1\n      dup2\n      mstore\n      0x20\n      add\n      0x00\n      keccak256\n        /* \"NFTES_Drop_flat.sol\":21692:21741  dropsite_NFT_Owner[user_addr].owned_Dropsite_NFTs */\n      0x00\n      add\n        /* \"NFTES_Drop_flat.sol\":21747:21752  nftId */\n      dup2\n        /* \"NFTES_Drop_flat.sol\":21692:21753  dropsite_NFT_Owner[user_addr].owned_Dropsite_NFTs.push(nftId) */\n      swap1\n      dup1\n      0x01\n      dup2\n      sload\n      add\n      dup1\n      dup3\n      sstore\n      dup1\n      swap2\n      pop\n      pop\n      0x01\n      swap1\n      sub\n      swap1\n      0x00\n      mstore\n      keccak256(0x00, 0x20)\n      add\n      0x00\n      swap1\n      swap2\n      swap1\n      swap2\n      swap1\n      swap2\n      pop\n      sstore\n        /* \"NFTES_Drop_flat.sol\":21771:21776  nftId */\n      dup1\n        /* \"NFTES_Drop_flat.sol\":21778:21782  data */\n      0x02\n        /* \"NFTES_Drop_flat.sol\":21763:21783  return (nftId, data) */\n      dup1\n      dup1\n      sload\n      tag_246\n      swap1\n      tag_238\n      jump\t// in\n    tag_246:\n      dup1\n      0x1f\n      add\n      0x20\n      dup1\n      swap2\n      div\n      mul\n      0x20\n      add\n      mload(0x40)\n      swap1\n      dup2\n      add\n      0x40\n      mstore\n      dup1\n      swap3\n      swap2\n      swap1\n      dup2\n      dup2\n      mstore\n      0x20\n      add\n      dup3\n      dup1\n      sload\n      tag_247\n      swap1\n      tag_238\n      jump\t// in\n    tag_247:\n      dup1\n      iszero\n      tag_248\n      jumpi\n      dup1\n      0x1f\n      lt\n      tag_249\n      jumpi\n      0x0100\n      dup1\n      dup4\n      sload\n      div\n      mul\n      dup4\n      mstore\n      swap2\n      0x20\n      add\n      swap2\n      jump(tag_248)\n    tag_249:\n      dup3\n      add\n      swap2\n      swap1\n      0x00\n      mstore\n      keccak256(0x00, 0x20)\n      swap1\n    tag_250:\n      dup2\n      sload\n      dup2\n      mstore\n      swap1\n      0x01\n      add\n      swap1\n      0x20\n      add\n      dup1\n      dup4\n      gt\n      tag_250\n      jumpi\n      dup3\n      swap1\n      sub\n      0x1f\n      and\n      dup3\n      add\n      swap2\n    tag_248:\n      pop\n      pop\n      pop\n      pop\n      pop\n      swap1\n      pop\n      swap4\n      pop\n      swap4\n      pop\n      pop\n      pop\n        /* \"NFTES_Drop_flat.sol\":21308:21790  function randomMinting(address user_addr)... */\n      swap2\n      pop\n      swap2\n      jump\t// out\n        /* \"NFTES_Drop_flat.sol\":273:976  function toString(uint256 value) internal pure returns (string memory) {... */\n    tag_147:\n        /* \"NFTES_Drop_flat.sol\":329:342  string memory */\n      0x60\n        /* \"NFTES_Drop_flat.sol\":555:556  0 */\n      0x00\n        /* \"NFTES_Drop_flat.sol\":546:551  value */\n      dup3\n        /* \"NFTES_Drop_flat.sol\":546:556  value == 0 */\n      eq\n        /* \"NFTES_Drop_flat.sol\":542:593  if (value == 0) {... */\n      iszero\n      tag_252\n      jumpi\n        /* \"NFTES_Drop_flat.sol\":572:582  return \"0\" */\n      mload(0x40)\n      dup1\n      0x40\n      add\n      0x40\n      mstore\n      dup1\n      0x01\n      dup2\n      mstore\n      0x20\n      add\n      0x3000000000000000000000000000000000000000000000000000000000000000\n      dup2\n      mstore\n      pop\n      swap1\n      pop\n      jump(tag_251)\n        /* \"NFTES_Drop_flat.sol\":542:593  if (value == 0) {... */\n    tag_252:\n        /* \"NFTES_Drop_flat.sol\":602:614  uint256 temp */\n      0x00\n        /* \"NFTES_Drop_flat.sol\":617:622  value */\n      dup3\n        /* \"NFTES_Drop_flat.sol\":602:622  uint256 temp = value */\n      swap1\n      pop\n        /* \"NFTES_Drop_flat.sol\":632:646  uint256 digits */\n      0x00\n        /* \"NFTES_Drop_flat.sol\":656:731  while (temp != 0) {... */\n    tag_253:\n        /* \"NFTES_Drop_flat.sol\":671:672  0 */\n      0x00\n        /* \"NFTES_Drop_flat.sol\":663:667  temp */\n      dup3\n        /* \"NFTES_Drop_flat.sol\":663:672  temp != 0 */\n      eq\n        /* \"NFTES_Drop_flat.sol\":656:731  while (temp != 0) {... */\n      tag_254\n      jumpi\n        /* \"NFTES_Drop_flat.sol\":688:696  digits++ */\n      dup1\n      dup1\n      tag_255\n      swap1\n      tag_154\n      jump\t// in\n    tag_255:\n      swap2\n      pop\n      pop\n        /* \"NFTES_Drop_flat.sol\":718:720  10 */\n      0x0a\n        /* \"NFTES_Drop_flat.sol\":710:720  temp /= 10 */\n      dup3\n      tag_256\n      swap2\n      swap1\n      tag_257\n      jump\t// in\n    tag_256:\n      swap2\n      pop\n        /* \"NFTES_Drop_flat.sol\":656:731  while (temp != 0) {... */\n      jump(tag_253)\n    tag_254:\n        /* \"NFTES_Drop_flat.sol\":740:759  bytes memory buffer */\n      0x00\n        /* \"NFTES_Drop_flat.sol\":772:778  digits */\n      dup2\n        /* \"NFTES_Drop_flat.sol\":762:779  new bytes(digits) */\n      0xffffffffffffffff\n      dup2\n      gt\n      iszero\n      tag_258\n      jumpi\n      tag_259\n      tag_260\n      jump\t// in\n    tag_259:\n    tag_258:\n      mload(0x40)\n      swap1\n      dup1\n      dup3\n      mstore\n      dup1\n      0x1f\n      add\n      not(0x1f)\n      and\n      0x20\n      add\n      dup3\n      add\n      0x40\n      mstore\n      dup1\n      iszero\n      tag_261\n      jumpi\n      dup2\n      0x20\n      add\n      0x01\n      dup3\n      mul\n      dup1\n      calldatasize\n      dup4\n      calldatacopy\n      dup1\n      dup3\n      add\n      swap2\n      pop\n      pop\n      swap1\n      pop\n    tag_261:\n      pop\n        /* \"NFTES_Drop_flat.sol\":740:779  bytes memory buffer = new bytes(digits) */\n      swap1\n      pop\n        /* \"NFTES_Drop_flat.sol\":789:939  while (value != 0) {... */\n    tag_262:\n        /* \"NFTES_Drop_flat.sol\":805:806  0 */\n      0x00\n        /* \"NFTES_Drop_flat.sol\":796:801  value */\n      dup6\n        /* \"NFTES_Drop_flat.sol\":796:806  value != 0 */\n      eq\n        /* \"NFTES_Drop_flat.sol\":789:939  while (value != 0) {... */\n      tag_263\n      jumpi\n        /* \"NFTES_Drop_flat.sol\":832:833  1 */\n      0x01\n        /* \"NFTES_Drop_flat.sol\":822:833  digits -= 1 */\n      dup3\n      tag_264\n      swap2\n      swap1\n      tag_265\n      jump\t// in\n    tag_264:\n      swap2\n      pop\n        /* \"NFTES_Drop_flat.sol\":898:900  10 */\n      0x0a\n        /* \"NFTES_Drop_flat.sol\":890:895  value */\n      dup6\n        /* \"NFTES_Drop_flat.sol\":890:900  value % 10 */\n      tag_266\n      swap2\n      swap1\n      tag_267\n      jump\t// in\n    tag_266:\n        /* \"NFTES_Drop_flat.sol\":877:879  48 */\n      0x30\n        /* \"NFTES_Drop_flat.sol\":877:901  48 + uint256(value % 10) */\n      tag_268\n      swap2\n      swap1\n      tag_269\n      jump\t// in\n    tag_268:\n        /* \"NFTES_Drop_flat.sol\":864:903  bytes1(uint8(48 + uint256(value % 10))) */\n      0xf8\n      shl\n        /* \"NFTES_Drop_flat.sol\":847:853  buffer */\n      dup2\n        /* \"NFTES_Drop_flat.sol\":854:860  digits */\n      dup4\n        /* \"NFTES_Drop_flat.sol\":847:861  buffer[digits] */\n      dup2\n      mload\n      dup2\n      lt\n      tag_270\n      jumpi\n      tag_271\n      tag_152\n      jump\t// in\n    tag_271:\n    tag_270:\n      0x20\n      add\n      add\n        /* \"NFTES_Drop_flat.sol\":847:903  buffer[digits] = bytes1(uint8(48 + uint256(value % 10))) */\n      swap1\n      not(0xffffffffffffffffffffffffffffffffffffffffffffffffffffffffffffff)\n      and\n      swap1\n      dup2\n      0x00\n      byte\n      swap1\n      mstore8\n      pop\n        /* \"NFTES_Drop_flat.sol\":926:928  10 */\n      0x0a\n        /* \"NFTES_Drop_flat.sol\":917:928  value /= 10 */\n      dup6\n      tag_272\n      swap2\n      swap1\n      tag_257\n      jump\t// in\n    tag_272:\n      swap5\n      pop\n        /* \"NFTES_Drop_flat.sol\":789:939  while (value != 0) {... */\n      jump(tag_262)\n    tag_263:\n        /* \"NFTES_Drop_flat.sol\":962:968  buffer */\n      dup1\n        /* \"NFTES_Drop_flat.sol\":948:969  return string(buffer) */\n      swap4\n      pop\n      pop\n      pop\n      pop\n        /* \"NFTES_Drop_flat.sol\":273:976  function toString(uint256 value) internal pure returns (string memory) {... */\n    tag_251:\n      swap2\n      swap1\n      pop\n      jump\t// out\n        /* \"NFTES_Drop_flat.sol\":22678:22801  function depositAmount(address payee, uint256 amountToDeposit) internal {... */\n    tag_157:\n        /* \"NFTES_Drop_flat.sol\":22779:22794  amountToDeposit */\n      dup1\n        /* \"NFTES_Drop_flat.sol\":22760:22768  deposits */\n      0x0d\n        /* \"NFTES_Drop_flat.sol\":22760:22775  deposits[payee] */\n      0x00\n        /* \"NFTES_Drop_flat.sol\":22769:22774  payee */\n      dup5\n        /* \"NFTES_Drop_flat.sol\":22760:22775  deposits[payee] */\n      0xffffffffffffffffffffffffffffffffffffffff\n      and\n      0xffffffffffffffffffffffffffffffffffffffff\n      and\n      dup2\n      mstore\n      0x20\n      add\n      swap1\n      dup2\n      mstore\n      0x20\n      add\n      0x00\n      keccak256\n      0x00\n        /* \"NFTES_Drop_flat.sol\":22760:22794  deposits[payee] += amountToDeposit */\n      dup3\n      dup3\n      sload\n      tag_274\n      swap2\n      swap1\n      tag_269\n      jump\t// in\n    tag_274:\n      swap3\n      pop\n      pop\n      dup2\n      swap1\n      sstore\n      pop\n        /* \"NFTES_Drop_flat.sol\":22678:22801  function depositAmount(address payee, uint256 amountToDeposit) internal {... */\n      pop\n      pop\n      jump\t// out\n        /* \"NFTES_Drop_flat.sol\":19066:19608  function random() internal view returns (uint256) {... */\n    tag_233:\n        /* \"NFTES_Drop_flat.sol\":19107:19114  uint256 */\n      0x00\n        /* \"NFTES_Drop_flat.sol\":19203:19223  uint256 randomnumber */\n      dup1\n        /* \"NFTES_Drop_flat.sol\":19463:19470  Diamond */\n      sload(0x06)\n        /* \"NFTES_Drop_flat.sol\":19432:19436  Gold */\n      sload(0x07)\n        /* \"NFTES_Drop_flat.sol\":19399:19405  Silver */\n      sload(0x08)\n        /* \"NFTES_Drop_flat.sol\":19357:19372  totalNFTsMinted */\n      sload(0x03)\n        /* \"NFTES_Drop_flat.sol\":19314:19329  block.timestamp */\n      timestamp\n        /* \"NFTES_Drop_flat.sol\":19313:19372  (block.timestamp) +... */\n      tag_276\n      swap2\n      swap1\n      tag_269\n      jump\t// in\n    tag_276:\n        /* \"NFTES_Drop_flat.sol\":19313:19405  (block.timestamp) +... */\n      tag_277\n      swap2\n      swap1\n      tag_269\n      jump\t// in\n    tag_277:\n        /* \"NFTES_Drop_flat.sol\":19313:19436  (block.timestamp) +... */\n      tag_278\n      swap2\n      swap1\n      tag_269\n      jump\t// in\n    tag_278:\n        /* \"NFTES_Drop_flat.sol\":19313:19470  (block.timestamp) +... */\n      tag_279\n      swap2\n      swap1\n      tag_269\n      jump\t// in\n    tag_279:\n        /* \"NFTES_Drop_flat.sol\":19493:19503  msg.sender */\n      caller\n        /* \"NFTES_Drop_flat.sol\":19525:19530  Owner */\n      0x0e\n      0x01\n      swap1\n      sload\n      swap1\n      0x0100\n      exp\n      swap1\n      div\n      0xffffffffffffffffffffffffffffffffffffffff\n      and\n        /* \"NFTES_Drop_flat.sol\":19274:19548  abi.encodePacked(... */\n      add(0x20, mload(0x40))\n      tag_280\n      swap4\n      swap3\n      swap2\n      swap1\n      tag_281\n      jump\t// in\n    tag_280:\n      mload(0x40)\n      0x20\n      dup2\n      dup4\n      sub\n      sub\n      dup2\n      mstore\n      swap1\n      0x40\n      mstore\n        /* \"NFTES_Drop_flat.sol\":19247:19562  keccak256(... */\n      dup1\n      mload\n      swap1\n      0x20\n      add\n      keccak256\n        /* \"NFTES_Drop_flat.sol\":19226:19572  uint256(... */\n      0x00\n      shr\n        /* \"NFTES_Drop_flat.sol\":19203:19572  uint256 randomnumber = uint256(... */\n      swap1\n      pop\n        /* \"NFTES_Drop_flat.sol\":19589:19601  randomnumber */\n      dup1\n        /* \"NFTES_Drop_flat.sol\":19582:19601  return randomnumber */\n      swap2\n      pop\n      pop\n        /* \"NFTES_Drop_flat.sol\":19066:19608  function random() internal view returns (uint256) {... */\n      swap1\n      jump\t// out\n        /* \"NFTES_Drop_flat.sol\":19660:21302  function updateConditions(uint256 index)... */\n    tag_235:\n        /* \"NFTES_Drop_flat.sol\":19763:19770  uint256 */\n      0x00\n        /* \"NFTES_Drop_flat.sol\":16370:16375  false */\n      dup1\n        /* \"NFTES_Drop_flat.sol\":16358:16375  isPaused == false */\n      iszero\n      iszero\n        /* \"NFTES_Drop_flat.sol\":16358:16366  isPaused */\n      0x0e\n      0x00\n      swap1\n      sload\n      swap1\n      0x0100\n      exp\n      swap1\n      div\n      0xff\n      and\n        /* \"NFTES_Drop_flat.sol\":16358:16375  isPaused == false */\n      iszero\n      iszero\n      eq\n        /* \"NFTES_Drop_flat.sol\":16350:16407  require(isPaused == false, \"Dropsite is not Opened Yet.\") */\n      tag_283\n      jumpi\n      mload(0x40)\n      0x08c379a000000000000000000000000000000000000000000000000000000000\n      dup2\n      mstore\n      0x04\n      add\n      tag_284\n      swap1\n      tag_114\n      jump\t// in\n    tag_284:\n      mload(0x40)\n      dup1\n      swap2\n      sub\n      swap1\n      revert\n    tag_283:\n        /* \"NFTES_Drop_flat.sol\":19786:19796  uint nftId */\n      0x00\n        /* \"NFTES_Drop_flat.sol\":19825:19826  1 */\n      0x01\n        /* \"NFTES_Drop_flat.sol\":19819:19821  20 */\n      0x14\n        /* \"NFTES_Drop_flat.sol\":19810:19815  index */\n      dup5\n        /* \"NFTES_Drop_flat.sol\":19809:19821  (index) % 20 */\n      tag_286\n      swap2\n      swap1\n      tag_267\n      jump\t// in\n    tag_286:\n        /* \"NFTES_Drop_flat.sol\":19809:19826  (index) % 20 == 1 */\n      eq\n        /* \"NFTES_Drop_flat.sol\":19809:19855  (index) % 20 == 1 && Diamond < maxDiamondCount */\n      dup1\n      iszero\n      tag_287\n      jumpi\n      pop\n        /* \"NFTES_Drop_flat.sol\":19840:19855  maxDiamondCount */\n      sload(0x09)\n        /* \"NFTES_Drop_flat.sol\":19830:19837  Diamond */\n      sload(0x06)\n        /* \"NFTES_Drop_flat.sol\":19830:19855  Diamond < maxDiamondCount */\n      lt\n        /* \"NFTES_Drop_flat.sol\":19809:19855  (index) % 20 == 1 && Diamond < maxDiamondCount */\n    tag_287:\n        /* \"NFTES_Drop_flat.sol\":19806:21296  if((index) % 20 == 1 && Diamond < maxDiamondCount){... */\n      iszero\n      tag_288\n      jumpi\n        /* \"NFTES_Drop_flat.sol\":19870:19877  Diamond */\n      0x06\n      0x00\n        /* \"NFTES_Drop_flat.sol\":19870:19879  Diamond++ */\n      dup2\n      sload\n      dup1\n      swap3\n      swap2\n      swap1\n      tag_289\n      swap1\n      tag_154\n      jump\t// in\n    tag_289:\n      swap2\n      swap1\n      pop\n      sstore\n      pop\n        /* \"NFTES_Drop_flat.sol\":19953:19978  Strings.toString(Diamond) */\n      tag_290\n        /* \"NFTES_Drop_flat.sol\":19970:19977  Diamond */\n      sload(0x06)\n        /* \"NFTES_Drop_flat.sol\":19953:19969  Strings.toString */\n      tag_147\n        /* \"NFTES_Drop_flat.sol\":19953:19978  Strings.toString(Diamond) */\n      jump\t// in\n    tag_290:\n        /* \"NFTES_Drop_flat.sol\":19924:19979  abi.encodePacked(\"Diamond_\", Strings.toString(Diamond)) */\n      add(0x20, mload(0x40))\n      tag_291\n      swap2\n      swap1\n      tag_292\n      jump\t// in\n    tag_291:\n      mload(0x40)\n      0x20\n      dup2\n      dup4\n      sub\n      sub\n      dup2\n      mstore\n      swap1\n      0x40\n      mstore\n        /* \"NFTES_Drop_flat.sol\":19893:19897  data */\n      0x02\n        /* \"NFTES_Drop_flat.sol\":19893:19993  data = string(... */\n      swap1\n      dup1\n      mload\n      swap1\n      0x20\n      add\n      swap1\n      tag_293\n      swap3\n      swap2\n      swap1\n      tag_294\n      jump\t// in\n    tag_293:\n      pop\n        /* \"NFTES_Drop_flat.sol\":20020:20021  0 */\n      0x00\n        /* \"NFTES_Drop_flat.sol\":20014:20021  nftId=0 */\n      swap1\n      pop\n      dup1\n        /* \"NFTES_Drop_flat.sol\":20007:20021  return nftId=0 */\n      swap2\n      pop\n      pop\n      jump(tag_285)\n        /* \"NFTES_Drop_flat.sol\":19806:21296  if((index) % 20 == 1 && Diamond < maxDiamondCount){... */\n    tag_288:\n        /* \"NFTES_Drop_flat.sol\":20150:20151  3 */\n      0x03\n        /* \"NFTES_Drop_flat.sol\":20144:20146  20 */\n      0x14\n        /* \"NFTES_Drop_flat.sol\":20135:20140  index */\n      dup5\n        /* \"NFTES_Drop_flat.sol\":20134:20146  (index) % 20 */\n      tag_296\n      swap2\n      swap1\n      tag_267\n      jump\t// in\n    tag_296:\n        /* \"NFTES_Drop_flat.sol\":20134:20151  (index) % 20 <= 3 */\n      gt\n      iszero\n        /* \"NFTES_Drop_flat.sol\":20134:20174  (index) % 20 <= 3 && Gold < maxGoldCount */\n      dup1\n      iszero\n      tag_297\n      jumpi\n      pop\n        /* \"NFTES_Drop_flat.sol\":20162:20174  maxGoldCount */\n      sload(0x0a)\n        /* \"NFTES_Drop_flat.sol\":20155:20159  Gold */\n      sload(0x07)\n        /* \"NFTES_Drop_flat.sol\":20155:20174  Gold < maxGoldCount */\n      lt\n        /* \"NFTES_Drop_flat.sol\":20134:20174  (index) % 20 <= 3 && Gold < maxGoldCount */\n    tag_297:\n        /* \"NFTES_Drop_flat.sol\":20130:21296  if ((index) % 20 <= 3 && Gold < maxGoldCount) {... */\n      iszero\n      tag_298\n      jumpi\n        /* \"NFTES_Drop_flat.sol\":20190:20194  Gold */\n      0x07\n      0x00\n        /* \"NFTES_Drop_flat.sol\":20190:20196  Gold++ */\n      dup2\n      sload\n      dup1\n      swap3\n      swap2\n      swap1\n      tag_299\n      swap1\n      tag_154\n      jump\t// in\n    tag_299:\n      swap2\n      swap1\n      pop\n      sstore\n      pop\n        /* \"NFTES_Drop_flat.sol\":20250:20272  Strings.toString(Gold) */\n      tag_300\n        /* \"NFTES_Drop_flat.sol\":20267:20271  Gold */\n      sload(0x07)\n        /* \"NFTES_Drop_flat.sol\":20250:20266  Strings.toString */\n      tag_147\n        /* \"NFTES_Drop_flat.sol\":20250:20272  Strings.toString(Gold) */\n      jump\t// in\n    tag_300:\n        /* \"NFTES_Drop_flat.sol\":20224:20273  abi.encodePacked(\"Gold_\", Strings.toString(Gold)) */\n      add(0x20, mload(0x40))\n      tag_301\n      swap2\n      swap1\n      tag_302\n      jump\t// in\n    tag_301:\n      mload(0x40)\n      0x20\n      dup2\n      dup4\n      sub\n      sub\n      dup2\n      mstore\n      swap1\n      0x40\n      mstore\n        /* \"NFTES_Drop_flat.sol\":20210:20214  data */\n      0x02\n        /* \"NFTES_Drop_flat.sol\":20210:20274  data = string(abi.encodePacked(\"Gold_\", Strings.toString(Gold))) */\n      swap1\n      dup1\n      mload\n      swap1\n      0x20\n      add\n      swap1\n      tag_303\n      swap3\n      swap2\n      swap1\n      tag_294\n      jump\t// in\n    tag_303:\n      pop\n        /* \"NFTES_Drop_flat.sol\":20301:20302  1 */\n      0x01\n        /* \"NFTES_Drop_flat.sol\":20295:20302  nftId=1 */\n      swap1\n      pop\n      dup1\n        /* \"NFTES_Drop_flat.sol\":20288:20302  return nftId=1 */\n      swap2\n      pop\n      pop\n      jump(tag_285)\n        /* \"NFTES_Drop_flat.sol\":20130:21296  if ((index) % 20 <= 3 && Gold < maxGoldCount) {... */\n    tag_298:\n        /* \"NFTES_Drop_flat.sol\":20442:20443  3 */\n      0x03\n        /* \"NFTES_Drop_flat.sol\":20437:20439  20 */\n      0x14\n        /* \"NFTES_Drop_flat.sol\":20428:20433  index */\n      dup5\n        /* \"NFTES_Drop_flat.sol\":20427:20439  (index) % 20 */\n      tag_305\n      swap2\n      swap1\n      tag_267\n      jump\t// in\n    tag_305:\n        /* \"NFTES_Drop_flat.sol\":20427:20443  (index) % 20 > 3 */\n      gt\n        /* \"NFTES_Drop_flat.sol\":20427:20470  (index) % 20 > 3 && Silver < maxSilverCount */\n      dup1\n      iszero\n      tag_306\n      jumpi\n      pop\n        /* \"NFTES_Drop_flat.sol\":20456:20470  maxSilverCount */\n      sload(0x0b)\n        /* \"NFTES_Drop_flat.sol\":20447:20453  Silver */\n      sload(0x08)\n        /* \"NFTES_Drop_flat.sol\":20447:20470  Silver < maxSilverCount */\n      lt\n        /* \"NFTES_Drop_flat.sol\":20427:20470  (index) % 20 > 3 && Silver < maxSilverCount */\n    tag_306:\n        /* \"NFTES_Drop_flat.sol\":20423:21296  if ((index) % 20 > 3 && Silver < maxSilverCount) {... */\n      iszero\n      tag_307\n      jumpi\n        /* \"NFTES_Drop_flat.sol\":20486:20492  Silver */\n      0x08\n      0x00\n        /* \"NFTES_Drop_flat.sol\":20486:20494  Silver++ */\n      dup2\n      sload\n      dup1\n      swap3\n      swap2\n      swap1\n      tag_308\n      swap1\n      tag_154\n      jump\t// in\n    tag_308:\n      swap2\n      swap1\n      pop\n      sstore\n      pop\n        /* \"NFTES_Drop_flat.sol\":20567:20591  Strings.toString(Silver) */\n      tag_309\n        /* \"NFTES_Drop_flat.sol\":20584:20590  Silver */\n      sload(0x08)\n        /* \"NFTES_Drop_flat.sol\":20567:20583  Strings.toString */\n      tag_147\n        /* \"NFTES_Drop_flat.sol\":20567:20591  Strings.toString(Silver) */\n      jump\t// in\n    tag_309:\n        /* \"NFTES_Drop_flat.sol\":20539:20592  abi.encodePacked(\"Silver_\", Strings.toString(Silver)) */\n      add(0x20, mload(0x40))\n      tag_310\n      swap2\n      swap1\n      tag_311\n      jump\t// in\n    tag_310:\n      mload(0x40)\n      0x20\n      dup2\n      dup4\n      sub\n      sub\n      dup2\n      mstore\n      swap1\n      0x40\n      mstore\n        /* \"NFTES_Drop_flat.sol\":20508:20512  data */\n      0x02\n        /* \"NFTES_Drop_flat.sol\":20508:20606  data = string(... */\n      swap1\n      dup1\n      mload\n      swap1\n      0x20\n      add\n      swap1\n      tag_312\n      swap3\n      swap2\n      swap1\n      tag_294\n      jump\t// in\n    tag_312:\n      pop\n        /* \"NFTES_Drop_flat.sol\":20633:20634  2 */\n      0x02\n        /* \"NFTES_Drop_flat.sol\":20627:20634  nftId=2 */\n      swap1\n      pop\n      dup1\n        /* \"NFTES_Drop_flat.sol\":20620:20634  return nftId=2 */\n      swap2\n      pop\n      pop\n      jump(tag_285)\n        /* \"NFTES_Drop_flat.sol\":20423:21296  if ((index) % 20 > 3 && Silver < maxSilverCount) {... */\n    tag_307:\n        /* \"NFTES_Drop_flat.sol\":20825:20837  maxGoldCount */\n      sload(0x0a)\n        /* \"NFTES_Drop_flat.sol\":20818:20822  Gold */\n      sload(0x07)\n        /* \"NFTES_Drop_flat.sol\":20818:20837  Gold < maxGoldCount */\n      lt\n        /* \"NFTES_Drop_flat.sol\":20814:21286  if (Gold < maxGoldCount) {... */\n      iszero\n      tag_314\n      jumpi\n        /* \"NFTES_Drop_flat.sol\":20865:20866  1 */\n      0x01\n        /* \"NFTES_Drop_flat.sol\":20857:20866  nftId = 1 */\n      swap1\n      pop\n        /* \"NFTES_Drop_flat.sol\":20884:20888  Gold */\n      0x07\n      0x00\n        /* \"NFTES_Drop_flat.sol\":20884:20890  Gold++ */\n      dup2\n      sload\n      dup1\n      swap3\n      swap2\n      swap1\n      tag_315\n      swap1\n      tag_154\n      jump\t// in\n    tag_315:\n      swap2\n      swap1\n      pop\n      sstore\n      pop\n        /* \"NFTES_Drop_flat.sol\":20969:20991  Strings.toString(Gold) */\n      tag_316\n        /* \"NFTES_Drop_flat.sol\":20986:20990  Gold */\n      sload(0x07)\n        /* \"NFTES_Drop_flat.sol\":20969:20985  Strings.toString */\n      tag_147\n        /* \"NFTES_Drop_flat.sol\":20969:20991  Strings.toString(Gold) */\n      jump\t// in\n    tag_316:\n        /* \"NFTES_Drop_flat.sol\":20943:20992  abi.encodePacked(\"Gold_\", Strings.toString(Gold)) */\n      add(0x20, mload(0x40))\n      tag_317\n      swap2\n      swap1\n      tag_302\n      jump\t// in\n    tag_317:\n      mload(0x40)\n      0x20\n      dup2\n      dup4\n      sub\n      sub\n      dup2\n      mstore\n      swap1\n      0x40\n      mstore\n        /* \"NFTES_Drop_flat.sol\":20908:20912  data */\n      0x02\n        /* \"NFTES_Drop_flat.sol\":20908:21010  data = string(... */\n      swap1\n      dup1\n      mload\n      swap1\n      0x20\n      add\n      swap1\n      tag_318\n      swap3\n      swap2\n      swap1\n      tag_294\n      jump\t// in\n    tag_318:\n      pop\n        /* \"NFTES_Drop_flat.sol\":21035:21040  nftId */\n      dup1\n        /* \"NFTES_Drop_flat.sol\":21028:21040  return nftId */\n      swap2\n      pop\n      pop\n      jump(tag_285)\n        /* \"NFTES_Drop_flat.sol\":20814:21286  if (Gold < maxGoldCount) {... */\n    tag_314:\n        /* \"NFTES_Drop_flat.sol\":21087:21088  0 */\n      0x00\n        /* \"NFTES_Drop_flat.sol\":21079:21088  nftId = 0 */\n      swap1\n      pop\n        /* \"NFTES_Drop_flat.sol\":21106:21113  Diamond */\n      0x06\n      0x00\n        /* \"NFTES_Drop_flat.sol\":21106:21115  Diamond++ */\n      dup2\n      sload\n      dup1\n      swap3\n      swap2\n      swap1\n      tag_320\n      swap1\n      tag_154\n      jump\t// in\n    tag_320:\n      swap2\n      swap1\n      pop\n      sstore\n      pop\n        /* \"NFTES_Drop_flat.sol\":21197:21222  Strings.toString(Diamond) */\n      tag_321\n        /* \"NFTES_Drop_flat.sol\":21214:21221  Diamond */\n      sload(0x06)\n        /* \"NFTES_Drop_flat.sol\":21197:21213  Strings.toString */\n      tag_147\n        /* \"NFTES_Drop_flat.sol\":21197:21222  Strings.toString(Diamond) */\n      jump\t// in\n    tag_321:\n        /* \"NFTES_Drop_flat.sol\":21168:21223  abi.encodePacked(\"Diamond_\", Strings.toString(Diamond)) */\n      add(0x20, mload(0x40))\n      tag_322\n      swap2\n      swap1\n      tag_292\n      jump\t// in\n    tag_322:\n      mload(0x40)\n      0x20\n      dup2\n      dup4\n      sub\n      sub\n      dup2\n      mstore\n      swap1\n      0x40\n      mstore\n        /* \"NFTES_Drop_flat.sol\":21133:21137  data */\n      0x02\n        /* \"NFTES_Drop_flat.sol\":21133:21241  data = string(... */\n      swap1\n      dup1\n      mload\n      swap1\n      0x20\n      add\n      swap1\n      tag_323\n      swap3\n      swap2\n      swap1\n      tag_294\n      jump\t// in\n    tag_323:\n      pop\n        /* \"NFTES_Drop_flat.sol\":21266:21271  nftId */\n      dup1\n        /* \"NFTES_Drop_flat.sol\":21259:21271  return nftId */\n      swap2\n      pop\n      pop\n        /* \"NFTES_Drop_flat.sol\":16417:16418  _ */\n    tag_285:\n        /* \"NFTES_Drop_flat.sol\":19660:21302  function updateConditions(uint256 index)... */\n      swap2\n      swap1\n      pop\n      jump\t// out\n        /* \"NFTES_Drop_flat.sol\":13711:14263  function _mint(... */\n    tag_243:\n        /* \"NFTES_Drop_flat.sol\":13873:13874  0 */\n      0x00\n        /* \"NFTES_Drop_flat.sol\":13859:13875  to != address(0) */\n      0xffffffffffffffffffffffffffffffffffffffff\n      and\n        /* \"NFTES_Drop_flat.sol\":13859:13861  to */\n      dup5\n        /* \"NFTES_Drop_flat.sol\":13859:13875  to != address(0) */\n      0xffffffffffffffffffffffffffffffffffffffff\n      and\n      eq\n      iszero\n        /* \"NFTES_Drop_flat.sol\":13851:13913  require(to != address(0), \"ERC1155: mint to the zero address\") */\n      tag_325\n      jumpi\n      mload(0x40)\n      0x08c379a000000000000000000000000000000000000000000000000000000000\n      dup2\n      mstore\n      0x04\n      add\n      tag_326\n      swap1\n      tag_327\n      jump\t// in\n    tag_326:\n      mload(0x40)\n      dup1\n      swap2\n      sub\n      swap1\n      revert\n    tag_325:\n        /* \"NFTES_Drop_flat.sol\":13924:13940  address operator */\n      0x00\n        /* \"NFTES_Drop_flat.sol\":13943:13955  _msgSender() */\n      tag_328\n        /* \"NFTES_Drop_flat.sol\":13943:13953  _msgSender */\n      tag_93\n        /* \"NFTES_Drop_flat.sol\":13943:13955  _msgSender() */\n      jump\t// in\n    tag_328:\n        /* \"NFTES_Drop_flat.sol\":13924:13955  address operator = _msgSender() */\n      swap1\n      pop\n        /* \"NFTES_Drop_flat.sol\":13966:14068  _beforeTokenTransfer(operator, address(0), to, _asSingletonArray(id), _asSingletonArray(amount), data) */\n      tag_329\n        /* \"NFTES_Drop_flat.sol\":13987:13995  operator */\n      dup2\n        /* \"NFTES_Drop_flat.sol\":14005:14006  0 */\n      0x00\n        /* \"NFTES_Drop_flat.sol\":14009:14011  to */\n      dup8\n        /* \"NFTES_Drop_flat.sol\":14013:14034  _asSingletonArray(id) */\n      tag_330\n        /* \"NFTES_Drop_flat.sol\":14031:14033  id */\n      dup9\n        /* \"NFTES_Drop_flat.sol\":14013:14030  _asSingletonArray */\n      tag_331\n        /* \"NFTES_Drop_flat.sol\":14013:14034  _asSingletonArray(id) */\n      jump\t// in\n    tag_330:\n        /* \"NFTES_Drop_flat.sol\":14036:14061  _asSingletonArray(amount) */\n      tag_332\n        /* \"NFTES_Drop_flat.sol\":14054:14060  amount */\n      dup9\n        /* \"NFTES_Drop_flat.sol\":14036:14053  _asSingletonArray */\n      tag_331\n        /* \"NFTES_Drop_flat.sol\":14036:14061  _asSingletonArray(amount) */\n      jump\t// in\n    tag_332:\n        /* \"NFTES_Drop_flat.sol\":14063:14067  data */\n      dup8\n        /* \"NFTES_Drop_flat.sol\":13966:13986  _beforeTokenTransfer */\n      tag_333\n        /* \"NFTES_Drop_flat.sol\":13966:14068  _beforeTokenTransfer(operator, address(0), to, _asSingletonArray(id), _asSingletonArray(amount), data) */\n      jump\t// in\n    tag_329:\n        /* \"NFTES_Drop_flat.sol\":14099:14105  amount */\n      dup3\n        /* \"NFTES_Drop_flat.sol\":14078:14087  _balances */\n      0x00\n        /* \"NFTES_Drop_flat.sol\":14078:14091  _balances[id] */\n      dup1\n        /* \"NFTES_Drop_flat.sol\":14088:14090  id */\n      dup7\n        /* \"NFTES_Drop_flat.sol\":14078:14091  _balances[id] */\n      dup2\n      mstore\n      0x20\n      add\n      swap1\n      dup2\n      mstore\n      0x20\n      add\n      0x00\n      keccak256\n        /* \"NFTES_Drop_flat.sol\":14078:14095  _balances[id][to] */\n      0x00\n        /* \"NFTES_Drop_flat.sol\":14092:14094  to */\n      dup8\n        /* \"NFTES_Drop_flat.sol\":14078:14095  _balances[id][to] */\n      0xffffffffffffffffffffffffffffffffffffffff\n      and\n      0xffffffffffffffffffffffffffffffffffffffff\n      and\n      dup2\n      mstore\n      0x20\n      add\n      swap1\n      dup2\n      mstore\n      0x20\n      add\n      0x00\n      keccak256\n      0x00\n        /* \"NFTES_Drop_flat.sol\":14078:14105  _balances[id][to] += amount */\n      dup3\n      dup3\n      sload\n      tag_334\n      swap2\n      swap1\n      tag_269\n      jump\t// in\n    tag_334:\n      swap3\n      pop\n      pop\n      dup2\n      swap1\n      sstore\n      pop\n        /* \"NFTES_Drop_flat.sol\":14157:14159  to */\n      dup5\n        /* \"NFTES_Drop_flat.sol\":14120:14172  TransferSingle(operator, address(0), to, id, amount) */\n      0xffffffffffffffffffffffffffffffffffffffff\n      and\n        /* \"NFTES_Drop_flat.sol\":14153:14154  0 */\n      0x00\n        /* \"NFTES_Drop_flat.sol\":14120:14172  TransferSingle(operator, address(0), to, id, amount) */\n      0xffffffffffffffffffffffffffffffffffffffff\n      and\n        /* \"NFTES_Drop_flat.sol\":14135:14143  operator */\n      dup3\n        /* \"NFTES_Drop_flat.sol\":14120:14172  TransferSingle(operator, address(0), to, id, amount) */\n      0xffffffffffffffffffffffffffffffffffffffff\n      and\n      0xc3d58168c5ae7397731d063d5bbf3d657854427343f4c083240f7aacaa2d0f62\n        /* \"NFTES_Drop_flat.sol\":14161:14163  id */\n      dup8\n        /* \"NFTES_Drop_flat.sol\":14165:14171  amount */\n      dup8\n        /* \"NFTES_Drop_flat.sol\":14120:14172  TransferSingle(operator, address(0), to, id, amount) */\n      mload(0x40)\n      tag_335\n      swap3\n      swap2\n      swap1\n      tag_336\n      jump\t// in\n    tag_335:\n      mload(0x40)\n      dup1\n      swap2\n      sub\n      swap1\n      log4\n        /* \"NFTES_Drop_flat.sol\":14182:14256  _doSafeTransferAcceptanceCheck(operator, address(0), to, id, amount, data) */\n      tag_337\n        /* \"NFTES_Drop_flat.sol\":14213:14221  operator */\n      dup2\n        /* \"NFTES_Drop_flat.sol\":14231:14232  0 */\n      0x00\n        /* \"NFTES_Drop_flat.sol\":14235:14237  to */\n      dup8\n        /* \"NFTES_Drop_flat.sol\":14239:14241  id */\n      dup8\n        /* \"NFTES_Drop_flat.sol\":14243:14249  amount */\n      dup8\n        /* \"NFTES_Drop_flat.sol\":14251:14255  data */\n      dup8\n        /* \"NFTES_Drop_flat.sol\":14182:14212  _doSafeTransferAcceptanceCheck */\n      tag_338\n        /* \"NFTES_Drop_flat.sol\":14182:14256  _doSafeTransferAcceptanceCheck(operator, address(0), to, id, amount, data) */\n      jump\t// in\n    tag_337:\n        /* \"NFTES_Drop_flat.sol\":13841:14263  {... */\n      pop\n        /* \"NFTES_Drop_flat.sol\":13711:14263  function _mint(... */\n      pop\n      pop\n      pop\n      pop\n      jump\t// out\n        /* \"NFTES_Drop_flat.sol\":15223:15416  function _asSingletonArray(uint256 element) private pure returns (uint256[] memory) {... */\n    tag_331:\n        /* \"NFTES_Drop_flat.sol\":15289:15305  uint256[] memory */\n      0x60\n        /* \"NFTES_Drop_flat.sol\":15317:15339  uint256[] memory array */\n      0x00\n        /* \"NFTES_Drop_flat.sol\":15356:15357  1 */\n      0x01\n        /* \"NFTES_Drop_flat.sol\":15342:15358  new uint256[](1) */\n      0xffffffffffffffff\n      dup2\n      gt\n      iszero\n      tag_340\n      jumpi\n      tag_341\n      tag_260\n      jump\t// in\n    tag_341:\n    tag_340:\n      mload(0x40)\n      swap1\n      dup1\n      dup3\n      mstore\n      dup1\n      0x20\n      mul\n      0x20\n      add\n      dup3\n      add\n      0x40\n      mstore\n      dup1\n      iszero\n      tag_342\n      jumpi\n      dup2\n      0x20\n      add\n      0x20\n      dup3\n      mul\n      dup1\n      calldatasize\n      dup4\n      calldatacopy\n      dup1\n      dup3\n      add\n      swap2\n      pop\n      pop\n      swap1\n      pop\n    tag_342:\n      pop\n        /* \"NFTES_Drop_flat.sol\":15317:15358  uint256[] memory array = new uint256[](1) */\n      swap1\n      pop\n        /* \"NFTES_Drop_flat.sol\":15379:15386  element */\n      dup3\n        /* \"NFTES_Drop_flat.sol\":15368:15373  array */\n      dup2\n        /* \"NFTES_Drop_flat.sol\":15374:15375  0 */\n      0x00\n        /* \"NFTES_Drop_flat.sol\":15368:15376  array[0] */\n      dup2\n      mload\n      dup2\n      lt\n      tag_343\n      jumpi\n      tag_344\n      tag_152\n      jump\t// in\n    tag_344:\n    tag_343:\n      0x20\n      mul\n      0x20\n      add\n      add\n        /* \"NFTES_Drop_flat.sol\":15368:15386  array[0] = element */\n      dup2\n      dup2\n      mstore\n      pop\n      pop\n        /* \"NFTES_Drop_flat.sol\":15404:15409  array */\n      dup1\n        /* \"NFTES_Drop_flat.sol\":15397:15409  return array */\n      swap2\n      pop\n      pop\n        /* \"NFTES_Drop_flat.sol\":15223:15416  function _asSingletonArray(uint256 element) private pure returns (uint256[] memory) {... */\n      swap2\n      swap1\n      pop\n      jump\t// out\n        /* \"NFTES_Drop_flat.sol\":14270:14485  function _beforeTokenTransfer(... */\n    tag_333:\n      pop\n      pop\n      pop\n      pop\n      pop\n      pop\n      jump\t// out\n        /* \"NFTES_Drop_flat.sol\":14491:15217  function _doSafeTransferAcceptanceCheck(... */\n    tag_338:\n        /* \"NFTES_Drop_flat.sol\":14699:14714  to.isContract() */\n      tag_347\n        /* \"NFTES_Drop_flat.sol\":14699:14701  to */\n      dup5\n        /* \"NFTES_Drop_flat.sol\":14699:14712  to.isContract */\n      0xffffffffffffffffffffffffffffffffffffffff\n      and\n      tag_348\n        /* \"NFTES_Drop_flat.sol\":14699:14714  to.isContract() */\n      jump\t// in\n    tag_347:\n        /* \"NFTES_Drop_flat.sol\":14695:15211  if (to.isContract()) {... */\n      iszero\n      tag_349\n      jumpi\n        /* \"NFTES_Drop_flat.sol\":14751:14753  to */\n      dup4\n        /* \"NFTES_Drop_flat.sol\":14734:14772  IERC1155Receiver(to).onERC1155Received */\n      0xffffffffffffffffffffffffffffffffffffffff\n      and\n      0xae89a248\n        /* \"NFTES_Drop_flat.sol\":14773:14781  operator */\n      dup8\n        /* \"NFTES_Drop_flat.sol\":14783:14787  from */\n      dup8\n        /* \"NFTES_Drop_flat.sol\":14789:14791  id */\n      dup7\n        /* \"NFTES_Drop_flat.sol\":14793:14799  amount */\n      dup7\n        /* \"NFTES_Drop_flat.sol\":14801:14805  data */\n      dup7\n        /* \"NFTES_Drop_flat.sol\":14734:14806  IERC1155Receiver(to).onERC1155Received(operator, from, id, amount, data) */\n      mload(0x40)\n      dup7\n      0xffffffff\n      and\n      0xe0\n      shl\n      dup2\n      mstore\n      0x04\n      add\n      tag_350\n      swap6\n      swap5\n      swap4\n      swap3\n      swap2\n      swap1\n      tag_351\n      jump\t// in\n    tag_350:\n      0x20\n      mload(0x40)\n      dup1\n      dup4\n      sub\n      dup2\n      0x00\n      dup8\n      dup1\n      extcodesize\n      iszero\n      dup1\n      iszero\n      tag_352\n      jumpi\n      0x00\n      dup1\n      revert\n    tag_352:\n      pop\n      gas\n      call\n      swap3\n      pop\n      pop\n      pop\n      dup1\n      iszero\n      tag_353\n      jumpi\n      pop\n      mload(0x40)\n      returndatasize\n      not(0x1f)\n      0x1f\n      dup3\n      add\n      and\n      dup3\n      add\n      dup1\n      0x40\n      mstore\n      pop\n      dup2\n      add\n      swap1\n      tag_354\n      swap2\n      swap1\n      tag_355\n      jump\t// in\n    tag_354:\n      0x01\n    tag_353:\n        /* \"NFTES_Drop_flat.sol\":14730:15201  try IERC1155Receiver(to).onERC1155Received(operator, from, id, amount, data) returns (bytes4 response) {... */\n      tag_356\n      jumpi\n      tag_360\n      tag_361\n      jump\t// in\n    tag_360:\n      dup1\n      0x08c379a0\n      eq\n      iszero\n      tag_359\n      jumpi\n      pop\n      tag_362\n      tag_363\n      jump\t// in\n    tag_362:\n      dup1\n      tag_364\n      jumpi\n      pop\n      jump(tag_358)\n    tag_364:\n        /* \"NFTES_Drop_flat.sol\":15077:15083  reason */\n      dup1\n        /* \"NFTES_Drop_flat.sol\":15070:15084  revert(reason) */\n      mload(0x40)\n      0x08c379a000000000000000000000000000000000000000000000000000000000\n      dup2\n      mstore\n      0x04\n      add\n      tag_365\n      swap2\n      swap1\n      tag_366\n      jump\t// in\n    tag_365:\n      mload(0x40)\n      dup1\n      swap2\n      sub\n      swap1\n      revert\n        /* \"NFTES_Drop_flat.sol\":14730:15201  try IERC1155Receiver(to).onERC1155Received(operator, from, id, amount, data) returns (bytes4 response) {... */\n    tag_359:\n      pop\n    tag_358:\n        /* \"NFTES_Drop_flat.sol\":15124:15186  revert(\"ERC1155: transfer to non ERC1155Receiver implementer\") */\n      mload(0x40)\n      0x08c379a000000000000000000000000000000000000000000000000000000000\n      dup2\n      mstore\n      0x04\n      add\n      tag_367\n      swap1\n      tag_368\n      jump\t// in\n    tag_367:\n      mload(0x40)\n      dup1\n      swap2\n      sub\n      swap1\n      revert\n        /* \"NFTES_Drop_flat.sol\":14730:15201  try IERC1155Receiver(to).onERC1155Received(operator, from, id, amount, data) returns (bytes4 response) {... */\n    tag_356:\n        /* \"NFTES_Drop_flat.sol\":14867:14910  IERC1155Receiver.onERC1155Received.selector */\n      shl(0xe0, 0xae89a248)\n        /* \"NFTES_Drop_flat.sol\":14855:14910  response != IERC1155Receiver.onERC1155Received.selector */\n      not(0xffffffffffffffffffffffffffffffffffffffffffffffffffffffff)\n      and\n        /* \"NFTES_Drop_flat.sol\":14855:14863  response */\n      dup2\n        /* \"NFTES_Drop_flat.sol\":14855:14910  response != IERC1155Receiver.onERC1155Received.selector */\n      not(0xffffffffffffffffffffffffffffffffffffffffffffffffffffffff)\n      and\n      eq\n        /* \"NFTES_Drop_flat.sol\":14851:15003  if (response != IERC1155Receiver.onERC1155Received.selector) {... */\n      tag_370\n      jumpi\n        /* \"NFTES_Drop_flat.sol\":14934:14984  revert(\"ERC1155: ERC1155Receiver rejected tokens\") */\n      mload(0x40)\n      0x08c379a000000000000000000000000000000000000000000000000000000000\n      dup2\n      mstore\n      0x04\n      add\n      tag_371\n      swap1\n      tag_372\n      jump\t// in\n    tag_371:\n      mload(0x40)\n      dup1\n      swap2\n      sub\n      swap1\n      revert\n        /* \"NFTES_Drop_flat.sol\":14851:15003  if (response != IERC1155Receiver.onERC1155Received.selector) {... */\n    tag_370:\n        /* \"NFTES_Drop_flat.sol\":14807:15017  returns (bytes4 response) {... */\n      pop\n        /* \"NFTES_Drop_flat.sol\":14695:15211  if (to.isContract()) {... */\n    tag_349:\n        /* \"NFTES_Drop_flat.sol\":14491:15217  function _doSafeTransferAcceptanceCheck(... */\n      pop\n      pop\n      pop\n      pop\n      pop\n      pop\n      jump\t// out\n        /* \"NFTES_Drop_flat.sol\":3574:3951  function isContract(address account) internal view returns (bool) {... */\n    tag_348:\n        /* \"NFTES_Drop_flat.sol\":3634:3638  bool */\n      0x00\n        /* \"NFTES_Drop_flat.sol\":3837:3849  uint256 size */\n      dup1\n        /* \"NFTES_Drop_flat.sol\":3902:3909  account */\n      dup3\n        /* \"NFTES_Drop_flat.sol\":3890:3910  extcodesize(account) */\n      extcodesize\n        /* \"NFTES_Drop_flat.sol\":3882:3910  size := extcodesize(account) */\n      swap1\n      pop\n        /* \"NFTES_Drop_flat.sol\":3943:3944  0 */\n      0x00\n        /* \"NFTES_Drop_flat.sol\":3936:3940  size */\n      dup2\n        /* \"NFTES_Drop_flat.sol\":3936:3944  size > 0 */\n      gt\n        /* \"NFTES_Drop_flat.sol\":3929:3944  return size > 0 */\n      swap2\n      pop\n      pop\n        /* \"NFTES_Drop_flat.sol\":3574:3951  function isContract(address account) internal view returns (bool) {... */\n      swap2\n      swap1\n      pop\n      jump\t// out\n    tag_294:\n      dup3\n      dup1\n      sload\n      tag_374\n      swap1\n      tag_238\n      jump\t// in\n    tag_374:\n      swap1\n      0x00\n      mstore\n      keccak256(0x00, 0x20)\n      swap1\n      0x1f\n      add\n      0x20\n      swap1\n      div\n      dup2\n      add\n      swap3\n      dup3\n      tag_376\n      jumpi\n      0x00\n      dup6\n      sstore\n      jump(tag_375)\n    tag_376:\n      dup3\n      0x1f\n      lt\n      tag_377\n      jumpi\n      dup1\n      mload\n      not(0xff)\n      and\n      dup4\n      dup1\n      add\n      or\n      dup6\n      sstore\n      jump(tag_375)\n    tag_377:\n      dup3\n      dup1\n      add\n      0x01\n      add\n      dup6\n      sstore\n      dup3\n      iszero\n      tag_375\n      jumpi\n      swap2\n      dup3\n      add\n    tag_378:\n      dup3\n      dup2\n      gt\n      iszero\n      tag_379\n      jumpi\n      dup3\n      mload\n      dup3\n      sstore\n      swap2\n      0x20\n      add\n      swap2\n      swap1\n      0x01\n      add\n      swap1\n      jump(tag_378)\n    tag_379:\n    tag_375:\n      pop\n      swap1\n      pop\n      tag_380\n      swap2\n      swap1\n      tag_381\n      jump\t// in\n    tag_380:\n      pop\n      swap1\n      jump\t// out\n    tag_381:\n    tag_382:\n      dup1\n      dup3\n      gt\n      iszero\n      tag_383\n      jumpi\n      0x00\n      dup2\n      0x00\n      swap1\n      sstore\n      pop\n      0x01\n      add\n      jump(tag_382)\n    tag_383:\n      pop\n      swap1\n      jump\t// out\n        /* \"#utility.yul\":7:146   */\n    tag_385:\n        /* \"#utility.yul\":53:58   */\n      0x00\n        /* \"#utility.yul\":91:97   */\n      dup2\n        /* \"#utility.yul\":78:98   */\n      calldataload\n        /* \"#utility.yul\":69:98   */\n      swap1\n      pop\n        /* \"#utility.yul\":107:140   */\n      tag_387\n        /* \"#utility.yul\":134:139   */\n      dup2\n        /* \"#utility.yul\":107:140   */\n      tag_388\n      jump\t// in\n    tag_387:\n        /* \"#utility.yul\":7:146   */\n      swap3\n      swap2\n      pop\n      pop\n      jump\t// out\n        /* \"#utility.yul\":152:307   */\n    tag_389:\n        /* \"#utility.yul\":206:211   */\n      0x00\n        /* \"#utility.yul\":244:250   */\n      dup2\n        /* \"#utility.yul\":231:251   */\n      calldataload\n        /* \"#utility.yul\":222:251   */\n      swap1\n      pop\n        /* \"#utility.yul\":260:301   */\n      tag_391\n        /* \"#utility.yul\":295:300   */\n      dup2\n        /* \"#utility.yul\":260:301   */\n      tag_392\n      jump\t// in\n    tag_391:\n        /* \"#utility.yul\":152:307   */\n      swap3\n      swap2\n      pop\n      pop\n      jump\t// out\n        /* \"#utility.yul\":313:454   */\n    tag_393:\n        /* \"#utility.yul\":369:374   */\n      0x00\n        /* \"#utility.yul\":400:406   */\n      dup2\n        /* \"#utility.yul\":394:407   */\n      mload\n        /* \"#utility.yul\":385:407   */\n      swap1\n      pop\n        /* \"#utility.yul\":416:448   */\n      tag_395\n        /* \"#utility.yul\":442:447   */\n      dup2\n        /* \"#utility.yul\":416:448   */\n      tag_396\n      jump\t// in\n    tag_395:\n        /* \"#utility.yul\":313:454   */\n      swap3\n      swap2\n      pop\n      pop\n      jump\t// out\n        /* \"#utility.yul\":460:599   */\n    tag_397:\n        /* \"#utility.yul\":506:511   */\n      0x00\n        /* \"#utility.yul\":544:550   */\n      dup2\n        /* \"#utility.yul\":531:551   */\n      calldataload\n        /* \"#utility.yul\":522:551   */\n      swap1\n      pop\n        /* \"#utility.yul\":560:593   */\n      tag_399\n        /* \"#utility.yul\":587:592   */\n      dup2\n        /* \"#utility.yul\":560:593   */\n      tag_400\n      jump\t// in\n    tag_399:\n        /* \"#utility.yul\":460:599   */\n      swap3\n      swap2\n      pop\n      pop\n      jump\t// out\n        /* \"#utility.yul\":605:934   */\n    tag_36:\n        /* \"#utility.yul\":664:670   */\n      0x00\n        /* \"#utility.yul\":713:715   */\n      0x20\n        /* \"#utility.yul\":701:710   */\n      dup3\n        /* \"#utility.yul\":692:699   */\n      dup5\n        /* \"#utility.yul\":688:711   */\n      sub\n        /* \"#utility.yul\":684:716   */\n      slt\n        /* \"#utility.yul\":681:800   */\n      iszero\n      tag_402\n      jumpi\n        /* \"#utility.yul\":719:798   */\n      tag_403\n      tag_404\n      jump\t// in\n    tag_403:\n        /* \"#utility.yul\":681:800   */\n    tag_402:\n        /* \"#utility.yul\":839:840   */\n      0x00\n        /* \"#utility.yul\":864:917   */\n      tag_405\n        /* \"#utility.yul\":909:916   */\n      dup5\n        /* \"#utility.yul\":900:906   */\n      dup3\n        /* \"#utility.yul\":889:898   */\n      dup6\n        /* \"#utility.yul\":885:907   */\n      add\n        /* \"#utility.yul\":864:917   */\n      tag_385\n      jump\t// in\n    tag_405:\n        /* \"#utility.yul\":854:917   */\n      swap2\n      pop\n        /* \"#utility.yul\":810:927   */\n      pop\n        /* \"#utility.yul\":605:934   */\n      swap3\n      swap2\n      pop\n      pop\n      jump\t// out\n        /* \"#utility.yul\":940:1430   */\n    tag_31:\n        /* \"#utility.yul\":1016:1022   */\n      0x00\n        /* \"#utility.yul\":1024:1030   */\n      dup1\n        /* \"#utility.yul\":1073:1075   */\n      0x40\n        /* \"#utility.yul\":1061:1070   */\n      dup4\n        /* \"#utility.yul\":1052:1059   */\n      dup6\n        /* \"#utility.yul\":1048:1071   */\n      sub\n        /* \"#utility.yul\":1044:1076   */\n      slt\n        /* \"#utility.yul\":1041:1160   */\n      iszero\n      tag_407\n      jumpi\n        /* \"#utility.yul\":1079:1158   */\n      tag_408\n      tag_404\n      jump\t// in\n    tag_408:\n        /* \"#utility.yul\":1041:1160   */\n    tag_407:\n        /* \"#utility.yul\":1199:1200   */\n      0x00\n        /* \"#utility.yul\":1224:1285   */\n      tag_409\n        /* \"#utility.yul\":1277:1284   */\n      dup6\n        /* \"#utility.yul\":1268:1274   */\n      dup3\n        /* \"#utility.yul\":1257:1266   */\n      dup7\n        /* \"#utility.yul\":1253:1275   */\n      add\n        /* \"#utility.yul\":1224:1285   */\n      tag_389\n      jump\t// in\n    tag_409:\n        /* \"#utility.yul\":1214:1285   */\n      swap3\n      pop\n        /* \"#utility.yul\":1170:1295   */\n      pop\n        /* \"#utility.yul\":1334:1336   */\n      0x20\n        /* \"#utility.yul\":1360:1413   */\n      tag_410\n        /* \"#utility.yul\":1405:1412   */\n      dup6\n        /* \"#utility.yul\":1396:1402   */\n      dup3\n        /* \"#utility.yul\":1385:1394   */\n      dup7\n        /* \"#utility.yul\":1381:1403   */\n      add\n        /* \"#utility.yul\":1360:1413   */\n      tag_397\n      jump\t// in\n    tag_410:\n        /* \"#utility.yul\":1350:1413   */\n      swap2\n      pop\n        /* \"#utility.yul\":1305:1423   */\n      pop\n        /* \"#utility.yul\":940:1430   */\n      swap3\n      pop\n      swap3\n      swap1\n      pop\n      jump\t// out\n        /* \"#utility.yul\":1436:1910   */\n    tag_42:\n        /* \"#utility.yul\":1504:1510   */\n      0x00\n        /* \"#utility.yul\":1512:1518   */\n      dup1\n        /* \"#utility.yul\":1561:1563   */\n      0x40\n        /* \"#utility.yul\":1549:1558   */\n      dup4\n        /* \"#utility.yul\":1540:1547   */\n      dup6\n        /* \"#utility.yul\":1536:1559   */\n      sub\n        /* \"#utility.yul\":1532:1564   */\n      slt\n        /* \"#utility.yul\":1529:1648   */\n      iszero\n      tag_412\n      jumpi\n        /* \"#utility.yul\":1567:1646   */\n      tag_413\n      tag_404\n      jump\t// in\n    tag_413:\n        /* \"#utility.yul\":1529:1648   */\n    tag_412:\n        /* \"#utility.yul\":1687:1688   */\n      0x00\n        /* \"#utility.yul\":1712:1765   */\n      tag_414\n        /* \"#utility.yul\":1757:1764   */\n      dup6\n        /* \"#utility.yul\":1748:1754   */\n      dup3\n        /* \"#utility.yul\":1737:1746   */\n      dup7\n        /* \"#utility.yul\":1733:1755   */\n      add\n        /* \"#utility.yul\":1712:1765   */\n      tag_385\n      jump\t// in\n    tag_414:\n        /* \"#utility.yul\":1702:1765   */\n      swap3\n      pop\n        /* \"#utility.yul\":1658:1775   */\n      pop\n        /* \"#utility.yul\":1814:1816   */\n      0x20\n        /* \"#utility.yul\":1840:1893   */\n      tag_415\n        /* \"#utility.yul\":1885:1892   */\n      dup6\n        /* \"#utility.yul\":1876:1882   */\n      dup3\n        /* \"#utility.yul\":1865:1874   */\n      dup7\n        /* \"#utility.yul\":1861:1883   */\n      add\n        /* \"#utility.yul\":1840:1893   */\n      tag_397\n      jump\t// in\n    tag_415:\n        /* \"#utility.yul\":1830:1893   */\n      swap2\n      pop\n        /* \"#utility.yul\":1785:1903   */\n      pop\n        /* \"#utility.yul\":1436:1910   */\n      swap3\n      pop\n      swap3\n      swap1\n      pop\n      jump\t// out\n        /* \"#utility.yul\":1916:2265   */\n    tag_355:\n        /* \"#utility.yul\":1985:1991   */\n      0x00\n        /* \"#utility.yul\":2034:2036   */\n      0x20\n        /* \"#utility.yul\":2022:2031   */\n      dup3\n        /* \"#utility.yul\":2013:2020   */\n      dup5\n        /* \"#utility.yul\":2009:2032   */\n      sub\n        /* \"#utility.yul\":2005:2037   */\n      slt\n        /* \"#utility.yul\":2002:2121   */\n      iszero\n      tag_417\n      jumpi\n        /* \"#utility.yul\":2040:2119   */\n      tag_418\n      tag_404\n      jump\t// in\n    tag_418:\n        /* \"#utility.yul\":2002:2121   */\n    tag_417:\n        /* \"#utility.yul\":2160:2161   */\n      0x00\n        /* \"#utility.yul\":2185:2248   */\n      tag_419\n        /* \"#utility.yul\":2240:2247   */\n      dup5\n        /* \"#utility.yul\":2231:2237   */\n      dup3\n        /* \"#utility.yul\":2220:2229   */\n      dup6\n        /* \"#utility.yul\":2216:2238   */\n      add\n        /* \"#utility.yul\":2185:2248   */\n      tag_393\n      jump\t// in\n    tag_419:\n        /* \"#utility.yul\":2175:2248   */\n      swap2\n      pop\n        /* \"#utility.yul\":2131:2258   */\n      pop\n        /* \"#utility.yul\":1916:2265   */\n      swap3\n      swap2\n      pop\n      pop\n      jump\t// out\n        /* \"#utility.yul\":2271:2600   */\n    tag_88:\n        /* \"#utility.yul\":2330:2336   */\n      0x00\n        /* \"#utility.yul\":2379:2381   */\n      0x20\n        /* \"#utility.yul\":2367:2376   */\n      dup3\n        /* \"#utility.yul\":2358:2365   */\n      dup5\n        /* \"#utility.yul\":2354:2377   */\n      sub\n        /* \"#utility.yul\":2350:2382   */\n      slt\n        /* \"#utility.yul\":2347:2466   */\n      iszero\n      tag_421\n      jumpi\n        /* \"#utility.yul\":2385:2464   */\n      tag_422\n      tag_404\n      jump\t// in\n    tag_422:\n        /* \"#utility.yul\":2347:2466   */\n    tag_421:\n        /* \"#utility.yul\":2505:2506   */\n      0x00\n        /* \"#utility.yul\":2530:2583   */\n      tag_423\n        /* \"#utility.yul\":2575:2582   */\n      dup5\n        /* \"#utility.yul\":2566:2572   */\n      dup3\n        /* \"#utility.yul\":2555:2564   */\n      dup6\n        /* \"#utility.yul\":2551:2573   */\n      add\n        /* \"#utility.yul\":2530:2583   */\n      tag_397\n      jump\t// in\n    tag_423:\n        /* \"#utility.yul\":2520:2583   */\n      swap2\n      pop\n        /* \"#utility.yul\":2476:2593   */\n      pop\n        /* \"#utility.yul\":2271:2600   */\n      swap3\n      swap2\n      pop\n      pop\n      jump\t// out\n        /* \"#utility.yul\":2606:2785   */\n    tag_424:\n        /* \"#utility.yul\":2675:2685   */\n      0x00\n        /* \"#utility.yul\":2696:2742   */\n      tag_426\n        /* \"#utility.yul\":2738:2741   */\n      dup4\n        /* \"#utility.yul\":2730:2736   */\n      dup4\n        /* \"#utility.yul\":2696:2742   */\n      tag_427\n      jump\t// in\n    tag_426:\n        /* \"#utility.yul\":2774:2778   */\n      0x20\n        /* \"#utility.yul\":2769:2772   */\n      dup4\n        /* \"#utility.yul\":2765:2779   */\n      add\n        /* \"#utility.yul\":2751:2779   */\n      swap1\n      pop\n        /* \"#utility.yul\":2606:2785   */\n      swap3\n      swap2\n      pop\n      pop\n      jump\t// out\n        /* \"#utility.yul\":2791:2970   */\n    tag_428:\n        /* \"#utility.yul\":2860:2870   */\n      0x00\n        /* \"#utility.yul\":2881:2927   */\n      tag_430\n        /* \"#utility.yul\":2923:2926   */\n      dup4\n        /* \"#utility.yul\":2915:2921   */\n      dup4\n        /* \"#utility.yul\":2881:2927   */\n      tag_431\n      jump\t// in\n    tag_430:\n        /* \"#utility.yul\":2959:2963   */\n      0x20\n        /* \"#utility.yul\":2954:2957   */\n      dup4\n        /* \"#utility.yul\":2950:2964   */\n      add\n        /* \"#utility.yul\":2936:2964   */\n      swap1\n      pop\n        /* \"#utility.yul\":2791:2970   */\n      swap3\n      swap2\n      pop\n      pop\n      jump\t// out\n        /* \"#utility.yul\":2976:3118   */\n    tag_432:\n        /* \"#utility.yul\":3079:3111   */\n      tag_434\n        /* \"#utility.yul\":3105:3110   */\n      dup2\n        /* \"#utility.yul\":3079:3111   */\n      tag_435\n      jump\t// in\n    tag_434:\n        /* \"#utility.yul\":3074:3077   */\n      dup3\n        /* \"#utility.yul\":3067:3112   */\n      mstore\n        /* \"#utility.yul\":2976:3118   */\n      pop\n      pop\n      jump\t// out\n        /* \"#utility.yul\":3124:3313   */\n    tag_436:\n        /* \"#utility.yul\":3245:3306   */\n      tag_438\n        /* \"#utility.yul\":3273:3305   */\n      tag_439\n        /* \"#utility.yul\":3299:3304   */\n      dup3\n        /* \"#utility.yul\":3273:3305   */\n      tag_435\n      jump\t// in\n    tag_439:\n        /* \"#utility.yul\":3245:3306   */\n      tag_440\n      jump\t// in\n    tag_438:\n        /* \"#utility.yul\":3240:3243   */\n      dup3\n        /* \"#utility.yul\":3233:3307   */\n      mstore\n        /* \"#utility.yul\":3124:3313   */\n      pop\n      pop\n      jump\t// out\n        /* \"#utility.yul\":3319:3437   */\n    tag_441:\n        /* \"#utility.yul\":3406:3430   */\n      tag_443\n        /* \"#utility.yul\":3424:3429   */\n      dup2\n        /* \"#utility.yul\":3406:3430   */\n      tag_444\n      jump\t// in\n    tag_443:\n        /* \"#utility.yul\":3401:3404   */\n      dup3\n        /* \"#utility.yul\":3394:3431   */\n      mstore\n        /* \"#utility.yul\":3319:3437   */\n      pop\n      pop\n      jump\t// out\n        /* \"#utility.yul\":3443:3600   */\n    tag_445:\n        /* \"#utility.yul\":3548:3593   */\n      tag_447\n        /* \"#utility.yul\":3568:3592   */\n      tag_448\n        /* \"#utility.yul\":3586:3591   */\n      dup3\n        /* \"#utility.yul\":3568:3592   */\n      tag_444\n      jump\t// in\n    tag_448:\n        /* \"#utility.yul\":3548:3593   */\n      tag_449\n      jump\t// in\n    tag_447:\n        /* \"#utility.yul\":3543:3546   */\n      dup3\n        /* \"#utility.yul\":3536:3594   */\n      mstore\n        /* \"#utility.yul\":3443:3600   */\n      pop\n      pop\n      jump\t// out\n        /* \"#utility.yul\":3636:4368   */\n    tag_450:\n        /* \"#utility.yul\":3755:3758   */\n      0x00\n        /* \"#utility.yul\":3784:3838   */\n      tag_452\n        /* \"#utility.yul\":3832:3837   */\n      dup3\n        /* \"#utility.yul\":3784:3838   */\n      tag_453\n      jump\t// in\n    tag_452:\n        /* \"#utility.yul\":3854:3940   */\n      tag_454\n        /* \"#utility.yul\":3933:3939   */\n      dup2\n        /* \"#utility.yul\":3928:3931   */\n      dup6\n        /* \"#utility.yul\":3854:3940   */\n      tag_455\n      jump\t// in\n    tag_454:\n        /* \"#utility.yul\":3847:3940   */\n      swap4\n      pop\n        /* \"#utility.yul\":3964:4020   */\n      tag_456\n        /* \"#utility.yul\":4014:4019   */\n      dup4\n        /* \"#utility.yul\":3964:4020   */\n      tag_457\n      jump\t// in\n    tag_456:\n        /* \"#utility.yul\":4043:4050   */\n      dup1\n        /* \"#utility.yul\":4074:4075   */\n      0x00\n        /* \"#utility.yul\":4059:4343   */\n    tag_458:\n        /* \"#utility.yul\":4084:4090   */\n      dup4\n        /* \"#utility.yul\":4081:4082   */\n      dup2\n        /* \"#utility.yul\":4078:4091   */\n      lt\n        /* \"#utility.yul\":4059:4343   */\n      iszero\n      tag_460\n      jumpi\n        /* \"#utility.yul\":4160:4166   */\n      dup2\n        /* \"#utility.yul\":4154:4167   */\n      mload\n        /* \"#utility.yul\":4187:4250   */\n      tag_461\n        /* \"#utility.yul\":4246:4249   */\n      dup9\n        /* \"#utility.yul\":4231:4244   */\n      dup3\n        /* \"#utility.yul\":4187:4250   */\n      tag_424\n      jump\t// in\n    tag_461:\n        /* \"#utility.yul\":4180:4250   */\n      swap8\n      pop\n        /* \"#utility.yul\":4273:4333   */\n      tag_462\n        /* \"#utility.yul\":4326:4332   */\n      dup4\n        /* \"#utility.yul\":4273:4333   */\n      tag_463\n      jump\t// in\n    tag_462:\n        /* \"#utility.yul\":4263:4333   */\n      swap3\n      pop\n        /* \"#utility.yul\":4119:4343   */\n      pop\n        /* \"#utility.yul\":4106:4107   */\n      0x01\n        /* \"#utility.yul\":4103:4104   */\n      dup2\n        /* \"#utility.yul\":4099:4108   */\n      add\n        /* \"#utility.yul\":4094:4108   */\n      swap1\n      pop\n        /* \"#utility.yul\":4059:4343   */\n      jump(tag_458)\n    tag_460:\n        /* \"#utility.yul\":4063:4077   */\n      pop\n        /* \"#utility.yul\":4359:4362   */\n      dup6\n        /* \"#utility.yul\":4352:4362   */\n      swap4\n      pop\n        /* \"#utility.yul\":3760:4368   */\n      pop\n      pop\n      pop\n        /* \"#utility.yul\":3636:4368   */\n      swap3\n      swap2\n      pop\n      pop\n      jump\t// out\n        /* \"#utility.yul\":4404:5136   */\n    tag_464:\n        /* \"#utility.yul\":4523:4526   */\n      0x00\n        /* \"#utility.yul\":4552:4606   */\n      tag_466\n        /* \"#utility.yul\":4600:4605   */\n      dup3\n        /* \"#utility.yul\":4552:4606   */\n      tag_467\n      jump\t// in\n    tag_466:\n        /* \"#utility.yul\":4622:4708   */\n      tag_468\n        /* \"#utility.yul\":4701:4707   */\n      dup2\n        /* \"#utility.yul\":4696:4699   */\n      dup6\n        /* \"#utility.yul\":4622:4708   */\n      tag_469\n      jump\t// in\n    tag_468:\n        /* \"#utility.yul\":4615:4708   */\n      swap4\n      pop\n        /* \"#utility.yul\":4732:4788   */\n      tag_470\n        /* \"#utility.yul\":4782:4787   */\n      dup4\n        /* \"#utility.yul\":4732:4788   */\n      tag_471\n      jump\t// in\n    tag_470:\n        /* \"#utility.yul\":4811:4818   */\n      dup1\n        /* \"#utility.yul\":4842:4843   */\n      0x00\n        /* \"#utility.yul\":4827:5111   */\n    tag_472:\n        /* \"#utility.yul\":4852:4858   */\n      dup4\n        /* \"#utility.yul\":4849:4850   */\n      dup2\n        /* \"#utility.yul\":4846:4859   */\n      lt\n        /* \"#utility.yul\":4827:5111   */\n      iszero\n      tag_474\n      jumpi\n        /* \"#utility.yul\":4928:4934   */\n      dup2\n        /* \"#utility.yul\":4922:4935   */\n      mload\n        /* \"#utility.yul\":4955:5018   */\n      tag_475\n        /* \"#utility.yul\":5014:5017   */\n      dup9\n        /* \"#utility.yul\":4999:5012   */\n      dup3\n        /* \"#utility.yul\":4955:5018   */\n      tag_428\n      jump\t// in\n    tag_475:\n        /* \"#utility.yul\":4948:5018   */\n      swap8\n      pop\n        /* \"#utility.yul\":5041:5101   */\n      tag_476\n        /* \"#utility.yul\":5094:5100   */\n      dup4\n        /* \"#utility.yul\":5041:5101   */\n      tag_477\n      jump\t// in\n    tag_476:\n        /* \"#utility.yul\":5031:5101   */\n      swap3\n      pop\n        /* \"#utility.yul\":4887:5111   */\n      pop\n        /* \"#utility.yul\":4874:4875   */\n      0x01\n        /* \"#utility.yul\":4871:4872   */\n      dup2\n        /* \"#utility.yul\":4867:4876   */\n      add\n        /* \"#utility.yul\":4862:4876   */\n      swap1\n      pop\n        /* \"#utility.yul\":4827:5111   */\n      jump(tag_472)\n    tag_474:\n        /* \"#utility.yul\":4831:4845   */\n      pop\n        /* \"#utility.yul\":5127:5130   */\n      dup6\n        /* \"#utility.yul\":5120:5130   */\n      swap4\n      pop\n        /* \"#utility.yul\":4528:5136   */\n      pop\n      pop\n      pop\n        /* \"#utility.yul\":4404:5136   */\n      swap3\n      swap2\n      pop\n      pop\n      jump\t// out\n        /* \"#utility.yul\":5142:5251   */\n    tag_478:\n        /* \"#utility.yul\":5223:5244   */\n      tag_480\n        /* \"#utility.yul\":5238:5243   */\n      dup2\n        /* \"#utility.yul\":5223:5244   */\n      tag_481\n      jump\t// in\n    tag_480:\n        /* \"#utility.yul\":5218:5221   */\n      dup3\n        /* \"#utility.yul\":5211:5245   */\n      mstore\n        /* \"#utility.yul\":5142:5251   */\n      pop\n      pop\n      jump\t// out\n        /* \"#utility.yul\":5257:5365   */\n    tag_427:\n        /* \"#utility.yul\":5334:5358   */\n      tag_483\n        /* \"#utility.yul\":5352:5357   */\n      dup2\n        /* \"#utility.yul\":5334:5358   */\n      tag_484\n      jump\t// in\n    tag_483:\n        /* \"#utility.yul\":5329:5332   */\n      dup3\n        /* \"#utility.yul\":5322:5359   */\n      mstore\n        /* \"#utility.yul\":5257:5365   */\n      pop\n      pop\n      jump\t// out\n        /* \"#utility.yul\":5371:5735   */\n    tag_485:\n        /* \"#utility.yul\":5459:5462   */\n      0x00\n        /* \"#utility.yul\":5487:5526   */\n      tag_487\n        /* \"#utility.yul\":5520:5525   */\n      dup3\n        /* \"#utility.yul\":5487:5526   */\n      tag_488\n      jump\t// in\n    tag_487:\n        /* \"#utility.yul\":5542:5613   */\n      tag_489\n        /* \"#utility.yul\":5606:5612   */\n      dup2\n        /* \"#utility.yul\":5601:5604   */\n      dup6\n        /* \"#utility.yul\":5542:5613   */\n      tag_490\n      jump\t// in\n    tag_489:\n        /* \"#utility.yul\":5535:5613   */\n      swap4\n      pop\n        /* \"#utility.yul\":5622:5674   */\n      tag_491\n        /* \"#utility.yul\":5667:5673   */\n      dup2\n        /* \"#utility.yul\":5662:5665   */\n      dup6\n        /* \"#utility.yul\":5655:5659   */\n      0x20\n        /* \"#utility.yul\":5648:5653   */\n      dup7\n        /* \"#utility.yul\":5644:5660   */\n      add\n        /* \"#utility.yul\":5622:5674   */\n      tag_492\n      jump\t// in\n    tag_491:\n        /* \"#utility.yul\":5699:5728   */\n      tag_493\n        /* \"#utility.yul\":5721:5727   */\n      dup2\n        /* \"#utility.yul\":5699:5728   */\n      tag_494\n      jump\t// in\n    tag_493:\n        /* \"#utility.yul\":5694:5697   */\n      dup5\n        /* \"#utility.yul\":5690:5729   */\n      add\n        /* \"#utility.yul\":5683:5729   */\n      swap2\n      pop\n        /* \"#utility.yul\":5463:5735   */\n      pop\n        /* \"#utility.yul\":5371:5735   */\n      swap3\n      swap2\n      pop\n      pop\n      jump\t// out\n        /* \"#utility.yul\":5741:6118   */\n    tag_495:\n        /* \"#utility.yul\":5847:5850   */\n      0x00\n        /* \"#utility.yul\":5875:5914   */\n      tag_497\n        /* \"#utility.yul\":5908:5913   */\n      dup3\n        /* \"#utility.yul\":5875:5914   */\n      tag_488\n      jump\t// in\n    tag_497:\n        /* \"#utility.yul\":5930:6019   */\n      tag_498\n        /* \"#utility.yul\":6012:6018   */\n      dup2\n        /* \"#utility.yul\":6007:6010   */\n      dup6\n        /* \"#utility.yul\":5930:6019   */\n      tag_499\n      jump\t// in\n    tag_498:\n        /* \"#utility.yul\":5923:6019   */\n      swap4\n      pop\n        /* \"#utility.yul\":6028:6080   */\n      tag_500\n        /* \"#utility.yul\":6073:6079   */\n      dup2\n        /* \"#utility.yul\":6068:6071   */\n      dup6\n        /* \"#utility.yul\":6061:6065   */\n      0x20\n        /* \"#utility.yul\":6054:6059   */\n      dup7\n        /* \"#utility.yul\":6050:6066   */\n      add\n        /* \"#utility.yul\":6028:6080   */\n      tag_492\n      jump\t// in\n    tag_500:\n        /* \"#utility.yul\":6105:6111   */\n      dup1\n        /* \"#utility.yul\":6100:6103   */\n      dup5\n        /* \"#utility.yul\":6096:6112   */\n      add\n        /* \"#utility.yul\":6089:6112   */\n      swap2\n      pop\n        /* \"#utility.yul\":5851:6118   */\n      pop\n        /* \"#utility.yul\":5741:6118   */\n      swap3\n      swap2\n      pop\n      pop\n      jump\t// out\n        /* \"#utility.yul\":6124:6490   */\n    tag_501:\n        /* \"#utility.yul\":6266:6269   */\n      0x00\n        /* \"#utility.yul\":6287:6354   */\n      tag_503\n        /* \"#utility.yul\":6351:6353   */\n      0x34\n        /* \"#utility.yul\":6346:6349   */\n      dup4\n        /* \"#utility.yul\":6287:6354   */\n      tag_490\n      jump\t// in\n    tag_503:\n        /* \"#utility.yul\":6280:6354   */\n      swap2\n      pop\n        /* \"#utility.yul\":6363:6456   */\n      tag_504\n        /* \"#utility.yul\":6452:6455   */\n      dup3\n        /* \"#utility.yul\":6363:6456   */\n      tag_505\n      jump\t// in\n    tag_504:\n        /* \"#utility.yul\":6481:6483   */\n      0x40\n        /* \"#utility.yul\":6476:6479   */\n      dup3\n        /* \"#utility.yul\":6472:6484   */\n      add\n        /* \"#utility.yul\":6465:6484   */\n      swap1\n      pop\n        /* \"#utility.yul\":6124:6490   */\n      swap2\n      swap1\n      pop\n      jump\t// out\n        /* \"#utility.yul\":6496:6862   */\n    tag_506:\n        /* \"#utility.yul\":6638:6641   */\n      0x00\n        /* \"#utility.yul\":6659:6726   */\n      tag_508\n        /* \"#utility.yul\":6723:6725   */\n      0x28\n        /* \"#utility.yul\":6718:6721   */\n      dup4\n        /* \"#utility.yul\":6659:6726   */\n      tag_490\n      jump\t// in\n    tag_508:\n        /* \"#utility.yul\":6652:6726   */\n      swap2\n      pop\n        /* \"#utility.yul\":6735:6828   */\n      tag_509\n        /* \"#utility.yul\":6824:6827   */\n      dup3\n        /* \"#utility.yul\":6735:6828   */\n      tag_510\n      jump\t// in\n    tag_509:\n        /* \"#utility.yul\":6853:6855   */\n      0x40\n        /* \"#utility.yul\":6848:6851   */\n      dup3\n        /* \"#utility.yul\":6844:6856   */\n      add\n        /* \"#utility.yul\":6837:6856   */\n      swap1\n      pop\n        /* \"#utility.yul\":6496:6862   */\n      swap2\n      swap1\n      pop\n      jump\t// out\n        /* \"#utility.yul\":6868:7234   */\n    tag_511:\n        /* \"#utility.yul\":7010:7013   */\n      0x00\n        /* \"#utility.yul\":7031:7098   */\n      tag_513\n        /* \"#utility.yul\":7095:7097   */\n      0x19\n        /* \"#utility.yul\":7090:7093   */\n      dup4\n        /* \"#utility.yul\":7031:7098   */\n      tag_490\n      jump\t// in\n    tag_513:\n        /* \"#utility.yul\":7024:7098   */\n      swap2\n      pop\n        /* \"#utility.yul\":7107:7200   */\n      tag_514\n        /* \"#utility.yul\":7196:7199   */\n      dup3\n        /* \"#utility.yul\":7107:7200   */\n      tag_515\n      jump\t// in\n    tag_514:\n        /* \"#utility.yul\":7225:7227   */\n      0x20\n        /* \"#utility.yul\":7220:7223   */\n      dup3\n        /* \"#utility.yul\":7216:7228   */\n      add\n        /* \"#utility.yul\":7209:7228   */\n      swap1\n      pop\n        /* \"#utility.yul\":6868:7234   */\n      swap2\n      swap1\n      pop\n      jump\t// out\n        /* \"#utility.yul\":7240:7640   */\n    tag_516:\n        /* \"#utility.yul\":7400:7403   */\n      0x00\n        /* \"#utility.yul\":7421:7505   */\n      tag_518\n        /* \"#utility.yul\":7503:7504   */\n      0x08\n        /* \"#utility.yul\":7498:7501   */\n      dup4\n        /* \"#utility.yul\":7421:7505   */\n      tag_499\n      jump\t// in\n    tag_518:\n        /* \"#utility.yul\":7414:7505   */\n      swap2\n      pop\n        /* \"#utility.yul\":7514:7607   */\n      tag_519\n        /* \"#utility.yul\":7603:7606   */\n      dup3\n        /* \"#utility.yul\":7514:7607   */\n      tag_520\n      jump\t// in\n    tag_519:\n        /* \"#utility.yul\":7632:7633   */\n      0x08\n        /* \"#utility.yul\":7627:7630   */\n      dup3\n        /* \"#utility.yul\":7623:7634   */\n      add\n        /* \"#utility.yul\":7616:7634   */\n      swap1\n      pop\n        /* \"#utility.yul\":7240:7640   */\n      swap2\n      swap1\n      pop\n      jump\t// out\n        /* \"#utility.yul\":7646:8012   */\n    tag_521:\n        /* \"#utility.yul\":7788:7791   */\n      0x00\n        /* \"#utility.yul\":7809:7876   */\n      tag_523\n        /* \"#utility.yul\":7873:7875   */\n      0x10\n        /* \"#utility.yul\":7868:7871   */\n      dup4\n        /* \"#utility.yul\":7809:7876   */\n      tag_490\n      jump\t// in\n    tag_523:\n        /* \"#utility.yul\":7802:7876   */\n      swap2\n      pop\n        /* \"#utility.yul\":7885:7978   */\n      tag_524\n        /* \"#utility.yul\":7974:7977   */\n      dup3\n        /* \"#utility.yul\":7885:7978   */\n      tag_525\n      jump\t// in\n    tag_524:\n        /* \"#utility.yul\":8003:8005   */\n      0x20\n        /* \"#utility.yul\":7998:8001   */\n      dup3\n        /* \"#utility.yul\":7994:8006   */\n      add\n        /* \"#utility.yul\":7987:8006   */\n      swap1\n      pop\n        /* \"#utility.yul\":7646:8012   */\n      swap2\n      swap1\n      pop\n      jump\t// out\n        /* \"#utility.yul\":8018:8418   */\n    tag_526:\n        /* \"#utility.yul\":8178:8181   */\n      0x00\n        /* \"#utility.yul\":8199:8283   */\n      tag_528\n        /* \"#utility.yul\":8281:8282   */\n      0x05\n        /* \"#utility.yul\":8276:8279   */\n      dup4\n        /* \"#utility.yul\":8199:8283   */\n      tag_499\n      jump\t// in\n    tag_528:\n        /* \"#utility.yul\":8192:8283   */\n      swap2\n      pop\n        /* \"#utility.yul\":8292:8385   */\n      tag_529\n        /* \"#utility.yul\":8381:8384   */\n      dup3\n        /* \"#utility.yul\":8292:8385   */\n      tag_530\n      jump\t// in\n    tag_529:\n        /* \"#utility.yul\":8410:8411   */\n      0x05\n        /* \"#utility.yul\":8405:8408   */\n      dup3\n        /* \"#utility.yul\":8401:8412   */\n      add\n        /* \"#utility.yul\":8394:8412   */\n      swap1\n      pop\n        /* \"#utility.yul\":8018:8418   */\n      swap2\n      swap1\n      pop\n      jump\t// out\n        /* \"#utility.yul\":8424:8790   */\n    tag_531:\n        /* \"#utility.yul\":8566:8569   */\n      0x00\n        /* \"#utility.yul\":8587:8654   */\n      tag_533\n        /* \"#utility.yul\":8651:8653   */\n      0x12\n        /* \"#utility.yul\":8646:8649   */\n      dup4\n        /* \"#utility.yul\":8587:8654   */\n      tag_490\n      jump\t// in\n    tag_533:\n        /* \"#utility.yul\":8580:8654   */\n      swap2\n      pop\n        /* \"#utility.yul\":8663:8756   */\n      tag_534\n        /* \"#utility.yul\":8752:8755   */\n      dup3\n        /* \"#utility.yul\":8663:8756   */\n      tag_535\n      jump\t// in\n    tag_534:\n        /* \"#utility.yul\":8781:8783   */\n      0x20\n        /* \"#utility.yul\":8776:8779   */\n      dup3\n        /* \"#utility.yul\":8772:8784   */\n      add\n        /* \"#utility.yul\":8765:8784   */\n      swap1\n      pop\n        /* \"#utility.yul\":8424:8790   */\n      swap2\n      swap1\n      pop\n      jump\t// out\n        /* \"#utility.yul\":8796:9162   */\n    tag_536:\n        /* \"#utility.yul\":8938:8941   */\n      0x00\n        /* \"#utility.yul\":8959:9026   */\n      tag_538\n        /* \"#utility.yul\":9023:9025   */\n      0x1b\n        /* \"#utility.yul\":9018:9021   */\n      dup4\n        /* \"#utility.yul\":8959:9026   */\n      tag_490\n      jump\t// in\n    tag_538:\n        /* \"#utility.yul\":8952:9026   */\n      swap2\n      pop\n        /* \"#utility.yul\":9035:9128   */\n      tag_539\n        /* \"#utility.yul\":9124:9127   */\n      dup3\n        /* \"#utility.yul\":9035:9128   */\n      tag_540\n      jump\t// in\n    tag_539:\n        /* \"#utility.yul\":9153:9155   */\n      0x20\n        /* \"#utility.yul\":9148:9151   */\n      dup3\n        /* \"#utility.yul\":9144:9156   */\n      add\n        /* \"#utility.yul\":9137:9156   */\n      swap1\n      pop\n        /* \"#utility.yul\":8796:9162   */\n      swap2\n      swap1\n      pop\n      jump\t// out\n        /* \"#utility.yul\":9168:9534   */\n    tag_541:\n        /* \"#utility.yul\":9310:9313   */\n      0x00\n        /* \"#utility.yul\":9331:9398   */\n      tag_543\n        /* \"#utility.yul\":9395:9397   */\n      0x1b\n        /* \"#utility.yul\":9390:9393   */\n      dup4\n        /* \"#utility.yul\":9331:9398   */\n      tag_490\n      jump\t// in\n    tag_543:\n        /* \"#utility.yul\":9324:9398   */\n      swap2\n      pop\n        /* \"#utility.yul\":9407:9500   */\n      tag_544\n        /* \"#utility.yul\":9496:9499   */\n      dup3\n        /* \"#utility.yul\":9407:9500   */\n      tag_545\n      jump\t// in\n    tag_544:\n        /* \"#utility.yul\":9525:9527   */\n      0x20\n        /* \"#utility.yul\":9520:9523   */\n      dup3\n        /* \"#utility.yul\":9516:9528   */\n      add\n        /* \"#utility.yul\":9509:9528   */\n      swap1\n      pop\n        /* \"#utility.yul\":9168:9534   */\n      swap2\n      swap1\n      pop\n      jump\t// out\n        /* \"#utility.yul\":9540:9906   */\n    tag_546:\n        /* \"#utility.yul\":9682:9685   */\n      0x00\n        /* \"#utility.yul\":9703:9770   */\n      tag_548\n        /* \"#utility.yul\":9767:9769   */\n      0x15\n        /* \"#utility.yul\":9762:9765   */\n      dup4\n        /* \"#utility.yul\":9703:9770   */\n      tag_490\n      jump\t// in\n    tag_548:\n        /* \"#utility.yul\":9696:9770   */\n      swap2\n      pop\n        /* \"#utility.yul\":9779:9872   */\n      tag_549\n        /* \"#utility.yul\":9868:9871   */\n      dup3\n        /* \"#utility.yul\":9779:9872   */\n      tag_550\n      jump\t// in\n    tag_549:\n        /* \"#utility.yul\":9897:9899   */\n      0x20\n        /* \"#utility.yul\":9892:9895   */\n      dup3\n        /* \"#utility.yul\":9888:9900   */\n      add\n        /* \"#utility.yul\":9881:9900   */\n      swap1\n      pop\n        /* \"#utility.yul\":9540:9906   */\n      swap2\n      swap1\n      pop\n      jump\t// out\n        /* \"#utility.yul\":9912:10278   */\n    tag_551:\n        /* \"#utility.yul\":10054:10057   */\n      0x00\n        /* \"#utility.yul\":10075:10142   */\n      tag_553\n        /* \"#utility.yul\":10139:10141   */\n      0x1c\n        /* \"#utility.yul\":10134:10137   */\n      dup4\n        /* \"#utility.yul\":10075:10142   */\n      tag_490\n      jump\t// in\n    tag_553:\n        /* \"#utility.yul\":10068:10142   */\n      swap2\n      pop\n        /* \"#utility.yul\":10151:10244   */\n      tag_554\n        /* \"#utility.yul\":10240:10243   */\n      dup3\n        /* \"#utility.yul\":10151:10244   */\n      tag_555\n      jump\t// in\n    tag_554:\n        /* \"#utility.yul\":10269:10271   */\n      0x20\n        /* \"#utility.yul\":10264:10267   */\n      dup3\n        /* \"#utility.yul\":10260:10272   */\n      add\n        /* \"#utility.yul\":10253:10272   */\n      swap1\n      pop\n        /* \"#utility.yul\":9912:10278   */\n      swap2\n      swap1\n      pop\n      jump\t// out\n        /* \"#utility.yul\":10284:10650   */\n    tag_556:\n        /* \"#utility.yul\":10426:10429   */\n      0x00\n        /* \"#utility.yul\":10447:10514   */\n      tag_558\n        /* \"#utility.yul\":10511:10513   */\n      0x1f\n        /* \"#utility.yul\":10506:10509   */\n      dup4\n        /* \"#utility.yul\":10447:10514   */\n      tag_490\n      jump\t// in\n    tag_558:\n        /* \"#utility.yul\":10440:10514   */\n      swap2\n      pop\n        /* \"#utility.yul\":10523:10616   */\n      tag_559\n        /* \"#utility.yul\":10612:10615   */\n      dup3\n        /* \"#utility.yul\":10523:10616   */\n      tag_560\n      jump\t// in\n    tag_559:\n        /* \"#utility.yul\":10641:10643   */\n      0x20\n        /* \"#utility.yul\":10636:10639   */\n      dup3\n        /* \"#utility.yul\":10632:10644   */\n      add\n        /* \"#utility.yul\":10625:10644   */\n      swap1\n      pop\n        /* \"#utility.yul\":10284:10650   */\n      swap2\n      swap1\n      pop\n      jump\t// out\n        /* \"#utility.yul\":10656:11022   */\n    tag_561:\n        /* \"#utility.yul\":10798:10801   */\n      0x00\n        /* \"#utility.yul\":10819:10886   */\n      tag_563\n        /* \"#utility.yul\":10883:10885   */\n      0x1b\n        /* \"#utility.yul\":10878:10881   */\n      dup4\n        /* \"#utility.yul\":10819:10886   */\n      tag_490\n      jump\t// in\n    tag_563:\n        /* \"#utility.yul\":10812:10886   */\n      swap2\n      pop\n        /* \"#utility.yul\":10895:10988   */\n      tag_564\n        /* \"#utility.yul\":10984:10987   */\n      dup3\n        /* \"#utility.yul\":10895:10988   */\n      tag_565\n      jump\t// in\n    tag_564:\n        /* \"#utility.yul\":11013:11015   */\n      0x20\n        /* \"#utility.yul\":11008:11011   */\n      dup3\n        /* \"#utility.yul\":11004:11016   */\n      add\n        /* \"#utility.yul\":10997:11016   */\n      swap1\n      pop\n        /* \"#utility.yul\":10656:11022   */\n      swap2\n      swap1\n      pop\n      jump\t// out\n        /* \"#utility.yul\":11028:11394   */\n    tag_566:\n        /* \"#utility.yul\":11170:11173   */\n      0x00\n        /* \"#utility.yul\":11191:11258   */\n      tag_568\n        /* \"#utility.yul\":11255:11257   */\n      0x19\n        /* \"#utility.yul\":11250:11253   */\n      dup4\n        /* \"#utility.yul\":11191:11258   */\n      tag_490\n      jump\t// in\n    tag_568:\n        /* \"#utility.yul\":11184:11258   */\n      swap2\n      pop\n        /* \"#utility.yul\":11267:11360   */\n      tag_569\n        /* \"#utility.yul\":11356:11359   */\n      dup3\n        /* \"#utility.yul\":11267:11360   */\n      tag_570\n      jump\t// in\n    tag_569:\n        /* \"#utility.yul\":11385:11387   */\n      0x20\n        /* \"#utility.yul\":11380:11383   */\n      dup3\n        /* \"#utility.yul\":11376:11388   */\n      add\n        /* \"#utility.yul\":11369:11388   */\n      swap1\n      pop\n        /* \"#utility.yul\":11028:11394   */\n      swap2\n      swap1\n      pop\n      jump\t// out\n        /* \"#utility.yul\":11400:11800   */\n    tag_571:\n        /* \"#utility.yul\":11560:11563   */\n      0x00\n        /* \"#utility.yul\":11581:11665   */\n      tag_573\n        /* \"#utility.yul\":11663:11664   */\n      0x07\n        /* \"#utility.yul\":11658:11661   */\n      dup4\n        /* \"#utility.yul\":11581:11665   */\n      tag_499\n      jump\t// in\n    tag_573:\n        /* \"#utility.yul\":11574:11665   */\n      swap2\n      pop\n        /* \"#utility.yul\":11674:11767   */\n      tag_574\n        /* \"#utility.yul\":11763:11766   */\n      dup3\n        /* \"#utility.yul\":11674:11767   */\n      tag_575\n      jump\t// in\n    tag_574:\n        /* \"#utility.yul\":11792:11793   */\n      0x07\n        /* \"#utility.yul\":11787:11790   */\n      dup3\n        /* \"#utility.yul\":11783:11794   */\n      add\n        /* \"#utility.yul\":11776:11794   */\n      swap1\n      pop\n        /* \"#utility.yul\":11400:11800   */\n      swap2\n      swap1\n      pop\n      jump\t// out\n        /* \"#utility.yul\":11806:12172   */\n    tag_576:\n        /* \"#utility.yul\":11948:11951   */\n      0x00\n        /* \"#utility.yul\":11969:12036   */\n      tag_578\n        /* \"#utility.yul\":12033:12035   */\n      0x21\n        /* \"#utility.yul\":12028:12031   */\n      dup4\n        /* \"#utility.yul\":11969:12036   */\n      tag_490\n      jump\t// in\n    tag_578:\n        /* \"#utility.yul\":11962:12036   */\n      swap2\n      pop\n        /* \"#utility.yul\":12045:12138   */\n      tag_579\n        /* \"#utility.yul\":12134:12137   */\n      dup3\n        /* \"#utility.yul\":12045:12138   */\n      tag_580\n      jump\t// in\n    tag_579:\n        /* \"#utility.yul\":12163:12165   */\n      0x40\n        /* \"#utility.yul\":12158:12161   */\n      dup3\n        /* \"#utility.yul\":12154:12166   */\n      add\n        /* \"#utility.yul\":12147:12166   */\n      swap1\n      pop\n        /* \"#utility.yul\":11806:12172   */\n      swap2\n      swap1\n      pop\n      jump\t// out\n        /* \"#utility.yul\":12178:12286   */\n    tag_431:\n        /* \"#utility.yul\":12255:12279   */\n      tag_582\n        /* \"#utility.yul\":12273:12278   */\n      dup2\n        /* \"#utility.yul\":12255:12279   */\n      tag_583\n      jump\t// in\n    tag_582:\n        /* \"#utility.yul\":12250:12253   */\n      dup3\n        /* \"#utility.yul\":12243:12280   */\n      mstore\n        /* \"#utility.yul\":12178:12286   */\n      pop\n      pop\n      jump\t// out\n        /* \"#utility.yul\":12292:12410   */\n    tag_584:\n        /* \"#utility.yul\":12379:12403   */\n      tag_586\n        /* \"#utility.yul\":12397:12402   */\n      dup2\n        /* \"#utility.yul\":12379:12403   */\n      tag_583\n      jump\t// in\n    tag_586:\n        /* \"#utility.yul\":12374:12377   */\n      dup3\n        /* \"#utility.yul\":12367:12404   */\n      mstore\n        /* \"#utility.yul\":12292:12410   */\n      pop\n      pop\n      jump\t// out\n        /* \"#utility.yul\":12416:12573   */\n    tag_587:\n        /* \"#utility.yul\":12521:12566   */\n      tag_589\n        /* \"#utility.yul\":12541:12565   */\n      tag_590\n        /* \"#utility.yul\":12559:12564   */\n      dup3\n        /* \"#utility.yul\":12541:12565   */\n      tag_583\n      jump\t// in\n    tag_590:\n        /* \"#utility.yul\":12521:12566   */\n      tag_591\n      jump\t// in\n    tag_589:\n        /* \"#utility.yul\":12516:12519   */\n      dup3\n        /* \"#utility.yul\":12509:12567   */\n      mstore\n        /* \"#utility.yul\":12416:12573   */\n      pop\n      pop\n      jump\t// out\n        /* \"#utility.yul\":12579:13014   */\n    tag_149:\n        /* \"#utility.yul\":12759:12762   */\n      0x00\n        /* \"#utility.yul\":12781:12876   */\n      tag_593\n        /* \"#utility.yul\":12872:12875   */\n      dup3\n        /* \"#utility.yul\":12863:12869   */\n      dup6\n        /* \"#utility.yul\":12781:12876   */\n      tag_495\n      jump\t// in\n    tag_593:\n        /* \"#utility.yul\":12774:12876   */\n      swap2\n      pop\n        /* \"#utility.yul\":12893:12988   */\n      tag_594\n        /* \"#utility.yul\":12984:12987   */\n      dup3\n        /* \"#utility.yul\":12975:12981   */\n      dup5\n        /* \"#utility.yul\":12893:12988   */\n      tag_495\n      jump\t// in\n    tag_594:\n        /* \"#utility.yul\":12886:12988   */\n      swap2\n      pop\n        /* \"#utility.yul\":13005:13008   */\n      dup2\n        /* \"#utility.yul\":12998:13008   */\n      swap1\n      pop\n        /* \"#utility.yul\":12579:13014   */\n      swap4\n      swap3\n      pop\n      pop\n      pop\n      jump\t// out\n        /* \"#utility.yul\":13020:13561   */\n    tag_292:\n        /* \"#utility.yul\":13253:13256   */\n      0x00\n        /* \"#utility.yul\":13275:13423   */\n      tag_596\n        /* \"#utility.yul\":13419:13422   */\n      dup3\n        /* \"#utility.yul\":13275:13423   */\n      tag_516\n      jump\t// in\n    tag_596:\n        /* \"#utility.yul\":13268:13423   */\n      swap2\n      pop\n        /* \"#utility.yul\":13440:13535   */\n      tag_597\n        /* \"#utility.yul\":13531:13534   */\n      dup3\n        /* \"#utility.yul\":13522:13528   */\n      dup5\n        /* \"#utility.yul\":13440:13535   */\n      tag_495\n      jump\t// in\n    tag_597:\n        /* \"#utility.yul\":13433:13535   */\n      swap2\n      pop\n        /* \"#utility.yul\":13552:13555   */\n      dup2\n        /* \"#utility.yul\":13545:13555   */\n      swap1\n      pop\n        /* \"#utility.yul\":13020:13561   */\n      swap3\n      swap2\n      pop\n      pop\n      jump\t// out\n        /* \"#utility.yul\":13567:14108   */\n    tag_302:\n        /* \"#utility.yul\":13800:13803   */\n      0x00\n        /* \"#utility.yul\":13822:13970   */\n      tag_599\n        /* \"#utility.yul\":13966:13969   */\n      dup3\n        /* \"#utility.yul\":13822:13970   */\n      tag_526\n      jump\t// in\n    tag_599:\n        /* \"#utility.yul\":13815:13970   */\n      swap2\n      pop\n        /* \"#utility.yul\":13987:14082   */\n      tag_600\n        /* \"#utility.yul\":14078:14081   */\n      dup3\n        /* \"#utility.yul\":14069:14075   */\n      dup5\n        /* \"#utility.yul\":13987:14082   */\n      tag_495\n      jump\t// in\n    tag_600:\n        /* \"#utility.yul\":13980:14082   */\n      swap2\n      pop\n        /* \"#utility.yul\":14099:14102   */\n      dup2\n        /* \"#utility.yul\":14092:14102   */\n      swap1\n      pop\n        /* \"#utility.yul\":13567:14108   */\n      swap3\n      swap2\n      pop\n      pop\n      jump\t// out\n        /* \"#utility.yul\":14114:14655   */\n    tag_311:\n        /* \"#utility.yul\":14347:14350   */\n      0x00\n        /* \"#utility.yul\":14369:14517   */\n      tag_602\n        /* \"#utility.yul\":14513:14516   */\n      dup3\n        /* \"#utility.yul\":14369:14517   */\n      tag_571\n      jump\t// in\n    tag_602:\n        /* \"#utility.yul\":14362:14517   */\n      swap2\n      pop\n        /* \"#utility.yul\":14534:14629   */\n      tag_603\n        /* \"#utility.yul\":14625:14628   */\n      dup3\n        /* \"#utility.yul\":14616:14622   */\n      dup5\n        /* \"#utility.yul\":14534:14629   */\n      tag_495\n      jump\t// in\n    tag_603:\n        /* \"#utility.yul\":14527:14629   */\n      swap2\n      pop\n        /* \"#utility.yul\":14646:14649   */\n      dup2\n        /* \"#utility.yul\":14639:14649   */\n      swap1\n      pop\n        /* \"#utility.yul\":14114:14655   */\n      swap3\n      swap2\n      pop\n      pop\n      jump\t// out\n        /* \"#utility.yul\":14661:15231   */\n    tag_281:\n        /* \"#utility.yul\":14845:14848   */\n      0x00\n        /* \"#utility.yul\":14860:14935   */\n      tag_605\n        /* \"#utility.yul\":14931:14934   */\n      dup3\n        /* \"#utility.yul\":14922:14928   */\n      dup7\n        /* \"#utility.yul\":14860:14935   */\n      tag_587\n      jump\t// in\n    tag_605:\n        /* \"#utility.yul\":14960:14962   */\n      0x20\n        /* \"#utility.yul\":14955:14958   */\n      dup3\n        /* \"#utility.yul\":14951:14963   */\n      add\n        /* \"#utility.yul\":14944:14963   */\n      swap2\n      pop\n        /* \"#utility.yul\":14973:15048   */\n      tag_606\n        /* \"#utility.yul\":15044:15047   */\n      dup3\n        /* \"#utility.yul\":15035:15041   */\n      dup6\n        /* \"#utility.yul\":14973:15048   */\n      tag_445\n      jump\t// in\n    tag_606:\n        /* \"#utility.yul\":15073:15075   */\n      0x14\n        /* \"#utility.yul\":15068:15071   */\n      dup3\n        /* \"#utility.yul\":15064:15076   */\n      add\n        /* \"#utility.yul\":15057:15076   */\n      swap2\n      pop\n        /* \"#utility.yul\":15086:15177   */\n      tag_607\n        /* \"#utility.yul\":15173:15176   */\n      dup3\n        /* \"#utility.yul\":15164:15170   */\n      dup5\n        /* \"#utility.yul\":15086:15177   */\n      tag_436\n      jump\t// in\n    tag_607:\n        /* \"#utility.yul\":15202:15204   */\n      0x14\n        /* \"#utility.yul\":15197:15200   */\n      dup3\n        /* \"#utility.yul\":15193:15205   */\n      add\n        /* \"#utility.yul\":15186:15205   */\n      swap2\n      pop\n        /* \"#utility.yul\":15222:15225   */\n      dup2\n        /* \"#utility.yul\":15215:15225   */\n      swap1\n      pop\n        /* \"#utility.yul\":14661:15231   */\n      swap5\n      swap4\n      pop\n      pop\n      pop\n      pop\n      jump\t// out\n        /* \"#utility.yul\":15237:15491   */\n    tag_80:\n        /* \"#utility.yul\":15346:15350   */\n      0x00\n        /* \"#utility.yul\":15384:15386   */\n      0x20\n        /* \"#utility.yul\":15373:15382   */\n      dup3\n        /* \"#utility.yul\":15369:15387   */\n      add\n        /* \"#utility.yul\":15361:15387   */\n      swap1\n      pop\n        /* \"#utility.yul\":15397:15484   */\n      tag_609\n        /* \"#utility.yul\":15481:15482   */\n      0x00\n        /* \"#utility.yul\":15470:15479   */\n      dup4\n        /* \"#utility.yul\":15466:15483   */\n      add\n        /* \"#utility.yul\":15457:15463   */\n      dup5\n        /* \"#utility.yul\":15397:15484   */\n      tag_432\n      jump\t// in\n    tag_609:\n        /* \"#utility.yul\":15237:15491   */\n      swap3\n      swap2\n      pop\n      pop\n      jump\t// out\n        /* \"#utility.yul\":15497:16252   */\n    tag_351:\n        /* \"#utility.yul\":15722:15726   */\n      0x00\n        /* \"#utility.yul\":15760:15763   */\n      0xa0\n        /* \"#utility.yul\":15749:15758   */\n      dup3\n        /* \"#utility.yul\":15745:15764   */\n      add\n        /* \"#utility.yul\":15737:15764   */\n      swap1\n      pop\n        /* \"#utility.yul\":15774:15845   */\n      tag_611\n        /* \"#utility.yul\":15842:15843   */\n      0x00\n        /* \"#utility.yul\":15831:15840   */\n      dup4\n        /* \"#utility.yul\":15827:15844   */\n      add\n        /* \"#utility.yul\":15818:15824   */\n      dup9\n        /* \"#utility.yul\":15774:15845   */\n      tag_441\n      jump\t// in\n    tag_611:\n        /* \"#utility.yul\":15855:15927   */\n      tag_612\n        /* \"#utility.yul\":15923:15925   */\n      0x20\n        /* \"#utility.yul\":15912:15921   */\n      dup4\n        /* \"#utility.yul\":15908:15926   */\n      add\n        /* \"#utility.yul\":15899:15905   */\n      dup8\n        /* \"#utility.yul\":15855:15927   */\n      tag_441\n      jump\t// in\n    tag_612:\n        /* \"#utility.yul\":15937:16009   */\n      tag_613\n        /* \"#utility.yul\":16005:16007   */\n      0x40\n        /* \"#utility.yul\":15994:16003   */\n      dup4\n        /* \"#utility.yul\":15990:16008   */\n      add\n        /* \"#utility.yul\":15981:15987   */\n      dup7\n        /* \"#utility.yul\":15937:16009   */\n      tag_584\n      jump\t// in\n    tag_613:\n        /* \"#utility.yul\":16019:16091   */\n      tag_614\n        /* \"#utility.yul\":16087:16089   */\n      0x60\n        /* \"#utility.yul\":16076:16085   */\n      dup4\n        /* \"#utility.yul\":16072:16090   */\n      add\n        /* \"#utility.yul\":16063:16069   */\n      dup6\n        /* \"#utility.yul\":16019:16091   */\n      tag_584\n      jump\t// in\n    tag_614:\n        /* \"#utility.yul\":16139:16148   */\n      dup2\n        /* \"#utility.yul\":16133:16137   */\n      dup2\n        /* \"#utility.yul\":16129:16149   */\n      sub\n        /* \"#utility.yul\":16123:16126   */\n      0x80\n        /* \"#utility.yul\":16112:16121   */\n      dup4\n        /* \"#utility.yul\":16108:16127   */\n      add\n        /* \"#utility.yul\":16101:16150   */\n      mstore\n        /* \"#utility.yul\":16167:16245   */\n      tag_615\n        /* \"#utility.yul\":16240:16244   */\n      dup2\n        /* \"#utility.yul\":16231:16237   */\n      dup5\n        /* \"#utility.yul\":16167:16245   */\n      tag_485\n      jump\t// in\n    tag_615:\n        /* \"#utility.yul\":16159:16245   */\n      swap1\n      pop\n        /* \"#utility.yul\":15497:16252   */\n      swap7\n      swap6\n      pop\n      pop\n      pop\n      pop\n      pop\n      pop\n      jump\t// out\n        /* \"#utility.yul\":16258:16631   */\n    tag_50:\n        /* \"#utility.yul\":16401:16405   */\n      0x00\n        /* \"#utility.yul\":16439:16441   */\n      0x20\n        /* \"#utility.yul\":16428:16437   */\n      dup3\n        /* \"#utility.yul\":16424:16442   */\n      add\n        /* \"#utility.yul\":16416:16442   */\n      swap1\n      pop\n        /* \"#utility.yul\":16488:16497   */\n      dup2\n        /* \"#utility.yul\":16482:16486   */\n      dup2\n        /* \"#utility.yul\":16478:16498   */\n      sub\n        /* \"#utility.yul\":16474:16475   */\n      0x00\n        /* \"#utility.yul\":16463:16472   */\n      dup4\n        /* \"#utility.yul\":16459:16476   */\n      add\n        /* \"#utility.yul\":16452:16499   */\n      mstore\n        /* \"#utility.yul\":16516:16624   */\n      tag_617\n        /* \"#utility.yul\":16619:16623   */\n      dup2\n        /* \"#utility.yul\":16610:16616   */\n      dup5\n        /* \"#utility.yul\":16516:16624   */\n      tag_450\n      jump\t// in\n    tag_617:\n        /* \"#utility.yul\":16508:16624   */\n      swap1\n      pop\n        /* \"#utility.yul\":16258:16631   */\n      swap3\n      swap2\n      pop\n      pop\n      jump\t// out\n        /* \"#utility.yul\":16637:17010   */\n    tag_39:\n        /* \"#utility.yul\":16780:16784   */\n      0x00\n        /* \"#utility.yul\":16818:16820   */\n      0x20\n        /* \"#utility.yul\":16807:16816   */\n      dup3\n        /* \"#utility.yul\":16803:16821   */\n      add\n        /* \"#utility.yul\":16795:16821   */\n      swap1\n      pop\n        /* \"#utility.yul\":16867:16876   */\n      dup2\n        /* \"#utility.yul\":16861:16865   */\n      dup2\n        /* \"#utility.yul\":16857:16877   */\n      sub\n        /* \"#utility.yul\":16853:16854   */\n      0x00\n        /* \"#utility.yul\":16842:16851   */\n      dup4\n        /* \"#utility.yul\":16838:16855   */\n      add\n        /* \"#utility.yul\":16831:16878   */\n      mstore\n        /* \"#utility.yul\":16895:17003   */\n      tag_619\n        /* \"#utility.yul\":16998:17002   */\n      dup2\n        /* \"#utility.yul\":16989:16995   */\n      dup5\n        /* \"#utility.yul\":16895:17003   */\n      tag_464\n      jump\t// in\n    tag_619:\n        /* \"#utility.yul\":16887:17003   */\n      swap1\n      pop\n        /* \"#utility.yul\":16637:17010   */\n      swap3\n      swap2\n      pop\n      pop\n      jump\t// out\n        /* \"#utility.yul\":17016:17226   */\n    tag_75:\n        /* \"#utility.yul\":17103:17107   */\n      0x00\n        /* \"#utility.yul\":17141:17143   */\n      0x20\n        /* \"#utility.yul\":17130:17139   */\n      dup3\n        /* \"#utility.yul\":17126:17144   */\n      add\n        /* \"#utility.yul\":17118:17144   */\n      swap1\n      pop\n        /* \"#utility.yul\":17154:17219   */\n      tag_621\n        /* \"#utility.yul\":17216:17217   */\n      0x00\n        /* \"#utility.yul\":17205:17214   */\n      dup4\n        /* \"#utility.yul\":17201:17218   */\n      add\n        /* \"#utility.yul\":17192:17198   */\n      dup5\n        /* \"#utility.yul\":17154:17219   */\n      tag_478\n      jump\t// in\n    tag_621:\n        /* \"#utility.yul\":17016:17226   */\n      swap3\n      swap2\n      pop\n      pop\n      jump\t// out\n        /* \"#utility.yul\":17232:17545   */\n    tag_366:\n        /* \"#utility.yul\":17345:17349   */\n      0x00\n        /* \"#utility.yul\":17383:17385   */\n      0x20\n        /* \"#utility.yul\":17372:17381   */\n      dup3\n        /* \"#utility.yul\":17368:17386   */\n      add\n        /* \"#utility.yul\":17360:17386   */\n      swap1\n      pop\n        /* \"#utility.yul\":17432:17441   */\n      dup2\n        /* \"#utility.yul\":17426:17430   */\n      dup2\n        /* \"#utility.yul\":17422:17442   */\n      sub\n        /* \"#utility.yul\":17418:17419   */\n      0x00\n        /* \"#utility.yul\":17407:17416   */\n      dup4\n        /* \"#utility.yul\":17403:17420   */\n      add\n        /* \"#utility.yul\":17396:17443   */\n      mstore\n        /* \"#utility.yul\":17460:17538   */\n      tag_623\n        /* \"#utility.yul\":17533:17537   */\n      dup2\n        /* \"#utility.yul\":17524:17530   */\n      dup5\n        /* \"#utility.yul\":17460:17538   */\n      tag_485\n      jump\t// in\n    tag_623:\n        /* \"#utility.yul\":17452:17538   */\n      swap1\n      pop\n        /* \"#utility.yul\":17232:17545   */\n      swap3\n      swap2\n      pop\n      pop\n      jump\t// out\n        /* \"#utility.yul\":17551:17970   */\n    tag_368:\n        /* \"#utility.yul\":17717:17721   */\n      0x00\n        /* \"#utility.yul\":17755:17757   */\n      0x20\n        /* \"#utility.yul\":17744:17753   */\n      dup3\n        /* \"#utility.yul\":17740:17758   */\n      add\n        /* \"#utility.yul\":17732:17758   */\n      swap1\n      pop\n        /* \"#utility.yul\":17804:17813   */\n      dup2\n        /* \"#utility.yul\":17798:17802   */\n      dup2\n        /* \"#utility.yul\":17794:17814   */\n      sub\n        /* \"#utility.yul\":17790:17791   */\n      0x00\n        /* \"#utility.yul\":17779:17788   */\n      dup4\n        /* \"#utility.yul\":17775:17792   */\n      add\n        /* \"#utility.yul\":17768:17815   */\n      mstore\n        /* \"#utility.yul\":17832:17963   */\n      tag_625\n        /* \"#utility.yul\":17958:17962   */\n      dup2\n        /* \"#utility.yul\":17832:17963   */\n      tag_501\n      jump\t// in\n    tag_625:\n        /* \"#utility.yul\":17824:17963   */\n      swap1\n      pop\n        /* \"#utility.yul\":17551:17970   */\n      swap2\n      swap1\n      pop\n      jump\t// out\n        /* \"#utility.yul\":17976:18395   */\n    tag_372:\n        /* \"#utility.yul\":18142:18146   */\n      0x00\n        /* \"#utility.yul\":18180:18182   */\n      0x20\n        /* \"#utility.yul\":18169:18178   */\n      dup3\n        /* \"#utility.yul\":18165:18183   */\n      add\n        /* \"#utility.yul\":18157:18183   */\n      swap1\n      pop\n        /* \"#utility.yul\":18229:18238   */\n      dup2\n        /* \"#utility.yul\":18223:18227   */\n      dup2\n        /* \"#utility.yul\":18219:18239   */\n      sub\n        /* \"#utility.yul\":18215:18216   */\n      0x00\n        /* \"#utility.yul\":18204:18213   */\n      dup4\n        /* \"#utility.yul\":18200:18217   */\n      add\n        /* \"#utility.yul\":18193:18240   */\n      mstore\n        /* \"#utility.yul\":18257:18388   */\n      tag_627\n        /* \"#utility.yul\":18383:18387   */\n      dup2\n        /* \"#utility.yul\":18257:18388   */\n      tag_506\n      jump\t// in\n    tag_627:\n        /* \"#utility.yul\":18249:18388   */\n      swap1\n      pop\n        /* \"#utility.yul\":17976:18395   */\n      swap2\n      swap1\n      pop\n      jump\t// out\n        /* \"#utility.yul\":18401:18820   */\n    tag_108:\n        /* \"#utility.yul\":18567:18571   */\n      0x00\n        /* \"#utility.yul\":18605:18607   */\n      0x20\n        /* \"#utility.yul\":18594:18603   */\n      dup3\n        /* \"#utility.yul\":18590:18608   */\n      add\n        /* \"#utility.yul\":18582:18608   */\n      swap1\n      pop\n        /* \"#utility.yul\":18654:18663   */\n      dup2\n        /* \"#utility.yul\":18648:18652   */\n      dup2\n        /* \"#utility.yul\":18644:18664   */\n      sub\n        /* \"#utility.yul\":18640:18641   */\n      0x00\n        /* \"#utility.yul\":18629:18638   */\n      dup4\n        /* \"#utility.yul\":18625:18642   */\n      add\n        /* \"#utility.yul\":18618:18665   */\n      mstore\n        /* \"#utility.yul\":18682:18813   */\n      tag_629\n        /* \"#utility.yul\":18808:18812   */\n      dup2\n        /* \"#utility.yul\":18682:18813   */\n      tag_511\n      jump\t// in\n    tag_629:\n        /* \"#utility.yul\":18674:18813   */\n      swap1\n      pop\n        /* \"#utility.yul\":18401:18820   */\n      swap2\n      swap1\n      pop\n      jump\t// out\n        /* \"#utility.yul\":18826:19245   */\n    tag_135:\n        /* \"#utility.yul\":18992:18996   */\n      0x00\n        /* \"#utility.yul\":19030:19032   */\n      0x20\n        /* \"#utility.yul\":19019:19028   */\n      dup3\n        /* \"#utility.yul\":19015:19033   */\n      add\n        /* \"#utility.yul\":19007:19033   */\n      swap1\n      pop\n        /* \"#utility.yul\":19079:19088   */\n      dup2\n        /* \"#utility.yul\":19073:19077   */\n      dup2\n        /* \"#utility.yul\":19069:19089   */\n      sub\n        /* \"#utility.yul\":19065:19066   */\n      0x00\n        /* \"#utility.yul\":19054:19063   */\n      dup4\n        /* \"#utility.yul\":19050:19067   */\n      add\n        /* \"#utility.yul\":19043:19090   */\n      mstore\n        /* \"#utility.yul\":19107:19238   */\n      tag_631\n        /* \"#utility.yul\":19233:19237   */\n      dup2\n        /* \"#utility.yul\":19107:19238   */\n      tag_521\n      jump\t// in\n    tag_631:\n        /* \"#utility.yul\":19099:19238   */\n      swap1\n      pop\n        /* \"#utility.yul\":18826:19245   */\n      swap2\n      swap1\n      pop\n      jump\t// out\n        /* \"#utility.yul\":19251:19670   */\n    tag_140:\n        /* \"#utility.yul\":19417:19421   */\n      0x00\n        /* \"#utility.yul\":19455:19457   */\n      0x20\n        /* \"#utility.yul\":19444:19453   */\n      dup3\n        /* \"#utility.yul\":19440:19458   */\n      add\n        /* \"#utility.yul\":19432:19458   */\n      swap1\n      pop\n        /* \"#utility.yul\":19504:19513   */\n      dup2\n        /* \"#utility.yul\":19498:19502   */\n      dup2\n        /* \"#utility.yul\":19494:19514   */\n      sub\n        /* \"#utility.yul\":19490:19491   */\n      0x00\n        /* \"#utility.yul\":19479:19488   */\n      dup4\n        /* \"#utility.yul\":19475:19492   */\n      add\n        /* \"#utility.yul\":19468:19515   */\n      mstore\n        /* \"#utility.yul\":19532:19663   */\n      tag_633\n        /* \"#utility.yul\":19658:19662   */\n      dup2\n        /* \"#utility.yul\":19532:19663   */\n      tag_531\n      jump\t// in\n    tag_633:\n        /* \"#utility.yul\":19524:19663   */\n      swap1\n      pop\n        /* \"#utility.yul\":19251:19670   */\n      swap2\n      swap1\n      pop\n      jump\t// out\n        /* \"#utility.yul\":19676:20095   */\n    tag_100:\n        /* \"#utility.yul\":19842:19846   */\n      0x00\n        /* \"#utility.yul\":19880:19882   */\n      0x20\n        /* \"#utility.yul\":19869:19878   */\n      dup3\n        /* \"#utility.yul\":19865:19883   */\n      add\n        /* \"#utility.yul\":19857:19883   */\n      swap1\n      pop\n        /* \"#utility.yul\":19929:19938   */\n      dup2\n        /* \"#utility.yul\":19923:19927   */\n      dup2\n        /* \"#utility.yul\":19919:19939   */\n      sub\n        /* \"#utility.yul\":19915:19916   */\n      0x00\n        /* \"#utility.yul\":19904:19913   */\n      dup4\n        /* \"#utility.yul\":19900:19917   */\n      add\n        /* \"#utility.yul\":19893:19940   */\n      mstore\n        /* \"#utility.yul\":19957:20088   */\n      tag_635\n        /* \"#utility.yul\":20083:20087   */\n      dup2\n        /* \"#utility.yul\":19957:20088   */\n      tag_536\n      jump\t// in\n    tag_635:\n        /* \"#utility.yul\":19949:20088   */\n      swap1\n      pop\n        /* \"#utility.yul\":19676:20095   */\n      swap2\n      swap1\n      pop\n      jump\t// out\n        /* \"#utility.yul\":20101:20520   */\n    tag_218:\n        /* \"#utility.yul\":20267:20271   */\n      0x00\n        /* \"#utility.yul\":20305:20307   */\n      0x20\n        /* \"#utility.yul\":20294:20303   */\n      dup3\n        /* \"#utility.yul\":20290:20308   */\n      add\n        /* \"#utility.yul\":20282:20308   */\n      swap1\n      pop\n        /* \"#utility.yul\":20354:20363   */\n      dup2\n        /* \"#utility.yul\":20348:20352   */\n      dup2\n        /* \"#utility.yul\":20344:20364   */\n      sub\n        /* \"#utility.yul\":20340:20341   */\n      0x00\n        /* \"#utility.yul\":20329:20338   */\n      dup4\n        /* \"#utility.yul\":20325:20342   */\n      add\n        /* \"#utility.yul\":20318:20365   */\n      mstore\n        /* \"#utility.yul\":20382:20513   */\n      tag_637\n        /* \"#utility.yul\":20508:20512   */\n      dup2\n        /* \"#utility.yul\":20382:20513   */\n      tag_541\n      jump\t// in\n    tag_637:\n        /* \"#utility.yul\":20374:20513   */\n      swap1\n      pop\n        /* \"#utility.yul\":20101:20520   */\n      swap2\n      swap1\n      pop\n      jump\t// out\n        /* \"#utility.yul\":20526:20945   */\n    tag_129:\n        /* \"#utility.yul\":20692:20696   */\n      0x00\n        /* \"#utility.yul\":20730:20732   */\n      0x20\n        /* \"#utility.yul\":20719:20728   */\n      dup3\n        /* \"#utility.yul\":20715:20733   */\n      add\n        /* \"#utility.yul\":20707:20733   */\n      swap1\n      pop\n        /* \"#utility.yul\":20779:20788   */\n      dup2\n        /* \"#utility.yul\":20773:20777   */\n      dup2\n        /* \"#utility.yul\":20769:20789   */\n      sub\n        /* \"#utility.yul\":20765:20766   */\n      0x00\n        /* \"#utility.yul\":20754:20763   */\n      dup4\n        /* \"#utility.yul\":20750:20767   */\n      add\n        /* \"#utility.yul\":20743:20790   */\n      mstore\n        /* \"#utility.yul\":20807:20938   */\n      tag_639\n        /* \"#utility.yul\":20933:20937   */\n      dup2\n        /* \"#utility.yul\":20807:20938   */\n      tag_546\n      jump\t// in\n    tag_639:\n        /* \"#utility.yul\":20799:20938   */\n      swap1\n      pop\n        /* \"#utility.yul\":20526:20945   */\n      swap2\n      swap1\n      pop\n      jump\t// out\n        /* \"#utility.yul\":20951:21370   */\n    tag_96:\n        /* \"#utility.yul\":21117:21121   */\n      0x00\n        /* \"#utility.yul\":21155:21157   */\n      0x20\n        /* \"#utility.yul\":21144:21153   */\n      dup3\n        /* \"#utility.yul\":21140:21158   */\n      add\n        /* \"#utility.yul\":21132:21158   */\n      swap1\n      pop\n        /* \"#utility.yul\":21204:21213   */\n      dup2\n        /* \"#utility.yul\":21198:21202   */\n      dup2\n        /* \"#utility.yul\":21194:21214   */\n      sub\n        /* \"#utility.yul\":21190:21191   */\n      0x00\n        /* \"#utility.yul\":21179:21188   */\n      dup4\n        /* \"#utility.yul\":21175:21192   */\n      add\n        /* \"#utility.yul\":21168:21215   */\n      mstore\n        /* \"#utility.yul\":21232:21363   */\n      tag_641\n        /* \"#utility.yul\":21358:21362   */\n      dup2\n        /* \"#utility.yul\":21232:21363   */\n      tag_551\n      jump\t// in\n    tag_641:\n        /* \"#utility.yul\":21224:21363   */\n      swap1\n      pop\n        /* \"#utility.yul\":20951:21370   */\n      swap2\n      swap1\n      pop\n      jump\t// out\n        /* \"#utility.yul\":21376:21795   */\n    tag_124:\n        /* \"#utility.yul\":21542:21546   */\n      0x00\n        /* \"#utility.yul\":21580:21582   */\n      0x20\n        /* \"#utility.yul\":21569:21578   */\n      dup3\n        /* \"#utility.yul\":21565:21583   */\n      add\n        /* \"#utility.yul\":21557:21583   */\n      swap1\n      pop\n        /* \"#utility.yul\":21629:21638   */\n      dup2\n        /* \"#utility.yul\":21623:21627   */\n      dup2\n        /* \"#utility.yul\":21619:21639   */\n      sub\n        /* \"#utility.yul\":21615:21616   */\n      0x00\n        /* \"#utility.yul\":21604:21613   */\n      dup4\n        /* \"#utility.yul\":21600:21617   */\n      add\n        /* \"#utility.yul\":21593:21640   */\n      mstore\n        /* \"#utility.yul\":21657:21788   */\n      tag_643\n        /* \"#utility.yul\":21783:21787   */\n      dup2\n        /* \"#utility.yul\":21657:21788   */\n      tag_556\n      jump\t// in\n    tag_643:\n        /* \"#utility.yul\":21649:21788   */\n      swap1\n      pop\n        /* \"#utility.yul\":21376:21795   */\n      swap2\n      swap1\n      pop\n      jump\t// out\n        /* \"#utility.yul\":21801:22220   */\n    tag_114:\n        /* \"#utility.yul\":21967:21971   */\n      0x00\n        /* \"#utility.yul\":22005:22007   */\n      0x20\n        /* \"#utility.yul\":21994:22003   */\n      dup3\n        /* \"#utility.yul\":21990:22008   */\n      add\n        /* \"#utility.yul\":21982:22008   */\n      swap1\n      pop\n        /* \"#utility.yul\":22054:22063   */\n      dup2\n        /* \"#utility.yul\":22048:22052   */\n      dup2\n        /* \"#utility.yul\":22044:22064   */\n      sub\n        /* \"#utility.yul\":22040:22041   */\n      0x00\n        /* \"#utility.yul\":22029:22038   */\n      dup4\n        /* \"#utility.yul\":22025:22042   */\n      add\n        /* \"#utility.yul\":22018:22065   */\n      mstore\n        /* \"#utility.yul\":22082:22213   */\n      tag_645\n        /* \"#utility.yul\":22208:22212   */\n      dup2\n        /* \"#utility.yul\":22082:22213   */\n      tag_561\n      jump\t// in\n    tag_645:\n        /* \"#utility.yul\":22074:22213   */\n      swap1\n      pop\n        /* \"#utility.yul\":21801:22220   */\n      swap2\n      swap1\n      pop\n      jump\t// out\n        /* \"#utility.yul\":22226:22645   */\n    tag_132:\n        /* \"#utility.yul\":22392:22396   */\n      0x00\n        /* \"#utility.yul\":22430:22432   */\n      0x20\n        /* \"#utility.yul\":22419:22428   */\n      dup3\n        /* \"#utility.yul\":22415:22433   */\n      add\n        /* \"#utility.yul\":22407:22433   */\n      swap1\n      pop\n        /* \"#utility.yul\":22479:22488   */\n      dup2\n        /* \"#utility.yul\":22473:22477   */\n      dup2\n        /* \"#utility.yul\":22469:22489   */\n      sub\n        /* \"#utility.yul\":22465:22466   */\n      0x00\n        /* \"#utility.yul\":22454:22463   */\n      dup4\n        /* \"#utility.yul\":22450:22467   */\n      add\n        /* \"#utility.yul\":22443:22490   */\n      mstore\n        /* \"#utility.yul\":22507:22638   */\n      tag_647\n        /* \"#utility.yul\":22633:22637   */\n      dup2\n        /* \"#utility.yul\":22507:22638   */\n      tag_566\n      jump\t// in\n    tag_647:\n        /* \"#utility.yul\":22499:22638   */\n      swap1\n      pop\n        /* \"#utility.yul\":22226:22645   */\n      swap2\n      swap1\n      pop\n      jump\t// out\n        /* \"#utility.yul\":22651:23070   */\n    tag_327:\n        /* \"#utility.yul\":22817:22821   */\n      0x00\n        /* \"#utility.yul\":22855:22857   */\n      0x20\n        /* \"#utility.yul\":22844:22853   */\n      dup3\n        /* \"#utility.yul\":22840:22858   */\n      add\n        /* \"#utility.yul\":22832:22858   */\n      swap1\n      pop\n        /* \"#utility.yul\":22904:22913   */\n      dup2\n        /* \"#utility.yul\":22898:22902   */\n      dup2\n        /* \"#utility.yul\":22894:22914   */\n      sub\n        /* \"#utility.yul\":22890:22891   */\n      0x00\n        /* \"#utility.yul\":22879:22888   */\n      dup4\n        /* \"#utility.yul\":22875:22892   */\n      add\n        /* \"#utility.yul\":22868:22915   */\n      mstore\n        /* \"#utility.yul\":22932:23063   */\n      tag_649\n        /* \"#utility.yul\":23058:23062   */\n      dup2\n        /* \"#utility.yul\":22932:23063   */\n      tag_576\n      jump\t// in\n    tag_649:\n        /* \"#utility.yul\":22924:23063   */\n      swap1\n      pop\n        /* \"#utility.yul\":22651:23070   */\n      swap2\n      swap1\n      pop\n      jump\t// out\n        /* \"#utility.yul\":23076:23298   */\n    tag_24:\n        /* \"#utility.yul\":23169:23173   */\n      0x00\n        /* \"#utility.yul\":23207:23209   */\n      0x20\n        /* \"#utility.yul\":23196:23205   */\n      dup3\n        /* \"#utility.yul\":23192:23210   */\n      add\n        /* \"#utility.yul\":23184:23210   */\n      swap1\n      pop\n        /* \"#utility.yul\":23220:23291   */\n      tag_651\n        /* \"#utility.yul\":23288:23289   */\n      0x00\n        /* \"#utility.yul\":23277:23286   */\n      dup4\n        /* \"#utility.yul\":23273:23290   */\n      add\n        /* \"#utility.yul\":23264:23270   */\n      dup5\n        /* \"#utility.yul\":23220:23291   */\n      tag_584\n      jump\t// in\n    tag_651:\n        /* \"#utility.yul\":23076:23298   */\n      swap3\n      swap2\n      pop\n      pop\n      jump\t// out\n        /* \"#utility.yul\":23304:23636   */\n    tag_336:\n        /* \"#utility.yul\":23425:23429   */\n      0x00\n        /* \"#utility.yul\":23463:23465   */\n      0x40\n        /* \"#utility.yul\":23452:23461   */\n      dup3\n        /* \"#utility.yul\":23448:23466   */\n      add\n        /* \"#utility.yul\":23440:23466   */\n      swap1\n      pop\n        /* \"#utility.yul\":23476:23547   */\n      tag_653\n        /* \"#utility.yul\":23544:23545   */\n      0x00\n        /* \"#utility.yul\":23533:23542   */\n      dup4\n        /* \"#utility.yul\":23529:23546   */\n      add\n        /* \"#utility.yul\":23520:23526   */\n      dup6\n        /* \"#utility.yul\":23476:23547   */\n      tag_584\n      jump\t// in\n    tag_653:\n        /* \"#utility.yul\":23557:23629   */\n      tag_654\n        /* \"#utility.yul\":23625:23627   */\n      0x20\n        /* \"#utility.yul\":23614:23623   */\n      dup4\n        /* \"#utility.yul\":23610:23628   */\n      add\n        /* \"#utility.yul\":23601:23607   */\n      dup5\n        /* \"#utility.yul\":23557:23629   */\n      tag_584\n      jump\t// in\n    tag_654:\n        /* \"#utility.yul\":23304:23636   */\n      swap4\n      swap3\n      pop\n      pop\n      pop\n      jump\t// out\n        /* \"#utility.yul\":23642:24084   */\n    tag_55:\n        /* \"#utility.yul\":23791:23795   */\n      0x00\n        /* \"#utility.yul\":23829:23831   */\n      0x60\n        /* \"#utility.yul\":23818:23827   */\n      dup3\n        /* \"#utility.yul\":23814:23832   */\n      add\n        /* \"#utility.yul\":23806:23832   */\n      swap1\n      pop\n        /* \"#utility.yul\":23842:23913   */\n      tag_656\n        /* \"#utility.yul\":23910:23911   */\n      0x00\n        /* \"#utility.yul\":23899:23908   */\n      dup4\n        /* \"#utility.yul\":23895:23912   */\n      add\n        /* \"#utility.yul\":23886:23892   */\n      dup7\n        /* \"#utility.yul\":23842:23913   */\n      tag_584\n      jump\t// in\n    tag_656:\n        /* \"#utility.yul\":23923:23995   */\n      tag_657\n        /* \"#utility.yul\":23991:23993   */\n      0x20\n        /* \"#utility.yul\":23980:23989   */\n      dup4\n        /* \"#utility.yul\":23976:23994   */\n      add\n        /* \"#utility.yul\":23967:23973   */\n      dup6\n        /* \"#utility.yul\":23923:23995   */\n      tag_584\n      jump\t// in\n    tag_657:\n        /* \"#utility.yul\":24005:24077   */\n      tag_658\n        /* \"#utility.yul\":24073:24075   */\n      0x40\n        /* \"#utility.yul\":24062:24071   */\n      dup4\n        /* \"#utility.yul\":24058:24076   */\n      add\n        /* \"#utility.yul\":24049:24055   */\n      dup5\n        /* \"#utility.yul\":24005:24077   */\n      tag_584\n      jump\t// in\n    tag_658:\n        /* \"#utility.yul\":23642:24084   */\n      swap5\n      swap4\n      pop\n      pop\n      pop\n      pop\n      jump\t// out\n        /* \"#utility.yul\":24090:24165   */\n    tag_659:\n        /* \"#utility.yul\":24123:24129   */\n      0x00\n        /* \"#utility.yul\":24156:24158   */\n      0x40\n        /* \"#utility.yul\":24150:24159   */\n      mload\n        /* \"#utility.yul\":24140:24159   */\n      swap1\n      pop\n        /* \"#utility.yul\":24090:24165   */\n      swap1\n      jump\t// out\n        /* \"#utility.yul\":24171:24303   */\n    tag_457:\n        /* \"#utility.yul\":24238:24242   */\n      0x00\n        /* \"#utility.yul\":24261:24264   */\n      dup2\n        /* \"#utility.yul\":24253:24264   */\n      swap1\n      pop\n        /* \"#utility.yul\":24291:24295   */\n      0x20\n        /* \"#utility.yul\":24286:24289   */\n      dup3\n        /* \"#utility.yul\":24282:24296   */\n      add\n        /* \"#utility.yul\":24274:24296   */\n      swap1\n      pop\n        /* \"#utility.yul\":24171:24303   */\n      swap2\n      swap1\n      pop\n      jump\t// out\n        /* \"#utility.yul\":24309:24441   */\n    tag_471:\n        /* \"#utility.yul\":24376:24380   */\n      0x00\n        /* \"#utility.yul\":24399:24402   */\n      dup2\n        /* \"#utility.yul\":24391:24402   */\n      swap1\n      pop\n        /* \"#utility.yul\":24429:24433   */\n      0x20\n        /* \"#utility.yul\":24424:24427   */\n      dup3\n        /* \"#utility.yul\":24420:24434   */\n      add\n        /* \"#utility.yul\":24412:24434   */\n      swap1\n      pop\n        /* \"#utility.yul\":24309:24441   */\n      swap2\n      swap1\n      pop\n      jump\t// out\n        /* \"#utility.yul\":24447:24563   */\n    tag_663:\n        /* \"#utility.yul\":24498:24502   */\n      0x00\n        /* \"#utility.yul\":24521:24524   */\n      dup2\n        /* \"#utility.yul\":24513:24524   */\n      swap1\n      pop\n        /* \"#utility.yul\":24551:24555   */\n      0x20\n        /* \"#utility.yul\":24546:24549   */\n      dup3\n        /* \"#utility.yul\":24542:24556   */\n      add\n        /* \"#utility.yul\":24534:24556   */\n      swap1\n      pop\n        /* \"#utility.yul\":24447:24563   */\n      swap2\n      swap1\n      pop\n      jump\t// out\n        /* \"#utility.yul\":24569:24683   */\n    tag_453:\n        /* \"#utility.yul\":24636:24642   */\n      0x00\n        /* \"#utility.yul\":24670:24675   */\n      dup2\n        /* \"#utility.yul\":24664:24676   */\n      mload\n        /* \"#utility.yul\":24654:24676   */\n      swap1\n      pop\n        /* \"#utility.yul\":24569:24683   */\n      swap2\n      swap1\n      pop\n      jump\t// out\n        /* \"#utility.yul\":24689:24803   */\n    tag_467:\n        /* \"#utility.yul\":24756:24762   */\n      0x00\n        /* \"#utility.yul\":24790:24795   */\n      dup2\n        /* \"#utility.yul\":24784:24796   */\n      mload\n        /* \"#utility.yul\":24774:24796   */\n      swap1\n      pop\n        /* \"#utility.yul\":24689:24803   */\n      swap2\n      swap1\n      pop\n      jump\t// out\n        /* \"#utility.yul\":24809:24907   */\n    tag_667:\n        /* \"#utility.yul\":24860:24866   */\n      0x00\n        /* \"#utility.yul\":24894:24899   */\n      dup2\n        /* \"#utility.yul\":24888:24900   */\n      mload\n        /* \"#utility.yul\":24878:24900   */\n      swap1\n      pop\n        /* \"#utility.yul\":24809:24907   */\n      swap2\n      swap1\n      pop\n      jump\t// out\n        /* \"#utility.yul\":24913:25012   */\n    tag_488:\n        /* \"#utility.yul\":24965:24971   */\n      0x00\n        /* \"#utility.yul\":24999:25004   */\n      dup2\n        /* \"#utility.yul\":24993:25005   */\n      mload\n        /* \"#utility.yul\":24983:25005   */\n      swap1\n      pop\n        /* \"#utility.yul\":24913:25012   */\n      swap2\n      swap1\n      pop\n      jump\t// out\n        /* \"#utility.yul\":25018:25131   */\n    tag_463:\n        /* \"#utility.yul\":25088:25092   */\n      0x00\n        /* \"#utility.yul\":25120:25124   */\n      0x20\n        /* \"#utility.yul\":25115:25118   */\n      dup3\n        /* \"#utility.yul\":25111:25125   */\n      add\n        /* \"#utility.yul\":25103:25125   */\n      swap1\n      pop\n        /* \"#utility.yul\":25018:25131   */\n      swap2\n      swap1\n      pop\n      jump\t// out\n        /* \"#utility.yul\":25137:25250   */\n    tag_477:\n        /* \"#utility.yul\":25207:25211   */\n      0x00\n        /* \"#utility.yul\":25239:25243   */\n      0x20\n        /* \"#utility.yul\":25234:25237   */\n      dup3\n        /* \"#utility.yul\":25230:25244   */\n      add\n        /* \"#utility.yul\":25222:25244   */\n      swap1\n      pop\n        /* \"#utility.yul\":25137:25250   */\n      swap2\n      swap1\n      pop\n      jump\t// out\n        /* \"#utility.yul\":25256:25440   */\n    tag_455:\n        /* \"#utility.yul\":25355:25366   */\n      0x00\n        /* \"#utility.yul\":25389:25395   */\n      dup3\n        /* \"#utility.yul\":25384:25387   */\n      dup3\n        /* \"#utility.yul\":25377:25396   */\n      mstore\n        /* \"#utility.yul\":25429:25433   */\n      0x20\n        /* \"#utility.yul\":25424:25427   */\n      dup3\n        /* \"#utility.yul\":25420:25434   */\n      add\n        /* \"#utility.yul\":25405:25434   */\n      swap1\n      pop\n        /* \"#utility.yul\":25256:25440   */\n      swap3\n      swap2\n      pop\n      pop\n      jump\t// out\n        /* \"#utility.yul\":25446:25630   */\n    tag_469:\n        /* \"#utility.yul\":25545:25556   */\n      0x00\n        /* \"#utility.yul\":25579:25585   */\n      dup3\n        /* \"#utility.yul\":25574:25577   */\n      dup3\n        /* \"#utility.yul\":25567:25586   */\n      mstore\n        /* \"#utility.yul\":25619:25623   */\n      0x20\n        /* \"#utility.yul\":25614:25617   */\n      dup3\n        /* \"#utility.yul\":25610:25624   */\n      add\n        /* \"#utility.yul\":25595:25624   */\n      swap1\n      pop\n        /* \"#utility.yul\":25446:25630   */\n      swap3\n      swap2\n      pop\n      pop\n      jump\t// out\n        /* \"#utility.yul\":25636:25805   */\n    tag_490:\n        /* \"#utility.yul\":25720:25731   */\n      0x00\n        /* \"#utility.yul\":25754:25760   */\n      dup3\n        /* \"#utility.yul\":25749:25752   */\n      dup3\n        /* \"#utility.yul\":25742:25761   */\n      mstore\n        /* \"#utility.yul\":25794:25798   */\n      0x20\n        /* \"#utility.yul\":25789:25792   */\n      dup3\n        /* \"#utility.yul\":25785:25799   */\n      add\n        /* \"#utility.yul\":25770:25799   */\n      swap1\n      pop\n        /* \"#utility.yul\":25636:25805   */\n      swap3\n      swap2\n      pop\n      pop\n      jump\t// out\n        /* \"#utility.yul\":25811:25959   */\n    tag_499:\n        /* \"#utility.yul\":25913:25924   */\n      0x00\n        /* \"#utility.yul\":25950:25953   */\n      dup2\n        /* \"#utility.yul\":25935:25953   */\n      swap1\n      pop\n        /* \"#utility.yul\":25811:25959   */\n      swap3\n      swap2\n      pop\n      pop\n      jump\t// out\n        /* \"#utility.yul\":25965:26270   */\n    tag_269:\n        /* \"#utility.yul\":26005:26008   */\n      0x00\n        /* \"#utility.yul\":26024:26044   */\n      tag_677\n        /* \"#utility.yul\":26042:26043   */\n      dup3\n        /* \"#utility.yul\":26024:26044   */\n      tag_583\n      jump\t// in\n    tag_677:\n        /* \"#utility.yul\":26019:26044   */\n      swap2\n      pop\n        /* \"#utility.yul\":26058:26078   */\n      tag_678\n        /* \"#utility.yul\":26076:26077   */\n      dup4\n        /* \"#utility.yul\":26058:26078   */\n      tag_583\n      jump\t// in\n    tag_678:\n        /* \"#utility.yul\":26053:26078   */\n      swap3\n      pop\n        /* \"#utility.yul\":26212:26213   */\n      dup3\n        /* \"#utility.yul\":26144:26210   */\n      0xffffffffffffffffffffffffffffffffffffffffffffffffffffffffffffffff\n        /* \"#utility.yul\":26140:26214   */\n      sub\n        /* \"#utility.yul\":26137:26138   */\n      dup3\n        /* \"#utility.yul\":26134:26215   */\n      gt\n        /* \"#utility.yul\":26131:26238   */\n      iszero\n      tag_679\n      jumpi\n        /* \"#utility.yul\":26218:26236   */\n      tag_680\n      tag_681\n      jump\t// in\n    tag_680:\n        /* \"#utility.yul\":26131:26238   */\n    tag_679:\n        /* \"#utility.yul\":26262:26263   */\n      dup3\n        /* \"#utility.yul\":26259:26260   */\n      dup3\n        /* \"#utility.yul\":26255:26264   */\n      add\n        /* \"#utility.yul\":26248:26264   */\n      swap1\n      pop\n        /* \"#utility.yul\":25965:26270   */\n      swap3\n      swap2\n      pop\n      pop\n      jump\t// out\n        /* \"#utility.yul\":26276:26461   */\n    tag_257:\n        /* \"#utility.yul\":26316:26317   */\n      0x00\n        /* \"#utility.yul\":26333:26353   */\n      tag_683\n        /* \"#utility.yul\":26351:26352   */\n      dup3\n        /* \"#utility.yul\":26333:26353   */\n      tag_583\n      jump\t// in\n    tag_683:\n        /* \"#utility.yul\":26328:26353   */\n      swap2\n      pop\n        /* \"#utility.yul\":26367:26387   */\n      tag_684\n        /* \"#utility.yul\":26385:26386   */\n      dup4\n        /* \"#utility.yul\":26367:26387   */\n      tag_583\n      jump\t// in\n    tag_684:\n        /* \"#utility.yul\":26362:26387   */\n      swap3\n      pop\n        /* \"#utility.yul\":26406:26407   */\n      dup3\n        /* \"#utility.yul\":26396:26431   */\n      tag_685\n      jumpi\n        /* \"#utility.yul\":26411:26429   */\n      tag_686\n      tag_687\n      jump\t// in\n    tag_686:\n        /* \"#utility.yul\":26396:26431   */\n    tag_685:\n        /* \"#utility.yul\":26453:26454   */\n      dup3\n        /* \"#utility.yul\":26450:26451   */\n      dup3\n        /* \"#utility.yul\":26446:26455   */\n      div\n        /* \"#utility.yul\":26441:26455   */\n      swap1\n      pop\n        /* \"#utility.yul\":26276:26461   */\n      swap3\n      swap2\n      pop\n      pop\n      jump\t// out\n        /* \"#utility.yul\":26467:26815   */\n    tag_137:\n        /* \"#utility.yul\":26507:26514   */\n      0x00\n        /* \"#utility.yul\":26530:26550   */\n      tag_689\n        /* \"#utility.yul\":26548:26549   */\n      dup3\n        /* \"#utility.yul\":26530:26550   */\n      tag_583\n      jump\t// in\n    tag_689:\n        /* \"#utility.yul\":26525:26550   */\n      swap2\n      pop\n        /* \"#utility.yul\":26564:26584   */\n      tag_690\n        /* \"#utility.yul\":26582:26583   */\n      dup4\n        /* \"#utility.yul\":26564:26584   */\n      tag_583\n      jump\t// in\n    tag_690:\n        /* \"#utility.yul\":26559:26584   */\n      swap3\n      pop\n        /* \"#utility.yul\":26752:26753   */\n      dup2\n        /* \"#utility.yul\":26684:26750   */\n      0xffffffffffffffffffffffffffffffffffffffffffffffffffffffffffffffff\n        /* \"#utility.yul\":26680:26754   */\n      div\n        /* \"#utility.yul\":26677:26678   */\n      dup4\n        /* \"#utility.yul\":26674:26755   */\n      gt\n        /* \"#utility.yul\":26669:26670   */\n      dup3\n        /* \"#utility.yul\":26662:26671   */\n      iszero\n        /* \"#utility.yul\":26655:26672   */\n      iszero\n        /* \"#utility.yul\":26651:26756   */\n      and\n        /* \"#utility.yul\":26648:26779   */\n      iszero\n      tag_691\n      jumpi\n        /* \"#utility.yul\":26759:26777   */\n      tag_692\n      tag_681\n      jump\t// in\n    tag_692:\n        /* \"#utility.yul\":26648:26779   */\n    tag_691:\n        /* \"#utility.yul\":26807:26808   */\n      dup3\n        /* \"#utility.yul\":26804:26805   */\n      dup3\n        /* \"#utility.yul\":26800:26809   */\n      mul\n        /* \"#utility.yul\":26789:26809   */\n      swap1\n      pop\n        /* \"#utility.yul\":26467:26815   */\n      swap3\n      swap2\n      pop\n      pop\n      jump\t// out\n        /* \"#utility.yul\":26821:27012   */\n    tag_265:\n        /* \"#utility.yul\":26861:26865   */\n      0x00\n        /* \"#utility.yul\":26881:26901   */\n      tag_694\n        /* \"#utility.yul\":26899:26900   */\n      dup3\n        /* \"#utility.yul\":26881:26901   */\n      tag_583\n      jump\t// in\n    tag_694:\n        /* \"#utility.yul\":26876:26901   */\n      swap2\n      pop\n        /* \"#utility.yul\":26915:26935   */\n      tag_695\n        /* \"#utility.yul\":26933:26934   */\n      dup4\n        /* \"#utility.yul\":26915:26935   */\n      tag_583\n      jump\t// in\n    tag_695:\n        /* \"#utility.yul\":26910:26935   */\n      swap3\n      pop\n        /* \"#utility.yul\":26954:26955   */\n      dup3\n        /* \"#utility.yul\":26951:26952   */\n      dup3\n        /* \"#utility.yul\":26948:26956   */\n      lt\n        /* \"#utility.yul\":26945:26979   */\n      iszero\n      tag_696\n      jumpi\n        /* \"#utility.yul\":26959:26977   */\n      tag_697\n      tag_681\n      jump\t// in\n    tag_697:\n        /* \"#utility.yul\":26945:26979   */\n    tag_696:\n        /* \"#utility.yul\":27004:27005   */\n      dup3\n        /* \"#utility.yul\":27001:27002   */\n      dup3\n        /* \"#utility.yul\":26997:27006   */\n      sub\n        /* \"#utility.yul\":26989:27006   */\n      swap1\n      pop\n        /* \"#utility.yul\":26821:27012   */\n      swap3\n      swap2\n      pop\n      pop\n      jump\t// out\n        /* \"#utility.yul\":27018:27114   */\n    tag_444:\n        /* \"#utility.yul\":27055:27062   */\n      0x00\n        /* \"#utility.yul\":27084:27108   */\n      tag_699\n        /* \"#utility.yul\":27102:27107   */\n      dup3\n        /* \"#utility.yul\":27084:27108   */\n      tag_700\n      jump\t// in\n    tag_699:\n        /* \"#utility.yul\":27073:27108   */\n      swap1\n      pop\n        /* \"#utility.yul\":27018:27114   */\n      swap2\n      swap1\n      pop\n      jump\t// out\n        /* \"#utility.yul\":27120:27224   */\n    tag_435:\n        /* \"#utility.yul\":27165:27172   */\n      0x00\n        /* \"#utility.yul\":27194:27218   */\n      tag_702\n        /* \"#utility.yul\":27212:27217   */\n      dup3\n        /* \"#utility.yul\":27194:27218   */\n      tag_700\n      jump\t// in\n    tag_702:\n        /* \"#utility.yul\":27183:27218   */\n      swap1\n      pop\n        /* \"#utility.yul\":27120:27224   */\n      swap2\n      swap1\n      pop\n      jump\t// out\n        /* \"#utility.yul\":27230:27320   */\n    tag_481:\n        /* \"#utility.yul\":27264:27271   */\n      0x00\n        /* \"#utility.yul\":27307:27312   */\n      dup2\n        /* \"#utility.yul\":27300:27313   */\n      iszero\n        /* \"#utility.yul\":27293:27314   */\n      iszero\n        /* \"#utility.yul\":27282:27314   */\n      swap1\n      pop\n        /* \"#utility.yul\":27230:27320   */\n      swap2\n      swap1\n      pop\n      jump\t// out\n        /* \"#utility.yul\":27326:27403   */\n    tag_484:\n        /* \"#utility.yul\":27363:27370   */\n      0x00\n        /* \"#utility.yul\":27392:27397   */\n      dup2\n        /* \"#utility.yul\":27381:27397   */\n      swap1\n      pop\n        /* \"#utility.yul\":27326:27403   */\n      swap2\n      swap1\n      pop\n      jump\t// out\n        /* \"#utility.yul\":27409:27558   */\n    tag_705:\n        /* \"#utility.yul\":27445:27452   */\n      0x00\n        /* \"#utility.yul\":27485:27551   */\n      0xffffffff00000000000000000000000000000000000000000000000000000000\n        /* \"#utility.yul\":27478:27483   */\n      dup3\n        /* \"#utility.yul\":27474:27552   */\n      and\n        /* \"#utility.yul\":27463:27552   */\n      swap1\n      pop\n        /* \"#utility.yul\":27409:27558   */\n      swap2\n      swap1\n      pop\n      jump\t// out\n        /* \"#utility.yul\":27564:27690   */\n    tag_700:\n        /* \"#utility.yul\":27601:27608   */\n      0x00\n        /* \"#utility.yul\":27641:27683   */\n      0xffffffffffffffffffffffffffffffffffffffff\n        /* \"#utility.yul\":27634:27639   */\n      dup3\n        /* \"#utility.yul\":27630:27684   */\n      and\n        /* \"#utility.yul\":27619:27684   */\n      swap1\n      pop\n        /* \"#utility.yul\":27564:27690   */\n      swap2\n      swap1\n      pop\n      jump\t// out\n        /* \"#utility.yul\":27696:27773   */\n    tag_583:\n        /* \"#utility.yul\":27733:27740   */\n      0x00\n        /* \"#utility.yul\":27762:27767   */\n      dup2\n        /* \"#utility.yul\":27751:27767   */\n      swap1\n      pop\n        /* \"#utility.yul\":27696:27773   */\n      swap2\n      swap1\n      pop\n      jump\t// out\n        /* \"#utility.yul\":27779:28373   */\n    tag_185:\n        /* \"#utility.yul\":27863:27868   */\n      0x00\n        /* \"#utility.yul\":27894:27932   */\n      tag_710\n        /* \"#utility.yul\":27926:27931   */\n      dup3\n        /* \"#utility.yul\":27894:27932   */\n      tag_667\n      jump\t// in\n    tag_710:\n        /* \"#utility.yul\":27957:27962   */\n      dup3\n        /* \"#utility.yul\":27984:28024   */\n      tag_711\n        /* \"#utility.yul\":28018:28023   */\n      dup5\n        /* \"#utility.yul\":27984:28024   */\n      tag_663\n      jump\t// in\n    tag_711:\n        /* \"#utility.yul\":27972:28024   */\n      swap1\n      pop\n        /* \"#utility.yul\":28043:28078   */\n      tag_712\n        /* \"#utility.yul\":28069:28077   */\n      dup2\n        /* \"#utility.yul\":28043:28078   */\n      tag_713\n      jump\t// in\n    tag_712:\n        /* \"#utility.yul\":28034:28078   */\n      swap3\n      pop\n        /* \"#utility.yul\":28102:28104   */\n      0x20\n        /* \"#utility.yul\":28094:28100   */\n      dup3\n        /* \"#utility.yul\":28091:28105   */\n      lt\n        /* \"#utility.yul\":28088:28366   */\n      iszero\n      tag_714\n      jumpi\n        /* \"#utility.yul\":28173:28342   */\n      tag_715\n        /* \"#utility.yul\":28258:28324   */\n      0xffffffffffffffffffffffffffffffffffffffffffffffffffffffffffffffff\n        /* \"#utility.yul\":28228:28234   */\n      dup4\n        /* \"#utility.yul\":28224:28226   */\n      0x20\n        /* \"#utility.yul\":28220:28235   */\n      sub\n        /* \"#utility.yul\":28217:28218   */\n      0x08\n        /* \"#utility.yul\":28213:28236   */\n      mul\n        /* \"#utility.yul\":28173:28342   */\n      tag_716\n      jump\t// in\n    tag_715:\n        /* \"#utility.yul\":28150:28155   */\n      dup4\n        /* \"#utility.yul\":28129:28356   */\n      and\n        /* \"#utility.yul\":28120:28356   */\n      swap3\n      pop\n        /* \"#utility.yul\":28088:28366   */\n    tag_714:\n        /* \"#utility.yul\":27869:28373   */\n      pop\n      pop\n        /* \"#utility.yul\":27779:28373   */\n      swap2\n      swap1\n      pop\n      jump\t// out\n        /* \"#utility.yul\":28379:28686   */\n    tag_492:\n        /* \"#utility.yul\":28447:28448   */\n      0x00\n        /* \"#utility.yul\":28457:28570   */\n    tag_718:\n        /* \"#utility.yul\":28471:28477   */\n      dup4\n        /* \"#utility.yul\":28468:28469   */\n      dup2\n        /* \"#utility.yul\":28465:28478   */\n      lt\n        /* \"#utility.yul\":28457:28570   */\n      iszero\n      tag_720\n      jumpi\n        /* \"#utility.yul\":28556:28557   */\n      dup1\n        /* \"#utility.yul\":28551:28554   */\n      dup3\n        /* \"#utility.yul\":28547:28558   */\n      add\n        /* \"#utility.yul\":28541:28559   */\n      mload\n        /* \"#utility.yul\":28537:28538   */\n      dup2\n        /* \"#utility.yul\":28532:28535   */\n      dup5\n        /* \"#utility.yul\":28528:28539   */\n      add\n        /* \"#utility.yul\":28521:28560   */\n      mstore\n        /* \"#utility.yul\":28493:28495   */\n      0x20\n        /* \"#utility.yul\":28490:28491   */\n      dup2\n        /* \"#utility.yul\":28486:28496   */\n      add\n        /* \"#utility.yul\":28481:28496   */\n      swap1\n      pop\n        /* \"#utility.yul\":28457:28570   */\n      jump(tag_718)\n    tag_720:\n        /* \"#utility.yul\":28588:28594   */\n      dup4\n        /* \"#utility.yul\":28585:28586   */\n      dup2\n        /* \"#utility.yul\":28582:28595   */\n      gt\n        /* \"#utility.yul\":28579:28680   */\n      iszero\n      tag_721\n      jumpi\n        /* \"#utility.yul\":28668:28669   */\n      0x00\n        /* \"#utility.yul\":28659:28665   */\n      dup5\n        /* \"#utility.yul\":28654:28657   */\n      dup5\n        /* \"#utility.yul\":28650:28666   */\n      add\n        /* \"#utility.yul\":28643:28670   */\n      mstore\n        /* \"#utility.yul\":28579:28680   */\n    tag_721:\n        /* \"#utility.yul\":28428:28686   */\n      pop\n        /* \"#utility.yul\":28379:28686   */\n      pop\n      pop\n      pop\n      jump\t// out\n        /* \"#utility.yul\":28692:29012   */\n    tag_238:\n        /* \"#utility.yul\":28736:28742   */\n      0x00\n        /* \"#utility.yul\":28773:28774   */\n      0x02\n        /* \"#utility.yul\":28767:28771   */\n      dup3\n        /* \"#utility.yul\":28763:28775   */\n      div\n        /* \"#utility.yul\":28753:28775   */\n      swap1\n      pop\n        /* \"#utility.yul\":28820:28821   */\n      0x01\n        /* \"#utility.yul\":28814:28818   */\n      dup3\n        /* \"#utility.yul\":28810:28822   */\n      and\n        /* \"#utility.yul\":28841:28859   */\n      dup1\n        /* \"#utility.yul\":28831:28912   */\n      tag_723\n      jumpi\n        /* \"#utility.yul\":28897:28901   */\n      0x7f\n        /* \"#utility.yul\":28889:28895   */\n      dup3\n        /* \"#utility.yul\":28885:28902   */\n      and\n        /* \"#utility.yul\":28875:28902   */\n      swap2\n      pop\n        /* \"#utility.yul\":28831:28912   */\n    tag_723:\n        /* \"#utility.yul\":28959:28961   */\n      0x20\n        /* \"#utility.yul\":28951:28957   */\n      dup3\n        /* \"#utility.yul\":28948:28962   */\n      lt\n        /* \"#utility.yul\":28928:28946   */\n      dup2\n        /* \"#utility.yul\":28925:28963   */\n      eq\n        /* \"#utility.yul\":28922:29006   */\n      iszero\n      tag_724\n      jumpi\n        /* \"#utility.yul\":28978:28996   */\n      tag_725\n      tag_726\n      jump\t// in\n    tag_725:\n        /* \"#utility.yul\":28922:29006   */\n    tag_724:\n        /* \"#utility.yul\":28743:29012   */\n      pop\n        /* \"#utility.yul\":28692:29012   */\n      swap2\n      swap1\n      pop\n      jump\t// out\n        /* \"#utility.yul\":29018:29299   */\n    tag_727:\n        /* \"#utility.yul\":29101:29128   */\n      tag_729\n        /* \"#utility.yul\":29123:29127   */\n      dup3\n        /* \"#utility.yul\":29101:29128   */\n      tag_494\n      jump\t// in\n    tag_729:\n        /* \"#utility.yul\":29093:29099   */\n      dup2\n        /* \"#utility.yul\":29089:29129   */\n      add\n        /* \"#utility.yul\":29231:29237   */\n      dup2\n        /* \"#utility.yul\":29219:29229   */\n      dup2\n        /* \"#utility.yul\":29216:29238   */\n      lt\n        /* \"#utility.yul\":29195:29213   */\n      0xffffffffffffffff\n        /* \"#utility.yul\":29183:29193   */\n      dup3\n        /* \"#utility.yul\":29180:29214   */\n      gt\n        /* \"#utility.yul\":29177:29239   */\n      or\n        /* \"#utility.yul\":29174:29262   */\n      iszero\n      tag_730\n      jumpi\n        /* \"#utility.yul\":29242:29260   */\n      tag_731\n      tag_260\n      jump\t// in\n    tag_731:\n        /* \"#utility.yul\":29174:29262   */\n    tag_730:\n        /* \"#utility.yul\":29282:29292   */\n      dup1\n        /* \"#utility.yul\":29278:29280   */\n      0x40\n        /* \"#utility.yul\":29271:29293   */\n      mstore\n        /* \"#utility.yul\":29061:29299   */\n      pop\n        /* \"#utility.yul\":29018:29299   */\n      pop\n      pop\n      jump\t// out\n        /* \"#utility.yul\":29305:29538   */\n    tag_154:\n        /* \"#utility.yul\":29344:29347   */\n      0x00\n        /* \"#utility.yul\":29367:29391   */\n      tag_733\n        /* \"#utility.yul\":29385:29390   */\n      dup3\n        /* \"#utility.yul\":29367:29391   */\n      tag_583\n      jump\t// in\n    tag_733:\n        /* \"#utility.yul\":29358:29391   */\n      swap2\n      pop\n        /* \"#utility.yul\":29413:29479   */\n      0xffffffffffffffffffffffffffffffffffffffffffffffffffffffffffffffff\n        /* \"#utility.yul\":29406:29411   */\n      dup3\n        /* \"#utility.yul\":29403:29480   */\n      eq\n        /* \"#utility.yul\":29400:29503   */\n      iszero\n      tag_734\n      jumpi\n        /* \"#utility.yul\":29483:29501   */\n      tag_735\n      tag_681\n      jump\t// in\n    tag_735:\n        /* \"#utility.yul\":29400:29503   */\n    tag_734:\n        /* \"#utility.yul\":29530:29531   */\n      0x01\n        /* \"#utility.yul\":29523:29528   */\n      dup3\n        /* \"#utility.yul\":29519:29532   */\n      add\n        /* \"#utility.yul\":29512:29532   */\n      swap1\n      pop\n        /* \"#utility.yul\":29305:29538   */\n      swap2\n      swap1\n      pop\n      jump\t// out\n        /* \"#utility.yul\":29544:29644   */\n    tag_449:\n        /* \"#utility.yul\":29583:29590   */\n      0x00\n        /* \"#utility.yul\":29612:29638   */\n      tag_737\n        /* \"#utility.yul\":29632:29637   */\n      dup3\n        /* \"#utility.yul\":29612:29638   */\n      tag_738\n      jump\t// in\n    tag_737:\n        /* \"#utility.yul\":29601:29638   */\n      swap1\n      pop\n        /* \"#utility.yul\":29544:29644   */\n      swap2\n      swap1\n      pop\n      jump\t// out\n        /* \"#utility.yul\":29650:29758   */\n    tag_440:\n        /* \"#utility.yul\":29697:29704   */\n      0x00\n        /* \"#utility.yul\":29726:29752   */\n      tag_740\n        /* \"#utility.yul\":29746:29751   */\n      dup3\n        /* \"#utility.yul\":29726:29752   */\n      tag_738\n      jump\t// in\n    tag_740:\n        /* \"#utility.yul\":29715:29752   */\n      swap1\n      pop\n        /* \"#utility.yul\":29650:29758   */\n      swap2\n      swap1\n      pop\n      jump\t// out\n        /* \"#utility.yul\":29764:29858   */\n    tag_738:\n        /* \"#utility.yul\":29803:29810   */\n      0x00\n        /* \"#utility.yul\":29832:29852   */\n      tag_742\n        /* \"#utility.yul\":29846:29851   */\n      dup3\n        /* \"#utility.yul\":29832:29852   */\n      tag_743\n      jump\t// in\n    tag_742:\n        /* \"#utility.yul\":29821:29852   */\n      swap1\n      pop\n        /* \"#utility.yul\":29764:29858   */\n      swap2\n      swap1\n      pop\n      jump\t// out\n        /* \"#utility.yul\":29864:29943   */\n    tag_591:\n        /* \"#utility.yul\":29903:29910   */\n      0x00\n        /* \"#utility.yul\":29932:29937   */\n      dup2\n        /* \"#utility.yul\":29921:29937   */\n      swap1\n      pop\n        /* \"#utility.yul\":29864:29943   */\n      swap2\n      swap1\n      pop\n      jump\t// out\n        /* \"#utility.yul\":29949:30125   */\n    tag_267:\n        /* \"#utility.yul\":29981:29982   */\n      0x00\n        /* \"#utility.yul\":29998:30018   */\n      tag_746\n        /* \"#utility.yul\":30016:30017   */\n      dup3\n        /* \"#utility.yul\":29998:30018   */\n      tag_583\n      jump\t// in\n    tag_746:\n        /* \"#utility.yul\":29993:30018   */\n      swap2\n      pop\n        /* \"#utility.yul\":30032:30052   */\n      tag_747\n        /* \"#utility.yul\":30050:30051   */\n      dup4\n        /* \"#utility.yul\":30032:30052   */\n      tag_583\n      jump\t// in\n    tag_747:\n        /* \"#utility.yul\":30027:30052   */\n      swap3\n      pop\n        /* \"#utility.yul\":30071:30072   */\n      dup3\n        /* \"#utility.yul\":30061:30096   */\n      tag_748\n      jumpi\n        /* \"#utility.yul\":30076:30094   */\n      tag_749\n      tag_687\n      jump\t// in\n    tag_749:\n        /* \"#utility.yul\":30061:30096   */\n    tag_748:\n        /* \"#utility.yul\":30117:30118   */\n      dup3\n        /* \"#utility.yul\":30114:30115   */\n      dup3\n        /* \"#utility.yul\":30110:30119   */\n      mod\n        /* \"#utility.yul\":30105:30119   */\n      swap1\n      pop\n        /* \"#utility.yul\":29949:30125   */\n      swap3\n      swap2\n      pop\n      pop\n      jump\t// out\n        /* \"#utility.yul\":30131:30311   */\n    tag_681:\n        /* \"#utility.yul\":30179:30256   */\n      0x4e487b7100000000000000000000000000000000000000000000000000000000\n        /* \"#utility.yul\":30176:30177   */\n      0x00\n        /* \"#utility.yul\":30169:30257   */\n      mstore\n        /* \"#utility.yul\":30276:30280   */\n      0x11\n        /* \"#utility.yul\":30273:30274   */\n      0x04\n        /* \"#utility.yul\":30266:30281   */\n      mstore\n        /* \"#utility.yul\":30300:30304   */\n      0x24\n        /* \"#utility.yul\":30297:30298   */\n      0x00\n        /* \"#utility.yul\":30290:30305   */\n      revert\n        /* \"#utility.yul\":30317:30497   */\n    tag_687:\n        /* \"#utility.yul\":30365:30442   */\n      0x4e487b7100000000000000000000000000000000000000000000000000000000\n        /* \"#utility.yul\":30362:30363   */\n      0x00\n        /* \"#utility.yul\":30355:30443   */\n      mstore\n        /* \"#utility.yul\":30462:30466   */\n      0x12\n        /* \"#utility.yul\":30459:30460   */\n      0x04\n        /* \"#utility.yul\":30452:30467   */\n      mstore\n        /* \"#utility.yul\":30486:30490   */\n      0x24\n        /* \"#utility.yul\":30483:30484   */\n      0x00\n        /* \"#utility.yul\":30476:30491   */\n      revert\n        /* \"#utility.yul\":30503:30683   */\n    tag_726:\n        /* \"#utility.yul\":30551:30628   */\n      0x4e487b7100000000000000000000000000000000000000000000000000000000\n        /* \"#utility.yul\":30548:30549   */\n      0x00\n        /* \"#utility.yul\":30541:30629   */\n      mstore\n        /* \"#utility.yul\":30648:30652   */\n      0x22\n        /* \"#utility.yul\":30645:30646   */\n      0x04\n        /* \"#utility.yul\":30638:30653   */\n      mstore\n        /* \"#utility.yul\":30672:30676   */\n      0x24\n        /* \"#utility.yul\":30669:30670   */\n      0x00\n        /* \"#utility.yul\":30662:30677   */\n      revert\n        /* \"#utility.yul\":30689:30869   */\n    tag_152:\n        /* \"#utility.yul\":30737:30814   */\n      0x4e487b7100000000000000000000000000000000000000000000000000000000\n        /* \"#utility.yul\":30734:30735   */\n      0x00\n        /* \"#utility.yul\":30727:30815   */\n      mstore\n        /* \"#utility.yul\":30834:30838   */\n      0x32\n        /* \"#utility.yul\":30831:30832   */\n      0x04\n        /* \"#utility.yul\":30824:30839   */\n      mstore\n        /* \"#utility.yul\":30858:30862   */\n      0x24\n        /* \"#utility.yul\":30855:30856   */\n      0x00\n        /* \"#utility.yul\":30848:30863   */\n      revert\n        /* \"#utility.yul\":30875:31055   */\n    tag_260:\n        /* \"#utility.yul\":30923:31000   */\n      0x4e487b7100000000000000000000000000000000000000000000000000000000\n        /* \"#utility.yul\":30920:30921   */\n      0x00\n        /* \"#utility.yul\":30913:31001   */\n      mstore\n        /* \"#utility.yul\":31020:31024   */\n      0x41\n        /* \"#utility.yul\":31017:31018   */\n      0x04\n        /* \"#utility.yul\":31010:31025   */\n      mstore\n        /* \"#utility.yul\":31044:31048   */\n      0x24\n        /* \"#utility.yul\":31041:31042   */\n      0x00\n        /* \"#utility.yul\":31034:31049   */\n      revert\n        /* \"#utility.yul\":31061:31215   */\n    tag_713:\n        /* \"#utility.yul\":31104:31115   */\n      0x00\n        /* \"#utility.yul\":31140:31169   */\n      tag_756\n        /* \"#utility.yul\":31164:31167   */\n      dup3\n        /* \"#utility.yul\":31158:31168   */\n      mload\n        /* \"#utility.yul\":31140:31169   */\n      tag_484\n      jump\t// in\n    tag_756:\n        /* \"#utility.yul\":31203:31208   */\n      dup1\n        /* \"#utility.yul\":31179:31208   */\n      swap2\n      pop\n        /* \"#utility.yul\":31116:31215   */\n      pop\n        /* \"#utility.yul\":31061:31215   */\n      swap2\n      swap1\n      pop\n      jump\t// out\n        /* \"#utility.yul\":31221:31404   */\n    tag_361:\n        /* \"#utility.yul\":31256:31259   */\n      0x00\n        /* \"#utility.yul\":31294:31295   */\n      0x03\n        /* \"#utility.yul\":31276:31292   */\n      returndatasize\n        /* \"#utility.yul\":31273:31296   */\n      gt\n        /* \"#utility.yul\":31270:31398   */\n      iszero\n      tag_758\n      jumpi\n        /* \"#utility.yul\":31332:31333   */\n      0x04\n        /* \"#utility.yul\":31329:31330   */\n      0x00\n        /* \"#utility.yul\":31326:31327   */\n      dup1\n        /* \"#utility.yul\":31311:31334   */\n      returndatacopy\n        /* \"#utility.yul\":31354:31388   */\n      tag_759\n        /* \"#utility.yul\":31385:31386   */\n      0x00\n        /* \"#utility.yul\":31379:31387   */\n      mload\n        /* \"#utility.yul\":31354:31388   */\n      tag_760\n      jump\t// in\n    tag_759:\n        /* \"#utility.yul\":31347:31388   */\n      swap1\n      pop\n        /* \"#utility.yul\":31270:31398   */\n    tag_758:\n        /* \"#utility.yul\":31221:31404   */\n      swap1\n      jump\t// out\n        /* \"#utility.yul\":31533:31650   */\n    tag_404:\n        /* \"#utility.yul\":31642:31643   */\n      0x00\n        /* \"#utility.yul\":31639:31640   */\n      dup1\n        /* \"#utility.yul\":31632:31644   */\n      revert\n        /* \"#utility.yul\":31656:31758   */\n    tag_494:\n        /* \"#utility.yul\":31697:31703   */\n      0x00\n        /* \"#utility.yul\":31748:31750   */\n      0x1f\n        /* \"#utility.yul\":31744:31751   */\n      not\n        /* \"#utility.yul\":31739:31741   */\n      0x1f\n        /* \"#utility.yul\":31732:31737   */\n      dup4\n        /* \"#utility.yul\":31728:31742   */\n      add\n        /* \"#utility.yul\":31724:31752   */\n      and\n        /* \"#utility.yul\":31714:31752   */\n      swap1\n      pop\n        /* \"#utility.yul\":31656:31758   */\n      swap2\n      swap1\n      pop\n      jump\t// out\n        /* \"#utility.yul\":31764:31858   */\n    tag_743:\n        /* \"#utility.yul\":31797:31805   */\n      0x00\n        /* \"#utility.yul\":31845:31850   */\n      dup2\n        /* \"#utility.yul\":31841:31843   */\n      0x60\n        /* \"#utility.yul\":31837:31851   */\n      shl\n        /* \"#utility.yul\":31816:31851   */\n      swap1\n      pop\n        /* \"#utility.yul\":31764:31858   */\n      swap2\n      swap1\n      pop\n      jump\t// out\n        /* \"#utility.yul\":31864:31971   */\n    tag_716:\n        /* \"#utility.yul\":31908:31916   */\n      0x00\n        /* \"#utility.yul\":31958:31963   */\n      dup3\n        /* \"#utility.yul\":31952:31956   */\n      dup3\n        /* \"#utility.yul\":31948:31964   */\n      shl\n        /* \"#utility.yul\":31927:31964   */\n      swap1\n      pop\n        /* \"#utility.yul\":31864:31971   */\n      swap3\n      swap2\n      pop\n      pop\n      jump\t// out\n        /* \"#utility.yul\":31977:32083   */\n    tag_760:\n        /* \"#utility.yul\":32021:32029   */\n      0x00\n        /* \"#utility.yul\":32070:32075   */\n      dup2\n        /* \"#utility.yul\":32065:32068   */\n      0xe0\n        /* \"#utility.yul\":32061:32076   */\n      shr\n        /* \"#utility.yul\":32040:32076   */\n      swap1\n      pop\n        /* \"#utility.yul\":31977:32083   */\n      swap2\n      swap1\n      pop\n      jump\t// out\n        /* \"#utility.yul\":32089:32328   */\n    tag_505:\n        /* \"#utility.yul\":32229:32263   */\n      0x455243313135353a207472616e7366657220746f206e6f6e2045524331313535\n        /* \"#utility.yul\":32225:32226   */\n      0x00\n        /* \"#utility.yul\":32217:32223   */\n      dup3\n        /* \"#utility.yul\":32213:32227   */\n      add\n        /* \"#utility.yul\":32206:32264   */\n      mstore\n        /* \"#utility.yul\":32298:32320   */\n      0x526563656976657220696d706c656d656e746572000000000000000000000000\n        /* \"#utility.yul\":32293:32295   */\n      0x20\n        /* \"#utility.yul\":32285:32291   */\n      dup3\n        /* \"#utility.yul\":32281:32296   */\n      add\n        /* \"#utility.yul\":32274:32321   */\n      mstore\n        /* \"#utility.yul\":32089:32328   */\n      pop\n      jump\t// out\n        /* \"#utility.yul\":32334:32561   */\n    tag_510:\n        /* \"#utility.yul\":32474:32508   */\n      0x455243313135353a204552433131353552656365697665722072656a65637465\n        /* \"#utility.yul\":32470:32471   */\n      0x00\n        /* \"#utility.yul\":32462:32468   */\n      dup3\n        /* \"#utility.yul\":32458:32472   */\n      add\n        /* \"#utility.yul\":32451:32509   */\n      mstore\n        /* \"#utility.yul\":32543:32553   */\n      0x6420746f6b656e73000000000000000000000000000000000000000000000000\n        /* \"#utility.yul\":32538:32540   */\n      0x20\n        /* \"#utility.yul\":32530:32536   */\n      dup3\n        /* \"#utility.yul\":32526:32541   */\n      add\n        /* \"#utility.yul\":32519:32554   */\n      mstore\n        /* \"#utility.yul\":32334:32561   */\n      pop\n      jump\t// out\n        /* \"#utility.yul\":32567:32742   */\n    tag_515:\n        /* \"#utility.yul\":32707:32734   */\n      0x4572726f7221204e6f7420456e6f7567682042616c616e636500000000000000\n        /* \"#utility.yul\":32703:32704   */\n      0x00\n        /* \"#utility.yul\":32695:32701   */\n      dup3\n        /* \"#utility.yul\":32691:32705   */\n      add\n        /* \"#utility.yul\":32684:32735   */\n      mstore\n        /* \"#utility.yul\":32567:32742   */\n      pop\n      jump\t// out\n        /* \"#utility.yul\":32748:32906   */\n    tag_520:\n        /* \"#utility.yul\":32888:32898   */\n      0x4469616d6f6e645f000000000000000000000000000000000000000000000000\n        /* \"#utility.yul\":32884:32885   */\n      0x00\n        /* \"#utility.yul\":32876:32882   */\n      dup3\n        /* \"#utility.yul\":32872:32886   */\n      add\n        /* \"#utility.yul\":32865:32899   */\n      mstore\n        /* \"#utility.yul\":32748:32906   */\n      pop\n      jump\t// out\n        /* \"#utility.yul\":32912:33078   */\n    tag_525:\n        /* \"#utility.yul\":33052:33070   */\n      0x4d696e7420466565204e6f742053657400000000000000000000000000000000\n        /* \"#utility.yul\":33048:33049   */\n      0x00\n        /* \"#utility.yul\":33040:33046   */\n      dup3\n        /* \"#utility.yul\":33036:33050   */\n      add\n        /* \"#utility.yul\":33029:33071   */\n      mstore\n        /* \"#utility.yul\":32912:33078   */\n      pop\n      jump\t// out\n        /* \"#utility.yul\":33084:33239   */\n    tag_530:\n        /* \"#utility.yul\":33224:33231   */\n      0x476f6c645f000000000000000000000000000000000000000000000000000000\n        /* \"#utility.yul\":33220:33221   */\n      0x00\n        /* \"#utility.yul\":33212:33218   */\n      dup3\n        /* \"#utility.yul\":33208:33222   */\n      add\n        /* \"#utility.yul\":33201:33232   */\n      mstore\n        /* \"#utility.yul\":33084:33239   */\n      pop\n      jump\t// out\n        /* \"#utility.yul\":33245:33413   */\n    tag_535:\n        /* \"#utility.yul\":33385:33405   */\n      0x4e6f7420456e6f7567682042616c616e63650000000000000000000000000000\n        /* \"#utility.yul\":33381:33382   */\n      0x00\n        /* \"#utility.yul\":33373:33379   */\n      dup3\n        /* \"#utility.yul\":33369:33383   */\n      add\n        /* \"#utility.yul\":33362:33406   */\n      mstore\n        /* \"#utility.yul\":33245:33413   */\n      pop\n      jump\t// out\n        /* \"#utility.yul\":33419:33596   */\n    tag_540:\n        /* \"#utility.yul\":33559:33588   */\n      0x44726f707369746520697320616c72656164792052756e6e696e670000000000\n        /* \"#utility.yul\":33555:33556   */\n      0x00\n        /* \"#utility.yul\":33547:33553   */\n      dup3\n        /* \"#utility.yul\":33543:33557   */\n      add\n        /* \"#utility.yul\":33536:33589   */\n      mstore\n        /* \"#utility.yul\":33419:33596   */\n      pop\n      jump\t// out\n        /* \"#utility.yul\":33602:33779   */\n    tag_545:\n        /* \"#utility.yul\":33742:33771   */\n      0x44726f707369746520697320616c72656164792053746f707065640000000000\n        /* \"#utility.yul\":33738:33739   */\n      0x00\n        /* \"#utility.yul\":33730:33736   */\n      dup3\n        /* \"#utility.yul\":33726:33740   */\n      add\n        /* \"#utility.yul\":33719:33772   */\n      mstore\n        /* \"#utility.yul\":33602:33779   */\n      pop\n      jump\t// out\n        /* \"#utility.yul\":33785:33956   */\n    tag_550:\n        /* \"#utility.yul\":33925:33948   */\n      0x596f752063616e206d696e7420312d33204e4654730000000000000000000000\n        /* \"#utility.yul\":33921:33922   */\n      0x00\n        /* \"#utility.yul\":33913:33919   */\n      dup3\n        /* \"#utility.yul\":33909:33923   */\n      add\n        /* \"#utility.yul\":33902:33949   */\n      mstore\n        /* \"#utility.yul\":33785:33956   */\n      pop\n      jump\t// out\n        /* \"#utility.yul\":33962:34140   */\n    tag_555:\n        /* \"#utility.yul\":34102:34132   */\n      0x4f6e6c79204e46542d4553204f776e65722063616e2041636365737300000000\n        /* \"#utility.yul\":34098:34099   */\n      0x00\n        /* \"#utility.yul\":34090:34096   */\n      dup3\n        /* \"#utility.yul\":34086:34100   */\n      add\n        /* \"#utility.yul\":34079:34133   */\n      mstore\n        /* \"#utility.yul\":33962:34140   */\n      pop\n      jump\t// out\n        /* \"#utility.yul\":34146:34327   */\n    tag_560:\n        /* \"#utility.yul\":34286:34319   */\n      0x4f776e65722053686f756c6420736574206d696e742046656520466972737400\n        /* \"#utility.yul\":34282:34283   */\n      0x00\n        /* \"#utility.yul\":34274:34280   */\n      dup3\n        /* \"#utility.yul\":34270:34284   */\n      add\n        /* \"#utility.yul\":34263:34320   */\n      mstore\n        /* \"#utility.yul\":34146:34327   */\n      pop\n      jump\t// out\n        /* \"#utility.yul\":34333:34510   */\n    tag_565:\n        /* \"#utility.yul\":34473:34502   */\n      0x44726f7073697465206973206e6f74204f70656e6564205965742e0000000000\n        /* \"#utility.yul\":34469:34470   */\n      0x00\n        /* \"#utility.yul\":34461:34467   */\n      dup3\n        /* \"#utility.yul\":34457:34471   */\n      add\n        /* \"#utility.yul\":34450:34503   */\n      mstore\n        /* \"#utility.yul\":34333:34510   */\n      pop\n      jump\t// out\n        /* \"#utility.yul\":34516:34691   */\n    tag_570:\n        /* \"#utility.yul\":34656:34683   */\n      0x4d6178204d696e74696e67204c696d6974207265616368656400000000000000\n        /* \"#utility.yul\":34652:34653   */\n      0x00\n        /* \"#utility.yul\":34644:34650   */\n      dup3\n        /* \"#utility.yul\":34640:34654   */\n      add\n        /* \"#utility.yul\":34633:34684   */\n      mstore\n        /* \"#utility.yul\":34516:34691   */\n      pop\n      jump\t// out\n        /* \"#utility.yul\":34697:34854   */\n    tag_575:\n        /* \"#utility.yul\":34837:34846   */\n      0x53696c7665725f00000000000000000000000000000000000000000000000000\n        /* \"#utility.yul\":34833:34834   */\n      0x00\n        /* \"#utility.yul\":34825:34831   */\n      dup3\n        /* \"#utility.yul\":34821:34835   */\n      add\n        /* \"#utility.yul\":34814:34847   */\n      mstore\n        /* \"#utility.yul\":34697:34854   */\n      pop\n      jump\t// out\n        /* \"#utility.yul\":34860:35080   */\n    tag_580:\n        /* \"#utility.yul\":35000:35034   */\n      0x455243313135353a206d696e7420746f20746865207a65726f20616464726573\n        /* \"#utility.yul\":34996:34997   */\n      0x00\n        /* \"#utility.yul\":34988:34994   */\n      dup3\n        /* \"#utility.yul\":34984:34998   */\n      add\n        /* \"#utility.yul\":34977:35035   */\n      mstore\n        /* \"#utility.yul\":35069:35072   */\n      0x7300000000000000000000000000000000000000000000000000000000000000\n        /* \"#utility.yul\":35064:35066   */\n      0x20\n        /* \"#utility.yul\":35056:35062   */\n      dup3\n        /* \"#utility.yul\":35052:35067   */\n      add\n        /* \"#utility.yul\":35045:35073   */\n      mstore\n        /* \"#utility.yul\":34860:35080   */\n      pop\n      jump\t// out\n        /* \"#utility.yul\":35086:35797   */\n    tag_363:\n        /* \"#utility.yul\":35125:35128   */\n      0x00\n        /* \"#utility.yul\":35163:35167   */\n      0x44\n        /* \"#utility.yul\":35145:35161   */\n      returndatasize\n        /* \"#utility.yul\":35142:35168   */\n      lt\n        /* \"#utility.yul\":35139:35178   */\n      iszero\n      tag_785\n      jumpi\n        /* \"#utility.yul\":35171:35176   */\n      jump(tag_784)\n        /* \"#utility.yul\":35139:35178   */\n    tag_785:\n        /* \"#utility.yul\":35200:35220   */\n      tag_786\n      tag_659\n      jump\t// in\n    tag_786:\n        /* \"#utility.yul\":35275:35276   */\n      0x04\n        /* \"#utility.yul\":35257:35273   */\n      returndatasize\n        /* \"#utility.yul\":35253:35277   */\n      sub\n        /* \"#utility.yul\":35250:35251   */\n      0x04\n        /* \"#utility.yul\":35244:35248   */\n      dup3\n        /* \"#utility.yul\":35229:35278   */\n      returndatacopy\n        /* \"#utility.yul\":35308:35312   */\n      dup1\n        /* \"#utility.yul\":35302:35313   */\n      mload\n        /* \"#utility.yul\":35407:35423   */\n      returndatasize\n        /* \"#utility.yul\":35400:35404   */\n      0x24\n        /* \"#utility.yul\":35392:35398   */\n      dup3\n        /* \"#utility.yul\":35388:35405   */\n      add\n        /* \"#utility.yul\":35385:35424   */\n      gt\n        /* \"#utility.yul\":35352:35370   */\n      0xffffffffffffffff\n        /* \"#utility.yul\":35344:35350   */\n      dup3\n        /* \"#utility.yul\":35341:35371   */\n      gt\n        /* \"#utility.yul\":35325:35438   */\n      or\n        /* \"#utility.yul\":35322:35468   */\n      iszero\n      tag_787\n      jumpi\n        /* \"#utility.yul\":35453:35458   */\n      pop\n      pop\n      jump(tag_784)\n        /* \"#utility.yul\":35322:35468   */\n    tag_787:\n        /* \"#utility.yul\":35499:35505   */\n      dup1\n        /* \"#utility.yul\":35493:35497   */\n      dup3\n        /* \"#utility.yul\":35489:35506   */\n      add\n        /* \"#utility.yul\":35535:35538   */\n      dup1\n        /* \"#utility.yul\":35529:35539   */\n      mload\n        /* \"#utility.yul\":35562:35580   */\n      0xffffffffffffffff\n        /* \"#utility.yul\":35554:35560   */\n      dup2\n        /* \"#utility.yul\":35551:35581   */\n      gt\n        /* \"#utility.yul\":35548:35591   */\n      iszero\n      tag_788\n      jumpi\n        /* \"#utility.yul\":35584:35589   */\n      pop\n      pop\n      pop\n      pop\n      jump(tag_784)\n        /* \"#utility.yul\":35548:35591   */\n    tag_788:\n        /* \"#utility.yul\":35632:35638   */\n      dup1\n        /* \"#utility.yul\":35625:35629   */\n      0x20\n        /* \"#utility.yul\":35620:35623   */\n      dup4\n        /* \"#utility.yul\":35616:35630   */\n      add\n        /* \"#utility.yul\":35612:35639   */\n      add\n        /* \"#utility.yul\":35691:35692   */\n      0x04\n        /* \"#utility.yul\":35673:35689   */\n      returndatasize\n        /* \"#utility.yul\":35669:35693   */\n      sub\n        /* \"#utility.yul\":35663:35667   */\n      dup6\n        /* \"#utility.yul\":35659:35694   */\n      add\n        /* \"#utility.yul\":35654:35657   */\n      dup2\n        /* \"#utility.yul\":35651:35695   */\n      gt\n        /* \"#utility.yul\":35648:35705   */\n      iszero\n      tag_789\n      jumpi\n        /* \"#utility.yul\":35698:35703   */\n      pop\n      pop\n      pop\n      pop\n      pop\n      jump(tag_784)\n        /* \"#utility.yul\":35648:35705   */\n    tag_789:\n        /* \"#utility.yul\":35715:35772   */\n      tag_790\n        /* \"#utility.yul\":35763:35769   */\n      dup3\n        /* \"#utility.yul\":35757:35761   */\n      0x20\n        /* \"#utility.yul\":35753:35770   */\n      add\n        /* \"#utility.yul\":35745:35751   */\n      dup6\n        /* \"#utility.yul\":35741:35771   */\n      add\n        /* \"#utility.yul\":35735:35739   */\n      dup7\n        /* \"#utility.yul\":35715:35772   */\n      tag_727\n      jump\t// in\n    tag_790:\n        /* \"#utility.yul\":35788:35791   */\n      dup3\n        /* \"#utility.yul\":35781:35791   */\n      swap6\n      pop\n        /* \"#utility.yul\":35129:35797   */\n      pop\n      pop\n      pop\n      pop\n      pop\n        /* \"#utility.yul\":35086:35797   */\n    tag_784:\n      swap1\n      jump\t// out\n        /* \"#utility.yul\":35803:35925   */\n    tag_388:\n        /* \"#utility.yul\":35876:35900   */\n      tag_792\n        /* \"#utility.yul\":35894:35899   */\n      dup2\n        /* \"#utility.yul\":35876:35900   */\n      tag_444\n      jump\t// in\n    tag_792:\n        /* \"#utility.yul\":35869:35874   */\n      dup2\n        /* \"#utility.yul\":35866:35901   */\n      eq\n        /* \"#utility.yul\":35856:35919   */\n      tag_793\n      jumpi\n        /* \"#utility.yul\":35915:35916   */\n      0x00\n        /* \"#utility.yul\":35912:35913   */\n      dup1\n        /* \"#utility.yul\":35905:35917   */\n      revert\n        /* \"#utility.yul\":35856:35919   */\n    tag_793:\n        /* \"#utility.yul\":35803:35925   */\n      pop\n      jump\t// out\n        /* \"#utility.yul\":35931:36069   */\n    tag_392:\n        /* \"#utility.yul\":36012:36044   */\n      tag_795\n        /* \"#utility.yul\":36038:36043   */\n      dup2\n        /* \"#utility.yul\":36012:36044   */\n      tag_435\n      jump\t// in\n    tag_795:\n        /* \"#utility.yul\":36005:36010   */\n      dup2\n        /* \"#utility.yul\":36002:36045   */\n      eq\n        /* \"#utility.yul\":35992:36063   */\n      tag_796\n      jumpi\n        /* \"#utility.yul\":36059:36060   */\n      0x00\n        /* \"#utility.yul\":36056:36057   */\n      dup1\n        /* \"#utility.yul\":36049:36061   */\n      revert\n        /* \"#utility.yul\":35992:36063   */\n    tag_796:\n        /* \"#utility.yul\":35931:36069   */\n      pop\n      jump\t// out\n        /* \"#utility.yul\":36075:36195   */\n    tag_396:\n        /* \"#utility.yul\":36147:36170   */\n      tag_798\n        /* \"#utility.yul\":36164:36169   */\n      dup2\n        /* \"#utility.yul\":36147:36170   */\n      tag_705\n      jump\t// in\n    tag_798:\n        /* \"#utility.yul\":36140:36145   */\n      dup2\n        /* \"#utility.yul\":36137:36171   */\n      eq\n        /* \"#utility.yul\":36127:36189   */\n      tag_799\n      jumpi\n        /* \"#utility.yul\":36185:36186   */\n      0x00\n        /* \"#utility.yul\":36182:36183   */\n      dup1\n        /* \"#utility.yul\":36175:36187   */\n      revert\n        /* \"#utility.yul\":36127:36189   */\n    tag_799:\n        /* \"#utility.yul\":36075:36195   */\n      pop\n      jump\t// out\n        /* \"#utility.yul\":36201:36323   */\n    tag_400:\n        /* \"#utility.yul\":36274:36298   */\n      tag_801\n        /* \"#utility.yul\":36292:36297   */\n      dup2\n        /* \"#utility.yul\":36274:36298   */\n      tag_583\n      jump\t// in\n    tag_801:\n        /* \"#utility.yul\":36267:36272   */\n      dup2\n        /* \"#utility.yul\":36264:36299   */\n      eq\n        /* \"#utility.yul\":36254:36317   */\n      tag_802\n      jumpi\n        /* \"#utility.yul\":36313:36314   */\n      0x00\n        /* \"#utility.yul\":36310:36311   */\n      dup1\n        /* \"#utility.yul\":36303:36315   */\n      revert\n        /* \"#utility.yul\":36254:36317   */\n    tag_802:\n        /* \"#utility.yul\":36201:36323   */\n      pop\n      jump\t// out\n\n    auxdata: 0xa2646970667358221220b6060d67c01e694ab18197acbbbfeb74b7b162418c371a08539c846addbd13fa64736f6c63430008070033\n}\n",
				"bytecode": {
					"linkReferences": {},
					"object": "608060405260405180602001604052806000815250600290805190602001906200002b92919062000113565b5060326009556064600a55610352600b556001600e60006101000a81548160ff0219169083151502179055503480156200006457600080fd5b50604051620034783803806200347883398181016040528101906200008a919062000241565b80600f9080519060200190620000a292919062000113565b5033600e60016101000a81548173ffffffffffffffffffffffffffffffffffffffff021916908373ffffffffffffffffffffffffffffffffffffffff160217905550600060038190555060016004819055506000600681905550600060078190555060006008819055505062000416565b828054620001219062000327565b90600052602060002090601f01602090048101928262000145576000855562000191565b82601f106200016057805160ff191683800117855562000191565b8280016001018555821562000191579182015b828111156200019057825182559160200191906001019062000173565b5b509050620001a09190620001a4565b5090565b5b80821115620001bf576000816000905550600101620001a5565b5090565b6000620001da620001d484620002bb565b62000292565b905082815260208101848484011115620001f957620001f8620003f6565b5b62000206848285620002f1565b509392505050565b600082601f830112620002265762000225620003f1565b5b815162000238848260208601620001c3565b91505092915050565b6000602082840312156200025a576200025962000400565b5b600082015167ffffffffffffffff8111156200027b576200027a620003fb565b5b62000289848285016200020e565b91505092915050565b60006200029e620002b1565b9050620002ac82826200035d565b919050565b6000604051905090565b600067ffffffffffffffff821115620002d957620002d8620003c2565b5b620002e48262000405565b9050602081019050919050565b60005b8381101562000311578082015181840152602081019050620002f4565b8381111562000321576000848401525b50505050565b600060028204905060018216806200034057607f821691505b6020821081141562000357576200035662000393565b5b50919050565b620003688262000405565b810181811067ffffffffffffffff821117156200038a5762000389620003c2565b5b80604052505050565b7f4e487b7100000000000000000000000000000000000000000000000000000000600052602260045260246000fd5b7f4e487b7100000000000000000000000000000000000000000000000000000000600052604160045260246000fd5b600080fd5b600080fd5b600080fd5b600080fd5b6000601f19601f8301169050919050565b61305280620004266000396000f3fe6080604052600436106100e85760003560e01c80637a5caab31161008a578063b187bd2611610059578063b187bd26146102c5578063b4a99a4e146102f0578063b6db75a01461031b578063eddd0d9c14610346576100e8565b80637a5caab31461022f5780638b7afe2e1461025a578063a6f9dae114610285578063aa90c726146102ae576100e8565b8063225011da116100c6578063225011da146101585780635b27d84e146101955780635e1f0556146101c557806360daa85114610202576100e8565b80630390c11c146100ed5780631546025914610118578063191e2e831461012f575b600080fd5b3480156100f957600080fd5b5061010261036f565b60405161010f9190612634565b60405180910390f35b34801561012457600080fd5b5061012d610379565b005b34801561013b57600080fd5b5061015660048036038101906101519190611dd8565b610483565b005b34801561016457600080fd5b5061017f600480360381019061017a9190611dab565b6105ad565b60405161018c9190612435565b60405180910390f35b6101af60048036038101906101aa9190611e18565b61069d565b6040516101bc9190612435565b60405180910390f35b3480156101d157600080fd5b506101ec60048036038101906101e79190611e18565b61098d565b6040516101f99190612413565b60405180910390f35b34801561020e57600080fd5b50610217610c30565b60405161022693929190612678565b60405180910390f35b34801561023b57600080fd5b50610244610d36565b6040516102519190612634565b60405180910390f35b34801561026657600080fd5b5061026f610d40565b60405161027c9190612634565b60405180910390f35b34801561029157600080fd5b506102ac60048036038101906102a79190611dab565b610ddf565b005b3480156102ba57600080fd5b506102c3610f10565b005b3480156102d157600080fd5b506102da61101a565b6040516102e79190612457565b60405180910390f35b3480156102fc57600080fd5b5061030561102d565b604051610312919061239e565b60405180910390f35b34801561032757600080fd5b50610330611053565b60405161033d9190612457565b60405180910390f35b34801561035257600080fd5b5061036d60048036038101906103689190611e85565b6110bc565b005b6000600354905090565b600e60019054906101000a900473ffffffffffffffffffffffffffffffffffffffff1673ffffffffffffffffffffffffffffffffffffffff166103ba61115d565b73ffffffffffffffffffffffffffffffffffffffff1614610410576040517f08c379a000000000000000000000000000000000000000000000000000000000815260040161040790612594565b60405180910390fd5b60011515600e60009054906101000a900460ff16151514610466576040517f08c379a000000000000000000000000000000000000000000000000000000000815260040161045d90612534565b60405180910390fd5b6000600e60006101000a81548160ff021916908315150217905550565b600e60019054906101000a900473ffffffffffffffffffffffffffffffffffffffff1673ffffffffffffffffffffffffffffffffffffffff166104c461115d565b73ffffffffffffffffffffffffffffffffffffffff161461051a576040517f08c379a000000000000000000000000000000000000000000000000000000000815260040161051190612594565b60405180910390fd5b6000479050808210610561576040517f08c379a0000000000000000000000000000000000000000000000000000000008152600401610558906124d4565b60405180910390fd5b8273ffffffffffffffffffffffffffffffffffffffff166108fc839081150290604051600060405180830381858888f193505050501580156105a7573d6000803e3d6000fd5b50505050565b606060001515600e60009054906101000a900460ff16151514610605576040517f08c379a00000000000000000000000000000000000000000000000000000000081526004016105fc906125d4565b60405180910390fd5b600c60008373ffffffffffffffffffffffffffffffffffffffff1673ffffffffffffffffffffffffffffffffffffffff16815260200190815260200160002060000180548060200260200160405190810160405280929190818152602001828054801561069157602002820191906000526020600020905b81548152602001906001019080831161067d575b50505050509050919050565b606060001515600e60009054906101000a900460ff161515146106f5576040517f08c379a00000000000000000000000000000000000000000000000000000000081526004016106ec906125d4565b60405180910390fd5b6000600554141561073b576040517f08c379a0000000000000000000000000000000000000000000000000000000008152600401610732906125b4565b60405180910390fd5b60048210801561074b5750600082115b61078a576040517f08c379a000000000000000000000000000000000000000000000000000000000815260040161078190612574565b60405180910390fd5b6103e8600354106107d0576040517f08c379a00000000000000000000000000000000000000000000000000000000081526004016107c7906125f4565b60405180910390fd5b60006005541415610816576040517f08c379a000000000000000000000000000000000000000000000000000000000815260040161080d906124f4565b60405180910390fd5b8160055461082491906127f4565b3414610865576040517f08c379a000000000000000000000000000000000000000000000000000000000815260040161085c90612514565b60405180910390fd5b600060608060005b858110156108df5761087e87611165565b809450819550505061088f8461138b565b836040516020016108a19291906122d7565b6040516020818303038152906040528282815181106108c3576108c2612b56565b5b6020026020010181905250806108d890612a0f565b905061086d565b506108f16108eb61115d565b346114ec565b600c60008773ffffffffffffffffffffffffffffffffffffffff1673ffffffffffffffffffffffffffffffffffffffff16815260200190815260200160002060000180548060200260200160405190810160405280929190818152602001828054801561097d57602002820191906000526020600020905b815481526020019060010190808311610969575b5050505050935050505092915050565b6060600e60019054906101000a900473ffffffffffffffffffffffffffffffffffffffff1673ffffffffffffffffffffffffffffffffffffffff166109d061115d565b73ffffffffffffffffffffffffffffffffffffffff1614610a26576040517f08c379a0000000000000000000000000000000000000000000000000000000008152600401610a1d90612594565b60405180910390fd5b60001515600e60009054906101000a900460ff16151514610a7c576040517f08c379a0000000000000000000000000000000000000000000000000000000008152600401610a73906125d4565b60405180910390fd5b60006005541415610ac2576040517f08c379a0000000000000000000000000000000000000000000000000000000008152600401610ab9906125b4565b60405180910390fd5b600482108015610ad25750600082115b610b11576040517f08c379a0000000000000000000000000000000000000000000000000000000008152600401610b0890612574565b60405180910390fd5b6103e860035410610b57576040517f08c379a0000000000000000000000000000000000000000000000000000000008152600401610b4e906125f4565b60405180910390fd5b60006005541415610b9d576040517f08c379a0000000000000000000000000000000000000000000000000000000008152600401610b94906124f4565b60405180910390fd5b600060608060005b85811015610c2357610bb687611165565b8094508195505050610bc78461138b565b83604051602001610bd99291906122d7565b604051602081830303815290604052610bf190612912565b828281518110610c0457610c03612b56565b5b6020026020010181815250508080610c1b90612a0f565b915050610ba5565b5080935050505092915050565b6000806000600e60019054906101000a900473ffffffffffffffffffffffffffffffffffffffff1673ffffffffffffffffffffffffffffffffffffffff16610c7661115d565b73ffffffffffffffffffffffffffffffffffffffff1614610ccc576040517f08c379a0000000000000000000000000000000000000000000000000000000008152600401610cc390612594565b60405180910390fd5b60001515600e60009054906101000a900460ff16151514610d22576040517f08c379a0000000000000000000000000000000000000000000000000000000008152600401610d19906125d4565b60405180910390fd5b600654600754600854925092509250909192565b6000600554905090565b6000600e60019054906101000a900473ffffffffffffffffffffffffffffffffffffffff1673ffffffffffffffffffffffffffffffffffffffff16610d8361115d565b73ffffffffffffffffffffffffffffffffffffffff1614610dd9576040517f08c379a0000000000000000000000000000000000000000000000000000000008152600401610dd090612594565b60405180910390fd5b47905090565b600e60019054906101000a900473ffffffffffffffffffffffffffffffffffffffff1673ffffffffffffffffffffffffffffffffffffffff16610e2061115d565b73ffffffffffffffffffffffffffffffffffffffff1614610e76576040517f08c379a0000000000000000000000000000000000000000000000000000000008152600401610e6d90612594565b60405180910390fd5b60001515600e60009054906101000a900460ff16151514610ecc576040517f08c379a0000000000000000000000000000000000000000000000000000000008152600401610ec3906125d4565b60405180910390fd5b80600e60016101000a81548173ffffffffffffffffffffffffffffffffffffffff021916908373ffffffffffffffffffffffffffffffffffffffff16021790555050565b600e60019054906101000a900473ffffffffffffffffffffffffffffffffffffffff1673ffffffffffffffffffffffffffffffffffffffff16610f5161115d565b73ffffffffffffffffffffffffffffffffffffffff1614610fa7576040517f08c379a0000000000000000000000000000000000000000000000000000000008152600401610f9e90612594565b60405180910390fd5b60001515600e60009054906101000a900460ff16151514610ffd576040517f08c379a0000000000000000000000000000000000000000000000000000000008152600401610ff490612554565b60405180910390fd5b6001600e60006101000a81548160ff021916908315150217905550565b600e60009054906101000a900460ff1681565b600e60019054906101000a900473ffffffffffffffffffffffffffffffffffffffff1681565b6000600e60019054906101000a900473ffffffffffffffffffffffffffffffffffffffff1673ffffffffffffffffffffffffffffffffffffffff163373ffffffffffffffffffffffffffffffffffffffff1614156110b457600190506110b9565b600090505b90565b600e60019054906101000a900473ffffffffffffffffffffffffffffffffffffffff1673ffffffffffffffffffffffffffffffffffffffff166110fd61115d565b73ffffffffffffffffffffffffffffffffffffffff1614611153576040517f08c379a000000000000000000000000000000000000000000000000000000000815260040161114a90612594565b60405180910390fd5b8060058190555050565b600033905090565b6000606060001515600e60009054906101000a900460ff161515146111bf576040517f08c379a00000000000000000000000000000000000000000000000000000000081526004016111b6906125d4565b60405180910390fd5b60006111c9611546565b905060006111d6826115d6565b90506112708582600454600280546111ed906129ac565b80601f0160208091040260200160405190810160405280929190818152602001828054611219906129ac565b80156112665780601f1061123b57610100808354040283529160200191611266565b820191906000526020600020905b81548152906001019060200180831161124957829003601f168201915b50505050506118a2565b6003600081548092919061128390612a0f565b9190505550600c60008673ffffffffffffffffffffffffffffffffffffffff1673ffffffffffffffffffffffffffffffffffffffff168152602001908152602001600020600001819080600181540180825580915050600190039060005260206000200160009091909190915055806002808054611300906129ac565b80601f016020809104026020016040519081016040528092919081815260200182805461132c906129ac565b80156113795780601f1061134e57610100808354040283529160200191611379565b820191906000526020600020905b81548152906001019060200180831161135c57829003601f168201915b50505050509050935093505050915091565b606060008214156113d3576040518060400160405280600181526020017f300000000000000000000000000000000000000000000000000000000000000081525090506114e7565b600082905060005b600082146114055780806113ee90612a0f565b915050600a826113fe91906127c3565b91506113db565b60008167ffffffffffffffff81111561142157611420612b85565b5b6040519080825280601f01601f1916602001820160405280156114535781602001600182028036833780820191505090505b5090505b600085146114e05760018261146c919061284e565b9150600a8561147b9190612a98565b6030611487919061276d565b60f81b81838151811061149d5761149c612b56565b5b60200101907effffffffffffffffffffffffffffffffffffffffffffffffffffffffffffff1916908160001a905350600a856114d991906127c3565b9450611457565b8093505050505b919050565b80600d60008473ffffffffffffffffffffffffffffffffffffffff1673ffffffffffffffffffffffffffffffffffffffff168152602001908152602001600020600082825461153b919061276d565b925050819055505050565b60008060065460075460085460035442611560919061276d565b61156a919061276d565b611574919061276d565b61157e919061276d565b33600e60019054906101000a900473ffffffffffffffffffffffffffffffffffffffff166040516020016115b493929190612361565b6040516020818303038152906040528051906020012060001c90508091505090565b6000801515600e60009054906101000a900460ff1615151461162d576040517f08c379a0000000000000000000000000000000000000000000000000000000008152600401611624906125d4565b60405180910390fd5b6000600160148461163e9190612a98565b14801561164e5750600954600654105b156116b8576006600081548092919061166690612a0f565b919050555061167660065461138b565b60405160200161168691906122fb565b604051602081830303815290604052600290805190602001906116aa929190611cb4565b50600090508091505061189d565b60036014846116c79190612a98565b111580156116d85750600a54600754105b1561174257600760008154809291906116f090612a0f565b919050555061170060075461138b565b604051602001611710919061231d565b60405160208183030381529060405260029080519060200190611734929190611cb4565b50600190508091505061189d565b60036014846117519190612a98565b1180156117615750600b54600854105b156117cb576008600081548092919061177990612a0f565b919050555061178960085461138b565b604051602001611799919061233f565b604051602081830303815290604052600290805190602001906117bd929190611cb4565b50600290508091505061189d565b600a54600754101561183c5760019050600760008154809291906117ee90612a0f565b91905055506117fe60075461138b565b60405160200161180e919061231d565b60405160208183030381529060405260029080519060200190611832929190611cb4565b508091505061189d565b600090506006600081548092919061185390612a0f565b919050555061186360065461138b565b60405160200161187391906122fb565b60405160208183030381529060405260029080519060200190611897929190611cb4565b50809150505b919050565b600073ffffffffffffffffffffffffffffffffffffffff168473ffffffffffffffffffffffffffffffffffffffff161415611912576040517f08c379a000000000000000000000000000000000000000000000000000000000815260040161190990612614565b60405180910390fd5b600061191c61115d565b905061193d8160008761192e88611a38565b61193788611a38565b87611ab2565b8260008086815260200190815260200160002060008773ffffffffffffffffffffffffffffffffffffffff1673ffffffffffffffffffffffffffffffffffffffff168152602001908152602001600020600082825461199c919061276d565b925050819055508473ffffffffffffffffffffffffffffffffffffffff16600073ffffffffffffffffffffffffffffffffffffffff168273ffffffffffffffffffffffffffffffffffffffff167fc3d58168c5ae7397731d063d5bbf3d657854427343f4c083240f7aacaa2d0f628787604051611a1a92919061264f565b60405180910390a4611a3181600087878787611aba565b5050505050565b60606000600167ffffffffffffffff811115611a5757611a56612b85565b5b604051908082528060200260200182016040528015611a855781602001602082028036833780820191505090505b5090508281600081518110611a9d57611a9c612b56565b5b60200260200101818152505080915050919050565b505050505050565b611ad98473ffffffffffffffffffffffffffffffffffffffff16611ca1565b15611c99578373ffffffffffffffffffffffffffffffffffffffff1663ae89a24887878686866040518663ffffffff1660e01b8152600401611b1f9594939291906123b9565b602060405180830381600087803b158015611b3957600080fd5b505af1925050508015611b6a57506040513d601f19601f82011682018060405250810190611b679190611e58565b60015b611c1057611b76612bc9565b806308c379a01415611bd35750611b8b612f2a565b80611b965750611bd5565b806040517f08c379a0000000000000000000000000000000000000000000000000000000008152600401611bca9190612472565b60405180910390fd5b505b6040517f08c379a0000000000000000000000000000000000000000000000000000000008152600401611c0790612494565b60405180910390fd5b63ae89a24860e01b7bffffffffffffffffffffffffffffffffffffffffffffffffffffffff1916817bffffffffffffffffffffffffffffffffffffffffffffffffffffffff191614611c97576040517f08c379a0000000000000000000000000000000000000000000000000000000008152600401611c8e906124b4565b60405180910390fd5b505b505050505050565b600080823b905060008111915050919050565b828054611cc0906129ac565b90600052602060002090601f016020900481019282611ce25760008555611d29565b82601f10611cfb57805160ff1916838001178555611d29565b82800160010185558215611d29579182015b82811115611d28578251825591602001919060010190611d0d565b5b509050611d369190611d3a565b5090565b5b80821115611d53576000816000905550600101611d3b565b5090565b600081359050611d6681612fc0565b92915050565b600081359050611d7b81612fd7565b92915050565b600081519050611d9081612fee565b92915050565b600081359050611da581613005565b92915050565b600060208284031215611dc157611dc0612beb565b5b6000611dcf84828501611d57565b91505092915050565b60008060408385031215611def57611dee612beb565b5b6000611dfd85828601611d6c565b9250506020611e0e85828601611d96565b9150509250929050565b60008060408385031215611e2f57611e2e612beb565b5b6000611e3d85828601611d57565b9250506020611e4e85828601611d96565b9150509250929050565b600060208284031215611e6e57611e6d612beb565b5b6000611e7c84828501611d81565b91505092915050565b600060208284031215611e9b57611e9a612beb565b5b6000611ea984828501611d96565b91505092915050565b6000611ebe8383611ff9565b60208301905092915050565b6000611ed683836122a2565b60208301905092915050565b611eeb81612894565b82525050565b611f02611efd82612894565b612a6a565b82525050565b611f1181612882565b82525050565b611f28611f2382612882565b612a58565b82525050565b6000611f39826126e9565b611f43818561272f565b9350611f4e836126b9565b8060005b83811015611f7f578151611f668882611eb2565b9750611f7183612715565b925050600181019050611f52565b5085935050505092915050565b6000611f97826126f4565b611fa18185612740565b9350611fac836126c9565b8060005b83811015611fdd578151611fc48882611eca565b9750611fcf83612722565b925050600181019050611fb0565b5085935050505092915050565b611ff3816128a6565b82525050565b612002816128b2565b82525050565b60006120138261270a565b61201d8185612751565b935061202d818560208601612979565b61203681612bf0565b840191505092915050565b600061204c8261270a565b6120568185612762565b9350612066818560208601612979565b80840191505092915050565b600061207f603483612751565b915061208a82612c28565b604082019050919050565b60006120a2602883612751565b91506120ad82612c77565b604082019050919050565b60006120c5601983612751565b91506120d082612cc6565b602082019050919050565b60006120e8600883612762565b91506120f382612cef565b600882019050919050565b600061210b601083612751565b915061211682612d18565b602082019050919050565b600061212e600583612762565b915061213982612d41565b600582019050919050565b6000612151601283612751565b915061215c82612d6a565b602082019050919050565b6000612174601b83612751565b915061217f82612d93565b602082019050919050565b6000612197601b83612751565b91506121a282612dbc565b602082019050919050565b60006121ba601583612751565b91506121c582612de5565b602082019050919050565b60006121dd601c83612751565b91506121e882612e0e565b602082019050919050565b6000612200601f83612751565b915061220b82612e37565b602082019050919050565b6000612223601b83612751565b915061222e82612e60565b602082019050919050565b6000612246601983612751565b915061225182612e89565b602082019050919050565b6000612269600783612762565b915061227482612eb2565b600782019050919050565b600061228c602183612751565b915061229782612edb565b604082019050919050565b6122ab81612908565b82525050565b6122ba81612908565b82525050565b6122d16122cc82612908565b612a8e565b82525050565b60006122e38285612041565b91506122ef8284612041565b91508190509392505050565b6000612306826120db565b91506123128284612041565b915081905092915050565b600061232882612121565b91506123348284612041565b915081905092915050565b600061234a8261225c565b91506123568284612041565b915081905092915050565b600061236d82866122c0565b60208201915061237d8285611f17565b60148201915061238d8284611ef1565b601482019150819050949350505050565b60006020820190506123b36000830184611ee2565b92915050565b600060a0820190506123ce6000830188611f08565b6123db6020830187611f08565b6123e860408301866122b1565b6123f560608301856122b1565b81810360808301526124078184612008565b90509695505050505050565b6000602082019050818103600083015261242d8184611f2e565b905092915050565b6000602082019050818103600083015261244f8184611f8c565b905092915050565b600060208201905061246c6000830184611fea565b92915050565b6000602082019050818103600083015261248c8184612008565b905092915050565b600060208201905081810360008301526124ad81612072565b9050919050565b600060208201905081810360008301526124cd81612095565b9050919050565b600060208201905081810360008301526124ed816120b8565b9050919050565b6000602082019050818103600083015261250d816120fe565b9050919050565b6000602082019050818103600083015261252d81612144565b9050919050565b6000602082019050818103600083015261254d81612167565b9050919050565b6000602082019050818103600083015261256d8161218a565b9050919050565b6000602082019050818103600083015261258d816121ad565b9050919050565b600060208201905081810360008301526125ad816121d0565b9050919050565b600060208201905081810360008301526125cd816121f3565b9050919050565b600060208201905081810360008301526125ed81612216565b9050919050565b6000602082019050818103600083015261260d81612239565b9050919050565b6000602082019050818103600083015261262d8161227f565b9050919050565b600060208201905061264960008301846122b1565b92915050565b600060408201905061266460008301856122b1565b61267160208301846122b1565b9392505050565b600060608201905061268d60008301866122b1565b61269a60208301856122b1565b6126a760408301846122b1565b949350505050565b6000604051905090565b6000819050602082019050919050565b6000819050602082019050919050565b6000819050602082019050919050565b600081519050919050565b600081519050919050565b600081519050919050565b600081519050919050565b6000602082019050919050565b6000602082019050919050565b600082825260208201905092915050565b600082825260208201905092915050565b600082825260208201905092915050565b600081905092915050565b600061277882612908565b915061278383612908565b9250827fffffffffffffffffffffffffffffffffffffffffffffffffffffffffffffffff038211156127b8576127b7612ac9565b5b828201905092915050565b60006127ce82612908565b91506127d983612908565b9250826127e9576127e8612af8565b5b828204905092915050565b60006127ff82612908565b915061280a83612908565b9250817fffffffffffffffffffffffffffffffffffffffffffffffffffffffffffffffff048311821515161561284357612842612ac9565b5b828202905092915050565b600061285982612908565b915061286483612908565b92508282101561287757612876612ac9565b5b828203905092915050565b600061288d826128e8565b9050919050565b600061289f826128e8565b9050919050565b60008115159050919050565b6000819050919050565b60007fffffffff0000000000000000000000000000000000000000000000000000000082169050919050565b600073ffffffffffffffffffffffffffffffffffffffff82169050919050565b6000819050919050565b600061291d826126ff565b82612927846126d9565b905061293281612bb4565b925060208210156129725761296d7fffffffffffffffffffffffffffffffffffffffffffffffffffffffffffffffff83602003600802612c0e565b831692505b5050919050565b60005b8381101561299757808201518184015260208101905061297c565b838111156129a6576000848401525b50505050565b600060028204905060018216806129c457607f821691505b602082108114156129d8576129d7612b27565b5b50919050565b6129e782612bf0565b810181811067ffffffffffffffff82111715612a0657612a05612b85565b5b80604052505050565b6000612a1a82612908565b91507fffffffffffffffffffffffffffffffffffffffffffffffffffffffffffffffff821415612a4d57612a4c612ac9565b5b600182019050919050565b6000612a6382612a7c565b9050919050565b6000612a7582612a7c565b9050919050565b6000612a8782612c01565b9050919050565b6000819050919050565b6000612aa382612908565b9150612aae83612908565b925082612abe57612abd612af8565b5b828206905092915050565b7f4e487b7100000000000000000000000000000000000000000000000000000000600052601160045260246000fd5b7f4e487b7100000000000000000000000000000000000000000000000000000000600052601260045260246000fd5b7f4e487b7100000000000000000000000000000000000000000000000000000000600052602260045260246000fd5b7f4e487b7100000000000000000000000000000000000000000000000000000000600052603260045260246000fd5b7f4e487b7100000000000000000000000000000000000000000000000000000000600052604160045260246000fd5b6000612bc082516128b2565b80915050919050565b600060033d1115612be85760046000803e612be5600051612c1b565b90505b90565b600080fd5b6000601f19601f8301169050919050565b60008160601b9050919050565b600082821b905092915050565b60008160e01c9050919050565b7f455243313135353a207472616e7366657220746f206e6f6e204552433131353560008201527f526563656976657220696d706c656d656e746572000000000000000000000000602082015250565b7f455243313135353a204552433131353552656365697665722072656a6563746560008201527f6420746f6b656e73000000000000000000000000000000000000000000000000602082015250565b7f4572726f7221204e6f7420456e6f7567682042616c616e636500000000000000600082015250565b7f4469616d6f6e645f000000000000000000000000000000000000000000000000600082015250565b7f4d696e7420466565204e6f742053657400000000000000000000000000000000600082015250565b7f476f6c645f000000000000000000000000000000000000000000000000000000600082015250565b7f4e6f7420456e6f7567682042616c616e63650000000000000000000000000000600082015250565b7f44726f707369746520697320616c72656164792052756e6e696e670000000000600082015250565b7f44726f707369746520697320616c72656164792053746f707065640000000000600082015250565b7f596f752063616e206d696e7420312d33204e4654730000000000000000000000600082015250565b7f4f6e6c79204e46542d4553204f776e65722063616e2041636365737300000000600082015250565b7f4f776e65722053686f756c6420736574206d696e742046656520466972737400600082015250565b7f44726f7073697465206973206e6f74204f70656e6564205965742e0000000000600082015250565b7f4d6178204d696e74696e67204c696d6974207265616368656400000000000000600082015250565b7f53696c7665725f00000000000000000000000000000000000000000000000000600082015250565b7f455243313135353a206d696e7420746f20746865207a65726f2061646472657360008201527f7300000000000000000000000000000000000000000000000000000000000000602082015250565b600060443d1015612f3a57612fbd565b612f426126af565b60043d036004823e80513d602482011167ffffffffffffffff82111715612f6a575050612fbd565b808201805167ffffffffffffffff811115612f885750505050612fbd565b80602083010160043d038501811115612fa5575050505050612fbd565b612fb4826020018501866129de565b82955050505050505b90565b612fc981612882565b8114612fd457600080fd5b50565b612fe081612894565b8114612feb57600080fd5b50565b612ff7816128bc565b811461300257600080fd5b50565b61300e81612908565b811461301957600080fd5b5056fea2646970667358221220b6060d67c01e694ab18197acbbbfeb74b7b162418c371a08539c846addbd13fa64736f6c63430008070033",
					"opcodes": "PUSH1 0x80 PUSH1 0x40 MSTORE PUSH1 0x40 MLOAD DUP1 PUSH1 0x20 ADD PUSH1 0x40 MSTORE DUP1 PUSH1 0x0 DUP2 MSTORE POP PUSH1 0x2 SWAP1 DUP1 MLOAD SWAP1 PUSH1 0x20 ADD SWAP1 PUSH3 0x2B SWAP3 SWAP2 SWAP1 PUSH3 0x113 JUMP JUMPDEST POP PUSH1 0x32 PUSH1 0x9 SSTORE PUSH1 0x64 PUSH1 0xA SSTORE PUSH2 0x352 PUSH1 0xB SSTORE PUSH1 0x1 PUSH1 0xE PUSH1 0x0 PUSH2 0x100 EXP DUP2 SLOAD DUP2 PUSH1 0xFF MUL NOT AND SWAP1 DUP4 ISZERO ISZERO MUL OR SWAP1 SSTORE POP CALLVALUE DUP1 ISZERO PUSH3 0x64 JUMPI PUSH1 0x0 DUP1 REVERT JUMPDEST POP PUSH1 0x40 MLOAD PUSH3 0x3478 CODESIZE SUB DUP1 PUSH3 0x3478 DUP4 CODECOPY DUP2 DUP2 ADD PUSH1 0x40 MSTORE DUP2 ADD SWAP1 PUSH3 0x8A SWAP2 SWAP1 PUSH3 0x241 JUMP JUMPDEST DUP1 PUSH1 0xF SWAP1 DUP1 MLOAD SWAP1 PUSH1 0x20 ADD SWAP1 PUSH3 0xA2 SWAP3 SWAP2 SWAP1 PUSH3 0x113 JUMP JUMPDEST POP CALLER PUSH1 0xE PUSH1 0x1 PUSH2 0x100 EXP DUP2 SLOAD DUP2 PUSH20 0xFFFFFFFFFFFFFFFFFFFFFFFFFFFFFFFFFFFFFFFF MUL NOT AND SWAP1 DUP4 PUSH20 0xFFFFFFFFFFFFFFFFFFFFFFFFFFFFFFFFFFFFFFFF AND MUL OR SWAP1 SSTORE POP PUSH1 0x0 PUSH1 0x3 DUP2 SWAP1 SSTORE POP PUSH1 0x1 PUSH1 0x4 DUP2 SWAP1 SSTORE POP PUSH1 0x0 PUSH1 0x6 DUP2 SWAP1 SSTORE POP PUSH1 0x0 PUSH1 0x7 DUP2 SWAP1 SSTORE POP PUSH1 0x0 PUSH1 0x8 DUP2 SWAP1 SSTORE POP POP PUSH3 0x416 JUMP JUMPDEST DUP3 DUP1 SLOAD PUSH3 0x121 SWAP1 PUSH3 0x327 JUMP JUMPDEST SWAP1 PUSH1 0x0 MSTORE PUSH1 0x20 PUSH1 0x0 KECCAK256 SWAP1 PUSH1 0x1F ADD PUSH1 0x20 SWAP1 DIV DUP2 ADD SWAP3 DUP3 PUSH3 0x145 JUMPI PUSH1 0x0 DUP6 SSTORE PUSH3 0x191 JUMP JUMPDEST DUP3 PUSH1 0x1F LT PUSH3 0x160 JUMPI DUP1 MLOAD PUSH1 0xFF NOT AND DUP4 DUP1 ADD OR DUP6 SSTORE PUSH3 0x191 JUMP JUMPDEST DUP3 DUP1 ADD PUSH1 0x1 ADD DUP6 SSTORE DUP3 ISZERO PUSH3 0x191 JUMPI SWAP2 DUP3 ADD JUMPDEST DUP3 DUP2 GT ISZERO PUSH3 0x190 JUMPI DUP3 MLOAD DUP3 SSTORE SWAP2 PUSH1 0x20 ADD SWAP2 SWAP1 PUSH1 0x1 ADD SWAP1 PUSH3 0x173 JUMP JUMPDEST JUMPDEST POP SWAP1 POP PUSH3 0x1A0 SWAP2 SWAP1 PUSH3 0x1A4 JUMP JUMPDEST POP SWAP1 JUMP JUMPDEST JUMPDEST DUP1 DUP3 GT ISZERO PUSH3 0x1BF JUMPI PUSH1 0x0 DUP2 PUSH1 0x0 SWAP1 SSTORE POP PUSH1 0x1 ADD PUSH3 0x1A5 JUMP JUMPDEST POP SWAP1 JUMP JUMPDEST PUSH1 0x0 PUSH3 0x1DA PUSH3 0x1D4 DUP5 PUSH3 0x2BB JUMP JUMPDEST PUSH3 0x292 JUMP JUMPDEST SWAP1 POP DUP3 DUP2 MSTORE PUSH1 0x20 DUP2 ADD DUP5 DUP5 DUP5 ADD GT ISZERO PUSH3 0x1F9 JUMPI PUSH3 0x1F8 PUSH3 0x3F6 JUMP JUMPDEST JUMPDEST PUSH3 0x206 DUP5 DUP3 DUP6 PUSH3 0x2F1 JUMP JUMPDEST POP SWAP4 SWAP3 POP POP POP JUMP JUMPDEST PUSH1 0x0 DUP3 PUSH1 0x1F DUP4 ADD SLT PUSH3 0x226 JUMPI PUSH3 0x225 PUSH3 0x3F1 JUMP JUMPDEST JUMPDEST DUP2 MLOAD PUSH3 0x238 DUP5 DUP3 PUSH1 0x20 DUP7 ADD PUSH3 0x1C3 JUMP JUMPDEST SWAP2 POP POP SWAP3 SWAP2 POP POP JUMP JUMPDEST PUSH1 0x0 PUSH1 0x20 DUP3 DUP5 SUB SLT ISZERO PUSH3 0x25A JUMPI PUSH3 0x259 PUSH3 0x400 JUMP JUMPDEST JUMPDEST PUSH1 0x0 DUP3 ADD MLOAD PUSH8 0xFFFFFFFFFFFFFFFF DUP2 GT ISZERO PUSH3 0x27B JUMPI PUSH3 0x27A PUSH3 0x3FB JUMP JUMPDEST JUMPDEST PUSH3 0x289 DUP5 DUP3 DUP6 ADD PUSH3 0x20E JUMP JUMPDEST SWAP2 POP POP SWAP3 SWAP2 POP POP JUMP JUMPDEST PUSH1 0x0 PUSH3 0x29E PUSH3 0x2B1 JUMP JUMPDEST SWAP1 POP PUSH3 0x2AC DUP3 DUP3 PUSH3 0x35D JUMP JUMPDEST SWAP2 SWAP1 POP JUMP JUMPDEST PUSH1 0x0 PUSH1 0x40 MLOAD SWAP1 POP SWAP1 JUMP JUMPDEST PUSH1 0x0 PUSH8 0xFFFFFFFFFFFFFFFF DUP3 GT ISZERO PUSH3 0x2D9 JUMPI PUSH3 0x2D8 PUSH3 0x3C2 JUMP JUMPDEST JUMPDEST PUSH3 0x2E4 DUP3 PUSH3 0x405 JUMP JUMPDEST SWAP1 POP PUSH1 0x20 DUP2 ADD SWAP1 POP SWAP2 SWAP1 POP JUMP JUMPDEST PUSH1 0x0 JUMPDEST DUP4 DUP2 LT ISZERO PUSH3 0x311 JUMPI DUP1 DUP3 ADD MLOAD DUP2 DUP5 ADD MSTORE PUSH1 0x20 DUP2 ADD SWAP1 POP PUSH3 0x2F4 JUMP JUMPDEST DUP4 DUP2 GT ISZERO PUSH3 0x321 JUMPI PUSH1 0x0 DUP5 DUP5 ADD MSTORE JUMPDEST POP POP POP POP JUMP JUMPDEST PUSH1 0x0 PUSH1 0x2 DUP3 DIV SWAP1 POP PUSH1 0x1 DUP3 AND DUP1 PUSH3 0x340 JUMPI PUSH1 0x7F DUP3 AND SWAP2 POP JUMPDEST PUSH1 0x20 DUP3 LT DUP2 EQ ISZERO PUSH3 0x357 JUMPI PUSH3 0x356 PUSH3 0x393 JUMP JUMPDEST JUMPDEST POP SWAP2 SWAP1 POP JUMP JUMPDEST PUSH3 0x368 DUP3 PUSH3 0x405 JUMP JUMPDEST DUP2 ADD DUP2 DUP2 LT PUSH8 0xFFFFFFFFFFFFFFFF DUP3 GT OR ISZERO PUSH3 0x38A JUMPI PUSH3 0x389 PUSH3 0x3C2 JUMP JUMPDEST JUMPDEST DUP1 PUSH1 0x40 MSTORE POP POP POP JUMP JUMPDEST PUSH32 0x4E487B7100000000000000000000000000000000000000000000000000000000 PUSH1 0x0 MSTORE PUSH1 0x22 PUSH1 0x4 MSTORE PUSH1 0x24 PUSH1 0x0 REVERT JUMPDEST PUSH32 0x4E487B7100000000000000000000000000000000000000000000000000000000 PUSH1 0x0 MSTORE PUSH1 0x41 PUSH1 0x4 MSTORE PUSH1 0x24 PUSH1 0x0 REVERT JUMPDEST PUSH1 0x0 DUP1 REVERT JUMPDEST PUSH1 0x0 DUP1 REVERT JUMPDEST PUSH1 0x0 DUP1 REVERT JUMPDEST PUSH1 0x0 DUP1 REVERT JUMPDEST PUSH1 0x0 PUSH1 0x1F NOT PUSH1 0x1F DUP4 ADD AND SWAP1 POP SWAP2 SWAP1 POP JUMP JUMPDEST PUSH2 0x3052 DUP1 PUSH3 0x426 PUSH1 0x0 CODECOPY PUSH1 0x0 RETURN INVALID PUSH1 0x80 PUSH1 0x40 MSTORE PUSH1 0x4 CALLDATASIZE LT PUSH2 0xE8 JUMPI PUSH1 0x0 CALLDATALOAD PUSH1 0xE0 SHR DUP1 PUSH4 0x7A5CAAB3 GT PUSH2 0x8A JUMPI DUP1 PUSH4 0xB187BD26 GT PUSH2 0x59 JUMPI DUP1 PUSH4 0xB187BD26 EQ PUSH2 0x2C5 JUMPI DUP1 PUSH4 0xB4A99A4E EQ PUSH2 0x2F0 JUMPI DUP1 PUSH4 0xB6DB75A0 EQ PUSH2 0x31B JUMPI DUP1 PUSH4 0xEDDD0D9C EQ PUSH2 0x346 JUMPI PUSH2 0xE8 JUMP JUMPDEST DUP1 PUSH4 0x7A5CAAB3 EQ PUSH2 0x22F JUMPI DUP1 PUSH4 0x8B7AFE2E EQ PUSH2 0x25A JUMPI DUP1 PUSH4 0xA6F9DAE1 EQ PUSH2 0x285 JUMPI DUP1 PUSH4 0xAA90C726 EQ PUSH2 0x2AE JUMPI PUSH2 0xE8 JUMP JUMPDEST DUP1 PUSH4 0x225011DA GT PUSH2 0xC6 JUMPI DUP1 PUSH4 0x225011DA EQ PUSH2 0x158 JUMPI DUP1 PUSH4 0x5B27D84E EQ PUSH2 0x195 JUMPI DUP1 PUSH4 0x5E1F0556 EQ PUSH2 0x1C5 JUMPI DUP1 PUSH4 0x60DAA851 EQ PUSH2 0x202 JUMPI PUSH2 0xE8 JUMP JUMPDEST DUP1 PUSH4 0x390C11C EQ PUSH2 0xED JUMPI DUP1 PUSH4 0x15460259 EQ PUSH2 0x118 JUMPI DUP1 PUSH4 0x191E2E83 EQ PUSH2 0x12F JUMPI JUMPDEST PUSH1 0x0 DUP1 REVERT JUMPDEST CALLVALUE DUP1 ISZERO PUSH2 0xF9 JUMPI PUSH1 0x0 DUP1 REVERT JUMPDEST POP PUSH2 0x102 PUSH2 0x36F JUMP JUMPDEST PUSH1 0x40 MLOAD PUSH2 0x10F SWAP2 SWAP1 PUSH2 0x2634 JUMP JUMPDEST PUSH1 0x40 MLOAD DUP1 SWAP2 SUB SWAP1 RETURN JUMPDEST CALLVALUE DUP1 ISZERO PUSH2 0x124 JUMPI PUSH1 0x0 DUP1 REVERT JUMPDEST POP PUSH2 0x12D PUSH2 0x379 JUMP JUMPDEST STOP JUMPDEST CALLVALUE DUP1 ISZERO PUSH2 0x13B JUMPI PUSH1 0x0 DUP1 REVERT JUMPDEST POP PUSH2 0x156 PUSH1 0x4 DUP1 CALLDATASIZE SUB DUP2 ADD SWAP1 PUSH2 0x151 SWAP2 SWAP1 PUSH2 0x1DD8 JUMP JUMPDEST PUSH2 0x483 JUMP JUMPDEST STOP JUMPDEST CALLVALUE DUP1 ISZERO PUSH2 0x164 JUMPI PUSH1 0x0 DUP1 REVERT JUMPDEST POP PUSH2 0x17F PUSH1 0x4 DUP1 CALLDATASIZE SUB DUP2 ADD SWAP1 PUSH2 0x17A SWAP2 SWAP1 PUSH2 0x1DAB JUMP JUMPDEST PUSH2 0x5AD JUMP JUMPDEST PUSH1 0x40 MLOAD PUSH2 0x18C SWAP2 SWAP1 PUSH2 0x2435 JUMP JUMPDEST PUSH1 0x40 MLOAD DUP1 SWAP2 SUB SWAP1 RETURN JUMPDEST PUSH2 0x1AF PUSH1 0x4 DUP1 CALLDATASIZE SUB DUP2 ADD SWAP1 PUSH2 0x1AA SWAP2 SWAP1 PUSH2 0x1E18 JUMP JUMPDEST PUSH2 0x69D JUMP JUMPDEST PUSH1 0x40 MLOAD PUSH2 0x1BC SWAP2 SWAP1 PUSH2 0x2435 JUMP JUMPDEST PUSH1 0x40 MLOAD DUP1 SWAP2 SUB SWAP1 RETURN JUMPDEST CALLVALUE DUP1 ISZERO PUSH2 0x1D1 JUMPI PUSH1 0x0 DUP1 REVERT JUMPDEST POP PUSH2 0x1EC PUSH1 0x4 DUP1 CALLDATASIZE SUB DUP2 ADD SWAP1 PUSH2 0x1E7 SWAP2 SWAP1 PUSH2 0x1E18 JUMP JUMPDEST PUSH2 0x98D JUMP JUMPDEST PUSH1 0x40 MLOAD PUSH2 0x1F9 SWAP2 SWAP1 PUSH2 0x2413 JUMP JUMPDEST PUSH1 0x40 MLOAD DUP1 SWAP2 SUB SWAP1 RETURN JUMPDEST CALLVALUE DUP1 ISZERO PUSH2 0x20E JUMPI PUSH1 0x0 DUP1 REVERT JUMPDEST POP PUSH2 0x217 PUSH2 0xC30 JUMP JUMPDEST PUSH1 0x40 MLOAD PUSH2 0x226 SWAP4 SWAP3 SWAP2 SWAP1 PUSH2 0x2678 JUMP JUMPDEST PUSH1 0x40 MLOAD DUP1 SWAP2 SUB SWAP1 RETURN JUMPDEST CALLVALUE DUP1 ISZERO PUSH2 0x23B JUMPI PUSH1 0x0 DUP1 REVERT JUMPDEST POP PUSH2 0x244 PUSH2 0xD36 JUMP JUMPDEST PUSH1 0x40 MLOAD PUSH2 0x251 SWAP2 SWAP1 PUSH2 0x2634 JUMP JUMPDEST PUSH1 0x40 MLOAD DUP1 SWAP2 SUB SWAP1 RETURN JUMPDEST CALLVALUE DUP1 ISZERO PUSH2 0x266 JUMPI PUSH1 0x0 DUP1 REVERT JUMPDEST POP PUSH2 0x26F PUSH2 0xD40 JUMP JUMPDEST PUSH1 0x40 MLOAD PUSH2 0x27C SWAP2 SWAP1 PUSH2 0x2634 JUMP JUMPDEST PUSH1 0x40 MLOAD DUP1 SWAP2 SUB SWAP1 RETURN JUMPDEST CALLVALUE DUP1 ISZERO PUSH2 0x291 JUMPI PUSH1 0x0 DUP1 REVERT JUMPDEST POP PUSH2 0x2AC PUSH1 0x4 DUP1 CALLDATASIZE SUB DUP2 ADD SWAP1 PUSH2 0x2A7 SWAP2 SWAP1 PUSH2 0x1DAB JUMP JUMPDEST PUSH2 0xDDF JUMP JUMPDEST STOP JUMPDEST CALLVALUE DUP1 ISZERO PUSH2 0x2BA JUMPI PUSH1 0x0 DUP1 REVERT JUMPDEST POP PUSH2 0x2C3 PUSH2 0xF10 JUMP JUMPDEST STOP JUMPDEST CALLVALUE DUP1 ISZERO PUSH2 0x2D1 JUMPI PUSH1 0x0 DUP1 REVERT JUMPDEST POP PUSH2 0x2DA PUSH2 0x101A JUMP JUMPDEST PUSH1 0x40 MLOAD PUSH2 0x2E7 SWAP2 SWAP1 PUSH2 0x2457 JUMP JUMPDEST PUSH1 0x40 MLOAD DUP1 SWAP2 SUB SWAP1 RETURN JUMPDEST CALLVALUE DUP1 ISZERO PUSH2 0x2FC JUMPI PUSH1 0x0 DUP1 REVERT JUMPDEST POP PUSH2 0x305 PUSH2 0x102D JUMP JUMPDEST PUSH1 0x40 MLOAD PUSH2 0x312 SWAP2 SWAP1 PUSH2 0x239E JUMP JUMPDEST PUSH1 0x40 MLOAD DUP1 SWAP2 SUB SWAP1 RETURN JUMPDEST CALLVALUE DUP1 ISZERO PUSH2 0x327 JUMPI PUSH1 0x0 DUP1 REVERT JUMPDEST POP PUSH2 0x330 PUSH2 0x1053 JUMP JUMPDEST PUSH1 0x40 MLOAD PUSH2 0x33D SWAP2 SWAP1 PUSH2 0x2457 JUMP JUMPDEST PUSH1 0x40 MLOAD DUP1 SWAP2 SUB SWAP1 RETURN JUMPDEST CALLVALUE DUP1 ISZERO PUSH2 0x352 JUMPI PUSH1 0x0 DUP1 REVERT JUMPDEST POP PUSH2 0x36D PUSH1 0x4 DUP1 CALLDATASIZE SUB DUP2 ADD SWAP1 PUSH2 0x368 SWAP2 SWAP1 PUSH2 0x1E85 JUMP JUMPDEST PUSH2 0x10BC JUMP JUMPDEST STOP JUMPDEST PUSH1 0x0 PUSH1 0x3 SLOAD SWAP1 POP SWAP1 JUMP JUMPDEST PUSH1 0xE PUSH1 0x1 SWAP1 SLOAD SWAP1 PUSH2 0x100 EXP SWAP1 DIV PUSH20 0xFFFFFFFFFFFFFFFFFFFFFFFFFFFFFFFFFFFFFFFF AND PUSH20 0xFFFFFFFFFFFFFFFFFFFFFFFFFFFFFFFFFFFFFFFF AND PUSH2 0x3BA PUSH2 0x115D JUMP JUMPDEST PUSH20 0xFFFFFFFFFFFFFFFFFFFFFFFFFFFFFFFFFFFFFFFF AND EQ PUSH2 0x410 JUMPI PUSH1 0x40 MLOAD PUSH32 0x8C379A000000000000000000000000000000000000000000000000000000000 DUP2 MSTORE PUSH1 0x4 ADD PUSH2 0x407 SWAP1 PUSH2 0x2594 JUMP JUMPDEST PUSH1 0x40 MLOAD DUP1 SWAP2 SUB SWAP1 REVERT JUMPDEST PUSH1 0x1 ISZERO ISZERO PUSH1 0xE PUSH1 0x0 SWAP1 SLOAD SWAP1 PUSH2 0x100 EXP SWAP1 DIV PUSH1 0xFF AND ISZERO ISZERO EQ PUSH2 0x466 JUMPI PUSH1 0x40 MLOAD PUSH32 0x8C379A000000000000000000000000000000000000000000000000000000000 DUP2 MSTORE PUSH1 0x4 ADD PUSH2 0x45D SWAP1 PUSH2 0x2534 JUMP JUMPDEST PUSH1 0x40 MLOAD DUP1 SWAP2 SUB SWAP1 REVERT JUMPDEST PUSH1 0x0 PUSH1 0xE PUSH1 0x0 PUSH2 0x100 EXP DUP2 SLOAD DUP2 PUSH1 0xFF MUL NOT AND SWAP1 DUP4 ISZERO ISZERO MUL OR SWAP1 SSTORE POP JUMP JUMPDEST PUSH1 0xE PUSH1 0x1 SWAP1 SLOAD SWAP1 PUSH2 0x100 EXP SWAP1 DIV PUSH20 0xFFFFFFFFFFFFFFFFFFFFFFFFFFFFFFFFFFFFFFFF AND PUSH20 0xFFFFFFFFFFFFFFFFFFFFFFFFFFFFFFFFFFFFFFFF AND PUSH2 0x4C4 PUSH2 0x115D JUMP JUMPDEST PUSH20 0xFFFFFFFFFFFFFFFFFFFFFFFFFFFFFFFFFFFFFFFF AND EQ PUSH2 0x51A JUMPI PUSH1 0x40 MLOAD PUSH32 0x8C379A000000000000000000000000000000000000000000000000000000000 DUP2 MSTORE PUSH1 0x4 ADD PUSH2 0x511 SWAP1 PUSH2 0x2594 JUMP JUMPDEST PUSH1 0x40 MLOAD DUP1 SWAP2 SUB SWAP1 REVERT JUMPDEST PUSH1 0x0 SELFBALANCE SWAP1 POP DUP1 DUP3 LT PUSH2 0x561 JUMPI PUSH1 0x40 MLOAD PUSH32 0x8C379A000000000000000000000000000000000000000000000000000000000 DUP2 MSTORE PUSH1 0x4 ADD PUSH2 0x558 SWAP1 PUSH2 0x24D4 JUMP JUMPDEST PUSH1 0x40 MLOAD DUP1 SWAP2 SUB SWAP1 REVERT JUMPDEST DUP3 PUSH20 0xFFFFFFFFFFFFFFFFFFFFFFFFFFFFFFFFFFFFFFFF AND PUSH2 0x8FC DUP4 SWAP1 DUP2 ISZERO MUL SWAP1 PUSH1 0x40 MLOAD PUSH1 0x0 PUSH1 0x40 MLOAD DUP1 DUP4 SUB DUP2 DUP6 DUP9 DUP9 CALL SWAP4 POP POP POP POP ISZERO DUP1 ISZERO PUSH2 0x5A7 JUMPI RETURNDATASIZE PUSH1 0x0 DUP1 RETURNDATACOPY RETURNDATASIZE PUSH1 0x0 REVERT JUMPDEST POP POP POP POP JUMP JUMPDEST PUSH1 0x60 PUSH1 0x0 ISZERO ISZERO PUSH1 0xE PUSH1 0x0 SWAP1 SLOAD SWAP1 PUSH2 0x100 EXP SWAP1 DIV PUSH1 0xFF AND ISZERO ISZERO EQ PUSH2 0x605 JUMPI PUSH1 0x40 MLOAD PUSH32 0x8C379A000000000000000000000000000000000000000000000000000000000 DUP2 MSTORE PUSH1 0x4 ADD PUSH2 0x5FC SWAP1 PUSH2 0x25D4 JUMP JUMPDEST PUSH1 0x40 MLOAD DUP1 SWAP2 SUB SWAP1 REVERT JUMPDEST PUSH1 0xC PUSH1 0x0 DUP4 PUSH20 0xFFFFFFFFFFFFFFFFFFFFFFFFFFFFFFFFFFFFFFFF AND PUSH20 0xFFFFFFFFFFFFFFFFFFFFFFFFFFFFFFFFFFFFFFFF AND DUP2 MSTORE PUSH1 0x20 ADD SWAP1 DUP2 MSTORE PUSH1 0x20 ADD PUSH1 0x0 KECCAK256 PUSH1 0x0 ADD DUP1 SLOAD DUP1 PUSH1 0x20 MUL PUSH1 0x20 ADD PUSH1 0x40 MLOAD SWAP1 DUP2 ADD PUSH1 0x40 MSTORE DUP1 SWAP3 SWAP2 SWAP1 DUP2 DUP2 MSTORE PUSH1 0x20 ADD DUP3 DUP1 SLOAD DUP1 ISZERO PUSH2 0x691 JUMPI PUSH1 0x20 MUL DUP3 ADD SWAP2 SWAP1 PUSH1 0x0 MSTORE PUSH1 0x20 PUSH1 0x0 KECCAK256 SWAP1 JUMPDEST DUP2 SLOAD DUP2 MSTORE PUSH1 0x20 ADD SWAP1 PUSH1 0x1 ADD SWAP1 DUP1 DUP4 GT PUSH2 0x67D JUMPI JUMPDEST POP POP POP POP POP SWAP1 POP SWAP2 SWAP1 POP JUMP JUMPDEST PUSH1 0x60 PUSH1 0x0 ISZERO ISZERO PUSH1 0xE PUSH1 0x0 SWAP1 SLOAD SWAP1 PUSH2 0x100 EXP SWAP1 DIV PUSH1 0xFF AND ISZERO ISZERO EQ PUSH2 0x6F5 JUMPI PUSH1 0x40 MLOAD PUSH32 0x8C379A000000000000000000000000000000000000000000000000000000000 DUP2 MSTORE PUSH1 0x4 ADD PUSH2 0x6EC SWAP1 PUSH2 0x25D4 JUMP JUMPDEST PUSH1 0x40 MLOAD DUP1 SWAP2 SUB SWAP1 REVERT JUMPDEST PUSH1 0x0 PUSH1 0x5 SLOAD EQ ISZERO PUSH2 0x73B JUMPI PUSH1 0x40 MLOAD PUSH32 0x8C379A000000000000000000000000000000000000000000000000000000000 DUP2 MSTORE PUSH1 0x4 ADD PUSH2 0x732 SWAP1 PUSH2 0x25B4 JUMP JUMPDEST PUSH1 0x40 MLOAD DUP1 SWAP2 SUB SWAP1 REVERT JUMPDEST PUSH1 0x4 DUP3 LT DUP1 ISZERO PUSH2 0x74B JUMPI POP PUSH1 0x0 DUP3 GT JUMPDEST PUSH2 0x78A JUMPI PUSH1 0x40 MLOAD PUSH32 0x8C379A000000000000000000000000000000000000000000000000000000000 DUP2 MSTORE PUSH1 0x4 ADD PUSH2 0x781 SWAP1 PUSH2 0x2574 JUMP JUMPDEST PUSH1 0x40 MLOAD DUP1 SWAP2 SUB SWAP1 REVERT JUMPDEST PUSH2 0x3E8 PUSH1 0x3 SLOAD LT PUSH2 0x7D0 JUMPI PUSH1 0x40 MLOAD PUSH32 0x8C379A000000000000000000000000000000000000000000000000000000000 DUP2 MSTORE PUSH1 0x4 ADD PUSH2 0x7C7 SWAP1 PUSH2 0x25F4 JUMP JUMPDEST PUSH1 0x40 MLOAD DUP1 SWAP2 SUB SWAP1 REVERT JUMPDEST PUSH1 0x0 PUSH1 0x5 SLOAD EQ ISZERO PUSH2 0x816 JUMPI PUSH1 0x40 MLOAD PUSH32 0x8C379A000000000000000000000000000000000000000000000000000000000 DUP2 MSTORE PUSH1 0x4 ADD PUSH2 0x80D SWAP1 PUSH2 0x24F4 JUMP JUMPDEST PUSH1 0x40 MLOAD DUP1 SWAP2 SUB SWAP1 REVERT JUMPDEST DUP2 PUSH1 0x5 SLOAD PUSH2 0x824 SWAP2 SWAP1 PUSH2 0x27F4 JUMP JUMPDEST CALLVALUE EQ PUSH2 0x865 JUMPI PUSH1 0x40 MLOAD PUSH32 0x8C379A000000000000000000000000000000000000000000000000000000000 DUP2 MSTORE PUSH1 0x4 ADD PUSH2 0x85C SWAP1 PUSH2 0x2514 JUMP JUMPDEST PUSH1 0x40 MLOAD DUP1 SWAP2 SUB SWAP1 REVERT JUMPDEST PUSH1 0x0 PUSH1 0x60 DUP1 PUSH1 0x0 JUMPDEST DUP6 DUP2 LT ISZERO PUSH2 0x8DF JUMPI PUSH2 0x87E DUP8 PUSH2 0x1165 JUMP JUMPDEST DUP1 SWAP5 POP DUP2 SWAP6 POP POP POP PUSH2 0x88F DUP5 PUSH2 0x138B JUMP JUMPDEST DUP4 PUSH1 0x40 MLOAD PUSH1 0x20 ADD PUSH2 0x8A1 SWAP3 SWAP2 SWAP1 PUSH2 0x22D7 JUMP JUMPDEST PUSH1 0x40 MLOAD PUSH1 0x20 DUP2 DUP4 SUB SUB DUP2 MSTORE SWAP1 PUSH1 0x40 MSTORE DUP3 DUP3 DUP2 MLOAD DUP2 LT PUSH2 0x8C3 JUMPI PUSH2 0x8C2 PUSH2 0x2B56 JUMP JUMPDEST JUMPDEST PUSH1 0x20 MUL PUSH1 0x20 ADD ADD DUP2 SWAP1 MSTORE POP DUP1 PUSH2 0x8D8 SWAP1 PUSH2 0x2A0F JUMP JUMPDEST SWAP1 POP PUSH2 0x86D JUMP JUMPDEST POP PUSH2 0x8F1 PUSH2 0x8EB PUSH2 0x115D JUMP JUMPDEST CALLVALUE PUSH2 0x14EC JUMP JUMPDEST PUSH1 0xC PUSH1 0x0 DUP8 PUSH20 0xFFFFFFFFFFFFFFFFFFFFFFFFFFFFFFFFFFFFFFFF AND PUSH20 0xFFFFFFFFFFFFFFFFFFFFFFFFFFFFFFFFFFFFFFFF AND DUP2 MSTORE PUSH1 0x20 ADD SWAP1 DUP2 MSTORE PUSH1 0x20 ADD PUSH1 0x0 KECCAK256 PUSH1 0x0 ADD DUP1 SLOAD DUP1 PUSH1 0x20 MUL PUSH1 0x20 ADD PUSH1 0x40 MLOAD SWAP1 DUP2 ADD PUSH1 0x40 MSTORE DUP1 SWAP3 SWAP2 SWAP1 DUP2 DUP2 MSTORE PUSH1 0x20 ADD DUP3 DUP1 SLOAD DUP1 ISZERO PUSH2 0x97D JUMPI PUSH1 0x20 MUL DUP3 ADD SWAP2 SWAP1 PUSH1 0x0 MSTORE PUSH1 0x20 PUSH1 0x0 KECCAK256 SWAP1 JUMPDEST DUP2 SLOAD DUP2 MSTORE PUSH1 0x20 ADD SWAP1 PUSH1 0x1 ADD SWAP1 DUP1 DUP4 GT PUSH2 0x969 JUMPI JUMPDEST POP POP POP POP POP SWAP4 POP POP POP POP SWAP3 SWAP2 POP POP JUMP JUMPDEST PUSH1 0x60 PUSH1 0xE PUSH1 0x1 SWAP1 SLOAD SWAP1 PUSH2 0x100 EXP SWAP1 DIV PUSH20 0xFFFFFFFFFFFFFFFFFFFFFFFFFFFFFFFFFFFFFFFF AND PUSH20 0xFFFFFFFFFFFFFFFFFFFFFFFFFFFFFFFFFFFFFFFF AND PUSH2 0x9D0 PUSH2 0x115D JUMP JUMPDEST PUSH20 0xFFFFFFFFFFFFFFFFFFFFFFFFFFFFFFFFFFFFFFFF AND EQ PUSH2 0xA26 JUMPI PUSH1 0x40 MLOAD PUSH32 0x8C379A000000000000000000000000000000000000000000000000000000000 DUP2 MSTORE PUSH1 0x4 ADD PUSH2 0xA1D SWAP1 PUSH2 0x2594 JUMP JUMPDEST PUSH1 0x40 MLOAD DUP1 SWAP2 SUB SWAP1 REVERT JUMPDEST PUSH1 0x0 ISZERO ISZERO PUSH1 0xE PUSH1 0x0 SWAP1 SLOAD SWAP1 PUSH2 0x100 EXP SWAP1 DIV PUSH1 0xFF AND ISZERO ISZERO EQ PUSH2 0xA7C JUMPI PUSH1 0x40 MLOAD PUSH32 0x8C379A000000000000000000000000000000000000000000000000000000000 DUP2 MSTORE PUSH1 0x4 ADD PUSH2 0xA73 SWAP1 PUSH2 0x25D4 JUMP JUMPDEST PUSH1 0x40 MLOAD DUP1 SWAP2 SUB SWAP1 REVERT JUMPDEST PUSH1 0x0 PUSH1 0x5 SLOAD EQ ISZERO PUSH2 0xAC2 JUMPI PUSH1 0x40 MLOAD PUSH32 0x8C379A000000000000000000000000000000000000000000000000000000000 DUP2 MSTORE PUSH1 0x4 ADD PUSH2 0xAB9 SWAP1 PUSH2 0x25B4 JUMP JUMPDEST PUSH1 0x40 MLOAD DUP1 SWAP2 SUB SWAP1 REVERT JUMPDEST PUSH1 0x4 DUP3 LT DUP1 ISZERO PUSH2 0xAD2 JUMPI POP PUSH1 0x0 DUP3 GT JUMPDEST PUSH2 0xB11 JUMPI PUSH1 0x40 MLOAD PUSH32 0x8C379A000000000000000000000000000000000000000000000000000000000 DUP2 MSTORE PUSH1 0x4 ADD PUSH2 0xB08 SWAP1 PUSH2 0x2574 JUMP JUMPDEST PUSH1 0x40 MLOAD DUP1 SWAP2 SUB SWAP1 REVERT JUMPDEST PUSH2 0x3E8 PUSH1 0x3 SLOAD LT PUSH2 0xB57 JUMPI PUSH1 0x40 MLOAD PUSH32 0x8C379A000000000000000000000000000000000000000000000000000000000 DUP2 MSTORE PUSH1 0x4 ADD PUSH2 0xB4E SWAP1 PUSH2 0x25F4 JUMP JUMPDEST PUSH1 0x40 MLOAD DUP1 SWAP2 SUB SWAP1 REVERT JUMPDEST PUSH1 0x0 PUSH1 0x5 SLOAD EQ ISZERO PUSH2 0xB9D JUMPI PUSH1 0x40 MLOAD PUSH32 0x8C379A000000000000000000000000000000000000000000000000000000000 DUP2 MSTORE PUSH1 0x4 ADD PUSH2 0xB94 SWAP1 PUSH2 0x24F4 JUMP JUMPDEST PUSH1 0x40 MLOAD DUP1 SWAP2 SUB SWAP1 REVERT JUMPDEST PUSH1 0x0 PUSH1 0x60 DUP1 PUSH1 0x0 JUMPDEST DUP6 DUP2 LT ISZERO PUSH2 0xC23 JUMPI PUSH2 0xBB6 DUP8 PUSH2 0x1165 JUMP JUMPDEST DUP1 SWAP5 POP DUP2 SWAP6 POP POP POP PUSH2 0xBC7 DUP5 PUSH2 0x138B JUMP JUMPDEST DUP4 PUSH1 0x40 MLOAD PUSH1 0x20 ADD PUSH2 0xBD9 SWAP3 SWAP2 SWAP1 PUSH2 0x22D7 JUMP JUMPDEST PUSH1 0x40 MLOAD PUSH1 0x20 DUP2 DUP4 SUB SUB DUP2 MSTORE SWAP1 PUSH1 0x40 MSTORE PUSH2 0xBF1 SWAP1 PUSH2 0x2912 JUMP JUMPDEST DUP3 DUP3 DUP2 MLOAD DUP2 LT PUSH2 0xC04 JUMPI PUSH2 0xC03 PUSH2 0x2B56 JUMP JUMPDEST JUMPDEST PUSH1 0x20 MUL PUSH1 0x20 ADD ADD DUP2 DUP2 MSTORE POP POP DUP1 DUP1 PUSH2 0xC1B SWAP1 PUSH2 0x2A0F JUMP JUMPDEST SWAP2 POP POP PUSH2 0xBA5 JUMP JUMPDEST POP DUP1 SWAP4 POP POP POP POP SWAP3 SWAP2 POP POP JUMP JUMPDEST PUSH1 0x0 DUP1 PUSH1 0x0 PUSH1 0xE PUSH1 0x1 SWAP1 SLOAD SWAP1 PUSH2 0x100 EXP SWAP1 DIV PUSH20 0xFFFFFFFFFFFFFFFFFFFFFFFFFFFFFFFFFFFFFFFF AND PUSH20 0xFFFFFFFFFFFFFFFFFFFFFFFFFFFFFFFFFFFFFFFF AND PUSH2 0xC76 PUSH2 0x115D JUMP JUMPDEST PUSH20 0xFFFFFFFFFFFFFFFFFFFFFFFFFFFFFFFFFFFFFFFF AND EQ PUSH2 0xCCC JUMPI PUSH1 0x40 MLOAD PUSH32 0x8C379A000000000000000000000000000000000000000000000000000000000 DUP2 MSTORE PUSH1 0x4 ADD PUSH2 0xCC3 SWAP1 PUSH2 0x2594 JUMP JUMPDEST PUSH1 0x40 MLOAD DUP1 SWAP2 SUB SWAP1 REVERT JUMPDEST PUSH1 0x0 ISZERO ISZERO PUSH1 0xE PUSH1 0x0 SWAP1 SLOAD SWAP1 PUSH2 0x100 EXP SWAP1 DIV PUSH1 0xFF AND ISZERO ISZERO EQ PUSH2 0xD22 JUMPI PUSH1 0x40 MLOAD PUSH32 0x8C379A000000000000000000000000000000000000000000000000000000000 DUP2 MSTORE PUSH1 0x4 ADD PUSH2 0xD19 SWAP1 PUSH2 0x25D4 JUMP JUMPDEST PUSH1 0x40 MLOAD DUP1 SWAP2 SUB SWAP1 REVERT JUMPDEST PUSH1 0x6 SLOAD PUSH1 0x7 SLOAD PUSH1 0x8 SLOAD SWAP3 POP SWAP3 POP SWAP3 POP SWAP1 SWAP2 SWAP3 JUMP JUMPDEST PUSH1 0x0 PUSH1 0x5 SLOAD SWAP1 POP SWAP1 JUMP JUMPDEST PUSH1 0x0 PUSH1 0xE PUSH1 0x1 SWAP1 SLOAD SWAP1 PUSH2 0x100 EXP SWAP1 DIV PUSH20 0xFFFFFFFFFFFFFFFFFFFFFFFFFFFFFFFFFFFFFFFF AND PUSH20 0xFFFFFFFFFFFFFFFFFFFFFFFFFFFFFFFFFFFFFFFF AND PUSH2 0xD83 PUSH2 0x115D JUMP JUMPDEST PUSH20 0xFFFFFFFFFFFFFFFFFFFFFFFFFFFFFFFFFFFFFFFF AND EQ PUSH2 0xDD9 JUMPI PUSH1 0x40 MLOAD PUSH32 0x8C379A000000000000000000000000000000000000000000000000000000000 DUP2 MSTORE PUSH1 0x4 ADD PUSH2 0xDD0 SWAP1 PUSH2 0x2594 JUMP JUMPDEST PUSH1 0x40 MLOAD DUP1 SWAP2 SUB SWAP1 REVERT JUMPDEST SELFBALANCE SWAP1 POP SWAP1 JUMP JUMPDEST PUSH1 0xE PUSH1 0x1 SWAP1 SLOAD SWAP1 PUSH2 0x100 EXP SWAP1 DIV PUSH20 0xFFFFFFFFFFFFFFFFFFFFFFFFFFFFFFFFFFFFFFFF AND PUSH20 0xFFFFFFFFFFFFFFFFFFFFFFFFFFFFFFFFFFFFFFFF AND PUSH2 0xE20 PUSH2 0x115D JUMP JUMPDEST PUSH20 0xFFFFFFFFFFFFFFFFFFFFFFFFFFFFFFFFFFFFFFFF AND EQ PUSH2 0xE76 JUMPI PUSH1 0x40 MLOAD PUSH32 0x8C379A000000000000000000000000000000000000000000000000000000000 DUP2 MSTORE PUSH1 0x4 ADD PUSH2 0xE6D SWAP1 PUSH2 0x2594 JUMP JUMPDEST PUSH1 0x40 MLOAD DUP1 SWAP2 SUB SWAP1 REVERT JUMPDEST PUSH1 0x0 ISZERO ISZERO PUSH1 0xE PUSH1 0x0 SWAP1 SLOAD SWAP1 PUSH2 0x100 EXP SWAP1 DIV PUSH1 0xFF AND ISZERO ISZERO EQ PUSH2 0xECC JUMPI PUSH1 0x40 MLOAD PUSH32 0x8C379A000000000000000000000000000000000000000000000000000000000 DUP2 MSTORE PUSH1 0x4 ADD PUSH2 0xEC3 SWAP1 PUSH2 0x25D4 JUMP JUMPDEST PUSH1 0x40 MLOAD DUP1 SWAP2 SUB SWAP1 REVERT JUMPDEST DUP1 PUSH1 0xE PUSH1 0x1 PUSH2 0x100 EXP DUP2 SLOAD DUP2 PUSH20 0xFFFFFFFFFFFFFFFFFFFFFFFFFFFFFFFFFFFFFFFF MUL NOT AND SWAP1 DUP4 PUSH20 0xFFFFFFFFFFFFFFFFFFFFFFFFFFFFFFFFFFFFFFFF AND MUL OR SWAP1 SSTORE POP POP JUMP JUMPDEST PUSH1 0xE PUSH1 0x1 SWAP1 SLOAD SWAP1 PUSH2 0x100 EXP SWAP1 DIV PUSH20 0xFFFFFFFFFFFFFFFFFFFFFFFFFFFFFFFFFFFFFFFF AND PUSH20 0xFFFFFFFFFFFFFFFFFFFFFFFFFFFFFFFFFFFFFFFF AND PUSH2 0xF51 PUSH2 0x115D JUMP JUMPDEST PUSH20 0xFFFFFFFFFFFFFFFFFFFFFFFFFFFFFFFFFFFFFFFF AND EQ PUSH2 0xFA7 JUMPI PUSH1 0x40 MLOAD PUSH32 0x8C379A000000000000000000000000000000000000000000000000000000000 DUP2 MSTORE PUSH1 0x4 ADD PUSH2 0xF9E SWAP1 PUSH2 0x2594 JUMP JUMPDEST PUSH1 0x40 MLOAD DUP1 SWAP2 SUB SWAP1 REVERT JUMPDEST PUSH1 0x0 ISZERO ISZERO PUSH1 0xE PUSH1 0x0 SWAP1 SLOAD SWAP1 PUSH2 0x100 EXP SWAP1 DIV PUSH1 0xFF AND ISZERO ISZERO EQ PUSH2 0xFFD JUMPI PUSH1 0x40 MLOAD PUSH32 0x8C379A000000000000000000000000000000000000000000000000000000000 DUP2 MSTORE PUSH1 0x4 ADD PUSH2 0xFF4 SWAP1 PUSH2 0x2554 JUMP JUMPDEST PUSH1 0x40 MLOAD DUP1 SWAP2 SUB SWAP1 REVERT JUMPDEST PUSH1 0x1 PUSH1 0xE PUSH1 0x0 PUSH2 0x100 EXP DUP2 SLOAD DUP2 PUSH1 0xFF MUL NOT AND SWAP1 DUP4 ISZERO ISZERO MUL OR SWAP1 SSTORE POP JUMP JUMPDEST PUSH1 0xE PUSH1 0x0 SWAP1 SLOAD SWAP1 PUSH2 0x100 EXP SWAP1 DIV PUSH1 0xFF AND DUP2 JUMP JUMPDEST PUSH1 0xE PUSH1 0x1 SWAP1 SLOAD SWAP1 PUSH2 0x100 EXP SWAP1 DIV PUSH20 0xFFFFFFFFFFFFFFFFFFFFFFFFFFFFFFFFFFFFFFFF AND DUP2 JUMP JUMPDEST PUSH1 0x0 PUSH1 0xE PUSH1 0x1 SWAP1 SLOAD SWAP1 PUSH2 0x100 EXP SWAP1 DIV PUSH20 0xFFFFFFFFFFFFFFFFFFFFFFFFFFFFFFFFFFFFFFFF AND PUSH20 0xFFFFFFFFFFFFFFFFFFFFFFFFFFFFFFFFFFFFFFFF AND CALLER PUSH20 0xFFFFFFFFFFFFFFFFFFFFFFFFFFFFFFFFFFFFFFFF AND EQ ISZERO PUSH2 0x10B4 JUMPI PUSH1 0x1 SWAP1 POP PUSH2 0x10B9 JUMP JUMPDEST PUSH1 0x0 SWAP1 POP JUMPDEST SWAP1 JUMP JUMPDEST PUSH1 0xE PUSH1 0x1 SWAP1 SLOAD SWAP1 PUSH2 0x100 EXP SWAP1 DIV PUSH20 0xFFFFFFFFFFFFFFFFFFFFFFFFFFFFFFFFFFFFFFFF AND PUSH20 0xFFFFFFFFFFFFFFFFFFFFFFFFFFFFFFFFFFFFFFFF AND PUSH2 0x10FD PUSH2 0x115D JUMP JUMPDEST PUSH20 0xFFFFFFFFFFFFFFFFFFFFFFFFFFFFFFFFFFFFFFFF AND EQ PUSH2 0x1153 JUMPI PUSH1 0x40 MLOAD PUSH32 0x8C379A000000000000000000000000000000000000000000000000000000000 DUP2 MSTORE PUSH1 0x4 ADD PUSH2 0x114A SWAP1 PUSH2 0x2594 JUMP JUMPDEST PUSH1 0x40 MLOAD DUP1 SWAP2 SUB SWAP1 REVERT JUMPDEST DUP1 PUSH1 0x5 DUP2 SWAP1 SSTORE POP POP JUMP JUMPDEST PUSH1 0x0 CALLER SWAP1 POP SWAP1 JUMP JUMPDEST PUSH1 0x0 PUSH1 0x60 PUSH1 0x0 ISZERO ISZERO PUSH1 0xE PUSH1 0x0 SWAP1 SLOAD SWAP1 PUSH2 0x100 EXP SWAP1 DIV PUSH1 0xFF AND ISZERO ISZERO EQ PUSH2 0x11BF JUMPI PUSH1 0x40 MLOAD PUSH32 0x8C379A000000000000000000000000000000000000000000000000000000000 DUP2 MSTORE PUSH1 0x4 ADD PUSH2 0x11B6 SWAP1 PUSH2 0x25D4 JUMP JUMPDEST PUSH1 0x40 MLOAD DUP1 SWAP2 SUB SWAP1 REVERT JUMPDEST PUSH1 0x0 PUSH2 0x11C9 PUSH2 0x1546 JUMP JUMPDEST SWAP1 POP PUSH1 0x0 PUSH2 0x11D6 DUP3 PUSH2 0x15D6 JUMP JUMPDEST SWAP1 POP PUSH2 0x1270 DUP6 DUP3 PUSH1 0x4 SLOAD PUSH1 0x2 DUP1 SLOAD PUSH2 0x11ED SWAP1 PUSH2 0x29AC JUMP JUMPDEST DUP1 PUSH1 0x1F ADD PUSH1 0x20 DUP1 SWAP2 DIV MUL PUSH1 0x20 ADD PUSH1 0x40 MLOAD SWAP1 DUP2 ADD PUSH1 0x40 MSTORE DUP1 SWAP3 SWAP2 SWAP1 DUP2 DUP2 MSTORE PUSH1 0x20 ADD DUP3 DUP1 SLOAD PUSH2 0x1219 SWAP1 PUSH2 0x29AC JUMP JUMPDEST DUP1 ISZERO PUSH2 0x1266 JUMPI DUP1 PUSH1 0x1F LT PUSH2 0x123B JUMPI PUSH2 0x100 DUP1 DUP4 SLOAD DIV MUL DUP4 MSTORE SWAP2 PUSH1 0x20 ADD SWAP2 PUSH2 0x1266 JUMP JUMPDEST DUP3 ADD SWAP2 SWAP1 PUSH1 0x0 MSTORE PUSH1 0x20 PUSH1 0x0 KECCAK256 SWAP1 JUMPDEST DUP2 SLOAD DUP2 MSTORE SWAP1 PUSH1 0x1 ADD SWAP1 PUSH1 0x20 ADD DUP1 DUP4 GT PUSH2 0x1249 JUMPI DUP3 SWAP1 SUB PUSH1 0x1F AND DUP3 ADD SWAP2 JUMPDEST POP POP POP POP POP PUSH2 0x18A2 JUMP JUMPDEST PUSH1 0x3 PUSH1 0x0 DUP2 SLOAD DUP1 SWAP3 SWAP2 SWAP1 PUSH2 0x1283 SWAP1 PUSH2 0x2A0F JUMP JUMPDEST SWAP2 SWAP1 POP SSTORE POP PUSH1 0xC PUSH1 0x0 DUP7 PUSH20 0xFFFFFFFFFFFFFFFFFFFFFFFFFFFFFFFFFFFFFFFF AND PUSH20 0xFFFFFFFFFFFFFFFFFFFFFFFFFFFFFFFFFFFFFFFF AND DUP2 MSTORE PUSH1 0x20 ADD SWAP1 DUP2 MSTORE PUSH1 0x20 ADD PUSH1 0x0 KECCAK256 PUSH1 0x0 ADD DUP2 SWAP1 DUP1 PUSH1 0x1 DUP2 SLOAD ADD DUP1 DUP3 SSTORE DUP1 SWAP2 POP POP PUSH1 0x1 SWAP1 SUB SWAP1 PUSH1 0x0 MSTORE PUSH1 0x20 PUSH1 0x0 KECCAK256 ADD PUSH1 0x0 SWAP1 SWAP2 SWAP1 SWAP2 SWAP1 SWAP2 POP SSTORE DUP1 PUSH1 0x2 DUP1 DUP1 SLOAD PUSH2 0x1300 SWAP1 PUSH2 0x29AC JUMP JUMPDEST DUP1 PUSH1 0x1F ADD PUSH1 0x20 DUP1 SWAP2 DIV MUL PUSH1 0x20 ADD PUSH1 0x40 MLOAD SWAP1 DUP2 ADD PUSH1 0x40 MSTORE DUP1 SWAP3 SWAP2 SWAP1 DUP2 DUP2 MSTORE PUSH1 0x20 ADD DUP3 DUP1 SLOAD PUSH2 0x132C SWAP1 PUSH2 0x29AC JUMP JUMPDEST DUP1 ISZERO PUSH2 0x1379 JUMPI DUP1 PUSH1 0x1F LT PUSH2 0x134E JUMPI PUSH2 0x100 DUP1 DUP4 SLOAD DIV MUL DUP4 MSTORE SWAP2 PUSH1 0x20 ADD SWAP2 PUSH2 0x1379 JUMP JUMPDEST DUP3 ADD SWAP2 SWAP1 PUSH1 0x0 MSTORE PUSH1 0x20 PUSH1 0x0 KECCAK256 SWAP1 JUMPDEST DUP2 SLOAD DUP2 MSTORE SWAP1 PUSH1 0x1 ADD SWAP1 PUSH1 0x20 ADD DUP1 DUP4 GT PUSH2 0x135C JUMPI DUP3 SWAP1 SUB PUSH1 0x1F AND DUP3 ADD SWAP2 JUMPDEST POP POP POP POP POP SWAP1 POP SWAP4 POP SWAP4 POP POP POP SWAP2 POP SWAP2 JUMP JUMPDEST PUSH1 0x60 PUSH1 0x0 DUP3 EQ ISZERO PUSH2 0x13D3 JUMPI PUSH1 0x40 MLOAD DUP1 PUSH1 0x40 ADD PUSH1 0x40 MSTORE DUP1 PUSH1 0x1 DUP2 MSTORE PUSH1 0x20 ADD PUSH32 0x3000000000000000000000000000000000000000000000000000000000000000 DUP2 MSTORE POP SWAP1 POP PUSH2 0x14E7 JUMP JUMPDEST PUSH1 0x0 DUP3 SWAP1 POP PUSH1 0x0 JUMPDEST PUSH1 0x0 DUP3 EQ PUSH2 0x1405 JUMPI DUP1 DUP1 PUSH2 0x13EE SWAP1 PUSH2 0x2A0F JUMP JUMPDEST SWAP2 POP POP PUSH1 0xA DUP3 PUSH2 0x13FE SWAP2 SWAP1 PUSH2 0x27C3 JUMP JUMPDEST SWAP2 POP PUSH2 0x13DB JUMP JUMPDEST PUSH1 0x0 DUP2 PUSH8 0xFFFFFFFFFFFFFFFF DUP2 GT ISZERO PUSH2 0x1421 JUMPI PUSH2 0x1420 PUSH2 0x2B85 JUMP JUMPDEST JUMPDEST PUSH1 0x40 MLOAD SWAP1 DUP1 DUP3 MSTORE DUP1 PUSH1 0x1F ADD PUSH1 0x1F NOT AND PUSH1 0x20 ADD DUP3 ADD PUSH1 0x40 MSTORE DUP1 ISZERO PUSH2 0x1453 JUMPI DUP2 PUSH1 0x20 ADD PUSH1 0x1 DUP3 MUL DUP1 CALLDATASIZE DUP4 CALLDATACOPY DUP1 DUP3 ADD SWAP2 POP POP SWAP1 POP JUMPDEST POP SWAP1 POP JUMPDEST PUSH1 0x0 DUP6 EQ PUSH2 0x14E0 JUMPI PUSH1 0x1 DUP3 PUSH2 0x146C SWAP2 SWAP1 PUSH2 0x284E JUMP JUMPDEST SWAP2 POP PUSH1 0xA DUP6 PUSH2 0x147B SWAP2 SWAP1 PUSH2 0x2A98 JUMP JUMPDEST PUSH1 0x30 PUSH2 0x1487 SWAP2 SWAP1 PUSH2 0x276D JUMP JUMPDEST PUSH1 0xF8 SHL DUP2 DUP4 DUP2 MLOAD DUP2 LT PUSH2 0x149D JUMPI PUSH2 0x149C PUSH2 0x2B56 JUMP JUMPDEST JUMPDEST PUSH1 0x20 ADD ADD SWAP1 PUSH31 0xFFFFFFFFFFFFFFFFFFFFFFFFFFFFFFFFFFFFFFFFFFFFFFFFFFFFFFFFFFFFFF NOT AND SWAP1 DUP2 PUSH1 0x0 BYTE SWAP1 MSTORE8 POP PUSH1 0xA DUP6 PUSH2 0x14D9 SWAP2 SWAP1 PUSH2 0x27C3 JUMP JUMPDEST SWAP5 POP PUSH2 0x1457 JUMP JUMPDEST DUP1 SWAP4 POP POP POP POP JUMPDEST SWAP2 SWAP1 POP JUMP JUMPDEST DUP1 PUSH1 0xD PUSH1 0x0 DUP5 PUSH20 0xFFFFFFFFFFFFFFFFFFFFFFFFFFFFFFFFFFFFFFFF AND PUSH20 0xFFFFFFFFFFFFFFFFFFFFFFFFFFFFFFFFFFFFFFFF AND DUP2 MSTORE PUSH1 0x20 ADD SWAP1 DUP2 MSTORE PUSH1 0x20 ADD PUSH1 0x0 KECCAK256 PUSH1 0x0 DUP3 DUP3 SLOAD PUSH2 0x153B SWAP2 SWAP1 PUSH2 0x276D JUMP JUMPDEST SWAP3 POP POP DUP2 SWAP1 SSTORE POP POP POP JUMP JUMPDEST PUSH1 0x0 DUP1 PUSH1 0x6 SLOAD PUSH1 0x7 SLOAD PUSH1 0x8 SLOAD PUSH1 0x3 SLOAD TIMESTAMP PUSH2 0x1560 SWAP2 SWAP1 PUSH2 0x276D JUMP JUMPDEST PUSH2 0x156A SWAP2 SWAP1 PUSH2 0x276D JUMP JUMPDEST PUSH2 0x1574 SWAP2 SWAP1 PUSH2 0x276D JUMP JUMPDEST PUSH2 0x157E SWAP2 SWAP1 PUSH2 0x276D JUMP JUMPDEST CALLER PUSH1 0xE PUSH1 0x1 SWAP1 SLOAD SWAP1 PUSH2 0x100 EXP SWAP1 DIV PUSH20 0xFFFFFFFFFFFFFFFFFFFFFFFFFFFFFFFFFFFFFFFF AND PUSH1 0x40 MLOAD PUSH1 0x20 ADD PUSH2 0x15B4 SWAP4 SWAP3 SWAP2 SWAP1 PUSH2 0x2361 JUMP JUMPDEST PUSH1 0x40 MLOAD PUSH1 0x20 DUP2 DUP4 SUB SUB DUP2 MSTORE SWAP1 PUSH1 0x40 MSTORE DUP1 MLOAD SWAP1 PUSH1 0x20 ADD KECCAK256 PUSH1 0x0 SHR SWAP1 POP DUP1 SWAP2 POP POP SWAP1 JUMP JUMPDEST PUSH1 0x0 DUP1 ISZERO ISZERO PUSH1 0xE PUSH1 0x0 SWAP1 SLOAD SWAP1 PUSH2 0x100 EXP SWAP1 DIV PUSH1 0xFF AND ISZERO ISZERO EQ PUSH2 0x162D JUMPI PUSH1 0x40 MLOAD PUSH32 0x8C379A000000000000000000000000000000000000000000000000000000000 DUP2 MSTORE PUSH1 0x4 ADD PUSH2 0x1624 SWAP1 PUSH2 0x25D4 JUMP JUMPDEST PUSH1 0x40 MLOAD DUP1 SWAP2 SUB SWAP1 REVERT JUMPDEST PUSH1 0x0 PUSH1 0x1 PUSH1 0x14 DUP5 PUSH2 0x163E SWAP2 SWAP1 PUSH2 0x2A98 JUMP JUMPDEST EQ DUP1 ISZERO PUSH2 0x164E JUMPI POP PUSH1 0x9 SLOAD PUSH1 0x6 SLOAD LT JUMPDEST ISZERO PUSH2 0x16B8 JUMPI PUSH1 0x6 PUSH1 0x0 DUP2 SLOAD DUP1 SWAP3 SWAP2 SWAP1 PUSH2 0x1666 SWAP1 PUSH2 0x2A0F JUMP JUMPDEST SWAP2 SWAP1 POP SSTORE POP PUSH2 0x1676 PUSH1 0x6 SLOAD PUSH2 0x138B JUMP JUMPDEST PUSH1 0x40 MLOAD PUSH1 0x20 ADD PUSH2 0x1686 SWAP2 SWAP1 PUSH2 0x22FB JUMP JUMPDEST PUSH1 0x40 MLOAD PUSH1 0x20 DUP2 DUP4 SUB SUB DUP2 MSTORE SWAP1 PUSH1 0x40 MSTORE PUSH1 0x2 SWAP1 DUP1 MLOAD SWAP1 PUSH1 0x20 ADD SWAP1 PUSH2 0x16AA SWAP3 SWAP2 SWAP1 PUSH2 0x1CB4 JUMP JUMPDEST POP PUSH1 0x0 SWAP1 POP DUP1 SWAP2 POP POP PUSH2 0x189D JUMP JUMPDEST PUSH1 0x3 PUSH1 0x14 DUP5 PUSH2 0x16C7 SWAP2 SWAP1 PUSH2 0x2A98 JUMP JUMPDEST GT ISZERO DUP1 ISZERO PUSH2 0x16D8 JUMPI POP PUSH1 0xA SLOAD PUSH1 0x7 SLOAD LT JUMPDEST ISZERO PUSH2 0x1742 JUMPI PUSH1 0x7 PUSH1 0x0 DUP2 SLOAD DUP1 SWAP3 SWAP2 SWAP1 PUSH2 0x16F0 SWAP1 PUSH2 0x2A0F JUMP JUMPDEST SWAP2 SWAP1 POP SSTORE POP PUSH2 0x1700 PUSH1 0x7 SLOAD PUSH2 0x138B JUMP JUMPDEST PUSH1 0x40 MLOAD PUSH1 0x20 ADD PUSH2 0x1710 SWAP2 SWAP1 PUSH2 0x231D JUMP JUMPDEST PUSH1 0x40 MLOAD PUSH1 0x20 DUP2 DUP4 SUB SUB DUP2 MSTORE SWAP1 PUSH1 0x40 MSTORE PUSH1 0x2 SWAP1 DUP1 MLOAD SWAP1 PUSH1 0x20 ADD SWAP1 PUSH2 0x1734 SWAP3 SWAP2 SWAP1 PUSH2 0x1CB4 JUMP JUMPDEST POP PUSH1 0x1 SWAP1 POP DUP1 SWAP2 POP POP PUSH2 0x189D JUMP JUMPDEST PUSH1 0x3 PUSH1 0x14 DUP5 PUSH2 0x1751 SWAP2 SWAP1 PUSH2 0x2A98 JUMP JUMPDEST GT DUP1 ISZERO PUSH2 0x1761 JUMPI POP PUSH1 0xB SLOAD PUSH1 0x8 SLOAD LT JUMPDEST ISZERO PUSH2 0x17CB JUMPI PUSH1 0x8 PUSH1 0x0 DUP2 SLOAD DUP1 SWAP3 SWAP2 SWAP1 PUSH2 0x1779 SWAP1 PUSH2 0x2A0F JUMP JUMPDEST SWAP2 SWAP1 POP SSTORE POP PUSH2 0x1789 PUSH1 0x8 SLOAD PUSH2 0x138B JUMP JUMPDEST PUSH1 0x40 MLOAD PUSH1 0x20 ADD PUSH2 0x1799 SWAP2 SWAP1 PUSH2 0x233F JUMP JUMPDEST PUSH1 0x40 MLOAD PUSH1 0x20 DUP2 DUP4 SUB SUB DUP2 MSTORE SWAP1 PUSH1 0x40 MSTORE PUSH1 0x2 SWAP1 DUP1 MLOAD SWAP1 PUSH1 0x20 ADD SWAP1 PUSH2 0x17BD SWAP3 SWAP2 SWAP1 PUSH2 0x1CB4 JUMP JUMPDEST POP PUSH1 0x2 SWAP1 POP DUP1 SWAP2 POP POP PUSH2 0x189D JUMP JUMPDEST PUSH1 0xA SLOAD PUSH1 0x7 SLOAD LT ISZERO PUSH2 0x183C JUMPI PUSH1 0x1 SWAP1 POP PUSH1 0x7 PUSH1 0x0 DUP2 SLOAD DUP1 SWAP3 SWAP2 SWAP1 PUSH2 0x17EE SWAP1 PUSH2 0x2A0F JUMP JUMPDEST SWAP2 SWAP1 POP SSTORE POP PUSH2 0x17FE PUSH1 0x7 SLOAD PUSH2 0x138B JUMP JUMPDEST PUSH1 0x40 MLOAD PUSH1 0x20 ADD PUSH2 0x180E SWAP2 SWAP1 PUSH2 0x231D JUMP JUMPDEST PUSH1 0x40 MLOAD PUSH1 0x20 DUP2 DUP4 SUB SUB DUP2 MSTORE SWAP1 PUSH1 0x40 MSTORE PUSH1 0x2 SWAP1 DUP1 MLOAD SWAP1 PUSH1 0x20 ADD SWAP1 PUSH2 0x1832 SWAP3 SWAP2 SWAP1 PUSH2 0x1CB4 JUMP JUMPDEST POP DUP1 SWAP2 POP POP PUSH2 0x189D JUMP JUMPDEST PUSH1 0x0 SWAP1 POP PUSH1 0x6 PUSH1 0x0 DUP2 SLOAD DUP1 SWAP3 SWAP2 SWAP1 PUSH2 0x1853 SWAP1 PUSH2 0x2A0F JUMP JUMPDEST SWAP2 SWAP1 POP SSTORE POP PUSH2 0x1863 PUSH1 0x6 SLOAD PUSH2 0x138B JUMP JUMPDEST PUSH1 0x40 MLOAD PUSH1 0x20 ADD PUSH2 0x1873 SWAP2 SWAP1 PUSH2 0x22FB JUMP JUMPDEST PUSH1 0x40 MLOAD PUSH1 0x20 DUP2 DUP4 SUB SUB DUP2 MSTORE SWAP1 PUSH1 0x40 MSTORE PUSH1 0x2 SWAP1 DUP1 MLOAD SWAP1 PUSH1 0x20 ADD SWAP1 PUSH2 0x1897 SWAP3 SWAP2 SWAP1 PUSH2 0x1CB4 JUMP JUMPDEST POP DUP1 SWAP2 POP POP JUMPDEST SWAP2 SWAP1 POP JUMP JUMPDEST PUSH1 0x0 PUSH20 0xFFFFFFFFFFFFFFFFFFFFFFFFFFFFFFFFFFFFFFFF AND DUP5 PUSH20 0xFFFFFFFFFFFFFFFFFFFFFFFFFFFFFFFFFFFFFFFF AND EQ ISZERO PUSH2 0x1912 JUMPI PUSH1 0x40 MLOAD PUSH32 0x8C379A000000000000000000000000000000000000000000000000000000000 DUP2 MSTORE PUSH1 0x4 ADD PUSH2 0x1909 SWAP1 PUSH2 0x2614 JUMP JUMPDEST PUSH1 0x40 MLOAD DUP1 SWAP2 SUB SWAP1 REVERT JUMPDEST PUSH1 0x0 PUSH2 0x191C PUSH2 0x115D JUMP JUMPDEST SWAP1 POP PUSH2 0x193D DUP2 PUSH1 0x0 DUP8 PUSH2 0x192E DUP9 PUSH2 0x1A38 JUMP JUMPDEST PUSH2 0x1937 DUP9 PUSH2 0x1A38 JUMP JUMPDEST DUP8 PUSH2 0x1AB2 JUMP JUMPDEST DUP3 PUSH1 0x0 DUP1 DUP7 DUP2 MSTORE PUSH1 0x20 ADD SWAP1 DUP2 MSTORE PUSH1 0x20 ADD PUSH1 0x0 KECCAK256 PUSH1 0x0 DUP8 PUSH20 0xFFFFFFFFFFFFFFFFFFFFFFFFFFFFFFFFFFFFFFFF AND PUSH20 0xFFFFFFFFFFFFFFFFFFFFFFFFFFFFFFFFFFFFFFFF AND DUP2 MSTORE PUSH1 0x20 ADD SWAP1 DUP2 MSTORE PUSH1 0x20 ADD PUSH1 0x0 KECCAK256 PUSH1 0x0 DUP3 DUP3 SLOAD PUSH2 0x199C SWAP2 SWAP1 PUSH2 0x276D JUMP JUMPDEST SWAP3 POP POP DUP2 SWAP1 SSTORE POP DUP5 PUSH20 0xFFFFFFFFFFFFFFFFFFFFFFFFFFFFFFFFFFFFFFFF AND PUSH1 0x0 PUSH20 0xFFFFFFFFFFFFFFFFFFFFFFFFFFFFFFFFFFFFFFFF AND DUP3 PUSH20 0xFFFFFFFFFFFFFFFFFFFFFFFFFFFFFFFFFFFFFFFF AND PUSH32 0xC3D58168C5AE7397731D063D5BBF3D657854427343F4C083240F7AACAA2D0F62 DUP8 DUP8 PUSH1 0x40 MLOAD PUSH2 0x1A1A SWAP3 SWAP2 SWAP1 PUSH2 0x264F JUMP JUMPDEST PUSH1 0x40 MLOAD DUP1 SWAP2 SUB SWAP1 LOG4 PUSH2 0x1A31 DUP2 PUSH1 0x0 DUP8 DUP8 DUP8 DUP8 PUSH2 0x1ABA JUMP JUMPDEST POP POP POP POP POP JUMP JUMPDEST PUSH1 0x60 PUSH1 0x0 PUSH1 0x1 PUSH8 0xFFFFFFFFFFFFFFFF DUP2 GT ISZERO PUSH2 0x1A57 JUMPI PUSH2 0x1A56 PUSH2 0x2B85 JUMP JUMPDEST JUMPDEST PUSH1 0x40 MLOAD SWAP1 DUP1 DUP3 MSTORE DUP1 PUSH1 0x20 MUL PUSH1 0x20 ADD DUP3 ADD PUSH1 0x40 MSTORE DUP1 ISZERO PUSH2 0x1A85 JUMPI DUP2 PUSH1 0x20 ADD PUSH1 0x20 DUP3 MUL DUP1 CALLDATASIZE DUP4 CALLDATACOPY DUP1 DUP3 ADD SWAP2 POP POP SWAP1 POP JUMPDEST POP SWAP1 POP DUP3 DUP2 PUSH1 0x0 DUP2 MLOAD DUP2 LT PUSH2 0x1A9D JUMPI PUSH2 0x1A9C PUSH2 0x2B56 JUMP JUMPDEST JUMPDEST PUSH1 0x20 MUL PUSH1 0x20 ADD ADD DUP2 DUP2 MSTORE POP POP DUP1 SWAP2 POP POP SWAP2 SWAP1 POP JUMP JUMPDEST POP POP POP POP POP POP JUMP JUMPDEST PUSH2 0x1AD9 DUP5 PUSH20 0xFFFFFFFFFFFFFFFFFFFFFFFFFFFFFFFFFFFFFFFF AND PUSH2 0x1CA1 JUMP JUMPDEST ISZERO PUSH2 0x1C99 JUMPI DUP4 PUSH20 0xFFFFFFFFFFFFFFFFFFFFFFFFFFFFFFFFFFFFFFFF AND PUSH4 0xAE89A248 DUP8 DUP8 DUP7 DUP7 DUP7 PUSH1 0x40 MLOAD DUP7 PUSH4 0xFFFFFFFF AND PUSH1 0xE0 SHL DUP2 MSTORE PUSH1 0x4 ADD PUSH2 0x1B1F SWAP6 SWAP5 SWAP4 SWAP3 SWAP2 SWAP1 PUSH2 0x23B9 JUMP JUMPDEST PUSH1 0x20 PUSH1 0x40 MLOAD DUP1 DUP4 SUB DUP2 PUSH1 0x0 DUP8 DUP1 EXTCODESIZE ISZERO DUP1 ISZERO PUSH2 0x1B39 JUMPI PUSH1 0x0 DUP1 REVERT JUMPDEST POP GAS CALL SWAP3 POP POP POP DUP1 ISZERO PUSH2 0x1B6A JUMPI POP PUSH1 0x40 MLOAD RETURNDATASIZE PUSH1 0x1F NOT PUSH1 0x1F DUP3 ADD AND DUP3 ADD DUP1 PUSH1 0x40 MSTORE POP DUP2 ADD SWAP1 PUSH2 0x1B67 SWAP2 SWAP1 PUSH2 0x1E58 JUMP JUMPDEST PUSH1 0x1 JUMPDEST PUSH2 0x1C10 JUMPI PUSH2 0x1B76 PUSH2 0x2BC9 JUMP JUMPDEST DUP1 PUSH4 0x8C379A0 EQ ISZERO PUSH2 0x1BD3 JUMPI POP PUSH2 0x1B8B PUSH2 0x2F2A JUMP JUMPDEST DUP1 PUSH2 0x1B96 JUMPI POP PUSH2 0x1BD5 JUMP JUMPDEST DUP1 PUSH1 0x40 MLOAD PUSH32 0x8C379A000000000000000000000000000000000000000000000000000000000 DUP2 MSTORE PUSH1 0x4 ADD PUSH2 0x1BCA SWAP2 SWAP1 PUSH2 0x2472 JUMP JUMPDEST PUSH1 0x40 MLOAD DUP1 SWAP2 SUB SWAP1 REVERT JUMPDEST POP JUMPDEST PUSH1 0x40 MLOAD PUSH32 0x8C379A000000000000000000000000000000000000000000000000000000000 DUP2 MSTORE PUSH1 0x4 ADD PUSH2 0x1C07 SWAP1 PUSH2 0x2494 JUMP JUMPDEST PUSH1 0x40 MLOAD DUP1 SWAP2 SUB SWAP1 REVERT JUMPDEST PUSH4 0xAE89A248 PUSH1 0xE0 SHL PUSH28 0xFFFFFFFFFFFFFFFFFFFFFFFFFFFFFFFFFFFFFFFFFFFFFFFFFFFFFFFF NOT AND DUP2 PUSH28 0xFFFFFFFFFFFFFFFFFFFFFFFFFFFFFFFFFFFFFFFFFFFFFFFFFFFFFFFF NOT AND EQ PUSH2 0x1C97 JUMPI PUSH1 0x40 MLOAD PUSH32 0x8C379A000000000000000000000000000000000000000000000000000000000 DUP2 MSTORE PUSH1 0x4 ADD PUSH2 0x1C8E SWAP1 PUSH2 0x24B4 JUMP JUMPDEST PUSH1 0x40 MLOAD DUP1 SWAP2 SUB SWAP1 REVERT JUMPDEST POP JUMPDEST POP POP POP POP POP POP JUMP JUMPDEST PUSH1 0x0 DUP1 DUP3 EXTCODESIZE SWAP1 POP PUSH1 0x0 DUP2 GT SWAP2 POP POP SWAP2 SWAP1 POP JUMP JUMPDEST DUP3 DUP1 SLOAD PUSH2 0x1CC0 SWAP1 PUSH2 0x29AC JUMP JUMPDEST SWAP1 PUSH1 0x0 MSTORE PUSH1 0x20 PUSH1 0x0 KECCAK256 SWAP1 PUSH1 0x1F ADD PUSH1 0x20 SWAP1 DIV DUP2 ADD SWAP3 DUP3 PUSH2 0x1CE2 JUMPI PUSH1 0x0 DUP6 SSTORE PUSH2 0x1D29 JUMP JUMPDEST DUP3 PUSH1 0x1F LT PUSH2 0x1CFB JUMPI DUP1 MLOAD PUSH1 0xFF NOT AND DUP4 DUP1 ADD OR DUP6 SSTORE PUSH2 0x1D29 JUMP JUMPDEST DUP3 DUP1 ADD PUSH1 0x1 ADD DUP6 SSTORE DUP3 ISZERO PUSH2 0x1D29 JUMPI SWAP2 DUP3 ADD JUMPDEST DUP3 DUP2 GT ISZERO PUSH2 0x1D28 JUMPI DUP3 MLOAD DUP3 SSTORE SWAP2 PUSH1 0x20 ADD SWAP2 SWAP1 PUSH1 0x1 ADD SWAP1 PUSH2 0x1D0D JUMP JUMPDEST JUMPDEST POP SWAP1 POP PUSH2 0x1D36 SWAP2 SWAP1 PUSH2 0x1D3A JUMP JUMPDEST POP SWAP1 JUMP JUMPDEST JUMPDEST DUP1 DUP3 GT ISZERO PUSH2 0x1D53 JUMPI PUSH1 0x0 DUP2 PUSH1 0x0 SWAP1 SSTORE POP PUSH1 0x1 ADD PUSH2 0x1D3B JUMP JUMPDEST POP SWAP1 JUMP JUMPDEST PUSH1 0x0 DUP2 CALLDATALOAD SWAP1 POP PUSH2 0x1D66 DUP2 PUSH2 0x2FC0 JUMP JUMPDEST SWAP3 SWAP2 POP POP JUMP JUMPDEST PUSH1 0x0 DUP2 CALLDATALOAD SWAP1 POP PUSH2 0x1D7B DUP2 PUSH2 0x2FD7 JUMP JUMPDEST SWAP3 SWAP2 POP POP JUMP JUMPDEST PUSH1 0x0 DUP2 MLOAD SWAP1 POP PUSH2 0x1D90 DUP2 PUSH2 0x2FEE JUMP JUMPDEST SWAP3 SWAP2 POP POP JUMP JUMPDEST PUSH1 0x0 DUP2 CALLDATALOAD SWAP1 POP PUSH2 0x1DA5 DUP2 PUSH2 0x3005 JUMP JUMPDEST SWAP3 SWAP2 POP POP JUMP JUMPDEST PUSH1 0x0 PUSH1 0x20 DUP3 DUP5 SUB SLT ISZERO PUSH2 0x1DC1 JUMPI PUSH2 0x1DC0 PUSH2 0x2BEB JUMP JUMPDEST JUMPDEST PUSH1 0x0 PUSH2 0x1DCF DUP5 DUP3 DUP6 ADD PUSH2 0x1D57 JUMP JUMPDEST SWAP2 POP POP SWAP3 SWAP2 POP POP JUMP JUMPDEST PUSH1 0x0 DUP1 PUSH1 0x40 DUP4 DUP6 SUB SLT ISZERO PUSH2 0x1DEF JUMPI PUSH2 0x1DEE PUSH2 0x2BEB JUMP JUMPDEST JUMPDEST PUSH1 0x0 PUSH2 0x1DFD DUP6 DUP3 DUP7 ADD PUSH2 0x1D6C JUMP JUMPDEST SWAP3 POP POP PUSH1 0x20 PUSH2 0x1E0E DUP6 DUP3 DUP7 ADD PUSH2 0x1D96 JUMP JUMPDEST SWAP2 POP POP SWAP3 POP SWAP3 SWAP1 POP JUMP JUMPDEST PUSH1 0x0 DUP1 PUSH1 0x40 DUP4 DUP6 SUB SLT ISZERO PUSH2 0x1E2F JUMPI PUSH2 0x1E2E PUSH2 0x2BEB JUMP JUMPDEST JUMPDEST PUSH1 0x0 PUSH2 0x1E3D DUP6 DUP3 DUP7 ADD PUSH2 0x1D57 JUMP JUMPDEST SWAP3 POP POP PUSH1 0x20 PUSH2 0x1E4E DUP6 DUP3 DUP7 ADD PUSH2 0x1D96 JUMP JUMPDEST SWAP2 POP POP SWAP3 POP SWAP3 SWAP1 POP JUMP JUMPDEST PUSH1 0x0 PUSH1 0x20 DUP3 DUP5 SUB SLT ISZERO PUSH2 0x1E6E JUMPI PUSH2 0x1E6D PUSH2 0x2BEB JUMP JUMPDEST JUMPDEST PUSH1 0x0 PUSH2 0x1E7C DUP5 DUP3 DUP6 ADD PUSH2 0x1D81 JUMP JUMPDEST SWAP2 POP POP SWAP3 SWAP2 POP POP JUMP JUMPDEST PUSH1 0x0 PUSH1 0x20 DUP3 DUP5 SUB SLT ISZERO PUSH2 0x1E9B JUMPI PUSH2 0x1E9A PUSH2 0x2BEB JUMP JUMPDEST JUMPDEST PUSH1 0x0 PUSH2 0x1EA9 DUP5 DUP3 DUP6 ADD PUSH2 0x1D96 JUMP JUMPDEST SWAP2 POP POP SWAP3 SWAP2 POP POP JUMP JUMPDEST PUSH1 0x0 PUSH2 0x1EBE DUP4 DUP4 PUSH2 0x1FF9 JUMP JUMPDEST PUSH1 0x20 DUP4 ADD SWAP1 POP SWAP3 SWAP2 POP POP JUMP JUMPDEST PUSH1 0x0 PUSH2 0x1ED6 DUP4 DUP4 PUSH2 0x22A2 JUMP JUMPDEST PUSH1 0x20 DUP4 ADD SWAP1 POP SWAP3 SWAP2 POP POP JUMP JUMPDEST PUSH2 0x1EEB DUP2 PUSH2 0x2894 JUMP JUMPDEST DUP3 MSTORE POP POP JUMP JUMPDEST PUSH2 0x1F02 PUSH2 0x1EFD DUP3 PUSH2 0x2894 JUMP JUMPDEST PUSH2 0x2A6A JUMP JUMPDEST DUP3 MSTORE POP POP JUMP JUMPDEST PUSH2 0x1F11 DUP2 PUSH2 0x2882 JUMP JUMPDEST DUP3 MSTORE POP POP JUMP JUMPDEST PUSH2 0x1F28 PUSH2 0x1F23 DUP3 PUSH2 0x2882 JUMP JUMPDEST PUSH2 0x2A58 JUMP JUMPDEST DUP3 MSTORE POP POP JUMP JUMPDEST PUSH1 0x0 PUSH2 0x1F39 DUP3 PUSH2 0x26E9 JUMP JUMPDEST PUSH2 0x1F43 DUP2 DUP6 PUSH2 0x272F JUMP JUMPDEST SWAP4 POP PUSH2 0x1F4E DUP4 PUSH2 0x26B9 JUMP JUMPDEST DUP1 PUSH1 0x0 JUMPDEST DUP4 DUP2 LT ISZERO PUSH2 0x1F7F JUMPI DUP2 MLOAD PUSH2 0x1F66 DUP9 DUP3 PUSH2 0x1EB2 JUMP JUMPDEST SWAP8 POP PUSH2 0x1F71 DUP4 PUSH2 0x2715 JUMP JUMPDEST SWAP3 POP POP PUSH1 0x1 DUP2 ADD SWAP1 POP PUSH2 0x1F52 JUMP JUMPDEST POP DUP6 SWAP4 POP POP POP POP SWAP3 SWAP2 POP POP JUMP JUMPDEST PUSH1 0x0 PUSH2 0x1F97 DUP3 PUSH2 0x26F4 JUMP JUMPDEST PUSH2 0x1FA1 DUP2 DUP6 PUSH2 0x2740 JUMP JUMPDEST SWAP4 POP PUSH2 0x1FAC DUP4 PUSH2 0x26C9 JUMP JUMPDEST DUP1 PUSH1 0x0 JUMPDEST DUP4 DUP2 LT ISZERO PUSH2 0x1FDD JUMPI DUP2 MLOAD PUSH2 0x1FC4 DUP9 DUP3 PUSH2 0x1ECA JUMP JUMPDEST SWAP8 POP PUSH2 0x1FCF DUP4 PUSH2 0x2722 JUMP JUMPDEST SWAP3 POP POP PUSH1 0x1 DUP2 ADD SWAP1 POP PUSH2 0x1FB0 JUMP JUMPDEST POP DUP6 SWAP4 POP POP POP POP SWAP3 SWAP2 POP POP JUMP JUMPDEST PUSH2 0x1FF3 DUP2 PUSH2 0x28A6 JUMP JUMPDEST DUP3 MSTORE POP POP JUMP JUMPDEST PUSH2 0x2002 DUP2 PUSH2 0x28B2 JUMP JUMPDEST DUP3 MSTORE POP POP JUMP JUMPDEST PUSH1 0x0 PUSH2 0x2013 DUP3 PUSH2 0x270A JUMP JUMPDEST PUSH2 0x201D DUP2 DUP6 PUSH2 0x2751 JUMP JUMPDEST SWAP4 POP PUSH2 0x202D DUP2 DUP6 PUSH1 0x20 DUP7 ADD PUSH2 0x2979 JUMP JUMPDEST PUSH2 0x2036 DUP2 PUSH2 0x2BF0 JUMP JUMPDEST DUP5 ADD SWAP2 POP POP SWAP3 SWAP2 POP POP JUMP JUMPDEST PUSH1 0x0 PUSH2 0x204C DUP3 PUSH2 0x270A JUMP JUMPDEST PUSH2 0x2056 DUP2 DUP6 PUSH2 0x2762 JUMP JUMPDEST SWAP4 POP PUSH2 0x2066 DUP2 DUP6 PUSH1 0x20 DUP7 ADD PUSH2 0x2979 JUMP JUMPDEST DUP1 DUP5 ADD SWAP2 POP POP SWAP3 SWAP2 POP POP JUMP JUMPDEST PUSH1 0x0 PUSH2 0x207F PUSH1 0x34 DUP4 PUSH2 0x2751 JUMP JUMPDEST SWAP2 POP PUSH2 0x208A DUP3 PUSH2 0x2C28 JUMP JUMPDEST PUSH1 0x40 DUP3 ADD SWAP1 POP SWAP2 SWAP1 POP JUMP JUMPDEST PUSH1 0x0 PUSH2 0x20A2 PUSH1 0x28 DUP4 PUSH2 0x2751 JUMP JUMPDEST SWAP2 POP PUSH2 0x20AD DUP3 PUSH2 0x2C77 JUMP JUMPDEST PUSH1 0x40 DUP3 ADD SWAP1 POP SWAP2 SWAP1 POP JUMP JUMPDEST PUSH1 0x0 PUSH2 0x20C5 PUSH1 0x19 DUP4 PUSH2 0x2751 JUMP JUMPDEST SWAP2 POP PUSH2 0x20D0 DUP3 PUSH2 0x2CC6 JUMP JUMPDEST PUSH1 0x20 DUP3 ADD SWAP1 POP SWAP2 SWAP1 POP JUMP JUMPDEST PUSH1 0x0 PUSH2 0x20E8 PUSH1 0x8 DUP4 PUSH2 0x2762 JUMP JUMPDEST SWAP2 POP PUSH2 0x20F3 DUP3 PUSH2 0x2CEF JUMP JUMPDEST PUSH1 0x8 DUP3 ADD SWAP1 POP SWAP2 SWAP1 POP JUMP JUMPDEST PUSH1 0x0 PUSH2 0x210B PUSH1 0x10 DUP4 PUSH2 0x2751 JUMP JUMPDEST SWAP2 POP PUSH2 0x2116 DUP3 PUSH2 0x2D18 JUMP JUMPDEST PUSH1 0x20 DUP3 ADD SWAP1 POP SWAP2 SWAP1 POP JUMP JUMPDEST PUSH1 0x0 PUSH2 0x212E PUSH1 0x5 DUP4 PUSH2 0x2762 JUMP JUMPDEST SWAP2 POP PUSH2 0x2139 DUP3 PUSH2 0x2D41 JUMP JUMPDEST PUSH1 0x5 DUP3 ADD SWAP1 POP SWAP2 SWAP1 POP JUMP JUMPDEST PUSH1 0x0 PUSH2 0x2151 PUSH1 0x12 DUP4 PUSH2 0x2751 JUMP JUMPDEST SWAP2 POP PUSH2 0x215C DUP3 PUSH2 0x2D6A JUMP JUMPDEST PUSH1 0x20 DUP3 ADD SWAP1 POP SWAP2 SWAP1 POP JUMP JUMPDEST PUSH1 0x0 PUSH2 0x2174 PUSH1 0x1B DUP4 PUSH2 0x2751 JUMP JUMPDEST SWAP2 POP PUSH2 0x217F DUP3 PUSH2 0x2D93 JUMP JUMPDEST PUSH1 0x20 DUP3 ADD SWAP1 POP SWAP2 SWAP1 POP JUMP JUMPDEST PUSH1 0x0 PUSH2 0x2197 PUSH1 0x1B DUP4 PUSH2 0x2751 JUMP JUMPDEST SWAP2 POP PUSH2 0x21A2 DUP3 PUSH2 0x2DBC JUMP JUMPDEST PUSH1 0x20 DUP3 ADD SWAP1 POP SWAP2 SWAP1 POP JUMP JUMPDEST PUSH1 0x0 PUSH2 0x21BA PUSH1 0x15 DUP4 PUSH2 0x2751 JUMP JUMPDEST SWAP2 POP PUSH2 0x21C5 DUP3 PUSH2 0x2DE5 JUMP JUMPDEST PUSH1 0x20 DUP3 ADD SWAP1 POP SWAP2 SWAP1 POP JUMP JUMPDEST PUSH1 0x0 PUSH2 0x21DD PUSH1 0x1C DUP4 PUSH2 0x2751 JUMP JUMPDEST SWAP2 POP PUSH2 0x21E8 DUP3 PUSH2 0x2E0E JUMP JUMPDEST PUSH1 0x20 DUP3 ADD SWAP1 POP SWAP2 SWAP1 POP JUMP JUMPDEST PUSH1 0x0 PUSH2 0x2200 PUSH1 0x1F DUP4 PUSH2 0x2751 JUMP JUMPDEST SWAP2 POP PUSH2 0x220B DUP3 PUSH2 0x2E37 JUMP JUMPDEST PUSH1 0x20 DUP3 ADD SWAP1 POP SWAP2 SWAP1 POP JUMP JUMPDEST PUSH1 0x0 PUSH2 0x2223 PUSH1 0x1B DUP4 PUSH2 0x2751 JUMP JUMPDEST SWAP2 POP PUSH2 0x222E DUP3 PUSH2 0x2E60 JUMP JUMPDEST PUSH1 0x20 DUP3 ADD SWAP1 POP SWAP2 SWAP1 POP JUMP JUMPDEST PUSH1 0x0 PUSH2 0x2246 PUSH1 0x19 DUP4 PUSH2 0x2751 JUMP JUMPDEST SWAP2 POP PUSH2 0x2251 DUP3 PUSH2 0x2E89 JUMP JUMPDEST PUSH1 0x20 DUP3 ADD SWAP1 POP SWAP2 SWAP1 POP JUMP JUMPDEST PUSH1 0x0 PUSH2 0x2269 PUSH1 0x7 DUP4 PUSH2 0x2762 JUMP JUMPDEST SWAP2 POP PUSH2 0x2274 DUP3 PUSH2 0x2EB2 JUMP JUMPDEST PUSH1 0x7 DUP3 ADD SWAP1 POP SWAP2 SWAP1 POP JUMP JUMPDEST PUSH1 0x0 PUSH2 0x228C PUSH1 0x21 DUP4 PUSH2 0x2751 JUMP JUMPDEST SWAP2 POP PUSH2 0x2297 DUP3 PUSH2 0x2EDB JUMP JUMPDEST PUSH1 0x40 DUP3 ADD SWAP1 POP SWAP2 SWAP1 POP JUMP JUMPDEST PUSH2 0x22AB DUP2 PUSH2 0x2908 JUMP JUMPDEST DUP3 MSTORE POP POP JUMP JUMPDEST PUSH2 0x22BA DUP2 PUSH2 0x2908 JUMP JUMPDEST DUP3 MSTORE POP POP JUMP JUMPDEST PUSH2 0x22D1 PUSH2 0x22CC DUP3 PUSH2 0x2908 JUMP JUMPDEST PUSH2 0x2A8E JUMP JUMPDEST DUP3 MSTORE POP POP JUMP JUMPDEST PUSH1 0x0 PUSH2 0x22E3 DUP3 DUP6 PUSH2 0x2041 JUMP JUMPDEST SWAP2 POP PUSH2 0x22EF DUP3 DUP5 PUSH2 0x2041 JUMP JUMPDEST SWAP2 POP DUP2 SWAP1 POP SWAP4 SWAP3 POP POP POP JUMP JUMPDEST PUSH1 0x0 PUSH2 0x2306 DUP3 PUSH2 0x20DB JUMP JUMPDEST SWAP2 POP PUSH2 0x2312 DUP3 DUP5 PUSH2 0x2041 JUMP JUMPDEST SWAP2 POP DUP2 SWAP1 POP SWAP3 SWAP2 POP POP JUMP JUMPDEST PUSH1 0x0 PUSH2 0x2328 DUP3 PUSH2 0x2121 JUMP JUMPDEST SWAP2 POP PUSH2 0x2334 DUP3 DUP5 PUSH2 0x2041 JUMP JUMPDEST SWAP2 POP DUP2 SWAP1 POP SWAP3 SWAP2 POP POP JUMP JUMPDEST PUSH1 0x0 PUSH2 0x234A DUP3 PUSH2 0x225C JUMP JUMPDEST SWAP2 POP PUSH2 0x2356 DUP3 DUP5 PUSH2 0x2041 JUMP JUMPDEST SWAP2 POP DUP2 SWAP1 POP SWAP3 SWAP2 POP POP JUMP JUMPDEST PUSH1 0x0 PUSH2 0x236D DUP3 DUP7 PUSH2 0x22C0 JUMP JUMPDEST PUSH1 0x20 DUP3 ADD SWAP2 POP PUSH2 0x237D DUP3 DUP6 PUSH2 0x1F17 JUMP JUMPDEST PUSH1 0x14 DUP3 ADD SWAP2 POP PUSH2 0x238D DUP3 DUP5 PUSH2 0x1EF1 JUMP JUMPDEST PUSH1 0x14 DUP3 ADD SWAP2 POP DUP2 SWAP1 POP SWAP5 SWAP4 POP POP POP POP JUMP JUMPDEST PUSH1 0x0 PUSH1 0x20 DUP3 ADD SWAP1 POP PUSH2 0x23B3 PUSH1 0x0 DUP4 ADD DUP5 PUSH2 0x1EE2 JUMP JUMPDEST SWAP3 SWAP2 POP POP JUMP JUMPDEST PUSH1 0x0 PUSH1 0xA0 DUP3 ADD SWAP1 POP PUSH2 0x23CE PUSH1 0x0 DUP4 ADD DUP9 PUSH2 0x1F08 JUMP JUMPDEST PUSH2 0x23DB PUSH1 0x20 DUP4 ADD DUP8 PUSH2 0x1F08 JUMP JUMPDEST PUSH2 0x23E8 PUSH1 0x40 DUP4 ADD DUP7 PUSH2 0x22B1 JUMP JUMPDEST PUSH2 0x23F5 PUSH1 0x60 DUP4 ADD DUP6 PUSH2 0x22B1 JUMP JUMPDEST DUP2 DUP2 SUB PUSH1 0x80 DUP4 ADD MSTORE PUSH2 0x2407 DUP2 DUP5 PUSH2 0x2008 JUMP JUMPDEST SWAP1 POP SWAP7 SWAP6 POP POP POP POP POP POP JUMP JUMPDEST PUSH1 0x0 PUSH1 0x20 DUP3 ADD SWAP1 POP DUP2 DUP2 SUB PUSH1 0x0 DUP4 ADD MSTORE PUSH2 0x242D DUP2 DUP5 PUSH2 0x1F2E JUMP JUMPDEST SWAP1 POP SWAP3 SWAP2 POP POP JUMP JUMPDEST PUSH1 0x0 PUSH1 0x20 DUP3 ADD SWAP1 POP DUP2 DUP2 SUB PUSH1 0x0 DUP4 ADD MSTORE PUSH2 0x244F DUP2 DUP5 PUSH2 0x1F8C JUMP JUMPDEST SWAP1 POP SWAP3 SWAP2 POP POP JUMP JUMPDEST PUSH1 0x0 PUSH1 0x20 DUP3 ADD SWAP1 POP PUSH2 0x246C PUSH1 0x0 DUP4 ADD DUP5 PUSH2 0x1FEA JUMP JUMPDEST SWAP3 SWAP2 POP POP JUMP JUMPDEST PUSH1 0x0 PUSH1 0x20 DUP3 ADD SWAP1 POP DUP2 DUP2 SUB PUSH1 0x0 DUP4 ADD MSTORE PUSH2 0x248C DUP2 DUP5 PUSH2 0x2008 JUMP JUMPDEST SWAP1 POP SWAP3 SWAP2 POP POP JUMP JUMPDEST PUSH1 0x0 PUSH1 0x20 DUP3 ADD SWAP1 POP DUP2 DUP2 SUB PUSH1 0x0 DUP4 ADD MSTORE PUSH2 0x24AD DUP2 PUSH2 0x2072 JUMP JUMPDEST SWAP1 POP SWAP2 SWAP1 POP JUMP JUMPDEST PUSH1 0x0 PUSH1 0x20 DUP3 ADD SWAP1 POP DUP2 DUP2 SUB PUSH1 0x0 DUP4 ADD MSTORE PUSH2 0x24CD DUP2 PUSH2 0x2095 JUMP JUMPDEST SWAP1 POP SWAP2 SWAP1 POP JUMP JUMPDEST PUSH1 0x0 PUSH1 0x20 DUP3 ADD SWAP1 POP DUP2 DUP2 SUB PUSH1 0x0 DUP4 ADD MSTORE PUSH2 0x24ED DUP2 PUSH2 0x20B8 JUMP JUMPDEST SWAP1 POP SWAP2 SWAP1 POP JUMP JUMPDEST PUSH1 0x0 PUSH1 0x20 DUP3 ADD SWAP1 POP DUP2 DUP2 SUB PUSH1 0x0 DUP4 ADD MSTORE PUSH2 0x250D DUP2 PUSH2 0x20FE JUMP JUMPDEST SWAP1 POP SWAP2 SWAP1 POP JUMP JUMPDEST PUSH1 0x0 PUSH1 0x20 DUP3 ADD SWAP1 POP DUP2 DUP2 SUB PUSH1 0x0 DUP4 ADD MSTORE PUSH2 0x252D DUP2 PUSH2 0x2144 JUMP JUMPDEST SWAP1 POP SWAP2 SWAP1 POP JUMP JUMPDEST PUSH1 0x0 PUSH1 0x20 DUP3 ADD SWAP1 POP DUP2 DUP2 SUB PUSH1 0x0 DUP4 ADD MSTORE PUSH2 0x254D DUP2 PUSH2 0x2167 JUMP JUMPDEST SWAP1 POP SWAP2 SWAP1 POP JUMP JUMPDEST PUSH1 0x0 PUSH1 0x20 DUP3 ADD SWAP1 POP DUP2 DUP2 SUB PUSH1 0x0 DUP4 ADD MSTORE PUSH2 0x256D DUP2 PUSH2 0x218A JUMP JUMPDEST SWAP1 POP SWAP2 SWAP1 POP JUMP JUMPDEST PUSH1 0x0 PUSH1 0x20 DUP3 ADD SWAP1 POP DUP2 DUP2 SUB PUSH1 0x0 DUP4 ADD MSTORE PUSH2 0x258D DUP2 PUSH2 0x21AD JUMP JUMPDEST SWAP1 POP SWAP2 SWAP1 POP JUMP JUMPDEST PUSH1 0x0 PUSH1 0x20 DUP3 ADD SWAP1 POP DUP2 DUP2 SUB PUSH1 0x0 DUP4 ADD MSTORE PUSH2 0x25AD DUP2 PUSH2 0x21D0 JUMP JUMPDEST SWAP1 POP SWAP2 SWAP1 POP JUMP JUMPDEST PUSH1 0x0 PUSH1 0x20 DUP3 ADD SWAP1 POP DUP2 DUP2 SUB PUSH1 0x0 DUP4 ADD MSTORE PUSH2 0x25CD DUP2 PUSH2 0x21F3 JUMP JUMPDEST SWAP1 POP SWAP2 SWAP1 POP JUMP JUMPDEST PUSH1 0x0 PUSH1 0x20 DUP3 ADD SWAP1 POP DUP2 DUP2 SUB PUSH1 0x0 DUP4 ADD MSTORE PUSH2 0x25ED DUP2 PUSH2 0x2216 JUMP JUMPDEST SWAP1 POP SWAP2 SWAP1 POP JUMP JUMPDEST PUSH1 0x0 PUSH1 0x20 DUP3 ADD SWAP1 POP DUP2 DUP2 SUB PUSH1 0x0 DUP4 ADD MSTORE PUSH2 0x260D DUP2 PUSH2 0x2239 JUMP JUMPDEST SWAP1 POP SWAP2 SWAP1 POP JUMP JUMPDEST PUSH1 0x0 PUSH1 0x20 DUP3 ADD SWAP1 POP DUP2 DUP2 SUB PUSH1 0x0 DUP4 ADD MSTORE PUSH2 0x262D DUP2 PUSH2 0x227F JUMP JUMPDEST SWAP1 POP SWAP2 SWAP1 POP JUMP JUMPDEST PUSH1 0x0 PUSH1 0x20 DUP3 ADD SWAP1 POP PUSH2 0x2649 PUSH1 0x0 DUP4 ADD DUP5 PUSH2 0x22B1 JUMP JUMPDEST SWAP3 SWAP2 POP POP JUMP JUMPDEST PUSH1 0x0 PUSH1 0x40 DUP3 ADD SWAP1 POP PUSH2 0x2664 PUSH1 0x0 DUP4 ADD DUP6 PUSH2 0x22B1 JUMP JUMPDEST PUSH2 0x2671 PUSH1 0x20 DUP4 ADD DUP5 PUSH2 0x22B1 JUMP JUMPDEST SWAP4 SWAP3 POP POP POP JUMP JUMPDEST PUSH1 0x0 PUSH1 0x60 DUP3 ADD SWAP1 POP PUSH2 0x268D PUSH1 0x0 DUP4 ADD DUP7 PUSH2 0x22B1 JUMP JUMPDEST PUSH2 0x269A PUSH1 0x20 DUP4 ADD DUP6 PUSH2 0x22B1 JUMP JUMPDEST PUSH2 0x26A7 PUSH1 0x40 DUP4 ADD DUP5 PUSH2 0x22B1 JUMP JUMPDEST SWAP5 SWAP4 POP POP POP POP JUMP JUMPDEST PUSH1 0x0 PUSH1 0x40 MLOAD SWAP1 POP SWAP1 JUMP JUMPDEST PUSH1 0x0 DUP2 SWAP1 POP PUSH1 0x20 DUP3 ADD SWAP1 POP SWAP2 SWAP1 POP JUMP JUMPDEST PUSH1 0x0 DUP2 SWAP1 POP PUSH1 0x20 DUP3 ADD SWAP1 POP SWAP2 SWAP1 POP JUMP JUMPDEST PUSH1 0x0 DUP2 SWAP1 POP PUSH1 0x20 DUP3 ADD SWAP1 POP SWAP2 SWAP1 POP JUMP JUMPDEST PUSH1 0x0 DUP2 MLOAD SWAP1 POP SWAP2 SWAP1 POP JUMP JUMPDEST PUSH1 0x0 DUP2 MLOAD SWAP1 POP SWAP2 SWAP1 POP JUMP JUMPDEST PUSH1 0x0 DUP2 MLOAD SWAP1 POP SWAP2 SWAP1 POP JUMP JUMPDEST PUSH1 0x0 DUP2 MLOAD SWAP1 POP SWAP2 SWAP1 POP JUMP JUMPDEST PUSH1 0x0 PUSH1 0x20 DUP3 ADD SWAP1 POP SWAP2 SWAP1 POP JUMP JUMPDEST PUSH1 0x0 PUSH1 0x20 DUP3 ADD SWAP1 POP SWAP2 SWAP1 POP JUMP JUMPDEST PUSH1 0x0 DUP3 DUP3 MSTORE PUSH1 0x20 DUP3 ADD SWAP1 POP SWAP3 SWAP2 POP POP JUMP JUMPDEST PUSH1 0x0 DUP3 DUP3 MSTORE PUSH1 0x20 DUP3 ADD SWAP1 POP SWAP3 SWAP2 POP POP JUMP JUMPDEST PUSH1 0x0 DUP3 DUP3 MSTORE PUSH1 0x20 DUP3 ADD SWAP1 POP SWAP3 SWAP2 POP POP JUMP JUMPDEST PUSH1 0x0 DUP2 SWAP1 POP SWAP3 SWAP2 POP POP JUMP JUMPDEST PUSH1 0x0 PUSH2 0x2778 DUP3 PUSH2 0x2908 JUMP JUMPDEST SWAP2 POP PUSH2 0x2783 DUP4 PUSH2 0x2908 JUMP JUMPDEST SWAP3 POP DUP3 PUSH32 0xFFFFFFFFFFFFFFFFFFFFFFFFFFFFFFFFFFFFFFFFFFFFFFFFFFFFFFFFFFFFFFFF SUB DUP3 GT ISZERO PUSH2 0x27B8 JUMPI PUSH2 0x27B7 PUSH2 0x2AC9 JUMP JUMPDEST JUMPDEST DUP3 DUP3 ADD SWAP1 POP SWAP3 SWAP2 POP POP JUMP JUMPDEST PUSH1 0x0 PUSH2 0x27CE DUP3 PUSH2 0x2908 JUMP JUMPDEST SWAP2 POP PUSH2 0x27D9 DUP4 PUSH2 0x2908 JUMP JUMPDEST SWAP3 POP DUP3 PUSH2 0x27E9 JUMPI PUSH2 0x27E8 PUSH2 0x2AF8 JUMP JUMPDEST JUMPDEST DUP3 DUP3 DIV SWAP1 POP SWAP3 SWAP2 POP POP JUMP JUMPDEST PUSH1 0x0 PUSH2 0x27FF DUP3 PUSH2 0x2908 JUMP JUMPDEST SWAP2 POP PUSH2 0x280A DUP4 PUSH2 0x2908 JUMP JUMPDEST SWAP3 POP DUP2 PUSH32 0xFFFFFFFFFFFFFFFFFFFFFFFFFFFFFFFFFFFFFFFFFFFFFFFFFFFFFFFFFFFFFFFF DIV DUP4 GT DUP3 ISZERO ISZERO AND ISZERO PUSH2 0x2843 JUMPI PUSH2 0x2842 PUSH2 0x2AC9 JUMP JUMPDEST JUMPDEST DUP3 DUP3 MUL SWAP1 POP SWAP3 SWAP2 POP POP JUMP JUMPDEST PUSH1 0x0 PUSH2 0x2859 DUP3 PUSH2 0x2908 JUMP JUMPDEST SWAP2 POP PUSH2 0x2864 DUP4 PUSH2 0x2908 JUMP JUMPDEST SWAP3 POP DUP3 DUP3 LT ISZERO PUSH2 0x2877 JUMPI PUSH2 0x2876 PUSH2 0x2AC9 JUMP JUMPDEST JUMPDEST DUP3 DUP3 SUB SWAP1 POP SWAP3 SWAP2 POP POP JUMP JUMPDEST PUSH1 0x0 PUSH2 0x288D DUP3 PUSH2 0x28E8 JUMP JUMPDEST SWAP1 POP SWAP2 SWAP1 POP JUMP JUMPDEST PUSH1 0x0 PUSH2 0x289F DUP3 PUSH2 0x28E8 JUMP JUMPDEST SWAP1 POP SWAP2 SWAP1 POP JUMP JUMPDEST PUSH1 0x0 DUP2 ISZERO ISZERO SWAP1 POP SWAP2 SWAP1 POP JUMP JUMPDEST PUSH1 0x0 DUP2 SWAP1 POP SWAP2 SWAP1 POP JUMP JUMPDEST PUSH1 0x0 PUSH32 0xFFFFFFFF00000000000000000000000000000000000000000000000000000000 DUP3 AND SWAP1 POP SWAP2 SWAP1 POP JUMP JUMPDEST PUSH1 0x0 PUSH20 0xFFFFFFFFFFFFFFFFFFFFFFFFFFFFFFFFFFFFFFFF DUP3 AND SWAP1 POP SWAP2 SWAP1 POP JUMP JUMPDEST PUSH1 0x0 DUP2 SWAP1 POP SWAP2 SWAP1 POP JUMP JUMPDEST PUSH1 0x0 PUSH2 0x291D DUP3 PUSH2 0x26FF JUMP JUMPDEST DUP3 PUSH2 0x2927 DUP5 PUSH2 0x26D9 JUMP JUMPDEST SWAP1 POP PUSH2 0x2932 DUP2 PUSH2 0x2BB4 JUMP JUMPDEST SWAP3 POP PUSH1 0x20 DUP3 LT ISZERO PUSH2 0x2972 JUMPI PUSH2 0x296D PUSH32 0xFFFFFFFFFFFFFFFFFFFFFFFFFFFFFFFFFFFFFFFFFFFFFFFFFFFFFFFFFFFFFFFF DUP4 PUSH1 0x20 SUB PUSH1 0x8 MUL PUSH2 0x2C0E JUMP JUMPDEST DUP4 AND SWAP3 POP JUMPDEST POP POP SWAP2 SWAP1 POP JUMP JUMPDEST PUSH1 0x0 JUMPDEST DUP4 DUP2 LT ISZERO PUSH2 0x2997 JUMPI DUP1 DUP3 ADD MLOAD DUP2 DUP5 ADD MSTORE PUSH1 0x20 DUP2 ADD SWAP1 POP PUSH2 0x297C JUMP JUMPDEST DUP4 DUP2 GT ISZERO PUSH2 0x29A6 JUMPI PUSH1 0x0 DUP5 DUP5 ADD MSTORE JUMPDEST POP POP POP POP JUMP JUMPDEST PUSH1 0x0 PUSH1 0x2 DUP3 DIV SWAP1 POP PUSH1 0x1 DUP3 AND DUP1 PUSH2 0x29C4 JUMPI PUSH1 0x7F DUP3 AND SWAP2 POP JUMPDEST PUSH1 0x20 DUP3 LT DUP2 EQ ISZERO PUSH2 0x29D8 JUMPI PUSH2 0x29D7 PUSH2 0x2B27 JUMP JUMPDEST JUMPDEST POP SWAP2 SWAP1 POP JUMP JUMPDEST PUSH2 0x29E7 DUP3 PUSH2 0x2BF0 JUMP JUMPDEST DUP2 ADD DUP2 DUP2 LT PUSH8 0xFFFFFFFFFFFFFFFF DUP3 GT OR ISZERO PUSH2 0x2A06 JUMPI PUSH2 0x2A05 PUSH2 0x2B85 JUMP JUMPDEST JUMPDEST DUP1 PUSH1 0x40 MSTORE POP POP POP JUMP JUMPDEST PUSH1 0x0 PUSH2 0x2A1A DUP3 PUSH2 0x2908 JUMP JUMPDEST SWAP2 POP PUSH32 0xFFFFFFFFFFFFFFFFFFFFFFFFFFFFFFFFFFFFFFFFFFFFFFFFFFFFFFFFFFFFFFFF DUP3 EQ ISZERO PUSH2 0x2A4D JUMPI PUSH2 0x2A4C PUSH2 0x2AC9 JUMP JUMPDEST JUMPDEST PUSH1 0x1 DUP3 ADD SWAP1 POP SWAP2 SWAP1 POP JUMP JUMPDEST PUSH1 0x0 PUSH2 0x2A63 DUP3 PUSH2 0x2A7C JUMP JUMPDEST SWAP1 POP SWAP2 SWAP1 POP JUMP JUMPDEST PUSH1 0x0 PUSH2 0x2A75 DUP3 PUSH2 0x2A7C JUMP JUMPDEST SWAP1 POP SWAP2 SWAP1 POP JUMP JUMPDEST PUSH1 0x0 PUSH2 0x2A87 DUP3 PUSH2 0x2C01 JUMP JUMPDEST SWAP1 POP SWAP2 SWAP1 POP JUMP JUMPDEST PUSH1 0x0 DUP2 SWAP1 POP SWAP2 SWAP1 POP JUMP JUMPDEST PUSH1 0x0 PUSH2 0x2AA3 DUP3 PUSH2 0x2908 JUMP JUMPDEST SWAP2 POP PUSH2 0x2AAE DUP4 PUSH2 0x2908 JUMP JUMPDEST SWAP3 POP DUP3 PUSH2 0x2ABE JUMPI PUSH2 0x2ABD PUSH2 0x2AF8 JUMP JUMPDEST JUMPDEST DUP3 DUP3 MOD SWAP1 POP SWAP3 SWAP2 POP POP JUMP JUMPDEST PUSH32 0x4E487B7100000000000000000000000000000000000000000000000000000000 PUSH1 0x0 MSTORE PUSH1 0x11 PUSH1 0x4 MSTORE PUSH1 0x24 PUSH1 0x0 REVERT JUMPDEST PUSH32 0x4E487B7100000000000000000000000000000000000000000000000000000000 PUSH1 0x0 MSTORE PUSH1 0x12 PUSH1 0x4 MSTORE PUSH1 0x24 PUSH1 0x0 REVERT JUMPDEST PUSH32 0x4E487B7100000000000000000000000000000000000000000000000000000000 PUSH1 0x0 MSTORE PUSH1 0x22 PUSH1 0x4 MSTORE PUSH1 0x24 PUSH1 0x0 REVERT JUMPDEST PUSH32 0x4E487B7100000000000000000000000000000000000000000000000000000000 PUSH1 0x0 MSTORE PUSH1 0x32 PUSH1 0x4 MSTORE PUSH1 0x24 PUSH1 0x0 REVERT JUMPDEST PUSH32 0x4E487B7100000000000000000000000000000000000000000000000000000000 PUSH1 0x0 MSTORE PUSH1 0x41 PUSH1 0x4 MSTORE PUSH1 0x24 PUSH1 0x0 REVERT JUMPDEST PUSH1 0x0 PUSH2 0x2BC0 DUP3 MLOAD PUSH2 0x28B2 JUMP JUMPDEST DUP1 SWAP2 POP POP SWAP2 SWAP1 POP JUMP JUMPDEST PUSH1 0x0 PUSH1 0x3 RETURNDATASIZE GT ISZERO PUSH2 0x2BE8 JUMPI PUSH1 0x4 PUSH1 0x0 DUP1 RETURNDATACOPY PUSH2 0x2BE5 PUSH1 0x0 MLOAD PUSH2 0x2C1B JUMP JUMPDEST SWAP1 POP JUMPDEST SWAP1 JUMP JUMPDEST PUSH1 0x0 DUP1 REVERT JUMPDEST PUSH1 0x0 PUSH1 0x1F NOT PUSH1 0x1F DUP4 ADD AND SWAP1 POP SWAP2 SWAP1 POP JUMP JUMPDEST PUSH1 0x0 DUP2 PUSH1 0x60 SHL SWAP1 POP SWAP2 SWAP1 POP JUMP JUMPDEST PUSH1 0x0 DUP3 DUP3 SHL SWAP1 POP SWAP3 SWAP2 POP POP JUMP JUMPDEST PUSH1 0x0 DUP2 PUSH1 0xE0 SHR SWAP1 POP SWAP2 SWAP1 POP JUMP JUMPDEST PUSH32 0x455243313135353A207472616E7366657220746F206E6F6E2045524331313535 PUSH1 0x0 DUP3 ADD MSTORE PUSH32 0x526563656976657220696D706C656D656E746572000000000000000000000000 PUSH1 0x20 DUP3 ADD MSTORE POP JUMP JUMPDEST PUSH32 0x455243313135353A204552433131353552656365697665722072656A65637465 PUSH1 0x0 DUP3 ADD MSTORE PUSH32 0x6420746F6B656E73000000000000000000000000000000000000000000000000 PUSH1 0x20 DUP3 ADD MSTORE POP JUMP JUMPDEST PUSH32 0x4572726F7221204E6F7420456E6F7567682042616C616E636500000000000000 PUSH1 0x0 DUP3 ADD MSTORE POP JUMP JUMPDEST PUSH32 0x4469616D6F6E645F000000000000000000000000000000000000000000000000 PUSH1 0x0 DUP3 ADD MSTORE POP JUMP JUMPDEST PUSH32 0x4D696E7420466565204E6F742053657400000000000000000000000000000000 PUSH1 0x0 DUP3 ADD MSTORE POP JUMP JUMPDEST PUSH32 0x476F6C645F000000000000000000000000000000000000000000000000000000 PUSH1 0x0 DUP3 ADD MSTORE POP JUMP JUMPDEST PUSH32 0x4E6F7420456E6F7567682042616C616E63650000000000000000000000000000 PUSH1 0x0 DUP3 ADD MSTORE POP JUMP JUMPDEST PUSH32 0x44726F707369746520697320616C72656164792052756E6E696E670000000000 PUSH1 0x0 DUP3 ADD MSTORE POP JUMP JUMPDEST PUSH32 0x44726F707369746520697320616C72656164792053746F707065640000000000 PUSH1 0x0 DUP3 ADD MSTORE POP JUMP JUMPDEST PUSH32 0x596F752063616E206D696E7420312D33204E4654730000000000000000000000 PUSH1 0x0 DUP3 ADD MSTORE POP JUMP JUMPDEST PUSH32 0x4F6E6C79204E46542D4553204F776E65722063616E2041636365737300000000 PUSH1 0x0 DUP3 ADD MSTORE POP JUMP JUMPDEST PUSH32 0x4F776E65722053686F756C6420736574206D696E742046656520466972737400 PUSH1 0x0 DUP3 ADD MSTORE POP JUMP JUMPDEST PUSH32 0x44726F7073697465206973206E6F74204F70656E6564205965742E0000000000 PUSH1 0x0 DUP3 ADD MSTORE POP JUMP JUMPDEST PUSH32 0x4D6178204D696E74696E67204C696D6974207265616368656400000000000000 PUSH1 0x0 DUP3 ADD MSTORE POP JUMP JUMPDEST PUSH32 0x53696C7665725F00000000000000000000000000000000000000000000000000 PUSH1 0x0 DUP3 ADD MSTORE POP JUMP JUMPDEST PUSH32 0x455243313135353A206D696E7420746F20746865207A65726F20616464726573 PUSH1 0x0 DUP3 ADD MSTORE PUSH32 0x7300000000000000000000000000000000000000000000000000000000000000 PUSH1 0x20 DUP3 ADD MSTORE POP JUMP JUMPDEST PUSH1 0x0 PUSH1 0x44 RETURNDATASIZE LT ISZERO PUSH2 0x2F3A JUMPI PUSH2 0x2FBD JUMP JUMPDEST PUSH2 0x2F42 PUSH2 0x26AF JUMP JUMPDEST PUSH1 0x4 RETURNDATASIZE SUB PUSH1 0x4 DUP3 RETURNDATACOPY DUP1 MLOAD RETURNDATASIZE PUSH1 0x24 DUP3 ADD GT PUSH8 0xFFFFFFFFFFFFFFFF DUP3 GT OR ISZERO PUSH2 0x2F6A JUMPI POP POP PUSH2 0x2FBD JUMP JUMPDEST DUP1 DUP3 ADD DUP1 MLOAD PUSH8 0xFFFFFFFFFFFFFFFF DUP2 GT ISZERO PUSH2 0x2F88 JUMPI POP POP POP POP PUSH2 0x2FBD JUMP JUMPDEST DUP1 PUSH1 0x20 DUP4 ADD ADD PUSH1 0x4 RETURNDATASIZE SUB DUP6 ADD DUP2 GT ISZERO PUSH2 0x2FA5 JUMPI POP POP POP POP POP PUSH2 0x2FBD JUMP JUMPDEST PUSH2 0x2FB4 DUP3 PUSH1 0x20 ADD DUP6 ADD DUP7 PUSH2 0x29DE JUMP JUMPDEST DUP3 SWAP6 POP POP POP POP POP POP JUMPDEST SWAP1 JUMP JUMPDEST PUSH2 0x2FC9 DUP2 PUSH2 0x2882 JUMP JUMPDEST DUP2 EQ PUSH2 0x2FD4 JUMPI PUSH1 0x0 DUP1 REVERT JUMPDEST POP JUMP JUMPDEST PUSH2 0x2FE0 DUP2 PUSH2 0x2894 JUMP JUMPDEST DUP2 EQ PUSH2 0x2FEB JUMPI PUSH1 0x0 DUP1 REVERT JUMPDEST POP JUMP JUMPDEST PUSH2 0x2FF7 DUP2 PUSH2 0x28BC JUMP JUMPDEST DUP2 EQ PUSH2 0x3002 JUMPI PUSH1 0x0 DUP1 REVERT JUMPDEST POP JUMP JUMPDEST PUSH2 0x300E DUP2 PUSH2 0x2908 JUMP JUMPDEST DUP2 EQ PUSH2 0x3019 JUMPI PUSH1 0x0 DUP1 REVERT JUMPDEST POP JUMP INVALID LOG2 PUSH5 0x6970667358 0x22 SLT KECCAK256 0xB6 MOD 0xD PUSH8 0xC01E694AB18197AC 0xBB 0xBF 0xEB PUSH21 0xB7B162418C371A08539C846ADDBD13FA64736F6C63 NUMBER STOP ADDMOD SMOD STOP CALLER "
				},
				"gasEstimates": {
					"creation": {
						"codeDepositCost": "2474000",
						"executionCost": "infinite",
						"totalCost": "infinite"
					},
					"external": {
						"Owner()": "2608",
						"changeOwner(address)": "29265",
						"checkMintedCategoryWise()": "infinite",
						"checkTotalMinted()": "2461",
						"contractBalance()": "2736",
						"cryptoRandomMint(address,uint256)": "infinite",
						"fiatRandomMint(address,uint256)": "infinite",
						"getMintFee()": "2460",
						"isAdmin()": "2643",
						"isPaused()": "2493",
						"openDropsite()": "28883",
						"returnNftsOwner(address)": "infinite",
						"setMintFee(uint256)": "24863",
						"stopDropsite()": "28926",
						"withDraw(address,uint256)": "infinite"
					},
					"internal": {
						"depositAmount(address,uint256)": "infinite",
						"random()": "infinite",
						"randomMinting(address)": "infinite",
						"updateConditions(uint256)": "infinite"
					}
				},
				"methodIdentifiers": {
					"Owner()": "b4a99a4e",
					"changeOwner(address)": "a6f9dae1",
					"checkMintedCategoryWise()": "60daa851",
					"checkTotalMinted()": "0390c11c",
					"contractBalance()": "8b7afe2e",
					"cryptoRandomMint(address,uint256)": "5b27d84e",
					"fiatRandomMint(address,uint256)": "5e1f0556",
					"getMintFee()": "7a5caab3",
					"isAdmin()": "b6db75a0",
					"isPaused()": "b187bd26",
					"openDropsite()": "15460259",
					"returnNftsOwner(address)": "225011da",
					"setMintFee(uint256)": "eddd0d9c",
					"stopDropsite()": "aa90c726",
					"withDraw(address,uint256)": "191e2e83"
				}
			},
			"storageLayout": {
				"storage": [
					{
						"astId": 611,
						"contract": "NFTES_Drop_flat.sol:NFTES_Drop",
						"label": "_balances",
						"offset": 0,
						"slot": "0",
						"type": "t_mapping(t_uint256,t_mapping(t_address,t_uint256))"
					},
					{
						"astId": 617,
						"contract": "NFTES_Drop_flat.sol:NFTES_Drop",
						"label": "_operatorApprovals",
						"offset": 0,
						"slot": "1",
						"type": "t_mapping(t_address,t_mapping(t_address,t_bool))"
					},
					{
						"astId": 807,
						"contract": "NFTES_Drop_flat.sol:NFTES_Drop",
						"label": "data",
						"offset": 0,
						"slot": "2",
						"type": "t_string_storage"
					},
					{
						"astId": 809,
						"contract": "NFTES_Drop_flat.sol:NFTES_Drop",
						"label": "totalNFTsMinted",
						"offset": 0,
						"slot": "3",
						"type": "t_uint256"
					},
					{
						"astId": 811,
						"contract": "NFTES_Drop_flat.sol:NFTES_Drop",
						"label": "numOfCopies",
						"offset": 0,
						"slot": "4",
						"type": "t_uint256"
					},
					{
						"astId": 813,
						"contract": "NFTES_Drop_flat.sol:NFTES_Drop",
						"label": "mintFees",
						"offset": 0,
						"slot": "5",
						"type": "t_uint256"
					},
					{
						"astId": 815,
						"contract": "NFTES_Drop_flat.sol:NFTES_Drop",
						"label": "Diamond",
						"offset": 0,
						"slot": "6",
						"type": "t_uint256"
					},
					{
						"astId": 817,
						"contract": "NFTES_Drop_flat.sol:NFTES_Drop",
						"label": "Gold",
						"offset": 0,
						"slot": "7",
						"type": "t_uint256"
					},
					{
						"astId": 819,
						"contract": "NFTES_Drop_flat.sol:NFTES_Drop",
						"label": "Silver",
						"offset": 0,
						"slot": "8",
						"type": "t_uint256"
					},
					{
						"astId": 822,
						"contract": "NFTES_Drop_flat.sol:NFTES_Drop",
						"label": "maxDiamondCount",
						"offset": 0,
						"slot": "9",
						"type": "t_uint256"
					},
					{
						"astId": 825,
						"contract": "NFTES_Drop_flat.sol:NFTES_Drop",
						"label": "maxGoldCount",
						"offset": 0,
						"slot": "10",
						"type": "t_uint256"
					},
					{
						"astId": 828,
						"contract": "NFTES_Drop_flat.sol:NFTES_Drop",
						"label": "maxSilverCount",
						"offset": 0,
						"slot": "11",
						"type": "t_uint256"
					},
					{
						"astId": 837,
						"contract": "NFTES_Drop_flat.sol:NFTES_Drop",
						"label": "dropsite_NFT_Owner",
						"offset": 0,
						"slot": "12",
						"type": "t_mapping(t_address,t_struct(nft_Owner)832_storage)"
					},
					{
						"astId": 841,
						"contract": "NFTES_Drop_flat.sol:NFTES_Drop",
						"label": "deposits",
						"offset": 0,
						"slot": "13",
						"type": "t_mapping(t_address,t_uint256)"
					},
					{
						"astId": 878,
						"contract": "NFTES_Drop_flat.sol:NFTES_Drop",
						"label": "isPaused",
						"offset": 0,
						"slot": "14",
						"type": "t_bool"
					},
					{
						"astId": 880,
						"contract": "NFTES_Drop_flat.sol:NFTES_Drop",
						"label": "Owner",
						"offset": 1,
						"slot": "14",
						"type": "t_address_payable"
					},
					{
						"astId": 882,
						"contract": "NFTES_Drop_flat.sol:NFTES_Drop",
						"label": "_name",
						"offset": 0,
						"slot": "15",
						"type": "t_string_storage"
					}
				],
				"types": {
					"t_address": {
						"encoding": "inplace",
						"label": "address",
						"numberOfBytes": "20"
					},
					"t_address_payable": {
						"encoding": "inplace",
						"label": "address payable",
						"numberOfBytes": "20"
					},
					"t_array(t_uint256)dyn_storage": {
						"base": "t_uint256",
						"encoding": "dynamic_array",
						"label": "uint256[]",
						"numberOfBytes": "32"
					},
					"t_bool": {
						"encoding": "inplace",
						"label": "bool",
						"numberOfBytes": "1"
					},
					"t_mapping(t_address,t_bool)": {
						"encoding": "mapping",
						"key": "t_address",
						"label": "mapping(address => bool)",
						"numberOfBytes": "32",
						"value": "t_bool"
					},
					"t_mapping(t_address,t_mapping(t_address,t_bool))": {
						"encoding": "mapping",
						"key": "t_address",
						"label": "mapping(address => mapping(address => bool))",
						"numberOfBytes": "32",
						"value": "t_mapping(t_address,t_bool)"
					},
					"t_mapping(t_address,t_struct(nft_Owner)832_storage)": {
						"encoding": "mapping",
						"key": "t_address",
						"label": "mapping(address => struct NFTES_Drop.nft_Owner)",
						"numberOfBytes": "32",
						"value": "t_struct(nft_Owner)832_storage"
					},
					"t_mapping(t_address,t_uint256)": {
						"encoding": "mapping",
						"key": "t_address",
						"label": "mapping(address => uint256)",
						"numberOfBytes": "32",
						"value": "t_uint256"
					},
					"t_mapping(t_uint256,t_mapping(t_address,t_uint256))": {
						"encoding": "mapping",
						"key": "t_uint256",
						"label": "mapping(uint256 => mapping(address => uint256))",
						"numberOfBytes": "32",
						"value": "t_mapping(t_address,t_uint256)"
					},
					"t_string_storage": {
						"encoding": "bytes",
						"label": "string",
						"numberOfBytes": "32"
					},
					"t_struct(nft_Owner)832_storage": {
						"encoding": "inplace",
						"label": "struct NFTES_Drop.nft_Owner",
						"members": [
							{
								"astId": 831,
								"contract": "NFTES_Drop_flat.sol:NFTES_Drop",
								"label": "owned_Dropsite_NFTs",
								"offset": 0,
								"slot": "0",
								"type": "t_array(t_uint256)dyn_storage"
							}
						],
						"numberOfBytes": "32"
					},
					"t_uint256": {
						"encoding": "inplace",
						"label": "uint256",
						"numberOfBytes": "32"
					}
				}
			},
			"userdoc": {
				"kind": "user",
				"methods": {},
				"version": 1
			}
		}
	}
}