{
	"Dropsite.sol": {
		"Dropsite": {
			"abi": [
				{
					"inputs": [
						{
							"internalType": "string",
							"name": "name",
							"type": "string"
						}
					],
					"stateMutability": "nonpayable",
					"type": "constructor"
				},
				{
					"anonymous": false,
					"inputs": [
						{
							"indexed": true,
							"internalType": "address",
							"name": "operator",
							"type": "address"
						},
						{
							"indexed": true,
							"internalType": "address",
							"name": "from",
							"type": "address"
						},
						{
							"indexed": true,
							"internalType": "address",
							"name": "to",
							"type": "address"
						},
						{
							"indexed": false,
							"internalType": "uint256",
							"name": "id",
							"type": "uint256"
						},
						{
							"indexed": false,
							"internalType": "uint256",
							"name": "value",
							"type": "uint256"
						}
					],
					"name": "TransferSingle",
					"type": "event"
				},
				{
					"inputs": [],
					"name": "ContractBalance",
					"outputs": [
						{
							"internalType": "uint256",
							"name": "",
							"type": "uint256"
						}
					],
					"stateMutability": "view",
					"type": "function"
				},
				{
					"inputs": [
						{
							"internalType": "address",
							"name": "user_addr",
							"type": "address"
						}
					],
					"name": "CryptoRandomMint",
					"outputs": [
						{
							"internalType": "uint256",
							"name": "",
							"type": "uint256"
						},
						{
							"internalType": "string",
							"name": "",
							"type": "string"
						}
					],
					"stateMutability": "payable",
					"type": "function"
				},
				{
					"inputs": [
						{
							"internalType": "address",
							"name": "user_addr",
							"type": "address"
						}
					],
					"name": "FiatRandomMint",
					"outputs": [
						{
							"internalType": "uint256",
							"name": "",
							"type": "uint256"
						},
						{
							"internalType": "string",
							"name": "",
							"type": "string"
						}
					],
					"stateMutability": "nonpayable",
					"type": "function"
				},
				{
					"inputs": [],
					"name": "IsPaused",
					"outputs": [
						{
							"internalType": "bool",
							"name": "",
							"type": "bool"
						}
					],
					"stateMutability": "view",
					"type": "function"
				},
				{
					"inputs": [],
					"name": "Owner",
					"outputs": [
						{
							"internalType": "address payable",
							"name": "",
							"type": "address"
						}
					],
					"stateMutability": "view",
					"type": "function"
				},
				{
					"inputs": [],
					"name": "checkMintedCategoryWise",
					"outputs": [
						{
							"internalType": "uint256",
							"name": "",
							"type": "uint256"
						},
						{
							"internalType": "uint256",
							"name": "",
							"type": "uint256"
						},
						{
							"internalType": "uint256",
							"name": "",
							"type": "uint256"
						}
					],
					"stateMutability": "view",
					"type": "function"
				},
				{
					"inputs": [],
					"name": "checkTotalMinted",
					"outputs": [
						{
							"internalType": "uint256",
							"name": "",
							"type": "uint256"
						}
					],
					"stateMutability": "view",
					"type": "function"
				},
				{
					"inputs": [],
					"name": "getMintFee",
					"outputs": [
						{
							"internalType": "uint256",
							"name": "",
							"type": "uint256"
						}
					],
					"stateMutability": "view",
					"type": "function"
				},
				{
					"inputs": [],
					"name": "openDropsite",
					"outputs": [],
					"stateMutability": "nonpayable",
					"type": "function"
				},
				{
					"inputs": [
						{
							"internalType": "address",
							"name": "addr",
							"type": "address"
						}
					],
					"name": "returnOwner",
					"outputs": [
						{
							"internalType": "uint256[]",
							"name": "",
							"type": "uint256[]"
						}
					],
					"stateMutability": "view",
					"type": "function"
				},
				{
					"inputs": [
						{
							"internalType": "uint256",
							"name": "_mintFee",
							"type": "uint256"
						}
					],
					"name": "setMintFee",
					"outputs": [],
					"stateMutability": "nonpayable",
					"type": "function"
				},
				{
					"inputs": [],
					"name": "stopDropsite",
					"outputs": [],
					"stateMutability": "nonpayable",
					"type": "function"
				},
				{
					"inputs": [
						{
							"internalType": "address payable",
							"name": "to",
							"type": "address"
						}
					],
					"name": "withDraw",
					"outputs": [],
					"stateMutability": "payable",
					"type": "function"
				}
			],
			"devdoc": {
				"kind": "dev",
				"methods": {},
				"version": 1
			},
			"evm": {
				"assembly": "    /* \"Dropsite.sol\":146:6539  contract Dropsite is ERC1155_Dropsite  { ... */\n  mstore(0x40, 0x80)\n    /* \"Dropsite.sol\":241:257  string  data =\"\" */\n  mload(0x40)\n  dup1\n  0x20\n  add\n  0x40\n  mstore\n  dup1\n  0x00\n  dup2\n  mstore\n  pop\n  0x02\n  swap1\n  dup1\n  mload\n  swap1\n  0x20\n  add\n  swap1\n  tag_1\n  swap3\n  swap2\n  swap1\n  tag_2\n  jump\t// in\ntag_1:\n  pop\n    /* \"Dropsite.sol\":440:506  uint8[20] private nums = [0,1,1,2,2,2,2,2,2,2,2,2,2,2,2,2,2,2,2,2] */\n  mload(0x40)\n  dup1\n  0x0280\n  add\n  0x40\n  mstore\n  dup1\n    /* \"Dropsite.sol\":466:467  0 */\n  0x00\n    /* \"Dropsite.sol\":440:506  uint8[20] private nums = [0,1,1,2,2,2,2,2,2,2,2,2,2,2,2,2,2,2,2,2] */\n  0xff\n  and\n  dup2\n  mstore\n  0x20\n  add\n    /* \"Dropsite.sol\":468:469  1 */\n  0x01\n    /* \"Dropsite.sol\":440:506  uint8[20] private nums = [0,1,1,2,2,2,2,2,2,2,2,2,2,2,2,2,2,2,2,2] */\n  0xff\n  and\n  dup2\n  mstore\n  0x20\n  add\n    /* \"Dropsite.sol\":470:471  1 */\n  0x01\n    /* \"Dropsite.sol\":440:506  uint8[20] private nums = [0,1,1,2,2,2,2,2,2,2,2,2,2,2,2,2,2,2,2,2] */\n  0xff\n  and\n  dup2\n  mstore\n  0x20\n  add\n    /* \"Dropsite.sol\":472:473  2 */\n  0x02\n    /* \"Dropsite.sol\":440:506  uint8[20] private nums = [0,1,1,2,2,2,2,2,2,2,2,2,2,2,2,2,2,2,2,2] */\n  0xff\n  and\n  dup2\n  mstore\n  0x20\n  add\n    /* \"Dropsite.sol\":474:475  2 */\n  0x02\n    /* \"Dropsite.sol\":440:506  uint8[20] private nums = [0,1,1,2,2,2,2,2,2,2,2,2,2,2,2,2,2,2,2,2] */\n  0xff\n  and\n  dup2\n  mstore\n  0x20\n  add\n    /* \"Dropsite.sol\":476:477  2 */\n  0x02\n    /* \"Dropsite.sol\":440:506  uint8[20] private nums = [0,1,1,2,2,2,2,2,2,2,2,2,2,2,2,2,2,2,2,2] */\n  0xff\n  and\n  dup2\n  mstore\n  0x20\n  add\n    /* \"Dropsite.sol\":478:479  2 */\n  0x02\n    /* \"Dropsite.sol\":440:506  uint8[20] private nums = [0,1,1,2,2,2,2,2,2,2,2,2,2,2,2,2,2,2,2,2] */\n  0xff\n  and\n  dup2\n  mstore\n  0x20\n  add\n    /* \"Dropsite.sol\":480:481  2 */\n  0x02\n    /* \"Dropsite.sol\":440:506  uint8[20] private nums = [0,1,1,2,2,2,2,2,2,2,2,2,2,2,2,2,2,2,2,2] */\n  0xff\n  and\n  dup2\n  mstore\n  0x20\n  add\n    /* \"Dropsite.sol\":482:483  2 */\n  0x02\n    /* \"Dropsite.sol\":440:506  uint8[20] private nums = [0,1,1,2,2,2,2,2,2,2,2,2,2,2,2,2,2,2,2,2] */\n  0xff\n  and\n  dup2\n  mstore\n  0x20\n  add\n    /* \"Dropsite.sol\":484:485  2 */\n  0x02\n    /* \"Dropsite.sol\":440:506  uint8[20] private nums = [0,1,1,2,2,2,2,2,2,2,2,2,2,2,2,2,2,2,2,2] */\n  0xff\n  and\n  dup2\n  mstore\n  0x20\n  add\n    /* \"Dropsite.sol\":486:487  2 */\n  0x02\n    /* \"Dropsite.sol\":440:506  uint8[20] private nums = [0,1,1,2,2,2,2,2,2,2,2,2,2,2,2,2,2,2,2,2] */\n  0xff\n  and\n  dup2\n  mstore\n  0x20\n  add\n    /* \"Dropsite.sol\":488:489  2 */\n  0x02\n    /* \"Dropsite.sol\":440:506  uint8[20] private nums = [0,1,1,2,2,2,2,2,2,2,2,2,2,2,2,2,2,2,2,2] */\n  0xff\n  and\n  dup2\n  mstore\n  0x20\n  add\n    /* \"Dropsite.sol\":490:491  2 */\n  0x02\n    /* \"Dropsite.sol\":440:506  uint8[20] private nums = [0,1,1,2,2,2,2,2,2,2,2,2,2,2,2,2,2,2,2,2] */\n  0xff\n  and\n  dup2\n  mstore\n  0x20\n  add\n    /* \"Dropsite.sol\":492:493  2 */\n  0x02\n    /* \"Dropsite.sol\":440:506  uint8[20] private nums = [0,1,1,2,2,2,2,2,2,2,2,2,2,2,2,2,2,2,2,2] */\n  0xff\n  and\n  dup2\n  mstore\n  0x20\n  add\n    /* \"Dropsite.sol\":494:495  2 */\n  0x02\n    /* \"Dropsite.sol\":440:506  uint8[20] private nums = [0,1,1,2,2,2,2,2,2,2,2,2,2,2,2,2,2,2,2,2] */\n  0xff\n  and\n  dup2\n  mstore\n  0x20\n  add\n    /* \"Dropsite.sol\":496:497  2 */\n  0x02\n    /* \"Dropsite.sol\":440:506  uint8[20] private nums = [0,1,1,2,2,2,2,2,2,2,2,2,2,2,2,2,2,2,2,2] */\n  0xff\n  and\n  dup2\n  mstore\n  0x20\n  add\n    /* \"Dropsite.sol\":498:499  2 */\n  0x02\n    /* \"Dropsite.sol\":440:506  uint8[20] private nums = [0,1,1,2,2,2,2,2,2,2,2,2,2,2,2,2,2,2,2,2] */\n  0xff\n  and\n  dup2\n  mstore\n  0x20\n  add\n    /* \"Dropsite.sol\":500:501  2 */\n  0x02\n    /* \"Dropsite.sol\":440:506  uint8[20] private nums = [0,1,1,2,2,2,2,2,2,2,2,2,2,2,2,2,2,2,2,2] */\n  0xff\n  and\n  dup2\n  mstore\n  0x20\n  add\n    /* \"Dropsite.sol\":502:503  2 */\n  0x02\n    /* \"Dropsite.sol\":440:506  uint8[20] private nums = [0,1,1,2,2,2,2,2,2,2,2,2,2,2,2,2,2,2,2,2] */\n  0xff\n  and\n  dup2\n  mstore\n  0x20\n  add\n    /* \"Dropsite.sol\":504:505  2 */\n  0x02\n    /* \"Dropsite.sol\":440:506  uint8[20] private nums = [0,1,1,2,2,2,2,2,2,2,2,2,2,2,2,2,2,2,2,2] */\n  0xff\n  and\n  dup2\n  mstore\n  pop\n  0x03\n  swap1\n  0x14\n  tag_3\n  swap3\n  swap2\n  swap1\n  tag_4\n  jump\t// in\ntag_3:\n  pop\n    /* \"Dropsite.sol\":1269:1273  true */\n  0x01\n    /* \"Dropsite.sol\":1246:1273  bool public IsPaused = true */\n  0x0c\n  exp(0x0100, 0x00)\n  dup2\n  sload\n  dup2\n  0xff\n  mul\n  not\n  and\n  swap1\n  dup4\n  iszero\n  iszero\n  mul\n  or\n  swap1\n  sstore\n  pop\n    /* \"Dropsite.sol\":1340:1615  constructor (string memory name){... */\n  callvalue\n  dup1\n  iszero\n  tag_5\n  jumpi\n  0x00\n  dup1\n  revert\ntag_5:\n  pop\n  mload(0x40)\n  sub(codesize, bytecodeSize)\n  dup1\n  bytecodeSize\n  dup4\n  codecopy\n  dup2\n  dup2\n  add\n  0x40\n  mstore\n  dup2\n  add\n  swap1\n  tag_6\n  swap2\n  swap1\n  tag_7\n  jump\t// in\ntag_6:\n    /* \"Dropsite.sol\":1390:1394  name */\n  dup1\n    /* \"Dropsite.sol\":1382:1387  _name */\n  0x0d\n    /* \"Dropsite.sol\":1382:1394  _name = name */\n  swap1\n  dup1\n  mload\n  swap1\n  0x20\n  add\n  swap1\n  tag_10\n  swap3\n  swap2\n  swap1\n  tag_2\n  jump\t// in\ntag_10:\n  pop\n    /* \"Dropsite.sol\":1420:1430  msg.sender */\n  caller\n    /* \"Dropsite.sol\":1404:1409  Owner */\n  0x0c\n  0x01\n    /* \"Dropsite.sol\":1404:1431  Owner = payable(msg.sender) */\n  0x0100\n  exp\n  dup2\n  sload\n  dup2\n  0xffffffffffffffffffffffffffffffffffffffff\n  mul\n  not\n  and\n  swap1\n  dup4\n  0xffffffffffffffffffffffffffffffffffffffff\n  and\n  mul\n  or\n  swap1\n  sstore\n  pop\n    /* \"Dropsite.sol\":1458:1459  0 */\n  0x00\n    /* \"Dropsite.sol\":1442:1457  TotalNFTsMinted */\n  0x04\n    /* \"Dropsite.sol\":1442:1459  TotalNFTsMinted=0 */\n  dup2\n  swap1\n  sstore\n  pop\n    /* \"Dropsite.sol\":1505:1506  1 */\n  0x01\n    /* \"Dropsite.sol\":1493:1504  numOfCopies */\n  0x05\n    /* \"Dropsite.sol\":1493:1506  numOfCopies=1 */\n  dup2\n  swap1\n  sstore\n  pop\n    /* \"Dropsite.sol\":1561:1562  0 */\n  0x00\n    /* \"Dropsite.sol\":1553:1560  Diamond */\n  0x07\n    /* \"Dropsite.sol\":1553:1562  Diamond=0 */\n  dup2\n  swap1\n  sstore\n  pop\n    /* \"Dropsite.sol\":1589:1590  0 */\n  0x00\n    /* \"Dropsite.sol\":1584:1588  Gold */\n  0x08\n    /* \"Dropsite.sol\":1584:1590  Gold=0 */\n  dup2\n  swap1\n  sstore\n  pop\n    /* \"Dropsite.sol\":1607:1608  0 */\n  0x00\n    /* \"Dropsite.sol\":1600:1606  Silver */\n  0x09\n    /* \"Dropsite.sol\":1600:1608  Silver=0 */\n  dup2\n  swap1\n  sstore\n  pop\n    /* \"Dropsite.sol\":1340:1615  constructor (string memory name){... */\n  pop\n    /* \"Dropsite.sol\":146:6539  contract Dropsite is ERC1155_Dropsite  { ... */\n  jump(tag_11)\ntag_2:\n  dup3\n  dup1\n  sload\n  tag_12\n  swap1\n  tag_13\n  jump\t// in\ntag_12:\n  swap1\n  0x00\n  mstore\n  keccak256(0x00, 0x20)\n  swap1\n  0x1f\n  add\n  0x20\n  swap1\n  div\n  dup2\n  add\n  swap3\n  dup3\n  tag_15\n  jumpi\n  0x00\n  dup6\n  sstore\n  jump(tag_14)\ntag_15:\n  dup3\n  0x1f\n  lt\n  tag_16\n  jumpi\n  dup1\n  mload\n  not(0xff)\n  and\n  dup4\n  dup1\n  add\n  or\n  dup6\n  sstore\n  jump(tag_14)\ntag_16:\n  dup3\n  dup1\n  add\n  0x01\n  add\n  dup6\n  sstore\n  dup3\n  iszero\n  tag_14\n  jumpi\n  swap2\n  dup3\n  add\ntag_17:\n  dup3\n  dup2\n  gt\n  iszero\n  tag_18\n  jumpi\n  dup3\n  mload\n  dup3\n  sstore\n  swap2\n  0x20\n  add\n  swap2\n  swap1\n  0x01\n  add\n  swap1\n  jump(tag_17)\ntag_18:\ntag_14:\n  pop\n  swap1\n  pop\n  tag_19\n  swap2\n  swap1\n  tag_20\n  jump\t// in\ntag_19:\n  pop\n  swap1\n  jump\t// out\ntag_4:\n  dup3\n  add(0x1f, 0x14)\n  0x20\n  swap1\n  div\n  dup2\n  add\n  swap3\n  dup3\n  iszero\n  tag_21\n  jumpi\n  swap2\n  0x20\n  mul\n  dup3\n  add\n  0x00\ntag_22:\n  dup4\n  dup3\n  gt\n  iszero\n  tag_23\n  jumpi\n  dup4\n  mload\n  dup4\n  dup3\n  0x0100\n  exp\n  dup2\n  sload\n  dup2\n  0xff\n  mul\n  not\n  and\n  swap1\n  dup4\n  0xff\n  and\n  mul\n  or\n  swap1\n  sstore\n  pop\n  swap3\n  0x20\n  add\n  swap3\n  0x01\n  add\n  0x20\n  dup2\n  0x00\n  add\n  div\n  swap3\n  dup4\n  add\n  swap3\n  0x01\n  sub\n  mul\n  jump(tag_22)\ntag_23:\n  dup1\n  iszero\n  tag_24\n  jumpi\n  dup3\n  dup2\n  0x0100\n  exp\n  dup2\n  sload\n  swap1\n  0xff\n  mul\n  not\n  and\n  swap1\n  sstore\n  0x01\n  add\n  0x20\n  dup2\n  0x00\n  add\n  div\n  swap3\n  dup4\n  add\n  swap3\n  0x01\n  sub\n  mul\n  jump(tag_23)\ntag_24:\n  pop\ntag_21:\n  pop\n  swap1\n  pop\n  tag_25\n  swap2\n  swap1\n  tag_20\n  jump\t// in\ntag_25:\n  pop\n  swap1\n  jump\t// out\ntag_20:\ntag_26:\n  dup1\n  dup3\n  gt\n  iszero\n  tag_27\n  jumpi\n  0x00\n  dup2\n  0x00\n  swap1\n  sstore\n  pop\n  0x01\n  add\n  jump(tag_26)\ntag_27:\n  pop\n  swap1\n  jump\t// out\n    /* \"#utility.yul\":7:428   */\ntag_29:\n    /* \"#utility.yul\":96:101   */\n  0x00\n    /* \"#utility.yul\":121:187   */\n  tag_31\n    /* \"#utility.yul\":137:186   */\n  tag_32\n    /* \"#utility.yul\":179:185   */\n  dup5\n    /* \"#utility.yul\":137:186   */\n  tag_33\n  jump\t// in\ntag_32:\n    /* \"#utility.yul\":121:187   */\n  tag_34\n  jump\t// in\ntag_31:\n    /* \"#utility.yul\":112:187   */\n  swap1\n  pop\n    /* \"#utility.yul\":210:216   */\n  dup3\n    /* \"#utility.yul\":203:208   */\n  dup2\n    /* \"#utility.yul\":196:217   */\n  mstore\n    /* \"#utility.yul\":248:252   */\n  0x20\n    /* \"#utility.yul\":241:246   */\n  dup2\n    /* \"#utility.yul\":237:253   */\n  add\n    /* \"#utility.yul\":286:289   */\n  dup5\n    /* \"#utility.yul\":277:283   */\n  dup5\n    /* \"#utility.yul\":272:275   */\n  dup5\n    /* \"#utility.yul\":268:284   */\n  add\n    /* \"#utility.yul\":265:290   */\n  gt\n    /* \"#utility.yul\":262:374   */\n  iszero\n  tag_35\n  jumpi\n    /* \"#utility.yul\":293:372   */\n  tag_36\n  tag_37\n  jump\t// in\ntag_36:\n    /* \"#utility.yul\":262:374   */\ntag_35:\n    /* \"#utility.yul\":383:422   */\n  tag_38\n    /* \"#utility.yul\":415:421   */\n  dup5\n    /* \"#utility.yul\":410:413   */\n  dup3\n    /* \"#utility.yul\":405:408   */\n  dup6\n    /* \"#utility.yul\":383:422   */\n  tag_39\n  jump\t// in\ntag_38:\n    /* \"#utility.yul\":102:428   */\n  pop\n    /* \"#utility.yul\":7:428   */\n  swap4\n  swap3\n  pop\n  pop\n  pop\n  jump\t// out\n    /* \"#utility.yul\":448:803   */\ntag_40:\n    /* \"#utility.yul\":515:520   */\n  0x00\n    /* \"#utility.yul\":564:567   */\n  dup3\n    /* \"#utility.yul\":557:561   */\n  0x1f\n    /* \"#utility.yul\":549:555   */\n  dup4\n    /* \"#utility.yul\":545:562   */\n  add\n    /* \"#utility.yul\":541:568   */\n  slt\n    /* \"#utility.yul\":531:653   */\n  tag_42\n  jumpi\n    /* \"#utility.yul\":572:651   */\n  tag_43\n  tag_44\n  jump\t// in\ntag_43:\n    /* \"#utility.yul\":531:653   */\ntag_42:\n    /* \"#utility.yul\":682:688   */\n  dup2\n    /* \"#utility.yul\":676:689   */\n  mload\n    /* \"#utility.yul\":707:797   */\n  tag_45\n    /* \"#utility.yul\":793:796   */\n  dup5\n    /* \"#utility.yul\":785:791   */\n  dup3\n    /* \"#utility.yul\":778:782   */\n  0x20\n    /* \"#utility.yul\":770:776   */\n  dup7\n    /* \"#utility.yul\":766:783   */\n  add\n    /* \"#utility.yul\":707:797   */\n  tag_29\n  jump\t// in\ntag_45:\n    /* \"#utility.yul\":698:797   */\n  swap2\n  pop\n    /* \"#utility.yul\":521:803   */\n  pop\n    /* \"#utility.yul\":448:803   */\n  swap3\n  swap2\n  pop\n  pop\n  jump\t// out\n    /* \"#utility.yul\":809:1333   */\ntag_7:\n    /* \"#utility.yul\":889:895   */\n  0x00\n    /* \"#utility.yul\":938:940   */\n  0x20\n    /* \"#utility.yul\":926:935   */\n  dup3\n    /* \"#utility.yul\":917:924   */\n  dup5\n    /* \"#utility.yul\":913:936   */\n  sub\n    /* \"#utility.yul\":909:941   */\n  slt\n    /* \"#utility.yul\":906:1025   */\n  iszero\n  tag_47\n  jumpi\n    /* \"#utility.yul\":944:1023   */\n  tag_48\n  tag_49\n  jump\t// in\ntag_48:\n    /* \"#utility.yul\":906:1025   */\ntag_47:\n    /* \"#utility.yul\":1085:1086   */\n  0x00\n    /* \"#utility.yul\":1074:1083   */\n  dup3\n    /* \"#utility.yul\":1070:1087   */\n  add\n    /* \"#utility.yul\":1064:1088   */\n  mload\n    /* \"#utility.yul\":1115:1133   */\n  0xffffffffffffffff\n    /* \"#utility.yul\":1107:1113   */\n  dup2\n    /* \"#utility.yul\":1104:1134   */\n  gt\n    /* \"#utility.yul\":1101:1218   */\n  iszero\n  tag_50\n  jumpi\n    /* \"#utility.yul\":1137:1216   */\n  tag_51\n  tag_52\n  jump\t// in\ntag_51:\n    /* \"#utility.yul\":1101:1218   */\ntag_50:\n    /* \"#utility.yul\":1242:1316   */\n  tag_53\n    /* \"#utility.yul\":1308:1315   */\n  dup5\n    /* \"#utility.yul\":1299:1305   */\n  dup3\n    /* \"#utility.yul\":1288:1297   */\n  dup6\n    /* \"#utility.yul\":1284:1306   */\n  add\n    /* \"#utility.yul\":1242:1316   */\n  tag_40\n  jump\t// in\ntag_53:\n    /* \"#utility.yul\":1232:1316   */\n  swap2\n  pop\n    /* \"#utility.yul\":1035:1326   */\n  pop\n    /* \"#utility.yul\":809:1333   */\n  swap3\n  swap2\n  pop\n  pop\n  jump\t// out\n    /* \"#utility.yul\":1339:1468   */\ntag_34:\n    /* \"#utility.yul\":1373:1379   */\n  0x00\n    /* \"#utility.yul\":1400:1420   */\n  tag_55\n  tag_56\n  jump\t// in\ntag_55:\n    /* \"#utility.yul\":1390:1420   */\n  swap1\n  pop\n    /* \"#utility.yul\":1429:1462   */\n  tag_57\n    /* \"#utility.yul\":1457:1461   */\n  dup3\n    /* \"#utility.yul\":1449:1455   */\n  dup3\n    /* \"#utility.yul\":1429:1462   */\n  tag_58\n  jump\t// in\ntag_57:\n    /* \"#utility.yul\":1339:1468   */\n  swap2\n  swap1\n  pop\n  jump\t// out\n    /* \"#utility.yul\":1474:1549   */\ntag_56:\n    /* \"#utility.yul\":1507:1513   */\n  0x00\n    /* \"#utility.yul\":1540:1542   */\n  0x40\n    /* \"#utility.yul\":1534:1543   */\n  mload\n    /* \"#utility.yul\":1524:1543   */\n  swap1\n  pop\n    /* \"#utility.yul\":1474:1549   */\n  swap1\n  jump\t// out\n    /* \"#utility.yul\":1555:1863   */\ntag_33:\n    /* \"#utility.yul\":1617:1621   */\n  0x00\n    /* \"#utility.yul\":1707:1725   */\n  0xffffffffffffffff\n    /* \"#utility.yul\":1699:1705   */\n  dup3\n    /* \"#utility.yul\":1696:1726   */\n  gt\n    /* \"#utility.yul\":1693:1749   */\n  iszero\n  tag_61\n  jumpi\n    /* \"#utility.yul\":1729:1747   */\n  tag_62\n  tag_63\n  jump\t// in\ntag_62:\n    /* \"#utility.yul\":1693:1749   */\ntag_61:\n    /* \"#utility.yul\":1767:1796   */\n  tag_64\n    /* \"#utility.yul\":1789:1795   */\n  dup3\n    /* \"#utility.yul\":1767:1796   */\n  tag_65\n  jump\t// in\ntag_64:\n    /* \"#utility.yul\":1759:1796   */\n  swap1\n  pop\n    /* \"#utility.yul\":1851:1855   */\n  0x20\n    /* \"#utility.yul\":1845:1849   */\n  dup2\n    /* \"#utility.yul\":1841:1856   */\n  add\n    /* \"#utility.yul\":1833:1856   */\n  swap1\n  pop\n    /* \"#utility.yul\":1555:1863   */\n  swap2\n  swap1\n  pop\n  jump\t// out\n    /* \"#utility.yul\":1869:2176   */\ntag_39:\n    /* \"#utility.yul\":1937:1938   */\n  0x00\n    /* \"#utility.yul\":1947:2060   */\ntag_67:\n    /* \"#utility.yul\":1961:1967   */\n  dup4\n    /* \"#utility.yul\":1958:1959   */\n  dup2\n    /* \"#utility.yul\":1955:1968   */\n  lt\n    /* \"#utility.yul\":1947:2060   */\n  iszero\n  tag_69\n  jumpi\n    /* \"#utility.yul\":2046:2047   */\n  dup1\n    /* \"#utility.yul\":2041:2044   */\n  dup3\n    /* \"#utility.yul\":2037:2048   */\n  add\n    /* \"#utility.yul\":2031:2049   */\n  mload\n    /* \"#utility.yul\":2027:2028   */\n  dup2\n    /* \"#utility.yul\":2022:2025   */\n  dup5\n    /* \"#utility.yul\":2018:2029   */\n  add\n    /* \"#utility.yul\":2011:2050   */\n  mstore\n    /* \"#utility.yul\":1983:1985   */\n  0x20\n    /* \"#utility.yul\":1980:1981   */\n  dup2\n    /* \"#utility.yul\":1976:1986   */\n  add\n    /* \"#utility.yul\":1971:1986   */\n  swap1\n  pop\n    /* \"#utility.yul\":1947:2060   */\n  jump(tag_67)\ntag_69:\n    /* \"#utility.yul\":2078:2084   */\n  dup4\n    /* \"#utility.yul\":2075:2076   */\n  dup2\n    /* \"#utility.yul\":2072:2085   */\n  gt\n    /* \"#utility.yul\":2069:2170   */\n  iszero\n  tag_70\n  jumpi\n    /* \"#utility.yul\":2158:2159   */\n  0x00\n    /* \"#utility.yul\":2149:2155   */\n  dup5\n    /* \"#utility.yul\":2144:2147   */\n  dup5\n    /* \"#utility.yul\":2140:2156   */\n  add\n    /* \"#utility.yul\":2133:2160   */\n  mstore\n    /* \"#utility.yul\":2069:2170   */\ntag_70:\n    /* \"#utility.yul\":1918:2176   */\n  pop\n    /* \"#utility.yul\":1869:2176   */\n  pop\n  pop\n  pop\n  jump\t// out\n    /* \"#utility.yul\":2182:2502   */\ntag_13:\n    /* \"#utility.yul\":2226:2232   */\n  0x00\n    /* \"#utility.yul\":2263:2264   */\n  0x02\n    /* \"#utility.yul\":2257:2261   */\n  dup3\n    /* \"#utility.yul\":2253:2265   */\n  div\n    /* \"#utility.yul\":2243:2265   */\n  swap1\n  pop\n    /* \"#utility.yul\":2310:2311   */\n  0x01\n    /* \"#utility.yul\":2304:2308   */\n  dup3\n    /* \"#utility.yul\":2300:2312   */\n  and\n    /* \"#utility.yul\":2331:2349   */\n  dup1\n    /* \"#utility.yul\":2321:2402   */\n  tag_72\n  jumpi\n    /* \"#utility.yul\":2387:2391   */\n  0x7f\n    /* \"#utility.yul\":2379:2385   */\n  dup3\n    /* \"#utility.yul\":2375:2392   */\n  and\n    /* \"#utility.yul\":2365:2392   */\n  swap2\n  pop\n    /* \"#utility.yul\":2321:2402   */\ntag_72:\n    /* \"#utility.yul\":2449:2451   */\n  0x20\n    /* \"#utility.yul\":2441:2447   */\n  dup3\n    /* \"#utility.yul\":2438:2452   */\n  lt\n    /* \"#utility.yul\":2418:2436   */\n  dup2\n    /* \"#utility.yul\":2415:2453   */\n  eq\n    /* \"#utility.yul\":2412:2496   */\n  iszero\n  tag_73\n  jumpi\n    /* \"#utility.yul\":2468:2486   */\n  tag_74\n  tag_75\n  jump\t// in\ntag_74:\n    /* \"#utility.yul\":2412:2496   */\ntag_73:\n    /* \"#utility.yul\":2233:2502   */\n  pop\n    /* \"#utility.yul\":2182:2502   */\n  swap2\n  swap1\n  pop\n  jump\t// out\n    /* \"#utility.yul\":2508:2789   */\ntag_58:\n    /* \"#utility.yul\":2591:2618   */\n  tag_77\n    /* \"#utility.yul\":2613:2617   */\n  dup3\n    /* \"#utility.yul\":2591:2618   */\n  tag_65\n  jump\t// in\ntag_77:\n    /* \"#utility.yul\":2583:2589   */\n  dup2\n    /* \"#utility.yul\":2579:2619   */\n  add\n    /* \"#utility.yul\":2721:2727   */\n  dup2\n    /* \"#utility.yul\":2709:2719   */\n  dup2\n    /* \"#utility.yul\":2706:2728   */\n  lt\n    /* \"#utility.yul\":2685:2703   */\n  0xffffffffffffffff\n    /* \"#utility.yul\":2673:2683   */\n  dup3\n    /* \"#utility.yul\":2670:2704   */\n  gt\n    /* \"#utility.yul\":2667:2729   */\n  or\n    /* \"#utility.yul\":2664:2752   */\n  iszero\n  tag_78\n  jumpi\n    /* \"#utility.yul\":2732:2750   */\n  tag_79\n  tag_63\n  jump\t// in\ntag_79:\n    /* \"#utility.yul\":2664:2752   */\ntag_78:\n    /* \"#utility.yul\":2772:2782   */\n  dup1\n    /* \"#utility.yul\":2768:2770   */\n  0x40\n    /* \"#utility.yul\":2761:2783   */\n  mstore\n    /* \"#utility.yul\":2551:2789   */\n  pop\n    /* \"#utility.yul\":2508:2789   */\n  pop\n  pop\n  jump\t// out\n    /* \"#utility.yul\":2795:2975   */\ntag_75:\n    /* \"#utility.yul\":2843:2920   */\n  0x4e487b7100000000000000000000000000000000000000000000000000000000\n    /* \"#utility.yul\":2840:2841   */\n  0x00\n    /* \"#utility.yul\":2833:2921   */\n  mstore\n    /* \"#utility.yul\":2940:2944   */\n  0x22\n    /* \"#utility.yul\":2937:2938   */\n  0x04\n    /* \"#utility.yul\":2930:2945   */\n  mstore\n    /* \"#utility.yul\":2964:2968   */\n  0x24\n    /* \"#utility.yul\":2961:2962   */\n  0x00\n    /* \"#utility.yul\":2954:2969   */\n  revert\n    /* \"#utility.yul\":2981:3161   */\ntag_63:\n    /* \"#utility.yul\":3029:3106   */\n  0x4e487b7100000000000000000000000000000000000000000000000000000000\n    /* \"#utility.yul\":3026:3027   */\n  0x00\n    /* \"#utility.yul\":3019:3107   */\n  mstore\n    /* \"#utility.yul\":3126:3130   */\n  0x41\n    /* \"#utility.yul\":3123:3124   */\n  0x04\n    /* \"#utility.yul\":3116:3131   */\n  mstore\n    /* \"#utility.yul\":3150:3154   */\n  0x24\n    /* \"#utility.yul\":3147:3148   */\n  0x00\n    /* \"#utility.yul\":3140:3155   */\n  revert\n    /* \"#utility.yul\":3167:3284   */\ntag_44:\n    /* \"#utility.yul\":3276:3277   */\n  0x00\n    /* \"#utility.yul\":3273:3274   */\n  dup1\n    /* \"#utility.yul\":3266:3278   */\n  revert\n    /* \"#utility.yul\":3290:3407   */\ntag_37:\n    /* \"#utility.yul\":3399:3400   */\n  0x00\n    /* \"#utility.yul\":3396:3397   */\n  dup1\n    /* \"#utility.yul\":3389:3401   */\n  revert\n    /* \"#utility.yul\":3413:3530   */\ntag_52:\n    /* \"#utility.yul\":3522:3523   */\n  0x00\n    /* \"#utility.yul\":3519:3520   */\n  dup1\n    /* \"#utility.yul\":3512:3524   */\n  revert\n    /* \"#utility.yul\":3536:3653   */\ntag_49:\n    /* \"#utility.yul\":3645:3646   */\n  0x00\n    /* \"#utility.yul\":3642:3643   */\n  dup1\n    /* \"#utility.yul\":3635:3647   */\n  revert\n    /* \"#utility.yul\":3659:3761   */\ntag_65:\n    /* \"#utility.yul\":3700:3706   */\n  0x00\n    /* \"#utility.yul\":3751:3753   */\n  0x1f\n    /* \"#utility.yul\":3747:3754   */\n  not\n    /* \"#utility.yul\":3742:3744   */\n  0x1f\n    /* \"#utility.yul\":3735:3740   */\n  dup4\n    /* \"#utility.yul\":3731:3745   */\n  add\n    /* \"#utility.yul\":3727:3755   */\n  and\n    /* \"#utility.yul\":3717:3755   */\n  swap1\n  pop\n    /* \"#utility.yul\":3659:3761   */\n  swap2\n  swap1\n  pop\n  jump\t// out\n    /* \"Dropsite.sol\":146:6539  contract Dropsite is ERC1155_Dropsite  { ... */\ntag_11:\n  dataSize(sub_0)\n  dup1\n  dataOffset(sub_0)\n  0x00\n  codecopy\n  0x00\n  return\nstop\n\nsub_0: assembly {\n        /* \"Dropsite.sol\":146:6539  contract Dropsite is ERC1155_Dropsite  { ... */\n      mstore(0x40, 0x80)\n      jumpi(tag_1, lt(calldatasize, 0x04))\n      shr(0xe0, calldataload(0x00))\n      dup1\n      0x3d65df70\n      gt\n      tag_15\n      jumpi\n      dup1\n      0xaa90c726\n      gt\n      tag_16\n      jumpi\n      dup1\n      0xaa90c726\n      eq\n      tag_11\n      jumpi\n      dup1\n      0xb4a99a4e\n      eq\n      tag_12\n      jumpi\n      dup1\n      0xeddd0d9c\n      eq\n      tag_13\n      jumpi\n      dup1\n      0xfd6c3b1b\n      eq\n      tag_14\n      jumpi\n      jump(tag_1)\n    tag_16:\n      dup1\n      0x3d65df70\n      eq\n      tag_8\n      jumpi\n      dup1\n      0x60daa851\n      eq\n      tag_9\n      jumpi\n      dup1\n      0x7a5caab3\n      eq\n      tag_10\n      jumpi\n      jump(tag_1)\n    tag_15:\n      dup1\n      0x0390c11c\n      eq\n      tag_2\n      jumpi\n      dup1\n      0x0a67d2c7\n      eq\n      tag_3\n      jumpi\n      dup1\n      0x1309a563\n      eq\n      tag_4\n      jumpi\n      dup1\n      0x15460259\n      eq\n      tag_5\n      jumpi\n      dup1\n      0x32b61b4c\n      eq\n      tag_6\n      jumpi\n      dup1\n      0x3b668059\n      eq\n      tag_7\n      jumpi\n    tag_1:\n      0x00\n      dup1\n      revert\n        /* \"Dropsite.sol\":2307:2411  function checkTotalMinted() public view OnlyOwner returns(uint){... */\n    tag_2:\n      callvalue\n      dup1\n      iszero\n      tag_17\n      jumpi\n      0x00\n      dup1\n      revert\n    tag_17:\n      pop\n      tag_18\n      tag_19\n      jump\t// in\n    tag_18:\n      mload(0x40)\n      tag_20\n      swap2\n      swap1\n      tag_21\n      jump\t// in\n    tag_20:\n      mload(0x40)\n      dup1\n      swap2\n      sub\n      swap1\n      return\n        /* \"Dropsite.sol\":2790:3004  function withDraw(address payable to) public payable OnlyOwner {... */\n    tag_3:\n      tag_22\n      0x04\n      dup1\n      calldatasize\n      sub\n      dup2\n      add\n      swap1\n      tag_23\n      swap2\n      swap1\n      tag_24\n      jump\t// in\n    tag_23:\n      tag_25\n      jump\t// in\n    tag_22:\n      stop\n        /* \"Dropsite.sol\":1246:1273  bool public IsPaused = true */\n    tag_4:\n      callvalue\n      dup1\n      iszero\n      tag_26\n      jumpi\n      0x00\n      dup1\n      revert\n    tag_26:\n      pop\n      tag_27\n      tag_28\n      jump\t// in\n    tag_27:\n      mload(0x40)\n      tag_29\n      swap2\n      swap1\n      tag_30\n      jump\t// in\n    tag_29:\n      mload(0x40)\n      dup1\n      swap2\n      sub\n      swap1\n      return\n        /* \"Dropsite.sol\":2559:2695  function openDropsite() public OnlyOwner {... */\n    tag_5:\n      callvalue\n      dup1\n      iszero\n      tag_31\n      jumpi\n      0x00\n      dup1\n      revert\n    tag_31:\n      pop\n      tag_32\n      tag_33\n      jump\t// in\n    tag_32:\n      stop\n        /* \"Dropsite.sol\":5306:5752  function FiatRandomMint(address user_addr) OnlyOwner contractIsNotPaused public returns (uint,string memory) {... */\n    tag_6:\n      callvalue\n      dup1\n      iszero\n      tag_34\n      jumpi\n      0x00\n      dup1\n      revert\n    tag_34:\n      pop\n      tag_35\n      0x04\n      dup1\n      calldatasize\n      sub\n      dup2\n      add\n      swap1\n      tag_36\n      swap2\n      swap1\n      tag_37\n      jump\t// in\n    tag_36:\n      tag_38\n      jump\t// in\n    tag_35:\n      mload(0x40)\n      tag_39\n      swap3\n      swap2\n      swap1\n      tag_40\n      jump\t// in\n    tag_39:\n      mload(0x40)\n      dup1\n      swap2\n      sub\n      swap1\n      return\n        /* \"Dropsite.sol\":3057:3165  function ContractBalance() public view OnlyOwner returns (uint){... */\n    tag_7:\n      callvalue\n      dup1\n      iszero\n      tag_41\n      jumpi\n      0x00\n      dup1\n      revert\n    tag_41:\n      pop\n      tag_42\n      tag_43\n      jump\t// in\n    tag_42:\n      mload(0x40)\n      tag_44\n      swap2\n      swap1\n      tag_21\n      jump\t// in\n    tag_44:\n      mload(0x40)\n      dup1\n      swap2\n      sub\n      swap1\n      return\n        /* \"Dropsite.sol\":5969:6537  function CryptoRandomMint(address user_addr)  contractIsNotPaused public payable returns (uint,string memory) {... */\n    tag_8:\n      tag_45\n      0x04\n      dup1\n      calldatasize\n      sub\n      dup2\n      add\n      swap1\n      tag_46\n      swap2\n      swap1\n      tag_37\n      jump\t// in\n    tag_46:\n      tag_47\n      jump\t// in\n    tag_45:\n      mload(0x40)\n      tag_48\n      swap3\n      swap2\n      swap1\n      tag_40\n      jump\t// in\n    tag_48:\n      mload(0x40)\n      dup1\n      swap2\n      sub\n      swap1\n      return\n        /* \"Dropsite.sol\":1882:2029  function checkMintedCategoryWise() public view OnlyOwner contractIsNotPaused returns(uint,uint,uint){... */\n    tag_9:\n      callvalue\n      dup1\n      iszero\n      tag_49\n      jumpi\n      0x00\n      dup1\n      revert\n    tag_49:\n      pop\n      tag_50\n      tag_51\n      jump\t// in\n    tag_50:\n      mload(0x40)\n      tag_52\n      swap4\n      swap3\n      swap2\n      swap1\n      tag_53\n      jump\t// in\n    tag_52:\n      mload(0x40)\n      dup1\n      swap2\n      sub\n      swap1\n      return\n        /* \"Dropsite.sol\":2151:2262  function getMintFee() public view OnlyOwner contractIsNotPaused returns (uint) {... */\n    tag_10:\n      callvalue\n      dup1\n      iszero\n      tag_54\n      jumpi\n      0x00\n      dup1\n      revert\n    tag_54:\n      pop\n      tag_55\n      tag_56\n      jump\t// in\n    tag_55:\n      mload(0x40)\n      tag_57\n      swap2\n      swap1\n      tag_21\n      jump\t// in\n    tag_57:\n      mload(0x40)\n      dup1\n      swap2\n      sub\n      swap1\n      return\n        /* \"Dropsite.sol\":2417:2552  function stopDropsite() public OnlyOwner{... */\n    tag_11:\n      callvalue\n      dup1\n      iszero\n      tag_58\n      jumpi\n      0x00\n      dup1\n      revert\n    tag_58:\n      pop\n      tag_59\n      tag_60\n      jump\t// in\n    tag_59:\n      stop\n        /* \"Dropsite.sol\":1279:1308  address payable public  Owner */\n    tag_12:\n      callvalue\n      dup1\n      iszero\n      tag_61\n      jumpi\n      0x00\n      dup1\n      revert\n    tag_61:\n      pop\n      tag_62\n      tag_63\n      jump\t// in\n    tag_62:\n      mload(0x40)\n      tag_64\n      swap2\n      swap1\n      tag_65\n      jump\t// in\n    tag_64:\n      mload(0x40)\n      dup1\n      swap2\n      sub\n      swap1\n      return\n        /* \"Dropsite.sol\":2035:2141  function setMintFee(uint _mintFee) public OnlyOwner contractIsNotPaused {... */\n    tag_13:\n      callvalue\n      dup1\n      iszero\n      tag_66\n      jumpi\n      0x00\n      dup1\n      revert\n    tag_66:\n      pop\n      tag_67\n      0x04\n      dup1\n      calldatasize\n      sub\n      dup2\n      add\n      swap1\n      tag_68\n      swap2\n      swap1\n      tag_69\n      jump\t// in\n    tag_68:\n      tag_70\n      jump\t// in\n    tag_67:\n      stop\n        /* \"Dropsite.sol\":1663:1822  function returnOwner(address addr) public view contractIsNotPaused returns  (uint[] memory){... */\n    tag_14:\n      callvalue\n      dup1\n      iszero\n      tag_71\n      jumpi\n      0x00\n      dup1\n      revert\n    tag_71:\n      pop\n      tag_72\n      0x04\n      dup1\n      calldatasize\n      sub\n      dup2\n      add\n      swap1\n      tag_73\n      swap2\n      swap1\n      tag_37\n      jump\t// in\n    tag_73:\n      tag_74\n      jump\t// in\n    tag_72:\n      mload(0x40)\n      tag_75\n      swap2\n      swap1\n      tag_76\n      jump\t// in\n    tag_75:\n      mload(0x40)\n      dup1\n      swap2\n      sub\n      swap1\n      return\n        /* \"Dropsite.sol\":2307:2411  function checkTotalMinted() public view OnlyOwner returns(uint){... */\n    tag_19:\n        /* \"Dropsite.sol\":2365:2369  uint */\n      0x00\n        /* \"Dropsite.sol\":1018:1023  Owner */\n      0x0c\n      0x01\n      swap1\n      sload\n      swap1\n      0x0100\n      exp\n      swap1\n      div\n      0xffffffffffffffffffffffffffffffffffffffff\n      and\n        /* \"Dropsite.sol\":1002:1023  _msgSender() == Owner */\n      0xffffffffffffffffffffffffffffffffffffffff\n      and\n        /* \"Dropsite.sol\":1002:1014  _msgSender() */\n      tag_78\n        /* \"Dropsite.sol\":1002:1012  _msgSender */\n      tag_79\n        /* \"Dropsite.sol\":1002:1014  _msgSender() */\n      jump\t// in\n    tag_78:\n        /* \"Dropsite.sol\":1002:1023  _msgSender() == Owner */\n      0xffffffffffffffffffffffffffffffffffffffff\n      and\n      eq\n        /* \"Dropsite.sol\":994:1056  require(_msgSender() == Owner, \"Only NFT-ES Owner can Access\") */\n      tag_80\n      jumpi\n      mload(0x40)\n      0x08c379a000000000000000000000000000000000000000000000000000000000\n      dup2\n      mstore\n      0x04\n      add\n      tag_81\n      swap1\n      tag_82\n      jump\t// in\n    tag_81:\n      mload(0x40)\n      dup1\n      swap2\n      sub\n      swap1\n      revert\n    tag_80:\n        /* \"Dropsite.sol\":2388:2403  TotalNFTsMinted */\n      sload(0x04)\n        /* \"Dropsite.sol\":2381:2403  return TotalNFTsMinted */\n      swap1\n      pop\n        /* \"Dropsite.sol\":2307:2411  function checkTotalMinted() public view OnlyOwner returns(uint){... */\n      swap1\n      jump\t// out\n        /* \"Dropsite.sol\":2790:3004  function withDraw(address payable to) public payable OnlyOwner {... */\n    tag_25:\n        /* \"Dropsite.sol\":1018:1023  Owner */\n      0x0c\n      0x01\n      swap1\n      sload\n      swap1\n      0x0100\n      exp\n      swap1\n      div\n      0xffffffffffffffffffffffffffffffffffffffff\n      and\n        /* \"Dropsite.sol\":1002:1023  _msgSender() == Owner */\n      0xffffffffffffffffffffffffffffffffffffffff\n      and\n        /* \"Dropsite.sol\":1002:1014  _msgSender() */\n      tag_85\n        /* \"Dropsite.sol\":1002:1012  _msgSender */\n      tag_79\n        /* \"Dropsite.sol\":1002:1014  _msgSender() */\n      jump\t// in\n    tag_85:\n        /* \"Dropsite.sol\":1002:1023  _msgSender() == Owner */\n      0xffffffffffffffffffffffffffffffffffffffff\n      and\n      eq\n        /* \"Dropsite.sol\":994:1056  require(_msgSender() == Owner, \"Only NFT-ES Owner can Access\") */\n      tag_86\n      jumpi\n      mload(0x40)\n      0x08c379a000000000000000000000000000000000000000000000000000000000\n      dup2\n      mstore\n      0x04\n      add\n      tag_87\n      swap1\n      tag_82\n      jump\t// in\n    tag_87:\n      mload(0x40)\n      dup1\n      swap2\n      sub\n      swap1\n      revert\n    tag_86:\n        /* \"Dropsite.sol\":2863:2875  uint Balance */\n      0x00\n        /* \"Dropsite.sol\":2878:2899  address(this).balance */\n      selfbalance\n        /* \"Dropsite.sol\":2863:2899  uint Balance = address(this).balance */\n      swap1\n      pop\n        /* \"Dropsite.sol\":2927:2932  0 wei */\n      0x00\n        /* \"Dropsite.sol\":2917:2924  Balance */\n      dup2\n        /* \"Dropsite.sol\":2917:2932  Balance > 0 wei */\n      gt\n        /* \"Dropsite.sol\":2909:2966  require(Balance > 0 wei, \"Error! No Balance to withdraw\") */\n      tag_89\n      jumpi\n      mload(0x40)\n      0x08c379a000000000000000000000000000000000000000000000000000000000\n      dup2\n      mstore\n      0x04\n      add\n      tag_90\n      swap1\n      tag_91\n      jump\t// in\n    tag_90:\n      mload(0x40)\n      dup1\n      swap2\n      sub\n      swap1\n      revert\n    tag_89:\n        /* \"Dropsite.sol\":2977:2979  to */\n      dup2\n        /* \"Dropsite.sol\":2977:2988  to.transfer */\n      0xffffffffffffffffffffffffffffffffffffffff\n      and\n        /* \"Dropsite.sol\":2977:2997  to.transfer(Balance) */\n      0x08fc\n        /* \"Dropsite.sol\":2989:2996  Balance */\n      dup3\n        /* \"Dropsite.sol\":2977:2997  to.transfer(Balance) */\n      swap1\n      dup2\n      iszero\n      mul\n      swap1\n      mload(0x40)\n      0x00\n      mload(0x40)\n      dup1\n      dup4\n      sub\n      dup2\n      dup6\n      dup9\n      dup9\n      call\n      swap4\n      pop\n      pop\n      pop\n      pop\n      iszero\n      dup1\n      iszero\n      tag_93\n      jumpi\n      returndatasize\n      0x00\n      dup1\n      returndatacopy\n      revert(0x00, returndatasize)\n    tag_93:\n      pop\n        /* \"Dropsite.sol\":2853:3004  {... */\n      pop\n        /* \"Dropsite.sol\":2790:3004  function withDraw(address payable to) public payable OnlyOwner {... */\n      pop\n      jump\t// out\n        /* \"Dropsite.sol\":1246:1273  bool public IsPaused = true */\n    tag_28:\n      0x0c\n      0x00\n      swap1\n      sload\n      swap1\n      0x0100\n      exp\n      swap1\n      div\n      0xff\n      and\n      dup2\n      jump\t// out\n        /* \"Dropsite.sol\":2559:2695  function openDropsite() public OnlyOwner {... */\n    tag_33:\n        /* \"Dropsite.sol\":1018:1023  Owner */\n      0x0c\n      0x01\n      swap1\n      sload\n      swap1\n      0x0100\n      exp\n      swap1\n      div\n      0xffffffffffffffffffffffffffffffffffffffff\n      and\n        /* \"Dropsite.sol\":1002:1023  _msgSender() == Owner */\n      0xffffffffffffffffffffffffffffffffffffffff\n      and\n        /* \"Dropsite.sol\":1002:1014  _msgSender() */\n      tag_95\n        /* \"Dropsite.sol\":1002:1012  _msgSender */\n      tag_79\n        /* \"Dropsite.sol\":1002:1014  _msgSender() */\n      jump\t// in\n    tag_95:\n        /* \"Dropsite.sol\":1002:1023  _msgSender() == Owner */\n      0xffffffffffffffffffffffffffffffffffffffff\n      and\n      eq\n        /* \"Dropsite.sol\":994:1056  require(_msgSender() == Owner, \"Only NFT-ES Owner can Access\") */\n      tag_96\n      jumpi\n      mload(0x40)\n      0x08c379a000000000000000000000000000000000000000000000000000000000\n      dup2\n      mstore\n      0x04\n      add\n      tag_97\n      swap1\n      tag_82\n      jump\t// in\n    tag_97:\n      mload(0x40)\n      dup1\n      swap2\n      sub\n      swap1\n      revert\n    tag_96:\n        /* \"Dropsite.sol\":2628:2632  true */\n      0x01\n        /* \"Dropsite.sol\":2618:2632  IsPaused==true */\n      iszero\n      iszero\n        /* \"Dropsite.sol\":2618:2626  IsPaused */\n      0x0c\n      0x00\n      swap1\n      sload\n      swap1\n      0x0100\n      exp\n      swap1\n      div\n      0xff\n      and\n        /* \"Dropsite.sol\":2618:2632  IsPaused==true */\n      iszero\n      iszero\n      eq\n        /* \"Dropsite.sol\":2610:2664  require(IsPaused==true, \"Dropsite is already Running\") */\n      tag_99\n      jumpi\n      mload(0x40)\n      0x08c379a000000000000000000000000000000000000000000000000000000000\n      dup2\n      mstore\n      0x04\n      add\n      tag_100\n      swap1\n      tag_101\n      jump\t// in\n    tag_100:\n      mload(0x40)\n      dup1\n      swap2\n      sub\n      swap1\n      revert\n    tag_99:\n        /* \"Dropsite.sol\":2683:2688  false */\n      0x00\n        /* \"Dropsite.sol\":2674:2682  IsPaused */\n      0x0c\n      0x00\n        /* \"Dropsite.sol\":2674:2688  IsPaused=false */\n      0x0100\n      exp\n      dup2\n      sload\n      dup2\n      0xff\n      mul\n      not\n      and\n      swap1\n      dup4\n      iszero\n      iszero\n      mul\n      or\n      swap1\n      sstore\n      pop\n        /* \"Dropsite.sol\":2559:2695  function openDropsite() public OnlyOwner {... */\n      jump\t// out\n        /* \"Dropsite.sol\":5306:5752  function FiatRandomMint(address user_addr) OnlyOwner contractIsNotPaused public returns (uint,string memory) {... */\n    tag_38:\n        /* \"Dropsite.sol\":5395:5399  uint */\n      0x00\n        /* \"Dropsite.sol\":5400:5413  string memory */\n      0x60\n        /* \"Dropsite.sol\":1018:1023  Owner */\n      0x0c\n      0x01\n      swap1\n      sload\n      swap1\n      0x0100\n      exp\n      swap1\n      div\n      0xffffffffffffffffffffffffffffffffffffffff\n      and\n        /* \"Dropsite.sol\":1002:1023  _msgSender() == Owner */\n      0xffffffffffffffffffffffffffffffffffffffff\n      and\n        /* \"Dropsite.sol\":1002:1014  _msgSender() */\n      tag_103\n        /* \"Dropsite.sol\":1002:1012  _msgSender */\n      tag_79\n        /* \"Dropsite.sol\":1002:1014  _msgSender() */\n      jump\t// in\n    tag_103:\n        /* \"Dropsite.sol\":1002:1023  _msgSender() == Owner */\n      0xffffffffffffffffffffffffffffffffffffffff\n      and\n      eq\n        /* \"Dropsite.sol\":994:1056  require(_msgSender() == Owner, \"Only NFT-ES Owner can Access\") */\n      tag_104\n      jumpi\n      mload(0x40)\n      0x08c379a000000000000000000000000000000000000000000000000000000000\n      dup2\n      mstore\n      0x04\n      add\n      tag_105\n      swap1\n      tag_82\n      jump\t// in\n    tag_105:\n      mload(0x40)\n      dup1\n      swap2\n      sub\n      swap1\n      revert\n    tag_104:\n        /* \"Dropsite.sol\":1183:1188  false */\n      0x00\n        /* \"Dropsite.sol\":1171:1188  IsPaused == false */\n      iszero\n      iszero\n        /* \"Dropsite.sol\":1171:1179  IsPaused */\n      0x0c\n      0x00\n      swap1\n      sload\n      swap1\n      0x0100\n      exp\n      swap1\n      div\n      0xff\n      and\n        /* \"Dropsite.sol\":1171:1188  IsPaused == false */\n      iszero\n      iszero\n      eq\n        /* \"Dropsite.sol\":1162:1221  require (IsPaused == false, \"Dropsite is not Opened Yet.\" ) */\n      tag_107\n      jumpi\n      mload(0x40)\n      0x08c379a000000000000000000000000000000000000000000000000000000000\n      dup2\n      mstore\n      0x04\n      add\n      tag_108\n      swap1\n      tag_109\n      jump\t// in\n    tag_108:\n      mload(0x40)\n      dup1\n      swap2\n      sub\n      swap1\n      revert\n    tag_107:\n        /* \"Dropsite.sol\":5446:5450  1000 */\n      0x03e8\n        /* \"Dropsite.sol\":5430:5445  TotalNFTsMinted */\n      sload(0x04)\n        /* \"Dropsite.sol\":5430:5450  TotalNFTsMinted<1000 */\n      lt\n        /* \"Dropsite.sol\":5422:5480  require(TotalNFTsMinted<1000, \"Max Minting Limit reached\") */\n      tag_111\n      jumpi\n      mload(0x40)\n      0x08c379a000000000000000000000000000000000000000000000000000000000\n      dup2\n      mstore\n      0x04\n      add\n      tag_112\n      swap1\n      tag_113\n      jump\t// in\n    tag_112:\n      mload(0x40)\n      dup1\n      swap2\n      sub\n      swap1\n      revert\n    tag_111:\n        /* \"Dropsite.sol\":5543:5553  uint nftId */\n      0x00\n        /* \"Dropsite.sol\":5556:5574  updateConditions() */\n      tag_114\n        /* \"Dropsite.sol\":5556:5572  updateConditions */\n      tag_115\n        /* \"Dropsite.sol\":5556:5574  updateConditions() */\n      jump\t// in\n    tag_114:\n        /* \"Dropsite.sol\":5543:5574  uint nftId = updateConditions() */\n      swap1\n      pop\n        /* \"Dropsite.sol\":5580:5622  _mint(user_addr, nftId, numOfCopies, data) */\n      tag_116\n        /* \"Dropsite.sol\":5586:5595  user_addr */\n      dup5\n        /* \"Dropsite.sol\":5597:5602  nftId */\n      dup3\n        /* \"Dropsite.sol\":5604:5615  numOfCopies */\n      sload(0x05)\n        /* \"Dropsite.sol\":5617:5621  data */\n      0x02\n        /* \"Dropsite.sol\":5580:5622  _mint(user_addr, nftId, numOfCopies, data) */\n      dup1\n      sload\n      tag_117\n      swap1\n      tag_118\n      jump\t// in\n    tag_117:\n      dup1\n      0x1f\n      add\n      0x20\n      dup1\n      swap2\n      div\n      mul\n      0x20\n      add\n      mload(0x40)\n      swap1\n      dup2\n      add\n      0x40\n      mstore\n      dup1\n      swap3\n      swap2\n      swap1\n      dup2\n      dup2\n      mstore\n      0x20\n      add\n      dup3\n      dup1\n      sload\n      tag_119\n      swap1\n      tag_118\n      jump\t// in\n    tag_119:\n      dup1\n      iszero\n      tag_120\n      jumpi\n      dup1\n      0x1f\n      lt\n      tag_121\n      jumpi\n      0x0100\n      dup1\n      dup4\n      sload\n      div\n      mul\n      dup4\n      mstore\n      swap2\n      0x20\n      add\n      swap2\n      jump(tag_120)\n    tag_121:\n      dup3\n      add\n      swap2\n      swap1\n      0x00\n      mstore\n      keccak256(0x00, 0x20)\n      swap1\n    tag_122:\n      dup2\n      sload\n      dup2\n      mstore\n      swap1\n      0x01\n      add\n      swap1\n      0x20\n      add\n      dup1\n      dup4\n      gt\n      tag_122\n      jumpi\n      dup3\n      swap1\n      sub\n      0x1f\n      and\n      dup3\n      add\n      swap2\n    tag_120:\n      pop\n      pop\n      pop\n      pop\n      pop\n        /* \"Dropsite.sol\":5580:5585  _mint */\n      tag_123\n        /* \"Dropsite.sol\":5580:5622  _mint(user_addr, nftId, numOfCopies, data) */\n      jump\t// in\n    tag_116:\n        /* \"Dropsite.sol\":5628:5643  TotalNFTsMinted */\n      0x04\n      0x00\n        /* \"Dropsite.sol\":5628:5645  TotalNFTsMinted++ */\n      dup2\n      sload\n      dup1\n      swap3\n      swap2\n      swap1\n      tag_124\n      swap1\n      tag_125\n      jump\t// in\n    tag_124:\n      swap2\n      swap1\n      pop\n      sstore\n      pop\n        /* \"Dropsite.sol\":5651:5669  dropsite_NFT_Owner */\n      0x0a\n        /* \"Dropsite.sol\":5651:5680  dropsite_NFT_Owner[user_addr] */\n      0x00\n        /* \"Dropsite.sol\":5670:5679  user_addr */\n      dup6\n        /* \"Dropsite.sol\":5651:5680  dropsite_NFT_Owner[user_addr] */\n      0xffffffffffffffffffffffffffffffffffffffff\n      and\n      0xffffffffffffffffffffffffffffffffffffffff\n      and\n      dup2\n      mstore\n      0x20\n      add\n      swap1\n      dup2\n      mstore\n      0x20\n      add\n      0x00\n      keccak256\n        /* \"Dropsite.sol\":5651:5700  dropsite_NFT_Owner[user_addr].owned_Dropsite_NFTs */\n      0x00\n      add\n        /* \"Dropsite.sol\":5706:5711  nftId */\n      dup2\n        /* \"Dropsite.sol\":5651:5712  dropsite_NFT_Owner[user_addr].owned_Dropsite_NFTs.push(nftId) */\n      swap1\n      dup1\n      0x01\n      dup2\n      sload\n      add\n      dup1\n      dup3\n      sstore\n      dup1\n      swap2\n      pop\n      pop\n      0x01\n      swap1\n      sub\n      swap1\n      0x00\n      mstore\n      keccak256(0x00, 0x20)\n      add\n      0x00\n      swap1\n      swap2\n      swap1\n      swap2\n      swap1\n      swap2\n      pop\n      sstore\n        /* \"Dropsite.sol\":5726:5731  nftId */\n      dup1\n        /* \"Dropsite.sol\":5739:5743  data */\n      0x02\n        /* \"Dropsite.sol\":5718:5745  return (nftId,string(data)) */\n      dup1\n      dup1\n      sload\n      tag_127\n      swap1\n      tag_118\n      jump\t// in\n    tag_127:\n      dup1\n      0x1f\n      add\n      0x20\n      dup1\n      swap2\n      div\n      mul\n      0x20\n      add\n      mload(0x40)\n      swap1\n      dup2\n      add\n      0x40\n      mstore\n      dup1\n      swap3\n      swap2\n      swap1\n      dup2\n      dup2\n      mstore\n      0x20\n      add\n      dup3\n      dup1\n      sload\n      tag_128\n      swap1\n      tag_118\n      jump\t// in\n    tag_128:\n      dup1\n      iszero\n      tag_129\n      jumpi\n      dup1\n      0x1f\n      lt\n      tag_130\n      jumpi\n      0x0100\n      dup1\n      dup4\n      sload\n      div\n      mul\n      dup4\n      mstore\n      swap2\n      0x20\n      add\n      swap2\n      jump(tag_129)\n    tag_130:\n      dup3\n      add\n      swap2\n      swap1\n      0x00\n      mstore\n      keccak256(0x00, 0x20)\n      swap1\n    tag_131:\n      dup2\n      sload\n      dup2\n      mstore\n      swap1\n      0x01\n      add\n      swap1\n      0x20\n      add\n      dup1\n      dup4\n      gt\n      tag_131\n      jumpi\n      dup3\n      swap1\n      sub\n      0x1f\n      and\n      dup3\n      add\n      swap2\n    tag_129:\n      pop\n      pop\n      pop\n      pop\n      pop\n      swap1\n      pop\n      swap3\n      pop\n      swap3\n      pop\n      pop\n        /* \"Dropsite.sol\":5306:5752  function FiatRandomMint(address user_addr) OnlyOwner contractIsNotPaused public returns (uint,string memory) {... */\n      swap2\n      pop\n      swap2\n      jump\t// out\n        /* \"Dropsite.sol\":3057:3165  function ContractBalance() public view OnlyOwner returns (uint){... */\n    tag_43:\n        /* \"Dropsite.sol\":3115:3119  uint */\n      0x00\n        /* \"Dropsite.sol\":1018:1023  Owner */\n      0x0c\n      0x01\n      swap1\n      sload\n      swap1\n      0x0100\n      exp\n      swap1\n      div\n      0xffffffffffffffffffffffffffffffffffffffff\n      and\n        /* \"Dropsite.sol\":1002:1023  _msgSender() == Owner */\n      0xffffffffffffffffffffffffffffffffffffffff\n      and\n        /* \"Dropsite.sol\":1002:1014  _msgSender() */\n      tag_133\n        /* \"Dropsite.sol\":1002:1012  _msgSender */\n      tag_79\n        /* \"Dropsite.sol\":1002:1014  _msgSender() */\n      jump\t// in\n    tag_133:\n        /* \"Dropsite.sol\":1002:1023  _msgSender() == Owner */\n      0xffffffffffffffffffffffffffffffffffffffff\n      and\n      eq\n        /* \"Dropsite.sol\":994:1056  require(_msgSender() == Owner, \"Only NFT-ES Owner can Access\") */\n      tag_134\n      jumpi\n      mload(0x40)\n      0x08c379a000000000000000000000000000000000000000000000000000000000\n      dup2\n      mstore\n      0x04\n      add\n      tag_135\n      swap1\n      tag_82\n      jump\t// in\n    tag_135:\n      mload(0x40)\n      dup1\n      swap2\n      sub\n      swap1\n      revert\n    tag_134:\n        /* \"Dropsite.sol\":3137:3158  address(this).balance */\n      selfbalance\n        /* \"Dropsite.sol\":3130:3158  return address(this).balance */\n      swap1\n      pop\n        /* \"Dropsite.sol\":3057:3165  function ContractBalance() public view OnlyOwner returns (uint){... */\n      swap1\n      jump\t// out\n        /* \"Dropsite.sol\":5969:6537  function CryptoRandomMint(address user_addr)  contractIsNotPaused public payable returns (uint,string memory) {... */\n    tag_47:\n        /* \"Dropsite.sol\":6059:6063  uint */\n      0x00\n        /* \"Dropsite.sol\":6064:6077  string memory */\n      0x60\n        /* \"Dropsite.sol\":1183:1188  false */\n      0x00\n        /* \"Dropsite.sol\":1171:1188  IsPaused == false */\n      iszero\n      iszero\n        /* \"Dropsite.sol\":1171:1179  IsPaused */\n      0x0c\n      0x00\n      swap1\n      sload\n      swap1\n      0x0100\n      exp\n      swap1\n      div\n      0xff\n      and\n        /* \"Dropsite.sol\":1171:1188  IsPaused == false */\n      iszero\n      iszero\n      eq\n        /* \"Dropsite.sol\":1162:1221  require (IsPaused == false, \"Dropsite is not Opened Yet.\" ) */\n      tag_138\n      jumpi\n      mload(0x40)\n      0x08c379a000000000000000000000000000000000000000000000000000000000\n      dup2\n      mstore\n      0x04\n      add\n      tag_139\n      swap1\n      tag_109\n      jump\t// in\n    tag_139:\n      mload(0x40)\n      dup1\n      swap2\n      sub\n      swap1\n      revert\n    tag_138:\n        /* \"Dropsite.sol\":6110:6114  1000 */\n      0x03e8\n        /* \"Dropsite.sol\":6094:6109  TotalNFTsMinted */\n      sload(0x04)\n        /* \"Dropsite.sol\":6094:6114  TotalNFTsMinted<1000 */\n      lt\n        /* \"Dropsite.sol\":6086:6144  require(TotalNFTsMinted<1000, \"Max Minting Limit reached\") */\n      tag_141\n      jumpi\n      mload(0x40)\n      0x08c379a000000000000000000000000000000000000000000000000000000000\n      dup2\n      mstore\n      0x04\n      add\n      tag_142\n      swap1\n      tag_113\n      jump\t// in\n    tag_142:\n      mload(0x40)\n      dup1\n      swap2\n      sub\n      swap1\n      revert\n    tag_141:\n        /* \"Dropsite.sol\":6172:6180  mintFees */\n      sload(0x06)\n        /* \"Dropsite.sol\":6159:6168  msg.value */\n      callvalue\n        /* \"Dropsite.sol\":6159:6180  msg.value == mintFees */\n      eq\n        /* \"Dropsite.sol\":6151:6203  require(msg.value == mintFees, \"Not Enough Balance\") */\n      tag_143\n      jumpi\n      mload(0x40)\n      0x08c379a000000000000000000000000000000000000000000000000000000000\n      dup2\n      mstore\n      0x04\n      add\n      tag_144\n      swap1\n      tag_145\n      jump\t// in\n    tag_144:\n      mload(0x40)\n      dup1\n      swap2\n      sub\n      swap1\n      revert\n    tag_143:\n        /* \"Dropsite.sol\":6284:6294  uint nftId */\n      0x00\n        /* \"Dropsite.sol\":6297:6315  updateConditions() */\n      tag_146\n        /* \"Dropsite.sol\":6297:6313  updateConditions */\n      tag_115\n        /* \"Dropsite.sol\":6297:6315  updateConditions() */\n      jump\t// in\n    tag_146:\n        /* \"Dropsite.sol\":6284:6315  uint nftId = updateConditions() */\n      swap1\n      pop\n        /* \"Dropsite.sol\":6321:6363  _mint(user_addr, nftId, numOfCopies, data) */\n      tag_147\n        /* \"Dropsite.sol\":6327:6336  user_addr */\n      dup5\n        /* \"Dropsite.sol\":6338:6343  nftId */\n      dup3\n        /* \"Dropsite.sol\":6345:6356  numOfCopies */\n      sload(0x05)\n        /* \"Dropsite.sol\":6358:6362  data */\n      0x02\n        /* \"Dropsite.sol\":6321:6363  _mint(user_addr, nftId, numOfCopies, data) */\n      dup1\n      sload\n      tag_148\n      swap1\n      tag_118\n      jump\t// in\n    tag_148:\n      dup1\n      0x1f\n      add\n      0x20\n      dup1\n      swap2\n      div\n      mul\n      0x20\n      add\n      mload(0x40)\n      swap1\n      dup2\n      add\n      0x40\n      mstore\n      dup1\n      swap3\n      swap2\n      swap1\n      dup2\n      dup2\n      mstore\n      0x20\n      add\n      dup3\n      dup1\n      sload\n      tag_149\n      swap1\n      tag_118\n      jump\t// in\n    tag_149:\n      dup1\n      iszero\n      tag_150\n      jumpi\n      dup1\n      0x1f\n      lt\n      tag_151\n      jumpi\n      0x0100\n      dup1\n      dup4\n      sload\n      div\n      mul\n      dup4\n      mstore\n      swap2\n      0x20\n      add\n      swap2\n      jump(tag_150)\n    tag_151:\n      dup3\n      add\n      swap2\n      swap1\n      0x00\n      mstore\n      keccak256(0x00, 0x20)\n      swap1\n    tag_152:\n      dup2\n      sload\n      dup2\n      mstore\n      swap1\n      0x01\n      add\n      swap1\n      0x20\n      add\n      dup1\n      dup4\n      gt\n      tag_152\n      jumpi\n      dup3\n      swap1\n      sub\n      0x1f\n      and\n      dup3\n      add\n      swap2\n    tag_150:\n      pop\n      pop\n      pop\n      pop\n      pop\n        /* \"Dropsite.sol\":6321:6326  _mint */\n      tag_123\n        /* \"Dropsite.sol\":6321:6363  _mint(user_addr, nftId, numOfCopies, data) */\n      jump\t// in\n    tag_147:\n        /* \"Dropsite.sol\":6369:6407  depositAmount(_msgSender(), msg.value) */\n      tag_153\n        /* \"Dropsite.sol\":6383:6395  _msgSender() */\n      tag_154\n        /* \"Dropsite.sol\":6383:6393  _msgSender */\n      tag_79\n        /* \"Dropsite.sol\":6383:6395  _msgSender() */\n      jump\t// in\n    tag_154:\n        /* \"Dropsite.sol\":6397:6406  msg.value */\n      callvalue\n        /* \"Dropsite.sol\":6369:6382  depositAmount */\n      tag_155\n        /* \"Dropsite.sol\":6369:6407  depositAmount(_msgSender(), msg.value) */\n      jump\t// in\n    tag_153:\n        /* \"Dropsite.sol\":6413:6428  TotalNFTsMinted */\n      0x04\n      0x00\n        /* \"Dropsite.sol\":6413:6430  TotalNFTsMinted++ */\n      dup2\n      sload\n      dup1\n      swap3\n      swap2\n      swap1\n      tag_156\n      swap1\n      tag_125\n      jump\t// in\n    tag_156:\n      swap2\n      swap1\n      pop\n      sstore\n      pop\n        /* \"Dropsite.sol\":6436:6454  dropsite_NFT_Owner */\n      0x0a\n        /* \"Dropsite.sol\":6436:6465  dropsite_NFT_Owner[user_addr] */\n      0x00\n        /* \"Dropsite.sol\":6455:6464  user_addr */\n      dup6\n        /* \"Dropsite.sol\":6436:6465  dropsite_NFT_Owner[user_addr] */\n      0xffffffffffffffffffffffffffffffffffffffff\n      and\n      0xffffffffffffffffffffffffffffffffffffffff\n      and\n      dup2\n      mstore\n      0x20\n      add\n      swap1\n      dup2\n      mstore\n      0x20\n      add\n      0x00\n      keccak256\n        /* \"Dropsite.sol\":6436:6485  dropsite_NFT_Owner[user_addr].owned_Dropsite_NFTs */\n      0x00\n      add\n        /* \"Dropsite.sol\":6491:6496  nftId */\n      dup2\n        /* \"Dropsite.sol\":6436:6497  dropsite_NFT_Owner[user_addr].owned_Dropsite_NFTs.push(nftId) */\n      swap1\n      dup1\n      0x01\n      dup2\n      sload\n      add\n      dup1\n      dup3\n      sstore\n      dup1\n      swap2\n      pop\n      pop\n      0x01\n      swap1\n      sub\n      swap1\n      0x00\n      mstore\n      keccak256(0x00, 0x20)\n      add\n      0x00\n      swap1\n      swap2\n      swap1\n      swap2\n      swap1\n      swap2\n      pop\n      sstore\n        /* \"Dropsite.sol\":6511:6516  nftId */\n      dup1\n        /* \"Dropsite.sol\":6524:6528  data */\n      0x02\n        /* \"Dropsite.sol\":6503:6530  return (nftId,string(data)) */\n      dup1\n      dup1\n      sload\n      tag_158\n      swap1\n      tag_118\n      jump\t// in\n    tag_158:\n      dup1\n      0x1f\n      add\n      0x20\n      dup1\n      swap2\n      div\n      mul\n      0x20\n      add\n      mload(0x40)\n      swap1\n      dup2\n      add\n      0x40\n      mstore\n      dup1\n      swap3\n      swap2\n      swap1\n      dup2\n      dup2\n      mstore\n      0x20\n      add\n      dup3\n      dup1\n      sload\n      tag_159\n      swap1\n      tag_118\n      jump\t// in\n    tag_159:\n      dup1\n      iszero\n      tag_160\n      jumpi\n      dup1\n      0x1f\n      lt\n      tag_161\n      jumpi\n      0x0100\n      dup1\n      dup4\n      sload\n      div\n      mul\n      dup4\n      mstore\n      swap2\n      0x20\n      add\n      swap2\n      jump(tag_160)\n    tag_161:\n      dup3\n      add\n      swap2\n      swap1\n      0x00\n      mstore\n      keccak256(0x00, 0x20)\n      swap1\n    tag_162:\n      dup2\n      sload\n      dup2\n      mstore\n      swap1\n      0x01\n      add\n      swap1\n      0x20\n      add\n      dup1\n      dup4\n      gt\n      tag_162\n      jumpi\n      dup3\n      swap1\n      sub\n      0x1f\n      and\n      dup3\n      add\n      swap2\n    tag_160:\n      pop\n      pop\n      pop\n      pop\n      pop\n      swap1\n      pop\n      swap3\n      pop\n      swap3\n      pop\n      pop\n        /* \"Dropsite.sol\":5969:6537  function CryptoRandomMint(address user_addr)  contractIsNotPaused public payable returns (uint,string memory) {... */\n      swap2\n      pop\n      swap2\n      jump\t// out\n        /* \"Dropsite.sol\":1882:2029  function checkMintedCategoryWise() public view OnlyOwner contractIsNotPaused returns(uint,uint,uint){... */\n    tag_51:\n        /* \"Dropsite.sol\":1967:1971  uint */\n      0x00\n        /* \"Dropsite.sol\":1972:1976  uint */\n      dup1\n        /* \"Dropsite.sol\":1977:1981  uint */\n      0x00\n        /* \"Dropsite.sol\":1018:1023  Owner */\n      0x0c\n      0x01\n      swap1\n      sload\n      swap1\n      0x0100\n      exp\n      swap1\n      div\n      0xffffffffffffffffffffffffffffffffffffffff\n      and\n        /* \"Dropsite.sol\":1002:1023  _msgSender() == Owner */\n      0xffffffffffffffffffffffffffffffffffffffff\n      and\n        /* \"Dropsite.sol\":1002:1014  _msgSender() */\n      tag_164\n        /* \"Dropsite.sol\":1002:1012  _msgSender */\n      tag_79\n        /* \"Dropsite.sol\":1002:1014  _msgSender() */\n      jump\t// in\n    tag_164:\n        /* \"Dropsite.sol\":1002:1023  _msgSender() == Owner */\n      0xffffffffffffffffffffffffffffffffffffffff\n      and\n      eq\n        /* \"Dropsite.sol\":994:1056  require(_msgSender() == Owner, \"Only NFT-ES Owner can Access\") */\n      tag_165\n      jumpi\n      mload(0x40)\n      0x08c379a000000000000000000000000000000000000000000000000000000000\n      dup2\n      mstore\n      0x04\n      add\n      tag_166\n      swap1\n      tag_82\n      jump\t// in\n    tag_166:\n      mload(0x40)\n      dup1\n      swap2\n      sub\n      swap1\n      revert\n    tag_165:\n        /* \"Dropsite.sol\":1183:1188  false */\n      0x00\n        /* \"Dropsite.sol\":1171:1188  IsPaused == false */\n      iszero\n      iszero\n        /* \"Dropsite.sol\":1171:1179  IsPaused */\n      0x0c\n      0x00\n      swap1\n      sload\n      swap1\n      0x0100\n      exp\n      swap1\n      div\n      0xff\n      and\n        /* \"Dropsite.sol\":1171:1188  IsPaused == false */\n      iszero\n      iszero\n      eq\n        /* \"Dropsite.sol\":1162:1221  require (IsPaused == false, \"Dropsite is not Opened Yet.\" ) */\n      tag_168\n      jumpi\n      mload(0x40)\n      0x08c379a000000000000000000000000000000000000000000000000000000000\n      dup2\n      mstore\n      0x04\n      add\n      tag_169\n      swap1\n      tag_109\n      jump\t// in\n    tag_169:\n      mload(0x40)\n      dup1\n      swap2\n      sub\n      swap1\n      revert\n    tag_168:\n        /* \"Dropsite.sol\":2001:2008  Diamond */\n      sload(0x07)\n        /* \"Dropsite.sol\":2009:2013  Gold */\n      sload(0x08)\n        /* \"Dropsite.sol\":2014:2020  Silver */\n      sload(0x09)\n        /* \"Dropsite.sol\":1993:2021  return (Diamond,Gold,Silver) */\n      swap3\n      pop\n      swap3\n      pop\n      swap3\n      pop\n        /* \"Dropsite.sol\":1882:2029  function checkMintedCategoryWise() public view OnlyOwner contractIsNotPaused returns(uint,uint,uint){... */\n      swap1\n      swap2\n      swap3\n      jump\t// out\n        /* \"Dropsite.sol\":2151:2262  function getMintFee() public view OnlyOwner contractIsNotPaused returns (uint) {... */\n    tag_56:\n        /* \"Dropsite.sol\":2224:2228  uint */\n      0x00\n        /* \"Dropsite.sol\":1018:1023  Owner */\n      0x0c\n      0x01\n      swap1\n      sload\n      swap1\n      0x0100\n      exp\n      swap1\n      div\n      0xffffffffffffffffffffffffffffffffffffffff\n      and\n        /* \"Dropsite.sol\":1002:1023  _msgSender() == Owner */\n      0xffffffffffffffffffffffffffffffffffffffff\n      and\n        /* \"Dropsite.sol\":1002:1014  _msgSender() */\n      tag_172\n        /* \"Dropsite.sol\":1002:1012  _msgSender */\n      tag_79\n        /* \"Dropsite.sol\":1002:1014  _msgSender() */\n      jump\t// in\n    tag_172:\n        /* \"Dropsite.sol\":1002:1023  _msgSender() == Owner */\n      0xffffffffffffffffffffffffffffffffffffffff\n      and\n      eq\n        /* \"Dropsite.sol\":994:1056  require(_msgSender() == Owner, \"Only NFT-ES Owner can Access\") */\n      tag_173\n      jumpi\n      mload(0x40)\n      0x08c379a000000000000000000000000000000000000000000000000000000000\n      dup2\n      mstore\n      0x04\n      add\n      tag_174\n      swap1\n      tag_82\n      jump\t// in\n    tag_174:\n      mload(0x40)\n      dup1\n      swap2\n      sub\n      swap1\n      revert\n    tag_173:\n        /* \"Dropsite.sol\":1183:1188  false */\n      0x00\n        /* \"Dropsite.sol\":1171:1188  IsPaused == false */\n      iszero\n      iszero\n        /* \"Dropsite.sol\":1171:1179  IsPaused */\n      0x0c\n      0x00\n      swap1\n      sload\n      swap1\n      0x0100\n      exp\n      swap1\n      div\n      0xff\n      and\n        /* \"Dropsite.sol\":1171:1188  IsPaused == false */\n      iszero\n      iszero\n      eq\n        /* \"Dropsite.sol\":1162:1221  require (IsPaused == false, \"Dropsite is not Opened Yet.\" ) */\n      tag_176\n      jumpi\n      mload(0x40)\n      0x08c379a000000000000000000000000000000000000000000000000000000000\n      dup2\n      mstore\n      0x04\n      add\n      tag_177\n      swap1\n      tag_109\n      jump\t// in\n    tag_177:\n      mload(0x40)\n      dup1\n      swap2\n      sub\n      swap1\n      revert\n    tag_176:\n        /* \"Dropsite.sol\":2247:2255  mintFees */\n      sload(0x06)\n        /* \"Dropsite.sol\":2240:2255  return mintFees */\n      swap1\n      pop\n        /* \"Dropsite.sol\":2151:2262  function getMintFee() public view OnlyOwner contractIsNotPaused returns (uint) {... */\n      swap1\n      jump\t// out\n        /* \"Dropsite.sol\":2417:2552  function stopDropsite() public OnlyOwner{... */\n    tag_60:\n        /* \"Dropsite.sol\":1018:1023  Owner */\n      0x0c\n      0x01\n      swap1\n      sload\n      swap1\n      0x0100\n      exp\n      swap1\n      div\n      0xffffffffffffffffffffffffffffffffffffffff\n      and\n        /* \"Dropsite.sol\":1002:1023  _msgSender() == Owner */\n      0xffffffffffffffffffffffffffffffffffffffff\n      and\n        /* \"Dropsite.sol\":1002:1014  _msgSender() */\n      tag_180\n        /* \"Dropsite.sol\":1002:1012  _msgSender */\n      tag_79\n        /* \"Dropsite.sol\":1002:1014  _msgSender() */\n      jump\t// in\n    tag_180:\n        /* \"Dropsite.sol\":1002:1023  _msgSender() == Owner */\n      0xffffffffffffffffffffffffffffffffffffffff\n      and\n      eq\n        /* \"Dropsite.sol\":994:1056  require(_msgSender() == Owner, \"Only NFT-ES Owner can Access\") */\n      tag_181\n      jumpi\n      mload(0x40)\n      0x08c379a000000000000000000000000000000000000000000000000000000000\n      dup2\n      mstore\n      0x04\n      add\n      tag_182\n      swap1\n      tag_82\n      jump\t// in\n    tag_182:\n      mload(0x40)\n      dup1\n      swap2\n      sub\n      swap1\n      revert\n    tag_181:\n        /* \"Dropsite.sol\":2485:2490  false */\n      0x00\n        /* \"Dropsite.sol\":2475:2490  IsPaused==false */\n      iszero\n      iszero\n        /* \"Dropsite.sol\":2475:2483  IsPaused */\n      0x0c\n      0x00\n      swap1\n      sload\n      swap1\n      0x0100\n      exp\n      swap1\n      div\n      0xff\n      and\n        /* \"Dropsite.sol\":2475:2490  IsPaused==false */\n      iszero\n      iszero\n      eq\n        /* \"Dropsite.sol\":2467:2522  require(IsPaused==false, \"Dropsite is already Stopped\") */\n      tag_184\n      jumpi\n      mload(0x40)\n      0x08c379a000000000000000000000000000000000000000000000000000000000\n      dup2\n      mstore\n      0x04\n      add\n      tag_185\n      swap1\n      tag_186\n      jump\t// in\n    tag_185:\n      mload(0x40)\n      dup1\n      swap2\n      sub\n      swap1\n      revert\n    tag_184:\n        /* \"Dropsite.sol\":2541:2545  true */\n      0x01\n        /* \"Dropsite.sol\":2532:2540  IsPaused */\n      0x0c\n      0x00\n        /* \"Dropsite.sol\":2532:2545  IsPaused=true */\n      0x0100\n      exp\n      dup2\n      sload\n      dup2\n      0xff\n      mul\n      not\n      and\n      swap1\n      dup4\n      iszero\n      iszero\n      mul\n      or\n      swap1\n      sstore\n      pop\n        /* \"Dropsite.sol\":2417:2552  function stopDropsite() public OnlyOwner{... */\n      jump\t// out\n        /* \"Dropsite.sol\":1279:1308  address payable public  Owner */\n    tag_63:\n      0x0c\n      0x01\n      swap1\n      sload\n      swap1\n      0x0100\n      exp\n      swap1\n      div\n      0xffffffffffffffffffffffffffffffffffffffff\n      and\n      dup2\n      jump\t// out\n        /* \"Dropsite.sol\":2035:2141  function setMintFee(uint _mintFee) public OnlyOwner contractIsNotPaused {... */\n    tag_70:\n        /* \"Dropsite.sol\":1018:1023  Owner */\n      0x0c\n      0x01\n      swap1\n      sload\n      swap1\n      0x0100\n      exp\n      swap1\n      div\n      0xffffffffffffffffffffffffffffffffffffffff\n      and\n        /* \"Dropsite.sol\":1002:1023  _msgSender() == Owner */\n      0xffffffffffffffffffffffffffffffffffffffff\n      and\n        /* \"Dropsite.sol\":1002:1014  _msgSender() */\n      tag_188\n        /* \"Dropsite.sol\":1002:1012  _msgSender */\n      tag_79\n        /* \"Dropsite.sol\":1002:1014  _msgSender() */\n      jump\t// in\n    tag_188:\n        /* \"Dropsite.sol\":1002:1023  _msgSender() == Owner */\n      0xffffffffffffffffffffffffffffffffffffffff\n      and\n      eq\n        /* \"Dropsite.sol\":994:1056  require(_msgSender() == Owner, \"Only NFT-ES Owner can Access\") */\n      tag_189\n      jumpi\n      mload(0x40)\n      0x08c379a000000000000000000000000000000000000000000000000000000000\n      dup2\n      mstore\n      0x04\n      add\n      tag_190\n      swap1\n      tag_82\n      jump\t// in\n    tag_190:\n      mload(0x40)\n      dup1\n      swap2\n      sub\n      swap1\n      revert\n    tag_189:\n        /* \"Dropsite.sol\":1183:1188  false */\n      0x00\n        /* \"Dropsite.sol\":1171:1188  IsPaused == false */\n      iszero\n      iszero\n        /* \"Dropsite.sol\":1171:1179  IsPaused */\n      0x0c\n      0x00\n      swap1\n      sload\n      swap1\n      0x0100\n      exp\n      swap1\n      div\n      0xff\n      and\n        /* \"Dropsite.sol\":1171:1188  IsPaused == false */\n      iszero\n      iszero\n      eq\n        /* \"Dropsite.sol\":1162:1221  require (IsPaused == false, \"Dropsite is not Opened Yet.\" ) */\n      tag_192\n      jumpi\n      mload(0x40)\n      0x08c379a000000000000000000000000000000000000000000000000000000000\n      dup2\n      mstore\n      0x04\n      add\n      tag_193\n      swap1\n      tag_109\n      jump\t// in\n    tag_193:\n      mload(0x40)\n      dup1\n      swap2\n      sub\n      swap1\n      revert\n    tag_192:\n        /* \"Dropsite.sol\":2126:2134  _mintFee */\n      dup1\n        /* \"Dropsite.sol\":2117:2125  mintFees */\n      0x06\n        /* \"Dropsite.sol\":2117:2134  mintFees=_mintFee */\n      dup2\n      swap1\n      sstore\n      pop\n        /* \"Dropsite.sol\":2035:2141  function setMintFee(uint _mintFee) public OnlyOwner contractIsNotPaused {... */\n      pop\n      jump\t// out\n        /* \"Dropsite.sol\":1663:1822  function returnOwner(address addr) public view contractIsNotPaused returns  (uint[] memory){... */\n    tag_74:\n        /* \"Dropsite.sol\":1740:1753  uint[] memory */\n      0x60\n        /* \"Dropsite.sol\":1183:1188  false */\n      0x00\n        /* \"Dropsite.sol\":1171:1188  IsPaused == false */\n      iszero\n      iszero\n        /* \"Dropsite.sol\":1171:1179  IsPaused */\n      0x0c\n      0x00\n      swap1\n      sload\n      swap1\n      0x0100\n      exp\n      swap1\n      div\n      0xff\n      and\n        /* \"Dropsite.sol\":1171:1188  IsPaused == false */\n      iszero\n      iszero\n      eq\n        /* \"Dropsite.sol\":1162:1221  require (IsPaused == false, \"Dropsite is not Opened Yet.\" ) */\n      tag_196\n      jumpi\n      mload(0x40)\n      0x08c379a000000000000000000000000000000000000000000000000000000000\n      dup2\n      mstore\n      0x04\n      add\n      tag_197\n      swap1\n      tag_109\n      jump\t// in\n    tag_197:\n      mload(0x40)\n      dup1\n      swap2\n      sub\n      swap1\n      revert\n    tag_196:\n        /* \"Dropsite.sol\":1771:1789  dropsite_NFT_Owner */\n      0x0a\n        /* \"Dropsite.sol\":1771:1795  dropsite_NFT_Owner[addr] */\n      0x00\n        /* \"Dropsite.sol\":1790:1794  addr */\n      dup4\n        /* \"Dropsite.sol\":1771:1795  dropsite_NFT_Owner[addr] */\n      0xffffffffffffffffffffffffffffffffffffffff\n      and\n      0xffffffffffffffffffffffffffffffffffffffff\n      and\n      dup2\n      mstore\n      0x20\n      add\n      swap1\n      dup2\n      mstore\n      0x20\n      add\n      0x00\n      keccak256\n        /* \"Dropsite.sol\":1771:1815  dropsite_NFT_Owner[addr].owned_Dropsite_NFTs */\n      0x00\n      add\n        /* \"Dropsite.sol\":1764:1815  return dropsite_NFT_Owner[addr].owned_Dropsite_NFTs */\n      dup1\n      sload\n      dup1\n      0x20\n      mul\n      0x20\n      add\n      mload(0x40)\n      swap1\n      dup2\n      add\n      0x40\n      mstore\n      dup1\n      swap3\n      swap2\n      swap1\n      dup2\n      dup2\n      mstore\n      0x20\n      add\n      dup3\n      dup1\n      sload\n      dup1\n      iszero\n      tag_199\n      jumpi\n      0x20\n      mul\n      dup3\n      add\n      swap2\n      swap1\n      0x00\n      mstore\n      keccak256(0x00, 0x20)\n      swap1\n    tag_200:\n      dup2\n      sload\n      dup2\n      mstore\n      0x20\n      add\n      swap1\n      0x01\n      add\n      swap1\n      dup1\n      dup4\n      gt\n      tag_200\n      jumpi\n    tag_199:\n      pop\n      pop\n      pop\n      pop\n      pop\n      swap1\n      pop\n        /* \"Dropsite.sol\":1663:1822  function returnOwner(address addr) public view contractIsNotPaused returns  (uint[] memory){... */\n      swap2\n      swap1\n      pop\n      jump\t// out\n        /* \"Context.sol\":640:736  function _msgSender() internal view virtual returns (address) {... */\n    tag_79:\n        /* \"Context.sol\":693:700  address */\n      0x00\n        /* \"Context.sol\":719:729  msg.sender */\n      caller\n        /* \"Context.sol\":712:729  return msg.sender */\n      swap1\n      pop\n        /* \"Context.sol\":640:736  function _msgSender() internal view virtual returns (address) {... */\n      swap1\n      jump\t// out\n        /* \"Dropsite.sol\":3657:5259  function updateConditions() internal contractIsNotPaused returns(uint) {... */\n    tag_115:\n        /* \"Dropsite.sol\":3722:3726  uint */\n      0x00\n        /* \"Dropsite.sol\":1183:1188  false */\n      dup1\n        /* \"Dropsite.sol\":1171:1188  IsPaused == false */\n      iszero\n      iszero\n        /* \"Dropsite.sol\":1171:1179  IsPaused */\n      0x0c\n      0x00\n      swap1\n      sload\n      swap1\n      0x0100\n      exp\n      swap1\n      div\n      0xff\n      and\n        /* \"Dropsite.sol\":1171:1188  IsPaused == false */\n      iszero\n      iszero\n      eq\n        /* \"Dropsite.sol\":1162:1221  require (IsPaused == false, \"Dropsite is not Opened Yet.\" ) */\n      tag_203\n      jumpi\n      mload(0x40)\n      0x08c379a000000000000000000000000000000000000000000000000000000000\n      dup2\n      mstore\n      0x04\n      add\n      tag_204\n      swap1\n      tag_109\n      jump\t// in\n    tag_204:\n      mload(0x40)\n      dup1\n      swap2\n      sub\n      swap1\n      revert\n    tag_203:\n        /* \"Dropsite.sol\":3737:3747  uint index */\n      0x00\n        /* \"Dropsite.sol\":3750:3758  random() */\n      tag_206\n        /* \"Dropsite.sol\":3750:3756  random */\n      tag_207\n        /* \"Dropsite.sol\":3750:3758  random() */\n      jump\t// in\n    tag_206:\n        /* \"Dropsite.sol\":3737:3758  uint index = random() */\n      swap1\n      pop\n        /* \"Dropsite.sol\":3768:3778  uint nftId */\n      0x00\n        /* \"Dropsite.sol\":3781:3785  nums */\n      0x03\n        /* \"Dropsite.sol\":3786:3791  index */\n      dup3\n        /* \"Dropsite.sol\":3781:3792  nums[index] */\n      0x14\n      dup2\n      lt\n      tag_208\n      jumpi\n      tag_209\n      tag_210\n      jump\t// in\n    tag_209:\n    tag_208:\n      0x20\n      swap2\n      dup3\n      dup3\n      div\n      add\n      swap2\n      swap1\n      mod\n      swap1\n      sload\n      swap1\n      0x0100\n      exp\n      swap1\n      div\n      0xff\n      and\n        /* \"Dropsite.sol\":3768:3792  uint nftId = nums[index] */\n      0xff\n      and\n      swap1\n      pop\n        /* \"Dropsite.sol\":3898:3899  0 */\n      0x00\n        /* \"Dropsite.sol\":3889:3894  nftId */\n      dup2\n        /* \"Dropsite.sol\":3889:3899  nftId == 0 */\n      eq\n        /* \"Dropsite.sol\":3889:3915  nftId == 0 && Diamond < 50 */\n      dup1\n      iszero\n      tag_212\n      jumpi\n      pop\n        /* \"Dropsite.sol\":3913:3915  50 */\n      0x32\n        /* \"Dropsite.sol\":3903:3910  Diamond */\n      sload(0x07)\n        /* \"Dropsite.sol\":3903:3915  Diamond < 50 */\n      lt\n        /* \"Dropsite.sol\":3889:3915  nftId == 0 && Diamond < 50 */\n    tag_212:\n        /* \"Dropsite.sol\":3886:5254  if(nftId == 0 && Diamond < 50) {... */\n      iszero\n      tag_213\n      jumpi\n        /* \"Dropsite.sol\":3932:3939  Diamond */\n      0x07\n      0x00\n        /* \"Dropsite.sol\":3932:3941  Diamond++ */\n      dup2\n      sload\n      dup1\n      swap3\n      swap2\n      swap1\n      tag_214\n      swap1\n      tag_125\n      jump\t// in\n    tag_214:\n      swap2\n      swap1\n      pop\n      sstore\n      pop\n        /* \"Dropsite.sol\":3997:4022  Strings.toString(Diamond) */\n      tag_215\n        /* \"Dropsite.sol\":4014:4021  Diamond */\n      sload(0x07)\n        /* \"Dropsite.sol\":3997:4013  Strings.toString */\n      tag_216\n        /* \"Dropsite.sol\":3997:4022  Strings.toString(Diamond) */\n      jump\t// in\n    tag_215:\n        /* \"Dropsite.sol\":3969:4023  abi.encodePacked(\"Diamond_\",Strings.toString(Diamond)) */\n      add(0x20, mload(0x40))\n      tag_217\n      swap2\n      swap1\n      tag_218\n      jump\t// in\n    tag_217:\n      mload(0x40)\n      0x20\n      dup2\n      dup4\n      sub\n      sub\n      dup2\n      mstore\n      swap1\n      0x40\n      mstore\n        /* \"Dropsite.sol\":3955:3959  data */\n      0x02\n        /* \"Dropsite.sol\":3955:4024  data = string(abi.encodePacked(\"Diamond_\",Strings.toString(Diamond))) */\n      swap1\n      dup1\n      mload\n      swap1\n      0x20\n      add\n      swap1\n      tag_219\n      swap3\n      swap2\n      swap1\n      tag_220\n      jump\t// in\n    tag_219:\n      pop\n        /* \"Dropsite.sol\":4058:4063  nftId */\n      dup1\n        /* \"Dropsite.sol\":4051:4063  return nftId */\n      swap3\n      pop\n      pop\n      pop\n      jump(tag_205)\n        /* \"Dropsite.sol\":3886:5254  if(nftId == 0 && Diamond < 50) {... */\n    tag_213:\n        /* \"Dropsite.sol\":4187:4188  1 */\n      0x01\n        /* \"Dropsite.sol\":4178:4183  nftId */\n      dup2\n        /* \"Dropsite.sol\":4178:4188  nftId <= 1 */\n      gt\n      iszero\n        /* \"Dropsite.sol\":4178:4202  nftId <= 1 && Gold < 100 */\n      dup1\n      iszero\n      tag_222\n      jumpi\n      pop\n        /* \"Dropsite.sol\":4199:4202  100 */\n      0x64\n        /* \"Dropsite.sol\":4192:4196  Gold */\n      sload(0x08)\n        /* \"Dropsite.sol\":4192:4202  Gold < 100 */\n      lt\n        /* \"Dropsite.sol\":4178:4202  nftId <= 1 && Gold < 100 */\n    tag_222:\n        /* \"Dropsite.sol\":4175:5254  if(nftId <= 1 && Gold < 100) {... */\n      iszero\n      tag_223\n      jumpi\n        /* \"Dropsite.sol\":4218:4222  Gold */\n      0x08\n      0x00\n        /* \"Dropsite.sol\":4218:4224  Gold++ */\n      dup2\n      sload\n      dup1\n      swap3\n      swap2\n      swap1\n      tag_224\n      swap1\n      tag_125\n      jump\t// in\n    tag_224:\n      swap2\n      swap1\n      pop\n      sstore\n      pop\n        /* \"Dropsite.sol\":4277:4299  Strings.toString(Gold) */\n      tag_225\n        /* \"Dropsite.sol\":4294:4298  Gold */\n      sload(0x08)\n        /* \"Dropsite.sol\":4277:4293  Strings.toString */\n      tag_216\n        /* \"Dropsite.sol\":4277:4299  Strings.toString(Gold) */\n      jump\t// in\n    tag_225:\n        /* \"Dropsite.sol\":4252:4300  abi.encodePacked(\"Gold_\",Strings.toString(Gold)) */\n      add(0x20, mload(0x40))\n      tag_226\n      swap2\n      swap1\n      tag_227\n      jump\t// in\n    tag_226:\n      mload(0x40)\n      0x20\n      dup2\n      dup4\n      sub\n      sub\n      dup2\n      mstore\n      swap1\n      0x40\n      mstore\n        /* \"Dropsite.sol\":4238:4242  data */\n      0x02\n        /* \"Dropsite.sol\":4238:4301  data = string(abi.encodePacked(\"Gold_\",Strings.toString(Gold))) */\n      swap1\n      dup1\n      mload\n      swap1\n      0x20\n      add\n      swap1\n      tag_228\n      swap3\n      swap2\n      swap1\n      tag_220\n      jump\t// in\n    tag_228:\n      pop\n        /* \"Dropsite.sol\":4322:4327  nftId */\n      dup1\n        /* \"Dropsite.sol\":4315:4327  return nftId */\n      swap3\n      pop\n      pop\n      pop\n      jump(tag_205)\n        /* \"Dropsite.sol\":4175:5254  if(nftId <= 1 && Gold < 100) {... */\n    tag_223:\n        /* \"Dropsite.sol\":4457:4458  2 */\n      0x02\n        /* \"Dropsite.sol\":4448:4453  nftId */\n      dup2\n        /* \"Dropsite.sol\":4448:4458  nftId <= 2 */\n      gt\n      iszero\n        /* \"Dropsite.sol\":4448:4475  nftId <= 2 && Silver <= 850 */\n      dup1\n      iszero\n      tag_230\n      jumpi\n      pop\n        /* \"Dropsite.sol\":4472:4475  850 */\n      0x0352\n        /* \"Dropsite.sol\":4462:4468  Silver */\n      sload(0x09)\n        /* \"Dropsite.sol\":4462:4475  Silver <= 850 */\n      gt\n      iszero\n        /* \"Dropsite.sol\":4448:4475  nftId <= 2 && Silver <= 850 */\n    tag_230:\n        /* \"Dropsite.sol\":4445:5254  if(nftId <= 2 && Silver <= 850) {... */\n      iszero\n      tag_231\n      jumpi\n        /* \"Dropsite.sol\":4491:4497  Silver */\n      0x09\n      0x00\n        /* \"Dropsite.sol\":4491:4499  Silver++ */\n      dup2\n      sload\n      dup1\n      swap3\n      swap2\n      swap1\n      tag_232\n      swap1\n      tag_125\n      jump\t// in\n    tag_232:\n      swap2\n      swap1\n      pop\n      sstore\n      pop\n        /* \"Dropsite.sol\":4559:4583  Strings.toString(Silver) */\n      tag_233\n        /* \"Dropsite.sol\":4576:4582  Silver */\n      sload(0x09)\n        /* \"Dropsite.sol\":4559:4575  Strings.toString */\n      tag_216\n        /* \"Dropsite.sol\":4559:4583  Strings.toString(Silver) */\n      jump\t// in\n    tag_233:\n        /* \"Dropsite.sol\":4532:4584  abi.encodePacked(\"Silver_\",Strings.toString(Silver)) */\n      add(0x20, mload(0x40))\n      tag_234\n      swap2\n      swap1\n      tag_235\n      jump\t// in\n    tag_234:\n      mload(0x40)\n      0x20\n      dup2\n      dup4\n      sub\n      sub\n      dup2\n      mstore\n      swap1\n      0x40\n      mstore\n        /* \"Dropsite.sol\":4518:4522  data */\n      0x02\n        /* \"Dropsite.sol\":4518:4585  data = string(abi.encodePacked(\"Silver_\",Strings.toString(Silver))) */\n      swap1\n      dup1\n      mload\n      swap1\n      0x20\n      add\n      swap1\n      tag_236\n      swap3\n      swap2\n      swap1\n      tag_220\n      jump\t// in\n    tag_236:\n        /* \"Dropsite.sol\":4513:4517  data */\n      0x02\n        /* \"Dropsite.sol\":4513:4585  data=data = string(abi.encodePacked(\"Silver_\",Strings.toString(Silver))) */\n      swap1\n      dup1\n      sload\n      tag_237\n      swap1\n      tag_118\n      jump\t// in\n    tag_237:\n      tag_238\n      swap3\n      swap2\n      swap1\n      tag_239\n      jump\t// in\n    tag_238:\n      pop\n        /* \"Dropsite.sol\":4619:4624  nftId */\n      dup1\n        /* \"Dropsite.sol\":4612:4624  return nftId */\n      swap3\n      pop\n      pop\n      pop\n      jump(tag_205)\n        /* \"Dropsite.sol\":4445:5254  if(nftId <= 2 && Silver <= 850) {... */\n    tag_231:\n        /* \"Dropsite.sol\":4836:4839  100 */\n      0x64\n        /* \"Dropsite.sol\":4829:4833  Gold */\n      sload(0x08)\n        /* \"Dropsite.sol\":4829:4839  Gold < 100 */\n      lt\n        /* \"Dropsite.sol\":4826:5245  if(Gold < 100) {... */\n      iszero\n      tag_241\n      jumpi\n        /* \"Dropsite.sol\":4867:4868  1 */\n      0x01\n        /* \"Dropsite.sol\":4859:4868  nftId = 1 */\n      swap1\n      pop\n        /* \"Dropsite.sol\":4886:4890  Gold */\n      0x08\n      0x00\n        /* \"Dropsite.sol\":4886:4892  Gold++ */\n      dup2\n      sload\n      dup1\n      swap3\n      swap2\n      swap1\n      tag_242\n      swap1\n      tag_125\n      jump\t// in\n    tag_242:\n      swap2\n      swap1\n      pop\n      sstore\n      pop\n        /* \"Dropsite.sol\":4949:4971  Strings.toString(Gold) */\n      tag_243\n        /* \"Dropsite.sol\":4966:4970  Gold */\n      sload(0x08)\n        /* \"Dropsite.sol\":4949:4965  Strings.toString */\n      tag_216\n        /* \"Dropsite.sol\":4949:4971  Strings.toString(Gold) */\n      jump\t// in\n    tag_243:\n        /* \"Dropsite.sol\":4924:4972  abi.encodePacked(\"Gold_\",Strings.toString(Gold)) */\n      add(0x20, mload(0x40))\n      tag_244\n      swap2\n      swap1\n      tag_227\n      jump\t// in\n    tag_244:\n      mload(0x40)\n      0x20\n      dup2\n      dup4\n      sub\n      sub\n      dup2\n      mstore\n      swap1\n      0x40\n      mstore\n        /* \"Dropsite.sol\":4910:4914  data */\n      0x02\n        /* \"Dropsite.sol\":4910:4973  data = string(abi.encodePacked(\"Gold_\",Strings.toString(Gold))) */\n      swap1\n      dup1\n      mload\n      swap1\n      0x20\n      add\n      swap1\n      tag_245\n      swap3\n      swap2\n      swap1\n      tag_220\n      jump\t// in\n    tag_245:\n      pop\n        /* \"Dropsite.sol\":5016:5021  nftId */\n      dup1\n        /* \"Dropsite.sol\":5009:5021  return nftId */\n      swap3\n      pop\n      pop\n      pop\n      jump(tag_205)\n        /* \"Dropsite.sol\":4826:5245  if(Gold < 100) {... */\n    tag_241:\n        /* \"Dropsite.sol\":5068:5069  0 */\n      0x00\n        /* \"Dropsite.sol\":5060:5069  nftId = 0 */\n      swap1\n      pop\n        /* \"Dropsite.sol\":5087:5094  Diamond */\n      0x07\n      0x00\n        /* \"Dropsite.sol\":5087:5096  Diamond++ */\n      dup2\n      sload\n      dup1\n      swap3\n      swap2\n      swap1\n      tag_247\n      swap1\n      tag_125\n      jump\t// in\n    tag_247:\n      swap2\n      swap1\n      pop\n      sstore\n      pop\n        /* \"Dropsite.sol\":5156:5181  Strings.toString(Diamond) */\n      tag_248\n        /* \"Dropsite.sol\":5173:5180  Diamond */\n      sload(0x07)\n        /* \"Dropsite.sol\":5156:5172  Strings.toString */\n      tag_216\n        /* \"Dropsite.sol\":5156:5181  Strings.toString(Diamond) */\n      jump\t// in\n    tag_248:\n        /* \"Dropsite.sol\":5128:5182  abi.encodePacked(\"Diamond_\",Strings.toString(Diamond)) */\n      add(0x20, mload(0x40))\n      tag_249\n      swap2\n      swap1\n      tag_218\n      jump\t// in\n    tag_249:\n      mload(0x40)\n      0x20\n      dup2\n      dup4\n      sub\n      sub\n      dup2\n      mstore\n      swap1\n      0x40\n      mstore\n        /* \"Dropsite.sol\":5114:5118  data */\n      0x02\n        /* \"Dropsite.sol\":5114:5183  data = string(abi.encodePacked(\"Diamond_\",Strings.toString(Diamond))) */\n      swap1\n      dup1\n      mload\n      swap1\n      0x20\n      add\n      swap1\n      tag_250\n      swap3\n      swap2\n      swap1\n      tag_220\n      jump\t// in\n    tag_250:\n      pop\n        /* \"Dropsite.sol\":5225:5230  nftId */\n      dup1\n        /* \"Dropsite.sol\":5218:5230  return nftId */\n      swap3\n      pop\n      pop\n      pop\n        /* \"Dropsite.sol\":1231:1232  _ */\n    tag_205:\n        /* \"Dropsite.sol\":3657:5259  function updateConditions() internal contractIsNotPaused returns(uint) {... */\n      swap1\n      jump\t// out\n        /* \"ERC1155_Dropsite.sol\":835:1387  function _mint(... */\n    tag_123:\n        /* \"ERC1155_Dropsite.sol\":997:998  0 */\n      0x00\n        /* \"ERC1155_Dropsite.sol\":983:999  to != address(0) */\n      0xffffffffffffffffffffffffffffffffffffffff\n      and\n        /* \"ERC1155_Dropsite.sol\":983:985  to */\n      dup5\n        /* \"ERC1155_Dropsite.sol\":983:999  to != address(0) */\n      0xffffffffffffffffffffffffffffffffffffffff\n      and\n      eq\n      iszero\n        /* \"ERC1155_Dropsite.sol\":975:1037  require(to != address(0), \"ERC1155: mint to the zero address\") */\n      tag_252\n      jumpi\n      mload(0x40)\n      0x08c379a000000000000000000000000000000000000000000000000000000000\n      dup2\n      mstore\n      0x04\n      add\n      tag_253\n      swap1\n      tag_254\n      jump\t// in\n    tag_253:\n      mload(0x40)\n      dup1\n      swap2\n      sub\n      swap1\n      revert\n    tag_252:\n        /* \"ERC1155_Dropsite.sol\":1048:1064  address operator */\n      0x00\n        /* \"ERC1155_Dropsite.sol\":1067:1079  _msgSender() */\n      tag_255\n        /* \"ERC1155_Dropsite.sol\":1067:1077  _msgSender */\n      tag_79\n        /* \"ERC1155_Dropsite.sol\":1067:1079  _msgSender() */\n      jump\t// in\n    tag_255:\n        /* \"ERC1155_Dropsite.sol\":1048:1079  address operator = _msgSender() */\n      swap1\n      pop\n        /* \"ERC1155_Dropsite.sol\":1090:1192  _beforeTokenTransfer(operator, address(0), to, _asSingletonArray(id), _asSingletonArray(amount), data) */\n      tag_256\n        /* \"ERC1155_Dropsite.sol\":1111:1119  operator */\n      dup2\n        /* \"ERC1155_Dropsite.sol\":1129:1130  0 */\n      0x00\n        /* \"ERC1155_Dropsite.sol\":1133:1135  to */\n      dup8\n        /* \"ERC1155_Dropsite.sol\":1137:1158  _asSingletonArray(id) */\n      tag_257\n        /* \"ERC1155_Dropsite.sol\":1155:1157  id */\n      dup9\n        /* \"ERC1155_Dropsite.sol\":1137:1154  _asSingletonArray */\n      tag_258\n        /* \"ERC1155_Dropsite.sol\":1137:1158  _asSingletonArray(id) */\n      jump\t// in\n    tag_257:\n        /* \"ERC1155_Dropsite.sol\":1160:1185  _asSingletonArray(amount) */\n      tag_259\n        /* \"ERC1155_Dropsite.sol\":1178:1184  amount */\n      dup9\n        /* \"ERC1155_Dropsite.sol\":1160:1177  _asSingletonArray */\n      tag_258\n        /* \"ERC1155_Dropsite.sol\":1160:1185  _asSingletonArray(amount) */\n      jump\t// in\n    tag_259:\n        /* \"ERC1155_Dropsite.sol\":1187:1191  data */\n      dup8\n        /* \"ERC1155_Dropsite.sol\":1090:1110  _beforeTokenTransfer */\n      tag_260\n        /* \"ERC1155_Dropsite.sol\":1090:1192  _beforeTokenTransfer(operator, address(0), to, _asSingletonArray(id), _asSingletonArray(amount), data) */\n      jump\t// in\n    tag_256:\n        /* \"ERC1155_Dropsite.sol\":1223:1229  amount */\n      dup3\n        /* \"ERC1155_Dropsite.sol\":1202:1211  _balances */\n      0x00\n        /* \"ERC1155_Dropsite.sol\":1202:1215  _balances[id] */\n      dup1\n        /* \"ERC1155_Dropsite.sol\":1212:1214  id */\n      dup7\n        /* \"ERC1155_Dropsite.sol\":1202:1215  _balances[id] */\n      dup2\n      mstore\n      0x20\n      add\n      swap1\n      dup2\n      mstore\n      0x20\n      add\n      0x00\n      keccak256\n        /* \"ERC1155_Dropsite.sol\":1202:1219  _balances[id][to] */\n      0x00\n        /* \"ERC1155_Dropsite.sol\":1216:1218  to */\n      dup8\n        /* \"ERC1155_Dropsite.sol\":1202:1219  _balances[id][to] */\n      0xffffffffffffffffffffffffffffffffffffffff\n      and\n      0xffffffffffffffffffffffffffffffffffffffff\n      and\n      dup2\n      mstore\n      0x20\n      add\n      swap1\n      dup2\n      mstore\n      0x20\n      add\n      0x00\n      keccak256\n      0x00\n        /* \"ERC1155_Dropsite.sol\":1202:1229  _balances[id][to] += amount */\n      dup3\n      dup3\n      sload\n      tag_261\n      swap2\n      swap1\n      tag_262\n      jump\t// in\n    tag_261:\n      swap3\n      pop\n      pop\n      dup2\n      swap1\n      sstore\n      pop\n        /* \"ERC1155_Dropsite.sol\":1281:1283  to */\n      dup5\n        /* \"ERC1155_Dropsite.sol\":1244:1296  TransferSingle(operator, address(0), to, id, amount) */\n      0xffffffffffffffffffffffffffffffffffffffff\n      and\n        /* \"ERC1155_Dropsite.sol\":1277:1278  0 */\n      0x00\n        /* \"ERC1155_Dropsite.sol\":1244:1296  TransferSingle(operator, address(0), to, id, amount) */\n      0xffffffffffffffffffffffffffffffffffffffff\n      and\n        /* \"ERC1155_Dropsite.sol\":1259:1267  operator */\n      dup3\n        /* \"ERC1155_Dropsite.sol\":1244:1296  TransferSingle(operator, address(0), to, id, amount) */\n      0xffffffffffffffffffffffffffffffffffffffff\n      and\n      0xc3d58168c5ae7397731d063d5bbf3d657854427343f4c083240f7aacaa2d0f62\n        /* \"ERC1155_Dropsite.sol\":1285:1287  id */\n      dup8\n        /* \"ERC1155_Dropsite.sol\":1289:1295  amount */\n      dup8\n        /* \"ERC1155_Dropsite.sol\":1244:1296  TransferSingle(operator, address(0), to, id, amount) */\n      mload(0x40)\n      tag_263\n      swap3\n      swap2\n      swap1\n      tag_264\n      jump\t// in\n    tag_263:\n      mload(0x40)\n      dup1\n      swap2\n      sub\n      swap1\n      log4\n        /* \"ERC1155_Dropsite.sol\":1306:1380  _doSafeTransferAcceptanceCheck(operator, address(0), to, id, amount, data) */\n      tag_265\n        /* \"ERC1155_Dropsite.sol\":1337:1345  operator */\n      dup2\n        /* \"ERC1155_Dropsite.sol\":1355:1356  0 */\n      0x00\n        /* \"ERC1155_Dropsite.sol\":1359:1361  to */\n      dup8\n        /* \"ERC1155_Dropsite.sol\":1363:1365  id */\n      dup8\n        /* \"ERC1155_Dropsite.sol\":1367:1373  amount */\n      dup8\n        /* \"ERC1155_Dropsite.sol\":1375:1379  data */\n      dup8\n        /* \"ERC1155_Dropsite.sol\":1306:1336  _doSafeTransferAcceptanceCheck */\n      tag_266\n        /* \"ERC1155_Dropsite.sol\":1306:1380  _doSafeTransferAcceptanceCheck(operator, address(0), to, id, amount, data) */\n      jump\t// in\n    tag_265:\n        /* \"ERC1155_Dropsite.sol\":965:1387  {... */\n      pop\n        /* \"ERC1155_Dropsite.sol\":835:1387  function _mint(... */\n      pop\n      pop\n      pop\n      pop\n      jump\t// out\n        /* \"Dropsite.sol\":5797:5916  function depositAmount(address payee,uint amountToDeposit) internal {... */\n    tag_155:\n        /* \"Dropsite.sol\":5894:5909  amountToDeposit */\n      dup1\n        /* \"Dropsite.sol\":5875:5883  deposits */\n      0x0b\n        /* \"Dropsite.sol\":5875:5890  deposits[payee] */\n      0x00\n        /* \"Dropsite.sol\":5884:5889  payee */\n      dup5\n        /* \"Dropsite.sol\":5875:5890  deposits[payee] */\n      0xffffffffffffffffffffffffffffffffffffffff\n      and\n      0xffffffffffffffffffffffffffffffffffffffff\n      and\n      dup2\n      mstore\n      0x20\n      add\n      swap1\n      dup2\n      mstore\n      0x20\n      add\n      0x00\n      keccak256\n      0x00\n        /* \"Dropsite.sol\":5875:5909  deposits[payee] += amountToDeposit */\n      dup3\n      dup3\n      sload\n      tag_268\n      swap2\n      swap1\n      tag_262\n      jump\t// in\n    tag_268:\n      swap3\n      pop\n      pop\n      dup2\n      swap1\n      sstore\n      pop\n        /* \"Dropsite.sol\":5797:5916  function depositAmount(address payee,uint amountToDeposit) internal {... */\n      pop\n      pop\n      jump\t// out\n        /* \"Dropsite.sol\":3276:3472  function random() internal view returns (uint) {... */\n    tag_207:\n        /* \"Dropsite.sol\":3317:3321  uint */\n      0x00\n        /* \"Dropsite.sol\":3353:3370  uint randomnumber */\n      dup1\n        /* \"Dropsite.sol\":3438:3440  20 */\n      0x14\n        /* \"Dropsite.sol\":3405:3420  block.timestamp */\n      timestamp\n        /* \"Dropsite.sol\":3422:3432  msg.sender */\n      caller\n        /* \"Dropsite.sol\":3388:3433  abi.encodePacked(block.timestamp, msg.sender) */\n      add(0x20, mload(0x40))\n      tag_270\n      swap3\n      swap2\n      swap1\n      tag_271\n      jump\t// in\n    tag_270:\n      mload(0x40)\n      0x20\n      dup2\n      dup4\n      sub\n      sub\n      dup2\n      mstore\n      swap1\n      0x40\n      mstore\n        /* \"Dropsite.sol\":3378:3434  keccak256(abi.encodePacked(block.timestamp, msg.sender)) */\n      dup1\n      mload\n      swap1\n      0x20\n      add\n      keccak256\n        /* \"Dropsite.sol\":3373:3435  uint(keccak256(abi.encodePacked(block.timestamp, msg.sender))) */\n      0x00\n      shr\n        /* \"Dropsite.sol\":3373:3440  uint(keccak256(abi.encodePacked(block.timestamp, msg.sender))) % 20 */\n      tag_272\n      swap2\n      swap1\n      tag_273\n      jump\t// in\n    tag_272:\n        /* \"Dropsite.sol\":3353:3440  uint randomnumber = uint(keccak256(abi.encodePacked(block.timestamp, msg.sender))) % 20 */\n      swap1\n      pop\n        /* \"Dropsite.sol\":3453:3465  randomnumber */\n      dup1\n        /* \"Dropsite.sol\":3446:3465  return randomnumber */\n      swap2\n      pop\n      pop\n        /* \"Dropsite.sol\":3276:3472  function random() internal view returns (uint) {... */\n      swap1\n      jump\t// out\n        /* \"Strings.sol\":329:1032  function toString(uint256 value) internal pure returns (string memory) {... */\n    tag_216:\n        /* \"Strings.sol\":385:398  string memory */\n      0x60\n        /* \"Strings.sol\":611:612  0 */\n      0x00\n        /* \"Strings.sol\":602:607  value */\n      dup3\n        /* \"Strings.sol\":602:612  value == 0 */\n      eq\n        /* \"Strings.sol\":598:649  if (value == 0) {... */\n      iszero\n      tag_275\n      jumpi\n        /* \"Strings.sol\":628:638  return \"0\" */\n      mload(0x40)\n      dup1\n      0x40\n      add\n      0x40\n      mstore\n      dup1\n      0x01\n      dup2\n      mstore\n      0x20\n      add\n      0x3000000000000000000000000000000000000000000000000000000000000000\n      dup2\n      mstore\n      pop\n      swap1\n      pop\n      jump(tag_274)\n        /* \"Strings.sol\":598:649  if (value == 0) {... */\n    tag_275:\n        /* \"Strings.sol\":658:670  uint256 temp */\n      0x00\n        /* \"Strings.sol\":673:678  value */\n      dup3\n        /* \"Strings.sol\":658:678  uint256 temp = value */\n      swap1\n      pop\n        /* \"Strings.sol\":688:702  uint256 digits */\n      0x00\n        /* \"Strings.sol\":712:787  while (temp != 0) {... */\n    tag_276:\n        /* \"Strings.sol\":727:728  0 */\n      0x00\n        /* \"Strings.sol\":719:723  temp */\n      dup3\n        /* \"Strings.sol\":719:728  temp != 0 */\n      eq\n        /* \"Strings.sol\":712:787  while (temp != 0) {... */\n      tag_277\n      jumpi\n        /* \"Strings.sol\":744:752  digits++ */\n      dup1\n      dup1\n      tag_278\n      swap1\n      tag_125\n      jump\t// in\n    tag_278:\n      swap2\n      pop\n      pop\n        /* \"Strings.sol\":774:776  10 */\n      0x0a\n        /* \"Strings.sol\":766:776  temp /= 10 */\n      dup3\n      tag_279\n      swap2\n      swap1\n      tag_280\n      jump\t// in\n    tag_279:\n      swap2\n      pop\n        /* \"Strings.sol\":712:787  while (temp != 0) {... */\n      jump(tag_276)\n    tag_277:\n        /* \"Strings.sol\":796:815  bytes memory buffer */\n      0x00\n        /* \"Strings.sol\":828:834  digits */\n      dup2\n        /* \"Strings.sol\":818:835  new bytes(digits) */\n      0xffffffffffffffff\n      dup2\n      gt\n      iszero\n      tag_281\n      jumpi\n      tag_282\n      tag_283\n      jump\t// in\n    tag_282:\n    tag_281:\n      mload(0x40)\n      swap1\n      dup1\n      dup3\n      mstore\n      dup1\n      0x1f\n      add\n      not(0x1f)\n      and\n      0x20\n      add\n      dup3\n      add\n      0x40\n      mstore\n      dup1\n      iszero\n      tag_284\n      jumpi\n      dup2\n      0x20\n      add\n      0x01\n      dup3\n      mul\n      dup1\n      calldatasize\n      dup4\n      calldatacopy\n      dup1\n      dup3\n      add\n      swap2\n      pop\n      pop\n      swap1\n      pop\n    tag_284:\n      pop\n        /* \"Strings.sol\":796:835  bytes memory buffer = new bytes(digits) */\n      swap1\n      pop\n        /* \"Strings.sol\":845:995  while (value != 0) {... */\n    tag_285:\n        /* \"Strings.sol\":861:862  0 */\n      0x00\n        /* \"Strings.sol\":852:857  value */\n      dup6\n        /* \"Strings.sol\":852:862  value != 0 */\n      eq\n        /* \"Strings.sol\":845:995  while (value != 0) {... */\n      tag_286\n      jumpi\n        /* \"Strings.sol\":888:889  1 */\n      0x01\n        /* \"Strings.sol\":878:889  digits -= 1 */\n      dup3\n      tag_287\n      swap2\n      swap1\n      tag_288\n      jump\t// in\n    tag_287:\n      swap2\n      pop\n        /* \"Strings.sol\":954:956  10 */\n      0x0a\n        /* \"Strings.sol\":946:951  value */\n      dup6\n        /* \"Strings.sol\":946:956  value % 10 */\n      tag_289\n      swap2\n      swap1\n      tag_273\n      jump\t// in\n    tag_289:\n        /* \"Strings.sol\":933:935  48 */\n      0x30\n        /* \"Strings.sol\":933:957  48 + uint256(value % 10) */\n      tag_290\n      swap2\n      swap1\n      tag_262\n      jump\t// in\n    tag_290:\n        /* \"Strings.sol\":920:959  bytes1(uint8(48 + uint256(value % 10))) */\n      0xf8\n      shl\n        /* \"Strings.sol\":903:909  buffer */\n      dup2\n        /* \"Strings.sol\":910:916  digits */\n      dup4\n        /* \"Strings.sol\":903:917  buffer[digits] */\n      dup2\n      mload\n      dup2\n      lt\n      tag_291\n      jumpi\n      tag_292\n      tag_210\n      jump\t// in\n    tag_292:\n    tag_291:\n      0x20\n      add\n      add\n        /* \"Strings.sol\":903:959  buffer[digits] = bytes1(uint8(48 + uint256(value % 10))) */\n      swap1\n      not(0xffffffffffffffffffffffffffffffffffffffffffffffffffffffffffffff)\n      and\n      swap1\n      dup2\n      0x00\n      byte\n      swap1\n      mstore8\n      pop\n        /* \"Strings.sol\":982:984  10 */\n      0x0a\n        /* \"Strings.sol\":973:984  value /= 10 */\n      dup6\n      tag_293\n      swap2\n      swap1\n      tag_280\n      jump\t// in\n    tag_293:\n      swap5\n      pop\n        /* \"Strings.sol\":845:995  while (value != 0) {... */\n      jump(tag_285)\n    tag_286:\n        /* \"Strings.sol\":1018:1024  buffer */\n      dup1\n        /* \"Strings.sol\":1004:1025  return string(buffer) */\n      swap4\n      pop\n      pop\n      pop\n      pop\n        /* \"Strings.sol\":329:1032  function toString(uint256 value) internal pure returns (string memory) {... */\n    tag_274:\n      swap2\n      swap1\n      pop\n      jump\t// out\n        /* \"ERC1155_Dropsite.sol\":2347:2540  function _asSingletonArray(uint256 element) private pure returns (uint256[] memory) {... */\n    tag_258:\n        /* \"ERC1155_Dropsite.sol\":2413:2429  uint256[] memory */\n      0x60\n        /* \"ERC1155_Dropsite.sol\":2441:2463  uint256[] memory array */\n      0x00\n        /* \"ERC1155_Dropsite.sol\":2480:2481  1 */\n      0x01\n        /* \"ERC1155_Dropsite.sol\":2466:2482  new uint256[](1) */\n      0xffffffffffffffff\n      dup2\n      gt\n      iszero\n      tag_295\n      jumpi\n      tag_296\n      tag_283\n      jump\t// in\n    tag_296:\n    tag_295:\n      mload(0x40)\n      swap1\n      dup1\n      dup3\n      mstore\n      dup1\n      0x20\n      mul\n      0x20\n      add\n      dup3\n      add\n      0x40\n      mstore\n      dup1\n      iszero\n      tag_297\n      jumpi\n      dup2\n      0x20\n      add\n      0x20\n      dup3\n      mul\n      dup1\n      calldatasize\n      dup4\n      calldatacopy\n      dup1\n      dup3\n      add\n      swap2\n      pop\n      pop\n      swap1\n      pop\n    tag_297:\n      pop\n        /* \"ERC1155_Dropsite.sol\":2441:2482  uint256[] memory array = new uint256[](1) */\n      swap1\n      pop\n        /* \"ERC1155_Dropsite.sol\":2503:2510  element */\n      dup3\n        /* \"ERC1155_Dropsite.sol\":2492:2497  array */\n      dup2\n        /* \"ERC1155_Dropsite.sol\":2498:2499  0 */\n      0x00\n        /* \"ERC1155_Dropsite.sol\":2492:2500  array[0] */\n      dup2\n      mload\n      dup2\n      lt\n      tag_298\n      jumpi\n      tag_299\n      tag_210\n      jump\t// in\n    tag_299:\n    tag_298:\n      0x20\n      mul\n      0x20\n      add\n      add\n        /* \"ERC1155_Dropsite.sol\":2492:2510  array[0] = element */\n      dup2\n      dup2\n      mstore\n      pop\n      pop\n        /* \"ERC1155_Dropsite.sol\":2528:2533  array */\n      dup1\n        /* \"ERC1155_Dropsite.sol\":2521:2533  return array */\n      swap2\n      pop\n      pop\n        /* \"ERC1155_Dropsite.sol\":2347:2540  function _asSingletonArray(uint256 element) private pure returns (uint256[] memory) {... */\n      swap2\n      swap1\n      pop\n      jump\t// out\n        /* \"ERC1155_Dropsite.sol\":1394:1609  function _beforeTokenTransfer(... */\n    tag_260:\n      pop\n      pop\n      pop\n      pop\n      pop\n      pop\n      jump\t// out\n        /* \"ERC1155_Dropsite.sol\":1615:2341  function _doSafeTransferAcceptanceCheck(... */\n    tag_266:\n        /* \"ERC1155_Dropsite.sol\":1823:1838  to.isContract() */\n      tag_302\n        /* \"ERC1155_Dropsite.sol\":1823:1825  to */\n      dup5\n        /* \"ERC1155_Dropsite.sol\":1823:1836  to.isContract */\n      0xffffffffffffffffffffffffffffffffffffffff\n      and\n      tag_303\n        /* \"ERC1155_Dropsite.sol\":1823:1838  to.isContract() */\n      jump\t// in\n    tag_302:\n        /* \"ERC1155_Dropsite.sol\":1819:2335  if (to.isContract()) {... */\n      iszero\n      tag_304\n      jumpi\n        /* \"ERC1155_Dropsite.sol\":1875:1877  to */\n      dup4\n        /* \"ERC1155_Dropsite.sol\":1858:1896  IERC1155Receiver(to).onERC1155Received */\n      0xffffffffffffffffffffffffffffffffffffffff\n      and\n      0xae89a248\n        /* \"ERC1155_Dropsite.sol\":1897:1905  operator */\n      dup8\n        /* \"ERC1155_Dropsite.sol\":1907:1911  from */\n      dup8\n        /* \"ERC1155_Dropsite.sol\":1913:1915  id */\n      dup7\n        /* \"ERC1155_Dropsite.sol\":1917:1923  amount */\n      dup7\n        /* \"ERC1155_Dropsite.sol\":1925:1929  data */\n      dup7\n        /* \"ERC1155_Dropsite.sol\":1858:1930  IERC1155Receiver(to).onERC1155Received(operator, from, id, amount, data) */\n      mload(0x40)\n      dup7\n      0xffffffff\n      and\n      0xe0\n      shl\n      dup2\n      mstore\n      0x04\n      add\n      tag_305\n      swap6\n      swap5\n      swap4\n      swap3\n      swap2\n      swap1\n      tag_306\n      jump\t// in\n    tag_305:\n      0x20\n      mload(0x40)\n      dup1\n      dup4\n      sub\n      dup2\n      0x00\n      dup8\n      dup1\n      extcodesize\n      iszero\n      dup1\n      iszero\n      tag_307\n      jumpi\n      0x00\n      dup1\n      revert\n    tag_307:\n      pop\n      gas\n      call\n      swap3\n      pop\n      pop\n      pop\n      dup1\n      iszero\n      tag_308\n      jumpi\n      pop\n      mload(0x40)\n      returndatasize\n      not(0x1f)\n      0x1f\n      dup3\n      add\n      and\n      dup3\n      add\n      dup1\n      0x40\n      mstore\n      pop\n      dup2\n      add\n      swap1\n      tag_309\n      swap2\n      swap1\n      tag_310\n      jump\t// in\n    tag_309:\n      0x01\n    tag_308:\n        /* \"ERC1155_Dropsite.sol\":1854:2325  try IERC1155Receiver(to).onERC1155Received(operator, from, id, amount, data) returns (bytes4 response) {... */\n      tag_311\n      jumpi\n      tag_315\n      tag_316\n      jump\t// in\n    tag_315:\n      dup1\n      0x08c379a0\n      eq\n      iszero\n      tag_314\n      jumpi\n      pop\n      tag_317\n      tag_318\n      jump\t// in\n    tag_317:\n      dup1\n      tag_319\n      jumpi\n      pop\n      jump(tag_313)\n    tag_319:\n        /* \"ERC1155_Dropsite.sol\":2201:2207  reason */\n      dup1\n        /* \"ERC1155_Dropsite.sol\":2194:2208  revert(reason) */\n      mload(0x40)\n      0x08c379a000000000000000000000000000000000000000000000000000000000\n      dup2\n      mstore\n      0x04\n      add\n      tag_320\n      swap2\n      swap1\n      tag_321\n      jump\t// in\n    tag_320:\n      mload(0x40)\n      dup1\n      swap2\n      sub\n      swap1\n      revert\n        /* \"ERC1155_Dropsite.sol\":1854:2325  try IERC1155Receiver(to).onERC1155Received(operator, from, id, amount, data) returns (bytes4 response) {... */\n    tag_314:\n      pop\n    tag_313:\n        /* \"ERC1155_Dropsite.sol\":2248:2310  revert(\"ERC1155: transfer to non ERC1155Receiver implementer\") */\n      mload(0x40)\n      0x08c379a000000000000000000000000000000000000000000000000000000000\n      dup2\n      mstore\n      0x04\n      add\n      tag_322\n      swap1\n      tag_323\n      jump\t// in\n    tag_322:\n      mload(0x40)\n      dup1\n      swap2\n      sub\n      swap1\n      revert\n        /* \"ERC1155_Dropsite.sol\":1854:2325  try IERC1155Receiver(to).onERC1155Received(operator, from, id, amount, data) returns (bytes4 response) {... */\n    tag_311:\n        /* \"ERC1155_Dropsite.sol\":1991:2034  IERC1155Receiver.onERC1155Received.selector */\n      shl(0xe0, 0xae89a248)\n        /* \"ERC1155_Dropsite.sol\":1979:2034  response != IERC1155Receiver.onERC1155Received.selector */\n      not(0xffffffffffffffffffffffffffffffffffffffffffffffffffffffff)\n      and\n        /* \"ERC1155_Dropsite.sol\":1979:1987  response */\n      dup2\n        /* \"ERC1155_Dropsite.sol\":1979:2034  response != IERC1155Receiver.onERC1155Received.selector */\n      not(0xffffffffffffffffffffffffffffffffffffffffffffffffffffffff)\n      and\n      eq\n        /* \"ERC1155_Dropsite.sol\":1975:2127  if (response != IERC1155Receiver.onERC1155Received.selector) {... */\n      tag_325\n      jumpi\n        /* \"ERC1155_Dropsite.sol\":2058:2108  revert(\"ERC1155: ERC1155Receiver rejected tokens\") */\n      mload(0x40)\n      0x08c379a000000000000000000000000000000000000000000000000000000000\n      dup2\n      mstore\n      0x04\n      add\n      tag_326\n      swap1\n      tag_327\n      jump\t// in\n    tag_326:\n      mload(0x40)\n      dup1\n      swap2\n      sub\n      swap1\n      revert\n        /* \"ERC1155_Dropsite.sol\":1975:2127  if (response != IERC1155Receiver.onERC1155Received.selector) {... */\n    tag_325:\n        /* \"ERC1155_Dropsite.sol\":1931:2141  returns (bytes4 response) {... */\n      pop\n        /* \"ERC1155_Dropsite.sol\":1819:2335  if (to.isContract()) {... */\n    tag_304:\n        /* \"ERC1155_Dropsite.sol\":1615:2341  function _doSafeTransferAcceptanceCheck(... */\n      pop\n      pop\n      pop\n      pop\n      pop\n      pop\n      jump\t// out\n        /* \"Address.sol\":771:1148  function isContract(address account) internal view returns (bool) {... */\n    tag_303:\n        /* \"Address.sol\":831:835  bool */\n      0x00\n        /* \"Address.sol\":1034:1046  uint256 size */\n      dup1\n        /* \"Address.sol\":1099:1106  account */\n      dup3\n        /* \"Address.sol\":1087:1107  extcodesize(account) */\n      extcodesize\n        /* \"Address.sol\":1079:1107  size := extcodesize(account) */\n      swap1\n      pop\n        /* \"Address.sol\":1140:1141  0 */\n      0x00\n        /* \"Address.sol\":1133:1137  size */\n      dup2\n        /* \"Address.sol\":1133:1141  size > 0 */\n      gt\n        /* \"Address.sol\":1126:1141  return size > 0 */\n      swap2\n      pop\n      pop\n        /* \"Address.sol\":771:1148  function isContract(address account) internal view returns (bool) {... */\n      swap2\n      swap1\n      pop\n      jump\t// out\n    tag_220:\n      dup3\n      dup1\n      sload\n      tag_329\n      swap1\n      tag_118\n      jump\t// in\n    tag_329:\n      swap1\n      0x00\n      mstore\n      keccak256(0x00, 0x20)\n      swap1\n      0x1f\n      add\n      0x20\n      swap1\n      div\n      dup2\n      add\n      swap3\n      dup3\n      tag_331\n      jumpi\n      0x00\n      dup6\n      sstore\n      jump(tag_330)\n    tag_331:\n      dup3\n      0x1f\n      lt\n      tag_332\n      jumpi\n      dup1\n      mload\n      not(0xff)\n      and\n      dup4\n      dup1\n      add\n      or\n      dup6\n      sstore\n      jump(tag_330)\n    tag_332:\n      dup3\n      dup1\n      add\n      0x01\n      add\n      dup6\n      sstore\n      dup3\n      iszero\n      tag_330\n      jumpi\n      swap2\n      dup3\n      add\n    tag_333:\n      dup3\n      dup2\n      gt\n      iszero\n      tag_334\n      jumpi\n      dup3\n      mload\n      dup3\n      sstore\n      swap2\n      0x20\n      add\n      swap2\n      swap1\n      0x01\n      add\n      swap1\n      jump(tag_333)\n    tag_334:\n    tag_330:\n      pop\n      swap1\n      pop\n      tag_335\n      swap2\n      swap1\n      tag_336\n      jump\t// in\n    tag_335:\n      pop\n      swap1\n      jump\t// out\n    tag_239:\n      dup3\n      dup1\n      sload\n      tag_337\n      swap1\n      tag_118\n      jump\t// in\n    tag_337:\n      swap1\n      0x00\n      mstore\n      keccak256(0x00, 0x20)\n      swap1\n      0x1f\n      add\n      0x20\n      swap1\n      div\n      dup2\n      add\n      swap3\n      dup3\n      tag_339\n      jumpi\n      0x00\n      dup6\n      sstore\n      jump(tag_338)\n    tag_339:\n      dup3\n      0x1f\n      lt\n      tag_340\n      jumpi\n      dup1\n      sload\n      dup6\n      sstore\n      jump(tag_338)\n    tag_340:\n      dup3\n      dup1\n      add\n      0x01\n      add\n      dup6\n      sstore\n      dup3\n      iszero\n      tag_338\n      jumpi\n      0x00\n      mstore\n      keccak256(0x00, 0x20)\n      swap2\n      0x1f\n      add\n      0x20\n      swap1\n      div\n      dup3\n      add\n    tag_341:\n      dup3\n      dup2\n      gt\n      iszero\n      tag_342\n      jumpi\n      dup3\n      sload\n      dup3\n      sstore\n      swap2\n      0x01\n      add\n      swap2\n      swap1\n      0x01\n      add\n      swap1\n      jump(tag_341)\n    tag_342:\n    tag_338:\n      pop\n      swap1\n      pop\n      tag_343\n      swap2\n      swap1\n      tag_336\n      jump\t// in\n    tag_343:\n      pop\n      swap1\n      jump\t// out\n    tag_336:\n    tag_344:\n      dup1\n      dup3\n      gt\n      iszero\n      tag_345\n      jumpi\n      0x00\n      dup2\n      0x00\n      swap1\n      sstore\n      pop\n      0x01\n      add\n      jump(tag_344)\n    tag_345:\n      pop\n      swap1\n      jump\t// out\n        /* \"#utility.yul\":7:146   */\n    tag_347:\n        /* \"#utility.yul\":53:58   */\n      0x00\n        /* \"#utility.yul\":91:97   */\n      dup2\n        /* \"#utility.yul\":78:98   */\n      calldataload\n        /* \"#utility.yul\":69:98   */\n      swap1\n      pop\n        /* \"#utility.yul\":107:140   */\n      tag_349\n        /* \"#utility.yul\":134:139   */\n      dup2\n        /* \"#utility.yul\":107:140   */\n      tag_350\n      jump\t// in\n    tag_349:\n        /* \"#utility.yul\":7:146   */\n      swap3\n      swap2\n      pop\n      pop\n      jump\t// out\n        /* \"#utility.yul\":152:307   */\n    tag_351:\n        /* \"#utility.yul\":206:211   */\n      0x00\n        /* \"#utility.yul\":244:250   */\n      dup2\n        /* \"#utility.yul\":231:251   */\n      calldataload\n        /* \"#utility.yul\":222:251   */\n      swap1\n      pop\n        /* \"#utility.yul\":260:301   */\n      tag_353\n        /* \"#utility.yul\":295:300   */\n      dup2\n        /* \"#utility.yul\":260:301   */\n      tag_354\n      jump\t// in\n    tag_353:\n        /* \"#utility.yul\":152:307   */\n      swap3\n      swap2\n      pop\n      pop\n      jump\t// out\n        /* \"#utility.yul\":313:454   */\n    tag_355:\n        /* \"#utility.yul\":369:374   */\n      0x00\n        /* \"#utility.yul\":400:406   */\n      dup2\n        /* \"#utility.yul\":394:407   */\n      mload\n        /* \"#utility.yul\":385:407   */\n      swap1\n      pop\n        /* \"#utility.yul\":416:448   */\n      tag_357\n        /* \"#utility.yul\":442:447   */\n      dup2\n        /* \"#utility.yul\":416:448   */\n      tag_358\n      jump\t// in\n    tag_357:\n        /* \"#utility.yul\":313:454   */\n      swap3\n      swap2\n      pop\n      pop\n      jump\t// out\n        /* \"#utility.yul\":460:599   */\n    tag_359:\n        /* \"#utility.yul\":506:511   */\n      0x00\n        /* \"#utility.yul\":544:550   */\n      dup2\n        /* \"#utility.yul\":531:551   */\n      calldataload\n        /* \"#utility.yul\":522:551   */\n      swap1\n      pop\n        /* \"#utility.yul\":560:593   */\n      tag_361\n        /* \"#utility.yul\":587:592   */\n      dup2\n        /* \"#utility.yul\":560:593   */\n      tag_362\n      jump\t// in\n    tag_361:\n        /* \"#utility.yul\":460:599   */\n      swap3\n      swap2\n      pop\n      pop\n      jump\t// out\n        /* \"#utility.yul\":605:934   */\n    tag_37:\n        /* \"#utility.yul\":664:670   */\n      0x00\n        /* \"#utility.yul\":713:715   */\n      0x20\n        /* \"#utility.yul\":701:710   */\n      dup3\n        /* \"#utility.yul\":692:699   */\n      dup5\n        /* \"#utility.yul\":688:711   */\n      sub\n        /* \"#utility.yul\":684:716   */\n      slt\n        /* \"#utility.yul\":681:800   */\n      iszero\n      tag_364\n      jumpi\n        /* \"#utility.yul\":719:798   */\n      tag_365\n      tag_366\n      jump\t// in\n    tag_365:\n        /* \"#utility.yul\":681:800   */\n    tag_364:\n        /* \"#utility.yul\":839:840   */\n      0x00\n        /* \"#utility.yul\":864:917   */\n      tag_367\n        /* \"#utility.yul\":909:916   */\n      dup5\n        /* \"#utility.yul\":900:906   */\n      dup3\n        /* \"#utility.yul\":889:898   */\n      dup6\n        /* \"#utility.yul\":885:907   */\n      add\n        /* \"#utility.yul\":864:917   */\n      tag_347\n      jump\t// in\n    tag_367:\n        /* \"#utility.yul\":854:917   */\n      swap2\n      pop\n        /* \"#utility.yul\":810:927   */\n      pop\n        /* \"#utility.yul\":605:934   */\n      swap3\n      swap2\n      pop\n      pop\n      jump\t// out\n        /* \"#utility.yul\":940:1285   */\n    tag_24:\n        /* \"#utility.yul\":1007:1013   */\n      0x00\n        /* \"#utility.yul\":1056:1058   */\n      0x20\n        /* \"#utility.yul\":1044:1053   */\n      dup3\n        /* \"#utility.yul\":1035:1042   */\n      dup5\n        /* \"#utility.yul\":1031:1054   */\n      sub\n        /* \"#utility.yul\":1027:1059   */\n      slt\n        /* \"#utility.yul\":1024:1143   */\n      iszero\n      tag_369\n      jumpi\n        /* \"#utility.yul\":1062:1141   */\n      tag_370\n      tag_366\n      jump\t// in\n    tag_370:\n        /* \"#utility.yul\":1024:1143   */\n    tag_369:\n        /* \"#utility.yul\":1182:1183   */\n      0x00\n        /* \"#utility.yul\":1207:1268   */\n      tag_371\n        /* \"#utility.yul\":1260:1267   */\n      dup5\n        /* \"#utility.yul\":1251:1257   */\n      dup3\n        /* \"#utility.yul\":1240:1249   */\n      dup6\n        /* \"#utility.yul\":1236:1258   */\n      add\n        /* \"#utility.yul\":1207:1268   */\n      tag_351\n      jump\t// in\n    tag_371:\n        /* \"#utility.yul\":1197:1268   */\n      swap2\n      pop\n        /* \"#utility.yul\":1153:1278   */\n      pop\n        /* \"#utility.yul\":940:1285   */\n      swap3\n      swap2\n      pop\n      pop\n      jump\t// out\n        /* \"#utility.yul\":1291:1640   */\n    tag_310:\n        /* \"#utility.yul\":1360:1366   */\n      0x00\n        /* \"#utility.yul\":1409:1411   */\n      0x20\n        /* \"#utility.yul\":1397:1406   */\n      dup3\n        /* \"#utility.yul\":1388:1395   */\n      dup5\n        /* \"#utility.yul\":1384:1407   */\n      sub\n        /* \"#utility.yul\":1380:1412   */\n      slt\n        /* \"#utility.yul\":1377:1496   */\n      iszero\n      tag_373\n      jumpi\n        /* \"#utility.yul\":1415:1494   */\n      tag_374\n      tag_366\n      jump\t// in\n    tag_374:\n        /* \"#utility.yul\":1377:1496   */\n    tag_373:\n        /* \"#utility.yul\":1535:1536   */\n      0x00\n        /* \"#utility.yul\":1560:1623   */\n      tag_375\n        /* \"#utility.yul\":1615:1622   */\n      dup5\n        /* \"#utility.yul\":1606:1612   */\n      dup3\n        /* \"#utility.yul\":1595:1604   */\n      dup6\n        /* \"#utility.yul\":1591:1613   */\n      add\n        /* \"#utility.yul\":1560:1623   */\n      tag_355\n      jump\t// in\n    tag_375:\n        /* \"#utility.yul\":1550:1623   */\n      swap2\n      pop\n        /* \"#utility.yul\":1506:1633   */\n      pop\n        /* \"#utility.yul\":1291:1640   */\n      swap3\n      swap2\n      pop\n      pop\n      jump\t// out\n        /* \"#utility.yul\":1646:1975   */\n    tag_69:\n        /* \"#utility.yul\":1705:1711   */\n      0x00\n        /* \"#utility.yul\":1754:1756   */\n      0x20\n        /* \"#utility.yul\":1742:1751   */\n      dup3\n        /* \"#utility.yul\":1733:1740   */\n      dup5\n        /* \"#utility.yul\":1729:1752   */\n      sub\n        /* \"#utility.yul\":1725:1757   */\n      slt\n        /* \"#utility.yul\":1722:1841   */\n      iszero\n      tag_377\n      jumpi\n        /* \"#utility.yul\":1760:1839   */\n      tag_378\n      tag_366\n      jump\t// in\n    tag_378:\n        /* \"#utility.yul\":1722:1841   */\n    tag_377:\n        /* \"#utility.yul\":1880:1881   */\n      0x00\n        /* \"#utility.yul\":1905:1958   */\n      tag_379\n        /* \"#utility.yul\":1950:1957   */\n      dup5\n        /* \"#utility.yul\":1941:1947   */\n      dup3\n        /* \"#utility.yul\":1930:1939   */\n      dup6\n        /* \"#utility.yul\":1926:1948   */\n      add\n        /* \"#utility.yul\":1905:1958   */\n      tag_359\n      jump\t// in\n    tag_379:\n        /* \"#utility.yul\":1895:1958   */\n      swap2\n      pop\n        /* \"#utility.yul\":1851:1968   */\n      pop\n        /* \"#utility.yul\":1646:1975   */\n      swap3\n      swap2\n      pop\n      pop\n      jump\t// out\n        /* \"#utility.yul\":1981:2160   */\n    tag_380:\n        /* \"#utility.yul\":2050:2060   */\n      0x00\n        /* \"#utility.yul\":2071:2117   */\n      tag_382\n        /* \"#utility.yul\":2113:2116   */\n      dup4\n        /* \"#utility.yul\":2105:2111   */\n      dup4\n        /* \"#utility.yul\":2071:2117   */\n      tag_383\n      jump\t// in\n    tag_382:\n        /* \"#utility.yul\":2149:2153   */\n      0x20\n        /* \"#utility.yul\":2144:2147   */\n      dup4\n        /* \"#utility.yul\":2140:2154   */\n      add\n        /* \"#utility.yul\":2126:2154   */\n      swap1\n      pop\n        /* \"#utility.yul\":1981:2160   */\n      swap3\n      swap2\n      pop\n      pop\n      jump\t// out\n        /* \"#utility.yul\":2166:2308   */\n    tag_384:\n        /* \"#utility.yul\":2269:2301   */\n      tag_386\n        /* \"#utility.yul\":2295:2300   */\n      dup2\n        /* \"#utility.yul\":2269:2301   */\n      tag_387\n      jump\t// in\n    tag_386:\n        /* \"#utility.yul\":2264:2267   */\n      dup3\n        /* \"#utility.yul\":2257:2302   */\n      mstore\n        /* \"#utility.yul\":2166:2308   */\n      pop\n      pop\n      jump\t// out\n        /* \"#utility.yul\":2314:2432   */\n    tag_388:\n        /* \"#utility.yul\":2401:2425   */\n      tag_390\n        /* \"#utility.yul\":2419:2424   */\n      dup2\n        /* \"#utility.yul\":2401:2425   */\n      tag_391\n      jump\t// in\n    tag_390:\n        /* \"#utility.yul\":2396:2399   */\n      dup3\n        /* \"#utility.yul\":2389:2426   */\n      mstore\n        /* \"#utility.yul\":2314:2432   */\n      pop\n      pop\n      jump\t// out\n        /* \"#utility.yul\":2438:2595   */\n    tag_392:\n        /* \"#utility.yul\":2543:2588   */\n      tag_394\n        /* \"#utility.yul\":2563:2587   */\n      tag_395\n        /* \"#utility.yul\":2581:2586   */\n      dup3\n        /* \"#utility.yul\":2563:2587   */\n      tag_391\n      jump\t// in\n    tag_395:\n        /* \"#utility.yul\":2543:2588   */\n      tag_396\n      jump\t// in\n    tag_394:\n        /* \"#utility.yul\":2538:2541   */\n      dup3\n        /* \"#utility.yul\":2531:2589   */\n      mstore\n        /* \"#utility.yul\":2438:2595   */\n      pop\n      pop\n      jump\t// out\n        /* \"#utility.yul\":2631:3363   */\n    tag_397:\n        /* \"#utility.yul\":2750:2753   */\n      0x00\n        /* \"#utility.yul\":2779:2833   */\n      tag_399\n        /* \"#utility.yul\":2827:2832   */\n      dup3\n        /* \"#utility.yul\":2779:2833   */\n      tag_400\n      jump\t// in\n    tag_399:\n        /* \"#utility.yul\":2849:2935   */\n      tag_401\n        /* \"#utility.yul\":2928:2934   */\n      dup2\n        /* \"#utility.yul\":2923:2926   */\n      dup6\n        /* \"#utility.yul\":2849:2935   */\n      tag_402\n      jump\t// in\n    tag_401:\n        /* \"#utility.yul\":2842:2935   */\n      swap4\n      pop\n        /* \"#utility.yul\":2959:3015   */\n      tag_403\n        /* \"#utility.yul\":3009:3014   */\n      dup4\n        /* \"#utility.yul\":2959:3015   */\n      tag_404\n      jump\t// in\n    tag_403:\n        /* \"#utility.yul\":3038:3045   */\n      dup1\n        /* \"#utility.yul\":3069:3070   */\n      0x00\n        /* \"#utility.yul\":3054:3338   */\n    tag_405:\n        /* \"#utility.yul\":3079:3085   */\n      dup4\n        /* \"#utility.yul\":3076:3077   */\n      dup2\n        /* \"#utility.yul\":3073:3086   */\n      lt\n        /* \"#utility.yul\":3054:3338   */\n      iszero\n      tag_407\n      jumpi\n        /* \"#utility.yul\":3155:3161   */\n      dup2\n        /* \"#utility.yul\":3149:3162   */\n      mload\n        /* \"#utility.yul\":3182:3245   */\n      tag_408\n        /* \"#utility.yul\":3241:3244   */\n      dup9\n        /* \"#utility.yul\":3226:3239   */\n      dup3\n        /* \"#utility.yul\":3182:3245   */\n      tag_380\n      jump\t// in\n    tag_408:\n        /* \"#utility.yul\":3175:3245   */\n      swap8\n      pop\n        /* \"#utility.yul\":3268:3328   */\n      tag_409\n        /* \"#utility.yul\":3321:3327   */\n      dup4\n        /* \"#utility.yul\":3268:3328   */\n      tag_410\n      jump\t// in\n    tag_409:\n        /* \"#utility.yul\":3258:3328   */\n      swap3\n      pop\n        /* \"#utility.yul\":3114:3338   */\n      pop\n        /* \"#utility.yul\":3101:3102   */\n      0x01\n        /* \"#utility.yul\":3098:3099   */\n      dup2\n        /* \"#utility.yul\":3094:3103   */\n      add\n        /* \"#utility.yul\":3089:3103   */\n      swap1\n      pop\n        /* \"#utility.yul\":3054:3338   */\n      jump(tag_405)\n    tag_407:\n        /* \"#utility.yul\":3058:3072   */\n      pop\n        /* \"#utility.yul\":3354:3357   */\n      dup6\n        /* \"#utility.yul\":3347:3357   */\n      swap4\n      pop\n        /* \"#utility.yul\":2755:3363   */\n      pop\n      pop\n      pop\n        /* \"#utility.yul\":2631:3363   */\n      swap3\n      swap2\n      pop\n      pop\n      jump\t// out\n        /* \"#utility.yul\":3369:3478   */\n    tag_411:\n        /* \"#utility.yul\":3450:3471   */\n      tag_413\n        /* \"#utility.yul\":3465:3470   */\n      dup2\n        /* \"#utility.yul\":3450:3471   */\n      tag_414\n      jump\t// in\n    tag_413:\n        /* \"#utility.yul\":3445:3448   */\n      dup3\n        /* \"#utility.yul\":3438:3472   */\n      mstore\n        /* \"#utility.yul\":3369:3478   */\n      pop\n      pop\n      jump\t// out\n        /* \"#utility.yul\":3484:3848   */\n    tag_415:\n        /* \"#utility.yul\":3572:3575   */\n      0x00\n        /* \"#utility.yul\":3600:3639   */\n      tag_417\n        /* \"#utility.yul\":3633:3638   */\n      dup3\n        /* \"#utility.yul\":3600:3639   */\n      tag_418\n      jump\t// in\n    tag_417:\n        /* \"#utility.yul\":3655:3726   */\n      tag_419\n        /* \"#utility.yul\":3719:3725   */\n      dup2\n        /* \"#utility.yul\":3714:3717   */\n      dup6\n        /* \"#utility.yul\":3655:3726   */\n      tag_420\n      jump\t// in\n    tag_419:\n        /* \"#utility.yul\":3648:3726   */\n      swap4\n      pop\n        /* \"#utility.yul\":3735:3787   */\n      tag_421\n        /* \"#utility.yul\":3780:3786   */\n      dup2\n        /* \"#utility.yul\":3775:3778   */\n      dup6\n        /* \"#utility.yul\":3768:3772   */\n      0x20\n        /* \"#utility.yul\":3761:3766   */\n      dup7\n        /* \"#utility.yul\":3757:3773   */\n      add\n        /* \"#utility.yul\":3735:3787   */\n      tag_422\n      jump\t// in\n    tag_421:\n        /* \"#utility.yul\":3812:3841   */\n      tag_423\n        /* \"#utility.yul\":3834:3840   */\n      dup2\n        /* \"#utility.yul\":3812:3841   */\n      tag_424\n      jump\t// in\n    tag_423:\n        /* \"#utility.yul\":3807:3810   */\n      dup5\n        /* \"#utility.yul\":3803:3842   */\n      add\n        /* \"#utility.yul\":3796:3842   */\n      swap2\n      pop\n        /* \"#utility.yul\":3576:3848   */\n      pop\n        /* \"#utility.yul\":3484:3848   */\n      swap3\n      swap2\n      pop\n      pop\n      jump\t// out\n        /* \"#utility.yul\":3854:4231   */\n    tag_425:\n        /* \"#utility.yul\":3960:3963   */\n      0x00\n        /* \"#utility.yul\":3988:4027   */\n      tag_427\n        /* \"#utility.yul\":4021:4026   */\n      dup3\n        /* \"#utility.yul\":3988:4027   */\n      tag_418\n      jump\t// in\n    tag_427:\n        /* \"#utility.yul\":4043:4132   */\n      tag_428\n        /* \"#utility.yul\":4125:4131   */\n      dup2\n        /* \"#utility.yul\":4120:4123   */\n      dup6\n        /* \"#utility.yul\":4043:4132   */\n      tag_429\n      jump\t// in\n    tag_428:\n        /* \"#utility.yul\":4036:4132   */\n      swap4\n      pop\n        /* \"#utility.yul\":4141:4193   */\n      tag_430\n        /* \"#utility.yul\":4186:4192   */\n      dup2\n        /* \"#utility.yul\":4181:4184   */\n      dup6\n        /* \"#utility.yul\":4174:4178   */\n      0x20\n        /* \"#utility.yul\":4167:4172   */\n      dup7\n        /* \"#utility.yul\":4163:4179   */\n      add\n        /* \"#utility.yul\":4141:4193   */\n      tag_422\n      jump\t// in\n    tag_430:\n        /* \"#utility.yul\":4218:4224   */\n      dup1\n        /* \"#utility.yul\":4213:4216   */\n      dup5\n        /* \"#utility.yul\":4209:4225   */\n      add\n        /* \"#utility.yul\":4202:4225   */\n      swap2\n      pop\n        /* \"#utility.yul\":3964:4231   */\n      pop\n        /* \"#utility.yul\":3854:4231   */\n      swap3\n      swap2\n      pop\n      pop\n      jump\t// out\n        /* \"#utility.yul\":4237:4603   */\n    tag_431:\n        /* \"#utility.yul\":4379:4382   */\n      0x00\n        /* \"#utility.yul\":4400:4467   */\n      tag_433\n        /* \"#utility.yul\":4464:4466   */\n      0x34\n        /* \"#utility.yul\":4459:4462   */\n      dup4\n        /* \"#utility.yul\":4400:4467   */\n      tag_420\n      jump\t// in\n    tag_433:\n        /* \"#utility.yul\":4393:4467   */\n      swap2\n      pop\n        /* \"#utility.yul\":4476:4569   */\n      tag_434\n        /* \"#utility.yul\":4565:4568   */\n      dup3\n        /* \"#utility.yul\":4476:4569   */\n      tag_435\n      jump\t// in\n    tag_434:\n        /* \"#utility.yul\":4594:4596   */\n      0x40\n        /* \"#utility.yul\":4589:4592   */\n      dup3\n        /* \"#utility.yul\":4585:4597   */\n      add\n        /* \"#utility.yul\":4578:4597   */\n      swap1\n      pop\n        /* \"#utility.yul\":4237:4603   */\n      swap2\n      swap1\n      pop\n      jump\t// out\n        /* \"#utility.yul\":4609:4975   */\n    tag_436:\n        /* \"#utility.yul\":4751:4754   */\n      0x00\n        /* \"#utility.yul\":4772:4839   */\n      tag_438\n        /* \"#utility.yul\":4836:4838   */\n      0x28\n        /* \"#utility.yul\":4831:4834   */\n      dup4\n        /* \"#utility.yul\":4772:4839   */\n      tag_420\n      jump\t// in\n    tag_438:\n        /* \"#utility.yul\":4765:4839   */\n      swap2\n      pop\n        /* \"#utility.yul\":4848:4941   */\n      tag_439\n        /* \"#utility.yul\":4937:4940   */\n      dup3\n        /* \"#utility.yul\":4848:4941   */\n      tag_440\n      jump\t// in\n    tag_439:\n        /* \"#utility.yul\":4966:4968   */\n      0x40\n        /* \"#utility.yul\":4961:4964   */\n      dup3\n        /* \"#utility.yul\":4957:4969   */\n      add\n        /* \"#utility.yul\":4950:4969   */\n      swap1\n      pop\n        /* \"#utility.yul\":4609:4975   */\n      swap2\n      swap1\n      pop\n      jump\t// out\n        /* \"#utility.yul\":4981:5381   */\n    tag_441:\n        /* \"#utility.yul\":5141:5144   */\n      0x00\n        /* \"#utility.yul\":5162:5246   */\n      tag_443\n        /* \"#utility.yul\":5244:5245   */\n      0x08\n        /* \"#utility.yul\":5239:5242   */\n      dup4\n        /* \"#utility.yul\":5162:5246   */\n      tag_429\n      jump\t// in\n    tag_443:\n        /* \"#utility.yul\":5155:5246   */\n      swap2\n      pop\n        /* \"#utility.yul\":5255:5348   */\n      tag_444\n        /* \"#utility.yul\":5344:5347   */\n      dup3\n        /* \"#utility.yul\":5255:5348   */\n      tag_445\n      jump\t// in\n    tag_444:\n        /* \"#utility.yul\":5373:5374   */\n      0x08\n        /* \"#utility.yul\":5368:5371   */\n      dup3\n        /* \"#utility.yul\":5364:5375   */\n      add\n        /* \"#utility.yul\":5357:5375   */\n      swap1\n      pop\n        /* \"#utility.yul\":4981:5381   */\n      swap2\n      swap1\n      pop\n      jump\t// out\n        /* \"#utility.yul\":5387:5787   */\n    tag_446:\n        /* \"#utility.yul\":5547:5550   */\n      0x00\n        /* \"#utility.yul\":5568:5652   */\n      tag_448\n        /* \"#utility.yul\":5650:5651   */\n      0x05\n        /* \"#utility.yul\":5645:5648   */\n      dup4\n        /* \"#utility.yul\":5568:5652   */\n      tag_429\n      jump\t// in\n    tag_448:\n        /* \"#utility.yul\":5561:5652   */\n      swap2\n      pop\n        /* \"#utility.yul\":5661:5754   */\n      tag_449\n        /* \"#utility.yul\":5750:5753   */\n      dup3\n        /* \"#utility.yul\":5661:5754   */\n      tag_450\n      jump\t// in\n    tag_449:\n        /* \"#utility.yul\":5779:5780   */\n      0x05\n        /* \"#utility.yul\":5774:5777   */\n      dup3\n        /* \"#utility.yul\":5770:5781   */\n      add\n        /* \"#utility.yul\":5763:5781   */\n      swap1\n      pop\n        /* \"#utility.yul\":5387:5787   */\n      swap2\n      swap1\n      pop\n      jump\t// out\n        /* \"#utility.yul\":5793:6159   */\n    tag_451:\n        /* \"#utility.yul\":5935:5938   */\n      0x00\n        /* \"#utility.yul\":5956:6023   */\n      tag_453\n        /* \"#utility.yul\":6020:6022   */\n      0x12\n        /* \"#utility.yul\":6015:6018   */\n      dup4\n        /* \"#utility.yul\":5956:6023   */\n      tag_420\n      jump\t// in\n    tag_453:\n        /* \"#utility.yul\":5949:6023   */\n      swap2\n      pop\n        /* \"#utility.yul\":6032:6125   */\n      tag_454\n        /* \"#utility.yul\":6121:6124   */\n      dup3\n        /* \"#utility.yul\":6032:6125   */\n      tag_455\n      jump\t// in\n    tag_454:\n        /* \"#utility.yul\":6150:6152   */\n      0x20\n        /* \"#utility.yul\":6145:6148   */\n      dup3\n        /* \"#utility.yul\":6141:6153   */\n      add\n        /* \"#utility.yul\":6134:6153   */\n      swap1\n      pop\n        /* \"#utility.yul\":5793:6159   */\n      swap2\n      swap1\n      pop\n      jump\t// out\n        /* \"#utility.yul\":6165:6531   */\n    tag_456:\n        /* \"#utility.yul\":6307:6310   */\n      0x00\n        /* \"#utility.yul\":6328:6395   */\n      tag_458\n        /* \"#utility.yul\":6392:6394   */\n      0x1b\n        /* \"#utility.yul\":6387:6390   */\n      dup4\n        /* \"#utility.yul\":6328:6395   */\n      tag_420\n      jump\t// in\n    tag_458:\n        /* \"#utility.yul\":6321:6395   */\n      swap2\n      pop\n        /* \"#utility.yul\":6404:6497   */\n      tag_459\n        /* \"#utility.yul\":6493:6496   */\n      dup3\n        /* \"#utility.yul\":6404:6497   */\n      tag_460\n      jump\t// in\n    tag_459:\n        /* \"#utility.yul\":6522:6524   */\n      0x20\n        /* \"#utility.yul\":6517:6520   */\n      dup3\n        /* \"#utility.yul\":6513:6525   */\n      add\n        /* \"#utility.yul\":6506:6525   */\n      swap1\n      pop\n        /* \"#utility.yul\":6165:6531   */\n      swap2\n      swap1\n      pop\n      jump\t// out\n        /* \"#utility.yul\":6537:6903   */\n    tag_461:\n        /* \"#utility.yul\":6679:6682   */\n      0x00\n        /* \"#utility.yul\":6700:6767   */\n      tag_463\n        /* \"#utility.yul\":6764:6766   */\n      0x1b\n        /* \"#utility.yul\":6759:6762   */\n      dup4\n        /* \"#utility.yul\":6700:6767   */\n      tag_420\n      jump\t// in\n    tag_463:\n        /* \"#utility.yul\":6693:6767   */\n      swap2\n      pop\n        /* \"#utility.yul\":6776:6869   */\n      tag_464\n        /* \"#utility.yul\":6865:6868   */\n      dup3\n        /* \"#utility.yul\":6776:6869   */\n      tag_465\n      jump\t// in\n    tag_464:\n        /* \"#utility.yul\":6894:6896   */\n      0x20\n        /* \"#utility.yul\":6889:6892   */\n      dup3\n        /* \"#utility.yul\":6885:6897   */\n      add\n        /* \"#utility.yul\":6878:6897   */\n      swap1\n      pop\n        /* \"#utility.yul\":6537:6903   */\n      swap2\n      swap1\n      pop\n      jump\t// out\n        /* \"#utility.yul\":6909:7275   */\n    tag_466:\n        /* \"#utility.yul\":7051:7054   */\n      0x00\n        /* \"#utility.yul\":7072:7139   */\n      tag_468\n        /* \"#utility.yul\":7136:7138   */\n      0x1c\n        /* \"#utility.yul\":7131:7134   */\n      dup4\n        /* \"#utility.yul\":7072:7139   */\n      tag_420\n      jump\t// in\n    tag_468:\n        /* \"#utility.yul\":7065:7139   */\n      swap2\n      pop\n        /* \"#utility.yul\":7148:7241   */\n      tag_469\n        /* \"#utility.yul\":7237:7240   */\n      dup3\n        /* \"#utility.yul\":7148:7241   */\n      tag_470\n      jump\t// in\n    tag_469:\n        /* \"#utility.yul\":7266:7268   */\n      0x20\n        /* \"#utility.yul\":7261:7264   */\n      dup3\n        /* \"#utility.yul\":7257:7269   */\n      add\n        /* \"#utility.yul\":7250:7269   */\n      swap1\n      pop\n        /* \"#utility.yul\":6909:7275   */\n      swap2\n      swap1\n      pop\n      jump\t// out\n        /* \"#utility.yul\":7281:7647   */\n    tag_471:\n        /* \"#utility.yul\":7423:7426   */\n      0x00\n        /* \"#utility.yul\":7444:7511   */\n      tag_473\n        /* \"#utility.yul\":7508:7510   */\n      0x1b\n        /* \"#utility.yul\":7503:7506   */\n      dup4\n        /* \"#utility.yul\":7444:7511   */\n      tag_420\n      jump\t// in\n    tag_473:\n        /* \"#utility.yul\":7437:7511   */\n      swap2\n      pop\n        /* \"#utility.yul\":7520:7613   */\n      tag_474\n        /* \"#utility.yul\":7609:7612   */\n      dup3\n        /* \"#utility.yul\":7520:7613   */\n      tag_475\n      jump\t// in\n    tag_474:\n        /* \"#utility.yul\":7638:7640   */\n      0x20\n        /* \"#utility.yul\":7633:7636   */\n      dup3\n        /* \"#utility.yul\":7629:7641   */\n      add\n        /* \"#utility.yul\":7622:7641   */\n      swap1\n      pop\n        /* \"#utility.yul\":7281:7647   */\n      swap2\n      swap1\n      pop\n      jump\t// out\n        /* \"#utility.yul\":7653:8019   */\n    tag_476:\n        /* \"#utility.yul\":7795:7798   */\n      0x00\n        /* \"#utility.yul\":7816:7883   */\n      tag_478\n        /* \"#utility.yul\":7880:7882   */\n      0x19\n        /* \"#utility.yul\":7875:7878   */\n      dup4\n        /* \"#utility.yul\":7816:7883   */\n      tag_420\n      jump\t// in\n    tag_478:\n        /* \"#utility.yul\":7809:7883   */\n      swap2\n      pop\n        /* \"#utility.yul\":7892:7985   */\n      tag_479\n        /* \"#utility.yul\":7981:7984   */\n      dup3\n        /* \"#utility.yul\":7892:7985   */\n      tag_480\n      jump\t// in\n    tag_479:\n        /* \"#utility.yul\":8010:8012   */\n      0x20\n        /* \"#utility.yul\":8005:8008   */\n      dup3\n        /* \"#utility.yul\":8001:8013   */\n      add\n        /* \"#utility.yul\":7994:8013   */\n      swap1\n      pop\n        /* \"#utility.yul\":7653:8019   */\n      swap2\n      swap1\n      pop\n      jump\t// out\n        /* \"#utility.yul\":8025:8425   */\n    tag_481:\n        /* \"#utility.yul\":8185:8188   */\n      0x00\n        /* \"#utility.yul\":8206:8290   */\n      tag_483\n        /* \"#utility.yul\":8288:8289   */\n      0x07\n        /* \"#utility.yul\":8283:8286   */\n      dup4\n        /* \"#utility.yul\":8206:8290   */\n      tag_429\n      jump\t// in\n    tag_483:\n        /* \"#utility.yul\":8199:8290   */\n      swap2\n      pop\n        /* \"#utility.yul\":8299:8392   */\n      tag_484\n        /* \"#utility.yul\":8388:8391   */\n      dup3\n        /* \"#utility.yul\":8299:8392   */\n      tag_485\n      jump\t// in\n    tag_484:\n        /* \"#utility.yul\":8417:8418   */\n      0x07\n        /* \"#utility.yul\":8412:8415   */\n      dup3\n        /* \"#utility.yul\":8408:8419   */\n      add\n        /* \"#utility.yul\":8401:8419   */\n      swap1\n      pop\n        /* \"#utility.yul\":8025:8425   */\n      swap2\n      swap1\n      pop\n      jump\t// out\n        /* \"#utility.yul\":8431:8797   */\n    tag_486:\n        /* \"#utility.yul\":8573:8576   */\n      0x00\n        /* \"#utility.yul\":8594:8661   */\n      tag_488\n        /* \"#utility.yul\":8658:8660   */\n      0x1d\n        /* \"#utility.yul\":8653:8656   */\n      dup4\n        /* \"#utility.yul\":8594:8661   */\n      tag_420\n      jump\t// in\n    tag_488:\n        /* \"#utility.yul\":8587:8661   */\n      swap2\n      pop\n        /* \"#utility.yul\":8670:8763   */\n      tag_489\n        /* \"#utility.yul\":8759:8762   */\n      dup3\n        /* \"#utility.yul\":8670:8763   */\n      tag_490\n      jump\t// in\n    tag_489:\n        /* \"#utility.yul\":8788:8790   */\n      0x20\n        /* \"#utility.yul\":8783:8786   */\n      dup3\n        /* \"#utility.yul\":8779:8791   */\n      add\n        /* \"#utility.yul\":8772:8791   */\n      swap1\n      pop\n        /* \"#utility.yul\":8431:8797   */\n      swap2\n      swap1\n      pop\n      jump\t// out\n        /* \"#utility.yul\":8803:9169   */\n    tag_491:\n        /* \"#utility.yul\":8945:8948   */\n      0x00\n        /* \"#utility.yul\":8966:9033   */\n      tag_493\n        /* \"#utility.yul\":9030:9032   */\n      0x21\n        /* \"#utility.yul\":9025:9028   */\n      dup4\n        /* \"#utility.yul\":8966:9033   */\n      tag_420\n      jump\t// in\n    tag_493:\n        /* \"#utility.yul\":8959:9033   */\n      swap2\n      pop\n        /* \"#utility.yul\":9042:9135   */\n      tag_494\n        /* \"#utility.yul\":9131:9134   */\n      dup3\n        /* \"#utility.yul\":9042:9135   */\n      tag_495\n      jump\t// in\n    tag_494:\n        /* \"#utility.yul\":9160:9162   */\n      0x40\n        /* \"#utility.yul\":9155:9158   */\n      dup3\n        /* \"#utility.yul\":9151:9163   */\n      add\n        /* \"#utility.yul\":9144:9163   */\n      swap1\n      pop\n        /* \"#utility.yul\":8803:9169   */\n      swap2\n      swap1\n      pop\n      jump\t// out\n        /* \"#utility.yul\":9175:9283   */\n    tag_383:\n        /* \"#utility.yul\":9252:9276   */\n      tag_497\n        /* \"#utility.yul\":9270:9275   */\n      dup2\n        /* \"#utility.yul\":9252:9276   */\n      tag_498\n      jump\t// in\n    tag_497:\n        /* \"#utility.yul\":9247:9250   */\n      dup3\n        /* \"#utility.yul\":9240:9277   */\n      mstore\n        /* \"#utility.yul\":9175:9283   */\n      pop\n      pop\n      jump\t// out\n        /* \"#utility.yul\":9289:9407   */\n    tag_499:\n        /* \"#utility.yul\":9376:9400   */\n      tag_501\n        /* \"#utility.yul\":9394:9399   */\n      dup2\n        /* \"#utility.yul\":9376:9400   */\n      tag_498\n      jump\t// in\n    tag_501:\n        /* \"#utility.yul\":9371:9374   */\n      dup3\n        /* \"#utility.yul\":9364:9401   */\n      mstore\n        /* \"#utility.yul\":9289:9407   */\n      pop\n      pop\n      jump\t// out\n        /* \"#utility.yul\":9413:9570   */\n    tag_502:\n        /* \"#utility.yul\":9518:9563   */\n      tag_504\n        /* \"#utility.yul\":9538:9562   */\n      tag_505\n        /* \"#utility.yul\":9556:9561   */\n      dup3\n        /* \"#utility.yul\":9538:9562   */\n      tag_498\n      jump\t// in\n    tag_505:\n        /* \"#utility.yul\":9518:9563   */\n      tag_506\n      jump\t// in\n    tag_504:\n        /* \"#utility.yul\":9513:9516   */\n      dup3\n        /* \"#utility.yul\":9506:9564   */\n      mstore\n        /* \"#utility.yul\":9413:9570   */\n      pop\n      pop\n      jump\t// out\n        /* \"#utility.yul\":9576:10117   */\n    tag_218:\n        /* \"#utility.yul\":9809:9812   */\n      0x00\n        /* \"#utility.yul\":9831:9979   */\n      tag_508\n        /* \"#utility.yul\":9975:9978   */\n      dup3\n        /* \"#utility.yul\":9831:9979   */\n      tag_441\n      jump\t// in\n    tag_508:\n        /* \"#utility.yul\":9824:9979   */\n      swap2\n      pop\n        /* \"#utility.yul\":9996:10091   */\n      tag_509\n        /* \"#utility.yul\":10087:10090   */\n      dup3\n        /* \"#utility.yul\":10078:10084   */\n      dup5\n        /* \"#utility.yul\":9996:10091   */\n      tag_425\n      jump\t// in\n    tag_509:\n        /* \"#utility.yul\":9989:10091   */\n      swap2\n      pop\n        /* \"#utility.yul\":10108:10111   */\n      dup2\n        /* \"#utility.yul\":10101:10111   */\n      swap1\n      pop\n        /* \"#utility.yul\":9576:10117   */\n      swap3\n      swap2\n      pop\n      pop\n      jump\t// out\n        /* \"#utility.yul\":10123:10664   */\n    tag_227:\n        /* \"#utility.yul\":10356:10359   */\n      0x00\n        /* \"#utility.yul\":10378:10526   */\n      tag_511\n        /* \"#utility.yul\":10522:10525   */\n      dup3\n        /* \"#utility.yul\":10378:10526   */\n      tag_446\n      jump\t// in\n    tag_511:\n        /* \"#utility.yul\":10371:10526   */\n      swap2\n      pop\n        /* \"#utility.yul\":10543:10638   */\n      tag_512\n        /* \"#utility.yul\":10634:10637   */\n      dup3\n        /* \"#utility.yul\":10625:10631   */\n      dup5\n        /* \"#utility.yul\":10543:10638   */\n      tag_425\n      jump\t// in\n    tag_512:\n        /* \"#utility.yul\":10536:10638   */\n      swap2\n      pop\n        /* \"#utility.yul\":10655:10658   */\n      dup2\n        /* \"#utility.yul\":10648:10658   */\n      swap1\n      pop\n        /* \"#utility.yul\":10123:10664   */\n      swap3\n      swap2\n      pop\n      pop\n      jump\t// out\n        /* \"#utility.yul\":10670:11211   */\n    tag_235:\n        /* \"#utility.yul\":10903:10906   */\n      0x00\n        /* \"#utility.yul\":10925:11073   */\n      tag_514\n        /* \"#utility.yul\":11069:11072   */\n      dup3\n        /* \"#utility.yul\":10925:11073   */\n      tag_481\n      jump\t// in\n    tag_514:\n        /* \"#utility.yul\":10918:11073   */\n      swap2\n      pop\n        /* \"#utility.yul\":11090:11185   */\n      tag_515\n        /* \"#utility.yul\":11181:11184   */\n      dup3\n        /* \"#utility.yul\":11172:11178   */\n      dup5\n        /* \"#utility.yul\":11090:11185   */\n      tag_425\n      jump\t// in\n    tag_515:\n        /* \"#utility.yul\":11083:11185   */\n      swap2\n      pop\n        /* \"#utility.yul\":11202:11205   */\n      dup2\n        /* \"#utility.yul\":11195:11205   */\n      swap1\n      pop\n        /* \"#utility.yul\":10670:11211   */\n      swap3\n      swap2\n      pop\n      pop\n      jump\t// out\n        /* \"#utility.yul\":11217:11614   */\n    tag_271:\n        /* \"#utility.yul\":11357:11360   */\n      0x00\n        /* \"#utility.yul\":11372:11447   */\n      tag_517\n        /* \"#utility.yul\":11443:11446   */\n      dup3\n        /* \"#utility.yul\":11434:11440   */\n      dup6\n        /* \"#utility.yul\":11372:11447   */\n      tag_502\n      jump\t// in\n    tag_517:\n        /* \"#utility.yul\":11472:11474   */\n      0x20\n        /* \"#utility.yul\":11467:11470   */\n      dup3\n        /* \"#utility.yul\":11463:11475   */\n      add\n        /* \"#utility.yul\":11456:11475   */\n      swap2\n      pop\n        /* \"#utility.yul\":11485:11560   */\n      tag_518\n        /* \"#utility.yul\":11556:11559   */\n      dup3\n        /* \"#utility.yul\":11547:11553   */\n      dup5\n        /* \"#utility.yul\":11485:11560   */\n      tag_392\n      jump\t// in\n    tag_518:\n        /* \"#utility.yul\":11585:11587   */\n      0x14\n        /* \"#utility.yul\":11580:11583   */\n      dup3\n        /* \"#utility.yul\":11576:11588   */\n      add\n        /* \"#utility.yul\":11569:11588   */\n      swap2\n      pop\n        /* \"#utility.yul\":11605:11608   */\n      dup2\n        /* \"#utility.yul\":11598:11608   */\n      swap1\n      pop\n        /* \"#utility.yul\":11217:11614   */\n      swap4\n      swap3\n      pop\n      pop\n      pop\n      jump\t// out\n        /* \"#utility.yul\":11620:11874   */\n    tag_65:\n        /* \"#utility.yul\":11729:11733   */\n      0x00\n        /* \"#utility.yul\":11767:11769   */\n      0x20\n        /* \"#utility.yul\":11756:11765   */\n      dup3\n        /* \"#utility.yul\":11752:11770   */\n      add\n        /* \"#utility.yul\":11744:11770   */\n      swap1\n      pop\n        /* \"#utility.yul\":11780:11867   */\n      tag_520\n        /* \"#utility.yul\":11864:11865   */\n      0x00\n        /* \"#utility.yul\":11853:11862   */\n      dup4\n        /* \"#utility.yul\":11849:11866   */\n      add\n        /* \"#utility.yul\":11840:11846   */\n      dup5\n        /* \"#utility.yul\":11780:11867   */\n      tag_384\n      jump\t// in\n    tag_520:\n        /* \"#utility.yul\":11620:11874   */\n      swap3\n      swap2\n      pop\n      pop\n      jump\t// out\n        /* \"#utility.yul\":11880:12635   */\n    tag_306:\n        /* \"#utility.yul\":12105:12109   */\n      0x00\n        /* \"#utility.yul\":12143:12146   */\n      0xa0\n        /* \"#utility.yul\":12132:12141   */\n      dup3\n        /* \"#utility.yul\":12128:12147   */\n      add\n        /* \"#utility.yul\":12120:12147   */\n      swap1\n      pop\n        /* \"#utility.yul\":12157:12228   */\n      tag_522\n        /* \"#utility.yul\":12225:12226   */\n      0x00\n        /* \"#utility.yul\":12214:12223   */\n      dup4\n        /* \"#utility.yul\":12210:12227   */\n      add\n        /* \"#utility.yul\":12201:12207   */\n      dup9\n        /* \"#utility.yul\":12157:12228   */\n      tag_388\n      jump\t// in\n    tag_522:\n        /* \"#utility.yul\":12238:12310   */\n      tag_523\n        /* \"#utility.yul\":12306:12308   */\n      0x20\n        /* \"#utility.yul\":12295:12304   */\n      dup4\n        /* \"#utility.yul\":12291:12309   */\n      add\n        /* \"#utility.yul\":12282:12288   */\n      dup8\n        /* \"#utility.yul\":12238:12310   */\n      tag_388\n      jump\t// in\n    tag_523:\n        /* \"#utility.yul\":12320:12392   */\n      tag_524\n        /* \"#utility.yul\":12388:12390   */\n      0x40\n        /* \"#utility.yul\":12377:12386   */\n      dup4\n        /* \"#utility.yul\":12373:12391   */\n      add\n        /* \"#utility.yul\":12364:12370   */\n      dup7\n        /* \"#utility.yul\":12320:12392   */\n      tag_499\n      jump\t// in\n    tag_524:\n        /* \"#utility.yul\":12402:12474   */\n      tag_525\n        /* \"#utility.yul\":12470:12472   */\n      0x60\n        /* \"#utility.yul\":12459:12468   */\n      dup4\n        /* \"#utility.yul\":12455:12473   */\n      add\n        /* \"#utility.yul\":12446:12452   */\n      dup6\n        /* \"#utility.yul\":12402:12474   */\n      tag_499\n      jump\t// in\n    tag_525:\n        /* \"#utility.yul\":12522:12531   */\n      dup2\n        /* \"#utility.yul\":12516:12520   */\n      dup2\n        /* \"#utility.yul\":12512:12532   */\n      sub\n        /* \"#utility.yul\":12506:12509   */\n      0x80\n        /* \"#utility.yul\":12495:12504   */\n      dup4\n        /* \"#utility.yul\":12491:12510   */\n      add\n        /* \"#utility.yul\":12484:12533   */\n      mstore\n        /* \"#utility.yul\":12550:12628   */\n      tag_526\n        /* \"#utility.yul\":12623:12627   */\n      dup2\n        /* \"#utility.yul\":12614:12620   */\n      dup5\n        /* \"#utility.yul\":12550:12628   */\n      tag_415\n      jump\t// in\n    tag_526:\n        /* \"#utility.yul\":12542:12628   */\n      swap1\n      pop\n        /* \"#utility.yul\":11880:12635   */\n      swap7\n      swap6\n      pop\n      pop\n      pop\n      pop\n      pop\n      pop\n      jump\t// out\n        /* \"#utility.yul\":12641:13014   */\n    tag_76:\n        /* \"#utility.yul\":12784:12788   */\n      0x00\n        /* \"#utility.yul\":12822:12824   */\n      0x20\n        /* \"#utility.yul\":12811:12820   */\n      dup3\n        /* \"#utility.yul\":12807:12825   */\n      add\n        /* \"#utility.yul\":12799:12825   */\n      swap1\n      pop\n        /* \"#utility.yul\":12871:12880   */\n      dup2\n        /* \"#utility.yul\":12865:12869   */\n      dup2\n        /* \"#utility.yul\":12861:12881   */\n      sub\n        /* \"#utility.yul\":12857:12858   */\n      0x00\n        /* \"#utility.yul\":12846:12855   */\n      dup4\n        /* \"#utility.yul\":12842:12859   */\n      add\n        /* \"#utility.yul\":12835:12882   */\n      mstore\n        /* \"#utility.yul\":12899:13007   */\n      tag_528\n        /* \"#utility.yul\":13002:13006   */\n      dup2\n        /* \"#utility.yul\":12993:12999   */\n      dup5\n        /* \"#utility.yul\":12899:13007   */\n      tag_397\n      jump\t// in\n    tag_528:\n        /* \"#utility.yul\":12891:13007   */\n      swap1\n      pop\n        /* \"#utility.yul\":12641:13014   */\n      swap3\n      swap2\n      pop\n      pop\n      jump\t// out\n        /* \"#utility.yul\":13020:13230   */\n    tag_30:\n        /* \"#utility.yul\":13107:13111   */\n      0x00\n        /* \"#utility.yul\":13145:13147   */\n      0x20\n        /* \"#utility.yul\":13134:13143   */\n      dup3\n        /* \"#utility.yul\":13130:13148   */\n      add\n        /* \"#utility.yul\":13122:13148   */\n      swap1\n      pop\n        /* \"#utility.yul\":13158:13223   */\n      tag_530\n        /* \"#utility.yul\":13220:13221   */\n      0x00\n        /* \"#utility.yul\":13209:13218   */\n      dup4\n        /* \"#utility.yul\":13205:13222   */\n      add\n        /* \"#utility.yul\":13196:13202   */\n      dup5\n        /* \"#utility.yul\":13158:13223   */\n      tag_411\n      jump\t// in\n    tag_530:\n        /* \"#utility.yul\":13020:13230   */\n      swap3\n      swap2\n      pop\n      pop\n      jump\t// out\n        /* \"#utility.yul\":13236:13549   */\n    tag_321:\n        /* \"#utility.yul\":13349:13353   */\n      0x00\n        /* \"#utility.yul\":13387:13389   */\n      0x20\n        /* \"#utility.yul\":13376:13385   */\n      dup3\n        /* \"#utility.yul\":13372:13390   */\n      add\n        /* \"#utility.yul\":13364:13390   */\n      swap1\n      pop\n        /* \"#utility.yul\":13436:13445   */\n      dup2\n        /* \"#utility.yul\":13430:13434   */\n      dup2\n        /* \"#utility.yul\":13426:13446   */\n      sub\n        /* \"#utility.yul\":13422:13423   */\n      0x00\n        /* \"#utility.yul\":13411:13420   */\n      dup4\n        /* \"#utility.yul\":13407:13424   */\n      add\n        /* \"#utility.yul\":13400:13447   */\n      mstore\n        /* \"#utility.yul\":13464:13542   */\n      tag_532\n        /* \"#utility.yul\":13537:13541   */\n      dup2\n        /* \"#utility.yul\":13528:13534   */\n      dup5\n        /* \"#utility.yul\":13464:13542   */\n      tag_415\n      jump\t// in\n    tag_532:\n        /* \"#utility.yul\":13456:13542   */\n      swap1\n      pop\n        /* \"#utility.yul\":13236:13549   */\n      swap3\n      swap2\n      pop\n      pop\n      jump\t// out\n        /* \"#utility.yul\":13555:13974   */\n    tag_323:\n        /* \"#utility.yul\":13721:13725   */\n      0x00\n        /* \"#utility.yul\":13759:13761   */\n      0x20\n        /* \"#utility.yul\":13748:13757   */\n      dup3\n        /* \"#utility.yul\":13744:13762   */\n      add\n        /* \"#utility.yul\":13736:13762   */\n      swap1\n      pop\n        /* \"#utility.yul\":13808:13817   */\n      dup2\n        /* \"#utility.yul\":13802:13806   */\n      dup2\n        /* \"#utility.yul\":13798:13818   */\n      sub\n        /* \"#utility.yul\":13794:13795   */\n      0x00\n        /* \"#utility.yul\":13783:13792   */\n      dup4\n        /* \"#utility.yul\":13779:13796   */\n      add\n        /* \"#utility.yul\":13772:13819   */\n      mstore\n        /* \"#utility.yul\":13836:13967   */\n      tag_534\n        /* \"#utility.yul\":13962:13966   */\n      dup2\n        /* \"#utility.yul\":13836:13967   */\n      tag_431\n      jump\t// in\n    tag_534:\n        /* \"#utility.yul\":13828:13967   */\n      swap1\n      pop\n        /* \"#utility.yul\":13555:13974   */\n      swap2\n      swap1\n      pop\n      jump\t// out\n        /* \"#utility.yul\":13980:14399   */\n    tag_327:\n        /* \"#utility.yul\":14146:14150   */\n      0x00\n        /* \"#utility.yul\":14184:14186   */\n      0x20\n        /* \"#utility.yul\":14173:14182   */\n      dup3\n        /* \"#utility.yul\":14169:14187   */\n      add\n        /* \"#utility.yul\":14161:14187   */\n      swap1\n      pop\n        /* \"#utility.yul\":14233:14242   */\n      dup2\n        /* \"#utility.yul\":14227:14231   */\n      dup2\n        /* \"#utility.yul\":14223:14243   */\n      sub\n        /* \"#utility.yul\":14219:14220   */\n      0x00\n        /* \"#utility.yul\":14208:14217   */\n      dup4\n        /* \"#utility.yul\":14204:14221   */\n      add\n        /* \"#utility.yul\":14197:14244   */\n      mstore\n        /* \"#utility.yul\":14261:14392   */\n      tag_536\n        /* \"#utility.yul\":14387:14391   */\n      dup2\n        /* \"#utility.yul\":14261:14392   */\n      tag_436\n      jump\t// in\n    tag_536:\n        /* \"#utility.yul\":14253:14392   */\n      swap1\n      pop\n        /* \"#utility.yul\":13980:14399   */\n      swap2\n      swap1\n      pop\n      jump\t// out\n        /* \"#utility.yul\":14405:14824   */\n    tag_145:\n        /* \"#utility.yul\":14571:14575   */\n      0x00\n        /* \"#utility.yul\":14609:14611   */\n      0x20\n        /* \"#utility.yul\":14598:14607   */\n      dup3\n        /* \"#utility.yul\":14594:14612   */\n      add\n        /* \"#utility.yul\":14586:14612   */\n      swap1\n      pop\n        /* \"#utility.yul\":14658:14667   */\n      dup2\n        /* \"#utility.yul\":14652:14656   */\n      dup2\n        /* \"#utility.yul\":14648:14668   */\n      sub\n        /* \"#utility.yul\":14644:14645   */\n      0x00\n        /* \"#utility.yul\":14633:14642   */\n      dup4\n        /* \"#utility.yul\":14629:14646   */\n      add\n        /* \"#utility.yul\":14622:14669   */\n      mstore\n        /* \"#utility.yul\":14686:14817   */\n      tag_538\n        /* \"#utility.yul\":14812:14816   */\n      dup2\n        /* \"#utility.yul\":14686:14817   */\n      tag_451\n      jump\t// in\n    tag_538:\n        /* \"#utility.yul\":14678:14817   */\n      swap1\n      pop\n        /* \"#utility.yul\":14405:14824   */\n      swap2\n      swap1\n      pop\n      jump\t// out\n        /* \"#utility.yul\":14830:15249   */\n    tag_101:\n        /* \"#utility.yul\":14996:15000   */\n      0x00\n        /* \"#utility.yul\":15034:15036   */\n      0x20\n        /* \"#utility.yul\":15023:15032   */\n      dup3\n        /* \"#utility.yul\":15019:15037   */\n      add\n        /* \"#utility.yul\":15011:15037   */\n      swap1\n      pop\n        /* \"#utility.yul\":15083:15092   */\n      dup2\n        /* \"#utility.yul\":15077:15081   */\n      dup2\n        /* \"#utility.yul\":15073:15093   */\n      sub\n        /* \"#utility.yul\":15069:15070   */\n      0x00\n        /* \"#utility.yul\":15058:15067   */\n      dup4\n        /* \"#utility.yul\":15054:15071   */\n      add\n        /* \"#utility.yul\":15047:15094   */\n      mstore\n        /* \"#utility.yul\":15111:15242   */\n      tag_540\n        /* \"#utility.yul\":15237:15241   */\n      dup2\n        /* \"#utility.yul\":15111:15242   */\n      tag_456\n      jump\t// in\n    tag_540:\n        /* \"#utility.yul\":15103:15242   */\n      swap1\n      pop\n        /* \"#utility.yul\":14830:15249   */\n      swap2\n      swap1\n      pop\n      jump\t// out\n        /* \"#utility.yul\":15255:15674   */\n    tag_186:\n        /* \"#utility.yul\":15421:15425   */\n      0x00\n        /* \"#utility.yul\":15459:15461   */\n      0x20\n        /* \"#utility.yul\":15448:15457   */\n      dup3\n        /* \"#utility.yul\":15444:15462   */\n      add\n        /* \"#utility.yul\":15436:15462   */\n      swap1\n      pop\n        /* \"#utility.yul\":15508:15517   */\n      dup2\n        /* \"#utility.yul\":15502:15506   */\n      dup2\n        /* \"#utility.yul\":15498:15518   */\n      sub\n        /* \"#utility.yul\":15494:15495   */\n      0x00\n        /* \"#utility.yul\":15483:15492   */\n      dup4\n        /* \"#utility.yul\":15479:15496   */\n      add\n        /* \"#utility.yul\":15472:15519   */\n      mstore\n        /* \"#utility.yul\":15536:15667   */\n      tag_542\n        /* \"#utility.yul\":15662:15666   */\n      dup2\n        /* \"#utility.yul\":15536:15667   */\n      tag_461\n      jump\t// in\n    tag_542:\n        /* \"#utility.yul\":15528:15667   */\n      swap1\n      pop\n        /* \"#utility.yul\":15255:15674   */\n      swap2\n      swap1\n      pop\n      jump\t// out\n        /* \"#utility.yul\":15680:16099   */\n    tag_82:\n        /* \"#utility.yul\":15846:15850   */\n      0x00\n        /* \"#utility.yul\":15884:15886   */\n      0x20\n        /* \"#utility.yul\":15873:15882   */\n      dup3\n        /* \"#utility.yul\":15869:15887   */\n      add\n        /* \"#utility.yul\":15861:15887   */\n      swap1\n      pop\n        /* \"#utility.yul\":15933:15942   */\n      dup2\n        /* \"#utility.yul\":15927:15931   */\n      dup2\n        /* \"#utility.yul\":15923:15943   */\n      sub\n        /* \"#utility.yul\":15919:15920   */\n      0x00\n        /* \"#utility.yul\":15908:15917   */\n      dup4\n        /* \"#utility.yul\":15904:15921   */\n      add\n        /* \"#utility.yul\":15897:15944   */\n      mstore\n        /* \"#utility.yul\":15961:16092   */\n      tag_544\n        /* \"#utility.yul\":16087:16091   */\n      dup2\n        /* \"#utility.yul\":15961:16092   */\n      tag_466\n      jump\t// in\n    tag_544:\n        /* \"#utility.yul\":15953:16092   */\n      swap1\n      pop\n        /* \"#utility.yul\":15680:16099   */\n      swap2\n      swap1\n      pop\n      jump\t// out\n        /* \"#utility.yul\":16105:16524   */\n    tag_109:\n        /* \"#utility.yul\":16271:16275   */\n      0x00\n        /* \"#utility.yul\":16309:16311   */\n      0x20\n        /* \"#utility.yul\":16298:16307   */\n      dup3\n        /* \"#utility.yul\":16294:16312   */\n      add\n        /* \"#utility.yul\":16286:16312   */\n      swap1\n      pop\n        /* \"#utility.yul\":16358:16367   */\n      dup2\n        /* \"#utility.yul\":16352:16356   */\n      dup2\n        /* \"#utility.yul\":16348:16368   */\n      sub\n        /* \"#utility.yul\":16344:16345   */\n      0x00\n        /* \"#utility.yul\":16333:16342   */\n      dup4\n        /* \"#utility.yul\":16329:16346   */\n      add\n        /* \"#utility.yul\":16322:16369   */\n      mstore\n        /* \"#utility.yul\":16386:16517   */\n      tag_546\n        /* \"#utility.yul\":16512:16516   */\n      dup2\n        /* \"#utility.yul\":16386:16517   */\n      tag_471\n      jump\t// in\n    tag_546:\n        /* \"#utility.yul\":16378:16517   */\n      swap1\n      pop\n        /* \"#utility.yul\":16105:16524   */\n      swap2\n      swap1\n      pop\n      jump\t// out\n        /* \"#utility.yul\":16530:16949   */\n    tag_113:\n        /* \"#utility.yul\":16696:16700   */\n      0x00\n        /* \"#utility.yul\":16734:16736   */\n      0x20\n        /* \"#utility.yul\":16723:16732   */\n      dup3\n        /* \"#utility.yul\":16719:16737   */\n      add\n        /* \"#utility.yul\":16711:16737   */\n      swap1\n      pop\n        /* \"#utility.yul\":16783:16792   */\n      dup2\n        /* \"#utility.yul\":16777:16781   */\n      dup2\n        /* \"#utility.yul\":16773:16793   */\n      sub\n        /* \"#utility.yul\":16769:16770   */\n      0x00\n        /* \"#utility.yul\":16758:16767   */\n      dup4\n        /* \"#utility.yul\":16754:16771   */\n      add\n        /* \"#utility.yul\":16747:16794   */\n      mstore\n        /* \"#utility.yul\":16811:16942   */\n      tag_548\n        /* \"#utility.yul\":16937:16941   */\n      dup2\n        /* \"#utility.yul\":16811:16942   */\n      tag_476\n      jump\t// in\n    tag_548:\n        /* \"#utility.yul\":16803:16942   */\n      swap1\n      pop\n        /* \"#utility.yul\":16530:16949   */\n      swap2\n      swap1\n      pop\n      jump\t// out\n        /* \"#utility.yul\":16955:17374   */\n    tag_91:\n        /* \"#utility.yul\":17121:17125   */\n      0x00\n        /* \"#utility.yul\":17159:17161   */\n      0x20\n        /* \"#utility.yul\":17148:17157   */\n      dup3\n        /* \"#utility.yul\":17144:17162   */\n      add\n        /* \"#utility.yul\":17136:17162   */\n      swap1\n      pop\n        /* \"#utility.yul\":17208:17217   */\n      dup2\n        /* \"#utility.yul\":17202:17206   */\n      dup2\n        /* \"#utility.yul\":17198:17218   */\n      sub\n        /* \"#utility.yul\":17194:17195   */\n      0x00\n        /* \"#utility.yul\":17183:17192   */\n      dup4\n        /* \"#utility.yul\":17179:17196   */\n      add\n        /* \"#utility.yul\":17172:17219   */\n      mstore\n        /* \"#utility.yul\":17236:17367   */\n      tag_550\n        /* \"#utility.yul\":17362:17366   */\n      dup2\n        /* \"#utility.yul\":17236:17367   */\n      tag_486\n      jump\t// in\n    tag_550:\n        /* \"#utility.yul\":17228:17367   */\n      swap1\n      pop\n        /* \"#utility.yul\":16955:17374   */\n      swap2\n      swap1\n      pop\n      jump\t// out\n        /* \"#utility.yul\":17380:17799   */\n    tag_254:\n        /* \"#utility.yul\":17546:17550   */\n      0x00\n        /* \"#utility.yul\":17584:17586   */\n      0x20\n        /* \"#utility.yul\":17573:17582   */\n      dup3\n        /* \"#utility.yul\":17569:17587   */\n      add\n        /* \"#utility.yul\":17561:17587   */\n      swap1\n      pop\n        /* \"#utility.yul\":17633:17642   */\n      dup2\n        /* \"#utility.yul\":17627:17631   */\n      dup2\n        /* \"#utility.yul\":17623:17643   */\n      sub\n        /* \"#utility.yul\":17619:17620   */\n      0x00\n        /* \"#utility.yul\":17608:17617   */\n      dup4\n        /* \"#utility.yul\":17604:17621   */\n      add\n        /* \"#utility.yul\":17597:17644   */\n      mstore\n        /* \"#utility.yul\":17661:17792   */\n      tag_552\n        /* \"#utility.yul\":17787:17791   */\n      dup2\n        /* \"#utility.yul\":17661:17792   */\n      tag_491\n      jump\t// in\n    tag_552:\n        /* \"#utility.yul\":17653:17792   */\n      swap1\n      pop\n        /* \"#utility.yul\":17380:17799   */\n      swap2\n      swap1\n      pop\n      jump\t// out\n        /* \"#utility.yul\":17805:18027   */\n    tag_21:\n        /* \"#utility.yul\":17898:17902   */\n      0x00\n        /* \"#utility.yul\":17936:17938   */\n      0x20\n        /* \"#utility.yul\":17925:17934   */\n      dup3\n        /* \"#utility.yul\":17921:17939   */\n      add\n        /* \"#utility.yul\":17913:17939   */\n      swap1\n      pop\n        /* \"#utility.yul\":17949:18020   */\n      tag_554\n        /* \"#utility.yul\":18017:18018   */\n      0x00\n        /* \"#utility.yul\":18006:18015   */\n      dup4\n        /* \"#utility.yul\":18002:18019   */\n      add\n        /* \"#utility.yul\":17993:17999   */\n      dup5\n        /* \"#utility.yul\":17949:18020   */\n      tag_499\n      jump\t// in\n    tag_554:\n        /* \"#utility.yul\":17805:18027   */\n      swap3\n      swap2\n      pop\n      pop\n      jump\t// out\n        /* \"#utility.yul\":18033:18456   */\n    tag_40:\n        /* \"#utility.yul\":18174:18178   */\n      0x00\n        /* \"#utility.yul\":18212:18214   */\n      0x40\n        /* \"#utility.yul\":18201:18210   */\n      dup3\n        /* \"#utility.yul\":18197:18215   */\n      add\n        /* \"#utility.yul\":18189:18215   */\n      swap1\n      pop\n        /* \"#utility.yul\":18225:18296   */\n      tag_556\n        /* \"#utility.yul\":18293:18294   */\n      0x00\n        /* \"#utility.yul\":18282:18291   */\n      dup4\n        /* \"#utility.yul\":18278:18295   */\n      add\n        /* \"#utility.yul\":18269:18275   */\n      dup6\n        /* \"#utility.yul\":18225:18296   */\n      tag_499\n      jump\t// in\n    tag_556:\n        /* \"#utility.yul\":18343:18352   */\n      dup2\n        /* \"#utility.yul\":18337:18341   */\n      dup2\n        /* \"#utility.yul\":18333:18353   */\n      sub\n        /* \"#utility.yul\":18328:18330   */\n      0x20\n        /* \"#utility.yul\":18317:18326   */\n      dup4\n        /* \"#utility.yul\":18313:18331   */\n      add\n        /* \"#utility.yul\":18306:18354   */\n      mstore\n        /* \"#utility.yul\":18371:18449   */\n      tag_557\n        /* \"#utility.yul\":18444:18448   */\n      dup2\n        /* \"#utility.yul\":18435:18441   */\n      dup5\n        /* \"#utility.yul\":18371:18449   */\n      tag_415\n      jump\t// in\n    tag_557:\n        /* \"#utility.yul\":18363:18449   */\n      swap1\n      pop\n        /* \"#utility.yul\":18033:18456   */\n      swap4\n      swap3\n      pop\n      pop\n      pop\n      jump\t// out\n        /* \"#utility.yul\":18462:18794   */\n    tag_264:\n        /* \"#utility.yul\":18583:18587   */\n      0x00\n        /* \"#utility.yul\":18621:18623   */\n      0x40\n        /* \"#utility.yul\":18610:18619   */\n      dup3\n        /* \"#utility.yul\":18606:18624   */\n      add\n        /* \"#utility.yul\":18598:18624   */\n      swap1\n      pop\n        /* \"#utility.yul\":18634:18705   */\n      tag_559\n        /* \"#utility.yul\":18702:18703   */\n      0x00\n        /* \"#utility.yul\":18691:18700   */\n      dup4\n        /* \"#utility.yul\":18687:18704   */\n      add\n        /* \"#utility.yul\":18678:18684   */\n      dup6\n        /* \"#utility.yul\":18634:18705   */\n      tag_499\n      jump\t// in\n    tag_559:\n        /* \"#utility.yul\":18715:18787   */\n      tag_560\n        /* \"#utility.yul\":18783:18785   */\n      0x20\n        /* \"#utility.yul\":18772:18781   */\n      dup4\n        /* \"#utility.yul\":18768:18786   */\n      add\n        /* \"#utility.yul\":18759:18765   */\n      dup5\n        /* \"#utility.yul\":18715:18787   */\n      tag_499\n      jump\t// in\n    tag_560:\n        /* \"#utility.yul\":18462:18794   */\n      swap4\n      swap3\n      pop\n      pop\n      pop\n      jump\t// out\n        /* \"#utility.yul\":18800:19242   */\n    tag_53:\n        /* \"#utility.yul\":18949:18953   */\n      0x00\n        /* \"#utility.yul\":18987:18989   */\n      0x60\n        /* \"#utility.yul\":18976:18985   */\n      dup3\n        /* \"#utility.yul\":18972:18990   */\n      add\n        /* \"#utility.yul\":18964:18990   */\n      swap1\n      pop\n        /* \"#utility.yul\":19000:19071   */\n      tag_562\n        /* \"#utility.yul\":19068:19069   */\n      0x00\n        /* \"#utility.yul\":19057:19066   */\n      dup4\n        /* \"#utility.yul\":19053:19070   */\n      add\n        /* \"#utility.yul\":19044:19050   */\n      dup7\n        /* \"#utility.yul\":19000:19071   */\n      tag_499\n      jump\t// in\n    tag_562:\n        /* \"#utility.yul\":19081:19153   */\n      tag_563\n        /* \"#utility.yul\":19149:19151   */\n      0x20\n        /* \"#utility.yul\":19138:19147   */\n      dup4\n        /* \"#utility.yul\":19134:19152   */\n      add\n        /* \"#utility.yul\":19125:19131   */\n      dup6\n        /* \"#utility.yul\":19081:19153   */\n      tag_499\n      jump\t// in\n    tag_563:\n        /* \"#utility.yul\":19163:19235   */\n      tag_564\n        /* \"#utility.yul\":19231:19233   */\n      0x40\n        /* \"#utility.yul\":19220:19229   */\n      dup4\n        /* \"#utility.yul\":19216:19234   */\n      add\n        /* \"#utility.yul\":19207:19213   */\n      dup5\n        /* \"#utility.yul\":19163:19235   */\n      tag_499\n      jump\t// in\n    tag_564:\n        /* \"#utility.yul\":18800:19242   */\n      swap5\n      swap4\n      pop\n      pop\n      pop\n      pop\n      jump\t// out\n        /* \"#utility.yul\":19248:19323   */\n    tag_565:\n        /* \"#utility.yul\":19281:19287   */\n      0x00\n        /* \"#utility.yul\":19314:19316   */\n      0x40\n        /* \"#utility.yul\":19308:19317   */\n      mload\n        /* \"#utility.yul\":19298:19317   */\n      swap1\n      pop\n        /* \"#utility.yul\":19248:19323   */\n      swap1\n      jump\t// out\n        /* \"#utility.yul\":19329:19461   */\n    tag_404:\n        /* \"#utility.yul\":19396:19400   */\n      0x00\n        /* \"#utility.yul\":19419:19422   */\n      dup2\n        /* \"#utility.yul\":19411:19422   */\n      swap1\n      pop\n        /* \"#utility.yul\":19449:19453   */\n      0x20\n        /* \"#utility.yul\":19444:19447   */\n      dup3\n        /* \"#utility.yul\":19440:19454   */\n      add\n        /* \"#utility.yul\":19432:19454   */\n      swap1\n      pop\n        /* \"#utility.yul\":19329:19461   */\n      swap2\n      swap1\n      pop\n      jump\t// out\n        /* \"#utility.yul\":19467:19581   */\n    tag_400:\n        /* \"#utility.yul\":19534:19540   */\n      0x00\n        /* \"#utility.yul\":19568:19573   */\n      dup2\n        /* \"#utility.yul\":19562:19574   */\n      mload\n        /* \"#utility.yul\":19552:19574   */\n      swap1\n      pop\n        /* \"#utility.yul\":19467:19581   */\n      swap2\n      swap1\n      pop\n      jump\t// out\n        /* \"#utility.yul\":19587:19686   */\n    tag_418:\n        /* \"#utility.yul\":19639:19645   */\n      0x00\n        /* \"#utility.yul\":19673:19678   */\n      dup2\n        /* \"#utility.yul\":19667:19679   */\n      mload\n        /* \"#utility.yul\":19657:19679   */\n      swap1\n      pop\n        /* \"#utility.yul\":19587:19686   */\n      swap2\n      swap1\n      pop\n      jump\t// out\n        /* \"#utility.yul\":19692:19805   */\n    tag_410:\n        /* \"#utility.yul\":19762:19766   */\n      0x00\n        /* \"#utility.yul\":19794:19798   */\n      0x20\n        /* \"#utility.yul\":19789:19792   */\n      dup3\n        /* \"#utility.yul\":19785:19799   */\n      add\n        /* \"#utility.yul\":19777:19799   */\n      swap1\n      pop\n        /* \"#utility.yul\":19692:19805   */\n      swap2\n      swap1\n      pop\n      jump\t// out\n        /* \"#utility.yul\":19811:19995   */\n    tag_402:\n        /* \"#utility.yul\":19910:19921   */\n      0x00\n        /* \"#utility.yul\":19944:19950   */\n      dup3\n        /* \"#utility.yul\":19939:19942   */\n      dup3\n        /* \"#utility.yul\":19932:19951   */\n      mstore\n        /* \"#utility.yul\":19984:19988   */\n      0x20\n        /* \"#utility.yul\":19979:19982   */\n      dup3\n        /* \"#utility.yul\":19975:19989   */\n      add\n        /* \"#utility.yul\":19960:19989   */\n      swap1\n      pop\n        /* \"#utility.yul\":19811:19995   */\n      swap3\n      swap2\n      pop\n      pop\n      jump\t// out\n        /* \"#utility.yul\":20001:20170   */\n    tag_420:\n        /* \"#utility.yul\":20085:20096   */\n      0x00\n        /* \"#utility.yul\":20119:20125   */\n      dup3\n        /* \"#utility.yul\":20114:20117   */\n      dup3\n        /* \"#utility.yul\":20107:20126   */\n      mstore\n        /* \"#utility.yul\":20159:20163   */\n      0x20\n        /* \"#utility.yul\":20154:20157   */\n      dup3\n        /* \"#utility.yul\":20150:20164   */\n      add\n        /* \"#utility.yul\":20135:20164   */\n      swap1\n      pop\n        /* \"#utility.yul\":20001:20170   */\n      swap3\n      swap2\n      pop\n      pop\n      jump\t// out\n        /* \"#utility.yul\":20176:20324   */\n    tag_429:\n        /* \"#utility.yul\":20278:20289   */\n      0x00\n        /* \"#utility.yul\":20315:20318   */\n      dup2\n        /* \"#utility.yul\":20300:20318   */\n      swap1\n      pop\n        /* \"#utility.yul\":20176:20324   */\n      swap3\n      swap2\n      pop\n      pop\n      jump\t// out\n        /* \"#utility.yul\":20330:20635   */\n    tag_262:\n        /* \"#utility.yul\":20370:20373   */\n      0x00\n        /* \"#utility.yul\":20389:20409   */\n      tag_575\n        /* \"#utility.yul\":20407:20408   */\n      dup3\n        /* \"#utility.yul\":20389:20409   */\n      tag_498\n      jump\t// in\n    tag_575:\n        /* \"#utility.yul\":20384:20409   */\n      swap2\n      pop\n        /* \"#utility.yul\":20423:20443   */\n      tag_576\n        /* \"#utility.yul\":20441:20442   */\n      dup4\n        /* \"#utility.yul\":20423:20443   */\n      tag_498\n      jump\t// in\n    tag_576:\n        /* \"#utility.yul\":20418:20443   */\n      swap3\n      pop\n        /* \"#utility.yul\":20577:20578   */\n      dup3\n        /* \"#utility.yul\":20509:20575   */\n      0xffffffffffffffffffffffffffffffffffffffffffffffffffffffffffffffff\n        /* \"#utility.yul\":20505:20579   */\n      sub\n        /* \"#utility.yul\":20502:20503   */\n      dup3\n        /* \"#utility.yul\":20499:20580   */\n      gt\n        /* \"#utility.yul\":20496:20603   */\n      iszero\n      tag_577\n      jumpi\n        /* \"#utility.yul\":20583:20601   */\n      tag_578\n      tag_579\n      jump\t// in\n    tag_578:\n        /* \"#utility.yul\":20496:20603   */\n    tag_577:\n        /* \"#utility.yul\":20627:20628   */\n      dup3\n        /* \"#utility.yul\":20624:20625   */\n      dup3\n        /* \"#utility.yul\":20620:20629   */\n      add\n        /* \"#utility.yul\":20613:20629   */\n      swap1\n      pop\n        /* \"#utility.yul\":20330:20635   */\n      swap3\n      swap2\n      pop\n      pop\n      jump\t// out\n        /* \"#utility.yul\":20641:20826   */\n    tag_280:\n        /* \"#utility.yul\":20681:20682   */\n      0x00\n        /* \"#utility.yul\":20698:20718   */\n      tag_581\n        /* \"#utility.yul\":20716:20717   */\n      dup3\n        /* \"#utility.yul\":20698:20718   */\n      tag_498\n      jump\t// in\n    tag_581:\n        /* \"#utility.yul\":20693:20718   */\n      swap2\n      pop\n        /* \"#utility.yul\":20732:20752   */\n      tag_582\n        /* \"#utility.yul\":20750:20751   */\n      dup4\n        /* \"#utility.yul\":20732:20752   */\n      tag_498\n      jump\t// in\n    tag_582:\n        /* \"#utility.yul\":20727:20752   */\n      swap3\n      pop\n        /* \"#utility.yul\":20771:20772   */\n      dup3\n        /* \"#utility.yul\":20761:20796   */\n      tag_583\n      jumpi\n        /* \"#utility.yul\":20776:20794   */\n      tag_584\n      tag_585\n      jump\t// in\n    tag_584:\n        /* \"#utility.yul\":20761:20796   */\n    tag_583:\n        /* \"#utility.yul\":20818:20819   */\n      dup3\n        /* \"#utility.yul\":20815:20816   */\n      dup3\n        /* \"#utility.yul\":20811:20820   */\n      div\n        /* \"#utility.yul\":20806:20820   */\n      swap1\n      pop\n        /* \"#utility.yul\":20641:20826   */\n      swap3\n      swap2\n      pop\n      pop\n      jump\t// out\n        /* \"#utility.yul\":20832:21023   */\n    tag_288:\n        /* \"#utility.yul\":20872:20876   */\n      0x00\n        /* \"#utility.yul\":20892:20912   */\n      tag_587\n        /* \"#utility.yul\":20910:20911   */\n      dup3\n        /* \"#utility.yul\":20892:20912   */\n      tag_498\n      jump\t// in\n    tag_587:\n        /* \"#utility.yul\":20887:20912   */\n      swap2\n      pop\n        /* \"#utility.yul\":20926:20946   */\n      tag_588\n        /* \"#utility.yul\":20944:20945   */\n      dup4\n        /* \"#utility.yul\":20926:20946   */\n      tag_498\n      jump\t// in\n    tag_588:\n        /* \"#utility.yul\":20921:20946   */\n      swap3\n      pop\n        /* \"#utility.yul\":20965:20966   */\n      dup3\n        /* \"#utility.yul\":20962:20963   */\n      dup3\n        /* \"#utility.yul\":20959:20967   */\n      lt\n        /* \"#utility.yul\":20956:20990   */\n      iszero\n      tag_589\n      jumpi\n        /* \"#utility.yul\":20970:20988   */\n      tag_590\n      tag_579\n      jump\t// in\n    tag_590:\n        /* \"#utility.yul\":20956:20990   */\n    tag_589:\n        /* \"#utility.yul\":21015:21016   */\n      dup3\n        /* \"#utility.yul\":21012:21013   */\n      dup3\n        /* \"#utility.yul\":21008:21017   */\n      sub\n        /* \"#utility.yul\":21000:21017   */\n      swap1\n      pop\n        /* \"#utility.yul\":20832:21023   */\n      swap3\n      swap2\n      pop\n      pop\n      jump\t// out\n        /* \"#utility.yul\":21029:21125   */\n    tag_391:\n        /* \"#utility.yul\":21066:21073   */\n      0x00\n        /* \"#utility.yul\":21095:21119   */\n      tag_592\n        /* \"#utility.yul\":21113:21118   */\n      dup3\n        /* \"#utility.yul\":21095:21119   */\n      tag_593\n      jump\t// in\n    tag_592:\n        /* \"#utility.yul\":21084:21119   */\n      swap1\n      pop\n        /* \"#utility.yul\":21029:21125   */\n      swap2\n      swap1\n      pop\n      jump\t// out\n        /* \"#utility.yul\":21131:21235   */\n    tag_387:\n        /* \"#utility.yul\":21176:21183   */\n      0x00\n        /* \"#utility.yul\":21205:21229   */\n      tag_595\n        /* \"#utility.yul\":21223:21228   */\n      dup3\n        /* \"#utility.yul\":21205:21229   */\n      tag_593\n      jump\t// in\n    tag_595:\n        /* \"#utility.yul\":21194:21229   */\n      swap1\n      pop\n        /* \"#utility.yul\":21131:21235   */\n      swap2\n      swap1\n      pop\n      jump\t// out\n        /* \"#utility.yul\":21241:21331   */\n    tag_414:\n        /* \"#utility.yul\":21275:21282   */\n      0x00\n        /* \"#utility.yul\":21318:21323   */\n      dup2\n        /* \"#utility.yul\":21311:21324   */\n      iszero\n        /* \"#utility.yul\":21304:21325   */\n      iszero\n        /* \"#utility.yul\":21293:21325   */\n      swap1\n      pop\n        /* \"#utility.yul\":21241:21331   */\n      swap2\n      swap1\n      pop\n      jump\t// out\n        /* \"#utility.yul\":21337:21486   */\n    tag_597:\n        /* \"#utility.yul\":21373:21380   */\n      0x00\n        /* \"#utility.yul\":21413:21479   */\n      0xffffffff00000000000000000000000000000000000000000000000000000000\n        /* \"#utility.yul\":21406:21411   */\n      dup3\n        /* \"#utility.yul\":21402:21480   */\n      and\n        /* \"#utility.yul\":21391:21480   */\n      swap1\n      pop\n        /* \"#utility.yul\":21337:21486   */\n      swap2\n      swap1\n      pop\n      jump\t// out\n        /* \"#utility.yul\":21492:21618   */\n    tag_593:\n        /* \"#utility.yul\":21529:21536   */\n      0x00\n        /* \"#utility.yul\":21569:21611   */\n      0xffffffffffffffffffffffffffffffffffffffff\n        /* \"#utility.yul\":21562:21567   */\n      dup3\n        /* \"#utility.yul\":21558:21612   */\n      and\n        /* \"#utility.yul\":21547:21612   */\n      swap1\n      pop\n        /* \"#utility.yul\":21492:21618   */\n      swap2\n      swap1\n      pop\n      jump\t// out\n        /* \"#utility.yul\":21624:21701   */\n    tag_498:\n        /* \"#utility.yul\":21661:21668   */\n      0x00\n        /* \"#utility.yul\":21690:21695   */\n      dup2\n        /* \"#utility.yul\":21679:21695   */\n      swap1\n      pop\n        /* \"#utility.yul\":21624:21701   */\n      swap2\n      swap1\n      pop\n      jump\t// out\n        /* \"#utility.yul\":21707:22014   */\n    tag_422:\n        /* \"#utility.yul\":21775:21776   */\n      0x00\n        /* \"#utility.yul\":21785:21898   */\n    tag_602:\n        /* \"#utility.yul\":21799:21805   */\n      dup4\n        /* \"#utility.yul\":21796:21797   */\n      dup2\n        /* \"#utility.yul\":21793:21806   */\n      lt\n        /* \"#utility.yul\":21785:21898   */\n      iszero\n      tag_604\n      jumpi\n        /* \"#utility.yul\":21884:21885   */\n      dup1\n        /* \"#utility.yul\":21879:21882   */\n      dup3\n        /* \"#utility.yul\":21875:21886   */\n      add\n        /* \"#utility.yul\":21869:21887   */\n      mload\n        /* \"#utility.yul\":21865:21866   */\n      dup2\n        /* \"#utility.yul\":21860:21863   */\n      dup5\n        /* \"#utility.yul\":21856:21867   */\n      add\n        /* \"#utility.yul\":21849:21888   */\n      mstore\n        /* \"#utility.yul\":21821:21823   */\n      0x20\n        /* \"#utility.yul\":21818:21819   */\n      dup2\n        /* \"#utility.yul\":21814:21824   */\n      add\n        /* \"#utility.yul\":21809:21824   */\n      swap1\n      pop\n        /* \"#utility.yul\":21785:21898   */\n      jump(tag_602)\n    tag_604:\n        /* \"#utility.yul\":21916:21922   */\n      dup4\n        /* \"#utility.yul\":21913:21914   */\n      dup2\n        /* \"#utility.yul\":21910:21923   */\n      gt\n        /* \"#utility.yul\":21907:22008   */\n      iszero\n      tag_605\n      jumpi\n        /* \"#utility.yul\":21996:21997   */\n      0x00\n        /* \"#utility.yul\":21987:21993   */\n      dup5\n        /* \"#utility.yul\":21982:21985   */\n      dup5\n        /* \"#utility.yul\":21978:21994   */\n      add\n        /* \"#utility.yul\":21971:21998   */\n      mstore\n        /* \"#utility.yul\":21907:22008   */\n    tag_605:\n        /* \"#utility.yul\":21756:22014   */\n      pop\n        /* \"#utility.yul\":21707:22014   */\n      pop\n      pop\n      pop\n      jump\t// out\n        /* \"#utility.yul\":22020:22340   */\n    tag_118:\n        /* \"#utility.yul\":22064:22070   */\n      0x00\n        /* \"#utility.yul\":22101:22102   */\n      0x02\n        /* \"#utility.yul\":22095:22099   */\n      dup3\n        /* \"#utility.yul\":22091:22103   */\n      div\n        /* \"#utility.yul\":22081:22103   */\n      swap1\n      pop\n        /* \"#utility.yul\":22148:22149   */\n      0x01\n        /* \"#utility.yul\":22142:22146   */\n      dup3\n        /* \"#utility.yul\":22138:22150   */\n      and\n        /* \"#utility.yul\":22169:22187   */\n      dup1\n        /* \"#utility.yul\":22159:22240   */\n      tag_607\n      jumpi\n        /* \"#utility.yul\":22225:22229   */\n      0x7f\n        /* \"#utility.yul\":22217:22223   */\n      dup3\n        /* \"#utility.yul\":22213:22230   */\n      and\n        /* \"#utility.yul\":22203:22230   */\n      swap2\n      pop\n        /* \"#utility.yul\":22159:22240   */\n    tag_607:\n        /* \"#utility.yul\":22287:22289   */\n      0x20\n        /* \"#utility.yul\":22279:22285   */\n      dup3\n        /* \"#utility.yul\":22276:22290   */\n      lt\n        /* \"#utility.yul\":22256:22274   */\n      dup2\n        /* \"#utility.yul\":22253:22291   */\n      eq\n        /* \"#utility.yul\":22250:22334   */\n      iszero\n      tag_608\n      jumpi\n        /* \"#utility.yul\":22306:22324   */\n      tag_609\n      tag_610\n      jump\t// in\n    tag_609:\n        /* \"#utility.yul\":22250:22334   */\n    tag_608:\n        /* \"#utility.yul\":22071:22340   */\n      pop\n        /* \"#utility.yul\":22020:22340   */\n      swap2\n      swap1\n      pop\n      jump\t// out\n        /* \"#utility.yul\":22346:22627   */\n    tag_611:\n        /* \"#utility.yul\":22429:22456   */\n      tag_613\n        /* \"#utility.yul\":22451:22455   */\n      dup3\n        /* \"#utility.yul\":22429:22456   */\n      tag_424\n      jump\t// in\n    tag_613:\n        /* \"#utility.yul\":22421:22427   */\n      dup2\n        /* \"#utility.yul\":22417:22457   */\n      add\n        /* \"#utility.yul\":22559:22565   */\n      dup2\n        /* \"#utility.yul\":22547:22557   */\n      dup2\n        /* \"#utility.yul\":22544:22566   */\n      lt\n        /* \"#utility.yul\":22523:22541   */\n      0xffffffffffffffff\n        /* \"#utility.yul\":22511:22521   */\n      dup3\n        /* \"#utility.yul\":22508:22542   */\n      gt\n        /* \"#utility.yul\":22505:22567   */\n      or\n        /* \"#utility.yul\":22502:22590   */\n      iszero\n      tag_614\n      jumpi\n        /* \"#utility.yul\":22570:22588   */\n      tag_615\n      tag_283\n      jump\t// in\n    tag_615:\n        /* \"#utility.yul\":22502:22590   */\n    tag_614:\n        /* \"#utility.yul\":22610:22620   */\n      dup1\n        /* \"#utility.yul\":22606:22608   */\n      0x40\n        /* \"#utility.yul\":22599:22621   */\n      mstore\n        /* \"#utility.yul\":22389:22627   */\n      pop\n        /* \"#utility.yul\":22346:22627   */\n      pop\n      pop\n      jump\t// out\n        /* \"#utility.yul\":22633:22866   */\n    tag_125:\n        /* \"#utility.yul\":22672:22675   */\n      0x00\n        /* \"#utility.yul\":22695:22719   */\n      tag_617\n        /* \"#utility.yul\":22713:22718   */\n      dup3\n        /* \"#utility.yul\":22695:22719   */\n      tag_498\n      jump\t// in\n    tag_617:\n        /* \"#utility.yul\":22686:22719   */\n      swap2\n      pop\n        /* \"#utility.yul\":22741:22807   */\n      0xffffffffffffffffffffffffffffffffffffffffffffffffffffffffffffffff\n        /* \"#utility.yul\":22734:22739   */\n      dup3\n        /* \"#utility.yul\":22731:22808   */\n      eq\n        /* \"#utility.yul\":22728:22831   */\n      iszero\n      tag_618\n      jumpi\n        /* \"#utility.yul\":22811:22829   */\n      tag_619\n      tag_579\n      jump\t// in\n    tag_619:\n        /* \"#utility.yul\":22728:22831   */\n    tag_618:\n        /* \"#utility.yul\":22858:22859   */\n      0x01\n        /* \"#utility.yul\":22851:22856   */\n      dup3\n        /* \"#utility.yul\":22847:22860   */\n      add\n        /* \"#utility.yul\":22840:22860   */\n      swap1\n      pop\n        /* \"#utility.yul\":22633:22866   */\n      swap2\n      swap1\n      pop\n      jump\t// out\n        /* \"#utility.yul\":22872:22972   */\n    tag_396:\n        /* \"#utility.yul\":22911:22918   */\n      0x00\n        /* \"#utility.yul\":22940:22966   */\n      tag_621\n        /* \"#utility.yul\":22960:22965   */\n      dup3\n        /* \"#utility.yul\":22940:22966   */\n      tag_622\n      jump\t// in\n    tag_621:\n        /* \"#utility.yul\":22929:22966   */\n      swap1\n      pop\n        /* \"#utility.yul\":22872:22972   */\n      swap2\n      swap1\n      pop\n      jump\t// out\n        /* \"#utility.yul\":22978:23072   */\n    tag_622:\n        /* \"#utility.yul\":23017:23024   */\n      0x00\n        /* \"#utility.yul\":23046:23066   */\n      tag_624\n        /* \"#utility.yul\":23060:23065   */\n      dup3\n        /* \"#utility.yul\":23046:23066   */\n      tag_625\n      jump\t// in\n    tag_624:\n        /* \"#utility.yul\":23035:23066   */\n      swap1\n      pop\n        /* \"#utility.yul\":22978:23072   */\n      swap2\n      swap1\n      pop\n      jump\t// out\n        /* \"#utility.yul\":23078:23157   */\n    tag_506:\n        /* \"#utility.yul\":23117:23124   */\n      0x00\n        /* \"#utility.yul\":23146:23151   */\n      dup2\n        /* \"#utility.yul\":23135:23151   */\n      swap1\n      pop\n        /* \"#utility.yul\":23078:23157   */\n      swap2\n      swap1\n      pop\n      jump\t// out\n        /* \"#utility.yul\":23163:23339   */\n    tag_273:\n        /* \"#utility.yul\":23195:23196   */\n      0x00\n        /* \"#utility.yul\":23212:23232   */\n      tag_628\n        /* \"#utility.yul\":23230:23231   */\n      dup3\n        /* \"#utility.yul\":23212:23232   */\n      tag_498\n      jump\t// in\n    tag_628:\n        /* \"#utility.yul\":23207:23232   */\n      swap2\n      pop\n        /* \"#utility.yul\":23246:23266   */\n      tag_629\n        /* \"#utility.yul\":23264:23265   */\n      dup4\n        /* \"#utility.yul\":23246:23266   */\n      tag_498\n      jump\t// in\n    tag_629:\n        /* \"#utility.yul\":23241:23266   */\n      swap3\n      pop\n        /* \"#utility.yul\":23285:23286   */\n      dup3\n        /* \"#utility.yul\":23275:23310   */\n      tag_630\n      jumpi\n        /* \"#utility.yul\":23290:23308   */\n      tag_631\n      tag_585\n      jump\t// in\n    tag_631:\n        /* \"#utility.yul\":23275:23310   */\n    tag_630:\n        /* \"#utility.yul\":23331:23332   */\n      dup3\n        /* \"#utility.yul\":23328:23329   */\n      dup3\n        /* \"#utility.yul\":23324:23333   */\n      mod\n        /* \"#utility.yul\":23319:23333   */\n      swap1\n      pop\n        /* \"#utility.yul\":23163:23339   */\n      swap3\n      swap2\n      pop\n      pop\n      jump\t// out\n        /* \"#utility.yul\":23345:23525   */\n    tag_579:\n        /* \"#utility.yul\":23393:23470   */\n      0x4e487b7100000000000000000000000000000000000000000000000000000000\n        /* \"#utility.yul\":23390:23391   */\n      0x00\n        /* \"#utility.yul\":23383:23471   */\n      mstore\n        /* \"#utility.yul\":23490:23494   */\n      0x11\n        /* \"#utility.yul\":23487:23488   */\n      0x04\n        /* \"#utility.yul\":23480:23495   */\n      mstore\n        /* \"#utility.yul\":23514:23518   */\n      0x24\n        /* \"#utility.yul\":23511:23512   */\n      0x00\n        /* \"#utility.yul\":23504:23519   */\n      revert\n        /* \"#utility.yul\":23531:23711   */\n    tag_585:\n        /* \"#utility.yul\":23579:23656   */\n      0x4e487b7100000000000000000000000000000000000000000000000000000000\n        /* \"#utility.yul\":23576:23577   */\n      0x00\n        /* \"#utility.yul\":23569:23657   */\n      mstore\n        /* \"#utility.yul\":23676:23680   */\n      0x12\n        /* \"#utility.yul\":23673:23674   */\n      0x04\n        /* \"#utility.yul\":23666:23681   */\n      mstore\n        /* \"#utility.yul\":23700:23704   */\n      0x24\n        /* \"#utility.yul\":23697:23698   */\n      0x00\n        /* \"#utility.yul\":23690:23705   */\n      revert\n        /* \"#utility.yul\":23717:23897   */\n    tag_610:\n        /* \"#utility.yul\":23765:23842   */\n      0x4e487b7100000000000000000000000000000000000000000000000000000000\n        /* \"#utility.yul\":23762:23763   */\n      0x00\n        /* \"#utility.yul\":23755:23843   */\n      mstore\n        /* \"#utility.yul\":23862:23866   */\n      0x22\n        /* \"#utility.yul\":23859:23860   */\n      0x04\n        /* \"#utility.yul\":23852:23867   */\n      mstore\n        /* \"#utility.yul\":23886:23890   */\n      0x24\n        /* \"#utility.yul\":23883:23884   */\n      0x00\n        /* \"#utility.yul\":23876:23891   */\n      revert\n        /* \"#utility.yul\":23903:24083   */\n    tag_210:\n        /* \"#utility.yul\":23951:24028   */\n      0x4e487b7100000000000000000000000000000000000000000000000000000000\n        /* \"#utility.yul\":23948:23949   */\n      0x00\n        /* \"#utility.yul\":23941:24029   */\n      mstore\n        /* \"#utility.yul\":24048:24052   */\n      0x32\n        /* \"#utility.yul\":24045:24046   */\n      0x04\n        /* \"#utility.yul\":24038:24053   */\n      mstore\n        /* \"#utility.yul\":24072:24076   */\n      0x24\n        /* \"#utility.yul\":24069:24070   */\n      0x00\n        /* \"#utility.yul\":24062:24077   */\n      revert\n        /* \"#utility.yul\":24089:24269   */\n    tag_283:\n        /* \"#utility.yul\":24137:24214   */\n      0x4e487b7100000000000000000000000000000000000000000000000000000000\n        /* \"#utility.yul\":24134:24135   */\n      0x00\n        /* \"#utility.yul\":24127:24215   */\n      mstore\n        /* \"#utility.yul\":24234:24238   */\n      0x41\n        /* \"#utility.yul\":24231:24232   */\n      0x04\n        /* \"#utility.yul\":24224:24239   */\n      mstore\n        /* \"#utility.yul\":24258:24262   */\n      0x24\n        /* \"#utility.yul\":24255:24256   */\n      0x00\n        /* \"#utility.yul\":24248:24263   */\n      revert\n        /* \"#utility.yul\":24275:24458   */\n    tag_316:\n        /* \"#utility.yul\":24310:24313   */\n      0x00\n        /* \"#utility.yul\":24348:24349   */\n      0x03\n        /* \"#utility.yul\":24330:24346   */\n      returndatasize\n        /* \"#utility.yul\":24327:24350   */\n      gt\n        /* \"#utility.yul\":24324:24452   */\n      iszero\n      tag_638\n      jumpi\n        /* \"#utility.yul\":24386:24387   */\n      0x04\n        /* \"#utility.yul\":24383:24384   */\n      0x00\n        /* \"#utility.yul\":24380:24381   */\n      dup1\n        /* \"#utility.yul\":24365:24388   */\n      returndatacopy\n        /* \"#utility.yul\":24408:24442   */\n      tag_639\n        /* \"#utility.yul\":24439:24440   */\n      0x00\n        /* \"#utility.yul\":24433:24441   */\n      mload\n        /* \"#utility.yul\":24408:24442   */\n      tag_640\n      jump\t// in\n    tag_639:\n        /* \"#utility.yul\":24401:24442   */\n      swap1\n      pop\n        /* \"#utility.yul\":24324:24452   */\n    tag_638:\n        /* \"#utility.yul\":24275:24458   */\n      swap1\n      jump\t// out\n        /* \"#utility.yul\":24587:24704   */\n    tag_366:\n        /* \"#utility.yul\":24696:24697   */\n      0x00\n        /* \"#utility.yul\":24693:24694   */\n      dup1\n        /* \"#utility.yul\":24686:24698   */\n      revert\n        /* \"#utility.yul\":24710:24812   */\n    tag_424:\n        /* \"#utility.yul\":24751:24757   */\n      0x00\n        /* \"#utility.yul\":24802:24804   */\n      0x1f\n        /* \"#utility.yul\":24798:24805   */\n      not\n        /* \"#utility.yul\":24793:24795   */\n      0x1f\n        /* \"#utility.yul\":24786:24791   */\n      dup4\n        /* \"#utility.yul\":24782:24796   */\n      add\n        /* \"#utility.yul\":24778:24806   */\n      and\n        /* \"#utility.yul\":24768:24806   */\n      swap1\n      pop\n        /* \"#utility.yul\":24710:24812   */\n      swap2\n      swap1\n      pop\n      jump\t// out\n        /* \"#utility.yul\":24818:24912   */\n    tag_625:\n        /* \"#utility.yul\":24851:24859   */\n      0x00\n        /* \"#utility.yul\":24899:24904   */\n      dup2\n        /* \"#utility.yul\":24895:24897   */\n      0x60\n        /* \"#utility.yul\":24891:24905   */\n      shl\n        /* \"#utility.yul\":24870:24905   */\n      swap1\n      pop\n        /* \"#utility.yul\":24818:24912   */\n      swap2\n      swap1\n      pop\n      jump\t// out\n        /* \"#utility.yul\":24918:25024   */\n    tag_640:\n        /* \"#utility.yul\":24962:24970   */\n      0x00\n        /* \"#utility.yul\":25011:25016   */\n      dup2\n        /* \"#utility.yul\":25006:25009   */\n      0xe0\n        /* \"#utility.yul\":25002:25017   */\n      shr\n        /* \"#utility.yul\":24981:25017   */\n      swap1\n      pop\n        /* \"#utility.yul\":24918:25024   */\n      swap2\n      swap1\n      pop\n      jump\t// out\n        /* \"#utility.yul\":25030:25269   */\n    tag_435:\n        /* \"#utility.yul\":25170:25204   */\n      0x455243313135353a207472616e7366657220746f206e6f6e2045524331313535\n        /* \"#utility.yul\":25166:25167   */\n      0x00\n        /* \"#utility.yul\":25158:25164   */\n      dup3\n        /* \"#utility.yul\":25154:25168   */\n      add\n        /* \"#utility.yul\":25147:25205   */\n      mstore\n        /* \"#utility.yul\":25239:25261   */\n      0x526563656976657220696d706c656d656e746572000000000000000000000000\n        /* \"#utility.yul\":25234:25236   */\n      0x20\n        /* \"#utility.yul\":25226:25232   */\n      dup3\n        /* \"#utility.yul\":25222:25237   */\n      add\n        /* \"#utility.yul\":25215:25262   */\n      mstore\n        /* \"#utility.yul\":25030:25269   */\n      pop\n      jump\t// out\n        /* \"#utility.yul\":25275:25502   */\n    tag_440:\n        /* \"#utility.yul\":25415:25449   */\n      0x455243313135353a204552433131353552656365697665722072656a65637465\n        /* \"#utility.yul\":25411:25412   */\n      0x00\n        /* \"#utility.yul\":25403:25409   */\n      dup3\n        /* \"#utility.yul\":25399:25413   */\n      add\n        /* \"#utility.yul\":25392:25450   */\n      mstore\n        /* \"#utility.yul\":25484:25494   */\n      0x6420746f6b656e73000000000000000000000000000000000000000000000000\n        /* \"#utility.yul\":25479:25481   */\n      0x20\n        /* \"#utility.yul\":25471:25477   */\n      dup3\n        /* \"#utility.yul\":25467:25482   */\n      add\n        /* \"#utility.yul\":25460:25495   */\n      mstore\n        /* \"#utility.yul\":25275:25502   */\n      pop\n      jump\t// out\n        /* \"#utility.yul\":25508:25666   */\n    tag_445:\n        /* \"#utility.yul\":25648:25658   */\n      0x4469616d6f6e645f000000000000000000000000000000000000000000000000\n        /* \"#utility.yul\":25644:25645   */\n      0x00\n        /* \"#utility.yul\":25636:25642   */\n      dup3\n        /* \"#utility.yul\":25632:25646   */\n      add\n        /* \"#utility.yul\":25625:25659   */\n      mstore\n        /* \"#utility.yul\":25508:25666   */\n      pop\n      jump\t// out\n        /* \"#utility.yul\":25672:25827   */\n    tag_450:\n        /* \"#utility.yul\":25812:25819   */\n      0x476f6c645f000000000000000000000000000000000000000000000000000000\n        /* \"#utility.yul\":25808:25809   */\n      0x00\n        /* \"#utility.yul\":25800:25806   */\n      dup3\n        /* \"#utility.yul\":25796:25810   */\n      add\n        /* \"#utility.yul\":25789:25820   */\n      mstore\n        /* \"#utility.yul\":25672:25827   */\n      pop\n      jump\t// out\n        /* \"#utility.yul\":25833:26001   */\n    tag_455:\n        /* \"#utility.yul\":25973:25993   */\n      0x4e6f7420456e6f7567682042616c616e63650000000000000000000000000000\n        /* \"#utility.yul\":25969:25970   */\n      0x00\n        /* \"#utility.yul\":25961:25967   */\n      dup3\n        /* \"#utility.yul\":25957:25971   */\n      add\n        /* \"#utility.yul\":25950:25994   */\n      mstore\n        /* \"#utility.yul\":25833:26001   */\n      pop\n      jump\t// out\n        /* \"#utility.yul\":26007:26184   */\n    tag_460:\n        /* \"#utility.yul\":26147:26176   */\n      0x44726f707369746520697320616c72656164792052756e6e696e670000000000\n        /* \"#utility.yul\":26143:26144   */\n      0x00\n        /* \"#utility.yul\":26135:26141   */\n      dup3\n        /* \"#utility.yul\":26131:26145   */\n      add\n        /* \"#utility.yul\":26124:26177   */\n      mstore\n        /* \"#utility.yul\":26007:26184   */\n      pop\n      jump\t// out\n        /* \"#utility.yul\":26190:26367   */\n    tag_465:\n        /* \"#utility.yul\":26330:26359   */\n      0x44726f707369746520697320616c72656164792053746f707065640000000000\n        /* \"#utility.yul\":26326:26327   */\n      0x00\n        /* \"#utility.yul\":26318:26324   */\n      dup3\n        /* \"#utility.yul\":26314:26328   */\n      add\n        /* \"#utility.yul\":26307:26360   */\n      mstore\n        /* \"#utility.yul\":26190:26367   */\n      pop\n      jump\t// out\n        /* \"#utility.yul\":26373:26551   */\n    tag_470:\n        /* \"#utility.yul\":26513:26543   */\n      0x4f6e6c79204e46542d4553204f776e65722063616e2041636365737300000000\n        /* \"#utility.yul\":26509:26510   */\n      0x00\n        /* \"#utility.yul\":26501:26507   */\n      dup3\n        /* \"#utility.yul\":26497:26511   */\n      add\n        /* \"#utility.yul\":26490:26544   */\n      mstore\n        /* \"#utility.yul\":26373:26551   */\n      pop\n      jump\t// out\n        /* \"#utility.yul\":26557:26734   */\n    tag_475:\n        /* \"#utility.yul\":26697:26726   */\n      0x44726f7073697465206973206e6f74204f70656e6564205965742e0000000000\n        /* \"#utility.yul\":26693:26694   */\n      0x00\n        /* \"#utility.yul\":26685:26691   */\n      dup3\n        /* \"#utility.yul\":26681:26695   */\n      add\n        /* \"#utility.yul\":26674:26727   */\n      mstore\n        /* \"#utility.yul\":26557:26734   */\n      pop\n      jump\t// out\n        /* \"#utility.yul\":26740:26915   */\n    tag_480:\n        /* \"#utility.yul\":26880:26907   */\n      0x4d6178204d696e74696e67204c696d6974207265616368656400000000000000\n        /* \"#utility.yul\":26876:26877   */\n      0x00\n        /* \"#utility.yul\":26868:26874   */\n      dup3\n        /* \"#utility.yul\":26864:26878   */\n      add\n        /* \"#utility.yul\":26857:26908   */\n      mstore\n        /* \"#utility.yul\":26740:26915   */\n      pop\n      jump\t// out\n        /* \"#utility.yul\":26921:27078   */\n    tag_485:\n        /* \"#utility.yul\":27061:27070   */\n      0x53696c7665725f00000000000000000000000000000000000000000000000000\n        /* \"#utility.yul\":27057:27058   */\n      0x00\n        /* \"#utility.yul\":27049:27055   */\n      dup3\n        /* \"#utility.yul\":27045:27059   */\n      add\n        /* \"#utility.yul\":27038:27071   */\n      mstore\n        /* \"#utility.yul\":26921:27078   */\n      pop\n      jump\t// out\n        /* \"#utility.yul\":27084:27263   */\n    tag_490:\n        /* \"#utility.yul\":27224:27255   */\n      0x4572726f7221204e6f2042616c616e636520746f207769746864726177000000\n        /* \"#utility.yul\":27220:27221   */\n      0x00\n        /* \"#utility.yul\":27212:27218   */\n      dup3\n        /* \"#utility.yul\":27208:27222   */\n      add\n        /* \"#utility.yul\":27201:27256   */\n      mstore\n        /* \"#utility.yul\":27084:27263   */\n      pop\n      jump\t// out\n        /* \"#utility.yul\":27269:27489   */\n    tag_495:\n        /* \"#utility.yul\":27409:27443   */\n      0x455243313135353a206d696e7420746f20746865207a65726f20616464726573\n        /* \"#utility.yul\":27405:27406   */\n      0x00\n        /* \"#utility.yul\":27397:27403   */\n      dup3\n        /* \"#utility.yul\":27393:27407   */\n      add\n        /* \"#utility.yul\":27386:27444   */\n      mstore\n        /* \"#utility.yul\":27478:27481   */\n      0x7300000000000000000000000000000000000000000000000000000000000000\n        /* \"#utility.yul\":27473:27475   */\n      0x20\n        /* \"#utility.yul\":27465:27471   */\n      dup3\n        /* \"#utility.yul\":27461:27476   */\n      add\n        /* \"#utility.yul\":27454:27482   */\n      mstore\n        /* \"#utility.yul\":27269:27489   */\n      pop\n      jump\t// out\n        /* \"#utility.yul\":27495:28206   */\n    tag_318:\n        /* \"#utility.yul\":27534:27537   */\n      0x00\n        /* \"#utility.yul\":27572:27576   */\n      0x44\n        /* \"#utility.yul\":27554:27570   */\n      returndatasize\n        /* \"#utility.yul\":27551:27577   */\n      lt\n        /* \"#utility.yul\":27548:27587   */\n      iszero\n      tag_661\n      jumpi\n        /* \"#utility.yul\":27580:27585   */\n      jump(tag_660)\n        /* \"#utility.yul\":27548:27587   */\n    tag_661:\n        /* \"#utility.yul\":27609:27629   */\n      tag_662\n      tag_565\n      jump\t// in\n    tag_662:\n        /* \"#utility.yul\":27684:27685   */\n      0x04\n        /* \"#utility.yul\":27666:27682   */\n      returndatasize\n        /* \"#utility.yul\":27662:27686   */\n      sub\n        /* \"#utility.yul\":27659:27660   */\n      0x04\n        /* \"#utility.yul\":27653:27657   */\n      dup3\n        /* \"#utility.yul\":27638:27687   */\n      returndatacopy\n        /* \"#utility.yul\":27717:27721   */\n      dup1\n        /* \"#utility.yul\":27711:27722   */\n      mload\n        /* \"#utility.yul\":27816:27832   */\n      returndatasize\n        /* \"#utility.yul\":27809:27813   */\n      0x24\n        /* \"#utility.yul\":27801:27807   */\n      dup3\n        /* \"#utility.yul\":27797:27814   */\n      add\n        /* \"#utility.yul\":27794:27833   */\n      gt\n        /* \"#utility.yul\":27761:27779   */\n      0xffffffffffffffff\n        /* \"#utility.yul\":27753:27759   */\n      dup3\n        /* \"#utility.yul\":27750:27780   */\n      gt\n        /* \"#utility.yul\":27734:27847   */\n      or\n        /* \"#utility.yul\":27731:27877   */\n      iszero\n      tag_663\n      jumpi\n        /* \"#utility.yul\":27862:27867   */\n      pop\n      pop\n      jump(tag_660)\n        /* \"#utility.yul\":27731:27877   */\n    tag_663:\n        /* \"#utility.yul\":27908:27914   */\n      dup1\n        /* \"#utility.yul\":27902:27906   */\n      dup3\n        /* \"#utility.yul\":27898:27915   */\n      add\n        /* \"#utility.yul\":27944:27947   */\n      dup1\n        /* \"#utility.yul\":27938:27948   */\n      mload\n        /* \"#utility.yul\":27971:27989   */\n      0xffffffffffffffff\n        /* \"#utility.yul\":27963:27969   */\n      dup2\n        /* \"#utility.yul\":27960:27990   */\n      gt\n        /* \"#utility.yul\":27957:28000   */\n      iszero\n      tag_664\n      jumpi\n        /* \"#utility.yul\":27993:27998   */\n      pop\n      pop\n      pop\n      pop\n      jump(tag_660)\n        /* \"#utility.yul\":27957:28000   */\n    tag_664:\n        /* \"#utility.yul\":28041:28047   */\n      dup1\n        /* \"#utility.yul\":28034:28038   */\n      0x20\n        /* \"#utility.yul\":28029:28032   */\n      dup4\n        /* \"#utility.yul\":28025:28039   */\n      add\n        /* \"#utility.yul\":28021:28048   */\n      add\n        /* \"#utility.yul\":28100:28101   */\n      0x04\n        /* \"#utility.yul\":28082:28098   */\n      returndatasize\n        /* \"#utility.yul\":28078:28102   */\n      sub\n        /* \"#utility.yul\":28072:28076   */\n      dup6\n        /* \"#utility.yul\":28068:28103   */\n      add\n        /* \"#utility.yul\":28063:28066   */\n      dup2\n        /* \"#utility.yul\":28060:28104   */\n      gt\n        /* \"#utility.yul\":28057:28114   */\n      iszero\n      tag_665\n      jumpi\n        /* \"#utility.yul\":28107:28112   */\n      pop\n      pop\n      pop\n      pop\n      pop\n      jump(tag_660)\n        /* \"#utility.yul\":28057:28114   */\n    tag_665:\n        /* \"#utility.yul\":28124:28181   */\n      tag_666\n        /* \"#utility.yul\":28172:28178   */\n      dup3\n        /* \"#utility.yul\":28166:28170   */\n      0x20\n        /* \"#utility.yul\":28162:28179   */\n      add\n        /* \"#utility.yul\":28154:28160   */\n      dup6\n        /* \"#utility.yul\":28150:28180   */\n      add\n        /* \"#utility.yul\":28144:28148   */\n      dup7\n        /* \"#utility.yul\":28124:28181   */\n      tag_611\n      jump\t// in\n    tag_666:\n        /* \"#utility.yul\":28197:28200   */\n      dup3\n        /* \"#utility.yul\":28190:28200   */\n      swap6\n      pop\n        /* \"#utility.yul\":27538:28206   */\n      pop\n      pop\n      pop\n      pop\n      pop\n        /* \"#utility.yul\":27495:28206   */\n    tag_660:\n      swap1\n      jump\t// out\n        /* \"#utility.yul\":28212:28334   */\n    tag_350:\n        /* \"#utility.yul\":28285:28309   */\n      tag_668\n        /* \"#utility.yul\":28303:28308   */\n      dup2\n        /* \"#utility.yul\":28285:28309   */\n      tag_391\n      jump\t// in\n    tag_668:\n        /* \"#utility.yul\":28278:28283   */\n      dup2\n        /* \"#utility.yul\":28275:28310   */\n      eq\n        /* \"#utility.yul\":28265:28328   */\n      tag_669\n      jumpi\n        /* \"#utility.yul\":28324:28325   */\n      0x00\n        /* \"#utility.yul\":28321:28322   */\n      dup1\n        /* \"#utility.yul\":28314:28326   */\n      revert\n        /* \"#utility.yul\":28265:28328   */\n    tag_669:\n        /* \"#utility.yul\":28212:28334   */\n      pop\n      jump\t// out\n        /* \"#utility.yul\":28340:28478   */\n    tag_354:\n        /* \"#utility.yul\":28421:28453   */\n      tag_671\n        /* \"#utility.yul\":28447:28452   */\n      dup2\n        /* \"#utility.yul\":28421:28453   */\n      tag_387\n      jump\t// in\n    tag_671:\n        /* \"#utility.yul\":28414:28419   */\n      dup2\n        /* \"#utility.yul\":28411:28454   */\n      eq\n        /* \"#utility.yul\":28401:28472   */\n      tag_672\n      jumpi\n        /* \"#utility.yul\":28468:28469   */\n      0x00\n        /* \"#utility.yul\":28465:28466   */\n      dup1\n        /* \"#utility.yul\":28458:28470   */\n      revert\n        /* \"#utility.yul\":28401:28472   */\n    tag_672:\n        /* \"#utility.yul\":28340:28478   */\n      pop\n      jump\t// out\n        /* \"#utility.yul\":28484:28604   */\n    tag_358:\n        /* \"#utility.yul\":28556:28579   */\n      tag_674\n        /* \"#utility.yul\":28573:28578   */\n      dup2\n        /* \"#utility.yul\":28556:28579   */\n      tag_597\n      jump\t// in\n    tag_674:\n        /* \"#utility.yul\":28549:28554   */\n      dup2\n        /* \"#utility.yul\":28546:28580   */\n      eq\n        /* \"#utility.yul\":28536:28598   */\n      tag_675\n      jumpi\n        /* \"#utility.yul\":28594:28595   */\n      0x00\n        /* \"#utility.yul\":28591:28592   */\n      dup1\n        /* \"#utility.yul\":28584:28596   */\n      revert\n        /* \"#utility.yul\":28536:28598   */\n    tag_675:\n        /* \"#utility.yul\":28484:28604   */\n      pop\n      jump\t// out\n        /* \"#utility.yul\":28610:28732   */\n    tag_362:\n        /* \"#utility.yul\":28683:28707   */\n      tag_677\n        /* \"#utility.yul\":28701:28706   */\n      dup2\n        /* \"#utility.yul\":28683:28707   */\n      tag_498\n      jump\t// in\n    tag_677:\n        /* \"#utility.yul\":28676:28681   */\n      dup2\n        /* \"#utility.yul\":28673:28708   */\n      eq\n        /* \"#utility.yul\":28663:28726   */\n      tag_678\n      jumpi\n        /* \"#utility.yul\":28722:28723   */\n      0x00\n        /* \"#utility.yul\":28719:28720   */\n      dup1\n        /* \"#utility.yul\":28712:28724   */\n      revert\n        /* \"#utility.yul\":28663:28726   */\n    tag_678:\n        /* \"#utility.yul\":28610:28732   */\n      pop\n      jump\t// out\n\n    auxdata: 0xa2646970667358221220db32a21c36b8cf627592726f8797a2720fcd37fef86f9e7b2c1f99f13e87bb0064736f6c63430008070033\n}\n",
				"bytecode": {
					"linkReferences": {},
					"object": "608060405260405180602001604052806000815250600290805190602001906200002b929190620001e8565b50604051806102800160405280600060ff168152602001600160ff168152602001600160ff168152602001600260ff168152602001600260ff168152602001600260ff168152602001600260ff168152602001600260ff168152602001600260ff168152602001600260ff168152602001600260ff168152602001600260ff168152602001600260ff168152602001600260ff168152602001600260ff168152602001600260ff168152602001600260ff168152602001600260ff168152602001600260ff168152602001600260ff1681525060039060146200011092919062000279565b506001600c60006101000a81548160ff0219169083151502179055503480156200013957600080fd5b50604051620030523803806200305283398181016040528101906200015f9190620003b7565b80600d908051906020019062000177929190620001e8565b5033600c60016101000a81548173ffffffffffffffffffffffffffffffffffffffff021916908373ffffffffffffffffffffffffffffffffffffffff16021790555060006004819055506001600581905550600060078190555060006008819055506000600981905550506200058c565b828054620001f6906200049d565b90600052602060002090601f0160209004810192826200021a576000855562000266565b82601f106200023557805160ff191683800117855562000266565b8280016001018555821562000266579182015b828111156200026557825182559160200191906001019062000248565b5b5090506200027591906200031a565b5090565b826014601f01602090048101928215620003075791602002820160005b83821115620002d657835183826101000a81548160ff021916908360ff160217905550926020019260010160208160000104928301926001030262000296565b8015620003055782816101000a81549060ff0219169055600101602081600001049283019260010302620002d6565b505b5090506200031691906200031a565b5090565b5b80821115620003355760008160009055506001016200031b565b5090565b6000620003506200034a8462000431565b62000408565b9050828152602081018484840111156200036f576200036e6200056c565b5b6200037c84828562000467565b509392505050565b600082601f8301126200039c576200039b62000567565b5b8151620003ae84826020860162000339565b91505092915050565b600060208284031215620003d057620003cf62000576565b5b600082015167ffffffffffffffff811115620003f157620003f062000571565b5b620003ff8482850162000384565b91505092915050565b60006200041462000427565b9050620004228282620004d3565b919050565b6000604051905090565b600067ffffffffffffffff8211156200044f576200044e62000538565b5b6200045a826200057b565b9050602081019050919050565b60005b83811015620004875780820151818401526020810190506200046a565b8381111562000497576000848401525b50505050565b60006002820490506001821680620004b657607f821691505b60208210811415620004cd57620004cc62000509565b5b50919050565b620004de826200057b565b810181811067ffffffffffffffff821117156200050057620004ff62000538565b5b80604052505050565b7f4e487b7100000000000000000000000000000000000000000000000000000000600052602260045260246000fd5b7f4e487b7100000000000000000000000000000000000000000000000000000000600052604160045260246000fd5b600080fd5b600080fd5b600080fd5b600080fd5b6000601f19601f8301169050919050565b612ab6806200059c6000396000f3fe6080604052600436106100c25760003560e01c80633d65df701161007f578063aa90c72611610059578063aa90c72614610242578063b4a99a4e14610259578063eddd0d9c14610284578063fd6c3b1b146102ad576100c2565b80633d65df70146101b957806360daa851146101ea5780637a5caab314610217576100c2565b80630390c11c146100c75780630a67d2c7146100f25780631309a5631461010e578063154602591461013957806332b61b4c146101505780633b6680591461018e575b600080fd5b3480156100d357600080fd5b506100dc6102ea565b6040516100e99190612236565b60405180910390f35b61010c60048036038101906101079190611be9565b61038b565b005b34801561011a57600080fd5b506101236104b5565b60405161013091906120b9565b60405180910390f35b34801561014557600080fd5b5061014e6104c8565b005b34801561015c57600080fd5b5061017760048036038101906101729190611bbc565b6105d2565b604051610185929190612251565b60405180910390f35b34801561019a57600080fd5b506101a36108c7565b6040516101b09190612236565b60405180910390f35b6101d360048036038101906101ce9190611bbc565b610966565b6040516101e1929190612251565b60405180910390f35b3480156101f657600080fd5b506101ff610c19565b60405161020e939291906122aa565b60405180910390f35b34801561022357600080fd5b5061022c610d1f565b6040516102399190612236565b60405180910390f35b34801561024e57600080fd5b50610257610e16565b005b34801561026557600080fd5b5061026e610f20565b60405161027b9190612022565b60405180910390f35b34801561029057600080fd5b506102ab60048036038101906102a69190611c43565b610f46565b005b3480156102b957600080fd5b506102d460048036038101906102cf9190611bbc565b61103d565b6040516102e19190612097565b60405180910390f35b6000600c60019054906101000a900473ffffffffffffffffffffffffffffffffffffffff1673ffffffffffffffffffffffffffffffffffffffff1661032d61112d565b73ffffffffffffffffffffffffffffffffffffffff1614610383576040517f08c379a000000000000000000000000000000000000000000000000000000000815260040161037a90612196565b60405180910390fd5b600454905090565b600c60019054906101000a900473ffffffffffffffffffffffffffffffffffffffff1673ffffffffffffffffffffffffffffffffffffffff166103cc61112d565b73ffffffffffffffffffffffffffffffffffffffff1614610422576040517f08c379a000000000000000000000000000000000000000000000000000000000815260040161041990612196565b60405180910390fd5b60004790506000811161046a576040517f08c379a0000000000000000000000000000000000000000000000000000000008152600401610461906121f6565b60405180910390fd5b8173ffffffffffffffffffffffffffffffffffffffff166108fc829081150290604051600060405180830381858888f193505050501580156104b0573d6000803e3d6000fd5b505050565b600c60009054906101000a900460ff1681565b600c60019054906101000a900473ffffffffffffffffffffffffffffffffffffffff1673ffffffffffffffffffffffffffffffffffffffff1661050961112d565b73ffffffffffffffffffffffffffffffffffffffff161461055f576040517f08c379a000000000000000000000000000000000000000000000000000000000815260040161055690612196565b60405180910390fd5b60011515600c60009054906101000a900460ff161515146105b5576040517f08c379a00000000000000000000000000000000000000000000000000000000081526004016105ac90612156565b60405180910390fd5b6000600c60006101000a81548160ff021916908315150217905550565b60006060600c60019054906101000a900473ffffffffffffffffffffffffffffffffffffffff1673ffffffffffffffffffffffffffffffffffffffff1661061761112d565b73ffffffffffffffffffffffffffffffffffffffff161461066d576040517f08c379a000000000000000000000000000000000000000000000000000000000815260040161066490612196565b60405180910390fd5b60001515600c60009054906101000a900460ff161515146106c3576040517f08c379a00000000000000000000000000000000000000000000000000000000081526004016106ba906121b6565b60405180910390fd5b6103e860045410610709576040517f08c379a0000000000000000000000000000000000000000000000000000000008152600401610700906121d6565b60405180910390fd5b6000610713611135565b90506107ad84826005546002805461072a906124bf565b80601f0160208091040260200160405190810160405280929190818152602001828054610756906124bf565b80156107a35780601f10610778576101008083540402835291602001916107a3565b820191906000526020600020905b81548152906001019060200180831161078657829003601f168201915b5050505050611427565b600460008154809291906107c090612522565b9190505550600a60008573ffffffffffffffffffffffffffffffffffffffff1673ffffffffffffffffffffffffffffffffffffffff16815260200190815260200160002060000181908060018154018082558091505060019003906000526020600020016000909190919091505580600280805461083d906124bf565b80601f0160208091040260200160405190810160405280929190818152602001828054610869906124bf565b80156108b65780601f1061088b576101008083540402835291602001916108b6565b820191906000526020600020905b81548152906001019060200180831161089957829003601f168201915b505050505090509250925050915091565b6000600c60019054906101000a900473ffffffffffffffffffffffffffffffffffffffff1673ffffffffffffffffffffffffffffffffffffffff1661090a61112d565b73ffffffffffffffffffffffffffffffffffffffff1614610960576040517f08c379a000000000000000000000000000000000000000000000000000000000815260040161095790612196565b60405180910390fd5b47905090565b6000606060001515600c60009054906101000a900460ff161515146109c0576040517f08c379a00000000000000000000000000000000000000000000000000000000081526004016109b7906121b6565b60405180910390fd5b6103e860045410610a06576040517f08c379a00000000000000000000000000000000000000000000000000000000081526004016109fd906121d6565b60405180910390fd5b6006543414610a4a576040517f08c379a0000000000000000000000000000000000000000000000000000000008152600401610a4190612136565b60405180910390fd5b6000610a54611135565b9050610aee848260055460028054610a6b906124bf565b80601f0160208091040260200160405190810160405280929190818152602001828054610a97906124bf565b8015610ae45780601f10610ab957610100808354040283529160200191610ae4565b820191906000526020600020905b815481529060010190602001808311610ac757829003601f168201915b5050505050611427565b610aff610af961112d565b346115bd565b60046000815480929190610b1290612522565b9190505550600a60008573ffffffffffffffffffffffffffffffffffffffff1673ffffffffffffffffffffffffffffffffffffffff168152602001908152602001600020600001819080600181540180825580915050600190039060005260206000200160009091909190915055806002808054610b8f906124bf565b80601f0160208091040260200160405190810160405280929190818152602001828054610bbb906124bf565b8015610c085780601f10610bdd57610100808354040283529160200191610c08565b820191906000526020600020905b815481529060010190602001808311610beb57829003601f168201915b505050505090509250925050915091565b6000806000600c60019054906101000a900473ffffffffffffffffffffffffffffffffffffffff1673ffffffffffffffffffffffffffffffffffffffff16610c5f61112d565b73ffffffffffffffffffffffffffffffffffffffff1614610cb5576040517f08c379a0000000000000000000000000000000000000000000000000000000008152600401610cac90612196565b60405180910390fd5b60001515600c60009054906101000a900460ff16151514610d0b576040517f08c379a0000000000000000000000000000000000000000000000000000000008152600401610d02906121b6565b60405180910390fd5b600754600854600954925092509250909192565b6000600c60019054906101000a900473ffffffffffffffffffffffffffffffffffffffff1673ffffffffffffffffffffffffffffffffffffffff16610d6261112d565b73ffffffffffffffffffffffffffffffffffffffff1614610db8576040517f08c379a0000000000000000000000000000000000000000000000000000000008152600401610daf90612196565b60405180910390fd5b60001515600c60009054906101000a900460ff16151514610e0e576040517f08c379a0000000000000000000000000000000000000000000000000000000008152600401610e05906121b6565b60405180910390fd5b600654905090565b600c60019054906101000a900473ffffffffffffffffffffffffffffffffffffffff1673ffffffffffffffffffffffffffffffffffffffff16610e5761112d565b73ffffffffffffffffffffffffffffffffffffffff1614610ead576040517f08c379a0000000000000000000000000000000000000000000000000000000008152600401610ea490612196565b60405180910390fd5b60001515600c60009054906101000a900460ff16151514610f03576040517f08c379a0000000000000000000000000000000000000000000000000000000008152600401610efa90612176565b60405180910390fd5b6001600c60006101000a81548160ff021916908315150217905550565b600c60019054906101000a900473ffffffffffffffffffffffffffffffffffffffff1681565b600c60019054906101000a900473ffffffffffffffffffffffffffffffffffffffff1673ffffffffffffffffffffffffffffffffffffffff16610f8761112d565b73ffffffffffffffffffffffffffffffffffffffff1614610fdd576040517f08c379a0000000000000000000000000000000000000000000000000000000008152600401610fd490612196565b60405180910390fd5b60001515600c60009054906101000a900460ff16151514611033576040517f08c379a000000000000000000000000000000000000000000000000000000000815260040161102a906121b6565b60405180910390fd5b8060068190555050565b606060001515600c60009054906101000a900460ff16151514611095576040517f08c379a000000000000000000000000000000000000000000000000000000000815260040161108c906121b6565b60405180910390fd5b600a60008373ffffffffffffffffffffffffffffffffffffffff1673ffffffffffffffffffffffffffffffffffffffff16815260200190815260200160002060000180548060200260200160405190810160405280929190818152602001828054801561112157602002820191906000526020600020905b81548152602001906001019080831161110d575b50505050509050919050565b600033905090565b6000801515600c60009054906101000a900460ff1615151461118c576040517f08c379a0000000000000000000000000000000000000000000000000000000008152600401611183906121b6565b60405180910390fd5b6000611196611617565b90506000600382601481106111ae576111ad612657565b5b602091828204019190069054906101000a900460ff1660ff1690506000811480156111db57506032600754105b1561124257600760008154809291906111f390612522565b919050555061120360075461165b565b6040516020016112139190611f90565b60405160208183030381529060405260029080519060200190611237929190611a38565b508092505050611424565b6001811115801561125557506064600854105b156112bc576008600081548092919061126d90612522565b919050555061127d60085461165b565b60405160200161128d9190611fb2565b604051602081830303815290604052600290805190602001906112b1929190611a38565b508092505050611424565b600281111580156112d1575061035260095411155b1561135157600960008154809291906112e990612522565b91905055506112f960095461165b565b6040516020016113099190611fd4565b6040516020818303038152906040526002908051906020019061132d929190611a38565b600290805461133b906124bf565b611346929190611abe565b508092505050611424565b606460085410156113c257600190506008600081548092919061137390612522565b919050555061138360085461165b565b6040516020016113939190611fb2565b604051602081830303815290604052600290805190602001906113b7929190611a38565b508092505050611424565b60009050600760008154809291906113d990612522565b91905055506113e960075461165b565b6040516020016113f99190611f90565b6040516020818303038152906040526002908051906020019061141d929190611a38565b5080925050505b90565b600073ffffffffffffffffffffffffffffffffffffffff168473ffffffffffffffffffffffffffffffffffffffff161415611497576040517f08c379a000000000000000000000000000000000000000000000000000000000815260040161148e90612216565b60405180910390fd5b60006114a161112d565b90506114c2816000876114b3886117bc565b6114bc886117bc565b87611836565b8260008086815260200190815260200160002060008773ffffffffffffffffffffffffffffffffffffffff1673ffffffffffffffffffffffffffffffffffffffff1681526020019081526020016000206000828254611521919061234b565b925050819055508473ffffffffffffffffffffffffffffffffffffffff16600073ffffffffffffffffffffffffffffffffffffffff168273ffffffffffffffffffffffffffffffffffffffff167fc3d58168c5ae7397731d063d5bbf3d657854427343f4c083240f7aacaa2d0f62878760405161159f929190612281565b60405180910390a46115b68160008787878761183e565b5050505050565b80600b60008473ffffffffffffffffffffffffffffffffffffffff1673ffffffffffffffffffffffffffffffffffffffff168152602001908152602001600020600082825461160c919061234b565b925050819055505050565b6000806014423360405160200161162f929190611ff6565b6040516020818303038152906040528051906020012060001c6116529190612599565b90508091505090565b606060008214156116a3576040518060400160405280600181526020017f300000000000000000000000000000000000000000000000000000000000000081525090506117b7565b600082905060005b600082146116d55780806116be90612522565b915050600a826116ce91906123a1565b91506116ab565b60008167ffffffffffffffff8111156116f1576116f0612686565b5b6040519080825280601f01601f1916602001820160405280156117235781602001600182028036833780820191505090505b5090505b600085146117b05760018261173c91906123d2565b9150600a8561174b9190612599565b6030611757919061234b565b60f81b81838151811061176d5761176c612657565b5b60200101907effffffffffffffffffffffffffffffffffffffffffffffffffffffffffffff1916908160001a905350600a856117a991906123a1565b9450611727565b8093505050505b919050565b60606000600167ffffffffffffffff8111156117db576117da612686565b5b6040519080825280602002602001820160405280156118095781602001602082028036833780820191505090505b509050828160008151811061182157611820612657565b5b60200260200101818152505080915050919050565b505050505050565b61185d8473ffffffffffffffffffffffffffffffffffffffff16611a25565b15611a1d578373ffffffffffffffffffffffffffffffffffffffff1663ae89a24887878686866040518663ffffffff1660e01b81526004016118a395949392919061203d565b602060405180830381600087803b1580156118bd57600080fd5b505af19250505080156118ee57506040513d601f19601f820116820180604052508101906118eb9190611c16565b60015b611994576118fa6126b5565b806308c379a01415611957575061190f61298e565b8061191a5750611959565b806040517f08c379a000000000000000000000000000000000000000000000000000000000815260040161194e91906120d4565b60405180910390fd5b505b6040517f08c379a000000000000000000000000000000000000000000000000000000000815260040161198b906120f6565b60405180910390fd5b63ae89a24860e01b7bffffffffffffffffffffffffffffffffffffffffffffffffffffffff1916817bffffffffffffffffffffffffffffffffffffffffffffffffffffffff191614611a1b576040517f08c379a0000000000000000000000000000000000000000000000000000000008152600401611a1290612116565b60405180910390fd5b505b505050505050565b600080823b905060008111915050919050565b828054611a44906124bf565b90600052602060002090601f016020900481019282611a665760008555611aad565b82601f10611a7f57805160ff1916838001178555611aad565b82800160010185558215611aad579182015b82811115611aac578251825591602001919060010190611a91565b5b509050611aba9190611b4b565b5090565b828054611aca906124bf565b90600052602060002090601f016020900481019282611aec5760008555611b3a565b82601f10611afd5780548555611b3a565b82800160010185558215611b3a57600052602060002091601f016020900482015b82811115611b39578254825591600101919060010190611b1e565b5b509050611b479190611b4b565b5090565b5b80821115611b64576000816000905550600101611b4c565b5090565b600081359050611b7781612a24565b92915050565b600081359050611b8c81612a3b565b92915050565b600081519050611ba181612a52565b92915050565b600081359050611bb681612a69565b92915050565b600060208284031215611bd257611bd16126d7565b5b6000611be084828501611b68565b91505092915050565b600060208284031215611bff57611bfe6126d7565b5b6000611c0d84828501611b7d565b91505092915050565b600060208284031215611c2c57611c2b6126d7565b5b6000611c3a84828501611b92565b91505092915050565b600060208284031215611c5957611c586126d7565b5b6000611c6784828501611ba7565b91505092915050565b6000611c7c8383611f5b565b60208301905092915050565b611c9181612418565b82525050565b611ca081612406565b82525050565b611cb7611cb282612406565b61256b565b82525050565b6000611cc8826122fb565b611cd2818561231e565b9350611cdd836122eb565b8060005b83811015611d0e578151611cf58882611c70565b9750611d0083612311565b925050600181019050611ce1565b5085935050505092915050565b611d248161242a565b82525050565b6000611d3582612306565b611d3f818561232f565b9350611d4f81856020860161248c565b611d58816126dc565b840191505092915050565b6000611d6e82612306565b611d788185612340565b9350611d8881856020860161248c565b80840191505092915050565b6000611da160348361232f565b9150611dac82612707565b604082019050919050565b6000611dc460288361232f565b9150611dcf82612756565b604082019050919050565b6000611de7600883612340565b9150611df2826127a5565b600882019050919050565b6000611e0a600583612340565b9150611e15826127ce565b600582019050919050565b6000611e2d60128361232f565b9150611e38826127f7565b602082019050919050565b6000611e50601b8361232f565b9150611e5b82612820565b602082019050919050565b6000611e73601b8361232f565b9150611e7e82612849565b602082019050919050565b6000611e96601c8361232f565b9150611ea182612872565b602082019050919050565b6000611eb9601b8361232f565b9150611ec48261289b565b602082019050919050565b6000611edc60198361232f565b9150611ee7826128c4565b602082019050919050565b6000611eff600783612340565b9150611f0a826128ed565b600782019050919050565b6000611f22601d8361232f565b9150611f2d82612916565b602082019050919050565b6000611f4560218361232f565b9150611f508261293f565b604082019050919050565b611f6481612482565b82525050565b611f7381612482565b82525050565b611f8a611f8582612482565b61258f565b82525050565b6000611f9b82611dda565b9150611fa78284611d63565b915081905092915050565b6000611fbd82611dfd565b9150611fc98284611d63565b915081905092915050565b6000611fdf82611ef2565b9150611feb8284611d63565b915081905092915050565b60006120028285611f79565b6020820191506120128284611ca6565b6014820191508190509392505050565b60006020820190506120376000830184611c88565b92915050565b600060a0820190506120526000830188611c97565b61205f6020830187611c97565b61206c6040830186611f6a565b6120796060830185611f6a565b818103608083015261208b8184611d2a565b90509695505050505050565b600060208201905081810360008301526120b18184611cbd565b905092915050565b60006020820190506120ce6000830184611d1b565b92915050565b600060208201905081810360008301526120ee8184611d2a565b905092915050565b6000602082019050818103600083015261210f81611d94565b9050919050565b6000602082019050818103600083015261212f81611db7565b9050919050565b6000602082019050818103600083015261214f81611e20565b9050919050565b6000602082019050818103600083015261216f81611e43565b9050919050565b6000602082019050818103600083015261218f81611e66565b9050919050565b600060208201905081810360008301526121af81611e89565b9050919050565b600060208201905081810360008301526121cf81611eac565b9050919050565b600060208201905081810360008301526121ef81611ecf565b9050919050565b6000602082019050818103600083015261220f81611f15565b9050919050565b6000602082019050818103600083015261222f81611f38565b9050919050565b600060208201905061224b6000830184611f6a565b92915050565b60006040820190506122666000830185611f6a565b81810360208301526122788184611d2a565b90509392505050565b60006040820190506122966000830185611f6a565b6122a36020830184611f6a565b9392505050565b60006060820190506122bf6000830186611f6a565b6122cc6020830185611f6a565b6122d96040830184611f6a565b949350505050565b6000604051905090565b6000819050602082019050919050565b600081519050919050565b600081519050919050565b6000602082019050919050565b600082825260208201905092915050565b600082825260208201905092915050565b600081905092915050565b600061235682612482565b915061236183612482565b9250827fffffffffffffffffffffffffffffffffffffffffffffffffffffffffffffffff03821115612396576123956125ca565b5b828201905092915050565b60006123ac82612482565b91506123b783612482565b9250826123c7576123c66125f9565b5b828204905092915050565b60006123dd82612482565b91506123e883612482565b9250828210156123fb576123fa6125ca565b5b828203905092915050565b600061241182612462565b9050919050565b600061242382612462565b9050919050565b60008115159050919050565b60007fffffffff0000000000000000000000000000000000000000000000000000000082169050919050565b600073ffffffffffffffffffffffffffffffffffffffff82169050919050565b6000819050919050565b60005b838110156124aa57808201518184015260208101905061248f565b838111156124b9576000848401525b50505050565b600060028204905060018216806124d757607f821691505b602082108114156124eb576124ea612628565b5b50919050565b6124fa826126dc565b810181811067ffffffffffffffff8211171561251957612518612686565b5b80604052505050565b600061252d82612482565b91507fffffffffffffffffffffffffffffffffffffffffffffffffffffffffffffffff8214156125605761255f6125ca565b5b600182019050919050565b60006125768261257d565b9050919050565b6000612588826126ed565b9050919050565b6000819050919050565b60006125a482612482565b91506125af83612482565b9250826125bf576125be6125f9565b5b828206905092915050565b7f4e487b7100000000000000000000000000000000000000000000000000000000600052601160045260246000fd5b7f4e487b7100000000000000000000000000000000000000000000000000000000600052601260045260246000fd5b7f4e487b7100000000000000000000000000000000000000000000000000000000600052602260045260246000fd5b7f4e487b7100000000000000000000000000000000000000000000000000000000600052603260045260246000fd5b7f4e487b7100000000000000000000000000000000000000000000000000000000600052604160045260246000fd5b600060033d11156126d45760046000803e6126d16000516126fa565b90505b90565b600080fd5b6000601f19601f8301169050919050565b60008160601b9050919050565b60008160e01c9050919050565b7f455243313135353a207472616e7366657220746f206e6f6e204552433131353560008201527f526563656976657220696d706c656d656e746572000000000000000000000000602082015250565b7f455243313135353a204552433131353552656365697665722072656a6563746560008201527f6420746f6b656e73000000000000000000000000000000000000000000000000602082015250565b7f4469616d6f6e645f000000000000000000000000000000000000000000000000600082015250565b7f476f6c645f000000000000000000000000000000000000000000000000000000600082015250565b7f4e6f7420456e6f7567682042616c616e63650000000000000000000000000000600082015250565b7f44726f707369746520697320616c72656164792052756e6e696e670000000000600082015250565b7f44726f707369746520697320616c72656164792053746f707065640000000000600082015250565b7f4f6e6c79204e46542d4553204f776e65722063616e2041636365737300000000600082015250565b7f44726f7073697465206973206e6f74204f70656e6564205965742e0000000000600082015250565b7f4d6178204d696e74696e67204c696d6974207265616368656400000000000000600082015250565b7f53696c7665725f00000000000000000000000000000000000000000000000000600082015250565b7f4572726f7221204e6f2042616c616e636520746f207769746864726177000000600082015250565b7f455243313135353a206d696e7420746f20746865207a65726f2061646472657360008201527f7300000000000000000000000000000000000000000000000000000000000000602082015250565b600060443d101561299e57612a21565b6129a66122e1565b60043d036004823e80513d602482011167ffffffffffffffff821117156129ce575050612a21565b808201805167ffffffffffffffff8111156129ec5750505050612a21565b80602083010160043d038501811115612a09575050505050612a21565b612a18826020018501866124f1565b82955050505050505b90565b612a2d81612406565b8114612a3857600080fd5b50565b612a4481612418565b8114612a4f57600080fd5b50565b612a5b81612436565b8114612a6657600080fd5b50565b612a7281612482565b8114612a7d57600080fd5b5056fea2646970667358221220db32a21c36b8cf627592726f8797a2720fcd37fef86f9e7b2c1f99f13e87bb0064736f6c63430008070033",
					"opcodes": "PUSH1 0x80 PUSH1 0x40 MSTORE PUSH1 0x40 MLOAD DUP1 PUSH1 0x20 ADD PUSH1 0x40 MSTORE DUP1 PUSH1 0x0 DUP2 MSTORE POP PUSH1 0x2 SWAP1 DUP1 MLOAD SWAP1 PUSH1 0x20 ADD SWAP1 PUSH3 0x2B SWAP3 SWAP2 SWAP1 PUSH3 0x1E8 JUMP JUMPDEST POP PUSH1 0x40 MLOAD DUP1 PUSH2 0x280 ADD PUSH1 0x40 MSTORE DUP1 PUSH1 0x0 PUSH1 0xFF AND DUP2 MSTORE PUSH1 0x20 ADD PUSH1 0x1 PUSH1 0xFF AND DUP2 MSTORE PUSH1 0x20 ADD PUSH1 0x1 PUSH1 0xFF AND DUP2 MSTORE PUSH1 0x20 ADD PUSH1 0x2 PUSH1 0xFF AND DUP2 MSTORE PUSH1 0x20 ADD PUSH1 0x2 PUSH1 0xFF AND DUP2 MSTORE PUSH1 0x20 ADD PUSH1 0x2 PUSH1 0xFF AND DUP2 MSTORE PUSH1 0x20 ADD PUSH1 0x2 PUSH1 0xFF AND DUP2 MSTORE PUSH1 0x20 ADD PUSH1 0x2 PUSH1 0xFF AND DUP2 MSTORE PUSH1 0x20 ADD PUSH1 0x2 PUSH1 0xFF AND DUP2 MSTORE PUSH1 0x20 ADD PUSH1 0x2 PUSH1 0xFF AND DUP2 MSTORE PUSH1 0x20 ADD PUSH1 0x2 PUSH1 0xFF AND DUP2 MSTORE PUSH1 0x20 ADD PUSH1 0x2 PUSH1 0xFF AND DUP2 MSTORE PUSH1 0x20 ADD PUSH1 0x2 PUSH1 0xFF AND DUP2 MSTORE PUSH1 0x20 ADD PUSH1 0x2 PUSH1 0xFF AND DUP2 MSTORE PUSH1 0x20 ADD PUSH1 0x2 PUSH1 0xFF AND DUP2 MSTORE PUSH1 0x20 ADD PUSH1 0x2 PUSH1 0xFF AND DUP2 MSTORE PUSH1 0x20 ADD PUSH1 0x2 PUSH1 0xFF AND DUP2 MSTORE PUSH1 0x20 ADD PUSH1 0x2 PUSH1 0xFF AND DUP2 MSTORE PUSH1 0x20 ADD PUSH1 0x2 PUSH1 0xFF AND DUP2 MSTORE PUSH1 0x20 ADD PUSH1 0x2 PUSH1 0xFF AND DUP2 MSTORE POP PUSH1 0x3 SWAP1 PUSH1 0x14 PUSH3 0x110 SWAP3 SWAP2 SWAP1 PUSH3 0x279 JUMP JUMPDEST POP PUSH1 0x1 PUSH1 0xC PUSH1 0x0 PUSH2 0x100 EXP DUP2 SLOAD DUP2 PUSH1 0xFF MUL NOT AND SWAP1 DUP4 ISZERO ISZERO MUL OR SWAP1 SSTORE POP CALLVALUE DUP1 ISZERO PUSH3 0x139 JUMPI PUSH1 0x0 DUP1 REVERT JUMPDEST POP PUSH1 0x40 MLOAD PUSH3 0x3052 CODESIZE SUB DUP1 PUSH3 0x3052 DUP4 CODECOPY DUP2 DUP2 ADD PUSH1 0x40 MSTORE DUP2 ADD SWAP1 PUSH3 0x15F SWAP2 SWAP1 PUSH3 0x3B7 JUMP JUMPDEST DUP1 PUSH1 0xD SWAP1 DUP1 MLOAD SWAP1 PUSH1 0x20 ADD SWAP1 PUSH3 0x177 SWAP3 SWAP2 SWAP1 PUSH3 0x1E8 JUMP JUMPDEST POP CALLER PUSH1 0xC PUSH1 0x1 PUSH2 0x100 EXP DUP2 SLOAD DUP2 PUSH20 0xFFFFFFFFFFFFFFFFFFFFFFFFFFFFFFFFFFFFFFFF MUL NOT AND SWAP1 DUP4 PUSH20 0xFFFFFFFFFFFFFFFFFFFFFFFFFFFFFFFFFFFFFFFF AND MUL OR SWAP1 SSTORE POP PUSH1 0x0 PUSH1 0x4 DUP2 SWAP1 SSTORE POP PUSH1 0x1 PUSH1 0x5 DUP2 SWAP1 SSTORE POP PUSH1 0x0 PUSH1 0x7 DUP2 SWAP1 SSTORE POP PUSH1 0x0 PUSH1 0x8 DUP2 SWAP1 SSTORE POP PUSH1 0x0 PUSH1 0x9 DUP2 SWAP1 SSTORE POP POP PUSH3 0x58C JUMP JUMPDEST DUP3 DUP1 SLOAD PUSH3 0x1F6 SWAP1 PUSH3 0x49D JUMP JUMPDEST SWAP1 PUSH1 0x0 MSTORE PUSH1 0x20 PUSH1 0x0 KECCAK256 SWAP1 PUSH1 0x1F ADD PUSH1 0x20 SWAP1 DIV DUP2 ADD SWAP3 DUP3 PUSH3 0x21A JUMPI PUSH1 0x0 DUP6 SSTORE PUSH3 0x266 JUMP JUMPDEST DUP3 PUSH1 0x1F LT PUSH3 0x235 JUMPI DUP1 MLOAD PUSH1 0xFF NOT AND DUP4 DUP1 ADD OR DUP6 SSTORE PUSH3 0x266 JUMP JUMPDEST DUP3 DUP1 ADD PUSH1 0x1 ADD DUP6 SSTORE DUP3 ISZERO PUSH3 0x266 JUMPI SWAP2 DUP3 ADD JUMPDEST DUP3 DUP2 GT ISZERO PUSH3 0x265 JUMPI DUP3 MLOAD DUP3 SSTORE SWAP2 PUSH1 0x20 ADD SWAP2 SWAP1 PUSH1 0x1 ADD SWAP1 PUSH3 0x248 JUMP JUMPDEST JUMPDEST POP SWAP1 POP PUSH3 0x275 SWAP2 SWAP1 PUSH3 0x31A JUMP JUMPDEST POP SWAP1 JUMP JUMPDEST DUP3 PUSH1 0x14 PUSH1 0x1F ADD PUSH1 0x20 SWAP1 DIV DUP2 ADD SWAP3 DUP3 ISZERO PUSH3 0x307 JUMPI SWAP2 PUSH1 0x20 MUL DUP3 ADD PUSH1 0x0 JUMPDEST DUP4 DUP3 GT ISZERO PUSH3 0x2D6 JUMPI DUP4 MLOAD DUP4 DUP3 PUSH2 0x100 EXP DUP2 SLOAD DUP2 PUSH1 0xFF MUL NOT AND SWAP1 DUP4 PUSH1 0xFF AND MUL OR SWAP1 SSTORE POP SWAP3 PUSH1 0x20 ADD SWAP3 PUSH1 0x1 ADD PUSH1 0x20 DUP2 PUSH1 0x0 ADD DIV SWAP3 DUP4 ADD SWAP3 PUSH1 0x1 SUB MUL PUSH3 0x296 JUMP JUMPDEST DUP1 ISZERO PUSH3 0x305 JUMPI DUP3 DUP2 PUSH2 0x100 EXP DUP2 SLOAD SWAP1 PUSH1 0xFF MUL NOT AND SWAP1 SSTORE PUSH1 0x1 ADD PUSH1 0x20 DUP2 PUSH1 0x0 ADD DIV SWAP3 DUP4 ADD SWAP3 PUSH1 0x1 SUB MUL PUSH3 0x2D6 JUMP JUMPDEST POP JUMPDEST POP SWAP1 POP PUSH3 0x316 SWAP2 SWAP1 PUSH3 0x31A JUMP JUMPDEST POP SWAP1 JUMP JUMPDEST JUMPDEST DUP1 DUP3 GT ISZERO PUSH3 0x335 JUMPI PUSH1 0x0 DUP2 PUSH1 0x0 SWAP1 SSTORE POP PUSH1 0x1 ADD PUSH3 0x31B JUMP JUMPDEST POP SWAP1 JUMP JUMPDEST PUSH1 0x0 PUSH3 0x350 PUSH3 0x34A DUP5 PUSH3 0x431 JUMP JUMPDEST PUSH3 0x408 JUMP JUMPDEST SWAP1 POP DUP3 DUP2 MSTORE PUSH1 0x20 DUP2 ADD DUP5 DUP5 DUP5 ADD GT ISZERO PUSH3 0x36F JUMPI PUSH3 0x36E PUSH3 0x56C JUMP JUMPDEST JUMPDEST PUSH3 0x37C DUP5 DUP3 DUP6 PUSH3 0x467 JUMP JUMPDEST POP SWAP4 SWAP3 POP POP POP JUMP JUMPDEST PUSH1 0x0 DUP3 PUSH1 0x1F DUP4 ADD SLT PUSH3 0x39C JUMPI PUSH3 0x39B PUSH3 0x567 JUMP JUMPDEST JUMPDEST DUP2 MLOAD PUSH3 0x3AE DUP5 DUP3 PUSH1 0x20 DUP7 ADD PUSH3 0x339 JUMP JUMPDEST SWAP2 POP POP SWAP3 SWAP2 POP POP JUMP JUMPDEST PUSH1 0x0 PUSH1 0x20 DUP3 DUP5 SUB SLT ISZERO PUSH3 0x3D0 JUMPI PUSH3 0x3CF PUSH3 0x576 JUMP JUMPDEST JUMPDEST PUSH1 0x0 DUP3 ADD MLOAD PUSH8 0xFFFFFFFFFFFFFFFF DUP2 GT ISZERO PUSH3 0x3F1 JUMPI PUSH3 0x3F0 PUSH3 0x571 JUMP JUMPDEST JUMPDEST PUSH3 0x3FF DUP5 DUP3 DUP6 ADD PUSH3 0x384 JUMP JUMPDEST SWAP2 POP POP SWAP3 SWAP2 POP POP JUMP JUMPDEST PUSH1 0x0 PUSH3 0x414 PUSH3 0x427 JUMP JUMPDEST SWAP1 POP PUSH3 0x422 DUP3 DUP3 PUSH3 0x4D3 JUMP JUMPDEST SWAP2 SWAP1 POP JUMP JUMPDEST PUSH1 0x0 PUSH1 0x40 MLOAD SWAP1 POP SWAP1 JUMP JUMPDEST PUSH1 0x0 PUSH8 0xFFFFFFFFFFFFFFFF DUP3 GT ISZERO PUSH3 0x44F JUMPI PUSH3 0x44E PUSH3 0x538 JUMP JUMPDEST JUMPDEST PUSH3 0x45A DUP3 PUSH3 0x57B JUMP JUMPDEST SWAP1 POP PUSH1 0x20 DUP2 ADD SWAP1 POP SWAP2 SWAP1 POP JUMP JUMPDEST PUSH1 0x0 JUMPDEST DUP4 DUP2 LT ISZERO PUSH3 0x487 JUMPI DUP1 DUP3 ADD MLOAD DUP2 DUP5 ADD MSTORE PUSH1 0x20 DUP2 ADD SWAP1 POP PUSH3 0x46A JUMP JUMPDEST DUP4 DUP2 GT ISZERO PUSH3 0x497 JUMPI PUSH1 0x0 DUP5 DUP5 ADD MSTORE JUMPDEST POP POP POP POP JUMP JUMPDEST PUSH1 0x0 PUSH1 0x2 DUP3 DIV SWAP1 POP PUSH1 0x1 DUP3 AND DUP1 PUSH3 0x4B6 JUMPI PUSH1 0x7F DUP3 AND SWAP2 POP JUMPDEST PUSH1 0x20 DUP3 LT DUP2 EQ ISZERO PUSH3 0x4CD JUMPI PUSH3 0x4CC PUSH3 0x509 JUMP JUMPDEST JUMPDEST POP SWAP2 SWAP1 POP JUMP JUMPDEST PUSH3 0x4DE DUP3 PUSH3 0x57B JUMP JUMPDEST DUP2 ADD DUP2 DUP2 LT PUSH8 0xFFFFFFFFFFFFFFFF DUP3 GT OR ISZERO PUSH3 0x500 JUMPI PUSH3 0x4FF PUSH3 0x538 JUMP JUMPDEST JUMPDEST DUP1 PUSH1 0x40 MSTORE POP POP POP JUMP JUMPDEST PUSH32 0x4E487B7100000000000000000000000000000000000000000000000000000000 PUSH1 0x0 MSTORE PUSH1 0x22 PUSH1 0x4 MSTORE PUSH1 0x24 PUSH1 0x0 REVERT JUMPDEST PUSH32 0x4E487B7100000000000000000000000000000000000000000000000000000000 PUSH1 0x0 MSTORE PUSH1 0x41 PUSH1 0x4 MSTORE PUSH1 0x24 PUSH1 0x0 REVERT JUMPDEST PUSH1 0x0 DUP1 REVERT JUMPDEST PUSH1 0x0 DUP1 REVERT JUMPDEST PUSH1 0x0 DUP1 REVERT JUMPDEST PUSH1 0x0 DUP1 REVERT JUMPDEST PUSH1 0x0 PUSH1 0x1F NOT PUSH1 0x1F DUP4 ADD AND SWAP1 POP SWAP2 SWAP1 POP JUMP JUMPDEST PUSH2 0x2AB6 DUP1 PUSH3 0x59C PUSH1 0x0 CODECOPY PUSH1 0x0 RETURN INVALID PUSH1 0x80 PUSH1 0x40 MSTORE PUSH1 0x4 CALLDATASIZE LT PUSH2 0xC2 JUMPI PUSH1 0x0 CALLDATALOAD PUSH1 0xE0 SHR DUP1 PUSH4 0x3D65DF70 GT PUSH2 0x7F JUMPI DUP1 PUSH4 0xAA90C726 GT PUSH2 0x59 JUMPI DUP1 PUSH4 0xAA90C726 EQ PUSH2 0x242 JUMPI DUP1 PUSH4 0xB4A99A4E EQ PUSH2 0x259 JUMPI DUP1 PUSH4 0xEDDD0D9C EQ PUSH2 0x284 JUMPI DUP1 PUSH4 0xFD6C3B1B EQ PUSH2 0x2AD JUMPI PUSH2 0xC2 JUMP JUMPDEST DUP1 PUSH4 0x3D65DF70 EQ PUSH2 0x1B9 JUMPI DUP1 PUSH4 0x60DAA851 EQ PUSH2 0x1EA JUMPI DUP1 PUSH4 0x7A5CAAB3 EQ PUSH2 0x217 JUMPI PUSH2 0xC2 JUMP JUMPDEST DUP1 PUSH4 0x390C11C EQ PUSH2 0xC7 JUMPI DUP1 PUSH4 0xA67D2C7 EQ PUSH2 0xF2 JUMPI DUP1 PUSH4 0x1309A563 EQ PUSH2 0x10E JUMPI DUP1 PUSH4 0x15460259 EQ PUSH2 0x139 JUMPI DUP1 PUSH4 0x32B61B4C EQ PUSH2 0x150 JUMPI DUP1 PUSH4 0x3B668059 EQ PUSH2 0x18E JUMPI JUMPDEST PUSH1 0x0 DUP1 REVERT JUMPDEST CALLVALUE DUP1 ISZERO PUSH2 0xD3 JUMPI PUSH1 0x0 DUP1 REVERT JUMPDEST POP PUSH2 0xDC PUSH2 0x2EA JUMP JUMPDEST PUSH1 0x40 MLOAD PUSH2 0xE9 SWAP2 SWAP1 PUSH2 0x2236 JUMP JUMPDEST PUSH1 0x40 MLOAD DUP1 SWAP2 SUB SWAP1 RETURN JUMPDEST PUSH2 0x10C PUSH1 0x4 DUP1 CALLDATASIZE SUB DUP2 ADD SWAP1 PUSH2 0x107 SWAP2 SWAP1 PUSH2 0x1BE9 JUMP JUMPDEST PUSH2 0x38B JUMP JUMPDEST STOP JUMPDEST CALLVALUE DUP1 ISZERO PUSH2 0x11A JUMPI PUSH1 0x0 DUP1 REVERT JUMPDEST POP PUSH2 0x123 PUSH2 0x4B5 JUMP JUMPDEST PUSH1 0x40 MLOAD PUSH2 0x130 SWAP2 SWAP1 PUSH2 0x20B9 JUMP JUMPDEST PUSH1 0x40 MLOAD DUP1 SWAP2 SUB SWAP1 RETURN JUMPDEST CALLVALUE DUP1 ISZERO PUSH2 0x145 JUMPI PUSH1 0x0 DUP1 REVERT JUMPDEST POP PUSH2 0x14E PUSH2 0x4C8 JUMP JUMPDEST STOP JUMPDEST CALLVALUE DUP1 ISZERO PUSH2 0x15C JUMPI PUSH1 0x0 DUP1 REVERT JUMPDEST POP PUSH2 0x177 PUSH1 0x4 DUP1 CALLDATASIZE SUB DUP2 ADD SWAP1 PUSH2 0x172 SWAP2 SWAP1 PUSH2 0x1BBC JUMP JUMPDEST PUSH2 0x5D2 JUMP JUMPDEST PUSH1 0x40 MLOAD PUSH2 0x185 SWAP3 SWAP2 SWAP1 PUSH2 0x2251 JUMP JUMPDEST PUSH1 0x40 MLOAD DUP1 SWAP2 SUB SWAP1 RETURN JUMPDEST CALLVALUE DUP1 ISZERO PUSH2 0x19A JUMPI PUSH1 0x0 DUP1 REVERT JUMPDEST POP PUSH2 0x1A3 PUSH2 0x8C7 JUMP JUMPDEST PUSH1 0x40 MLOAD PUSH2 0x1B0 SWAP2 SWAP1 PUSH2 0x2236 JUMP JUMPDEST PUSH1 0x40 MLOAD DUP1 SWAP2 SUB SWAP1 RETURN JUMPDEST PUSH2 0x1D3 PUSH1 0x4 DUP1 CALLDATASIZE SUB DUP2 ADD SWAP1 PUSH2 0x1CE SWAP2 SWAP1 PUSH2 0x1BBC JUMP JUMPDEST PUSH2 0x966 JUMP JUMPDEST PUSH1 0x40 MLOAD PUSH2 0x1E1 SWAP3 SWAP2 SWAP1 PUSH2 0x2251 JUMP JUMPDEST PUSH1 0x40 MLOAD DUP1 SWAP2 SUB SWAP1 RETURN JUMPDEST CALLVALUE DUP1 ISZERO PUSH2 0x1F6 JUMPI PUSH1 0x0 DUP1 REVERT JUMPDEST POP PUSH2 0x1FF PUSH2 0xC19 JUMP JUMPDEST PUSH1 0x40 MLOAD PUSH2 0x20E SWAP4 SWAP3 SWAP2 SWAP1 PUSH2 0x22AA JUMP JUMPDEST PUSH1 0x40 MLOAD DUP1 SWAP2 SUB SWAP1 RETURN JUMPDEST CALLVALUE DUP1 ISZERO PUSH2 0x223 JUMPI PUSH1 0x0 DUP1 REVERT JUMPDEST POP PUSH2 0x22C PUSH2 0xD1F JUMP JUMPDEST PUSH1 0x40 MLOAD PUSH2 0x239 SWAP2 SWAP1 PUSH2 0x2236 JUMP JUMPDEST PUSH1 0x40 MLOAD DUP1 SWAP2 SUB SWAP1 RETURN JUMPDEST CALLVALUE DUP1 ISZERO PUSH2 0x24E JUMPI PUSH1 0x0 DUP1 REVERT JUMPDEST POP PUSH2 0x257 PUSH2 0xE16 JUMP JUMPDEST STOP JUMPDEST CALLVALUE DUP1 ISZERO PUSH2 0x265 JUMPI PUSH1 0x0 DUP1 REVERT JUMPDEST POP PUSH2 0x26E PUSH2 0xF20 JUMP JUMPDEST PUSH1 0x40 MLOAD PUSH2 0x27B SWAP2 SWAP1 PUSH2 0x2022 JUMP JUMPDEST PUSH1 0x40 MLOAD DUP1 SWAP2 SUB SWAP1 RETURN JUMPDEST CALLVALUE DUP1 ISZERO PUSH2 0x290 JUMPI PUSH1 0x0 DUP1 REVERT JUMPDEST POP PUSH2 0x2AB PUSH1 0x4 DUP1 CALLDATASIZE SUB DUP2 ADD SWAP1 PUSH2 0x2A6 SWAP2 SWAP1 PUSH2 0x1C43 JUMP JUMPDEST PUSH2 0xF46 JUMP JUMPDEST STOP JUMPDEST CALLVALUE DUP1 ISZERO PUSH2 0x2B9 JUMPI PUSH1 0x0 DUP1 REVERT JUMPDEST POP PUSH2 0x2D4 PUSH1 0x4 DUP1 CALLDATASIZE SUB DUP2 ADD SWAP1 PUSH2 0x2CF SWAP2 SWAP1 PUSH2 0x1BBC JUMP JUMPDEST PUSH2 0x103D JUMP JUMPDEST PUSH1 0x40 MLOAD PUSH2 0x2E1 SWAP2 SWAP1 PUSH2 0x2097 JUMP JUMPDEST PUSH1 0x40 MLOAD DUP1 SWAP2 SUB SWAP1 RETURN JUMPDEST PUSH1 0x0 PUSH1 0xC PUSH1 0x1 SWAP1 SLOAD SWAP1 PUSH2 0x100 EXP SWAP1 DIV PUSH20 0xFFFFFFFFFFFFFFFFFFFFFFFFFFFFFFFFFFFFFFFF AND PUSH20 0xFFFFFFFFFFFFFFFFFFFFFFFFFFFFFFFFFFFFFFFF AND PUSH2 0x32D PUSH2 0x112D JUMP JUMPDEST PUSH20 0xFFFFFFFFFFFFFFFFFFFFFFFFFFFFFFFFFFFFFFFF AND EQ PUSH2 0x383 JUMPI PUSH1 0x40 MLOAD PUSH32 0x8C379A000000000000000000000000000000000000000000000000000000000 DUP2 MSTORE PUSH1 0x4 ADD PUSH2 0x37A SWAP1 PUSH2 0x2196 JUMP JUMPDEST PUSH1 0x40 MLOAD DUP1 SWAP2 SUB SWAP1 REVERT JUMPDEST PUSH1 0x4 SLOAD SWAP1 POP SWAP1 JUMP JUMPDEST PUSH1 0xC PUSH1 0x1 SWAP1 SLOAD SWAP1 PUSH2 0x100 EXP SWAP1 DIV PUSH20 0xFFFFFFFFFFFFFFFFFFFFFFFFFFFFFFFFFFFFFFFF AND PUSH20 0xFFFFFFFFFFFFFFFFFFFFFFFFFFFFFFFFFFFFFFFF AND PUSH2 0x3CC PUSH2 0x112D JUMP JUMPDEST PUSH20 0xFFFFFFFFFFFFFFFFFFFFFFFFFFFFFFFFFFFFFFFF AND EQ PUSH2 0x422 JUMPI PUSH1 0x40 MLOAD PUSH32 0x8C379A000000000000000000000000000000000000000000000000000000000 DUP2 MSTORE PUSH1 0x4 ADD PUSH2 0x419 SWAP1 PUSH2 0x2196 JUMP JUMPDEST PUSH1 0x40 MLOAD DUP1 SWAP2 SUB SWAP1 REVERT JUMPDEST PUSH1 0x0 SELFBALANCE SWAP1 POP PUSH1 0x0 DUP2 GT PUSH2 0x46A JUMPI PUSH1 0x40 MLOAD PUSH32 0x8C379A000000000000000000000000000000000000000000000000000000000 DUP2 MSTORE PUSH1 0x4 ADD PUSH2 0x461 SWAP1 PUSH2 0x21F6 JUMP JUMPDEST PUSH1 0x40 MLOAD DUP1 SWAP2 SUB SWAP1 REVERT JUMPDEST DUP2 PUSH20 0xFFFFFFFFFFFFFFFFFFFFFFFFFFFFFFFFFFFFFFFF AND PUSH2 0x8FC DUP3 SWAP1 DUP2 ISZERO MUL SWAP1 PUSH1 0x40 MLOAD PUSH1 0x0 PUSH1 0x40 MLOAD DUP1 DUP4 SUB DUP2 DUP6 DUP9 DUP9 CALL SWAP4 POP POP POP POP ISZERO DUP1 ISZERO PUSH2 0x4B0 JUMPI RETURNDATASIZE PUSH1 0x0 DUP1 RETURNDATACOPY RETURNDATASIZE PUSH1 0x0 REVERT JUMPDEST POP POP POP JUMP JUMPDEST PUSH1 0xC PUSH1 0x0 SWAP1 SLOAD SWAP1 PUSH2 0x100 EXP SWAP1 DIV PUSH1 0xFF AND DUP2 JUMP JUMPDEST PUSH1 0xC PUSH1 0x1 SWAP1 SLOAD SWAP1 PUSH2 0x100 EXP SWAP1 DIV PUSH20 0xFFFFFFFFFFFFFFFFFFFFFFFFFFFFFFFFFFFFFFFF AND PUSH20 0xFFFFFFFFFFFFFFFFFFFFFFFFFFFFFFFFFFFFFFFF AND PUSH2 0x509 PUSH2 0x112D JUMP JUMPDEST PUSH20 0xFFFFFFFFFFFFFFFFFFFFFFFFFFFFFFFFFFFFFFFF AND EQ PUSH2 0x55F JUMPI PUSH1 0x40 MLOAD PUSH32 0x8C379A000000000000000000000000000000000000000000000000000000000 DUP2 MSTORE PUSH1 0x4 ADD PUSH2 0x556 SWAP1 PUSH2 0x2196 JUMP JUMPDEST PUSH1 0x40 MLOAD DUP1 SWAP2 SUB SWAP1 REVERT JUMPDEST PUSH1 0x1 ISZERO ISZERO PUSH1 0xC PUSH1 0x0 SWAP1 SLOAD SWAP1 PUSH2 0x100 EXP SWAP1 DIV PUSH1 0xFF AND ISZERO ISZERO EQ PUSH2 0x5B5 JUMPI PUSH1 0x40 MLOAD PUSH32 0x8C379A000000000000000000000000000000000000000000000000000000000 DUP2 MSTORE PUSH1 0x4 ADD PUSH2 0x5AC SWAP1 PUSH2 0x2156 JUMP JUMPDEST PUSH1 0x40 MLOAD DUP1 SWAP2 SUB SWAP1 REVERT JUMPDEST PUSH1 0x0 PUSH1 0xC PUSH1 0x0 PUSH2 0x100 EXP DUP2 SLOAD DUP2 PUSH1 0xFF MUL NOT AND SWAP1 DUP4 ISZERO ISZERO MUL OR SWAP1 SSTORE POP JUMP JUMPDEST PUSH1 0x0 PUSH1 0x60 PUSH1 0xC PUSH1 0x1 SWAP1 SLOAD SWAP1 PUSH2 0x100 EXP SWAP1 DIV PUSH20 0xFFFFFFFFFFFFFFFFFFFFFFFFFFFFFFFFFFFFFFFF AND PUSH20 0xFFFFFFFFFFFFFFFFFFFFFFFFFFFFFFFFFFFFFFFF AND PUSH2 0x617 PUSH2 0x112D JUMP JUMPDEST PUSH20 0xFFFFFFFFFFFFFFFFFFFFFFFFFFFFFFFFFFFFFFFF AND EQ PUSH2 0x66D JUMPI PUSH1 0x40 MLOAD PUSH32 0x8C379A000000000000000000000000000000000000000000000000000000000 DUP2 MSTORE PUSH1 0x4 ADD PUSH2 0x664 SWAP1 PUSH2 0x2196 JUMP JUMPDEST PUSH1 0x40 MLOAD DUP1 SWAP2 SUB SWAP1 REVERT JUMPDEST PUSH1 0x0 ISZERO ISZERO PUSH1 0xC PUSH1 0x0 SWAP1 SLOAD SWAP1 PUSH2 0x100 EXP SWAP1 DIV PUSH1 0xFF AND ISZERO ISZERO EQ PUSH2 0x6C3 JUMPI PUSH1 0x40 MLOAD PUSH32 0x8C379A000000000000000000000000000000000000000000000000000000000 DUP2 MSTORE PUSH1 0x4 ADD PUSH2 0x6BA SWAP1 PUSH2 0x21B6 JUMP JUMPDEST PUSH1 0x40 MLOAD DUP1 SWAP2 SUB SWAP1 REVERT JUMPDEST PUSH2 0x3E8 PUSH1 0x4 SLOAD LT PUSH2 0x709 JUMPI PUSH1 0x40 MLOAD PUSH32 0x8C379A000000000000000000000000000000000000000000000000000000000 DUP2 MSTORE PUSH1 0x4 ADD PUSH2 0x700 SWAP1 PUSH2 0x21D6 JUMP JUMPDEST PUSH1 0x40 MLOAD DUP1 SWAP2 SUB SWAP1 REVERT JUMPDEST PUSH1 0x0 PUSH2 0x713 PUSH2 0x1135 JUMP JUMPDEST SWAP1 POP PUSH2 0x7AD DUP5 DUP3 PUSH1 0x5 SLOAD PUSH1 0x2 DUP1 SLOAD PUSH2 0x72A SWAP1 PUSH2 0x24BF JUMP JUMPDEST DUP1 PUSH1 0x1F ADD PUSH1 0x20 DUP1 SWAP2 DIV MUL PUSH1 0x20 ADD PUSH1 0x40 MLOAD SWAP1 DUP2 ADD PUSH1 0x40 MSTORE DUP1 SWAP3 SWAP2 SWAP1 DUP2 DUP2 MSTORE PUSH1 0x20 ADD DUP3 DUP1 SLOAD PUSH2 0x756 SWAP1 PUSH2 0x24BF JUMP JUMPDEST DUP1 ISZERO PUSH2 0x7A3 JUMPI DUP1 PUSH1 0x1F LT PUSH2 0x778 JUMPI PUSH2 0x100 DUP1 DUP4 SLOAD DIV MUL DUP4 MSTORE SWAP2 PUSH1 0x20 ADD SWAP2 PUSH2 0x7A3 JUMP JUMPDEST DUP3 ADD SWAP2 SWAP1 PUSH1 0x0 MSTORE PUSH1 0x20 PUSH1 0x0 KECCAK256 SWAP1 JUMPDEST DUP2 SLOAD DUP2 MSTORE SWAP1 PUSH1 0x1 ADD SWAP1 PUSH1 0x20 ADD DUP1 DUP4 GT PUSH2 0x786 JUMPI DUP3 SWAP1 SUB PUSH1 0x1F AND DUP3 ADD SWAP2 JUMPDEST POP POP POP POP POP PUSH2 0x1427 JUMP JUMPDEST PUSH1 0x4 PUSH1 0x0 DUP2 SLOAD DUP1 SWAP3 SWAP2 SWAP1 PUSH2 0x7C0 SWAP1 PUSH2 0x2522 JUMP JUMPDEST SWAP2 SWAP1 POP SSTORE POP PUSH1 0xA PUSH1 0x0 DUP6 PUSH20 0xFFFFFFFFFFFFFFFFFFFFFFFFFFFFFFFFFFFFFFFF AND PUSH20 0xFFFFFFFFFFFFFFFFFFFFFFFFFFFFFFFFFFFFFFFF AND DUP2 MSTORE PUSH1 0x20 ADD SWAP1 DUP2 MSTORE PUSH1 0x20 ADD PUSH1 0x0 KECCAK256 PUSH1 0x0 ADD DUP2 SWAP1 DUP1 PUSH1 0x1 DUP2 SLOAD ADD DUP1 DUP3 SSTORE DUP1 SWAP2 POP POP PUSH1 0x1 SWAP1 SUB SWAP1 PUSH1 0x0 MSTORE PUSH1 0x20 PUSH1 0x0 KECCAK256 ADD PUSH1 0x0 SWAP1 SWAP2 SWAP1 SWAP2 SWAP1 SWAP2 POP SSTORE DUP1 PUSH1 0x2 DUP1 DUP1 SLOAD PUSH2 0x83D SWAP1 PUSH2 0x24BF JUMP JUMPDEST DUP1 PUSH1 0x1F ADD PUSH1 0x20 DUP1 SWAP2 DIV MUL PUSH1 0x20 ADD PUSH1 0x40 MLOAD SWAP1 DUP2 ADD PUSH1 0x40 MSTORE DUP1 SWAP3 SWAP2 SWAP1 DUP2 DUP2 MSTORE PUSH1 0x20 ADD DUP3 DUP1 SLOAD PUSH2 0x869 SWAP1 PUSH2 0x24BF JUMP JUMPDEST DUP1 ISZERO PUSH2 0x8B6 JUMPI DUP1 PUSH1 0x1F LT PUSH2 0x88B JUMPI PUSH2 0x100 DUP1 DUP4 SLOAD DIV MUL DUP4 MSTORE SWAP2 PUSH1 0x20 ADD SWAP2 PUSH2 0x8B6 JUMP JUMPDEST DUP3 ADD SWAP2 SWAP1 PUSH1 0x0 MSTORE PUSH1 0x20 PUSH1 0x0 KECCAK256 SWAP1 JUMPDEST DUP2 SLOAD DUP2 MSTORE SWAP1 PUSH1 0x1 ADD SWAP1 PUSH1 0x20 ADD DUP1 DUP4 GT PUSH2 0x899 JUMPI DUP3 SWAP1 SUB PUSH1 0x1F AND DUP3 ADD SWAP2 JUMPDEST POP POP POP POP POP SWAP1 POP SWAP3 POP SWAP3 POP POP SWAP2 POP SWAP2 JUMP JUMPDEST PUSH1 0x0 PUSH1 0xC PUSH1 0x1 SWAP1 SLOAD SWAP1 PUSH2 0x100 EXP SWAP1 DIV PUSH20 0xFFFFFFFFFFFFFFFFFFFFFFFFFFFFFFFFFFFFFFFF AND PUSH20 0xFFFFFFFFFFFFFFFFFFFFFFFFFFFFFFFFFFFFFFFF AND PUSH2 0x90A PUSH2 0x112D JUMP JUMPDEST PUSH20 0xFFFFFFFFFFFFFFFFFFFFFFFFFFFFFFFFFFFFFFFF AND EQ PUSH2 0x960 JUMPI PUSH1 0x40 MLOAD PUSH32 0x8C379A000000000000000000000000000000000000000000000000000000000 DUP2 MSTORE PUSH1 0x4 ADD PUSH2 0x957 SWAP1 PUSH2 0x2196 JUMP JUMPDEST PUSH1 0x40 MLOAD DUP1 SWAP2 SUB SWAP1 REVERT JUMPDEST SELFBALANCE SWAP1 POP SWAP1 JUMP JUMPDEST PUSH1 0x0 PUSH1 0x60 PUSH1 0x0 ISZERO ISZERO PUSH1 0xC PUSH1 0x0 SWAP1 SLOAD SWAP1 PUSH2 0x100 EXP SWAP1 DIV PUSH1 0xFF AND ISZERO ISZERO EQ PUSH2 0x9C0 JUMPI PUSH1 0x40 MLOAD PUSH32 0x8C379A000000000000000000000000000000000000000000000000000000000 DUP2 MSTORE PUSH1 0x4 ADD PUSH2 0x9B7 SWAP1 PUSH2 0x21B6 JUMP JUMPDEST PUSH1 0x40 MLOAD DUP1 SWAP2 SUB SWAP1 REVERT JUMPDEST PUSH2 0x3E8 PUSH1 0x4 SLOAD LT PUSH2 0xA06 JUMPI PUSH1 0x40 MLOAD PUSH32 0x8C379A000000000000000000000000000000000000000000000000000000000 DUP2 MSTORE PUSH1 0x4 ADD PUSH2 0x9FD SWAP1 PUSH2 0x21D6 JUMP JUMPDEST PUSH1 0x40 MLOAD DUP1 SWAP2 SUB SWAP1 REVERT JUMPDEST PUSH1 0x6 SLOAD CALLVALUE EQ PUSH2 0xA4A JUMPI PUSH1 0x40 MLOAD PUSH32 0x8C379A000000000000000000000000000000000000000000000000000000000 DUP2 MSTORE PUSH1 0x4 ADD PUSH2 0xA41 SWAP1 PUSH2 0x2136 JUMP JUMPDEST PUSH1 0x40 MLOAD DUP1 SWAP2 SUB SWAP1 REVERT JUMPDEST PUSH1 0x0 PUSH2 0xA54 PUSH2 0x1135 JUMP JUMPDEST SWAP1 POP PUSH2 0xAEE DUP5 DUP3 PUSH1 0x5 SLOAD PUSH1 0x2 DUP1 SLOAD PUSH2 0xA6B SWAP1 PUSH2 0x24BF JUMP JUMPDEST DUP1 PUSH1 0x1F ADD PUSH1 0x20 DUP1 SWAP2 DIV MUL PUSH1 0x20 ADD PUSH1 0x40 MLOAD SWAP1 DUP2 ADD PUSH1 0x40 MSTORE DUP1 SWAP3 SWAP2 SWAP1 DUP2 DUP2 MSTORE PUSH1 0x20 ADD DUP3 DUP1 SLOAD PUSH2 0xA97 SWAP1 PUSH2 0x24BF JUMP JUMPDEST DUP1 ISZERO PUSH2 0xAE4 JUMPI DUP1 PUSH1 0x1F LT PUSH2 0xAB9 JUMPI PUSH2 0x100 DUP1 DUP4 SLOAD DIV MUL DUP4 MSTORE SWAP2 PUSH1 0x20 ADD SWAP2 PUSH2 0xAE4 JUMP JUMPDEST DUP3 ADD SWAP2 SWAP1 PUSH1 0x0 MSTORE PUSH1 0x20 PUSH1 0x0 KECCAK256 SWAP1 JUMPDEST DUP2 SLOAD DUP2 MSTORE SWAP1 PUSH1 0x1 ADD SWAP1 PUSH1 0x20 ADD DUP1 DUP4 GT PUSH2 0xAC7 JUMPI DUP3 SWAP1 SUB PUSH1 0x1F AND DUP3 ADD SWAP2 JUMPDEST POP POP POP POP POP PUSH2 0x1427 JUMP JUMPDEST PUSH2 0xAFF PUSH2 0xAF9 PUSH2 0x112D JUMP JUMPDEST CALLVALUE PUSH2 0x15BD JUMP JUMPDEST PUSH1 0x4 PUSH1 0x0 DUP2 SLOAD DUP1 SWAP3 SWAP2 SWAP1 PUSH2 0xB12 SWAP1 PUSH2 0x2522 JUMP JUMPDEST SWAP2 SWAP1 POP SSTORE POP PUSH1 0xA PUSH1 0x0 DUP6 PUSH20 0xFFFFFFFFFFFFFFFFFFFFFFFFFFFFFFFFFFFFFFFF AND PUSH20 0xFFFFFFFFFFFFFFFFFFFFFFFFFFFFFFFFFFFFFFFF AND DUP2 MSTORE PUSH1 0x20 ADD SWAP1 DUP2 MSTORE PUSH1 0x20 ADD PUSH1 0x0 KECCAK256 PUSH1 0x0 ADD DUP2 SWAP1 DUP1 PUSH1 0x1 DUP2 SLOAD ADD DUP1 DUP3 SSTORE DUP1 SWAP2 POP POP PUSH1 0x1 SWAP1 SUB SWAP1 PUSH1 0x0 MSTORE PUSH1 0x20 PUSH1 0x0 KECCAK256 ADD PUSH1 0x0 SWAP1 SWAP2 SWAP1 SWAP2 SWAP1 SWAP2 POP SSTORE DUP1 PUSH1 0x2 DUP1 DUP1 SLOAD PUSH2 0xB8F SWAP1 PUSH2 0x24BF JUMP JUMPDEST DUP1 PUSH1 0x1F ADD PUSH1 0x20 DUP1 SWAP2 DIV MUL PUSH1 0x20 ADD PUSH1 0x40 MLOAD SWAP1 DUP2 ADD PUSH1 0x40 MSTORE DUP1 SWAP3 SWAP2 SWAP1 DUP2 DUP2 MSTORE PUSH1 0x20 ADD DUP3 DUP1 SLOAD PUSH2 0xBBB SWAP1 PUSH2 0x24BF JUMP JUMPDEST DUP1 ISZERO PUSH2 0xC08 JUMPI DUP1 PUSH1 0x1F LT PUSH2 0xBDD JUMPI PUSH2 0x100 DUP1 DUP4 SLOAD DIV MUL DUP4 MSTORE SWAP2 PUSH1 0x20 ADD SWAP2 PUSH2 0xC08 JUMP JUMPDEST DUP3 ADD SWAP2 SWAP1 PUSH1 0x0 MSTORE PUSH1 0x20 PUSH1 0x0 KECCAK256 SWAP1 JUMPDEST DUP2 SLOAD DUP2 MSTORE SWAP1 PUSH1 0x1 ADD SWAP1 PUSH1 0x20 ADD DUP1 DUP4 GT PUSH2 0xBEB JUMPI DUP3 SWAP1 SUB PUSH1 0x1F AND DUP3 ADD SWAP2 JUMPDEST POP POP POP POP POP SWAP1 POP SWAP3 POP SWAP3 POP POP SWAP2 POP SWAP2 JUMP JUMPDEST PUSH1 0x0 DUP1 PUSH1 0x0 PUSH1 0xC PUSH1 0x1 SWAP1 SLOAD SWAP1 PUSH2 0x100 EXP SWAP1 DIV PUSH20 0xFFFFFFFFFFFFFFFFFFFFFFFFFFFFFFFFFFFFFFFF AND PUSH20 0xFFFFFFFFFFFFFFFFFFFFFFFFFFFFFFFFFFFFFFFF AND PUSH2 0xC5F PUSH2 0x112D JUMP JUMPDEST PUSH20 0xFFFFFFFFFFFFFFFFFFFFFFFFFFFFFFFFFFFFFFFF AND EQ PUSH2 0xCB5 JUMPI PUSH1 0x40 MLOAD PUSH32 0x8C379A000000000000000000000000000000000000000000000000000000000 DUP2 MSTORE PUSH1 0x4 ADD PUSH2 0xCAC SWAP1 PUSH2 0x2196 JUMP JUMPDEST PUSH1 0x40 MLOAD DUP1 SWAP2 SUB SWAP1 REVERT JUMPDEST PUSH1 0x0 ISZERO ISZERO PUSH1 0xC PUSH1 0x0 SWAP1 SLOAD SWAP1 PUSH2 0x100 EXP SWAP1 DIV PUSH1 0xFF AND ISZERO ISZERO EQ PUSH2 0xD0B JUMPI PUSH1 0x40 MLOAD PUSH32 0x8C379A000000000000000000000000000000000000000000000000000000000 DUP2 MSTORE PUSH1 0x4 ADD PUSH2 0xD02 SWAP1 PUSH2 0x21B6 JUMP JUMPDEST PUSH1 0x40 MLOAD DUP1 SWAP2 SUB SWAP1 REVERT JUMPDEST PUSH1 0x7 SLOAD PUSH1 0x8 SLOAD PUSH1 0x9 SLOAD SWAP3 POP SWAP3 POP SWAP3 POP SWAP1 SWAP2 SWAP3 JUMP JUMPDEST PUSH1 0x0 PUSH1 0xC PUSH1 0x1 SWAP1 SLOAD SWAP1 PUSH2 0x100 EXP SWAP1 DIV PUSH20 0xFFFFFFFFFFFFFFFFFFFFFFFFFFFFFFFFFFFFFFFF AND PUSH20 0xFFFFFFFFFFFFFFFFFFFFFFFFFFFFFFFFFFFFFFFF AND PUSH2 0xD62 PUSH2 0x112D JUMP JUMPDEST PUSH20 0xFFFFFFFFFFFFFFFFFFFFFFFFFFFFFFFFFFFFFFFF AND EQ PUSH2 0xDB8 JUMPI PUSH1 0x40 MLOAD PUSH32 0x8C379A000000000000000000000000000000000000000000000000000000000 DUP2 MSTORE PUSH1 0x4 ADD PUSH2 0xDAF SWAP1 PUSH2 0x2196 JUMP JUMPDEST PUSH1 0x40 MLOAD DUP1 SWAP2 SUB SWAP1 REVERT JUMPDEST PUSH1 0x0 ISZERO ISZERO PUSH1 0xC PUSH1 0x0 SWAP1 SLOAD SWAP1 PUSH2 0x100 EXP SWAP1 DIV PUSH1 0xFF AND ISZERO ISZERO EQ PUSH2 0xE0E JUMPI PUSH1 0x40 MLOAD PUSH32 0x8C379A000000000000000000000000000000000000000000000000000000000 DUP2 MSTORE PUSH1 0x4 ADD PUSH2 0xE05 SWAP1 PUSH2 0x21B6 JUMP JUMPDEST PUSH1 0x40 MLOAD DUP1 SWAP2 SUB SWAP1 REVERT JUMPDEST PUSH1 0x6 SLOAD SWAP1 POP SWAP1 JUMP JUMPDEST PUSH1 0xC PUSH1 0x1 SWAP1 SLOAD SWAP1 PUSH2 0x100 EXP SWAP1 DIV PUSH20 0xFFFFFFFFFFFFFFFFFFFFFFFFFFFFFFFFFFFFFFFF AND PUSH20 0xFFFFFFFFFFFFFFFFFFFFFFFFFFFFFFFFFFFFFFFF AND PUSH2 0xE57 PUSH2 0x112D JUMP JUMPDEST PUSH20 0xFFFFFFFFFFFFFFFFFFFFFFFFFFFFFFFFFFFFFFFF AND EQ PUSH2 0xEAD JUMPI PUSH1 0x40 MLOAD PUSH32 0x8C379A000000000000000000000000000000000000000000000000000000000 DUP2 MSTORE PUSH1 0x4 ADD PUSH2 0xEA4 SWAP1 PUSH2 0x2196 JUMP JUMPDEST PUSH1 0x40 MLOAD DUP1 SWAP2 SUB SWAP1 REVERT JUMPDEST PUSH1 0x0 ISZERO ISZERO PUSH1 0xC PUSH1 0x0 SWAP1 SLOAD SWAP1 PUSH2 0x100 EXP SWAP1 DIV PUSH1 0xFF AND ISZERO ISZERO EQ PUSH2 0xF03 JUMPI PUSH1 0x40 MLOAD PUSH32 0x8C379A000000000000000000000000000000000000000000000000000000000 DUP2 MSTORE PUSH1 0x4 ADD PUSH2 0xEFA SWAP1 PUSH2 0x2176 JUMP JUMPDEST PUSH1 0x40 MLOAD DUP1 SWAP2 SUB SWAP1 REVERT JUMPDEST PUSH1 0x1 PUSH1 0xC PUSH1 0x0 PUSH2 0x100 EXP DUP2 SLOAD DUP2 PUSH1 0xFF MUL NOT AND SWAP1 DUP4 ISZERO ISZERO MUL OR SWAP1 SSTORE POP JUMP JUMPDEST PUSH1 0xC PUSH1 0x1 SWAP1 SLOAD SWAP1 PUSH2 0x100 EXP SWAP1 DIV PUSH20 0xFFFFFFFFFFFFFFFFFFFFFFFFFFFFFFFFFFFFFFFF AND DUP2 JUMP JUMPDEST PUSH1 0xC PUSH1 0x1 SWAP1 SLOAD SWAP1 PUSH2 0x100 EXP SWAP1 DIV PUSH20 0xFFFFFFFFFFFFFFFFFFFFFFFFFFFFFFFFFFFFFFFF AND PUSH20 0xFFFFFFFFFFFFFFFFFFFFFFFFFFFFFFFFFFFFFFFF AND PUSH2 0xF87 PUSH2 0x112D JUMP JUMPDEST PUSH20 0xFFFFFFFFFFFFFFFFFFFFFFFFFFFFFFFFFFFFFFFF AND EQ PUSH2 0xFDD JUMPI PUSH1 0x40 MLOAD PUSH32 0x8C379A000000000000000000000000000000000000000000000000000000000 DUP2 MSTORE PUSH1 0x4 ADD PUSH2 0xFD4 SWAP1 PUSH2 0x2196 JUMP JUMPDEST PUSH1 0x40 MLOAD DUP1 SWAP2 SUB SWAP1 REVERT JUMPDEST PUSH1 0x0 ISZERO ISZERO PUSH1 0xC PUSH1 0x0 SWAP1 SLOAD SWAP1 PUSH2 0x100 EXP SWAP1 DIV PUSH1 0xFF AND ISZERO ISZERO EQ PUSH2 0x1033 JUMPI PUSH1 0x40 MLOAD PUSH32 0x8C379A000000000000000000000000000000000000000000000000000000000 DUP2 MSTORE PUSH1 0x4 ADD PUSH2 0x102A SWAP1 PUSH2 0x21B6 JUMP JUMPDEST PUSH1 0x40 MLOAD DUP1 SWAP2 SUB SWAP1 REVERT JUMPDEST DUP1 PUSH1 0x6 DUP2 SWAP1 SSTORE POP POP JUMP JUMPDEST PUSH1 0x60 PUSH1 0x0 ISZERO ISZERO PUSH1 0xC PUSH1 0x0 SWAP1 SLOAD SWAP1 PUSH2 0x100 EXP SWAP1 DIV PUSH1 0xFF AND ISZERO ISZERO EQ PUSH2 0x1095 JUMPI PUSH1 0x40 MLOAD PUSH32 0x8C379A000000000000000000000000000000000000000000000000000000000 DUP2 MSTORE PUSH1 0x4 ADD PUSH2 0x108C SWAP1 PUSH2 0x21B6 JUMP JUMPDEST PUSH1 0x40 MLOAD DUP1 SWAP2 SUB SWAP1 REVERT JUMPDEST PUSH1 0xA PUSH1 0x0 DUP4 PUSH20 0xFFFFFFFFFFFFFFFFFFFFFFFFFFFFFFFFFFFFFFFF AND PUSH20 0xFFFFFFFFFFFFFFFFFFFFFFFFFFFFFFFFFFFFFFFF AND DUP2 MSTORE PUSH1 0x20 ADD SWAP1 DUP2 MSTORE PUSH1 0x20 ADD PUSH1 0x0 KECCAK256 PUSH1 0x0 ADD DUP1 SLOAD DUP1 PUSH1 0x20 MUL PUSH1 0x20 ADD PUSH1 0x40 MLOAD SWAP1 DUP2 ADD PUSH1 0x40 MSTORE DUP1 SWAP3 SWAP2 SWAP1 DUP2 DUP2 MSTORE PUSH1 0x20 ADD DUP3 DUP1 SLOAD DUP1 ISZERO PUSH2 0x1121 JUMPI PUSH1 0x20 MUL DUP3 ADD SWAP2 SWAP1 PUSH1 0x0 MSTORE PUSH1 0x20 PUSH1 0x0 KECCAK256 SWAP1 JUMPDEST DUP2 SLOAD DUP2 MSTORE PUSH1 0x20 ADD SWAP1 PUSH1 0x1 ADD SWAP1 DUP1 DUP4 GT PUSH2 0x110D JUMPI JUMPDEST POP POP POP POP POP SWAP1 POP SWAP2 SWAP1 POP JUMP JUMPDEST PUSH1 0x0 CALLER SWAP1 POP SWAP1 JUMP JUMPDEST PUSH1 0x0 DUP1 ISZERO ISZERO PUSH1 0xC PUSH1 0x0 SWAP1 SLOAD SWAP1 PUSH2 0x100 EXP SWAP1 DIV PUSH1 0xFF AND ISZERO ISZERO EQ PUSH2 0x118C JUMPI PUSH1 0x40 MLOAD PUSH32 0x8C379A000000000000000000000000000000000000000000000000000000000 DUP2 MSTORE PUSH1 0x4 ADD PUSH2 0x1183 SWAP1 PUSH2 0x21B6 JUMP JUMPDEST PUSH1 0x40 MLOAD DUP1 SWAP2 SUB SWAP1 REVERT JUMPDEST PUSH1 0x0 PUSH2 0x1196 PUSH2 0x1617 JUMP JUMPDEST SWAP1 POP PUSH1 0x0 PUSH1 0x3 DUP3 PUSH1 0x14 DUP2 LT PUSH2 0x11AE JUMPI PUSH2 0x11AD PUSH2 0x2657 JUMP JUMPDEST JUMPDEST PUSH1 0x20 SWAP2 DUP3 DUP3 DIV ADD SWAP2 SWAP1 MOD SWAP1 SLOAD SWAP1 PUSH2 0x100 EXP SWAP1 DIV PUSH1 0xFF AND PUSH1 0xFF AND SWAP1 POP PUSH1 0x0 DUP2 EQ DUP1 ISZERO PUSH2 0x11DB JUMPI POP PUSH1 0x32 PUSH1 0x7 SLOAD LT JUMPDEST ISZERO PUSH2 0x1242 JUMPI PUSH1 0x7 PUSH1 0x0 DUP2 SLOAD DUP1 SWAP3 SWAP2 SWAP1 PUSH2 0x11F3 SWAP1 PUSH2 0x2522 JUMP JUMPDEST SWAP2 SWAP1 POP SSTORE POP PUSH2 0x1203 PUSH1 0x7 SLOAD PUSH2 0x165B JUMP JUMPDEST PUSH1 0x40 MLOAD PUSH1 0x20 ADD PUSH2 0x1213 SWAP2 SWAP1 PUSH2 0x1F90 JUMP JUMPDEST PUSH1 0x40 MLOAD PUSH1 0x20 DUP2 DUP4 SUB SUB DUP2 MSTORE SWAP1 PUSH1 0x40 MSTORE PUSH1 0x2 SWAP1 DUP1 MLOAD SWAP1 PUSH1 0x20 ADD SWAP1 PUSH2 0x1237 SWAP3 SWAP2 SWAP1 PUSH2 0x1A38 JUMP JUMPDEST POP DUP1 SWAP3 POP POP POP PUSH2 0x1424 JUMP JUMPDEST PUSH1 0x1 DUP2 GT ISZERO DUP1 ISZERO PUSH2 0x1255 JUMPI POP PUSH1 0x64 PUSH1 0x8 SLOAD LT JUMPDEST ISZERO PUSH2 0x12BC JUMPI PUSH1 0x8 PUSH1 0x0 DUP2 SLOAD DUP1 SWAP3 SWAP2 SWAP1 PUSH2 0x126D SWAP1 PUSH2 0x2522 JUMP JUMPDEST SWAP2 SWAP1 POP SSTORE POP PUSH2 0x127D PUSH1 0x8 SLOAD PUSH2 0x165B JUMP JUMPDEST PUSH1 0x40 MLOAD PUSH1 0x20 ADD PUSH2 0x128D SWAP2 SWAP1 PUSH2 0x1FB2 JUMP JUMPDEST PUSH1 0x40 MLOAD PUSH1 0x20 DUP2 DUP4 SUB SUB DUP2 MSTORE SWAP1 PUSH1 0x40 MSTORE PUSH1 0x2 SWAP1 DUP1 MLOAD SWAP1 PUSH1 0x20 ADD SWAP1 PUSH2 0x12B1 SWAP3 SWAP2 SWAP1 PUSH2 0x1A38 JUMP JUMPDEST POP DUP1 SWAP3 POP POP POP PUSH2 0x1424 JUMP JUMPDEST PUSH1 0x2 DUP2 GT ISZERO DUP1 ISZERO PUSH2 0x12D1 JUMPI POP PUSH2 0x352 PUSH1 0x9 SLOAD GT ISZERO JUMPDEST ISZERO PUSH2 0x1351 JUMPI PUSH1 0x9 PUSH1 0x0 DUP2 SLOAD DUP1 SWAP3 SWAP2 SWAP1 PUSH2 0x12E9 SWAP1 PUSH2 0x2522 JUMP JUMPDEST SWAP2 SWAP1 POP SSTORE POP PUSH2 0x12F9 PUSH1 0x9 SLOAD PUSH2 0x165B JUMP JUMPDEST PUSH1 0x40 MLOAD PUSH1 0x20 ADD PUSH2 0x1309 SWAP2 SWAP1 PUSH2 0x1FD4 JUMP JUMPDEST PUSH1 0x40 MLOAD PUSH1 0x20 DUP2 DUP4 SUB SUB DUP2 MSTORE SWAP1 PUSH1 0x40 MSTORE PUSH1 0x2 SWAP1 DUP1 MLOAD SWAP1 PUSH1 0x20 ADD SWAP1 PUSH2 0x132D SWAP3 SWAP2 SWAP1 PUSH2 0x1A38 JUMP JUMPDEST PUSH1 0x2 SWAP1 DUP1 SLOAD PUSH2 0x133B SWAP1 PUSH2 0x24BF JUMP JUMPDEST PUSH2 0x1346 SWAP3 SWAP2 SWAP1 PUSH2 0x1ABE JUMP JUMPDEST POP DUP1 SWAP3 POP POP POP PUSH2 0x1424 JUMP JUMPDEST PUSH1 0x64 PUSH1 0x8 SLOAD LT ISZERO PUSH2 0x13C2 JUMPI PUSH1 0x1 SWAP1 POP PUSH1 0x8 PUSH1 0x0 DUP2 SLOAD DUP1 SWAP3 SWAP2 SWAP1 PUSH2 0x1373 SWAP1 PUSH2 0x2522 JUMP JUMPDEST SWAP2 SWAP1 POP SSTORE POP PUSH2 0x1383 PUSH1 0x8 SLOAD PUSH2 0x165B JUMP JUMPDEST PUSH1 0x40 MLOAD PUSH1 0x20 ADD PUSH2 0x1393 SWAP2 SWAP1 PUSH2 0x1FB2 JUMP JUMPDEST PUSH1 0x40 MLOAD PUSH1 0x20 DUP2 DUP4 SUB SUB DUP2 MSTORE SWAP1 PUSH1 0x40 MSTORE PUSH1 0x2 SWAP1 DUP1 MLOAD SWAP1 PUSH1 0x20 ADD SWAP1 PUSH2 0x13B7 SWAP3 SWAP2 SWAP1 PUSH2 0x1A38 JUMP JUMPDEST POP DUP1 SWAP3 POP POP POP PUSH2 0x1424 JUMP JUMPDEST PUSH1 0x0 SWAP1 POP PUSH1 0x7 PUSH1 0x0 DUP2 SLOAD DUP1 SWAP3 SWAP2 SWAP1 PUSH2 0x13D9 SWAP1 PUSH2 0x2522 JUMP JUMPDEST SWAP2 SWAP1 POP SSTORE POP PUSH2 0x13E9 PUSH1 0x7 SLOAD PUSH2 0x165B JUMP JUMPDEST PUSH1 0x40 MLOAD PUSH1 0x20 ADD PUSH2 0x13F9 SWAP2 SWAP1 PUSH2 0x1F90 JUMP JUMPDEST PUSH1 0x40 MLOAD PUSH1 0x20 DUP2 DUP4 SUB SUB DUP2 MSTORE SWAP1 PUSH1 0x40 MSTORE PUSH1 0x2 SWAP1 DUP1 MLOAD SWAP1 PUSH1 0x20 ADD SWAP1 PUSH2 0x141D SWAP3 SWAP2 SWAP1 PUSH2 0x1A38 JUMP JUMPDEST POP DUP1 SWAP3 POP POP POP JUMPDEST SWAP1 JUMP JUMPDEST PUSH1 0x0 PUSH20 0xFFFFFFFFFFFFFFFFFFFFFFFFFFFFFFFFFFFFFFFF AND DUP5 PUSH20 0xFFFFFFFFFFFFFFFFFFFFFFFFFFFFFFFFFFFFFFFF AND EQ ISZERO PUSH2 0x1497 JUMPI PUSH1 0x40 MLOAD PUSH32 0x8C379A000000000000000000000000000000000000000000000000000000000 DUP2 MSTORE PUSH1 0x4 ADD PUSH2 0x148E SWAP1 PUSH2 0x2216 JUMP JUMPDEST PUSH1 0x40 MLOAD DUP1 SWAP2 SUB SWAP1 REVERT JUMPDEST PUSH1 0x0 PUSH2 0x14A1 PUSH2 0x112D JUMP JUMPDEST SWAP1 POP PUSH2 0x14C2 DUP2 PUSH1 0x0 DUP8 PUSH2 0x14B3 DUP9 PUSH2 0x17BC JUMP JUMPDEST PUSH2 0x14BC DUP9 PUSH2 0x17BC JUMP JUMPDEST DUP8 PUSH2 0x1836 JUMP JUMPDEST DUP3 PUSH1 0x0 DUP1 DUP7 DUP2 MSTORE PUSH1 0x20 ADD SWAP1 DUP2 MSTORE PUSH1 0x20 ADD PUSH1 0x0 KECCAK256 PUSH1 0x0 DUP8 PUSH20 0xFFFFFFFFFFFFFFFFFFFFFFFFFFFFFFFFFFFFFFFF AND PUSH20 0xFFFFFFFFFFFFFFFFFFFFFFFFFFFFFFFFFFFFFFFF AND DUP2 MSTORE PUSH1 0x20 ADD SWAP1 DUP2 MSTORE PUSH1 0x20 ADD PUSH1 0x0 KECCAK256 PUSH1 0x0 DUP3 DUP3 SLOAD PUSH2 0x1521 SWAP2 SWAP1 PUSH2 0x234B JUMP JUMPDEST SWAP3 POP POP DUP2 SWAP1 SSTORE POP DUP5 PUSH20 0xFFFFFFFFFFFFFFFFFFFFFFFFFFFFFFFFFFFFFFFF AND PUSH1 0x0 PUSH20 0xFFFFFFFFFFFFFFFFFFFFFFFFFFFFFFFFFFFFFFFF AND DUP3 PUSH20 0xFFFFFFFFFFFFFFFFFFFFFFFFFFFFFFFFFFFFFFFF AND PUSH32 0xC3D58168C5AE7397731D063D5BBF3D657854427343F4C083240F7AACAA2D0F62 DUP8 DUP8 PUSH1 0x40 MLOAD PUSH2 0x159F SWAP3 SWAP2 SWAP1 PUSH2 0x2281 JUMP JUMPDEST PUSH1 0x40 MLOAD DUP1 SWAP2 SUB SWAP1 LOG4 PUSH2 0x15B6 DUP2 PUSH1 0x0 DUP8 DUP8 DUP8 DUP8 PUSH2 0x183E JUMP JUMPDEST POP POP POP POP POP JUMP JUMPDEST DUP1 PUSH1 0xB PUSH1 0x0 DUP5 PUSH20 0xFFFFFFFFFFFFFFFFFFFFFFFFFFFFFFFFFFFFFFFF AND PUSH20 0xFFFFFFFFFFFFFFFFFFFFFFFFFFFFFFFFFFFFFFFF AND DUP2 MSTORE PUSH1 0x20 ADD SWAP1 DUP2 MSTORE PUSH1 0x20 ADD PUSH1 0x0 KECCAK256 PUSH1 0x0 DUP3 DUP3 SLOAD PUSH2 0x160C SWAP2 SWAP1 PUSH2 0x234B JUMP JUMPDEST SWAP3 POP POP DUP2 SWAP1 SSTORE POP POP POP JUMP JUMPDEST PUSH1 0x0 DUP1 PUSH1 0x14 TIMESTAMP CALLER PUSH1 0x40 MLOAD PUSH1 0x20 ADD PUSH2 0x162F SWAP3 SWAP2 SWAP1 PUSH2 0x1FF6 JUMP JUMPDEST PUSH1 0x40 MLOAD PUSH1 0x20 DUP2 DUP4 SUB SUB DUP2 MSTORE SWAP1 PUSH1 0x40 MSTORE DUP1 MLOAD SWAP1 PUSH1 0x20 ADD KECCAK256 PUSH1 0x0 SHR PUSH2 0x1652 SWAP2 SWAP1 PUSH2 0x2599 JUMP JUMPDEST SWAP1 POP DUP1 SWAP2 POP POP SWAP1 JUMP JUMPDEST PUSH1 0x60 PUSH1 0x0 DUP3 EQ ISZERO PUSH2 0x16A3 JUMPI PUSH1 0x40 MLOAD DUP1 PUSH1 0x40 ADD PUSH1 0x40 MSTORE DUP1 PUSH1 0x1 DUP2 MSTORE PUSH1 0x20 ADD PUSH32 0x3000000000000000000000000000000000000000000000000000000000000000 DUP2 MSTORE POP SWAP1 POP PUSH2 0x17B7 JUMP JUMPDEST PUSH1 0x0 DUP3 SWAP1 POP PUSH1 0x0 JUMPDEST PUSH1 0x0 DUP3 EQ PUSH2 0x16D5 JUMPI DUP1 DUP1 PUSH2 0x16BE SWAP1 PUSH2 0x2522 JUMP JUMPDEST SWAP2 POP POP PUSH1 0xA DUP3 PUSH2 0x16CE SWAP2 SWAP1 PUSH2 0x23A1 JUMP JUMPDEST SWAP2 POP PUSH2 0x16AB JUMP JUMPDEST PUSH1 0x0 DUP2 PUSH8 0xFFFFFFFFFFFFFFFF DUP2 GT ISZERO PUSH2 0x16F1 JUMPI PUSH2 0x16F0 PUSH2 0x2686 JUMP JUMPDEST JUMPDEST PUSH1 0x40 MLOAD SWAP1 DUP1 DUP3 MSTORE DUP1 PUSH1 0x1F ADD PUSH1 0x1F NOT AND PUSH1 0x20 ADD DUP3 ADD PUSH1 0x40 MSTORE DUP1 ISZERO PUSH2 0x1723 JUMPI DUP2 PUSH1 0x20 ADD PUSH1 0x1 DUP3 MUL DUP1 CALLDATASIZE DUP4 CALLDATACOPY DUP1 DUP3 ADD SWAP2 POP POP SWAP1 POP JUMPDEST POP SWAP1 POP JUMPDEST PUSH1 0x0 DUP6 EQ PUSH2 0x17B0 JUMPI PUSH1 0x1 DUP3 PUSH2 0x173C SWAP2 SWAP1 PUSH2 0x23D2 JUMP JUMPDEST SWAP2 POP PUSH1 0xA DUP6 PUSH2 0x174B SWAP2 SWAP1 PUSH2 0x2599 JUMP JUMPDEST PUSH1 0x30 PUSH2 0x1757 SWAP2 SWAP1 PUSH2 0x234B JUMP JUMPDEST PUSH1 0xF8 SHL DUP2 DUP4 DUP2 MLOAD DUP2 LT PUSH2 0x176D JUMPI PUSH2 0x176C PUSH2 0x2657 JUMP JUMPDEST JUMPDEST PUSH1 0x20 ADD ADD SWAP1 PUSH31 0xFFFFFFFFFFFFFFFFFFFFFFFFFFFFFFFFFFFFFFFFFFFFFFFFFFFFFFFFFFFFFF NOT AND SWAP1 DUP2 PUSH1 0x0 BYTE SWAP1 MSTORE8 POP PUSH1 0xA DUP6 PUSH2 0x17A9 SWAP2 SWAP1 PUSH2 0x23A1 JUMP JUMPDEST SWAP5 POP PUSH2 0x1727 JUMP JUMPDEST DUP1 SWAP4 POP POP POP POP JUMPDEST SWAP2 SWAP1 POP JUMP JUMPDEST PUSH1 0x60 PUSH1 0x0 PUSH1 0x1 PUSH8 0xFFFFFFFFFFFFFFFF DUP2 GT ISZERO PUSH2 0x17DB JUMPI PUSH2 0x17DA PUSH2 0x2686 JUMP JUMPDEST JUMPDEST PUSH1 0x40 MLOAD SWAP1 DUP1 DUP3 MSTORE DUP1 PUSH1 0x20 MUL PUSH1 0x20 ADD DUP3 ADD PUSH1 0x40 MSTORE DUP1 ISZERO PUSH2 0x1809 JUMPI DUP2 PUSH1 0x20 ADD PUSH1 0x20 DUP3 MUL DUP1 CALLDATASIZE DUP4 CALLDATACOPY DUP1 DUP3 ADD SWAP2 POP POP SWAP1 POP JUMPDEST POP SWAP1 POP DUP3 DUP2 PUSH1 0x0 DUP2 MLOAD DUP2 LT PUSH2 0x1821 JUMPI PUSH2 0x1820 PUSH2 0x2657 JUMP JUMPDEST JUMPDEST PUSH1 0x20 MUL PUSH1 0x20 ADD ADD DUP2 DUP2 MSTORE POP POP DUP1 SWAP2 POP POP SWAP2 SWAP1 POP JUMP JUMPDEST POP POP POP POP POP POP JUMP JUMPDEST PUSH2 0x185D DUP5 PUSH20 0xFFFFFFFFFFFFFFFFFFFFFFFFFFFFFFFFFFFFFFFF AND PUSH2 0x1A25 JUMP JUMPDEST ISZERO PUSH2 0x1A1D JUMPI DUP4 PUSH20 0xFFFFFFFFFFFFFFFFFFFFFFFFFFFFFFFFFFFFFFFF AND PUSH4 0xAE89A248 DUP8 DUP8 DUP7 DUP7 DUP7 PUSH1 0x40 MLOAD DUP7 PUSH4 0xFFFFFFFF AND PUSH1 0xE0 SHL DUP2 MSTORE PUSH1 0x4 ADD PUSH2 0x18A3 SWAP6 SWAP5 SWAP4 SWAP3 SWAP2 SWAP1 PUSH2 0x203D JUMP JUMPDEST PUSH1 0x20 PUSH1 0x40 MLOAD DUP1 DUP4 SUB DUP2 PUSH1 0x0 DUP8 DUP1 EXTCODESIZE ISZERO DUP1 ISZERO PUSH2 0x18BD JUMPI PUSH1 0x0 DUP1 REVERT JUMPDEST POP GAS CALL SWAP3 POP POP POP DUP1 ISZERO PUSH2 0x18EE JUMPI POP PUSH1 0x40 MLOAD RETURNDATASIZE PUSH1 0x1F NOT PUSH1 0x1F DUP3 ADD AND DUP3 ADD DUP1 PUSH1 0x40 MSTORE POP DUP2 ADD SWAP1 PUSH2 0x18EB SWAP2 SWAP1 PUSH2 0x1C16 JUMP JUMPDEST PUSH1 0x1 JUMPDEST PUSH2 0x1994 JUMPI PUSH2 0x18FA PUSH2 0x26B5 JUMP JUMPDEST DUP1 PUSH4 0x8C379A0 EQ ISZERO PUSH2 0x1957 JUMPI POP PUSH2 0x190F PUSH2 0x298E JUMP JUMPDEST DUP1 PUSH2 0x191A JUMPI POP PUSH2 0x1959 JUMP JUMPDEST DUP1 PUSH1 0x40 MLOAD PUSH32 0x8C379A000000000000000000000000000000000000000000000000000000000 DUP2 MSTORE PUSH1 0x4 ADD PUSH2 0x194E SWAP2 SWAP1 PUSH2 0x20D4 JUMP JUMPDEST PUSH1 0x40 MLOAD DUP1 SWAP2 SUB SWAP1 REVERT JUMPDEST POP JUMPDEST PUSH1 0x40 MLOAD PUSH32 0x8C379A000000000000000000000000000000000000000000000000000000000 DUP2 MSTORE PUSH1 0x4 ADD PUSH2 0x198B SWAP1 PUSH2 0x20F6 JUMP JUMPDEST PUSH1 0x40 MLOAD DUP1 SWAP2 SUB SWAP1 REVERT JUMPDEST PUSH4 0xAE89A248 PUSH1 0xE0 SHL PUSH28 0xFFFFFFFFFFFFFFFFFFFFFFFFFFFFFFFFFFFFFFFFFFFFFFFFFFFFFFFF NOT AND DUP2 PUSH28 0xFFFFFFFFFFFFFFFFFFFFFFFFFFFFFFFFFFFFFFFFFFFFFFFFFFFFFFFF NOT AND EQ PUSH2 0x1A1B JUMPI PUSH1 0x40 MLOAD PUSH32 0x8C379A000000000000000000000000000000000000000000000000000000000 DUP2 MSTORE PUSH1 0x4 ADD PUSH2 0x1A12 SWAP1 PUSH2 0x2116 JUMP JUMPDEST PUSH1 0x40 MLOAD DUP1 SWAP2 SUB SWAP1 REVERT JUMPDEST POP JUMPDEST POP POP POP POP POP POP JUMP JUMPDEST PUSH1 0x0 DUP1 DUP3 EXTCODESIZE SWAP1 POP PUSH1 0x0 DUP2 GT SWAP2 POP POP SWAP2 SWAP1 POP JUMP JUMPDEST DUP3 DUP1 SLOAD PUSH2 0x1A44 SWAP1 PUSH2 0x24BF JUMP JUMPDEST SWAP1 PUSH1 0x0 MSTORE PUSH1 0x20 PUSH1 0x0 KECCAK256 SWAP1 PUSH1 0x1F ADD PUSH1 0x20 SWAP1 DIV DUP2 ADD SWAP3 DUP3 PUSH2 0x1A66 JUMPI PUSH1 0x0 DUP6 SSTORE PUSH2 0x1AAD JUMP JUMPDEST DUP3 PUSH1 0x1F LT PUSH2 0x1A7F JUMPI DUP1 MLOAD PUSH1 0xFF NOT AND DUP4 DUP1 ADD OR DUP6 SSTORE PUSH2 0x1AAD JUMP JUMPDEST DUP3 DUP1 ADD PUSH1 0x1 ADD DUP6 SSTORE DUP3 ISZERO PUSH2 0x1AAD JUMPI SWAP2 DUP3 ADD JUMPDEST DUP3 DUP2 GT ISZERO PUSH2 0x1AAC JUMPI DUP3 MLOAD DUP3 SSTORE SWAP2 PUSH1 0x20 ADD SWAP2 SWAP1 PUSH1 0x1 ADD SWAP1 PUSH2 0x1A91 JUMP JUMPDEST JUMPDEST POP SWAP1 POP PUSH2 0x1ABA SWAP2 SWAP1 PUSH2 0x1B4B JUMP JUMPDEST POP SWAP1 JUMP JUMPDEST DUP3 DUP1 SLOAD PUSH2 0x1ACA SWAP1 PUSH2 0x24BF JUMP JUMPDEST SWAP1 PUSH1 0x0 MSTORE PUSH1 0x20 PUSH1 0x0 KECCAK256 SWAP1 PUSH1 0x1F ADD PUSH1 0x20 SWAP1 DIV DUP2 ADD SWAP3 DUP3 PUSH2 0x1AEC JUMPI PUSH1 0x0 DUP6 SSTORE PUSH2 0x1B3A JUMP JUMPDEST DUP3 PUSH1 0x1F LT PUSH2 0x1AFD JUMPI DUP1 SLOAD DUP6 SSTORE PUSH2 0x1B3A JUMP JUMPDEST DUP3 DUP1 ADD PUSH1 0x1 ADD DUP6 SSTORE DUP3 ISZERO PUSH2 0x1B3A JUMPI PUSH1 0x0 MSTORE PUSH1 0x20 PUSH1 0x0 KECCAK256 SWAP2 PUSH1 0x1F ADD PUSH1 0x20 SWAP1 DIV DUP3 ADD JUMPDEST DUP3 DUP2 GT ISZERO PUSH2 0x1B39 JUMPI DUP3 SLOAD DUP3 SSTORE SWAP2 PUSH1 0x1 ADD SWAP2 SWAP1 PUSH1 0x1 ADD SWAP1 PUSH2 0x1B1E JUMP JUMPDEST JUMPDEST POP SWAP1 POP PUSH2 0x1B47 SWAP2 SWAP1 PUSH2 0x1B4B JUMP JUMPDEST POP SWAP1 JUMP JUMPDEST JUMPDEST DUP1 DUP3 GT ISZERO PUSH2 0x1B64 JUMPI PUSH1 0x0 DUP2 PUSH1 0x0 SWAP1 SSTORE POP PUSH1 0x1 ADD PUSH2 0x1B4C JUMP JUMPDEST POP SWAP1 JUMP JUMPDEST PUSH1 0x0 DUP2 CALLDATALOAD SWAP1 POP PUSH2 0x1B77 DUP2 PUSH2 0x2A24 JUMP JUMPDEST SWAP3 SWAP2 POP POP JUMP JUMPDEST PUSH1 0x0 DUP2 CALLDATALOAD SWAP1 POP PUSH2 0x1B8C DUP2 PUSH2 0x2A3B JUMP JUMPDEST SWAP3 SWAP2 POP POP JUMP JUMPDEST PUSH1 0x0 DUP2 MLOAD SWAP1 POP PUSH2 0x1BA1 DUP2 PUSH2 0x2A52 JUMP JUMPDEST SWAP3 SWAP2 POP POP JUMP JUMPDEST PUSH1 0x0 DUP2 CALLDATALOAD SWAP1 POP PUSH2 0x1BB6 DUP2 PUSH2 0x2A69 JUMP JUMPDEST SWAP3 SWAP2 POP POP JUMP JUMPDEST PUSH1 0x0 PUSH1 0x20 DUP3 DUP5 SUB SLT ISZERO PUSH2 0x1BD2 JUMPI PUSH2 0x1BD1 PUSH2 0x26D7 JUMP JUMPDEST JUMPDEST PUSH1 0x0 PUSH2 0x1BE0 DUP5 DUP3 DUP6 ADD PUSH2 0x1B68 JUMP JUMPDEST SWAP2 POP POP SWAP3 SWAP2 POP POP JUMP JUMPDEST PUSH1 0x0 PUSH1 0x20 DUP3 DUP5 SUB SLT ISZERO PUSH2 0x1BFF JUMPI PUSH2 0x1BFE PUSH2 0x26D7 JUMP JUMPDEST JUMPDEST PUSH1 0x0 PUSH2 0x1C0D DUP5 DUP3 DUP6 ADD PUSH2 0x1B7D JUMP JUMPDEST SWAP2 POP POP SWAP3 SWAP2 POP POP JUMP JUMPDEST PUSH1 0x0 PUSH1 0x20 DUP3 DUP5 SUB SLT ISZERO PUSH2 0x1C2C JUMPI PUSH2 0x1C2B PUSH2 0x26D7 JUMP JUMPDEST JUMPDEST PUSH1 0x0 PUSH2 0x1C3A DUP5 DUP3 DUP6 ADD PUSH2 0x1B92 JUMP JUMPDEST SWAP2 POP POP SWAP3 SWAP2 POP POP JUMP JUMPDEST PUSH1 0x0 PUSH1 0x20 DUP3 DUP5 SUB SLT ISZERO PUSH2 0x1C59 JUMPI PUSH2 0x1C58 PUSH2 0x26D7 JUMP JUMPDEST JUMPDEST PUSH1 0x0 PUSH2 0x1C67 DUP5 DUP3 DUP6 ADD PUSH2 0x1BA7 JUMP JUMPDEST SWAP2 POP POP SWAP3 SWAP2 POP POP JUMP JUMPDEST PUSH1 0x0 PUSH2 0x1C7C DUP4 DUP4 PUSH2 0x1F5B JUMP JUMPDEST PUSH1 0x20 DUP4 ADD SWAP1 POP SWAP3 SWAP2 POP POP JUMP JUMPDEST PUSH2 0x1C91 DUP2 PUSH2 0x2418 JUMP JUMPDEST DUP3 MSTORE POP POP JUMP JUMPDEST PUSH2 0x1CA0 DUP2 PUSH2 0x2406 JUMP JUMPDEST DUP3 MSTORE POP POP JUMP JUMPDEST PUSH2 0x1CB7 PUSH2 0x1CB2 DUP3 PUSH2 0x2406 JUMP JUMPDEST PUSH2 0x256B JUMP JUMPDEST DUP3 MSTORE POP POP JUMP JUMPDEST PUSH1 0x0 PUSH2 0x1CC8 DUP3 PUSH2 0x22FB JUMP JUMPDEST PUSH2 0x1CD2 DUP2 DUP6 PUSH2 0x231E JUMP JUMPDEST SWAP4 POP PUSH2 0x1CDD DUP4 PUSH2 0x22EB JUMP JUMPDEST DUP1 PUSH1 0x0 JUMPDEST DUP4 DUP2 LT ISZERO PUSH2 0x1D0E JUMPI DUP2 MLOAD PUSH2 0x1CF5 DUP9 DUP3 PUSH2 0x1C70 JUMP JUMPDEST SWAP8 POP PUSH2 0x1D00 DUP4 PUSH2 0x2311 JUMP JUMPDEST SWAP3 POP POP PUSH1 0x1 DUP2 ADD SWAP1 POP PUSH2 0x1CE1 JUMP JUMPDEST POP DUP6 SWAP4 POP POP POP POP SWAP3 SWAP2 POP POP JUMP JUMPDEST PUSH2 0x1D24 DUP2 PUSH2 0x242A JUMP JUMPDEST DUP3 MSTORE POP POP JUMP JUMPDEST PUSH1 0x0 PUSH2 0x1D35 DUP3 PUSH2 0x2306 JUMP JUMPDEST PUSH2 0x1D3F DUP2 DUP6 PUSH2 0x232F JUMP JUMPDEST SWAP4 POP PUSH2 0x1D4F DUP2 DUP6 PUSH1 0x20 DUP7 ADD PUSH2 0x248C JUMP JUMPDEST PUSH2 0x1D58 DUP2 PUSH2 0x26DC JUMP JUMPDEST DUP5 ADD SWAP2 POP POP SWAP3 SWAP2 POP POP JUMP JUMPDEST PUSH1 0x0 PUSH2 0x1D6E DUP3 PUSH2 0x2306 JUMP JUMPDEST PUSH2 0x1D78 DUP2 DUP6 PUSH2 0x2340 JUMP JUMPDEST SWAP4 POP PUSH2 0x1D88 DUP2 DUP6 PUSH1 0x20 DUP7 ADD PUSH2 0x248C JUMP JUMPDEST DUP1 DUP5 ADD SWAP2 POP POP SWAP3 SWAP2 POP POP JUMP JUMPDEST PUSH1 0x0 PUSH2 0x1DA1 PUSH1 0x34 DUP4 PUSH2 0x232F JUMP JUMPDEST SWAP2 POP PUSH2 0x1DAC DUP3 PUSH2 0x2707 JUMP JUMPDEST PUSH1 0x40 DUP3 ADD SWAP1 POP SWAP2 SWAP1 POP JUMP JUMPDEST PUSH1 0x0 PUSH2 0x1DC4 PUSH1 0x28 DUP4 PUSH2 0x232F JUMP JUMPDEST SWAP2 POP PUSH2 0x1DCF DUP3 PUSH2 0x2756 JUMP JUMPDEST PUSH1 0x40 DUP3 ADD SWAP1 POP SWAP2 SWAP1 POP JUMP JUMPDEST PUSH1 0x0 PUSH2 0x1DE7 PUSH1 0x8 DUP4 PUSH2 0x2340 JUMP JUMPDEST SWAP2 POP PUSH2 0x1DF2 DUP3 PUSH2 0x27A5 JUMP JUMPDEST PUSH1 0x8 DUP3 ADD SWAP1 POP SWAP2 SWAP1 POP JUMP JUMPDEST PUSH1 0x0 PUSH2 0x1E0A PUSH1 0x5 DUP4 PUSH2 0x2340 JUMP JUMPDEST SWAP2 POP PUSH2 0x1E15 DUP3 PUSH2 0x27CE JUMP JUMPDEST PUSH1 0x5 DUP3 ADD SWAP1 POP SWAP2 SWAP1 POP JUMP JUMPDEST PUSH1 0x0 PUSH2 0x1E2D PUSH1 0x12 DUP4 PUSH2 0x232F JUMP JUMPDEST SWAP2 POP PUSH2 0x1E38 DUP3 PUSH2 0x27F7 JUMP JUMPDEST PUSH1 0x20 DUP3 ADD SWAP1 POP SWAP2 SWAP1 POP JUMP JUMPDEST PUSH1 0x0 PUSH2 0x1E50 PUSH1 0x1B DUP4 PUSH2 0x232F JUMP JUMPDEST SWAP2 POP PUSH2 0x1E5B DUP3 PUSH2 0x2820 JUMP JUMPDEST PUSH1 0x20 DUP3 ADD SWAP1 POP SWAP2 SWAP1 POP JUMP JUMPDEST PUSH1 0x0 PUSH2 0x1E73 PUSH1 0x1B DUP4 PUSH2 0x232F JUMP JUMPDEST SWAP2 POP PUSH2 0x1E7E DUP3 PUSH2 0x2849 JUMP JUMPDEST PUSH1 0x20 DUP3 ADD SWAP1 POP SWAP2 SWAP1 POP JUMP JUMPDEST PUSH1 0x0 PUSH2 0x1E96 PUSH1 0x1C DUP4 PUSH2 0x232F JUMP JUMPDEST SWAP2 POP PUSH2 0x1EA1 DUP3 PUSH2 0x2872 JUMP JUMPDEST PUSH1 0x20 DUP3 ADD SWAP1 POP SWAP2 SWAP1 POP JUMP JUMPDEST PUSH1 0x0 PUSH2 0x1EB9 PUSH1 0x1B DUP4 PUSH2 0x232F JUMP JUMPDEST SWAP2 POP PUSH2 0x1EC4 DUP3 PUSH2 0x289B JUMP JUMPDEST PUSH1 0x20 DUP3 ADD SWAP1 POP SWAP2 SWAP1 POP JUMP JUMPDEST PUSH1 0x0 PUSH2 0x1EDC PUSH1 0x19 DUP4 PUSH2 0x232F JUMP JUMPDEST SWAP2 POP PUSH2 0x1EE7 DUP3 PUSH2 0x28C4 JUMP JUMPDEST PUSH1 0x20 DUP3 ADD SWAP1 POP SWAP2 SWAP1 POP JUMP JUMPDEST PUSH1 0x0 PUSH2 0x1EFF PUSH1 0x7 DUP4 PUSH2 0x2340 JUMP JUMPDEST SWAP2 POP PUSH2 0x1F0A DUP3 PUSH2 0x28ED JUMP JUMPDEST PUSH1 0x7 DUP3 ADD SWAP1 POP SWAP2 SWAP1 POP JUMP JUMPDEST PUSH1 0x0 PUSH2 0x1F22 PUSH1 0x1D DUP4 PUSH2 0x232F JUMP JUMPDEST SWAP2 POP PUSH2 0x1F2D DUP3 PUSH2 0x2916 JUMP JUMPDEST PUSH1 0x20 DUP3 ADD SWAP1 POP SWAP2 SWAP1 POP JUMP JUMPDEST PUSH1 0x0 PUSH2 0x1F45 PUSH1 0x21 DUP4 PUSH2 0x232F JUMP JUMPDEST SWAP2 POP PUSH2 0x1F50 DUP3 PUSH2 0x293F JUMP JUMPDEST PUSH1 0x40 DUP3 ADD SWAP1 POP SWAP2 SWAP1 POP JUMP JUMPDEST PUSH2 0x1F64 DUP2 PUSH2 0x2482 JUMP JUMPDEST DUP3 MSTORE POP POP JUMP JUMPDEST PUSH2 0x1F73 DUP2 PUSH2 0x2482 JUMP JUMPDEST DUP3 MSTORE POP POP JUMP JUMPDEST PUSH2 0x1F8A PUSH2 0x1F85 DUP3 PUSH2 0x2482 JUMP JUMPDEST PUSH2 0x258F JUMP JUMPDEST DUP3 MSTORE POP POP JUMP JUMPDEST PUSH1 0x0 PUSH2 0x1F9B DUP3 PUSH2 0x1DDA JUMP JUMPDEST SWAP2 POP PUSH2 0x1FA7 DUP3 DUP5 PUSH2 0x1D63 JUMP JUMPDEST SWAP2 POP DUP2 SWAP1 POP SWAP3 SWAP2 POP POP JUMP JUMPDEST PUSH1 0x0 PUSH2 0x1FBD DUP3 PUSH2 0x1DFD JUMP JUMPDEST SWAP2 POP PUSH2 0x1FC9 DUP3 DUP5 PUSH2 0x1D63 JUMP JUMPDEST SWAP2 POP DUP2 SWAP1 POP SWAP3 SWAP2 POP POP JUMP JUMPDEST PUSH1 0x0 PUSH2 0x1FDF DUP3 PUSH2 0x1EF2 JUMP JUMPDEST SWAP2 POP PUSH2 0x1FEB DUP3 DUP5 PUSH2 0x1D63 JUMP JUMPDEST SWAP2 POP DUP2 SWAP1 POP SWAP3 SWAP2 POP POP JUMP JUMPDEST PUSH1 0x0 PUSH2 0x2002 DUP3 DUP6 PUSH2 0x1F79 JUMP JUMPDEST PUSH1 0x20 DUP3 ADD SWAP2 POP PUSH2 0x2012 DUP3 DUP5 PUSH2 0x1CA6 JUMP JUMPDEST PUSH1 0x14 DUP3 ADD SWAP2 POP DUP2 SWAP1 POP SWAP4 SWAP3 POP POP POP JUMP JUMPDEST PUSH1 0x0 PUSH1 0x20 DUP3 ADD SWAP1 POP PUSH2 0x2037 PUSH1 0x0 DUP4 ADD DUP5 PUSH2 0x1C88 JUMP JUMPDEST SWAP3 SWAP2 POP POP JUMP JUMPDEST PUSH1 0x0 PUSH1 0xA0 DUP3 ADD SWAP1 POP PUSH2 0x2052 PUSH1 0x0 DUP4 ADD DUP9 PUSH2 0x1C97 JUMP JUMPDEST PUSH2 0x205F PUSH1 0x20 DUP4 ADD DUP8 PUSH2 0x1C97 JUMP JUMPDEST PUSH2 0x206C PUSH1 0x40 DUP4 ADD DUP7 PUSH2 0x1F6A JUMP JUMPDEST PUSH2 0x2079 PUSH1 0x60 DUP4 ADD DUP6 PUSH2 0x1F6A JUMP JUMPDEST DUP2 DUP2 SUB PUSH1 0x80 DUP4 ADD MSTORE PUSH2 0x208B DUP2 DUP5 PUSH2 0x1D2A JUMP JUMPDEST SWAP1 POP SWAP7 SWAP6 POP POP POP POP POP POP JUMP JUMPDEST PUSH1 0x0 PUSH1 0x20 DUP3 ADD SWAP1 POP DUP2 DUP2 SUB PUSH1 0x0 DUP4 ADD MSTORE PUSH2 0x20B1 DUP2 DUP5 PUSH2 0x1CBD JUMP JUMPDEST SWAP1 POP SWAP3 SWAP2 POP POP JUMP JUMPDEST PUSH1 0x0 PUSH1 0x20 DUP3 ADD SWAP1 POP PUSH2 0x20CE PUSH1 0x0 DUP4 ADD DUP5 PUSH2 0x1D1B JUMP JUMPDEST SWAP3 SWAP2 POP POP JUMP JUMPDEST PUSH1 0x0 PUSH1 0x20 DUP3 ADD SWAP1 POP DUP2 DUP2 SUB PUSH1 0x0 DUP4 ADD MSTORE PUSH2 0x20EE DUP2 DUP5 PUSH2 0x1D2A JUMP JUMPDEST SWAP1 POP SWAP3 SWAP2 POP POP JUMP JUMPDEST PUSH1 0x0 PUSH1 0x20 DUP3 ADD SWAP1 POP DUP2 DUP2 SUB PUSH1 0x0 DUP4 ADD MSTORE PUSH2 0x210F DUP2 PUSH2 0x1D94 JUMP JUMPDEST SWAP1 POP SWAP2 SWAP1 POP JUMP JUMPDEST PUSH1 0x0 PUSH1 0x20 DUP3 ADD SWAP1 POP DUP2 DUP2 SUB PUSH1 0x0 DUP4 ADD MSTORE PUSH2 0x212F DUP2 PUSH2 0x1DB7 JUMP JUMPDEST SWAP1 POP SWAP2 SWAP1 POP JUMP JUMPDEST PUSH1 0x0 PUSH1 0x20 DUP3 ADD SWAP1 POP DUP2 DUP2 SUB PUSH1 0x0 DUP4 ADD MSTORE PUSH2 0x214F DUP2 PUSH2 0x1E20 JUMP JUMPDEST SWAP1 POP SWAP2 SWAP1 POP JUMP JUMPDEST PUSH1 0x0 PUSH1 0x20 DUP3 ADD SWAP1 POP DUP2 DUP2 SUB PUSH1 0x0 DUP4 ADD MSTORE PUSH2 0x216F DUP2 PUSH2 0x1E43 JUMP JUMPDEST SWAP1 POP SWAP2 SWAP1 POP JUMP JUMPDEST PUSH1 0x0 PUSH1 0x20 DUP3 ADD SWAP1 POP DUP2 DUP2 SUB PUSH1 0x0 DUP4 ADD MSTORE PUSH2 0x218F DUP2 PUSH2 0x1E66 JUMP JUMPDEST SWAP1 POP SWAP2 SWAP1 POP JUMP JUMPDEST PUSH1 0x0 PUSH1 0x20 DUP3 ADD SWAP1 POP DUP2 DUP2 SUB PUSH1 0x0 DUP4 ADD MSTORE PUSH2 0x21AF DUP2 PUSH2 0x1E89 JUMP JUMPDEST SWAP1 POP SWAP2 SWAP1 POP JUMP JUMPDEST PUSH1 0x0 PUSH1 0x20 DUP3 ADD SWAP1 POP DUP2 DUP2 SUB PUSH1 0x0 DUP4 ADD MSTORE PUSH2 0x21CF DUP2 PUSH2 0x1EAC JUMP JUMPDEST SWAP1 POP SWAP2 SWAP1 POP JUMP JUMPDEST PUSH1 0x0 PUSH1 0x20 DUP3 ADD SWAP1 POP DUP2 DUP2 SUB PUSH1 0x0 DUP4 ADD MSTORE PUSH2 0x21EF DUP2 PUSH2 0x1ECF JUMP JUMPDEST SWAP1 POP SWAP2 SWAP1 POP JUMP JUMPDEST PUSH1 0x0 PUSH1 0x20 DUP3 ADD SWAP1 POP DUP2 DUP2 SUB PUSH1 0x0 DUP4 ADD MSTORE PUSH2 0x220F DUP2 PUSH2 0x1F15 JUMP JUMPDEST SWAP1 POP SWAP2 SWAP1 POP JUMP JUMPDEST PUSH1 0x0 PUSH1 0x20 DUP3 ADD SWAP1 POP DUP2 DUP2 SUB PUSH1 0x0 DUP4 ADD MSTORE PUSH2 0x222F DUP2 PUSH2 0x1F38 JUMP JUMPDEST SWAP1 POP SWAP2 SWAP1 POP JUMP JUMPDEST PUSH1 0x0 PUSH1 0x20 DUP3 ADD SWAP1 POP PUSH2 0x224B PUSH1 0x0 DUP4 ADD DUP5 PUSH2 0x1F6A JUMP JUMPDEST SWAP3 SWAP2 POP POP JUMP JUMPDEST PUSH1 0x0 PUSH1 0x40 DUP3 ADD SWAP1 POP PUSH2 0x2266 PUSH1 0x0 DUP4 ADD DUP6 PUSH2 0x1F6A JUMP JUMPDEST DUP2 DUP2 SUB PUSH1 0x20 DUP4 ADD MSTORE PUSH2 0x2278 DUP2 DUP5 PUSH2 0x1D2A JUMP JUMPDEST SWAP1 POP SWAP4 SWAP3 POP POP POP JUMP JUMPDEST PUSH1 0x0 PUSH1 0x40 DUP3 ADD SWAP1 POP PUSH2 0x2296 PUSH1 0x0 DUP4 ADD DUP6 PUSH2 0x1F6A JUMP JUMPDEST PUSH2 0x22A3 PUSH1 0x20 DUP4 ADD DUP5 PUSH2 0x1F6A JUMP JUMPDEST SWAP4 SWAP3 POP POP POP JUMP JUMPDEST PUSH1 0x0 PUSH1 0x60 DUP3 ADD SWAP1 POP PUSH2 0x22BF PUSH1 0x0 DUP4 ADD DUP7 PUSH2 0x1F6A JUMP JUMPDEST PUSH2 0x22CC PUSH1 0x20 DUP4 ADD DUP6 PUSH2 0x1F6A JUMP JUMPDEST PUSH2 0x22D9 PUSH1 0x40 DUP4 ADD DUP5 PUSH2 0x1F6A JUMP JUMPDEST SWAP5 SWAP4 POP POP POP POP JUMP JUMPDEST PUSH1 0x0 PUSH1 0x40 MLOAD SWAP1 POP SWAP1 JUMP JUMPDEST PUSH1 0x0 DUP2 SWAP1 POP PUSH1 0x20 DUP3 ADD SWAP1 POP SWAP2 SWAP1 POP JUMP JUMPDEST PUSH1 0x0 DUP2 MLOAD SWAP1 POP SWAP2 SWAP1 POP JUMP JUMPDEST PUSH1 0x0 DUP2 MLOAD SWAP1 POP SWAP2 SWAP1 POP JUMP JUMPDEST PUSH1 0x0 PUSH1 0x20 DUP3 ADD SWAP1 POP SWAP2 SWAP1 POP JUMP JUMPDEST PUSH1 0x0 DUP3 DUP3 MSTORE PUSH1 0x20 DUP3 ADD SWAP1 POP SWAP3 SWAP2 POP POP JUMP JUMPDEST PUSH1 0x0 DUP3 DUP3 MSTORE PUSH1 0x20 DUP3 ADD SWAP1 POP SWAP3 SWAP2 POP POP JUMP JUMPDEST PUSH1 0x0 DUP2 SWAP1 POP SWAP3 SWAP2 POP POP JUMP JUMPDEST PUSH1 0x0 PUSH2 0x2356 DUP3 PUSH2 0x2482 JUMP JUMPDEST SWAP2 POP PUSH2 0x2361 DUP4 PUSH2 0x2482 JUMP JUMPDEST SWAP3 POP DUP3 PUSH32 0xFFFFFFFFFFFFFFFFFFFFFFFFFFFFFFFFFFFFFFFFFFFFFFFFFFFFFFFFFFFFFFFF SUB DUP3 GT ISZERO PUSH2 0x2396 JUMPI PUSH2 0x2395 PUSH2 0x25CA JUMP JUMPDEST JUMPDEST DUP3 DUP3 ADD SWAP1 POP SWAP3 SWAP2 POP POP JUMP JUMPDEST PUSH1 0x0 PUSH2 0x23AC DUP3 PUSH2 0x2482 JUMP JUMPDEST SWAP2 POP PUSH2 0x23B7 DUP4 PUSH2 0x2482 JUMP JUMPDEST SWAP3 POP DUP3 PUSH2 0x23C7 JUMPI PUSH2 0x23C6 PUSH2 0x25F9 JUMP JUMPDEST JUMPDEST DUP3 DUP3 DIV SWAP1 POP SWAP3 SWAP2 POP POP JUMP JUMPDEST PUSH1 0x0 PUSH2 0x23DD DUP3 PUSH2 0x2482 JUMP JUMPDEST SWAP2 POP PUSH2 0x23E8 DUP4 PUSH2 0x2482 JUMP JUMPDEST SWAP3 POP DUP3 DUP3 LT ISZERO PUSH2 0x23FB JUMPI PUSH2 0x23FA PUSH2 0x25CA JUMP JUMPDEST JUMPDEST DUP3 DUP3 SUB SWAP1 POP SWAP3 SWAP2 POP POP JUMP JUMPDEST PUSH1 0x0 PUSH2 0x2411 DUP3 PUSH2 0x2462 JUMP JUMPDEST SWAP1 POP SWAP2 SWAP1 POP JUMP JUMPDEST PUSH1 0x0 PUSH2 0x2423 DUP3 PUSH2 0x2462 JUMP JUMPDEST SWAP1 POP SWAP2 SWAP1 POP JUMP JUMPDEST PUSH1 0x0 DUP2 ISZERO ISZERO SWAP1 POP SWAP2 SWAP1 POP JUMP JUMPDEST PUSH1 0x0 PUSH32 0xFFFFFFFF00000000000000000000000000000000000000000000000000000000 DUP3 AND SWAP1 POP SWAP2 SWAP1 POP JUMP JUMPDEST PUSH1 0x0 PUSH20 0xFFFFFFFFFFFFFFFFFFFFFFFFFFFFFFFFFFFFFFFF DUP3 AND SWAP1 POP SWAP2 SWAP1 POP JUMP JUMPDEST PUSH1 0x0 DUP2 SWAP1 POP SWAP2 SWAP1 POP JUMP JUMPDEST PUSH1 0x0 JUMPDEST DUP4 DUP2 LT ISZERO PUSH2 0x24AA JUMPI DUP1 DUP3 ADD MLOAD DUP2 DUP5 ADD MSTORE PUSH1 0x20 DUP2 ADD SWAP1 POP PUSH2 0x248F JUMP JUMPDEST DUP4 DUP2 GT ISZERO PUSH2 0x24B9 JUMPI PUSH1 0x0 DUP5 DUP5 ADD MSTORE JUMPDEST POP POP POP POP JUMP JUMPDEST PUSH1 0x0 PUSH1 0x2 DUP3 DIV SWAP1 POP PUSH1 0x1 DUP3 AND DUP1 PUSH2 0x24D7 JUMPI PUSH1 0x7F DUP3 AND SWAP2 POP JUMPDEST PUSH1 0x20 DUP3 LT DUP2 EQ ISZERO PUSH2 0x24EB JUMPI PUSH2 0x24EA PUSH2 0x2628 JUMP JUMPDEST JUMPDEST POP SWAP2 SWAP1 POP JUMP JUMPDEST PUSH2 0x24FA DUP3 PUSH2 0x26DC JUMP JUMPDEST DUP2 ADD DUP2 DUP2 LT PUSH8 0xFFFFFFFFFFFFFFFF DUP3 GT OR ISZERO PUSH2 0x2519 JUMPI PUSH2 0x2518 PUSH2 0x2686 JUMP JUMPDEST JUMPDEST DUP1 PUSH1 0x40 MSTORE POP POP POP JUMP JUMPDEST PUSH1 0x0 PUSH2 0x252D DUP3 PUSH2 0x2482 JUMP JUMPDEST SWAP2 POP PUSH32 0xFFFFFFFFFFFFFFFFFFFFFFFFFFFFFFFFFFFFFFFFFFFFFFFFFFFFFFFFFFFFFFFF DUP3 EQ ISZERO PUSH2 0x2560 JUMPI PUSH2 0x255F PUSH2 0x25CA JUMP JUMPDEST JUMPDEST PUSH1 0x1 DUP3 ADD SWAP1 POP SWAP2 SWAP1 POP JUMP JUMPDEST PUSH1 0x0 PUSH2 0x2576 DUP3 PUSH2 0x257D JUMP JUMPDEST SWAP1 POP SWAP2 SWAP1 POP JUMP JUMPDEST PUSH1 0x0 PUSH2 0x2588 DUP3 PUSH2 0x26ED JUMP JUMPDEST SWAP1 POP SWAP2 SWAP1 POP JUMP JUMPDEST PUSH1 0x0 DUP2 SWAP1 POP SWAP2 SWAP1 POP JUMP JUMPDEST PUSH1 0x0 PUSH2 0x25A4 DUP3 PUSH2 0x2482 JUMP JUMPDEST SWAP2 POP PUSH2 0x25AF DUP4 PUSH2 0x2482 JUMP JUMPDEST SWAP3 POP DUP3 PUSH2 0x25BF JUMPI PUSH2 0x25BE PUSH2 0x25F9 JUMP JUMPDEST JUMPDEST DUP3 DUP3 MOD SWAP1 POP SWAP3 SWAP2 POP POP JUMP JUMPDEST PUSH32 0x4E487B7100000000000000000000000000000000000000000000000000000000 PUSH1 0x0 MSTORE PUSH1 0x11 PUSH1 0x4 MSTORE PUSH1 0x24 PUSH1 0x0 REVERT JUMPDEST PUSH32 0x4E487B7100000000000000000000000000000000000000000000000000000000 PUSH1 0x0 MSTORE PUSH1 0x12 PUSH1 0x4 MSTORE PUSH1 0x24 PUSH1 0x0 REVERT JUMPDEST PUSH32 0x4E487B7100000000000000000000000000000000000000000000000000000000 PUSH1 0x0 MSTORE PUSH1 0x22 PUSH1 0x4 MSTORE PUSH1 0x24 PUSH1 0x0 REVERT JUMPDEST PUSH32 0x4E487B7100000000000000000000000000000000000000000000000000000000 PUSH1 0x0 MSTORE PUSH1 0x32 PUSH1 0x4 MSTORE PUSH1 0x24 PUSH1 0x0 REVERT JUMPDEST PUSH32 0x4E487B7100000000000000000000000000000000000000000000000000000000 PUSH1 0x0 MSTORE PUSH1 0x41 PUSH1 0x4 MSTORE PUSH1 0x24 PUSH1 0x0 REVERT JUMPDEST PUSH1 0x0 PUSH1 0x3 RETURNDATASIZE GT ISZERO PUSH2 0x26D4 JUMPI PUSH1 0x4 PUSH1 0x0 DUP1 RETURNDATACOPY PUSH2 0x26D1 PUSH1 0x0 MLOAD PUSH2 0x26FA JUMP JUMPDEST SWAP1 POP JUMPDEST SWAP1 JUMP JUMPDEST PUSH1 0x0 DUP1 REVERT JUMPDEST PUSH1 0x0 PUSH1 0x1F NOT PUSH1 0x1F DUP4 ADD AND SWAP1 POP SWAP2 SWAP1 POP JUMP JUMPDEST PUSH1 0x0 DUP2 PUSH1 0x60 SHL SWAP1 POP SWAP2 SWAP1 POP JUMP JUMPDEST PUSH1 0x0 DUP2 PUSH1 0xE0 SHR SWAP1 POP SWAP2 SWAP1 POP JUMP JUMPDEST PUSH32 0x455243313135353A207472616E7366657220746F206E6F6E2045524331313535 PUSH1 0x0 DUP3 ADD MSTORE PUSH32 0x526563656976657220696D706C656D656E746572000000000000000000000000 PUSH1 0x20 DUP3 ADD MSTORE POP JUMP JUMPDEST PUSH32 0x455243313135353A204552433131353552656365697665722072656A65637465 PUSH1 0x0 DUP3 ADD MSTORE PUSH32 0x6420746F6B656E73000000000000000000000000000000000000000000000000 PUSH1 0x20 DUP3 ADD MSTORE POP JUMP JUMPDEST PUSH32 0x4469616D6F6E645F000000000000000000000000000000000000000000000000 PUSH1 0x0 DUP3 ADD MSTORE POP JUMP JUMPDEST PUSH32 0x476F6C645F000000000000000000000000000000000000000000000000000000 PUSH1 0x0 DUP3 ADD MSTORE POP JUMP JUMPDEST PUSH32 0x4E6F7420456E6F7567682042616C616E63650000000000000000000000000000 PUSH1 0x0 DUP3 ADD MSTORE POP JUMP JUMPDEST PUSH32 0x44726F707369746520697320616C72656164792052756E6E696E670000000000 PUSH1 0x0 DUP3 ADD MSTORE POP JUMP JUMPDEST PUSH32 0x44726F707369746520697320616C72656164792053746F707065640000000000 PUSH1 0x0 DUP3 ADD MSTORE POP JUMP JUMPDEST PUSH32 0x4F6E6C79204E46542D4553204F776E65722063616E2041636365737300000000 PUSH1 0x0 DUP3 ADD MSTORE POP JUMP JUMPDEST PUSH32 0x44726F7073697465206973206E6F74204F70656E6564205965742E0000000000 PUSH1 0x0 DUP3 ADD MSTORE POP JUMP JUMPDEST PUSH32 0x4D6178204D696E74696E67204C696D6974207265616368656400000000000000 PUSH1 0x0 DUP3 ADD MSTORE POP JUMP JUMPDEST PUSH32 0x53696C7665725F00000000000000000000000000000000000000000000000000 PUSH1 0x0 DUP3 ADD MSTORE POP JUMP JUMPDEST PUSH32 0x4572726F7221204E6F2042616C616E636520746F207769746864726177000000 PUSH1 0x0 DUP3 ADD MSTORE POP JUMP JUMPDEST PUSH32 0x455243313135353A206D696E7420746F20746865207A65726F20616464726573 PUSH1 0x0 DUP3 ADD MSTORE PUSH32 0x7300000000000000000000000000000000000000000000000000000000000000 PUSH1 0x20 DUP3 ADD MSTORE POP JUMP JUMPDEST PUSH1 0x0 PUSH1 0x44 RETURNDATASIZE LT ISZERO PUSH2 0x299E JUMPI PUSH2 0x2A21 JUMP JUMPDEST PUSH2 0x29A6 PUSH2 0x22E1 JUMP JUMPDEST PUSH1 0x4 RETURNDATASIZE SUB PUSH1 0x4 DUP3 RETURNDATACOPY DUP1 MLOAD RETURNDATASIZE PUSH1 0x24 DUP3 ADD GT PUSH8 0xFFFFFFFFFFFFFFFF DUP3 GT OR ISZERO PUSH2 0x29CE JUMPI POP POP PUSH2 0x2A21 JUMP JUMPDEST DUP1 DUP3 ADD DUP1 MLOAD PUSH8 0xFFFFFFFFFFFFFFFF DUP2 GT ISZERO PUSH2 0x29EC JUMPI POP POP POP POP PUSH2 0x2A21 JUMP JUMPDEST DUP1 PUSH1 0x20 DUP4 ADD ADD PUSH1 0x4 RETURNDATASIZE SUB DUP6 ADD DUP2 GT ISZERO PUSH2 0x2A09 JUMPI POP POP POP POP POP PUSH2 0x2A21 JUMP JUMPDEST PUSH2 0x2A18 DUP3 PUSH1 0x20 ADD DUP6 ADD DUP7 PUSH2 0x24F1 JUMP JUMPDEST DUP3 SWAP6 POP POP POP POP POP POP JUMPDEST SWAP1 JUMP JUMPDEST PUSH2 0x2A2D DUP2 PUSH2 0x2406 JUMP JUMPDEST DUP2 EQ PUSH2 0x2A38 JUMPI PUSH1 0x0 DUP1 REVERT JUMPDEST POP JUMP JUMPDEST PUSH2 0x2A44 DUP2 PUSH2 0x2418 JUMP JUMPDEST DUP2 EQ PUSH2 0x2A4F JUMPI PUSH1 0x0 DUP1 REVERT JUMPDEST POP JUMP JUMPDEST PUSH2 0x2A5B DUP2 PUSH2 0x2436 JUMP JUMPDEST DUP2 EQ PUSH2 0x2A66 JUMPI PUSH1 0x0 DUP1 REVERT JUMPDEST POP JUMP JUMPDEST PUSH2 0x2A72 DUP2 PUSH2 0x2482 JUMP JUMPDEST DUP2 EQ PUSH2 0x2A7D JUMPI PUSH1 0x0 DUP1 REVERT JUMPDEST POP JUMP INVALID LOG2 PUSH5 0x6970667358 0x22 SLT KECCAK256 0xDB ORIGIN LOG2 SHR CALLDATASIZE 0xB8 0xCF PUSH3 0x759272 PUSH16 0x8797A2720FCD37FEF86F9E7B2C1F99F1 RETURNDATACOPY DUP8 0xBB STOP PUSH5 0x736F6C6343 STOP ADDMOD SMOD STOP CALLER "
				},
				"gasEstimates": {
					"creation": {
						"codeDepositCost": "2186800",
						"executionCost": "infinite",
						"totalCost": "infinite"
					},
					"external": {
						"ContractBalance()": "2802",
						"CryptoRandomMint(address)": "infinite",
						"FiatRandomMint(address)": "infinite",
						"IsPaused()": "2516",
						"Owner()": "2608",
						"checkMintedCategoryWise()": "infinite",
						"checkTotalMinted()": "4693",
						"getMintFee()": "6930",
						"openDropsite()": "28904",
						"returnOwner(address)": "infinite",
						"setMintFee(uint256)": "27012",
						"stopDropsite()": "28859",
						"withDraw(address)": "infinite"
					},
					"internal": {
						"depositAmount(address,uint256)": "infinite",
						"random()": "infinite",
						"updateConditions()": "infinite"
					}
				},
				"methodIdentifiers": {
					"ContractBalance()": "3b668059",
					"CryptoRandomMint(address)": "3d65df70",
					"FiatRandomMint(address)": "32b61b4c",
					"IsPaused()": "1309a563",
					"Owner()": "b4a99a4e",
					"checkMintedCategoryWise()": "60daa851",
					"checkTotalMinted()": "0390c11c",
					"getMintFee()": "7a5caab3",
					"openDropsite()": "15460259",
					"returnOwner(address)": "fd6c3b1b",
					"setMintFee(uint256)": "eddd0d9c",
					"stopDropsite()": "aa90c726",
					"withDraw(address)": "0a67d2c7"
				}
			},
			"userdoc": {
				"kind": "user",
				"methods": {},
				"version": 1
			}
		}
	}
}