{
	"Dropsite.sol": {
		"Dropsite": {
			"abi": [
				{
					"inputs": [
						{
							"internalType": "string",
							"name": "name",
							"type": "string"
						}
					],
					"stateMutability": "nonpayable",
					"type": "constructor"
				},
				{
					"anonymous": false,
					"inputs": [
						{
							"indexed": true,
							"internalType": "address",
							"name": "operator",
							"type": "address"
						},
						{
							"indexed": true,
							"internalType": "address",
							"name": "from",
							"type": "address"
						},
						{
							"indexed": true,
							"internalType": "address",
							"name": "to",
							"type": "address"
						},
						{
							"indexed": false,
							"internalType": "uint256",
							"name": "id",
							"type": "uint256"
						},
						{
							"indexed": false,
							"internalType": "uint256",
							"name": "value",
							"type": "uint256"
						}
					],
					"name": "TransferSingle",
					"type": "event"
				},
				{
					"inputs": [
						{
							"internalType": "address",
							"name": "user_addr",
							"type": "address"
						}
					],
					"name": "CryptorandomMint",
					"outputs": [
						{
							"internalType": "uint256",
							"name": "",
							"type": "uint256"
						},
						{
							"internalType": "string",
							"name": "",
							"type": "string"
						}
					],
					"stateMutability": "nonpayable",
					"type": "function"
				},
				{
					"inputs": [
						{
							"internalType": "address",
							"name": "user_addr",
							"type": "address"
						}
					],
					"name": "FiatrandomMint",
					"outputs": [
						{
							"internalType": "uint256",
							"name": "",
							"type": "uint256"
						},
						{
							"internalType": "string",
							"name": "",
							"type": "string"
						}
					],
					"stateMutability": "nonpayable",
					"type": "function"
				},
				{
					"inputs": [],
					"name": "IsPaused",
					"outputs": [
						{
							"internalType": "bool",
							"name": "",
							"type": "bool"
						}
					],
					"stateMutability": "view",
					"type": "function"
				},
				{
					"inputs": [],
					"name": "Owner",
					"outputs": [
						{
							"internalType": "address payable",
							"name": "",
							"type": "address"
						}
					],
					"stateMutability": "view",
					"type": "function"
				},
				{
					"inputs": [],
					"name": "checkMintedCategoryWise",
					"outputs": [
						{
							"internalType": "uint256",
							"name": "",
							"type": "uint256"
						},
						{
							"internalType": "uint256",
							"name": "",
							"type": "uint256"
						},
						{
							"internalType": "uint256",
							"name": "",
							"type": "uint256"
						}
					],
					"stateMutability": "view",
					"type": "function"
				},
				{
					"inputs": [],
					"name": "checkTotalMinted",
					"outputs": [
						{
							"internalType": "uint256",
							"name": "",
							"type": "uint256"
						}
					],
					"stateMutability": "view",
					"type": "function"
				},
				{
					"inputs": [],
					"name": "openDropsite",
					"outputs": [],
					"stateMutability": "nonpayable",
					"type": "function"
				},
				{
					"inputs": [],
					"name": "stopDropsite",
					"outputs": [],
					"stateMutability": "nonpayable",
					"type": "function"
				}
			],
			"devdoc": {
				"kind": "dev",
				"methods": {},
				"version": 1
			},
			"evm": {
				"assembly": "    /* \"Dropsite.sol\":122:4074  contract Dropsite is ERC1155_Dropsite  { ... */\n  mstore(0x40, 0x80)\n    /* \"Dropsite.sol\":190:205  bytes  data =\"\" */\n  mload(0x40)\n  dup1\n  0x20\n  add\n  0x40\n  mstore\n  dup1\n  0x00\n  dup2\n  mstore\n  pop\n  0x02\n  swap1\n  dup1\n  mload\n  swap1\n  0x20\n  add\n  swap1\n  tag_1\n  swap3\n  swap2\n  swap1\n  tag_2\n  jump\t// in\ntag_1:\n  pop\n    /* \"Dropsite.sol\":803:807  true */\n  0x01\n    /* \"Dropsite.sol\":780:807  bool public IsPaused = true */\n  0x0a\n  exp(0x0100, 0x00)\n  dup2\n  sload\n  dup2\n  0xff\n  mul\n  not\n  and\n  swap1\n  dup4\n  iszero\n  iszero\n  mul\n  or\n  swap1\n  sstore\n  pop\n    /* \"Dropsite.sol\":879:1155  constructor (string memory name){... */\n  callvalue\n  dup1\n  iszero\n  tag_3\n  jumpi\n  0x00\n  dup1\n  revert\ntag_3:\n  pop\n  mload(0x40)\n  sub(codesize, bytecodeSize)\n  dup1\n  bytecodeSize\n  dup4\n  codecopy\n  dup2\n  dup2\n  add\n  0x40\n  mstore\n  dup2\n  add\n  swap1\n  tag_4\n  swap2\n  swap1\n  tag_5\n  jump\t// in\ntag_4:\n    /* \"Dropsite.sol\":929:933  name */\n  dup1\n    /* \"Dropsite.sol\":921:926  _name */\n  0x0b\n    /* \"Dropsite.sol\":921:933  _name = name */\n  swap1\n  dup1\n  mload\n  swap1\n  0x20\n  add\n  swap1\n  tag_8\n  swap3\n  swap2\n  swap1\n  tag_9\n  jump\t// in\ntag_8:\n  pop\n    /* \"Dropsite.sol\":959:969  msg.sender */\n  caller\n    /* \"Dropsite.sol\":943:948  Owner */\n  0x0a\n  0x01\n    /* \"Dropsite.sol\":943:970  Owner = payable(msg.sender) */\n  0x0100\n  exp\n  dup2\n  sload\n  dup2\n  0xffffffffffffffffffffffffffffffffffffffff\n  mul\n  not\n  and\n  swap1\n  dup4\n  0xffffffffffffffffffffffffffffffffffffffff\n  and\n  mul\n  or\n  swap1\n  sstore\n  pop\n    /* \"Dropsite.sol\":997:998  0 */\n  0x00\n    /* \"Dropsite.sol\":981:996  TotalNFTsMinted */\n  0x03\n    /* \"Dropsite.sol\":981:998  TotalNFTsMinted=0 */\n  dup2\n  swap1\n  sstore\n  pop\n    /* \"Dropsite.sol\":1044:1045  1 */\n  0x01\n    /* \"Dropsite.sol\":1032:1043  numOfCopies */\n  0x04\n    /* \"Dropsite.sol\":1032:1045  numOfCopies=1 */\n  dup2\n  swap1\n  sstore\n  pop\n    /* \"Dropsite.sol\":1101:1102  0 */\n  0x00\n    /* \"Dropsite.sol\":1092:1100  Platinum */\n  0x05\n    /* \"Dropsite.sol\":1092:1102  Platinum=0 */\n  dup2\n  swap1\n  sstore\n  pop\n    /* \"Dropsite.sol\":1129:1130  0 */\n  0x00\n    /* \"Dropsite.sol\":1124:1128  Gold */\n  0x06\n    /* \"Dropsite.sol\":1124:1130  Gold=0 */\n  dup2\n  swap1\n  sstore\n  pop\n    /* \"Dropsite.sol\":1147:1148  0 */\n  0x00\n    /* \"Dropsite.sol\":1140:1146  Silver */\n  0x07\n    /* \"Dropsite.sol\":1140:1148  Silver=0 */\n  dup2\n  swap1\n  sstore\n  pop\n    /* \"Dropsite.sol\":879:1155  constructor (string memory name){... */\n  pop\n    /* \"Dropsite.sol\":122:4074  contract Dropsite is ERC1155_Dropsite  { ... */\n  jump(tag_10)\ntag_2:\n  dup3\n  dup1\n  sload\n  tag_11\n  swap1\n  tag_12\n  jump\t// in\ntag_11:\n  swap1\n  0x00\n  mstore\n  keccak256(0x00, 0x20)\n  swap1\n  0x1f\n  add\n  0x20\n  swap1\n  div\n  dup2\n  add\n  swap3\n  dup3\n  tag_14\n  jumpi\n  0x00\n  dup6\n  sstore\n  jump(tag_13)\ntag_14:\n  dup3\n  0x1f\n  lt\n  tag_15\n  jumpi\n  dup1\n  mload\n  not(0xff)\n  and\n  dup4\n  dup1\n  add\n  or\n  dup6\n  sstore\n  jump(tag_13)\ntag_15:\n  dup3\n  dup1\n  add\n  0x01\n  add\n  dup6\n  sstore\n  dup3\n  iszero\n  tag_13\n  jumpi\n  swap2\n  dup3\n  add\ntag_16:\n  dup3\n  dup2\n  gt\n  iszero\n  tag_17\n  jumpi\n  dup3\n  mload\n  dup3\n  sstore\n  swap2\n  0x20\n  add\n  swap2\n  swap1\n  0x01\n  add\n  swap1\n  jump(tag_16)\ntag_17:\ntag_13:\n  pop\n  swap1\n  pop\n  tag_18\n  swap2\n  swap1\n  tag_19\n  jump\t// in\ntag_18:\n  pop\n  swap1\n  jump\t// out\ntag_9:\n  dup3\n  dup1\n  sload\n  tag_20\n  swap1\n  tag_12\n  jump\t// in\ntag_20:\n  swap1\n  0x00\n  mstore\n  keccak256(0x00, 0x20)\n  swap1\n  0x1f\n  add\n  0x20\n  swap1\n  div\n  dup2\n  add\n  swap3\n  dup3\n  tag_22\n  jumpi\n  0x00\n  dup6\n  sstore\n  jump(tag_21)\ntag_22:\n  dup3\n  0x1f\n  lt\n  tag_23\n  jumpi\n  dup1\n  mload\n  not(0xff)\n  and\n  dup4\n  dup1\n  add\n  or\n  dup6\n  sstore\n  jump(tag_21)\ntag_23:\n  dup3\n  dup1\n  add\n  0x01\n  add\n  dup6\n  sstore\n  dup3\n  iszero\n  tag_21\n  jumpi\n  swap2\n  dup3\n  add\ntag_24:\n  dup3\n  dup2\n  gt\n  iszero\n  tag_25\n  jumpi\n  dup3\n  mload\n  dup3\n  sstore\n  swap2\n  0x20\n  add\n  swap2\n  swap1\n  0x01\n  add\n  swap1\n  jump(tag_24)\ntag_25:\ntag_21:\n  pop\n  swap1\n  pop\n  tag_26\n  swap2\n  swap1\n  tag_19\n  jump\t// in\ntag_26:\n  pop\n  swap1\n  jump\t// out\ntag_19:\ntag_27:\n  dup1\n  dup3\n  gt\n  iszero\n  tag_28\n  jumpi\n  0x00\n  dup2\n  0x00\n  swap1\n  sstore\n  pop\n  0x01\n  add\n  jump(tag_27)\ntag_28:\n  pop\n  swap1\n  jump\t// out\n    /* \"#utility.yul\":7:428   */\ntag_30:\n    /* \"#utility.yul\":96:101   */\n  0x00\n    /* \"#utility.yul\":121:187   */\n  tag_32\n    /* \"#utility.yul\":137:186   */\n  tag_33\n    /* \"#utility.yul\":179:185   */\n  dup5\n    /* \"#utility.yul\":137:186   */\n  tag_34\n  jump\t// in\ntag_33:\n    /* \"#utility.yul\":121:187   */\n  tag_35\n  jump\t// in\ntag_32:\n    /* \"#utility.yul\":112:187   */\n  swap1\n  pop\n    /* \"#utility.yul\":210:216   */\n  dup3\n    /* \"#utility.yul\":203:208   */\n  dup2\n    /* \"#utility.yul\":196:217   */\n  mstore\n    /* \"#utility.yul\":248:252   */\n  0x20\n    /* \"#utility.yul\":241:246   */\n  dup2\n    /* \"#utility.yul\":237:253   */\n  add\n    /* \"#utility.yul\":286:289   */\n  dup5\n    /* \"#utility.yul\":277:283   */\n  dup5\n    /* \"#utility.yul\":272:275   */\n  dup5\n    /* \"#utility.yul\":268:284   */\n  add\n    /* \"#utility.yul\":265:290   */\n  gt\n    /* \"#utility.yul\":262:374   */\n  iszero\n  tag_36\n  jumpi\n    /* \"#utility.yul\":293:372   */\n  tag_37\n  tag_38\n  jump\t// in\ntag_37:\n    /* \"#utility.yul\":262:374   */\ntag_36:\n    /* \"#utility.yul\":383:422   */\n  tag_39\n    /* \"#utility.yul\":415:421   */\n  dup5\n    /* \"#utility.yul\":410:413   */\n  dup3\n    /* \"#utility.yul\":405:408   */\n  dup6\n    /* \"#utility.yul\":383:422   */\n  tag_40\n  jump\t// in\ntag_39:\n    /* \"#utility.yul\":102:428   */\n  pop\n    /* \"#utility.yul\":7:428   */\n  swap4\n  swap3\n  pop\n  pop\n  pop\n  jump\t// out\n    /* \"#utility.yul\":448:803   */\ntag_41:\n    /* \"#utility.yul\":515:520   */\n  0x00\n    /* \"#utility.yul\":564:567   */\n  dup3\n    /* \"#utility.yul\":557:561   */\n  0x1f\n    /* \"#utility.yul\":549:555   */\n  dup4\n    /* \"#utility.yul\":545:562   */\n  add\n    /* \"#utility.yul\":541:568   */\n  slt\n    /* \"#utility.yul\":531:653   */\n  tag_43\n  jumpi\n    /* \"#utility.yul\":572:651   */\n  tag_44\n  tag_45\n  jump\t// in\ntag_44:\n    /* \"#utility.yul\":531:653   */\ntag_43:\n    /* \"#utility.yul\":682:688   */\n  dup2\n    /* \"#utility.yul\":676:689   */\n  mload\n    /* \"#utility.yul\":707:797   */\n  tag_46\n    /* \"#utility.yul\":793:796   */\n  dup5\n    /* \"#utility.yul\":785:791   */\n  dup3\n    /* \"#utility.yul\":778:782   */\n  0x20\n    /* \"#utility.yul\":770:776   */\n  dup7\n    /* \"#utility.yul\":766:783   */\n  add\n    /* \"#utility.yul\":707:797   */\n  tag_30\n  jump\t// in\ntag_46:\n    /* \"#utility.yul\":698:797   */\n  swap2\n  pop\n    /* \"#utility.yul\":521:803   */\n  pop\n    /* \"#utility.yul\":448:803   */\n  swap3\n  swap2\n  pop\n  pop\n  jump\t// out\n    /* \"#utility.yul\":809:1333   */\ntag_5:\n    /* \"#utility.yul\":889:895   */\n  0x00\n    /* \"#utility.yul\":938:940   */\n  0x20\n    /* \"#utility.yul\":926:935   */\n  dup3\n    /* \"#utility.yul\":917:924   */\n  dup5\n    /* \"#utility.yul\":913:936   */\n  sub\n    /* \"#utility.yul\":909:941   */\n  slt\n    /* \"#utility.yul\":906:1025   */\n  iszero\n  tag_48\n  jumpi\n    /* \"#utility.yul\":944:1023   */\n  tag_49\n  tag_50\n  jump\t// in\ntag_49:\n    /* \"#utility.yul\":906:1025   */\ntag_48:\n    /* \"#utility.yul\":1085:1086   */\n  0x00\n    /* \"#utility.yul\":1074:1083   */\n  dup3\n    /* \"#utility.yul\":1070:1087   */\n  add\n    /* \"#utility.yul\":1064:1088   */\n  mload\n    /* \"#utility.yul\":1115:1133   */\n  0xffffffffffffffff\n    /* \"#utility.yul\":1107:1113   */\n  dup2\n    /* \"#utility.yul\":1104:1134   */\n  gt\n    /* \"#utility.yul\":1101:1218   */\n  iszero\n  tag_51\n  jumpi\n    /* \"#utility.yul\":1137:1216   */\n  tag_52\n  tag_53\n  jump\t// in\ntag_52:\n    /* \"#utility.yul\":1101:1218   */\ntag_51:\n    /* \"#utility.yul\":1242:1316   */\n  tag_54\n    /* \"#utility.yul\":1308:1315   */\n  dup5\n    /* \"#utility.yul\":1299:1305   */\n  dup3\n    /* \"#utility.yul\":1288:1297   */\n  dup6\n    /* \"#utility.yul\":1284:1306   */\n  add\n    /* \"#utility.yul\":1242:1316   */\n  tag_41\n  jump\t// in\ntag_54:\n    /* \"#utility.yul\":1232:1316   */\n  swap2\n  pop\n    /* \"#utility.yul\":1035:1326   */\n  pop\n    /* \"#utility.yul\":809:1333   */\n  swap3\n  swap2\n  pop\n  pop\n  jump\t// out\n    /* \"#utility.yul\":1339:1468   */\ntag_35:\n    /* \"#utility.yul\":1373:1379   */\n  0x00\n    /* \"#utility.yul\":1400:1420   */\n  tag_56\n  tag_57\n  jump\t// in\ntag_56:\n    /* \"#utility.yul\":1390:1420   */\n  swap1\n  pop\n    /* \"#utility.yul\":1429:1462   */\n  tag_58\n    /* \"#utility.yul\":1457:1461   */\n  dup3\n    /* \"#utility.yul\":1449:1455   */\n  dup3\n    /* \"#utility.yul\":1429:1462   */\n  tag_59\n  jump\t// in\ntag_58:\n    /* \"#utility.yul\":1339:1468   */\n  swap2\n  swap1\n  pop\n  jump\t// out\n    /* \"#utility.yul\":1474:1549   */\ntag_57:\n    /* \"#utility.yul\":1507:1513   */\n  0x00\n    /* \"#utility.yul\":1540:1542   */\n  0x40\n    /* \"#utility.yul\":1534:1543   */\n  mload\n    /* \"#utility.yul\":1524:1543   */\n  swap1\n  pop\n    /* \"#utility.yul\":1474:1549   */\n  swap1\n  jump\t// out\n    /* \"#utility.yul\":1555:1863   */\ntag_34:\n    /* \"#utility.yul\":1617:1621   */\n  0x00\n    /* \"#utility.yul\":1707:1725   */\n  0xffffffffffffffff\n    /* \"#utility.yul\":1699:1705   */\n  dup3\n    /* \"#utility.yul\":1696:1726   */\n  gt\n    /* \"#utility.yul\":1693:1749   */\n  iszero\n  tag_62\n  jumpi\n    /* \"#utility.yul\":1729:1747   */\n  tag_63\n  tag_64\n  jump\t// in\ntag_63:\n    /* \"#utility.yul\":1693:1749   */\ntag_62:\n    /* \"#utility.yul\":1767:1796   */\n  tag_65\n    /* \"#utility.yul\":1789:1795   */\n  dup3\n    /* \"#utility.yul\":1767:1796   */\n  tag_66\n  jump\t// in\ntag_65:\n    /* \"#utility.yul\":1759:1796   */\n  swap1\n  pop\n    /* \"#utility.yul\":1851:1855   */\n  0x20\n    /* \"#utility.yul\":1845:1849   */\n  dup2\n    /* \"#utility.yul\":1841:1856   */\n  add\n    /* \"#utility.yul\":1833:1856   */\n  swap1\n  pop\n    /* \"#utility.yul\":1555:1863   */\n  swap2\n  swap1\n  pop\n  jump\t// out\n    /* \"#utility.yul\":1869:2176   */\ntag_40:\n    /* \"#utility.yul\":1937:1938   */\n  0x00\n    /* \"#utility.yul\":1947:2060   */\ntag_68:\n    /* \"#utility.yul\":1961:1967   */\n  dup4\n    /* \"#utility.yul\":1958:1959   */\n  dup2\n    /* \"#utility.yul\":1955:1968   */\n  lt\n    /* \"#utility.yul\":1947:2060   */\n  iszero\n  tag_70\n  jumpi\n    /* \"#utility.yul\":2046:2047   */\n  dup1\n    /* \"#utility.yul\":2041:2044   */\n  dup3\n    /* \"#utility.yul\":2037:2048   */\n  add\n    /* \"#utility.yul\":2031:2049   */\n  mload\n    /* \"#utility.yul\":2027:2028   */\n  dup2\n    /* \"#utility.yul\":2022:2025   */\n  dup5\n    /* \"#utility.yul\":2018:2029   */\n  add\n    /* \"#utility.yul\":2011:2050   */\n  mstore\n    /* \"#utility.yul\":1983:1985   */\n  0x20\n    /* \"#utility.yul\":1980:1981   */\n  dup2\n    /* \"#utility.yul\":1976:1986   */\n  add\n    /* \"#utility.yul\":1971:1986   */\n  swap1\n  pop\n    /* \"#utility.yul\":1947:2060   */\n  jump(tag_68)\ntag_70:\n    /* \"#utility.yul\":2078:2084   */\n  dup4\n    /* \"#utility.yul\":2075:2076   */\n  dup2\n    /* \"#utility.yul\":2072:2085   */\n  gt\n    /* \"#utility.yul\":2069:2170   */\n  iszero\n  tag_71\n  jumpi\n    /* \"#utility.yul\":2158:2159   */\n  0x00\n    /* \"#utility.yul\":2149:2155   */\n  dup5\n    /* \"#utility.yul\":2144:2147   */\n  dup5\n    /* \"#utility.yul\":2140:2156   */\n  add\n    /* \"#utility.yul\":2133:2160   */\n  mstore\n    /* \"#utility.yul\":2069:2170   */\ntag_71:\n    /* \"#utility.yul\":1918:2176   */\n  pop\n    /* \"#utility.yul\":1869:2176   */\n  pop\n  pop\n  pop\n  jump\t// out\n    /* \"#utility.yul\":2182:2502   */\ntag_12:\n    /* \"#utility.yul\":2226:2232   */\n  0x00\n    /* \"#utility.yul\":2263:2264   */\n  0x02\n    /* \"#utility.yul\":2257:2261   */\n  dup3\n    /* \"#utility.yul\":2253:2265   */\n  div\n    /* \"#utility.yul\":2243:2265   */\n  swap1\n  pop\n    /* \"#utility.yul\":2310:2311   */\n  0x01\n    /* \"#utility.yul\":2304:2308   */\n  dup3\n    /* \"#utility.yul\":2300:2312   */\n  and\n    /* \"#utility.yul\":2331:2349   */\n  dup1\n    /* \"#utility.yul\":2321:2402   */\n  tag_73\n  jumpi\n    /* \"#utility.yul\":2387:2391   */\n  0x7f\n    /* \"#utility.yul\":2379:2385   */\n  dup3\n    /* \"#utility.yul\":2375:2392   */\n  and\n    /* \"#utility.yul\":2365:2392   */\n  swap2\n  pop\n    /* \"#utility.yul\":2321:2402   */\ntag_73:\n    /* \"#utility.yul\":2449:2451   */\n  0x20\n    /* \"#utility.yul\":2441:2447   */\n  dup3\n    /* \"#utility.yul\":2438:2452   */\n  lt\n    /* \"#utility.yul\":2418:2436   */\n  dup2\n    /* \"#utility.yul\":2415:2453   */\n  eq\n    /* \"#utility.yul\":2412:2496   */\n  iszero\n  tag_74\n  jumpi\n    /* \"#utility.yul\":2468:2486   */\n  tag_75\n  tag_76\n  jump\t// in\ntag_75:\n    /* \"#utility.yul\":2412:2496   */\ntag_74:\n    /* \"#utility.yul\":2233:2502   */\n  pop\n    /* \"#utility.yul\":2182:2502   */\n  swap2\n  swap1\n  pop\n  jump\t// out\n    /* \"#utility.yul\":2508:2789   */\ntag_59:\n    /* \"#utility.yul\":2591:2618   */\n  tag_78\n    /* \"#utility.yul\":2613:2617   */\n  dup3\n    /* \"#utility.yul\":2591:2618   */\n  tag_66\n  jump\t// in\ntag_78:\n    /* \"#utility.yul\":2583:2589   */\n  dup2\n    /* \"#utility.yul\":2579:2619   */\n  add\n    /* \"#utility.yul\":2721:2727   */\n  dup2\n    /* \"#utility.yul\":2709:2719   */\n  dup2\n    /* \"#utility.yul\":2706:2728   */\n  lt\n    /* \"#utility.yul\":2685:2703   */\n  0xffffffffffffffff\n    /* \"#utility.yul\":2673:2683   */\n  dup3\n    /* \"#utility.yul\":2670:2704   */\n  gt\n    /* \"#utility.yul\":2667:2729   */\n  or\n    /* \"#utility.yul\":2664:2752   */\n  iszero\n  tag_79\n  jumpi\n    /* \"#utility.yul\":2732:2750   */\n  tag_80\n  tag_64\n  jump\t// in\ntag_80:\n    /* \"#utility.yul\":2664:2752   */\ntag_79:\n    /* \"#utility.yul\":2772:2782   */\n  dup1\n    /* \"#utility.yul\":2768:2770   */\n  0x40\n    /* \"#utility.yul\":2761:2783   */\n  mstore\n    /* \"#utility.yul\":2551:2789   */\n  pop\n    /* \"#utility.yul\":2508:2789   */\n  pop\n  pop\n  jump\t// out\n    /* \"#utility.yul\":2795:2975   */\ntag_76:\n    /* \"#utility.yul\":2843:2920   */\n  0x4e487b7100000000000000000000000000000000000000000000000000000000\n    /* \"#utility.yul\":2840:2841   */\n  0x00\n    /* \"#utility.yul\":2833:2921   */\n  mstore\n    /* \"#utility.yul\":2940:2944   */\n  0x22\n    /* \"#utility.yul\":2937:2938   */\n  0x04\n    /* \"#utility.yul\":2930:2945   */\n  mstore\n    /* \"#utility.yul\":2964:2968   */\n  0x24\n    /* \"#utility.yul\":2961:2962   */\n  0x00\n    /* \"#utility.yul\":2954:2969   */\n  revert\n    /* \"#utility.yul\":2981:3161   */\ntag_64:\n    /* \"#utility.yul\":3029:3106   */\n  0x4e487b7100000000000000000000000000000000000000000000000000000000\n    /* \"#utility.yul\":3026:3027   */\n  0x00\n    /* \"#utility.yul\":3019:3107   */\n  mstore\n    /* \"#utility.yul\":3126:3130   */\n  0x41\n    /* \"#utility.yul\":3123:3124   */\n  0x04\n    /* \"#utility.yul\":3116:3131   */\n  mstore\n    /* \"#utility.yul\":3150:3154   */\n  0x24\n    /* \"#utility.yul\":3147:3148   */\n  0x00\n    /* \"#utility.yul\":3140:3155   */\n  revert\n    /* \"#utility.yul\":3167:3284   */\ntag_45:\n    /* \"#utility.yul\":3276:3277   */\n  0x00\n    /* \"#utility.yul\":3273:3274   */\n  dup1\n    /* \"#utility.yul\":3266:3278   */\n  revert\n    /* \"#utility.yul\":3290:3407   */\ntag_38:\n    /* \"#utility.yul\":3399:3400   */\n  0x00\n    /* \"#utility.yul\":3396:3397   */\n  dup1\n    /* \"#utility.yul\":3389:3401   */\n  revert\n    /* \"#utility.yul\":3413:3530   */\ntag_53:\n    /* \"#utility.yul\":3522:3523   */\n  0x00\n    /* \"#utility.yul\":3519:3520   */\n  dup1\n    /* \"#utility.yul\":3512:3524   */\n  revert\n    /* \"#utility.yul\":3536:3653   */\ntag_50:\n    /* \"#utility.yul\":3645:3646   */\n  0x00\n    /* \"#utility.yul\":3642:3643   */\n  dup1\n    /* \"#utility.yul\":3635:3647   */\n  revert\n    /* \"#utility.yul\":3659:3761   */\ntag_66:\n    /* \"#utility.yul\":3700:3706   */\n  0x00\n    /* \"#utility.yul\":3751:3753   */\n  0x1f\n    /* \"#utility.yul\":3747:3754   */\n  not\n    /* \"#utility.yul\":3742:3744   */\n  0x1f\n    /* \"#utility.yul\":3735:3740   */\n  dup4\n    /* \"#utility.yul\":3731:3745   */\n  add\n    /* \"#utility.yul\":3727:3755   */\n  and\n    /* \"#utility.yul\":3717:3755   */\n  swap1\n  pop\n    /* \"#utility.yul\":3659:3761   */\n  swap2\n  swap1\n  pop\n  jump\t// out\n    /* \"Dropsite.sol\":122:4074  contract Dropsite is ERC1155_Dropsite  { ... */\ntag_10:\n  dataSize(sub_0)\n  dup1\n  dataOffset(sub_0)\n  0x00\n  codecopy\n  0x00\n  return\nstop\n\nsub_0: assembly {\n        /* \"Dropsite.sol\":122:4074  contract Dropsite is ERC1155_Dropsite  { ... */\n      mstore(0x40, 0x80)\n      callvalue\n      dup1\n      iszero\n      tag_1\n      jumpi\n      0x00\n      dup1\n      revert\n    tag_1:\n      pop\n      jumpi(tag_2, lt(calldatasize, 0x04))\n      shr(0xe0, calldataload(0x00))\n      dup1\n      0x60daa851\n      gt\n      tag_11\n      jumpi\n      dup1\n      0x60daa851\n      eq\n      tag_7\n      jumpi\n      dup1\n      0xaa90c726\n      eq\n      tag_8\n      jumpi\n      dup1\n      0xb4a99a4e\n      eq\n      tag_9\n      jumpi\n      dup1\n      0xfd93d41c\n      eq\n      tag_10\n      jumpi\n      jump(tag_2)\n    tag_11:\n      dup1\n      0x0390c11c\n      eq\n      tag_3\n      jumpi\n      dup1\n      0x1309a563\n      eq\n      tag_4\n      jumpi\n      dup1\n      0x15460259\n      eq\n      tag_5\n      jumpi\n      dup1\n      0x410f4495\n      eq\n      tag_6\n      jumpi\n    tag_2:\n      0x00\n      dup1\n      revert\n        /* \"Dropsite.sol\":1300:1404  function checkTotalMinted() public view OnlyOwner returns(uint){... */\n    tag_3:\n      tag_12\n      tag_13\n      jump\t// in\n    tag_12:\n      mload(0x40)\n      tag_14\n      swap2\n      swap1\n      tag_15\n      jump\t// in\n    tag_14:\n      mload(0x40)\n      dup1\n      swap2\n      sub\n      swap1\n      return\n        /* \"Dropsite.sol\":780:807  bool public IsPaused = true */\n    tag_4:\n      tag_16\n      tag_17\n      jump\t// in\n    tag_16:\n      mload(0x40)\n      tag_18\n      swap2\n      swap1\n      tag_19\n      jump\t// in\n    tag_18:\n      mload(0x40)\n      dup1\n      swap2\n      sub\n      swap1\n      return\n        /* \"Dropsite.sol\":1552:1688  function openDropsite() public OnlyOwner {... */\n    tag_5:\n      tag_20\n      tag_21\n      jump\t// in\n    tag_20:\n      stop\n        /* \"Dropsite.sol\":2978:4066  function CryptorandomMint(address user_addr) OnlyOwner contractIsNotPaused public returns (uint,string memory) {... */\n    tag_6:\n      tag_22\n      0x04\n      dup1\n      calldatasize\n      sub\n      dup2\n      add\n      swap1\n      tag_23\n      swap2\n      swap1\n      tag_24\n      jump\t// in\n    tag_23:\n      tag_25\n      jump\t// in\n    tag_22:\n      mload(0x40)\n      tag_26\n      swap3\n      swap2\n      swap1\n      tag_27\n      jump\t// in\n    tag_26:\n      mload(0x40)\n      dup1\n      swap2\n      sub\n      swap1\n      return\n        /* \"Dropsite.sol\":1167:1295  function checkMintedCategoryWise() public view OnlyOwner returns(uint,uint,uint){... */\n    tag_7:\n      tag_28\n      tag_29\n      jump\t// in\n    tag_28:\n      mload(0x40)\n      tag_30\n      swap4\n      swap3\n      swap2\n      swap1\n      tag_31\n      jump\t// in\n    tag_30:\n      mload(0x40)\n      dup1\n      swap2\n      sub\n      swap1\n      return\n        /* \"Dropsite.sol\":1410:1545  function stopDropsite() public OnlyOwner{... */\n    tag_8:\n      tag_32\n      tag_33\n      jump\t// in\n    tag_32:\n      stop\n        /* \"Dropsite.sol\":813:842  address payable public  Owner */\n    tag_9:\n      tag_34\n      tag_35\n      jump\t// in\n    tag_34:\n      mload(0x40)\n      tag_36\n      swap2\n      swap1\n      tag_37\n      jump\t// in\n    tag_36:\n      mload(0x40)\n      dup1\n      swap2\n      sub\n      swap1\n      return\n        /* \"Dropsite.sol\":1880:2966  function FiatrandomMint(address user_addr) OnlyOwner contractIsNotPaused public returns (uint,string memory) {... */\n    tag_10:\n      tag_38\n      0x04\n      dup1\n      calldatasize\n      sub\n      dup2\n      add\n      swap1\n      tag_39\n      swap2\n      swap1\n      tag_24\n      jump\t// in\n    tag_39:\n      tag_40\n      jump\t// in\n    tag_38:\n      mload(0x40)\n      tag_41\n      swap3\n      swap2\n      swap1\n      tag_27\n      jump\t// in\n    tag_41:\n      mload(0x40)\n      dup1\n      swap2\n      sub\n      swap1\n      return\n        /* \"Dropsite.sol\":1300:1404  function checkTotalMinted() public view OnlyOwner returns(uint){... */\n    tag_13:\n        /* \"Dropsite.sol\":1358:1362  uint */\n      0x00\n        /* \"Dropsite.sol\":552:557  Owner */\n      0x0a\n      0x01\n      swap1\n      sload\n      swap1\n      0x0100\n      exp\n      swap1\n      div\n      0xffffffffffffffffffffffffffffffffffffffff\n      and\n        /* \"Dropsite.sol\":536:557  _msgSender() == Owner */\n      0xffffffffffffffffffffffffffffffffffffffff\n      and\n        /* \"Dropsite.sol\":536:548  _msgSender() */\n      tag_43\n        /* \"Dropsite.sol\":536:546  _msgSender */\n      tag_44\n        /* \"Dropsite.sol\":536:548  _msgSender() */\n      jump\t// in\n    tag_43:\n        /* \"Dropsite.sol\":536:557  _msgSender() == Owner */\n      0xffffffffffffffffffffffffffffffffffffffff\n      and\n      eq\n        /* \"Dropsite.sol\":528:590  require(_msgSender() == Owner, \"Only NFT-ES Owner can Access\") */\n      tag_45\n      jumpi\n      mload(0x40)\n      0x08c379a000000000000000000000000000000000000000000000000000000000\n      dup2\n      mstore\n      0x04\n      add\n      tag_46\n      swap1\n      tag_47\n      jump\t// in\n    tag_46:\n      mload(0x40)\n      dup1\n      swap2\n      sub\n      swap1\n      revert\n    tag_45:\n        /* \"Dropsite.sol\":1381:1396  TotalNFTsMinted */\n      sload(0x03)\n        /* \"Dropsite.sol\":1374:1396  return TotalNFTsMinted */\n      swap1\n      pop\n        /* \"Dropsite.sol\":1300:1404  function checkTotalMinted() public view OnlyOwner returns(uint){... */\n      swap1\n      jump\t// out\n        /* \"Dropsite.sol\":780:807  bool public IsPaused = true */\n    tag_17:\n      0x0a\n      0x00\n      swap1\n      sload\n      swap1\n      0x0100\n      exp\n      swap1\n      div\n      0xff\n      and\n      dup2\n      jump\t// out\n        /* \"Dropsite.sol\":1552:1688  function openDropsite() public OnlyOwner {... */\n    tag_21:\n        /* \"Dropsite.sol\":552:557  Owner */\n      0x0a\n      0x01\n      swap1\n      sload\n      swap1\n      0x0100\n      exp\n      swap1\n      div\n      0xffffffffffffffffffffffffffffffffffffffff\n      and\n        /* \"Dropsite.sol\":536:557  _msgSender() == Owner */\n      0xffffffffffffffffffffffffffffffffffffffff\n      and\n        /* \"Dropsite.sol\":536:548  _msgSender() */\n      tag_50\n        /* \"Dropsite.sol\":536:546  _msgSender */\n      tag_44\n        /* \"Dropsite.sol\":536:548  _msgSender() */\n      jump\t// in\n    tag_50:\n        /* \"Dropsite.sol\":536:557  _msgSender() == Owner */\n      0xffffffffffffffffffffffffffffffffffffffff\n      and\n      eq\n        /* \"Dropsite.sol\":528:590  require(_msgSender() == Owner, \"Only NFT-ES Owner can Access\") */\n      tag_51\n      jumpi\n      mload(0x40)\n      0x08c379a000000000000000000000000000000000000000000000000000000000\n      dup2\n      mstore\n      0x04\n      add\n      tag_52\n      swap1\n      tag_47\n      jump\t// in\n    tag_52:\n      mload(0x40)\n      dup1\n      swap2\n      sub\n      swap1\n      revert\n    tag_51:\n        /* \"Dropsite.sol\":1621:1625  true */\n      0x01\n        /* \"Dropsite.sol\":1611:1625  IsPaused==true */\n      iszero\n      iszero\n        /* \"Dropsite.sol\":1611:1619  IsPaused */\n      0x0a\n      0x00\n      swap1\n      sload\n      swap1\n      0x0100\n      exp\n      swap1\n      div\n      0xff\n      and\n        /* \"Dropsite.sol\":1611:1625  IsPaused==true */\n      iszero\n      iszero\n      eq\n        /* \"Dropsite.sol\":1603:1657  require(IsPaused==true, \"Dropsite is already Running\") */\n      tag_54\n      jumpi\n      mload(0x40)\n      0x08c379a000000000000000000000000000000000000000000000000000000000\n      dup2\n      mstore\n      0x04\n      add\n      tag_55\n      swap1\n      tag_56\n      jump\t// in\n    tag_55:\n      mload(0x40)\n      dup1\n      swap2\n      sub\n      swap1\n      revert\n    tag_54:\n        /* \"Dropsite.sol\":1676:1681  false */\n      0x00\n        /* \"Dropsite.sol\":1667:1675  IsPaused */\n      0x0a\n      0x00\n        /* \"Dropsite.sol\":1667:1681  IsPaused=false */\n      0x0100\n      exp\n      dup2\n      sload\n      dup2\n      0xff\n      mul\n      not\n      and\n      swap1\n      dup4\n      iszero\n      iszero\n      mul\n      or\n      swap1\n      sstore\n      pop\n        /* \"Dropsite.sol\":1552:1688  function openDropsite() public OnlyOwner {... */\n      jump\t// out\n        /* \"Dropsite.sol\":2978:4066  function CryptorandomMint(address user_addr) OnlyOwner contractIsNotPaused public returns (uint,string memory) {... */\n    tag_25:\n        /* \"Dropsite.sol\":3069:3073  uint */\n      0x00\n        /* \"Dropsite.sol\":3074:3087  string memory */\n      0x60\n        /* \"Dropsite.sol\":552:557  Owner */\n      0x0a\n      0x01\n      swap1\n      sload\n      swap1\n      0x0100\n      exp\n      swap1\n      div\n      0xffffffffffffffffffffffffffffffffffffffff\n      and\n        /* \"Dropsite.sol\":536:557  _msgSender() == Owner */\n      0xffffffffffffffffffffffffffffffffffffffff\n      and\n        /* \"Dropsite.sol\":536:548  _msgSender() */\n      tag_58\n        /* \"Dropsite.sol\":536:546  _msgSender */\n      tag_44\n        /* \"Dropsite.sol\":536:548  _msgSender() */\n      jump\t// in\n    tag_58:\n        /* \"Dropsite.sol\":536:557  _msgSender() == Owner */\n      0xffffffffffffffffffffffffffffffffffffffff\n      and\n      eq\n        /* \"Dropsite.sol\":528:590  require(_msgSender() == Owner, \"Only NFT-ES Owner can Access\") */\n      tag_59\n      jumpi\n      mload(0x40)\n      0x08c379a000000000000000000000000000000000000000000000000000000000\n      dup2\n      mstore\n      0x04\n      add\n      tag_60\n      swap1\n      tag_47\n      jump\t// in\n    tag_60:\n      mload(0x40)\n      dup1\n      swap2\n      sub\n      swap1\n      revert\n    tag_59:\n        /* \"Dropsite.sol\":717:722  false */\n      0x00\n        /* \"Dropsite.sol\":705:722  IsPaused == false */\n      iszero\n      iszero\n        /* \"Dropsite.sol\":705:713  IsPaused */\n      0x0a\n      0x00\n      swap1\n      sload\n      swap1\n      0x0100\n      exp\n      swap1\n      div\n      0xff\n      and\n        /* \"Dropsite.sol\":705:722  IsPaused == false */\n      iszero\n      iszero\n      eq\n        /* \"Dropsite.sol\":696:755  require (IsPaused == false, \"Dropsite is not Opened Yet.\" ) */\n      tag_62\n      jumpi\n      mload(0x40)\n      0x08c379a000000000000000000000000000000000000000000000000000000000\n      dup2\n      mstore\n      0x04\n      add\n      tag_63\n      swap1\n      tag_64\n      jump\t// in\n    tag_63:\n      mload(0x40)\n      dup1\n      swap2\n      sub\n      swap1\n      revert\n    tag_62:\n        /* \"Dropsite.sol\":3120:3123  100 */\n      0x64\n        /* \"Dropsite.sol\":3104:3119  TotalNFTsMinted */\n      sload(0x03)\n        /* \"Dropsite.sol\":3104:3123  TotalNFTsMinted<100 */\n      lt\n        /* \"Dropsite.sol\":3096:3153  require(TotalNFTsMinted<100, \"Max Minting Limit reached\") */\n      tag_66\n      jumpi\n      mload(0x40)\n      0x08c379a000000000000000000000000000000000000000000000000000000000\n      dup2\n      mstore\n      0x04\n      add\n      tag_67\n      swap1\n      tag_68\n      jump\t// in\n    tag_67:\n      mload(0x40)\n      dup1\n      swap2\n      sub\n      swap1\n      revert\n    tag_66:\n        /* \"Dropsite.sol\":3158:3168  uint nftId */\n      0x00\n        /* \"Dropsite.sol\":3171:3179  random() */\n      tag_69\n        /* \"Dropsite.sol\":3171:3177  random */\n      tag_70\n        /* \"Dropsite.sol\":3171:3179  random() */\n      jump\t// in\n    tag_69:\n        /* \"Dropsite.sol\":3158:3179  uint nftId = random() */\n      swap1\n      pop\n        /* \"Dropsite.sol\":3299:3300  0 */\n      0x00\n        /* \"Dropsite.sol\":3290:3295  nftId */\n      dup2\n        /* \"Dropsite.sol\":3290:3300  nftId == 0 */\n      eq\n        /* \"Dropsite.sol\":3290:3317  nftId == 0 && Platinum < 15 */\n      dup1\n      iszero\n      tag_71\n      jumpi\n      pop\n        /* \"Dropsite.sol\":3315:3317  15 */\n      0x0f\n        /* \"Dropsite.sol\":3304:3312  Platinum */\n      sload(0x05)\n        /* \"Dropsite.sol\":3304:3317  Platinum < 15 */\n      lt\n        /* \"Dropsite.sol\":3290:3317  nftId == 0 && Platinum < 15 */\n    tag_71:\n        /* \"Dropsite.sol\":3287:3711  if(nftId == 0 && Platinum < 15) {... */\n      iszero\n      tag_72\n      jumpi\n        /* \"Dropsite.sol\":3329:3346  data = \"Platinum\" */\n      mload(0x40)\n      dup1\n      0x40\n      add\n      0x40\n      mstore\n      dup1\n      0x08\n      dup2\n      mstore\n      0x20\n      add\n      0x506c6174696e756d000000000000000000000000000000000000000000000000\n      dup2\n      mstore\n      pop\n        /* \"Dropsite.sol\":3329:3333  data */\n      0x02\n        /* \"Dropsite.sol\":3329:3346  data = \"Platinum\" */\n      swap1\n      dup1\n      mload\n      swap1\n      0x20\n      add\n      swap1\n      tag_73\n      swap3\n      swap2\n      swap1\n      tag_74\n      jump\t// in\n    tag_73:\n      pop\n        /* \"Dropsite.sol\":3356:3364  Platinum */\n      0x05\n      0x00\n        /* \"Dropsite.sol\":3356:3366  Platinum++ */\n      dup2\n      sload\n      dup1\n      swap3\n      swap2\n      swap1\n      tag_75\n      swap1\n      tag_76\n      jump\t// in\n    tag_75:\n      swap2\n      swap1\n      pop\n      sstore\n      pop\n        /* \"Dropsite.sol\":3287:3711  if(nftId == 0 && Platinum < 15) {... */\n      jump(tag_77)\n    tag_72:\n        /* \"Dropsite.sol\":3467:3468  1 */\n      0x01\n        /* \"Dropsite.sol\":3458:3463  nftId */\n      dup2\n        /* \"Dropsite.sol\":3458:3468  nftId <= 1 */\n      gt\n      iszero\n        /* \"Dropsite.sol\":3458:3481  nftId <= 1 && Gold < 35 */\n      dup1\n      iszero\n      tag_78\n      jumpi\n      pop\n        /* \"Dropsite.sol\":3479:3481  35 */\n      0x23\n        /* \"Dropsite.sol\":3472:3476  Gold */\n      sload(0x06)\n        /* \"Dropsite.sol\":3472:3481  Gold < 35 */\n      lt\n        /* \"Dropsite.sol\":3458:3481  nftId <= 1 && Gold < 35 */\n    tag_78:\n        /* \"Dropsite.sol\":3455:3711  if(nftId <= 1 && Gold < 35) {... */\n      iszero\n      tag_79\n      jumpi\n        /* \"Dropsite.sol\":3493:3506  data = \"Gold\" */\n      mload(0x40)\n      dup1\n      0x40\n      add\n      0x40\n      mstore\n      dup1\n      0x04\n      dup2\n      mstore\n      0x20\n      add\n      0x476f6c6400000000000000000000000000000000000000000000000000000000\n      dup2\n      mstore\n      pop\n        /* \"Dropsite.sol\":3493:3497  data */\n      0x02\n        /* \"Dropsite.sol\":3493:3506  data = \"Gold\" */\n      swap1\n      dup1\n      mload\n      swap1\n      0x20\n      add\n      swap1\n      tag_80\n      swap3\n      swap2\n      swap1\n      tag_74\n      jump\t// in\n    tag_80:\n      pop\n        /* \"Dropsite.sol\":3516:3520  Gold */\n      0x06\n      0x00\n        /* \"Dropsite.sol\":3516:3522  Gold++ */\n      dup2\n      sload\n      dup1\n      swap3\n      swap2\n      swap1\n      tag_81\n      swap1\n      tag_76\n      jump\t// in\n    tag_81:\n      swap2\n      swap1\n      pop\n      sstore\n      pop\n        /* \"Dropsite.sol\":3455:3711  if(nftId <= 1 && Gold < 35) {... */\n      jump(tag_82)\n    tag_79:\n        /* \"Dropsite.sol\":3644:3645  2 */\n      0x02\n        /* \"Dropsite.sol\":3635:3640  nftId */\n      dup2\n        /* \"Dropsite.sol\":3635:3645  nftId <= 2 */\n      gt\n      iszero\n        /* \"Dropsite.sol\":3635:3661  nftId <= 2 && Silver <= 50 */\n      dup1\n      iszero\n      tag_83\n      jumpi\n      pop\n        /* \"Dropsite.sol\":3659:3661  50 */\n      0x32\n        /* \"Dropsite.sol\":3649:3655  Silver */\n      sload(0x07)\n        /* \"Dropsite.sol\":3649:3661  Silver <= 50 */\n      gt\n      iszero\n        /* \"Dropsite.sol\":3635:3661  nftId <= 2 && Silver <= 50 */\n    tag_83:\n        /* \"Dropsite.sol\":3632:3711  if(nftId <= 2 && Silver <= 50) {... */\n      iszero\n      tag_84\n      jumpi\n        /* \"Dropsite.sol\":3673:3686  data=\"Silver\" */\n      mload(0x40)\n      dup1\n      0x40\n      add\n      0x40\n      mstore\n      dup1\n      0x06\n      dup2\n      mstore\n      0x20\n      add\n      0x53696c7665720000000000000000000000000000000000000000000000000000\n      dup2\n      mstore\n      pop\n        /* \"Dropsite.sol\":3673:3677  data */\n      0x02\n        /* \"Dropsite.sol\":3673:3686  data=\"Silver\" */\n      swap1\n      dup1\n      mload\n      swap1\n      0x20\n      add\n      swap1\n      tag_85\n      swap3\n      swap2\n      swap1\n      tag_74\n      jump\t// in\n    tag_85:\n      pop\n        /* \"Dropsite.sol\":3696:3702  Silver */\n      0x07\n      0x00\n        /* \"Dropsite.sol\":3696:3704  Silver++ */\n      dup2\n      sload\n      dup1\n      swap3\n      swap2\n      swap1\n      tag_86\n      swap1\n      tag_76\n      jump\t// in\n    tag_86:\n      swap2\n      swap1\n      pop\n      sstore\n      pop\n        /* \"Dropsite.sol\":3632:3711  if(nftId <= 2 && Silver <= 50) {... */\n    tag_84:\n        /* \"Dropsite.sol\":3455:3711  if(nftId <= 1 && Gold < 35) {... */\n    tag_82:\n        /* \"Dropsite.sol\":3287:3711  if(nftId == 0 && Platinum < 15) {... */\n    tag_77:\n        /* \"Dropsite.sol\":3920:3962  _mint(user_addr, nftId, numOfCopies, data) */\n      tag_87\n        /* \"Dropsite.sol\":3926:3935  user_addr */\n      dup5\n        /* \"Dropsite.sol\":3937:3942  nftId */\n      dup3\n        /* \"Dropsite.sol\":3944:3955  numOfCopies */\n      sload(0x04)\n        /* \"Dropsite.sol\":3957:3961  data */\n      0x02\n        /* \"Dropsite.sol\":3920:3962  _mint(user_addr, nftId, numOfCopies, data) */\n      dup1\n      sload\n      tag_88\n      swap1\n      tag_89\n      jump\t// in\n    tag_88:\n      dup1\n      0x1f\n      add\n      0x20\n      dup1\n      swap2\n      div\n      mul\n      0x20\n      add\n      mload(0x40)\n      swap1\n      dup2\n      add\n      0x40\n      mstore\n      dup1\n      swap3\n      swap2\n      swap1\n      dup2\n      dup2\n      mstore\n      0x20\n      add\n      dup3\n      dup1\n      sload\n      tag_90\n      swap1\n      tag_89\n      jump\t// in\n    tag_90:\n      dup1\n      iszero\n      tag_91\n      jumpi\n      dup1\n      0x1f\n      lt\n      tag_92\n      jumpi\n      0x0100\n      dup1\n      dup4\n      sload\n      div\n      mul\n      dup4\n      mstore\n      swap2\n      0x20\n      add\n      swap2\n      jump(tag_91)\n    tag_92:\n      dup3\n      add\n      swap2\n      swap1\n      0x00\n      mstore\n      keccak256(0x00, 0x20)\n      swap1\n    tag_93:\n      dup2\n      sload\n      dup2\n      mstore\n      swap1\n      0x01\n      add\n      swap1\n      0x20\n      add\n      dup1\n      dup4\n      gt\n      tag_93\n      jumpi\n      dup3\n      swap1\n      sub\n      0x1f\n      and\n      dup3\n      add\n      swap2\n    tag_91:\n      pop\n      pop\n      pop\n      pop\n      pop\n        /* \"Dropsite.sol\":3920:3925  _mint */\n      tag_94\n        /* \"Dropsite.sol\":3920:3962  _mint(user_addr, nftId, numOfCopies, data) */\n      jump\t// in\n    tag_87:\n        /* \"Dropsite.sol\":3968:3983  TotalNFTsMinted */\n      0x03\n      0x00\n        /* \"Dropsite.sol\":3968:3985  TotalNFTsMinted++ */\n      dup2\n      sload\n      dup1\n      swap3\n      swap2\n      swap1\n      tag_95\n      swap1\n      tag_76\n      jump\t// in\n    tag_95:\n      swap2\n      swap1\n      pop\n      sstore\n      pop\n        /* \"Dropsite.sol\":4021:4026  nftId */\n      dup1\n        /* \"Dropsite.sol\":3991:4009  dropsite_NFT_Owner */\n      0x08\n        /* \"Dropsite.sol\":3991:4020  dropsite_NFT_Owner[user_addr] */\n      0x00\n        /* \"Dropsite.sol\":4010:4019  user_addr */\n      dup7\n        /* \"Dropsite.sol\":3991:4020  dropsite_NFT_Owner[user_addr] */\n      0xffffffffffffffffffffffffffffffffffffffff\n      and\n      0xffffffffffffffffffffffffffffffffffffffff\n      and\n      dup2\n      mstore\n      0x20\n      add\n      swap1\n      dup2\n      mstore\n      0x20\n      add\n      0x00\n      keccak256\n        /* \"Dropsite.sol\":3991:4026  dropsite_NFT_Owner[user_addr]=nftId */\n      dup2\n      swap1\n      sstore\n      pop\n        /* \"Dropsite.sol\":4040:4045  nftId */\n      dup1\n        /* \"Dropsite.sol\":4053:4057  data */\n      0x02\n        /* \"Dropsite.sol\":4032:4059  return (nftId,string(data)) */\n      dup1\n      dup1\n      sload\n      tag_96\n      swap1\n      tag_89\n      jump\t// in\n    tag_96:\n      dup1\n      0x1f\n      add\n      0x20\n      dup1\n      swap2\n      div\n      mul\n      0x20\n      add\n      mload(0x40)\n      swap1\n      dup2\n      add\n      0x40\n      mstore\n      dup1\n      swap3\n      swap2\n      swap1\n      dup2\n      dup2\n      mstore\n      0x20\n      add\n      dup3\n      dup1\n      sload\n      tag_97\n      swap1\n      tag_89\n      jump\t// in\n    tag_97:\n      dup1\n      iszero\n      tag_98\n      jumpi\n      dup1\n      0x1f\n      lt\n      tag_99\n      jumpi\n      0x0100\n      dup1\n      dup4\n      sload\n      div\n      mul\n      dup4\n      mstore\n      swap2\n      0x20\n      add\n      swap2\n      jump(tag_98)\n    tag_99:\n      dup3\n      add\n      swap2\n      swap1\n      0x00\n      mstore\n      keccak256(0x00, 0x20)\n      swap1\n    tag_100:\n      dup2\n      sload\n      dup2\n      mstore\n      swap1\n      0x01\n      add\n      swap1\n      0x20\n      add\n      dup1\n      dup4\n      gt\n      tag_100\n      jumpi\n      dup3\n      swap1\n      sub\n      0x1f\n      and\n      dup3\n      add\n      swap2\n    tag_98:\n      pop\n      pop\n      pop\n      pop\n      pop\n      swap1\n      pop\n      swap3\n      pop\n      swap3\n      pop\n      pop\n        /* \"Dropsite.sol\":2978:4066  function CryptorandomMint(address user_addr) OnlyOwner contractIsNotPaused public returns (uint,string memory) {... */\n      swap2\n      pop\n      swap2\n      jump\t// out\n        /* \"Dropsite.sol\":1167:1295  function checkMintedCategoryWise() public view OnlyOwner returns(uint,uint,uint){... */\n    tag_29:\n        /* \"Dropsite.sol\":1232:1236  uint */\n      0x00\n        /* \"Dropsite.sol\":1237:1241  uint */\n      dup1\n        /* \"Dropsite.sol\":1242:1246  uint */\n      0x00\n        /* \"Dropsite.sol\":552:557  Owner */\n      0x0a\n      0x01\n      swap1\n      sload\n      swap1\n      0x0100\n      exp\n      swap1\n      div\n      0xffffffffffffffffffffffffffffffffffffffff\n      and\n        /* \"Dropsite.sol\":536:557  _msgSender() == Owner */\n      0xffffffffffffffffffffffffffffffffffffffff\n      and\n        /* \"Dropsite.sol\":536:548  _msgSender() */\n      tag_102\n        /* \"Dropsite.sol\":536:546  _msgSender */\n      tag_44\n        /* \"Dropsite.sol\":536:548  _msgSender() */\n      jump\t// in\n    tag_102:\n        /* \"Dropsite.sol\":536:557  _msgSender() == Owner */\n      0xffffffffffffffffffffffffffffffffffffffff\n      and\n      eq\n        /* \"Dropsite.sol\":528:590  require(_msgSender() == Owner, \"Only NFT-ES Owner can Access\") */\n      tag_103\n      jumpi\n      mload(0x40)\n      0x08c379a000000000000000000000000000000000000000000000000000000000\n      dup2\n      mstore\n      0x04\n      add\n      tag_104\n      swap1\n      tag_47\n      jump\t// in\n    tag_104:\n      mload(0x40)\n      dup1\n      swap2\n      sub\n      swap1\n      revert\n    tag_103:\n        /* \"Dropsite.sol\":1266:1274  Platinum */\n      sload(0x05)\n        /* \"Dropsite.sol\":1275:1279  Gold */\n      sload(0x06)\n        /* \"Dropsite.sol\":1280:1286  Silver */\n      sload(0x07)\n        /* \"Dropsite.sol\":1258:1287  return (Platinum,Gold,Silver) */\n      swap3\n      pop\n      swap3\n      pop\n      swap3\n      pop\n        /* \"Dropsite.sol\":1167:1295  function checkMintedCategoryWise() public view OnlyOwner returns(uint,uint,uint){... */\n      swap1\n      swap2\n      swap3\n      jump\t// out\n        /* \"Dropsite.sol\":1410:1545  function stopDropsite() public OnlyOwner{... */\n    tag_33:\n        /* \"Dropsite.sol\":552:557  Owner */\n      0x0a\n      0x01\n      swap1\n      sload\n      swap1\n      0x0100\n      exp\n      swap1\n      div\n      0xffffffffffffffffffffffffffffffffffffffff\n      and\n        /* \"Dropsite.sol\":536:557  _msgSender() == Owner */\n      0xffffffffffffffffffffffffffffffffffffffff\n      and\n        /* \"Dropsite.sol\":536:548  _msgSender() */\n      tag_107\n        /* \"Dropsite.sol\":536:546  _msgSender */\n      tag_44\n        /* \"Dropsite.sol\":536:548  _msgSender() */\n      jump\t// in\n    tag_107:\n        /* \"Dropsite.sol\":536:557  _msgSender() == Owner */\n      0xffffffffffffffffffffffffffffffffffffffff\n      and\n      eq\n        /* \"Dropsite.sol\":528:590  require(_msgSender() == Owner, \"Only NFT-ES Owner can Access\") */\n      tag_108\n      jumpi\n      mload(0x40)\n      0x08c379a000000000000000000000000000000000000000000000000000000000\n      dup2\n      mstore\n      0x04\n      add\n      tag_109\n      swap1\n      tag_47\n      jump\t// in\n    tag_109:\n      mload(0x40)\n      dup1\n      swap2\n      sub\n      swap1\n      revert\n    tag_108:\n        /* \"Dropsite.sol\":1478:1483  false */\n      0x00\n        /* \"Dropsite.sol\":1468:1483  IsPaused==false */\n      iszero\n      iszero\n        /* \"Dropsite.sol\":1468:1476  IsPaused */\n      0x0a\n      0x00\n      swap1\n      sload\n      swap1\n      0x0100\n      exp\n      swap1\n      div\n      0xff\n      and\n        /* \"Dropsite.sol\":1468:1483  IsPaused==false */\n      iszero\n      iszero\n      eq\n        /* \"Dropsite.sol\":1460:1515  require(IsPaused==false, \"Dropsite is already Stopped\") */\n      tag_111\n      jumpi\n      mload(0x40)\n      0x08c379a000000000000000000000000000000000000000000000000000000000\n      dup2\n      mstore\n      0x04\n      add\n      tag_112\n      swap1\n      tag_113\n      jump\t// in\n    tag_112:\n      mload(0x40)\n      dup1\n      swap2\n      sub\n      swap1\n      revert\n    tag_111:\n        /* \"Dropsite.sol\":1534:1538  true */\n      0x01\n        /* \"Dropsite.sol\":1525:1533  IsPaused */\n      0x0a\n      0x00\n        /* \"Dropsite.sol\":1525:1538  IsPaused=true */\n      0x0100\n      exp\n      dup2\n      sload\n      dup2\n      0xff\n      mul\n      not\n      and\n      swap1\n      dup4\n      iszero\n      iszero\n      mul\n      or\n      swap1\n      sstore\n      pop\n        /* \"Dropsite.sol\":1410:1545  function stopDropsite() public OnlyOwner{... */\n      jump\t// out\n        /* \"Dropsite.sol\":813:842  address payable public  Owner */\n    tag_35:\n      0x0a\n      0x01\n      swap1\n      sload\n      swap1\n      0x0100\n      exp\n      swap1\n      div\n      0xffffffffffffffffffffffffffffffffffffffff\n      and\n      dup2\n      jump\t// out\n        /* \"Dropsite.sol\":1880:2966  function FiatrandomMint(address user_addr) OnlyOwner contractIsNotPaused public returns (uint,string memory) {... */\n    tag_40:\n        /* \"Dropsite.sol\":1969:1973  uint */\n      0x00\n        /* \"Dropsite.sol\":1974:1987  string memory */\n      0x60\n        /* \"Dropsite.sol\":552:557  Owner */\n      0x0a\n      0x01\n      swap1\n      sload\n      swap1\n      0x0100\n      exp\n      swap1\n      div\n      0xffffffffffffffffffffffffffffffffffffffff\n      and\n        /* \"Dropsite.sol\":536:557  _msgSender() == Owner */\n      0xffffffffffffffffffffffffffffffffffffffff\n      and\n        /* \"Dropsite.sol\":536:548  _msgSender() */\n      tag_115\n        /* \"Dropsite.sol\":536:546  _msgSender */\n      tag_44\n        /* \"Dropsite.sol\":536:548  _msgSender() */\n      jump\t// in\n    tag_115:\n        /* \"Dropsite.sol\":536:557  _msgSender() == Owner */\n      0xffffffffffffffffffffffffffffffffffffffff\n      and\n      eq\n        /* \"Dropsite.sol\":528:590  require(_msgSender() == Owner, \"Only NFT-ES Owner can Access\") */\n      tag_116\n      jumpi\n      mload(0x40)\n      0x08c379a000000000000000000000000000000000000000000000000000000000\n      dup2\n      mstore\n      0x04\n      add\n      tag_117\n      swap1\n      tag_47\n      jump\t// in\n    tag_117:\n      mload(0x40)\n      dup1\n      swap2\n      sub\n      swap1\n      revert\n    tag_116:\n        /* \"Dropsite.sol\":717:722  false */\n      0x00\n        /* \"Dropsite.sol\":705:722  IsPaused == false */\n      iszero\n      iszero\n        /* \"Dropsite.sol\":705:713  IsPaused */\n      0x0a\n      0x00\n      swap1\n      sload\n      swap1\n      0x0100\n      exp\n      swap1\n      div\n      0xff\n      and\n        /* \"Dropsite.sol\":705:722  IsPaused == false */\n      iszero\n      iszero\n      eq\n        /* \"Dropsite.sol\":696:755  require (IsPaused == false, \"Dropsite is not Opened Yet.\" ) */\n      tag_119\n      jumpi\n      mload(0x40)\n      0x08c379a000000000000000000000000000000000000000000000000000000000\n      dup2\n      mstore\n      0x04\n      add\n      tag_120\n      swap1\n      tag_64\n      jump\t// in\n    tag_120:\n      mload(0x40)\n      dup1\n      swap2\n      sub\n      swap1\n      revert\n    tag_119:\n        /* \"Dropsite.sol\":2020:2023  100 */\n      0x64\n        /* \"Dropsite.sol\":2004:2019  TotalNFTsMinted */\n      sload(0x03)\n        /* \"Dropsite.sol\":2004:2023  TotalNFTsMinted<100 */\n      lt\n        /* \"Dropsite.sol\":1996:2053  require(TotalNFTsMinted<100, \"Max Minting Limit reached\") */\n      tag_122\n      jumpi\n      mload(0x40)\n      0x08c379a000000000000000000000000000000000000000000000000000000000\n      dup2\n      mstore\n      0x04\n      add\n      tag_123\n      swap1\n      tag_68\n      jump\t// in\n    tag_123:\n      mload(0x40)\n      dup1\n      swap2\n      sub\n      swap1\n      revert\n    tag_122:\n        /* \"Dropsite.sol\":2058:2068  uint nftId */\n      0x00\n        /* \"Dropsite.sol\":2071:2079  random() */\n      tag_124\n        /* \"Dropsite.sol\":2071:2077  random */\n      tag_70\n        /* \"Dropsite.sol\":2071:2079  random() */\n      jump\t// in\n    tag_124:\n        /* \"Dropsite.sol\":2058:2079  uint nftId = random() */\n      swap1\n      pop\n        /* \"Dropsite.sol\":2199:2200  0 */\n      0x00\n        /* \"Dropsite.sol\":2190:2195  nftId */\n      dup2\n        /* \"Dropsite.sol\":2190:2200  nftId == 0 */\n      eq\n        /* \"Dropsite.sol\":2190:2217  nftId == 0 && Platinum < 15 */\n      dup1\n      iszero\n      tag_125\n      jumpi\n      pop\n        /* \"Dropsite.sol\":2215:2217  15 */\n      0x0f\n        /* \"Dropsite.sol\":2204:2212  Platinum */\n      sload(0x05)\n        /* \"Dropsite.sol\":2204:2217  Platinum < 15 */\n      lt\n        /* \"Dropsite.sol\":2190:2217  nftId == 0 && Platinum < 15 */\n    tag_125:\n        /* \"Dropsite.sol\":2187:2611  if(nftId == 0 && Platinum < 15) {... */\n      iszero\n      tag_126\n      jumpi\n        /* \"Dropsite.sol\":2229:2246  data = \"Platinum\" */\n      mload(0x40)\n      dup1\n      0x40\n      add\n      0x40\n      mstore\n      dup1\n      0x08\n      dup2\n      mstore\n      0x20\n      add\n      0x506c6174696e756d000000000000000000000000000000000000000000000000\n      dup2\n      mstore\n      pop\n        /* \"Dropsite.sol\":2229:2233  data */\n      0x02\n        /* \"Dropsite.sol\":2229:2246  data = \"Platinum\" */\n      swap1\n      dup1\n      mload\n      swap1\n      0x20\n      add\n      swap1\n      tag_127\n      swap3\n      swap2\n      swap1\n      tag_74\n      jump\t// in\n    tag_127:\n      pop\n        /* \"Dropsite.sol\":2256:2264  Platinum */\n      0x05\n      0x00\n        /* \"Dropsite.sol\":2256:2266  Platinum++ */\n      dup2\n      sload\n      dup1\n      swap3\n      swap2\n      swap1\n      tag_128\n      swap1\n      tag_76\n      jump\t// in\n    tag_128:\n      swap2\n      swap1\n      pop\n      sstore\n      pop\n        /* \"Dropsite.sol\":2187:2611  if(nftId == 0 && Platinum < 15) {... */\n      jump(tag_129)\n    tag_126:\n        /* \"Dropsite.sol\":2367:2368  1 */\n      0x01\n        /* \"Dropsite.sol\":2358:2363  nftId */\n      dup2\n        /* \"Dropsite.sol\":2358:2368  nftId <= 1 */\n      gt\n      iszero\n        /* \"Dropsite.sol\":2358:2381  nftId <= 1 && Gold < 35 */\n      dup1\n      iszero\n      tag_130\n      jumpi\n      pop\n        /* \"Dropsite.sol\":2379:2381  35 */\n      0x23\n        /* \"Dropsite.sol\":2372:2376  Gold */\n      sload(0x06)\n        /* \"Dropsite.sol\":2372:2381  Gold < 35 */\n      lt\n        /* \"Dropsite.sol\":2358:2381  nftId <= 1 && Gold < 35 */\n    tag_130:\n        /* \"Dropsite.sol\":2355:2611  if(nftId <= 1 && Gold < 35) {... */\n      iszero\n      tag_131\n      jumpi\n        /* \"Dropsite.sol\":2393:2406  data = \"Gold\" */\n      mload(0x40)\n      dup1\n      0x40\n      add\n      0x40\n      mstore\n      dup1\n      0x04\n      dup2\n      mstore\n      0x20\n      add\n      0x476f6c6400000000000000000000000000000000000000000000000000000000\n      dup2\n      mstore\n      pop\n        /* \"Dropsite.sol\":2393:2397  data */\n      0x02\n        /* \"Dropsite.sol\":2393:2406  data = \"Gold\" */\n      swap1\n      dup1\n      mload\n      swap1\n      0x20\n      add\n      swap1\n      tag_132\n      swap3\n      swap2\n      swap1\n      tag_74\n      jump\t// in\n    tag_132:\n      pop\n        /* \"Dropsite.sol\":2416:2420  Gold */\n      0x06\n      0x00\n        /* \"Dropsite.sol\":2416:2422  Gold++ */\n      dup2\n      sload\n      dup1\n      swap3\n      swap2\n      swap1\n      tag_133\n      swap1\n      tag_76\n      jump\t// in\n    tag_133:\n      swap2\n      swap1\n      pop\n      sstore\n      pop\n        /* \"Dropsite.sol\":2355:2611  if(nftId <= 1 && Gold < 35) {... */\n      jump(tag_134)\n    tag_131:\n        /* \"Dropsite.sol\":2544:2545  2 */\n      0x02\n        /* \"Dropsite.sol\":2535:2540  nftId */\n      dup2\n        /* \"Dropsite.sol\":2535:2545  nftId <= 2 */\n      gt\n      iszero\n        /* \"Dropsite.sol\":2535:2561  nftId <= 2 && Silver <= 50 */\n      dup1\n      iszero\n      tag_135\n      jumpi\n      pop\n        /* \"Dropsite.sol\":2559:2561  50 */\n      0x32\n        /* \"Dropsite.sol\":2549:2555  Silver */\n      sload(0x07)\n        /* \"Dropsite.sol\":2549:2561  Silver <= 50 */\n      gt\n      iszero\n        /* \"Dropsite.sol\":2535:2561  nftId <= 2 && Silver <= 50 */\n    tag_135:\n        /* \"Dropsite.sol\":2532:2611  if(nftId <= 2 && Silver <= 50) {... */\n      iszero\n      tag_136\n      jumpi\n        /* \"Dropsite.sol\":2573:2586  data=\"Silver\" */\n      mload(0x40)\n      dup1\n      0x40\n      add\n      0x40\n      mstore\n      dup1\n      0x06\n      dup2\n      mstore\n      0x20\n      add\n      0x53696c7665720000000000000000000000000000000000000000000000000000\n      dup2\n      mstore\n      pop\n        /* \"Dropsite.sol\":2573:2577  data */\n      0x02\n        /* \"Dropsite.sol\":2573:2586  data=\"Silver\" */\n      swap1\n      dup1\n      mload\n      swap1\n      0x20\n      add\n      swap1\n      tag_137\n      swap3\n      swap2\n      swap1\n      tag_74\n      jump\t// in\n    tag_137:\n      pop\n        /* \"Dropsite.sol\":2596:2602  Silver */\n      0x07\n      0x00\n        /* \"Dropsite.sol\":2596:2604  Silver++ */\n      dup2\n      sload\n      dup1\n      swap3\n      swap2\n      swap1\n      tag_138\n      swap1\n      tag_76\n      jump\t// in\n    tag_138:\n      swap2\n      swap1\n      pop\n      sstore\n      pop\n        /* \"Dropsite.sol\":2532:2611  if(nftId <= 2 && Silver <= 50) {... */\n    tag_136:\n        /* \"Dropsite.sol\":2355:2611  if(nftId <= 1 && Gold < 35) {... */\n    tag_134:\n        /* \"Dropsite.sol\":2187:2611  if(nftId == 0 && Platinum < 15) {... */\n    tag_129:\n        /* \"Dropsite.sol\":2820:2862  _mint(user_addr, nftId, numOfCopies, data) */\n      tag_139\n        /* \"Dropsite.sol\":2826:2835  user_addr */\n      dup5\n        /* \"Dropsite.sol\":2837:2842  nftId */\n      dup3\n        /* \"Dropsite.sol\":2844:2855  numOfCopies */\n      sload(0x04)\n        /* \"Dropsite.sol\":2857:2861  data */\n      0x02\n        /* \"Dropsite.sol\":2820:2862  _mint(user_addr, nftId, numOfCopies, data) */\n      dup1\n      sload\n      tag_140\n      swap1\n      tag_89\n      jump\t// in\n    tag_140:\n      dup1\n      0x1f\n      add\n      0x20\n      dup1\n      swap2\n      div\n      mul\n      0x20\n      add\n      mload(0x40)\n      swap1\n      dup2\n      add\n      0x40\n      mstore\n      dup1\n      swap3\n      swap2\n      swap1\n      dup2\n      dup2\n      mstore\n      0x20\n      add\n      dup3\n      dup1\n      sload\n      tag_141\n      swap1\n      tag_89\n      jump\t// in\n    tag_141:\n      dup1\n      iszero\n      tag_142\n      jumpi\n      dup1\n      0x1f\n      lt\n      tag_143\n      jumpi\n      0x0100\n      dup1\n      dup4\n      sload\n      div\n      mul\n      dup4\n      mstore\n      swap2\n      0x20\n      add\n      swap2\n      jump(tag_142)\n    tag_143:\n      dup3\n      add\n      swap2\n      swap1\n      0x00\n      mstore\n      keccak256(0x00, 0x20)\n      swap1\n    tag_144:\n      dup2\n      sload\n      dup2\n      mstore\n      swap1\n      0x01\n      add\n      swap1\n      0x20\n      add\n      dup1\n      dup4\n      gt\n      tag_144\n      jumpi\n      dup3\n      swap1\n      sub\n      0x1f\n      and\n      dup3\n      add\n      swap2\n    tag_142:\n      pop\n      pop\n      pop\n      pop\n      pop\n        /* \"Dropsite.sol\":2820:2825  _mint */\n      tag_94\n        /* \"Dropsite.sol\":2820:2862  _mint(user_addr, nftId, numOfCopies, data) */\n      jump\t// in\n    tag_139:\n        /* \"Dropsite.sol\":2868:2883  TotalNFTsMinted */\n      0x03\n      0x00\n        /* \"Dropsite.sol\":2868:2885  TotalNFTsMinted++ */\n      dup2\n      sload\n      dup1\n      swap3\n      swap2\n      swap1\n      tag_145\n      swap1\n      tag_76\n      jump\t// in\n    tag_145:\n      swap2\n      swap1\n      pop\n      sstore\n      pop\n        /* \"Dropsite.sol\":2921:2926  nftId */\n      dup1\n        /* \"Dropsite.sol\":2891:2909  dropsite_NFT_Owner */\n      0x08\n        /* \"Dropsite.sol\":2891:2920  dropsite_NFT_Owner[user_addr] */\n      0x00\n        /* \"Dropsite.sol\":2910:2919  user_addr */\n      dup7\n        /* \"Dropsite.sol\":2891:2920  dropsite_NFT_Owner[user_addr] */\n      0xffffffffffffffffffffffffffffffffffffffff\n      and\n      0xffffffffffffffffffffffffffffffffffffffff\n      and\n      dup2\n      mstore\n      0x20\n      add\n      swap1\n      dup2\n      mstore\n      0x20\n      add\n      0x00\n      keccak256\n        /* \"Dropsite.sol\":2891:2926  dropsite_NFT_Owner[user_addr]=nftId */\n      dup2\n      swap1\n      sstore\n      pop\n        /* \"Dropsite.sol\":2940:2945  nftId */\n      dup1\n        /* \"Dropsite.sol\":2953:2957  data */\n      0x02\n        /* \"Dropsite.sol\":2932:2959  return (nftId,string(data)) */\n      dup1\n      dup1\n      sload\n      tag_146\n      swap1\n      tag_89\n      jump\t// in\n    tag_146:\n      dup1\n      0x1f\n      add\n      0x20\n      dup1\n      swap2\n      div\n      mul\n      0x20\n      add\n      mload(0x40)\n      swap1\n      dup2\n      add\n      0x40\n      mstore\n      dup1\n      swap3\n      swap2\n      swap1\n      dup2\n      dup2\n      mstore\n      0x20\n      add\n      dup3\n      dup1\n      sload\n      tag_147\n      swap1\n      tag_89\n      jump\t// in\n    tag_147:\n      dup1\n      iszero\n      tag_148\n      jumpi\n      dup1\n      0x1f\n      lt\n      tag_149\n      jumpi\n      0x0100\n      dup1\n      dup4\n      sload\n      div\n      mul\n      dup4\n      mstore\n      swap2\n      0x20\n      add\n      swap2\n      jump(tag_148)\n    tag_149:\n      dup3\n      add\n      swap2\n      swap1\n      0x00\n      mstore\n      keccak256(0x00, 0x20)\n      swap1\n    tag_150:\n      dup2\n      sload\n      dup2\n      mstore\n      swap1\n      0x01\n      add\n      swap1\n      0x20\n      add\n      dup1\n      dup4\n      gt\n      tag_150\n      jumpi\n      dup3\n      swap1\n      sub\n      0x1f\n      and\n      dup3\n      add\n      swap2\n    tag_148:\n      pop\n      pop\n      pop\n      pop\n      pop\n      swap1\n      pop\n      swap3\n      pop\n      swap3\n      pop\n      pop\n        /* \"Dropsite.sol\":1880:2966  function FiatrandomMint(address user_addr) OnlyOwner contractIsNotPaused public returns (uint,string memory) {... */\n      swap2\n      pop\n      swap2\n      jump\t// out\n        /* \"Context.sol\":640:736  function _msgSender() internal view virtual returns (address) {... */\n    tag_44:\n        /* \"Context.sol\":693:700  address */\n      0x00\n        /* \"Context.sol\":719:729  msg.sender */\n      caller\n        /* \"Context.sol\":712:729  return msg.sender */\n      swap1\n      pop\n        /* \"Context.sol\":640:736  function _msgSender() internal view virtual returns (address) {... */\n      swap1\n      jump\t// out\n        /* \"Dropsite.sol\":1698:1869  function random() internal view returns (uint) {... */\n    tag_70:\n        /* \"Dropsite.sol\":1739:1743  uint */\n      0x00\n        /* \"Dropsite.sol\":1751:1768  uint randomnumber */\n      dup1\n        /* \"Dropsite.sol\":1836:1837  3 */\n      0x03\n        /* \"Dropsite.sol\":1803:1818  block.timestamp */\n      timestamp\n        /* \"Dropsite.sol\":1820:1830  msg.sender */\n      caller\n        /* \"Dropsite.sol\":1786:1831  abi.encodePacked(block.timestamp, msg.sender) */\n      add(0x20, mload(0x40))\n      tag_153\n      swap3\n      swap2\n      swap1\n      tag_154\n      jump\t// in\n    tag_153:\n      mload(0x40)\n      0x20\n      dup2\n      dup4\n      sub\n      sub\n      dup2\n      mstore\n      swap1\n      0x40\n      mstore\n        /* \"Dropsite.sol\":1776:1832  keccak256(abi.encodePacked(block.timestamp, msg.sender)) */\n      dup1\n      mload\n      swap1\n      0x20\n      add\n      keccak256\n        /* \"Dropsite.sol\":1771:1833  uint(keccak256(abi.encodePacked(block.timestamp, msg.sender))) */\n      0x00\n      shr\n        /* \"Dropsite.sol\":1771:1837  uint(keccak256(abi.encodePacked(block.timestamp, msg.sender))) % 3 */\n      tag_155\n      swap2\n      swap1\n      tag_156\n      jump\t// in\n    tag_155:\n        /* \"Dropsite.sol\":1751:1837  uint randomnumber = uint(keccak256(abi.encodePacked(block.timestamp, msg.sender))) % 3 */\n      swap1\n      pop\n        /* \"Dropsite.sol\":1850:1862  randomnumber */\n      dup1\n        /* \"Dropsite.sol\":1843:1862  return randomnumber */\n      swap2\n      pop\n      pop\n        /* \"Dropsite.sol\":1698:1869  function random() internal view returns (uint) {... */\n      swap1\n      jump\t// out\n        /* \"ERC1155_Dropsite.sol\":835:1386  function _mint(... */\n    tag_94:\n        /* \"ERC1155_Dropsite.sol\":996:997  0 */\n      0x00\n        /* \"ERC1155_Dropsite.sol\":982:998  to != address(0) */\n      0xffffffffffffffffffffffffffffffffffffffff\n      and\n        /* \"ERC1155_Dropsite.sol\":982:984  to */\n      dup5\n        /* \"ERC1155_Dropsite.sol\":982:998  to != address(0) */\n      0xffffffffffffffffffffffffffffffffffffffff\n      and\n      eq\n      iszero\n        /* \"ERC1155_Dropsite.sol\":974:1036  require(to != address(0), \"ERC1155: mint to the zero address\") */\n      tag_158\n      jumpi\n      mload(0x40)\n      0x08c379a000000000000000000000000000000000000000000000000000000000\n      dup2\n      mstore\n      0x04\n      add\n      tag_159\n      swap1\n      tag_160\n      jump\t// in\n    tag_159:\n      mload(0x40)\n      dup1\n      swap2\n      sub\n      swap1\n      revert\n    tag_158:\n        /* \"ERC1155_Dropsite.sol\":1047:1063  address operator */\n      0x00\n        /* \"ERC1155_Dropsite.sol\":1066:1078  _msgSender() */\n      tag_161\n        /* \"ERC1155_Dropsite.sol\":1066:1076  _msgSender */\n      tag_44\n        /* \"ERC1155_Dropsite.sol\":1066:1078  _msgSender() */\n      jump\t// in\n    tag_161:\n        /* \"ERC1155_Dropsite.sol\":1047:1078  address operator = _msgSender() */\n      swap1\n      pop\n        /* \"ERC1155_Dropsite.sol\":1089:1191  _beforeTokenTransfer(operator, address(0), to, _asSingletonArray(id), _asSingletonArray(amount), data) */\n      tag_162\n        /* \"ERC1155_Dropsite.sol\":1110:1118  operator */\n      dup2\n        /* \"ERC1155_Dropsite.sol\":1128:1129  0 */\n      0x00\n        /* \"ERC1155_Dropsite.sol\":1132:1134  to */\n      dup8\n        /* \"ERC1155_Dropsite.sol\":1136:1157  _asSingletonArray(id) */\n      tag_163\n        /* \"ERC1155_Dropsite.sol\":1154:1156  id */\n      dup9\n        /* \"ERC1155_Dropsite.sol\":1136:1153  _asSingletonArray */\n      tag_164\n        /* \"ERC1155_Dropsite.sol\":1136:1157  _asSingletonArray(id) */\n      jump\t// in\n    tag_163:\n        /* \"ERC1155_Dropsite.sol\":1159:1184  _asSingletonArray(amount) */\n      tag_165\n        /* \"ERC1155_Dropsite.sol\":1177:1183  amount */\n      dup9\n        /* \"ERC1155_Dropsite.sol\":1159:1176  _asSingletonArray */\n      tag_164\n        /* \"ERC1155_Dropsite.sol\":1159:1184  _asSingletonArray(amount) */\n      jump\t// in\n    tag_165:\n        /* \"ERC1155_Dropsite.sol\":1186:1190  data */\n      dup8\n        /* \"ERC1155_Dropsite.sol\":1089:1109  _beforeTokenTransfer */\n      tag_166\n        /* \"ERC1155_Dropsite.sol\":1089:1191  _beforeTokenTransfer(operator, address(0), to, _asSingletonArray(id), _asSingletonArray(amount), data) */\n      jump\t// in\n    tag_162:\n        /* \"ERC1155_Dropsite.sol\":1222:1228  amount */\n      dup3\n        /* \"ERC1155_Dropsite.sol\":1201:1210  _balances */\n      0x00\n        /* \"ERC1155_Dropsite.sol\":1201:1214  _balances[id] */\n      dup1\n        /* \"ERC1155_Dropsite.sol\":1211:1213  id */\n      dup7\n        /* \"ERC1155_Dropsite.sol\":1201:1214  _balances[id] */\n      dup2\n      mstore\n      0x20\n      add\n      swap1\n      dup2\n      mstore\n      0x20\n      add\n      0x00\n      keccak256\n        /* \"ERC1155_Dropsite.sol\":1201:1218  _balances[id][to] */\n      0x00\n        /* \"ERC1155_Dropsite.sol\":1215:1217  to */\n      dup8\n        /* \"ERC1155_Dropsite.sol\":1201:1218  _balances[id][to] */\n      0xffffffffffffffffffffffffffffffffffffffff\n      and\n      0xffffffffffffffffffffffffffffffffffffffff\n      and\n      dup2\n      mstore\n      0x20\n      add\n      swap1\n      dup2\n      mstore\n      0x20\n      add\n      0x00\n      keccak256\n      0x00\n        /* \"ERC1155_Dropsite.sol\":1201:1228  _balances[id][to] += amount */\n      dup3\n      dup3\n      sload\n      tag_167\n      swap2\n      swap1\n      tag_168\n      jump\t// in\n    tag_167:\n      swap3\n      pop\n      pop\n      dup2\n      swap1\n      sstore\n      pop\n        /* \"ERC1155_Dropsite.sol\":1280:1282  to */\n      dup5\n        /* \"ERC1155_Dropsite.sol\":1243:1295  TransferSingle(operator, address(0), to, id, amount) */\n      0xffffffffffffffffffffffffffffffffffffffff\n      and\n        /* \"ERC1155_Dropsite.sol\":1276:1277  0 */\n      0x00\n        /* \"ERC1155_Dropsite.sol\":1243:1295  TransferSingle(operator, address(0), to, id, amount) */\n      0xffffffffffffffffffffffffffffffffffffffff\n      and\n        /* \"ERC1155_Dropsite.sol\":1258:1266  operator */\n      dup3\n        /* \"ERC1155_Dropsite.sol\":1243:1295  TransferSingle(operator, address(0), to, id, amount) */\n      0xffffffffffffffffffffffffffffffffffffffff\n      and\n      0xc3d58168c5ae7397731d063d5bbf3d657854427343f4c083240f7aacaa2d0f62\n        /* \"ERC1155_Dropsite.sol\":1284:1286  id */\n      dup8\n        /* \"ERC1155_Dropsite.sol\":1288:1294  amount */\n      dup8\n        /* \"ERC1155_Dropsite.sol\":1243:1295  TransferSingle(operator, address(0), to, id, amount) */\n      mload(0x40)\n      tag_169\n      swap3\n      swap2\n      swap1\n      tag_170\n      jump\t// in\n    tag_169:\n      mload(0x40)\n      dup1\n      swap2\n      sub\n      swap1\n      log4\n        /* \"ERC1155_Dropsite.sol\":1305:1379  _doSafeTransferAcceptanceCheck(operator, address(0), to, id, amount, data) */\n      tag_171\n        /* \"ERC1155_Dropsite.sol\":1336:1344  operator */\n      dup2\n        /* \"ERC1155_Dropsite.sol\":1354:1355  0 */\n      0x00\n        /* \"ERC1155_Dropsite.sol\":1358:1360  to */\n      dup8\n        /* \"ERC1155_Dropsite.sol\":1362:1364  id */\n      dup8\n        /* \"ERC1155_Dropsite.sol\":1366:1372  amount */\n      dup8\n        /* \"ERC1155_Dropsite.sol\":1374:1378  data */\n      dup8\n        /* \"ERC1155_Dropsite.sol\":1305:1335  _doSafeTransferAcceptanceCheck */\n      tag_172\n        /* \"ERC1155_Dropsite.sol\":1305:1379  _doSafeTransferAcceptanceCheck(operator, address(0), to, id, amount, data) */\n      jump\t// in\n    tag_171:\n        /* \"ERC1155_Dropsite.sol\":964:1386  {... */\n      pop\n        /* \"ERC1155_Dropsite.sol\":835:1386  function _mint(... */\n      pop\n      pop\n      pop\n      pop\n      jump\t// out\n        /* \"ERC1155_Dropsite.sol\":2344:2537  function _asSingletonArray(uint256 element) private pure returns (uint256[] memory) {... */\n    tag_164:\n        /* \"ERC1155_Dropsite.sol\":2410:2426  uint256[] memory */\n      0x60\n        /* \"ERC1155_Dropsite.sol\":2438:2460  uint256[] memory array */\n      0x00\n        /* \"ERC1155_Dropsite.sol\":2477:2478  1 */\n      0x01\n        /* \"ERC1155_Dropsite.sol\":2463:2479  new uint256[](1) */\n      0xffffffffffffffff\n      dup2\n      gt\n      iszero\n      tag_174\n      jumpi\n      tag_175\n      tag_176\n      jump\t// in\n    tag_175:\n    tag_174:\n      mload(0x40)\n      swap1\n      dup1\n      dup3\n      mstore\n      dup1\n      0x20\n      mul\n      0x20\n      add\n      dup3\n      add\n      0x40\n      mstore\n      dup1\n      iszero\n      tag_177\n      jumpi\n      dup2\n      0x20\n      add\n      0x20\n      dup3\n      mul\n      dup1\n      calldatasize\n      dup4\n      calldatacopy\n      dup1\n      dup3\n      add\n      swap2\n      pop\n      pop\n      swap1\n      pop\n    tag_177:\n      pop\n        /* \"ERC1155_Dropsite.sol\":2438:2479  uint256[] memory array = new uint256[](1) */\n      swap1\n      pop\n        /* \"ERC1155_Dropsite.sol\":2500:2507  element */\n      dup3\n        /* \"ERC1155_Dropsite.sol\":2489:2494  array */\n      dup2\n        /* \"ERC1155_Dropsite.sol\":2495:2496  0 */\n      0x00\n        /* \"ERC1155_Dropsite.sol\":2489:2497  array[0] */\n      dup2\n      mload\n      dup2\n      lt\n      tag_178\n      jumpi\n      tag_179\n      tag_180\n      jump\t// in\n    tag_179:\n    tag_178:\n      0x20\n      mul\n      0x20\n      add\n      add\n        /* \"ERC1155_Dropsite.sol\":2489:2507  array[0] = element */\n      dup2\n      dup2\n      mstore\n      pop\n      pop\n        /* \"ERC1155_Dropsite.sol\":2525:2530  array */\n      dup1\n        /* \"ERC1155_Dropsite.sol\":2518:2530  return array */\n      swap2\n      pop\n      pop\n        /* \"ERC1155_Dropsite.sol\":2344:2537  function _asSingletonArray(uint256 element) private pure returns (uint256[] memory) {... */\n      swap2\n      swap1\n      pop\n      jump\t// out\n        /* \"ERC1155_Dropsite.sol\":1393:1607  function _beforeTokenTransfer(... */\n    tag_166:\n      pop\n      pop\n      pop\n      pop\n      pop\n      pop\n      jump\t// out\n        /* \"ERC1155_Dropsite.sol\":1613:2338  function _doSafeTransferAcceptanceCheck(... */\n    tag_172:\n        /* \"ERC1155_Dropsite.sol\":1820:1835  to.isContract() */\n      tag_183\n        /* \"ERC1155_Dropsite.sol\":1820:1822  to */\n      dup5\n        /* \"ERC1155_Dropsite.sol\":1820:1833  to.isContract */\n      0xffffffffffffffffffffffffffffffffffffffff\n      and\n      tag_184\n        /* \"ERC1155_Dropsite.sol\":1820:1835  to.isContract() */\n      jump\t// in\n    tag_183:\n        /* \"ERC1155_Dropsite.sol\":1816:2332  if (to.isContract()) {... */\n      iszero\n      tag_185\n      jumpi\n        /* \"ERC1155_Dropsite.sol\":1872:1874  to */\n      dup4\n        /* \"ERC1155_Dropsite.sol\":1855:1893  IERC1155Receiver(to).onERC1155Received */\n      0xffffffffffffffffffffffffffffffffffffffff\n      and\n      0xf23a6e61\n        /* \"ERC1155_Dropsite.sol\":1894:1902  operator */\n      dup8\n        /* \"ERC1155_Dropsite.sol\":1904:1908  from */\n      dup8\n        /* \"ERC1155_Dropsite.sol\":1910:1912  id */\n      dup7\n        /* \"ERC1155_Dropsite.sol\":1914:1920  amount */\n      dup7\n        /* \"ERC1155_Dropsite.sol\":1922:1926  data */\n      dup7\n        /* \"ERC1155_Dropsite.sol\":1855:1927  IERC1155Receiver(to).onERC1155Received(operator, from, id, amount, data) */\n      mload(0x40)\n      dup7\n      0xffffffff\n      and\n      0xe0\n      shl\n      dup2\n      mstore\n      0x04\n      add\n      tag_186\n      swap6\n      swap5\n      swap4\n      swap3\n      swap2\n      swap1\n      tag_187\n      jump\t// in\n    tag_186:\n      0x20\n      mload(0x40)\n      dup1\n      dup4\n      sub\n      dup2\n      0x00\n      dup8\n      dup1\n      extcodesize\n      iszero\n      dup1\n      iszero\n      tag_188\n      jumpi\n      0x00\n      dup1\n      revert\n    tag_188:\n      pop\n      gas\n      call\n      swap3\n      pop\n      pop\n      pop\n      dup1\n      iszero\n      tag_189\n      jumpi\n      pop\n      mload(0x40)\n      returndatasize\n      not(0x1f)\n      0x1f\n      dup3\n      add\n      and\n      dup3\n      add\n      dup1\n      0x40\n      mstore\n      pop\n      dup2\n      add\n      swap1\n      tag_190\n      swap2\n      swap1\n      tag_191\n      jump\t// in\n    tag_190:\n      0x01\n    tag_189:\n        /* \"ERC1155_Dropsite.sol\":1851:2322  try IERC1155Receiver(to).onERC1155Received(operator, from, id, amount, data) returns (bytes4 response) {... */\n      tag_192\n      jumpi\n      tag_196\n      tag_197\n      jump\t// in\n    tag_196:\n      dup1\n      0x08c379a0\n      eq\n      iszero\n      tag_195\n      jumpi\n      pop\n      tag_198\n      tag_199\n      jump\t// in\n    tag_198:\n      dup1\n      tag_200\n      jumpi\n      pop\n      jump(tag_194)\n    tag_200:\n        /* \"ERC1155_Dropsite.sol\":2198:2204  reason */\n      dup1\n        /* \"ERC1155_Dropsite.sol\":2191:2205  revert(reason) */\n      mload(0x40)\n      0x08c379a000000000000000000000000000000000000000000000000000000000\n      dup2\n      mstore\n      0x04\n      add\n      tag_201\n      swap2\n      swap1\n      tag_202\n      jump\t// in\n    tag_201:\n      mload(0x40)\n      dup1\n      swap2\n      sub\n      swap1\n      revert\n        /* \"ERC1155_Dropsite.sol\":1851:2322  try IERC1155Receiver(to).onERC1155Received(operator, from, id, amount, data) returns (bytes4 response) {... */\n    tag_195:\n      pop\n    tag_194:\n        /* \"ERC1155_Dropsite.sol\":2245:2307  revert(\"ERC1155: transfer to non ERC1155Receiver implementer\") */\n      mload(0x40)\n      0x08c379a000000000000000000000000000000000000000000000000000000000\n      dup2\n      mstore\n      0x04\n      add\n      tag_203\n      swap1\n      tag_204\n      jump\t// in\n    tag_203:\n      mload(0x40)\n      dup1\n      swap2\n      sub\n      swap1\n      revert\n        /* \"ERC1155_Dropsite.sol\":1851:2322  try IERC1155Receiver(to).onERC1155Received(operator, from, id, amount, data) returns (bytes4 response) {... */\n    tag_192:\n        /* \"ERC1155_Dropsite.sol\":1988:2031  IERC1155Receiver.onERC1155Received.selector */\n      shl(0xe0, 0xf23a6e61)\n        /* \"ERC1155_Dropsite.sol\":1976:2031  response != IERC1155Receiver.onERC1155Received.selector */\n      not(0xffffffffffffffffffffffffffffffffffffffffffffffffffffffff)\n      and\n        /* \"ERC1155_Dropsite.sol\":1976:1984  response */\n      dup2\n        /* \"ERC1155_Dropsite.sol\":1976:2031  response != IERC1155Receiver.onERC1155Received.selector */\n      not(0xffffffffffffffffffffffffffffffffffffffffffffffffffffffff)\n      and\n      eq\n        /* \"ERC1155_Dropsite.sol\":1972:2124  if (response != IERC1155Receiver.onERC1155Received.selector) {... */\n      tag_206\n      jumpi\n        /* \"ERC1155_Dropsite.sol\":2055:2105  revert(\"ERC1155: ERC1155Receiver rejected tokens\") */\n      mload(0x40)\n      0x08c379a000000000000000000000000000000000000000000000000000000000\n      dup2\n      mstore\n      0x04\n      add\n      tag_207\n      swap1\n      tag_208\n      jump\t// in\n    tag_207:\n      mload(0x40)\n      dup1\n      swap2\n      sub\n      swap1\n      revert\n        /* \"ERC1155_Dropsite.sol\":1972:2124  if (response != IERC1155Receiver.onERC1155Received.selector) {... */\n    tag_206:\n        /* \"ERC1155_Dropsite.sol\":1928:2138  returns (bytes4 response) {... */\n      pop\n        /* \"ERC1155_Dropsite.sol\":1816:2332  if (to.isContract()) {... */\n    tag_185:\n        /* \"ERC1155_Dropsite.sol\":1613:2338  function _doSafeTransferAcceptanceCheck(... */\n      pop\n      pop\n      pop\n      pop\n      pop\n      pop\n      jump\t// out\n        /* \"Address.sol\":771:1148  function isContract(address account) internal view returns (bool) {... */\n    tag_184:\n        /* \"Address.sol\":831:835  bool */\n      0x00\n        /* \"Address.sol\":1034:1046  uint256 size */\n      dup1\n        /* \"Address.sol\":1099:1106  account */\n      dup3\n        /* \"Address.sol\":1087:1107  extcodesize(account) */\n      extcodesize\n        /* \"Address.sol\":1079:1107  size := extcodesize(account) */\n      swap1\n      pop\n        /* \"Address.sol\":1140:1141  0 */\n      0x00\n        /* \"Address.sol\":1133:1137  size */\n      dup2\n        /* \"Address.sol\":1133:1141  size > 0 */\n      gt\n        /* \"Address.sol\":1126:1141  return size > 0 */\n      swap2\n      pop\n      pop\n        /* \"Address.sol\":771:1148  function isContract(address account) internal view returns (bool) {... */\n      swap2\n      swap1\n      pop\n      jump\t// out\n    tag_74:\n      dup3\n      dup1\n      sload\n      tag_210\n      swap1\n      tag_89\n      jump\t// in\n    tag_210:\n      swap1\n      0x00\n      mstore\n      keccak256(0x00, 0x20)\n      swap1\n      0x1f\n      add\n      0x20\n      swap1\n      div\n      dup2\n      add\n      swap3\n      dup3\n      tag_212\n      jumpi\n      0x00\n      dup6\n      sstore\n      jump(tag_211)\n    tag_212:\n      dup3\n      0x1f\n      lt\n      tag_213\n      jumpi\n      dup1\n      mload\n      not(0xff)\n      and\n      dup4\n      dup1\n      add\n      or\n      dup6\n      sstore\n      jump(tag_211)\n    tag_213:\n      dup3\n      dup1\n      add\n      0x01\n      add\n      dup6\n      sstore\n      dup3\n      iszero\n      tag_211\n      jumpi\n      swap2\n      dup3\n      add\n    tag_214:\n      dup3\n      dup2\n      gt\n      iszero\n      tag_215\n      jumpi\n      dup3\n      mload\n      dup3\n      sstore\n      swap2\n      0x20\n      add\n      swap2\n      swap1\n      0x01\n      add\n      swap1\n      jump(tag_214)\n    tag_215:\n    tag_211:\n      pop\n      swap1\n      pop\n      tag_216\n      swap2\n      swap1\n      tag_217\n      jump\t// in\n    tag_216:\n      pop\n      swap1\n      jump\t// out\n    tag_217:\n    tag_218:\n      dup1\n      dup3\n      gt\n      iszero\n      tag_219\n      jumpi\n      0x00\n      dup2\n      0x00\n      swap1\n      sstore\n      pop\n      0x01\n      add\n      jump(tag_218)\n    tag_219:\n      pop\n      swap1\n      jump\t// out\n        /* \"#utility.yul\":7:146   */\n    tag_221:\n        /* \"#utility.yul\":53:58   */\n      0x00\n        /* \"#utility.yul\":91:97   */\n      dup2\n        /* \"#utility.yul\":78:98   */\n      calldataload\n        /* \"#utility.yul\":69:98   */\n      swap1\n      pop\n        /* \"#utility.yul\":107:140   */\n      tag_223\n        /* \"#utility.yul\":134:139   */\n      dup2\n        /* \"#utility.yul\":107:140   */\n      tag_224\n      jump\t// in\n    tag_223:\n        /* \"#utility.yul\":7:146   */\n      swap3\n      swap2\n      pop\n      pop\n      jump\t// out\n        /* \"#utility.yul\":152:293   */\n    tag_225:\n        /* \"#utility.yul\":208:213   */\n      0x00\n        /* \"#utility.yul\":239:245   */\n      dup2\n        /* \"#utility.yul\":233:246   */\n      mload\n        /* \"#utility.yul\":224:246   */\n      swap1\n      pop\n        /* \"#utility.yul\":255:287   */\n      tag_227\n        /* \"#utility.yul\":281:286   */\n      dup2\n        /* \"#utility.yul\":255:287   */\n      tag_228\n      jump\t// in\n    tag_227:\n        /* \"#utility.yul\":152:293   */\n      swap3\n      swap2\n      pop\n      pop\n      jump\t// out\n        /* \"#utility.yul\":299:628   */\n    tag_24:\n        /* \"#utility.yul\":358:364   */\n      0x00\n        /* \"#utility.yul\":407:409   */\n      0x20\n        /* \"#utility.yul\":395:404   */\n      dup3\n        /* \"#utility.yul\":386:393   */\n      dup5\n        /* \"#utility.yul\":382:405   */\n      sub\n        /* \"#utility.yul\":378:410   */\n      slt\n        /* \"#utility.yul\":375:494   */\n      iszero\n      tag_230\n      jumpi\n        /* \"#utility.yul\":413:492   */\n      tag_231\n      tag_232\n      jump\t// in\n    tag_231:\n        /* \"#utility.yul\":375:494   */\n    tag_230:\n        /* \"#utility.yul\":533:534   */\n      0x00\n        /* \"#utility.yul\":558:611   */\n      tag_233\n        /* \"#utility.yul\":603:610   */\n      dup5\n        /* \"#utility.yul\":594:600   */\n      dup3\n        /* \"#utility.yul\":583:592   */\n      dup6\n        /* \"#utility.yul\":579:601   */\n      add\n        /* \"#utility.yul\":558:611   */\n      tag_221\n      jump\t// in\n    tag_233:\n        /* \"#utility.yul\":548:611   */\n      swap2\n      pop\n        /* \"#utility.yul\":504:621   */\n      pop\n        /* \"#utility.yul\":299:628   */\n      swap3\n      swap2\n      pop\n      pop\n      jump\t// out\n        /* \"#utility.yul\":634:983   */\n    tag_191:\n        /* \"#utility.yul\":703:709   */\n      0x00\n        /* \"#utility.yul\":752:754   */\n      0x20\n        /* \"#utility.yul\":740:749   */\n      dup3\n        /* \"#utility.yul\":731:738   */\n      dup5\n        /* \"#utility.yul\":727:750   */\n      sub\n        /* \"#utility.yul\":723:755   */\n      slt\n        /* \"#utility.yul\":720:839   */\n      iszero\n      tag_235\n      jumpi\n        /* \"#utility.yul\":758:837   */\n      tag_236\n      tag_232\n      jump\t// in\n    tag_236:\n        /* \"#utility.yul\":720:839   */\n    tag_235:\n        /* \"#utility.yul\":878:879   */\n      0x00\n        /* \"#utility.yul\":903:966   */\n      tag_237\n        /* \"#utility.yul\":958:965   */\n      dup5\n        /* \"#utility.yul\":949:955   */\n      dup3\n        /* \"#utility.yul\":938:947   */\n      dup6\n        /* \"#utility.yul\":934:956   */\n      add\n        /* \"#utility.yul\":903:966   */\n      tag_225\n      jump\t// in\n    tag_237:\n        /* \"#utility.yul\":893:966   */\n      swap2\n      pop\n        /* \"#utility.yul\":849:976   */\n      pop\n        /* \"#utility.yul\":634:983   */\n      swap3\n      swap2\n      pop\n      pop\n      jump\t// out\n        /* \"#utility.yul\":989:1131   */\n    tag_238:\n        /* \"#utility.yul\":1092:1124   */\n      tag_240\n        /* \"#utility.yul\":1118:1123   */\n      dup2\n        /* \"#utility.yul\":1092:1124   */\n      tag_241\n      jump\t// in\n    tag_240:\n        /* \"#utility.yul\":1087:1090   */\n      dup3\n        /* \"#utility.yul\":1080:1125   */\n      mstore\n        /* \"#utility.yul\":989:1131   */\n      pop\n      pop\n      jump\t// out\n        /* \"#utility.yul\":1137:1255   */\n    tag_242:\n        /* \"#utility.yul\":1224:1248   */\n      tag_244\n        /* \"#utility.yul\":1242:1247   */\n      dup2\n        /* \"#utility.yul\":1224:1248   */\n      tag_245\n      jump\t// in\n    tag_244:\n        /* \"#utility.yul\":1219:1222   */\n      dup3\n        /* \"#utility.yul\":1212:1249   */\n      mstore\n        /* \"#utility.yul\":1137:1255   */\n      pop\n      pop\n      jump\t// out\n        /* \"#utility.yul\":1261:1418   */\n    tag_246:\n        /* \"#utility.yul\":1366:1411   */\n      tag_248\n        /* \"#utility.yul\":1386:1410   */\n      tag_249\n        /* \"#utility.yul\":1404:1409   */\n      dup3\n        /* \"#utility.yul\":1386:1410   */\n      tag_245\n      jump\t// in\n    tag_249:\n        /* \"#utility.yul\":1366:1411   */\n      tag_250\n      jump\t// in\n    tag_248:\n        /* \"#utility.yul\":1361:1364   */\n      dup3\n        /* \"#utility.yul\":1354:1412   */\n      mstore\n        /* \"#utility.yul\":1261:1418   */\n      pop\n      pop\n      jump\t// out\n        /* \"#utility.yul\":1424:1533   */\n    tag_251:\n        /* \"#utility.yul\":1505:1526   */\n      tag_253\n        /* \"#utility.yul\":1520:1525   */\n      dup2\n        /* \"#utility.yul\":1505:1526   */\n      tag_254\n      jump\t// in\n    tag_253:\n        /* \"#utility.yul\":1500:1503   */\n      dup3\n        /* \"#utility.yul\":1493:1527   */\n      mstore\n        /* \"#utility.yul\":1424:1533   */\n      pop\n      pop\n      jump\t// out\n        /* \"#utility.yul\":1539:1899   */\n    tag_255:\n        /* \"#utility.yul\":1625:1628   */\n      0x00\n        /* \"#utility.yul\":1653:1691   */\n      tag_257\n        /* \"#utility.yul\":1685:1690   */\n      dup3\n        /* \"#utility.yul\":1653:1691   */\n      tag_258\n      jump\t// in\n    tag_257:\n        /* \"#utility.yul\":1707:1777   */\n      tag_259\n        /* \"#utility.yul\":1770:1776   */\n      dup2\n        /* \"#utility.yul\":1765:1768   */\n      dup6\n        /* \"#utility.yul\":1707:1777   */\n      tag_260\n      jump\t// in\n    tag_259:\n        /* \"#utility.yul\":1700:1777   */\n      swap4\n      pop\n        /* \"#utility.yul\":1786:1838   */\n      tag_261\n        /* \"#utility.yul\":1831:1837   */\n      dup2\n        /* \"#utility.yul\":1826:1829   */\n      dup6\n        /* \"#utility.yul\":1819:1823   */\n      0x20\n        /* \"#utility.yul\":1812:1817   */\n      dup7\n        /* \"#utility.yul\":1808:1824   */\n      add\n        /* \"#utility.yul\":1786:1838   */\n      tag_262\n      jump\t// in\n    tag_261:\n        /* \"#utility.yul\":1863:1892   */\n      tag_263\n        /* \"#utility.yul\":1885:1891   */\n      dup2\n        /* \"#utility.yul\":1863:1892   */\n      tag_264\n      jump\t// in\n    tag_263:\n        /* \"#utility.yul\":1858:1861   */\n      dup5\n        /* \"#utility.yul\":1854:1893   */\n      add\n        /* \"#utility.yul\":1847:1893   */\n      swap2\n      pop\n        /* \"#utility.yul\":1629:1899   */\n      pop\n        /* \"#utility.yul\":1539:1899   */\n      swap3\n      swap2\n      pop\n      pop\n      jump\t// out\n        /* \"#utility.yul\":1905:2269   */\n    tag_265:\n        /* \"#utility.yul\":1993:1996   */\n      0x00\n        /* \"#utility.yul\":2021:2060   */\n      tag_267\n        /* \"#utility.yul\":2054:2059   */\n      dup3\n        /* \"#utility.yul\":2021:2060   */\n      tag_268\n      jump\t// in\n    tag_267:\n        /* \"#utility.yul\":2076:2147   */\n      tag_269\n        /* \"#utility.yul\":2140:2146   */\n      dup2\n        /* \"#utility.yul\":2135:2138   */\n      dup6\n        /* \"#utility.yul\":2076:2147   */\n      tag_270\n      jump\t// in\n    tag_269:\n        /* \"#utility.yul\":2069:2147   */\n      swap4\n      pop\n        /* \"#utility.yul\":2156:2208   */\n      tag_271\n        /* \"#utility.yul\":2201:2207   */\n      dup2\n        /* \"#utility.yul\":2196:2199   */\n      dup6\n        /* \"#utility.yul\":2189:2193   */\n      0x20\n        /* \"#utility.yul\":2182:2187   */\n      dup7\n        /* \"#utility.yul\":2178:2194   */\n      add\n        /* \"#utility.yul\":2156:2208   */\n      tag_262\n      jump\t// in\n    tag_271:\n        /* \"#utility.yul\":2233:2262   */\n      tag_272\n        /* \"#utility.yul\":2255:2261   */\n      dup2\n        /* \"#utility.yul\":2233:2262   */\n      tag_264\n      jump\t// in\n    tag_272:\n        /* \"#utility.yul\":2228:2231   */\n      dup5\n        /* \"#utility.yul\":2224:2263   */\n      add\n        /* \"#utility.yul\":2217:2263   */\n      swap2\n      pop\n        /* \"#utility.yul\":1997:2269   */\n      pop\n        /* \"#utility.yul\":1905:2269   */\n      swap3\n      swap2\n      pop\n      pop\n      jump\t// out\n        /* \"#utility.yul\":2275:2641   */\n    tag_273:\n        /* \"#utility.yul\":2417:2420   */\n      0x00\n        /* \"#utility.yul\":2438:2505   */\n      tag_275\n        /* \"#utility.yul\":2502:2504   */\n      0x34\n        /* \"#utility.yul\":2497:2500   */\n      dup4\n        /* \"#utility.yul\":2438:2505   */\n      tag_270\n      jump\t// in\n    tag_275:\n        /* \"#utility.yul\":2431:2505   */\n      swap2\n      pop\n        /* \"#utility.yul\":2514:2607   */\n      tag_276\n        /* \"#utility.yul\":2603:2606   */\n      dup3\n        /* \"#utility.yul\":2514:2607   */\n      tag_277\n      jump\t// in\n    tag_276:\n        /* \"#utility.yul\":2632:2634   */\n      0x40\n        /* \"#utility.yul\":2627:2630   */\n      dup3\n        /* \"#utility.yul\":2623:2635   */\n      add\n        /* \"#utility.yul\":2616:2635   */\n      swap1\n      pop\n        /* \"#utility.yul\":2275:2641   */\n      swap2\n      swap1\n      pop\n      jump\t// out\n        /* \"#utility.yul\":2647:3013   */\n    tag_278:\n        /* \"#utility.yul\":2789:2792   */\n      0x00\n        /* \"#utility.yul\":2810:2877   */\n      tag_280\n        /* \"#utility.yul\":2874:2876   */\n      0x28\n        /* \"#utility.yul\":2869:2872   */\n      dup4\n        /* \"#utility.yul\":2810:2877   */\n      tag_270\n      jump\t// in\n    tag_280:\n        /* \"#utility.yul\":2803:2877   */\n      swap2\n      pop\n        /* \"#utility.yul\":2886:2979   */\n      tag_281\n        /* \"#utility.yul\":2975:2978   */\n      dup3\n        /* \"#utility.yul\":2886:2979   */\n      tag_282\n      jump\t// in\n    tag_281:\n        /* \"#utility.yul\":3004:3006   */\n      0x40\n        /* \"#utility.yul\":2999:3002   */\n      dup3\n        /* \"#utility.yul\":2995:3007   */\n      add\n        /* \"#utility.yul\":2988:3007   */\n      swap1\n      pop\n        /* \"#utility.yul\":2647:3013   */\n      swap2\n      swap1\n      pop\n      jump\t// out\n        /* \"#utility.yul\":3019:3385   */\n    tag_283:\n        /* \"#utility.yul\":3161:3164   */\n      0x00\n        /* \"#utility.yul\":3182:3249   */\n      tag_285\n        /* \"#utility.yul\":3246:3248   */\n      0x1b\n        /* \"#utility.yul\":3241:3244   */\n      dup4\n        /* \"#utility.yul\":3182:3249   */\n      tag_270\n      jump\t// in\n    tag_285:\n        /* \"#utility.yul\":3175:3249   */\n      swap2\n      pop\n        /* \"#utility.yul\":3258:3351   */\n      tag_286\n        /* \"#utility.yul\":3347:3350   */\n      dup3\n        /* \"#utility.yul\":3258:3351   */\n      tag_287\n      jump\t// in\n    tag_286:\n        /* \"#utility.yul\":3376:3378   */\n      0x20\n        /* \"#utility.yul\":3371:3374   */\n      dup3\n        /* \"#utility.yul\":3367:3379   */\n      add\n        /* \"#utility.yul\":3360:3379   */\n      swap1\n      pop\n        /* \"#utility.yul\":3019:3385   */\n      swap2\n      swap1\n      pop\n      jump\t// out\n        /* \"#utility.yul\":3391:3757   */\n    tag_288:\n        /* \"#utility.yul\":3533:3536   */\n      0x00\n        /* \"#utility.yul\":3554:3621   */\n      tag_290\n        /* \"#utility.yul\":3618:3620   */\n      0x1b\n        /* \"#utility.yul\":3613:3616   */\n      dup4\n        /* \"#utility.yul\":3554:3621   */\n      tag_270\n      jump\t// in\n    tag_290:\n        /* \"#utility.yul\":3547:3621   */\n      swap2\n      pop\n        /* \"#utility.yul\":3630:3723   */\n      tag_291\n        /* \"#utility.yul\":3719:3722   */\n      dup3\n        /* \"#utility.yul\":3630:3723   */\n      tag_292\n      jump\t// in\n    tag_291:\n        /* \"#utility.yul\":3748:3750   */\n      0x20\n        /* \"#utility.yul\":3743:3746   */\n      dup3\n        /* \"#utility.yul\":3739:3751   */\n      add\n        /* \"#utility.yul\":3732:3751   */\n      swap1\n      pop\n        /* \"#utility.yul\":3391:3757   */\n      swap2\n      swap1\n      pop\n      jump\t// out\n        /* \"#utility.yul\":3763:4129   */\n    tag_293:\n        /* \"#utility.yul\":3905:3908   */\n      0x00\n        /* \"#utility.yul\":3926:3993   */\n      tag_295\n        /* \"#utility.yul\":3990:3992   */\n      0x1c\n        /* \"#utility.yul\":3985:3988   */\n      dup4\n        /* \"#utility.yul\":3926:3993   */\n      tag_270\n      jump\t// in\n    tag_295:\n        /* \"#utility.yul\":3919:3993   */\n      swap2\n      pop\n        /* \"#utility.yul\":4002:4095   */\n      tag_296\n        /* \"#utility.yul\":4091:4094   */\n      dup3\n        /* \"#utility.yul\":4002:4095   */\n      tag_297\n      jump\t// in\n    tag_296:\n        /* \"#utility.yul\":4120:4122   */\n      0x20\n        /* \"#utility.yul\":4115:4118   */\n      dup3\n        /* \"#utility.yul\":4111:4123   */\n      add\n        /* \"#utility.yul\":4104:4123   */\n      swap1\n      pop\n        /* \"#utility.yul\":3763:4129   */\n      swap2\n      swap1\n      pop\n      jump\t// out\n        /* \"#utility.yul\":4135:4501   */\n    tag_298:\n        /* \"#utility.yul\":4277:4280   */\n      0x00\n        /* \"#utility.yul\":4298:4365   */\n      tag_300\n        /* \"#utility.yul\":4362:4364   */\n      0x1b\n        /* \"#utility.yul\":4357:4360   */\n      dup4\n        /* \"#utility.yul\":4298:4365   */\n      tag_270\n      jump\t// in\n    tag_300:\n        /* \"#utility.yul\":4291:4365   */\n      swap2\n      pop\n        /* \"#utility.yul\":4374:4467   */\n      tag_301\n        /* \"#utility.yul\":4463:4466   */\n      dup3\n        /* \"#utility.yul\":4374:4467   */\n      tag_302\n      jump\t// in\n    tag_301:\n        /* \"#utility.yul\":4492:4494   */\n      0x20\n        /* \"#utility.yul\":4487:4490   */\n      dup3\n        /* \"#utility.yul\":4483:4495   */\n      add\n        /* \"#utility.yul\":4476:4495   */\n      swap1\n      pop\n        /* \"#utility.yul\":4135:4501   */\n      swap2\n      swap1\n      pop\n      jump\t// out\n        /* \"#utility.yul\":4507:4873   */\n    tag_303:\n        /* \"#utility.yul\":4649:4652   */\n      0x00\n        /* \"#utility.yul\":4670:4737   */\n      tag_305\n        /* \"#utility.yul\":4734:4736   */\n      0x19\n        /* \"#utility.yul\":4729:4732   */\n      dup4\n        /* \"#utility.yul\":4670:4737   */\n      tag_270\n      jump\t// in\n    tag_305:\n        /* \"#utility.yul\":4663:4737   */\n      swap2\n      pop\n        /* \"#utility.yul\":4746:4839   */\n      tag_306\n        /* \"#utility.yul\":4835:4838   */\n      dup3\n        /* \"#utility.yul\":4746:4839   */\n      tag_307\n      jump\t// in\n    tag_306:\n        /* \"#utility.yul\":4864:4866   */\n      0x20\n        /* \"#utility.yul\":4859:4862   */\n      dup3\n        /* \"#utility.yul\":4855:4867   */\n      add\n        /* \"#utility.yul\":4848:4867   */\n      swap1\n      pop\n        /* \"#utility.yul\":4507:4873   */\n      swap2\n      swap1\n      pop\n      jump\t// out\n        /* \"#utility.yul\":4879:5245   */\n    tag_308:\n        /* \"#utility.yul\":5021:5024   */\n      0x00\n        /* \"#utility.yul\":5042:5109   */\n      tag_310\n        /* \"#utility.yul\":5106:5108   */\n      0x21\n        /* \"#utility.yul\":5101:5104   */\n      dup4\n        /* \"#utility.yul\":5042:5109   */\n      tag_270\n      jump\t// in\n    tag_310:\n        /* \"#utility.yul\":5035:5109   */\n      swap2\n      pop\n        /* \"#utility.yul\":5118:5211   */\n      tag_311\n        /* \"#utility.yul\":5207:5210   */\n      dup3\n        /* \"#utility.yul\":5118:5211   */\n      tag_312\n      jump\t// in\n    tag_311:\n        /* \"#utility.yul\":5236:5238   */\n      0x40\n        /* \"#utility.yul\":5231:5234   */\n      dup3\n        /* \"#utility.yul\":5227:5239   */\n      add\n        /* \"#utility.yul\":5220:5239   */\n      swap1\n      pop\n        /* \"#utility.yul\":4879:5245   */\n      swap2\n      swap1\n      pop\n      jump\t// out\n        /* \"#utility.yul\":5251:5369   */\n    tag_313:\n        /* \"#utility.yul\":5338:5362   */\n      tag_315\n        /* \"#utility.yul\":5356:5361   */\n      dup2\n        /* \"#utility.yul\":5338:5362   */\n      tag_316\n      jump\t// in\n    tag_315:\n        /* \"#utility.yul\":5333:5336   */\n      dup3\n        /* \"#utility.yul\":5326:5363   */\n      mstore\n        /* \"#utility.yul\":5251:5369   */\n      pop\n      pop\n      jump\t// out\n        /* \"#utility.yul\":5375:5532   */\n    tag_317:\n        /* \"#utility.yul\":5480:5525   */\n      tag_319\n        /* \"#utility.yul\":5500:5524   */\n      tag_320\n        /* \"#utility.yul\":5518:5523   */\n      dup3\n        /* \"#utility.yul\":5500:5524   */\n      tag_316\n      jump\t// in\n    tag_320:\n        /* \"#utility.yul\":5480:5525   */\n      tag_321\n      jump\t// in\n    tag_319:\n        /* \"#utility.yul\":5475:5478   */\n      dup3\n        /* \"#utility.yul\":5468:5526   */\n      mstore\n        /* \"#utility.yul\":5375:5532   */\n      pop\n      pop\n      jump\t// out\n        /* \"#utility.yul\":5538:5935   */\n    tag_154:\n        /* \"#utility.yul\":5678:5681   */\n      0x00\n        /* \"#utility.yul\":5693:5768   */\n      tag_323\n        /* \"#utility.yul\":5764:5767   */\n      dup3\n        /* \"#utility.yul\":5755:5761   */\n      dup6\n        /* \"#utility.yul\":5693:5768   */\n      tag_317\n      jump\t// in\n    tag_323:\n        /* \"#utility.yul\":5793:5795   */\n      0x20\n        /* \"#utility.yul\":5788:5791   */\n      dup3\n        /* \"#utility.yul\":5784:5796   */\n      add\n        /* \"#utility.yul\":5777:5796   */\n      swap2\n      pop\n        /* \"#utility.yul\":5806:5881   */\n      tag_324\n        /* \"#utility.yul\":5877:5880   */\n      dup3\n        /* \"#utility.yul\":5868:5874   */\n      dup5\n        /* \"#utility.yul\":5806:5881   */\n      tag_246\n      jump\t// in\n    tag_324:\n        /* \"#utility.yul\":5906:5908   */\n      0x14\n        /* \"#utility.yul\":5901:5904   */\n      dup3\n        /* \"#utility.yul\":5897:5909   */\n      add\n        /* \"#utility.yul\":5890:5909   */\n      swap2\n      pop\n        /* \"#utility.yul\":5926:5929   */\n      dup2\n        /* \"#utility.yul\":5919:5929   */\n      swap1\n      pop\n        /* \"#utility.yul\":5538:5935   */\n      swap4\n      swap3\n      pop\n      pop\n      pop\n      jump\t// out\n        /* \"#utility.yul\":5941:6195   */\n    tag_37:\n        /* \"#utility.yul\":6050:6054   */\n      0x00\n        /* \"#utility.yul\":6088:6090   */\n      0x20\n        /* \"#utility.yul\":6077:6086   */\n      dup3\n        /* \"#utility.yul\":6073:6091   */\n      add\n        /* \"#utility.yul\":6065:6091   */\n      swap1\n      pop\n        /* \"#utility.yul\":6101:6188   */\n      tag_326\n        /* \"#utility.yul\":6185:6186   */\n      0x00\n        /* \"#utility.yul\":6174:6183   */\n      dup4\n        /* \"#utility.yul\":6170:6187   */\n      add\n        /* \"#utility.yul\":6161:6167   */\n      dup5\n        /* \"#utility.yul\":6101:6188   */\n      tag_238\n      jump\t// in\n    tag_326:\n        /* \"#utility.yul\":5941:6195   */\n      swap3\n      swap2\n      pop\n      pop\n      jump\t// out\n        /* \"#utility.yul\":6201:6952   */\n    tag_187:\n        /* \"#utility.yul\":6424:6428   */\n      0x00\n        /* \"#utility.yul\":6462:6465   */\n      0xa0\n        /* \"#utility.yul\":6451:6460   */\n      dup3\n        /* \"#utility.yul\":6447:6466   */\n      add\n        /* \"#utility.yul\":6439:6466   */\n      swap1\n      pop\n        /* \"#utility.yul\":6476:6547   */\n      tag_328\n        /* \"#utility.yul\":6544:6545   */\n      0x00\n        /* \"#utility.yul\":6533:6542   */\n      dup4\n        /* \"#utility.yul\":6529:6546   */\n      add\n        /* \"#utility.yul\":6520:6526   */\n      dup9\n        /* \"#utility.yul\":6476:6547   */\n      tag_242\n      jump\t// in\n    tag_328:\n        /* \"#utility.yul\":6557:6629   */\n      tag_329\n        /* \"#utility.yul\":6625:6627   */\n      0x20\n        /* \"#utility.yul\":6614:6623   */\n      dup4\n        /* \"#utility.yul\":6610:6628   */\n      add\n        /* \"#utility.yul\":6601:6607   */\n      dup8\n        /* \"#utility.yul\":6557:6629   */\n      tag_242\n      jump\t// in\n    tag_329:\n        /* \"#utility.yul\":6639:6711   */\n      tag_330\n        /* \"#utility.yul\":6707:6709   */\n      0x40\n        /* \"#utility.yul\":6696:6705   */\n      dup4\n        /* \"#utility.yul\":6692:6710   */\n      add\n        /* \"#utility.yul\":6683:6689   */\n      dup7\n        /* \"#utility.yul\":6639:6711   */\n      tag_313\n      jump\t// in\n    tag_330:\n        /* \"#utility.yul\":6721:6793   */\n      tag_331\n        /* \"#utility.yul\":6789:6791   */\n      0x60\n        /* \"#utility.yul\":6778:6787   */\n      dup4\n        /* \"#utility.yul\":6774:6792   */\n      add\n        /* \"#utility.yul\":6765:6771   */\n      dup6\n        /* \"#utility.yul\":6721:6793   */\n      tag_313\n      jump\t// in\n    tag_331:\n        /* \"#utility.yul\":6841:6850   */\n      dup2\n        /* \"#utility.yul\":6835:6839   */\n      dup2\n        /* \"#utility.yul\":6831:6851   */\n      sub\n        /* \"#utility.yul\":6825:6828   */\n      0x80\n        /* \"#utility.yul\":6814:6823   */\n      dup4\n        /* \"#utility.yul\":6810:6829   */\n      add\n        /* \"#utility.yul\":6803:6852   */\n      mstore\n        /* \"#utility.yul\":6869:6945   */\n      tag_332\n        /* \"#utility.yul\":6940:6944   */\n      dup2\n        /* \"#utility.yul\":6931:6937   */\n      dup5\n        /* \"#utility.yul\":6869:6945   */\n      tag_255\n      jump\t// in\n    tag_332:\n        /* \"#utility.yul\":6861:6945   */\n      swap1\n      pop\n        /* \"#utility.yul\":6201:6952   */\n      swap7\n      swap6\n      pop\n      pop\n      pop\n      pop\n      pop\n      pop\n      jump\t// out\n        /* \"#utility.yul\":6958:7168   */\n    tag_19:\n        /* \"#utility.yul\":7045:7049   */\n      0x00\n        /* \"#utility.yul\":7083:7085   */\n      0x20\n        /* \"#utility.yul\":7072:7081   */\n      dup3\n        /* \"#utility.yul\":7068:7086   */\n      add\n        /* \"#utility.yul\":7060:7086   */\n      swap1\n      pop\n        /* \"#utility.yul\":7096:7161   */\n      tag_334\n        /* \"#utility.yul\":7158:7159   */\n      0x00\n        /* \"#utility.yul\":7147:7156   */\n      dup4\n        /* \"#utility.yul\":7143:7160   */\n      add\n        /* \"#utility.yul\":7134:7140   */\n      dup5\n        /* \"#utility.yul\":7096:7161   */\n      tag_251\n      jump\t// in\n    tag_334:\n        /* \"#utility.yul\":6958:7168   */\n      swap3\n      swap2\n      pop\n      pop\n      jump\t// out\n        /* \"#utility.yul\":7174:7487   */\n    tag_202:\n        /* \"#utility.yul\":7287:7291   */\n      0x00\n        /* \"#utility.yul\":7325:7327   */\n      0x20\n        /* \"#utility.yul\":7314:7323   */\n      dup3\n        /* \"#utility.yul\":7310:7328   */\n      add\n        /* \"#utility.yul\":7302:7328   */\n      swap1\n      pop\n        /* \"#utility.yul\":7374:7383   */\n      dup2\n        /* \"#utility.yul\":7368:7372   */\n      dup2\n        /* \"#utility.yul\":7364:7384   */\n      sub\n        /* \"#utility.yul\":7360:7361   */\n      0x00\n        /* \"#utility.yul\":7349:7358   */\n      dup4\n        /* \"#utility.yul\":7345:7362   */\n      add\n        /* \"#utility.yul\":7338:7385   */\n      mstore\n        /* \"#utility.yul\":7402:7480   */\n      tag_336\n        /* \"#utility.yul\":7475:7479   */\n      dup2\n        /* \"#utility.yul\":7466:7472   */\n      dup5\n        /* \"#utility.yul\":7402:7480   */\n      tag_265\n      jump\t// in\n    tag_336:\n        /* \"#utility.yul\":7394:7480   */\n      swap1\n      pop\n        /* \"#utility.yul\":7174:7487   */\n      swap3\n      swap2\n      pop\n      pop\n      jump\t// out\n        /* \"#utility.yul\":7493:7912   */\n    tag_204:\n        /* \"#utility.yul\":7659:7663   */\n      0x00\n        /* \"#utility.yul\":7697:7699   */\n      0x20\n        /* \"#utility.yul\":7686:7695   */\n      dup3\n        /* \"#utility.yul\":7682:7700   */\n      add\n        /* \"#utility.yul\":7674:7700   */\n      swap1\n      pop\n        /* \"#utility.yul\":7746:7755   */\n      dup2\n        /* \"#utility.yul\":7740:7744   */\n      dup2\n        /* \"#utility.yul\":7736:7756   */\n      sub\n        /* \"#utility.yul\":7732:7733   */\n      0x00\n        /* \"#utility.yul\":7721:7730   */\n      dup4\n        /* \"#utility.yul\":7717:7734   */\n      add\n        /* \"#utility.yul\":7710:7757   */\n      mstore\n        /* \"#utility.yul\":7774:7905   */\n      tag_338\n        /* \"#utility.yul\":7900:7904   */\n      dup2\n        /* \"#utility.yul\":7774:7905   */\n      tag_273\n      jump\t// in\n    tag_338:\n        /* \"#utility.yul\":7766:7905   */\n      swap1\n      pop\n        /* \"#utility.yul\":7493:7912   */\n      swap2\n      swap1\n      pop\n      jump\t// out\n        /* \"#utility.yul\":7918:8337   */\n    tag_208:\n        /* \"#utility.yul\":8084:8088   */\n      0x00\n        /* \"#utility.yul\":8122:8124   */\n      0x20\n        /* \"#utility.yul\":8111:8120   */\n      dup3\n        /* \"#utility.yul\":8107:8125   */\n      add\n        /* \"#utility.yul\":8099:8125   */\n      swap1\n      pop\n        /* \"#utility.yul\":8171:8180   */\n      dup2\n        /* \"#utility.yul\":8165:8169   */\n      dup2\n        /* \"#utility.yul\":8161:8181   */\n      sub\n        /* \"#utility.yul\":8157:8158   */\n      0x00\n        /* \"#utility.yul\":8146:8155   */\n      dup4\n        /* \"#utility.yul\":8142:8159   */\n      add\n        /* \"#utility.yul\":8135:8182   */\n      mstore\n        /* \"#utility.yul\":8199:8330   */\n      tag_340\n        /* \"#utility.yul\":8325:8329   */\n      dup2\n        /* \"#utility.yul\":8199:8330   */\n      tag_278\n      jump\t// in\n    tag_340:\n        /* \"#utility.yul\":8191:8330   */\n      swap1\n      pop\n        /* \"#utility.yul\":7918:8337   */\n      swap2\n      swap1\n      pop\n      jump\t// out\n        /* \"#utility.yul\":8343:8762   */\n    tag_56:\n        /* \"#utility.yul\":8509:8513   */\n      0x00\n        /* \"#utility.yul\":8547:8549   */\n      0x20\n        /* \"#utility.yul\":8536:8545   */\n      dup3\n        /* \"#utility.yul\":8532:8550   */\n      add\n        /* \"#utility.yul\":8524:8550   */\n      swap1\n      pop\n        /* \"#utility.yul\":8596:8605   */\n      dup2\n        /* \"#utility.yul\":8590:8594   */\n      dup2\n        /* \"#utility.yul\":8586:8606   */\n      sub\n        /* \"#utility.yul\":8582:8583   */\n      0x00\n        /* \"#utility.yul\":8571:8580   */\n      dup4\n        /* \"#utility.yul\":8567:8584   */\n      add\n        /* \"#utility.yul\":8560:8607   */\n      mstore\n        /* \"#utility.yul\":8624:8755   */\n      tag_342\n        /* \"#utility.yul\":8750:8754   */\n      dup2\n        /* \"#utility.yul\":8624:8755   */\n      tag_283\n      jump\t// in\n    tag_342:\n        /* \"#utility.yul\":8616:8755   */\n      swap1\n      pop\n        /* \"#utility.yul\":8343:8762   */\n      swap2\n      swap1\n      pop\n      jump\t// out\n        /* \"#utility.yul\":8768:9187   */\n    tag_113:\n        /* \"#utility.yul\":8934:8938   */\n      0x00\n        /* \"#utility.yul\":8972:8974   */\n      0x20\n        /* \"#utility.yul\":8961:8970   */\n      dup3\n        /* \"#utility.yul\":8957:8975   */\n      add\n        /* \"#utility.yul\":8949:8975   */\n      swap1\n      pop\n        /* \"#utility.yul\":9021:9030   */\n      dup2\n        /* \"#utility.yul\":9015:9019   */\n      dup2\n        /* \"#utility.yul\":9011:9031   */\n      sub\n        /* \"#utility.yul\":9007:9008   */\n      0x00\n        /* \"#utility.yul\":8996:9005   */\n      dup4\n        /* \"#utility.yul\":8992:9009   */\n      add\n        /* \"#utility.yul\":8985:9032   */\n      mstore\n        /* \"#utility.yul\":9049:9180   */\n      tag_344\n        /* \"#utility.yul\":9175:9179   */\n      dup2\n        /* \"#utility.yul\":9049:9180   */\n      tag_288\n      jump\t// in\n    tag_344:\n        /* \"#utility.yul\":9041:9180   */\n      swap1\n      pop\n        /* \"#utility.yul\":8768:9187   */\n      swap2\n      swap1\n      pop\n      jump\t// out\n        /* \"#utility.yul\":9193:9612   */\n    tag_47:\n        /* \"#utility.yul\":9359:9363   */\n      0x00\n        /* \"#utility.yul\":9397:9399   */\n      0x20\n        /* \"#utility.yul\":9386:9395   */\n      dup3\n        /* \"#utility.yul\":9382:9400   */\n      add\n        /* \"#utility.yul\":9374:9400   */\n      swap1\n      pop\n        /* \"#utility.yul\":9446:9455   */\n      dup2\n        /* \"#utility.yul\":9440:9444   */\n      dup2\n        /* \"#utility.yul\":9436:9456   */\n      sub\n        /* \"#utility.yul\":9432:9433   */\n      0x00\n        /* \"#utility.yul\":9421:9430   */\n      dup4\n        /* \"#utility.yul\":9417:9434   */\n      add\n        /* \"#utility.yul\":9410:9457   */\n      mstore\n        /* \"#utility.yul\":9474:9605   */\n      tag_346\n        /* \"#utility.yul\":9600:9604   */\n      dup2\n        /* \"#utility.yul\":9474:9605   */\n      tag_293\n      jump\t// in\n    tag_346:\n        /* \"#utility.yul\":9466:9605   */\n      swap1\n      pop\n        /* \"#utility.yul\":9193:9612   */\n      swap2\n      swap1\n      pop\n      jump\t// out\n        /* \"#utility.yul\":9618:10037   */\n    tag_64:\n        /* \"#utility.yul\":9784:9788   */\n      0x00\n        /* \"#utility.yul\":9822:9824   */\n      0x20\n        /* \"#utility.yul\":9811:9820   */\n      dup3\n        /* \"#utility.yul\":9807:9825   */\n      add\n        /* \"#utility.yul\":9799:9825   */\n      swap1\n      pop\n        /* \"#utility.yul\":9871:9880   */\n      dup2\n        /* \"#utility.yul\":9865:9869   */\n      dup2\n        /* \"#utility.yul\":9861:9881   */\n      sub\n        /* \"#utility.yul\":9857:9858   */\n      0x00\n        /* \"#utility.yul\":9846:9855   */\n      dup4\n        /* \"#utility.yul\":9842:9859   */\n      add\n        /* \"#utility.yul\":9835:9882   */\n      mstore\n        /* \"#utility.yul\":9899:10030   */\n      tag_348\n        /* \"#utility.yul\":10025:10029   */\n      dup2\n        /* \"#utility.yul\":9899:10030   */\n      tag_298\n      jump\t// in\n    tag_348:\n        /* \"#utility.yul\":9891:10030   */\n      swap1\n      pop\n        /* \"#utility.yul\":9618:10037   */\n      swap2\n      swap1\n      pop\n      jump\t// out\n        /* \"#utility.yul\":10043:10462   */\n    tag_68:\n        /* \"#utility.yul\":10209:10213   */\n      0x00\n        /* \"#utility.yul\":10247:10249   */\n      0x20\n        /* \"#utility.yul\":10236:10245   */\n      dup3\n        /* \"#utility.yul\":10232:10250   */\n      add\n        /* \"#utility.yul\":10224:10250   */\n      swap1\n      pop\n        /* \"#utility.yul\":10296:10305   */\n      dup2\n        /* \"#utility.yul\":10290:10294   */\n      dup2\n        /* \"#utility.yul\":10286:10306   */\n      sub\n        /* \"#utility.yul\":10282:10283   */\n      0x00\n        /* \"#utility.yul\":10271:10280   */\n      dup4\n        /* \"#utility.yul\":10267:10284   */\n      add\n        /* \"#utility.yul\":10260:10307   */\n      mstore\n        /* \"#utility.yul\":10324:10455   */\n      tag_350\n        /* \"#utility.yul\":10450:10454   */\n      dup2\n        /* \"#utility.yul\":10324:10455   */\n      tag_303\n      jump\t// in\n    tag_350:\n        /* \"#utility.yul\":10316:10455   */\n      swap1\n      pop\n        /* \"#utility.yul\":10043:10462   */\n      swap2\n      swap1\n      pop\n      jump\t// out\n        /* \"#utility.yul\":10468:10887   */\n    tag_160:\n        /* \"#utility.yul\":10634:10638   */\n      0x00\n        /* \"#utility.yul\":10672:10674   */\n      0x20\n        /* \"#utility.yul\":10661:10670   */\n      dup3\n        /* \"#utility.yul\":10657:10675   */\n      add\n        /* \"#utility.yul\":10649:10675   */\n      swap1\n      pop\n        /* \"#utility.yul\":10721:10730   */\n      dup2\n        /* \"#utility.yul\":10715:10719   */\n      dup2\n        /* \"#utility.yul\":10711:10731   */\n      sub\n        /* \"#utility.yul\":10707:10708   */\n      0x00\n        /* \"#utility.yul\":10696:10705   */\n      dup4\n        /* \"#utility.yul\":10692:10709   */\n      add\n        /* \"#utility.yul\":10685:10732   */\n      mstore\n        /* \"#utility.yul\":10749:10880   */\n      tag_352\n        /* \"#utility.yul\":10875:10879   */\n      dup2\n        /* \"#utility.yul\":10749:10880   */\n      tag_308\n      jump\t// in\n    tag_352:\n        /* \"#utility.yul\":10741:10880   */\n      swap1\n      pop\n        /* \"#utility.yul\":10468:10887   */\n      swap2\n      swap1\n      pop\n      jump\t// out\n        /* \"#utility.yul\":10893:11115   */\n    tag_15:\n        /* \"#utility.yul\":10986:10990   */\n      0x00\n        /* \"#utility.yul\":11024:11026   */\n      0x20\n        /* \"#utility.yul\":11013:11022   */\n      dup3\n        /* \"#utility.yul\":11009:11027   */\n      add\n        /* \"#utility.yul\":11001:11027   */\n      swap1\n      pop\n        /* \"#utility.yul\":11037:11108   */\n      tag_354\n        /* \"#utility.yul\":11105:11106   */\n      0x00\n        /* \"#utility.yul\":11094:11103   */\n      dup4\n        /* \"#utility.yul\":11090:11107   */\n      add\n        /* \"#utility.yul\":11081:11087   */\n      dup5\n        /* \"#utility.yul\":11037:11108   */\n      tag_313\n      jump\t// in\n    tag_354:\n        /* \"#utility.yul\":10893:11115   */\n      swap3\n      swap2\n      pop\n      pop\n      jump\t// out\n        /* \"#utility.yul\":11121:11544   */\n    tag_27:\n        /* \"#utility.yul\":11262:11266   */\n      0x00\n        /* \"#utility.yul\":11300:11302   */\n      0x40\n        /* \"#utility.yul\":11289:11298   */\n      dup3\n        /* \"#utility.yul\":11285:11303   */\n      add\n        /* \"#utility.yul\":11277:11303   */\n      swap1\n      pop\n        /* \"#utility.yul\":11313:11384   */\n      tag_356\n        /* \"#utility.yul\":11381:11382   */\n      0x00\n        /* \"#utility.yul\":11370:11379   */\n      dup4\n        /* \"#utility.yul\":11366:11383   */\n      add\n        /* \"#utility.yul\":11357:11363   */\n      dup6\n        /* \"#utility.yul\":11313:11384   */\n      tag_313\n      jump\t// in\n    tag_356:\n        /* \"#utility.yul\":11431:11440   */\n      dup2\n        /* \"#utility.yul\":11425:11429   */\n      dup2\n        /* \"#utility.yul\":11421:11441   */\n      sub\n        /* \"#utility.yul\":11416:11418   */\n      0x20\n        /* \"#utility.yul\":11405:11414   */\n      dup4\n        /* \"#utility.yul\":11401:11419   */\n      add\n        /* \"#utility.yul\":11394:11442   */\n      mstore\n        /* \"#utility.yul\":11459:11537   */\n      tag_357\n        /* \"#utility.yul\":11532:11536   */\n      dup2\n        /* \"#utility.yul\":11523:11529   */\n      dup5\n        /* \"#utility.yul\":11459:11537   */\n      tag_265\n      jump\t// in\n    tag_357:\n        /* \"#utility.yul\":11451:11537   */\n      swap1\n      pop\n        /* \"#utility.yul\":11121:11544   */\n      swap4\n      swap3\n      pop\n      pop\n      pop\n      jump\t// out\n        /* \"#utility.yul\":11550:11882   */\n    tag_170:\n        /* \"#utility.yul\":11671:11675   */\n      0x00\n        /* \"#utility.yul\":11709:11711   */\n      0x40\n        /* \"#utility.yul\":11698:11707   */\n      dup3\n        /* \"#utility.yul\":11694:11712   */\n      add\n        /* \"#utility.yul\":11686:11712   */\n      swap1\n      pop\n        /* \"#utility.yul\":11722:11793   */\n      tag_359\n        /* \"#utility.yul\":11790:11791   */\n      0x00\n        /* \"#utility.yul\":11779:11788   */\n      dup4\n        /* \"#utility.yul\":11775:11792   */\n      add\n        /* \"#utility.yul\":11766:11772   */\n      dup6\n        /* \"#utility.yul\":11722:11793   */\n      tag_313\n      jump\t// in\n    tag_359:\n        /* \"#utility.yul\":11803:11875   */\n      tag_360\n        /* \"#utility.yul\":11871:11873   */\n      0x20\n        /* \"#utility.yul\":11860:11869   */\n      dup4\n        /* \"#utility.yul\":11856:11874   */\n      add\n        /* \"#utility.yul\":11847:11853   */\n      dup5\n        /* \"#utility.yul\":11803:11875   */\n      tag_313\n      jump\t// in\n    tag_360:\n        /* \"#utility.yul\":11550:11882   */\n      swap4\n      swap3\n      pop\n      pop\n      pop\n      jump\t// out\n        /* \"#utility.yul\":11888:12330   */\n    tag_31:\n        /* \"#utility.yul\":12037:12041   */\n      0x00\n        /* \"#utility.yul\":12075:12077   */\n      0x60\n        /* \"#utility.yul\":12064:12073   */\n      dup3\n        /* \"#utility.yul\":12060:12078   */\n      add\n        /* \"#utility.yul\":12052:12078   */\n      swap1\n      pop\n        /* \"#utility.yul\":12088:12159   */\n      tag_362\n        /* \"#utility.yul\":12156:12157   */\n      0x00\n        /* \"#utility.yul\":12145:12154   */\n      dup4\n        /* \"#utility.yul\":12141:12158   */\n      add\n        /* \"#utility.yul\":12132:12138   */\n      dup7\n        /* \"#utility.yul\":12088:12159   */\n      tag_313\n      jump\t// in\n    tag_362:\n        /* \"#utility.yul\":12169:12241   */\n      tag_363\n        /* \"#utility.yul\":12237:12239   */\n      0x20\n        /* \"#utility.yul\":12226:12235   */\n      dup4\n        /* \"#utility.yul\":12222:12240   */\n      add\n        /* \"#utility.yul\":12213:12219   */\n      dup6\n        /* \"#utility.yul\":12169:12241   */\n      tag_313\n      jump\t// in\n    tag_363:\n        /* \"#utility.yul\":12251:12323   */\n      tag_364\n        /* \"#utility.yul\":12319:12321   */\n      0x40\n        /* \"#utility.yul\":12308:12317   */\n      dup4\n        /* \"#utility.yul\":12304:12322   */\n      add\n        /* \"#utility.yul\":12295:12301   */\n      dup5\n        /* \"#utility.yul\":12251:12323   */\n      tag_313\n      jump\t// in\n    tag_364:\n        /* \"#utility.yul\":11888:12330   */\n      swap5\n      swap4\n      pop\n      pop\n      pop\n      pop\n      jump\t// out\n        /* \"#utility.yul\":12336:12411   */\n    tag_365:\n        /* \"#utility.yul\":12369:12375   */\n      0x00\n        /* \"#utility.yul\":12402:12404   */\n      0x40\n        /* \"#utility.yul\":12396:12405   */\n      mload\n        /* \"#utility.yul\":12386:12405   */\n      swap1\n      pop\n        /* \"#utility.yul\":12336:12411   */\n      swap1\n      jump\t// out\n        /* \"#utility.yul\":12417:12515   */\n    tag_258:\n        /* \"#utility.yul\":12468:12474   */\n      0x00\n        /* \"#utility.yul\":12502:12507   */\n      dup2\n        /* \"#utility.yul\":12496:12508   */\n      mload\n        /* \"#utility.yul\":12486:12508   */\n      swap1\n      pop\n        /* \"#utility.yul\":12417:12515   */\n      swap2\n      swap1\n      pop\n      jump\t// out\n        /* \"#utility.yul\":12521:12620   */\n    tag_268:\n        /* \"#utility.yul\":12573:12579   */\n      0x00\n        /* \"#utility.yul\":12607:12612   */\n      dup2\n        /* \"#utility.yul\":12601:12613   */\n      mload\n        /* \"#utility.yul\":12591:12613   */\n      swap1\n      pop\n        /* \"#utility.yul\":12521:12620   */\n      swap2\n      swap1\n      pop\n      jump\t// out\n        /* \"#utility.yul\":12626:12794   */\n    tag_260:\n        /* \"#utility.yul\":12709:12720   */\n      0x00\n        /* \"#utility.yul\":12743:12749   */\n      dup3\n        /* \"#utility.yul\":12738:12741   */\n      dup3\n        /* \"#utility.yul\":12731:12750   */\n      mstore\n        /* \"#utility.yul\":12783:12787   */\n      0x20\n        /* \"#utility.yul\":12778:12781   */\n      dup3\n        /* \"#utility.yul\":12774:12788   */\n      add\n        /* \"#utility.yul\":12759:12788   */\n      swap1\n      pop\n        /* \"#utility.yul\":12626:12794   */\n      swap3\n      swap2\n      pop\n      pop\n      jump\t// out\n        /* \"#utility.yul\":12800:12969   */\n    tag_270:\n        /* \"#utility.yul\":12884:12895   */\n      0x00\n        /* \"#utility.yul\":12918:12924   */\n      dup3\n        /* \"#utility.yul\":12913:12916   */\n      dup3\n        /* \"#utility.yul\":12906:12925   */\n      mstore\n        /* \"#utility.yul\":12958:12962   */\n      0x20\n        /* \"#utility.yul\":12953:12956   */\n      dup3\n        /* \"#utility.yul\":12949:12963   */\n      add\n        /* \"#utility.yul\":12934:12963   */\n      swap1\n      pop\n        /* \"#utility.yul\":12800:12969   */\n      swap3\n      swap2\n      pop\n      pop\n      jump\t// out\n        /* \"#utility.yul\":12975:13280   */\n    tag_168:\n        /* \"#utility.yul\":13015:13018   */\n      0x00\n        /* \"#utility.yul\":13034:13054   */\n      tag_372\n        /* \"#utility.yul\":13052:13053   */\n      dup3\n        /* \"#utility.yul\":13034:13054   */\n      tag_316\n      jump\t// in\n    tag_372:\n        /* \"#utility.yul\":13029:13054   */\n      swap2\n      pop\n        /* \"#utility.yul\":13068:13088   */\n      tag_373\n        /* \"#utility.yul\":13086:13087   */\n      dup4\n        /* \"#utility.yul\":13068:13088   */\n      tag_316\n      jump\t// in\n    tag_373:\n        /* \"#utility.yul\":13063:13088   */\n      swap3\n      pop\n        /* \"#utility.yul\":13222:13223   */\n      dup3\n        /* \"#utility.yul\":13154:13220   */\n      0xffffffffffffffffffffffffffffffffffffffffffffffffffffffffffffffff\n        /* \"#utility.yul\":13150:13224   */\n      sub\n        /* \"#utility.yul\":13147:13148   */\n      dup3\n        /* \"#utility.yul\":13144:13225   */\n      gt\n        /* \"#utility.yul\":13141:13248   */\n      iszero\n      tag_374\n      jumpi\n        /* \"#utility.yul\":13228:13246   */\n      tag_375\n      tag_376\n      jump\t// in\n    tag_375:\n        /* \"#utility.yul\":13141:13248   */\n    tag_374:\n        /* \"#utility.yul\":13272:13273   */\n      dup3\n        /* \"#utility.yul\":13269:13270   */\n      dup3\n        /* \"#utility.yul\":13265:13274   */\n      add\n        /* \"#utility.yul\":13258:13274   */\n      swap1\n      pop\n        /* \"#utility.yul\":12975:13280   */\n      swap3\n      swap2\n      pop\n      pop\n      jump\t// out\n        /* \"#utility.yul\":13286:13382   */\n    tag_245:\n        /* \"#utility.yul\":13323:13330   */\n      0x00\n        /* \"#utility.yul\":13352:13376   */\n      tag_378\n        /* \"#utility.yul\":13370:13375   */\n      dup3\n        /* \"#utility.yul\":13352:13376   */\n      tag_379\n      jump\t// in\n    tag_378:\n        /* \"#utility.yul\":13341:13376   */\n      swap1\n      pop\n        /* \"#utility.yul\":13286:13382   */\n      swap2\n      swap1\n      pop\n      jump\t// out\n        /* \"#utility.yul\":13388:13492   */\n    tag_241:\n        /* \"#utility.yul\":13433:13440   */\n      0x00\n        /* \"#utility.yul\":13462:13486   */\n      tag_381\n        /* \"#utility.yul\":13480:13485   */\n      dup3\n        /* \"#utility.yul\":13462:13486   */\n      tag_379\n      jump\t// in\n    tag_381:\n        /* \"#utility.yul\":13451:13486   */\n      swap1\n      pop\n        /* \"#utility.yul\":13388:13492   */\n      swap2\n      swap1\n      pop\n      jump\t// out\n        /* \"#utility.yul\":13498:13588   */\n    tag_254:\n        /* \"#utility.yul\":13532:13539   */\n      0x00\n        /* \"#utility.yul\":13575:13580   */\n      dup2\n        /* \"#utility.yul\":13568:13581   */\n      iszero\n        /* \"#utility.yul\":13561:13582   */\n      iszero\n        /* \"#utility.yul\":13550:13582   */\n      swap1\n      pop\n        /* \"#utility.yul\":13498:13588   */\n      swap2\n      swap1\n      pop\n      jump\t// out\n        /* \"#utility.yul\":13594:13743   */\n    tag_383:\n        /* \"#utility.yul\":13630:13637   */\n      0x00\n        /* \"#utility.yul\":13670:13736   */\n      0xffffffff00000000000000000000000000000000000000000000000000000000\n        /* \"#utility.yul\":13663:13668   */\n      dup3\n        /* \"#utility.yul\":13659:13737   */\n      and\n        /* \"#utility.yul\":13648:13737   */\n      swap1\n      pop\n        /* \"#utility.yul\":13594:13743   */\n      swap2\n      swap1\n      pop\n      jump\t// out\n        /* \"#utility.yul\":13749:13875   */\n    tag_379:\n        /* \"#utility.yul\":13786:13793   */\n      0x00\n        /* \"#utility.yul\":13826:13868   */\n      0xffffffffffffffffffffffffffffffffffffffff\n        /* \"#utility.yul\":13819:13824   */\n      dup3\n        /* \"#utility.yul\":13815:13869   */\n      and\n        /* \"#utility.yul\":13804:13869   */\n      swap1\n      pop\n        /* \"#utility.yul\":13749:13875   */\n      swap2\n      swap1\n      pop\n      jump\t// out\n        /* \"#utility.yul\":13881:13958   */\n    tag_316:\n        /* \"#utility.yul\":13918:13925   */\n      0x00\n        /* \"#utility.yul\":13947:13952   */\n      dup2\n        /* \"#utility.yul\":13936:13952   */\n      swap1\n      pop\n        /* \"#utility.yul\":13881:13958   */\n      swap2\n      swap1\n      pop\n      jump\t// out\n        /* \"#utility.yul\":13964:14271   */\n    tag_262:\n        /* \"#utility.yul\":14032:14033   */\n      0x00\n        /* \"#utility.yul\":14042:14155   */\n    tag_388:\n        /* \"#utility.yul\":14056:14062   */\n      dup4\n        /* \"#utility.yul\":14053:14054   */\n      dup2\n        /* \"#utility.yul\":14050:14063   */\n      lt\n        /* \"#utility.yul\":14042:14155   */\n      iszero\n      tag_390\n      jumpi\n        /* \"#utility.yul\":14141:14142   */\n      dup1\n        /* \"#utility.yul\":14136:14139   */\n      dup3\n        /* \"#utility.yul\":14132:14143   */\n      add\n        /* \"#utility.yul\":14126:14144   */\n      mload\n        /* \"#utility.yul\":14122:14123   */\n      dup2\n        /* \"#utility.yul\":14117:14120   */\n      dup5\n        /* \"#utility.yul\":14113:14124   */\n      add\n        /* \"#utility.yul\":14106:14145   */\n      mstore\n        /* \"#utility.yul\":14078:14080   */\n      0x20\n        /* \"#utility.yul\":14075:14076   */\n      dup2\n        /* \"#utility.yul\":14071:14081   */\n      add\n        /* \"#utility.yul\":14066:14081   */\n      swap1\n      pop\n        /* \"#utility.yul\":14042:14155   */\n      jump(tag_388)\n    tag_390:\n        /* \"#utility.yul\":14173:14179   */\n      dup4\n        /* \"#utility.yul\":14170:14171   */\n      dup2\n        /* \"#utility.yul\":14167:14180   */\n      gt\n        /* \"#utility.yul\":14164:14265   */\n      iszero\n      tag_391\n      jumpi\n        /* \"#utility.yul\":14253:14254   */\n      0x00\n        /* \"#utility.yul\":14244:14250   */\n      dup5\n        /* \"#utility.yul\":14239:14242   */\n      dup5\n        /* \"#utility.yul\":14235:14251   */\n      add\n        /* \"#utility.yul\":14228:14255   */\n      mstore\n        /* \"#utility.yul\":14164:14265   */\n    tag_391:\n        /* \"#utility.yul\":14013:14271   */\n      pop\n        /* \"#utility.yul\":13964:14271   */\n      pop\n      pop\n      pop\n      jump\t// out\n        /* \"#utility.yul\":14277:14597   */\n    tag_89:\n        /* \"#utility.yul\":14321:14327   */\n      0x00\n        /* \"#utility.yul\":14358:14359   */\n      0x02\n        /* \"#utility.yul\":14352:14356   */\n      dup3\n        /* \"#utility.yul\":14348:14360   */\n      div\n        /* \"#utility.yul\":14338:14360   */\n      swap1\n      pop\n        /* \"#utility.yul\":14405:14406   */\n      0x01\n        /* \"#utility.yul\":14399:14403   */\n      dup3\n        /* \"#utility.yul\":14395:14407   */\n      and\n        /* \"#utility.yul\":14426:14444   */\n      dup1\n        /* \"#utility.yul\":14416:14497   */\n      tag_393\n      jumpi\n        /* \"#utility.yul\":14482:14486   */\n      0x7f\n        /* \"#utility.yul\":14474:14480   */\n      dup3\n        /* \"#utility.yul\":14470:14487   */\n      and\n        /* \"#utility.yul\":14460:14487   */\n      swap2\n      pop\n        /* \"#utility.yul\":14416:14497   */\n    tag_393:\n        /* \"#utility.yul\":14544:14546   */\n      0x20\n        /* \"#utility.yul\":14536:14542   */\n      dup3\n        /* \"#utility.yul\":14533:14547   */\n      lt\n        /* \"#utility.yul\":14513:14531   */\n      dup2\n        /* \"#utility.yul\":14510:14548   */\n      eq\n        /* \"#utility.yul\":14507:14591   */\n      iszero\n      tag_394\n      jumpi\n        /* \"#utility.yul\":14563:14581   */\n      tag_395\n      tag_396\n      jump\t// in\n    tag_395:\n        /* \"#utility.yul\":14507:14591   */\n    tag_394:\n        /* \"#utility.yul\":14328:14597   */\n      pop\n        /* \"#utility.yul\":14277:14597   */\n      swap2\n      swap1\n      pop\n      jump\t// out\n        /* \"#utility.yul\":14603:14884   */\n    tag_397:\n        /* \"#utility.yul\":14686:14713   */\n      tag_399\n        /* \"#utility.yul\":14708:14712   */\n      dup3\n        /* \"#utility.yul\":14686:14713   */\n      tag_264\n      jump\t// in\n    tag_399:\n        /* \"#utility.yul\":14678:14684   */\n      dup2\n        /* \"#utility.yul\":14674:14714   */\n      add\n        /* \"#utility.yul\":14816:14822   */\n      dup2\n        /* \"#utility.yul\":14804:14814   */\n      dup2\n        /* \"#utility.yul\":14801:14823   */\n      lt\n        /* \"#utility.yul\":14780:14798   */\n      0xffffffffffffffff\n        /* \"#utility.yul\":14768:14778   */\n      dup3\n        /* \"#utility.yul\":14765:14799   */\n      gt\n        /* \"#utility.yul\":14762:14824   */\n      or\n        /* \"#utility.yul\":14759:14847   */\n      iszero\n      tag_400\n      jumpi\n        /* \"#utility.yul\":14827:14845   */\n      tag_401\n      tag_176\n      jump\t// in\n    tag_401:\n        /* \"#utility.yul\":14759:14847   */\n    tag_400:\n        /* \"#utility.yul\":14867:14877   */\n      dup1\n        /* \"#utility.yul\":14863:14865   */\n      0x40\n        /* \"#utility.yul\":14856:14878   */\n      mstore\n        /* \"#utility.yul\":14646:14884   */\n      pop\n        /* \"#utility.yul\":14603:14884   */\n      pop\n      pop\n      jump\t// out\n        /* \"#utility.yul\":14890:15123   */\n    tag_76:\n        /* \"#utility.yul\":14929:14932   */\n      0x00\n        /* \"#utility.yul\":14952:14976   */\n      tag_403\n        /* \"#utility.yul\":14970:14975   */\n      dup3\n        /* \"#utility.yul\":14952:14976   */\n      tag_316\n      jump\t// in\n    tag_403:\n        /* \"#utility.yul\":14943:14976   */\n      swap2\n      pop\n        /* \"#utility.yul\":14998:15064   */\n      0xffffffffffffffffffffffffffffffffffffffffffffffffffffffffffffffff\n        /* \"#utility.yul\":14991:14996   */\n      dup3\n        /* \"#utility.yul\":14988:15065   */\n      eq\n        /* \"#utility.yul\":14985:15088   */\n      iszero\n      tag_404\n      jumpi\n        /* \"#utility.yul\":15068:15086   */\n      tag_405\n      tag_376\n      jump\t// in\n    tag_405:\n        /* \"#utility.yul\":14985:15088   */\n    tag_404:\n        /* \"#utility.yul\":15115:15116   */\n      0x01\n        /* \"#utility.yul\":15108:15113   */\n      dup3\n        /* \"#utility.yul\":15104:15117   */\n      add\n        /* \"#utility.yul\":15097:15117   */\n      swap1\n      pop\n        /* \"#utility.yul\":14890:15123   */\n      swap2\n      swap1\n      pop\n      jump\t// out\n        /* \"#utility.yul\":15129:15229   */\n    tag_250:\n        /* \"#utility.yul\":15168:15175   */\n      0x00\n        /* \"#utility.yul\":15197:15223   */\n      tag_407\n        /* \"#utility.yul\":15217:15222   */\n      dup3\n        /* \"#utility.yul\":15197:15223   */\n      tag_408\n      jump\t// in\n    tag_407:\n        /* \"#utility.yul\":15186:15223   */\n      swap1\n      pop\n        /* \"#utility.yul\":15129:15229   */\n      swap2\n      swap1\n      pop\n      jump\t// out\n        /* \"#utility.yul\":15235:15329   */\n    tag_408:\n        /* \"#utility.yul\":15274:15281   */\n      0x00\n        /* \"#utility.yul\":15303:15323   */\n      tag_410\n        /* \"#utility.yul\":15317:15322   */\n      dup3\n        /* \"#utility.yul\":15303:15323   */\n      tag_411\n      jump\t// in\n    tag_410:\n        /* \"#utility.yul\":15292:15323   */\n      swap1\n      pop\n        /* \"#utility.yul\":15235:15329   */\n      swap2\n      swap1\n      pop\n      jump\t// out\n        /* \"#utility.yul\":15335:15414   */\n    tag_321:\n        /* \"#utility.yul\":15374:15381   */\n      0x00\n        /* \"#utility.yul\":15403:15408   */\n      dup2\n        /* \"#utility.yul\":15392:15408   */\n      swap1\n      pop\n        /* \"#utility.yul\":15335:15414   */\n      swap2\n      swap1\n      pop\n      jump\t// out\n        /* \"#utility.yul\":15420:15596   */\n    tag_156:\n        /* \"#utility.yul\":15452:15453   */\n      0x00\n        /* \"#utility.yul\":15469:15489   */\n      tag_414\n        /* \"#utility.yul\":15487:15488   */\n      dup3\n        /* \"#utility.yul\":15469:15489   */\n      tag_316\n      jump\t// in\n    tag_414:\n        /* \"#utility.yul\":15464:15489   */\n      swap2\n      pop\n        /* \"#utility.yul\":15503:15523   */\n      tag_415\n        /* \"#utility.yul\":15521:15522   */\n      dup4\n        /* \"#utility.yul\":15503:15523   */\n      tag_316\n      jump\t// in\n    tag_415:\n        /* \"#utility.yul\":15498:15523   */\n      swap3\n      pop\n        /* \"#utility.yul\":15542:15543   */\n      dup3\n        /* \"#utility.yul\":15532:15567   */\n      tag_416\n      jumpi\n        /* \"#utility.yul\":15547:15565   */\n      tag_417\n      tag_418\n      jump\t// in\n    tag_417:\n        /* \"#utility.yul\":15532:15567   */\n    tag_416:\n        /* \"#utility.yul\":15588:15589   */\n      dup3\n        /* \"#utility.yul\":15585:15586   */\n      dup3\n        /* \"#utility.yul\":15581:15590   */\n      mod\n        /* \"#utility.yul\":15576:15590   */\n      swap1\n      pop\n        /* \"#utility.yul\":15420:15596   */\n      swap3\n      swap2\n      pop\n      pop\n      jump\t// out\n        /* \"#utility.yul\":15602:15782   */\n    tag_376:\n        /* \"#utility.yul\":15650:15727   */\n      0x4e487b7100000000000000000000000000000000000000000000000000000000\n        /* \"#utility.yul\":15647:15648   */\n      0x00\n        /* \"#utility.yul\":15640:15728   */\n      mstore\n        /* \"#utility.yul\":15747:15751   */\n      0x11\n        /* \"#utility.yul\":15744:15745   */\n      0x04\n        /* \"#utility.yul\":15737:15752   */\n      mstore\n        /* \"#utility.yul\":15771:15775   */\n      0x24\n        /* \"#utility.yul\":15768:15769   */\n      0x00\n        /* \"#utility.yul\":15761:15776   */\n      revert\n        /* \"#utility.yul\":15788:15968   */\n    tag_418:\n        /* \"#utility.yul\":15836:15913   */\n      0x4e487b7100000000000000000000000000000000000000000000000000000000\n        /* \"#utility.yul\":15833:15834   */\n      0x00\n        /* \"#utility.yul\":15826:15914   */\n      mstore\n        /* \"#utility.yul\":15933:15937   */\n      0x12\n        /* \"#utility.yul\":15930:15931   */\n      0x04\n        /* \"#utility.yul\":15923:15938   */\n      mstore\n        /* \"#utility.yul\":15957:15961   */\n      0x24\n        /* \"#utility.yul\":15954:15955   */\n      0x00\n        /* \"#utility.yul\":15947:15962   */\n      revert\n        /* \"#utility.yul\":15974:16154   */\n    tag_396:\n        /* \"#utility.yul\":16022:16099   */\n      0x4e487b7100000000000000000000000000000000000000000000000000000000\n        /* \"#utility.yul\":16019:16020   */\n      0x00\n        /* \"#utility.yul\":16012:16100   */\n      mstore\n        /* \"#utility.yul\":16119:16123   */\n      0x22\n        /* \"#utility.yul\":16116:16117   */\n      0x04\n        /* \"#utility.yul\":16109:16124   */\n      mstore\n        /* \"#utility.yul\":16143:16147   */\n      0x24\n        /* \"#utility.yul\":16140:16141   */\n      0x00\n        /* \"#utility.yul\":16133:16148   */\n      revert\n        /* \"#utility.yul\":16160:16340   */\n    tag_180:\n        /* \"#utility.yul\":16208:16285   */\n      0x4e487b7100000000000000000000000000000000000000000000000000000000\n        /* \"#utility.yul\":16205:16206   */\n      0x00\n        /* \"#utility.yul\":16198:16286   */\n      mstore\n        /* \"#utility.yul\":16305:16309   */\n      0x32\n        /* \"#utility.yul\":16302:16303   */\n      0x04\n        /* \"#utility.yul\":16295:16310   */\n      mstore\n        /* \"#utility.yul\":16329:16333   */\n      0x24\n        /* \"#utility.yul\":16326:16327   */\n      0x00\n        /* \"#utility.yul\":16319:16334   */\n      revert\n        /* \"#utility.yul\":16346:16526   */\n    tag_176:\n        /* \"#utility.yul\":16394:16471   */\n      0x4e487b7100000000000000000000000000000000000000000000000000000000\n        /* \"#utility.yul\":16391:16392   */\n      0x00\n        /* \"#utility.yul\":16384:16472   */\n      mstore\n        /* \"#utility.yul\":16491:16495   */\n      0x41\n        /* \"#utility.yul\":16488:16489   */\n      0x04\n        /* \"#utility.yul\":16481:16496   */\n      mstore\n        /* \"#utility.yul\":16515:16519   */\n      0x24\n        /* \"#utility.yul\":16512:16513   */\n      0x00\n        /* \"#utility.yul\":16505:16520   */\n      revert\n        /* \"#utility.yul\":16532:16715   */\n    tag_197:\n        /* \"#utility.yul\":16567:16570   */\n      0x00\n        /* \"#utility.yul\":16605:16606   */\n      0x03\n        /* \"#utility.yul\":16587:16603   */\n      returndatasize\n        /* \"#utility.yul\":16584:16607   */\n      gt\n        /* \"#utility.yul\":16581:16709   */\n      iszero\n      tag_425\n      jumpi\n        /* \"#utility.yul\":16643:16644   */\n      0x04\n        /* \"#utility.yul\":16640:16641   */\n      0x00\n        /* \"#utility.yul\":16637:16638   */\n      dup1\n        /* \"#utility.yul\":16622:16645   */\n      returndatacopy\n        /* \"#utility.yul\":16665:16699   */\n      tag_426\n        /* \"#utility.yul\":16696:16697   */\n      0x00\n        /* \"#utility.yul\":16690:16698   */\n      mload\n        /* \"#utility.yul\":16665:16699   */\n      tag_427\n      jump\t// in\n    tag_426:\n        /* \"#utility.yul\":16658:16699   */\n      swap1\n      pop\n        /* \"#utility.yul\":16581:16709   */\n    tag_425:\n        /* \"#utility.yul\":16532:16715   */\n      swap1\n      jump\t// out\n        /* \"#utility.yul\":16844:16961   */\n    tag_232:\n        /* \"#utility.yul\":16953:16954   */\n      0x00\n        /* \"#utility.yul\":16950:16951   */\n      dup1\n        /* \"#utility.yul\":16943:16955   */\n      revert\n        /* \"#utility.yul\":16967:17069   */\n    tag_264:\n        /* \"#utility.yul\":17008:17014   */\n      0x00\n        /* \"#utility.yul\":17059:17061   */\n      0x1f\n        /* \"#utility.yul\":17055:17062   */\n      not\n        /* \"#utility.yul\":17050:17052   */\n      0x1f\n        /* \"#utility.yul\":17043:17048   */\n      dup4\n        /* \"#utility.yul\":17039:17053   */\n      add\n        /* \"#utility.yul\":17035:17063   */\n      and\n        /* \"#utility.yul\":17025:17063   */\n      swap1\n      pop\n        /* \"#utility.yul\":16967:17069   */\n      swap2\n      swap1\n      pop\n      jump\t// out\n        /* \"#utility.yul\":17075:17169   */\n    tag_411:\n        /* \"#utility.yul\":17108:17116   */\n      0x00\n        /* \"#utility.yul\":17156:17161   */\n      dup2\n        /* \"#utility.yul\":17152:17154   */\n      0x60\n        /* \"#utility.yul\":17148:17162   */\n      shl\n        /* \"#utility.yul\":17127:17162   */\n      swap1\n      pop\n        /* \"#utility.yul\":17075:17169   */\n      swap2\n      swap1\n      pop\n      jump\t// out\n        /* \"#utility.yul\":17175:17281   */\n    tag_427:\n        /* \"#utility.yul\":17219:17227   */\n      0x00\n        /* \"#utility.yul\":17268:17273   */\n      dup2\n        /* \"#utility.yul\":17263:17266   */\n      0xe0\n        /* \"#utility.yul\":17259:17274   */\n      shr\n        /* \"#utility.yul\":17238:17274   */\n      swap1\n      pop\n        /* \"#utility.yul\":17175:17281   */\n      swap2\n      swap1\n      pop\n      jump\t// out\n        /* \"#utility.yul\":17287:17526   */\n    tag_277:\n        /* \"#utility.yul\":17427:17461   */\n      0x455243313135353a207472616e7366657220746f206e6f6e2045524331313535\n        /* \"#utility.yul\":17423:17424   */\n      0x00\n        /* \"#utility.yul\":17415:17421   */\n      dup3\n        /* \"#utility.yul\":17411:17425   */\n      add\n        /* \"#utility.yul\":17404:17462   */\n      mstore\n        /* \"#utility.yul\":17496:17518   */\n      0x526563656976657220696d706c656d656e746572000000000000000000000000\n        /* \"#utility.yul\":17491:17493   */\n      0x20\n        /* \"#utility.yul\":17483:17489   */\n      dup3\n        /* \"#utility.yul\":17479:17494   */\n      add\n        /* \"#utility.yul\":17472:17519   */\n      mstore\n        /* \"#utility.yul\":17287:17526   */\n      pop\n      jump\t// out\n        /* \"#utility.yul\":17532:17759   */\n    tag_282:\n        /* \"#utility.yul\":17672:17706   */\n      0x455243313135353a204552433131353552656365697665722072656a65637465\n        /* \"#utility.yul\":17668:17669   */\n      0x00\n        /* \"#utility.yul\":17660:17666   */\n      dup3\n        /* \"#utility.yul\":17656:17670   */\n      add\n        /* \"#utility.yul\":17649:17707   */\n      mstore\n        /* \"#utility.yul\":17741:17751   */\n      0x6420746f6b656e73000000000000000000000000000000000000000000000000\n        /* \"#utility.yul\":17736:17738   */\n      0x20\n        /* \"#utility.yul\":17728:17734   */\n      dup3\n        /* \"#utility.yul\":17724:17739   */\n      add\n        /* \"#utility.yul\":17717:17752   */\n      mstore\n        /* \"#utility.yul\":17532:17759   */\n      pop\n      jump\t// out\n        /* \"#utility.yul\":17765:17942   */\n    tag_287:\n        /* \"#utility.yul\":17905:17934   */\n      0x44726f707369746520697320616c72656164792052756e6e696e670000000000\n        /* \"#utility.yul\":17901:17902   */\n      0x00\n        /* \"#utility.yul\":17893:17899   */\n      dup3\n        /* \"#utility.yul\":17889:17903   */\n      add\n        /* \"#utility.yul\":17882:17935   */\n      mstore\n        /* \"#utility.yul\":17765:17942   */\n      pop\n      jump\t// out\n        /* \"#utility.yul\":17948:18125   */\n    tag_292:\n        /* \"#utility.yul\":18088:18117   */\n      0x44726f707369746520697320616c72656164792053746f707065640000000000\n        /* \"#utility.yul\":18084:18085   */\n      0x00\n        /* \"#utility.yul\":18076:18082   */\n      dup3\n        /* \"#utility.yul\":18072:18086   */\n      add\n        /* \"#utility.yul\":18065:18118   */\n      mstore\n        /* \"#utility.yul\":17948:18125   */\n      pop\n      jump\t// out\n        /* \"#utility.yul\":18131:18309   */\n    tag_297:\n        /* \"#utility.yul\":18271:18301   */\n      0x4f6e6c79204e46542d4553204f776e65722063616e2041636365737300000000\n        /* \"#utility.yul\":18267:18268   */\n      0x00\n        /* \"#utility.yul\":18259:18265   */\n      dup3\n        /* \"#utility.yul\":18255:18269   */\n      add\n        /* \"#utility.yul\":18248:18302   */\n      mstore\n        /* \"#utility.yul\":18131:18309   */\n      pop\n      jump\t// out\n        /* \"#utility.yul\":18315:18492   */\n    tag_302:\n        /* \"#utility.yul\":18455:18484   */\n      0x44726f7073697465206973206e6f74204f70656e6564205965742e0000000000\n        /* \"#utility.yul\":18451:18452   */\n      0x00\n        /* \"#utility.yul\":18443:18449   */\n      dup3\n        /* \"#utility.yul\":18439:18453   */\n      add\n        /* \"#utility.yul\":18432:18485   */\n      mstore\n        /* \"#utility.yul\":18315:18492   */\n      pop\n      jump\t// out\n        /* \"#utility.yul\":18498:18673   */\n    tag_307:\n        /* \"#utility.yul\":18638:18665   */\n      0x4d6178204d696e74696e67204c696d6974207265616368656400000000000000\n        /* \"#utility.yul\":18634:18635   */\n      0x00\n        /* \"#utility.yul\":18626:18632   */\n      dup3\n        /* \"#utility.yul\":18622:18636   */\n      add\n        /* \"#utility.yul\":18615:18666   */\n      mstore\n        /* \"#utility.yul\":18498:18673   */\n      pop\n      jump\t// out\n        /* \"#utility.yul\":18679:18899   */\n    tag_312:\n        /* \"#utility.yul\":18819:18853   */\n      0x455243313135353a206d696e7420746f20746865207a65726f20616464726573\n        /* \"#utility.yul\":18815:18816   */\n      0x00\n        /* \"#utility.yul\":18807:18813   */\n      dup3\n        /* \"#utility.yul\":18803:18817   */\n      add\n        /* \"#utility.yul\":18796:18854   */\n      mstore\n        /* \"#utility.yul\":18888:18891   */\n      0x7300000000000000000000000000000000000000000000000000000000000000\n        /* \"#utility.yul\":18883:18885   */\n      0x20\n        /* \"#utility.yul\":18875:18881   */\n      dup3\n        /* \"#utility.yul\":18871:18886   */\n      add\n        /* \"#utility.yul\":18864:18892   */\n      mstore\n        /* \"#utility.yul\":18679:18899   */\n      pop\n      jump\t// out\n        /* \"#utility.yul\":18905:19616   */\n    tag_199:\n        /* \"#utility.yul\":18944:18947   */\n      0x00\n        /* \"#utility.yul\":18982:18986   */\n      0x44\n        /* \"#utility.yul\":18964:18980   */\n      returndatasize\n        /* \"#utility.yul\":18961:18987   */\n      lt\n        /* \"#utility.yul\":18958:18997   */\n      iszero\n      tag_443\n      jumpi\n        /* \"#utility.yul\":18990:18995   */\n      jump(tag_442)\n        /* \"#utility.yul\":18958:18997   */\n    tag_443:\n        /* \"#utility.yul\":19019:19039   */\n      tag_444\n      tag_365\n      jump\t// in\n    tag_444:\n        /* \"#utility.yul\":19094:19095   */\n      0x04\n        /* \"#utility.yul\":19076:19092   */\n      returndatasize\n        /* \"#utility.yul\":19072:19096   */\n      sub\n        /* \"#utility.yul\":19069:19070   */\n      0x04\n        /* \"#utility.yul\":19063:19067   */\n      dup3\n        /* \"#utility.yul\":19048:19097   */\n      returndatacopy\n        /* \"#utility.yul\":19127:19131   */\n      dup1\n        /* \"#utility.yul\":19121:19132   */\n      mload\n        /* \"#utility.yul\":19226:19242   */\n      returndatasize\n        /* \"#utility.yul\":19219:19223   */\n      0x24\n        /* \"#utility.yul\":19211:19217   */\n      dup3\n        /* \"#utility.yul\":19207:19224   */\n      add\n        /* \"#utility.yul\":19204:19243   */\n      gt\n        /* \"#utility.yul\":19171:19189   */\n      0xffffffffffffffff\n        /* \"#utility.yul\":19163:19169   */\n      dup3\n        /* \"#utility.yul\":19160:19190   */\n      gt\n        /* \"#utility.yul\":19144:19257   */\n      or\n        /* \"#utility.yul\":19141:19287   */\n      iszero\n      tag_445\n      jumpi\n        /* \"#utility.yul\":19272:19277   */\n      pop\n      pop\n      jump(tag_442)\n        /* \"#utility.yul\":19141:19287   */\n    tag_445:\n        /* \"#utility.yul\":19318:19324   */\n      dup1\n        /* \"#utility.yul\":19312:19316   */\n      dup3\n        /* \"#utility.yul\":19308:19325   */\n      add\n        /* \"#utility.yul\":19354:19357   */\n      dup1\n        /* \"#utility.yul\":19348:19358   */\n      mload\n        /* \"#utility.yul\":19381:19399   */\n      0xffffffffffffffff\n        /* \"#utility.yul\":19373:19379   */\n      dup2\n        /* \"#utility.yul\":19370:19400   */\n      gt\n        /* \"#utility.yul\":19367:19410   */\n      iszero\n      tag_446\n      jumpi\n        /* \"#utility.yul\":19403:19408   */\n      pop\n      pop\n      pop\n      pop\n      jump(tag_442)\n        /* \"#utility.yul\":19367:19410   */\n    tag_446:\n        /* \"#utility.yul\":19451:19457   */\n      dup1\n        /* \"#utility.yul\":19444:19448   */\n      0x20\n        /* \"#utility.yul\":19439:19442   */\n      dup4\n        /* \"#utility.yul\":19435:19449   */\n      add\n        /* \"#utility.yul\":19431:19458   */\n      add\n        /* \"#utility.yul\":19510:19511   */\n      0x04\n        /* \"#utility.yul\":19492:19508   */\n      returndatasize\n        /* \"#utility.yul\":19488:19512   */\n      sub\n        /* \"#utility.yul\":19482:19486   */\n      dup6\n        /* \"#utility.yul\":19478:19513   */\n      add\n        /* \"#utility.yul\":19473:19476   */\n      dup2\n        /* \"#utility.yul\":19470:19514   */\n      gt\n        /* \"#utility.yul\":19467:19524   */\n      iszero\n      tag_447\n      jumpi\n        /* \"#utility.yul\":19517:19522   */\n      pop\n      pop\n      pop\n      pop\n      pop\n      jump(tag_442)\n        /* \"#utility.yul\":19467:19524   */\n    tag_447:\n        /* \"#utility.yul\":19534:19591   */\n      tag_448\n        /* \"#utility.yul\":19582:19588   */\n      dup3\n        /* \"#utility.yul\":19576:19580   */\n      0x20\n        /* \"#utility.yul\":19572:19589   */\n      add\n        /* \"#utility.yul\":19564:19570   */\n      dup6\n        /* \"#utility.yul\":19560:19590   */\n      add\n        /* \"#utility.yul\":19554:19558   */\n      dup7\n        /* \"#utility.yul\":19534:19591   */\n      tag_397\n      jump\t// in\n    tag_448:\n        /* \"#utility.yul\":19607:19610   */\n      dup3\n        /* \"#utility.yul\":19600:19610   */\n      swap6\n      pop\n        /* \"#utility.yul\":18948:19616   */\n      pop\n      pop\n      pop\n      pop\n      pop\n        /* \"#utility.yul\":18905:19616   */\n    tag_442:\n      swap1\n      jump\t// out\n        /* \"#utility.yul\":19622:19744   */\n    tag_224:\n        /* \"#utility.yul\":19695:19719   */\n      tag_450\n        /* \"#utility.yul\":19713:19718   */\n      dup2\n        /* \"#utility.yul\":19695:19719   */\n      tag_245\n      jump\t// in\n    tag_450:\n        /* \"#utility.yul\":19688:19693   */\n      dup2\n        /* \"#utility.yul\":19685:19720   */\n      eq\n        /* \"#utility.yul\":19675:19738   */\n      tag_451\n      jumpi\n        /* \"#utility.yul\":19734:19735   */\n      0x00\n        /* \"#utility.yul\":19731:19732   */\n      dup1\n        /* \"#utility.yul\":19724:19736   */\n      revert\n        /* \"#utility.yul\":19675:19738   */\n    tag_451:\n        /* \"#utility.yul\":19622:19744   */\n      pop\n      jump\t// out\n        /* \"#utility.yul\":19750:19870   */\n    tag_228:\n        /* \"#utility.yul\":19822:19845   */\n      tag_453\n        /* \"#utility.yul\":19839:19844   */\n      dup2\n        /* \"#utility.yul\":19822:19845   */\n      tag_383\n      jump\t// in\n    tag_453:\n        /* \"#utility.yul\":19815:19820   */\n      dup2\n        /* \"#utility.yul\":19812:19846   */\n      eq\n        /* \"#utility.yul\":19802:19864   */\n      tag_454\n      jumpi\n        /* \"#utility.yul\":19860:19861   */\n      0x00\n        /* \"#utility.yul\":19857:19858   */\n      dup1\n        /* \"#utility.yul\":19850:19862   */\n      revert\n        /* \"#utility.yul\":19802:19864   */\n    tag_454:\n        /* \"#utility.yul\":19750:19870   */\n      pop\n      jump\t// out\n\n    auxdata: 0xa26469706673582212202836887d37922cd06d66a5cbcee4aed2a6d17cc06a97377b838fcba42fca243b64736f6c63430008070033\n}\n",
				"bytecode": {
					"linkReferences": {},
					"object": "608060405260405180602001604052806000815250600290805190602001906200002b92919062000103565b506001600a60006101000a81548160ff0219169083151502179055503480156200005457600080fd5b50604051620022b1380380620022b183398181016040528101906200007a9190620002c2565b80600b90805190602001906200009292919062000194565b5033600a60016101000a81548173ffffffffffffffffffffffffffffffffffffffff021916908373ffffffffffffffffffffffffffffffffffffffff160217905550600060038190555060016004819055506000600581905550600060068190555060006007819055505062000497565b8280546200011190620003a8565b90600052602060002090601f01602090048101928262000135576000855562000181565b82601f106200015057805160ff191683800117855562000181565b8280016001018555821562000181579182015b828111156200018057825182559160200191906001019062000163565b5b50905062000190919062000225565b5090565b828054620001a290620003a8565b90600052602060002090601f016020900481019282620001c6576000855562000212565b82601f10620001e157805160ff191683800117855562000212565b8280016001018555821562000212579182015b8281111562000211578251825591602001919060010190620001f4565b5b50905062000221919062000225565b5090565b5b808211156200024057600081600090555060010162000226565b5090565b60006200025b62000255846200033c565b62000313565b9050828152602081018484840111156200027a576200027962000477565b5b6200028784828562000372565b509392505050565b600082601f830112620002a757620002a662000472565b5b8151620002b984826020860162000244565b91505092915050565b600060208284031215620002db57620002da62000481565b5b600082015167ffffffffffffffff811115620002fc57620002fb6200047c565b5b6200030a848285016200028f565b91505092915050565b60006200031f62000332565b90506200032d8282620003de565b919050565b6000604051905090565b600067ffffffffffffffff8211156200035a576200035962000443565b5b620003658262000486565b9050602081019050919050565b60005b838110156200039257808201518184015260208101905062000375565b83811115620003a2576000848401525b50505050565b60006002820490506001821680620003c157607f821691505b60208210811415620003d857620003d762000414565b5b50919050565b620003e98262000486565b810181811067ffffffffffffffff821117156200040b576200040a62000443565b5b80604052505050565b7f4e487b7100000000000000000000000000000000000000000000000000000000600052602260045260246000fd5b7f4e487b7100000000000000000000000000000000000000000000000000000000600052604160045260246000fd5b600080fd5b600080fd5b600080fd5b600080fd5b6000601f19601f8301169050919050565b611e0a80620004a76000396000f3fe608060405234801561001057600080fd5b50600436106100885760003560e01c806360daa8511161005b57806360daa85114610104578063aa90c72614610124578063b4a99a4e1461012e578063fd93d41c1461014c57610088565b80630390c11c1461008d5780631309a563146100ab57806315460259146100c9578063410f4495146100d3575b600080fd5b61009561017d565b6040516100a29190611712565b60405180910390f35b6100b361021e565b6040516100c091906115d5565b60405180910390f35b6100d1610231565b005b6100ed60048036038101906100e891906112e6565b61033b565b6040516100fb92919061172d565b60405180910390f35b61010c61078b565b60405161011b93929190611786565b60405180910390f35b61012c61083b565b005b610136610945565b6040516101439190611560565b60405180910390f35b610166600480360381019061016191906112e6565b61096b565b60405161017492919061172d565b60405180910390f35b6000600a60019054906101000a900473ffffffffffffffffffffffffffffffffffffffff1673ffffffffffffffffffffffffffffffffffffffff166101c0610dbb565b73ffffffffffffffffffffffffffffffffffffffff1614610216576040517f08c379a000000000000000000000000000000000000000000000000000000000815260040161020d90611692565b60405180910390fd5b600354905090565b600a60009054906101000a900460ff1681565b600a60019054906101000a900473ffffffffffffffffffffffffffffffffffffffff1673ffffffffffffffffffffffffffffffffffffffff16610272610dbb565b73ffffffffffffffffffffffffffffffffffffffff16146102c8576040517f08c379a00000000000000000000000000000000000000000000000000000000081526004016102bf90611692565b60405180910390fd5b60011515600a60009054906101000a900460ff1615151461031e576040517f08c379a000000000000000000000000000000000000000000000000000000000815260040161031590611652565b60405180910390fd5b6000600a60006101000a81548160ff021916908315150217905550565b60006060600a60019054906101000a900473ffffffffffffffffffffffffffffffffffffffff1673ffffffffffffffffffffffffffffffffffffffff16610380610dbb565b73ffffffffffffffffffffffffffffffffffffffff16146103d6576040517f08c379a00000000000000000000000000000000000000000000000000000000081526004016103cd90611692565b60405180910390fd5b60001515600a60009054906101000a900460ff1615151461042c576040517f08c379a0000000000000000000000000000000000000000000000000000000008152600401610423906116b2565b60405180910390fd5b606460035410610471576040517f08c379a0000000000000000000000000000000000000000000000000000000008152600401610468906116d2565b60405180910390fd5b600061047b610dc3565b905060008114801561048f5750600f600554105b156104fd576040518060400160405280600881526020017f506c6174696e756d000000000000000000000000000000000000000000000000815250600290805190602001906104df929190611219565b50600560008154809291906104f390611971565b91905055506105fe565b6001811115801561051057506023600654105b1561057e576040518060400160405280600481526020017f476f6c640000000000000000000000000000000000000000000000000000000081525060029080519060200190610560929190611219565b506006600081548092919061057490611971565b91905055506105fd565b600281111580156105925750603260075411155b156105fc576040518060400160405280600681526020017f53696c7665720000000000000000000000000000000000000000000000000000815250600290805190602001906105e2929190611219565b50600760008154809291906105f690611971565b91905055505b5b5b6106968482600454600280546106139061190e565b80601f016020809104026020016040519081016040528092919081815260200182805461063f9061190e565b801561068c5780601f106106615761010080835404028352916020019161068c565b820191906000526020600020905b81548152906001019060200180831161066f57829003601f168201915b5050505050610e07565b600360008154809291906106a990611971565b919050555080600860008673ffffffffffffffffffffffffffffffffffffffff1673ffffffffffffffffffffffffffffffffffffffff168152602001908152602001600020819055508060028080546107019061190e565b80601f016020809104026020016040519081016040528092919081815260200182805461072d9061190e565b801561077a5780601f1061074f5761010080835404028352916020019161077a565b820191906000526020600020905b81548152906001019060200180831161075d57829003601f168201915b505050505090509250925050915091565b6000806000600a60019054906101000a900473ffffffffffffffffffffffffffffffffffffffff1673ffffffffffffffffffffffffffffffffffffffff166107d1610dbb565b73ffffffffffffffffffffffffffffffffffffffff1614610827576040517f08c379a000000000000000000000000000000000000000000000000000000000815260040161081e90611692565b60405180910390fd5b600554600654600754925092509250909192565b600a60019054906101000a900473ffffffffffffffffffffffffffffffffffffffff1673ffffffffffffffffffffffffffffffffffffffff1661087c610dbb565b73ffffffffffffffffffffffffffffffffffffffff16146108d2576040517f08c379a00000000000000000000000000000000000000000000000000000000081526004016108c990611692565b60405180910390fd5b60001515600a60009054906101000a900460ff16151514610928576040517f08c379a000000000000000000000000000000000000000000000000000000000815260040161091f90611672565b60405180910390fd5b6001600a60006101000a81548160ff021916908315150217905550565b600a60019054906101000a900473ffffffffffffffffffffffffffffffffffffffff1681565b60006060600a60019054906101000a900473ffffffffffffffffffffffffffffffffffffffff1673ffffffffffffffffffffffffffffffffffffffff166109b0610dbb565b73ffffffffffffffffffffffffffffffffffffffff1614610a06576040517f08c379a00000000000000000000000000000000000000000000000000000000081526004016109fd90611692565b60405180910390fd5b60001515600a60009054906101000a900460ff16151514610a5c576040517f08c379a0000000000000000000000000000000000000000000000000000000008152600401610a53906116b2565b60405180910390fd5b606460035410610aa1576040517f08c379a0000000000000000000000000000000000000000000000000000000008152600401610a98906116d2565b60405180910390fd5b6000610aab610dc3565b9050600081148015610abf5750600f600554105b15610b2d576040518060400160405280600881526020017f506c6174696e756d00000000000000000000000000000000000000000000000081525060029080519060200190610b0f929190611219565b5060056000815480929190610b2390611971565b9190505550610c2e565b60018111158015610b4057506023600654105b15610bae576040518060400160405280600481526020017f476f6c640000000000000000000000000000000000000000000000000000000081525060029080519060200190610b90929190611219565b5060066000815480929190610ba490611971565b9190505550610c2d565b60028111158015610bc25750603260075411155b15610c2c576040518060400160405280600681526020017f53696c766572000000000000000000000000000000000000000000000000000081525060029080519060200190610c12929190611219565b5060076000815480929190610c2690611971565b91905055505b5b5b610cc6848260045460028054610c439061190e565b80601f0160208091040260200160405190810160405280929190818152602001828054610c6f9061190e565b8015610cbc5780601f10610c9157610100808354040283529160200191610cbc565b820191906000526020600020905b815481529060010190602001808311610c9f57829003601f168201915b5050505050610e07565b60036000815480929190610cd990611971565b919050555080600860008673ffffffffffffffffffffffffffffffffffffffff1673ffffffffffffffffffffffffffffffffffffffff16815260200190815260200160002081905550806002808054610d319061190e565b80601f0160208091040260200160405190810160405280929190818152602001828054610d5d9061190e565b8015610daa5780601f10610d7f57610100808354040283529160200191610daa565b820191906000526020600020905b815481529060010190602001808311610d8d57829003601f168201915b505050505090509250925050915091565b600033905090565b60008060034233604051602001610ddb929190611534565b6040516020818303038152906040528051906020012060001c610dfe91906119e8565b90508091505090565b600073ffffffffffffffffffffffffffffffffffffffff168473ffffffffffffffffffffffffffffffffffffffff161415610e77576040517f08c379a0000000000000000000000000000000000000000000000000000000008152600401610e6e906116f2565b60405180910390fd5b6000610e81610dbb565b9050610ea281600087610e9388610f9d565b610e9c88610f9d565b87611017565b8260008086815260200190815260200160002060008773ffffffffffffffffffffffffffffffffffffffff1673ffffffffffffffffffffffffffffffffffffffff1681526020019081526020016000206000828254610f0191906117ff565b925050819055508473ffffffffffffffffffffffffffffffffffffffff16600073ffffffffffffffffffffffffffffffffffffffff168273ffffffffffffffffffffffffffffffffffffffff167fc3d58168c5ae7397731d063d5bbf3d657854427343f4c083240f7aacaa2d0f628787604051610f7f92919061175d565b60405180910390a4610f968160008787878761101f565b5050505050565b60606000600167ffffffffffffffff811115610fbc57610fbb611ad5565b5b604051908082528060200260200182016040528015610fea5781602001602082028036833780820191505090505b509050828160008151811061100257611001611aa6565b5b60200260200101818152505080915050919050565b505050505050565b61103e8473ffffffffffffffffffffffffffffffffffffffff16611206565b156111fe578373ffffffffffffffffffffffffffffffffffffffff1663f23a6e6187878686866040518663ffffffff1660e01b815260040161108495949392919061157b565b602060405180830381600087803b15801561109e57600080fd5b505af19250505080156110cf57506040513d601f19601f820116820180604052508101906110cc9190611313565b60015b611175576110db611b04565b806308c379a0141561113857506110f0611d10565b806110fb575061113a565b806040517f08c379a000000000000000000000000000000000000000000000000000000000815260040161112f91906115f0565b60405180910390fd5b505b6040517f08c379a000000000000000000000000000000000000000000000000000000000815260040161116c90611612565b60405180910390fd5b63f23a6e6160e01b7bffffffffffffffffffffffffffffffffffffffffffffffffffffffff1916817bffffffffffffffffffffffffffffffffffffffffffffffffffffffff1916146111fc576040517f08c379a00000000000000000000000000000000000000000000000000000000081526004016111f390611632565b60405180910390fd5b505b505050505050565b600080823b905060008111915050919050565b8280546112259061190e565b90600052602060002090601f016020900481019282611247576000855561128e565b82601f1061126057805160ff191683800117855561128e565b8280016001018555821561128e579182015b8281111561128d578251825591602001919060010190611272565b5b50905061129b919061129f565b5090565b5b808211156112b85760008160009055506001016112a0565b5090565b6000813590506112cb81611da6565b92915050565b6000815190506112e081611dbd565b92915050565b6000602082840312156112fc576112fb611b26565b5b600061130a848285016112bc565b91505092915050565b60006020828403121561132957611328611b26565b5b6000611337848285016112d1565b91505092915050565b61134981611867565b82525050565b61135881611855565b82525050565b61136f61136a82611855565b6119ba565b82525050565b61137e81611879565b82525050565b600061138f826117c7565b61139981856117dd565b93506113a98185602086016118db565b6113b281611b2b565b840191505092915050565b60006113c8826117d2565b6113d281856117ee565b93506113e28185602086016118db565b6113eb81611b2b565b840191505092915050565b60006114036034836117ee565b915061140e82611b56565b604082019050919050565b60006114266028836117ee565b915061143182611ba5565b604082019050919050565b6000611449601b836117ee565b915061145482611bf4565b602082019050919050565b600061146c601b836117ee565b915061147782611c1d565b602082019050919050565b600061148f601c836117ee565b915061149a82611c46565b602082019050919050565b60006114b2601b836117ee565b91506114bd82611c6f565b602082019050919050565b60006114d56019836117ee565b91506114e082611c98565b602082019050919050565b60006114f86021836117ee565b915061150382611cc1565b604082019050919050565b611517816118d1565b82525050565b61152e611529826118d1565b6119de565b82525050565b6000611540828561151d565b602082019150611550828461135e565b6014820191508190509392505050565b60006020820190506115756000830184611340565b92915050565b600060a082019050611590600083018861134f565b61159d602083018761134f565b6115aa604083018661150e565b6115b7606083018561150e565b81810360808301526115c98184611384565b90509695505050505050565b60006020820190506115ea6000830184611375565b92915050565b6000602082019050818103600083015261160a81846113bd565b905092915050565b6000602082019050818103600083015261162b816113f6565b9050919050565b6000602082019050818103600083015261164b81611419565b9050919050565b6000602082019050818103600083015261166b8161143c565b9050919050565b6000602082019050818103600083015261168b8161145f565b9050919050565b600060208201905081810360008301526116ab81611482565b9050919050565b600060208201905081810360008301526116cb816114a5565b9050919050565b600060208201905081810360008301526116eb816114c8565b9050919050565b6000602082019050818103600083015261170b816114eb565b9050919050565b6000602082019050611727600083018461150e565b92915050565b6000604082019050611742600083018561150e565b818103602083015261175481846113bd565b90509392505050565b6000604082019050611772600083018561150e565b61177f602083018461150e565b9392505050565b600060608201905061179b600083018661150e565b6117a8602083018561150e565b6117b5604083018461150e565b949350505050565b6000604051905090565b600081519050919050565b600081519050919050565b600082825260208201905092915050565b600082825260208201905092915050565b600061180a826118d1565b9150611815836118d1565b9250827fffffffffffffffffffffffffffffffffffffffffffffffffffffffffffffffff0382111561184a57611849611a19565b5b828201905092915050565b6000611860826118b1565b9050919050565b6000611872826118b1565b9050919050565b60008115159050919050565b60007fffffffff0000000000000000000000000000000000000000000000000000000082169050919050565b600073ffffffffffffffffffffffffffffffffffffffff82169050919050565b6000819050919050565b60005b838110156118f95780820151818401526020810190506118de565b83811115611908576000848401525b50505050565b6000600282049050600182168061192657607f821691505b6020821081141561193a57611939611a77565b5b50919050565b61194982611b2b565b810181811067ffffffffffffffff8211171561196857611967611ad5565b5b80604052505050565b600061197c826118d1565b91507fffffffffffffffffffffffffffffffffffffffffffffffffffffffffffffffff8214156119af576119ae611a19565b5b600182019050919050565b60006119c5826119cc565b9050919050565b60006119d782611b3c565b9050919050565b6000819050919050565b60006119f3826118d1565b91506119fe836118d1565b925082611a0e57611a0d611a48565b5b828206905092915050565b7f4e487b7100000000000000000000000000000000000000000000000000000000600052601160045260246000fd5b7f4e487b7100000000000000000000000000000000000000000000000000000000600052601260045260246000fd5b7f4e487b7100000000000000000000000000000000000000000000000000000000600052602260045260246000fd5b7f4e487b7100000000000000000000000000000000000000000000000000000000600052603260045260246000fd5b7f4e487b7100000000000000000000000000000000000000000000000000000000600052604160045260246000fd5b600060033d1115611b235760046000803e611b20600051611b49565b90505b90565b600080fd5b6000601f19601f8301169050919050565b60008160601b9050919050565b60008160e01c9050919050565b7f455243313135353a207472616e7366657220746f206e6f6e204552433131353560008201527f526563656976657220696d706c656d656e746572000000000000000000000000602082015250565b7f455243313135353a204552433131353552656365697665722072656a6563746560008201527f6420746f6b656e73000000000000000000000000000000000000000000000000602082015250565b7f44726f707369746520697320616c72656164792052756e6e696e670000000000600082015250565b7f44726f707369746520697320616c72656164792053746f707065640000000000600082015250565b7f4f6e6c79204e46542d4553204f776e65722063616e2041636365737300000000600082015250565b7f44726f7073697465206973206e6f74204f70656e6564205965742e0000000000600082015250565b7f4d6178204d696e74696e67204c696d6974207265616368656400000000000000600082015250565b7f455243313135353a206d696e7420746f20746865207a65726f2061646472657360008201527f7300000000000000000000000000000000000000000000000000000000000000602082015250565b600060443d1015611d2057611da3565b611d286117bd565b60043d036004823e80513d602482011167ffffffffffffffff82111715611d50575050611da3565b808201805167ffffffffffffffff811115611d6e5750505050611da3565b80602083010160043d038501811115611d8b575050505050611da3565b611d9a82602001850186611940565b82955050505050505b90565b611daf81611855565b8114611dba57600080fd5b50565b611dc681611885565b8114611dd157600080fd5b5056fea26469706673582212202836887d37922cd06d66a5cbcee4aed2a6d17cc06a97377b838fcba42fca243b64736f6c63430008070033",
					"opcodes": "PUSH1 0x80 PUSH1 0x40 MSTORE PUSH1 0x40 MLOAD DUP1 PUSH1 0x20 ADD PUSH1 0x40 MSTORE DUP1 PUSH1 0x0 DUP2 MSTORE POP PUSH1 0x2 SWAP1 DUP1 MLOAD SWAP1 PUSH1 0x20 ADD SWAP1 PUSH3 0x2B SWAP3 SWAP2 SWAP1 PUSH3 0x103 JUMP JUMPDEST POP PUSH1 0x1 PUSH1 0xA PUSH1 0x0 PUSH2 0x100 EXP DUP2 SLOAD DUP2 PUSH1 0xFF MUL NOT AND SWAP1 DUP4 ISZERO ISZERO MUL OR SWAP1 SSTORE POP CALLVALUE DUP1 ISZERO PUSH3 0x54 JUMPI PUSH1 0x0 DUP1 REVERT JUMPDEST POP PUSH1 0x40 MLOAD PUSH3 0x22B1 CODESIZE SUB DUP1 PUSH3 0x22B1 DUP4 CODECOPY DUP2 DUP2 ADD PUSH1 0x40 MSTORE DUP2 ADD SWAP1 PUSH3 0x7A SWAP2 SWAP1 PUSH3 0x2C2 JUMP JUMPDEST DUP1 PUSH1 0xB SWAP1 DUP1 MLOAD SWAP1 PUSH1 0x20 ADD SWAP1 PUSH3 0x92 SWAP3 SWAP2 SWAP1 PUSH3 0x194 JUMP JUMPDEST POP CALLER PUSH1 0xA PUSH1 0x1 PUSH2 0x100 EXP DUP2 SLOAD DUP2 PUSH20 0xFFFFFFFFFFFFFFFFFFFFFFFFFFFFFFFFFFFFFFFF MUL NOT AND SWAP1 DUP4 PUSH20 0xFFFFFFFFFFFFFFFFFFFFFFFFFFFFFFFFFFFFFFFF AND MUL OR SWAP1 SSTORE POP PUSH1 0x0 PUSH1 0x3 DUP2 SWAP1 SSTORE POP PUSH1 0x1 PUSH1 0x4 DUP2 SWAP1 SSTORE POP PUSH1 0x0 PUSH1 0x5 DUP2 SWAP1 SSTORE POP PUSH1 0x0 PUSH1 0x6 DUP2 SWAP1 SSTORE POP PUSH1 0x0 PUSH1 0x7 DUP2 SWAP1 SSTORE POP POP PUSH3 0x497 JUMP JUMPDEST DUP3 DUP1 SLOAD PUSH3 0x111 SWAP1 PUSH3 0x3A8 JUMP JUMPDEST SWAP1 PUSH1 0x0 MSTORE PUSH1 0x20 PUSH1 0x0 KECCAK256 SWAP1 PUSH1 0x1F ADD PUSH1 0x20 SWAP1 DIV DUP2 ADD SWAP3 DUP3 PUSH3 0x135 JUMPI PUSH1 0x0 DUP6 SSTORE PUSH3 0x181 JUMP JUMPDEST DUP3 PUSH1 0x1F LT PUSH3 0x150 JUMPI DUP1 MLOAD PUSH1 0xFF NOT AND DUP4 DUP1 ADD OR DUP6 SSTORE PUSH3 0x181 JUMP JUMPDEST DUP3 DUP1 ADD PUSH1 0x1 ADD DUP6 SSTORE DUP3 ISZERO PUSH3 0x181 JUMPI SWAP2 DUP3 ADD JUMPDEST DUP3 DUP2 GT ISZERO PUSH3 0x180 JUMPI DUP3 MLOAD DUP3 SSTORE SWAP2 PUSH1 0x20 ADD SWAP2 SWAP1 PUSH1 0x1 ADD SWAP1 PUSH3 0x163 JUMP JUMPDEST JUMPDEST POP SWAP1 POP PUSH3 0x190 SWAP2 SWAP1 PUSH3 0x225 JUMP JUMPDEST POP SWAP1 JUMP JUMPDEST DUP3 DUP1 SLOAD PUSH3 0x1A2 SWAP1 PUSH3 0x3A8 JUMP JUMPDEST SWAP1 PUSH1 0x0 MSTORE PUSH1 0x20 PUSH1 0x0 KECCAK256 SWAP1 PUSH1 0x1F ADD PUSH1 0x20 SWAP1 DIV DUP2 ADD SWAP3 DUP3 PUSH3 0x1C6 JUMPI PUSH1 0x0 DUP6 SSTORE PUSH3 0x212 JUMP JUMPDEST DUP3 PUSH1 0x1F LT PUSH3 0x1E1 JUMPI DUP1 MLOAD PUSH1 0xFF NOT AND DUP4 DUP1 ADD OR DUP6 SSTORE PUSH3 0x212 JUMP JUMPDEST DUP3 DUP1 ADD PUSH1 0x1 ADD DUP6 SSTORE DUP3 ISZERO PUSH3 0x212 JUMPI SWAP2 DUP3 ADD JUMPDEST DUP3 DUP2 GT ISZERO PUSH3 0x211 JUMPI DUP3 MLOAD DUP3 SSTORE SWAP2 PUSH1 0x20 ADD SWAP2 SWAP1 PUSH1 0x1 ADD SWAP1 PUSH3 0x1F4 JUMP JUMPDEST JUMPDEST POP SWAP1 POP PUSH3 0x221 SWAP2 SWAP1 PUSH3 0x225 JUMP JUMPDEST POP SWAP1 JUMP JUMPDEST JUMPDEST DUP1 DUP3 GT ISZERO PUSH3 0x240 JUMPI PUSH1 0x0 DUP2 PUSH1 0x0 SWAP1 SSTORE POP PUSH1 0x1 ADD PUSH3 0x226 JUMP JUMPDEST POP SWAP1 JUMP JUMPDEST PUSH1 0x0 PUSH3 0x25B PUSH3 0x255 DUP5 PUSH3 0x33C JUMP JUMPDEST PUSH3 0x313 JUMP JUMPDEST SWAP1 POP DUP3 DUP2 MSTORE PUSH1 0x20 DUP2 ADD DUP5 DUP5 DUP5 ADD GT ISZERO PUSH3 0x27A JUMPI PUSH3 0x279 PUSH3 0x477 JUMP JUMPDEST JUMPDEST PUSH3 0x287 DUP5 DUP3 DUP6 PUSH3 0x372 JUMP JUMPDEST POP SWAP4 SWAP3 POP POP POP JUMP JUMPDEST PUSH1 0x0 DUP3 PUSH1 0x1F DUP4 ADD SLT PUSH3 0x2A7 JUMPI PUSH3 0x2A6 PUSH3 0x472 JUMP JUMPDEST JUMPDEST DUP2 MLOAD PUSH3 0x2B9 DUP5 DUP3 PUSH1 0x20 DUP7 ADD PUSH3 0x244 JUMP JUMPDEST SWAP2 POP POP SWAP3 SWAP2 POP POP JUMP JUMPDEST PUSH1 0x0 PUSH1 0x20 DUP3 DUP5 SUB SLT ISZERO PUSH3 0x2DB JUMPI PUSH3 0x2DA PUSH3 0x481 JUMP JUMPDEST JUMPDEST PUSH1 0x0 DUP3 ADD MLOAD PUSH8 0xFFFFFFFFFFFFFFFF DUP2 GT ISZERO PUSH3 0x2FC JUMPI PUSH3 0x2FB PUSH3 0x47C JUMP JUMPDEST JUMPDEST PUSH3 0x30A DUP5 DUP3 DUP6 ADD PUSH3 0x28F JUMP JUMPDEST SWAP2 POP POP SWAP3 SWAP2 POP POP JUMP JUMPDEST PUSH1 0x0 PUSH3 0x31F PUSH3 0x332 JUMP JUMPDEST SWAP1 POP PUSH3 0x32D DUP3 DUP3 PUSH3 0x3DE JUMP JUMPDEST SWAP2 SWAP1 POP JUMP JUMPDEST PUSH1 0x0 PUSH1 0x40 MLOAD SWAP1 POP SWAP1 JUMP JUMPDEST PUSH1 0x0 PUSH8 0xFFFFFFFFFFFFFFFF DUP3 GT ISZERO PUSH3 0x35A JUMPI PUSH3 0x359 PUSH3 0x443 JUMP JUMPDEST JUMPDEST PUSH3 0x365 DUP3 PUSH3 0x486 JUMP JUMPDEST SWAP1 POP PUSH1 0x20 DUP2 ADD SWAP1 POP SWAP2 SWAP1 POP JUMP JUMPDEST PUSH1 0x0 JUMPDEST DUP4 DUP2 LT ISZERO PUSH3 0x392 JUMPI DUP1 DUP3 ADD MLOAD DUP2 DUP5 ADD MSTORE PUSH1 0x20 DUP2 ADD SWAP1 POP PUSH3 0x375 JUMP JUMPDEST DUP4 DUP2 GT ISZERO PUSH3 0x3A2 JUMPI PUSH1 0x0 DUP5 DUP5 ADD MSTORE JUMPDEST POP POP POP POP JUMP JUMPDEST PUSH1 0x0 PUSH1 0x2 DUP3 DIV SWAP1 POP PUSH1 0x1 DUP3 AND DUP1 PUSH3 0x3C1 JUMPI PUSH1 0x7F DUP3 AND SWAP2 POP JUMPDEST PUSH1 0x20 DUP3 LT DUP2 EQ ISZERO PUSH3 0x3D8 JUMPI PUSH3 0x3D7 PUSH3 0x414 JUMP JUMPDEST JUMPDEST POP SWAP2 SWAP1 POP JUMP JUMPDEST PUSH3 0x3E9 DUP3 PUSH3 0x486 JUMP JUMPDEST DUP2 ADD DUP2 DUP2 LT PUSH8 0xFFFFFFFFFFFFFFFF DUP3 GT OR ISZERO PUSH3 0x40B JUMPI PUSH3 0x40A PUSH3 0x443 JUMP JUMPDEST JUMPDEST DUP1 PUSH1 0x40 MSTORE POP POP POP JUMP JUMPDEST PUSH32 0x4E487B7100000000000000000000000000000000000000000000000000000000 PUSH1 0x0 MSTORE PUSH1 0x22 PUSH1 0x4 MSTORE PUSH1 0x24 PUSH1 0x0 REVERT JUMPDEST PUSH32 0x4E487B7100000000000000000000000000000000000000000000000000000000 PUSH1 0x0 MSTORE PUSH1 0x41 PUSH1 0x4 MSTORE PUSH1 0x24 PUSH1 0x0 REVERT JUMPDEST PUSH1 0x0 DUP1 REVERT JUMPDEST PUSH1 0x0 DUP1 REVERT JUMPDEST PUSH1 0x0 DUP1 REVERT JUMPDEST PUSH1 0x0 DUP1 REVERT JUMPDEST PUSH1 0x0 PUSH1 0x1F NOT PUSH1 0x1F DUP4 ADD AND SWAP1 POP SWAP2 SWAP1 POP JUMP JUMPDEST PUSH2 0x1E0A DUP1 PUSH3 0x4A7 PUSH1 0x0 CODECOPY PUSH1 0x0 RETURN INVALID PUSH1 0x80 PUSH1 0x40 MSTORE CALLVALUE DUP1 ISZERO PUSH2 0x10 JUMPI PUSH1 0x0 DUP1 REVERT JUMPDEST POP PUSH1 0x4 CALLDATASIZE LT PUSH2 0x88 JUMPI PUSH1 0x0 CALLDATALOAD PUSH1 0xE0 SHR DUP1 PUSH4 0x60DAA851 GT PUSH2 0x5B JUMPI DUP1 PUSH4 0x60DAA851 EQ PUSH2 0x104 JUMPI DUP1 PUSH4 0xAA90C726 EQ PUSH2 0x124 JUMPI DUP1 PUSH4 0xB4A99A4E EQ PUSH2 0x12E JUMPI DUP1 PUSH4 0xFD93D41C EQ PUSH2 0x14C JUMPI PUSH2 0x88 JUMP JUMPDEST DUP1 PUSH4 0x390C11C EQ PUSH2 0x8D JUMPI DUP1 PUSH4 0x1309A563 EQ PUSH2 0xAB JUMPI DUP1 PUSH4 0x15460259 EQ PUSH2 0xC9 JUMPI DUP1 PUSH4 0x410F4495 EQ PUSH2 0xD3 JUMPI JUMPDEST PUSH1 0x0 DUP1 REVERT JUMPDEST PUSH2 0x95 PUSH2 0x17D JUMP JUMPDEST PUSH1 0x40 MLOAD PUSH2 0xA2 SWAP2 SWAP1 PUSH2 0x1712 JUMP JUMPDEST PUSH1 0x40 MLOAD DUP1 SWAP2 SUB SWAP1 RETURN JUMPDEST PUSH2 0xB3 PUSH2 0x21E JUMP JUMPDEST PUSH1 0x40 MLOAD PUSH2 0xC0 SWAP2 SWAP1 PUSH2 0x15D5 JUMP JUMPDEST PUSH1 0x40 MLOAD DUP1 SWAP2 SUB SWAP1 RETURN JUMPDEST PUSH2 0xD1 PUSH2 0x231 JUMP JUMPDEST STOP JUMPDEST PUSH2 0xED PUSH1 0x4 DUP1 CALLDATASIZE SUB DUP2 ADD SWAP1 PUSH2 0xE8 SWAP2 SWAP1 PUSH2 0x12E6 JUMP JUMPDEST PUSH2 0x33B JUMP JUMPDEST PUSH1 0x40 MLOAD PUSH2 0xFB SWAP3 SWAP2 SWAP1 PUSH2 0x172D JUMP JUMPDEST PUSH1 0x40 MLOAD DUP1 SWAP2 SUB SWAP1 RETURN JUMPDEST PUSH2 0x10C PUSH2 0x78B JUMP JUMPDEST PUSH1 0x40 MLOAD PUSH2 0x11B SWAP4 SWAP3 SWAP2 SWAP1 PUSH2 0x1786 JUMP JUMPDEST PUSH1 0x40 MLOAD DUP1 SWAP2 SUB SWAP1 RETURN JUMPDEST PUSH2 0x12C PUSH2 0x83B JUMP JUMPDEST STOP JUMPDEST PUSH2 0x136 PUSH2 0x945 JUMP JUMPDEST PUSH1 0x40 MLOAD PUSH2 0x143 SWAP2 SWAP1 PUSH2 0x1560 JUMP JUMPDEST PUSH1 0x40 MLOAD DUP1 SWAP2 SUB SWAP1 RETURN JUMPDEST PUSH2 0x166 PUSH1 0x4 DUP1 CALLDATASIZE SUB DUP2 ADD SWAP1 PUSH2 0x161 SWAP2 SWAP1 PUSH2 0x12E6 JUMP JUMPDEST PUSH2 0x96B JUMP JUMPDEST PUSH1 0x40 MLOAD PUSH2 0x174 SWAP3 SWAP2 SWAP1 PUSH2 0x172D JUMP JUMPDEST PUSH1 0x40 MLOAD DUP1 SWAP2 SUB SWAP1 RETURN JUMPDEST PUSH1 0x0 PUSH1 0xA PUSH1 0x1 SWAP1 SLOAD SWAP1 PUSH2 0x100 EXP SWAP1 DIV PUSH20 0xFFFFFFFFFFFFFFFFFFFFFFFFFFFFFFFFFFFFFFFF AND PUSH20 0xFFFFFFFFFFFFFFFFFFFFFFFFFFFFFFFFFFFFFFFF AND PUSH2 0x1C0 PUSH2 0xDBB JUMP JUMPDEST PUSH20 0xFFFFFFFFFFFFFFFFFFFFFFFFFFFFFFFFFFFFFFFF AND EQ PUSH2 0x216 JUMPI PUSH1 0x40 MLOAD PUSH32 0x8C379A000000000000000000000000000000000000000000000000000000000 DUP2 MSTORE PUSH1 0x4 ADD PUSH2 0x20D SWAP1 PUSH2 0x1692 JUMP JUMPDEST PUSH1 0x40 MLOAD DUP1 SWAP2 SUB SWAP1 REVERT JUMPDEST PUSH1 0x3 SLOAD SWAP1 POP SWAP1 JUMP JUMPDEST PUSH1 0xA PUSH1 0x0 SWAP1 SLOAD SWAP1 PUSH2 0x100 EXP SWAP1 DIV PUSH1 0xFF AND DUP2 JUMP JUMPDEST PUSH1 0xA PUSH1 0x1 SWAP1 SLOAD SWAP1 PUSH2 0x100 EXP SWAP1 DIV PUSH20 0xFFFFFFFFFFFFFFFFFFFFFFFFFFFFFFFFFFFFFFFF AND PUSH20 0xFFFFFFFFFFFFFFFFFFFFFFFFFFFFFFFFFFFFFFFF AND PUSH2 0x272 PUSH2 0xDBB JUMP JUMPDEST PUSH20 0xFFFFFFFFFFFFFFFFFFFFFFFFFFFFFFFFFFFFFFFF AND EQ PUSH2 0x2C8 JUMPI PUSH1 0x40 MLOAD PUSH32 0x8C379A000000000000000000000000000000000000000000000000000000000 DUP2 MSTORE PUSH1 0x4 ADD PUSH2 0x2BF SWAP1 PUSH2 0x1692 JUMP JUMPDEST PUSH1 0x40 MLOAD DUP1 SWAP2 SUB SWAP1 REVERT JUMPDEST PUSH1 0x1 ISZERO ISZERO PUSH1 0xA PUSH1 0x0 SWAP1 SLOAD SWAP1 PUSH2 0x100 EXP SWAP1 DIV PUSH1 0xFF AND ISZERO ISZERO EQ PUSH2 0x31E JUMPI PUSH1 0x40 MLOAD PUSH32 0x8C379A000000000000000000000000000000000000000000000000000000000 DUP2 MSTORE PUSH1 0x4 ADD PUSH2 0x315 SWAP1 PUSH2 0x1652 JUMP JUMPDEST PUSH1 0x40 MLOAD DUP1 SWAP2 SUB SWAP1 REVERT JUMPDEST PUSH1 0x0 PUSH1 0xA PUSH1 0x0 PUSH2 0x100 EXP DUP2 SLOAD DUP2 PUSH1 0xFF MUL NOT AND SWAP1 DUP4 ISZERO ISZERO MUL OR SWAP1 SSTORE POP JUMP JUMPDEST PUSH1 0x0 PUSH1 0x60 PUSH1 0xA PUSH1 0x1 SWAP1 SLOAD SWAP1 PUSH2 0x100 EXP SWAP1 DIV PUSH20 0xFFFFFFFFFFFFFFFFFFFFFFFFFFFFFFFFFFFFFFFF AND PUSH20 0xFFFFFFFFFFFFFFFFFFFFFFFFFFFFFFFFFFFFFFFF AND PUSH2 0x380 PUSH2 0xDBB JUMP JUMPDEST PUSH20 0xFFFFFFFFFFFFFFFFFFFFFFFFFFFFFFFFFFFFFFFF AND EQ PUSH2 0x3D6 JUMPI PUSH1 0x40 MLOAD PUSH32 0x8C379A000000000000000000000000000000000000000000000000000000000 DUP2 MSTORE PUSH1 0x4 ADD PUSH2 0x3CD SWAP1 PUSH2 0x1692 JUMP JUMPDEST PUSH1 0x40 MLOAD DUP1 SWAP2 SUB SWAP1 REVERT JUMPDEST PUSH1 0x0 ISZERO ISZERO PUSH1 0xA PUSH1 0x0 SWAP1 SLOAD SWAP1 PUSH2 0x100 EXP SWAP1 DIV PUSH1 0xFF AND ISZERO ISZERO EQ PUSH2 0x42C JUMPI PUSH1 0x40 MLOAD PUSH32 0x8C379A000000000000000000000000000000000000000000000000000000000 DUP2 MSTORE PUSH1 0x4 ADD PUSH2 0x423 SWAP1 PUSH2 0x16B2 JUMP JUMPDEST PUSH1 0x40 MLOAD DUP1 SWAP2 SUB SWAP1 REVERT JUMPDEST PUSH1 0x64 PUSH1 0x3 SLOAD LT PUSH2 0x471 JUMPI PUSH1 0x40 MLOAD PUSH32 0x8C379A000000000000000000000000000000000000000000000000000000000 DUP2 MSTORE PUSH1 0x4 ADD PUSH2 0x468 SWAP1 PUSH2 0x16D2 JUMP JUMPDEST PUSH1 0x40 MLOAD DUP1 SWAP2 SUB SWAP1 REVERT JUMPDEST PUSH1 0x0 PUSH2 0x47B PUSH2 0xDC3 JUMP JUMPDEST SWAP1 POP PUSH1 0x0 DUP2 EQ DUP1 ISZERO PUSH2 0x48F JUMPI POP PUSH1 0xF PUSH1 0x5 SLOAD LT JUMPDEST ISZERO PUSH2 0x4FD JUMPI PUSH1 0x40 MLOAD DUP1 PUSH1 0x40 ADD PUSH1 0x40 MSTORE DUP1 PUSH1 0x8 DUP2 MSTORE PUSH1 0x20 ADD PUSH32 0x506C6174696E756D000000000000000000000000000000000000000000000000 DUP2 MSTORE POP PUSH1 0x2 SWAP1 DUP1 MLOAD SWAP1 PUSH1 0x20 ADD SWAP1 PUSH2 0x4DF SWAP3 SWAP2 SWAP1 PUSH2 0x1219 JUMP JUMPDEST POP PUSH1 0x5 PUSH1 0x0 DUP2 SLOAD DUP1 SWAP3 SWAP2 SWAP1 PUSH2 0x4F3 SWAP1 PUSH2 0x1971 JUMP JUMPDEST SWAP2 SWAP1 POP SSTORE POP PUSH2 0x5FE JUMP JUMPDEST PUSH1 0x1 DUP2 GT ISZERO DUP1 ISZERO PUSH2 0x510 JUMPI POP PUSH1 0x23 PUSH1 0x6 SLOAD LT JUMPDEST ISZERO PUSH2 0x57E JUMPI PUSH1 0x40 MLOAD DUP1 PUSH1 0x40 ADD PUSH1 0x40 MSTORE DUP1 PUSH1 0x4 DUP2 MSTORE PUSH1 0x20 ADD PUSH32 0x476F6C6400000000000000000000000000000000000000000000000000000000 DUP2 MSTORE POP PUSH1 0x2 SWAP1 DUP1 MLOAD SWAP1 PUSH1 0x20 ADD SWAP1 PUSH2 0x560 SWAP3 SWAP2 SWAP1 PUSH2 0x1219 JUMP JUMPDEST POP PUSH1 0x6 PUSH1 0x0 DUP2 SLOAD DUP1 SWAP3 SWAP2 SWAP1 PUSH2 0x574 SWAP1 PUSH2 0x1971 JUMP JUMPDEST SWAP2 SWAP1 POP SSTORE POP PUSH2 0x5FD JUMP JUMPDEST PUSH1 0x2 DUP2 GT ISZERO DUP1 ISZERO PUSH2 0x592 JUMPI POP PUSH1 0x32 PUSH1 0x7 SLOAD GT ISZERO JUMPDEST ISZERO PUSH2 0x5FC JUMPI PUSH1 0x40 MLOAD DUP1 PUSH1 0x40 ADD PUSH1 0x40 MSTORE DUP1 PUSH1 0x6 DUP2 MSTORE PUSH1 0x20 ADD PUSH32 0x53696C7665720000000000000000000000000000000000000000000000000000 DUP2 MSTORE POP PUSH1 0x2 SWAP1 DUP1 MLOAD SWAP1 PUSH1 0x20 ADD SWAP1 PUSH2 0x5E2 SWAP3 SWAP2 SWAP1 PUSH2 0x1219 JUMP JUMPDEST POP PUSH1 0x7 PUSH1 0x0 DUP2 SLOAD DUP1 SWAP3 SWAP2 SWAP1 PUSH2 0x5F6 SWAP1 PUSH2 0x1971 JUMP JUMPDEST SWAP2 SWAP1 POP SSTORE POP JUMPDEST JUMPDEST JUMPDEST PUSH2 0x696 DUP5 DUP3 PUSH1 0x4 SLOAD PUSH1 0x2 DUP1 SLOAD PUSH2 0x613 SWAP1 PUSH2 0x190E JUMP JUMPDEST DUP1 PUSH1 0x1F ADD PUSH1 0x20 DUP1 SWAP2 DIV MUL PUSH1 0x20 ADD PUSH1 0x40 MLOAD SWAP1 DUP2 ADD PUSH1 0x40 MSTORE DUP1 SWAP3 SWAP2 SWAP1 DUP2 DUP2 MSTORE PUSH1 0x20 ADD DUP3 DUP1 SLOAD PUSH2 0x63F SWAP1 PUSH2 0x190E JUMP JUMPDEST DUP1 ISZERO PUSH2 0x68C JUMPI DUP1 PUSH1 0x1F LT PUSH2 0x661 JUMPI PUSH2 0x100 DUP1 DUP4 SLOAD DIV MUL DUP4 MSTORE SWAP2 PUSH1 0x20 ADD SWAP2 PUSH2 0x68C JUMP JUMPDEST DUP3 ADD SWAP2 SWAP1 PUSH1 0x0 MSTORE PUSH1 0x20 PUSH1 0x0 KECCAK256 SWAP1 JUMPDEST DUP2 SLOAD DUP2 MSTORE SWAP1 PUSH1 0x1 ADD SWAP1 PUSH1 0x20 ADD DUP1 DUP4 GT PUSH2 0x66F JUMPI DUP3 SWAP1 SUB PUSH1 0x1F AND DUP3 ADD SWAP2 JUMPDEST POP POP POP POP POP PUSH2 0xE07 JUMP JUMPDEST PUSH1 0x3 PUSH1 0x0 DUP2 SLOAD DUP1 SWAP3 SWAP2 SWAP1 PUSH2 0x6A9 SWAP1 PUSH2 0x1971 JUMP JUMPDEST SWAP2 SWAP1 POP SSTORE POP DUP1 PUSH1 0x8 PUSH1 0x0 DUP7 PUSH20 0xFFFFFFFFFFFFFFFFFFFFFFFFFFFFFFFFFFFFFFFF AND PUSH20 0xFFFFFFFFFFFFFFFFFFFFFFFFFFFFFFFFFFFFFFFF AND DUP2 MSTORE PUSH1 0x20 ADD SWAP1 DUP2 MSTORE PUSH1 0x20 ADD PUSH1 0x0 KECCAK256 DUP2 SWAP1 SSTORE POP DUP1 PUSH1 0x2 DUP1 DUP1 SLOAD PUSH2 0x701 SWAP1 PUSH2 0x190E JUMP JUMPDEST DUP1 PUSH1 0x1F ADD PUSH1 0x20 DUP1 SWAP2 DIV MUL PUSH1 0x20 ADD PUSH1 0x40 MLOAD SWAP1 DUP2 ADD PUSH1 0x40 MSTORE DUP1 SWAP3 SWAP2 SWAP1 DUP2 DUP2 MSTORE PUSH1 0x20 ADD DUP3 DUP1 SLOAD PUSH2 0x72D SWAP1 PUSH2 0x190E JUMP JUMPDEST DUP1 ISZERO PUSH2 0x77A JUMPI DUP1 PUSH1 0x1F LT PUSH2 0x74F JUMPI PUSH2 0x100 DUP1 DUP4 SLOAD DIV MUL DUP4 MSTORE SWAP2 PUSH1 0x20 ADD SWAP2 PUSH2 0x77A JUMP JUMPDEST DUP3 ADD SWAP2 SWAP1 PUSH1 0x0 MSTORE PUSH1 0x20 PUSH1 0x0 KECCAK256 SWAP1 JUMPDEST DUP2 SLOAD DUP2 MSTORE SWAP1 PUSH1 0x1 ADD SWAP1 PUSH1 0x20 ADD DUP1 DUP4 GT PUSH2 0x75D JUMPI DUP3 SWAP1 SUB PUSH1 0x1F AND DUP3 ADD SWAP2 JUMPDEST POP POP POP POP POP SWAP1 POP SWAP3 POP SWAP3 POP POP SWAP2 POP SWAP2 JUMP JUMPDEST PUSH1 0x0 DUP1 PUSH1 0x0 PUSH1 0xA PUSH1 0x1 SWAP1 SLOAD SWAP1 PUSH2 0x100 EXP SWAP1 DIV PUSH20 0xFFFFFFFFFFFFFFFFFFFFFFFFFFFFFFFFFFFFFFFF AND PUSH20 0xFFFFFFFFFFFFFFFFFFFFFFFFFFFFFFFFFFFFFFFF AND PUSH2 0x7D1 PUSH2 0xDBB JUMP JUMPDEST PUSH20 0xFFFFFFFFFFFFFFFFFFFFFFFFFFFFFFFFFFFFFFFF AND EQ PUSH2 0x827 JUMPI PUSH1 0x40 MLOAD PUSH32 0x8C379A000000000000000000000000000000000000000000000000000000000 DUP2 MSTORE PUSH1 0x4 ADD PUSH2 0x81E SWAP1 PUSH2 0x1692 JUMP JUMPDEST PUSH1 0x40 MLOAD DUP1 SWAP2 SUB SWAP1 REVERT JUMPDEST PUSH1 0x5 SLOAD PUSH1 0x6 SLOAD PUSH1 0x7 SLOAD SWAP3 POP SWAP3 POP SWAP3 POP SWAP1 SWAP2 SWAP3 JUMP JUMPDEST PUSH1 0xA PUSH1 0x1 SWAP1 SLOAD SWAP1 PUSH2 0x100 EXP SWAP1 DIV PUSH20 0xFFFFFFFFFFFFFFFFFFFFFFFFFFFFFFFFFFFFFFFF AND PUSH20 0xFFFFFFFFFFFFFFFFFFFFFFFFFFFFFFFFFFFFFFFF AND PUSH2 0x87C PUSH2 0xDBB JUMP JUMPDEST PUSH20 0xFFFFFFFFFFFFFFFFFFFFFFFFFFFFFFFFFFFFFFFF AND EQ PUSH2 0x8D2 JUMPI PUSH1 0x40 MLOAD PUSH32 0x8C379A000000000000000000000000000000000000000000000000000000000 DUP2 MSTORE PUSH1 0x4 ADD PUSH2 0x8C9 SWAP1 PUSH2 0x1692 JUMP JUMPDEST PUSH1 0x40 MLOAD DUP1 SWAP2 SUB SWAP1 REVERT JUMPDEST PUSH1 0x0 ISZERO ISZERO PUSH1 0xA PUSH1 0x0 SWAP1 SLOAD SWAP1 PUSH2 0x100 EXP SWAP1 DIV PUSH1 0xFF AND ISZERO ISZERO EQ PUSH2 0x928 JUMPI PUSH1 0x40 MLOAD PUSH32 0x8C379A000000000000000000000000000000000000000000000000000000000 DUP2 MSTORE PUSH1 0x4 ADD PUSH2 0x91F SWAP1 PUSH2 0x1672 JUMP JUMPDEST PUSH1 0x40 MLOAD DUP1 SWAP2 SUB SWAP1 REVERT JUMPDEST PUSH1 0x1 PUSH1 0xA PUSH1 0x0 PUSH2 0x100 EXP DUP2 SLOAD DUP2 PUSH1 0xFF MUL NOT AND SWAP1 DUP4 ISZERO ISZERO MUL OR SWAP1 SSTORE POP JUMP JUMPDEST PUSH1 0xA PUSH1 0x1 SWAP1 SLOAD SWAP1 PUSH2 0x100 EXP SWAP1 DIV PUSH20 0xFFFFFFFFFFFFFFFFFFFFFFFFFFFFFFFFFFFFFFFF AND DUP2 JUMP JUMPDEST PUSH1 0x0 PUSH1 0x60 PUSH1 0xA PUSH1 0x1 SWAP1 SLOAD SWAP1 PUSH2 0x100 EXP SWAP1 DIV PUSH20 0xFFFFFFFFFFFFFFFFFFFFFFFFFFFFFFFFFFFFFFFF AND PUSH20 0xFFFFFFFFFFFFFFFFFFFFFFFFFFFFFFFFFFFFFFFF AND PUSH2 0x9B0 PUSH2 0xDBB JUMP JUMPDEST PUSH20 0xFFFFFFFFFFFFFFFFFFFFFFFFFFFFFFFFFFFFFFFF AND EQ PUSH2 0xA06 JUMPI PUSH1 0x40 MLOAD PUSH32 0x8C379A000000000000000000000000000000000000000000000000000000000 DUP2 MSTORE PUSH1 0x4 ADD PUSH2 0x9FD SWAP1 PUSH2 0x1692 JUMP JUMPDEST PUSH1 0x40 MLOAD DUP1 SWAP2 SUB SWAP1 REVERT JUMPDEST PUSH1 0x0 ISZERO ISZERO PUSH1 0xA PUSH1 0x0 SWAP1 SLOAD SWAP1 PUSH2 0x100 EXP SWAP1 DIV PUSH1 0xFF AND ISZERO ISZERO EQ PUSH2 0xA5C JUMPI PUSH1 0x40 MLOAD PUSH32 0x8C379A000000000000000000000000000000000000000000000000000000000 DUP2 MSTORE PUSH1 0x4 ADD PUSH2 0xA53 SWAP1 PUSH2 0x16B2 JUMP JUMPDEST PUSH1 0x40 MLOAD DUP1 SWAP2 SUB SWAP1 REVERT JUMPDEST PUSH1 0x64 PUSH1 0x3 SLOAD LT PUSH2 0xAA1 JUMPI PUSH1 0x40 MLOAD PUSH32 0x8C379A000000000000000000000000000000000000000000000000000000000 DUP2 MSTORE PUSH1 0x4 ADD PUSH2 0xA98 SWAP1 PUSH2 0x16D2 JUMP JUMPDEST PUSH1 0x40 MLOAD DUP1 SWAP2 SUB SWAP1 REVERT JUMPDEST PUSH1 0x0 PUSH2 0xAAB PUSH2 0xDC3 JUMP JUMPDEST SWAP1 POP PUSH1 0x0 DUP2 EQ DUP1 ISZERO PUSH2 0xABF JUMPI POP PUSH1 0xF PUSH1 0x5 SLOAD LT JUMPDEST ISZERO PUSH2 0xB2D JUMPI PUSH1 0x40 MLOAD DUP1 PUSH1 0x40 ADD PUSH1 0x40 MSTORE DUP1 PUSH1 0x8 DUP2 MSTORE PUSH1 0x20 ADD PUSH32 0x506C6174696E756D000000000000000000000000000000000000000000000000 DUP2 MSTORE POP PUSH1 0x2 SWAP1 DUP1 MLOAD SWAP1 PUSH1 0x20 ADD SWAP1 PUSH2 0xB0F SWAP3 SWAP2 SWAP1 PUSH2 0x1219 JUMP JUMPDEST POP PUSH1 0x5 PUSH1 0x0 DUP2 SLOAD DUP1 SWAP3 SWAP2 SWAP1 PUSH2 0xB23 SWAP1 PUSH2 0x1971 JUMP JUMPDEST SWAP2 SWAP1 POP SSTORE POP PUSH2 0xC2E JUMP JUMPDEST PUSH1 0x1 DUP2 GT ISZERO DUP1 ISZERO PUSH2 0xB40 JUMPI POP PUSH1 0x23 PUSH1 0x6 SLOAD LT JUMPDEST ISZERO PUSH2 0xBAE JUMPI PUSH1 0x40 MLOAD DUP1 PUSH1 0x40 ADD PUSH1 0x40 MSTORE DUP1 PUSH1 0x4 DUP2 MSTORE PUSH1 0x20 ADD PUSH32 0x476F6C6400000000000000000000000000000000000000000000000000000000 DUP2 MSTORE POP PUSH1 0x2 SWAP1 DUP1 MLOAD SWAP1 PUSH1 0x20 ADD SWAP1 PUSH2 0xB90 SWAP3 SWAP2 SWAP1 PUSH2 0x1219 JUMP JUMPDEST POP PUSH1 0x6 PUSH1 0x0 DUP2 SLOAD DUP1 SWAP3 SWAP2 SWAP1 PUSH2 0xBA4 SWAP1 PUSH2 0x1971 JUMP JUMPDEST SWAP2 SWAP1 POP SSTORE POP PUSH2 0xC2D JUMP JUMPDEST PUSH1 0x2 DUP2 GT ISZERO DUP1 ISZERO PUSH2 0xBC2 JUMPI POP PUSH1 0x32 PUSH1 0x7 SLOAD GT ISZERO JUMPDEST ISZERO PUSH2 0xC2C JUMPI PUSH1 0x40 MLOAD DUP1 PUSH1 0x40 ADD PUSH1 0x40 MSTORE DUP1 PUSH1 0x6 DUP2 MSTORE PUSH1 0x20 ADD PUSH32 0x53696C7665720000000000000000000000000000000000000000000000000000 DUP2 MSTORE POP PUSH1 0x2 SWAP1 DUP1 MLOAD SWAP1 PUSH1 0x20 ADD SWAP1 PUSH2 0xC12 SWAP3 SWAP2 SWAP1 PUSH2 0x1219 JUMP JUMPDEST POP PUSH1 0x7 PUSH1 0x0 DUP2 SLOAD DUP1 SWAP3 SWAP2 SWAP1 PUSH2 0xC26 SWAP1 PUSH2 0x1971 JUMP JUMPDEST SWAP2 SWAP1 POP SSTORE POP JUMPDEST JUMPDEST JUMPDEST PUSH2 0xCC6 DUP5 DUP3 PUSH1 0x4 SLOAD PUSH1 0x2 DUP1 SLOAD PUSH2 0xC43 SWAP1 PUSH2 0x190E JUMP JUMPDEST DUP1 PUSH1 0x1F ADD PUSH1 0x20 DUP1 SWAP2 DIV MUL PUSH1 0x20 ADD PUSH1 0x40 MLOAD SWAP1 DUP2 ADD PUSH1 0x40 MSTORE DUP1 SWAP3 SWAP2 SWAP1 DUP2 DUP2 MSTORE PUSH1 0x20 ADD DUP3 DUP1 SLOAD PUSH2 0xC6F SWAP1 PUSH2 0x190E JUMP JUMPDEST DUP1 ISZERO PUSH2 0xCBC JUMPI DUP1 PUSH1 0x1F LT PUSH2 0xC91 JUMPI PUSH2 0x100 DUP1 DUP4 SLOAD DIV MUL DUP4 MSTORE SWAP2 PUSH1 0x20 ADD SWAP2 PUSH2 0xCBC JUMP JUMPDEST DUP3 ADD SWAP2 SWAP1 PUSH1 0x0 MSTORE PUSH1 0x20 PUSH1 0x0 KECCAK256 SWAP1 JUMPDEST DUP2 SLOAD DUP2 MSTORE SWAP1 PUSH1 0x1 ADD SWAP1 PUSH1 0x20 ADD DUP1 DUP4 GT PUSH2 0xC9F JUMPI DUP3 SWAP1 SUB PUSH1 0x1F AND DUP3 ADD SWAP2 JUMPDEST POP POP POP POP POP PUSH2 0xE07 JUMP JUMPDEST PUSH1 0x3 PUSH1 0x0 DUP2 SLOAD DUP1 SWAP3 SWAP2 SWAP1 PUSH2 0xCD9 SWAP1 PUSH2 0x1971 JUMP JUMPDEST SWAP2 SWAP1 POP SSTORE POP DUP1 PUSH1 0x8 PUSH1 0x0 DUP7 PUSH20 0xFFFFFFFFFFFFFFFFFFFFFFFFFFFFFFFFFFFFFFFF AND PUSH20 0xFFFFFFFFFFFFFFFFFFFFFFFFFFFFFFFFFFFFFFFF AND DUP2 MSTORE PUSH1 0x20 ADD SWAP1 DUP2 MSTORE PUSH1 0x20 ADD PUSH1 0x0 KECCAK256 DUP2 SWAP1 SSTORE POP DUP1 PUSH1 0x2 DUP1 DUP1 SLOAD PUSH2 0xD31 SWAP1 PUSH2 0x190E JUMP JUMPDEST DUP1 PUSH1 0x1F ADD PUSH1 0x20 DUP1 SWAP2 DIV MUL PUSH1 0x20 ADD PUSH1 0x40 MLOAD SWAP1 DUP2 ADD PUSH1 0x40 MSTORE DUP1 SWAP3 SWAP2 SWAP1 DUP2 DUP2 MSTORE PUSH1 0x20 ADD DUP3 DUP1 SLOAD PUSH2 0xD5D SWAP1 PUSH2 0x190E JUMP JUMPDEST DUP1 ISZERO PUSH2 0xDAA JUMPI DUP1 PUSH1 0x1F LT PUSH2 0xD7F JUMPI PUSH2 0x100 DUP1 DUP4 SLOAD DIV MUL DUP4 MSTORE SWAP2 PUSH1 0x20 ADD SWAP2 PUSH2 0xDAA JUMP JUMPDEST DUP3 ADD SWAP2 SWAP1 PUSH1 0x0 MSTORE PUSH1 0x20 PUSH1 0x0 KECCAK256 SWAP1 JUMPDEST DUP2 SLOAD DUP2 MSTORE SWAP1 PUSH1 0x1 ADD SWAP1 PUSH1 0x20 ADD DUP1 DUP4 GT PUSH2 0xD8D JUMPI DUP3 SWAP1 SUB PUSH1 0x1F AND DUP3 ADD SWAP2 JUMPDEST POP POP POP POP POP SWAP1 POP SWAP3 POP SWAP3 POP POP SWAP2 POP SWAP2 JUMP JUMPDEST PUSH1 0x0 CALLER SWAP1 POP SWAP1 JUMP JUMPDEST PUSH1 0x0 DUP1 PUSH1 0x3 TIMESTAMP CALLER PUSH1 0x40 MLOAD PUSH1 0x20 ADD PUSH2 0xDDB SWAP3 SWAP2 SWAP1 PUSH2 0x1534 JUMP JUMPDEST PUSH1 0x40 MLOAD PUSH1 0x20 DUP2 DUP4 SUB SUB DUP2 MSTORE SWAP1 PUSH1 0x40 MSTORE DUP1 MLOAD SWAP1 PUSH1 0x20 ADD KECCAK256 PUSH1 0x0 SHR PUSH2 0xDFE SWAP2 SWAP1 PUSH2 0x19E8 JUMP JUMPDEST SWAP1 POP DUP1 SWAP2 POP POP SWAP1 JUMP JUMPDEST PUSH1 0x0 PUSH20 0xFFFFFFFFFFFFFFFFFFFFFFFFFFFFFFFFFFFFFFFF AND DUP5 PUSH20 0xFFFFFFFFFFFFFFFFFFFFFFFFFFFFFFFFFFFFFFFF AND EQ ISZERO PUSH2 0xE77 JUMPI PUSH1 0x40 MLOAD PUSH32 0x8C379A000000000000000000000000000000000000000000000000000000000 DUP2 MSTORE PUSH1 0x4 ADD PUSH2 0xE6E SWAP1 PUSH2 0x16F2 JUMP JUMPDEST PUSH1 0x40 MLOAD DUP1 SWAP2 SUB SWAP1 REVERT JUMPDEST PUSH1 0x0 PUSH2 0xE81 PUSH2 0xDBB JUMP JUMPDEST SWAP1 POP PUSH2 0xEA2 DUP2 PUSH1 0x0 DUP8 PUSH2 0xE93 DUP9 PUSH2 0xF9D JUMP JUMPDEST PUSH2 0xE9C DUP9 PUSH2 0xF9D JUMP JUMPDEST DUP8 PUSH2 0x1017 JUMP JUMPDEST DUP3 PUSH1 0x0 DUP1 DUP7 DUP2 MSTORE PUSH1 0x20 ADD SWAP1 DUP2 MSTORE PUSH1 0x20 ADD PUSH1 0x0 KECCAK256 PUSH1 0x0 DUP8 PUSH20 0xFFFFFFFFFFFFFFFFFFFFFFFFFFFFFFFFFFFFFFFF AND PUSH20 0xFFFFFFFFFFFFFFFFFFFFFFFFFFFFFFFFFFFFFFFF AND DUP2 MSTORE PUSH1 0x20 ADD SWAP1 DUP2 MSTORE PUSH1 0x20 ADD PUSH1 0x0 KECCAK256 PUSH1 0x0 DUP3 DUP3 SLOAD PUSH2 0xF01 SWAP2 SWAP1 PUSH2 0x17FF JUMP JUMPDEST SWAP3 POP POP DUP2 SWAP1 SSTORE POP DUP5 PUSH20 0xFFFFFFFFFFFFFFFFFFFFFFFFFFFFFFFFFFFFFFFF AND PUSH1 0x0 PUSH20 0xFFFFFFFFFFFFFFFFFFFFFFFFFFFFFFFFFFFFFFFF AND DUP3 PUSH20 0xFFFFFFFFFFFFFFFFFFFFFFFFFFFFFFFFFFFFFFFF AND PUSH32 0xC3D58168C5AE7397731D063D5BBF3D657854427343F4C083240F7AACAA2D0F62 DUP8 DUP8 PUSH1 0x40 MLOAD PUSH2 0xF7F SWAP3 SWAP2 SWAP1 PUSH2 0x175D JUMP JUMPDEST PUSH1 0x40 MLOAD DUP1 SWAP2 SUB SWAP1 LOG4 PUSH2 0xF96 DUP2 PUSH1 0x0 DUP8 DUP8 DUP8 DUP8 PUSH2 0x101F JUMP JUMPDEST POP POP POP POP POP JUMP JUMPDEST PUSH1 0x60 PUSH1 0x0 PUSH1 0x1 PUSH8 0xFFFFFFFFFFFFFFFF DUP2 GT ISZERO PUSH2 0xFBC JUMPI PUSH2 0xFBB PUSH2 0x1AD5 JUMP JUMPDEST JUMPDEST PUSH1 0x40 MLOAD SWAP1 DUP1 DUP3 MSTORE DUP1 PUSH1 0x20 MUL PUSH1 0x20 ADD DUP3 ADD PUSH1 0x40 MSTORE DUP1 ISZERO PUSH2 0xFEA JUMPI DUP2 PUSH1 0x20 ADD PUSH1 0x20 DUP3 MUL DUP1 CALLDATASIZE DUP4 CALLDATACOPY DUP1 DUP3 ADD SWAP2 POP POP SWAP1 POP JUMPDEST POP SWAP1 POP DUP3 DUP2 PUSH1 0x0 DUP2 MLOAD DUP2 LT PUSH2 0x1002 JUMPI PUSH2 0x1001 PUSH2 0x1AA6 JUMP JUMPDEST JUMPDEST PUSH1 0x20 MUL PUSH1 0x20 ADD ADD DUP2 DUP2 MSTORE POP POP DUP1 SWAP2 POP POP SWAP2 SWAP1 POP JUMP JUMPDEST POP POP POP POP POP POP JUMP JUMPDEST PUSH2 0x103E DUP5 PUSH20 0xFFFFFFFFFFFFFFFFFFFFFFFFFFFFFFFFFFFFFFFF AND PUSH2 0x1206 JUMP JUMPDEST ISZERO PUSH2 0x11FE JUMPI DUP4 PUSH20 0xFFFFFFFFFFFFFFFFFFFFFFFFFFFFFFFFFFFFFFFF AND PUSH4 0xF23A6E61 DUP8 DUP8 DUP7 DUP7 DUP7 PUSH1 0x40 MLOAD DUP7 PUSH4 0xFFFFFFFF AND PUSH1 0xE0 SHL DUP2 MSTORE PUSH1 0x4 ADD PUSH2 0x1084 SWAP6 SWAP5 SWAP4 SWAP3 SWAP2 SWAP1 PUSH2 0x157B JUMP JUMPDEST PUSH1 0x20 PUSH1 0x40 MLOAD DUP1 DUP4 SUB DUP2 PUSH1 0x0 DUP8 DUP1 EXTCODESIZE ISZERO DUP1 ISZERO PUSH2 0x109E JUMPI PUSH1 0x0 DUP1 REVERT JUMPDEST POP GAS CALL SWAP3 POP POP POP DUP1 ISZERO PUSH2 0x10CF JUMPI POP PUSH1 0x40 MLOAD RETURNDATASIZE PUSH1 0x1F NOT PUSH1 0x1F DUP3 ADD AND DUP3 ADD DUP1 PUSH1 0x40 MSTORE POP DUP2 ADD SWAP1 PUSH2 0x10CC SWAP2 SWAP1 PUSH2 0x1313 JUMP JUMPDEST PUSH1 0x1 JUMPDEST PUSH2 0x1175 JUMPI PUSH2 0x10DB PUSH2 0x1B04 JUMP JUMPDEST DUP1 PUSH4 0x8C379A0 EQ ISZERO PUSH2 0x1138 JUMPI POP PUSH2 0x10F0 PUSH2 0x1D10 JUMP JUMPDEST DUP1 PUSH2 0x10FB JUMPI POP PUSH2 0x113A JUMP JUMPDEST DUP1 PUSH1 0x40 MLOAD PUSH32 0x8C379A000000000000000000000000000000000000000000000000000000000 DUP2 MSTORE PUSH1 0x4 ADD PUSH2 0x112F SWAP2 SWAP1 PUSH2 0x15F0 JUMP JUMPDEST PUSH1 0x40 MLOAD DUP1 SWAP2 SUB SWAP1 REVERT JUMPDEST POP JUMPDEST PUSH1 0x40 MLOAD PUSH32 0x8C379A000000000000000000000000000000000000000000000000000000000 DUP2 MSTORE PUSH1 0x4 ADD PUSH2 0x116C SWAP1 PUSH2 0x1612 JUMP JUMPDEST PUSH1 0x40 MLOAD DUP1 SWAP2 SUB SWAP1 REVERT JUMPDEST PUSH4 0xF23A6E61 PUSH1 0xE0 SHL PUSH28 0xFFFFFFFFFFFFFFFFFFFFFFFFFFFFFFFFFFFFFFFFFFFFFFFFFFFFFFFF NOT AND DUP2 PUSH28 0xFFFFFFFFFFFFFFFFFFFFFFFFFFFFFFFFFFFFFFFFFFFFFFFFFFFFFFFF NOT AND EQ PUSH2 0x11FC JUMPI PUSH1 0x40 MLOAD PUSH32 0x8C379A000000000000000000000000000000000000000000000000000000000 DUP2 MSTORE PUSH1 0x4 ADD PUSH2 0x11F3 SWAP1 PUSH2 0x1632 JUMP JUMPDEST PUSH1 0x40 MLOAD DUP1 SWAP2 SUB SWAP1 REVERT JUMPDEST POP JUMPDEST POP POP POP POP POP POP JUMP JUMPDEST PUSH1 0x0 DUP1 DUP3 EXTCODESIZE SWAP1 POP PUSH1 0x0 DUP2 GT SWAP2 POP POP SWAP2 SWAP1 POP JUMP JUMPDEST DUP3 DUP1 SLOAD PUSH2 0x1225 SWAP1 PUSH2 0x190E JUMP JUMPDEST SWAP1 PUSH1 0x0 MSTORE PUSH1 0x20 PUSH1 0x0 KECCAK256 SWAP1 PUSH1 0x1F ADD PUSH1 0x20 SWAP1 DIV DUP2 ADD SWAP3 DUP3 PUSH2 0x1247 JUMPI PUSH1 0x0 DUP6 SSTORE PUSH2 0x128E JUMP JUMPDEST DUP3 PUSH1 0x1F LT PUSH2 0x1260 JUMPI DUP1 MLOAD PUSH1 0xFF NOT AND DUP4 DUP1 ADD OR DUP6 SSTORE PUSH2 0x128E JUMP JUMPDEST DUP3 DUP1 ADD PUSH1 0x1 ADD DUP6 SSTORE DUP3 ISZERO PUSH2 0x128E JUMPI SWAP2 DUP3 ADD JUMPDEST DUP3 DUP2 GT ISZERO PUSH2 0x128D JUMPI DUP3 MLOAD DUP3 SSTORE SWAP2 PUSH1 0x20 ADD SWAP2 SWAP1 PUSH1 0x1 ADD SWAP1 PUSH2 0x1272 JUMP JUMPDEST JUMPDEST POP SWAP1 POP PUSH2 0x129B SWAP2 SWAP1 PUSH2 0x129F JUMP JUMPDEST POP SWAP1 JUMP JUMPDEST JUMPDEST DUP1 DUP3 GT ISZERO PUSH2 0x12B8 JUMPI PUSH1 0x0 DUP2 PUSH1 0x0 SWAP1 SSTORE POP PUSH1 0x1 ADD PUSH2 0x12A0 JUMP JUMPDEST POP SWAP1 JUMP JUMPDEST PUSH1 0x0 DUP2 CALLDATALOAD SWAP1 POP PUSH2 0x12CB DUP2 PUSH2 0x1DA6 JUMP JUMPDEST SWAP3 SWAP2 POP POP JUMP JUMPDEST PUSH1 0x0 DUP2 MLOAD SWAP1 POP PUSH2 0x12E0 DUP2 PUSH2 0x1DBD JUMP JUMPDEST SWAP3 SWAP2 POP POP JUMP JUMPDEST PUSH1 0x0 PUSH1 0x20 DUP3 DUP5 SUB SLT ISZERO PUSH2 0x12FC JUMPI PUSH2 0x12FB PUSH2 0x1B26 JUMP JUMPDEST JUMPDEST PUSH1 0x0 PUSH2 0x130A DUP5 DUP3 DUP6 ADD PUSH2 0x12BC JUMP JUMPDEST SWAP2 POP POP SWAP3 SWAP2 POP POP JUMP JUMPDEST PUSH1 0x0 PUSH1 0x20 DUP3 DUP5 SUB SLT ISZERO PUSH2 0x1329 JUMPI PUSH2 0x1328 PUSH2 0x1B26 JUMP JUMPDEST JUMPDEST PUSH1 0x0 PUSH2 0x1337 DUP5 DUP3 DUP6 ADD PUSH2 0x12D1 JUMP JUMPDEST SWAP2 POP POP SWAP3 SWAP2 POP POP JUMP JUMPDEST PUSH2 0x1349 DUP2 PUSH2 0x1867 JUMP JUMPDEST DUP3 MSTORE POP POP JUMP JUMPDEST PUSH2 0x1358 DUP2 PUSH2 0x1855 JUMP JUMPDEST DUP3 MSTORE POP POP JUMP JUMPDEST PUSH2 0x136F PUSH2 0x136A DUP3 PUSH2 0x1855 JUMP JUMPDEST PUSH2 0x19BA JUMP JUMPDEST DUP3 MSTORE POP POP JUMP JUMPDEST PUSH2 0x137E DUP2 PUSH2 0x1879 JUMP JUMPDEST DUP3 MSTORE POP POP JUMP JUMPDEST PUSH1 0x0 PUSH2 0x138F DUP3 PUSH2 0x17C7 JUMP JUMPDEST PUSH2 0x1399 DUP2 DUP6 PUSH2 0x17DD JUMP JUMPDEST SWAP4 POP PUSH2 0x13A9 DUP2 DUP6 PUSH1 0x20 DUP7 ADD PUSH2 0x18DB JUMP JUMPDEST PUSH2 0x13B2 DUP2 PUSH2 0x1B2B JUMP JUMPDEST DUP5 ADD SWAP2 POP POP SWAP3 SWAP2 POP POP JUMP JUMPDEST PUSH1 0x0 PUSH2 0x13C8 DUP3 PUSH2 0x17D2 JUMP JUMPDEST PUSH2 0x13D2 DUP2 DUP6 PUSH2 0x17EE JUMP JUMPDEST SWAP4 POP PUSH2 0x13E2 DUP2 DUP6 PUSH1 0x20 DUP7 ADD PUSH2 0x18DB JUMP JUMPDEST PUSH2 0x13EB DUP2 PUSH2 0x1B2B JUMP JUMPDEST DUP5 ADD SWAP2 POP POP SWAP3 SWAP2 POP POP JUMP JUMPDEST PUSH1 0x0 PUSH2 0x1403 PUSH1 0x34 DUP4 PUSH2 0x17EE JUMP JUMPDEST SWAP2 POP PUSH2 0x140E DUP3 PUSH2 0x1B56 JUMP JUMPDEST PUSH1 0x40 DUP3 ADD SWAP1 POP SWAP2 SWAP1 POP JUMP JUMPDEST PUSH1 0x0 PUSH2 0x1426 PUSH1 0x28 DUP4 PUSH2 0x17EE JUMP JUMPDEST SWAP2 POP PUSH2 0x1431 DUP3 PUSH2 0x1BA5 JUMP JUMPDEST PUSH1 0x40 DUP3 ADD SWAP1 POP SWAP2 SWAP1 POP JUMP JUMPDEST PUSH1 0x0 PUSH2 0x1449 PUSH1 0x1B DUP4 PUSH2 0x17EE JUMP JUMPDEST SWAP2 POP PUSH2 0x1454 DUP3 PUSH2 0x1BF4 JUMP JUMPDEST PUSH1 0x20 DUP3 ADD SWAP1 POP SWAP2 SWAP1 POP JUMP JUMPDEST PUSH1 0x0 PUSH2 0x146C PUSH1 0x1B DUP4 PUSH2 0x17EE JUMP JUMPDEST SWAP2 POP PUSH2 0x1477 DUP3 PUSH2 0x1C1D JUMP JUMPDEST PUSH1 0x20 DUP3 ADD SWAP1 POP SWAP2 SWAP1 POP JUMP JUMPDEST PUSH1 0x0 PUSH2 0x148F PUSH1 0x1C DUP4 PUSH2 0x17EE JUMP JUMPDEST SWAP2 POP PUSH2 0x149A DUP3 PUSH2 0x1C46 JUMP JUMPDEST PUSH1 0x20 DUP3 ADD SWAP1 POP SWAP2 SWAP1 POP JUMP JUMPDEST PUSH1 0x0 PUSH2 0x14B2 PUSH1 0x1B DUP4 PUSH2 0x17EE JUMP JUMPDEST SWAP2 POP PUSH2 0x14BD DUP3 PUSH2 0x1C6F JUMP JUMPDEST PUSH1 0x20 DUP3 ADD SWAP1 POP SWAP2 SWAP1 POP JUMP JUMPDEST PUSH1 0x0 PUSH2 0x14D5 PUSH1 0x19 DUP4 PUSH2 0x17EE JUMP JUMPDEST SWAP2 POP PUSH2 0x14E0 DUP3 PUSH2 0x1C98 JUMP JUMPDEST PUSH1 0x20 DUP3 ADD SWAP1 POP SWAP2 SWAP1 POP JUMP JUMPDEST PUSH1 0x0 PUSH2 0x14F8 PUSH1 0x21 DUP4 PUSH2 0x17EE JUMP JUMPDEST SWAP2 POP PUSH2 0x1503 DUP3 PUSH2 0x1CC1 JUMP JUMPDEST PUSH1 0x40 DUP3 ADD SWAP1 POP SWAP2 SWAP1 POP JUMP JUMPDEST PUSH2 0x1517 DUP2 PUSH2 0x18D1 JUMP JUMPDEST DUP3 MSTORE POP POP JUMP JUMPDEST PUSH2 0x152E PUSH2 0x1529 DUP3 PUSH2 0x18D1 JUMP JUMPDEST PUSH2 0x19DE JUMP JUMPDEST DUP3 MSTORE POP POP JUMP JUMPDEST PUSH1 0x0 PUSH2 0x1540 DUP3 DUP6 PUSH2 0x151D JUMP JUMPDEST PUSH1 0x20 DUP3 ADD SWAP2 POP PUSH2 0x1550 DUP3 DUP5 PUSH2 0x135E JUMP JUMPDEST PUSH1 0x14 DUP3 ADD SWAP2 POP DUP2 SWAP1 POP SWAP4 SWAP3 POP POP POP JUMP JUMPDEST PUSH1 0x0 PUSH1 0x20 DUP3 ADD SWAP1 POP PUSH2 0x1575 PUSH1 0x0 DUP4 ADD DUP5 PUSH2 0x1340 JUMP JUMPDEST SWAP3 SWAP2 POP POP JUMP JUMPDEST PUSH1 0x0 PUSH1 0xA0 DUP3 ADD SWAP1 POP PUSH2 0x1590 PUSH1 0x0 DUP4 ADD DUP9 PUSH2 0x134F JUMP JUMPDEST PUSH2 0x159D PUSH1 0x20 DUP4 ADD DUP8 PUSH2 0x134F JUMP JUMPDEST PUSH2 0x15AA PUSH1 0x40 DUP4 ADD DUP7 PUSH2 0x150E JUMP JUMPDEST PUSH2 0x15B7 PUSH1 0x60 DUP4 ADD DUP6 PUSH2 0x150E JUMP JUMPDEST DUP2 DUP2 SUB PUSH1 0x80 DUP4 ADD MSTORE PUSH2 0x15C9 DUP2 DUP5 PUSH2 0x1384 JUMP JUMPDEST SWAP1 POP SWAP7 SWAP6 POP POP POP POP POP POP JUMP JUMPDEST PUSH1 0x0 PUSH1 0x20 DUP3 ADD SWAP1 POP PUSH2 0x15EA PUSH1 0x0 DUP4 ADD DUP5 PUSH2 0x1375 JUMP JUMPDEST SWAP3 SWAP2 POP POP JUMP JUMPDEST PUSH1 0x0 PUSH1 0x20 DUP3 ADD SWAP1 POP DUP2 DUP2 SUB PUSH1 0x0 DUP4 ADD MSTORE PUSH2 0x160A DUP2 DUP5 PUSH2 0x13BD JUMP JUMPDEST SWAP1 POP SWAP3 SWAP2 POP POP JUMP JUMPDEST PUSH1 0x0 PUSH1 0x20 DUP3 ADD SWAP1 POP DUP2 DUP2 SUB PUSH1 0x0 DUP4 ADD MSTORE PUSH2 0x162B DUP2 PUSH2 0x13F6 JUMP JUMPDEST SWAP1 POP SWAP2 SWAP1 POP JUMP JUMPDEST PUSH1 0x0 PUSH1 0x20 DUP3 ADD SWAP1 POP DUP2 DUP2 SUB PUSH1 0x0 DUP4 ADD MSTORE PUSH2 0x164B DUP2 PUSH2 0x1419 JUMP JUMPDEST SWAP1 POP SWAP2 SWAP1 POP JUMP JUMPDEST PUSH1 0x0 PUSH1 0x20 DUP3 ADD SWAP1 POP DUP2 DUP2 SUB PUSH1 0x0 DUP4 ADD MSTORE PUSH2 0x166B DUP2 PUSH2 0x143C JUMP JUMPDEST SWAP1 POP SWAP2 SWAP1 POP JUMP JUMPDEST PUSH1 0x0 PUSH1 0x20 DUP3 ADD SWAP1 POP DUP2 DUP2 SUB PUSH1 0x0 DUP4 ADD MSTORE PUSH2 0x168B DUP2 PUSH2 0x145F JUMP JUMPDEST SWAP1 POP SWAP2 SWAP1 POP JUMP JUMPDEST PUSH1 0x0 PUSH1 0x20 DUP3 ADD SWAP1 POP DUP2 DUP2 SUB PUSH1 0x0 DUP4 ADD MSTORE PUSH2 0x16AB DUP2 PUSH2 0x1482 JUMP JUMPDEST SWAP1 POP SWAP2 SWAP1 POP JUMP JUMPDEST PUSH1 0x0 PUSH1 0x20 DUP3 ADD SWAP1 POP DUP2 DUP2 SUB PUSH1 0x0 DUP4 ADD MSTORE PUSH2 0x16CB DUP2 PUSH2 0x14A5 JUMP JUMPDEST SWAP1 POP SWAP2 SWAP1 POP JUMP JUMPDEST PUSH1 0x0 PUSH1 0x20 DUP3 ADD SWAP1 POP DUP2 DUP2 SUB PUSH1 0x0 DUP4 ADD MSTORE PUSH2 0x16EB DUP2 PUSH2 0x14C8 JUMP JUMPDEST SWAP1 POP SWAP2 SWAP1 POP JUMP JUMPDEST PUSH1 0x0 PUSH1 0x20 DUP3 ADD SWAP1 POP DUP2 DUP2 SUB PUSH1 0x0 DUP4 ADD MSTORE PUSH2 0x170B DUP2 PUSH2 0x14EB JUMP JUMPDEST SWAP1 POP SWAP2 SWAP1 POP JUMP JUMPDEST PUSH1 0x0 PUSH1 0x20 DUP3 ADD SWAP1 POP PUSH2 0x1727 PUSH1 0x0 DUP4 ADD DUP5 PUSH2 0x150E JUMP JUMPDEST SWAP3 SWAP2 POP POP JUMP JUMPDEST PUSH1 0x0 PUSH1 0x40 DUP3 ADD SWAP1 POP PUSH2 0x1742 PUSH1 0x0 DUP4 ADD DUP6 PUSH2 0x150E JUMP JUMPDEST DUP2 DUP2 SUB PUSH1 0x20 DUP4 ADD MSTORE PUSH2 0x1754 DUP2 DUP5 PUSH2 0x13BD JUMP JUMPDEST SWAP1 POP SWAP4 SWAP3 POP POP POP JUMP JUMPDEST PUSH1 0x0 PUSH1 0x40 DUP3 ADD SWAP1 POP PUSH2 0x1772 PUSH1 0x0 DUP4 ADD DUP6 PUSH2 0x150E JUMP JUMPDEST PUSH2 0x177F PUSH1 0x20 DUP4 ADD DUP5 PUSH2 0x150E JUMP JUMPDEST SWAP4 SWAP3 POP POP POP JUMP JUMPDEST PUSH1 0x0 PUSH1 0x60 DUP3 ADD SWAP1 POP PUSH2 0x179B PUSH1 0x0 DUP4 ADD DUP7 PUSH2 0x150E JUMP JUMPDEST PUSH2 0x17A8 PUSH1 0x20 DUP4 ADD DUP6 PUSH2 0x150E JUMP JUMPDEST PUSH2 0x17B5 PUSH1 0x40 DUP4 ADD DUP5 PUSH2 0x150E JUMP JUMPDEST SWAP5 SWAP4 POP POP POP POP JUMP JUMPDEST PUSH1 0x0 PUSH1 0x40 MLOAD SWAP1 POP SWAP1 JUMP JUMPDEST PUSH1 0x0 DUP2 MLOAD SWAP1 POP SWAP2 SWAP1 POP JUMP JUMPDEST PUSH1 0x0 DUP2 MLOAD SWAP1 POP SWAP2 SWAP1 POP JUMP JUMPDEST PUSH1 0x0 DUP3 DUP3 MSTORE PUSH1 0x20 DUP3 ADD SWAP1 POP SWAP3 SWAP2 POP POP JUMP JUMPDEST PUSH1 0x0 DUP3 DUP3 MSTORE PUSH1 0x20 DUP3 ADD SWAP1 POP SWAP3 SWAP2 POP POP JUMP JUMPDEST PUSH1 0x0 PUSH2 0x180A DUP3 PUSH2 0x18D1 JUMP JUMPDEST SWAP2 POP PUSH2 0x1815 DUP4 PUSH2 0x18D1 JUMP JUMPDEST SWAP3 POP DUP3 PUSH32 0xFFFFFFFFFFFFFFFFFFFFFFFFFFFFFFFFFFFFFFFFFFFFFFFFFFFFFFFFFFFFFFFF SUB DUP3 GT ISZERO PUSH2 0x184A JUMPI PUSH2 0x1849 PUSH2 0x1A19 JUMP JUMPDEST JUMPDEST DUP3 DUP3 ADD SWAP1 POP SWAP3 SWAP2 POP POP JUMP JUMPDEST PUSH1 0x0 PUSH2 0x1860 DUP3 PUSH2 0x18B1 JUMP JUMPDEST SWAP1 POP SWAP2 SWAP1 POP JUMP JUMPDEST PUSH1 0x0 PUSH2 0x1872 DUP3 PUSH2 0x18B1 JUMP JUMPDEST SWAP1 POP SWAP2 SWAP1 POP JUMP JUMPDEST PUSH1 0x0 DUP2 ISZERO ISZERO SWAP1 POP SWAP2 SWAP1 POP JUMP JUMPDEST PUSH1 0x0 PUSH32 0xFFFFFFFF00000000000000000000000000000000000000000000000000000000 DUP3 AND SWAP1 POP SWAP2 SWAP1 POP JUMP JUMPDEST PUSH1 0x0 PUSH20 0xFFFFFFFFFFFFFFFFFFFFFFFFFFFFFFFFFFFFFFFF DUP3 AND SWAP1 POP SWAP2 SWAP1 POP JUMP JUMPDEST PUSH1 0x0 DUP2 SWAP1 POP SWAP2 SWAP1 POP JUMP JUMPDEST PUSH1 0x0 JUMPDEST DUP4 DUP2 LT ISZERO PUSH2 0x18F9 JUMPI DUP1 DUP3 ADD MLOAD DUP2 DUP5 ADD MSTORE PUSH1 0x20 DUP2 ADD SWAP1 POP PUSH2 0x18DE JUMP JUMPDEST DUP4 DUP2 GT ISZERO PUSH2 0x1908 JUMPI PUSH1 0x0 DUP5 DUP5 ADD MSTORE JUMPDEST POP POP POP POP JUMP JUMPDEST PUSH1 0x0 PUSH1 0x2 DUP3 DIV SWAP1 POP PUSH1 0x1 DUP3 AND DUP1 PUSH2 0x1926 JUMPI PUSH1 0x7F DUP3 AND SWAP2 POP JUMPDEST PUSH1 0x20 DUP3 LT DUP2 EQ ISZERO PUSH2 0x193A JUMPI PUSH2 0x1939 PUSH2 0x1A77 JUMP JUMPDEST JUMPDEST POP SWAP2 SWAP1 POP JUMP JUMPDEST PUSH2 0x1949 DUP3 PUSH2 0x1B2B JUMP JUMPDEST DUP2 ADD DUP2 DUP2 LT PUSH8 0xFFFFFFFFFFFFFFFF DUP3 GT OR ISZERO PUSH2 0x1968 JUMPI PUSH2 0x1967 PUSH2 0x1AD5 JUMP JUMPDEST JUMPDEST DUP1 PUSH1 0x40 MSTORE POP POP POP JUMP JUMPDEST PUSH1 0x0 PUSH2 0x197C DUP3 PUSH2 0x18D1 JUMP JUMPDEST SWAP2 POP PUSH32 0xFFFFFFFFFFFFFFFFFFFFFFFFFFFFFFFFFFFFFFFFFFFFFFFFFFFFFFFFFFFFFFFF DUP3 EQ ISZERO PUSH2 0x19AF JUMPI PUSH2 0x19AE PUSH2 0x1A19 JUMP JUMPDEST JUMPDEST PUSH1 0x1 DUP3 ADD SWAP1 POP SWAP2 SWAP1 POP JUMP JUMPDEST PUSH1 0x0 PUSH2 0x19C5 DUP3 PUSH2 0x19CC JUMP JUMPDEST SWAP1 POP SWAP2 SWAP1 POP JUMP JUMPDEST PUSH1 0x0 PUSH2 0x19D7 DUP3 PUSH2 0x1B3C JUMP JUMPDEST SWAP1 POP SWAP2 SWAP1 POP JUMP JUMPDEST PUSH1 0x0 DUP2 SWAP1 POP SWAP2 SWAP1 POP JUMP JUMPDEST PUSH1 0x0 PUSH2 0x19F3 DUP3 PUSH2 0x18D1 JUMP JUMPDEST SWAP2 POP PUSH2 0x19FE DUP4 PUSH2 0x18D1 JUMP JUMPDEST SWAP3 POP DUP3 PUSH2 0x1A0E JUMPI PUSH2 0x1A0D PUSH2 0x1A48 JUMP JUMPDEST JUMPDEST DUP3 DUP3 MOD SWAP1 POP SWAP3 SWAP2 POP POP JUMP JUMPDEST PUSH32 0x4E487B7100000000000000000000000000000000000000000000000000000000 PUSH1 0x0 MSTORE PUSH1 0x11 PUSH1 0x4 MSTORE PUSH1 0x24 PUSH1 0x0 REVERT JUMPDEST PUSH32 0x4E487B7100000000000000000000000000000000000000000000000000000000 PUSH1 0x0 MSTORE PUSH1 0x12 PUSH1 0x4 MSTORE PUSH1 0x24 PUSH1 0x0 REVERT JUMPDEST PUSH32 0x4E487B7100000000000000000000000000000000000000000000000000000000 PUSH1 0x0 MSTORE PUSH1 0x22 PUSH1 0x4 MSTORE PUSH1 0x24 PUSH1 0x0 REVERT JUMPDEST PUSH32 0x4E487B7100000000000000000000000000000000000000000000000000000000 PUSH1 0x0 MSTORE PUSH1 0x32 PUSH1 0x4 MSTORE PUSH1 0x24 PUSH1 0x0 REVERT JUMPDEST PUSH32 0x4E487B7100000000000000000000000000000000000000000000000000000000 PUSH1 0x0 MSTORE PUSH1 0x41 PUSH1 0x4 MSTORE PUSH1 0x24 PUSH1 0x0 REVERT JUMPDEST PUSH1 0x0 PUSH1 0x3 RETURNDATASIZE GT ISZERO PUSH2 0x1B23 JUMPI PUSH1 0x4 PUSH1 0x0 DUP1 RETURNDATACOPY PUSH2 0x1B20 PUSH1 0x0 MLOAD PUSH2 0x1B49 JUMP JUMPDEST SWAP1 POP JUMPDEST SWAP1 JUMP JUMPDEST PUSH1 0x0 DUP1 REVERT JUMPDEST PUSH1 0x0 PUSH1 0x1F NOT PUSH1 0x1F DUP4 ADD AND SWAP1 POP SWAP2 SWAP1 POP JUMP JUMPDEST PUSH1 0x0 DUP2 PUSH1 0x60 SHL SWAP1 POP SWAP2 SWAP1 POP JUMP JUMPDEST PUSH1 0x0 DUP2 PUSH1 0xE0 SHR SWAP1 POP SWAP2 SWAP1 POP JUMP JUMPDEST PUSH32 0x455243313135353A207472616E7366657220746F206E6F6E2045524331313535 PUSH1 0x0 DUP3 ADD MSTORE PUSH32 0x526563656976657220696D706C656D656E746572000000000000000000000000 PUSH1 0x20 DUP3 ADD MSTORE POP JUMP JUMPDEST PUSH32 0x455243313135353A204552433131353552656365697665722072656A65637465 PUSH1 0x0 DUP3 ADD MSTORE PUSH32 0x6420746F6B656E73000000000000000000000000000000000000000000000000 PUSH1 0x20 DUP3 ADD MSTORE POP JUMP JUMPDEST PUSH32 0x44726F707369746520697320616C72656164792052756E6E696E670000000000 PUSH1 0x0 DUP3 ADD MSTORE POP JUMP JUMPDEST PUSH32 0x44726F707369746520697320616C72656164792053746F707065640000000000 PUSH1 0x0 DUP3 ADD MSTORE POP JUMP JUMPDEST PUSH32 0x4F6E6C79204E46542D4553204F776E65722063616E2041636365737300000000 PUSH1 0x0 DUP3 ADD MSTORE POP JUMP JUMPDEST PUSH32 0x44726F7073697465206973206E6F74204F70656E6564205965742E0000000000 PUSH1 0x0 DUP3 ADD MSTORE POP JUMP JUMPDEST PUSH32 0x4D6178204D696E74696E67204C696D6974207265616368656400000000000000 PUSH1 0x0 DUP3 ADD MSTORE POP JUMP JUMPDEST PUSH32 0x455243313135353A206D696E7420746F20746865207A65726F20616464726573 PUSH1 0x0 DUP3 ADD MSTORE PUSH32 0x7300000000000000000000000000000000000000000000000000000000000000 PUSH1 0x20 DUP3 ADD MSTORE POP JUMP JUMPDEST PUSH1 0x0 PUSH1 0x44 RETURNDATASIZE LT ISZERO PUSH2 0x1D20 JUMPI PUSH2 0x1DA3 JUMP JUMPDEST PUSH2 0x1D28 PUSH2 0x17BD JUMP JUMPDEST PUSH1 0x4 RETURNDATASIZE SUB PUSH1 0x4 DUP3 RETURNDATACOPY DUP1 MLOAD RETURNDATASIZE PUSH1 0x24 DUP3 ADD GT PUSH8 0xFFFFFFFFFFFFFFFF DUP3 GT OR ISZERO PUSH2 0x1D50 JUMPI POP POP PUSH2 0x1DA3 JUMP JUMPDEST DUP1 DUP3 ADD DUP1 MLOAD PUSH8 0xFFFFFFFFFFFFFFFF DUP2 GT ISZERO PUSH2 0x1D6E JUMPI POP POP POP POP PUSH2 0x1DA3 JUMP JUMPDEST DUP1 PUSH1 0x20 DUP4 ADD ADD PUSH1 0x4 RETURNDATASIZE SUB DUP6 ADD DUP2 GT ISZERO PUSH2 0x1D8B JUMPI POP POP POP POP POP PUSH2 0x1DA3 JUMP JUMPDEST PUSH2 0x1D9A DUP3 PUSH1 0x20 ADD DUP6 ADD DUP7 PUSH2 0x1940 JUMP JUMPDEST DUP3 SWAP6 POP POP POP POP POP POP JUMPDEST SWAP1 JUMP JUMPDEST PUSH2 0x1DAF DUP2 PUSH2 0x1855 JUMP JUMPDEST DUP2 EQ PUSH2 0x1DBA JUMPI PUSH1 0x0 DUP1 REVERT JUMPDEST POP JUMP JUMPDEST PUSH2 0x1DC6 DUP2 PUSH2 0x1885 JUMP JUMPDEST DUP2 EQ PUSH2 0x1DD1 JUMPI PUSH1 0x0 DUP1 REVERT JUMPDEST POP JUMP INVALID LOG2 PUSH5 0x6970667358 0x22 SLT KECCAK256 0x28 CALLDATASIZE DUP9 PUSH30 0x37922CD06D66A5CBCEE4AED2A6D17CC06A97377B838FCBA42FCA243B6473 PUSH16 0x6C634300080700330000000000000000 "
				},
				"gasEstimates": {
					"creation": {
						"codeDepositCost": "1538000",
						"executionCost": "infinite",
						"totalCost": "infinite"
					},
					"external": {
						"CryptorandomMint(address)": "infinite",
						"FiatrandomMint(address)": "infinite",
						"IsPaused()": "2494",
						"Owner()": "2608",
						"checkMintedCategoryWise()": "infinite",
						"checkTotalMinted()": "4693",
						"openDropsite()": "28882",
						"stopDropsite()": "28859"
					},
					"internal": {
						"random()": "infinite"
					}
				},
				"methodIdentifiers": {
					"CryptorandomMint(address)": "410f4495",
					"FiatrandomMint(address)": "fd93d41c",
					"IsPaused()": "1309a563",
					"Owner()": "b4a99a4e",
					"checkMintedCategoryWise()": "60daa851",
					"checkTotalMinted()": "0390c11c",
					"openDropsite()": "15460259",
					"stopDropsite()": "aa90c726"
				}
			},
			"userdoc": {
				"kind": "user",
				"methods": {},
				"version": 1
			}
		}
	}
}