{
	"Dropsite.sol": {
		"Dropsite": {
			"abi": [
				{
					"inputs": [
						{
							"internalType": "string",
							"name": "name",
							"type": "string"
						}
					],
					"stateMutability": "nonpayable",
					"type": "constructor"
				},
				{
					"anonymous": false,
					"inputs": [
						{
							"indexed": true,
							"internalType": "address",
							"name": "operator",
							"type": "address"
						},
						{
							"indexed": true,
							"internalType": "address",
							"name": "from",
							"type": "address"
						},
						{
							"indexed": true,
							"internalType": "address",
							"name": "to",
							"type": "address"
						},
						{
							"indexed": false,
							"internalType": "uint256",
							"name": "id",
							"type": "uint256"
						},
						{
							"indexed": false,
							"internalType": "uint256",
							"name": "value",
							"type": "uint256"
						}
					],
					"name": "TransferSingle",
					"type": "event"
				},
				{
					"inputs": [],
					"name": "ContractBalance",
					"outputs": [
						{
							"internalType": "uint256",
							"name": "",
							"type": "uint256"
						}
					],
					"stateMutability": "view",
					"type": "function"
				},
				{
					"inputs": [
						{
							"internalType": "address",
							"name": "user_addr",
							"type": "address"
						},
						{
							"internalType": "uint256",
							"name": "noOfMints",
							"type": "uint256"
						}
					],
					"name": "CryptoRandomMint",
					"outputs": [
						{
							"internalType": "uint256[]",
							"name": "",
							"type": "uint256[]"
						}
					],
					"stateMutability": "payable",
					"type": "function"
				},
				{
					"inputs": [
						{
							"internalType": "address",
							"name": "user_addr",
							"type": "address"
						},
						{
							"internalType": "uint256",
							"name": "noOfMints",
							"type": "uint256"
						}
					],
					"name": "FiatRandomMint",
					"outputs": [
						{
							"internalType": "uint256[]",
							"name": "",
							"type": "uint256[]"
						}
					],
					"stateMutability": "nonpayable",
					"type": "function"
				},
				{
					"inputs": [],
					"name": "IsPaused",
					"outputs": [
						{
							"internalType": "bool",
							"name": "",
							"type": "bool"
						}
					],
					"stateMutability": "view",
					"type": "function"
				},
				{
					"inputs": [],
					"name": "Owner",
					"outputs": [
						{
							"internalType": "address payable",
							"name": "",
							"type": "address"
						}
					],
					"stateMutability": "view",
					"type": "function"
				},
				{
					"inputs": [],
					"name": "checkMintedCategoryWise",
					"outputs": [
						{
							"internalType": "uint256",
							"name": "",
							"type": "uint256"
						},
						{
							"internalType": "uint256",
							"name": "",
							"type": "uint256"
						},
						{
							"internalType": "uint256",
							"name": "",
							"type": "uint256"
						}
					],
					"stateMutability": "view",
					"type": "function"
				},
				{
					"inputs": [],
					"name": "checkTotalMinted",
					"outputs": [
						{
							"internalType": "uint256",
							"name": "",
							"type": "uint256"
						}
					],
					"stateMutability": "view",
					"type": "function"
				},
				{
					"inputs": [],
					"name": "getMintFee",
					"outputs": [
						{
							"internalType": "uint256",
							"name": "",
							"type": "uint256"
						}
					],
					"stateMutability": "view",
					"type": "function"
				},
				{
					"inputs": [],
					"name": "openDropsite",
					"outputs": [],
					"stateMutability": "nonpayable",
					"type": "function"
				},
				{
					"inputs": [
						{
							"internalType": "address",
							"name": "user_addr",
							"type": "address"
						}
					],
					"name": "randomMinting",
					"outputs": [
						{
							"internalType": "uint256",
							"name": "",
							"type": "uint256"
						},
						{
							"internalType": "string",
							"name": "",
							"type": "string"
						}
					],
					"stateMutability": "payable",
					"type": "function"
				},
				{
					"inputs": [
						{
							"internalType": "address",
							"name": "addr",
							"type": "address"
						}
					],
					"name": "returnOwner",
					"outputs": [
						{
							"internalType": "uint256[]",
							"name": "",
							"type": "uint256[]"
						}
					],
					"stateMutability": "view",
					"type": "function"
				},
				{
					"inputs": [
						{
							"internalType": "uint256",
							"name": "_mintFee",
							"type": "uint256"
						}
					],
					"name": "setMintFee",
					"outputs": [],
					"stateMutability": "nonpayable",
					"type": "function"
				},
				{
					"inputs": [],
					"name": "stopDropsite",
					"outputs": [],
					"stateMutability": "nonpayable",
					"type": "function"
				},
				{
					"inputs": [
						{
							"internalType": "address payable",
							"name": "to",
							"type": "address"
						}
					],
					"name": "withDraw",
					"outputs": [],
					"stateMutability": "payable",
					"type": "function"
				}
			],
			"devdoc": {
				"kind": "dev",
				"methods": {},
				"version": 1
			},
			"evm": {
				"assembly": "    /* \"Dropsite.sol\":146:6894  contract Dropsite is ERC1155_Dropsite  { ... */\n  mstore(0x40, 0x80)\n    /* \"Dropsite.sol\":241:257  string  data =\"\" */\n  mload(0x40)\n  dup1\n  0x20\n  add\n  0x40\n  mstore\n  dup1\n  0x00\n  dup2\n  mstore\n  pop\n  0x02\n  swap1\n  dup1\n  mload\n  swap1\n  0x20\n  add\n  swap1\n  tag_1\n  swap3\n  swap2\n  swap1\n  tag_2\n  jump\t// in\ntag_1:\n  pop\n    /* \"Dropsite.sol\":440:506  uint8[20] private nums = [0,1,1,2,2,2,2,2,2,2,2,2,2,2,2,2,2,2,2,2] */\n  mload(0x40)\n  dup1\n  0x0280\n  add\n  0x40\n  mstore\n  dup1\n    /* \"Dropsite.sol\":466:467  0 */\n  0x00\n    /* \"Dropsite.sol\":440:506  uint8[20] private nums = [0,1,1,2,2,2,2,2,2,2,2,2,2,2,2,2,2,2,2,2] */\n  0xff\n  and\n  dup2\n  mstore\n  0x20\n  add\n    /* \"Dropsite.sol\":468:469  1 */\n  0x01\n    /* \"Dropsite.sol\":440:506  uint8[20] private nums = [0,1,1,2,2,2,2,2,2,2,2,2,2,2,2,2,2,2,2,2] */\n  0xff\n  and\n  dup2\n  mstore\n  0x20\n  add\n    /* \"Dropsite.sol\":470:471  1 */\n  0x01\n    /* \"Dropsite.sol\":440:506  uint8[20] private nums = [0,1,1,2,2,2,2,2,2,2,2,2,2,2,2,2,2,2,2,2] */\n  0xff\n  and\n  dup2\n  mstore\n  0x20\n  add\n    /* \"Dropsite.sol\":472:473  2 */\n  0x02\n    /* \"Dropsite.sol\":440:506  uint8[20] private nums = [0,1,1,2,2,2,2,2,2,2,2,2,2,2,2,2,2,2,2,2] */\n  0xff\n  and\n  dup2\n  mstore\n  0x20\n  add\n    /* \"Dropsite.sol\":474:475  2 */\n  0x02\n    /* \"Dropsite.sol\":440:506  uint8[20] private nums = [0,1,1,2,2,2,2,2,2,2,2,2,2,2,2,2,2,2,2,2] */\n  0xff\n  and\n  dup2\n  mstore\n  0x20\n  add\n    /* \"Dropsite.sol\":476:477  2 */\n  0x02\n    /* \"Dropsite.sol\":440:506  uint8[20] private nums = [0,1,1,2,2,2,2,2,2,2,2,2,2,2,2,2,2,2,2,2] */\n  0xff\n  and\n  dup2\n  mstore\n  0x20\n  add\n    /* \"Dropsite.sol\":478:479  2 */\n  0x02\n    /* \"Dropsite.sol\":440:506  uint8[20] private nums = [0,1,1,2,2,2,2,2,2,2,2,2,2,2,2,2,2,2,2,2] */\n  0xff\n  and\n  dup2\n  mstore\n  0x20\n  add\n    /* \"Dropsite.sol\":480:481  2 */\n  0x02\n    /* \"Dropsite.sol\":440:506  uint8[20] private nums = [0,1,1,2,2,2,2,2,2,2,2,2,2,2,2,2,2,2,2,2] */\n  0xff\n  and\n  dup2\n  mstore\n  0x20\n  add\n    /* \"Dropsite.sol\":482:483  2 */\n  0x02\n    /* \"Dropsite.sol\":440:506  uint8[20] private nums = [0,1,1,2,2,2,2,2,2,2,2,2,2,2,2,2,2,2,2,2] */\n  0xff\n  and\n  dup2\n  mstore\n  0x20\n  add\n    /* \"Dropsite.sol\":484:485  2 */\n  0x02\n    /* \"Dropsite.sol\":440:506  uint8[20] private nums = [0,1,1,2,2,2,2,2,2,2,2,2,2,2,2,2,2,2,2,2] */\n  0xff\n  and\n  dup2\n  mstore\n  0x20\n  add\n    /* \"Dropsite.sol\":486:487  2 */\n  0x02\n    /* \"Dropsite.sol\":440:506  uint8[20] private nums = [0,1,1,2,2,2,2,2,2,2,2,2,2,2,2,2,2,2,2,2] */\n  0xff\n  and\n  dup2\n  mstore\n  0x20\n  add\n    /* \"Dropsite.sol\":488:489  2 */\n  0x02\n    /* \"Dropsite.sol\":440:506  uint8[20] private nums = [0,1,1,2,2,2,2,2,2,2,2,2,2,2,2,2,2,2,2,2] */\n  0xff\n  and\n  dup2\n  mstore\n  0x20\n  add\n    /* \"Dropsite.sol\":490:491  2 */\n  0x02\n    /* \"Dropsite.sol\":440:506  uint8[20] private nums = [0,1,1,2,2,2,2,2,2,2,2,2,2,2,2,2,2,2,2,2] */\n  0xff\n  and\n  dup2\n  mstore\n  0x20\n  add\n    /* \"Dropsite.sol\":492:493  2 */\n  0x02\n    /* \"Dropsite.sol\":440:506  uint8[20] private nums = [0,1,1,2,2,2,2,2,2,2,2,2,2,2,2,2,2,2,2,2] */\n  0xff\n  and\n  dup2\n  mstore\n  0x20\n  add\n    /* \"Dropsite.sol\":494:495  2 */\n  0x02\n    /* \"Dropsite.sol\":440:506  uint8[20] private nums = [0,1,1,2,2,2,2,2,2,2,2,2,2,2,2,2,2,2,2,2] */\n  0xff\n  and\n  dup2\n  mstore\n  0x20\n  add\n    /* \"Dropsite.sol\":496:497  2 */\n  0x02\n    /* \"Dropsite.sol\":440:506  uint8[20] private nums = [0,1,1,2,2,2,2,2,2,2,2,2,2,2,2,2,2,2,2,2] */\n  0xff\n  and\n  dup2\n  mstore\n  0x20\n  add\n    /* \"Dropsite.sol\":498:499  2 */\n  0x02\n    /* \"Dropsite.sol\":440:506  uint8[20] private nums = [0,1,1,2,2,2,2,2,2,2,2,2,2,2,2,2,2,2,2,2] */\n  0xff\n  and\n  dup2\n  mstore\n  0x20\n  add\n    /* \"Dropsite.sol\":500:501  2 */\n  0x02\n    /* \"Dropsite.sol\":440:506  uint8[20] private nums = [0,1,1,2,2,2,2,2,2,2,2,2,2,2,2,2,2,2,2,2] */\n  0xff\n  and\n  dup2\n  mstore\n  0x20\n  add\n    /* \"Dropsite.sol\":502:503  2 */\n  0x02\n    /* \"Dropsite.sol\":440:506  uint8[20] private nums = [0,1,1,2,2,2,2,2,2,2,2,2,2,2,2,2,2,2,2,2] */\n  0xff\n  and\n  dup2\n  mstore\n  0x20\n  add\n    /* \"Dropsite.sol\":504:505  2 */\n  0x02\n    /* \"Dropsite.sol\":440:506  uint8[20] private nums = [0,1,1,2,2,2,2,2,2,2,2,2,2,2,2,2,2,2,2,2] */\n  0xff\n  and\n  dup2\n  mstore\n  pop\n  0x03\n  swap1\n  0x14\n  tag_3\n  swap3\n  swap2\n  swap1\n  tag_4\n  jump\t// in\ntag_3:\n  pop\n    /* \"Dropsite.sol\":1276:1280  true */\n  0x01\n    /* \"Dropsite.sol\":1253:1280  bool public IsPaused = true */\n  0x0c\n  exp(0x0100, 0x00)\n  dup2\n  sload\n  dup2\n  0xff\n  mul\n  not\n  and\n  swap1\n  dup4\n  iszero\n  iszero\n  mul\n  or\n  swap1\n  sstore\n  pop\n    /* \"Dropsite.sol\":1347:1622  constructor (string memory name){... */\n  callvalue\n  dup1\n  iszero\n  tag_5\n  jumpi\n  0x00\n  dup1\n  revert\ntag_5:\n  pop\n  mload(0x40)\n  sub(codesize, bytecodeSize)\n  dup1\n  bytecodeSize\n  dup4\n  codecopy\n  dup2\n  dup2\n  add\n  0x40\n  mstore\n  dup2\n  add\n  swap1\n  tag_6\n  swap2\n  swap1\n  tag_7\n  jump\t// in\ntag_6:\n    /* \"Dropsite.sol\":1397:1401  name */\n  dup1\n    /* \"Dropsite.sol\":1389:1394  _name */\n  0x0d\n    /* \"Dropsite.sol\":1389:1401  _name = name */\n  swap1\n  dup1\n  mload\n  swap1\n  0x20\n  add\n  swap1\n  tag_10\n  swap3\n  swap2\n  swap1\n  tag_2\n  jump\t// in\ntag_10:\n  pop\n    /* \"Dropsite.sol\":1427:1437  msg.sender */\n  caller\n    /* \"Dropsite.sol\":1411:1416  Owner */\n  0x0c\n  0x01\n    /* \"Dropsite.sol\":1411:1438  Owner = payable(msg.sender) */\n  0x0100\n  exp\n  dup2\n  sload\n  dup2\n  0xffffffffffffffffffffffffffffffffffffffff\n  mul\n  not\n  and\n  swap1\n  dup4\n  0xffffffffffffffffffffffffffffffffffffffff\n  and\n  mul\n  or\n  swap1\n  sstore\n  pop\n    /* \"Dropsite.sol\":1465:1466  0 */\n  0x00\n    /* \"Dropsite.sol\":1449:1464  TotalNFTsMinted */\n  0x04\n    /* \"Dropsite.sol\":1449:1466  TotalNFTsMinted=0 */\n  dup2\n  swap1\n  sstore\n  pop\n    /* \"Dropsite.sol\":1512:1513  1 */\n  0x01\n    /* \"Dropsite.sol\":1500:1511  numOfCopies */\n  0x05\n    /* \"Dropsite.sol\":1500:1513  numOfCopies=1 */\n  dup2\n  swap1\n  sstore\n  pop\n    /* \"Dropsite.sol\":1568:1569  0 */\n  0x00\n    /* \"Dropsite.sol\":1560:1567  Diamond */\n  0x07\n    /* \"Dropsite.sol\":1560:1569  Diamond=0 */\n  dup2\n  swap1\n  sstore\n  pop\n    /* \"Dropsite.sol\":1596:1597  0 */\n  0x00\n    /* \"Dropsite.sol\":1591:1595  Gold */\n  0x08\n    /* \"Dropsite.sol\":1591:1597  Gold=0 */\n  dup2\n  swap1\n  sstore\n  pop\n    /* \"Dropsite.sol\":1614:1615  0 */\n  0x00\n    /* \"Dropsite.sol\":1607:1613  Silver */\n  0x09\n    /* \"Dropsite.sol\":1607:1615  Silver=0 */\n  dup2\n  swap1\n  sstore\n  pop\n    /* \"Dropsite.sol\":1347:1622  constructor (string memory name){... */\n  pop\n    /* \"Dropsite.sol\":146:6894  contract Dropsite is ERC1155_Dropsite  { ... */\n  jump(tag_11)\ntag_2:\n  dup3\n  dup1\n  sload\n  tag_12\n  swap1\n  tag_13\n  jump\t// in\ntag_12:\n  swap1\n  0x00\n  mstore\n  keccak256(0x00, 0x20)\n  swap1\n  0x1f\n  add\n  0x20\n  swap1\n  div\n  dup2\n  add\n  swap3\n  dup3\n  tag_15\n  jumpi\n  0x00\n  dup6\n  sstore\n  jump(tag_14)\ntag_15:\n  dup3\n  0x1f\n  lt\n  tag_16\n  jumpi\n  dup1\n  mload\n  not(0xff)\n  and\n  dup4\n  dup1\n  add\n  or\n  dup6\n  sstore\n  jump(tag_14)\ntag_16:\n  dup3\n  dup1\n  add\n  0x01\n  add\n  dup6\n  sstore\n  dup3\n  iszero\n  tag_14\n  jumpi\n  swap2\n  dup3\n  add\ntag_17:\n  dup3\n  dup2\n  gt\n  iszero\n  tag_18\n  jumpi\n  dup3\n  mload\n  dup3\n  sstore\n  swap2\n  0x20\n  add\n  swap2\n  swap1\n  0x01\n  add\n  swap1\n  jump(tag_17)\ntag_18:\ntag_14:\n  pop\n  swap1\n  pop\n  tag_19\n  swap2\n  swap1\n  tag_20\n  jump\t// in\ntag_19:\n  pop\n  swap1\n  jump\t// out\ntag_4:\n  dup3\n  add(0x1f, 0x14)\n  0x20\n  swap1\n  div\n  dup2\n  add\n  swap3\n  dup3\n  iszero\n  tag_21\n  jumpi\n  swap2\n  0x20\n  mul\n  dup3\n  add\n  0x00\ntag_22:\n  dup4\n  dup3\n  gt\n  iszero\n  tag_23\n  jumpi\n  dup4\n  mload\n  dup4\n  dup3\n  0x0100\n  exp\n  dup2\n  sload\n  dup2\n  0xff\n  mul\n  not\n  and\n  swap1\n  dup4\n  0xff\n  and\n  mul\n  or\n  swap1\n  sstore\n  pop\n  swap3\n  0x20\n  add\n  swap3\n  0x01\n  add\n  0x20\n  dup2\n  0x00\n  add\n  div\n  swap3\n  dup4\n  add\n  swap3\n  0x01\n  sub\n  mul\n  jump(tag_22)\ntag_23:\n  dup1\n  iszero\n  tag_24\n  jumpi\n  dup3\n  dup2\n  0x0100\n  exp\n  dup2\n  sload\n  swap1\n  0xff\n  mul\n  not\n  and\n  swap1\n  sstore\n  0x01\n  add\n  0x20\n  dup2\n  0x00\n  add\n  div\n  swap3\n  dup4\n  add\n  swap3\n  0x01\n  sub\n  mul\n  jump(tag_23)\ntag_24:\n  pop\ntag_21:\n  pop\n  swap1\n  pop\n  tag_25\n  swap2\n  swap1\n  tag_20\n  jump\t// in\ntag_25:\n  pop\n  swap1\n  jump\t// out\ntag_20:\ntag_26:\n  dup1\n  dup3\n  gt\n  iszero\n  tag_27\n  jumpi\n  0x00\n  dup2\n  0x00\n  swap1\n  sstore\n  pop\n  0x01\n  add\n  jump(tag_26)\ntag_27:\n  pop\n  swap1\n  jump\t// out\n    /* \"#utility.yul\":7:428   */\ntag_29:\n    /* \"#utility.yul\":96:101   */\n  0x00\n    /* \"#utility.yul\":121:187   */\n  tag_31\n    /* \"#utility.yul\":137:186   */\n  tag_32\n    /* \"#utility.yul\":179:185   */\n  dup5\n    /* \"#utility.yul\":137:186   */\n  tag_33\n  jump\t// in\ntag_32:\n    /* \"#utility.yul\":121:187   */\n  tag_34\n  jump\t// in\ntag_31:\n    /* \"#utility.yul\":112:187   */\n  swap1\n  pop\n    /* \"#utility.yul\":210:216   */\n  dup3\n    /* \"#utility.yul\":203:208   */\n  dup2\n    /* \"#utility.yul\":196:217   */\n  mstore\n    /* \"#utility.yul\":248:252   */\n  0x20\n    /* \"#utility.yul\":241:246   */\n  dup2\n    /* \"#utility.yul\":237:253   */\n  add\n    /* \"#utility.yul\":286:289   */\n  dup5\n    /* \"#utility.yul\":277:283   */\n  dup5\n    /* \"#utility.yul\":272:275   */\n  dup5\n    /* \"#utility.yul\":268:284   */\n  add\n    /* \"#utility.yul\":265:290   */\n  gt\n    /* \"#utility.yul\":262:374   */\n  iszero\n  tag_35\n  jumpi\n    /* \"#utility.yul\":293:372   */\n  tag_36\n  tag_37\n  jump\t// in\ntag_36:\n    /* \"#utility.yul\":262:374   */\ntag_35:\n    /* \"#utility.yul\":383:422   */\n  tag_38\n    /* \"#utility.yul\":415:421   */\n  dup5\n    /* \"#utility.yul\":410:413   */\n  dup3\n    /* \"#utility.yul\":405:408   */\n  dup6\n    /* \"#utility.yul\":383:422   */\n  tag_39\n  jump\t// in\ntag_38:\n    /* \"#utility.yul\":102:428   */\n  pop\n    /* \"#utility.yul\":7:428   */\n  swap4\n  swap3\n  pop\n  pop\n  pop\n  jump\t// out\n    /* \"#utility.yul\":448:803   */\ntag_40:\n    /* \"#utility.yul\":515:520   */\n  0x00\n    /* \"#utility.yul\":564:567   */\n  dup3\n    /* \"#utility.yul\":557:561   */\n  0x1f\n    /* \"#utility.yul\":549:555   */\n  dup4\n    /* \"#utility.yul\":545:562   */\n  add\n    /* \"#utility.yul\":541:568   */\n  slt\n    /* \"#utility.yul\":531:653   */\n  tag_42\n  jumpi\n    /* \"#utility.yul\":572:651   */\n  tag_43\n  tag_44\n  jump\t// in\ntag_43:\n    /* \"#utility.yul\":531:653   */\ntag_42:\n    /* \"#utility.yul\":682:688   */\n  dup2\n    /* \"#utility.yul\":676:689   */\n  mload\n    /* \"#utility.yul\":707:797   */\n  tag_45\n    /* \"#utility.yul\":793:796   */\n  dup5\n    /* \"#utility.yul\":785:791   */\n  dup3\n    /* \"#utility.yul\":778:782   */\n  0x20\n    /* \"#utility.yul\":770:776   */\n  dup7\n    /* \"#utility.yul\":766:783   */\n  add\n    /* \"#utility.yul\":707:797   */\n  tag_29\n  jump\t// in\ntag_45:\n    /* \"#utility.yul\":698:797   */\n  swap2\n  pop\n    /* \"#utility.yul\":521:803   */\n  pop\n    /* \"#utility.yul\":448:803   */\n  swap3\n  swap2\n  pop\n  pop\n  jump\t// out\n    /* \"#utility.yul\":809:1333   */\ntag_7:\n    /* \"#utility.yul\":889:895   */\n  0x00\n    /* \"#utility.yul\":938:940   */\n  0x20\n    /* \"#utility.yul\":926:935   */\n  dup3\n    /* \"#utility.yul\":917:924   */\n  dup5\n    /* \"#utility.yul\":913:936   */\n  sub\n    /* \"#utility.yul\":909:941   */\n  slt\n    /* \"#utility.yul\":906:1025   */\n  iszero\n  tag_47\n  jumpi\n    /* \"#utility.yul\":944:1023   */\n  tag_48\n  tag_49\n  jump\t// in\ntag_48:\n    /* \"#utility.yul\":906:1025   */\ntag_47:\n    /* \"#utility.yul\":1085:1086   */\n  0x00\n    /* \"#utility.yul\":1074:1083   */\n  dup3\n    /* \"#utility.yul\":1070:1087   */\n  add\n    /* \"#utility.yul\":1064:1088   */\n  mload\n    /* \"#utility.yul\":1115:1133   */\n  0xffffffffffffffff\n    /* \"#utility.yul\":1107:1113   */\n  dup2\n    /* \"#utility.yul\":1104:1134   */\n  gt\n    /* \"#utility.yul\":1101:1218   */\n  iszero\n  tag_50\n  jumpi\n    /* \"#utility.yul\":1137:1216   */\n  tag_51\n  tag_52\n  jump\t// in\ntag_51:\n    /* \"#utility.yul\":1101:1218   */\ntag_50:\n    /* \"#utility.yul\":1242:1316   */\n  tag_53\n    /* \"#utility.yul\":1308:1315   */\n  dup5\n    /* \"#utility.yul\":1299:1305   */\n  dup3\n    /* \"#utility.yul\":1288:1297   */\n  dup6\n    /* \"#utility.yul\":1284:1306   */\n  add\n    /* \"#utility.yul\":1242:1316   */\n  tag_40\n  jump\t// in\ntag_53:\n    /* \"#utility.yul\":1232:1316   */\n  swap2\n  pop\n    /* \"#utility.yul\":1035:1326   */\n  pop\n    /* \"#utility.yul\":809:1333   */\n  swap3\n  swap2\n  pop\n  pop\n  jump\t// out\n    /* \"#utility.yul\":1339:1468   */\ntag_34:\n    /* \"#utility.yul\":1373:1379   */\n  0x00\n    /* \"#utility.yul\":1400:1420   */\n  tag_55\n  tag_56\n  jump\t// in\ntag_55:\n    /* \"#utility.yul\":1390:1420   */\n  swap1\n  pop\n    /* \"#utility.yul\":1429:1462   */\n  tag_57\n    /* \"#utility.yul\":1457:1461   */\n  dup3\n    /* \"#utility.yul\":1449:1455   */\n  dup3\n    /* \"#utility.yul\":1429:1462   */\n  tag_58\n  jump\t// in\ntag_57:\n    /* \"#utility.yul\":1339:1468   */\n  swap2\n  swap1\n  pop\n  jump\t// out\n    /* \"#utility.yul\":1474:1549   */\ntag_56:\n    /* \"#utility.yul\":1507:1513   */\n  0x00\n    /* \"#utility.yul\":1540:1542   */\n  0x40\n    /* \"#utility.yul\":1534:1543   */\n  mload\n    /* \"#utility.yul\":1524:1543   */\n  swap1\n  pop\n    /* \"#utility.yul\":1474:1549   */\n  swap1\n  jump\t// out\n    /* \"#utility.yul\":1555:1863   */\ntag_33:\n    /* \"#utility.yul\":1617:1621   */\n  0x00\n    /* \"#utility.yul\":1707:1725   */\n  0xffffffffffffffff\n    /* \"#utility.yul\":1699:1705   */\n  dup3\n    /* \"#utility.yul\":1696:1726   */\n  gt\n    /* \"#utility.yul\":1693:1749   */\n  iszero\n  tag_61\n  jumpi\n    /* \"#utility.yul\":1729:1747   */\n  tag_62\n  tag_63\n  jump\t// in\ntag_62:\n    /* \"#utility.yul\":1693:1749   */\ntag_61:\n    /* \"#utility.yul\":1767:1796   */\n  tag_64\n    /* \"#utility.yul\":1789:1795   */\n  dup3\n    /* \"#utility.yul\":1767:1796   */\n  tag_65\n  jump\t// in\ntag_64:\n    /* \"#utility.yul\":1759:1796   */\n  swap1\n  pop\n    /* \"#utility.yul\":1851:1855   */\n  0x20\n    /* \"#utility.yul\":1845:1849   */\n  dup2\n    /* \"#utility.yul\":1841:1856   */\n  add\n    /* \"#utility.yul\":1833:1856   */\n  swap1\n  pop\n    /* \"#utility.yul\":1555:1863   */\n  swap2\n  swap1\n  pop\n  jump\t// out\n    /* \"#utility.yul\":1869:2176   */\ntag_39:\n    /* \"#utility.yul\":1937:1938   */\n  0x00\n    /* \"#utility.yul\":1947:2060   */\ntag_67:\n    /* \"#utility.yul\":1961:1967   */\n  dup4\n    /* \"#utility.yul\":1958:1959   */\n  dup2\n    /* \"#utility.yul\":1955:1968   */\n  lt\n    /* \"#utility.yul\":1947:2060   */\n  iszero\n  tag_69\n  jumpi\n    /* \"#utility.yul\":2046:2047   */\n  dup1\n    /* \"#utility.yul\":2041:2044   */\n  dup3\n    /* \"#utility.yul\":2037:2048   */\n  add\n    /* \"#utility.yul\":2031:2049   */\n  mload\n    /* \"#utility.yul\":2027:2028   */\n  dup2\n    /* \"#utility.yul\":2022:2025   */\n  dup5\n    /* \"#utility.yul\":2018:2029   */\n  add\n    /* \"#utility.yul\":2011:2050   */\n  mstore\n    /* \"#utility.yul\":1983:1985   */\n  0x20\n    /* \"#utility.yul\":1980:1981   */\n  dup2\n    /* \"#utility.yul\":1976:1986   */\n  add\n    /* \"#utility.yul\":1971:1986   */\n  swap1\n  pop\n    /* \"#utility.yul\":1947:2060   */\n  jump(tag_67)\ntag_69:\n    /* \"#utility.yul\":2078:2084   */\n  dup4\n    /* \"#utility.yul\":2075:2076   */\n  dup2\n    /* \"#utility.yul\":2072:2085   */\n  gt\n    /* \"#utility.yul\":2069:2170   */\n  iszero\n  tag_70\n  jumpi\n    /* \"#utility.yul\":2158:2159   */\n  0x00\n    /* \"#utility.yul\":2149:2155   */\n  dup5\n    /* \"#utility.yul\":2144:2147   */\n  dup5\n    /* \"#utility.yul\":2140:2156   */\n  add\n    /* \"#utility.yul\":2133:2160   */\n  mstore\n    /* \"#utility.yul\":2069:2170   */\ntag_70:\n    /* \"#utility.yul\":1918:2176   */\n  pop\n    /* \"#utility.yul\":1869:2176   */\n  pop\n  pop\n  pop\n  jump\t// out\n    /* \"#utility.yul\":2182:2502   */\ntag_13:\n    /* \"#utility.yul\":2226:2232   */\n  0x00\n    /* \"#utility.yul\":2263:2264   */\n  0x02\n    /* \"#utility.yul\":2257:2261   */\n  dup3\n    /* \"#utility.yul\":2253:2265   */\n  div\n    /* \"#utility.yul\":2243:2265   */\n  swap1\n  pop\n    /* \"#utility.yul\":2310:2311   */\n  0x01\n    /* \"#utility.yul\":2304:2308   */\n  dup3\n    /* \"#utility.yul\":2300:2312   */\n  and\n    /* \"#utility.yul\":2331:2349   */\n  dup1\n    /* \"#utility.yul\":2321:2402   */\n  tag_72\n  jumpi\n    /* \"#utility.yul\":2387:2391   */\n  0x7f\n    /* \"#utility.yul\":2379:2385   */\n  dup3\n    /* \"#utility.yul\":2375:2392   */\n  and\n    /* \"#utility.yul\":2365:2392   */\n  swap2\n  pop\n    /* \"#utility.yul\":2321:2402   */\ntag_72:\n    /* \"#utility.yul\":2449:2451   */\n  0x20\n    /* \"#utility.yul\":2441:2447   */\n  dup3\n    /* \"#utility.yul\":2438:2452   */\n  lt\n    /* \"#utility.yul\":2418:2436   */\n  dup2\n    /* \"#utility.yul\":2415:2453   */\n  eq\n    /* \"#utility.yul\":2412:2496   */\n  iszero\n  tag_73\n  jumpi\n    /* \"#utility.yul\":2468:2486   */\n  tag_74\n  tag_75\n  jump\t// in\ntag_74:\n    /* \"#utility.yul\":2412:2496   */\ntag_73:\n    /* \"#utility.yul\":2233:2502   */\n  pop\n    /* \"#utility.yul\":2182:2502   */\n  swap2\n  swap1\n  pop\n  jump\t// out\n    /* \"#utility.yul\":2508:2789   */\ntag_58:\n    /* \"#utility.yul\":2591:2618   */\n  tag_77\n    /* \"#utility.yul\":2613:2617   */\n  dup3\n    /* \"#utility.yul\":2591:2618   */\n  tag_65\n  jump\t// in\ntag_77:\n    /* \"#utility.yul\":2583:2589   */\n  dup2\n    /* \"#utility.yul\":2579:2619   */\n  add\n    /* \"#utility.yul\":2721:2727   */\n  dup2\n    /* \"#utility.yul\":2709:2719   */\n  dup2\n    /* \"#utility.yul\":2706:2728   */\n  lt\n    /* \"#utility.yul\":2685:2703   */\n  0xffffffffffffffff\n    /* \"#utility.yul\":2673:2683   */\n  dup3\n    /* \"#utility.yul\":2670:2704   */\n  gt\n    /* \"#utility.yul\":2667:2729   */\n  or\n    /* \"#utility.yul\":2664:2752   */\n  iszero\n  tag_78\n  jumpi\n    /* \"#utility.yul\":2732:2750   */\n  tag_79\n  tag_63\n  jump\t// in\ntag_79:\n    /* \"#utility.yul\":2664:2752   */\ntag_78:\n    /* \"#utility.yul\":2772:2782   */\n  dup1\n    /* \"#utility.yul\":2768:2770   */\n  0x40\n    /* \"#utility.yul\":2761:2783   */\n  mstore\n    /* \"#utility.yul\":2551:2789   */\n  pop\n    /* \"#utility.yul\":2508:2789   */\n  pop\n  pop\n  jump\t// out\n    /* \"#utility.yul\":2795:2975   */\ntag_75:\n    /* \"#utility.yul\":2843:2920   */\n  0x4e487b7100000000000000000000000000000000000000000000000000000000\n    /* \"#utility.yul\":2840:2841   */\n  0x00\n    /* \"#utility.yul\":2833:2921   */\n  mstore\n    /* \"#utility.yul\":2940:2944   */\n  0x22\n    /* \"#utility.yul\":2937:2938   */\n  0x04\n    /* \"#utility.yul\":2930:2945   */\n  mstore\n    /* \"#utility.yul\":2964:2968   */\n  0x24\n    /* \"#utility.yul\":2961:2962   */\n  0x00\n    /* \"#utility.yul\":2954:2969   */\n  revert\n    /* \"#utility.yul\":2981:3161   */\ntag_63:\n    /* \"#utility.yul\":3029:3106   */\n  0x4e487b7100000000000000000000000000000000000000000000000000000000\n    /* \"#utility.yul\":3026:3027   */\n  0x00\n    /* \"#utility.yul\":3019:3107   */\n  mstore\n    /* \"#utility.yul\":3126:3130   */\n  0x41\n    /* \"#utility.yul\":3123:3124   */\n  0x04\n    /* \"#utility.yul\":3116:3131   */\n  mstore\n    /* \"#utility.yul\":3150:3154   */\n  0x24\n    /* \"#utility.yul\":3147:3148   */\n  0x00\n    /* \"#utility.yul\":3140:3155   */\n  revert\n    /* \"#utility.yul\":3167:3284   */\ntag_44:\n    /* \"#utility.yul\":3276:3277   */\n  0x00\n    /* \"#utility.yul\":3273:3274   */\n  dup1\n    /* \"#utility.yul\":3266:3278   */\n  revert\n    /* \"#utility.yul\":3290:3407   */\ntag_37:\n    /* \"#utility.yul\":3399:3400   */\n  0x00\n    /* \"#utility.yul\":3396:3397   */\n  dup1\n    /* \"#utility.yul\":3389:3401   */\n  revert\n    /* \"#utility.yul\":3413:3530   */\ntag_52:\n    /* \"#utility.yul\":3522:3523   */\n  0x00\n    /* \"#utility.yul\":3519:3520   */\n  dup1\n    /* \"#utility.yul\":3512:3524   */\n  revert\n    /* \"#utility.yul\":3536:3653   */\ntag_49:\n    /* \"#utility.yul\":3645:3646   */\n  0x00\n    /* \"#utility.yul\":3642:3643   */\n  dup1\n    /* \"#utility.yul\":3635:3647   */\n  revert\n    /* \"#utility.yul\":3659:3761   */\ntag_65:\n    /* \"#utility.yul\":3700:3706   */\n  0x00\n    /* \"#utility.yul\":3751:3753   */\n  0x1f\n    /* \"#utility.yul\":3747:3754   */\n  not\n    /* \"#utility.yul\":3742:3744   */\n  0x1f\n    /* \"#utility.yul\":3735:3740   */\n  dup4\n    /* \"#utility.yul\":3731:3745   */\n  add\n    /* \"#utility.yul\":3727:3755   */\n  and\n    /* \"#utility.yul\":3717:3755   */\n  swap1\n  pop\n    /* \"#utility.yul\":3659:3761   */\n  swap2\n  swap1\n  pop\n  jump\t// out\n    /* \"Dropsite.sol\":146:6894  contract Dropsite is ERC1155_Dropsite  { ... */\ntag_11:\n  dataSize(sub_0)\n  dup1\n  dataOffset(sub_0)\n  0x00\n  codecopy\n  0x00\n  return\nstop\n\nsub_0: assembly {\n        /* \"Dropsite.sol\":146:6894  contract Dropsite is ERC1155_Dropsite  { ... */\n      mstore(0x40, 0x80)\n      jumpi(tag_1, lt(calldatasize, 0x04))\n      shr(0xe0, calldataload(0x00))\n      dup1\n      0x59ba3124\n      gt\n      tag_16\n      jumpi\n      dup1\n      0xaa90c726\n      gt\n      tag_17\n      jumpi\n      dup1\n      0xaa90c726\n      eq\n      tag_12\n      jumpi\n      dup1\n      0xb4a99a4e\n      eq\n      tag_13\n      jumpi\n      dup1\n      0xeddd0d9c\n      eq\n      tag_14\n      jumpi\n      dup1\n      0xfd6c3b1b\n      eq\n      tag_15\n      jumpi\n      jump(tag_1)\n    tag_17:\n      dup1\n      0x59ba3124\n      eq\n      tag_9\n      jumpi\n      dup1\n      0x60daa851\n      eq\n      tag_10\n      jumpi\n      dup1\n      0x7a5caab3\n      eq\n      tag_11\n      jumpi\n      jump(tag_1)\n    tag_16:\n      dup1\n      0x15460259\n      gt\n      tag_18\n      jumpi\n      dup1\n      0x15460259\n      eq\n      tag_5\n      jumpi\n      dup1\n      0x27a8a072\n      eq\n      tag_6\n      jumpi\n      dup1\n      0x3b668059\n      eq\n      tag_7\n      jumpi\n      dup1\n      0x546fd992\n      eq\n      tag_8\n      jumpi\n      jump(tag_1)\n    tag_18:\n      dup1\n      0x0390c11c\n      eq\n      tag_2\n      jumpi\n      dup1\n      0x0a67d2c7\n      eq\n      tag_3\n      jumpi\n      dup1\n      0x1309a563\n      eq\n      tag_4\n      jumpi\n    tag_1:\n      0x00\n      dup1\n      revert\n        /* \"Dropsite.sol\":2314:2418  function checkTotalMinted() public view OnlyOwner returns(uint){... */\n    tag_2:\n      callvalue\n      dup1\n      iszero\n      tag_19\n      jumpi\n      0x00\n      dup1\n      revert\n    tag_19:\n      pop\n      tag_20\n      tag_21\n      jump\t// in\n    tag_20:\n      mload(0x40)\n      tag_22\n      swap2\n      swap1\n      tag_23\n      jump\t// in\n    tag_22:\n      mload(0x40)\n      dup1\n      swap2\n      sub\n      swap1\n      return\n        /* \"Dropsite.sol\":2797:3011  function withDraw(address payable to) public payable OnlyOwner {... */\n    tag_3:\n      tag_24\n      0x04\n      dup1\n      calldatasize\n      sub\n      dup2\n      add\n      swap1\n      tag_25\n      swap2\n      swap1\n      tag_26\n      jump\t// in\n    tag_25:\n      tag_27\n      jump\t// in\n    tag_24:\n      stop\n        /* \"Dropsite.sol\":1253:1280  bool public IsPaused = true */\n    tag_4:\n      callvalue\n      dup1\n      iszero\n      tag_28\n      jumpi\n      0x00\n      dup1\n      revert\n    tag_28:\n      pop\n      tag_29\n      tag_30\n      jump\t// in\n    tag_29:\n      mload(0x40)\n      tag_31\n      swap2\n      swap1\n      tag_32\n      jump\t// in\n    tag_31:\n      mload(0x40)\n      dup1\n      swap2\n      sub\n      swap1\n      return\n        /* \"Dropsite.sol\":2566:2702  function openDropsite() public OnlyOwner {... */\n    tag_5:\n      callvalue\n      dup1\n      iszero\n      tag_33\n      jumpi\n      0x00\n      dup1\n      revert\n    tag_33:\n      pop\n      tag_34\n      tag_35\n      jump\t// in\n    tag_34:\n      stop\n        /* \"Dropsite.sol\":5730:6144  function FiatRandomMint(address user_addr, uint noOfMints) OnlyOwner contractIsNotPaused public  returns (uint[] memory) {... */\n    tag_6:\n      callvalue\n      dup1\n      iszero\n      tag_36\n      jumpi\n      0x00\n      dup1\n      revert\n    tag_36:\n      pop\n      tag_37\n      0x04\n      dup1\n      calldatasize\n      sub\n      dup2\n      add\n      swap1\n      tag_38\n      swap2\n      swap1\n      tag_39\n      jump\t// in\n    tag_38:\n      tag_40\n      jump\t// in\n    tag_37:\n      mload(0x40)\n      tag_41\n      swap2\n      swap1\n      tag_42\n      jump\t// in\n    tag_41:\n      mload(0x40)\n      dup1\n      swap2\n      sub\n      swap1\n      return\n        /* \"Dropsite.sol\":3064:3172  function ContractBalance() public view OnlyOwner returns (uint){... */\n    tag_7:\n      callvalue\n      dup1\n      iszero\n      tag_43\n      jumpi\n      0x00\n      dup1\n      revert\n    tag_43:\n      pop\n      tag_44\n      tag_45\n      jump\t// in\n    tag_44:\n      mload(0x40)\n      tag_46\n      swap2\n      swap1\n      tag_23\n      jump\t// in\n    tag_46:\n      mload(0x40)\n      dup1\n      swap2\n      sub\n      swap1\n      return\n        /* \"Dropsite.sol\":5248:5684  function randomMinting(address user_addr) OnlyOwner contractIsNotPaused public payable returns (uint,string memory) {... */\n    tag_8:\n      tag_47\n      0x04\n      dup1\n      calldatasize\n      sub\n      dup2\n      add\n      swap1\n      tag_48\n      swap2\n      swap1\n      tag_49\n      jump\t// in\n    tag_48:\n      tag_50\n      jump\t// in\n    tag_47:\n      mload(0x40)\n      tag_51\n      swap3\n      swap2\n      swap1\n      tag_52\n      jump\t// in\n    tag_51:\n      mload(0x40)\n      dup1\n      swap2\n      sub\n      swap1\n      return\n        /* \"Dropsite.sol\":6361:6892  function CryptoRandomMint(address user_addr, uint noOfMints)  contractIsNotPaused public payable returns (uint[] memory) {... */\n    tag_9:\n      tag_53\n      0x04\n      dup1\n      calldatasize\n      sub\n      dup2\n      add\n      swap1\n      tag_54\n      swap2\n      swap1\n      tag_39\n      jump\t// in\n    tag_54:\n      tag_55\n      jump\t// in\n    tag_53:\n      mload(0x40)\n      tag_56\n      swap2\n      swap1\n      tag_42\n      jump\t// in\n    tag_56:\n      mload(0x40)\n      dup1\n      swap2\n      sub\n      swap1\n      return\n        /* \"Dropsite.sol\":1889:2036  function checkMintedCategoryWise() public view OnlyOwner contractIsNotPaused returns(uint,uint,uint){... */\n    tag_10:\n      callvalue\n      dup1\n      iszero\n      tag_57\n      jumpi\n      0x00\n      dup1\n      revert\n    tag_57:\n      pop\n      tag_58\n      tag_59\n      jump\t// in\n    tag_58:\n      mload(0x40)\n      tag_60\n      swap4\n      swap3\n      swap2\n      swap1\n      tag_61\n      jump\t// in\n    tag_60:\n      mload(0x40)\n      dup1\n      swap2\n      sub\n      swap1\n      return\n        /* \"Dropsite.sol\":2158:2269  function getMintFee() public view OnlyOwner contractIsNotPaused returns (uint) {... */\n    tag_11:\n      callvalue\n      dup1\n      iszero\n      tag_62\n      jumpi\n      0x00\n      dup1\n      revert\n    tag_62:\n      pop\n      tag_63\n      tag_64\n      jump\t// in\n    tag_63:\n      mload(0x40)\n      tag_65\n      swap2\n      swap1\n      tag_23\n      jump\t// in\n    tag_65:\n      mload(0x40)\n      dup1\n      swap2\n      sub\n      swap1\n      return\n        /* \"Dropsite.sol\":2424:2559  function stopDropsite() public OnlyOwner{... */\n    tag_12:\n      callvalue\n      dup1\n      iszero\n      tag_66\n      jumpi\n      0x00\n      dup1\n      revert\n    tag_66:\n      pop\n      tag_67\n      tag_68\n      jump\t// in\n    tag_67:\n      stop\n        /* \"Dropsite.sol\":1286:1315  address payable public  Owner */\n    tag_13:\n      callvalue\n      dup1\n      iszero\n      tag_69\n      jumpi\n      0x00\n      dup1\n      revert\n    tag_69:\n      pop\n      tag_70\n      tag_71\n      jump\t// in\n    tag_70:\n      mload(0x40)\n      tag_72\n      swap2\n      swap1\n      tag_73\n      jump\t// in\n    tag_72:\n      mload(0x40)\n      dup1\n      swap2\n      sub\n      swap1\n      return\n        /* \"Dropsite.sol\":2042:2148  function setMintFee(uint _mintFee) public OnlyOwner contractIsNotPaused {... */\n    tag_14:\n      callvalue\n      dup1\n      iszero\n      tag_74\n      jumpi\n      0x00\n      dup1\n      revert\n    tag_74:\n      pop\n      tag_75\n      0x04\n      dup1\n      calldatasize\n      sub\n      dup2\n      add\n      swap1\n      tag_76\n      swap2\n      swap1\n      tag_77\n      jump\t// in\n    tag_76:\n      tag_78\n      jump\t// in\n    tag_75:\n      stop\n        /* \"Dropsite.sol\":1670:1829  function returnOwner(address addr) public view contractIsNotPaused returns  (uint[] memory){... */\n    tag_15:\n      callvalue\n      dup1\n      iszero\n      tag_79\n      jumpi\n      0x00\n      dup1\n      revert\n    tag_79:\n      pop\n      tag_80\n      0x04\n      dup1\n      calldatasize\n      sub\n      dup2\n      add\n      swap1\n      tag_81\n      swap2\n      swap1\n      tag_49\n      jump\t// in\n    tag_81:\n      tag_82\n      jump\t// in\n    tag_80:\n      mload(0x40)\n      tag_83\n      swap2\n      swap1\n      tag_42\n      jump\t// in\n    tag_83:\n      mload(0x40)\n      dup1\n      swap2\n      sub\n      swap1\n      return\n        /* \"Dropsite.sol\":2314:2418  function checkTotalMinted() public view OnlyOwner returns(uint){... */\n    tag_21:\n        /* \"Dropsite.sol\":2372:2376  uint */\n      0x00\n        /* \"Dropsite.sol\":1025:1030  Owner */\n      0x0c\n      0x01\n      swap1\n      sload\n      swap1\n      0x0100\n      exp\n      swap1\n      div\n      0xffffffffffffffffffffffffffffffffffffffff\n      and\n        /* \"Dropsite.sol\":1009:1030  _msgSender() == Owner */\n      0xffffffffffffffffffffffffffffffffffffffff\n      and\n        /* \"Dropsite.sol\":1009:1021  _msgSender() */\n      tag_85\n        /* \"Dropsite.sol\":1009:1019  _msgSender */\n      tag_86\n        /* \"Dropsite.sol\":1009:1021  _msgSender() */\n      jump\t// in\n    tag_85:\n        /* \"Dropsite.sol\":1009:1030  _msgSender() == Owner */\n      0xffffffffffffffffffffffffffffffffffffffff\n      and\n      eq\n        /* \"Dropsite.sol\":1001:1063  require(_msgSender() == Owner, \"Only NFT-ES Owner can Access\") */\n      tag_87\n      jumpi\n      mload(0x40)\n      0x08c379a000000000000000000000000000000000000000000000000000000000\n      dup2\n      mstore\n      0x04\n      add\n      tag_88\n      swap1\n      tag_89\n      jump\t// in\n    tag_88:\n      mload(0x40)\n      dup1\n      swap2\n      sub\n      swap1\n      revert\n    tag_87:\n        /* \"Dropsite.sol\":2395:2410  TotalNFTsMinted */\n      sload(0x04)\n        /* \"Dropsite.sol\":2388:2410  return TotalNFTsMinted */\n      swap1\n      pop\n        /* \"Dropsite.sol\":2314:2418  function checkTotalMinted() public view OnlyOwner returns(uint){... */\n      swap1\n      jump\t// out\n        /* \"Dropsite.sol\":2797:3011  function withDraw(address payable to) public payable OnlyOwner {... */\n    tag_27:\n        /* \"Dropsite.sol\":1025:1030  Owner */\n      0x0c\n      0x01\n      swap1\n      sload\n      swap1\n      0x0100\n      exp\n      swap1\n      div\n      0xffffffffffffffffffffffffffffffffffffffff\n      and\n        /* \"Dropsite.sol\":1009:1030  _msgSender() == Owner */\n      0xffffffffffffffffffffffffffffffffffffffff\n      and\n        /* \"Dropsite.sol\":1009:1021  _msgSender() */\n      tag_92\n        /* \"Dropsite.sol\":1009:1019  _msgSender */\n      tag_86\n        /* \"Dropsite.sol\":1009:1021  _msgSender() */\n      jump\t// in\n    tag_92:\n        /* \"Dropsite.sol\":1009:1030  _msgSender() == Owner */\n      0xffffffffffffffffffffffffffffffffffffffff\n      and\n      eq\n        /* \"Dropsite.sol\":1001:1063  require(_msgSender() == Owner, \"Only NFT-ES Owner can Access\") */\n      tag_93\n      jumpi\n      mload(0x40)\n      0x08c379a000000000000000000000000000000000000000000000000000000000\n      dup2\n      mstore\n      0x04\n      add\n      tag_94\n      swap1\n      tag_89\n      jump\t// in\n    tag_94:\n      mload(0x40)\n      dup1\n      swap2\n      sub\n      swap1\n      revert\n    tag_93:\n        /* \"Dropsite.sol\":2870:2882  uint Balance */\n      0x00\n        /* \"Dropsite.sol\":2885:2906  address(this).balance */\n      selfbalance\n        /* \"Dropsite.sol\":2870:2906  uint Balance = address(this).balance */\n      swap1\n      pop\n        /* \"Dropsite.sol\":2934:2939  0 wei */\n      0x00\n        /* \"Dropsite.sol\":2924:2931  Balance */\n      dup2\n        /* \"Dropsite.sol\":2924:2939  Balance > 0 wei */\n      gt\n        /* \"Dropsite.sol\":2916:2973  require(Balance > 0 wei, \"Error! No Balance to withdraw\") */\n      tag_96\n      jumpi\n      mload(0x40)\n      0x08c379a000000000000000000000000000000000000000000000000000000000\n      dup2\n      mstore\n      0x04\n      add\n      tag_97\n      swap1\n      tag_98\n      jump\t// in\n    tag_97:\n      mload(0x40)\n      dup1\n      swap2\n      sub\n      swap1\n      revert\n    tag_96:\n        /* \"Dropsite.sol\":2984:2986  to */\n      dup2\n        /* \"Dropsite.sol\":2984:2995  to.transfer */\n      0xffffffffffffffffffffffffffffffffffffffff\n      and\n        /* \"Dropsite.sol\":2984:3004  to.transfer(Balance) */\n      0x08fc\n        /* \"Dropsite.sol\":2996:3003  Balance */\n      dup3\n        /* \"Dropsite.sol\":2984:3004  to.transfer(Balance) */\n      swap1\n      dup2\n      iszero\n      mul\n      swap1\n      mload(0x40)\n      0x00\n      mload(0x40)\n      dup1\n      dup4\n      sub\n      dup2\n      dup6\n      dup9\n      dup9\n      call\n      swap4\n      pop\n      pop\n      pop\n      pop\n      iszero\n      dup1\n      iszero\n      tag_100\n      jumpi\n      returndatasize\n      0x00\n      dup1\n      returndatacopy\n      revert(0x00, returndatasize)\n    tag_100:\n      pop\n        /* \"Dropsite.sol\":2860:3011  {... */\n      pop\n        /* \"Dropsite.sol\":2797:3011  function withDraw(address payable to) public payable OnlyOwner {... */\n      pop\n      jump\t// out\n        /* \"Dropsite.sol\":1253:1280  bool public IsPaused = true */\n    tag_30:\n      0x0c\n      0x00\n      swap1\n      sload\n      swap1\n      0x0100\n      exp\n      swap1\n      div\n      0xff\n      and\n      dup2\n      jump\t// out\n        /* \"Dropsite.sol\":2566:2702  function openDropsite() public OnlyOwner {... */\n    tag_35:\n        /* \"Dropsite.sol\":1025:1030  Owner */\n      0x0c\n      0x01\n      swap1\n      sload\n      swap1\n      0x0100\n      exp\n      swap1\n      div\n      0xffffffffffffffffffffffffffffffffffffffff\n      and\n        /* \"Dropsite.sol\":1009:1030  _msgSender() == Owner */\n      0xffffffffffffffffffffffffffffffffffffffff\n      and\n        /* \"Dropsite.sol\":1009:1021  _msgSender() */\n      tag_102\n        /* \"Dropsite.sol\":1009:1019  _msgSender */\n      tag_86\n        /* \"Dropsite.sol\":1009:1021  _msgSender() */\n      jump\t// in\n    tag_102:\n        /* \"Dropsite.sol\":1009:1030  _msgSender() == Owner */\n      0xffffffffffffffffffffffffffffffffffffffff\n      and\n      eq\n        /* \"Dropsite.sol\":1001:1063  require(_msgSender() == Owner, \"Only NFT-ES Owner can Access\") */\n      tag_103\n      jumpi\n      mload(0x40)\n      0x08c379a000000000000000000000000000000000000000000000000000000000\n      dup2\n      mstore\n      0x04\n      add\n      tag_104\n      swap1\n      tag_89\n      jump\t// in\n    tag_104:\n      mload(0x40)\n      dup1\n      swap2\n      sub\n      swap1\n      revert\n    tag_103:\n        /* \"Dropsite.sol\":2635:2639  true */\n      0x01\n        /* \"Dropsite.sol\":2625:2639  IsPaused==true */\n      iszero\n      iszero\n        /* \"Dropsite.sol\":2625:2633  IsPaused */\n      0x0c\n      0x00\n      swap1\n      sload\n      swap1\n      0x0100\n      exp\n      swap1\n      div\n      0xff\n      and\n        /* \"Dropsite.sol\":2625:2639  IsPaused==true */\n      iszero\n      iszero\n      eq\n        /* \"Dropsite.sol\":2617:2671  require(IsPaused==true, \"Dropsite is already Running\") */\n      tag_106\n      jumpi\n      mload(0x40)\n      0x08c379a000000000000000000000000000000000000000000000000000000000\n      dup2\n      mstore\n      0x04\n      add\n      tag_107\n      swap1\n      tag_108\n      jump\t// in\n    tag_107:\n      mload(0x40)\n      dup1\n      swap2\n      sub\n      swap1\n      revert\n    tag_106:\n        /* \"Dropsite.sol\":2690:2695  false */\n      0x00\n        /* \"Dropsite.sol\":2681:2689  IsPaused */\n      0x0c\n      0x00\n        /* \"Dropsite.sol\":2681:2695  IsPaused=false */\n      0x0100\n      exp\n      dup2\n      sload\n      dup2\n      0xff\n      mul\n      not\n      and\n      swap1\n      dup4\n      iszero\n      iszero\n      mul\n      or\n      swap1\n      sstore\n      pop\n        /* \"Dropsite.sol\":2566:2702  function openDropsite() public OnlyOwner {... */\n      jump\t// out\n        /* \"Dropsite.sol\":5730:6144  function FiatRandomMint(address user_addr, uint noOfMints) OnlyOwner contractIsNotPaused public  returns (uint[] memory) {... */\n    tag_40:\n        /* \"Dropsite.sol\":5836:5849  uint[] memory */\n      0x60\n        /* \"Dropsite.sol\":1025:1030  Owner */\n      0x0c\n      0x01\n      swap1\n      sload\n      swap1\n      0x0100\n      exp\n      swap1\n      div\n      0xffffffffffffffffffffffffffffffffffffffff\n      and\n        /* \"Dropsite.sol\":1009:1030  _msgSender() == Owner */\n      0xffffffffffffffffffffffffffffffffffffffff\n      and\n        /* \"Dropsite.sol\":1009:1021  _msgSender() */\n      tag_110\n        /* \"Dropsite.sol\":1009:1019  _msgSender */\n      tag_86\n        /* \"Dropsite.sol\":1009:1021  _msgSender() */\n      jump\t// in\n    tag_110:\n        /* \"Dropsite.sol\":1009:1030  _msgSender() == Owner */\n      0xffffffffffffffffffffffffffffffffffffffff\n      and\n      eq\n        /* \"Dropsite.sol\":1001:1063  require(_msgSender() == Owner, \"Only NFT-ES Owner can Access\") */\n      tag_111\n      jumpi\n      mload(0x40)\n      0x08c379a000000000000000000000000000000000000000000000000000000000\n      dup2\n      mstore\n      0x04\n      add\n      tag_112\n      swap1\n      tag_89\n      jump\t// in\n    tag_112:\n      mload(0x40)\n      dup1\n      swap2\n      sub\n      swap1\n      revert\n    tag_111:\n        /* \"Dropsite.sol\":1190:1195  false */\n      0x00\n        /* \"Dropsite.sol\":1178:1195  IsPaused == false */\n      iszero\n      iszero\n        /* \"Dropsite.sol\":1178:1186  IsPaused */\n      0x0c\n      0x00\n      swap1\n      sload\n      swap1\n      0x0100\n      exp\n      swap1\n      div\n      0xff\n      and\n        /* \"Dropsite.sol\":1178:1195  IsPaused == false */\n      iszero\n      iszero\n      eq\n        /* \"Dropsite.sol\":1169:1228  require (IsPaused == false, \"Dropsite is not Opened Yet.\" ) */\n      tag_114\n      jumpi\n      mload(0x40)\n      0x08c379a000000000000000000000000000000000000000000000000000000000\n      dup2\n      mstore\n      0x04\n      add\n      tag_115\n      swap1\n      tag_116\n      jump\t// in\n    tag_115:\n      mload(0x40)\n      dup1\n      swap2\n      sub\n      swap1\n      revert\n    tag_114:\n        /* \"Dropsite.sol\":5876:5877  4 */\n      0x04\n        /* \"Dropsite.sol\":5866:5875  noOfMints */\n      dup3\n        /* \"Dropsite.sol\":5866:5877  noOfMints<4 */\n      lt\n        /* \"Dropsite.sol\":5866:5892  noOfMints<4 && noOfMints>0 */\n      dup1\n      iszero\n      tag_118\n      jumpi\n      pop\n        /* \"Dropsite.sol\":5891:5892  0 */\n      0x00\n        /* \"Dropsite.sol\":5881:5890  noOfMints */\n      dup3\n        /* \"Dropsite.sol\":5881:5892  noOfMints>0 */\n      gt\n        /* \"Dropsite.sol\":5866:5892  noOfMints<4 && noOfMints>0 */\n    tag_118:\n        /* \"Dropsite.sol\":5858:5917  require(noOfMints<4 && noOfMints>0,\"You can mint 1-3 NFTs\") */\n      tag_119\n      jumpi\n      mload(0x40)\n      0x08c379a000000000000000000000000000000000000000000000000000000000\n      dup2\n      mstore\n      0x04\n      add\n      tag_120\n      swap1\n      tag_121\n      jump\t// in\n    tag_120:\n      mload(0x40)\n      dup1\n      swap2\n      sub\n      swap1\n      revert\n    tag_119:\n        /* \"Dropsite.sol\":5950:5954  1000 */\n      0x03e8\n        /* \"Dropsite.sol\":5934:5949  TotalNFTsMinted */\n      sload(0x04)\n        /* \"Dropsite.sol\":5934:5954  TotalNFTsMinted<1000 */\n      lt\n        /* \"Dropsite.sol\":5926:5984  require(TotalNFTsMinted<1000, \"Max Minting Limit reached\") */\n      tag_122\n      jumpi\n      mload(0x40)\n      0x08c379a000000000000000000000000000000000000000000000000000000000\n      dup2\n      mstore\n      0x04\n      add\n      tag_123\n      swap1\n      tag_124\n      jump\t// in\n    tag_123:\n      mload(0x40)\n      dup1\n      swap2\n      sub\n      swap1\n      revert\n    tag_122:\n        /* \"Dropsite.sol\":5998:6004  uint i */\n      0x00\n        /* \"Dropsite.sol\":5994:6072  for(uint i=0;i<noOfMints;i++){... */\n    tag_125:\n        /* \"Dropsite.sol\":6009:6018  noOfMints */\n      dup3\n        /* \"Dropsite.sol\":6007:6008  i */\n      dup2\n        /* \"Dropsite.sol\":6007:6018  i<noOfMints */\n      lt\n        /* \"Dropsite.sol\":5994:6072  for(uint i=0;i<noOfMints;i++){... */\n      iszero\n      tag_126\n      jumpi\n        /* \"Dropsite.sol\":6037:6061  randomMinting(user_addr) */\n      tag_128\n        /* \"Dropsite.sol\":6051:6060  user_addr */\n      dup5\n        /* \"Dropsite.sol\":6037:6050  randomMinting */\n      tag_50\n        /* \"Dropsite.sol\":6037:6061  randomMinting(user_addr) */\n      jump\t// in\n    tag_128:\n      pop\n      pop\n        /* \"Dropsite.sol\":6019:6022  i++ */\n      dup1\n      dup1\n      tag_129\n      swap1\n      tag_130\n      jump\t// in\n    tag_129:\n      swap2\n      pop\n      pop\n        /* \"Dropsite.sol\":5994:6072  for(uint i=0;i<noOfMints;i++){... */\n      jump(tag_125)\n    tag_126:\n      pop\n        /* \"Dropsite.sol\":6088:6106  dropsite_NFT_Owner */\n      0x0a\n        /* \"Dropsite.sol\":6088:6117  dropsite_NFT_Owner[user_addr] */\n      0x00\n        /* \"Dropsite.sol\":6107:6116  user_addr */\n      dup5\n        /* \"Dropsite.sol\":6088:6117  dropsite_NFT_Owner[user_addr] */\n      0xffffffffffffffffffffffffffffffffffffffff\n      and\n      0xffffffffffffffffffffffffffffffffffffffff\n      and\n      dup2\n      mstore\n      0x20\n      add\n      swap1\n      dup2\n      mstore\n      0x20\n      add\n      0x00\n      keccak256\n        /* \"Dropsite.sol\":6088:6137  dropsite_NFT_Owner[user_addr].owned_Dropsite_NFTs */\n      0x00\n      add\n        /* \"Dropsite.sol\":6081:6137  return dropsite_NFT_Owner[user_addr].owned_Dropsite_NFTs */\n      dup1\n      sload\n      dup1\n      0x20\n      mul\n      0x20\n      add\n      mload(0x40)\n      swap1\n      dup2\n      add\n      0x40\n      mstore\n      dup1\n      swap3\n      swap2\n      swap1\n      dup2\n      dup2\n      mstore\n      0x20\n      add\n      dup3\n      dup1\n      sload\n      dup1\n      iszero\n      tag_131\n      jumpi\n      0x20\n      mul\n      dup3\n      add\n      swap2\n      swap1\n      0x00\n      mstore\n      keccak256(0x00, 0x20)\n      swap1\n    tag_132:\n      dup2\n      sload\n      dup2\n      mstore\n      0x20\n      add\n      swap1\n      0x01\n      add\n      swap1\n      dup1\n      dup4\n      gt\n      tag_132\n      jumpi\n    tag_131:\n      pop\n      pop\n      pop\n      pop\n      pop\n      swap1\n      pop\n        /* \"Dropsite.sol\":5730:6144  function FiatRandomMint(address user_addr, uint noOfMints) OnlyOwner contractIsNotPaused public  returns (uint[] memory) {... */\n      swap3\n      swap2\n      pop\n      pop\n      jump\t// out\n        /* \"Dropsite.sol\":3064:3172  function ContractBalance() public view OnlyOwner returns (uint){... */\n    tag_45:\n        /* \"Dropsite.sol\":3122:3126  uint */\n      0x00\n        /* \"Dropsite.sol\":1025:1030  Owner */\n      0x0c\n      0x01\n      swap1\n      sload\n      swap1\n      0x0100\n      exp\n      swap1\n      div\n      0xffffffffffffffffffffffffffffffffffffffff\n      and\n        /* \"Dropsite.sol\":1009:1030  _msgSender() == Owner */\n      0xffffffffffffffffffffffffffffffffffffffff\n      and\n        /* \"Dropsite.sol\":1009:1021  _msgSender() */\n      tag_134\n        /* \"Dropsite.sol\":1009:1019  _msgSender */\n      tag_86\n        /* \"Dropsite.sol\":1009:1021  _msgSender() */\n      jump\t// in\n    tag_134:\n        /* \"Dropsite.sol\":1009:1030  _msgSender() == Owner */\n      0xffffffffffffffffffffffffffffffffffffffff\n      and\n      eq\n        /* \"Dropsite.sol\":1001:1063  require(_msgSender() == Owner, \"Only NFT-ES Owner can Access\") */\n      tag_135\n      jumpi\n      mload(0x40)\n      0x08c379a000000000000000000000000000000000000000000000000000000000\n      dup2\n      mstore\n      0x04\n      add\n      tag_136\n      swap1\n      tag_89\n      jump\t// in\n    tag_136:\n      mload(0x40)\n      dup1\n      swap2\n      sub\n      swap1\n      revert\n    tag_135:\n        /* \"Dropsite.sol\":3144:3165  address(this).balance */\n      selfbalance\n        /* \"Dropsite.sol\":3137:3165  return address(this).balance */\n      swap1\n      pop\n        /* \"Dropsite.sol\":3064:3172  function ContractBalance() public view OnlyOwner returns (uint){... */\n      swap1\n      jump\t// out\n        /* \"Dropsite.sol\":5248:5684  function randomMinting(address user_addr) OnlyOwner contractIsNotPaused public payable returns (uint,string memory) {... */\n    tag_50:\n        /* \"Dropsite.sol\":5344:5348  uint */\n      0x00\n        /* \"Dropsite.sol\":5349:5362  string memory */\n      0x60\n        /* \"Dropsite.sol\":1025:1030  Owner */\n      0x0c\n      0x01\n      swap1\n      sload\n      swap1\n      0x0100\n      exp\n      swap1\n      div\n      0xffffffffffffffffffffffffffffffffffffffff\n      and\n        /* \"Dropsite.sol\":1009:1030  _msgSender() == Owner */\n      0xffffffffffffffffffffffffffffffffffffffff\n      and\n        /* \"Dropsite.sol\":1009:1021  _msgSender() */\n      tag_139\n        /* \"Dropsite.sol\":1009:1019  _msgSender */\n      tag_86\n        /* \"Dropsite.sol\":1009:1021  _msgSender() */\n      jump\t// in\n    tag_139:\n        /* \"Dropsite.sol\":1009:1030  _msgSender() == Owner */\n      0xffffffffffffffffffffffffffffffffffffffff\n      and\n      eq\n        /* \"Dropsite.sol\":1001:1063  require(_msgSender() == Owner, \"Only NFT-ES Owner can Access\") */\n      tag_140\n      jumpi\n      mload(0x40)\n      0x08c379a000000000000000000000000000000000000000000000000000000000\n      dup2\n      mstore\n      0x04\n      add\n      tag_141\n      swap1\n      tag_89\n      jump\t// in\n    tag_141:\n      mload(0x40)\n      dup1\n      swap2\n      sub\n      swap1\n      revert\n    tag_140:\n        /* \"Dropsite.sol\":1190:1195  false */\n      0x00\n        /* \"Dropsite.sol\":1178:1195  IsPaused == false */\n      iszero\n      iszero\n        /* \"Dropsite.sol\":1178:1186  IsPaused */\n      0x0c\n      0x00\n      swap1\n      sload\n      swap1\n      0x0100\n      exp\n      swap1\n      div\n      0xff\n      and\n        /* \"Dropsite.sol\":1178:1195  IsPaused == false */\n      iszero\n      iszero\n      eq\n        /* \"Dropsite.sol\":1169:1228  require (IsPaused == false, \"Dropsite is not Opened Yet.\" ) */\n      tag_143\n      jumpi\n      mload(0x40)\n      0x08c379a000000000000000000000000000000000000000000000000000000000\n      dup2\n      mstore\n      0x04\n      add\n      tag_144\n      swap1\n      tag_116\n      jump\t// in\n    tag_144:\n      mload(0x40)\n      dup1\n      swap2\n      sub\n      swap1\n      revert\n    tag_143:\n        /* \"Dropsite.sol\":5447:5457  uint index */\n      0x00\n        /* \"Dropsite.sol\":5460:5468  random() */\n      tag_146\n        /* \"Dropsite.sol\":5460:5466  random */\n      tag_147\n        /* \"Dropsite.sol\":5460:5468  random() */\n      jump\t// in\n    tag_146:\n        /* \"Dropsite.sol\":5447:5468  uint index = random() */\n      swap1\n      pop\n        /* \"Dropsite.sol\":5474:5484  uint nftId */\n      0x00\n        /* \"Dropsite.sol\":5487:5510  updateConditions(index) */\n      tag_148\n        /* \"Dropsite.sol\":5504:5509  index */\n      dup3\n        /* \"Dropsite.sol\":5487:5503  updateConditions */\n      tag_149\n        /* \"Dropsite.sol\":5487:5510  updateConditions(index) */\n      jump\t// in\n    tag_148:\n        /* \"Dropsite.sol\":5474:5510  uint nftId = updateConditions(index) */\n      swap1\n      pop\n        /* \"Dropsite.sol\":5516:5558  _mint(user_addr, nftId, numOfCopies, data) */\n      tag_150\n        /* \"Dropsite.sol\":5522:5531  user_addr */\n      dup6\n        /* \"Dropsite.sol\":5533:5538  nftId */\n      dup3\n        /* \"Dropsite.sol\":5540:5551  numOfCopies */\n      sload(0x05)\n        /* \"Dropsite.sol\":5553:5557  data */\n      0x02\n        /* \"Dropsite.sol\":5516:5558  _mint(user_addr, nftId, numOfCopies, data) */\n      dup1\n      sload\n      tag_151\n      swap1\n      tag_152\n      jump\t// in\n    tag_151:\n      dup1\n      0x1f\n      add\n      0x20\n      dup1\n      swap2\n      div\n      mul\n      0x20\n      add\n      mload(0x40)\n      swap1\n      dup2\n      add\n      0x40\n      mstore\n      dup1\n      swap3\n      swap2\n      swap1\n      dup2\n      dup2\n      mstore\n      0x20\n      add\n      dup3\n      dup1\n      sload\n      tag_153\n      swap1\n      tag_152\n      jump\t// in\n    tag_153:\n      dup1\n      iszero\n      tag_154\n      jumpi\n      dup1\n      0x1f\n      lt\n      tag_155\n      jumpi\n      0x0100\n      dup1\n      dup4\n      sload\n      div\n      mul\n      dup4\n      mstore\n      swap2\n      0x20\n      add\n      swap2\n      jump(tag_154)\n    tag_155:\n      dup3\n      add\n      swap2\n      swap1\n      0x00\n      mstore\n      keccak256(0x00, 0x20)\n      swap1\n    tag_156:\n      dup2\n      sload\n      dup2\n      mstore\n      swap1\n      0x01\n      add\n      swap1\n      0x20\n      add\n      dup1\n      dup4\n      gt\n      tag_156\n      jumpi\n      dup3\n      swap1\n      sub\n      0x1f\n      and\n      dup3\n      add\n      swap2\n    tag_154:\n      pop\n      pop\n      pop\n      pop\n      pop\n        /* \"Dropsite.sol\":5516:5521  _mint */\n      tag_157\n        /* \"Dropsite.sol\":5516:5558  _mint(user_addr, nftId, numOfCopies, data) */\n      jump\t// in\n    tag_150:\n        /* \"Dropsite.sol\":5564:5579  TotalNFTsMinted */\n      0x04\n      0x00\n        /* \"Dropsite.sol\":5564:5581  TotalNFTsMinted++ */\n      dup2\n      sload\n      dup1\n      swap3\n      swap2\n      swap1\n      tag_158\n      swap1\n      tag_130\n      jump\t// in\n    tag_158:\n      swap2\n      swap1\n      pop\n      sstore\n      pop\n        /* \"Dropsite.sol\":5587:5605  dropsite_NFT_Owner */\n      0x0a\n        /* \"Dropsite.sol\":5587:5616  dropsite_NFT_Owner[user_addr] */\n      0x00\n        /* \"Dropsite.sol\":5606:5615  user_addr */\n      dup7\n        /* \"Dropsite.sol\":5587:5616  dropsite_NFT_Owner[user_addr] */\n      0xffffffffffffffffffffffffffffffffffffffff\n      and\n      0xffffffffffffffffffffffffffffffffffffffff\n      and\n      dup2\n      mstore\n      0x20\n      add\n      swap1\n      dup2\n      mstore\n      0x20\n      add\n      0x00\n      keccak256\n        /* \"Dropsite.sol\":5587:5636  dropsite_NFT_Owner[user_addr].owned_Dropsite_NFTs */\n      0x00\n      add\n        /* \"Dropsite.sol\":5642:5647  nftId */\n      dup2\n        /* \"Dropsite.sol\":5587:5648  dropsite_NFT_Owner[user_addr].owned_Dropsite_NFTs.push(nftId) */\n      swap1\n      dup1\n      0x01\n      dup2\n      sload\n      add\n      dup1\n      dup3\n      sstore\n      dup1\n      swap2\n      pop\n      pop\n      0x01\n      swap1\n      sub\n      swap1\n      0x00\n      mstore\n      keccak256(0x00, 0x20)\n      add\n      0x00\n      swap1\n      swap2\n      swap1\n      swap2\n      swap1\n      swap2\n      pop\n      sstore\n        /* \"Dropsite.sol\":5662:5667  nftId */\n      dup1\n        /* \"Dropsite.sol\":5675:5679  data */\n      0x02\n        /* \"Dropsite.sol\":5654:5681  return (nftId,string(data)) */\n      dup1\n      dup1\n      sload\n      tag_160\n      swap1\n      tag_152\n      jump\t// in\n    tag_160:\n      dup1\n      0x1f\n      add\n      0x20\n      dup1\n      swap2\n      div\n      mul\n      0x20\n      add\n      mload(0x40)\n      swap1\n      dup2\n      add\n      0x40\n      mstore\n      dup1\n      swap3\n      swap2\n      swap1\n      dup2\n      dup2\n      mstore\n      0x20\n      add\n      dup3\n      dup1\n      sload\n      tag_161\n      swap1\n      tag_152\n      jump\t// in\n    tag_161:\n      dup1\n      iszero\n      tag_162\n      jumpi\n      dup1\n      0x1f\n      lt\n      tag_163\n      jumpi\n      0x0100\n      dup1\n      dup4\n      sload\n      div\n      mul\n      dup4\n      mstore\n      swap2\n      0x20\n      add\n      swap2\n      jump(tag_162)\n    tag_163:\n      dup3\n      add\n      swap2\n      swap1\n      0x00\n      mstore\n      keccak256(0x00, 0x20)\n      swap1\n    tag_164:\n      dup2\n      sload\n      dup2\n      mstore\n      swap1\n      0x01\n      add\n      swap1\n      0x20\n      add\n      dup1\n      dup4\n      gt\n      tag_164\n      jumpi\n      dup3\n      swap1\n      sub\n      0x1f\n      and\n      dup3\n      add\n      swap2\n    tag_162:\n      pop\n      pop\n      pop\n      pop\n      pop\n      swap1\n      pop\n      swap4\n      pop\n      swap4\n      pop\n      pop\n      pop\n        /* \"Dropsite.sol\":5248:5684  function randomMinting(address user_addr) OnlyOwner contractIsNotPaused public payable returns (uint,string memory) {... */\n      swap2\n      pop\n      swap2\n      jump\t// out\n        /* \"Dropsite.sol\":6361:6892  function CryptoRandomMint(address user_addr, uint noOfMints)  contractIsNotPaused public payable returns (uint[] memory) {... */\n    tag_55:\n        /* \"Dropsite.sol\":6467:6480  uint[] memory */\n      0x60\n        /* \"Dropsite.sol\":1190:1195  false */\n      0x00\n        /* \"Dropsite.sol\":1178:1195  IsPaused == false */\n      iszero\n      iszero\n        /* \"Dropsite.sol\":1178:1186  IsPaused */\n      0x0c\n      0x00\n      swap1\n      sload\n      swap1\n      0x0100\n      exp\n      swap1\n      div\n      0xff\n      and\n        /* \"Dropsite.sol\":1178:1195  IsPaused == false */\n      iszero\n      iszero\n      eq\n        /* \"Dropsite.sol\":1169:1228  require (IsPaused == false, \"Dropsite is not Opened Yet.\" ) */\n      tag_166\n      jumpi\n      mload(0x40)\n      0x08c379a000000000000000000000000000000000000000000000000000000000\n      dup2\n      mstore\n      0x04\n      add\n      tag_167\n      swap1\n      tag_116\n      jump\t// in\n    tag_167:\n      mload(0x40)\n      dup1\n      swap2\n      sub\n      swap1\n      revert\n    tag_166:\n        /* \"Dropsite.sol\":6507:6508  4 */\n      0x04\n        /* \"Dropsite.sol\":6497:6506  noOfMints */\n      dup3\n        /* \"Dropsite.sol\":6497:6508  noOfMints<4 */\n      lt\n        /* \"Dropsite.sol\":6497:6523  noOfMints<4 && noOfMints>0 */\n      dup1\n      iszero\n      tag_169\n      jumpi\n      pop\n        /* \"Dropsite.sol\":6522:6523  0 */\n      0x00\n        /* \"Dropsite.sol\":6512:6521  noOfMints */\n      dup3\n        /* \"Dropsite.sol\":6512:6523  noOfMints>0 */\n      gt\n        /* \"Dropsite.sol\":6497:6523  noOfMints<4 && noOfMints>0 */\n    tag_169:\n        /* \"Dropsite.sol\":6489:6548  require(noOfMints<4 && noOfMints>0,\"You can mint 1-3 NFTs\") */\n      tag_170\n      jumpi\n      mload(0x40)\n      0x08c379a000000000000000000000000000000000000000000000000000000000\n      dup2\n      mstore\n      0x04\n      add\n      tag_171\n      swap1\n      tag_121\n      jump\t// in\n    tag_171:\n      mload(0x40)\n      dup1\n      swap2\n      sub\n      swap1\n      revert\n    tag_170:\n        /* \"Dropsite.sol\":6579:6583  1000 */\n      0x03e8\n        /* \"Dropsite.sol\":6563:6578  TotalNFTsMinted */\n      sload(0x04)\n        /* \"Dropsite.sol\":6563:6583  TotalNFTsMinted<1000 */\n      lt\n        /* \"Dropsite.sol\":6555:6613  require(TotalNFTsMinted<1000, \"Max Minting Limit reached\") */\n      tag_172\n      jumpi\n      mload(0x40)\n      0x08c379a000000000000000000000000000000000000000000000000000000000\n      dup2\n      mstore\n      0x04\n      add\n      tag_173\n      swap1\n      tag_124\n      jump\t// in\n    tag_173:\n      mload(0x40)\n      dup1\n      swap2\n      sub\n      swap1\n      revert\n    tag_172:\n        /* \"Dropsite.sol\":6650:6659  noOfMints */\n      dup2\n        /* \"Dropsite.sol\":6641:6649  mintFees */\n      sload(0x06)\n        /* \"Dropsite.sol\":6641:6659  mintFees*noOfMints */\n      tag_174\n      swap2\n      swap1\n      tag_175\n      jump\t// in\n    tag_174:\n        /* \"Dropsite.sol\":6628:6637  msg.value */\n      callvalue\n        /* \"Dropsite.sol\":6628:6659  msg.value == mintFees*noOfMints */\n      eq\n        /* \"Dropsite.sol\":6620:6682  require(msg.value == mintFees*noOfMints, \"Not Enough Balance\") */\n      tag_176\n      jumpi\n      mload(0x40)\n      0x08c379a000000000000000000000000000000000000000000000000000000000\n      dup2\n      mstore\n      0x04\n      add\n      tag_177\n      swap1\n      tag_178\n      jump\t// in\n    tag_177:\n      mload(0x40)\n      dup1\n      swap2\n      sub\n      swap1\n      revert\n    tag_176:\n        /* \"Dropsite.sol\":6696:6702  uint i */\n      0x00\n        /* \"Dropsite.sol\":6692:6770  for(uint i=0;i<noOfMints;++i){... */\n    tag_179:\n        /* \"Dropsite.sol\":6707:6716  noOfMints */\n      dup3\n        /* \"Dropsite.sol\":6705:6706  i */\n      dup2\n        /* \"Dropsite.sol\":6705:6716  i<noOfMints */\n      lt\n        /* \"Dropsite.sol\":6692:6770  for(uint i=0;i<noOfMints;++i){... */\n      iszero\n      tag_180\n      jumpi\n        /* \"Dropsite.sol\":6735:6759  randomMinting(user_addr) */\n      tag_182\n        /* \"Dropsite.sol\":6749:6758  user_addr */\n      dup5\n        /* \"Dropsite.sol\":6735:6748  randomMinting */\n      tag_50\n        /* \"Dropsite.sol\":6735:6759  randomMinting(user_addr) */\n      jump\t// in\n    tag_182:\n      pop\n      pop\n        /* \"Dropsite.sol\":6717:6720  ++i */\n      dup1\n      tag_183\n      swap1\n      tag_130\n      jump\t// in\n    tag_183:\n      swap1\n      pop\n        /* \"Dropsite.sol\":6692:6770  for(uint i=0;i<noOfMints;++i){... */\n      jump(tag_179)\n    tag_180:\n      pop\n        /* \"Dropsite.sol\":6779:6817  depositAmount(_msgSender(), msg.value) */\n      tag_184\n        /* \"Dropsite.sol\":6793:6805  _msgSender() */\n      tag_185\n        /* \"Dropsite.sol\":6793:6803  _msgSender */\n      tag_86\n        /* \"Dropsite.sol\":6793:6805  _msgSender() */\n      jump\t// in\n    tag_185:\n        /* \"Dropsite.sol\":6807:6816  msg.value */\n      callvalue\n        /* \"Dropsite.sol\":6779:6792  depositAmount */\n      tag_186\n        /* \"Dropsite.sol\":6779:6817  depositAmount(_msgSender(), msg.value) */\n      jump\t// in\n    tag_184:\n        /* \"Dropsite.sol\":6834:6852  dropsite_NFT_Owner */\n      0x0a\n        /* \"Dropsite.sol\":6834:6863  dropsite_NFT_Owner[user_addr] */\n      0x00\n        /* \"Dropsite.sol\":6853:6862  user_addr */\n      dup5\n        /* \"Dropsite.sol\":6834:6863  dropsite_NFT_Owner[user_addr] */\n      0xffffffffffffffffffffffffffffffffffffffff\n      and\n      0xffffffffffffffffffffffffffffffffffffffff\n      and\n      dup2\n      mstore\n      0x20\n      add\n      swap1\n      dup2\n      mstore\n      0x20\n      add\n      0x00\n      keccak256\n        /* \"Dropsite.sol\":6834:6883  dropsite_NFT_Owner[user_addr].owned_Dropsite_NFTs */\n      0x00\n      add\n        /* \"Dropsite.sol\":6827:6883  return dropsite_NFT_Owner[user_addr].owned_Dropsite_NFTs */\n      dup1\n      sload\n      dup1\n      0x20\n      mul\n      0x20\n      add\n      mload(0x40)\n      swap1\n      dup2\n      add\n      0x40\n      mstore\n      dup1\n      swap3\n      swap2\n      swap1\n      dup2\n      dup2\n      mstore\n      0x20\n      add\n      dup3\n      dup1\n      sload\n      dup1\n      iszero\n      tag_187\n      jumpi\n      0x20\n      mul\n      dup3\n      add\n      swap2\n      swap1\n      0x00\n      mstore\n      keccak256(0x00, 0x20)\n      swap1\n    tag_188:\n      dup2\n      sload\n      dup2\n      mstore\n      0x20\n      add\n      swap1\n      0x01\n      add\n      swap1\n      dup1\n      dup4\n      gt\n      tag_188\n      jumpi\n    tag_187:\n      pop\n      pop\n      pop\n      pop\n      pop\n      swap1\n      pop\n        /* \"Dropsite.sol\":6361:6892  function CryptoRandomMint(address user_addr, uint noOfMints)  contractIsNotPaused public payable returns (uint[] memory) {... */\n      swap3\n      swap2\n      pop\n      pop\n      jump\t// out\n        /* \"Dropsite.sol\":1889:2036  function checkMintedCategoryWise() public view OnlyOwner contractIsNotPaused returns(uint,uint,uint){... */\n    tag_59:\n        /* \"Dropsite.sol\":1974:1978  uint */\n      0x00\n        /* \"Dropsite.sol\":1979:1983  uint */\n      dup1\n        /* \"Dropsite.sol\":1984:1988  uint */\n      0x00\n        /* \"Dropsite.sol\":1025:1030  Owner */\n      0x0c\n      0x01\n      swap1\n      sload\n      swap1\n      0x0100\n      exp\n      swap1\n      div\n      0xffffffffffffffffffffffffffffffffffffffff\n      and\n        /* \"Dropsite.sol\":1009:1030  _msgSender() == Owner */\n      0xffffffffffffffffffffffffffffffffffffffff\n      and\n        /* \"Dropsite.sol\":1009:1021  _msgSender() */\n      tag_190\n        /* \"Dropsite.sol\":1009:1019  _msgSender */\n      tag_86\n        /* \"Dropsite.sol\":1009:1021  _msgSender() */\n      jump\t// in\n    tag_190:\n        /* \"Dropsite.sol\":1009:1030  _msgSender() == Owner */\n      0xffffffffffffffffffffffffffffffffffffffff\n      and\n      eq\n        /* \"Dropsite.sol\":1001:1063  require(_msgSender() == Owner, \"Only NFT-ES Owner can Access\") */\n      tag_191\n      jumpi\n      mload(0x40)\n      0x08c379a000000000000000000000000000000000000000000000000000000000\n      dup2\n      mstore\n      0x04\n      add\n      tag_192\n      swap1\n      tag_89\n      jump\t// in\n    tag_192:\n      mload(0x40)\n      dup1\n      swap2\n      sub\n      swap1\n      revert\n    tag_191:\n        /* \"Dropsite.sol\":1190:1195  false */\n      0x00\n        /* \"Dropsite.sol\":1178:1195  IsPaused == false */\n      iszero\n      iszero\n        /* \"Dropsite.sol\":1178:1186  IsPaused */\n      0x0c\n      0x00\n      swap1\n      sload\n      swap1\n      0x0100\n      exp\n      swap1\n      div\n      0xff\n      and\n        /* \"Dropsite.sol\":1178:1195  IsPaused == false */\n      iszero\n      iszero\n      eq\n        /* \"Dropsite.sol\":1169:1228  require (IsPaused == false, \"Dropsite is not Opened Yet.\" ) */\n      tag_194\n      jumpi\n      mload(0x40)\n      0x08c379a000000000000000000000000000000000000000000000000000000000\n      dup2\n      mstore\n      0x04\n      add\n      tag_195\n      swap1\n      tag_116\n      jump\t// in\n    tag_195:\n      mload(0x40)\n      dup1\n      swap2\n      sub\n      swap1\n      revert\n    tag_194:\n        /* \"Dropsite.sol\":2008:2015  Diamond */\n      sload(0x07)\n        /* \"Dropsite.sol\":2016:2020  Gold */\n      sload(0x08)\n        /* \"Dropsite.sol\":2021:2027  Silver */\n      sload(0x09)\n        /* \"Dropsite.sol\":2000:2028  return (Diamond,Gold,Silver) */\n      swap3\n      pop\n      swap3\n      pop\n      swap3\n      pop\n        /* \"Dropsite.sol\":1889:2036  function checkMintedCategoryWise() public view OnlyOwner contractIsNotPaused returns(uint,uint,uint){... */\n      swap1\n      swap2\n      swap3\n      jump\t// out\n        /* \"Dropsite.sol\":2158:2269  function getMintFee() public view OnlyOwner contractIsNotPaused returns (uint) {... */\n    tag_64:\n        /* \"Dropsite.sol\":2231:2235  uint */\n      0x00\n        /* \"Dropsite.sol\":1025:1030  Owner */\n      0x0c\n      0x01\n      swap1\n      sload\n      swap1\n      0x0100\n      exp\n      swap1\n      div\n      0xffffffffffffffffffffffffffffffffffffffff\n      and\n        /* \"Dropsite.sol\":1009:1030  _msgSender() == Owner */\n      0xffffffffffffffffffffffffffffffffffffffff\n      and\n        /* \"Dropsite.sol\":1009:1021  _msgSender() */\n      tag_198\n        /* \"Dropsite.sol\":1009:1019  _msgSender */\n      tag_86\n        /* \"Dropsite.sol\":1009:1021  _msgSender() */\n      jump\t// in\n    tag_198:\n        /* \"Dropsite.sol\":1009:1030  _msgSender() == Owner */\n      0xffffffffffffffffffffffffffffffffffffffff\n      and\n      eq\n        /* \"Dropsite.sol\":1001:1063  require(_msgSender() == Owner, \"Only NFT-ES Owner can Access\") */\n      tag_199\n      jumpi\n      mload(0x40)\n      0x08c379a000000000000000000000000000000000000000000000000000000000\n      dup2\n      mstore\n      0x04\n      add\n      tag_200\n      swap1\n      tag_89\n      jump\t// in\n    tag_200:\n      mload(0x40)\n      dup1\n      swap2\n      sub\n      swap1\n      revert\n    tag_199:\n        /* \"Dropsite.sol\":1190:1195  false */\n      0x00\n        /* \"Dropsite.sol\":1178:1195  IsPaused == false */\n      iszero\n      iszero\n        /* \"Dropsite.sol\":1178:1186  IsPaused */\n      0x0c\n      0x00\n      swap1\n      sload\n      swap1\n      0x0100\n      exp\n      swap1\n      div\n      0xff\n      and\n        /* \"Dropsite.sol\":1178:1195  IsPaused == false */\n      iszero\n      iszero\n      eq\n        /* \"Dropsite.sol\":1169:1228  require (IsPaused == false, \"Dropsite is not Opened Yet.\" ) */\n      tag_202\n      jumpi\n      mload(0x40)\n      0x08c379a000000000000000000000000000000000000000000000000000000000\n      dup2\n      mstore\n      0x04\n      add\n      tag_203\n      swap1\n      tag_116\n      jump\t// in\n    tag_203:\n      mload(0x40)\n      dup1\n      swap2\n      sub\n      swap1\n      revert\n    tag_202:\n        /* \"Dropsite.sol\":2254:2262  mintFees */\n      sload(0x06)\n        /* \"Dropsite.sol\":2247:2262  return mintFees */\n      swap1\n      pop\n        /* \"Dropsite.sol\":2158:2269  function getMintFee() public view OnlyOwner contractIsNotPaused returns (uint) {... */\n      swap1\n      jump\t// out\n        /* \"Dropsite.sol\":2424:2559  function stopDropsite() public OnlyOwner{... */\n    tag_68:\n        /* \"Dropsite.sol\":1025:1030  Owner */\n      0x0c\n      0x01\n      swap1\n      sload\n      swap1\n      0x0100\n      exp\n      swap1\n      div\n      0xffffffffffffffffffffffffffffffffffffffff\n      and\n        /* \"Dropsite.sol\":1009:1030  _msgSender() == Owner */\n      0xffffffffffffffffffffffffffffffffffffffff\n      and\n        /* \"Dropsite.sol\":1009:1021  _msgSender() */\n      tag_206\n        /* \"Dropsite.sol\":1009:1019  _msgSender */\n      tag_86\n        /* \"Dropsite.sol\":1009:1021  _msgSender() */\n      jump\t// in\n    tag_206:\n        /* \"Dropsite.sol\":1009:1030  _msgSender() == Owner */\n      0xffffffffffffffffffffffffffffffffffffffff\n      and\n      eq\n        /* \"Dropsite.sol\":1001:1063  require(_msgSender() == Owner, \"Only NFT-ES Owner can Access\") */\n      tag_207\n      jumpi\n      mload(0x40)\n      0x08c379a000000000000000000000000000000000000000000000000000000000\n      dup2\n      mstore\n      0x04\n      add\n      tag_208\n      swap1\n      tag_89\n      jump\t// in\n    tag_208:\n      mload(0x40)\n      dup1\n      swap2\n      sub\n      swap1\n      revert\n    tag_207:\n        /* \"Dropsite.sol\":2492:2497  false */\n      0x00\n        /* \"Dropsite.sol\":2482:2497  IsPaused==false */\n      iszero\n      iszero\n        /* \"Dropsite.sol\":2482:2490  IsPaused */\n      0x0c\n      0x00\n      swap1\n      sload\n      swap1\n      0x0100\n      exp\n      swap1\n      div\n      0xff\n      and\n        /* \"Dropsite.sol\":2482:2497  IsPaused==false */\n      iszero\n      iszero\n      eq\n        /* \"Dropsite.sol\":2474:2529  require(IsPaused==false, \"Dropsite is already Stopped\") */\n      tag_210\n      jumpi\n      mload(0x40)\n      0x08c379a000000000000000000000000000000000000000000000000000000000\n      dup2\n      mstore\n      0x04\n      add\n      tag_211\n      swap1\n      tag_212\n      jump\t// in\n    tag_211:\n      mload(0x40)\n      dup1\n      swap2\n      sub\n      swap1\n      revert\n    tag_210:\n        /* \"Dropsite.sol\":2548:2552  true */\n      0x01\n        /* \"Dropsite.sol\":2539:2547  IsPaused */\n      0x0c\n      0x00\n        /* \"Dropsite.sol\":2539:2552  IsPaused=true */\n      0x0100\n      exp\n      dup2\n      sload\n      dup2\n      0xff\n      mul\n      not\n      and\n      swap1\n      dup4\n      iszero\n      iszero\n      mul\n      or\n      swap1\n      sstore\n      pop\n        /* \"Dropsite.sol\":2424:2559  function stopDropsite() public OnlyOwner{... */\n      jump\t// out\n        /* \"Dropsite.sol\":1286:1315  address payable public  Owner */\n    tag_71:\n      0x0c\n      0x01\n      swap1\n      sload\n      swap1\n      0x0100\n      exp\n      swap1\n      div\n      0xffffffffffffffffffffffffffffffffffffffff\n      and\n      dup2\n      jump\t// out\n        /* \"Dropsite.sol\":2042:2148  function setMintFee(uint _mintFee) public OnlyOwner contractIsNotPaused {... */\n    tag_78:\n        /* \"Dropsite.sol\":1025:1030  Owner */\n      0x0c\n      0x01\n      swap1\n      sload\n      swap1\n      0x0100\n      exp\n      swap1\n      div\n      0xffffffffffffffffffffffffffffffffffffffff\n      and\n        /* \"Dropsite.sol\":1009:1030  _msgSender() == Owner */\n      0xffffffffffffffffffffffffffffffffffffffff\n      and\n        /* \"Dropsite.sol\":1009:1021  _msgSender() */\n      tag_214\n        /* \"Dropsite.sol\":1009:1019  _msgSender */\n      tag_86\n        /* \"Dropsite.sol\":1009:1021  _msgSender() */\n      jump\t// in\n    tag_214:\n        /* \"Dropsite.sol\":1009:1030  _msgSender() == Owner */\n      0xffffffffffffffffffffffffffffffffffffffff\n      and\n      eq\n        /* \"Dropsite.sol\":1001:1063  require(_msgSender() == Owner, \"Only NFT-ES Owner can Access\") */\n      tag_215\n      jumpi\n      mload(0x40)\n      0x08c379a000000000000000000000000000000000000000000000000000000000\n      dup2\n      mstore\n      0x04\n      add\n      tag_216\n      swap1\n      tag_89\n      jump\t// in\n    tag_216:\n      mload(0x40)\n      dup1\n      swap2\n      sub\n      swap1\n      revert\n    tag_215:\n        /* \"Dropsite.sol\":1190:1195  false */\n      0x00\n        /* \"Dropsite.sol\":1178:1195  IsPaused == false */\n      iszero\n      iszero\n        /* \"Dropsite.sol\":1178:1186  IsPaused */\n      0x0c\n      0x00\n      swap1\n      sload\n      swap1\n      0x0100\n      exp\n      swap1\n      div\n      0xff\n      and\n        /* \"Dropsite.sol\":1178:1195  IsPaused == false */\n      iszero\n      iszero\n      eq\n        /* \"Dropsite.sol\":1169:1228  require (IsPaused == false, \"Dropsite is not Opened Yet.\" ) */\n      tag_218\n      jumpi\n      mload(0x40)\n      0x08c379a000000000000000000000000000000000000000000000000000000000\n      dup2\n      mstore\n      0x04\n      add\n      tag_219\n      swap1\n      tag_116\n      jump\t// in\n    tag_219:\n      mload(0x40)\n      dup1\n      swap2\n      sub\n      swap1\n      revert\n    tag_218:\n        /* \"Dropsite.sol\":2133:2141  _mintFee */\n      dup1\n        /* \"Dropsite.sol\":2124:2132  mintFees */\n      0x06\n        /* \"Dropsite.sol\":2124:2141  mintFees=_mintFee */\n      dup2\n      swap1\n      sstore\n      pop\n        /* \"Dropsite.sol\":2042:2148  function setMintFee(uint _mintFee) public OnlyOwner contractIsNotPaused {... */\n      pop\n      jump\t// out\n        /* \"Dropsite.sol\":1670:1829  function returnOwner(address addr) public view contractIsNotPaused returns  (uint[] memory){... */\n    tag_82:\n        /* \"Dropsite.sol\":1747:1760  uint[] memory */\n      0x60\n        /* \"Dropsite.sol\":1190:1195  false */\n      0x00\n        /* \"Dropsite.sol\":1178:1195  IsPaused == false */\n      iszero\n      iszero\n        /* \"Dropsite.sol\":1178:1186  IsPaused */\n      0x0c\n      0x00\n      swap1\n      sload\n      swap1\n      0x0100\n      exp\n      swap1\n      div\n      0xff\n      and\n        /* \"Dropsite.sol\":1178:1195  IsPaused == false */\n      iszero\n      iszero\n      eq\n        /* \"Dropsite.sol\":1169:1228  require (IsPaused == false, \"Dropsite is not Opened Yet.\" ) */\n      tag_222\n      jumpi\n      mload(0x40)\n      0x08c379a000000000000000000000000000000000000000000000000000000000\n      dup2\n      mstore\n      0x04\n      add\n      tag_223\n      swap1\n      tag_116\n      jump\t// in\n    tag_223:\n      mload(0x40)\n      dup1\n      swap2\n      sub\n      swap1\n      revert\n    tag_222:\n        /* \"Dropsite.sol\":1778:1796  dropsite_NFT_Owner */\n      0x0a\n        /* \"Dropsite.sol\":1778:1802  dropsite_NFT_Owner[addr] */\n      0x00\n        /* \"Dropsite.sol\":1797:1801  addr */\n      dup4\n        /* \"Dropsite.sol\":1778:1802  dropsite_NFT_Owner[addr] */\n      0xffffffffffffffffffffffffffffffffffffffff\n      and\n      0xffffffffffffffffffffffffffffffffffffffff\n      and\n      dup2\n      mstore\n      0x20\n      add\n      swap1\n      dup2\n      mstore\n      0x20\n      add\n      0x00\n      keccak256\n        /* \"Dropsite.sol\":1778:1822  dropsite_NFT_Owner[addr].owned_Dropsite_NFTs */\n      0x00\n      add\n        /* \"Dropsite.sol\":1771:1822  return dropsite_NFT_Owner[addr].owned_Dropsite_NFTs */\n      dup1\n      sload\n      dup1\n      0x20\n      mul\n      0x20\n      add\n      mload(0x40)\n      swap1\n      dup2\n      add\n      0x40\n      mstore\n      dup1\n      swap3\n      swap2\n      swap1\n      dup2\n      dup2\n      mstore\n      0x20\n      add\n      dup3\n      dup1\n      sload\n      dup1\n      iszero\n      tag_225\n      jumpi\n      0x20\n      mul\n      dup3\n      add\n      swap2\n      swap1\n      0x00\n      mstore\n      keccak256(0x00, 0x20)\n      swap1\n    tag_226:\n      dup2\n      sload\n      dup2\n      mstore\n      0x20\n      add\n      swap1\n      0x01\n      add\n      swap1\n      dup1\n      dup4\n      gt\n      tag_226\n      jumpi\n    tag_225:\n      pop\n      pop\n      pop\n      pop\n      pop\n      swap1\n      pop\n        /* \"Dropsite.sol\":1670:1829  function returnOwner(address addr) public view contractIsNotPaused returns  (uint[] memory){... */\n      swap2\n      swap1\n      pop\n      jump\t// out\n        /* \"Context.sol\":640:736  function _msgSender() internal view virtual returns (address) {... */\n    tag_86:\n        /* \"Context.sol\":693:700  address */\n      0x00\n        /* \"Context.sol\":719:729  msg.sender */\n      caller\n        /* \"Context.sol\":712:729  return msg.sender */\n      swap1\n      pop\n        /* \"Context.sol\":640:736  function _msgSender() internal view virtual returns (address) {... */\n      swap1\n      jump\t// out\n        /* \"Dropsite.sol\":3283:3479  function random() internal view returns (uint) {... */\n    tag_147:\n        /* \"Dropsite.sol\":3324:3328  uint */\n      0x00\n        /* \"Dropsite.sol\":3360:3377  uint randomnumber */\n      dup1\n        /* \"Dropsite.sol\":3445:3447  20 */\n      0x14\n        /* \"Dropsite.sol\":3412:3427  block.timestamp */\n      timestamp\n        /* \"Dropsite.sol\":3429:3439  msg.sender */\n      caller\n        /* \"Dropsite.sol\":3395:3440  abi.encodePacked(block.timestamp, msg.sender) */\n      add(0x20, mload(0x40))\n      tag_229\n      swap3\n      swap2\n      swap1\n      tag_230\n      jump\t// in\n    tag_229:\n      mload(0x40)\n      0x20\n      dup2\n      dup4\n      sub\n      sub\n      dup2\n      mstore\n      swap1\n      0x40\n      mstore\n        /* \"Dropsite.sol\":3385:3441  keccak256(abi.encodePacked(block.timestamp, msg.sender)) */\n      dup1\n      mload\n      swap1\n      0x20\n      add\n      keccak256\n        /* \"Dropsite.sol\":3380:3442  uint(keccak256(abi.encodePacked(block.timestamp, msg.sender))) */\n      0x00\n      shr\n        /* \"Dropsite.sol\":3380:3447  uint(keccak256(abi.encodePacked(block.timestamp, msg.sender))) % 20 */\n      tag_231\n      swap2\n      swap1\n      tag_232\n      jump\t// in\n    tag_231:\n        /* \"Dropsite.sol\":3360:3447  uint randomnumber = uint(keccak256(abi.encodePacked(block.timestamp, msg.sender))) % 20 */\n      swap1\n      pop\n        /* \"Dropsite.sol\":3460:3472  randomnumber */\n      dup1\n        /* \"Dropsite.sol\":3453:3472  return randomnumber */\n      swap2\n      pop\n      pop\n        /* \"Dropsite.sol\":3283:3479  function random() internal view returns (uint) {... */\n      swap1\n      jump\t// out\n        /* \"Dropsite.sol\":3664:5246  function updateConditions(uint index) internal contractIsNotPaused returns(uint) {... */\n    tag_149:\n        /* \"Dropsite.sol\":3739:3743  uint */\n      0x00\n        /* \"Dropsite.sol\":1190:1195  false */\n      dup1\n        /* \"Dropsite.sol\":1178:1195  IsPaused == false */\n      iszero\n      iszero\n        /* \"Dropsite.sol\":1178:1186  IsPaused */\n      0x0c\n      0x00\n      swap1\n      sload\n      swap1\n      0x0100\n      exp\n      swap1\n      div\n      0xff\n      and\n        /* \"Dropsite.sol\":1178:1195  IsPaused == false */\n      iszero\n      iszero\n      eq\n        /* \"Dropsite.sol\":1169:1228  require (IsPaused == false, \"Dropsite is not Opened Yet.\" ) */\n      tag_234\n      jumpi\n      mload(0x40)\n      0x08c379a000000000000000000000000000000000000000000000000000000000\n      dup2\n      mstore\n      0x04\n      add\n      tag_235\n      swap1\n      tag_116\n      jump\t// in\n    tag_235:\n      mload(0x40)\n      dup1\n      swap2\n      sub\n      swap1\n      revert\n    tag_234:\n        /* \"Dropsite.sol\":3755:3765  uint nftId */\n      0x00\n        /* \"Dropsite.sol\":3768:3772  nums */\n      0x03\n        /* \"Dropsite.sol\":3773:3778  index */\n      dup4\n        /* \"Dropsite.sol\":3768:3779  nums[index] */\n      0x14\n      dup2\n      lt\n      tag_237\n      jumpi\n      tag_238\n      tag_239\n      jump\t// in\n    tag_238:\n    tag_237:\n      0x20\n      swap2\n      dup3\n      dup3\n      div\n      add\n      swap2\n      swap1\n      mod\n      swap1\n      sload\n      swap1\n      0x0100\n      exp\n      swap1\n      div\n      0xff\n      and\n        /* \"Dropsite.sol\":3755:3779  uint nftId = nums[index] */\n      0xff\n      and\n      swap1\n      pop\n        /* \"Dropsite.sol\":3885:3886  0 */\n      0x00\n        /* \"Dropsite.sol\":3876:3881  nftId */\n      dup2\n        /* \"Dropsite.sol\":3876:3886  nftId == 0 */\n      eq\n        /* \"Dropsite.sol\":3876:3902  nftId == 0 && Diamond < 50 */\n      dup1\n      iszero\n      tag_241\n      jumpi\n      pop\n        /* \"Dropsite.sol\":3900:3902  50 */\n      0x32\n        /* \"Dropsite.sol\":3890:3897  Diamond */\n      sload(0x07)\n        /* \"Dropsite.sol\":3890:3902  Diamond < 50 */\n      lt\n        /* \"Dropsite.sol\":3876:3902  nftId == 0 && Diamond < 50 */\n    tag_241:\n        /* \"Dropsite.sol\":3873:5241  if(nftId == 0 && Diamond < 50) {... */\n      iszero\n      tag_242\n      jumpi\n        /* \"Dropsite.sol\":3919:3926  Diamond */\n      0x07\n      0x00\n        /* \"Dropsite.sol\":3919:3928  Diamond++ */\n      dup2\n      sload\n      dup1\n      swap3\n      swap2\n      swap1\n      tag_243\n      swap1\n      tag_130\n      jump\t// in\n    tag_243:\n      swap2\n      swap1\n      pop\n      sstore\n      pop\n        /* \"Dropsite.sol\":3984:4009  Strings.toString(Diamond) */\n      tag_244\n        /* \"Dropsite.sol\":4001:4008  Diamond */\n      sload(0x07)\n        /* \"Dropsite.sol\":3984:4000  Strings.toString */\n      tag_245\n        /* \"Dropsite.sol\":3984:4009  Strings.toString(Diamond) */\n      jump\t// in\n    tag_244:\n        /* \"Dropsite.sol\":3956:4010  abi.encodePacked(\"Diamond_\",Strings.toString(Diamond)) */\n      add(0x20, mload(0x40))\n      tag_246\n      swap2\n      swap1\n      tag_247\n      jump\t// in\n    tag_246:\n      mload(0x40)\n      0x20\n      dup2\n      dup4\n      sub\n      sub\n      dup2\n      mstore\n      swap1\n      0x40\n      mstore\n        /* \"Dropsite.sol\":3942:3946  data */\n      0x02\n        /* \"Dropsite.sol\":3942:4011  data = string(abi.encodePacked(\"Diamond_\",Strings.toString(Diamond))) */\n      swap1\n      dup1\n      mload\n      swap1\n      0x20\n      add\n      swap1\n      tag_248\n      swap3\n      swap2\n      swap1\n      tag_249\n      jump\t// in\n    tag_248:\n      pop\n        /* \"Dropsite.sol\":4045:4050  nftId */\n      dup1\n        /* \"Dropsite.sol\":4038:4050  return nftId */\n      swap2\n      pop\n      pop\n      jump(tag_236)\n        /* \"Dropsite.sol\":3873:5241  if(nftId == 0 && Diamond < 50) {... */\n    tag_242:\n        /* \"Dropsite.sol\":4174:4175  1 */\n      0x01\n        /* \"Dropsite.sol\":4165:4170  nftId */\n      dup2\n        /* \"Dropsite.sol\":4165:4175  nftId <= 1 */\n      gt\n      iszero\n        /* \"Dropsite.sol\":4165:4189  nftId <= 1 && Gold < 100 */\n      dup1\n      iszero\n      tag_251\n      jumpi\n      pop\n        /* \"Dropsite.sol\":4186:4189  100 */\n      0x64\n        /* \"Dropsite.sol\":4179:4183  Gold */\n      sload(0x08)\n        /* \"Dropsite.sol\":4179:4189  Gold < 100 */\n      lt\n        /* \"Dropsite.sol\":4165:4189  nftId <= 1 && Gold < 100 */\n    tag_251:\n        /* \"Dropsite.sol\":4162:5241  if(nftId <= 1 && Gold < 100) {... */\n      iszero\n      tag_252\n      jumpi\n        /* \"Dropsite.sol\":4205:4209  Gold */\n      0x08\n      0x00\n        /* \"Dropsite.sol\":4205:4211  Gold++ */\n      dup2\n      sload\n      dup1\n      swap3\n      swap2\n      swap1\n      tag_253\n      swap1\n      tag_130\n      jump\t// in\n    tag_253:\n      swap2\n      swap1\n      pop\n      sstore\n      pop\n        /* \"Dropsite.sol\":4264:4286  Strings.toString(Gold) */\n      tag_254\n        /* \"Dropsite.sol\":4281:4285  Gold */\n      sload(0x08)\n        /* \"Dropsite.sol\":4264:4280  Strings.toString */\n      tag_245\n        /* \"Dropsite.sol\":4264:4286  Strings.toString(Gold) */\n      jump\t// in\n    tag_254:\n        /* \"Dropsite.sol\":4239:4287  abi.encodePacked(\"Gold_\",Strings.toString(Gold)) */\n      add(0x20, mload(0x40))\n      tag_255\n      swap2\n      swap1\n      tag_256\n      jump\t// in\n    tag_255:\n      mload(0x40)\n      0x20\n      dup2\n      dup4\n      sub\n      sub\n      dup2\n      mstore\n      swap1\n      0x40\n      mstore\n        /* \"Dropsite.sol\":4225:4229  data */\n      0x02\n        /* \"Dropsite.sol\":4225:4288  data = string(abi.encodePacked(\"Gold_\",Strings.toString(Gold))) */\n      swap1\n      dup1\n      mload\n      swap1\n      0x20\n      add\n      swap1\n      tag_257\n      swap3\n      swap2\n      swap1\n      tag_249\n      jump\t// in\n    tag_257:\n      pop\n        /* \"Dropsite.sol\":4309:4314  nftId */\n      dup1\n        /* \"Dropsite.sol\":4302:4314  return nftId */\n      swap2\n      pop\n      pop\n      jump(tag_236)\n        /* \"Dropsite.sol\":4162:5241  if(nftId <= 1 && Gold < 100) {... */\n    tag_252:\n        /* \"Dropsite.sol\":4444:4445  2 */\n      0x02\n        /* \"Dropsite.sol\":4435:4440  nftId */\n      dup2\n        /* \"Dropsite.sol\":4435:4445  nftId <= 2 */\n      gt\n      iszero\n        /* \"Dropsite.sol\":4435:4462  nftId <= 2 && Silver <= 850 */\n      dup1\n      iszero\n      tag_259\n      jumpi\n      pop\n        /* \"Dropsite.sol\":4459:4462  850 */\n      0x0352\n        /* \"Dropsite.sol\":4449:4455  Silver */\n      sload(0x09)\n        /* \"Dropsite.sol\":4449:4462  Silver <= 850 */\n      gt\n      iszero\n        /* \"Dropsite.sol\":4435:4462  nftId <= 2 && Silver <= 850 */\n    tag_259:\n        /* \"Dropsite.sol\":4432:5241  if(nftId <= 2 && Silver <= 850) {... */\n      iszero\n      tag_260\n      jumpi\n        /* \"Dropsite.sol\":4478:4484  Silver */\n      0x09\n      0x00\n        /* \"Dropsite.sol\":4478:4486  Silver++ */\n      dup2\n      sload\n      dup1\n      swap3\n      swap2\n      swap1\n      tag_261\n      swap1\n      tag_130\n      jump\t// in\n    tag_261:\n      swap2\n      swap1\n      pop\n      sstore\n      pop\n        /* \"Dropsite.sol\":4546:4570  Strings.toString(Silver) */\n      tag_262\n        /* \"Dropsite.sol\":4563:4569  Silver */\n      sload(0x09)\n        /* \"Dropsite.sol\":4546:4562  Strings.toString */\n      tag_245\n        /* \"Dropsite.sol\":4546:4570  Strings.toString(Silver) */\n      jump\t// in\n    tag_262:\n        /* \"Dropsite.sol\":4519:4571  abi.encodePacked(\"Silver_\",Strings.toString(Silver)) */\n      add(0x20, mload(0x40))\n      tag_263\n      swap2\n      swap1\n      tag_264\n      jump\t// in\n    tag_263:\n      mload(0x40)\n      0x20\n      dup2\n      dup4\n      sub\n      sub\n      dup2\n      mstore\n      swap1\n      0x40\n      mstore\n        /* \"Dropsite.sol\":4505:4509  data */\n      0x02\n        /* \"Dropsite.sol\":4505:4572  data = string(abi.encodePacked(\"Silver_\",Strings.toString(Silver))) */\n      swap1\n      dup1\n      mload\n      swap1\n      0x20\n      add\n      swap1\n      tag_265\n      swap3\n      swap2\n      swap1\n      tag_249\n      jump\t// in\n    tag_265:\n        /* \"Dropsite.sol\":4500:4504  data */\n      0x02\n        /* \"Dropsite.sol\":4500:4572  data=data = string(abi.encodePacked(\"Silver_\",Strings.toString(Silver))) */\n      swap1\n      dup1\n      sload\n      tag_266\n      swap1\n      tag_152\n      jump\t// in\n    tag_266:\n      tag_267\n      swap3\n      swap2\n      swap1\n      tag_268\n      jump\t// in\n    tag_267:\n      pop\n        /* \"Dropsite.sol\":4606:4611  nftId */\n      dup1\n        /* \"Dropsite.sol\":4599:4611  return nftId */\n      swap2\n      pop\n      pop\n      jump(tag_236)\n        /* \"Dropsite.sol\":4432:5241  if(nftId <= 2 && Silver <= 850) {... */\n    tag_260:\n        /* \"Dropsite.sol\":4823:4826  100 */\n      0x64\n        /* \"Dropsite.sol\":4816:4820  Gold */\n      sload(0x08)\n        /* \"Dropsite.sol\":4816:4826  Gold < 100 */\n      lt\n        /* \"Dropsite.sol\":4813:5232  if(Gold < 100) {... */\n      iszero\n      tag_270\n      jumpi\n        /* \"Dropsite.sol\":4854:4855  1 */\n      0x01\n        /* \"Dropsite.sol\":4846:4855  nftId = 1 */\n      swap1\n      pop\n        /* \"Dropsite.sol\":4873:4877  Gold */\n      0x08\n      0x00\n        /* \"Dropsite.sol\":4873:4879  Gold++ */\n      dup2\n      sload\n      dup1\n      swap3\n      swap2\n      swap1\n      tag_271\n      swap1\n      tag_130\n      jump\t// in\n    tag_271:\n      swap2\n      swap1\n      pop\n      sstore\n      pop\n        /* \"Dropsite.sol\":4936:4958  Strings.toString(Gold) */\n      tag_272\n        /* \"Dropsite.sol\":4953:4957  Gold */\n      sload(0x08)\n        /* \"Dropsite.sol\":4936:4952  Strings.toString */\n      tag_245\n        /* \"Dropsite.sol\":4936:4958  Strings.toString(Gold) */\n      jump\t// in\n    tag_272:\n        /* \"Dropsite.sol\":4911:4959  abi.encodePacked(\"Gold_\",Strings.toString(Gold)) */\n      add(0x20, mload(0x40))\n      tag_273\n      swap2\n      swap1\n      tag_256\n      jump\t// in\n    tag_273:\n      mload(0x40)\n      0x20\n      dup2\n      dup4\n      sub\n      sub\n      dup2\n      mstore\n      swap1\n      0x40\n      mstore\n        /* \"Dropsite.sol\":4897:4901  data */\n      0x02\n        /* \"Dropsite.sol\":4897:4960  data = string(abi.encodePacked(\"Gold_\",Strings.toString(Gold))) */\n      swap1\n      dup1\n      mload\n      swap1\n      0x20\n      add\n      swap1\n      tag_274\n      swap3\n      swap2\n      swap1\n      tag_249\n      jump\t// in\n    tag_274:\n      pop\n        /* \"Dropsite.sol\":5003:5008  nftId */\n      dup1\n        /* \"Dropsite.sol\":4996:5008  return nftId */\n      swap2\n      pop\n      pop\n      jump(tag_236)\n        /* \"Dropsite.sol\":4813:5232  if(Gold < 100) {... */\n    tag_270:\n        /* \"Dropsite.sol\":5055:5056  0 */\n      0x00\n        /* \"Dropsite.sol\":5047:5056  nftId = 0 */\n      swap1\n      pop\n        /* \"Dropsite.sol\":5074:5081  Diamond */\n      0x07\n      0x00\n        /* \"Dropsite.sol\":5074:5083  Diamond++ */\n      dup2\n      sload\n      dup1\n      swap3\n      swap2\n      swap1\n      tag_276\n      swap1\n      tag_130\n      jump\t// in\n    tag_276:\n      swap2\n      swap1\n      pop\n      sstore\n      pop\n        /* \"Dropsite.sol\":5143:5168  Strings.toString(Diamond) */\n      tag_277\n        /* \"Dropsite.sol\":5160:5167  Diamond */\n      sload(0x07)\n        /* \"Dropsite.sol\":5143:5159  Strings.toString */\n      tag_245\n        /* \"Dropsite.sol\":5143:5168  Strings.toString(Diamond) */\n      jump\t// in\n    tag_277:\n        /* \"Dropsite.sol\":5115:5169  abi.encodePacked(\"Diamond_\",Strings.toString(Diamond)) */\n      add(0x20, mload(0x40))\n      tag_278\n      swap2\n      swap1\n      tag_247\n      jump\t// in\n    tag_278:\n      mload(0x40)\n      0x20\n      dup2\n      dup4\n      sub\n      sub\n      dup2\n      mstore\n      swap1\n      0x40\n      mstore\n        /* \"Dropsite.sol\":5101:5105  data */\n      0x02\n        /* \"Dropsite.sol\":5101:5170  data = string(abi.encodePacked(\"Diamond_\",Strings.toString(Diamond))) */\n      swap1\n      dup1\n      mload\n      swap1\n      0x20\n      add\n      swap1\n      tag_279\n      swap3\n      swap2\n      swap1\n      tag_249\n      jump\t// in\n    tag_279:\n      pop\n        /* \"Dropsite.sol\":5212:5217  nftId */\n      dup1\n        /* \"Dropsite.sol\":5205:5217  return nftId */\n      swap2\n      pop\n      pop\n        /* \"Dropsite.sol\":1238:1239  _ */\n    tag_236:\n        /* \"Dropsite.sol\":3664:5246  function updateConditions(uint index) internal contractIsNotPaused returns(uint) {... */\n      swap2\n      swap1\n      pop\n      jump\t// out\n        /* \"ERC1155_Dropsite.sol\":835:1387  function _mint(... */\n    tag_157:\n        /* \"ERC1155_Dropsite.sol\":997:998  0 */\n      0x00\n        /* \"ERC1155_Dropsite.sol\":983:999  to != address(0) */\n      0xffffffffffffffffffffffffffffffffffffffff\n      and\n        /* \"ERC1155_Dropsite.sol\":983:985  to */\n      dup5\n        /* \"ERC1155_Dropsite.sol\":983:999  to != address(0) */\n      0xffffffffffffffffffffffffffffffffffffffff\n      and\n      eq\n      iszero\n        /* \"ERC1155_Dropsite.sol\":975:1037  require(to != address(0), \"ERC1155: mint to the zero address\") */\n      tag_281\n      jumpi\n      mload(0x40)\n      0x08c379a000000000000000000000000000000000000000000000000000000000\n      dup2\n      mstore\n      0x04\n      add\n      tag_282\n      swap1\n      tag_283\n      jump\t// in\n    tag_282:\n      mload(0x40)\n      dup1\n      swap2\n      sub\n      swap1\n      revert\n    tag_281:\n        /* \"ERC1155_Dropsite.sol\":1048:1064  address operator */\n      0x00\n        /* \"ERC1155_Dropsite.sol\":1067:1079  _msgSender() */\n      tag_284\n        /* \"ERC1155_Dropsite.sol\":1067:1077  _msgSender */\n      tag_86\n        /* \"ERC1155_Dropsite.sol\":1067:1079  _msgSender() */\n      jump\t// in\n    tag_284:\n        /* \"ERC1155_Dropsite.sol\":1048:1079  address operator = _msgSender() */\n      swap1\n      pop\n        /* \"ERC1155_Dropsite.sol\":1090:1192  _beforeTokenTransfer(operator, address(0), to, _asSingletonArray(id), _asSingletonArray(amount), data) */\n      tag_285\n        /* \"ERC1155_Dropsite.sol\":1111:1119  operator */\n      dup2\n        /* \"ERC1155_Dropsite.sol\":1129:1130  0 */\n      0x00\n        /* \"ERC1155_Dropsite.sol\":1133:1135  to */\n      dup8\n        /* \"ERC1155_Dropsite.sol\":1137:1158  _asSingletonArray(id) */\n      tag_286\n        /* \"ERC1155_Dropsite.sol\":1155:1157  id */\n      dup9\n        /* \"ERC1155_Dropsite.sol\":1137:1154  _asSingletonArray */\n      tag_287\n        /* \"ERC1155_Dropsite.sol\":1137:1158  _asSingletonArray(id) */\n      jump\t// in\n    tag_286:\n        /* \"ERC1155_Dropsite.sol\":1160:1185  _asSingletonArray(amount) */\n      tag_288\n        /* \"ERC1155_Dropsite.sol\":1178:1184  amount */\n      dup9\n        /* \"ERC1155_Dropsite.sol\":1160:1177  _asSingletonArray */\n      tag_287\n        /* \"ERC1155_Dropsite.sol\":1160:1185  _asSingletonArray(amount) */\n      jump\t// in\n    tag_288:\n        /* \"ERC1155_Dropsite.sol\":1187:1191  data */\n      dup8\n        /* \"ERC1155_Dropsite.sol\":1090:1110  _beforeTokenTransfer */\n      tag_289\n        /* \"ERC1155_Dropsite.sol\":1090:1192  _beforeTokenTransfer(operator, address(0), to, _asSingletonArray(id), _asSingletonArray(amount), data) */\n      jump\t// in\n    tag_285:\n        /* \"ERC1155_Dropsite.sol\":1223:1229  amount */\n      dup3\n        /* \"ERC1155_Dropsite.sol\":1202:1211  _balances */\n      0x00\n        /* \"ERC1155_Dropsite.sol\":1202:1215  _balances[id] */\n      dup1\n        /* \"ERC1155_Dropsite.sol\":1212:1214  id */\n      dup7\n        /* \"ERC1155_Dropsite.sol\":1202:1215  _balances[id] */\n      dup2\n      mstore\n      0x20\n      add\n      swap1\n      dup2\n      mstore\n      0x20\n      add\n      0x00\n      keccak256\n        /* \"ERC1155_Dropsite.sol\":1202:1219  _balances[id][to] */\n      0x00\n        /* \"ERC1155_Dropsite.sol\":1216:1218  to */\n      dup8\n        /* \"ERC1155_Dropsite.sol\":1202:1219  _balances[id][to] */\n      0xffffffffffffffffffffffffffffffffffffffff\n      and\n      0xffffffffffffffffffffffffffffffffffffffff\n      and\n      dup2\n      mstore\n      0x20\n      add\n      swap1\n      dup2\n      mstore\n      0x20\n      add\n      0x00\n      keccak256\n      0x00\n        /* \"ERC1155_Dropsite.sol\":1202:1229  _balances[id][to] += amount */\n      dup3\n      dup3\n      sload\n      tag_290\n      swap2\n      swap1\n      tag_291\n      jump\t// in\n    tag_290:\n      swap3\n      pop\n      pop\n      dup2\n      swap1\n      sstore\n      pop\n        /* \"ERC1155_Dropsite.sol\":1281:1283  to */\n      dup5\n        /* \"ERC1155_Dropsite.sol\":1244:1296  TransferSingle(operator, address(0), to, id, amount) */\n      0xffffffffffffffffffffffffffffffffffffffff\n      and\n        /* \"ERC1155_Dropsite.sol\":1277:1278  0 */\n      0x00\n        /* \"ERC1155_Dropsite.sol\":1244:1296  TransferSingle(operator, address(0), to, id, amount) */\n      0xffffffffffffffffffffffffffffffffffffffff\n      and\n        /* \"ERC1155_Dropsite.sol\":1259:1267  operator */\n      dup3\n        /* \"ERC1155_Dropsite.sol\":1244:1296  TransferSingle(operator, address(0), to, id, amount) */\n      0xffffffffffffffffffffffffffffffffffffffff\n      and\n      0xc3d58168c5ae7397731d063d5bbf3d657854427343f4c083240f7aacaa2d0f62\n        /* \"ERC1155_Dropsite.sol\":1285:1287  id */\n      dup8\n        /* \"ERC1155_Dropsite.sol\":1289:1295  amount */\n      dup8\n        /* \"ERC1155_Dropsite.sol\":1244:1296  TransferSingle(operator, address(0), to, id, amount) */\n      mload(0x40)\n      tag_292\n      swap3\n      swap2\n      swap1\n      tag_293\n      jump\t// in\n    tag_292:\n      mload(0x40)\n      dup1\n      swap2\n      sub\n      swap1\n      log4\n        /* \"ERC1155_Dropsite.sol\":1306:1380  _doSafeTransferAcceptanceCheck(operator, address(0), to, id, amount, data) */\n      tag_294\n        /* \"ERC1155_Dropsite.sol\":1337:1345  operator */\n      dup2\n        /* \"ERC1155_Dropsite.sol\":1355:1356  0 */\n      0x00\n        /* \"ERC1155_Dropsite.sol\":1359:1361  to */\n      dup8\n        /* \"ERC1155_Dropsite.sol\":1363:1365  id */\n      dup8\n        /* \"ERC1155_Dropsite.sol\":1367:1373  amount */\n      dup8\n        /* \"ERC1155_Dropsite.sol\":1375:1379  data */\n      dup8\n        /* \"ERC1155_Dropsite.sol\":1306:1336  _doSafeTransferAcceptanceCheck */\n      tag_295\n        /* \"ERC1155_Dropsite.sol\":1306:1380  _doSafeTransferAcceptanceCheck(operator, address(0), to, id, amount, data) */\n      jump\t// in\n    tag_294:\n        /* \"ERC1155_Dropsite.sol\":965:1387  {... */\n      pop\n        /* \"ERC1155_Dropsite.sol\":835:1387  function _mint(... */\n      pop\n      pop\n      pop\n      pop\n      jump\t// out\n        /* \"Dropsite.sol\":6189:6308  function depositAmount(address payee,uint amountToDeposit) internal {... */\n    tag_186:\n        /* \"Dropsite.sol\":6286:6301  amountToDeposit */\n      dup1\n        /* \"Dropsite.sol\":6267:6275  deposits */\n      0x0b\n        /* \"Dropsite.sol\":6267:6282  deposits[payee] */\n      0x00\n        /* \"Dropsite.sol\":6276:6281  payee */\n      dup5\n        /* \"Dropsite.sol\":6267:6282  deposits[payee] */\n      0xffffffffffffffffffffffffffffffffffffffff\n      and\n      0xffffffffffffffffffffffffffffffffffffffff\n      and\n      dup2\n      mstore\n      0x20\n      add\n      swap1\n      dup2\n      mstore\n      0x20\n      add\n      0x00\n      keccak256\n      0x00\n        /* \"Dropsite.sol\":6267:6301  deposits[payee] += amountToDeposit */\n      dup3\n      dup3\n      sload\n      tag_297\n      swap2\n      swap1\n      tag_291\n      jump\t// in\n    tag_297:\n      swap3\n      pop\n      pop\n      dup2\n      swap1\n      sstore\n      pop\n        /* \"Dropsite.sol\":6189:6308  function depositAmount(address payee,uint amountToDeposit) internal {... */\n      pop\n      pop\n      jump\t// out\n        /* \"Strings.sol\":329:1032  function toString(uint256 value) internal pure returns (string memory) {... */\n    tag_245:\n        /* \"Strings.sol\":385:398  string memory */\n      0x60\n        /* \"Strings.sol\":611:612  0 */\n      0x00\n        /* \"Strings.sol\":602:607  value */\n      dup3\n        /* \"Strings.sol\":602:612  value == 0 */\n      eq\n        /* \"Strings.sol\":598:649  if (value == 0) {... */\n      iszero\n      tag_299\n      jumpi\n        /* \"Strings.sol\":628:638  return \"0\" */\n      mload(0x40)\n      dup1\n      0x40\n      add\n      0x40\n      mstore\n      dup1\n      0x01\n      dup2\n      mstore\n      0x20\n      add\n      0x3000000000000000000000000000000000000000000000000000000000000000\n      dup2\n      mstore\n      pop\n      swap1\n      pop\n      jump(tag_298)\n        /* \"Strings.sol\":598:649  if (value == 0) {... */\n    tag_299:\n        /* \"Strings.sol\":658:670  uint256 temp */\n      0x00\n        /* \"Strings.sol\":673:678  value */\n      dup3\n        /* \"Strings.sol\":658:678  uint256 temp = value */\n      swap1\n      pop\n        /* \"Strings.sol\":688:702  uint256 digits */\n      0x00\n        /* \"Strings.sol\":712:787  while (temp != 0) {... */\n    tag_300:\n        /* \"Strings.sol\":727:728  0 */\n      0x00\n        /* \"Strings.sol\":719:723  temp */\n      dup3\n        /* \"Strings.sol\":719:728  temp != 0 */\n      eq\n        /* \"Strings.sol\":712:787  while (temp != 0) {... */\n      tag_301\n      jumpi\n        /* \"Strings.sol\":744:752  digits++ */\n      dup1\n      dup1\n      tag_302\n      swap1\n      tag_130\n      jump\t// in\n    tag_302:\n      swap2\n      pop\n      pop\n        /* \"Strings.sol\":774:776  10 */\n      0x0a\n        /* \"Strings.sol\":766:776  temp /= 10 */\n      dup3\n      tag_303\n      swap2\n      swap1\n      tag_304\n      jump\t// in\n    tag_303:\n      swap2\n      pop\n        /* \"Strings.sol\":712:787  while (temp != 0) {... */\n      jump(tag_300)\n    tag_301:\n        /* \"Strings.sol\":796:815  bytes memory buffer */\n      0x00\n        /* \"Strings.sol\":828:834  digits */\n      dup2\n        /* \"Strings.sol\":818:835  new bytes(digits) */\n      0xffffffffffffffff\n      dup2\n      gt\n      iszero\n      tag_305\n      jumpi\n      tag_306\n      tag_307\n      jump\t// in\n    tag_306:\n    tag_305:\n      mload(0x40)\n      swap1\n      dup1\n      dup3\n      mstore\n      dup1\n      0x1f\n      add\n      not(0x1f)\n      and\n      0x20\n      add\n      dup3\n      add\n      0x40\n      mstore\n      dup1\n      iszero\n      tag_308\n      jumpi\n      dup2\n      0x20\n      add\n      0x01\n      dup3\n      mul\n      dup1\n      calldatasize\n      dup4\n      calldatacopy\n      dup1\n      dup3\n      add\n      swap2\n      pop\n      pop\n      swap1\n      pop\n    tag_308:\n      pop\n        /* \"Strings.sol\":796:835  bytes memory buffer = new bytes(digits) */\n      swap1\n      pop\n        /* \"Strings.sol\":845:995  while (value != 0) {... */\n    tag_309:\n        /* \"Strings.sol\":861:862  0 */\n      0x00\n        /* \"Strings.sol\":852:857  value */\n      dup6\n        /* \"Strings.sol\":852:862  value != 0 */\n      eq\n        /* \"Strings.sol\":845:995  while (value != 0) {... */\n      tag_310\n      jumpi\n        /* \"Strings.sol\":888:889  1 */\n      0x01\n        /* \"Strings.sol\":878:889  digits -= 1 */\n      dup3\n      tag_311\n      swap2\n      swap1\n      tag_312\n      jump\t// in\n    tag_311:\n      swap2\n      pop\n        /* \"Strings.sol\":954:956  10 */\n      0x0a\n        /* \"Strings.sol\":946:951  value */\n      dup6\n        /* \"Strings.sol\":946:956  value % 10 */\n      tag_313\n      swap2\n      swap1\n      tag_232\n      jump\t// in\n    tag_313:\n        /* \"Strings.sol\":933:935  48 */\n      0x30\n        /* \"Strings.sol\":933:957  48 + uint256(value % 10) */\n      tag_314\n      swap2\n      swap1\n      tag_291\n      jump\t// in\n    tag_314:\n        /* \"Strings.sol\":920:959  bytes1(uint8(48 + uint256(value % 10))) */\n      0xf8\n      shl\n        /* \"Strings.sol\":903:909  buffer */\n      dup2\n        /* \"Strings.sol\":910:916  digits */\n      dup4\n        /* \"Strings.sol\":903:917  buffer[digits] */\n      dup2\n      mload\n      dup2\n      lt\n      tag_315\n      jumpi\n      tag_316\n      tag_239\n      jump\t// in\n    tag_316:\n    tag_315:\n      0x20\n      add\n      add\n        /* \"Strings.sol\":903:959  buffer[digits] = bytes1(uint8(48 + uint256(value % 10))) */\n      swap1\n      not(0xffffffffffffffffffffffffffffffffffffffffffffffffffffffffffffff)\n      and\n      swap1\n      dup2\n      0x00\n      byte\n      swap1\n      mstore8\n      pop\n        /* \"Strings.sol\":982:984  10 */\n      0x0a\n        /* \"Strings.sol\":973:984  value /= 10 */\n      dup6\n      tag_317\n      swap2\n      swap1\n      tag_304\n      jump\t// in\n    tag_317:\n      swap5\n      pop\n        /* \"Strings.sol\":845:995  while (value != 0) {... */\n      jump(tag_309)\n    tag_310:\n        /* \"Strings.sol\":1018:1024  buffer */\n      dup1\n        /* \"Strings.sol\":1004:1025  return string(buffer) */\n      swap4\n      pop\n      pop\n      pop\n      pop\n        /* \"Strings.sol\":329:1032  function toString(uint256 value) internal pure returns (string memory) {... */\n    tag_298:\n      swap2\n      swap1\n      pop\n      jump\t// out\n        /* \"ERC1155_Dropsite.sol\":2347:2540  function _asSingletonArray(uint256 element) private pure returns (uint256[] memory) {... */\n    tag_287:\n        /* \"ERC1155_Dropsite.sol\":2413:2429  uint256[] memory */\n      0x60\n        /* \"ERC1155_Dropsite.sol\":2441:2463  uint256[] memory array */\n      0x00\n        /* \"ERC1155_Dropsite.sol\":2480:2481  1 */\n      0x01\n        /* \"ERC1155_Dropsite.sol\":2466:2482  new uint256[](1) */\n      0xffffffffffffffff\n      dup2\n      gt\n      iszero\n      tag_319\n      jumpi\n      tag_320\n      tag_307\n      jump\t// in\n    tag_320:\n    tag_319:\n      mload(0x40)\n      swap1\n      dup1\n      dup3\n      mstore\n      dup1\n      0x20\n      mul\n      0x20\n      add\n      dup3\n      add\n      0x40\n      mstore\n      dup1\n      iszero\n      tag_321\n      jumpi\n      dup2\n      0x20\n      add\n      0x20\n      dup3\n      mul\n      dup1\n      calldatasize\n      dup4\n      calldatacopy\n      dup1\n      dup3\n      add\n      swap2\n      pop\n      pop\n      swap1\n      pop\n    tag_321:\n      pop\n        /* \"ERC1155_Dropsite.sol\":2441:2482  uint256[] memory array = new uint256[](1) */\n      swap1\n      pop\n        /* \"ERC1155_Dropsite.sol\":2503:2510  element */\n      dup3\n        /* \"ERC1155_Dropsite.sol\":2492:2497  array */\n      dup2\n        /* \"ERC1155_Dropsite.sol\":2498:2499  0 */\n      0x00\n        /* \"ERC1155_Dropsite.sol\":2492:2500  array[0] */\n      dup2\n      mload\n      dup2\n      lt\n      tag_322\n      jumpi\n      tag_323\n      tag_239\n      jump\t// in\n    tag_323:\n    tag_322:\n      0x20\n      mul\n      0x20\n      add\n      add\n        /* \"ERC1155_Dropsite.sol\":2492:2510  array[0] = element */\n      dup2\n      dup2\n      mstore\n      pop\n      pop\n        /* \"ERC1155_Dropsite.sol\":2528:2533  array */\n      dup1\n        /* \"ERC1155_Dropsite.sol\":2521:2533  return array */\n      swap2\n      pop\n      pop\n        /* \"ERC1155_Dropsite.sol\":2347:2540  function _asSingletonArray(uint256 element) private pure returns (uint256[] memory) {... */\n      swap2\n      swap1\n      pop\n      jump\t// out\n        /* \"ERC1155_Dropsite.sol\":1394:1609  function _beforeTokenTransfer(... */\n    tag_289:\n      pop\n      pop\n      pop\n      pop\n      pop\n      pop\n      jump\t// out\n        /* \"ERC1155_Dropsite.sol\":1615:2341  function _doSafeTransferAcceptanceCheck(... */\n    tag_295:\n        /* \"ERC1155_Dropsite.sol\":1823:1838  to.isContract() */\n      tag_326\n        /* \"ERC1155_Dropsite.sol\":1823:1825  to */\n      dup5\n        /* \"ERC1155_Dropsite.sol\":1823:1836  to.isContract */\n      0xffffffffffffffffffffffffffffffffffffffff\n      and\n      tag_327\n        /* \"ERC1155_Dropsite.sol\":1823:1838  to.isContract() */\n      jump\t// in\n    tag_326:\n        /* \"ERC1155_Dropsite.sol\":1819:2335  if (to.isContract()) {... */\n      iszero\n      tag_328\n      jumpi\n        /* \"ERC1155_Dropsite.sol\":1875:1877  to */\n      dup4\n        /* \"ERC1155_Dropsite.sol\":1858:1896  IERC1155Receiver(to).onERC1155Received */\n      0xffffffffffffffffffffffffffffffffffffffff\n      and\n      0xae89a248\n        /* \"ERC1155_Dropsite.sol\":1897:1905  operator */\n      dup8\n        /* \"ERC1155_Dropsite.sol\":1907:1911  from */\n      dup8\n        /* \"ERC1155_Dropsite.sol\":1913:1915  id */\n      dup7\n        /* \"ERC1155_Dropsite.sol\":1917:1923  amount */\n      dup7\n        /* \"ERC1155_Dropsite.sol\":1925:1929  data */\n      dup7\n        /* \"ERC1155_Dropsite.sol\":1858:1930  IERC1155Receiver(to).onERC1155Received(operator, from, id, amount, data) */\n      mload(0x40)\n      dup7\n      0xffffffff\n      and\n      0xe0\n      shl\n      dup2\n      mstore\n      0x04\n      add\n      tag_329\n      swap6\n      swap5\n      swap4\n      swap3\n      swap2\n      swap1\n      tag_330\n      jump\t// in\n    tag_329:\n      0x20\n      mload(0x40)\n      dup1\n      dup4\n      sub\n      dup2\n      0x00\n      dup8\n      dup1\n      extcodesize\n      iszero\n      dup1\n      iszero\n      tag_331\n      jumpi\n      0x00\n      dup1\n      revert\n    tag_331:\n      pop\n      gas\n      call\n      swap3\n      pop\n      pop\n      pop\n      dup1\n      iszero\n      tag_332\n      jumpi\n      pop\n      mload(0x40)\n      returndatasize\n      not(0x1f)\n      0x1f\n      dup3\n      add\n      and\n      dup3\n      add\n      dup1\n      0x40\n      mstore\n      pop\n      dup2\n      add\n      swap1\n      tag_333\n      swap2\n      swap1\n      tag_334\n      jump\t// in\n    tag_333:\n      0x01\n    tag_332:\n        /* \"ERC1155_Dropsite.sol\":1854:2325  try IERC1155Receiver(to).onERC1155Received(operator, from, id, amount, data) returns (bytes4 response) {... */\n      tag_335\n      jumpi\n      tag_339\n      tag_340\n      jump\t// in\n    tag_339:\n      dup1\n      0x08c379a0\n      eq\n      iszero\n      tag_338\n      jumpi\n      pop\n      tag_341\n      tag_342\n      jump\t// in\n    tag_341:\n      dup1\n      tag_343\n      jumpi\n      pop\n      jump(tag_337)\n    tag_343:\n        /* \"ERC1155_Dropsite.sol\":2201:2207  reason */\n      dup1\n        /* \"ERC1155_Dropsite.sol\":2194:2208  revert(reason) */\n      mload(0x40)\n      0x08c379a000000000000000000000000000000000000000000000000000000000\n      dup2\n      mstore\n      0x04\n      add\n      tag_344\n      swap2\n      swap1\n      tag_345\n      jump\t// in\n    tag_344:\n      mload(0x40)\n      dup1\n      swap2\n      sub\n      swap1\n      revert\n        /* \"ERC1155_Dropsite.sol\":1854:2325  try IERC1155Receiver(to).onERC1155Received(operator, from, id, amount, data) returns (bytes4 response) {... */\n    tag_338:\n      pop\n    tag_337:\n        /* \"ERC1155_Dropsite.sol\":2248:2310  revert(\"ERC1155: transfer to non ERC1155Receiver implementer\") */\n      mload(0x40)\n      0x08c379a000000000000000000000000000000000000000000000000000000000\n      dup2\n      mstore\n      0x04\n      add\n      tag_346\n      swap1\n      tag_347\n      jump\t// in\n    tag_346:\n      mload(0x40)\n      dup1\n      swap2\n      sub\n      swap1\n      revert\n        /* \"ERC1155_Dropsite.sol\":1854:2325  try IERC1155Receiver(to).onERC1155Received(operator, from, id, amount, data) returns (bytes4 response) {... */\n    tag_335:\n        /* \"ERC1155_Dropsite.sol\":1991:2034  IERC1155Receiver.onERC1155Received.selector */\n      shl(0xe0, 0xae89a248)\n        /* \"ERC1155_Dropsite.sol\":1979:2034  response != IERC1155Receiver.onERC1155Received.selector */\n      not(0xffffffffffffffffffffffffffffffffffffffffffffffffffffffff)\n      and\n        /* \"ERC1155_Dropsite.sol\":1979:1987  response */\n      dup2\n        /* \"ERC1155_Dropsite.sol\":1979:2034  response != IERC1155Receiver.onERC1155Received.selector */\n      not(0xffffffffffffffffffffffffffffffffffffffffffffffffffffffff)\n      and\n      eq\n        /* \"ERC1155_Dropsite.sol\":1975:2127  if (response != IERC1155Receiver.onERC1155Received.selector) {... */\n      tag_349\n      jumpi\n        /* \"ERC1155_Dropsite.sol\":2058:2108  revert(\"ERC1155: ERC1155Receiver rejected tokens\") */\n      mload(0x40)\n      0x08c379a000000000000000000000000000000000000000000000000000000000\n      dup2\n      mstore\n      0x04\n      add\n      tag_350\n      swap1\n      tag_351\n      jump\t// in\n    tag_350:\n      mload(0x40)\n      dup1\n      swap2\n      sub\n      swap1\n      revert\n        /* \"ERC1155_Dropsite.sol\":1975:2127  if (response != IERC1155Receiver.onERC1155Received.selector) {... */\n    tag_349:\n        /* \"ERC1155_Dropsite.sol\":1931:2141  returns (bytes4 response) {... */\n      pop\n        /* \"ERC1155_Dropsite.sol\":1819:2335  if (to.isContract()) {... */\n    tag_328:\n        /* \"ERC1155_Dropsite.sol\":1615:2341  function _doSafeTransferAcceptanceCheck(... */\n      pop\n      pop\n      pop\n      pop\n      pop\n      pop\n      jump\t// out\n        /* \"Address.sol\":771:1148  function isContract(address account) internal view returns (bool) {... */\n    tag_327:\n        /* \"Address.sol\":831:835  bool */\n      0x00\n        /* \"Address.sol\":1034:1046  uint256 size */\n      dup1\n        /* \"Address.sol\":1099:1106  account */\n      dup3\n        /* \"Address.sol\":1087:1107  extcodesize(account) */\n      extcodesize\n        /* \"Address.sol\":1079:1107  size := extcodesize(account) */\n      swap1\n      pop\n        /* \"Address.sol\":1140:1141  0 */\n      0x00\n        /* \"Address.sol\":1133:1137  size */\n      dup2\n        /* \"Address.sol\":1133:1141  size > 0 */\n      gt\n        /* \"Address.sol\":1126:1141  return size > 0 */\n      swap2\n      pop\n      pop\n        /* \"Address.sol\":771:1148  function isContract(address account) internal view returns (bool) {... */\n      swap2\n      swap1\n      pop\n      jump\t// out\n    tag_249:\n      dup3\n      dup1\n      sload\n      tag_353\n      swap1\n      tag_152\n      jump\t// in\n    tag_353:\n      swap1\n      0x00\n      mstore\n      keccak256(0x00, 0x20)\n      swap1\n      0x1f\n      add\n      0x20\n      swap1\n      div\n      dup2\n      add\n      swap3\n      dup3\n      tag_355\n      jumpi\n      0x00\n      dup6\n      sstore\n      jump(tag_354)\n    tag_355:\n      dup3\n      0x1f\n      lt\n      tag_356\n      jumpi\n      dup1\n      mload\n      not(0xff)\n      and\n      dup4\n      dup1\n      add\n      or\n      dup6\n      sstore\n      jump(tag_354)\n    tag_356:\n      dup3\n      dup1\n      add\n      0x01\n      add\n      dup6\n      sstore\n      dup3\n      iszero\n      tag_354\n      jumpi\n      swap2\n      dup3\n      add\n    tag_357:\n      dup3\n      dup2\n      gt\n      iszero\n      tag_358\n      jumpi\n      dup3\n      mload\n      dup3\n      sstore\n      swap2\n      0x20\n      add\n      swap2\n      swap1\n      0x01\n      add\n      swap1\n      jump(tag_357)\n    tag_358:\n    tag_354:\n      pop\n      swap1\n      pop\n      tag_359\n      swap2\n      swap1\n      tag_360\n      jump\t// in\n    tag_359:\n      pop\n      swap1\n      jump\t// out\n    tag_268:\n      dup3\n      dup1\n      sload\n      tag_361\n      swap1\n      tag_152\n      jump\t// in\n    tag_361:\n      swap1\n      0x00\n      mstore\n      keccak256(0x00, 0x20)\n      swap1\n      0x1f\n      add\n      0x20\n      swap1\n      div\n      dup2\n      add\n      swap3\n      dup3\n      tag_363\n      jumpi\n      0x00\n      dup6\n      sstore\n      jump(tag_362)\n    tag_363:\n      dup3\n      0x1f\n      lt\n      tag_364\n      jumpi\n      dup1\n      sload\n      dup6\n      sstore\n      jump(tag_362)\n    tag_364:\n      dup3\n      dup1\n      add\n      0x01\n      add\n      dup6\n      sstore\n      dup3\n      iszero\n      tag_362\n      jumpi\n      0x00\n      mstore\n      keccak256(0x00, 0x20)\n      swap2\n      0x1f\n      add\n      0x20\n      swap1\n      div\n      dup3\n      add\n    tag_365:\n      dup3\n      dup2\n      gt\n      iszero\n      tag_366\n      jumpi\n      dup3\n      sload\n      dup3\n      sstore\n      swap2\n      0x01\n      add\n      swap2\n      swap1\n      0x01\n      add\n      swap1\n      jump(tag_365)\n    tag_366:\n    tag_362:\n      pop\n      swap1\n      pop\n      tag_367\n      swap2\n      swap1\n      tag_360\n      jump\t// in\n    tag_367:\n      pop\n      swap1\n      jump\t// out\n    tag_360:\n    tag_368:\n      dup1\n      dup3\n      gt\n      iszero\n      tag_369\n      jumpi\n      0x00\n      dup2\n      0x00\n      swap1\n      sstore\n      pop\n      0x01\n      add\n      jump(tag_368)\n    tag_369:\n      pop\n      swap1\n      jump\t// out\n        /* \"#utility.yul\":7:146   */\n    tag_371:\n        /* \"#utility.yul\":53:58   */\n      0x00\n        /* \"#utility.yul\":91:97   */\n      dup2\n        /* \"#utility.yul\":78:98   */\n      calldataload\n        /* \"#utility.yul\":69:98   */\n      swap1\n      pop\n        /* \"#utility.yul\":107:140   */\n      tag_373\n        /* \"#utility.yul\":134:139   */\n      dup2\n        /* \"#utility.yul\":107:140   */\n      tag_374\n      jump\t// in\n    tag_373:\n        /* \"#utility.yul\":7:146   */\n      swap3\n      swap2\n      pop\n      pop\n      jump\t// out\n        /* \"#utility.yul\":152:307   */\n    tag_375:\n        /* \"#utility.yul\":206:211   */\n      0x00\n        /* \"#utility.yul\":244:250   */\n      dup2\n        /* \"#utility.yul\":231:251   */\n      calldataload\n        /* \"#utility.yul\":222:251   */\n      swap1\n      pop\n        /* \"#utility.yul\":260:301   */\n      tag_377\n        /* \"#utility.yul\":295:300   */\n      dup2\n        /* \"#utility.yul\":260:301   */\n      tag_378\n      jump\t// in\n    tag_377:\n        /* \"#utility.yul\":152:307   */\n      swap3\n      swap2\n      pop\n      pop\n      jump\t// out\n        /* \"#utility.yul\":313:454   */\n    tag_379:\n        /* \"#utility.yul\":369:374   */\n      0x00\n        /* \"#utility.yul\":400:406   */\n      dup2\n        /* \"#utility.yul\":394:407   */\n      mload\n        /* \"#utility.yul\":385:407   */\n      swap1\n      pop\n        /* \"#utility.yul\":416:448   */\n      tag_381\n        /* \"#utility.yul\":442:447   */\n      dup2\n        /* \"#utility.yul\":416:448   */\n      tag_382\n      jump\t// in\n    tag_381:\n        /* \"#utility.yul\":313:454   */\n      swap3\n      swap2\n      pop\n      pop\n      jump\t// out\n        /* \"#utility.yul\":460:599   */\n    tag_383:\n        /* \"#utility.yul\":506:511   */\n      0x00\n        /* \"#utility.yul\":544:550   */\n      dup2\n        /* \"#utility.yul\":531:551   */\n      calldataload\n        /* \"#utility.yul\":522:551   */\n      swap1\n      pop\n        /* \"#utility.yul\":560:593   */\n      tag_385\n        /* \"#utility.yul\":587:592   */\n      dup2\n        /* \"#utility.yul\":560:593   */\n      tag_386\n      jump\t// in\n    tag_385:\n        /* \"#utility.yul\":460:599   */\n      swap3\n      swap2\n      pop\n      pop\n      jump\t// out\n        /* \"#utility.yul\":605:934   */\n    tag_49:\n        /* \"#utility.yul\":664:670   */\n      0x00\n        /* \"#utility.yul\":713:715   */\n      0x20\n        /* \"#utility.yul\":701:710   */\n      dup3\n        /* \"#utility.yul\":692:699   */\n      dup5\n        /* \"#utility.yul\":688:711   */\n      sub\n        /* \"#utility.yul\":684:716   */\n      slt\n        /* \"#utility.yul\":681:800   */\n      iszero\n      tag_388\n      jumpi\n        /* \"#utility.yul\":719:798   */\n      tag_389\n      tag_390\n      jump\t// in\n    tag_389:\n        /* \"#utility.yul\":681:800   */\n    tag_388:\n        /* \"#utility.yul\":839:840   */\n      0x00\n        /* \"#utility.yul\":864:917   */\n      tag_391\n        /* \"#utility.yul\":909:916   */\n      dup5\n        /* \"#utility.yul\":900:906   */\n      dup3\n        /* \"#utility.yul\":889:898   */\n      dup6\n        /* \"#utility.yul\":885:907   */\n      add\n        /* \"#utility.yul\":864:917   */\n      tag_371\n      jump\t// in\n    tag_391:\n        /* \"#utility.yul\":854:917   */\n      swap2\n      pop\n        /* \"#utility.yul\":810:927   */\n      pop\n        /* \"#utility.yul\":605:934   */\n      swap3\n      swap2\n      pop\n      pop\n      jump\t// out\n        /* \"#utility.yul\":940:1285   */\n    tag_26:\n        /* \"#utility.yul\":1007:1013   */\n      0x00\n        /* \"#utility.yul\":1056:1058   */\n      0x20\n        /* \"#utility.yul\":1044:1053   */\n      dup3\n        /* \"#utility.yul\":1035:1042   */\n      dup5\n        /* \"#utility.yul\":1031:1054   */\n      sub\n        /* \"#utility.yul\":1027:1059   */\n      slt\n        /* \"#utility.yul\":1024:1143   */\n      iszero\n      tag_393\n      jumpi\n        /* \"#utility.yul\":1062:1141   */\n      tag_394\n      tag_390\n      jump\t// in\n    tag_394:\n        /* \"#utility.yul\":1024:1143   */\n    tag_393:\n        /* \"#utility.yul\":1182:1183   */\n      0x00\n        /* \"#utility.yul\":1207:1268   */\n      tag_395\n        /* \"#utility.yul\":1260:1267   */\n      dup5\n        /* \"#utility.yul\":1251:1257   */\n      dup3\n        /* \"#utility.yul\":1240:1249   */\n      dup6\n        /* \"#utility.yul\":1236:1258   */\n      add\n        /* \"#utility.yul\":1207:1268   */\n      tag_375\n      jump\t// in\n    tag_395:\n        /* \"#utility.yul\":1197:1268   */\n      swap2\n      pop\n        /* \"#utility.yul\":1153:1278   */\n      pop\n        /* \"#utility.yul\":940:1285   */\n      swap3\n      swap2\n      pop\n      pop\n      jump\t// out\n        /* \"#utility.yul\":1291:1765   */\n    tag_39:\n        /* \"#utility.yul\":1359:1365   */\n      0x00\n        /* \"#utility.yul\":1367:1373   */\n      dup1\n        /* \"#utility.yul\":1416:1418   */\n      0x40\n        /* \"#utility.yul\":1404:1413   */\n      dup4\n        /* \"#utility.yul\":1395:1402   */\n      dup6\n        /* \"#utility.yul\":1391:1414   */\n      sub\n        /* \"#utility.yul\":1387:1419   */\n      slt\n        /* \"#utility.yul\":1384:1503   */\n      iszero\n      tag_397\n      jumpi\n        /* \"#utility.yul\":1422:1501   */\n      tag_398\n      tag_390\n      jump\t// in\n    tag_398:\n        /* \"#utility.yul\":1384:1503   */\n    tag_397:\n        /* \"#utility.yul\":1542:1543   */\n      0x00\n        /* \"#utility.yul\":1567:1620   */\n      tag_399\n        /* \"#utility.yul\":1612:1619   */\n      dup6\n        /* \"#utility.yul\":1603:1609   */\n      dup3\n        /* \"#utility.yul\":1592:1601   */\n      dup7\n        /* \"#utility.yul\":1588:1610   */\n      add\n        /* \"#utility.yul\":1567:1620   */\n      tag_371\n      jump\t// in\n    tag_399:\n        /* \"#utility.yul\":1557:1620   */\n      swap3\n      pop\n        /* \"#utility.yul\":1513:1630   */\n      pop\n        /* \"#utility.yul\":1669:1671   */\n      0x20\n        /* \"#utility.yul\":1695:1748   */\n      tag_400\n        /* \"#utility.yul\":1740:1747   */\n      dup6\n        /* \"#utility.yul\":1731:1737   */\n      dup3\n        /* \"#utility.yul\":1720:1729   */\n      dup7\n        /* \"#utility.yul\":1716:1738   */\n      add\n        /* \"#utility.yul\":1695:1748   */\n      tag_383\n      jump\t// in\n    tag_400:\n        /* \"#utility.yul\":1685:1748   */\n      swap2\n      pop\n        /* \"#utility.yul\":1640:1758   */\n      pop\n        /* \"#utility.yul\":1291:1765   */\n      swap3\n      pop\n      swap3\n      swap1\n      pop\n      jump\t// out\n        /* \"#utility.yul\":1771:2120   */\n    tag_334:\n        /* \"#utility.yul\":1840:1846   */\n      0x00\n        /* \"#utility.yul\":1889:1891   */\n      0x20\n        /* \"#utility.yul\":1877:1886   */\n      dup3\n        /* \"#utility.yul\":1868:1875   */\n      dup5\n        /* \"#utility.yul\":1864:1887   */\n      sub\n        /* \"#utility.yul\":1860:1892   */\n      slt\n        /* \"#utility.yul\":1857:1976   */\n      iszero\n      tag_402\n      jumpi\n        /* \"#utility.yul\":1895:1974   */\n      tag_403\n      tag_390\n      jump\t// in\n    tag_403:\n        /* \"#utility.yul\":1857:1976   */\n    tag_402:\n        /* \"#utility.yul\":2015:2016   */\n      0x00\n        /* \"#utility.yul\":2040:2103   */\n      tag_404\n        /* \"#utility.yul\":2095:2102   */\n      dup5\n        /* \"#utility.yul\":2086:2092   */\n      dup3\n        /* \"#utility.yul\":2075:2084   */\n      dup6\n        /* \"#utility.yul\":2071:2093   */\n      add\n        /* \"#utility.yul\":2040:2103   */\n      tag_379\n      jump\t// in\n    tag_404:\n        /* \"#utility.yul\":2030:2103   */\n      swap2\n      pop\n        /* \"#utility.yul\":1986:2113   */\n      pop\n        /* \"#utility.yul\":1771:2120   */\n      swap3\n      swap2\n      pop\n      pop\n      jump\t// out\n        /* \"#utility.yul\":2126:2455   */\n    tag_77:\n        /* \"#utility.yul\":2185:2191   */\n      0x00\n        /* \"#utility.yul\":2234:2236   */\n      0x20\n        /* \"#utility.yul\":2222:2231   */\n      dup3\n        /* \"#utility.yul\":2213:2220   */\n      dup5\n        /* \"#utility.yul\":2209:2232   */\n      sub\n        /* \"#utility.yul\":2205:2237   */\n      slt\n        /* \"#utility.yul\":2202:2321   */\n      iszero\n      tag_406\n      jumpi\n        /* \"#utility.yul\":2240:2319   */\n      tag_407\n      tag_390\n      jump\t// in\n    tag_407:\n        /* \"#utility.yul\":2202:2321   */\n    tag_406:\n        /* \"#utility.yul\":2360:2361   */\n      0x00\n        /* \"#utility.yul\":2385:2438   */\n      tag_408\n        /* \"#utility.yul\":2430:2437   */\n      dup5\n        /* \"#utility.yul\":2421:2427   */\n      dup3\n        /* \"#utility.yul\":2410:2419   */\n      dup6\n        /* \"#utility.yul\":2406:2428   */\n      add\n        /* \"#utility.yul\":2385:2438   */\n      tag_383\n      jump\t// in\n    tag_408:\n        /* \"#utility.yul\":2375:2438   */\n      swap2\n      pop\n        /* \"#utility.yul\":2331:2448   */\n      pop\n        /* \"#utility.yul\":2126:2455   */\n      swap3\n      swap2\n      pop\n      pop\n      jump\t// out\n        /* \"#utility.yul\":2461:2640   */\n    tag_409:\n        /* \"#utility.yul\":2530:2540   */\n      0x00\n        /* \"#utility.yul\":2551:2597   */\n      tag_411\n        /* \"#utility.yul\":2593:2596   */\n      dup4\n        /* \"#utility.yul\":2585:2591   */\n      dup4\n        /* \"#utility.yul\":2551:2597   */\n      tag_412\n      jump\t// in\n    tag_411:\n        /* \"#utility.yul\":2629:2633   */\n      0x20\n        /* \"#utility.yul\":2624:2627   */\n      dup4\n        /* \"#utility.yul\":2620:2634   */\n      add\n        /* \"#utility.yul\":2606:2634   */\n      swap1\n      pop\n        /* \"#utility.yul\":2461:2640   */\n      swap3\n      swap2\n      pop\n      pop\n      jump\t// out\n        /* \"#utility.yul\":2646:2788   */\n    tag_413:\n        /* \"#utility.yul\":2749:2781   */\n      tag_415\n        /* \"#utility.yul\":2775:2780   */\n      dup2\n        /* \"#utility.yul\":2749:2781   */\n      tag_416\n      jump\t// in\n    tag_415:\n        /* \"#utility.yul\":2744:2747   */\n      dup3\n        /* \"#utility.yul\":2737:2782   */\n      mstore\n        /* \"#utility.yul\":2646:2788   */\n      pop\n      pop\n      jump\t// out\n        /* \"#utility.yul\":2794:2912   */\n    tag_417:\n        /* \"#utility.yul\":2881:2905   */\n      tag_419\n        /* \"#utility.yul\":2899:2904   */\n      dup2\n        /* \"#utility.yul\":2881:2905   */\n      tag_420\n      jump\t// in\n    tag_419:\n        /* \"#utility.yul\":2876:2879   */\n      dup3\n        /* \"#utility.yul\":2869:2906   */\n      mstore\n        /* \"#utility.yul\":2794:2912   */\n      pop\n      pop\n      jump\t// out\n        /* \"#utility.yul\":2918:3075   */\n    tag_421:\n        /* \"#utility.yul\":3023:3068   */\n      tag_423\n        /* \"#utility.yul\":3043:3067   */\n      tag_424\n        /* \"#utility.yul\":3061:3066   */\n      dup3\n        /* \"#utility.yul\":3043:3067   */\n      tag_420\n      jump\t// in\n    tag_424:\n        /* \"#utility.yul\":3023:3068   */\n      tag_425\n      jump\t// in\n    tag_423:\n        /* \"#utility.yul\":3018:3021   */\n      dup3\n        /* \"#utility.yul\":3011:3069   */\n      mstore\n        /* \"#utility.yul\":2918:3075   */\n      pop\n      pop\n      jump\t// out\n        /* \"#utility.yul\":3111:3843   */\n    tag_426:\n        /* \"#utility.yul\":3230:3233   */\n      0x00\n        /* \"#utility.yul\":3259:3313   */\n      tag_428\n        /* \"#utility.yul\":3307:3312   */\n      dup3\n        /* \"#utility.yul\":3259:3313   */\n      tag_429\n      jump\t// in\n    tag_428:\n        /* \"#utility.yul\":3329:3415   */\n      tag_430\n        /* \"#utility.yul\":3408:3414   */\n      dup2\n        /* \"#utility.yul\":3403:3406   */\n      dup6\n        /* \"#utility.yul\":3329:3415   */\n      tag_431\n      jump\t// in\n    tag_430:\n        /* \"#utility.yul\":3322:3415   */\n      swap4\n      pop\n        /* \"#utility.yul\":3439:3495   */\n      tag_432\n        /* \"#utility.yul\":3489:3494   */\n      dup4\n        /* \"#utility.yul\":3439:3495   */\n      tag_433\n      jump\t// in\n    tag_432:\n        /* \"#utility.yul\":3518:3525   */\n      dup1\n        /* \"#utility.yul\":3549:3550   */\n      0x00\n        /* \"#utility.yul\":3534:3818   */\n    tag_434:\n        /* \"#utility.yul\":3559:3565   */\n      dup4\n        /* \"#utility.yul\":3556:3557   */\n      dup2\n        /* \"#utility.yul\":3553:3566   */\n      lt\n        /* \"#utility.yul\":3534:3818   */\n      iszero\n      tag_436\n      jumpi\n        /* \"#utility.yul\":3635:3641   */\n      dup2\n        /* \"#utility.yul\":3629:3642   */\n      mload\n        /* \"#utility.yul\":3662:3725   */\n      tag_437\n        /* \"#utility.yul\":3721:3724   */\n      dup9\n        /* \"#utility.yul\":3706:3719   */\n      dup3\n        /* \"#utility.yul\":3662:3725   */\n      tag_409\n      jump\t// in\n    tag_437:\n        /* \"#utility.yul\":3655:3725   */\n      swap8\n      pop\n        /* \"#utility.yul\":3748:3808   */\n      tag_438\n        /* \"#utility.yul\":3801:3807   */\n      dup4\n        /* \"#utility.yul\":3748:3808   */\n      tag_439\n      jump\t// in\n    tag_438:\n        /* \"#utility.yul\":3738:3808   */\n      swap3\n      pop\n        /* \"#utility.yul\":3594:3818   */\n      pop\n        /* \"#utility.yul\":3581:3582   */\n      0x01\n        /* \"#utility.yul\":3578:3579   */\n      dup2\n        /* \"#utility.yul\":3574:3583   */\n      add\n        /* \"#utility.yul\":3569:3583   */\n      swap1\n      pop\n        /* \"#utility.yul\":3534:3818   */\n      jump(tag_434)\n    tag_436:\n        /* \"#utility.yul\":3538:3552   */\n      pop\n        /* \"#utility.yul\":3834:3837   */\n      dup6\n        /* \"#utility.yul\":3827:3837   */\n      swap4\n      pop\n        /* \"#utility.yul\":3235:3843   */\n      pop\n      pop\n      pop\n        /* \"#utility.yul\":3111:3843   */\n      swap3\n      swap2\n      pop\n      pop\n      jump\t// out\n        /* \"#utility.yul\":3849:3958   */\n    tag_440:\n        /* \"#utility.yul\":3930:3951   */\n      tag_442\n        /* \"#utility.yul\":3945:3950   */\n      dup2\n        /* \"#utility.yul\":3930:3951   */\n      tag_443\n      jump\t// in\n    tag_442:\n        /* \"#utility.yul\":3925:3928   */\n      dup3\n        /* \"#utility.yul\":3918:3952   */\n      mstore\n        /* \"#utility.yul\":3849:3958   */\n      pop\n      pop\n      jump\t// out\n        /* \"#utility.yul\":3964:4328   */\n    tag_444:\n        /* \"#utility.yul\":4052:4055   */\n      0x00\n        /* \"#utility.yul\":4080:4119   */\n      tag_446\n        /* \"#utility.yul\":4113:4118   */\n      dup3\n        /* \"#utility.yul\":4080:4119   */\n      tag_447\n      jump\t// in\n    tag_446:\n        /* \"#utility.yul\":4135:4206   */\n      tag_448\n        /* \"#utility.yul\":4199:4205   */\n      dup2\n        /* \"#utility.yul\":4194:4197   */\n      dup6\n        /* \"#utility.yul\":4135:4206   */\n      tag_449\n      jump\t// in\n    tag_448:\n        /* \"#utility.yul\":4128:4206   */\n      swap4\n      pop\n        /* \"#utility.yul\":4215:4267   */\n      tag_450\n        /* \"#utility.yul\":4260:4266   */\n      dup2\n        /* \"#utility.yul\":4255:4258   */\n      dup6\n        /* \"#utility.yul\":4248:4252   */\n      0x20\n        /* \"#utility.yul\":4241:4246   */\n      dup7\n        /* \"#utility.yul\":4237:4253   */\n      add\n        /* \"#utility.yul\":4215:4267   */\n      tag_451\n      jump\t// in\n    tag_450:\n        /* \"#utility.yul\":4292:4321   */\n      tag_452\n        /* \"#utility.yul\":4314:4320   */\n      dup2\n        /* \"#utility.yul\":4292:4321   */\n      tag_453\n      jump\t// in\n    tag_452:\n        /* \"#utility.yul\":4287:4290   */\n      dup5\n        /* \"#utility.yul\":4283:4322   */\n      add\n        /* \"#utility.yul\":4276:4322   */\n      swap2\n      pop\n        /* \"#utility.yul\":4056:4328   */\n      pop\n        /* \"#utility.yul\":3964:4328   */\n      swap3\n      swap2\n      pop\n      pop\n      jump\t// out\n        /* \"#utility.yul\":4334:4711   */\n    tag_454:\n        /* \"#utility.yul\":4440:4443   */\n      0x00\n        /* \"#utility.yul\":4468:4507   */\n      tag_456\n        /* \"#utility.yul\":4501:4506   */\n      dup3\n        /* \"#utility.yul\":4468:4507   */\n      tag_447\n      jump\t// in\n    tag_456:\n        /* \"#utility.yul\":4523:4612   */\n      tag_457\n        /* \"#utility.yul\":4605:4611   */\n      dup2\n        /* \"#utility.yul\":4600:4603   */\n      dup6\n        /* \"#utility.yul\":4523:4612   */\n      tag_458\n      jump\t// in\n    tag_457:\n        /* \"#utility.yul\":4516:4612   */\n      swap4\n      pop\n        /* \"#utility.yul\":4621:4673   */\n      tag_459\n        /* \"#utility.yul\":4666:4672   */\n      dup2\n        /* \"#utility.yul\":4661:4664   */\n      dup6\n        /* \"#utility.yul\":4654:4658   */\n      0x20\n        /* \"#utility.yul\":4647:4652   */\n      dup7\n        /* \"#utility.yul\":4643:4659   */\n      add\n        /* \"#utility.yul\":4621:4673   */\n      tag_451\n      jump\t// in\n    tag_459:\n        /* \"#utility.yul\":4698:4704   */\n      dup1\n        /* \"#utility.yul\":4693:4696   */\n      dup5\n        /* \"#utility.yul\":4689:4705   */\n      add\n        /* \"#utility.yul\":4682:4705   */\n      swap2\n      pop\n        /* \"#utility.yul\":4444:4711   */\n      pop\n        /* \"#utility.yul\":4334:4711   */\n      swap3\n      swap2\n      pop\n      pop\n      jump\t// out\n        /* \"#utility.yul\":4717:5083   */\n    tag_460:\n        /* \"#utility.yul\":4859:4862   */\n      0x00\n        /* \"#utility.yul\":4880:4947   */\n      tag_462\n        /* \"#utility.yul\":4944:4946   */\n      0x34\n        /* \"#utility.yul\":4939:4942   */\n      dup4\n        /* \"#utility.yul\":4880:4947   */\n      tag_449\n      jump\t// in\n    tag_462:\n        /* \"#utility.yul\":4873:4947   */\n      swap2\n      pop\n        /* \"#utility.yul\":4956:5049   */\n      tag_463\n        /* \"#utility.yul\":5045:5048   */\n      dup3\n        /* \"#utility.yul\":4956:5049   */\n      tag_464\n      jump\t// in\n    tag_463:\n        /* \"#utility.yul\":5074:5076   */\n      0x40\n        /* \"#utility.yul\":5069:5072   */\n      dup3\n        /* \"#utility.yul\":5065:5077   */\n      add\n        /* \"#utility.yul\":5058:5077   */\n      swap1\n      pop\n        /* \"#utility.yul\":4717:5083   */\n      swap2\n      swap1\n      pop\n      jump\t// out\n        /* \"#utility.yul\":5089:5455   */\n    tag_465:\n        /* \"#utility.yul\":5231:5234   */\n      0x00\n        /* \"#utility.yul\":5252:5319   */\n      tag_467\n        /* \"#utility.yul\":5316:5318   */\n      0x28\n        /* \"#utility.yul\":5311:5314   */\n      dup4\n        /* \"#utility.yul\":5252:5319   */\n      tag_449\n      jump\t// in\n    tag_467:\n        /* \"#utility.yul\":5245:5319   */\n      swap2\n      pop\n        /* \"#utility.yul\":5328:5421   */\n      tag_468\n        /* \"#utility.yul\":5417:5420   */\n      dup3\n        /* \"#utility.yul\":5328:5421   */\n      tag_469\n      jump\t// in\n    tag_468:\n        /* \"#utility.yul\":5446:5448   */\n      0x40\n        /* \"#utility.yul\":5441:5444   */\n      dup3\n        /* \"#utility.yul\":5437:5449   */\n      add\n        /* \"#utility.yul\":5430:5449   */\n      swap1\n      pop\n        /* \"#utility.yul\":5089:5455   */\n      swap2\n      swap1\n      pop\n      jump\t// out\n        /* \"#utility.yul\":5461:5861   */\n    tag_470:\n        /* \"#utility.yul\":5621:5624   */\n      0x00\n        /* \"#utility.yul\":5642:5726   */\n      tag_472\n        /* \"#utility.yul\":5724:5725   */\n      0x08\n        /* \"#utility.yul\":5719:5722   */\n      dup4\n        /* \"#utility.yul\":5642:5726   */\n      tag_458\n      jump\t// in\n    tag_472:\n        /* \"#utility.yul\":5635:5726   */\n      swap2\n      pop\n        /* \"#utility.yul\":5735:5828   */\n      tag_473\n        /* \"#utility.yul\":5824:5827   */\n      dup3\n        /* \"#utility.yul\":5735:5828   */\n      tag_474\n      jump\t// in\n    tag_473:\n        /* \"#utility.yul\":5853:5854   */\n      0x08\n        /* \"#utility.yul\":5848:5851   */\n      dup3\n        /* \"#utility.yul\":5844:5855   */\n      add\n        /* \"#utility.yul\":5837:5855   */\n      swap1\n      pop\n        /* \"#utility.yul\":5461:5861   */\n      swap2\n      swap1\n      pop\n      jump\t// out\n        /* \"#utility.yul\":5867:6267   */\n    tag_475:\n        /* \"#utility.yul\":6027:6030   */\n      0x00\n        /* \"#utility.yul\":6048:6132   */\n      tag_477\n        /* \"#utility.yul\":6130:6131   */\n      0x05\n        /* \"#utility.yul\":6125:6128   */\n      dup4\n        /* \"#utility.yul\":6048:6132   */\n      tag_458\n      jump\t// in\n    tag_477:\n        /* \"#utility.yul\":6041:6132   */\n      swap2\n      pop\n        /* \"#utility.yul\":6141:6234   */\n      tag_478\n        /* \"#utility.yul\":6230:6233   */\n      dup3\n        /* \"#utility.yul\":6141:6234   */\n      tag_479\n      jump\t// in\n    tag_478:\n        /* \"#utility.yul\":6259:6260   */\n      0x05\n        /* \"#utility.yul\":6254:6257   */\n      dup3\n        /* \"#utility.yul\":6250:6261   */\n      add\n        /* \"#utility.yul\":6243:6261   */\n      swap1\n      pop\n        /* \"#utility.yul\":5867:6267   */\n      swap2\n      swap1\n      pop\n      jump\t// out\n        /* \"#utility.yul\":6273:6639   */\n    tag_480:\n        /* \"#utility.yul\":6415:6418   */\n      0x00\n        /* \"#utility.yul\":6436:6503   */\n      tag_482\n        /* \"#utility.yul\":6500:6502   */\n      0x12\n        /* \"#utility.yul\":6495:6498   */\n      dup4\n        /* \"#utility.yul\":6436:6503   */\n      tag_449\n      jump\t// in\n    tag_482:\n        /* \"#utility.yul\":6429:6503   */\n      swap2\n      pop\n        /* \"#utility.yul\":6512:6605   */\n      tag_483\n        /* \"#utility.yul\":6601:6604   */\n      dup3\n        /* \"#utility.yul\":6512:6605   */\n      tag_484\n      jump\t// in\n    tag_483:\n        /* \"#utility.yul\":6630:6632   */\n      0x20\n        /* \"#utility.yul\":6625:6628   */\n      dup3\n        /* \"#utility.yul\":6621:6633   */\n      add\n        /* \"#utility.yul\":6614:6633   */\n      swap1\n      pop\n        /* \"#utility.yul\":6273:6639   */\n      swap2\n      swap1\n      pop\n      jump\t// out\n        /* \"#utility.yul\":6645:7011   */\n    tag_485:\n        /* \"#utility.yul\":6787:6790   */\n      0x00\n        /* \"#utility.yul\":6808:6875   */\n      tag_487\n        /* \"#utility.yul\":6872:6874   */\n      0x1b\n        /* \"#utility.yul\":6867:6870   */\n      dup4\n        /* \"#utility.yul\":6808:6875   */\n      tag_449\n      jump\t// in\n    tag_487:\n        /* \"#utility.yul\":6801:6875   */\n      swap2\n      pop\n        /* \"#utility.yul\":6884:6977   */\n      tag_488\n        /* \"#utility.yul\":6973:6976   */\n      dup3\n        /* \"#utility.yul\":6884:6977   */\n      tag_489\n      jump\t// in\n    tag_488:\n        /* \"#utility.yul\":7002:7004   */\n      0x20\n        /* \"#utility.yul\":6997:7000   */\n      dup3\n        /* \"#utility.yul\":6993:7005   */\n      add\n        /* \"#utility.yul\":6986:7005   */\n      swap1\n      pop\n        /* \"#utility.yul\":6645:7011   */\n      swap2\n      swap1\n      pop\n      jump\t// out\n        /* \"#utility.yul\":7017:7383   */\n    tag_490:\n        /* \"#utility.yul\":7159:7162   */\n      0x00\n        /* \"#utility.yul\":7180:7247   */\n      tag_492\n        /* \"#utility.yul\":7244:7246   */\n      0x1b\n        /* \"#utility.yul\":7239:7242   */\n      dup4\n        /* \"#utility.yul\":7180:7247   */\n      tag_449\n      jump\t// in\n    tag_492:\n        /* \"#utility.yul\":7173:7247   */\n      swap2\n      pop\n        /* \"#utility.yul\":7256:7349   */\n      tag_493\n        /* \"#utility.yul\":7345:7348   */\n      dup3\n        /* \"#utility.yul\":7256:7349   */\n      tag_494\n      jump\t// in\n    tag_493:\n        /* \"#utility.yul\":7374:7376   */\n      0x20\n        /* \"#utility.yul\":7369:7372   */\n      dup3\n        /* \"#utility.yul\":7365:7377   */\n      add\n        /* \"#utility.yul\":7358:7377   */\n      swap1\n      pop\n        /* \"#utility.yul\":7017:7383   */\n      swap2\n      swap1\n      pop\n      jump\t// out\n        /* \"#utility.yul\":7389:7755   */\n    tag_495:\n        /* \"#utility.yul\":7531:7534   */\n      0x00\n        /* \"#utility.yul\":7552:7619   */\n      tag_497\n        /* \"#utility.yul\":7616:7618   */\n      0x15\n        /* \"#utility.yul\":7611:7614   */\n      dup4\n        /* \"#utility.yul\":7552:7619   */\n      tag_449\n      jump\t// in\n    tag_497:\n        /* \"#utility.yul\":7545:7619   */\n      swap2\n      pop\n        /* \"#utility.yul\":7628:7721   */\n      tag_498\n        /* \"#utility.yul\":7717:7720   */\n      dup3\n        /* \"#utility.yul\":7628:7721   */\n      tag_499\n      jump\t// in\n    tag_498:\n        /* \"#utility.yul\":7746:7748   */\n      0x20\n        /* \"#utility.yul\":7741:7744   */\n      dup3\n        /* \"#utility.yul\":7737:7749   */\n      add\n        /* \"#utility.yul\":7730:7749   */\n      swap1\n      pop\n        /* \"#utility.yul\":7389:7755   */\n      swap2\n      swap1\n      pop\n      jump\t// out\n        /* \"#utility.yul\":7761:8127   */\n    tag_500:\n        /* \"#utility.yul\":7903:7906   */\n      0x00\n        /* \"#utility.yul\":7924:7991   */\n      tag_502\n        /* \"#utility.yul\":7988:7990   */\n      0x1c\n        /* \"#utility.yul\":7983:7986   */\n      dup4\n        /* \"#utility.yul\":7924:7991   */\n      tag_449\n      jump\t// in\n    tag_502:\n        /* \"#utility.yul\":7917:7991   */\n      swap2\n      pop\n        /* \"#utility.yul\":8000:8093   */\n      tag_503\n        /* \"#utility.yul\":8089:8092   */\n      dup3\n        /* \"#utility.yul\":8000:8093   */\n      tag_504\n      jump\t// in\n    tag_503:\n        /* \"#utility.yul\":8118:8120   */\n      0x20\n        /* \"#utility.yul\":8113:8116   */\n      dup3\n        /* \"#utility.yul\":8109:8121   */\n      add\n        /* \"#utility.yul\":8102:8121   */\n      swap1\n      pop\n        /* \"#utility.yul\":7761:8127   */\n      swap2\n      swap1\n      pop\n      jump\t// out\n        /* \"#utility.yul\":8133:8499   */\n    tag_505:\n        /* \"#utility.yul\":8275:8278   */\n      0x00\n        /* \"#utility.yul\":8296:8363   */\n      tag_507\n        /* \"#utility.yul\":8360:8362   */\n      0x1b\n        /* \"#utility.yul\":8355:8358   */\n      dup4\n        /* \"#utility.yul\":8296:8363   */\n      tag_449\n      jump\t// in\n    tag_507:\n        /* \"#utility.yul\":8289:8363   */\n      swap2\n      pop\n        /* \"#utility.yul\":8372:8465   */\n      tag_508\n        /* \"#utility.yul\":8461:8464   */\n      dup3\n        /* \"#utility.yul\":8372:8465   */\n      tag_509\n      jump\t// in\n    tag_508:\n        /* \"#utility.yul\":8490:8492   */\n      0x20\n        /* \"#utility.yul\":8485:8488   */\n      dup3\n        /* \"#utility.yul\":8481:8493   */\n      add\n        /* \"#utility.yul\":8474:8493   */\n      swap1\n      pop\n        /* \"#utility.yul\":8133:8499   */\n      swap2\n      swap1\n      pop\n      jump\t// out\n        /* \"#utility.yul\":8505:8871   */\n    tag_510:\n        /* \"#utility.yul\":8647:8650   */\n      0x00\n        /* \"#utility.yul\":8668:8735   */\n      tag_512\n        /* \"#utility.yul\":8732:8734   */\n      0x19\n        /* \"#utility.yul\":8727:8730   */\n      dup4\n        /* \"#utility.yul\":8668:8735   */\n      tag_449\n      jump\t// in\n    tag_512:\n        /* \"#utility.yul\":8661:8735   */\n      swap2\n      pop\n        /* \"#utility.yul\":8744:8837   */\n      tag_513\n        /* \"#utility.yul\":8833:8836   */\n      dup3\n        /* \"#utility.yul\":8744:8837   */\n      tag_514\n      jump\t// in\n    tag_513:\n        /* \"#utility.yul\":8862:8864   */\n      0x20\n        /* \"#utility.yul\":8857:8860   */\n      dup3\n        /* \"#utility.yul\":8853:8865   */\n      add\n        /* \"#utility.yul\":8846:8865   */\n      swap1\n      pop\n        /* \"#utility.yul\":8505:8871   */\n      swap2\n      swap1\n      pop\n      jump\t// out\n        /* \"#utility.yul\":8877:9277   */\n    tag_515:\n        /* \"#utility.yul\":9037:9040   */\n      0x00\n        /* \"#utility.yul\":9058:9142   */\n      tag_517\n        /* \"#utility.yul\":9140:9141   */\n      0x07\n        /* \"#utility.yul\":9135:9138   */\n      dup4\n        /* \"#utility.yul\":9058:9142   */\n      tag_458\n      jump\t// in\n    tag_517:\n        /* \"#utility.yul\":9051:9142   */\n      swap2\n      pop\n        /* \"#utility.yul\":9151:9244   */\n      tag_518\n        /* \"#utility.yul\":9240:9243   */\n      dup3\n        /* \"#utility.yul\":9151:9244   */\n      tag_519\n      jump\t// in\n    tag_518:\n        /* \"#utility.yul\":9269:9270   */\n      0x07\n        /* \"#utility.yul\":9264:9267   */\n      dup3\n        /* \"#utility.yul\":9260:9271   */\n      add\n        /* \"#utility.yul\":9253:9271   */\n      swap1\n      pop\n        /* \"#utility.yul\":8877:9277   */\n      swap2\n      swap1\n      pop\n      jump\t// out\n        /* \"#utility.yul\":9283:9649   */\n    tag_520:\n        /* \"#utility.yul\":9425:9428   */\n      0x00\n        /* \"#utility.yul\":9446:9513   */\n      tag_522\n        /* \"#utility.yul\":9510:9512   */\n      0x1d\n        /* \"#utility.yul\":9505:9508   */\n      dup4\n        /* \"#utility.yul\":9446:9513   */\n      tag_449\n      jump\t// in\n    tag_522:\n        /* \"#utility.yul\":9439:9513   */\n      swap2\n      pop\n        /* \"#utility.yul\":9522:9615   */\n      tag_523\n        /* \"#utility.yul\":9611:9614   */\n      dup3\n        /* \"#utility.yul\":9522:9615   */\n      tag_524\n      jump\t// in\n    tag_523:\n        /* \"#utility.yul\":9640:9642   */\n      0x20\n        /* \"#utility.yul\":9635:9638   */\n      dup3\n        /* \"#utility.yul\":9631:9643   */\n      add\n        /* \"#utility.yul\":9624:9643   */\n      swap1\n      pop\n        /* \"#utility.yul\":9283:9649   */\n      swap2\n      swap1\n      pop\n      jump\t// out\n        /* \"#utility.yul\":9655:10021   */\n    tag_525:\n        /* \"#utility.yul\":9797:9800   */\n      0x00\n        /* \"#utility.yul\":9818:9885   */\n      tag_527\n        /* \"#utility.yul\":9882:9884   */\n      0x21\n        /* \"#utility.yul\":9877:9880   */\n      dup4\n        /* \"#utility.yul\":9818:9885   */\n      tag_449\n      jump\t// in\n    tag_527:\n        /* \"#utility.yul\":9811:9885   */\n      swap2\n      pop\n        /* \"#utility.yul\":9894:9987   */\n      tag_528\n        /* \"#utility.yul\":9983:9986   */\n      dup3\n        /* \"#utility.yul\":9894:9987   */\n      tag_529\n      jump\t// in\n    tag_528:\n        /* \"#utility.yul\":10012:10014   */\n      0x40\n        /* \"#utility.yul\":10007:10010   */\n      dup3\n        /* \"#utility.yul\":10003:10015   */\n      add\n        /* \"#utility.yul\":9996:10015   */\n      swap1\n      pop\n        /* \"#utility.yul\":9655:10021   */\n      swap2\n      swap1\n      pop\n      jump\t// out\n        /* \"#utility.yul\":10027:10135   */\n    tag_412:\n        /* \"#utility.yul\":10104:10128   */\n      tag_531\n        /* \"#utility.yul\":10122:10127   */\n      dup2\n        /* \"#utility.yul\":10104:10128   */\n      tag_532\n      jump\t// in\n    tag_531:\n        /* \"#utility.yul\":10099:10102   */\n      dup3\n        /* \"#utility.yul\":10092:10129   */\n      mstore\n        /* \"#utility.yul\":10027:10135   */\n      pop\n      pop\n      jump\t// out\n        /* \"#utility.yul\":10141:10259   */\n    tag_533:\n        /* \"#utility.yul\":10228:10252   */\n      tag_535\n        /* \"#utility.yul\":10246:10251   */\n      dup2\n        /* \"#utility.yul\":10228:10252   */\n      tag_532\n      jump\t// in\n    tag_535:\n        /* \"#utility.yul\":10223:10226   */\n      dup3\n        /* \"#utility.yul\":10216:10253   */\n      mstore\n        /* \"#utility.yul\":10141:10259   */\n      pop\n      pop\n      jump\t// out\n        /* \"#utility.yul\":10265:10422   */\n    tag_536:\n        /* \"#utility.yul\":10370:10415   */\n      tag_538\n        /* \"#utility.yul\":10390:10414   */\n      tag_539\n        /* \"#utility.yul\":10408:10413   */\n      dup3\n        /* \"#utility.yul\":10390:10414   */\n      tag_532\n      jump\t// in\n    tag_539:\n        /* \"#utility.yul\":10370:10415   */\n      tag_540\n      jump\t// in\n    tag_538:\n        /* \"#utility.yul\":10365:10368   */\n      dup3\n        /* \"#utility.yul\":10358:10416   */\n      mstore\n        /* \"#utility.yul\":10265:10422   */\n      pop\n      pop\n      jump\t// out\n        /* \"#utility.yul\":10428:10969   */\n    tag_247:\n        /* \"#utility.yul\":10661:10664   */\n      0x00\n        /* \"#utility.yul\":10683:10831   */\n      tag_542\n        /* \"#utility.yul\":10827:10830   */\n      dup3\n        /* \"#utility.yul\":10683:10831   */\n      tag_470\n      jump\t// in\n    tag_542:\n        /* \"#utility.yul\":10676:10831   */\n      swap2\n      pop\n        /* \"#utility.yul\":10848:10943   */\n      tag_543\n        /* \"#utility.yul\":10939:10942   */\n      dup3\n        /* \"#utility.yul\":10930:10936   */\n      dup5\n        /* \"#utility.yul\":10848:10943   */\n      tag_454\n      jump\t// in\n    tag_543:\n        /* \"#utility.yul\":10841:10943   */\n      swap2\n      pop\n        /* \"#utility.yul\":10960:10963   */\n      dup2\n        /* \"#utility.yul\":10953:10963   */\n      swap1\n      pop\n        /* \"#utility.yul\":10428:10969   */\n      swap3\n      swap2\n      pop\n      pop\n      jump\t// out\n        /* \"#utility.yul\":10975:11516   */\n    tag_256:\n        /* \"#utility.yul\":11208:11211   */\n      0x00\n        /* \"#utility.yul\":11230:11378   */\n      tag_545\n        /* \"#utility.yul\":11374:11377   */\n      dup3\n        /* \"#utility.yul\":11230:11378   */\n      tag_475\n      jump\t// in\n    tag_545:\n        /* \"#utility.yul\":11223:11378   */\n      swap2\n      pop\n        /* \"#utility.yul\":11395:11490   */\n      tag_546\n        /* \"#utility.yul\":11486:11489   */\n      dup3\n        /* \"#utility.yul\":11477:11483   */\n      dup5\n        /* \"#utility.yul\":11395:11490   */\n      tag_454\n      jump\t// in\n    tag_546:\n        /* \"#utility.yul\":11388:11490   */\n      swap2\n      pop\n        /* \"#utility.yul\":11507:11510   */\n      dup2\n        /* \"#utility.yul\":11500:11510   */\n      swap1\n      pop\n        /* \"#utility.yul\":10975:11516   */\n      swap3\n      swap2\n      pop\n      pop\n      jump\t// out\n        /* \"#utility.yul\":11522:12063   */\n    tag_264:\n        /* \"#utility.yul\":11755:11758   */\n      0x00\n        /* \"#utility.yul\":11777:11925   */\n      tag_548\n        /* \"#utility.yul\":11921:11924   */\n      dup3\n        /* \"#utility.yul\":11777:11925   */\n      tag_515\n      jump\t// in\n    tag_548:\n        /* \"#utility.yul\":11770:11925   */\n      swap2\n      pop\n        /* \"#utility.yul\":11942:12037   */\n      tag_549\n        /* \"#utility.yul\":12033:12036   */\n      dup3\n        /* \"#utility.yul\":12024:12030   */\n      dup5\n        /* \"#utility.yul\":11942:12037   */\n      tag_454\n      jump\t// in\n    tag_549:\n        /* \"#utility.yul\":11935:12037   */\n      swap2\n      pop\n        /* \"#utility.yul\":12054:12057   */\n      dup2\n        /* \"#utility.yul\":12047:12057   */\n      swap1\n      pop\n        /* \"#utility.yul\":11522:12063   */\n      swap3\n      swap2\n      pop\n      pop\n      jump\t// out\n        /* \"#utility.yul\":12069:12466   */\n    tag_230:\n        /* \"#utility.yul\":12209:12212   */\n      0x00\n        /* \"#utility.yul\":12224:12299   */\n      tag_551\n        /* \"#utility.yul\":12295:12298   */\n      dup3\n        /* \"#utility.yul\":12286:12292   */\n      dup6\n        /* \"#utility.yul\":12224:12299   */\n      tag_536\n      jump\t// in\n    tag_551:\n        /* \"#utility.yul\":12324:12326   */\n      0x20\n        /* \"#utility.yul\":12319:12322   */\n      dup3\n        /* \"#utility.yul\":12315:12327   */\n      add\n        /* \"#utility.yul\":12308:12327   */\n      swap2\n      pop\n        /* \"#utility.yul\":12337:12412   */\n      tag_552\n        /* \"#utility.yul\":12408:12411   */\n      dup3\n        /* \"#utility.yul\":12399:12405   */\n      dup5\n        /* \"#utility.yul\":12337:12412   */\n      tag_421\n      jump\t// in\n    tag_552:\n        /* \"#utility.yul\":12437:12439   */\n      0x14\n        /* \"#utility.yul\":12432:12435   */\n      dup3\n        /* \"#utility.yul\":12428:12440   */\n      add\n        /* \"#utility.yul\":12421:12440   */\n      swap2\n      pop\n        /* \"#utility.yul\":12457:12460   */\n      dup2\n        /* \"#utility.yul\":12450:12460   */\n      swap1\n      pop\n        /* \"#utility.yul\":12069:12466   */\n      swap4\n      swap3\n      pop\n      pop\n      pop\n      jump\t// out\n        /* \"#utility.yul\":12472:12726   */\n    tag_73:\n        /* \"#utility.yul\":12581:12585   */\n      0x00\n        /* \"#utility.yul\":12619:12621   */\n      0x20\n        /* \"#utility.yul\":12608:12617   */\n      dup3\n        /* \"#utility.yul\":12604:12622   */\n      add\n        /* \"#utility.yul\":12596:12622   */\n      swap1\n      pop\n        /* \"#utility.yul\":12632:12719   */\n      tag_554\n        /* \"#utility.yul\":12716:12717   */\n      0x00\n        /* \"#utility.yul\":12705:12714   */\n      dup4\n        /* \"#utility.yul\":12701:12718   */\n      add\n        /* \"#utility.yul\":12692:12698   */\n      dup5\n        /* \"#utility.yul\":12632:12719   */\n      tag_413\n      jump\t// in\n    tag_554:\n        /* \"#utility.yul\":12472:12726   */\n      swap3\n      swap2\n      pop\n      pop\n      jump\t// out\n        /* \"#utility.yul\":12732:13487   */\n    tag_330:\n        /* \"#utility.yul\":12957:12961   */\n      0x00\n        /* \"#utility.yul\":12995:12998   */\n      0xa0\n        /* \"#utility.yul\":12984:12993   */\n      dup3\n        /* \"#utility.yul\":12980:12999   */\n      add\n        /* \"#utility.yul\":12972:12999   */\n      swap1\n      pop\n        /* \"#utility.yul\":13009:13080   */\n      tag_556\n        /* \"#utility.yul\":13077:13078   */\n      0x00\n        /* \"#utility.yul\":13066:13075   */\n      dup4\n        /* \"#utility.yul\":13062:13079   */\n      add\n        /* \"#utility.yul\":13053:13059   */\n      dup9\n        /* \"#utility.yul\":13009:13080   */\n      tag_417\n      jump\t// in\n    tag_556:\n        /* \"#utility.yul\":13090:13162   */\n      tag_557\n        /* \"#utility.yul\":13158:13160   */\n      0x20\n        /* \"#utility.yul\":13147:13156   */\n      dup4\n        /* \"#utility.yul\":13143:13161   */\n      add\n        /* \"#utility.yul\":13134:13140   */\n      dup8\n        /* \"#utility.yul\":13090:13162   */\n      tag_417\n      jump\t// in\n    tag_557:\n        /* \"#utility.yul\":13172:13244   */\n      tag_558\n        /* \"#utility.yul\":13240:13242   */\n      0x40\n        /* \"#utility.yul\":13229:13238   */\n      dup4\n        /* \"#utility.yul\":13225:13243   */\n      add\n        /* \"#utility.yul\":13216:13222   */\n      dup7\n        /* \"#utility.yul\":13172:13244   */\n      tag_533\n      jump\t// in\n    tag_558:\n        /* \"#utility.yul\":13254:13326   */\n      tag_559\n        /* \"#utility.yul\":13322:13324   */\n      0x60\n        /* \"#utility.yul\":13311:13320   */\n      dup4\n        /* \"#utility.yul\":13307:13325   */\n      add\n        /* \"#utility.yul\":13298:13304   */\n      dup6\n        /* \"#utility.yul\":13254:13326   */\n      tag_533\n      jump\t// in\n    tag_559:\n        /* \"#utility.yul\":13374:13383   */\n      dup2\n        /* \"#utility.yul\":13368:13372   */\n      dup2\n        /* \"#utility.yul\":13364:13384   */\n      sub\n        /* \"#utility.yul\":13358:13361   */\n      0x80\n        /* \"#utility.yul\":13347:13356   */\n      dup4\n        /* \"#utility.yul\":13343:13362   */\n      add\n        /* \"#utility.yul\":13336:13385   */\n      mstore\n        /* \"#utility.yul\":13402:13480   */\n      tag_560\n        /* \"#utility.yul\":13475:13479   */\n      dup2\n        /* \"#utility.yul\":13466:13472   */\n      dup5\n        /* \"#utility.yul\":13402:13480   */\n      tag_444\n      jump\t// in\n    tag_560:\n        /* \"#utility.yul\":13394:13480   */\n      swap1\n      pop\n        /* \"#utility.yul\":12732:13487   */\n      swap7\n      swap6\n      pop\n      pop\n      pop\n      pop\n      pop\n      pop\n      jump\t// out\n        /* \"#utility.yul\":13493:13866   */\n    tag_42:\n        /* \"#utility.yul\":13636:13640   */\n      0x00\n        /* \"#utility.yul\":13674:13676   */\n      0x20\n        /* \"#utility.yul\":13663:13672   */\n      dup3\n        /* \"#utility.yul\":13659:13677   */\n      add\n        /* \"#utility.yul\":13651:13677   */\n      swap1\n      pop\n        /* \"#utility.yul\":13723:13732   */\n      dup2\n        /* \"#utility.yul\":13717:13721   */\n      dup2\n        /* \"#utility.yul\":13713:13733   */\n      sub\n        /* \"#utility.yul\":13709:13710   */\n      0x00\n        /* \"#utility.yul\":13698:13707   */\n      dup4\n        /* \"#utility.yul\":13694:13711   */\n      add\n        /* \"#utility.yul\":13687:13734   */\n      mstore\n        /* \"#utility.yul\":13751:13859   */\n      tag_562\n        /* \"#utility.yul\":13854:13858   */\n      dup2\n        /* \"#utility.yul\":13845:13851   */\n      dup5\n        /* \"#utility.yul\":13751:13859   */\n      tag_426\n      jump\t// in\n    tag_562:\n        /* \"#utility.yul\":13743:13859   */\n      swap1\n      pop\n        /* \"#utility.yul\":13493:13866   */\n      swap3\n      swap2\n      pop\n      pop\n      jump\t// out\n        /* \"#utility.yul\":13872:14082   */\n    tag_32:\n        /* \"#utility.yul\":13959:13963   */\n      0x00\n        /* \"#utility.yul\":13997:13999   */\n      0x20\n        /* \"#utility.yul\":13986:13995   */\n      dup3\n        /* \"#utility.yul\":13982:14000   */\n      add\n        /* \"#utility.yul\":13974:14000   */\n      swap1\n      pop\n        /* \"#utility.yul\":14010:14075   */\n      tag_564\n        /* \"#utility.yul\":14072:14073   */\n      0x00\n        /* \"#utility.yul\":14061:14070   */\n      dup4\n        /* \"#utility.yul\":14057:14074   */\n      add\n        /* \"#utility.yul\":14048:14054   */\n      dup5\n        /* \"#utility.yul\":14010:14075   */\n      tag_440\n      jump\t// in\n    tag_564:\n        /* \"#utility.yul\":13872:14082   */\n      swap3\n      swap2\n      pop\n      pop\n      jump\t// out\n        /* \"#utility.yul\":14088:14401   */\n    tag_345:\n        /* \"#utility.yul\":14201:14205   */\n      0x00\n        /* \"#utility.yul\":14239:14241   */\n      0x20\n        /* \"#utility.yul\":14228:14237   */\n      dup3\n        /* \"#utility.yul\":14224:14242   */\n      add\n        /* \"#utility.yul\":14216:14242   */\n      swap1\n      pop\n        /* \"#utility.yul\":14288:14297   */\n      dup2\n        /* \"#utility.yul\":14282:14286   */\n      dup2\n        /* \"#utility.yul\":14278:14298   */\n      sub\n        /* \"#utility.yul\":14274:14275   */\n      0x00\n        /* \"#utility.yul\":14263:14272   */\n      dup4\n        /* \"#utility.yul\":14259:14276   */\n      add\n        /* \"#utility.yul\":14252:14299   */\n      mstore\n        /* \"#utility.yul\":14316:14394   */\n      tag_566\n        /* \"#utility.yul\":14389:14393   */\n      dup2\n        /* \"#utility.yul\":14380:14386   */\n      dup5\n        /* \"#utility.yul\":14316:14394   */\n      tag_444\n      jump\t// in\n    tag_566:\n        /* \"#utility.yul\":14308:14394   */\n      swap1\n      pop\n        /* \"#utility.yul\":14088:14401   */\n      swap3\n      swap2\n      pop\n      pop\n      jump\t// out\n        /* \"#utility.yul\":14407:14826   */\n    tag_347:\n        /* \"#utility.yul\":14573:14577   */\n      0x00\n        /* \"#utility.yul\":14611:14613   */\n      0x20\n        /* \"#utility.yul\":14600:14609   */\n      dup3\n        /* \"#utility.yul\":14596:14614   */\n      add\n        /* \"#utility.yul\":14588:14614   */\n      swap1\n      pop\n        /* \"#utility.yul\":14660:14669   */\n      dup2\n        /* \"#utility.yul\":14654:14658   */\n      dup2\n        /* \"#utility.yul\":14650:14670   */\n      sub\n        /* \"#utility.yul\":14646:14647   */\n      0x00\n        /* \"#utility.yul\":14635:14644   */\n      dup4\n        /* \"#utility.yul\":14631:14648   */\n      add\n        /* \"#utility.yul\":14624:14671   */\n      mstore\n        /* \"#utility.yul\":14688:14819   */\n      tag_568\n        /* \"#utility.yul\":14814:14818   */\n      dup2\n        /* \"#utility.yul\":14688:14819   */\n      tag_460\n      jump\t// in\n    tag_568:\n        /* \"#utility.yul\":14680:14819   */\n      swap1\n      pop\n        /* \"#utility.yul\":14407:14826   */\n      swap2\n      swap1\n      pop\n      jump\t// out\n        /* \"#utility.yul\":14832:15251   */\n    tag_351:\n        /* \"#utility.yul\":14998:15002   */\n      0x00\n        /* \"#utility.yul\":15036:15038   */\n      0x20\n        /* \"#utility.yul\":15025:15034   */\n      dup3\n        /* \"#utility.yul\":15021:15039   */\n      add\n        /* \"#utility.yul\":15013:15039   */\n      swap1\n      pop\n        /* \"#utility.yul\":15085:15094   */\n      dup2\n        /* \"#utility.yul\":15079:15083   */\n      dup2\n        /* \"#utility.yul\":15075:15095   */\n      sub\n        /* \"#utility.yul\":15071:15072   */\n      0x00\n        /* \"#utility.yul\":15060:15069   */\n      dup4\n        /* \"#utility.yul\":15056:15073   */\n      add\n        /* \"#utility.yul\":15049:15096   */\n      mstore\n        /* \"#utility.yul\":15113:15244   */\n      tag_570\n        /* \"#utility.yul\":15239:15243   */\n      dup2\n        /* \"#utility.yul\":15113:15244   */\n      tag_465\n      jump\t// in\n    tag_570:\n        /* \"#utility.yul\":15105:15244   */\n      swap1\n      pop\n        /* \"#utility.yul\":14832:15251   */\n      swap2\n      swap1\n      pop\n      jump\t// out\n        /* \"#utility.yul\":15257:15676   */\n    tag_178:\n        /* \"#utility.yul\":15423:15427   */\n      0x00\n        /* \"#utility.yul\":15461:15463   */\n      0x20\n        /* \"#utility.yul\":15450:15459   */\n      dup3\n        /* \"#utility.yul\":15446:15464   */\n      add\n        /* \"#utility.yul\":15438:15464   */\n      swap1\n      pop\n        /* \"#utility.yul\":15510:15519   */\n      dup2\n        /* \"#utility.yul\":15504:15508   */\n      dup2\n        /* \"#utility.yul\":15500:15520   */\n      sub\n        /* \"#utility.yul\":15496:15497   */\n      0x00\n        /* \"#utility.yul\":15485:15494   */\n      dup4\n        /* \"#utility.yul\":15481:15498   */\n      add\n        /* \"#utility.yul\":15474:15521   */\n      mstore\n        /* \"#utility.yul\":15538:15669   */\n      tag_572\n        /* \"#utility.yul\":15664:15668   */\n      dup2\n        /* \"#utility.yul\":15538:15669   */\n      tag_480\n      jump\t// in\n    tag_572:\n        /* \"#utility.yul\":15530:15669   */\n      swap1\n      pop\n        /* \"#utility.yul\":15257:15676   */\n      swap2\n      swap1\n      pop\n      jump\t// out\n        /* \"#utility.yul\":15682:16101   */\n    tag_108:\n        /* \"#utility.yul\":15848:15852   */\n      0x00\n        /* \"#utility.yul\":15886:15888   */\n      0x20\n        /* \"#utility.yul\":15875:15884   */\n      dup3\n        /* \"#utility.yul\":15871:15889   */\n      add\n        /* \"#utility.yul\":15863:15889   */\n      swap1\n      pop\n        /* \"#utility.yul\":15935:15944   */\n      dup2\n        /* \"#utility.yul\":15929:15933   */\n      dup2\n        /* \"#utility.yul\":15925:15945   */\n      sub\n        /* \"#utility.yul\":15921:15922   */\n      0x00\n        /* \"#utility.yul\":15910:15919   */\n      dup4\n        /* \"#utility.yul\":15906:15923   */\n      add\n        /* \"#utility.yul\":15899:15946   */\n      mstore\n        /* \"#utility.yul\":15963:16094   */\n      tag_574\n        /* \"#utility.yul\":16089:16093   */\n      dup2\n        /* \"#utility.yul\":15963:16094   */\n      tag_485\n      jump\t// in\n    tag_574:\n        /* \"#utility.yul\":15955:16094   */\n      swap1\n      pop\n        /* \"#utility.yul\":15682:16101   */\n      swap2\n      swap1\n      pop\n      jump\t// out\n        /* \"#utility.yul\":16107:16526   */\n    tag_212:\n        /* \"#utility.yul\":16273:16277   */\n      0x00\n        /* \"#utility.yul\":16311:16313   */\n      0x20\n        /* \"#utility.yul\":16300:16309   */\n      dup3\n        /* \"#utility.yul\":16296:16314   */\n      add\n        /* \"#utility.yul\":16288:16314   */\n      swap1\n      pop\n        /* \"#utility.yul\":16360:16369   */\n      dup2\n        /* \"#utility.yul\":16354:16358   */\n      dup2\n        /* \"#utility.yul\":16350:16370   */\n      sub\n        /* \"#utility.yul\":16346:16347   */\n      0x00\n        /* \"#utility.yul\":16335:16344   */\n      dup4\n        /* \"#utility.yul\":16331:16348   */\n      add\n        /* \"#utility.yul\":16324:16371   */\n      mstore\n        /* \"#utility.yul\":16388:16519   */\n      tag_576\n        /* \"#utility.yul\":16514:16518   */\n      dup2\n        /* \"#utility.yul\":16388:16519   */\n      tag_490\n      jump\t// in\n    tag_576:\n        /* \"#utility.yul\":16380:16519   */\n      swap1\n      pop\n        /* \"#utility.yul\":16107:16526   */\n      swap2\n      swap1\n      pop\n      jump\t// out\n        /* \"#utility.yul\":16532:16951   */\n    tag_121:\n        /* \"#utility.yul\":16698:16702   */\n      0x00\n        /* \"#utility.yul\":16736:16738   */\n      0x20\n        /* \"#utility.yul\":16725:16734   */\n      dup3\n        /* \"#utility.yul\":16721:16739   */\n      add\n        /* \"#utility.yul\":16713:16739   */\n      swap1\n      pop\n        /* \"#utility.yul\":16785:16794   */\n      dup2\n        /* \"#utility.yul\":16779:16783   */\n      dup2\n        /* \"#utility.yul\":16775:16795   */\n      sub\n        /* \"#utility.yul\":16771:16772   */\n      0x00\n        /* \"#utility.yul\":16760:16769   */\n      dup4\n        /* \"#utility.yul\":16756:16773   */\n      add\n        /* \"#utility.yul\":16749:16796   */\n      mstore\n        /* \"#utility.yul\":16813:16944   */\n      tag_578\n        /* \"#utility.yul\":16939:16943   */\n      dup2\n        /* \"#utility.yul\":16813:16944   */\n      tag_495\n      jump\t// in\n    tag_578:\n        /* \"#utility.yul\":16805:16944   */\n      swap1\n      pop\n        /* \"#utility.yul\":16532:16951   */\n      swap2\n      swap1\n      pop\n      jump\t// out\n        /* \"#utility.yul\":16957:17376   */\n    tag_89:\n        /* \"#utility.yul\":17123:17127   */\n      0x00\n        /* \"#utility.yul\":17161:17163   */\n      0x20\n        /* \"#utility.yul\":17150:17159   */\n      dup3\n        /* \"#utility.yul\":17146:17164   */\n      add\n        /* \"#utility.yul\":17138:17164   */\n      swap1\n      pop\n        /* \"#utility.yul\":17210:17219   */\n      dup2\n        /* \"#utility.yul\":17204:17208   */\n      dup2\n        /* \"#utility.yul\":17200:17220   */\n      sub\n        /* \"#utility.yul\":17196:17197   */\n      0x00\n        /* \"#utility.yul\":17185:17194   */\n      dup4\n        /* \"#utility.yul\":17181:17198   */\n      add\n        /* \"#utility.yul\":17174:17221   */\n      mstore\n        /* \"#utility.yul\":17238:17369   */\n      tag_580\n        /* \"#utility.yul\":17364:17368   */\n      dup2\n        /* \"#utility.yul\":17238:17369   */\n      tag_500\n      jump\t// in\n    tag_580:\n        /* \"#utility.yul\":17230:17369   */\n      swap1\n      pop\n        /* \"#utility.yul\":16957:17376   */\n      swap2\n      swap1\n      pop\n      jump\t// out\n        /* \"#utility.yul\":17382:17801   */\n    tag_116:\n        /* \"#utility.yul\":17548:17552   */\n      0x00\n        /* \"#utility.yul\":17586:17588   */\n      0x20\n        /* \"#utility.yul\":17575:17584   */\n      dup3\n        /* \"#utility.yul\":17571:17589   */\n      add\n        /* \"#utility.yul\":17563:17589   */\n      swap1\n      pop\n        /* \"#utility.yul\":17635:17644   */\n      dup2\n        /* \"#utility.yul\":17629:17633   */\n      dup2\n        /* \"#utility.yul\":17625:17645   */\n      sub\n        /* \"#utility.yul\":17621:17622   */\n      0x00\n        /* \"#utility.yul\":17610:17619   */\n      dup4\n        /* \"#utility.yul\":17606:17623   */\n      add\n        /* \"#utility.yul\":17599:17646   */\n      mstore\n        /* \"#utility.yul\":17663:17794   */\n      tag_582\n        /* \"#utility.yul\":17789:17793   */\n      dup2\n        /* \"#utility.yul\":17663:17794   */\n      tag_505\n      jump\t// in\n    tag_582:\n        /* \"#utility.yul\":17655:17794   */\n      swap1\n      pop\n        /* \"#utility.yul\":17382:17801   */\n      swap2\n      swap1\n      pop\n      jump\t// out\n        /* \"#utility.yul\":17807:18226   */\n    tag_124:\n        /* \"#utility.yul\":17973:17977   */\n      0x00\n        /* \"#utility.yul\":18011:18013   */\n      0x20\n        /* \"#utility.yul\":18000:18009   */\n      dup3\n        /* \"#utility.yul\":17996:18014   */\n      add\n        /* \"#utility.yul\":17988:18014   */\n      swap1\n      pop\n        /* \"#utility.yul\":18060:18069   */\n      dup2\n        /* \"#utility.yul\":18054:18058   */\n      dup2\n        /* \"#utility.yul\":18050:18070   */\n      sub\n        /* \"#utility.yul\":18046:18047   */\n      0x00\n        /* \"#utility.yul\":18035:18044   */\n      dup4\n        /* \"#utility.yul\":18031:18048   */\n      add\n        /* \"#utility.yul\":18024:18071   */\n      mstore\n        /* \"#utility.yul\":18088:18219   */\n      tag_584\n        /* \"#utility.yul\":18214:18218   */\n      dup2\n        /* \"#utility.yul\":18088:18219   */\n      tag_510\n      jump\t// in\n    tag_584:\n        /* \"#utility.yul\":18080:18219   */\n      swap1\n      pop\n        /* \"#utility.yul\":17807:18226   */\n      swap2\n      swap1\n      pop\n      jump\t// out\n        /* \"#utility.yul\":18232:18651   */\n    tag_98:\n        /* \"#utility.yul\":18398:18402   */\n      0x00\n        /* \"#utility.yul\":18436:18438   */\n      0x20\n        /* \"#utility.yul\":18425:18434   */\n      dup3\n        /* \"#utility.yul\":18421:18439   */\n      add\n        /* \"#utility.yul\":18413:18439   */\n      swap1\n      pop\n        /* \"#utility.yul\":18485:18494   */\n      dup2\n        /* \"#utility.yul\":18479:18483   */\n      dup2\n        /* \"#utility.yul\":18475:18495   */\n      sub\n        /* \"#utility.yul\":18471:18472   */\n      0x00\n        /* \"#utility.yul\":18460:18469   */\n      dup4\n        /* \"#utility.yul\":18456:18473   */\n      add\n        /* \"#utility.yul\":18449:18496   */\n      mstore\n        /* \"#utility.yul\":18513:18644   */\n      tag_586\n        /* \"#utility.yul\":18639:18643   */\n      dup2\n        /* \"#utility.yul\":18513:18644   */\n      tag_520\n      jump\t// in\n    tag_586:\n        /* \"#utility.yul\":18505:18644   */\n      swap1\n      pop\n        /* \"#utility.yul\":18232:18651   */\n      swap2\n      swap1\n      pop\n      jump\t// out\n        /* \"#utility.yul\":18657:19076   */\n    tag_283:\n        /* \"#utility.yul\":18823:18827   */\n      0x00\n        /* \"#utility.yul\":18861:18863   */\n      0x20\n        /* \"#utility.yul\":18850:18859   */\n      dup3\n        /* \"#utility.yul\":18846:18864   */\n      add\n        /* \"#utility.yul\":18838:18864   */\n      swap1\n      pop\n        /* \"#utility.yul\":18910:18919   */\n      dup2\n        /* \"#utility.yul\":18904:18908   */\n      dup2\n        /* \"#utility.yul\":18900:18920   */\n      sub\n        /* \"#utility.yul\":18896:18897   */\n      0x00\n        /* \"#utility.yul\":18885:18894   */\n      dup4\n        /* \"#utility.yul\":18881:18898   */\n      add\n        /* \"#utility.yul\":18874:18921   */\n      mstore\n        /* \"#utility.yul\":18938:19069   */\n      tag_588\n        /* \"#utility.yul\":19064:19068   */\n      dup2\n        /* \"#utility.yul\":18938:19069   */\n      tag_525\n      jump\t// in\n    tag_588:\n        /* \"#utility.yul\":18930:19069   */\n      swap1\n      pop\n        /* \"#utility.yul\":18657:19076   */\n      swap2\n      swap1\n      pop\n      jump\t// out\n        /* \"#utility.yul\":19082:19304   */\n    tag_23:\n        /* \"#utility.yul\":19175:19179   */\n      0x00\n        /* \"#utility.yul\":19213:19215   */\n      0x20\n        /* \"#utility.yul\":19202:19211   */\n      dup3\n        /* \"#utility.yul\":19198:19216   */\n      add\n        /* \"#utility.yul\":19190:19216   */\n      swap1\n      pop\n        /* \"#utility.yul\":19226:19297   */\n      tag_590\n        /* \"#utility.yul\":19294:19295   */\n      0x00\n        /* \"#utility.yul\":19283:19292   */\n      dup4\n        /* \"#utility.yul\":19279:19296   */\n      add\n        /* \"#utility.yul\":19270:19276   */\n      dup5\n        /* \"#utility.yul\":19226:19297   */\n      tag_533\n      jump\t// in\n    tag_590:\n        /* \"#utility.yul\":19082:19304   */\n      swap3\n      swap2\n      pop\n      pop\n      jump\t// out\n        /* \"#utility.yul\":19310:19733   */\n    tag_52:\n        /* \"#utility.yul\":19451:19455   */\n      0x00\n        /* \"#utility.yul\":19489:19491   */\n      0x40\n        /* \"#utility.yul\":19478:19487   */\n      dup3\n        /* \"#utility.yul\":19474:19492   */\n      add\n        /* \"#utility.yul\":19466:19492   */\n      swap1\n      pop\n        /* \"#utility.yul\":19502:19573   */\n      tag_592\n        /* \"#utility.yul\":19570:19571   */\n      0x00\n        /* \"#utility.yul\":19559:19568   */\n      dup4\n        /* \"#utility.yul\":19555:19572   */\n      add\n        /* \"#utility.yul\":19546:19552   */\n      dup6\n        /* \"#utility.yul\":19502:19573   */\n      tag_533\n      jump\t// in\n    tag_592:\n        /* \"#utility.yul\":19620:19629   */\n      dup2\n        /* \"#utility.yul\":19614:19618   */\n      dup2\n        /* \"#utility.yul\":19610:19630   */\n      sub\n        /* \"#utility.yul\":19605:19607   */\n      0x20\n        /* \"#utility.yul\":19594:19603   */\n      dup4\n        /* \"#utility.yul\":19590:19608   */\n      add\n        /* \"#utility.yul\":19583:19631   */\n      mstore\n        /* \"#utility.yul\":19648:19726   */\n      tag_593\n        /* \"#utility.yul\":19721:19725   */\n      dup2\n        /* \"#utility.yul\":19712:19718   */\n      dup5\n        /* \"#utility.yul\":19648:19726   */\n      tag_444\n      jump\t// in\n    tag_593:\n        /* \"#utility.yul\":19640:19726   */\n      swap1\n      pop\n        /* \"#utility.yul\":19310:19733   */\n      swap4\n      swap3\n      pop\n      pop\n      pop\n      jump\t// out\n        /* \"#utility.yul\":19739:20071   */\n    tag_293:\n        /* \"#utility.yul\":19860:19864   */\n      0x00\n        /* \"#utility.yul\":19898:19900   */\n      0x40\n        /* \"#utility.yul\":19887:19896   */\n      dup3\n        /* \"#utility.yul\":19883:19901   */\n      add\n        /* \"#utility.yul\":19875:19901   */\n      swap1\n      pop\n        /* \"#utility.yul\":19911:19982   */\n      tag_595\n        /* \"#utility.yul\":19979:19980   */\n      0x00\n        /* \"#utility.yul\":19968:19977   */\n      dup4\n        /* \"#utility.yul\":19964:19981   */\n      add\n        /* \"#utility.yul\":19955:19961   */\n      dup6\n        /* \"#utility.yul\":19911:19982   */\n      tag_533\n      jump\t// in\n    tag_595:\n        /* \"#utility.yul\":19992:20064   */\n      tag_596\n        /* \"#utility.yul\":20060:20062   */\n      0x20\n        /* \"#utility.yul\":20049:20058   */\n      dup4\n        /* \"#utility.yul\":20045:20063   */\n      add\n        /* \"#utility.yul\":20036:20042   */\n      dup5\n        /* \"#utility.yul\":19992:20064   */\n      tag_533\n      jump\t// in\n    tag_596:\n        /* \"#utility.yul\":19739:20071   */\n      swap4\n      swap3\n      pop\n      pop\n      pop\n      jump\t// out\n        /* \"#utility.yul\":20077:20519   */\n    tag_61:\n        /* \"#utility.yul\":20226:20230   */\n      0x00\n        /* \"#utility.yul\":20264:20266   */\n      0x60\n        /* \"#utility.yul\":20253:20262   */\n      dup3\n        /* \"#utility.yul\":20249:20267   */\n      add\n        /* \"#utility.yul\":20241:20267   */\n      swap1\n      pop\n        /* \"#utility.yul\":20277:20348   */\n      tag_598\n        /* \"#utility.yul\":20345:20346   */\n      0x00\n        /* \"#utility.yul\":20334:20343   */\n      dup4\n        /* \"#utility.yul\":20330:20347   */\n      add\n        /* \"#utility.yul\":20321:20327   */\n      dup7\n        /* \"#utility.yul\":20277:20348   */\n      tag_533\n      jump\t// in\n    tag_598:\n        /* \"#utility.yul\":20358:20430   */\n      tag_599\n        /* \"#utility.yul\":20426:20428   */\n      0x20\n        /* \"#utility.yul\":20415:20424   */\n      dup4\n        /* \"#utility.yul\":20411:20429   */\n      add\n        /* \"#utility.yul\":20402:20408   */\n      dup6\n        /* \"#utility.yul\":20358:20430   */\n      tag_533\n      jump\t// in\n    tag_599:\n        /* \"#utility.yul\":20440:20512   */\n      tag_600\n        /* \"#utility.yul\":20508:20510   */\n      0x40\n        /* \"#utility.yul\":20497:20506   */\n      dup4\n        /* \"#utility.yul\":20493:20511   */\n      add\n        /* \"#utility.yul\":20484:20490   */\n      dup5\n        /* \"#utility.yul\":20440:20512   */\n      tag_533\n      jump\t// in\n    tag_600:\n        /* \"#utility.yul\":20077:20519   */\n      swap5\n      swap4\n      pop\n      pop\n      pop\n      pop\n      jump\t// out\n        /* \"#utility.yul\":20525:20600   */\n    tag_601:\n        /* \"#utility.yul\":20558:20564   */\n      0x00\n        /* \"#utility.yul\":20591:20593   */\n      0x40\n        /* \"#utility.yul\":20585:20594   */\n      mload\n        /* \"#utility.yul\":20575:20594   */\n      swap1\n      pop\n        /* \"#utility.yul\":20525:20600   */\n      swap1\n      jump\t// out\n        /* \"#utility.yul\":20606:20738   */\n    tag_433:\n        /* \"#utility.yul\":20673:20677   */\n      0x00\n        /* \"#utility.yul\":20696:20699   */\n      dup2\n        /* \"#utility.yul\":20688:20699   */\n      swap1\n      pop\n        /* \"#utility.yul\":20726:20730   */\n      0x20\n        /* \"#utility.yul\":20721:20724   */\n      dup3\n        /* \"#utility.yul\":20717:20731   */\n      add\n        /* \"#utility.yul\":20709:20731   */\n      swap1\n      pop\n        /* \"#utility.yul\":20606:20738   */\n      swap2\n      swap1\n      pop\n      jump\t// out\n        /* \"#utility.yul\":20744:20858   */\n    tag_429:\n        /* \"#utility.yul\":20811:20817   */\n      0x00\n        /* \"#utility.yul\":20845:20850   */\n      dup2\n        /* \"#utility.yul\":20839:20851   */\n      mload\n        /* \"#utility.yul\":20829:20851   */\n      swap1\n      pop\n        /* \"#utility.yul\":20744:20858   */\n      swap2\n      swap1\n      pop\n      jump\t// out\n        /* \"#utility.yul\":20864:20963   */\n    tag_447:\n        /* \"#utility.yul\":20916:20922   */\n      0x00\n        /* \"#utility.yul\":20950:20955   */\n      dup2\n        /* \"#utility.yul\":20944:20956   */\n      mload\n        /* \"#utility.yul\":20934:20956   */\n      swap1\n      pop\n        /* \"#utility.yul\":20864:20963   */\n      swap2\n      swap1\n      pop\n      jump\t// out\n        /* \"#utility.yul\":20969:21082   */\n    tag_439:\n        /* \"#utility.yul\":21039:21043   */\n      0x00\n        /* \"#utility.yul\":21071:21075   */\n      0x20\n        /* \"#utility.yul\":21066:21069   */\n      dup3\n        /* \"#utility.yul\":21062:21076   */\n      add\n        /* \"#utility.yul\":21054:21076   */\n      swap1\n      pop\n        /* \"#utility.yul\":20969:21082   */\n      swap2\n      swap1\n      pop\n      jump\t// out\n        /* \"#utility.yul\":21088:21272   */\n    tag_431:\n        /* \"#utility.yul\":21187:21198   */\n      0x00\n        /* \"#utility.yul\":21221:21227   */\n      dup3\n        /* \"#utility.yul\":21216:21219   */\n      dup3\n        /* \"#utility.yul\":21209:21228   */\n      mstore\n        /* \"#utility.yul\":21261:21265   */\n      0x20\n        /* \"#utility.yul\":21256:21259   */\n      dup3\n        /* \"#utility.yul\":21252:21266   */\n      add\n        /* \"#utility.yul\":21237:21266   */\n      swap1\n      pop\n        /* \"#utility.yul\":21088:21272   */\n      swap3\n      swap2\n      pop\n      pop\n      jump\t// out\n        /* \"#utility.yul\":21278:21447   */\n    tag_449:\n        /* \"#utility.yul\":21362:21373   */\n      0x00\n        /* \"#utility.yul\":21396:21402   */\n      dup3\n        /* \"#utility.yul\":21391:21394   */\n      dup3\n        /* \"#utility.yul\":21384:21403   */\n      mstore\n        /* \"#utility.yul\":21436:21440   */\n      0x20\n        /* \"#utility.yul\":21431:21434   */\n      dup3\n        /* \"#utility.yul\":21427:21441   */\n      add\n        /* \"#utility.yul\":21412:21441   */\n      swap1\n      pop\n        /* \"#utility.yul\":21278:21447   */\n      swap3\n      swap2\n      pop\n      pop\n      jump\t// out\n        /* \"#utility.yul\":21453:21601   */\n    tag_458:\n        /* \"#utility.yul\":21555:21566   */\n      0x00\n        /* \"#utility.yul\":21592:21595   */\n      dup2\n        /* \"#utility.yul\":21577:21595   */\n      swap1\n      pop\n        /* \"#utility.yul\":21453:21601   */\n      swap3\n      swap2\n      pop\n      pop\n      jump\t// out\n        /* \"#utility.yul\":21607:21912   */\n    tag_291:\n        /* \"#utility.yul\":21647:21650   */\n      0x00\n        /* \"#utility.yul\":21666:21686   */\n      tag_611\n        /* \"#utility.yul\":21684:21685   */\n      dup3\n        /* \"#utility.yul\":21666:21686   */\n      tag_532\n      jump\t// in\n    tag_611:\n        /* \"#utility.yul\":21661:21686   */\n      swap2\n      pop\n        /* \"#utility.yul\":21700:21720   */\n      tag_612\n        /* \"#utility.yul\":21718:21719   */\n      dup4\n        /* \"#utility.yul\":21700:21720   */\n      tag_532\n      jump\t// in\n    tag_612:\n        /* \"#utility.yul\":21695:21720   */\n      swap3\n      pop\n        /* \"#utility.yul\":21854:21855   */\n      dup3\n        /* \"#utility.yul\":21786:21852   */\n      0xffffffffffffffffffffffffffffffffffffffffffffffffffffffffffffffff\n        /* \"#utility.yul\":21782:21856   */\n      sub\n        /* \"#utility.yul\":21779:21780   */\n      dup3\n        /* \"#utility.yul\":21776:21857   */\n      gt\n        /* \"#utility.yul\":21773:21880   */\n      iszero\n      tag_613\n      jumpi\n        /* \"#utility.yul\":21860:21878   */\n      tag_614\n      tag_615\n      jump\t// in\n    tag_614:\n        /* \"#utility.yul\":21773:21880   */\n    tag_613:\n        /* \"#utility.yul\":21904:21905   */\n      dup3\n        /* \"#utility.yul\":21901:21902   */\n      dup3\n        /* \"#utility.yul\":21897:21906   */\n      add\n        /* \"#utility.yul\":21890:21906   */\n      swap1\n      pop\n        /* \"#utility.yul\":21607:21912   */\n      swap3\n      swap2\n      pop\n      pop\n      jump\t// out\n        /* \"#utility.yul\":21918:22103   */\n    tag_304:\n        /* \"#utility.yul\":21958:21959   */\n      0x00\n        /* \"#utility.yul\":21975:21995   */\n      tag_617\n        /* \"#utility.yul\":21993:21994   */\n      dup3\n        /* \"#utility.yul\":21975:21995   */\n      tag_532\n      jump\t// in\n    tag_617:\n        /* \"#utility.yul\":21970:21995   */\n      swap2\n      pop\n        /* \"#utility.yul\":22009:22029   */\n      tag_618\n        /* \"#utility.yul\":22027:22028   */\n      dup4\n        /* \"#utility.yul\":22009:22029   */\n      tag_532\n      jump\t// in\n    tag_618:\n        /* \"#utility.yul\":22004:22029   */\n      swap3\n      pop\n        /* \"#utility.yul\":22048:22049   */\n      dup3\n        /* \"#utility.yul\":22038:22073   */\n      tag_619\n      jumpi\n        /* \"#utility.yul\":22053:22071   */\n      tag_620\n      tag_621\n      jump\t// in\n    tag_620:\n        /* \"#utility.yul\":22038:22073   */\n    tag_619:\n        /* \"#utility.yul\":22095:22096   */\n      dup3\n        /* \"#utility.yul\":22092:22093   */\n      dup3\n        /* \"#utility.yul\":22088:22097   */\n      div\n        /* \"#utility.yul\":22083:22097   */\n      swap1\n      pop\n        /* \"#utility.yul\":21918:22103   */\n      swap3\n      swap2\n      pop\n      pop\n      jump\t// out\n        /* \"#utility.yul\":22109:22457   */\n    tag_175:\n        /* \"#utility.yul\":22149:22156   */\n      0x00\n        /* \"#utility.yul\":22172:22192   */\n      tag_623\n        /* \"#utility.yul\":22190:22191   */\n      dup3\n        /* \"#utility.yul\":22172:22192   */\n      tag_532\n      jump\t// in\n    tag_623:\n        /* \"#utility.yul\":22167:22192   */\n      swap2\n      pop\n        /* \"#utility.yul\":22206:22226   */\n      tag_624\n        /* \"#utility.yul\":22224:22225   */\n      dup4\n        /* \"#utility.yul\":22206:22226   */\n      tag_532\n      jump\t// in\n    tag_624:\n        /* \"#utility.yul\":22201:22226   */\n      swap3\n      pop\n        /* \"#utility.yul\":22394:22395   */\n      dup2\n        /* \"#utility.yul\":22326:22392   */\n      0xffffffffffffffffffffffffffffffffffffffffffffffffffffffffffffffff\n        /* \"#utility.yul\":22322:22396   */\n      div\n        /* \"#utility.yul\":22319:22320   */\n      dup4\n        /* \"#utility.yul\":22316:22397   */\n      gt\n        /* \"#utility.yul\":22311:22312   */\n      dup3\n        /* \"#utility.yul\":22304:22313   */\n      iszero\n        /* \"#utility.yul\":22297:22314   */\n      iszero\n        /* \"#utility.yul\":22293:22398   */\n      and\n        /* \"#utility.yul\":22290:22421   */\n      iszero\n      tag_625\n      jumpi\n        /* \"#utility.yul\":22401:22419   */\n      tag_626\n      tag_615\n      jump\t// in\n    tag_626:\n        /* \"#utility.yul\":22290:22421   */\n    tag_625:\n        /* \"#utility.yul\":22449:22450   */\n      dup3\n        /* \"#utility.yul\":22446:22447   */\n      dup3\n        /* \"#utility.yul\":22442:22451   */\n      mul\n        /* \"#utility.yul\":22431:22451   */\n      swap1\n      pop\n        /* \"#utility.yul\":22109:22457   */\n      swap3\n      swap2\n      pop\n      pop\n      jump\t// out\n        /* \"#utility.yul\":22463:22654   */\n    tag_312:\n        /* \"#utility.yul\":22503:22507   */\n      0x00\n        /* \"#utility.yul\":22523:22543   */\n      tag_628\n        /* \"#utility.yul\":22541:22542   */\n      dup3\n        /* \"#utility.yul\":22523:22543   */\n      tag_532\n      jump\t// in\n    tag_628:\n        /* \"#utility.yul\":22518:22543   */\n      swap2\n      pop\n        /* \"#utility.yul\":22557:22577   */\n      tag_629\n        /* \"#utility.yul\":22575:22576   */\n      dup4\n        /* \"#utility.yul\":22557:22577   */\n      tag_532\n      jump\t// in\n    tag_629:\n        /* \"#utility.yul\":22552:22577   */\n      swap3\n      pop\n        /* \"#utility.yul\":22596:22597   */\n      dup3\n        /* \"#utility.yul\":22593:22594   */\n      dup3\n        /* \"#utility.yul\":22590:22598   */\n      lt\n        /* \"#utility.yul\":22587:22621   */\n      iszero\n      tag_630\n      jumpi\n        /* \"#utility.yul\":22601:22619   */\n      tag_631\n      tag_615\n      jump\t// in\n    tag_631:\n        /* \"#utility.yul\":22587:22621   */\n    tag_630:\n        /* \"#utility.yul\":22646:22647   */\n      dup3\n        /* \"#utility.yul\":22643:22644   */\n      dup3\n        /* \"#utility.yul\":22639:22648   */\n      sub\n        /* \"#utility.yul\":22631:22648   */\n      swap1\n      pop\n        /* \"#utility.yul\":22463:22654   */\n      swap3\n      swap2\n      pop\n      pop\n      jump\t// out\n        /* \"#utility.yul\":22660:22756   */\n    tag_420:\n        /* \"#utility.yul\":22697:22704   */\n      0x00\n        /* \"#utility.yul\":22726:22750   */\n      tag_633\n        /* \"#utility.yul\":22744:22749   */\n      dup3\n        /* \"#utility.yul\":22726:22750   */\n      tag_634\n      jump\t// in\n    tag_633:\n        /* \"#utility.yul\":22715:22750   */\n      swap1\n      pop\n        /* \"#utility.yul\":22660:22756   */\n      swap2\n      swap1\n      pop\n      jump\t// out\n        /* \"#utility.yul\":22762:22866   */\n    tag_416:\n        /* \"#utility.yul\":22807:22814   */\n      0x00\n        /* \"#utility.yul\":22836:22860   */\n      tag_636\n        /* \"#utility.yul\":22854:22859   */\n      dup3\n        /* \"#utility.yul\":22836:22860   */\n      tag_634\n      jump\t// in\n    tag_636:\n        /* \"#utility.yul\":22825:22860   */\n      swap1\n      pop\n        /* \"#utility.yul\":22762:22866   */\n      swap2\n      swap1\n      pop\n      jump\t// out\n        /* \"#utility.yul\":22872:22962   */\n    tag_443:\n        /* \"#utility.yul\":22906:22913   */\n      0x00\n        /* \"#utility.yul\":22949:22954   */\n      dup2\n        /* \"#utility.yul\":22942:22955   */\n      iszero\n        /* \"#utility.yul\":22935:22956   */\n      iszero\n        /* \"#utility.yul\":22924:22956   */\n      swap1\n      pop\n        /* \"#utility.yul\":22872:22962   */\n      swap2\n      swap1\n      pop\n      jump\t// out\n        /* \"#utility.yul\":22968:23117   */\n    tag_638:\n        /* \"#utility.yul\":23004:23011   */\n      0x00\n        /* \"#utility.yul\":23044:23110   */\n      0xffffffff00000000000000000000000000000000000000000000000000000000\n        /* \"#utility.yul\":23037:23042   */\n      dup3\n        /* \"#utility.yul\":23033:23111   */\n      and\n        /* \"#utility.yul\":23022:23111   */\n      swap1\n      pop\n        /* \"#utility.yul\":22968:23117   */\n      swap2\n      swap1\n      pop\n      jump\t// out\n        /* \"#utility.yul\":23123:23249   */\n    tag_634:\n        /* \"#utility.yul\":23160:23167   */\n      0x00\n        /* \"#utility.yul\":23200:23242   */\n      0xffffffffffffffffffffffffffffffffffffffff\n        /* \"#utility.yul\":23193:23198   */\n      dup3\n        /* \"#utility.yul\":23189:23243   */\n      and\n        /* \"#utility.yul\":23178:23243   */\n      swap1\n      pop\n        /* \"#utility.yul\":23123:23249   */\n      swap2\n      swap1\n      pop\n      jump\t// out\n        /* \"#utility.yul\":23255:23332   */\n    tag_532:\n        /* \"#utility.yul\":23292:23299   */\n      0x00\n        /* \"#utility.yul\":23321:23326   */\n      dup2\n        /* \"#utility.yul\":23310:23326   */\n      swap1\n      pop\n        /* \"#utility.yul\":23255:23332   */\n      swap2\n      swap1\n      pop\n      jump\t// out\n        /* \"#utility.yul\":23338:23645   */\n    tag_451:\n        /* \"#utility.yul\":23406:23407   */\n      0x00\n        /* \"#utility.yul\":23416:23529   */\n    tag_643:\n        /* \"#utility.yul\":23430:23436   */\n      dup4\n        /* \"#utility.yul\":23427:23428   */\n      dup2\n        /* \"#utility.yul\":23424:23437   */\n      lt\n        /* \"#utility.yul\":23416:23529   */\n      iszero\n      tag_645\n      jumpi\n        /* \"#utility.yul\":23515:23516   */\n      dup1\n        /* \"#utility.yul\":23510:23513   */\n      dup3\n        /* \"#utility.yul\":23506:23517   */\n      add\n        /* \"#utility.yul\":23500:23518   */\n      mload\n        /* \"#utility.yul\":23496:23497   */\n      dup2\n        /* \"#utility.yul\":23491:23494   */\n      dup5\n        /* \"#utility.yul\":23487:23498   */\n      add\n        /* \"#utility.yul\":23480:23519   */\n      mstore\n        /* \"#utility.yul\":23452:23454   */\n      0x20\n        /* \"#utility.yul\":23449:23450   */\n      dup2\n        /* \"#utility.yul\":23445:23455   */\n      add\n        /* \"#utility.yul\":23440:23455   */\n      swap1\n      pop\n        /* \"#utility.yul\":23416:23529   */\n      jump(tag_643)\n    tag_645:\n        /* \"#utility.yul\":23547:23553   */\n      dup4\n        /* \"#utility.yul\":23544:23545   */\n      dup2\n        /* \"#utility.yul\":23541:23554   */\n      gt\n        /* \"#utility.yul\":23538:23639   */\n      iszero\n      tag_646\n      jumpi\n        /* \"#utility.yul\":23627:23628   */\n      0x00\n        /* \"#utility.yul\":23618:23624   */\n      dup5\n        /* \"#utility.yul\":23613:23616   */\n      dup5\n        /* \"#utility.yul\":23609:23625   */\n      add\n        /* \"#utility.yul\":23602:23629   */\n      mstore\n        /* \"#utility.yul\":23538:23639   */\n    tag_646:\n        /* \"#utility.yul\":23387:23645   */\n      pop\n        /* \"#utility.yul\":23338:23645   */\n      pop\n      pop\n      pop\n      jump\t// out\n        /* \"#utility.yul\":23651:23971   */\n    tag_152:\n        /* \"#utility.yul\":23695:23701   */\n      0x00\n        /* \"#utility.yul\":23732:23733   */\n      0x02\n        /* \"#utility.yul\":23726:23730   */\n      dup3\n        /* \"#utility.yul\":23722:23734   */\n      div\n        /* \"#utility.yul\":23712:23734   */\n      swap1\n      pop\n        /* \"#utility.yul\":23779:23780   */\n      0x01\n        /* \"#utility.yul\":23773:23777   */\n      dup3\n        /* \"#utility.yul\":23769:23781   */\n      and\n        /* \"#utility.yul\":23800:23818   */\n      dup1\n        /* \"#utility.yul\":23790:23871   */\n      tag_648\n      jumpi\n        /* \"#utility.yul\":23856:23860   */\n      0x7f\n        /* \"#utility.yul\":23848:23854   */\n      dup3\n        /* \"#utility.yul\":23844:23861   */\n      and\n        /* \"#utility.yul\":23834:23861   */\n      swap2\n      pop\n        /* \"#utility.yul\":23790:23871   */\n    tag_648:\n        /* \"#utility.yul\":23918:23920   */\n      0x20\n        /* \"#utility.yul\":23910:23916   */\n      dup3\n        /* \"#utility.yul\":23907:23921   */\n      lt\n        /* \"#utility.yul\":23887:23905   */\n      dup2\n        /* \"#utility.yul\":23884:23922   */\n      eq\n        /* \"#utility.yul\":23881:23965   */\n      iszero\n      tag_649\n      jumpi\n        /* \"#utility.yul\":23937:23955   */\n      tag_650\n      tag_651\n      jump\t// in\n    tag_650:\n        /* \"#utility.yul\":23881:23965   */\n    tag_649:\n        /* \"#utility.yul\":23702:23971   */\n      pop\n        /* \"#utility.yul\":23651:23971   */\n      swap2\n      swap1\n      pop\n      jump\t// out\n        /* \"#utility.yul\":23977:24258   */\n    tag_652:\n        /* \"#utility.yul\":24060:24087   */\n      tag_654\n        /* \"#utility.yul\":24082:24086   */\n      dup3\n        /* \"#utility.yul\":24060:24087   */\n      tag_453\n      jump\t// in\n    tag_654:\n        /* \"#utility.yul\":24052:24058   */\n      dup2\n        /* \"#utility.yul\":24048:24088   */\n      add\n        /* \"#utility.yul\":24190:24196   */\n      dup2\n        /* \"#utility.yul\":24178:24188   */\n      dup2\n        /* \"#utility.yul\":24175:24197   */\n      lt\n        /* \"#utility.yul\":24154:24172   */\n      0xffffffffffffffff\n        /* \"#utility.yul\":24142:24152   */\n      dup3\n        /* \"#utility.yul\":24139:24173   */\n      gt\n        /* \"#utility.yul\":24136:24198   */\n      or\n        /* \"#utility.yul\":24133:24221   */\n      iszero\n      tag_655\n      jumpi\n        /* \"#utility.yul\":24201:24219   */\n      tag_656\n      tag_307\n      jump\t// in\n    tag_656:\n        /* \"#utility.yul\":24133:24221   */\n    tag_655:\n        /* \"#utility.yul\":24241:24251   */\n      dup1\n        /* \"#utility.yul\":24237:24239   */\n      0x40\n        /* \"#utility.yul\":24230:24252   */\n      mstore\n        /* \"#utility.yul\":24020:24258   */\n      pop\n        /* \"#utility.yul\":23977:24258   */\n      pop\n      pop\n      jump\t// out\n        /* \"#utility.yul\":24264:24497   */\n    tag_130:\n        /* \"#utility.yul\":24303:24306   */\n      0x00\n        /* \"#utility.yul\":24326:24350   */\n      tag_658\n        /* \"#utility.yul\":24344:24349   */\n      dup3\n        /* \"#utility.yul\":24326:24350   */\n      tag_532\n      jump\t// in\n    tag_658:\n        /* \"#utility.yul\":24317:24350   */\n      swap2\n      pop\n        /* \"#utility.yul\":24372:24438   */\n      0xffffffffffffffffffffffffffffffffffffffffffffffffffffffffffffffff\n        /* \"#utility.yul\":24365:24370   */\n      dup3\n        /* \"#utility.yul\":24362:24439   */\n      eq\n        /* \"#utility.yul\":24359:24462   */\n      iszero\n      tag_659\n      jumpi\n        /* \"#utility.yul\":24442:24460   */\n      tag_660\n      tag_615\n      jump\t// in\n    tag_660:\n        /* \"#utility.yul\":24359:24462   */\n    tag_659:\n        /* \"#utility.yul\":24489:24490   */\n      0x01\n        /* \"#utility.yul\":24482:24487   */\n      dup3\n        /* \"#utility.yul\":24478:24491   */\n      add\n        /* \"#utility.yul\":24471:24491   */\n      swap1\n      pop\n        /* \"#utility.yul\":24264:24497   */\n      swap2\n      swap1\n      pop\n      jump\t// out\n        /* \"#utility.yul\":24503:24603   */\n    tag_425:\n        /* \"#utility.yul\":24542:24549   */\n      0x00\n        /* \"#utility.yul\":24571:24597   */\n      tag_662\n        /* \"#utility.yul\":24591:24596   */\n      dup3\n        /* \"#utility.yul\":24571:24597   */\n      tag_663\n      jump\t// in\n    tag_662:\n        /* \"#utility.yul\":24560:24597   */\n      swap1\n      pop\n        /* \"#utility.yul\":24503:24603   */\n      swap2\n      swap1\n      pop\n      jump\t// out\n        /* \"#utility.yul\":24609:24703   */\n    tag_663:\n        /* \"#utility.yul\":24648:24655   */\n      0x00\n        /* \"#utility.yul\":24677:24697   */\n      tag_665\n        /* \"#utility.yul\":24691:24696   */\n      dup3\n        /* \"#utility.yul\":24677:24697   */\n      tag_666\n      jump\t// in\n    tag_665:\n        /* \"#utility.yul\":24666:24697   */\n      swap1\n      pop\n        /* \"#utility.yul\":24609:24703   */\n      swap2\n      swap1\n      pop\n      jump\t// out\n        /* \"#utility.yul\":24709:24788   */\n    tag_540:\n        /* \"#utility.yul\":24748:24755   */\n      0x00\n        /* \"#utility.yul\":24777:24782   */\n      dup2\n        /* \"#utility.yul\":24766:24782   */\n      swap1\n      pop\n        /* \"#utility.yul\":24709:24788   */\n      swap2\n      swap1\n      pop\n      jump\t// out\n        /* \"#utility.yul\":24794:24970   */\n    tag_232:\n        /* \"#utility.yul\":24826:24827   */\n      0x00\n        /* \"#utility.yul\":24843:24863   */\n      tag_669\n        /* \"#utility.yul\":24861:24862   */\n      dup3\n        /* \"#utility.yul\":24843:24863   */\n      tag_532\n      jump\t// in\n    tag_669:\n        /* \"#utility.yul\":24838:24863   */\n      swap2\n      pop\n        /* \"#utility.yul\":24877:24897   */\n      tag_670\n        /* \"#utility.yul\":24895:24896   */\n      dup4\n        /* \"#utility.yul\":24877:24897   */\n      tag_532\n      jump\t// in\n    tag_670:\n        /* \"#utility.yul\":24872:24897   */\n      swap3\n      pop\n        /* \"#utility.yul\":24916:24917   */\n      dup3\n        /* \"#utility.yul\":24906:24941   */\n      tag_671\n      jumpi\n        /* \"#utility.yul\":24921:24939   */\n      tag_672\n      tag_621\n      jump\t// in\n    tag_672:\n        /* \"#utility.yul\":24906:24941   */\n    tag_671:\n        /* \"#utility.yul\":24962:24963   */\n      dup3\n        /* \"#utility.yul\":24959:24960   */\n      dup3\n        /* \"#utility.yul\":24955:24964   */\n      mod\n        /* \"#utility.yul\":24950:24964   */\n      swap1\n      pop\n        /* \"#utility.yul\":24794:24970   */\n      swap3\n      swap2\n      pop\n      pop\n      jump\t// out\n        /* \"#utility.yul\":24976:25156   */\n    tag_615:\n        /* \"#utility.yul\":25024:25101   */\n      0x4e487b7100000000000000000000000000000000000000000000000000000000\n        /* \"#utility.yul\":25021:25022   */\n      0x00\n        /* \"#utility.yul\":25014:25102   */\n      mstore\n        /* \"#utility.yul\":25121:25125   */\n      0x11\n        /* \"#utility.yul\":25118:25119   */\n      0x04\n        /* \"#utility.yul\":25111:25126   */\n      mstore\n        /* \"#utility.yul\":25145:25149   */\n      0x24\n        /* \"#utility.yul\":25142:25143   */\n      0x00\n        /* \"#utility.yul\":25135:25150   */\n      revert\n        /* \"#utility.yul\":25162:25342   */\n    tag_621:\n        /* \"#utility.yul\":25210:25287   */\n      0x4e487b7100000000000000000000000000000000000000000000000000000000\n        /* \"#utility.yul\":25207:25208   */\n      0x00\n        /* \"#utility.yul\":25200:25288   */\n      mstore\n        /* \"#utility.yul\":25307:25311   */\n      0x12\n        /* \"#utility.yul\":25304:25305   */\n      0x04\n        /* \"#utility.yul\":25297:25312   */\n      mstore\n        /* \"#utility.yul\":25331:25335   */\n      0x24\n        /* \"#utility.yul\":25328:25329   */\n      0x00\n        /* \"#utility.yul\":25321:25336   */\n      revert\n        /* \"#utility.yul\":25348:25528   */\n    tag_651:\n        /* \"#utility.yul\":25396:25473   */\n      0x4e487b7100000000000000000000000000000000000000000000000000000000\n        /* \"#utility.yul\":25393:25394   */\n      0x00\n        /* \"#utility.yul\":25386:25474   */\n      mstore\n        /* \"#utility.yul\":25493:25497   */\n      0x22\n        /* \"#utility.yul\":25490:25491   */\n      0x04\n        /* \"#utility.yul\":25483:25498   */\n      mstore\n        /* \"#utility.yul\":25517:25521   */\n      0x24\n        /* \"#utility.yul\":25514:25515   */\n      0x00\n        /* \"#utility.yul\":25507:25522   */\n      revert\n        /* \"#utility.yul\":25534:25714   */\n    tag_239:\n        /* \"#utility.yul\":25582:25659   */\n      0x4e487b7100000000000000000000000000000000000000000000000000000000\n        /* \"#utility.yul\":25579:25580   */\n      0x00\n        /* \"#utility.yul\":25572:25660   */\n      mstore\n        /* \"#utility.yul\":25679:25683   */\n      0x32\n        /* \"#utility.yul\":25676:25677   */\n      0x04\n        /* \"#utility.yul\":25669:25684   */\n      mstore\n        /* \"#utility.yul\":25703:25707   */\n      0x24\n        /* \"#utility.yul\":25700:25701   */\n      0x00\n        /* \"#utility.yul\":25693:25708   */\n      revert\n        /* \"#utility.yul\":25720:25900   */\n    tag_307:\n        /* \"#utility.yul\":25768:25845   */\n      0x4e487b7100000000000000000000000000000000000000000000000000000000\n        /* \"#utility.yul\":25765:25766   */\n      0x00\n        /* \"#utility.yul\":25758:25846   */\n      mstore\n        /* \"#utility.yul\":25865:25869   */\n      0x41\n        /* \"#utility.yul\":25862:25863   */\n      0x04\n        /* \"#utility.yul\":25855:25870   */\n      mstore\n        /* \"#utility.yul\":25889:25893   */\n      0x24\n        /* \"#utility.yul\":25886:25887   */\n      0x00\n        /* \"#utility.yul\":25879:25894   */\n      revert\n        /* \"#utility.yul\":25906:26089   */\n    tag_340:\n        /* \"#utility.yul\":25941:25944   */\n      0x00\n        /* \"#utility.yul\":25979:25980   */\n      0x03\n        /* \"#utility.yul\":25961:25977   */\n      returndatasize\n        /* \"#utility.yul\":25958:25981   */\n      gt\n        /* \"#utility.yul\":25955:26083   */\n      iszero\n      tag_679\n      jumpi\n        /* \"#utility.yul\":26017:26018   */\n      0x04\n        /* \"#utility.yul\":26014:26015   */\n      0x00\n        /* \"#utility.yul\":26011:26012   */\n      dup1\n        /* \"#utility.yul\":25996:26019   */\n      returndatacopy\n        /* \"#utility.yul\":26039:26073   */\n      tag_680\n        /* \"#utility.yul\":26070:26071   */\n      0x00\n        /* \"#utility.yul\":26064:26072   */\n      mload\n        /* \"#utility.yul\":26039:26073   */\n      tag_681\n      jump\t// in\n    tag_680:\n        /* \"#utility.yul\":26032:26073   */\n      swap1\n      pop\n        /* \"#utility.yul\":25955:26083   */\n    tag_679:\n        /* \"#utility.yul\":25906:26089   */\n      swap1\n      jump\t// out\n        /* \"#utility.yul\":26218:26335   */\n    tag_390:\n        /* \"#utility.yul\":26327:26328   */\n      0x00\n        /* \"#utility.yul\":26324:26325   */\n      dup1\n        /* \"#utility.yul\":26317:26329   */\n      revert\n        /* \"#utility.yul\":26341:26443   */\n    tag_453:\n        /* \"#utility.yul\":26382:26388   */\n      0x00\n        /* \"#utility.yul\":26433:26435   */\n      0x1f\n        /* \"#utility.yul\":26429:26436   */\n      not\n        /* \"#utility.yul\":26424:26426   */\n      0x1f\n        /* \"#utility.yul\":26417:26422   */\n      dup4\n        /* \"#utility.yul\":26413:26427   */\n      add\n        /* \"#utility.yul\":26409:26437   */\n      and\n        /* \"#utility.yul\":26399:26437   */\n      swap1\n      pop\n        /* \"#utility.yul\":26341:26443   */\n      swap2\n      swap1\n      pop\n      jump\t// out\n        /* \"#utility.yul\":26449:26543   */\n    tag_666:\n        /* \"#utility.yul\":26482:26490   */\n      0x00\n        /* \"#utility.yul\":26530:26535   */\n      dup2\n        /* \"#utility.yul\":26526:26528   */\n      0x60\n        /* \"#utility.yul\":26522:26536   */\n      shl\n        /* \"#utility.yul\":26501:26536   */\n      swap1\n      pop\n        /* \"#utility.yul\":26449:26543   */\n      swap2\n      swap1\n      pop\n      jump\t// out\n        /* \"#utility.yul\":26549:26655   */\n    tag_681:\n        /* \"#utility.yul\":26593:26601   */\n      0x00\n        /* \"#utility.yul\":26642:26647   */\n      dup2\n        /* \"#utility.yul\":26637:26640   */\n      0xe0\n        /* \"#utility.yul\":26633:26648   */\n      shr\n        /* \"#utility.yul\":26612:26648   */\n      swap1\n      pop\n        /* \"#utility.yul\":26549:26655   */\n      swap2\n      swap1\n      pop\n      jump\t// out\n        /* \"#utility.yul\":26661:26900   */\n    tag_464:\n        /* \"#utility.yul\":26801:26835   */\n      0x455243313135353a207472616e7366657220746f206e6f6e2045524331313535\n        /* \"#utility.yul\":26797:26798   */\n      0x00\n        /* \"#utility.yul\":26789:26795   */\n      dup3\n        /* \"#utility.yul\":26785:26799   */\n      add\n        /* \"#utility.yul\":26778:26836   */\n      mstore\n        /* \"#utility.yul\":26870:26892   */\n      0x526563656976657220696d706c656d656e746572000000000000000000000000\n        /* \"#utility.yul\":26865:26867   */\n      0x20\n        /* \"#utility.yul\":26857:26863   */\n      dup3\n        /* \"#utility.yul\":26853:26868   */\n      add\n        /* \"#utility.yul\":26846:26893   */\n      mstore\n        /* \"#utility.yul\":26661:26900   */\n      pop\n      jump\t// out\n        /* \"#utility.yul\":26906:27133   */\n    tag_469:\n        /* \"#utility.yul\":27046:27080   */\n      0x455243313135353a204552433131353552656365697665722072656a65637465\n        /* \"#utility.yul\":27042:27043   */\n      0x00\n        /* \"#utility.yul\":27034:27040   */\n      dup3\n        /* \"#utility.yul\":27030:27044   */\n      add\n        /* \"#utility.yul\":27023:27081   */\n      mstore\n        /* \"#utility.yul\":27115:27125   */\n      0x6420746f6b656e73000000000000000000000000000000000000000000000000\n        /* \"#utility.yul\":27110:27112   */\n      0x20\n        /* \"#utility.yul\":27102:27108   */\n      dup3\n        /* \"#utility.yul\":27098:27113   */\n      add\n        /* \"#utility.yul\":27091:27126   */\n      mstore\n        /* \"#utility.yul\":26906:27133   */\n      pop\n      jump\t// out\n        /* \"#utility.yul\":27139:27297   */\n    tag_474:\n        /* \"#utility.yul\":27279:27289   */\n      0x4469616d6f6e645f000000000000000000000000000000000000000000000000\n        /* \"#utility.yul\":27275:27276   */\n      0x00\n        /* \"#utility.yul\":27267:27273   */\n      dup3\n        /* \"#utility.yul\":27263:27277   */\n      add\n        /* \"#utility.yul\":27256:27290   */\n      mstore\n        /* \"#utility.yul\":27139:27297   */\n      pop\n      jump\t// out\n        /* \"#utility.yul\":27303:27458   */\n    tag_479:\n        /* \"#utility.yul\":27443:27450   */\n      0x476f6c645f000000000000000000000000000000000000000000000000000000\n        /* \"#utility.yul\":27439:27440   */\n      0x00\n        /* \"#utility.yul\":27431:27437   */\n      dup3\n        /* \"#utility.yul\":27427:27441   */\n      add\n        /* \"#utility.yul\":27420:27451   */\n      mstore\n        /* \"#utility.yul\":27303:27458   */\n      pop\n      jump\t// out\n        /* \"#utility.yul\":27464:27632   */\n    tag_484:\n        /* \"#utility.yul\":27604:27624   */\n      0x4e6f7420456e6f7567682042616c616e63650000000000000000000000000000\n        /* \"#utility.yul\":27600:27601   */\n      0x00\n        /* \"#utility.yul\":27592:27598   */\n      dup3\n        /* \"#utility.yul\":27588:27602   */\n      add\n        /* \"#utility.yul\":27581:27625   */\n      mstore\n        /* \"#utility.yul\":27464:27632   */\n      pop\n      jump\t// out\n        /* \"#utility.yul\":27638:27815   */\n    tag_489:\n        /* \"#utility.yul\":27778:27807   */\n      0x44726f707369746520697320616c72656164792052756e6e696e670000000000\n        /* \"#utility.yul\":27774:27775   */\n      0x00\n        /* \"#utility.yul\":27766:27772   */\n      dup3\n        /* \"#utility.yul\":27762:27776   */\n      add\n        /* \"#utility.yul\":27755:27808   */\n      mstore\n        /* \"#utility.yul\":27638:27815   */\n      pop\n      jump\t// out\n        /* \"#utility.yul\":27821:27998   */\n    tag_494:\n        /* \"#utility.yul\":27961:27990   */\n      0x44726f707369746520697320616c72656164792053746f707065640000000000\n        /* \"#utility.yul\":27957:27958   */\n      0x00\n        /* \"#utility.yul\":27949:27955   */\n      dup3\n        /* \"#utility.yul\":27945:27959   */\n      add\n        /* \"#utility.yul\":27938:27991   */\n      mstore\n        /* \"#utility.yul\":27821:27998   */\n      pop\n      jump\t// out\n        /* \"#utility.yul\":28004:28175   */\n    tag_499:\n        /* \"#utility.yul\":28144:28167   */\n      0x596f752063616e206d696e7420312d33204e4654730000000000000000000000\n        /* \"#utility.yul\":28140:28141   */\n      0x00\n        /* \"#utility.yul\":28132:28138   */\n      dup3\n        /* \"#utility.yul\":28128:28142   */\n      add\n        /* \"#utility.yul\":28121:28168   */\n      mstore\n        /* \"#utility.yul\":28004:28175   */\n      pop\n      jump\t// out\n        /* \"#utility.yul\":28181:28359   */\n    tag_504:\n        /* \"#utility.yul\":28321:28351   */\n      0x4f6e6c79204e46542d4553204f776e65722063616e2041636365737300000000\n        /* \"#utility.yul\":28317:28318   */\n      0x00\n        /* \"#utility.yul\":28309:28315   */\n      dup3\n        /* \"#utility.yul\":28305:28319   */\n      add\n        /* \"#utility.yul\":28298:28352   */\n      mstore\n        /* \"#utility.yul\":28181:28359   */\n      pop\n      jump\t// out\n        /* \"#utility.yul\":28365:28542   */\n    tag_509:\n        /* \"#utility.yul\":28505:28534   */\n      0x44726f7073697465206973206e6f74204f70656e6564205965742e0000000000\n        /* \"#utility.yul\":28501:28502   */\n      0x00\n        /* \"#utility.yul\":28493:28499   */\n      dup3\n        /* \"#utility.yul\":28489:28503   */\n      add\n        /* \"#utility.yul\":28482:28535   */\n      mstore\n        /* \"#utility.yul\":28365:28542   */\n      pop\n      jump\t// out\n        /* \"#utility.yul\":28548:28723   */\n    tag_514:\n        /* \"#utility.yul\":28688:28715   */\n      0x4d6178204d696e74696e67204c696d6974207265616368656400000000000000\n        /* \"#utility.yul\":28684:28685   */\n      0x00\n        /* \"#utility.yul\":28676:28682   */\n      dup3\n        /* \"#utility.yul\":28672:28686   */\n      add\n        /* \"#utility.yul\":28665:28716   */\n      mstore\n        /* \"#utility.yul\":28548:28723   */\n      pop\n      jump\t// out\n        /* \"#utility.yul\":28729:28886   */\n    tag_519:\n        /* \"#utility.yul\":28869:28878   */\n      0x53696c7665725f00000000000000000000000000000000000000000000000000\n        /* \"#utility.yul\":28865:28866   */\n      0x00\n        /* \"#utility.yul\":28857:28863   */\n      dup3\n        /* \"#utility.yul\":28853:28867   */\n      add\n        /* \"#utility.yul\":28846:28879   */\n      mstore\n        /* \"#utility.yul\":28729:28886   */\n      pop\n      jump\t// out\n        /* \"#utility.yul\":28892:29071   */\n    tag_524:\n        /* \"#utility.yul\":29032:29063   */\n      0x4572726f7221204e6f2042616c616e636520746f207769746864726177000000\n        /* \"#utility.yul\":29028:29029   */\n      0x00\n        /* \"#utility.yul\":29020:29026   */\n      dup3\n        /* \"#utility.yul\":29016:29030   */\n      add\n        /* \"#utility.yul\":29009:29064   */\n      mstore\n        /* \"#utility.yul\":28892:29071   */\n      pop\n      jump\t// out\n        /* \"#utility.yul\":29077:29297   */\n    tag_529:\n        /* \"#utility.yul\":29217:29251   */\n      0x455243313135353a206d696e7420746f20746865207a65726f20616464726573\n        /* \"#utility.yul\":29213:29214   */\n      0x00\n        /* \"#utility.yul\":29205:29211   */\n      dup3\n        /* \"#utility.yul\":29201:29215   */\n      add\n        /* \"#utility.yul\":29194:29252   */\n      mstore\n        /* \"#utility.yul\":29286:29289   */\n      0x7300000000000000000000000000000000000000000000000000000000000000\n        /* \"#utility.yul\":29281:29283   */\n      0x20\n        /* \"#utility.yul\":29273:29279   */\n      dup3\n        /* \"#utility.yul\":29269:29284   */\n      add\n        /* \"#utility.yul\":29262:29290   */\n      mstore\n        /* \"#utility.yul\":29077:29297   */\n      pop\n      jump\t// out\n        /* \"#utility.yul\":29303:30014   */\n    tag_342:\n        /* \"#utility.yul\":29342:29345   */\n      0x00\n        /* \"#utility.yul\":29380:29384   */\n      0x44\n        /* \"#utility.yul\":29362:29378   */\n      returndatasize\n        /* \"#utility.yul\":29359:29385   */\n      lt\n        /* \"#utility.yul\":29356:29395   */\n      iszero\n      tag_703\n      jumpi\n        /* \"#utility.yul\":29388:29393   */\n      jump(tag_702)\n        /* \"#utility.yul\":29356:29395   */\n    tag_703:\n        /* \"#utility.yul\":29417:29437   */\n      tag_704\n      tag_601\n      jump\t// in\n    tag_704:\n        /* \"#utility.yul\":29492:29493   */\n      0x04\n        /* \"#utility.yul\":29474:29490   */\n      returndatasize\n        /* \"#utility.yul\":29470:29494   */\n      sub\n        /* \"#utility.yul\":29467:29468   */\n      0x04\n        /* \"#utility.yul\":29461:29465   */\n      dup3\n        /* \"#utility.yul\":29446:29495   */\n      returndatacopy\n        /* \"#utility.yul\":29525:29529   */\n      dup1\n        /* \"#utility.yul\":29519:29530   */\n      mload\n        /* \"#utility.yul\":29624:29640   */\n      returndatasize\n        /* \"#utility.yul\":29617:29621   */\n      0x24\n        /* \"#utility.yul\":29609:29615   */\n      dup3\n        /* \"#utility.yul\":29605:29622   */\n      add\n        /* \"#utility.yul\":29602:29641   */\n      gt\n        /* \"#utility.yul\":29569:29587   */\n      0xffffffffffffffff\n        /* \"#utility.yul\":29561:29567   */\n      dup3\n        /* \"#utility.yul\":29558:29588   */\n      gt\n        /* \"#utility.yul\":29542:29655   */\n      or\n        /* \"#utility.yul\":29539:29685   */\n      iszero\n      tag_705\n      jumpi\n        /* \"#utility.yul\":29670:29675   */\n      pop\n      pop\n      jump(tag_702)\n        /* \"#utility.yul\":29539:29685   */\n    tag_705:\n        /* \"#utility.yul\":29716:29722   */\n      dup1\n        /* \"#utility.yul\":29710:29714   */\n      dup3\n        /* \"#utility.yul\":29706:29723   */\n      add\n        /* \"#utility.yul\":29752:29755   */\n      dup1\n        /* \"#utility.yul\":29746:29756   */\n      mload\n        /* \"#utility.yul\":29779:29797   */\n      0xffffffffffffffff\n        /* \"#utility.yul\":29771:29777   */\n      dup2\n        /* \"#utility.yul\":29768:29798   */\n      gt\n        /* \"#utility.yul\":29765:29808   */\n      iszero\n      tag_706\n      jumpi\n        /* \"#utility.yul\":29801:29806   */\n      pop\n      pop\n      pop\n      pop\n      jump(tag_702)\n        /* \"#utility.yul\":29765:29808   */\n    tag_706:\n        /* \"#utility.yul\":29849:29855   */\n      dup1\n        /* \"#utility.yul\":29842:29846   */\n      0x20\n        /* \"#utility.yul\":29837:29840   */\n      dup4\n        /* \"#utility.yul\":29833:29847   */\n      add\n        /* \"#utility.yul\":29829:29856   */\n      add\n        /* \"#utility.yul\":29908:29909   */\n      0x04\n        /* \"#utility.yul\":29890:29906   */\n      returndatasize\n        /* \"#utility.yul\":29886:29910   */\n      sub\n        /* \"#utility.yul\":29880:29884   */\n      dup6\n        /* \"#utility.yul\":29876:29911   */\n      add\n        /* \"#utility.yul\":29871:29874   */\n      dup2\n        /* \"#utility.yul\":29868:29912   */\n      gt\n        /* \"#utility.yul\":29865:29922   */\n      iszero\n      tag_707\n      jumpi\n        /* \"#utility.yul\":29915:29920   */\n      pop\n      pop\n      pop\n      pop\n      pop\n      jump(tag_702)\n        /* \"#utility.yul\":29865:29922   */\n    tag_707:\n        /* \"#utility.yul\":29932:29989   */\n      tag_708\n        /* \"#utility.yul\":29980:29986   */\n      dup3\n        /* \"#utility.yul\":29974:29978   */\n      0x20\n        /* \"#utility.yul\":29970:29987   */\n      add\n        /* \"#utility.yul\":29962:29968   */\n      dup6\n        /* \"#utility.yul\":29958:29988   */\n      add\n        /* \"#utility.yul\":29952:29956   */\n      dup7\n        /* \"#utility.yul\":29932:29989   */\n      tag_652\n      jump\t// in\n    tag_708:\n        /* \"#utility.yul\":30005:30008   */\n      dup3\n        /* \"#utility.yul\":29998:30008   */\n      swap6\n      pop\n        /* \"#utility.yul\":29346:30014   */\n      pop\n      pop\n      pop\n      pop\n      pop\n        /* \"#utility.yul\":29303:30014   */\n    tag_702:\n      swap1\n      jump\t// out\n        /* \"#utility.yul\":30020:30142   */\n    tag_374:\n        /* \"#utility.yul\":30093:30117   */\n      tag_710\n        /* \"#utility.yul\":30111:30116   */\n      dup2\n        /* \"#utility.yul\":30093:30117   */\n      tag_420\n      jump\t// in\n    tag_710:\n        /* \"#utility.yul\":30086:30091   */\n      dup2\n        /* \"#utility.yul\":30083:30118   */\n      eq\n        /* \"#utility.yul\":30073:30136   */\n      tag_711\n      jumpi\n        /* \"#utility.yul\":30132:30133   */\n      0x00\n        /* \"#utility.yul\":30129:30130   */\n      dup1\n        /* \"#utility.yul\":30122:30134   */\n      revert\n        /* \"#utility.yul\":30073:30136   */\n    tag_711:\n        /* \"#utility.yul\":30020:30142   */\n      pop\n      jump\t// out\n        /* \"#utility.yul\":30148:30286   */\n    tag_378:\n        /* \"#utility.yul\":30229:30261   */\n      tag_713\n        /* \"#utility.yul\":30255:30260   */\n      dup2\n        /* \"#utility.yul\":30229:30261   */\n      tag_416\n      jump\t// in\n    tag_713:\n        /* \"#utility.yul\":30222:30227   */\n      dup2\n        /* \"#utility.yul\":30219:30262   */\n      eq\n        /* \"#utility.yul\":30209:30280   */\n      tag_714\n      jumpi\n        /* \"#utility.yul\":30276:30277   */\n      0x00\n        /* \"#utility.yul\":30273:30274   */\n      dup1\n        /* \"#utility.yul\":30266:30278   */\n      revert\n        /* \"#utility.yul\":30209:30280   */\n    tag_714:\n        /* \"#utility.yul\":30148:30286   */\n      pop\n      jump\t// out\n        /* \"#utility.yul\":30292:30412   */\n    tag_382:\n        /* \"#utility.yul\":30364:30387   */\n      tag_716\n        /* \"#utility.yul\":30381:30386   */\n      dup2\n        /* \"#utility.yul\":30364:30387   */\n      tag_638\n      jump\t// in\n    tag_716:\n        /* \"#utility.yul\":30357:30362   */\n      dup2\n        /* \"#utility.yul\":30354:30388   */\n      eq\n        /* \"#utility.yul\":30344:30406   */\n      tag_717\n      jumpi\n        /* \"#utility.yul\":30402:30403   */\n      0x00\n        /* \"#utility.yul\":30399:30400   */\n      dup1\n        /* \"#utility.yul\":30392:30404   */\n      revert\n        /* \"#utility.yul\":30344:30406   */\n    tag_717:\n        /* \"#utility.yul\":30292:30412   */\n      pop\n      jump\t// out\n        /* \"#utility.yul\":30418:30540   */\n    tag_386:\n        /* \"#utility.yul\":30491:30515   */\n      tag_719\n        /* \"#utility.yul\":30509:30514   */\n      dup2\n        /* \"#utility.yul\":30491:30515   */\n      tag_532\n      jump\t// in\n    tag_719:\n        /* \"#utility.yul\":30484:30489   */\n      dup2\n        /* \"#utility.yul\":30481:30516   */\n      eq\n        /* \"#utility.yul\":30471:30534   */\n      tag_720\n      jumpi\n        /* \"#utility.yul\":30530:30531   */\n      0x00\n        /* \"#utility.yul\":30527:30528   */\n      dup1\n        /* \"#utility.yul\":30520:30532   */\n      revert\n        /* \"#utility.yul\":30471:30534   */\n    tag_720:\n        /* \"#utility.yul\":30418:30540   */\n      pop\n      jump\t// out\n\n    auxdata: 0xa26469706673582212206ebc39ce4abdc2be3ceaedba4f8071574b71ca7eb653216e25f8fcaa971a9df164736f6c63430008070033\n}\n",
				"bytecode": {
					"linkReferences": {},
					"object": "608060405260405180602001604052806000815250600290805190602001906200002b929190620001e8565b50604051806102800160405280600060ff168152602001600160ff168152602001600160ff168152602001600260ff168152602001600260ff168152602001600260ff168152602001600260ff168152602001600260ff168152602001600260ff168152602001600260ff168152602001600260ff168152602001600260ff168152602001600260ff168152602001600260ff168152602001600260ff168152602001600260ff168152602001600260ff168152602001600260ff168152602001600260ff168152602001600260ff1681525060039060146200011092919062000279565b506001600c60006101000a81548160ff0219169083151502179055503480156200013957600080fd5b50604051620032fd380380620032fd83398181016040528101906200015f9190620003b7565b80600d908051906020019062000177929190620001e8565b5033600c60016101000a81548173ffffffffffffffffffffffffffffffffffffffff021916908373ffffffffffffffffffffffffffffffffffffffff16021790555060006004819055506001600581905550600060078190555060006008819055506000600981905550506200058c565b828054620001f6906200049d565b90600052602060002090601f0160209004810192826200021a576000855562000266565b82601f106200023557805160ff191683800117855562000266565b8280016001018555821562000266579182015b828111156200026557825182559160200191906001019062000248565b5b5090506200027591906200031a565b5090565b826014601f01602090048101928215620003075791602002820160005b83821115620002d657835183826101000a81548160ff021916908360ff160217905550926020019260010160208160000104928301926001030262000296565b8015620003055782816101000a81549060ff0219169055600101602081600001049283019260010302620002d6565b505b5090506200031691906200031a565b5090565b5b80821115620003355760008160009055506001016200031b565b5090565b6000620003506200034a8462000431565b62000408565b9050828152602081018484840111156200036f576200036e6200056c565b5b6200037c84828562000467565b509392505050565b600082601f8301126200039c576200039b62000567565b5b8151620003ae84826020860162000339565b91505092915050565b600060208284031215620003d057620003cf62000576565b5b600082015167ffffffffffffffff811115620003f157620003f062000571565b5b620003ff8482850162000384565b91505092915050565b60006200041462000427565b9050620004228282620004d3565b919050565b6000604051905090565b600067ffffffffffffffff8211156200044f576200044e62000538565b5b6200045a826200057b565b9050602081019050919050565b60005b83811015620004875780820151818401526020810190506200046a565b8381111562000497576000848401525b50505050565b60006002820490506001821680620004b657607f821691505b60208210811415620004cd57620004cc62000509565b5b50919050565b620004de826200057b565b810181811067ffffffffffffffff821117156200050057620004ff62000538565b5b80604052505050565b7f4e487b7100000000000000000000000000000000000000000000000000000000600052602260045260246000fd5b7f4e487b7100000000000000000000000000000000000000000000000000000000600052604160045260246000fd5b600080fd5b600080fd5b600080fd5b600080fd5b6000601f19601f8301169050919050565b612d61806200059c6000396000f3fe6080604052600436106100dd5760003560e01c806359ba31241161007f578063aa90c72611610059578063aa90c7261461028c578063b4a99a4e146102a3578063eddd0d9c146102ce578063fd6c3b1b146102f7576100dd565b806359ba31241461020457806360daa851146102345780637a5caab314610261576100dd565b806315460259116100bb578063154602591461015457806327a8a0721461016b5780633b668059146101a8578063546fd992146101d3576100dd565b80630390c11c146100e25780630a67d2c71461010d5780631309a56314610129575b600080fd5b3480156100ee57600080fd5b506100f7610334565b604051610104919061245e565b60405180910390f35b61012760048036038101906101229190611d8e565b6103d5565b005b34801561013557600080fd5b5061013e6104ff565b60405161014b91906122c1565b60405180910390f35b34801561016057600080fd5b50610169610512565b005b34801561017757600080fd5b50610192600480360381019061018d9190611dbb565b61061c565b60405161019f919061229f565b60405180910390f35b3480156101b457600080fd5b506101bd610863565b6040516101ca919061245e565b60405180910390f35b6101ed60048036038101906101e89190611d61565b610902565b6040516101fb929190612479565b60405180910390f35b61021e60048036038101906102199190611dbb565b610bbf565b60405161022b919061229f565b60405180910390f35b34801561024057600080fd5b50610249610dcd565b604051610258939291906124d2565b60405180910390f35b34801561026d57600080fd5b50610276610ed3565b604051610283919061245e565b60405180910390f35b34801561029857600080fd5b506102a1610fca565b005b3480156102af57600080fd5b506102b86110d4565b6040516102c5919061222a565b60405180910390f35b3480156102da57600080fd5b506102f560048036038101906102f09190611e28565b6110fa565b005b34801561030357600080fd5b5061031e60048036038101906103199190611d61565b6111f1565b60405161032b919061229f565b60405180910390f35b6000600c60019054906101000a900473ffffffffffffffffffffffffffffffffffffffff1673ffffffffffffffffffffffffffffffffffffffff166103776112e1565b73ffffffffffffffffffffffffffffffffffffffff16146103cd576040517f08c379a00000000000000000000000000000000000000000000000000000000081526004016103c4906123be565b60405180910390fd5b600454905090565b600c60019054906101000a900473ffffffffffffffffffffffffffffffffffffffff1673ffffffffffffffffffffffffffffffffffffffff166104166112e1565b73ffffffffffffffffffffffffffffffffffffffff161461046c576040517f08c379a0000000000000000000000000000000000000000000000000000000008152600401610463906123be565b60405180910390fd5b6000479050600081116104b4576040517f08c379a00000000000000000000000000000000000000000000000000000000081526004016104ab9061241e565b60405180910390fd5b8173ffffffffffffffffffffffffffffffffffffffff166108fc829081150290604051600060405180830381858888f193505050501580156104fa573d6000803e3d6000fd5b505050565b600c60009054906101000a900460ff1681565b600c60019054906101000a900473ffffffffffffffffffffffffffffffffffffffff1673ffffffffffffffffffffffffffffffffffffffff166105536112e1565b73ffffffffffffffffffffffffffffffffffffffff16146105a9576040517f08c379a00000000000000000000000000000000000000000000000000000000081526004016105a0906123be565b60405180910390fd5b60011515600c60009054906101000a900460ff161515146105ff576040517f08c379a00000000000000000000000000000000000000000000000000000000081526004016105f69061235e565b60405180910390fd5b6000600c60006101000a81548160ff021916908315150217905550565b6060600c60019054906101000a900473ffffffffffffffffffffffffffffffffffffffff1673ffffffffffffffffffffffffffffffffffffffff1661065f6112e1565b73ffffffffffffffffffffffffffffffffffffffff16146106b5576040517f08c379a00000000000000000000000000000000000000000000000000000000081526004016106ac906123be565b60405180910390fd5b60001515600c60009054906101000a900460ff1615151461070b576040517f08c379a0000000000000000000000000000000000000000000000000000000008152600401610702906123de565b60405180910390fd5b60048210801561071b5750600082115b61075a576040517f08c379a00000000000000000000000000000000000000000000000000000000081526004016107519061239e565b60405180910390fd5b6103e8600454106107a0576040517f08c379a0000000000000000000000000000000000000000000000000000000008152600401610797906123fe565b60405180910390fd5b60005b828110156107c9576107b484610902565b505080806107c1906127a4565b9150506107a3565b50600a60008473ffffffffffffffffffffffffffffffffffffffff1673ffffffffffffffffffffffffffffffffffffffff16815260200190815260200160002060000180548060200260200160405190810160405280929190818152602001828054801561085657602002820191906000526020600020905b815481526020019060010190808311610842575b5050505050905092915050565b6000600c60019054906101000a900473ffffffffffffffffffffffffffffffffffffffff1673ffffffffffffffffffffffffffffffffffffffff166108a66112e1565b73ffffffffffffffffffffffffffffffffffffffff16146108fc576040517f08c379a00000000000000000000000000000000000000000000000000000000081526004016108f3906123be565b60405180910390fd5b47905090565b60006060600c60019054906101000a900473ffffffffffffffffffffffffffffffffffffffff1673ffffffffffffffffffffffffffffffffffffffff166109476112e1565b73ffffffffffffffffffffffffffffffffffffffff161461099d576040517f08c379a0000000000000000000000000000000000000000000000000000000008152600401610994906123be565b60405180910390fd5b60001515600c60009054906101000a900460ff161515146109f3576040517f08c379a00000000000000000000000000000000000000000000000000000000081526004016109ea906123de565b60405180910390fd5b60006109fd6112e9565b90506000610a0a8261132d565b9050610aa4858260055460028054610a2190612741565b80601f0160208091040260200160405190810160405280929190818152602001828054610a4d90612741565b8015610a9a5780601f10610a6f57610100808354040283529160200191610a9a565b820191906000526020600020905b815481529060010190602001808311610a7d57829003601f168201915b5050505050611610565b60046000815480929190610ab7906127a4565b9190505550600a60008673ffffffffffffffffffffffffffffffffffffffff1673ffffffffffffffffffffffffffffffffffffffff168152602001908152602001600020600001819080600181540180825580915050600190039060005260206000200160009091909190915055806002808054610b3490612741565b80601f0160208091040260200160405190810160405280929190818152602001828054610b6090612741565b8015610bad5780601f10610b8257610100808354040283529160200191610bad565b820191906000526020600020905b815481529060010190602001808311610b9057829003601f168201915b50505050509050935093505050915091565b606060001515600c60009054906101000a900460ff16151514610c17576040517f08c379a0000000000000000000000000000000000000000000000000000000008152600401610c0e906123de565b60405180910390fd5b600482108015610c275750600082115b610c66576040517f08c379a0000000000000000000000000000000000000000000000000000000008152600401610c5d9061239e565b60405180910390fd5b6103e860045410610cac576040517f08c379a0000000000000000000000000000000000000000000000000000000008152600401610ca3906123fe565b60405180910390fd5b81600654610cba91906125fa565b3414610cfb576040517f08c379a0000000000000000000000000000000000000000000000000000000008152600401610cf29061233e565b60405180910390fd5b60005b82811015610d2257610d0f84610902565b505080610d1b906127a4565b9050610cfe565b50610d34610d2e6112e1565b346117a6565b600a60008473ffffffffffffffffffffffffffffffffffffffff1673ffffffffffffffffffffffffffffffffffffffff168152602001908152602001600020600001805480602002602001604051908101604052809291908181526020018280548015610dc057602002820191906000526020600020905b815481526020019060010190808311610dac575b5050505050905092915050565b6000806000600c60019054906101000a900473ffffffffffffffffffffffffffffffffffffffff1673ffffffffffffffffffffffffffffffffffffffff16610e136112e1565b73ffffffffffffffffffffffffffffffffffffffff1614610e69576040517f08c379a0000000000000000000000000000000000000000000000000000000008152600401610e60906123be565b60405180910390fd5b60001515600c60009054906101000a900460ff16151514610ebf576040517f08c379a0000000000000000000000000000000000000000000000000000000008152600401610eb6906123de565b60405180910390fd5b600754600854600954925092509250909192565b6000600c60019054906101000a900473ffffffffffffffffffffffffffffffffffffffff1673ffffffffffffffffffffffffffffffffffffffff16610f166112e1565b73ffffffffffffffffffffffffffffffffffffffff1614610f6c576040517f08c379a0000000000000000000000000000000000000000000000000000000008152600401610f63906123be565b60405180910390fd5b60001515600c60009054906101000a900460ff16151514610fc2576040517f08c379a0000000000000000000000000000000000000000000000000000000008152600401610fb9906123de565b60405180910390fd5b600654905090565b600c60019054906101000a900473ffffffffffffffffffffffffffffffffffffffff1673ffffffffffffffffffffffffffffffffffffffff1661100b6112e1565b73ffffffffffffffffffffffffffffffffffffffff1614611061576040517f08c379a0000000000000000000000000000000000000000000000000000000008152600401611058906123be565b60405180910390fd5b60001515600c60009054906101000a900460ff161515146110b7576040517f08c379a00000000000000000000000000000000000000000000000000000000081526004016110ae9061237e565b60405180910390fd5b6001600c60006101000a81548160ff021916908315150217905550565b600c60019054906101000a900473ffffffffffffffffffffffffffffffffffffffff1681565b600c60019054906101000a900473ffffffffffffffffffffffffffffffffffffffff1673ffffffffffffffffffffffffffffffffffffffff1661113b6112e1565b73ffffffffffffffffffffffffffffffffffffffff1614611191576040517f08c379a0000000000000000000000000000000000000000000000000000000008152600401611188906123be565b60405180910390fd5b60001515600c60009054906101000a900460ff161515146111e7576040517f08c379a00000000000000000000000000000000000000000000000000000000081526004016111de906123de565b60405180910390fd5b8060068190555050565b606060001515600c60009054906101000a900460ff16151514611249576040517f08c379a0000000000000000000000000000000000000000000000000000000008152600401611240906123de565b60405180910390fd5b600a60008373ffffffffffffffffffffffffffffffffffffffff1673ffffffffffffffffffffffffffffffffffffffff1681526020019081526020016000206000018054806020026020016040519081016040528092919081815260200182805480156112d557602002820191906000526020600020905b8154815260200190600101908083116112c1575b50505050509050919050565b600033905090565b600080601442336040516020016113019291906121fe565b6040516020818303038152906040528051906020012060001c611324919061281b565b90508091505090565b6000801515600c60009054906101000a900460ff16151514611384576040517f08c379a000000000000000000000000000000000000000000000000000000000815260040161137b906123de565b60405180910390fd5b60006003836014811061139a576113996128d9565b5b602091828204019190069054906101000a900460ff1660ff1690506000811480156113c757506032600754105b1561142d57600760008154809291906113df906127a4565b91905055506113ef600754611800565b6040516020016113ff9190612198565b60405160208183030381529060405260029080519060200190611423929190611bdd565b508091505061160b565b6001811115801561144057506064600854105b156114a65760086000815480929190611458906127a4565b9190505550611468600854611800565b60405160200161147891906121ba565b6040516020818303038152906040526002908051906020019061149c929190611bdd565b508091505061160b565b600281111580156114bb575061035260095411155b1561153a57600960008154809291906114d3906127a4565b91905055506114e3600954611800565b6040516020016114f391906121dc565b60405160208183030381529060405260029080519060200190611517929190611bdd565b600290805461152590612741565b611530929190611c63565b508091505061160b565b606460085410156115aa57600190506008600081548092919061155c906127a4565b919050555061156c600854611800565b60405160200161157c91906121ba565b604051602081830303815290604052600290805190602001906115a0929190611bdd565b508091505061160b565b60009050600760008154809291906115c1906127a4565b91905055506115d1600754611800565b6040516020016115e19190612198565b60405160208183030381529060405260029080519060200190611605929190611bdd565b50809150505b919050565b600073ffffffffffffffffffffffffffffffffffffffff168473ffffffffffffffffffffffffffffffffffffffff161415611680576040517f08c379a00000000000000000000000000000000000000000000000000000000081526004016116779061243e565b60405180910390fd5b600061168a6112e1565b90506116ab8160008761169c88611961565b6116a588611961565b876119db565b8260008086815260200190815260200160002060008773ffffffffffffffffffffffffffffffffffffffff1673ffffffffffffffffffffffffffffffffffffffff168152602001908152602001600020600082825461170a9190612573565b925050819055508473ffffffffffffffffffffffffffffffffffffffff16600073ffffffffffffffffffffffffffffffffffffffff168273ffffffffffffffffffffffffffffffffffffffff167fc3d58168c5ae7397731d063d5bbf3d657854427343f4c083240f7aacaa2d0f6287876040516117889291906124a9565b60405180910390a461179f816000878787876119e3565b5050505050565b80600b60008473ffffffffffffffffffffffffffffffffffffffff1673ffffffffffffffffffffffffffffffffffffffff16815260200190815260200160002060008282546117f59190612573565b925050819055505050565b60606000821415611848576040518060400160405280600181526020017f3000000000000000000000000000000000000000000000000000000000000000815250905061195c565b600082905060005b6000821461187a578080611863906127a4565b915050600a8261187391906125c9565b9150611850565b60008167ffffffffffffffff81111561189657611895612908565b5b6040519080825280601f01601f1916602001820160405280156118c85781602001600182028036833780820191505090505b5090505b60008514611955576001826118e19190612654565b9150600a856118f0919061281b565b60306118fc9190612573565b60f81b818381518110611912576119116128d9565b5b60200101907effffffffffffffffffffffffffffffffffffffffffffffffffffffffffffff1916908160001a905350600a8561194e91906125c9565b94506118cc565b8093505050505b919050565b60606000600167ffffffffffffffff8111156119805761197f612908565b5b6040519080825280602002602001820160405280156119ae5781602001602082028036833780820191505090505b50905082816000815181106119c6576119c56128d9565b5b60200260200101818152505080915050919050565b505050505050565b611a028473ffffffffffffffffffffffffffffffffffffffff16611bca565b15611bc2578373ffffffffffffffffffffffffffffffffffffffff1663ae89a24887878686866040518663ffffffff1660e01b8152600401611a48959493929190612245565b602060405180830381600087803b158015611a6257600080fd5b505af1925050508015611a9357506040513d601f19601f82011682018060405250810190611a909190611dfb565b60015b611b3957611a9f612937565b806308c379a01415611afc5750611ab4612c39565b80611abf5750611afe565b806040517f08c379a0000000000000000000000000000000000000000000000000000000008152600401611af391906122dc565b60405180910390fd5b505b6040517f08c379a0000000000000000000000000000000000000000000000000000000008152600401611b30906122fe565b60405180910390fd5b63ae89a24860e01b7bffffffffffffffffffffffffffffffffffffffffffffffffffffffff1916817bffffffffffffffffffffffffffffffffffffffffffffffffffffffff191614611bc0576040517f08c379a0000000000000000000000000000000000000000000000000000000008152600401611bb79061231e565b60405180910390fd5b505b505050505050565b600080823b905060008111915050919050565b828054611be990612741565b90600052602060002090601f016020900481019282611c0b5760008555611c52565b82601f10611c2457805160ff1916838001178555611c52565b82800160010185558215611c52579182015b82811115611c51578251825591602001919060010190611c36565b5b509050611c5f9190611cf0565b5090565b828054611c6f90612741565b90600052602060002090601f016020900481019282611c915760008555611cdf565b82601f10611ca25780548555611cdf565b82800160010185558215611cdf57600052602060002091601f016020900482015b82811115611cde578254825591600101919060010190611cc3565b5b509050611cec9190611cf0565b5090565b5b80821115611d09576000816000905550600101611cf1565b5090565b600081359050611d1c81612ccf565b92915050565b600081359050611d3181612ce6565b92915050565b600081519050611d4681612cfd565b92915050565b600081359050611d5b81612d14565b92915050565b600060208284031215611d7757611d76612959565b5b6000611d8584828501611d0d565b91505092915050565b600060208284031215611da457611da3612959565b5b6000611db284828501611d22565b91505092915050565b60008060408385031215611dd257611dd1612959565b5b6000611de085828601611d0d565b9250506020611df185828601611d4c565b9150509250929050565b600060208284031215611e1157611e10612959565b5b6000611e1f84828501611d37565b91505092915050565b600060208284031215611e3e57611e3d612959565b5b6000611e4c84828501611d4c565b91505092915050565b6000611e618383612163565b60208301905092915050565b611e768161269a565b82525050565b611e8581612688565b82525050565b611e9c611e9782612688565b6127ed565b82525050565b6000611ead82612523565b611eb78185612546565b9350611ec283612513565b8060005b83811015611ef3578151611eda8882611e55565b9750611ee583612539565b925050600181019050611ec6565b5085935050505092915050565b611f09816126ac565b82525050565b6000611f1a8261252e565b611f248185612557565b9350611f3481856020860161270e565b611f3d8161295e565b840191505092915050565b6000611f538261252e565b611f5d8185612568565b9350611f6d81856020860161270e565b80840191505092915050565b6000611f86603483612557565b9150611f9182612989565b604082019050919050565b6000611fa9602883612557565b9150611fb4826129d8565b604082019050919050565b6000611fcc600883612568565b9150611fd782612a27565b600882019050919050565b6000611fef600583612568565b9150611ffa82612a50565b600582019050919050565b6000612012601283612557565b915061201d82612a79565b602082019050919050565b6000612035601b83612557565b915061204082612aa2565b602082019050919050565b6000612058601b83612557565b915061206382612acb565b602082019050919050565b600061207b601583612557565b915061208682612af4565b602082019050919050565b600061209e601c83612557565b91506120a982612b1d565b602082019050919050565b60006120c1601b83612557565b91506120cc82612b46565b602082019050919050565b60006120e4601983612557565b91506120ef82612b6f565b602082019050919050565b6000612107600783612568565b915061211282612b98565b600782019050919050565b600061212a601d83612557565b915061213582612bc1565b602082019050919050565b600061214d602183612557565b915061215882612bea565b604082019050919050565b61216c81612704565b82525050565b61217b81612704565b82525050565b61219261218d82612704565b612811565b82525050565b60006121a382611fbf565b91506121af8284611f48565b915081905092915050565b60006121c582611fe2565b91506121d18284611f48565b915081905092915050565b60006121e7826120fa565b91506121f38284611f48565b915081905092915050565b600061220a8285612181565b60208201915061221a8284611e8b565b6014820191508190509392505050565b600060208201905061223f6000830184611e6d565b92915050565b600060a08201905061225a6000830188611e7c565b6122676020830187611e7c565b6122746040830186612172565b6122816060830185612172565b81810360808301526122938184611f0f565b90509695505050505050565b600060208201905081810360008301526122b98184611ea2565b905092915050565b60006020820190506122d66000830184611f00565b92915050565b600060208201905081810360008301526122f68184611f0f565b905092915050565b6000602082019050818103600083015261231781611f79565b9050919050565b6000602082019050818103600083015261233781611f9c565b9050919050565b6000602082019050818103600083015261235781612005565b9050919050565b6000602082019050818103600083015261237781612028565b9050919050565b600060208201905081810360008301526123978161204b565b9050919050565b600060208201905081810360008301526123b78161206e565b9050919050565b600060208201905081810360008301526123d781612091565b9050919050565b600060208201905081810360008301526123f7816120b4565b9050919050565b60006020820190508181036000830152612417816120d7565b9050919050565b600060208201905081810360008301526124378161211d565b9050919050565b6000602082019050818103600083015261245781612140565b9050919050565b60006020820190506124736000830184612172565b92915050565b600060408201905061248e6000830185612172565b81810360208301526124a08184611f0f565b90509392505050565b60006040820190506124be6000830185612172565b6124cb6020830184612172565b9392505050565b60006060820190506124e76000830186612172565b6124f46020830185612172565b6125016040830184612172565b949350505050565b6000604051905090565b6000819050602082019050919050565b600081519050919050565b600081519050919050565b6000602082019050919050565b600082825260208201905092915050565b600082825260208201905092915050565b600081905092915050565b600061257e82612704565b915061258983612704565b9250827fffffffffffffffffffffffffffffffffffffffffffffffffffffffffffffffff038211156125be576125bd61284c565b5b828201905092915050565b60006125d482612704565b91506125df83612704565b9250826125ef576125ee61287b565b5b828204905092915050565b600061260582612704565b915061261083612704565b9250817fffffffffffffffffffffffffffffffffffffffffffffffffffffffffffffffff04831182151516156126495761264861284c565b5b828202905092915050565b600061265f82612704565b915061266a83612704565b92508282101561267d5761267c61284c565b5b828203905092915050565b6000612693826126e4565b9050919050565b60006126a5826126e4565b9050919050565b60008115159050919050565b60007fffffffff0000000000000000000000000000000000000000000000000000000082169050919050565b600073ffffffffffffffffffffffffffffffffffffffff82169050919050565b6000819050919050565b60005b8381101561272c578082015181840152602081019050612711565b8381111561273b576000848401525b50505050565b6000600282049050600182168061275957607f821691505b6020821081141561276d5761276c6128aa565b5b50919050565b61277c8261295e565b810181811067ffffffffffffffff8211171561279b5761279a612908565b5b80604052505050565b60006127af82612704565b91507fffffffffffffffffffffffffffffffffffffffffffffffffffffffffffffffff8214156127e2576127e161284c565b5b600182019050919050565b60006127f8826127ff565b9050919050565b600061280a8261296f565b9050919050565b6000819050919050565b600061282682612704565b915061283183612704565b9250826128415761284061287b565b5b828206905092915050565b7f4e487b7100000000000000000000000000000000000000000000000000000000600052601160045260246000fd5b7f4e487b7100000000000000000000000000000000000000000000000000000000600052601260045260246000fd5b7f4e487b7100000000000000000000000000000000000000000000000000000000600052602260045260246000fd5b7f4e487b7100000000000000000000000000000000000000000000000000000000600052603260045260246000fd5b7f4e487b7100000000000000000000000000000000000000000000000000000000600052604160045260246000fd5b600060033d11156129565760046000803e61295360005161297c565b90505b90565b600080fd5b6000601f19601f8301169050919050565b60008160601b9050919050565b60008160e01c9050919050565b7f455243313135353a207472616e7366657220746f206e6f6e204552433131353560008201527f526563656976657220696d706c656d656e746572000000000000000000000000602082015250565b7f455243313135353a204552433131353552656365697665722072656a6563746560008201527f6420746f6b656e73000000000000000000000000000000000000000000000000602082015250565b7f4469616d6f6e645f000000000000000000000000000000000000000000000000600082015250565b7f476f6c645f000000000000000000000000000000000000000000000000000000600082015250565b7f4e6f7420456e6f7567682042616c616e63650000000000000000000000000000600082015250565b7f44726f707369746520697320616c72656164792052756e6e696e670000000000600082015250565b7f44726f707369746520697320616c72656164792053746f707065640000000000600082015250565b7f596f752063616e206d696e7420312d33204e4654730000000000000000000000600082015250565b7f4f6e6c79204e46542d4553204f776e65722063616e2041636365737300000000600082015250565b7f44726f7073697465206973206e6f74204f70656e6564205965742e0000000000600082015250565b7f4d6178204d696e74696e67204c696d6974207265616368656400000000000000600082015250565b7f53696c7665725f00000000000000000000000000000000000000000000000000600082015250565b7f4572726f7221204e6f2042616c616e636520746f207769746864726177000000600082015250565b7f455243313135353a206d696e7420746f20746865207a65726f2061646472657360008201527f7300000000000000000000000000000000000000000000000000000000000000602082015250565b600060443d1015612c4957612ccc565b612c51612509565b60043d036004823e80513d602482011167ffffffffffffffff82111715612c79575050612ccc565b808201805167ffffffffffffffff811115612c975750505050612ccc565b80602083010160043d038501811115612cb4575050505050612ccc565b612cc382602001850186612773565b82955050505050505b90565b612cd881612688565b8114612ce357600080fd5b50565b612cef8161269a565b8114612cfa57600080fd5b50565b612d06816126b8565b8114612d1157600080fd5b50565b612d1d81612704565b8114612d2857600080fd5b5056fea26469706673582212206ebc39ce4abdc2be3ceaedba4f8071574b71ca7eb653216e25f8fcaa971a9df164736f6c63430008070033",
					"opcodes": "PUSH1 0x80 PUSH1 0x40 MSTORE PUSH1 0x40 MLOAD DUP1 PUSH1 0x20 ADD PUSH1 0x40 MSTORE DUP1 PUSH1 0x0 DUP2 MSTORE POP PUSH1 0x2 SWAP1 DUP1 MLOAD SWAP1 PUSH1 0x20 ADD SWAP1 PUSH3 0x2B SWAP3 SWAP2 SWAP1 PUSH3 0x1E8 JUMP JUMPDEST POP PUSH1 0x40 MLOAD DUP1 PUSH2 0x280 ADD PUSH1 0x40 MSTORE DUP1 PUSH1 0x0 PUSH1 0xFF AND DUP2 MSTORE PUSH1 0x20 ADD PUSH1 0x1 PUSH1 0xFF AND DUP2 MSTORE PUSH1 0x20 ADD PUSH1 0x1 PUSH1 0xFF AND DUP2 MSTORE PUSH1 0x20 ADD PUSH1 0x2 PUSH1 0xFF AND DUP2 MSTORE PUSH1 0x20 ADD PUSH1 0x2 PUSH1 0xFF AND DUP2 MSTORE PUSH1 0x20 ADD PUSH1 0x2 PUSH1 0xFF AND DUP2 MSTORE PUSH1 0x20 ADD PUSH1 0x2 PUSH1 0xFF AND DUP2 MSTORE PUSH1 0x20 ADD PUSH1 0x2 PUSH1 0xFF AND DUP2 MSTORE PUSH1 0x20 ADD PUSH1 0x2 PUSH1 0xFF AND DUP2 MSTORE PUSH1 0x20 ADD PUSH1 0x2 PUSH1 0xFF AND DUP2 MSTORE PUSH1 0x20 ADD PUSH1 0x2 PUSH1 0xFF AND DUP2 MSTORE PUSH1 0x20 ADD PUSH1 0x2 PUSH1 0xFF AND DUP2 MSTORE PUSH1 0x20 ADD PUSH1 0x2 PUSH1 0xFF AND DUP2 MSTORE PUSH1 0x20 ADD PUSH1 0x2 PUSH1 0xFF AND DUP2 MSTORE PUSH1 0x20 ADD PUSH1 0x2 PUSH1 0xFF AND DUP2 MSTORE PUSH1 0x20 ADD PUSH1 0x2 PUSH1 0xFF AND DUP2 MSTORE PUSH1 0x20 ADD PUSH1 0x2 PUSH1 0xFF AND DUP2 MSTORE PUSH1 0x20 ADD PUSH1 0x2 PUSH1 0xFF AND DUP2 MSTORE PUSH1 0x20 ADD PUSH1 0x2 PUSH1 0xFF AND DUP2 MSTORE PUSH1 0x20 ADD PUSH1 0x2 PUSH1 0xFF AND DUP2 MSTORE POP PUSH1 0x3 SWAP1 PUSH1 0x14 PUSH3 0x110 SWAP3 SWAP2 SWAP1 PUSH3 0x279 JUMP JUMPDEST POP PUSH1 0x1 PUSH1 0xC PUSH1 0x0 PUSH2 0x100 EXP DUP2 SLOAD DUP2 PUSH1 0xFF MUL NOT AND SWAP1 DUP4 ISZERO ISZERO MUL OR SWAP1 SSTORE POP CALLVALUE DUP1 ISZERO PUSH3 0x139 JUMPI PUSH1 0x0 DUP1 REVERT JUMPDEST POP PUSH1 0x40 MLOAD PUSH3 0x32FD CODESIZE SUB DUP1 PUSH3 0x32FD DUP4 CODECOPY DUP2 DUP2 ADD PUSH1 0x40 MSTORE DUP2 ADD SWAP1 PUSH3 0x15F SWAP2 SWAP1 PUSH3 0x3B7 JUMP JUMPDEST DUP1 PUSH1 0xD SWAP1 DUP1 MLOAD SWAP1 PUSH1 0x20 ADD SWAP1 PUSH3 0x177 SWAP3 SWAP2 SWAP1 PUSH3 0x1E8 JUMP JUMPDEST POP CALLER PUSH1 0xC PUSH1 0x1 PUSH2 0x100 EXP DUP2 SLOAD DUP2 PUSH20 0xFFFFFFFFFFFFFFFFFFFFFFFFFFFFFFFFFFFFFFFF MUL NOT AND SWAP1 DUP4 PUSH20 0xFFFFFFFFFFFFFFFFFFFFFFFFFFFFFFFFFFFFFFFF AND MUL OR SWAP1 SSTORE POP PUSH1 0x0 PUSH1 0x4 DUP2 SWAP1 SSTORE POP PUSH1 0x1 PUSH1 0x5 DUP2 SWAP1 SSTORE POP PUSH1 0x0 PUSH1 0x7 DUP2 SWAP1 SSTORE POP PUSH1 0x0 PUSH1 0x8 DUP2 SWAP1 SSTORE POP PUSH1 0x0 PUSH1 0x9 DUP2 SWAP1 SSTORE POP POP PUSH3 0x58C JUMP JUMPDEST DUP3 DUP1 SLOAD PUSH3 0x1F6 SWAP1 PUSH3 0x49D JUMP JUMPDEST SWAP1 PUSH1 0x0 MSTORE PUSH1 0x20 PUSH1 0x0 KECCAK256 SWAP1 PUSH1 0x1F ADD PUSH1 0x20 SWAP1 DIV DUP2 ADD SWAP3 DUP3 PUSH3 0x21A JUMPI PUSH1 0x0 DUP6 SSTORE PUSH3 0x266 JUMP JUMPDEST DUP3 PUSH1 0x1F LT PUSH3 0x235 JUMPI DUP1 MLOAD PUSH1 0xFF NOT AND DUP4 DUP1 ADD OR DUP6 SSTORE PUSH3 0x266 JUMP JUMPDEST DUP3 DUP1 ADD PUSH1 0x1 ADD DUP6 SSTORE DUP3 ISZERO PUSH3 0x266 JUMPI SWAP2 DUP3 ADD JUMPDEST DUP3 DUP2 GT ISZERO PUSH3 0x265 JUMPI DUP3 MLOAD DUP3 SSTORE SWAP2 PUSH1 0x20 ADD SWAP2 SWAP1 PUSH1 0x1 ADD SWAP1 PUSH3 0x248 JUMP JUMPDEST JUMPDEST POP SWAP1 POP PUSH3 0x275 SWAP2 SWAP1 PUSH3 0x31A JUMP JUMPDEST POP SWAP1 JUMP JUMPDEST DUP3 PUSH1 0x14 PUSH1 0x1F ADD PUSH1 0x20 SWAP1 DIV DUP2 ADD SWAP3 DUP3 ISZERO PUSH3 0x307 JUMPI SWAP2 PUSH1 0x20 MUL DUP3 ADD PUSH1 0x0 JUMPDEST DUP4 DUP3 GT ISZERO PUSH3 0x2D6 JUMPI DUP4 MLOAD DUP4 DUP3 PUSH2 0x100 EXP DUP2 SLOAD DUP2 PUSH1 0xFF MUL NOT AND SWAP1 DUP4 PUSH1 0xFF AND MUL OR SWAP1 SSTORE POP SWAP3 PUSH1 0x20 ADD SWAP3 PUSH1 0x1 ADD PUSH1 0x20 DUP2 PUSH1 0x0 ADD DIV SWAP3 DUP4 ADD SWAP3 PUSH1 0x1 SUB MUL PUSH3 0x296 JUMP JUMPDEST DUP1 ISZERO PUSH3 0x305 JUMPI DUP3 DUP2 PUSH2 0x100 EXP DUP2 SLOAD SWAP1 PUSH1 0xFF MUL NOT AND SWAP1 SSTORE PUSH1 0x1 ADD PUSH1 0x20 DUP2 PUSH1 0x0 ADD DIV SWAP3 DUP4 ADD SWAP3 PUSH1 0x1 SUB MUL PUSH3 0x2D6 JUMP JUMPDEST POP JUMPDEST POP SWAP1 POP PUSH3 0x316 SWAP2 SWAP1 PUSH3 0x31A JUMP JUMPDEST POP SWAP1 JUMP JUMPDEST JUMPDEST DUP1 DUP3 GT ISZERO PUSH3 0x335 JUMPI PUSH1 0x0 DUP2 PUSH1 0x0 SWAP1 SSTORE POP PUSH1 0x1 ADD PUSH3 0x31B JUMP JUMPDEST POP SWAP1 JUMP JUMPDEST PUSH1 0x0 PUSH3 0x350 PUSH3 0x34A DUP5 PUSH3 0x431 JUMP JUMPDEST PUSH3 0x408 JUMP JUMPDEST SWAP1 POP DUP3 DUP2 MSTORE PUSH1 0x20 DUP2 ADD DUP5 DUP5 DUP5 ADD GT ISZERO PUSH3 0x36F JUMPI PUSH3 0x36E PUSH3 0x56C JUMP JUMPDEST JUMPDEST PUSH3 0x37C DUP5 DUP3 DUP6 PUSH3 0x467 JUMP JUMPDEST POP SWAP4 SWAP3 POP POP POP JUMP JUMPDEST PUSH1 0x0 DUP3 PUSH1 0x1F DUP4 ADD SLT PUSH3 0x39C JUMPI PUSH3 0x39B PUSH3 0x567 JUMP JUMPDEST JUMPDEST DUP2 MLOAD PUSH3 0x3AE DUP5 DUP3 PUSH1 0x20 DUP7 ADD PUSH3 0x339 JUMP JUMPDEST SWAP2 POP POP SWAP3 SWAP2 POP POP JUMP JUMPDEST PUSH1 0x0 PUSH1 0x20 DUP3 DUP5 SUB SLT ISZERO PUSH3 0x3D0 JUMPI PUSH3 0x3CF PUSH3 0x576 JUMP JUMPDEST JUMPDEST PUSH1 0x0 DUP3 ADD MLOAD PUSH8 0xFFFFFFFFFFFFFFFF DUP2 GT ISZERO PUSH3 0x3F1 JUMPI PUSH3 0x3F0 PUSH3 0x571 JUMP JUMPDEST JUMPDEST PUSH3 0x3FF DUP5 DUP3 DUP6 ADD PUSH3 0x384 JUMP JUMPDEST SWAP2 POP POP SWAP3 SWAP2 POP POP JUMP JUMPDEST PUSH1 0x0 PUSH3 0x414 PUSH3 0x427 JUMP JUMPDEST SWAP1 POP PUSH3 0x422 DUP3 DUP3 PUSH3 0x4D3 JUMP JUMPDEST SWAP2 SWAP1 POP JUMP JUMPDEST PUSH1 0x0 PUSH1 0x40 MLOAD SWAP1 POP SWAP1 JUMP JUMPDEST PUSH1 0x0 PUSH8 0xFFFFFFFFFFFFFFFF DUP3 GT ISZERO PUSH3 0x44F JUMPI PUSH3 0x44E PUSH3 0x538 JUMP JUMPDEST JUMPDEST PUSH3 0x45A DUP3 PUSH3 0x57B JUMP JUMPDEST SWAP1 POP PUSH1 0x20 DUP2 ADD SWAP1 POP SWAP2 SWAP1 POP JUMP JUMPDEST PUSH1 0x0 JUMPDEST DUP4 DUP2 LT ISZERO PUSH3 0x487 JUMPI DUP1 DUP3 ADD MLOAD DUP2 DUP5 ADD MSTORE PUSH1 0x20 DUP2 ADD SWAP1 POP PUSH3 0x46A JUMP JUMPDEST DUP4 DUP2 GT ISZERO PUSH3 0x497 JUMPI PUSH1 0x0 DUP5 DUP5 ADD MSTORE JUMPDEST POP POP POP POP JUMP JUMPDEST PUSH1 0x0 PUSH1 0x2 DUP3 DIV SWAP1 POP PUSH1 0x1 DUP3 AND DUP1 PUSH3 0x4B6 JUMPI PUSH1 0x7F DUP3 AND SWAP2 POP JUMPDEST PUSH1 0x20 DUP3 LT DUP2 EQ ISZERO PUSH3 0x4CD JUMPI PUSH3 0x4CC PUSH3 0x509 JUMP JUMPDEST JUMPDEST POP SWAP2 SWAP1 POP JUMP JUMPDEST PUSH3 0x4DE DUP3 PUSH3 0x57B JUMP JUMPDEST DUP2 ADD DUP2 DUP2 LT PUSH8 0xFFFFFFFFFFFFFFFF DUP3 GT OR ISZERO PUSH3 0x500 JUMPI PUSH3 0x4FF PUSH3 0x538 JUMP JUMPDEST JUMPDEST DUP1 PUSH1 0x40 MSTORE POP POP POP JUMP JUMPDEST PUSH32 0x4E487B7100000000000000000000000000000000000000000000000000000000 PUSH1 0x0 MSTORE PUSH1 0x22 PUSH1 0x4 MSTORE PUSH1 0x24 PUSH1 0x0 REVERT JUMPDEST PUSH32 0x4E487B7100000000000000000000000000000000000000000000000000000000 PUSH1 0x0 MSTORE PUSH1 0x41 PUSH1 0x4 MSTORE PUSH1 0x24 PUSH1 0x0 REVERT JUMPDEST PUSH1 0x0 DUP1 REVERT JUMPDEST PUSH1 0x0 DUP1 REVERT JUMPDEST PUSH1 0x0 DUP1 REVERT JUMPDEST PUSH1 0x0 DUP1 REVERT JUMPDEST PUSH1 0x0 PUSH1 0x1F NOT PUSH1 0x1F DUP4 ADD AND SWAP1 POP SWAP2 SWAP1 POP JUMP JUMPDEST PUSH2 0x2D61 DUP1 PUSH3 0x59C PUSH1 0x0 CODECOPY PUSH1 0x0 RETURN INVALID PUSH1 0x80 PUSH1 0x40 MSTORE PUSH1 0x4 CALLDATASIZE LT PUSH2 0xDD JUMPI PUSH1 0x0 CALLDATALOAD PUSH1 0xE0 SHR DUP1 PUSH4 0x59BA3124 GT PUSH2 0x7F JUMPI DUP1 PUSH4 0xAA90C726 GT PUSH2 0x59 JUMPI DUP1 PUSH4 0xAA90C726 EQ PUSH2 0x28C JUMPI DUP1 PUSH4 0xB4A99A4E EQ PUSH2 0x2A3 JUMPI DUP1 PUSH4 0xEDDD0D9C EQ PUSH2 0x2CE JUMPI DUP1 PUSH4 0xFD6C3B1B EQ PUSH2 0x2F7 JUMPI PUSH2 0xDD JUMP JUMPDEST DUP1 PUSH4 0x59BA3124 EQ PUSH2 0x204 JUMPI DUP1 PUSH4 0x60DAA851 EQ PUSH2 0x234 JUMPI DUP1 PUSH4 0x7A5CAAB3 EQ PUSH2 0x261 JUMPI PUSH2 0xDD JUMP JUMPDEST DUP1 PUSH4 0x15460259 GT PUSH2 0xBB JUMPI DUP1 PUSH4 0x15460259 EQ PUSH2 0x154 JUMPI DUP1 PUSH4 0x27A8A072 EQ PUSH2 0x16B JUMPI DUP1 PUSH4 0x3B668059 EQ PUSH2 0x1A8 JUMPI DUP1 PUSH4 0x546FD992 EQ PUSH2 0x1D3 JUMPI PUSH2 0xDD JUMP JUMPDEST DUP1 PUSH4 0x390C11C EQ PUSH2 0xE2 JUMPI DUP1 PUSH4 0xA67D2C7 EQ PUSH2 0x10D JUMPI DUP1 PUSH4 0x1309A563 EQ PUSH2 0x129 JUMPI JUMPDEST PUSH1 0x0 DUP1 REVERT JUMPDEST CALLVALUE DUP1 ISZERO PUSH2 0xEE JUMPI PUSH1 0x0 DUP1 REVERT JUMPDEST POP PUSH2 0xF7 PUSH2 0x334 JUMP JUMPDEST PUSH1 0x40 MLOAD PUSH2 0x104 SWAP2 SWAP1 PUSH2 0x245E JUMP JUMPDEST PUSH1 0x40 MLOAD DUP1 SWAP2 SUB SWAP1 RETURN JUMPDEST PUSH2 0x127 PUSH1 0x4 DUP1 CALLDATASIZE SUB DUP2 ADD SWAP1 PUSH2 0x122 SWAP2 SWAP1 PUSH2 0x1D8E JUMP JUMPDEST PUSH2 0x3D5 JUMP JUMPDEST STOP JUMPDEST CALLVALUE DUP1 ISZERO PUSH2 0x135 JUMPI PUSH1 0x0 DUP1 REVERT JUMPDEST POP PUSH2 0x13E PUSH2 0x4FF JUMP JUMPDEST PUSH1 0x40 MLOAD PUSH2 0x14B SWAP2 SWAP1 PUSH2 0x22C1 JUMP JUMPDEST PUSH1 0x40 MLOAD DUP1 SWAP2 SUB SWAP1 RETURN JUMPDEST CALLVALUE DUP1 ISZERO PUSH2 0x160 JUMPI PUSH1 0x0 DUP1 REVERT JUMPDEST POP PUSH2 0x169 PUSH2 0x512 JUMP JUMPDEST STOP JUMPDEST CALLVALUE DUP1 ISZERO PUSH2 0x177 JUMPI PUSH1 0x0 DUP1 REVERT JUMPDEST POP PUSH2 0x192 PUSH1 0x4 DUP1 CALLDATASIZE SUB DUP2 ADD SWAP1 PUSH2 0x18D SWAP2 SWAP1 PUSH2 0x1DBB JUMP JUMPDEST PUSH2 0x61C JUMP JUMPDEST PUSH1 0x40 MLOAD PUSH2 0x19F SWAP2 SWAP1 PUSH2 0x229F JUMP JUMPDEST PUSH1 0x40 MLOAD DUP1 SWAP2 SUB SWAP1 RETURN JUMPDEST CALLVALUE DUP1 ISZERO PUSH2 0x1B4 JUMPI PUSH1 0x0 DUP1 REVERT JUMPDEST POP PUSH2 0x1BD PUSH2 0x863 JUMP JUMPDEST PUSH1 0x40 MLOAD PUSH2 0x1CA SWAP2 SWAP1 PUSH2 0x245E JUMP JUMPDEST PUSH1 0x40 MLOAD DUP1 SWAP2 SUB SWAP1 RETURN JUMPDEST PUSH2 0x1ED PUSH1 0x4 DUP1 CALLDATASIZE SUB DUP2 ADD SWAP1 PUSH2 0x1E8 SWAP2 SWAP1 PUSH2 0x1D61 JUMP JUMPDEST PUSH2 0x902 JUMP JUMPDEST PUSH1 0x40 MLOAD PUSH2 0x1FB SWAP3 SWAP2 SWAP1 PUSH2 0x2479 JUMP JUMPDEST PUSH1 0x40 MLOAD DUP1 SWAP2 SUB SWAP1 RETURN JUMPDEST PUSH2 0x21E PUSH1 0x4 DUP1 CALLDATASIZE SUB DUP2 ADD SWAP1 PUSH2 0x219 SWAP2 SWAP1 PUSH2 0x1DBB JUMP JUMPDEST PUSH2 0xBBF JUMP JUMPDEST PUSH1 0x40 MLOAD PUSH2 0x22B SWAP2 SWAP1 PUSH2 0x229F JUMP JUMPDEST PUSH1 0x40 MLOAD DUP1 SWAP2 SUB SWAP1 RETURN JUMPDEST CALLVALUE DUP1 ISZERO PUSH2 0x240 JUMPI PUSH1 0x0 DUP1 REVERT JUMPDEST POP PUSH2 0x249 PUSH2 0xDCD JUMP JUMPDEST PUSH1 0x40 MLOAD PUSH2 0x258 SWAP4 SWAP3 SWAP2 SWAP1 PUSH2 0x24D2 JUMP JUMPDEST PUSH1 0x40 MLOAD DUP1 SWAP2 SUB SWAP1 RETURN JUMPDEST CALLVALUE DUP1 ISZERO PUSH2 0x26D JUMPI PUSH1 0x0 DUP1 REVERT JUMPDEST POP PUSH2 0x276 PUSH2 0xED3 JUMP JUMPDEST PUSH1 0x40 MLOAD PUSH2 0x283 SWAP2 SWAP1 PUSH2 0x245E JUMP JUMPDEST PUSH1 0x40 MLOAD DUP1 SWAP2 SUB SWAP1 RETURN JUMPDEST CALLVALUE DUP1 ISZERO PUSH2 0x298 JUMPI PUSH1 0x0 DUP1 REVERT JUMPDEST POP PUSH2 0x2A1 PUSH2 0xFCA JUMP JUMPDEST STOP JUMPDEST CALLVALUE DUP1 ISZERO PUSH2 0x2AF JUMPI PUSH1 0x0 DUP1 REVERT JUMPDEST POP PUSH2 0x2B8 PUSH2 0x10D4 JUMP JUMPDEST PUSH1 0x40 MLOAD PUSH2 0x2C5 SWAP2 SWAP1 PUSH2 0x222A JUMP JUMPDEST PUSH1 0x40 MLOAD DUP1 SWAP2 SUB SWAP1 RETURN JUMPDEST CALLVALUE DUP1 ISZERO PUSH2 0x2DA JUMPI PUSH1 0x0 DUP1 REVERT JUMPDEST POP PUSH2 0x2F5 PUSH1 0x4 DUP1 CALLDATASIZE SUB DUP2 ADD SWAP1 PUSH2 0x2F0 SWAP2 SWAP1 PUSH2 0x1E28 JUMP JUMPDEST PUSH2 0x10FA JUMP JUMPDEST STOP JUMPDEST CALLVALUE DUP1 ISZERO PUSH2 0x303 JUMPI PUSH1 0x0 DUP1 REVERT JUMPDEST POP PUSH2 0x31E PUSH1 0x4 DUP1 CALLDATASIZE SUB DUP2 ADD SWAP1 PUSH2 0x319 SWAP2 SWAP1 PUSH2 0x1D61 JUMP JUMPDEST PUSH2 0x11F1 JUMP JUMPDEST PUSH1 0x40 MLOAD PUSH2 0x32B SWAP2 SWAP1 PUSH2 0x229F JUMP JUMPDEST PUSH1 0x40 MLOAD DUP1 SWAP2 SUB SWAP1 RETURN JUMPDEST PUSH1 0x0 PUSH1 0xC PUSH1 0x1 SWAP1 SLOAD SWAP1 PUSH2 0x100 EXP SWAP1 DIV PUSH20 0xFFFFFFFFFFFFFFFFFFFFFFFFFFFFFFFFFFFFFFFF AND PUSH20 0xFFFFFFFFFFFFFFFFFFFFFFFFFFFFFFFFFFFFFFFF AND PUSH2 0x377 PUSH2 0x12E1 JUMP JUMPDEST PUSH20 0xFFFFFFFFFFFFFFFFFFFFFFFFFFFFFFFFFFFFFFFF AND EQ PUSH2 0x3CD JUMPI PUSH1 0x40 MLOAD PUSH32 0x8C379A000000000000000000000000000000000000000000000000000000000 DUP2 MSTORE PUSH1 0x4 ADD PUSH2 0x3C4 SWAP1 PUSH2 0x23BE JUMP JUMPDEST PUSH1 0x40 MLOAD DUP1 SWAP2 SUB SWAP1 REVERT JUMPDEST PUSH1 0x4 SLOAD SWAP1 POP SWAP1 JUMP JUMPDEST PUSH1 0xC PUSH1 0x1 SWAP1 SLOAD SWAP1 PUSH2 0x100 EXP SWAP1 DIV PUSH20 0xFFFFFFFFFFFFFFFFFFFFFFFFFFFFFFFFFFFFFFFF AND PUSH20 0xFFFFFFFFFFFFFFFFFFFFFFFFFFFFFFFFFFFFFFFF AND PUSH2 0x416 PUSH2 0x12E1 JUMP JUMPDEST PUSH20 0xFFFFFFFFFFFFFFFFFFFFFFFFFFFFFFFFFFFFFFFF AND EQ PUSH2 0x46C JUMPI PUSH1 0x40 MLOAD PUSH32 0x8C379A000000000000000000000000000000000000000000000000000000000 DUP2 MSTORE PUSH1 0x4 ADD PUSH2 0x463 SWAP1 PUSH2 0x23BE JUMP JUMPDEST PUSH1 0x40 MLOAD DUP1 SWAP2 SUB SWAP1 REVERT JUMPDEST PUSH1 0x0 SELFBALANCE SWAP1 POP PUSH1 0x0 DUP2 GT PUSH2 0x4B4 JUMPI PUSH1 0x40 MLOAD PUSH32 0x8C379A000000000000000000000000000000000000000000000000000000000 DUP2 MSTORE PUSH1 0x4 ADD PUSH2 0x4AB SWAP1 PUSH2 0x241E JUMP JUMPDEST PUSH1 0x40 MLOAD DUP1 SWAP2 SUB SWAP1 REVERT JUMPDEST DUP2 PUSH20 0xFFFFFFFFFFFFFFFFFFFFFFFFFFFFFFFFFFFFFFFF AND PUSH2 0x8FC DUP3 SWAP1 DUP2 ISZERO MUL SWAP1 PUSH1 0x40 MLOAD PUSH1 0x0 PUSH1 0x40 MLOAD DUP1 DUP4 SUB DUP2 DUP6 DUP9 DUP9 CALL SWAP4 POP POP POP POP ISZERO DUP1 ISZERO PUSH2 0x4FA JUMPI RETURNDATASIZE PUSH1 0x0 DUP1 RETURNDATACOPY RETURNDATASIZE PUSH1 0x0 REVERT JUMPDEST POP POP POP JUMP JUMPDEST PUSH1 0xC PUSH1 0x0 SWAP1 SLOAD SWAP1 PUSH2 0x100 EXP SWAP1 DIV PUSH1 0xFF AND DUP2 JUMP JUMPDEST PUSH1 0xC PUSH1 0x1 SWAP1 SLOAD SWAP1 PUSH2 0x100 EXP SWAP1 DIV PUSH20 0xFFFFFFFFFFFFFFFFFFFFFFFFFFFFFFFFFFFFFFFF AND PUSH20 0xFFFFFFFFFFFFFFFFFFFFFFFFFFFFFFFFFFFFFFFF AND PUSH2 0x553 PUSH2 0x12E1 JUMP JUMPDEST PUSH20 0xFFFFFFFFFFFFFFFFFFFFFFFFFFFFFFFFFFFFFFFF AND EQ PUSH2 0x5A9 JUMPI PUSH1 0x40 MLOAD PUSH32 0x8C379A000000000000000000000000000000000000000000000000000000000 DUP2 MSTORE PUSH1 0x4 ADD PUSH2 0x5A0 SWAP1 PUSH2 0x23BE JUMP JUMPDEST PUSH1 0x40 MLOAD DUP1 SWAP2 SUB SWAP1 REVERT JUMPDEST PUSH1 0x1 ISZERO ISZERO PUSH1 0xC PUSH1 0x0 SWAP1 SLOAD SWAP1 PUSH2 0x100 EXP SWAP1 DIV PUSH1 0xFF AND ISZERO ISZERO EQ PUSH2 0x5FF JUMPI PUSH1 0x40 MLOAD PUSH32 0x8C379A000000000000000000000000000000000000000000000000000000000 DUP2 MSTORE PUSH1 0x4 ADD PUSH2 0x5F6 SWAP1 PUSH2 0x235E JUMP JUMPDEST PUSH1 0x40 MLOAD DUP1 SWAP2 SUB SWAP1 REVERT JUMPDEST PUSH1 0x0 PUSH1 0xC PUSH1 0x0 PUSH2 0x100 EXP DUP2 SLOAD DUP2 PUSH1 0xFF MUL NOT AND SWAP1 DUP4 ISZERO ISZERO MUL OR SWAP1 SSTORE POP JUMP JUMPDEST PUSH1 0x60 PUSH1 0xC PUSH1 0x1 SWAP1 SLOAD SWAP1 PUSH2 0x100 EXP SWAP1 DIV PUSH20 0xFFFFFFFFFFFFFFFFFFFFFFFFFFFFFFFFFFFFFFFF AND PUSH20 0xFFFFFFFFFFFFFFFFFFFFFFFFFFFFFFFFFFFFFFFF AND PUSH2 0x65F PUSH2 0x12E1 JUMP JUMPDEST PUSH20 0xFFFFFFFFFFFFFFFFFFFFFFFFFFFFFFFFFFFFFFFF AND EQ PUSH2 0x6B5 JUMPI PUSH1 0x40 MLOAD PUSH32 0x8C379A000000000000000000000000000000000000000000000000000000000 DUP2 MSTORE PUSH1 0x4 ADD PUSH2 0x6AC SWAP1 PUSH2 0x23BE JUMP JUMPDEST PUSH1 0x40 MLOAD DUP1 SWAP2 SUB SWAP1 REVERT JUMPDEST PUSH1 0x0 ISZERO ISZERO PUSH1 0xC PUSH1 0x0 SWAP1 SLOAD SWAP1 PUSH2 0x100 EXP SWAP1 DIV PUSH1 0xFF AND ISZERO ISZERO EQ PUSH2 0x70B JUMPI PUSH1 0x40 MLOAD PUSH32 0x8C379A000000000000000000000000000000000000000000000000000000000 DUP2 MSTORE PUSH1 0x4 ADD PUSH2 0x702 SWAP1 PUSH2 0x23DE JUMP JUMPDEST PUSH1 0x40 MLOAD DUP1 SWAP2 SUB SWAP1 REVERT JUMPDEST PUSH1 0x4 DUP3 LT DUP1 ISZERO PUSH2 0x71B JUMPI POP PUSH1 0x0 DUP3 GT JUMPDEST PUSH2 0x75A JUMPI PUSH1 0x40 MLOAD PUSH32 0x8C379A000000000000000000000000000000000000000000000000000000000 DUP2 MSTORE PUSH1 0x4 ADD PUSH2 0x751 SWAP1 PUSH2 0x239E JUMP JUMPDEST PUSH1 0x40 MLOAD DUP1 SWAP2 SUB SWAP1 REVERT JUMPDEST PUSH2 0x3E8 PUSH1 0x4 SLOAD LT PUSH2 0x7A0 JUMPI PUSH1 0x40 MLOAD PUSH32 0x8C379A000000000000000000000000000000000000000000000000000000000 DUP2 MSTORE PUSH1 0x4 ADD PUSH2 0x797 SWAP1 PUSH2 0x23FE JUMP JUMPDEST PUSH1 0x40 MLOAD DUP1 SWAP2 SUB SWAP1 REVERT JUMPDEST PUSH1 0x0 JUMPDEST DUP3 DUP2 LT ISZERO PUSH2 0x7C9 JUMPI PUSH2 0x7B4 DUP5 PUSH2 0x902 JUMP JUMPDEST POP POP DUP1 DUP1 PUSH2 0x7C1 SWAP1 PUSH2 0x27A4 JUMP JUMPDEST SWAP2 POP POP PUSH2 0x7A3 JUMP JUMPDEST POP PUSH1 0xA PUSH1 0x0 DUP5 PUSH20 0xFFFFFFFFFFFFFFFFFFFFFFFFFFFFFFFFFFFFFFFF AND PUSH20 0xFFFFFFFFFFFFFFFFFFFFFFFFFFFFFFFFFFFFFFFF AND DUP2 MSTORE PUSH1 0x20 ADD SWAP1 DUP2 MSTORE PUSH1 0x20 ADD PUSH1 0x0 KECCAK256 PUSH1 0x0 ADD DUP1 SLOAD DUP1 PUSH1 0x20 MUL PUSH1 0x20 ADD PUSH1 0x40 MLOAD SWAP1 DUP2 ADD PUSH1 0x40 MSTORE DUP1 SWAP3 SWAP2 SWAP1 DUP2 DUP2 MSTORE PUSH1 0x20 ADD DUP3 DUP1 SLOAD DUP1 ISZERO PUSH2 0x856 JUMPI PUSH1 0x20 MUL DUP3 ADD SWAP2 SWAP1 PUSH1 0x0 MSTORE PUSH1 0x20 PUSH1 0x0 KECCAK256 SWAP1 JUMPDEST DUP2 SLOAD DUP2 MSTORE PUSH1 0x20 ADD SWAP1 PUSH1 0x1 ADD SWAP1 DUP1 DUP4 GT PUSH2 0x842 JUMPI JUMPDEST POP POP POP POP POP SWAP1 POP SWAP3 SWAP2 POP POP JUMP JUMPDEST PUSH1 0x0 PUSH1 0xC PUSH1 0x1 SWAP1 SLOAD SWAP1 PUSH2 0x100 EXP SWAP1 DIV PUSH20 0xFFFFFFFFFFFFFFFFFFFFFFFFFFFFFFFFFFFFFFFF AND PUSH20 0xFFFFFFFFFFFFFFFFFFFFFFFFFFFFFFFFFFFFFFFF AND PUSH2 0x8A6 PUSH2 0x12E1 JUMP JUMPDEST PUSH20 0xFFFFFFFFFFFFFFFFFFFFFFFFFFFFFFFFFFFFFFFF AND EQ PUSH2 0x8FC JUMPI PUSH1 0x40 MLOAD PUSH32 0x8C379A000000000000000000000000000000000000000000000000000000000 DUP2 MSTORE PUSH1 0x4 ADD PUSH2 0x8F3 SWAP1 PUSH2 0x23BE JUMP JUMPDEST PUSH1 0x40 MLOAD DUP1 SWAP2 SUB SWAP1 REVERT JUMPDEST SELFBALANCE SWAP1 POP SWAP1 JUMP JUMPDEST PUSH1 0x0 PUSH1 0x60 PUSH1 0xC PUSH1 0x1 SWAP1 SLOAD SWAP1 PUSH2 0x100 EXP SWAP1 DIV PUSH20 0xFFFFFFFFFFFFFFFFFFFFFFFFFFFFFFFFFFFFFFFF AND PUSH20 0xFFFFFFFFFFFFFFFFFFFFFFFFFFFFFFFFFFFFFFFF AND PUSH2 0x947 PUSH2 0x12E1 JUMP JUMPDEST PUSH20 0xFFFFFFFFFFFFFFFFFFFFFFFFFFFFFFFFFFFFFFFF AND EQ PUSH2 0x99D JUMPI PUSH1 0x40 MLOAD PUSH32 0x8C379A000000000000000000000000000000000000000000000000000000000 DUP2 MSTORE PUSH1 0x4 ADD PUSH2 0x994 SWAP1 PUSH2 0x23BE JUMP JUMPDEST PUSH1 0x40 MLOAD DUP1 SWAP2 SUB SWAP1 REVERT JUMPDEST PUSH1 0x0 ISZERO ISZERO PUSH1 0xC PUSH1 0x0 SWAP1 SLOAD SWAP1 PUSH2 0x100 EXP SWAP1 DIV PUSH1 0xFF AND ISZERO ISZERO EQ PUSH2 0x9F3 JUMPI PUSH1 0x40 MLOAD PUSH32 0x8C379A000000000000000000000000000000000000000000000000000000000 DUP2 MSTORE PUSH1 0x4 ADD PUSH2 0x9EA SWAP1 PUSH2 0x23DE JUMP JUMPDEST PUSH1 0x40 MLOAD DUP1 SWAP2 SUB SWAP1 REVERT JUMPDEST PUSH1 0x0 PUSH2 0x9FD PUSH2 0x12E9 JUMP JUMPDEST SWAP1 POP PUSH1 0x0 PUSH2 0xA0A DUP3 PUSH2 0x132D JUMP JUMPDEST SWAP1 POP PUSH2 0xAA4 DUP6 DUP3 PUSH1 0x5 SLOAD PUSH1 0x2 DUP1 SLOAD PUSH2 0xA21 SWAP1 PUSH2 0x2741 JUMP JUMPDEST DUP1 PUSH1 0x1F ADD PUSH1 0x20 DUP1 SWAP2 DIV MUL PUSH1 0x20 ADD PUSH1 0x40 MLOAD SWAP1 DUP2 ADD PUSH1 0x40 MSTORE DUP1 SWAP3 SWAP2 SWAP1 DUP2 DUP2 MSTORE PUSH1 0x20 ADD DUP3 DUP1 SLOAD PUSH2 0xA4D SWAP1 PUSH2 0x2741 JUMP JUMPDEST DUP1 ISZERO PUSH2 0xA9A JUMPI DUP1 PUSH1 0x1F LT PUSH2 0xA6F JUMPI PUSH2 0x100 DUP1 DUP4 SLOAD DIV MUL DUP4 MSTORE SWAP2 PUSH1 0x20 ADD SWAP2 PUSH2 0xA9A JUMP JUMPDEST DUP3 ADD SWAP2 SWAP1 PUSH1 0x0 MSTORE PUSH1 0x20 PUSH1 0x0 KECCAK256 SWAP1 JUMPDEST DUP2 SLOAD DUP2 MSTORE SWAP1 PUSH1 0x1 ADD SWAP1 PUSH1 0x20 ADD DUP1 DUP4 GT PUSH2 0xA7D JUMPI DUP3 SWAP1 SUB PUSH1 0x1F AND DUP3 ADD SWAP2 JUMPDEST POP POP POP POP POP PUSH2 0x1610 JUMP JUMPDEST PUSH1 0x4 PUSH1 0x0 DUP2 SLOAD DUP1 SWAP3 SWAP2 SWAP1 PUSH2 0xAB7 SWAP1 PUSH2 0x27A4 JUMP JUMPDEST SWAP2 SWAP1 POP SSTORE POP PUSH1 0xA PUSH1 0x0 DUP7 PUSH20 0xFFFFFFFFFFFFFFFFFFFFFFFFFFFFFFFFFFFFFFFF AND PUSH20 0xFFFFFFFFFFFFFFFFFFFFFFFFFFFFFFFFFFFFFFFF AND DUP2 MSTORE PUSH1 0x20 ADD SWAP1 DUP2 MSTORE PUSH1 0x20 ADD PUSH1 0x0 KECCAK256 PUSH1 0x0 ADD DUP2 SWAP1 DUP1 PUSH1 0x1 DUP2 SLOAD ADD DUP1 DUP3 SSTORE DUP1 SWAP2 POP POP PUSH1 0x1 SWAP1 SUB SWAP1 PUSH1 0x0 MSTORE PUSH1 0x20 PUSH1 0x0 KECCAK256 ADD PUSH1 0x0 SWAP1 SWAP2 SWAP1 SWAP2 SWAP1 SWAP2 POP SSTORE DUP1 PUSH1 0x2 DUP1 DUP1 SLOAD PUSH2 0xB34 SWAP1 PUSH2 0x2741 JUMP JUMPDEST DUP1 PUSH1 0x1F ADD PUSH1 0x20 DUP1 SWAP2 DIV MUL PUSH1 0x20 ADD PUSH1 0x40 MLOAD SWAP1 DUP2 ADD PUSH1 0x40 MSTORE DUP1 SWAP3 SWAP2 SWAP1 DUP2 DUP2 MSTORE PUSH1 0x20 ADD DUP3 DUP1 SLOAD PUSH2 0xB60 SWAP1 PUSH2 0x2741 JUMP JUMPDEST DUP1 ISZERO PUSH2 0xBAD JUMPI DUP1 PUSH1 0x1F LT PUSH2 0xB82 JUMPI PUSH2 0x100 DUP1 DUP4 SLOAD DIV MUL DUP4 MSTORE SWAP2 PUSH1 0x20 ADD SWAP2 PUSH2 0xBAD JUMP JUMPDEST DUP3 ADD SWAP2 SWAP1 PUSH1 0x0 MSTORE PUSH1 0x20 PUSH1 0x0 KECCAK256 SWAP1 JUMPDEST DUP2 SLOAD DUP2 MSTORE SWAP1 PUSH1 0x1 ADD SWAP1 PUSH1 0x20 ADD DUP1 DUP4 GT PUSH2 0xB90 JUMPI DUP3 SWAP1 SUB PUSH1 0x1F AND DUP3 ADD SWAP2 JUMPDEST POP POP POP POP POP SWAP1 POP SWAP4 POP SWAP4 POP POP POP SWAP2 POP SWAP2 JUMP JUMPDEST PUSH1 0x60 PUSH1 0x0 ISZERO ISZERO PUSH1 0xC PUSH1 0x0 SWAP1 SLOAD SWAP1 PUSH2 0x100 EXP SWAP1 DIV PUSH1 0xFF AND ISZERO ISZERO EQ PUSH2 0xC17 JUMPI PUSH1 0x40 MLOAD PUSH32 0x8C379A000000000000000000000000000000000000000000000000000000000 DUP2 MSTORE PUSH1 0x4 ADD PUSH2 0xC0E SWAP1 PUSH2 0x23DE JUMP JUMPDEST PUSH1 0x40 MLOAD DUP1 SWAP2 SUB SWAP1 REVERT JUMPDEST PUSH1 0x4 DUP3 LT DUP1 ISZERO PUSH2 0xC27 JUMPI POP PUSH1 0x0 DUP3 GT JUMPDEST PUSH2 0xC66 JUMPI PUSH1 0x40 MLOAD PUSH32 0x8C379A000000000000000000000000000000000000000000000000000000000 DUP2 MSTORE PUSH1 0x4 ADD PUSH2 0xC5D SWAP1 PUSH2 0x239E JUMP JUMPDEST PUSH1 0x40 MLOAD DUP1 SWAP2 SUB SWAP1 REVERT JUMPDEST PUSH2 0x3E8 PUSH1 0x4 SLOAD LT PUSH2 0xCAC JUMPI PUSH1 0x40 MLOAD PUSH32 0x8C379A000000000000000000000000000000000000000000000000000000000 DUP2 MSTORE PUSH1 0x4 ADD PUSH2 0xCA3 SWAP1 PUSH2 0x23FE JUMP JUMPDEST PUSH1 0x40 MLOAD DUP1 SWAP2 SUB SWAP1 REVERT JUMPDEST DUP2 PUSH1 0x6 SLOAD PUSH2 0xCBA SWAP2 SWAP1 PUSH2 0x25FA JUMP JUMPDEST CALLVALUE EQ PUSH2 0xCFB JUMPI PUSH1 0x40 MLOAD PUSH32 0x8C379A000000000000000000000000000000000000000000000000000000000 DUP2 MSTORE PUSH1 0x4 ADD PUSH2 0xCF2 SWAP1 PUSH2 0x233E JUMP JUMPDEST PUSH1 0x40 MLOAD DUP1 SWAP2 SUB SWAP1 REVERT JUMPDEST PUSH1 0x0 JUMPDEST DUP3 DUP2 LT ISZERO PUSH2 0xD22 JUMPI PUSH2 0xD0F DUP5 PUSH2 0x902 JUMP JUMPDEST POP POP DUP1 PUSH2 0xD1B SWAP1 PUSH2 0x27A4 JUMP JUMPDEST SWAP1 POP PUSH2 0xCFE JUMP JUMPDEST POP PUSH2 0xD34 PUSH2 0xD2E PUSH2 0x12E1 JUMP JUMPDEST CALLVALUE PUSH2 0x17A6 JUMP JUMPDEST PUSH1 0xA PUSH1 0x0 DUP5 PUSH20 0xFFFFFFFFFFFFFFFFFFFFFFFFFFFFFFFFFFFFFFFF AND PUSH20 0xFFFFFFFFFFFFFFFFFFFFFFFFFFFFFFFFFFFFFFFF AND DUP2 MSTORE PUSH1 0x20 ADD SWAP1 DUP2 MSTORE PUSH1 0x20 ADD PUSH1 0x0 KECCAK256 PUSH1 0x0 ADD DUP1 SLOAD DUP1 PUSH1 0x20 MUL PUSH1 0x20 ADD PUSH1 0x40 MLOAD SWAP1 DUP2 ADD PUSH1 0x40 MSTORE DUP1 SWAP3 SWAP2 SWAP1 DUP2 DUP2 MSTORE PUSH1 0x20 ADD DUP3 DUP1 SLOAD DUP1 ISZERO PUSH2 0xDC0 JUMPI PUSH1 0x20 MUL DUP3 ADD SWAP2 SWAP1 PUSH1 0x0 MSTORE PUSH1 0x20 PUSH1 0x0 KECCAK256 SWAP1 JUMPDEST DUP2 SLOAD DUP2 MSTORE PUSH1 0x20 ADD SWAP1 PUSH1 0x1 ADD SWAP1 DUP1 DUP4 GT PUSH2 0xDAC JUMPI JUMPDEST POP POP POP POP POP SWAP1 POP SWAP3 SWAP2 POP POP JUMP JUMPDEST PUSH1 0x0 DUP1 PUSH1 0x0 PUSH1 0xC PUSH1 0x1 SWAP1 SLOAD SWAP1 PUSH2 0x100 EXP SWAP1 DIV PUSH20 0xFFFFFFFFFFFFFFFFFFFFFFFFFFFFFFFFFFFFFFFF AND PUSH20 0xFFFFFFFFFFFFFFFFFFFFFFFFFFFFFFFFFFFFFFFF AND PUSH2 0xE13 PUSH2 0x12E1 JUMP JUMPDEST PUSH20 0xFFFFFFFFFFFFFFFFFFFFFFFFFFFFFFFFFFFFFFFF AND EQ PUSH2 0xE69 JUMPI PUSH1 0x40 MLOAD PUSH32 0x8C379A000000000000000000000000000000000000000000000000000000000 DUP2 MSTORE PUSH1 0x4 ADD PUSH2 0xE60 SWAP1 PUSH2 0x23BE JUMP JUMPDEST PUSH1 0x40 MLOAD DUP1 SWAP2 SUB SWAP1 REVERT JUMPDEST PUSH1 0x0 ISZERO ISZERO PUSH1 0xC PUSH1 0x0 SWAP1 SLOAD SWAP1 PUSH2 0x100 EXP SWAP1 DIV PUSH1 0xFF AND ISZERO ISZERO EQ PUSH2 0xEBF JUMPI PUSH1 0x40 MLOAD PUSH32 0x8C379A000000000000000000000000000000000000000000000000000000000 DUP2 MSTORE PUSH1 0x4 ADD PUSH2 0xEB6 SWAP1 PUSH2 0x23DE JUMP JUMPDEST PUSH1 0x40 MLOAD DUP1 SWAP2 SUB SWAP1 REVERT JUMPDEST PUSH1 0x7 SLOAD PUSH1 0x8 SLOAD PUSH1 0x9 SLOAD SWAP3 POP SWAP3 POP SWAP3 POP SWAP1 SWAP2 SWAP3 JUMP JUMPDEST PUSH1 0x0 PUSH1 0xC PUSH1 0x1 SWAP1 SLOAD SWAP1 PUSH2 0x100 EXP SWAP1 DIV PUSH20 0xFFFFFFFFFFFFFFFFFFFFFFFFFFFFFFFFFFFFFFFF AND PUSH20 0xFFFFFFFFFFFFFFFFFFFFFFFFFFFFFFFFFFFFFFFF AND PUSH2 0xF16 PUSH2 0x12E1 JUMP JUMPDEST PUSH20 0xFFFFFFFFFFFFFFFFFFFFFFFFFFFFFFFFFFFFFFFF AND EQ PUSH2 0xF6C JUMPI PUSH1 0x40 MLOAD PUSH32 0x8C379A000000000000000000000000000000000000000000000000000000000 DUP2 MSTORE PUSH1 0x4 ADD PUSH2 0xF63 SWAP1 PUSH2 0x23BE JUMP JUMPDEST PUSH1 0x40 MLOAD DUP1 SWAP2 SUB SWAP1 REVERT JUMPDEST PUSH1 0x0 ISZERO ISZERO PUSH1 0xC PUSH1 0x0 SWAP1 SLOAD SWAP1 PUSH2 0x100 EXP SWAP1 DIV PUSH1 0xFF AND ISZERO ISZERO EQ PUSH2 0xFC2 JUMPI PUSH1 0x40 MLOAD PUSH32 0x8C379A000000000000000000000000000000000000000000000000000000000 DUP2 MSTORE PUSH1 0x4 ADD PUSH2 0xFB9 SWAP1 PUSH2 0x23DE JUMP JUMPDEST PUSH1 0x40 MLOAD DUP1 SWAP2 SUB SWAP1 REVERT JUMPDEST PUSH1 0x6 SLOAD SWAP1 POP SWAP1 JUMP JUMPDEST PUSH1 0xC PUSH1 0x1 SWAP1 SLOAD SWAP1 PUSH2 0x100 EXP SWAP1 DIV PUSH20 0xFFFFFFFFFFFFFFFFFFFFFFFFFFFFFFFFFFFFFFFF AND PUSH20 0xFFFFFFFFFFFFFFFFFFFFFFFFFFFFFFFFFFFFFFFF AND PUSH2 0x100B PUSH2 0x12E1 JUMP JUMPDEST PUSH20 0xFFFFFFFFFFFFFFFFFFFFFFFFFFFFFFFFFFFFFFFF AND EQ PUSH2 0x1061 JUMPI PUSH1 0x40 MLOAD PUSH32 0x8C379A000000000000000000000000000000000000000000000000000000000 DUP2 MSTORE PUSH1 0x4 ADD PUSH2 0x1058 SWAP1 PUSH2 0x23BE JUMP JUMPDEST PUSH1 0x40 MLOAD DUP1 SWAP2 SUB SWAP1 REVERT JUMPDEST PUSH1 0x0 ISZERO ISZERO PUSH1 0xC PUSH1 0x0 SWAP1 SLOAD SWAP1 PUSH2 0x100 EXP SWAP1 DIV PUSH1 0xFF AND ISZERO ISZERO EQ PUSH2 0x10B7 JUMPI PUSH1 0x40 MLOAD PUSH32 0x8C379A000000000000000000000000000000000000000000000000000000000 DUP2 MSTORE PUSH1 0x4 ADD PUSH2 0x10AE SWAP1 PUSH2 0x237E JUMP JUMPDEST PUSH1 0x40 MLOAD DUP1 SWAP2 SUB SWAP1 REVERT JUMPDEST PUSH1 0x1 PUSH1 0xC PUSH1 0x0 PUSH2 0x100 EXP DUP2 SLOAD DUP2 PUSH1 0xFF MUL NOT AND SWAP1 DUP4 ISZERO ISZERO MUL OR SWAP1 SSTORE POP JUMP JUMPDEST PUSH1 0xC PUSH1 0x1 SWAP1 SLOAD SWAP1 PUSH2 0x100 EXP SWAP1 DIV PUSH20 0xFFFFFFFFFFFFFFFFFFFFFFFFFFFFFFFFFFFFFFFF AND DUP2 JUMP JUMPDEST PUSH1 0xC PUSH1 0x1 SWAP1 SLOAD SWAP1 PUSH2 0x100 EXP SWAP1 DIV PUSH20 0xFFFFFFFFFFFFFFFFFFFFFFFFFFFFFFFFFFFFFFFF AND PUSH20 0xFFFFFFFFFFFFFFFFFFFFFFFFFFFFFFFFFFFFFFFF AND PUSH2 0x113B PUSH2 0x12E1 JUMP JUMPDEST PUSH20 0xFFFFFFFFFFFFFFFFFFFFFFFFFFFFFFFFFFFFFFFF AND EQ PUSH2 0x1191 JUMPI PUSH1 0x40 MLOAD PUSH32 0x8C379A000000000000000000000000000000000000000000000000000000000 DUP2 MSTORE PUSH1 0x4 ADD PUSH2 0x1188 SWAP1 PUSH2 0x23BE JUMP JUMPDEST PUSH1 0x40 MLOAD DUP1 SWAP2 SUB SWAP1 REVERT JUMPDEST PUSH1 0x0 ISZERO ISZERO PUSH1 0xC PUSH1 0x0 SWAP1 SLOAD SWAP1 PUSH2 0x100 EXP SWAP1 DIV PUSH1 0xFF AND ISZERO ISZERO EQ PUSH2 0x11E7 JUMPI PUSH1 0x40 MLOAD PUSH32 0x8C379A000000000000000000000000000000000000000000000000000000000 DUP2 MSTORE PUSH1 0x4 ADD PUSH2 0x11DE SWAP1 PUSH2 0x23DE JUMP JUMPDEST PUSH1 0x40 MLOAD DUP1 SWAP2 SUB SWAP1 REVERT JUMPDEST DUP1 PUSH1 0x6 DUP2 SWAP1 SSTORE POP POP JUMP JUMPDEST PUSH1 0x60 PUSH1 0x0 ISZERO ISZERO PUSH1 0xC PUSH1 0x0 SWAP1 SLOAD SWAP1 PUSH2 0x100 EXP SWAP1 DIV PUSH1 0xFF AND ISZERO ISZERO EQ PUSH2 0x1249 JUMPI PUSH1 0x40 MLOAD PUSH32 0x8C379A000000000000000000000000000000000000000000000000000000000 DUP2 MSTORE PUSH1 0x4 ADD PUSH2 0x1240 SWAP1 PUSH2 0x23DE JUMP JUMPDEST PUSH1 0x40 MLOAD DUP1 SWAP2 SUB SWAP1 REVERT JUMPDEST PUSH1 0xA PUSH1 0x0 DUP4 PUSH20 0xFFFFFFFFFFFFFFFFFFFFFFFFFFFFFFFFFFFFFFFF AND PUSH20 0xFFFFFFFFFFFFFFFFFFFFFFFFFFFFFFFFFFFFFFFF AND DUP2 MSTORE PUSH1 0x20 ADD SWAP1 DUP2 MSTORE PUSH1 0x20 ADD PUSH1 0x0 KECCAK256 PUSH1 0x0 ADD DUP1 SLOAD DUP1 PUSH1 0x20 MUL PUSH1 0x20 ADD PUSH1 0x40 MLOAD SWAP1 DUP2 ADD PUSH1 0x40 MSTORE DUP1 SWAP3 SWAP2 SWAP1 DUP2 DUP2 MSTORE PUSH1 0x20 ADD DUP3 DUP1 SLOAD DUP1 ISZERO PUSH2 0x12D5 JUMPI PUSH1 0x20 MUL DUP3 ADD SWAP2 SWAP1 PUSH1 0x0 MSTORE PUSH1 0x20 PUSH1 0x0 KECCAK256 SWAP1 JUMPDEST DUP2 SLOAD DUP2 MSTORE PUSH1 0x20 ADD SWAP1 PUSH1 0x1 ADD SWAP1 DUP1 DUP4 GT PUSH2 0x12C1 JUMPI JUMPDEST POP POP POP POP POP SWAP1 POP SWAP2 SWAP1 POP JUMP JUMPDEST PUSH1 0x0 CALLER SWAP1 POP SWAP1 JUMP JUMPDEST PUSH1 0x0 DUP1 PUSH1 0x14 TIMESTAMP CALLER PUSH1 0x40 MLOAD PUSH1 0x20 ADD PUSH2 0x1301 SWAP3 SWAP2 SWAP1 PUSH2 0x21FE JUMP JUMPDEST PUSH1 0x40 MLOAD PUSH1 0x20 DUP2 DUP4 SUB SUB DUP2 MSTORE SWAP1 PUSH1 0x40 MSTORE DUP1 MLOAD SWAP1 PUSH1 0x20 ADD KECCAK256 PUSH1 0x0 SHR PUSH2 0x1324 SWAP2 SWAP1 PUSH2 0x281B JUMP JUMPDEST SWAP1 POP DUP1 SWAP2 POP POP SWAP1 JUMP JUMPDEST PUSH1 0x0 DUP1 ISZERO ISZERO PUSH1 0xC PUSH1 0x0 SWAP1 SLOAD SWAP1 PUSH2 0x100 EXP SWAP1 DIV PUSH1 0xFF AND ISZERO ISZERO EQ PUSH2 0x1384 JUMPI PUSH1 0x40 MLOAD PUSH32 0x8C379A000000000000000000000000000000000000000000000000000000000 DUP2 MSTORE PUSH1 0x4 ADD PUSH2 0x137B SWAP1 PUSH2 0x23DE JUMP JUMPDEST PUSH1 0x40 MLOAD DUP1 SWAP2 SUB SWAP1 REVERT JUMPDEST PUSH1 0x0 PUSH1 0x3 DUP4 PUSH1 0x14 DUP2 LT PUSH2 0x139A JUMPI PUSH2 0x1399 PUSH2 0x28D9 JUMP JUMPDEST JUMPDEST PUSH1 0x20 SWAP2 DUP3 DUP3 DIV ADD SWAP2 SWAP1 MOD SWAP1 SLOAD SWAP1 PUSH2 0x100 EXP SWAP1 DIV PUSH1 0xFF AND PUSH1 0xFF AND SWAP1 POP PUSH1 0x0 DUP2 EQ DUP1 ISZERO PUSH2 0x13C7 JUMPI POP PUSH1 0x32 PUSH1 0x7 SLOAD LT JUMPDEST ISZERO PUSH2 0x142D JUMPI PUSH1 0x7 PUSH1 0x0 DUP2 SLOAD DUP1 SWAP3 SWAP2 SWAP1 PUSH2 0x13DF SWAP1 PUSH2 0x27A4 JUMP JUMPDEST SWAP2 SWAP1 POP SSTORE POP PUSH2 0x13EF PUSH1 0x7 SLOAD PUSH2 0x1800 JUMP JUMPDEST PUSH1 0x40 MLOAD PUSH1 0x20 ADD PUSH2 0x13FF SWAP2 SWAP1 PUSH2 0x2198 JUMP JUMPDEST PUSH1 0x40 MLOAD PUSH1 0x20 DUP2 DUP4 SUB SUB DUP2 MSTORE SWAP1 PUSH1 0x40 MSTORE PUSH1 0x2 SWAP1 DUP1 MLOAD SWAP1 PUSH1 0x20 ADD SWAP1 PUSH2 0x1423 SWAP3 SWAP2 SWAP1 PUSH2 0x1BDD JUMP JUMPDEST POP DUP1 SWAP2 POP POP PUSH2 0x160B JUMP JUMPDEST PUSH1 0x1 DUP2 GT ISZERO DUP1 ISZERO PUSH2 0x1440 JUMPI POP PUSH1 0x64 PUSH1 0x8 SLOAD LT JUMPDEST ISZERO PUSH2 0x14A6 JUMPI PUSH1 0x8 PUSH1 0x0 DUP2 SLOAD DUP1 SWAP3 SWAP2 SWAP1 PUSH2 0x1458 SWAP1 PUSH2 0x27A4 JUMP JUMPDEST SWAP2 SWAP1 POP SSTORE POP PUSH2 0x1468 PUSH1 0x8 SLOAD PUSH2 0x1800 JUMP JUMPDEST PUSH1 0x40 MLOAD PUSH1 0x20 ADD PUSH2 0x1478 SWAP2 SWAP1 PUSH2 0x21BA JUMP JUMPDEST PUSH1 0x40 MLOAD PUSH1 0x20 DUP2 DUP4 SUB SUB DUP2 MSTORE SWAP1 PUSH1 0x40 MSTORE PUSH1 0x2 SWAP1 DUP1 MLOAD SWAP1 PUSH1 0x20 ADD SWAP1 PUSH2 0x149C SWAP3 SWAP2 SWAP1 PUSH2 0x1BDD JUMP JUMPDEST POP DUP1 SWAP2 POP POP PUSH2 0x160B JUMP JUMPDEST PUSH1 0x2 DUP2 GT ISZERO DUP1 ISZERO PUSH2 0x14BB JUMPI POP PUSH2 0x352 PUSH1 0x9 SLOAD GT ISZERO JUMPDEST ISZERO PUSH2 0x153A JUMPI PUSH1 0x9 PUSH1 0x0 DUP2 SLOAD DUP1 SWAP3 SWAP2 SWAP1 PUSH2 0x14D3 SWAP1 PUSH2 0x27A4 JUMP JUMPDEST SWAP2 SWAP1 POP SSTORE POP PUSH2 0x14E3 PUSH1 0x9 SLOAD PUSH2 0x1800 JUMP JUMPDEST PUSH1 0x40 MLOAD PUSH1 0x20 ADD PUSH2 0x14F3 SWAP2 SWAP1 PUSH2 0x21DC JUMP JUMPDEST PUSH1 0x40 MLOAD PUSH1 0x20 DUP2 DUP4 SUB SUB DUP2 MSTORE SWAP1 PUSH1 0x40 MSTORE PUSH1 0x2 SWAP1 DUP1 MLOAD SWAP1 PUSH1 0x20 ADD SWAP1 PUSH2 0x1517 SWAP3 SWAP2 SWAP1 PUSH2 0x1BDD JUMP JUMPDEST PUSH1 0x2 SWAP1 DUP1 SLOAD PUSH2 0x1525 SWAP1 PUSH2 0x2741 JUMP JUMPDEST PUSH2 0x1530 SWAP3 SWAP2 SWAP1 PUSH2 0x1C63 JUMP JUMPDEST POP DUP1 SWAP2 POP POP PUSH2 0x160B JUMP JUMPDEST PUSH1 0x64 PUSH1 0x8 SLOAD LT ISZERO PUSH2 0x15AA JUMPI PUSH1 0x1 SWAP1 POP PUSH1 0x8 PUSH1 0x0 DUP2 SLOAD DUP1 SWAP3 SWAP2 SWAP1 PUSH2 0x155C SWAP1 PUSH2 0x27A4 JUMP JUMPDEST SWAP2 SWAP1 POP SSTORE POP PUSH2 0x156C PUSH1 0x8 SLOAD PUSH2 0x1800 JUMP JUMPDEST PUSH1 0x40 MLOAD PUSH1 0x20 ADD PUSH2 0x157C SWAP2 SWAP1 PUSH2 0x21BA JUMP JUMPDEST PUSH1 0x40 MLOAD PUSH1 0x20 DUP2 DUP4 SUB SUB DUP2 MSTORE SWAP1 PUSH1 0x40 MSTORE PUSH1 0x2 SWAP1 DUP1 MLOAD SWAP1 PUSH1 0x20 ADD SWAP1 PUSH2 0x15A0 SWAP3 SWAP2 SWAP1 PUSH2 0x1BDD JUMP JUMPDEST POP DUP1 SWAP2 POP POP PUSH2 0x160B JUMP JUMPDEST PUSH1 0x0 SWAP1 POP PUSH1 0x7 PUSH1 0x0 DUP2 SLOAD DUP1 SWAP3 SWAP2 SWAP1 PUSH2 0x15C1 SWAP1 PUSH2 0x27A4 JUMP JUMPDEST SWAP2 SWAP1 POP SSTORE POP PUSH2 0x15D1 PUSH1 0x7 SLOAD PUSH2 0x1800 JUMP JUMPDEST PUSH1 0x40 MLOAD PUSH1 0x20 ADD PUSH2 0x15E1 SWAP2 SWAP1 PUSH2 0x2198 JUMP JUMPDEST PUSH1 0x40 MLOAD PUSH1 0x20 DUP2 DUP4 SUB SUB DUP2 MSTORE SWAP1 PUSH1 0x40 MSTORE PUSH1 0x2 SWAP1 DUP1 MLOAD SWAP1 PUSH1 0x20 ADD SWAP1 PUSH2 0x1605 SWAP3 SWAP2 SWAP1 PUSH2 0x1BDD JUMP JUMPDEST POP DUP1 SWAP2 POP POP JUMPDEST SWAP2 SWAP1 POP JUMP JUMPDEST PUSH1 0x0 PUSH20 0xFFFFFFFFFFFFFFFFFFFFFFFFFFFFFFFFFFFFFFFF AND DUP5 PUSH20 0xFFFFFFFFFFFFFFFFFFFFFFFFFFFFFFFFFFFFFFFF AND EQ ISZERO PUSH2 0x1680 JUMPI PUSH1 0x40 MLOAD PUSH32 0x8C379A000000000000000000000000000000000000000000000000000000000 DUP2 MSTORE PUSH1 0x4 ADD PUSH2 0x1677 SWAP1 PUSH2 0x243E JUMP JUMPDEST PUSH1 0x40 MLOAD DUP1 SWAP2 SUB SWAP1 REVERT JUMPDEST PUSH1 0x0 PUSH2 0x168A PUSH2 0x12E1 JUMP JUMPDEST SWAP1 POP PUSH2 0x16AB DUP2 PUSH1 0x0 DUP8 PUSH2 0x169C DUP9 PUSH2 0x1961 JUMP JUMPDEST PUSH2 0x16A5 DUP9 PUSH2 0x1961 JUMP JUMPDEST DUP8 PUSH2 0x19DB JUMP JUMPDEST DUP3 PUSH1 0x0 DUP1 DUP7 DUP2 MSTORE PUSH1 0x20 ADD SWAP1 DUP2 MSTORE PUSH1 0x20 ADD PUSH1 0x0 KECCAK256 PUSH1 0x0 DUP8 PUSH20 0xFFFFFFFFFFFFFFFFFFFFFFFFFFFFFFFFFFFFFFFF AND PUSH20 0xFFFFFFFFFFFFFFFFFFFFFFFFFFFFFFFFFFFFFFFF AND DUP2 MSTORE PUSH1 0x20 ADD SWAP1 DUP2 MSTORE PUSH1 0x20 ADD PUSH1 0x0 KECCAK256 PUSH1 0x0 DUP3 DUP3 SLOAD PUSH2 0x170A SWAP2 SWAP1 PUSH2 0x2573 JUMP JUMPDEST SWAP3 POP POP DUP2 SWAP1 SSTORE POP DUP5 PUSH20 0xFFFFFFFFFFFFFFFFFFFFFFFFFFFFFFFFFFFFFFFF AND PUSH1 0x0 PUSH20 0xFFFFFFFFFFFFFFFFFFFFFFFFFFFFFFFFFFFFFFFF AND DUP3 PUSH20 0xFFFFFFFFFFFFFFFFFFFFFFFFFFFFFFFFFFFFFFFF AND PUSH32 0xC3D58168C5AE7397731D063D5BBF3D657854427343F4C083240F7AACAA2D0F62 DUP8 DUP8 PUSH1 0x40 MLOAD PUSH2 0x1788 SWAP3 SWAP2 SWAP1 PUSH2 0x24A9 JUMP JUMPDEST PUSH1 0x40 MLOAD DUP1 SWAP2 SUB SWAP1 LOG4 PUSH2 0x179F DUP2 PUSH1 0x0 DUP8 DUP8 DUP8 DUP8 PUSH2 0x19E3 JUMP JUMPDEST POP POP POP POP POP JUMP JUMPDEST DUP1 PUSH1 0xB PUSH1 0x0 DUP5 PUSH20 0xFFFFFFFFFFFFFFFFFFFFFFFFFFFFFFFFFFFFFFFF AND PUSH20 0xFFFFFFFFFFFFFFFFFFFFFFFFFFFFFFFFFFFFFFFF AND DUP2 MSTORE PUSH1 0x20 ADD SWAP1 DUP2 MSTORE PUSH1 0x20 ADD PUSH1 0x0 KECCAK256 PUSH1 0x0 DUP3 DUP3 SLOAD PUSH2 0x17F5 SWAP2 SWAP1 PUSH2 0x2573 JUMP JUMPDEST SWAP3 POP POP DUP2 SWAP1 SSTORE POP POP POP JUMP JUMPDEST PUSH1 0x60 PUSH1 0x0 DUP3 EQ ISZERO PUSH2 0x1848 JUMPI PUSH1 0x40 MLOAD DUP1 PUSH1 0x40 ADD PUSH1 0x40 MSTORE DUP1 PUSH1 0x1 DUP2 MSTORE PUSH1 0x20 ADD PUSH32 0x3000000000000000000000000000000000000000000000000000000000000000 DUP2 MSTORE POP SWAP1 POP PUSH2 0x195C JUMP JUMPDEST PUSH1 0x0 DUP3 SWAP1 POP PUSH1 0x0 JUMPDEST PUSH1 0x0 DUP3 EQ PUSH2 0x187A JUMPI DUP1 DUP1 PUSH2 0x1863 SWAP1 PUSH2 0x27A4 JUMP JUMPDEST SWAP2 POP POP PUSH1 0xA DUP3 PUSH2 0x1873 SWAP2 SWAP1 PUSH2 0x25C9 JUMP JUMPDEST SWAP2 POP PUSH2 0x1850 JUMP JUMPDEST PUSH1 0x0 DUP2 PUSH8 0xFFFFFFFFFFFFFFFF DUP2 GT ISZERO PUSH2 0x1896 JUMPI PUSH2 0x1895 PUSH2 0x2908 JUMP JUMPDEST JUMPDEST PUSH1 0x40 MLOAD SWAP1 DUP1 DUP3 MSTORE DUP1 PUSH1 0x1F ADD PUSH1 0x1F NOT AND PUSH1 0x20 ADD DUP3 ADD PUSH1 0x40 MSTORE DUP1 ISZERO PUSH2 0x18C8 JUMPI DUP2 PUSH1 0x20 ADD PUSH1 0x1 DUP3 MUL DUP1 CALLDATASIZE DUP4 CALLDATACOPY DUP1 DUP3 ADD SWAP2 POP POP SWAP1 POP JUMPDEST POP SWAP1 POP JUMPDEST PUSH1 0x0 DUP6 EQ PUSH2 0x1955 JUMPI PUSH1 0x1 DUP3 PUSH2 0x18E1 SWAP2 SWAP1 PUSH2 0x2654 JUMP JUMPDEST SWAP2 POP PUSH1 0xA DUP6 PUSH2 0x18F0 SWAP2 SWAP1 PUSH2 0x281B JUMP JUMPDEST PUSH1 0x30 PUSH2 0x18FC SWAP2 SWAP1 PUSH2 0x2573 JUMP JUMPDEST PUSH1 0xF8 SHL DUP2 DUP4 DUP2 MLOAD DUP2 LT PUSH2 0x1912 JUMPI PUSH2 0x1911 PUSH2 0x28D9 JUMP JUMPDEST JUMPDEST PUSH1 0x20 ADD ADD SWAP1 PUSH31 0xFFFFFFFFFFFFFFFFFFFFFFFFFFFFFFFFFFFFFFFFFFFFFFFFFFFFFFFFFFFFFF NOT AND SWAP1 DUP2 PUSH1 0x0 BYTE SWAP1 MSTORE8 POP PUSH1 0xA DUP6 PUSH2 0x194E SWAP2 SWAP1 PUSH2 0x25C9 JUMP JUMPDEST SWAP5 POP PUSH2 0x18CC JUMP JUMPDEST DUP1 SWAP4 POP POP POP POP JUMPDEST SWAP2 SWAP1 POP JUMP JUMPDEST PUSH1 0x60 PUSH1 0x0 PUSH1 0x1 PUSH8 0xFFFFFFFFFFFFFFFF DUP2 GT ISZERO PUSH2 0x1980 JUMPI PUSH2 0x197F PUSH2 0x2908 JUMP JUMPDEST JUMPDEST PUSH1 0x40 MLOAD SWAP1 DUP1 DUP3 MSTORE DUP1 PUSH1 0x20 MUL PUSH1 0x20 ADD DUP3 ADD PUSH1 0x40 MSTORE DUP1 ISZERO PUSH2 0x19AE JUMPI DUP2 PUSH1 0x20 ADD PUSH1 0x20 DUP3 MUL DUP1 CALLDATASIZE DUP4 CALLDATACOPY DUP1 DUP3 ADD SWAP2 POP POP SWAP1 POP JUMPDEST POP SWAP1 POP DUP3 DUP2 PUSH1 0x0 DUP2 MLOAD DUP2 LT PUSH2 0x19C6 JUMPI PUSH2 0x19C5 PUSH2 0x28D9 JUMP JUMPDEST JUMPDEST PUSH1 0x20 MUL PUSH1 0x20 ADD ADD DUP2 DUP2 MSTORE POP POP DUP1 SWAP2 POP POP SWAP2 SWAP1 POP JUMP JUMPDEST POP POP POP POP POP POP JUMP JUMPDEST PUSH2 0x1A02 DUP5 PUSH20 0xFFFFFFFFFFFFFFFFFFFFFFFFFFFFFFFFFFFFFFFF AND PUSH2 0x1BCA JUMP JUMPDEST ISZERO PUSH2 0x1BC2 JUMPI DUP4 PUSH20 0xFFFFFFFFFFFFFFFFFFFFFFFFFFFFFFFFFFFFFFFF AND PUSH4 0xAE89A248 DUP8 DUP8 DUP7 DUP7 DUP7 PUSH1 0x40 MLOAD DUP7 PUSH4 0xFFFFFFFF AND PUSH1 0xE0 SHL DUP2 MSTORE PUSH1 0x4 ADD PUSH2 0x1A48 SWAP6 SWAP5 SWAP4 SWAP3 SWAP2 SWAP1 PUSH2 0x2245 JUMP JUMPDEST PUSH1 0x20 PUSH1 0x40 MLOAD DUP1 DUP4 SUB DUP2 PUSH1 0x0 DUP8 DUP1 EXTCODESIZE ISZERO DUP1 ISZERO PUSH2 0x1A62 JUMPI PUSH1 0x0 DUP1 REVERT JUMPDEST POP GAS CALL SWAP3 POP POP POP DUP1 ISZERO PUSH2 0x1A93 JUMPI POP PUSH1 0x40 MLOAD RETURNDATASIZE PUSH1 0x1F NOT PUSH1 0x1F DUP3 ADD AND DUP3 ADD DUP1 PUSH1 0x40 MSTORE POP DUP2 ADD SWAP1 PUSH2 0x1A90 SWAP2 SWAP1 PUSH2 0x1DFB JUMP JUMPDEST PUSH1 0x1 JUMPDEST PUSH2 0x1B39 JUMPI PUSH2 0x1A9F PUSH2 0x2937 JUMP JUMPDEST DUP1 PUSH4 0x8C379A0 EQ ISZERO PUSH2 0x1AFC JUMPI POP PUSH2 0x1AB4 PUSH2 0x2C39 JUMP JUMPDEST DUP1 PUSH2 0x1ABF JUMPI POP PUSH2 0x1AFE JUMP JUMPDEST DUP1 PUSH1 0x40 MLOAD PUSH32 0x8C379A000000000000000000000000000000000000000000000000000000000 DUP2 MSTORE PUSH1 0x4 ADD PUSH2 0x1AF3 SWAP2 SWAP1 PUSH2 0x22DC JUMP JUMPDEST PUSH1 0x40 MLOAD DUP1 SWAP2 SUB SWAP1 REVERT JUMPDEST POP JUMPDEST PUSH1 0x40 MLOAD PUSH32 0x8C379A000000000000000000000000000000000000000000000000000000000 DUP2 MSTORE PUSH1 0x4 ADD PUSH2 0x1B30 SWAP1 PUSH2 0x22FE JUMP JUMPDEST PUSH1 0x40 MLOAD DUP1 SWAP2 SUB SWAP1 REVERT JUMPDEST PUSH4 0xAE89A248 PUSH1 0xE0 SHL PUSH28 0xFFFFFFFFFFFFFFFFFFFFFFFFFFFFFFFFFFFFFFFFFFFFFFFFFFFFFFFF NOT AND DUP2 PUSH28 0xFFFFFFFFFFFFFFFFFFFFFFFFFFFFFFFFFFFFFFFFFFFFFFFFFFFFFFFF NOT AND EQ PUSH2 0x1BC0 JUMPI PUSH1 0x40 MLOAD PUSH32 0x8C379A000000000000000000000000000000000000000000000000000000000 DUP2 MSTORE PUSH1 0x4 ADD PUSH2 0x1BB7 SWAP1 PUSH2 0x231E JUMP JUMPDEST PUSH1 0x40 MLOAD DUP1 SWAP2 SUB SWAP1 REVERT JUMPDEST POP JUMPDEST POP POP POP POP POP POP JUMP JUMPDEST PUSH1 0x0 DUP1 DUP3 EXTCODESIZE SWAP1 POP PUSH1 0x0 DUP2 GT SWAP2 POP POP SWAP2 SWAP1 POP JUMP JUMPDEST DUP3 DUP1 SLOAD PUSH2 0x1BE9 SWAP1 PUSH2 0x2741 JUMP JUMPDEST SWAP1 PUSH1 0x0 MSTORE PUSH1 0x20 PUSH1 0x0 KECCAK256 SWAP1 PUSH1 0x1F ADD PUSH1 0x20 SWAP1 DIV DUP2 ADD SWAP3 DUP3 PUSH2 0x1C0B JUMPI PUSH1 0x0 DUP6 SSTORE PUSH2 0x1C52 JUMP JUMPDEST DUP3 PUSH1 0x1F LT PUSH2 0x1C24 JUMPI DUP1 MLOAD PUSH1 0xFF NOT AND DUP4 DUP1 ADD OR DUP6 SSTORE PUSH2 0x1C52 JUMP JUMPDEST DUP3 DUP1 ADD PUSH1 0x1 ADD DUP6 SSTORE DUP3 ISZERO PUSH2 0x1C52 JUMPI SWAP2 DUP3 ADD JUMPDEST DUP3 DUP2 GT ISZERO PUSH2 0x1C51 JUMPI DUP3 MLOAD DUP3 SSTORE SWAP2 PUSH1 0x20 ADD SWAP2 SWAP1 PUSH1 0x1 ADD SWAP1 PUSH2 0x1C36 JUMP JUMPDEST JUMPDEST POP SWAP1 POP PUSH2 0x1C5F SWAP2 SWAP1 PUSH2 0x1CF0 JUMP JUMPDEST POP SWAP1 JUMP JUMPDEST DUP3 DUP1 SLOAD PUSH2 0x1C6F SWAP1 PUSH2 0x2741 JUMP JUMPDEST SWAP1 PUSH1 0x0 MSTORE PUSH1 0x20 PUSH1 0x0 KECCAK256 SWAP1 PUSH1 0x1F ADD PUSH1 0x20 SWAP1 DIV DUP2 ADD SWAP3 DUP3 PUSH2 0x1C91 JUMPI PUSH1 0x0 DUP6 SSTORE PUSH2 0x1CDF JUMP JUMPDEST DUP3 PUSH1 0x1F LT PUSH2 0x1CA2 JUMPI DUP1 SLOAD DUP6 SSTORE PUSH2 0x1CDF JUMP JUMPDEST DUP3 DUP1 ADD PUSH1 0x1 ADD DUP6 SSTORE DUP3 ISZERO PUSH2 0x1CDF JUMPI PUSH1 0x0 MSTORE PUSH1 0x20 PUSH1 0x0 KECCAK256 SWAP2 PUSH1 0x1F ADD PUSH1 0x20 SWAP1 DIV DUP3 ADD JUMPDEST DUP3 DUP2 GT ISZERO PUSH2 0x1CDE JUMPI DUP3 SLOAD DUP3 SSTORE SWAP2 PUSH1 0x1 ADD SWAP2 SWAP1 PUSH1 0x1 ADD SWAP1 PUSH2 0x1CC3 JUMP JUMPDEST JUMPDEST POP SWAP1 POP PUSH2 0x1CEC SWAP2 SWAP1 PUSH2 0x1CF0 JUMP JUMPDEST POP SWAP1 JUMP JUMPDEST JUMPDEST DUP1 DUP3 GT ISZERO PUSH2 0x1D09 JUMPI PUSH1 0x0 DUP2 PUSH1 0x0 SWAP1 SSTORE POP PUSH1 0x1 ADD PUSH2 0x1CF1 JUMP JUMPDEST POP SWAP1 JUMP JUMPDEST PUSH1 0x0 DUP2 CALLDATALOAD SWAP1 POP PUSH2 0x1D1C DUP2 PUSH2 0x2CCF JUMP JUMPDEST SWAP3 SWAP2 POP POP JUMP JUMPDEST PUSH1 0x0 DUP2 CALLDATALOAD SWAP1 POP PUSH2 0x1D31 DUP2 PUSH2 0x2CE6 JUMP JUMPDEST SWAP3 SWAP2 POP POP JUMP JUMPDEST PUSH1 0x0 DUP2 MLOAD SWAP1 POP PUSH2 0x1D46 DUP2 PUSH2 0x2CFD JUMP JUMPDEST SWAP3 SWAP2 POP POP JUMP JUMPDEST PUSH1 0x0 DUP2 CALLDATALOAD SWAP1 POP PUSH2 0x1D5B DUP2 PUSH2 0x2D14 JUMP JUMPDEST SWAP3 SWAP2 POP POP JUMP JUMPDEST PUSH1 0x0 PUSH1 0x20 DUP3 DUP5 SUB SLT ISZERO PUSH2 0x1D77 JUMPI PUSH2 0x1D76 PUSH2 0x2959 JUMP JUMPDEST JUMPDEST PUSH1 0x0 PUSH2 0x1D85 DUP5 DUP3 DUP6 ADD PUSH2 0x1D0D JUMP JUMPDEST SWAP2 POP POP SWAP3 SWAP2 POP POP JUMP JUMPDEST PUSH1 0x0 PUSH1 0x20 DUP3 DUP5 SUB SLT ISZERO PUSH2 0x1DA4 JUMPI PUSH2 0x1DA3 PUSH2 0x2959 JUMP JUMPDEST JUMPDEST PUSH1 0x0 PUSH2 0x1DB2 DUP5 DUP3 DUP6 ADD PUSH2 0x1D22 JUMP JUMPDEST SWAP2 POP POP SWAP3 SWAP2 POP POP JUMP JUMPDEST PUSH1 0x0 DUP1 PUSH1 0x40 DUP4 DUP6 SUB SLT ISZERO PUSH2 0x1DD2 JUMPI PUSH2 0x1DD1 PUSH2 0x2959 JUMP JUMPDEST JUMPDEST PUSH1 0x0 PUSH2 0x1DE0 DUP6 DUP3 DUP7 ADD PUSH2 0x1D0D JUMP JUMPDEST SWAP3 POP POP PUSH1 0x20 PUSH2 0x1DF1 DUP6 DUP3 DUP7 ADD PUSH2 0x1D4C JUMP JUMPDEST SWAP2 POP POP SWAP3 POP SWAP3 SWAP1 POP JUMP JUMPDEST PUSH1 0x0 PUSH1 0x20 DUP3 DUP5 SUB SLT ISZERO PUSH2 0x1E11 JUMPI PUSH2 0x1E10 PUSH2 0x2959 JUMP JUMPDEST JUMPDEST PUSH1 0x0 PUSH2 0x1E1F DUP5 DUP3 DUP6 ADD PUSH2 0x1D37 JUMP JUMPDEST SWAP2 POP POP SWAP3 SWAP2 POP POP JUMP JUMPDEST PUSH1 0x0 PUSH1 0x20 DUP3 DUP5 SUB SLT ISZERO PUSH2 0x1E3E JUMPI PUSH2 0x1E3D PUSH2 0x2959 JUMP JUMPDEST JUMPDEST PUSH1 0x0 PUSH2 0x1E4C DUP5 DUP3 DUP6 ADD PUSH2 0x1D4C JUMP JUMPDEST SWAP2 POP POP SWAP3 SWAP2 POP POP JUMP JUMPDEST PUSH1 0x0 PUSH2 0x1E61 DUP4 DUP4 PUSH2 0x2163 JUMP JUMPDEST PUSH1 0x20 DUP4 ADD SWAP1 POP SWAP3 SWAP2 POP POP JUMP JUMPDEST PUSH2 0x1E76 DUP2 PUSH2 0x269A JUMP JUMPDEST DUP3 MSTORE POP POP JUMP JUMPDEST PUSH2 0x1E85 DUP2 PUSH2 0x2688 JUMP JUMPDEST DUP3 MSTORE POP POP JUMP JUMPDEST PUSH2 0x1E9C PUSH2 0x1E97 DUP3 PUSH2 0x2688 JUMP JUMPDEST PUSH2 0x27ED JUMP JUMPDEST DUP3 MSTORE POP POP JUMP JUMPDEST PUSH1 0x0 PUSH2 0x1EAD DUP3 PUSH2 0x2523 JUMP JUMPDEST PUSH2 0x1EB7 DUP2 DUP6 PUSH2 0x2546 JUMP JUMPDEST SWAP4 POP PUSH2 0x1EC2 DUP4 PUSH2 0x2513 JUMP JUMPDEST DUP1 PUSH1 0x0 JUMPDEST DUP4 DUP2 LT ISZERO PUSH2 0x1EF3 JUMPI DUP2 MLOAD PUSH2 0x1EDA DUP9 DUP3 PUSH2 0x1E55 JUMP JUMPDEST SWAP8 POP PUSH2 0x1EE5 DUP4 PUSH2 0x2539 JUMP JUMPDEST SWAP3 POP POP PUSH1 0x1 DUP2 ADD SWAP1 POP PUSH2 0x1EC6 JUMP JUMPDEST POP DUP6 SWAP4 POP POP POP POP SWAP3 SWAP2 POP POP JUMP JUMPDEST PUSH2 0x1F09 DUP2 PUSH2 0x26AC JUMP JUMPDEST DUP3 MSTORE POP POP JUMP JUMPDEST PUSH1 0x0 PUSH2 0x1F1A DUP3 PUSH2 0x252E JUMP JUMPDEST PUSH2 0x1F24 DUP2 DUP6 PUSH2 0x2557 JUMP JUMPDEST SWAP4 POP PUSH2 0x1F34 DUP2 DUP6 PUSH1 0x20 DUP7 ADD PUSH2 0x270E JUMP JUMPDEST PUSH2 0x1F3D DUP2 PUSH2 0x295E JUMP JUMPDEST DUP5 ADD SWAP2 POP POP SWAP3 SWAP2 POP POP JUMP JUMPDEST PUSH1 0x0 PUSH2 0x1F53 DUP3 PUSH2 0x252E JUMP JUMPDEST PUSH2 0x1F5D DUP2 DUP6 PUSH2 0x2568 JUMP JUMPDEST SWAP4 POP PUSH2 0x1F6D DUP2 DUP6 PUSH1 0x20 DUP7 ADD PUSH2 0x270E JUMP JUMPDEST DUP1 DUP5 ADD SWAP2 POP POP SWAP3 SWAP2 POP POP JUMP JUMPDEST PUSH1 0x0 PUSH2 0x1F86 PUSH1 0x34 DUP4 PUSH2 0x2557 JUMP JUMPDEST SWAP2 POP PUSH2 0x1F91 DUP3 PUSH2 0x2989 JUMP JUMPDEST PUSH1 0x40 DUP3 ADD SWAP1 POP SWAP2 SWAP1 POP JUMP JUMPDEST PUSH1 0x0 PUSH2 0x1FA9 PUSH1 0x28 DUP4 PUSH2 0x2557 JUMP JUMPDEST SWAP2 POP PUSH2 0x1FB4 DUP3 PUSH2 0x29D8 JUMP JUMPDEST PUSH1 0x40 DUP3 ADD SWAP1 POP SWAP2 SWAP1 POP JUMP JUMPDEST PUSH1 0x0 PUSH2 0x1FCC PUSH1 0x8 DUP4 PUSH2 0x2568 JUMP JUMPDEST SWAP2 POP PUSH2 0x1FD7 DUP3 PUSH2 0x2A27 JUMP JUMPDEST PUSH1 0x8 DUP3 ADD SWAP1 POP SWAP2 SWAP1 POP JUMP JUMPDEST PUSH1 0x0 PUSH2 0x1FEF PUSH1 0x5 DUP4 PUSH2 0x2568 JUMP JUMPDEST SWAP2 POP PUSH2 0x1FFA DUP3 PUSH2 0x2A50 JUMP JUMPDEST PUSH1 0x5 DUP3 ADD SWAP1 POP SWAP2 SWAP1 POP JUMP JUMPDEST PUSH1 0x0 PUSH2 0x2012 PUSH1 0x12 DUP4 PUSH2 0x2557 JUMP JUMPDEST SWAP2 POP PUSH2 0x201D DUP3 PUSH2 0x2A79 JUMP JUMPDEST PUSH1 0x20 DUP3 ADD SWAP1 POP SWAP2 SWAP1 POP JUMP JUMPDEST PUSH1 0x0 PUSH2 0x2035 PUSH1 0x1B DUP4 PUSH2 0x2557 JUMP JUMPDEST SWAP2 POP PUSH2 0x2040 DUP3 PUSH2 0x2AA2 JUMP JUMPDEST PUSH1 0x20 DUP3 ADD SWAP1 POP SWAP2 SWAP1 POP JUMP JUMPDEST PUSH1 0x0 PUSH2 0x2058 PUSH1 0x1B DUP4 PUSH2 0x2557 JUMP JUMPDEST SWAP2 POP PUSH2 0x2063 DUP3 PUSH2 0x2ACB JUMP JUMPDEST PUSH1 0x20 DUP3 ADD SWAP1 POP SWAP2 SWAP1 POP JUMP JUMPDEST PUSH1 0x0 PUSH2 0x207B PUSH1 0x15 DUP4 PUSH2 0x2557 JUMP JUMPDEST SWAP2 POP PUSH2 0x2086 DUP3 PUSH2 0x2AF4 JUMP JUMPDEST PUSH1 0x20 DUP3 ADD SWAP1 POP SWAP2 SWAP1 POP JUMP JUMPDEST PUSH1 0x0 PUSH2 0x209E PUSH1 0x1C DUP4 PUSH2 0x2557 JUMP JUMPDEST SWAP2 POP PUSH2 0x20A9 DUP3 PUSH2 0x2B1D JUMP JUMPDEST PUSH1 0x20 DUP3 ADD SWAP1 POP SWAP2 SWAP1 POP JUMP JUMPDEST PUSH1 0x0 PUSH2 0x20C1 PUSH1 0x1B DUP4 PUSH2 0x2557 JUMP JUMPDEST SWAP2 POP PUSH2 0x20CC DUP3 PUSH2 0x2B46 JUMP JUMPDEST PUSH1 0x20 DUP3 ADD SWAP1 POP SWAP2 SWAP1 POP JUMP JUMPDEST PUSH1 0x0 PUSH2 0x20E4 PUSH1 0x19 DUP4 PUSH2 0x2557 JUMP JUMPDEST SWAP2 POP PUSH2 0x20EF DUP3 PUSH2 0x2B6F JUMP JUMPDEST PUSH1 0x20 DUP3 ADD SWAP1 POP SWAP2 SWAP1 POP JUMP JUMPDEST PUSH1 0x0 PUSH2 0x2107 PUSH1 0x7 DUP4 PUSH2 0x2568 JUMP JUMPDEST SWAP2 POP PUSH2 0x2112 DUP3 PUSH2 0x2B98 JUMP JUMPDEST PUSH1 0x7 DUP3 ADD SWAP1 POP SWAP2 SWAP1 POP JUMP JUMPDEST PUSH1 0x0 PUSH2 0x212A PUSH1 0x1D DUP4 PUSH2 0x2557 JUMP JUMPDEST SWAP2 POP PUSH2 0x2135 DUP3 PUSH2 0x2BC1 JUMP JUMPDEST PUSH1 0x20 DUP3 ADD SWAP1 POP SWAP2 SWAP1 POP JUMP JUMPDEST PUSH1 0x0 PUSH2 0x214D PUSH1 0x21 DUP4 PUSH2 0x2557 JUMP JUMPDEST SWAP2 POP PUSH2 0x2158 DUP3 PUSH2 0x2BEA JUMP JUMPDEST PUSH1 0x40 DUP3 ADD SWAP1 POP SWAP2 SWAP1 POP JUMP JUMPDEST PUSH2 0x216C DUP2 PUSH2 0x2704 JUMP JUMPDEST DUP3 MSTORE POP POP JUMP JUMPDEST PUSH2 0x217B DUP2 PUSH2 0x2704 JUMP JUMPDEST DUP3 MSTORE POP POP JUMP JUMPDEST PUSH2 0x2192 PUSH2 0x218D DUP3 PUSH2 0x2704 JUMP JUMPDEST PUSH2 0x2811 JUMP JUMPDEST DUP3 MSTORE POP POP JUMP JUMPDEST PUSH1 0x0 PUSH2 0x21A3 DUP3 PUSH2 0x1FBF JUMP JUMPDEST SWAP2 POP PUSH2 0x21AF DUP3 DUP5 PUSH2 0x1F48 JUMP JUMPDEST SWAP2 POP DUP2 SWAP1 POP SWAP3 SWAP2 POP POP JUMP JUMPDEST PUSH1 0x0 PUSH2 0x21C5 DUP3 PUSH2 0x1FE2 JUMP JUMPDEST SWAP2 POP PUSH2 0x21D1 DUP3 DUP5 PUSH2 0x1F48 JUMP JUMPDEST SWAP2 POP DUP2 SWAP1 POP SWAP3 SWAP2 POP POP JUMP JUMPDEST PUSH1 0x0 PUSH2 0x21E7 DUP3 PUSH2 0x20FA JUMP JUMPDEST SWAP2 POP PUSH2 0x21F3 DUP3 DUP5 PUSH2 0x1F48 JUMP JUMPDEST SWAP2 POP DUP2 SWAP1 POP SWAP3 SWAP2 POP POP JUMP JUMPDEST PUSH1 0x0 PUSH2 0x220A DUP3 DUP6 PUSH2 0x2181 JUMP JUMPDEST PUSH1 0x20 DUP3 ADD SWAP2 POP PUSH2 0x221A DUP3 DUP5 PUSH2 0x1E8B JUMP JUMPDEST PUSH1 0x14 DUP3 ADD SWAP2 POP DUP2 SWAP1 POP SWAP4 SWAP3 POP POP POP JUMP JUMPDEST PUSH1 0x0 PUSH1 0x20 DUP3 ADD SWAP1 POP PUSH2 0x223F PUSH1 0x0 DUP4 ADD DUP5 PUSH2 0x1E6D JUMP JUMPDEST SWAP3 SWAP2 POP POP JUMP JUMPDEST PUSH1 0x0 PUSH1 0xA0 DUP3 ADD SWAP1 POP PUSH2 0x225A PUSH1 0x0 DUP4 ADD DUP9 PUSH2 0x1E7C JUMP JUMPDEST PUSH2 0x2267 PUSH1 0x20 DUP4 ADD DUP8 PUSH2 0x1E7C JUMP JUMPDEST PUSH2 0x2274 PUSH1 0x40 DUP4 ADD DUP7 PUSH2 0x2172 JUMP JUMPDEST PUSH2 0x2281 PUSH1 0x60 DUP4 ADD DUP6 PUSH2 0x2172 JUMP JUMPDEST DUP2 DUP2 SUB PUSH1 0x80 DUP4 ADD MSTORE PUSH2 0x2293 DUP2 DUP5 PUSH2 0x1F0F JUMP JUMPDEST SWAP1 POP SWAP7 SWAP6 POP POP POP POP POP POP JUMP JUMPDEST PUSH1 0x0 PUSH1 0x20 DUP3 ADD SWAP1 POP DUP2 DUP2 SUB PUSH1 0x0 DUP4 ADD MSTORE PUSH2 0x22B9 DUP2 DUP5 PUSH2 0x1EA2 JUMP JUMPDEST SWAP1 POP SWAP3 SWAP2 POP POP JUMP JUMPDEST PUSH1 0x0 PUSH1 0x20 DUP3 ADD SWAP1 POP PUSH2 0x22D6 PUSH1 0x0 DUP4 ADD DUP5 PUSH2 0x1F00 JUMP JUMPDEST SWAP3 SWAP2 POP POP JUMP JUMPDEST PUSH1 0x0 PUSH1 0x20 DUP3 ADD SWAP1 POP DUP2 DUP2 SUB PUSH1 0x0 DUP4 ADD MSTORE PUSH2 0x22F6 DUP2 DUP5 PUSH2 0x1F0F JUMP JUMPDEST SWAP1 POP SWAP3 SWAP2 POP POP JUMP JUMPDEST PUSH1 0x0 PUSH1 0x20 DUP3 ADD SWAP1 POP DUP2 DUP2 SUB PUSH1 0x0 DUP4 ADD MSTORE PUSH2 0x2317 DUP2 PUSH2 0x1F79 JUMP JUMPDEST SWAP1 POP SWAP2 SWAP1 POP JUMP JUMPDEST PUSH1 0x0 PUSH1 0x20 DUP3 ADD SWAP1 POP DUP2 DUP2 SUB PUSH1 0x0 DUP4 ADD MSTORE PUSH2 0x2337 DUP2 PUSH2 0x1F9C JUMP JUMPDEST SWAP1 POP SWAP2 SWAP1 POP JUMP JUMPDEST PUSH1 0x0 PUSH1 0x20 DUP3 ADD SWAP1 POP DUP2 DUP2 SUB PUSH1 0x0 DUP4 ADD MSTORE PUSH2 0x2357 DUP2 PUSH2 0x2005 JUMP JUMPDEST SWAP1 POP SWAP2 SWAP1 POP JUMP JUMPDEST PUSH1 0x0 PUSH1 0x20 DUP3 ADD SWAP1 POP DUP2 DUP2 SUB PUSH1 0x0 DUP4 ADD MSTORE PUSH2 0x2377 DUP2 PUSH2 0x2028 JUMP JUMPDEST SWAP1 POP SWAP2 SWAP1 POP JUMP JUMPDEST PUSH1 0x0 PUSH1 0x20 DUP3 ADD SWAP1 POP DUP2 DUP2 SUB PUSH1 0x0 DUP4 ADD MSTORE PUSH2 0x2397 DUP2 PUSH2 0x204B JUMP JUMPDEST SWAP1 POP SWAP2 SWAP1 POP JUMP JUMPDEST PUSH1 0x0 PUSH1 0x20 DUP3 ADD SWAP1 POP DUP2 DUP2 SUB PUSH1 0x0 DUP4 ADD MSTORE PUSH2 0x23B7 DUP2 PUSH2 0x206E JUMP JUMPDEST SWAP1 POP SWAP2 SWAP1 POP JUMP JUMPDEST PUSH1 0x0 PUSH1 0x20 DUP3 ADD SWAP1 POP DUP2 DUP2 SUB PUSH1 0x0 DUP4 ADD MSTORE PUSH2 0x23D7 DUP2 PUSH2 0x2091 JUMP JUMPDEST SWAP1 POP SWAP2 SWAP1 POP JUMP JUMPDEST PUSH1 0x0 PUSH1 0x20 DUP3 ADD SWAP1 POP DUP2 DUP2 SUB PUSH1 0x0 DUP4 ADD MSTORE PUSH2 0x23F7 DUP2 PUSH2 0x20B4 JUMP JUMPDEST SWAP1 POP SWAP2 SWAP1 POP JUMP JUMPDEST PUSH1 0x0 PUSH1 0x20 DUP3 ADD SWAP1 POP DUP2 DUP2 SUB PUSH1 0x0 DUP4 ADD MSTORE PUSH2 0x2417 DUP2 PUSH2 0x20D7 JUMP JUMPDEST SWAP1 POP SWAP2 SWAP1 POP JUMP JUMPDEST PUSH1 0x0 PUSH1 0x20 DUP3 ADD SWAP1 POP DUP2 DUP2 SUB PUSH1 0x0 DUP4 ADD MSTORE PUSH2 0x2437 DUP2 PUSH2 0x211D JUMP JUMPDEST SWAP1 POP SWAP2 SWAP1 POP JUMP JUMPDEST PUSH1 0x0 PUSH1 0x20 DUP3 ADD SWAP1 POP DUP2 DUP2 SUB PUSH1 0x0 DUP4 ADD MSTORE PUSH2 0x2457 DUP2 PUSH2 0x2140 JUMP JUMPDEST SWAP1 POP SWAP2 SWAP1 POP JUMP JUMPDEST PUSH1 0x0 PUSH1 0x20 DUP3 ADD SWAP1 POP PUSH2 0x2473 PUSH1 0x0 DUP4 ADD DUP5 PUSH2 0x2172 JUMP JUMPDEST SWAP3 SWAP2 POP POP JUMP JUMPDEST PUSH1 0x0 PUSH1 0x40 DUP3 ADD SWAP1 POP PUSH2 0x248E PUSH1 0x0 DUP4 ADD DUP6 PUSH2 0x2172 JUMP JUMPDEST DUP2 DUP2 SUB PUSH1 0x20 DUP4 ADD MSTORE PUSH2 0x24A0 DUP2 DUP5 PUSH2 0x1F0F JUMP JUMPDEST SWAP1 POP SWAP4 SWAP3 POP POP POP JUMP JUMPDEST PUSH1 0x0 PUSH1 0x40 DUP3 ADD SWAP1 POP PUSH2 0x24BE PUSH1 0x0 DUP4 ADD DUP6 PUSH2 0x2172 JUMP JUMPDEST PUSH2 0x24CB PUSH1 0x20 DUP4 ADD DUP5 PUSH2 0x2172 JUMP JUMPDEST SWAP4 SWAP3 POP POP POP JUMP JUMPDEST PUSH1 0x0 PUSH1 0x60 DUP3 ADD SWAP1 POP PUSH2 0x24E7 PUSH1 0x0 DUP4 ADD DUP7 PUSH2 0x2172 JUMP JUMPDEST PUSH2 0x24F4 PUSH1 0x20 DUP4 ADD DUP6 PUSH2 0x2172 JUMP JUMPDEST PUSH2 0x2501 PUSH1 0x40 DUP4 ADD DUP5 PUSH2 0x2172 JUMP JUMPDEST SWAP5 SWAP4 POP POP POP POP JUMP JUMPDEST PUSH1 0x0 PUSH1 0x40 MLOAD SWAP1 POP SWAP1 JUMP JUMPDEST PUSH1 0x0 DUP2 SWAP1 POP PUSH1 0x20 DUP3 ADD SWAP1 POP SWAP2 SWAP1 POP JUMP JUMPDEST PUSH1 0x0 DUP2 MLOAD SWAP1 POP SWAP2 SWAP1 POP JUMP JUMPDEST PUSH1 0x0 DUP2 MLOAD SWAP1 POP SWAP2 SWAP1 POP JUMP JUMPDEST PUSH1 0x0 PUSH1 0x20 DUP3 ADD SWAP1 POP SWAP2 SWAP1 POP JUMP JUMPDEST PUSH1 0x0 DUP3 DUP3 MSTORE PUSH1 0x20 DUP3 ADD SWAP1 POP SWAP3 SWAP2 POP POP JUMP JUMPDEST PUSH1 0x0 DUP3 DUP3 MSTORE PUSH1 0x20 DUP3 ADD SWAP1 POP SWAP3 SWAP2 POP POP JUMP JUMPDEST PUSH1 0x0 DUP2 SWAP1 POP SWAP3 SWAP2 POP POP JUMP JUMPDEST PUSH1 0x0 PUSH2 0x257E DUP3 PUSH2 0x2704 JUMP JUMPDEST SWAP2 POP PUSH2 0x2589 DUP4 PUSH2 0x2704 JUMP JUMPDEST SWAP3 POP DUP3 PUSH32 0xFFFFFFFFFFFFFFFFFFFFFFFFFFFFFFFFFFFFFFFFFFFFFFFFFFFFFFFFFFFFFFFF SUB DUP3 GT ISZERO PUSH2 0x25BE JUMPI PUSH2 0x25BD PUSH2 0x284C JUMP JUMPDEST JUMPDEST DUP3 DUP3 ADD SWAP1 POP SWAP3 SWAP2 POP POP JUMP JUMPDEST PUSH1 0x0 PUSH2 0x25D4 DUP3 PUSH2 0x2704 JUMP JUMPDEST SWAP2 POP PUSH2 0x25DF DUP4 PUSH2 0x2704 JUMP JUMPDEST SWAP3 POP DUP3 PUSH2 0x25EF JUMPI PUSH2 0x25EE PUSH2 0x287B JUMP JUMPDEST JUMPDEST DUP3 DUP3 DIV SWAP1 POP SWAP3 SWAP2 POP POP JUMP JUMPDEST PUSH1 0x0 PUSH2 0x2605 DUP3 PUSH2 0x2704 JUMP JUMPDEST SWAP2 POP PUSH2 0x2610 DUP4 PUSH2 0x2704 JUMP JUMPDEST SWAP3 POP DUP2 PUSH32 0xFFFFFFFFFFFFFFFFFFFFFFFFFFFFFFFFFFFFFFFFFFFFFFFFFFFFFFFFFFFFFFFF DIV DUP4 GT DUP3 ISZERO ISZERO AND ISZERO PUSH2 0x2649 JUMPI PUSH2 0x2648 PUSH2 0x284C JUMP JUMPDEST JUMPDEST DUP3 DUP3 MUL SWAP1 POP SWAP3 SWAP2 POP POP JUMP JUMPDEST PUSH1 0x0 PUSH2 0x265F DUP3 PUSH2 0x2704 JUMP JUMPDEST SWAP2 POP PUSH2 0x266A DUP4 PUSH2 0x2704 JUMP JUMPDEST SWAP3 POP DUP3 DUP3 LT ISZERO PUSH2 0x267D JUMPI PUSH2 0x267C PUSH2 0x284C JUMP JUMPDEST JUMPDEST DUP3 DUP3 SUB SWAP1 POP SWAP3 SWAP2 POP POP JUMP JUMPDEST PUSH1 0x0 PUSH2 0x2693 DUP3 PUSH2 0x26E4 JUMP JUMPDEST SWAP1 POP SWAP2 SWAP1 POP JUMP JUMPDEST PUSH1 0x0 PUSH2 0x26A5 DUP3 PUSH2 0x26E4 JUMP JUMPDEST SWAP1 POP SWAP2 SWAP1 POP JUMP JUMPDEST PUSH1 0x0 DUP2 ISZERO ISZERO SWAP1 POP SWAP2 SWAP1 POP JUMP JUMPDEST PUSH1 0x0 PUSH32 0xFFFFFFFF00000000000000000000000000000000000000000000000000000000 DUP3 AND SWAP1 POP SWAP2 SWAP1 POP JUMP JUMPDEST PUSH1 0x0 PUSH20 0xFFFFFFFFFFFFFFFFFFFFFFFFFFFFFFFFFFFFFFFF DUP3 AND SWAP1 POP SWAP2 SWAP1 POP JUMP JUMPDEST PUSH1 0x0 DUP2 SWAP1 POP SWAP2 SWAP1 POP JUMP JUMPDEST PUSH1 0x0 JUMPDEST DUP4 DUP2 LT ISZERO PUSH2 0x272C JUMPI DUP1 DUP3 ADD MLOAD DUP2 DUP5 ADD MSTORE PUSH1 0x20 DUP2 ADD SWAP1 POP PUSH2 0x2711 JUMP JUMPDEST DUP4 DUP2 GT ISZERO PUSH2 0x273B JUMPI PUSH1 0x0 DUP5 DUP5 ADD MSTORE JUMPDEST POP POP POP POP JUMP JUMPDEST PUSH1 0x0 PUSH1 0x2 DUP3 DIV SWAP1 POP PUSH1 0x1 DUP3 AND DUP1 PUSH2 0x2759 JUMPI PUSH1 0x7F DUP3 AND SWAP2 POP JUMPDEST PUSH1 0x20 DUP3 LT DUP2 EQ ISZERO PUSH2 0x276D JUMPI PUSH2 0x276C PUSH2 0x28AA JUMP JUMPDEST JUMPDEST POP SWAP2 SWAP1 POP JUMP JUMPDEST PUSH2 0x277C DUP3 PUSH2 0x295E JUMP JUMPDEST DUP2 ADD DUP2 DUP2 LT PUSH8 0xFFFFFFFFFFFFFFFF DUP3 GT OR ISZERO PUSH2 0x279B JUMPI PUSH2 0x279A PUSH2 0x2908 JUMP JUMPDEST JUMPDEST DUP1 PUSH1 0x40 MSTORE POP POP POP JUMP JUMPDEST PUSH1 0x0 PUSH2 0x27AF DUP3 PUSH2 0x2704 JUMP JUMPDEST SWAP2 POP PUSH32 0xFFFFFFFFFFFFFFFFFFFFFFFFFFFFFFFFFFFFFFFFFFFFFFFFFFFFFFFFFFFFFFFF DUP3 EQ ISZERO PUSH2 0x27E2 JUMPI PUSH2 0x27E1 PUSH2 0x284C JUMP JUMPDEST JUMPDEST PUSH1 0x1 DUP3 ADD SWAP1 POP SWAP2 SWAP1 POP JUMP JUMPDEST PUSH1 0x0 PUSH2 0x27F8 DUP3 PUSH2 0x27FF JUMP JUMPDEST SWAP1 POP SWAP2 SWAP1 POP JUMP JUMPDEST PUSH1 0x0 PUSH2 0x280A DUP3 PUSH2 0x296F JUMP JUMPDEST SWAP1 POP SWAP2 SWAP1 POP JUMP JUMPDEST PUSH1 0x0 DUP2 SWAP1 POP SWAP2 SWAP1 POP JUMP JUMPDEST PUSH1 0x0 PUSH2 0x2826 DUP3 PUSH2 0x2704 JUMP JUMPDEST SWAP2 POP PUSH2 0x2831 DUP4 PUSH2 0x2704 JUMP JUMPDEST SWAP3 POP DUP3 PUSH2 0x2841 JUMPI PUSH2 0x2840 PUSH2 0x287B JUMP JUMPDEST JUMPDEST DUP3 DUP3 MOD SWAP1 POP SWAP3 SWAP2 POP POP JUMP JUMPDEST PUSH32 0x4E487B7100000000000000000000000000000000000000000000000000000000 PUSH1 0x0 MSTORE PUSH1 0x11 PUSH1 0x4 MSTORE PUSH1 0x24 PUSH1 0x0 REVERT JUMPDEST PUSH32 0x4E487B7100000000000000000000000000000000000000000000000000000000 PUSH1 0x0 MSTORE PUSH1 0x12 PUSH1 0x4 MSTORE PUSH1 0x24 PUSH1 0x0 REVERT JUMPDEST PUSH32 0x4E487B7100000000000000000000000000000000000000000000000000000000 PUSH1 0x0 MSTORE PUSH1 0x22 PUSH1 0x4 MSTORE PUSH1 0x24 PUSH1 0x0 REVERT JUMPDEST PUSH32 0x4E487B7100000000000000000000000000000000000000000000000000000000 PUSH1 0x0 MSTORE PUSH1 0x32 PUSH1 0x4 MSTORE PUSH1 0x24 PUSH1 0x0 REVERT JUMPDEST PUSH32 0x4E487B7100000000000000000000000000000000000000000000000000000000 PUSH1 0x0 MSTORE PUSH1 0x41 PUSH1 0x4 MSTORE PUSH1 0x24 PUSH1 0x0 REVERT JUMPDEST PUSH1 0x0 PUSH1 0x3 RETURNDATASIZE GT ISZERO PUSH2 0x2956 JUMPI PUSH1 0x4 PUSH1 0x0 DUP1 RETURNDATACOPY PUSH2 0x2953 PUSH1 0x0 MLOAD PUSH2 0x297C JUMP JUMPDEST SWAP1 POP JUMPDEST SWAP1 JUMP JUMPDEST PUSH1 0x0 DUP1 REVERT JUMPDEST PUSH1 0x0 PUSH1 0x1F NOT PUSH1 0x1F DUP4 ADD AND SWAP1 POP SWAP2 SWAP1 POP JUMP JUMPDEST PUSH1 0x0 DUP2 PUSH1 0x60 SHL SWAP1 POP SWAP2 SWAP1 POP JUMP JUMPDEST PUSH1 0x0 DUP2 PUSH1 0xE0 SHR SWAP1 POP SWAP2 SWAP1 POP JUMP JUMPDEST PUSH32 0x455243313135353A207472616E7366657220746F206E6F6E2045524331313535 PUSH1 0x0 DUP3 ADD MSTORE PUSH32 0x526563656976657220696D706C656D656E746572000000000000000000000000 PUSH1 0x20 DUP3 ADD MSTORE POP JUMP JUMPDEST PUSH32 0x455243313135353A204552433131353552656365697665722072656A65637465 PUSH1 0x0 DUP3 ADD MSTORE PUSH32 0x6420746F6B656E73000000000000000000000000000000000000000000000000 PUSH1 0x20 DUP3 ADD MSTORE POP JUMP JUMPDEST PUSH32 0x4469616D6F6E645F000000000000000000000000000000000000000000000000 PUSH1 0x0 DUP3 ADD MSTORE POP JUMP JUMPDEST PUSH32 0x476F6C645F000000000000000000000000000000000000000000000000000000 PUSH1 0x0 DUP3 ADD MSTORE POP JUMP JUMPDEST PUSH32 0x4E6F7420456E6F7567682042616C616E63650000000000000000000000000000 PUSH1 0x0 DUP3 ADD MSTORE POP JUMP JUMPDEST PUSH32 0x44726F707369746520697320616C72656164792052756E6E696E670000000000 PUSH1 0x0 DUP3 ADD MSTORE POP JUMP JUMPDEST PUSH32 0x44726F707369746520697320616C72656164792053746F707065640000000000 PUSH1 0x0 DUP3 ADD MSTORE POP JUMP JUMPDEST PUSH32 0x596F752063616E206D696E7420312D33204E4654730000000000000000000000 PUSH1 0x0 DUP3 ADD MSTORE POP JUMP JUMPDEST PUSH32 0x4F6E6C79204E46542D4553204F776E65722063616E2041636365737300000000 PUSH1 0x0 DUP3 ADD MSTORE POP JUMP JUMPDEST PUSH32 0x44726F7073697465206973206E6F74204F70656E6564205965742E0000000000 PUSH1 0x0 DUP3 ADD MSTORE POP JUMP JUMPDEST PUSH32 0x4D6178204D696E74696E67204C696D6974207265616368656400000000000000 PUSH1 0x0 DUP3 ADD MSTORE POP JUMP JUMPDEST PUSH32 0x53696C7665725F00000000000000000000000000000000000000000000000000 PUSH1 0x0 DUP3 ADD MSTORE POP JUMP JUMPDEST PUSH32 0x4572726F7221204E6F2042616C616E636520746F207769746864726177000000 PUSH1 0x0 DUP3 ADD MSTORE POP JUMP JUMPDEST PUSH32 0x455243313135353A206D696E7420746F20746865207A65726F20616464726573 PUSH1 0x0 DUP3 ADD MSTORE PUSH32 0x7300000000000000000000000000000000000000000000000000000000000000 PUSH1 0x20 DUP3 ADD MSTORE POP JUMP JUMPDEST PUSH1 0x0 PUSH1 0x44 RETURNDATASIZE LT ISZERO PUSH2 0x2C49 JUMPI PUSH2 0x2CCC JUMP JUMPDEST PUSH2 0x2C51 PUSH2 0x2509 JUMP JUMPDEST PUSH1 0x4 RETURNDATASIZE SUB PUSH1 0x4 DUP3 RETURNDATACOPY DUP1 MLOAD RETURNDATASIZE PUSH1 0x24 DUP3 ADD GT PUSH8 0xFFFFFFFFFFFFFFFF DUP3 GT OR ISZERO PUSH2 0x2C79 JUMPI POP POP PUSH2 0x2CCC JUMP JUMPDEST DUP1 DUP3 ADD DUP1 MLOAD PUSH8 0xFFFFFFFFFFFFFFFF DUP2 GT ISZERO PUSH2 0x2C97 JUMPI POP POP POP POP PUSH2 0x2CCC JUMP JUMPDEST DUP1 PUSH1 0x20 DUP4 ADD ADD PUSH1 0x4 RETURNDATASIZE SUB DUP6 ADD DUP2 GT ISZERO PUSH2 0x2CB4 JUMPI POP POP POP POP POP PUSH2 0x2CCC JUMP JUMPDEST PUSH2 0x2CC3 DUP3 PUSH1 0x20 ADD DUP6 ADD DUP7 PUSH2 0x2773 JUMP JUMPDEST DUP3 SWAP6 POP POP POP POP POP POP JUMPDEST SWAP1 JUMP JUMPDEST PUSH2 0x2CD8 DUP2 PUSH2 0x2688 JUMP JUMPDEST DUP2 EQ PUSH2 0x2CE3 JUMPI PUSH1 0x0 DUP1 REVERT JUMPDEST POP JUMP JUMPDEST PUSH2 0x2CEF DUP2 PUSH2 0x269A JUMP JUMPDEST DUP2 EQ PUSH2 0x2CFA JUMPI PUSH1 0x0 DUP1 REVERT JUMPDEST POP JUMP JUMPDEST PUSH2 0x2D06 DUP2 PUSH2 0x26B8 JUMP JUMPDEST DUP2 EQ PUSH2 0x2D11 JUMPI PUSH1 0x0 DUP1 REVERT JUMPDEST POP JUMP JUMPDEST PUSH2 0x2D1D DUP2 PUSH2 0x2704 JUMP JUMPDEST DUP2 EQ PUSH2 0x2D28 JUMPI PUSH1 0x0 DUP1 REVERT JUMPDEST POP JUMP INVALID LOG2 PUSH5 0x6970667358 0x22 SLT KECCAK256 PUSH15 0xBC39CE4ABDC2BE3CEAEDBA4F807157 0x4B PUSH18 0xCA7EB653216E25F8FCAA971A9DF164736F6C PUSH4 0x43000807 STOP CALLER "
				},
				"gasEstimates": {
					"creation": {
						"codeDepositCost": "2323400",
						"executionCost": "infinite",
						"totalCost": "infinite"
					},
					"external": {
						"ContractBalance()": "2758",
						"CryptoRandomMint(address,uint256)": "infinite",
						"FiatRandomMint(address,uint256)": "infinite",
						"IsPaused()": "2539",
						"Owner()": "2608",
						"checkMintedCategoryWise()": "infinite",
						"checkTotalMinted()": "4716",
						"getMintFee()": "6930",
						"openDropsite()": "28860",
						"randomMinting(address)": "infinite",
						"returnOwner(address)": "infinite",
						"setMintFee(uint256)": "27012",
						"stopDropsite()": "28859",
						"withDraw(address)": "infinite"
					},
					"internal": {
						"depositAmount(address,uint256)": "infinite",
						"random()": "infinite",
						"updateConditions(uint256)": "infinite"
					}
				},
				"methodIdentifiers": {
					"ContractBalance()": "3b668059",
					"CryptoRandomMint(address,uint256)": "59ba3124",
					"FiatRandomMint(address,uint256)": "27a8a072",
					"IsPaused()": "1309a563",
					"Owner()": "b4a99a4e",
					"checkMintedCategoryWise()": "60daa851",
					"checkTotalMinted()": "0390c11c",
					"getMintFee()": "7a5caab3",
					"openDropsite()": "15460259",
					"randomMinting(address)": "546fd992",
					"returnOwner(address)": "fd6c3b1b",
					"setMintFee(uint256)": "eddd0d9c",
					"stopDropsite()": "aa90c726",
					"withDraw(address)": "0a67d2c7"
				}
			},
			"userdoc": {
				"kind": "user",
				"methods": {},
				"version": 1
			}
		}
	}
}