{
	"Dropsite.sol": {
		"Dropsite": {
			"abi": [
				{
					"inputs": [
						{
							"internalType": "string",
							"name": "name",
							"type": "string"
						}
					],
					"stateMutability": "nonpayable",
					"type": "constructor"
				},
				{
					"anonymous": false,
					"inputs": [
						{
							"indexed": true,
							"internalType": "address",
							"name": "operator",
							"type": "address"
						},
						{
							"indexed": true,
							"internalType": "address",
							"name": "from",
							"type": "address"
						},
						{
							"indexed": true,
							"internalType": "address",
							"name": "to",
							"type": "address"
						},
						{
							"indexed": false,
							"internalType": "uint256",
							"name": "id",
							"type": "uint256"
						},
						{
							"indexed": false,
							"internalType": "uint256",
							"name": "value",
							"type": "uint256"
						}
					],
					"name": "TransferSingle",
					"type": "event"
				},
				{
					"inputs": [],
					"name": "ContractBalance",
					"outputs": [
						{
							"internalType": "uint256",
							"name": "",
							"type": "uint256"
						}
					],
					"stateMutability": "view",
					"type": "function"
				},
				{
					"inputs": [
						{
							"internalType": "address",
							"name": "user_addr",
							"type": "address"
						}
					],
					"name": "CryptoRandomMint",
					"outputs": [
						{
							"internalType": "uint256",
							"name": "",
							"type": "uint256"
						},
						{
							"internalType": "string",
							"name": "",
							"type": "string"
						}
					],
					"stateMutability": "payable",
					"type": "function"
				},
				{
					"inputs": [
						{
							"internalType": "address",
							"name": "user_addr",
							"type": "address"
						}
					],
					"name": "FiatRandomMint",
					"outputs": [
						{
							"internalType": "uint256",
							"name": "",
							"type": "uint256"
						},
						{
							"internalType": "string",
							"name": "",
							"type": "string"
						}
					],
					"stateMutability": "nonpayable",
					"type": "function"
				},
				{
					"inputs": [],
					"name": "IsPaused",
					"outputs": [
						{
							"internalType": "bool",
							"name": "",
							"type": "bool"
						}
					],
					"stateMutability": "view",
					"type": "function"
				},
				{
					"inputs": [],
					"name": "Owner",
					"outputs": [
						{
							"internalType": "address payable",
							"name": "",
							"type": "address"
						}
					],
					"stateMutability": "view",
					"type": "function"
				},
				{
					"inputs": [],
					"name": "checkMintedCategoryWise",
					"outputs": [
						{
							"internalType": "uint256",
							"name": "",
							"type": "uint256"
						},
						{
							"internalType": "uint256",
							"name": "",
							"type": "uint256"
						},
						{
							"internalType": "uint256",
							"name": "",
							"type": "uint256"
						}
					],
					"stateMutability": "view",
					"type": "function"
				},
				{
					"inputs": [],
					"name": "checkTotalMinted",
					"outputs": [
						{
							"internalType": "uint256",
							"name": "",
							"type": "uint256"
						}
					],
					"stateMutability": "view",
					"type": "function"
				},
				{
					"inputs": [],
					"name": "openDropsite",
					"outputs": [],
					"stateMutability": "nonpayable",
					"type": "function"
				},
				{
					"inputs": [
						{
							"internalType": "address",
							"name": "addr",
							"type": "address"
						}
					],
					"name": "returnOwner",
					"outputs": [
						{
							"internalType": "uint256[]",
							"name": "",
							"type": "uint256[]"
						}
					],
					"stateMutability": "view",
					"type": "function"
				},
				{
					"inputs": [],
					"name": "stopDropsite",
					"outputs": [],
					"stateMutability": "nonpayable",
					"type": "function"
				},
				{
					"inputs": [
						{
							"internalType": "address payable",
							"name": "to",
							"type": "address"
						}
					],
					"name": "withDraw",
					"outputs": [],
					"stateMutability": "payable",
					"type": "function"
				}
			],
			"devdoc": {
				"kind": "dev",
				"methods": {},
				"version": 1
			},
			"evm": {
				"assembly": "    /* \"Dropsite.sol\":122:5096  contract Dropsite is ERC1155_Dropsite  { ... */\n  mstore(0x40, 0x80)\n    /* \"Dropsite.sol\":188:203  bytes  data =\"\" */\n  mload(0x40)\n  dup1\n  0x20\n  add\n  0x40\n  mstore\n  dup1\n  0x00\n  dup2\n  mstore\n  pop\n  0x02\n  swap1\n  dup1\n  mload\n  swap1\n  0x20\n  add\n  swap1\n  tag_1\n  swap3\n  swap2\n  swap1\n  tag_2\n  jump\t// in\ntag_1:\n  pop\n    /* \"Dropsite.sol\":209:275  uint8[20] private nums = [0,1,1,2,2,2,2,2,2,2,2,2,2,2,2,2,2,2,2,2] */\n  mload(0x40)\n  dup1\n  0x0280\n  add\n  0x40\n  mstore\n  dup1\n    /* \"Dropsite.sol\":235:236  0 */\n  0x00\n    /* \"Dropsite.sol\":209:275  uint8[20] private nums = [0,1,1,2,2,2,2,2,2,2,2,2,2,2,2,2,2,2,2,2] */\n  0xff\n  and\n  dup2\n  mstore\n  0x20\n  add\n    /* \"Dropsite.sol\":237:238  1 */\n  0x01\n    /* \"Dropsite.sol\":209:275  uint8[20] private nums = [0,1,1,2,2,2,2,2,2,2,2,2,2,2,2,2,2,2,2,2] */\n  0xff\n  and\n  dup2\n  mstore\n  0x20\n  add\n    /* \"Dropsite.sol\":239:240  1 */\n  0x01\n    /* \"Dropsite.sol\":209:275  uint8[20] private nums = [0,1,1,2,2,2,2,2,2,2,2,2,2,2,2,2,2,2,2,2] */\n  0xff\n  and\n  dup2\n  mstore\n  0x20\n  add\n    /* \"Dropsite.sol\":241:242  2 */\n  0x02\n    /* \"Dropsite.sol\":209:275  uint8[20] private nums = [0,1,1,2,2,2,2,2,2,2,2,2,2,2,2,2,2,2,2,2] */\n  0xff\n  and\n  dup2\n  mstore\n  0x20\n  add\n    /* \"Dropsite.sol\":243:244  2 */\n  0x02\n    /* \"Dropsite.sol\":209:275  uint8[20] private nums = [0,1,1,2,2,2,2,2,2,2,2,2,2,2,2,2,2,2,2,2] */\n  0xff\n  and\n  dup2\n  mstore\n  0x20\n  add\n    /* \"Dropsite.sol\":245:246  2 */\n  0x02\n    /* \"Dropsite.sol\":209:275  uint8[20] private nums = [0,1,1,2,2,2,2,2,2,2,2,2,2,2,2,2,2,2,2,2] */\n  0xff\n  and\n  dup2\n  mstore\n  0x20\n  add\n    /* \"Dropsite.sol\":247:248  2 */\n  0x02\n    /* \"Dropsite.sol\":209:275  uint8[20] private nums = [0,1,1,2,2,2,2,2,2,2,2,2,2,2,2,2,2,2,2,2] */\n  0xff\n  and\n  dup2\n  mstore\n  0x20\n  add\n    /* \"Dropsite.sol\":249:250  2 */\n  0x02\n    /* \"Dropsite.sol\":209:275  uint8[20] private nums = [0,1,1,2,2,2,2,2,2,2,2,2,2,2,2,2,2,2,2,2] */\n  0xff\n  and\n  dup2\n  mstore\n  0x20\n  add\n    /* \"Dropsite.sol\":251:252  2 */\n  0x02\n    /* \"Dropsite.sol\":209:275  uint8[20] private nums = [0,1,1,2,2,2,2,2,2,2,2,2,2,2,2,2,2,2,2,2] */\n  0xff\n  and\n  dup2\n  mstore\n  0x20\n  add\n    /* \"Dropsite.sol\":253:254  2 */\n  0x02\n    /* \"Dropsite.sol\":209:275  uint8[20] private nums = [0,1,1,2,2,2,2,2,2,2,2,2,2,2,2,2,2,2,2,2] */\n  0xff\n  and\n  dup2\n  mstore\n  0x20\n  add\n    /* \"Dropsite.sol\":255:256  2 */\n  0x02\n    /* \"Dropsite.sol\":209:275  uint8[20] private nums = [0,1,1,2,2,2,2,2,2,2,2,2,2,2,2,2,2,2,2,2] */\n  0xff\n  and\n  dup2\n  mstore\n  0x20\n  add\n    /* \"Dropsite.sol\":257:258  2 */\n  0x02\n    /* \"Dropsite.sol\":209:275  uint8[20] private nums = [0,1,1,2,2,2,2,2,2,2,2,2,2,2,2,2,2,2,2,2] */\n  0xff\n  and\n  dup2\n  mstore\n  0x20\n  add\n    /* \"Dropsite.sol\":259:260  2 */\n  0x02\n    /* \"Dropsite.sol\":209:275  uint8[20] private nums = [0,1,1,2,2,2,2,2,2,2,2,2,2,2,2,2,2,2,2,2] */\n  0xff\n  and\n  dup2\n  mstore\n  0x20\n  add\n    /* \"Dropsite.sol\":261:262  2 */\n  0x02\n    /* \"Dropsite.sol\":209:275  uint8[20] private nums = [0,1,1,2,2,2,2,2,2,2,2,2,2,2,2,2,2,2,2,2] */\n  0xff\n  and\n  dup2\n  mstore\n  0x20\n  add\n    /* \"Dropsite.sol\":263:264  2 */\n  0x02\n    /* \"Dropsite.sol\":209:275  uint8[20] private nums = [0,1,1,2,2,2,2,2,2,2,2,2,2,2,2,2,2,2,2,2] */\n  0xff\n  and\n  dup2\n  mstore\n  0x20\n  add\n    /* \"Dropsite.sol\":265:266  2 */\n  0x02\n    /* \"Dropsite.sol\":209:275  uint8[20] private nums = [0,1,1,2,2,2,2,2,2,2,2,2,2,2,2,2,2,2,2,2] */\n  0xff\n  and\n  dup2\n  mstore\n  0x20\n  add\n    /* \"Dropsite.sol\":267:268  2 */\n  0x02\n    /* \"Dropsite.sol\":209:275  uint8[20] private nums = [0,1,1,2,2,2,2,2,2,2,2,2,2,2,2,2,2,2,2,2] */\n  0xff\n  and\n  dup2\n  mstore\n  0x20\n  add\n    /* \"Dropsite.sol\":269:270  2 */\n  0x02\n    /* \"Dropsite.sol\":209:275  uint8[20] private nums = [0,1,1,2,2,2,2,2,2,2,2,2,2,2,2,2,2,2,2,2] */\n  0xff\n  and\n  dup2\n  mstore\n  0x20\n  add\n    /* \"Dropsite.sol\":271:272  2 */\n  0x02\n    /* \"Dropsite.sol\":209:275  uint8[20] private nums = [0,1,1,2,2,2,2,2,2,2,2,2,2,2,2,2,2,2,2,2] */\n  0xff\n  and\n  dup2\n  mstore\n  0x20\n  add\n    /* \"Dropsite.sol\":273:274  2 */\n  0x02\n    /* \"Dropsite.sol\":209:275  uint8[20] private nums = [0,1,1,2,2,2,2,2,2,2,2,2,2,2,2,2,2,2,2,2] */\n  0xff\n  and\n  dup2\n  mstore\n  pop\n  0x03\n  swap1\n  0x14\n  tag_3\n  swap3\n  swap2\n  swap1\n  tag_4\n  jump\t// in\ntag_3:\n  pop\n    /* \"Dropsite.sol\":1164:1168  true */\n  0x01\n    /* \"Dropsite.sol\":1141:1168  bool public IsPaused = true */\n  0x0b\n  exp(0x0100, 0x00)\n  dup2\n  sload\n  dup2\n  0xff\n  mul\n  not\n  and\n  swap1\n  dup4\n  iszero\n  iszero\n  mul\n  or\n  swap1\n  sstore\n  pop\n    /* \"Dropsite.sol\":1240:1515  constructor (string memory name){... */\n  callvalue\n  dup1\n  iszero\n  tag_5\n  jumpi\n  0x00\n  dup1\n  revert\ntag_5:\n  pop\n  mload(0x40)\n  sub(codesize, bytecodeSize)\n  dup1\n  bytecodeSize\n  dup4\n  codecopy\n  dup2\n  dup2\n  add\n  0x40\n  mstore\n  dup2\n  add\n  swap1\n  tag_6\n  swap2\n  swap1\n  tag_7\n  jump\t// in\ntag_6:\n    /* \"Dropsite.sol\":1290:1294  name */\n  dup1\n    /* \"Dropsite.sol\":1282:1287  _name */\n  0x0c\n    /* \"Dropsite.sol\":1282:1294  _name = name */\n  swap1\n  dup1\n  mload\n  swap1\n  0x20\n  add\n  swap1\n  tag_10\n  swap3\n  swap2\n  swap1\n  tag_11\n  jump\t// in\ntag_10:\n  pop\n    /* \"Dropsite.sol\":1320:1330  msg.sender */\n  caller\n    /* \"Dropsite.sol\":1304:1309  Owner */\n  0x0b\n  0x01\n    /* \"Dropsite.sol\":1304:1331  Owner = payable(msg.sender) */\n  0x0100\n  exp\n  dup2\n  sload\n  dup2\n  0xffffffffffffffffffffffffffffffffffffffff\n  mul\n  not\n  and\n  swap1\n  dup4\n  0xffffffffffffffffffffffffffffffffffffffff\n  and\n  mul\n  or\n  swap1\n  sstore\n  pop\n    /* \"Dropsite.sol\":1358:1359  0 */\n  0x00\n    /* \"Dropsite.sol\":1342:1357  TotalNFTsMinted */\n  0x04\n    /* \"Dropsite.sol\":1342:1359  TotalNFTsMinted=0 */\n  dup2\n  swap1\n  sstore\n  pop\n    /* \"Dropsite.sol\":1405:1406  1 */\n  0x01\n    /* \"Dropsite.sol\":1393:1404  numOfCopies */\n  0x05\n    /* \"Dropsite.sol\":1393:1406  numOfCopies=1 */\n  dup2\n  swap1\n  sstore\n  pop\n    /* \"Dropsite.sol\":1461:1462  0 */\n  0x00\n    /* \"Dropsite.sol\":1453:1460  Diamond */\n  0x06\n    /* \"Dropsite.sol\":1453:1462  Diamond=0 */\n  dup2\n  swap1\n  sstore\n  pop\n    /* \"Dropsite.sol\":1489:1490  0 */\n  0x00\n    /* \"Dropsite.sol\":1484:1488  Gold */\n  0x07\n    /* \"Dropsite.sol\":1484:1490  Gold=0 */\n  dup2\n  swap1\n  sstore\n  pop\n    /* \"Dropsite.sol\":1507:1508  0 */\n  0x00\n    /* \"Dropsite.sol\":1500:1506  Silver */\n  0x08\n    /* \"Dropsite.sol\":1500:1508  Silver=0 */\n  dup2\n  swap1\n  sstore\n  pop\n    /* \"Dropsite.sol\":1240:1515  constructor (string memory name){... */\n  pop\n    /* \"Dropsite.sol\":122:5096  contract Dropsite is ERC1155_Dropsite  { ... */\n  jump(tag_12)\ntag_2:\n  dup3\n  dup1\n  sload\n  tag_13\n  swap1\n  tag_14\n  jump\t// in\ntag_13:\n  swap1\n  0x00\n  mstore\n  keccak256(0x00, 0x20)\n  swap1\n  0x1f\n  add\n  0x20\n  swap1\n  div\n  dup2\n  add\n  swap3\n  dup3\n  tag_16\n  jumpi\n  0x00\n  dup6\n  sstore\n  jump(tag_15)\ntag_16:\n  dup3\n  0x1f\n  lt\n  tag_17\n  jumpi\n  dup1\n  mload\n  not(0xff)\n  and\n  dup4\n  dup1\n  add\n  or\n  dup6\n  sstore\n  jump(tag_15)\ntag_17:\n  dup3\n  dup1\n  add\n  0x01\n  add\n  dup6\n  sstore\n  dup3\n  iszero\n  tag_15\n  jumpi\n  swap2\n  dup3\n  add\ntag_18:\n  dup3\n  dup2\n  gt\n  iszero\n  tag_19\n  jumpi\n  dup3\n  mload\n  dup3\n  sstore\n  swap2\n  0x20\n  add\n  swap2\n  swap1\n  0x01\n  add\n  swap1\n  jump(tag_18)\ntag_19:\ntag_15:\n  pop\n  swap1\n  pop\n  tag_20\n  swap2\n  swap1\n  tag_21\n  jump\t// in\ntag_20:\n  pop\n  swap1\n  jump\t// out\ntag_4:\n  dup3\n  add(0x1f, 0x14)\n  0x20\n  swap1\n  div\n  dup2\n  add\n  swap3\n  dup3\n  iszero\n  tag_22\n  jumpi\n  swap2\n  0x20\n  mul\n  dup3\n  add\n  0x00\ntag_23:\n  dup4\n  dup3\n  gt\n  iszero\n  tag_24\n  jumpi\n  dup4\n  mload\n  dup4\n  dup3\n  0x0100\n  exp\n  dup2\n  sload\n  dup2\n  0xff\n  mul\n  not\n  and\n  swap1\n  dup4\n  0xff\n  and\n  mul\n  or\n  swap1\n  sstore\n  pop\n  swap3\n  0x20\n  add\n  swap3\n  0x01\n  add\n  0x20\n  dup2\n  0x00\n  add\n  div\n  swap3\n  dup4\n  add\n  swap3\n  0x01\n  sub\n  mul\n  jump(tag_23)\ntag_24:\n  dup1\n  iszero\n  tag_25\n  jumpi\n  dup3\n  dup2\n  0x0100\n  exp\n  dup2\n  sload\n  swap1\n  0xff\n  mul\n  not\n  and\n  swap1\n  sstore\n  0x01\n  add\n  0x20\n  dup2\n  0x00\n  add\n  div\n  swap3\n  dup4\n  add\n  swap3\n  0x01\n  sub\n  mul\n  jump(tag_24)\ntag_25:\n  pop\ntag_22:\n  pop\n  swap1\n  pop\n  tag_26\n  swap2\n  swap1\n  tag_21\n  jump\t// in\ntag_26:\n  pop\n  swap1\n  jump\t// out\ntag_11:\n  dup3\n  dup1\n  sload\n  tag_27\n  swap1\n  tag_14\n  jump\t// in\ntag_27:\n  swap1\n  0x00\n  mstore\n  keccak256(0x00, 0x20)\n  swap1\n  0x1f\n  add\n  0x20\n  swap1\n  div\n  dup2\n  add\n  swap3\n  dup3\n  tag_29\n  jumpi\n  0x00\n  dup6\n  sstore\n  jump(tag_28)\ntag_29:\n  dup3\n  0x1f\n  lt\n  tag_30\n  jumpi\n  dup1\n  mload\n  not(0xff)\n  and\n  dup4\n  dup1\n  add\n  or\n  dup6\n  sstore\n  jump(tag_28)\ntag_30:\n  dup3\n  dup1\n  add\n  0x01\n  add\n  dup6\n  sstore\n  dup3\n  iszero\n  tag_28\n  jumpi\n  swap2\n  dup3\n  add\ntag_31:\n  dup3\n  dup2\n  gt\n  iszero\n  tag_32\n  jumpi\n  dup3\n  mload\n  dup3\n  sstore\n  swap2\n  0x20\n  add\n  swap2\n  swap1\n  0x01\n  add\n  swap1\n  jump(tag_31)\ntag_32:\ntag_28:\n  pop\n  swap1\n  pop\n  tag_33\n  swap2\n  swap1\n  tag_21\n  jump\t// in\ntag_33:\n  pop\n  swap1\n  jump\t// out\ntag_21:\ntag_34:\n  dup1\n  dup3\n  gt\n  iszero\n  tag_35\n  jumpi\n  0x00\n  dup2\n  0x00\n  swap1\n  sstore\n  pop\n  0x01\n  add\n  jump(tag_34)\ntag_35:\n  pop\n  swap1\n  jump\t// out\n    /* \"#utility.yul\":7:428   */\ntag_37:\n    /* \"#utility.yul\":96:101   */\n  0x00\n    /* \"#utility.yul\":121:187   */\n  tag_39\n    /* \"#utility.yul\":137:186   */\n  tag_40\n    /* \"#utility.yul\":179:185   */\n  dup5\n    /* \"#utility.yul\":137:186   */\n  tag_41\n  jump\t// in\ntag_40:\n    /* \"#utility.yul\":121:187   */\n  tag_42\n  jump\t// in\ntag_39:\n    /* \"#utility.yul\":112:187   */\n  swap1\n  pop\n    /* \"#utility.yul\":210:216   */\n  dup3\n    /* \"#utility.yul\":203:208   */\n  dup2\n    /* \"#utility.yul\":196:217   */\n  mstore\n    /* \"#utility.yul\":248:252   */\n  0x20\n    /* \"#utility.yul\":241:246   */\n  dup2\n    /* \"#utility.yul\":237:253   */\n  add\n    /* \"#utility.yul\":286:289   */\n  dup5\n    /* \"#utility.yul\":277:283   */\n  dup5\n    /* \"#utility.yul\":272:275   */\n  dup5\n    /* \"#utility.yul\":268:284   */\n  add\n    /* \"#utility.yul\":265:290   */\n  gt\n    /* \"#utility.yul\":262:374   */\n  iszero\n  tag_43\n  jumpi\n    /* \"#utility.yul\":293:372   */\n  tag_44\n  tag_45\n  jump\t// in\ntag_44:\n    /* \"#utility.yul\":262:374   */\ntag_43:\n    /* \"#utility.yul\":383:422   */\n  tag_46\n    /* \"#utility.yul\":415:421   */\n  dup5\n    /* \"#utility.yul\":410:413   */\n  dup3\n    /* \"#utility.yul\":405:408   */\n  dup6\n    /* \"#utility.yul\":383:422   */\n  tag_47\n  jump\t// in\ntag_46:\n    /* \"#utility.yul\":102:428   */\n  pop\n    /* \"#utility.yul\":7:428   */\n  swap4\n  swap3\n  pop\n  pop\n  pop\n  jump\t// out\n    /* \"#utility.yul\":448:803   */\ntag_48:\n    /* \"#utility.yul\":515:520   */\n  0x00\n    /* \"#utility.yul\":564:567   */\n  dup3\n    /* \"#utility.yul\":557:561   */\n  0x1f\n    /* \"#utility.yul\":549:555   */\n  dup4\n    /* \"#utility.yul\":545:562   */\n  add\n    /* \"#utility.yul\":541:568   */\n  slt\n    /* \"#utility.yul\":531:653   */\n  tag_50\n  jumpi\n    /* \"#utility.yul\":572:651   */\n  tag_51\n  tag_52\n  jump\t// in\ntag_51:\n    /* \"#utility.yul\":531:653   */\ntag_50:\n    /* \"#utility.yul\":682:688   */\n  dup2\n    /* \"#utility.yul\":676:689   */\n  mload\n    /* \"#utility.yul\":707:797   */\n  tag_53\n    /* \"#utility.yul\":793:796   */\n  dup5\n    /* \"#utility.yul\":785:791   */\n  dup3\n    /* \"#utility.yul\":778:782   */\n  0x20\n    /* \"#utility.yul\":770:776   */\n  dup7\n    /* \"#utility.yul\":766:783   */\n  add\n    /* \"#utility.yul\":707:797   */\n  tag_37\n  jump\t// in\ntag_53:\n    /* \"#utility.yul\":698:797   */\n  swap2\n  pop\n    /* \"#utility.yul\":521:803   */\n  pop\n    /* \"#utility.yul\":448:803   */\n  swap3\n  swap2\n  pop\n  pop\n  jump\t// out\n    /* \"#utility.yul\":809:1333   */\ntag_7:\n    /* \"#utility.yul\":889:895   */\n  0x00\n    /* \"#utility.yul\":938:940   */\n  0x20\n    /* \"#utility.yul\":926:935   */\n  dup3\n    /* \"#utility.yul\":917:924   */\n  dup5\n    /* \"#utility.yul\":913:936   */\n  sub\n    /* \"#utility.yul\":909:941   */\n  slt\n    /* \"#utility.yul\":906:1025   */\n  iszero\n  tag_55\n  jumpi\n    /* \"#utility.yul\":944:1023   */\n  tag_56\n  tag_57\n  jump\t// in\ntag_56:\n    /* \"#utility.yul\":906:1025   */\ntag_55:\n    /* \"#utility.yul\":1085:1086   */\n  0x00\n    /* \"#utility.yul\":1074:1083   */\n  dup3\n    /* \"#utility.yul\":1070:1087   */\n  add\n    /* \"#utility.yul\":1064:1088   */\n  mload\n    /* \"#utility.yul\":1115:1133   */\n  0xffffffffffffffff\n    /* \"#utility.yul\":1107:1113   */\n  dup2\n    /* \"#utility.yul\":1104:1134   */\n  gt\n    /* \"#utility.yul\":1101:1218   */\n  iszero\n  tag_58\n  jumpi\n    /* \"#utility.yul\":1137:1216   */\n  tag_59\n  tag_60\n  jump\t// in\ntag_59:\n    /* \"#utility.yul\":1101:1218   */\ntag_58:\n    /* \"#utility.yul\":1242:1316   */\n  tag_61\n    /* \"#utility.yul\":1308:1315   */\n  dup5\n    /* \"#utility.yul\":1299:1305   */\n  dup3\n    /* \"#utility.yul\":1288:1297   */\n  dup6\n    /* \"#utility.yul\":1284:1306   */\n  add\n    /* \"#utility.yul\":1242:1316   */\n  tag_48\n  jump\t// in\ntag_61:\n    /* \"#utility.yul\":1232:1316   */\n  swap2\n  pop\n    /* \"#utility.yul\":1035:1326   */\n  pop\n    /* \"#utility.yul\":809:1333   */\n  swap3\n  swap2\n  pop\n  pop\n  jump\t// out\n    /* \"#utility.yul\":1339:1468   */\ntag_42:\n    /* \"#utility.yul\":1373:1379   */\n  0x00\n    /* \"#utility.yul\":1400:1420   */\n  tag_63\n  tag_64\n  jump\t// in\ntag_63:\n    /* \"#utility.yul\":1390:1420   */\n  swap1\n  pop\n    /* \"#utility.yul\":1429:1462   */\n  tag_65\n    /* \"#utility.yul\":1457:1461   */\n  dup3\n    /* \"#utility.yul\":1449:1455   */\n  dup3\n    /* \"#utility.yul\":1429:1462   */\n  tag_66\n  jump\t// in\ntag_65:\n    /* \"#utility.yul\":1339:1468   */\n  swap2\n  swap1\n  pop\n  jump\t// out\n    /* \"#utility.yul\":1474:1549   */\ntag_64:\n    /* \"#utility.yul\":1507:1513   */\n  0x00\n    /* \"#utility.yul\":1540:1542   */\n  0x40\n    /* \"#utility.yul\":1534:1543   */\n  mload\n    /* \"#utility.yul\":1524:1543   */\n  swap1\n  pop\n    /* \"#utility.yul\":1474:1549   */\n  swap1\n  jump\t// out\n    /* \"#utility.yul\":1555:1863   */\ntag_41:\n    /* \"#utility.yul\":1617:1621   */\n  0x00\n    /* \"#utility.yul\":1707:1725   */\n  0xffffffffffffffff\n    /* \"#utility.yul\":1699:1705   */\n  dup3\n    /* \"#utility.yul\":1696:1726   */\n  gt\n    /* \"#utility.yul\":1693:1749   */\n  iszero\n  tag_69\n  jumpi\n    /* \"#utility.yul\":1729:1747   */\n  tag_70\n  tag_71\n  jump\t// in\ntag_70:\n    /* \"#utility.yul\":1693:1749   */\ntag_69:\n    /* \"#utility.yul\":1767:1796   */\n  tag_72\n    /* \"#utility.yul\":1789:1795   */\n  dup3\n    /* \"#utility.yul\":1767:1796   */\n  tag_73\n  jump\t// in\ntag_72:\n    /* \"#utility.yul\":1759:1796   */\n  swap1\n  pop\n    /* \"#utility.yul\":1851:1855   */\n  0x20\n    /* \"#utility.yul\":1845:1849   */\n  dup2\n    /* \"#utility.yul\":1841:1856   */\n  add\n    /* \"#utility.yul\":1833:1856   */\n  swap1\n  pop\n    /* \"#utility.yul\":1555:1863   */\n  swap2\n  swap1\n  pop\n  jump\t// out\n    /* \"#utility.yul\":1869:2176   */\ntag_47:\n    /* \"#utility.yul\":1937:1938   */\n  0x00\n    /* \"#utility.yul\":1947:2060   */\ntag_75:\n    /* \"#utility.yul\":1961:1967   */\n  dup4\n    /* \"#utility.yul\":1958:1959   */\n  dup2\n    /* \"#utility.yul\":1955:1968   */\n  lt\n    /* \"#utility.yul\":1947:2060   */\n  iszero\n  tag_77\n  jumpi\n    /* \"#utility.yul\":2046:2047   */\n  dup1\n    /* \"#utility.yul\":2041:2044   */\n  dup3\n    /* \"#utility.yul\":2037:2048   */\n  add\n    /* \"#utility.yul\":2031:2049   */\n  mload\n    /* \"#utility.yul\":2027:2028   */\n  dup2\n    /* \"#utility.yul\":2022:2025   */\n  dup5\n    /* \"#utility.yul\":2018:2029   */\n  add\n    /* \"#utility.yul\":2011:2050   */\n  mstore\n    /* \"#utility.yul\":1983:1985   */\n  0x20\n    /* \"#utility.yul\":1980:1981   */\n  dup2\n    /* \"#utility.yul\":1976:1986   */\n  add\n    /* \"#utility.yul\":1971:1986   */\n  swap1\n  pop\n    /* \"#utility.yul\":1947:2060   */\n  jump(tag_75)\ntag_77:\n    /* \"#utility.yul\":2078:2084   */\n  dup4\n    /* \"#utility.yul\":2075:2076   */\n  dup2\n    /* \"#utility.yul\":2072:2085   */\n  gt\n    /* \"#utility.yul\":2069:2170   */\n  iszero\n  tag_78\n  jumpi\n    /* \"#utility.yul\":2158:2159   */\n  0x00\n    /* \"#utility.yul\":2149:2155   */\n  dup5\n    /* \"#utility.yul\":2144:2147   */\n  dup5\n    /* \"#utility.yul\":2140:2156   */\n  add\n    /* \"#utility.yul\":2133:2160   */\n  mstore\n    /* \"#utility.yul\":2069:2170   */\ntag_78:\n    /* \"#utility.yul\":1918:2176   */\n  pop\n    /* \"#utility.yul\":1869:2176   */\n  pop\n  pop\n  pop\n  jump\t// out\n    /* \"#utility.yul\":2182:2502   */\ntag_14:\n    /* \"#utility.yul\":2226:2232   */\n  0x00\n    /* \"#utility.yul\":2263:2264   */\n  0x02\n    /* \"#utility.yul\":2257:2261   */\n  dup3\n    /* \"#utility.yul\":2253:2265   */\n  div\n    /* \"#utility.yul\":2243:2265   */\n  swap1\n  pop\n    /* \"#utility.yul\":2310:2311   */\n  0x01\n    /* \"#utility.yul\":2304:2308   */\n  dup3\n    /* \"#utility.yul\":2300:2312   */\n  and\n    /* \"#utility.yul\":2331:2349   */\n  dup1\n    /* \"#utility.yul\":2321:2402   */\n  tag_80\n  jumpi\n    /* \"#utility.yul\":2387:2391   */\n  0x7f\n    /* \"#utility.yul\":2379:2385   */\n  dup3\n    /* \"#utility.yul\":2375:2392   */\n  and\n    /* \"#utility.yul\":2365:2392   */\n  swap2\n  pop\n    /* \"#utility.yul\":2321:2402   */\ntag_80:\n    /* \"#utility.yul\":2449:2451   */\n  0x20\n    /* \"#utility.yul\":2441:2447   */\n  dup3\n    /* \"#utility.yul\":2438:2452   */\n  lt\n    /* \"#utility.yul\":2418:2436   */\n  dup2\n    /* \"#utility.yul\":2415:2453   */\n  eq\n    /* \"#utility.yul\":2412:2496   */\n  iszero\n  tag_81\n  jumpi\n    /* \"#utility.yul\":2468:2486   */\n  tag_82\n  tag_83\n  jump\t// in\ntag_82:\n    /* \"#utility.yul\":2412:2496   */\ntag_81:\n    /* \"#utility.yul\":2233:2502   */\n  pop\n    /* \"#utility.yul\":2182:2502   */\n  swap2\n  swap1\n  pop\n  jump\t// out\n    /* \"#utility.yul\":2508:2789   */\ntag_66:\n    /* \"#utility.yul\":2591:2618   */\n  tag_85\n    /* \"#utility.yul\":2613:2617   */\n  dup3\n    /* \"#utility.yul\":2591:2618   */\n  tag_73\n  jump\t// in\ntag_85:\n    /* \"#utility.yul\":2583:2589   */\n  dup2\n    /* \"#utility.yul\":2579:2619   */\n  add\n    /* \"#utility.yul\":2721:2727   */\n  dup2\n    /* \"#utility.yul\":2709:2719   */\n  dup2\n    /* \"#utility.yul\":2706:2728   */\n  lt\n    /* \"#utility.yul\":2685:2703   */\n  0xffffffffffffffff\n    /* \"#utility.yul\":2673:2683   */\n  dup3\n    /* \"#utility.yul\":2670:2704   */\n  gt\n    /* \"#utility.yul\":2667:2729   */\n  or\n    /* \"#utility.yul\":2664:2752   */\n  iszero\n  tag_86\n  jumpi\n    /* \"#utility.yul\":2732:2750   */\n  tag_87\n  tag_71\n  jump\t// in\ntag_87:\n    /* \"#utility.yul\":2664:2752   */\ntag_86:\n    /* \"#utility.yul\":2772:2782   */\n  dup1\n    /* \"#utility.yul\":2768:2770   */\n  0x40\n    /* \"#utility.yul\":2761:2783   */\n  mstore\n    /* \"#utility.yul\":2551:2789   */\n  pop\n    /* \"#utility.yul\":2508:2789   */\n  pop\n  pop\n  jump\t// out\n    /* \"#utility.yul\":2795:2975   */\ntag_83:\n    /* \"#utility.yul\":2843:2920   */\n  0x4e487b7100000000000000000000000000000000000000000000000000000000\n    /* \"#utility.yul\":2840:2841   */\n  0x00\n    /* \"#utility.yul\":2833:2921   */\n  mstore\n    /* \"#utility.yul\":2940:2944   */\n  0x22\n    /* \"#utility.yul\":2937:2938   */\n  0x04\n    /* \"#utility.yul\":2930:2945   */\n  mstore\n    /* \"#utility.yul\":2964:2968   */\n  0x24\n    /* \"#utility.yul\":2961:2962   */\n  0x00\n    /* \"#utility.yul\":2954:2969   */\n  revert\n    /* \"#utility.yul\":2981:3161   */\ntag_71:\n    /* \"#utility.yul\":3029:3106   */\n  0x4e487b7100000000000000000000000000000000000000000000000000000000\n    /* \"#utility.yul\":3026:3027   */\n  0x00\n    /* \"#utility.yul\":3019:3107   */\n  mstore\n    /* \"#utility.yul\":3126:3130   */\n  0x41\n    /* \"#utility.yul\":3123:3124   */\n  0x04\n    /* \"#utility.yul\":3116:3131   */\n  mstore\n    /* \"#utility.yul\":3150:3154   */\n  0x24\n    /* \"#utility.yul\":3147:3148   */\n  0x00\n    /* \"#utility.yul\":3140:3155   */\n  revert\n    /* \"#utility.yul\":3167:3284   */\ntag_52:\n    /* \"#utility.yul\":3276:3277   */\n  0x00\n    /* \"#utility.yul\":3273:3274   */\n  dup1\n    /* \"#utility.yul\":3266:3278   */\n  revert\n    /* \"#utility.yul\":3290:3407   */\ntag_45:\n    /* \"#utility.yul\":3399:3400   */\n  0x00\n    /* \"#utility.yul\":3396:3397   */\n  dup1\n    /* \"#utility.yul\":3389:3401   */\n  revert\n    /* \"#utility.yul\":3413:3530   */\ntag_60:\n    /* \"#utility.yul\":3522:3523   */\n  0x00\n    /* \"#utility.yul\":3519:3520   */\n  dup1\n    /* \"#utility.yul\":3512:3524   */\n  revert\n    /* \"#utility.yul\":3536:3653   */\ntag_57:\n    /* \"#utility.yul\":3645:3646   */\n  0x00\n    /* \"#utility.yul\":3642:3643   */\n  dup1\n    /* \"#utility.yul\":3635:3647   */\n  revert\n    /* \"#utility.yul\":3659:3761   */\ntag_73:\n    /* \"#utility.yul\":3700:3706   */\n  0x00\n    /* \"#utility.yul\":3751:3753   */\n  0x1f\n    /* \"#utility.yul\":3747:3754   */\n  not\n    /* \"#utility.yul\":3742:3744   */\n  0x1f\n    /* \"#utility.yul\":3735:3740   */\n  dup4\n    /* \"#utility.yul\":3731:3745   */\n  add\n    /* \"#utility.yul\":3727:3755   */\n  and\n    /* \"#utility.yul\":3717:3755   */\n  swap1\n  pop\n    /* \"#utility.yul\":3659:3761   */\n  swap2\n  swap1\n  pop\n  jump\t// out\n    /* \"Dropsite.sol\":122:5096  contract Dropsite is ERC1155_Dropsite  { ... */\ntag_12:\n  dataSize(sub_0)\n  dup1\n  dataOffset(sub_0)\n  0x00\n  codecopy\n  0x00\n  return\nstop\n\nsub_0: assembly {\n        /* \"Dropsite.sol\":122:5096  contract Dropsite is ERC1155_Dropsite  { ... */\n      mstore(0x40, 0x80)\n      jumpi(tag_1, lt(calldatasize, 0x04))\n      shr(0xe0, calldataload(0x00))\n      dup1\n      0x3b668059\n      gt\n      tag_13\n      jumpi\n      dup1\n      0x3b668059\n      eq\n      tag_7\n      jumpi\n      dup1\n      0x3d65df70\n      eq\n      tag_8\n      jumpi\n      dup1\n      0x60daa851\n      eq\n      tag_9\n      jumpi\n      dup1\n      0xaa90c726\n      eq\n      tag_10\n      jumpi\n      dup1\n      0xb4a99a4e\n      eq\n      tag_11\n      jumpi\n      dup1\n      0xfd6c3b1b\n      eq\n      tag_12\n      jumpi\n      jump(tag_1)\n    tag_13:\n      dup1\n      0x0390c11c\n      eq\n      tag_2\n      jumpi\n      dup1\n      0x0a67d2c7\n      eq\n      tag_3\n      jumpi\n      dup1\n      0x1309a563\n      eq\n      tag_4\n      jumpi\n      dup1\n      0x15460259\n      eq\n      tag_5\n      jumpi\n      dup1\n      0x32b61b4c\n      eq\n      tag_6\n      jumpi\n    tag_1:\n      0x00\n      dup1\n      revert\n        /* \"Dropsite.sol\":1659:1763  function checkTotalMinted() public view OnlyOwner returns(uint){... */\n    tag_2:\n      callvalue\n      dup1\n      iszero\n      tag_14\n      jumpi\n      0x00\n      dup1\n      revert\n    tag_14:\n      pop\n      tag_15\n      tag_16\n      jump\t// in\n    tag_15:\n      mload(0x40)\n      tag_17\n      swap2\n      swap1\n      tag_18\n      jump\t// in\n    tag_17:\n      mload(0x40)\n      dup1\n      swap2\n      sub\n      swap1\n      return\n        /* \"Dropsite.sol\":2121:2335  function withDraw(address payable to) public payable OnlyOwner {... */\n    tag_3:\n      tag_19\n      0x04\n      dup1\n      calldatasize\n      sub\n      dup2\n      add\n      swap1\n      tag_20\n      swap2\n      swap1\n      tag_21\n      jump\t// in\n    tag_20:\n      tag_22\n      jump\t// in\n    tag_19:\n      stop\n        /* \"Dropsite.sol\":1141:1168  bool public IsPaused = true */\n    tag_4:\n      callvalue\n      dup1\n      iszero\n      tag_23\n      jumpi\n      0x00\n      dup1\n      revert\n    tag_23:\n      pop\n      tag_24\n      tag_25\n      jump\t// in\n    tag_24:\n      mload(0x40)\n      tag_26\n      swap2\n      swap1\n      tag_27\n      jump\t// in\n    tag_26:\n      mload(0x40)\n      dup1\n      swap2\n      sub\n      swap1\n      return\n        /* \"Dropsite.sol\":1911:2047  function openDropsite() public OnlyOwner {... */\n    tag_5:\n      callvalue\n      dup1\n      iszero\n      tag_28\n      jumpi\n      0x00\n      dup1\n      revert\n    tag_28:\n      pop\n      tag_29\n      tag_30\n      jump\t// in\n    tag_29:\n      stop\n        /* \"Dropsite.sol\":3883:4329  function FiatRandomMint(address user_addr) OnlyOwner contractIsNotPaused public returns (uint,string memory) {... */\n    tag_6:\n      callvalue\n      dup1\n      iszero\n      tag_31\n      jumpi\n      0x00\n      dup1\n      revert\n    tag_31:\n      pop\n      tag_32\n      0x04\n      dup1\n      calldatasize\n      sub\n      dup2\n      add\n      swap1\n      tag_33\n      swap2\n      swap1\n      tag_34\n      jump\t// in\n    tag_33:\n      tag_35\n      jump\t// in\n    tag_32:\n      mload(0x40)\n      tag_36\n      swap3\n      swap2\n      swap1\n      tag_37\n      jump\t// in\n    tag_36:\n      mload(0x40)\n      dup1\n      swap2\n      sub\n      swap1\n      return\n        /* \"Dropsite.sol\":2388:2496  function ContractBalance() public view OnlyOwner returns (uint){... */\n    tag_7:\n      callvalue\n      dup1\n      iszero\n      tag_38\n      jumpi\n      0x00\n      dup1\n      revert\n    tag_38:\n      pop\n      tag_39\n      tag_40\n      jump\t// in\n    tag_39:\n      mload(0x40)\n      tag_41\n      swap2\n      swap1\n      tag_18\n      jump\t// in\n    tag_41:\n      mload(0x40)\n      dup1\n      swap2\n      sub\n      swap1\n      return\n        /* \"Dropsite.sol\":4506:5094  function CryptoRandomMint(address user_addr)  contractIsNotPaused public payable returns (uint,string memory) {... */\n    tag_8:\n      tag_42\n      0x04\n      dup1\n      calldatasize\n      sub\n      dup2\n      add\n      swap1\n      tag_43\n      swap2\n      swap1\n      tag_34\n      jump\t// in\n    tag_43:\n      tag_44\n      jump\t// in\n    tag_42:\n      mload(0x40)\n      tag_45\n      swap3\n      swap2\n      swap1\n      tag_37\n      jump\t// in\n    tag_45:\n      mload(0x40)\n      dup1\n      swap2\n      sub\n      swap1\n      return\n        /* \"Dropsite.sol\":1527:1654  function checkMintedCategoryWise() public view OnlyOwner returns(uint,uint,uint){... */\n    tag_9:\n      callvalue\n      dup1\n      iszero\n      tag_46\n      jumpi\n      0x00\n      dup1\n      revert\n    tag_46:\n      pop\n      tag_47\n      tag_48\n      jump\t// in\n    tag_47:\n      mload(0x40)\n      tag_49\n      swap4\n      swap3\n      swap2\n      swap1\n      tag_50\n      jump\t// in\n    tag_49:\n      mload(0x40)\n      dup1\n      swap2\n      sub\n      swap1\n      return\n        /* \"Dropsite.sol\":1769:1904  function stopDropsite() public OnlyOwner{... */\n    tag_10:\n      callvalue\n      dup1\n      iszero\n      tag_51\n      jumpi\n      0x00\n      dup1\n      revert\n    tag_51:\n      pop\n      tag_52\n      tag_53\n      jump\t// in\n    tag_52:\n      stop\n        /* \"Dropsite.sol\":1174:1203  address payable public  Owner */\n    tag_11:\n      callvalue\n      dup1\n      iszero\n      tag_54\n      jumpi\n      0x00\n      dup1\n      revert\n    tag_54:\n      pop\n      tag_55\n      tag_56\n      jump\t// in\n    tag_55:\n      mload(0x40)\n      tag_57\n      swap2\n      swap1\n      tag_58\n      jump\t// in\n    tag_57:\n      mload(0x40)\n      dup1\n      swap2\n      sub\n      swap1\n      return\n        /* \"Dropsite.sol\":654:792  function returnOwner(address addr) public view returns (uint[] memory){... */\n    tag_12:\n      callvalue\n      dup1\n      iszero\n      tag_59\n      jumpi\n      0x00\n      dup1\n      revert\n    tag_59:\n      pop\n      tag_60\n      0x04\n      dup1\n      calldatasize\n      sub\n      dup2\n      add\n      swap1\n      tag_61\n      swap2\n      swap1\n      tag_34\n      jump\t// in\n    tag_61:\n      tag_62\n      jump\t// in\n    tag_60:\n      mload(0x40)\n      tag_63\n      swap2\n      swap1\n      tag_64\n      jump\t// in\n    tag_63:\n      mload(0x40)\n      dup1\n      swap2\n      sub\n      swap1\n      return\n        /* \"Dropsite.sol\":1659:1763  function checkTotalMinted() public view OnlyOwner returns(uint){... */\n    tag_16:\n        /* \"Dropsite.sol\":1717:1721  uint */\n      0x00\n        /* \"Dropsite.sol\":913:918  Owner */\n      0x0b\n      0x01\n      swap1\n      sload\n      swap1\n      0x0100\n      exp\n      swap1\n      div\n      0xffffffffffffffffffffffffffffffffffffffff\n      and\n        /* \"Dropsite.sol\":897:918  _msgSender() == Owner */\n      0xffffffffffffffffffffffffffffffffffffffff\n      and\n        /* \"Dropsite.sol\":897:909  _msgSender() */\n      tag_66\n        /* \"Dropsite.sol\":897:907  _msgSender */\n      tag_67\n        /* \"Dropsite.sol\":897:909  _msgSender() */\n      jump\t// in\n    tag_66:\n        /* \"Dropsite.sol\":897:918  _msgSender() == Owner */\n      0xffffffffffffffffffffffffffffffffffffffff\n      and\n      eq\n        /* \"Dropsite.sol\":889:951  require(_msgSender() == Owner, \"Only NFT-ES Owner can Access\") */\n      tag_68\n      jumpi\n      mload(0x40)\n      0x08c379a000000000000000000000000000000000000000000000000000000000\n      dup2\n      mstore\n      0x04\n      add\n      tag_69\n      swap1\n      tag_70\n      jump\t// in\n    tag_69:\n      mload(0x40)\n      dup1\n      swap2\n      sub\n      swap1\n      revert\n    tag_68:\n        /* \"Dropsite.sol\":1740:1755  TotalNFTsMinted */\n      sload(0x04)\n        /* \"Dropsite.sol\":1733:1755  return TotalNFTsMinted */\n      swap1\n      pop\n        /* \"Dropsite.sol\":1659:1763  function checkTotalMinted() public view OnlyOwner returns(uint){... */\n      swap1\n      jump\t// out\n        /* \"Dropsite.sol\":2121:2335  function withDraw(address payable to) public payable OnlyOwner {... */\n    tag_22:\n        /* \"Dropsite.sol\":913:918  Owner */\n      0x0b\n      0x01\n      swap1\n      sload\n      swap1\n      0x0100\n      exp\n      swap1\n      div\n      0xffffffffffffffffffffffffffffffffffffffff\n      and\n        /* \"Dropsite.sol\":897:918  _msgSender() == Owner */\n      0xffffffffffffffffffffffffffffffffffffffff\n      and\n        /* \"Dropsite.sol\":897:909  _msgSender() */\n      tag_73\n        /* \"Dropsite.sol\":897:907  _msgSender */\n      tag_67\n        /* \"Dropsite.sol\":897:909  _msgSender() */\n      jump\t// in\n    tag_73:\n        /* \"Dropsite.sol\":897:918  _msgSender() == Owner */\n      0xffffffffffffffffffffffffffffffffffffffff\n      and\n      eq\n        /* \"Dropsite.sol\":889:951  require(_msgSender() == Owner, \"Only NFT-ES Owner can Access\") */\n      tag_74\n      jumpi\n      mload(0x40)\n      0x08c379a000000000000000000000000000000000000000000000000000000000\n      dup2\n      mstore\n      0x04\n      add\n      tag_75\n      swap1\n      tag_70\n      jump\t// in\n    tag_75:\n      mload(0x40)\n      dup1\n      swap2\n      sub\n      swap1\n      revert\n    tag_74:\n        /* \"Dropsite.sol\":2194:2206  uint Balance */\n      0x00\n        /* \"Dropsite.sol\":2209:2230  address(this).balance */\n      selfbalance\n        /* \"Dropsite.sol\":2194:2230  uint Balance = address(this).balance */\n      swap1\n      pop\n        /* \"Dropsite.sol\":2258:2263  0 wei */\n      0x00\n        /* \"Dropsite.sol\":2248:2255  Balance */\n      dup2\n        /* \"Dropsite.sol\":2248:2263  Balance > 0 wei */\n      gt\n        /* \"Dropsite.sol\":2240:2297  require(Balance > 0 wei, \"Error! No Balance to withdraw\") */\n      tag_77\n      jumpi\n      mload(0x40)\n      0x08c379a000000000000000000000000000000000000000000000000000000000\n      dup2\n      mstore\n      0x04\n      add\n      tag_78\n      swap1\n      tag_79\n      jump\t// in\n    tag_78:\n      mload(0x40)\n      dup1\n      swap2\n      sub\n      swap1\n      revert\n    tag_77:\n        /* \"Dropsite.sol\":2308:2310  to */\n      dup2\n        /* \"Dropsite.sol\":2308:2319  to.transfer */\n      0xffffffffffffffffffffffffffffffffffffffff\n      and\n        /* \"Dropsite.sol\":2308:2328  to.transfer(Balance) */\n      0x08fc\n        /* \"Dropsite.sol\":2320:2327  Balance */\n      dup3\n        /* \"Dropsite.sol\":2308:2328  to.transfer(Balance) */\n      swap1\n      dup2\n      iszero\n      mul\n      swap1\n      mload(0x40)\n      0x00\n      mload(0x40)\n      dup1\n      dup4\n      sub\n      dup2\n      dup6\n      dup9\n      dup9\n      call\n      swap4\n      pop\n      pop\n      pop\n      pop\n      iszero\n      dup1\n      iszero\n      tag_81\n      jumpi\n      returndatasize\n      0x00\n      dup1\n      returndatacopy\n      revert(0x00, returndatasize)\n    tag_81:\n      pop\n        /* \"Dropsite.sol\":2184:2335  {... */\n      pop\n        /* \"Dropsite.sol\":2121:2335  function withDraw(address payable to) public payable OnlyOwner {... */\n      pop\n      jump\t// out\n        /* \"Dropsite.sol\":1141:1168  bool public IsPaused = true */\n    tag_25:\n      0x0b\n      0x00\n      swap1\n      sload\n      swap1\n      0x0100\n      exp\n      swap1\n      div\n      0xff\n      and\n      dup2\n      jump\t// out\n        /* \"Dropsite.sol\":1911:2047  function openDropsite() public OnlyOwner {... */\n    tag_30:\n        /* \"Dropsite.sol\":913:918  Owner */\n      0x0b\n      0x01\n      swap1\n      sload\n      swap1\n      0x0100\n      exp\n      swap1\n      div\n      0xffffffffffffffffffffffffffffffffffffffff\n      and\n        /* \"Dropsite.sol\":897:918  _msgSender() == Owner */\n      0xffffffffffffffffffffffffffffffffffffffff\n      and\n        /* \"Dropsite.sol\":897:909  _msgSender() */\n      tag_83\n        /* \"Dropsite.sol\":897:907  _msgSender */\n      tag_67\n        /* \"Dropsite.sol\":897:909  _msgSender() */\n      jump\t// in\n    tag_83:\n        /* \"Dropsite.sol\":897:918  _msgSender() == Owner */\n      0xffffffffffffffffffffffffffffffffffffffff\n      and\n      eq\n        /* \"Dropsite.sol\":889:951  require(_msgSender() == Owner, \"Only NFT-ES Owner can Access\") */\n      tag_84\n      jumpi\n      mload(0x40)\n      0x08c379a000000000000000000000000000000000000000000000000000000000\n      dup2\n      mstore\n      0x04\n      add\n      tag_85\n      swap1\n      tag_70\n      jump\t// in\n    tag_85:\n      mload(0x40)\n      dup1\n      swap2\n      sub\n      swap1\n      revert\n    tag_84:\n        /* \"Dropsite.sol\":1980:1984  true */\n      0x01\n        /* \"Dropsite.sol\":1970:1984  IsPaused==true */\n      iszero\n      iszero\n        /* \"Dropsite.sol\":1970:1978  IsPaused */\n      0x0b\n      0x00\n      swap1\n      sload\n      swap1\n      0x0100\n      exp\n      swap1\n      div\n      0xff\n      and\n        /* \"Dropsite.sol\":1970:1984  IsPaused==true */\n      iszero\n      iszero\n      eq\n        /* \"Dropsite.sol\":1962:2016  require(IsPaused==true, \"Dropsite is already Running\") */\n      tag_87\n      jumpi\n      mload(0x40)\n      0x08c379a000000000000000000000000000000000000000000000000000000000\n      dup2\n      mstore\n      0x04\n      add\n      tag_88\n      swap1\n      tag_89\n      jump\t// in\n    tag_88:\n      mload(0x40)\n      dup1\n      swap2\n      sub\n      swap1\n      revert\n    tag_87:\n        /* \"Dropsite.sol\":2035:2040  false */\n      0x00\n        /* \"Dropsite.sol\":2026:2034  IsPaused */\n      0x0b\n      0x00\n        /* \"Dropsite.sol\":2026:2040  IsPaused=false */\n      0x0100\n      exp\n      dup2\n      sload\n      dup2\n      0xff\n      mul\n      not\n      and\n      swap1\n      dup4\n      iszero\n      iszero\n      mul\n      or\n      swap1\n      sstore\n      pop\n        /* \"Dropsite.sol\":1911:2047  function openDropsite() public OnlyOwner {... */\n      jump\t// out\n        /* \"Dropsite.sol\":3883:4329  function FiatRandomMint(address user_addr) OnlyOwner contractIsNotPaused public returns (uint,string memory) {... */\n    tag_35:\n        /* \"Dropsite.sol\":3972:3976  uint */\n      0x00\n        /* \"Dropsite.sol\":3977:3990  string memory */\n      0x60\n        /* \"Dropsite.sol\":913:918  Owner */\n      0x0b\n      0x01\n      swap1\n      sload\n      swap1\n      0x0100\n      exp\n      swap1\n      div\n      0xffffffffffffffffffffffffffffffffffffffff\n      and\n        /* \"Dropsite.sol\":897:918  _msgSender() == Owner */\n      0xffffffffffffffffffffffffffffffffffffffff\n      and\n        /* \"Dropsite.sol\":897:909  _msgSender() */\n      tag_91\n        /* \"Dropsite.sol\":897:907  _msgSender */\n      tag_67\n        /* \"Dropsite.sol\":897:909  _msgSender() */\n      jump\t// in\n    tag_91:\n        /* \"Dropsite.sol\":897:918  _msgSender() == Owner */\n      0xffffffffffffffffffffffffffffffffffffffff\n      and\n      eq\n        /* \"Dropsite.sol\":889:951  require(_msgSender() == Owner, \"Only NFT-ES Owner can Access\") */\n      tag_92\n      jumpi\n      mload(0x40)\n      0x08c379a000000000000000000000000000000000000000000000000000000000\n      dup2\n      mstore\n      0x04\n      add\n      tag_93\n      swap1\n      tag_70\n      jump\t// in\n    tag_93:\n      mload(0x40)\n      dup1\n      swap2\n      sub\n      swap1\n      revert\n    tag_92:\n        /* \"Dropsite.sol\":1078:1083  false */\n      0x00\n        /* \"Dropsite.sol\":1066:1083  IsPaused == false */\n      iszero\n      iszero\n        /* \"Dropsite.sol\":1066:1074  IsPaused */\n      0x0b\n      0x00\n      swap1\n      sload\n      swap1\n      0x0100\n      exp\n      swap1\n      div\n      0xff\n      and\n        /* \"Dropsite.sol\":1066:1083  IsPaused == false */\n      iszero\n      iszero\n      eq\n        /* \"Dropsite.sol\":1057:1116  require (IsPaused == false, \"Dropsite is not Opened Yet.\" ) */\n      tag_95\n      jumpi\n      mload(0x40)\n      0x08c379a000000000000000000000000000000000000000000000000000000000\n      dup2\n      mstore\n      0x04\n      add\n      tag_96\n      swap1\n      tag_97\n      jump\t// in\n    tag_96:\n      mload(0x40)\n      dup1\n      swap2\n      sub\n      swap1\n      revert\n    tag_95:\n        /* \"Dropsite.sol\":4023:4027  1000 */\n      0x03e8\n        /* \"Dropsite.sol\":4007:4022  TotalNFTsMinted */\n      sload(0x04)\n        /* \"Dropsite.sol\":4007:4027  TotalNFTsMinted<1000 */\n      lt\n        /* \"Dropsite.sol\":3999:4057  require(TotalNFTsMinted<1000, \"Max Minting Limit reached\") */\n      tag_99\n      jumpi\n      mload(0x40)\n      0x08c379a000000000000000000000000000000000000000000000000000000000\n      dup2\n      mstore\n      0x04\n      add\n      tag_100\n      swap1\n      tag_101\n      jump\t// in\n    tag_100:\n      mload(0x40)\n      dup1\n      swap2\n      sub\n      swap1\n      revert\n    tag_99:\n        /* \"Dropsite.sol\":4120:4130  uint nftId */\n      0x00\n        /* \"Dropsite.sol\":4133:4151  updateConditions() */\n      tag_102\n        /* \"Dropsite.sol\":4133:4149  updateConditions */\n      tag_103\n        /* \"Dropsite.sol\":4133:4151  updateConditions() */\n      jump\t// in\n    tag_102:\n        /* \"Dropsite.sol\":4120:4151  uint nftId = updateConditions() */\n      swap1\n      pop\n        /* \"Dropsite.sol\":4157:4199  _mint(user_addr, nftId, numOfCopies, data) */\n      tag_104\n        /* \"Dropsite.sol\":4163:4172  user_addr */\n      dup5\n        /* \"Dropsite.sol\":4174:4179  nftId */\n      dup3\n        /* \"Dropsite.sol\":4181:4192  numOfCopies */\n      sload(0x05)\n        /* \"Dropsite.sol\":4194:4198  data */\n      0x02\n        /* \"Dropsite.sol\":4157:4199  _mint(user_addr, nftId, numOfCopies, data) */\n      dup1\n      sload\n      tag_105\n      swap1\n      tag_106\n      jump\t// in\n    tag_105:\n      dup1\n      0x1f\n      add\n      0x20\n      dup1\n      swap2\n      div\n      mul\n      0x20\n      add\n      mload(0x40)\n      swap1\n      dup2\n      add\n      0x40\n      mstore\n      dup1\n      swap3\n      swap2\n      swap1\n      dup2\n      dup2\n      mstore\n      0x20\n      add\n      dup3\n      dup1\n      sload\n      tag_107\n      swap1\n      tag_106\n      jump\t// in\n    tag_107:\n      dup1\n      iszero\n      tag_108\n      jumpi\n      dup1\n      0x1f\n      lt\n      tag_109\n      jumpi\n      0x0100\n      dup1\n      dup4\n      sload\n      div\n      mul\n      dup4\n      mstore\n      swap2\n      0x20\n      add\n      swap2\n      jump(tag_108)\n    tag_109:\n      dup3\n      add\n      swap2\n      swap1\n      0x00\n      mstore\n      keccak256(0x00, 0x20)\n      swap1\n    tag_110:\n      dup2\n      sload\n      dup2\n      mstore\n      swap1\n      0x01\n      add\n      swap1\n      0x20\n      add\n      dup1\n      dup4\n      gt\n      tag_110\n      jumpi\n      dup3\n      swap1\n      sub\n      0x1f\n      and\n      dup3\n      add\n      swap2\n    tag_108:\n      pop\n      pop\n      pop\n      pop\n      pop\n        /* \"Dropsite.sol\":4157:4162  _mint */\n      tag_111\n        /* \"Dropsite.sol\":4157:4199  _mint(user_addr, nftId, numOfCopies, data) */\n      jump\t// in\n    tag_104:\n        /* \"Dropsite.sol\":4205:4220  TotalNFTsMinted */\n      0x04\n      0x00\n        /* \"Dropsite.sol\":4205:4222  TotalNFTsMinted++ */\n      dup2\n      sload\n      dup1\n      swap3\n      swap2\n      swap1\n      tag_112\n      swap1\n      tag_113\n      jump\t// in\n    tag_112:\n      swap2\n      swap1\n      pop\n      sstore\n      pop\n        /* \"Dropsite.sol\":4228:4246  dropsite_NFT_Owner */\n      0x09\n        /* \"Dropsite.sol\":4228:4257  dropsite_NFT_Owner[user_addr] */\n      0x00\n        /* \"Dropsite.sol\":4247:4256  user_addr */\n      dup6\n        /* \"Dropsite.sol\":4228:4257  dropsite_NFT_Owner[user_addr] */\n      0xffffffffffffffffffffffffffffffffffffffff\n      and\n      0xffffffffffffffffffffffffffffffffffffffff\n      and\n      dup2\n      mstore\n      0x20\n      add\n      swap1\n      dup2\n      mstore\n      0x20\n      add\n      0x00\n      keccak256\n        /* \"Dropsite.sol\":4228:4277  dropsite_NFT_Owner[user_addr].owned_Dropsite_NFTs */\n      0x00\n      add\n        /* \"Dropsite.sol\":4283:4288  nftId */\n      dup2\n        /* \"Dropsite.sol\":4228:4289  dropsite_NFT_Owner[user_addr].owned_Dropsite_NFTs.push(nftId) */\n      swap1\n      dup1\n      0x01\n      dup2\n      sload\n      add\n      dup1\n      dup3\n      sstore\n      dup1\n      swap2\n      pop\n      pop\n      0x01\n      swap1\n      sub\n      swap1\n      0x00\n      mstore\n      keccak256(0x00, 0x20)\n      add\n      0x00\n      swap1\n      swap2\n      swap1\n      swap2\n      swap1\n      swap2\n      pop\n      sstore\n        /* \"Dropsite.sol\":4303:4308  nftId */\n      dup1\n        /* \"Dropsite.sol\":4316:4320  data */\n      0x02\n        /* \"Dropsite.sol\":4295:4322  return (nftId,string(data)) */\n      dup1\n      dup1\n      sload\n      tag_115\n      swap1\n      tag_106\n      jump\t// in\n    tag_115:\n      dup1\n      0x1f\n      add\n      0x20\n      dup1\n      swap2\n      div\n      mul\n      0x20\n      add\n      mload(0x40)\n      swap1\n      dup2\n      add\n      0x40\n      mstore\n      dup1\n      swap3\n      swap2\n      swap1\n      dup2\n      dup2\n      mstore\n      0x20\n      add\n      dup3\n      dup1\n      sload\n      tag_116\n      swap1\n      tag_106\n      jump\t// in\n    tag_116:\n      dup1\n      iszero\n      tag_117\n      jumpi\n      dup1\n      0x1f\n      lt\n      tag_118\n      jumpi\n      0x0100\n      dup1\n      dup4\n      sload\n      div\n      mul\n      dup4\n      mstore\n      swap2\n      0x20\n      add\n      swap2\n      jump(tag_117)\n    tag_118:\n      dup3\n      add\n      swap2\n      swap1\n      0x00\n      mstore\n      keccak256(0x00, 0x20)\n      swap1\n    tag_119:\n      dup2\n      sload\n      dup2\n      mstore\n      swap1\n      0x01\n      add\n      swap1\n      0x20\n      add\n      dup1\n      dup4\n      gt\n      tag_119\n      jumpi\n      dup3\n      swap1\n      sub\n      0x1f\n      and\n      dup3\n      add\n      swap2\n    tag_117:\n      pop\n      pop\n      pop\n      pop\n      pop\n      swap1\n      pop\n      swap3\n      pop\n      swap3\n      pop\n      pop\n        /* \"Dropsite.sol\":3883:4329  function FiatRandomMint(address user_addr) OnlyOwner contractIsNotPaused public returns (uint,string memory) {... */\n      swap2\n      pop\n      swap2\n      jump\t// out\n        /* \"Dropsite.sol\":2388:2496  function ContractBalance() public view OnlyOwner returns (uint){... */\n    tag_40:\n        /* \"Dropsite.sol\":2446:2450  uint */\n      0x00\n        /* \"Dropsite.sol\":913:918  Owner */\n      0x0b\n      0x01\n      swap1\n      sload\n      swap1\n      0x0100\n      exp\n      swap1\n      div\n      0xffffffffffffffffffffffffffffffffffffffff\n      and\n        /* \"Dropsite.sol\":897:918  _msgSender() == Owner */\n      0xffffffffffffffffffffffffffffffffffffffff\n      and\n        /* \"Dropsite.sol\":897:909  _msgSender() */\n      tag_121\n        /* \"Dropsite.sol\":897:907  _msgSender */\n      tag_67\n        /* \"Dropsite.sol\":897:909  _msgSender() */\n      jump\t// in\n    tag_121:\n        /* \"Dropsite.sol\":897:918  _msgSender() == Owner */\n      0xffffffffffffffffffffffffffffffffffffffff\n      and\n      eq\n        /* \"Dropsite.sol\":889:951  require(_msgSender() == Owner, \"Only NFT-ES Owner can Access\") */\n      tag_122\n      jumpi\n      mload(0x40)\n      0x08c379a000000000000000000000000000000000000000000000000000000000\n      dup2\n      mstore\n      0x04\n      add\n      tag_123\n      swap1\n      tag_70\n      jump\t// in\n    tag_123:\n      mload(0x40)\n      dup1\n      swap2\n      sub\n      swap1\n      revert\n    tag_122:\n        /* \"Dropsite.sol\":2468:2489  address(this).balance */\n      selfbalance\n        /* \"Dropsite.sol\":2461:2489  return address(this).balance */\n      swap1\n      pop\n        /* \"Dropsite.sol\":2388:2496  function ContractBalance() public view OnlyOwner returns (uint){... */\n      swap1\n      jump\t// out\n        /* \"Dropsite.sol\":4506:5094  function CryptoRandomMint(address user_addr)  contractIsNotPaused public payable returns (uint,string memory) {... */\n    tag_44:\n        /* \"Dropsite.sol\":4596:4600  uint */\n      0x00\n        /* \"Dropsite.sol\":4601:4614  string memory */\n      0x60\n        /* \"Dropsite.sol\":1078:1083  false */\n      0x00\n        /* \"Dropsite.sol\":1066:1083  IsPaused == false */\n      iszero\n      iszero\n        /* \"Dropsite.sol\":1066:1074  IsPaused */\n      0x0b\n      0x00\n      swap1\n      sload\n      swap1\n      0x0100\n      exp\n      swap1\n      div\n      0xff\n      and\n        /* \"Dropsite.sol\":1066:1083  IsPaused == false */\n      iszero\n      iszero\n      eq\n        /* \"Dropsite.sol\":1057:1116  require (IsPaused == false, \"Dropsite is not Opened Yet.\" ) */\n      tag_126\n      jumpi\n      mload(0x40)\n      0x08c379a000000000000000000000000000000000000000000000000000000000\n      dup2\n      mstore\n      0x04\n      add\n      tag_127\n      swap1\n      tag_97\n      jump\t// in\n    tag_127:\n      mload(0x40)\n      dup1\n      swap2\n      sub\n      swap1\n      revert\n    tag_126:\n        /* \"Dropsite.sol\":4647:4651  1000 */\n      0x03e8\n        /* \"Dropsite.sol\":4631:4646  TotalNFTsMinted */\n      sload(0x04)\n        /* \"Dropsite.sol\":4631:4651  TotalNFTsMinted<1000 */\n      lt\n        /* \"Dropsite.sol\":4623:4681  require(TotalNFTsMinted<1000, \"Max Minting Limit reached\") */\n      tag_129\n      jumpi\n      mload(0x40)\n      0x08c379a000000000000000000000000000000000000000000000000000000000\n      dup2\n      mstore\n      0x04\n      add\n      tag_130\n      swap1\n      tag_101\n      jump\t// in\n    tag_130:\n      mload(0x40)\n      dup1\n      swap2\n      sub\n      swap1\n      revert\n    tag_129:\n        /* \"Dropsite.sol\":4710:4730  25000000000000000000 */\n      0x015af1d78b58c40000\n        /* \"Dropsite.sol\":4696:4705  msg.value */\n      callvalue\n        /* \"Dropsite.sol\":4696:4731  msg.value == (25000000000000000000) */\n      eq\n        /* \"Dropsite.sol\":4688:4761  require(msg.value == (25000000000000000000), \"Balance must be 25 Matics\") */\n      tag_131\n      jumpi\n      mload(0x40)\n      0x08c379a000000000000000000000000000000000000000000000000000000000\n      dup2\n      mstore\n      0x04\n      add\n      tag_132\n      swap1\n      tag_133\n      jump\t// in\n    tag_132:\n      mload(0x40)\n      dup1\n      swap2\n      sub\n      swap1\n      revert\n    tag_131:\n        /* \"Dropsite.sol\":4841:4851  uint nftId */\n      0x00\n        /* \"Dropsite.sol\":4854:4872  updateConditions() */\n      tag_134\n        /* \"Dropsite.sol\":4854:4870  updateConditions */\n      tag_103\n        /* \"Dropsite.sol\":4854:4872  updateConditions() */\n      jump\t// in\n    tag_134:\n        /* \"Dropsite.sol\":4841:4872  uint nftId = updateConditions() */\n      swap1\n      pop\n        /* \"Dropsite.sol\":4878:4920  _mint(user_addr, nftId, numOfCopies, data) */\n      tag_135\n        /* \"Dropsite.sol\":4884:4893  user_addr */\n      dup5\n        /* \"Dropsite.sol\":4895:4900  nftId */\n      dup3\n        /* \"Dropsite.sol\":4902:4913  numOfCopies */\n      sload(0x05)\n        /* \"Dropsite.sol\":4915:4919  data */\n      0x02\n        /* \"Dropsite.sol\":4878:4920  _mint(user_addr, nftId, numOfCopies, data) */\n      dup1\n      sload\n      tag_136\n      swap1\n      tag_106\n      jump\t// in\n    tag_136:\n      dup1\n      0x1f\n      add\n      0x20\n      dup1\n      swap2\n      div\n      mul\n      0x20\n      add\n      mload(0x40)\n      swap1\n      dup2\n      add\n      0x40\n      mstore\n      dup1\n      swap3\n      swap2\n      swap1\n      dup2\n      dup2\n      mstore\n      0x20\n      add\n      dup3\n      dup1\n      sload\n      tag_137\n      swap1\n      tag_106\n      jump\t// in\n    tag_137:\n      dup1\n      iszero\n      tag_138\n      jumpi\n      dup1\n      0x1f\n      lt\n      tag_139\n      jumpi\n      0x0100\n      dup1\n      dup4\n      sload\n      div\n      mul\n      dup4\n      mstore\n      swap2\n      0x20\n      add\n      swap2\n      jump(tag_138)\n    tag_139:\n      dup3\n      add\n      swap2\n      swap1\n      0x00\n      mstore\n      keccak256(0x00, 0x20)\n      swap1\n    tag_140:\n      dup2\n      sload\n      dup2\n      mstore\n      swap1\n      0x01\n      add\n      swap1\n      0x20\n      add\n      dup1\n      dup4\n      gt\n      tag_140\n      jumpi\n      dup3\n      swap1\n      sub\n      0x1f\n      and\n      dup3\n      add\n      swap2\n    tag_138:\n      pop\n      pop\n      pop\n      pop\n      pop\n        /* \"Dropsite.sol\":4878:4883  _mint */\n      tag_111\n        /* \"Dropsite.sol\":4878:4920  _mint(user_addr, nftId, numOfCopies, data) */\n      jump\t// in\n    tag_135:\n        /* \"Dropsite.sol\":4926:4964  depositAmount(_msgSender(), msg.value) */\n      tag_141\n        /* \"Dropsite.sol\":4940:4952  _msgSender() */\n      tag_142\n        /* \"Dropsite.sol\":4940:4950  _msgSender */\n      tag_67\n        /* \"Dropsite.sol\":4940:4952  _msgSender() */\n      jump\t// in\n    tag_142:\n        /* \"Dropsite.sol\":4954:4963  msg.value */\n      callvalue\n        /* \"Dropsite.sol\":4926:4939  depositAmount */\n      tag_143\n        /* \"Dropsite.sol\":4926:4964  depositAmount(_msgSender(), msg.value) */\n      jump\t// in\n    tag_141:\n        /* \"Dropsite.sol\":4970:4985  TotalNFTsMinted */\n      0x04\n      0x00\n        /* \"Dropsite.sol\":4970:4987  TotalNFTsMinted++ */\n      dup2\n      sload\n      dup1\n      swap3\n      swap2\n      swap1\n      tag_144\n      swap1\n      tag_113\n      jump\t// in\n    tag_144:\n      swap2\n      swap1\n      pop\n      sstore\n      pop\n        /* \"Dropsite.sol\":4993:5011  dropsite_NFT_Owner */\n      0x09\n        /* \"Dropsite.sol\":4993:5022  dropsite_NFT_Owner[user_addr] */\n      0x00\n        /* \"Dropsite.sol\":5012:5021  user_addr */\n      dup6\n        /* \"Dropsite.sol\":4993:5022  dropsite_NFT_Owner[user_addr] */\n      0xffffffffffffffffffffffffffffffffffffffff\n      and\n      0xffffffffffffffffffffffffffffffffffffffff\n      and\n      dup2\n      mstore\n      0x20\n      add\n      swap1\n      dup2\n      mstore\n      0x20\n      add\n      0x00\n      keccak256\n        /* \"Dropsite.sol\":4993:5042  dropsite_NFT_Owner[user_addr].owned_Dropsite_NFTs */\n      0x00\n      add\n        /* \"Dropsite.sol\":5048:5053  nftId */\n      dup2\n        /* \"Dropsite.sol\":4993:5054  dropsite_NFT_Owner[user_addr].owned_Dropsite_NFTs.push(nftId) */\n      swap1\n      dup1\n      0x01\n      dup2\n      sload\n      add\n      dup1\n      dup3\n      sstore\n      dup1\n      swap2\n      pop\n      pop\n      0x01\n      swap1\n      sub\n      swap1\n      0x00\n      mstore\n      keccak256(0x00, 0x20)\n      add\n      0x00\n      swap1\n      swap2\n      swap1\n      swap2\n      swap1\n      swap2\n      pop\n      sstore\n        /* \"Dropsite.sol\":5068:5073  nftId */\n      dup1\n        /* \"Dropsite.sol\":5081:5085  data */\n      0x02\n        /* \"Dropsite.sol\":5060:5087  return (nftId,string(data)) */\n      dup1\n      dup1\n      sload\n      tag_146\n      swap1\n      tag_106\n      jump\t// in\n    tag_146:\n      dup1\n      0x1f\n      add\n      0x20\n      dup1\n      swap2\n      div\n      mul\n      0x20\n      add\n      mload(0x40)\n      swap1\n      dup2\n      add\n      0x40\n      mstore\n      dup1\n      swap3\n      swap2\n      swap1\n      dup2\n      dup2\n      mstore\n      0x20\n      add\n      dup3\n      dup1\n      sload\n      tag_147\n      swap1\n      tag_106\n      jump\t// in\n    tag_147:\n      dup1\n      iszero\n      tag_148\n      jumpi\n      dup1\n      0x1f\n      lt\n      tag_149\n      jumpi\n      0x0100\n      dup1\n      dup4\n      sload\n      div\n      mul\n      dup4\n      mstore\n      swap2\n      0x20\n      add\n      swap2\n      jump(tag_148)\n    tag_149:\n      dup3\n      add\n      swap2\n      swap1\n      0x00\n      mstore\n      keccak256(0x00, 0x20)\n      swap1\n    tag_150:\n      dup2\n      sload\n      dup2\n      mstore\n      swap1\n      0x01\n      add\n      swap1\n      0x20\n      add\n      dup1\n      dup4\n      gt\n      tag_150\n      jumpi\n      dup3\n      swap1\n      sub\n      0x1f\n      and\n      dup3\n      add\n      swap2\n    tag_148:\n      pop\n      pop\n      pop\n      pop\n      pop\n      swap1\n      pop\n      swap3\n      pop\n      swap3\n      pop\n      pop\n        /* \"Dropsite.sol\":4506:5094  function CryptoRandomMint(address user_addr)  contractIsNotPaused public payable returns (uint,string memory) {... */\n      swap2\n      pop\n      swap2\n      jump\t// out\n        /* \"Dropsite.sol\":1527:1654  function checkMintedCategoryWise() public view OnlyOwner returns(uint,uint,uint){... */\n    tag_48:\n        /* \"Dropsite.sol\":1592:1596  uint */\n      0x00\n        /* \"Dropsite.sol\":1597:1601  uint */\n      dup1\n        /* \"Dropsite.sol\":1602:1606  uint */\n      0x00\n        /* \"Dropsite.sol\":913:918  Owner */\n      0x0b\n      0x01\n      swap1\n      sload\n      swap1\n      0x0100\n      exp\n      swap1\n      div\n      0xffffffffffffffffffffffffffffffffffffffff\n      and\n        /* \"Dropsite.sol\":897:918  _msgSender() == Owner */\n      0xffffffffffffffffffffffffffffffffffffffff\n      and\n        /* \"Dropsite.sol\":897:909  _msgSender() */\n      tag_152\n        /* \"Dropsite.sol\":897:907  _msgSender */\n      tag_67\n        /* \"Dropsite.sol\":897:909  _msgSender() */\n      jump\t// in\n    tag_152:\n        /* \"Dropsite.sol\":897:918  _msgSender() == Owner */\n      0xffffffffffffffffffffffffffffffffffffffff\n      and\n      eq\n        /* \"Dropsite.sol\":889:951  require(_msgSender() == Owner, \"Only NFT-ES Owner can Access\") */\n      tag_153\n      jumpi\n      mload(0x40)\n      0x08c379a000000000000000000000000000000000000000000000000000000000\n      dup2\n      mstore\n      0x04\n      add\n      tag_154\n      swap1\n      tag_70\n      jump\t// in\n    tag_154:\n      mload(0x40)\n      dup1\n      swap2\n      sub\n      swap1\n      revert\n    tag_153:\n        /* \"Dropsite.sol\":1626:1633  Diamond */\n      sload(0x06)\n        /* \"Dropsite.sol\":1634:1638  Gold */\n      sload(0x07)\n        /* \"Dropsite.sol\":1639:1645  Silver */\n      sload(0x08)\n        /* \"Dropsite.sol\":1618:1646  return (Diamond,Gold,Silver) */\n      swap3\n      pop\n      swap3\n      pop\n      swap3\n      pop\n        /* \"Dropsite.sol\":1527:1654  function checkMintedCategoryWise() public view OnlyOwner returns(uint,uint,uint){... */\n      swap1\n      swap2\n      swap3\n      jump\t// out\n        /* \"Dropsite.sol\":1769:1904  function stopDropsite() public OnlyOwner{... */\n    tag_53:\n        /* \"Dropsite.sol\":913:918  Owner */\n      0x0b\n      0x01\n      swap1\n      sload\n      swap1\n      0x0100\n      exp\n      swap1\n      div\n      0xffffffffffffffffffffffffffffffffffffffff\n      and\n        /* \"Dropsite.sol\":897:918  _msgSender() == Owner */\n      0xffffffffffffffffffffffffffffffffffffffff\n      and\n        /* \"Dropsite.sol\":897:909  _msgSender() */\n      tag_157\n        /* \"Dropsite.sol\":897:907  _msgSender */\n      tag_67\n        /* \"Dropsite.sol\":897:909  _msgSender() */\n      jump\t// in\n    tag_157:\n        /* \"Dropsite.sol\":897:918  _msgSender() == Owner */\n      0xffffffffffffffffffffffffffffffffffffffff\n      and\n      eq\n        /* \"Dropsite.sol\":889:951  require(_msgSender() == Owner, \"Only NFT-ES Owner can Access\") */\n      tag_158\n      jumpi\n      mload(0x40)\n      0x08c379a000000000000000000000000000000000000000000000000000000000\n      dup2\n      mstore\n      0x04\n      add\n      tag_159\n      swap1\n      tag_70\n      jump\t// in\n    tag_159:\n      mload(0x40)\n      dup1\n      swap2\n      sub\n      swap1\n      revert\n    tag_158:\n        /* \"Dropsite.sol\":1837:1842  false */\n      0x00\n        /* \"Dropsite.sol\":1827:1842  IsPaused==false */\n      iszero\n      iszero\n        /* \"Dropsite.sol\":1827:1835  IsPaused */\n      0x0b\n      0x00\n      swap1\n      sload\n      swap1\n      0x0100\n      exp\n      swap1\n      div\n      0xff\n      and\n        /* \"Dropsite.sol\":1827:1842  IsPaused==false */\n      iszero\n      iszero\n      eq\n        /* \"Dropsite.sol\":1819:1874  require(IsPaused==false, \"Dropsite is already Stopped\") */\n      tag_161\n      jumpi\n      mload(0x40)\n      0x08c379a000000000000000000000000000000000000000000000000000000000\n      dup2\n      mstore\n      0x04\n      add\n      tag_162\n      swap1\n      tag_163\n      jump\t// in\n    tag_162:\n      mload(0x40)\n      dup1\n      swap2\n      sub\n      swap1\n      revert\n    tag_161:\n        /* \"Dropsite.sol\":1893:1897  true */\n      0x01\n        /* \"Dropsite.sol\":1884:1892  IsPaused */\n      0x0b\n      0x00\n        /* \"Dropsite.sol\":1884:1897  IsPaused=true */\n      0x0100\n      exp\n      dup2\n      sload\n      dup2\n      0xff\n      mul\n      not\n      and\n      swap1\n      dup4\n      iszero\n      iszero\n      mul\n      or\n      swap1\n      sstore\n      pop\n        /* \"Dropsite.sol\":1769:1904  function stopDropsite() public OnlyOwner{... */\n      jump\t// out\n        /* \"Dropsite.sol\":1174:1203  address payable public  Owner */\n    tag_56:\n      0x0b\n      0x01\n      swap1\n      sload\n      swap1\n      0x0100\n      exp\n      swap1\n      div\n      0xffffffffffffffffffffffffffffffffffffffff\n      and\n      dup2\n      jump\t// out\n        /* \"Dropsite.sol\":654:792  function returnOwner(address addr) public view returns (uint[] memory){... */\n    tag_62:\n        /* \"Dropsite.sol\":710:723  uint[] memory */\n      0x60\n        /* \"Dropsite.sol\":741:759  dropsite_NFT_Owner */\n      0x09\n        /* \"Dropsite.sol\":741:765  dropsite_NFT_Owner[addr] */\n      0x00\n        /* \"Dropsite.sol\":760:764  addr */\n      dup4\n        /* \"Dropsite.sol\":741:765  dropsite_NFT_Owner[addr] */\n      0xffffffffffffffffffffffffffffffffffffffff\n      and\n      0xffffffffffffffffffffffffffffffffffffffff\n      and\n      dup2\n      mstore\n      0x20\n      add\n      swap1\n      dup2\n      mstore\n      0x20\n      add\n      0x00\n      keccak256\n        /* \"Dropsite.sol\":741:785  dropsite_NFT_Owner[addr].owned_Dropsite_NFTs */\n      0x00\n      add\n        /* \"Dropsite.sol\":734:785  return dropsite_NFT_Owner[addr].owned_Dropsite_NFTs */\n      dup1\n      sload\n      dup1\n      0x20\n      mul\n      0x20\n      add\n      mload(0x40)\n      swap1\n      dup2\n      add\n      0x40\n      mstore\n      dup1\n      swap3\n      swap2\n      swap1\n      dup2\n      dup2\n      mstore\n      0x20\n      add\n      dup3\n      dup1\n      sload\n      dup1\n      iszero\n      tag_165\n      jumpi\n      0x20\n      mul\n      dup3\n      add\n      swap2\n      swap1\n      0x00\n      mstore\n      keccak256(0x00, 0x20)\n      swap1\n    tag_166:\n      dup2\n      sload\n      dup2\n      mstore\n      0x20\n      add\n      swap1\n      0x01\n      add\n      swap1\n      dup1\n      dup4\n      gt\n      tag_166\n      jumpi\n    tag_165:\n      pop\n      pop\n      pop\n      pop\n      pop\n      swap1\n      pop\n        /* \"Dropsite.sol\":654:792  function returnOwner(address addr) public view returns (uint[] memory){... */\n      swap2\n      swap1\n      pop\n      jump\t// out\n        /* \"Context.sol\":640:736  function _msgSender() internal view virtual returns (address) {... */\n    tag_67:\n        /* \"Context.sol\":693:700  address */\n      0x00\n        /* \"Context.sol\":719:729  msg.sender */\n      caller\n        /* \"Context.sol\":712:729  return msg.sender */\n      swap1\n      pop\n        /* \"Context.sol\":640:736  function _msgSender() internal view virtual returns (address) {... */\n      swap1\n      jump\t// out\n        /* \"Dropsite.sol\":2703:3837  function updateConditions() internal contractIsNotPaused returns(uint) {... */\n    tag_103:\n        /* \"Dropsite.sol\":2768:2772  uint */\n      0x00\n        /* \"Dropsite.sol\":1078:1083  false */\n      dup1\n        /* \"Dropsite.sol\":1066:1083  IsPaused == false */\n      iszero\n      iszero\n        /* \"Dropsite.sol\":1066:1074  IsPaused */\n      0x0b\n      0x00\n      swap1\n      sload\n      swap1\n      0x0100\n      exp\n      swap1\n      div\n      0xff\n      and\n        /* \"Dropsite.sol\":1066:1083  IsPaused == false */\n      iszero\n      iszero\n      eq\n        /* \"Dropsite.sol\":1057:1116  require (IsPaused == false, \"Dropsite is not Opened Yet.\" ) */\n      tag_169\n      jumpi\n      mload(0x40)\n      0x08c379a000000000000000000000000000000000000000000000000000000000\n      dup2\n      mstore\n      0x04\n      add\n      tag_170\n      swap1\n      tag_97\n      jump\t// in\n    tag_170:\n      mload(0x40)\n      dup1\n      swap2\n      sub\n      swap1\n      revert\n    tag_169:\n        /* \"Dropsite.sol\":2783:2793  uint index */\n      0x00\n        /* \"Dropsite.sol\":2796:2804  random() */\n      tag_172\n        /* \"Dropsite.sol\":2796:2802  random */\n      tag_173\n        /* \"Dropsite.sol\":2796:2804  random() */\n      jump\t// in\n    tag_172:\n        /* \"Dropsite.sol\":2783:2804  uint index = random() */\n      swap1\n      pop\n        /* \"Dropsite.sol\":2814:2824  uint nftId */\n      0x00\n        /* \"Dropsite.sol\":2827:2831  nums */\n      0x03\n        /* \"Dropsite.sol\":2832:2837  index */\n      dup3\n        /* \"Dropsite.sol\":2827:2838  nums[index] */\n      0x14\n      dup2\n      lt\n      tag_174\n      jumpi\n      tag_175\n      tag_176\n      jump\t// in\n    tag_175:\n    tag_174:\n      0x20\n      swap2\n      dup3\n      dup3\n      div\n      add\n      swap2\n      swap1\n      mod\n      swap1\n      sload\n      swap1\n      0x0100\n      exp\n      swap1\n      div\n      0xff\n      and\n        /* \"Dropsite.sol\":2814:2838  uint nftId = nums[index] */\n      0xff\n      and\n      swap1\n      pop\n        /* \"Dropsite.sol\":2928:2929  0 */\n      0x00\n        /* \"Dropsite.sol\":2919:2924  nftId */\n      dup2\n        /* \"Dropsite.sol\":2919:2929  nftId == 0 */\n      eq\n        /* \"Dropsite.sol\":2919:2945  nftId == 0 && Diamond < 50 */\n      dup1\n      iszero\n      tag_178\n      jumpi\n      pop\n        /* \"Dropsite.sol\":2943:2945  50 */\n      0x32\n        /* \"Dropsite.sol\":2933:2940  Diamond */\n      sload(0x06)\n        /* \"Dropsite.sol\":2933:2945  Diamond < 50 */\n      lt\n        /* \"Dropsite.sol\":2919:2945  nftId == 0 && Diamond < 50 */\n    tag_178:\n        /* \"Dropsite.sol\":2916:3832  if(nftId == 0 && Diamond < 50) {... */\n      iszero\n      tag_179\n      jumpi\n        /* \"Dropsite.sol\":2996:3003  Diamond */\n      sload(0x06)\n        /* \"Dropsite.sol\":2968:3004  abi.encodePacked(\"Diamond_\",Diamond) */\n      add(0x20, mload(0x40))\n      tag_180\n      swap2\n      swap1\n      tag_181\n      jump\t// in\n    tag_180:\n      mload(0x40)\n      0x20\n      dup2\n      dup4\n      sub\n      sub\n      dup2\n      mstore\n      swap1\n      0x40\n      mstore\n        /* \"Dropsite.sol\":2961:2965  data */\n      0x02\n        /* \"Dropsite.sol\":2961:3004  data = abi.encodePacked(\"Diamond_\",Diamond) */\n      swap1\n      dup1\n      mload\n      swap1\n      0x20\n      add\n      swap1\n      tag_182\n      swap3\n      swap2\n      swap1\n      tag_183\n      jump\t// in\n    tag_182:\n      pop\n        /* \"Dropsite.sol\":3018:3025  Diamond */\n      0x06\n      0x00\n        /* \"Dropsite.sol\":3018:3027  Diamond++ */\n      dup2\n      sload\n      dup1\n      swap3\n      swap2\n      swap1\n      tag_184\n      swap1\n      tag_113\n      jump\t// in\n    tag_184:\n      swap2\n      swap1\n      pop\n      sstore\n      pop\n        /* \"Dropsite.sol\":3049:3054  nftId */\n      dup1\n        /* \"Dropsite.sol\":3042:3054  return nftId */\n      swap3\n      pop\n      pop\n      pop\n      jump(tag_171)\n        /* \"Dropsite.sol\":2916:3832  if(nftId == 0 && Diamond < 50) {... */\n    tag_179:\n        /* \"Dropsite.sol\":3161:3162  1 */\n      0x01\n        /* \"Dropsite.sol\":3152:3157  nftId */\n      dup2\n        /* \"Dropsite.sol\":3152:3162  nftId <= 1 */\n      gt\n      iszero\n        /* \"Dropsite.sol\":3152:3176  nftId <= 1 && Gold < 100 */\n      dup1\n      iszero\n      tag_186\n      jumpi\n      pop\n        /* \"Dropsite.sol\":3173:3176  100 */\n      0x64\n        /* \"Dropsite.sol\":3166:3170  Gold */\n      sload(0x07)\n        /* \"Dropsite.sol\":3166:3176  Gold < 100 */\n      lt\n        /* \"Dropsite.sol\":3152:3176  nftId <= 1 && Gold < 100 */\n    tag_186:\n        /* \"Dropsite.sol\":3149:3832  if(nftId <= 1 && Gold < 100) {... */\n      iszero\n      tag_187\n      jumpi\n        /* \"Dropsite.sol\":3205:3218  data = \"Gold\" */\n      mload(0x40)\n      dup1\n      0x40\n      add\n      0x40\n      mstore\n      dup1\n      0x04\n      dup2\n      mstore\n      0x20\n      add\n      0x476f6c6400000000000000000000000000000000000000000000000000000000\n      dup2\n      mstore\n      pop\n        /* \"Dropsite.sol\":3205:3209  data */\n      0x02\n        /* \"Dropsite.sol\":3205:3218  data = \"Gold\" */\n      swap1\n      dup1\n      mload\n      swap1\n      0x20\n      add\n      swap1\n      tag_188\n      swap3\n      swap2\n      swap1\n      tag_189\n      jump\t// in\n    tag_188:\n      pop\n        /* \"Dropsite.sol\":3232:3236  Gold */\n      0x07\n      0x00\n        /* \"Dropsite.sol\":3232:3238  Gold++ */\n      dup2\n      sload\n      dup1\n      swap3\n      swap2\n      swap1\n      tag_190\n      swap1\n      tag_113\n      jump\t// in\n    tag_190:\n      swap2\n      swap1\n      pop\n      sstore\n      pop\n        /* \"Dropsite.sol\":3259:3264  nftId */\n      dup1\n        /* \"Dropsite.sol\":3252:3264  return nftId */\n      swap3\n      pop\n      pop\n      pop\n      jump(tag_171)\n        /* \"Dropsite.sol\":3149:3832  if(nftId <= 1 && Gold < 100) {... */\n    tag_187:\n        /* \"Dropsite.sol\":3394:3395  2 */\n      0x02\n        /* \"Dropsite.sol\":3385:3390  nftId */\n      dup2\n        /* \"Dropsite.sol\":3385:3395  nftId <= 2 */\n      gt\n      iszero\n        /* \"Dropsite.sol\":3385:3412  nftId <= 2 && Silver <= 850 */\n      dup1\n      iszero\n      tag_192\n      jumpi\n      pop\n        /* \"Dropsite.sol\":3409:3412  850 */\n      0x0352\n        /* \"Dropsite.sol\":3399:3405  Silver */\n      sload(0x08)\n        /* \"Dropsite.sol\":3399:3412  Silver <= 850 */\n      gt\n      iszero\n        /* \"Dropsite.sol\":3385:3412  nftId <= 2 && Silver <= 850 */\n    tag_192:\n        /* \"Dropsite.sol\":3382:3832  if(nftId <= 2 && Silver <= 850) {... */\n      iszero\n      tag_193\n      jumpi\n        /* \"Dropsite.sol\":3441:3454  data=\"Silver\" */\n      mload(0x40)\n      dup1\n      0x40\n      add\n      0x40\n      mstore\n      dup1\n      0x06\n      dup2\n      mstore\n      0x20\n      add\n      0x53696c7665720000000000000000000000000000000000000000000000000000\n      dup2\n      mstore\n      pop\n        /* \"Dropsite.sol\":3441:3445  data */\n      0x02\n        /* \"Dropsite.sol\":3441:3454  data=\"Silver\" */\n      swap1\n      dup1\n      mload\n      swap1\n      0x20\n      add\n      swap1\n      tag_194\n      swap3\n      swap2\n      swap1\n      tag_189\n      jump\t// in\n    tag_194:\n      pop\n        /* \"Dropsite.sol\":3468:3474  Silver */\n      0x08\n      0x00\n        /* \"Dropsite.sol\":3468:3476  Silver++ */\n      dup2\n      sload\n      dup1\n      swap3\n      swap2\n      swap1\n      tag_195\n      swap1\n      tag_113\n      jump\t// in\n    tag_195:\n      swap2\n      swap1\n      pop\n      sstore\n      pop\n        /* \"Dropsite.sol\":3497:3502  nftId */\n      dup1\n        /* \"Dropsite.sol\":3490:3502  return nftId */\n      swap3\n      pop\n      pop\n      pop\n      jump(tag_171)\n        /* \"Dropsite.sol\":3382:3832  if(nftId <= 2 && Silver <= 850) {... */\n    tag_193:\n        /* \"Dropsite.sol\":3551:3554  100 */\n      0x64\n        /* \"Dropsite.sol\":3544:3548  Gold */\n      sload(0x07)\n        /* \"Dropsite.sol\":3544:3554  Gold < 100 */\n      lt\n        /* \"Dropsite.sol\":3541:3823  if(Gold < 100) {... */\n      iszero\n      tag_197\n      jumpi\n        /* \"Dropsite.sol\":3582:3583  1 */\n      0x01\n        /* \"Dropsite.sol\":3574:3583  nftId = 1 */\n      swap1\n      pop\n        /* \"Dropsite.sol\":3601:3614  data = \"Gold\" */\n      mload(0x40)\n      dup1\n      0x40\n      add\n      0x40\n      mstore\n      dup1\n      0x04\n      dup2\n      mstore\n      0x20\n      add\n      0x476f6c6400000000000000000000000000000000000000000000000000000000\n      dup2\n      mstore\n      pop\n        /* \"Dropsite.sol\":3601:3605  data */\n      0x02\n        /* \"Dropsite.sol\":3601:3614  data = \"Gold\" */\n      swap1\n      dup1\n      mload\n      swap1\n      0x20\n      add\n      swap1\n      tag_198\n      swap3\n      swap2\n      swap1\n      tag_189\n      jump\t// in\n    tag_198:\n      pop\n        /* \"Dropsite.sol\":3632:3636  Gold */\n      0x07\n      0x00\n        /* \"Dropsite.sol\":3632:3638  Gold++ */\n      dup2\n      sload\n      dup1\n      swap3\n      swap2\n      swap1\n      tag_199\n      swap1\n      tag_113\n      jump\t// in\n    tag_199:\n      swap2\n      swap1\n      pop\n      sstore\n      pop\n        /* \"Dropsite.sol\":3664:3669  nftId */\n      dup1\n        /* \"Dropsite.sol\":3657:3669  return nftId */\n      swap3\n      pop\n      pop\n      pop\n      jump(tag_171)\n        /* \"Dropsite.sol\":3541:3823  if(Gold < 100) {... */\n    tag_197:\n        /* \"Dropsite.sol\":3716:3717  0 */\n      0x00\n        /* \"Dropsite.sol\":3708:3717  nftId = 0 */\n      swap1\n      pop\n        /* \"Dropsite.sol\":3735:3751  data = \"Diamond\" */\n      mload(0x40)\n      dup1\n      0x40\n      add\n      0x40\n      mstore\n      dup1\n      0x07\n      dup2\n      mstore\n      0x20\n      add\n      0x4469616d6f6e6400000000000000000000000000000000000000000000000000\n      dup2\n      mstore\n      pop\n        /* \"Dropsite.sol\":3735:3739  data */\n      0x02\n        /* \"Dropsite.sol\":3735:3751  data = \"Diamond\" */\n      swap1\n      dup1\n      mload\n      swap1\n      0x20\n      add\n      swap1\n      tag_201\n      swap3\n      swap2\n      swap1\n      tag_189\n      jump\t// in\n    tag_201:\n      pop\n        /* \"Dropsite.sol\":3769:3776  Diamond */\n      0x06\n      0x00\n        /* \"Dropsite.sol\":3769:3778  Diamond++ */\n      dup2\n      sload\n      dup1\n      swap3\n      swap2\n      swap1\n      tag_202\n      swap1\n      tag_113\n      jump\t// in\n    tag_202:\n      swap2\n      swap1\n      pop\n      sstore\n      pop\n        /* \"Dropsite.sol\":3803:3808  nftId */\n      dup1\n        /* \"Dropsite.sol\":3796:3808  return nftId */\n      swap3\n      pop\n      pop\n      pop\n        /* \"Dropsite.sol\":1126:1127  _ */\n    tag_171:\n        /* \"Dropsite.sol\":2703:3837  function updateConditions() internal contractIsNotPaused returns(uint) {... */\n      swap1\n      jump\t// out\n        /* \"ERC1155_Dropsite.sol\":835:1386  function _mint(... */\n    tag_111:\n        /* \"ERC1155_Dropsite.sol\":996:997  0 */\n      0x00\n        /* \"ERC1155_Dropsite.sol\":982:998  to != address(0) */\n      0xffffffffffffffffffffffffffffffffffffffff\n      and\n        /* \"ERC1155_Dropsite.sol\":982:984  to */\n      dup5\n        /* \"ERC1155_Dropsite.sol\":982:998  to != address(0) */\n      0xffffffffffffffffffffffffffffffffffffffff\n      and\n      eq\n      iszero\n        /* \"ERC1155_Dropsite.sol\":974:1036  require(to != address(0), \"ERC1155: mint to the zero address\") */\n      tag_204\n      jumpi\n      mload(0x40)\n      0x08c379a000000000000000000000000000000000000000000000000000000000\n      dup2\n      mstore\n      0x04\n      add\n      tag_205\n      swap1\n      tag_206\n      jump\t// in\n    tag_205:\n      mload(0x40)\n      dup1\n      swap2\n      sub\n      swap1\n      revert\n    tag_204:\n        /* \"ERC1155_Dropsite.sol\":1047:1063  address operator */\n      0x00\n        /* \"ERC1155_Dropsite.sol\":1066:1078  _msgSender() */\n      tag_207\n        /* \"ERC1155_Dropsite.sol\":1066:1076  _msgSender */\n      tag_67\n        /* \"ERC1155_Dropsite.sol\":1066:1078  _msgSender() */\n      jump\t// in\n    tag_207:\n        /* \"ERC1155_Dropsite.sol\":1047:1078  address operator = _msgSender() */\n      swap1\n      pop\n        /* \"ERC1155_Dropsite.sol\":1089:1191  _beforeTokenTransfer(operator, address(0), to, _asSingletonArray(id), _asSingletonArray(amount), data) */\n      tag_208\n        /* \"ERC1155_Dropsite.sol\":1110:1118  operator */\n      dup2\n        /* \"ERC1155_Dropsite.sol\":1128:1129  0 */\n      0x00\n        /* \"ERC1155_Dropsite.sol\":1132:1134  to */\n      dup8\n        /* \"ERC1155_Dropsite.sol\":1136:1157  _asSingletonArray(id) */\n      tag_209\n        /* \"ERC1155_Dropsite.sol\":1154:1156  id */\n      dup9\n        /* \"ERC1155_Dropsite.sol\":1136:1153  _asSingletonArray */\n      tag_210\n        /* \"ERC1155_Dropsite.sol\":1136:1157  _asSingletonArray(id) */\n      jump\t// in\n    tag_209:\n        /* \"ERC1155_Dropsite.sol\":1159:1184  _asSingletonArray(amount) */\n      tag_211\n        /* \"ERC1155_Dropsite.sol\":1177:1183  amount */\n      dup9\n        /* \"ERC1155_Dropsite.sol\":1159:1176  _asSingletonArray */\n      tag_210\n        /* \"ERC1155_Dropsite.sol\":1159:1184  _asSingletonArray(amount) */\n      jump\t// in\n    tag_211:\n        /* \"ERC1155_Dropsite.sol\":1186:1190  data */\n      dup8\n        /* \"ERC1155_Dropsite.sol\":1089:1109  _beforeTokenTransfer */\n      tag_212\n        /* \"ERC1155_Dropsite.sol\":1089:1191  _beforeTokenTransfer(operator, address(0), to, _asSingletonArray(id), _asSingletonArray(amount), data) */\n      jump\t// in\n    tag_208:\n        /* \"ERC1155_Dropsite.sol\":1222:1228  amount */\n      dup3\n        /* \"ERC1155_Dropsite.sol\":1201:1210  _balances */\n      0x00\n        /* \"ERC1155_Dropsite.sol\":1201:1214  _balances[id] */\n      dup1\n        /* \"ERC1155_Dropsite.sol\":1211:1213  id */\n      dup7\n        /* \"ERC1155_Dropsite.sol\":1201:1214  _balances[id] */\n      dup2\n      mstore\n      0x20\n      add\n      swap1\n      dup2\n      mstore\n      0x20\n      add\n      0x00\n      keccak256\n        /* \"ERC1155_Dropsite.sol\":1201:1218  _balances[id][to] */\n      0x00\n        /* \"ERC1155_Dropsite.sol\":1215:1217  to */\n      dup8\n        /* \"ERC1155_Dropsite.sol\":1201:1218  _balances[id][to] */\n      0xffffffffffffffffffffffffffffffffffffffff\n      and\n      0xffffffffffffffffffffffffffffffffffffffff\n      and\n      dup2\n      mstore\n      0x20\n      add\n      swap1\n      dup2\n      mstore\n      0x20\n      add\n      0x00\n      keccak256\n      0x00\n        /* \"ERC1155_Dropsite.sol\":1201:1228  _balances[id][to] += amount */\n      dup3\n      dup3\n      sload\n      tag_213\n      swap2\n      swap1\n      tag_214\n      jump\t// in\n    tag_213:\n      swap3\n      pop\n      pop\n      dup2\n      swap1\n      sstore\n      pop\n        /* \"ERC1155_Dropsite.sol\":1280:1282  to */\n      dup5\n        /* \"ERC1155_Dropsite.sol\":1243:1295  TransferSingle(operator, address(0), to, id, amount) */\n      0xffffffffffffffffffffffffffffffffffffffff\n      and\n        /* \"ERC1155_Dropsite.sol\":1276:1277  0 */\n      0x00\n        /* \"ERC1155_Dropsite.sol\":1243:1295  TransferSingle(operator, address(0), to, id, amount) */\n      0xffffffffffffffffffffffffffffffffffffffff\n      and\n        /* \"ERC1155_Dropsite.sol\":1258:1266  operator */\n      dup3\n        /* \"ERC1155_Dropsite.sol\":1243:1295  TransferSingle(operator, address(0), to, id, amount) */\n      0xffffffffffffffffffffffffffffffffffffffff\n      and\n      0xc3d58168c5ae7397731d063d5bbf3d657854427343f4c083240f7aacaa2d0f62\n        /* \"ERC1155_Dropsite.sol\":1284:1286  id */\n      dup8\n        /* \"ERC1155_Dropsite.sol\":1288:1294  amount */\n      dup8\n        /* \"ERC1155_Dropsite.sol\":1243:1295  TransferSingle(operator, address(0), to, id, amount) */\n      mload(0x40)\n      tag_215\n      swap3\n      swap2\n      swap1\n      tag_216\n      jump\t// in\n    tag_215:\n      mload(0x40)\n      dup1\n      swap2\n      sub\n      swap1\n      log4\n        /* \"ERC1155_Dropsite.sol\":1305:1379  _doSafeTransferAcceptanceCheck(operator, address(0), to, id, amount, data) */\n      tag_217\n        /* \"ERC1155_Dropsite.sol\":1336:1344  operator */\n      dup2\n        /* \"ERC1155_Dropsite.sol\":1354:1355  0 */\n      0x00\n        /* \"ERC1155_Dropsite.sol\":1358:1360  to */\n      dup8\n        /* \"ERC1155_Dropsite.sol\":1362:1364  id */\n      dup8\n        /* \"ERC1155_Dropsite.sol\":1366:1372  amount */\n      dup8\n        /* \"ERC1155_Dropsite.sol\":1374:1378  data */\n      dup8\n        /* \"ERC1155_Dropsite.sol\":1305:1335  _doSafeTransferAcceptanceCheck */\n      tag_218\n        /* \"ERC1155_Dropsite.sol\":1305:1379  _doSafeTransferAcceptanceCheck(operator, address(0), to, id, amount, data) */\n      jump\t// in\n    tag_217:\n        /* \"ERC1155_Dropsite.sol\":964:1386  {... */\n      pop\n        /* \"ERC1155_Dropsite.sol\":835:1386  function _mint(... */\n      pop\n      pop\n      pop\n      pop\n      jump\t// out\n        /* \"Dropsite.sol\":4339:4458  function depositAmount(address payee,uint amountToDeposit) internal {... */\n    tag_143:\n        /* \"Dropsite.sol\":4436:4451  amountToDeposit */\n      dup1\n        /* \"Dropsite.sol\":4417:4425  deposits */\n      0x0a\n        /* \"Dropsite.sol\":4417:4432  deposits[payee] */\n      0x00\n        /* \"Dropsite.sol\":4426:4431  payee */\n      dup5\n        /* \"Dropsite.sol\":4417:4432  deposits[payee] */\n      0xffffffffffffffffffffffffffffffffffffffff\n      and\n      0xffffffffffffffffffffffffffffffffffffffff\n      and\n      dup2\n      mstore\n      0x20\n      add\n      swap1\n      dup2\n      mstore\n      0x20\n      add\n      0x00\n      keccak256\n      0x00\n        /* \"Dropsite.sol\":4417:4451  deposits[payee] += amountToDeposit */\n      dup3\n      dup3\n      sload\n      tag_220\n      swap2\n      swap1\n      tag_214\n      jump\t// in\n    tag_220:\n      swap3\n      pop\n      pop\n      dup2\n      swap1\n      sstore\n      pop\n        /* \"Dropsite.sol\":4339:4458  function depositAmount(address payee,uint amountToDeposit) internal {... */\n      pop\n      pop\n      jump\t// out\n        /* \"Dropsite.sol\":2502:2698  function random() internal view returns (uint) {... */\n    tag_173:\n        /* \"Dropsite.sol\":2543:2547  uint */\n      0x00\n        /* \"Dropsite.sol\":2579:2596  uint randomnumber */\n      dup1\n        /* \"Dropsite.sol\":2664:2666  20 */\n      0x14\n        /* \"Dropsite.sol\":2631:2646  block.timestamp */\n      timestamp\n        /* \"Dropsite.sol\":2648:2658  msg.sender */\n      caller\n        /* \"Dropsite.sol\":2614:2659  abi.encodePacked(block.timestamp, msg.sender) */\n      add(0x20, mload(0x40))\n      tag_222\n      swap3\n      swap2\n      swap1\n      tag_223\n      jump\t// in\n    tag_222:\n      mload(0x40)\n      0x20\n      dup2\n      dup4\n      sub\n      sub\n      dup2\n      mstore\n      swap1\n      0x40\n      mstore\n        /* \"Dropsite.sol\":2604:2660  keccak256(abi.encodePacked(block.timestamp, msg.sender)) */\n      dup1\n      mload\n      swap1\n      0x20\n      add\n      keccak256\n        /* \"Dropsite.sol\":2599:2661  uint(keccak256(abi.encodePacked(block.timestamp, msg.sender))) */\n      0x00\n      shr\n        /* \"Dropsite.sol\":2599:2666  uint(keccak256(abi.encodePacked(block.timestamp, msg.sender))) % 20 */\n      tag_224\n      swap2\n      swap1\n      tag_225\n      jump\t// in\n    tag_224:\n        /* \"Dropsite.sol\":2579:2666  uint randomnumber = uint(keccak256(abi.encodePacked(block.timestamp, msg.sender))) % 20 */\n      swap1\n      pop\n        /* \"Dropsite.sol\":2679:2691  randomnumber */\n      dup1\n        /* \"Dropsite.sol\":2672:2691  return randomnumber */\n      swap2\n      pop\n      pop\n        /* \"Dropsite.sol\":2502:2698  function random() internal view returns (uint) {... */\n      swap1\n      jump\t// out\n        /* \"ERC1155_Dropsite.sol\":2344:2537  function _asSingletonArray(uint256 element) private pure returns (uint256[] memory) {... */\n    tag_210:\n        /* \"ERC1155_Dropsite.sol\":2410:2426  uint256[] memory */\n      0x60\n        /* \"ERC1155_Dropsite.sol\":2438:2460  uint256[] memory array */\n      0x00\n        /* \"ERC1155_Dropsite.sol\":2477:2478  1 */\n      0x01\n        /* \"ERC1155_Dropsite.sol\":2463:2479  new uint256[](1) */\n      0xffffffffffffffff\n      dup2\n      gt\n      iszero\n      tag_227\n      jumpi\n      tag_228\n      tag_229\n      jump\t// in\n    tag_228:\n    tag_227:\n      mload(0x40)\n      swap1\n      dup1\n      dup3\n      mstore\n      dup1\n      0x20\n      mul\n      0x20\n      add\n      dup3\n      add\n      0x40\n      mstore\n      dup1\n      iszero\n      tag_230\n      jumpi\n      dup2\n      0x20\n      add\n      0x20\n      dup3\n      mul\n      dup1\n      calldatasize\n      dup4\n      calldatacopy\n      dup1\n      dup3\n      add\n      swap2\n      pop\n      pop\n      swap1\n      pop\n    tag_230:\n      pop\n        /* \"ERC1155_Dropsite.sol\":2438:2479  uint256[] memory array = new uint256[](1) */\n      swap1\n      pop\n        /* \"ERC1155_Dropsite.sol\":2500:2507  element */\n      dup3\n        /* \"ERC1155_Dropsite.sol\":2489:2494  array */\n      dup2\n        /* \"ERC1155_Dropsite.sol\":2495:2496  0 */\n      0x00\n        /* \"ERC1155_Dropsite.sol\":2489:2497  array[0] */\n      dup2\n      mload\n      dup2\n      lt\n      tag_231\n      jumpi\n      tag_232\n      tag_176\n      jump\t// in\n    tag_232:\n    tag_231:\n      0x20\n      mul\n      0x20\n      add\n      add\n        /* \"ERC1155_Dropsite.sol\":2489:2507  array[0] = element */\n      dup2\n      dup2\n      mstore\n      pop\n      pop\n        /* \"ERC1155_Dropsite.sol\":2525:2530  array */\n      dup1\n        /* \"ERC1155_Dropsite.sol\":2518:2530  return array */\n      swap2\n      pop\n      pop\n        /* \"ERC1155_Dropsite.sol\":2344:2537  function _asSingletonArray(uint256 element) private pure returns (uint256[] memory) {... */\n      swap2\n      swap1\n      pop\n      jump\t// out\n        /* \"ERC1155_Dropsite.sol\":1393:1607  function _beforeTokenTransfer(... */\n    tag_212:\n      pop\n      pop\n      pop\n      pop\n      pop\n      pop\n      jump\t// out\n        /* \"ERC1155_Dropsite.sol\":1613:2338  function _doSafeTransferAcceptanceCheck(... */\n    tag_218:\n        /* \"ERC1155_Dropsite.sol\":1820:1835  to.isContract() */\n      tag_235\n        /* \"ERC1155_Dropsite.sol\":1820:1822  to */\n      dup5\n        /* \"ERC1155_Dropsite.sol\":1820:1833  to.isContract */\n      0xffffffffffffffffffffffffffffffffffffffff\n      and\n      tag_236\n        /* \"ERC1155_Dropsite.sol\":1820:1835  to.isContract() */\n      jump\t// in\n    tag_235:\n        /* \"ERC1155_Dropsite.sol\":1816:2332  if (to.isContract()) {... */\n      iszero\n      tag_237\n      jumpi\n        /* \"ERC1155_Dropsite.sol\":1872:1874  to */\n      dup4\n        /* \"ERC1155_Dropsite.sol\":1855:1893  IERC1155Receiver(to).onERC1155Received */\n      0xffffffffffffffffffffffffffffffffffffffff\n      and\n      0xf23a6e61\n        /* \"ERC1155_Dropsite.sol\":1894:1902  operator */\n      dup8\n        /* \"ERC1155_Dropsite.sol\":1904:1908  from */\n      dup8\n        /* \"ERC1155_Dropsite.sol\":1910:1912  id */\n      dup7\n        /* \"ERC1155_Dropsite.sol\":1914:1920  amount */\n      dup7\n        /* \"ERC1155_Dropsite.sol\":1922:1926  data */\n      dup7\n        /* \"ERC1155_Dropsite.sol\":1855:1927  IERC1155Receiver(to).onERC1155Received(operator, from, id, amount, data) */\n      mload(0x40)\n      dup7\n      0xffffffff\n      and\n      0xe0\n      shl\n      dup2\n      mstore\n      0x04\n      add\n      tag_238\n      swap6\n      swap5\n      swap4\n      swap3\n      swap2\n      swap1\n      tag_239\n      jump\t// in\n    tag_238:\n      0x20\n      mload(0x40)\n      dup1\n      dup4\n      sub\n      dup2\n      0x00\n      dup8\n      dup1\n      extcodesize\n      iszero\n      dup1\n      iszero\n      tag_240\n      jumpi\n      0x00\n      dup1\n      revert\n    tag_240:\n      pop\n      gas\n      call\n      swap3\n      pop\n      pop\n      pop\n      dup1\n      iszero\n      tag_241\n      jumpi\n      pop\n      mload(0x40)\n      returndatasize\n      not(0x1f)\n      0x1f\n      dup3\n      add\n      and\n      dup3\n      add\n      dup1\n      0x40\n      mstore\n      pop\n      dup2\n      add\n      swap1\n      tag_242\n      swap2\n      swap1\n      tag_243\n      jump\t// in\n    tag_242:\n      0x01\n    tag_241:\n        /* \"ERC1155_Dropsite.sol\":1851:2322  try IERC1155Receiver(to).onERC1155Received(operator, from, id, amount, data) returns (bytes4 response) {... */\n      tag_244\n      jumpi\n      tag_248\n      tag_249\n      jump\t// in\n    tag_248:\n      dup1\n      0x08c379a0\n      eq\n      iszero\n      tag_247\n      jumpi\n      pop\n      tag_250\n      tag_251\n      jump\t// in\n    tag_250:\n      dup1\n      tag_252\n      jumpi\n      pop\n      jump(tag_246)\n    tag_252:\n        /* \"ERC1155_Dropsite.sol\":2198:2204  reason */\n      dup1\n        /* \"ERC1155_Dropsite.sol\":2191:2205  revert(reason) */\n      mload(0x40)\n      0x08c379a000000000000000000000000000000000000000000000000000000000\n      dup2\n      mstore\n      0x04\n      add\n      tag_253\n      swap2\n      swap1\n      tag_254\n      jump\t// in\n    tag_253:\n      mload(0x40)\n      dup1\n      swap2\n      sub\n      swap1\n      revert\n        /* \"ERC1155_Dropsite.sol\":1851:2322  try IERC1155Receiver(to).onERC1155Received(operator, from, id, amount, data) returns (bytes4 response) {... */\n    tag_247:\n      pop\n    tag_246:\n        /* \"ERC1155_Dropsite.sol\":2245:2307  revert(\"ERC1155: transfer to non ERC1155Receiver implementer\") */\n      mload(0x40)\n      0x08c379a000000000000000000000000000000000000000000000000000000000\n      dup2\n      mstore\n      0x04\n      add\n      tag_255\n      swap1\n      tag_256\n      jump\t// in\n    tag_255:\n      mload(0x40)\n      dup1\n      swap2\n      sub\n      swap1\n      revert\n        /* \"ERC1155_Dropsite.sol\":1851:2322  try IERC1155Receiver(to).onERC1155Received(operator, from, id, amount, data) returns (bytes4 response) {... */\n    tag_244:\n        /* \"ERC1155_Dropsite.sol\":1988:2031  IERC1155Receiver.onERC1155Received.selector */\n      shl(0xe0, 0xf23a6e61)\n        /* \"ERC1155_Dropsite.sol\":1976:2031  response != IERC1155Receiver.onERC1155Received.selector */\n      not(0xffffffffffffffffffffffffffffffffffffffffffffffffffffffff)\n      and\n        /* \"ERC1155_Dropsite.sol\":1976:1984  response */\n      dup2\n        /* \"ERC1155_Dropsite.sol\":1976:2031  response != IERC1155Receiver.onERC1155Received.selector */\n      not(0xffffffffffffffffffffffffffffffffffffffffffffffffffffffff)\n      and\n      eq\n        /* \"ERC1155_Dropsite.sol\":1972:2124  if (response != IERC1155Receiver.onERC1155Received.selector) {... */\n      tag_258\n      jumpi\n        /* \"ERC1155_Dropsite.sol\":2055:2105  revert(\"ERC1155: ERC1155Receiver rejected tokens\") */\n      mload(0x40)\n      0x08c379a000000000000000000000000000000000000000000000000000000000\n      dup2\n      mstore\n      0x04\n      add\n      tag_259\n      swap1\n      tag_260\n      jump\t// in\n    tag_259:\n      mload(0x40)\n      dup1\n      swap2\n      sub\n      swap1\n      revert\n        /* \"ERC1155_Dropsite.sol\":1972:2124  if (response != IERC1155Receiver.onERC1155Received.selector) {... */\n    tag_258:\n        /* \"ERC1155_Dropsite.sol\":1928:2138  returns (bytes4 response) {... */\n      pop\n        /* \"ERC1155_Dropsite.sol\":1816:2332  if (to.isContract()) {... */\n    tag_237:\n        /* \"ERC1155_Dropsite.sol\":1613:2338  function _doSafeTransferAcceptanceCheck(... */\n      pop\n      pop\n      pop\n      pop\n      pop\n      pop\n      jump\t// out\n        /* \"Address.sol\":771:1148  function isContract(address account) internal view returns (bool) {... */\n    tag_236:\n        /* \"Address.sol\":831:835  bool */\n      0x00\n        /* \"Address.sol\":1034:1046  uint256 size */\n      dup1\n        /* \"Address.sol\":1099:1106  account */\n      dup3\n        /* \"Address.sol\":1087:1107  extcodesize(account) */\n      extcodesize\n        /* \"Address.sol\":1079:1107  size := extcodesize(account) */\n      swap1\n      pop\n        /* \"Address.sol\":1140:1141  0 */\n      0x00\n        /* \"Address.sol\":1133:1137  size */\n      dup2\n        /* \"Address.sol\":1133:1141  size > 0 */\n      gt\n        /* \"Address.sol\":1126:1141  return size > 0 */\n      swap2\n      pop\n      pop\n        /* \"Address.sol\":771:1148  function isContract(address account) internal view returns (bool) {... */\n      swap2\n      swap1\n      pop\n      jump\t// out\n    tag_183:\n      dup3\n      dup1\n      sload\n      tag_262\n      swap1\n      tag_106\n      jump\t// in\n    tag_262:\n      swap1\n      0x00\n      mstore\n      keccak256(0x00, 0x20)\n      swap1\n      0x1f\n      add\n      0x20\n      swap1\n      div\n      dup2\n      add\n      swap3\n      dup3\n      tag_264\n      jumpi\n      0x00\n      dup6\n      sstore\n      jump(tag_263)\n    tag_264:\n      dup3\n      0x1f\n      lt\n      tag_265\n      jumpi\n      dup1\n      mload\n      not(0xff)\n      and\n      dup4\n      dup1\n      add\n      or\n      dup6\n      sstore\n      jump(tag_263)\n    tag_265:\n      dup3\n      dup1\n      add\n      0x01\n      add\n      dup6\n      sstore\n      dup3\n      iszero\n      tag_263\n      jumpi\n      swap2\n      dup3\n      add\n    tag_266:\n      dup3\n      dup2\n      gt\n      iszero\n      tag_267\n      jumpi\n      dup3\n      mload\n      dup3\n      sstore\n      swap2\n      0x20\n      add\n      swap2\n      swap1\n      0x01\n      add\n      swap1\n      jump(tag_266)\n    tag_267:\n    tag_263:\n      pop\n      swap1\n      pop\n      tag_268\n      swap2\n      swap1\n      tag_269\n      jump\t// in\n    tag_268:\n      pop\n      swap1\n      jump\t// out\n    tag_189:\n      dup3\n      dup1\n      sload\n      tag_270\n      swap1\n      tag_106\n      jump\t// in\n    tag_270:\n      swap1\n      0x00\n      mstore\n      keccak256(0x00, 0x20)\n      swap1\n      0x1f\n      add\n      0x20\n      swap1\n      div\n      dup2\n      add\n      swap3\n      dup3\n      tag_272\n      jumpi\n      0x00\n      dup6\n      sstore\n      jump(tag_271)\n    tag_272:\n      dup3\n      0x1f\n      lt\n      tag_273\n      jumpi\n      dup1\n      mload\n      not(0xff)\n      and\n      dup4\n      dup1\n      add\n      or\n      dup6\n      sstore\n      jump(tag_271)\n    tag_273:\n      dup3\n      dup1\n      add\n      0x01\n      add\n      dup6\n      sstore\n      dup3\n      iszero\n      tag_271\n      jumpi\n      swap2\n      dup3\n      add\n    tag_274:\n      dup3\n      dup2\n      gt\n      iszero\n      tag_275\n      jumpi\n      dup3\n      mload\n      dup3\n      sstore\n      swap2\n      0x20\n      add\n      swap2\n      swap1\n      0x01\n      add\n      swap1\n      jump(tag_274)\n    tag_275:\n    tag_271:\n      pop\n      swap1\n      pop\n      tag_276\n      swap2\n      swap1\n      tag_269\n      jump\t// in\n    tag_276:\n      pop\n      swap1\n      jump\t// out\n    tag_269:\n    tag_277:\n      dup1\n      dup3\n      gt\n      iszero\n      tag_278\n      jumpi\n      0x00\n      dup2\n      0x00\n      swap1\n      sstore\n      pop\n      0x01\n      add\n      jump(tag_277)\n    tag_278:\n      pop\n      swap1\n      jump\t// out\n        /* \"#utility.yul\":7:146   */\n    tag_280:\n        /* \"#utility.yul\":53:58   */\n      0x00\n        /* \"#utility.yul\":91:97   */\n      dup2\n        /* \"#utility.yul\":78:98   */\n      calldataload\n        /* \"#utility.yul\":69:98   */\n      swap1\n      pop\n        /* \"#utility.yul\":107:140   */\n      tag_282\n        /* \"#utility.yul\":134:139   */\n      dup2\n        /* \"#utility.yul\":107:140   */\n      tag_283\n      jump\t// in\n    tag_282:\n        /* \"#utility.yul\":7:146   */\n      swap3\n      swap2\n      pop\n      pop\n      jump\t// out\n        /* \"#utility.yul\":152:307   */\n    tag_284:\n        /* \"#utility.yul\":206:211   */\n      0x00\n        /* \"#utility.yul\":244:250   */\n      dup2\n        /* \"#utility.yul\":231:251   */\n      calldataload\n        /* \"#utility.yul\":222:251   */\n      swap1\n      pop\n        /* \"#utility.yul\":260:301   */\n      tag_286\n        /* \"#utility.yul\":295:300   */\n      dup2\n        /* \"#utility.yul\":260:301   */\n      tag_287\n      jump\t// in\n    tag_286:\n        /* \"#utility.yul\":152:307   */\n      swap3\n      swap2\n      pop\n      pop\n      jump\t// out\n        /* \"#utility.yul\":313:454   */\n    tag_288:\n        /* \"#utility.yul\":369:374   */\n      0x00\n        /* \"#utility.yul\":400:406   */\n      dup2\n        /* \"#utility.yul\":394:407   */\n      mload\n        /* \"#utility.yul\":385:407   */\n      swap1\n      pop\n        /* \"#utility.yul\":416:448   */\n      tag_290\n        /* \"#utility.yul\":442:447   */\n      dup2\n        /* \"#utility.yul\":416:448   */\n      tag_291\n      jump\t// in\n    tag_290:\n        /* \"#utility.yul\":313:454   */\n      swap3\n      swap2\n      pop\n      pop\n      jump\t// out\n        /* \"#utility.yul\":460:789   */\n    tag_34:\n        /* \"#utility.yul\":519:525   */\n      0x00\n        /* \"#utility.yul\":568:570   */\n      0x20\n        /* \"#utility.yul\":556:565   */\n      dup3\n        /* \"#utility.yul\":547:554   */\n      dup5\n        /* \"#utility.yul\":543:566   */\n      sub\n        /* \"#utility.yul\":539:571   */\n      slt\n        /* \"#utility.yul\":536:655   */\n      iszero\n      tag_293\n      jumpi\n        /* \"#utility.yul\":574:653   */\n      tag_294\n      tag_295\n      jump\t// in\n    tag_294:\n        /* \"#utility.yul\":536:655   */\n    tag_293:\n        /* \"#utility.yul\":694:695   */\n      0x00\n        /* \"#utility.yul\":719:772   */\n      tag_296\n        /* \"#utility.yul\":764:771   */\n      dup5\n        /* \"#utility.yul\":755:761   */\n      dup3\n        /* \"#utility.yul\":744:753   */\n      dup6\n        /* \"#utility.yul\":740:762   */\n      add\n        /* \"#utility.yul\":719:772   */\n      tag_280\n      jump\t// in\n    tag_296:\n        /* \"#utility.yul\":709:772   */\n      swap2\n      pop\n        /* \"#utility.yul\":665:782   */\n      pop\n        /* \"#utility.yul\":460:789   */\n      swap3\n      swap2\n      pop\n      pop\n      jump\t// out\n        /* \"#utility.yul\":795:1140   */\n    tag_21:\n        /* \"#utility.yul\":862:868   */\n      0x00\n        /* \"#utility.yul\":911:913   */\n      0x20\n        /* \"#utility.yul\":899:908   */\n      dup3\n        /* \"#utility.yul\":890:897   */\n      dup5\n        /* \"#utility.yul\":886:909   */\n      sub\n        /* \"#utility.yul\":882:914   */\n      slt\n        /* \"#utility.yul\":879:998   */\n      iszero\n      tag_298\n      jumpi\n        /* \"#utility.yul\":917:996   */\n      tag_299\n      tag_295\n      jump\t// in\n    tag_299:\n        /* \"#utility.yul\":879:998   */\n    tag_298:\n        /* \"#utility.yul\":1037:1038   */\n      0x00\n        /* \"#utility.yul\":1062:1123   */\n      tag_300\n        /* \"#utility.yul\":1115:1122   */\n      dup5\n        /* \"#utility.yul\":1106:1112   */\n      dup3\n        /* \"#utility.yul\":1095:1104   */\n      dup6\n        /* \"#utility.yul\":1091:1113   */\n      add\n        /* \"#utility.yul\":1062:1123   */\n      tag_284\n      jump\t// in\n    tag_300:\n        /* \"#utility.yul\":1052:1123   */\n      swap2\n      pop\n        /* \"#utility.yul\":1008:1133   */\n      pop\n        /* \"#utility.yul\":795:1140   */\n      swap3\n      swap2\n      pop\n      pop\n      jump\t// out\n        /* \"#utility.yul\":1146:1495   */\n    tag_243:\n        /* \"#utility.yul\":1215:1221   */\n      0x00\n        /* \"#utility.yul\":1264:1266   */\n      0x20\n        /* \"#utility.yul\":1252:1261   */\n      dup3\n        /* \"#utility.yul\":1243:1250   */\n      dup5\n        /* \"#utility.yul\":1239:1262   */\n      sub\n        /* \"#utility.yul\":1235:1267   */\n      slt\n        /* \"#utility.yul\":1232:1351   */\n      iszero\n      tag_302\n      jumpi\n        /* \"#utility.yul\":1270:1349   */\n      tag_303\n      tag_295\n      jump\t// in\n    tag_303:\n        /* \"#utility.yul\":1232:1351   */\n    tag_302:\n        /* \"#utility.yul\":1390:1391   */\n      0x00\n        /* \"#utility.yul\":1415:1478   */\n      tag_304\n        /* \"#utility.yul\":1470:1477   */\n      dup5\n        /* \"#utility.yul\":1461:1467   */\n      dup3\n        /* \"#utility.yul\":1450:1459   */\n      dup6\n        /* \"#utility.yul\":1446:1468   */\n      add\n        /* \"#utility.yul\":1415:1478   */\n      tag_288\n      jump\t// in\n    tag_304:\n        /* \"#utility.yul\":1405:1478   */\n      swap2\n      pop\n        /* \"#utility.yul\":1361:1488   */\n      pop\n        /* \"#utility.yul\":1146:1495   */\n      swap3\n      swap2\n      pop\n      pop\n      jump\t// out\n        /* \"#utility.yul\":1501:1680   */\n    tag_305:\n        /* \"#utility.yul\":1570:1580   */\n      0x00\n        /* \"#utility.yul\":1591:1637   */\n      tag_307\n        /* \"#utility.yul\":1633:1636   */\n      dup4\n        /* \"#utility.yul\":1625:1631   */\n      dup4\n        /* \"#utility.yul\":1591:1637   */\n      tag_308\n      jump\t// in\n    tag_307:\n        /* \"#utility.yul\":1669:1673   */\n      0x20\n        /* \"#utility.yul\":1664:1667   */\n      dup4\n        /* \"#utility.yul\":1660:1674   */\n      add\n        /* \"#utility.yul\":1646:1674   */\n      swap1\n      pop\n        /* \"#utility.yul\":1501:1680   */\n      swap3\n      swap2\n      pop\n      pop\n      jump\t// out\n        /* \"#utility.yul\":1686:1828   */\n    tag_309:\n        /* \"#utility.yul\":1789:1821   */\n      tag_311\n        /* \"#utility.yul\":1815:1820   */\n      dup2\n        /* \"#utility.yul\":1789:1821   */\n      tag_312\n      jump\t// in\n    tag_311:\n        /* \"#utility.yul\":1784:1787   */\n      dup3\n        /* \"#utility.yul\":1777:1822   */\n      mstore\n        /* \"#utility.yul\":1686:1828   */\n      pop\n      pop\n      jump\t// out\n        /* \"#utility.yul\":1834:1952   */\n    tag_313:\n        /* \"#utility.yul\":1921:1945   */\n      tag_315\n        /* \"#utility.yul\":1939:1944   */\n      dup2\n        /* \"#utility.yul\":1921:1945   */\n      tag_316\n      jump\t// in\n    tag_315:\n        /* \"#utility.yul\":1916:1919   */\n      dup3\n        /* \"#utility.yul\":1909:1946   */\n      mstore\n        /* \"#utility.yul\":1834:1952   */\n      pop\n      pop\n      jump\t// out\n        /* \"#utility.yul\":1958:2115   */\n    tag_317:\n        /* \"#utility.yul\":2063:2108   */\n      tag_319\n        /* \"#utility.yul\":2083:2107   */\n      tag_320\n        /* \"#utility.yul\":2101:2106   */\n      dup3\n        /* \"#utility.yul\":2083:2107   */\n      tag_316\n      jump\t// in\n    tag_320:\n        /* \"#utility.yul\":2063:2108   */\n      tag_321\n      jump\t// in\n    tag_319:\n        /* \"#utility.yul\":2058:2061   */\n      dup3\n        /* \"#utility.yul\":2051:2109   */\n      mstore\n        /* \"#utility.yul\":1958:2115   */\n      pop\n      pop\n      jump\t// out\n        /* \"#utility.yul\":2151:2883   */\n    tag_322:\n        /* \"#utility.yul\":2270:2273   */\n      0x00\n        /* \"#utility.yul\":2299:2353   */\n      tag_324\n        /* \"#utility.yul\":2347:2352   */\n      dup3\n        /* \"#utility.yul\":2299:2353   */\n      tag_325\n      jump\t// in\n    tag_324:\n        /* \"#utility.yul\":2369:2455   */\n      tag_326\n        /* \"#utility.yul\":2448:2454   */\n      dup2\n        /* \"#utility.yul\":2443:2446   */\n      dup6\n        /* \"#utility.yul\":2369:2455   */\n      tag_327\n      jump\t// in\n    tag_326:\n        /* \"#utility.yul\":2362:2455   */\n      swap4\n      pop\n        /* \"#utility.yul\":2479:2535   */\n      tag_328\n        /* \"#utility.yul\":2529:2534   */\n      dup4\n        /* \"#utility.yul\":2479:2535   */\n      tag_329\n      jump\t// in\n    tag_328:\n        /* \"#utility.yul\":2558:2565   */\n      dup1\n        /* \"#utility.yul\":2589:2590   */\n      0x00\n        /* \"#utility.yul\":2574:2858   */\n    tag_330:\n        /* \"#utility.yul\":2599:2605   */\n      dup4\n        /* \"#utility.yul\":2596:2597   */\n      dup2\n        /* \"#utility.yul\":2593:2606   */\n      lt\n        /* \"#utility.yul\":2574:2858   */\n      iszero\n      tag_332\n      jumpi\n        /* \"#utility.yul\":2675:2681   */\n      dup2\n        /* \"#utility.yul\":2669:2682   */\n      mload\n        /* \"#utility.yul\":2702:2765   */\n      tag_333\n        /* \"#utility.yul\":2761:2764   */\n      dup9\n        /* \"#utility.yul\":2746:2759   */\n      dup3\n        /* \"#utility.yul\":2702:2765   */\n      tag_305\n      jump\t// in\n    tag_333:\n        /* \"#utility.yul\":2695:2765   */\n      swap8\n      pop\n        /* \"#utility.yul\":2788:2848   */\n      tag_334\n        /* \"#utility.yul\":2841:2847   */\n      dup4\n        /* \"#utility.yul\":2788:2848   */\n      tag_335\n      jump\t// in\n    tag_334:\n        /* \"#utility.yul\":2778:2848   */\n      swap3\n      pop\n        /* \"#utility.yul\":2634:2858   */\n      pop\n        /* \"#utility.yul\":2621:2622   */\n      0x01\n        /* \"#utility.yul\":2618:2619   */\n      dup2\n        /* \"#utility.yul\":2614:2623   */\n      add\n        /* \"#utility.yul\":2609:2623   */\n      swap1\n      pop\n        /* \"#utility.yul\":2574:2858   */\n      jump(tag_330)\n    tag_332:\n        /* \"#utility.yul\":2578:2592   */\n      pop\n        /* \"#utility.yul\":2874:2877   */\n      dup6\n        /* \"#utility.yul\":2867:2877   */\n      swap4\n      pop\n        /* \"#utility.yul\":2275:2883   */\n      pop\n      pop\n      pop\n        /* \"#utility.yul\":2151:2883   */\n      swap3\n      swap2\n      pop\n      pop\n      jump\t// out\n        /* \"#utility.yul\":2889:2998   */\n    tag_336:\n        /* \"#utility.yul\":2970:2991   */\n      tag_338\n        /* \"#utility.yul\":2985:2990   */\n      dup2\n        /* \"#utility.yul\":2970:2991   */\n      tag_339\n      jump\t// in\n    tag_338:\n        /* \"#utility.yul\":2965:2968   */\n      dup3\n        /* \"#utility.yul\":2958:2992   */\n      mstore\n        /* \"#utility.yul\":2889:2998   */\n      pop\n      pop\n      jump\t// out\n        /* \"#utility.yul\":3004:3364   */\n    tag_340:\n        /* \"#utility.yul\":3090:3093   */\n      0x00\n        /* \"#utility.yul\":3118:3156   */\n      tag_342\n        /* \"#utility.yul\":3150:3155   */\n      dup3\n        /* \"#utility.yul\":3118:3156   */\n      tag_343\n      jump\t// in\n    tag_342:\n        /* \"#utility.yul\":3172:3242   */\n      tag_344\n        /* \"#utility.yul\":3235:3241   */\n      dup2\n        /* \"#utility.yul\":3230:3233   */\n      dup6\n        /* \"#utility.yul\":3172:3242   */\n      tag_345\n      jump\t// in\n    tag_344:\n        /* \"#utility.yul\":3165:3242   */\n      swap4\n      pop\n        /* \"#utility.yul\":3251:3303   */\n      tag_346\n        /* \"#utility.yul\":3296:3302   */\n      dup2\n        /* \"#utility.yul\":3291:3294   */\n      dup6\n        /* \"#utility.yul\":3284:3288   */\n      0x20\n        /* \"#utility.yul\":3277:3282   */\n      dup7\n        /* \"#utility.yul\":3273:3289   */\n      add\n        /* \"#utility.yul\":3251:3303   */\n      tag_347\n      jump\t// in\n    tag_346:\n        /* \"#utility.yul\":3328:3357   */\n      tag_348\n        /* \"#utility.yul\":3350:3356   */\n      dup2\n        /* \"#utility.yul\":3328:3357   */\n      tag_349\n      jump\t// in\n    tag_348:\n        /* \"#utility.yul\":3323:3326   */\n      dup5\n        /* \"#utility.yul\":3319:3358   */\n      add\n        /* \"#utility.yul\":3312:3358   */\n      swap2\n      pop\n        /* \"#utility.yul\":3094:3364   */\n      pop\n        /* \"#utility.yul\":3004:3364   */\n      swap3\n      swap2\n      pop\n      pop\n      jump\t// out\n        /* \"#utility.yul\":3370:3734   */\n    tag_350:\n        /* \"#utility.yul\":3458:3461   */\n      0x00\n        /* \"#utility.yul\":3486:3525   */\n      tag_352\n        /* \"#utility.yul\":3519:3524   */\n      dup3\n        /* \"#utility.yul\":3486:3525   */\n      tag_353\n      jump\t// in\n    tag_352:\n        /* \"#utility.yul\":3541:3612   */\n      tag_354\n        /* \"#utility.yul\":3605:3611   */\n      dup2\n        /* \"#utility.yul\":3600:3603   */\n      dup6\n        /* \"#utility.yul\":3541:3612   */\n      tag_355\n      jump\t// in\n    tag_354:\n        /* \"#utility.yul\":3534:3612   */\n      swap4\n      pop\n        /* \"#utility.yul\":3621:3673   */\n      tag_356\n        /* \"#utility.yul\":3666:3672   */\n      dup2\n        /* \"#utility.yul\":3661:3664   */\n      dup6\n        /* \"#utility.yul\":3654:3658   */\n      0x20\n        /* \"#utility.yul\":3647:3652   */\n      dup7\n        /* \"#utility.yul\":3643:3659   */\n      add\n        /* \"#utility.yul\":3621:3673   */\n      tag_347\n      jump\t// in\n    tag_356:\n        /* \"#utility.yul\":3698:3727   */\n      tag_357\n        /* \"#utility.yul\":3720:3726   */\n      dup2\n        /* \"#utility.yul\":3698:3727   */\n      tag_349\n      jump\t// in\n    tag_357:\n        /* \"#utility.yul\":3693:3696   */\n      dup5\n        /* \"#utility.yul\":3689:3728   */\n      add\n        /* \"#utility.yul\":3682:3728   */\n      swap2\n      pop\n        /* \"#utility.yul\":3462:3734   */\n      pop\n        /* \"#utility.yul\":3370:3734   */\n      swap3\n      swap2\n      pop\n      pop\n      jump\t// out\n        /* \"#utility.yul\":3740:4106   */\n    tag_358:\n        /* \"#utility.yul\":3882:3885   */\n      0x00\n        /* \"#utility.yul\":3903:3970   */\n      tag_360\n        /* \"#utility.yul\":3967:3969   */\n      0x34\n        /* \"#utility.yul\":3962:3965   */\n      dup4\n        /* \"#utility.yul\":3903:3970   */\n      tag_355\n      jump\t// in\n    tag_360:\n        /* \"#utility.yul\":3896:3970   */\n      swap2\n      pop\n        /* \"#utility.yul\":3979:4072   */\n      tag_361\n        /* \"#utility.yul\":4068:4071   */\n      dup3\n        /* \"#utility.yul\":3979:4072   */\n      tag_362\n      jump\t// in\n    tag_361:\n        /* \"#utility.yul\":4097:4099   */\n      0x40\n        /* \"#utility.yul\":4092:4095   */\n      dup3\n        /* \"#utility.yul\":4088:4100   */\n      add\n        /* \"#utility.yul\":4081:4100   */\n      swap1\n      pop\n        /* \"#utility.yul\":3740:4106   */\n      swap2\n      swap1\n      pop\n      jump\t// out\n        /* \"#utility.yul\":4112:4478   */\n    tag_363:\n        /* \"#utility.yul\":4254:4257   */\n      0x00\n        /* \"#utility.yul\":4275:4342   */\n      tag_365\n        /* \"#utility.yul\":4339:4341   */\n      0x28\n        /* \"#utility.yul\":4334:4337   */\n      dup4\n        /* \"#utility.yul\":4275:4342   */\n      tag_355\n      jump\t// in\n    tag_365:\n        /* \"#utility.yul\":4268:4342   */\n      swap2\n      pop\n        /* \"#utility.yul\":4351:4444   */\n      tag_366\n        /* \"#utility.yul\":4440:4443   */\n      dup3\n        /* \"#utility.yul\":4351:4444   */\n      tag_367\n      jump\t// in\n    tag_366:\n        /* \"#utility.yul\":4469:4471   */\n      0x40\n        /* \"#utility.yul\":4464:4467   */\n      dup3\n        /* \"#utility.yul\":4460:4472   */\n      add\n        /* \"#utility.yul\":4453:4472   */\n      swap1\n      pop\n        /* \"#utility.yul\":4112:4478   */\n      swap2\n      swap1\n      pop\n      jump\t// out\n        /* \"#utility.yul\":4484:4884   */\n    tag_368:\n        /* \"#utility.yul\":4644:4647   */\n      0x00\n        /* \"#utility.yul\":4665:4749   */\n      tag_370\n        /* \"#utility.yul\":4747:4748   */\n      0x08\n        /* \"#utility.yul\":4742:4745   */\n      dup4\n        /* \"#utility.yul\":4665:4749   */\n      tag_371\n      jump\t// in\n    tag_370:\n        /* \"#utility.yul\":4658:4749   */\n      swap2\n      pop\n        /* \"#utility.yul\":4758:4851   */\n      tag_372\n        /* \"#utility.yul\":4847:4850   */\n      dup3\n        /* \"#utility.yul\":4758:4851   */\n      tag_373\n      jump\t// in\n    tag_372:\n        /* \"#utility.yul\":4876:4877   */\n      0x08\n        /* \"#utility.yul\":4871:4874   */\n      dup3\n        /* \"#utility.yul\":4867:4878   */\n      add\n        /* \"#utility.yul\":4860:4878   */\n      swap1\n      pop\n        /* \"#utility.yul\":4484:4884   */\n      swap2\n      swap1\n      pop\n      jump\t// out\n        /* \"#utility.yul\":4890:5256   */\n    tag_374:\n        /* \"#utility.yul\":5032:5035   */\n      0x00\n        /* \"#utility.yul\":5053:5120   */\n      tag_376\n        /* \"#utility.yul\":5117:5119   */\n      0x19\n        /* \"#utility.yul\":5112:5115   */\n      dup4\n        /* \"#utility.yul\":5053:5120   */\n      tag_355\n      jump\t// in\n    tag_376:\n        /* \"#utility.yul\":5046:5120   */\n      swap2\n      pop\n        /* \"#utility.yul\":5129:5222   */\n      tag_377\n        /* \"#utility.yul\":5218:5221   */\n      dup3\n        /* \"#utility.yul\":5129:5222   */\n      tag_378\n      jump\t// in\n    tag_377:\n        /* \"#utility.yul\":5247:5249   */\n      0x20\n        /* \"#utility.yul\":5242:5245   */\n      dup3\n        /* \"#utility.yul\":5238:5250   */\n      add\n        /* \"#utility.yul\":5231:5250   */\n      swap1\n      pop\n        /* \"#utility.yul\":4890:5256   */\n      swap2\n      swap1\n      pop\n      jump\t// out\n        /* \"#utility.yul\":5262:5628   */\n    tag_379:\n        /* \"#utility.yul\":5404:5407   */\n      0x00\n        /* \"#utility.yul\":5425:5492   */\n      tag_381\n        /* \"#utility.yul\":5489:5491   */\n      0x1b\n        /* \"#utility.yul\":5484:5487   */\n      dup4\n        /* \"#utility.yul\":5425:5492   */\n      tag_355\n      jump\t// in\n    tag_381:\n        /* \"#utility.yul\":5418:5492   */\n      swap2\n      pop\n        /* \"#utility.yul\":5501:5594   */\n      tag_382\n        /* \"#utility.yul\":5590:5593   */\n      dup3\n        /* \"#utility.yul\":5501:5594   */\n      tag_383\n      jump\t// in\n    tag_382:\n        /* \"#utility.yul\":5619:5621   */\n      0x20\n        /* \"#utility.yul\":5614:5617   */\n      dup3\n        /* \"#utility.yul\":5610:5622   */\n      add\n        /* \"#utility.yul\":5603:5622   */\n      swap1\n      pop\n        /* \"#utility.yul\":5262:5628   */\n      swap2\n      swap1\n      pop\n      jump\t// out\n        /* \"#utility.yul\":5634:6000   */\n    tag_384:\n        /* \"#utility.yul\":5776:5779   */\n      0x00\n        /* \"#utility.yul\":5797:5864   */\n      tag_386\n        /* \"#utility.yul\":5861:5863   */\n      0x1b\n        /* \"#utility.yul\":5856:5859   */\n      dup4\n        /* \"#utility.yul\":5797:5864   */\n      tag_355\n      jump\t// in\n    tag_386:\n        /* \"#utility.yul\":5790:5864   */\n      swap2\n      pop\n        /* \"#utility.yul\":5873:5966   */\n      tag_387\n        /* \"#utility.yul\":5962:5965   */\n      dup3\n        /* \"#utility.yul\":5873:5966   */\n      tag_388\n      jump\t// in\n    tag_387:\n        /* \"#utility.yul\":5991:5993   */\n      0x20\n        /* \"#utility.yul\":5986:5989   */\n      dup3\n        /* \"#utility.yul\":5982:5994   */\n      add\n        /* \"#utility.yul\":5975:5994   */\n      swap1\n      pop\n        /* \"#utility.yul\":5634:6000   */\n      swap2\n      swap1\n      pop\n      jump\t// out\n        /* \"#utility.yul\":6006:6372   */\n    tag_389:\n        /* \"#utility.yul\":6148:6151   */\n      0x00\n        /* \"#utility.yul\":6169:6236   */\n      tag_391\n        /* \"#utility.yul\":6233:6235   */\n      0x1c\n        /* \"#utility.yul\":6228:6231   */\n      dup4\n        /* \"#utility.yul\":6169:6236   */\n      tag_355\n      jump\t// in\n    tag_391:\n        /* \"#utility.yul\":6162:6236   */\n      swap2\n      pop\n        /* \"#utility.yul\":6245:6338   */\n      tag_392\n        /* \"#utility.yul\":6334:6337   */\n      dup3\n        /* \"#utility.yul\":6245:6338   */\n      tag_393\n      jump\t// in\n    tag_392:\n        /* \"#utility.yul\":6363:6365   */\n      0x20\n        /* \"#utility.yul\":6358:6361   */\n      dup3\n        /* \"#utility.yul\":6354:6366   */\n      add\n        /* \"#utility.yul\":6347:6366   */\n      swap1\n      pop\n        /* \"#utility.yul\":6006:6372   */\n      swap2\n      swap1\n      pop\n      jump\t// out\n        /* \"#utility.yul\":6378:6744   */\n    tag_394:\n        /* \"#utility.yul\":6520:6523   */\n      0x00\n        /* \"#utility.yul\":6541:6608   */\n      tag_396\n        /* \"#utility.yul\":6605:6607   */\n      0x1b\n        /* \"#utility.yul\":6600:6603   */\n      dup4\n        /* \"#utility.yul\":6541:6608   */\n      tag_355\n      jump\t// in\n    tag_396:\n        /* \"#utility.yul\":6534:6608   */\n      swap2\n      pop\n        /* \"#utility.yul\":6617:6710   */\n      tag_397\n        /* \"#utility.yul\":6706:6709   */\n      dup3\n        /* \"#utility.yul\":6617:6710   */\n      tag_398\n      jump\t// in\n    tag_397:\n        /* \"#utility.yul\":6735:6737   */\n      0x20\n        /* \"#utility.yul\":6730:6733   */\n      dup3\n        /* \"#utility.yul\":6726:6738   */\n      add\n        /* \"#utility.yul\":6719:6738   */\n      swap1\n      pop\n        /* \"#utility.yul\":6378:6744   */\n      swap2\n      swap1\n      pop\n      jump\t// out\n        /* \"#utility.yul\":6750:7116   */\n    tag_399:\n        /* \"#utility.yul\":6892:6895   */\n      0x00\n        /* \"#utility.yul\":6913:6980   */\n      tag_401\n        /* \"#utility.yul\":6977:6979   */\n      0x19\n        /* \"#utility.yul\":6972:6975   */\n      dup4\n        /* \"#utility.yul\":6913:6980   */\n      tag_355\n      jump\t// in\n    tag_401:\n        /* \"#utility.yul\":6906:6980   */\n      swap2\n      pop\n        /* \"#utility.yul\":6989:7082   */\n      tag_402\n        /* \"#utility.yul\":7078:7081   */\n      dup3\n        /* \"#utility.yul\":6989:7082   */\n      tag_403\n      jump\t// in\n    tag_402:\n        /* \"#utility.yul\":7107:7109   */\n      0x20\n        /* \"#utility.yul\":7102:7105   */\n      dup3\n        /* \"#utility.yul\":7098:7110   */\n      add\n        /* \"#utility.yul\":7091:7110   */\n      swap1\n      pop\n        /* \"#utility.yul\":6750:7116   */\n      swap2\n      swap1\n      pop\n      jump\t// out\n        /* \"#utility.yul\":7122:7488   */\n    tag_404:\n        /* \"#utility.yul\":7264:7267   */\n      0x00\n        /* \"#utility.yul\":7285:7352   */\n      tag_406\n        /* \"#utility.yul\":7349:7351   */\n      0x1d\n        /* \"#utility.yul\":7344:7347   */\n      dup4\n        /* \"#utility.yul\":7285:7352   */\n      tag_355\n      jump\t// in\n    tag_406:\n        /* \"#utility.yul\":7278:7352   */\n      swap2\n      pop\n        /* \"#utility.yul\":7361:7454   */\n      tag_407\n        /* \"#utility.yul\":7450:7453   */\n      dup3\n        /* \"#utility.yul\":7361:7454   */\n      tag_408\n      jump\t// in\n    tag_407:\n        /* \"#utility.yul\":7479:7481   */\n      0x20\n        /* \"#utility.yul\":7474:7477   */\n      dup3\n        /* \"#utility.yul\":7470:7482   */\n      add\n        /* \"#utility.yul\":7463:7482   */\n      swap1\n      pop\n        /* \"#utility.yul\":7122:7488   */\n      swap2\n      swap1\n      pop\n      jump\t// out\n        /* \"#utility.yul\":7494:7860   */\n    tag_409:\n        /* \"#utility.yul\":7636:7639   */\n      0x00\n        /* \"#utility.yul\":7657:7724   */\n      tag_411\n        /* \"#utility.yul\":7721:7723   */\n      0x21\n        /* \"#utility.yul\":7716:7719   */\n      dup4\n        /* \"#utility.yul\":7657:7724   */\n      tag_355\n      jump\t// in\n    tag_411:\n        /* \"#utility.yul\":7650:7724   */\n      swap2\n      pop\n        /* \"#utility.yul\":7733:7826   */\n      tag_412\n        /* \"#utility.yul\":7822:7825   */\n      dup3\n        /* \"#utility.yul\":7733:7826   */\n      tag_413\n      jump\t// in\n    tag_412:\n        /* \"#utility.yul\":7851:7853   */\n      0x40\n        /* \"#utility.yul\":7846:7849   */\n      dup3\n        /* \"#utility.yul\":7842:7854   */\n      add\n        /* \"#utility.yul\":7835:7854   */\n      swap1\n      pop\n        /* \"#utility.yul\":7494:7860   */\n      swap2\n      swap1\n      pop\n      jump\t// out\n        /* \"#utility.yul\":7866:7974   */\n    tag_308:\n        /* \"#utility.yul\":7943:7967   */\n      tag_415\n        /* \"#utility.yul\":7961:7966   */\n      dup2\n        /* \"#utility.yul\":7943:7967   */\n      tag_416\n      jump\t// in\n    tag_415:\n        /* \"#utility.yul\":7938:7941   */\n      dup3\n        /* \"#utility.yul\":7931:7968   */\n      mstore\n        /* \"#utility.yul\":7866:7974   */\n      pop\n      pop\n      jump\t// out\n        /* \"#utility.yul\":7980:8098   */\n    tag_417:\n        /* \"#utility.yul\":8067:8091   */\n      tag_419\n        /* \"#utility.yul\":8085:8090   */\n      dup2\n        /* \"#utility.yul\":8067:8091   */\n      tag_416\n      jump\t// in\n    tag_419:\n        /* \"#utility.yul\":8062:8065   */\n      dup3\n        /* \"#utility.yul\":8055:8092   */\n      mstore\n        /* \"#utility.yul\":7980:8098   */\n      pop\n      pop\n      jump\t// out\n        /* \"#utility.yul\":8104:8261   */\n    tag_420:\n        /* \"#utility.yul\":8209:8254   */\n      tag_422\n        /* \"#utility.yul\":8229:8253   */\n      tag_423\n        /* \"#utility.yul\":8247:8252   */\n      dup3\n        /* \"#utility.yul\":8229:8253   */\n      tag_416\n      jump\t// in\n    tag_423:\n        /* \"#utility.yul\":8209:8254   */\n      tag_424\n      jump\t// in\n    tag_422:\n        /* \"#utility.yul\":8204:8207   */\n      dup3\n        /* \"#utility.yul\":8197:8255   */\n      mstore\n        /* \"#utility.yul\":8104:8261   */\n      pop\n      pop\n      jump\t// out\n        /* \"#utility.yul\":8267:8789   */\n    tag_181:\n        /* \"#utility.yul\":8480:8483   */\n      0x00\n        /* \"#utility.yul\":8502:8650   */\n      tag_426\n        /* \"#utility.yul\":8646:8649   */\n      dup3\n        /* \"#utility.yul\":8502:8650   */\n      tag_368\n      jump\t// in\n    tag_426:\n        /* \"#utility.yul\":8495:8650   */\n      swap2\n      pop\n        /* \"#utility.yul\":8660:8735   */\n      tag_427\n        /* \"#utility.yul\":8731:8734   */\n      dup3\n        /* \"#utility.yul\":8722:8728   */\n      dup5\n        /* \"#utility.yul\":8660:8735   */\n      tag_420\n      jump\t// in\n    tag_427:\n        /* \"#utility.yul\":8760:8762   */\n      0x20\n        /* \"#utility.yul\":8755:8758   */\n      dup3\n        /* \"#utility.yul\":8751:8763   */\n      add\n        /* \"#utility.yul\":8744:8763   */\n      swap2\n      pop\n        /* \"#utility.yul\":8780:8783   */\n      dup2\n        /* \"#utility.yul\":8773:8783   */\n      swap1\n      pop\n        /* \"#utility.yul\":8267:8789   */\n      swap3\n      swap2\n      pop\n      pop\n      jump\t// out\n        /* \"#utility.yul\":8795:9192   */\n    tag_223:\n        /* \"#utility.yul\":8935:8938   */\n      0x00\n        /* \"#utility.yul\":8950:9025   */\n      tag_429\n        /* \"#utility.yul\":9021:9024   */\n      dup3\n        /* \"#utility.yul\":9012:9018   */\n      dup6\n        /* \"#utility.yul\":8950:9025   */\n      tag_420\n      jump\t// in\n    tag_429:\n        /* \"#utility.yul\":9050:9052   */\n      0x20\n        /* \"#utility.yul\":9045:9048   */\n      dup3\n        /* \"#utility.yul\":9041:9053   */\n      add\n        /* \"#utility.yul\":9034:9053   */\n      swap2\n      pop\n        /* \"#utility.yul\":9063:9138   */\n      tag_430\n        /* \"#utility.yul\":9134:9137   */\n      dup3\n        /* \"#utility.yul\":9125:9131   */\n      dup5\n        /* \"#utility.yul\":9063:9138   */\n      tag_317\n      jump\t// in\n    tag_430:\n        /* \"#utility.yul\":9163:9165   */\n      0x14\n        /* \"#utility.yul\":9158:9161   */\n      dup3\n        /* \"#utility.yul\":9154:9166   */\n      add\n        /* \"#utility.yul\":9147:9166   */\n      swap2\n      pop\n        /* \"#utility.yul\":9183:9186   */\n      dup2\n        /* \"#utility.yul\":9176:9186   */\n      swap1\n      pop\n        /* \"#utility.yul\":8795:9192   */\n      swap4\n      swap3\n      pop\n      pop\n      pop\n      jump\t// out\n        /* \"#utility.yul\":9198:9452   */\n    tag_58:\n        /* \"#utility.yul\":9307:9311   */\n      0x00\n        /* \"#utility.yul\":9345:9347   */\n      0x20\n        /* \"#utility.yul\":9334:9343   */\n      dup3\n        /* \"#utility.yul\":9330:9348   */\n      add\n        /* \"#utility.yul\":9322:9348   */\n      swap1\n      pop\n        /* \"#utility.yul\":9358:9445   */\n      tag_432\n        /* \"#utility.yul\":9442:9443   */\n      0x00\n        /* \"#utility.yul\":9431:9440   */\n      dup4\n        /* \"#utility.yul\":9427:9444   */\n      add\n        /* \"#utility.yul\":9418:9424   */\n      dup5\n        /* \"#utility.yul\":9358:9445   */\n      tag_309\n      jump\t// in\n    tag_432:\n        /* \"#utility.yul\":9198:9452   */\n      swap3\n      swap2\n      pop\n      pop\n      jump\t// out\n        /* \"#utility.yul\":9458:10209   */\n    tag_239:\n        /* \"#utility.yul\":9681:9685   */\n      0x00\n        /* \"#utility.yul\":9719:9722   */\n      0xa0\n        /* \"#utility.yul\":9708:9717   */\n      dup3\n        /* \"#utility.yul\":9704:9723   */\n      add\n        /* \"#utility.yul\":9696:9723   */\n      swap1\n      pop\n        /* \"#utility.yul\":9733:9804   */\n      tag_434\n        /* \"#utility.yul\":9801:9802   */\n      0x00\n        /* \"#utility.yul\":9790:9799   */\n      dup4\n        /* \"#utility.yul\":9786:9803   */\n      add\n        /* \"#utility.yul\":9777:9783   */\n      dup9\n        /* \"#utility.yul\":9733:9804   */\n      tag_313\n      jump\t// in\n    tag_434:\n        /* \"#utility.yul\":9814:9886   */\n      tag_435\n        /* \"#utility.yul\":9882:9884   */\n      0x20\n        /* \"#utility.yul\":9871:9880   */\n      dup4\n        /* \"#utility.yul\":9867:9885   */\n      add\n        /* \"#utility.yul\":9858:9864   */\n      dup8\n        /* \"#utility.yul\":9814:9886   */\n      tag_313\n      jump\t// in\n    tag_435:\n        /* \"#utility.yul\":9896:9968   */\n      tag_436\n        /* \"#utility.yul\":9964:9966   */\n      0x40\n        /* \"#utility.yul\":9953:9962   */\n      dup4\n        /* \"#utility.yul\":9949:9967   */\n      add\n        /* \"#utility.yul\":9940:9946   */\n      dup7\n        /* \"#utility.yul\":9896:9968   */\n      tag_417\n      jump\t// in\n    tag_436:\n        /* \"#utility.yul\":9978:10050   */\n      tag_437\n        /* \"#utility.yul\":10046:10048   */\n      0x60\n        /* \"#utility.yul\":10035:10044   */\n      dup4\n        /* \"#utility.yul\":10031:10049   */\n      add\n        /* \"#utility.yul\":10022:10028   */\n      dup6\n        /* \"#utility.yul\":9978:10050   */\n      tag_417\n      jump\t// in\n    tag_437:\n        /* \"#utility.yul\":10098:10107   */\n      dup2\n        /* \"#utility.yul\":10092:10096   */\n      dup2\n        /* \"#utility.yul\":10088:10108   */\n      sub\n        /* \"#utility.yul\":10082:10085   */\n      0x80\n        /* \"#utility.yul\":10071:10080   */\n      dup4\n        /* \"#utility.yul\":10067:10086   */\n      add\n        /* \"#utility.yul\":10060:10109   */\n      mstore\n        /* \"#utility.yul\":10126:10202   */\n      tag_438\n        /* \"#utility.yul\":10197:10201   */\n      dup2\n        /* \"#utility.yul\":10188:10194   */\n      dup5\n        /* \"#utility.yul\":10126:10202   */\n      tag_340\n      jump\t// in\n    tag_438:\n        /* \"#utility.yul\":10118:10202   */\n      swap1\n      pop\n        /* \"#utility.yul\":9458:10209   */\n      swap7\n      swap6\n      pop\n      pop\n      pop\n      pop\n      pop\n      pop\n      jump\t// out\n        /* \"#utility.yul\":10215:10588   */\n    tag_64:\n        /* \"#utility.yul\":10358:10362   */\n      0x00\n        /* \"#utility.yul\":10396:10398   */\n      0x20\n        /* \"#utility.yul\":10385:10394   */\n      dup3\n        /* \"#utility.yul\":10381:10399   */\n      add\n        /* \"#utility.yul\":10373:10399   */\n      swap1\n      pop\n        /* \"#utility.yul\":10445:10454   */\n      dup2\n        /* \"#utility.yul\":10439:10443   */\n      dup2\n        /* \"#utility.yul\":10435:10455   */\n      sub\n        /* \"#utility.yul\":10431:10432   */\n      0x00\n        /* \"#utility.yul\":10420:10429   */\n      dup4\n        /* \"#utility.yul\":10416:10433   */\n      add\n        /* \"#utility.yul\":10409:10456   */\n      mstore\n        /* \"#utility.yul\":10473:10581   */\n      tag_440\n        /* \"#utility.yul\":10576:10580   */\n      dup2\n        /* \"#utility.yul\":10567:10573   */\n      dup5\n        /* \"#utility.yul\":10473:10581   */\n      tag_322\n      jump\t// in\n    tag_440:\n        /* \"#utility.yul\":10465:10581   */\n      swap1\n      pop\n        /* \"#utility.yul\":10215:10588   */\n      swap3\n      swap2\n      pop\n      pop\n      jump\t// out\n        /* \"#utility.yul\":10594:10804   */\n    tag_27:\n        /* \"#utility.yul\":10681:10685   */\n      0x00\n        /* \"#utility.yul\":10719:10721   */\n      0x20\n        /* \"#utility.yul\":10708:10717   */\n      dup3\n        /* \"#utility.yul\":10704:10722   */\n      add\n        /* \"#utility.yul\":10696:10722   */\n      swap1\n      pop\n        /* \"#utility.yul\":10732:10797   */\n      tag_442\n        /* \"#utility.yul\":10794:10795   */\n      0x00\n        /* \"#utility.yul\":10783:10792   */\n      dup4\n        /* \"#utility.yul\":10779:10796   */\n      add\n        /* \"#utility.yul\":10770:10776   */\n      dup5\n        /* \"#utility.yul\":10732:10797   */\n      tag_336\n      jump\t// in\n    tag_442:\n        /* \"#utility.yul\":10594:10804   */\n      swap3\n      swap2\n      pop\n      pop\n      jump\t// out\n        /* \"#utility.yul\":10810:11123   */\n    tag_254:\n        /* \"#utility.yul\":10923:10927   */\n      0x00\n        /* \"#utility.yul\":10961:10963   */\n      0x20\n        /* \"#utility.yul\":10950:10959   */\n      dup3\n        /* \"#utility.yul\":10946:10964   */\n      add\n        /* \"#utility.yul\":10938:10964   */\n      swap1\n      pop\n        /* \"#utility.yul\":11010:11019   */\n      dup2\n        /* \"#utility.yul\":11004:11008   */\n      dup2\n        /* \"#utility.yul\":11000:11020   */\n      sub\n        /* \"#utility.yul\":10996:10997   */\n      0x00\n        /* \"#utility.yul\":10985:10994   */\n      dup4\n        /* \"#utility.yul\":10981:10998   */\n      add\n        /* \"#utility.yul\":10974:11021   */\n      mstore\n        /* \"#utility.yul\":11038:11116   */\n      tag_444\n        /* \"#utility.yul\":11111:11115   */\n      dup2\n        /* \"#utility.yul\":11102:11108   */\n      dup5\n        /* \"#utility.yul\":11038:11116   */\n      tag_350\n      jump\t// in\n    tag_444:\n        /* \"#utility.yul\":11030:11116   */\n      swap1\n      pop\n        /* \"#utility.yul\":10810:11123   */\n      swap3\n      swap2\n      pop\n      pop\n      jump\t// out\n        /* \"#utility.yul\":11129:11548   */\n    tag_256:\n        /* \"#utility.yul\":11295:11299   */\n      0x00\n        /* \"#utility.yul\":11333:11335   */\n      0x20\n        /* \"#utility.yul\":11322:11331   */\n      dup3\n        /* \"#utility.yul\":11318:11336   */\n      add\n        /* \"#utility.yul\":11310:11336   */\n      swap1\n      pop\n        /* \"#utility.yul\":11382:11391   */\n      dup2\n        /* \"#utility.yul\":11376:11380   */\n      dup2\n        /* \"#utility.yul\":11372:11392   */\n      sub\n        /* \"#utility.yul\":11368:11369   */\n      0x00\n        /* \"#utility.yul\":11357:11366   */\n      dup4\n        /* \"#utility.yul\":11353:11370   */\n      add\n        /* \"#utility.yul\":11346:11393   */\n      mstore\n        /* \"#utility.yul\":11410:11541   */\n      tag_446\n        /* \"#utility.yul\":11536:11540   */\n      dup2\n        /* \"#utility.yul\":11410:11541   */\n      tag_358\n      jump\t// in\n    tag_446:\n        /* \"#utility.yul\":11402:11541   */\n      swap1\n      pop\n        /* \"#utility.yul\":11129:11548   */\n      swap2\n      swap1\n      pop\n      jump\t// out\n        /* \"#utility.yul\":11554:11973   */\n    tag_260:\n        /* \"#utility.yul\":11720:11724   */\n      0x00\n        /* \"#utility.yul\":11758:11760   */\n      0x20\n        /* \"#utility.yul\":11747:11756   */\n      dup3\n        /* \"#utility.yul\":11743:11761   */\n      add\n        /* \"#utility.yul\":11735:11761   */\n      swap1\n      pop\n        /* \"#utility.yul\":11807:11816   */\n      dup2\n        /* \"#utility.yul\":11801:11805   */\n      dup2\n        /* \"#utility.yul\":11797:11817   */\n      sub\n        /* \"#utility.yul\":11793:11794   */\n      0x00\n        /* \"#utility.yul\":11782:11791   */\n      dup4\n        /* \"#utility.yul\":11778:11795   */\n      add\n        /* \"#utility.yul\":11771:11818   */\n      mstore\n        /* \"#utility.yul\":11835:11966   */\n      tag_448\n        /* \"#utility.yul\":11961:11965   */\n      dup2\n        /* \"#utility.yul\":11835:11966   */\n      tag_363\n      jump\t// in\n    tag_448:\n        /* \"#utility.yul\":11827:11966   */\n      swap1\n      pop\n        /* \"#utility.yul\":11554:11973   */\n      swap2\n      swap1\n      pop\n      jump\t// out\n        /* \"#utility.yul\":11979:12398   */\n    tag_133:\n        /* \"#utility.yul\":12145:12149   */\n      0x00\n        /* \"#utility.yul\":12183:12185   */\n      0x20\n        /* \"#utility.yul\":12172:12181   */\n      dup3\n        /* \"#utility.yul\":12168:12186   */\n      add\n        /* \"#utility.yul\":12160:12186   */\n      swap1\n      pop\n        /* \"#utility.yul\":12232:12241   */\n      dup2\n        /* \"#utility.yul\":12226:12230   */\n      dup2\n        /* \"#utility.yul\":12222:12242   */\n      sub\n        /* \"#utility.yul\":12218:12219   */\n      0x00\n        /* \"#utility.yul\":12207:12216   */\n      dup4\n        /* \"#utility.yul\":12203:12220   */\n      add\n        /* \"#utility.yul\":12196:12243   */\n      mstore\n        /* \"#utility.yul\":12260:12391   */\n      tag_450\n        /* \"#utility.yul\":12386:12390   */\n      dup2\n        /* \"#utility.yul\":12260:12391   */\n      tag_374\n      jump\t// in\n    tag_450:\n        /* \"#utility.yul\":12252:12391   */\n      swap1\n      pop\n        /* \"#utility.yul\":11979:12398   */\n      swap2\n      swap1\n      pop\n      jump\t// out\n        /* \"#utility.yul\":12404:12823   */\n    tag_89:\n        /* \"#utility.yul\":12570:12574   */\n      0x00\n        /* \"#utility.yul\":12608:12610   */\n      0x20\n        /* \"#utility.yul\":12597:12606   */\n      dup3\n        /* \"#utility.yul\":12593:12611   */\n      add\n        /* \"#utility.yul\":12585:12611   */\n      swap1\n      pop\n        /* \"#utility.yul\":12657:12666   */\n      dup2\n        /* \"#utility.yul\":12651:12655   */\n      dup2\n        /* \"#utility.yul\":12647:12667   */\n      sub\n        /* \"#utility.yul\":12643:12644   */\n      0x00\n        /* \"#utility.yul\":12632:12641   */\n      dup4\n        /* \"#utility.yul\":12628:12645   */\n      add\n        /* \"#utility.yul\":12621:12668   */\n      mstore\n        /* \"#utility.yul\":12685:12816   */\n      tag_452\n        /* \"#utility.yul\":12811:12815   */\n      dup2\n        /* \"#utility.yul\":12685:12816   */\n      tag_379\n      jump\t// in\n    tag_452:\n        /* \"#utility.yul\":12677:12816   */\n      swap1\n      pop\n        /* \"#utility.yul\":12404:12823   */\n      swap2\n      swap1\n      pop\n      jump\t// out\n        /* \"#utility.yul\":12829:13248   */\n    tag_163:\n        /* \"#utility.yul\":12995:12999   */\n      0x00\n        /* \"#utility.yul\":13033:13035   */\n      0x20\n        /* \"#utility.yul\":13022:13031   */\n      dup3\n        /* \"#utility.yul\":13018:13036   */\n      add\n        /* \"#utility.yul\":13010:13036   */\n      swap1\n      pop\n        /* \"#utility.yul\":13082:13091   */\n      dup2\n        /* \"#utility.yul\":13076:13080   */\n      dup2\n        /* \"#utility.yul\":13072:13092   */\n      sub\n        /* \"#utility.yul\":13068:13069   */\n      0x00\n        /* \"#utility.yul\":13057:13066   */\n      dup4\n        /* \"#utility.yul\":13053:13070   */\n      add\n        /* \"#utility.yul\":13046:13093   */\n      mstore\n        /* \"#utility.yul\":13110:13241   */\n      tag_454\n        /* \"#utility.yul\":13236:13240   */\n      dup2\n        /* \"#utility.yul\":13110:13241   */\n      tag_384\n      jump\t// in\n    tag_454:\n        /* \"#utility.yul\":13102:13241   */\n      swap1\n      pop\n        /* \"#utility.yul\":12829:13248   */\n      swap2\n      swap1\n      pop\n      jump\t// out\n        /* \"#utility.yul\":13254:13673   */\n    tag_70:\n        /* \"#utility.yul\":13420:13424   */\n      0x00\n        /* \"#utility.yul\":13458:13460   */\n      0x20\n        /* \"#utility.yul\":13447:13456   */\n      dup3\n        /* \"#utility.yul\":13443:13461   */\n      add\n        /* \"#utility.yul\":13435:13461   */\n      swap1\n      pop\n        /* \"#utility.yul\":13507:13516   */\n      dup2\n        /* \"#utility.yul\":13501:13505   */\n      dup2\n        /* \"#utility.yul\":13497:13517   */\n      sub\n        /* \"#utility.yul\":13493:13494   */\n      0x00\n        /* \"#utility.yul\":13482:13491   */\n      dup4\n        /* \"#utility.yul\":13478:13495   */\n      add\n        /* \"#utility.yul\":13471:13518   */\n      mstore\n        /* \"#utility.yul\":13535:13666   */\n      tag_456\n        /* \"#utility.yul\":13661:13665   */\n      dup2\n        /* \"#utility.yul\":13535:13666   */\n      tag_389\n      jump\t// in\n    tag_456:\n        /* \"#utility.yul\":13527:13666   */\n      swap1\n      pop\n        /* \"#utility.yul\":13254:13673   */\n      swap2\n      swap1\n      pop\n      jump\t// out\n        /* \"#utility.yul\":13679:14098   */\n    tag_97:\n        /* \"#utility.yul\":13845:13849   */\n      0x00\n        /* \"#utility.yul\":13883:13885   */\n      0x20\n        /* \"#utility.yul\":13872:13881   */\n      dup3\n        /* \"#utility.yul\":13868:13886   */\n      add\n        /* \"#utility.yul\":13860:13886   */\n      swap1\n      pop\n        /* \"#utility.yul\":13932:13941   */\n      dup2\n        /* \"#utility.yul\":13926:13930   */\n      dup2\n        /* \"#utility.yul\":13922:13942   */\n      sub\n        /* \"#utility.yul\":13918:13919   */\n      0x00\n        /* \"#utility.yul\":13907:13916   */\n      dup4\n        /* \"#utility.yul\":13903:13920   */\n      add\n        /* \"#utility.yul\":13896:13943   */\n      mstore\n        /* \"#utility.yul\":13960:14091   */\n      tag_458\n        /* \"#utility.yul\":14086:14090   */\n      dup2\n        /* \"#utility.yul\":13960:14091   */\n      tag_394\n      jump\t// in\n    tag_458:\n        /* \"#utility.yul\":13952:14091   */\n      swap1\n      pop\n        /* \"#utility.yul\":13679:14098   */\n      swap2\n      swap1\n      pop\n      jump\t// out\n        /* \"#utility.yul\":14104:14523   */\n    tag_101:\n        /* \"#utility.yul\":14270:14274   */\n      0x00\n        /* \"#utility.yul\":14308:14310   */\n      0x20\n        /* \"#utility.yul\":14297:14306   */\n      dup3\n        /* \"#utility.yul\":14293:14311   */\n      add\n        /* \"#utility.yul\":14285:14311   */\n      swap1\n      pop\n        /* \"#utility.yul\":14357:14366   */\n      dup2\n        /* \"#utility.yul\":14351:14355   */\n      dup2\n        /* \"#utility.yul\":14347:14367   */\n      sub\n        /* \"#utility.yul\":14343:14344   */\n      0x00\n        /* \"#utility.yul\":14332:14341   */\n      dup4\n        /* \"#utility.yul\":14328:14345   */\n      add\n        /* \"#utility.yul\":14321:14368   */\n      mstore\n        /* \"#utility.yul\":14385:14516   */\n      tag_460\n        /* \"#utility.yul\":14511:14515   */\n      dup2\n        /* \"#utility.yul\":14385:14516   */\n      tag_399\n      jump\t// in\n    tag_460:\n        /* \"#utility.yul\":14377:14516   */\n      swap1\n      pop\n        /* \"#utility.yul\":14104:14523   */\n      swap2\n      swap1\n      pop\n      jump\t// out\n        /* \"#utility.yul\":14529:14948   */\n    tag_79:\n        /* \"#utility.yul\":14695:14699   */\n      0x00\n        /* \"#utility.yul\":14733:14735   */\n      0x20\n        /* \"#utility.yul\":14722:14731   */\n      dup3\n        /* \"#utility.yul\":14718:14736   */\n      add\n        /* \"#utility.yul\":14710:14736   */\n      swap1\n      pop\n        /* \"#utility.yul\":14782:14791   */\n      dup2\n        /* \"#utility.yul\":14776:14780   */\n      dup2\n        /* \"#utility.yul\":14772:14792   */\n      sub\n        /* \"#utility.yul\":14768:14769   */\n      0x00\n        /* \"#utility.yul\":14757:14766   */\n      dup4\n        /* \"#utility.yul\":14753:14770   */\n      add\n        /* \"#utility.yul\":14746:14793   */\n      mstore\n        /* \"#utility.yul\":14810:14941   */\n      tag_462\n        /* \"#utility.yul\":14936:14940   */\n      dup2\n        /* \"#utility.yul\":14810:14941   */\n      tag_404\n      jump\t// in\n    tag_462:\n        /* \"#utility.yul\":14802:14941   */\n      swap1\n      pop\n        /* \"#utility.yul\":14529:14948   */\n      swap2\n      swap1\n      pop\n      jump\t// out\n        /* \"#utility.yul\":14954:15373   */\n    tag_206:\n        /* \"#utility.yul\":15120:15124   */\n      0x00\n        /* \"#utility.yul\":15158:15160   */\n      0x20\n        /* \"#utility.yul\":15147:15156   */\n      dup3\n        /* \"#utility.yul\":15143:15161   */\n      add\n        /* \"#utility.yul\":15135:15161   */\n      swap1\n      pop\n        /* \"#utility.yul\":15207:15216   */\n      dup2\n        /* \"#utility.yul\":15201:15205   */\n      dup2\n        /* \"#utility.yul\":15197:15217   */\n      sub\n        /* \"#utility.yul\":15193:15194   */\n      0x00\n        /* \"#utility.yul\":15182:15191   */\n      dup4\n        /* \"#utility.yul\":15178:15195   */\n      add\n        /* \"#utility.yul\":15171:15218   */\n      mstore\n        /* \"#utility.yul\":15235:15366   */\n      tag_464\n        /* \"#utility.yul\":15361:15365   */\n      dup2\n        /* \"#utility.yul\":15235:15366   */\n      tag_409\n      jump\t// in\n    tag_464:\n        /* \"#utility.yul\":15227:15366   */\n      swap1\n      pop\n        /* \"#utility.yul\":14954:15373   */\n      swap2\n      swap1\n      pop\n      jump\t// out\n        /* \"#utility.yul\":15379:15601   */\n    tag_18:\n        /* \"#utility.yul\":15472:15476   */\n      0x00\n        /* \"#utility.yul\":15510:15512   */\n      0x20\n        /* \"#utility.yul\":15499:15508   */\n      dup3\n        /* \"#utility.yul\":15495:15513   */\n      add\n        /* \"#utility.yul\":15487:15513   */\n      swap1\n      pop\n        /* \"#utility.yul\":15523:15594   */\n      tag_466\n        /* \"#utility.yul\":15591:15592   */\n      0x00\n        /* \"#utility.yul\":15580:15589   */\n      dup4\n        /* \"#utility.yul\":15576:15593   */\n      add\n        /* \"#utility.yul\":15567:15573   */\n      dup5\n        /* \"#utility.yul\":15523:15594   */\n      tag_417\n      jump\t// in\n    tag_466:\n        /* \"#utility.yul\":15379:15601   */\n      swap3\n      swap2\n      pop\n      pop\n      jump\t// out\n        /* \"#utility.yul\":15607:16030   */\n    tag_37:\n        /* \"#utility.yul\":15748:15752   */\n      0x00\n        /* \"#utility.yul\":15786:15788   */\n      0x40\n        /* \"#utility.yul\":15775:15784   */\n      dup3\n        /* \"#utility.yul\":15771:15789   */\n      add\n        /* \"#utility.yul\":15763:15789   */\n      swap1\n      pop\n        /* \"#utility.yul\":15799:15870   */\n      tag_468\n        /* \"#utility.yul\":15867:15868   */\n      0x00\n        /* \"#utility.yul\":15856:15865   */\n      dup4\n        /* \"#utility.yul\":15852:15869   */\n      add\n        /* \"#utility.yul\":15843:15849   */\n      dup6\n        /* \"#utility.yul\":15799:15870   */\n      tag_417\n      jump\t// in\n    tag_468:\n        /* \"#utility.yul\":15917:15926   */\n      dup2\n        /* \"#utility.yul\":15911:15915   */\n      dup2\n        /* \"#utility.yul\":15907:15927   */\n      sub\n        /* \"#utility.yul\":15902:15904   */\n      0x20\n        /* \"#utility.yul\":15891:15900   */\n      dup4\n        /* \"#utility.yul\":15887:15905   */\n      add\n        /* \"#utility.yul\":15880:15928   */\n      mstore\n        /* \"#utility.yul\":15945:16023   */\n      tag_469\n        /* \"#utility.yul\":16018:16022   */\n      dup2\n        /* \"#utility.yul\":16009:16015   */\n      dup5\n        /* \"#utility.yul\":15945:16023   */\n      tag_350\n      jump\t// in\n    tag_469:\n        /* \"#utility.yul\":15937:16023   */\n      swap1\n      pop\n        /* \"#utility.yul\":15607:16030   */\n      swap4\n      swap3\n      pop\n      pop\n      pop\n      jump\t// out\n        /* \"#utility.yul\":16036:16368   */\n    tag_216:\n        /* \"#utility.yul\":16157:16161   */\n      0x00\n        /* \"#utility.yul\":16195:16197   */\n      0x40\n        /* \"#utility.yul\":16184:16193   */\n      dup3\n        /* \"#utility.yul\":16180:16198   */\n      add\n        /* \"#utility.yul\":16172:16198   */\n      swap1\n      pop\n        /* \"#utility.yul\":16208:16279   */\n      tag_471\n        /* \"#utility.yul\":16276:16277   */\n      0x00\n        /* \"#utility.yul\":16265:16274   */\n      dup4\n        /* \"#utility.yul\":16261:16278   */\n      add\n        /* \"#utility.yul\":16252:16258   */\n      dup6\n        /* \"#utility.yul\":16208:16279   */\n      tag_417\n      jump\t// in\n    tag_471:\n        /* \"#utility.yul\":16289:16361   */\n      tag_472\n        /* \"#utility.yul\":16357:16359   */\n      0x20\n        /* \"#utility.yul\":16346:16355   */\n      dup4\n        /* \"#utility.yul\":16342:16360   */\n      add\n        /* \"#utility.yul\":16333:16339   */\n      dup5\n        /* \"#utility.yul\":16289:16361   */\n      tag_417\n      jump\t// in\n    tag_472:\n        /* \"#utility.yul\":16036:16368   */\n      swap4\n      swap3\n      pop\n      pop\n      pop\n      jump\t// out\n        /* \"#utility.yul\":16374:16816   */\n    tag_50:\n        /* \"#utility.yul\":16523:16527   */\n      0x00\n        /* \"#utility.yul\":16561:16563   */\n      0x60\n        /* \"#utility.yul\":16550:16559   */\n      dup3\n        /* \"#utility.yul\":16546:16564   */\n      add\n        /* \"#utility.yul\":16538:16564   */\n      swap1\n      pop\n        /* \"#utility.yul\":16574:16645   */\n      tag_474\n        /* \"#utility.yul\":16642:16643   */\n      0x00\n        /* \"#utility.yul\":16631:16640   */\n      dup4\n        /* \"#utility.yul\":16627:16644   */\n      add\n        /* \"#utility.yul\":16618:16624   */\n      dup7\n        /* \"#utility.yul\":16574:16645   */\n      tag_417\n      jump\t// in\n    tag_474:\n        /* \"#utility.yul\":16655:16727   */\n      tag_475\n        /* \"#utility.yul\":16723:16725   */\n      0x20\n        /* \"#utility.yul\":16712:16721   */\n      dup4\n        /* \"#utility.yul\":16708:16726   */\n      add\n        /* \"#utility.yul\":16699:16705   */\n      dup6\n        /* \"#utility.yul\":16655:16727   */\n      tag_417\n      jump\t// in\n    tag_475:\n        /* \"#utility.yul\":16737:16809   */\n      tag_476\n        /* \"#utility.yul\":16805:16807   */\n      0x40\n        /* \"#utility.yul\":16794:16803   */\n      dup4\n        /* \"#utility.yul\":16790:16808   */\n      add\n        /* \"#utility.yul\":16781:16787   */\n      dup5\n        /* \"#utility.yul\":16737:16809   */\n      tag_417\n      jump\t// in\n    tag_476:\n        /* \"#utility.yul\":16374:16816   */\n      swap5\n      swap4\n      pop\n      pop\n      pop\n      pop\n      jump\t// out\n        /* \"#utility.yul\":16822:16897   */\n    tag_477:\n        /* \"#utility.yul\":16855:16861   */\n      0x00\n        /* \"#utility.yul\":16888:16890   */\n      0x40\n        /* \"#utility.yul\":16882:16891   */\n      mload\n        /* \"#utility.yul\":16872:16891   */\n      swap1\n      pop\n        /* \"#utility.yul\":16822:16897   */\n      swap1\n      jump\t// out\n        /* \"#utility.yul\":16903:17035   */\n    tag_329:\n        /* \"#utility.yul\":16970:16974   */\n      0x00\n        /* \"#utility.yul\":16993:16996   */\n      dup2\n        /* \"#utility.yul\":16985:16996   */\n      swap1\n      pop\n        /* \"#utility.yul\":17023:17027   */\n      0x20\n        /* \"#utility.yul\":17018:17021   */\n      dup3\n        /* \"#utility.yul\":17014:17028   */\n      add\n        /* \"#utility.yul\":17006:17028   */\n      swap1\n      pop\n        /* \"#utility.yul\":16903:17035   */\n      swap2\n      swap1\n      pop\n      jump\t// out\n        /* \"#utility.yul\":17041:17155   */\n    tag_325:\n        /* \"#utility.yul\":17108:17114   */\n      0x00\n        /* \"#utility.yul\":17142:17147   */\n      dup2\n        /* \"#utility.yul\":17136:17148   */\n      mload\n        /* \"#utility.yul\":17126:17148   */\n      swap1\n      pop\n        /* \"#utility.yul\":17041:17155   */\n      swap2\n      swap1\n      pop\n      jump\t// out\n        /* \"#utility.yul\":17161:17259   */\n    tag_343:\n        /* \"#utility.yul\":17212:17218   */\n      0x00\n        /* \"#utility.yul\":17246:17251   */\n      dup2\n        /* \"#utility.yul\":17240:17252   */\n      mload\n        /* \"#utility.yul\":17230:17252   */\n      swap1\n      pop\n        /* \"#utility.yul\":17161:17259   */\n      swap2\n      swap1\n      pop\n      jump\t// out\n        /* \"#utility.yul\":17265:17364   */\n    tag_353:\n        /* \"#utility.yul\":17317:17323   */\n      0x00\n        /* \"#utility.yul\":17351:17356   */\n      dup2\n        /* \"#utility.yul\":17345:17357   */\n      mload\n        /* \"#utility.yul\":17335:17357   */\n      swap1\n      pop\n        /* \"#utility.yul\":17265:17364   */\n      swap2\n      swap1\n      pop\n      jump\t// out\n        /* \"#utility.yul\":17370:17483   */\n    tag_335:\n        /* \"#utility.yul\":17440:17444   */\n      0x00\n        /* \"#utility.yul\":17472:17476   */\n      0x20\n        /* \"#utility.yul\":17467:17470   */\n      dup3\n        /* \"#utility.yul\":17463:17477   */\n      add\n        /* \"#utility.yul\":17455:17477   */\n      swap1\n      pop\n        /* \"#utility.yul\":17370:17483   */\n      swap2\n      swap1\n      pop\n      jump\t// out\n        /* \"#utility.yul\":17489:17673   */\n    tag_327:\n        /* \"#utility.yul\":17588:17599   */\n      0x00\n        /* \"#utility.yul\":17622:17628   */\n      dup3\n        /* \"#utility.yul\":17617:17620   */\n      dup3\n        /* \"#utility.yul\":17610:17629   */\n      mstore\n        /* \"#utility.yul\":17662:17666   */\n      0x20\n        /* \"#utility.yul\":17657:17660   */\n      dup3\n        /* \"#utility.yul\":17653:17667   */\n      add\n        /* \"#utility.yul\":17638:17667   */\n      swap1\n      pop\n        /* \"#utility.yul\":17489:17673   */\n      swap3\n      swap2\n      pop\n      pop\n      jump\t// out\n        /* \"#utility.yul\":17679:17847   */\n    tag_345:\n        /* \"#utility.yul\":17762:17773   */\n      0x00\n        /* \"#utility.yul\":17796:17802   */\n      dup3\n        /* \"#utility.yul\":17791:17794   */\n      dup3\n        /* \"#utility.yul\":17784:17803   */\n      mstore\n        /* \"#utility.yul\":17836:17840   */\n      0x20\n        /* \"#utility.yul\":17831:17834   */\n      dup3\n        /* \"#utility.yul\":17827:17841   */\n      add\n        /* \"#utility.yul\":17812:17841   */\n      swap1\n      pop\n        /* \"#utility.yul\":17679:17847   */\n      swap3\n      swap2\n      pop\n      pop\n      jump\t// out\n        /* \"#utility.yul\":17853:18022   */\n    tag_355:\n        /* \"#utility.yul\":17937:17948   */\n      0x00\n        /* \"#utility.yul\":17971:17977   */\n      dup3\n        /* \"#utility.yul\":17966:17969   */\n      dup3\n        /* \"#utility.yul\":17959:17978   */\n      mstore\n        /* \"#utility.yul\":18011:18015   */\n      0x20\n        /* \"#utility.yul\":18006:18009   */\n      dup3\n        /* \"#utility.yul\":18002:18016   */\n      add\n        /* \"#utility.yul\":17987:18016   */\n      swap1\n      pop\n        /* \"#utility.yul\":17853:18022   */\n      swap3\n      swap2\n      pop\n      pop\n      jump\t// out\n        /* \"#utility.yul\":18028:18176   */\n    tag_371:\n        /* \"#utility.yul\":18130:18141   */\n      0x00\n        /* \"#utility.yul\":18167:18170   */\n      dup2\n        /* \"#utility.yul\":18152:18170   */\n      swap1\n      pop\n        /* \"#utility.yul\":18028:18176   */\n      swap3\n      swap2\n      pop\n      pop\n      jump\t// out\n        /* \"#utility.yul\":18182:18487   */\n    tag_214:\n        /* \"#utility.yul\":18222:18225   */\n      0x00\n        /* \"#utility.yul\":18241:18261   */\n      tag_489\n        /* \"#utility.yul\":18259:18260   */\n      dup3\n        /* \"#utility.yul\":18241:18261   */\n      tag_416\n      jump\t// in\n    tag_489:\n        /* \"#utility.yul\":18236:18261   */\n      swap2\n      pop\n        /* \"#utility.yul\":18275:18295   */\n      tag_490\n        /* \"#utility.yul\":18293:18294   */\n      dup4\n        /* \"#utility.yul\":18275:18295   */\n      tag_416\n      jump\t// in\n    tag_490:\n        /* \"#utility.yul\":18270:18295   */\n      swap3\n      pop\n        /* \"#utility.yul\":18429:18430   */\n      dup3\n        /* \"#utility.yul\":18361:18427   */\n      0xffffffffffffffffffffffffffffffffffffffffffffffffffffffffffffffff\n        /* \"#utility.yul\":18357:18431   */\n      sub\n        /* \"#utility.yul\":18354:18355   */\n      dup3\n        /* \"#utility.yul\":18351:18432   */\n      gt\n        /* \"#utility.yul\":18348:18455   */\n      iszero\n      tag_491\n      jumpi\n        /* \"#utility.yul\":18435:18453   */\n      tag_492\n      tag_493\n      jump\t// in\n    tag_492:\n        /* \"#utility.yul\":18348:18455   */\n    tag_491:\n        /* \"#utility.yul\":18479:18480   */\n      dup3\n        /* \"#utility.yul\":18476:18477   */\n      dup3\n        /* \"#utility.yul\":18472:18481   */\n      add\n        /* \"#utility.yul\":18465:18481   */\n      swap1\n      pop\n        /* \"#utility.yul\":18182:18487   */\n      swap3\n      swap2\n      pop\n      pop\n      jump\t// out\n        /* \"#utility.yul\":18493:18589   */\n    tag_316:\n        /* \"#utility.yul\":18530:18537   */\n      0x00\n        /* \"#utility.yul\":18559:18583   */\n      tag_495\n        /* \"#utility.yul\":18577:18582   */\n      dup3\n        /* \"#utility.yul\":18559:18583   */\n      tag_496\n      jump\t// in\n    tag_495:\n        /* \"#utility.yul\":18548:18583   */\n      swap1\n      pop\n        /* \"#utility.yul\":18493:18589   */\n      swap2\n      swap1\n      pop\n      jump\t// out\n        /* \"#utility.yul\":18595:18699   */\n    tag_312:\n        /* \"#utility.yul\":18640:18647   */\n      0x00\n        /* \"#utility.yul\":18669:18693   */\n      tag_498\n        /* \"#utility.yul\":18687:18692   */\n      dup3\n        /* \"#utility.yul\":18669:18693   */\n      tag_496\n      jump\t// in\n    tag_498:\n        /* \"#utility.yul\":18658:18693   */\n      swap1\n      pop\n        /* \"#utility.yul\":18595:18699   */\n      swap2\n      swap1\n      pop\n      jump\t// out\n        /* \"#utility.yul\":18705:18795   */\n    tag_339:\n        /* \"#utility.yul\":18739:18746   */\n      0x00\n        /* \"#utility.yul\":18782:18787   */\n      dup2\n        /* \"#utility.yul\":18775:18788   */\n      iszero\n        /* \"#utility.yul\":18768:18789   */\n      iszero\n        /* \"#utility.yul\":18757:18789   */\n      swap1\n      pop\n        /* \"#utility.yul\":18705:18795   */\n      swap2\n      swap1\n      pop\n      jump\t// out\n        /* \"#utility.yul\":18801:18950   */\n    tag_500:\n        /* \"#utility.yul\":18837:18844   */\n      0x00\n        /* \"#utility.yul\":18877:18943   */\n      0xffffffff00000000000000000000000000000000000000000000000000000000\n        /* \"#utility.yul\":18870:18875   */\n      dup3\n        /* \"#utility.yul\":18866:18944   */\n      and\n        /* \"#utility.yul\":18855:18944   */\n      swap1\n      pop\n        /* \"#utility.yul\":18801:18950   */\n      swap2\n      swap1\n      pop\n      jump\t// out\n        /* \"#utility.yul\":18956:19082   */\n    tag_496:\n        /* \"#utility.yul\":18993:19000   */\n      0x00\n        /* \"#utility.yul\":19033:19075   */\n      0xffffffffffffffffffffffffffffffffffffffff\n        /* \"#utility.yul\":19026:19031   */\n      dup3\n        /* \"#utility.yul\":19022:19076   */\n      and\n        /* \"#utility.yul\":19011:19076   */\n      swap1\n      pop\n        /* \"#utility.yul\":18956:19082   */\n      swap2\n      swap1\n      pop\n      jump\t// out\n        /* \"#utility.yul\":19088:19165   */\n    tag_416:\n        /* \"#utility.yul\":19125:19132   */\n      0x00\n        /* \"#utility.yul\":19154:19159   */\n      dup2\n        /* \"#utility.yul\":19143:19159   */\n      swap1\n      pop\n        /* \"#utility.yul\":19088:19165   */\n      swap2\n      swap1\n      pop\n      jump\t// out\n        /* \"#utility.yul\":19171:19478   */\n    tag_347:\n        /* \"#utility.yul\":19239:19240   */\n      0x00\n        /* \"#utility.yul\":19249:19362   */\n    tag_505:\n        /* \"#utility.yul\":19263:19269   */\n      dup4\n        /* \"#utility.yul\":19260:19261   */\n      dup2\n        /* \"#utility.yul\":19257:19270   */\n      lt\n        /* \"#utility.yul\":19249:19362   */\n      iszero\n      tag_507\n      jumpi\n        /* \"#utility.yul\":19348:19349   */\n      dup1\n        /* \"#utility.yul\":19343:19346   */\n      dup3\n        /* \"#utility.yul\":19339:19350   */\n      add\n        /* \"#utility.yul\":19333:19351   */\n      mload\n        /* \"#utility.yul\":19329:19330   */\n      dup2\n        /* \"#utility.yul\":19324:19327   */\n      dup5\n        /* \"#utility.yul\":19320:19331   */\n      add\n        /* \"#utility.yul\":19313:19352   */\n      mstore\n        /* \"#utility.yul\":19285:19287   */\n      0x20\n        /* \"#utility.yul\":19282:19283   */\n      dup2\n        /* \"#utility.yul\":19278:19288   */\n      add\n        /* \"#utility.yul\":19273:19288   */\n      swap1\n      pop\n        /* \"#utility.yul\":19249:19362   */\n      jump(tag_505)\n    tag_507:\n        /* \"#utility.yul\":19380:19386   */\n      dup4\n        /* \"#utility.yul\":19377:19378   */\n      dup2\n        /* \"#utility.yul\":19374:19387   */\n      gt\n        /* \"#utility.yul\":19371:19472   */\n      iszero\n      tag_508\n      jumpi\n        /* \"#utility.yul\":19460:19461   */\n      0x00\n        /* \"#utility.yul\":19451:19457   */\n      dup5\n        /* \"#utility.yul\":19446:19449   */\n      dup5\n        /* \"#utility.yul\":19442:19458   */\n      add\n        /* \"#utility.yul\":19435:19462   */\n      mstore\n        /* \"#utility.yul\":19371:19472   */\n    tag_508:\n        /* \"#utility.yul\":19220:19478   */\n      pop\n        /* \"#utility.yul\":19171:19478   */\n      pop\n      pop\n      pop\n      jump\t// out\n        /* \"#utility.yul\":19484:19804   */\n    tag_106:\n        /* \"#utility.yul\":19528:19534   */\n      0x00\n        /* \"#utility.yul\":19565:19566   */\n      0x02\n        /* \"#utility.yul\":19559:19563   */\n      dup3\n        /* \"#utility.yul\":19555:19567   */\n      div\n        /* \"#utility.yul\":19545:19567   */\n      swap1\n      pop\n        /* \"#utility.yul\":19612:19613   */\n      0x01\n        /* \"#utility.yul\":19606:19610   */\n      dup3\n        /* \"#utility.yul\":19602:19614   */\n      and\n        /* \"#utility.yul\":19633:19651   */\n      dup1\n        /* \"#utility.yul\":19623:19704   */\n      tag_510\n      jumpi\n        /* \"#utility.yul\":19689:19693   */\n      0x7f\n        /* \"#utility.yul\":19681:19687   */\n      dup3\n        /* \"#utility.yul\":19677:19694   */\n      and\n        /* \"#utility.yul\":19667:19694   */\n      swap2\n      pop\n        /* \"#utility.yul\":19623:19704   */\n    tag_510:\n        /* \"#utility.yul\":19751:19753   */\n      0x20\n        /* \"#utility.yul\":19743:19749   */\n      dup3\n        /* \"#utility.yul\":19740:19754   */\n      lt\n        /* \"#utility.yul\":19720:19738   */\n      dup2\n        /* \"#utility.yul\":19717:19755   */\n      eq\n        /* \"#utility.yul\":19714:19798   */\n      iszero\n      tag_511\n      jumpi\n        /* \"#utility.yul\":19770:19788   */\n      tag_512\n      tag_513\n      jump\t// in\n    tag_512:\n        /* \"#utility.yul\":19714:19798   */\n    tag_511:\n        /* \"#utility.yul\":19535:19804   */\n      pop\n        /* \"#utility.yul\":19484:19804   */\n      swap2\n      swap1\n      pop\n      jump\t// out\n        /* \"#utility.yul\":19810:20091   */\n    tag_514:\n        /* \"#utility.yul\":19893:19920   */\n      tag_516\n        /* \"#utility.yul\":19915:19919   */\n      dup3\n        /* \"#utility.yul\":19893:19920   */\n      tag_349\n      jump\t// in\n    tag_516:\n        /* \"#utility.yul\":19885:19891   */\n      dup2\n        /* \"#utility.yul\":19881:19921   */\n      add\n        /* \"#utility.yul\":20023:20029   */\n      dup2\n        /* \"#utility.yul\":20011:20021   */\n      dup2\n        /* \"#utility.yul\":20008:20030   */\n      lt\n        /* \"#utility.yul\":19987:20005   */\n      0xffffffffffffffff\n        /* \"#utility.yul\":19975:19985   */\n      dup3\n        /* \"#utility.yul\":19972:20006   */\n      gt\n        /* \"#utility.yul\":19969:20031   */\n      or\n        /* \"#utility.yul\":19966:20054   */\n      iszero\n      tag_517\n      jumpi\n        /* \"#utility.yul\":20034:20052   */\n      tag_518\n      tag_229\n      jump\t// in\n    tag_518:\n        /* \"#utility.yul\":19966:20054   */\n    tag_517:\n        /* \"#utility.yul\":20074:20084   */\n      dup1\n        /* \"#utility.yul\":20070:20072   */\n      0x40\n        /* \"#utility.yul\":20063:20085   */\n      mstore\n        /* \"#utility.yul\":19853:20091   */\n      pop\n        /* \"#utility.yul\":19810:20091   */\n      pop\n      pop\n      jump\t// out\n        /* \"#utility.yul\":20097:20330   */\n    tag_113:\n        /* \"#utility.yul\":20136:20139   */\n      0x00\n        /* \"#utility.yul\":20159:20183   */\n      tag_520\n        /* \"#utility.yul\":20177:20182   */\n      dup3\n        /* \"#utility.yul\":20159:20183   */\n      tag_416\n      jump\t// in\n    tag_520:\n        /* \"#utility.yul\":20150:20183   */\n      swap2\n      pop\n        /* \"#utility.yul\":20205:20271   */\n      0xffffffffffffffffffffffffffffffffffffffffffffffffffffffffffffffff\n        /* \"#utility.yul\":20198:20203   */\n      dup3\n        /* \"#utility.yul\":20195:20272   */\n      eq\n        /* \"#utility.yul\":20192:20295   */\n      iszero\n      tag_521\n      jumpi\n        /* \"#utility.yul\":20275:20293   */\n      tag_522\n      tag_493\n      jump\t// in\n    tag_522:\n        /* \"#utility.yul\":20192:20295   */\n    tag_521:\n        /* \"#utility.yul\":20322:20323   */\n      0x01\n        /* \"#utility.yul\":20315:20320   */\n      dup3\n        /* \"#utility.yul\":20311:20324   */\n      add\n        /* \"#utility.yul\":20304:20324   */\n      swap1\n      pop\n        /* \"#utility.yul\":20097:20330   */\n      swap2\n      swap1\n      pop\n      jump\t// out\n        /* \"#utility.yul\":20336:20436   */\n    tag_321:\n        /* \"#utility.yul\":20375:20382   */\n      0x00\n        /* \"#utility.yul\":20404:20430   */\n      tag_524\n        /* \"#utility.yul\":20424:20429   */\n      dup3\n        /* \"#utility.yul\":20404:20430   */\n      tag_525\n      jump\t// in\n    tag_524:\n        /* \"#utility.yul\":20393:20430   */\n      swap1\n      pop\n        /* \"#utility.yul\":20336:20436   */\n      swap2\n      swap1\n      pop\n      jump\t// out\n        /* \"#utility.yul\":20442:20536   */\n    tag_525:\n        /* \"#utility.yul\":20481:20488   */\n      0x00\n        /* \"#utility.yul\":20510:20530   */\n      tag_527\n        /* \"#utility.yul\":20524:20529   */\n      dup3\n        /* \"#utility.yul\":20510:20530   */\n      tag_528\n      jump\t// in\n    tag_527:\n        /* \"#utility.yul\":20499:20530   */\n      swap1\n      pop\n        /* \"#utility.yul\":20442:20536   */\n      swap2\n      swap1\n      pop\n      jump\t// out\n        /* \"#utility.yul\":20542:20621   */\n    tag_424:\n        /* \"#utility.yul\":20581:20588   */\n      0x00\n        /* \"#utility.yul\":20610:20615   */\n      dup2\n        /* \"#utility.yul\":20599:20615   */\n      swap1\n      pop\n        /* \"#utility.yul\":20542:20621   */\n      swap2\n      swap1\n      pop\n      jump\t// out\n        /* \"#utility.yul\":20627:20803   */\n    tag_225:\n        /* \"#utility.yul\":20659:20660   */\n      0x00\n        /* \"#utility.yul\":20676:20696   */\n      tag_531\n        /* \"#utility.yul\":20694:20695   */\n      dup3\n        /* \"#utility.yul\":20676:20696   */\n      tag_416\n      jump\t// in\n    tag_531:\n        /* \"#utility.yul\":20671:20696   */\n      swap2\n      pop\n        /* \"#utility.yul\":20710:20730   */\n      tag_532\n        /* \"#utility.yul\":20728:20729   */\n      dup4\n        /* \"#utility.yul\":20710:20730   */\n      tag_416\n      jump\t// in\n    tag_532:\n        /* \"#utility.yul\":20705:20730   */\n      swap3\n      pop\n        /* \"#utility.yul\":20749:20750   */\n      dup3\n        /* \"#utility.yul\":20739:20774   */\n      tag_533\n      jumpi\n        /* \"#utility.yul\":20754:20772   */\n      tag_534\n      tag_535\n      jump\t// in\n    tag_534:\n        /* \"#utility.yul\":20739:20774   */\n    tag_533:\n        /* \"#utility.yul\":20795:20796   */\n      dup3\n        /* \"#utility.yul\":20792:20793   */\n      dup3\n        /* \"#utility.yul\":20788:20797   */\n      mod\n        /* \"#utility.yul\":20783:20797   */\n      swap1\n      pop\n        /* \"#utility.yul\":20627:20803   */\n      swap3\n      swap2\n      pop\n      pop\n      jump\t// out\n        /* \"#utility.yul\":20809:20989   */\n    tag_493:\n        /* \"#utility.yul\":20857:20934   */\n      0x4e487b7100000000000000000000000000000000000000000000000000000000\n        /* \"#utility.yul\":20854:20855   */\n      0x00\n        /* \"#utility.yul\":20847:20935   */\n      mstore\n        /* \"#utility.yul\":20954:20958   */\n      0x11\n        /* \"#utility.yul\":20951:20952   */\n      0x04\n        /* \"#utility.yul\":20944:20959   */\n      mstore\n        /* \"#utility.yul\":20978:20982   */\n      0x24\n        /* \"#utility.yul\":20975:20976   */\n      0x00\n        /* \"#utility.yul\":20968:20983   */\n      revert\n        /* \"#utility.yul\":20995:21175   */\n    tag_535:\n        /* \"#utility.yul\":21043:21120   */\n      0x4e487b7100000000000000000000000000000000000000000000000000000000\n        /* \"#utility.yul\":21040:21041   */\n      0x00\n        /* \"#utility.yul\":21033:21121   */\n      mstore\n        /* \"#utility.yul\":21140:21144   */\n      0x12\n        /* \"#utility.yul\":21137:21138   */\n      0x04\n        /* \"#utility.yul\":21130:21145   */\n      mstore\n        /* \"#utility.yul\":21164:21168   */\n      0x24\n        /* \"#utility.yul\":21161:21162   */\n      0x00\n        /* \"#utility.yul\":21154:21169   */\n      revert\n        /* \"#utility.yul\":21181:21361   */\n    tag_513:\n        /* \"#utility.yul\":21229:21306   */\n      0x4e487b7100000000000000000000000000000000000000000000000000000000\n        /* \"#utility.yul\":21226:21227   */\n      0x00\n        /* \"#utility.yul\":21219:21307   */\n      mstore\n        /* \"#utility.yul\":21326:21330   */\n      0x22\n        /* \"#utility.yul\":21323:21324   */\n      0x04\n        /* \"#utility.yul\":21316:21331   */\n      mstore\n        /* \"#utility.yul\":21350:21354   */\n      0x24\n        /* \"#utility.yul\":21347:21348   */\n      0x00\n        /* \"#utility.yul\":21340:21355   */\n      revert\n        /* \"#utility.yul\":21367:21547   */\n    tag_176:\n        /* \"#utility.yul\":21415:21492   */\n      0x4e487b7100000000000000000000000000000000000000000000000000000000\n        /* \"#utility.yul\":21412:21413   */\n      0x00\n        /* \"#utility.yul\":21405:21493   */\n      mstore\n        /* \"#utility.yul\":21512:21516   */\n      0x32\n        /* \"#utility.yul\":21509:21510   */\n      0x04\n        /* \"#utility.yul\":21502:21517   */\n      mstore\n        /* \"#utility.yul\":21536:21540   */\n      0x24\n        /* \"#utility.yul\":21533:21534   */\n      0x00\n        /* \"#utility.yul\":21526:21541   */\n      revert\n        /* \"#utility.yul\":21553:21733   */\n    tag_229:\n        /* \"#utility.yul\":21601:21678   */\n      0x4e487b7100000000000000000000000000000000000000000000000000000000\n        /* \"#utility.yul\":21598:21599   */\n      0x00\n        /* \"#utility.yul\":21591:21679   */\n      mstore\n        /* \"#utility.yul\":21698:21702   */\n      0x41\n        /* \"#utility.yul\":21695:21696   */\n      0x04\n        /* \"#utility.yul\":21688:21703   */\n      mstore\n        /* \"#utility.yul\":21722:21726   */\n      0x24\n        /* \"#utility.yul\":21719:21720   */\n      0x00\n        /* \"#utility.yul\":21712:21727   */\n      revert\n        /* \"#utility.yul\":21739:21922   */\n    tag_249:\n        /* \"#utility.yul\":21774:21777   */\n      0x00\n        /* \"#utility.yul\":21812:21813   */\n      0x03\n        /* \"#utility.yul\":21794:21810   */\n      returndatasize\n        /* \"#utility.yul\":21791:21814   */\n      gt\n        /* \"#utility.yul\":21788:21916   */\n      iszero\n      tag_542\n      jumpi\n        /* \"#utility.yul\":21850:21851   */\n      0x04\n        /* \"#utility.yul\":21847:21848   */\n      0x00\n        /* \"#utility.yul\":21844:21845   */\n      dup1\n        /* \"#utility.yul\":21829:21852   */\n      returndatacopy\n        /* \"#utility.yul\":21872:21906   */\n      tag_543\n        /* \"#utility.yul\":21903:21904   */\n      0x00\n        /* \"#utility.yul\":21897:21905   */\n      mload\n        /* \"#utility.yul\":21872:21906   */\n      tag_544\n      jump\t// in\n    tag_543:\n        /* \"#utility.yul\":21865:21906   */\n      swap1\n      pop\n        /* \"#utility.yul\":21788:21916   */\n    tag_542:\n        /* \"#utility.yul\":21739:21922   */\n      swap1\n      jump\t// out\n        /* \"#utility.yul\":22051:22168   */\n    tag_295:\n        /* \"#utility.yul\":22160:22161   */\n      0x00\n        /* \"#utility.yul\":22157:22158   */\n      dup1\n        /* \"#utility.yul\":22150:22162   */\n      revert\n        /* \"#utility.yul\":22174:22276   */\n    tag_349:\n        /* \"#utility.yul\":22215:22221   */\n      0x00\n        /* \"#utility.yul\":22266:22268   */\n      0x1f\n        /* \"#utility.yul\":22262:22269   */\n      not\n        /* \"#utility.yul\":22257:22259   */\n      0x1f\n        /* \"#utility.yul\":22250:22255   */\n      dup4\n        /* \"#utility.yul\":22246:22260   */\n      add\n        /* \"#utility.yul\":22242:22270   */\n      and\n        /* \"#utility.yul\":22232:22270   */\n      swap1\n      pop\n        /* \"#utility.yul\":22174:22276   */\n      swap2\n      swap1\n      pop\n      jump\t// out\n        /* \"#utility.yul\":22282:22376   */\n    tag_528:\n        /* \"#utility.yul\":22315:22323   */\n      0x00\n        /* \"#utility.yul\":22363:22368   */\n      dup2\n        /* \"#utility.yul\":22359:22361   */\n      0x60\n        /* \"#utility.yul\":22355:22369   */\n      shl\n        /* \"#utility.yul\":22334:22369   */\n      swap1\n      pop\n        /* \"#utility.yul\":22282:22376   */\n      swap2\n      swap1\n      pop\n      jump\t// out\n        /* \"#utility.yul\":22382:22488   */\n    tag_544:\n        /* \"#utility.yul\":22426:22434   */\n      0x00\n        /* \"#utility.yul\":22475:22480   */\n      dup2\n        /* \"#utility.yul\":22470:22473   */\n      0xe0\n        /* \"#utility.yul\":22466:22481   */\n      shr\n        /* \"#utility.yul\":22445:22481   */\n      swap1\n      pop\n        /* \"#utility.yul\":22382:22488   */\n      swap2\n      swap1\n      pop\n      jump\t// out\n        /* \"#utility.yul\":22494:22733   */\n    tag_362:\n        /* \"#utility.yul\":22634:22668   */\n      0x455243313135353a207472616e7366657220746f206e6f6e2045524331313535\n        /* \"#utility.yul\":22630:22631   */\n      0x00\n        /* \"#utility.yul\":22622:22628   */\n      dup3\n        /* \"#utility.yul\":22618:22632   */\n      add\n        /* \"#utility.yul\":22611:22669   */\n      mstore\n        /* \"#utility.yul\":22703:22725   */\n      0x526563656976657220696d706c656d656e746572000000000000000000000000\n        /* \"#utility.yul\":22698:22700   */\n      0x20\n        /* \"#utility.yul\":22690:22696   */\n      dup3\n        /* \"#utility.yul\":22686:22701   */\n      add\n        /* \"#utility.yul\":22679:22726   */\n      mstore\n        /* \"#utility.yul\":22494:22733   */\n      pop\n      jump\t// out\n        /* \"#utility.yul\":22739:22966   */\n    tag_367:\n        /* \"#utility.yul\":22879:22913   */\n      0x455243313135353a204552433131353552656365697665722072656a65637465\n        /* \"#utility.yul\":22875:22876   */\n      0x00\n        /* \"#utility.yul\":22867:22873   */\n      dup3\n        /* \"#utility.yul\":22863:22877   */\n      add\n        /* \"#utility.yul\":22856:22914   */\n      mstore\n        /* \"#utility.yul\":22948:22958   */\n      0x6420746f6b656e73000000000000000000000000000000000000000000000000\n        /* \"#utility.yul\":22943:22945   */\n      0x20\n        /* \"#utility.yul\":22935:22941   */\n      dup3\n        /* \"#utility.yul\":22931:22946   */\n      add\n        /* \"#utility.yul\":22924:22959   */\n      mstore\n        /* \"#utility.yul\":22739:22966   */\n      pop\n      jump\t// out\n        /* \"#utility.yul\":22972:23130   */\n    tag_373:\n        /* \"#utility.yul\":23112:23122   */\n      0x4469616d6f6e645f000000000000000000000000000000000000000000000000\n        /* \"#utility.yul\":23108:23109   */\n      0x00\n        /* \"#utility.yul\":23100:23106   */\n      dup3\n        /* \"#utility.yul\":23096:23110   */\n      add\n        /* \"#utility.yul\":23089:23123   */\n      mstore\n        /* \"#utility.yul\":22972:23130   */\n      pop\n      jump\t// out\n        /* \"#utility.yul\":23136:23311   */\n    tag_378:\n        /* \"#utility.yul\":23276:23303   */\n      0x42616c616e6365206d757374206265203235204d617469637300000000000000\n        /* \"#utility.yul\":23272:23273   */\n      0x00\n        /* \"#utility.yul\":23264:23270   */\n      dup3\n        /* \"#utility.yul\":23260:23274   */\n      add\n        /* \"#utility.yul\":23253:23304   */\n      mstore\n        /* \"#utility.yul\":23136:23311   */\n      pop\n      jump\t// out\n        /* \"#utility.yul\":23317:23494   */\n    tag_383:\n        /* \"#utility.yul\":23457:23486   */\n      0x44726f707369746520697320616c72656164792052756e6e696e670000000000\n        /* \"#utility.yul\":23453:23454   */\n      0x00\n        /* \"#utility.yul\":23445:23451   */\n      dup3\n        /* \"#utility.yul\":23441:23455   */\n      add\n        /* \"#utility.yul\":23434:23487   */\n      mstore\n        /* \"#utility.yul\":23317:23494   */\n      pop\n      jump\t// out\n        /* \"#utility.yul\":23500:23677   */\n    tag_388:\n        /* \"#utility.yul\":23640:23669   */\n      0x44726f707369746520697320616c72656164792053746f707065640000000000\n        /* \"#utility.yul\":23636:23637   */\n      0x00\n        /* \"#utility.yul\":23628:23634   */\n      dup3\n        /* \"#utility.yul\":23624:23638   */\n      add\n        /* \"#utility.yul\":23617:23670   */\n      mstore\n        /* \"#utility.yul\":23500:23677   */\n      pop\n      jump\t// out\n        /* \"#utility.yul\":23683:23861   */\n    tag_393:\n        /* \"#utility.yul\":23823:23853   */\n      0x4f6e6c79204e46542d4553204f776e65722063616e2041636365737300000000\n        /* \"#utility.yul\":23819:23820   */\n      0x00\n        /* \"#utility.yul\":23811:23817   */\n      dup3\n        /* \"#utility.yul\":23807:23821   */\n      add\n        /* \"#utility.yul\":23800:23854   */\n      mstore\n        /* \"#utility.yul\":23683:23861   */\n      pop\n      jump\t// out\n        /* \"#utility.yul\":23867:24044   */\n    tag_398:\n        /* \"#utility.yul\":24007:24036   */\n      0x44726f7073697465206973206e6f74204f70656e6564205965742e0000000000\n        /* \"#utility.yul\":24003:24004   */\n      0x00\n        /* \"#utility.yul\":23995:24001   */\n      dup3\n        /* \"#utility.yul\":23991:24005   */\n      add\n        /* \"#utility.yul\":23984:24037   */\n      mstore\n        /* \"#utility.yul\":23867:24044   */\n      pop\n      jump\t// out\n        /* \"#utility.yul\":24050:24225   */\n    tag_403:\n        /* \"#utility.yul\":24190:24217   */\n      0x4d6178204d696e74696e67204c696d6974207265616368656400000000000000\n        /* \"#utility.yul\":24186:24187   */\n      0x00\n        /* \"#utility.yul\":24178:24184   */\n      dup3\n        /* \"#utility.yul\":24174:24188   */\n      add\n        /* \"#utility.yul\":24167:24218   */\n      mstore\n        /* \"#utility.yul\":24050:24225   */\n      pop\n      jump\t// out\n        /* \"#utility.yul\":24231:24410   */\n    tag_408:\n        /* \"#utility.yul\":24371:24402   */\n      0x4572726f7221204e6f2042616c616e636520746f207769746864726177000000\n        /* \"#utility.yul\":24367:24368   */\n      0x00\n        /* \"#utility.yul\":24359:24365   */\n      dup3\n        /* \"#utility.yul\":24355:24369   */\n      add\n        /* \"#utility.yul\":24348:24403   */\n      mstore\n        /* \"#utility.yul\":24231:24410   */\n      pop\n      jump\t// out\n        /* \"#utility.yul\":24416:24636   */\n    tag_413:\n        /* \"#utility.yul\":24556:24590   */\n      0x455243313135353a206d696e7420746f20746865207a65726f20616464726573\n        /* \"#utility.yul\":24552:24553   */\n      0x00\n        /* \"#utility.yul\":24544:24550   */\n      dup3\n        /* \"#utility.yul\":24540:24554   */\n      add\n        /* \"#utility.yul\":24533:24591   */\n      mstore\n        /* \"#utility.yul\":24625:24628   */\n      0x7300000000000000000000000000000000000000000000000000000000000000\n        /* \"#utility.yul\":24620:24622   */\n      0x20\n        /* \"#utility.yul\":24612:24618   */\n      dup3\n        /* \"#utility.yul\":24608:24623   */\n      add\n        /* \"#utility.yul\":24601:24629   */\n      mstore\n        /* \"#utility.yul\":24416:24636   */\n      pop\n      jump\t// out\n        /* \"#utility.yul\":24642:25353   */\n    tag_251:\n        /* \"#utility.yul\":24681:24684   */\n      0x00\n        /* \"#utility.yul\":24719:24723   */\n      0x44\n        /* \"#utility.yul\":24701:24717   */\n      returndatasize\n        /* \"#utility.yul\":24698:24724   */\n      lt\n        /* \"#utility.yul\":24695:24734   */\n      iszero\n      tag_563\n      jumpi\n        /* \"#utility.yul\":24727:24732   */\n      jump(tag_562)\n        /* \"#utility.yul\":24695:24734   */\n    tag_563:\n        /* \"#utility.yul\":24756:24776   */\n      tag_564\n      tag_477\n      jump\t// in\n    tag_564:\n        /* \"#utility.yul\":24831:24832   */\n      0x04\n        /* \"#utility.yul\":24813:24829   */\n      returndatasize\n        /* \"#utility.yul\":24809:24833   */\n      sub\n        /* \"#utility.yul\":24806:24807   */\n      0x04\n        /* \"#utility.yul\":24800:24804   */\n      dup3\n        /* \"#utility.yul\":24785:24834   */\n      returndatacopy\n        /* \"#utility.yul\":24864:24868   */\n      dup1\n        /* \"#utility.yul\":24858:24869   */\n      mload\n        /* \"#utility.yul\":24963:24979   */\n      returndatasize\n        /* \"#utility.yul\":24956:24960   */\n      0x24\n        /* \"#utility.yul\":24948:24954   */\n      dup3\n        /* \"#utility.yul\":24944:24961   */\n      add\n        /* \"#utility.yul\":24941:24980   */\n      gt\n        /* \"#utility.yul\":24908:24926   */\n      0xffffffffffffffff\n        /* \"#utility.yul\":24900:24906   */\n      dup3\n        /* \"#utility.yul\":24897:24927   */\n      gt\n        /* \"#utility.yul\":24881:24994   */\n      or\n        /* \"#utility.yul\":24878:25024   */\n      iszero\n      tag_565\n      jumpi\n        /* \"#utility.yul\":25009:25014   */\n      pop\n      pop\n      jump(tag_562)\n        /* \"#utility.yul\":24878:25024   */\n    tag_565:\n        /* \"#utility.yul\":25055:25061   */\n      dup1\n        /* \"#utility.yul\":25049:25053   */\n      dup3\n        /* \"#utility.yul\":25045:25062   */\n      add\n        /* \"#utility.yul\":25091:25094   */\n      dup1\n        /* \"#utility.yul\":25085:25095   */\n      mload\n        /* \"#utility.yul\":25118:25136   */\n      0xffffffffffffffff\n        /* \"#utility.yul\":25110:25116   */\n      dup2\n        /* \"#utility.yul\":25107:25137   */\n      gt\n        /* \"#utility.yul\":25104:25147   */\n      iszero\n      tag_566\n      jumpi\n        /* \"#utility.yul\":25140:25145   */\n      pop\n      pop\n      pop\n      pop\n      jump(tag_562)\n        /* \"#utility.yul\":25104:25147   */\n    tag_566:\n        /* \"#utility.yul\":25188:25194   */\n      dup1\n        /* \"#utility.yul\":25181:25185   */\n      0x20\n        /* \"#utility.yul\":25176:25179   */\n      dup4\n        /* \"#utility.yul\":25172:25186   */\n      add\n        /* \"#utility.yul\":25168:25195   */\n      add\n        /* \"#utility.yul\":25247:25248   */\n      0x04\n        /* \"#utility.yul\":25229:25245   */\n      returndatasize\n        /* \"#utility.yul\":25225:25249   */\n      sub\n        /* \"#utility.yul\":25219:25223   */\n      dup6\n        /* \"#utility.yul\":25215:25250   */\n      add\n        /* \"#utility.yul\":25210:25213   */\n      dup2\n        /* \"#utility.yul\":25207:25251   */\n      gt\n        /* \"#utility.yul\":25204:25261   */\n      iszero\n      tag_567\n      jumpi\n        /* \"#utility.yul\":25254:25259   */\n      pop\n      pop\n      pop\n      pop\n      pop\n      jump(tag_562)\n        /* \"#utility.yul\":25204:25261   */\n    tag_567:\n        /* \"#utility.yul\":25271:25328   */\n      tag_568\n        /* \"#utility.yul\":25319:25325   */\n      dup3\n        /* \"#utility.yul\":25313:25317   */\n      0x20\n        /* \"#utility.yul\":25309:25326   */\n      add\n        /* \"#utility.yul\":25301:25307   */\n      dup6\n        /* \"#utility.yul\":25297:25327   */\n      add\n        /* \"#utility.yul\":25291:25295   */\n      dup7\n        /* \"#utility.yul\":25271:25328   */\n      tag_514\n      jump\t// in\n    tag_568:\n        /* \"#utility.yul\":25344:25347   */\n      dup3\n        /* \"#utility.yul\":25337:25347   */\n      swap6\n      pop\n        /* \"#utility.yul\":24685:25353   */\n      pop\n      pop\n      pop\n      pop\n      pop\n        /* \"#utility.yul\":24642:25353   */\n    tag_562:\n      swap1\n      jump\t// out\n        /* \"#utility.yul\":25359:25481   */\n    tag_283:\n        /* \"#utility.yul\":25432:25456   */\n      tag_570\n        /* \"#utility.yul\":25450:25455   */\n      dup2\n        /* \"#utility.yul\":25432:25456   */\n      tag_316\n      jump\t// in\n    tag_570:\n        /* \"#utility.yul\":25425:25430   */\n      dup2\n        /* \"#utility.yul\":25422:25457   */\n      eq\n        /* \"#utility.yul\":25412:25475   */\n      tag_571\n      jumpi\n        /* \"#utility.yul\":25471:25472   */\n      0x00\n        /* \"#utility.yul\":25468:25469   */\n      dup1\n        /* \"#utility.yul\":25461:25473   */\n      revert\n        /* \"#utility.yul\":25412:25475   */\n    tag_571:\n        /* \"#utility.yul\":25359:25481   */\n      pop\n      jump\t// out\n        /* \"#utility.yul\":25487:25625   */\n    tag_287:\n        /* \"#utility.yul\":25568:25600   */\n      tag_573\n        /* \"#utility.yul\":25594:25599   */\n      dup2\n        /* \"#utility.yul\":25568:25600   */\n      tag_312\n      jump\t// in\n    tag_573:\n        /* \"#utility.yul\":25561:25566   */\n      dup2\n        /* \"#utility.yul\":25558:25601   */\n      eq\n        /* \"#utility.yul\":25548:25619   */\n      tag_574\n      jumpi\n        /* \"#utility.yul\":25615:25616   */\n      0x00\n        /* \"#utility.yul\":25612:25613   */\n      dup1\n        /* \"#utility.yul\":25605:25617   */\n      revert\n        /* \"#utility.yul\":25548:25619   */\n    tag_574:\n        /* \"#utility.yul\":25487:25625   */\n      pop\n      jump\t// out\n        /* \"#utility.yul\":25631:25751   */\n    tag_291:\n        /* \"#utility.yul\":25703:25726   */\n      tag_576\n        /* \"#utility.yul\":25720:25725   */\n      dup2\n        /* \"#utility.yul\":25703:25726   */\n      tag_500\n      jump\t// in\n    tag_576:\n        /* \"#utility.yul\":25696:25701   */\n      dup2\n        /* \"#utility.yul\":25693:25727   */\n      eq\n        /* \"#utility.yul\":25683:25745   */\n      tag_577\n      jumpi\n        /* \"#utility.yul\":25741:25742   */\n      0x00\n        /* \"#utility.yul\":25738:25739   */\n      dup1\n        /* \"#utility.yul\":25731:25743   */\n      revert\n        /* \"#utility.yul\":25683:25745   */\n    tag_577:\n        /* \"#utility.yul\":25631:25751   */\n      pop\n      jump\t// out\n\n    auxdata: 0xa264697066735822122039826b1a2dac6cc48d29095b026fc6d81089c73dad95a30decf6163f289d422364736f6c63430008070033\n}\n",
				"bytecode": {
					"linkReferences": {},
					"object": "608060405260405180602001604052806000815250600290805190602001906200002b929190620001e8565b50604051806102800160405280600060ff168152602001600160ff168152602001600160ff168152602001600260ff168152602001600260ff168152602001600260ff168152602001600260ff168152602001600260ff168152602001600260ff168152602001600260ff168152602001600260ff168152602001600260ff168152602001600260ff168152602001600260ff168152602001600260ff168152602001600260ff168152602001600260ff168152602001600260ff168152602001600260ff168152602001600260ff1681525060039060146200011092919062000279565b506001600b60006101000a81548160ff0219169083151502179055503480156200013957600080fd5b5060405162002b0b38038062002b0b83398181016040528101906200015f919062000448565b80600c9080519060200190620001779291906200031a565b5033600b60016101000a81548173ffffffffffffffffffffffffffffffffffffffff021916908373ffffffffffffffffffffffffffffffffffffffff16021790555060006004819055506001600581905550600060068190555060006007819055506000600881905550506200061d565b828054620001f6906200052e565b90600052602060002090601f0160209004810192826200021a576000855562000266565b82601f106200023557805160ff191683800117855562000266565b8280016001018555821562000266579182015b828111156200026557825182559160200191906001019062000248565b5b509050620002759190620003ab565b5090565b826014601f01602090048101928215620003075791602002820160005b83821115620002d657835183826101000a81548160ff021916908360ff160217905550926020019260010160208160000104928301926001030262000296565b8015620003055782816101000a81549060ff0219169055600101602081600001049283019260010302620002d6565b505b509050620003169190620003ab565b5090565b82805462000328906200052e565b90600052602060002090601f0160209004810192826200034c576000855562000398565b82601f106200036757805160ff191683800117855562000398565b8280016001018555821562000398579182015b82811115620003975782518255916020019190600101906200037a565b5b509050620003a79190620003ab565b5090565b5b80821115620003c6576000816000905550600101620003ac565b5090565b6000620003e1620003db84620004c2565b62000499565b9050828152602081018484840111156200040057620003ff620005fd565b5b6200040d848285620004f8565b509392505050565b600082601f8301126200042d576200042c620005f8565b5b81516200043f848260208601620003ca565b91505092915050565b60006020828403121562000461576200046062000607565b5b600082015167ffffffffffffffff81111562000482576200048162000602565b5b620004908482850162000415565b91505092915050565b6000620004a5620004b8565b9050620004b3828262000564565b919050565b6000604051905090565b600067ffffffffffffffff821115620004e057620004df620005c9565b5b620004eb826200060c565b9050602081019050919050565b60005b8381101562000518578082015181840152602081019050620004fb565b8381111562000528576000848401525b50505050565b600060028204905060018216806200054757607f821691505b602082108114156200055e576200055d6200059a565b5b50919050565b6200056f826200060c565b810181811067ffffffffffffffff82111715620005915762000590620005c9565b5b80604052505050565b7f4e487b7100000000000000000000000000000000000000000000000000000000600052602260045260246000fd5b7f4e487b7100000000000000000000000000000000000000000000000000000000600052604160045260246000fd5b600080fd5b600080fd5b600080fd5b600080fd5b6000601f19601f8301169050919050565b6124de806200062d6000396000f3fe60806040526004361061009c5760003560e01c80633b668059116100645780633b668059146101685780633d65df701461019357806360daa851146101c4578063aa90c726146101f1578063b4a99a4e14610208578063fd6c3b1b146102335761009c565b80630390c11c146100a15780630a67d2c7146100cc5780631309a563146100e8578063154602591461011357806332b61b4c1461012a575b600080fd5b3480156100ad57600080fd5b506100b6610270565b6040516100c39190611d10565b60405180910390f35b6100e660048036038101906100e1919061176e565b610311565b005b3480156100f457600080fd5b506100fd61043b565b60405161010a9190611b93565b60405180910390f35b34801561011f57600080fd5b5061012861044e565b005b34801561013657600080fd5b50610151600480360381019061014c9190611741565b610558565b60405161015f929190611d2b565b60405180910390f35b34801561017457600080fd5b5061017d61084d565b60405161018a9190611d10565b60405180910390f35b6101ad60048036038101906101a89190611741565b6108ec565b6040516101bb929190611d2b565b60405180910390f35b3480156101d057600080fd5b506101d9610ba6565b6040516101e893929190611d84565b60405180910390f35b3480156101fd57600080fd5b50610206610c56565b005b34801561021457600080fd5b5061021d610d60565b60405161022a9190611afc565b60405180910390f35b34801561023f57600080fd5b5061025a60048036038101906102559190611741565b610d86565b6040516102679190611b71565b60405180910390f35b6000600b60019054906101000a900473ffffffffffffffffffffffffffffffffffffffff1673ffffffffffffffffffffffffffffffffffffffff166102b3610e20565b73ffffffffffffffffffffffffffffffffffffffff1614610309576040517f08c379a000000000000000000000000000000000000000000000000000000000815260040161030090611c70565b60405180910390fd5b600454905090565b600b60019054906101000a900473ffffffffffffffffffffffffffffffffffffffff1673ffffffffffffffffffffffffffffffffffffffff16610352610e20565b73ffffffffffffffffffffffffffffffffffffffff16146103a8576040517f08c379a000000000000000000000000000000000000000000000000000000000815260040161039f90611c70565b60405180910390fd5b6000479050600081116103f0576040517f08c379a00000000000000000000000000000000000000000000000000000000081526004016103e790611cd0565b60405180910390fd5b8173ffffffffffffffffffffffffffffffffffffffff166108fc829081150290604051600060405180830381858888f19350505050158015610436573d6000803e3d6000fd5b505050565b600b60009054906101000a900460ff1681565b600b60019054906101000a900473ffffffffffffffffffffffffffffffffffffffff1673ffffffffffffffffffffffffffffffffffffffff1661048f610e20565b73ffffffffffffffffffffffffffffffffffffffff16146104e5576040517f08c379a00000000000000000000000000000000000000000000000000000000081526004016104dc90611c70565b60405180910390fd5b60011515600b60009054906101000a900460ff1615151461053b576040517f08c379a000000000000000000000000000000000000000000000000000000000815260040161053290611c30565b60405180910390fd5b6000600b60006101000a81548160ff021916908315150217905550565b60006060600b60019054906101000a900473ffffffffffffffffffffffffffffffffffffffff1673ffffffffffffffffffffffffffffffffffffffff1661059d610e20565b73ffffffffffffffffffffffffffffffffffffffff16146105f3576040517f08c379a00000000000000000000000000000000000000000000000000000000081526004016105ea90611c70565b60405180910390fd5b60001515600b60009054906101000a900460ff16151514610649576040517f08c379a000000000000000000000000000000000000000000000000000000000815260040161064090611c90565b60405180910390fd5b6103e86004541061068f576040517f08c379a000000000000000000000000000000000000000000000000000000000815260040161068690611cb0565b60405180910390fd5b6000610699610e28565b90506107338482600554600280546106b090611f50565b80601f01602080910402602001604051908101604052809291908181526020018280546106dc90611f50565b80156107295780601f106106fe57610100808354040283529160200191610729565b820191906000526020600020905b81548152906001019060200180831161070c57829003601f168201915b5050505050611129565b6004600081548092919061074690611fb3565b9190505550600960008573ffffffffffffffffffffffffffffffffffffffff1673ffffffffffffffffffffffffffffffffffffffff1681526020019081526020016000206000018190806001815401808255809150506001900390600052602060002001600090919091909150558060028080546107c390611f50565b80601f01602080910402602001604051908101604052809291908181526020018280546107ef90611f50565b801561083c5780601f106108115761010080835404028352916020019161083c565b820191906000526020600020905b81548152906001019060200180831161081f57829003601f168201915b505050505090509250925050915091565b6000600b60019054906101000a900473ffffffffffffffffffffffffffffffffffffffff1673ffffffffffffffffffffffffffffffffffffffff16610890610e20565b73ffffffffffffffffffffffffffffffffffffffff16146108e6576040517f08c379a00000000000000000000000000000000000000000000000000000000081526004016108dd90611c70565b60405180910390fd5b47905090565b6000606060001515600b60009054906101000a900460ff16151514610946576040517f08c379a000000000000000000000000000000000000000000000000000000000815260040161093d90611c90565b60405180910390fd5b6103e86004541061098c576040517f08c379a000000000000000000000000000000000000000000000000000000000815260040161098390611cb0565b60405180910390fd5b68015af1d78b58c4000034146109d7576040517f08c379a00000000000000000000000000000000000000000000000000000000081526004016109ce90611c10565b60405180910390fd5b60006109e1610e28565b9050610a7b8482600554600280546109f890611f50565b80601f0160208091040260200160405190810160405280929190818152602001828054610a2490611f50565b8015610a715780601f10610a4657610100808354040283529160200191610a71565b820191906000526020600020905b815481529060010190602001808311610a5457829003601f168201915b5050505050611129565b610a8c610a86610e20565b346112bf565b60046000815480929190610a9f90611fb3565b9190505550600960008573ffffffffffffffffffffffffffffffffffffffff1673ffffffffffffffffffffffffffffffffffffffff168152602001908152602001600020600001819080600181540180825580915050600190039060005260206000200160009091909190915055806002808054610b1c90611f50565b80601f0160208091040260200160405190810160405280929190818152602001828054610b4890611f50565b8015610b955780601f10610b6a57610100808354040283529160200191610b95565b820191906000526020600020905b815481529060010190602001808311610b7857829003601f168201915b505050505090509250925050915091565b6000806000600b60019054906101000a900473ffffffffffffffffffffffffffffffffffffffff1673ffffffffffffffffffffffffffffffffffffffff16610bec610e20565b73ffffffffffffffffffffffffffffffffffffffff1614610c42576040517f08c379a0000000000000000000000000000000000000000000000000000000008152600401610c3990611c70565b60405180910390fd5b600654600754600854925092509250909192565b600b60019054906101000a900473ffffffffffffffffffffffffffffffffffffffff1673ffffffffffffffffffffffffffffffffffffffff16610c97610e20565b73ffffffffffffffffffffffffffffffffffffffff1614610ced576040517f08c379a0000000000000000000000000000000000000000000000000000000008152600401610ce490611c70565b60405180910390fd5b60001515600b60009054906101000a900460ff16151514610d43576040517f08c379a0000000000000000000000000000000000000000000000000000000008152600401610d3a90611c50565b60405180910390fd5b6001600b60006101000a81548160ff021916908315150217905550565b600b60019054906101000a900473ffffffffffffffffffffffffffffffffffffffff1681565b6060600960008373ffffffffffffffffffffffffffffffffffffffff1673ffffffffffffffffffffffffffffffffffffffff168152602001908152602001600020600001805480602002602001604051908101604052809291908181526020018280548015610e1457602002820191906000526020600020905b815481526020019060010190808311610e00575b50505050509050919050565b600033905090565b6000801515600b60009054906101000a900460ff16151514610e7f576040517f08c379a0000000000000000000000000000000000000000000000000000000008152600401610e7690611c90565b60405180910390fd5b6000610e89611319565b9050600060038260148110610ea157610ea06120e8565b5b602091828204019190069054906101000a900460ff1660ff169050600081148015610ece57506032600654105b15610f2d57600654604051602001610ee69190611aaa565b60405160208183030381529060405260029080519060200190610f0a9291906115d9565b5060066000815480929190610f1e90611fb3565b91905055508092505050611126565b60018111158015610f4057506064600754105b15610fb3576040518060400160405280600481526020017f476f6c640000000000000000000000000000000000000000000000000000000081525060029080519060200190610f9092919061165f565b5060076000815480929190610fa490611fb3565b91905055508092505050611126565b60028111158015610fc8575061035260085411155b1561103b576040518060400160405280600681526020017f53696c76657200000000000000000000000000000000000000000000000000008152506002908051906020019061101892919061165f565b506008600081548092919061102c90611fb3565b91905055508092505050611126565b606460075410156110b857600190506040518060400160405280600481526020017f476f6c64000000000000000000000000000000000000000000000000000000008152506002908051906020019061109592919061165f565b50600760008154809291906110a990611fb3565b91905055508092505050611126565b600090506040518060400160405280600781526020017f4469616d6f6e64000000000000000000000000000000000000000000000000008152506002908051906020019061110792919061165f565b506006600081548092919061111b90611fb3565b919050555080925050505b90565b600073ffffffffffffffffffffffffffffffffffffffff168473ffffffffffffffffffffffffffffffffffffffff161415611199576040517f08c379a000000000000000000000000000000000000000000000000000000000815260040161119090611cf0565b60405180910390fd5b60006111a3610e20565b90506111c4816000876111b58861135d565b6111be8861135d565b876113d7565b8260008086815260200190815260200160002060008773ffffffffffffffffffffffffffffffffffffffff1673ffffffffffffffffffffffffffffffffffffffff16815260200190815260200160002060008282546112239190611e41565b925050819055508473ffffffffffffffffffffffffffffffffffffffff16600073ffffffffffffffffffffffffffffffffffffffff168273ffffffffffffffffffffffffffffffffffffffff167fc3d58168c5ae7397731d063d5bbf3d657854427343f4c083240f7aacaa2d0f6287876040516112a1929190611d5b565b60405180910390a46112b8816000878787876113df565b5050505050565b80600a60008473ffffffffffffffffffffffffffffffffffffffff1673ffffffffffffffffffffffffffffffffffffffff168152602001908152602001600020600082825461130e9190611e41565b925050819055505050565b60008060144233604051602001611331929190611ad0565b6040516020818303038152906040528051906020012060001c611354919061202a565b90508091505090565b60606000600167ffffffffffffffff81111561137c5761137b612117565b5b6040519080825280602002602001820160405280156113aa5781602001602082028036833780820191505090505b50905082816000815181106113c2576113c16120e8565b5b60200260200101818152505080915050919050565b505050505050565b6113fe8473ffffffffffffffffffffffffffffffffffffffff166115c6565b156115be578373ffffffffffffffffffffffffffffffffffffffff1663f23a6e6187878686866040518663ffffffff1660e01b8152600401611444959493929190611b17565b602060405180830381600087803b15801561145e57600080fd5b505af192505050801561148f57506040513d601f19601f8201168201806040525081019061148c919061179b565b60015b6115355761149b612146565b806308c379a014156114f857506114b06123cd565b806114bb57506114fa565b806040517f08c379a00000000000000000000000000000000000000000000000000000000081526004016114ef9190611bae565b60405180910390fd5b505b6040517f08c379a000000000000000000000000000000000000000000000000000000000815260040161152c90611bd0565b60405180910390fd5b63f23a6e6160e01b7bffffffffffffffffffffffffffffffffffffffffffffffffffffffff1916817bffffffffffffffffffffffffffffffffffffffffffffffffffffffff1916146115bc576040517f08c379a00000000000000000000000000000000000000000000000000000000081526004016115b390611bf0565b60405180910390fd5b505b505050505050565b600080823b905060008111915050919050565b8280546115e590611f50565b90600052602060002090601f016020900481019282611607576000855561164e565b82601f1061162057805160ff191683800117855561164e565b8280016001018555821561164e579182015b8281111561164d578251825591602001919060010190611632565b5b50905061165b91906116e5565b5090565b82805461166b90611f50565b90600052602060002090601f01602090048101928261168d57600085556116d4565b82601f106116a657805160ff19168380011785556116d4565b828001600101855582156116d4579182015b828111156116d35782518255916020019190600101906116b8565b5b5090506116e191906116e5565b5090565b5b808211156116fe5760008160009055506001016116e6565b5090565b60008135905061171181612463565b92915050565b6000813590506117268161247a565b92915050565b60008151905061173b81612491565b92915050565b60006020828403121561175757611756612168565b5b600061176584828501611702565b91505092915050565b60006020828403121561178457611783612168565b5b600061179284828501611717565b91505092915050565b6000602082840312156117b1576117b0612168565b5b60006117bf8482850161172c565b91505092915050565b60006117d48383611a75565b60208301905092915050565b6117e981611ea9565b82525050565b6117f881611e97565b82525050565b61180f61180a82611e97565b611ffc565b82525050565b600061182082611dd5565b61182a8185611e03565b935061183583611dc5565b8060005b8381101561186657815161184d88826117c8565b975061185883611df6565b925050600181019050611839565b5085935050505092915050565b61187c81611ebb565b82525050565b600061188d82611de0565b6118978185611e14565b93506118a7818560208601611f1d565b6118b08161216d565b840191505092915050565b60006118c682611deb565b6118d08185611e25565b93506118e0818560208601611f1d565b6118e98161216d565b840191505092915050565b6000611901603483611e25565b915061190c82612198565b604082019050919050565b6000611924602883611e25565b915061192f826121e7565b604082019050919050565b6000611947600883611e36565b915061195282612236565b600882019050919050565b600061196a601983611e25565b91506119758261225f565b602082019050919050565b600061198d601b83611e25565b915061199882612288565b602082019050919050565b60006119b0601b83611e25565b91506119bb826122b1565b602082019050919050565b60006119d3601c83611e25565b91506119de826122da565b602082019050919050565b60006119f6601b83611e25565b9150611a0182612303565b602082019050919050565b6000611a19601983611e25565b9150611a248261232c565b602082019050919050565b6000611a3c601d83611e25565b9150611a4782612355565b602082019050919050565b6000611a5f602183611e25565b9150611a6a8261237e565b604082019050919050565b611a7e81611f13565b82525050565b611a8d81611f13565b82525050565b611aa4611a9f82611f13565b612020565b82525050565b6000611ab58261193a565b9150611ac18284611a93565b60208201915081905092915050565b6000611adc8285611a93565b602082019150611aec82846117fe565b6014820191508190509392505050565b6000602082019050611b1160008301846117e0565b92915050565b600060a082019050611b2c60008301886117ef565b611b3960208301876117ef565b611b466040830186611a84565b611b536060830185611a84565b8181036080830152611b658184611882565b90509695505050505050565b60006020820190508181036000830152611b8b8184611815565b905092915050565b6000602082019050611ba86000830184611873565b92915050565b60006020820190508181036000830152611bc881846118bb565b905092915050565b60006020820190508181036000830152611be9816118f4565b9050919050565b60006020820190508181036000830152611c0981611917565b9050919050565b60006020820190508181036000830152611c298161195d565b9050919050565b60006020820190508181036000830152611c4981611980565b9050919050565b60006020820190508181036000830152611c69816119a3565b9050919050565b60006020820190508181036000830152611c89816119c6565b9050919050565b60006020820190508181036000830152611ca9816119e9565b9050919050565b60006020820190508181036000830152611cc981611a0c565b9050919050565b60006020820190508181036000830152611ce981611a2f565b9050919050565b60006020820190508181036000830152611d0981611a52565b9050919050565b6000602082019050611d256000830184611a84565b92915050565b6000604082019050611d406000830185611a84565b8181036020830152611d5281846118bb565b90509392505050565b6000604082019050611d706000830185611a84565b611d7d6020830184611a84565b9392505050565b6000606082019050611d996000830186611a84565b611da66020830185611a84565b611db36040830184611a84565b949350505050565b6000604051905090565b6000819050602082019050919050565b600081519050919050565b600081519050919050565b600081519050919050565b6000602082019050919050565b600082825260208201905092915050565b600082825260208201905092915050565b600082825260208201905092915050565b600081905092915050565b6000611e4c82611f13565b9150611e5783611f13565b9250827fffffffffffffffffffffffffffffffffffffffffffffffffffffffffffffffff03821115611e8c57611e8b61205b565b5b828201905092915050565b6000611ea282611ef3565b9050919050565b6000611eb482611ef3565b9050919050565b60008115159050919050565b60007fffffffff0000000000000000000000000000000000000000000000000000000082169050919050565b600073ffffffffffffffffffffffffffffffffffffffff82169050919050565b6000819050919050565b60005b83811015611f3b578082015181840152602081019050611f20565b83811115611f4a576000848401525b50505050565b60006002820490506001821680611f6857607f821691505b60208210811415611f7c57611f7b6120b9565b5b50919050565b611f8b8261216d565b810181811067ffffffffffffffff82111715611faa57611fa9612117565b5b80604052505050565b6000611fbe82611f13565b91507fffffffffffffffffffffffffffffffffffffffffffffffffffffffffffffffff821415611ff157611ff061205b565b5b600182019050919050565b60006120078261200e565b9050919050565b60006120198261217e565b9050919050565b6000819050919050565b600061203582611f13565b915061204083611f13565b9250826120505761204f61208a565b5b828206905092915050565b7f4e487b7100000000000000000000000000000000000000000000000000000000600052601160045260246000fd5b7f4e487b7100000000000000000000000000000000000000000000000000000000600052601260045260246000fd5b7f4e487b7100000000000000000000000000000000000000000000000000000000600052602260045260246000fd5b7f4e487b7100000000000000000000000000000000000000000000000000000000600052603260045260246000fd5b7f4e487b7100000000000000000000000000000000000000000000000000000000600052604160045260246000fd5b600060033d11156121655760046000803e61216260005161218b565b90505b90565b600080fd5b6000601f19601f8301169050919050565b60008160601b9050919050565b60008160e01c9050919050565b7f455243313135353a207472616e7366657220746f206e6f6e204552433131353560008201527f526563656976657220696d706c656d656e746572000000000000000000000000602082015250565b7f455243313135353a204552433131353552656365697665722072656a6563746560008201527f6420746f6b656e73000000000000000000000000000000000000000000000000602082015250565b7f4469616d6f6e645f000000000000000000000000000000000000000000000000600082015250565b7f42616c616e6365206d757374206265203235204d617469637300000000000000600082015250565b7f44726f707369746520697320616c72656164792052756e6e696e670000000000600082015250565b7f44726f707369746520697320616c72656164792053746f707065640000000000600082015250565b7f4f6e6c79204e46542d4553204f776e65722063616e2041636365737300000000600082015250565b7f44726f7073697465206973206e6f74204f70656e6564205965742e0000000000600082015250565b7f4d6178204d696e74696e67204c696d6974207265616368656400000000000000600082015250565b7f4572726f7221204e6f2042616c616e636520746f207769746864726177000000600082015250565b7f455243313135353a206d696e7420746f20746865207a65726f2061646472657360008201527f7300000000000000000000000000000000000000000000000000000000000000602082015250565b600060443d10156123dd57612460565b6123e5611dbb565b60043d036004823e80513d602482011167ffffffffffffffff8211171561240d575050612460565b808201805167ffffffffffffffff81111561242b5750505050612460565b80602083010160043d038501811115612448575050505050612460565b61245782602001850186611f82565b82955050505050505b90565b61246c81611e97565b811461247757600080fd5b50565b61248381611ea9565b811461248e57600080fd5b50565b61249a81611ec7565b81146124a557600080fd5b5056fea264697066735822122039826b1a2dac6cc48d29095b026fc6d81089c73dad95a30decf6163f289d422364736f6c63430008070033",
					"opcodes": "PUSH1 0x80 PUSH1 0x40 MSTORE PUSH1 0x40 MLOAD DUP1 PUSH1 0x20 ADD PUSH1 0x40 MSTORE DUP1 PUSH1 0x0 DUP2 MSTORE POP PUSH1 0x2 SWAP1 DUP1 MLOAD SWAP1 PUSH1 0x20 ADD SWAP1 PUSH3 0x2B SWAP3 SWAP2 SWAP1 PUSH3 0x1E8 JUMP JUMPDEST POP PUSH1 0x40 MLOAD DUP1 PUSH2 0x280 ADD PUSH1 0x40 MSTORE DUP1 PUSH1 0x0 PUSH1 0xFF AND DUP2 MSTORE PUSH1 0x20 ADD PUSH1 0x1 PUSH1 0xFF AND DUP2 MSTORE PUSH1 0x20 ADD PUSH1 0x1 PUSH1 0xFF AND DUP2 MSTORE PUSH1 0x20 ADD PUSH1 0x2 PUSH1 0xFF AND DUP2 MSTORE PUSH1 0x20 ADD PUSH1 0x2 PUSH1 0xFF AND DUP2 MSTORE PUSH1 0x20 ADD PUSH1 0x2 PUSH1 0xFF AND DUP2 MSTORE PUSH1 0x20 ADD PUSH1 0x2 PUSH1 0xFF AND DUP2 MSTORE PUSH1 0x20 ADD PUSH1 0x2 PUSH1 0xFF AND DUP2 MSTORE PUSH1 0x20 ADD PUSH1 0x2 PUSH1 0xFF AND DUP2 MSTORE PUSH1 0x20 ADD PUSH1 0x2 PUSH1 0xFF AND DUP2 MSTORE PUSH1 0x20 ADD PUSH1 0x2 PUSH1 0xFF AND DUP2 MSTORE PUSH1 0x20 ADD PUSH1 0x2 PUSH1 0xFF AND DUP2 MSTORE PUSH1 0x20 ADD PUSH1 0x2 PUSH1 0xFF AND DUP2 MSTORE PUSH1 0x20 ADD PUSH1 0x2 PUSH1 0xFF AND DUP2 MSTORE PUSH1 0x20 ADD PUSH1 0x2 PUSH1 0xFF AND DUP2 MSTORE PUSH1 0x20 ADD PUSH1 0x2 PUSH1 0xFF AND DUP2 MSTORE PUSH1 0x20 ADD PUSH1 0x2 PUSH1 0xFF AND DUP2 MSTORE PUSH1 0x20 ADD PUSH1 0x2 PUSH1 0xFF AND DUP2 MSTORE PUSH1 0x20 ADD PUSH1 0x2 PUSH1 0xFF AND DUP2 MSTORE PUSH1 0x20 ADD PUSH1 0x2 PUSH1 0xFF AND DUP2 MSTORE POP PUSH1 0x3 SWAP1 PUSH1 0x14 PUSH3 0x110 SWAP3 SWAP2 SWAP1 PUSH3 0x279 JUMP JUMPDEST POP PUSH1 0x1 PUSH1 0xB PUSH1 0x0 PUSH2 0x100 EXP DUP2 SLOAD DUP2 PUSH1 0xFF MUL NOT AND SWAP1 DUP4 ISZERO ISZERO MUL OR SWAP1 SSTORE POP CALLVALUE DUP1 ISZERO PUSH3 0x139 JUMPI PUSH1 0x0 DUP1 REVERT JUMPDEST POP PUSH1 0x40 MLOAD PUSH3 0x2B0B CODESIZE SUB DUP1 PUSH3 0x2B0B DUP4 CODECOPY DUP2 DUP2 ADD PUSH1 0x40 MSTORE DUP2 ADD SWAP1 PUSH3 0x15F SWAP2 SWAP1 PUSH3 0x448 JUMP JUMPDEST DUP1 PUSH1 0xC SWAP1 DUP1 MLOAD SWAP1 PUSH1 0x20 ADD SWAP1 PUSH3 0x177 SWAP3 SWAP2 SWAP1 PUSH3 0x31A JUMP JUMPDEST POP CALLER PUSH1 0xB PUSH1 0x1 PUSH2 0x100 EXP DUP2 SLOAD DUP2 PUSH20 0xFFFFFFFFFFFFFFFFFFFFFFFFFFFFFFFFFFFFFFFF MUL NOT AND SWAP1 DUP4 PUSH20 0xFFFFFFFFFFFFFFFFFFFFFFFFFFFFFFFFFFFFFFFF AND MUL OR SWAP1 SSTORE POP PUSH1 0x0 PUSH1 0x4 DUP2 SWAP1 SSTORE POP PUSH1 0x1 PUSH1 0x5 DUP2 SWAP1 SSTORE POP PUSH1 0x0 PUSH1 0x6 DUP2 SWAP1 SSTORE POP PUSH1 0x0 PUSH1 0x7 DUP2 SWAP1 SSTORE POP PUSH1 0x0 PUSH1 0x8 DUP2 SWAP1 SSTORE POP POP PUSH3 0x61D JUMP JUMPDEST DUP3 DUP1 SLOAD PUSH3 0x1F6 SWAP1 PUSH3 0x52E JUMP JUMPDEST SWAP1 PUSH1 0x0 MSTORE PUSH1 0x20 PUSH1 0x0 KECCAK256 SWAP1 PUSH1 0x1F ADD PUSH1 0x20 SWAP1 DIV DUP2 ADD SWAP3 DUP3 PUSH3 0x21A JUMPI PUSH1 0x0 DUP6 SSTORE PUSH3 0x266 JUMP JUMPDEST DUP3 PUSH1 0x1F LT PUSH3 0x235 JUMPI DUP1 MLOAD PUSH1 0xFF NOT AND DUP4 DUP1 ADD OR DUP6 SSTORE PUSH3 0x266 JUMP JUMPDEST DUP3 DUP1 ADD PUSH1 0x1 ADD DUP6 SSTORE DUP3 ISZERO PUSH3 0x266 JUMPI SWAP2 DUP3 ADD JUMPDEST DUP3 DUP2 GT ISZERO PUSH3 0x265 JUMPI DUP3 MLOAD DUP3 SSTORE SWAP2 PUSH1 0x20 ADD SWAP2 SWAP1 PUSH1 0x1 ADD SWAP1 PUSH3 0x248 JUMP JUMPDEST JUMPDEST POP SWAP1 POP PUSH3 0x275 SWAP2 SWAP1 PUSH3 0x3AB JUMP JUMPDEST POP SWAP1 JUMP JUMPDEST DUP3 PUSH1 0x14 PUSH1 0x1F ADD PUSH1 0x20 SWAP1 DIV DUP2 ADD SWAP3 DUP3 ISZERO PUSH3 0x307 JUMPI SWAP2 PUSH1 0x20 MUL DUP3 ADD PUSH1 0x0 JUMPDEST DUP4 DUP3 GT ISZERO PUSH3 0x2D6 JUMPI DUP4 MLOAD DUP4 DUP3 PUSH2 0x100 EXP DUP2 SLOAD DUP2 PUSH1 0xFF MUL NOT AND SWAP1 DUP4 PUSH1 0xFF AND MUL OR SWAP1 SSTORE POP SWAP3 PUSH1 0x20 ADD SWAP3 PUSH1 0x1 ADD PUSH1 0x20 DUP2 PUSH1 0x0 ADD DIV SWAP3 DUP4 ADD SWAP3 PUSH1 0x1 SUB MUL PUSH3 0x296 JUMP JUMPDEST DUP1 ISZERO PUSH3 0x305 JUMPI DUP3 DUP2 PUSH2 0x100 EXP DUP2 SLOAD SWAP1 PUSH1 0xFF MUL NOT AND SWAP1 SSTORE PUSH1 0x1 ADD PUSH1 0x20 DUP2 PUSH1 0x0 ADD DIV SWAP3 DUP4 ADD SWAP3 PUSH1 0x1 SUB MUL PUSH3 0x2D6 JUMP JUMPDEST POP JUMPDEST POP SWAP1 POP PUSH3 0x316 SWAP2 SWAP1 PUSH3 0x3AB JUMP JUMPDEST POP SWAP1 JUMP JUMPDEST DUP3 DUP1 SLOAD PUSH3 0x328 SWAP1 PUSH3 0x52E JUMP JUMPDEST SWAP1 PUSH1 0x0 MSTORE PUSH1 0x20 PUSH1 0x0 KECCAK256 SWAP1 PUSH1 0x1F ADD PUSH1 0x20 SWAP1 DIV DUP2 ADD SWAP3 DUP3 PUSH3 0x34C JUMPI PUSH1 0x0 DUP6 SSTORE PUSH3 0x398 JUMP JUMPDEST DUP3 PUSH1 0x1F LT PUSH3 0x367 JUMPI DUP1 MLOAD PUSH1 0xFF NOT AND DUP4 DUP1 ADD OR DUP6 SSTORE PUSH3 0x398 JUMP JUMPDEST DUP3 DUP1 ADD PUSH1 0x1 ADD DUP6 SSTORE DUP3 ISZERO PUSH3 0x398 JUMPI SWAP2 DUP3 ADD JUMPDEST DUP3 DUP2 GT ISZERO PUSH3 0x397 JUMPI DUP3 MLOAD DUP3 SSTORE SWAP2 PUSH1 0x20 ADD SWAP2 SWAP1 PUSH1 0x1 ADD SWAP1 PUSH3 0x37A JUMP JUMPDEST JUMPDEST POP SWAP1 POP PUSH3 0x3A7 SWAP2 SWAP1 PUSH3 0x3AB JUMP JUMPDEST POP SWAP1 JUMP JUMPDEST JUMPDEST DUP1 DUP3 GT ISZERO PUSH3 0x3C6 JUMPI PUSH1 0x0 DUP2 PUSH1 0x0 SWAP1 SSTORE POP PUSH1 0x1 ADD PUSH3 0x3AC JUMP JUMPDEST POP SWAP1 JUMP JUMPDEST PUSH1 0x0 PUSH3 0x3E1 PUSH3 0x3DB DUP5 PUSH3 0x4C2 JUMP JUMPDEST PUSH3 0x499 JUMP JUMPDEST SWAP1 POP DUP3 DUP2 MSTORE PUSH1 0x20 DUP2 ADD DUP5 DUP5 DUP5 ADD GT ISZERO PUSH3 0x400 JUMPI PUSH3 0x3FF PUSH3 0x5FD JUMP JUMPDEST JUMPDEST PUSH3 0x40D DUP5 DUP3 DUP6 PUSH3 0x4F8 JUMP JUMPDEST POP SWAP4 SWAP3 POP POP POP JUMP JUMPDEST PUSH1 0x0 DUP3 PUSH1 0x1F DUP4 ADD SLT PUSH3 0x42D JUMPI PUSH3 0x42C PUSH3 0x5F8 JUMP JUMPDEST JUMPDEST DUP2 MLOAD PUSH3 0x43F DUP5 DUP3 PUSH1 0x20 DUP7 ADD PUSH3 0x3CA JUMP JUMPDEST SWAP2 POP POP SWAP3 SWAP2 POP POP JUMP JUMPDEST PUSH1 0x0 PUSH1 0x20 DUP3 DUP5 SUB SLT ISZERO PUSH3 0x461 JUMPI PUSH3 0x460 PUSH3 0x607 JUMP JUMPDEST JUMPDEST PUSH1 0x0 DUP3 ADD MLOAD PUSH8 0xFFFFFFFFFFFFFFFF DUP2 GT ISZERO PUSH3 0x482 JUMPI PUSH3 0x481 PUSH3 0x602 JUMP JUMPDEST JUMPDEST PUSH3 0x490 DUP5 DUP3 DUP6 ADD PUSH3 0x415 JUMP JUMPDEST SWAP2 POP POP SWAP3 SWAP2 POP POP JUMP JUMPDEST PUSH1 0x0 PUSH3 0x4A5 PUSH3 0x4B8 JUMP JUMPDEST SWAP1 POP PUSH3 0x4B3 DUP3 DUP3 PUSH3 0x564 JUMP JUMPDEST SWAP2 SWAP1 POP JUMP JUMPDEST PUSH1 0x0 PUSH1 0x40 MLOAD SWAP1 POP SWAP1 JUMP JUMPDEST PUSH1 0x0 PUSH8 0xFFFFFFFFFFFFFFFF DUP3 GT ISZERO PUSH3 0x4E0 JUMPI PUSH3 0x4DF PUSH3 0x5C9 JUMP JUMPDEST JUMPDEST PUSH3 0x4EB DUP3 PUSH3 0x60C JUMP JUMPDEST SWAP1 POP PUSH1 0x20 DUP2 ADD SWAP1 POP SWAP2 SWAP1 POP JUMP JUMPDEST PUSH1 0x0 JUMPDEST DUP4 DUP2 LT ISZERO PUSH3 0x518 JUMPI DUP1 DUP3 ADD MLOAD DUP2 DUP5 ADD MSTORE PUSH1 0x20 DUP2 ADD SWAP1 POP PUSH3 0x4FB JUMP JUMPDEST DUP4 DUP2 GT ISZERO PUSH3 0x528 JUMPI PUSH1 0x0 DUP5 DUP5 ADD MSTORE JUMPDEST POP POP POP POP JUMP JUMPDEST PUSH1 0x0 PUSH1 0x2 DUP3 DIV SWAP1 POP PUSH1 0x1 DUP3 AND DUP1 PUSH3 0x547 JUMPI PUSH1 0x7F DUP3 AND SWAP2 POP JUMPDEST PUSH1 0x20 DUP3 LT DUP2 EQ ISZERO PUSH3 0x55E JUMPI PUSH3 0x55D PUSH3 0x59A JUMP JUMPDEST JUMPDEST POP SWAP2 SWAP1 POP JUMP JUMPDEST PUSH3 0x56F DUP3 PUSH3 0x60C JUMP JUMPDEST DUP2 ADD DUP2 DUP2 LT PUSH8 0xFFFFFFFFFFFFFFFF DUP3 GT OR ISZERO PUSH3 0x591 JUMPI PUSH3 0x590 PUSH3 0x5C9 JUMP JUMPDEST JUMPDEST DUP1 PUSH1 0x40 MSTORE POP POP POP JUMP JUMPDEST PUSH32 0x4E487B7100000000000000000000000000000000000000000000000000000000 PUSH1 0x0 MSTORE PUSH1 0x22 PUSH1 0x4 MSTORE PUSH1 0x24 PUSH1 0x0 REVERT JUMPDEST PUSH32 0x4E487B7100000000000000000000000000000000000000000000000000000000 PUSH1 0x0 MSTORE PUSH1 0x41 PUSH1 0x4 MSTORE PUSH1 0x24 PUSH1 0x0 REVERT JUMPDEST PUSH1 0x0 DUP1 REVERT JUMPDEST PUSH1 0x0 DUP1 REVERT JUMPDEST PUSH1 0x0 DUP1 REVERT JUMPDEST PUSH1 0x0 DUP1 REVERT JUMPDEST PUSH1 0x0 PUSH1 0x1F NOT PUSH1 0x1F DUP4 ADD AND SWAP1 POP SWAP2 SWAP1 POP JUMP JUMPDEST PUSH2 0x24DE DUP1 PUSH3 0x62D PUSH1 0x0 CODECOPY PUSH1 0x0 RETURN INVALID PUSH1 0x80 PUSH1 0x40 MSTORE PUSH1 0x4 CALLDATASIZE LT PUSH2 0x9C JUMPI PUSH1 0x0 CALLDATALOAD PUSH1 0xE0 SHR DUP1 PUSH4 0x3B668059 GT PUSH2 0x64 JUMPI DUP1 PUSH4 0x3B668059 EQ PUSH2 0x168 JUMPI DUP1 PUSH4 0x3D65DF70 EQ PUSH2 0x193 JUMPI DUP1 PUSH4 0x60DAA851 EQ PUSH2 0x1C4 JUMPI DUP1 PUSH4 0xAA90C726 EQ PUSH2 0x1F1 JUMPI DUP1 PUSH4 0xB4A99A4E EQ PUSH2 0x208 JUMPI DUP1 PUSH4 0xFD6C3B1B EQ PUSH2 0x233 JUMPI PUSH2 0x9C JUMP JUMPDEST DUP1 PUSH4 0x390C11C EQ PUSH2 0xA1 JUMPI DUP1 PUSH4 0xA67D2C7 EQ PUSH2 0xCC JUMPI DUP1 PUSH4 0x1309A563 EQ PUSH2 0xE8 JUMPI DUP1 PUSH4 0x15460259 EQ PUSH2 0x113 JUMPI DUP1 PUSH4 0x32B61B4C EQ PUSH2 0x12A JUMPI JUMPDEST PUSH1 0x0 DUP1 REVERT JUMPDEST CALLVALUE DUP1 ISZERO PUSH2 0xAD JUMPI PUSH1 0x0 DUP1 REVERT JUMPDEST POP PUSH2 0xB6 PUSH2 0x270 JUMP JUMPDEST PUSH1 0x40 MLOAD PUSH2 0xC3 SWAP2 SWAP1 PUSH2 0x1D10 JUMP JUMPDEST PUSH1 0x40 MLOAD DUP1 SWAP2 SUB SWAP1 RETURN JUMPDEST PUSH2 0xE6 PUSH1 0x4 DUP1 CALLDATASIZE SUB DUP2 ADD SWAP1 PUSH2 0xE1 SWAP2 SWAP1 PUSH2 0x176E JUMP JUMPDEST PUSH2 0x311 JUMP JUMPDEST STOP JUMPDEST CALLVALUE DUP1 ISZERO PUSH2 0xF4 JUMPI PUSH1 0x0 DUP1 REVERT JUMPDEST POP PUSH2 0xFD PUSH2 0x43B JUMP JUMPDEST PUSH1 0x40 MLOAD PUSH2 0x10A SWAP2 SWAP1 PUSH2 0x1B93 JUMP JUMPDEST PUSH1 0x40 MLOAD DUP1 SWAP2 SUB SWAP1 RETURN JUMPDEST CALLVALUE DUP1 ISZERO PUSH2 0x11F JUMPI PUSH1 0x0 DUP1 REVERT JUMPDEST POP PUSH2 0x128 PUSH2 0x44E JUMP JUMPDEST STOP JUMPDEST CALLVALUE DUP1 ISZERO PUSH2 0x136 JUMPI PUSH1 0x0 DUP1 REVERT JUMPDEST POP PUSH2 0x151 PUSH1 0x4 DUP1 CALLDATASIZE SUB DUP2 ADD SWAP1 PUSH2 0x14C SWAP2 SWAP1 PUSH2 0x1741 JUMP JUMPDEST PUSH2 0x558 JUMP JUMPDEST PUSH1 0x40 MLOAD PUSH2 0x15F SWAP3 SWAP2 SWAP1 PUSH2 0x1D2B JUMP JUMPDEST PUSH1 0x40 MLOAD DUP1 SWAP2 SUB SWAP1 RETURN JUMPDEST CALLVALUE DUP1 ISZERO PUSH2 0x174 JUMPI PUSH1 0x0 DUP1 REVERT JUMPDEST POP PUSH2 0x17D PUSH2 0x84D JUMP JUMPDEST PUSH1 0x40 MLOAD PUSH2 0x18A SWAP2 SWAP1 PUSH2 0x1D10 JUMP JUMPDEST PUSH1 0x40 MLOAD DUP1 SWAP2 SUB SWAP1 RETURN JUMPDEST PUSH2 0x1AD PUSH1 0x4 DUP1 CALLDATASIZE SUB DUP2 ADD SWAP1 PUSH2 0x1A8 SWAP2 SWAP1 PUSH2 0x1741 JUMP JUMPDEST PUSH2 0x8EC JUMP JUMPDEST PUSH1 0x40 MLOAD PUSH2 0x1BB SWAP3 SWAP2 SWAP1 PUSH2 0x1D2B JUMP JUMPDEST PUSH1 0x40 MLOAD DUP1 SWAP2 SUB SWAP1 RETURN JUMPDEST CALLVALUE DUP1 ISZERO PUSH2 0x1D0 JUMPI PUSH1 0x0 DUP1 REVERT JUMPDEST POP PUSH2 0x1D9 PUSH2 0xBA6 JUMP JUMPDEST PUSH1 0x40 MLOAD PUSH2 0x1E8 SWAP4 SWAP3 SWAP2 SWAP1 PUSH2 0x1D84 JUMP JUMPDEST PUSH1 0x40 MLOAD DUP1 SWAP2 SUB SWAP1 RETURN JUMPDEST CALLVALUE DUP1 ISZERO PUSH2 0x1FD JUMPI PUSH1 0x0 DUP1 REVERT JUMPDEST POP PUSH2 0x206 PUSH2 0xC56 JUMP JUMPDEST STOP JUMPDEST CALLVALUE DUP1 ISZERO PUSH2 0x214 JUMPI PUSH1 0x0 DUP1 REVERT JUMPDEST POP PUSH2 0x21D PUSH2 0xD60 JUMP JUMPDEST PUSH1 0x40 MLOAD PUSH2 0x22A SWAP2 SWAP1 PUSH2 0x1AFC JUMP JUMPDEST PUSH1 0x40 MLOAD DUP1 SWAP2 SUB SWAP1 RETURN JUMPDEST CALLVALUE DUP1 ISZERO PUSH2 0x23F JUMPI PUSH1 0x0 DUP1 REVERT JUMPDEST POP PUSH2 0x25A PUSH1 0x4 DUP1 CALLDATASIZE SUB DUP2 ADD SWAP1 PUSH2 0x255 SWAP2 SWAP1 PUSH2 0x1741 JUMP JUMPDEST PUSH2 0xD86 JUMP JUMPDEST PUSH1 0x40 MLOAD PUSH2 0x267 SWAP2 SWAP1 PUSH2 0x1B71 JUMP JUMPDEST PUSH1 0x40 MLOAD DUP1 SWAP2 SUB SWAP1 RETURN JUMPDEST PUSH1 0x0 PUSH1 0xB PUSH1 0x1 SWAP1 SLOAD SWAP1 PUSH2 0x100 EXP SWAP1 DIV PUSH20 0xFFFFFFFFFFFFFFFFFFFFFFFFFFFFFFFFFFFFFFFF AND PUSH20 0xFFFFFFFFFFFFFFFFFFFFFFFFFFFFFFFFFFFFFFFF AND PUSH2 0x2B3 PUSH2 0xE20 JUMP JUMPDEST PUSH20 0xFFFFFFFFFFFFFFFFFFFFFFFFFFFFFFFFFFFFFFFF AND EQ PUSH2 0x309 JUMPI PUSH1 0x40 MLOAD PUSH32 0x8C379A000000000000000000000000000000000000000000000000000000000 DUP2 MSTORE PUSH1 0x4 ADD PUSH2 0x300 SWAP1 PUSH2 0x1C70 JUMP JUMPDEST PUSH1 0x40 MLOAD DUP1 SWAP2 SUB SWAP1 REVERT JUMPDEST PUSH1 0x4 SLOAD SWAP1 POP SWAP1 JUMP JUMPDEST PUSH1 0xB PUSH1 0x1 SWAP1 SLOAD SWAP1 PUSH2 0x100 EXP SWAP1 DIV PUSH20 0xFFFFFFFFFFFFFFFFFFFFFFFFFFFFFFFFFFFFFFFF AND PUSH20 0xFFFFFFFFFFFFFFFFFFFFFFFFFFFFFFFFFFFFFFFF AND PUSH2 0x352 PUSH2 0xE20 JUMP JUMPDEST PUSH20 0xFFFFFFFFFFFFFFFFFFFFFFFFFFFFFFFFFFFFFFFF AND EQ PUSH2 0x3A8 JUMPI PUSH1 0x40 MLOAD PUSH32 0x8C379A000000000000000000000000000000000000000000000000000000000 DUP2 MSTORE PUSH1 0x4 ADD PUSH2 0x39F SWAP1 PUSH2 0x1C70 JUMP JUMPDEST PUSH1 0x40 MLOAD DUP1 SWAP2 SUB SWAP1 REVERT JUMPDEST PUSH1 0x0 SELFBALANCE SWAP1 POP PUSH1 0x0 DUP2 GT PUSH2 0x3F0 JUMPI PUSH1 0x40 MLOAD PUSH32 0x8C379A000000000000000000000000000000000000000000000000000000000 DUP2 MSTORE PUSH1 0x4 ADD PUSH2 0x3E7 SWAP1 PUSH2 0x1CD0 JUMP JUMPDEST PUSH1 0x40 MLOAD DUP1 SWAP2 SUB SWAP1 REVERT JUMPDEST DUP2 PUSH20 0xFFFFFFFFFFFFFFFFFFFFFFFFFFFFFFFFFFFFFFFF AND PUSH2 0x8FC DUP3 SWAP1 DUP2 ISZERO MUL SWAP1 PUSH1 0x40 MLOAD PUSH1 0x0 PUSH1 0x40 MLOAD DUP1 DUP4 SUB DUP2 DUP6 DUP9 DUP9 CALL SWAP4 POP POP POP POP ISZERO DUP1 ISZERO PUSH2 0x436 JUMPI RETURNDATASIZE PUSH1 0x0 DUP1 RETURNDATACOPY RETURNDATASIZE PUSH1 0x0 REVERT JUMPDEST POP POP POP JUMP JUMPDEST PUSH1 0xB PUSH1 0x0 SWAP1 SLOAD SWAP1 PUSH2 0x100 EXP SWAP1 DIV PUSH1 0xFF AND DUP2 JUMP JUMPDEST PUSH1 0xB PUSH1 0x1 SWAP1 SLOAD SWAP1 PUSH2 0x100 EXP SWAP1 DIV PUSH20 0xFFFFFFFFFFFFFFFFFFFFFFFFFFFFFFFFFFFFFFFF AND PUSH20 0xFFFFFFFFFFFFFFFFFFFFFFFFFFFFFFFFFFFFFFFF AND PUSH2 0x48F PUSH2 0xE20 JUMP JUMPDEST PUSH20 0xFFFFFFFFFFFFFFFFFFFFFFFFFFFFFFFFFFFFFFFF AND EQ PUSH2 0x4E5 JUMPI PUSH1 0x40 MLOAD PUSH32 0x8C379A000000000000000000000000000000000000000000000000000000000 DUP2 MSTORE PUSH1 0x4 ADD PUSH2 0x4DC SWAP1 PUSH2 0x1C70 JUMP JUMPDEST PUSH1 0x40 MLOAD DUP1 SWAP2 SUB SWAP1 REVERT JUMPDEST PUSH1 0x1 ISZERO ISZERO PUSH1 0xB PUSH1 0x0 SWAP1 SLOAD SWAP1 PUSH2 0x100 EXP SWAP1 DIV PUSH1 0xFF AND ISZERO ISZERO EQ PUSH2 0x53B JUMPI PUSH1 0x40 MLOAD PUSH32 0x8C379A000000000000000000000000000000000000000000000000000000000 DUP2 MSTORE PUSH1 0x4 ADD PUSH2 0x532 SWAP1 PUSH2 0x1C30 JUMP JUMPDEST PUSH1 0x40 MLOAD DUP1 SWAP2 SUB SWAP1 REVERT JUMPDEST PUSH1 0x0 PUSH1 0xB PUSH1 0x0 PUSH2 0x100 EXP DUP2 SLOAD DUP2 PUSH1 0xFF MUL NOT AND SWAP1 DUP4 ISZERO ISZERO MUL OR SWAP1 SSTORE POP JUMP JUMPDEST PUSH1 0x0 PUSH1 0x60 PUSH1 0xB PUSH1 0x1 SWAP1 SLOAD SWAP1 PUSH2 0x100 EXP SWAP1 DIV PUSH20 0xFFFFFFFFFFFFFFFFFFFFFFFFFFFFFFFFFFFFFFFF AND PUSH20 0xFFFFFFFFFFFFFFFFFFFFFFFFFFFFFFFFFFFFFFFF AND PUSH2 0x59D PUSH2 0xE20 JUMP JUMPDEST PUSH20 0xFFFFFFFFFFFFFFFFFFFFFFFFFFFFFFFFFFFFFFFF AND EQ PUSH2 0x5F3 JUMPI PUSH1 0x40 MLOAD PUSH32 0x8C379A000000000000000000000000000000000000000000000000000000000 DUP2 MSTORE PUSH1 0x4 ADD PUSH2 0x5EA SWAP1 PUSH2 0x1C70 JUMP JUMPDEST PUSH1 0x40 MLOAD DUP1 SWAP2 SUB SWAP1 REVERT JUMPDEST PUSH1 0x0 ISZERO ISZERO PUSH1 0xB PUSH1 0x0 SWAP1 SLOAD SWAP1 PUSH2 0x100 EXP SWAP1 DIV PUSH1 0xFF AND ISZERO ISZERO EQ PUSH2 0x649 JUMPI PUSH1 0x40 MLOAD PUSH32 0x8C379A000000000000000000000000000000000000000000000000000000000 DUP2 MSTORE PUSH1 0x4 ADD PUSH2 0x640 SWAP1 PUSH2 0x1C90 JUMP JUMPDEST PUSH1 0x40 MLOAD DUP1 SWAP2 SUB SWAP1 REVERT JUMPDEST PUSH2 0x3E8 PUSH1 0x4 SLOAD LT PUSH2 0x68F JUMPI PUSH1 0x40 MLOAD PUSH32 0x8C379A000000000000000000000000000000000000000000000000000000000 DUP2 MSTORE PUSH1 0x4 ADD PUSH2 0x686 SWAP1 PUSH2 0x1CB0 JUMP JUMPDEST PUSH1 0x40 MLOAD DUP1 SWAP2 SUB SWAP1 REVERT JUMPDEST PUSH1 0x0 PUSH2 0x699 PUSH2 0xE28 JUMP JUMPDEST SWAP1 POP PUSH2 0x733 DUP5 DUP3 PUSH1 0x5 SLOAD PUSH1 0x2 DUP1 SLOAD PUSH2 0x6B0 SWAP1 PUSH2 0x1F50 JUMP JUMPDEST DUP1 PUSH1 0x1F ADD PUSH1 0x20 DUP1 SWAP2 DIV MUL PUSH1 0x20 ADD PUSH1 0x40 MLOAD SWAP1 DUP2 ADD PUSH1 0x40 MSTORE DUP1 SWAP3 SWAP2 SWAP1 DUP2 DUP2 MSTORE PUSH1 0x20 ADD DUP3 DUP1 SLOAD PUSH2 0x6DC SWAP1 PUSH2 0x1F50 JUMP JUMPDEST DUP1 ISZERO PUSH2 0x729 JUMPI DUP1 PUSH1 0x1F LT PUSH2 0x6FE JUMPI PUSH2 0x100 DUP1 DUP4 SLOAD DIV MUL DUP4 MSTORE SWAP2 PUSH1 0x20 ADD SWAP2 PUSH2 0x729 JUMP JUMPDEST DUP3 ADD SWAP2 SWAP1 PUSH1 0x0 MSTORE PUSH1 0x20 PUSH1 0x0 KECCAK256 SWAP1 JUMPDEST DUP2 SLOAD DUP2 MSTORE SWAP1 PUSH1 0x1 ADD SWAP1 PUSH1 0x20 ADD DUP1 DUP4 GT PUSH2 0x70C JUMPI DUP3 SWAP1 SUB PUSH1 0x1F AND DUP3 ADD SWAP2 JUMPDEST POP POP POP POP POP PUSH2 0x1129 JUMP JUMPDEST PUSH1 0x4 PUSH1 0x0 DUP2 SLOAD DUP1 SWAP3 SWAP2 SWAP1 PUSH2 0x746 SWAP1 PUSH2 0x1FB3 JUMP JUMPDEST SWAP2 SWAP1 POP SSTORE POP PUSH1 0x9 PUSH1 0x0 DUP6 PUSH20 0xFFFFFFFFFFFFFFFFFFFFFFFFFFFFFFFFFFFFFFFF AND PUSH20 0xFFFFFFFFFFFFFFFFFFFFFFFFFFFFFFFFFFFFFFFF AND DUP2 MSTORE PUSH1 0x20 ADD SWAP1 DUP2 MSTORE PUSH1 0x20 ADD PUSH1 0x0 KECCAK256 PUSH1 0x0 ADD DUP2 SWAP1 DUP1 PUSH1 0x1 DUP2 SLOAD ADD DUP1 DUP3 SSTORE DUP1 SWAP2 POP POP PUSH1 0x1 SWAP1 SUB SWAP1 PUSH1 0x0 MSTORE PUSH1 0x20 PUSH1 0x0 KECCAK256 ADD PUSH1 0x0 SWAP1 SWAP2 SWAP1 SWAP2 SWAP1 SWAP2 POP SSTORE DUP1 PUSH1 0x2 DUP1 DUP1 SLOAD PUSH2 0x7C3 SWAP1 PUSH2 0x1F50 JUMP JUMPDEST DUP1 PUSH1 0x1F ADD PUSH1 0x20 DUP1 SWAP2 DIV MUL PUSH1 0x20 ADD PUSH1 0x40 MLOAD SWAP1 DUP2 ADD PUSH1 0x40 MSTORE DUP1 SWAP3 SWAP2 SWAP1 DUP2 DUP2 MSTORE PUSH1 0x20 ADD DUP3 DUP1 SLOAD PUSH2 0x7EF SWAP1 PUSH2 0x1F50 JUMP JUMPDEST DUP1 ISZERO PUSH2 0x83C JUMPI DUP1 PUSH1 0x1F LT PUSH2 0x811 JUMPI PUSH2 0x100 DUP1 DUP4 SLOAD DIV MUL DUP4 MSTORE SWAP2 PUSH1 0x20 ADD SWAP2 PUSH2 0x83C JUMP JUMPDEST DUP3 ADD SWAP2 SWAP1 PUSH1 0x0 MSTORE PUSH1 0x20 PUSH1 0x0 KECCAK256 SWAP1 JUMPDEST DUP2 SLOAD DUP2 MSTORE SWAP1 PUSH1 0x1 ADD SWAP1 PUSH1 0x20 ADD DUP1 DUP4 GT PUSH2 0x81F JUMPI DUP3 SWAP1 SUB PUSH1 0x1F AND DUP3 ADD SWAP2 JUMPDEST POP POP POP POP POP SWAP1 POP SWAP3 POP SWAP3 POP POP SWAP2 POP SWAP2 JUMP JUMPDEST PUSH1 0x0 PUSH1 0xB PUSH1 0x1 SWAP1 SLOAD SWAP1 PUSH2 0x100 EXP SWAP1 DIV PUSH20 0xFFFFFFFFFFFFFFFFFFFFFFFFFFFFFFFFFFFFFFFF AND PUSH20 0xFFFFFFFFFFFFFFFFFFFFFFFFFFFFFFFFFFFFFFFF AND PUSH2 0x890 PUSH2 0xE20 JUMP JUMPDEST PUSH20 0xFFFFFFFFFFFFFFFFFFFFFFFFFFFFFFFFFFFFFFFF AND EQ PUSH2 0x8E6 JUMPI PUSH1 0x40 MLOAD PUSH32 0x8C379A000000000000000000000000000000000000000000000000000000000 DUP2 MSTORE PUSH1 0x4 ADD PUSH2 0x8DD SWAP1 PUSH2 0x1C70 JUMP JUMPDEST PUSH1 0x40 MLOAD DUP1 SWAP2 SUB SWAP1 REVERT JUMPDEST SELFBALANCE SWAP1 POP SWAP1 JUMP JUMPDEST PUSH1 0x0 PUSH1 0x60 PUSH1 0x0 ISZERO ISZERO PUSH1 0xB PUSH1 0x0 SWAP1 SLOAD SWAP1 PUSH2 0x100 EXP SWAP1 DIV PUSH1 0xFF AND ISZERO ISZERO EQ PUSH2 0x946 JUMPI PUSH1 0x40 MLOAD PUSH32 0x8C379A000000000000000000000000000000000000000000000000000000000 DUP2 MSTORE PUSH1 0x4 ADD PUSH2 0x93D SWAP1 PUSH2 0x1C90 JUMP JUMPDEST PUSH1 0x40 MLOAD DUP1 SWAP2 SUB SWAP1 REVERT JUMPDEST PUSH2 0x3E8 PUSH1 0x4 SLOAD LT PUSH2 0x98C JUMPI PUSH1 0x40 MLOAD PUSH32 0x8C379A000000000000000000000000000000000000000000000000000000000 DUP2 MSTORE PUSH1 0x4 ADD PUSH2 0x983 SWAP1 PUSH2 0x1CB0 JUMP JUMPDEST PUSH1 0x40 MLOAD DUP1 SWAP2 SUB SWAP1 REVERT JUMPDEST PUSH9 0x15AF1D78B58C40000 CALLVALUE EQ PUSH2 0x9D7 JUMPI PUSH1 0x40 MLOAD PUSH32 0x8C379A000000000000000000000000000000000000000000000000000000000 DUP2 MSTORE PUSH1 0x4 ADD PUSH2 0x9CE SWAP1 PUSH2 0x1C10 JUMP JUMPDEST PUSH1 0x40 MLOAD DUP1 SWAP2 SUB SWAP1 REVERT JUMPDEST PUSH1 0x0 PUSH2 0x9E1 PUSH2 0xE28 JUMP JUMPDEST SWAP1 POP PUSH2 0xA7B DUP5 DUP3 PUSH1 0x5 SLOAD PUSH1 0x2 DUP1 SLOAD PUSH2 0x9F8 SWAP1 PUSH2 0x1F50 JUMP JUMPDEST DUP1 PUSH1 0x1F ADD PUSH1 0x20 DUP1 SWAP2 DIV MUL PUSH1 0x20 ADD PUSH1 0x40 MLOAD SWAP1 DUP2 ADD PUSH1 0x40 MSTORE DUP1 SWAP3 SWAP2 SWAP1 DUP2 DUP2 MSTORE PUSH1 0x20 ADD DUP3 DUP1 SLOAD PUSH2 0xA24 SWAP1 PUSH2 0x1F50 JUMP JUMPDEST DUP1 ISZERO PUSH2 0xA71 JUMPI DUP1 PUSH1 0x1F LT PUSH2 0xA46 JUMPI PUSH2 0x100 DUP1 DUP4 SLOAD DIV MUL DUP4 MSTORE SWAP2 PUSH1 0x20 ADD SWAP2 PUSH2 0xA71 JUMP JUMPDEST DUP3 ADD SWAP2 SWAP1 PUSH1 0x0 MSTORE PUSH1 0x20 PUSH1 0x0 KECCAK256 SWAP1 JUMPDEST DUP2 SLOAD DUP2 MSTORE SWAP1 PUSH1 0x1 ADD SWAP1 PUSH1 0x20 ADD DUP1 DUP4 GT PUSH2 0xA54 JUMPI DUP3 SWAP1 SUB PUSH1 0x1F AND DUP3 ADD SWAP2 JUMPDEST POP POP POP POP POP PUSH2 0x1129 JUMP JUMPDEST PUSH2 0xA8C PUSH2 0xA86 PUSH2 0xE20 JUMP JUMPDEST CALLVALUE PUSH2 0x12BF JUMP JUMPDEST PUSH1 0x4 PUSH1 0x0 DUP2 SLOAD DUP1 SWAP3 SWAP2 SWAP1 PUSH2 0xA9F SWAP1 PUSH2 0x1FB3 JUMP JUMPDEST SWAP2 SWAP1 POP SSTORE POP PUSH1 0x9 PUSH1 0x0 DUP6 PUSH20 0xFFFFFFFFFFFFFFFFFFFFFFFFFFFFFFFFFFFFFFFF AND PUSH20 0xFFFFFFFFFFFFFFFFFFFFFFFFFFFFFFFFFFFFFFFF AND DUP2 MSTORE PUSH1 0x20 ADD SWAP1 DUP2 MSTORE PUSH1 0x20 ADD PUSH1 0x0 KECCAK256 PUSH1 0x0 ADD DUP2 SWAP1 DUP1 PUSH1 0x1 DUP2 SLOAD ADD DUP1 DUP3 SSTORE DUP1 SWAP2 POP POP PUSH1 0x1 SWAP1 SUB SWAP1 PUSH1 0x0 MSTORE PUSH1 0x20 PUSH1 0x0 KECCAK256 ADD PUSH1 0x0 SWAP1 SWAP2 SWAP1 SWAP2 SWAP1 SWAP2 POP SSTORE DUP1 PUSH1 0x2 DUP1 DUP1 SLOAD PUSH2 0xB1C SWAP1 PUSH2 0x1F50 JUMP JUMPDEST DUP1 PUSH1 0x1F ADD PUSH1 0x20 DUP1 SWAP2 DIV MUL PUSH1 0x20 ADD PUSH1 0x40 MLOAD SWAP1 DUP2 ADD PUSH1 0x40 MSTORE DUP1 SWAP3 SWAP2 SWAP1 DUP2 DUP2 MSTORE PUSH1 0x20 ADD DUP3 DUP1 SLOAD PUSH2 0xB48 SWAP1 PUSH2 0x1F50 JUMP JUMPDEST DUP1 ISZERO PUSH2 0xB95 JUMPI DUP1 PUSH1 0x1F LT PUSH2 0xB6A JUMPI PUSH2 0x100 DUP1 DUP4 SLOAD DIV MUL DUP4 MSTORE SWAP2 PUSH1 0x20 ADD SWAP2 PUSH2 0xB95 JUMP JUMPDEST DUP3 ADD SWAP2 SWAP1 PUSH1 0x0 MSTORE PUSH1 0x20 PUSH1 0x0 KECCAK256 SWAP1 JUMPDEST DUP2 SLOAD DUP2 MSTORE SWAP1 PUSH1 0x1 ADD SWAP1 PUSH1 0x20 ADD DUP1 DUP4 GT PUSH2 0xB78 JUMPI DUP3 SWAP1 SUB PUSH1 0x1F AND DUP3 ADD SWAP2 JUMPDEST POP POP POP POP POP SWAP1 POP SWAP3 POP SWAP3 POP POP SWAP2 POP SWAP2 JUMP JUMPDEST PUSH1 0x0 DUP1 PUSH1 0x0 PUSH1 0xB PUSH1 0x1 SWAP1 SLOAD SWAP1 PUSH2 0x100 EXP SWAP1 DIV PUSH20 0xFFFFFFFFFFFFFFFFFFFFFFFFFFFFFFFFFFFFFFFF AND PUSH20 0xFFFFFFFFFFFFFFFFFFFFFFFFFFFFFFFFFFFFFFFF AND PUSH2 0xBEC PUSH2 0xE20 JUMP JUMPDEST PUSH20 0xFFFFFFFFFFFFFFFFFFFFFFFFFFFFFFFFFFFFFFFF AND EQ PUSH2 0xC42 JUMPI PUSH1 0x40 MLOAD PUSH32 0x8C379A000000000000000000000000000000000000000000000000000000000 DUP2 MSTORE PUSH1 0x4 ADD PUSH2 0xC39 SWAP1 PUSH2 0x1C70 JUMP JUMPDEST PUSH1 0x40 MLOAD DUP1 SWAP2 SUB SWAP1 REVERT JUMPDEST PUSH1 0x6 SLOAD PUSH1 0x7 SLOAD PUSH1 0x8 SLOAD SWAP3 POP SWAP3 POP SWAP3 POP SWAP1 SWAP2 SWAP3 JUMP JUMPDEST PUSH1 0xB PUSH1 0x1 SWAP1 SLOAD SWAP1 PUSH2 0x100 EXP SWAP1 DIV PUSH20 0xFFFFFFFFFFFFFFFFFFFFFFFFFFFFFFFFFFFFFFFF AND PUSH20 0xFFFFFFFFFFFFFFFFFFFFFFFFFFFFFFFFFFFFFFFF AND PUSH2 0xC97 PUSH2 0xE20 JUMP JUMPDEST PUSH20 0xFFFFFFFFFFFFFFFFFFFFFFFFFFFFFFFFFFFFFFFF AND EQ PUSH2 0xCED JUMPI PUSH1 0x40 MLOAD PUSH32 0x8C379A000000000000000000000000000000000000000000000000000000000 DUP2 MSTORE PUSH1 0x4 ADD PUSH2 0xCE4 SWAP1 PUSH2 0x1C70 JUMP JUMPDEST PUSH1 0x40 MLOAD DUP1 SWAP2 SUB SWAP1 REVERT JUMPDEST PUSH1 0x0 ISZERO ISZERO PUSH1 0xB PUSH1 0x0 SWAP1 SLOAD SWAP1 PUSH2 0x100 EXP SWAP1 DIV PUSH1 0xFF AND ISZERO ISZERO EQ PUSH2 0xD43 JUMPI PUSH1 0x40 MLOAD PUSH32 0x8C379A000000000000000000000000000000000000000000000000000000000 DUP2 MSTORE PUSH1 0x4 ADD PUSH2 0xD3A SWAP1 PUSH2 0x1C50 JUMP JUMPDEST PUSH1 0x40 MLOAD DUP1 SWAP2 SUB SWAP1 REVERT JUMPDEST PUSH1 0x1 PUSH1 0xB PUSH1 0x0 PUSH2 0x100 EXP DUP2 SLOAD DUP2 PUSH1 0xFF MUL NOT AND SWAP1 DUP4 ISZERO ISZERO MUL OR SWAP1 SSTORE POP JUMP JUMPDEST PUSH1 0xB PUSH1 0x1 SWAP1 SLOAD SWAP1 PUSH2 0x100 EXP SWAP1 DIV PUSH20 0xFFFFFFFFFFFFFFFFFFFFFFFFFFFFFFFFFFFFFFFF AND DUP2 JUMP JUMPDEST PUSH1 0x60 PUSH1 0x9 PUSH1 0x0 DUP4 PUSH20 0xFFFFFFFFFFFFFFFFFFFFFFFFFFFFFFFFFFFFFFFF AND PUSH20 0xFFFFFFFFFFFFFFFFFFFFFFFFFFFFFFFFFFFFFFFF AND DUP2 MSTORE PUSH1 0x20 ADD SWAP1 DUP2 MSTORE PUSH1 0x20 ADD PUSH1 0x0 KECCAK256 PUSH1 0x0 ADD DUP1 SLOAD DUP1 PUSH1 0x20 MUL PUSH1 0x20 ADD PUSH1 0x40 MLOAD SWAP1 DUP2 ADD PUSH1 0x40 MSTORE DUP1 SWAP3 SWAP2 SWAP1 DUP2 DUP2 MSTORE PUSH1 0x20 ADD DUP3 DUP1 SLOAD DUP1 ISZERO PUSH2 0xE14 JUMPI PUSH1 0x20 MUL DUP3 ADD SWAP2 SWAP1 PUSH1 0x0 MSTORE PUSH1 0x20 PUSH1 0x0 KECCAK256 SWAP1 JUMPDEST DUP2 SLOAD DUP2 MSTORE PUSH1 0x20 ADD SWAP1 PUSH1 0x1 ADD SWAP1 DUP1 DUP4 GT PUSH2 0xE00 JUMPI JUMPDEST POP POP POP POP POP SWAP1 POP SWAP2 SWAP1 POP JUMP JUMPDEST PUSH1 0x0 CALLER SWAP1 POP SWAP1 JUMP JUMPDEST PUSH1 0x0 DUP1 ISZERO ISZERO PUSH1 0xB PUSH1 0x0 SWAP1 SLOAD SWAP1 PUSH2 0x100 EXP SWAP1 DIV PUSH1 0xFF AND ISZERO ISZERO EQ PUSH2 0xE7F JUMPI PUSH1 0x40 MLOAD PUSH32 0x8C379A000000000000000000000000000000000000000000000000000000000 DUP2 MSTORE PUSH1 0x4 ADD PUSH2 0xE76 SWAP1 PUSH2 0x1C90 JUMP JUMPDEST PUSH1 0x40 MLOAD DUP1 SWAP2 SUB SWAP1 REVERT JUMPDEST PUSH1 0x0 PUSH2 0xE89 PUSH2 0x1319 JUMP JUMPDEST SWAP1 POP PUSH1 0x0 PUSH1 0x3 DUP3 PUSH1 0x14 DUP2 LT PUSH2 0xEA1 JUMPI PUSH2 0xEA0 PUSH2 0x20E8 JUMP JUMPDEST JUMPDEST PUSH1 0x20 SWAP2 DUP3 DUP3 DIV ADD SWAP2 SWAP1 MOD SWAP1 SLOAD SWAP1 PUSH2 0x100 EXP SWAP1 DIV PUSH1 0xFF AND PUSH1 0xFF AND SWAP1 POP PUSH1 0x0 DUP2 EQ DUP1 ISZERO PUSH2 0xECE JUMPI POP PUSH1 0x32 PUSH1 0x6 SLOAD LT JUMPDEST ISZERO PUSH2 0xF2D JUMPI PUSH1 0x6 SLOAD PUSH1 0x40 MLOAD PUSH1 0x20 ADD PUSH2 0xEE6 SWAP2 SWAP1 PUSH2 0x1AAA JUMP JUMPDEST PUSH1 0x40 MLOAD PUSH1 0x20 DUP2 DUP4 SUB SUB DUP2 MSTORE SWAP1 PUSH1 0x40 MSTORE PUSH1 0x2 SWAP1 DUP1 MLOAD SWAP1 PUSH1 0x20 ADD SWAP1 PUSH2 0xF0A SWAP3 SWAP2 SWAP1 PUSH2 0x15D9 JUMP JUMPDEST POP PUSH1 0x6 PUSH1 0x0 DUP2 SLOAD DUP1 SWAP3 SWAP2 SWAP1 PUSH2 0xF1E SWAP1 PUSH2 0x1FB3 JUMP JUMPDEST SWAP2 SWAP1 POP SSTORE POP DUP1 SWAP3 POP POP POP PUSH2 0x1126 JUMP JUMPDEST PUSH1 0x1 DUP2 GT ISZERO DUP1 ISZERO PUSH2 0xF40 JUMPI POP PUSH1 0x64 PUSH1 0x7 SLOAD LT JUMPDEST ISZERO PUSH2 0xFB3 JUMPI PUSH1 0x40 MLOAD DUP1 PUSH1 0x40 ADD PUSH1 0x40 MSTORE DUP1 PUSH1 0x4 DUP2 MSTORE PUSH1 0x20 ADD PUSH32 0x476F6C6400000000000000000000000000000000000000000000000000000000 DUP2 MSTORE POP PUSH1 0x2 SWAP1 DUP1 MLOAD SWAP1 PUSH1 0x20 ADD SWAP1 PUSH2 0xF90 SWAP3 SWAP2 SWAP1 PUSH2 0x165F JUMP JUMPDEST POP PUSH1 0x7 PUSH1 0x0 DUP2 SLOAD DUP1 SWAP3 SWAP2 SWAP1 PUSH2 0xFA4 SWAP1 PUSH2 0x1FB3 JUMP JUMPDEST SWAP2 SWAP1 POP SSTORE POP DUP1 SWAP3 POP POP POP PUSH2 0x1126 JUMP JUMPDEST PUSH1 0x2 DUP2 GT ISZERO DUP1 ISZERO PUSH2 0xFC8 JUMPI POP PUSH2 0x352 PUSH1 0x8 SLOAD GT ISZERO JUMPDEST ISZERO PUSH2 0x103B JUMPI PUSH1 0x40 MLOAD DUP1 PUSH1 0x40 ADD PUSH1 0x40 MSTORE DUP1 PUSH1 0x6 DUP2 MSTORE PUSH1 0x20 ADD PUSH32 0x53696C7665720000000000000000000000000000000000000000000000000000 DUP2 MSTORE POP PUSH1 0x2 SWAP1 DUP1 MLOAD SWAP1 PUSH1 0x20 ADD SWAP1 PUSH2 0x1018 SWAP3 SWAP2 SWAP1 PUSH2 0x165F JUMP JUMPDEST POP PUSH1 0x8 PUSH1 0x0 DUP2 SLOAD DUP1 SWAP3 SWAP2 SWAP1 PUSH2 0x102C SWAP1 PUSH2 0x1FB3 JUMP JUMPDEST SWAP2 SWAP1 POP SSTORE POP DUP1 SWAP3 POP POP POP PUSH2 0x1126 JUMP JUMPDEST PUSH1 0x64 PUSH1 0x7 SLOAD LT ISZERO PUSH2 0x10B8 JUMPI PUSH1 0x1 SWAP1 POP PUSH1 0x40 MLOAD DUP1 PUSH1 0x40 ADD PUSH1 0x40 MSTORE DUP1 PUSH1 0x4 DUP2 MSTORE PUSH1 0x20 ADD PUSH32 0x476F6C6400000000000000000000000000000000000000000000000000000000 DUP2 MSTORE POP PUSH1 0x2 SWAP1 DUP1 MLOAD SWAP1 PUSH1 0x20 ADD SWAP1 PUSH2 0x1095 SWAP3 SWAP2 SWAP1 PUSH2 0x165F JUMP JUMPDEST POP PUSH1 0x7 PUSH1 0x0 DUP2 SLOAD DUP1 SWAP3 SWAP2 SWAP1 PUSH2 0x10A9 SWAP1 PUSH2 0x1FB3 JUMP JUMPDEST SWAP2 SWAP1 POP SSTORE POP DUP1 SWAP3 POP POP POP PUSH2 0x1126 JUMP JUMPDEST PUSH1 0x0 SWAP1 POP PUSH1 0x40 MLOAD DUP1 PUSH1 0x40 ADD PUSH1 0x40 MSTORE DUP1 PUSH1 0x7 DUP2 MSTORE PUSH1 0x20 ADD PUSH32 0x4469616D6F6E6400000000000000000000000000000000000000000000000000 DUP2 MSTORE POP PUSH1 0x2 SWAP1 DUP1 MLOAD SWAP1 PUSH1 0x20 ADD SWAP1 PUSH2 0x1107 SWAP3 SWAP2 SWAP1 PUSH2 0x165F JUMP JUMPDEST POP PUSH1 0x6 PUSH1 0x0 DUP2 SLOAD DUP1 SWAP3 SWAP2 SWAP1 PUSH2 0x111B SWAP1 PUSH2 0x1FB3 JUMP JUMPDEST SWAP2 SWAP1 POP SSTORE POP DUP1 SWAP3 POP POP POP JUMPDEST SWAP1 JUMP JUMPDEST PUSH1 0x0 PUSH20 0xFFFFFFFFFFFFFFFFFFFFFFFFFFFFFFFFFFFFFFFF AND DUP5 PUSH20 0xFFFFFFFFFFFFFFFFFFFFFFFFFFFFFFFFFFFFFFFF AND EQ ISZERO PUSH2 0x1199 JUMPI PUSH1 0x40 MLOAD PUSH32 0x8C379A000000000000000000000000000000000000000000000000000000000 DUP2 MSTORE PUSH1 0x4 ADD PUSH2 0x1190 SWAP1 PUSH2 0x1CF0 JUMP JUMPDEST PUSH1 0x40 MLOAD DUP1 SWAP2 SUB SWAP1 REVERT JUMPDEST PUSH1 0x0 PUSH2 0x11A3 PUSH2 0xE20 JUMP JUMPDEST SWAP1 POP PUSH2 0x11C4 DUP2 PUSH1 0x0 DUP8 PUSH2 0x11B5 DUP9 PUSH2 0x135D JUMP JUMPDEST PUSH2 0x11BE DUP9 PUSH2 0x135D JUMP JUMPDEST DUP8 PUSH2 0x13D7 JUMP JUMPDEST DUP3 PUSH1 0x0 DUP1 DUP7 DUP2 MSTORE PUSH1 0x20 ADD SWAP1 DUP2 MSTORE PUSH1 0x20 ADD PUSH1 0x0 KECCAK256 PUSH1 0x0 DUP8 PUSH20 0xFFFFFFFFFFFFFFFFFFFFFFFFFFFFFFFFFFFFFFFF AND PUSH20 0xFFFFFFFFFFFFFFFFFFFFFFFFFFFFFFFFFFFFFFFF AND DUP2 MSTORE PUSH1 0x20 ADD SWAP1 DUP2 MSTORE PUSH1 0x20 ADD PUSH1 0x0 KECCAK256 PUSH1 0x0 DUP3 DUP3 SLOAD PUSH2 0x1223 SWAP2 SWAP1 PUSH2 0x1E41 JUMP JUMPDEST SWAP3 POP POP DUP2 SWAP1 SSTORE POP DUP5 PUSH20 0xFFFFFFFFFFFFFFFFFFFFFFFFFFFFFFFFFFFFFFFF AND PUSH1 0x0 PUSH20 0xFFFFFFFFFFFFFFFFFFFFFFFFFFFFFFFFFFFFFFFF AND DUP3 PUSH20 0xFFFFFFFFFFFFFFFFFFFFFFFFFFFFFFFFFFFFFFFF AND PUSH32 0xC3D58168C5AE7397731D063D5BBF3D657854427343F4C083240F7AACAA2D0F62 DUP8 DUP8 PUSH1 0x40 MLOAD PUSH2 0x12A1 SWAP3 SWAP2 SWAP1 PUSH2 0x1D5B JUMP JUMPDEST PUSH1 0x40 MLOAD DUP1 SWAP2 SUB SWAP1 LOG4 PUSH2 0x12B8 DUP2 PUSH1 0x0 DUP8 DUP8 DUP8 DUP8 PUSH2 0x13DF JUMP JUMPDEST POP POP POP POP POP JUMP JUMPDEST DUP1 PUSH1 0xA PUSH1 0x0 DUP5 PUSH20 0xFFFFFFFFFFFFFFFFFFFFFFFFFFFFFFFFFFFFFFFF AND PUSH20 0xFFFFFFFFFFFFFFFFFFFFFFFFFFFFFFFFFFFFFFFF AND DUP2 MSTORE PUSH1 0x20 ADD SWAP1 DUP2 MSTORE PUSH1 0x20 ADD PUSH1 0x0 KECCAK256 PUSH1 0x0 DUP3 DUP3 SLOAD PUSH2 0x130E SWAP2 SWAP1 PUSH2 0x1E41 JUMP JUMPDEST SWAP3 POP POP DUP2 SWAP1 SSTORE POP POP POP JUMP JUMPDEST PUSH1 0x0 DUP1 PUSH1 0x14 TIMESTAMP CALLER PUSH1 0x40 MLOAD PUSH1 0x20 ADD PUSH2 0x1331 SWAP3 SWAP2 SWAP1 PUSH2 0x1AD0 JUMP JUMPDEST PUSH1 0x40 MLOAD PUSH1 0x20 DUP2 DUP4 SUB SUB DUP2 MSTORE SWAP1 PUSH1 0x40 MSTORE DUP1 MLOAD SWAP1 PUSH1 0x20 ADD KECCAK256 PUSH1 0x0 SHR PUSH2 0x1354 SWAP2 SWAP1 PUSH2 0x202A JUMP JUMPDEST SWAP1 POP DUP1 SWAP2 POP POP SWAP1 JUMP JUMPDEST PUSH1 0x60 PUSH1 0x0 PUSH1 0x1 PUSH8 0xFFFFFFFFFFFFFFFF DUP2 GT ISZERO PUSH2 0x137C JUMPI PUSH2 0x137B PUSH2 0x2117 JUMP JUMPDEST JUMPDEST PUSH1 0x40 MLOAD SWAP1 DUP1 DUP3 MSTORE DUP1 PUSH1 0x20 MUL PUSH1 0x20 ADD DUP3 ADD PUSH1 0x40 MSTORE DUP1 ISZERO PUSH2 0x13AA JUMPI DUP2 PUSH1 0x20 ADD PUSH1 0x20 DUP3 MUL DUP1 CALLDATASIZE DUP4 CALLDATACOPY DUP1 DUP3 ADD SWAP2 POP POP SWAP1 POP JUMPDEST POP SWAP1 POP DUP3 DUP2 PUSH1 0x0 DUP2 MLOAD DUP2 LT PUSH2 0x13C2 JUMPI PUSH2 0x13C1 PUSH2 0x20E8 JUMP JUMPDEST JUMPDEST PUSH1 0x20 MUL PUSH1 0x20 ADD ADD DUP2 DUP2 MSTORE POP POP DUP1 SWAP2 POP POP SWAP2 SWAP1 POP JUMP JUMPDEST POP POP POP POP POP POP JUMP JUMPDEST PUSH2 0x13FE DUP5 PUSH20 0xFFFFFFFFFFFFFFFFFFFFFFFFFFFFFFFFFFFFFFFF AND PUSH2 0x15C6 JUMP JUMPDEST ISZERO PUSH2 0x15BE JUMPI DUP4 PUSH20 0xFFFFFFFFFFFFFFFFFFFFFFFFFFFFFFFFFFFFFFFF AND PUSH4 0xF23A6E61 DUP8 DUP8 DUP7 DUP7 DUP7 PUSH1 0x40 MLOAD DUP7 PUSH4 0xFFFFFFFF AND PUSH1 0xE0 SHL DUP2 MSTORE PUSH1 0x4 ADD PUSH2 0x1444 SWAP6 SWAP5 SWAP4 SWAP3 SWAP2 SWAP1 PUSH2 0x1B17 JUMP JUMPDEST PUSH1 0x20 PUSH1 0x40 MLOAD DUP1 DUP4 SUB DUP2 PUSH1 0x0 DUP8 DUP1 EXTCODESIZE ISZERO DUP1 ISZERO PUSH2 0x145E JUMPI PUSH1 0x0 DUP1 REVERT JUMPDEST POP GAS CALL SWAP3 POP POP POP DUP1 ISZERO PUSH2 0x148F JUMPI POP PUSH1 0x40 MLOAD RETURNDATASIZE PUSH1 0x1F NOT PUSH1 0x1F DUP3 ADD AND DUP3 ADD DUP1 PUSH1 0x40 MSTORE POP DUP2 ADD SWAP1 PUSH2 0x148C SWAP2 SWAP1 PUSH2 0x179B JUMP JUMPDEST PUSH1 0x1 JUMPDEST PUSH2 0x1535 JUMPI PUSH2 0x149B PUSH2 0x2146 JUMP JUMPDEST DUP1 PUSH4 0x8C379A0 EQ ISZERO PUSH2 0x14F8 JUMPI POP PUSH2 0x14B0 PUSH2 0x23CD JUMP JUMPDEST DUP1 PUSH2 0x14BB JUMPI POP PUSH2 0x14FA JUMP JUMPDEST DUP1 PUSH1 0x40 MLOAD PUSH32 0x8C379A000000000000000000000000000000000000000000000000000000000 DUP2 MSTORE PUSH1 0x4 ADD PUSH2 0x14EF SWAP2 SWAP1 PUSH2 0x1BAE JUMP JUMPDEST PUSH1 0x40 MLOAD DUP1 SWAP2 SUB SWAP1 REVERT JUMPDEST POP JUMPDEST PUSH1 0x40 MLOAD PUSH32 0x8C379A000000000000000000000000000000000000000000000000000000000 DUP2 MSTORE PUSH1 0x4 ADD PUSH2 0x152C SWAP1 PUSH2 0x1BD0 JUMP JUMPDEST PUSH1 0x40 MLOAD DUP1 SWAP2 SUB SWAP1 REVERT JUMPDEST PUSH4 0xF23A6E61 PUSH1 0xE0 SHL PUSH28 0xFFFFFFFFFFFFFFFFFFFFFFFFFFFFFFFFFFFFFFFFFFFFFFFFFFFFFFFF NOT AND DUP2 PUSH28 0xFFFFFFFFFFFFFFFFFFFFFFFFFFFFFFFFFFFFFFFFFFFFFFFFFFFFFFFF NOT AND EQ PUSH2 0x15BC JUMPI PUSH1 0x40 MLOAD PUSH32 0x8C379A000000000000000000000000000000000000000000000000000000000 DUP2 MSTORE PUSH1 0x4 ADD PUSH2 0x15B3 SWAP1 PUSH2 0x1BF0 JUMP JUMPDEST PUSH1 0x40 MLOAD DUP1 SWAP2 SUB SWAP1 REVERT JUMPDEST POP JUMPDEST POP POP POP POP POP POP JUMP JUMPDEST PUSH1 0x0 DUP1 DUP3 EXTCODESIZE SWAP1 POP PUSH1 0x0 DUP2 GT SWAP2 POP POP SWAP2 SWAP1 POP JUMP JUMPDEST DUP3 DUP1 SLOAD PUSH2 0x15E5 SWAP1 PUSH2 0x1F50 JUMP JUMPDEST SWAP1 PUSH1 0x0 MSTORE PUSH1 0x20 PUSH1 0x0 KECCAK256 SWAP1 PUSH1 0x1F ADD PUSH1 0x20 SWAP1 DIV DUP2 ADD SWAP3 DUP3 PUSH2 0x1607 JUMPI PUSH1 0x0 DUP6 SSTORE PUSH2 0x164E JUMP JUMPDEST DUP3 PUSH1 0x1F LT PUSH2 0x1620 JUMPI DUP1 MLOAD PUSH1 0xFF NOT AND DUP4 DUP1 ADD OR DUP6 SSTORE PUSH2 0x164E JUMP JUMPDEST DUP3 DUP1 ADD PUSH1 0x1 ADD DUP6 SSTORE DUP3 ISZERO PUSH2 0x164E JUMPI SWAP2 DUP3 ADD JUMPDEST DUP3 DUP2 GT ISZERO PUSH2 0x164D JUMPI DUP3 MLOAD DUP3 SSTORE SWAP2 PUSH1 0x20 ADD SWAP2 SWAP1 PUSH1 0x1 ADD SWAP1 PUSH2 0x1632 JUMP JUMPDEST JUMPDEST POP SWAP1 POP PUSH2 0x165B SWAP2 SWAP1 PUSH2 0x16E5 JUMP JUMPDEST POP SWAP1 JUMP JUMPDEST DUP3 DUP1 SLOAD PUSH2 0x166B SWAP1 PUSH2 0x1F50 JUMP JUMPDEST SWAP1 PUSH1 0x0 MSTORE PUSH1 0x20 PUSH1 0x0 KECCAK256 SWAP1 PUSH1 0x1F ADD PUSH1 0x20 SWAP1 DIV DUP2 ADD SWAP3 DUP3 PUSH2 0x168D JUMPI PUSH1 0x0 DUP6 SSTORE PUSH2 0x16D4 JUMP JUMPDEST DUP3 PUSH1 0x1F LT PUSH2 0x16A6 JUMPI DUP1 MLOAD PUSH1 0xFF NOT AND DUP4 DUP1 ADD OR DUP6 SSTORE PUSH2 0x16D4 JUMP JUMPDEST DUP3 DUP1 ADD PUSH1 0x1 ADD DUP6 SSTORE DUP3 ISZERO PUSH2 0x16D4 JUMPI SWAP2 DUP3 ADD JUMPDEST DUP3 DUP2 GT ISZERO PUSH2 0x16D3 JUMPI DUP3 MLOAD DUP3 SSTORE SWAP2 PUSH1 0x20 ADD SWAP2 SWAP1 PUSH1 0x1 ADD SWAP1 PUSH2 0x16B8 JUMP JUMPDEST JUMPDEST POP SWAP1 POP PUSH2 0x16E1 SWAP2 SWAP1 PUSH2 0x16E5 JUMP JUMPDEST POP SWAP1 JUMP JUMPDEST JUMPDEST DUP1 DUP3 GT ISZERO PUSH2 0x16FE JUMPI PUSH1 0x0 DUP2 PUSH1 0x0 SWAP1 SSTORE POP PUSH1 0x1 ADD PUSH2 0x16E6 JUMP JUMPDEST POP SWAP1 JUMP JUMPDEST PUSH1 0x0 DUP2 CALLDATALOAD SWAP1 POP PUSH2 0x1711 DUP2 PUSH2 0x2463 JUMP JUMPDEST SWAP3 SWAP2 POP POP JUMP JUMPDEST PUSH1 0x0 DUP2 CALLDATALOAD SWAP1 POP PUSH2 0x1726 DUP2 PUSH2 0x247A JUMP JUMPDEST SWAP3 SWAP2 POP POP JUMP JUMPDEST PUSH1 0x0 DUP2 MLOAD SWAP1 POP PUSH2 0x173B DUP2 PUSH2 0x2491 JUMP JUMPDEST SWAP3 SWAP2 POP POP JUMP JUMPDEST PUSH1 0x0 PUSH1 0x20 DUP3 DUP5 SUB SLT ISZERO PUSH2 0x1757 JUMPI PUSH2 0x1756 PUSH2 0x2168 JUMP JUMPDEST JUMPDEST PUSH1 0x0 PUSH2 0x1765 DUP5 DUP3 DUP6 ADD PUSH2 0x1702 JUMP JUMPDEST SWAP2 POP POP SWAP3 SWAP2 POP POP JUMP JUMPDEST PUSH1 0x0 PUSH1 0x20 DUP3 DUP5 SUB SLT ISZERO PUSH2 0x1784 JUMPI PUSH2 0x1783 PUSH2 0x2168 JUMP JUMPDEST JUMPDEST PUSH1 0x0 PUSH2 0x1792 DUP5 DUP3 DUP6 ADD PUSH2 0x1717 JUMP JUMPDEST SWAP2 POP POP SWAP3 SWAP2 POP POP JUMP JUMPDEST PUSH1 0x0 PUSH1 0x20 DUP3 DUP5 SUB SLT ISZERO PUSH2 0x17B1 JUMPI PUSH2 0x17B0 PUSH2 0x2168 JUMP JUMPDEST JUMPDEST PUSH1 0x0 PUSH2 0x17BF DUP5 DUP3 DUP6 ADD PUSH2 0x172C JUMP JUMPDEST SWAP2 POP POP SWAP3 SWAP2 POP POP JUMP JUMPDEST PUSH1 0x0 PUSH2 0x17D4 DUP4 DUP4 PUSH2 0x1A75 JUMP JUMPDEST PUSH1 0x20 DUP4 ADD SWAP1 POP SWAP3 SWAP2 POP POP JUMP JUMPDEST PUSH2 0x17E9 DUP2 PUSH2 0x1EA9 JUMP JUMPDEST DUP3 MSTORE POP POP JUMP JUMPDEST PUSH2 0x17F8 DUP2 PUSH2 0x1E97 JUMP JUMPDEST DUP3 MSTORE POP POP JUMP JUMPDEST PUSH2 0x180F PUSH2 0x180A DUP3 PUSH2 0x1E97 JUMP JUMPDEST PUSH2 0x1FFC JUMP JUMPDEST DUP3 MSTORE POP POP JUMP JUMPDEST PUSH1 0x0 PUSH2 0x1820 DUP3 PUSH2 0x1DD5 JUMP JUMPDEST PUSH2 0x182A DUP2 DUP6 PUSH2 0x1E03 JUMP JUMPDEST SWAP4 POP PUSH2 0x1835 DUP4 PUSH2 0x1DC5 JUMP JUMPDEST DUP1 PUSH1 0x0 JUMPDEST DUP4 DUP2 LT ISZERO PUSH2 0x1866 JUMPI DUP2 MLOAD PUSH2 0x184D DUP9 DUP3 PUSH2 0x17C8 JUMP JUMPDEST SWAP8 POP PUSH2 0x1858 DUP4 PUSH2 0x1DF6 JUMP JUMPDEST SWAP3 POP POP PUSH1 0x1 DUP2 ADD SWAP1 POP PUSH2 0x1839 JUMP JUMPDEST POP DUP6 SWAP4 POP POP POP POP SWAP3 SWAP2 POP POP JUMP JUMPDEST PUSH2 0x187C DUP2 PUSH2 0x1EBB JUMP JUMPDEST DUP3 MSTORE POP POP JUMP JUMPDEST PUSH1 0x0 PUSH2 0x188D DUP3 PUSH2 0x1DE0 JUMP JUMPDEST PUSH2 0x1897 DUP2 DUP6 PUSH2 0x1E14 JUMP JUMPDEST SWAP4 POP PUSH2 0x18A7 DUP2 DUP6 PUSH1 0x20 DUP7 ADD PUSH2 0x1F1D JUMP JUMPDEST PUSH2 0x18B0 DUP2 PUSH2 0x216D JUMP JUMPDEST DUP5 ADD SWAP2 POP POP SWAP3 SWAP2 POP POP JUMP JUMPDEST PUSH1 0x0 PUSH2 0x18C6 DUP3 PUSH2 0x1DEB JUMP JUMPDEST PUSH2 0x18D0 DUP2 DUP6 PUSH2 0x1E25 JUMP JUMPDEST SWAP4 POP PUSH2 0x18E0 DUP2 DUP6 PUSH1 0x20 DUP7 ADD PUSH2 0x1F1D JUMP JUMPDEST PUSH2 0x18E9 DUP2 PUSH2 0x216D JUMP JUMPDEST DUP5 ADD SWAP2 POP POP SWAP3 SWAP2 POP POP JUMP JUMPDEST PUSH1 0x0 PUSH2 0x1901 PUSH1 0x34 DUP4 PUSH2 0x1E25 JUMP JUMPDEST SWAP2 POP PUSH2 0x190C DUP3 PUSH2 0x2198 JUMP JUMPDEST PUSH1 0x40 DUP3 ADD SWAP1 POP SWAP2 SWAP1 POP JUMP JUMPDEST PUSH1 0x0 PUSH2 0x1924 PUSH1 0x28 DUP4 PUSH2 0x1E25 JUMP JUMPDEST SWAP2 POP PUSH2 0x192F DUP3 PUSH2 0x21E7 JUMP JUMPDEST PUSH1 0x40 DUP3 ADD SWAP1 POP SWAP2 SWAP1 POP JUMP JUMPDEST PUSH1 0x0 PUSH2 0x1947 PUSH1 0x8 DUP4 PUSH2 0x1E36 JUMP JUMPDEST SWAP2 POP PUSH2 0x1952 DUP3 PUSH2 0x2236 JUMP JUMPDEST PUSH1 0x8 DUP3 ADD SWAP1 POP SWAP2 SWAP1 POP JUMP JUMPDEST PUSH1 0x0 PUSH2 0x196A PUSH1 0x19 DUP4 PUSH2 0x1E25 JUMP JUMPDEST SWAP2 POP PUSH2 0x1975 DUP3 PUSH2 0x225F JUMP JUMPDEST PUSH1 0x20 DUP3 ADD SWAP1 POP SWAP2 SWAP1 POP JUMP JUMPDEST PUSH1 0x0 PUSH2 0x198D PUSH1 0x1B DUP4 PUSH2 0x1E25 JUMP JUMPDEST SWAP2 POP PUSH2 0x1998 DUP3 PUSH2 0x2288 JUMP JUMPDEST PUSH1 0x20 DUP3 ADD SWAP1 POP SWAP2 SWAP1 POP JUMP JUMPDEST PUSH1 0x0 PUSH2 0x19B0 PUSH1 0x1B DUP4 PUSH2 0x1E25 JUMP JUMPDEST SWAP2 POP PUSH2 0x19BB DUP3 PUSH2 0x22B1 JUMP JUMPDEST PUSH1 0x20 DUP3 ADD SWAP1 POP SWAP2 SWAP1 POP JUMP JUMPDEST PUSH1 0x0 PUSH2 0x19D3 PUSH1 0x1C DUP4 PUSH2 0x1E25 JUMP JUMPDEST SWAP2 POP PUSH2 0x19DE DUP3 PUSH2 0x22DA JUMP JUMPDEST PUSH1 0x20 DUP3 ADD SWAP1 POP SWAP2 SWAP1 POP JUMP JUMPDEST PUSH1 0x0 PUSH2 0x19F6 PUSH1 0x1B DUP4 PUSH2 0x1E25 JUMP JUMPDEST SWAP2 POP PUSH2 0x1A01 DUP3 PUSH2 0x2303 JUMP JUMPDEST PUSH1 0x20 DUP3 ADD SWAP1 POP SWAP2 SWAP1 POP JUMP JUMPDEST PUSH1 0x0 PUSH2 0x1A19 PUSH1 0x19 DUP4 PUSH2 0x1E25 JUMP JUMPDEST SWAP2 POP PUSH2 0x1A24 DUP3 PUSH2 0x232C JUMP JUMPDEST PUSH1 0x20 DUP3 ADD SWAP1 POP SWAP2 SWAP1 POP JUMP JUMPDEST PUSH1 0x0 PUSH2 0x1A3C PUSH1 0x1D DUP4 PUSH2 0x1E25 JUMP JUMPDEST SWAP2 POP PUSH2 0x1A47 DUP3 PUSH2 0x2355 JUMP JUMPDEST PUSH1 0x20 DUP3 ADD SWAP1 POP SWAP2 SWAP1 POP JUMP JUMPDEST PUSH1 0x0 PUSH2 0x1A5F PUSH1 0x21 DUP4 PUSH2 0x1E25 JUMP JUMPDEST SWAP2 POP PUSH2 0x1A6A DUP3 PUSH2 0x237E JUMP JUMPDEST PUSH1 0x40 DUP3 ADD SWAP1 POP SWAP2 SWAP1 POP JUMP JUMPDEST PUSH2 0x1A7E DUP2 PUSH2 0x1F13 JUMP JUMPDEST DUP3 MSTORE POP POP JUMP JUMPDEST PUSH2 0x1A8D DUP2 PUSH2 0x1F13 JUMP JUMPDEST DUP3 MSTORE POP POP JUMP JUMPDEST PUSH2 0x1AA4 PUSH2 0x1A9F DUP3 PUSH2 0x1F13 JUMP JUMPDEST PUSH2 0x2020 JUMP JUMPDEST DUP3 MSTORE POP POP JUMP JUMPDEST PUSH1 0x0 PUSH2 0x1AB5 DUP3 PUSH2 0x193A JUMP JUMPDEST SWAP2 POP PUSH2 0x1AC1 DUP3 DUP5 PUSH2 0x1A93 JUMP JUMPDEST PUSH1 0x20 DUP3 ADD SWAP2 POP DUP2 SWAP1 POP SWAP3 SWAP2 POP POP JUMP JUMPDEST PUSH1 0x0 PUSH2 0x1ADC DUP3 DUP6 PUSH2 0x1A93 JUMP JUMPDEST PUSH1 0x20 DUP3 ADD SWAP2 POP PUSH2 0x1AEC DUP3 DUP5 PUSH2 0x17FE JUMP JUMPDEST PUSH1 0x14 DUP3 ADD SWAP2 POP DUP2 SWAP1 POP SWAP4 SWAP3 POP POP POP JUMP JUMPDEST PUSH1 0x0 PUSH1 0x20 DUP3 ADD SWAP1 POP PUSH2 0x1B11 PUSH1 0x0 DUP4 ADD DUP5 PUSH2 0x17E0 JUMP JUMPDEST SWAP3 SWAP2 POP POP JUMP JUMPDEST PUSH1 0x0 PUSH1 0xA0 DUP3 ADD SWAP1 POP PUSH2 0x1B2C PUSH1 0x0 DUP4 ADD DUP9 PUSH2 0x17EF JUMP JUMPDEST PUSH2 0x1B39 PUSH1 0x20 DUP4 ADD DUP8 PUSH2 0x17EF JUMP JUMPDEST PUSH2 0x1B46 PUSH1 0x40 DUP4 ADD DUP7 PUSH2 0x1A84 JUMP JUMPDEST PUSH2 0x1B53 PUSH1 0x60 DUP4 ADD DUP6 PUSH2 0x1A84 JUMP JUMPDEST DUP2 DUP2 SUB PUSH1 0x80 DUP4 ADD MSTORE PUSH2 0x1B65 DUP2 DUP5 PUSH2 0x1882 JUMP JUMPDEST SWAP1 POP SWAP7 SWAP6 POP POP POP POP POP POP JUMP JUMPDEST PUSH1 0x0 PUSH1 0x20 DUP3 ADD SWAP1 POP DUP2 DUP2 SUB PUSH1 0x0 DUP4 ADD MSTORE PUSH2 0x1B8B DUP2 DUP5 PUSH2 0x1815 JUMP JUMPDEST SWAP1 POP SWAP3 SWAP2 POP POP JUMP JUMPDEST PUSH1 0x0 PUSH1 0x20 DUP3 ADD SWAP1 POP PUSH2 0x1BA8 PUSH1 0x0 DUP4 ADD DUP5 PUSH2 0x1873 JUMP JUMPDEST SWAP3 SWAP2 POP POP JUMP JUMPDEST PUSH1 0x0 PUSH1 0x20 DUP3 ADD SWAP1 POP DUP2 DUP2 SUB PUSH1 0x0 DUP4 ADD MSTORE PUSH2 0x1BC8 DUP2 DUP5 PUSH2 0x18BB JUMP JUMPDEST SWAP1 POP SWAP3 SWAP2 POP POP JUMP JUMPDEST PUSH1 0x0 PUSH1 0x20 DUP3 ADD SWAP1 POP DUP2 DUP2 SUB PUSH1 0x0 DUP4 ADD MSTORE PUSH2 0x1BE9 DUP2 PUSH2 0x18F4 JUMP JUMPDEST SWAP1 POP SWAP2 SWAP1 POP JUMP JUMPDEST PUSH1 0x0 PUSH1 0x20 DUP3 ADD SWAP1 POP DUP2 DUP2 SUB PUSH1 0x0 DUP4 ADD MSTORE PUSH2 0x1C09 DUP2 PUSH2 0x1917 JUMP JUMPDEST SWAP1 POP SWAP2 SWAP1 POP JUMP JUMPDEST PUSH1 0x0 PUSH1 0x20 DUP3 ADD SWAP1 POP DUP2 DUP2 SUB PUSH1 0x0 DUP4 ADD MSTORE PUSH2 0x1C29 DUP2 PUSH2 0x195D JUMP JUMPDEST SWAP1 POP SWAP2 SWAP1 POP JUMP JUMPDEST PUSH1 0x0 PUSH1 0x20 DUP3 ADD SWAP1 POP DUP2 DUP2 SUB PUSH1 0x0 DUP4 ADD MSTORE PUSH2 0x1C49 DUP2 PUSH2 0x1980 JUMP JUMPDEST SWAP1 POP SWAP2 SWAP1 POP JUMP JUMPDEST PUSH1 0x0 PUSH1 0x20 DUP3 ADD SWAP1 POP DUP2 DUP2 SUB PUSH1 0x0 DUP4 ADD MSTORE PUSH2 0x1C69 DUP2 PUSH2 0x19A3 JUMP JUMPDEST SWAP1 POP SWAP2 SWAP1 POP JUMP JUMPDEST PUSH1 0x0 PUSH1 0x20 DUP3 ADD SWAP1 POP DUP2 DUP2 SUB PUSH1 0x0 DUP4 ADD MSTORE PUSH2 0x1C89 DUP2 PUSH2 0x19C6 JUMP JUMPDEST SWAP1 POP SWAP2 SWAP1 POP JUMP JUMPDEST PUSH1 0x0 PUSH1 0x20 DUP3 ADD SWAP1 POP DUP2 DUP2 SUB PUSH1 0x0 DUP4 ADD MSTORE PUSH2 0x1CA9 DUP2 PUSH2 0x19E9 JUMP JUMPDEST SWAP1 POP SWAP2 SWAP1 POP JUMP JUMPDEST PUSH1 0x0 PUSH1 0x20 DUP3 ADD SWAP1 POP DUP2 DUP2 SUB PUSH1 0x0 DUP4 ADD MSTORE PUSH2 0x1CC9 DUP2 PUSH2 0x1A0C JUMP JUMPDEST SWAP1 POP SWAP2 SWAP1 POP JUMP JUMPDEST PUSH1 0x0 PUSH1 0x20 DUP3 ADD SWAP1 POP DUP2 DUP2 SUB PUSH1 0x0 DUP4 ADD MSTORE PUSH2 0x1CE9 DUP2 PUSH2 0x1A2F JUMP JUMPDEST SWAP1 POP SWAP2 SWAP1 POP JUMP JUMPDEST PUSH1 0x0 PUSH1 0x20 DUP3 ADD SWAP1 POP DUP2 DUP2 SUB PUSH1 0x0 DUP4 ADD MSTORE PUSH2 0x1D09 DUP2 PUSH2 0x1A52 JUMP JUMPDEST SWAP1 POP SWAP2 SWAP1 POP JUMP JUMPDEST PUSH1 0x0 PUSH1 0x20 DUP3 ADD SWAP1 POP PUSH2 0x1D25 PUSH1 0x0 DUP4 ADD DUP5 PUSH2 0x1A84 JUMP JUMPDEST SWAP3 SWAP2 POP POP JUMP JUMPDEST PUSH1 0x0 PUSH1 0x40 DUP3 ADD SWAP1 POP PUSH2 0x1D40 PUSH1 0x0 DUP4 ADD DUP6 PUSH2 0x1A84 JUMP JUMPDEST DUP2 DUP2 SUB PUSH1 0x20 DUP4 ADD MSTORE PUSH2 0x1D52 DUP2 DUP5 PUSH2 0x18BB JUMP JUMPDEST SWAP1 POP SWAP4 SWAP3 POP POP POP JUMP JUMPDEST PUSH1 0x0 PUSH1 0x40 DUP3 ADD SWAP1 POP PUSH2 0x1D70 PUSH1 0x0 DUP4 ADD DUP6 PUSH2 0x1A84 JUMP JUMPDEST PUSH2 0x1D7D PUSH1 0x20 DUP4 ADD DUP5 PUSH2 0x1A84 JUMP JUMPDEST SWAP4 SWAP3 POP POP POP JUMP JUMPDEST PUSH1 0x0 PUSH1 0x60 DUP3 ADD SWAP1 POP PUSH2 0x1D99 PUSH1 0x0 DUP4 ADD DUP7 PUSH2 0x1A84 JUMP JUMPDEST PUSH2 0x1DA6 PUSH1 0x20 DUP4 ADD DUP6 PUSH2 0x1A84 JUMP JUMPDEST PUSH2 0x1DB3 PUSH1 0x40 DUP4 ADD DUP5 PUSH2 0x1A84 JUMP JUMPDEST SWAP5 SWAP4 POP POP POP POP JUMP JUMPDEST PUSH1 0x0 PUSH1 0x40 MLOAD SWAP1 POP SWAP1 JUMP JUMPDEST PUSH1 0x0 DUP2 SWAP1 POP PUSH1 0x20 DUP3 ADD SWAP1 POP SWAP2 SWAP1 POP JUMP JUMPDEST PUSH1 0x0 DUP2 MLOAD SWAP1 POP SWAP2 SWAP1 POP JUMP JUMPDEST PUSH1 0x0 DUP2 MLOAD SWAP1 POP SWAP2 SWAP1 POP JUMP JUMPDEST PUSH1 0x0 DUP2 MLOAD SWAP1 POP SWAP2 SWAP1 POP JUMP JUMPDEST PUSH1 0x0 PUSH1 0x20 DUP3 ADD SWAP1 POP SWAP2 SWAP1 POP JUMP JUMPDEST PUSH1 0x0 DUP3 DUP3 MSTORE PUSH1 0x20 DUP3 ADD SWAP1 POP SWAP3 SWAP2 POP POP JUMP JUMPDEST PUSH1 0x0 DUP3 DUP3 MSTORE PUSH1 0x20 DUP3 ADD SWAP1 POP SWAP3 SWAP2 POP POP JUMP JUMPDEST PUSH1 0x0 DUP3 DUP3 MSTORE PUSH1 0x20 DUP3 ADD SWAP1 POP SWAP3 SWAP2 POP POP JUMP JUMPDEST PUSH1 0x0 DUP2 SWAP1 POP SWAP3 SWAP2 POP POP JUMP JUMPDEST PUSH1 0x0 PUSH2 0x1E4C DUP3 PUSH2 0x1F13 JUMP JUMPDEST SWAP2 POP PUSH2 0x1E57 DUP4 PUSH2 0x1F13 JUMP JUMPDEST SWAP3 POP DUP3 PUSH32 0xFFFFFFFFFFFFFFFFFFFFFFFFFFFFFFFFFFFFFFFFFFFFFFFFFFFFFFFFFFFFFFFF SUB DUP3 GT ISZERO PUSH2 0x1E8C JUMPI PUSH2 0x1E8B PUSH2 0x205B JUMP JUMPDEST JUMPDEST DUP3 DUP3 ADD SWAP1 POP SWAP3 SWAP2 POP POP JUMP JUMPDEST PUSH1 0x0 PUSH2 0x1EA2 DUP3 PUSH2 0x1EF3 JUMP JUMPDEST SWAP1 POP SWAP2 SWAP1 POP JUMP JUMPDEST PUSH1 0x0 PUSH2 0x1EB4 DUP3 PUSH2 0x1EF3 JUMP JUMPDEST SWAP1 POP SWAP2 SWAP1 POP JUMP JUMPDEST PUSH1 0x0 DUP2 ISZERO ISZERO SWAP1 POP SWAP2 SWAP1 POP JUMP JUMPDEST PUSH1 0x0 PUSH32 0xFFFFFFFF00000000000000000000000000000000000000000000000000000000 DUP3 AND SWAP1 POP SWAP2 SWAP1 POP JUMP JUMPDEST PUSH1 0x0 PUSH20 0xFFFFFFFFFFFFFFFFFFFFFFFFFFFFFFFFFFFFFFFF DUP3 AND SWAP1 POP SWAP2 SWAP1 POP JUMP JUMPDEST PUSH1 0x0 DUP2 SWAP1 POP SWAP2 SWAP1 POP JUMP JUMPDEST PUSH1 0x0 JUMPDEST DUP4 DUP2 LT ISZERO PUSH2 0x1F3B JUMPI DUP1 DUP3 ADD MLOAD DUP2 DUP5 ADD MSTORE PUSH1 0x20 DUP2 ADD SWAP1 POP PUSH2 0x1F20 JUMP JUMPDEST DUP4 DUP2 GT ISZERO PUSH2 0x1F4A JUMPI PUSH1 0x0 DUP5 DUP5 ADD MSTORE JUMPDEST POP POP POP POP JUMP JUMPDEST PUSH1 0x0 PUSH1 0x2 DUP3 DIV SWAP1 POP PUSH1 0x1 DUP3 AND DUP1 PUSH2 0x1F68 JUMPI PUSH1 0x7F DUP3 AND SWAP2 POP JUMPDEST PUSH1 0x20 DUP3 LT DUP2 EQ ISZERO PUSH2 0x1F7C JUMPI PUSH2 0x1F7B PUSH2 0x20B9 JUMP JUMPDEST JUMPDEST POP SWAP2 SWAP1 POP JUMP JUMPDEST PUSH2 0x1F8B DUP3 PUSH2 0x216D JUMP JUMPDEST DUP2 ADD DUP2 DUP2 LT PUSH8 0xFFFFFFFFFFFFFFFF DUP3 GT OR ISZERO PUSH2 0x1FAA JUMPI PUSH2 0x1FA9 PUSH2 0x2117 JUMP JUMPDEST JUMPDEST DUP1 PUSH1 0x40 MSTORE POP POP POP JUMP JUMPDEST PUSH1 0x0 PUSH2 0x1FBE DUP3 PUSH2 0x1F13 JUMP JUMPDEST SWAP2 POP PUSH32 0xFFFFFFFFFFFFFFFFFFFFFFFFFFFFFFFFFFFFFFFFFFFFFFFFFFFFFFFFFFFFFFFF DUP3 EQ ISZERO PUSH2 0x1FF1 JUMPI PUSH2 0x1FF0 PUSH2 0x205B JUMP JUMPDEST JUMPDEST PUSH1 0x1 DUP3 ADD SWAP1 POP SWAP2 SWAP1 POP JUMP JUMPDEST PUSH1 0x0 PUSH2 0x2007 DUP3 PUSH2 0x200E JUMP JUMPDEST SWAP1 POP SWAP2 SWAP1 POP JUMP JUMPDEST PUSH1 0x0 PUSH2 0x2019 DUP3 PUSH2 0x217E JUMP JUMPDEST SWAP1 POP SWAP2 SWAP1 POP JUMP JUMPDEST PUSH1 0x0 DUP2 SWAP1 POP SWAP2 SWAP1 POP JUMP JUMPDEST PUSH1 0x0 PUSH2 0x2035 DUP3 PUSH2 0x1F13 JUMP JUMPDEST SWAP2 POP PUSH2 0x2040 DUP4 PUSH2 0x1F13 JUMP JUMPDEST SWAP3 POP DUP3 PUSH2 0x2050 JUMPI PUSH2 0x204F PUSH2 0x208A JUMP JUMPDEST JUMPDEST DUP3 DUP3 MOD SWAP1 POP SWAP3 SWAP2 POP POP JUMP JUMPDEST PUSH32 0x4E487B7100000000000000000000000000000000000000000000000000000000 PUSH1 0x0 MSTORE PUSH1 0x11 PUSH1 0x4 MSTORE PUSH1 0x24 PUSH1 0x0 REVERT JUMPDEST PUSH32 0x4E487B7100000000000000000000000000000000000000000000000000000000 PUSH1 0x0 MSTORE PUSH1 0x12 PUSH1 0x4 MSTORE PUSH1 0x24 PUSH1 0x0 REVERT JUMPDEST PUSH32 0x4E487B7100000000000000000000000000000000000000000000000000000000 PUSH1 0x0 MSTORE PUSH1 0x22 PUSH1 0x4 MSTORE PUSH1 0x24 PUSH1 0x0 REVERT JUMPDEST PUSH32 0x4E487B7100000000000000000000000000000000000000000000000000000000 PUSH1 0x0 MSTORE PUSH1 0x32 PUSH1 0x4 MSTORE PUSH1 0x24 PUSH1 0x0 REVERT JUMPDEST PUSH32 0x4E487B7100000000000000000000000000000000000000000000000000000000 PUSH1 0x0 MSTORE PUSH1 0x41 PUSH1 0x4 MSTORE PUSH1 0x24 PUSH1 0x0 REVERT JUMPDEST PUSH1 0x0 PUSH1 0x3 RETURNDATASIZE GT ISZERO PUSH2 0x2165 JUMPI PUSH1 0x4 PUSH1 0x0 DUP1 RETURNDATACOPY PUSH2 0x2162 PUSH1 0x0 MLOAD PUSH2 0x218B JUMP JUMPDEST SWAP1 POP JUMPDEST SWAP1 JUMP JUMPDEST PUSH1 0x0 DUP1 REVERT JUMPDEST PUSH1 0x0 PUSH1 0x1F NOT PUSH1 0x1F DUP4 ADD AND SWAP1 POP SWAP2 SWAP1 POP JUMP JUMPDEST PUSH1 0x0 DUP2 PUSH1 0x60 SHL SWAP1 POP SWAP2 SWAP1 POP JUMP JUMPDEST PUSH1 0x0 DUP2 PUSH1 0xE0 SHR SWAP1 POP SWAP2 SWAP1 POP JUMP JUMPDEST PUSH32 0x455243313135353A207472616E7366657220746F206E6F6E2045524331313535 PUSH1 0x0 DUP3 ADD MSTORE PUSH32 0x526563656976657220696D706C656D656E746572000000000000000000000000 PUSH1 0x20 DUP3 ADD MSTORE POP JUMP JUMPDEST PUSH32 0x455243313135353A204552433131353552656365697665722072656A65637465 PUSH1 0x0 DUP3 ADD MSTORE PUSH32 0x6420746F6B656E73000000000000000000000000000000000000000000000000 PUSH1 0x20 DUP3 ADD MSTORE POP JUMP JUMPDEST PUSH32 0x4469616D6F6E645F000000000000000000000000000000000000000000000000 PUSH1 0x0 DUP3 ADD MSTORE POP JUMP JUMPDEST PUSH32 0x42616C616E6365206D757374206265203235204D617469637300000000000000 PUSH1 0x0 DUP3 ADD MSTORE POP JUMP JUMPDEST PUSH32 0x44726F707369746520697320616C72656164792052756E6E696E670000000000 PUSH1 0x0 DUP3 ADD MSTORE POP JUMP JUMPDEST PUSH32 0x44726F707369746520697320616C72656164792053746F707065640000000000 PUSH1 0x0 DUP3 ADD MSTORE POP JUMP JUMPDEST PUSH32 0x4F6E6C79204E46542D4553204F776E65722063616E2041636365737300000000 PUSH1 0x0 DUP3 ADD MSTORE POP JUMP JUMPDEST PUSH32 0x44726F7073697465206973206E6F74204F70656E6564205965742E0000000000 PUSH1 0x0 DUP3 ADD MSTORE POP JUMP JUMPDEST PUSH32 0x4D6178204D696E74696E67204C696D6974207265616368656400000000000000 PUSH1 0x0 DUP3 ADD MSTORE POP JUMP JUMPDEST PUSH32 0x4572726F7221204E6F2042616C616E636520746F207769746864726177000000 PUSH1 0x0 DUP3 ADD MSTORE POP JUMP JUMPDEST PUSH32 0x455243313135353A206D696E7420746F20746865207A65726F20616464726573 PUSH1 0x0 DUP3 ADD MSTORE PUSH32 0x7300000000000000000000000000000000000000000000000000000000000000 PUSH1 0x20 DUP3 ADD MSTORE POP JUMP JUMPDEST PUSH1 0x0 PUSH1 0x44 RETURNDATASIZE LT ISZERO PUSH2 0x23DD JUMPI PUSH2 0x2460 JUMP JUMPDEST PUSH2 0x23E5 PUSH2 0x1DBB JUMP JUMPDEST PUSH1 0x4 RETURNDATASIZE SUB PUSH1 0x4 DUP3 RETURNDATACOPY DUP1 MLOAD RETURNDATASIZE PUSH1 0x24 DUP3 ADD GT PUSH8 0xFFFFFFFFFFFFFFFF DUP3 GT OR ISZERO PUSH2 0x240D JUMPI POP POP PUSH2 0x2460 JUMP JUMPDEST DUP1 DUP3 ADD DUP1 MLOAD PUSH8 0xFFFFFFFFFFFFFFFF DUP2 GT ISZERO PUSH2 0x242B JUMPI POP POP POP POP PUSH2 0x2460 JUMP JUMPDEST DUP1 PUSH1 0x20 DUP4 ADD ADD PUSH1 0x4 RETURNDATASIZE SUB DUP6 ADD DUP2 GT ISZERO PUSH2 0x2448 JUMPI POP POP POP POP POP PUSH2 0x2460 JUMP JUMPDEST PUSH2 0x2457 DUP3 PUSH1 0x20 ADD DUP6 ADD DUP7 PUSH2 0x1F82 JUMP JUMPDEST DUP3 SWAP6 POP POP POP POP POP POP JUMPDEST SWAP1 JUMP JUMPDEST PUSH2 0x246C DUP2 PUSH2 0x1E97 JUMP JUMPDEST DUP2 EQ PUSH2 0x2477 JUMPI PUSH1 0x0 DUP1 REVERT JUMPDEST POP JUMP JUMPDEST PUSH2 0x2483 DUP2 PUSH2 0x1EA9 JUMP JUMPDEST DUP2 EQ PUSH2 0x248E JUMPI PUSH1 0x0 DUP1 REVERT JUMPDEST POP JUMP JUMPDEST PUSH2 0x249A DUP2 PUSH2 0x1EC7 JUMP JUMPDEST DUP2 EQ PUSH2 0x24A5 JUMPI PUSH1 0x0 DUP1 REVERT JUMPDEST POP JUMP INVALID LOG2 PUSH5 0x6970667358 0x22 SLT KECCAK256 CODECOPY DUP3 PUSH12 0x1A2DAC6CC48D29095B026FC6 0xD8 LT DUP10 0xC7 RETURNDATASIZE 0xAD SWAP6 LOG3 0xD 0xEC 0xF6 AND EXTCODEHASH 0x28 SWAP14 TIMESTAMP 0x23 PUSH5 0x736F6C6343 STOP ADDMOD SMOD STOP CALLER "
				},
				"gasEstimates": {
					"creation": {
						"codeDepositCost": "1887600",
						"executionCost": "infinite",
						"totalCost": "infinite"
					},
					"external": {
						"ContractBalance()": "2691",
						"CryptoRandomMint(address)": "infinite",
						"FiatRandomMint(address)": "infinite",
						"IsPaused()": "2516",
						"Owner()": "2652",
						"checkMintedCategoryWise()": "infinite",
						"checkTotalMinted()": "4693",
						"openDropsite()": "28904",
						"returnOwner(address)": "infinite",
						"stopDropsite()": "28903",
						"withDraw(address)": "infinite"
					},
					"internal": {
						"depositAmount(address,uint256)": "infinite",
						"random()": "infinite",
						"updateConditions()": "infinite"
					}
				},
				"methodIdentifiers": {
					"ContractBalance()": "3b668059",
					"CryptoRandomMint(address)": "3d65df70",
					"FiatRandomMint(address)": "32b61b4c",
					"IsPaused()": "1309a563",
					"Owner()": "b4a99a4e",
					"checkMintedCategoryWise()": "60daa851",
					"checkTotalMinted()": "0390c11c",
					"openDropsite()": "15460259",
					"returnOwner(address)": "fd6c3b1b",
					"stopDropsite()": "aa90c726",
					"withDraw(address)": "0a67d2c7"
				}
			},
			"userdoc": {
				"kind": "user",
				"methods": {},
				"version": 1
			}
		}
	}
}