{
	"Dropsite.sol": {
		"Dropsite": {
			"abi": [
				{
					"inputs": [
						{
							"internalType": "string",
							"name": "name",
							"type": "string"
						}
					],
					"stateMutability": "nonpayable",
					"type": "constructor"
				},
				{
					"anonymous": false,
					"inputs": [
						{
							"indexed": true,
							"internalType": "address",
							"name": "operator",
							"type": "address"
						},
						{
							"indexed": true,
							"internalType": "address",
							"name": "from",
							"type": "address"
						},
						{
							"indexed": true,
							"internalType": "address",
							"name": "to",
							"type": "address"
						},
						{
							"indexed": false,
							"internalType": "uint256",
							"name": "id",
							"type": "uint256"
						},
						{
							"indexed": false,
							"internalType": "uint256",
							"name": "value",
							"type": "uint256"
						}
					],
					"name": "TransferSingle",
					"type": "event"
				},
				{
					"inputs": [],
					"name": "ContractBalance",
					"outputs": [
						{
							"internalType": "uint256",
							"name": "",
							"type": "uint256"
						}
					],
					"stateMutability": "view",
					"type": "function"
				},
				{
					"inputs": [
						{
							"internalType": "address",
							"name": "user_addr",
							"type": "address"
						}
					],
					"name": "CryptoRandomMint",
					"outputs": [
						{
							"internalType": "uint256",
							"name": "",
							"type": "uint256"
						},
						{
							"internalType": "string",
							"name": "",
							"type": "string"
						}
					],
					"stateMutability": "payable",
					"type": "function"
				},
				{
					"inputs": [
						{
							"internalType": "address",
							"name": "user_addr",
							"type": "address"
						}
					],
					"name": "FiatrandomMint",
					"outputs": [
						{
							"internalType": "uint256",
							"name": "",
							"type": "uint256"
						},
						{
							"internalType": "string",
							"name": "",
							"type": "string"
						}
					],
					"stateMutability": "nonpayable",
					"type": "function"
				},
				{
					"inputs": [],
					"name": "IsPaused",
					"outputs": [
						{
							"internalType": "bool",
							"name": "",
							"type": "bool"
						}
					],
					"stateMutability": "view",
					"type": "function"
				},
				{
					"inputs": [],
					"name": "Owner",
					"outputs": [
						{
							"internalType": "address payable",
							"name": "",
							"type": "address"
						}
					],
					"stateMutability": "view",
					"type": "function"
				},
				{
					"inputs": [],
					"name": "checkMintedCategoryWise",
					"outputs": [
						{
							"internalType": "uint256",
							"name": "",
							"type": "uint256"
						},
						{
							"internalType": "uint256",
							"name": "",
							"type": "uint256"
						},
						{
							"internalType": "uint256",
							"name": "",
							"type": "uint256"
						}
					],
					"stateMutability": "view",
					"type": "function"
				},
				{
					"inputs": [],
					"name": "checkTotalMinted",
					"outputs": [
						{
							"internalType": "uint256",
							"name": "",
							"type": "uint256"
						}
					],
					"stateMutability": "view",
					"type": "function"
				},
				{
					"inputs": [
						{
							"internalType": "uint256",
							"name": "",
							"type": "uint256"
						}
					],
					"name": "nums",
					"outputs": [
						{
							"internalType": "uint8",
							"name": "",
							"type": "uint8"
						}
					],
					"stateMutability": "view",
					"type": "function"
				},
				{
					"inputs": [],
					"name": "openDropsite",
					"outputs": [],
					"stateMutability": "nonpayable",
					"type": "function"
				},
				{
					"inputs": [],
					"name": "stopDropsite",
					"outputs": [],
					"stateMutability": "nonpayable",
					"type": "function"
				},
				{
					"inputs": [
						{
							"internalType": "address payable",
							"name": "to",
							"type": "address"
						}
					],
					"name": "withDraw",
					"outputs": [],
					"stateMutability": "payable",
					"type": "function"
				}
			],
			"devdoc": {
				"kind": "dev",
				"methods": {},
				"version": 1
			},
			"evm": {
				"assembly": "    /* \"Dropsite.sol\":122:4370  contract Dropsite is ERC1155_Dropsite  { ... */\n  mstore(0x40, 0x80)\n    /* \"Dropsite.sol\":188:203  bytes  data =\"\" */\n  mload(0x40)\n  dup1\n  0x20\n  add\n  0x40\n  mstore\n  dup1\n  0x00\n  dup2\n  mstore\n  pop\n  0x02\n  swap1\n  dup1\n  mload\n  swap1\n  0x20\n  add\n  swap1\n  tag_1\n  swap3\n  swap2\n  swap1\n  tag_2\n  jump\t// in\ntag_1:\n  pop\n    /* \"Dropsite.sol\":209:254  uint8[10] public nums = [0,1,1,1,2,2,2,2,2,2] */\n  mload(0x40)\n  dup1\n  0x0140\n  add\n  0x40\n  mstore\n  dup1\n    /* \"Dropsite.sol\":234:235  0 */\n  0x00\n    /* \"Dropsite.sol\":209:254  uint8[10] public nums = [0,1,1,1,2,2,2,2,2,2] */\n  0xff\n  and\n  dup2\n  mstore\n  0x20\n  add\n    /* \"Dropsite.sol\":236:237  1 */\n  0x01\n    /* \"Dropsite.sol\":209:254  uint8[10] public nums = [0,1,1,1,2,2,2,2,2,2] */\n  0xff\n  and\n  dup2\n  mstore\n  0x20\n  add\n    /* \"Dropsite.sol\":238:239  1 */\n  0x01\n    /* \"Dropsite.sol\":209:254  uint8[10] public nums = [0,1,1,1,2,2,2,2,2,2] */\n  0xff\n  and\n  dup2\n  mstore\n  0x20\n  add\n    /* \"Dropsite.sol\":240:241  1 */\n  0x01\n    /* \"Dropsite.sol\":209:254  uint8[10] public nums = [0,1,1,1,2,2,2,2,2,2] */\n  0xff\n  and\n  dup2\n  mstore\n  0x20\n  add\n    /* \"Dropsite.sol\":242:243  2 */\n  0x02\n    /* \"Dropsite.sol\":209:254  uint8[10] public nums = [0,1,1,1,2,2,2,2,2,2] */\n  0xff\n  and\n  dup2\n  mstore\n  0x20\n  add\n    /* \"Dropsite.sol\":244:245  2 */\n  0x02\n    /* \"Dropsite.sol\":209:254  uint8[10] public nums = [0,1,1,1,2,2,2,2,2,2] */\n  0xff\n  and\n  dup2\n  mstore\n  0x20\n  add\n    /* \"Dropsite.sol\":246:247  2 */\n  0x02\n    /* \"Dropsite.sol\":209:254  uint8[10] public nums = [0,1,1,1,2,2,2,2,2,2] */\n  0xff\n  and\n  dup2\n  mstore\n  0x20\n  add\n    /* \"Dropsite.sol\":248:249  2 */\n  0x02\n    /* \"Dropsite.sol\":209:254  uint8[10] public nums = [0,1,1,1,2,2,2,2,2,2] */\n  0xff\n  and\n  dup2\n  mstore\n  0x20\n  add\n    /* \"Dropsite.sol\":250:251  2 */\n  0x02\n    /* \"Dropsite.sol\":209:254  uint8[10] public nums = [0,1,1,1,2,2,2,2,2,2] */\n  0xff\n  and\n  dup2\n  mstore\n  0x20\n  add\n    /* \"Dropsite.sol\":252:253  2 */\n  0x02\n    /* \"Dropsite.sol\":209:254  uint8[10] public nums = [0,1,1,1,2,2,2,2,2,2] */\n  0xff\n  and\n  dup2\n  mstore\n  pop\n  0x03\n  swap1\n  0x0a\n  tag_3\n  swap3\n  swap2\n  swap1\n  tag_4\n  jump\t// in\ntag_3:\n  pop\n    /* \"Dropsite.sol\":890:894  true */\n  0x01\n    /* \"Dropsite.sol\":867:894  bool public IsPaused = true */\n  0x0b\n  exp(0x0100, 0x00)\n  dup2\n  sload\n  dup2\n  0xff\n  mul\n  not\n  and\n  swap1\n  dup4\n  iszero\n  iszero\n  mul\n  or\n  swap1\n  sstore\n  pop\n    /* \"Dropsite.sol\":966:1241  constructor (string memory name){... */\n  callvalue\n  dup1\n  iszero\n  tag_5\n  jumpi\n  0x00\n  dup1\n  revert\ntag_5:\n  pop\n  mload(0x40)\n  sub(codesize, bytecodeSize)\n  dup1\n  bytecodeSize\n  dup4\n  codecopy\n  dup2\n  dup2\n  add\n  0x40\n  mstore\n  dup2\n  add\n  swap1\n  tag_6\n  swap2\n  swap1\n  tag_7\n  jump\t// in\ntag_6:\n    /* \"Dropsite.sol\":1016:1020  name */\n  dup1\n    /* \"Dropsite.sol\":1008:1013  _name */\n  0x0c\n    /* \"Dropsite.sol\":1008:1020  _name = name */\n  swap1\n  dup1\n  mload\n  swap1\n  0x20\n  add\n  swap1\n  tag_10\n  swap3\n  swap2\n  swap1\n  tag_11\n  jump\t// in\ntag_10:\n  pop\n    /* \"Dropsite.sol\":1046:1056  msg.sender */\n  caller\n    /* \"Dropsite.sol\":1030:1035  Owner */\n  0x0b\n  0x01\n    /* \"Dropsite.sol\":1030:1057  Owner = payable(msg.sender) */\n  0x0100\n  exp\n  dup2\n  sload\n  dup2\n  0xffffffffffffffffffffffffffffffffffffffff\n  mul\n  not\n  and\n  swap1\n  dup4\n  0xffffffffffffffffffffffffffffffffffffffff\n  and\n  mul\n  or\n  swap1\n  sstore\n  pop\n    /* \"Dropsite.sol\":1084:1085  0 */\n  0x00\n    /* \"Dropsite.sol\":1068:1083  TotalNFTsMinted */\n  0x04\n    /* \"Dropsite.sol\":1068:1085  TotalNFTsMinted=0 */\n  dup2\n  swap1\n  sstore\n  pop\n    /* \"Dropsite.sol\":1131:1132  1 */\n  0x01\n    /* \"Dropsite.sol\":1119:1130  numOfCopies */\n  0x05\n    /* \"Dropsite.sol\":1119:1132  numOfCopies=1 */\n  dup2\n  swap1\n  sstore\n  pop\n    /* \"Dropsite.sol\":1187:1188  0 */\n  0x00\n    /* \"Dropsite.sol\":1179:1186  Diamond */\n  0x06\n    /* \"Dropsite.sol\":1179:1188  Diamond=0 */\n  dup2\n  swap1\n  sstore\n  pop\n    /* \"Dropsite.sol\":1215:1216  0 */\n  0x00\n    /* \"Dropsite.sol\":1210:1214  Gold */\n  0x07\n    /* \"Dropsite.sol\":1210:1216  Gold=0 */\n  dup2\n  swap1\n  sstore\n  pop\n    /* \"Dropsite.sol\":1233:1234  0 */\n  0x00\n    /* \"Dropsite.sol\":1226:1232  Silver */\n  0x08\n    /* \"Dropsite.sol\":1226:1234  Silver=0 */\n  dup2\n  swap1\n  sstore\n  pop\n    /* \"Dropsite.sol\":966:1241  constructor (string memory name){... */\n  pop\n    /* \"Dropsite.sol\":122:4370  contract Dropsite is ERC1155_Dropsite  { ... */\n  jump(tag_12)\ntag_2:\n  dup3\n  dup1\n  sload\n  tag_13\n  swap1\n  tag_14\n  jump\t// in\ntag_13:\n  swap1\n  0x00\n  mstore\n  keccak256(0x00, 0x20)\n  swap1\n  0x1f\n  add\n  0x20\n  swap1\n  div\n  dup2\n  add\n  swap3\n  dup3\n  tag_16\n  jumpi\n  0x00\n  dup6\n  sstore\n  jump(tag_15)\ntag_16:\n  dup3\n  0x1f\n  lt\n  tag_17\n  jumpi\n  dup1\n  mload\n  not(0xff)\n  and\n  dup4\n  dup1\n  add\n  or\n  dup6\n  sstore\n  jump(tag_15)\ntag_17:\n  dup3\n  dup1\n  add\n  0x01\n  add\n  dup6\n  sstore\n  dup3\n  iszero\n  tag_15\n  jumpi\n  swap2\n  dup3\n  add\ntag_18:\n  dup3\n  dup2\n  gt\n  iszero\n  tag_19\n  jumpi\n  dup3\n  mload\n  dup3\n  sstore\n  swap2\n  0x20\n  add\n  swap2\n  swap1\n  0x01\n  add\n  swap1\n  jump(tag_18)\ntag_19:\ntag_15:\n  pop\n  swap1\n  pop\n  tag_20\n  swap2\n  swap1\n  tag_21\n  jump\t// in\ntag_20:\n  pop\n  swap1\n  jump\t// out\ntag_4:\n  dup3\n  add(0x1f, 0x0a)\n  0x20\n  swap1\n  div\n  dup2\n  add\n  swap3\n  dup3\n  iszero\n  tag_22\n  jumpi\n  swap2\n  0x20\n  mul\n  dup3\n  add\n  0x00\ntag_23:\n  dup4\n  dup3\n  gt\n  iszero\n  tag_24\n  jumpi\n  dup4\n  mload\n  dup4\n  dup3\n  0x0100\n  exp\n  dup2\n  sload\n  dup2\n  0xff\n  mul\n  not\n  and\n  swap1\n  dup4\n  0xff\n  and\n  mul\n  or\n  swap1\n  sstore\n  pop\n  swap3\n  0x20\n  add\n  swap3\n  0x01\n  add\n  0x20\n  dup2\n  0x00\n  add\n  div\n  swap3\n  dup4\n  add\n  swap3\n  0x01\n  sub\n  mul\n  jump(tag_23)\ntag_24:\n  dup1\n  iszero\n  tag_25\n  jumpi\n  dup3\n  dup2\n  0x0100\n  exp\n  dup2\n  sload\n  swap1\n  0xff\n  mul\n  not\n  and\n  swap1\n  sstore\n  0x01\n  add\n  0x20\n  dup2\n  0x00\n  add\n  div\n  swap3\n  dup4\n  add\n  swap3\n  0x01\n  sub\n  mul\n  jump(tag_24)\ntag_25:\n  pop\ntag_22:\n  pop\n  swap1\n  pop\n  tag_26\n  swap2\n  swap1\n  tag_21\n  jump\t// in\ntag_26:\n  pop\n  swap1\n  jump\t// out\ntag_11:\n  dup3\n  dup1\n  sload\n  tag_27\n  swap1\n  tag_14\n  jump\t// in\ntag_27:\n  swap1\n  0x00\n  mstore\n  keccak256(0x00, 0x20)\n  swap1\n  0x1f\n  add\n  0x20\n  swap1\n  div\n  dup2\n  add\n  swap3\n  dup3\n  tag_29\n  jumpi\n  0x00\n  dup6\n  sstore\n  jump(tag_28)\ntag_29:\n  dup3\n  0x1f\n  lt\n  tag_30\n  jumpi\n  dup1\n  mload\n  not(0xff)\n  and\n  dup4\n  dup1\n  add\n  or\n  dup6\n  sstore\n  jump(tag_28)\ntag_30:\n  dup3\n  dup1\n  add\n  0x01\n  add\n  dup6\n  sstore\n  dup3\n  iszero\n  tag_28\n  jumpi\n  swap2\n  dup3\n  add\ntag_31:\n  dup3\n  dup2\n  gt\n  iszero\n  tag_32\n  jumpi\n  dup3\n  mload\n  dup3\n  sstore\n  swap2\n  0x20\n  add\n  swap2\n  swap1\n  0x01\n  add\n  swap1\n  jump(tag_31)\ntag_32:\ntag_28:\n  pop\n  swap1\n  pop\n  tag_33\n  swap2\n  swap1\n  tag_21\n  jump\t// in\ntag_33:\n  pop\n  swap1\n  jump\t// out\ntag_21:\ntag_34:\n  dup1\n  dup3\n  gt\n  iszero\n  tag_35\n  jumpi\n  0x00\n  dup2\n  0x00\n  swap1\n  sstore\n  pop\n  0x01\n  add\n  jump(tag_34)\ntag_35:\n  pop\n  swap1\n  jump\t// out\n    /* \"#utility.yul\":7:428   */\ntag_37:\n    /* \"#utility.yul\":96:101   */\n  0x00\n    /* \"#utility.yul\":121:187   */\n  tag_39\n    /* \"#utility.yul\":137:186   */\n  tag_40\n    /* \"#utility.yul\":179:185   */\n  dup5\n    /* \"#utility.yul\":137:186   */\n  tag_41\n  jump\t// in\ntag_40:\n    /* \"#utility.yul\":121:187   */\n  tag_42\n  jump\t// in\ntag_39:\n    /* \"#utility.yul\":112:187   */\n  swap1\n  pop\n    /* \"#utility.yul\":210:216   */\n  dup3\n    /* \"#utility.yul\":203:208   */\n  dup2\n    /* \"#utility.yul\":196:217   */\n  mstore\n    /* \"#utility.yul\":248:252   */\n  0x20\n    /* \"#utility.yul\":241:246   */\n  dup2\n    /* \"#utility.yul\":237:253   */\n  add\n    /* \"#utility.yul\":286:289   */\n  dup5\n    /* \"#utility.yul\":277:283   */\n  dup5\n    /* \"#utility.yul\":272:275   */\n  dup5\n    /* \"#utility.yul\":268:284   */\n  add\n    /* \"#utility.yul\":265:290   */\n  gt\n    /* \"#utility.yul\":262:374   */\n  iszero\n  tag_43\n  jumpi\n    /* \"#utility.yul\":293:372   */\n  tag_44\n  tag_45\n  jump\t// in\ntag_44:\n    /* \"#utility.yul\":262:374   */\ntag_43:\n    /* \"#utility.yul\":383:422   */\n  tag_46\n    /* \"#utility.yul\":415:421   */\n  dup5\n    /* \"#utility.yul\":410:413   */\n  dup3\n    /* \"#utility.yul\":405:408   */\n  dup6\n    /* \"#utility.yul\":383:422   */\n  tag_47\n  jump\t// in\ntag_46:\n    /* \"#utility.yul\":102:428   */\n  pop\n    /* \"#utility.yul\":7:428   */\n  swap4\n  swap3\n  pop\n  pop\n  pop\n  jump\t// out\n    /* \"#utility.yul\":448:803   */\ntag_48:\n    /* \"#utility.yul\":515:520   */\n  0x00\n    /* \"#utility.yul\":564:567   */\n  dup3\n    /* \"#utility.yul\":557:561   */\n  0x1f\n    /* \"#utility.yul\":549:555   */\n  dup4\n    /* \"#utility.yul\":545:562   */\n  add\n    /* \"#utility.yul\":541:568   */\n  slt\n    /* \"#utility.yul\":531:653   */\n  tag_50\n  jumpi\n    /* \"#utility.yul\":572:651   */\n  tag_51\n  tag_52\n  jump\t// in\ntag_51:\n    /* \"#utility.yul\":531:653   */\ntag_50:\n    /* \"#utility.yul\":682:688   */\n  dup2\n    /* \"#utility.yul\":676:689   */\n  mload\n    /* \"#utility.yul\":707:797   */\n  tag_53\n    /* \"#utility.yul\":793:796   */\n  dup5\n    /* \"#utility.yul\":785:791   */\n  dup3\n    /* \"#utility.yul\":778:782   */\n  0x20\n    /* \"#utility.yul\":770:776   */\n  dup7\n    /* \"#utility.yul\":766:783   */\n  add\n    /* \"#utility.yul\":707:797   */\n  tag_37\n  jump\t// in\ntag_53:\n    /* \"#utility.yul\":698:797   */\n  swap2\n  pop\n    /* \"#utility.yul\":521:803   */\n  pop\n    /* \"#utility.yul\":448:803   */\n  swap3\n  swap2\n  pop\n  pop\n  jump\t// out\n    /* \"#utility.yul\":809:1333   */\ntag_7:\n    /* \"#utility.yul\":889:895   */\n  0x00\n    /* \"#utility.yul\":938:940   */\n  0x20\n    /* \"#utility.yul\":926:935   */\n  dup3\n    /* \"#utility.yul\":917:924   */\n  dup5\n    /* \"#utility.yul\":913:936   */\n  sub\n    /* \"#utility.yul\":909:941   */\n  slt\n    /* \"#utility.yul\":906:1025   */\n  iszero\n  tag_55\n  jumpi\n    /* \"#utility.yul\":944:1023   */\n  tag_56\n  tag_57\n  jump\t// in\ntag_56:\n    /* \"#utility.yul\":906:1025   */\ntag_55:\n    /* \"#utility.yul\":1085:1086   */\n  0x00\n    /* \"#utility.yul\":1074:1083   */\n  dup3\n    /* \"#utility.yul\":1070:1087   */\n  add\n    /* \"#utility.yul\":1064:1088   */\n  mload\n    /* \"#utility.yul\":1115:1133   */\n  0xffffffffffffffff\n    /* \"#utility.yul\":1107:1113   */\n  dup2\n    /* \"#utility.yul\":1104:1134   */\n  gt\n    /* \"#utility.yul\":1101:1218   */\n  iszero\n  tag_58\n  jumpi\n    /* \"#utility.yul\":1137:1216   */\n  tag_59\n  tag_60\n  jump\t// in\ntag_59:\n    /* \"#utility.yul\":1101:1218   */\ntag_58:\n    /* \"#utility.yul\":1242:1316   */\n  tag_61\n    /* \"#utility.yul\":1308:1315   */\n  dup5\n    /* \"#utility.yul\":1299:1305   */\n  dup3\n    /* \"#utility.yul\":1288:1297   */\n  dup6\n    /* \"#utility.yul\":1284:1306   */\n  add\n    /* \"#utility.yul\":1242:1316   */\n  tag_48\n  jump\t// in\ntag_61:\n    /* \"#utility.yul\":1232:1316   */\n  swap2\n  pop\n    /* \"#utility.yul\":1035:1326   */\n  pop\n    /* \"#utility.yul\":809:1333   */\n  swap3\n  swap2\n  pop\n  pop\n  jump\t// out\n    /* \"#utility.yul\":1339:1468   */\ntag_42:\n    /* \"#utility.yul\":1373:1379   */\n  0x00\n    /* \"#utility.yul\":1400:1420   */\n  tag_63\n  tag_64\n  jump\t// in\ntag_63:\n    /* \"#utility.yul\":1390:1420   */\n  swap1\n  pop\n    /* \"#utility.yul\":1429:1462   */\n  tag_65\n    /* \"#utility.yul\":1457:1461   */\n  dup3\n    /* \"#utility.yul\":1449:1455   */\n  dup3\n    /* \"#utility.yul\":1429:1462   */\n  tag_66\n  jump\t// in\ntag_65:\n    /* \"#utility.yul\":1339:1468   */\n  swap2\n  swap1\n  pop\n  jump\t// out\n    /* \"#utility.yul\":1474:1549   */\ntag_64:\n    /* \"#utility.yul\":1507:1513   */\n  0x00\n    /* \"#utility.yul\":1540:1542   */\n  0x40\n    /* \"#utility.yul\":1534:1543   */\n  mload\n    /* \"#utility.yul\":1524:1543   */\n  swap1\n  pop\n    /* \"#utility.yul\":1474:1549   */\n  swap1\n  jump\t// out\n    /* \"#utility.yul\":1555:1863   */\ntag_41:\n    /* \"#utility.yul\":1617:1621   */\n  0x00\n    /* \"#utility.yul\":1707:1725   */\n  0xffffffffffffffff\n    /* \"#utility.yul\":1699:1705   */\n  dup3\n    /* \"#utility.yul\":1696:1726   */\n  gt\n    /* \"#utility.yul\":1693:1749   */\n  iszero\n  tag_69\n  jumpi\n    /* \"#utility.yul\":1729:1747   */\n  tag_70\n  tag_71\n  jump\t// in\ntag_70:\n    /* \"#utility.yul\":1693:1749   */\ntag_69:\n    /* \"#utility.yul\":1767:1796   */\n  tag_72\n    /* \"#utility.yul\":1789:1795   */\n  dup3\n    /* \"#utility.yul\":1767:1796   */\n  tag_73\n  jump\t// in\ntag_72:\n    /* \"#utility.yul\":1759:1796   */\n  swap1\n  pop\n    /* \"#utility.yul\":1851:1855   */\n  0x20\n    /* \"#utility.yul\":1845:1849   */\n  dup2\n    /* \"#utility.yul\":1841:1856   */\n  add\n    /* \"#utility.yul\":1833:1856   */\n  swap1\n  pop\n    /* \"#utility.yul\":1555:1863   */\n  swap2\n  swap1\n  pop\n  jump\t// out\n    /* \"#utility.yul\":1869:2176   */\ntag_47:\n    /* \"#utility.yul\":1937:1938   */\n  0x00\n    /* \"#utility.yul\":1947:2060   */\ntag_75:\n    /* \"#utility.yul\":1961:1967   */\n  dup4\n    /* \"#utility.yul\":1958:1959   */\n  dup2\n    /* \"#utility.yul\":1955:1968   */\n  lt\n    /* \"#utility.yul\":1947:2060   */\n  iszero\n  tag_77\n  jumpi\n    /* \"#utility.yul\":2046:2047   */\n  dup1\n    /* \"#utility.yul\":2041:2044   */\n  dup3\n    /* \"#utility.yul\":2037:2048   */\n  add\n    /* \"#utility.yul\":2031:2049   */\n  mload\n    /* \"#utility.yul\":2027:2028   */\n  dup2\n    /* \"#utility.yul\":2022:2025   */\n  dup5\n    /* \"#utility.yul\":2018:2029   */\n  add\n    /* \"#utility.yul\":2011:2050   */\n  mstore\n    /* \"#utility.yul\":1983:1985   */\n  0x20\n    /* \"#utility.yul\":1980:1981   */\n  dup2\n    /* \"#utility.yul\":1976:1986   */\n  add\n    /* \"#utility.yul\":1971:1986   */\n  swap1\n  pop\n    /* \"#utility.yul\":1947:2060   */\n  jump(tag_75)\ntag_77:\n    /* \"#utility.yul\":2078:2084   */\n  dup4\n    /* \"#utility.yul\":2075:2076   */\n  dup2\n    /* \"#utility.yul\":2072:2085   */\n  gt\n    /* \"#utility.yul\":2069:2170   */\n  iszero\n  tag_78\n  jumpi\n    /* \"#utility.yul\":2158:2159   */\n  0x00\n    /* \"#utility.yul\":2149:2155   */\n  dup5\n    /* \"#utility.yul\":2144:2147   */\n  dup5\n    /* \"#utility.yul\":2140:2156   */\n  add\n    /* \"#utility.yul\":2133:2160   */\n  mstore\n    /* \"#utility.yul\":2069:2170   */\ntag_78:\n    /* \"#utility.yul\":1918:2176   */\n  pop\n    /* \"#utility.yul\":1869:2176   */\n  pop\n  pop\n  pop\n  jump\t// out\n    /* \"#utility.yul\":2182:2502   */\ntag_14:\n    /* \"#utility.yul\":2226:2232   */\n  0x00\n    /* \"#utility.yul\":2263:2264   */\n  0x02\n    /* \"#utility.yul\":2257:2261   */\n  dup3\n    /* \"#utility.yul\":2253:2265   */\n  div\n    /* \"#utility.yul\":2243:2265   */\n  swap1\n  pop\n    /* \"#utility.yul\":2310:2311   */\n  0x01\n    /* \"#utility.yul\":2304:2308   */\n  dup3\n    /* \"#utility.yul\":2300:2312   */\n  and\n    /* \"#utility.yul\":2331:2349   */\n  dup1\n    /* \"#utility.yul\":2321:2402   */\n  tag_80\n  jumpi\n    /* \"#utility.yul\":2387:2391   */\n  0x7f\n    /* \"#utility.yul\":2379:2385   */\n  dup3\n    /* \"#utility.yul\":2375:2392   */\n  and\n    /* \"#utility.yul\":2365:2392   */\n  swap2\n  pop\n    /* \"#utility.yul\":2321:2402   */\ntag_80:\n    /* \"#utility.yul\":2449:2451   */\n  0x20\n    /* \"#utility.yul\":2441:2447   */\n  dup3\n    /* \"#utility.yul\":2438:2452   */\n  lt\n    /* \"#utility.yul\":2418:2436   */\n  dup2\n    /* \"#utility.yul\":2415:2453   */\n  eq\n    /* \"#utility.yul\":2412:2496   */\n  iszero\n  tag_81\n  jumpi\n    /* \"#utility.yul\":2468:2486   */\n  tag_82\n  tag_83\n  jump\t// in\ntag_82:\n    /* \"#utility.yul\":2412:2496   */\ntag_81:\n    /* \"#utility.yul\":2233:2502   */\n  pop\n    /* \"#utility.yul\":2182:2502   */\n  swap2\n  swap1\n  pop\n  jump\t// out\n    /* \"#utility.yul\":2508:2789   */\ntag_66:\n    /* \"#utility.yul\":2591:2618   */\n  tag_85\n    /* \"#utility.yul\":2613:2617   */\n  dup3\n    /* \"#utility.yul\":2591:2618   */\n  tag_73\n  jump\t// in\ntag_85:\n    /* \"#utility.yul\":2583:2589   */\n  dup2\n    /* \"#utility.yul\":2579:2619   */\n  add\n    /* \"#utility.yul\":2721:2727   */\n  dup2\n    /* \"#utility.yul\":2709:2719   */\n  dup2\n    /* \"#utility.yul\":2706:2728   */\n  lt\n    /* \"#utility.yul\":2685:2703   */\n  0xffffffffffffffff\n    /* \"#utility.yul\":2673:2683   */\n  dup3\n    /* \"#utility.yul\":2670:2704   */\n  gt\n    /* \"#utility.yul\":2667:2729   */\n  or\n    /* \"#utility.yul\":2664:2752   */\n  iszero\n  tag_86\n  jumpi\n    /* \"#utility.yul\":2732:2750   */\n  tag_87\n  tag_71\n  jump\t// in\ntag_87:\n    /* \"#utility.yul\":2664:2752   */\ntag_86:\n    /* \"#utility.yul\":2772:2782   */\n  dup1\n    /* \"#utility.yul\":2768:2770   */\n  0x40\n    /* \"#utility.yul\":2761:2783   */\n  mstore\n    /* \"#utility.yul\":2551:2789   */\n  pop\n    /* \"#utility.yul\":2508:2789   */\n  pop\n  pop\n  jump\t// out\n    /* \"#utility.yul\":2795:2975   */\ntag_83:\n    /* \"#utility.yul\":2843:2920   */\n  0x4e487b7100000000000000000000000000000000000000000000000000000000\n    /* \"#utility.yul\":2840:2841   */\n  0x00\n    /* \"#utility.yul\":2833:2921   */\n  mstore\n    /* \"#utility.yul\":2940:2944   */\n  0x22\n    /* \"#utility.yul\":2937:2938   */\n  0x04\n    /* \"#utility.yul\":2930:2945   */\n  mstore\n    /* \"#utility.yul\":2964:2968   */\n  0x24\n    /* \"#utility.yul\":2961:2962   */\n  0x00\n    /* \"#utility.yul\":2954:2969   */\n  revert\n    /* \"#utility.yul\":2981:3161   */\ntag_71:\n    /* \"#utility.yul\":3029:3106   */\n  0x4e487b7100000000000000000000000000000000000000000000000000000000\n    /* \"#utility.yul\":3026:3027   */\n  0x00\n    /* \"#utility.yul\":3019:3107   */\n  mstore\n    /* \"#utility.yul\":3126:3130   */\n  0x41\n    /* \"#utility.yul\":3123:3124   */\n  0x04\n    /* \"#utility.yul\":3116:3131   */\n  mstore\n    /* \"#utility.yul\":3150:3154   */\n  0x24\n    /* \"#utility.yul\":3147:3148   */\n  0x00\n    /* \"#utility.yul\":3140:3155   */\n  revert\n    /* \"#utility.yul\":3167:3284   */\ntag_52:\n    /* \"#utility.yul\":3276:3277   */\n  0x00\n    /* \"#utility.yul\":3273:3274   */\n  dup1\n    /* \"#utility.yul\":3266:3278   */\n  revert\n    /* \"#utility.yul\":3290:3407   */\ntag_45:\n    /* \"#utility.yul\":3399:3400   */\n  0x00\n    /* \"#utility.yul\":3396:3397   */\n  dup1\n    /* \"#utility.yul\":3389:3401   */\n  revert\n    /* \"#utility.yul\":3413:3530   */\ntag_60:\n    /* \"#utility.yul\":3522:3523   */\n  0x00\n    /* \"#utility.yul\":3519:3520   */\n  dup1\n    /* \"#utility.yul\":3512:3524   */\n  revert\n    /* \"#utility.yul\":3536:3653   */\ntag_57:\n    /* \"#utility.yul\":3645:3646   */\n  0x00\n    /* \"#utility.yul\":3642:3643   */\n  dup1\n    /* \"#utility.yul\":3635:3647   */\n  revert\n    /* \"#utility.yul\":3659:3761   */\ntag_73:\n    /* \"#utility.yul\":3700:3706   */\n  0x00\n    /* \"#utility.yul\":3751:3753   */\n  0x1f\n    /* \"#utility.yul\":3747:3754   */\n  not\n    /* \"#utility.yul\":3742:3744   */\n  0x1f\n    /* \"#utility.yul\":3735:3740   */\n  dup4\n    /* \"#utility.yul\":3731:3745   */\n  add\n    /* \"#utility.yul\":3727:3755   */\n  and\n    /* \"#utility.yul\":3717:3755   */\n  swap1\n  pop\n    /* \"#utility.yul\":3659:3761   */\n  swap2\n  swap1\n  pop\n  jump\t// out\n    /* \"Dropsite.sol\":122:4370  contract Dropsite is ERC1155_Dropsite  { ... */\ntag_12:\n  dataSize(sub_0)\n  dup1\n  dataOffset(sub_0)\n  0x00\n  codecopy\n  0x00\n  return\nstop\n\nsub_0: assembly {\n        /* \"Dropsite.sol\":122:4370  contract Dropsite is ERC1155_Dropsite  { ... */\n      mstore(0x40, 0x80)\n      jumpi(tag_1, lt(calldatasize, 0x04))\n      shr(0xe0, calldataload(0x00))\n      dup1\n      0x3d65df70\n      gt\n      tag_13\n      jumpi\n      dup1\n      0x3d65df70\n      eq\n      tag_7\n      jumpi\n      dup1\n      0x60daa851\n      eq\n      tag_8\n      jumpi\n      dup1\n      0xaa90c726\n      eq\n      tag_9\n      jumpi\n      dup1\n      0xb4a99a4e\n      eq\n      tag_10\n      jumpi\n      dup1\n      0xfd1ee54c\n      eq\n      tag_11\n      jumpi\n      dup1\n      0xfd93d41c\n      eq\n      tag_12\n      jumpi\n      jump(tag_1)\n    tag_13:\n      dup1\n      0x0390c11c\n      eq\n      tag_2\n      jumpi\n      dup1\n      0x0a67d2c7\n      eq\n      tag_3\n      jumpi\n      dup1\n      0x1309a563\n      eq\n      tag_4\n      jumpi\n      dup1\n      0x15460259\n      eq\n      tag_5\n      jumpi\n      dup1\n      0x3b668059\n      eq\n      tag_6\n      jumpi\n    tag_1:\n      0x00\n      dup1\n      revert\n        /* \"Dropsite.sol\":1385:1489  function checkTotalMinted() public view OnlyOwner returns(uint){... */\n    tag_2:\n      callvalue\n      dup1\n      iszero\n      tag_14\n      jumpi\n      0x00\n      dup1\n      revert\n    tag_14:\n      pop\n      tag_15\n      tag_16\n      jump\t// in\n    tag_15:\n      mload(0x40)\n      tag_17\n      swap2\n      swap1\n      tag_18\n      jump\t// in\n    tag_17:\n      mload(0x40)\n      dup1\n      swap2\n      sub\n      swap1\n      return\n        /* \"Dropsite.sol\":1847:2061  function withDraw(address payable to) public payable OnlyOwner {... */\n    tag_3:\n      tag_19\n      0x04\n      dup1\n      calldatasize\n      sub\n      dup2\n      add\n      swap1\n      tag_20\n      swap2\n      swap1\n      tag_21\n      jump\t// in\n    tag_20:\n      tag_22\n      jump\t// in\n    tag_19:\n      stop\n        /* \"Dropsite.sol\":867:894  bool public IsPaused = true */\n    tag_4:\n      callvalue\n      dup1\n      iszero\n      tag_23\n      jumpi\n      0x00\n      dup1\n      revert\n    tag_23:\n      pop\n      tag_24\n      tag_25\n      jump\t// in\n    tag_24:\n      mload(0x40)\n      tag_26\n      swap2\n      swap1\n      tag_27\n      jump\t// in\n    tag_26:\n      mload(0x40)\n      dup1\n      swap2\n      sub\n      swap1\n      return\n        /* \"Dropsite.sol\":1637:1773  function openDropsite() public OnlyOwner {... */\n    tag_5:\n      callvalue\n      dup1\n      iszero\n      tag_28\n      jumpi\n      0x00\n      dup1\n      revert\n    tag_28:\n      pop\n      tag_29\n      tag_30\n      jump\t// in\n    tag_29:\n      stop\n        /* \"Dropsite.sol\":2114:2222  function ContractBalance() public view OnlyOwner returns (uint){... */\n    tag_6:\n      callvalue\n      dup1\n      iszero\n      tag_31\n      jumpi\n      0x00\n      dup1\n      revert\n    tag_31:\n      pop\n      tag_32\n      tag_33\n      jump\t// in\n    tag_32:\n      mload(0x40)\n      tag_34\n      swap2\n      swap1\n      tag_18\n      jump\t// in\n    tag_34:\n      mload(0x40)\n      dup1\n      swap2\n      sub\n      swap1\n      return\n        /* \"Dropsite.sol\":3824:4368  function CryptoRandomMint(address user_addr)  contractIsNotPaused public payable returns (uint,string memory) {... */\n    tag_7:\n      tag_35\n      0x04\n      dup1\n      calldatasize\n      sub\n      dup2\n      add\n      swap1\n      tag_36\n      swap2\n      swap1\n      tag_37\n      jump\t// in\n    tag_36:\n      tag_38\n      jump\t// in\n    tag_35:\n      mload(0x40)\n      tag_39\n      swap3\n      swap2\n      swap1\n      tag_40\n      jump\t// in\n    tag_39:\n      mload(0x40)\n      dup1\n      swap2\n      sub\n      swap1\n      return\n        /* \"Dropsite.sol\":1253:1380  function checkMintedCategoryWise() public view OnlyOwner returns(uint,uint,uint){... */\n    tag_8:\n      callvalue\n      dup1\n      iszero\n      tag_41\n      jumpi\n      0x00\n      dup1\n      revert\n    tag_41:\n      pop\n      tag_42\n      tag_43\n      jump\t// in\n    tag_42:\n      mload(0x40)\n      tag_44\n      swap4\n      swap3\n      swap2\n      swap1\n      tag_45\n      jump\t// in\n    tag_44:\n      mload(0x40)\n      dup1\n      swap2\n      sub\n      swap1\n      return\n        /* \"Dropsite.sol\":1495:1630  function stopDropsite() public OnlyOwner{... */\n    tag_9:\n      callvalue\n      dup1\n      iszero\n      tag_46\n      jumpi\n      0x00\n      dup1\n      revert\n    tag_46:\n      pop\n      tag_47\n      tag_48\n      jump\t// in\n    tag_47:\n      stop\n        /* \"Dropsite.sol\":900:929  address payable public  Owner */\n    tag_10:\n      callvalue\n      dup1\n      iszero\n      tag_49\n      jumpi\n      0x00\n      dup1\n      revert\n    tag_49:\n      pop\n      tag_50\n      tag_51\n      jump\t// in\n    tag_50:\n      mload(0x40)\n      tag_52\n      swap2\n      swap1\n      tag_53\n      jump\t// in\n    tag_52:\n      mload(0x40)\n      dup1\n      swap2\n      sub\n      swap1\n      return\n        /* \"Dropsite.sol\":209:254  uint8[10] public nums = [0,1,1,1,2,2,2,2,2,2] */\n    tag_11:\n      callvalue\n      dup1\n      iszero\n      tag_54\n      jumpi\n      0x00\n      dup1\n      revert\n    tag_54:\n      pop\n      tag_55\n      0x04\n      dup1\n      calldatasize\n      sub\n      dup2\n      add\n      swap1\n      tag_56\n      swap2\n      swap1\n      tag_57\n      jump\t// in\n    tag_56:\n      tag_58\n      jump\t// in\n    tag_55:\n      mload(0x40)\n      tag_59\n      swap2\n      swap1\n      tag_60\n      jump\t// in\n    tag_59:\n      mload(0x40)\n      dup1\n      swap2\n      sub\n      swap1\n      return\n        /* \"Dropsite.sol\":3227:3647  function FiatrandomMint(address user_addr) OnlyOwner contractIsNotPaused public returns (uint,string memory) {... */\n    tag_12:\n      callvalue\n      dup1\n      iszero\n      tag_61\n      jumpi\n      0x00\n      dup1\n      revert\n    tag_61:\n      pop\n      tag_62\n      0x04\n      dup1\n      calldatasize\n      sub\n      dup2\n      add\n      swap1\n      tag_63\n      swap2\n      swap1\n      tag_37\n      jump\t// in\n    tag_63:\n      tag_64\n      jump\t// in\n    tag_62:\n      mload(0x40)\n      tag_65\n      swap3\n      swap2\n      swap1\n      tag_40\n      jump\t// in\n    tag_65:\n      mload(0x40)\n      dup1\n      swap2\n      sub\n      swap1\n      return\n        /* \"Dropsite.sol\":1385:1489  function checkTotalMinted() public view OnlyOwner returns(uint){... */\n    tag_16:\n        /* \"Dropsite.sol\":1443:1447  uint */\n      0x00\n        /* \"Dropsite.sol\":639:644  Owner */\n      0x0b\n      0x01\n      swap1\n      sload\n      swap1\n      0x0100\n      exp\n      swap1\n      div\n      0xffffffffffffffffffffffffffffffffffffffff\n      and\n        /* \"Dropsite.sol\":623:644  _msgSender() == Owner */\n      0xffffffffffffffffffffffffffffffffffffffff\n      and\n        /* \"Dropsite.sol\":623:635  _msgSender() */\n      tag_67\n        /* \"Dropsite.sol\":623:633  _msgSender */\n      tag_68\n        /* \"Dropsite.sol\":623:635  _msgSender() */\n      jump\t// in\n    tag_67:\n        /* \"Dropsite.sol\":623:644  _msgSender() == Owner */\n      0xffffffffffffffffffffffffffffffffffffffff\n      and\n      eq\n        /* \"Dropsite.sol\":615:677  require(_msgSender() == Owner, \"Only NFT-ES Owner can Access\") */\n      tag_69\n      jumpi\n      mload(0x40)\n      0x08c379a000000000000000000000000000000000000000000000000000000000\n      dup2\n      mstore\n      0x04\n      add\n      tag_70\n      swap1\n      tag_71\n      jump\t// in\n    tag_70:\n      mload(0x40)\n      dup1\n      swap2\n      sub\n      swap1\n      revert\n    tag_69:\n        /* \"Dropsite.sol\":1466:1481  TotalNFTsMinted */\n      sload(0x04)\n        /* \"Dropsite.sol\":1459:1481  return TotalNFTsMinted */\n      swap1\n      pop\n        /* \"Dropsite.sol\":1385:1489  function checkTotalMinted() public view OnlyOwner returns(uint){... */\n      swap1\n      jump\t// out\n        /* \"Dropsite.sol\":1847:2061  function withDraw(address payable to) public payable OnlyOwner {... */\n    tag_22:\n        /* \"Dropsite.sol\":639:644  Owner */\n      0x0b\n      0x01\n      swap1\n      sload\n      swap1\n      0x0100\n      exp\n      swap1\n      div\n      0xffffffffffffffffffffffffffffffffffffffff\n      and\n        /* \"Dropsite.sol\":623:644  _msgSender() == Owner */\n      0xffffffffffffffffffffffffffffffffffffffff\n      and\n        /* \"Dropsite.sol\":623:635  _msgSender() */\n      tag_74\n        /* \"Dropsite.sol\":623:633  _msgSender */\n      tag_68\n        /* \"Dropsite.sol\":623:635  _msgSender() */\n      jump\t// in\n    tag_74:\n        /* \"Dropsite.sol\":623:644  _msgSender() == Owner */\n      0xffffffffffffffffffffffffffffffffffffffff\n      and\n      eq\n        /* \"Dropsite.sol\":615:677  require(_msgSender() == Owner, \"Only NFT-ES Owner can Access\") */\n      tag_75\n      jumpi\n      mload(0x40)\n      0x08c379a000000000000000000000000000000000000000000000000000000000\n      dup2\n      mstore\n      0x04\n      add\n      tag_76\n      swap1\n      tag_71\n      jump\t// in\n    tag_76:\n      mload(0x40)\n      dup1\n      swap2\n      sub\n      swap1\n      revert\n    tag_75:\n        /* \"Dropsite.sol\":1920:1932  uint Balance */\n      0x00\n        /* \"Dropsite.sol\":1935:1956  address(this).balance */\n      selfbalance\n        /* \"Dropsite.sol\":1920:1956  uint Balance = address(this).balance */\n      swap1\n      pop\n        /* \"Dropsite.sol\":1984:1989  0 wei */\n      0x00\n        /* \"Dropsite.sol\":1974:1981  Balance */\n      dup2\n        /* \"Dropsite.sol\":1974:1989  Balance > 0 wei */\n      gt\n        /* \"Dropsite.sol\":1966:2023  require(Balance > 0 wei, \"Error! No Balance to withdraw\") */\n      tag_78\n      jumpi\n      mload(0x40)\n      0x08c379a000000000000000000000000000000000000000000000000000000000\n      dup2\n      mstore\n      0x04\n      add\n      tag_79\n      swap1\n      tag_80\n      jump\t// in\n    tag_79:\n      mload(0x40)\n      dup1\n      swap2\n      sub\n      swap1\n      revert\n    tag_78:\n        /* \"Dropsite.sol\":2034:2036  to */\n      dup2\n        /* \"Dropsite.sol\":2034:2045  to.transfer */\n      0xffffffffffffffffffffffffffffffffffffffff\n      and\n        /* \"Dropsite.sol\":2034:2054  to.transfer(Balance) */\n      0x08fc\n        /* \"Dropsite.sol\":2046:2053  Balance */\n      dup3\n        /* \"Dropsite.sol\":2034:2054  to.transfer(Balance) */\n      swap1\n      dup2\n      iszero\n      mul\n      swap1\n      mload(0x40)\n      0x00\n      mload(0x40)\n      dup1\n      dup4\n      sub\n      dup2\n      dup6\n      dup9\n      dup9\n      call\n      swap4\n      pop\n      pop\n      pop\n      pop\n      iszero\n      dup1\n      iszero\n      tag_82\n      jumpi\n      returndatasize\n      0x00\n      dup1\n      returndatacopy\n      revert(0x00, returndatasize)\n    tag_82:\n      pop\n        /* \"Dropsite.sol\":1910:2061  {... */\n      pop\n        /* \"Dropsite.sol\":1847:2061  function withDraw(address payable to) public payable OnlyOwner {... */\n      pop\n      jump\t// out\n        /* \"Dropsite.sol\":867:894  bool public IsPaused = true */\n    tag_25:\n      0x0b\n      0x00\n      swap1\n      sload\n      swap1\n      0x0100\n      exp\n      swap1\n      div\n      0xff\n      and\n      dup2\n      jump\t// out\n        /* \"Dropsite.sol\":1637:1773  function openDropsite() public OnlyOwner {... */\n    tag_30:\n        /* \"Dropsite.sol\":639:644  Owner */\n      0x0b\n      0x01\n      swap1\n      sload\n      swap1\n      0x0100\n      exp\n      swap1\n      div\n      0xffffffffffffffffffffffffffffffffffffffff\n      and\n        /* \"Dropsite.sol\":623:644  _msgSender() == Owner */\n      0xffffffffffffffffffffffffffffffffffffffff\n      and\n        /* \"Dropsite.sol\":623:635  _msgSender() */\n      tag_84\n        /* \"Dropsite.sol\":623:633  _msgSender */\n      tag_68\n        /* \"Dropsite.sol\":623:635  _msgSender() */\n      jump\t// in\n    tag_84:\n        /* \"Dropsite.sol\":623:644  _msgSender() == Owner */\n      0xffffffffffffffffffffffffffffffffffffffff\n      and\n      eq\n        /* \"Dropsite.sol\":615:677  require(_msgSender() == Owner, \"Only NFT-ES Owner can Access\") */\n      tag_85\n      jumpi\n      mload(0x40)\n      0x08c379a000000000000000000000000000000000000000000000000000000000\n      dup2\n      mstore\n      0x04\n      add\n      tag_86\n      swap1\n      tag_71\n      jump\t// in\n    tag_86:\n      mload(0x40)\n      dup1\n      swap2\n      sub\n      swap1\n      revert\n    tag_85:\n        /* \"Dropsite.sol\":1706:1710  true */\n      0x01\n        /* \"Dropsite.sol\":1696:1710  IsPaused==true */\n      iszero\n      iszero\n        /* \"Dropsite.sol\":1696:1704  IsPaused */\n      0x0b\n      0x00\n      swap1\n      sload\n      swap1\n      0x0100\n      exp\n      swap1\n      div\n      0xff\n      and\n        /* \"Dropsite.sol\":1696:1710  IsPaused==true */\n      iszero\n      iszero\n      eq\n        /* \"Dropsite.sol\":1688:1742  require(IsPaused==true, \"Dropsite is already Running\") */\n      tag_88\n      jumpi\n      mload(0x40)\n      0x08c379a000000000000000000000000000000000000000000000000000000000\n      dup2\n      mstore\n      0x04\n      add\n      tag_89\n      swap1\n      tag_90\n      jump\t// in\n    tag_89:\n      mload(0x40)\n      dup1\n      swap2\n      sub\n      swap1\n      revert\n    tag_88:\n        /* \"Dropsite.sol\":1761:1766  false */\n      0x00\n        /* \"Dropsite.sol\":1752:1760  IsPaused */\n      0x0b\n      0x00\n        /* \"Dropsite.sol\":1752:1766  IsPaused=false */\n      0x0100\n      exp\n      dup2\n      sload\n      dup2\n      0xff\n      mul\n      not\n      and\n      swap1\n      dup4\n      iszero\n      iszero\n      mul\n      or\n      swap1\n      sstore\n      pop\n        /* \"Dropsite.sol\":1637:1773  function openDropsite() public OnlyOwner {... */\n      jump\t// out\n        /* \"Dropsite.sol\":2114:2222  function ContractBalance() public view OnlyOwner returns (uint){... */\n    tag_33:\n        /* \"Dropsite.sol\":2172:2176  uint */\n      0x00\n        /* \"Dropsite.sol\":639:644  Owner */\n      0x0b\n      0x01\n      swap1\n      sload\n      swap1\n      0x0100\n      exp\n      swap1\n      div\n      0xffffffffffffffffffffffffffffffffffffffff\n      and\n        /* \"Dropsite.sol\":623:644  _msgSender() == Owner */\n      0xffffffffffffffffffffffffffffffffffffffff\n      and\n        /* \"Dropsite.sol\":623:635  _msgSender() */\n      tag_92\n        /* \"Dropsite.sol\":623:633  _msgSender */\n      tag_68\n        /* \"Dropsite.sol\":623:635  _msgSender() */\n      jump\t// in\n    tag_92:\n        /* \"Dropsite.sol\":623:644  _msgSender() == Owner */\n      0xffffffffffffffffffffffffffffffffffffffff\n      and\n      eq\n        /* \"Dropsite.sol\":615:677  require(_msgSender() == Owner, \"Only NFT-ES Owner can Access\") */\n      tag_93\n      jumpi\n      mload(0x40)\n      0x08c379a000000000000000000000000000000000000000000000000000000000\n      dup2\n      mstore\n      0x04\n      add\n      tag_94\n      swap1\n      tag_71\n      jump\t// in\n    tag_94:\n      mload(0x40)\n      dup1\n      swap2\n      sub\n      swap1\n      revert\n    tag_93:\n        /* \"Dropsite.sol\":2194:2215  address(this).balance */\n      selfbalance\n        /* \"Dropsite.sol\":2187:2215  return address(this).balance */\n      swap1\n      pop\n        /* \"Dropsite.sol\":2114:2222  function ContractBalance() public view OnlyOwner returns (uint){... */\n      swap1\n      jump\t// out\n        /* \"Dropsite.sol\":3824:4368  function CryptoRandomMint(address user_addr)  contractIsNotPaused public payable returns (uint,string memory) {... */\n    tag_38:\n        /* \"Dropsite.sol\":3914:3918  uint */\n      0x00\n        /* \"Dropsite.sol\":3919:3932  string memory */\n      0x60\n        /* \"Dropsite.sol\":804:809  false */\n      0x00\n        /* \"Dropsite.sol\":792:809  IsPaused == false */\n      iszero\n      iszero\n        /* \"Dropsite.sol\":792:800  IsPaused */\n      0x0b\n      0x00\n      swap1\n      sload\n      swap1\n      0x0100\n      exp\n      swap1\n      div\n      0xff\n      and\n        /* \"Dropsite.sol\":792:809  IsPaused == false */\n      iszero\n      iszero\n      eq\n        /* \"Dropsite.sol\":783:842  require (IsPaused == false, \"Dropsite is not Opened Yet.\" ) */\n      tag_97\n      jumpi\n      mload(0x40)\n      0x08c379a000000000000000000000000000000000000000000000000000000000\n      dup2\n      mstore\n      0x04\n      add\n      tag_98\n      swap1\n      tag_99\n      jump\t// in\n    tag_98:\n      mload(0x40)\n      dup1\n      swap2\n      sub\n      swap1\n      revert\n    tag_97:\n        /* \"Dropsite.sol\":3965:3969  1000 */\n      0x03e8\n        /* \"Dropsite.sol\":3949:3964  TotalNFTsMinted */\n      sload(0x04)\n        /* \"Dropsite.sol\":3949:3969  TotalNFTsMinted<1000 */\n      lt\n        /* \"Dropsite.sol\":3941:3999  require(TotalNFTsMinted<1000, \"Max Minting Limit reached\") */\n      tag_101\n      jumpi\n      mload(0x40)\n      0x08c379a000000000000000000000000000000000000000000000000000000000\n      dup2\n      mstore\n      0x04\n      add\n      tag_102\n      swap1\n      tag_103\n      jump\t// in\n    tag_102:\n      mload(0x40)\n      dup1\n      swap2\n      sub\n      swap1\n      revert\n    tag_101:\n        /* \"Dropsite.sol\":4028:4030  25 */\n      0x19\n        /* \"Dropsite.sol\":4014:4023  msg.value */\n      callvalue\n        /* \"Dropsite.sol\":4014:4031  msg.value == (25) */\n      eq\n        /* \"Dropsite.sol\":4006:4061  require(msg.value == (25), \"Balance must be 25 Matics\") */\n      tag_104\n      jumpi\n      mload(0x40)\n      0x08c379a000000000000000000000000000000000000000000000000000000000\n      dup2\n      mstore\n      0x04\n      add\n      tag_105\n      swap1\n      tag_106\n      jump\t// in\n    tag_105:\n      mload(0x40)\n      dup1\n      swap2\n      sub\n      swap1\n      revert\n    tag_104:\n        /* \"Dropsite.sol\":4141:4151  uint nftId */\n      0x00\n        /* \"Dropsite.sol\":4154:4172  updateConditions() */\n      tag_107\n        /* \"Dropsite.sol\":4154:4170  updateConditions */\n      tag_108\n        /* \"Dropsite.sol\":4154:4172  updateConditions() */\n      jump\t// in\n    tag_107:\n        /* \"Dropsite.sol\":4141:4172  uint nftId = updateConditions() */\n      swap1\n      pop\n        /* \"Dropsite.sol\":4178:4220  _mint(user_addr, nftId, numOfCopies, data) */\n      tag_109\n        /* \"Dropsite.sol\":4184:4193  user_addr */\n      dup5\n        /* \"Dropsite.sol\":4195:4200  nftId */\n      dup3\n        /* \"Dropsite.sol\":4202:4213  numOfCopies */\n      sload(0x05)\n        /* \"Dropsite.sol\":4215:4219  data */\n      0x02\n        /* \"Dropsite.sol\":4178:4220  _mint(user_addr, nftId, numOfCopies, data) */\n      dup1\n      sload\n      tag_110\n      swap1\n      tag_111\n      jump\t// in\n    tag_110:\n      dup1\n      0x1f\n      add\n      0x20\n      dup1\n      swap2\n      div\n      mul\n      0x20\n      add\n      mload(0x40)\n      swap1\n      dup2\n      add\n      0x40\n      mstore\n      dup1\n      swap3\n      swap2\n      swap1\n      dup2\n      dup2\n      mstore\n      0x20\n      add\n      dup3\n      dup1\n      sload\n      tag_112\n      swap1\n      tag_111\n      jump\t// in\n    tag_112:\n      dup1\n      iszero\n      tag_113\n      jumpi\n      dup1\n      0x1f\n      lt\n      tag_114\n      jumpi\n      0x0100\n      dup1\n      dup4\n      sload\n      div\n      mul\n      dup4\n      mstore\n      swap2\n      0x20\n      add\n      swap2\n      jump(tag_113)\n    tag_114:\n      dup3\n      add\n      swap2\n      swap1\n      0x00\n      mstore\n      keccak256(0x00, 0x20)\n      swap1\n    tag_115:\n      dup2\n      sload\n      dup2\n      mstore\n      swap1\n      0x01\n      add\n      swap1\n      0x20\n      add\n      dup1\n      dup4\n      gt\n      tag_115\n      jumpi\n      dup3\n      swap1\n      sub\n      0x1f\n      and\n      dup3\n      add\n      swap2\n    tag_113:\n      pop\n      pop\n      pop\n      pop\n      pop\n        /* \"Dropsite.sol\":4178:4183  _mint */\n      tag_116\n        /* \"Dropsite.sol\":4178:4220  _mint(user_addr, nftId, numOfCopies, data) */\n      jump\t// in\n    tag_109:\n        /* \"Dropsite.sol\":4226:4264  depositAmount(_msgSender(), msg.value) */\n      tag_117\n        /* \"Dropsite.sol\":4240:4252  _msgSender() */\n      tag_118\n        /* \"Dropsite.sol\":4240:4250  _msgSender */\n      tag_68\n        /* \"Dropsite.sol\":4240:4252  _msgSender() */\n      jump\t// in\n    tag_118:\n        /* \"Dropsite.sol\":4254:4263  msg.value */\n      callvalue\n        /* \"Dropsite.sol\":4226:4239  depositAmount */\n      tag_119\n        /* \"Dropsite.sol\":4226:4264  depositAmount(_msgSender(), msg.value) */\n      jump\t// in\n    tag_117:\n        /* \"Dropsite.sol\":4270:4285  TotalNFTsMinted */\n      0x04\n      0x00\n        /* \"Dropsite.sol\":4270:4287  TotalNFTsMinted++ */\n      dup2\n      sload\n      dup1\n      swap3\n      swap2\n      swap1\n      tag_120\n      swap1\n      tag_121\n      jump\t// in\n    tag_120:\n      swap2\n      swap1\n      pop\n      sstore\n      pop\n        /* \"Dropsite.sol\":4323:4328  nftId */\n      dup1\n        /* \"Dropsite.sol\":4293:4311  dropsite_NFT_Owner */\n      0x09\n        /* \"Dropsite.sol\":4293:4322  dropsite_NFT_Owner[user_addr] */\n      0x00\n        /* \"Dropsite.sol\":4312:4321  user_addr */\n      dup7\n        /* \"Dropsite.sol\":4293:4322  dropsite_NFT_Owner[user_addr] */\n      0xffffffffffffffffffffffffffffffffffffffff\n      and\n      0xffffffffffffffffffffffffffffffffffffffff\n      and\n      dup2\n      mstore\n      0x20\n      add\n      swap1\n      dup2\n      mstore\n      0x20\n      add\n      0x00\n      keccak256\n        /* \"Dropsite.sol\":4293:4328  dropsite_NFT_Owner[user_addr]=nftId */\n      dup2\n      swap1\n      sstore\n      pop\n        /* \"Dropsite.sol\":4342:4347  nftId */\n      dup1\n        /* \"Dropsite.sol\":4355:4359  data */\n      0x02\n        /* \"Dropsite.sol\":4334:4361  return (nftId,string(data)) */\n      dup1\n      dup1\n      sload\n      tag_122\n      swap1\n      tag_111\n      jump\t// in\n    tag_122:\n      dup1\n      0x1f\n      add\n      0x20\n      dup1\n      swap2\n      div\n      mul\n      0x20\n      add\n      mload(0x40)\n      swap1\n      dup2\n      add\n      0x40\n      mstore\n      dup1\n      swap3\n      swap2\n      swap1\n      dup2\n      dup2\n      mstore\n      0x20\n      add\n      dup3\n      dup1\n      sload\n      tag_123\n      swap1\n      tag_111\n      jump\t// in\n    tag_123:\n      dup1\n      iszero\n      tag_124\n      jumpi\n      dup1\n      0x1f\n      lt\n      tag_125\n      jumpi\n      0x0100\n      dup1\n      dup4\n      sload\n      div\n      mul\n      dup4\n      mstore\n      swap2\n      0x20\n      add\n      swap2\n      jump(tag_124)\n    tag_125:\n      dup3\n      add\n      swap2\n      swap1\n      0x00\n      mstore\n      keccak256(0x00, 0x20)\n      swap1\n    tag_126:\n      dup2\n      sload\n      dup2\n      mstore\n      swap1\n      0x01\n      add\n      swap1\n      0x20\n      add\n      dup1\n      dup4\n      gt\n      tag_126\n      jumpi\n      dup3\n      swap1\n      sub\n      0x1f\n      and\n      dup3\n      add\n      swap2\n    tag_124:\n      pop\n      pop\n      pop\n      pop\n      pop\n      swap1\n      pop\n      swap3\n      pop\n      swap3\n      pop\n      pop\n        /* \"Dropsite.sol\":3824:4368  function CryptoRandomMint(address user_addr)  contractIsNotPaused public payable returns (uint,string memory) {... */\n      swap2\n      pop\n      swap2\n      jump\t// out\n        /* \"Dropsite.sol\":1253:1380  function checkMintedCategoryWise() public view OnlyOwner returns(uint,uint,uint){... */\n    tag_43:\n        /* \"Dropsite.sol\":1318:1322  uint */\n      0x00\n        /* \"Dropsite.sol\":1323:1327  uint */\n      dup1\n        /* \"Dropsite.sol\":1328:1332  uint */\n      0x00\n        /* \"Dropsite.sol\":639:644  Owner */\n      0x0b\n      0x01\n      swap1\n      sload\n      swap1\n      0x0100\n      exp\n      swap1\n      div\n      0xffffffffffffffffffffffffffffffffffffffff\n      and\n        /* \"Dropsite.sol\":623:644  _msgSender() == Owner */\n      0xffffffffffffffffffffffffffffffffffffffff\n      and\n        /* \"Dropsite.sol\":623:635  _msgSender() */\n      tag_128\n        /* \"Dropsite.sol\":623:633  _msgSender */\n      tag_68\n        /* \"Dropsite.sol\":623:635  _msgSender() */\n      jump\t// in\n    tag_128:\n        /* \"Dropsite.sol\":623:644  _msgSender() == Owner */\n      0xffffffffffffffffffffffffffffffffffffffff\n      and\n      eq\n        /* \"Dropsite.sol\":615:677  require(_msgSender() == Owner, \"Only NFT-ES Owner can Access\") */\n      tag_129\n      jumpi\n      mload(0x40)\n      0x08c379a000000000000000000000000000000000000000000000000000000000\n      dup2\n      mstore\n      0x04\n      add\n      tag_130\n      swap1\n      tag_71\n      jump\t// in\n    tag_130:\n      mload(0x40)\n      dup1\n      swap2\n      sub\n      swap1\n      revert\n    tag_129:\n        /* \"Dropsite.sol\":1352:1359  Diamond */\n      sload(0x06)\n        /* \"Dropsite.sol\":1360:1364  Gold */\n      sload(0x07)\n        /* \"Dropsite.sol\":1365:1371  Silver */\n      sload(0x08)\n        /* \"Dropsite.sol\":1344:1372  return (Diamond,Gold,Silver) */\n      swap3\n      pop\n      swap3\n      pop\n      swap3\n      pop\n        /* \"Dropsite.sol\":1253:1380  function checkMintedCategoryWise() public view OnlyOwner returns(uint,uint,uint){... */\n      swap1\n      swap2\n      swap3\n      jump\t// out\n        /* \"Dropsite.sol\":1495:1630  function stopDropsite() public OnlyOwner{... */\n    tag_48:\n        /* \"Dropsite.sol\":639:644  Owner */\n      0x0b\n      0x01\n      swap1\n      sload\n      swap1\n      0x0100\n      exp\n      swap1\n      div\n      0xffffffffffffffffffffffffffffffffffffffff\n      and\n        /* \"Dropsite.sol\":623:644  _msgSender() == Owner */\n      0xffffffffffffffffffffffffffffffffffffffff\n      and\n        /* \"Dropsite.sol\":623:635  _msgSender() */\n      tag_133\n        /* \"Dropsite.sol\":623:633  _msgSender */\n      tag_68\n        /* \"Dropsite.sol\":623:635  _msgSender() */\n      jump\t// in\n    tag_133:\n        /* \"Dropsite.sol\":623:644  _msgSender() == Owner */\n      0xffffffffffffffffffffffffffffffffffffffff\n      and\n      eq\n        /* \"Dropsite.sol\":615:677  require(_msgSender() == Owner, \"Only NFT-ES Owner can Access\") */\n      tag_134\n      jumpi\n      mload(0x40)\n      0x08c379a000000000000000000000000000000000000000000000000000000000\n      dup2\n      mstore\n      0x04\n      add\n      tag_135\n      swap1\n      tag_71\n      jump\t// in\n    tag_135:\n      mload(0x40)\n      dup1\n      swap2\n      sub\n      swap1\n      revert\n    tag_134:\n        /* \"Dropsite.sol\":1563:1568  false */\n      0x00\n        /* \"Dropsite.sol\":1553:1568  IsPaused==false */\n      iszero\n      iszero\n        /* \"Dropsite.sol\":1553:1561  IsPaused */\n      0x0b\n      0x00\n      swap1\n      sload\n      swap1\n      0x0100\n      exp\n      swap1\n      div\n      0xff\n      and\n        /* \"Dropsite.sol\":1553:1568  IsPaused==false */\n      iszero\n      iszero\n      eq\n        /* \"Dropsite.sol\":1545:1600  require(IsPaused==false, \"Dropsite is already Stopped\") */\n      tag_137\n      jumpi\n      mload(0x40)\n      0x08c379a000000000000000000000000000000000000000000000000000000000\n      dup2\n      mstore\n      0x04\n      add\n      tag_138\n      swap1\n      tag_139\n      jump\t// in\n    tag_138:\n      mload(0x40)\n      dup1\n      swap2\n      sub\n      swap1\n      revert\n    tag_137:\n        /* \"Dropsite.sol\":1619:1623  true */\n      0x01\n        /* \"Dropsite.sol\":1610:1618  IsPaused */\n      0x0b\n      0x00\n        /* \"Dropsite.sol\":1610:1623  IsPaused=true */\n      0x0100\n      exp\n      dup2\n      sload\n      dup2\n      0xff\n      mul\n      not\n      and\n      swap1\n      dup4\n      iszero\n      iszero\n      mul\n      or\n      swap1\n      sstore\n      pop\n        /* \"Dropsite.sol\":1495:1630  function stopDropsite() public OnlyOwner{... */\n      jump\t// out\n        /* \"Dropsite.sol\":900:929  address payable public  Owner */\n    tag_51:\n      0x0b\n      0x01\n      swap1\n      sload\n      swap1\n      0x0100\n      exp\n      swap1\n      div\n      0xffffffffffffffffffffffffffffffffffffffff\n      and\n      dup2\n      jump\t// out\n        /* \"Dropsite.sol\":209:254  uint8[10] public nums = [0,1,1,1,2,2,2,2,2,2] */\n    tag_58:\n      0x03\n      dup2\n      0x0a\n      dup2\n      lt\n      tag_140\n      jumpi\n      0x00\n      dup1\n      revert\n    tag_140:\n      0x20\n      swap2\n      dup3\n      dup3\n      div\n      add\n      swap2\n      swap1\n      mod\n      swap2\n      pop\n      sload\n      swap1\n      0x0100\n      exp\n      swap1\n      div\n      0xff\n      and\n      dup2\n      jump\t// out\n        /* \"Dropsite.sol\":3227:3647  function FiatrandomMint(address user_addr) OnlyOwner contractIsNotPaused public returns (uint,string memory) {... */\n    tag_64:\n        /* \"Dropsite.sol\":3316:3320  uint */\n      0x00\n        /* \"Dropsite.sol\":3321:3334  string memory */\n      0x60\n        /* \"Dropsite.sol\":639:644  Owner */\n      0x0b\n      0x01\n      swap1\n      sload\n      swap1\n      0x0100\n      exp\n      swap1\n      div\n      0xffffffffffffffffffffffffffffffffffffffff\n      and\n        /* \"Dropsite.sol\":623:644  _msgSender() == Owner */\n      0xffffffffffffffffffffffffffffffffffffffff\n      and\n        /* \"Dropsite.sol\":623:635  _msgSender() */\n      tag_143\n        /* \"Dropsite.sol\":623:633  _msgSender */\n      tag_68\n        /* \"Dropsite.sol\":623:635  _msgSender() */\n      jump\t// in\n    tag_143:\n        /* \"Dropsite.sol\":623:644  _msgSender() == Owner */\n      0xffffffffffffffffffffffffffffffffffffffff\n      and\n      eq\n        /* \"Dropsite.sol\":615:677  require(_msgSender() == Owner, \"Only NFT-ES Owner can Access\") */\n      tag_144\n      jumpi\n      mload(0x40)\n      0x08c379a000000000000000000000000000000000000000000000000000000000\n      dup2\n      mstore\n      0x04\n      add\n      tag_145\n      swap1\n      tag_71\n      jump\t// in\n    tag_145:\n      mload(0x40)\n      dup1\n      swap2\n      sub\n      swap1\n      revert\n    tag_144:\n        /* \"Dropsite.sol\":804:809  false */\n      0x00\n        /* \"Dropsite.sol\":792:809  IsPaused == false */\n      iszero\n      iszero\n        /* \"Dropsite.sol\":792:800  IsPaused */\n      0x0b\n      0x00\n      swap1\n      sload\n      swap1\n      0x0100\n      exp\n      swap1\n      div\n      0xff\n      and\n        /* \"Dropsite.sol\":792:809  IsPaused == false */\n      iszero\n      iszero\n      eq\n        /* \"Dropsite.sol\":783:842  require (IsPaused == false, \"Dropsite is not Opened Yet.\" ) */\n      tag_147\n      jumpi\n      mload(0x40)\n      0x08c379a000000000000000000000000000000000000000000000000000000000\n      dup2\n      mstore\n      0x04\n      add\n      tag_148\n      swap1\n      tag_99\n      jump\t// in\n    tag_148:\n      mload(0x40)\n      dup1\n      swap2\n      sub\n      swap1\n      revert\n    tag_147:\n        /* \"Dropsite.sol\":3367:3371  1000 */\n      0x03e8\n        /* \"Dropsite.sol\":3351:3366  TotalNFTsMinted */\n      sload(0x04)\n        /* \"Dropsite.sol\":3351:3371  TotalNFTsMinted<1000 */\n      lt\n        /* \"Dropsite.sol\":3343:3401  require(TotalNFTsMinted<1000, \"Max Minting Limit reached\") */\n      tag_150\n      jumpi\n      mload(0x40)\n      0x08c379a000000000000000000000000000000000000000000000000000000000\n      dup2\n      mstore\n      0x04\n      add\n      tag_151\n      swap1\n      tag_103\n      jump\t// in\n    tag_151:\n      mload(0x40)\n      dup1\n      swap2\n      sub\n      swap1\n      revert\n    tag_150:\n        /* \"Dropsite.sol\":3464:3474  uint nftId */\n      0x00\n        /* \"Dropsite.sol\":3477:3495  updateConditions() */\n      tag_152\n        /* \"Dropsite.sol\":3477:3493  updateConditions */\n      tag_108\n        /* \"Dropsite.sol\":3477:3495  updateConditions() */\n      jump\t// in\n    tag_152:\n        /* \"Dropsite.sol\":3464:3495  uint nftId = updateConditions() */\n      swap1\n      pop\n        /* \"Dropsite.sol\":3501:3543  _mint(user_addr, nftId, numOfCopies, data) */\n      tag_153\n        /* \"Dropsite.sol\":3507:3516  user_addr */\n      dup5\n        /* \"Dropsite.sol\":3518:3523  nftId */\n      dup3\n        /* \"Dropsite.sol\":3525:3536  numOfCopies */\n      sload(0x05)\n        /* \"Dropsite.sol\":3538:3542  data */\n      0x02\n        /* \"Dropsite.sol\":3501:3543  _mint(user_addr, nftId, numOfCopies, data) */\n      dup1\n      sload\n      tag_154\n      swap1\n      tag_111\n      jump\t// in\n    tag_154:\n      dup1\n      0x1f\n      add\n      0x20\n      dup1\n      swap2\n      div\n      mul\n      0x20\n      add\n      mload(0x40)\n      swap1\n      dup2\n      add\n      0x40\n      mstore\n      dup1\n      swap3\n      swap2\n      swap1\n      dup2\n      dup2\n      mstore\n      0x20\n      add\n      dup3\n      dup1\n      sload\n      tag_155\n      swap1\n      tag_111\n      jump\t// in\n    tag_155:\n      dup1\n      iszero\n      tag_156\n      jumpi\n      dup1\n      0x1f\n      lt\n      tag_157\n      jumpi\n      0x0100\n      dup1\n      dup4\n      sload\n      div\n      mul\n      dup4\n      mstore\n      swap2\n      0x20\n      add\n      swap2\n      jump(tag_156)\n    tag_157:\n      dup3\n      add\n      swap2\n      swap1\n      0x00\n      mstore\n      keccak256(0x00, 0x20)\n      swap1\n    tag_158:\n      dup2\n      sload\n      dup2\n      mstore\n      swap1\n      0x01\n      add\n      swap1\n      0x20\n      add\n      dup1\n      dup4\n      gt\n      tag_158\n      jumpi\n      dup3\n      swap1\n      sub\n      0x1f\n      and\n      dup3\n      add\n      swap2\n    tag_156:\n      pop\n      pop\n      pop\n      pop\n      pop\n        /* \"Dropsite.sol\":3501:3506  _mint */\n      tag_116\n        /* \"Dropsite.sol\":3501:3543  _mint(user_addr, nftId, numOfCopies, data) */\n      jump\t// in\n    tag_153:\n        /* \"Dropsite.sol\":3549:3564  TotalNFTsMinted */\n      0x04\n      0x00\n        /* \"Dropsite.sol\":3549:3566  TotalNFTsMinted++ */\n      dup2\n      sload\n      dup1\n      swap3\n      swap2\n      swap1\n      tag_159\n      swap1\n      tag_121\n      jump\t// in\n    tag_159:\n      swap2\n      swap1\n      pop\n      sstore\n      pop\n        /* \"Dropsite.sol\":3602:3607  nftId */\n      dup1\n        /* \"Dropsite.sol\":3572:3590  dropsite_NFT_Owner */\n      0x09\n        /* \"Dropsite.sol\":3572:3601  dropsite_NFT_Owner[user_addr] */\n      0x00\n        /* \"Dropsite.sol\":3591:3600  user_addr */\n      dup7\n        /* \"Dropsite.sol\":3572:3601  dropsite_NFT_Owner[user_addr] */\n      0xffffffffffffffffffffffffffffffffffffffff\n      and\n      0xffffffffffffffffffffffffffffffffffffffff\n      and\n      dup2\n      mstore\n      0x20\n      add\n      swap1\n      dup2\n      mstore\n      0x20\n      add\n      0x00\n      keccak256\n        /* \"Dropsite.sol\":3572:3607  dropsite_NFT_Owner[user_addr]=nftId */\n      dup2\n      swap1\n      sstore\n      pop\n        /* \"Dropsite.sol\":3621:3626  nftId */\n      dup1\n        /* \"Dropsite.sol\":3634:3638  data */\n      0x02\n        /* \"Dropsite.sol\":3613:3640  return (nftId,string(data)) */\n      dup1\n      dup1\n      sload\n      tag_160\n      swap1\n      tag_111\n      jump\t// in\n    tag_160:\n      dup1\n      0x1f\n      add\n      0x20\n      dup1\n      swap2\n      div\n      mul\n      0x20\n      add\n      mload(0x40)\n      swap1\n      dup2\n      add\n      0x40\n      mstore\n      dup1\n      swap3\n      swap2\n      swap1\n      dup2\n      dup2\n      mstore\n      0x20\n      add\n      dup3\n      dup1\n      sload\n      tag_161\n      swap1\n      tag_111\n      jump\t// in\n    tag_161:\n      dup1\n      iszero\n      tag_162\n      jumpi\n      dup1\n      0x1f\n      lt\n      tag_163\n      jumpi\n      0x0100\n      dup1\n      dup4\n      sload\n      div\n      mul\n      dup4\n      mstore\n      swap2\n      0x20\n      add\n      swap2\n      jump(tag_162)\n    tag_163:\n      dup3\n      add\n      swap2\n      swap1\n      0x00\n      mstore\n      keccak256(0x00, 0x20)\n      swap1\n    tag_164:\n      dup2\n      sload\n      dup2\n      mstore\n      swap1\n      0x01\n      add\n      swap1\n      0x20\n      add\n      dup1\n      dup4\n      gt\n      tag_164\n      jumpi\n      dup3\n      swap1\n      sub\n      0x1f\n      and\n      dup3\n      add\n      swap2\n    tag_162:\n      pop\n      pop\n      pop\n      pop\n      pop\n      swap1\n      pop\n      swap3\n      pop\n      swap3\n      pop\n      pop\n        /* \"Dropsite.sol\":3227:3647  function FiatrandomMint(address user_addr) OnlyOwner contractIsNotPaused public returns (uint,string memory) {... */\n      swap2\n      pop\n      swap2\n      jump\t// out\n        /* \"Context.sol\":640:736  function _msgSender() internal view virtual returns (address) {... */\n    tag_68:\n        /* \"Context.sol\":693:700  address */\n      0x00\n        /* \"Context.sol\":719:729  msg.sender */\n      caller\n        /* \"Context.sol\":712:729  return msg.sender */\n      swap1\n      pop\n        /* \"Context.sol\":640:736  function _msgSender() internal view virtual returns (address) {... */\n      swap1\n      jump\t// out\n        /* \"Dropsite.sol\":2430:3181  function updateConditions() internal contractIsNotPaused returns(uint) {... */\n    tag_108:\n        /* \"Dropsite.sol\":2495:2499  uint */\n      0x00\n        /* \"Dropsite.sol\":804:809  false */\n      dup1\n        /* \"Dropsite.sol\":792:809  IsPaused == false */\n      iszero\n      iszero\n        /* \"Dropsite.sol\":792:800  IsPaused */\n      0x0b\n      0x00\n      swap1\n      sload\n      swap1\n      0x0100\n      exp\n      swap1\n      div\n      0xff\n      and\n        /* \"Dropsite.sol\":792:809  IsPaused == false */\n      iszero\n      iszero\n      eq\n        /* \"Dropsite.sol\":783:842  require (IsPaused == false, \"Dropsite is not Opened Yet.\" ) */\n      tag_167\n      jumpi\n      mload(0x40)\n      0x08c379a000000000000000000000000000000000000000000000000000000000\n      dup2\n      mstore\n      0x04\n      add\n      tag_168\n      swap1\n      tag_99\n      jump\t// in\n    tag_168:\n      mload(0x40)\n      dup1\n      swap2\n      sub\n      swap1\n      revert\n    tag_167:\n        /* \"Dropsite.sol\":2510:2520  uint index */\n      0x00\n        /* \"Dropsite.sol\":2523:2531  random() */\n      tag_170\n        /* \"Dropsite.sol\":2523:2529  random */\n      tag_171\n        /* \"Dropsite.sol\":2523:2531  random() */\n      jump\t// in\n    tag_170:\n        /* \"Dropsite.sol\":2510:2531  uint index = random() */\n      swap1\n      pop\n        /* \"Dropsite.sol\":2541:2551  uint nftId */\n      0x00\n        /* \"Dropsite.sol\":2554:2558  nums */\n      0x03\n        /* \"Dropsite.sol\":2559:2564  index */\n      dup3\n        /* \"Dropsite.sol\":2554:2565  nums[index] */\n      0x0a\n      dup2\n      lt\n      tag_172\n      jumpi\n      tag_173\n      tag_174\n      jump\t// in\n    tag_173:\n    tag_172:\n      0x20\n      swap2\n      dup3\n      dup3\n      div\n      add\n      swap2\n      swap1\n      mod\n      swap1\n      sload\n      swap1\n      0x0100\n      exp\n      swap1\n      div\n      0xff\n      and\n        /* \"Dropsite.sol\":2541:2565  uint nftId = nums[index] */\n      0xff\n      and\n      swap1\n      pop\n        /* \"Dropsite.sol\":2651:2652  0 */\n      0x00\n        /* \"Dropsite.sol\":2642:2647  nftId */\n      dup2\n        /* \"Dropsite.sol\":2642:2652  nftId == 0 */\n      eq\n        /* \"Dropsite.sol\":2642:2668  nftId == 0 && Diamond < 50 */\n      dup1\n      iszero\n      tag_176\n      jumpi\n      pop\n        /* \"Dropsite.sol\":2666:2668  50 */\n      0x32\n        /* \"Dropsite.sol\":2656:2663  Diamond */\n      sload(0x06)\n        /* \"Dropsite.sol\":2656:2668  Diamond < 50 */\n      lt\n        /* \"Dropsite.sol\":2642:2668  nftId == 0 && Diamond < 50 */\n    tag_176:\n        /* \"Dropsite.sol\":2639:3170  if(nftId == 0 && Diamond < 50) {... */\n      iszero\n      tag_177\n      jumpi\n        /* \"Dropsite.sol\":2680:2696  data = \"Diamond\" */\n      mload(0x40)\n      dup1\n      0x40\n      add\n      0x40\n      mstore\n      dup1\n      0x07\n      dup2\n      mstore\n      0x20\n      add\n      0x4469616d6f6e6400000000000000000000000000000000000000000000000000\n      dup2\n      mstore\n      pop\n        /* \"Dropsite.sol\":2680:2684  data */\n      0x02\n        /* \"Dropsite.sol\":2680:2696  data = \"Diamond\" */\n      swap1\n      dup1\n      mload\n      swap1\n      0x20\n      add\n      swap1\n      tag_178\n      swap3\n      swap2\n      swap1\n      tag_179\n      jump\t// in\n    tag_178:\n      pop\n        /* \"Dropsite.sol\":2706:2713  Diamond */\n      0x06\n      0x00\n        /* \"Dropsite.sol\":2706:2715  Diamond++ */\n      dup2\n      sload\n      dup1\n      swap3\n      swap2\n      swap1\n      tag_180\n      swap1\n      tag_121\n      jump\t// in\n    tag_180:\n      swap2\n      swap1\n      pop\n      sstore\n      pop\n        /* \"Dropsite.sol\":2733:2738  nftId */\n      dup1\n        /* \"Dropsite.sol\":2726:2738  return nftId */\n      swap3\n      pop\n      pop\n      pop\n      jump(tag_169)\n        /* \"Dropsite.sol\":2639:3170  if(nftId == 0 && Diamond < 50) {... */\n    tag_177:\n        /* \"Dropsite.sol\":2837:2838  1 */\n      0x01\n        /* \"Dropsite.sol\":2828:2833  nftId */\n      dup2\n        /* \"Dropsite.sol\":2828:2838  nftId <= 1 */\n      gt\n      iszero\n        /* \"Dropsite.sol\":2828:2852  nftId <= 1 && Gold < 100 */\n      dup1\n      iszero\n      tag_182\n      jumpi\n      pop\n        /* \"Dropsite.sol\":2849:2852  100 */\n      0x64\n        /* \"Dropsite.sol\":2842:2846  Gold */\n      sload(0x07)\n        /* \"Dropsite.sol\":2842:2852  Gold < 100 */\n      lt\n        /* \"Dropsite.sol\":2828:2852  nftId <= 1 && Gold < 100 */\n    tag_182:\n        /* \"Dropsite.sol\":2825:3170  if(nftId <= 1 && Gold < 100) {... */\n      iszero\n      tag_183\n      jumpi\n        /* \"Dropsite.sol\":2864:2877  data = \"Gold\" */\n      mload(0x40)\n      dup1\n      0x40\n      add\n      0x40\n      mstore\n      dup1\n      0x04\n      dup2\n      mstore\n      0x20\n      add\n      0x476f6c6400000000000000000000000000000000000000000000000000000000\n      dup2\n      mstore\n      pop\n        /* \"Dropsite.sol\":2864:2868  data */\n      0x02\n        /* \"Dropsite.sol\":2864:2877  data = \"Gold\" */\n      swap1\n      dup1\n      mload\n      swap1\n      0x20\n      add\n      swap1\n      tag_184\n      swap3\n      swap2\n      swap1\n      tag_179\n      jump\t// in\n    tag_184:\n      pop\n        /* \"Dropsite.sol\":2887:2891  Gold */\n      0x07\n      0x00\n        /* \"Dropsite.sol\":2887:2893  Gold++ */\n      dup2\n      sload\n      dup1\n      swap3\n      swap2\n      swap1\n      tag_185\n      swap1\n      tag_121\n      jump\t// in\n    tag_185:\n      swap2\n      swap1\n      pop\n      sstore\n      pop\n        /* \"Dropsite.sol\":2910:2915  nftId */\n      dup1\n        /* \"Dropsite.sol\":2903:2915  return nftId */\n      swap3\n      pop\n      pop\n      pop\n      jump(tag_169)\n        /* \"Dropsite.sol\":2825:3170  if(nftId <= 1 && Gold < 100) {... */\n    tag_183:\n        /* \"Dropsite.sol\":3037:3038  2 */\n      0x02\n        /* \"Dropsite.sol\":3028:3033  nftId */\n      dup2\n        /* \"Dropsite.sol\":3028:3038  nftId <= 2 */\n      gt\n      iszero\n        /* \"Dropsite.sol\":3028:3055  nftId <= 2 && Silver <= 850 */\n      dup1\n      iszero\n      tag_187\n      jumpi\n      pop\n        /* \"Dropsite.sol\":3052:3055  850 */\n      0x0352\n        /* \"Dropsite.sol\":3042:3048  Silver */\n      sload(0x08)\n        /* \"Dropsite.sol\":3042:3055  Silver <= 850 */\n      gt\n      iszero\n        /* \"Dropsite.sol\":3028:3055  nftId <= 2 && Silver <= 850 */\n    tag_187:\n        /* \"Dropsite.sol\":3025:3170  if(nftId <= 2 && Silver <= 850) {... */\n      iszero\n      tag_188\n      jumpi\n        /* \"Dropsite.sol\":3067:3080  data=\"Silver\" */\n      mload(0x40)\n      dup1\n      0x40\n      add\n      0x40\n      mstore\n      dup1\n      0x06\n      dup2\n      mstore\n      0x20\n      add\n      0x53696c7665720000000000000000000000000000000000000000000000000000\n      dup2\n      mstore\n      pop\n        /* \"Dropsite.sol\":3067:3071  data */\n      0x02\n        /* \"Dropsite.sol\":3067:3080  data=\"Silver\" */\n      swap1\n      dup1\n      mload\n      swap1\n      0x20\n      add\n      swap1\n      tag_189\n      swap3\n      swap2\n      swap1\n      tag_179\n      jump\t// in\n    tag_189:\n      pop\n        /* \"Dropsite.sol\":3090:3096  Silver */\n      0x08\n      0x00\n        /* \"Dropsite.sol\":3090:3098  Silver++ */\n      dup2\n      sload\n      dup1\n      swap3\n      swap2\n      swap1\n      tag_190\n      swap1\n      tag_121\n      jump\t// in\n    tag_190:\n      swap2\n      swap1\n      pop\n      sstore\n      pop\n        /* \"Dropsite.sol\":3115:3120  nftId */\n      dup1\n        /* \"Dropsite.sol\":3108:3120  return nftId */\n      swap3\n      pop\n      pop\n      pop\n      jump(tag_169)\n        /* \"Dropsite.sol\":3025:3170  if(nftId <= 2 && Silver <= 850) {... */\n    tag_188:\n        /* \"Dropsite.sol\":3142:3170  revert(\"Some Error Occured\") */\n      mload(0x40)\n      0x08c379a000000000000000000000000000000000000000000000000000000000\n      dup2\n      mstore\n      0x04\n      add\n      tag_192\n      swap1\n      tag_193\n      jump\t// in\n    tag_192:\n      mload(0x40)\n      dup1\n      swap2\n      sub\n      swap1\n      revert\n        /* \"Dropsite.sol\":852:853  _ */\n    tag_169:\n        /* \"Dropsite.sol\":2430:3181  function updateConditions() internal contractIsNotPaused returns(uint) {... */\n      swap1\n      jump\t// out\n        /* \"ERC1155_Dropsite.sol\":835:1386  function _mint(... */\n    tag_116:\n        /* \"ERC1155_Dropsite.sol\":996:997  0 */\n      0x00\n        /* \"ERC1155_Dropsite.sol\":982:998  to != address(0) */\n      0xffffffffffffffffffffffffffffffffffffffff\n      and\n        /* \"ERC1155_Dropsite.sol\":982:984  to */\n      dup5\n        /* \"ERC1155_Dropsite.sol\":982:998  to != address(0) */\n      0xffffffffffffffffffffffffffffffffffffffff\n      and\n      eq\n      iszero\n        /* \"ERC1155_Dropsite.sol\":974:1036  require(to != address(0), \"ERC1155: mint to the zero address\") */\n      tag_195\n      jumpi\n      mload(0x40)\n      0x08c379a000000000000000000000000000000000000000000000000000000000\n      dup2\n      mstore\n      0x04\n      add\n      tag_196\n      swap1\n      tag_197\n      jump\t// in\n    tag_196:\n      mload(0x40)\n      dup1\n      swap2\n      sub\n      swap1\n      revert\n    tag_195:\n        /* \"ERC1155_Dropsite.sol\":1047:1063  address operator */\n      0x00\n        /* \"ERC1155_Dropsite.sol\":1066:1078  _msgSender() */\n      tag_198\n        /* \"ERC1155_Dropsite.sol\":1066:1076  _msgSender */\n      tag_68\n        /* \"ERC1155_Dropsite.sol\":1066:1078  _msgSender() */\n      jump\t// in\n    tag_198:\n        /* \"ERC1155_Dropsite.sol\":1047:1078  address operator = _msgSender() */\n      swap1\n      pop\n        /* \"ERC1155_Dropsite.sol\":1089:1191  _beforeTokenTransfer(operator, address(0), to, _asSingletonArray(id), _asSingletonArray(amount), data) */\n      tag_199\n        /* \"ERC1155_Dropsite.sol\":1110:1118  operator */\n      dup2\n        /* \"ERC1155_Dropsite.sol\":1128:1129  0 */\n      0x00\n        /* \"ERC1155_Dropsite.sol\":1132:1134  to */\n      dup8\n        /* \"ERC1155_Dropsite.sol\":1136:1157  _asSingletonArray(id) */\n      tag_200\n        /* \"ERC1155_Dropsite.sol\":1154:1156  id */\n      dup9\n        /* \"ERC1155_Dropsite.sol\":1136:1153  _asSingletonArray */\n      tag_201\n        /* \"ERC1155_Dropsite.sol\":1136:1157  _asSingletonArray(id) */\n      jump\t// in\n    tag_200:\n        /* \"ERC1155_Dropsite.sol\":1159:1184  _asSingletonArray(amount) */\n      tag_202\n        /* \"ERC1155_Dropsite.sol\":1177:1183  amount */\n      dup9\n        /* \"ERC1155_Dropsite.sol\":1159:1176  _asSingletonArray */\n      tag_201\n        /* \"ERC1155_Dropsite.sol\":1159:1184  _asSingletonArray(amount) */\n      jump\t// in\n    tag_202:\n        /* \"ERC1155_Dropsite.sol\":1186:1190  data */\n      dup8\n        /* \"ERC1155_Dropsite.sol\":1089:1109  _beforeTokenTransfer */\n      tag_203\n        /* \"ERC1155_Dropsite.sol\":1089:1191  _beforeTokenTransfer(operator, address(0), to, _asSingletonArray(id), _asSingletonArray(amount), data) */\n      jump\t// in\n    tag_199:\n        /* \"ERC1155_Dropsite.sol\":1222:1228  amount */\n      dup3\n        /* \"ERC1155_Dropsite.sol\":1201:1210  _balances */\n      0x00\n        /* \"ERC1155_Dropsite.sol\":1201:1214  _balances[id] */\n      dup1\n        /* \"ERC1155_Dropsite.sol\":1211:1213  id */\n      dup7\n        /* \"ERC1155_Dropsite.sol\":1201:1214  _balances[id] */\n      dup2\n      mstore\n      0x20\n      add\n      swap1\n      dup2\n      mstore\n      0x20\n      add\n      0x00\n      keccak256\n        /* \"ERC1155_Dropsite.sol\":1201:1218  _balances[id][to] */\n      0x00\n        /* \"ERC1155_Dropsite.sol\":1215:1217  to */\n      dup8\n        /* \"ERC1155_Dropsite.sol\":1201:1218  _balances[id][to] */\n      0xffffffffffffffffffffffffffffffffffffffff\n      and\n      0xffffffffffffffffffffffffffffffffffffffff\n      and\n      dup2\n      mstore\n      0x20\n      add\n      swap1\n      dup2\n      mstore\n      0x20\n      add\n      0x00\n      keccak256\n      0x00\n        /* \"ERC1155_Dropsite.sol\":1201:1228  _balances[id][to] += amount */\n      dup3\n      dup3\n      sload\n      tag_204\n      swap2\n      swap1\n      tag_205\n      jump\t// in\n    tag_204:\n      swap3\n      pop\n      pop\n      dup2\n      swap1\n      sstore\n      pop\n        /* \"ERC1155_Dropsite.sol\":1280:1282  to */\n      dup5\n        /* \"ERC1155_Dropsite.sol\":1243:1295  TransferSingle(operator, address(0), to, id, amount) */\n      0xffffffffffffffffffffffffffffffffffffffff\n      and\n        /* \"ERC1155_Dropsite.sol\":1276:1277  0 */\n      0x00\n        /* \"ERC1155_Dropsite.sol\":1243:1295  TransferSingle(operator, address(0), to, id, amount) */\n      0xffffffffffffffffffffffffffffffffffffffff\n      and\n        /* \"ERC1155_Dropsite.sol\":1258:1266  operator */\n      dup3\n        /* \"ERC1155_Dropsite.sol\":1243:1295  TransferSingle(operator, address(0), to, id, amount) */\n      0xffffffffffffffffffffffffffffffffffffffff\n      and\n      0xc3d58168c5ae7397731d063d5bbf3d657854427343f4c083240f7aacaa2d0f62\n        /* \"ERC1155_Dropsite.sol\":1284:1286  id */\n      dup8\n        /* \"ERC1155_Dropsite.sol\":1288:1294  amount */\n      dup8\n        /* \"ERC1155_Dropsite.sol\":1243:1295  TransferSingle(operator, address(0), to, id, amount) */\n      mload(0x40)\n      tag_206\n      swap3\n      swap2\n      swap1\n      tag_207\n      jump\t// in\n    tag_206:\n      mload(0x40)\n      dup1\n      swap2\n      sub\n      swap1\n      log4\n        /* \"ERC1155_Dropsite.sol\":1305:1379  _doSafeTransferAcceptanceCheck(operator, address(0), to, id, amount, data) */\n      tag_208\n        /* \"ERC1155_Dropsite.sol\":1336:1344  operator */\n      dup2\n        /* \"ERC1155_Dropsite.sol\":1354:1355  0 */\n      0x00\n        /* \"ERC1155_Dropsite.sol\":1358:1360  to */\n      dup8\n        /* \"ERC1155_Dropsite.sol\":1362:1364  id */\n      dup8\n        /* \"ERC1155_Dropsite.sol\":1366:1372  amount */\n      dup8\n        /* \"ERC1155_Dropsite.sol\":1374:1378  data */\n      dup8\n        /* \"ERC1155_Dropsite.sol\":1305:1335  _doSafeTransferAcceptanceCheck */\n      tag_209\n        /* \"ERC1155_Dropsite.sol\":1305:1379  _doSafeTransferAcceptanceCheck(operator, address(0), to, id, amount, data) */\n      jump\t// in\n    tag_208:\n        /* \"ERC1155_Dropsite.sol\":964:1386  {... */\n      pop\n        /* \"ERC1155_Dropsite.sol\":835:1386  function _mint(... */\n      pop\n      pop\n      pop\n      pop\n      jump\t// out\n        /* \"Dropsite.sol\":3657:3776  function depositAmount(address payee,uint amountToDeposit) internal {... */\n    tag_119:\n        /* \"Dropsite.sol\":3754:3769  amountToDeposit */\n      dup1\n        /* \"Dropsite.sol\":3735:3743  deposits */\n      0x0a\n        /* \"Dropsite.sol\":3735:3750  deposits[payee] */\n      0x00\n        /* \"Dropsite.sol\":3744:3749  payee */\n      dup5\n        /* \"Dropsite.sol\":3735:3750  deposits[payee] */\n      0xffffffffffffffffffffffffffffffffffffffff\n      and\n      0xffffffffffffffffffffffffffffffffffffffff\n      and\n      dup2\n      mstore\n      0x20\n      add\n      swap1\n      dup2\n      mstore\n      0x20\n      add\n      0x00\n      keccak256\n      0x00\n        /* \"Dropsite.sol\":3735:3769  deposits[payee] += amountToDeposit */\n      dup3\n      dup3\n      sload\n      tag_211\n      swap2\n      swap1\n      tag_205\n      jump\t// in\n    tag_211:\n      swap3\n      pop\n      pop\n      dup2\n      swap1\n      sstore\n      pop\n        /* \"Dropsite.sol\":3657:3776  function depositAmount(address payee,uint amountToDeposit) internal {... */\n      pop\n      pop\n      jump\t// out\n        /* \"Dropsite.sol\":2228:2425  function random() internal view returns (uint) {... */\n    tag_171:\n        /* \"Dropsite.sol\":2269:2273  uint */\n      0x00\n        /* \"Dropsite.sol\":2306:2323  uint randomnumber */\n      dup1\n        /* \"Dropsite.sol\":2391:2393  10 */\n      0x0a\n        /* \"Dropsite.sol\":2358:2373  block.timestamp */\n      timestamp\n        /* \"Dropsite.sol\":2375:2385  msg.sender */\n      caller\n        /* \"Dropsite.sol\":2341:2386  abi.encodePacked(block.timestamp, msg.sender) */\n      add(0x20, mload(0x40))\n      tag_213\n      swap3\n      swap2\n      swap1\n      tag_214\n      jump\t// in\n    tag_213:\n      mload(0x40)\n      0x20\n      dup2\n      dup4\n      sub\n      sub\n      dup2\n      mstore\n      swap1\n      0x40\n      mstore\n        /* \"Dropsite.sol\":2331:2387  keccak256(abi.encodePacked(block.timestamp, msg.sender)) */\n      dup1\n      mload\n      swap1\n      0x20\n      add\n      keccak256\n        /* \"Dropsite.sol\":2326:2388  uint(keccak256(abi.encodePacked(block.timestamp, msg.sender))) */\n      0x00\n      shr\n        /* \"Dropsite.sol\":2326:2393  uint(keccak256(abi.encodePacked(block.timestamp, msg.sender))) % 10 */\n      tag_215\n      swap2\n      swap1\n      tag_216\n      jump\t// in\n    tag_215:\n        /* \"Dropsite.sol\":2306:2393  uint randomnumber = uint(keccak256(abi.encodePacked(block.timestamp, msg.sender))) % 10 */\n      swap1\n      pop\n        /* \"Dropsite.sol\":2406:2418  randomnumber */\n      dup1\n        /* \"Dropsite.sol\":2399:2418  return randomnumber */\n      swap2\n      pop\n      pop\n        /* \"Dropsite.sol\":2228:2425  function random() internal view returns (uint) {... */\n      swap1\n      jump\t// out\n        /* \"ERC1155_Dropsite.sol\":2344:2537  function _asSingletonArray(uint256 element) private pure returns (uint256[] memory) {... */\n    tag_201:\n        /* \"ERC1155_Dropsite.sol\":2410:2426  uint256[] memory */\n      0x60\n        /* \"ERC1155_Dropsite.sol\":2438:2460  uint256[] memory array */\n      0x00\n        /* \"ERC1155_Dropsite.sol\":2477:2478  1 */\n      0x01\n        /* \"ERC1155_Dropsite.sol\":2463:2479  new uint256[](1) */\n      0xffffffffffffffff\n      dup2\n      gt\n      iszero\n      tag_218\n      jumpi\n      tag_219\n      tag_220\n      jump\t// in\n    tag_219:\n    tag_218:\n      mload(0x40)\n      swap1\n      dup1\n      dup3\n      mstore\n      dup1\n      0x20\n      mul\n      0x20\n      add\n      dup3\n      add\n      0x40\n      mstore\n      dup1\n      iszero\n      tag_221\n      jumpi\n      dup2\n      0x20\n      add\n      0x20\n      dup3\n      mul\n      dup1\n      calldatasize\n      dup4\n      calldatacopy\n      dup1\n      dup3\n      add\n      swap2\n      pop\n      pop\n      swap1\n      pop\n    tag_221:\n      pop\n        /* \"ERC1155_Dropsite.sol\":2438:2479  uint256[] memory array = new uint256[](1) */\n      swap1\n      pop\n        /* \"ERC1155_Dropsite.sol\":2500:2507  element */\n      dup3\n        /* \"ERC1155_Dropsite.sol\":2489:2494  array */\n      dup2\n        /* \"ERC1155_Dropsite.sol\":2495:2496  0 */\n      0x00\n        /* \"ERC1155_Dropsite.sol\":2489:2497  array[0] */\n      dup2\n      mload\n      dup2\n      lt\n      tag_222\n      jumpi\n      tag_223\n      tag_174\n      jump\t// in\n    tag_223:\n    tag_222:\n      0x20\n      mul\n      0x20\n      add\n      add\n        /* \"ERC1155_Dropsite.sol\":2489:2507  array[0] = element */\n      dup2\n      dup2\n      mstore\n      pop\n      pop\n        /* \"ERC1155_Dropsite.sol\":2525:2530  array */\n      dup1\n        /* \"ERC1155_Dropsite.sol\":2518:2530  return array */\n      swap2\n      pop\n      pop\n        /* \"ERC1155_Dropsite.sol\":2344:2537  function _asSingletonArray(uint256 element) private pure returns (uint256[] memory) {... */\n      swap2\n      swap1\n      pop\n      jump\t// out\n        /* \"ERC1155_Dropsite.sol\":1393:1607  function _beforeTokenTransfer(... */\n    tag_203:\n      pop\n      pop\n      pop\n      pop\n      pop\n      pop\n      jump\t// out\n        /* \"ERC1155_Dropsite.sol\":1613:2338  function _doSafeTransferAcceptanceCheck(... */\n    tag_209:\n        /* \"ERC1155_Dropsite.sol\":1820:1835  to.isContract() */\n      tag_226\n        /* \"ERC1155_Dropsite.sol\":1820:1822  to */\n      dup5\n        /* \"ERC1155_Dropsite.sol\":1820:1833  to.isContract */\n      0xffffffffffffffffffffffffffffffffffffffff\n      and\n      tag_227\n        /* \"ERC1155_Dropsite.sol\":1820:1835  to.isContract() */\n      jump\t// in\n    tag_226:\n        /* \"ERC1155_Dropsite.sol\":1816:2332  if (to.isContract()) {... */\n      iszero\n      tag_228\n      jumpi\n        /* \"ERC1155_Dropsite.sol\":1872:1874  to */\n      dup4\n        /* \"ERC1155_Dropsite.sol\":1855:1893  IERC1155Receiver(to).onERC1155Received */\n      0xffffffffffffffffffffffffffffffffffffffff\n      and\n      0xf23a6e61\n        /* \"ERC1155_Dropsite.sol\":1894:1902  operator */\n      dup8\n        /* \"ERC1155_Dropsite.sol\":1904:1908  from */\n      dup8\n        /* \"ERC1155_Dropsite.sol\":1910:1912  id */\n      dup7\n        /* \"ERC1155_Dropsite.sol\":1914:1920  amount */\n      dup7\n        /* \"ERC1155_Dropsite.sol\":1922:1926  data */\n      dup7\n        /* \"ERC1155_Dropsite.sol\":1855:1927  IERC1155Receiver(to).onERC1155Received(operator, from, id, amount, data) */\n      mload(0x40)\n      dup7\n      0xffffffff\n      and\n      0xe0\n      shl\n      dup2\n      mstore\n      0x04\n      add\n      tag_229\n      swap6\n      swap5\n      swap4\n      swap3\n      swap2\n      swap1\n      tag_230\n      jump\t// in\n    tag_229:\n      0x20\n      mload(0x40)\n      dup1\n      dup4\n      sub\n      dup2\n      0x00\n      dup8\n      dup1\n      extcodesize\n      iszero\n      dup1\n      iszero\n      tag_231\n      jumpi\n      0x00\n      dup1\n      revert\n    tag_231:\n      pop\n      gas\n      call\n      swap3\n      pop\n      pop\n      pop\n      dup1\n      iszero\n      tag_232\n      jumpi\n      pop\n      mload(0x40)\n      returndatasize\n      not(0x1f)\n      0x1f\n      dup3\n      add\n      and\n      dup3\n      add\n      dup1\n      0x40\n      mstore\n      pop\n      dup2\n      add\n      swap1\n      tag_233\n      swap2\n      swap1\n      tag_234\n      jump\t// in\n    tag_233:\n      0x01\n    tag_232:\n        /* \"ERC1155_Dropsite.sol\":1851:2322  try IERC1155Receiver(to).onERC1155Received(operator, from, id, amount, data) returns (bytes4 response) {... */\n      tag_235\n      jumpi\n      tag_239\n      tag_240\n      jump\t// in\n    tag_239:\n      dup1\n      0x08c379a0\n      eq\n      iszero\n      tag_238\n      jumpi\n      pop\n      tag_241\n      tag_242\n      jump\t// in\n    tag_241:\n      dup1\n      tag_243\n      jumpi\n      pop\n      jump(tag_237)\n    tag_243:\n        /* \"ERC1155_Dropsite.sol\":2198:2204  reason */\n      dup1\n        /* \"ERC1155_Dropsite.sol\":2191:2205  revert(reason) */\n      mload(0x40)\n      0x08c379a000000000000000000000000000000000000000000000000000000000\n      dup2\n      mstore\n      0x04\n      add\n      tag_244\n      swap2\n      swap1\n      tag_245\n      jump\t// in\n    tag_244:\n      mload(0x40)\n      dup1\n      swap2\n      sub\n      swap1\n      revert\n        /* \"ERC1155_Dropsite.sol\":1851:2322  try IERC1155Receiver(to).onERC1155Received(operator, from, id, amount, data) returns (bytes4 response) {... */\n    tag_238:\n      pop\n    tag_237:\n        /* \"ERC1155_Dropsite.sol\":2245:2307  revert(\"ERC1155: transfer to non ERC1155Receiver implementer\") */\n      mload(0x40)\n      0x08c379a000000000000000000000000000000000000000000000000000000000\n      dup2\n      mstore\n      0x04\n      add\n      tag_246\n      swap1\n      tag_247\n      jump\t// in\n    tag_246:\n      mload(0x40)\n      dup1\n      swap2\n      sub\n      swap1\n      revert\n        /* \"ERC1155_Dropsite.sol\":1851:2322  try IERC1155Receiver(to).onERC1155Received(operator, from, id, amount, data) returns (bytes4 response) {... */\n    tag_235:\n        /* \"ERC1155_Dropsite.sol\":1988:2031  IERC1155Receiver.onERC1155Received.selector */\n      shl(0xe0, 0xf23a6e61)\n        /* \"ERC1155_Dropsite.sol\":1976:2031  response != IERC1155Receiver.onERC1155Received.selector */\n      not(0xffffffffffffffffffffffffffffffffffffffffffffffffffffffff)\n      and\n        /* \"ERC1155_Dropsite.sol\":1976:1984  response */\n      dup2\n        /* \"ERC1155_Dropsite.sol\":1976:2031  response != IERC1155Receiver.onERC1155Received.selector */\n      not(0xffffffffffffffffffffffffffffffffffffffffffffffffffffffff)\n      and\n      eq\n        /* \"ERC1155_Dropsite.sol\":1972:2124  if (response != IERC1155Receiver.onERC1155Received.selector) {... */\n      tag_249\n      jumpi\n        /* \"ERC1155_Dropsite.sol\":2055:2105  revert(\"ERC1155: ERC1155Receiver rejected tokens\") */\n      mload(0x40)\n      0x08c379a000000000000000000000000000000000000000000000000000000000\n      dup2\n      mstore\n      0x04\n      add\n      tag_250\n      swap1\n      tag_251\n      jump\t// in\n    tag_250:\n      mload(0x40)\n      dup1\n      swap2\n      sub\n      swap1\n      revert\n        /* \"ERC1155_Dropsite.sol\":1972:2124  if (response != IERC1155Receiver.onERC1155Received.selector) {... */\n    tag_249:\n        /* \"ERC1155_Dropsite.sol\":1928:2138  returns (bytes4 response) {... */\n      pop\n        /* \"ERC1155_Dropsite.sol\":1816:2332  if (to.isContract()) {... */\n    tag_228:\n        /* \"ERC1155_Dropsite.sol\":1613:2338  function _doSafeTransferAcceptanceCheck(... */\n      pop\n      pop\n      pop\n      pop\n      pop\n      pop\n      jump\t// out\n        /* \"Address.sol\":771:1148  function isContract(address account) internal view returns (bool) {... */\n    tag_227:\n        /* \"Address.sol\":831:835  bool */\n      0x00\n        /* \"Address.sol\":1034:1046  uint256 size */\n      dup1\n        /* \"Address.sol\":1099:1106  account */\n      dup3\n        /* \"Address.sol\":1087:1107  extcodesize(account) */\n      extcodesize\n        /* \"Address.sol\":1079:1107  size := extcodesize(account) */\n      swap1\n      pop\n        /* \"Address.sol\":1140:1141  0 */\n      0x00\n        /* \"Address.sol\":1133:1137  size */\n      dup2\n        /* \"Address.sol\":1133:1141  size > 0 */\n      gt\n        /* \"Address.sol\":1126:1141  return size > 0 */\n      swap2\n      pop\n      pop\n        /* \"Address.sol\":771:1148  function isContract(address account) internal view returns (bool) {... */\n      swap2\n      swap1\n      pop\n      jump\t// out\n    tag_179:\n      dup3\n      dup1\n      sload\n      tag_253\n      swap1\n      tag_111\n      jump\t// in\n    tag_253:\n      swap1\n      0x00\n      mstore\n      keccak256(0x00, 0x20)\n      swap1\n      0x1f\n      add\n      0x20\n      swap1\n      div\n      dup2\n      add\n      swap3\n      dup3\n      tag_255\n      jumpi\n      0x00\n      dup6\n      sstore\n      jump(tag_254)\n    tag_255:\n      dup3\n      0x1f\n      lt\n      tag_256\n      jumpi\n      dup1\n      mload\n      not(0xff)\n      and\n      dup4\n      dup1\n      add\n      or\n      dup6\n      sstore\n      jump(tag_254)\n    tag_256:\n      dup3\n      dup1\n      add\n      0x01\n      add\n      dup6\n      sstore\n      dup3\n      iszero\n      tag_254\n      jumpi\n      swap2\n      dup3\n      add\n    tag_257:\n      dup3\n      dup2\n      gt\n      iszero\n      tag_258\n      jumpi\n      dup3\n      mload\n      dup3\n      sstore\n      swap2\n      0x20\n      add\n      swap2\n      swap1\n      0x01\n      add\n      swap1\n      jump(tag_257)\n    tag_258:\n    tag_254:\n      pop\n      swap1\n      pop\n      tag_259\n      swap2\n      swap1\n      tag_260\n      jump\t// in\n    tag_259:\n      pop\n      swap1\n      jump\t// out\n    tag_260:\n    tag_261:\n      dup1\n      dup3\n      gt\n      iszero\n      tag_262\n      jumpi\n      0x00\n      dup2\n      0x00\n      swap1\n      sstore\n      pop\n      0x01\n      add\n      jump(tag_261)\n    tag_262:\n      pop\n      swap1\n      jump\t// out\n        /* \"#utility.yul\":7:146   */\n    tag_264:\n        /* \"#utility.yul\":53:58   */\n      0x00\n        /* \"#utility.yul\":91:97   */\n      dup2\n        /* \"#utility.yul\":78:98   */\n      calldataload\n        /* \"#utility.yul\":69:98   */\n      swap1\n      pop\n        /* \"#utility.yul\":107:140   */\n      tag_266\n        /* \"#utility.yul\":134:139   */\n      dup2\n        /* \"#utility.yul\":107:140   */\n      tag_267\n      jump\t// in\n    tag_266:\n        /* \"#utility.yul\":7:146   */\n      swap3\n      swap2\n      pop\n      pop\n      jump\t// out\n        /* \"#utility.yul\":152:307   */\n    tag_268:\n        /* \"#utility.yul\":206:211   */\n      0x00\n        /* \"#utility.yul\":244:250   */\n      dup2\n        /* \"#utility.yul\":231:251   */\n      calldataload\n        /* \"#utility.yul\":222:251   */\n      swap1\n      pop\n        /* \"#utility.yul\":260:301   */\n      tag_270\n        /* \"#utility.yul\":295:300   */\n      dup2\n        /* \"#utility.yul\":260:301   */\n      tag_271\n      jump\t// in\n    tag_270:\n        /* \"#utility.yul\":152:307   */\n      swap3\n      swap2\n      pop\n      pop\n      jump\t// out\n        /* \"#utility.yul\":313:454   */\n    tag_272:\n        /* \"#utility.yul\":369:374   */\n      0x00\n        /* \"#utility.yul\":400:406   */\n      dup2\n        /* \"#utility.yul\":394:407   */\n      mload\n        /* \"#utility.yul\":385:407   */\n      swap1\n      pop\n        /* \"#utility.yul\":416:448   */\n      tag_274\n        /* \"#utility.yul\":442:447   */\n      dup2\n        /* \"#utility.yul\":416:448   */\n      tag_275\n      jump\t// in\n    tag_274:\n        /* \"#utility.yul\":313:454   */\n      swap3\n      swap2\n      pop\n      pop\n      jump\t// out\n        /* \"#utility.yul\":460:599   */\n    tag_276:\n        /* \"#utility.yul\":506:511   */\n      0x00\n        /* \"#utility.yul\":544:550   */\n      dup2\n        /* \"#utility.yul\":531:551   */\n      calldataload\n        /* \"#utility.yul\":522:551   */\n      swap1\n      pop\n        /* \"#utility.yul\":560:593   */\n      tag_278\n        /* \"#utility.yul\":587:592   */\n      dup2\n        /* \"#utility.yul\":560:593   */\n      tag_279\n      jump\t// in\n    tag_278:\n        /* \"#utility.yul\":460:599   */\n      swap3\n      swap2\n      pop\n      pop\n      jump\t// out\n        /* \"#utility.yul\":605:934   */\n    tag_37:\n        /* \"#utility.yul\":664:670   */\n      0x00\n        /* \"#utility.yul\":713:715   */\n      0x20\n        /* \"#utility.yul\":701:710   */\n      dup3\n        /* \"#utility.yul\":692:699   */\n      dup5\n        /* \"#utility.yul\":688:711   */\n      sub\n        /* \"#utility.yul\":684:716   */\n      slt\n        /* \"#utility.yul\":681:800   */\n      iszero\n      tag_281\n      jumpi\n        /* \"#utility.yul\":719:798   */\n      tag_282\n      tag_283\n      jump\t// in\n    tag_282:\n        /* \"#utility.yul\":681:800   */\n    tag_281:\n        /* \"#utility.yul\":839:840   */\n      0x00\n        /* \"#utility.yul\":864:917   */\n      tag_284\n        /* \"#utility.yul\":909:916   */\n      dup5\n        /* \"#utility.yul\":900:906   */\n      dup3\n        /* \"#utility.yul\":889:898   */\n      dup6\n        /* \"#utility.yul\":885:907   */\n      add\n        /* \"#utility.yul\":864:917   */\n      tag_264\n      jump\t// in\n    tag_284:\n        /* \"#utility.yul\":854:917   */\n      swap2\n      pop\n        /* \"#utility.yul\":810:927   */\n      pop\n        /* \"#utility.yul\":605:934   */\n      swap3\n      swap2\n      pop\n      pop\n      jump\t// out\n        /* \"#utility.yul\":940:1285   */\n    tag_21:\n        /* \"#utility.yul\":1007:1013   */\n      0x00\n        /* \"#utility.yul\":1056:1058   */\n      0x20\n        /* \"#utility.yul\":1044:1053   */\n      dup3\n        /* \"#utility.yul\":1035:1042   */\n      dup5\n        /* \"#utility.yul\":1031:1054   */\n      sub\n        /* \"#utility.yul\":1027:1059   */\n      slt\n        /* \"#utility.yul\":1024:1143   */\n      iszero\n      tag_286\n      jumpi\n        /* \"#utility.yul\":1062:1141   */\n      tag_287\n      tag_283\n      jump\t// in\n    tag_287:\n        /* \"#utility.yul\":1024:1143   */\n    tag_286:\n        /* \"#utility.yul\":1182:1183   */\n      0x00\n        /* \"#utility.yul\":1207:1268   */\n      tag_288\n        /* \"#utility.yul\":1260:1267   */\n      dup5\n        /* \"#utility.yul\":1251:1257   */\n      dup3\n        /* \"#utility.yul\":1240:1249   */\n      dup6\n        /* \"#utility.yul\":1236:1258   */\n      add\n        /* \"#utility.yul\":1207:1268   */\n      tag_268\n      jump\t// in\n    tag_288:\n        /* \"#utility.yul\":1197:1268   */\n      swap2\n      pop\n        /* \"#utility.yul\":1153:1278   */\n      pop\n        /* \"#utility.yul\":940:1285   */\n      swap3\n      swap2\n      pop\n      pop\n      jump\t// out\n        /* \"#utility.yul\":1291:1640   */\n    tag_234:\n        /* \"#utility.yul\":1360:1366   */\n      0x00\n        /* \"#utility.yul\":1409:1411   */\n      0x20\n        /* \"#utility.yul\":1397:1406   */\n      dup3\n        /* \"#utility.yul\":1388:1395   */\n      dup5\n        /* \"#utility.yul\":1384:1407   */\n      sub\n        /* \"#utility.yul\":1380:1412   */\n      slt\n        /* \"#utility.yul\":1377:1496   */\n      iszero\n      tag_290\n      jumpi\n        /* \"#utility.yul\":1415:1494   */\n      tag_291\n      tag_283\n      jump\t// in\n    tag_291:\n        /* \"#utility.yul\":1377:1496   */\n    tag_290:\n        /* \"#utility.yul\":1535:1536   */\n      0x00\n        /* \"#utility.yul\":1560:1623   */\n      tag_292\n        /* \"#utility.yul\":1615:1622   */\n      dup5\n        /* \"#utility.yul\":1606:1612   */\n      dup3\n        /* \"#utility.yul\":1595:1604   */\n      dup6\n        /* \"#utility.yul\":1591:1613   */\n      add\n        /* \"#utility.yul\":1560:1623   */\n      tag_272\n      jump\t// in\n    tag_292:\n        /* \"#utility.yul\":1550:1623   */\n      swap2\n      pop\n        /* \"#utility.yul\":1506:1633   */\n      pop\n        /* \"#utility.yul\":1291:1640   */\n      swap3\n      swap2\n      pop\n      pop\n      jump\t// out\n        /* \"#utility.yul\":1646:1975   */\n    tag_57:\n        /* \"#utility.yul\":1705:1711   */\n      0x00\n        /* \"#utility.yul\":1754:1756   */\n      0x20\n        /* \"#utility.yul\":1742:1751   */\n      dup3\n        /* \"#utility.yul\":1733:1740   */\n      dup5\n        /* \"#utility.yul\":1729:1752   */\n      sub\n        /* \"#utility.yul\":1725:1757   */\n      slt\n        /* \"#utility.yul\":1722:1841   */\n      iszero\n      tag_294\n      jumpi\n        /* \"#utility.yul\":1760:1839   */\n      tag_295\n      tag_283\n      jump\t// in\n    tag_295:\n        /* \"#utility.yul\":1722:1841   */\n    tag_294:\n        /* \"#utility.yul\":1880:1881   */\n      0x00\n        /* \"#utility.yul\":1905:1958   */\n      tag_296\n        /* \"#utility.yul\":1950:1957   */\n      dup5\n        /* \"#utility.yul\":1941:1947   */\n      dup3\n        /* \"#utility.yul\":1930:1939   */\n      dup6\n        /* \"#utility.yul\":1926:1948   */\n      add\n        /* \"#utility.yul\":1905:1958   */\n      tag_276\n      jump\t// in\n    tag_296:\n        /* \"#utility.yul\":1895:1958   */\n      swap2\n      pop\n        /* \"#utility.yul\":1851:1968   */\n      pop\n        /* \"#utility.yul\":1646:1975   */\n      swap3\n      swap2\n      pop\n      pop\n      jump\t// out\n        /* \"#utility.yul\":1981:2123   */\n    tag_297:\n        /* \"#utility.yul\":2084:2116   */\n      tag_299\n        /* \"#utility.yul\":2110:2115   */\n      dup2\n        /* \"#utility.yul\":2084:2116   */\n      tag_300\n      jump\t// in\n    tag_299:\n        /* \"#utility.yul\":2079:2082   */\n      dup3\n        /* \"#utility.yul\":2072:2117   */\n      mstore\n        /* \"#utility.yul\":1981:2123   */\n      pop\n      pop\n      jump\t// out\n        /* \"#utility.yul\":2129:2247   */\n    tag_301:\n        /* \"#utility.yul\":2216:2240   */\n      tag_303\n        /* \"#utility.yul\":2234:2239   */\n      dup2\n        /* \"#utility.yul\":2216:2240   */\n      tag_304\n      jump\t// in\n    tag_303:\n        /* \"#utility.yul\":2211:2214   */\n      dup3\n        /* \"#utility.yul\":2204:2241   */\n      mstore\n        /* \"#utility.yul\":2129:2247   */\n      pop\n      pop\n      jump\t// out\n        /* \"#utility.yul\":2253:2410   */\n    tag_305:\n        /* \"#utility.yul\":2358:2403   */\n      tag_307\n        /* \"#utility.yul\":2378:2402   */\n      tag_308\n        /* \"#utility.yul\":2396:2401   */\n      dup3\n        /* \"#utility.yul\":2378:2402   */\n      tag_304\n      jump\t// in\n    tag_308:\n        /* \"#utility.yul\":2358:2403   */\n      tag_309\n      jump\t// in\n    tag_307:\n        /* \"#utility.yul\":2353:2356   */\n      dup3\n        /* \"#utility.yul\":2346:2404   */\n      mstore\n        /* \"#utility.yul\":2253:2410   */\n      pop\n      pop\n      jump\t// out\n        /* \"#utility.yul\":2416:2525   */\n    tag_310:\n        /* \"#utility.yul\":2497:2518   */\n      tag_312\n        /* \"#utility.yul\":2512:2517   */\n      dup2\n        /* \"#utility.yul\":2497:2518   */\n      tag_313\n      jump\t// in\n    tag_312:\n        /* \"#utility.yul\":2492:2495   */\n      dup3\n        /* \"#utility.yul\":2485:2519   */\n      mstore\n        /* \"#utility.yul\":2416:2525   */\n      pop\n      pop\n      jump\t// out\n        /* \"#utility.yul\":2531:2891   */\n    tag_314:\n        /* \"#utility.yul\":2617:2620   */\n      0x00\n        /* \"#utility.yul\":2645:2683   */\n      tag_316\n        /* \"#utility.yul\":2677:2682   */\n      dup3\n        /* \"#utility.yul\":2645:2683   */\n      tag_317\n      jump\t// in\n    tag_316:\n        /* \"#utility.yul\":2699:2769   */\n      tag_318\n        /* \"#utility.yul\":2762:2768   */\n      dup2\n        /* \"#utility.yul\":2757:2760   */\n      dup6\n        /* \"#utility.yul\":2699:2769   */\n      tag_319\n      jump\t// in\n    tag_318:\n        /* \"#utility.yul\":2692:2769   */\n      swap4\n      pop\n        /* \"#utility.yul\":2778:2830   */\n      tag_320\n        /* \"#utility.yul\":2823:2829   */\n      dup2\n        /* \"#utility.yul\":2818:2821   */\n      dup6\n        /* \"#utility.yul\":2811:2815   */\n      0x20\n        /* \"#utility.yul\":2804:2809   */\n      dup7\n        /* \"#utility.yul\":2800:2816   */\n      add\n        /* \"#utility.yul\":2778:2830   */\n      tag_321\n      jump\t// in\n    tag_320:\n        /* \"#utility.yul\":2855:2884   */\n      tag_322\n        /* \"#utility.yul\":2877:2883   */\n      dup2\n        /* \"#utility.yul\":2855:2884   */\n      tag_323\n      jump\t// in\n    tag_322:\n        /* \"#utility.yul\":2850:2853   */\n      dup5\n        /* \"#utility.yul\":2846:2885   */\n      add\n        /* \"#utility.yul\":2839:2885   */\n      swap2\n      pop\n        /* \"#utility.yul\":2621:2891   */\n      pop\n        /* \"#utility.yul\":2531:2891   */\n      swap3\n      swap2\n      pop\n      pop\n      jump\t// out\n        /* \"#utility.yul\":2897:3261   */\n    tag_324:\n        /* \"#utility.yul\":2985:2988   */\n      0x00\n        /* \"#utility.yul\":3013:3052   */\n      tag_326\n        /* \"#utility.yul\":3046:3051   */\n      dup3\n        /* \"#utility.yul\":3013:3052   */\n      tag_327\n      jump\t// in\n    tag_326:\n        /* \"#utility.yul\":3068:3139   */\n      tag_328\n        /* \"#utility.yul\":3132:3138   */\n      dup2\n        /* \"#utility.yul\":3127:3130   */\n      dup6\n        /* \"#utility.yul\":3068:3139   */\n      tag_329\n      jump\t// in\n    tag_328:\n        /* \"#utility.yul\":3061:3139   */\n      swap4\n      pop\n        /* \"#utility.yul\":3148:3200   */\n      tag_330\n        /* \"#utility.yul\":3193:3199   */\n      dup2\n        /* \"#utility.yul\":3188:3191   */\n      dup6\n        /* \"#utility.yul\":3181:3185   */\n      0x20\n        /* \"#utility.yul\":3174:3179   */\n      dup7\n        /* \"#utility.yul\":3170:3186   */\n      add\n        /* \"#utility.yul\":3148:3200   */\n      tag_321\n      jump\t// in\n    tag_330:\n        /* \"#utility.yul\":3225:3254   */\n      tag_331\n        /* \"#utility.yul\":3247:3253   */\n      dup2\n        /* \"#utility.yul\":3225:3254   */\n      tag_323\n      jump\t// in\n    tag_331:\n        /* \"#utility.yul\":3220:3223   */\n      dup5\n        /* \"#utility.yul\":3216:3255   */\n      add\n        /* \"#utility.yul\":3209:3255   */\n      swap2\n      pop\n        /* \"#utility.yul\":2989:3261   */\n      pop\n        /* \"#utility.yul\":2897:3261   */\n      swap3\n      swap2\n      pop\n      pop\n      jump\t// out\n        /* \"#utility.yul\":3267:3633   */\n    tag_332:\n        /* \"#utility.yul\":3409:3412   */\n      0x00\n        /* \"#utility.yul\":3430:3497   */\n      tag_334\n        /* \"#utility.yul\":3494:3496   */\n      0x34\n        /* \"#utility.yul\":3489:3492   */\n      dup4\n        /* \"#utility.yul\":3430:3497   */\n      tag_329\n      jump\t// in\n    tag_334:\n        /* \"#utility.yul\":3423:3497   */\n      swap2\n      pop\n        /* \"#utility.yul\":3506:3599   */\n      tag_335\n        /* \"#utility.yul\":3595:3598   */\n      dup3\n        /* \"#utility.yul\":3506:3599   */\n      tag_336\n      jump\t// in\n    tag_335:\n        /* \"#utility.yul\":3624:3626   */\n      0x40\n        /* \"#utility.yul\":3619:3622   */\n      dup3\n        /* \"#utility.yul\":3615:3627   */\n      add\n        /* \"#utility.yul\":3608:3627   */\n      swap1\n      pop\n        /* \"#utility.yul\":3267:3633   */\n      swap2\n      swap1\n      pop\n      jump\t// out\n        /* \"#utility.yul\":3639:4005   */\n    tag_337:\n        /* \"#utility.yul\":3781:3784   */\n      0x00\n        /* \"#utility.yul\":3802:3869   */\n      tag_339\n        /* \"#utility.yul\":3866:3868   */\n      0x28\n        /* \"#utility.yul\":3861:3864   */\n      dup4\n        /* \"#utility.yul\":3802:3869   */\n      tag_329\n      jump\t// in\n    tag_339:\n        /* \"#utility.yul\":3795:3869   */\n      swap2\n      pop\n        /* \"#utility.yul\":3878:3971   */\n      tag_340\n        /* \"#utility.yul\":3967:3970   */\n      dup3\n        /* \"#utility.yul\":3878:3971   */\n      tag_341\n      jump\t// in\n    tag_340:\n        /* \"#utility.yul\":3996:3998   */\n      0x40\n        /* \"#utility.yul\":3991:3994   */\n      dup3\n        /* \"#utility.yul\":3987:3999   */\n      add\n        /* \"#utility.yul\":3980:3999   */\n      swap1\n      pop\n        /* \"#utility.yul\":3639:4005   */\n      swap2\n      swap1\n      pop\n      jump\t// out\n        /* \"#utility.yul\":4011:4377   */\n    tag_342:\n        /* \"#utility.yul\":4153:4156   */\n      0x00\n        /* \"#utility.yul\":4174:4241   */\n      tag_344\n        /* \"#utility.yul\":4238:4240   */\n      0x19\n        /* \"#utility.yul\":4233:4236   */\n      dup4\n        /* \"#utility.yul\":4174:4241   */\n      tag_329\n      jump\t// in\n    tag_344:\n        /* \"#utility.yul\":4167:4241   */\n      swap2\n      pop\n        /* \"#utility.yul\":4250:4343   */\n      tag_345\n        /* \"#utility.yul\":4339:4342   */\n      dup3\n        /* \"#utility.yul\":4250:4343   */\n      tag_346\n      jump\t// in\n    tag_345:\n        /* \"#utility.yul\":4368:4370   */\n      0x20\n        /* \"#utility.yul\":4363:4366   */\n      dup3\n        /* \"#utility.yul\":4359:4371   */\n      add\n        /* \"#utility.yul\":4352:4371   */\n      swap1\n      pop\n        /* \"#utility.yul\":4011:4377   */\n      swap2\n      swap1\n      pop\n      jump\t// out\n        /* \"#utility.yul\":4383:4749   */\n    tag_347:\n        /* \"#utility.yul\":4525:4528   */\n      0x00\n        /* \"#utility.yul\":4546:4613   */\n      tag_349\n        /* \"#utility.yul\":4610:4612   */\n      0x1b\n        /* \"#utility.yul\":4605:4608   */\n      dup4\n        /* \"#utility.yul\":4546:4613   */\n      tag_329\n      jump\t// in\n    tag_349:\n        /* \"#utility.yul\":4539:4613   */\n      swap2\n      pop\n        /* \"#utility.yul\":4622:4715   */\n      tag_350\n        /* \"#utility.yul\":4711:4714   */\n      dup3\n        /* \"#utility.yul\":4622:4715   */\n      tag_351\n      jump\t// in\n    tag_350:\n        /* \"#utility.yul\":4740:4742   */\n      0x20\n        /* \"#utility.yul\":4735:4738   */\n      dup3\n        /* \"#utility.yul\":4731:4743   */\n      add\n        /* \"#utility.yul\":4724:4743   */\n      swap1\n      pop\n        /* \"#utility.yul\":4383:4749   */\n      swap2\n      swap1\n      pop\n      jump\t// out\n        /* \"#utility.yul\":4755:5121   */\n    tag_352:\n        /* \"#utility.yul\":4897:4900   */\n      0x00\n        /* \"#utility.yul\":4918:4985   */\n      tag_354\n        /* \"#utility.yul\":4982:4984   */\n      0x1b\n        /* \"#utility.yul\":4977:4980   */\n      dup4\n        /* \"#utility.yul\":4918:4985   */\n      tag_329\n      jump\t// in\n    tag_354:\n        /* \"#utility.yul\":4911:4985   */\n      swap2\n      pop\n        /* \"#utility.yul\":4994:5087   */\n      tag_355\n        /* \"#utility.yul\":5083:5086   */\n      dup3\n        /* \"#utility.yul\":4994:5087   */\n      tag_356\n      jump\t// in\n    tag_355:\n        /* \"#utility.yul\":5112:5114   */\n      0x20\n        /* \"#utility.yul\":5107:5110   */\n      dup3\n        /* \"#utility.yul\":5103:5115   */\n      add\n        /* \"#utility.yul\":5096:5115   */\n      swap1\n      pop\n        /* \"#utility.yul\":4755:5121   */\n      swap2\n      swap1\n      pop\n      jump\t// out\n        /* \"#utility.yul\":5127:5493   */\n    tag_357:\n        /* \"#utility.yul\":5269:5272   */\n      0x00\n        /* \"#utility.yul\":5290:5357   */\n      tag_359\n        /* \"#utility.yul\":5354:5356   */\n      0x12\n        /* \"#utility.yul\":5349:5352   */\n      dup4\n        /* \"#utility.yul\":5290:5357   */\n      tag_329\n      jump\t// in\n    tag_359:\n        /* \"#utility.yul\":5283:5357   */\n      swap2\n      pop\n        /* \"#utility.yul\":5366:5459   */\n      tag_360\n        /* \"#utility.yul\":5455:5458   */\n      dup3\n        /* \"#utility.yul\":5366:5459   */\n      tag_361\n      jump\t// in\n    tag_360:\n        /* \"#utility.yul\":5484:5486   */\n      0x20\n        /* \"#utility.yul\":5479:5482   */\n      dup3\n        /* \"#utility.yul\":5475:5487   */\n      add\n        /* \"#utility.yul\":5468:5487   */\n      swap1\n      pop\n        /* \"#utility.yul\":5127:5493   */\n      swap2\n      swap1\n      pop\n      jump\t// out\n        /* \"#utility.yul\":5499:5865   */\n    tag_362:\n        /* \"#utility.yul\":5641:5644   */\n      0x00\n        /* \"#utility.yul\":5662:5729   */\n      tag_364\n        /* \"#utility.yul\":5726:5728   */\n      0x1c\n        /* \"#utility.yul\":5721:5724   */\n      dup4\n        /* \"#utility.yul\":5662:5729   */\n      tag_329\n      jump\t// in\n    tag_364:\n        /* \"#utility.yul\":5655:5729   */\n      swap2\n      pop\n        /* \"#utility.yul\":5738:5831   */\n      tag_365\n        /* \"#utility.yul\":5827:5830   */\n      dup3\n        /* \"#utility.yul\":5738:5831   */\n      tag_366\n      jump\t// in\n    tag_365:\n        /* \"#utility.yul\":5856:5858   */\n      0x20\n        /* \"#utility.yul\":5851:5854   */\n      dup3\n        /* \"#utility.yul\":5847:5859   */\n      add\n        /* \"#utility.yul\":5840:5859   */\n      swap1\n      pop\n        /* \"#utility.yul\":5499:5865   */\n      swap2\n      swap1\n      pop\n      jump\t// out\n        /* \"#utility.yul\":5871:6237   */\n    tag_367:\n        /* \"#utility.yul\":6013:6016   */\n      0x00\n        /* \"#utility.yul\":6034:6101   */\n      tag_369\n        /* \"#utility.yul\":6098:6100   */\n      0x1b\n        /* \"#utility.yul\":6093:6096   */\n      dup4\n        /* \"#utility.yul\":6034:6101   */\n      tag_329\n      jump\t// in\n    tag_369:\n        /* \"#utility.yul\":6027:6101   */\n      swap2\n      pop\n        /* \"#utility.yul\":6110:6203   */\n      tag_370\n        /* \"#utility.yul\":6199:6202   */\n      dup3\n        /* \"#utility.yul\":6110:6203   */\n      tag_371\n      jump\t// in\n    tag_370:\n        /* \"#utility.yul\":6228:6230   */\n      0x20\n        /* \"#utility.yul\":6223:6226   */\n      dup3\n        /* \"#utility.yul\":6219:6231   */\n      add\n        /* \"#utility.yul\":6212:6231   */\n      swap1\n      pop\n        /* \"#utility.yul\":5871:6237   */\n      swap2\n      swap1\n      pop\n      jump\t// out\n        /* \"#utility.yul\":6243:6609   */\n    tag_372:\n        /* \"#utility.yul\":6385:6388   */\n      0x00\n        /* \"#utility.yul\":6406:6473   */\n      tag_374\n        /* \"#utility.yul\":6470:6472   */\n      0x19\n        /* \"#utility.yul\":6465:6468   */\n      dup4\n        /* \"#utility.yul\":6406:6473   */\n      tag_329\n      jump\t// in\n    tag_374:\n        /* \"#utility.yul\":6399:6473   */\n      swap2\n      pop\n        /* \"#utility.yul\":6482:6575   */\n      tag_375\n        /* \"#utility.yul\":6571:6574   */\n      dup3\n        /* \"#utility.yul\":6482:6575   */\n      tag_376\n      jump\t// in\n    tag_375:\n        /* \"#utility.yul\":6600:6602   */\n      0x20\n        /* \"#utility.yul\":6595:6598   */\n      dup3\n        /* \"#utility.yul\":6591:6603   */\n      add\n        /* \"#utility.yul\":6584:6603   */\n      swap1\n      pop\n        /* \"#utility.yul\":6243:6609   */\n      swap2\n      swap1\n      pop\n      jump\t// out\n        /* \"#utility.yul\":6615:6981   */\n    tag_377:\n        /* \"#utility.yul\":6757:6760   */\n      0x00\n        /* \"#utility.yul\":6778:6845   */\n      tag_379\n        /* \"#utility.yul\":6842:6844   */\n      0x1d\n        /* \"#utility.yul\":6837:6840   */\n      dup4\n        /* \"#utility.yul\":6778:6845   */\n      tag_329\n      jump\t// in\n    tag_379:\n        /* \"#utility.yul\":6771:6845   */\n      swap2\n      pop\n        /* \"#utility.yul\":6854:6947   */\n      tag_380\n        /* \"#utility.yul\":6943:6946   */\n      dup3\n        /* \"#utility.yul\":6854:6947   */\n      tag_381\n      jump\t// in\n    tag_380:\n        /* \"#utility.yul\":6972:6974   */\n      0x20\n        /* \"#utility.yul\":6967:6970   */\n      dup3\n        /* \"#utility.yul\":6963:6975   */\n      add\n        /* \"#utility.yul\":6956:6975   */\n      swap1\n      pop\n        /* \"#utility.yul\":6615:6981   */\n      swap2\n      swap1\n      pop\n      jump\t// out\n        /* \"#utility.yul\":6987:7353   */\n    tag_382:\n        /* \"#utility.yul\":7129:7132   */\n      0x00\n        /* \"#utility.yul\":7150:7217   */\n      tag_384\n        /* \"#utility.yul\":7214:7216   */\n      0x21\n        /* \"#utility.yul\":7209:7212   */\n      dup4\n        /* \"#utility.yul\":7150:7217   */\n      tag_329\n      jump\t// in\n    tag_384:\n        /* \"#utility.yul\":7143:7217   */\n      swap2\n      pop\n        /* \"#utility.yul\":7226:7319   */\n      tag_385\n        /* \"#utility.yul\":7315:7318   */\n      dup3\n        /* \"#utility.yul\":7226:7319   */\n      tag_386\n      jump\t// in\n    tag_385:\n        /* \"#utility.yul\":7344:7346   */\n      0x40\n        /* \"#utility.yul\":7339:7342   */\n      dup3\n        /* \"#utility.yul\":7335:7347   */\n      add\n        /* \"#utility.yul\":7328:7347   */\n      swap1\n      pop\n        /* \"#utility.yul\":6987:7353   */\n      swap2\n      swap1\n      pop\n      jump\t// out\n        /* \"#utility.yul\":7359:7477   */\n    tag_387:\n        /* \"#utility.yul\":7446:7470   */\n      tag_389\n        /* \"#utility.yul\":7464:7469   */\n      dup2\n        /* \"#utility.yul\":7446:7470   */\n      tag_390\n      jump\t// in\n    tag_389:\n        /* \"#utility.yul\":7441:7444   */\n      dup3\n        /* \"#utility.yul\":7434:7471   */\n      mstore\n        /* \"#utility.yul\":7359:7477   */\n      pop\n      pop\n      jump\t// out\n        /* \"#utility.yul\":7483:7640   */\n    tag_391:\n        /* \"#utility.yul\":7588:7633   */\n      tag_393\n        /* \"#utility.yul\":7608:7632   */\n      tag_394\n        /* \"#utility.yul\":7626:7631   */\n      dup3\n        /* \"#utility.yul\":7608:7632   */\n      tag_390\n      jump\t// in\n    tag_394:\n        /* \"#utility.yul\":7588:7633   */\n      tag_395\n      jump\t// in\n    tag_393:\n        /* \"#utility.yul\":7583:7586   */\n      dup3\n        /* \"#utility.yul\":7576:7634   */\n      mstore\n        /* \"#utility.yul\":7483:7640   */\n      pop\n      pop\n      jump\t// out\n        /* \"#utility.yul\":7646:7758   */\n    tag_396:\n        /* \"#utility.yul\":7729:7751   */\n      tag_398\n        /* \"#utility.yul\":7745:7750   */\n      dup2\n        /* \"#utility.yul\":7729:7751   */\n      tag_399\n      jump\t// in\n    tag_398:\n        /* \"#utility.yul\":7724:7727   */\n      dup3\n        /* \"#utility.yul\":7717:7752   */\n      mstore\n        /* \"#utility.yul\":7646:7758   */\n      pop\n      pop\n      jump\t// out\n        /* \"#utility.yul\":7764:8161   */\n    tag_214:\n        /* \"#utility.yul\":7904:7907   */\n      0x00\n        /* \"#utility.yul\":7919:7994   */\n      tag_401\n        /* \"#utility.yul\":7990:7993   */\n      dup3\n        /* \"#utility.yul\":7981:7987   */\n      dup6\n        /* \"#utility.yul\":7919:7994   */\n      tag_391\n      jump\t// in\n    tag_401:\n        /* \"#utility.yul\":8019:8021   */\n      0x20\n        /* \"#utility.yul\":8014:8017   */\n      dup3\n        /* \"#utility.yul\":8010:8022   */\n      add\n        /* \"#utility.yul\":8003:8022   */\n      swap2\n      pop\n        /* \"#utility.yul\":8032:8107   */\n      tag_402\n        /* \"#utility.yul\":8103:8106   */\n      dup3\n        /* \"#utility.yul\":8094:8100   */\n      dup5\n        /* \"#utility.yul\":8032:8107   */\n      tag_305\n      jump\t// in\n    tag_402:\n        /* \"#utility.yul\":8132:8134   */\n      0x14\n        /* \"#utility.yul\":8127:8130   */\n      dup3\n        /* \"#utility.yul\":8123:8135   */\n      add\n        /* \"#utility.yul\":8116:8135   */\n      swap2\n      pop\n        /* \"#utility.yul\":8152:8155   */\n      dup2\n        /* \"#utility.yul\":8145:8155   */\n      swap1\n      pop\n        /* \"#utility.yul\":7764:8161   */\n      swap4\n      swap3\n      pop\n      pop\n      pop\n      jump\t// out\n        /* \"#utility.yul\":8167:8421   */\n    tag_53:\n        /* \"#utility.yul\":8276:8280   */\n      0x00\n        /* \"#utility.yul\":8314:8316   */\n      0x20\n        /* \"#utility.yul\":8303:8312   */\n      dup3\n        /* \"#utility.yul\":8299:8317   */\n      add\n        /* \"#utility.yul\":8291:8317   */\n      swap1\n      pop\n        /* \"#utility.yul\":8327:8414   */\n      tag_404\n        /* \"#utility.yul\":8411:8412   */\n      0x00\n        /* \"#utility.yul\":8400:8409   */\n      dup4\n        /* \"#utility.yul\":8396:8413   */\n      add\n        /* \"#utility.yul\":8387:8393   */\n      dup5\n        /* \"#utility.yul\":8327:8414   */\n      tag_297\n      jump\t// in\n    tag_404:\n        /* \"#utility.yul\":8167:8421   */\n      swap3\n      swap2\n      pop\n      pop\n      jump\t// out\n        /* \"#utility.yul\":8427:9178   */\n    tag_230:\n        /* \"#utility.yul\":8650:8654   */\n      0x00\n        /* \"#utility.yul\":8688:8691   */\n      0xa0\n        /* \"#utility.yul\":8677:8686   */\n      dup3\n        /* \"#utility.yul\":8673:8692   */\n      add\n        /* \"#utility.yul\":8665:8692   */\n      swap1\n      pop\n        /* \"#utility.yul\":8702:8773   */\n      tag_406\n        /* \"#utility.yul\":8770:8771   */\n      0x00\n        /* \"#utility.yul\":8759:8768   */\n      dup4\n        /* \"#utility.yul\":8755:8772   */\n      add\n        /* \"#utility.yul\":8746:8752   */\n      dup9\n        /* \"#utility.yul\":8702:8773   */\n      tag_301\n      jump\t// in\n    tag_406:\n        /* \"#utility.yul\":8783:8855   */\n      tag_407\n        /* \"#utility.yul\":8851:8853   */\n      0x20\n        /* \"#utility.yul\":8840:8849   */\n      dup4\n        /* \"#utility.yul\":8836:8854   */\n      add\n        /* \"#utility.yul\":8827:8833   */\n      dup8\n        /* \"#utility.yul\":8783:8855   */\n      tag_301\n      jump\t// in\n    tag_407:\n        /* \"#utility.yul\":8865:8937   */\n      tag_408\n        /* \"#utility.yul\":8933:8935   */\n      0x40\n        /* \"#utility.yul\":8922:8931   */\n      dup4\n        /* \"#utility.yul\":8918:8936   */\n      add\n        /* \"#utility.yul\":8909:8915   */\n      dup7\n        /* \"#utility.yul\":8865:8937   */\n      tag_387\n      jump\t// in\n    tag_408:\n        /* \"#utility.yul\":8947:9019   */\n      tag_409\n        /* \"#utility.yul\":9015:9017   */\n      0x60\n        /* \"#utility.yul\":9004:9013   */\n      dup4\n        /* \"#utility.yul\":9000:9018   */\n      add\n        /* \"#utility.yul\":8991:8997   */\n      dup6\n        /* \"#utility.yul\":8947:9019   */\n      tag_387\n      jump\t// in\n    tag_409:\n        /* \"#utility.yul\":9067:9076   */\n      dup2\n        /* \"#utility.yul\":9061:9065   */\n      dup2\n        /* \"#utility.yul\":9057:9077   */\n      sub\n        /* \"#utility.yul\":9051:9054   */\n      0x80\n        /* \"#utility.yul\":9040:9049   */\n      dup4\n        /* \"#utility.yul\":9036:9055   */\n      add\n        /* \"#utility.yul\":9029:9078   */\n      mstore\n        /* \"#utility.yul\":9095:9171   */\n      tag_410\n        /* \"#utility.yul\":9166:9170   */\n      dup2\n        /* \"#utility.yul\":9157:9163   */\n      dup5\n        /* \"#utility.yul\":9095:9171   */\n      tag_314\n      jump\t// in\n    tag_410:\n        /* \"#utility.yul\":9087:9171   */\n      swap1\n      pop\n        /* \"#utility.yul\":8427:9178   */\n      swap7\n      swap6\n      pop\n      pop\n      pop\n      pop\n      pop\n      pop\n      jump\t// out\n        /* \"#utility.yul\":9184:9394   */\n    tag_27:\n        /* \"#utility.yul\":9271:9275   */\n      0x00\n        /* \"#utility.yul\":9309:9311   */\n      0x20\n        /* \"#utility.yul\":9298:9307   */\n      dup3\n        /* \"#utility.yul\":9294:9312   */\n      add\n        /* \"#utility.yul\":9286:9312   */\n      swap1\n      pop\n        /* \"#utility.yul\":9322:9387   */\n      tag_412\n        /* \"#utility.yul\":9384:9385   */\n      0x00\n        /* \"#utility.yul\":9373:9382   */\n      dup4\n        /* \"#utility.yul\":9369:9386   */\n      add\n        /* \"#utility.yul\":9360:9366   */\n      dup5\n        /* \"#utility.yul\":9322:9387   */\n      tag_310\n      jump\t// in\n    tag_412:\n        /* \"#utility.yul\":9184:9394   */\n      swap3\n      swap2\n      pop\n      pop\n      jump\t// out\n        /* \"#utility.yul\":9400:9713   */\n    tag_245:\n        /* \"#utility.yul\":9513:9517   */\n      0x00\n        /* \"#utility.yul\":9551:9553   */\n      0x20\n        /* \"#utility.yul\":9540:9549   */\n      dup3\n        /* \"#utility.yul\":9536:9554   */\n      add\n        /* \"#utility.yul\":9528:9554   */\n      swap1\n      pop\n        /* \"#utility.yul\":9600:9609   */\n      dup2\n        /* \"#utility.yul\":9594:9598   */\n      dup2\n        /* \"#utility.yul\":9590:9610   */\n      sub\n        /* \"#utility.yul\":9586:9587   */\n      0x00\n        /* \"#utility.yul\":9575:9584   */\n      dup4\n        /* \"#utility.yul\":9571:9588   */\n      add\n        /* \"#utility.yul\":9564:9611   */\n      mstore\n        /* \"#utility.yul\":9628:9706   */\n      tag_414\n        /* \"#utility.yul\":9701:9705   */\n      dup2\n        /* \"#utility.yul\":9692:9698   */\n      dup5\n        /* \"#utility.yul\":9628:9706   */\n      tag_324\n      jump\t// in\n    tag_414:\n        /* \"#utility.yul\":9620:9706   */\n      swap1\n      pop\n        /* \"#utility.yul\":9400:9713   */\n      swap3\n      swap2\n      pop\n      pop\n      jump\t// out\n        /* \"#utility.yul\":9719:10138   */\n    tag_247:\n        /* \"#utility.yul\":9885:9889   */\n      0x00\n        /* \"#utility.yul\":9923:9925   */\n      0x20\n        /* \"#utility.yul\":9912:9921   */\n      dup3\n        /* \"#utility.yul\":9908:9926   */\n      add\n        /* \"#utility.yul\":9900:9926   */\n      swap1\n      pop\n        /* \"#utility.yul\":9972:9981   */\n      dup2\n        /* \"#utility.yul\":9966:9970   */\n      dup2\n        /* \"#utility.yul\":9962:9982   */\n      sub\n        /* \"#utility.yul\":9958:9959   */\n      0x00\n        /* \"#utility.yul\":9947:9956   */\n      dup4\n        /* \"#utility.yul\":9943:9960   */\n      add\n        /* \"#utility.yul\":9936:9983   */\n      mstore\n        /* \"#utility.yul\":10000:10131   */\n      tag_416\n        /* \"#utility.yul\":10126:10130   */\n      dup2\n        /* \"#utility.yul\":10000:10131   */\n      tag_332\n      jump\t// in\n    tag_416:\n        /* \"#utility.yul\":9992:10131   */\n      swap1\n      pop\n        /* \"#utility.yul\":9719:10138   */\n      swap2\n      swap1\n      pop\n      jump\t// out\n        /* \"#utility.yul\":10144:10563   */\n    tag_251:\n        /* \"#utility.yul\":10310:10314   */\n      0x00\n        /* \"#utility.yul\":10348:10350   */\n      0x20\n        /* \"#utility.yul\":10337:10346   */\n      dup3\n        /* \"#utility.yul\":10333:10351   */\n      add\n        /* \"#utility.yul\":10325:10351   */\n      swap1\n      pop\n        /* \"#utility.yul\":10397:10406   */\n      dup2\n        /* \"#utility.yul\":10391:10395   */\n      dup2\n        /* \"#utility.yul\":10387:10407   */\n      sub\n        /* \"#utility.yul\":10383:10384   */\n      0x00\n        /* \"#utility.yul\":10372:10381   */\n      dup4\n        /* \"#utility.yul\":10368:10385   */\n      add\n        /* \"#utility.yul\":10361:10408   */\n      mstore\n        /* \"#utility.yul\":10425:10556   */\n      tag_418\n        /* \"#utility.yul\":10551:10555   */\n      dup2\n        /* \"#utility.yul\":10425:10556   */\n      tag_337\n      jump\t// in\n    tag_418:\n        /* \"#utility.yul\":10417:10556   */\n      swap1\n      pop\n        /* \"#utility.yul\":10144:10563   */\n      swap2\n      swap1\n      pop\n      jump\t// out\n        /* \"#utility.yul\":10569:10988   */\n    tag_106:\n        /* \"#utility.yul\":10735:10739   */\n      0x00\n        /* \"#utility.yul\":10773:10775   */\n      0x20\n        /* \"#utility.yul\":10762:10771   */\n      dup3\n        /* \"#utility.yul\":10758:10776   */\n      add\n        /* \"#utility.yul\":10750:10776   */\n      swap1\n      pop\n        /* \"#utility.yul\":10822:10831   */\n      dup2\n        /* \"#utility.yul\":10816:10820   */\n      dup2\n        /* \"#utility.yul\":10812:10832   */\n      sub\n        /* \"#utility.yul\":10808:10809   */\n      0x00\n        /* \"#utility.yul\":10797:10806   */\n      dup4\n        /* \"#utility.yul\":10793:10810   */\n      add\n        /* \"#utility.yul\":10786:10833   */\n      mstore\n        /* \"#utility.yul\":10850:10981   */\n      tag_420\n        /* \"#utility.yul\":10976:10980   */\n      dup2\n        /* \"#utility.yul\":10850:10981   */\n      tag_342\n      jump\t// in\n    tag_420:\n        /* \"#utility.yul\":10842:10981   */\n      swap1\n      pop\n        /* \"#utility.yul\":10569:10988   */\n      swap2\n      swap1\n      pop\n      jump\t// out\n        /* \"#utility.yul\":10994:11413   */\n    tag_90:\n        /* \"#utility.yul\":11160:11164   */\n      0x00\n        /* \"#utility.yul\":11198:11200   */\n      0x20\n        /* \"#utility.yul\":11187:11196   */\n      dup3\n        /* \"#utility.yul\":11183:11201   */\n      add\n        /* \"#utility.yul\":11175:11201   */\n      swap1\n      pop\n        /* \"#utility.yul\":11247:11256   */\n      dup2\n        /* \"#utility.yul\":11241:11245   */\n      dup2\n        /* \"#utility.yul\":11237:11257   */\n      sub\n        /* \"#utility.yul\":11233:11234   */\n      0x00\n        /* \"#utility.yul\":11222:11231   */\n      dup4\n        /* \"#utility.yul\":11218:11235   */\n      add\n        /* \"#utility.yul\":11211:11258   */\n      mstore\n        /* \"#utility.yul\":11275:11406   */\n      tag_422\n        /* \"#utility.yul\":11401:11405   */\n      dup2\n        /* \"#utility.yul\":11275:11406   */\n      tag_347\n      jump\t// in\n    tag_422:\n        /* \"#utility.yul\":11267:11406   */\n      swap1\n      pop\n        /* \"#utility.yul\":10994:11413   */\n      swap2\n      swap1\n      pop\n      jump\t// out\n        /* \"#utility.yul\":11419:11838   */\n    tag_139:\n        /* \"#utility.yul\":11585:11589   */\n      0x00\n        /* \"#utility.yul\":11623:11625   */\n      0x20\n        /* \"#utility.yul\":11612:11621   */\n      dup3\n        /* \"#utility.yul\":11608:11626   */\n      add\n        /* \"#utility.yul\":11600:11626   */\n      swap1\n      pop\n        /* \"#utility.yul\":11672:11681   */\n      dup2\n        /* \"#utility.yul\":11666:11670   */\n      dup2\n        /* \"#utility.yul\":11662:11682   */\n      sub\n        /* \"#utility.yul\":11658:11659   */\n      0x00\n        /* \"#utility.yul\":11647:11656   */\n      dup4\n        /* \"#utility.yul\":11643:11660   */\n      add\n        /* \"#utility.yul\":11636:11683   */\n      mstore\n        /* \"#utility.yul\":11700:11831   */\n      tag_424\n        /* \"#utility.yul\":11826:11830   */\n      dup2\n        /* \"#utility.yul\":11700:11831   */\n      tag_352\n      jump\t// in\n    tag_424:\n        /* \"#utility.yul\":11692:11831   */\n      swap1\n      pop\n        /* \"#utility.yul\":11419:11838   */\n      swap2\n      swap1\n      pop\n      jump\t// out\n        /* \"#utility.yul\":11844:12263   */\n    tag_193:\n        /* \"#utility.yul\":12010:12014   */\n      0x00\n        /* \"#utility.yul\":12048:12050   */\n      0x20\n        /* \"#utility.yul\":12037:12046   */\n      dup3\n        /* \"#utility.yul\":12033:12051   */\n      add\n        /* \"#utility.yul\":12025:12051   */\n      swap1\n      pop\n        /* \"#utility.yul\":12097:12106   */\n      dup2\n        /* \"#utility.yul\":12091:12095   */\n      dup2\n        /* \"#utility.yul\":12087:12107   */\n      sub\n        /* \"#utility.yul\":12083:12084   */\n      0x00\n        /* \"#utility.yul\":12072:12081   */\n      dup4\n        /* \"#utility.yul\":12068:12085   */\n      add\n        /* \"#utility.yul\":12061:12108   */\n      mstore\n        /* \"#utility.yul\":12125:12256   */\n      tag_426\n        /* \"#utility.yul\":12251:12255   */\n      dup2\n        /* \"#utility.yul\":12125:12256   */\n      tag_357\n      jump\t// in\n    tag_426:\n        /* \"#utility.yul\":12117:12256   */\n      swap1\n      pop\n        /* \"#utility.yul\":11844:12263   */\n      swap2\n      swap1\n      pop\n      jump\t// out\n        /* \"#utility.yul\":12269:12688   */\n    tag_71:\n        /* \"#utility.yul\":12435:12439   */\n      0x00\n        /* \"#utility.yul\":12473:12475   */\n      0x20\n        /* \"#utility.yul\":12462:12471   */\n      dup3\n        /* \"#utility.yul\":12458:12476   */\n      add\n        /* \"#utility.yul\":12450:12476   */\n      swap1\n      pop\n        /* \"#utility.yul\":12522:12531   */\n      dup2\n        /* \"#utility.yul\":12516:12520   */\n      dup2\n        /* \"#utility.yul\":12512:12532   */\n      sub\n        /* \"#utility.yul\":12508:12509   */\n      0x00\n        /* \"#utility.yul\":12497:12506   */\n      dup4\n        /* \"#utility.yul\":12493:12510   */\n      add\n        /* \"#utility.yul\":12486:12533   */\n      mstore\n        /* \"#utility.yul\":12550:12681   */\n      tag_428\n        /* \"#utility.yul\":12676:12680   */\n      dup2\n        /* \"#utility.yul\":12550:12681   */\n      tag_362\n      jump\t// in\n    tag_428:\n        /* \"#utility.yul\":12542:12681   */\n      swap1\n      pop\n        /* \"#utility.yul\":12269:12688   */\n      swap2\n      swap1\n      pop\n      jump\t// out\n        /* \"#utility.yul\":12694:13113   */\n    tag_99:\n        /* \"#utility.yul\":12860:12864   */\n      0x00\n        /* \"#utility.yul\":12898:12900   */\n      0x20\n        /* \"#utility.yul\":12887:12896   */\n      dup3\n        /* \"#utility.yul\":12883:12901   */\n      add\n        /* \"#utility.yul\":12875:12901   */\n      swap1\n      pop\n        /* \"#utility.yul\":12947:12956   */\n      dup2\n        /* \"#utility.yul\":12941:12945   */\n      dup2\n        /* \"#utility.yul\":12937:12957   */\n      sub\n        /* \"#utility.yul\":12933:12934   */\n      0x00\n        /* \"#utility.yul\":12922:12931   */\n      dup4\n        /* \"#utility.yul\":12918:12935   */\n      add\n        /* \"#utility.yul\":12911:12958   */\n      mstore\n        /* \"#utility.yul\":12975:13106   */\n      tag_430\n        /* \"#utility.yul\":13101:13105   */\n      dup2\n        /* \"#utility.yul\":12975:13106   */\n      tag_367\n      jump\t// in\n    tag_430:\n        /* \"#utility.yul\":12967:13106   */\n      swap1\n      pop\n        /* \"#utility.yul\":12694:13113   */\n      swap2\n      swap1\n      pop\n      jump\t// out\n        /* \"#utility.yul\":13119:13538   */\n    tag_103:\n        /* \"#utility.yul\":13285:13289   */\n      0x00\n        /* \"#utility.yul\":13323:13325   */\n      0x20\n        /* \"#utility.yul\":13312:13321   */\n      dup3\n        /* \"#utility.yul\":13308:13326   */\n      add\n        /* \"#utility.yul\":13300:13326   */\n      swap1\n      pop\n        /* \"#utility.yul\":13372:13381   */\n      dup2\n        /* \"#utility.yul\":13366:13370   */\n      dup2\n        /* \"#utility.yul\":13362:13382   */\n      sub\n        /* \"#utility.yul\":13358:13359   */\n      0x00\n        /* \"#utility.yul\":13347:13356   */\n      dup4\n        /* \"#utility.yul\":13343:13360   */\n      add\n        /* \"#utility.yul\":13336:13383   */\n      mstore\n        /* \"#utility.yul\":13400:13531   */\n      tag_432\n        /* \"#utility.yul\":13526:13530   */\n      dup2\n        /* \"#utility.yul\":13400:13531   */\n      tag_372\n      jump\t// in\n    tag_432:\n        /* \"#utility.yul\":13392:13531   */\n      swap1\n      pop\n        /* \"#utility.yul\":13119:13538   */\n      swap2\n      swap1\n      pop\n      jump\t// out\n        /* \"#utility.yul\":13544:13963   */\n    tag_80:\n        /* \"#utility.yul\":13710:13714   */\n      0x00\n        /* \"#utility.yul\":13748:13750   */\n      0x20\n        /* \"#utility.yul\":13737:13746   */\n      dup3\n        /* \"#utility.yul\":13733:13751   */\n      add\n        /* \"#utility.yul\":13725:13751   */\n      swap1\n      pop\n        /* \"#utility.yul\":13797:13806   */\n      dup2\n        /* \"#utility.yul\":13791:13795   */\n      dup2\n        /* \"#utility.yul\":13787:13807   */\n      sub\n        /* \"#utility.yul\":13783:13784   */\n      0x00\n        /* \"#utility.yul\":13772:13781   */\n      dup4\n        /* \"#utility.yul\":13768:13785   */\n      add\n        /* \"#utility.yul\":13761:13808   */\n      mstore\n        /* \"#utility.yul\":13825:13956   */\n      tag_434\n        /* \"#utility.yul\":13951:13955   */\n      dup2\n        /* \"#utility.yul\":13825:13956   */\n      tag_377\n      jump\t// in\n    tag_434:\n        /* \"#utility.yul\":13817:13956   */\n      swap1\n      pop\n        /* \"#utility.yul\":13544:13963   */\n      swap2\n      swap1\n      pop\n      jump\t// out\n        /* \"#utility.yul\":13969:14388   */\n    tag_197:\n        /* \"#utility.yul\":14135:14139   */\n      0x00\n        /* \"#utility.yul\":14173:14175   */\n      0x20\n        /* \"#utility.yul\":14162:14171   */\n      dup3\n        /* \"#utility.yul\":14158:14176   */\n      add\n        /* \"#utility.yul\":14150:14176   */\n      swap1\n      pop\n        /* \"#utility.yul\":14222:14231   */\n      dup2\n        /* \"#utility.yul\":14216:14220   */\n      dup2\n        /* \"#utility.yul\":14212:14232   */\n      sub\n        /* \"#utility.yul\":14208:14209   */\n      0x00\n        /* \"#utility.yul\":14197:14206   */\n      dup4\n        /* \"#utility.yul\":14193:14210   */\n      add\n        /* \"#utility.yul\":14186:14233   */\n      mstore\n        /* \"#utility.yul\":14250:14381   */\n      tag_436\n        /* \"#utility.yul\":14376:14380   */\n      dup2\n        /* \"#utility.yul\":14250:14381   */\n      tag_382\n      jump\t// in\n    tag_436:\n        /* \"#utility.yul\":14242:14381   */\n      swap1\n      pop\n        /* \"#utility.yul\":13969:14388   */\n      swap2\n      swap1\n      pop\n      jump\t// out\n        /* \"#utility.yul\":14394:14616   */\n    tag_18:\n        /* \"#utility.yul\":14487:14491   */\n      0x00\n        /* \"#utility.yul\":14525:14527   */\n      0x20\n        /* \"#utility.yul\":14514:14523   */\n      dup3\n        /* \"#utility.yul\":14510:14528   */\n      add\n        /* \"#utility.yul\":14502:14528   */\n      swap1\n      pop\n        /* \"#utility.yul\":14538:14609   */\n      tag_438\n        /* \"#utility.yul\":14606:14607   */\n      0x00\n        /* \"#utility.yul\":14595:14604   */\n      dup4\n        /* \"#utility.yul\":14591:14608   */\n      add\n        /* \"#utility.yul\":14582:14588   */\n      dup5\n        /* \"#utility.yul\":14538:14609   */\n      tag_387\n      jump\t// in\n    tag_438:\n        /* \"#utility.yul\":14394:14616   */\n      swap3\n      swap2\n      pop\n      pop\n      jump\t// out\n        /* \"#utility.yul\":14622:15045   */\n    tag_40:\n        /* \"#utility.yul\":14763:14767   */\n      0x00\n        /* \"#utility.yul\":14801:14803   */\n      0x40\n        /* \"#utility.yul\":14790:14799   */\n      dup3\n        /* \"#utility.yul\":14786:14804   */\n      add\n        /* \"#utility.yul\":14778:14804   */\n      swap1\n      pop\n        /* \"#utility.yul\":14814:14885   */\n      tag_440\n        /* \"#utility.yul\":14882:14883   */\n      0x00\n        /* \"#utility.yul\":14871:14880   */\n      dup4\n        /* \"#utility.yul\":14867:14884   */\n      add\n        /* \"#utility.yul\":14858:14864   */\n      dup6\n        /* \"#utility.yul\":14814:14885   */\n      tag_387\n      jump\t// in\n    tag_440:\n        /* \"#utility.yul\":14932:14941   */\n      dup2\n        /* \"#utility.yul\":14926:14930   */\n      dup2\n        /* \"#utility.yul\":14922:14942   */\n      sub\n        /* \"#utility.yul\":14917:14919   */\n      0x20\n        /* \"#utility.yul\":14906:14915   */\n      dup4\n        /* \"#utility.yul\":14902:14920   */\n      add\n        /* \"#utility.yul\":14895:14943   */\n      mstore\n        /* \"#utility.yul\":14960:15038   */\n      tag_441\n        /* \"#utility.yul\":15033:15037   */\n      dup2\n        /* \"#utility.yul\":15024:15030   */\n      dup5\n        /* \"#utility.yul\":14960:15038   */\n      tag_324\n      jump\t// in\n    tag_441:\n        /* \"#utility.yul\":14952:15038   */\n      swap1\n      pop\n        /* \"#utility.yul\":14622:15045   */\n      swap4\n      swap3\n      pop\n      pop\n      pop\n      jump\t// out\n        /* \"#utility.yul\":15051:15383   */\n    tag_207:\n        /* \"#utility.yul\":15172:15176   */\n      0x00\n        /* \"#utility.yul\":15210:15212   */\n      0x40\n        /* \"#utility.yul\":15199:15208   */\n      dup3\n        /* \"#utility.yul\":15195:15213   */\n      add\n        /* \"#utility.yul\":15187:15213   */\n      swap1\n      pop\n        /* \"#utility.yul\":15223:15294   */\n      tag_443\n        /* \"#utility.yul\":15291:15292   */\n      0x00\n        /* \"#utility.yul\":15280:15289   */\n      dup4\n        /* \"#utility.yul\":15276:15293   */\n      add\n        /* \"#utility.yul\":15267:15273   */\n      dup6\n        /* \"#utility.yul\":15223:15294   */\n      tag_387\n      jump\t// in\n    tag_443:\n        /* \"#utility.yul\":15304:15376   */\n      tag_444\n        /* \"#utility.yul\":15372:15374   */\n      0x20\n        /* \"#utility.yul\":15361:15370   */\n      dup4\n        /* \"#utility.yul\":15357:15375   */\n      add\n        /* \"#utility.yul\":15348:15354   */\n      dup5\n        /* \"#utility.yul\":15304:15376   */\n      tag_387\n      jump\t// in\n    tag_444:\n        /* \"#utility.yul\":15051:15383   */\n      swap4\n      swap3\n      pop\n      pop\n      pop\n      jump\t// out\n        /* \"#utility.yul\":15389:15831   */\n    tag_45:\n        /* \"#utility.yul\":15538:15542   */\n      0x00\n        /* \"#utility.yul\":15576:15578   */\n      0x60\n        /* \"#utility.yul\":15565:15574   */\n      dup3\n        /* \"#utility.yul\":15561:15579   */\n      add\n        /* \"#utility.yul\":15553:15579   */\n      swap1\n      pop\n        /* \"#utility.yul\":15589:15660   */\n      tag_446\n        /* \"#utility.yul\":15657:15658   */\n      0x00\n        /* \"#utility.yul\":15646:15655   */\n      dup4\n        /* \"#utility.yul\":15642:15659   */\n      add\n        /* \"#utility.yul\":15633:15639   */\n      dup7\n        /* \"#utility.yul\":15589:15660   */\n      tag_387\n      jump\t// in\n    tag_446:\n        /* \"#utility.yul\":15670:15742   */\n      tag_447\n        /* \"#utility.yul\":15738:15740   */\n      0x20\n        /* \"#utility.yul\":15727:15736   */\n      dup4\n        /* \"#utility.yul\":15723:15741   */\n      add\n        /* \"#utility.yul\":15714:15720   */\n      dup6\n        /* \"#utility.yul\":15670:15742   */\n      tag_387\n      jump\t// in\n    tag_447:\n        /* \"#utility.yul\":15752:15824   */\n      tag_448\n        /* \"#utility.yul\":15820:15822   */\n      0x40\n        /* \"#utility.yul\":15809:15818   */\n      dup4\n        /* \"#utility.yul\":15805:15823   */\n      add\n        /* \"#utility.yul\":15796:15802   */\n      dup5\n        /* \"#utility.yul\":15752:15824   */\n      tag_387\n      jump\t// in\n    tag_448:\n        /* \"#utility.yul\":15389:15831   */\n      swap5\n      swap4\n      pop\n      pop\n      pop\n      pop\n      jump\t// out\n        /* \"#utility.yul\":15837:16051   */\n    tag_60:\n        /* \"#utility.yul\":15926:15930   */\n      0x00\n        /* \"#utility.yul\":15964:15966   */\n      0x20\n        /* \"#utility.yul\":15953:15962   */\n      dup3\n        /* \"#utility.yul\":15949:15967   */\n      add\n        /* \"#utility.yul\":15941:15967   */\n      swap1\n      pop\n        /* \"#utility.yul\":15977:16044   */\n      tag_450\n        /* \"#utility.yul\":16041:16042   */\n      0x00\n        /* \"#utility.yul\":16030:16039   */\n      dup4\n        /* \"#utility.yul\":16026:16043   */\n      add\n        /* \"#utility.yul\":16017:16023   */\n      dup5\n        /* \"#utility.yul\":15977:16044   */\n      tag_396\n      jump\t// in\n    tag_450:\n        /* \"#utility.yul\":15837:16051   */\n      swap3\n      swap2\n      pop\n      pop\n      jump\t// out\n        /* \"#utility.yul\":16057:16132   */\n    tag_451:\n        /* \"#utility.yul\":16090:16096   */\n      0x00\n        /* \"#utility.yul\":16123:16125   */\n      0x40\n        /* \"#utility.yul\":16117:16126   */\n      mload\n        /* \"#utility.yul\":16107:16126   */\n      swap1\n      pop\n        /* \"#utility.yul\":16057:16132   */\n      swap1\n      jump\t// out\n        /* \"#utility.yul\":16138:16236   */\n    tag_317:\n        /* \"#utility.yul\":16189:16195   */\n      0x00\n        /* \"#utility.yul\":16223:16228   */\n      dup2\n        /* \"#utility.yul\":16217:16229   */\n      mload\n        /* \"#utility.yul\":16207:16229   */\n      swap1\n      pop\n        /* \"#utility.yul\":16138:16236   */\n      swap2\n      swap1\n      pop\n      jump\t// out\n        /* \"#utility.yul\":16242:16341   */\n    tag_327:\n        /* \"#utility.yul\":16294:16300   */\n      0x00\n        /* \"#utility.yul\":16328:16333   */\n      dup2\n        /* \"#utility.yul\":16322:16334   */\n      mload\n        /* \"#utility.yul\":16312:16334   */\n      swap1\n      pop\n        /* \"#utility.yul\":16242:16341   */\n      swap2\n      swap1\n      pop\n      jump\t// out\n        /* \"#utility.yul\":16347:16515   */\n    tag_319:\n        /* \"#utility.yul\":16430:16441   */\n      0x00\n        /* \"#utility.yul\":16464:16470   */\n      dup3\n        /* \"#utility.yul\":16459:16462   */\n      dup3\n        /* \"#utility.yul\":16452:16471   */\n      mstore\n        /* \"#utility.yul\":16504:16508   */\n      0x20\n        /* \"#utility.yul\":16499:16502   */\n      dup3\n        /* \"#utility.yul\":16495:16509   */\n      add\n        /* \"#utility.yul\":16480:16509   */\n      swap1\n      pop\n        /* \"#utility.yul\":16347:16515   */\n      swap3\n      swap2\n      pop\n      pop\n      jump\t// out\n        /* \"#utility.yul\":16521:16690   */\n    tag_329:\n        /* \"#utility.yul\":16605:16616   */\n      0x00\n        /* \"#utility.yul\":16639:16645   */\n      dup3\n        /* \"#utility.yul\":16634:16637   */\n      dup3\n        /* \"#utility.yul\":16627:16646   */\n      mstore\n        /* \"#utility.yul\":16679:16683   */\n      0x20\n        /* \"#utility.yul\":16674:16677   */\n      dup3\n        /* \"#utility.yul\":16670:16684   */\n      add\n        /* \"#utility.yul\":16655:16684   */\n      swap1\n      pop\n        /* \"#utility.yul\":16521:16690   */\n      swap3\n      swap2\n      pop\n      pop\n      jump\t// out\n        /* \"#utility.yul\":16696:17001   */\n    tag_205:\n        /* \"#utility.yul\":16736:16739   */\n      0x00\n        /* \"#utility.yul\":16755:16775   */\n      tag_458\n        /* \"#utility.yul\":16773:16774   */\n      dup3\n        /* \"#utility.yul\":16755:16775   */\n      tag_390\n      jump\t// in\n    tag_458:\n        /* \"#utility.yul\":16750:16775   */\n      swap2\n      pop\n        /* \"#utility.yul\":16789:16809   */\n      tag_459\n        /* \"#utility.yul\":16807:16808   */\n      dup4\n        /* \"#utility.yul\":16789:16809   */\n      tag_390\n      jump\t// in\n    tag_459:\n        /* \"#utility.yul\":16784:16809   */\n      swap3\n      pop\n        /* \"#utility.yul\":16943:16944   */\n      dup3\n        /* \"#utility.yul\":16875:16941   */\n      0xffffffffffffffffffffffffffffffffffffffffffffffffffffffffffffffff\n        /* \"#utility.yul\":16871:16945   */\n      sub\n        /* \"#utility.yul\":16868:16869   */\n      dup3\n        /* \"#utility.yul\":16865:16946   */\n      gt\n        /* \"#utility.yul\":16862:16969   */\n      iszero\n      tag_460\n      jumpi\n        /* \"#utility.yul\":16949:16967   */\n      tag_461\n      tag_462\n      jump\t// in\n    tag_461:\n        /* \"#utility.yul\":16862:16969   */\n    tag_460:\n        /* \"#utility.yul\":16993:16994   */\n      dup3\n        /* \"#utility.yul\":16990:16991   */\n      dup3\n        /* \"#utility.yul\":16986:16995   */\n      add\n        /* \"#utility.yul\":16979:16995   */\n      swap1\n      pop\n        /* \"#utility.yul\":16696:17001   */\n      swap3\n      swap2\n      pop\n      pop\n      jump\t// out\n        /* \"#utility.yul\":17007:17103   */\n    tag_304:\n        /* \"#utility.yul\":17044:17051   */\n      0x00\n        /* \"#utility.yul\":17073:17097   */\n      tag_464\n        /* \"#utility.yul\":17091:17096   */\n      dup3\n        /* \"#utility.yul\":17073:17097   */\n      tag_465\n      jump\t// in\n    tag_464:\n        /* \"#utility.yul\":17062:17097   */\n      swap1\n      pop\n        /* \"#utility.yul\":17007:17103   */\n      swap2\n      swap1\n      pop\n      jump\t// out\n        /* \"#utility.yul\":17109:17213   */\n    tag_300:\n        /* \"#utility.yul\":17154:17161   */\n      0x00\n        /* \"#utility.yul\":17183:17207   */\n      tag_467\n        /* \"#utility.yul\":17201:17206   */\n      dup3\n        /* \"#utility.yul\":17183:17207   */\n      tag_465\n      jump\t// in\n    tag_467:\n        /* \"#utility.yul\":17172:17207   */\n      swap1\n      pop\n        /* \"#utility.yul\":17109:17213   */\n      swap2\n      swap1\n      pop\n      jump\t// out\n        /* \"#utility.yul\":17219:17309   */\n    tag_313:\n        /* \"#utility.yul\":17253:17260   */\n      0x00\n        /* \"#utility.yul\":17296:17301   */\n      dup2\n        /* \"#utility.yul\":17289:17302   */\n      iszero\n        /* \"#utility.yul\":17282:17303   */\n      iszero\n        /* \"#utility.yul\":17271:17303   */\n      swap1\n      pop\n        /* \"#utility.yul\":17219:17309   */\n      swap2\n      swap1\n      pop\n      jump\t// out\n        /* \"#utility.yul\":17315:17464   */\n    tag_469:\n        /* \"#utility.yul\":17351:17358   */\n      0x00\n        /* \"#utility.yul\":17391:17457   */\n      0xffffffff00000000000000000000000000000000000000000000000000000000\n        /* \"#utility.yul\":17384:17389   */\n      dup3\n        /* \"#utility.yul\":17380:17458   */\n      and\n        /* \"#utility.yul\":17369:17458   */\n      swap1\n      pop\n        /* \"#utility.yul\":17315:17464   */\n      swap2\n      swap1\n      pop\n      jump\t// out\n        /* \"#utility.yul\":17470:17596   */\n    tag_465:\n        /* \"#utility.yul\":17507:17514   */\n      0x00\n        /* \"#utility.yul\":17547:17589   */\n      0xffffffffffffffffffffffffffffffffffffffff\n        /* \"#utility.yul\":17540:17545   */\n      dup3\n        /* \"#utility.yul\":17536:17590   */\n      and\n        /* \"#utility.yul\":17525:17590   */\n      swap1\n      pop\n        /* \"#utility.yul\":17470:17596   */\n      swap2\n      swap1\n      pop\n      jump\t// out\n        /* \"#utility.yul\":17602:17679   */\n    tag_390:\n        /* \"#utility.yul\":17639:17646   */\n      0x00\n        /* \"#utility.yul\":17668:17673   */\n      dup2\n        /* \"#utility.yul\":17657:17673   */\n      swap1\n      pop\n        /* \"#utility.yul\":17602:17679   */\n      swap2\n      swap1\n      pop\n      jump\t// out\n        /* \"#utility.yul\":17685:17771   */\n    tag_399:\n        /* \"#utility.yul\":17720:17727   */\n      0x00\n        /* \"#utility.yul\":17760:17764   */\n      0xff\n        /* \"#utility.yul\":17753:17758   */\n      dup3\n        /* \"#utility.yul\":17749:17765   */\n      and\n        /* \"#utility.yul\":17738:17765   */\n      swap1\n      pop\n        /* \"#utility.yul\":17685:17771   */\n      swap2\n      swap1\n      pop\n      jump\t// out\n        /* \"#utility.yul\":17777:18084   */\n    tag_321:\n        /* \"#utility.yul\":17845:17846   */\n      0x00\n        /* \"#utility.yul\":17855:17968   */\n    tag_475:\n        /* \"#utility.yul\":17869:17875   */\n      dup4\n        /* \"#utility.yul\":17866:17867   */\n      dup2\n        /* \"#utility.yul\":17863:17876   */\n      lt\n        /* \"#utility.yul\":17855:17968   */\n      iszero\n      tag_477\n      jumpi\n        /* \"#utility.yul\":17954:17955   */\n      dup1\n        /* \"#utility.yul\":17949:17952   */\n      dup3\n        /* \"#utility.yul\":17945:17956   */\n      add\n        /* \"#utility.yul\":17939:17957   */\n      mload\n        /* \"#utility.yul\":17935:17936   */\n      dup2\n        /* \"#utility.yul\":17930:17933   */\n      dup5\n        /* \"#utility.yul\":17926:17937   */\n      add\n        /* \"#utility.yul\":17919:17958   */\n      mstore\n        /* \"#utility.yul\":17891:17893   */\n      0x20\n        /* \"#utility.yul\":17888:17889   */\n      dup2\n        /* \"#utility.yul\":17884:17894   */\n      add\n        /* \"#utility.yul\":17879:17894   */\n      swap1\n      pop\n        /* \"#utility.yul\":17855:17968   */\n      jump(tag_475)\n    tag_477:\n        /* \"#utility.yul\":17986:17992   */\n      dup4\n        /* \"#utility.yul\":17983:17984   */\n      dup2\n        /* \"#utility.yul\":17980:17993   */\n      gt\n        /* \"#utility.yul\":17977:18078   */\n      iszero\n      tag_478\n      jumpi\n        /* \"#utility.yul\":18066:18067   */\n      0x00\n        /* \"#utility.yul\":18057:18063   */\n      dup5\n        /* \"#utility.yul\":18052:18055   */\n      dup5\n        /* \"#utility.yul\":18048:18064   */\n      add\n        /* \"#utility.yul\":18041:18068   */\n      mstore\n        /* \"#utility.yul\":17977:18078   */\n    tag_478:\n        /* \"#utility.yul\":17826:18084   */\n      pop\n        /* \"#utility.yul\":17777:18084   */\n      pop\n      pop\n      pop\n      jump\t// out\n        /* \"#utility.yul\":18090:18410   */\n    tag_111:\n        /* \"#utility.yul\":18134:18140   */\n      0x00\n        /* \"#utility.yul\":18171:18172   */\n      0x02\n        /* \"#utility.yul\":18165:18169   */\n      dup3\n        /* \"#utility.yul\":18161:18173   */\n      div\n        /* \"#utility.yul\":18151:18173   */\n      swap1\n      pop\n        /* \"#utility.yul\":18218:18219   */\n      0x01\n        /* \"#utility.yul\":18212:18216   */\n      dup3\n        /* \"#utility.yul\":18208:18220   */\n      and\n        /* \"#utility.yul\":18239:18257   */\n      dup1\n        /* \"#utility.yul\":18229:18310   */\n      tag_480\n      jumpi\n        /* \"#utility.yul\":18295:18299   */\n      0x7f\n        /* \"#utility.yul\":18287:18293   */\n      dup3\n        /* \"#utility.yul\":18283:18300   */\n      and\n        /* \"#utility.yul\":18273:18300   */\n      swap2\n      pop\n        /* \"#utility.yul\":18229:18310   */\n    tag_480:\n        /* \"#utility.yul\":18357:18359   */\n      0x20\n        /* \"#utility.yul\":18349:18355   */\n      dup3\n        /* \"#utility.yul\":18346:18360   */\n      lt\n        /* \"#utility.yul\":18326:18344   */\n      dup2\n        /* \"#utility.yul\":18323:18361   */\n      eq\n        /* \"#utility.yul\":18320:18404   */\n      iszero\n      tag_481\n      jumpi\n        /* \"#utility.yul\":18376:18394   */\n      tag_482\n      tag_483\n      jump\t// in\n    tag_482:\n        /* \"#utility.yul\":18320:18404   */\n    tag_481:\n        /* \"#utility.yul\":18141:18410   */\n      pop\n        /* \"#utility.yul\":18090:18410   */\n      swap2\n      swap1\n      pop\n      jump\t// out\n        /* \"#utility.yul\":18416:18697   */\n    tag_484:\n        /* \"#utility.yul\":18499:18526   */\n      tag_486\n        /* \"#utility.yul\":18521:18525   */\n      dup3\n        /* \"#utility.yul\":18499:18526   */\n      tag_323\n      jump\t// in\n    tag_486:\n        /* \"#utility.yul\":18491:18497   */\n      dup2\n        /* \"#utility.yul\":18487:18527   */\n      add\n        /* \"#utility.yul\":18629:18635   */\n      dup2\n        /* \"#utility.yul\":18617:18627   */\n      dup2\n        /* \"#utility.yul\":18614:18636   */\n      lt\n        /* \"#utility.yul\":18593:18611   */\n      0xffffffffffffffff\n        /* \"#utility.yul\":18581:18591   */\n      dup3\n        /* \"#utility.yul\":18578:18612   */\n      gt\n        /* \"#utility.yul\":18575:18637   */\n      or\n        /* \"#utility.yul\":18572:18660   */\n      iszero\n      tag_487\n      jumpi\n        /* \"#utility.yul\":18640:18658   */\n      tag_488\n      tag_220\n      jump\t// in\n    tag_488:\n        /* \"#utility.yul\":18572:18660   */\n    tag_487:\n        /* \"#utility.yul\":18680:18690   */\n      dup1\n        /* \"#utility.yul\":18676:18678   */\n      0x40\n        /* \"#utility.yul\":18669:18691   */\n      mstore\n        /* \"#utility.yul\":18459:18697   */\n      pop\n        /* \"#utility.yul\":18416:18697   */\n      pop\n      pop\n      jump\t// out\n        /* \"#utility.yul\":18703:18936   */\n    tag_121:\n        /* \"#utility.yul\":18742:18745   */\n      0x00\n        /* \"#utility.yul\":18765:18789   */\n      tag_490\n        /* \"#utility.yul\":18783:18788   */\n      dup3\n        /* \"#utility.yul\":18765:18789   */\n      tag_390\n      jump\t// in\n    tag_490:\n        /* \"#utility.yul\":18756:18789   */\n      swap2\n      pop\n        /* \"#utility.yul\":18811:18877   */\n      0xffffffffffffffffffffffffffffffffffffffffffffffffffffffffffffffff\n        /* \"#utility.yul\":18804:18809   */\n      dup3\n        /* \"#utility.yul\":18801:18878   */\n      eq\n        /* \"#utility.yul\":18798:18901   */\n      iszero\n      tag_491\n      jumpi\n        /* \"#utility.yul\":18881:18899   */\n      tag_492\n      tag_462\n      jump\t// in\n    tag_492:\n        /* \"#utility.yul\":18798:18901   */\n    tag_491:\n        /* \"#utility.yul\":18928:18929   */\n      0x01\n        /* \"#utility.yul\":18921:18926   */\n      dup3\n        /* \"#utility.yul\":18917:18930   */\n      add\n        /* \"#utility.yul\":18910:18930   */\n      swap1\n      pop\n        /* \"#utility.yul\":18703:18936   */\n      swap2\n      swap1\n      pop\n      jump\t// out\n        /* \"#utility.yul\":18942:19042   */\n    tag_309:\n        /* \"#utility.yul\":18981:18988   */\n      0x00\n        /* \"#utility.yul\":19010:19036   */\n      tag_494\n        /* \"#utility.yul\":19030:19035   */\n      dup3\n        /* \"#utility.yul\":19010:19036   */\n      tag_495\n      jump\t// in\n    tag_494:\n        /* \"#utility.yul\":18999:19036   */\n      swap1\n      pop\n        /* \"#utility.yul\":18942:19042   */\n      swap2\n      swap1\n      pop\n      jump\t// out\n        /* \"#utility.yul\":19048:19142   */\n    tag_495:\n        /* \"#utility.yul\":19087:19094   */\n      0x00\n        /* \"#utility.yul\":19116:19136   */\n      tag_497\n        /* \"#utility.yul\":19130:19135   */\n      dup3\n        /* \"#utility.yul\":19116:19136   */\n      tag_498\n      jump\t// in\n    tag_497:\n        /* \"#utility.yul\":19105:19136   */\n      swap1\n      pop\n        /* \"#utility.yul\":19048:19142   */\n      swap2\n      swap1\n      pop\n      jump\t// out\n        /* \"#utility.yul\":19148:19227   */\n    tag_395:\n        /* \"#utility.yul\":19187:19194   */\n      0x00\n        /* \"#utility.yul\":19216:19221   */\n      dup2\n        /* \"#utility.yul\":19205:19221   */\n      swap1\n      pop\n        /* \"#utility.yul\":19148:19227   */\n      swap2\n      swap1\n      pop\n      jump\t// out\n        /* \"#utility.yul\":19233:19409   */\n    tag_216:\n        /* \"#utility.yul\":19265:19266   */\n      0x00\n        /* \"#utility.yul\":19282:19302   */\n      tag_501\n        /* \"#utility.yul\":19300:19301   */\n      dup3\n        /* \"#utility.yul\":19282:19302   */\n      tag_390\n      jump\t// in\n    tag_501:\n        /* \"#utility.yul\":19277:19302   */\n      swap2\n      pop\n        /* \"#utility.yul\":19316:19336   */\n      tag_502\n        /* \"#utility.yul\":19334:19335   */\n      dup4\n        /* \"#utility.yul\":19316:19336   */\n      tag_390\n      jump\t// in\n    tag_502:\n        /* \"#utility.yul\":19311:19336   */\n      swap3\n      pop\n        /* \"#utility.yul\":19355:19356   */\n      dup3\n        /* \"#utility.yul\":19345:19380   */\n      tag_503\n      jumpi\n        /* \"#utility.yul\":19360:19378   */\n      tag_504\n      tag_505\n      jump\t// in\n    tag_504:\n        /* \"#utility.yul\":19345:19380   */\n    tag_503:\n        /* \"#utility.yul\":19401:19402   */\n      dup3\n        /* \"#utility.yul\":19398:19399   */\n      dup3\n        /* \"#utility.yul\":19394:19403   */\n      mod\n        /* \"#utility.yul\":19389:19403   */\n      swap1\n      pop\n        /* \"#utility.yul\":19233:19409   */\n      swap3\n      swap2\n      pop\n      pop\n      jump\t// out\n        /* \"#utility.yul\":19415:19595   */\n    tag_462:\n        /* \"#utility.yul\":19463:19540   */\n      0x4e487b7100000000000000000000000000000000000000000000000000000000\n        /* \"#utility.yul\":19460:19461   */\n      0x00\n        /* \"#utility.yul\":19453:19541   */\n      mstore\n        /* \"#utility.yul\":19560:19564   */\n      0x11\n        /* \"#utility.yul\":19557:19558   */\n      0x04\n        /* \"#utility.yul\":19550:19565   */\n      mstore\n        /* \"#utility.yul\":19584:19588   */\n      0x24\n        /* \"#utility.yul\":19581:19582   */\n      0x00\n        /* \"#utility.yul\":19574:19589   */\n      revert\n        /* \"#utility.yul\":19601:19781   */\n    tag_505:\n        /* \"#utility.yul\":19649:19726   */\n      0x4e487b7100000000000000000000000000000000000000000000000000000000\n        /* \"#utility.yul\":19646:19647   */\n      0x00\n        /* \"#utility.yul\":19639:19727   */\n      mstore\n        /* \"#utility.yul\":19746:19750   */\n      0x12\n        /* \"#utility.yul\":19743:19744   */\n      0x04\n        /* \"#utility.yul\":19736:19751   */\n      mstore\n        /* \"#utility.yul\":19770:19774   */\n      0x24\n        /* \"#utility.yul\":19767:19768   */\n      0x00\n        /* \"#utility.yul\":19760:19775   */\n      revert\n        /* \"#utility.yul\":19787:19967   */\n    tag_483:\n        /* \"#utility.yul\":19835:19912   */\n      0x4e487b7100000000000000000000000000000000000000000000000000000000\n        /* \"#utility.yul\":19832:19833   */\n      0x00\n        /* \"#utility.yul\":19825:19913   */\n      mstore\n        /* \"#utility.yul\":19932:19936   */\n      0x22\n        /* \"#utility.yul\":19929:19930   */\n      0x04\n        /* \"#utility.yul\":19922:19937   */\n      mstore\n        /* \"#utility.yul\":19956:19960   */\n      0x24\n        /* \"#utility.yul\":19953:19954   */\n      0x00\n        /* \"#utility.yul\":19946:19961   */\n      revert\n        /* \"#utility.yul\":19973:20153   */\n    tag_174:\n        /* \"#utility.yul\":20021:20098   */\n      0x4e487b7100000000000000000000000000000000000000000000000000000000\n        /* \"#utility.yul\":20018:20019   */\n      0x00\n        /* \"#utility.yul\":20011:20099   */\n      mstore\n        /* \"#utility.yul\":20118:20122   */\n      0x32\n        /* \"#utility.yul\":20115:20116   */\n      0x04\n        /* \"#utility.yul\":20108:20123   */\n      mstore\n        /* \"#utility.yul\":20142:20146   */\n      0x24\n        /* \"#utility.yul\":20139:20140   */\n      0x00\n        /* \"#utility.yul\":20132:20147   */\n      revert\n        /* \"#utility.yul\":20159:20339   */\n    tag_220:\n        /* \"#utility.yul\":20207:20284   */\n      0x4e487b7100000000000000000000000000000000000000000000000000000000\n        /* \"#utility.yul\":20204:20205   */\n      0x00\n        /* \"#utility.yul\":20197:20285   */\n      mstore\n        /* \"#utility.yul\":20304:20308   */\n      0x41\n        /* \"#utility.yul\":20301:20302   */\n      0x04\n        /* \"#utility.yul\":20294:20309   */\n      mstore\n        /* \"#utility.yul\":20328:20332   */\n      0x24\n        /* \"#utility.yul\":20325:20326   */\n      0x00\n        /* \"#utility.yul\":20318:20333   */\n      revert\n        /* \"#utility.yul\":20345:20528   */\n    tag_240:\n        /* \"#utility.yul\":20380:20383   */\n      0x00\n        /* \"#utility.yul\":20418:20419   */\n      0x03\n        /* \"#utility.yul\":20400:20416   */\n      returndatasize\n        /* \"#utility.yul\":20397:20420   */\n      gt\n        /* \"#utility.yul\":20394:20522   */\n      iszero\n      tag_512\n      jumpi\n        /* \"#utility.yul\":20456:20457   */\n      0x04\n        /* \"#utility.yul\":20453:20454   */\n      0x00\n        /* \"#utility.yul\":20450:20451   */\n      dup1\n        /* \"#utility.yul\":20435:20458   */\n      returndatacopy\n        /* \"#utility.yul\":20478:20512   */\n      tag_513\n        /* \"#utility.yul\":20509:20510   */\n      0x00\n        /* \"#utility.yul\":20503:20511   */\n      mload\n        /* \"#utility.yul\":20478:20512   */\n      tag_514\n      jump\t// in\n    tag_513:\n        /* \"#utility.yul\":20471:20512   */\n      swap1\n      pop\n        /* \"#utility.yul\":20394:20522   */\n    tag_512:\n        /* \"#utility.yul\":20345:20528   */\n      swap1\n      jump\t// out\n        /* \"#utility.yul\":20657:20774   */\n    tag_283:\n        /* \"#utility.yul\":20766:20767   */\n      0x00\n        /* \"#utility.yul\":20763:20764   */\n      dup1\n        /* \"#utility.yul\":20756:20768   */\n      revert\n        /* \"#utility.yul\":20780:20882   */\n    tag_323:\n        /* \"#utility.yul\":20821:20827   */\n      0x00\n        /* \"#utility.yul\":20872:20874   */\n      0x1f\n        /* \"#utility.yul\":20868:20875   */\n      not\n        /* \"#utility.yul\":20863:20865   */\n      0x1f\n        /* \"#utility.yul\":20856:20861   */\n      dup4\n        /* \"#utility.yul\":20852:20866   */\n      add\n        /* \"#utility.yul\":20848:20876   */\n      and\n        /* \"#utility.yul\":20838:20876   */\n      swap1\n      pop\n        /* \"#utility.yul\":20780:20882   */\n      swap2\n      swap1\n      pop\n      jump\t// out\n        /* \"#utility.yul\":20888:20982   */\n    tag_498:\n        /* \"#utility.yul\":20921:20929   */\n      0x00\n        /* \"#utility.yul\":20969:20974   */\n      dup2\n        /* \"#utility.yul\":20965:20967   */\n      0x60\n        /* \"#utility.yul\":20961:20975   */\n      shl\n        /* \"#utility.yul\":20940:20975   */\n      swap1\n      pop\n        /* \"#utility.yul\":20888:20982   */\n      swap2\n      swap1\n      pop\n      jump\t// out\n        /* \"#utility.yul\":20988:21094   */\n    tag_514:\n        /* \"#utility.yul\":21032:21040   */\n      0x00\n        /* \"#utility.yul\":21081:21086   */\n      dup2\n        /* \"#utility.yul\":21076:21079   */\n      0xe0\n        /* \"#utility.yul\":21072:21087   */\n      shr\n        /* \"#utility.yul\":21051:21087   */\n      swap1\n      pop\n        /* \"#utility.yul\":20988:21094   */\n      swap2\n      swap1\n      pop\n      jump\t// out\n        /* \"#utility.yul\":21100:21339   */\n    tag_336:\n        /* \"#utility.yul\":21240:21274   */\n      0x455243313135353a207472616e7366657220746f206e6f6e2045524331313535\n        /* \"#utility.yul\":21236:21237   */\n      0x00\n        /* \"#utility.yul\":21228:21234   */\n      dup3\n        /* \"#utility.yul\":21224:21238   */\n      add\n        /* \"#utility.yul\":21217:21275   */\n      mstore\n        /* \"#utility.yul\":21309:21331   */\n      0x526563656976657220696d706c656d656e746572000000000000000000000000\n        /* \"#utility.yul\":21304:21306   */\n      0x20\n        /* \"#utility.yul\":21296:21302   */\n      dup3\n        /* \"#utility.yul\":21292:21307   */\n      add\n        /* \"#utility.yul\":21285:21332   */\n      mstore\n        /* \"#utility.yul\":21100:21339   */\n      pop\n      jump\t// out\n        /* \"#utility.yul\":21345:21572   */\n    tag_341:\n        /* \"#utility.yul\":21485:21519   */\n      0x455243313135353a204552433131353552656365697665722072656a65637465\n        /* \"#utility.yul\":21481:21482   */\n      0x00\n        /* \"#utility.yul\":21473:21479   */\n      dup3\n        /* \"#utility.yul\":21469:21483   */\n      add\n        /* \"#utility.yul\":21462:21520   */\n      mstore\n        /* \"#utility.yul\":21554:21564   */\n      0x6420746f6b656e73000000000000000000000000000000000000000000000000\n        /* \"#utility.yul\":21549:21551   */\n      0x20\n        /* \"#utility.yul\":21541:21547   */\n      dup3\n        /* \"#utility.yul\":21537:21552   */\n      add\n        /* \"#utility.yul\":21530:21565   */\n      mstore\n        /* \"#utility.yul\":21345:21572   */\n      pop\n      jump\t// out\n        /* \"#utility.yul\":21578:21753   */\n    tag_346:\n        /* \"#utility.yul\":21718:21745   */\n      0x42616c616e6365206d757374206265203235204d617469637300000000000000\n        /* \"#utility.yul\":21714:21715   */\n      0x00\n        /* \"#utility.yul\":21706:21712   */\n      dup3\n        /* \"#utility.yul\":21702:21716   */\n      add\n        /* \"#utility.yul\":21695:21746   */\n      mstore\n        /* \"#utility.yul\":21578:21753   */\n      pop\n      jump\t// out\n        /* \"#utility.yul\":21759:21936   */\n    tag_351:\n        /* \"#utility.yul\":21899:21928   */\n      0x44726f707369746520697320616c72656164792052756e6e696e670000000000\n        /* \"#utility.yul\":21895:21896   */\n      0x00\n        /* \"#utility.yul\":21887:21893   */\n      dup3\n        /* \"#utility.yul\":21883:21897   */\n      add\n        /* \"#utility.yul\":21876:21929   */\n      mstore\n        /* \"#utility.yul\":21759:21936   */\n      pop\n      jump\t// out\n        /* \"#utility.yul\":21942:22119   */\n    tag_356:\n        /* \"#utility.yul\":22082:22111   */\n      0x44726f707369746520697320616c72656164792053746f707065640000000000\n        /* \"#utility.yul\":22078:22079   */\n      0x00\n        /* \"#utility.yul\":22070:22076   */\n      dup3\n        /* \"#utility.yul\":22066:22080   */\n      add\n        /* \"#utility.yul\":22059:22112   */\n      mstore\n        /* \"#utility.yul\":21942:22119   */\n      pop\n      jump\t// out\n        /* \"#utility.yul\":22125:22293   */\n    tag_361:\n        /* \"#utility.yul\":22265:22285   */\n      0x536f6d65204572726f72204f6363757265640000000000000000000000000000\n        /* \"#utility.yul\":22261:22262   */\n      0x00\n        /* \"#utility.yul\":22253:22259   */\n      dup3\n        /* \"#utility.yul\":22249:22263   */\n      add\n        /* \"#utility.yul\":22242:22286   */\n      mstore\n        /* \"#utility.yul\":22125:22293   */\n      pop\n      jump\t// out\n        /* \"#utility.yul\":22299:22477   */\n    tag_366:\n        /* \"#utility.yul\":22439:22469   */\n      0x4f6e6c79204e46542d4553204f776e65722063616e2041636365737300000000\n        /* \"#utility.yul\":22435:22436   */\n      0x00\n        /* \"#utility.yul\":22427:22433   */\n      dup3\n        /* \"#utility.yul\":22423:22437   */\n      add\n        /* \"#utility.yul\":22416:22470   */\n      mstore\n        /* \"#utility.yul\":22299:22477   */\n      pop\n      jump\t// out\n        /* \"#utility.yul\":22483:22660   */\n    tag_371:\n        /* \"#utility.yul\":22623:22652   */\n      0x44726f7073697465206973206e6f74204f70656e6564205965742e0000000000\n        /* \"#utility.yul\":22619:22620   */\n      0x00\n        /* \"#utility.yul\":22611:22617   */\n      dup3\n        /* \"#utility.yul\":22607:22621   */\n      add\n        /* \"#utility.yul\":22600:22653   */\n      mstore\n        /* \"#utility.yul\":22483:22660   */\n      pop\n      jump\t// out\n        /* \"#utility.yul\":22666:22841   */\n    tag_376:\n        /* \"#utility.yul\":22806:22833   */\n      0x4d6178204d696e74696e67204c696d6974207265616368656400000000000000\n        /* \"#utility.yul\":22802:22803   */\n      0x00\n        /* \"#utility.yul\":22794:22800   */\n      dup3\n        /* \"#utility.yul\":22790:22804   */\n      add\n        /* \"#utility.yul\":22783:22834   */\n      mstore\n        /* \"#utility.yul\":22666:22841   */\n      pop\n      jump\t// out\n        /* \"#utility.yul\":22847:23026   */\n    tag_381:\n        /* \"#utility.yul\":22987:23018   */\n      0x4572726f7221204e6f2042616c616e636520746f207769746864726177000000\n        /* \"#utility.yul\":22983:22984   */\n      0x00\n        /* \"#utility.yul\":22975:22981   */\n      dup3\n        /* \"#utility.yul\":22971:22985   */\n      add\n        /* \"#utility.yul\":22964:23019   */\n      mstore\n        /* \"#utility.yul\":22847:23026   */\n      pop\n      jump\t// out\n        /* \"#utility.yul\":23032:23252   */\n    tag_386:\n        /* \"#utility.yul\":23172:23206   */\n      0x455243313135353a206d696e7420746f20746865207a65726f20616464726573\n        /* \"#utility.yul\":23168:23169   */\n      0x00\n        /* \"#utility.yul\":23160:23166   */\n      dup3\n        /* \"#utility.yul\":23156:23170   */\n      add\n        /* \"#utility.yul\":23149:23207   */\n      mstore\n        /* \"#utility.yul\":23241:23244   */\n      0x7300000000000000000000000000000000000000000000000000000000000000\n        /* \"#utility.yul\":23236:23238   */\n      0x20\n        /* \"#utility.yul\":23228:23234   */\n      dup3\n        /* \"#utility.yul\":23224:23239   */\n      add\n        /* \"#utility.yul\":23217:23245   */\n      mstore\n        /* \"#utility.yul\":23032:23252   */\n      pop\n      jump\t// out\n        /* \"#utility.yul\":23258:23969   */\n    tag_242:\n        /* \"#utility.yul\":23297:23300   */\n      0x00\n        /* \"#utility.yul\":23335:23339   */\n      0x44\n        /* \"#utility.yul\":23317:23333   */\n      returndatasize\n        /* \"#utility.yul\":23314:23340   */\n      lt\n        /* \"#utility.yul\":23311:23350   */\n      iszero\n      tag_533\n      jumpi\n        /* \"#utility.yul\":23343:23348   */\n      jump(tag_532)\n        /* \"#utility.yul\":23311:23350   */\n    tag_533:\n        /* \"#utility.yul\":23372:23392   */\n      tag_534\n      tag_451\n      jump\t// in\n    tag_534:\n        /* \"#utility.yul\":23447:23448   */\n      0x04\n        /* \"#utility.yul\":23429:23445   */\n      returndatasize\n        /* \"#utility.yul\":23425:23449   */\n      sub\n        /* \"#utility.yul\":23422:23423   */\n      0x04\n        /* \"#utility.yul\":23416:23420   */\n      dup3\n        /* \"#utility.yul\":23401:23450   */\n      returndatacopy\n        /* \"#utility.yul\":23480:23484   */\n      dup1\n        /* \"#utility.yul\":23474:23485   */\n      mload\n        /* \"#utility.yul\":23579:23595   */\n      returndatasize\n        /* \"#utility.yul\":23572:23576   */\n      0x24\n        /* \"#utility.yul\":23564:23570   */\n      dup3\n        /* \"#utility.yul\":23560:23577   */\n      add\n        /* \"#utility.yul\":23557:23596   */\n      gt\n        /* \"#utility.yul\":23524:23542   */\n      0xffffffffffffffff\n        /* \"#utility.yul\":23516:23522   */\n      dup3\n        /* \"#utility.yul\":23513:23543   */\n      gt\n        /* \"#utility.yul\":23497:23610   */\n      or\n        /* \"#utility.yul\":23494:23640   */\n      iszero\n      tag_535\n      jumpi\n        /* \"#utility.yul\":23625:23630   */\n      pop\n      pop\n      jump(tag_532)\n        /* \"#utility.yul\":23494:23640   */\n    tag_535:\n        /* \"#utility.yul\":23671:23677   */\n      dup1\n        /* \"#utility.yul\":23665:23669   */\n      dup3\n        /* \"#utility.yul\":23661:23678   */\n      add\n        /* \"#utility.yul\":23707:23710   */\n      dup1\n        /* \"#utility.yul\":23701:23711   */\n      mload\n        /* \"#utility.yul\":23734:23752   */\n      0xffffffffffffffff\n        /* \"#utility.yul\":23726:23732   */\n      dup2\n        /* \"#utility.yul\":23723:23753   */\n      gt\n        /* \"#utility.yul\":23720:23763   */\n      iszero\n      tag_536\n      jumpi\n        /* \"#utility.yul\":23756:23761   */\n      pop\n      pop\n      pop\n      pop\n      jump(tag_532)\n        /* \"#utility.yul\":23720:23763   */\n    tag_536:\n        /* \"#utility.yul\":23804:23810   */\n      dup1\n        /* \"#utility.yul\":23797:23801   */\n      0x20\n        /* \"#utility.yul\":23792:23795   */\n      dup4\n        /* \"#utility.yul\":23788:23802   */\n      add\n        /* \"#utility.yul\":23784:23811   */\n      add\n        /* \"#utility.yul\":23863:23864   */\n      0x04\n        /* \"#utility.yul\":23845:23861   */\n      returndatasize\n        /* \"#utility.yul\":23841:23865   */\n      sub\n        /* \"#utility.yul\":23835:23839   */\n      dup6\n        /* \"#utility.yul\":23831:23866   */\n      add\n        /* \"#utility.yul\":23826:23829   */\n      dup2\n        /* \"#utility.yul\":23823:23867   */\n      gt\n        /* \"#utility.yul\":23820:23877   */\n      iszero\n      tag_537\n      jumpi\n        /* \"#utility.yul\":23870:23875   */\n      pop\n      pop\n      pop\n      pop\n      pop\n      jump(tag_532)\n        /* \"#utility.yul\":23820:23877   */\n    tag_537:\n        /* \"#utility.yul\":23887:23944   */\n      tag_538\n        /* \"#utility.yul\":23935:23941   */\n      dup3\n        /* \"#utility.yul\":23929:23933   */\n      0x20\n        /* \"#utility.yul\":23925:23942   */\n      add\n        /* \"#utility.yul\":23917:23923   */\n      dup6\n        /* \"#utility.yul\":23913:23943   */\n      add\n        /* \"#utility.yul\":23907:23911   */\n      dup7\n        /* \"#utility.yul\":23887:23944   */\n      tag_484\n      jump\t// in\n    tag_538:\n        /* \"#utility.yul\":23960:23963   */\n      dup3\n        /* \"#utility.yul\":23953:23963   */\n      swap6\n      pop\n        /* \"#utility.yul\":23301:23969   */\n      pop\n      pop\n      pop\n      pop\n      pop\n        /* \"#utility.yul\":23258:23969   */\n    tag_532:\n      swap1\n      jump\t// out\n        /* \"#utility.yul\":23975:24097   */\n    tag_267:\n        /* \"#utility.yul\":24048:24072   */\n      tag_540\n        /* \"#utility.yul\":24066:24071   */\n      dup2\n        /* \"#utility.yul\":24048:24072   */\n      tag_304\n      jump\t// in\n    tag_540:\n        /* \"#utility.yul\":24041:24046   */\n      dup2\n        /* \"#utility.yul\":24038:24073   */\n      eq\n        /* \"#utility.yul\":24028:24091   */\n      tag_541\n      jumpi\n        /* \"#utility.yul\":24087:24088   */\n      0x00\n        /* \"#utility.yul\":24084:24085   */\n      dup1\n        /* \"#utility.yul\":24077:24089   */\n      revert\n        /* \"#utility.yul\":24028:24091   */\n    tag_541:\n        /* \"#utility.yul\":23975:24097   */\n      pop\n      jump\t// out\n        /* \"#utility.yul\":24103:24241   */\n    tag_271:\n        /* \"#utility.yul\":24184:24216   */\n      tag_543\n        /* \"#utility.yul\":24210:24215   */\n      dup2\n        /* \"#utility.yul\":24184:24216   */\n      tag_300\n      jump\t// in\n    tag_543:\n        /* \"#utility.yul\":24177:24182   */\n      dup2\n        /* \"#utility.yul\":24174:24217   */\n      eq\n        /* \"#utility.yul\":24164:24235   */\n      tag_544\n      jumpi\n        /* \"#utility.yul\":24231:24232   */\n      0x00\n        /* \"#utility.yul\":24228:24229   */\n      dup1\n        /* \"#utility.yul\":24221:24233   */\n      revert\n        /* \"#utility.yul\":24164:24235   */\n    tag_544:\n        /* \"#utility.yul\":24103:24241   */\n      pop\n      jump\t// out\n        /* \"#utility.yul\":24247:24367   */\n    tag_275:\n        /* \"#utility.yul\":24319:24342   */\n      tag_546\n        /* \"#utility.yul\":24336:24341   */\n      dup2\n        /* \"#utility.yul\":24319:24342   */\n      tag_469\n      jump\t// in\n    tag_546:\n        /* \"#utility.yul\":24312:24317   */\n      dup2\n        /* \"#utility.yul\":24309:24343   */\n      eq\n        /* \"#utility.yul\":24299:24361   */\n      tag_547\n      jumpi\n        /* \"#utility.yul\":24357:24358   */\n      0x00\n        /* \"#utility.yul\":24354:24355   */\n      dup1\n        /* \"#utility.yul\":24347:24359   */\n      revert\n        /* \"#utility.yul\":24299:24361   */\n    tag_547:\n        /* \"#utility.yul\":24247:24367   */\n      pop\n      jump\t// out\n        /* \"#utility.yul\":24373:24495   */\n    tag_279:\n        /* \"#utility.yul\":24446:24470   */\n      tag_549\n        /* \"#utility.yul\":24464:24469   */\n      dup2\n        /* \"#utility.yul\":24446:24470   */\n      tag_390\n      jump\t// in\n    tag_549:\n        /* \"#utility.yul\":24439:24444   */\n      dup2\n        /* \"#utility.yul\":24436:24471   */\n      eq\n        /* \"#utility.yul\":24426:24489   */\n      tag_550\n      jumpi\n        /* \"#utility.yul\":24485:24486   */\n      0x00\n        /* \"#utility.yul\":24482:24483   */\n      dup1\n        /* \"#utility.yul\":24475:24487   */\n      revert\n        /* \"#utility.yul\":24426:24489   */\n    tag_550:\n        /* \"#utility.yul\":24373:24495   */\n      pop\n      jump\t// out\n\n    auxdata: 0xa2646970667358221220e7e5666e7c5a58056c30b4b2adbba01fce6d7805ae9d0fdc1712033e9d75e1dc64736f6c63430008070033\n}\n",
				"bytecode": {
					"linkReferences": {},
					"object": "608060405260405180602001604052806000815250600290805190602001906200002b92919062000184565b50604051806101400160405280600060ff168152602001600160ff168152602001600160ff168152602001600160ff168152602001600260ff168152602001600260ff168152602001600260ff168152602001600260ff168152602001600260ff168152602001600260ff16815250600390600a620000ac92919062000215565b506001600b60006101000a81548160ff021916908315150217905550348015620000d557600080fd5b5060405162002862380380620028628339818101604052810190620000fb9190620003e4565b80600c908051906020019062000113929190620002b6565b5033600b60016101000a81548173ffffffffffffffffffffffffffffffffffffffff021916908373ffffffffffffffffffffffffffffffffffffffff1602179055506000600481905550600160058190555060006006819055506000600781905550600060088190555050620005b9565b8280546200019290620004ca565b90600052602060002090601f016020900481019282620001b6576000855562000202565b82601f10620001d157805160ff191683800117855562000202565b8280016001018555821562000202579182015b8281111562000201578251825591602001919060010190620001e4565b5b50905062000211919062000347565b5090565b82600a601f01602090048101928215620002a35791602002820160005b838211156200027257835183826101000a81548160ff021916908360ff160217905550926020019260010160208160000104928301926001030262000232565b8015620002a15782816101000a81549060ff021916905560010160208160000104928301926001030262000272565b505b509050620002b2919062000347565b5090565b828054620002c490620004ca565b90600052602060002090601f016020900481019282620002e8576000855562000334565b82601f106200030357805160ff191683800117855562000334565b8280016001018555821562000334579182015b828111156200033357825182559160200191906001019062000316565b5b50905062000343919062000347565b5090565b5b808211156200036257600081600090555060010162000348565b5090565b60006200037d62000377846200045e565b62000435565b9050828152602081018484840111156200039c576200039b62000599565b5b620003a984828562000494565b509392505050565b600082601f830112620003c957620003c862000594565b5b8151620003db84826020860162000366565b91505092915050565b600060208284031215620003fd57620003fc620005a3565b5b600082015167ffffffffffffffff8111156200041e576200041d6200059e565b5b6200042c84828501620003b1565b91505092915050565b60006200044162000454565b90506200044f828262000500565b919050565b6000604051905090565b600067ffffffffffffffff8211156200047c576200047b62000565565b5b6200048782620005a8565b9050602081019050919050565b60005b83811015620004b457808201518184015260208101905062000497565b83811115620004c4576000848401525b50505050565b60006002820490506001821680620004e357607f821691505b60208210811415620004fa57620004f962000536565b5b50919050565b6200050b82620005a8565b810181811067ffffffffffffffff821117156200052d576200052c62000565565b5b80604052505050565b7f4e487b7100000000000000000000000000000000000000000000000000000000600052602260045260246000fd5b7f4e487b7100000000000000000000000000000000000000000000000000000000600052604160045260246000fd5b600080fd5b600080fd5b600080fd5b600080fd5b6000601f19601f8301169050919050565b61229980620005c96000396000f3fe60806040526004361061009c5760003560e01c80633d65df70116100645780633d65df701461015557806360daa85114610186578063aa90c726146101b3578063b4a99a4e146101ca578063fd1ee54c146101f5578063fd93d41c146102325761009c565b80630390c11c146100a15780630a67d2c7146100cc5780631309a563146100e857806315460259146101135780633b6680591461012a575b600080fd5b3480156100ad57600080fd5b506100b6610270565b6040516100c39190611ad0565b60405180910390f35b6100e660048036038101906100e1919061159f565b610311565b005b3480156100f457600080fd5b506100fd61043b565b60405161010a9190611933565b60405180910390f35b34801561011f57600080fd5b5061012861044e565b005b34801561013657600080fd5b5061013f610558565b60405161014c9190611ad0565b60405180910390f35b61016f600480360381019061016a9190611572565b6105f7565b60405161017d929190611aeb565b60405180910390f35b34801561019257600080fd5b5061019b610884565b6040516101aa93929190611b44565b60405180910390f35b3480156101bf57600080fd5b506101c8610934565b005b3480156101d657600080fd5b506101df610a3e565b6040516101ec91906118be565b60405180910390f35b34801561020157600080fd5b5061021c600480360381019061021791906115f9565b610a64565b6040516102299190611b7b565b60405180910390f35b34801561023e57600080fd5b5061025960048036038101906102549190611572565b610a8e565b604051610267929190611aeb565b60405180910390f35b6000600b60019054906101000a900473ffffffffffffffffffffffffffffffffffffffff1673ffffffffffffffffffffffffffffffffffffffff166102b3610d5e565b73ffffffffffffffffffffffffffffffffffffffff1614610309576040517f08c379a000000000000000000000000000000000000000000000000000000000815260040161030090611a30565b60405180910390fd5b600454905090565b600b60019054906101000a900473ffffffffffffffffffffffffffffffffffffffff1673ffffffffffffffffffffffffffffffffffffffff16610352610d5e565b73ffffffffffffffffffffffffffffffffffffffff16146103a8576040517f08c379a000000000000000000000000000000000000000000000000000000000815260040161039f90611a30565b60405180910390fd5b6000479050600081116103f0576040517f08c379a00000000000000000000000000000000000000000000000000000000081526004016103e790611a90565b60405180910390fd5b8173ffffffffffffffffffffffffffffffffffffffff166108fc829081150290604051600060405180830381858888f19350505050158015610436573d6000803e3d6000fd5b505050565b600b60009054906101000a900460ff1681565b600b60019054906101000a900473ffffffffffffffffffffffffffffffffffffffff1673ffffffffffffffffffffffffffffffffffffffff1661048f610d5e565b73ffffffffffffffffffffffffffffffffffffffff16146104e5576040517f08c379a00000000000000000000000000000000000000000000000000000000081526004016104dc90611a30565b60405180910390fd5b60011515600b60009054906101000a900460ff1615151461053b576040517f08c379a0000000000000000000000000000000000000000000000000000000008152600401610532906119d0565b60405180910390fd5b6000600b60006101000a81548160ff021916908315150217905550565b6000600b60019054906101000a900473ffffffffffffffffffffffffffffffffffffffff1673ffffffffffffffffffffffffffffffffffffffff1661059b610d5e565b73ffffffffffffffffffffffffffffffffffffffff16146105f1576040517f08c379a00000000000000000000000000000000000000000000000000000000081526004016105e890611a30565b60405180910390fd5b47905090565b6000606060001515600b60009054906101000a900460ff16151514610651576040517f08c379a000000000000000000000000000000000000000000000000000000000815260040161064890611a50565b60405180910390fd5b6103e860045410610697576040517f08c379a000000000000000000000000000000000000000000000000000000000815260040161068e90611a70565b60405180910390fd5b601934146106da576040517f08c379a00000000000000000000000000000000000000000000000000000000081526004016106d1906119b0565b60405180910390fd5b60006106e4610d66565b905061077e8482600554600280546106fb90611cf4565b80601f016020809104026020016040519081016040528092919081815260200182805461072790611cf4565b80156107745780601f1061074957610100808354040283529160200191610774565b820191906000526020600020905b81548152906001019060200180831161075757829003601f168201915b5050505050610fcb565b61078f610789610d5e565b34611161565b600460008154809291906107a290611d57565b919050555080600960008673ffffffffffffffffffffffffffffffffffffffff1673ffffffffffffffffffffffffffffffffffffffff168152602001908152602001600020819055508060028080546107fa90611cf4565b80601f016020809104026020016040519081016040528092919081815260200182805461082690611cf4565b80156108735780601f1061084857610100808354040283529160200191610873565b820191906000526020600020905b81548152906001019060200180831161085657829003601f168201915b505050505090509250925050915091565b6000806000600b60019054906101000a900473ffffffffffffffffffffffffffffffffffffffff1673ffffffffffffffffffffffffffffffffffffffff166108ca610d5e565b73ffffffffffffffffffffffffffffffffffffffff1614610920576040517f08c379a000000000000000000000000000000000000000000000000000000000815260040161091790611a30565b60405180910390fd5b600654600754600854925092509250909192565b600b60019054906101000a900473ffffffffffffffffffffffffffffffffffffffff1673ffffffffffffffffffffffffffffffffffffffff16610975610d5e565b73ffffffffffffffffffffffffffffffffffffffff16146109cb576040517f08c379a00000000000000000000000000000000000000000000000000000000081526004016109c290611a30565b60405180910390fd5b60001515600b60009054906101000a900460ff16151514610a21576040517f08c379a0000000000000000000000000000000000000000000000000000000008152600401610a18906119f0565b60405180910390fd5b6001600b60006101000a81548160ff021916908315150217905550565b600b60019054906101000a900473ffffffffffffffffffffffffffffffffffffffff1681565b600381600a8110610a7457600080fd5b60209182820401919006915054906101000a900460ff1681565b60006060600b60019054906101000a900473ffffffffffffffffffffffffffffffffffffffff1673ffffffffffffffffffffffffffffffffffffffff16610ad3610d5e565b73ffffffffffffffffffffffffffffffffffffffff1614610b29576040517f08c379a0000000000000000000000000000000000000000000000000000000008152600401610b2090611a30565b60405180910390fd5b60001515600b60009054906101000a900460ff16151514610b7f576040517f08c379a0000000000000000000000000000000000000000000000000000000008152600401610b7690611a50565b60405180910390fd5b6103e860045410610bc5576040517f08c379a0000000000000000000000000000000000000000000000000000000008152600401610bbc90611a70565b60405180910390fd5b6000610bcf610d66565b9050610c69848260055460028054610be690611cf4565b80601f0160208091040260200160405190810160405280929190818152602001828054610c1290611cf4565b8015610c5f5780601f10610c3457610100808354040283529160200191610c5f565b820191906000526020600020905b815481529060010190602001808311610c4257829003601f168201915b5050505050610fcb565b60046000815480929190610c7c90611d57565b919050555080600960008673ffffffffffffffffffffffffffffffffffffffff1673ffffffffffffffffffffffffffffffffffffffff16815260200190815260200160002081905550806002808054610cd490611cf4565b80601f0160208091040260200160405190810160405280929190818152602001828054610d0090611cf4565b8015610d4d5780601f10610d2257610100808354040283529160200191610d4d565b820191906000526020600020905b815481529060010190602001808311610d3057829003601f168201915b505050505090509250925050915091565b600033905090565b6000801515600b60009054906101000a900460ff16151514610dbd576040517f08c379a0000000000000000000000000000000000000000000000000000000008152600401610db490611a50565b60405180910390fd5b6000610dc76111bb565b90506000600382600a8110610ddf57610dde611e8c565b5b602091828204019190069054906101000a900460ff1660ff169050600081148015610e0c57506032600654105b15610e7f576040518060400160405280600781526020017f4469616d6f6e640000000000000000000000000000000000000000000000000081525060029080519060200190610e5c92919061147b565b5060066000815480929190610e7090611d57565b91905055508092505050610fc8565b60018111158015610e9257506064600754105b15610f05576040518060400160405280600481526020017f476f6c640000000000000000000000000000000000000000000000000000000081525060029080519060200190610ee292919061147b565b5060076000815480929190610ef690611d57565b91905055508092505050610fc8565b60028111158015610f1a575061035260085411155b15610f8d576040518060400160405280600681526020017f53696c766572000000000000000000000000000000000000000000000000000081525060029080519060200190610f6a92919061147b565b5060086000815480929190610f7e90611d57565b91905055508092505050610fc8565b6040517f08c379a0000000000000000000000000000000000000000000000000000000008152600401610fbf90611a10565b60405180910390fd5b90565b600073ffffffffffffffffffffffffffffffffffffffff168473ffffffffffffffffffffffffffffffffffffffff16141561103b576040517f08c379a000000000000000000000000000000000000000000000000000000000815260040161103290611ab0565b60405180910390fd5b6000611045610d5e565b905061106681600087611057886111ff565b611060886111ff565b87611279565b8260008086815260200190815260200160002060008773ffffffffffffffffffffffffffffffffffffffff1673ffffffffffffffffffffffffffffffffffffffff16815260200190815260200160002060008282546110c59190611bd8565b925050819055508473ffffffffffffffffffffffffffffffffffffffff16600073ffffffffffffffffffffffffffffffffffffffff168273ffffffffffffffffffffffffffffffffffffffff167fc3d58168c5ae7397731d063d5bbf3d657854427343f4c083240f7aacaa2d0f628787604051611143929190611b1b565b60405180910390a461115a81600087878787611281565b5050505050565b80600a60008473ffffffffffffffffffffffffffffffffffffffff1673ffffffffffffffffffffffffffffffffffffffff16815260200190815260200160002060008282546111b09190611bd8565b925050819055505050565b600080600a42336040516020016111d3929190611892565b6040516020818303038152906040528051906020012060001c6111f69190611dce565b90508091505090565b60606000600167ffffffffffffffff81111561121e5761121d611ebb565b5b60405190808252806020026020018201604052801561124c5781602001602082028036833780820191505090505b509050828160008151811061126457611263611e8c565b5b60200260200101818152505080915050919050565b505050505050565b6112a08473ffffffffffffffffffffffffffffffffffffffff16611468565b15611460578373ffffffffffffffffffffffffffffffffffffffff1663f23a6e6187878686866040518663ffffffff1660e01b81526004016112e69594939291906118d9565b602060405180830381600087803b15801561130057600080fd5b505af192505050801561133157506040513d601f19601f8201168201806040525081019061132e91906115cc565b60015b6113d75761133d611eea565b806308c379a0141561139a5750611352612171565b8061135d575061139c565b806040517f08c379a0000000000000000000000000000000000000000000000000000000008152600401611391919061194e565b60405180910390fd5b505b6040517f08c379a00000000000000000000000000000000000000000000000000000000081526004016113ce90611970565b60405180910390fd5b63f23a6e6160e01b7bffffffffffffffffffffffffffffffffffffffffffffffffffffffff1916817bffffffffffffffffffffffffffffffffffffffffffffffffffffffff19161461145e576040517f08c379a000000000000000000000000000000000000000000000000000000000815260040161145590611990565b60405180910390fd5b505b505050505050565b600080823b905060008111915050919050565b82805461148790611cf4565b90600052602060002090601f0160209004810192826114a957600085556114f0565b82601f106114c257805160ff19168380011785556114f0565b828001600101855582156114f0579182015b828111156114ef5782518255916020019190600101906114d4565b5b5090506114fd9190611501565b5090565b5b8082111561151a576000816000905550600101611502565b5090565b60008135905061152d81612207565b92915050565b6000813590506115428161221e565b92915050565b60008151905061155781612235565b92915050565b60008135905061156c8161224c565b92915050565b60006020828403121561158857611587611f0c565b5b60006115968482850161151e565b91505092915050565b6000602082840312156115b5576115b4611f0c565b5b60006115c384828501611533565b91505092915050565b6000602082840312156115e2576115e1611f0c565b5b60006115f084828501611548565b91505092915050565b60006020828403121561160f5761160e611f0c565b5b600061161d8482850161155d565b91505092915050565b61162f81611c40565b82525050565b61163e81611c2e565b82525050565b61165561165082611c2e565b611da0565b82525050565b61166481611c52565b82525050565b600061167582611ba0565b61167f8185611bb6565b935061168f818560208601611cc1565b61169881611f11565b840191505092915050565b60006116ae82611bab565b6116b88185611bc7565b93506116c8818560208601611cc1565b6116d181611f11565b840191505092915050565b60006116e9603483611bc7565b91506116f482611f3c565b604082019050919050565b600061170c602883611bc7565b915061171782611f8b565b604082019050919050565b600061172f601983611bc7565b915061173a82611fda565b602082019050919050565b6000611752601b83611bc7565b915061175d82612003565b602082019050919050565b6000611775601b83611bc7565b91506117808261202c565b602082019050919050565b6000611798601283611bc7565b91506117a382612055565b602082019050919050565b60006117bb601c83611bc7565b91506117c68261207e565b602082019050919050565b60006117de601b83611bc7565b91506117e9826120a7565b602082019050919050565b6000611801601983611bc7565b915061180c826120d0565b602082019050919050565b6000611824601d83611bc7565b915061182f826120f9565b602082019050919050565b6000611847602183611bc7565b915061185282612122565b604082019050919050565b61186681611caa565b82525050565b61187d61187882611caa565b611dc4565b82525050565b61188c81611cb4565b82525050565b600061189e828561186c565b6020820191506118ae8284611644565b6014820191508190509392505050565b60006020820190506118d36000830184611626565b92915050565b600060a0820190506118ee6000830188611635565b6118fb6020830187611635565b611908604083018661185d565b611915606083018561185d565b8181036080830152611927818461166a565b90509695505050505050565b6000602082019050611948600083018461165b565b92915050565b6000602082019050818103600083015261196881846116a3565b905092915050565b60006020820190508181036000830152611989816116dc565b9050919050565b600060208201905081810360008301526119a9816116ff565b9050919050565b600060208201905081810360008301526119c981611722565b9050919050565b600060208201905081810360008301526119e981611745565b9050919050565b60006020820190508181036000830152611a0981611768565b9050919050565b60006020820190508181036000830152611a298161178b565b9050919050565b60006020820190508181036000830152611a49816117ae565b9050919050565b60006020820190508181036000830152611a69816117d1565b9050919050565b60006020820190508181036000830152611a89816117f4565b9050919050565b60006020820190508181036000830152611aa981611817565b9050919050565b60006020820190508181036000830152611ac98161183a565b9050919050565b6000602082019050611ae5600083018461185d565b92915050565b6000604082019050611b00600083018561185d565b8181036020830152611b1281846116a3565b90509392505050565b6000604082019050611b30600083018561185d565b611b3d602083018461185d565b9392505050565b6000606082019050611b59600083018661185d565b611b66602083018561185d565b611b73604083018461185d565b949350505050565b6000602082019050611b906000830184611883565b92915050565b6000604051905090565b600081519050919050565b600081519050919050565b600082825260208201905092915050565b600082825260208201905092915050565b6000611be382611caa565b9150611bee83611caa565b9250827fffffffffffffffffffffffffffffffffffffffffffffffffffffffffffffffff03821115611c2357611c22611dff565b5b828201905092915050565b6000611c3982611c8a565b9050919050565b6000611c4b82611c8a565b9050919050565b60008115159050919050565b60007fffffffff0000000000000000000000000000000000000000000000000000000082169050919050565b600073ffffffffffffffffffffffffffffffffffffffff82169050919050565b6000819050919050565b600060ff82169050919050565b60005b83811015611cdf578082015181840152602081019050611cc4565b83811115611cee576000848401525b50505050565b60006002820490506001821680611d0c57607f821691505b60208210811415611d2057611d1f611e5d565b5b50919050565b611d2f82611f11565b810181811067ffffffffffffffff82111715611d4e57611d4d611ebb565b5b80604052505050565b6000611d6282611caa565b91507fffffffffffffffffffffffffffffffffffffffffffffffffffffffffffffffff821415611d9557611d94611dff565b5b600182019050919050565b6000611dab82611db2565b9050919050565b6000611dbd82611f22565b9050919050565b6000819050919050565b6000611dd982611caa565b9150611de483611caa565b925082611df457611df3611e2e565b5b828206905092915050565b7f4e487b7100000000000000000000000000000000000000000000000000000000600052601160045260246000fd5b7f4e487b7100000000000000000000000000000000000000000000000000000000600052601260045260246000fd5b7f4e487b7100000000000000000000000000000000000000000000000000000000600052602260045260246000fd5b7f4e487b7100000000000000000000000000000000000000000000000000000000600052603260045260246000fd5b7f4e487b7100000000000000000000000000000000000000000000000000000000600052604160045260246000fd5b600060033d1115611f095760046000803e611f06600051611f2f565b90505b90565b600080fd5b6000601f19601f8301169050919050565b60008160601b9050919050565b60008160e01c9050919050565b7f455243313135353a207472616e7366657220746f206e6f6e204552433131353560008201527f526563656976657220696d706c656d656e746572000000000000000000000000602082015250565b7f455243313135353a204552433131353552656365697665722072656a6563746560008201527f6420746f6b656e73000000000000000000000000000000000000000000000000602082015250565b7f42616c616e6365206d757374206265203235204d617469637300000000000000600082015250565b7f44726f707369746520697320616c72656164792052756e6e696e670000000000600082015250565b7f44726f707369746520697320616c72656164792053746f707065640000000000600082015250565b7f536f6d65204572726f72204f6363757265640000000000000000000000000000600082015250565b7f4f6e6c79204e46542d4553204f776e65722063616e2041636365737300000000600082015250565b7f44726f7073697465206973206e6f74204f70656e6564205965742e0000000000600082015250565b7f4d6178204d696e74696e67204c696d6974207265616368656400000000000000600082015250565b7f4572726f7221204e6f2042616c616e636520746f207769746864726177000000600082015250565b7f455243313135353a206d696e7420746f20746865207a65726f2061646472657360008201527f7300000000000000000000000000000000000000000000000000000000000000602082015250565b600060443d101561218157612204565b612189611b96565b60043d036004823e80513d602482011167ffffffffffffffff821117156121b1575050612204565b808201805167ffffffffffffffff8111156121cf5750505050612204565b80602083010160043d0385018111156121ec575050505050612204565b6121fb82602001850186611d26565b82955050505050505b90565b61221081611c2e565b811461221b57600080fd5b50565b61222781611c40565b811461223257600080fd5b50565b61223e81611c5e565b811461224957600080fd5b50565b61225581611caa565b811461226057600080fd5b5056fea2646970667358221220e7e5666e7c5a58056c30b4b2adbba01fce6d7805ae9d0fdc1712033e9d75e1dc64736f6c63430008070033",
					"opcodes": "PUSH1 0x80 PUSH1 0x40 MSTORE PUSH1 0x40 MLOAD DUP1 PUSH1 0x20 ADD PUSH1 0x40 MSTORE DUP1 PUSH1 0x0 DUP2 MSTORE POP PUSH1 0x2 SWAP1 DUP1 MLOAD SWAP1 PUSH1 0x20 ADD SWAP1 PUSH3 0x2B SWAP3 SWAP2 SWAP1 PUSH3 0x184 JUMP JUMPDEST POP PUSH1 0x40 MLOAD DUP1 PUSH2 0x140 ADD PUSH1 0x40 MSTORE DUP1 PUSH1 0x0 PUSH1 0xFF AND DUP2 MSTORE PUSH1 0x20 ADD PUSH1 0x1 PUSH1 0xFF AND DUP2 MSTORE PUSH1 0x20 ADD PUSH1 0x1 PUSH1 0xFF AND DUP2 MSTORE PUSH1 0x20 ADD PUSH1 0x1 PUSH1 0xFF AND DUP2 MSTORE PUSH1 0x20 ADD PUSH1 0x2 PUSH1 0xFF AND DUP2 MSTORE PUSH1 0x20 ADD PUSH1 0x2 PUSH1 0xFF AND DUP2 MSTORE PUSH1 0x20 ADD PUSH1 0x2 PUSH1 0xFF AND DUP2 MSTORE PUSH1 0x20 ADD PUSH1 0x2 PUSH1 0xFF AND DUP2 MSTORE PUSH1 0x20 ADD PUSH1 0x2 PUSH1 0xFF AND DUP2 MSTORE PUSH1 0x20 ADD PUSH1 0x2 PUSH1 0xFF AND DUP2 MSTORE POP PUSH1 0x3 SWAP1 PUSH1 0xA PUSH3 0xAC SWAP3 SWAP2 SWAP1 PUSH3 0x215 JUMP JUMPDEST POP PUSH1 0x1 PUSH1 0xB PUSH1 0x0 PUSH2 0x100 EXP DUP2 SLOAD DUP2 PUSH1 0xFF MUL NOT AND SWAP1 DUP4 ISZERO ISZERO MUL OR SWAP1 SSTORE POP CALLVALUE DUP1 ISZERO PUSH3 0xD5 JUMPI PUSH1 0x0 DUP1 REVERT JUMPDEST POP PUSH1 0x40 MLOAD PUSH3 0x2862 CODESIZE SUB DUP1 PUSH3 0x2862 DUP4 CODECOPY DUP2 DUP2 ADD PUSH1 0x40 MSTORE DUP2 ADD SWAP1 PUSH3 0xFB SWAP2 SWAP1 PUSH3 0x3E4 JUMP JUMPDEST DUP1 PUSH1 0xC SWAP1 DUP1 MLOAD SWAP1 PUSH1 0x20 ADD SWAP1 PUSH3 0x113 SWAP3 SWAP2 SWAP1 PUSH3 0x2B6 JUMP JUMPDEST POP CALLER PUSH1 0xB PUSH1 0x1 PUSH2 0x100 EXP DUP2 SLOAD DUP2 PUSH20 0xFFFFFFFFFFFFFFFFFFFFFFFFFFFFFFFFFFFFFFFF MUL NOT AND SWAP1 DUP4 PUSH20 0xFFFFFFFFFFFFFFFFFFFFFFFFFFFFFFFFFFFFFFFF AND MUL OR SWAP1 SSTORE POP PUSH1 0x0 PUSH1 0x4 DUP2 SWAP1 SSTORE POP PUSH1 0x1 PUSH1 0x5 DUP2 SWAP1 SSTORE POP PUSH1 0x0 PUSH1 0x6 DUP2 SWAP1 SSTORE POP PUSH1 0x0 PUSH1 0x7 DUP2 SWAP1 SSTORE POP PUSH1 0x0 PUSH1 0x8 DUP2 SWAP1 SSTORE POP POP PUSH3 0x5B9 JUMP JUMPDEST DUP3 DUP1 SLOAD PUSH3 0x192 SWAP1 PUSH3 0x4CA JUMP JUMPDEST SWAP1 PUSH1 0x0 MSTORE PUSH1 0x20 PUSH1 0x0 KECCAK256 SWAP1 PUSH1 0x1F ADD PUSH1 0x20 SWAP1 DIV DUP2 ADD SWAP3 DUP3 PUSH3 0x1B6 JUMPI PUSH1 0x0 DUP6 SSTORE PUSH3 0x202 JUMP JUMPDEST DUP3 PUSH1 0x1F LT PUSH3 0x1D1 JUMPI DUP1 MLOAD PUSH1 0xFF NOT AND DUP4 DUP1 ADD OR DUP6 SSTORE PUSH3 0x202 JUMP JUMPDEST DUP3 DUP1 ADD PUSH1 0x1 ADD DUP6 SSTORE DUP3 ISZERO PUSH3 0x202 JUMPI SWAP2 DUP3 ADD JUMPDEST DUP3 DUP2 GT ISZERO PUSH3 0x201 JUMPI DUP3 MLOAD DUP3 SSTORE SWAP2 PUSH1 0x20 ADD SWAP2 SWAP1 PUSH1 0x1 ADD SWAP1 PUSH3 0x1E4 JUMP JUMPDEST JUMPDEST POP SWAP1 POP PUSH3 0x211 SWAP2 SWAP1 PUSH3 0x347 JUMP JUMPDEST POP SWAP1 JUMP JUMPDEST DUP3 PUSH1 0xA PUSH1 0x1F ADD PUSH1 0x20 SWAP1 DIV DUP2 ADD SWAP3 DUP3 ISZERO PUSH3 0x2A3 JUMPI SWAP2 PUSH1 0x20 MUL DUP3 ADD PUSH1 0x0 JUMPDEST DUP4 DUP3 GT ISZERO PUSH3 0x272 JUMPI DUP4 MLOAD DUP4 DUP3 PUSH2 0x100 EXP DUP2 SLOAD DUP2 PUSH1 0xFF MUL NOT AND SWAP1 DUP4 PUSH1 0xFF AND MUL OR SWAP1 SSTORE POP SWAP3 PUSH1 0x20 ADD SWAP3 PUSH1 0x1 ADD PUSH1 0x20 DUP2 PUSH1 0x0 ADD DIV SWAP3 DUP4 ADD SWAP3 PUSH1 0x1 SUB MUL PUSH3 0x232 JUMP JUMPDEST DUP1 ISZERO PUSH3 0x2A1 JUMPI DUP3 DUP2 PUSH2 0x100 EXP DUP2 SLOAD SWAP1 PUSH1 0xFF MUL NOT AND SWAP1 SSTORE PUSH1 0x1 ADD PUSH1 0x20 DUP2 PUSH1 0x0 ADD DIV SWAP3 DUP4 ADD SWAP3 PUSH1 0x1 SUB MUL PUSH3 0x272 JUMP JUMPDEST POP JUMPDEST POP SWAP1 POP PUSH3 0x2B2 SWAP2 SWAP1 PUSH3 0x347 JUMP JUMPDEST POP SWAP1 JUMP JUMPDEST DUP3 DUP1 SLOAD PUSH3 0x2C4 SWAP1 PUSH3 0x4CA JUMP JUMPDEST SWAP1 PUSH1 0x0 MSTORE PUSH1 0x20 PUSH1 0x0 KECCAK256 SWAP1 PUSH1 0x1F ADD PUSH1 0x20 SWAP1 DIV DUP2 ADD SWAP3 DUP3 PUSH3 0x2E8 JUMPI PUSH1 0x0 DUP6 SSTORE PUSH3 0x334 JUMP JUMPDEST DUP3 PUSH1 0x1F LT PUSH3 0x303 JUMPI DUP1 MLOAD PUSH1 0xFF NOT AND DUP4 DUP1 ADD OR DUP6 SSTORE PUSH3 0x334 JUMP JUMPDEST DUP3 DUP1 ADD PUSH1 0x1 ADD DUP6 SSTORE DUP3 ISZERO PUSH3 0x334 JUMPI SWAP2 DUP3 ADD JUMPDEST DUP3 DUP2 GT ISZERO PUSH3 0x333 JUMPI DUP3 MLOAD DUP3 SSTORE SWAP2 PUSH1 0x20 ADD SWAP2 SWAP1 PUSH1 0x1 ADD SWAP1 PUSH3 0x316 JUMP JUMPDEST JUMPDEST POP SWAP1 POP PUSH3 0x343 SWAP2 SWAP1 PUSH3 0x347 JUMP JUMPDEST POP SWAP1 JUMP JUMPDEST JUMPDEST DUP1 DUP3 GT ISZERO PUSH3 0x362 JUMPI PUSH1 0x0 DUP2 PUSH1 0x0 SWAP1 SSTORE POP PUSH1 0x1 ADD PUSH3 0x348 JUMP JUMPDEST POP SWAP1 JUMP JUMPDEST PUSH1 0x0 PUSH3 0x37D PUSH3 0x377 DUP5 PUSH3 0x45E JUMP JUMPDEST PUSH3 0x435 JUMP JUMPDEST SWAP1 POP DUP3 DUP2 MSTORE PUSH1 0x20 DUP2 ADD DUP5 DUP5 DUP5 ADD GT ISZERO PUSH3 0x39C JUMPI PUSH3 0x39B PUSH3 0x599 JUMP JUMPDEST JUMPDEST PUSH3 0x3A9 DUP5 DUP3 DUP6 PUSH3 0x494 JUMP JUMPDEST POP SWAP4 SWAP3 POP POP POP JUMP JUMPDEST PUSH1 0x0 DUP3 PUSH1 0x1F DUP4 ADD SLT PUSH3 0x3C9 JUMPI PUSH3 0x3C8 PUSH3 0x594 JUMP JUMPDEST JUMPDEST DUP2 MLOAD PUSH3 0x3DB DUP5 DUP3 PUSH1 0x20 DUP7 ADD PUSH3 0x366 JUMP JUMPDEST SWAP2 POP POP SWAP3 SWAP2 POP POP JUMP JUMPDEST PUSH1 0x0 PUSH1 0x20 DUP3 DUP5 SUB SLT ISZERO PUSH3 0x3FD JUMPI PUSH3 0x3FC PUSH3 0x5A3 JUMP JUMPDEST JUMPDEST PUSH1 0x0 DUP3 ADD MLOAD PUSH8 0xFFFFFFFFFFFFFFFF DUP2 GT ISZERO PUSH3 0x41E JUMPI PUSH3 0x41D PUSH3 0x59E JUMP JUMPDEST JUMPDEST PUSH3 0x42C DUP5 DUP3 DUP6 ADD PUSH3 0x3B1 JUMP JUMPDEST SWAP2 POP POP SWAP3 SWAP2 POP POP JUMP JUMPDEST PUSH1 0x0 PUSH3 0x441 PUSH3 0x454 JUMP JUMPDEST SWAP1 POP PUSH3 0x44F DUP3 DUP3 PUSH3 0x500 JUMP JUMPDEST SWAP2 SWAP1 POP JUMP JUMPDEST PUSH1 0x0 PUSH1 0x40 MLOAD SWAP1 POP SWAP1 JUMP JUMPDEST PUSH1 0x0 PUSH8 0xFFFFFFFFFFFFFFFF DUP3 GT ISZERO PUSH3 0x47C JUMPI PUSH3 0x47B PUSH3 0x565 JUMP JUMPDEST JUMPDEST PUSH3 0x487 DUP3 PUSH3 0x5A8 JUMP JUMPDEST SWAP1 POP PUSH1 0x20 DUP2 ADD SWAP1 POP SWAP2 SWAP1 POP JUMP JUMPDEST PUSH1 0x0 JUMPDEST DUP4 DUP2 LT ISZERO PUSH3 0x4B4 JUMPI DUP1 DUP3 ADD MLOAD DUP2 DUP5 ADD MSTORE PUSH1 0x20 DUP2 ADD SWAP1 POP PUSH3 0x497 JUMP JUMPDEST DUP4 DUP2 GT ISZERO PUSH3 0x4C4 JUMPI PUSH1 0x0 DUP5 DUP5 ADD MSTORE JUMPDEST POP POP POP POP JUMP JUMPDEST PUSH1 0x0 PUSH1 0x2 DUP3 DIV SWAP1 POP PUSH1 0x1 DUP3 AND DUP1 PUSH3 0x4E3 JUMPI PUSH1 0x7F DUP3 AND SWAP2 POP JUMPDEST PUSH1 0x20 DUP3 LT DUP2 EQ ISZERO PUSH3 0x4FA JUMPI PUSH3 0x4F9 PUSH3 0x536 JUMP JUMPDEST JUMPDEST POP SWAP2 SWAP1 POP JUMP JUMPDEST PUSH3 0x50B DUP3 PUSH3 0x5A8 JUMP JUMPDEST DUP2 ADD DUP2 DUP2 LT PUSH8 0xFFFFFFFFFFFFFFFF DUP3 GT OR ISZERO PUSH3 0x52D JUMPI PUSH3 0x52C PUSH3 0x565 JUMP JUMPDEST JUMPDEST DUP1 PUSH1 0x40 MSTORE POP POP POP JUMP JUMPDEST PUSH32 0x4E487B7100000000000000000000000000000000000000000000000000000000 PUSH1 0x0 MSTORE PUSH1 0x22 PUSH1 0x4 MSTORE PUSH1 0x24 PUSH1 0x0 REVERT JUMPDEST PUSH32 0x4E487B7100000000000000000000000000000000000000000000000000000000 PUSH1 0x0 MSTORE PUSH1 0x41 PUSH1 0x4 MSTORE PUSH1 0x24 PUSH1 0x0 REVERT JUMPDEST PUSH1 0x0 DUP1 REVERT JUMPDEST PUSH1 0x0 DUP1 REVERT JUMPDEST PUSH1 0x0 DUP1 REVERT JUMPDEST PUSH1 0x0 DUP1 REVERT JUMPDEST PUSH1 0x0 PUSH1 0x1F NOT PUSH1 0x1F DUP4 ADD AND SWAP1 POP SWAP2 SWAP1 POP JUMP JUMPDEST PUSH2 0x2299 DUP1 PUSH3 0x5C9 PUSH1 0x0 CODECOPY PUSH1 0x0 RETURN INVALID PUSH1 0x80 PUSH1 0x40 MSTORE PUSH1 0x4 CALLDATASIZE LT PUSH2 0x9C JUMPI PUSH1 0x0 CALLDATALOAD PUSH1 0xE0 SHR DUP1 PUSH4 0x3D65DF70 GT PUSH2 0x64 JUMPI DUP1 PUSH4 0x3D65DF70 EQ PUSH2 0x155 JUMPI DUP1 PUSH4 0x60DAA851 EQ PUSH2 0x186 JUMPI DUP1 PUSH4 0xAA90C726 EQ PUSH2 0x1B3 JUMPI DUP1 PUSH4 0xB4A99A4E EQ PUSH2 0x1CA JUMPI DUP1 PUSH4 0xFD1EE54C EQ PUSH2 0x1F5 JUMPI DUP1 PUSH4 0xFD93D41C EQ PUSH2 0x232 JUMPI PUSH2 0x9C JUMP JUMPDEST DUP1 PUSH4 0x390C11C EQ PUSH2 0xA1 JUMPI DUP1 PUSH4 0xA67D2C7 EQ PUSH2 0xCC JUMPI DUP1 PUSH4 0x1309A563 EQ PUSH2 0xE8 JUMPI DUP1 PUSH4 0x15460259 EQ PUSH2 0x113 JUMPI DUP1 PUSH4 0x3B668059 EQ PUSH2 0x12A JUMPI JUMPDEST PUSH1 0x0 DUP1 REVERT JUMPDEST CALLVALUE DUP1 ISZERO PUSH2 0xAD JUMPI PUSH1 0x0 DUP1 REVERT JUMPDEST POP PUSH2 0xB6 PUSH2 0x270 JUMP JUMPDEST PUSH1 0x40 MLOAD PUSH2 0xC3 SWAP2 SWAP1 PUSH2 0x1AD0 JUMP JUMPDEST PUSH1 0x40 MLOAD DUP1 SWAP2 SUB SWAP1 RETURN JUMPDEST PUSH2 0xE6 PUSH1 0x4 DUP1 CALLDATASIZE SUB DUP2 ADD SWAP1 PUSH2 0xE1 SWAP2 SWAP1 PUSH2 0x159F JUMP JUMPDEST PUSH2 0x311 JUMP JUMPDEST STOP JUMPDEST CALLVALUE DUP1 ISZERO PUSH2 0xF4 JUMPI PUSH1 0x0 DUP1 REVERT JUMPDEST POP PUSH2 0xFD PUSH2 0x43B JUMP JUMPDEST PUSH1 0x40 MLOAD PUSH2 0x10A SWAP2 SWAP1 PUSH2 0x1933 JUMP JUMPDEST PUSH1 0x40 MLOAD DUP1 SWAP2 SUB SWAP1 RETURN JUMPDEST CALLVALUE DUP1 ISZERO PUSH2 0x11F JUMPI PUSH1 0x0 DUP1 REVERT JUMPDEST POP PUSH2 0x128 PUSH2 0x44E JUMP JUMPDEST STOP JUMPDEST CALLVALUE DUP1 ISZERO PUSH2 0x136 JUMPI PUSH1 0x0 DUP1 REVERT JUMPDEST POP PUSH2 0x13F PUSH2 0x558 JUMP JUMPDEST PUSH1 0x40 MLOAD PUSH2 0x14C SWAP2 SWAP1 PUSH2 0x1AD0 JUMP JUMPDEST PUSH1 0x40 MLOAD DUP1 SWAP2 SUB SWAP1 RETURN JUMPDEST PUSH2 0x16F PUSH1 0x4 DUP1 CALLDATASIZE SUB DUP2 ADD SWAP1 PUSH2 0x16A SWAP2 SWAP1 PUSH2 0x1572 JUMP JUMPDEST PUSH2 0x5F7 JUMP JUMPDEST PUSH1 0x40 MLOAD PUSH2 0x17D SWAP3 SWAP2 SWAP1 PUSH2 0x1AEB JUMP JUMPDEST PUSH1 0x40 MLOAD DUP1 SWAP2 SUB SWAP1 RETURN JUMPDEST CALLVALUE DUP1 ISZERO PUSH2 0x192 JUMPI PUSH1 0x0 DUP1 REVERT JUMPDEST POP PUSH2 0x19B PUSH2 0x884 JUMP JUMPDEST PUSH1 0x40 MLOAD PUSH2 0x1AA SWAP4 SWAP3 SWAP2 SWAP1 PUSH2 0x1B44 JUMP JUMPDEST PUSH1 0x40 MLOAD DUP1 SWAP2 SUB SWAP1 RETURN JUMPDEST CALLVALUE DUP1 ISZERO PUSH2 0x1BF JUMPI PUSH1 0x0 DUP1 REVERT JUMPDEST POP PUSH2 0x1C8 PUSH2 0x934 JUMP JUMPDEST STOP JUMPDEST CALLVALUE DUP1 ISZERO PUSH2 0x1D6 JUMPI PUSH1 0x0 DUP1 REVERT JUMPDEST POP PUSH2 0x1DF PUSH2 0xA3E JUMP JUMPDEST PUSH1 0x40 MLOAD PUSH2 0x1EC SWAP2 SWAP1 PUSH2 0x18BE JUMP JUMPDEST PUSH1 0x40 MLOAD DUP1 SWAP2 SUB SWAP1 RETURN JUMPDEST CALLVALUE DUP1 ISZERO PUSH2 0x201 JUMPI PUSH1 0x0 DUP1 REVERT JUMPDEST POP PUSH2 0x21C PUSH1 0x4 DUP1 CALLDATASIZE SUB DUP2 ADD SWAP1 PUSH2 0x217 SWAP2 SWAP1 PUSH2 0x15F9 JUMP JUMPDEST PUSH2 0xA64 JUMP JUMPDEST PUSH1 0x40 MLOAD PUSH2 0x229 SWAP2 SWAP1 PUSH2 0x1B7B JUMP JUMPDEST PUSH1 0x40 MLOAD DUP1 SWAP2 SUB SWAP1 RETURN JUMPDEST CALLVALUE DUP1 ISZERO PUSH2 0x23E JUMPI PUSH1 0x0 DUP1 REVERT JUMPDEST POP PUSH2 0x259 PUSH1 0x4 DUP1 CALLDATASIZE SUB DUP2 ADD SWAP1 PUSH2 0x254 SWAP2 SWAP1 PUSH2 0x1572 JUMP JUMPDEST PUSH2 0xA8E JUMP JUMPDEST PUSH1 0x40 MLOAD PUSH2 0x267 SWAP3 SWAP2 SWAP1 PUSH2 0x1AEB JUMP JUMPDEST PUSH1 0x40 MLOAD DUP1 SWAP2 SUB SWAP1 RETURN JUMPDEST PUSH1 0x0 PUSH1 0xB PUSH1 0x1 SWAP1 SLOAD SWAP1 PUSH2 0x100 EXP SWAP1 DIV PUSH20 0xFFFFFFFFFFFFFFFFFFFFFFFFFFFFFFFFFFFFFFFF AND PUSH20 0xFFFFFFFFFFFFFFFFFFFFFFFFFFFFFFFFFFFFFFFF AND PUSH2 0x2B3 PUSH2 0xD5E JUMP JUMPDEST PUSH20 0xFFFFFFFFFFFFFFFFFFFFFFFFFFFFFFFFFFFFFFFF AND EQ PUSH2 0x309 JUMPI PUSH1 0x40 MLOAD PUSH32 0x8C379A000000000000000000000000000000000000000000000000000000000 DUP2 MSTORE PUSH1 0x4 ADD PUSH2 0x300 SWAP1 PUSH2 0x1A30 JUMP JUMPDEST PUSH1 0x40 MLOAD DUP1 SWAP2 SUB SWAP1 REVERT JUMPDEST PUSH1 0x4 SLOAD SWAP1 POP SWAP1 JUMP JUMPDEST PUSH1 0xB PUSH1 0x1 SWAP1 SLOAD SWAP1 PUSH2 0x100 EXP SWAP1 DIV PUSH20 0xFFFFFFFFFFFFFFFFFFFFFFFFFFFFFFFFFFFFFFFF AND PUSH20 0xFFFFFFFFFFFFFFFFFFFFFFFFFFFFFFFFFFFFFFFF AND PUSH2 0x352 PUSH2 0xD5E JUMP JUMPDEST PUSH20 0xFFFFFFFFFFFFFFFFFFFFFFFFFFFFFFFFFFFFFFFF AND EQ PUSH2 0x3A8 JUMPI PUSH1 0x40 MLOAD PUSH32 0x8C379A000000000000000000000000000000000000000000000000000000000 DUP2 MSTORE PUSH1 0x4 ADD PUSH2 0x39F SWAP1 PUSH2 0x1A30 JUMP JUMPDEST PUSH1 0x40 MLOAD DUP1 SWAP2 SUB SWAP1 REVERT JUMPDEST PUSH1 0x0 SELFBALANCE SWAP1 POP PUSH1 0x0 DUP2 GT PUSH2 0x3F0 JUMPI PUSH1 0x40 MLOAD PUSH32 0x8C379A000000000000000000000000000000000000000000000000000000000 DUP2 MSTORE PUSH1 0x4 ADD PUSH2 0x3E7 SWAP1 PUSH2 0x1A90 JUMP JUMPDEST PUSH1 0x40 MLOAD DUP1 SWAP2 SUB SWAP1 REVERT JUMPDEST DUP2 PUSH20 0xFFFFFFFFFFFFFFFFFFFFFFFFFFFFFFFFFFFFFFFF AND PUSH2 0x8FC DUP3 SWAP1 DUP2 ISZERO MUL SWAP1 PUSH1 0x40 MLOAD PUSH1 0x0 PUSH1 0x40 MLOAD DUP1 DUP4 SUB DUP2 DUP6 DUP9 DUP9 CALL SWAP4 POP POP POP POP ISZERO DUP1 ISZERO PUSH2 0x436 JUMPI RETURNDATASIZE PUSH1 0x0 DUP1 RETURNDATACOPY RETURNDATASIZE PUSH1 0x0 REVERT JUMPDEST POP POP POP JUMP JUMPDEST PUSH1 0xB PUSH1 0x0 SWAP1 SLOAD SWAP1 PUSH2 0x100 EXP SWAP1 DIV PUSH1 0xFF AND DUP2 JUMP JUMPDEST PUSH1 0xB PUSH1 0x1 SWAP1 SLOAD SWAP1 PUSH2 0x100 EXP SWAP1 DIV PUSH20 0xFFFFFFFFFFFFFFFFFFFFFFFFFFFFFFFFFFFFFFFF AND PUSH20 0xFFFFFFFFFFFFFFFFFFFFFFFFFFFFFFFFFFFFFFFF AND PUSH2 0x48F PUSH2 0xD5E JUMP JUMPDEST PUSH20 0xFFFFFFFFFFFFFFFFFFFFFFFFFFFFFFFFFFFFFFFF AND EQ PUSH2 0x4E5 JUMPI PUSH1 0x40 MLOAD PUSH32 0x8C379A000000000000000000000000000000000000000000000000000000000 DUP2 MSTORE PUSH1 0x4 ADD PUSH2 0x4DC SWAP1 PUSH2 0x1A30 JUMP JUMPDEST PUSH1 0x40 MLOAD DUP1 SWAP2 SUB SWAP1 REVERT JUMPDEST PUSH1 0x1 ISZERO ISZERO PUSH1 0xB PUSH1 0x0 SWAP1 SLOAD SWAP1 PUSH2 0x100 EXP SWAP1 DIV PUSH1 0xFF AND ISZERO ISZERO EQ PUSH2 0x53B JUMPI PUSH1 0x40 MLOAD PUSH32 0x8C379A000000000000000000000000000000000000000000000000000000000 DUP2 MSTORE PUSH1 0x4 ADD PUSH2 0x532 SWAP1 PUSH2 0x19D0 JUMP JUMPDEST PUSH1 0x40 MLOAD DUP1 SWAP2 SUB SWAP1 REVERT JUMPDEST PUSH1 0x0 PUSH1 0xB PUSH1 0x0 PUSH2 0x100 EXP DUP2 SLOAD DUP2 PUSH1 0xFF MUL NOT AND SWAP1 DUP4 ISZERO ISZERO MUL OR SWAP1 SSTORE POP JUMP JUMPDEST PUSH1 0x0 PUSH1 0xB PUSH1 0x1 SWAP1 SLOAD SWAP1 PUSH2 0x100 EXP SWAP1 DIV PUSH20 0xFFFFFFFFFFFFFFFFFFFFFFFFFFFFFFFFFFFFFFFF AND PUSH20 0xFFFFFFFFFFFFFFFFFFFFFFFFFFFFFFFFFFFFFFFF AND PUSH2 0x59B PUSH2 0xD5E JUMP JUMPDEST PUSH20 0xFFFFFFFFFFFFFFFFFFFFFFFFFFFFFFFFFFFFFFFF AND EQ PUSH2 0x5F1 JUMPI PUSH1 0x40 MLOAD PUSH32 0x8C379A000000000000000000000000000000000000000000000000000000000 DUP2 MSTORE PUSH1 0x4 ADD PUSH2 0x5E8 SWAP1 PUSH2 0x1A30 JUMP JUMPDEST PUSH1 0x40 MLOAD DUP1 SWAP2 SUB SWAP1 REVERT JUMPDEST SELFBALANCE SWAP1 POP SWAP1 JUMP JUMPDEST PUSH1 0x0 PUSH1 0x60 PUSH1 0x0 ISZERO ISZERO PUSH1 0xB PUSH1 0x0 SWAP1 SLOAD SWAP1 PUSH2 0x100 EXP SWAP1 DIV PUSH1 0xFF AND ISZERO ISZERO EQ PUSH2 0x651 JUMPI PUSH1 0x40 MLOAD PUSH32 0x8C379A000000000000000000000000000000000000000000000000000000000 DUP2 MSTORE PUSH1 0x4 ADD PUSH2 0x648 SWAP1 PUSH2 0x1A50 JUMP JUMPDEST PUSH1 0x40 MLOAD DUP1 SWAP2 SUB SWAP1 REVERT JUMPDEST PUSH2 0x3E8 PUSH1 0x4 SLOAD LT PUSH2 0x697 JUMPI PUSH1 0x40 MLOAD PUSH32 0x8C379A000000000000000000000000000000000000000000000000000000000 DUP2 MSTORE PUSH1 0x4 ADD PUSH2 0x68E SWAP1 PUSH2 0x1A70 JUMP JUMPDEST PUSH1 0x40 MLOAD DUP1 SWAP2 SUB SWAP1 REVERT JUMPDEST PUSH1 0x19 CALLVALUE EQ PUSH2 0x6DA JUMPI PUSH1 0x40 MLOAD PUSH32 0x8C379A000000000000000000000000000000000000000000000000000000000 DUP2 MSTORE PUSH1 0x4 ADD PUSH2 0x6D1 SWAP1 PUSH2 0x19B0 JUMP JUMPDEST PUSH1 0x40 MLOAD DUP1 SWAP2 SUB SWAP1 REVERT JUMPDEST PUSH1 0x0 PUSH2 0x6E4 PUSH2 0xD66 JUMP JUMPDEST SWAP1 POP PUSH2 0x77E DUP5 DUP3 PUSH1 0x5 SLOAD PUSH1 0x2 DUP1 SLOAD PUSH2 0x6FB SWAP1 PUSH2 0x1CF4 JUMP JUMPDEST DUP1 PUSH1 0x1F ADD PUSH1 0x20 DUP1 SWAP2 DIV MUL PUSH1 0x20 ADD PUSH1 0x40 MLOAD SWAP1 DUP2 ADD PUSH1 0x40 MSTORE DUP1 SWAP3 SWAP2 SWAP1 DUP2 DUP2 MSTORE PUSH1 0x20 ADD DUP3 DUP1 SLOAD PUSH2 0x727 SWAP1 PUSH2 0x1CF4 JUMP JUMPDEST DUP1 ISZERO PUSH2 0x774 JUMPI DUP1 PUSH1 0x1F LT PUSH2 0x749 JUMPI PUSH2 0x100 DUP1 DUP4 SLOAD DIV MUL DUP4 MSTORE SWAP2 PUSH1 0x20 ADD SWAP2 PUSH2 0x774 JUMP JUMPDEST DUP3 ADD SWAP2 SWAP1 PUSH1 0x0 MSTORE PUSH1 0x20 PUSH1 0x0 KECCAK256 SWAP1 JUMPDEST DUP2 SLOAD DUP2 MSTORE SWAP1 PUSH1 0x1 ADD SWAP1 PUSH1 0x20 ADD DUP1 DUP4 GT PUSH2 0x757 JUMPI DUP3 SWAP1 SUB PUSH1 0x1F AND DUP3 ADD SWAP2 JUMPDEST POP POP POP POP POP PUSH2 0xFCB JUMP JUMPDEST PUSH2 0x78F PUSH2 0x789 PUSH2 0xD5E JUMP JUMPDEST CALLVALUE PUSH2 0x1161 JUMP JUMPDEST PUSH1 0x4 PUSH1 0x0 DUP2 SLOAD DUP1 SWAP3 SWAP2 SWAP1 PUSH2 0x7A2 SWAP1 PUSH2 0x1D57 JUMP JUMPDEST SWAP2 SWAP1 POP SSTORE POP DUP1 PUSH1 0x9 PUSH1 0x0 DUP7 PUSH20 0xFFFFFFFFFFFFFFFFFFFFFFFFFFFFFFFFFFFFFFFF AND PUSH20 0xFFFFFFFFFFFFFFFFFFFFFFFFFFFFFFFFFFFFFFFF AND DUP2 MSTORE PUSH1 0x20 ADD SWAP1 DUP2 MSTORE PUSH1 0x20 ADD PUSH1 0x0 KECCAK256 DUP2 SWAP1 SSTORE POP DUP1 PUSH1 0x2 DUP1 DUP1 SLOAD PUSH2 0x7FA SWAP1 PUSH2 0x1CF4 JUMP JUMPDEST DUP1 PUSH1 0x1F ADD PUSH1 0x20 DUP1 SWAP2 DIV MUL PUSH1 0x20 ADD PUSH1 0x40 MLOAD SWAP1 DUP2 ADD PUSH1 0x40 MSTORE DUP1 SWAP3 SWAP2 SWAP1 DUP2 DUP2 MSTORE PUSH1 0x20 ADD DUP3 DUP1 SLOAD PUSH2 0x826 SWAP1 PUSH2 0x1CF4 JUMP JUMPDEST DUP1 ISZERO PUSH2 0x873 JUMPI DUP1 PUSH1 0x1F LT PUSH2 0x848 JUMPI PUSH2 0x100 DUP1 DUP4 SLOAD DIV MUL DUP4 MSTORE SWAP2 PUSH1 0x20 ADD SWAP2 PUSH2 0x873 JUMP JUMPDEST DUP3 ADD SWAP2 SWAP1 PUSH1 0x0 MSTORE PUSH1 0x20 PUSH1 0x0 KECCAK256 SWAP1 JUMPDEST DUP2 SLOAD DUP2 MSTORE SWAP1 PUSH1 0x1 ADD SWAP1 PUSH1 0x20 ADD DUP1 DUP4 GT PUSH2 0x856 JUMPI DUP3 SWAP1 SUB PUSH1 0x1F AND DUP3 ADD SWAP2 JUMPDEST POP POP POP POP POP SWAP1 POP SWAP3 POP SWAP3 POP POP SWAP2 POP SWAP2 JUMP JUMPDEST PUSH1 0x0 DUP1 PUSH1 0x0 PUSH1 0xB PUSH1 0x1 SWAP1 SLOAD SWAP1 PUSH2 0x100 EXP SWAP1 DIV PUSH20 0xFFFFFFFFFFFFFFFFFFFFFFFFFFFFFFFFFFFFFFFF AND PUSH20 0xFFFFFFFFFFFFFFFFFFFFFFFFFFFFFFFFFFFFFFFF AND PUSH2 0x8CA PUSH2 0xD5E JUMP JUMPDEST PUSH20 0xFFFFFFFFFFFFFFFFFFFFFFFFFFFFFFFFFFFFFFFF AND EQ PUSH2 0x920 JUMPI PUSH1 0x40 MLOAD PUSH32 0x8C379A000000000000000000000000000000000000000000000000000000000 DUP2 MSTORE PUSH1 0x4 ADD PUSH2 0x917 SWAP1 PUSH2 0x1A30 JUMP JUMPDEST PUSH1 0x40 MLOAD DUP1 SWAP2 SUB SWAP1 REVERT JUMPDEST PUSH1 0x6 SLOAD PUSH1 0x7 SLOAD PUSH1 0x8 SLOAD SWAP3 POP SWAP3 POP SWAP3 POP SWAP1 SWAP2 SWAP3 JUMP JUMPDEST PUSH1 0xB PUSH1 0x1 SWAP1 SLOAD SWAP1 PUSH2 0x100 EXP SWAP1 DIV PUSH20 0xFFFFFFFFFFFFFFFFFFFFFFFFFFFFFFFFFFFFFFFF AND PUSH20 0xFFFFFFFFFFFFFFFFFFFFFFFFFFFFFFFFFFFFFFFF AND PUSH2 0x975 PUSH2 0xD5E JUMP JUMPDEST PUSH20 0xFFFFFFFFFFFFFFFFFFFFFFFFFFFFFFFFFFFFFFFF AND EQ PUSH2 0x9CB JUMPI PUSH1 0x40 MLOAD PUSH32 0x8C379A000000000000000000000000000000000000000000000000000000000 DUP2 MSTORE PUSH1 0x4 ADD PUSH2 0x9C2 SWAP1 PUSH2 0x1A30 JUMP JUMPDEST PUSH1 0x40 MLOAD DUP1 SWAP2 SUB SWAP1 REVERT JUMPDEST PUSH1 0x0 ISZERO ISZERO PUSH1 0xB PUSH1 0x0 SWAP1 SLOAD SWAP1 PUSH2 0x100 EXP SWAP1 DIV PUSH1 0xFF AND ISZERO ISZERO EQ PUSH2 0xA21 JUMPI PUSH1 0x40 MLOAD PUSH32 0x8C379A000000000000000000000000000000000000000000000000000000000 DUP2 MSTORE PUSH1 0x4 ADD PUSH2 0xA18 SWAP1 PUSH2 0x19F0 JUMP JUMPDEST PUSH1 0x40 MLOAD DUP1 SWAP2 SUB SWAP1 REVERT JUMPDEST PUSH1 0x1 PUSH1 0xB PUSH1 0x0 PUSH2 0x100 EXP DUP2 SLOAD DUP2 PUSH1 0xFF MUL NOT AND SWAP1 DUP4 ISZERO ISZERO MUL OR SWAP1 SSTORE POP JUMP JUMPDEST PUSH1 0xB PUSH1 0x1 SWAP1 SLOAD SWAP1 PUSH2 0x100 EXP SWAP1 DIV PUSH20 0xFFFFFFFFFFFFFFFFFFFFFFFFFFFFFFFFFFFFFFFF AND DUP2 JUMP JUMPDEST PUSH1 0x3 DUP2 PUSH1 0xA DUP2 LT PUSH2 0xA74 JUMPI PUSH1 0x0 DUP1 REVERT JUMPDEST PUSH1 0x20 SWAP2 DUP3 DUP3 DIV ADD SWAP2 SWAP1 MOD SWAP2 POP SLOAD SWAP1 PUSH2 0x100 EXP SWAP1 DIV PUSH1 0xFF AND DUP2 JUMP JUMPDEST PUSH1 0x0 PUSH1 0x60 PUSH1 0xB PUSH1 0x1 SWAP1 SLOAD SWAP1 PUSH2 0x100 EXP SWAP1 DIV PUSH20 0xFFFFFFFFFFFFFFFFFFFFFFFFFFFFFFFFFFFFFFFF AND PUSH20 0xFFFFFFFFFFFFFFFFFFFFFFFFFFFFFFFFFFFFFFFF AND PUSH2 0xAD3 PUSH2 0xD5E JUMP JUMPDEST PUSH20 0xFFFFFFFFFFFFFFFFFFFFFFFFFFFFFFFFFFFFFFFF AND EQ PUSH2 0xB29 JUMPI PUSH1 0x40 MLOAD PUSH32 0x8C379A000000000000000000000000000000000000000000000000000000000 DUP2 MSTORE PUSH1 0x4 ADD PUSH2 0xB20 SWAP1 PUSH2 0x1A30 JUMP JUMPDEST PUSH1 0x40 MLOAD DUP1 SWAP2 SUB SWAP1 REVERT JUMPDEST PUSH1 0x0 ISZERO ISZERO PUSH1 0xB PUSH1 0x0 SWAP1 SLOAD SWAP1 PUSH2 0x100 EXP SWAP1 DIV PUSH1 0xFF AND ISZERO ISZERO EQ PUSH2 0xB7F JUMPI PUSH1 0x40 MLOAD PUSH32 0x8C379A000000000000000000000000000000000000000000000000000000000 DUP2 MSTORE PUSH1 0x4 ADD PUSH2 0xB76 SWAP1 PUSH2 0x1A50 JUMP JUMPDEST PUSH1 0x40 MLOAD DUP1 SWAP2 SUB SWAP1 REVERT JUMPDEST PUSH2 0x3E8 PUSH1 0x4 SLOAD LT PUSH2 0xBC5 JUMPI PUSH1 0x40 MLOAD PUSH32 0x8C379A000000000000000000000000000000000000000000000000000000000 DUP2 MSTORE PUSH1 0x4 ADD PUSH2 0xBBC SWAP1 PUSH2 0x1A70 JUMP JUMPDEST PUSH1 0x40 MLOAD DUP1 SWAP2 SUB SWAP1 REVERT JUMPDEST PUSH1 0x0 PUSH2 0xBCF PUSH2 0xD66 JUMP JUMPDEST SWAP1 POP PUSH2 0xC69 DUP5 DUP3 PUSH1 0x5 SLOAD PUSH1 0x2 DUP1 SLOAD PUSH2 0xBE6 SWAP1 PUSH2 0x1CF4 JUMP JUMPDEST DUP1 PUSH1 0x1F ADD PUSH1 0x20 DUP1 SWAP2 DIV MUL PUSH1 0x20 ADD PUSH1 0x40 MLOAD SWAP1 DUP2 ADD PUSH1 0x40 MSTORE DUP1 SWAP3 SWAP2 SWAP1 DUP2 DUP2 MSTORE PUSH1 0x20 ADD DUP3 DUP1 SLOAD PUSH2 0xC12 SWAP1 PUSH2 0x1CF4 JUMP JUMPDEST DUP1 ISZERO PUSH2 0xC5F JUMPI DUP1 PUSH1 0x1F LT PUSH2 0xC34 JUMPI PUSH2 0x100 DUP1 DUP4 SLOAD DIV MUL DUP4 MSTORE SWAP2 PUSH1 0x20 ADD SWAP2 PUSH2 0xC5F JUMP JUMPDEST DUP3 ADD SWAP2 SWAP1 PUSH1 0x0 MSTORE PUSH1 0x20 PUSH1 0x0 KECCAK256 SWAP1 JUMPDEST DUP2 SLOAD DUP2 MSTORE SWAP1 PUSH1 0x1 ADD SWAP1 PUSH1 0x20 ADD DUP1 DUP4 GT PUSH2 0xC42 JUMPI DUP3 SWAP1 SUB PUSH1 0x1F AND DUP3 ADD SWAP2 JUMPDEST POP POP POP POP POP PUSH2 0xFCB JUMP JUMPDEST PUSH1 0x4 PUSH1 0x0 DUP2 SLOAD DUP1 SWAP3 SWAP2 SWAP1 PUSH2 0xC7C SWAP1 PUSH2 0x1D57 JUMP JUMPDEST SWAP2 SWAP1 POP SSTORE POP DUP1 PUSH1 0x9 PUSH1 0x0 DUP7 PUSH20 0xFFFFFFFFFFFFFFFFFFFFFFFFFFFFFFFFFFFFFFFF AND PUSH20 0xFFFFFFFFFFFFFFFFFFFFFFFFFFFFFFFFFFFFFFFF AND DUP2 MSTORE PUSH1 0x20 ADD SWAP1 DUP2 MSTORE PUSH1 0x20 ADD PUSH1 0x0 KECCAK256 DUP2 SWAP1 SSTORE POP DUP1 PUSH1 0x2 DUP1 DUP1 SLOAD PUSH2 0xCD4 SWAP1 PUSH2 0x1CF4 JUMP JUMPDEST DUP1 PUSH1 0x1F ADD PUSH1 0x20 DUP1 SWAP2 DIV MUL PUSH1 0x20 ADD PUSH1 0x40 MLOAD SWAP1 DUP2 ADD PUSH1 0x40 MSTORE DUP1 SWAP3 SWAP2 SWAP1 DUP2 DUP2 MSTORE PUSH1 0x20 ADD DUP3 DUP1 SLOAD PUSH2 0xD00 SWAP1 PUSH2 0x1CF4 JUMP JUMPDEST DUP1 ISZERO PUSH2 0xD4D JUMPI DUP1 PUSH1 0x1F LT PUSH2 0xD22 JUMPI PUSH2 0x100 DUP1 DUP4 SLOAD DIV MUL DUP4 MSTORE SWAP2 PUSH1 0x20 ADD SWAP2 PUSH2 0xD4D JUMP JUMPDEST DUP3 ADD SWAP2 SWAP1 PUSH1 0x0 MSTORE PUSH1 0x20 PUSH1 0x0 KECCAK256 SWAP1 JUMPDEST DUP2 SLOAD DUP2 MSTORE SWAP1 PUSH1 0x1 ADD SWAP1 PUSH1 0x20 ADD DUP1 DUP4 GT PUSH2 0xD30 JUMPI DUP3 SWAP1 SUB PUSH1 0x1F AND DUP3 ADD SWAP2 JUMPDEST POP POP POP POP POP SWAP1 POP SWAP3 POP SWAP3 POP POP SWAP2 POP SWAP2 JUMP JUMPDEST PUSH1 0x0 CALLER SWAP1 POP SWAP1 JUMP JUMPDEST PUSH1 0x0 DUP1 ISZERO ISZERO PUSH1 0xB PUSH1 0x0 SWAP1 SLOAD SWAP1 PUSH2 0x100 EXP SWAP1 DIV PUSH1 0xFF AND ISZERO ISZERO EQ PUSH2 0xDBD JUMPI PUSH1 0x40 MLOAD PUSH32 0x8C379A000000000000000000000000000000000000000000000000000000000 DUP2 MSTORE PUSH1 0x4 ADD PUSH2 0xDB4 SWAP1 PUSH2 0x1A50 JUMP JUMPDEST PUSH1 0x40 MLOAD DUP1 SWAP2 SUB SWAP1 REVERT JUMPDEST PUSH1 0x0 PUSH2 0xDC7 PUSH2 0x11BB JUMP JUMPDEST SWAP1 POP PUSH1 0x0 PUSH1 0x3 DUP3 PUSH1 0xA DUP2 LT PUSH2 0xDDF JUMPI PUSH2 0xDDE PUSH2 0x1E8C JUMP JUMPDEST JUMPDEST PUSH1 0x20 SWAP2 DUP3 DUP3 DIV ADD SWAP2 SWAP1 MOD SWAP1 SLOAD SWAP1 PUSH2 0x100 EXP SWAP1 DIV PUSH1 0xFF AND PUSH1 0xFF AND SWAP1 POP PUSH1 0x0 DUP2 EQ DUP1 ISZERO PUSH2 0xE0C JUMPI POP PUSH1 0x32 PUSH1 0x6 SLOAD LT JUMPDEST ISZERO PUSH2 0xE7F JUMPI PUSH1 0x40 MLOAD DUP1 PUSH1 0x40 ADD PUSH1 0x40 MSTORE DUP1 PUSH1 0x7 DUP2 MSTORE PUSH1 0x20 ADD PUSH32 0x4469616D6F6E6400000000000000000000000000000000000000000000000000 DUP2 MSTORE POP PUSH1 0x2 SWAP1 DUP1 MLOAD SWAP1 PUSH1 0x20 ADD SWAP1 PUSH2 0xE5C SWAP3 SWAP2 SWAP1 PUSH2 0x147B JUMP JUMPDEST POP PUSH1 0x6 PUSH1 0x0 DUP2 SLOAD DUP1 SWAP3 SWAP2 SWAP1 PUSH2 0xE70 SWAP1 PUSH2 0x1D57 JUMP JUMPDEST SWAP2 SWAP1 POP SSTORE POP DUP1 SWAP3 POP POP POP PUSH2 0xFC8 JUMP JUMPDEST PUSH1 0x1 DUP2 GT ISZERO DUP1 ISZERO PUSH2 0xE92 JUMPI POP PUSH1 0x64 PUSH1 0x7 SLOAD LT JUMPDEST ISZERO PUSH2 0xF05 JUMPI PUSH1 0x40 MLOAD DUP1 PUSH1 0x40 ADD PUSH1 0x40 MSTORE DUP1 PUSH1 0x4 DUP2 MSTORE PUSH1 0x20 ADD PUSH32 0x476F6C6400000000000000000000000000000000000000000000000000000000 DUP2 MSTORE POP PUSH1 0x2 SWAP1 DUP1 MLOAD SWAP1 PUSH1 0x20 ADD SWAP1 PUSH2 0xEE2 SWAP3 SWAP2 SWAP1 PUSH2 0x147B JUMP JUMPDEST POP PUSH1 0x7 PUSH1 0x0 DUP2 SLOAD DUP1 SWAP3 SWAP2 SWAP1 PUSH2 0xEF6 SWAP1 PUSH2 0x1D57 JUMP JUMPDEST SWAP2 SWAP1 POP SSTORE POP DUP1 SWAP3 POP POP POP PUSH2 0xFC8 JUMP JUMPDEST PUSH1 0x2 DUP2 GT ISZERO DUP1 ISZERO PUSH2 0xF1A JUMPI POP PUSH2 0x352 PUSH1 0x8 SLOAD GT ISZERO JUMPDEST ISZERO PUSH2 0xF8D JUMPI PUSH1 0x40 MLOAD DUP1 PUSH1 0x40 ADD PUSH1 0x40 MSTORE DUP1 PUSH1 0x6 DUP2 MSTORE PUSH1 0x20 ADD PUSH32 0x53696C7665720000000000000000000000000000000000000000000000000000 DUP2 MSTORE POP PUSH1 0x2 SWAP1 DUP1 MLOAD SWAP1 PUSH1 0x20 ADD SWAP1 PUSH2 0xF6A SWAP3 SWAP2 SWAP1 PUSH2 0x147B JUMP JUMPDEST POP PUSH1 0x8 PUSH1 0x0 DUP2 SLOAD DUP1 SWAP3 SWAP2 SWAP1 PUSH2 0xF7E SWAP1 PUSH2 0x1D57 JUMP JUMPDEST SWAP2 SWAP1 POP SSTORE POP DUP1 SWAP3 POP POP POP PUSH2 0xFC8 JUMP JUMPDEST PUSH1 0x40 MLOAD PUSH32 0x8C379A000000000000000000000000000000000000000000000000000000000 DUP2 MSTORE PUSH1 0x4 ADD PUSH2 0xFBF SWAP1 PUSH2 0x1A10 JUMP JUMPDEST PUSH1 0x40 MLOAD DUP1 SWAP2 SUB SWAP1 REVERT JUMPDEST SWAP1 JUMP JUMPDEST PUSH1 0x0 PUSH20 0xFFFFFFFFFFFFFFFFFFFFFFFFFFFFFFFFFFFFFFFF AND DUP5 PUSH20 0xFFFFFFFFFFFFFFFFFFFFFFFFFFFFFFFFFFFFFFFF AND EQ ISZERO PUSH2 0x103B JUMPI PUSH1 0x40 MLOAD PUSH32 0x8C379A000000000000000000000000000000000000000000000000000000000 DUP2 MSTORE PUSH1 0x4 ADD PUSH2 0x1032 SWAP1 PUSH2 0x1AB0 JUMP JUMPDEST PUSH1 0x40 MLOAD DUP1 SWAP2 SUB SWAP1 REVERT JUMPDEST PUSH1 0x0 PUSH2 0x1045 PUSH2 0xD5E JUMP JUMPDEST SWAP1 POP PUSH2 0x1066 DUP2 PUSH1 0x0 DUP8 PUSH2 0x1057 DUP9 PUSH2 0x11FF JUMP JUMPDEST PUSH2 0x1060 DUP9 PUSH2 0x11FF JUMP JUMPDEST DUP8 PUSH2 0x1279 JUMP JUMPDEST DUP3 PUSH1 0x0 DUP1 DUP7 DUP2 MSTORE PUSH1 0x20 ADD SWAP1 DUP2 MSTORE PUSH1 0x20 ADD PUSH1 0x0 KECCAK256 PUSH1 0x0 DUP8 PUSH20 0xFFFFFFFFFFFFFFFFFFFFFFFFFFFFFFFFFFFFFFFF AND PUSH20 0xFFFFFFFFFFFFFFFFFFFFFFFFFFFFFFFFFFFFFFFF AND DUP2 MSTORE PUSH1 0x20 ADD SWAP1 DUP2 MSTORE PUSH1 0x20 ADD PUSH1 0x0 KECCAK256 PUSH1 0x0 DUP3 DUP3 SLOAD PUSH2 0x10C5 SWAP2 SWAP1 PUSH2 0x1BD8 JUMP JUMPDEST SWAP3 POP POP DUP2 SWAP1 SSTORE POP DUP5 PUSH20 0xFFFFFFFFFFFFFFFFFFFFFFFFFFFFFFFFFFFFFFFF AND PUSH1 0x0 PUSH20 0xFFFFFFFFFFFFFFFFFFFFFFFFFFFFFFFFFFFFFFFF AND DUP3 PUSH20 0xFFFFFFFFFFFFFFFFFFFFFFFFFFFFFFFFFFFFFFFF AND PUSH32 0xC3D58168C5AE7397731D063D5BBF3D657854427343F4C083240F7AACAA2D0F62 DUP8 DUP8 PUSH1 0x40 MLOAD PUSH2 0x1143 SWAP3 SWAP2 SWAP1 PUSH2 0x1B1B JUMP JUMPDEST PUSH1 0x40 MLOAD DUP1 SWAP2 SUB SWAP1 LOG4 PUSH2 0x115A DUP2 PUSH1 0x0 DUP8 DUP8 DUP8 DUP8 PUSH2 0x1281 JUMP JUMPDEST POP POP POP POP POP JUMP JUMPDEST DUP1 PUSH1 0xA PUSH1 0x0 DUP5 PUSH20 0xFFFFFFFFFFFFFFFFFFFFFFFFFFFFFFFFFFFFFFFF AND PUSH20 0xFFFFFFFFFFFFFFFFFFFFFFFFFFFFFFFFFFFFFFFF AND DUP2 MSTORE PUSH1 0x20 ADD SWAP1 DUP2 MSTORE PUSH1 0x20 ADD PUSH1 0x0 KECCAK256 PUSH1 0x0 DUP3 DUP3 SLOAD PUSH2 0x11B0 SWAP2 SWAP1 PUSH2 0x1BD8 JUMP JUMPDEST SWAP3 POP POP DUP2 SWAP1 SSTORE POP POP POP JUMP JUMPDEST PUSH1 0x0 DUP1 PUSH1 0xA TIMESTAMP CALLER PUSH1 0x40 MLOAD PUSH1 0x20 ADD PUSH2 0x11D3 SWAP3 SWAP2 SWAP1 PUSH2 0x1892 JUMP JUMPDEST PUSH1 0x40 MLOAD PUSH1 0x20 DUP2 DUP4 SUB SUB DUP2 MSTORE SWAP1 PUSH1 0x40 MSTORE DUP1 MLOAD SWAP1 PUSH1 0x20 ADD KECCAK256 PUSH1 0x0 SHR PUSH2 0x11F6 SWAP2 SWAP1 PUSH2 0x1DCE JUMP JUMPDEST SWAP1 POP DUP1 SWAP2 POP POP SWAP1 JUMP JUMPDEST PUSH1 0x60 PUSH1 0x0 PUSH1 0x1 PUSH8 0xFFFFFFFFFFFFFFFF DUP2 GT ISZERO PUSH2 0x121E JUMPI PUSH2 0x121D PUSH2 0x1EBB JUMP JUMPDEST JUMPDEST PUSH1 0x40 MLOAD SWAP1 DUP1 DUP3 MSTORE DUP1 PUSH1 0x20 MUL PUSH1 0x20 ADD DUP3 ADD PUSH1 0x40 MSTORE DUP1 ISZERO PUSH2 0x124C JUMPI DUP2 PUSH1 0x20 ADD PUSH1 0x20 DUP3 MUL DUP1 CALLDATASIZE DUP4 CALLDATACOPY DUP1 DUP3 ADD SWAP2 POP POP SWAP1 POP JUMPDEST POP SWAP1 POP DUP3 DUP2 PUSH1 0x0 DUP2 MLOAD DUP2 LT PUSH2 0x1264 JUMPI PUSH2 0x1263 PUSH2 0x1E8C JUMP JUMPDEST JUMPDEST PUSH1 0x20 MUL PUSH1 0x20 ADD ADD DUP2 DUP2 MSTORE POP POP DUP1 SWAP2 POP POP SWAP2 SWAP1 POP JUMP JUMPDEST POP POP POP POP POP POP JUMP JUMPDEST PUSH2 0x12A0 DUP5 PUSH20 0xFFFFFFFFFFFFFFFFFFFFFFFFFFFFFFFFFFFFFFFF AND PUSH2 0x1468 JUMP JUMPDEST ISZERO PUSH2 0x1460 JUMPI DUP4 PUSH20 0xFFFFFFFFFFFFFFFFFFFFFFFFFFFFFFFFFFFFFFFF AND PUSH4 0xF23A6E61 DUP8 DUP8 DUP7 DUP7 DUP7 PUSH1 0x40 MLOAD DUP7 PUSH4 0xFFFFFFFF AND PUSH1 0xE0 SHL DUP2 MSTORE PUSH1 0x4 ADD PUSH2 0x12E6 SWAP6 SWAP5 SWAP4 SWAP3 SWAP2 SWAP1 PUSH2 0x18D9 JUMP JUMPDEST PUSH1 0x20 PUSH1 0x40 MLOAD DUP1 DUP4 SUB DUP2 PUSH1 0x0 DUP8 DUP1 EXTCODESIZE ISZERO DUP1 ISZERO PUSH2 0x1300 JUMPI PUSH1 0x0 DUP1 REVERT JUMPDEST POP GAS CALL SWAP3 POP POP POP DUP1 ISZERO PUSH2 0x1331 JUMPI POP PUSH1 0x40 MLOAD RETURNDATASIZE PUSH1 0x1F NOT PUSH1 0x1F DUP3 ADD AND DUP3 ADD DUP1 PUSH1 0x40 MSTORE POP DUP2 ADD SWAP1 PUSH2 0x132E SWAP2 SWAP1 PUSH2 0x15CC JUMP JUMPDEST PUSH1 0x1 JUMPDEST PUSH2 0x13D7 JUMPI PUSH2 0x133D PUSH2 0x1EEA JUMP JUMPDEST DUP1 PUSH4 0x8C379A0 EQ ISZERO PUSH2 0x139A JUMPI POP PUSH2 0x1352 PUSH2 0x2171 JUMP JUMPDEST DUP1 PUSH2 0x135D JUMPI POP PUSH2 0x139C JUMP JUMPDEST DUP1 PUSH1 0x40 MLOAD PUSH32 0x8C379A000000000000000000000000000000000000000000000000000000000 DUP2 MSTORE PUSH1 0x4 ADD PUSH2 0x1391 SWAP2 SWAP1 PUSH2 0x194E JUMP JUMPDEST PUSH1 0x40 MLOAD DUP1 SWAP2 SUB SWAP1 REVERT JUMPDEST POP JUMPDEST PUSH1 0x40 MLOAD PUSH32 0x8C379A000000000000000000000000000000000000000000000000000000000 DUP2 MSTORE PUSH1 0x4 ADD PUSH2 0x13CE SWAP1 PUSH2 0x1970 JUMP JUMPDEST PUSH1 0x40 MLOAD DUP1 SWAP2 SUB SWAP1 REVERT JUMPDEST PUSH4 0xF23A6E61 PUSH1 0xE0 SHL PUSH28 0xFFFFFFFFFFFFFFFFFFFFFFFFFFFFFFFFFFFFFFFFFFFFFFFFFFFFFFFF NOT AND DUP2 PUSH28 0xFFFFFFFFFFFFFFFFFFFFFFFFFFFFFFFFFFFFFFFFFFFFFFFFFFFFFFFF NOT AND EQ PUSH2 0x145E JUMPI PUSH1 0x40 MLOAD PUSH32 0x8C379A000000000000000000000000000000000000000000000000000000000 DUP2 MSTORE PUSH1 0x4 ADD PUSH2 0x1455 SWAP1 PUSH2 0x1990 JUMP JUMPDEST PUSH1 0x40 MLOAD DUP1 SWAP2 SUB SWAP1 REVERT JUMPDEST POP JUMPDEST POP POP POP POP POP POP JUMP JUMPDEST PUSH1 0x0 DUP1 DUP3 EXTCODESIZE SWAP1 POP PUSH1 0x0 DUP2 GT SWAP2 POP POP SWAP2 SWAP1 POP JUMP JUMPDEST DUP3 DUP1 SLOAD PUSH2 0x1487 SWAP1 PUSH2 0x1CF4 JUMP JUMPDEST SWAP1 PUSH1 0x0 MSTORE PUSH1 0x20 PUSH1 0x0 KECCAK256 SWAP1 PUSH1 0x1F ADD PUSH1 0x20 SWAP1 DIV DUP2 ADD SWAP3 DUP3 PUSH2 0x14A9 JUMPI PUSH1 0x0 DUP6 SSTORE PUSH2 0x14F0 JUMP JUMPDEST DUP3 PUSH1 0x1F LT PUSH2 0x14C2 JUMPI DUP1 MLOAD PUSH1 0xFF NOT AND DUP4 DUP1 ADD OR DUP6 SSTORE PUSH2 0x14F0 JUMP JUMPDEST DUP3 DUP1 ADD PUSH1 0x1 ADD DUP6 SSTORE DUP3 ISZERO PUSH2 0x14F0 JUMPI SWAP2 DUP3 ADD JUMPDEST DUP3 DUP2 GT ISZERO PUSH2 0x14EF JUMPI DUP3 MLOAD DUP3 SSTORE SWAP2 PUSH1 0x20 ADD SWAP2 SWAP1 PUSH1 0x1 ADD SWAP1 PUSH2 0x14D4 JUMP JUMPDEST JUMPDEST POP SWAP1 POP PUSH2 0x14FD SWAP2 SWAP1 PUSH2 0x1501 JUMP JUMPDEST POP SWAP1 JUMP JUMPDEST JUMPDEST DUP1 DUP3 GT ISZERO PUSH2 0x151A JUMPI PUSH1 0x0 DUP2 PUSH1 0x0 SWAP1 SSTORE POP PUSH1 0x1 ADD PUSH2 0x1502 JUMP JUMPDEST POP SWAP1 JUMP JUMPDEST PUSH1 0x0 DUP2 CALLDATALOAD SWAP1 POP PUSH2 0x152D DUP2 PUSH2 0x2207 JUMP JUMPDEST SWAP3 SWAP2 POP POP JUMP JUMPDEST PUSH1 0x0 DUP2 CALLDATALOAD SWAP1 POP PUSH2 0x1542 DUP2 PUSH2 0x221E JUMP JUMPDEST SWAP3 SWAP2 POP POP JUMP JUMPDEST PUSH1 0x0 DUP2 MLOAD SWAP1 POP PUSH2 0x1557 DUP2 PUSH2 0x2235 JUMP JUMPDEST SWAP3 SWAP2 POP POP JUMP JUMPDEST PUSH1 0x0 DUP2 CALLDATALOAD SWAP1 POP PUSH2 0x156C DUP2 PUSH2 0x224C JUMP JUMPDEST SWAP3 SWAP2 POP POP JUMP JUMPDEST PUSH1 0x0 PUSH1 0x20 DUP3 DUP5 SUB SLT ISZERO PUSH2 0x1588 JUMPI PUSH2 0x1587 PUSH2 0x1F0C JUMP JUMPDEST JUMPDEST PUSH1 0x0 PUSH2 0x1596 DUP5 DUP3 DUP6 ADD PUSH2 0x151E JUMP JUMPDEST SWAP2 POP POP SWAP3 SWAP2 POP POP JUMP JUMPDEST PUSH1 0x0 PUSH1 0x20 DUP3 DUP5 SUB SLT ISZERO PUSH2 0x15B5 JUMPI PUSH2 0x15B4 PUSH2 0x1F0C JUMP JUMPDEST JUMPDEST PUSH1 0x0 PUSH2 0x15C3 DUP5 DUP3 DUP6 ADD PUSH2 0x1533 JUMP JUMPDEST SWAP2 POP POP SWAP3 SWAP2 POP POP JUMP JUMPDEST PUSH1 0x0 PUSH1 0x20 DUP3 DUP5 SUB SLT ISZERO PUSH2 0x15E2 JUMPI PUSH2 0x15E1 PUSH2 0x1F0C JUMP JUMPDEST JUMPDEST PUSH1 0x0 PUSH2 0x15F0 DUP5 DUP3 DUP6 ADD PUSH2 0x1548 JUMP JUMPDEST SWAP2 POP POP SWAP3 SWAP2 POP POP JUMP JUMPDEST PUSH1 0x0 PUSH1 0x20 DUP3 DUP5 SUB SLT ISZERO PUSH2 0x160F JUMPI PUSH2 0x160E PUSH2 0x1F0C JUMP JUMPDEST JUMPDEST PUSH1 0x0 PUSH2 0x161D DUP5 DUP3 DUP6 ADD PUSH2 0x155D JUMP JUMPDEST SWAP2 POP POP SWAP3 SWAP2 POP POP JUMP JUMPDEST PUSH2 0x162F DUP2 PUSH2 0x1C40 JUMP JUMPDEST DUP3 MSTORE POP POP JUMP JUMPDEST PUSH2 0x163E DUP2 PUSH2 0x1C2E JUMP JUMPDEST DUP3 MSTORE POP POP JUMP JUMPDEST PUSH2 0x1655 PUSH2 0x1650 DUP3 PUSH2 0x1C2E JUMP JUMPDEST PUSH2 0x1DA0 JUMP JUMPDEST DUP3 MSTORE POP POP JUMP JUMPDEST PUSH2 0x1664 DUP2 PUSH2 0x1C52 JUMP JUMPDEST DUP3 MSTORE POP POP JUMP JUMPDEST PUSH1 0x0 PUSH2 0x1675 DUP3 PUSH2 0x1BA0 JUMP JUMPDEST PUSH2 0x167F DUP2 DUP6 PUSH2 0x1BB6 JUMP JUMPDEST SWAP4 POP PUSH2 0x168F DUP2 DUP6 PUSH1 0x20 DUP7 ADD PUSH2 0x1CC1 JUMP JUMPDEST PUSH2 0x1698 DUP2 PUSH2 0x1F11 JUMP JUMPDEST DUP5 ADD SWAP2 POP POP SWAP3 SWAP2 POP POP JUMP JUMPDEST PUSH1 0x0 PUSH2 0x16AE DUP3 PUSH2 0x1BAB JUMP JUMPDEST PUSH2 0x16B8 DUP2 DUP6 PUSH2 0x1BC7 JUMP JUMPDEST SWAP4 POP PUSH2 0x16C8 DUP2 DUP6 PUSH1 0x20 DUP7 ADD PUSH2 0x1CC1 JUMP JUMPDEST PUSH2 0x16D1 DUP2 PUSH2 0x1F11 JUMP JUMPDEST DUP5 ADD SWAP2 POP POP SWAP3 SWAP2 POP POP JUMP JUMPDEST PUSH1 0x0 PUSH2 0x16E9 PUSH1 0x34 DUP4 PUSH2 0x1BC7 JUMP JUMPDEST SWAP2 POP PUSH2 0x16F4 DUP3 PUSH2 0x1F3C JUMP JUMPDEST PUSH1 0x40 DUP3 ADD SWAP1 POP SWAP2 SWAP1 POP JUMP JUMPDEST PUSH1 0x0 PUSH2 0x170C PUSH1 0x28 DUP4 PUSH2 0x1BC7 JUMP JUMPDEST SWAP2 POP PUSH2 0x1717 DUP3 PUSH2 0x1F8B JUMP JUMPDEST PUSH1 0x40 DUP3 ADD SWAP1 POP SWAP2 SWAP1 POP JUMP JUMPDEST PUSH1 0x0 PUSH2 0x172F PUSH1 0x19 DUP4 PUSH2 0x1BC7 JUMP JUMPDEST SWAP2 POP PUSH2 0x173A DUP3 PUSH2 0x1FDA JUMP JUMPDEST PUSH1 0x20 DUP3 ADD SWAP1 POP SWAP2 SWAP1 POP JUMP JUMPDEST PUSH1 0x0 PUSH2 0x1752 PUSH1 0x1B DUP4 PUSH2 0x1BC7 JUMP JUMPDEST SWAP2 POP PUSH2 0x175D DUP3 PUSH2 0x2003 JUMP JUMPDEST PUSH1 0x20 DUP3 ADD SWAP1 POP SWAP2 SWAP1 POP JUMP JUMPDEST PUSH1 0x0 PUSH2 0x1775 PUSH1 0x1B DUP4 PUSH2 0x1BC7 JUMP JUMPDEST SWAP2 POP PUSH2 0x1780 DUP3 PUSH2 0x202C JUMP JUMPDEST PUSH1 0x20 DUP3 ADD SWAP1 POP SWAP2 SWAP1 POP JUMP JUMPDEST PUSH1 0x0 PUSH2 0x1798 PUSH1 0x12 DUP4 PUSH2 0x1BC7 JUMP JUMPDEST SWAP2 POP PUSH2 0x17A3 DUP3 PUSH2 0x2055 JUMP JUMPDEST PUSH1 0x20 DUP3 ADD SWAP1 POP SWAP2 SWAP1 POP JUMP JUMPDEST PUSH1 0x0 PUSH2 0x17BB PUSH1 0x1C DUP4 PUSH2 0x1BC7 JUMP JUMPDEST SWAP2 POP PUSH2 0x17C6 DUP3 PUSH2 0x207E JUMP JUMPDEST PUSH1 0x20 DUP3 ADD SWAP1 POP SWAP2 SWAP1 POP JUMP JUMPDEST PUSH1 0x0 PUSH2 0x17DE PUSH1 0x1B DUP4 PUSH2 0x1BC7 JUMP JUMPDEST SWAP2 POP PUSH2 0x17E9 DUP3 PUSH2 0x20A7 JUMP JUMPDEST PUSH1 0x20 DUP3 ADD SWAP1 POP SWAP2 SWAP1 POP JUMP JUMPDEST PUSH1 0x0 PUSH2 0x1801 PUSH1 0x19 DUP4 PUSH2 0x1BC7 JUMP JUMPDEST SWAP2 POP PUSH2 0x180C DUP3 PUSH2 0x20D0 JUMP JUMPDEST PUSH1 0x20 DUP3 ADD SWAP1 POP SWAP2 SWAP1 POP JUMP JUMPDEST PUSH1 0x0 PUSH2 0x1824 PUSH1 0x1D DUP4 PUSH2 0x1BC7 JUMP JUMPDEST SWAP2 POP PUSH2 0x182F DUP3 PUSH2 0x20F9 JUMP JUMPDEST PUSH1 0x20 DUP3 ADD SWAP1 POP SWAP2 SWAP1 POP JUMP JUMPDEST PUSH1 0x0 PUSH2 0x1847 PUSH1 0x21 DUP4 PUSH2 0x1BC7 JUMP JUMPDEST SWAP2 POP PUSH2 0x1852 DUP3 PUSH2 0x2122 JUMP JUMPDEST PUSH1 0x40 DUP3 ADD SWAP1 POP SWAP2 SWAP1 POP JUMP JUMPDEST PUSH2 0x1866 DUP2 PUSH2 0x1CAA JUMP JUMPDEST DUP3 MSTORE POP POP JUMP JUMPDEST PUSH2 0x187D PUSH2 0x1878 DUP3 PUSH2 0x1CAA JUMP JUMPDEST PUSH2 0x1DC4 JUMP JUMPDEST DUP3 MSTORE POP POP JUMP JUMPDEST PUSH2 0x188C DUP2 PUSH2 0x1CB4 JUMP JUMPDEST DUP3 MSTORE POP POP JUMP JUMPDEST PUSH1 0x0 PUSH2 0x189E DUP3 DUP6 PUSH2 0x186C JUMP JUMPDEST PUSH1 0x20 DUP3 ADD SWAP2 POP PUSH2 0x18AE DUP3 DUP5 PUSH2 0x1644 JUMP JUMPDEST PUSH1 0x14 DUP3 ADD SWAP2 POP DUP2 SWAP1 POP SWAP4 SWAP3 POP POP POP JUMP JUMPDEST PUSH1 0x0 PUSH1 0x20 DUP3 ADD SWAP1 POP PUSH2 0x18D3 PUSH1 0x0 DUP4 ADD DUP5 PUSH2 0x1626 JUMP JUMPDEST SWAP3 SWAP2 POP POP JUMP JUMPDEST PUSH1 0x0 PUSH1 0xA0 DUP3 ADD SWAP1 POP PUSH2 0x18EE PUSH1 0x0 DUP4 ADD DUP9 PUSH2 0x1635 JUMP JUMPDEST PUSH2 0x18FB PUSH1 0x20 DUP4 ADD DUP8 PUSH2 0x1635 JUMP JUMPDEST PUSH2 0x1908 PUSH1 0x40 DUP4 ADD DUP7 PUSH2 0x185D JUMP JUMPDEST PUSH2 0x1915 PUSH1 0x60 DUP4 ADD DUP6 PUSH2 0x185D JUMP JUMPDEST DUP2 DUP2 SUB PUSH1 0x80 DUP4 ADD MSTORE PUSH2 0x1927 DUP2 DUP5 PUSH2 0x166A JUMP JUMPDEST SWAP1 POP SWAP7 SWAP6 POP POP POP POP POP POP JUMP JUMPDEST PUSH1 0x0 PUSH1 0x20 DUP3 ADD SWAP1 POP PUSH2 0x1948 PUSH1 0x0 DUP4 ADD DUP5 PUSH2 0x165B JUMP JUMPDEST SWAP3 SWAP2 POP POP JUMP JUMPDEST PUSH1 0x0 PUSH1 0x20 DUP3 ADD SWAP1 POP DUP2 DUP2 SUB PUSH1 0x0 DUP4 ADD MSTORE PUSH2 0x1968 DUP2 DUP5 PUSH2 0x16A3 JUMP JUMPDEST SWAP1 POP SWAP3 SWAP2 POP POP JUMP JUMPDEST PUSH1 0x0 PUSH1 0x20 DUP3 ADD SWAP1 POP DUP2 DUP2 SUB PUSH1 0x0 DUP4 ADD MSTORE PUSH2 0x1989 DUP2 PUSH2 0x16DC JUMP JUMPDEST SWAP1 POP SWAP2 SWAP1 POP JUMP JUMPDEST PUSH1 0x0 PUSH1 0x20 DUP3 ADD SWAP1 POP DUP2 DUP2 SUB PUSH1 0x0 DUP4 ADD MSTORE PUSH2 0x19A9 DUP2 PUSH2 0x16FF JUMP JUMPDEST SWAP1 POP SWAP2 SWAP1 POP JUMP JUMPDEST PUSH1 0x0 PUSH1 0x20 DUP3 ADD SWAP1 POP DUP2 DUP2 SUB PUSH1 0x0 DUP4 ADD MSTORE PUSH2 0x19C9 DUP2 PUSH2 0x1722 JUMP JUMPDEST SWAP1 POP SWAP2 SWAP1 POP JUMP JUMPDEST PUSH1 0x0 PUSH1 0x20 DUP3 ADD SWAP1 POP DUP2 DUP2 SUB PUSH1 0x0 DUP4 ADD MSTORE PUSH2 0x19E9 DUP2 PUSH2 0x1745 JUMP JUMPDEST SWAP1 POP SWAP2 SWAP1 POP JUMP JUMPDEST PUSH1 0x0 PUSH1 0x20 DUP3 ADD SWAP1 POP DUP2 DUP2 SUB PUSH1 0x0 DUP4 ADD MSTORE PUSH2 0x1A09 DUP2 PUSH2 0x1768 JUMP JUMPDEST SWAP1 POP SWAP2 SWAP1 POP JUMP JUMPDEST PUSH1 0x0 PUSH1 0x20 DUP3 ADD SWAP1 POP DUP2 DUP2 SUB PUSH1 0x0 DUP4 ADD MSTORE PUSH2 0x1A29 DUP2 PUSH2 0x178B JUMP JUMPDEST SWAP1 POP SWAP2 SWAP1 POP JUMP JUMPDEST PUSH1 0x0 PUSH1 0x20 DUP3 ADD SWAP1 POP DUP2 DUP2 SUB PUSH1 0x0 DUP4 ADD MSTORE PUSH2 0x1A49 DUP2 PUSH2 0x17AE JUMP JUMPDEST SWAP1 POP SWAP2 SWAP1 POP JUMP JUMPDEST PUSH1 0x0 PUSH1 0x20 DUP3 ADD SWAP1 POP DUP2 DUP2 SUB PUSH1 0x0 DUP4 ADD MSTORE PUSH2 0x1A69 DUP2 PUSH2 0x17D1 JUMP JUMPDEST SWAP1 POP SWAP2 SWAP1 POP JUMP JUMPDEST PUSH1 0x0 PUSH1 0x20 DUP3 ADD SWAP1 POP DUP2 DUP2 SUB PUSH1 0x0 DUP4 ADD MSTORE PUSH2 0x1A89 DUP2 PUSH2 0x17F4 JUMP JUMPDEST SWAP1 POP SWAP2 SWAP1 POP JUMP JUMPDEST PUSH1 0x0 PUSH1 0x20 DUP3 ADD SWAP1 POP DUP2 DUP2 SUB PUSH1 0x0 DUP4 ADD MSTORE PUSH2 0x1AA9 DUP2 PUSH2 0x1817 JUMP JUMPDEST SWAP1 POP SWAP2 SWAP1 POP JUMP JUMPDEST PUSH1 0x0 PUSH1 0x20 DUP3 ADD SWAP1 POP DUP2 DUP2 SUB PUSH1 0x0 DUP4 ADD MSTORE PUSH2 0x1AC9 DUP2 PUSH2 0x183A JUMP JUMPDEST SWAP1 POP SWAP2 SWAP1 POP JUMP JUMPDEST PUSH1 0x0 PUSH1 0x20 DUP3 ADD SWAP1 POP PUSH2 0x1AE5 PUSH1 0x0 DUP4 ADD DUP5 PUSH2 0x185D JUMP JUMPDEST SWAP3 SWAP2 POP POP JUMP JUMPDEST PUSH1 0x0 PUSH1 0x40 DUP3 ADD SWAP1 POP PUSH2 0x1B00 PUSH1 0x0 DUP4 ADD DUP6 PUSH2 0x185D JUMP JUMPDEST DUP2 DUP2 SUB PUSH1 0x20 DUP4 ADD MSTORE PUSH2 0x1B12 DUP2 DUP5 PUSH2 0x16A3 JUMP JUMPDEST SWAP1 POP SWAP4 SWAP3 POP POP POP JUMP JUMPDEST PUSH1 0x0 PUSH1 0x40 DUP3 ADD SWAP1 POP PUSH2 0x1B30 PUSH1 0x0 DUP4 ADD DUP6 PUSH2 0x185D JUMP JUMPDEST PUSH2 0x1B3D PUSH1 0x20 DUP4 ADD DUP5 PUSH2 0x185D JUMP JUMPDEST SWAP4 SWAP3 POP POP POP JUMP JUMPDEST PUSH1 0x0 PUSH1 0x60 DUP3 ADD SWAP1 POP PUSH2 0x1B59 PUSH1 0x0 DUP4 ADD DUP7 PUSH2 0x185D JUMP JUMPDEST PUSH2 0x1B66 PUSH1 0x20 DUP4 ADD DUP6 PUSH2 0x185D JUMP JUMPDEST PUSH2 0x1B73 PUSH1 0x40 DUP4 ADD DUP5 PUSH2 0x185D JUMP JUMPDEST SWAP5 SWAP4 POP POP POP POP JUMP JUMPDEST PUSH1 0x0 PUSH1 0x20 DUP3 ADD SWAP1 POP PUSH2 0x1B90 PUSH1 0x0 DUP4 ADD DUP5 PUSH2 0x1883 JUMP JUMPDEST SWAP3 SWAP2 POP POP JUMP JUMPDEST PUSH1 0x0 PUSH1 0x40 MLOAD SWAP1 POP SWAP1 JUMP JUMPDEST PUSH1 0x0 DUP2 MLOAD SWAP1 POP SWAP2 SWAP1 POP JUMP JUMPDEST PUSH1 0x0 DUP2 MLOAD SWAP1 POP SWAP2 SWAP1 POP JUMP JUMPDEST PUSH1 0x0 DUP3 DUP3 MSTORE PUSH1 0x20 DUP3 ADD SWAP1 POP SWAP3 SWAP2 POP POP JUMP JUMPDEST PUSH1 0x0 DUP3 DUP3 MSTORE PUSH1 0x20 DUP3 ADD SWAP1 POP SWAP3 SWAP2 POP POP JUMP JUMPDEST PUSH1 0x0 PUSH2 0x1BE3 DUP3 PUSH2 0x1CAA JUMP JUMPDEST SWAP2 POP PUSH2 0x1BEE DUP4 PUSH2 0x1CAA JUMP JUMPDEST SWAP3 POP DUP3 PUSH32 0xFFFFFFFFFFFFFFFFFFFFFFFFFFFFFFFFFFFFFFFFFFFFFFFFFFFFFFFFFFFFFFFF SUB DUP3 GT ISZERO PUSH2 0x1C23 JUMPI PUSH2 0x1C22 PUSH2 0x1DFF JUMP JUMPDEST JUMPDEST DUP3 DUP3 ADD SWAP1 POP SWAP3 SWAP2 POP POP JUMP JUMPDEST PUSH1 0x0 PUSH2 0x1C39 DUP3 PUSH2 0x1C8A JUMP JUMPDEST SWAP1 POP SWAP2 SWAP1 POP JUMP JUMPDEST PUSH1 0x0 PUSH2 0x1C4B DUP3 PUSH2 0x1C8A JUMP JUMPDEST SWAP1 POP SWAP2 SWAP1 POP JUMP JUMPDEST PUSH1 0x0 DUP2 ISZERO ISZERO SWAP1 POP SWAP2 SWAP1 POP JUMP JUMPDEST PUSH1 0x0 PUSH32 0xFFFFFFFF00000000000000000000000000000000000000000000000000000000 DUP3 AND SWAP1 POP SWAP2 SWAP1 POP JUMP JUMPDEST PUSH1 0x0 PUSH20 0xFFFFFFFFFFFFFFFFFFFFFFFFFFFFFFFFFFFFFFFF DUP3 AND SWAP1 POP SWAP2 SWAP1 POP JUMP JUMPDEST PUSH1 0x0 DUP2 SWAP1 POP SWAP2 SWAP1 POP JUMP JUMPDEST PUSH1 0x0 PUSH1 0xFF DUP3 AND SWAP1 POP SWAP2 SWAP1 POP JUMP JUMPDEST PUSH1 0x0 JUMPDEST DUP4 DUP2 LT ISZERO PUSH2 0x1CDF JUMPI DUP1 DUP3 ADD MLOAD DUP2 DUP5 ADD MSTORE PUSH1 0x20 DUP2 ADD SWAP1 POP PUSH2 0x1CC4 JUMP JUMPDEST DUP4 DUP2 GT ISZERO PUSH2 0x1CEE JUMPI PUSH1 0x0 DUP5 DUP5 ADD MSTORE JUMPDEST POP POP POP POP JUMP JUMPDEST PUSH1 0x0 PUSH1 0x2 DUP3 DIV SWAP1 POP PUSH1 0x1 DUP3 AND DUP1 PUSH2 0x1D0C JUMPI PUSH1 0x7F DUP3 AND SWAP2 POP JUMPDEST PUSH1 0x20 DUP3 LT DUP2 EQ ISZERO PUSH2 0x1D20 JUMPI PUSH2 0x1D1F PUSH2 0x1E5D JUMP JUMPDEST JUMPDEST POP SWAP2 SWAP1 POP JUMP JUMPDEST PUSH2 0x1D2F DUP3 PUSH2 0x1F11 JUMP JUMPDEST DUP2 ADD DUP2 DUP2 LT PUSH8 0xFFFFFFFFFFFFFFFF DUP3 GT OR ISZERO PUSH2 0x1D4E JUMPI PUSH2 0x1D4D PUSH2 0x1EBB JUMP JUMPDEST JUMPDEST DUP1 PUSH1 0x40 MSTORE POP POP POP JUMP JUMPDEST PUSH1 0x0 PUSH2 0x1D62 DUP3 PUSH2 0x1CAA JUMP JUMPDEST SWAP2 POP PUSH32 0xFFFFFFFFFFFFFFFFFFFFFFFFFFFFFFFFFFFFFFFFFFFFFFFFFFFFFFFFFFFFFFFF DUP3 EQ ISZERO PUSH2 0x1D95 JUMPI PUSH2 0x1D94 PUSH2 0x1DFF JUMP JUMPDEST JUMPDEST PUSH1 0x1 DUP3 ADD SWAP1 POP SWAP2 SWAP1 POP JUMP JUMPDEST PUSH1 0x0 PUSH2 0x1DAB DUP3 PUSH2 0x1DB2 JUMP JUMPDEST SWAP1 POP SWAP2 SWAP1 POP JUMP JUMPDEST PUSH1 0x0 PUSH2 0x1DBD DUP3 PUSH2 0x1F22 JUMP JUMPDEST SWAP1 POP SWAP2 SWAP1 POP JUMP JUMPDEST PUSH1 0x0 DUP2 SWAP1 POP SWAP2 SWAP1 POP JUMP JUMPDEST PUSH1 0x0 PUSH2 0x1DD9 DUP3 PUSH2 0x1CAA JUMP JUMPDEST SWAP2 POP PUSH2 0x1DE4 DUP4 PUSH2 0x1CAA JUMP JUMPDEST SWAP3 POP DUP3 PUSH2 0x1DF4 JUMPI PUSH2 0x1DF3 PUSH2 0x1E2E JUMP JUMPDEST JUMPDEST DUP3 DUP3 MOD SWAP1 POP SWAP3 SWAP2 POP POP JUMP JUMPDEST PUSH32 0x4E487B7100000000000000000000000000000000000000000000000000000000 PUSH1 0x0 MSTORE PUSH1 0x11 PUSH1 0x4 MSTORE PUSH1 0x24 PUSH1 0x0 REVERT JUMPDEST PUSH32 0x4E487B7100000000000000000000000000000000000000000000000000000000 PUSH1 0x0 MSTORE PUSH1 0x12 PUSH1 0x4 MSTORE PUSH1 0x24 PUSH1 0x0 REVERT JUMPDEST PUSH32 0x4E487B7100000000000000000000000000000000000000000000000000000000 PUSH1 0x0 MSTORE PUSH1 0x22 PUSH1 0x4 MSTORE PUSH1 0x24 PUSH1 0x0 REVERT JUMPDEST PUSH32 0x4E487B7100000000000000000000000000000000000000000000000000000000 PUSH1 0x0 MSTORE PUSH1 0x32 PUSH1 0x4 MSTORE PUSH1 0x24 PUSH1 0x0 REVERT JUMPDEST PUSH32 0x4E487B7100000000000000000000000000000000000000000000000000000000 PUSH1 0x0 MSTORE PUSH1 0x41 PUSH1 0x4 MSTORE PUSH1 0x24 PUSH1 0x0 REVERT JUMPDEST PUSH1 0x0 PUSH1 0x3 RETURNDATASIZE GT ISZERO PUSH2 0x1F09 JUMPI PUSH1 0x4 PUSH1 0x0 DUP1 RETURNDATACOPY PUSH2 0x1F06 PUSH1 0x0 MLOAD PUSH2 0x1F2F JUMP JUMPDEST SWAP1 POP JUMPDEST SWAP1 JUMP JUMPDEST PUSH1 0x0 DUP1 REVERT JUMPDEST PUSH1 0x0 PUSH1 0x1F NOT PUSH1 0x1F DUP4 ADD AND SWAP1 POP SWAP2 SWAP1 POP JUMP JUMPDEST PUSH1 0x0 DUP2 PUSH1 0x60 SHL SWAP1 POP SWAP2 SWAP1 POP JUMP JUMPDEST PUSH1 0x0 DUP2 PUSH1 0xE0 SHR SWAP1 POP SWAP2 SWAP1 POP JUMP JUMPDEST PUSH32 0x455243313135353A207472616E7366657220746F206E6F6E2045524331313535 PUSH1 0x0 DUP3 ADD MSTORE PUSH32 0x526563656976657220696D706C656D656E746572000000000000000000000000 PUSH1 0x20 DUP3 ADD MSTORE POP JUMP JUMPDEST PUSH32 0x455243313135353A204552433131353552656365697665722072656A65637465 PUSH1 0x0 DUP3 ADD MSTORE PUSH32 0x6420746F6B656E73000000000000000000000000000000000000000000000000 PUSH1 0x20 DUP3 ADD MSTORE POP JUMP JUMPDEST PUSH32 0x42616C616E6365206D757374206265203235204D617469637300000000000000 PUSH1 0x0 DUP3 ADD MSTORE POP JUMP JUMPDEST PUSH32 0x44726F707369746520697320616C72656164792052756E6E696E670000000000 PUSH1 0x0 DUP3 ADD MSTORE POP JUMP JUMPDEST PUSH32 0x44726F707369746520697320616C72656164792053746F707065640000000000 PUSH1 0x0 DUP3 ADD MSTORE POP JUMP JUMPDEST PUSH32 0x536F6D65204572726F72204F6363757265640000000000000000000000000000 PUSH1 0x0 DUP3 ADD MSTORE POP JUMP JUMPDEST PUSH32 0x4F6E6C79204E46542D4553204F776E65722063616E2041636365737300000000 PUSH1 0x0 DUP3 ADD MSTORE POP JUMP JUMPDEST PUSH32 0x44726F7073697465206973206E6F74204F70656E6564205965742E0000000000 PUSH1 0x0 DUP3 ADD MSTORE POP JUMP JUMPDEST PUSH32 0x4D6178204D696E74696E67204C696D6974207265616368656400000000000000 PUSH1 0x0 DUP3 ADD MSTORE POP JUMP JUMPDEST PUSH32 0x4572726F7221204E6F2042616C616E636520746F207769746864726177000000 PUSH1 0x0 DUP3 ADD MSTORE POP JUMP JUMPDEST PUSH32 0x455243313135353A206D696E7420746F20746865207A65726F20616464726573 PUSH1 0x0 DUP3 ADD MSTORE PUSH32 0x7300000000000000000000000000000000000000000000000000000000000000 PUSH1 0x20 DUP3 ADD MSTORE POP JUMP JUMPDEST PUSH1 0x0 PUSH1 0x44 RETURNDATASIZE LT ISZERO PUSH2 0x2181 JUMPI PUSH2 0x2204 JUMP JUMPDEST PUSH2 0x2189 PUSH2 0x1B96 JUMP JUMPDEST PUSH1 0x4 RETURNDATASIZE SUB PUSH1 0x4 DUP3 RETURNDATACOPY DUP1 MLOAD RETURNDATASIZE PUSH1 0x24 DUP3 ADD GT PUSH8 0xFFFFFFFFFFFFFFFF DUP3 GT OR ISZERO PUSH2 0x21B1 JUMPI POP POP PUSH2 0x2204 JUMP JUMPDEST DUP1 DUP3 ADD DUP1 MLOAD PUSH8 0xFFFFFFFFFFFFFFFF DUP2 GT ISZERO PUSH2 0x21CF JUMPI POP POP POP POP PUSH2 0x2204 JUMP JUMPDEST DUP1 PUSH1 0x20 DUP4 ADD ADD PUSH1 0x4 RETURNDATASIZE SUB DUP6 ADD DUP2 GT ISZERO PUSH2 0x21EC JUMPI POP POP POP POP POP PUSH2 0x2204 JUMP JUMPDEST PUSH2 0x21FB DUP3 PUSH1 0x20 ADD DUP6 ADD DUP7 PUSH2 0x1D26 JUMP JUMPDEST DUP3 SWAP6 POP POP POP POP POP POP JUMPDEST SWAP1 JUMP JUMPDEST PUSH2 0x2210 DUP2 PUSH2 0x1C2E JUMP JUMPDEST DUP2 EQ PUSH2 0x221B JUMPI PUSH1 0x0 DUP1 REVERT JUMPDEST POP JUMP JUMPDEST PUSH2 0x2227 DUP2 PUSH2 0x1C40 JUMP JUMPDEST DUP2 EQ PUSH2 0x2232 JUMPI PUSH1 0x0 DUP1 REVERT JUMPDEST POP JUMP JUMPDEST PUSH2 0x223E DUP2 PUSH2 0x1C5E JUMP JUMPDEST DUP2 EQ PUSH2 0x2249 JUMPI PUSH1 0x0 DUP1 REVERT JUMPDEST POP JUMP JUMPDEST PUSH2 0x2255 DUP2 PUSH2 0x1CAA JUMP JUMPDEST DUP2 EQ PUSH2 0x2260 JUMPI PUSH1 0x0 DUP1 REVERT JUMPDEST POP JUMP INVALID LOG2 PUSH5 0x6970667358 0x22 SLT KECCAK256 0xE7 0xE5 PUSH7 0x6E7C5A58056C30 0xB4 0xB2 0xAD 0xBB LOG0 0x1F 0xCE PUSH14 0x7805AE9D0FDC1712033E9D75E1DC PUSH5 0x736F6C6343 STOP ADDMOD SMOD STOP CALLER "
				},
				"gasEstimates": {
					"creation": {
						"codeDepositCost": "1771400",
						"executionCost": "infinite",
						"totalCost": "infinite"
					},
					"external": {
						"ContractBalance()": "2780",
						"CryptoRandomMint(address)": "infinite",
						"FiatrandomMint(address)": "infinite",
						"IsPaused()": "2516",
						"Owner()": "2630",
						"checkMintedCategoryWise()": "infinite",
						"checkTotalMinted()": "4693",
						"nums(uint256)": "4475",
						"openDropsite()": "28904",
						"stopDropsite()": "28881",
						"withDraw(address)": "infinite"
					},
					"internal": {
						"depositAmount(address,uint256)": "infinite",
						"random()": "infinite",
						"updateConditions()": "infinite"
					}
				},
				"methodIdentifiers": {
					"ContractBalance()": "3b668059",
					"CryptoRandomMint(address)": "3d65df70",
					"FiatrandomMint(address)": "fd93d41c",
					"IsPaused()": "1309a563",
					"Owner()": "b4a99a4e",
					"checkMintedCategoryWise()": "60daa851",
					"checkTotalMinted()": "0390c11c",
					"nums(uint256)": "fd1ee54c",
					"openDropsite()": "15460259",
					"stopDropsite()": "aa90c726",
					"withDraw(address)": "0a67d2c7"
				}
			},
			"userdoc": {
				"kind": "user",
				"methods": {},
				"version": 1
			}
		}
	}
}